{
	"data": {
		"bytecode": {
			"linkReferences": {},
			"object": "608060405234801561000f575f80fd5b50604051612c2f380380612c2f83398181016040528101906100319190610356565b805f73ffffffffffffffffffffffffffffffffffffffff168173ffffffffffffffffffffffffffffffffffffffff16036100a2575f6040517f1e4fbdf700000000000000000000000000000000000000000000000000000000815260040161009991906103b5565b60405180910390fd5b6100b18161023760201b60201c565b50600180819055505f60025f6101000a81548160ff0219169083151502179055505f73ffffffffffffffffffffffffffffffffffffffff168373ffffffffffffffffffffffffffffffffffffffff1603610140576040517f08c379a000000000000000000000000000000000000000000000000000000000815260040161013790610428565b60405180910390fd5b5f73ffffffffffffffffffffffffffffffffffffffff168273ffffffffffffffffffffffffffffffffffffffff16036101ae576040517f08c379a00000000000000000000000000000000000000000000000000000000081526004016101a590610490565b60405180910390fd5b8260035f6101000a81548173ffffffffffffffffffffffffffffffffffffffff021916908373ffffffffffffffffffffffffffffffffffffffff16021790555081600260016101000a81548173ffffffffffffffffffffffffffffffffffffffff021916908373ffffffffffffffffffffffffffffffffffffffff1602179055505050506104ae565b5f805f9054906101000a900473ffffffffffffffffffffffffffffffffffffffff169050815f806101000a81548173ffffffffffffffffffffffffffffffffffffffff021916908373ffffffffffffffffffffffffffffffffffffffff1602179055508173ffffffffffffffffffffffffffffffffffffffff168173ffffffffffffffffffffffffffffffffffffffff167f8be0079c531659141344cd1fd0a4f28419497f9722a3daafe3b4186f6b6457e060405160405180910390a35050565b5f80fd5b5f73ffffffffffffffffffffffffffffffffffffffff82169050919050565b5f610325826102fc565b9050919050565b6103358161031b565b811461033f575f80fd5b50565b5f815190506103508161032c565b92915050565b5f805f6060848603121561036d5761036c6102f8565b5b5f61037a86828701610342565b935050602061038b86828701610342565b925050604061039c86828701610342565b9150509250925092565b6103af8161031b565b82525050565b5f6020820190506103c85f8301846103a6565b92915050565b5f82825260208201905092915050565b7f496e76616c696420746f6b656e206164647265737300000000000000000000005f82015250565b5f6104126015836103ce565b915061041d826103de565b602082019050919050565b5f6020820190508181035f83015261043f81610406565b9050919050565b7f496e76616c6964207665726966696572206164647265737300000000000000005f82015250565b5f61047a6018836103ce565b915061048582610446565b602082019050919050565b5f6020820190508181035f8301526104a78161046e565b9050919050565b612774806104bb5f395ff3fe608060405234801561000f575f80fd5b506004361061011f575f3560e01c80638456cb59116100ab578063db2e21bc1161006f578063db2e21bc146102d1578063dd5967c3146102db578063e1e158a5146102f9578063f2fde38b14610317578063fc0c546a146103335761011f565b80638456cb591461022957806385de26b7146102335780638da5cb5b146102675780639d280f5114610285578063b3f15741146102b55761011f565b80633f4ba83a116100f25780633f4ba83a146101ab5780635437988d146101b55780635c975abb146101d1578063715018a6146101ef5780637ecf686d146101f95761011f565b806312065fe0146101235780631acc84861461014157806322dc7b4c1461015d5780632b7ac3f31461018d575b5f80fd5b61012b610351565b6040516101389190611925565b60405180910390f35b61015b60048036038101906101569190611a04565b6103f0565b005b61017760048036038101906101729190611a75565b61097f565b6040516101849190611aba565b60405180910390f35b6101956109a5565b6040516101a29190611b4d565b60405180910390f35b6101b36109cb565b005b6101cf60048036038101906101ca9190611ba1565b6109dd565b005b6101d9610b23565b6040516101e69190611aba565b60405180910390f35b6101f7610b38565b005b610213600480360381019061020e9190611a75565b610b4b565b6040516102209190611aba565b60405180910390f35b610231610b68565b005b61024d60048036038101906102489190611a75565b610b7a565b60405161025e959493929190611bdb565b60405180910390f35b61026f610bb8565b60405161027c9190611c3b565b60405180910390f35b61029f600480360381019061029a9190611a75565b610bdf565b6040516102ac9190611ce7565b60405180910390f35b6102cf60048036038101906102ca9190611d00565b610c4b565b005b6102d9611319565b005b6102e361153b565b6040516102f09190611925565b60405180910390f35b610301611549565b60405161030e9190611925565b60405180910390f35b610331600480360381019061032c9190611ba1565b611550565b005b61033b6115d4565b6040516103489190611db6565b60405180910390f35b5f60035f9054906101000a900473ffffffffffffffffffffffffffffffffffffffff1673ffffffffffffffffffffffffffffffffffffffff166370a08231306040518263ffffffff1660e01b81526004016103ac9190611c3b565b602060405180830381865afa1580156103c7573d5f803e3d5ffd5b505050506040513d601f19601f820116820180604052508101906103eb9190611de3565b905090565b6103f86115f9565b61040061163f565b5f801b8403610444576040517f08c379a000000000000000000000000000000000000000000000000000000000815260040161043b90611e68565b60405180910390fd5b620f424083101561048a576040517f08c379a000000000000000000000000000000000000000000000000000000000815260040161048190611ed0565b60405180910390fd5b69d3c21bcecceda10000008311156104d7576040517f08c379a00000000000000000000000000000000000000000000000000000000081526004016104ce90611f38565b60405180910390fd5b5f801b60045f8681526020019081526020015f205f01541461052e576040517f08c379a000000000000000000000000000000000000000000000000000000000815260040161052590611fa0565b60405180910390fd5b5f8282905011610573576040517f08c379a000000000000000000000000000000000000000000000000000000000815260040161056a90612008565b60405180910390fd5b600260019054906101000a900473ffffffffffffffffffffffffffffffffffffffff1673ffffffffffffffffffffffffffffffffffffffff1663ebcb558485853386866040518663ffffffff1660e01b81526004016105d6959493929190612080565b602060405180830381865afa1580156105f1573d5f803e3d5ffd5b505050506040513d601f19601f8201168201806040525081019061061591906120f6565b610654576040517f08c379a000000000000000000000000000000000000000000000000000000000815260040161064b9061216b565b60405180910390fd5b5f60035f9054906101000a900473ffffffffffffffffffffffffffffffffffffffff1673ffffffffffffffffffffffffffffffffffffffff166370a08231306040518263ffffffff1660e01b81526004016106af9190611c3b565b602060405180830381865afa1580156106ca573d5f803e3d5ffd5b505050506040513d601f19601f820116820180604052508101906106ee9190611de3565b905060035f9054906101000a900473ffffffffffffffffffffffffffffffffffffffff1673ffffffffffffffffffffffffffffffffffffffff166323b872dd3330876040518463ffffffff1660e01b815260040161074e93929190612189565b6020604051808303815f875af115801561076a573d5f803e3d5ffd5b505050506040513d601f19601f8201168201806040525081019061078e91906120f6565b6107cd576040517f08c379a00000000000000000000000000000000000000000000000000000000081526004016107c490612208565b60405180910390fd5b83816107d99190612253565b60035f9054906101000a900473ffffffffffffffffffffffffffffffffffffffff1673ffffffffffffffffffffffffffffffffffffffff166370a08231306040518263ffffffff1660e01b81526004016108339190611c3b565b602060405180830381865afa15801561084e573d5f803e3d5ffd5b505050506040513d601f19601f820116820180604052508101906108729190611de3565b146108b2576040517f08c379a00000000000000000000000000000000000000000000000000000000081526004016108a9906122d0565b60405180910390fd5b6040518060a001604052808681526020015f801b81526020018581526020015f151581526020014281525060045f8781526020019081526020015f205f820151815f015560208201518160010155604082015181600201556060820151816003015f6101000a81548160ff02191690831515021790555060808201518160040155905050847f1ca12c4f007b87bb1429f9f86ac057e97667574f9f31be5b9c3ea6260e8872fe85426040516109689291906122ee565b60405180910390a250610979611680565b50505050565b5f60055f8381526020019081526020015f205f9054906101000a900460ff169050919050565b600260019054906101000a900473ffffffffffffffffffffffffffffffffffffffff1681565b6109d3611689565b6109db611710565b565b6109e5611689565b5f73ffffffffffffffffffffffffffffffffffffffff168173ffffffffffffffffffffffffffffffffffffffff1603610a53576040517f08c379a0000000000000000000000000000000000000000000000000000000008152600401610a4a9061235f565b60405180910390fd5b5f600260019054906101000a900473ffffffffffffffffffffffffffffffffffffffff16905081600260016101000a81548173ffffffffffffffffffffffffffffffffffffffff021916908373ffffffffffffffffffffffffffffffffffffffff1602179055508173ffffffffffffffffffffffffffffffffffffffff168173ffffffffffffffffffffffffffffffffffffffff167fd64ae07f3ddea489022b7c3651c0b93cc96296695feac84461061dfa1f34c0cb42604051610b179190611925565b60405180910390a35050565b5f60025f9054906101000a900460ff16905090565b610b40611689565b610b495f611771565b565b6005602052805f5260405f205f915054906101000a900460ff1681565b610b70611689565b610b78611832565b565b6004602052805f5260405f205f91509050805f015490806001015490806002015490806003015f9054906101000a900460ff16908060040154905085565b5f805f9054906101000a900473ffffffffffffffffffffffffffffffffffffffff16905090565b610be76118db565b60045f8381526020019081526020015f206040518060a00160405290815f82015481526020016001820154815260200160028201548152602001600382015f9054906101000a900460ff161515151581526020016004820154815250509050919050565b610c536115f9565b610c5b61163f565b5f801b8603610c9f576040517f08c379a0000000000000000000000000000000000000000000000000000000008152600401610c96906123c7565b60405180910390fd5b5f801b8503610ce3576040517f08c379a0000000000000000000000000000000000000000000000000000000008152600401610cda90611e68565b60405180910390fd5b5f73ffffffffffffffffffffffffffffffffffffffff168473ffffffffffffffffffffffffffffffffffffffff1603610d51576040517f08c379a0000000000000000000000000000000000000000000000000000000008152600401610d489061242f565b60405180910390fd5b5f8311610d93576040517f08c379a0000000000000000000000000000000000000000000000000000000008152600401610d8a90612497565b60405180910390fd5b60055f8781526020019081526020015f205f9054906101000a900460ff1615610df1576040517f08c379a0000000000000000000000000000000000000000000000000000000008152600401610de8906124ff565b60405180910390fd5b5f60045f8781526020019081526020015f2090505f801b815f015403610e4c576040517f08c379a0000000000000000000000000000000000000000000000000000000008152600401610e4390612567565b60405180910390fd5b806003015f9054906101000a900460ff1615610e9d576040517f08c379a0000000000000000000000000000000000000000000000000000000008152600401610e94906125cf565b60405180910390fd5b8060020154841115610ee4576040517f08c379a0000000000000000000000000000000000000000000000000000000008152600401610edb90612637565b60405180910390fd5b5f8383905011610f29576040517f08c379a0000000000000000000000000000000000000000000000000000000008152600401610f2090612008565b60405180910390fd5b600260019054906101000a900473ffffffffffffffffffffffffffffffffffffffff1673ffffffffffffffffffffffffffffffffffffffff1663c53ed3bf8888888888886040518763ffffffff1660e01b8152600401610f8e96959493929190612655565b602060405180830381865afa158015610fa9573d5f803e3d5ffd5b505050506040513d601f19601f82011682018060405250810190610fcd91906120f6565b61100c576040517f08c379a00000000000000000000000000000000000000000000000000000000081526004016110039061216b565b60405180910390fd5b600160055f8981526020019081526020015f205f6101000a81548160ff0219169083151502179055506001816003015f6101000a81548160ff0219169083151502179055508681600101819055505f60035f9054906101000a900473ffffffffffffffffffffffffffffffffffffffff1673ffffffffffffffffffffffffffffffffffffffff166370a08231876040518263ffffffff1660e01b81526004016110b59190611c3b565b602060405180830381865afa1580156110d0573d5f803e3d5ffd5b505050506040513d601f19601f820116820180604052508101906110f49190611de3565b905060035f9054906101000a900473ffffffffffffffffffffffffffffffffffffffff1673ffffffffffffffffffffffffffffffffffffffff1663a9059cbb87876040518363ffffffff1660e01b81526004016111529291906126af565b6020604051808303815f875af115801561116e573d5f803e3d5ffd5b505050506040513d601f19601f8201168201806040525081019061119291906120f6565b6111d1576040517f08c379a00000000000000000000000000000000000000000000000000000000081526004016111c890612208565b60405180910390fd5b84816111dd9190612253565b60035f9054906101000a900473ffffffffffffffffffffffffffffffffffffffff1673ffffffffffffffffffffffffffffffffffffffff166370a08231886040518263ffffffff1660e01b81526004016112379190611c3b565b602060405180830381865afa158015611252573d5f803e3d5ffd5b505050506040513d601f19601f820116820180604052508101906112769190611de3565b146112b6576040517f08c379a00000000000000000000000000000000000000000000000000000000081526004016112ad906122d0565b60405180910390fd5b8573ffffffffffffffffffffffffffffffffffffffff16887f66f083a4c3ed4eec4e232ae3e65a14e7704192e147f54ed38a55600500bc368f87426040516112ff9291906122ee565b60405180910390a35050611311611680565b505050505050565b611321611689565b5f60035f9054906101000a900473ffffffffffffffffffffffffffffffffffffffff1673ffffffffffffffffffffffffffffffffffffffff166370a08231306040518263ffffffff1660e01b815260040161137c9190611c3b565b602060405180830381865afa158015611397573d5f803e3d5ffd5b505050506040513d601f19601f820116820180604052508101906113bb9190611de3565b90505f81116113ff576040517f08c379a00000000000000000000000000000000000000000000000000000000081526004016113f690612720565b60405180910390fd5b60035f9054906101000a900473ffffffffffffffffffffffffffffffffffffffff1673ffffffffffffffffffffffffffffffffffffffff1663a9059cbb611444610bb8565b836040518363ffffffff1660e01b81526004016114629291906126af565b6020604051808303815f875af115801561147e573d5f803e3d5ffd5b505050506040513d601f19601f820116820180604052508101906114a291906120f6565b6114e1576040517f08c379a00000000000000000000000000000000000000000000000000000000081526004016114d890612208565b60405180910390fd5b6114e9610bb8565b73ffffffffffffffffffffffffffffffffffffffff167f56da9a5ae0bcf6e7c3fdd78a10550e7d0458de1c39bfb7f6e96a3e92dd344a6882426040516115309291906122ee565b60405180910390a250565b69d3c21bcecceda100000081565b620f424081565b611558611689565b5f73ffffffffffffffffffffffffffffffffffffffff168173ffffffffffffffffffffffffffffffffffffffff16036115c8575f6040517f1e4fbdf70000000000000000000000000000000000000000000000000000000081526004016115bf9190611c3b565b60405180910390fd5b6115d181611771565b50565b60035f9054906101000a900473ffffffffffffffffffffffffffffffffffffffff1681565b600260015403611635576040517f3ee5aeb500000000000000000000000000000000000000000000000000000000815260040160405180910390fd5b6002600181905550565b611647610b23565b1561167e576040517fd93c066500000000000000000000000000000000000000000000000000000000815260040160405180910390fd5b565b60018081905550565b611691611894565b73ffffffffffffffffffffffffffffffffffffffff166116af610bb8565b73ffffffffffffffffffffffffffffffffffffffff161461170e576116d2611894565b6040517f118cdaa70000000000000000000000000000000000000000000000000000000081526004016117059190611c3b565b60405180910390fd5b565b61171861189b565b5f60025f6101000a81548160ff0219169083151502179055507f5db9ee0a495bf2e6ff9c91a7834c1ba4fdd244a5e8aa4e537bd38aeae4b073aa61175a611894565b6040516117679190611c3b565b60405180910390a1565b5f805f9054906101000a900473ffffffffffffffffffffffffffffffffffffffff169050815f806101000a81548173ffffffffffffffffffffffffffffffffffffffff021916908373ffffffffffffffffffffffffffffffffffffffff1602179055508173ffffffffffffffffffffffffffffffffffffffff168173ffffffffffffffffffffffffffffffffffffffff167f8be0079c531659141344cd1fd0a4f28419497f9722a3daafe3b4186f6b6457e060405160405180910390a35050565b61183a61163f565b600160025f6101000a81548160ff0219169083151502179055507f62e78cea01bee320cd4e420270b5ea74000d11b0c9f74754ebdbfc544b05a25861187d611894565b60405161188a9190611c3b565b60405180910390a1565b5f33905090565b6118a3610b23565b6118d9576040517f8dfc202b00000000000000000000000000000000000000000000000000000000815260040160405180910390fd5b565b6040518060a001604052805f80191681526020015f80191681526020015f81526020015f151581526020015f81525090565b5f819050919050565b61191f8161190d565b82525050565b5f6020820190506119385f830184611916565b92915050565b5f80fd5b5f80fd5b5f819050919050565b61195881611946565b8114611962575f80fd5b50565b5f813590506119738161194f565b92915050565b6119828161190d565b811461198c575f80fd5b50565b5f8135905061199d81611979565b92915050565b5f80fd5b5f80fd5b5f80fd5b5f8083601f8401126119c4576119c36119a3565b5b8235905067ffffffffffffffff8111156119e1576119e06119a7565b5b6020830191508360018202830111156119fd576119fc6119ab565b5b9250929050565b5f805f8060608587031215611a1c57611a1b61193e565b5b5f611a2987828801611965565b9450506020611a3a8782880161198f565b935050604085013567ffffffffffffffff811115611a5b57611a5a611942565b5b611a67878288016119af565b925092505092959194509250565b5f60208284031215611a8a57611a8961193e565b5b5f611a9784828501611965565b91505092915050565b5f8115159050919050565b611ab481611aa0565b82525050565b5f602082019050611acd5f830184611aab565b92915050565b5f73ffffffffffffffffffffffffffffffffffffffff82169050919050565b5f819050919050565b5f611b15611b10611b0b84611ad3565b611af2565b611ad3565b9050919050565b5f611b2682611afb565b9050919050565b5f611b3782611b1c565b9050919050565b611b4781611b2d565b82525050565b5f602082019050611b605f830184611b3e565b92915050565b5f611b7082611ad3565b9050919050565b611b8081611b66565b8114611b8a575f80fd5b50565b5f81359050611b9b81611b77565b92915050565b5f60208284031215611bb657611bb561193e565b5b5f611bc384828501611b8d565b91505092915050565b611bd581611946565b82525050565b5f60a082019050611bee5f830188611bcc565b611bfb6020830187611bcc565b611c086040830186611916565b611c156060830185611aab565b611c226080830184611916565b9695505050505050565b611c3581611b66565b82525050565b5f602082019050611c4e5f830184611c2c565b92915050565b611c5d81611946565b82525050565b611c6c8161190d565b82525050565b611c7b81611aa0565b82525050565b60a082015f820151611c955f850182611c54565b506020820151611ca86020850182611c54565b506040820151611cbb6040850182611c63565b506060820151611cce6060850182611c72565b506080820151611ce16080850182611c63565b50505050565b5f60a082019050611cfa5f830184611c81565b92915050565b5f805f805f8060a08789031215611d1a57611d1961193e565b5b5f611d2789828a01611965565b9650506020611d3889828a01611965565b9550506040611d4989828a01611b8d565b9450506060611d5a89828a0161198f565b935050608087013567ffffffffffffffff811115611d7b57611d7a611942565b5b611d8789828a016119af565b92509250509295509295509295565b5f611da082611b1c565b9050919050565b611db081611d96565b82525050565b5f602082019050611dc95f830184611da7565b92915050565b5f81519050611ddd81611979565b92915050565b5f60208284031215611df857611df761193e565b5b5f611e0584828501611dcf565b91505092915050565b5f82825260208201905092915050565b7f496e76616c696420636f6d6d69746d656e7400000000000000000000000000005f82015250565b5f611e52601283611e0e565b9150611e5d82611e1e565b602082019050919050565b5f6020820190508181035f830152611e7f81611e46565b9050919050565b7f416d6f756e742062656c6f77206d696e696d756d0000000000000000000000005f82015250565b5f611eba601483611e0e565b9150611ec582611e86565b602082019050919050565b5f6020820190508181035f830152611ee781611eae565b9050919050565b7f416d6f756e742061626f7665206d6178696d756d0000000000000000000000005f82015250565b5f611f22601483611e0e565b9150611f2d82611eee565b602082019050919050565b5f6020820190508181035f830152611f4f81611f16565b9050919050565b7f436f6d6d69746d656e74206578697374730000000000000000000000000000005f82015250565b5f611f8a601183611e0e565b9150611f9582611f56565b602082019050919050565b5f6020820190508181035f830152611fb781611f7e565b9050919050565b7f456d7074792070726f6f660000000000000000000000000000000000000000005f82015250565b5f611ff2600b83611e0e565b9150611ffd82611fbe565b602082019050919050565b5f6020820190508181035f83015261201f81611fe6565b9050919050565b5f82825260208201905092915050565b828183375f83830152505050565b5f601f19601f8301169050919050565b5f61205f8385612026565b935061206c838584612036565b61207583612044565b840190509392505050565b5f6080820190506120935f830188611bcc565b6120a06020830187611916565b6120ad6040830186611c2c565b81810360608301526120c0818486612054565b90509695505050505050565b6120d581611aa0565b81146120df575f80fd5b50565b5f815190506120f0816120cc565b92915050565b5f6020828403121561210b5761210a61193e565b5b5f612118848285016120e2565b91505092915050565b7f496e76616c69642070726f6f66000000000000000000000000000000000000005f82015250565b5f612155600d83611e0e565b915061216082612121565b602082019050919050565b5f6020820190508181035f83015261218281612149565b9050919050565b5f60608201905061219c5f830186611c2c565b6121a96020830185611c2c565b6121b66040830184611916565b949350505050565b7f5472616e73666572206661696c656400000000000000000000000000000000005f82015250565b5f6121f2600f83611e0e565b91506121fd826121be565b602082019050919050565b5f6020820190508181035f83015261221f816121e6565b9050919050565b7f4e487b71000000000000000000000000000000000000000000000000000000005f52601160045260245ffd5b5f61225d8261190d565b91506122688361190d565b92508282019050808211156122805761227f612226565b5b92915050565b7f496e76616c6964207472616e7366657220616d6f756e740000000000000000005f82015250565b5f6122ba601783611e0e565b91506122c582612286565b602082019050919050565b5f6020820190508181035f8301526122e7816122ae565b9050919050565b5f6040820190506123015f830185611916565b61230e6020830184611916565b9392505050565b7f496e76616c6964207665726966696572206164647265737300000000000000005f82015250565b5f612349601883611e0e565b915061235482612315565b602082019050919050565b5f6020820190508181035f8301526123768161233d565b9050919050565b7f496e76616c6964206e756c6c69666965720000000000000000000000000000005f82015250565b5f6123b1601183611e0e565b91506123bc8261237d565b602082019050919050565b5f6020820190508181035f8301526123de816123a5565b9050919050565b7f496e76616c696420726563697069656e740000000000000000000000000000005f82015250565b5f612419601183611e0e565b9150612424826123e5565b602082019050919050565b5f6020820190508181035f8301526124468161240d565b9050919050565b7f496e76616c696420616d6f756e740000000000000000000000000000000000005f82015250565b5f612481600e83611e0e565b915061248c8261244d565b602082019050919050565b5f6020820190508181035f8301526124ae81612475565b9050919050565b7f4e756c6c696669657220757365640000000000000000000000000000000000005f82015250565b5f6124e9600e83611e0e565b91506124f4826124b5565b602082019050919050565b5f6020820190508181035f830152612516816124dd565b9050919050565b7f4e6f7465206e6f7420666f756e640000000000000000000000000000000000005f82015250565b5f612551600e83611e0e565b915061255c8261251d565b602082019050919050565b5f6020820190508181035f83015261257e81612545565b9050919050565b7f4e6f7465207370656e74000000000000000000000000000000000000000000005f82015250565b5f6125b9600a83611e0e565b91506125c482612585565b602082019050919050565b5f6020820190508181035f8301526125e6816125ad565b9050919050565b7f496e73756666696369656e742062616c616e63650000000000000000000000005f82015250565b5f612621601483611e0e565b915061262c826125ed565b602082019050919050565b5f6020820190508181035f83015261264e81612615565b9050919050565b5f60a0820190506126685f830189611bcc565b6126756020830188611bcc565b6126826040830187611c2c565b61268f6060830186611916565b81810360808301526126a2818486612054565b9050979650505050505050565b5f6040820190506126c25f830185611c2c565b6126cf6020830184611916565b9392505050565b7f4e6f2062616c616e6365000000000000000000000000000000000000000000005f82015250565b5f61270a600a83611e0e565b9150612715826126d6565b602082019050919050565b5f6020820190508181035f830152612737816126fe565b905091905056fea26469706673582212203fa8920b56211b1dd08ca50321b973df946b67d1762018ef7506ab04708f79b264736f6c634300081a0033",
			"opcodes": "PUSH1 0x80 PUSH1 0x40 MSTORE CALLVALUE DUP1 ISZERO PUSH2 0xF JUMPI PUSH0 DUP1 REVERT JUMPDEST POP PUSH1 0x40 MLOAD PUSH2 0x2C2F CODESIZE SUB DUP1 PUSH2 0x2C2F DUP4 CODECOPY DUP2 DUP2 ADD PUSH1 0x40 MSTORE DUP2 ADD SWAP1 PUSH2 0x31 SWAP2 SWAP1 PUSH2 0x356 JUMP JUMPDEST DUP1 PUSH0 PUSH20 0xFFFFFFFFFFFFFFFFFFFFFFFFFFFFFFFFFFFFFFFF AND DUP2 PUSH20 0xFFFFFFFFFFFFFFFFFFFFFFFFFFFFFFFFFFFFFFFF AND SUB PUSH2 0xA2 JUMPI PUSH0 PUSH1 0x40 MLOAD PUSH32 0x1E4FBDF700000000000000000000000000000000000000000000000000000000 DUP2 MSTORE PUSH1 0x4 ADD PUSH2 0x99 SWAP2 SWAP1 PUSH2 0x3B5 JUMP JUMPDEST PUSH1 0x40 MLOAD DUP1 SWAP2 SUB SWAP1 REVERT JUMPDEST PUSH2 0xB1 DUP2 PUSH2 0x237 PUSH1 0x20 SHL PUSH1 0x20 SHR JUMP JUMPDEST POP PUSH1 0x1 DUP1 DUP2 SWAP1 SSTORE POP PUSH0 PUSH1 0x2 PUSH0 PUSH2 0x100 EXP DUP2 SLOAD DUP2 PUSH1 0xFF MUL NOT AND SWAP1 DUP4 ISZERO ISZERO MUL OR SWAP1 SSTORE POP PUSH0 PUSH20 0xFFFFFFFFFFFFFFFFFFFFFFFFFFFFFFFFFFFFFFFF AND DUP4 PUSH20 0xFFFFFFFFFFFFFFFFFFFFFFFFFFFFFFFFFFFFFFFF AND SUB PUSH2 0x140 JUMPI PUSH1 0x40 MLOAD PUSH32 0x8C379A000000000000000000000000000000000000000000000000000000000 DUP2 MSTORE PUSH1 0x4 ADD PUSH2 0x137 SWAP1 PUSH2 0x428 JUMP JUMPDEST PUSH1 0x40 MLOAD DUP1 SWAP2 SUB SWAP1 REVERT JUMPDEST PUSH0 PUSH20 0xFFFFFFFFFFFFFFFFFFFFFFFFFFFFFFFFFFFFFFFF AND DUP3 PUSH20 0xFFFFFFFFFFFFFFFFFFFFFFFFFFFFFFFFFFFFFFFF AND SUB PUSH2 0x1AE JUMPI PUSH1 0x40 MLOAD PUSH32 0x8C379A000000000000000000000000000000000000000000000000000000000 DUP2 MSTORE PUSH1 0x4 ADD PUSH2 0x1A5 SWAP1 PUSH2 0x490 JUMP JUMPDEST PUSH1 0x40 MLOAD DUP1 SWAP2 SUB SWAP1 REVERT JUMPDEST DUP3 PUSH1 0x3 PUSH0 PUSH2 0x100 EXP DUP2 SLOAD DUP2 PUSH20 0xFFFFFFFFFFFFFFFFFFFFFFFFFFFFFFFFFFFFFFFF MUL NOT AND SWAP1 DUP4 PUSH20 0xFFFFFFFFFFFFFFFFFFFFFFFFFFFFFFFFFFFFFFFF AND MUL OR SWAP1 SSTORE POP DUP2 PUSH1 0x2 PUSH1 0x1 PUSH2 0x100 EXP DUP2 SLOAD DUP2 PUSH20 0xFFFFFFFFFFFFFFFFFFFFFFFFFFFFFFFFFFFFFFFF MUL NOT AND SWAP1 DUP4 PUSH20 0xFFFFFFFFFFFFFFFFFFFFFFFFFFFFFFFFFFFFFFFF AND MUL OR SWAP1 SSTORE POP POP POP POP PUSH2 0x4AE JUMP JUMPDEST PUSH0 DUP1 PUSH0 SWAP1 SLOAD SWAP1 PUSH2 0x100 EXP SWAP1 DIV PUSH20 0xFFFFFFFFFFFFFFFFFFFFFFFFFFFFFFFFFFFFFFFF AND SWAP1 POP DUP2 PUSH0 DUP1 PUSH2 0x100 EXP DUP2 SLOAD DUP2 PUSH20 0xFFFFFFFFFFFFFFFFFFFFFFFFFFFFFFFFFFFFFFFF MUL NOT AND SWAP1 DUP4 PUSH20 0xFFFFFFFFFFFFFFFFFFFFFFFFFFFFFFFFFFFFFFFF AND MUL OR SWAP1 SSTORE POP DUP2 PUSH20 0xFFFFFFFFFFFFFFFFFFFFFFFFFFFFFFFFFFFFFFFF AND DUP2 PUSH20 0xFFFFFFFFFFFFFFFFFFFFFFFFFFFFFFFFFFFFFFFF AND PUSH32 0x8BE0079C531659141344CD1FD0A4F28419497F9722A3DAAFE3B4186F6B6457E0 PUSH1 0x40 MLOAD PUSH1 0x40 MLOAD DUP1 SWAP2 SUB SWAP1 LOG3 POP POP JUMP JUMPDEST PUSH0 DUP1 REVERT JUMPDEST PUSH0 PUSH20 0xFFFFFFFFFFFFFFFFFFFFFFFFFFFFFFFFFFFFFFFF DUP3 AND SWAP1 POP SWAP2 SWAP1 POP JUMP JUMPDEST PUSH0 PUSH2 0x325 DUP3 PUSH2 0x2FC JUMP JUMPDEST SWAP1 POP SWAP2 SWAP1 POP JUMP JUMPDEST PUSH2 0x335 DUP2 PUSH2 0x31B JUMP JUMPDEST DUP2 EQ PUSH2 0x33F JUMPI PUSH0 DUP1 REVERT JUMPDEST POP JUMP JUMPDEST PUSH0 DUP2 MLOAD SWAP1 POP PUSH2 0x350 DUP2 PUSH2 0x32C JUMP JUMPDEST SWAP3 SWAP2 POP POP JUMP JUMPDEST PUSH0 DUP1 PUSH0 PUSH1 0x60 DUP5 DUP7 SUB SLT ISZERO PUSH2 0x36D JUMPI PUSH2 0x36C PUSH2 0x2F8 JUMP JUMPDEST JUMPDEST PUSH0 PUSH2 0x37A DUP7 DUP3 DUP8 ADD PUSH2 0x342 JUMP JUMPDEST SWAP4 POP POP PUSH1 0x20 PUSH2 0x38B DUP7 DUP3 DUP8 ADD PUSH2 0x342 JUMP JUMPDEST SWAP3 POP POP PUSH1 0x40 PUSH2 0x39C DUP7 DUP3 DUP8 ADD PUSH2 0x342 JUMP JUMPDEST SWAP2 POP POP SWAP3 POP SWAP3 POP SWAP3 JUMP JUMPDEST PUSH2 0x3AF DUP2 PUSH2 0x31B JUMP JUMPDEST DUP3 MSTORE POP POP JUMP JUMPDEST PUSH0 PUSH1 0x20 DUP3 ADD SWAP1 POP PUSH2 0x3C8 PUSH0 DUP4 ADD DUP5 PUSH2 0x3A6 JUMP JUMPDEST SWAP3 SWAP2 POP POP JUMP JUMPDEST PUSH0 DUP3 DUP3 MSTORE PUSH1 0x20 DUP3 ADD SWAP1 POP SWAP3 SWAP2 POP POP JUMP JUMPDEST PUSH32 0x496E76616C696420746F6B656E20616464726573730000000000000000000000 PUSH0 DUP3 ADD MSTORE POP JUMP JUMPDEST PUSH0 PUSH2 0x412 PUSH1 0x15 DUP4 PUSH2 0x3CE JUMP JUMPDEST SWAP2 POP PUSH2 0x41D DUP3 PUSH2 0x3DE JUMP JUMPDEST PUSH1 0x20 DUP3 ADD SWAP1 POP SWAP2 SWAP1 POP JUMP JUMPDEST PUSH0 PUSH1 0x20 DUP3 ADD SWAP1 POP DUP2 DUP2 SUB PUSH0 DUP4 ADD MSTORE PUSH2 0x43F DUP2 PUSH2 0x406 JUMP JUMPDEST SWAP1 POP SWAP2 SWAP1 POP JUMP JUMPDEST PUSH32 0x496E76616C696420766572696669657220616464726573730000000000000000 PUSH0 DUP3 ADD MSTORE POP JUMP JUMPDEST PUSH0 PUSH2 0x47A PUSH1 0x18 DUP4 PUSH2 0x3CE JUMP JUMPDEST SWAP2 POP PUSH2 0x485 DUP3 PUSH2 0x446 JUMP JUMPDEST PUSH1 0x20 DUP3 ADD SWAP1 POP SWAP2 SWAP1 POP JUMP JUMPDEST PUSH0 PUSH1 0x20 DUP3 ADD SWAP1 POP DUP2 DUP2 SUB PUSH0 DUP4 ADD MSTORE PUSH2 0x4A7 DUP2 PUSH2 0x46E JUMP JUMPDEST SWAP1 POP SWAP2 SWAP1 POP JUMP JUMPDEST PUSH2 0x2774 DUP1 PUSH2 0x4BB PUSH0 CODECOPY PUSH0 RETURN INVALID PUSH1 0x80 PUSH1 0x40 MSTORE CALLVALUE DUP1 ISZERO PUSH2 0xF JUMPI PUSH0 DUP1 REVERT JUMPDEST POP PUSH1 0x4 CALLDATASIZE LT PUSH2 0x11F JUMPI PUSH0 CALLDATALOAD PUSH1 0xE0 SHR DUP1 PUSH4 0x8456CB59 GT PUSH2 0xAB JUMPI DUP1 PUSH4 0xDB2E21BC GT PUSH2 0x6F JUMPI DUP1 PUSH4 0xDB2E21BC EQ PUSH2 0x2D1 JUMPI DUP1 PUSH4 0xDD5967C3 EQ PUSH2 0x2DB JUMPI DUP1 PUSH4 0xE1E158A5 EQ PUSH2 0x2F9 JUMPI DUP1 PUSH4 0xF2FDE38B EQ PUSH2 0x317 JUMPI DUP1 PUSH4 0xFC0C546A EQ PUSH2 0x333 JUMPI PUSH2 0x11F JUMP JUMPDEST DUP1 PUSH4 0x8456CB59 EQ PUSH2 0x229 JUMPI DUP1 PUSH4 0x85DE26B7 EQ PUSH2 0x233 JUMPI DUP1 PUSH4 0x8DA5CB5B EQ PUSH2 0x267 JUMPI DUP1 PUSH4 0x9D280F51 EQ PUSH2 0x285 JUMPI DUP1 PUSH4 0xB3F15741 EQ PUSH2 0x2B5 JUMPI PUSH2 0x11F JUMP JUMPDEST DUP1 PUSH4 0x3F4BA83A GT PUSH2 0xF2 JUMPI DUP1 PUSH4 0x3F4BA83A EQ PUSH2 0x1AB JUMPI DUP1 PUSH4 0x5437988D EQ PUSH2 0x1B5 JUMPI DUP1 PUSH4 0x5C975ABB EQ PUSH2 0x1D1 JUMPI DUP1 PUSH4 0x715018A6 EQ PUSH2 0x1EF JUMPI DUP1 PUSH4 0x7ECF686D EQ PUSH2 0x1F9 JUMPI PUSH2 0x11F JUMP JUMPDEST DUP1 PUSH4 0x12065FE0 EQ PUSH2 0x123 JUMPI DUP1 PUSH4 0x1ACC8486 EQ PUSH2 0x141 JUMPI DUP1 PUSH4 0x22DC7B4C EQ PUSH2 0x15D JUMPI DUP1 PUSH4 0x2B7AC3F3 EQ PUSH2 0x18D JUMPI JUMPDEST PUSH0 DUP1 REVERT JUMPDEST PUSH2 0x12B PUSH2 0x351 JUMP JUMPDEST PUSH1 0x40 MLOAD PUSH2 0x138 SWAP2 SWAP1 PUSH2 0x1925 JUMP JUMPDEST PUSH1 0x40 MLOAD DUP1 SWAP2 SUB SWAP1 RETURN JUMPDEST PUSH2 0x15B PUSH1 0x4 DUP1 CALLDATASIZE SUB DUP2 ADD SWAP1 PUSH2 0x156 SWAP2 SWAP1 PUSH2 0x1A04 JUMP JUMPDEST PUSH2 0x3F0 JUMP JUMPDEST STOP JUMPDEST PUSH2 0x177 PUSH1 0x4 DUP1 CALLDATASIZE SUB DUP2 ADD SWAP1 PUSH2 0x172 SWAP2 SWAP1 PUSH2 0x1A75 JUMP JUMPDEST PUSH2 0x97F JUMP JUMPDEST PUSH1 0x40 MLOAD PUSH2 0x184 SWAP2 SWAP1 PUSH2 0x1ABA JUMP JUMPDEST PUSH1 0x40 MLOAD DUP1 SWAP2 SUB SWAP1 RETURN JUMPDEST PUSH2 0x195 PUSH2 0x9A5 JUMP JUMPDEST PUSH1 0x40 MLOAD PUSH2 0x1A2 SWAP2 SWAP1 PUSH2 0x1B4D JUMP JUMPDEST PUSH1 0x40 MLOAD DUP1 SWAP2 SUB SWAP1 RETURN JUMPDEST PUSH2 0x1B3 PUSH2 0x9CB JUMP JUMPDEST STOP JUMPDEST PUSH2 0x1CF PUSH1 0x4 DUP1 CALLDATASIZE SUB DUP2 ADD SWAP1 PUSH2 0x1CA SWAP2 SWAP1 PUSH2 0x1BA1 JUMP JUMPDEST PUSH2 0x9DD JUMP JUMPDEST STOP JUMPDEST PUSH2 0x1D9 PUSH2 0xB23 JUMP JUMPDEST PUSH1 0x40 MLOAD PUSH2 0x1E6 SWAP2 SWAP1 PUSH2 0x1ABA JUMP JUMPDEST PUSH1 0x40 MLOAD DUP1 SWAP2 SUB SWAP1 RETURN JUMPDEST PUSH2 0x1F7 PUSH2 0xB38 JUMP JUMPDEST STOP JUMPDEST PUSH2 0x213 PUSH1 0x4 DUP1 CALLDATASIZE SUB DUP2 ADD SWAP1 PUSH2 0x20E SWAP2 SWAP1 PUSH2 0x1A75 JUMP JUMPDEST PUSH2 0xB4B JUMP JUMPDEST PUSH1 0x40 MLOAD PUSH2 0x220 SWAP2 SWAP1 PUSH2 0x1ABA JUMP JUMPDEST PUSH1 0x40 MLOAD DUP1 SWAP2 SUB SWAP1 RETURN JUMPDEST PUSH2 0x231 PUSH2 0xB68 JUMP JUMPDEST STOP JUMPDEST PUSH2 0x24D PUSH1 0x4 DUP1 CALLDATASIZE SUB DUP2 ADD SWAP1 PUSH2 0x248 SWAP2 SWAP1 PUSH2 0x1A75 JUMP JUMPDEST PUSH2 0xB7A JUMP JUMPDEST PUSH1 0x40 MLOAD PUSH2 0x25E SWAP6 SWAP5 SWAP4 SWAP3 SWAP2 SWAP1 PUSH2 0x1BDB JUMP JUMPDEST PUSH1 0x40 MLOAD DUP1 SWAP2 SUB SWAP1 RETURN JUMPDEST PUSH2 0x26F PUSH2 0xBB8 JUMP JUMPDEST PUSH1 0x40 MLOAD PUSH2 0x27C SWAP2 SWAP1 PUSH2 0x1C3B JUMP JUMPDEST PUSH1 0x40 MLOAD DUP1 SWAP2 SUB SWAP1 RETURN JUMPDEST PUSH2 0x29F PUSH1 0x4 DUP1 CALLDATASIZE SUB DUP2 ADD SWAP1 PUSH2 0x29A SWAP2 SWAP1 PUSH2 0x1A75 JUMP JUMPDEST PUSH2 0xBDF JUMP JUMPDEST PUSH1 0x40 MLOAD PUSH2 0x2AC SWAP2 SWAP1 PUSH2 0x1CE7 JUMP JUMPDEST PUSH1 0x40 MLOAD DUP1 SWAP2 SUB SWAP1 RETURN JUMPDEST PUSH2 0x2CF PUSH1 0x4 DUP1 CALLDATASIZE SUB DUP2 ADD SWAP1 PUSH2 0x2CA SWAP2 SWAP1 PUSH2 0x1D00 JUMP JUMPDEST PUSH2 0xC4B JUMP JUMPDEST STOP JUMPDEST PUSH2 0x2D9 PUSH2 0x1319 JUMP JUMPDEST STOP JUMPDEST PUSH2 0x2E3 PUSH2 0x153B JUMP JUMPDEST PUSH1 0x40 MLOAD PUSH2 0x2F0 SWAP2 SWAP1 PUSH2 0x1925 JUMP JUMPDEST PUSH1 0x40 MLOAD DUP1 SWAP2 SUB SWAP1 RETURN JUMPDEST PUSH2 0x301 PUSH2 0x1549 JUMP JUMPDEST PUSH1 0x40 MLOAD PUSH2 0x30E SWAP2 SWAP1 PUSH2 0x1925 JUMP JUMPDEST PUSH1 0x40 MLOAD DUP1 SWAP2 SUB SWAP1 RETURN JUMPDEST PUSH2 0x331 PUSH1 0x4 DUP1 CALLDATASIZE SUB DUP2 ADD SWAP1 PUSH2 0x32C SWAP2 SWAP1 PUSH2 0x1BA1 JUMP JUMPDEST PUSH2 0x1550 JUMP JUMPDEST STOP JUMPDEST PUSH2 0x33B PUSH2 0x15D4 JUMP JUMPDEST PUSH1 0x40 MLOAD PUSH2 0x348 SWAP2 SWAP1 PUSH2 0x1DB6 JUMP JUMPDEST PUSH1 0x40 MLOAD DUP1 SWAP2 SUB SWAP1 RETURN JUMPDEST PUSH0 PUSH1 0x3 PUSH0 SWAP1 SLOAD SWAP1 PUSH2 0x100 EXP SWAP1 DIV PUSH20 0xFFFFFFFFFFFFFFFFFFFFFFFFFFFFFFFFFFFFFFFF AND PUSH20 0xFFFFFFFFFFFFFFFFFFFFFFFFFFFFFFFFFFFFFFFF AND PUSH4 0x70A08231 ADDRESS PUSH1 0x40 MLOAD DUP3 PUSH4 0xFFFFFFFF AND PUSH1 0xE0 SHL DUP2 MSTORE PUSH1 0x4 ADD PUSH2 0x3AC SWAP2 SWAP1 PUSH2 0x1C3B JUMP JUMPDEST PUSH1 0x20 PUSH1 0x40 MLOAD DUP1 DUP4 SUB DUP2 DUP7 GAS STATICCALL ISZERO DUP1 ISZERO PUSH2 0x3C7 JUMPI RETURNDATASIZE PUSH0 DUP1 RETURNDATACOPY RETURNDATASIZE PUSH0 REVERT JUMPDEST POP POP POP POP PUSH1 0x40 MLOAD RETURNDATASIZE PUSH1 0x1F NOT PUSH1 0x1F DUP3 ADD AND DUP3 ADD DUP1 PUSH1 0x40 MSTORE POP DUP2 ADD SWAP1 PUSH2 0x3EB SWAP2 SWAP1 PUSH2 0x1DE3 JUMP JUMPDEST SWAP1 POP SWAP1 JUMP JUMPDEST PUSH2 0x3F8 PUSH2 0x15F9 JUMP JUMPDEST PUSH2 0x400 PUSH2 0x163F JUMP JUMPDEST PUSH0 DUP1 SHL DUP5 SUB PUSH2 0x444 JUMPI PUSH1 0x40 MLOAD PUSH32 0x8C379A000000000000000000000000000000000000000000000000000000000 DUP2 MSTORE PUSH1 0x4 ADD PUSH2 0x43B SWAP1 PUSH2 0x1E68 JUMP JUMPDEST PUSH1 0x40 MLOAD DUP1 SWAP2 SUB SWAP1 REVERT JUMPDEST PUSH3 0xF4240 DUP4 LT ISZERO PUSH2 0x48A JUMPI PUSH1 0x40 MLOAD PUSH32 0x8C379A000000000000000000000000000000000000000000000000000000000 DUP2 MSTORE PUSH1 0x4 ADD PUSH2 0x481 SWAP1 PUSH2 0x1ED0 JUMP JUMPDEST PUSH1 0x40 MLOAD DUP1 SWAP2 SUB SWAP1 REVERT JUMPDEST PUSH10 0xD3C21BCECCEDA1000000 DUP4 GT ISZERO PUSH2 0x4D7 JUMPI PUSH1 0x40 MLOAD PUSH32 0x8C379A000000000000000000000000000000000000000000000000000000000 DUP2 MSTORE PUSH1 0x4 ADD PUSH2 0x4CE SWAP1 PUSH2 0x1F38 JUMP JUMPDEST PUSH1 0x40 MLOAD DUP1 SWAP2 SUB SWAP1 REVERT JUMPDEST PUSH0 DUP1 SHL PUSH1 0x4 PUSH0 DUP7 DUP2 MSTORE PUSH1 0x20 ADD SWAP1 DUP2 MSTORE PUSH1 0x20 ADD PUSH0 KECCAK256 PUSH0 ADD SLOAD EQ PUSH2 0x52E JUMPI PUSH1 0x40 MLOAD PUSH32 0x8C379A000000000000000000000000000000000000000000000000000000000 DUP2 MSTORE PUSH1 0x4 ADD PUSH2 0x525 SWAP1 PUSH2 0x1FA0 JUMP JUMPDEST PUSH1 0x40 MLOAD DUP1 SWAP2 SUB SWAP1 REVERT JUMPDEST PUSH0 DUP3 DUP3 SWAP1 POP GT PUSH2 0x573 JUMPI PUSH1 0x40 MLOAD PUSH32 0x8C379A000000000000000000000000000000000000000000000000000000000 DUP2 MSTORE PUSH1 0x4 ADD PUSH2 0x56A SWAP1 PUSH2 0x2008 JUMP JUMPDEST PUSH1 0x40 MLOAD DUP1 SWAP2 SUB SWAP1 REVERT JUMPDEST PUSH1 0x2 PUSH1 0x1 SWAP1 SLOAD SWAP1 PUSH2 0x100 EXP SWAP1 DIV PUSH20 0xFFFFFFFFFFFFFFFFFFFFFFFFFFFFFFFFFFFFFFFF AND PUSH20 0xFFFFFFFFFFFFFFFFFFFFFFFFFFFFFFFFFFFFFFFF AND PUSH4 0xEBCB5584 DUP6 DUP6 CALLER DUP7 DUP7 PUSH1 0x40 MLOAD DUP7 PUSH4 0xFFFFFFFF AND PUSH1 0xE0 SHL DUP2 MSTORE PUSH1 0x4 ADD PUSH2 0x5D6 SWAP6 SWAP5 SWAP4 SWAP3 SWAP2 SWAP1 PUSH2 0x2080 JUMP JUMPDEST PUSH1 0x20 PUSH1 0x40 MLOAD DUP1 DUP4 SUB DUP2 DUP7 GAS STATICCALL ISZERO DUP1 ISZERO PUSH2 0x5F1 JUMPI RETURNDATASIZE PUSH0 DUP1 RETURNDATACOPY RETURNDATASIZE PUSH0 REVERT JUMPDEST POP POP POP POP PUSH1 0x40 MLOAD RETURNDATASIZE PUSH1 0x1F NOT PUSH1 0x1F DUP3 ADD AND DUP3 ADD DUP1 PUSH1 0x40 MSTORE POP DUP2 ADD SWAP1 PUSH2 0x615 SWAP2 SWAP1 PUSH2 0x20F6 JUMP JUMPDEST PUSH2 0x654 JUMPI PUSH1 0x40 MLOAD PUSH32 0x8C379A000000000000000000000000000000000000000000000000000000000 DUP2 MSTORE PUSH1 0x4 ADD PUSH2 0x64B SWAP1 PUSH2 0x216B JUMP JUMPDEST PUSH1 0x40 MLOAD DUP1 SWAP2 SUB SWAP1 REVERT JUMPDEST PUSH0 PUSH1 0x3 PUSH0 SWAP1 SLOAD SWAP1 PUSH2 0x100 EXP SWAP1 DIV PUSH20 0xFFFFFFFFFFFFFFFFFFFFFFFFFFFFFFFFFFFFFFFF AND PUSH20 0xFFFFFFFFFFFFFFFFFFFFFFFFFFFFFFFFFFFFFFFF AND PUSH4 0x70A08231 ADDRESS PUSH1 0x40 MLOAD DUP3 PUSH4 0xFFFFFFFF AND PUSH1 0xE0 SHL DUP2 MSTORE PUSH1 0x4 ADD PUSH2 0x6AF SWAP2 SWAP1 PUSH2 0x1C3B JUMP JUMPDEST PUSH1 0x20 PUSH1 0x40 MLOAD DUP1 DUP4 SUB DUP2 DUP7 GAS STATICCALL ISZERO DUP1 ISZERO PUSH2 0x6CA JUMPI RETURNDATASIZE PUSH0 DUP1 RETURNDATACOPY RETURNDATASIZE PUSH0 REVERT JUMPDEST POP POP POP POP PUSH1 0x40 MLOAD RETURNDATASIZE PUSH1 0x1F NOT PUSH1 0x1F DUP3 ADD AND DUP3 ADD DUP1 PUSH1 0x40 MSTORE POP DUP2 ADD SWAP1 PUSH2 0x6EE SWAP2 SWAP1 PUSH2 0x1DE3 JUMP JUMPDEST SWAP1 POP PUSH1 0x3 PUSH0 SWAP1 SLOAD SWAP1 PUSH2 0x100 EXP SWAP1 DIV PUSH20 0xFFFFFFFFFFFFFFFFFFFFFFFFFFFFFFFFFFFFFFFF AND PUSH20 0xFFFFFFFFFFFFFFFFFFFFFFFFFFFFFFFFFFFFFFFF AND PUSH4 0x23B872DD CALLER ADDRESS DUP8 PUSH1 0x40 MLOAD DUP5 PUSH4 0xFFFFFFFF AND PUSH1 0xE0 SHL DUP2 MSTORE PUSH1 0x4 ADD PUSH2 0x74E SWAP4 SWAP3 SWAP2 SWAP1 PUSH2 0x2189 JUMP JUMPDEST PUSH1 0x20 PUSH1 0x40 MLOAD DUP1 DUP4 SUB DUP2 PUSH0 DUP8 GAS CALL ISZERO DUP1 ISZERO PUSH2 0x76A JUMPI RETURNDATASIZE PUSH0 DUP1 RETURNDATACOPY RETURNDATASIZE PUSH0 REVERT JUMPDEST POP POP POP POP PUSH1 0x40 MLOAD RETURNDATASIZE PUSH1 0x1F NOT PUSH1 0x1F DUP3 ADD AND DUP3 ADD DUP1 PUSH1 0x40 MSTORE POP DUP2 ADD SWAP1 PUSH2 0x78E SWAP2 SWAP1 PUSH2 0x20F6 JUMP JUMPDEST PUSH2 0x7CD JUMPI PUSH1 0x40 MLOAD PUSH32 0x8C379A000000000000000000000000000000000000000000000000000000000 DUP2 MSTORE PUSH1 0x4 ADD PUSH2 0x7C4 SWAP1 PUSH2 0x2208 JUMP JUMPDEST PUSH1 0x40 MLOAD DUP1 SWAP2 SUB SWAP1 REVERT JUMPDEST DUP4 DUP2 PUSH2 0x7D9 SWAP2 SWAP1 PUSH2 0x2253 JUMP JUMPDEST PUSH1 0x3 PUSH0 SWAP1 SLOAD SWAP1 PUSH2 0x100 EXP SWAP1 DIV PUSH20 0xFFFFFFFFFFFFFFFFFFFFFFFFFFFFFFFFFFFFFFFF AND PUSH20 0xFFFFFFFFFFFFFFFFFFFFFFFFFFFFFFFFFFFFFFFF AND PUSH4 0x70A08231 ADDRESS PUSH1 0x40 MLOAD DUP3 PUSH4 0xFFFFFFFF AND PUSH1 0xE0 SHL DUP2 MSTORE PUSH1 0x4 ADD PUSH2 0x833 SWAP2 SWAP1 PUSH2 0x1C3B JUMP JUMPDEST PUSH1 0x20 PUSH1 0x40 MLOAD DUP1 DUP4 SUB DUP2 DUP7 GAS STATICCALL ISZERO DUP1 ISZERO PUSH2 0x84E JUMPI RETURNDATASIZE PUSH0 DUP1 RETURNDATACOPY RETURNDATASIZE PUSH0 REVERT JUMPDEST POP POP POP POP PUSH1 0x40 MLOAD RETURNDATASIZE PUSH1 0x1F NOT PUSH1 0x1F DUP3 ADD AND DUP3 ADD DUP1 PUSH1 0x40 MSTORE POP DUP2 ADD SWAP1 PUSH2 0x872 SWAP2 SWAP1 PUSH2 0x1DE3 JUMP JUMPDEST EQ PUSH2 0x8B2 JUMPI PUSH1 0x40 MLOAD PUSH32 0x8C379A000000000000000000000000000000000000000000000000000000000 DUP2 MSTORE PUSH1 0x4 ADD PUSH2 0x8A9 SWAP1 PUSH2 0x22D0 JUMP JUMPDEST PUSH1 0x40 MLOAD DUP1 SWAP2 SUB SWAP1 REVERT JUMPDEST PUSH1 0x40 MLOAD DUP1 PUSH1 0xA0 ADD PUSH1 0x40 MSTORE DUP1 DUP7 DUP2 MSTORE PUSH1 0x20 ADD PUSH0 DUP1 SHL DUP2 MSTORE PUSH1 0x20 ADD DUP6 DUP2 MSTORE PUSH1 0x20 ADD PUSH0 ISZERO ISZERO DUP2 MSTORE PUSH1 0x20 ADD TIMESTAMP DUP2 MSTORE POP PUSH1 0x4 PUSH0 DUP8 DUP2 MSTORE PUSH1 0x20 ADD SWAP1 DUP2 MSTORE PUSH1 0x20 ADD PUSH0 KECCAK256 PUSH0 DUP3 ADD MLOAD DUP2 PUSH0 ADD SSTORE PUSH1 0x20 DUP3 ADD MLOAD DUP2 PUSH1 0x1 ADD SSTORE PUSH1 0x40 DUP3 ADD MLOAD DUP2 PUSH1 0x2 ADD SSTORE PUSH1 0x60 DUP3 ADD MLOAD DUP2 PUSH1 0x3 ADD PUSH0 PUSH2 0x100 EXP DUP2 SLOAD DUP2 PUSH1 0xFF MUL NOT AND SWAP1 DUP4 ISZERO ISZERO MUL OR SWAP1 SSTORE POP PUSH1 0x80 DUP3 ADD MLOAD DUP2 PUSH1 0x4 ADD SSTORE SWAP1 POP POP DUP5 PUSH32 0x1CA12C4F007B87BB1429F9F86AC057E97667574F9F31BE5B9C3EA6260E8872FE DUP6 TIMESTAMP PUSH1 0x40 MLOAD PUSH2 0x968 SWAP3 SWAP2 SWAP1 PUSH2 0x22EE JUMP JUMPDEST PUSH1 0x40 MLOAD DUP1 SWAP2 SUB SWAP1 LOG2 POP PUSH2 0x979 PUSH2 0x1680 JUMP JUMPDEST POP POP POP POP JUMP JUMPDEST PUSH0 PUSH1 0x5 PUSH0 DUP4 DUP2 MSTORE PUSH1 0x20 ADD SWAP1 DUP2 MSTORE PUSH1 0x20 ADD PUSH0 KECCAK256 PUSH0 SWAP1 SLOAD SWAP1 PUSH2 0x100 EXP SWAP1 DIV PUSH1 0xFF AND SWAP1 POP SWAP2 SWAP1 POP JUMP JUMPDEST PUSH1 0x2 PUSH1 0x1 SWAP1 SLOAD SWAP1 PUSH2 0x100 EXP SWAP1 DIV PUSH20 0xFFFFFFFFFFFFFFFFFFFFFFFFFFFFFFFFFFFFFFFF AND DUP2 JUMP JUMPDEST PUSH2 0x9D3 PUSH2 0x1689 JUMP JUMPDEST PUSH2 0x9DB PUSH2 0x1710 JUMP JUMPDEST JUMP JUMPDEST PUSH2 0x9E5 PUSH2 0x1689 JUMP JUMPDEST PUSH0 PUSH20 0xFFFFFFFFFFFFFFFFFFFFFFFFFFFFFFFFFFFFFFFF AND DUP2 PUSH20 0xFFFFFFFFFFFFFFFFFFFFFFFFFFFFFFFFFFFFFFFF AND SUB PUSH2 0xA53 JUMPI PUSH1 0x40 MLOAD PUSH32 0x8C379A000000000000000000000000000000000000000000000000000000000 DUP2 MSTORE PUSH1 0x4 ADD PUSH2 0xA4A SWAP1 PUSH2 0x235F JUMP JUMPDEST PUSH1 0x40 MLOAD DUP1 SWAP2 SUB SWAP1 REVERT JUMPDEST PUSH0 PUSH1 0x2 PUSH1 0x1 SWAP1 SLOAD SWAP1 PUSH2 0x100 EXP SWAP1 DIV PUSH20 0xFFFFFFFFFFFFFFFFFFFFFFFFFFFFFFFFFFFFFFFF AND SWAP1 POP DUP2 PUSH1 0x2 PUSH1 0x1 PUSH2 0x100 EXP DUP2 SLOAD DUP2 PUSH20 0xFFFFFFFFFFFFFFFFFFFFFFFFFFFFFFFFFFFFFFFF MUL NOT AND SWAP1 DUP4 PUSH20 0xFFFFFFFFFFFFFFFFFFFFFFFFFFFFFFFFFFFFFFFF AND MUL OR SWAP1 SSTORE POP DUP2 PUSH20 0xFFFFFFFFFFFFFFFFFFFFFFFFFFFFFFFFFFFFFFFF AND DUP2 PUSH20 0xFFFFFFFFFFFFFFFFFFFFFFFFFFFFFFFFFFFFFFFF AND PUSH32 0xD64AE07F3DDEA489022B7C3651C0B93CC96296695FEAC84461061DFA1F34C0CB TIMESTAMP PUSH1 0x40 MLOAD PUSH2 0xB17 SWAP2 SWAP1 PUSH2 0x1925 JUMP JUMPDEST PUSH1 0x40 MLOAD DUP1 SWAP2 SUB SWAP1 LOG3 POP POP JUMP JUMPDEST PUSH0 PUSH1 0x2 PUSH0 SWAP1 SLOAD SWAP1 PUSH2 0x100 EXP SWAP1 DIV PUSH1 0xFF AND SWAP1 POP SWAP1 JUMP JUMPDEST PUSH2 0xB40 PUSH2 0x1689 JUMP JUMPDEST PUSH2 0xB49 PUSH0 PUSH2 0x1771 JUMP JUMPDEST JUMP JUMPDEST PUSH1 0x5 PUSH1 0x20 MSTORE DUP1 PUSH0 MSTORE PUSH1 0x40 PUSH0 KECCAK256 PUSH0 SWAP2 POP SLOAD SWAP1 PUSH2 0x100 EXP SWAP1 DIV PUSH1 0xFF AND DUP2 JUMP JUMPDEST PUSH2 0xB70 PUSH2 0x1689 JUMP JUMPDEST PUSH2 0xB78 PUSH2 0x1832 JUMP JUMPDEST JUMP JUMPDEST PUSH1 0x4 PUSH1 0x20 MSTORE DUP1 PUSH0 MSTORE PUSH1 0x40 PUSH0 KECCAK256 PUSH0 SWAP2 POP SWAP1 POP DUP1 PUSH0 ADD SLOAD SWAP1 DUP1 PUSH1 0x1 ADD SLOAD SWAP1 DUP1 PUSH1 0x2 ADD SLOAD SWAP1 DUP1 PUSH1 0x3 ADD PUSH0 SWAP1 SLOAD SWAP1 PUSH2 0x100 EXP SWAP1 DIV PUSH1 0xFF AND SWAP1 DUP1 PUSH1 0x4 ADD SLOAD SWAP1 POP DUP6 JUMP JUMPDEST PUSH0 DUP1 PUSH0 SWAP1 SLOAD SWAP1 PUSH2 0x100 EXP SWAP1 DIV PUSH20 0xFFFFFFFFFFFFFFFFFFFFFFFFFFFFFFFFFFFFFFFF AND SWAP1 POP SWAP1 JUMP JUMPDEST PUSH2 0xBE7 PUSH2 0x18DB JUMP JUMPDEST PUSH1 0x4 PUSH0 DUP4 DUP2 MSTORE PUSH1 0x20 ADD SWAP1 DUP2 MSTORE PUSH1 0x20 ADD PUSH0 KECCAK256 PUSH1 0x40 MLOAD DUP1 PUSH1 0xA0 ADD PUSH1 0x40 MSTORE SWAP1 DUP2 PUSH0 DUP3 ADD SLOAD DUP2 MSTORE PUSH1 0x20 ADD PUSH1 0x1 DUP3 ADD SLOAD DUP2 MSTORE PUSH1 0x20 ADD PUSH1 0x2 DUP3 ADD SLOAD DUP2 MSTORE PUSH1 0x20 ADD PUSH1 0x3 DUP3 ADD PUSH0 SWAP1 SLOAD SWAP1 PUSH2 0x100 EXP SWAP1 DIV PUSH1 0xFF AND ISZERO ISZERO ISZERO ISZERO DUP2 MSTORE PUSH1 0x20 ADD PUSH1 0x4 DUP3 ADD SLOAD DUP2 MSTORE POP POP SWAP1 POP SWAP2 SWAP1 POP JUMP JUMPDEST PUSH2 0xC53 PUSH2 0x15F9 JUMP JUMPDEST PUSH2 0xC5B PUSH2 0x163F JUMP JUMPDEST PUSH0 DUP1 SHL DUP7 SUB PUSH2 0xC9F JUMPI PUSH1 0x40 MLOAD PUSH32 0x8C379A000000000000000000000000000000000000000000000000000000000 DUP2 MSTORE PUSH1 0x4 ADD PUSH2 0xC96 SWAP1 PUSH2 0x23C7 JUMP JUMPDEST PUSH1 0x40 MLOAD DUP1 SWAP2 SUB SWAP1 REVERT JUMPDEST PUSH0 DUP1 SHL DUP6 SUB PUSH2 0xCE3 JUMPI PUSH1 0x40 MLOAD PUSH32 0x8C379A000000000000000000000000000000000000000000000000000000000 DUP2 MSTORE PUSH1 0x4 ADD PUSH2 0xCDA SWAP1 PUSH2 0x1E68 JUMP JUMPDEST PUSH1 0x40 MLOAD DUP1 SWAP2 SUB SWAP1 REVERT JUMPDEST PUSH0 PUSH20 0xFFFFFFFFFFFFFFFFFFFFFFFFFFFFFFFFFFFFFFFF AND DUP5 PUSH20 0xFFFFFFFFFFFFFFFFFFFFFFFFFFFFFFFFFFFFFFFF AND SUB PUSH2 0xD51 JUMPI PUSH1 0x40 MLOAD PUSH32 0x8C379A000000000000000000000000000000000000000000000000000000000 DUP2 MSTORE PUSH1 0x4 ADD PUSH2 0xD48 SWAP1 PUSH2 0x242F JUMP JUMPDEST PUSH1 0x40 MLOAD DUP1 SWAP2 SUB SWAP1 REVERT JUMPDEST PUSH0 DUP4 GT PUSH2 0xD93 JUMPI PUSH1 0x40 MLOAD PUSH32 0x8C379A000000000000000000000000000000000000000000000000000000000 DUP2 MSTORE PUSH1 0x4 ADD PUSH2 0xD8A SWAP1 PUSH2 0x2497 JUMP JUMPDEST PUSH1 0x40 MLOAD DUP1 SWAP2 SUB SWAP1 REVERT JUMPDEST PUSH1 0x5 PUSH0 DUP8 DUP2 MSTORE PUSH1 0x20 ADD SWAP1 DUP2 MSTORE PUSH1 0x20 ADD PUSH0 KECCAK256 PUSH0 SWAP1 SLOAD SWAP1 PUSH2 0x100 EXP SWAP1 DIV PUSH1 0xFF AND ISZERO PUSH2 0xDF1 JUMPI PUSH1 0x40 MLOAD PUSH32 0x8C379A000000000000000000000000000000000000000000000000000000000 DUP2 MSTORE PUSH1 0x4 ADD PUSH2 0xDE8 SWAP1 PUSH2 0x24FF JUMP JUMPDEST PUSH1 0x40 MLOAD DUP1 SWAP2 SUB SWAP1 REVERT JUMPDEST PUSH0 PUSH1 0x4 PUSH0 DUP8 DUP2 MSTORE PUSH1 0x20 ADD SWAP1 DUP2 MSTORE PUSH1 0x20 ADD PUSH0 KECCAK256 SWAP1 POP PUSH0 DUP1 SHL DUP2 PUSH0 ADD SLOAD SUB PUSH2 0xE4C JUMPI PUSH1 0x40 MLOAD PUSH32 0x8C379A000000000000000000000000000000000000000000000000000000000 DUP2 MSTORE PUSH1 0x4 ADD PUSH2 0xE43 SWAP1 PUSH2 0x2567 JUMP JUMPDEST PUSH1 0x40 MLOAD DUP1 SWAP2 SUB SWAP1 REVERT JUMPDEST DUP1 PUSH1 0x3 ADD PUSH0 SWAP1 SLOAD SWAP1 PUSH2 0x100 EXP SWAP1 DIV PUSH1 0xFF AND ISZERO PUSH2 0xE9D JUMPI PUSH1 0x40 MLOAD PUSH32 0x8C379A000000000000000000000000000000000000000000000000000000000 DUP2 MSTORE PUSH1 0x4 ADD PUSH2 0xE94 SWAP1 PUSH2 0x25CF JUMP JUMPDEST PUSH1 0x40 MLOAD DUP1 SWAP2 SUB SWAP1 REVERT JUMPDEST DUP1 PUSH1 0x2 ADD SLOAD DUP5 GT ISZERO PUSH2 0xEE4 JUMPI PUSH1 0x40 MLOAD PUSH32 0x8C379A000000000000000000000000000000000000000000000000000000000 DUP2 MSTORE PUSH1 0x4 ADD PUSH2 0xEDB SWAP1 PUSH2 0x2637 JUMP JUMPDEST PUSH1 0x40 MLOAD DUP1 SWAP2 SUB SWAP1 REVERT JUMPDEST PUSH0 DUP4 DUP4 SWAP1 POP GT PUSH2 0xF29 JUMPI PUSH1 0x40 MLOAD PUSH32 0x8C379A000000000000000000000000000000000000000000000000000000000 DUP2 MSTORE PUSH1 0x4 ADD PUSH2 0xF20 SWAP1 PUSH2 0x2008 JUMP JUMPDEST PUSH1 0x40 MLOAD DUP1 SWAP2 SUB SWAP1 REVERT JUMPDEST PUSH1 0x2 PUSH1 0x1 SWAP1 SLOAD SWAP1 PUSH2 0x100 EXP SWAP1 DIV PUSH20 0xFFFFFFFFFFFFFFFFFFFFFFFFFFFFFFFFFFFFFFFF AND PUSH20 0xFFFFFFFFFFFFFFFFFFFFFFFFFFFFFFFFFFFFFFFF AND PUSH4 0xC53ED3BF DUP9 DUP9 DUP9 DUP9 DUP9 DUP9 PUSH1 0x40 MLOAD DUP8 PUSH4 0xFFFFFFFF AND PUSH1 0xE0 SHL DUP2 MSTORE PUSH1 0x4 ADD PUSH2 0xF8E SWAP7 SWAP6 SWAP5 SWAP4 SWAP3 SWAP2 SWAP1 PUSH2 0x2655 JUMP JUMPDEST PUSH1 0x20 PUSH1 0x40 MLOAD DUP1 DUP4 SUB DUP2 DUP7 GAS STATICCALL ISZERO DUP1 ISZERO PUSH2 0xFA9 JUMPI RETURNDATASIZE PUSH0 DUP1 RETURNDATACOPY RETURNDATASIZE PUSH0 REVERT JUMPDEST POP POP POP POP PUSH1 0x40 MLOAD RETURNDATASIZE PUSH1 0x1F NOT PUSH1 0x1F DUP3 ADD AND DUP3 ADD DUP1 PUSH1 0x40 MSTORE POP DUP2 ADD SWAP1 PUSH2 0xFCD SWAP2 SWAP1 PUSH2 0x20F6 JUMP JUMPDEST PUSH2 0x100C JUMPI PUSH1 0x40 MLOAD PUSH32 0x8C379A000000000000000000000000000000000000000000000000000000000 DUP2 MSTORE PUSH1 0x4 ADD PUSH2 0x1003 SWAP1 PUSH2 0x216B JUMP JUMPDEST PUSH1 0x40 MLOAD DUP1 SWAP2 SUB SWAP1 REVERT JUMPDEST PUSH1 0x1 PUSH1 0x5 PUSH0 DUP10 DUP2 MSTORE PUSH1 0x20 ADD SWAP1 DUP2 MSTORE PUSH1 0x20 ADD PUSH0 KECCAK256 PUSH0 PUSH2 0x100 EXP DUP2 SLOAD DUP2 PUSH1 0xFF MUL NOT AND SWAP1 DUP4 ISZERO ISZERO MUL OR SWAP1 SSTORE POP PUSH1 0x1 DUP2 PUSH1 0x3 ADD PUSH0 PUSH2 0x100 EXP DUP2 SLOAD DUP2 PUSH1 0xFF MUL NOT AND SWAP1 DUP4 ISZERO ISZERO MUL OR SWAP1 SSTORE POP DUP7 DUP2 PUSH1 0x1 ADD DUP2 SWAP1 SSTORE POP PUSH0 PUSH1 0x3 PUSH0 SWAP1 SLOAD SWAP1 PUSH2 0x100 EXP SWAP1 DIV PUSH20 0xFFFFFFFFFFFFFFFFFFFFFFFFFFFFFFFFFFFFFFFF AND PUSH20 0xFFFFFFFFFFFFFFFFFFFFFFFFFFFFFFFFFFFFFFFF AND PUSH4 0x70A08231 DUP8 PUSH1 0x40 MLOAD DUP3 PUSH4 0xFFFFFFFF AND PUSH1 0xE0 SHL DUP2 MSTORE PUSH1 0x4 ADD PUSH2 0x10B5 SWAP2 SWAP1 PUSH2 0x1C3B JUMP JUMPDEST PUSH1 0x20 PUSH1 0x40 MLOAD DUP1 DUP4 SUB DUP2 DUP7 GAS STATICCALL ISZERO DUP1 ISZERO PUSH2 0x10D0 JUMPI RETURNDATASIZE PUSH0 DUP1 RETURNDATACOPY RETURNDATASIZE PUSH0 REVERT JUMPDEST POP POP POP POP PUSH1 0x40 MLOAD RETURNDATASIZE PUSH1 0x1F NOT PUSH1 0x1F DUP3 ADD AND DUP3 ADD DUP1 PUSH1 0x40 MSTORE POP DUP2 ADD SWAP1 PUSH2 0x10F4 SWAP2 SWAP1 PUSH2 0x1DE3 JUMP JUMPDEST SWAP1 POP PUSH1 0x3 PUSH0 SWAP1 SLOAD SWAP1 PUSH2 0x100 EXP SWAP1 DIV PUSH20 0xFFFFFFFFFFFFFFFFFFFFFFFFFFFFFFFFFFFFFFFF AND PUSH20 0xFFFFFFFFFFFFFFFFFFFFFFFFFFFFFFFFFFFFFFFF AND PUSH4 0xA9059CBB DUP8 DUP8 PUSH1 0x40 MLOAD DUP4 PUSH4 0xFFFFFFFF AND PUSH1 0xE0 SHL DUP2 MSTORE PUSH1 0x4 ADD PUSH2 0x1152 SWAP3 SWAP2 SWAP1 PUSH2 0x26AF JUMP JUMPDEST PUSH1 0x20 PUSH1 0x40 MLOAD DUP1 DUP4 SUB DUP2 PUSH0 DUP8 GAS CALL ISZERO DUP1 ISZERO PUSH2 0x116E JUMPI RETURNDATASIZE PUSH0 DUP1 RETURNDATACOPY RETURNDATASIZE PUSH0 REVERT JUMPDEST POP POP POP POP PUSH1 0x40 MLOAD RETURNDATASIZE PUSH1 0x1F NOT PUSH1 0x1F DUP3 ADD AND DUP3 ADD DUP1 PUSH1 0x40 MSTORE POP DUP2 ADD SWAP1 PUSH2 0x1192 SWAP2 SWAP1 PUSH2 0x20F6 JUMP JUMPDEST PUSH2 0x11D1 JUMPI PUSH1 0x40 MLOAD PUSH32 0x8C379A000000000000000000000000000000000000000000000000000000000 DUP2 MSTORE PUSH1 0x4 ADD PUSH2 0x11C8 SWAP1 PUSH2 0x2208 JUMP JUMPDEST PUSH1 0x40 MLOAD DUP1 SWAP2 SUB SWAP1 REVERT JUMPDEST DUP5 DUP2 PUSH2 0x11DD SWAP2 SWAP1 PUSH2 0x2253 JUMP JUMPDEST PUSH1 0x3 PUSH0 SWAP1 SLOAD SWAP1 PUSH2 0x100 EXP SWAP1 DIV PUSH20 0xFFFFFFFFFFFFFFFFFFFFFFFFFFFFFFFFFFFFFFFF AND PUSH20 0xFFFFFFFFFFFFFFFFFFFFFFFFFFFFFFFFFFFFFFFF AND PUSH4 0x70A08231 DUP9 PUSH1 0x40 MLOAD DUP3 PUSH4 0xFFFFFFFF AND PUSH1 0xE0 SHL DUP2 MSTORE PUSH1 0x4 ADD PUSH2 0x1237 SWAP2 SWAP1 PUSH2 0x1C3B JUMP JUMPDEST PUSH1 0x20 PUSH1 0x40 MLOAD DUP1 DUP4 SUB DUP2 DUP7 GAS STATICCALL ISZERO DUP1 ISZERO PUSH2 0x1252 JUMPI RETURNDATASIZE PUSH0 DUP1 RETURNDATACOPY RETURNDATASIZE PUSH0 REVERT JUMPDEST POP POP POP POP PUSH1 0x40 MLOAD RETURNDATASIZE PUSH1 0x1F NOT PUSH1 0x1F DUP3 ADD AND DUP3 ADD DUP1 PUSH1 0x40 MSTORE POP DUP2 ADD SWAP1 PUSH2 0x1276 SWAP2 SWAP1 PUSH2 0x1DE3 JUMP JUMPDEST EQ PUSH2 0x12B6 JUMPI PUSH1 0x40 MLOAD PUSH32 0x8C379A000000000000000000000000000000000000000000000000000000000 DUP2 MSTORE PUSH1 0x4 ADD PUSH2 0x12AD SWAP1 PUSH2 0x22D0 JUMP JUMPDEST PUSH1 0x40 MLOAD DUP1 SWAP2 SUB SWAP1 REVERT JUMPDEST DUP6 PUSH20 0xFFFFFFFFFFFFFFFFFFFFFFFFFFFFFFFFFFFFFFFF AND DUP9 PUSH32 0x66F083A4C3ED4EEC4E232AE3E65A14E7704192E147F54ED38A55600500BC368F DUP8 TIMESTAMP PUSH1 0x40 MLOAD PUSH2 0x12FF SWAP3 SWAP2 SWAP1 PUSH2 0x22EE JUMP JUMPDEST PUSH1 0x40 MLOAD DUP1 SWAP2 SUB SWAP1 LOG3 POP POP PUSH2 0x1311 PUSH2 0x1680 JUMP JUMPDEST POP POP POP POP POP POP JUMP JUMPDEST PUSH2 0x1321 PUSH2 0x1689 JUMP JUMPDEST PUSH0 PUSH1 0x3 PUSH0 SWAP1 SLOAD SWAP1 PUSH2 0x100 EXP SWAP1 DIV PUSH20 0xFFFFFFFFFFFFFFFFFFFFFFFFFFFFFFFFFFFFFFFF AND PUSH20 0xFFFFFFFFFFFFFFFFFFFFFFFFFFFFFFFFFFFFFFFF AND PUSH4 0x70A08231 ADDRESS PUSH1 0x40 MLOAD DUP3 PUSH4 0xFFFFFFFF AND PUSH1 0xE0 SHL DUP2 MSTORE PUSH1 0x4 ADD PUSH2 0x137C SWAP2 SWAP1 PUSH2 0x1C3B JUMP JUMPDEST PUSH1 0x20 PUSH1 0x40 MLOAD DUP1 DUP4 SUB DUP2 DUP7 GAS STATICCALL ISZERO DUP1 ISZERO PUSH2 0x1397 JUMPI RETURNDATASIZE PUSH0 DUP1 RETURNDATACOPY RETURNDATASIZE PUSH0 REVERT JUMPDEST POP POP POP POP PUSH1 0x40 MLOAD RETURNDATASIZE PUSH1 0x1F NOT PUSH1 0x1F DUP3 ADD AND DUP3 ADD DUP1 PUSH1 0x40 MSTORE POP DUP2 ADD SWAP1 PUSH2 0x13BB SWAP2 SWAP1 PUSH2 0x1DE3 JUMP JUMPDEST SWAP1 POP PUSH0 DUP2 GT PUSH2 0x13FF JUMPI PUSH1 0x40 MLOAD PUSH32 0x8C379A000000000000000000000000000000000000000000000000000000000 DUP2 MSTORE PUSH1 0x4 ADD PUSH2 0x13F6 SWAP1 PUSH2 0x2720 JUMP JUMPDEST PUSH1 0x40 MLOAD DUP1 SWAP2 SUB SWAP1 REVERT JUMPDEST PUSH1 0x3 PUSH0 SWAP1 SLOAD SWAP1 PUSH2 0x100 EXP SWAP1 DIV PUSH20 0xFFFFFFFFFFFFFFFFFFFFFFFFFFFFFFFFFFFFFFFF AND PUSH20 0xFFFFFFFFFFFFFFFFFFFFFFFFFFFFFFFFFFFFFFFF AND PUSH4 0xA9059CBB PUSH2 0x1444 PUSH2 0xBB8 JUMP JUMPDEST DUP4 PUSH1 0x40 MLOAD DUP4 PUSH4 0xFFFFFFFF AND PUSH1 0xE0 SHL DUP2 MSTORE PUSH1 0x4 ADD PUSH2 0x1462 SWAP3 SWAP2 SWAP1 PUSH2 0x26AF JUMP JUMPDEST PUSH1 0x20 PUSH1 0x40 MLOAD DUP1 DUP4 SUB DUP2 PUSH0 DUP8 GAS CALL ISZERO DUP1 ISZERO PUSH2 0x147E JUMPI RETURNDATASIZE PUSH0 DUP1 RETURNDATACOPY RETURNDATASIZE PUSH0 REVERT JUMPDEST POP POP POP POP PUSH1 0x40 MLOAD RETURNDATASIZE PUSH1 0x1F NOT PUSH1 0x1F DUP3 ADD AND DUP3 ADD DUP1 PUSH1 0x40 MSTORE POP DUP2 ADD SWAP1 PUSH2 0x14A2 SWAP2 SWAP1 PUSH2 0x20F6 JUMP JUMPDEST PUSH2 0x14E1 JUMPI PUSH1 0x40 MLOAD PUSH32 0x8C379A000000000000000000000000000000000000000000000000000000000 DUP2 MSTORE PUSH1 0x4 ADD PUSH2 0x14D8 SWAP1 PUSH2 0x2208 JUMP JUMPDEST PUSH1 0x40 MLOAD DUP1 SWAP2 SUB SWAP1 REVERT JUMPDEST PUSH2 0x14E9 PUSH2 0xBB8 JUMP JUMPDEST PUSH20 0xFFFFFFFFFFFFFFFFFFFFFFFFFFFFFFFFFFFFFFFF AND PUSH32 0x56DA9A5AE0BCF6E7C3FDD78A10550E7D0458DE1C39BFB7F6E96A3E92DD344A68 DUP3 TIMESTAMP PUSH1 0x40 MLOAD PUSH2 0x1530 SWAP3 SWAP2 SWAP1 PUSH2 0x22EE JUMP JUMPDEST PUSH1 0x40 MLOAD DUP1 SWAP2 SUB SWAP1 LOG2 POP JUMP JUMPDEST PUSH10 0xD3C21BCECCEDA1000000 DUP2 JUMP JUMPDEST PUSH3 0xF4240 DUP2 JUMP JUMPDEST PUSH2 0x1558 PUSH2 0x1689 JUMP JUMPDEST PUSH0 PUSH20 0xFFFFFFFFFFFFFFFFFFFFFFFFFFFFFFFFFFFFFFFF AND DUP2 PUSH20 0xFFFFFFFFFFFFFFFFFFFFFFFFFFFFFFFFFFFFFFFF AND SUB PUSH2 0x15C8 JUMPI PUSH0 PUSH1 0x40 MLOAD PUSH32 0x1E4FBDF700000000000000000000000000000000000000000000000000000000 DUP2 MSTORE PUSH1 0x4 ADD PUSH2 0x15BF SWAP2 SWAP1 PUSH2 0x1C3B JUMP JUMPDEST PUSH1 0x40 MLOAD DUP1 SWAP2 SUB SWAP1 REVERT JUMPDEST PUSH2 0x15D1 DUP2 PUSH2 0x1771 JUMP JUMPDEST POP JUMP JUMPDEST PUSH1 0x3 PUSH0 SWAP1 SLOAD SWAP1 PUSH2 0x100 EXP SWAP1 DIV PUSH20 0xFFFFFFFFFFFFFFFFFFFFFFFFFFFFFFFFFFFFFFFF AND DUP2 JUMP JUMPDEST PUSH1 0x2 PUSH1 0x1 SLOAD SUB PUSH2 0x1635 JUMPI PUSH1 0x40 MLOAD PUSH32 0x3EE5AEB500000000000000000000000000000000000000000000000000000000 DUP2 MSTORE PUSH1 0x4 ADD PUSH1 0x40 MLOAD DUP1 SWAP2 SUB SWAP1 REVERT JUMPDEST PUSH1 0x2 PUSH1 0x1 DUP2 SWAP1 SSTORE POP JUMP JUMPDEST PUSH2 0x1647 PUSH2 0xB23 JUMP JUMPDEST ISZERO PUSH2 0x167E JUMPI PUSH1 0x40 MLOAD PUSH32 0xD93C066500000000000000000000000000000000000000000000000000000000 DUP2 MSTORE PUSH1 0x4 ADD PUSH1 0x40 MLOAD DUP1 SWAP2 SUB SWAP1 REVERT JUMPDEST JUMP JUMPDEST PUSH1 0x1 DUP1 DUP2 SWAP1 SSTORE POP JUMP JUMPDEST PUSH2 0x1691 PUSH2 0x1894 JUMP JUMPDEST PUSH20 0xFFFFFFFFFFFFFFFFFFFFFFFFFFFFFFFFFFFFFFFF AND PUSH2 0x16AF PUSH2 0xBB8 JUMP JUMPDEST PUSH20 0xFFFFFFFFFFFFFFFFFFFFFFFFFFFFFFFFFFFFFFFF AND EQ PUSH2 0x170E JUMPI PUSH2 0x16D2 PUSH2 0x1894 JUMP JUMPDEST PUSH1 0x40 MLOAD PUSH32 0x118CDAA700000000000000000000000000000000000000000000000000000000 DUP2 MSTORE PUSH1 0x4 ADD PUSH2 0x1705 SWAP2 SWAP1 PUSH2 0x1C3B JUMP JUMPDEST PUSH1 0x40 MLOAD DUP1 SWAP2 SUB SWAP1 REVERT JUMPDEST JUMP JUMPDEST PUSH2 0x1718 PUSH2 0x189B JUMP JUMPDEST PUSH0 PUSH1 0x2 PUSH0 PUSH2 0x100 EXP DUP2 SLOAD DUP2 PUSH1 0xFF MUL NOT AND SWAP1 DUP4 ISZERO ISZERO MUL OR SWAP1 SSTORE POP PUSH32 0x5DB9EE0A495BF2E6FF9C91A7834C1BA4FDD244A5E8AA4E537BD38AEAE4B073AA PUSH2 0x175A PUSH2 0x1894 JUMP JUMPDEST PUSH1 0x40 MLOAD PUSH2 0x1767 SWAP2 SWAP1 PUSH2 0x1C3B JUMP JUMPDEST PUSH1 0x40 MLOAD DUP1 SWAP2 SUB SWAP1 LOG1 JUMP JUMPDEST PUSH0 DUP1 PUSH0 SWAP1 SLOAD SWAP1 PUSH2 0x100 EXP SWAP1 DIV PUSH20 0xFFFFFFFFFFFFFFFFFFFFFFFFFFFFFFFFFFFFFFFF AND SWAP1 POP DUP2 PUSH0 DUP1 PUSH2 0x100 EXP DUP2 SLOAD DUP2 PUSH20 0xFFFFFFFFFFFFFFFFFFFFFFFFFFFFFFFFFFFFFFFF MUL NOT AND SWAP1 DUP4 PUSH20 0xFFFFFFFFFFFFFFFFFFFFFFFFFFFFFFFFFFFFFFFF AND MUL OR SWAP1 SSTORE POP DUP2 PUSH20 0xFFFFFFFFFFFFFFFFFFFFFFFFFFFFFFFFFFFFFFFF AND DUP2 PUSH20 0xFFFFFFFFFFFFFFFFFFFFFFFFFFFFFFFFFFFFFFFF AND PUSH32 0x8BE0079C531659141344CD1FD0A4F28419497F9722A3DAAFE3B4186F6B6457E0 PUSH1 0x40 MLOAD PUSH1 0x40 MLOAD DUP1 SWAP2 SUB SWAP1 LOG3 POP POP JUMP JUMPDEST PUSH2 0x183A PUSH2 0x163F JUMP JUMPDEST PUSH1 0x1 PUSH1 0x2 PUSH0 PUSH2 0x100 EXP DUP2 SLOAD DUP2 PUSH1 0xFF MUL NOT AND SWAP1 DUP4 ISZERO ISZERO MUL OR SWAP1 SSTORE POP PUSH32 0x62E78CEA01BEE320CD4E420270B5EA74000D11B0C9F74754EBDBFC544B05A258 PUSH2 0x187D PUSH2 0x1894 JUMP JUMPDEST PUSH1 0x40 MLOAD PUSH2 0x188A SWAP2 SWAP1 PUSH2 0x1C3B JUMP JUMPDEST PUSH1 0x40 MLOAD DUP1 SWAP2 SUB SWAP1 LOG1 JUMP JUMPDEST PUSH0 CALLER SWAP1 POP SWAP1 JUMP JUMPDEST PUSH2 0x18A3 PUSH2 0xB23 JUMP JUMPDEST PUSH2 0x18D9 JUMPI PUSH1 0x40 MLOAD PUSH32 0x8DFC202B00000000000000000000000000000000000000000000000000000000 DUP2 MSTORE PUSH1 0x4 ADD PUSH1 0x40 MLOAD DUP1 SWAP2 SUB SWAP1 REVERT JUMPDEST JUMP JUMPDEST PUSH1 0x40 MLOAD DUP1 PUSH1 0xA0 ADD PUSH1 0x40 MSTORE DUP1 PUSH0 DUP1 NOT AND DUP2 MSTORE PUSH1 0x20 ADD PUSH0 DUP1 NOT AND DUP2 MSTORE PUSH1 0x20 ADD PUSH0 DUP2 MSTORE PUSH1 0x20 ADD PUSH0 ISZERO ISZERO DUP2 MSTORE PUSH1 0x20 ADD PUSH0 DUP2 MSTORE POP SWAP1 JUMP JUMPDEST PUSH0 DUP2 SWAP1 POP SWAP2 SWAP1 POP JUMP JUMPDEST PUSH2 0x191F DUP2 PUSH2 0x190D JUMP JUMPDEST DUP3 MSTORE POP POP JUMP JUMPDEST PUSH0 PUSH1 0x20 DUP3 ADD SWAP1 POP PUSH2 0x1938 PUSH0 DUP4 ADD DUP5 PUSH2 0x1916 JUMP JUMPDEST SWAP3 SWAP2 POP POP JUMP JUMPDEST PUSH0 DUP1 REVERT JUMPDEST PUSH0 DUP1 REVERT JUMPDEST PUSH0 DUP2 SWAP1 POP SWAP2 SWAP1 POP JUMP JUMPDEST PUSH2 0x1958 DUP2 PUSH2 0x1946 JUMP JUMPDEST DUP2 EQ PUSH2 0x1962 JUMPI PUSH0 DUP1 REVERT JUMPDEST POP JUMP JUMPDEST PUSH0 DUP2 CALLDATALOAD SWAP1 POP PUSH2 0x1973 DUP2 PUSH2 0x194F JUMP JUMPDEST SWAP3 SWAP2 POP POP JUMP JUMPDEST PUSH2 0x1982 DUP2 PUSH2 0x190D JUMP JUMPDEST DUP2 EQ PUSH2 0x198C JUMPI PUSH0 DUP1 REVERT JUMPDEST POP JUMP JUMPDEST PUSH0 DUP2 CALLDATALOAD SWAP1 POP PUSH2 0x199D DUP2 PUSH2 0x1979 JUMP JUMPDEST SWAP3 SWAP2 POP POP JUMP JUMPDEST PUSH0 DUP1 REVERT JUMPDEST PUSH0 DUP1 REVERT JUMPDEST PUSH0 DUP1 REVERT JUMPDEST PUSH0 DUP1 DUP4 PUSH1 0x1F DUP5 ADD SLT PUSH2 0x19C4 JUMPI PUSH2 0x19C3 PUSH2 0x19A3 JUMP JUMPDEST JUMPDEST DUP3 CALLDATALOAD SWAP1 POP PUSH8 0xFFFFFFFFFFFFFFFF DUP2 GT ISZERO PUSH2 0x19E1 JUMPI PUSH2 0x19E0 PUSH2 0x19A7 JUMP JUMPDEST JUMPDEST PUSH1 0x20 DUP4 ADD SWAP2 POP DUP4 PUSH1 0x1 DUP3 MUL DUP4 ADD GT ISZERO PUSH2 0x19FD JUMPI PUSH2 0x19FC PUSH2 0x19AB JUMP JUMPDEST JUMPDEST SWAP3 POP SWAP3 SWAP1 POP JUMP JUMPDEST PUSH0 DUP1 PUSH0 DUP1 PUSH1 0x60 DUP6 DUP8 SUB SLT ISZERO PUSH2 0x1A1C JUMPI PUSH2 0x1A1B PUSH2 0x193E JUMP JUMPDEST JUMPDEST PUSH0 PUSH2 0x1A29 DUP8 DUP3 DUP9 ADD PUSH2 0x1965 JUMP JUMPDEST SWAP5 POP POP PUSH1 0x20 PUSH2 0x1A3A DUP8 DUP3 DUP9 ADD PUSH2 0x198F JUMP JUMPDEST SWAP4 POP POP PUSH1 0x40 DUP6 ADD CALLDATALOAD PUSH8 0xFFFFFFFFFFFFFFFF DUP2 GT ISZERO PUSH2 0x1A5B JUMPI PUSH2 0x1A5A PUSH2 0x1942 JUMP JUMPDEST JUMPDEST PUSH2 0x1A67 DUP8 DUP3 DUP9 ADD PUSH2 0x19AF JUMP JUMPDEST SWAP3 POP SWAP3 POP POP SWAP3 SWAP6 SWAP2 SWAP5 POP SWAP3 POP JUMP JUMPDEST PUSH0 PUSH1 0x20 DUP3 DUP5 SUB SLT ISZERO PUSH2 0x1A8A JUMPI PUSH2 0x1A89 PUSH2 0x193E JUMP JUMPDEST JUMPDEST PUSH0 PUSH2 0x1A97 DUP5 DUP3 DUP6 ADD PUSH2 0x1965 JUMP JUMPDEST SWAP2 POP POP SWAP3 SWAP2 POP POP JUMP JUMPDEST PUSH0 DUP2 ISZERO ISZERO SWAP1 POP SWAP2 SWAP1 POP JUMP JUMPDEST PUSH2 0x1AB4 DUP2 PUSH2 0x1AA0 JUMP JUMPDEST DUP3 MSTORE POP POP JUMP JUMPDEST PUSH0 PUSH1 0x20 DUP3 ADD SWAP1 POP PUSH2 0x1ACD PUSH0 DUP4 ADD DUP5 PUSH2 0x1AAB JUMP JUMPDEST SWAP3 SWAP2 POP POP JUMP JUMPDEST PUSH0 PUSH20 0xFFFFFFFFFFFFFFFFFFFFFFFFFFFFFFFFFFFFFFFF DUP3 AND SWAP1 POP SWAP2 SWAP1 POP JUMP JUMPDEST PUSH0 DUP2 SWAP1 POP SWAP2 SWAP1 POP JUMP JUMPDEST PUSH0 PUSH2 0x1B15 PUSH2 0x1B10 PUSH2 0x1B0B DUP5 PUSH2 0x1AD3 JUMP JUMPDEST PUSH2 0x1AF2 JUMP JUMPDEST PUSH2 0x1AD3 JUMP JUMPDEST SWAP1 POP SWAP2 SWAP1 POP JUMP JUMPDEST PUSH0 PUSH2 0x1B26 DUP3 PUSH2 0x1AFB JUMP JUMPDEST SWAP1 POP SWAP2 SWAP1 POP JUMP JUMPDEST PUSH0 PUSH2 0x1B37 DUP3 PUSH2 0x1B1C JUMP JUMPDEST SWAP1 POP SWAP2 SWAP1 POP JUMP JUMPDEST PUSH2 0x1B47 DUP2 PUSH2 0x1B2D JUMP JUMPDEST DUP3 MSTORE POP POP JUMP JUMPDEST PUSH0 PUSH1 0x20 DUP3 ADD SWAP1 POP PUSH2 0x1B60 PUSH0 DUP4 ADD DUP5 PUSH2 0x1B3E JUMP JUMPDEST SWAP3 SWAP2 POP POP JUMP JUMPDEST PUSH0 PUSH2 0x1B70 DUP3 PUSH2 0x1AD3 JUMP JUMPDEST SWAP1 POP SWAP2 SWAP1 POP JUMP JUMPDEST PUSH2 0x1B80 DUP2 PUSH2 0x1B66 JUMP JUMPDEST DUP2 EQ PUSH2 0x1B8A JUMPI PUSH0 DUP1 REVERT JUMPDEST POP JUMP JUMPDEST PUSH0 DUP2 CALLDATALOAD SWAP1 POP PUSH2 0x1B9B DUP2 PUSH2 0x1B77 JUMP JUMPDEST SWAP3 SWAP2 POP POP JUMP JUMPDEST PUSH0 PUSH1 0x20 DUP3 DUP5 SUB SLT ISZERO PUSH2 0x1BB6 JUMPI PUSH2 0x1BB5 PUSH2 0x193E JUMP JUMPDEST JUMPDEST PUSH0 PUSH2 0x1BC3 DUP5 DUP3 DUP6 ADD PUSH2 0x1B8D JUMP JUMPDEST SWAP2 POP POP SWAP3 SWAP2 POP POP JUMP JUMPDEST PUSH2 0x1BD5 DUP2 PUSH2 0x1946 JUMP JUMPDEST DUP3 MSTORE POP POP JUMP JUMPDEST PUSH0 PUSH1 0xA0 DUP3 ADD SWAP1 POP PUSH2 0x1BEE PUSH0 DUP4 ADD DUP9 PUSH2 0x1BCC JUMP JUMPDEST PUSH2 0x1BFB PUSH1 0x20 DUP4 ADD DUP8 PUSH2 0x1BCC JUMP JUMPDEST PUSH2 0x1C08 PUSH1 0x40 DUP4 ADD DUP7 PUSH2 0x1916 JUMP JUMPDEST PUSH2 0x1C15 PUSH1 0x60 DUP4 ADD DUP6 PUSH2 0x1AAB JUMP JUMPDEST PUSH2 0x1C22 PUSH1 0x80 DUP4 ADD DUP5 PUSH2 0x1916 JUMP JUMPDEST SWAP7 SWAP6 POP POP POP POP POP POP JUMP JUMPDEST PUSH2 0x1C35 DUP2 PUSH2 0x1B66 JUMP JUMPDEST DUP3 MSTORE POP POP JUMP JUMPDEST PUSH0 PUSH1 0x20 DUP3 ADD SWAP1 POP PUSH2 0x1C4E PUSH0 DUP4 ADD DUP5 PUSH2 0x1C2C JUMP JUMPDEST SWAP3 SWAP2 POP POP JUMP JUMPDEST PUSH2 0x1C5D DUP2 PUSH2 0x1946 JUMP JUMPDEST DUP3 MSTORE POP POP JUMP JUMPDEST PUSH2 0x1C6C DUP2 PUSH2 0x190D JUMP JUMPDEST DUP3 MSTORE POP POP JUMP JUMPDEST PUSH2 0x1C7B DUP2 PUSH2 0x1AA0 JUMP JUMPDEST DUP3 MSTORE POP POP JUMP JUMPDEST PUSH1 0xA0 DUP3 ADD PUSH0 DUP3 ADD MLOAD PUSH2 0x1C95 PUSH0 DUP6 ADD DUP3 PUSH2 0x1C54 JUMP JUMPDEST POP PUSH1 0x20 DUP3 ADD MLOAD PUSH2 0x1CA8 PUSH1 0x20 DUP6 ADD DUP3 PUSH2 0x1C54 JUMP JUMPDEST POP PUSH1 0x40 DUP3 ADD MLOAD PUSH2 0x1CBB PUSH1 0x40 DUP6 ADD DUP3 PUSH2 0x1C63 JUMP JUMPDEST POP PUSH1 0x60 DUP3 ADD MLOAD PUSH2 0x1CCE PUSH1 0x60 DUP6 ADD DUP3 PUSH2 0x1C72 JUMP JUMPDEST POP PUSH1 0x80 DUP3 ADD MLOAD PUSH2 0x1CE1 PUSH1 0x80 DUP6 ADD DUP3 PUSH2 0x1C63 JUMP JUMPDEST POP POP POP POP JUMP JUMPDEST PUSH0 PUSH1 0xA0 DUP3 ADD SWAP1 POP PUSH2 0x1CFA PUSH0 DUP4 ADD DUP5 PUSH2 0x1C81 JUMP JUMPDEST SWAP3 SWAP2 POP POP JUMP JUMPDEST PUSH0 DUP1 PUSH0 DUP1 PUSH0 DUP1 PUSH1 0xA0 DUP8 DUP10 SUB SLT ISZERO PUSH2 0x1D1A JUMPI PUSH2 0x1D19 PUSH2 0x193E JUMP JUMPDEST JUMPDEST PUSH0 PUSH2 0x1D27 DUP10 DUP3 DUP11 ADD PUSH2 0x1965 JUMP JUMPDEST SWAP7 POP POP PUSH1 0x20 PUSH2 0x1D38 DUP10 DUP3 DUP11 ADD PUSH2 0x1965 JUMP JUMPDEST SWAP6 POP POP PUSH1 0x40 PUSH2 0x1D49 DUP10 DUP3 DUP11 ADD PUSH2 0x1B8D JUMP JUMPDEST SWAP5 POP POP PUSH1 0x60 PUSH2 0x1D5A DUP10 DUP3 DUP11 ADD PUSH2 0x198F JUMP JUMPDEST SWAP4 POP POP PUSH1 0x80 DUP8 ADD CALLDATALOAD PUSH8 0xFFFFFFFFFFFFFFFF DUP2 GT ISZERO PUSH2 0x1D7B JUMPI PUSH2 0x1D7A PUSH2 0x1942 JUMP JUMPDEST JUMPDEST PUSH2 0x1D87 DUP10 DUP3 DUP11 ADD PUSH2 0x19AF JUMP JUMPDEST SWAP3 POP SWAP3 POP POP SWAP3 SWAP6 POP SWAP3 SWAP6 POP SWAP3 SWAP6 JUMP JUMPDEST PUSH0 PUSH2 0x1DA0 DUP3 PUSH2 0x1B1C JUMP JUMPDEST SWAP1 POP SWAP2 SWAP1 POP JUMP JUMPDEST PUSH2 0x1DB0 DUP2 PUSH2 0x1D96 JUMP JUMPDEST DUP3 MSTORE POP POP JUMP JUMPDEST PUSH0 PUSH1 0x20 DUP3 ADD SWAP1 POP PUSH2 0x1DC9 PUSH0 DUP4 ADD DUP5 PUSH2 0x1DA7 JUMP JUMPDEST SWAP3 SWAP2 POP POP JUMP JUMPDEST PUSH0 DUP2 MLOAD SWAP1 POP PUSH2 0x1DDD DUP2 PUSH2 0x1979 JUMP JUMPDEST SWAP3 SWAP2 POP POP JUMP JUMPDEST PUSH0 PUSH1 0x20 DUP3 DUP5 SUB SLT ISZERO PUSH2 0x1DF8 JUMPI PUSH2 0x1DF7 PUSH2 0x193E JUMP JUMPDEST JUMPDEST PUSH0 PUSH2 0x1E05 DUP5 DUP3 DUP6 ADD PUSH2 0x1DCF JUMP JUMPDEST SWAP2 POP POP SWAP3 SWAP2 POP POP JUMP JUMPDEST PUSH0 DUP3 DUP3 MSTORE PUSH1 0x20 DUP3 ADD SWAP1 POP SWAP3 SWAP2 POP POP JUMP JUMPDEST PUSH32 0x496E76616C696420636F6D6D69746D656E740000000000000000000000000000 PUSH0 DUP3 ADD MSTORE POP JUMP JUMPDEST PUSH0 PUSH2 0x1E52 PUSH1 0x12 DUP4 PUSH2 0x1E0E JUMP JUMPDEST SWAP2 POP PUSH2 0x1E5D DUP3 PUSH2 0x1E1E JUMP JUMPDEST PUSH1 0x20 DUP3 ADD SWAP1 POP SWAP2 SWAP1 POP JUMP JUMPDEST PUSH0 PUSH1 0x20 DUP3 ADD SWAP1 POP DUP2 DUP2 SUB PUSH0 DUP4 ADD MSTORE PUSH2 0x1E7F DUP2 PUSH2 0x1E46 JUMP JUMPDEST SWAP1 POP SWAP2 SWAP1 POP JUMP JUMPDEST PUSH32 0x416D6F756E742062656C6F77206D696E696D756D000000000000000000000000 PUSH0 DUP3 ADD MSTORE POP JUMP JUMPDEST PUSH0 PUSH2 0x1EBA PUSH1 0x14 DUP4 PUSH2 0x1E0E JUMP JUMPDEST SWAP2 POP PUSH2 0x1EC5 DUP3 PUSH2 0x1E86 JUMP JUMPDEST PUSH1 0x20 DUP3 ADD SWAP1 POP SWAP2 SWAP1 POP JUMP JUMPDEST PUSH0 PUSH1 0x20 DUP3 ADD SWAP1 POP DUP2 DUP2 SUB PUSH0 DUP4 ADD MSTORE PUSH2 0x1EE7 DUP2 PUSH2 0x1EAE JUMP JUMPDEST SWAP1 POP SWAP2 SWAP1 POP JUMP JUMPDEST PUSH32 0x416D6F756E742061626F7665206D6178696D756D000000000000000000000000 PUSH0 DUP3 ADD MSTORE POP JUMP JUMPDEST PUSH0 PUSH2 0x1F22 PUSH1 0x14 DUP4 PUSH2 0x1E0E JUMP JUMPDEST SWAP2 POP PUSH2 0x1F2D DUP3 PUSH2 0x1EEE JUMP JUMPDEST PUSH1 0x20 DUP3 ADD SWAP1 POP SWAP2 SWAP1 POP JUMP JUMPDEST PUSH0 PUSH1 0x20 DUP3 ADD SWAP1 POP DUP2 DUP2 SUB PUSH0 DUP4 ADD MSTORE PUSH2 0x1F4F DUP2 PUSH2 0x1F16 JUMP JUMPDEST SWAP1 POP SWAP2 SWAP1 POP JUMP JUMPDEST PUSH32 0x436F6D6D69746D656E7420657869737473000000000000000000000000000000 PUSH0 DUP3 ADD MSTORE POP JUMP JUMPDEST PUSH0 PUSH2 0x1F8A PUSH1 0x11 DUP4 PUSH2 0x1E0E JUMP JUMPDEST SWAP2 POP PUSH2 0x1F95 DUP3 PUSH2 0x1F56 JUMP JUMPDEST PUSH1 0x20 DUP3 ADD SWAP1 POP SWAP2 SWAP1 POP JUMP JUMPDEST PUSH0 PUSH1 0x20 DUP3 ADD SWAP1 POP DUP2 DUP2 SUB PUSH0 DUP4 ADD MSTORE PUSH2 0x1FB7 DUP2 PUSH2 0x1F7E JUMP JUMPDEST SWAP1 POP SWAP2 SWAP1 POP JUMP JUMPDEST PUSH32 0x456D7074792070726F6F66000000000000000000000000000000000000000000 PUSH0 DUP3 ADD MSTORE POP JUMP JUMPDEST PUSH0 PUSH2 0x1FF2 PUSH1 0xB DUP4 PUSH2 0x1E0E JUMP JUMPDEST SWAP2 POP PUSH2 0x1FFD DUP3 PUSH2 0x1FBE JUMP JUMPDEST PUSH1 0x20 DUP3 ADD SWAP1 POP SWAP2 SWAP1 POP JUMP JUMPDEST PUSH0 PUSH1 0x20 DUP3 ADD SWAP1 POP DUP2 DUP2 SUB PUSH0 DUP4 ADD MSTORE PUSH2 0x201F DUP2 PUSH2 0x1FE6 JUMP JUMPDEST SWAP1 POP SWAP2 SWAP1 POP JUMP JUMPDEST PUSH0 DUP3 DUP3 MSTORE PUSH1 0x20 DUP3 ADD SWAP1 POP SWAP3 SWAP2 POP POP JUMP JUMPDEST DUP3 DUP2 DUP4 CALLDATACOPY PUSH0 DUP4 DUP4 ADD MSTORE POP POP POP JUMP JUMPDEST PUSH0 PUSH1 0x1F NOT PUSH1 0x1F DUP4 ADD AND SWAP1 POP SWAP2 SWAP1 POP JUMP JUMPDEST PUSH0 PUSH2 0x205F DUP4 DUP6 PUSH2 0x2026 JUMP JUMPDEST SWAP4 POP PUSH2 0x206C DUP4 DUP6 DUP5 PUSH2 0x2036 JUMP JUMPDEST PUSH2 0x2075 DUP4 PUSH2 0x2044 JUMP JUMPDEST DUP5 ADD SWAP1 POP SWAP4 SWAP3 POP POP POP JUMP JUMPDEST PUSH0 PUSH1 0x80 DUP3 ADD SWAP1 POP PUSH2 0x2093 PUSH0 DUP4 ADD DUP9 PUSH2 0x1BCC JUMP JUMPDEST PUSH2 0x20A0 PUSH1 0x20 DUP4 ADD DUP8 PUSH2 0x1916 JUMP JUMPDEST PUSH2 0x20AD PUSH1 0x40 DUP4 ADD DUP7 PUSH2 0x1C2C JUMP JUMPDEST DUP2 DUP2 SUB PUSH1 0x60 DUP4 ADD MSTORE PUSH2 0x20C0 DUP2 DUP5 DUP7 PUSH2 0x2054 JUMP JUMPDEST SWAP1 POP SWAP7 SWAP6 POP POP POP POP POP POP JUMP JUMPDEST PUSH2 0x20D5 DUP2 PUSH2 0x1AA0 JUMP JUMPDEST DUP2 EQ PUSH2 0x20DF JUMPI PUSH0 DUP1 REVERT JUMPDEST POP JUMP JUMPDEST PUSH0 DUP2 MLOAD SWAP1 POP PUSH2 0x20F0 DUP2 PUSH2 0x20CC JUMP JUMPDEST SWAP3 SWAP2 POP POP JUMP JUMPDEST PUSH0 PUSH1 0x20 DUP3 DUP5 SUB SLT ISZERO PUSH2 0x210B JUMPI PUSH2 0x210A PUSH2 0x193E JUMP JUMPDEST JUMPDEST PUSH0 PUSH2 0x2118 DUP5 DUP3 DUP6 ADD PUSH2 0x20E2 JUMP JUMPDEST SWAP2 POP POP SWAP3 SWAP2 POP POP JUMP JUMPDEST PUSH32 0x496E76616C69642070726F6F6600000000000000000000000000000000000000 PUSH0 DUP3 ADD MSTORE POP JUMP JUMPDEST PUSH0 PUSH2 0x2155 PUSH1 0xD DUP4 PUSH2 0x1E0E JUMP JUMPDEST SWAP2 POP PUSH2 0x2160 DUP3 PUSH2 0x2121 JUMP JUMPDEST PUSH1 0x20 DUP3 ADD SWAP1 POP SWAP2 SWAP1 POP JUMP JUMPDEST PUSH0 PUSH1 0x20 DUP3 ADD SWAP1 POP DUP2 DUP2 SUB PUSH0 DUP4 ADD MSTORE PUSH2 0x2182 DUP2 PUSH2 0x2149 JUMP JUMPDEST SWAP1 POP SWAP2 SWAP1 POP JUMP JUMPDEST PUSH0 PUSH1 0x60 DUP3 ADD SWAP1 POP PUSH2 0x219C PUSH0 DUP4 ADD DUP7 PUSH2 0x1C2C JUMP JUMPDEST PUSH2 0x21A9 PUSH1 0x20 DUP4 ADD DUP6 PUSH2 0x1C2C JUMP JUMPDEST PUSH2 0x21B6 PUSH1 0x40 DUP4 ADD DUP5 PUSH2 0x1916 JUMP JUMPDEST SWAP5 SWAP4 POP POP POP POP JUMP JUMPDEST PUSH32 0x5472616E73666572206661696C65640000000000000000000000000000000000 PUSH0 DUP3 ADD MSTORE POP JUMP JUMPDEST PUSH0 PUSH2 0x21F2 PUSH1 0xF DUP4 PUSH2 0x1E0E JUMP JUMPDEST SWAP2 POP PUSH2 0x21FD DUP3 PUSH2 0x21BE JUMP JUMPDEST PUSH1 0x20 DUP3 ADD SWAP1 POP SWAP2 SWAP1 POP JUMP JUMPDEST PUSH0 PUSH1 0x20 DUP3 ADD SWAP1 POP DUP2 DUP2 SUB PUSH0 DUP4 ADD MSTORE PUSH2 0x221F DUP2 PUSH2 0x21E6 JUMP JUMPDEST SWAP1 POP SWAP2 SWAP1 POP JUMP JUMPDEST PUSH32 0x4E487B7100000000000000000000000000000000000000000000000000000000 PUSH0 MSTORE PUSH1 0x11 PUSH1 0x4 MSTORE PUSH1 0x24 PUSH0 REVERT JUMPDEST PUSH0 PUSH2 0x225D DUP3 PUSH2 0x190D JUMP JUMPDEST SWAP2 POP PUSH2 0x2268 DUP4 PUSH2 0x190D JUMP JUMPDEST SWAP3 POP DUP3 DUP3 ADD SWAP1 POP DUP1 DUP3 GT ISZERO PUSH2 0x2280 JUMPI PUSH2 0x227F PUSH2 0x2226 JUMP JUMPDEST JUMPDEST SWAP3 SWAP2 POP POP JUMP JUMPDEST PUSH32 0x496E76616C6964207472616E7366657220616D6F756E74000000000000000000 PUSH0 DUP3 ADD MSTORE POP JUMP JUMPDEST PUSH0 PUSH2 0x22BA PUSH1 0x17 DUP4 PUSH2 0x1E0E JUMP JUMPDEST SWAP2 POP PUSH2 0x22C5 DUP3 PUSH2 0x2286 JUMP JUMPDEST PUSH1 0x20 DUP3 ADD SWAP1 POP SWAP2 SWAP1 POP JUMP JUMPDEST PUSH0 PUSH1 0x20 DUP3 ADD SWAP1 POP DUP2 DUP2 SUB PUSH0 DUP4 ADD MSTORE PUSH2 0x22E7 DUP2 PUSH2 0x22AE JUMP JUMPDEST SWAP1 POP SWAP2 SWAP1 POP JUMP JUMPDEST PUSH0 PUSH1 0x40 DUP3 ADD SWAP1 POP PUSH2 0x2301 PUSH0 DUP4 ADD DUP6 PUSH2 0x1916 JUMP JUMPDEST PUSH2 0x230E PUSH1 0x20 DUP4 ADD DUP5 PUSH2 0x1916 JUMP JUMPDEST SWAP4 SWAP3 POP POP POP JUMP JUMPDEST PUSH32 0x496E76616C696420766572696669657220616464726573730000000000000000 PUSH0 DUP3 ADD MSTORE POP JUMP JUMPDEST PUSH0 PUSH2 0x2349 PUSH1 0x18 DUP4 PUSH2 0x1E0E JUMP JUMPDEST SWAP2 POP PUSH2 0x2354 DUP3 PUSH2 0x2315 JUMP JUMPDEST PUSH1 0x20 DUP3 ADD SWAP1 POP SWAP2 SWAP1 POP JUMP JUMPDEST PUSH0 PUSH1 0x20 DUP3 ADD SWAP1 POP DUP2 DUP2 SUB PUSH0 DUP4 ADD MSTORE PUSH2 0x2376 DUP2 PUSH2 0x233D JUMP JUMPDEST SWAP1 POP SWAP2 SWAP1 POP JUMP JUMPDEST PUSH32 0x496E76616C6964206E756C6C6966696572000000000000000000000000000000 PUSH0 DUP3 ADD MSTORE POP JUMP JUMPDEST PUSH0 PUSH2 0x23B1 PUSH1 0x11 DUP4 PUSH2 0x1E0E JUMP JUMPDEST SWAP2 POP PUSH2 0x23BC DUP3 PUSH2 0x237D JUMP JUMPDEST PUSH1 0x20 DUP3 ADD SWAP1 POP SWAP2 SWAP1 POP JUMP JUMPDEST PUSH0 PUSH1 0x20 DUP3 ADD SWAP1 POP DUP2 DUP2 SUB PUSH0 DUP4 ADD MSTORE PUSH2 0x23DE DUP2 PUSH2 0x23A5 JUMP JUMPDEST SWAP1 POP SWAP2 SWAP1 POP JUMP JUMPDEST PUSH32 0x496E76616C696420726563697069656E74000000000000000000000000000000 PUSH0 DUP3 ADD MSTORE POP JUMP JUMPDEST PUSH0 PUSH2 0x2419 PUSH1 0x11 DUP4 PUSH2 0x1E0E JUMP JUMPDEST SWAP2 POP PUSH2 0x2424 DUP3 PUSH2 0x23E5 JUMP JUMPDEST PUSH1 0x20 DUP3 ADD SWAP1 POP SWAP2 SWAP1 POP JUMP JUMPDEST PUSH0 PUSH1 0x20 DUP3 ADD SWAP1 POP DUP2 DUP2 SUB PUSH0 DUP4 ADD MSTORE PUSH2 0x2446 DUP2 PUSH2 0x240D JUMP JUMPDEST SWAP1 POP SWAP2 SWAP1 POP JUMP JUMPDEST PUSH32 0x496E76616C696420616D6F756E74000000000000000000000000000000000000 PUSH0 DUP3 ADD MSTORE POP JUMP JUMPDEST PUSH0 PUSH2 0x2481 PUSH1 0xE DUP4 PUSH2 0x1E0E JUMP JUMPDEST SWAP2 POP PUSH2 0x248C DUP3 PUSH2 0x244D JUMP JUMPDEST PUSH1 0x20 DUP3 ADD SWAP1 POP SWAP2 SWAP1 POP JUMP JUMPDEST PUSH0 PUSH1 0x20 DUP3 ADD SWAP1 POP DUP2 DUP2 SUB PUSH0 DUP4 ADD MSTORE PUSH2 0x24AE DUP2 PUSH2 0x2475 JUMP JUMPDEST SWAP1 POP SWAP2 SWAP1 POP JUMP JUMPDEST PUSH32 0x4E756C6C69666965722075736564000000000000000000000000000000000000 PUSH0 DUP3 ADD MSTORE POP JUMP JUMPDEST PUSH0 PUSH2 0x24E9 PUSH1 0xE DUP4 PUSH2 0x1E0E JUMP JUMPDEST SWAP2 POP PUSH2 0x24F4 DUP3 PUSH2 0x24B5 JUMP JUMPDEST PUSH1 0x20 DUP3 ADD SWAP1 POP SWAP2 SWAP1 POP JUMP JUMPDEST PUSH0 PUSH1 0x20 DUP3 ADD SWAP1 POP DUP2 DUP2 SUB PUSH0 DUP4 ADD MSTORE PUSH2 0x2516 DUP2 PUSH2 0x24DD JUMP JUMPDEST SWAP1 POP SWAP2 SWAP1 POP JUMP JUMPDEST PUSH32 0x4E6F7465206E6F7420666F756E64000000000000000000000000000000000000 PUSH0 DUP3 ADD MSTORE POP JUMP JUMPDEST PUSH0 PUSH2 0x2551 PUSH1 0xE DUP4 PUSH2 0x1E0E JUMP JUMPDEST SWAP2 POP PUSH2 0x255C DUP3 PUSH2 0x251D JUMP JUMPDEST PUSH1 0x20 DUP3 ADD SWAP1 POP SWAP2 SWAP1 POP JUMP JUMPDEST PUSH0 PUSH1 0x20 DUP3 ADD SWAP1 POP DUP2 DUP2 SUB PUSH0 DUP4 ADD MSTORE PUSH2 0x257E DUP2 PUSH2 0x2545 JUMP JUMPDEST SWAP1 POP SWAP2 SWAP1 POP JUMP JUMPDEST PUSH32 0x4E6F7465207370656E7400000000000000000000000000000000000000000000 PUSH0 DUP3 ADD MSTORE POP JUMP JUMPDEST PUSH0 PUSH2 0x25B9 PUSH1 0xA DUP4 PUSH2 0x1E0E JUMP JUMPDEST SWAP2 POP PUSH2 0x25C4 DUP3 PUSH2 0x2585 JUMP JUMPDEST PUSH1 0x20 DUP3 ADD SWAP1 POP SWAP2 SWAP1 POP JUMP JUMPDEST PUSH0 PUSH1 0x20 DUP3 ADD SWAP1 POP DUP2 DUP2 SUB PUSH0 DUP4 ADD MSTORE PUSH2 0x25E6 DUP2 PUSH2 0x25AD JUMP JUMPDEST SWAP1 POP SWAP2 SWAP1 POP JUMP JUMPDEST PUSH32 0x496E73756666696369656E742062616C616E6365000000000000000000000000 PUSH0 DUP3 ADD MSTORE POP JUMP JUMPDEST PUSH0 PUSH2 0x2621 PUSH1 0x14 DUP4 PUSH2 0x1E0E JUMP JUMPDEST SWAP2 POP PUSH2 0x262C DUP3 PUSH2 0x25ED JUMP JUMPDEST PUSH1 0x20 DUP3 ADD SWAP1 POP SWAP2 SWAP1 POP JUMP JUMPDEST PUSH0 PUSH1 0x20 DUP3 ADD SWAP1 POP DUP2 DUP2 SUB PUSH0 DUP4 ADD MSTORE PUSH2 0x264E DUP2 PUSH2 0x2615 JUMP JUMPDEST SWAP1 POP SWAP2 SWAP1 POP JUMP JUMPDEST PUSH0 PUSH1 0xA0 DUP3 ADD SWAP1 POP PUSH2 0x2668 PUSH0 DUP4 ADD DUP10 PUSH2 0x1BCC JUMP JUMPDEST PUSH2 0x2675 PUSH1 0x20 DUP4 ADD DUP9 PUSH2 0x1BCC JUMP JUMPDEST PUSH2 0x2682 PUSH1 0x40 DUP4 ADD DUP8 PUSH2 0x1C2C JUMP JUMPDEST PUSH2 0x268F PUSH1 0x60 DUP4 ADD DUP7 PUSH2 0x1916 JUMP JUMPDEST DUP2 DUP2 SUB PUSH1 0x80 DUP4 ADD MSTORE PUSH2 0x26A2 DUP2 DUP5 DUP7 PUSH2 0x2054 JUMP JUMPDEST SWAP1 POP SWAP8 SWAP7 POP POP POP POP POP POP POP JUMP JUMPDEST PUSH0 PUSH1 0x40 DUP3 ADD SWAP1 POP PUSH2 0x26C2 PUSH0 DUP4 ADD DUP6 PUSH2 0x1C2C JUMP JUMPDEST PUSH2 0x26CF PUSH1 0x20 DUP4 ADD DUP5 PUSH2 0x1916 JUMP JUMPDEST SWAP4 SWAP3 POP POP POP JUMP JUMPDEST PUSH32 0x4E6F2062616C616E636500000000000000000000000000000000000000000000 PUSH0 DUP3 ADD MSTORE POP JUMP JUMPDEST PUSH0 PUSH2 0x270A PUSH1 0xA DUP4 PUSH2 0x1E0E JUMP JUMPDEST SWAP2 POP PUSH2 0x2715 DUP3 PUSH2 0x26D6 JUMP JUMPDEST PUSH1 0x20 DUP3 ADD SWAP1 POP SWAP2 SWAP1 POP JUMP JUMPDEST PUSH0 PUSH1 0x20 DUP3 ADD SWAP1 POP DUP2 DUP2 SUB PUSH0 DUP4 ADD MSTORE PUSH2 0x2737 DUP2 PUSH2 0x26FE JUMP JUMPDEST SWAP1 POP SWAP2 SWAP1 POP JUMP INVALID LOG2 PUSH5 0x6970667358 0x22 SLT KECCAK256 EXTCODEHASH 0xA8 SWAP3 SIGNEXTEND JUMP 0x21 SHL SAR 0xD0 DUP13 0xA5 SUB 0x21 0xB9 PUSH20 0xDF946B67D1762018EF7506AB04708F79B264736F PUSH13 0x634300081A0033000000000000 "
		},
		"gasEstimates": {
			"creation": {
				"codeDepositCost": "2020000",
				"executionCost": "infinite",
				"totalCost": "infinite"
			},
			"external": {
				"MAX_DEPOSIT()": "369",
				"MIN_DEPOSIT()": "391",
				"deposit(bytes32,uint256,bytes)": "infinite",
				"emergencyWithdraw()": "infinite",
				"getBalance()": "infinite",
				"getNoteDetails(bytes32)": "infinite",
				"isNullifierUsed(bytes32)": "2878",
				"notes(bytes32)": "infinite",
				"nullifierUsed(bytes32)": "2896",
				"owner()": "2582",
				"pause()": "infinite",
				"paused()": "2540",
				"renounceOwnership()": "infinite",
				"setVerifier(address)": "infinite",
				"token()": "infinite",
				"transferOwnership(address)": "infinite",
				"unpause()": "infinite",
				"verifier()": "infinite",
				"withdraw(bytes32,bytes32,address,uint256,bytes)": "infinite"
			}
		},
		"methodIdentifiers": {
			"MAX_DEPOSIT()": "dd5967c3",
			"MIN_DEPOSIT()": "e1e158a5",
			"deposit(bytes32,uint256,bytes)": "1acc8486",
			"emergencyWithdraw()": "db2e21bc",
			"getBalance()": "12065fe0",
			"getNoteDetails(bytes32)": "9d280f51",
			"isNullifierUsed(bytes32)": "22dc7b4c",
			"notes(bytes32)": "85de26b7",
			"nullifierUsed(bytes32)": "7ecf686d",
			"owner()": "8da5cb5b",
			"pause()": "8456cb59",
			"paused()": "5c975abb",
			"renounceOwnership()": "715018a6",
			"setVerifier(address)": "5437988d",
			"token()": "fc0c546a",
			"transferOwnership(address)": "f2fde38b",
			"unpause()": "3f4ba83a",
			"verifier()": "2b7ac3f3",
			"withdraw(bytes32,bytes32,address,uint256,bytes)": "b3f15741"
		}
	},
	"abi": [
		{
			"inputs": [
				{
					"internalType": "address",
					"name": "_token",
					"type": "address"
				},
				{
					"internalType": "address",
					"name": "_verifier",
					"type": "address"
				},
				{
					"internalType": "address",
					"name": "_owner",
					"type": "address"
				}
			],
			"stateMutability": "nonpayable",
			"type": "constructor"
		},
		{
			"inputs": [],
			"name": "EnforcedPause",
			"type": "error"
		},
		{
			"inputs": [],
			"name": "ExpectedPause",
			"type": "error"
		},
		{
			"inputs": [
				{
					"internalType": "address",
					"name": "owner",
					"type": "address"
				}
			],
			"name": "OwnableInvalidOwner",
			"type": "error"
		},
		{
			"inputs": [
				{
					"internalType": "address",
					"name": "account",
					"type": "address"
				}
			],
			"name": "OwnableUnauthorizedAccount",
			"type": "error"
		},
		{
			"inputs": [],
			"name": "ReentrancyGuardReentrantCall",
			"type": "error"
		},
		{
			"anonymous": false,
			"inputs": [
				{
					"indexed": true,
					"internalType": "address",
					"name": "owner",
					"type": "address"
				},
				{
					"indexed": false,
					"internalType": "uint256",
					"name": "amount",
					"type": "uint256"
				},
				{
					"indexed": false,
					"internalType": "uint256",
					"name": "timestamp",
					"type": "uint256"
				}
			],
			"name": "EmergencyWithdrawal",
			"type": "event"
		},
		{
			"anonymous": false,
			"inputs": [
				{
					"indexed": true,
					"internalType": "bytes32",
					"name": "commitment",
					"type": "bytes32"
				},
				{
					"indexed": false,
					"internalType": "uint256",
					"name": "amount",
					"type": "uint256"
				},
				{
					"indexed": false,
					"internalType": "uint256",
					"name": "timestamp",
					"type": "uint256"
				}
			],
			"name": "NoteDeposited",
			"type": "event"
		},
		{
			"anonymous": false,
			"inputs": [
				{
					"indexed": true,
					"internalType": "bytes32",
					"name": "nullifier",
					"type": "bytes32"
				},
				{
					"indexed": true,
					"internalType": "address",
					"name": "recipient",
					"type": "address"
				},
				{
					"indexed": false,
					"internalType": "uint256",
					"name": "amount",
					"type": "uint256"
				},
				{
					"indexed": false,
					"internalType": "uint256",
					"name": "timestamp",
					"type": "uint256"
				}
			],
			"name": "NoteWithdrawn",
			"type": "event"
		},
		{
			"anonymous": false,
			"inputs": [
				{
					"indexed": true,
					"internalType": "address",
					"name": "previousOwner",
					"type": "address"
				},
				{
					"indexed": true,
					"internalType": "address",
					"name": "newOwner",
					"type": "address"
				}
			],
			"name": "OwnershipTransferred",
			"type": "event"
		},
		{
			"anonymous": false,
			"inputs": [
				{
					"indexed": false,
					"internalType": "address",
					"name": "account",
					"type": "address"
				}
			],
			"name": "Paused",
			"type": "event"
		},
		{
			"anonymous": false,
			"inputs": [
				{
					"indexed": false,
					"internalType": "address",
					"name": "account",
					"type": "address"
				}
			],
			"name": "Unpaused",
			"type": "event"
		},
		{
			"anonymous": false,
			"inputs": [
				{
					"indexed": true,
					"internalType": "address",
					"name": "oldVerifier",
					"type": "address"
				},
				{
					"indexed": true,
					"internalType": "address",
					"name": "newVerifier",
					"type": "address"
				},
				{
					"indexed": false,
					"internalType": "uint256",
					"name": "timestamp",
					"type": "uint256"
				}
			],
			"name": "VerifierUpdated",
			"type": "event"
		},
		{
			"inputs": [],
			"name": "MAX_DEPOSIT",
			"outputs": [
				{
					"internalType": "uint256",
					"name": "",
					"type": "uint256"
				}
			],
			"stateMutability": "view",
			"type": "function"
		},
		{
			"inputs": [],
			"name": "MIN_DEPOSIT",
			"outputs": [
				{
					"internalType": "uint256",
					"name": "",
					"type": "uint256"
				}
			],
			"stateMutability": "view",
			"type": "function"
		},
		{
			"inputs": [
				{
					"internalType": "bytes32",
					"name": "commitment",
					"type": "bytes32"
				},
				{
					"internalType": "uint256",
					"name": "amount",
					"type": "uint256"
				},
				{
					"internalType": "bytes",
					"name": "proof",
					"type": "bytes"
				}
			],
			"name": "deposit",
			"outputs": [],
			"stateMutability": "nonpayable",
			"type": "function"
		},
		{
			"inputs": [],
			"name": "emergencyWithdraw",
			"outputs": [],
			"stateMutability": "nonpayable",
			"type": "function"
		},
		{
			"inputs": [],
			"name": "getBalance",
			"outputs": [
				{
					"internalType": "uint256",
					"name": "",
					"type": "uint256"
				}
			],
			"stateMutability": "view",
			"type": "function"
		},
		{
			"inputs": [
				{
					"internalType": "bytes32",
					"name": "commitment",
					"type": "bytes32"
				}
			],
			"name": "getNoteDetails",
			"outputs": [
				{
					"components": [
						{
							"internalType": "bytes32",
							"name": "commitment",
							"type": "bytes32"
						},
						{
							"internalType": "bytes32",
							"name": "nullifier",
							"type": "bytes32"
						},
						{
							"internalType": "uint256",
							"name": "amount",
							"type": "uint256"
						},
						{
							"internalType": "bool",
							"name": "spent",
							"type": "bool"
						},
						{
							"internalType": "uint256",
							"name": "timestamp",
							"type": "uint256"
						}
					],
					"internalType": "struct PrivacyPool.Note",
					"name": "",
					"type": "tuple"
				}
			],
			"stateMutability": "view",
			"type": "function"
		},
		{
			"inputs": [
				{
					"internalType": "bytes32",
					"name": "nullifier",
					"type": "bytes32"
				}
			],
			"name": "isNullifierUsed",
			"outputs": [
				{
					"internalType": "bool",
					"name": "",
					"type": "bool"
				}
			],
			"stateMutability": "view",
			"type": "function"
		},
		{
			"inputs": [
				{
					"internalType": "bytes32",
					"name": "",
					"type": "bytes32"
				}
			],
			"name": "notes",
			"outputs": [
				{
					"internalType": "bytes32",
					"name": "commitment",
					"type": "bytes32"
				},
				{
					"internalType": "bytes32",
					"name": "nullifier",
					"type": "bytes32"
				},
				{
					"internalType": "uint256",
					"name": "amount",
					"type": "uint256"
				},
				{
					"internalType": "bool",
					"name": "spent",
					"type": "bool"
				},
				{
					"internalType": "uint256",
					"name": "timestamp",
					"type": "uint256"
				}
			],
			"stateMutability": "view",
			"type": "function"
		},
		{
			"inputs": [
				{
					"internalType": "bytes32",
					"name": "",
					"type": "bytes32"
				}
			],
			"name": "nullifierUsed",
			"outputs": [
				{
					"internalType": "bool",
					"name": "",
					"type": "bool"
				}
			],
			"stateMutability": "view",
			"type": "function"
		},
		{
			"inputs": [],
			"name": "owner",
			"outputs": [
				{
					"internalType": "address",
					"name": "",
					"type": "address"
				}
			],
			"stateMutability": "view",
			"type": "function"
		},
		{
			"inputs": [],
			"name": "pause",
			"outputs": [],
			"stateMutability": "nonpayable",
			"type": "function"
		},
		{
			"inputs": [],
			"name": "paused",
			"outputs": [
				{
					"internalType": "bool",
					"name": "",
					"type": "bool"
				}
			],
			"stateMutability": "view",
			"type": "function"
		},
		{
			"inputs": [],
			"name": "renounceOwnership",
			"outputs": [],
			"stateMutability": "nonpayable",
			"type": "function"
		},
		{
			"inputs": [
				{
					"internalType": "address",
					"name": "_verifier",
					"type": "address"
				}
			],
			"name": "setVerifier",
			"outputs": [],
			"stateMutability": "nonpayable",
			"type": "function"
		},
		{
			"inputs": [],
			"name": "token",
			"outputs": [
				{
					"internalType": "contract IERC20",
					"name": "",
					"type": "address"
				}
			],
			"stateMutability": "view",
			"type": "function"
		},
		{
			"inputs": [
				{
					"internalType": "address",
					"name": "newOwner",
					"type": "address"
				}
			],
			"name": "transferOwnership",
			"outputs": [],
			"stateMutability": "nonpayable",
			"type": "function"
		},
		{
			"inputs": [],
			"name": "unpause",
			"outputs": [],
			"stateMutability": "nonpayable",
			"type": "function"
		},
		{
			"inputs": [],
			"name": "verifier",
			"outputs": [
				{
					"internalType": "contract IVerifier",
					"name": "",
					"type": "address"
				}
			],
			"stateMutability": "view",
			"type": "function"
		},
		{
			"inputs": [
				{
					"internalType": "bytes32",
					"name": "nullifier",
					"type": "bytes32"
				},
				{
					"internalType": "bytes32",
					"name": "commitment",
					"type": "bytes32"
				},
				{
					"internalType": "address",
					"name": "recipient",
					"type": "address"
				},
				{
					"internalType": "uint256",
					"name": "amount",
					"type": "uint256"
				},
				{
					"internalType": "bytes",
					"name": "proof",
					"type": "bytes"
				}
			],
			"name": "withdraw",
			"outputs": [],
			"stateMutability": "nonpayable",
			"type": "function"
		}
	]
}