{
	"data": {
		"bytecode": {
			"linkReferences": {},
			"object": "608060405234801561000f575f80fd5b50604051612abd380380612abd833981810160405281019061003191906101de565b805f73ffffffffffffffffffffffffffffffffffffffff168173ffffffffffffffffffffffffffffffffffffffff16036100a2575f6040517f1e4fbdf70000000000000000000000000000000000000000000000000000000081526004016100999190610218565b60405180910390fd5b6100b1816100bf60201b60201c565b506001808190555050610231565b5f805f9054906101000a900473ffffffffffffffffffffffffffffffffffffffff169050815f806101000a81548173ffffffffffffffffffffffffffffffffffffffff021916908373ffffffffffffffffffffffffffffffffffffffff1602179055508173ffffffffffffffffffffffffffffffffffffffff168173ffffffffffffffffffffffffffffffffffffffff167f8be0079c531659141344cd1fd0a4f28419497f9722a3daafe3b4186f6b6457e060405160405180910390a35050565b5f80fd5b5f73ffffffffffffffffffffffffffffffffffffffff82169050919050565b5f6101ad82610184565b9050919050565b6101bd816101a3565b81146101c7575f80fd5b50565b5f815190506101d8816101b4565b92915050565b5f602082840312156101f3576101f2610180565b5b5f610200848285016101ca565b91505092915050565b610212816101a3565b82525050565b5f60208201905061022b5f830184610209565b92915050565b61287f8061023e5f395ff3fe608060405234801561000f575f80fd5b5060043610610156575f3560e01c806383177db3116100c1578063d3bb8b961161007a578063d3bb8b961461040e578063d48380611461043e578063d88eedf61461046e578063dafc9fc11461049e578063f292671b146104ce578063f2fde38b146104fe57610156565b806383177db31461030057806387ebbf67146103305780638da5cb5b14610360578063a4f393291461037e578063ab2cbcb3146103ae578063d2b18b60146103de57610156565b80635a9baf37116101135780635a9baf371461024057806365f353711461025e5780636a2b05181461028e5780636e2d7d38146102be578063715018a6146102da578063760fc7b8146102e457610156565b80630bef429b1461015a5780630cec5f62146101765780632a4d4280146101a65780632f0e14fb146101d657806349385399146101f45780634d73269c14610210575b5f80fd5b610174600480360381019061016f9190611a01565b61051a565b005b610190600480360381019061018b9190611a01565b6106cc565b60405161019d9190611a46565b60405180910390f35b6101c060048036038101906101bb9190611a92565b6106f5565b6040516101cd9190611b41565b60405180910390f35b6101de6107f5565b6040516101eb9190611b69565b60405180910390f35b61020e60048036038101906102099190611b82565b6107fc565b005b61022a60048036038101906102259190611c4b565b61093a565b6040516102379190611a46565b60405180910390f35b610248610957565b6040516102559190611b69565b60405180910390f35b61027860048036038101906102739190611a01565b61095f565b6040516102859190611dbd565b60405180910390f35b6102a860048036038101906102a39190611dd7565b610a8d565b6040516102b59190611a46565b60405180910390f35b6102d860048036038101906102d39190611e48565b610aa9565b005b6102e2610abd565b005b6102fe60048036038101906102f99190611ecc565b610ad0565b005b61031a60048036038101906103159190611f7a565b610b61565b6040516103279190611a46565b60405180910390f35b61034a60048036038101906103459190611a01565b610bc3565b6040516103579190611dbd565b60405180910390f35b610368610d3a565b6040516103759190611fc7565b60405180910390f35b61039860048036038101906103939190611fe0565b610d61565b6040516103a59190611a46565b60405180910390f35b6103c860048036038101906103c3919061201e565b610ecc565b6040516103d59190611a46565b60405180910390f35b6103f860048036038101906103f39190611a92565b610f9a565b60405161040591906120de565b60405180910390f35b61042860048036038101906104239190611a01565b61109a565b6040516104359190611b69565b60405180910390f35b61045860048036038101906104539190612153565b6110ff565b6040516104659190611a46565b60405180910390f35b61048860048036038101906104839190611e48565b61111d565b6040516104959190611a46565b60405180910390f35b6104b860048036038101906104b391906121e9565b611237565b6040516104c59190611a46565b60405180910390f35b6104e860048036038101906104e39190611a01565b611256565b6040516104f59190611b69565b60405180910390f35b610518600480360381019061051391906122c5565b6112bb565b005b610523816106cc565b610562576040517f08c379a00000000000000000000000000000000000000000000000000000000081526004016105599061234a565b60405180910390fd5b3373ffffffffffffffffffffffffffffffffffffffff1660025f8381526020019081526020015f206001015f9054906101000a900473ffffffffffffffffffffffffffffffffffffffff1673ffffffffffffffffffffffffffffffffffffffff1614610603576040517f08c379a00000000000000000000000000000000000000000000000000000000081526004016105fa906123b2565b60405180910390fd5b60025f8281526020019081526020015f205f8082015f9055600182015f6101000a81549073ffffffffffffffffffffffffffffffffffffffff0219169055600282015f9055600382015f9055600482015f6101000a81549060ff0219169055600582015f9055600682015f9055600782015f6101000a81549060ff021916905550503373ffffffffffffffffffffffffffffffffffffffff16817f7be12496ae22d3d9a9e65382c3ecfe9066f06c542a3a22dd9c9c2deb159de64560405160405180910390a350565b5f60025f8381526020019081526020015f206007015f9054906101000a900460ff169050919050565b6106fd61193f565b610706836106cc565b610745576040517f08c379a000000000000000000000000000000000000000000000000000000000815260040161073c9061234a565b60405180910390fd5b60025f8481526020019081526020015f2060060154821061079b576040517f08c379a00000000000000000000000000000000000000000000000000000000081526004016107929061241a565b60405180910390fd5b60035f8481526020019081526020015f205f8381526020019081526020015f206040518060800160405290815f82015481526020016001820154815260200160028201548152602001600382015481525050905092915050565b6210000081565b610805826106cc565b610844576040517f08c379a000000000000000000000000000000000000000000000000000000000815260040161083b9061234a565b60405180910390fd5b3373ffffffffffffffffffffffffffffffffffffffff1660025f8481526020019081526020015f206001015f9054906101000a900473ffffffffffffffffffffffffffffffffffffffff1673ffffffffffffffffffffffffffffffffffffffff16146108e5576040517f08c379a00000000000000000000000000000000000000000000000000000000081526004016108dc906123b2565b60405180910390fd5b8060025f8481526020019081526020015f2060050181905550817f22fcd0c181fefec176f74b8af4b0d73dde52a16a6127956654704b1b311193f28260405161092e9190612447565b60405180910390a25050565b5f61094a868686865f801b61133f565b6001905095945050505050565b634000000081565b610967611969565b610970826106cc565b6109af576040517f08c379a00000000000000000000000000000000000000000000000000000000081526004016109a69061234a565b60405180910390fd5b60025f8381526020019081526020015f20604051806101000160405290815f8201548152602001600182015f9054906101000a900473ffffffffffffffffffffffffffffffffffffffff1673ffffffffffffffffffffffffffffffffffffffff1673ffffffffffffffffffffffffffffffffffffffff1681526020016002820154815260200160038201548152602001600482015f9054906101000a900460ff161515151581526020016005820154815260200160068201548152602001600782015f9054906101000a900460ff1615151515815250509050919050565b5f610a9d858585855f801b61133f565b60019050949350505050565b610ab6858585858561133f565b5050505050565b610ac5611538565b610ace5f6115bf565b565b6340000000848490501115610b1a576040517f08c379a0000000000000000000000000000000000000000000000000000000008152600401610b11906124aa565b60405180910390fd5b5f6210000060016210000087879050610b3391906124f5565b610b3d9190612528565b610b479190612588565b9050610b598686869050838686611680565b505050505050565b5f60045f8481526020019081526020015f205f8373ffffffffffffffffffffffffffffffffffffffff1673ffffffffffffffffffffffffffffffffffffffff1681526020019081526020015f205f9054906101000a900460ff16905092915050565b610bcb611969565b610bd4826106cc565b610c13576040517f08c379a0000000000000000000000000000000000000000000000000000000008152600401610c0a9061234a565b60405180910390fd5b610c1d8233610b61565b610c5c576040517f08c379a0000000000000000000000000000000000000000000000000000000008152600401610c5390612602565b60405180910390fd5b60025f8381526020019081526020015f20604051806101000160405290815f8201548152602001600182015f9054906101000a900473ffffffffffffffffffffffffffffffffffffffff1673ffffffffffffffffffffffffffffffffffffffff1673ffffffffffffffffffffffffffffffffffffffff1681526020016002820154815260200160038201548152602001600482015f9054906101000a900460ff161515151581526020016005820154815260200160068201548152602001600782015f9054906101000a900460ff1615151515815250509050919050565b5f805f9054906101000a900473ffffffffffffffffffffffffffffffffffffffff16905090565b5f610d6b836106cc565b610daa576040517f08c379a0000000000000000000000000000000000000000000000000000000008152600401610da19061234a565b60405180910390fd5b3373ffffffffffffffffffffffffffffffffffffffff1660025f8581526020019081526020015f206001015f9054906101000a900473ffffffffffffffffffffffffffffffffffffffff1673ffffffffffffffffffffffffffffffffffffffff1614610e4b576040517f08c379a0000000000000000000000000000000000000000000000000000000008152600401610e42906123b2565b60405180910390fd5b8160025f8581526020019081526020015f206004015f6101000a81548160ff021916908315150217905550827f22fcd0c181fefec176f74b8af4b0d73dde52a16a6127956654704b1b311193f260025f8681526020019081526020015f2060050154604051610eba9190612447565b60405180910390a26001905092915050565b5f610ed6846106cc565b610f15576040517f08c379a0000000000000000000000000000000000000000000000000000000008152600401610f0c9061234a565b60405180910390fd5b60025f8581526020019081526020015f20600601548310610f6b576040517f08c379a0000000000000000000000000000000000000000000000000000000008152600401610f629061241a565b60405180910390fd5b8160035f8681526020019081526020015f205f8581526020019081526020015f20600201541490509392505050565b6060610fa5836106cc565b610fe4576040517f08c379a0000000000000000000000000000000000000000000000000000000008152600401610fdb9061234a565b60405180910390fd5b610fee8333610b61565b61102d576040517f08c379a000000000000000000000000000000000000000000000000000000000815260040161102490612602565b60405180910390fd5b60025f8481526020019081526020015f20600601548210611083576040517f08c379a000000000000000000000000000000000000000000000000000000000815260040161107a9061241a565b60405180910390fd5b60405180602001604052805f815250905092915050565b5f6110a4826106cc565b6110e3576040517f08c379a00000000000000000000000000000000000000000000000000000000081526004016110da9061234a565b60405180910390fd5b60025f8381526020019081526020015f20600201549050919050565b5f61110f878787875f801b611680565b600190509695505050505050565b5f611127866106cc565b611166576040517f08c379a000000000000000000000000000000000000000000000000000000000815260040161115d9061234a565b60405180910390fd5b60025f8781526020019081526020015f206006015485106111bc576040517f08c379a00000000000000000000000000000000000000000000000000000000081526004016111b39061241a565b60405180910390fd5b5f60035f8881526020019081526020015f205f8781526020019081526020015f2090505f85856040516111f092919061265c565b604051809103902090505f801b8414611222578382600301541480156112195750808260020154145b9250505061122e565b80826002015414925050505b95945050505050565b5f6112458a8a8a8886611680565b600190509998505050505050505050565b5f611260826106cc565b61129f576040517f08c379a00000000000000000000000000000000000000000000000000000000081526004016112969061234a565b60405180910390fd5b60025f8381526020019081526020015f20600601549050919050565b6112c3611538565b5f73ffffffffffffffffffffffffffffffffffffffff168173ffffffffffffffffffffffffffffffffffffffff1603611333575f6040517f1e4fbdf700000000000000000000000000000000000000000000000000000000815260040161132a9190611fc7565b60405180910390fd5b61133c816115bf565b50565b611348856106cc565b611387576040517f08c379a000000000000000000000000000000000000000000000000000000000815260040161137e9061234a565b60405180910390fd5b6113918533610b61565b6113d0576040517f08c379a00000000000000000000000000000000000000000000000000000000081526004016113c790612602565b60405180910390fd5b62100000838390501115611419576040517f08c379a0000000000000000000000000000000000000000000000000000000008152600401611410906126be565b60405180910390fd5b60025f8681526020019081526020015f2060060154841061146f576040517f08c379a00000000000000000000000000000000000000000000000000000000081526004016114669061241a565b60405180910390fd5b5f838360405161148092919061265c565b6040518091039020905060405180608001604052808681526020018585905081526020018281526020018381525060035f8881526020019081526020015f205f8781526020019081526020015f205f820151815f015560208201518160010155604082015181600201556060820151816003015590505084867f094a77d760348eb6b0079a077b9c0a33cb2a9381fedcf68792ed2d6356c97cf0836040516115289190612447565b60405180910390a3505050505050565b611540611938565b73ffffffffffffffffffffffffffffffffffffffff1661155e610d3a565b73ffffffffffffffffffffffffffffffffffffffff16146115bd57611581611938565b6040517f118cdaa70000000000000000000000000000000000000000000000000000000081526004016115b49190611fc7565b60405180910390fd5b565b5f805f9054906101000a900473ffffffffffffffffffffffffffffffffffffffff169050815f806101000a81548173ffffffffffffffffffffffffffffffffffffffff021916908373ffffffffffffffffffffffffffffffffffffffff1602179055508173ffffffffffffffffffffffffffffffffffffffff168173ffffffffffffffffffffffffffffffffffffffff167f8be0079c531659141344cd1fd0a4f28419497f9722a3daafe3b4186f6b6457e060405160405180910390a35050565b5f84118015611693575063400000008411155b6116d2576040517f08c379a00000000000000000000000000000000000000000000000000000000081526004016116c990612726565b60405180910390fd5b5f8311611714576040517f08c379a000000000000000000000000000000000000000000000000000000000815260040161170b9061278e565b60405180910390fd5b61171d856106cc565b1561175d576040517f08c379a0000000000000000000000000000000000000000000000000000000008152600401611754906127f6565b60405180910390fd5b6040518061010001604052808681526020013373ffffffffffffffffffffffffffffffffffffffff16815260200185815260200142815260200183151581526020018281526020018481526020016001151581525060025f8781526020019081526020015f205f820151815f01556020820151816001015f6101000a81548173ffffffffffffffffffffffffffffffffffffffff021916908373ffffffffffffffffffffffffffffffffffffffff16021790555060408201518160020155606082015181600301556080820151816004015f6101000a81548160ff02191690831515021790555060a0820151816005015560c0820151816006015560e0820151816007015f6101000a81548160ff021916908315150217905550905050600160045f8781526020019081526020015f205f3373ffffffffffffffffffffffffffffffffffffffff1673ffffffffffffffffffffffffffffffffffffffff1681526020019081526020015f205f6101000a81548160ff0219169083151502179055503373ffffffffffffffffffffffffffffffffffffffff16857fced668f5fd2030036609937f5e7254bf8e9fe5dc7ae3e9efb3b53d5fd1081e5e86868660405161192993929190612814565b60405180910390a35050505050565b5f33905090565b60405180608001604052805f81526020015f81526020015f80191681526020015f80191681525090565b6040518061010001604052805f80191681526020015f73ffffffffffffffffffffffffffffffffffffffff1681526020015f81526020015f81526020015f151581526020015f80191681526020015f81526020015f151581525090565b5f80fd5b5f80fd5b5f819050919050565b6119e0816119ce565b81146119ea575f80fd5b50565b5f813590506119fb816119d7565b92915050565b5f60208284031215611a1657611a156119c6565b5b5f611a23848285016119ed565b91505092915050565b5f8115159050919050565b611a4081611a2c565b82525050565b5f602082019050611a595f830184611a37565b92915050565b5f819050919050565b611a7181611a5f565b8114611a7b575f80fd5b50565b5f81359050611a8c81611a68565b92915050565b5f8060408385031215611aa857611aa76119c6565b5b5f611ab5858286016119ed565b9250506020611ac685828601611a7e565b9150509250929050565b611ad981611a5f565b82525050565b611ae8816119ce565b82525050565b608082015f820151611b025f850182611ad0565b506020820151611b156020850182611ad0565b506040820151611b286040850182611adf565b506060820151611b3b6060850182611adf565b50505050565b5f608082019050611b545f830184611aee565b92915050565b611b6381611a5f565b82525050565b5f602082019050611b7c5f830184611b5a565b92915050565b5f8060408385031215611b9857611b976119c6565b5b5f611ba5858286016119ed565b9250506020611bb6858286016119ed565b9150509250929050565b5f80fd5b5f80fd5b5f80fd5b5f8083601f840112611be157611be0611bc0565b5b8235905067ffffffffffffffff811115611bfe57611bfd611bc4565b5b602083019150836001820283011115611c1a57611c19611bc8565b5b9250929050565b611c2a81611a2c565b8114611c34575f80fd5b50565b5f81359050611c4581611c21565b92915050565b5f805f805f60808688031215611c6457611c636119c6565b5b5f611c71888289016119ed565b9550506020611c8288828901611a7e565b945050604086013567ffffffffffffffff811115611ca357611ca26119ca565b5b611caf88828901611bcc565b93509350506060611cc288828901611c37565b9150509295509295909350565b5f73ffffffffffffffffffffffffffffffffffffffff82169050919050565b5f611cf882611ccf565b9050919050565b611d0881611cee565b82525050565b611d1781611a2c565b82525050565b61010082015f820151611d325f850182611adf565b506020820151611d456020850182611cff565b506040820151611d586040850182611ad0565b506060820151611d6b6060850182611ad0565b506080820151611d7e6080850182611d0e565b5060a0820151611d9160a0850182611adf565b5060c0820151611da460c0850182611ad0565b5060e0820151611db760e0850182611d0e565b50505050565b5f61010082019050611dd15f830184611d1d565b92915050565b5f805f8060608587031215611def57611dee6119c6565b5b5f611dfc878288016119ed565b9450506020611e0d87828801611a7e565b935050604085013567ffffffffffffffff811115611e2e57611e2d6119ca565b5b611e3a87828801611bcc565b925092505092959194509250565b5f805f805f60808688031215611e6157611e606119c6565b5b5f611e6e888289016119ed565b9550506020611e7f88828901611a7e565b945050604086013567ffffffffffffffff811115611ea057611e9f6119ca565b5b611eac88828901611bcc565b93509350506060611ebf888289016119ed565b9150509295509295909350565b5f805f805f60808688031215611ee557611ee46119c6565b5b5f611ef2888289016119ed565b955050602086013567ffffffffffffffff811115611f1357611f126119ca565b5b611f1f88828901611bcc565b94509450506040611f3288828901611c37565b9250506060611f43888289016119ed565b9150509295509295909350565b611f5981611cee565b8114611f63575f80fd5b50565b5f81359050611f7481611f50565b92915050565b5f8060408385031215611f9057611f8f6119c6565b5b5f611f9d858286016119ed565b9250506020611fae85828601611f66565b9150509250929050565b611fc181611cee565b82525050565b5f602082019050611fda5f830184611fb8565b92915050565b5f8060408385031215611ff657611ff56119c6565b5b5f612003858286016119ed565b925050602061201485828601611c37565b9150509250929050565b5f805f60608486031215612035576120346119c6565b5b5f612042868287016119ed565b935050602061205386828701611a7e565b9250506040612064868287016119ed565b9150509250925092565b5f81519050919050565b5f82825260208201905092915050565b8281835e5f83830152505050565b5f601f19601f8301169050919050565b5f6120b08261206e565b6120ba8185612078565b93506120ca818560208601612088565b6120d381612096565b840191505092915050565b5f6020820190508181035f8301526120f681846120a6565b905092915050565b5f8083601f84011261211357612112611bc0565b5b8235905067ffffffffffffffff8111156121305761212f611bc4565b5b60208301915083600182028301111561214c5761214b611bc8565b5b9250929050565b5f805f805f8060a0878903121561216d5761216c6119c6565b5b5f61217a89828a016119ed565b965050602061218b89828a01611a7e565b955050604061219c89828a01611a7e565b94505060606121ad89828a01611c37565b935050608087013567ffffffffffffffff8111156121ce576121cd6119ca565b5b6121da89828a016120fe565b92509250509295509295509295565b5f805f805f805f805f60e08a8c031215612206576122056119c6565b5b5f6122138c828d016119ed565b99505060206122248c828d01611a7e565b98505060406122358c828d01611a7e565b97505060608a013567ffffffffffffffff811115612256576122556119ca565b5b6122628c828d016120fe565b965096505060806122758c828d01611c37565b94505060a08a013567ffffffffffffffff811115612296576122956119ca565b5b6122a28c828d016120fe565b935093505060c06122b58c828d016119ed565b9150509295985092959850929598565b5f602082840312156122da576122d96119c6565b5b5f6122e784828501611f66565b91505092915050565b5f82825260208201905092915050565b7f46696c65206e6f7420666f756e640000000000000000000000000000000000005f82015250565b5f612334600e836122f0565b915061233f82612300565b602082019050919050565b5f6020820190508181035f83015261236181612328565b9050919050565b7f4e6f74206f776e657200000000000000000000000000000000000000000000005f82015250565b5f61239c6009836122f0565b91506123a782612368565b602082019050919050565b5f6020820190508181035f8301526123c981612390565b9050919050565b7f496e76616c6964206368756e6b20696e646578000000000000000000000000005f82015250565b5f6124046013836122f0565b915061240f826123d0565b602082019050919050565b5f6020820190508181035f830152612431816123f8565b9050919050565b612441816119ce565b82525050565b5f60208201905061245a5f830184612438565b92915050565b7f46696c6520746f6f206c617267650000000000000000000000000000000000005f82015250565b5f612494600e836122f0565b915061249f82612460565b602082019050919050565b5f6020820190508181035f8301526124c181612488565b9050919050565b7f4e487b71000000000000000000000000000000000000000000000000000000005f52601160045260245ffd5b5f6124ff82611a5f565b915061250a83611a5f565b9250828201905080821115612522576125216124c8565b5b92915050565b5f61253282611a5f565b915061253d83611a5f565b9250828203905081811115612555576125546124c8565b5b92915050565b7f4e487b71000000000000000000000000000000000000000000000000000000005f52601260045260245ffd5b5f61259282611a5f565b915061259d83611a5f565b9250826125ad576125ac61255b565b5b828204905092915050565b7f4e6f2061636365737300000000000000000000000000000000000000000000005f82015250565b5f6125ec6009836122f0565b91506125f7826125b8565b602082019050919050565b5f6020820190508181035f830152612619816125e0565b9050919050565b5f81905092915050565b828183375f83830152505050565b5f6126438385612620565b935061265083858461262a565b82840190509392505050565b5f612668828486612638565b91508190509392505050565b7f4368756e6b20746f6f206c6172676500000000000000000000000000000000005f82015250565b5f6126a8600f836122f0565b91506126b382612674565b602082019050919050565b5f6020820190508181035f8301526126d58161269c565b9050919050565b7f496e76616c69642066696c652073697a650000000000000000000000000000005f82015250565b5f6127106011836122f0565b915061271b826126dc565b602082019050919050565b5f6020820190508181035f83015261273d81612704565b9050919050565b7f496e76616c6964206368756e6b20636f756e74000000000000000000000000005f82015250565b5f6127786013836122f0565b915061278382612744565b602082019050919050565b5f6020820190508181035f8301526127a58161276c565b9050919050565b7f46696c6520616c726561647920657869737473000000000000000000000000005f82015250565b5f6127e06013836122f0565b91506127eb826127ac565b602082019050919050565b5f6020820190508181035f83015261280d816127d4565b9050919050565b5f6060820190506128275f830186611b5a565b6128346020830185611b5a565b6128416040830184611a37565b94935050505056fea26469706673582212204249827eae048fc7f4adfbee6d2aa27cb80f0f59eedc98ece5bb34a6dd9e9e9964736f6c634300081a0033",
			"opcodes": "PUSH1 0x80 PUSH1 0x40 MSTORE CALLVALUE DUP1 ISZERO PUSH2 0xF JUMPI PUSH0 DUP1 REVERT JUMPDEST POP PUSH1 0x40 MLOAD PUSH2 0x2ABD CODESIZE SUB DUP1 PUSH2 0x2ABD DUP4 CODECOPY DUP2 DUP2 ADD PUSH1 0x40 MSTORE DUP2 ADD SWAP1 PUSH2 0x31 SWAP2 SWAP1 PUSH2 0x1DE JUMP JUMPDEST DUP1 PUSH0 PUSH20 0xFFFFFFFFFFFFFFFFFFFFFFFFFFFFFFFFFFFFFFFF AND DUP2 PUSH20 0xFFFFFFFFFFFFFFFFFFFFFFFFFFFFFFFFFFFFFFFF AND SUB PUSH2 0xA2 JUMPI PUSH0 PUSH1 0x40 MLOAD PUSH32 0x1E4FBDF700000000000000000000000000000000000000000000000000000000 DUP2 MSTORE PUSH1 0x4 ADD PUSH2 0x99 SWAP2 SWAP1 PUSH2 0x218 JUMP JUMPDEST PUSH1 0x40 MLOAD DUP1 SWAP2 SUB SWAP1 REVERT JUMPDEST PUSH2 0xB1 DUP2 PUSH2 0xBF PUSH1 0x20 SHL PUSH1 0x20 SHR JUMP JUMPDEST POP PUSH1 0x1 DUP1 DUP2 SWAP1 SSTORE POP POP PUSH2 0x231 JUMP JUMPDEST PUSH0 DUP1 PUSH0 SWAP1 SLOAD SWAP1 PUSH2 0x100 EXP SWAP1 DIV PUSH20 0xFFFFFFFFFFFFFFFFFFFFFFFFFFFFFFFFFFFFFFFF AND SWAP1 POP DUP2 PUSH0 DUP1 PUSH2 0x100 EXP DUP2 SLOAD DUP2 PUSH20 0xFFFFFFFFFFFFFFFFFFFFFFFFFFFFFFFFFFFFFFFF MUL NOT AND SWAP1 DUP4 PUSH20 0xFFFFFFFFFFFFFFFFFFFFFFFFFFFFFFFFFFFFFFFF AND MUL OR SWAP1 SSTORE POP DUP2 PUSH20 0xFFFFFFFFFFFFFFFFFFFFFFFFFFFFFFFFFFFFFFFF AND DUP2 PUSH20 0xFFFFFFFFFFFFFFFFFFFFFFFFFFFFFFFFFFFFFFFF AND PUSH32 0x8BE0079C531659141344CD1FD0A4F28419497F9722A3DAAFE3B4186F6B6457E0 PUSH1 0x40 MLOAD PUSH1 0x40 MLOAD DUP1 SWAP2 SUB SWAP1 LOG3 POP POP JUMP JUMPDEST PUSH0 DUP1 REVERT JUMPDEST PUSH0 PUSH20 0xFFFFFFFFFFFFFFFFFFFFFFFFFFFFFFFFFFFFFFFF DUP3 AND SWAP1 POP SWAP2 SWAP1 POP JUMP JUMPDEST PUSH0 PUSH2 0x1AD DUP3 PUSH2 0x184 JUMP JUMPDEST SWAP1 POP SWAP2 SWAP1 POP JUMP JUMPDEST PUSH2 0x1BD DUP2 PUSH2 0x1A3 JUMP JUMPDEST DUP2 EQ PUSH2 0x1C7 JUMPI PUSH0 DUP1 REVERT JUMPDEST POP JUMP JUMPDEST PUSH0 DUP2 MLOAD SWAP1 POP PUSH2 0x1D8 DUP2 PUSH2 0x1B4 JUMP JUMPDEST SWAP3 SWAP2 POP POP JUMP JUMPDEST PUSH0 PUSH1 0x20 DUP3 DUP5 SUB SLT ISZERO PUSH2 0x1F3 JUMPI PUSH2 0x1F2 PUSH2 0x180 JUMP JUMPDEST JUMPDEST PUSH0 PUSH2 0x200 DUP5 DUP3 DUP6 ADD PUSH2 0x1CA JUMP JUMPDEST SWAP2 POP POP SWAP3 SWAP2 POP POP JUMP JUMPDEST PUSH2 0x212 DUP2 PUSH2 0x1A3 JUMP JUMPDEST DUP3 MSTORE POP POP JUMP JUMPDEST PUSH0 PUSH1 0x20 DUP3 ADD SWAP1 POP PUSH2 0x22B PUSH0 DUP4 ADD DUP5 PUSH2 0x209 JUMP JUMPDEST SWAP3 SWAP2 POP POP JUMP JUMPDEST PUSH2 0x287F DUP1 PUSH2 0x23E PUSH0 CODECOPY PUSH0 RETURN INVALID PUSH1 0x80 PUSH1 0x40 MSTORE CALLVALUE DUP1 ISZERO PUSH2 0xF JUMPI PUSH0 DUP1 REVERT JUMPDEST POP PUSH1 0x4 CALLDATASIZE LT PUSH2 0x156 JUMPI PUSH0 CALLDATALOAD PUSH1 0xE0 SHR DUP1 PUSH4 0x83177DB3 GT PUSH2 0xC1 JUMPI DUP1 PUSH4 0xD3BB8B96 GT PUSH2 0x7A JUMPI DUP1 PUSH4 0xD3BB8B96 EQ PUSH2 0x40E JUMPI DUP1 PUSH4 0xD4838061 EQ PUSH2 0x43E JUMPI DUP1 PUSH4 0xD88EEDF6 EQ PUSH2 0x46E JUMPI DUP1 PUSH4 0xDAFC9FC1 EQ PUSH2 0x49E JUMPI DUP1 PUSH4 0xF292671B EQ PUSH2 0x4CE JUMPI DUP1 PUSH4 0xF2FDE38B EQ PUSH2 0x4FE JUMPI PUSH2 0x156 JUMP JUMPDEST DUP1 PUSH4 0x83177DB3 EQ PUSH2 0x300 JUMPI DUP1 PUSH4 0x87EBBF67 EQ PUSH2 0x330 JUMPI DUP1 PUSH4 0x8DA5CB5B EQ PUSH2 0x360 JUMPI DUP1 PUSH4 0xA4F39329 EQ PUSH2 0x37E JUMPI DUP1 PUSH4 0xAB2CBCB3 EQ PUSH2 0x3AE JUMPI DUP1 PUSH4 0xD2B18B60 EQ PUSH2 0x3DE JUMPI PUSH2 0x156 JUMP JUMPDEST DUP1 PUSH4 0x5A9BAF37 GT PUSH2 0x113 JUMPI DUP1 PUSH4 0x5A9BAF37 EQ PUSH2 0x240 JUMPI DUP1 PUSH4 0x65F35371 EQ PUSH2 0x25E JUMPI DUP1 PUSH4 0x6A2B0518 EQ PUSH2 0x28E JUMPI DUP1 PUSH4 0x6E2D7D38 EQ PUSH2 0x2BE JUMPI DUP1 PUSH4 0x715018A6 EQ PUSH2 0x2DA JUMPI DUP1 PUSH4 0x760FC7B8 EQ PUSH2 0x2E4 JUMPI PUSH2 0x156 JUMP JUMPDEST DUP1 PUSH4 0xBEF429B EQ PUSH2 0x15A JUMPI DUP1 PUSH4 0xCEC5F62 EQ PUSH2 0x176 JUMPI DUP1 PUSH4 0x2A4D4280 EQ PUSH2 0x1A6 JUMPI DUP1 PUSH4 0x2F0E14FB EQ PUSH2 0x1D6 JUMPI DUP1 PUSH4 0x49385399 EQ PUSH2 0x1F4 JUMPI DUP1 PUSH4 0x4D73269C EQ PUSH2 0x210 JUMPI JUMPDEST PUSH0 DUP1 REVERT JUMPDEST PUSH2 0x174 PUSH1 0x4 DUP1 CALLDATASIZE SUB DUP2 ADD SWAP1 PUSH2 0x16F SWAP2 SWAP1 PUSH2 0x1A01 JUMP JUMPDEST PUSH2 0x51A JUMP JUMPDEST STOP JUMPDEST PUSH2 0x190 PUSH1 0x4 DUP1 CALLDATASIZE SUB DUP2 ADD SWAP1 PUSH2 0x18B SWAP2 SWAP1 PUSH2 0x1A01 JUMP JUMPDEST PUSH2 0x6CC JUMP JUMPDEST PUSH1 0x40 MLOAD PUSH2 0x19D SWAP2 SWAP1 PUSH2 0x1A46 JUMP JUMPDEST PUSH1 0x40 MLOAD DUP1 SWAP2 SUB SWAP1 RETURN JUMPDEST PUSH2 0x1C0 PUSH1 0x4 DUP1 CALLDATASIZE SUB DUP2 ADD SWAP1 PUSH2 0x1BB SWAP2 SWAP1 PUSH2 0x1A92 JUMP JUMPDEST PUSH2 0x6F5 JUMP JUMPDEST PUSH1 0x40 MLOAD PUSH2 0x1CD SWAP2 SWAP1 PUSH2 0x1B41 JUMP JUMPDEST PUSH1 0x40 MLOAD DUP1 SWAP2 SUB SWAP1 RETURN JUMPDEST PUSH2 0x1DE PUSH2 0x7F5 JUMP JUMPDEST PUSH1 0x40 MLOAD PUSH2 0x1EB SWAP2 SWAP1 PUSH2 0x1B69 JUMP JUMPDEST PUSH1 0x40 MLOAD DUP1 SWAP2 SUB SWAP1 RETURN JUMPDEST PUSH2 0x20E PUSH1 0x4 DUP1 CALLDATASIZE SUB DUP2 ADD SWAP1 PUSH2 0x209 SWAP2 SWAP1 PUSH2 0x1B82 JUMP JUMPDEST PUSH2 0x7FC JUMP JUMPDEST STOP JUMPDEST PUSH2 0x22A PUSH1 0x4 DUP1 CALLDATASIZE SUB DUP2 ADD SWAP1 PUSH2 0x225 SWAP2 SWAP1 PUSH2 0x1C4B JUMP JUMPDEST PUSH2 0x93A JUMP JUMPDEST PUSH1 0x40 MLOAD PUSH2 0x237 SWAP2 SWAP1 PUSH2 0x1A46 JUMP JUMPDEST PUSH1 0x40 MLOAD DUP1 SWAP2 SUB SWAP1 RETURN JUMPDEST PUSH2 0x248 PUSH2 0x957 JUMP JUMPDEST PUSH1 0x40 MLOAD PUSH2 0x255 SWAP2 SWAP1 PUSH2 0x1B69 JUMP JUMPDEST PUSH1 0x40 MLOAD DUP1 SWAP2 SUB SWAP1 RETURN JUMPDEST PUSH2 0x278 PUSH1 0x4 DUP1 CALLDATASIZE SUB DUP2 ADD SWAP1 PUSH2 0x273 SWAP2 SWAP1 PUSH2 0x1A01 JUMP JUMPDEST PUSH2 0x95F JUMP JUMPDEST PUSH1 0x40 MLOAD PUSH2 0x285 SWAP2 SWAP1 PUSH2 0x1DBD JUMP JUMPDEST PUSH1 0x40 MLOAD DUP1 SWAP2 SUB SWAP1 RETURN JUMPDEST PUSH2 0x2A8 PUSH1 0x4 DUP1 CALLDATASIZE SUB DUP2 ADD SWAP1 PUSH2 0x2A3 SWAP2 SWAP1 PUSH2 0x1DD7 JUMP JUMPDEST PUSH2 0xA8D JUMP JUMPDEST PUSH1 0x40 MLOAD PUSH2 0x2B5 SWAP2 SWAP1 PUSH2 0x1A46 JUMP JUMPDEST PUSH1 0x40 MLOAD DUP1 SWAP2 SUB SWAP1 RETURN JUMPDEST PUSH2 0x2D8 PUSH1 0x4 DUP1 CALLDATASIZE SUB DUP2 ADD SWAP1 PUSH2 0x2D3 SWAP2 SWAP1 PUSH2 0x1E48 JUMP JUMPDEST PUSH2 0xAA9 JUMP JUMPDEST STOP JUMPDEST PUSH2 0x2E2 PUSH2 0xABD JUMP JUMPDEST STOP JUMPDEST PUSH2 0x2FE PUSH1 0x4 DUP1 CALLDATASIZE SUB DUP2 ADD SWAP1 PUSH2 0x2F9 SWAP2 SWAP1 PUSH2 0x1ECC JUMP JUMPDEST PUSH2 0xAD0 JUMP JUMPDEST STOP JUMPDEST PUSH2 0x31A PUSH1 0x4 DUP1 CALLDATASIZE SUB DUP2 ADD SWAP1 PUSH2 0x315 SWAP2 SWAP1 PUSH2 0x1F7A JUMP JUMPDEST PUSH2 0xB61 JUMP JUMPDEST PUSH1 0x40 MLOAD PUSH2 0x327 SWAP2 SWAP1 PUSH2 0x1A46 JUMP JUMPDEST PUSH1 0x40 MLOAD DUP1 SWAP2 SUB SWAP1 RETURN JUMPDEST PUSH2 0x34A PUSH1 0x4 DUP1 CALLDATASIZE SUB DUP2 ADD SWAP1 PUSH2 0x345 SWAP2 SWAP1 PUSH2 0x1A01 JUMP JUMPDEST PUSH2 0xBC3 JUMP JUMPDEST PUSH1 0x40 MLOAD PUSH2 0x357 SWAP2 SWAP1 PUSH2 0x1DBD JUMP JUMPDEST PUSH1 0x40 MLOAD DUP1 SWAP2 SUB SWAP1 RETURN JUMPDEST PUSH2 0x368 PUSH2 0xD3A JUMP JUMPDEST PUSH1 0x40 MLOAD PUSH2 0x375 SWAP2 SWAP1 PUSH2 0x1FC7 JUMP JUMPDEST PUSH1 0x40 MLOAD DUP1 SWAP2 SUB SWAP1 RETURN JUMPDEST PUSH2 0x398 PUSH1 0x4 DUP1 CALLDATASIZE SUB DUP2 ADD SWAP1 PUSH2 0x393 SWAP2 SWAP1 PUSH2 0x1FE0 JUMP JUMPDEST PUSH2 0xD61 JUMP JUMPDEST PUSH1 0x40 MLOAD PUSH2 0x3A5 SWAP2 SWAP1 PUSH2 0x1A46 JUMP JUMPDEST PUSH1 0x40 MLOAD DUP1 SWAP2 SUB SWAP1 RETURN JUMPDEST PUSH2 0x3C8 PUSH1 0x4 DUP1 CALLDATASIZE SUB DUP2 ADD SWAP1 PUSH2 0x3C3 SWAP2 SWAP1 PUSH2 0x201E JUMP JUMPDEST PUSH2 0xECC JUMP JUMPDEST PUSH1 0x40 MLOAD PUSH2 0x3D5 SWAP2 SWAP1 PUSH2 0x1A46 JUMP JUMPDEST PUSH1 0x40 MLOAD DUP1 SWAP2 SUB SWAP1 RETURN JUMPDEST PUSH2 0x3F8 PUSH1 0x4 DUP1 CALLDATASIZE SUB DUP2 ADD SWAP1 PUSH2 0x3F3 SWAP2 SWAP1 PUSH2 0x1A92 JUMP JUMPDEST PUSH2 0xF9A JUMP JUMPDEST PUSH1 0x40 MLOAD PUSH2 0x405 SWAP2 SWAP1 PUSH2 0x20DE JUMP JUMPDEST PUSH1 0x40 MLOAD DUP1 SWAP2 SUB SWAP1 RETURN JUMPDEST PUSH2 0x428 PUSH1 0x4 DUP1 CALLDATASIZE SUB DUP2 ADD SWAP1 PUSH2 0x423 SWAP2 SWAP1 PUSH2 0x1A01 JUMP JUMPDEST PUSH2 0x109A JUMP JUMPDEST PUSH1 0x40 MLOAD PUSH2 0x435 SWAP2 SWAP1 PUSH2 0x1B69 JUMP JUMPDEST PUSH1 0x40 MLOAD DUP1 SWAP2 SUB SWAP1 RETURN JUMPDEST PUSH2 0x458 PUSH1 0x4 DUP1 CALLDATASIZE SUB DUP2 ADD SWAP1 PUSH2 0x453 SWAP2 SWAP1 PUSH2 0x2153 JUMP JUMPDEST PUSH2 0x10FF JUMP JUMPDEST PUSH1 0x40 MLOAD PUSH2 0x465 SWAP2 SWAP1 PUSH2 0x1A46 JUMP JUMPDEST PUSH1 0x40 MLOAD DUP1 SWAP2 SUB SWAP1 RETURN JUMPDEST PUSH2 0x488 PUSH1 0x4 DUP1 CALLDATASIZE SUB DUP2 ADD SWAP1 PUSH2 0x483 SWAP2 SWAP1 PUSH2 0x1E48 JUMP JUMPDEST PUSH2 0x111D JUMP JUMPDEST PUSH1 0x40 MLOAD PUSH2 0x495 SWAP2 SWAP1 PUSH2 0x1A46 JUMP JUMPDEST PUSH1 0x40 MLOAD DUP1 SWAP2 SUB SWAP1 RETURN JUMPDEST PUSH2 0x4B8 PUSH1 0x4 DUP1 CALLDATASIZE SUB DUP2 ADD SWAP1 PUSH2 0x4B3 SWAP2 SWAP1 PUSH2 0x21E9 JUMP JUMPDEST PUSH2 0x1237 JUMP JUMPDEST PUSH1 0x40 MLOAD PUSH2 0x4C5 SWAP2 SWAP1 PUSH2 0x1A46 JUMP JUMPDEST PUSH1 0x40 MLOAD DUP1 SWAP2 SUB SWAP1 RETURN JUMPDEST PUSH2 0x4E8 PUSH1 0x4 DUP1 CALLDATASIZE SUB DUP2 ADD SWAP1 PUSH2 0x4E3 SWAP2 SWAP1 PUSH2 0x1A01 JUMP JUMPDEST PUSH2 0x1256 JUMP JUMPDEST PUSH1 0x40 MLOAD PUSH2 0x4F5 SWAP2 SWAP1 PUSH2 0x1B69 JUMP JUMPDEST PUSH1 0x40 MLOAD DUP1 SWAP2 SUB SWAP1 RETURN JUMPDEST PUSH2 0x518 PUSH1 0x4 DUP1 CALLDATASIZE SUB DUP2 ADD SWAP1 PUSH2 0x513 SWAP2 SWAP1 PUSH2 0x22C5 JUMP JUMPDEST PUSH2 0x12BB JUMP JUMPDEST STOP JUMPDEST PUSH2 0x523 DUP2 PUSH2 0x6CC JUMP JUMPDEST PUSH2 0x562 JUMPI PUSH1 0x40 MLOAD PUSH32 0x8C379A000000000000000000000000000000000000000000000000000000000 DUP2 MSTORE PUSH1 0x4 ADD PUSH2 0x559 SWAP1 PUSH2 0x234A JUMP JUMPDEST PUSH1 0x40 MLOAD DUP1 SWAP2 SUB SWAP1 REVERT JUMPDEST CALLER PUSH20 0xFFFFFFFFFFFFFFFFFFFFFFFFFFFFFFFFFFFFFFFF AND PUSH1 0x2 PUSH0 DUP4 DUP2 MSTORE PUSH1 0x20 ADD SWAP1 DUP2 MSTORE PUSH1 0x20 ADD PUSH0 KECCAK256 PUSH1 0x1 ADD PUSH0 SWAP1 SLOAD SWAP1 PUSH2 0x100 EXP SWAP1 DIV PUSH20 0xFFFFFFFFFFFFFFFFFFFFFFFFFFFFFFFFFFFFFFFF AND PUSH20 0xFFFFFFFFFFFFFFFFFFFFFFFFFFFFFFFFFFFFFFFF AND EQ PUSH2 0x603 JUMPI PUSH1 0x40 MLOAD PUSH32 0x8C379A000000000000000000000000000000000000000000000000000000000 DUP2 MSTORE PUSH1 0x4 ADD PUSH2 0x5FA SWAP1 PUSH2 0x23B2 JUMP JUMPDEST PUSH1 0x40 MLOAD DUP1 SWAP2 SUB SWAP1 REVERT JUMPDEST PUSH1 0x2 PUSH0 DUP3 DUP2 MSTORE PUSH1 0x20 ADD SWAP1 DUP2 MSTORE PUSH1 0x20 ADD PUSH0 KECCAK256 PUSH0 DUP1 DUP3 ADD PUSH0 SWAP1 SSTORE PUSH1 0x1 DUP3 ADD PUSH0 PUSH2 0x100 EXP DUP2 SLOAD SWAP1 PUSH20 0xFFFFFFFFFFFFFFFFFFFFFFFFFFFFFFFFFFFFFFFF MUL NOT AND SWAP1 SSTORE PUSH1 0x2 DUP3 ADD PUSH0 SWAP1 SSTORE PUSH1 0x3 DUP3 ADD PUSH0 SWAP1 SSTORE PUSH1 0x4 DUP3 ADD PUSH0 PUSH2 0x100 EXP DUP2 SLOAD SWAP1 PUSH1 0xFF MUL NOT AND SWAP1 SSTORE PUSH1 0x5 DUP3 ADD PUSH0 SWAP1 SSTORE PUSH1 0x6 DUP3 ADD PUSH0 SWAP1 SSTORE PUSH1 0x7 DUP3 ADD PUSH0 PUSH2 0x100 EXP DUP2 SLOAD SWAP1 PUSH1 0xFF MUL NOT AND SWAP1 SSTORE POP POP CALLER PUSH20 0xFFFFFFFFFFFFFFFFFFFFFFFFFFFFFFFFFFFFFFFF AND DUP2 PUSH32 0x7BE12496AE22D3D9A9E65382C3ECFE9066F06C542A3A22DD9C9C2DEB159DE645 PUSH1 0x40 MLOAD PUSH1 0x40 MLOAD DUP1 SWAP2 SUB SWAP1 LOG3 POP JUMP JUMPDEST PUSH0 PUSH1 0x2 PUSH0 DUP4 DUP2 MSTORE PUSH1 0x20 ADD SWAP1 DUP2 MSTORE PUSH1 0x20 ADD PUSH0 KECCAK256 PUSH1 0x7 ADD PUSH0 SWAP1 SLOAD SWAP1 PUSH2 0x100 EXP SWAP1 DIV PUSH1 0xFF AND SWAP1 POP SWAP2 SWAP1 POP JUMP JUMPDEST PUSH2 0x6FD PUSH2 0x193F JUMP JUMPDEST PUSH2 0x706 DUP4 PUSH2 0x6CC JUMP JUMPDEST PUSH2 0x745 JUMPI PUSH1 0x40 MLOAD PUSH32 0x8C379A000000000000000000000000000000000000000000000000000000000 DUP2 MSTORE PUSH1 0x4 ADD PUSH2 0x73C SWAP1 PUSH2 0x234A JUMP JUMPDEST PUSH1 0x40 MLOAD DUP1 SWAP2 SUB SWAP1 REVERT JUMPDEST PUSH1 0x2 PUSH0 DUP5 DUP2 MSTORE PUSH1 0x20 ADD SWAP1 DUP2 MSTORE PUSH1 0x20 ADD PUSH0 KECCAK256 PUSH1 0x6 ADD SLOAD DUP3 LT PUSH2 0x79B JUMPI PUSH1 0x40 MLOAD PUSH32 0x8C379A000000000000000000000000000000000000000000000000000000000 DUP2 MSTORE PUSH1 0x4 ADD PUSH2 0x792 SWAP1 PUSH2 0x241A JUMP JUMPDEST PUSH1 0x40 MLOAD DUP1 SWAP2 SUB SWAP1 REVERT JUMPDEST PUSH1 0x3 PUSH0 DUP5 DUP2 MSTORE PUSH1 0x20 ADD SWAP1 DUP2 MSTORE PUSH1 0x20 ADD PUSH0 KECCAK256 PUSH0 DUP4 DUP2 MSTORE PUSH1 0x20 ADD SWAP1 DUP2 MSTORE PUSH1 0x20 ADD PUSH0 KECCAK256 PUSH1 0x40 MLOAD DUP1 PUSH1 0x80 ADD PUSH1 0x40 MSTORE SWAP1 DUP2 PUSH0 DUP3 ADD SLOAD DUP2 MSTORE PUSH1 0x20 ADD PUSH1 0x1 DUP3 ADD SLOAD DUP2 MSTORE PUSH1 0x20 ADD PUSH1 0x2 DUP3 ADD SLOAD DUP2 MSTORE PUSH1 0x20 ADD PUSH1 0x3 DUP3 ADD SLOAD DUP2 MSTORE POP POP SWAP1 POP SWAP3 SWAP2 POP POP JUMP JUMPDEST PUSH3 0x100000 DUP2 JUMP JUMPDEST PUSH2 0x805 DUP3 PUSH2 0x6CC JUMP JUMPDEST PUSH2 0x844 JUMPI PUSH1 0x40 MLOAD PUSH32 0x8C379A000000000000000000000000000000000000000000000000000000000 DUP2 MSTORE PUSH1 0x4 ADD PUSH2 0x83B SWAP1 PUSH2 0x234A JUMP JUMPDEST PUSH1 0x40 MLOAD DUP1 SWAP2 SUB SWAP1 REVERT JUMPDEST CALLER PUSH20 0xFFFFFFFFFFFFFFFFFFFFFFFFFFFFFFFFFFFFFFFF AND PUSH1 0x2 PUSH0 DUP5 DUP2 MSTORE PUSH1 0x20 ADD SWAP1 DUP2 MSTORE PUSH1 0x20 ADD PUSH0 KECCAK256 PUSH1 0x1 ADD PUSH0 SWAP1 SLOAD SWAP1 PUSH2 0x100 EXP SWAP1 DIV PUSH20 0xFFFFFFFFFFFFFFFFFFFFFFFFFFFFFFFFFFFFFFFF AND PUSH20 0xFFFFFFFFFFFFFFFFFFFFFFFFFFFFFFFFFFFFFFFF AND EQ PUSH2 0x8E5 JUMPI PUSH1 0x40 MLOAD PUSH32 0x8C379A000000000000000000000000000000000000000000000000000000000 DUP2 MSTORE PUSH1 0x4 ADD PUSH2 0x8DC SWAP1 PUSH2 0x23B2 JUMP JUMPDEST PUSH1 0x40 MLOAD DUP1 SWAP2 SUB SWAP1 REVERT JUMPDEST DUP1 PUSH1 0x2 PUSH0 DUP5 DUP2 MSTORE PUSH1 0x20 ADD SWAP1 DUP2 MSTORE PUSH1 0x20 ADD PUSH0 KECCAK256 PUSH1 0x5 ADD DUP2 SWAP1 SSTORE POP DUP2 PUSH32 0x22FCD0C181FEFEC176F74B8AF4B0D73DDE52A16A6127956654704B1B311193F2 DUP3 PUSH1 0x40 MLOAD PUSH2 0x92E SWAP2 SWAP1 PUSH2 0x2447 JUMP JUMPDEST PUSH1 0x40 MLOAD DUP1 SWAP2 SUB SWAP1 LOG2 POP POP JUMP JUMPDEST PUSH0 PUSH2 0x94A DUP7 DUP7 DUP7 DUP7 PUSH0 DUP1 SHL PUSH2 0x133F JUMP JUMPDEST PUSH1 0x1 SWAP1 POP SWAP6 SWAP5 POP POP POP POP POP JUMP JUMPDEST PUSH4 0x40000000 DUP2 JUMP JUMPDEST PUSH2 0x967 PUSH2 0x1969 JUMP JUMPDEST PUSH2 0x970 DUP3 PUSH2 0x6CC JUMP JUMPDEST PUSH2 0x9AF JUMPI PUSH1 0x40 MLOAD PUSH32 0x8C379A000000000000000000000000000000000000000000000000000000000 DUP2 MSTORE PUSH1 0x4 ADD PUSH2 0x9A6 SWAP1 PUSH2 0x234A JUMP JUMPDEST PUSH1 0x40 MLOAD DUP1 SWAP2 SUB SWAP1 REVERT JUMPDEST PUSH1 0x2 PUSH0 DUP4 DUP2 MSTORE PUSH1 0x20 ADD SWAP1 DUP2 MSTORE PUSH1 0x20 ADD PUSH0 KECCAK256 PUSH1 0x40 MLOAD DUP1 PUSH2 0x100 ADD PUSH1 0x40 MSTORE SWAP1 DUP2 PUSH0 DUP3 ADD SLOAD DUP2 MSTORE PUSH1 0x20 ADD PUSH1 0x1 DUP3 ADD PUSH0 SWAP1 SLOAD SWAP1 PUSH2 0x100 EXP SWAP1 DIV PUSH20 0xFFFFFFFFFFFFFFFFFFFFFFFFFFFFFFFFFFFFFFFF AND PUSH20 0xFFFFFFFFFFFFFFFFFFFFFFFFFFFFFFFFFFFFFFFF AND PUSH20 0xFFFFFFFFFFFFFFFFFFFFFFFFFFFFFFFFFFFFFFFF AND DUP2 MSTORE PUSH1 0x20 ADD PUSH1 0x2 DUP3 ADD SLOAD DUP2 MSTORE PUSH1 0x20 ADD PUSH1 0x3 DUP3 ADD SLOAD DUP2 MSTORE PUSH1 0x20 ADD PUSH1 0x4 DUP3 ADD PUSH0 SWAP1 SLOAD SWAP1 PUSH2 0x100 EXP SWAP1 DIV PUSH1 0xFF AND ISZERO ISZERO ISZERO ISZERO DUP2 MSTORE PUSH1 0x20 ADD PUSH1 0x5 DUP3 ADD SLOAD DUP2 MSTORE PUSH1 0x20 ADD PUSH1 0x6 DUP3 ADD SLOAD DUP2 MSTORE PUSH1 0x20 ADD PUSH1 0x7 DUP3 ADD PUSH0 SWAP1 SLOAD SWAP1 PUSH2 0x100 EXP SWAP1 DIV PUSH1 0xFF AND ISZERO ISZERO ISZERO ISZERO DUP2 MSTORE POP POP SWAP1 POP SWAP2 SWAP1 POP JUMP JUMPDEST PUSH0 PUSH2 0xA9D DUP6 DUP6 DUP6 DUP6 PUSH0 DUP1 SHL PUSH2 0x133F JUMP JUMPDEST PUSH1 0x1 SWAP1 POP SWAP5 SWAP4 POP POP POP POP JUMP JUMPDEST PUSH2 0xAB6 DUP6 DUP6 DUP6 DUP6 DUP6 PUSH2 0x133F JUMP JUMPDEST POP POP POP POP POP JUMP JUMPDEST PUSH2 0xAC5 PUSH2 0x1538 JUMP JUMPDEST PUSH2 0xACE PUSH0 PUSH2 0x15BF JUMP JUMPDEST JUMP JUMPDEST PUSH4 0x40000000 DUP5 DUP5 SWAP1 POP GT ISZERO PUSH2 0xB1A JUMPI PUSH1 0x40 MLOAD PUSH32 0x8C379A000000000000000000000000000000000000000000000000000000000 DUP2 MSTORE PUSH1 0x4 ADD PUSH2 0xB11 SWAP1 PUSH2 0x24AA JUMP JUMPDEST PUSH1 0x40 MLOAD DUP1 SWAP2 SUB SWAP1 REVERT JUMPDEST PUSH0 PUSH3 0x100000 PUSH1 0x1 PUSH3 0x100000 DUP8 DUP8 SWAP1 POP PUSH2 0xB33 SWAP2 SWAP1 PUSH2 0x24F5 JUMP JUMPDEST PUSH2 0xB3D SWAP2 SWAP1 PUSH2 0x2528 JUMP JUMPDEST PUSH2 0xB47 SWAP2 SWAP1 PUSH2 0x2588 JUMP JUMPDEST SWAP1 POP PUSH2 0xB59 DUP7 DUP7 DUP7 SWAP1 POP DUP4 DUP7 DUP7 PUSH2 0x1680 JUMP JUMPDEST POP POP POP POP POP POP JUMP JUMPDEST PUSH0 PUSH1 0x4 PUSH0 DUP5 DUP2 MSTORE PUSH1 0x20 ADD SWAP1 DUP2 MSTORE PUSH1 0x20 ADD PUSH0 KECCAK256 PUSH0 DUP4 PUSH20 0xFFFFFFFFFFFFFFFFFFFFFFFFFFFFFFFFFFFFFFFF AND PUSH20 0xFFFFFFFFFFFFFFFFFFFFFFFFFFFFFFFFFFFFFFFF AND DUP2 MSTORE PUSH1 0x20 ADD SWAP1 DUP2 MSTORE PUSH1 0x20 ADD PUSH0 KECCAK256 PUSH0 SWAP1 SLOAD SWAP1 PUSH2 0x100 EXP SWAP1 DIV PUSH1 0xFF AND SWAP1 POP SWAP3 SWAP2 POP POP JUMP JUMPDEST PUSH2 0xBCB PUSH2 0x1969 JUMP JUMPDEST PUSH2 0xBD4 DUP3 PUSH2 0x6CC JUMP JUMPDEST PUSH2 0xC13 JUMPI PUSH1 0x40 MLOAD PUSH32 0x8C379A000000000000000000000000000000000000000000000000000000000 DUP2 MSTORE PUSH1 0x4 ADD PUSH2 0xC0A SWAP1 PUSH2 0x234A JUMP JUMPDEST PUSH1 0x40 MLOAD DUP1 SWAP2 SUB SWAP1 REVERT JUMPDEST PUSH2 0xC1D DUP3 CALLER PUSH2 0xB61 JUMP JUMPDEST PUSH2 0xC5C JUMPI PUSH1 0x40 MLOAD PUSH32 0x8C379A000000000000000000000000000000000000000000000000000000000 DUP2 MSTORE PUSH1 0x4 ADD PUSH2 0xC53 SWAP1 PUSH2 0x2602 JUMP JUMPDEST PUSH1 0x40 MLOAD DUP1 SWAP2 SUB SWAP1 REVERT JUMPDEST PUSH1 0x2 PUSH0 DUP4 DUP2 MSTORE PUSH1 0x20 ADD SWAP1 DUP2 MSTORE PUSH1 0x20 ADD PUSH0 KECCAK256 PUSH1 0x40 MLOAD DUP1 PUSH2 0x100 ADD PUSH1 0x40 MSTORE SWAP1 DUP2 PUSH0 DUP3 ADD SLOAD DUP2 MSTORE PUSH1 0x20 ADD PUSH1 0x1 DUP3 ADD PUSH0 SWAP1 SLOAD SWAP1 PUSH2 0x100 EXP SWAP1 DIV PUSH20 0xFFFFFFFFFFFFFFFFFFFFFFFFFFFFFFFFFFFFFFFF AND PUSH20 0xFFFFFFFFFFFFFFFFFFFFFFFFFFFFFFFFFFFFFFFF AND PUSH20 0xFFFFFFFFFFFFFFFFFFFFFFFFFFFFFFFFFFFFFFFF AND DUP2 MSTORE PUSH1 0x20 ADD PUSH1 0x2 DUP3 ADD SLOAD DUP2 MSTORE PUSH1 0x20 ADD PUSH1 0x3 DUP3 ADD SLOAD DUP2 MSTORE PUSH1 0x20 ADD PUSH1 0x4 DUP3 ADD PUSH0 SWAP1 SLOAD SWAP1 PUSH2 0x100 EXP SWAP1 DIV PUSH1 0xFF AND ISZERO ISZERO ISZERO ISZERO DUP2 MSTORE PUSH1 0x20 ADD PUSH1 0x5 DUP3 ADD SLOAD DUP2 MSTORE PUSH1 0x20 ADD PUSH1 0x6 DUP3 ADD SLOAD DUP2 MSTORE PUSH1 0x20 ADD PUSH1 0x7 DUP3 ADD PUSH0 SWAP1 SLOAD SWAP1 PUSH2 0x100 EXP SWAP1 DIV PUSH1 0xFF AND ISZERO ISZERO ISZERO ISZERO DUP2 MSTORE POP POP SWAP1 POP SWAP2 SWAP1 POP JUMP JUMPDEST PUSH0 DUP1 PUSH0 SWAP1 SLOAD SWAP1 PUSH2 0x100 EXP SWAP1 DIV PUSH20 0xFFFFFFFFFFFFFFFFFFFFFFFFFFFFFFFFFFFFFFFF AND SWAP1 POP SWAP1 JUMP JUMPDEST PUSH0 PUSH2 0xD6B DUP4 PUSH2 0x6CC JUMP JUMPDEST PUSH2 0xDAA JUMPI PUSH1 0x40 MLOAD PUSH32 0x8C379A000000000000000000000000000000000000000000000000000000000 DUP2 MSTORE PUSH1 0x4 ADD PUSH2 0xDA1 SWAP1 PUSH2 0x234A JUMP JUMPDEST PUSH1 0x40 MLOAD DUP1 SWAP2 SUB SWAP1 REVERT JUMPDEST CALLER PUSH20 0xFFFFFFFFFFFFFFFFFFFFFFFFFFFFFFFFFFFFFFFF AND PUSH1 0x2 PUSH0 DUP6 DUP2 MSTORE PUSH1 0x20 ADD SWAP1 DUP2 MSTORE PUSH1 0x20 ADD PUSH0 KECCAK256 PUSH1 0x1 ADD PUSH0 SWAP1 SLOAD SWAP1 PUSH2 0x100 EXP SWAP1 DIV PUSH20 0xFFFFFFFFFFFFFFFFFFFFFFFFFFFFFFFFFFFFFFFF AND PUSH20 0xFFFFFFFFFFFFFFFFFFFFFFFFFFFFFFFFFFFFFFFF AND EQ PUSH2 0xE4B JUMPI PUSH1 0x40 MLOAD PUSH32 0x8C379A000000000000000000000000000000000000000000000000000000000 DUP2 MSTORE PUSH1 0x4 ADD PUSH2 0xE42 SWAP1 PUSH2 0x23B2 JUMP JUMPDEST PUSH1 0x40 MLOAD DUP1 SWAP2 SUB SWAP1 REVERT JUMPDEST DUP2 PUSH1 0x2 PUSH0 DUP6 DUP2 MSTORE PUSH1 0x20 ADD SWAP1 DUP2 MSTORE PUSH1 0x20 ADD PUSH0 KECCAK256 PUSH1 0x4 ADD PUSH0 PUSH2 0x100 EXP DUP2 SLOAD DUP2 PUSH1 0xFF MUL NOT AND SWAP1 DUP4 ISZERO ISZERO MUL OR SWAP1 SSTORE POP DUP3 PUSH32 0x22FCD0C181FEFEC176F74B8AF4B0D73DDE52A16A6127956654704B1B311193F2 PUSH1 0x2 PUSH0 DUP7 DUP2 MSTORE PUSH1 0x20 ADD SWAP1 DUP2 MSTORE PUSH1 0x20 ADD PUSH0 KECCAK256 PUSH1 0x5 ADD SLOAD PUSH1 0x40 MLOAD PUSH2 0xEBA SWAP2 SWAP1 PUSH2 0x2447 JUMP JUMPDEST PUSH1 0x40 MLOAD DUP1 SWAP2 SUB SWAP1 LOG2 PUSH1 0x1 SWAP1 POP SWAP3 SWAP2 POP POP JUMP JUMPDEST PUSH0 PUSH2 0xED6 DUP5 PUSH2 0x6CC JUMP JUMPDEST PUSH2 0xF15 JUMPI PUSH1 0x40 MLOAD PUSH32 0x8C379A000000000000000000000000000000000000000000000000000000000 DUP2 MSTORE PUSH1 0x4 ADD PUSH2 0xF0C SWAP1 PUSH2 0x234A JUMP JUMPDEST PUSH1 0x40 MLOAD DUP1 SWAP2 SUB SWAP1 REVERT JUMPDEST PUSH1 0x2 PUSH0 DUP6 DUP2 MSTORE PUSH1 0x20 ADD SWAP1 DUP2 MSTORE PUSH1 0x20 ADD PUSH0 KECCAK256 PUSH1 0x6 ADD SLOAD DUP4 LT PUSH2 0xF6B JUMPI PUSH1 0x40 MLOAD PUSH32 0x8C379A000000000000000000000000000000000000000000000000000000000 DUP2 MSTORE PUSH1 0x4 ADD PUSH2 0xF62 SWAP1 PUSH2 0x241A JUMP JUMPDEST PUSH1 0x40 MLOAD DUP1 SWAP2 SUB SWAP1 REVERT JUMPDEST DUP2 PUSH1 0x3 PUSH0 DUP7 DUP2 MSTORE PUSH1 0x20 ADD SWAP1 DUP2 MSTORE PUSH1 0x20 ADD PUSH0 KECCAK256 PUSH0 DUP6 DUP2 MSTORE PUSH1 0x20 ADD SWAP1 DUP2 MSTORE PUSH1 0x20 ADD PUSH0 KECCAK256 PUSH1 0x2 ADD SLOAD EQ SWAP1 POP SWAP4 SWAP3 POP POP POP JUMP JUMPDEST PUSH1 0x60 PUSH2 0xFA5 DUP4 PUSH2 0x6CC JUMP JUMPDEST PUSH2 0xFE4 JUMPI PUSH1 0x40 MLOAD PUSH32 0x8C379A000000000000000000000000000000000000000000000000000000000 DUP2 MSTORE PUSH1 0x4 ADD PUSH2 0xFDB SWAP1 PUSH2 0x234A JUMP JUMPDEST PUSH1 0x40 MLOAD DUP1 SWAP2 SUB SWAP1 REVERT JUMPDEST PUSH2 0xFEE DUP4 CALLER PUSH2 0xB61 JUMP JUMPDEST PUSH2 0x102D JUMPI PUSH1 0x40 MLOAD PUSH32 0x8C379A000000000000000000000000000000000000000000000000000000000 DUP2 MSTORE PUSH1 0x4 ADD PUSH2 0x1024 SWAP1 PUSH2 0x2602 JUMP JUMPDEST PUSH1 0x40 MLOAD DUP1 SWAP2 SUB SWAP1 REVERT JUMPDEST PUSH1 0x2 PUSH0 DUP5 DUP2 MSTORE PUSH1 0x20 ADD SWAP1 DUP2 MSTORE PUSH1 0x20 ADD PUSH0 KECCAK256 PUSH1 0x6 ADD SLOAD DUP3 LT PUSH2 0x1083 JUMPI PUSH1 0x40 MLOAD PUSH32 0x8C379A000000000000000000000000000000000000000000000000000000000 DUP2 MSTORE PUSH1 0x4 ADD PUSH2 0x107A SWAP1 PUSH2 0x241A JUMP JUMPDEST PUSH1 0x40 MLOAD DUP1 SWAP2 SUB SWAP1 REVERT JUMPDEST PUSH1 0x40 MLOAD DUP1 PUSH1 0x20 ADD PUSH1 0x40 MSTORE DUP1 PUSH0 DUP2 MSTORE POP SWAP1 POP SWAP3 SWAP2 POP POP JUMP JUMPDEST PUSH0 PUSH2 0x10A4 DUP3 PUSH2 0x6CC JUMP JUMPDEST PUSH2 0x10E3 JUMPI PUSH1 0x40 MLOAD PUSH32 0x8C379A000000000000000000000000000000000000000000000000000000000 DUP2 MSTORE PUSH1 0x4 ADD PUSH2 0x10DA SWAP1 PUSH2 0x234A JUMP JUMPDEST PUSH1 0x40 MLOAD DUP1 SWAP2 SUB SWAP1 REVERT JUMPDEST PUSH1 0x2 PUSH0 DUP4 DUP2 MSTORE PUSH1 0x20 ADD SWAP1 DUP2 MSTORE PUSH1 0x20 ADD PUSH0 KECCAK256 PUSH1 0x2 ADD SLOAD SWAP1 POP SWAP2 SWAP1 POP JUMP JUMPDEST PUSH0 PUSH2 0x110F DUP8 DUP8 DUP8 DUP8 PUSH0 DUP1 SHL PUSH2 0x1680 JUMP JUMPDEST PUSH1 0x1 SWAP1 POP SWAP7 SWAP6 POP POP POP POP POP POP JUMP JUMPDEST PUSH0 PUSH2 0x1127 DUP7 PUSH2 0x6CC JUMP JUMPDEST PUSH2 0x1166 JUMPI PUSH1 0x40 MLOAD PUSH32 0x8C379A000000000000000000000000000000000000000000000000000000000 DUP2 MSTORE PUSH1 0x4 ADD PUSH2 0x115D SWAP1 PUSH2 0x234A JUMP JUMPDEST PUSH1 0x40 MLOAD DUP1 SWAP2 SUB SWAP1 REVERT JUMPDEST PUSH1 0x2 PUSH0 DUP8 DUP2 MSTORE PUSH1 0x20 ADD SWAP1 DUP2 MSTORE PUSH1 0x20 ADD PUSH0 KECCAK256 PUSH1 0x6 ADD SLOAD DUP6 LT PUSH2 0x11BC JUMPI PUSH1 0x40 MLOAD PUSH32 0x8C379A000000000000000000000000000000000000000000000000000000000 DUP2 MSTORE PUSH1 0x4 ADD PUSH2 0x11B3 SWAP1 PUSH2 0x241A JUMP JUMPDEST PUSH1 0x40 MLOAD DUP1 SWAP2 SUB SWAP1 REVERT JUMPDEST PUSH0 PUSH1 0x3 PUSH0 DUP9 DUP2 MSTORE PUSH1 0x20 ADD SWAP1 DUP2 MSTORE PUSH1 0x20 ADD PUSH0 KECCAK256 PUSH0 DUP8 DUP2 MSTORE PUSH1 0x20 ADD SWAP1 DUP2 MSTORE PUSH1 0x20 ADD PUSH0 KECCAK256 SWAP1 POP PUSH0 DUP6 DUP6 PUSH1 0x40 MLOAD PUSH2 0x11F0 SWAP3 SWAP2 SWAP1 PUSH2 0x265C JUMP JUMPDEST PUSH1 0x40 MLOAD DUP1 SWAP2 SUB SWAP1 KECCAK256 SWAP1 POP PUSH0 DUP1 SHL DUP5 EQ PUSH2 0x1222 JUMPI DUP4 DUP3 PUSH1 0x3 ADD SLOAD EQ DUP1 ISZERO PUSH2 0x1219 JUMPI POP DUP1 DUP3 PUSH1 0x2 ADD SLOAD EQ JUMPDEST SWAP3 POP POP POP PUSH2 0x122E JUMP JUMPDEST DUP1 DUP3 PUSH1 0x2 ADD SLOAD EQ SWAP3 POP POP POP JUMPDEST SWAP6 SWAP5 POP POP POP POP POP JUMP JUMPDEST PUSH0 PUSH2 0x1245 DUP11 DUP11 DUP11 DUP9 DUP7 PUSH2 0x1680 JUMP JUMPDEST PUSH1 0x1 SWAP1 POP SWAP10 SWAP9 POP POP POP POP POP POP POP POP POP JUMP JUMPDEST PUSH0 PUSH2 0x1260 DUP3 PUSH2 0x6CC JUMP JUMPDEST PUSH2 0x129F JUMPI PUSH1 0x40 MLOAD PUSH32 0x8C379A000000000000000000000000000000000000000000000000000000000 DUP2 MSTORE PUSH1 0x4 ADD PUSH2 0x1296 SWAP1 PUSH2 0x234A JUMP JUMPDEST PUSH1 0x40 MLOAD DUP1 SWAP2 SUB SWAP1 REVERT JUMPDEST PUSH1 0x2 PUSH0 DUP4 DUP2 MSTORE PUSH1 0x20 ADD SWAP1 DUP2 MSTORE PUSH1 0x20 ADD PUSH0 KECCAK256 PUSH1 0x6 ADD SLOAD SWAP1 POP SWAP2 SWAP1 POP JUMP JUMPDEST PUSH2 0x12C3 PUSH2 0x1538 JUMP JUMPDEST PUSH0 PUSH20 0xFFFFFFFFFFFFFFFFFFFFFFFFFFFFFFFFFFFFFFFF AND DUP2 PUSH20 0xFFFFFFFFFFFFFFFFFFFFFFFFFFFFFFFFFFFFFFFF AND SUB PUSH2 0x1333 JUMPI PUSH0 PUSH1 0x40 MLOAD PUSH32 0x1E4FBDF700000000000000000000000000000000000000000000000000000000 DUP2 MSTORE PUSH1 0x4 ADD PUSH2 0x132A SWAP2 SWAP1 PUSH2 0x1FC7 JUMP JUMPDEST PUSH1 0x40 MLOAD DUP1 SWAP2 SUB SWAP1 REVERT JUMPDEST PUSH2 0x133C DUP2 PUSH2 0x15BF JUMP JUMPDEST POP JUMP JUMPDEST PUSH2 0x1348 DUP6 PUSH2 0x6CC JUMP JUMPDEST PUSH2 0x1387 JUMPI PUSH1 0x40 MLOAD PUSH32 0x8C379A000000000000000000000000000000000000000000000000000000000 DUP2 MSTORE PUSH1 0x4 ADD PUSH2 0x137E SWAP1 PUSH2 0x234A JUMP JUMPDEST PUSH1 0x40 MLOAD DUP1 SWAP2 SUB SWAP1 REVERT JUMPDEST PUSH2 0x1391 DUP6 CALLER PUSH2 0xB61 JUMP JUMPDEST PUSH2 0x13D0 JUMPI PUSH1 0x40 MLOAD PUSH32 0x8C379A000000000000000000000000000000000000000000000000000000000 DUP2 MSTORE PUSH1 0x4 ADD PUSH2 0x13C7 SWAP1 PUSH2 0x2602 JUMP JUMPDEST PUSH1 0x40 MLOAD DUP1 SWAP2 SUB SWAP1 REVERT JUMPDEST PUSH3 0x100000 DUP4 DUP4 SWAP1 POP GT ISZERO PUSH2 0x1419 JUMPI PUSH1 0x40 MLOAD PUSH32 0x8C379A000000000000000000000000000000000000000000000000000000000 DUP2 MSTORE PUSH1 0x4 ADD PUSH2 0x1410 SWAP1 PUSH2 0x26BE JUMP JUMPDEST PUSH1 0x40 MLOAD DUP1 SWAP2 SUB SWAP1 REVERT JUMPDEST PUSH1 0x2 PUSH0 DUP7 DUP2 MSTORE PUSH1 0x20 ADD SWAP1 DUP2 MSTORE PUSH1 0x20 ADD PUSH0 KECCAK256 PUSH1 0x6 ADD SLOAD DUP5 LT PUSH2 0x146F JUMPI PUSH1 0x40 MLOAD PUSH32 0x8C379A000000000000000000000000000000000000000000000000000000000 DUP2 MSTORE PUSH1 0x4 ADD PUSH2 0x1466 SWAP1 PUSH2 0x241A JUMP JUMPDEST PUSH1 0x40 MLOAD DUP1 SWAP2 SUB SWAP1 REVERT JUMPDEST PUSH0 DUP4 DUP4 PUSH1 0x40 MLOAD PUSH2 0x1480 SWAP3 SWAP2 SWAP1 PUSH2 0x265C JUMP JUMPDEST PUSH1 0x40 MLOAD DUP1 SWAP2 SUB SWAP1 KECCAK256 SWAP1 POP PUSH1 0x40 MLOAD DUP1 PUSH1 0x80 ADD PUSH1 0x40 MSTORE DUP1 DUP7 DUP2 MSTORE PUSH1 0x20 ADD DUP6 DUP6 SWAP1 POP DUP2 MSTORE PUSH1 0x20 ADD DUP3 DUP2 MSTORE PUSH1 0x20 ADD DUP4 DUP2 MSTORE POP PUSH1 0x3 PUSH0 DUP9 DUP2 MSTORE PUSH1 0x20 ADD SWAP1 DUP2 MSTORE PUSH1 0x20 ADD PUSH0 KECCAK256 PUSH0 DUP8 DUP2 MSTORE PUSH1 0x20 ADD SWAP1 DUP2 MSTORE PUSH1 0x20 ADD PUSH0 KECCAK256 PUSH0 DUP3 ADD MLOAD DUP2 PUSH0 ADD SSTORE PUSH1 0x20 DUP3 ADD MLOAD DUP2 PUSH1 0x1 ADD SSTORE PUSH1 0x40 DUP3 ADD MLOAD DUP2 PUSH1 0x2 ADD SSTORE PUSH1 0x60 DUP3 ADD MLOAD DUP2 PUSH1 0x3 ADD SSTORE SWAP1 POP POP DUP5 DUP7 PUSH32 0x94A77D760348EB6B0079A077B9C0A33CB2A9381FEDCF68792ED2D6356C97CF0 DUP4 PUSH1 0x40 MLOAD PUSH2 0x1528 SWAP2 SWAP1 PUSH2 0x2447 JUMP JUMPDEST PUSH1 0x40 MLOAD DUP1 SWAP2 SUB SWAP1 LOG3 POP POP POP POP POP POP JUMP JUMPDEST PUSH2 0x1540 PUSH2 0x1938 JUMP JUMPDEST PUSH20 0xFFFFFFFFFFFFFFFFFFFFFFFFFFFFFFFFFFFFFFFF AND PUSH2 0x155E PUSH2 0xD3A JUMP JUMPDEST PUSH20 0xFFFFFFFFFFFFFFFFFFFFFFFFFFFFFFFFFFFFFFFF AND EQ PUSH2 0x15BD JUMPI PUSH2 0x1581 PUSH2 0x1938 JUMP JUMPDEST PUSH1 0x40 MLOAD PUSH32 0x118CDAA700000000000000000000000000000000000000000000000000000000 DUP2 MSTORE PUSH1 0x4 ADD PUSH2 0x15B4 SWAP2 SWAP1 PUSH2 0x1FC7 JUMP JUMPDEST PUSH1 0x40 MLOAD DUP1 SWAP2 SUB SWAP1 REVERT JUMPDEST JUMP JUMPDEST PUSH0 DUP1 PUSH0 SWAP1 SLOAD SWAP1 PUSH2 0x100 EXP SWAP1 DIV PUSH20 0xFFFFFFFFFFFFFFFFFFFFFFFFFFFFFFFFFFFFFFFF AND SWAP1 POP DUP2 PUSH0 DUP1 PUSH2 0x100 EXP DUP2 SLOAD DUP2 PUSH20 0xFFFFFFFFFFFFFFFFFFFFFFFFFFFFFFFFFFFFFFFF MUL NOT AND SWAP1 DUP4 PUSH20 0xFFFFFFFFFFFFFFFFFFFFFFFFFFFFFFFFFFFFFFFF AND MUL OR SWAP1 SSTORE POP DUP2 PUSH20 0xFFFFFFFFFFFFFFFFFFFFFFFFFFFFFFFFFFFFFFFF AND DUP2 PUSH20 0xFFFFFFFFFFFFFFFFFFFFFFFFFFFFFFFFFFFFFFFF AND PUSH32 0x8BE0079C531659141344CD1FD0A4F28419497F9722A3DAAFE3B4186F6B6457E0 PUSH1 0x40 MLOAD PUSH1 0x40 MLOAD DUP1 SWAP2 SUB SWAP1 LOG3 POP POP JUMP JUMPDEST PUSH0 DUP5 GT DUP1 ISZERO PUSH2 0x1693 JUMPI POP PUSH4 0x40000000 DUP5 GT ISZERO JUMPDEST PUSH2 0x16D2 JUMPI PUSH1 0x40 MLOAD PUSH32 0x8C379A000000000000000000000000000000000000000000000000000000000 DUP2 MSTORE PUSH1 0x4 ADD PUSH2 0x16C9 SWAP1 PUSH2 0x2726 JUMP JUMPDEST PUSH1 0x40 MLOAD DUP1 SWAP2 SUB SWAP1 REVERT JUMPDEST PUSH0 DUP4 GT PUSH2 0x1714 JUMPI PUSH1 0x40 MLOAD PUSH32 0x8C379A000000000000000000000000000000000000000000000000000000000 DUP2 MSTORE PUSH1 0x4 ADD PUSH2 0x170B SWAP1 PUSH2 0x278E JUMP JUMPDEST PUSH1 0x40 MLOAD DUP1 SWAP2 SUB SWAP1 REVERT JUMPDEST PUSH2 0x171D DUP6 PUSH2 0x6CC JUMP JUMPDEST ISZERO PUSH2 0x175D JUMPI PUSH1 0x40 MLOAD PUSH32 0x8C379A000000000000000000000000000000000000000000000000000000000 DUP2 MSTORE PUSH1 0x4 ADD PUSH2 0x1754 SWAP1 PUSH2 0x27F6 JUMP JUMPDEST PUSH1 0x40 MLOAD DUP1 SWAP2 SUB SWAP1 REVERT JUMPDEST PUSH1 0x40 MLOAD DUP1 PUSH2 0x100 ADD PUSH1 0x40 MSTORE DUP1 DUP7 DUP2 MSTORE PUSH1 0x20 ADD CALLER PUSH20 0xFFFFFFFFFFFFFFFFFFFFFFFFFFFFFFFFFFFFFFFF AND DUP2 MSTORE PUSH1 0x20 ADD DUP6 DUP2 MSTORE PUSH1 0x20 ADD TIMESTAMP DUP2 MSTORE PUSH1 0x20 ADD DUP4 ISZERO ISZERO DUP2 MSTORE PUSH1 0x20 ADD DUP3 DUP2 MSTORE PUSH1 0x20 ADD DUP5 DUP2 MSTORE PUSH1 0x20 ADD PUSH1 0x1 ISZERO ISZERO DUP2 MSTORE POP PUSH1 0x2 PUSH0 DUP8 DUP2 MSTORE PUSH1 0x20 ADD SWAP1 DUP2 MSTORE PUSH1 0x20 ADD PUSH0 KECCAK256 PUSH0 DUP3 ADD MLOAD DUP2 PUSH0 ADD SSTORE PUSH1 0x20 DUP3 ADD MLOAD DUP2 PUSH1 0x1 ADD PUSH0 PUSH2 0x100 EXP DUP2 SLOAD DUP2 PUSH20 0xFFFFFFFFFFFFFFFFFFFFFFFFFFFFFFFFFFFFFFFF MUL NOT AND SWAP1 DUP4 PUSH20 0xFFFFFFFFFFFFFFFFFFFFFFFFFFFFFFFFFFFFFFFF AND MUL OR SWAP1 SSTORE POP PUSH1 0x40 DUP3 ADD MLOAD DUP2 PUSH1 0x2 ADD SSTORE PUSH1 0x60 DUP3 ADD MLOAD DUP2 PUSH1 0x3 ADD SSTORE PUSH1 0x80 DUP3 ADD MLOAD DUP2 PUSH1 0x4 ADD PUSH0 PUSH2 0x100 EXP DUP2 SLOAD DUP2 PUSH1 0xFF MUL NOT AND SWAP1 DUP4 ISZERO ISZERO MUL OR SWAP1 SSTORE POP PUSH1 0xA0 DUP3 ADD MLOAD DUP2 PUSH1 0x5 ADD SSTORE PUSH1 0xC0 DUP3 ADD MLOAD DUP2 PUSH1 0x6 ADD SSTORE PUSH1 0xE0 DUP3 ADD MLOAD DUP2 PUSH1 0x7 ADD PUSH0 PUSH2 0x100 EXP DUP2 SLOAD DUP2 PUSH1 0xFF MUL NOT AND SWAP1 DUP4 ISZERO ISZERO MUL OR SWAP1 SSTORE POP SWAP1 POP POP PUSH1 0x1 PUSH1 0x4 PUSH0 DUP8 DUP2 MSTORE PUSH1 0x20 ADD SWAP1 DUP2 MSTORE PUSH1 0x20 ADD PUSH0 KECCAK256 PUSH0 CALLER PUSH20 0xFFFFFFFFFFFFFFFFFFFFFFFFFFFFFFFFFFFFFFFF AND PUSH20 0xFFFFFFFFFFFFFFFFFFFFFFFFFFFFFFFFFFFFFFFF AND DUP2 MSTORE PUSH1 0x20 ADD SWAP1 DUP2 MSTORE PUSH1 0x20 ADD PUSH0 KECCAK256 PUSH0 PUSH2 0x100 EXP DUP2 SLOAD DUP2 PUSH1 0xFF MUL NOT AND SWAP1 DUP4 ISZERO ISZERO MUL OR SWAP1 SSTORE POP CALLER PUSH20 0xFFFFFFFFFFFFFFFFFFFFFFFFFFFFFFFFFFFFFFFF AND DUP6 PUSH32 0xCED668F5FD2030036609937F5E7254BF8E9FE5DC7AE3E9EFB3B53D5FD1081E5E DUP7 DUP7 DUP7 PUSH1 0x40 MLOAD PUSH2 0x1929 SWAP4 SWAP3 SWAP2 SWAP1 PUSH2 0x2814 JUMP JUMPDEST PUSH1 0x40 MLOAD DUP1 SWAP2 SUB SWAP1 LOG3 POP POP POP POP POP JUMP JUMPDEST PUSH0 CALLER SWAP1 POP SWAP1 JUMP JUMPDEST PUSH1 0x40 MLOAD DUP1 PUSH1 0x80 ADD PUSH1 0x40 MSTORE DUP1 PUSH0 DUP2 MSTORE PUSH1 0x20 ADD PUSH0 DUP2 MSTORE PUSH1 0x20 ADD PUSH0 DUP1 NOT AND DUP2 MSTORE PUSH1 0x20 ADD PUSH0 DUP1 NOT AND DUP2 MSTORE POP SWAP1 JUMP JUMPDEST PUSH1 0x40 MLOAD DUP1 PUSH2 0x100 ADD PUSH1 0x40 MSTORE DUP1 PUSH0 DUP1 NOT AND DUP2 MSTORE PUSH1 0x20 ADD PUSH0 PUSH20 0xFFFFFFFFFFFFFFFFFFFFFFFFFFFFFFFFFFFFFFFF AND DUP2 MSTORE PUSH1 0x20 ADD PUSH0 DUP2 MSTORE PUSH1 0x20 ADD PUSH0 DUP2 MSTORE PUSH1 0x20 ADD PUSH0 ISZERO ISZERO DUP2 MSTORE PUSH1 0x20 ADD PUSH0 DUP1 NOT AND DUP2 MSTORE PUSH1 0x20 ADD PUSH0 DUP2 MSTORE PUSH1 0x20 ADD PUSH0 ISZERO ISZERO DUP2 MSTORE POP SWAP1 JUMP JUMPDEST PUSH0 DUP1 REVERT JUMPDEST PUSH0 DUP1 REVERT JUMPDEST PUSH0 DUP2 SWAP1 POP SWAP2 SWAP1 POP JUMP JUMPDEST PUSH2 0x19E0 DUP2 PUSH2 0x19CE JUMP JUMPDEST DUP2 EQ PUSH2 0x19EA JUMPI PUSH0 DUP1 REVERT JUMPDEST POP JUMP JUMPDEST PUSH0 DUP2 CALLDATALOAD SWAP1 POP PUSH2 0x19FB DUP2 PUSH2 0x19D7 JUMP JUMPDEST SWAP3 SWAP2 POP POP JUMP JUMPDEST PUSH0 PUSH1 0x20 DUP3 DUP5 SUB SLT ISZERO PUSH2 0x1A16 JUMPI PUSH2 0x1A15 PUSH2 0x19C6 JUMP JUMPDEST JUMPDEST PUSH0 PUSH2 0x1A23 DUP5 DUP3 DUP6 ADD PUSH2 0x19ED JUMP JUMPDEST SWAP2 POP POP SWAP3 SWAP2 POP POP JUMP JUMPDEST PUSH0 DUP2 ISZERO ISZERO SWAP1 POP SWAP2 SWAP1 POP JUMP JUMPDEST PUSH2 0x1A40 DUP2 PUSH2 0x1A2C JUMP JUMPDEST DUP3 MSTORE POP POP JUMP JUMPDEST PUSH0 PUSH1 0x20 DUP3 ADD SWAP1 POP PUSH2 0x1A59 PUSH0 DUP4 ADD DUP5 PUSH2 0x1A37 JUMP JUMPDEST SWAP3 SWAP2 POP POP JUMP JUMPDEST PUSH0 DUP2 SWAP1 POP SWAP2 SWAP1 POP JUMP JUMPDEST PUSH2 0x1A71 DUP2 PUSH2 0x1A5F JUMP JUMPDEST DUP2 EQ PUSH2 0x1A7B JUMPI PUSH0 DUP1 REVERT JUMPDEST POP JUMP JUMPDEST PUSH0 DUP2 CALLDATALOAD SWAP1 POP PUSH2 0x1A8C DUP2 PUSH2 0x1A68 JUMP JUMPDEST SWAP3 SWAP2 POP POP JUMP JUMPDEST PUSH0 DUP1 PUSH1 0x40 DUP4 DUP6 SUB SLT ISZERO PUSH2 0x1AA8 JUMPI PUSH2 0x1AA7 PUSH2 0x19C6 JUMP JUMPDEST JUMPDEST PUSH0 PUSH2 0x1AB5 DUP6 DUP3 DUP7 ADD PUSH2 0x19ED JUMP JUMPDEST SWAP3 POP POP PUSH1 0x20 PUSH2 0x1AC6 DUP6 DUP3 DUP7 ADD PUSH2 0x1A7E JUMP JUMPDEST SWAP2 POP POP SWAP3 POP SWAP3 SWAP1 POP JUMP JUMPDEST PUSH2 0x1AD9 DUP2 PUSH2 0x1A5F JUMP JUMPDEST DUP3 MSTORE POP POP JUMP JUMPDEST PUSH2 0x1AE8 DUP2 PUSH2 0x19CE JUMP JUMPDEST DUP3 MSTORE POP POP JUMP JUMPDEST PUSH1 0x80 DUP3 ADD PUSH0 DUP3 ADD MLOAD PUSH2 0x1B02 PUSH0 DUP6 ADD DUP3 PUSH2 0x1AD0 JUMP JUMPDEST POP PUSH1 0x20 DUP3 ADD MLOAD PUSH2 0x1B15 PUSH1 0x20 DUP6 ADD DUP3 PUSH2 0x1AD0 JUMP JUMPDEST POP PUSH1 0x40 DUP3 ADD MLOAD PUSH2 0x1B28 PUSH1 0x40 DUP6 ADD DUP3 PUSH2 0x1ADF JUMP JUMPDEST POP PUSH1 0x60 DUP3 ADD MLOAD PUSH2 0x1B3B PUSH1 0x60 DUP6 ADD DUP3 PUSH2 0x1ADF JUMP JUMPDEST POP POP POP POP JUMP JUMPDEST PUSH0 PUSH1 0x80 DUP3 ADD SWAP1 POP PUSH2 0x1B54 PUSH0 DUP4 ADD DUP5 PUSH2 0x1AEE JUMP JUMPDEST SWAP3 SWAP2 POP POP JUMP JUMPDEST PUSH2 0x1B63 DUP2 PUSH2 0x1A5F JUMP JUMPDEST DUP3 MSTORE POP POP JUMP JUMPDEST PUSH0 PUSH1 0x20 DUP3 ADD SWAP1 POP PUSH2 0x1B7C PUSH0 DUP4 ADD DUP5 PUSH2 0x1B5A JUMP JUMPDEST SWAP3 SWAP2 POP POP JUMP JUMPDEST PUSH0 DUP1 PUSH1 0x40 DUP4 DUP6 SUB SLT ISZERO PUSH2 0x1B98 JUMPI PUSH2 0x1B97 PUSH2 0x19C6 JUMP JUMPDEST JUMPDEST PUSH0 PUSH2 0x1BA5 DUP6 DUP3 DUP7 ADD PUSH2 0x19ED JUMP JUMPDEST SWAP3 POP POP PUSH1 0x20 PUSH2 0x1BB6 DUP6 DUP3 DUP7 ADD PUSH2 0x19ED JUMP JUMPDEST SWAP2 POP POP SWAP3 POP SWAP3 SWAP1 POP JUMP JUMPDEST PUSH0 DUP1 REVERT JUMPDEST PUSH0 DUP1 REVERT JUMPDEST PUSH0 DUP1 REVERT JUMPDEST PUSH0 DUP1 DUP4 PUSH1 0x1F DUP5 ADD SLT PUSH2 0x1BE1 JUMPI PUSH2 0x1BE0 PUSH2 0x1BC0 JUMP JUMPDEST JUMPDEST DUP3 CALLDATALOAD SWAP1 POP PUSH8 0xFFFFFFFFFFFFFFFF DUP2 GT ISZERO PUSH2 0x1BFE JUMPI PUSH2 0x1BFD PUSH2 0x1BC4 JUMP JUMPDEST JUMPDEST PUSH1 0x20 DUP4 ADD SWAP2 POP DUP4 PUSH1 0x1 DUP3 MUL DUP4 ADD GT ISZERO PUSH2 0x1C1A JUMPI PUSH2 0x1C19 PUSH2 0x1BC8 JUMP JUMPDEST JUMPDEST SWAP3 POP SWAP3 SWAP1 POP JUMP JUMPDEST PUSH2 0x1C2A DUP2 PUSH2 0x1A2C JUMP JUMPDEST DUP2 EQ PUSH2 0x1C34 JUMPI PUSH0 DUP1 REVERT JUMPDEST POP JUMP JUMPDEST PUSH0 DUP2 CALLDATALOAD SWAP1 POP PUSH2 0x1C45 DUP2 PUSH2 0x1C21 JUMP JUMPDEST SWAP3 SWAP2 POP POP JUMP JUMPDEST PUSH0 DUP1 PUSH0 DUP1 PUSH0 PUSH1 0x80 DUP7 DUP9 SUB SLT ISZERO PUSH2 0x1C64 JUMPI PUSH2 0x1C63 PUSH2 0x19C6 JUMP JUMPDEST JUMPDEST PUSH0 PUSH2 0x1C71 DUP9 DUP3 DUP10 ADD PUSH2 0x19ED JUMP JUMPDEST SWAP6 POP POP PUSH1 0x20 PUSH2 0x1C82 DUP9 DUP3 DUP10 ADD PUSH2 0x1A7E JUMP JUMPDEST SWAP5 POP POP PUSH1 0x40 DUP7 ADD CALLDATALOAD PUSH8 0xFFFFFFFFFFFFFFFF DUP2 GT ISZERO PUSH2 0x1CA3 JUMPI PUSH2 0x1CA2 PUSH2 0x19CA JUMP JUMPDEST JUMPDEST PUSH2 0x1CAF DUP9 DUP3 DUP10 ADD PUSH2 0x1BCC JUMP JUMPDEST SWAP4 POP SWAP4 POP POP PUSH1 0x60 PUSH2 0x1CC2 DUP9 DUP3 DUP10 ADD PUSH2 0x1C37 JUMP JUMPDEST SWAP2 POP POP SWAP3 SWAP6 POP SWAP3 SWAP6 SWAP1 SWAP4 POP JUMP JUMPDEST PUSH0 PUSH20 0xFFFFFFFFFFFFFFFFFFFFFFFFFFFFFFFFFFFFFFFF DUP3 AND SWAP1 POP SWAP2 SWAP1 POP JUMP JUMPDEST PUSH0 PUSH2 0x1CF8 DUP3 PUSH2 0x1CCF JUMP JUMPDEST SWAP1 POP SWAP2 SWAP1 POP JUMP JUMPDEST PUSH2 0x1D08 DUP2 PUSH2 0x1CEE JUMP JUMPDEST DUP3 MSTORE POP POP JUMP JUMPDEST PUSH2 0x1D17 DUP2 PUSH2 0x1A2C JUMP JUMPDEST DUP3 MSTORE POP POP JUMP JUMPDEST PUSH2 0x100 DUP3 ADD PUSH0 DUP3 ADD MLOAD PUSH2 0x1D32 PUSH0 DUP6 ADD DUP3 PUSH2 0x1ADF JUMP JUMPDEST POP PUSH1 0x20 DUP3 ADD MLOAD PUSH2 0x1D45 PUSH1 0x20 DUP6 ADD DUP3 PUSH2 0x1CFF JUMP JUMPDEST POP PUSH1 0x40 DUP3 ADD MLOAD PUSH2 0x1D58 PUSH1 0x40 DUP6 ADD DUP3 PUSH2 0x1AD0 JUMP JUMPDEST POP PUSH1 0x60 DUP3 ADD MLOAD PUSH2 0x1D6B PUSH1 0x60 DUP6 ADD DUP3 PUSH2 0x1AD0 JUMP JUMPDEST POP PUSH1 0x80 DUP3 ADD MLOAD PUSH2 0x1D7E PUSH1 0x80 DUP6 ADD DUP3 PUSH2 0x1D0E JUMP JUMPDEST POP PUSH1 0xA0 DUP3 ADD MLOAD PUSH2 0x1D91 PUSH1 0xA0 DUP6 ADD DUP3 PUSH2 0x1ADF JUMP JUMPDEST POP PUSH1 0xC0 DUP3 ADD MLOAD PUSH2 0x1DA4 PUSH1 0xC0 DUP6 ADD DUP3 PUSH2 0x1AD0 JUMP JUMPDEST POP PUSH1 0xE0 DUP3 ADD MLOAD PUSH2 0x1DB7 PUSH1 0xE0 DUP6 ADD DUP3 PUSH2 0x1D0E JUMP JUMPDEST POP POP POP POP JUMP JUMPDEST PUSH0 PUSH2 0x100 DUP3 ADD SWAP1 POP PUSH2 0x1DD1 PUSH0 DUP4 ADD DUP5 PUSH2 0x1D1D JUMP JUMPDEST SWAP3 SWAP2 POP POP JUMP JUMPDEST PUSH0 DUP1 PUSH0 DUP1 PUSH1 0x60 DUP6 DUP8 SUB SLT ISZERO PUSH2 0x1DEF JUMPI PUSH2 0x1DEE PUSH2 0x19C6 JUMP JUMPDEST JUMPDEST PUSH0 PUSH2 0x1DFC DUP8 DUP3 DUP9 ADD PUSH2 0x19ED JUMP JUMPDEST SWAP5 POP POP PUSH1 0x20 PUSH2 0x1E0D DUP8 DUP3 DUP9 ADD PUSH2 0x1A7E JUMP JUMPDEST SWAP4 POP POP PUSH1 0x40 DUP6 ADD CALLDATALOAD PUSH8 0xFFFFFFFFFFFFFFFF DUP2 GT ISZERO PUSH2 0x1E2E JUMPI PUSH2 0x1E2D PUSH2 0x19CA JUMP JUMPDEST JUMPDEST PUSH2 0x1E3A DUP8 DUP3 DUP9 ADD PUSH2 0x1BCC JUMP JUMPDEST SWAP3 POP SWAP3 POP POP SWAP3 SWAP6 SWAP2 SWAP5 POP SWAP3 POP JUMP JUMPDEST PUSH0 DUP1 PUSH0 DUP1 PUSH0 PUSH1 0x80 DUP7 DUP9 SUB SLT ISZERO PUSH2 0x1E61 JUMPI PUSH2 0x1E60 PUSH2 0x19C6 JUMP JUMPDEST JUMPDEST PUSH0 PUSH2 0x1E6E DUP9 DUP3 DUP10 ADD PUSH2 0x19ED JUMP JUMPDEST SWAP6 POP POP PUSH1 0x20 PUSH2 0x1E7F DUP9 DUP3 DUP10 ADD PUSH2 0x1A7E JUMP JUMPDEST SWAP5 POP POP PUSH1 0x40 DUP7 ADD CALLDATALOAD PUSH8 0xFFFFFFFFFFFFFFFF DUP2 GT ISZERO PUSH2 0x1EA0 JUMPI PUSH2 0x1E9F PUSH2 0x19CA JUMP JUMPDEST JUMPDEST PUSH2 0x1EAC DUP9 DUP3 DUP10 ADD PUSH2 0x1BCC JUMP JUMPDEST SWAP4 POP SWAP4 POP POP PUSH1 0x60 PUSH2 0x1EBF DUP9 DUP3 DUP10 ADD PUSH2 0x19ED JUMP JUMPDEST SWAP2 POP POP SWAP3 SWAP6 POP SWAP3 SWAP6 SWAP1 SWAP4 POP JUMP JUMPDEST PUSH0 DUP1 PUSH0 DUP1 PUSH0 PUSH1 0x80 DUP7 DUP9 SUB SLT ISZERO PUSH2 0x1EE5 JUMPI PUSH2 0x1EE4 PUSH2 0x19C6 JUMP JUMPDEST JUMPDEST PUSH0 PUSH2 0x1EF2 DUP9 DUP3 DUP10 ADD PUSH2 0x19ED JUMP JUMPDEST SWAP6 POP POP PUSH1 0x20 DUP7 ADD CALLDATALOAD PUSH8 0xFFFFFFFFFFFFFFFF DUP2 GT ISZERO PUSH2 0x1F13 JUMPI PUSH2 0x1F12 PUSH2 0x19CA JUMP JUMPDEST JUMPDEST PUSH2 0x1F1F DUP9 DUP3 DUP10 ADD PUSH2 0x1BCC JUMP JUMPDEST SWAP5 POP SWAP5 POP POP PUSH1 0x40 PUSH2 0x1F32 DUP9 DUP3 DUP10 ADD PUSH2 0x1C37 JUMP JUMPDEST SWAP3 POP POP PUSH1 0x60 PUSH2 0x1F43 DUP9 DUP3 DUP10 ADD PUSH2 0x19ED JUMP JUMPDEST SWAP2 POP POP SWAP3 SWAP6 POP SWAP3 SWAP6 SWAP1 SWAP4 POP JUMP JUMPDEST PUSH2 0x1F59 DUP2 PUSH2 0x1CEE JUMP JUMPDEST DUP2 EQ PUSH2 0x1F63 JUMPI PUSH0 DUP1 REVERT JUMPDEST POP JUMP JUMPDEST PUSH0 DUP2 CALLDATALOAD SWAP1 POP PUSH2 0x1F74 DUP2 PUSH2 0x1F50 JUMP JUMPDEST SWAP3 SWAP2 POP POP JUMP JUMPDEST PUSH0 DUP1 PUSH1 0x40 DUP4 DUP6 SUB SLT ISZERO PUSH2 0x1F90 JUMPI PUSH2 0x1F8F PUSH2 0x19C6 JUMP JUMPDEST JUMPDEST PUSH0 PUSH2 0x1F9D DUP6 DUP3 DUP7 ADD PUSH2 0x19ED JUMP JUMPDEST SWAP3 POP POP PUSH1 0x20 PUSH2 0x1FAE DUP6 DUP3 DUP7 ADD PUSH2 0x1F66 JUMP JUMPDEST SWAP2 POP POP SWAP3 POP SWAP3 SWAP1 POP JUMP JUMPDEST PUSH2 0x1FC1 DUP2 PUSH2 0x1CEE JUMP JUMPDEST DUP3 MSTORE POP POP JUMP JUMPDEST PUSH0 PUSH1 0x20 DUP3 ADD SWAP1 POP PUSH2 0x1FDA PUSH0 DUP4 ADD DUP5 PUSH2 0x1FB8 JUMP JUMPDEST SWAP3 SWAP2 POP POP JUMP JUMPDEST PUSH0 DUP1 PUSH1 0x40 DUP4 DUP6 SUB SLT ISZERO PUSH2 0x1FF6 JUMPI PUSH2 0x1FF5 PUSH2 0x19C6 JUMP JUMPDEST JUMPDEST PUSH0 PUSH2 0x2003 DUP6 DUP3 DUP7 ADD PUSH2 0x19ED JUMP JUMPDEST SWAP3 POP POP PUSH1 0x20 PUSH2 0x2014 DUP6 DUP3 DUP7 ADD PUSH2 0x1C37 JUMP JUMPDEST SWAP2 POP POP SWAP3 POP SWAP3 SWAP1 POP JUMP JUMPDEST PUSH0 DUP1 PUSH0 PUSH1 0x60 DUP5 DUP7 SUB SLT ISZERO PUSH2 0x2035 JUMPI PUSH2 0x2034 PUSH2 0x19C6 JUMP JUMPDEST JUMPDEST PUSH0 PUSH2 0x2042 DUP7 DUP3 DUP8 ADD PUSH2 0x19ED JUMP JUMPDEST SWAP4 POP POP PUSH1 0x20 PUSH2 0x2053 DUP7 DUP3 DUP8 ADD PUSH2 0x1A7E JUMP JUMPDEST SWAP3 POP POP PUSH1 0x40 PUSH2 0x2064 DUP7 DUP3 DUP8 ADD PUSH2 0x19ED JUMP JUMPDEST SWAP2 POP POP SWAP3 POP SWAP3 POP SWAP3 JUMP JUMPDEST PUSH0 DUP2 MLOAD SWAP1 POP SWAP2 SWAP1 POP JUMP JUMPDEST PUSH0 DUP3 DUP3 MSTORE PUSH1 0x20 DUP3 ADD SWAP1 POP SWAP3 SWAP2 POP POP JUMP JUMPDEST DUP3 DUP2 DUP4 MCOPY PUSH0 DUP4 DUP4 ADD MSTORE POP POP POP JUMP JUMPDEST PUSH0 PUSH1 0x1F NOT PUSH1 0x1F DUP4 ADD AND SWAP1 POP SWAP2 SWAP1 POP JUMP JUMPDEST PUSH0 PUSH2 0x20B0 DUP3 PUSH2 0x206E JUMP JUMPDEST PUSH2 0x20BA DUP2 DUP6 PUSH2 0x2078 JUMP JUMPDEST SWAP4 POP PUSH2 0x20CA DUP2 DUP6 PUSH1 0x20 DUP7 ADD PUSH2 0x2088 JUMP JUMPDEST PUSH2 0x20D3 DUP2 PUSH2 0x2096 JUMP JUMPDEST DUP5 ADD SWAP2 POP POP SWAP3 SWAP2 POP POP JUMP JUMPDEST PUSH0 PUSH1 0x20 DUP3 ADD SWAP1 POP DUP2 DUP2 SUB PUSH0 DUP4 ADD MSTORE PUSH2 0x20F6 DUP2 DUP5 PUSH2 0x20A6 JUMP JUMPDEST SWAP1 POP SWAP3 SWAP2 POP POP JUMP JUMPDEST PUSH0 DUP1 DUP4 PUSH1 0x1F DUP5 ADD SLT PUSH2 0x2113 JUMPI PUSH2 0x2112 PUSH2 0x1BC0 JUMP JUMPDEST JUMPDEST DUP3 CALLDATALOAD SWAP1 POP PUSH8 0xFFFFFFFFFFFFFFFF DUP2 GT ISZERO PUSH2 0x2130 JUMPI PUSH2 0x212F PUSH2 0x1BC4 JUMP JUMPDEST JUMPDEST PUSH1 0x20 DUP4 ADD SWAP2 POP DUP4 PUSH1 0x1 DUP3 MUL DUP4 ADD GT ISZERO PUSH2 0x214C JUMPI PUSH2 0x214B PUSH2 0x1BC8 JUMP JUMPDEST JUMPDEST SWAP3 POP SWAP3 SWAP1 POP JUMP JUMPDEST PUSH0 DUP1 PUSH0 DUP1 PUSH0 DUP1 PUSH1 0xA0 DUP8 DUP10 SUB SLT ISZERO PUSH2 0x216D JUMPI PUSH2 0x216C PUSH2 0x19C6 JUMP JUMPDEST JUMPDEST PUSH0 PUSH2 0x217A DUP10 DUP3 DUP11 ADD PUSH2 0x19ED JUMP JUMPDEST SWAP7 POP POP PUSH1 0x20 PUSH2 0x218B DUP10 DUP3 DUP11 ADD PUSH2 0x1A7E JUMP JUMPDEST SWAP6 POP POP PUSH1 0x40 PUSH2 0x219C DUP10 DUP3 DUP11 ADD PUSH2 0x1A7E JUMP JUMPDEST SWAP5 POP POP PUSH1 0x60 PUSH2 0x21AD DUP10 DUP3 DUP11 ADD PUSH2 0x1C37 JUMP JUMPDEST SWAP4 POP POP PUSH1 0x80 DUP8 ADD CALLDATALOAD PUSH8 0xFFFFFFFFFFFFFFFF DUP2 GT ISZERO PUSH2 0x21CE JUMPI PUSH2 0x21CD PUSH2 0x19CA JUMP JUMPDEST JUMPDEST PUSH2 0x21DA DUP10 DUP3 DUP11 ADD PUSH2 0x20FE JUMP JUMPDEST SWAP3 POP SWAP3 POP POP SWAP3 SWAP6 POP SWAP3 SWAP6 POP SWAP3 SWAP6 JUMP JUMPDEST PUSH0 DUP1 PUSH0 DUP1 PUSH0 DUP1 PUSH0 DUP1 PUSH0 PUSH1 0xE0 DUP11 DUP13 SUB SLT ISZERO PUSH2 0x2206 JUMPI PUSH2 0x2205 PUSH2 0x19C6 JUMP JUMPDEST JUMPDEST PUSH0 PUSH2 0x2213 DUP13 DUP3 DUP14 ADD PUSH2 0x19ED JUMP JUMPDEST SWAP10 POP POP PUSH1 0x20 PUSH2 0x2224 DUP13 DUP3 DUP14 ADD PUSH2 0x1A7E JUMP JUMPDEST SWAP9 POP POP PUSH1 0x40 PUSH2 0x2235 DUP13 DUP3 DUP14 ADD PUSH2 0x1A7E JUMP JUMPDEST SWAP8 POP POP PUSH1 0x60 DUP11 ADD CALLDATALOAD PUSH8 0xFFFFFFFFFFFFFFFF DUP2 GT ISZERO PUSH2 0x2256 JUMPI PUSH2 0x2255 PUSH2 0x19CA JUMP JUMPDEST JUMPDEST PUSH2 0x2262 DUP13 DUP3 DUP14 ADD PUSH2 0x20FE JUMP JUMPDEST SWAP7 POP SWAP7 POP POP PUSH1 0x80 PUSH2 0x2275 DUP13 DUP3 DUP14 ADD PUSH2 0x1C37 JUMP JUMPDEST SWAP5 POP POP PUSH1 0xA0 DUP11 ADD CALLDATALOAD PUSH8 0xFFFFFFFFFFFFFFFF DUP2 GT ISZERO PUSH2 0x2296 JUMPI PUSH2 0x2295 PUSH2 0x19CA JUMP JUMPDEST JUMPDEST PUSH2 0x22A2 DUP13 DUP3 DUP14 ADD PUSH2 0x20FE JUMP JUMPDEST SWAP4 POP SWAP4 POP POP PUSH1 0xC0 PUSH2 0x22B5 DUP13 DUP3 DUP14 ADD PUSH2 0x19ED JUMP JUMPDEST SWAP2 POP POP SWAP3 SWAP6 SWAP9 POP SWAP3 SWAP6 SWAP9 POP SWAP3 SWAP6 SWAP9 JUMP JUMPDEST PUSH0 PUSH1 0x20 DUP3 DUP5 SUB SLT ISZERO PUSH2 0x22DA JUMPI PUSH2 0x22D9 PUSH2 0x19C6 JUMP JUMPDEST JUMPDEST PUSH0 PUSH2 0x22E7 DUP5 DUP3 DUP6 ADD PUSH2 0x1F66 JUMP JUMPDEST SWAP2 POP POP SWAP3 SWAP2 POP POP JUMP JUMPDEST PUSH0 DUP3 DUP3 MSTORE PUSH1 0x20 DUP3 ADD SWAP1 POP SWAP3 SWAP2 POP POP JUMP JUMPDEST PUSH32 0x46696C65206E6F7420666F756E64000000000000000000000000000000000000 PUSH0 DUP3 ADD MSTORE POP JUMP JUMPDEST PUSH0 PUSH2 0x2334 PUSH1 0xE DUP4 PUSH2 0x22F0 JUMP JUMPDEST SWAP2 POP PUSH2 0x233F DUP3 PUSH2 0x2300 JUMP JUMPDEST PUSH1 0x20 DUP3 ADD SWAP1 POP SWAP2 SWAP1 POP JUMP JUMPDEST PUSH0 PUSH1 0x20 DUP3 ADD SWAP1 POP DUP2 DUP2 SUB PUSH0 DUP4 ADD MSTORE PUSH2 0x2361 DUP2 PUSH2 0x2328 JUMP JUMPDEST SWAP1 POP SWAP2 SWAP1 POP JUMP JUMPDEST PUSH32 0x4E6F74206F776E65720000000000000000000000000000000000000000000000 PUSH0 DUP3 ADD MSTORE POP JUMP JUMPDEST PUSH0 PUSH2 0x239C PUSH1 0x9 DUP4 PUSH2 0x22F0 JUMP JUMPDEST SWAP2 POP PUSH2 0x23A7 DUP3 PUSH2 0x2368 JUMP JUMPDEST PUSH1 0x20 DUP3 ADD SWAP1 POP SWAP2 SWAP1 POP JUMP JUMPDEST PUSH0 PUSH1 0x20 DUP3 ADD SWAP1 POP DUP2 DUP2 SUB PUSH0 DUP4 ADD MSTORE PUSH2 0x23C9 DUP2 PUSH2 0x2390 JUMP JUMPDEST SWAP1 POP SWAP2 SWAP1 POP JUMP JUMPDEST PUSH32 0x496E76616C6964206368756E6B20696E64657800000000000000000000000000 PUSH0 DUP3 ADD MSTORE POP JUMP JUMPDEST PUSH0 PUSH2 0x2404 PUSH1 0x13 DUP4 PUSH2 0x22F0 JUMP JUMPDEST SWAP2 POP PUSH2 0x240F DUP3 PUSH2 0x23D0 JUMP JUMPDEST PUSH1 0x20 DUP3 ADD SWAP1 POP SWAP2 SWAP1 POP JUMP JUMPDEST PUSH0 PUSH1 0x20 DUP3 ADD SWAP1 POP DUP2 DUP2 SUB PUSH0 DUP4 ADD MSTORE PUSH2 0x2431 DUP2 PUSH2 0x23F8 JUMP JUMPDEST SWAP1 POP SWAP2 SWAP1 POP JUMP JUMPDEST PUSH2 0x2441 DUP2 PUSH2 0x19CE JUMP JUMPDEST DUP3 MSTORE POP POP JUMP JUMPDEST PUSH0 PUSH1 0x20 DUP3 ADD SWAP1 POP PUSH2 0x245A PUSH0 DUP4 ADD DUP5 PUSH2 0x2438 JUMP JUMPDEST SWAP3 SWAP2 POP POP JUMP JUMPDEST PUSH32 0x46696C6520746F6F206C61726765000000000000000000000000000000000000 PUSH0 DUP3 ADD MSTORE POP JUMP JUMPDEST PUSH0 PUSH2 0x2494 PUSH1 0xE DUP4 PUSH2 0x22F0 JUMP JUMPDEST SWAP2 POP PUSH2 0x249F DUP3 PUSH2 0x2460 JUMP JUMPDEST PUSH1 0x20 DUP3 ADD SWAP1 POP SWAP2 SWAP1 POP JUMP JUMPDEST PUSH0 PUSH1 0x20 DUP3 ADD SWAP1 POP DUP2 DUP2 SUB PUSH0 DUP4 ADD MSTORE PUSH2 0x24C1 DUP2 PUSH2 0x2488 JUMP JUMPDEST SWAP1 POP SWAP2 SWAP1 POP JUMP JUMPDEST PUSH32 0x4E487B7100000000000000000000000000000000000000000000000000000000 PUSH0 MSTORE PUSH1 0x11 PUSH1 0x4 MSTORE PUSH1 0x24 PUSH0 REVERT JUMPDEST PUSH0 PUSH2 0x24FF DUP3 PUSH2 0x1A5F JUMP JUMPDEST SWAP2 POP PUSH2 0x250A DUP4 PUSH2 0x1A5F JUMP JUMPDEST SWAP3 POP DUP3 DUP3 ADD SWAP1 POP DUP1 DUP3 GT ISZERO PUSH2 0x2522 JUMPI PUSH2 0x2521 PUSH2 0x24C8 JUMP JUMPDEST JUMPDEST SWAP3 SWAP2 POP POP JUMP JUMPDEST PUSH0 PUSH2 0x2532 DUP3 PUSH2 0x1A5F JUMP JUMPDEST SWAP2 POP PUSH2 0x253D DUP4 PUSH2 0x1A5F JUMP JUMPDEST SWAP3 POP DUP3 DUP3 SUB SWAP1 POP DUP2 DUP2 GT ISZERO PUSH2 0x2555 JUMPI PUSH2 0x2554 PUSH2 0x24C8 JUMP JUMPDEST JUMPDEST SWAP3 SWAP2 POP POP JUMP JUMPDEST PUSH32 0x4E487B7100000000000000000000000000000000000000000000000000000000 PUSH0 MSTORE PUSH1 0x12 PUSH1 0x4 MSTORE PUSH1 0x24 PUSH0 REVERT JUMPDEST PUSH0 PUSH2 0x2592 DUP3 PUSH2 0x1A5F JUMP JUMPDEST SWAP2 POP PUSH2 0x259D DUP4 PUSH2 0x1A5F JUMP JUMPDEST SWAP3 POP DUP3 PUSH2 0x25AD JUMPI PUSH2 0x25AC PUSH2 0x255B JUMP JUMPDEST JUMPDEST DUP3 DUP3 DIV SWAP1 POP SWAP3 SWAP2 POP POP JUMP JUMPDEST PUSH32 0x4E6F206163636573730000000000000000000000000000000000000000000000 PUSH0 DUP3 ADD MSTORE POP JUMP JUMPDEST PUSH0 PUSH2 0x25EC PUSH1 0x9 DUP4 PUSH2 0x22F0 JUMP JUMPDEST SWAP2 POP PUSH2 0x25F7 DUP3 PUSH2 0x25B8 JUMP JUMPDEST PUSH1 0x20 DUP3 ADD SWAP1 POP SWAP2 SWAP1 POP JUMP JUMPDEST PUSH0 PUSH1 0x20 DUP3 ADD SWAP1 POP DUP2 DUP2 SUB PUSH0 DUP4 ADD MSTORE PUSH2 0x2619 DUP2 PUSH2 0x25E0 JUMP JUMPDEST SWAP1 POP SWAP2 SWAP1 POP JUMP JUMPDEST PUSH0 DUP2 SWAP1 POP SWAP3 SWAP2 POP POP JUMP JUMPDEST DUP3 DUP2 DUP4 CALLDATACOPY PUSH0 DUP4 DUP4 ADD MSTORE POP POP POP JUMP JUMPDEST PUSH0 PUSH2 0x2643 DUP4 DUP6 PUSH2 0x2620 JUMP JUMPDEST SWAP4 POP PUSH2 0x2650 DUP4 DUP6 DUP5 PUSH2 0x262A JUMP JUMPDEST DUP3 DUP5 ADD SWAP1 POP SWAP4 SWAP3 POP POP POP JUMP JUMPDEST PUSH0 PUSH2 0x2668 DUP3 DUP5 DUP7 PUSH2 0x2638 JUMP JUMPDEST SWAP2 POP DUP2 SWAP1 POP SWAP4 SWAP3 POP POP POP JUMP JUMPDEST PUSH32 0x4368756E6B20746F6F206C617267650000000000000000000000000000000000 PUSH0 DUP3 ADD MSTORE POP JUMP JUMPDEST PUSH0 PUSH2 0x26A8 PUSH1 0xF DUP4 PUSH2 0x22F0 JUMP JUMPDEST SWAP2 POP PUSH2 0x26B3 DUP3 PUSH2 0x2674 JUMP JUMPDEST PUSH1 0x20 DUP3 ADD SWAP1 POP SWAP2 SWAP1 POP JUMP JUMPDEST PUSH0 PUSH1 0x20 DUP3 ADD SWAP1 POP DUP2 DUP2 SUB PUSH0 DUP4 ADD MSTORE PUSH2 0x26D5 DUP2 PUSH2 0x269C JUMP JUMPDEST SWAP1 POP SWAP2 SWAP1 POP JUMP JUMPDEST PUSH32 0x496E76616C69642066696C652073697A65000000000000000000000000000000 PUSH0 DUP3 ADD MSTORE POP JUMP JUMPDEST PUSH0 PUSH2 0x2710 PUSH1 0x11 DUP4 PUSH2 0x22F0 JUMP JUMPDEST SWAP2 POP PUSH2 0x271B DUP3 PUSH2 0x26DC JUMP JUMPDEST PUSH1 0x20 DUP3 ADD SWAP1 POP SWAP2 SWAP1 POP JUMP JUMPDEST PUSH0 PUSH1 0x20 DUP3 ADD SWAP1 POP DUP2 DUP2 SUB PUSH0 DUP4 ADD MSTORE PUSH2 0x273D DUP2 PUSH2 0x2704 JUMP JUMPDEST SWAP1 POP SWAP2 SWAP1 POP JUMP JUMPDEST PUSH32 0x496E76616C6964206368756E6B20636F756E7400000000000000000000000000 PUSH0 DUP3 ADD MSTORE POP JUMP JUMPDEST PUSH0 PUSH2 0x2778 PUSH1 0x13 DUP4 PUSH2 0x22F0 JUMP JUMPDEST SWAP2 POP PUSH2 0x2783 DUP3 PUSH2 0x2744 JUMP JUMPDEST PUSH1 0x20 DUP3 ADD SWAP1 POP SWAP2 SWAP1 POP JUMP JUMPDEST PUSH0 PUSH1 0x20 DUP3 ADD SWAP1 POP DUP2 DUP2 SUB PUSH0 DUP4 ADD MSTORE PUSH2 0x27A5 DUP2 PUSH2 0x276C JUMP JUMPDEST SWAP1 POP SWAP2 SWAP1 POP JUMP JUMPDEST PUSH32 0x46696C6520616C72656164792065786973747300000000000000000000000000 PUSH0 DUP3 ADD MSTORE POP JUMP JUMPDEST PUSH0 PUSH2 0x27E0 PUSH1 0x13 DUP4 PUSH2 0x22F0 JUMP JUMPDEST SWAP2 POP PUSH2 0x27EB DUP3 PUSH2 0x27AC JUMP JUMPDEST PUSH1 0x20 DUP3 ADD SWAP1 POP SWAP2 SWAP1 POP JUMP JUMPDEST PUSH0 PUSH1 0x20 DUP3 ADD SWAP1 POP DUP2 DUP2 SUB PUSH0 DUP4 ADD MSTORE PUSH2 0x280D DUP2 PUSH2 0x27D4 JUMP JUMPDEST SWAP1 POP SWAP2 SWAP1 POP JUMP JUMPDEST PUSH0 PUSH1 0x60 DUP3 ADD SWAP1 POP PUSH2 0x2827 PUSH0 DUP4 ADD DUP7 PUSH2 0x1B5A JUMP JUMPDEST PUSH2 0x2834 PUSH1 0x20 DUP4 ADD DUP6 PUSH2 0x1B5A JUMP JUMPDEST PUSH2 0x2841 PUSH1 0x40 DUP4 ADD DUP5 PUSH2 0x1A37 JUMP JUMPDEST SWAP5 SWAP4 POP POP POP POP JUMP INVALID LOG2 PUSH5 0x6970667358 0x22 SLT KECCAK256 TIMESTAMP BLOBHASH DUP3 PUSH31 0xAE048FC7F4ADFBEE6D2AA27CB80F0F59EEDC98ECE5BB34A6DD9E9E9964736F PUSH13 0x634300081A0033000000000000 "
		},
		"gasEstimates": {
			"creation": {
				"codeDepositCost": "2073400",
				"executionCost": "infinite",
				"totalCost": "infinite"
			},
			"external": {
				"MAX_CHUNK_SIZE()": "415",
				"MAX_FILE_SIZE()": "348",
				"fileExists(bytes32)": "2862",
				"getChunkCount(bytes32)": "5161",
				"getChunkInfo(bytes32,uint256)": "infinite",
				"getFileMetadata(bytes32)": "infinite",
				"getFileSize(bytes32)": "5073",
				"hasAccess(bytes32,address)": "3140",
				"owner()": "2582",
				"removeFile(bytes32)": "104386",
				"renounceOwnership()": "infinite",
				"retrieveChunk(bytes32,uint256)": "infinite",
				"retrieveFile(bytes32)": "infinite",
				"storeChunk(bytes32,uint256,bytes)": "infinite",
				"storeChunk(bytes32,uint256,bytes,bool)": "infinite",
				"storeChunk(bytes32,uint256,bytes,bytes32)": "infinite",
				"storeFile(bytes32,bytes,bool,bytes32)": "infinite",
				"storeFile(bytes32,uint256,uint256,bool,string)": "infinite",
				"storeFile(bytes32,uint256,uint256,string,bool,string,bytes32)": "infinite",
				"transferOwnership(address)": "infinite",
				"updateEncryption(bytes32,bool)": "infinite",
				"updateEncryption(bytes32,bytes32)": "infinite",
				"verifyChunk(bytes32,uint256,bytes,bytes32)": "infinite",
				"verifyChunk(bytes32,uint256,bytes32)": "infinite"
			},
			"internal": {
				"_createFile(bytes32,uint256,uint256,bool,bytes32)": "infinite",
				"_storeChunk(bytes32,uint256,bytes calldata,bytes32)": "infinite"
			}
		},
		"methodIdentifiers": {
			"MAX_CHUNK_SIZE()": "2f0e14fb",
			"MAX_FILE_SIZE()": "5a9baf37",
			"fileExists(bytes32)": "0cec5f62",
			"getChunkCount(bytes32)": "f292671b",
			"getChunkInfo(bytes32,uint256)": "2a4d4280",
			"getFileMetadata(bytes32)": "65f35371",
			"getFileSize(bytes32)": "d3bb8b96",
			"hasAccess(bytes32,address)": "83177db3",
			"owner()": "8da5cb5b",
			"removeFile(bytes32)": "0bef429b",
			"renounceOwnership()": "715018a6",
			"retrieveChunk(bytes32,uint256)": "d2b18b60",
			"retrieveFile(bytes32)": "87ebbf67",
			"storeChunk(bytes32,uint256,bytes)": "6a2b0518",
			"storeChunk(bytes32,uint256,bytes,bool)": "4d73269c",
			"storeChunk(bytes32,uint256,bytes,bytes32)": "6e2d7d38",
			"storeFile(bytes32,bytes,bool,bytes32)": "760fc7b8",
			"storeFile(bytes32,uint256,uint256,bool,string)": "d4838061",
			"storeFile(bytes32,uint256,uint256,string,bool,string,bytes32)": "dafc9fc1",
			"transferOwnership(address)": "f2fde38b",
			"updateEncryption(bytes32,bool)": "a4f39329",
			"updateEncryption(bytes32,bytes32)": "49385399",
			"verifyChunk(bytes32,uint256,bytes,bytes32)": "d88eedf6",
			"verifyChunk(bytes32,uint256,bytes32)": "ab2cbcb3"
		}
	},
	"abi": [
		{
			"inputs": [
				{
					"internalType": "address",
					"name": "initialOwner",
					"type": "address"
				}
			],
			"stateMutability": "nonpayable",
			"type": "constructor"
		},
		{
			"inputs": [
				{
					"internalType": "address",
					"name": "owner",
					"type": "address"
				}
			],
			"name": "OwnableInvalidOwner",
			"type": "error"
		},
		{
			"inputs": [
				{
					"internalType": "address",
					"name": "account",
					"type": "address"
				}
			],
			"name": "OwnableUnauthorizedAccount",
			"type": "error"
		},
		{
			"inputs": [],
			"name": "ReentrancyGuardReentrantCall",
			"type": "error"
		},
		{
			"anonymous": false,
			"inputs": [
				{
					"indexed": true,
					"internalType": "bytes32",
					"name": "fileHash",
					"type": "bytes32"
				},
				{
					"indexed": true,
					"internalType": "uint256",
					"name": "chunkIndex",
					"type": "uint256"
				},
				{
					"indexed": false,
					"internalType": "bytes32",
					"name": "chunkHash",
					"type": "bytes32"
				}
			],
			"name": "ChunkStored",
			"type": "event"
		},
		{
			"anonymous": false,
			"inputs": [
				{
					"indexed": true,
					"internalType": "bytes32",
					"name": "fileHash",
					"type": "bytes32"
				},
				{
					"indexed": false,
					"internalType": "bytes32",
					"name": "encryptionProof",
					"type": "bytes32"
				}
			],
			"name": "EncryptionUpdated",
			"type": "event"
		},
		{
			"anonymous": false,
			"inputs": [
				{
					"indexed": true,
					"internalType": "bytes32",
					"name": "fileHash",
					"type": "bytes32"
				},
				{
					"indexed": true,
					"internalType": "address",
					"name": "owner",
					"type": "address"
				}
			],
			"name": "FileRemoved",
			"type": "event"
		},
		{
			"anonymous": false,
			"inputs": [
				{
					"indexed": true,
					"internalType": "bytes32",
					"name": "fileHash",
					"type": "bytes32"
				},
				{
					"indexed": true,
					"internalType": "address",
					"name": "requester",
					"type": "address"
				}
			],
			"name": "FileRetrieved",
			"type": "event"
		},
		{
			"anonymous": false,
			"inputs": [
				{
					"indexed": true,
					"internalType": "bytes32",
					"name": "fileHash",
					"type": "bytes32"
				},
				{
					"indexed": true,
					"internalType": "address",
					"name": "owner",
					"type": "address"
				},
				{
					"indexed": false,
					"internalType": "uint256",
					"name": "size",
					"type": "uint256"
				},
				{
					"indexed": false,
					"internalType": "uint256",
					"name": "chunks",
					"type": "uint256"
				},
				{
					"indexed": false,
					"internalType": "bool",
					"name": "encrypted",
					"type": "bool"
				}
			],
			"name": "FileStored",
			"type": "event"
		},
		{
			"anonymous": false,
			"inputs": [
				{
					"indexed": true,
					"internalType": "address",
					"name": "previousOwner",
					"type": "address"
				},
				{
					"indexed": true,
					"internalType": "address",
					"name": "newOwner",
					"type": "address"
				}
			],
			"name": "OwnershipTransferred",
			"type": "event"
		},
		{
			"inputs": [],
			"name": "MAX_CHUNK_SIZE",
			"outputs": [
				{
					"internalType": "uint256",
					"name": "",
					"type": "uint256"
				}
			],
			"stateMutability": "view",
			"type": "function"
		},
		{
			"inputs": [],
			"name": "MAX_FILE_SIZE",
			"outputs": [
				{
					"internalType": "uint256",
					"name": "",
					"type": "uint256"
				}
			],
			"stateMutability": "view",
			"type": "function"
		},
		{
			"inputs": [
				{
					"internalType": "bytes32",
					"name": "fileHash",
					"type": "bytes32"
				}
			],
			"name": "fileExists",
			"outputs": [
				{
					"internalType": "bool",
					"name": "",
					"type": "bool"
				}
			],
			"stateMutability": "view",
			"type": "function"
		},
		{
			"inputs": [
				{
					"internalType": "bytes32",
					"name": "fileHash",
					"type": "bytes32"
				}
			],
			"name": "getChunkCount",
			"outputs": [
				{
					"internalType": "uint256",
					"name": "",
					"type": "uint256"
				}
			],
			"stateMutability": "view",
			"type": "function"
		},
		{
			"inputs": [
				{
					"internalType": "bytes32",
					"name": "fileHash",
					"type": "bytes32"
				},
				{
					"internalType": "uint256",
					"name": "index",
					"type": "uint256"
				}
			],
			"name": "getChunkInfo",
			"outputs": [
				{
					"components": [
						{
							"internalType": "uint256",
							"name": "index",
							"type": "uint256"
						},
						{
							"internalType": "uint256",
							"name": "size",
							"type": "uint256"
						},
						{
							"internalType": "bytes32",
							"name": "hash",
							"type": "bytes32"
						},
						{
							"internalType": "bytes32",
							"name": "proof",
							"type": "bytes32"
						}
					],
					"internalType": "struct IStorage.ChunkInfo",
					"name": "",
					"type": "tuple"
				}
			],
			"stateMutability": "view",
			"type": "function"
		},
		{
			"inputs": [
				{
					"internalType": "bytes32",
					"name": "fileHash",
					"type": "bytes32"
				}
			],
			"name": "getFileMetadata",
			"outputs": [
				{
					"components": [
						{
							"internalType": "bytes32",
							"name": "fileHash",
							"type": "bytes32"
						},
						{
							"internalType": "address",
							"name": "owner",
							"type": "address"
						},
						{
							"internalType": "uint256",
							"name": "size",
							"type": "uint256"
						},
						{
							"internalType": "uint256",
							"name": "created",
							"type": "uint256"
						},
						{
							"internalType": "bool",
							"name": "isEncrypted",
							"type": "bool"
						},
						{
							"internalType": "bytes32",
							"name": "encryptionProof",
							"type": "bytes32"
						},
						{
							"internalType": "uint256",
							"name": "chunks",
							"type": "uint256"
						},
						{
							"internalType": "bool",
							"name": "exists",
							"type": "bool"
						}
					],
					"internalType": "struct IStorage.FileMetadata",
					"name": "",
					"type": "tuple"
				}
			],
			"stateMutability": "view",
			"type": "function"
		},
		{
			"inputs": [
				{
					"internalType": "bytes32",
					"name": "fileHash",
					"type": "bytes32"
				}
			],
			"name": "getFileSize",
			"outputs": [
				{
					"internalType": "uint256",
					"name": "",
					"type": "uint256"
				}
			],
			"stateMutability": "view",
			"type": "function"
		},
		{
			"inputs": [
				{
					"internalType": "bytes32",
					"name": "fileHash",
					"type": "bytes32"
				},
				{
					"internalType": "address",
					"name": "user",
					"type": "address"
				}
			],
			"name": "hasAccess",
			"outputs": [
				{
					"internalType": "bool",
					"name": "",
					"type": "bool"
				}
			],
			"stateMutability": "view",
			"type": "function"
		},
		{
			"inputs": [],
			"name": "owner",
			"outputs": [
				{
					"internalType": "address",
					"name": "",
					"type": "address"
				}
			],
			"stateMutability": "view",
			"type": "function"
		},
		{
			"inputs": [
				{
					"internalType": "bytes32",
					"name": "fileHash",
					"type": "bytes32"
				}
			],
			"name": "removeFile",
			"outputs": [],
			"stateMutability": "nonpayable",
			"type": "function"
		},
		{
			"inputs": [],
			"name": "renounceOwnership",
			"outputs": [],
			"stateMutability": "nonpayable",
			"type": "function"
		},
		{
			"inputs": [
				{
					"internalType": "bytes32",
					"name": "fileHash",
					"type": "bytes32"
				},
				{
					"internalType": "uint256",
					"name": "index",
					"type": "uint256"
				}
			],
			"name": "retrieveChunk",
			"outputs": [
				{
					"internalType": "bytes",
					"name": "",
					"type": "bytes"
				}
			],
			"stateMutability": "view",
			"type": "function"
		},
		{
			"inputs": [
				{
					"internalType": "bytes32",
					"name": "fileHash",
					"type": "bytes32"
				}
			],
			"name": "retrieveFile",
			"outputs": [
				{
					"components": [
						{
							"internalType": "bytes32",
							"name": "fileHash",
							"type": "bytes32"
						},
						{
							"internalType": "address",
							"name": "owner",
							"type": "address"
						},
						{
							"internalType": "uint256",
							"name": "size",
							"type": "uint256"
						},
						{
							"internalType": "uint256",
							"name": "created",
							"type": "uint256"
						},
						{
							"internalType": "bool",
							"name": "isEncrypted",
							"type": "bool"
						},
						{
							"internalType": "bytes32",
							"name": "encryptionProof",
							"type": "bytes32"
						},
						{
							"internalType": "uint256",
							"name": "chunks",
							"type": "uint256"
						},
						{
							"internalType": "bool",
							"name": "exists",
							"type": "bool"
						}
					],
					"internalType": "struct IStorage.FileMetadata",
					"name": "",
					"type": "tuple"
				}
			],
			"stateMutability": "view",
			"type": "function"
		},
		{
			"inputs": [
				{
					"internalType": "bytes32",
					"name": "fileHash",
					"type": "bytes32"
				},
				{
					"internalType": "uint256",
					"name": "index",
					"type": "uint256"
				},
				{
					"internalType": "bytes",
					"name": "data",
					"type": "bytes"
				},
				{
					"internalType": "bool",
					"name": "isEncrypted",
					"type": "bool"
				}
			],
			"name": "storeChunk",
			"outputs": [
				{
					"internalType": "bool",
					"name": "",
					"type": "bool"
				}
			],
			"stateMutability": "nonpayable",
			"type": "function"
		},
		{
			"inputs": [
				{
					"internalType": "bytes32",
					"name": "fileHash",
					"type": "bytes32"
				},
				{
					"internalType": "uint256",
					"name": "index",
					"type": "uint256"
				},
				{
					"internalType": "bytes",
					"name": "data",
					"type": "bytes"
				}
			],
			"name": "storeChunk",
			"outputs": [
				{
					"internalType": "bool",
					"name": "",
					"type": "bool"
				}
			],
			"stateMutability": "nonpayable",
			"type": "function"
		},
		{
			"inputs": [
				{
					"internalType": "bytes32",
					"name": "fileHash",
					"type": "bytes32"
				},
				{
					"internalType": "uint256",
					"name": "chunkIndex",
					"type": "uint256"
				},
				{
					"internalType": "bytes",
					"name": "data",
					"type": "bytes"
				},
				{
					"internalType": "bytes32",
					"name": "proof",
					"type": "bytes32"
				}
			],
			"name": "storeChunk",
			"outputs": [],
			"stateMutability": "nonpayable",
			"type": "function"
		},
		{
			"inputs": [
				{
					"internalType": "bytes32",
					"name": "fileHash",
					"type": "bytes32"
				},
				{
					"internalType": "bytes",
					"name": "data",
					"type": "bytes"
				},
				{
					"internalType": "bool",
					"name": "isEncrypted",
					"type": "bool"
				},
				{
					"internalType": "bytes32",
					"name": "encryptionProof",
					"type": "bytes32"
				}
			],
			"name": "storeFile",
			"outputs": [],
			"stateMutability": "nonpayable",
			"type": "function"
		},
		{
			"inputs": [
				{
					"internalType": "bytes32",
					"name": "fileHash",
					"type": "bytes32"
				},
				{
					"internalType": "uint256",
					"name": "size",
					"type": "uint256"
				},
				{
					"internalType": "uint256",
					"name": "chunks",
					"type": "uint256"
				},
				{
					"internalType": "bool",
					"name": "encrypted",
					"type": "bool"
				},
				{
					"internalType": "string",
					"name": "contentType",
					"type": "string"
				}
			],
			"name": "storeFile",
			"outputs": [
				{
					"internalType": "bool",
					"name": "",
					"type": "bool"
				}
			],
			"stateMutability": "nonpayable",
			"type": "function"
		},
		{
			"inputs": [
				{
					"internalType": "bytes32",
					"name": "fileHash",
					"type": "bytes32"
				},
				{
					"internalType": "uint256",
					"name": "size",
					"type": "uint256"
				},
				{
					"internalType": "uint256",
					"name": "chunkCount",
					"type": "uint256"
				},
				{
					"internalType": "string",
					"name": "contentType",
					"type": "string"
				},
				{
					"internalType": "bool",
					"name": "isEncrypted",
					"type": "bool"
				},
				{
					"internalType": "string",
					"name": "encryptionType",
					"type": "string"
				},
				{
					"internalType": "bytes32",
					"name": "encryptionKey",
					"type": "bytes32"
				}
			],
			"name": "storeFile",
			"outputs": [
				{
					"internalType": "bool",
					"name": "",
					"type": "bool"
				}
			],
			"stateMutability": "nonpayable",
			"type": "function"
		},
		{
			"inputs": [
				{
					"internalType": "address",
					"name": "newOwner",
					"type": "address"
				}
			],
			"name": "transferOwnership",
			"outputs": [],
			"stateMutability": "nonpayable",
			"type": "function"
		},
		{
			"inputs": [
				{
					"internalType": "bytes32",
					"name": "fileHash",
					"type": "bytes32"
				},
				{
					"internalType": "bytes32",
					"name": "encryptionProof",
					"type": "bytes32"
				}
			],
			"name": "updateEncryption",
			"outputs": [],
			"stateMutability": "nonpayable",
			"type": "function"
		},
		{
			"inputs": [
				{
					"internalType": "bytes32",
					"name": "fileHash",
					"type": "bytes32"
				},
				{
					"internalType": "bool",
					"name": "encrypted",
					"type": "bool"
				}
			],
			"name": "updateEncryption",
			"outputs": [
				{
					"internalType": "bool",
					"name": "",
					"type": "bool"
				}
			],
			"stateMutability": "nonpayable",
			"type": "function"
		},
		{
			"inputs": [
				{
					"internalType": "bytes32",
					"name": "fileHash",
					"type": "bytes32"
				},
				{
					"internalType": "uint256",
					"name": "index",
					"type": "uint256"
				},
				{
					"internalType": "bytes32",
					"name": "chunkHash",
					"type": "bytes32"
				}
			],
			"name": "verifyChunk",
			"outputs": [
				{
					"internalType": "bool",
					"name": "",
					"type": "bool"
				}
			],
			"stateMutability": "view",
			"type": "function"
		},
		{
			"inputs": [
				{
					"internalType": "bytes32",
					"name": "fileHash",
					"type": "bytes32"
				},
				{
					"internalType": "uint256",
					"name": "chunkIndex",
					"type": "uint256"
				},
				{
					"internalType": "bytes",
					"name": "data",
					"type": "bytes"
				},
				{
					"internalType": "bytes32",
					"name": "proof",
					"type": "bytes32"
				}
			],
			"name": "verifyChunk",
			"outputs": [
				{
					"internalType": "bool",
					"name": "",
					"type": "bool"
				}
			],
			"stateMutability": "view",
			"type": "function"
		}
	]
}