{
	"data": {
		"bytecode": {
			"linkReferences": {},
			"object": "60a060405234801561000f575f80fd5b50604051612b20380380612b208339818101604052810190610031919061029a565b805f73ffffffffffffffffffffffffffffffffffffffff168173ffffffffffffffffffffffffffffffffffffffff16036100a2575f6040517f1e4fbdf700000000000000000000000000000000000000000000000000000000815260040161009991906102e7565b60405180910390fd5b6100b18161017b60201b60201c565b50600180819055505f60025f6101000a81548160ff0219169083151502179055505f73ffffffffffffffffffffffffffffffffffffffff168273ffffffffffffffffffffffffffffffffffffffff1603610140576040517f08c379a00000000000000000000000000000000000000000000000000000000081526004016101379061035a565b60405180910390fd5b8173ffffffffffffffffffffffffffffffffffffffff1660808173ffffffffffffffffffffffffffffffffffffffff16815250505050610378565b5f805f9054906101000a900473ffffffffffffffffffffffffffffffffffffffff169050815f806101000a81548173ffffffffffffffffffffffffffffffffffffffff021916908373ffffffffffffffffffffffffffffffffffffffff1602179055508173ffffffffffffffffffffffffffffffffffffffff168173ffffffffffffffffffffffffffffffffffffffff167f8be0079c531659141344cd1fd0a4f28419497f9722a3daafe3b4186f6b6457e060405160405180910390a35050565b5f80fd5b5f73ffffffffffffffffffffffffffffffffffffffff82169050919050565b5f61026982610240565b9050919050565b6102798161025f565b8114610283575f80fd5b50565b5f8151905061029481610270565b92915050565b5f80604083850312156102b0576102af61023c565b5b5f6102bd85828601610286565b92505060206102ce85828601610286565b9150509250929050565b6102e18161025f565b82525050565b5f6020820190506102fa5f8301846102d8565b92915050565b5f82825260208201905092915050565b7f496e76616c696420426974546f7272656e7420616464726573730000000000005f82015250565b5f610344601a83610300565b915061034f82610310565b602082019050919050565b5f6020820190508181035f83015261037181610338565b9050919050565b6080516127896103975f395f81816105d90152610aea01526127895ff3fe608060405234801561000f575f80fd5b506004361061012a575f3560e01c80637ecf686d116100ab578063b08eff561161006f578063b08eff5614610336578063cb57dc3e14610366578063d796ad6d14610396578063f2fde38b146103c6578063fc8221a9146103e25761012a565b80637ecf686d1461028c5780638456cb59146102bc5780638da5cb5b146102c6578063914acecd146102e457806398c9adff146103005761012a565b80634f1c6447116100f25780634f1c6447146101e65780635c975abb146102045780635d41f36e1461022257806363a787e214610252578063715018a6146102825761012a565b806302e291b11461012e5780631b81f8291461015e5780631ba82d421461018e578063280ee92a146101be5780633f4ba83a146101dc575b5f80fd5b61014860048036038101906101439190611c24565b610412565b6040516101559190611c5e565b60405180910390f35b61017860048036038101906101739190611cbd565b610427565b6040516101859190611d17565b60405180910390f35b6101a860048036038101906101a39190611dbd565b610595565b6040516101b59190611d17565b60405180910390f35b6101c66105bf565b6040516101d39190611c5e565b60405180910390f35b6101e46105c5565b005b6101ee6105d7565b6040516101fb9190611e56565b60405180910390f35b61020c6105fb565b6040516102199190611d17565b60405180910390f35b61023c60048036038101906102379190611c24565b610610565b6040516102499190611c5e565b60405180910390f35b61026c60048036038101906102679190611c24565b610625565b6040516102799190611c5e565b60405180910390f35b61028a61063a565b005b6102a660048036038101906102a19190611e6f565b61064d565b6040516102b39190611d17565b60405180910390f35b6102c461066a565b005b6102ce61067c565b6040516102db9190611ea9565b60405180910390f35b6102fe60048036038101906102f99190611f61565b6106a3565b005b61031a60048036038101906103159190611e6f565b61095f565b60405161032d9796959493929190612009565b60405180910390f35b610350600480360381019061034b9190612076565b6109c9565b60405161035d9190611d17565b60405180910390f35b610380600480360381019061037b91906120b4565b6109f3565b60405161038d9190611c5e565b60405180910390f35b6103b060048036038101906103ab91906120f2565b610a13565b6040516103bd9190611d17565b60405180910390f35b6103e060048036038101906103db9190612157565b610d87565b005b6103fc60048036038101906103f791906120b4565b610e0b565b6040516104099190611c5e565b60405180910390f35b6003602052805f5260405f205f915090505481565b5f61058d6040518060400160405280855f6008811061044957610448612182565b5b602002013581526020018560016008811061046757610466612182565b5b6020020135815250604051806040016040528060405180604001604052808860026008811061049957610498612182565b5b60200201358152602001886003600881106104b7576104b6612182565b5b602002013581525081526020016040518060400160405280886004600881106104e3576104e2612182565b5b602002013581526020018860056008811061050157610500612182565b5b602002013581525081525060405180604001604052808760066008811061052b5761052a612182565b5b602002013581526020018760076008811061054957610548612182565b5b60200201358152508560018060200260405190810160405280929190826001602002808284375f81840152601f19601f820116905080830192505050505050610e2b565b905092915050565b600b602052815f5260405f20602052805f5260405f205f915091509054906101000a900460ff1681565b60085481565b6105cd61110d565b6105d5611194565b565b7f000000000000000000000000000000000000000000000000000000000000000081565b5f60025f9054906101000a900460ff16905090565b6006602052805f5260405f205f915090505481565b6005602052805f5260405f205f915090505481565b61064261110d565b61064b5f6111f5565b565b600a602052805f5260405f205f915054906101000a900460ff1681565b61067261110d565b61067a6112b6565b565b5f805f9054906101000a900473ffffffffffffffffffffffffffffffffffffffff16905090565b6106ab61110d565b5f82829050116106f0576040517f08c379a00000000000000000000000000000000000000000000000000000000081526004016106e790612209565b60405180910390fd5b855f6002811061070357610702612182565b5b602002013560035f8081526020019081526020015f20819055508560016002811061073157610730612182565b5b602002013560035f600181526020019081526020015f20819055505f5b60028110156107cf575f5b60028110156107c15786826002811061077557610774612182565b5b60400201816002811061078b5761078a612182565b5b602002013560045f8481526020019081526020015f205f8381526020019081526020015f20819055508080600101915050610759565b50808060010191505061074e565b50835f600281106107e3576107e2612182565b5b602002013560055f8081526020019081526020015f20819055508360016002811061081157610810612182565b5b602002013560055f600181526020019081526020015f2081905550825f6002811061083f5761083e612182565b5b602002013560065f8081526020019081526020015f20819055508260016002811061086d5761086c612182565b5b602002013560065f600181526020019081526020015f2081905550818190506008819055505f5b82829050811015610956578282828181106108b2576108b1612182565b5b9050604002015f600281106108ca576108c9612182565b5b602002013560075f8381526020019081526020015f205f8081526020019081526020015f208190555082828281811061090657610905612182565b5b90506040020160016002811061091f5761091e612182565b5b602002013560075f8381526020019081526020015f205f600181526020019081526020015f20819055508080600101915050610894565b50505050505050565b6009602052805f5260405f205f91509050805f015490806001015490806002015490806003015f9054906101000a900473ffffffffffffffffffffffffffffffffffffffff16908060030160149054906101000a900460ff16908060040154908060050154905087565b600c602052815f5260405f20602052805f5260405f205f915091509054906101000a900460ff1681565b6004602052815f5260405f20602052805f5260405f205f91509150505481565b5f610a1c611318565b610a2461135e565b5f801b8503610a68576040517f08c379a0000000000000000000000000000000000000000000000000000000008152600401610a5f90612271565b60405180910390fd5b5f801b60095f8781526020019081526020015f205f015414610abf576040517f08c379a0000000000000000000000000000000000000000000000000000000008152600401610ab6906122d9565b60405180910390fd5b5f60405180602001604052803373ffffffffffffffffffffffffffffffffffffffff1681525090505f7f000000000000000000000000000000000000000000000000000000000000000073ffffffffffffffffffffffffffffffffffffffff16634f25669388886040518363ffffffff1660e01b8152600401610b439291906122f7565b6020604051808303815f875af1158015610b5f573d5f803e3d5ffd5b505050506040513d601f19601f82011682018060405250810190610b839190612348565b905080610bc5576040517f08c379a0000000000000000000000000000000000000000000000000000000008152600401610bbc906123bd565b60405180910390fd5b3073ffffffffffffffffffffffffffffffffffffffff16631b81f82985846040518363ffffffff1660e01b8152600401610c0092919061249a565b602060405180830381865afa158015610c1b573d5f803e3d5ffd5b505050506040513d601f19601f82011682018060405250810190610c3f9190612348565b610c7e576040517f08c379a0000000000000000000000000000000000000000000000000000000008152600401610c759061250d565b60405180910390fd5b5f60095f8981526020019081526020015f20905087815f018190555086816001018190555085816002018190555033816003015f6101000a81548173ffffffffffffffffffffffffffffffffffffffff021916908373ffffffffffffffffffffffffffffffffffffffff1602179055505f8160030160146101000a81548160ff0219169083151502179055505f801b81600401819055504281600501819055503373ffffffffffffffffffffffffffffffffffffffff1687897f7ee1e7c298f2a2cae66c75263967d60fc11cfd9b694058af3fa496d83548fd248942604051610d6892919061252b565b60405180910390a460019350505050610d7f61139f565b949350505050565b610d8f61110d565b5f73ffffffffffffffffffffffffffffffffffffffff168173ffffffffffffffffffffffffffffffffffffffff1603610dff575f6040517f1e4fbdf7000000000000000000000000000000000000000000000000000000008152600401610df69190611ea9565b60405180910390fd5b610e08816111f5565b50565b6007602052815f5260405f20602052805f5260405f205f91509150505481565b5f600854600180610e3c919061257f565b14610e7c576040517f08c379a0000000000000000000000000000000000000000000000000000000008152600401610e73906125fc565b60405180910390fd5b5f604051806040016040528060075f8081526020019081526020015f205f8081526020019081526020015f2054815260200160075f8081526020019081526020015f205f600181526020019081526020015f205481525090505f5b6001811015610ff7575f80610f70604051806040016040528060075f600188610f00919061257f565b81526020019081526020015f205f8081526020019081526020015f2054815260200160075f600188610f32919061257f565b81526020019081526020015f205f600181526020019081526020015f2054815250878560018110610f6657610f65612182565b5b60200201516113a8565b91509150610faf845f60028110610f8a57610f89612182565b5b602002015185600160028110610fa357610fa2612182565b5b602002015184846113fc565b855f60028110610fc257610fc1612182565b5b6020020186600160028110610fda57610fd9612182565b5b602002018281525082815250505050508080600101915050610ed7565b506111028686604051806040016040528060035f8081526020019081526020015f2054815260200160035f600181526020019081526020015f2054815250604051806040016040528060045f8081526020019081526020015f205f8081526020019081526020015f2054815260200160045f8081526020019081526020015f205f600181526020019081526020015f205481525085604051806040016040528060055f8081526020019081526020015f2054815260200160055f600181526020019081526020015f20548152508a604051806040016040528060065f8081526020019081526020015f2054815260200160065f600181526020019081526020015f2054815250611423565b915050949350505050565b611115611af3565b73ffffffffffffffffffffffffffffffffffffffff1661113361067c565b73ffffffffffffffffffffffffffffffffffffffff161461119257611156611af3565b6040517f118cdaa70000000000000000000000000000000000000000000000000000000081526004016111899190611ea9565b60405180910390fd5b565b61119c611afa565b5f60025f6101000a81548160ff0219169083151502179055507f5db9ee0a495bf2e6ff9c91a7834c1ba4fdd244a5e8aa4e537bd38aeae4b073aa6111de611af3565b6040516111eb9190611ea9565b60405180910390a1565b5f805f9054906101000a900473ffffffffffffffffffffffffffffffffffffffff169050815f806101000a81548173ffffffffffffffffffffffffffffffffffffffff021916908373ffffffffffffffffffffffffffffffffffffffff1602179055508173ffffffffffffffffffffffffffffffffffffffff168173ffffffffffffffffffffffffffffffffffffffff167f8be0079c531659141344cd1fd0a4f28419497f9722a3daafe3b4186f6b6457e060405160405180910390a35050565b6112be61135e565b600160025f6101000a81548160ff0219169083151502179055507f62e78cea01bee320cd4e420270b5ea74000d11b0c9f74754ebdbfc544b05a258611301611af3565b60405161130e9190611ea9565b60405180910390a1565b600260015403611354576040517f3ee5aeb500000000000000000000000000000000000000000000000000000000815260040160405180910390fd5b6002600181905550565b6113666105fb565b1561139d576040517fd93c066500000000000000000000000000000000000000000000000000000000815260040160405180910390fd5b565b60018081905550565b5f8082845f600281106113be576113bd612182565b5b60200201516113cd919061261a565b83856001600281106113e2576113e1612182565b5b60200201516113f1919061261a565b915091509250929050565b5f80838661140a919061257f565b8386611416919061257f565b9150915094509492505050565b5f61142c611ba4565b6114658a5f6002811061144257611441612182565b5b60200201518b60016002811061145b5761145a612182565b5b6020020151611b3a565b8b5f6002811061147857611477612182565b5b602002018c6001600281106114905761148f612182565b5b60200201828152508281525050506114d7845f600281106114b4576114b3612182565b5b6020020151856001600281106114cd576114cc612182565b5b6020020151611b3a565b855f600281106114ea576114e9612182565b5b602002018660016002811061150257611501612182565b5b6020020182815250828152505050895f6002811061152357611522612182565b5b6020020151815f6018811061153b5761153a612182565b5b6020020181815250508960016002811061155857611557612182565b5b60200201518160016018811061157157611570612182565b5b602002018181525050885f6002811061158d5761158c612182565b5b60200201515f600281106115a4576115a3612182565b5b6020020151816002601881106115bd576115bc612182565b5b602002018181525050885f600281106115d9576115d8612182565b5b60200201516001600281106115f1576115f0612182565b5b60200201518160036018811061160a57611609612182565b5b6020020181815250508860016002811061162757611626612182565b5b60200201515f6002811061163e5761163d612182565b5b60200201518160046018811061165757611656612182565b5b6020020181815250508860016002811061167457611673612182565b5b602002015160016002811061168c5761168b612182565b5b6020020151816005601881106116a5576116a4612182565b5b602002018181525050875f600281106116c1576116c0612182565b5b6020020151816006601881106116da576116d9612182565b5b602002018181525050876001600281106116f7576116f6612182565b5b6020020151816007601881106117105761170f612182565b5b602002018181525050865f6002811061172c5761172b612182565b5b60200201518160086018811061174557611744612182565b5b6020020181815250508660016002811061176257611761612182565b5b60200201518160096018811061177b5761177a612182565b5b602002018181525050865f6002811061179757611796612182565b5b602002015181600a601881106117b0576117af612182565b5b602002018181525050866001600281106117cd576117cc612182565b5b602002015181600b601881106117e6576117e5612182565b5b602002018181525050855f6002811061180257611801612182565b5b602002015181600c6018811061181b5761181a612182565b5b6020020181815250508560016002811061183857611837612182565b5b602002015181600d6018811061185157611850612182565b5b602002018181525050845f6002811061186d5761186c612182565b5b602002015181600e6018811061188657611885612182565b5b602002018181525050846001600281106118a3576118a2612182565b5b602002015181600f601881106118bc576118bb612182565b5b602002018181525050845f600281106118d8576118d7612182565b5b6020020151816010601881106118f1576118f0612182565b5b6020020181815250508460016002811061190e5761190d612182565b5b60200201518160116018811061192757611926612182565b5b602002018181525050835f6002811061194357611942612182565b5b60200201518160126018811061195c5761195b612182565b5b6020020181815250508360016002811061197957611978612182565b5b60200201518160136018811061199257611991612182565b5b602002018181525050825f600281106119ae576119ad612182565b5b6020020151816014601881106119c7576119c6612182565b5b602002018181525050826001600281106119e4576119e3612182565b5b6020020151816015601881106119fd576119fc612182565b5b602002018181525050825f60028110611a1957611a18612182565b5b602002015181601660188110611a3257611a31612182565b5b60200201818152505082600160028110611a4f57611a4e612182565b5b602002015181601760188110611a6857611a67612182565b5b602002018181525050611a79611bc7565b5f6020826101808560085afa905080611ac7576040517f08c379a0000000000000000000000000000000000000000000000000000000008152600401611abe906126a5565b60405180910390fd5b6001825f60018110611adc57611adb612182565b5b602002015114935050505098975050505050505050565b5f33905090565b611b026105fb565b611b38576040517f8dfc202b00000000000000000000000000000000000000000000000000000000815260040160405180910390fd5b565b5f805f7f30644e72e131a029b85045b68181585d97816a916871ca8d3c208c16d87cfd4790505f85148015611b6e57505f84145b15611b7f575f809250925050611b9d565b848185611b8c91906126f0565b82611b979190612720565b92509250505b9250929050565b604051806103000160405280601890602082028036833780820191505090505090565b6040518060200160405280600190602082028036833780820191505090505090565b5f80fd5b5f80fd5b5f819050919050565b611c0381611bf1565b8114611c0d575f80fd5b50565b5f81359050611c1e81611bfa565b92915050565b5f60208284031215611c3957611c38611be9565b5b5f611c4684828501611c10565b91505092915050565b611c5881611bf1565b82525050565b5f602082019050611c715f830184611c4f565b92915050565b5f80fd5b5f81905082602060080282011115611c9657611c95611c77565b5b92915050565b5f81905082602060010282011115611cb757611cb6611c77565b5b92915050565b5f806101208385031215611cd457611cd3611be9565b5b5f611ce185828601611c7b565b925050610100611cf385828601611c9c565b9150509250929050565b5f8115159050919050565b611d1181611cfd565b82525050565b5f602082019050611d2a5f830184611d08565b92915050565b5f73ffffffffffffffffffffffffffffffffffffffff82169050919050565b5f611d5982611d30565b9050919050565b611d6981611d4f565b8114611d73575f80fd5b50565b5f81359050611d8481611d60565b92915050565b5f819050919050565b611d9c81611d8a565b8114611da6575f80fd5b50565b5f81359050611db781611d93565b92915050565b5f8060408385031215611dd357611dd2611be9565b5b5f611de085828601611d76565b9250506020611df185828601611da9565b9150509250929050565b5f819050919050565b5f611e1e611e19611e1484611d30565b611dfb565b611d30565b9050919050565b5f611e2f82611e04565b9050919050565b5f611e4082611e25565b9050919050565b611e5081611e36565b82525050565b5f602082019050611e695f830184611e47565b92915050565b5f60208284031215611e8457611e83611be9565b5b5f611e9184828501611da9565b91505092915050565b611ea381611d4f565b82525050565b5f602082019050611ebc5f830184611e9a565b92915050565b5f81905082602060020282011115611edd57611edc611c77565b5b92915050565b5f81905082604060020282011115611efe57611efd611c77565b5b92915050565b5f80fd5b5f80fd5b5f8083601f840112611f2157611f20611f04565b5b8235905067ffffffffffffffff811115611f3e57611f3d611f08565b5b602083019150836040820283011115611f5a57611f59611c77565b5b9250929050565b5f805f805f806101608789031215611f7c57611f7b611be9565b5b5f611f8989828a01611ec2565b9650506040611f9a89828a01611ee3565b95505060c0611fab89828a01611ec2565b945050610100611fbd89828a01611ec2565b93505061014087013567ffffffffffffffff811115611fdf57611fde611bed565b5b611feb89828a01611f0c565b92509250509295509295509295565b61200381611d8a565b82525050565b5f60e08201905061201c5f83018a611ffa565b6120296020830189611ffa565b6120366040830188611c4f565b6120436060830187611e9a565b6120506080830186611d08565b61205d60a0830185611ffa565b61206a60c0830184611c4f565b98975050505050505050565b5f806040838503121561208c5761208b611be9565b5b5f61209985828601611da9565b92505060206120aa85828601611da9565b9150509250929050565b5f80604083850312156120ca576120c9611be9565b5b5f6120d785828601611c10565b92505060206120e885828601611c10565b9150509250929050565b5f805f80610160858703121561210b5761210a611be9565b5b5f61211887828801611da9565b945050602061212987828801611da9565b935050604061213a87828801611c10565b925050606061214b87828801611c7b565b91505092959194509250565b5f6020828403121561216c5761216b611be9565b5b5f61217984828501611d76565b91505092915050565b7f4e487b71000000000000000000000000000000000000000000000000000000005f52603260045260245ffd5b5f82825260208201905092915050565b7f496e76616c6964204943206c656e6774680000000000000000000000000000005f82015250565b5f6121f36011836121af565b91506121fe826121bf565b602082019050919050565b5f6020820190508181035f830152612220816121e7565b9050919050565b7f496e76616c696420636f6d6d69746d656e7400000000000000000000000000005f82015250565b5f61225b6012836121af565b915061226682612227565b602082019050919050565b5f6020820190508181035f8301526122888161224f565b9050919050565b7f46696c6520616c726561647920657869737473000000000000000000000000005f82015250565b5f6122c36013836121af565b91506122ce8261228f565b602082019050919050565b5f6020820190508181035f8301526122f0816122b7565b9050919050565b5f60408201905061230a5f830185611ffa565b6123176020830184611ffa565b9392505050565b61232781611cfd565b8114612331575f80fd5b50565b5f815190506123428161231e565b92915050565b5f6020828403121561235d5761235c611be9565b5b5f61236a84828501612334565b91505092915050565b7f426974546f7272656e7420726567697374726174696f6e206661696c656400005f82015250565b5f6123a7601e836121af565b91506123b282612373565b602082019050919050565b5f6020820190508181035f8301526123d48161239b565b9050919050565b82818337505050565b6123f161010083836123db565b5050565b5f60019050919050565b5f81905092915050565b5f819050919050565b61241b81611bf1565b82525050565b5f61242c8383612412565b60208301905092915050565b5f602082019050919050565b61244d816123f5565b61245781846123ff565b925061246282612409565b805f5b838110156124925781516124798782612421565b965061248483612438565b925050600181019050612465565b505050505050565b5f610120820190506124ae5f8301856123e4565b6124bc610100830184612444565b9392505050565b7f496e76616c69642066696c652070726f6f6600000000000000000000000000005f82015250565b5f6124f76012836121af565b9150612502826124c3565b602082019050919050565b5f6020820190508181035f830152612524816124eb565b9050919050565b5f60408201905061253e5f830185611c4f565b61254b6020830184611c4f565b9392505050565b7f4e487b71000000000000000000000000000000000000000000000000000000005f52601160045260245ffd5b5f61258982611bf1565b915061259483611bf1565b92508282019050808211156125ac576125ab612552565b5b92915050565b7f496e76616c696420696e707574206c656e6774680000000000000000000000005f82015250565b5f6125e66014836121af565b91506125f1826125b2565b602082019050919050565b5f6020820190508181035f830152612613816125da565b9050919050565b5f61262482611bf1565b915061262f83611bf1565b925082820261263d81611bf1565b9150828204841483151761265457612653612552565b5b5092915050565b7f50616972696e6720636865636b206661696c65640000000000000000000000005f82015250565b5f61268f6014836121af565b915061269a8261265b565b602082019050919050565b5f6020820190508181035f8301526126bc81612683565b9050919050565b7f4e487b71000000000000000000000000000000000000000000000000000000005f52601260045260245ffd5b5f6126fa82611bf1565b915061270583611bf1565b925082612715576127146126c3565b5b828206905092915050565b5f61272a82611bf1565b915061273583611bf1565b925082820390508181111561274d5761274c612552565b5b9291505056fea264697066735822122018b194925e0653bbcf84f92967916572aed472e18ad1dd975f4ebd510c9c636864736f6c634300081a0033",
			"opcodes": "PUSH1 0xA0 PUSH1 0x40 MSTORE CALLVALUE DUP1 ISZERO PUSH2 0xF JUMPI PUSH0 DUP1 REVERT JUMPDEST POP PUSH1 0x40 MLOAD PUSH2 0x2B20 CODESIZE SUB DUP1 PUSH2 0x2B20 DUP4 CODECOPY DUP2 DUP2 ADD PUSH1 0x40 MSTORE DUP2 ADD SWAP1 PUSH2 0x31 SWAP2 SWAP1 PUSH2 0x29A JUMP JUMPDEST DUP1 PUSH0 PUSH20 0xFFFFFFFFFFFFFFFFFFFFFFFFFFFFFFFFFFFFFFFF AND DUP2 PUSH20 0xFFFFFFFFFFFFFFFFFFFFFFFFFFFFFFFFFFFFFFFF AND SUB PUSH2 0xA2 JUMPI PUSH0 PUSH1 0x40 MLOAD PUSH32 0x1E4FBDF700000000000000000000000000000000000000000000000000000000 DUP2 MSTORE PUSH1 0x4 ADD PUSH2 0x99 SWAP2 SWAP1 PUSH2 0x2E7 JUMP JUMPDEST PUSH1 0x40 MLOAD DUP1 SWAP2 SUB SWAP1 REVERT JUMPDEST PUSH2 0xB1 DUP2 PUSH2 0x17B PUSH1 0x20 SHL PUSH1 0x20 SHR JUMP JUMPDEST POP PUSH1 0x1 DUP1 DUP2 SWAP1 SSTORE POP PUSH0 PUSH1 0x2 PUSH0 PUSH2 0x100 EXP DUP2 SLOAD DUP2 PUSH1 0xFF MUL NOT AND SWAP1 DUP4 ISZERO ISZERO MUL OR SWAP1 SSTORE POP PUSH0 PUSH20 0xFFFFFFFFFFFFFFFFFFFFFFFFFFFFFFFFFFFFFFFF AND DUP3 PUSH20 0xFFFFFFFFFFFFFFFFFFFFFFFFFFFFFFFFFFFFFFFF AND SUB PUSH2 0x140 JUMPI PUSH1 0x40 MLOAD PUSH32 0x8C379A000000000000000000000000000000000000000000000000000000000 DUP2 MSTORE PUSH1 0x4 ADD PUSH2 0x137 SWAP1 PUSH2 0x35A JUMP JUMPDEST PUSH1 0x40 MLOAD DUP1 SWAP2 SUB SWAP1 REVERT JUMPDEST DUP2 PUSH20 0xFFFFFFFFFFFFFFFFFFFFFFFFFFFFFFFFFFFFFFFF AND PUSH1 0x80 DUP2 PUSH20 0xFFFFFFFFFFFFFFFFFFFFFFFFFFFFFFFFFFFFFFFF AND DUP2 MSTORE POP POP POP POP PUSH2 0x378 JUMP JUMPDEST PUSH0 DUP1 PUSH0 SWAP1 SLOAD SWAP1 PUSH2 0x100 EXP SWAP1 DIV PUSH20 0xFFFFFFFFFFFFFFFFFFFFFFFFFFFFFFFFFFFFFFFF AND SWAP1 POP DUP2 PUSH0 DUP1 PUSH2 0x100 EXP DUP2 SLOAD DUP2 PUSH20 0xFFFFFFFFFFFFFFFFFFFFFFFFFFFFFFFFFFFFFFFF MUL NOT AND SWAP1 DUP4 PUSH20 0xFFFFFFFFFFFFFFFFFFFFFFFFFFFFFFFFFFFFFFFF AND MUL OR SWAP1 SSTORE POP DUP2 PUSH20 0xFFFFFFFFFFFFFFFFFFFFFFFFFFFFFFFFFFFFFFFF AND DUP2 PUSH20 0xFFFFFFFFFFFFFFFFFFFFFFFFFFFFFFFFFFFFFFFF AND PUSH32 0x8BE0079C531659141344CD1FD0A4F28419497F9722A3DAAFE3B4186F6B6457E0 PUSH1 0x40 MLOAD PUSH1 0x40 MLOAD DUP1 SWAP2 SUB SWAP1 LOG3 POP POP JUMP JUMPDEST PUSH0 DUP1 REVERT JUMPDEST PUSH0 PUSH20 0xFFFFFFFFFFFFFFFFFFFFFFFFFFFFFFFFFFFFFFFF DUP3 AND SWAP1 POP SWAP2 SWAP1 POP JUMP JUMPDEST PUSH0 PUSH2 0x269 DUP3 PUSH2 0x240 JUMP JUMPDEST SWAP1 POP SWAP2 SWAP1 POP JUMP JUMPDEST PUSH2 0x279 DUP2 PUSH2 0x25F JUMP JUMPDEST DUP2 EQ PUSH2 0x283 JUMPI PUSH0 DUP1 REVERT JUMPDEST POP JUMP JUMPDEST PUSH0 DUP2 MLOAD SWAP1 POP PUSH2 0x294 DUP2 PUSH2 0x270 JUMP JUMPDEST SWAP3 SWAP2 POP POP JUMP JUMPDEST PUSH0 DUP1 PUSH1 0x40 DUP4 DUP6 SUB SLT ISZERO PUSH2 0x2B0 JUMPI PUSH2 0x2AF PUSH2 0x23C JUMP JUMPDEST JUMPDEST PUSH0 PUSH2 0x2BD DUP6 DUP3 DUP7 ADD PUSH2 0x286 JUMP JUMPDEST SWAP3 POP POP PUSH1 0x20 PUSH2 0x2CE DUP6 DUP3 DUP7 ADD PUSH2 0x286 JUMP JUMPDEST SWAP2 POP POP SWAP3 POP SWAP3 SWAP1 POP JUMP JUMPDEST PUSH2 0x2E1 DUP2 PUSH2 0x25F JUMP JUMPDEST DUP3 MSTORE POP POP JUMP JUMPDEST PUSH0 PUSH1 0x20 DUP3 ADD SWAP1 POP PUSH2 0x2FA PUSH0 DUP4 ADD DUP5 PUSH2 0x2D8 JUMP JUMPDEST SWAP3 SWAP2 POP POP JUMP JUMPDEST PUSH0 DUP3 DUP3 MSTORE PUSH1 0x20 DUP3 ADD SWAP1 POP SWAP3 SWAP2 POP POP JUMP JUMPDEST PUSH32 0x496E76616C696420426974546F7272656E742061646472657373000000000000 PUSH0 DUP3 ADD MSTORE POP JUMP JUMPDEST PUSH0 PUSH2 0x344 PUSH1 0x1A DUP4 PUSH2 0x300 JUMP JUMPDEST SWAP2 POP PUSH2 0x34F DUP3 PUSH2 0x310 JUMP JUMPDEST PUSH1 0x20 DUP3 ADD SWAP1 POP SWAP2 SWAP1 POP JUMP JUMPDEST PUSH0 PUSH1 0x20 DUP3 ADD SWAP1 POP DUP2 DUP2 SUB PUSH0 DUP4 ADD MSTORE PUSH2 0x371 DUP2 PUSH2 0x338 JUMP JUMPDEST SWAP1 POP SWAP2 SWAP1 POP JUMP JUMPDEST PUSH1 0x80 MLOAD PUSH2 0x2789 PUSH2 0x397 PUSH0 CODECOPY PUSH0 DUP2 DUP2 PUSH2 0x5D9 ADD MSTORE PUSH2 0xAEA ADD MSTORE PUSH2 0x2789 PUSH0 RETURN INVALID PUSH1 0x80 PUSH1 0x40 MSTORE CALLVALUE DUP1 ISZERO PUSH2 0xF JUMPI PUSH0 DUP1 REVERT JUMPDEST POP PUSH1 0x4 CALLDATASIZE LT PUSH2 0x12A JUMPI PUSH0 CALLDATALOAD PUSH1 0xE0 SHR DUP1 PUSH4 0x7ECF686D GT PUSH2 0xAB JUMPI DUP1 PUSH4 0xB08EFF56 GT PUSH2 0x6F JUMPI DUP1 PUSH4 0xB08EFF56 EQ PUSH2 0x336 JUMPI DUP1 PUSH4 0xCB57DC3E EQ PUSH2 0x366 JUMPI DUP1 PUSH4 0xD796AD6D EQ PUSH2 0x396 JUMPI DUP1 PUSH4 0xF2FDE38B EQ PUSH2 0x3C6 JUMPI DUP1 PUSH4 0xFC8221A9 EQ PUSH2 0x3E2 JUMPI PUSH2 0x12A JUMP JUMPDEST DUP1 PUSH4 0x7ECF686D EQ PUSH2 0x28C JUMPI DUP1 PUSH4 0x8456CB59 EQ PUSH2 0x2BC JUMPI DUP1 PUSH4 0x8DA5CB5B EQ PUSH2 0x2C6 JUMPI DUP1 PUSH4 0x914ACECD EQ PUSH2 0x2E4 JUMPI DUP1 PUSH4 0x98C9ADFF EQ PUSH2 0x300 JUMPI PUSH2 0x12A JUMP JUMPDEST DUP1 PUSH4 0x4F1C6447 GT PUSH2 0xF2 JUMPI DUP1 PUSH4 0x4F1C6447 EQ PUSH2 0x1E6 JUMPI DUP1 PUSH4 0x5C975ABB EQ PUSH2 0x204 JUMPI DUP1 PUSH4 0x5D41F36E EQ PUSH2 0x222 JUMPI DUP1 PUSH4 0x63A787E2 EQ PUSH2 0x252 JUMPI DUP1 PUSH4 0x715018A6 EQ PUSH2 0x282 JUMPI PUSH2 0x12A JUMP JUMPDEST DUP1 PUSH4 0x2E291B1 EQ PUSH2 0x12E JUMPI DUP1 PUSH4 0x1B81F829 EQ PUSH2 0x15E JUMPI DUP1 PUSH4 0x1BA82D42 EQ PUSH2 0x18E JUMPI DUP1 PUSH4 0x280EE92A EQ PUSH2 0x1BE JUMPI DUP1 PUSH4 0x3F4BA83A EQ PUSH2 0x1DC JUMPI JUMPDEST PUSH0 DUP1 REVERT JUMPDEST PUSH2 0x148 PUSH1 0x4 DUP1 CALLDATASIZE SUB DUP2 ADD SWAP1 PUSH2 0x143 SWAP2 SWAP1 PUSH2 0x1C24 JUMP JUMPDEST PUSH2 0x412 JUMP JUMPDEST PUSH1 0x40 MLOAD PUSH2 0x155 SWAP2 SWAP1 PUSH2 0x1C5E JUMP JUMPDEST PUSH1 0x40 MLOAD DUP1 SWAP2 SUB SWAP1 RETURN JUMPDEST PUSH2 0x178 PUSH1 0x4 DUP1 CALLDATASIZE SUB DUP2 ADD SWAP1 PUSH2 0x173 SWAP2 SWAP1 PUSH2 0x1CBD JUMP JUMPDEST PUSH2 0x427 JUMP JUMPDEST PUSH1 0x40 MLOAD PUSH2 0x185 SWAP2 SWAP1 PUSH2 0x1D17 JUMP JUMPDEST PUSH1 0x40 MLOAD DUP1 SWAP2 SUB SWAP1 RETURN JUMPDEST PUSH2 0x1A8 PUSH1 0x4 DUP1 CALLDATASIZE SUB DUP2 ADD SWAP1 PUSH2 0x1A3 SWAP2 SWAP1 PUSH2 0x1DBD JUMP JUMPDEST PUSH2 0x595 JUMP JUMPDEST PUSH1 0x40 MLOAD PUSH2 0x1B5 SWAP2 SWAP1 PUSH2 0x1D17 JUMP JUMPDEST PUSH1 0x40 MLOAD DUP1 SWAP2 SUB SWAP1 RETURN JUMPDEST PUSH2 0x1C6 PUSH2 0x5BF JUMP JUMPDEST PUSH1 0x40 MLOAD PUSH2 0x1D3 SWAP2 SWAP1 PUSH2 0x1C5E JUMP JUMPDEST PUSH1 0x40 MLOAD DUP1 SWAP2 SUB SWAP1 RETURN JUMPDEST PUSH2 0x1E4 PUSH2 0x5C5 JUMP JUMPDEST STOP JUMPDEST PUSH2 0x1EE PUSH2 0x5D7 JUMP JUMPDEST PUSH1 0x40 MLOAD PUSH2 0x1FB SWAP2 SWAP1 PUSH2 0x1E56 JUMP JUMPDEST PUSH1 0x40 MLOAD DUP1 SWAP2 SUB SWAP1 RETURN JUMPDEST PUSH2 0x20C PUSH2 0x5FB JUMP JUMPDEST PUSH1 0x40 MLOAD PUSH2 0x219 SWAP2 SWAP1 PUSH2 0x1D17 JUMP JUMPDEST PUSH1 0x40 MLOAD DUP1 SWAP2 SUB SWAP1 RETURN JUMPDEST PUSH2 0x23C PUSH1 0x4 DUP1 CALLDATASIZE SUB DUP2 ADD SWAP1 PUSH2 0x237 SWAP2 SWAP1 PUSH2 0x1C24 JUMP JUMPDEST PUSH2 0x610 JUMP JUMPDEST PUSH1 0x40 MLOAD PUSH2 0x249 SWAP2 SWAP1 PUSH2 0x1C5E JUMP JUMPDEST PUSH1 0x40 MLOAD DUP1 SWAP2 SUB SWAP1 RETURN JUMPDEST PUSH2 0x26C PUSH1 0x4 DUP1 CALLDATASIZE SUB DUP2 ADD SWAP1 PUSH2 0x267 SWAP2 SWAP1 PUSH2 0x1C24 JUMP JUMPDEST PUSH2 0x625 JUMP JUMPDEST PUSH1 0x40 MLOAD PUSH2 0x279 SWAP2 SWAP1 PUSH2 0x1C5E JUMP JUMPDEST PUSH1 0x40 MLOAD DUP1 SWAP2 SUB SWAP1 RETURN JUMPDEST PUSH2 0x28A PUSH2 0x63A JUMP JUMPDEST STOP JUMPDEST PUSH2 0x2A6 PUSH1 0x4 DUP1 CALLDATASIZE SUB DUP2 ADD SWAP1 PUSH2 0x2A1 SWAP2 SWAP1 PUSH2 0x1E6F JUMP JUMPDEST PUSH2 0x64D JUMP JUMPDEST PUSH1 0x40 MLOAD PUSH2 0x2B3 SWAP2 SWAP1 PUSH2 0x1D17 JUMP JUMPDEST PUSH1 0x40 MLOAD DUP1 SWAP2 SUB SWAP1 RETURN JUMPDEST PUSH2 0x2C4 PUSH2 0x66A JUMP JUMPDEST STOP JUMPDEST PUSH2 0x2CE PUSH2 0x67C JUMP JUMPDEST PUSH1 0x40 MLOAD PUSH2 0x2DB SWAP2 SWAP1 PUSH2 0x1EA9 JUMP JUMPDEST PUSH1 0x40 MLOAD DUP1 SWAP2 SUB SWAP1 RETURN JUMPDEST PUSH2 0x2FE PUSH1 0x4 DUP1 CALLDATASIZE SUB DUP2 ADD SWAP1 PUSH2 0x2F9 SWAP2 SWAP1 PUSH2 0x1F61 JUMP JUMPDEST PUSH2 0x6A3 JUMP JUMPDEST STOP JUMPDEST PUSH2 0x31A PUSH1 0x4 DUP1 CALLDATASIZE SUB DUP2 ADD SWAP1 PUSH2 0x315 SWAP2 SWAP1 PUSH2 0x1E6F JUMP JUMPDEST PUSH2 0x95F JUMP JUMPDEST PUSH1 0x40 MLOAD PUSH2 0x32D SWAP8 SWAP7 SWAP6 SWAP5 SWAP4 SWAP3 SWAP2 SWAP1 PUSH2 0x2009 JUMP JUMPDEST PUSH1 0x40 MLOAD DUP1 SWAP2 SUB SWAP1 RETURN JUMPDEST PUSH2 0x350 PUSH1 0x4 DUP1 CALLDATASIZE SUB DUP2 ADD SWAP1 PUSH2 0x34B SWAP2 SWAP1 PUSH2 0x2076 JUMP JUMPDEST PUSH2 0x9C9 JUMP JUMPDEST PUSH1 0x40 MLOAD PUSH2 0x35D SWAP2 SWAP1 PUSH2 0x1D17 JUMP JUMPDEST PUSH1 0x40 MLOAD DUP1 SWAP2 SUB SWAP1 RETURN JUMPDEST PUSH2 0x380 PUSH1 0x4 DUP1 CALLDATASIZE SUB DUP2 ADD SWAP1 PUSH2 0x37B SWAP2 SWAP1 PUSH2 0x20B4 JUMP JUMPDEST PUSH2 0x9F3 JUMP JUMPDEST PUSH1 0x40 MLOAD PUSH2 0x38D SWAP2 SWAP1 PUSH2 0x1C5E JUMP JUMPDEST PUSH1 0x40 MLOAD DUP1 SWAP2 SUB SWAP1 RETURN JUMPDEST PUSH2 0x3B0 PUSH1 0x4 DUP1 CALLDATASIZE SUB DUP2 ADD SWAP1 PUSH2 0x3AB SWAP2 SWAP1 PUSH2 0x20F2 JUMP JUMPDEST PUSH2 0xA13 JUMP JUMPDEST PUSH1 0x40 MLOAD PUSH2 0x3BD SWAP2 SWAP1 PUSH2 0x1D17 JUMP JUMPDEST PUSH1 0x40 MLOAD DUP1 SWAP2 SUB SWAP1 RETURN JUMPDEST PUSH2 0x3E0 PUSH1 0x4 DUP1 CALLDATASIZE SUB DUP2 ADD SWAP1 PUSH2 0x3DB SWAP2 SWAP1 PUSH2 0x2157 JUMP JUMPDEST PUSH2 0xD87 JUMP JUMPDEST STOP JUMPDEST PUSH2 0x3FC PUSH1 0x4 DUP1 CALLDATASIZE SUB DUP2 ADD SWAP1 PUSH2 0x3F7 SWAP2 SWAP1 PUSH2 0x20B4 JUMP JUMPDEST PUSH2 0xE0B JUMP JUMPDEST PUSH1 0x40 MLOAD PUSH2 0x409 SWAP2 SWAP1 PUSH2 0x1C5E JUMP JUMPDEST PUSH1 0x40 MLOAD DUP1 SWAP2 SUB SWAP1 RETURN JUMPDEST PUSH1 0x3 PUSH1 0x20 MSTORE DUP1 PUSH0 MSTORE PUSH1 0x40 PUSH0 KECCAK256 PUSH0 SWAP2 POP SWAP1 POP SLOAD DUP2 JUMP JUMPDEST PUSH0 PUSH2 0x58D PUSH1 0x40 MLOAD DUP1 PUSH1 0x40 ADD PUSH1 0x40 MSTORE DUP1 DUP6 PUSH0 PUSH1 0x8 DUP2 LT PUSH2 0x449 JUMPI PUSH2 0x448 PUSH2 0x2182 JUMP JUMPDEST JUMPDEST PUSH1 0x20 MUL ADD CALLDATALOAD DUP2 MSTORE PUSH1 0x20 ADD DUP6 PUSH1 0x1 PUSH1 0x8 DUP2 LT PUSH2 0x467 JUMPI PUSH2 0x466 PUSH2 0x2182 JUMP JUMPDEST JUMPDEST PUSH1 0x20 MUL ADD CALLDATALOAD DUP2 MSTORE POP PUSH1 0x40 MLOAD DUP1 PUSH1 0x40 ADD PUSH1 0x40 MSTORE DUP1 PUSH1 0x40 MLOAD DUP1 PUSH1 0x40 ADD PUSH1 0x40 MSTORE DUP1 DUP9 PUSH1 0x2 PUSH1 0x8 DUP2 LT PUSH2 0x499 JUMPI PUSH2 0x498 PUSH2 0x2182 JUMP JUMPDEST JUMPDEST PUSH1 0x20 MUL ADD CALLDATALOAD DUP2 MSTORE PUSH1 0x20 ADD DUP9 PUSH1 0x3 PUSH1 0x8 DUP2 LT PUSH2 0x4B7 JUMPI PUSH2 0x4B6 PUSH2 0x2182 JUMP JUMPDEST JUMPDEST PUSH1 0x20 MUL ADD CALLDATALOAD DUP2 MSTORE POP DUP2 MSTORE PUSH1 0x20 ADD PUSH1 0x40 MLOAD DUP1 PUSH1 0x40 ADD PUSH1 0x40 MSTORE DUP1 DUP9 PUSH1 0x4 PUSH1 0x8 DUP2 LT PUSH2 0x4E3 JUMPI PUSH2 0x4E2 PUSH2 0x2182 JUMP JUMPDEST JUMPDEST PUSH1 0x20 MUL ADD CALLDATALOAD DUP2 MSTORE PUSH1 0x20 ADD DUP9 PUSH1 0x5 PUSH1 0x8 DUP2 LT PUSH2 0x501 JUMPI PUSH2 0x500 PUSH2 0x2182 JUMP JUMPDEST JUMPDEST PUSH1 0x20 MUL ADD CALLDATALOAD DUP2 MSTORE POP DUP2 MSTORE POP PUSH1 0x40 MLOAD DUP1 PUSH1 0x40 ADD PUSH1 0x40 MSTORE DUP1 DUP8 PUSH1 0x6 PUSH1 0x8 DUP2 LT PUSH2 0x52B JUMPI PUSH2 0x52A PUSH2 0x2182 JUMP JUMPDEST JUMPDEST PUSH1 0x20 MUL ADD CALLDATALOAD DUP2 MSTORE PUSH1 0x20 ADD DUP8 PUSH1 0x7 PUSH1 0x8 DUP2 LT PUSH2 0x549 JUMPI PUSH2 0x548 PUSH2 0x2182 JUMP JUMPDEST JUMPDEST PUSH1 0x20 MUL ADD CALLDATALOAD DUP2 MSTORE POP DUP6 PUSH1 0x1 DUP1 PUSH1 0x20 MUL PUSH1 0x40 MLOAD SWAP1 DUP2 ADD PUSH1 0x40 MSTORE DUP1 SWAP3 SWAP2 SWAP1 DUP3 PUSH1 0x1 PUSH1 0x20 MUL DUP1 DUP3 DUP5 CALLDATACOPY PUSH0 DUP2 DUP5 ADD MSTORE PUSH1 0x1F NOT PUSH1 0x1F DUP3 ADD AND SWAP1 POP DUP1 DUP4 ADD SWAP3 POP POP POP POP POP POP PUSH2 0xE2B JUMP JUMPDEST SWAP1 POP SWAP3 SWAP2 POP POP JUMP JUMPDEST PUSH1 0xB PUSH1 0x20 MSTORE DUP2 PUSH0 MSTORE PUSH1 0x40 PUSH0 KECCAK256 PUSH1 0x20 MSTORE DUP1 PUSH0 MSTORE PUSH1 0x40 PUSH0 KECCAK256 PUSH0 SWAP2 POP SWAP2 POP SWAP1 SLOAD SWAP1 PUSH2 0x100 EXP SWAP1 DIV PUSH1 0xFF AND DUP2 JUMP JUMPDEST PUSH1 0x8 SLOAD DUP2 JUMP JUMPDEST PUSH2 0x5CD PUSH2 0x110D JUMP JUMPDEST PUSH2 0x5D5 PUSH2 0x1194 JUMP JUMPDEST JUMP JUMPDEST PUSH32 0x0 DUP2 JUMP JUMPDEST PUSH0 PUSH1 0x2 PUSH0 SWAP1 SLOAD SWAP1 PUSH2 0x100 EXP SWAP1 DIV PUSH1 0xFF AND SWAP1 POP SWAP1 JUMP JUMPDEST PUSH1 0x6 PUSH1 0x20 MSTORE DUP1 PUSH0 MSTORE PUSH1 0x40 PUSH0 KECCAK256 PUSH0 SWAP2 POP SWAP1 POP SLOAD DUP2 JUMP JUMPDEST PUSH1 0x5 PUSH1 0x20 MSTORE DUP1 PUSH0 MSTORE PUSH1 0x40 PUSH0 KECCAK256 PUSH0 SWAP2 POP SWAP1 POP SLOAD DUP2 JUMP JUMPDEST PUSH2 0x642 PUSH2 0x110D JUMP JUMPDEST PUSH2 0x64B PUSH0 PUSH2 0x11F5 JUMP JUMPDEST JUMP JUMPDEST PUSH1 0xA PUSH1 0x20 MSTORE DUP1 PUSH0 MSTORE PUSH1 0x40 PUSH0 KECCAK256 PUSH0 SWAP2 POP SLOAD SWAP1 PUSH2 0x100 EXP SWAP1 DIV PUSH1 0xFF AND DUP2 JUMP JUMPDEST PUSH2 0x672 PUSH2 0x110D JUMP JUMPDEST PUSH2 0x67A PUSH2 0x12B6 JUMP JUMPDEST JUMP JUMPDEST PUSH0 DUP1 PUSH0 SWAP1 SLOAD SWAP1 PUSH2 0x100 EXP SWAP1 DIV PUSH20 0xFFFFFFFFFFFFFFFFFFFFFFFFFFFFFFFFFFFFFFFF AND SWAP1 POP SWAP1 JUMP JUMPDEST PUSH2 0x6AB PUSH2 0x110D JUMP JUMPDEST PUSH0 DUP3 DUP3 SWAP1 POP GT PUSH2 0x6F0 JUMPI PUSH1 0x40 MLOAD PUSH32 0x8C379A000000000000000000000000000000000000000000000000000000000 DUP2 MSTORE PUSH1 0x4 ADD PUSH2 0x6E7 SWAP1 PUSH2 0x2209 JUMP JUMPDEST PUSH1 0x40 MLOAD DUP1 SWAP2 SUB SWAP1 REVERT JUMPDEST DUP6 PUSH0 PUSH1 0x2 DUP2 LT PUSH2 0x703 JUMPI PUSH2 0x702 PUSH2 0x2182 JUMP JUMPDEST JUMPDEST PUSH1 0x20 MUL ADD CALLDATALOAD PUSH1 0x3 PUSH0 DUP1 DUP2 MSTORE PUSH1 0x20 ADD SWAP1 DUP2 MSTORE PUSH1 0x20 ADD PUSH0 KECCAK256 DUP2 SWAP1 SSTORE POP DUP6 PUSH1 0x1 PUSH1 0x2 DUP2 LT PUSH2 0x731 JUMPI PUSH2 0x730 PUSH2 0x2182 JUMP JUMPDEST JUMPDEST PUSH1 0x20 MUL ADD CALLDATALOAD PUSH1 0x3 PUSH0 PUSH1 0x1 DUP2 MSTORE PUSH1 0x20 ADD SWAP1 DUP2 MSTORE PUSH1 0x20 ADD PUSH0 KECCAK256 DUP2 SWAP1 SSTORE POP PUSH0 JUMPDEST PUSH1 0x2 DUP2 LT ISZERO PUSH2 0x7CF JUMPI PUSH0 JUMPDEST PUSH1 0x2 DUP2 LT ISZERO PUSH2 0x7C1 JUMPI DUP7 DUP3 PUSH1 0x2 DUP2 LT PUSH2 0x775 JUMPI PUSH2 0x774 PUSH2 0x2182 JUMP JUMPDEST JUMPDEST PUSH1 0x40 MUL ADD DUP2 PUSH1 0x2 DUP2 LT PUSH2 0x78B JUMPI PUSH2 0x78A PUSH2 0x2182 JUMP JUMPDEST JUMPDEST PUSH1 0x20 MUL ADD CALLDATALOAD PUSH1 0x4 PUSH0 DUP5 DUP2 MSTORE PUSH1 0x20 ADD SWAP1 DUP2 MSTORE PUSH1 0x20 ADD PUSH0 KECCAK256 PUSH0 DUP4 DUP2 MSTORE PUSH1 0x20 ADD SWAP1 DUP2 MSTORE PUSH1 0x20 ADD PUSH0 KECCAK256 DUP2 SWAP1 SSTORE POP DUP1 DUP1 PUSH1 0x1 ADD SWAP2 POP POP PUSH2 0x759 JUMP JUMPDEST POP DUP1 DUP1 PUSH1 0x1 ADD SWAP2 POP POP PUSH2 0x74E JUMP JUMPDEST POP DUP4 PUSH0 PUSH1 0x2 DUP2 LT PUSH2 0x7E3 JUMPI PUSH2 0x7E2 PUSH2 0x2182 JUMP JUMPDEST JUMPDEST PUSH1 0x20 MUL ADD CALLDATALOAD PUSH1 0x5 PUSH0 DUP1 DUP2 MSTORE PUSH1 0x20 ADD SWAP1 DUP2 MSTORE PUSH1 0x20 ADD PUSH0 KECCAK256 DUP2 SWAP1 SSTORE POP DUP4 PUSH1 0x1 PUSH1 0x2 DUP2 LT PUSH2 0x811 JUMPI PUSH2 0x810 PUSH2 0x2182 JUMP JUMPDEST JUMPDEST PUSH1 0x20 MUL ADD CALLDATALOAD PUSH1 0x5 PUSH0 PUSH1 0x1 DUP2 MSTORE PUSH1 0x20 ADD SWAP1 DUP2 MSTORE PUSH1 0x20 ADD PUSH0 KECCAK256 DUP2 SWAP1 SSTORE POP DUP3 PUSH0 PUSH1 0x2 DUP2 LT PUSH2 0x83F JUMPI PUSH2 0x83E PUSH2 0x2182 JUMP JUMPDEST JUMPDEST PUSH1 0x20 MUL ADD CALLDATALOAD PUSH1 0x6 PUSH0 DUP1 DUP2 MSTORE PUSH1 0x20 ADD SWAP1 DUP2 MSTORE PUSH1 0x20 ADD PUSH0 KECCAK256 DUP2 SWAP1 SSTORE POP DUP3 PUSH1 0x1 PUSH1 0x2 DUP2 LT PUSH2 0x86D JUMPI PUSH2 0x86C PUSH2 0x2182 JUMP JUMPDEST JUMPDEST PUSH1 0x20 MUL ADD CALLDATALOAD PUSH1 0x6 PUSH0 PUSH1 0x1 DUP2 MSTORE PUSH1 0x20 ADD SWAP1 DUP2 MSTORE PUSH1 0x20 ADD PUSH0 KECCAK256 DUP2 SWAP1 SSTORE POP DUP2 DUP2 SWAP1 POP PUSH1 0x8 DUP2 SWAP1 SSTORE POP PUSH0 JUMPDEST DUP3 DUP3 SWAP1 POP DUP2 LT ISZERO PUSH2 0x956 JUMPI DUP3 DUP3 DUP3 DUP2 DUP2 LT PUSH2 0x8B2 JUMPI PUSH2 0x8B1 PUSH2 0x2182 JUMP JUMPDEST JUMPDEST SWAP1 POP PUSH1 0x40 MUL ADD PUSH0 PUSH1 0x2 DUP2 LT PUSH2 0x8CA JUMPI PUSH2 0x8C9 PUSH2 0x2182 JUMP JUMPDEST JUMPDEST PUSH1 0x20 MUL ADD CALLDATALOAD PUSH1 0x7 PUSH0 DUP4 DUP2 MSTORE PUSH1 0x20 ADD SWAP1 DUP2 MSTORE PUSH1 0x20 ADD PUSH0 KECCAK256 PUSH0 DUP1 DUP2 MSTORE PUSH1 0x20 ADD SWAP1 DUP2 MSTORE PUSH1 0x20 ADD PUSH0 KECCAK256 DUP2 SWAP1 SSTORE POP DUP3 DUP3 DUP3 DUP2 DUP2 LT PUSH2 0x906 JUMPI PUSH2 0x905 PUSH2 0x2182 JUMP JUMPDEST JUMPDEST SWAP1 POP PUSH1 0x40 MUL ADD PUSH1 0x1 PUSH1 0x2 DUP2 LT PUSH2 0x91F JUMPI PUSH2 0x91E PUSH2 0x2182 JUMP JUMPDEST JUMPDEST PUSH1 0x20 MUL ADD CALLDATALOAD PUSH1 0x7 PUSH0 DUP4 DUP2 MSTORE PUSH1 0x20 ADD SWAP1 DUP2 MSTORE PUSH1 0x20 ADD PUSH0 KECCAK256 PUSH0 PUSH1 0x1 DUP2 MSTORE PUSH1 0x20 ADD SWAP1 DUP2 MSTORE PUSH1 0x20 ADD PUSH0 KECCAK256 DUP2 SWAP1 SSTORE POP DUP1 DUP1 PUSH1 0x1 ADD SWAP2 POP POP PUSH2 0x894 JUMP JUMPDEST POP POP POP POP POP POP POP JUMP JUMPDEST PUSH1 0x9 PUSH1 0x20 MSTORE DUP1 PUSH0 MSTORE PUSH1 0x40 PUSH0 KECCAK256 PUSH0 SWAP2 POP SWAP1 POP DUP1 PUSH0 ADD SLOAD SWAP1 DUP1 PUSH1 0x1 ADD SLOAD SWAP1 DUP1 PUSH1 0x2 ADD SLOAD SWAP1 DUP1 PUSH1 0x3 ADD PUSH0 SWAP1 SLOAD SWAP1 PUSH2 0x100 EXP SWAP1 DIV PUSH20 0xFFFFFFFFFFFFFFFFFFFFFFFFFFFFFFFFFFFFFFFF AND SWAP1 DUP1 PUSH1 0x3 ADD PUSH1 0x14 SWAP1 SLOAD SWAP1 PUSH2 0x100 EXP SWAP1 DIV PUSH1 0xFF AND SWAP1 DUP1 PUSH1 0x4 ADD SLOAD SWAP1 DUP1 PUSH1 0x5 ADD SLOAD SWAP1 POP DUP8 JUMP JUMPDEST PUSH1 0xC PUSH1 0x20 MSTORE DUP2 PUSH0 MSTORE PUSH1 0x40 PUSH0 KECCAK256 PUSH1 0x20 MSTORE DUP1 PUSH0 MSTORE PUSH1 0x40 PUSH0 KECCAK256 PUSH0 SWAP2 POP SWAP2 POP SWAP1 SLOAD SWAP1 PUSH2 0x100 EXP SWAP1 DIV PUSH1 0xFF AND DUP2 JUMP JUMPDEST PUSH1 0x4 PUSH1 0x20 MSTORE DUP2 PUSH0 MSTORE PUSH1 0x40 PUSH0 KECCAK256 PUSH1 0x20 MSTORE DUP1 PUSH0 MSTORE PUSH1 0x40 PUSH0 KECCAK256 PUSH0 SWAP2 POP SWAP2 POP POP SLOAD DUP2 JUMP JUMPDEST PUSH0 PUSH2 0xA1C PUSH2 0x1318 JUMP JUMPDEST PUSH2 0xA24 PUSH2 0x135E JUMP JUMPDEST PUSH0 DUP1 SHL DUP6 SUB PUSH2 0xA68 JUMPI PUSH1 0x40 MLOAD PUSH32 0x8C379A000000000000000000000000000000000000000000000000000000000 DUP2 MSTORE PUSH1 0x4 ADD PUSH2 0xA5F SWAP1 PUSH2 0x2271 JUMP JUMPDEST PUSH1 0x40 MLOAD DUP1 SWAP2 SUB SWAP1 REVERT JUMPDEST PUSH0 DUP1 SHL PUSH1 0x9 PUSH0 DUP8 DUP2 MSTORE PUSH1 0x20 ADD SWAP1 DUP2 MSTORE PUSH1 0x20 ADD PUSH0 KECCAK256 PUSH0 ADD SLOAD EQ PUSH2 0xABF JUMPI PUSH1 0x40 MLOAD PUSH32 0x8C379A000000000000000000000000000000000000000000000000000000000 DUP2 MSTORE PUSH1 0x4 ADD PUSH2 0xAB6 SWAP1 PUSH2 0x22D9 JUMP JUMPDEST PUSH1 0x40 MLOAD DUP1 SWAP2 SUB SWAP1 REVERT JUMPDEST PUSH0 PUSH1 0x40 MLOAD DUP1 PUSH1 0x20 ADD PUSH1 0x40 MSTORE DUP1 CALLER PUSH20 0xFFFFFFFFFFFFFFFFFFFFFFFFFFFFFFFFFFFFFFFF AND DUP2 MSTORE POP SWAP1 POP PUSH0 PUSH32 0x0 PUSH20 0xFFFFFFFFFFFFFFFFFFFFFFFFFFFFFFFFFFFFFFFF AND PUSH4 0x4F256693 DUP9 DUP9 PUSH1 0x40 MLOAD DUP4 PUSH4 0xFFFFFFFF AND PUSH1 0xE0 SHL DUP2 MSTORE PUSH1 0x4 ADD PUSH2 0xB43 SWAP3 SWAP2 SWAP1 PUSH2 0x22F7 JUMP JUMPDEST PUSH1 0x20 PUSH1 0x40 MLOAD DUP1 DUP4 SUB DUP2 PUSH0 DUP8 GAS CALL ISZERO DUP1 ISZERO PUSH2 0xB5F JUMPI RETURNDATASIZE PUSH0 DUP1 RETURNDATACOPY RETURNDATASIZE PUSH0 REVERT JUMPDEST POP POP POP POP PUSH1 0x40 MLOAD RETURNDATASIZE PUSH1 0x1F NOT PUSH1 0x1F DUP3 ADD AND DUP3 ADD DUP1 PUSH1 0x40 MSTORE POP DUP2 ADD SWAP1 PUSH2 0xB83 SWAP2 SWAP1 PUSH2 0x2348 JUMP JUMPDEST SWAP1 POP DUP1 PUSH2 0xBC5 JUMPI PUSH1 0x40 MLOAD PUSH32 0x8C379A000000000000000000000000000000000000000000000000000000000 DUP2 MSTORE PUSH1 0x4 ADD PUSH2 0xBBC SWAP1 PUSH2 0x23BD JUMP JUMPDEST PUSH1 0x40 MLOAD DUP1 SWAP2 SUB SWAP1 REVERT JUMPDEST ADDRESS PUSH20 0xFFFFFFFFFFFFFFFFFFFFFFFFFFFFFFFFFFFFFFFF AND PUSH4 0x1B81F829 DUP6 DUP5 PUSH1 0x40 MLOAD DUP4 PUSH4 0xFFFFFFFF AND PUSH1 0xE0 SHL DUP2 MSTORE PUSH1 0x4 ADD PUSH2 0xC00 SWAP3 SWAP2 SWAP1 PUSH2 0x249A JUMP JUMPDEST PUSH1 0x20 PUSH1 0x40 MLOAD DUP1 DUP4 SUB DUP2 DUP7 GAS STATICCALL ISZERO DUP1 ISZERO PUSH2 0xC1B JUMPI RETURNDATASIZE PUSH0 DUP1 RETURNDATACOPY RETURNDATASIZE PUSH0 REVERT JUMPDEST POP POP POP POP PUSH1 0x40 MLOAD RETURNDATASIZE PUSH1 0x1F NOT PUSH1 0x1F DUP3 ADD AND DUP3 ADD DUP1 PUSH1 0x40 MSTORE POP DUP2 ADD SWAP1 PUSH2 0xC3F SWAP2 SWAP1 PUSH2 0x2348 JUMP JUMPDEST PUSH2 0xC7E JUMPI PUSH1 0x40 MLOAD PUSH32 0x8C379A000000000000000000000000000000000000000000000000000000000 DUP2 MSTORE PUSH1 0x4 ADD PUSH2 0xC75 SWAP1 PUSH2 0x250D JUMP JUMPDEST PUSH1 0x40 MLOAD DUP1 SWAP2 SUB SWAP1 REVERT JUMPDEST PUSH0 PUSH1 0x9 PUSH0 DUP10 DUP2 MSTORE PUSH1 0x20 ADD SWAP1 DUP2 MSTORE PUSH1 0x20 ADD PUSH0 KECCAK256 SWAP1 POP DUP8 DUP2 PUSH0 ADD DUP2 SWAP1 SSTORE POP DUP7 DUP2 PUSH1 0x1 ADD DUP2 SWAP1 SSTORE POP DUP6 DUP2 PUSH1 0x2 ADD DUP2 SWAP1 SSTORE POP CALLER DUP2 PUSH1 0x3 ADD PUSH0 PUSH2 0x100 EXP DUP2 SLOAD DUP2 PUSH20 0xFFFFFFFFFFFFFFFFFFFFFFFFFFFFFFFFFFFFFFFF MUL NOT AND SWAP1 DUP4 PUSH20 0xFFFFFFFFFFFFFFFFFFFFFFFFFFFFFFFFFFFFFFFF AND MUL OR SWAP1 SSTORE POP PUSH0 DUP2 PUSH1 0x3 ADD PUSH1 0x14 PUSH2 0x100 EXP DUP2 SLOAD DUP2 PUSH1 0xFF MUL NOT AND SWAP1 DUP4 ISZERO ISZERO MUL OR SWAP1 SSTORE POP PUSH0 DUP1 SHL DUP2 PUSH1 0x4 ADD DUP2 SWAP1 SSTORE POP TIMESTAMP DUP2 PUSH1 0x5 ADD DUP2 SWAP1 SSTORE POP CALLER PUSH20 0xFFFFFFFFFFFFFFFFFFFFFFFFFFFFFFFFFFFFFFFF AND DUP8 DUP10 PUSH32 0x7EE1E7C298F2A2CAE66C75263967D60FC11CFD9B694058AF3FA496D83548FD24 DUP10 TIMESTAMP PUSH1 0x40 MLOAD PUSH2 0xD68 SWAP3 SWAP2 SWAP1 PUSH2 0x252B JUMP JUMPDEST PUSH1 0x40 MLOAD DUP1 SWAP2 SUB SWAP1 LOG4 PUSH1 0x1 SWAP4 POP POP POP POP PUSH2 0xD7F PUSH2 0x139F JUMP JUMPDEST SWAP5 SWAP4 POP POP POP POP JUMP JUMPDEST PUSH2 0xD8F PUSH2 0x110D JUMP JUMPDEST PUSH0 PUSH20 0xFFFFFFFFFFFFFFFFFFFFFFFFFFFFFFFFFFFFFFFF AND DUP2 PUSH20 0xFFFFFFFFFFFFFFFFFFFFFFFFFFFFFFFFFFFFFFFF AND SUB PUSH2 0xDFF JUMPI PUSH0 PUSH1 0x40 MLOAD PUSH32 0x1E4FBDF700000000000000000000000000000000000000000000000000000000 DUP2 MSTORE PUSH1 0x4 ADD PUSH2 0xDF6 SWAP2 SWAP1 PUSH2 0x1EA9 JUMP JUMPDEST PUSH1 0x40 MLOAD DUP1 SWAP2 SUB SWAP1 REVERT JUMPDEST PUSH2 0xE08 DUP2 PUSH2 0x11F5 JUMP JUMPDEST POP JUMP JUMPDEST PUSH1 0x7 PUSH1 0x20 MSTORE DUP2 PUSH0 MSTORE PUSH1 0x40 PUSH0 KECCAK256 PUSH1 0x20 MSTORE DUP1 PUSH0 MSTORE PUSH1 0x40 PUSH0 KECCAK256 PUSH0 SWAP2 POP SWAP2 POP POP SLOAD DUP2 JUMP JUMPDEST PUSH0 PUSH1 0x8 SLOAD PUSH1 0x1 DUP1 PUSH2 0xE3C SWAP2 SWAP1 PUSH2 0x257F JUMP JUMPDEST EQ PUSH2 0xE7C JUMPI PUSH1 0x40 MLOAD PUSH32 0x8C379A000000000000000000000000000000000000000000000000000000000 DUP2 MSTORE PUSH1 0x4 ADD PUSH2 0xE73 SWAP1 PUSH2 0x25FC JUMP JUMPDEST PUSH1 0x40 MLOAD DUP1 SWAP2 SUB SWAP1 REVERT JUMPDEST PUSH0 PUSH1 0x40 MLOAD DUP1 PUSH1 0x40 ADD PUSH1 0x40 MSTORE DUP1 PUSH1 0x7 PUSH0 DUP1 DUP2 MSTORE PUSH1 0x20 ADD SWAP1 DUP2 MSTORE PUSH1 0x20 ADD PUSH0 KECCAK256 PUSH0 DUP1 DUP2 MSTORE PUSH1 0x20 ADD SWAP1 DUP2 MSTORE PUSH1 0x20 ADD PUSH0 KECCAK256 SLOAD DUP2 MSTORE PUSH1 0x20 ADD PUSH1 0x7 PUSH0 DUP1 DUP2 MSTORE PUSH1 0x20 ADD SWAP1 DUP2 MSTORE PUSH1 0x20 ADD PUSH0 KECCAK256 PUSH0 PUSH1 0x1 DUP2 MSTORE PUSH1 0x20 ADD SWAP1 DUP2 MSTORE PUSH1 0x20 ADD PUSH0 KECCAK256 SLOAD DUP2 MSTORE POP SWAP1 POP PUSH0 JUMPDEST PUSH1 0x1 DUP2 LT ISZERO PUSH2 0xFF7 JUMPI PUSH0 DUP1 PUSH2 0xF70 PUSH1 0x40 MLOAD DUP1 PUSH1 0x40 ADD PUSH1 0x40 MSTORE DUP1 PUSH1 0x7 PUSH0 PUSH1 0x1 DUP9 PUSH2 0xF00 SWAP2 SWAP1 PUSH2 0x257F JUMP JUMPDEST DUP2 MSTORE PUSH1 0x20 ADD SWAP1 DUP2 MSTORE PUSH1 0x20 ADD PUSH0 KECCAK256 PUSH0 DUP1 DUP2 MSTORE PUSH1 0x20 ADD SWAP1 DUP2 MSTORE PUSH1 0x20 ADD PUSH0 KECCAK256 SLOAD DUP2 MSTORE PUSH1 0x20 ADD PUSH1 0x7 PUSH0 PUSH1 0x1 DUP9 PUSH2 0xF32 SWAP2 SWAP1 PUSH2 0x257F JUMP JUMPDEST DUP2 MSTORE PUSH1 0x20 ADD SWAP1 DUP2 MSTORE PUSH1 0x20 ADD PUSH0 KECCAK256 PUSH0 PUSH1 0x1 DUP2 MSTORE PUSH1 0x20 ADD SWAP1 DUP2 MSTORE PUSH1 0x20 ADD PUSH0 KECCAK256 SLOAD DUP2 MSTORE POP DUP8 DUP6 PUSH1 0x1 DUP2 LT PUSH2 0xF66 JUMPI PUSH2 0xF65 PUSH2 0x2182 JUMP JUMPDEST JUMPDEST PUSH1 0x20 MUL ADD MLOAD PUSH2 0x13A8 JUMP JUMPDEST SWAP2 POP SWAP2 POP PUSH2 0xFAF DUP5 PUSH0 PUSH1 0x2 DUP2 LT PUSH2 0xF8A JUMPI PUSH2 0xF89 PUSH2 0x2182 JUMP JUMPDEST JUMPDEST PUSH1 0x20 MUL ADD MLOAD DUP6 PUSH1 0x1 PUSH1 0x2 DUP2 LT PUSH2 0xFA3 JUMPI PUSH2 0xFA2 PUSH2 0x2182 JUMP JUMPDEST JUMPDEST PUSH1 0x20 MUL ADD MLOAD DUP5 DUP5 PUSH2 0x13FC JUMP JUMPDEST DUP6 PUSH0 PUSH1 0x2 DUP2 LT PUSH2 0xFC2 JUMPI PUSH2 0xFC1 PUSH2 0x2182 JUMP JUMPDEST JUMPDEST PUSH1 0x20 MUL ADD DUP7 PUSH1 0x1 PUSH1 0x2 DUP2 LT PUSH2 0xFDA JUMPI PUSH2 0xFD9 PUSH2 0x2182 JUMP JUMPDEST JUMPDEST PUSH1 0x20 MUL ADD DUP3 DUP2 MSTORE POP DUP3 DUP2 MSTORE POP POP POP POP POP DUP1 DUP1 PUSH1 0x1 ADD SWAP2 POP POP PUSH2 0xED7 JUMP JUMPDEST POP PUSH2 0x1102 DUP7 DUP7 PUSH1 0x40 MLOAD DUP1 PUSH1 0x40 ADD PUSH1 0x40 MSTORE DUP1 PUSH1 0x3 PUSH0 DUP1 DUP2 MSTORE PUSH1 0x20 ADD SWAP1 DUP2 MSTORE PUSH1 0x20 ADD PUSH0 KECCAK256 SLOAD DUP2 MSTORE PUSH1 0x20 ADD PUSH1 0x3 PUSH0 PUSH1 0x1 DUP2 MSTORE PUSH1 0x20 ADD SWAP1 DUP2 MSTORE PUSH1 0x20 ADD PUSH0 KECCAK256 SLOAD DUP2 MSTORE POP PUSH1 0x40 MLOAD DUP1 PUSH1 0x40 ADD PUSH1 0x40 MSTORE DUP1 PUSH1 0x4 PUSH0 DUP1 DUP2 MSTORE PUSH1 0x20 ADD SWAP1 DUP2 MSTORE PUSH1 0x20 ADD PUSH0 KECCAK256 PUSH0 DUP1 DUP2 MSTORE PUSH1 0x20 ADD SWAP1 DUP2 MSTORE PUSH1 0x20 ADD PUSH0 KECCAK256 SLOAD DUP2 MSTORE PUSH1 0x20 ADD PUSH1 0x4 PUSH0 DUP1 DUP2 MSTORE PUSH1 0x20 ADD SWAP1 DUP2 MSTORE PUSH1 0x20 ADD PUSH0 KECCAK256 PUSH0 PUSH1 0x1 DUP2 MSTORE PUSH1 0x20 ADD SWAP1 DUP2 MSTORE PUSH1 0x20 ADD PUSH0 KECCAK256 SLOAD DUP2 MSTORE POP DUP6 PUSH1 0x40 MLOAD DUP1 PUSH1 0x40 ADD PUSH1 0x40 MSTORE DUP1 PUSH1 0x5 PUSH0 DUP1 DUP2 MSTORE PUSH1 0x20 ADD SWAP1 DUP2 MSTORE PUSH1 0x20 ADD PUSH0 KECCAK256 SLOAD DUP2 MSTORE PUSH1 0x20 ADD PUSH1 0x5 PUSH0 PUSH1 0x1 DUP2 MSTORE PUSH1 0x20 ADD SWAP1 DUP2 MSTORE PUSH1 0x20 ADD PUSH0 KECCAK256 SLOAD DUP2 MSTORE POP DUP11 PUSH1 0x40 MLOAD DUP1 PUSH1 0x40 ADD PUSH1 0x40 MSTORE DUP1 PUSH1 0x6 PUSH0 DUP1 DUP2 MSTORE PUSH1 0x20 ADD SWAP1 DUP2 MSTORE PUSH1 0x20 ADD PUSH0 KECCAK256 SLOAD DUP2 MSTORE PUSH1 0x20 ADD PUSH1 0x6 PUSH0 PUSH1 0x1 DUP2 MSTORE PUSH1 0x20 ADD SWAP1 DUP2 MSTORE PUSH1 0x20 ADD PUSH0 KECCAK256 SLOAD DUP2 MSTORE POP PUSH2 0x1423 JUMP JUMPDEST SWAP2 POP POP SWAP5 SWAP4 POP POP POP POP JUMP JUMPDEST PUSH2 0x1115 PUSH2 0x1AF3 JUMP JUMPDEST PUSH20 0xFFFFFFFFFFFFFFFFFFFFFFFFFFFFFFFFFFFFFFFF AND PUSH2 0x1133 PUSH2 0x67C JUMP JUMPDEST PUSH20 0xFFFFFFFFFFFFFFFFFFFFFFFFFFFFFFFFFFFFFFFF AND EQ PUSH2 0x1192 JUMPI PUSH2 0x1156 PUSH2 0x1AF3 JUMP JUMPDEST PUSH1 0x40 MLOAD PUSH32 0x118CDAA700000000000000000000000000000000000000000000000000000000 DUP2 MSTORE PUSH1 0x4 ADD PUSH2 0x1189 SWAP2 SWAP1 PUSH2 0x1EA9 JUMP JUMPDEST PUSH1 0x40 MLOAD DUP1 SWAP2 SUB SWAP1 REVERT JUMPDEST JUMP JUMPDEST PUSH2 0x119C PUSH2 0x1AFA JUMP JUMPDEST PUSH0 PUSH1 0x2 PUSH0 PUSH2 0x100 EXP DUP2 SLOAD DUP2 PUSH1 0xFF MUL NOT AND SWAP1 DUP4 ISZERO ISZERO MUL OR SWAP1 SSTORE POP PUSH32 0x5DB9EE0A495BF2E6FF9C91A7834C1BA4FDD244A5E8AA4E537BD38AEAE4B073AA PUSH2 0x11DE PUSH2 0x1AF3 JUMP JUMPDEST PUSH1 0x40 MLOAD PUSH2 0x11EB SWAP2 SWAP1 PUSH2 0x1EA9 JUMP JUMPDEST PUSH1 0x40 MLOAD DUP1 SWAP2 SUB SWAP1 LOG1 JUMP JUMPDEST PUSH0 DUP1 PUSH0 SWAP1 SLOAD SWAP1 PUSH2 0x100 EXP SWAP1 DIV PUSH20 0xFFFFFFFFFFFFFFFFFFFFFFFFFFFFFFFFFFFFFFFF AND SWAP1 POP DUP2 PUSH0 DUP1 PUSH2 0x100 EXP DUP2 SLOAD DUP2 PUSH20 0xFFFFFFFFFFFFFFFFFFFFFFFFFFFFFFFFFFFFFFFF MUL NOT AND SWAP1 DUP4 PUSH20 0xFFFFFFFFFFFFFFFFFFFFFFFFFFFFFFFFFFFFFFFF AND MUL OR SWAP1 SSTORE POP DUP2 PUSH20 0xFFFFFFFFFFFFFFFFFFFFFFFFFFFFFFFFFFFFFFFF AND DUP2 PUSH20 0xFFFFFFFFFFFFFFFFFFFFFFFFFFFFFFFFFFFFFFFF AND PUSH32 0x8BE0079C531659141344CD1FD0A4F28419497F9722A3DAAFE3B4186F6B6457E0 PUSH1 0x40 MLOAD PUSH1 0x40 MLOAD DUP1 SWAP2 SUB SWAP1 LOG3 POP POP JUMP JUMPDEST PUSH2 0x12BE PUSH2 0x135E JUMP JUMPDEST PUSH1 0x1 PUSH1 0x2 PUSH0 PUSH2 0x100 EXP DUP2 SLOAD DUP2 PUSH1 0xFF MUL NOT AND SWAP1 DUP4 ISZERO ISZERO MUL OR SWAP1 SSTORE POP PUSH32 0x62E78CEA01BEE320CD4E420270B5EA74000D11B0C9F74754EBDBFC544B05A258 PUSH2 0x1301 PUSH2 0x1AF3 JUMP JUMPDEST PUSH1 0x40 MLOAD PUSH2 0x130E SWAP2 SWAP1 PUSH2 0x1EA9 JUMP JUMPDEST PUSH1 0x40 MLOAD DUP1 SWAP2 SUB SWAP1 LOG1 JUMP JUMPDEST PUSH1 0x2 PUSH1 0x1 SLOAD SUB PUSH2 0x1354 JUMPI PUSH1 0x40 MLOAD PUSH32 0x3EE5AEB500000000000000000000000000000000000000000000000000000000 DUP2 MSTORE PUSH1 0x4 ADD PUSH1 0x40 MLOAD DUP1 SWAP2 SUB SWAP1 REVERT JUMPDEST PUSH1 0x2 PUSH1 0x1 DUP2 SWAP1 SSTORE POP JUMP JUMPDEST PUSH2 0x1366 PUSH2 0x5FB JUMP JUMPDEST ISZERO PUSH2 0x139D JUMPI PUSH1 0x40 MLOAD PUSH32 0xD93C066500000000000000000000000000000000000000000000000000000000 DUP2 MSTORE PUSH1 0x4 ADD PUSH1 0x40 MLOAD DUP1 SWAP2 SUB SWAP1 REVERT JUMPDEST JUMP JUMPDEST PUSH1 0x1 DUP1 DUP2 SWAP1 SSTORE POP JUMP JUMPDEST PUSH0 DUP1 DUP3 DUP5 PUSH0 PUSH1 0x2 DUP2 LT PUSH2 0x13BE JUMPI PUSH2 0x13BD PUSH2 0x2182 JUMP JUMPDEST JUMPDEST PUSH1 0x20 MUL ADD MLOAD PUSH2 0x13CD SWAP2 SWAP1 PUSH2 0x261A JUMP JUMPDEST DUP4 DUP6 PUSH1 0x1 PUSH1 0x2 DUP2 LT PUSH2 0x13E2 JUMPI PUSH2 0x13E1 PUSH2 0x2182 JUMP JUMPDEST JUMPDEST PUSH1 0x20 MUL ADD MLOAD PUSH2 0x13F1 SWAP2 SWAP1 PUSH2 0x261A JUMP JUMPDEST SWAP2 POP SWAP2 POP SWAP3 POP SWAP3 SWAP1 POP JUMP JUMPDEST PUSH0 DUP1 DUP4 DUP7 PUSH2 0x140A SWAP2 SWAP1 PUSH2 0x257F JUMP JUMPDEST DUP4 DUP7 PUSH2 0x1416 SWAP2 SWAP1 PUSH2 0x257F JUMP JUMPDEST SWAP2 POP SWAP2 POP SWAP5 POP SWAP5 SWAP3 POP POP POP JUMP JUMPDEST PUSH0 PUSH2 0x142C PUSH2 0x1BA4 JUMP JUMPDEST PUSH2 0x1465 DUP11 PUSH0 PUSH1 0x2 DUP2 LT PUSH2 0x1442 JUMPI PUSH2 0x1441 PUSH2 0x2182 JUMP JUMPDEST JUMPDEST PUSH1 0x20 MUL ADD MLOAD DUP12 PUSH1 0x1 PUSH1 0x2 DUP2 LT PUSH2 0x145B JUMPI PUSH2 0x145A PUSH2 0x2182 JUMP JUMPDEST JUMPDEST PUSH1 0x20 MUL ADD MLOAD PUSH2 0x1B3A JUMP JUMPDEST DUP12 PUSH0 PUSH1 0x2 DUP2 LT PUSH2 0x1478 JUMPI PUSH2 0x1477 PUSH2 0x2182 JUMP JUMPDEST JUMPDEST PUSH1 0x20 MUL ADD DUP13 PUSH1 0x1 PUSH1 0x2 DUP2 LT PUSH2 0x1490 JUMPI PUSH2 0x148F PUSH2 0x2182 JUMP JUMPDEST JUMPDEST PUSH1 0x20 MUL ADD DUP3 DUP2 MSTORE POP DUP3 DUP2 MSTORE POP POP POP PUSH2 0x14D7 DUP5 PUSH0 PUSH1 0x2 DUP2 LT PUSH2 0x14B4 JUMPI PUSH2 0x14B3 PUSH2 0x2182 JUMP JUMPDEST JUMPDEST PUSH1 0x20 MUL ADD MLOAD DUP6 PUSH1 0x1 PUSH1 0x2 DUP2 LT PUSH2 0x14CD JUMPI PUSH2 0x14CC PUSH2 0x2182 JUMP JUMPDEST JUMPDEST PUSH1 0x20 MUL ADD MLOAD PUSH2 0x1B3A JUMP JUMPDEST DUP6 PUSH0 PUSH1 0x2 DUP2 LT PUSH2 0x14EA JUMPI PUSH2 0x14E9 PUSH2 0x2182 JUMP JUMPDEST JUMPDEST PUSH1 0x20 MUL ADD DUP7 PUSH1 0x1 PUSH1 0x2 DUP2 LT PUSH2 0x1502 JUMPI PUSH2 0x1501 PUSH2 0x2182 JUMP JUMPDEST JUMPDEST PUSH1 0x20 MUL ADD DUP3 DUP2 MSTORE POP DUP3 DUP2 MSTORE POP POP POP DUP10 PUSH0 PUSH1 0x2 DUP2 LT PUSH2 0x1523 JUMPI PUSH2 0x1522 PUSH2 0x2182 JUMP JUMPDEST JUMPDEST PUSH1 0x20 MUL ADD MLOAD DUP2 PUSH0 PUSH1 0x18 DUP2 LT PUSH2 0x153B JUMPI PUSH2 0x153A PUSH2 0x2182 JUMP JUMPDEST JUMPDEST PUSH1 0x20 MUL ADD DUP2 DUP2 MSTORE POP POP DUP10 PUSH1 0x1 PUSH1 0x2 DUP2 LT PUSH2 0x1558 JUMPI PUSH2 0x1557 PUSH2 0x2182 JUMP JUMPDEST JUMPDEST PUSH1 0x20 MUL ADD MLOAD DUP2 PUSH1 0x1 PUSH1 0x18 DUP2 LT PUSH2 0x1571 JUMPI PUSH2 0x1570 PUSH2 0x2182 JUMP JUMPDEST JUMPDEST PUSH1 0x20 MUL ADD DUP2 DUP2 MSTORE POP POP DUP9 PUSH0 PUSH1 0x2 DUP2 LT PUSH2 0x158D JUMPI PUSH2 0x158C PUSH2 0x2182 JUMP JUMPDEST JUMPDEST PUSH1 0x20 MUL ADD MLOAD PUSH0 PUSH1 0x2 DUP2 LT PUSH2 0x15A4 JUMPI PUSH2 0x15A3 PUSH2 0x2182 JUMP JUMPDEST JUMPDEST PUSH1 0x20 MUL ADD MLOAD DUP2 PUSH1 0x2 PUSH1 0x18 DUP2 LT PUSH2 0x15BD JUMPI PUSH2 0x15BC PUSH2 0x2182 JUMP JUMPDEST JUMPDEST PUSH1 0x20 MUL ADD DUP2 DUP2 MSTORE POP POP DUP9 PUSH0 PUSH1 0x2 DUP2 LT PUSH2 0x15D9 JUMPI PUSH2 0x15D8 PUSH2 0x2182 JUMP JUMPDEST JUMPDEST PUSH1 0x20 MUL ADD MLOAD PUSH1 0x1 PUSH1 0x2 DUP2 LT PUSH2 0x15F1 JUMPI PUSH2 0x15F0 PUSH2 0x2182 JUMP JUMPDEST JUMPDEST PUSH1 0x20 MUL ADD MLOAD DUP2 PUSH1 0x3 PUSH1 0x18 DUP2 LT PUSH2 0x160A JUMPI PUSH2 0x1609 PUSH2 0x2182 JUMP JUMPDEST JUMPDEST PUSH1 0x20 MUL ADD DUP2 DUP2 MSTORE POP POP DUP9 PUSH1 0x1 PUSH1 0x2 DUP2 LT PUSH2 0x1627 JUMPI PUSH2 0x1626 PUSH2 0x2182 JUMP JUMPDEST JUMPDEST PUSH1 0x20 MUL ADD MLOAD PUSH0 PUSH1 0x2 DUP2 LT PUSH2 0x163E JUMPI PUSH2 0x163D PUSH2 0x2182 JUMP JUMPDEST JUMPDEST PUSH1 0x20 MUL ADD MLOAD DUP2 PUSH1 0x4 PUSH1 0x18 DUP2 LT PUSH2 0x1657 JUMPI PUSH2 0x1656 PUSH2 0x2182 JUMP JUMPDEST JUMPDEST PUSH1 0x20 MUL ADD DUP2 DUP2 MSTORE POP POP DUP9 PUSH1 0x1 PUSH1 0x2 DUP2 LT PUSH2 0x1674 JUMPI PUSH2 0x1673 PUSH2 0x2182 JUMP JUMPDEST JUMPDEST PUSH1 0x20 MUL ADD MLOAD PUSH1 0x1 PUSH1 0x2 DUP2 LT PUSH2 0x168C JUMPI PUSH2 0x168B PUSH2 0x2182 JUMP JUMPDEST JUMPDEST PUSH1 0x20 MUL ADD MLOAD DUP2 PUSH1 0x5 PUSH1 0x18 DUP2 LT PUSH2 0x16A5 JUMPI PUSH2 0x16A4 PUSH2 0x2182 JUMP JUMPDEST JUMPDEST PUSH1 0x20 MUL ADD DUP2 DUP2 MSTORE POP POP DUP8 PUSH0 PUSH1 0x2 DUP2 LT PUSH2 0x16C1 JUMPI PUSH2 0x16C0 PUSH2 0x2182 JUMP JUMPDEST JUMPDEST PUSH1 0x20 MUL ADD MLOAD DUP2 PUSH1 0x6 PUSH1 0x18 DUP2 LT PUSH2 0x16DA JUMPI PUSH2 0x16D9 PUSH2 0x2182 JUMP JUMPDEST JUMPDEST PUSH1 0x20 MUL ADD DUP2 DUP2 MSTORE POP POP DUP8 PUSH1 0x1 PUSH1 0x2 DUP2 LT PUSH2 0x16F7 JUMPI PUSH2 0x16F6 PUSH2 0x2182 JUMP JUMPDEST JUMPDEST PUSH1 0x20 MUL ADD MLOAD DUP2 PUSH1 0x7 PUSH1 0x18 DUP2 LT PUSH2 0x1710 JUMPI PUSH2 0x170F PUSH2 0x2182 JUMP JUMPDEST JUMPDEST PUSH1 0x20 MUL ADD DUP2 DUP2 MSTORE POP POP DUP7 PUSH0 PUSH1 0x2 DUP2 LT PUSH2 0x172C JUMPI PUSH2 0x172B PUSH2 0x2182 JUMP JUMPDEST JUMPDEST PUSH1 0x20 MUL ADD MLOAD DUP2 PUSH1 0x8 PUSH1 0x18 DUP2 LT PUSH2 0x1745 JUMPI PUSH2 0x1744 PUSH2 0x2182 JUMP JUMPDEST JUMPDEST PUSH1 0x20 MUL ADD DUP2 DUP2 MSTORE POP POP DUP7 PUSH1 0x1 PUSH1 0x2 DUP2 LT PUSH2 0x1762 JUMPI PUSH2 0x1761 PUSH2 0x2182 JUMP JUMPDEST JUMPDEST PUSH1 0x20 MUL ADD MLOAD DUP2 PUSH1 0x9 PUSH1 0x18 DUP2 LT PUSH2 0x177B JUMPI PUSH2 0x177A PUSH2 0x2182 JUMP JUMPDEST JUMPDEST PUSH1 0x20 MUL ADD DUP2 DUP2 MSTORE POP POP DUP7 PUSH0 PUSH1 0x2 DUP2 LT PUSH2 0x1797 JUMPI PUSH2 0x1796 PUSH2 0x2182 JUMP JUMPDEST JUMPDEST PUSH1 0x20 MUL ADD MLOAD DUP2 PUSH1 0xA PUSH1 0x18 DUP2 LT PUSH2 0x17B0 JUMPI PUSH2 0x17AF PUSH2 0x2182 JUMP JUMPDEST JUMPDEST PUSH1 0x20 MUL ADD DUP2 DUP2 MSTORE POP POP DUP7 PUSH1 0x1 PUSH1 0x2 DUP2 LT PUSH2 0x17CD JUMPI PUSH2 0x17CC PUSH2 0x2182 JUMP JUMPDEST JUMPDEST PUSH1 0x20 MUL ADD MLOAD DUP2 PUSH1 0xB PUSH1 0x18 DUP2 LT PUSH2 0x17E6 JUMPI PUSH2 0x17E5 PUSH2 0x2182 JUMP JUMPDEST JUMPDEST PUSH1 0x20 MUL ADD DUP2 DUP2 MSTORE POP POP DUP6 PUSH0 PUSH1 0x2 DUP2 LT PUSH2 0x1802 JUMPI PUSH2 0x1801 PUSH2 0x2182 JUMP JUMPDEST JUMPDEST PUSH1 0x20 MUL ADD MLOAD DUP2 PUSH1 0xC PUSH1 0x18 DUP2 LT PUSH2 0x181B JUMPI PUSH2 0x181A PUSH2 0x2182 JUMP JUMPDEST JUMPDEST PUSH1 0x20 MUL ADD DUP2 DUP2 MSTORE POP POP DUP6 PUSH1 0x1 PUSH1 0x2 DUP2 LT PUSH2 0x1838 JUMPI PUSH2 0x1837 PUSH2 0x2182 JUMP JUMPDEST JUMPDEST PUSH1 0x20 MUL ADD MLOAD DUP2 PUSH1 0xD PUSH1 0x18 DUP2 LT PUSH2 0x1851 JUMPI PUSH2 0x1850 PUSH2 0x2182 JUMP JUMPDEST JUMPDEST PUSH1 0x20 MUL ADD DUP2 DUP2 MSTORE POP POP DUP5 PUSH0 PUSH1 0x2 DUP2 LT PUSH2 0x186D JUMPI PUSH2 0x186C PUSH2 0x2182 JUMP JUMPDEST JUMPDEST PUSH1 0x20 MUL ADD MLOAD DUP2 PUSH1 0xE PUSH1 0x18 DUP2 LT PUSH2 0x1886 JUMPI PUSH2 0x1885 PUSH2 0x2182 JUMP JUMPDEST JUMPDEST PUSH1 0x20 MUL ADD DUP2 DUP2 MSTORE POP POP DUP5 PUSH1 0x1 PUSH1 0x2 DUP2 LT PUSH2 0x18A3 JUMPI PUSH2 0x18A2 PUSH2 0x2182 JUMP JUMPDEST JUMPDEST PUSH1 0x20 MUL ADD MLOAD DUP2 PUSH1 0xF PUSH1 0x18 DUP2 LT PUSH2 0x18BC JUMPI PUSH2 0x18BB PUSH2 0x2182 JUMP JUMPDEST JUMPDEST PUSH1 0x20 MUL ADD DUP2 DUP2 MSTORE POP POP DUP5 PUSH0 PUSH1 0x2 DUP2 LT PUSH2 0x18D8 JUMPI PUSH2 0x18D7 PUSH2 0x2182 JUMP JUMPDEST JUMPDEST PUSH1 0x20 MUL ADD MLOAD DUP2 PUSH1 0x10 PUSH1 0x18 DUP2 LT PUSH2 0x18F1 JUMPI PUSH2 0x18F0 PUSH2 0x2182 JUMP JUMPDEST JUMPDEST PUSH1 0x20 MUL ADD DUP2 DUP2 MSTORE POP POP DUP5 PUSH1 0x1 PUSH1 0x2 DUP2 LT PUSH2 0x190E JUMPI PUSH2 0x190D PUSH2 0x2182 JUMP JUMPDEST JUMPDEST PUSH1 0x20 MUL ADD MLOAD DUP2 PUSH1 0x11 PUSH1 0x18 DUP2 LT PUSH2 0x1927 JUMPI PUSH2 0x1926 PUSH2 0x2182 JUMP JUMPDEST JUMPDEST PUSH1 0x20 MUL ADD DUP2 DUP2 MSTORE POP POP DUP4 PUSH0 PUSH1 0x2 DUP2 LT PUSH2 0x1943 JUMPI PUSH2 0x1942 PUSH2 0x2182 JUMP JUMPDEST JUMPDEST PUSH1 0x20 MUL ADD MLOAD DUP2 PUSH1 0x12 PUSH1 0x18 DUP2 LT PUSH2 0x195C JUMPI PUSH2 0x195B PUSH2 0x2182 JUMP JUMPDEST JUMPDEST PUSH1 0x20 MUL ADD DUP2 DUP2 MSTORE POP POP DUP4 PUSH1 0x1 PUSH1 0x2 DUP2 LT PUSH2 0x1979 JUMPI PUSH2 0x1978 PUSH2 0x2182 JUMP JUMPDEST JUMPDEST PUSH1 0x20 MUL ADD MLOAD DUP2 PUSH1 0x13 PUSH1 0x18 DUP2 LT PUSH2 0x1992 JUMPI PUSH2 0x1991 PUSH2 0x2182 JUMP JUMPDEST JUMPDEST PUSH1 0x20 MUL ADD DUP2 DUP2 MSTORE POP POP DUP3 PUSH0 PUSH1 0x2 DUP2 LT PUSH2 0x19AE JUMPI PUSH2 0x19AD PUSH2 0x2182 JUMP JUMPDEST JUMPDEST PUSH1 0x20 MUL ADD MLOAD DUP2 PUSH1 0x14 PUSH1 0x18 DUP2 LT PUSH2 0x19C7 JUMPI PUSH2 0x19C6 PUSH2 0x2182 JUMP JUMPDEST JUMPDEST PUSH1 0x20 MUL ADD DUP2 DUP2 MSTORE POP POP DUP3 PUSH1 0x1 PUSH1 0x2 DUP2 LT PUSH2 0x19E4 JUMPI PUSH2 0x19E3 PUSH2 0x2182 JUMP JUMPDEST JUMPDEST PUSH1 0x20 MUL ADD MLOAD DUP2 PUSH1 0x15 PUSH1 0x18 DUP2 LT PUSH2 0x19FD JUMPI PUSH2 0x19FC PUSH2 0x2182 JUMP JUMPDEST JUMPDEST PUSH1 0x20 MUL ADD DUP2 DUP2 MSTORE POP POP DUP3 PUSH0 PUSH1 0x2 DUP2 LT PUSH2 0x1A19 JUMPI PUSH2 0x1A18 PUSH2 0x2182 JUMP JUMPDEST JUMPDEST PUSH1 0x20 MUL ADD MLOAD DUP2 PUSH1 0x16 PUSH1 0x18 DUP2 LT PUSH2 0x1A32 JUMPI PUSH2 0x1A31 PUSH2 0x2182 JUMP JUMPDEST JUMPDEST PUSH1 0x20 MUL ADD DUP2 DUP2 MSTORE POP POP DUP3 PUSH1 0x1 PUSH1 0x2 DUP2 LT PUSH2 0x1A4F JUMPI PUSH2 0x1A4E PUSH2 0x2182 JUMP JUMPDEST JUMPDEST PUSH1 0x20 MUL ADD MLOAD DUP2 PUSH1 0x17 PUSH1 0x18 DUP2 LT PUSH2 0x1A68 JUMPI PUSH2 0x1A67 PUSH2 0x2182 JUMP JUMPDEST JUMPDEST PUSH1 0x20 MUL ADD DUP2 DUP2 MSTORE POP POP PUSH2 0x1A79 PUSH2 0x1BC7 JUMP JUMPDEST PUSH0 PUSH1 0x20 DUP3 PUSH2 0x180 DUP6 PUSH1 0x8 GAS STATICCALL SWAP1 POP DUP1 PUSH2 0x1AC7 JUMPI PUSH1 0x40 MLOAD PUSH32 0x8C379A000000000000000000000000000000000000000000000000000000000 DUP2 MSTORE PUSH1 0x4 ADD PUSH2 0x1ABE SWAP1 PUSH2 0x26A5 JUMP JUMPDEST PUSH1 0x40 MLOAD DUP1 SWAP2 SUB SWAP1 REVERT JUMPDEST PUSH1 0x1 DUP3 PUSH0 PUSH1 0x1 DUP2 LT PUSH2 0x1ADC JUMPI PUSH2 0x1ADB PUSH2 0x2182 JUMP JUMPDEST JUMPDEST PUSH1 0x20 MUL ADD MLOAD EQ SWAP4 POP POP POP POP SWAP9 SWAP8 POP POP POP POP POP POP POP POP JUMP JUMPDEST PUSH0 CALLER SWAP1 POP SWAP1 JUMP JUMPDEST PUSH2 0x1B02 PUSH2 0x5FB JUMP JUMPDEST PUSH2 0x1B38 JUMPI PUSH1 0x40 MLOAD PUSH32 0x8DFC202B00000000000000000000000000000000000000000000000000000000 DUP2 MSTORE PUSH1 0x4 ADD PUSH1 0x40 MLOAD DUP1 SWAP2 SUB SWAP1 REVERT JUMPDEST JUMP JUMPDEST PUSH0 DUP1 PUSH0 PUSH32 0x30644E72E131A029B85045B68181585D97816A916871CA8D3C208C16D87CFD47 SWAP1 POP PUSH0 DUP6 EQ DUP1 ISZERO PUSH2 0x1B6E JUMPI POP PUSH0 DUP5 EQ JUMPDEST ISZERO PUSH2 0x1B7F JUMPI PUSH0 DUP1 SWAP3 POP SWAP3 POP POP PUSH2 0x1B9D JUMP JUMPDEST DUP5 DUP2 DUP6 PUSH2 0x1B8C SWAP2 SWAP1 PUSH2 0x26F0 JUMP JUMPDEST DUP3 PUSH2 0x1B97 SWAP2 SWAP1 PUSH2 0x2720 JUMP JUMPDEST SWAP3 POP SWAP3 POP POP JUMPDEST SWAP3 POP SWAP3 SWAP1 POP JUMP JUMPDEST PUSH1 0x40 MLOAD DUP1 PUSH2 0x300 ADD PUSH1 0x40 MSTORE DUP1 PUSH1 0x18 SWAP1 PUSH1 0x20 DUP3 MUL DUP1 CALLDATASIZE DUP4 CALLDATACOPY DUP1 DUP3 ADD SWAP2 POP POP SWAP1 POP POP SWAP1 JUMP JUMPDEST PUSH1 0x40 MLOAD DUP1 PUSH1 0x20 ADD PUSH1 0x40 MSTORE DUP1 PUSH1 0x1 SWAP1 PUSH1 0x20 DUP3 MUL DUP1 CALLDATASIZE DUP4 CALLDATACOPY DUP1 DUP3 ADD SWAP2 POP POP SWAP1 POP POP SWAP1 JUMP JUMPDEST PUSH0 DUP1 REVERT JUMPDEST PUSH0 DUP1 REVERT JUMPDEST PUSH0 DUP2 SWAP1 POP SWAP2 SWAP1 POP JUMP JUMPDEST PUSH2 0x1C03 DUP2 PUSH2 0x1BF1 JUMP JUMPDEST DUP2 EQ PUSH2 0x1C0D JUMPI PUSH0 DUP1 REVERT JUMPDEST POP JUMP JUMPDEST PUSH0 DUP2 CALLDATALOAD SWAP1 POP PUSH2 0x1C1E DUP2 PUSH2 0x1BFA JUMP JUMPDEST SWAP3 SWAP2 POP POP JUMP JUMPDEST PUSH0 PUSH1 0x20 DUP3 DUP5 SUB SLT ISZERO PUSH2 0x1C39 JUMPI PUSH2 0x1C38 PUSH2 0x1BE9 JUMP JUMPDEST JUMPDEST PUSH0 PUSH2 0x1C46 DUP5 DUP3 DUP6 ADD PUSH2 0x1C10 JUMP JUMPDEST SWAP2 POP POP SWAP3 SWAP2 POP POP JUMP JUMPDEST PUSH2 0x1C58 DUP2 PUSH2 0x1BF1 JUMP JUMPDEST DUP3 MSTORE POP POP JUMP JUMPDEST PUSH0 PUSH1 0x20 DUP3 ADD SWAP1 POP PUSH2 0x1C71 PUSH0 DUP4 ADD DUP5 PUSH2 0x1C4F JUMP JUMPDEST SWAP3 SWAP2 POP POP JUMP JUMPDEST PUSH0 DUP1 REVERT JUMPDEST PUSH0 DUP2 SWAP1 POP DUP3 PUSH1 0x20 PUSH1 0x8 MUL DUP3 ADD GT ISZERO PUSH2 0x1C96 JUMPI PUSH2 0x1C95 PUSH2 0x1C77 JUMP JUMPDEST JUMPDEST SWAP3 SWAP2 POP POP JUMP JUMPDEST PUSH0 DUP2 SWAP1 POP DUP3 PUSH1 0x20 PUSH1 0x1 MUL DUP3 ADD GT ISZERO PUSH2 0x1CB7 JUMPI PUSH2 0x1CB6 PUSH2 0x1C77 JUMP JUMPDEST JUMPDEST SWAP3 SWAP2 POP POP JUMP JUMPDEST PUSH0 DUP1 PUSH2 0x120 DUP4 DUP6 SUB SLT ISZERO PUSH2 0x1CD4 JUMPI PUSH2 0x1CD3 PUSH2 0x1BE9 JUMP JUMPDEST JUMPDEST PUSH0 PUSH2 0x1CE1 DUP6 DUP3 DUP7 ADD PUSH2 0x1C7B JUMP JUMPDEST SWAP3 POP POP PUSH2 0x100 PUSH2 0x1CF3 DUP6 DUP3 DUP7 ADD PUSH2 0x1C9C JUMP JUMPDEST SWAP2 POP POP SWAP3 POP SWAP3 SWAP1 POP JUMP JUMPDEST PUSH0 DUP2 ISZERO ISZERO SWAP1 POP SWAP2 SWAP1 POP JUMP JUMPDEST PUSH2 0x1D11 DUP2 PUSH2 0x1CFD JUMP JUMPDEST DUP3 MSTORE POP POP JUMP JUMPDEST PUSH0 PUSH1 0x20 DUP3 ADD SWAP1 POP PUSH2 0x1D2A PUSH0 DUP4 ADD DUP5 PUSH2 0x1D08 JUMP JUMPDEST SWAP3 SWAP2 POP POP JUMP JUMPDEST PUSH0 PUSH20 0xFFFFFFFFFFFFFFFFFFFFFFFFFFFFFFFFFFFFFFFF DUP3 AND SWAP1 POP SWAP2 SWAP1 POP JUMP JUMPDEST PUSH0 PUSH2 0x1D59 DUP3 PUSH2 0x1D30 JUMP JUMPDEST SWAP1 POP SWAP2 SWAP1 POP JUMP JUMPDEST PUSH2 0x1D69 DUP2 PUSH2 0x1D4F JUMP JUMPDEST DUP2 EQ PUSH2 0x1D73 JUMPI PUSH0 DUP1 REVERT JUMPDEST POP JUMP JUMPDEST PUSH0 DUP2 CALLDATALOAD SWAP1 POP PUSH2 0x1D84 DUP2 PUSH2 0x1D60 JUMP JUMPDEST SWAP3 SWAP2 POP POP JUMP JUMPDEST PUSH0 DUP2 SWAP1 POP SWAP2 SWAP1 POP JUMP JUMPDEST PUSH2 0x1D9C DUP2 PUSH2 0x1D8A JUMP JUMPDEST DUP2 EQ PUSH2 0x1DA6 JUMPI PUSH0 DUP1 REVERT JUMPDEST POP JUMP JUMPDEST PUSH0 DUP2 CALLDATALOAD SWAP1 POP PUSH2 0x1DB7 DUP2 PUSH2 0x1D93 JUMP JUMPDEST SWAP3 SWAP2 POP POP JUMP JUMPDEST PUSH0 DUP1 PUSH1 0x40 DUP4 DUP6 SUB SLT ISZERO PUSH2 0x1DD3 JUMPI PUSH2 0x1DD2 PUSH2 0x1BE9 JUMP JUMPDEST JUMPDEST PUSH0 PUSH2 0x1DE0 DUP6 DUP3 DUP7 ADD PUSH2 0x1D76 JUMP JUMPDEST SWAP3 POP POP PUSH1 0x20 PUSH2 0x1DF1 DUP6 DUP3 DUP7 ADD PUSH2 0x1DA9 JUMP JUMPDEST SWAP2 POP POP SWAP3 POP SWAP3 SWAP1 POP JUMP JUMPDEST PUSH0 DUP2 SWAP1 POP SWAP2 SWAP1 POP JUMP JUMPDEST PUSH0 PUSH2 0x1E1E PUSH2 0x1E19 PUSH2 0x1E14 DUP5 PUSH2 0x1D30 JUMP JUMPDEST PUSH2 0x1DFB JUMP JUMPDEST PUSH2 0x1D30 JUMP JUMPDEST SWAP1 POP SWAP2 SWAP1 POP JUMP JUMPDEST PUSH0 PUSH2 0x1E2F DUP3 PUSH2 0x1E04 JUMP JUMPDEST SWAP1 POP SWAP2 SWAP1 POP JUMP JUMPDEST PUSH0 PUSH2 0x1E40 DUP3 PUSH2 0x1E25 JUMP JUMPDEST SWAP1 POP SWAP2 SWAP1 POP JUMP JUMPDEST PUSH2 0x1E50 DUP2 PUSH2 0x1E36 JUMP JUMPDEST DUP3 MSTORE POP POP JUMP JUMPDEST PUSH0 PUSH1 0x20 DUP3 ADD SWAP1 POP PUSH2 0x1E69 PUSH0 DUP4 ADD DUP5 PUSH2 0x1E47 JUMP JUMPDEST SWAP3 SWAP2 POP POP JUMP JUMPDEST PUSH0 PUSH1 0x20 DUP3 DUP5 SUB SLT ISZERO PUSH2 0x1E84 JUMPI PUSH2 0x1E83 PUSH2 0x1BE9 JUMP JUMPDEST JUMPDEST PUSH0 PUSH2 0x1E91 DUP5 DUP3 DUP6 ADD PUSH2 0x1DA9 JUMP JUMPDEST SWAP2 POP POP SWAP3 SWAP2 POP POP JUMP JUMPDEST PUSH2 0x1EA3 DUP2 PUSH2 0x1D4F JUMP JUMPDEST DUP3 MSTORE POP POP JUMP JUMPDEST PUSH0 PUSH1 0x20 DUP3 ADD SWAP1 POP PUSH2 0x1EBC PUSH0 DUP4 ADD DUP5 PUSH2 0x1E9A JUMP JUMPDEST SWAP3 SWAP2 POP POP JUMP JUMPDEST PUSH0 DUP2 SWAP1 POP DUP3 PUSH1 0x20 PUSH1 0x2 MUL DUP3 ADD GT ISZERO PUSH2 0x1EDD JUMPI PUSH2 0x1EDC PUSH2 0x1C77 JUMP JUMPDEST JUMPDEST SWAP3 SWAP2 POP POP JUMP JUMPDEST PUSH0 DUP2 SWAP1 POP DUP3 PUSH1 0x40 PUSH1 0x2 MUL DUP3 ADD GT ISZERO PUSH2 0x1EFE JUMPI PUSH2 0x1EFD PUSH2 0x1C77 JUMP JUMPDEST JUMPDEST SWAP3 SWAP2 POP POP JUMP JUMPDEST PUSH0 DUP1 REVERT JUMPDEST PUSH0 DUP1 REVERT JUMPDEST PUSH0 DUP1 DUP4 PUSH1 0x1F DUP5 ADD SLT PUSH2 0x1F21 JUMPI PUSH2 0x1F20 PUSH2 0x1F04 JUMP JUMPDEST JUMPDEST DUP3 CALLDATALOAD SWAP1 POP PUSH8 0xFFFFFFFFFFFFFFFF DUP2 GT ISZERO PUSH2 0x1F3E JUMPI PUSH2 0x1F3D PUSH2 0x1F08 JUMP JUMPDEST JUMPDEST PUSH1 0x20 DUP4 ADD SWAP2 POP DUP4 PUSH1 0x40 DUP3 MUL DUP4 ADD GT ISZERO PUSH2 0x1F5A JUMPI PUSH2 0x1F59 PUSH2 0x1C77 JUMP JUMPDEST JUMPDEST SWAP3 POP SWAP3 SWAP1 POP JUMP JUMPDEST PUSH0 DUP1 PUSH0 DUP1 PUSH0 DUP1 PUSH2 0x160 DUP8 DUP10 SUB SLT ISZERO PUSH2 0x1F7C JUMPI PUSH2 0x1F7B PUSH2 0x1BE9 JUMP JUMPDEST JUMPDEST PUSH0 PUSH2 0x1F89 DUP10 DUP3 DUP11 ADD PUSH2 0x1EC2 JUMP JUMPDEST SWAP7 POP POP PUSH1 0x40 PUSH2 0x1F9A DUP10 DUP3 DUP11 ADD PUSH2 0x1EE3 JUMP JUMPDEST SWAP6 POP POP PUSH1 0xC0 PUSH2 0x1FAB DUP10 DUP3 DUP11 ADD PUSH2 0x1EC2 JUMP JUMPDEST SWAP5 POP POP PUSH2 0x100 PUSH2 0x1FBD DUP10 DUP3 DUP11 ADD PUSH2 0x1EC2 JUMP JUMPDEST SWAP4 POP POP PUSH2 0x140 DUP8 ADD CALLDATALOAD PUSH8 0xFFFFFFFFFFFFFFFF DUP2 GT ISZERO PUSH2 0x1FDF JUMPI PUSH2 0x1FDE PUSH2 0x1BED JUMP JUMPDEST JUMPDEST PUSH2 0x1FEB DUP10 DUP3 DUP11 ADD PUSH2 0x1F0C JUMP JUMPDEST SWAP3 POP SWAP3 POP POP SWAP3 SWAP6 POP SWAP3 SWAP6 POP SWAP3 SWAP6 JUMP JUMPDEST PUSH2 0x2003 DUP2 PUSH2 0x1D8A JUMP JUMPDEST DUP3 MSTORE POP POP JUMP JUMPDEST PUSH0 PUSH1 0xE0 DUP3 ADD SWAP1 POP PUSH2 0x201C PUSH0 DUP4 ADD DUP11 PUSH2 0x1FFA JUMP JUMPDEST PUSH2 0x2029 PUSH1 0x20 DUP4 ADD DUP10 PUSH2 0x1FFA JUMP JUMPDEST PUSH2 0x2036 PUSH1 0x40 DUP4 ADD DUP9 PUSH2 0x1C4F JUMP JUMPDEST PUSH2 0x2043 PUSH1 0x60 DUP4 ADD DUP8 PUSH2 0x1E9A JUMP JUMPDEST PUSH2 0x2050 PUSH1 0x80 DUP4 ADD DUP7 PUSH2 0x1D08 JUMP JUMPDEST PUSH2 0x205D PUSH1 0xA0 DUP4 ADD DUP6 PUSH2 0x1FFA JUMP JUMPDEST PUSH2 0x206A PUSH1 0xC0 DUP4 ADD DUP5 PUSH2 0x1C4F JUMP JUMPDEST SWAP9 SWAP8 POP POP POP POP POP POP POP POP JUMP JUMPDEST PUSH0 DUP1 PUSH1 0x40 DUP4 DUP6 SUB SLT ISZERO PUSH2 0x208C JUMPI PUSH2 0x208B PUSH2 0x1BE9 JUMP JUMPDEST JUMPDEST PUSH0 PUSH2 0x2099 DUP6 DUP3 DUP7 ADD PUSH2 0x1DA9 JUMP JUMPDEST SWAP3 POP POP PUSH1 0x20 PUSH2 0x20AA DUP6 DUP3 DUP7 ADD PUSH2 0x1DA9 JUMP JUMPDEST SWAP2 POP POP SWAP3 POP SWAP3 SWAP1 POP JUMP JUMPDEST PUSH0 DUP1 PUSH1 0x40 DUP4 DUP6 SUB SLT ISZERO PUSH2 0x20CA JUMPI PUSH2 0x20C9 PUSH2 0x1BE9 JUMP JUMPDEST JUMPDEST PUSH0 PUSH2 0x20D7 DUP6 DUP3 DUP7 ADD PUSH2 0x1C10 JUMP JUMPDEST SWAP3 POP POP PUSH1 0x20 PUSH2 0x20E8 DUP6 DUP3 DUP7 ADD PUSH2 0x1C10 JUMP JUMPDEST SWAP2 POP POP SWAP3 POP SWAP3 SWAP1 POP JUMP JUMPDEST PUSH0 DUP1 PUSH0 DUP1 PUSH2 0x160 DUP6 DUP8 SUB SLT ISZERO PUSH2 0x210B JUMPI PUSH2 0x210A PUSH2 0x1BE9 JUMP JUMPDEST JUMPDEST PUSH0 PUSH2 0x2118 DUP8 DUP3 DUP9 ADD PUSH2 0x1DA9 JUMP JUMPDEST SWAP5 POP POP PUSH1 0x20 PUSH2 0x2129 DUP8 DUP3 DUP9 ADD PUSH2 0x1DA9 JUMP JUMPDEST SWAP4 POP POP PUSH1 0x40 PUSH2 0x213A DUP8 DUP3 DUP9 ADD PUSH2 0x1C10 JUMP JUMPDEST SWAP3 POP POP PUSH1 0x60 PUSH2 0x214B DUP8 DUP3 DUP9 ADD PUSH2 0x1C7B JUMP JUMPDEST SWAP2 POP POP SWAP3 SWAP6 SWAP2 SWAP5 POP SWAP3 POP JUMP JUMPDEST PUSH0 PUSH1 0x20 DUP3 DUP5 SUB SLT ISZERO PUSH2 0x216C JUMPI PUSH2 0x216B PUSH2 0x1BE9 JUMP JUMPDEST JUMPDEST PUSH0 PUSH2 0x2179 DUP5 DUP3 DUP6 ADD PUSH2 0x1D76 JUMP JUMPDEST SWAP2 POP POP SWAP3 SWAP2 POP POP JUMP JUMPDEST PUSH32 0x4E487B7100000000000000000000000000000000000000000000000000000000 PUSH0 MSTORE PUSH1 0x32 PUSH1 0x4 MSTORE PUSH1 0x24 PUSH0 REVERT JUMPDEST PUSH0 DUP3 DUP3 MSTORE PUSH1 0x20 DUP3 ADD SWAP1 POP SWAP3 SWAP2 POP POP JUMP JUMPDEST PUSH32 0x496E76616C6964204943206C656E677468000000000000000000000000000000 PUSH0 DUP3 ADD MSTORE POP JUMP JUMPDEST PUSH0 PUSH2 0x21F3 PUSH1 0x11 DUP4 PUSH2 0x21AF JUMP JUMPDEST SWAP2 POP PUSH2 0x21FE DUP3 PUSH2 0x21BF JUMP JUMPDEST PUSH1 0x20 DUP3 ADD SWAP1 POP SWAP2 SWAP1 POP JUMP JUMPDEST PUSH0 PUSH1 0x20 DUP3 ADD SWAP1 POP DUP2 DUP2 SUB PUSH0 DUP4 ADD MSTORE PUSH2 0x2220 DUP2 PUSH2 0x21E7 JUMP JUMPDEST SWAP1 POP SWAP2 SWAP1 POP JUMP JUMPDEST PUSH32 0x496E76616C696420636F6D6D69746D656E740000000000000000000000000000 PUSH0 DUP3 ADD MSTORE POP JUMP JUMPDEST PUSH0 PUSH2 0x225B PUSH1 0x12 DUP4 PUSH2 0x21AF JUMP JUMPDEST SWAP2 POP PUSH2 0x2266 DUP3 PUSH2 0x2227 JUMP JUMPDEST PUSH1 0x20 DUP3 ADD SWAP1 POP SWAP2 SWAP1 POP JUMP JUMPDEST PUSH0 PUSH1 0x20 DUP3 ADD SWAP1 POP DUP2 DUP2 SUB PUSH0 DUP4 ADD MSTORE PUSH2 0x2288 DUP2 PUSH2 0x224F JUMP JUMPDEST SWAP1 POP SWAP2 SWAP1 POP JUMP JUMPDEST PUSH32 0x46696C6520616C72656164792065786973747300000000000000000000000000 PUSH0 DUP3 ADD MSTORE POP JUMP JUMPDEST PUSH0 PUSH2 0x22C3 PUSH1 0x13 DUP4 PUSH2 0x21AF JUMP JUMPDEST SWAP2 POP PUSH2 0x22CE DUP3 PUSH2 0x228F JUMP JUMPDEST PUSH1 0x20 DUP3 ADD SWAP1 POP SWAP2 SWAP1 POP JUMP JUMPDEST PUSH0 PUSH1 0x20 DUP3 ADD SWAP1 POP DUP2 DUP2 SUB PUSH0 DUP4 ADD MSTORE PUSH2 0x22F0 DUP2 PUSH2 0x22B7 JUMP JUMPDEST SWAP1 POP SWAP2 SWAP1 POP JUMP JUMPDEST PUSH0 PUSH1 0x40 DUP3 ADD SWAP1 POP PUSH2 0x230A PUSH0 DUP4 ADD DUP6 PUSH2 0x1FFA JUMP JUMPDEST PUSH2 0x2317 PUSH1 0x20 DUP4 ADD DUP5 PUSH2 0x1FFA JUMP JUMPDEST SWAP4 SWAP3 POP POP POP JUMP JUMPDEST PUSH2 0x2327 DUP2 PUSH2 0x1CFD JUMP JUMPDEST DUP2 EQ PUSH2 0x2331 JUMPI PUSH0 DUP1 REVERT JUMPDEST POP JUMP JUMPDEST PUSH0 DUP2 MLOAD SWAP1 POP PUSH2 0x2342 DUP2 PUSH2 0x231E JUMP JUMPDEST SWAP3 SWAP2 POP POP JUMP JUMPDEST PUSH0 PUSH1 0x20 DUP3 DUP5 SUB SLT ISZERO PUSH2 0x235D JUMPI PUSH2 0x235C PUSH2 0x1BE9 JUMP JUMPDEST JUMPDEST PUSH0 PUSH2 0x236A DUP5 DUP3 DUP6 ADD PUSH2 0x2334 JUMP JUMPDEST SWAP2 POP POP SWAP3 SWAP2 POP POP JUMP JUMPDEST PUSH32 0x426974546F7272656E7420726567697374726174696F6E206661696C65640000 PUSH0 DUP3 ADD MSTORE POP JUMP JUMPDEST PUSH0 PUSH2 0x23A7 PUSH1 0x1E DUP4 PUSH2 0x21AF JUMP JUMPDEST SWAP2 POP PUSH2 0x23B2 DUP3 PUSH2 0x2373 JUMP JUMPDEST PUSH1 0x20 DUP3 ADD SWAP1 POP SWAP2 SWAP1 POP JUMP JUMPDEST PUSH0 PUSH1 0x20 DUP3 ADD SWAP1 POP DUP2 DUP2 SUB PUSH0 DUP4 ADD MSTORE PUSH2 0x23D4 DUP2 PUSH2 0x239B JUMP JUMPDEST SWAP1 POP SWAP2 SWAP1 POP JUMP JUMPDEST DUP3 DUP2 DUP4 CALLDATACOPY POP POP POP JUMP JUMPDEST PUSH2 0x23F1 PUSH2 0x100 DUP4 DUP4 PUSH2 0x23DB JUMP JUMPDEST POP POP JUMP JUMPDEST PUSH0 PUSH1 0x1 SWAP1 POP SWAP2 SWAP1 POP JUMP JUMPDEST PUSH0 DUP2 SWAP1 POP SWAP3 SWAP2 POP POP JUMP JUMPDEST PUSH0 DUP2 SWAP1 POP SWAP2 SWAP1 POP JUMP JUMPDEST PUSH2 0x241B DUP2 PUSH2 0x1BF1 JUMP JUMPDEST DUP3 MSTORE POP POP JUMP JUMPDEST PUSH0 PUSH2 0x242C DUP4 DUP4 PUSH2 0x2412 JUMP JUMPDEST PUSH1 0x20 DUP4 ADD SWAP1 POP SWAP3 SWAP2 POP POP JUMP JUMPDEST PUSH0 PUSH1 0x20 DUP3 ADD SWAP1 POP SWAP2 SWAP1 POP JUMP JUMPDEST PUSH2 0x244D DUP2 PUSH2 0x23F5 JUMP JUMPDEST PUSH2 0x2457 DUP2 DUP5 PUSH2 0x23FF JUMP JUMPDEST SWAP3 POP PUSH2 0x2462 DUP3 PUSH2 0x2409 JUMP JUMPDEST DUP1 PUSH0 JUMPDEST DUP4 DUP2 LT ISZERO PUSH2 0x2492 JUMPI DUP2 MLOAD PUSH2 0x2479 DUP8 DUP3 PUSH2 0x2421 JUMP JUMPDEST SWAP7 POP PUSH2 0x2484 DUP4 PUSH2 0x2438 JUMP JUMPDEST SWAP3 POP POP PUSH1 0x1 DUP2 ADD SWAP1 POP PUSH2 0x2465 JUMP JUMPDEST POP POP POP POP POP POP JUMP JUMPDEST PUSH0 PUSH2 0x120 DUP3 ADD SWAP1 POP PUSH2 0x24AE PUSH0 DUP4 ADD DUP6 PUSH2 0x23E4 JUMP JUMPDEST PUSH2 0x24BC PUSH2 0x100 DUP4 ADD DUP5 PUSH2 0x2444 JUMP JUMPDEST SWAP4 SWAP3 POP POP POP JUMP JUMPDEST PUSH32 0x496E76616C69642066696C652070726F6F660000000000000000000000000000 PUSH0 DUP3 ADD MSTORE POP JUMP JUMPDEST PUSH0 PUSH2 0x24F7 PUSH1 0x12 DUP4 PUSH2 0x21AF JUMP JUMPDEST SWAP2 POP PUSH2 0x2502 DUP3 PUSH2 0x24C3 JUMP JUMPDEST PUSH1 0x20 DUP3 ADD SWAP1 POP SWAP2 SWAP1 POP JUMP JUMPDEST PUSH0 PUSH1 0x20 DUP3 ADD SWAP1 POP DUP2 DUP2 SUB PUSH0 DUP4 ADD MSTORE PUSH2 0x2524 DUP2 PUSH2 0x24EB JUMP JUMPDEST SWAP1 POP SWAP2 SWAP1 POP JUMP JUMPDEST PUSH0 PUSH1 0x40 DUP3 ADD SWAP1 POP PUSH2 0x253E PUSH0 DUP4 ADD DUP6 PUSH2 0x1C4F JUMP JUMPDEST PUSH2 0x254B PUSH1 0x20 DUP4 ADD DUP5 PUSH2 0x1C4F JUMP JUMPDEST SWAP4 SWAP3 POP POP POP JUMP JUMPDEST PUSH32 0x4E487B7100000000000000000000000000000000000000000000000000000000 PUSH0 MSTORE PUSH1 0x11 PUSH1 0x4 MSTORE PUSH1 0x24 PUSH0 REVERT JUMPDEST PUSH0 PUSH2 0x2589 DUP3 PUSH2 0x1BF1 JUMP JUMPDEST SWAP2 POP PUSH2 0x2594 DUP4 PUSH2 0x1BF1 JUMP JUMPDEST SWAP3 POP DUP3 DUP3 ADD SWAP1 POP DUP1 DUP3 GT ISZERO PUSH2 0x25AC JUMPI PUSH2 0x25AB PUSH2 0x2552 JUMP JUMPDEST JUMPDEST SWAP3 SWAP2 POP POP JUMP JUMPDEST PUSH32 0x496E76616C696420696E707574206C656E677468000000000000000000000000 PUSH0 DUP3 ADD MSTORE POP JUMP JUMPDEST PUSH0 PUSH2 0x25E6 PUSH1 0x14 DUP4 PUSH2 0x21AF JUMP JUMPDEST SWAP2 POP PUSH2 0x25F1 DUP3 PUSH2 0x25B2 JUMP JUMPDEST PUSH1 0x20 DUP3 ADD SWAP1 POP SWAP2 SWAP1 POP JUMP JUMPDEST PUSH0 PUSH1 0x20 DUP3 ADD SWAP1 POP DUP2 DUP2 SUB PUSH0 DUP4 ADD MSTORE PUSH2 0x2613 DUP2 PUSH2 0x25DA JUMP JUMPDEST SWAP1 POP SWAP2 SWAP1 POP JUMP JUMPDEST PUSH0 PUSH2 0x2624 DUP3 PUSH2 0x1BF1 JUMP JUMPDEST SWAP2 POP PUSH2 0x262F DUP4 PUSH2 0x1BF1 JUMP JUMPDEST SWAP3 POP DUP3 DUP3 MUL PUSH2 0x263D DUP2 PUSH2 0x1BF1 JUMP JUMPDEST SWAP2 POP DUP3 DUP3 DIV DUP5 EQ DUP4 ISZERO OR PUSH2 0x2654 JUMPI PUSH2 0x2653 PUSH2 0x2552 JUMP JUMPDEST JUMPDEST POP SWAP3 SWAP2 POP POP JUMP JUMPDEST PUSH32 0x50616972696E6720636865636B206661696C6564000000000000000000000000 PUSH0 DUP3 ADD MSTORE POP JUMP JUMPDEST PUSH0 PUSH2 0x268F PUSH1 0x14 DUP4 PUSH2 0x21AF JUMP JUMPDEST SWAP2 POP PUSH2 0x269A DUP3 PUSH2 0x265B JUMP JUMPDEST PUSH1 0x20 DUP3 ADD SWAP1 POP SWAP2 SWAP1 POP JUMP JUMPDEST PUSH0 PUSH1 0x20 DUP3 ADD SWAP1 POP DUP2 DUP2 SUB PUSH0 DUP4 ADD MSTORE PUSH2 0x26BC DUP2 PUSH2 0x2683 JUMP JUMPDEST SWAP1 POP SWAP2 SWAP1 POP JUMP JUMPDEST PUSH32 0x4E487B7100000000000000000000000000000000000000000000000000000000 PUSH0 MSTORE PUSH1 0x12 PUSH1 0x4 MSTORE PUSH1 0x24 PUSH0 REVERT JUMPDEST PUSH0 PUSH2 0x26FA DUP3 PUSH2 0x1BF1 JUMP JUMPDEST SWAP2 POP PUSH2 0x2705 DUP4 PUSH2 0x1BF1 JUMP JUMPDEST SWAP3 POP DUP3 PUSH2 0x2715 JUMPI PUSH2 0x2714 PUSH2 0x26C3 JUMP JUMPDEST JUMPDEST DUP3 DUP3 MOD SWAP1 POP SWAP3 SWAP2 POP POP JUMP JUMPDEST PUSH0 PUSH2 0x272A DUP3 PUSH2 0x1BF1 JUMP JUMPDEST SWAP2 POP PUSH2 0x2735 DUP4 PUSH2 0x1BF1 JUMP JUMPDEST SWAP3 POP DUP3 DUP3 SUB SWAP1 POP DUP2 DUP2 GT ISZERO PUSH2 0x274D JUMPI PUSH2 0x274C PUSH2 0x2552 JUMP JUMPDEST JUMPDEST SWAP3 SWAP2 POP POP JUMP INVALID LOG2 PUSH5 0x6970667358 0x22 SLT KECCAK256 XOR 0xB1 SWAP5 SWAP3 MCOPY MOD MSTORE8 0xBB 0xCF DUP5 0xF9 0x29 PUSH8 0x916572AED472E18A 0xD1 0xDD SWAP8 PUSH0 0x4E 0xBD MLOAD 0xC SWAP13 PUSH4 0x6864736F PUSH13 0x634300081A0033000000000000 "
		},
		"gasEstimates": {
			"creation": {
				"codeDepositCost": "2024200",
				"executionCost": "infinite",
				"totalCost": "infinite"
			},
			"external": {
				"alphaComponents(uint256)": "infinite",
				"betaComponents(uint256,uint256)": "infinite",
				"bitTorrent()": "infinite",
				"deltaComponents(uint256)": "infinite",
				"fileAccessProofs(bytes32,bytes32)": "infinite",
				"files(bytes32)": "infinite",
				"gammaComponents(uint256)": "infinite",
				"icComponents(uint256,uint256)": "infinite",
				"icLength()": "2515",
				"initializeVerificationKey(uint256[2],uint256[2][2],uint256[2],uint256[2],uint256[2][])": "infinite",
				"nullifierUsed(bytes32)": "2808",
				"owner()": "2582",
				"pause()": "infinite",
				"paused()": "2518",
				"renounceOwnership()": "infinite",
				"transferOwnership(address)": "infinite",
				"unpause()": "infinite",
				"userAccess(address,bytes32)": "3139",
				"verifyFileProof(bytes32,bytes32,uint256,uint256[8])": "infinite",
				"verifyProof(uint256[8],uint256[1])": "infinite"
			},
			"internal": {
				"_isOnCurve(uint256,uint256)": "infinite",
				"_negate(uint256,uint256)": "infinite",
				"_pointAdd(uint256,uint256,uint256,uint256)": "infinite",
				"_scalarMul(uint256[2] memory,uint256)": "infinite",
				"_verifyPairing(uint256[2] memory,uint256[2] memory[2] memory,uint256[2] memory,uint256[2] memory,uint256[2] memory,uint256[2] memory,uint256[2] memory,uint256[2] memory)": "infinite",
				"_verifyProof(uint256[2] memory,uint256[2] memory[2] memory,uint256[2] memory,uint256[1] memory)": "infinite"
			}
		},
		"methodIdentifiers": {
			"alphaComponents(uint256)": "02e291b1",
			"betaComponents(uint256,uint256)": "cb57dc3e",
			"bitTorrent()": "4f1c6447",
			"deltaComponents(uint256)": "5d41f36e",
			"fileAccessProofs(bytes32,bytes32)": "b08eff56",
			"files(bytes32)": "98c9adff",
			"gammaComponents(uint256)": "63a787e2",
			"icComponents(uint256,uint256)": "fc8221a9",
			"icLength()": "280ee92a",
			"initializeVerificationKey(uint256[2],uint256[2][2],uint256[2],uint256[2],uint256[2][])": "914acecd",
			"nullifierUsed(bytes32)": "7ecf686d",
			"owner()": "8da5cb5b",
			"pause()": "8456cb59",
			"paused()": "5c975abb",
			"renounceOwnership()": "715018a6",
			"transferOwnership(address)": "f2fde38b",
			"unpause()": "3f4ba83a",
			"userAccess(address,bytes32)": "1ba82d42",
			"verifyFileProof(bytes32,bytes32,uint256,uint256[8])": "d796ad6d",
			"verifyProof(uint256[8],uint256[1])": "1b81f829"
		}
	},
	"abi": [
		{
			"inputs": [
				{
					"internalType": "address",
					"name": "_bitTorrent",
					"type": "address"
				},
				{
					"internalType": "address",
					"name": "_initialOwner",
					"type": "address"
				}
			],
			"stateMutability": "nonpayable",
			"type": "constructor"
		},
		{
			"inputs": [],
			"name": "EnforcedPause",
			"type": "error"
		},
		{
			"inputs": [],
			"name": "ExpectedPause",
			"type": "error"
		},
		{
			"inputs": [
				{
					"internalType": "address",
					"name": "owner",
					"type": "address"
				}
			],
			"name": "OwnableInvalidOwner",
			"type": "error"
		},
		{
			"inputs": [
				{
					"internalType": "address",
					"name": "account",
					"type": "address"
				}
			],
			"name": "OwnableUnauthorizedAccount",
			"type": "error"
		},
		{
			"inputs": [],
			"name": "ReentrancyGuardReentrantCall",
			"type": "error"
		},
		{
			"anonymous": false,
			"inputs": [
				{
					"indexed": true,
					"internalType": "bytes32",
					"name": "fileCommitment",
					"type": "bytes32"
				},
				{
					"indexed": true,
					"internalType": "address",
					"name": "user",
					"type": "address"
				},
				{
					"indexed": false,
					"internalType": "bytes32",
					"name": "accessProof",
					"type": "bytes32"
				},
				{
					"indexed": false,
					"internalType": "uint256",
					"name": "timestamp",
					"type": "uint256"
				}
			],
			"name": "AccessProofVerified",
			"type": "event"
		},
		{
			"anonymous": false,
			"inputs": [
				{
					"indexed": true,
					"internalType": "bytes32",
					"name": "fileCommitment",
					"type": "bytes32"
				},
				{
					"indexed": true,
					"internalType": "bytes32",
					"name": "encryptionProof",
					"type": "bytes32"
				},
				{
					"indexed": false,
					"internalType": "uint256",
					"name": "timestamp",
					"type": "uint256"
				}
			],
			"name": "EncryptionProofVerified",
			"type": "event"
		},
		{
			"anonymous": false,
			"inputs": [
				{
					"indexed": true,
					"internalType": "bytes32",
					"name": "commitment",
					"type": "bytes32"
				},
				{
					"indexed": true,
					"internalType": "bytes32",
					"name": "metadataHash",
					"type": "bytes32"
				},
				{
					"indexed": true,
					"internalType": "address",
					"name": "owner",
					"type": "address"
				},
				{
					"indexed": false,
					"internalType": "uint256",
					"name": "size",
					"type": "uint256"
				},
				{
					"indexed": false,
					"internalType": "uint256",
					"name": "timestamp",
					"type": "uint256"
				}
			],
			"name": "FileProofVerified",
			"type": "event"
		},
		{
			"anonymous": false,
			"inputs": [
				{
					"indexed": true,
					"internalType": "address",
					"name": "previousOwner",
					"type": "address"
				},
				{
					"indexed": true,
					"internalType": "address",
					"name": "newOwner",
					"type": "address"
				}
			],
			"name": "OwnershipTransferred",
			"type": "event"
		},
		{
			"anonymous": false,
			"inputs": [
				{
					"indexed": false,
					"internalType": "address",
					"name": "account",
					"type": "address"
				}
			],
			"name": "Paused",
			"type": "event"
		},
		{
			"anonymous": false,
			"inputs": [
				{
					"indexed": false,
					"internalType": "address",
					"name": "account",
					"type": "address"
				}
			],
			"name": "Unpaused",
			"type": "event"
		},
		{
			"inputs": [
				{
					"internalType": "uint256",
					"name": "",
					"type": "uint256"
				}
			],
			"name": "alphaComponents",
			"outputs": [
				{
					"internalType": "uint256",
					"name": "",
					"type": "uint256"
				}
			],
			"stateMutability": "view",
			"type": "function"
		},
		{
			"inputs": [
				{
					"internalType": "uint256",
					"name": "",
					"type": "uint256"
				},
				{
					"internalType": "uint256",
					"name": "",
					"type": "uint256"
				}
			],
			"name": "betaComponents",
			"outputs": [
				{
					"internalType": "uint256",
					"name": "",
					"type": "uint256"
				}
			],
			"stateMutability": "view",
			"type": "function"
		},
		{
			"inputs": [],
			"name": "bitTorrent",
			"outputs": [
				{
					"internalType": "contract IBitTorrent",
					"name": "",
					"type": "address"
				}
			],
			"stateMutability": "view",
			"type": "function"
		},
		{
			"inputs": [
				{
					"internalType": "uint256",
					"name": "",
					"type": "uint256"
				}
			],
			"name": "deltaComponents",
			"outputs": [
				{
					"internalType": "uint256",
					"name": "",
					"type": "uint256"
				}
			],
			"stateMutability": "view",
			"type": "function"
		},
		{
			"inputs": [
				{
					"internalType": "bytes32",
					"name": "",
					"type": "bytes32"
				},
				{
					"internalType": "bytes32",
					"name": "",
					"type": "bytes32"
				}
			],
			"name": "fileAccessProofs",
			"outputs": [
				{
					"internalType": "bool",
					"name": "",
					"type": "bool"
				}
			],
			"stateMutability": "view",
			"type": "function"
		},
		{
			"inputs": [
				{
					"internalType": "bytes32",
					"name": "",
					"type": "bytes32"
				}
			],
			"name": "files",
			"outputs": [
				{
					"internalType": "bytes32",
					"name": "commitment",
					"type": "bytes32"
				},
				{
					"internalType": "bytes32",
					"name": "metadataHash",
					"type": "bytes32"
				},
				{
					"internalType": "uint256",
					"name": "size",
					"type": "uint256"
				},
				{
					"internalType": "address",
					"name": "owner",
					"type": "address"
				},
				{
					"internalType": "bool",
					"name": "isEncrypted",
					"type": "bool"
				},
				{
					"internalType": "bytes32",
					"name": "encryptionProof",
					"type": "bytes32"
				},
				{
					"internalType": "uint256",
					"name": "timestamp",
					"type": "uint256"
				}
			],
			"stateMutability": "view",
			"type": "function"
		},
		{
			"inputs": [
				{
					"internalType": "uint256",
					"name": "",
					"type": "uint256"
				}
			],
			"name": "gammaComponents",
			"outputs": [
				{
					"internalType": "uint256",
					"name": "",
					"type": "uint256"
				}
			],
			"stateMutability": "view",
			"type": "function"
		},
		{
			"inputs": [
				{
					"internalType": "uint256",
					"name": "",
					"type": "uint256"
				},
				{
					"internalType": "uint256",
					"name": "",
					"type": "uint256"
				}
			],
			"name": "icComponents",
			"outputs": [
				{
					"internalType": "uint256",
					"name": "",
					"type": "uint256"
				}
			],
			"stateMutability": "view",
			"type": "function"
		},
		{
			"inputs": [],
			"name": "icLength",
			"outputs": [
				{
					"internalType": "uint256",
					"name": "",
					"type": "uint256"
				}
			],
			"stateMutability": "view",
			"type": "function"
		},
		{
			"inputs": [
				{
					"internalType": "uint256[2]",
					"name": "_alpha",
					"type": "uint256[2]"
				},
				{
					"internalType": "uint256[2][2]",
					"name": "_beta",
					"type": "uint256[2][2]"
				},
				{
					"internalType": "uint256[2]",
					"name": "_gamma",
					"type": "uint256[2]"
				},
				{
					"internalType": "uint256[2]",
					"name": "_delta",
					"type": "uint256[2]"
				},
				{
					"internalType": "uint256[2][]",
					"name": "_ic",
					"type": "uint256[2][]"
				}
			],
			"name": "initializeVerificationKey",
			"outputs": [],
			"stateMutability": "nonpayable",
			"type": "function"
		},
		{
			"inputs": [
				{
					"internalType": "bytes32",
					"name": "",
					"type": "bytes32"
				}
			],
			"name": "nullifierUsed",
			"outputs": [
				{
					"internalType": "bool",
					"name": "",
					"type": "bool"
				}
			],
			"stateMutability": "view",
			"type": "function"
		},
		{
			"inputs": [],
			"name": "owner",
			"outputs": [
				{
					"internalType": "address",
					"name": "",
					"type": "address"
				}
			],
			"stateMutability": "view",
			"type": "function"
		},
		{
			"inputs": [],
			"name": "pause",
			"outputs": [],
			"stateMutability": "nonpayable",
			"type": "function"
		},
		{
			"inputs": [],
			"name": "paused",
			"outputs": [
				{
					"internalType": "bool",
					"name": "",
					"type": "bool"
				}
			],
			"stateMutability": "view",
			"type": "function"
		},
		{
			"inputs": [],
			"name": "renounceOwnership",
			"outputs": [],
			"stateMutability": "nonpayable",
			"type": "function"
		},
		{
			"inputs": [
				{
					"internalType": "address",
					"name": "newOwner",
					"type": "address"
				}
			],
			"name": "transferOwnership",
			"outputs": [],
			"stateMutability": "nonpayable",
			"type": "function"
		},
		{
			"inputs": [],
			"name": "unpause",
			"outputs": [],
			"stateMutability": "nonpayable",
			"type": "function"
		},
		{
			"inputs": [
				{
					"internalType": "address",
					"name": "",
					"type": "address"
				},
				{
					"internalType": "bytes32",
					"name": "",
					"type": "bytes32"
				}
			],
			"name": "userAccess",
			"outputs": [
				{
					"internalType": "bool",
					"name": "",
					"type": "bool"
				}
			],
			"stateMutability": "view",
			"type": "function"
		},
		{
			"inputs": [
				{
					"internalType": "bytes32",
					"name": "commitment",
					"type": "bytes32"
				},
				{
					"internalType": "bytes32",
					"name": "metadataHash",
					"type": "bytes32"
				},
				{
					"internalType": "uint256",
					"name": "size",
					"type": "uint256"
				},
				{
					"internalType": "uint256[8]",
					"name": "proof",
					"type": "uint256[8]"
				}
			],
			"name": "verifyFileProof",
			"outputs": [
				{
					"internalType": "bool",
					"name": "",
					"type": "bool"
				}
			],
			"stateMutability": "nonpayable",
			"type": "function"
		},
		{
			"inputs": [
				{
					"internalType": "uint256[8]",
					"name": "proof",
					"type": "uint256[8]"
				},
				{
					"internalType": "uint256[1]",
					"name": "input",
					"type": "uint256[1]"
				}
			],
			"name": "verifyProof",
			"outputs": [
				{
					"internalType": "bool",
					"name": "",
					"type": "bool"
				}
			],
			"stateMutability": "view",
			"type": "function"
		}
	]
}