{
	"data": {
		"bytecode": {
			"linkReferences": {},
			"object": "608060405234801561000f575f80fd5b5060405161285538038061285583398181016040528101906100319190610265565b805f73ffffffffffffffffffffffffffffffffffffffff168173ffffffffffffffffffffffffffffffffffffffff16036100a2575f6040517f1e4fbdf7000000000000000000000000000000000000000000000000000000008152600401610099919061029f565b60405180910390fd5b6100b18161014660201b60201c565b50600180819055505f60025f6101000a81548160ff0219169083151502179055505f73ffffffffffffffffffffffffffffffffffffffff168173ffffffffffffffffffffffffffffffffffffffff1603610140576040517f08c379a000000000000000000000000000000000000000000000000000000000815260040161013790610312565b60405180910390fd5b50610330565b5f805f9054906101000a900473ffffffffffffffffffffffffffffffffffffffff169050815f806101000a81548173ffffffffffffffffffffffffffffffffffffffff021916908373ffffffffffffffffffffffffffffffffffffffff1602179055508173ffffffffffffffffffffffffffffffffffffffff168173ffffffffffffffffffffffffffffffffffffffff167f8be0079c531659141344cd1fd0a4f28419497f9722a3daafe3b4186f6b6457e060405160405180910390a35050565b5f80fd5b5f73ffffffffffffffffffffffffffffffffffffffff82169050919050565b5f6102348261020b565b9050919050565b6102448161022a565b811461024e575f80fd5b50565b5f8151905061025f8161023b565b92915050565b5f6020828403121561027a57610279610207565b5b5f61028784828501610251565b91505092915050565b6102998161022a565b82525050565b5f6020820190506102b25f830184610290565b92915050565b5f82825260208201905092915050565b7f496e76616c6964206f776e6572206164647265737300000000000000000000005f82015250565b5f6102fc6015836102b8565b9150610307826102c8565b602082019050919050565b5f6020820190508181035f830152610329816102f0565b9050919050565b6125188061033d5f395ff3fe608060405234801561000f575f80fd5b5060043610610109575f3560e01c80633f4ba83a116100a05780638456cb591161006f5780638456cb59146102cc5780638da5cb5b146102d6578063f2fde38b146102f4578063fc8221a914610310578063ff625fc31461034057610109565b80633f4ba83a1461026a5780635c975abb14610274578063715018a6146102925780637ecf686d1461029c57610109565b8063280ee92a116100dc578063280ee92a146101b9578063281e8383146101d75780632bbd59ca146102075780632e2695401461023a57610109565b806312202ec61461010d57806319880295146101295780631b81f82914610159578063230a0ab014610189575b5f80fd5b61012760048036038101906101229190611a0f565b610370565b005b610143600480360381019061013e9190611ada565b610647565b6040516101509190611b14565b60405180910390f35b610173600480360381019061016e9190611b6f565b61065c565b6040516101809190611bc9565b60405180910390f35b6101a3600480360381019061019e9190611ada565b6107ca565b6040516101b09190611b14565b60405180910390f35b6101c16107df565b6040516101ce9190611b14565b60405180910390f35b6101f160048036038101906101ec9190611ada565b6107e5565b6040516101fe9190611b14565b60405180910390f35b610221600480360381019061021c9190611c15565b6107fa565b6040516102319493929190611c4f565b60405180910390f35b610254600480360381019061024f9190611d41565b610832565b6040516102619190611bc9565b60405180910390f35b610272610a93565b005b61027c610aa5565b6040516102899190611bc9565b60405180910390f35b61029a610aba565b005b6102b660048036038101906102b19190611c15565b610acd565b6040516102c39190611bc9565b60405180910390f35b6102d4610aea565b005b6102de610afc565b6040516102eb9190611de6565b60405180910390f35b61030e60048036038101906103099190611dff565b610b23565b005b61032a60048036038101906103259190611e2a565b610ba7565b6040516103379190611b14565b60405180910390f35b61035a60048036038101906103559190611ada565b610bc7565b6040516103679190611b14565b60405180910390f35b610378610bdc565b5f82829050116103bd576040517f08c379a00000000000000000000000000000000000000000000000000000000081526004016103b490611ec2565b60405180910390fd5b855f600281106103d0576103cf611ee0565b5b602002013560035f8081526020019081526020015f2081905550856001600281106103fe576103fd611ee0565b5b602002013560035f600181526020019081526020015f2081905550845f6002811061042c5761042b611ee0565b5b602002013560045f8081526020019081526020015f20819055508460016002811061045a57610459611ee0565b5b602002013560045f600181526020019081526020015f2081905550835f6002811061048857610487611ee0565b5b602002013560055f8081526020019081526020015f2081905550836001600281106104b6576104b5611ee0565b5b602002013560055f600181526020019081526020015f2081905550825f600281106104e4576104e3611ee0565b5b602002013560065f8081526020019081526020015f20819055508260016002811061051257610511611ee0565b5b602002013560065f600181526020019081526020015f2081905550818190506008819055505f5b828290508110156105fb5782828281811061055757610556611ee0565b5b9050604002015f6002811061056f5761056e611ee0565b5b602002013560075f8381526020019081526020015f205f8081526020019081526020015f20819055508282828181106105ab576105aa611ee0565b5b9050604002016001600281106105c4576105c3611ee0565b5b602002013560075f8381526020019081526020015f205f600181526020019081526020015f20819055508080600101915050610539565b503373ffffffffffffffffffffffffffffffffffffffff167fc470d8977cb4e42289eb539c1960f641215874c98afe7844c8201ca63887fd7860405160405180910390a2505050505050565b6005602052805f5260405f205f915090505481565b5f6107c26040518060400160405280855f6008811061067e5761067d611ee0565b5b602002013581526020018560016008811061069c5761069b611ee0565b5b602002013581525060405180604001604052806040518060400160405280886002600881106106ce576106cd611ee0565b5b60200201358152602001886003600881106106ec576106eb611ee0565b5b6020020135815250815260200160405180604001604052808860046008811061071857610717611ee0565b5b602002013581526020018860056008811061073657610735611ee0565b5b60200201358152508152506040518060400160405280876006600881106107605761075f611ee0565b5b602002013581526020018760076008811061077e5761077d611ee0565b5b60200201358152508560018060200260405190810160405280929190826001602002808284375f81840152601f19601f820116905080830192505050505050610c63565b905092915050565b6006602052805f5260405f205f915090505481565b60085481565b6004602052805f5260405f205f915090505481565b6009602052805f5260405f205f91509050805f015490806001015490806002015490806003015f9054906101000a900460ff16905084565b5f61083b610f27565b610843610f6d565b600a5f8781526020019081526020015f205f9054906101000a900460ff16156108a1576040517f08c379a000000000000000000000000000000000000000000000000000000000815260040161089890611f57565b60405180910390fd5b5f60405180602001604052808773ffffffffffffffffffffffffffffffffffffffff1681525090503073ffffffffffffffffffffffffffffffffffffffff16631b81f82985858101906108f491906120ab565b836040518363ffffffff1660e01b81526004016109129291906121fb565b602060405180830381865afa15801561092d573d5f803e3d5ffd5b505050506040513d601f19601f82011682018060405250810190610951919061224e565b610990576040517f08c379a0000000000000000000000000000000000000000000000000000000008152600401610987906122c3565b60405180910390fd5b60405180608001604052808981526020018881526020014281526020016001151581525060095f8a81526020019081526020015f205f820151815f015560208201518160010155604082015181600201556060820151816003015f6101000a81548160ff0219169083151502179055509050506001600a5f8981526020019081526020015f205f6101000a81548160ff0219169083151502179055508573ffffffffffffffffffffffffffffffffffffffff1687897f9675c67edb39d5ae53cd37192a12d34a8b4341d9955d37e70e0968c6962c32a442604051610a749190611b14565b60405180910390a46001915050610a89610fae565b9695505050505050565b610a9b610bdc565b610aa3610fb7565b565b5f60025f9054906101000a900460ff16905090565b610ac2610bdc565b610acb5f611018565b565b600a602052805f5260405f205f915054906101000a900460ff1681565b610af2610bdc565b610afa6110d9565b565b5f805f9054906101000a900473ffffffffffffffffffffffffffffffffffffffff16905090565b610b2b610bdc565b5f73ffffffffffffffffffffffffffffffffffffffff168173ffffffffffffffffffffffffffffffffffffffff1603610b9b575f6040517f1e4fbdf7000000000000000000000000000000000000000000000000000000008152600401610b929190611de6565b60405180910390fd5b610ba481611018565b50565b6007602052815f5260405f20602052805f5260405f205f91509150505481565b6003602052805f5260405f205f915090505481565b610be461113b565b73ffffffffffffffffffffffffffffffffffffffff16610c02610afc565b73ffffffffffffffffffffffffffffffffffffffff1614610c6157610c2561113b565b6040517f118cdaa7000000000000000000000000000000000000000000000000000000008152600401610c589190611de6565b60405180910390fd5b565b5f600854600180610c74919061230e565b14610cb4576040517f08c379a0000000000000000000000000000000000000000000000000000000008152600401610cab9061238b565b60405180910390fd5b5f604051806040016040528060075f8081526020019081526020015f205f8081526020019081526020015f2054815260200160075f8081526020019081526020015f205f600181526020019081526020015f205481525090505f5b6001811015610e2f575f80610da8604051806040016040528060075f600188610d38919061230e565b81526020019081526020015f205f8081526020019081526020015f2054815260200160075f600188610d6a919061230e565b81526020019081526020015f205f600181526020019081526020015f2054815250878560018110610d9e57610d9d611ee0565b5b6020020151611142565b91509150610de7845f60028110610dc257610dc1611ee0565b5b602002015185600160028110610ddb57610dda611ee0565b5b60200201518484611196565b855f60028110610dfa57610df9611ee0565b5b6020020186600160028110610e1257610e11611ee0565b5b602002018281525082815250505050508080600101915050610d0f565b50610f1c8686604051806040016040528060035f8081526020019081526020015f2054815260200160035f600181526020019081526020015f2054815250604051806040016040528060045f8081526020019081526020015f2054815260200160045f600181526020019081526020015f205481525085604051806040016040528060055f8081526020019081526020015f2054815260200160055f600181526020019081526020015f20548152508a604051806040016040528060065f8081526020019081526020015f2054815260200160065f600181526020019081526020015f20548152506111bd565b915050949350505050565b600260015403610f63576040517f3ee5aeb500000000000000000000000000000000000000000000000000000000815260040160405180910390fd5b6002600181905550565b610f75610aa5565b15610fac576040517fd93c066500000000000000000000000000000000000000000000000000000000815260040160405180910390fd5b565b60018081905550565b610fbf61188d565b5f60025f6101000a81548160ff0219169083151502179055507f5db9ee0a495bf2e6ff9c91a7834c1ba4fdd244a5e8aa4e537bd38aeae4b073aa61100161113b565b60405161100e9190611de6565b60405180910390a1565b5f805f9054906101000a900473ffffffffffffffffffffffffffffffffffffffff169050815f806101000a81548173ffffffffffffffffffffffffffffffffffffffff021916908373ffffffffffffffffffffffffffffffffffffffff1602179055508173ffffffffffffffffffffffffffffffffffffffff168173ffffffffffffffffffffffffffffffffffffffff167f8be0079c531659141344cd1fd0a4f28419497f9722a3daafe3b4186f6b6457e060405160405180910390a35050565b6110e1610f6d565b600160025f6101000a81548160ff0219169083151502179055507f62e78cea01bee320cd4e420270b5ea74000d11b0c9f74754ebdbfc544b05a25861112461113b565b6040516111319190611de6565b60405180910390a1565b5f33905090565b5f8082845f6002811061115857611157611ee0565b5b602002015161116791906123a9565b838560016002811061117c5761117b611ee0565b5b602002015161118b91906123a9565b915091509250929050565b5f8083866111a4919061230e565b83866111b0919061230e565b9150915094509492505050565b5f6111c6611937565b6111ff8a5f600281106111dc576111db611ee0565b5b60200201518b6001600281106111f5576111f4611ee0565b5b60200201516118cd565b8b5f6002811061121257611211611ee0565b5b602002018c60016002811061122a57611229611ee0565b5b6020020182815250828152505050611271845f6002811061124e5761124d611ee0565b5b60200201518560016002811061126757611266611ee0565b5b60200201516118cd565b855f6002811061128457611283611ee0565b5b602002018660016002811061129c5761129b611ee0565b5b6020020182815250828152505050895f600281106112bd576112bc611ee0565b5b6020020151815f601881106112d5576112d4611ee0565b5b602002018181525050896001600281106112f2576112f1611ee0565b5b60200201518160016018811061130b5761130a611ee0565b5b602002018181525050885f6002811061132757611326611ee0565b5b60200201515f6002811061133e5761133d611ee0565b5b60200201518160026018811061135757611356611ee0565b5b602002018181525050885f6002811061137357611372611ee0565b5b602002015160016002811061138b5761138a611ee0565b5b6020020151816003601881106113a4576113a3611ee0565b5b602002018181525050886001600281106113c1576113c0611ee0565b5b60200201515f600281106113d8576113d7611ee0565b5b6020020151816004601881106113f1576113f0611ee0565b5b6020020181815250508860016002811061140e5761140d611ee0565b5b602002015160016002811061142657611425611ee0565b5b60200201518160056018811061143f5761143e611ee0565b5b602002018181525050875f6002811061145b5761145a611ee0565b5b60200201518160066018811061147457611473611ee0565b5b6020020181815250508760016002811061149157611490611ee0565b5b6020020151816007601881106114aa576114a9611ee0565b5b602002018181525050865f600281106114c6576114c5611ee0565b5b6020020151816008601881106114df576114de611ee0565b5b602002018181525050866001600281106114fc576114fb611ee0565b5b60200201518160096018811061151557611514611ee0565b5b602002018181525050865f6002811061153157611530611ee0565b5b602002015181600a6018811061154a57611549611ee0565b5b6020020181815250508660016002811061156757611566611ee0565b5b602002015181600b601881106115805761157f611ee0565b5b602002018181525050855f6002811061159c5761159b611ee0565b5b602002015181600c601881106115b5576115b4611ee0565b5b602002018181525050856001600281106115d2576115d1611ee0565b5b602002015181600d601881106115eb576115ea611ee0565b5b602002018181525050845f6002811061160757611606611ee0565b5b602002015181600e601881106116205761161f611ee0565b5b6020020181815250508460016002811061163d5761163c611ee0565b5b602002015181600f6018811061165657611655611ee0565b5b602002018181525050845f6002811061167257611671611ee0565b5b60200201518160106018811061168b5761168a611ee0565b5b602002018181525050846001600281106116a8576116a7611ee0565b5b6020020151816011601881106116c1576116c0611ee0565b5b602002018181525050835f600281106116dd576116dc611ee0565b5b6020020151816012601881106116f6576116f5611ee0565b5b6020020181815250508360016002811061171357611712611ee0565b5b60200201518160136018811061172c5761172b611ee0565b5b602002018181525050825f6002811061174857611747611ee0565b5b60200201518160146018811061176157611760611ee0565b5b6020020181815250508260016002811061177e5761177d611ee0565b5b60200201518160156018811061179757611796611ee0565b5b602002018181525050825f600281106117b3576117b2611ee0565b5b6020020151816016601881106117cc576117cb611ee0565b5b602002018181525050826001600281106117e9576117e8611ee0565b5b60200201518160176018811061180257611801611ee0565b5b60200201818152505061181361195a565b5f6020826101808560085afa905080611861576040517f08c379a000000000000000000000000000000000000000000000000000000000815260040161185890612434565b60405180910390fd5b6001825f6001811061187657611875611ee0565b5b602002015114935050505098975050505050505050565b611895610aa5565b6118cb576040517f8dfc202b00000000000000000000000000000000000000000000000000000000815260040160405180910390fd5b565b5f805f7f30644e72e131a029b85045b68181585d97816a916871ca8d3c208c16d87cfd4790505f8514801561190157505f84145b15611912575f809250925050611930565b84818561191f919061247f565b8261192a91906124af565b92509250505b9250929050565b604051806103000160405280601890602082028036833780820191505090505090565b6040518060200160405280600190602082028036833780820191505090505090565b5f604051905090565b5f80fd5b5f80fd5b5f80fd5b5f819050826020600202820111156119ac576119ab61198d565b5b92915050565b5f80fd5b5f80fd5b5f8083601f8401126119cf576119ce6119b2565b5b8235905067ffffffffffffffff8111156119ec576119eb6119b6565b5b602083019150836040820283011115611a0857611a0761198d565b5b9250929050565b5f805f805f806101208789031215611a2a57611a29611985565b5b5f611a3789828a01611991565b9650506040611a4889828a01611991565b9550506080611a5989828a01611991565b94505060c0611a6a89828a01611991565b93505061010087013567ffffffffffffffff811115611a8c57611a8b611989565b5b611a9889828a016119ba565b92509250509295509295509295565b5f819050919050565b611ab981611aa7565b8114611ac3575f80fd5b50565b5f81359050611ad481611ab0565b92915050565b5f60208284031215611aef57611aee611985565b5b5f611afc84828501611ac6565b91505092915050565b611b0e81611aa7565b82525050565b5f602082019050611b275f830184611b05565b92915050565b5f81905082602060080282011115611b4857611b4761198d565b5b92915050565b5f81905082602060010282011115611b6957611b6861198d565b5b92915050565b5f806101208385031215611b8657611b85611985565b5b5f611b9385828601611b2d565b925050610100611ba585828601611b4e565b9150509250929050565b5f8115159050919050565b611bc381611baf565b82525050565b5f602082019050611bdc5f830184611bba565b92915050565b5f819050919050565b611bf481611be2565b8114611bfe575f80fd5b50565b5f81359050611c0f81611beb565b92915050565b5f60208284031215611c2a57611c29611985565b5b5f611c3784828501611c01565b91505092915050565b611c4981611be2565b82525050565b5f608082019050611c625f830187611c40565b611c6f6020830186611c40565b611c7c6040830185611b05565b611c896060830184611bba565b95945050505050565b5f73ffffffffffffffffffffffffffffffffffffffff82169050919050565b5f611cbb82611c92565b9050919050565b611ccb81611cb1565b8114611cd5575f80fd5b50565b5f81359050611ce681611cc2565b92915050565b5f8083601f840112611d0157611d006119b2565b5b8235905067ffffffffffffffff811115611d1e57611d1d6119b6565b5b602083019150836001820283011115611d3a57611d3961198d565b5b9250929050565b5f805f805f8060a08789031215611d5b57611d5a611985565b5b5f611d6889828a01611c01565b9650506020611d7989828a01611c01565b9550506040611d8a89828a01611cd8565b9450506060611d9b89828a01611cd8565b935050608087013567ffffffffffffffff811115611dbc57611dbb611989565b5b611dc889828a01611cec565b92509250509295509295509295565b611de081611cb1565b82525050565b5f602082019050611df95f830184611dd7565b92915050565b5f60208284031215611e1457611e13611985565b5b5f611e2184828501611cd8565b91505092915050565b5f8060408385031215611e4057611e3f611985565b5b5f611e4d85828601611ac6565b9250506020611e5e85828601611ac6565b9150509250929050565b5f82825260208201905092915050565b7f496e76616c6964204943206c656e6774680000000000000000000000000000005f82015250565b5f611eac601183611e68565b9150611eb782611e78565b602082019050919050565b5f6020820190508181035f830152611ed981611ea0565b9050919050565b7f4e487b71000000000000000000000000000000000000000000000000000000005f52603260045260245ffd5b7f4e756c6c696669657220616c72656164792075736564000000000000000000005f82015250565b5f611f41601683611e68565b9150611f4c82611f0d565b602082019050919050565b5f6020820190508181035f830152611f6e81611f35565b9050919050565b5f601f19601f8301169050919050565b7f4e487b71000000000000000000000000000000000000000000000000000000005f52604160045260245ffd5b611fbb82611f75565b810181811067ffffffffffffffff82111715611fda57611fd9611f85565b5b80604052505050565b5f611fec61197c565b9050611ff88282611fb2565b919050565b5f67ffffffffffffffff82111561201757612016611f85565b5b602082029050919050565b5f61203461202f84611ffd565b611fe3565b9050806020840283018581111561204e5761204d61198d565b5b835b8181101561207757806120638882611ac6565b845260208401935050602081019050612050565b5050509392505050565b5f82601f830112612095576120946119b2565b5b60086120a2848285612022565b91505092915050565b5f61010082840312156120c1576120c0611985565b5b5f6120ce84828501612081565b91505092915050565b5f60089050919050565b5f81905092915050565b5f819050919050565b6120fd81611aa7565b82525050565b5f61210e83836120f4565b60208301905092915050565b5f602082019050919050565b61212f816120d7565b61213981846120e1565b9250612144826120eb565b805f5b8381101561217457815161215b8782612103565b96506121668361211a565b925050600181019050612147565b505050505050565b5f60019050919050565b5f81905092915050565b5f819050919050565b5f602082019050919050565b6121ae8161217c565b6121b88184612186565b92506121c382612190565b805f5b838110156121f35781516121da8782612103565b96506121e583612199565b9250506001810190506121c6565b505050505050565b5f6101208201905061220f5f830185612126565b61221d6101008301846121a5565b9392505050565b61222d81611baf565b8114612237575f80fd5b50565b5f8151905061224881612224565b92915050565b5f6020828403121561226357612262611985565b5b5f6122708482850161223a565b91505092915050565b7f496e76616c69642070726f6f66000000000000000000000000000000000000005f82015250565b5f6122ad600d83611e68565b91506122b882612279565b602082019050919050565b5f6020820190508181035f8301526122da816122a1565b9050919050565b7f4e487b71000000000000000000000000000000000000000000000000000000005f52601160045260245ffd5b5f61231882611aa7565b915061232383611aa7565b925082820190508082111561233b5761233a6122e1565b5b92915050565b7f496e76616c696420696e707574206c656e6774680000000000000000000000005f82015250565b5f612375601483611e68565b915061238082612341565b602082019050919050565b5f6020820190508181035f8301526123a281612369565b9050919050565b5f6123b382611aa7565b91506123be83611aa7565b92508282026123cc81611aa7565b915082820484148315176123e3576123e26122e1565b5b5092915050565b7f50616972696e6720636865636b206661696c65640000000000000000000000005f82015250565b5f61241e601483611e68565b9150612429826123ea565b602082019050919050565b5f6020820190508181035f83015261244b81612412565b9050919050565b7f4e487b71000000000000000000000000000000000000000000000000000000005f52601260045260245ffd5b5f61248982611aa7565b915061249483611aa7565b9250826124a4576124a3612452565b5b828206905092915050565b5f6124b982611aa7565b91506124c483611aa7565b92508282039050818111156124dc576124db6122e1565b5b9291505056fea264697066735822122002a3dfcc11d3b14fc387b8db63e97113977f6844e12d25791528c18490dec1bf64736f6c634300081a0033",
			"opcodes": "PUSH1 0x80 PUSH1 0x40 MSTORE CALLVALUE DUP1 ISZERO PUSH2 0xF JUMPI PUSH0 DUP1 REVERT JUMPDEST POP PUSH1 0x40 MLOAD PUSH2 0x2855 CODESIZE SUB DUP1 PUSH2 0x2855 DUP4 CODECOPY DUP2 DUP2 ADD PUSH1 0x40 MSTORE DUP2 ADD SWAP1 PUSH2 0x31 SWAP2 SWAP1 PUSH2 0x265 JUMP JUMPDEST DUP1 PUSH0 PUSH20 0xFFFFFFFFFFFFFFFFFFFFFFFFFFFFFFFFFFFFFFFF AND DUP2 PUSH20 0xFFFFFFFFFFFFFFFFFFFFFFFFFFFFFFFFFFFFFFFF AND SUB PUSH2 0xA2 JUMPI PUSH0 PUSH1 0x40 MLOAD PUSH32 0x1E4FBDF700000000000000000000000000000000000000000000000000000000 DUP2 MSTORE PUSH1 0x4 ADD PUSH2 0x99 SWAP2 SWAP1 PUSH2 0x29F JUMP JUMPDEST PUSH1 0x40 MLOAD DUP1 SWAP2 SUB SWAP1 REVERT JUMPDEST PUSH2 0xB1 DUP2 PUSH2 0x146 PUSH1 0x20 SHL PUSH1 0x20 SHR JUMP JUMPDEST POP PUSH1 0x1 DUP1 DUP2 SWAP1 SSTORE POP PUSH0 PUSH1 0x2 PUSH0 PUSH2 0x100 EXP DUP2 SLOAD DUP2 PUSH1 0xFF MUL NOT AND SWAP1 DUP4 ISZERO ISZERO MUL OR SWAP1 SSTORE POP PUSH0 PUSH20 0xFFFFFFFFFFFFFFFFFFFFFFFFFFFFFFFFFFFFFFFF AND DUP2 PUSH20 0xFFFFFFFFFFFFFFFFFFFFFFFFFFFFFFFFFFFFFFFF AND SUB PUSH2 0x140 JUMPI PUSH1 0x40 MLOAD PUSH32 0x8C379A000000000000000000000000000000000000000000000000000000000 DUP2 MSTORE PUSH1 0x4 ADD PUSH2 0x137 SWAP1 PUSH2 0x312 JUMP JUMPDEST PUSH1 0x40 MLOAD DUP1 SWAP2 SUB SWAP1 REVERT JUMPDEST POP PUSH2 0x330 JUMP JUMPDEST PUSH0 DUP1 PUSH0 SWAP1 SLOAD SWAP1 PUSH2 0x100 EXP SWAP1 DIV PUSH20 0xFFFFFFFFFFFFFFFFFFFFFFFFFFFFFFFFFFFFFFFF AND SWAP1 POP DUP2 PUSH0 DUP1 PUSH2 0x100 EXP DUP2 SLOAD DUP2 PUSH20 0xFFFFFFFFFFFFFFFFFFFFFFFFFFFFFFFFFFFFFFFF MUL NOT AND SWAP1 DUP4 PUSH20 0xFFFFFFFFFFFFFFFFFFFFFFFFFFFFFFFFFFFFFFFF AND MUL OR SWAP1 SSTORE POP DUP2 PUSH20 0xFFFFFFFFFFFFFFFFFFFFFFFFFFFFFFFFFFFFFFFF AND DUP2 PUSH20 0xFFFFFFFFFFFFFFFFFFFFFFFFFFFFFFFFFFFFFFFF AND PUSH32 0x8BE0079C531659141344CD1FD0A4F28419497F9722A3DAAFE3B4186F6B6457E0 PUSH1 0x40 MLOAD PUSH1 0x40 MLOAD DUP1 SWAP2 SUB SWAP1 LOG3 POP POP JUMP JUMPDEST PUSH0 DUP1 REVERT JUMPDEST PUSH0 PUSH20 0xFFFFFFFFFFFFFFFFFFFFFFFFFFFFFFFFFFFFFFFF DUP3 AND SWAP1 POP SWAP2 SWAP1 POP JUMP JUMPDEST PUSH0 PUSH2 0x234 DUP3 PUSH2 0x20B JUMP JUMPDEST SWAP1 POP SWAP2 SWAP1 POP JUMP JUMPDEST PUSH2 0x244 DUP2 PUSH2 0x22A JUMP JUMPDEST DUP2 EQ PUSH2 0x24E JUMPI PUSH0 DUP1 REVERT JUMPDEST POP JUMP JUMPDEST PUSH0 DUP2 MLOAD SWAP1 POP PUSH2 0x25F DUP2 PUSH2 0x23B JUMP JUMPDEST SWAP3 SWAP2 POP POP JUMP JUMPDEST PUSH0 PUSH1 0x20 DUP3 DUP5 SUB SLT ISZERO PUSH2 0x27A JUMPI PUSH2 0x279 PUSH2 0x207 JUMP JUMPDEST JUMPDEST PUSH0 PUSH2 0x287 DUP5 DUP3 DUP6 ADD PUSH2 0x251 JUMP JUMPDEST SWAP2 POP POP SWAP3 SWAP2 POP POP JUMP JUMPDEST PUSH2 0x299 DUP2 PUSH2 0x22A JUMP JUMPDEST DUP3 MSTORE POP POP JUMP JUMPDEST PUSH0 PUSH1 0x20 DUP3 ADD SWAP1 POP PUSH2 0x2B2 PUSH0 DUP4 ADD DUP5 PUSH2 0x290 JUMP JUMPDEST SWAP3 SWAP2 POP POP JUMP JUMPDEST PUSH0 DUP3 DUP3 MSTORE PUSH1 0x20 DUP3 ADD SWAP1 POP SWAP3 SWAP2 POP POP JUMP JUMPDEST PUSH32 0x496E76616C6964206F776E657220616464726573730000000000000000000000 PUSH0 DUP3 ADD MSTORE POP JUMP JUMPDEST PUSH0 PUSH2 0x2FC PUSH1 0x15 DUP4 PUSH2 0x2B8 JUMP JUMPDEST SWAP2 POP PUSH2 0x307 DUP3 PUSH2 0x2C8 JUMP JUMPDEST PUSH1 0x20 DUP3 ADD SWAP1 POP SWAP2 SWAP1 POP JUMP JUMPDEST PUSH0 PUSH1 0x20 DUP3 ADD SWAP1 POP DUP2 DUP2 SUB PUSH0 DUP4 ADD MSTORE PUSH2 0x329 DUP2 PUSH2 0x2F0 JUMP JUMPDEST SWAP1 POP SWAP2 SWAP1 POP JUMP JUMPDEST PUSH2 0x2518 DUP1 PUSH2 0x33D PUSH0 CODECOPY PUSH0 RETURN INVALID PUSH1 0x80 PUSH1 0x40 MSTORE CALLVALUE DUP1 ISZERO PUSH2 0xF JUMPI PUSH0 DUP1 REVERT JUMPDEST POP PUSH1 0x4 CALLDATASIZE LT PUSH2 0x109 JUMPI PUSH0 CALLDATALOAD PUSH1 0xE0 SHR DUP1 PUSH4 0x3F4BA83A GT PUSH2 0xA0 JUMPI DUP1 PUSH4 0x8456CB59 GT PUSH2 0x6F JUMPI DUP1 PUSH4 0x8456CB59 EQ PUSH2 0x2CC JUMPI DUP1 PUSH4 0x8DA5CB5B EQ PUSH2 0x2D6 JUMPI DUP1 PUSH4 0xF2FDE38B EQ PUSH2 0x2F4 JUMPI DUP1 PUSH4 0xFC8221A9 EQ PUSH2 0x310 JUMPI DUP1 PUSH4 0xFF625FC3 EQ PUSH2 0x340 JUMPI PUSH2 0x109 JUMP JUMPDEST DUP1 PUSH4 0x3F4BA83A EQ PUSH2 0x26A JUMPI DUP1 PUSH4 0x5C975ABB EQ PUSH2 0x274 JUMPI DUP1 PUSH4 0x715018A6 EQ PUSH2 0x292 JUMPI DUP1 PUSH4 0x7ECF686D EQ PUSH2 0x29C JUMPI PUSH2 0x109 JUMP JUMPDEST DUP1 PUSH4 0x280EE92A GT PUSH2 0xDC JUMPI DUP1 PUSH4 0x280EE92A EQ PUSH2 0x1B9 JUMPI DUP1 PUSH4 0x281E8383 EQ PUSH2 0x1D7 JUMPI DUP1 PUSH4 0x2BBD59CA EQ PUSH2 0x207 JUMPI DUP1 PUSH4 0x2E269540 EQ PUSH2 0x23A JUMPI PUSH2 0x109 JUMP JUMPDEST DUP1 PUSH4 0x12202EC6 EQ PUSH2 0x10D JUMPI DUP1 PUSH4 0x19880295 EQ PUSH2 0x129 JUMPI DUP1 PUSH4 0x1B81F829 EQ PUSH2 0x159 JUMPI DUP1 PUSH4 0x230A0AB0 EQ PUSH2 0x189 JUMPI JUMPDEST PUSH0 DUP1 REVERT JUMPDEST PUSH2 0x127 PUSH1 0x4 DUP1 CALLDATASIZE SUB DUP2 ADD SWAP1 PUSH2 0x122 SWAP2 SWAP1 PUSH2 0x1A0F JUMP JUMPDEST PUSH2 0x370 JUMP JUMPDEST STOP JUMPDEST PUSH2 0x143 PUSH1 0x4 DUP1 CALLDATASIZE SUB DUP2 ADD SWAP1 PUSH2 0x13E SWAP2 SWAP1 PUSH2 0x1ADA JUMP JUMPDEST PUSH2 0x647 JUMP JUMPDEST PUSH1 0x40 MLOAD PUSH2 0x150 SWAP2 SWAP1 PUSH2 0x1B14 JUMP JUMPDEST PUSH1 0x40 MLOAD DUP1 SWAP2 SUB SWAP1 RETURN JUMPDEST PUSH2 0x173 PUSH1 0x4 DUP1 CALLDATASIZE SUB DUP2 ADD SWAP1 PUSH2 0x16E SWAP2 SWAP1 PUSH2 0x1B6F JUMP JUMPDEST PUSH2 0x65C JUMP JUMPDEST PUSH1 0x40 MLOAD PUSH2 0x180 SWAP2 SWAP1 PUSH2 0x1BC9 JUMP JUMPDEST PUSH1 0x40 MLOAD DUP1 SWAP2 SUB SWAP1 RETURN JUMPDEST PUSH2 0x1A3 PUSH1 0x4 DUP1 CALLDATASIZE SUB DUP2 ADD SWAP1 PUSH2 0x19E SWAP2 SWAP1 PUSH2 0x1ADA JUMP JUMPDEST PUSH2 0x7CA JUMP JUMPDEST PUSH1 0x40 MLOAD PUSH2 0x1B0 SWAP2 SWAP1 PUSH2 0x1B14 JUMP JUMPDEST PUSH1 0x40 MLOAD DUP1 SWAP2 SUB SWAP1 RETURN JUMPDEST PUSH2 0x1C1 PUSH2 0x7DF JUMP JUMPDEST PUSH1 0x40 MLOAD PUSH2 0x1CE SWAP2 SWAP1 PUSH2 0x1B14 JUMP JUMPDEST PUSH1 0x40 MLOAD DUP1 SWAP2 SUB SWAP1 RETURN JUMPDEST PUSH2 0x1F1 PUSH1 0x4 DUP1 CALLDATASIZE SUB DUP2 ADD SWAP1 PUSH2 0x1EC SWAP2 SWAP1 PUSH2 0x1ADA JUMP JUMPDEST PUSH2 0x7E5 JUMP JUMPDEST PUSH1 0x40 MLOAD PUSH2 0x1FE SWAP2 SWAP1 PUSH2 0x1B14 JUMP JUMPDEST PUSH1 0x40 MLOAD DUP1 SWAP2 SUB SWAP1 RETURN JUMPDEST PUSH2 0x221 PUSH1 0x4 DUP1 CALLDATASIZE SUB DUP2 ADD SWAP1 PUSH2 0x21C SWAP2 SWAP1 PUSH2 0x1C15 JUMP JUMPDEST PUSH2 0x7FA JUMP JUMPDEST PUSH1 0x40 MLOAD PUSH2 0x231 SWAP5 SWAP4 SWAP3 SWAP2 SWAP1 PUSH2 0x1C4F JUMP JUMPDEST PUSH1 0x40 MLOAD DUP1 SWAP2 SUB SWAP1 RETURN JUMPDEST PUSH2 0x254 PUSH1 0x4 DUP1 CALLDATASIZE SUB DUP2 ADD SWAP1 PUSH2 0x24F SWAP2 SWAP1 PUSH2 0x1D41 JUMP JUMPDEST PUSH2 0x832 JUMP JUMPDEST PUSH1 0x40 MLOAD PUSH2 0x261 SWAP2 SWAP1 PUSH2 0x1BC9 JUMP JUMPDEST PUSH1 0x40 MLOAD DUP1 SWAP2 SUB SWAP1 RETURN JUMPDEST PUSH2 0x272 PUSH2 0xA93 JUMP JUMPDEST STOP JUMPDEST PUSH2 0x27C PUSH2 0xAA5 JUMP JUMPDEST PUSH1 0x40 MLOAD PUSH2 0x289 SWAP2 SWAP1 PUSH2 0x1BC9 JUMP JUMPDEST PUSH1 0x40 MLOAD DUP1 SWAP2 SUB SWAP1 RETURN JUMPDEST PUSH2 0x29A PUSH2 0xABA JUMP JUMPDEST STOP JUMPDEST PUSH2 0x2B6 PUSH1 0x4 DUP1 CALLDATASIZE SUB DUP2 ADD SWAP1 PUSH2 0x2B1 SWAP2 SWAP1 PUSH2 0x1C15 JUMP JUMPDEST PUSH2 0xACD JUMP JUMPDEST PUSH1 0x40 MLOAD PUSH2 0x2C3 SWAP2 SWAP1 PUSH2 0x1BC9 JUMP JUMPDEST PUSH1 0x40 MLOAD DUP1 SWAP2 SUB SWAP1 RETURN JUMPDEST PUSH2 0x2D4 PUSH2 0xAEA JUMP JUMPDEST STOP JUMPDEST PUSH2 0x2DE PUSH2 0xAFC JUMP JUMPDEST PUSH1 0x40 MLOAD PUSH2 0x2EB SWAP2 SWAP1 PUSH2 0x1DE6 JUMP JUMPDEST PUSH1 0x40 MLOAD DUP1 SWAP2 SUB SWAP1 RETURN JUMPDEST PUSH2 0x30E PUSH1 0x4 DUP1 CALLDATASIZE SUB DUP2 ADD SWAP1 PUSH2 0x309 SWAP2 SWAP1 PUSH2 0x1DFF JUMP JUMPDEST PUSH2 0xB23 JUMP JUMPDEST STOP JUMPDEST PUSH2 0x32A PUSH1 0x4 DUP1 CALLDATASIZE SUB DUP2 ADD SWAP1 PUSH2 0x325 SWAP2 SWAP1 PUSH2 0x1E2A JUMP JUMPDEST PUSH2 0xBA7 JUMP JUMPDEST PUSH1 0x40 MLOAD PUSH2 0x337 SWAP2 SWAP1 PUSH2 0x1B14 JUMP JUMPDEST PUSH1 0x40 MLOAD DUP1 SWAP2 SUB SWAP1 RETURN JUMPDEST PUSH2 0x35A PUSH1 0x4 DUP1 CALLDATASIZE SUB DUP2 ADD SWAP1 PUSH2 0x355 SWAP2 SWAP1 PUSH2 0x1ADA JUMP JUMPDEST PUSH2 0xBC7 JUMP JUMPDEST PUSH1 0x40 MLOAD PUSH2 0x367 SWAP2 SWAP1 PUSH2 0x1B14 JUMP JUMPDEST PUSH1 0x40 MLOAD DUP1 SWAP2 SUB SWAP1 RETURN JUMPDEST PUSH2 0x378 PUSH2 0xBDC JUMP JUMPDEST PUSH0 DUP3 DUP3 SWAP1 POP GT PUSH2 0x3BD JUMPI PUSH1 0x40 MLOAD PUSH32 0x8C379A000000000000000000000000000000000000000000000000000000000 DUP2 MSTORE PUSH1 0x4 ADD PUSH2 0x3B4 SWAP1 PUSH2 0x1EC2 JUMP JUMPDEST PUSH1 0x40 MLOAD DUP1 SWAP2 SUB SWAP1 REVERT JUMPDEST DUP6 PUSH0 PUSH1 0x2 DUP2 LT PUSH2 0x3D0 JUMPI PUSH2 0x3CF PUSH2 0x1EE0 JUMP JUMPDEST JUMPDEST PUSH1 0x20 MUL ADD CALLDATALOAD PUSH1 0x3 PUSH0 DUP1 DUP2 MSTORE PUSH1 0x20 ADD SWAP1 DUP2 MSTORE PUSH1 0x20 ADD PUSH0 KECCAK256 DUP2 SWAP1 SSTORE POP DUP6 PUSH1 0x1 PUSH1 0x2 DUP2 LT PUSH2 0x3FE JUMPI PUSH2 0x3FD PUSH2 0x1EE0 JUMP JUMPDEST JUMPDEST PUSH1 0x20 MUL ADD CALLDATALOAD PUSH1 0x3 PUSH0 PUSH1 0x1 DUP2 MSTORE PUSH1 0x20 ADD SWAP1 DUP2 MSTORE PUSH1 0x20 ADD PUSH0 KECCAK256 DUP2 SWAP1 SSTORE POP DUP5 PUSH0 PUSH1 0x2 DUP2 LT PUSH2 0x42C JUMPI PUSH2 0x42B PUSH2 0x1EE0 JUMP JUMPDEST JUMPDEST PUSH1 0x20 MUL ADD CALLDATALOAD PUSH1 0x4 PUSH0 DUP1 DUP2 MSTORE PUSH1 0x20 ADD SWAP1 DUP2 MSTORE PUSH1 0x20 ADD PUSH0 KECCAK256 DUP2 SWAP1 SSTORE POP DUP5 PUSH1 0x1 PUSH1 0x2 DUP2 LT PUSH2 0x45A JUMPI PUSH2 0x459 PUSH2 0x1EE0 JUMP JUMPDEST JUMPDEST PUSH1 0x20 MUL ADD CALLDATALOAD PUSH1 0x4 PUSH0 PUSH1 0x1 DUP2 MSTORE PUSH1 0x20 ADD SWAP1 DUP2 MSTORE PUSH1 0x20 ADD PUSH0 KECCAK256 DUP2 SWAP1 SSTORE POP DUP4 PUSH0 PUSH1 0x2 DUP2 LT PUSH2 0x488 JUMPI PUSH2 0x487 PUSH2 0x1EE0 JUMP JUMPDEST JUMPDEST PUSH1 0x20 MUL ADD CALLDATALOAD PUSH1 0x5 PUSH0 DUP1 DUP2 MSTORE PUSH1 0x20 ADD SWAP1 DUP2 MSTORE PUSH1 0x20 ADD PUSH0 KECCAK256 DUP2 SWAP1 SSTORE POP DUP4 PUSH1 0x1 PUSH1 0x2 DUP2 LT PUSH2 0x4B6 JUMPI PUSH2 0x4B5 PUSH2 0x1EE0 JUMP JUMPDEST JUMPDEST PUSH1 0x20 MUL ADD CALLDATALOAD PUSH1 0x5 PUSH0 PUSH1 0x1 DUP2 MSTORE PUSH1 0x20 ADD SWAP1 DUP2 MSTORE PUSH1 0x20 ADD PUSH0 KECCAK256 DUP2 SWAP1 SSTORE POP DUP3 PUSH0 PUSH1 0x2 DUP2 LT PUSH2 0x4E4 JUMPI PUSH2 0x4E3 PUSH2 0x1EE0 JUMP JUMPDEST JUMPDEST PUSH1 0x20 MUL ADD CALLDATALOAD PUSH1 0x6 PUSH0 DUP1 DUP2 MSTORE PUSH1 0x20 ADD SWAP1 DUP2 MSTORE PUSH1 0x20 ADD PUSH0 KECCAK256 DUP2 SWAP1 SSTORE POP DUP3 PUSH1 0x1 PUSH1 0x2 DUP2 LT PUSH2 0x512 JUMPI PUSH2 0x511 PUSH2 0x1EE0 JUMP JUMPDEST JUMPDEST PUSH1 0x20 MUL ADD CALLDATALOAD PUSH1 0x6 PUSH0 PUSH1 0x1 DUP2 MSTORE PUSH1 0x20 ADD SWAP1 DUP2 MSTORE PUSH1 0x20 ADD PUSH0 KECCAK256 DUP2 SWAP1 SSTORE POP DUP2 DUP2 SWAP1 POP PUSH1 0x8 DUP2 SWAP1 SSTORE POP PUSH0 JUMPDEST DUP3 DUP3 SWAP1 POP DUP2 LT ISZERO PUSH2 0x5FB JUMPI DUP3 DUP3 DUP3 DUP2 DUP2 LT PUSH2 0x557 JUMPI PUSH2 0x556 PUSH2 0x1EE0 JUMP JUMPDEST JUMPDEST SWAP1 POP PUSH1 0x40 MUL ADD PUSH0 PUSH1 0x2 DUP2 LT PUSH2 0x56F JUMPI PUSH2 0x56E PUSH2 0x1EE0 JUMP JUMPDEST JUMPDEST PUSH1 0x20 MUL ADD CALLDATALOAD PUSH1 0x7 PUSH0 DUP4 DUP2 MSTORE PUSH1 0x20 ADD SWAP1 DUP2 MSTORE PUSH1 0x20 ADD PUSH0 KECCAK256 PUSH0 DUP1 DUP2 MSTORE PUSH1 0x20 ADD SWAP1 DUP2 MSTORE PUSH1 0x20 ADD PUSH0 KECCAK256 DUP2 SWAP1 SSTORE POP DUP3 DUP3 DUP3 DUP2 DUP2 LT PUSH2 0x5AB JUMPI PUSH2 0x5AA PUSH2 0x1EE0 JUMP JUMPDEST JUMPDEST SWAP1 POP PUSH1 0x40 MUL ADD PUSH1 0x1 PUSH1 0x2 DUP2 LT PUSH2 0x5C4 JUMPI PUSH2 0x5C3 PUSH2 0x1EE0 JUMP JUMPDEST JUMPDEST PUSH1 0x20 MUL ADD CALLDATALOAD PUSH1 0x7 PUSH0 DUP4 DUP2 MSTORE PUSH1 0x20 ADD SWAP1 DUP2 MSTORE PUSH1 0x20 ADD PUSH0 KECCAK256 PUSH0 PUSH1 0x1 DUP2 MSTORE PUSH1 0x20 ADD SWAP1 DUP2 MSTORE PUSH1 0x20 ADD PUSH0 KECCAK256 DUP2 SWAP1 SSTORE POP DUP1 DUP1 PUSH1 0x1 ADD SWAP2 POP POP PUSH2 0x539 JUMP JUMPDEST POP CALLER PUSH20 0xFFFFFFFFFFFFFFFFFFFFFFFFFFFFFFFFFFFFFFFF AND PUSH32 0xC470D8977CB4E42289EB539C1960F641215874C98AFE7844C8201CA63887FD78 PUSH1 0x40 MLOAD PUSH1 0x40 MLOAD DUP1 SWAP2 SUB SWAP1 LOG2 POP POP POP POP POP POP JUMP JUMPDEST PUSH1 0x5 PUSH1 0x20 MSTORE DUP1 PUSH0 MSTORE PUSH1 0x40 PUSH0 KECCAK256 PUSH0 SWAP2 POP SWAP1 POP SLOAD DUP2 JUMP JUMPDEST PUSH0 PUSH2 0x7C2 PUSH1 0x40 MLOAD DUP1 PUSH1 0x40 ADD PUSH1 0x40 MSTORE DUP1 DUP6 PUSH0 PUSH1 0x8 DUP2 LT PUSH2 0x67E JUMPI PUSH2 0x67D PUSH2 0x1EE0 JUMP JUMPDEST JUMPDEST PUSH1 0x20 MUL ADD CALLDATALOAD DUP2 MSTORE PUSH1 0x20 ADD DUP6 PUSH1 0x1 PUSH1 0x8 DUP2 LT PUSH2 0x69C JUMPI PUSH2 0x69B PUSH2 0x1EE0 JUMP JUMPDEST JUMPDEST PUSH1 0x20 MUL ADD CALLDATALOAD DUP2 MSTORE POP PUSH1 0x40 MLOAD DUP1 PUSH1 0x40 ADD PUSH1 0x40 MSTORE DUP1 PUSH1 0x40 MLOAD DUP1 PUSH1 0x40 ADD PUSH1 0x40 MSTORE DUP1 DUP9 PUSH1 0x2 PUSH1 0x8 DUP2 LT PUSH2 0x6CE JUMPI PUSH2 0x6CD PUSH2 0x1EE0 JUMP JUMPDEST JUMPDEST PUSH1 0x20 MUL ADD CALLDATALOAD DUP2 MSTORE PUSH1 0x20 ADD DUP9 PUSH1 0x3 PUSH1 0x8 DUP2 LT PUSH2 0x6EC JUMPI PUSH2 0x6EB PUSH2 0x1EE0 JUMP JUMPDEST JUMPDEST PUSH1 0x20 MUL ADD CALLDATALOAD DUP2 MSTORE POP DUP2 MSTORE PUSH1 0x20 ADD PUSH1 0x40 MLOAD DUP1 PUSH1 0x40 ADD PUSH1 0x40 MSTORE DUP1 DUP9 PUSH1 0x4 PUSH1 0x8 DUP2 LT PUSH2 0x718 JUMPI PUSH2 0x717 PUSH2 0x1EE0 JUMP JUMPDEST JUMPDEST PUSH1 0x20 MUL ADD CALLDATALOAD DUP2 MSTORE PUSH1 0x20 ADD DUP9 PUSH1 0x5 PUSH1 0x8 DUP2 LT PUSH2 0x736 JUMPI PUSH2 0x735 PUSH2 0x1EE0 JUMP JUMPDEST JUMPDEST PUSH1 0x20 MUL ADD CALLDATALOAD DUP2 MSTORE POP DUP2 MSTORE POP PUSH1 0x40 MLOAD DUP1 PUSH1 0x40 ADD PUSH1 0x40 MSTORE DUP1 DUP8 PUSH1 0x6 PUSH1 0x8 DUP2 LT PUSH2 0x760 JUMPI PUSH2 0x75F PUSH2 0x1EE0 JUMP JUMPDEST JUMPDEST PUSH1 0x20 MUL ADD CALLDATALOAD DUP2 MSTORE PUSH1 0x20 ADD DUP8 PUSH1 0x7 PUSH1 0x8 DUP2 LT PUSH2 0x77E JUMPI PUSH2 0x77D PUSH2 0x1EE0 JUMP JUMPDEST JUMPDEST PUSH1 0x20 MUL ADD CALLDATALOAD DUP2 MSTORE POP DUP6 PUSH1 0x1 DUP1 PUSH1 0x20 MUL PUSH1 0x40 MLOAD SWAP1 DUP2 ADD PUSH1 0x40 MSTORE DUP1 SWAP3 SWAP2 SWAP1 DUP3 PUSH1 0x1 PUSH1 0x20 MUL DUP1 DUP3 DUP5 CALLDATACOPY PUSH0 DUP2 DUP5 ADD MSTORE PUSH1 0x1F NOT PUSH1 0x1F DUP3 ADD AND SWAP1 POP DUP1 DUP4 ADD SWAP3 POP POP POP POP POP POP PUSH2 0xC63 JUMP JUMPDEST SWAP1 POP SWAP3 SWAP2 POP POP JUMP JUMPDEST PUSH1 0x6 PUSH1 0x20 MSTORE DUP1 PUSH0 MSTORE PUSH1 0x40 PUSH0 KECCAK256 PUSH0 SWAP2 POP SWAP1 POP SLOAD DUP2 JUMP JUMPDEST PUSH1 0x8 SLOAD DUP2 JUMP JUMPDEST PUSH1 0x4 PUSH1 0x20 MSTORE DUP1 PUSH0 MSTORE PUSH1 0x40 PUSH0 KECCAK256 PUSH0 SWAP2 POP SWAP1 POP SLOAD DUP2 JUMP JUMPDEST PUSH1 0x9 PUSH1 0x20 MSTORE DUP1 PUSH0 MSTORE PUSH1 0x40 PUSH0 KECCAK256 PUSH0 SWAP2 POP SWAP1 POP DUP1 PUSH0 ADD SLOAD SWAP1 DUP1 PUSH1 0x1 ADD SLOAD SWAP1 DUP1 PUSH1 0x2 ADD SLOAD SWAP1 DUP1 PUSH1 0x3 ADD PUSH0 SWAP1 SLOAD SWAP1 PUSH2 0x100 EXP SWAP1 DIV PUSH1 0xFF AND SWAP1 POP DUP5 JUMP JUMPDEST PUSH0 PUSH2 0x83B PUSH2 0xF27 JUMP JUMPDEST PUSH2 0x843 PUSH2 0xF6D JUMP JUMPDEST PUSH1 0xA PUSH0 DUP8 DUP2 MSTORE PUSH1 0x20 ADD SWAP1 DUP2 MSTORE PUSH1 0x20 ADD PUSH0 KECCAK256 PUSH0 SWAP1 SLOAD SWAP1 PUSH2 0x100 EXP SWAP1 DIV PUSH1 0xFF AND ISZERO PUSH2 0x8A1 JUMPI PUSH1 0x40 MLOAD PUSH32 0x8C379A000000000000000000000000000000000000000000000000000000000 DUP2 MSTORE PUSH1 0x4 ADD PUSH2 0x898 SWAP1 PUSH2 0x1F57 JUMP JUMPDEST PUSH1 0x40 MLOAD DUP1 SWAP2 SUB SWAP1 REVERT JUMPDEST PUSH0 PUSH1 0x40 MLOAD DUP1 PUSH1 0x20 ADD PUSH1 0x40 MSTORE DUP1 DUP8 PUSH20 0xFFFFFFFFFFFFFFFFFFFFFFFFFFFFFFFFFFFFFFFF AND DUP2 MSTORE POP SWAP1 POP ADDRESS PUSH20 0xFFFFFFFFFFFFFFFFFFFFFFFFFFFFFFFFFFFFFFFF AND PUSH4 0x1B81F829 DUP6 DUP6 DUP2 ADD SWAP1 PUSH2 0x8F4 SWAP2 SWAP1 PUSH2 0x20AB JUMP JUMPDEST DUP4 PUSH1 0x40 MLOAD DUP4 PUSH4 0xFFFFFFFF AND PUSH1 0xE0 SHL DUP2 MSTORE PUSH1 0x4 ADD PUSH2 0x912 SWAP3 SWAP2 SWAP1 PUSH2 0x21FB JUMP JUMPDEST PUSH1 0x20 PUSH1 0x40 MLOAD DUP1 DUP4 SUB DUP2 DUP7 GAS STATICCALL ISZERO DUP1 ISZERO PUSH2 0x92D JUMPI RETURNDATASIZE PUSH0 DUP1 RETURNDATACOPY RETURNDATASIZE PUSH0 REVERT JUMPDEST POP POP POP POP PUSH1 0x40 MLOAD RETURNDATASIZE PUSH1 0x1F NOT PUSH1 0x1F DUP3 ADD AND DUP3 ADD DUP1 PUSH1 0x40 MSTORE POP DUP2 ADD SWAP1 PUSH2 0x951 SWAP2 SWAP1 PUSH2 0x224E JUMP JUMPDEST PUSH2 0x990 JUMPI PUSH1 0x40 MLOAD PUSH32 0x8C379A000000000000000000000000000000000000000000000000000000000 DUP2 MSTORE PUSH1 0x4 ADD PUSH2 0x987 SWAP1 PUSH2 0x22C3 JUMP JUMPDEST PUSH1 0x40 MLOAD DUP1 SWAP2 SUB SWAP1 REVERT JUMPDEST PUSH1 0x40 MLOAD DUP1 PUSH1 0x80 ADD PUSH1 0x40 MSTORE DUP1 DUP10 DUP2 MSTORE PUSH1 0x20 ADD DUP9 DUP2 MSTORE PUSH1 0x20 ADD TIMESTAMP DUP2 MSTORE PUSH1 0x20 ADD PUSH1 0x1 ISZERO ISZERO DUP2 MSTORE POP PUSH1 0x9 PUSH0 DUP11 DUP2 MSTORE PUSH1 0x20 ADD SWAP1 DUP2 MSTORE PUSH1 0x20 ADD PUSH0 KECCAK256 PUSH0 DUP3 ADD MLOAD DUP2 PUSH0 ADD SSTORE PUSH1 0x20 DUP3 ADD MLOAD DUP2 PUSH1 0x1 ADD SSTORE PUSH1 0x40 DUP3 ADD MLOAD DUP2 PUSH1 0x2 ADD SSTORE PUSH1 0x60 DUP3 ADD MLOAD DUP2 PUSH1 0x3 ADD PUSH0 PUSH2 0x100 EXP DUP2 SLOAD DUP2 PUSH1 0xFF MUL NOT AND SWAP1 DUP4 ISZERO ISZERO MUL OR SWAP1 SSTORE POP SWAP1 POP POP PUSH1 0x1 PUSH1 0xA PUSH0 DUP10 DUP2 MSTORE PUSH1 0x20 ADD SWAP1 DUP2 MSTORE PUSH1 0x20 ADD PUSH0 KECCAK256 PUSH0 PUSH2 0x100 EXP DUP2 SLOAD DUP2 PUSH1 0xFF MUL NOT AND SWAP1 DUP4 ISZERO ISZERO MUL OR SWAP1 SSTORE POP DUP6 PUSH20 0xFFFFFFFFFFFFFFFFFFFFFFFFFFFFFFFFFFFFFFFF AND DUP8 DUP10 PUSH32 0x9675C67EDB39D5AE53CD37192A12D34A8B4341D9955D37E70E0968C6962C32A4 TIMESTAMP PUSH1 0x40 MLOAD PUSH2 0xA74 SWAP2 SWAP1 PUSH2 0x1B14 JUMP JUMPDEST PUSH1 0x40 MLOAD DUP1 SWAP2 SUB SWAP1 LOG4 PUSH1 0x1 SWAP2 POP POP PUSH2 0xA89 PUSH2 0xFAE JUMP JUMPDEST SWAP7 SWAP6 POP POP POP POP POP POP JUMP JUMPDEST PUSH2 0xA9B PUSH2 0xBDC JUMP JUMPDEST PUSH2 0xAA3 PUSH2 0xFB7 JUMP JUMPDEST JUMP JUMPDEST PUSH0 PUSH1 0x2 PUSH0 SWAP1 SLOAD SWAP1 PUSH2 0x100 EXP SWAP1 DIV PUSH1 0xFF AND SWAP1 POP SWAP1 JUMP JUMPDEST PUSH2 0xAC2 PUSH2 0xBDC JUMP JUMPDEST PUSH2 0xACB PUSH0 PUSH2 0x1018 JUMP JUMPDEST JUMP JUMPDEST PUSH1 0xA PUSH1 0x20 MSTORE DUP1 PUSH0 MSTORE PUSH1 0x40 PUSH0 KECCAK256 PUSH0 SWAP2 POP SLOAD SWAP1 PUSH2 0x100 EXP SWAP1 DIV PUSH1 0xFF AND DUP2 JUMP JUMPDEST PUSH2 0xAF2 PUSH2 0xBDC JUMP JUMPDEST PUSH2 0xAFA PUSH2 0x10D9 JUMP JUMPDEST JUMP JUMPDEST PUSH0 DUP1 PUSH0 SWAP1 SLOAD SWAP1 PUSH2 0x100 EXP SWAP1 DIV PUSH20 0xFFFFFFFFFFFFFFFFFFFFFFFFFFFFFFFFFFFFFFFF AND SWAP1 POP SWAP1 JUMP JUMPDEST PUSH2 0xB2B PUSH2 0xBDC JUMP JUMPDEST PUSH0 PUSH20 0xFFFFFFFFFFFFFFFFFFFFFFFFFFFFFFFFFFFFFFFF AND DUP2 PUSH20 0xFFFFFFFFFFFFFFFFFFFFFFFFFFFFFFFFFFFFFFFF AND SUB PUSH2 0xB9B JUMPI PUSH0 PUSH1 0x40 MLOAD PUSH32 0x1E4FBDF700000000000000000000000000000000000000000000000000000000 DUP2 MSTORE PUSH1 0x4 ADD PUSH2 0xB92 SWAP2 SWAP1 PUSH2 0x1DE6 JUMP JUMPDEST PUSH1 0x40 MLOAD DUP1 SWAP2 SUB SWAP1 REVERT JUMPDEST PUSH2 0xBA4 DUP2 PUSH2 0x1018 JUMP JUMPDEST POP JUMP JUMPDEST PUSH1 0x7 PUSH1 0x20 MSTORE DUP2 PUSH0 MSTORE PUSH1 0x40 PUSH0 KECCAK256 PUSH1 0x20 MSTORE DUP1 PUSH0 MSTORE PUSH1 0x40 PUSH0 KECCAK256 PUSH0 SWAP2 POP SWAP2 POP POP SLOAD DUP2 JUMP JUMPDEST PUSH1 0x3 PUSH1 0x20 MSTORE DUP1 PUSH0 MSTORE PUSH1 0x40 PUSH0 KECCAK256 PUSH0 SWAP2 POP SWAP1 POP SLOAD DUP2 JUMP JUMPDEST PUSH2 0xBE4 PUSH2 0x113B JUMP JUMPDEST PUSH20 0xFFFFFFFFFFFFFFFFFFFFFFFFFFFFFFFFFFFFFFFF AND PUSH2 0xC02 PUSH2 0xAFC JUMP JUMPDEST PUSH20 0xFFFFFFFFFFFFFFFFFFFFFFFFFFFFFFFFFFFFFFFF AND EQ PUSH2 0xC61 JUMPI PUSH2 0xC25 PUSH2 0x113B JUMP JUMPDEST PUSH1 0x40 MLOAD PUSH32 0x118CDAA700000000000000000000000000000000000000000000000000000000 DUP2 MSTORE PUSH1 0x4 ADD PUSH2 0xC58 SWAP2 SWAP1 PUSH2 0x1DE6 JUMP JUMPDEST PUSH1 0x40 MLOAD DUP1 SWAP2 SUB SWAP1 REVERT JUMPDEST JUMP JUMPDEST PUSH0 PUSH1 0x8 SLOAD PUSH1 0x1 DUP1 PUSH2 0xC74 SWAP2 SWAP1 PUSH2 0x230E JUMP JUMPDEST EQ PUSH2 0xCB4 JUMPI PUSH1 0x40 MLOAD PUSH32 0x8C379A000000000000000000000000000000000000000000000000000000000 DUP2 MSTORE PUSH1 0x4 ADD PUSH2 0xCAB SWAP1 PUSH2 0x238B JUMP JUMPDEST PUSH1 0x40 MLOAD DUP1 SWAP2 SUB SWAP1 REVERT JUMPDEST PUSH0 PUSH1 0x40 MLOAD DUP1 PUSH1 0x40 ADD PUSH1 0x40 MSTORE DUP1 PUSH1 0x7 PUSH0 DUP1 DUP2 MSTORE PUSH1 0x20 ADD SWAP1 DUP2 MSTORE PUSH1 0x20 ADD PUSH0 KECCAK256 PUSH0 DUP1 DUP2 MSTORE PUSH1 0x20 ADD SWAP1 DUP2 MSTORE PUSH1 0x20 ADD PUSH0 KECCAK256 SLOAD DUP2 MSTORE PUSH1 0x20 ADD PUSH1 0x7 PUSH0 DUP1 DUP2 MSTORE PUSH1 0x20 ADD SWAP1 DUP2 MSTORE PUSH1 0x20 ADD PUSH0 KECCAK256 PUSH0 PUSH1 0x1 DUP2 MSTORE PUSH1 0x20 ADD SWAP1 DUP2 MSTORE PUSH1 0x20 ADD PUSH0 KECCAK256 SLOAD DUP2 MSTORE POP SWAP1 POP PUSH0 JUMPDEST PUSH1 0x1 DUP2 LT ISZERO PUSH2 0xE2F JUMPI PUSH0 DUP1 PUSH2 0xDA8 PUSH1 0x40 MLOAD DUP1 PUSH1 0x40 ADD PUSH1 0x40 MSTORE DUP1 PUSH1 0x7 PUSH0 PUSH1 0x1 DUP9 PUSH2 0xD38 SWAP2 SWAP1 PUSH2 0x230E JUMP JUMPDEST DUP2 MSTORE PUSH1 0x20 ADD SWAP1 DUP2 MSTORE PUSH1 0x20 ADD PUSH0 KECCAK256 PUSH0 DUP1 DUP2 MSTORE PUSH1 0x20 ADD SWAP1 DUP2 MSTORE PUSH1 0x20 ADD PUSH0 KECCAK256 SLOAD DUP2 MSTORE PUSH1 0x20 ADD PUSH1 0x7 PUSH0 PUSH1 0x1 DUP9 PUSH2 0xD6A SWAP2 SWAP1 PUSH2 0x230E JUMP JUMPDEST DUP2 MSTORE PUSH1 0x20 ADD SWAP1 DUP2 MSTORE PUSH1 0x20 ADD PUSH0 KECCAK256 PUSH0 PUSH1 0x1 DUP2 MSTORE PUSH1 0x20 ADD SWAP1 DUP2 MSTORE PUSH1 0x20 ADD PUSH0 KECCAK256 SLOAD DUP2 MSTORE POP DUP8 DUP6 PUSH1 0x1 DUP2 LT PUSH2 0xD9E JUMPI PUSH2 0xD9D PUSH2 0x1EE0 JUMP JUMPDEST JUMPDEST PUSH1 0x20 MUL ADD MLOAD PUSH2 0x1142 JUMP JUMPDEST SWAP2 POP SWAP2 POP PUSH2 0xDE7 DUP5 PUSH0 PUSH1 0x2 DUP2 LT PUSH2 0xDC2 JUMPI PUSH2 0xDC1 PUSH2 0x1EE0 JUMP JUMPDEST JUMPDEST PUSH1 0x20 MUL ADD MLOAD DUP6 PUSH1 0x1 PUSH1 0x2 DUP2 LT PUSH2 0xDDB JUMPI PUSH2 0xDDA PUSH2 0x1EE0 JUMP JUMPDEST JUMPDEST PUSH1 0x20 MUL ADD MLOAD DUP5 DUP5 PUSH2 0x1196 JUMP JUMPDEST DUP6 PUSH0 PUSH1 0x2 DUP2 LT PUSH2 0xDFA JUMPI PUSH2 0xDF9 PUSH2 0x1EE0 JUMP JUMPDEST JUMPDEST PUSH1 0x20 MUL ADD DUP7 PUSH1 0x1 PUSH1 0x2 DUP2 LT PUSH2 0xE12 JUMPI PUSH2 0xE11 PUSH2 0x1EE0 JUMP JUMPDEST JUMPDEST PUSH1 0x20 MUL ADD DUP3 DUP2 MSTORE POP DUP3 DUP2 MSTORE POP POP POP POP POP DUP1 DUP1 PUSH1 0x1 ADD SWAP2 POP POP PUSH2 0xD0F JUMP JUMPDEST POP PUSH2 0xF1C DUP7 DUP7 PUSH1 0x40 MLOAD DUP1 PUSH1 0x40 ADD PUSH1 0x40 MSTORE DUP1 PUSH1 0x3 PUSH0 DUP1 DUP2 MSTORE PUSH1 0x20 ADD SWAP1 DUP2 MSTORE PUSH1 0x20 ADD PUSH0 KECCAK256 SLOAD DUP2 MSTORE PUSH1 0x20 ADD PUSH1 0x3 PUSH0 PUSH1 0x1 DUP2 MSTORE PUSH1 0x20 ADD SWAP1 DUP2 MSTORE PUSH1 0x20 ADD PUSH0 KECCAK256 SLOAD DUP2 MSTORE POP PUSH1 0x40 MLOAD DUP1 PUSH1 0x40 ADD PUSH1 0x40 MSTORE DUP1 PUSH1 0x4 PUSH0 DUP1 DUP2 MSTORE PUSH1 0x20 ADD SWAP1 DUP2 MSTORE PUSH1 0x20 ADD PUSH0 KECCAK256 SLOAD DUP2 MSTORE PUSH1 0x20 ADD PUSH1 0x4 PUSH0 PUSH1 0x1 DUP2 MSTORE PUSH1 0x20 ADD SWAP1 DUP2 MSTORE PUSH1 0x20 ADD PUSH0 KECCAK256 SLOAD DUP2 MSTORE POP DUP6 PUSH1 0x40 MLOAD DUP1 PUSH1 0x40 ADD PUSH1 0x40 MSTORE DUP1 PUSH1 0x5 PUSH0 DUP1 DUP2 MSTORE PUSH1 0x20 ADD SWAP1 DUP2 MSTORE PUSH1 0x20 ADD PUSH0 KECCAK256 SLOAD DUP2 MSTORE PUSH1 0x20 ADD PUSH1 0x5 PUSH0 PUSH1 0x1 DUP2 MSTORE PUSH1 0x20 ADD SWAP1 DUP2 MSTORE PUSH1 0x20 ADD PUSH0 KECCAK256 SLOAD DUP2 MSTORE POP DUP11 PUSH1 0x40 MLOAD DUP1 PUSH1 0x40 ADD PUSH1 0x40 MSTORE DUP1 PUSH1 0x6 PUSH0 DUP1 DUP2 MSTORE PUSH1 0x20 ADD SWAP1 DUP2 MSTORE PUSH1 0x20 ADD PUSH0 KECCAK256 SLOAD DUP2 MSTORE PUSH1 0x20 ADD PUSH1 0x6 PUSH0 PUSH1 0x1 DUP2 MSTORE PUSH1 0x20 ADD SWAP1 DUP2 MSTORE PUSH1 0x20 ADD PUSH0 KECCAK256 SLOAD DUP2 MSTORE POP PUSH2 0x11BD JUMP JUMPDEST SWAP2 POP POP SWAP5 SWAP4 POP POP POP POP JUMP JUMPDEST PUSH1 0x2 PUSH1 0x1 SLOAD SUB PUSH2 0xF63 JUMPI PUSH1 0x40 MLOAD PUSH32 0x3EE5AEB500000000000000000000000000000000000000000000000000000000 DUP2 MSTORE PUSH1 0x4 ADD PUSH1 0x40 MLOAD DUP1 SWAP2 SUB SWAP1 REVERT JUMPDEST PUSH1 0x2 PUSH1 0x1 DUP2 SWAP1 SSTORE POP JUMP JUMPDEST PUSH2 0xF75 PUSH2 0xAA5 JUMP JUMPDEST ISZERO PUSH2 0xFAC JUMPI PUSH1 0x40 MLOAD PUSH32 0xD93C066500000000000000000000000000000000000000000000000000000000 DUP2 MSTORE PUSH1 0x4 ADD PUSH1 0x40 MLOAD DUP1 SWAP2 SUB SWAP1 REVERT JUMPDEST JUMP JUMPDEST PUSH1 0x1 DUP1 DUP2 SWAP1 SSTORE POP JUMP JUMPDEST PUSH2 0xFBF PUSH2 0x188D JUMP JUMPDEST PUSH0 PUSH1 0x2 PUSH0 PUSH2 0x100 EXP DUP2 SLOAD DUP2 PUSH1 0xFF MUL NOT AND SWAP1 DUP4 ISZERO ISZERO MUL OR SWAP1 SSTORE POP PUSH32 0x5DB9EE0A495BF2E6FF9C91A7834C1BA4FDD244A5E8AA4E537BD38AEAE4B073AA PUSH2 0x1001 PUSH2 0x113B JUMP JUMPDEST PUSH1 0x40 MLOAD PUSH2 0x100E SWAP2 SWAP1 PUSH2 0x1DE6 JUMP JUMPDEST PUSH1 0x40 MLOAD DUP1 SWAP2 SUB SWAP1 LOG1 JUMP JUMPDEST PUSH0 DUP1 PUSH0 SWAP1 SLOAD SWAP1 PUSH2 0x100 EXP SWAP1 DIV PUSH20 0xFFFFFFFFFFFFFFFFFFFFFFFFFFFFFFFFFFFFFFFF AND SWAP1 POP DUP2 PUSH0 DUP1 PUSH2 0x100 EXP DUP2 SLOAD DUP2 PUSH20 0xFFFFFFFFFFFFFFFFFFFFFFFFFFFFFFFFFFFFFFFF MUL NOT AND SWAP1 DUP4 PUSH20 0xFFFFFFFFFFFFFFFFFFFFFFFFFFFFFFFFFFFFFFFF AND MUL OR SWAP1 SSTORE POP DUP2 PUSH20 0xFFFFFFFFFFFFFFFFFFFFFFFFFFFFFFFFFFFFFFFF AND DUP2 PUSH20 0xFFFFFFFFFFFFFFFFFFFFFFFFFFFFFFFFFFFFFFFF AND PUSH32 0x8BE0079C531659141344CD1FD0A4F28419497F9722A3DAAFE3B4186F6B6457E0 PUSH1 0x40 MLOAD PUSH1 0x40 MLOAD DUP1 SWAP2 SUB SWAP1 LOG3 POP POP JUMP JUMPDEST PUSH2 0x10E1 PUSH2 0xF6D JUMP JUMPDEST PUSH1 0x1 PUSH1 0x2 PUSH0 PUSH2 0x100 EXP DUP2 SLOAD DUP2 PUSH1 0xFF MUL NOT AND SWAP1 DUP4 ISZERO ISZERO MUL OR SWAP1 SSTORE POP PUSH32 0x62E78CEA01BEE320CD4E420270B5EA74000D11B0C9F74754EBDBFC544B05A258 PUSH2 0x1124 PUSH2 0x113B JUMP JUMPDEST PUSH1 0x40 MLOAD PUSH2 0x1131 SWAP2 SWAP1 PUSH2 0x1DE6 JUMP JUMPDEST PUSH1 0x40 MLOAD DUP1 SWAP2 SUB SWAP1 LOG1 JUMP JUMPDEST PUSH0 CALLER SWAP1 POP SWAP1 JUMP JUMPDEST PUSH0 DUP1 DUP3 DUP5 PUSH0 PUSH1 0x2 DUP2 LT PUSH2 0x1158 JUMPI PUSH2 0x1157 PUSH2 0x1EE0 JUMP JUMPDEST JUMPDEST PUSH1 0x20 MUL ADD MLOAD PUSH2 0x1167 SWAP2 SWAP1 PUSH2 0x23A9 JUMP JUMPDEST DUP4 DUP6 PUSH1 0x1 PUSH1 0x2 DUP2 LT PUSH2 0x117C JUMPI PUSH2 0x117B PUSH2 0x1EE0 JUMP JUMPDEST JUMPDEST PUSH1 0x20 MUL ADD MLOAD PUSH2 0x118B SWAP2 SWAP1 PUSH2 0x23A9 JUMP JUMPDEST SWAP2 POP SWAP2 POP SWAP3 POP SWAP3 SWAP1 POP JUMP JUMPDEST PUSH0 DUP1 DUP4 DUP7 PUSH2 0x11A4 SWAP2 SWAP1 PUSH2 0x230E JUMP JUMPDEST DUP4 DUP7 PUSH2 0x11B0 SWAP2 SWAP1 PUSH2 0x230E JUMP JUMPDEST SWAP2 POP SWAP2 POP SWAP5 POP SWAP5 SWAP3 POP POP POP JUMP JUMPDEST PUSH0 PUSH2 0x11C6 PUSH2 0x1937 JUMP JUMPDEST PUSH2 0x11FF DUP11 PUSH0 PUSH1 0x2 DUP2 LT PUSH2 0x11DC JUMPI PUSH2 0x11DB PUSH2 0x1EE0 JUMP JUMPDEST JUMPDEST PUSH1 0x20 MUL ADD MLOAD DUP12 PUSH1 0x1 PUSH1 0x2 DUP2 LT PUSH2 0x11F5 JUMPI PUSH2 0x11F4 PUSH2 0x1EE0 JUMP JUMPDEST JUMPDEST PUSH1 0x20 MUL ADD MLOAD PUSH2 0x18CD JUMP JUMPDEST DUP12 PUSH0 PUSH1 0x2 DUP2 LT PUSH2 0x1212 JUMPI PUSH2 0x1211 PUSH2 0x1EE0 JUMP JUMPDEST JUMPDEST PUSH1 0x20 MUL ADD DUP13 PUSH1 0x1 PUSH1 0x2 DUP2 LT PUSH2 0x122A JUMPI PUSH2 0x1229 PUSH2 0x1EE0 JUMP JUMPDEST JUMPDEST PUSH1 0x20 MUL ADD DUP3 DUP2 MSTORE POP DUP3 DUP2 MSTORE POP POP POP PUSH2 0x1271 DUP5 PUSH0 PUSH1 0x2 DUP2 LT PUSH2 0x124E JUMPI PUSH2 0x124D PUSH2 0x1EE0 JUMP JUMPDEST JUMPDEST PUSH1 0x20 MUL ADD MLOAD DUP6 PUSH1 0x1 PUSH1 0x2 DUP2 LT PUSH2 0x1267 JUMPI PUSH2 0x1266 PUSH2 0x1EE0 JUMP JUMPDEST JUMPDEST PUSH1 0x20 MUL ADD MLOAD PUSH2 0x18CD JUMP JUMPDEST DUP6 PUSH0 PUSH1 0x2 DUP2 LT PUSH2 0x1284 JUMPI PUSH2 0x1283 PUSH2 0x1EE0 JUMP JUMPDEST JUMPDEST PUSH1 0x20 MUL ADD DUP7 PUSH1 0x1 PUSH1 0x2 DUP2 LT PUSH2 0x129C JUMPI PUSH2 0x129B PUSH2 0x1EE0 JUMP JUMPDEST JUMPDEST PUSH1 0x20 MUL ADD DUP3 DUP2 MSTORE POP DUP3 DUP2 MSTORE POP POP POP DUP10 PUSH0 PUSH1 0x2 DUP2 LT PUSH2 0x12BD JUMPI PUSH2 0x12BC PUSH2 0x1EE0 JUMP JUMPDEST JUMPDEST PUSH1 0x20 MUL ADD MLOAD DUP2 PUSH0 PUSH1 0x18 DUP2 LT PUSH2 0x12D5 JUMPI PUSH2 0x12D4 PUSH2 0x1EE0 JUMP JUMPDEST JUMPDEST PUSH1 0x20 MUL ADD DUP2 DUP2 MSTORE POP POP DUP10 PUSH1 0x1 PUSH1 0x2 DUP2 LT PUSH2 0x12F2 JUMPI PUSH2 0x12F1 PUSH2 0x1EE0 JUMP JUMPDEST JUMPDEST PUSH1 0x20 MUL ADD MLOAD DUP2 PUSH1 0x1 PUSH1 0x18 DUP2 LT PUSH2 0x130B JUMPI PUSH2 0x130A PUSH2 0x1EE0 JUMP JUMPDEST JUMPDEST PUSH1 0x20 MUL ADD DUP2 DUP2 MSTORE POP POP DUP9 PUSH0 PUSH1 0x2 DUP2 LT PUSH2 0x1327 JUMPI PUSH2 0x1326 PUSH2 0x1EE0 JUMP JUMPDEST JUMPDEST PUSH1 0x20 MUL ADD MLOAD PUSH0 PUSH1 0x2 DUP2 LT PUSH2 0x133E JUMPI PUSH2 0x133D PUSH2 0x1EE0 JUMP JUMPDEST JUMPDEST PUSH1 0x20 MUL ADD MLOAD DUP2 PUSH1 0x2 PUSH1 0x18 DUP2 LT PUSH2 0x1357 JUMPI PUSH2 0x1356 PUSH2 0x1EE0 JUMP JUMPDEST JUMPDEST PUSH1 0x20 MUL ADD DUP2 DUP2 MSTORE POP POP DUP9 PUSH0 PUSH1 0x2 DUP2 LT PUSH2 0x1373 JUMPI PUSH2 0x1372 PUSH2 0x1EE0 JUMP JUMPDEST JUMPDEST PUSH1 0x20 MUL ADD MLOAD PUSH1 0x1 PUSH1 0x2 DUP2 LT PUSH2 0x138B JUMPI PUSH2 0x138A PUSH2 0x1EE0 JUMP JUMPDEST JUMPDEST PUSH1 0x20 MUL ADD MLOAD DUP2 PUSH1 0x3 PUSH1 0x18 DUP2 LT PUSH2 0x13A4 JUMPI PUSH2 0x13A3 PUSH2 0x1EE0 JUMP JUMPDEST JUMPDEST PUSH1 0x20 MUL ADD DUP2 DUP2 MSTORE POP POP DUP9 PUSH1 0x1 PUSH1 0x2 DUP2 LT PUSH2 0x13C1 JUMPI PUSH2 0x13C0 PUSH2 0x1EE0 JUMP JUMPDEST JUMPDEST PUSH1 0x20 MUL ADD MLOAD PUSH0 PUSH1 0x2 DUP2 LT PUSH2 0x13D8 JUMPI PUSH2 0x13D7 PUSH2 0x1EE0 JUMP JUMPDEST JUMPDEST PUSH1 0x20 MUL ADD MLOAD DUP2 PUSH1 0x4 PUSH1 0x18 DUP2 LT PUSH2 0x13F1 JUMPI PUSH2 0x13F0 PUSH2 0x1EE0 JUMP JUMPDEST JUMPDEST PUSH1 0x20 MUL ADD DUP2 DUP2 MSTORE POP POP DUP9 PUSH1 0x1 PUSH1 0x2 DUP2 LT PUSH2 0x140E JUMPI PUSH2 0x140D PUSH2 0x1EE0 JUMP JUMPDEST JUMPDEST PUSH1 0x20 MUL ADD MLOAD PUSH1 0x1 PUSH1 0x2 DUP2 LT PUSH2 0x1426 JUMPI PUSH2 0x1425 PUSH2 0x1EE0 JUMP JUMPDEST JUMPDEST PUSH1 0x20 MUL ADD MLOAD DUP2 PUSH1 0x5 PUSH1 0x18 DUP2 LT PUSH2 0x143F JUMPI PUSH2 0x143E PUSH2 0x1EE0 JUMP JUMPDEST JUMPDEST PUSH1 0x20 MUL ADD DUP2 DUP2 MSTORE POP POP DUP8 PUSH0 PUSH1 0x2 DUP2 LT PUSH2 0x145B JUMPI PUSH2 0x145A PUSH2 0x1EE0 JUMP JUMPDEST JUMPDEST PUSH1 0x20 MUL ADD MLOAD DUP2 PUSH1 0x6 PUSH1 0x18 DUP2 LT PUSH2 0x1474 JUMPI PUSH2 0x1473 PUSH2 0x1EE0 JUMP JUMPDEST JUMPDEST PUSH1 0x20 MUL ADD DUP2 DUP2 MSTORE POP POP DUP8 PUSH1 0x1 PUSH1 0x2 DUP2 LT PUSH2 0x1491 JUMPI PUSH2 0x1490 PUSH2 0x1EE0 JUMP JUMPDEST JUMPDEST PUSH1 0x20 MUL ADD MLOAD DUP2 PUSH1 0x7 PUSH1 0x18 DUP2 LT PUSH2 0x14AA JUMPI PUSH2 0x14A9 PUSH2 0x1EE0 JUMP JUMPDEST JUMPDEST PUSH1 0x20 MUL ADD DUP2 DUP2 MSTORE POP POP DUP7 PUSH0 PUSH1 0x2 DUP2 LT PUSH2 0x14C6 JUMPI PUSH2 0x14C5 PUSH2 0x1EE0 JUMP JUMPDEST JUMPDEST PUSH1 0x20 MUL ADD MLOAD DUP2 PUSH1 0x8 PUSH1 0x18 DUP2 LT PUSH2 0x14DF JUMPI PUSH2 0x14DE PUSH2 0x1EE0 JUMP JUMPDEST JUMPDEST PUSH1 0x20 MUL ADD DUP2 DUP2 MSTORE POP POP DUP7 PUSH1 0x1 PUSH1 0x2 DUP2 LT PUSH2 0x14FC JUMPI PUSH2 0x14FB PUSH2 0x1EE0 JUMP JUMPDEST JUMPDEST PUSH1 0x20 MUL ADD MLOAD DUP2 PUSH1 0x9 PUSH1 0x18 DUP2 LT PUSH2 0x1515 JUMPI PUSH2 0x1514 PUSH2 0x1EE0 JUMP JUMPDEST JUMPDEST PUSH1 0x20 MUL ADD DUP2 DUP2 MSTORE POP POP DUP7 PUSH0 PUSH1 0x2 DUP2 LT PUSH2 0x1531 JUMPI PUSH2 0x1530 PUSH2 0x1EE0 JUMP JUMPDEST JUMPDEST PUSH1 0x20 MUL ADD MLOAD DUP2 PUSH1 0xA PUSH1 0x18 DUP2 LT PUSH2 0x154A JUMPI PUSH2 0x1549 PUSH2 0x1EE0 JUMP JUMPDEST JUMPDEST PUSH1 0x20 MUL ADD DUP2 DUP2 MSTORE POP POP DUP7 PUSH1 0x1 PUSH1 0x2 DUP2 LT PUSH2 0x1567 JUMPI PUSH2 0x1566 PUSH2 0x1EE0 JUMP JUMPDEST JUMPDEST PUSH1 0x20 MUL ADD MLOAD DUP2 PUSH1 0xB PUSH1 0x18 DUP2 LT PUSH2 0x1580 JUMPI PUSH2 0x157F PUSH2 0x1EE0 JUMP JUMPDEST JUMPDEST PUSH1 0x20 MUL ADD DUP2 DUP2 MSTORE POP POP DUP6 PUSH0 PUSH1 0x2 DUP2 LT PUSH2 0x159C JUMPI PUSH2 0x159B PUSH2 0x1EE0 JUMP JUMPDEST JUMPDEST PUSH1 0x20 MUL ADD MLOAD DUP2 PUSH1 0xC PUSH1 0x18 DUP2 LT PUSH2 0x15B5 JUMPI PUSH2 0x15B4 PUSH2 0x1EE0 JUMP JUMPDEST JUMPDEST PUSH1 0x20 MUL ADD DUP2 DUP2 MSTORE POP POP DUP6 PUSH1 0x1 PUSH1 0x2 DUP2 LT PUSH2 0x15D2 JUMPI PUSH2 0x15D1 PUSH2 0x1EE0 JUMP JUMPDEST JUMPDEST PUSH1 0x20 MUL ADD MLOAD DUP2 PUSH1 0xD PUSH1 0x18 DUP2 LT PUSH2 0x15EB JUMPI PUSH2 0x15EA PUSH2 0x1EE0 JUMP JUMPDEST JUMPDEST PUSH1 0x20 MUL ADD DUP2 DUP2 MSTORE POP POP DUP5 PUSH0 PUSH1 0x2 DUP2 LT PUSH2 0x1607 JUMPI PUSH2 0x1606 PUSH2 0x1EE0 JUMP JUMPDEST JUMPDEST PUSH1 0x20 MUL ADD MLOAD DUP2 PUSH1 0xE PUSH1 0x18 DUP2 LT PUSH2 0x1620 JUMPI PUSH2 0x161F PUSH2 0x1EE0 JUMP JUMPDEST JUMPDEST PUSH1 0x20 MUL ADD DUP2 DUP2 MSTORE POP POP DUP5 PUSH1 0x1 PUSH1 0x2 DUP2 LT PUSH2 0x163D JUMPI PUSH2 0x163C PUSH2 0x1EE0 JUMP JUMPDEST JUMPDEST PUSH1 0x20 MUL ADD MLOAD DUP2 PUSH1 0xF PUSH1 0x18 DUP2 LT PUSH2 0x1656 JUMPI PUSH2 0x1655 PUSH2 0x1EE0 JUMP JUMPDEST JUMPDEST PUSH1 0x20 MUL ADD DUP2 DUP2 MSTORE POP POP DUP5 PUSH0 PUSH1 0x2 DUP2 LT PUSH2 0x1672 JUMPI PUSH2 0x1671 PUSH2 0x1EE0 JUMP JUMPDEST JUMPDEST PUSH1 0x20 MUL ADD MLOAD DUP2 PUSH1 0x10 PUSH1 0x18 DUP2 LT PUSH2 0x168B JUMPI PUSH2 0x168A PUSH2 0x1EE0 JUMP JUMPDEST JUMPDEST PUSH1 0x20 MUL ADD DUP2 DUP2 MSTORE POP POP DUP5 PUSH1 0x1 PUSH1 0x2 DUP2 LT PUSH2 0x16A8 JUMPI PUSH2 0x16A7 PUSH2 0x1EE0 JUMP JUMPDEST JUMPDEST PUSH1 0x20 MUL ADD MLOAD DUP2 PUSH1 0x11 PUSH1 0x18 DUP2 LT PUSH2 0x16C1 JUMPI PUSH2 0x16C0 PUSH2 0x1EE0 JUMP JUMPDEST JUMPDEST PUSH1 0x20 MUL ADD DUP2 DUP2 MSTORE POP POP DUP4 PUSH0 PUSH1 0x2 DUP2 LT PUSH2 0x16DD JUMPI PUSH2 0x16DC PUSH2 0x1EE0 JUMP JUMPDEST JUMPDEST PUSH1 0x20 MUL ADD MLOAD DUP2 PUSH1 0x12 PUSH1 0x18 DUP2 LT PUSH2 0x16F6 JUMPI PUSH2 0x16F5 PUSH2 0x1EE0 JUMP JUMPDEST JUMPDEST PUSH1 0x20 MUL ADD DUP2 DUP2 MSTORE POP POP DUP4 PUSH1 0x1 PUSH1 0x2 DUP2 LT PUSH2 0x1713 JUMPI PUSH2 0x1712 PUSH2 0x1EE0 JUMP JUMPDEST JUMPDEST PUSH1 0x20 MUL ADD MLOAD DUP2 PUSH1 0x13 PUSH1 0x18 DUP2 LT PUSH2 0x172C JUMPI PUSH2 0x172B PUSH2 0x1EE0 JUMP JUMPDEST JUMPDEST PUSH1 0x20 MUL ADD DUP2 DUP2 MSTORE POP POP DUP3 PUSH0 PUSH1 0x2 DUP2 LT PUSH2 0x1748 JUMPI PUSH2 0x1747 PUSH2 0x1EE0 JUMP JUMPDEST JUMPDEST PUSH1 0x20 MUL ADD MLOAD DUP2 PUSH1 0x14 PUSH1 0x18 DUP2 LT PUSH2 0x1761 JUMPI PUSH2 0x1760 PUSH2 0x1EE0 JUMP JUMPDEST JUMPDEST PUSH1 0x20 MUL ADD DUP2 DUP2 MSTORE POP POP DUP3 PUSH1 0x1 PUSH1 0x2 DUP2 LT PUSH2 0x177E JUMPI PUSH2 0x177D PUSH2 0x1EE0 JUMP JUMPDEST JUMPDEST PUSH1 0x20 MUL ADD MLOAD DUP2 PUSH1 0x15 PUSH1 0x18 DUP2 LT PUSH2 0x1797 JUMPI PUSH2 0x1796 PUSH2 0x1EE0 JUMP JUMPDEST JUMPDEST PUSH1 0x20 MUL ADD DUP2 DUP2 MSTORE POP POP DUP3 PUSH0 PUSH1 0x2 DUP2 LT PUSH2 0x17B3 JUMPI PUSH2 0x17B2 PUSH2 0x1EE0 JUMP JUMPDEST JUMPDEST PUSH1 0x20 MUL ADD MLOAD DUP2 PUSH1 0x16 PUSH1 0x18 DUP2 LT PUSH2 0x17CC JUMPI PUSH2 0x17CB PUSH2 0x1EE0 JUMP JUMPDEST JUMPDEST PUSH1 0x20 MUL ADD DUP2 DUP2 MSTORE POP POP DUP3 PUSH1 0x1 PUSH1 0x2 DUP2 LT PUSH2 0x17E9 JUMPI PUSH2 0x17E8 PUSH2 0x1EE0 JUMP JUMPDEST JUMPDEST PUSH1 0x20 MUL ADD MLOAD DUP2 PUSH1 0x17 PUSH1 0x18 DUP2 LT PUSH2 0x1802 JUMPI PUSH2 0x1801 PUSH2 0x1EE0 JUMP JUMPDEST JUMPDEST PUSH1 0x20 MUL ADD DUP2 DUP2 MSTORE POP POP PUSH2 0x1813 PUSH2 0x195A JUMP JUMPDEST PUSH0 PUSH1 0x20 DUP3 PUSH2 0x180 DUP6 PUSH1 0x8 GAS STATICCALL SWAP1 POP DUP1 PUSH2 0x1861 JUMPI PUSH1 0x40 MLOAD PUSH32 0x8C379A000000000000000000000000000000000000000000000000000000000 DUP2 MSTORE PUSH1 0x4 ADD PUSH2 0x1858 SWAP1 PUSH2 0x2434 JUMP JUMPDEST PUSH1 0x40 MLOAD DUP1 SWAP2 SUB SWAP1 REVERT JUMPDEST PUSH1 0x1 DUP3 PUSH0 PUSH1 0x1 DUP2 LT PUSH2 0x1876 JUMPI PUSH2 0x1875 PUSH2 0x1EE0 JUMP JUMPDEST JUMPDEST PUSH1 0x20 MUL ADD MLOAD EQ SWAP4 POP POP POP POP SWAP9 SWAP8 POP POP POP POP POP POP POP POP JUMP JUMPDEST PUSH2 0x1895 PUSH2 0xAA5 JUMP JUMPDEST PUSH2 0x18CB JUMPI PUSH1 0x40 MLOAD PUSH32 0x8DFC202B00000000000000000000000000000000000000000000000000000000 DUP2 MSTORE PUSH1 0x4 ADD PUSH1 0x40 MLOAD DUP1 SWAP2 SUB SWAP1 REVERT JUMPDEST JUMP JUMPDEST PUSH0 DUP1 PUSH0 PUSH32 0x30644E72E131A029B85045B68181585D97816A916871CA8D3C208C16D87CFD47 SWAP1 POP PUSH0 DUP6 EQ DUP1 ISZERO PUSH2 0x1901 JUMPI POP PUSH0 DUP5 EQ JUMPDEST ISZERO PUSH2 0x1912 JUMPI PUSH0 DUP1 SWAP3 POP SWAP3 POP POP PUSH2 0x1930 JUMP JUMPDEST DUP5 DUP2 DUP6 PUSH2 0x191F SWAP2 SWAP1 PUSH2 0x247F JUMP JUMPDEST DUP3 PUSH2 0x192A SWAP2 SWAP1 PUSH2 0x24AF JUMP JUMPDEST SWAP3 POP SWAP3 POP POP JUMPDEST SWAP3 POP SWAP3 SWAP1 POP JUMP JUMPDEST PUSH1 0x40 MLOAD DUP1 PUSH2 0x300 ADD PUSH1 0x40 MSTORE DUP1 PUSH1 0x18 SWAP1 PUSH1 0x20 DUP3 MUL DUP1 CALLDATASIZE DUP4 CALLDATACOPY DUP1 DUP3 ADD SWAP2 POP POP SWAP1 POP POP SWAP1 JUMP JUMPDEST PUSH1 0x40 MLOAD DUP1 PUSH1 0x20 ADD PUSH1 0x40 MSTORE DUP1 PUSH1 0x1 SWAP1 PUSH1 0x20 DUP3 MUL DUP1 CALLDATASIZE DUP4 CALLDATACOPY DUP1 DUP3 ADD SWAP2 POP POP SWAP1 POP POP SWAP1 JUMP JUMPDEST PUSH0 PUSH1 0x40 MLOAD SWAP1 POP SWAP1 JUMP JUMPDEST PUSH0 DUP1 REVERT JUMPDEST PUSH0 DUP1 REVERT JUMPDEST PUSH0 DUP1 REVERT JUMPDEST PUSH0 DUP2 SWAP1 POP DUP3 PUSH1 0x20 PUSH1 0x2 MUL DUP3 ADD GT ISZERO PUSH2 0x19AC JUMPI PUSH2 0x19AB PUSH2 0x198D JUMP JUMPDEST JUMPDEST SWAP3 SWAP2 POP POP JUMP JUMPDEST PUSH0 DUP1 REVERT JUMPDEST PUSH0 DUP1 REVERT JUMPDEST PUSH0 DUP1 DUP4 PUSH1 0x1F DUP5 ADD SLT PUSH2 0x19CF JUMPI PUSH2 0x19CE PUSH2 0x19B2 JUMP JUMPDEST JUMPDEST DUP3 CALLDATALOAD SWAP1 POP PUSH8 0xFFFFFFFFFFFFFFFF DUP2 GT ISZERO PUSH2 0x19EC JUMPI PUSH2 0x19EB PUSH2 0x19B6 JUMP JUMPDEST JUMPDEST PUSH1 0x20 DUP4 ADD SWAP2 POP DUP4 PUSH1 0x40 DUP3 MUL DUP4 ADD GT ISZERO PUSH2 0x1A08 JUMPI PUSH2 0x1A07 PUSH2 0x198D JUMP JUMPDEST JUMPDEST SWAP3 POP SWAP3 SWAP1 POP JUMP JUMPDEST PUSH0 DUP1 PUSH0 DUP1 PUSH0 DUP1 PUSH2 0x120 DUP8 DUP10 SUB SLT ISZERO PUSH2 0x1A2A JUMPI PUSH2 0x1A29 PUSH2 0x1985 JUMP JUMPDEST JUMPDEST PUSH0 PUSH2 0x1A37 DUP10 DUP3 DUP11 ADD PUSH2 0x1991 JUMP JUMPDEST SWAP7 POP POP PUSH1 0x40 PUSH2 0x1A48 DUP10 DUP3 DUP11 ADD PUSH2 0x1991 JUMP JUMPDEST SWAP6 POP POP PUSH1 0x80 PUSH2 0x1A59 DUP10 DUP3 DUP11 ADD PUSH2 0x1991 JUMP JUMPDEST SWAP5 POP POP PUSH1 0xC0 PUSH2 0x1A6A DUP10 DUP3 DUP11 ADD PUSH2 0x1991 JUMP JUMPDEST SWAP4 POP POP PUSH2 0x100 DUP8 ADD CALLDATALOAD PUSH8 0xFFFFFFFFFFFFFFFF DUP2 GT ISZERO PUSH2 0x1A8C JUMPI PUSH2 0x1A8B PUSH2 0x1989 JUMP JUMPDEST JUMPDEST PUSH2 0x1A98 DUP10 DUP3 DUP11 ADD PUSH2 0x19BA JUMP JUMPDEST SWAP3 POP SWAP3 POP POP SWAP3 SWAP6 POP SWAP3 SWAP6 POP SWAP3 SWAP6 JUMP JUMPDEST PUSH0 DUP2 SWAP1 POP SWAP2 SWAP1 POP JUMP JUMPDEST PUSH2 0x1AB9 DUP2 PUSH2 0x1AA7 JUMP JUMPDEST DUP2 EQ PUSH2 0x1AC3 JUMPI PUSH0 DUP1 REVERT JUMPDEST POP JUMP JUMPDEST PUSH0 DUP2 CALLDATALOAD SWAP1 POP PUSH2 0x1AD4 DUP2 PUSH2 0x1AB0 JUMP JUMPDEST SWAP3 SWAP2 POP POP JUMP JUMPDEST PUSH0 PUSH1 0x20 DUP3 DUP5 SUB SLT ISZERO PUSH2 0x1AEF JUMPI PUSH2 0x1AEE PUSH2 0x1985 JUMP JUMPDEST JUMPDEST PUSH0 PUSH2 0x1AFC DUP5 DUP3 DUP6 ADD PUSH2 0x1AC6 JUMP JUMPDEST SWAP2 POP POP SWAP3 SWAP2 POP POP JUMP JUMPDEST PUSH2 0x1B0E DUP2 PUSH2 0x1AA7 JUMP JUMPDEST DUP3 MSTORE POP POP JUMP JUMPDEST PUSH0 PUSH1 0x20 DUP3 ADD SWAP1 POP PUSH2 0x1B27 PUSH0 DUP4 ADD DUP5 PUSH2 0x1B05 JUMP JUMPDEST SWAP3 SWAP2 POP POP JUMP JUMPDEST PUSH0 DUP2 SWAP1 POP DUP3 PUSH1 0x20 PUSH1 0x8 MUL DUP3 ADD GT ISZERO PUSH2 0x1B48 JUMPI PUSH2 0x1B47 PUSH2 0x198D JUMP JUMPDEST JUMPDEST SWAP3 SWAP2 POP POP JUMP JUMPDEST PUSH0 DUP2 SWAP1 POP DUP3 PUSH1 0x20 PUSH1 0x1 MUL DUP3 ADD GT ISZERO PUSH2 0x1B69 JUMPI PUSH2 0x1B68 PUSH2 0x198D JUMP JUMPDEST JUMPDEST SWAP3 SWAP2 POP POP JUMP JUMPDEST PUSH0 DUP1 PUSH2 0x120 DUP4 DUP6 SUB SLT ISZERO PUSH2 0x1B86 JUMPI PUSH2 0x1B85 PUSH2 0x1985 JUMP JUMPDEST JUMPDEST PUSH0 PUSH2 0x1B93 DUP6 DUP3 DUP7 ADD PUSH2 0x1B2D JUMP JUMPDEST SWAP3 POP POP PUSH2 0x100 PUSH2 0x1BA5 DUP6 DUP3 DUP7 ADD PUSH2 0x1B4E JUMP JUMPDEST SWAP2 POP POP SWAP3 POP SWAP3 SWAP1 POP JUMP JUMPDEST PUSH0 DUP2 ISZERO ISZERO SWAP1 POP SWAP2 SWAP1 POP JUMP JUMPDEST PUSH2 0x1BC3 DUP2 PUSH2 0x1BAF JUMP JUMPDEST DUP3 MSTORE POP POP JUMP JUMPDEST PUSH0 PUSH1 0x20 DUP3 ADD SWAP1 POP PUSH2 0x1BDC PUSH0 DUP4 ADD DUP5 PUSH2 0x1BBA JUMP JUMPDEST SWAP3 SWAP2 POP POP JUMP JUMPDEST PUSH0 DUP2 SWAP1 POP SWAP2 SWAP1 POP JUMP JUMPDEST PUSH2 0x1BF4 DUP2 PUSH2 0x1BE2 JUMP JUMPDEST DUP2 EQ PUSH2 0x1BFE JUMPI PUSH0 DUP1 REVERT JUMPDEST POP JUMP JUMPDEST PUSH0 DUP2 CALLDATALOAD SWAP1 POP PUSH2 0x1C0F DUP2 PUSH2 0x1BEB JUMP JUMPDEST SWAP3 SWAP2 POP POP JUMP JUMPDEST PUSH0 PUSH1 0x20 DUP3 DUP5 SUB SLT ISZERO PUSH2 0x1C2A JUMPI PUSH2 0x1C29 PUSH2 0x1985 JUMP JUMPDEST JUMPDEST PUSH0 PUSH2 0x1C37 DUP5 DUP3 DUP6 ADD PUSH2 0x1C01 JUMP JUMPDEST SWAP2 POP POP SWAP3 SWAP2 POP POP JUMP JUMPDEST PUSH2 0x1C49 DUP2 PUSH2 0x1BE2 JUMP JUMPDEST DUP3 MSTORE POP POP JUMP JUMPDEST PUSH0 PUSH1 0x80 DUP3 ADD SWAP1 POP PUSH2 0x1C62 PUSH0 DUP4 ADD DUP8 PUSH2 0x1C40 JUMP JUMPDEST PUSH2 0x1C6F PUSH1 0x20 DUP4 ADD DUP7 PUSH2 0x1C40 JUMP JUMPDEST PUSH2 0x1C7C PUSH1 0x40 DUP4 ADD DUP6 PUSH2 0x1B05 JUMP JUMPDEST PUSH2 0x1C89 PUSH1 0x60 DUP4 ADD DUP5 PUSH2 0x1BBA JUMP JUMPDEST SWAP6 SWAP5 POP POP POP POP POP JUMP JUMPDEST PUSH0 PUSH20 0xFFFFFFFFFFFFFFFFFFFFFFFFFFFFFFFFFFFFFFFF DUP3 AND SWAP1 POP SWAP2 SWAP1 POP JUMP JUMPDEST PUSH0 PUSH2 0x1CBB DUP3 PUSH2 0x1C92 JUMP JUMPDEST SWAP1 POP SWAP2 SWAP1 POP JUMP JUMPDEST PUSH2 0x1CCB DUP2 PUSH2 0x1CB1 JUMP JUMPDEST DUP2 EQ PUSH2 0x1CD5 JUMPI PUSH0 DUP1 REVERT JUMPDEST POP JUMP JUMPDEST PUSH0 DUP2 CALLDATALOAD SWAP1 POP PUSH2 0x1CE6 DUP2 PUSH2 0x1CC2 JUMP JUMPDEST SWAP3 SWAP2 POP POP JUMP JUMPDEST PUSH0 DUP1 DUP4 PUSH1 0x1F DUP5 ADD SLT PUSH2 0x1D01 JUMPI PUSH2 0x1D00 PUSH2 0x19B2 JUMP JUMPDEST JUMPDEST DUP3 CALLDATALOAD SWAP1 POP PUSH8 0xFFFFFFFFFFFFFFFF DUP2 GT ISZERO PUSH2 0x1D1E JUMPI PUSH2 0x1D1D PUSH2 0x19B6 JUMP JUMPDEST JUMPDEST PUSH1 0x20 DUP4 ADD SWAP2 POP DUP4 PUSH1 0x1 DUP3 MUL DUP4 ADD GT ISZERO PUSH2 0x1D3A JUMPI PUSH2 0x1D39 PUSH2 0x198D JUMP JUMPDEST JUMPDEST SWAP3 POP SWAP3 SWAP1 POP JUMP JUMPDEST PUSH0 DUP1 PUSH0 DUP1 PUSH0 DUP1 PUSH1 0xA0 DUP8 DUP10 SUB SLT ISZERO PUSH2 0x1D5B JUMPI PUSH2 0x1D5A PUSH2 0x1985 JUMP JUMPDEST JUMPDEST PUSH0 PUSH2 0x1D68 DUP10 DUP3 DUP11 ADD PUSH2 0x1C01 JUMP JUMPDEST SWAP7 POP POP PUSH1 0x20 PUSH2 0x1D79 DUP10 DUP3 DUP11 ADD PUSH2 0x1C01 JUMP JUMPDEST SWAP6 POP POP PUSH1 0x40 PUSH2 0x1D8A DUP10 DUP3 DUP11 ADD PUSH2 0x1CD8 JUMP JUMPDEST SWAP5 POP POP PUSH1 0x60 PUSH2 0x1D9B DUP10 DUP3 DUP11 ADD PUSH2 0x1CD8 JUMP JUMPDEST SWAP4 POP POP PUSH1 0x80 DUP8 ADD CALLDATALOAD PUSH8 0xFFFFFFFFFFFFFFFF DUP2 GT ISZERO PUSH2 0x1DBC JUMPI PUSH2 0x1DBB PUSH2 0x1989 JUMP JUMPDEST JUMPDEST PUSH2 0x1DC8 DUP10 DUP3 DUP11 ADD PUSH2 0x1CEC JUMP JUMPDEST SWAP3 POP SWAP3 POP POP SWAP3 SWAP6 POP SWAP3 SWAP6 POP SWAP3 SWAP6 JUMP JUMPDEST PUSH2 0x1DE0 DUP2 PUSH2 0x1CB1 JUMP JUMPDEST DUP3 MSTORE POP POP JUMP JUMPDEST PUSH0 PUSH1 0x20 DUP3 ADD SWAP1 POP PUSH2 0x1DF9 PUSH0 DUP4 ADD DUP5 PUSH2 0x1DD7 JUMP JUMPDEST SWAP3 SWAP2 POP POP JUMP JUMPDEST PUSH0 PUSH1 0x20 DUP3 DUP5 SUB SLT ISZERO PUSH2 0x1E14 JUMPI PUSH2 0x1E13 PUSH2 0x1985 JUMP JUMPDEST JUMPDEST PUSH0 PUSH2 0x1E21 DUP5 DUP3 DUP6 ADD PUSH2 0x1CD8 JUMP JUMPDEST SWAP2 POP POP SWAP3 SWAP2 POP POP JUMP JUMPDEST PUSH0 DUP1 PUSH1 0x40 DUP4 DUP6 SUB SLT ISZERO PUSH2 0x1E40 JUMPI PUSH2 0x1E3F PUSH2 0x1985 JUMP JUMPDEST JUMPDEST PUSH0 PUSH2 0x1E4D DUP6 DUP3 DUP7 ADD PUSH2 0x1AC6 JUMP JUMPDEST SWAP3 POP POP PUSH1 0x20 PUSH2 0x1E5E DUP6 DUP3 DUP7 ADD PUSH2 0x1AC6 JUMP JUMPDEST SWAP2 POP POP SWAP3 POP SWAP3 SWAP1 POP JUMP JUMPDEST PUSH0 DUP3 DUP3 MSTORE PUSH1 0x20 DUP3 ADD SWAP1 POP SWAP3 SWAP2 POP POP JUMP JUMPDEST PUSH32 0x496E76616C6964204943206C656E677468000000000000000000000000000000 PUSH0 DUP3 ADD MSTORE POP JUMP JUMPDEST PUSH0 PUSH2 0x1EAC PUSH1 0x11 DUP4 PUSH2 0x1E68 JUMP JUMPDEST SWAP2 POP PUSH2 0x1EB7 DUP3 PUSH2 0x1E78 JUMP JUMPDEST PUSH1 0x20 DUP3 ADD SWAP1 POP SWAP2 SWAP1 POP JUMP JUMPDEST PUSH0 PUSH1 0x20 DUP3 ADD SWAP1 POP DUP2 DUP2 SUB PUSH0 DUP4 ADD MSTORE PUSH2 0x1ED9 DUP2 PUSH2 0x1EA0 JUMP JUMPDEST SWAP1 POP SWAP2 SWAP1 POP JUMP JUMPDEST PUSH32 0x4E487B7100000000000000000000000000000000000000000000000000000000 PUSH0 MSTORE PUSH1 0x32 PUSH1 0x4 MSTORE PUSH1 0x24 PUSH0 REVERT JUMPDEST PUSH32 0x4E756C6C696669657220616C7265616479207573656400000000000000000000 PUSH0 DUP3 ADD MSTORE POP JUMP JUMPDEST PUSH0 PUSH2 0x1F41 PUSH1 0x16 DUP4 PUSH2 0x1E68 JUMP JUMPDEST SWAP2 POP PUSH2 0x1F4C DUP3 PUSH2 0x1F0D JUMP JUMPDEST PUSH1 0x20 DUP3 ADD SWAP1 POP SWAP2 SWAP1 POP JUMP JUMPDEST PUSH0 PUSH1 0x20 DUP3 ADD SWAP1 POP DUP2 DUP2 SUB PUSH0 DUP4 ADD MSTORE PUSH2 0x1F6E DUP2 PUSH2 0x1F35 JUMP JUMPDEST SWAP1 POP SWAP2 SWAP1 POP JUMP JUMPDEST PUSH0 PUSH1 0x1F NOT PUSH1 0x1F DUP4 ADD AND SWAP1 POP SWAP2 SWAP1 POP JUMP JUMPDEST PUSH32 0x4E487B7100000000000000000000000000000000000000000000000000000000 PUSH0 MSTORE PUSH1 0x41 PUSH1 0x4 MSTORE PUSH1 0x24 PUSH0 REVERT JUMPDEST PUSH2 0x1FBB DUP3 PUSH2 0x1F75 JUMP JUMPDEST DUP2 ADD DUP2 DUP2 LT PUSH8 0xFFFFFFFFFFFFFFFF DUP3 GT OR ISZERO PUSH2 0x1FDA JUMPI PUSH2 0x1FD9 PUSH2 0x1F85 JUMP JUMPDEST JUMPDEST DUP1 PUSH1 0x40 MSTORE POP POP POP JUMP JUMPDEST PUSH0 PUSH2 0x1FEC PUSH2 0x197C JUMP JUMPDEST SWAP1 POP PUSH2 0x1FF8 DUP3 DUP3 PUSH2 0x1FB2 JUMP JUMPDEST SWAP2 SWAP1 POP JUMP JUMPDEST PUSH0 PUSH8 0xFFFFFFFFFFFFFFFF DUP3 GT ISZERO PUSH2 0x2017 JUMPI PUSH2 0x2016 PUSH2 0x1F85 JUMP JUMPDEST JUMPDEST PUSH1 0x20 DUP3 MUL SWAP1 POP SWAP2 SWAP1 POP JUMP JUMPDEST PUSH0 PUSH2 0x2034 PUSH2 0x202F DUP5 PUSH2 0x1FFD JUMP JUMPDEST PUSH2 0x1FE3 JUMP JUMPDEST SWAP1 POP DUP1 PUSH1 0x20 DUP5 MUL DUP4 ADD DUP6 DUP2 GT ISZERO PUSH2 0x204E JUMPI PUSH2 0x204D PUSH2 0x198D JUMP JUMPDEST JUMPDEST DUP4 JUMPDEST DUP2 DUP2 LT ISZERO PUSH2 0x2077 JUMPI DUP1 PUSH2 0x2063 DUP9 DUP3 PUSH2 0x1AC6 JUMP JUMPDEST DUP5 MSTORE PUSH1 0x20 DUP5 ADD SWAP4 POP POP PUSH1 0x20 DUP2 ADD SWAP1 POP PUSH2 0x2050 JUMP JUMPDEST POP POP POP SWAP4 SWAP3 POP POP POP JUMP JUMPDEST PUSH0 DUP3 PUSH1 0x1F DUP4 ADD SLT PUSH2 0x2095 JUMPI PUSH2 0x2094 PUSH2 0x19B2 JUMP JUMPDEST JUMPDEST PUSH1 0x8 PUSH2 0x20A2 DUP5 DUP3 DUP6 PUSH2 0x2022 JUMP JUMPDEST SWAP2 POP POP SWAP3 SWAP2 POP POP JUMP JUMPDEST PUSH0 PUSH2 0x100 DUP3 DUP5 SUB SLT ISZERO PUSH2 0x20C1 JUMPI PUSH2 0x20C0 PUSH2 0x1985 JUMP JUMPDEST JUMPDEST PUSH0 PUSH2 0x20CE DUP5 DUP3 DUP6 ADD PUSH2 0x2081 JUMP JUMPDEST SWAP2 POP POP SWAP3 SWAP2 POP POP JUMP JUMPDEST PUSH0 PUSH1 0x8 SWAP1 POP SWAP2 SWAP1 POP JUMP JUMPDEST PUSH0 DUP2 SWAP1 POP SWAP3 SWAP2 POP POP JUMP JUMPDEST PUSH0 DUP2 SWAP1 POP SWAP2 SWAP1 POP JUMP JUMPDEST PUSH2 0x20FD DUP2 PUSH2 0x1AA7 JUMP JUMPDEST DUP3 MSTORE POP POP JUMP JUMPDEST PUSH0 PUSH2 0x210E DUP4 DUP4 PUSH2 0x20F4 JUMP JUMPDEST PUSH1 0x20 DUP4 ADD SWAP1 POP SWAP3 SWAP2 POP POP JUMP JUMPDEST PUSH0 PUSH1 0x20 DUP3 ADD SWAP1 POP SWAP2 SWAP1 POP JUMP JUMPDEST PUSH2 0x212F DUP2 PUSH2 0x20D7 JUMP JUMPDEST PUSH2 0x2139 DUP2 DUP5 PUSH2 0x20E1 JUMP JUMPDEST SWAP3 POP PUSH2 0x2144 DUP3 PUSH2 0x20EB JUMP JUMPDEST DUP1 PUSH0 JUMPDEST DUP4 DUP2 LT ISZERO PUSH2 0x2174 JUMPI DUP2 MLOAD PUSH2 0x215B DUP8 DUP3 PUSH2 0x2103 JUMP JUMPDEST SWAP7 POP PUSH2 0x2166 DUP4 PUSH2 0x211A JUMP JUMPDEST SWAP3 POP POP PUSH1 0x1 DUP2 ADD SWAP1 POP PUSH2 0x2147 JUMP JUMPDEST POP POP POP POP POP POP JUMP JUMPDEST PUSH0 PUSH1 0x1 SWAP1 POP SWAP2 SWAP1 POP JUMP JUMPDEST PUSH0 DUP2 SWAP1 POP SWAP3 SWAP2 POP POP JUMP JUMPDEST PUSH0 DUP2 SWAP1 POP SWAP2 SWAP1 POP JUMP JUMPDEST PUSH0 PUSH1 0x20 DUP3 ADD SWAP1 POP SWAP2 SWAP1 POP JUMP JUMPDEST PUSH2 0x21AE DUP2 PUSH2 0x217C JUMP JUMPDEST PUSH2 0x21B8 DUP2 DUP5 PUSH2 0x2186 JUMP JUMPDEST SWAP3 POP PUSH2 0x21C3 DUP3 PUSH2 0x2190 JUMP JUMPDEST DUP1 PUSH0 JUMPDEST DUP4 DUP2 LT ISZERO PUSH2 0x21F3 JUMPI DUP2 MLOAD PUSH2 0x21DA DUP8 DUP3 PUSH2 0x2103 JUMP JUMPDEST SWAP7 POP PUSH2 0x21E5 DUP4 PUSH2 0x2199 JUMP JUMPDEST SWAP3 POP POP PUSH1 0x1 DUP2 ADD SWAP1 POP PUSH2 0x21C6 JUMP JUMPDEST POP POP POP POP POP POP JUMP JUMPDEST PUSH0 PUSH2 0x120 DUP3 ADD SWAP1 POP PUSH2 0x220F PUSH0 DUP4 ADD DUP6 PUSH2 0x2126 JUMP JUMPDEST PUSH2 0x221D PUSH2 0x100 DUP4 ADD DUP5 PUSH2 0x21A5 JUMP JUMPDEST SWAP4 SWAP3 POP POP POP JUMP JUMPDEST PUSH2 0x222D DUP2 PUSH2 0x1BAF JUMP JUMPDEST DUP2 EQ PUSH2 0x2237 JUMPI PUSH0 DUP1 REVERT JUMPDEST POP JUMP JUMPDEST PUSH0 DUP2 MLOAD SWAP1 POP PUSH2 0x2248 DUP2 PUSH2 0x2224 JUMP JUMPDEST SWAP3 SWAP2 POP POP JUMP JUMPDEST PUSH0 PUSH1 0x20 DUP3 DUP5 SUB SLT ISZERO PUSH2 0x2263 JUMPI PUSH2 0x2262 PUSH2 0x1985 JUMP JUMPDEST JUMPDEST PUSH0 PUSH2 0x2270 DUP5 DUP3 DUP6 ADD PUSH2 0x223A JUMP JUMPDEST SWAP2 POP POP SWAP3 SWAP2 POP POP JUMP JUMPDEST PUSH32 0x496E76616C69642070726F6F6600000000000000000000000000000000000000 PUSH0 DUP3 ADD MSTORE POP JUMP JUMPDEST PUSH0 PUSH2 0x22AD PUSH1 0xD DUP4 PUSH2 0x1E68 JUMP JUMPDEST SWAP2 POP PUSH2 0x22B8 DUP3 PUSH2 0x2279 JUMP JUMPDEST PUSH1 0x20 DUP3 ADD SWAP1 POP SWAP2 SWAP1 POP JUMP JUMPDEST PUSH0 PUSH1 0x20 DUP3 ADD SWAP1 POP DUP2 DUP2 SUB PUSH0 DUP4 ADD MSTORE PUSH2 0x22DA DUP2 PUSH2 0x22A1 JUMP JUMPDEST SWAP1 POP SWAP2 SWAP1 POP JUMP JUMPDEST PUSH32 0x4E487B7100000000000000000000000000000000000000000000000000000000 PUSH0 MSTORE PUSH1 0x11 PUSH1 0x4 MSTORE PUSH1 0x24 PUSH0 REVERT JUMPDEST PUSH0 PUSH2 0x2318 DUP3 PUSH2 0x1AA7 JUMP JUMPDEST SWAP2 POP PUSH2 0x2323 DUP4 PUSH2 0x1AA7 JUMP JUMPDEST SWAP3 POP DUP3 DUP3 ADD SWAP1 POP DUP1 DUP3 GT ISZERO PUSH2 0x233B JUMPI PUSH2 0x233A PUSH2 0x22E1 JUMP JUMPDEST JUMPDEST SWAP3 SWAP2 POP POP JUMP JUMPDEST PUSH32 0x496E76616C696420696E707574206C656E677468000000000000000000000000 PUSH0 DUP3 ADD MSTORE POP JUMP JUMPDEST PUSH0 PUSH2 0x2375 PUSH1 0x14 DUP4 PUSH2 0x1E68 JUMP JUMPDEST SWAP2 POP PUSH2 0x2380 DUP3 PUSH2 0x2341 JUMP JUMPDEST PUSH1 0x20 DUP3 ADD SWAP1 POP SWAP2 SWAP1 POP JUMP JUMPDEST PUSH0 PUSH1 0x20 DUP3 ADD SWAP1 POP DUP2 DUP2 SUB PUSH0 DUP4 ADD MSTORE PUSH2 0x23A2 DUP2 PUSH2 0x2369 JUMP JUMPDEST SWAP1 POP SWAP2 SWAP1 POP JUMP JUMPDEST PUSH0 PUSH2 0x23B3 DUP3 PUSH2 0x1AA7 JUMP JUMPDEST SWAP2 POP PUSH2 0x23BE DUP4 PUSH2 0x1AA7 JUMP JUMPDEST SWAP3 POP DUP3 DUP3 MUL PUSH2 0x23CC DUP2 PUSH2 0x1AA7 JUMP JUMPDEST SWAP2 POP DUP3 DUP3 DIV DUP5 EQ DUP4 ISZERO OR PUSH2 0x23E3 JUMPI PUSH2 0x23E2 PUSH2 0x22E1 JUMP JUMPDEST JUMPDEST POP SWAP3 SWAP2 POP POP JUMP JUMPDEST PUSH32 0x50616972696E6720636865636B206661696C6564000000000000000000000000 PUSH0 DUP3 ADD MSTORE POP JUMP JUMPDEST PUSH0 PUSH2 0x241E PUSH1 0x14 DUP4 PUSH2 0x1E68 JUMP JUMPDEST SWAP2 POP PUSH2 0x2429 DUP3 PUSH2 0x23EA JUMP JUMPDEST PUSH1 0x20 DUP3 ADD SWAP1 POP SWAP2 SWAP1 POP JUMP JUMPDEST PUSH0 PUSH1 0x20 DUP3 ADD SWAP1 POP DUP2 DUP2 SUB PUSH0 DUP4 ADD MSTORE PUSH2 0x244B DUP2 PUSH2 0x2412 JUMP JUMPDEST SWAP1 POP SWAP2 SWAP1 POP JUMP JUMPDEST PUSH32 0x4E487B7100000000000000000000000000000000000000000000000000000000 PUSH0 MSTORE PUSH1 0x12 PUSH1 0x4 MSTORE PUSH1 0x24 PUSH0 REVERT JUMPDEST PUSH0 PUSH2 0x2489 DUP3 PUSH2 0x1AA7 JUMP JUMPDEST SWAP2 POP PUSH2 0x2494 DUP4 PUSH2 0x1AA7 JUMP JUMPDEST SWAP3 POP DUP3 PUSH2 0x24A4 JUMPI PUSH2 0x24A3 PUSH2 0x2452 JUMP JUMPDEST JUMPDEST DUP3 DUP3 MOD SWAP1 POP SWAP3 SWAP2 POP POP JUMP JUMPDEST PUSH0 PUSH2 0x24B9 DUP3 PUSH2 0x1AA7 JUMP JUMPDEST SWAP2 POP PUSH2 0x24C4 DUP4 PUSH2 0x1AA7 JUMP JUMPDEST SWAP3 POP DUP3 DUP3 SUB SWAP1 POP DUP2 DUP2 GT ISZERO PUSH2 0x24DC JUMPI PUSH2 0x24DB PUSH2 0x22E1 JUMP JUMPDEST JUMPDEST SWAP3 SWAP2 POP POP JUMP INVALID LOG2 PUSH5 0x6970667358 0x22 SLT KECCAK256 MUL LOG3 0xDF 0xCC GT 0xD3 0xB1 0x4F 0xC3 DUP8 0xB8 0xDB PUSH4 0xE9711397 PUSH32 0x6844E12D25791528C18490DEC1BF64736F6C634300081A003300000000000000 "
		},
		"gasEstimates": {
			"creation": {
				"codeDepositCost": "1899200",
				"executionCost": "infinite",
				"totalCost": "infinite"
			},
			"external": {
				"alpha1Components(uint256)": "infinite",
				"beta2Components(uint256)": "infinite",
				"delta2Components(uint256)": "infinite",
				"gamma2Components(uint256)": "infinite",
				"icComponents(uint256,uint256)": "infinite",
				"icLength()": "2448",
				"initializeVerificationKey(uint256[2],uint256[2],uint256[2],uint256[2],uint256[2][])": "infinite",
				"messages(bytes32)": "infinite",
				"nullifierUsed(bytes32)": "2874",
				"owner()": "2559",
				"pause()": "infinite",
				"paused()": "2518",
				"renounceOwnership()": "infinite",
				"transferOwnership(address)": "infinite",
				"unpause()": "infinite",
				"verifyMessageProof(bytes32,bytes32,address,address,bytes)": "infinite",
				"verifyProof(uint256[8],uint256[1])": "infinite"
			},
			"internal": {
				"_isOnCurve(uint256,uint256)": "infinite",
				"_negate(uint256,uint256)": "infinite",
				"_pointAdd(uint256,uint256,uint256,uint256)": "infinite",
				"_scalarMul(uint256[2] memory,uint256)": "infinite",
				"_verifyPairing(uint256[2] memory,uint256[2] memory[2] memory,uint256[2] memory,uint256[2] memory,uint256[2] memory,uint256[2] memory,uint256[2] memory,uint256[2] memory)": "infinite",
				"_verifyProof(uint256[2] memory,uint256[2] memory[2] memory,uint256[2] memory,uint256[1] memory)": "infinite"
			}
		},
		"methodIdentifiers": {
			"alpha1Components(uint256)": "ff625fc3",
			"beta2Components(uint256)": "281e8383",
			"delta2Components(uint256)": "230a0ab0",
			"gamma2Components(uint256)": "19880295",
			"icComponents(uint256,uint256)": "fc8221a9",
			"icLength()": "280ee92a",
			"initializeVerificationKey(uint256[2],uint256[2],uint256[2],uint256[2],uint256[2][])": "12202ec6",
			"messages(bytes32)": "2bbd59ca",
			"nullifierUsed(bytes32)": "7ecf686d",
			"owner()": "8da5cb5b",
			"pause()": "8456cb59",
			"paused()": "5c975abb",
			"renounceOwnership()": "715018a6",
			"transferOwnership(address)": "f2fde38b",
			"unpause()": "3f4ba83a",
			"verifyMessageProof(bytes32,bytes32,address,address,bytes)": "2e269540",
			"verifyProof(uint256[8],uint256[1])": "1b81f829"
		}
	},
	"abi": [
		{
			"inputs": [
				{
					"internalType": "address",
					"name": "initialOwner",
					"type": "address"
				}
			],
			"stateMutability": "nonpayable",
			"type": "constructor"
		},
		{
			"inputs": [],
			"name": "EnforcedPause",
			"type": "error"
		},
		{
			"inputs": [],
			"name": "ExpectedPause",
			"type": "error"
		},
		{
			"inputs": [
				{
					"internalType": "address",
					"name": "owner",
					"type": "address"
				}
			],
			"name": "OwnableInvalidOwner",
			"type": "error"
		},
		{
			"inputs": [
				{
					"internalType": "address",
					"name": "account",
					"type": "address"
				}
			],
			"name": "OwnableUnauthorizedAccount",
			"type": "error"
		},
		{
			"inputs": [],
			"name": "ReentrancyGuardReentrantCall",
			"type": "error"
		},
		{
			"anonymous": false,
			"inputs": [
				{
					"indexed": true,
					"internalType": "address",
					"name": "previousOwner",
					"type": "address"
				},
				{
					"indexed": true,
					"internalType": "address",
					"name": "newOwner",
					"type": "address"
				}
			],
			"name": "OwnershipTransferred",
			"type": "event"
		},
		{
			"anonymous": false,
			"inputs": [
				{
					"indexed": false,
					"internalType": "address",
					"name": "account",
					"type": "address"
				}
			],
			"name": "Paused",
			"type": "event"
		},
		{
			"anonymous": false,
			"inputs": [
				{
					"indexed": true,
					"internalType": "bytes32",
					"name": "commitment",
					"type": "bytes32"
				},
				{
					"indexed": true,
					"internalType": "bytes32",
					"name": "nullifier",
					"type": "bytes32"
				},
				{
					"indexed": true,
					"internalType": "address",
					"name": "sender",
					"type": "address"
				},
				{
					"indexed": false,
					"internalType": "uint256",
					"name": "timestamp",
					"type": "uint256"
				}
			],
			"name": "ProofVerified",
			"type": "event"
		},
		{
			"anonymous": false,
			"inputs": [
				{
					"indexed": false,
					"internalType": "address",
					"name": "account",
					"type": "address"
				}
			],
			"name": "Unpaused",
			"type": "event"
		},
		{
			"anonymous": false,
			"inputs": [
				{
					"indexed": true,
					"internalType": "address",
					"name": "updater",
					"type": "address"
				}
			],
			"name": "VerifyingKeyUpdated",
			"type": "event"
		},
		{
			"inputs": [
				{
					"internalType": "uint256",
					"name": "",
					"type": "uint256"
				}
			],
			"name": "alpha1Components",
			"outputs": [
				{
					"internalType": "uint256",
					"name": "",
					"type": "uint256"
				}
			],
			"stateMutability": "view",
			"type": "function"
		},
		{
			"inputs": [
				{
					"internalType": "uint256",
					"name": "",
					"type": "uint256"
				}
			],
			"name": "beta2Components",
			"outputs": [
				{
					"internalType": "uint256",
					"name": "",
					"type": "uint256"
				}
			],
			"stateMutability": "view",
			"type": "function"
		},
		{
			"inputs": [
				{
					"internalType": "uint256",
					"name": "",
					"type": "uint256"
				}
			],
			"name": "delta2Components",
			"outputs": [
				{
					"internalType": "uint256",
					"name": "",
					"type": "uint256"
				}
			],
			"stateMutability": "view",
			"type": "function"
		},
		{
			"inputs": [
				{
					"internalType": "uint256",
					"name": "",
					"type": "uint256"
				}
			],
			"name": "gamma2Components",
			"outputs": [
				{
					"internalType": "uint256",
					"name": "",
					"type": "uint256"
				}
			],
			"stateMutability": "view",
			"type": "function"
		},
		{
			"inputs": [
				{
					"internalType": "uint256",
					"name": "",
					"type": "uint256"
				},
				{
					"internalType": "uint256",
					"name": "",
					"type": "uint256"
				}
			],
			"name": "icComponents",
			"outputs": [
				{
					"internalType": "uint256",
					"name": "",
					"type": "uint256"
				}
			],
			"stateMutability": "view",
			"type": "function"
		},
		{
			"inputs": [],
			"name": "icLength",
			"outputs": [
				{
					"internalType": "uint256",
					"name": "",
					"type": "uint256"
				}
			],
			"stateMutability": "view",
			"type": "function"
		},
		{
			"inputs": [
				{
					"internalType": "uint256[2]",
					"name": "_alpha1",
					"type": "uint256[2]"
				},
				{
					"internalType": "uint256[2]",
					"name": "_beta2",
					"type": "uint256[2]"
				},
				{
					"internalType": "uint256[2]",
					"name": "_gamma2",
					"type": "uint256[2]"
				},
				{
					"internalType": "uint256[2]",
					"name": "_delta2",
					"type": "uint256[2]"
				},
				{
					"internalType": "uint256[2][]",
					"name": "_ic",
					"type": "uint256[2][]"
				}
			],
			"name": "initializeVerificationKey",
			"outputs": [],
			"stateMutability": "nonpayable",
			"type": "function"
		},
		{
			"inputs": [
				{
					"internalType": "bytes32",
					"name": "",
					"type": "bytes32"
				}
			],
			"name": "messages",
			"outputs": [
				{
					"internalType": "bytes32",
					"name": "commitment",
					"type": "bytes32"
				},
				{
					"internalType": "bytes32",
					"name": "nullifier",
					"type": "bytes32"
				},
				{
					"internalType": "uint256",
					"name": "timestamp",
					"type": "uint256"
				},
				{
					"internalType": "bool",
					"name": "verified",
					"type": "bool"
				}
			],
			"stateMutability": "view",
			"type": "function"
		},
		{
			"inputs": [
				{
					"internalType": "bytes32",
					"name": "",
					"type": "bytes32"
				}
			],
			"name": "nullifierUsed",
			"outputs": [
				{
					"internalType": "bool",
					"name": "",
					"type": "bool"
				}
			],
			"stateMutability": "view",
			"type": "function"
		},
		{
			"inputs": [],
			"name": "owner",
			"outputs": [
				{
					"internalType": "address",
					"name": "",
					"type": "address"
				}
			],
			"stateMutability": "view",
			"type": "function"
		},
		{
			"inputs": [],
			"name": "pause",
			"outputs": [],
			"stateMutability": "nonpayable",
			"type": "function"
		},
		{
			"inputs": [],
			"name": "paused",
			"outputs": [
				{
					"internalType": "bool",
					"name": "",
					"type": "bool"
				}
			],
			"stateMutability": "view",
			"type": "function"
		},
		{
			"inputs": [],
			"name": "renounceOwnership",
			"outputs": [],
			"stateMutability": "nonpayable",
			"type": "function"
		},
		{
			"inputs": [
				{
					"internalType": "address",
					"name": "newOwner",
					"type": "address"
				}
			],
			"name": "transferOwnership",
			"outputs": [],
			"stateMutability": "nonpayable",
			"type": "function"
		},
		{
			"inputs": [],
			"name": "unpause",
			"outputs": [],
			"stateMutability": "nonpayable",
			"type": "function"
		},
		{
			"inputs": [
				{
					"internalType": "bytes32",
					"name": "commitment",
					"type": "bytes32"
				},
				{
					"internalType": "bytes32",
					"name": "nullifier",
					"type": "bytes32"
				},
				{
					"internalType": "address",
					"name": "sender",
					"type": "address"
				},
				{
					"internalType": "address",
					"name": "recipient",
					"type": "address"
				},
				{
					"internalType": "bytes",
					"name": "proof",
					"type": "bytes"
				}
			],
			"name": "verifyMessageProof",
			"outputs": [
				{
					"internalType": "bool",
					"name": "",
					"type": "bool"
				}
			],
			"stateMutability": "nonpayable",
			"type": "function"
		},
		{
			"inputs": [
				{
					"internalType": "uint256[8]",
					"name": "proof",
					"type": "uint256[8]"
				},
				{
					"internalType": "uint256[1]",
					"name": "input",
					"type": "uint256[1]"
				}
			],
			"name": "verifyProof",
			"outputs": [
				{
					"internalType": "bool",
					"name": "",
					"type": "bool"
				}
			],
			"stateMutability": "view",
			"type": "function"
		}
	]
}