{
	"bridges/BridgeVerifier.sol": {
		"BridgeVerifier": {
			"abi": [
				{
					"inputs": [
						{
							"internalType": "address",
							"name": "initialOwner",
							"type": "address"
						},
						{
							"internalType": "address",
							"name": "_wormhole",
							"type": "address"
						},
						{
							"internalType": "address",
							"name": "_verifier",
							"type": "address"
						},
						{
							"internalType": "address[]",
							"name": "_guardians",
							"type": "address[]"
						},
						{
							"internalType": "uint256[2]",
							"name": "_alpha",
							"type": "uint256[2]"
						},
						{
							"internalType": "uint256[2][2]",
							"name": "_beta",
							"type": "uint256[2][2]"
						},
						{
							"internalType": "uint256[2]",
							"name": "_gamma",
							"type": "uint256[2]"
						},
						{
							"internalType": "uint256[2]",
							"name": "_delta",
							"type": "uint256[2]"
						},
						{
							"internalType": "uint256[2][]",
							"name": "_ic",
							"type": "uint256[2][]"
						}
					],
					"stateMutability": "nonpayable",
					"type": "constructor"
				},
				{
					"inputs": [],
					"name": "EnforcedPause",
					"type": "error"
				},
				{
					"inputs": [],
					"name": "ExpectedPause",
					"type": "error"
				},
				{
					"inputs": [
						{
							"internalType": "address",
							"name": "owner",
							"type": "address"
						}
					],
					"name": "OwnableInvalidOwner",
					"type": "error"
				},
				{
					"inputs": [
						{
							"internalType": "address",
							"name": "account",
							"type": "address"
						}
					],
					"name": "OwnableUnauthorizedAccount",
					"type": "error"
				},
				{
					"inputs": [],
					"name": "ReentrancyGuardReentrantCall",
					"type": "error"
				},
				{
					"anonymous": false,
					"inputs": [
						{
							"indexed": true,
							"internalType": "uint32",
							"name": "index",
							"type": "uint32"
						},
						{
							"indexed": false,
							"internalType": "address[]",
							"name": "guardians",
							"type": "address[]"
						},
						{
							"indexed": false,
							"internalType": "uint256",
							"name": "timestamp",
							"type": "uint256"
						}
					],
					"name": "GuardianSetUpdated",
					"type": "event"
				},
				{
					"anonymous": false,
					"inputs": [
						{
							"indexed": true,
							"internalType": "bytes32",
							"name": "messageHash",
							"type": "bytes32"
						},
						{
							"indexed": true,
							"internalType": "uint16",
							"name": "sourceChain",
							"type": "uint16"
						},
						{
							"indexed": true,
							"internalType": "uint16",
							"name": "targetChain",
							"type": "uint16"
						},
						{
							"indexed": false,
							"internalType": "address",
							"name": "sender",
							"type": "address"
						},
						{
							"indexed": false,
							"internalType": "address",
							"name": "recipient",
							"type": "address"
						},
						{
							"indexed": false,
							"internalType": "uint256",
							"name": "timestamp",
							"type": "uint256"
						}
					],
					"name": "MessageVerified",
					"type": "event"
				},
				{
					"anonymous": false,
					"inputs": [
						{
							"indexed": true,
							"internalType": "address",
							"name": "previousOwner",
							"type": "address"
						},
						{
							"indexed": true,
							"internalType": "address",
							"name": "newOwner",
							"type": "address"
						}
					],
					"name": "OwnershipTransferred",
					"type": "event"
				},
				{
					"anonymous": false,
					"inputs": [
						{
							"indexed": false,
							"internalType": "address",
							"name": "account",
							"type": "address"
						}
					],
					"name": "Paused",
					"type": "event"
				},
				{
					"anonymous": false,
					"inputs": [
						{
							"indexed": true,
							"internalType": "bytes32",
							"name": "messageHash",
							"type": "bytes32"
						},
						{
							"indexed": true,
							"internalType": "bytes32",
							"name": "proofHash",
							"type": "bytes32"
						},
						{
							"indexed": false,
							"internalType": "uint256",
							"name": "timestamp",
							"type": "uint256"
						}
					],
					"name": "ProofVerified",
					"type": "event"
				},
				{
					"anonymous": false,
					"inputs": [
						{
							"indexed": false,
							"internalType": "address",
							"name": "account",
							"type": "address"
						}
					],
					"name": "Unpaused",
					"type": "event"
				},
				{
					"inputs": [],
					"name": "CONSISTENCY_LEVEL",
					"outputs": [
						{
							"internalType": "uint8",
							"name": "",
							"type": "uint8"
						}
					],
					"stateMutability": "view",
					"type": "function"
				},
				{
					"inputs": [],
					"name": "CURRENT_CHAIN_ID",
					"outputs": [
						{
							"internalType": "uint16",
							"name": "",
							"type": "uint16"
						}
					],
					"stateMutability": "view",
					"type": "function"
				},
				{
					"inputs": [],
					"name": "GUARDIAN_SET_EXPIRY",
					"outputs": [
						{
							"internalType": "uint32",
							"name": "",
							"type": "uint32"
						}
					],
					"stateMutability": "view",
					"type": "function"
				},
				{
					"inputs": [],
					"name": "MSG_TIMEOUT",
					"outputs": [
						{
							"internalType": "uint256",
							"name": "",
							"type": "uint256"
						}
					],
					"stateMutability": "view",
					"type": "function"
				},
				{
					"inputs": [],
					"name": "currentGuardianSetIndex",
					"outputs": [
						{
							"internalType": "uint32",
							"name": "",
							"type": "uint32"
						}
					],
					"stateMutability": "view",
					"type": "function"
				},
				{
					"inputs": [
						{
							"internalType": "bytes",
							"name": "payload",
							"type": "bytes"
						}
					],
					"name": "decodePayload",
					"outputs": [
						{
							"internalType": "bytes32",
							"name": "messageHash",
							"type": "bytes32"
						},
						{
							"internalType": "bytes32",
							"name": "nullifier",
							"type": "bytes32"
						},
						{
							"internalType": "address",
							"name": "sender",
							"type": "address"
						},
						{
							"internalType": "address",
							"name": "recipient",
							"type": "address"
						},
						{
							"internalType": "bytes",
							"name": "data",
							"type": "bytes"
						}
					],
					"stateMutability": "pure",
					"type": "function"
				},
				{
					"inputs": [],
					"name": "getGuardians",
					"outputs": [
						{
							"internalType": "address[]",
							"name": "",
							"type": "address[]"
						}
					],
					"stateMutability": "view",
					"type": "function"
				},
				{
					"inputs": [
						{
							"internalType": "uint32",
							"name": "",
							"type": "uint32"
						}
					],
					"name": "guardianSets",
					"outputs": [
						{
							"internalType": "uint32",
							"name": "expirationTime",
							"type": "uint32"
						},
						{
							"internalType": "bool",
							"name": "isActive",
							"type": "bool"
						}
					],
					"stateMutability": "view",
					"type": "function"
				},
				{
					"inputs": [
						{
							"internalType": "bytes32",
							"name": "messageHash",
							"type": "bytes32"
						}
					],
					"name": "isMessageTimedOut",
					"outputs": [
						{
							"internalType": "bool",
							"name": "",
							"type": "bool"
						}
					],
					"stateMutability": "view",
					"type": "function"
				},
				{
					"inputs": [
						{
							"internalType": "bytes32",
							"name": "",
							"type": "bytes32"
						}
					],
					"name": "messageTimestamps",
					"outputs": [
						{
							"internalType": "uint256",
							"name": "",
							"type": "uint256"
						}
					],
					"stateMutability": "view",
					"type": "function"
				},
				{
					"inputs": [
						{
							"internalType": "bytes32",
							"name": "",
							"type": "bytes32"
						}
					],
					"name": "messages",
					"outputs": [
						{
							"internalType": "bytes32",
							"name": "messageHash",
							"type": "bytes32"
						},
						{
							"internalType": "uint16",
							"name": "sourceChain",
							"type": "uint16"
						},
						{
							"internalType": "uint16",
							"name": "targetChain",
							"type": "uint16"
						},
						{
							"internalType": "bytes32",
							"name": "payloadHash",
							"type": "bytes32"
						},
						{
							"internalType": "bytes32",
							"name": "nullifier",
							"type": "bytes32"
						},
						{
							"internalType": "address",
							"name": "sender",
							"type": "address"
						},
						{
							"internalType": "address",
							"name": "recipient",
							"type": "address"
						},
						{
							"internalType": "bool",
							"name": "executed",
							"type": "bool"
						},
						{
							"internalType": "uint256",
							"name": "timestamp",
							"type": "uint256"
						},
						{
							"internalType": "bytes32",
							"name": "proof",
							"type": "bytes32"
						}
					],
					"stateMutability": "view",
					"type": "function"
				},
				{
					"inputs": [
						{
							"internalType": "bytes32",
							"name": "",
							"type": "bytes32"
						}
					],
					"name": "nullifierUsed",
					"outputs": [
						{
							"internalType": "bool",
							"name": "",
							"type": "bool"
						}
					],
					"stateMutability": "view",
					"type": "function"
				},
				{
					"inputs": [],
					"name": "owner",
					"outputs": [
						{
							"internalType": "address",
							"name": "",
							"type": "address"
						}
					],
					"stateMutability": "view",
					"type": "function"
				},
				{
					"inputs": [],
					"name": "pause",
					"outputs": [],
					"stateMutability": "nonpayable",
					"type": "function"
				},
				{
					"inputs": [],
					"name": "paused",
					"outputs": [
						{
							"internalType": "bool",
							"name": "",
							"type": "bool"
						}
					],
					"stateMutability": "view",
					"type": "function"
				},
				{
					"inputs": [],
					"name": "renounceOwnership",
					"outputs": [],
					"stateMutability": "nonpayable",
					"type": "function"
				},
				{
					"inputs": [
						{
							"internalType": "address",
							"name": "newOwner",
							"type": "address"
						}
					],
					"name": "transferOwnership",
					"outputs": [],
					"stateMutability": "nonpayable",
					"type": "function"
				},
				{
					"inputs": [],
					"name": "unpause",
					"outputs": [],
					"stateMutability": "nonpayable",
					"type": "function"
				},
				{
					"inputs": [
						{
							"internalType": "address[]",
							"name": "newGuardians",
							"type": "address[]"
						}
					],
					"name": "updateGuardianSet",
					"outputs": [],
					"stateMutability": "nonpayable",
					"type": "function"
				},
				{
					"inputs": [
						{
							"internalType": "uint256[2]",
							"name": "_alpha",
							"type": "uint256[2]"
						},
						{
							"internalType": "uint256[2][2]",
							"name": "_beta",
							"type": "uint256[2][2]"
						},
						{
							"internalType": "uint256[2]",
							"name": "_gamma",
							"type": "uint256[2]"
						},
						{
							"internalType": "uint256[2]",
							"name": "_delta",
							"type": "uint256[2]"
						},
						{
							"internalType": "uint256[2][]",
							"name": "_ic",
							"type": "uint256[2][]"
						}
					],
					"name": "updateVerifyingKey",
					"outputs": [],
					"stateMutability": "nonpayable",
					"type": "function"
				},
				{
					"inputs": [],
					"name": "verifier",
					"outputs": [
						{
							"internalType": "contract IVerifier",
							"name": "",
							"type": "address"
						}
					],
					"stateMutability": "view",
					"type": "function"
				},
				{
					"inputs": [
						{
							"internalType": "bytes",
							"name": "encodedVM",
							"type": "bytes"
						},
						{
							"internalType": "bytes",
							"name": "proof",
							"type": "bytes"
						}
					],
					"name": "verifyMessage",
					"outputs": [],
					"stateMutability": "nonpayable",
					"type": "function"
				},
				{
					"inputs": [],
					"name": "wormhole",
					"outputs": [
						{
							"internalType": "contract IWormhole",
							"name": "",
							"type": "address"
						}
					],
					"stateMutability": "view",
					"type": "function"
				}
			],
			"devdoc": {
				"errors": {
					"EnforcedPause()": [
						{
							"details": "The operation failed because the contract is paused."
						}
					],
					"ExpectedPause()": [
						{
							"details": "The operation failed because the contract is not paused."
						}
					],
					"OwnableInvalidOwner(address)": [
						{
							"details": "The owner is not a valid owner account. (eg. `address(0)`)"
						}
					],
					"OwnableUnauthorizedAccount(address)": [
						{
							"details": "The caller account is not authorized to perform an operation."
						}
					],
					"ReentrancyGuardReentrantCall()": [
						{
							"details": "Unauthorized reentrant call."
						}
					]
				},
				"events": {
					"Paused(address)": {
						"details": "Emitted when the pause is triggered by `account`."
					},
					"Unpaused(address)": {
						"details": "Emitted when the pause is lifted by `account`."
					}
				},
				"kind": "dev",
				"methods": {
					"owner()": {
						"details": "Returns the address of the current owner."
					},
					"paused()": {
						"details": "Returns true if the contract is paused, and false otherwise."
					},
					"renounceOwnership()": {
						"details": "Leaves the contract without owner. It will not be possible to call `onlyOwner` functions. Can only be called by the current owner. NOTE: Renouncing ownership will leave the contract without an owner, thereby disabling any functionality that is only available to the owner."
					},
					"transferOwnership(address)": {
						"details": "Transfers ownership of the contract to a new account (`newOwner`). Can only be called by the current owner."
					}
				},
				"version": 1
			},
			"evm": {
				"assembly": "    /* \"bridges/BridgeVerifier.sol\":345:3585  contract BridgeVerifier is IBridgeVerifier, Ownable, ReentrancyGuard, Pausable {... */\n  mstore(0x40, 0x80)\n    /* \"bridges/BridgeVerifier.sol\":1139:1861  constructor(... */\n  callvalue\n  dup1\n  iszero\n  tag_1\n  jumpi\n  0x00\n  dup1\n  revert\ntag_1:\n  pop\n  mload(0x40)\n  sub(codesize, bytecodeSize)\n  dup1\n  bytecodeSize\n  dup4\n  codecopy\n  dup2\n  dup2\n  add\n  0x40\n  mstore\n  dup2\n  add\n  swap1\n  tag_2\n  swap2\n  swap1\n  tag_3\n  jump\t// in\ntag_2:\n    /* \"bridges/BridgeVerifier.sol\":1457:1469  initialOwner */\n  dup9\n    /* \"@openzeppelin/contracts/access/Ownable.sol\":1297:1298  0 */\n  0x00\n    /* \"@openzeppelin/contracts/access/Ownable.sol\":1273:1299  initialOwner == address(0) */\n  0xffffffffffffffffffffffffffffffffffffffff\n  and\n    /* \"@openzeppelin/contracts/access/Ownable.sol\":1273:1285  initialOwner */\n  dup2\n    /* \"@openzeppelin/contracts/access/Ownable.sol\":1273:1299  initialOwner == address(0) */\n  0xffffffffffffffffffffffffffffffffffffffff\n  and\n  sub\n    /* \"@openzeppelin/contracts/access/Ownable.sol\":1269:1364  if (initialOwner == address(0)) {... */\n  tag_9\n  jumpi\n    /* \"@openzeppelin/contracts/access/Ownable.sol\":1350:1351  0 */\n  0x00\n    /* \"@openzeppelin/contracts/access/Ownable.sol\":1322:1353  OwnableInvalidOwner(address(0)) */\n  mload(0x40)\n  0x1e4fbdf700000000000000000000000000000000000000000000000000000000\n  dup2\n  mstore\n  0x04\n  add\n  tag_10\n  swap2\n  swap1\n  tag_11\n  jump\t// in\ntag_10:\n  mload(0x40)\n  dup1\n  swap2\n  sub\n  swap1\n  revert\n    /* \"@openzeppelin/contracts/access/Ownable.sol\":1269:1364  if (initialOwner == address(0)) {... */\ntag_9:\n    /* \"@openzeppelin/contracts/access/Ownable.sol\":1373:1405  _transferOwnership(initialOwner) */\n  tag_12\n    /* \"@openzeppelin/contracts/access/Ownable.sol\":1392:1404  initialOwner */\n  dup2\n    /* \"@openzeppelin/contracts/access/Ownable.sol\":1373:1391  _transferOwnership */\n  shl(0x20, tag_13)\n    /* \"@openzeppelin/contracts/access/Ownable.sol\":1373:1405  _transferOwnership(initialOwner) */\n  0x20\n  shr\n  jump\t// in\ntag_12:\n    /* \"@openzeppelin/contracts/access/Ownable.sol\":1225:1412  constructor(address initialOwner) {... */\n  pop\n    /* \"@openzeppelin/contracts/utils/ReentrancyGuard.sol\":1857:1858  1 */\n  0x01\n    /* \"@openzeppelin/contracts/utils/ReentrancyGuard.sol\":2061:2068  _status */\n  dup1\n    /* \"@openzeppelin/contracts/utils/ReentrancyGuard.sol\":2061:2082  _status = NOT_ENTERED */\n  dup2\n  swap1\n  sstore\n  pop\n    /* \"@openzeppelin/contracts/utils/Pausable.sol\":1241:1246  false */\n  0x00\n    /* \"@openzeppelin/contracts/utils/Pausable.sol\":1231:1238  _paused */\n  0x02\n  0x00\n    /* \"@openzeppelin/contracts/utils/Pausable.sol\":1231:1246  _paused = false */\n  0x0100\n  exp\n  dup2\n  sload\n  dup2\n  0xff\n  mul\n  not\n  and\n  swap1\n  dup4\n  iszero\n  iszero\n  mul\n  or\n  swap1\n  sstore\n  pop\n    /* \"bridges/BridgeVerifier.sol\":1502:1511  _wormhole */\n  dup8\n    /* \"bridges/BridgeVerifier.sol\":1481:1489  wormhole */\n  0x02\n  0x01\n    /* \"bridges/BridgeVerifier.sol\":1481:1512  wormhole = IWormhole(_wormhole) */\n  0x0100\n  exp\n  dup2\n  sload\n  dup2\n  0xffffffffffffffffffffffffffffffffffffffff\n  mul\n  not\n  and\n  swap1\n  dup4\n  0xffffffffffffffffffffffffffffffffffffffff\n  and\n  mul\n  or\n  swap1\n  sstore\n  pop\n    /* \"bridges/BridgeVerifier.sol\":1543:1552  _verifier */\n  dup7\n    /* \"bridges/BridgeVerifier.sol\":1522:1530  verifier */\n  0x03\n  0x00\n    /* \"bridges/BridgeVerifier.sol\":1522:1553  verifier = IVerifier(_verifier) */\n  0x0100\n  exp\n  dup2\n  sload\n  dup2\n  0xffffffffffffffffffffffffffffffffffffffff\n  mul\n  not\n  and\n  swap1\n  dup4\n  0xffffffffffffffffffffffffffffffffffffffff\n  and\n  mul\n  or\n  swap1\n  sstore\n  pop\n    /* \"bridges/BridgeVerifier.sol\":1623:1774  VerifyingKey({... */\n  mload(0x40)\n  dup1\n  0xa0\n  add\n  0x40\n  mstore\n  dup1\n    /* \"bridges/BridgeVerifier.sol\":1657:1663  _alpha */\n  dup7\n    /* \"bridges/BridgeVerifier.sol\":1623:1774  VerifyingKey({... */\n  dup2\n  mstore\n  0x20\n  add\n    /* \"bridges/BridgeVerifier.sol\":1683:1688  _beta */\n  dup6\n    /* \"bridges/BridgeVerifier.sol\":1623:1774  VerifyingKey({... */\n  dup2\n  mstore\n  0x20\n  add\n    /* \"bridges/BridgeVerifier.sol\":1709:1715  _gamma */\n  dup5\n    /* \"bridges/BridgeVerifier.sol\":1623:1774  VerifyingKey({... */\n  dup2\n  mstore\n  0x20\n  add\n    /* \"bridges/BridgeVerifier.sol\":1736:1742  _delta */\n  dup4\n    /* \"bridges/BridgeVerifier.sol\":1623:1774  VerifyingKey({... */\n  dup2\n  mstore\n  0x20\n  add\n    /* \"bridges/BridgeVerifier.sol\":1760:1763  _ic */\n  dup3\n    /* \"bridges/BridgeVerifier.sol\":1623:1774  VerifyingKey({... */\n  dup2\n  mstore\n  pop\n    /* \"bridges/BridgeVerifier.sol\":1608:1620  verifyingKey */\n  0x09\n    /* \"bridges/BridgeVerifier.sol\":1608:1774  verifyingKey = VerifyingKey({... */\n  0x00\n  dup3\n  add\n  mload\n  dup2\n  0x00\n  add\n  swap1\n  0x02\n  tag_17\n  swap3\n  swap2\n  swap1\n  tag_18\n  jump\t// in\ntag_17:\n  pop\n  0x20\n  dup3\n  add\n  mload\n  dup2\n  0x02\n  add\n  swap1\n  0x02\n  tag_19\n  swap3\n  swap2\n  swap1\n  tag_20\n  jump\t// in\ntag_19:\n  pop\n  0x40\n  dup3\n  add\n  mload\n  dup2\n  0x06\n  add\n  swap1\n  0x02\n  tag_21\n  swap3\n  swap2\n  swap1\n  tag_18\n  jump\t// in\ntag_21:\n  pop\n  0x60\n  dup3\n  add\n  mload\n  dup2\n  0x08\n  add\n  swap1\n  0x02\n  tag_22\n  swap3\n  swap2\n  swap1\n  tag_18\n  jump\t// in\ntag_22:\n  pop\n  0x80\n  dup3\n  add\n  mload\n  dup2\n  0x0a\n  add\n  swap1\n  dup1\n  mload\n  swap1\n  0x20\n  add\n  swap1\n  tag_23\n  swap3\n  swap2\n  swap1\n  tag_24\n  jump\t// in\ntag_23:\n  pop\n  swap1\n  pop\n  pop\n    /* \"bridges/BridgeVerifier.sol\":1824:1854  _updateGuardianSet(_guardians) */\n  tag_25\n    /* \"bridges/BridgeVerifier.sol\":1843:1853  _guardians */\n  dup7\n    /* \"bridges/BridgeVerifier.sol\":1824:1842  _updateGuardianSet */\n  shl(0x20, tag_26)\n    /* \"bridges/BridgeVerifier.sol\":1824:1854  _updateGuardianSet(_guardians) */\n  0x20\n  shr\n  jump\t// in\ntag_25:\n    /* \"bridges/BridgeVerifier.sol\":1139:1861  constructor(... */\n  pop\n  pop\n  pop\n  pop\n  pop\n  pop\n  pop\n  pop\n  pop\n    /* \"bridges/BridgeVerifier.sol\":345:3585  contract BridgeVerifier is IBridgeVerifier, Ownable, ReentrancyGuard, Pausable {... */\n  jump(tag_27)\n    /* \"@openzeppelin/contracts/access/Ownable.sol\":2912:3099  function _transferOwnership(address newOwner) internal virtual {... */\ntag_13:\n    /* \"@openzeppelin/contracts/access/Ownable.sol\":2985:3001  address oldOwner */\n  0x00\n    /* \"@openzeppelin/contracts/access/Ownable.sol\":3004:3010  _owner */\n  dup1\n  0x00\n  swap1\n  sload\n  swap1\n  0x0100\n  exp\n  swap1\n  div\n  0xffffffffffffffffffffffffffffffffffffffff\n  and\n    /* \"@openzeppelin/contracts/access/Ownable.sol\":2985:3010  address oldOwner = _owner */\n  swap1\n  pop\n    /* \"@openzeppelin/contracts/access/Ownable.sol\":3029:3037  newOwner */\n  dup2\n    /* \"@openzeppelin/contracts/access/Ownable.sol\":3020:3026  _owner */\n  0x00\n  dup1\n    /* \"@openzeppelin/contracts/access/Ownable.sol\":3020:3037  _owner = newOwner */\n  0x0100\n  exp\n  dup2\n  sload\n  dup2\n  0xffffffffffffffffffffffffffffffffffffffff\n  mul\n  not\n  and\n  swap1\n  dup4\n  0xffffffffffffffffffffffffffffffffffffffff\n  and\n  mul\n  or\n  swap1\n  sstore\n  pop\n    /* \"@openzeppelin/contracts/access/Ownable.sol\":3083:3091  newOwner */\n  dup2\n    /* \"@openzeppelin/contracts/access/Ownable.sol\":3052:3092  OwnershipTransferred(oldOwner, newOwner) */\n  0xffffffffffffffffffffffffffffffffffffffff\n  and\n    /* \"@openzeppelin/contracts/access/Ownable.sol\":3073:3081  oldOwner */\n  dup2\n    /* \"@openzeppelin/contracts/access/Ownable.sol\":3052:3092  OwnershipTransferred(oldOwner, newOwner) */\n  0xffffffffffffffffffffffffffffffffffffffff\n  and\n  0x8be0079c531659141344cd1fd0a4f28419497f9722a3daafe3b4186f6b6457e0\n  mload(0x40)\n  mload(0x40)\n  dup1\n  swap2\n  sub\n  swap1\n  log3\n    /* \"@openzeppelin/contracts/access/Ownable.sol\":2975:3099  {... */\n  pop\n    /* \"@openzeppelin/contracts/access/Ownable.sol\":2912:3099  function _transferOwnership(address newOwner) internal virtual {... */\n  pop\n  jump\t// out\n    /* \"bridges/BridgeVerifier.sol\":2592:2732  function _updateGuardianSet(... */\ntag_26:\n  pop\n  jump\t// out\n    /* \"bridges/BridgeVerifier.sol\":345:3585  contract BridgeVerifier is IBridgeVerifier, Ownable, ReentrancyGuard, Pausable {... */\ntag_18:\n  dup3\n  0x02\n  dup2\n  add\n  swap3\n  dup3\n  iszero\n  tag_30\n  jumpi\n  swap2\n  0x20\n  mul\n  dup3\n  add\ntag_31:\n  dup3\n  dup2\n  gt\n  iszero\n  tag_32\n  jumpi\n  dup3\n  mload\n  dup3\n  sstore\n  swap2\n  0x20\n  add\n  swap2\n  swap1\n  0x01\n  add\n  swap1\n  jump(tag_31)\ntag_32:\ntag_30:\n  pop\n  swap1\n  pop\n  tag_33\n  swap2\n  swap1\n  tag_34\n  jump\t// in\ntag_33:\n  pop\n  swap1\n  jump\t// out\ntag_20:\n  dup3\n  0x02\n  dup1\n  mul\n  dup2\n  add\n  swap3\n  dup3\n  iszero\n  tag_35\n  jumpi\n  swap2\n  0x20\n  mul\n  dup3\n  add\ntag_36:\n  dup3\n  dup2\n  gt\n  iszero\n  tag_37\n  jumpi\n  dup3\n  mload\n  dup3\n  swap1\n  0x02\n  tag_38\n  swap3\n  swap2\n  swap1\n  tag_18\n  jump\t// in\ntag_38:\n  pop\n  swap2\n  0x20\n  add\n  swap2\n  swap1\n  0x02\n  add\n  swap1\n  jump(tag_36)\ntag_37:\ntag_35:\n  pop\n  swap1\n  pop\n  tag_39\n  swap2\n  swap1\n  tag_40\n  jump\t// in\ntag_39:\n  pop\n  swap1\n  jump\t// out\ntag_24:\n  dup3\n  dup1\n  sload\n  dup3\n  dup3\n  sstore\n  swap1\n  0x00\n  mstore\n  keccak256(0x00, 0x20)\n  swap1\n  0x02\n  mul\n  dup2\n  add\n  swap3\n  dup3\n  iszero\n  tag_41\n  jumpi\n  swap2\n  0x20\n  mul\n  dup3\n  add\ntag_42:\n  dup3\n  dup2\n  gt\n  iszero\n  tag_43\n  jumpi\n  dup3\n  mload\n  dup3\n  swap1\n  0x02\n  tag_44\n  swap3\n  swap2\n  swap1\n  tag_18\n  jump\t// in\ntag_44:\n  pop\n  swap2\n  0x20\n  add\n  swap2\n  swap1\n  0x02\n  add\n  swap1\n  jump(tag_42)\ntag_43:\ntag_41:\n  pop\n  swap1\n  pop\n  tag_45\n  swap2\n  swap1\n  tag_40\n  jump\t// in\ntag_45:\n  pop\n  swap1\n  jump\t// out\ntag_34:\ntag_46:\n  dup1\n  dup3\n  gt\n  iszero\n  tag_47\n  jumpi\n  0x00\n  dup2\n  0x00\n  swap1\n  sstore\n  pop\n  0x01\n  add\n  jump(tag_46)\ntag_47:\n  pop\n  swap1\n  jump\t// out\ntag_40:\ntag_48:\n  dup1\n  dup3\n  gt\n  iszero\n  tag_49\n  jumpi\n  0x00\n  dup2\n  dup2\n  tag_50\n  swap2\n  swap1\n  tag_51\n  jump\t// in\ntag_50:\n  pop\n  0x02\n  add\n  jump(tag_48)\ntag_49:\n  pop\n  swap1\n  jump\t// out\ntag_51:\n  pop\n  0x00\n  dup2\n  sstore\n  0x01\n  add\n  0x00\n  swap1\n  sstore\n  jump\t// out\n    /* \"#utility.yul\":7:82   */\ntag_52:\n    /* \"#utility.yul\":40:46   */\n  0x00\n    /* \"#utility.yul\":73:75   */\n  0x40\n    /* \"#utility.yul\":67:76   */\n  mload\n    /* \"#utility.yul\":57:76   */\n  swap1\n  pop\n    /* \"#utility.yul\":7:82   */\n  swap1\n  jump\t// out\n    /* \"#utility.yul\":88:205   */\ntag_53:\n    /* \"#utility.yul\":197:198   */\n  0x00\n    /* \"#utility.yul\":194:195   */\n  dup1\n    /* \"#utility.yul\":187:199   */\n  revert\n    /* \"#utility.yul\":211:328   */\ntag_54:\n    /* \"#utility.yul\":320:321   */\n  0x00\n    /* \"#utility.yul\":317:318   */\n  dup1\n    /* \"#utility.yul\":310:322   */\n  revert\n    /* \"#utility.yul\":334:460   */\ntag_55:\n    /* \"#utility.yul\":371:378   */\n  0x00\n    /* \"#utility.yul\":411:453   */\n  0xffffffffffffffffffffffffffffffffffffffff\n    /* \"#utility.yul\":404:409   */\n  dup3\n    /* \"#utility.yul\":400:454   */\n  and\n    /* \"#utility.yul\":389:454   */\n  swap1\n  pop\n    /* \"#utility.yul\":334:460   */\n  swap2\n  swap1\n  pop\n  jump\t// out\n    /* \"#utility.yul\":466:562   */\ntag_56:\n    /* \"#utility.yul\":503:510   */\n  0x00\n    /* \"#utility.yul\":532:556   */\n  tag_87\n    /* \"#utility.yul\":550:555   */\n  dup3\n    /* \"#utility.yul\":532:556   */\n  tag_55\n  jump\t// in\ntag_87:\n    /* \"#utility.yul\":521:556   */\n  swap1\n  pop\n    /* \"#utility.yul\":466:562   */\n  swap2\n  swap1\n  pop\n  jump\t// out\n    /* \"#utility.yul\":568:690   */\ntag_57:\n    /* \"#utility.yul\":641:665   */\n  tag_89\n    /* \"#utility.yul\":659:664   */\n  dup2\n    /* \"#utility.yul\":641:665   */\n  tag_56\n  jump\t// in\ntag_89:\n    /* \"#utility.yul\":634:639   */\n  dup2\n    /* \"#utility.yul\":631:666   */\n  eq\n    /* \"#utility.yul\":621:684   */\n  tag_90\n  jumpi\n    /* \"#utility.yul\":680:681   */\n  0x00\n    /* \"#utility.yul\":677:678   */\n  dup1\n    /* \"#utility.yul\":670:682   */\n  revert\n    /* \"#utility.yul\":621:684   */\ntag_90:\n    /* \"#utility.yul\":568:690   */\n  pop\n  jump\t// out\n    /* \"#utility.yul\":696:839   */\ntag_58:\n    /* \"#utility.yul\":753:758   */\n  0x00\n    /* \"#utility.yul\":784:790   */\n  dup2\n    /* \"#utility.yul\":778:791   */\n  mload\n    /* \"#utility.yul\":769:791   */\n  swap1\n  pop\n    /* \"#utility.yul\":800:833   */\n  tag_92\n    /* \"#utility.yul\":827:832   */\n  dup2\n    /* \"#utility.yul\":800:833   */\n  tag_57\n  jump\t// in\ntag_92:\n    /* \"#utility.yul\":696:839   */\n  swap3\n  swap2\n  pop\n  pop\n  jump\t// out\n    /* \"#utility.yul\":845:962   */\ntag_59:\n    /* \"#utility.yul\":954:955   */\n  0x00\n    /* \"#utility.yul\":951:952   */\n  dup1\n    /* \"#utility.yul\":944:956   */\n  revert\n    /* \"#utility.yul\":968:1070   */\ntag_60:\n    /* \"#utility.yul\":1009:1015   */\n  0x00\n    /* \"#utility.yul\":1060:1062   */\n  0x1f\n    /* \"#utility.yul\":1056:1063   */\n  not\n    /* \"#utility.yul\":1051:1053   */\n  0x1f\n    /* \"#utility.yul\":1044:1049   */\n  dup4\n    /* \"#utility.yul\":1040:1054   */\n  add\n    /* \"#utility.yul\":1036:1064   */\n  and\n    /* \"#utility.yul\":1026:1064   */\n  swap1\n  pop\n    /* \"#utility.yul\":968:1070   */\n  swap2\n  swap1\n  pop\n  jump\t// out\n    /* \"#utility.yul\":1076:1256   */\ntag_61:\n    /* \"#utility.yul\":1124:1201   */\n  0x4e487b7100000000000000000000000000000000000000000000000000000000\n    /* \"#utility.yul\":1121:1122   */\n  0x00\n    /* \"#utility.yul\":1114:1202   */\n  mstore\n    /* \"#utility.yul\":1221:1225   */\n  0x41\n    /* \"#utility.yul\":1218:1219   */\n  0x04\n    /* \"#utility.yul\":1211:1226   */\n  mstore\n    /* \"#utility.yul\":1245:1249   */\n  0x24\n    /* \"#utility.yul\":1242:1243   */\n  0x00\n    /* \"#utility.yul\":1235:1250   */\n  revert\n    /* \"#utility.yul\":1262:1543   */\ntag_62:\n    /* \"#utility.yul\":1345:1372   */\n  tag_97\n    /* \"#utility.yul\":1367:1371   */\n  dup3\n    /* \"#utility.yul\":1345:1372   */\n  tag_60\n  jump\t// in\ntag_97:\n    /* \"#utility.yul\":1337:1343   */\n  dup2\n    /* \"#utility.yul\":1333:1373   */\n  add\n    /* \"#utility.yul\":1475:1481   */\n  dup2\n    /* \"#utility.yul\":1463:1473   */\n  dup2\n    /* \"#utility.yul\":1460:1482   */\n  lt\n    /* \"#utility.yul\":1439:1457   */\n  0xffffffffffffffff\n    /* \"#utility.yul\":1427:1437   */\n  dup3\n    /* \"#utility.yul\":1424:1458   */\n  gt\n    /* \"#utility.yul\":1421:1483   */\n  or\n    /* \"#utility.yul\":1418:1506   */\n  iszero\n  tag_98\n  jumpi\n    /* \"#utility.yul\":1486:1504   */\n  tag_99\n  tag_61\n  jump\t// in\ntag_99:\n    /* \"#utility.yul\":1418:1506   */\ntag_98:\n    /* \"#utility.yul\":1526:1536   */\n  dup1\n    /* \"#utility.yul\":1522:1524   */\n  0x40\n    /* \"#utility.yul\":1515:1537   */\n  mstore\n    /* \"#utility.yul\":1305:1543   */\n  pop\n    /* \"#utility.yul\":1262:1543   */\n  pop\n  pop\n  jump\t// out\n    /* \"#utility.yul\":1549:1678   */\ntag_63:\n    /* \"#utility.yul\":1583:1589   */\n  0x00\n    /* \"#utility.yul\":1610:1630   */\n  tag_101\n  tag_52\n  jump\t// in\ntag_101:\n    /* \"#utility.yul\":1600:1630   */\n  swap1\n  pop\n    /* \"#utility.yul\":1639:1672   */\n  tag_102\n    /* \"#utility.yul\":1667:1671   */\n  dup3\n    /* \"#utility.yul\":1659:1665   */\n  dup3\n    /* \"#utility.yul\":1639:1672   */\n  tag_62\n  jump\t// in\ntag_102:\n    /* \"#utility.yul\":1549:1678   */\n  swap2\n  swap1\n  pop\n  jump\t// out\n    /* \"#utility.yul\":1684:1995   */\ntag_64:\n    /* \"#utility.yul\":1761:1765   */\n  0x00\n    /* \"#utility.yul\":1851:1869   */\n  0xffffffffffffffff\n    /* \"#utility.yul\":1843:1849   */\n  dup3\n    /* \"#utility.yul\":1840:1870   */\n  gt\n    /* \"#utility.yul\":1837:1893   */\n  iszero\n  tag_104\n  jumpi\n    /* \"#utility.yul\":1873:1891   */\n  tag_105\n  tag_61\n  jump\t// in\ntag_105:\n    /* \"#utility.yul\":1837:1893   */\ntag_104:\n    /* \"#utility.yul\":1923:1927   */\n  0x20\n    /* \"#utility.yul\":1915:1921   */\n  dup3\n    /* \"#utility.yul\":1911:1928   */\n  mul\n    /* \"#utility.yul\":1903:1928   */\n  swap1\n  pop\n    /* \"#utility.yul\":1983:1987   */\n  0x20\n    /* \"#utility.yul\":1977:1981   */\n  dup2\n    /* \"#utility.yul\":1973:1988   */\n  add\n    /* \"#utility.yul\":1965:1988   */\n  swap1\n  pop\n    /* \"#utility.yul\":1684:1995   */\n  swap2\n  swap1\n  pop\n  jump\t// out\n    /* \"#utility.yul\":2001:2118   */\ntag_65:\n    /* \"#utility.yul\":2110:2111   */\n  0x00\n    /* \"#utility.yul\":2107:2108   */\n  dup1\n    /* \"#utility.yul\":2100:2112   */\n  revert\n    /* \"#utility.yul\":2141:2873   */\ntag_66:\n    /* \"#utility.yul\":2248:2253   */\n  0x00\n    /* \"#utility.yul\":2273:2354   */\n  tag_108\n    /* \"#utility.yul\":2289:2353   */\n  tag_109\n    /* \"#utility.yul\":2346:2352   */\n  dup5\n    /* \"#utility.yul\":2289:2353   */\n  tag_64\n  jump\t// in\ntag_109:\n    /* \"#utility.yul\":2273:2354   */\n  tag_63\n  jump\t// in\ntag_108:\n    /* \"#utility.yul\":2264:2354   */\n  swap1\n  pop\n    /* \"#utility.yul\":2374:2379   */\n  dup1\n    /* \"#utility.yul\":2403:2409   */\n  dup4\n    /* \"#utility.yul\":2396:2401   */\n  dup3\n    /* \"#utility.yul\":2389:2410   */\n  mstore\n    /* \"#utility.yul\":2437:2441   */\n  0x20\n    /* \"#utility.yul\":2430:2435   */\n  dup3\n    /* \"#utility.yul\":2426:2442   */\n  add\n    /* \"#utility.yul\":2419:2442   */\n  swap1\n  pop\n    /* \"#utility.yul\":2490:2494   */\n  0x20\n    /* \"#utility.yul\":2482:2488   */\n  dup5\n    /* \"#utility.yul\":2478:2495   */\n  mul\n    /* \"#utility.yul\":2470:2476   */\n  dup4\n    /* \"#utility.yul\":2466:2496   */\n  add\n    /* \"#utility.yul\":2519:2522   */\n  dup6\n    /* \"#utility.yul\":2511:2517   */\n  dup2\n    /* \"#utility.yul\":2508:2523   */\n  gt\n    /* \"#utility.yul\":2505:2627   */\n  iszero\n  tag_110\n  jumpi\n    /* \"#utility.yul\":2538:2617   */\n  tag_111\n  tag_65\n  jump\t// in\ntag_111:\n    /* \"#utility.yul\":2505:2627   */\ntag_110:\n    /* \"#utility.yul\":2653:2659   */\n  dup4\n    /* \"#utility.yul\":2636:2867   */\ntag_112:\n    /* \"#utility.yul\":2670:2676   */\n  dup2\n    /* \"#utility.yul\":2665:2668   */\n  dup2\n    /* \"#utility.yul\":2662:2677   */\n  lt\n    /* \"#utility.yul\":2636:2867   */\n  iszero\n  tag_114\n  jumpi\n    /* \"#utility.yul\":2745:2748   */\n  dup1\n    /* \"#utility.yul\":2774:2822   */\n  tag_115\n    /* \"#utility.yul\":2818:2821   */\n  dup9\n    /* \"#utility.yul\":2806:2816   */\n  dup3\n    /* \"#utility.yul\":2774:2822   */\n  tag_58\n  jump\t// in\ntag_115:\n    /* \"#utility.yul\":2769:2772   */\n  dup5\n    /* \"#utility.yul\":2762:2823   */\n  mstore\n    /* \"#utility.yul\":2852:2856   */\n  0x20\n    /* \"#utility.yul\":2847:2850   */\n  dup5\n    /* \"#utility.yul\":2843:2857   */\n  add\n    /* \"#utility.yul\":2836:2857   */\n  swap4\n  pop\n    /* \"#utility.yul\":2712:2867   */\n  pop\n    /* \"#utility.yul\":2696:2700   */\n  0x20\n    /* \"#utility.yul\":2691:2694   */\n  dup2\n    /* \"#utility.yul\":2687:2701   */\n  add\n    /* \"#utility.yul\":2680:2701   */\n  swap1\n  pop\n    /* \"#utility.yul\":2636:2867   */\n  jump(tag_112)\ntag_114:\n    /* \"#utility.yul\":2640:2661   */\n  pop\n    /* \"#utility.yul\":2254:2873   */\n  pop\n  pop\n    /* \"#utility.yul\":2141:2873   */\n  swap4\n  swap3\n  pop\n  pop\n  pop\n  jump\t// out\n    /* \"#utility.yul\":2896:3281   */\ntag_67:\n    /* \"#utility.yul\":2978:2983   */\n  0x00\n    /* \"#utility.yul\":3027:3030   */\n  dup3\n    /* \"#utility.yul\":3020:3024   */\n  0x1f\n    /* \"#utility.yul\":3012:3018   */\n  dup4\n    /* \"#utility.yul\":3008:3025   */\n  add\n    /* \"#utility.yul\":3004:3031   */\n  slt\n    /* \"#utility.yul\":2994:3116   */\n  tag_117\n  jumpi\n    /* \"#utility.yul\":3035:3114   */\n  tag_118\n  tag_59\n  jump\t// in\ntag_118:\n    /* \"#utility.yul\":2994:3116   */\ntag_117:\n    /* \"#utility.yul\":3145:3151   */\n  dup2\n    /* \"#utility.yul\":3139:3152   */\n  mload\n    /* \"#utility.yul\":3170:3275   */\n  tag_119\n    /* \"#utility.yul\":3271:3274   */\n  dup5\n    /* \"#utility.yul\":3263:3269   */\n  dup3\n    /* \"#utility.yul\":3256:3260   */\n  0x20\n    /* \"#utility.yul\":3248:3254   */\n  dup7\n    /* \"#utility.yul\":3244:3261   */\n  add\n    /* \"#utility.yul\":3170:3275   */\n  tag_66\n  jump\t// in\ntag_119:\n    /* \"#utility.yul\":3161:3275   */\n  swap2\n  pop\n    /* \"#utility.yul\":2984:3281   */\n  pop\n    /* \"#utility.yul\":2896:3281   */\n  swap3\n  swap2\n  pop\n  pop\n  jump\t// out\n    /* \"#utility.yul\":3287:3536   */\ntag_68:\n    /* \"#utility.yul\":3362:3366   */\n  0x00\n    /* \"#utility.yul\":3452:3470   */\n  0xffffffffffffffff\n    /* \"#utility.yul\":3444:3450   */\n  dup3\n    /* \"#utility.yul\":3441:3471   */\n  gt\n    /* \"#utility.yul\":3438:3494   */\n  iszero\n  tag_121\n  jumpi\n    /* \"#utility.yul\":3474:3492   */\n  tag_122\n  tag_61\n  jump\t// in\ntag_122:\n    /* \"#utility.yul\":3438:3494   */\ntag_121:\n    /* \"#utility.yul\":3524:3528   */\n  0x20\n    /* \"#utility.yul\":3516:3522   */\n  dup3\n    /* \"#utility.yul\":3512:3529   */\n  mul\n    /* \"#utility.yul\":3504:3529   */\n  swap1\n  pop\n    /* \"#utility.yul\":3287:3536   */\n  swap2\n  swap1\n  pop\n  jump\t// out\n    /* \"#utility.yul\":3542:3619   */\ntag_69:\n    /* \"#utility.yul\":3579:3586   */\n  0x00\n    /* \"#utility.yul\":3608:3613   */\n  dup2\n    /* \"#utility.yul\":3597:3613   */\n  swap1\n  pop\n    /* \"#utility.yul\":3542:3619   */\n  swap2\n  swap1\n  pop\n  jump\t// out\n    /* \"#utility.yul\":3625:3747   */\ntag_70:\n    /* \"#utility.yul\":3698:3722   */\n  tag_125\n    /* \"#utility.yul\":3716:3721   */\n  dup2\n    /* \"#utility.yul\":3698:3722   */\n  tag_69\n  jump\t// in\ntag_125:\n    /* \"#utility.yul\":3691:3696   */\n  dup2\n    /* \"#utility.yul\":3688:3723   */\n  eq\n    /* \"#utility.yul\":3678:3741   */\n  tag_126\n  jumpi\n    /* \"#utility.yul\":3737:3738   */\n  0x00\n    /* \"#utility.yul\":3734:3735   */\n  dup1\n    /* \"#utility.yul\":3727:3739   */\n  revert\n    /* \"#utility.yul\":3678:3741   */\ntag_126:\n    /* \"#utility.yul\":3625:3747   */\n  pop\n  jump\t// out\n    /* \"#utility.yul\":3753:3896   */\ntag_71:\n    /* \"#utility.yul\":3810:3815   */\n  0x00\n    /* \"#utility.yul\":3841:3847   */\n  dup2\n    /* \"#utility.yul\":3835:3848   */\n  mload\n    /* \"#utility.yul\":3826:3848   */\n  swap1\n  pop\n    /* \"#utility.yul\":3857:3890   */\n  tag_128\n    /* \"#utility.yul\":3884:3889   */\n  dup2\n    /* \"#utility.yul\":3857:3890   */\n  tag_70\n  jump\t// in\ntag_128:\n    /* \"#utility.yul\":3753:3896   */\n  swap3\n  swap2\n  pop\n  pop\n  jump\t// out\n    /* \"#utility.yul\":3920:4585   */\ntag_72:\n    /* \"#utility.yul\":4025:4030   */\n  0x00\n    /* \"#utility.yul\":4050:4129   */\n  tag_130\n    /* \"#utility.yul\":4066:4128   */\n  tag_131\n    /* \"#utility.yul\":4121:4127   */\n  dup5\n    /* \"#utility.yul\":4066:4128   */\n  tag_68\n  jump\t// in\ntag_131:\n    /* \"#utility.yul\":4050:4129   */\n  tag_63\n  jump\t// in\ntag_130:\n    /* \"#utility.yul\":4041:4129   */\n  swap1\n  pop\n    /* \"#utility.yul\":4149:4154   */\n  dup1\n    /* \"#utility.yul\":4202:4206   */\n  0x20\n    /* \"#utility.yul\":4194:4200   */\n  dup5\n    /* \"#utility.yul\":4190:4207   */\n  mul\n    /* \"#utility.yul\":4182:4188   */\n  dup4\n    /* \"#utility.yul\":4178:4208   */\n  add\n    /* \"#utility.yul\":4231:4234   */\n  dup6\n    /* \"#utility.yul\":4223:4229   */\n  dup2\n    /* \"#utility.yul\":4220:4235   */\n  gt\n    /* \"#utility.yul\":4217:4339   */\n  iszero\n  tag_132\n  jumpi\n    /* \"#utility.yul\":4250:4329   */\n  tag_133\n  tag_65\n  jump\t// in\ntag_133:\n    /* \"#utility.yul\":4217:4339   */\ntag_132:\n    /* \"#utility.yul\":4365:4371   */\n  dup4\n    /* \"#utility.yul\":4348:4579   */\ntag_134:\n    /* \"#utility.yul\":4382:4388   */\n  dup2\n    /* \"#utility.yul\":4377:4380   */\n  dup2\n    /* \"#utility.yul\":4374:4389   */\n  lt\n    /* \"#utility.yul\":4348:4579   */\n  iszero\n  tag_136\n  jumpi\n    /* \"#utility.yul\":4457:4460   */\n  dup1\n    /* \"#utility.yul\":4486:4534   */\n  tag_137\n    /* \"#utility.yul\":4530:4533   */\n  dup9\n    /* \"#utility.yul\":4518:4528   */\n  dup3\n    /* \"#utility.yul\":4486:4534   */\n  tag_71\n  jump\t// in\ntag_137:\n    /* \"#utility.yul\":4481:4484   */\n  dup5\n    /* \"#utility.yul\":4474:4535   */\n  mstore\n    /* \"#utility.yul\":4564:4568   */\n  0x20\n    /* \"#utility.yul\":4559:4562   */\n  dup5\n    /* \"#utility.yul\":4555:4569   */\n  add\n    /* \"#utility.yul\":4548:4569   */\n  swap4\n  pop\n    /* \"#utility.yul\":4424:4579   */\n  pop\n    /* \"#utility.yul\":4408:4412   */\n  0x20\n    /* \"#utility.yul\":4403:4406   */\n  dup2\n    /* \"#utility.yul\":4399:4413   */\n  add\n    /* \"#utility.yul\":4392:4413   */\n  swap1\n  pop\n    /* \"#utility.yul\":4348:4579   */\n  jump(tag_134)\ntag_136:\n    /* \"#utility.yul\":4352:4373   */\n  pop\n    /* \"#utility.yul\":4031:4585   */\n  pop\n  pop\n    /* \"#utility.yul\":3920:4585   */\n  swap4\n  swap3\n  pop\n  pop\n  pop\n  jump\t// out\n    /* \"#utility.yul\":4609:4970   */\ntag_73:\n    /* \"#utility.yul\":4689:4694   */\n  0x00\n    /* \"#utility.yul\":4738:4741   */\n  dup3\n    /* \"#utility.yul\":4731:4735   */\n  0x1f\n    /* \"#utility.yul\":4723:4729   */\n  dup4\n    /* \"#utility.yul\":4719:4736   */\n  add\n    /* \"#utility.yul\":4715:4742   */\n  slt\n    /* \"#utility.yul\":4705:4827   */\n  tag_139\n  jumpi\n    /* \"#utility.yul\":4746:4825   */\n  tag_140\n  tag_59\n  jump\t// in\ntag_140:\n    /* \"#utility.yul\":4705:4827   */\ntag_139:\n    /* \"#utility.yul\":4850:4854   */\n  0x02\n    /* \"#utility.yul\":4872:4964   */\n  tag_141\n    /* \"#utility.yul\":4960:4963   */\n  dup5\n    /* \"#utility.yul\":4952:4958   */\n  dup3\n    /* \"#utility.yul\":4944:4950   */\n  dup6\n    /* \"#utility.yul\":4872:4964   */\n  tag_72\n  jump\t// in\ntag_141:\n    /* \"#utility.yul\":4863:4964   */\n  swap2\n  pop\n    /* \"#utility.yul\":4695:4970   */\n  pop\n    /* \"#utility.yul\":4609:4970   */\n  swap3\n  swap2\n  pop\n  pop\n  jump\t// out\n    /* \"#utility.yul\":4976:5248   */\ntag_74:\n    /* \"#utility.yul\":5074:5078   */\n  0x00\n    /* \"#utility.yul\":5164:5182   */\n  0xffffffffffffffff\n    /* \"#utility.yul\":5156:5162   */\n  dup3\n    /* \"#utility.yul\":5153:5183   */\n  gt\n    /* \"#utility.yul\":5150:5206   */\n  iszero\n  tag_143\n  jumpi\n    /* \"#utility.yul\":5186:5204   */\n  tag_144\n  tag_61\n  jump\t// in\ntag_144:\n    /* \"#utility.yul\":5150:5206   */\ntag_143:\n    /* \"#utility.yul\":5236:5240   */\n  0x20\n    /* \"#utility.yul\":5228:5234   */\n  dup3\n    /* \"#utility.yul\":5224:5241   */\n  mul\n    /* \"#utility.yul\":5216:5241   */\n  swap1\n  pop\n    /* \"#utility.yul\":4976:5248   */\n  swap2\n  swap1\n  pop\n  jump\t// out\n    /* \"#utility.yul\":5275:6009   */\ntag_75:\n    /* \"#utility.yul\":5403:5408   */\n  0x00\n    /* \"#utility.yul\":5428:5530   */\n  tag_146\n    /* \"#utility.yul\":5444:5529   */\n  tag_147\n    /* \"#utility.yul\":5522:5528   */\n  dup5\n    /* \"#utility.yul\":5444:5529   */\n  tag_74\n  jump\t// in\ntag_147:\n    /* \"#utility.yul\":5428:5530   */\n  tag_63\n  jump\t// in\ntag_146:\n    /* \"#utility.yul\":5419:5530   */\n  swap1\n  pop\n    /* \"#utility.yul\":5550:5555   */\n  dup1\n    /* \"#utility.yul\":5603:5607   */\n  0x40\n    /* \"#utility.yul\":5595:5601   */\n  dup5\n    /* \"#utility.yul\":5591:5608   */\n  mul\n    /* \"#utility.yul\":5583:5589   */\n  dup4\n    /* \"#utility.yul\":5579:5609   */\n  add\n    /* \"#utility.yul\":5632:5635   */\n  dup6\n    /* \"#utility.yul\":5624:5630   */\n  dup2\n    /* \"#utility.yul\":5621:5636   */\n  gt\n    /* \"#utility.yul\":5618:5740   */\n  iszero\n  tag_148\n  jumpi\n    /* \"#utility.yul\":5651:5730   */\n  tag_149\n  tag_65\n  jump\t// in\ntag_149:\n    /* \"#utility.yul\":5618:5740   */\ntag_148:\n    /* \"#utility.yul\":5766:5772   */\n  dup4\n    /* \"#utility.yul\":5749:6003   */\ntag_150:\n    /* \"#utility.yul\":5783:5789   */\n  dup2\n    /* \"#utility.yul\":5778:5781   */\n  dup2\n    /* \"#utility.yul\":5775:5790   */\n  lt\n    /* \"#utility.yul\":5749:6003   */\n  iszero\n  tag_152\n  jumpi\n    /* \"#utility.yul\":5858:5861   */\n  dup1\n    /* \"#utility.yul\":5887:5958   */\n  tag_153\n    /* \"#utility.yul\":5954:5957   */\n  dup9\n    /* \"#utility.yul\":5942:5952   */\n  dup3\n    /* \"#utility.yul\":5887:5958   */\n  tag_73\n  jump\t// in\ntag_153:\n    /* \"#utility.yul\":5882:5885   */\n  dup5\n    /* \"#utility.yul\":5875:5959   */\n  mstore\n    /* \"#utility.yul\":5988:5992   */\n  0x20\n    /* \"#utility.yul\":5983:5986   */\n  dup5\n    /* \"#utility.yul\":5979:5993   */\n  add\n    /* \"#utility.yul\":5972:5993   */\n  swap4\n  pop\n    /* \"#utility.yul\":5825:6003   */\n  pop\n    /* \"#utility.yul\":5809:5813   */\n  0x40\n    /* \"#utility.yul\":5804:5807   */\n  dup2\n    /* \"#utility.yul\":5800:5814   */\n  add\n    /* \"#utility.yul\":5793:5814   */\n  swap1\n  pop\n    /* \"#utility.yul\":5749:6003   */\n  jump(tag_150)\ntag_152:\n    /* \"#utility.yul\":5753:5774   */\n  pop\n    /* \"#utility.yul\":5409:6009   */\n  pop\n  pop\n    /* \"#utility.yul\":5275:6009   */\n  swap4\n  swap3\n  pop\n  pop\n  pop\n  jump\t// out\n    /* \"#utility.yul\":6036:6443   */\ntag_76:\n    /* \"#utility.yul\":6139:6144   */\n  0x00\n    /* \"#utility.yul\":6188:6191   */\n  dup3\n    /* \"#utility.yul\":6181:6185   */\n  0x1f\n    /* \"#utility.yul\":6173:6179   */\n  dup4\n    /* \"#utility.yul\":6169:6186   */\n  add\n    /* \"#utility.yul\":6165:6192   */\n  slt\n    /* \"#utility.yul\":6155:6277   */\n  tag_155\n  jumpi\n    /* \"#utility.yul\":6196:6275   */\n  tag_156\n  tag_59\n  jump\t// in\ntag_156:\n    /* \"#utility.yul\":6155:6277   */\ntag_155:\n    /* \"#utility.yul\":6300:6304   */\n  0x02\n    /* \"#utility.yul\":6322:6437   */\n  tag_157\n    /* \"#utility.yul\":6433:6436   */\n  dup5\n    /* \"#utility.yul\":6425:6431   */\n  dup3\n    /* \"#utility.yul\":6417:6423   */\n  dup6\n    /* \"#utility.yul\":6322:6437   */\n  tag_75\n  jump\t// in\ntag_157:\n    /* \"#utility.yul\":6313:6437   */\n  swap2\n  pop\n    /* \"#utility.yul\":6145:6443   */\n  pop\n    /* \"#utility.yul\":6036:6443   */\n  swap3\n  swap2\n  pop\n  pop\n  jump\t// out\n    /* \"#utility.yul\":6449:6783   */\ntag_77:\n    /* \"#utility.yul\":6549:6553   */\n  0x00\n    /* \"#utility.yul\":6639:6657   */\n  0xffffffffffffffff\n    /* \"#utility.yul\":6631:6637   */\n  dup3\n    /* \"#utility.yul\":6628:6658   */\n  gt\n    /* \"#utility.yul\":6625:6681   */\n  iszero\n  tag_159\n  jumpi\n    /* \"#utility.yul\":6661:6679   */\n  tag_160\n  tag_61\n  jump\t// in\ntag_160:\n    /* \"#utility.yul\":6625:6681   */\ntag_159:\n    /* \"#utility.yul\":6711:6715   */\n  0x20\n    /* \"#utility.yul\":6703:6709   */\n  dup3\n    /* \"#utility.yul\":6699:6716   */\n  mul\n    /* \"#utility.yul\":6691:6716   */\n  swap1\n  pop\n    /* \"#utility.yul\":6771:6775   */\n  0x20\n    /* \"#utility.yul\":6765:6769   */\n  dup2\n    /* \"#utility.yul\":6761:6776   */\n  add\n    /* \"#utility.yul\":6753:6776   */\n  swap1\n  pop\n    /* \"#utility.yul\":6449:6783   */\n  swap2\n  swap1\n  pop\n  jump\t// out\n    /* \"#utility.yul\":6809:7610   */\ntag_78:\n    /* \"#utility.yul\":6939:6944   */\n  0x00\n    /* \"#utility.yul\":6964:7068   */\n  tag_162\n    /* \"#utility.yul\":6980:7067   */\n  tag_163\n    /* \"#utility.yul\":7060:7066   */\n  dup5\n    /* \"#utility.yul\":6980:7067   */\n  tag_77\n  jump\t// in\ntag_163:\n    /* \"#utility.yul\":6964:7068   */\n  tag_63\n  jump\t// in\ntag_162:\n    /* \"#utility.yul\":6955:7068   */\n  swap1\n  pop\n    /* \"#utility.yul\":7088:7093   */\n  dup1\n    /* \"#utility.yul\":7117:7123   */\n  dup4\n    /* \"#utility.yul\":7110:7115   */\n  dup3\n    /* \"#utility.yul\":7103:7124   */\n  mstore\n    /* \"#utility.yul\":7151:7155   */\n  0x20\n    /* \"#utility.yul\":7144:7149   */\n  dup3\n    /* \"#utility.yul\":7140:7156   */\n  add\n    /* \"#utility.yul\":7133:7156   */\n  swap1\n  pop\n    /* \"#utility.yul\":7204:7208   */\n  0x40\n    /* \"#utility.yul\":7196:7202   */\n  dup5\n    /* \"#utility.yul\":7192:7209   */\n  mul\n    /* \"#utility.yul\":7184:7190   */\n  dup4\n    /* \"#utility.yul\":7180:7210   */\n  add\n    /* \"#utility.yul\":7233:7236   */\n  dup6\n    /* \"#utility.yul\":7225:7231   */\n  dup2\n    /* \"#utility.yul\":7222:7237   */\n  gt\n    /* \"#utility.yul\":7219:7341   */\n  iszero\n  tag_164\n  jumpi\n    /* \"#utility.yul\":7252:7331   */\n  tag_165\n  tag_65\n  jump\t// in\ntag_165:\n    /* \"#utility.yul\":7219:7341   */\ntag_164:\n    /* \"#utility.yul\":7367:7373   */\n  dup4\n    /* \"#utility.yul\":7350:7604   */\ntag_166:\n    /* \"#utility.yul\":7384:7390   */\n  dup2\n    /* \"#utility.yul\":7379:7382   */\n  dup2\n    /* \"#utility.yul\":7376:7391   */\n  lt\n    /* \"#utility.yul\":7350:7604   */\n  iszero\n  tag_168\n  jumpi\n    /* \"#utility.yul\":7459:7462   */\n  dup1\n    /* \"#utility.yul\":7488:7559   */\n  tag_169\n    /* \"#utility.yul\":7555:7558   */\n  dup9\n    /* \"#utility.yul\":7543:7553   */\n  dup3\n    /* \"#utility.yul\":7488:7559   */\n  tag_73\n  jump\t// in\ntag_169:\n    /* \"#utility.yul\":7483:7486   */\n  dup5\n    /* \"#utility.yul\":7476:7560   */\n  mstore\n    /* \"#utility.yul\":7589:7593   */\n  0x20\n    /* \"#utility.yul\":7584:7587   */\n  dup5\n    /* \"#utility.yul\":7580:7594   */\n  add\n    /* \"#utility.yul\":7573:7594   */\n  swap4\n  pop\n    /* \"#utility.yul\":7426:7604   */\n  pop\n    /* \"#utility.yul\":7410:7414   */\n  0x40\n    /* \"#utility.yul\":7405:7408   */\n  dup2\n    /* \"#utility.yul\":7401:7415   */\n  add\n    /* \"#utility.yul\":7394:7415   */\n  swap1\n  pop\n    /* \"#utility.yul\":7350:7604   */\n  jump(tag_166)\ntag_168:\n    /* \"#utility.yul\":7354:7375   */\n  pop\n    /* \"#utility.yul\":6945:7610   */\n  pop\n  pop\n    /* \"#utility.yul\":6809:7610   */\n  swap4\n  swap3\n  pop\n  pop\n  pop\n  jump\t// out\n    /* \"#utility.yul\":7636:8067   */\ntag_79:\n    /* \"#utility.yul\":7741:7746   */\n  0x00\n    /* \"#utility.yul\":7790:7793   */\n  dup3\n    /* \"#utility.yul\":7783:7787   */\n  0x1f\n    /* \"#utility.yul\":7775:7781   */\n  dup4\n    /* \"#utility.yul\":7771:7788   */\n  add\n    /* \"#utility.yul\":7767:7794   */\n  slt\n    /* \"#utility.yul\":7757:7879   */\n  tag_171\n  jumpi\n    /* \"#utility.yul\":7798:7877   */\n  tag_172\n  tag_59\n  jump\t// in\ntag_172:\n    /* \"#utility.yul\":7757:7879   */\ntag_171:\n    /* \"#utility.yul\":7908:7914   */\n  dup2\n    /* \"#utility.yul\":7902:7915   */\n  mload\n    /* \"#utility.yul\":7933:8061   */\n  tag_173\n    /* \"#utility.yul\":8057:8060   */\n  dup5\n    /* \"#utility.yul\":8049:8055   */\n  dup3\n    /* \"#utility.yul\":8042:8046   */\n  0x20\n    /* \"#utility.yul\":8034:8040   */\n  dup7\n    /* \"#utility.yul\":8030:8047   */\n  add\n    /* \"#utility.yul\":7933:8061   */\n  tag_78\n  jump\t// in\ntag_173:\n    /* \"#utility.yul\":7924:8061   */\n  swap2\n  pop\n    /* \"#utility.yul\":7747:8067   */\n  pop\n    /* \"#utility.yul\":7636:8067   */\n  swap3\n  swap2\n  pop\n  pop\n  jump\t// out\n    /* \"#utility.yul\":8073:10360   */\ntag_3:\n    /* \"#utility.yul\":8403:8409   */\n  0x00\n    /* \"#utility.yul\":8411:8417   */\n  dup1\n    /* \"#utility.yul\":8419:8425   */\n  0x00\n    /* \"#utility.yul\":8427:8433   */\n  dup1\n    /* \"#utility.yul\":8435:8441   */\n  0x00\n    /* \"#utility.yul\":8443:8449   */\n  dup1\n    /* \"#utility.yul\":8451:8457   */\n  0x00\n    /* \"#utility.yul\":8459:8465   */\n  dup1\n    /* \"#utility.yul\":8467:8473   */\n  0x00\n    /* \"#utility.yul\":8516:8519   */\n  0x01e0\n    /* \"#utility.yul\":8504:8513   */\n  dup11\n    /* \"#utility.yul\":8495:8502   */\n  dup13\n    /* \"#utility.yul\":8491:8514   */\n  sub\n    /* \"#utility.yul\":8487:8520   */\n  slt\n    /* \"#utility.yul\":8484:8604   */\n  iszero\n  tag_175\n  jumpi\n    /* \"#utility.yul\":8523:8602   */\n  tag_176\n  tag_53\n  jump\t// in\ntag_176:\n    /* \"#utility.yul\":8484:8604   */\ntag_175:\n    /* \"#utility.yul\":8643:8644   */\n  0x00\n    /* \"#utility.yul\":8668:8732   */\n  tag_177\n    /* \"#utility.yul\":8724:8731   */\n  dup13\n    /* \"#utility.yul\":8715:8721   */\n  dup3\n    /* \"#utility.yul\":8704:8713   */\n  dup14\n    /* \"#utility.yul\":8700:8722   */\n  add\n    /* \"#utility.yul\":8668:8732   */\n  tag_58\n  jump\t// in\ntag_177:\n    /* \"#utility.yul\":8658:8732   */\n  swap10\n  pop\n    /* \"#utility.yul\":8614:8742   */\n  pop\n    /* \"#utility.yul\":8781:8783   */\n  0x20\n    /* \"#utility.yul\":8807:8871   */\n  tag_178\n    /* \"#utility.yul\":8863:8870   */\n  dup13\n    /* \"#utility.yul\":8854:8860   */\n  dup3\n    /* \"#utility.yul\":8843:8852   */\n  dup14\n    /* \"#utility.yul\":8839:8861   */\n  add\n    /* \"#utility.yul\":8807:8871   */\n  tag_58\n  jump\t// in\ntag_178:\n    /* \"#utility.yul\":8797:8871   */\n  swap9\n  pop\n    /* \"#utility.yul\":8752:8881   */\n  pop\n    /* \"#utility.yul\":8920:8922   */\n  0x40\n    /* \"#utility.yul\":8946:9010   */\n  tag_179\n    /* \"#utility.yul\":9002:9009   */\n  dup13\n    /* \"#utility.yul\":8993:8999   */\n  dup3\n    /* \"#utility.yul\":8982:8991   */\n  dup14\n    /* \"#utility.yul\":8978:9000   */\n  add\n    /* \"#utility.yul\":8946:9010   */\n  tag_58\n  jump\t// in\ntag_179:\n    /* \"#utility.yul\":8936:9010   */\n  swap8\n  pop\n    /* \"#utility.yul\":8891:9020   */\n  pop\n    /* \"#utility.yul\":9080:9082   */\n  0x60\n    /* \"#utility.yul\":9069:9078   */\n  dup11\n    /* \"#utility.yul\":9065:9083   */\n  add\n    /* \"#utility.yul\":9059:9084   */\n  mload\n    /* \"#utility.yul\":9111:9129   */\n  0xffffffffffffffff\n    /* \"#utility.yul\":9103:9109   */\n  dup2\n    /* \"#utility.yul\":9100:9130   */\n  gt\n    /* \"#utility.yul\":9097:9214   */\n  iszero\n  tag_180\n  jumpi\n    /* \"#utility.yul\":9133:9212   */\n  tag_181\n  tag_54\n  jump\t// in\ntag_181:\n    /* \"#utility.yul\":9097:9214   */\ntag_180:\n    /* \"#utility.yul\":9238:9327   */\n  tag_182\n    /* \"#utility.yul\":9319:9326   */\n  dup13\n    /* \"#utility.yul\":9310:9316   */\n  dup3\n    /* \"#utility.yul\":9299:9308   */\n  dup14\n    /* \"#utility.yul\":9295:9317   */\n  add\n    /* \"#utility.yul\":9238:9327   */\n  tag_67\n  jump\t// in\ntag_182:\n    /* \"#utility.yul\":9228:9327   */\n  swap7\n  pop\n    /* \"#utility.yul\":9030:9337   */\n  pop\n    /* \"#utility.yul\":9376:9379   */\n  0x80\n    /* \"#utility.yul\":9403:9490   */\n  tag_183\n    /* \"#utility.yul\":9482:9489   */\n  dup13\n    /* \"#utility.yul\":9473:9479   */\n  dup3\n    /* \"#utility.yul\":9462:9471   */\n  dup14\n    /* \"#utility.yul\":9458:9480   */\n  add\n    /* \"#utility.yul\":9403:9490   */\n  tag_73\n  jump\t// in\ntag_183:\n    /* \"#utility.yul\":9393:9490   */\n  swap6\n  pop\n    /* \"#utility.yul\":9347:9500   */\n  pop\n    /* \"#utility.yul\":9539:9542   */\n  0xc0\n    /* \"#utility.yul\":9566:9676   */\n  tag_184\n    /* \"#utility.yul\":9668:9675   */\n  dup13\n    /* \"#utility.yul\":9659:9665   */\n  dup3\n    /* \"#utility.yul\":9648:9657   */\n  dup14\n    /* \"#utility.yul\":9644:9666   */\n  add\n    /* \"#utility.yul\":9566:9676   */\n  tag_76\n  jump\t// in\ntag_184:\n    /* \"#utility.yul\":9556:9676   */\n  swap5\n  pop\n    /* \"#utility.yul\":9510:9686   */\n  pop\n    /* \"#utility.yul\":9725:9728   */\n  0x0140\n    /* \"#utility.yul\":9752:9839   */\n  tag_185\n    /* \"#utility.yul\":9831:9838   */\n  dup13\n    /* \"#utility.yul\":9822:9828   */\n  dup3\n    /* \"#utility.yul\":9811:9820   */\n  dup14\n    /* \"#utility.yul\":9807:9829   */\n  add\n    /* \"#utility.yul\":9752:9839   */\n  tag_73\n  jump\t// in\ntag_185:\n    /* \"#utility.yul\":9742:9839   */\n  swap4\n  pop\n    /* \"#utility.yul\":9696:9849   */\n  pop\n    /* \"#utility.yul\":9888:9891   */\n  0x0180\n    /* \"#utility.yul\":9915:10002   */\n  tag_186\n    /* \"#utility.yul\":9994:10001   */\n  dup13\n    /* \"#utility.yul\":9985:9991   */\n  dup3\n    /* \"#utility.yul\":9974:9983   */\n  dup14\n    /* \"#utility.yul\":9970:9992   */\n  add\n    /* \"#utility.yul\":9915:10002   */\n  tag_73\n  jump\t// in\ntag_186:\n    /* \"#utility.yul\":9905:10002   */\n  swap3\n  pop\n    /* \"#utility.yul\":9859:10012   */\n  pop\n    /* \"#utility.yul\":10072:10075   */\n  0x01c0\n    /* \"#utility.yul\":10061:10070   */\n  dup11\n    /* \"#utility.yul\":10057:10076   */\n  add\n    /* \"#utility.yul\":10051:10077   */\n  mload\n    /* \"#utility.yul\":10104:10122   */\n  0xffffffffffffffff\n    /* \"#utility.yul\":10096:10102   */\n  dup2\n    /* \"#utility.yul\":10093:10123   */\n  gt\n    /* \"#utility.yul\":10090:10207   */\n  iszero\n  tag_187\n  jumpi\n    /* \"#utility.yul\":10126:10205   */\n  tag_188\n  tag_54\n  jump\t// in\ntag_188:\n    /* \"#utility.yul\":10090:10207   */\ntag_187:\n    /* \"#utility.yul\":10231:10343   */\n  tag_189\n    /* \"#utility.yul\":10335:10342   */\n  dup13\n    /* \"#utility.yul\":10326:10332   */\n  dup3\n    /* \"#utility.yul\":10315:10324   */\n  dup14\n    /* \"#utility.yul\":10311:10333   */\n  add\n    /* \"#utility.yul\":10231:10343   */\n  tag_79\n  jump\t// in\ntag_189:\n    /* \"#utility.yul\":10221:10343   */\n  swap2\n  pop\n    /* \"#utility.yul\":10022:10353   */\n  pop\n    /* \"#utility.yul\":8073:10360   */\n  swap3\n  swap6\n  swap9\n  pop\n  swap3\n  swap6\n  swap9\n  pop\n  swap3\n  swap6\n  swap9\n  jump\t// out\n    /* \"#utility.yul\":10366:10484   */\ntag_80:\n    /* \"#utility.yul\":10453:10477   */\n  tag_191\n    /* \"#utility.yul\":10471:10476   */\n  dup2\n    /* \"#utility.yul\":10453:10477   */\n  tag_56\n  jump\t// in\ntag_191:\n    /* \"#utility.yul\":10448:10451   */\n  dup3\n    /* \"#utility.yul\":10441:10478   */\n  mstore\n    /* \"#utility.yul\":10366:10484   */\n  pop\n  pop\n  jump\t// out\n    /* \"#utility.yul\":10490:10712   */\ntag_11:\n    /* \"#utility.yul\":10583:10587   */\n  0x00\n    /* \"#utility.yul\":10621:10623   */\n  0x20\n    /* \"#utility.yul\":10610:10619   */\n  dup3\n    /* \"#utility.yul\":10606:10624   */\n  add\n    /* \"#utility.yul\":10598:10624   */\n  swap1\n  pop\n    /* \"#utility.yul\":10634:10705   */\n  tag_193\n    /* \"#utility.yul\":10702:10703   */\n  0x00\n    /* \"#utility.yul\":10691:10700   */\n  dup4\n    /* \"#utility.yul\":10687:10704   */\n  add\n    /* \"#utility.yul\":10678:10684   */\n  dup5\n    /* \"#utility.yul\":10634:10705   */\n  tag_80\n  jump\t// in\ntag_193:\n    /* \"#utility.yul\":10490:10712   */\n  swap3\n  swap2\n  pop\n  pop\n  jump\t// out\n    /* \"bridges/BridgeVerifier.sol\":345:3585  contract BridgeVerifier is IBridgeVerifier, Ownable, ReentrancyGuard, Pausable {... */\ntag_27:\n  dataSize(sub_0)\n  dup1\n  dataOffset(sub_0)\n  0x00\n  codecopy\n  0x00\n  return\nstop\n\nsub_0: assembly {\n        /* \"bridges/BridgeVerifier.sol\":345:3585  contract BridgeVerifier is IBridgeVerifier, Ownable, ReentrancyGuard, Pausable {... */\n      mstore(0x40, 0x80)\n      callvalue\n      dup1\n      iszero\n      tag_1\n      jumpi\n      0x00\n      dup1\n      revert\n    tag_1:\n      pop\n      jumpi(tag_2, lt(calldatasize, 0x04))\n      shr(0xe0, calldataload(0x00))\n      dup1\n      0x66800950\n      gt\n      tag_26\n      jumpi\n      dup1\n      0x872919af\n      gt\n      tag_27\n      jumpi\n      dup1\n      0x872919af\n      eq\n      tag_20\n      jumpi\n      dup1\n      0x8da5cb5b\n      eq\n      tag_21\n      jumpi\n      dup1\n      0x8e98e0b9\n      eq\n      tag_22\n      jumpi\n      dup1\n      0x8fc06976\n      eq\n      tag_23\n      jumpi\n      dup1\n      0xb932bcfe\n      eq\n      tag_24\n      jumpi\n      dup1\n      0xf2fde38b\n      eq\n      tag_25\n      jumpi\n      jump(tag_2)\n    tag_27:\n      dup1\n      0x66800950\n      eq\n      tag_14\n      jumpi\n      dup1\n      0x715018a6\n      eq\n      tag_15\n      jumpi\n      dup1\n      0x7269367b\n      eq\n      tag_16\n      jumpi\n      dup1\n      0x7ecf686d\n      eq\n      tag_17\n      jumpi\n      dup1\n      0x8456cb59\n      eq\n      tag_18\n      jumpi\n      dup1\n      0x84acd1bb\n      eq\n      tag_19\n      jumpi\n      jump(tag_2)\n    tag_26:\n      dup1\n      0x38528f53\n      gt\n      tag_28\n      jumpi\n      dup1\n      0x38528f53\n      eq\n      tag_8\n      jumpi\n      dup1\n      0x3870cd12\n      eq\n      tag_9\n      jumpi\n      dup1\n      0x38a4be87\n      eq\n      tag_10\n      jumpi\n      dup1\n      0x3f4ba83a\n      eq\n      tag_11\n      jumpi\n      dup1\n      0x4fd686c8\n      eq\n      tag_12\n      jumpi\n      dup1\n      0x5c975abb\n      eq\n      tag_13\n      jumpi\n      jump(tag_2)\n    tag_28:\n      dup1\n      0x0665f04b\n      eq\n      tag_3\n      jumpi\n      dup1\n      0x08b64d01\n      eq\n      tag_4\n      jumpi\n      dup1\n      0x197c6e77\n      eq\n      tag_5\n      jumpi\n      dup1\n      0x2b7ac3f3\n      eq\n      tag_6\n      jumpi\n      dup1\n      0x2bbd59ca\n      eq\n      tag_7\n      jumpi\n    tag_2:\n      0x00\n      dup1\n      revert\n        /* \"bridges/BridgeVerifier.sol\":2900:3032  function getGuardians() external view override returns (address[] memory) {... */\n    tag_3:\n      tag_29\n      tag_30\n      jump\t// in\n    tag_29:\n      mload(0x40)\n      tag_31\n      swap2\n      swap1\n      tag_32\n      jump\t// in\n    tag_31:\n      mload(0x40)\n      dup1\n      swap2\n      sub\n      swap1\n      return\n        /* \"bridges/BridgeVerifier.sol\":1946:2138  function verifyMessage(... */\n    tag_4:\n      tag_33\n      0x04\n      dup1\n      calldatasize\n      sub\n      dup2\n      add\n      swap1\n      tag_34\n      swap2\n      swap1\n      tag_35\n      jump\t// in\n    tag_34:\n      tag_36\n      jump\t// in\n    tag_33:\n      stop\n        /* \"bridges/BridgeVerifier.sol\":2144:2431  function decodePayload(... */\n    tag_5:\n      tag_37\n      0x04\n      dup1\n      calldatasize\n      sub\n      dup2\n      add\n      swap1\n      tag_38\n      swap2\n      swap1\n      tag_39\n      jump\t// in\n    tag_38:\n      tag_40\n      jump\t// in\n    tag_37:\n      mload(0x40)\n      tag_41\n      swap6\n      swap5\n      swap4\n      swap3\n      swap2\n      swap1\n      tag_42\n      jump\t// in\n    tag_41:\n      mload(0x40)\n      dup1\n      swap2\n      sub\n      swap1\n      return\n        /* \"bridges/BridgeVerifier.sol\":730:755  IVerifier public verifier */\n    tag_6:\n      tag_43\n      tag_44\n      jump\t// in\n    tag_43:\n      mload(0x40)\n      tag_45\n      swap2\n      swap1\n      tag_46\n      jump\t// in\n    tag_45:\n      mload(0x40)\n      dup1\n      swap2\n      sub\n      swap1\n      return\n        /* \"bridges/BridgeVerifier.sol\":766:819  mapping(bytes32 => CrossChainMessage) public messages */\n    tag_7:\n      tag_47\n      0x04\n      dup1\n      calldatasize\n      sub\n      dup2\n      add\n      swap1\n      tag_48\n      swap2\n      swap1\n      tag_49\n      jump\t// in\n    tag_48:\n      tag_50\n      jump\t// in\n    tag_47:\n      mload(0x40)\n      tag_51\n      swap11\n      swap10\n      swap9\n      swap8\n      swap7\n      swap6\n      swap5\n      swap4\n      swap3\n      swap2\n      swap1\n      tag_52\n      jump\t// in\n    tag_51:\n      mload(0x40)\n      dup1\n      swap2\n      sub\n      swap1\n      return\n        /* \"bridges/BridgeVerifier.sol\":995:1032  uint32 public currentGuardianSetIndex */\n    tag_8:\n      tag_53\n      tag_54\n      jump\t// in\n    tag_53:\n      mload(0x40)\n      tag_55\n      swap2\n      swap1\n      tag_56\n      jump\t// in\n    tag_55:\n      mload(0x40)\n      dup1\n      swap2\n      sub\n      swap1\n      return\n        /* \"bridges/BridgeVerifier.sol\":876:926  mapping(uint32 => GuardianSet) public guardianSets */\n    tag_9:\n      tag_57\n      0x04\n      dup1\n      calldatasize\n      sub\n      dup2\n      add\n      swap1\n      tag_58\n      swap2\n      swap1\n      tag_59\n      jump\t// in\n    tag_58:\n      tag_60\n      jump\t// in\n    tag_57:\n      mload(0x40)\n      tag_61\n      swap3\n      swap2\n      swap1\n      tag_62\n      jump\t// in\n    tag_61:\n      mload(0x40)\n      dup1\n      swap2\n      sub\n      swap1\n      return\n        /* \"bridges/BridgeVerifier.sol\":2738:2894  function isMessageTimedOut(... */\n    tag_10:\n      tag_63\n      0x04\n      dup1\n      calldatasize\n      sub\n      dup2\n      add\n      swap1\n      tag_64\n      swap2\n      swap1\n      tag_49\n      jump\t// in\n    tag_64:\n      tag_65\n      jump\t// in\n    tag_63:\n      mload(0x40)\n      tag_66\n      swap2\n      swap1\n      tag_67\n      jump\t// in\n    tag_66:\n      mload(0x40)\n      dup1\n      swap2\n      sub\n      swap1\n      return\n        /* \"bridges/BridgeVerifier.sol\":3518:3583  function unpause() external onlyOwner {... */\n    tag_11:\n      tag_68\n      tag_69\n      jump\t// in\n    tag_68:\n      stop\n        /* \"bridges/BridgeVerifier.sol\":574:617  uint8 public constant CONSISTENCY_LEVEL = 1 */\n    tag_12:\n      tag_70\n      tag_71\n      jump\t// in\n    tag_70:\n      mload(0x40)\n      tag_72\n      swap2\n      swap1\n      tag_73\n      jump\t// in\n    tag_72:\n      mload(0x40)\n      dup1\n      swap2\n      sub\n      swap1\n      return\n        /* \"@openzeppelin/contracts/utils/Pausable.sol\":1850:1934  function paused() public view virtual returns (bool) {... */\n    tag_13:\n      tag_74\n      tag_75\n      jump\t// in\n    tag_74:\n      mload(0x40)\n      tag_76\n      swap2\n      swap1\n      tag_67\n      jump\t// in\n    tag_76:\n      mload(0x40)\n      dup1\n      swap2\n      sub\n      swap1\n      return\n        /* \"bridges/BridgeVerifier.sol\":2437:2586  function updateGuardianSet(... */\n    tag_14:\n      tag_77\n      0x04\n      dup1\n      calldatasize\n      sub\n      dup2\n      add\n      swap1\n      tag_78\n      swap2\n      swap1\n      tag_79\n      jump\t// in\n    tag_78:\n      tag_80\n      jump\t// in\n    tag_77:\n      stop\n        /* \"@openzeppelin/contracts/access/Ownable.sol\":2293:2394  function renounceOwnership() public virtual onlyOwner {... */\n    tag_15:\n      tag_81\n      tag_82\n      jump\t// in\n    tag_81:\n      stop\n        /* \"bridges/BridgeVerifier.sol\":932:984  mapping(bytes32 => uint256) public messageTimestamps */\n    tag_16:\n      tag_83\n      0x04\n      dup1\n      calldatasize\n      sub\n      dup2\n      add\n      swap1\n      tag_84\n      swap2\n      swap1\n      tag_49\n      jump\t// in\n    tag_84:\n      tag_85\n      jump\t// in\n    tag_83:\n      mload(0x40)\n      tag_86\n      swap2\n      swap1\n      tag_87\n      jump\t// in\n    tag_86:\n      mload(0x40)\n      dup1\n      swap2\n      sub\n      swap1\n      return\n        /* \"bridges/BridgeVerifier.sol\":825:870  mapping(bytes32 => bool) public nullifierUsed */\n    tag_17:\n      tag_88\n      0x04\n      dup1\n      calldatasize\n      sub\n      dup2\n      add\n      swap1\n      tag_89\n      swap2\n      swap1\n      tag_49\n      jump\t// in\n    tag_89:\n      tag_90\n      jump\t// in\n    tag_88:\n      mload(0x40)\n      tag_91\n      swap2\n      swap1\n      tag_67\n      jump\t// in\n    tag_91:\n      mload(0x40)\n      dup1\n      swap2\n      sub\n      swap1\n      return\n        /* \"bridges/BridgeVerifier.sol\":3451:3512  function pause() external onlyOwner {... */\n    tag_18:\n      tag_92\n      tag_93\n      jump\t// in\n    tag_92:\n      stop\n        /* \"bridges/BridgeVerifier.sol\":699:724  IWormhole public wormhole */\n    tag_19:\n      tag_94\n      tag_95\n      jump\t// in\n    tag_94:\n      mload(0x40)\n      tag_96\n      swap2\n      swap1\n      tag_97\n      jump\t// in\n    tag_96:\n      mload(0x40)\n      dup1\n      swap2\n      sub\n      swap1\n      return\n        /* \"bridges/BridgeVerifier.sol\":447:500  uint32 public constant GUARDIAN_SET_EXPIRY = 24 hours */\n    tag_20:\n      tag_98\n      tag_99\n      jump\t// in\n    tag_98:\n      mload(0x40)\n      tag_100\n      swap2\n      swap1\n      tag_56\n      jump\t// in\n    tag_100:\n      mload(0x40)\n      dup1\n      swap2\n      sub\n      swap1\n      return\n        /* \"@openzeppelin/contracts/access/Ownable.sol\":1638:1723  function owner() public view virtual returns (address) {... */\n    tag_21:\n      tag_101\n      tag_102\n      jump\t// in\n    tag_101:\n      mload(0x40)\n      tag_103\n      swap2\n      swap1\n      tag_104\n      jump\t// in\n    tag_103:\n      mload(0x40)\n      dup1\n      swap2\n      sub\n      swap1\n      return\n        /* \"bridges/BridgeVerifier.sol\":506:549  uint16 public constant CURRENT_CHAIN_ID = 1 */\n    tag_22:\n      tag_105\n      tag_106\n      jump\t// in\n    tag_105:\n      mload(0x40)\n      tag_107\n      swap2\n      swap1\n      tag_108\n      jump\t// in\n    tag_107:\n      mload(0x40)\n      dup1\n      swap2\n      sub\n      swap1\n      return\n        /* \"bridges/BridgeVerifier.sol\":3038:3445  function updateVerifyingKey(... */\n    tag_23:\n      tag_109\n      0x04\n      dup1\n      calldatasize\n      sub\n      dup2\n      add\n      swap1\n      tag_110\n      swap2\n      swap1\n      tag_111\n      jump\t// in\n    tag_110:\n      tag_112\n      jump\t// in\n    tag_109:\n      stop\n        /* \"bridges/BridgeVerifier.sol\":623:669  uint256 public constant MSG_TIMEOUT = 24 hours */\n    tag_24:\n      tag_113\n      tag_114\n      jump\t// in\n    tag_113:\n      mload(0x40)\n      tag_115\n      swap2\n      swap1\n      tag_87\n      jump\t// in\n    tag_115:\n      mload(0x40)\n      dup1\n      swap2\n      sub\n      swap1\n      return\n        /* \"@openzeppelin/contracts/access/Ownable.sol\":2543:2758  function transferOwnership(address newOwner) public virtual onlyOwner {... */\n    tag_25:\n      tag_116\n      0x04\n      dup1\n      calldatasize\n      sub\n      dup2\n      add\n      swap1\n      tag_117\n      swap2\n      swap1\n      tag_118\n      jump\t// in\n    tag_117:\n      tag_119\n      jump\t// in\n    tag_116:\n      stop\n        /* \"bridges/BridgeVerifier.sol\":2900:3032  function getGuardians() external view override returns (address[] memory) {... */\n    tag_30:\n        /* \"bridges/BridgeVerifier.sol\":2956:2972  address[] memory */\n      0x60\n        /* \"bridges/BridgeVerifier.sol\":2900:3032  function getGuardians() external view override returns (address[] memory) {... */\n      swap1\n      jump\t// out\n        /* \"bridges/BridgeVerifier.sol\":1946:2138  function verifyMessage(... */\n    tag_36:\n        /* \"@openzeppelin/contracts/utils/ReentrancyGuard.sol\":2500:2521  _nonReentrantBefore() */\n      tag_122\n        /* \"@openzeppelin/contracts/utils/ReentrancyGuard.sol\":2500:2519  _nonReentrantBefore */\n      tag_123\n        /* \"@openzeppelin/contracts/utils/ReentrancyGuard.sol\":2500:2521  _nonReentrantBefore() */\n      jump\t// in\n    tag_122:\n        /* \"@openzeppelin/contracts/utils/Pausable.sol\":1474:1493  _requireNotPaused() */\n      tag_125\n        /* \"@openzeppelin/contracts/utils/Pausable.sol\":1474:1491  _requireNotPaused */\n      tag_126\n        /* \"@openzeppelin/contracts/utils/Pausable.sol\":1474:1493  _requireNotPaused() */\n      jump\t// in\n    tag_125:\n        /* \"@openzeppelin/contracts/utils/ReentrancyGuard.sol\":2542:2562  _nonReentrantAfter() */\n      tag_128\n        /* \"@openzeppelin/contracts/utils/ReentrancyGuard.sol\":2542:2560  _nonReentrantAfter */\n      tag_129\n        /* \"@openzeppelin/contracts/utils/ReentrancyGuard.sol\":2542:2562  _nonReentrantAfter() */\n      jump\t// in\n    tag_128:\n        /* \"bridges/BridgeVerifier.sol\":1946:2138  function verifyMessage(... */\n      pop\n      pop\n      jump\t// out\n        /* \"bridges/BridgeVerifier.sol\":2144:2431  function decodePayload(... */\n    tag_40:\n        /* \"bridges/BridgeVerifier.sol\":2242:2261  bytes32 messageHash */\n      0x00\n        /* \"bridges/BridgeVerifier.sol\":2271:2288  bytes32 nullifier */\n      dup1\n        /* \"bridges/BridgeVerifier.sol\":2298:2312  address sender */\n      0x00\n        /* \"bridges/BridgeVerifier.sol\":2322:2339  address recipient */\n      dup1\n        /* \"bridges/BridgeVerifier.sol\":2349:2366  bytes memory data */\n      0x60\n        /* \"bridges/BridgeVerifier.sol\":2144:2431  function decodePayload(... */\n      swap2\n      swap4\n      swap6\n      swap1\n      swap3\n      swap5\n      pop\n      jump\t// out\n        /* \"bridges/BridgeVerifier.sol\":730:755  IVerifier public verifier */\n    tag_44:\n      0x03\n      0x00\n      swap1\n      sload\n      swap1\n      0x0100\n      exp\n      swap1\n      div\n      0xffffffffffffffffffffffffffffffffffffffff\n      and\n      dup2\n      jump\t// out\n        /* \"bridges/BridgeVerifier.sol\":766:819  mapping(bytes32 => CrossChainMessage) public messages */\n    tag_50:\n      mstore(0x20, 0x04)\n      dup1\n      0x00\n      mstore\n      keccak256(0x00, 0x40)\n      0x00\n      swap2\n      pop\n      swap1\n      pop\n      dup1\n      0x00\n      add\n      sload\n      swap1\n      dup1\n      0x01\n      add\n      0x00\n      swap1\n      sload\n      swap1\n      0x0100\n      exp\n      swap1\n      div\n      0xffff\n      and\n      swap1\n      dup1\n      0x01\n      add\n      0x02\n      swap1\n      sload\n      swap1\n      0x0100\n      exp\n      swap1\n      div\n      0xffff\n      and\n      swap1\n      dup1\n      0x02\n      add\n      sload\n      swap1\n      dup1\n      0x03\n      add\n      sload\n      swap1\n      dup1\n      0x04\n      add\n      0x00\n      swap1\n      sload\n      swap1\n      0x0100\n      exp\n      swap1\n      div\n      0xffffffffffffffffffffffffffffffffffffffff\n      and\n      swap1\n      dup1\n      0x05\n      add\n      0x00\n      swap1\n      sload\n      swap1\n      0x0100\n      exp\n      swap1\n      div\n      0xffffffffffffffffffffffffffffffffffffffff\n      and\n      swap1\n      dup1\n      0x05\n      add\n      0x14\n      swap1\n      sload\n      swap1\n      0x0100\n      exp\n      swap1\n      div\n      0xff\n      and\n      swap1\n      dup1\n      0x06\n      add\n      sload\n      swap1\n      dup1\n      0x07\n      add\n      sload\n      swap1\n      pop\n      dup11\n      jump\t// out\n        /* \"bridges/BridgeVerifier.sol\":995:1032  uint32 public currentGuardianSetIndex */\n    tag_54:\n      0x08\n      0x00\n      swap1\n      sload\n      swap1\n      0x0100\n      exp\n      swap1\n      div\n      0xffffffff\n      and\n      dup2\n      jump\t// out\n        /* \"bridges/BridgeVerifier.sol\":876:926  mapping(uint32 => GuardianSet) public guardianSets */\n    tag_60:\n      mstore(0x20, 0x06)\n      dup1\n      0x00\n      mstore\n      keccak256(0x00, 0x40)\n      0x00\n      swap2\n      pop\n      swap1\n      pop\n      dup1\n      0x01\n      add\n      0x00\n      swap1\n      sload\n      swap1\n      0x0100\n      exp\n      swap1\n      div\n      0xffffffff\n      and\n      swap1\n      dup1\n      0x01\n      add\n      0x04\n      swap1\n      sload\n      swap1\n      0x0100\n      exp\n      swap1\n      div\n      0xff\n      and\n      swap1\n      pop\n      dup3\n      jump\t// out\n        /* \"bridges/BridgeVerifier.sol\":2738:2894  function isMessageTimedOut(... */\n    tag_65:\n        /* \"bridges/BridgeVerifier.sol\":2830:2834  bool */\n      0x00\n        /* \"bridges/BridgeVerifier.sol\":2738:2894  function isMessageTimedOut(... */\n      swap2\n      swap1\n      pop\n      jump\t// out\n        /* \"bridges/BridgeVerifier.sol\":3518:3583  function unpause() external onlyOwner {... */\n    tag_69:\n        /* \"@openzeppelin/contracts/access/Ownable.sol\":1531:1544  _checkOwner() */\n      tag_133\n        /* \"@openzeppelin/contracts/access/Ownable.sol\":1531:1542  _checkOwner */\n      tag_134\n        /* \"@openzeppelin/contracts/access/Ownable.sol\":1531:1544  _checkOwner() */\n      jump\t// in\n    tag_133:\n        /* \"bridges/BridgeVerifier.sol\":3566:3576  _unpause() */\n      tag_136\n        /* \"bridges/BridgeVerifier.sol\":3566:3574  _unpause */\n      tag_137\n        /* \"bridges/BridgeVerifier.sol\":3566:3576  _unpause() */\n      jump\t// in\n    tag_136:\n        /* \"bridges/BridgeVerifier.sol\":3518:3583  function unpause() external onlyOwner {... */\n      jump\t// out\n        /* \"bridges/BridgeVerifier.sol\":574:617  uint8 public constant CONSISTENCY_LEVEL = 1 */\n    tag_71:\n        /* \"bridges/BridgeVerifier.sol\":616:617  1 */\n      0x01\n        /* \"bridges/BridgeVerifier.sol\":574:617  uint8 public constant CONSISTENCY_LEVEL = 1 */\n      dup2\n      jump\t// out\n        /* \"@openzeppelin/contracts/utils/Pausable.sol\":1850:1934  function paused() public view virtual returns (bool) {... */\n    tag_75:\n        /* \"@openzeppelin/contracts/utils/Pausable.sol\":1897:1901  bool */\n      0x00\n        /* \"@openzeppelin/contracts/utils/Pausable.sol\":1920:1927  _paused */\n      0x02\n      0x00\n      swap1\n      sload\n      swap1\n      0x0100\n      exp\n      swap1\n      div\n      0xff\n      and\n        /* \"@openzeppelin/contracts/utils/Pausable.sol\":1913:1927  return _paused */\n      swap1\n      pop\n        /* \"@openzeppelin/contracts/utils/Pausable.sol\":1850:1934  function paused() public view virtual returns (bool) {... */\n      swap1\n      jump\t// out\n        /* \"bridges/BridgeVerifier.sol\":2437:2586  function updateGuardianSet(... */\n    tag_80:\n        /* \"@openzeppelin/contracts/access/Ownable.sol\":1531:1544  _checkOwner() */\n      tag_140\n        /* \"@openzeppelin/contracts/access/Ownable.sol\":1531:1542  _checkOwner */\n      tag_134\n        /* \"@openzeppelin/contracts/access/Ownable.sol\":1531:1544  _checkOwner() */\n      jump\t// in\n    tag_140:\n        /* \"bridges/BridgeVerifier.sol\":2547:2579  _updateGuardianSet(newGuardians) */\n      tag_142\n        /* \"bridges/BridgeVerifier.sol\":2566:2578  newGuardians */\n      dup2\n        /* \"bridges/BridgeVerifier.sol\":2547:2565  _updateGuardianSet */\n      tag_143\n        /* \"bridges/BridgeVerifier.sol\":2547:2579  _updateGuardianSet(newGuardians) */\n      jump\t// in\n    tag_142:\n        /* \"bridges/BridgeVerifier.sol\":2437:2586  function updateGuardianSet(... */\n      pop\n      jump\t// out\n        /* \"@openzeppelin/contracts/access/Ownable.sol\":2293:2394  function renounceOwnership() public virtual onlyOwner {... */\n    tag_82:\n        /* \"@openzeppelin/contracts/access/Ownable.sol\":1531:1544  _checkOwner() */\n      tag_145\n        /* \"@openzeppelin/contracts/access/Ownable.sol\":1531:1542  _checkOwner */\n      tag_134\n        /* \"@openzeppelin/contracts/access/Ownable.sol\":1531:1544  _checkOwner() */\n      jump\t// in\n    tag_145:\n        /* \"@openzeppelin/contracts/access/Ownable.sol\":2357:2387  _transferOwnership(address(0)) */\n      tag_147\n        /* \"@openzeppelin/contracts/access/Ownable.sol\":2384:2385  0 */\n      0x00\n        /* \"@openzeppelin/contracts/access/Ownable.sol\":2357:2375  _transferOwnership */\n      tag_148\n        /* \"@openzeppelin/contracts/access/Ownable.sol\":2357:2387  _transferOwnership(address(0)) */\n      jump\t// in\n    tag_147:\n        /* \"@openzeppelin/contracts/access/Ownable.sol\":2293:2394  function renounceOwnership() public virtual onlyOwner {... */\n      jump\t// out\n        /* \"bridges/BridgeVerifier.sol\":932:984  mapping(bytes32 => uint256) public messageTimestamps */\n    tag_85:\n      mstore(0x20, 0x07)\n      dup1\n      0x00\n      mstore\n      keccak256(0x00, 0x40)\n      0x00\n      swap2\n      pop\n      swap1\n      pop\n      sload\n      dup2\n      jump\t// out\n        /* \"bridges/BridgeVerifier.sol\":825:870  mapping(bytes32 => bool) public nullifierUsed */\n    tag_90:\n      mstore(0x20, 0x05)\n      dup1\n      0x00\n      mstore\n      keccak256(0x00, 0x40)\n      0x00\n      swap2\n      pop\n      sload\n      swap1\n      0x0100\n      exp\n      swap1\n      div\n      0xff\n      and\n      dup2\n      jump\t// out\n        /* \"bridges/BridgeVerifier.sol\":3451:3512  function pause() external onlyOwner {... */\n    tag_93:\n        /* \"@openzeppelin/contracts/access/Ownable.sol\":1531:1544  _checkOwner() */\n      tag_150\n        /* \"@openzeppelin/contracts/access/Ownable.sol\":1531:1542  _checkOwner */\n      tag_134\n        /* \"@openzeppelin/contracts/access/Ownable.sol\":1531:1544  _checkOwner() */\n      jump\t// in\n    tag_150:\n        /* \"bridges/BridgeVerifier.sol\":3497:3505  _pause() */\n      tag_152\n        /* \"bridges/BridgeVerifier.sol\":3497:3503  _pause */\n      tag_153\n        /* \"bridges/BridgeVerifier.sol\":3497:3505  _pause() */\n      jump\t// in\n    tag_152:\n        /* \"bridges/BridgeVerifier.sol\":3451:3512  function pause() external onlyOwner {... */\n      jump\t// out\n        /* \"bridges/BridgeVerifier.sol\":699:724  IWormhole public wormhole */\n    tag_95:\n      0x02\n      0x01\n      swap1\n      sload\n      swap1\n      0x0100\n      exp\n      swap1\n      div\n      0xffffffffffffffffffffffffffffffffffffffff\n      and\n      dup2\n      jump\t// out\n        /* \"bridges/BridgeVerifier.sol\":447:500  uint32 public constant GUARDIAN_SET_EXPIRY = 24 hours */\n    tag_99:\n        /* \"bridges/BridgeVerifier.sol\":492:500  24 hours */\n      0x015180\n        /* \"bridges/BridgeVerifier.sol\":447:500  uint32 public constant GUARDIAN_SET_EXPIRY = 24 hours */\n      dup2\n      jump\t// out\n        /* \"@openzeppelin/contracts/access/Ownable.sol\":1638:1723  function owner() public view virtual returns (address) {... */\n    tag_102:\n        /* \"@openzeppelin/contracts/access/Ownable.sol\":1684:1691  address */\n      0x00\n        /* \"@openzeppelin/contracts/access/Ownable.sol\":1710:1716  _owner */\n      dup1\n      0x00\n      swap1\n      sload\n      swap1\n      0x0100\n      exp\n      swap1\n      div\n      0xffffffffffffffffffffffffffffffffffffffff\n      and\n        /* \"@openzeppelin/contracts/access/Ownable.sol\":1703:1716  return _owner */\n      swap1\n      pop\n        /* \"@openzeppelin/contracts/access/Ownable.sol\":1638:1723  function owner() public view virtual returns (address) {... */\n      swap1\n      jump\t// out\n        /* \"bridges/BridgeVerifier.sol\":506:549  uint16 public constant CURRENT_CHAIN_ID = 1 */\n    tag_106:\n        /* \"bridges/BridgeVerifier.sol\":548:549  1 */\n      0x01\n        /* \"bridges/BridgeVerifier.sol\":506:549  uint16 public constant CURRENT_CHAIN_ID = 1 */\n      dup2\n      jump\t// out\n        /* \"bridges/BridgeVerifier.sol\":3038:3445  function updateVerifyingKey(... */\n    tag_112:\n        /* \"@openzeppelin/contracts/access/Ownable.sol\":1531:1544  _checkOwner() */\n      tag_156\n        /* \"@openzeppelin/contracts/access/Ownable.sol\":1531:1542  _checkOwner */\n      tag_134\n        /* \"@openzeppelin/contracts/access/Ownable.sol\":1531:1544  _checkOwner() */\n      jump\t// in\n    tag_156:\n        /* \"bridges/BridgeVerifier.sol\":3287:3438  VerifyingKey({... */\n      mload(0x40)\n      dup1\n      0xa0\n      add\n      0x40\n      mstore\n      dup1\n        /* \"bridges/BridgeVerifier.sol\":3321:3327  _alpha */\n      dup7\n        /* \"bridges/BridgeVerifier.sol\":3287:3438  VerifyingKey({... */\n      dup2\n      mstore\n      0x20\n      add\n        /* \"bridges/BridgeVerifier.sol\":3347:3352  _beta */\n      dup6\n        /* \"bridges/BridgeVerifier.sol\":3287:3438  VerifyingKey({... */\n      dup2\n      mstore\n      0x20\n      add\n        /* \"bridges/BridgeVerifier.sol\":3373:3379  _gamma */\n      dup5\n        /* \"bridges/BridgeVerifier.sol\":3287:3438  VerifyingKey({... */\n      dup2\n      mstore\n      0x20\n      add\n        /* \"bridges/BridgeVerifier.sol\":3400:3406  _delta */\n      dup4\n        /* \"bridges/BridgeVerifier.sol\":3287:3438  VerifyingKey({... */\n      dup2\n      mstore\n      0x20\n      add\n        /* \"bridges/BridgeVerifier.sol\":3424:3427  _ic */\n      dup3\n        /* \"bridges/BridgeVerifier.sol\":3287:3438  VerifyingKey({... */\n      dup2\n      mstore\n      pop\n        /* \"bridges/BridgeVerifier.sol\":3272:3284  verifyingKey */\n      0x09\n        /* \"bridges/BridgeVerifier.sol\":3272:3438  verifyingKey = VerifyingKey({... */\n      0x00\n      dup3\n      add\n      mload\n      dup2\n      0x00\n      add\n      swap1\n      0x02\n      tag_158\n      swap3\n      swap2\n      swap1\n      tag_159\n      jump\t// in\n    tag_158:\n      pop\n      0x20\n      dup3\n      add\n      mload\n      dup2\n      0x02\n      add\n      swap1\n      0x02\n      tag_160\n      swap3\n      swap2\n      swap1\n      tag_161\n      jump\t// in\n    tag_160:\n      pop\n      0x40\n      dup3\n      add\n      mload\n      dup2\n      0x06\n      add\n      swap1\n      0x02\n      tag_162\n      swap3\n      swap2\n      swap1\n      tag_159\n      jump\t// in\n    tag_162:\n      pop\n      0x60\n      dup3\n      add\n      mload\n      dup2\n      0x08\n      add\n      swap1\n      0x02\n      tag_163\n      swap3\n      swap2\n      swap1\n      tag_159\n      jump\t// in\n    tag_163:\n      pop\n      0x80\n      dup3\n      add\n      mload\n      dup2\n      0x0a\n      add\n      swap1\n      dup1\n      mload\n      swap1\n      0x20\n      add\n      swap1\n      tag_164\n      swap3\n      swap2\n      swap1\n      tag_165\n      jump\t// in\n    tag_164:\n      pop\n      swap1\n      pop\n      pop\n        /* \"bridges/BridgeVerifier.sol\":3038:3445  function updateVerifyingKey(... */\n      pop\n      pop\n      pop\n      pop\n      pop\n      jump\t// out\n        /* \"bridges/BridgeVerifier.sol\":623:669  uint256 public constant MSG_TIMEOUT = 24 hours */\n    tag_114:\n        /* \"bridges/BridgeVerifier.sol\":661:669  24 hours */\n      0x015180\n        /* \"bridges/BridgeVerifier.sol\":623:669  uint256 public constant MSG_TIMEOUT = 24 hours */\n      dup2\n      jump\t// out\n        /* \"@openzeppelin/contracts/access/Ownable.sol\":2543:2758  function transferOwnership(address newOwner) public virtual onlyOwner {... */\n    tag_119:\n        /* \"@openzeppelin/contracts/access/Ownable.sol\":1531:1544  _checkOwner() */\n      tag_167\n        /* \"@openzeppelin/contracts/access/Ownable.sol\":1531:1542  _checkOwner */\n      tag_134\n        /* \"@openzeppelin/contracts/access/Ownable.sol\":1531:1544  _checkOwner() */\n      jump\t// in\n    tag_167:\n        /* \"@openzeppelin/contracts/access/Ownable.sol\":2647:2648  0 */\n      0x00\n        /* \"@openzeppelin/contracts/access/Ownable.sol\":2627:2649  newOwner == address(0) */\n      0xffffffffffffffffffffffffffffffffffffffff\n      and\n        /* \"@openzeppelin/contracts/access/Ownable.sol\":2627:2635  newOwner */\n      dup2\n        /* \"@openzeppelin/contracts/access/Ownable.sol\":2627:2649  newOwner == address(0) */\n      0xffffffffffffffffffffffffffffffffffffffff\n      and\n      sub\n        /* \"@openzeppelin/contracts/access/Ownable.sol\":2623:2714  if (newOwner == address(0)) {... */\n      tag_169\n      jumpi\n        /* \"@openzeppelin/contracts/access/Ownable.sol\":2700:2701  0 */\n      0x00\n        /* \"@openzeppelin/contracts/access/Ownable.sol\":2672:2703  OwnableInvalidOwner(address(0)) */\n      mload(0x40)\n      0x1e4fbdf700000000000000000000000000000000000000000000000000000000\n      dup2\n      mstore\n      0x04\n      add\n      tag_170\n      swap2\n      swap1\n      tag_104\n      jump\t// in\n    tag_170:\n      mload(0x40)\n      dup1\n      swap2\n      sub\n      swap1\n      revert\n        /* \"@openzeppelin/contracts/access/Ownable.sol\":2623:2714  if (newOwner == address(0)) {... */\n    tag_169:\n        /* \"@openzeppelin/contracts/access/Ownable.sol\":2723:2751  _transferOwnership(newOwner) */\n      tag_171\n        /* \"@openzeppelin/contracts/access/Ownable.sol\":2742:2750  newOwner */\n      dup2\n        /* \"@openzeppelin/contracts/access/Ownable.sol\":2723:2741  _transferOwnership */\n      tag_148\n        /* \"@openzeppelin/contracts/access/Ownable.sol\":2723:2751  _transferOwnership(newOwner) */\n      jump\t// in\n    tag_171:\n        /* \"@openzeppelin/contracts/access/Ownable.sol\":2543:2758  function transferOwnership(address newOwner) public virtual onlyOwner {... */\n      pop\n      jump\t// out\n        /* \"@openzeppelin/contracts/utils/ReentrancyGuard.sol\":2575:2882  function _nonReentrantBefore() private {... */\n    tag_123:\n        /* \"@openzeppelin/contracts/utils/ReentrancyGuard.sol\":1899:1900  2 */\n      0x02\n        /* \"@openzeppelin/contracts/utils/ReentrancyGuard.sol\":2702:2709  _status */\n      sload(0x01)\n        /* \"@openzeppelin/contracts/utils/ReentrancyGuard.sol\":2702:2720  _status == ENTERED */\n      sub\n        /* \"@openzeppelin/contracts/utils/ReentrancyGuard.sol\":2698:2784  if (_status == ENTERED) {... */\n      tag_173\n      jumpi\n        /* \"@openzeppelin/contracts/utils/ReentrancyGuard.sol\":2743:2773  ReentrancyGuardReentrantCall() */\n      mload(0x40)\n      0x3ee5aeb500000000000000000000000000000000000000000000000000000000\n      dup2\n      mstore\n      0x04\n      add\n      mload(0x40)\n      dup1\n      swap2\n      sub\n      swap1\n      revert\n        /* \"@openzeppelin/contracts/utils/ReentrancyGuard.sol\":2698:2784  if (_status == ENTERED) {... */\n    tag_173:\n        /* \"@openzeppelin/contracts/utils/ReentrancyGuard.sol\":1899:1900  2 */\n      0x02\n        /* \"@openzeppelin/contracts/utils/ReentrancyGuard.sol\":2858:2865  _status */\n      0x01\n        /* \"@openzeppelin/contracts/utils/ReentrancyGuard.sol\":2858:2875  _status = ENTERED */\n      dup2\n      swap1\n      sstore\n      pop\n        /* \"@openzeppelin/contracts/utils/ReentrancyGuard.sol\":2575:2882  function _nonReentrantBefore() private {... */\n      jump\t// out\n        /* \"@openzeppelin/contracts/utils/Pausable.sol\":2002:2130  function _requireNotPaused() internal view virtual {... */\n    tag_126:\n        /* \"@openzeppelin/contracts/utils/Pausable.sol\":2067:2075  paused() */\n      tag_175\n        /* \"@openzeppelin/contracts/utils/Pausable.sol\":2067:2073  paused */\n      tag_75\n        /* \"@openzeppelin/contracts/utils/Pausable.sol\":2067:2075  paused() */\n      jump\t// in\n    tag_175:\n        /* \"@openzeppelin/contracts/utils/Pausable.sol\":2063:2124  if (paused()) {... */\n      iszero\n      tag_176\n      jumpi\n        /* \"@openzeppelin/contracts/utils/Pausable.sol\":2098:2113  EnforcedPause() */\n      mload(0x40)\n      0xd93c066500000000000000000000000000000000000000000000000000000000\n      dup2\n      mstore\n      0x04\n      add\n      mload(0x40)\n      dup1\n      swap2\n      sub\n      swap1\n      revert\n        /* \"@openzeppelin/contracts/utils/Pausable.sol\":2063:2124  if (paused()) {... */\n    tag_176:\n        /* \"@openzeppelin/contracts/utils/Pausable.sol\":2002:2130  function _requireNotPaused() internal view virtual {... */\n      jump\t// out\n        /* \"@openzeppelin/contracts/utils/ReentrancyGuard.sol\":2888:3096  function _nonReentrantAfter() private {... */\n    tag_129:\n        /* \"@openzeppelin/contracts/utils/ReentrancyGuard.sol\":1857:1858  1 */\n      0x01\n        /* \"@openzeppelin/contracts/utils/ReentrancyGuard.sol\":3068:3075  _status */\n      dup1\n        /* \"@openzeppelin/contracts/utils/ReentrancyGuard.sol\":3068:3089  _status = NOT_ENTERED */\n      dup2\n      swap1\n      sstore\n      pop\n        /* \"@openzeppelin/contracts/utils/ReentrancyGuard.sol\":2888:3096  function _nonReentrantAfter() private {... */\n      jump\t// out\n        /* \"@openzeppelin/contracts/access/Ownable.sol\":1796:1958  function _checkOwner() internal view virtual {... */\n    tag_134:\n        /* \"@openzeppelin/contracts/access/Ownable.sol\":1866:1878  _msgSender() */\n      tag_179\n        /* \"@openzeppelin/contracts/access/Ownable.sol\":1866:1876  _msgSender */\n      tag_180\n        /* \"@openzeppelin/contracts/access/Ownable.sol\":1866:1878  _msgSender() */\n      jump\t// in\n    tag_179:\n        /* \"@openzeppelin/contracts/access/Ownable.sol\":1855:1878  owner() != _msgSender() */\n      0xffffffffffffffffffffffffffffffffffffffff\n      and\n        /* \"@openzeppelin/contracts/access/Ownable.sol\":1855:1862  owner() */\n      tag_181\n        /* \"@openzeppelin/contracts/access/Ownable.sol\":1855:1860  owner */\n      tag_102\n        /* \"@openzeppelin/contracts/access/Ownable.sol\":1855:1862  owner() */\n      jump\t// in\n    tag_181:\n        /* \"@openzeppelin/contracts/access/Ownable.sol\":1855:1878  owner() != _msgSender() */\n      0xffffffffffffffffffffffffffffffffffffffff\n      and\n      eq\n        /* \"@openzeppelin/contracts/access/Ownable.sol\":1851:1952  if (owner() != _msgSender()) {... */\n      tag_182\n      jumpi\n        /* \"@openzeppelin/contracts/access/Ownable.sol\":1928:1940  _msgSender() */\n      tag_183\n        /* \"@openzeppelin/contracts/access/Ownable.sol\":1928:1938  _msgSender */\n      tag_180\n        /* \"@openzeppelin/contracts/access/Ownable.sol\":1928:1940  _msgSender() */\n      jump\t// in\n    tag_183:\n        /* \"@openzeppelin/contracts/access/Ownable.sol\":1901:1941  OwnableUnauthorizedAccount(_msgSender()) */\n      mload(0x40)\n      0x118cdaa700000000000000000000000000000000000000000000000000000000\n      dup2\n      mstore\n      0x04\n      add\n      tag_184\n      swap2\n      swap1\n      tag_104\n      jump\t// in\n    tag_184:\n      mload(0x40)\n      dup1\n      swap2\n      sub\n      swap1\n      revert\n        /* \"@openzeppelin/contracts/access/Ownable.sol\":1851:1952  if (owner() != _msgSender()) {... */\n    tag_182:\n        /* \"@openzeppelin/contracts/access/Ownable.sol\":1796:1958  function _checkOwner() internal view virtual {... */\n      jump\t// out\n        /* \"@openzeppelin/contracts/utils/Pausable.sol\":2710:2827  function _unpause() internal virtual whenPaused {... */\n    tag_137:\n        /* \"@openzeppelin/contracts/utils/Pausable.sol\":1721:1737  _requirePaused() */\n      tag_186\n        /* \"@openzeppelin/contracts/utils/Pausable.sol\":1721:1735  _requirePaused */\n      tag_187\n        /* \"@openzeppelin/contracts/utils/Pausable.sol\":1721:1737  _requirePaused() */\n      jump\t// in\n    tag_186:\n        /* \"@openzeppelin/contracts/utils/Pausable.sol\":2778:2783  false */\n      0x00\n        /* \"@openzeppelin/contracts/utils/Pausable.sol\":2768:2775  _paused */\n      0x02\n      0x00\n        /* \"@openzeppelin/contracts/utils/Pausable.sol\":2768:2783  _paused = false */\n      0x0100\n      exp\n      dup2\n      sload\n      dup2\n      0xff\n      mul\n      not\n      and\n      swap1\n      dup4\n      iszero\n      iszero\n      mul\n      or\n      swap1\n      sstore\n      pop\n        /* \"@openzeppelin/contracts/utils/Pausable.sol\":2798:2820  Unpaused(_msgSender()) */\n      0x5db9ee0a495bf2e6ff9c91a7834c1ba4fdd244a5e8aa4e537bd38aeae4b073aa\n        /* \"@openzeppelin/contracts/utils/Pausable.sol\":2807:2819  _msgSender() */\n      tag_189\n        /* \"@openzeppelin/contracts/utils/Pausable.sol\":2807:2817  _msgSender */\n      tag_180\n        /* \"@openzeppelin/contracts/utils/Pausable.sol\":2807:2819  _msgSender() */\n      jump\t// in\n    tag_189:\n        /* \"@openzeppelin/contracts/utils/Pausable.sol\":2798:2820  Unpaused(_msgSender()) */\n      mload(0x40)\n      tag_190\n      swap2\n      swap1\n      tag_104\n      jump\t// in\n    tag_190:\n      mload(0x40)\n      dup1\n      swap2\n      sub\n      swap1\n      log1\n        /* \"@openzeppelin/contracts/utils/Pausable.sol\":2710:2827  function _unpause() internal virtual whenPaused {... */\n      jump\t// out\n        /* \"bridges/BridgeVerifier.sol\":2592:2732  function _updateGuardianSet(... */\n    tag_143:\n      pop\n      jump\t// out\n        /* \"@openzeppelin/contracts/access/Ownable.sol\":2912:3099  function _transferOwnership(address newOwner) internal virtual {... */\n    tag_148:\n        /* \"@openzeppelin/contracts/access/Ownable.sol\":2985:3001  address oldOwner */\n      0x00\n        /* \"@openzeppelin/contracts/access/Ownable.sol\":3004:3010  _owner */\n      dup1\n      0x00\n      swap1\n      sload\n      swap1\n      0x0100\n      exp\n      swap1\n      div\n      0xffffffffffffffffffffffffffffffffffffffff\n      and\n        /* \"@openzeppelin/contracts/access/Ownable.sol\":2985:3010  address oldOwner = _owner */\n      swap1\n      pop\n        /* \"@openzeppelin/contracts/access/Ownable.sol\":3029:3037  newOwner */\n      dup2\n        /* \"@openzeppelin/contracts/access/Ownable.sol\":3020:3026  _owner */\n      0x00\n      dup1\n        /* \"@openzeppelin/contracts/access/Ownable.sol\":3020:3037  _owner = newOwner */\n      0x0100\n      exp\n      dup2\n      sload\n      dup2\n      0xffffffffffffffffffffffffffffffffffffffff\n      mul\n      not\n      and\n      swap1\n      dup4\n      0xffffffffffffffffffffffffffffffffffffffff\n      and\n      mul\n      or\n      swap1\n      sstore\n      pop\n        /* \"@openzeppelin/contracts/access/Ownable.sol\":3083:3091  newOwner */\n      dup2\n        /* \"@openzeppelin/contracts/access/Ownable.sol\":3052:3092  OwnershipTransferred(oldOwner, newOwner) */\n      0xffffffffffffffffffffffffffffffffffffffff\n      and\n        /* \"@openzeppelin/contracts/access/Ownable.sol\":3073:3081  oldOwner */\n      dup2\n        /* \"@openzeppelin/contracts/access/Ownable.sol\":3052:3092  OwnershipTransferred(oldOwner, newOwner) */\n      0xffffffffffffffffffffffffffffffffffffffff\n      and\n      0x8be0079c531659141344cd1fd0a4f28419497f9722a3daafe3b4186f6b6457e0\n      mload(0x40)\n      mload(0x40)\n      dup1\n      swap2\n      sub\n      swap1\n      log3\n        /* \"@openzeppelin/contracts/access/Ownable.sol\":2975:3099  {... */\n      pop\n        /* \"@openzeppelin/contracts/access/Ownable.sol\":2912:3099  function _transferOwnership(address newOwner) internal virtual {... */\n      pop\n      jump\t// out\n        /* \"@openzeppelin/contracts/utils/Pausable.sol\":2463:2578  function _pause() internal virtual whenNotPaused {... */\n    tag_153:\n        /* \"@openzeppelin/contracts/utils/Pausable.sol\":1474:1493  _requireNotPaused() */\n      tag_194\n        /* \"@openzeppelin/contracts/utils/Pausable.sol\":1474:1491  _requireNotPaused */\n      tag_126\n        /* \"@openzeppelin/contracts/utils/Pausable.sol\":1474:1493  _requireNotPaused() */\n      jump\t// in\n    tag_194:\n        /* \"@openzeppelin/contracts/utils/Pausable.sol\":2532:2536  true */\n      0x01\n        /* \"@openzeppelin/contracts/utils/Pausable.sol\":2522:2529  _paused */\n      0x02\n      0x00\n        /* \"@openzeppelin/contracts/utils/Pausable.sol\":2522:2536  _paused = true */\n      0x0100\n      exp\n      dup2\n      sload\n      dup2\n      0xff\n      mul\n      not\n      and\n      swap1\n      dup4\n      iszero\n      iszero\n      mul\n      or\n      swap1\n      sstore\n      pop\n        /* \"@openzeppelin/contracts/utils/Pausable.sol\":2551:2571  Paused(_msgSender()) */\n      0x62e78cea01bee320cd4e420270b5ea74000d11b0c9f74754ebdbfc544b05a258\n        /* \"@openzeppelin/contracts/utils/Pausable.sol\":2558:2570  _msgSender() */\n      tag_196\n        /* \"@openzeppelin/contracts/utils/Pausable.sol\":2558:2568  _msgSender */\n      tag_180\n        /* \"@openzeppelin/contracts/utils/Pausable.sol\":2558:2570  _msgSender() */\n      jump\t// in\n    tag_196:\n        /* \"@openzeppelin/contracts/utils/Pausable.sol\":2551:2571  Paused(_msgSender()) */\n      mload(0x40)\n      tag_197\n      swap2\n      swap1\n      tag_104\n      jump\t// in\n    tag_197:\n      mload(0x40)\n      dup1\n      swap2\n      sub\n      swap1\n      log1\n        /* \"@openzeppelin/contracts/utils/Pausable.sol\":2463:2578  function _pause() internal virtual whenNotPaused {... */\n      jump\t// out\n        /* \"@openzeppelin/contracts/utils/Context.sol\":656:752  function _msgSender() internal view virtual returns (address) {... */\n    tag_180:\n        /* \"@openzeppelin/contracts/utils/Context.sol\":709:716  address */\n      0x00\n        /* \"@openzeppelin/contracts/utils/Context.sol\":735:745  msg.sender */\n      caller\n        /* \"@openzeppelin/contracts/utils/Context.sol\":728:745  return msg.sender */\n      swap1\n      pop\n        /* \"@openzeppelin/contracts/utils/Context.sol\":656:752  function _msgSender() internal view virtual returns (address) {... */\n      swap1\n      jump\t// out\n        /* \"@openzeppelin/contracts/utils/Pausable.sol\":2202:2328  function _requirePaused() internal view virtual {... */\n    tag_187:\n        /* \"@openzeppelin/contracts/utils/Pausable.sol\":2265:2273  paused() */\n      tag_200\n        /* \"@openzeppelin/contracts/utils/Pausable.sol\":2265:2271  paused */\n      tag_75\n        /* \"@openzeppelin/contracts/utils/Pausable.sol\":2265:2273  paused() */\n      jump\t// in\n    tag_200:\n        /* \"@openzeppelin/contracts/utils/Pausable.sol\":2260:2322  if (!paused()) {... */\n      tag_201\n      jumpi\n        /* \"@openzeppelin/contracts/utils/Pausable.sol\":2296:2311  ExpectedPause() */\n      mload(0x40)\n      0x8dfc202b00000000000000000000000000000000000000000000000000000000\n      dup2\n      mstore\n      0x04\n      add\n      mload(0x40)\n      dup1\n      swap2\n      sub\n      swap1\n      revert\n        /* \"@openzeppelin/contracts/utils/Pausable.sol\":2260:2322  if (!paused()) {... */\n    tag_201:\n        /* \"@openzeppelin/contracts/utils/Pausable.sol\":2202:2328  function _requirePaused() internal view virtual {... */\n      jump\t// out\n    tag_159:\n      dup3\n      0x02\n      dup2\n      add\n      swap3\n      dup3\n      iszero\n      tag_202\n      jumpi\n      swap2\n      0x20\n      mul\n      dup3\n      add\n    tag_203:\n      dup3\n      dup2\n      gt\n      iszero\n      tag_204\n      jumpi\n      dup3\n      mload\n      dup3\n      sstore\n      swap2\n      0x20\n      add\n      swap2\n      swap1\n      0x01\n      add\n      swap1\n      jump(tag_203)\n    tag_204:\n    tag_202:\n      pop\n      swap1\n      pop\n      tag_205\n      swap2\n      swap1\n      tag_206\n      jump\t// in\n    tag_205:\n      pop\n      swap1\n      jump\t// out\n    tag_161:\n      dup3\n      0x02\n      dup1\n      mul\n      dup2\n      add\n      swap3\n      dup3\n      iszero\n      tag_207\n      jumpi\n      swap2\n      0x20\n      mul\n      dup3\n      add\n    tag_208:\n      dup3\n      dup2\n      gt\n      iszero\n      tag_209\n      jumpi\n      dup3\n      mload\n      dup3\n      swap1\n      0x02\n      tag_210\n      swap3\n      swap2\n      swap1\n      tag_159\n      jump\t// in\n    tag_210:\n      pop\n      swap2\n      0x20\n      add\n      swap2\n      swap1\n      0x02\n      add\n      swap1\n      jump(tag_208)\n    tag_209:\n    tag_207:\n      pop\n      swap1\n      pop\n      tag_211\n      swap2\n      swap1\n      tag_212\n      jump\t// in\n    tag_211:\n      pop\n      swap1\n      jump\t// out\n    tag_165:\n      dup3\n      dup1\n      sload\n      dup3\n      dup3\n      sstore\n      swap1\n      0x00\n      mstore\n      keccak256(0x00, 0x20)\n      swap1\n      0x02\n      mul\n      dup2\n      add\n      swap3\n      dup3\n      iszero\n      tag_213\n      jumpi\n      swap2\n      0x20\n      mul\n      dup3\n      add\n    tag_214:\n      dup3\n      dup2\n      gt\n      iszero\n      tag_215\n      jumpi\n      dup3\n      mload\n      dup3\n      swap1\n      0x02\n      tag_216\n      swap3\n      swap2\n      swap1\n      tag_159\n      jump\t// in\n    tag_216:\n      pop\n      swap2\n      0x20\n      add\n      swap2\n      swap1\n      0x02\n      add\n      swap1\n      jump(tag_214)\n    tag_215:\n    tag_213:\n      pop\n      swap1\n      pop\n      tag_217\n      swap2\n      swap1\n      tag_212\n      jump\t// in\n    tag_217:\n      pop\n      swap1\n      jump\t// out\n    tag_206:\n    tag_218:\n      dup1\n      dup3\n      gt\n      iszero\n      tag_219\n      jumpi\n      0x00\n      dup2\n      0x00\n      swap1\n      sstore\n      pop\n      0x01\n      add\n      jump(tag_218)\n    tag_219:\n      pop\n      swap1\n      jump\t// out\n    tag_212:\n    tag_220:\n      dup1\n      dup3\n      gt\n      iszero\n      tag_221\n      jumpi\n      0x00\n      dup2\n      dup2\n      tag_222\n      swap2\n      swap1\n      tag_223\n      jump\t// in\n    tag_222:\n      pop\n      0x02\n      add\n      jump(tag_220)\n    tag_221:\n      pop\n      swap1\n      jump\t// out\n    tag_223:\n      pop\n      0x00\n      dup2\n      sstore\n      0x01\n      add\n      0x00\n      swap1\n      sstore\n      jump\t// out\n        /* \"#utility.yul\":7:121   */\n    tag_224:\n        /* \"#utility.yul\":74:80   */\n      0x00\n        /* \"#utility.yul\":108:113   */\n      dup2\n        /* \"#utility.yul\":102:114   */\n      mload\n        /* \"#utility.yul\":92:114   */\n      swap1\n      pop\n        /* \"#utility.yul\":7:121   */\n      swap2\n      swap1\n      pop\n      jump\t// out\n        /* \"#utility.yul\":127:311   */\n    tag_225:\n        /* \"#utility.yul\":226:237   */\n      0x00\n        /* \"#utility.yul\":260:266   */\n      dup3\n        /* \"#utility.yul\":255:258   */\n      dup3\n        /* \"#utility.yul\":248:267   */\n      mstore\n        /* \"#utility.yul\":300:304   */\n      0x20\n        /* \"#utility.yul\":295:298   */\n      dup3\n        /* \"#utility.yul\":291:305   */\n      add\n        /* \"#utility.yul\":276:305   */\n      swap1\n      pop\n        /* \"#utility.yul\":127:311   */\n      swap3\n      swap2\n      pop\n      pop\n      jump\t// out\n        /* \"#utility.yul\":317:449   */\n    tag_226:\n        /* \"#utility.yul\":384:388   */\n      0x00\n        /* \"#utility.yul\":407:410   */\n      dup2\n        /* \"#utility.yul\":399:410   */\n      swap1\n      pop\n        /* \"#utility.yul\":437:441   */\n      0x20\n        /* \"#utility.yul\":432:435   */\n      dup3\n        /* \"#utility.yul\":428:442   */\n      add\n        /* \"#utility.yul\":420:442   */\n      swap1\n      pop\n        /* \"#utility.yul\":317:449   */\n      swap2\n      swap1\n      pop\n      jump\t// out\n        /* \"#utility.yul\":455:581   */\n    tag_227:\n        /* \"#utility.yul\":492:499   */\n      0x00\n        /* \"#utility.yul\":532:574   */\n      0xffffffffffffffffffffffffffffffffffffffff\n        /* \"#utility.yul\":525:530   */\n      dup3\n        /* \"#utility.yul\":521:575   */\n      and\n        /* \"#utility.yul\":510:575   */\n      swap1\n      pop\n        /* \"#utility.yul\":455:581   */\n      swap2\n      swap1\n      pop\n      jump\t// out\n        /* \"#utility.yul\":587:683   */\n    tag_228:\n        /* \"#utility.yul\":624:631   */\n      0x00\n        /* \"#utility.yul\":653:677   */\n      tag_297\n        /* \"#utility.yul\":671:676   */\n      dup3\n        /* \"#utility.yul\":653:677   */\n      tag_227\n      jump\t// in\n    tag_297:\n        /* \"#utility.yul\":642:677   */\n      swap1\n      pop\n        /* \"#utility.yul\":587:683   */\n      swap2\n      swap1\n      pop\n      jump\t// out\n        /* \"#utility.yul\":689:797   */\n    tag_229:\n        /* \"#utility.yul\":766:790   */\n      tag_299\n        /* \"#utility.yul\":784:789   */\n      dup2\n        /* \"#utility.yul\":766:790   */\n      tag_228\n      jump\t// in\n    tag_299:\n        /* \"#utility.yul\":761:764   */\n      dup3\n        /* \"#utility.yul\":754:791   */\n      mstore\n        /* \"#utility.yul\":689:797   */\n      pop\n      pop\n      jump\t// out\n        /* \"#utility.yul\":803:982   */\n    tag_230:\n        /* \"#utility.yul\":872:882   */\n      0x00\n        /* \"#utility.yul\":893:939   */\n      tag_301\n        /* \"#utility.yul\":935:938   */\n      dup4\n        /* \"#utility.yul\":927:933   */\n      dup4\n        /* \"#utility.yul\":893:939   */\n      tag_229\n      jump\t// in\n    tag_301:\n        /* \"#utility.yul\":971:975   */\n      0x20\n        /* \"#utility.yul\":966:969   */\n      dup4\n        /* \"#utility.yul\":962:976   */\n      add\n        /* \"#utility.yul\":948:976   */\n      swap1\n      pop\n        /* \"#utility.yul\":803:982   */\n      swap3\n      swap2\n      pop\n      pop\n      jump\t// out\n        /* \"#utility.yul\":988:1101   */\n    tag_231:\n        /* \"#utility.yul\":1058:1062   */\n      0x00\n        /* \"#utility.yul\":1090:1094   */\n      0x20\n        /* \"#utility.yul\":1085:1088   */\n      dup3\n        /* \"#utility.yul\":1081:1095   */\n      add\n        /* \"#utility.yul\":1073:1095   */\n      swap1\n      pop\n        /* \"#utility.yul\":988:1101   */\n      swap2\n      swap1\n      pop\n      jump\t// out\n        /* \"#utility.yul\":1137:1869   */\n    tag_232:\n        /* \"#utility.yul\":1256:1259   */\n      0x00\n        /* \"#utility.yul\":1285:1339   */\n      tag_304\n        /* \"#utility.yul\":1333:1338   */\n      dup3\n        /* \"#utility.yul\":1285:1339   */\n      tag_224\n      jump\t// in\n    tag_304:\n        /* \"#utility.yul\":1355:1441   */\n      tag_305\n        /* \"#utility.yul\":1434:1440   */\n      dup2\n        /* \"#utility.yul\":1429:1432   */\n      dup6\n        /* \"#utility.yul\":1355:1441   */\n      tag_225\n      jump\t// in\n    tag_305:\n        /* \"#utility.yul\":1348:1441   */\n      swap4\n      pop\n        /* \"#utility.yul\":1465:1521   */\n      tag_306\n        /* \"#utility.yul\":1515:1520   */\n      dup4\n        /* \"#utility.yul\":1465:1521   */\n      tag_226\n      jump\t// in\n    tag_306:\n        /* \"#utility.yul\":1544:1551   */\n      dup1\n        /* \"#utility.yul\":1575:1576   */\n      0x00\n        /* \"#utility.yul\":1560:1844   */\n    tag_307:\n        /* \"#utility.yul\":1585:1591   */\n      dup4\n        /* \"#utility.yul\":1582:1583   */\n      dup2\n        /* \"#utility.yul\":1579:1592   */\n      lt\n        /* \"#utility.yul\":1560:1844   */\n      iszero\n      tag_309\n      jumpi\n        /* \"#utility.yul\":1661:1667   */\n      dup2\n        /* \"#utility.yul\":1655:1668   */\n      mload\n        /* \"#utility.yul\":1688:1751   */\n      tag_310\n        /* \"#utility.yul\":1747:1750   */\n      dup9\n        /* \"#utility.yul\":1732:1745   */\n      dup3\n        /* \"#utility.yul\":1688:1751   */\n      tag_230\n      jump\t// in\n    tag_310:\n        /* \"#utility.yul\":1681:1751   */\n      swap8\n      pop\n        /* \"#utility.yul\":1774:1834   */\n      tag_311\n        /* \"#utility.yul\":1827:1833   */\n      dup4\n        /* \"#utility.yul\":1774:1834   */\n      tag_231\n      jump\t// in\n    tag_311:\n        /* \"#utility.yul\":1764:1834   */\n      swap3\n      pop\n        /* \"#utility.yul\":1620:1844   */\n      pop\n        /* \"#utility.yul\":1607:1608   */\n      0x01\n        /* \"#utility.yul\":1604:1605   */\n      dup2\n        /* \"#utility.yul\":1600:1609   */\n      add\n        /* \"#utility.yul\":1595:1609   */\n      swap1\n      pop\n        /* \"#utility.yul\":1560:1844   */\n      jump(tag_307)\n    tag_309:\n        /* \"#utility.yul\":1564:1578   */\n      pop\n        /* \"#utility.yul\":1860:1863   */\n      dup6\n        /* \"#utility.yul\":1853:1863   */\n      swap4\n      pop\n        /* \"#utility.yul\":1261:1869   */\n      pop\n      pop\n      pop\n        /* \"#utility.yul\":1137:1869   */\n      swap3\n      swap2\n      pop\n      pop\n      jump\t// out\n        /* \"#utility.yul\":1875:2248   */\n    tag_32:\n        /* \"#utility.yul\":2018:2022   */\n      0x00\n        /* \"#utility.yul\":2056:2058   */\n      0x20\n        /* \"#utility.yul\":2045:2054   */\n      dup3\n        /* \"#utility.yul\":2041:2059   */\n      add\n        /* \"#utility.yul\":2033:2059   */\n      swap1\n      pop\n        /* \"#utility.yul\":2105:2114   */\n      dup2\n        /* \"#utility.yul\":2099:2103   */\n      dup2\n        /* \"#utility.yul\":2095:2115   */\n      sub\n        /* \"#utility.yul\":2091:2092   */\n      0x00\n        /* \"#utility.yul\":2080:2089   */\n      dup4\n        /* \"#utility.yul\":2076:2093   */\n      add\n        /* \"#utility.yul\":2069:2116   */\n      mstore\n        /* \"#utility.yul\":2133:2241   */\n      tag_313\n        /* \"#utility.yul\":2236:2240   */\n      dup2\n        /* \"#utility.yul\":2227:2233   */\n      dup5\n        /* \"#utility.yul\":2133:2241   */\n      tag_232\n      jump\t// in\n    tag_313:\n        /* \"#utility.yul\":2125:2241   */\n      swap1\n      pop\n        /* \"#utility.yul\":1875:2248   */\n      swap3\n      swap2\n      pop\n      pop\n      jump\t// out\n        /* \"#utility.yul\":2254:2329   */\n    tag_233:\n        /* \"#utility.yul\":2287:2293   */\n      0x00\n        /* \"#utility.yul\":2320:2322   */\n      0x40\n        /* \"#utility.yul\":2314:2323   */\n      mload\n        /* \"#utility.yul\":2304:2323   */\n      swap1\n      pop\n        /* \"#utility.yul\":2254:2329   */\n      swap1\n      jump\t// out\n        /* \"#utility.yul\":2335:2452   */\n    tag_234:\n        /* \"#utility.yul\":2444:2445   */\n      0x00\n        /* \"#utility.yul\":2441:2442   */\n      dup1\n        /* \"#utility.yul\":2434:2446   */\n      revert\n        /* \"#utility.yul\":2458:2575   */\n    tag_235:\n        /* \"#utility.yul\":2567:2568   */\n      0x00\n        /* \"#utility.yul\":2564:2565   */\n      dup1\n        /* \"#utility.yul\":2557:2569   */\n      revert\n        /* \"#utility.yul\":2581:2698   */\n    tag_236:\n        /* \"#utility.yul\":2690:2691   */\n      0x00\n        /* \"#utility.yul\":2687:2688   */\n      dup1\n        /* \"#utility.yul\":2680:2692   */\n      revert\n        /* \"#utility.yul\":2704:2821   */\n    tag_237:\n        /* \"#utility.yul\":2813:2814   */\n      0x00\n        /* \"#utility.yul\":2810:2811   */\n      dup1\n        /* \"#utility.yul\":2803:2815   */\n      revert\n        /* \"#utility.yul\":2827:2929   */\n    tag_238:\n        /* \"#utility.yul\":2868:2874   */\n      0x00\n        /* \"#utility.yul\":2919:2921   */\n      0x1f\n        /* \"#utility.yul\":2915:2922   */\n      not\n        /* \"#utility.yul\":2910:2912   */\n      0x1f\n        /* \"#utility.yul\":2903:2908   */\n      dup4\n        /* \"#utility.yul\":2899:2913   */\n      add\n        /* \"#utility.yul\":2895:2923   */\n      and\n        /* \"#utility.yul\":2885:2923   */\n      swap1\n      pop\n        /* \"#utility.yul\":2827:2929   */\n      swap2\n      swap1\n      pop\n      jump\t// out\n        /* \"#utility.yul\":2935:3115   */\n    tag_239:\n        /* \"#utility.yul\":2983:3060   */\n      0x4e487b7100000000000000000000000000000000000000000000000000000000\n        /* \"#utility.yul\":2980:2981   */\n      0x00\n        /* \"#utility.yul\":2973:3061   */\n      mstore\n        /* \"#utility.yul\":3080:3084   */\n      0x41\n        /* \"#utility.yul\":3077:3078   */\n      0x04\n        /* \"#utility.yul\":3070:3085   */\n      mstore\n        /* \"#utility.yul\":3104:3108   */\n      0x24\n        /* \"#utility.yul\":3101:3102   */\n      0x00\n        /* \"#utility.yul\":3094:3109   */\n      revert\n        /* \"#utility.yul\":3121:3402   */\n    tag_240:\n        /* \"#utility.yul\":3204:3231   */\n      tag_322\n        /* \"#utility.yul\":3226:3230   */\n      dup3\n        /* \"#utility.yul\":3204:3231   */\n      tag_238\n      jump\t// in\n    tag_322:\n        /* \"#utility.yul\":3196:3202   */\n      dup2\n        /* \"#utility.yul\":3192:3232   */\n      add\n        /* \"#utility.yul\":3334:3340   */\n      dup2\n        /* \"#utility.yul\":3322:3332   */\n      dup2\n        /* \"#utility.yul\":3319:3341   */\n      lt\n        /* \"#utility.yul\":3298:3316   */\n      0xffffffffffffffff\n        /* \"#utility.yul\":3286:3296   */\n      dup3\n        /* \"#utility.yul\":3283:3317   */\n      gt\n        /* \"#utility.yul\":3280:3342   */\n      or\n        /* \"#utility.yul\":3277:3365   */\n      iszero\n      tag_323\n      jumpi\n        /* \"#utility.yul\":3345:3363   */\n      tag_324\n      tag_239\n      jump\t// in\n    tag_324:\n        /* \"#utility.yul\":3277:3365   */\n    tag_323:\n        /* \"#utility.yul\":3385:3395   */\n      dup1\n        /* \"#utility.yul\":3381:3383   */\n      0x40\n        /* \"#utility.yul\":3374:3396   */\n      mstore\n        /* \"#utility.yul\":3164:3402   */\n      pop\n        /* \"#utility.yul\":3121:3402   */\n      pop\n      pop\n      jump\t// out\n        /* \"#utility.yul\":3408:3537   */\n    tag_241:\n        /* \"#utility.yul\":3442:3448   */\n      0x00\n        /* \"#utility.yul\":3469:3489   */\n      tag_326\n      tag_233\n      jump\t// in\n    tag_326:\n        /* \"#utility.yul\":3459:3489   */\n      swap1\n      pop\n        /* \"#utility.yul\":3498:3531   */\n      tag_327\n        /* \"#utility.yul\":3526:3530   */\n      dup3\n        /* \"#utility.yul\":3518:3524   */\n      dup3\n        /* \"#utility.yul\":3498:3531   */\n      tag_240\n      jump\t// in\n    tag_327:\n        /* \"#utility.yul\":3408:3537   */\n      swap2\n      swap1\n      pop\n      jump\t// out\n        /* \"#utility.yul\":3543:3850   */\n    tag_242:\n        /* \"#utility.yul\":3604:3608   */\n      0x00\n        /* \"#utility.yul\":3694:3712   */\n      0xffffffffffffffff\n        /* \"#utility.yul\":3686:3692   */\n      dup3\n        /* \"#utility.yul\":3683:3713   */\n      gt\n        /* \"#utility.yul\":3680:3736   */\n      iszero\n      tag_329\n      jumpi\n        /* \"#utility.yul\":3716:3734   */\n      tag_330\n      tag_239\n      jump\t// in\n    tag_330:\n        /* \"#utility.yul\":3680:3736   */\n    tag_329:\n        /* \"#utility.yul\":3754:3783   */\n      tag_331\n        /* \"#utility.yul\":3776:3782   */\n      dup3\n        /* \"#utility.yul\":3754:3783   */\n      tag_238\n      jump\t// in\n    tag_331:\n        /* \"#utility.yul\":3746:3783   */\n      swap1\n      pop\n        /* \"#utility.yul\":3838:3842   */\n      0x20\n        /* \"#utility.yul\":3832:3836   */\n      dup2\n        /* \"#utility.yul\":3828:3843   */\n      add\n        /* \"#utility.yul\":3820:3843   */\n      swap1\n      pop\n        /* \"#utility.yul\":3543:3850   */\n      swap2\n      swap1\n      pop\n      jump\t// out\n        /* \"#utility.yul\":3856:4004   */\n    tag_243:\n        /* \"#utility.yul\":3954:3960   */\n      dup3\n        /* \"#utility.yul\":3949:3952   */\n      dup2\n        /* \"#utility.yul\":3944:3947   */\n      dup4\n        /* \"#utility.yul\":3931:3961   */\n      calldatacopy\n        /* \"#utility.yul\":3995:3996   */\n      0x00\n        /* \"#utility.yul\":3986:3992   */\n      dup4\n        /* \"#utility.yul\":3981:3984   */\n      dup4\n        /* \"#utility.yul\":3977:3993   */\n      add\n        /* \"#utility.yul\":3970:3997   */\n      mstore\n        /* \"#utility.yul\":3856:4004   */\n      pop\n      pop\n      pop\n      jump\t// out\n        /* \"#utility.yul\":4010:4433   */\n    tag_244:\n        /* \"#utility.yul\":4087:4092   */\n      0x00\n        /* \"#utility.yul\":4112:4177   */\n      tag_334\n        /* \"#utility.yul\":4128:4176   */\n      tag_335\n        /* \"#utility.yul\":4169:4175   */\n      dup5\n        /* \"#utility.yul\":4128:4176   */\n      tag_242\n      jump\t// in\n    tag_335:\n        /* \"#utility.yul\":4112:4177   */\n      tag_241\n      jump\t// in\n    tag_334:\n        /* \"#utility.yul\":4103:4177   */\n      swap1\n      pop\n        /* \"#utility.yul\":4200:4206   */\n      dup3\n        /* \"#utility.yul\":4193:4198   */\n      dup2\n        /* \"#utility.yul\":4186:4207   */\n      mstore\n        /* \"#utility.yul\":4238:4242   */\n      0x20\n        /* \"#utility.yul\":4231:4236   */\n      dup2\n        /* \"#utility.yul\":4227:4243   */\n      add\n        /* \"#utility.yul\":4276:4279   */\n      dup5\n        /* \"#utility.yul\":4267:4273   */\n      dup5\n        /* \"#utility.yul\":4262:4265   */\n      dup5\n        /* \"#utility.yul\":4258:4274   */\n      add\n        /* \"#utility.yul\":4255:4280   */\n      gt\n        /* \"#utility.yul\":4252:4364   */\n      iszero\n      tag_336\n      jumpi\n        /* \"#utility.yul\":4283:4362   */\n      tag_337\n      tag_237\n      jump\t// in\n    tag_337:\n        /* \"#utility.yul\":4252:4364   */\n    tag_336:\n        /* \"#utility.yul\":4373:4427   */\n      tag_338\n        /* \"#utility.yul\":4420:4426   */\n      dup5\n        /* \"#utility.yul\":4415:4418   */\n      dup3\n        /* \"#utility.yul\":4410:4413   */\n      dup6\n        /* \"#utility.yul\":4373:4427   */\n      tag_243\n      jump\t// in\n    tag_338:\n        /* \"#utility.yul\":4093:4433   */\n      pop\n        /* \"#utility.yul\":4010:4433   */\n      swap4\n      swap3\n      pop\n      pop\n      pop\n      jump\t// out\n        /* \"#utility.yul\":4452:4790   */\n    tag_245:\n        /* \"#utility.yul\":4507:4512   */\n      0x00\n        /* \"#utility.yul\":4556:4559   */\n      dup3\n        /* \"#utility.yul\":4549:4553   */\n      0x1f\n        /* \"#utility.yul\":4541:4547   */\n      dup4\n        /* \"#utility.yul\":4537:4554   */\n      add\n        /* \"#utility.yul\":4533:4560   */\n      slt\n        /* \"#utility.yul\":4523:4645   */\n      tag_340\n      jumpi\n        /* \"#utility.yul\":4564:4643   */\n      tag_341\n      tag_236\n      jump\t// in\n    tag_341:\n        /* \"#utility.yul\":4523:4645   */\n    tag_340:\n        /* \"#utility.yul\":4681:4687   */\n      dup2\n        /* \"#utility.yul\":4668:4688   */\n      calldataload\n        /* \"#utility.yul\":4706:4784   */\n      tag_342\n        /* \"#utility.yul\":4780:4783   */\n      dup5\n        /* \"#utility.yul\":4772:4778   */\n      dup3\n        /* \"#utility.yul\":4765:4769   */\n      0x20\n        /* \"#utility.yul\":4757:4763   */\n      dup7\n        /* \"#utility.yul\":4753:4770   */\n      add\n        /* \"#utility.yul\":4706:4784   */\n      tag_244\n      jump\t// in\n    tag_342:\n        /* \"#utility.yul\":4697:4784   */\n      swap2\n      pop\n        /* \"#utility.yul\":4513:4790   */\n      pop\n        /* \"#utility.yul\":4452:4790   */\n      swap3\n      swap2\n      pop\n      pop\n      jump\t// out\n        /* \"#utility.yul\":4796:5626   */\n    tag_35:\n        /* \"#utility.yul\":4882:4888   */\n      0x00\n        /* \"#utility.yul\":4890:4896   */\n      dup1\n        /* \"#utility.yul\":4939:4941   */\n      0x40\n        /* \"#utility.yul\":4927:4936   */\n      dup4\n        /* \"#utility.yul\":4918:4925   */\n      dup6\n        /* \"#utility.yul\":4914:4937   */\n      sub\n        /* \"#utility.yul\":4910:4942   */\n      slt\n        /* \"#utility.yul\":4907:5026   */\n      iszero\n      tag_344\n      jumpi\n        /* \"#utility.yul\":4945:5024   */\n      tag_345\n      tag_234\n      jump\t// in\n    tag_345:\n        /* \"#utility.yul\":4907:5026   */\n    tag_344:\n        /* \"#utility.yul\":5093:5094   */\n      0x00\n        /* \"#utility.yul\":5082:5091   */\n      dup4\n        /* \"#utility.yul\":5078:5095   */\n      add\n        /* \"#utility.yul\":5065:5096   */\n      calldataload\n        /* \"#utility.yul\":5123:5141   */\n      0xffffffffffffffff\n        /* \"#utility.yul\":5115:5121   */\n      dup2\n        /* \"#utility.yul\":5112:5142   */\n      gt\n        /* \"#utility.yul\":5109:5226   */\n      iszero\n      tag_346\n      jumpi\n        /* \"#utility.yul\":5145:5224   */\n      tag_347\n      tag_235\n      jump\t// in\n    tag_347:\n        /* \"#utility.yul\":5109:5226   */\n    tag_346:\n        /* \"#utility.yul\":5250:5312   */\n      tag_348\n        /* \"#utility.yul\":5304:5311   */\n      dup6\n        /* \"#utility.yul\":5295:5301   */\n      dup3\n        /* \"#utility.yul\":5284:5293   */\n      dup7\n        /* \"#utility.yul\":5280:5302   */\n      add\n        /* \"#utility.yul\":5250:5312   */\n      tag_245\n      jump\t// in\n    tag_348:\n        /* \"#utility.yul\":5240:5312   */\n      swap3\n      pop\n        /* \"#utility.yul\":5036:5322   */\n      pop\n        /* \"#utility.yul\":5389:5391   */\n      0x20\n        /* \"#utility.yul\":5378:5387   */\n      dup4\n        /* \"#utility.yul\":5374:5392   */\n      add\n        /* \"#utility.yul\":5361:5393   */\n      calldataload\n        /* \"#utility.yul\":5420:5438   */\n      0xffffffffffffffff\n        /* \"#utility.yul\":5412:5418   */\n      dup2\n        /* \"#utility.yul\":5409:5439   */\n      gt\n        /* \"#utility.yul\":5406:5523   */\n      iszero\n      tag_349\n      jumpi\n        /* \"#utility.yul\":5442:5521   */\n      tag_350\n      tag_235\n      jump\t// in\n    tag_350:\n        /* \"#utility.yul\":5406:5523   */\n    tag_349:\n        /* \"#utility.yul\":5547:5609   */\n      tag_351\n        /* \"#utility.yul\":5601:5608   */\n      dup6\n        /* \"#utility.yul\":5592:5598   */\n      dup3\n        /* \"#utility.yul\":5581:5590   */\n      dup7\n        /* \"#utility.yul\":5577:5599   */\n      add\n        /* \"#utility.yul\":5547:5609   */\n      tag_245\n      jump\t// in\n    tag_351:\n        /* \"#utility.yul\":5537:5609   */\n      swap2\n      pop\n        /* \"#utility.yul\":5332:5619   */\n      pop\n        /* \"#utility.yul\":4796:5626   */\n      swap3\n      pop\n      swap3\n      swap1\n      pop\n      jump\t// out\n        /* \"#utility.yul\":5632:6139   */\n    tag_39:\n        /* \"#utility.yul\":5700:5706   */\n      0x00\n        /* \"#utility.yul\":5749:5751   */\n      0x20\n        /* \"#utility.yul\":5737:5746   */\n      dup3\n        /* \"#utility.yul\":5728:5735   */\n      dup5\n        /* \"#utility.yul\":5724:5747   */\n      sub\n        /* \"#utility.yul\":5720:5752   */\n      slt\n        /* \"#utility.yul\":5717:5836   */\n      iszero\n      tag_353\n      jumpi\n        /* \"#utility.yul\":5755:5834   */\n      tag_354\n      tag_234\n      jump\t// in\n    tag_354:\n        /* \"#utility.yul\":5717:5836   */\n    tag_353:\n        /* \"#utility.yul\":5903:5904   */\n      0x00\n        /* \"#utility.yul\":5892:5901   */\n      dup3\n        /* \"#utility.yul\":5888:5905   */\n      add\n        /* \"#utility.yul\":5875:5906   */\n      calldataload\n        /* \"#utility.yul\":5933:5951   */\n      0xffffffffffffffff\n        /* \"#utility.yul\":5925:5931   */\n      dup2\n        /* \"#utility.yul\":5922:5952   */\n      gt\n        /* \"#utility.yul\":5919:6036   */\n      iszero\n      tag_355\n      jumpi\n        /* \"#utility.yul\":5955:6034   */\n      tag_356\n      tag_235\n      jump\t// in\n    tag_356:\n        /* \"#utility.yul\":5919:6036   */\n    tag_355:\n        /* \"#utility.yul\":6060:6122   */\n      tag_357\n        /* \"#utility.yul\":6114:6121   */\n      dup5\n        /* \"#utility.yul\":6105:6111   */\n      dup3\n        /* \"#utility.yul\":6094:6103   */\n      dup6\n        /* \"#utility.yul\":6090:6112   */\n      add\n        /* \"#utility.yul\":6060:6122   */\n      tag_245\n      jump\t// in\n    tag_357:\n        /* \"#utility.yul\":6050:6122   */\n      swap2\n      pop\n        /* \"#utility.yul\":5846:6132   */\n      pop\n        /* \"#utility.yul\":5632:6139   */\n      swap3\n      swap2\n      pop\n      pop\n      jump\t// out\n        /* \"#utility.yul\":6145:6222   */\n    tag_246:\n        /* \"#utility.yul\":6182:6189   */\n      0x00\n        /* \"#utility.yul\":6211:6216   */\n      dup2\n        /* \"#utility.yul\":6200:6216   */\n      swap1\n      pop\n        /* \"#utility.yul\":6145:6222   */\n      swap2\n      swap1\n      pop\n      jump\t// out\n        /* \"#utility.yul\":6228:6346   */\n    tag_247:\n        /* \"#utility.yul\":6315:6339   */\n      tag_360\n        /* \"#utility.yul\":6333:6338   */\n      dup2\n        /* \"#utility.yul\":6315:6339   */\n      tag_246\n      jump\t// in\n    tag_360:\n        /* \"#utility.yul\":6310:6313   */\n      dup3\n        /* \"#utility.yul\":6303:6340   */\n      mstore\n        /* \"#utility.yul\":6228:6346   */\n      pop\n      pop\n      jump\t// out\n        /* \"#utility.yul\":6352:6470   */\n    tag_248:\n        /* \"#utility.yul\":6439:6463   */\n      tag_362\n        /* \"#utility.yul\":6457:6462   */\n      dup2\n        /* \"#utility.yul\":6439:6463   */\n      tag_228\n      jump\t// in\n    tag_362:\n        /* \"#utility.yul\":6434:6437   */\n      dup3\n        /* \"#utility.yul\":6427:6464   */\n      mstore\n        /* \"#utility.yul\":6352:6470   */\n      pop\n      pop\n      jump\t// out\n        /* \"#utility.yul\":6476:6574   */\n    tag_249:\n        /* \"#utility.yul\":6527:6533   */\n      0x00\n        /* \"#utility.yul\":6561:6566   */\n      dup2\n        /* \"#utility.yul\":6555:6567   */\n      mload\n        /* \"#utility.yul\":6545:6567   */\n      swap1\n      pop\n        /* \"#utility.yul\":6476:6574   */\n      swap2\n      swap1\n      pop\n      jump\t// out\n        /* \"#utility.yul\":6580:6748   */\n    tag_250:\n        /* \"#utility.yul\":6663:6674   */\n      0x00\n        /* \"#utility.yul\":6697:6703   */\n      dup3\n        /* \"#utility.yul\":6692:6695   */\n      dup3\n        /* \"#utility.yul\":6685:6704   */\n      mstore\n        /* \"#utility.yul\":6737:6741   */\n      0x20\n        /* \"#utility.yul\":6732:6735   */\n      dup3\n        /* \"#utility.yul\":6728:6742   */\n      add\n        /* \"#utility.yul\":6713:6742   */\n      swap1\n      pop\n        /* \"#utility.yul\":6580:6748   */\n      swap3\n      swap2\n      pop\n      pop\n      jump\t// out\n        /* \"#utility.yul\":6754:6893   */\n    tag_251:\n        /* \"#utility.yul\":6843:6849   */\n      dup3\n        /* \"#utility.yul\":6838:6841   */\n      dup2\n        /* \"#utility.yul\":6833:6836   */\n      dup4\n        /* \"#utility.yul\":6827:6850   */\n      mcopy\n        /* \"#utility.yul\":6884:6885   */\n      0x00\n        /* \"#utility.yul\":6875:6881   */\n      dup4\n        /* \"#utility.yul\":6870:6873   */\n      dup4\n        /* \"#utility.yul\":6866:6882   */\n      add\n        /* \"#utility.yul\":6859:6886   */\n      mstore\n        /* \"#utility.yul\":6754:6893   */\n      pop\n      pop\n      pop\n      jump\t// out\n        /* \"#utility.yul\":6899:7272   */\n    tag_252:\n        /* \"#utility.yul\":6985:6988   */\n      0x00\n        /* \"#utility.yul\":7013:7051   */\n      tag_367\n        /* \"#utility.yul\":7045:7050   */\n      dup3\n        /* \"#utility.yul\":7013:7051   */\n      tag_249\n      jump\t// in\n    tag_367:\n        /* \"#utility.yul\":7067:7137   */\n      tag_368\n        /* \"#utility.yul\":7130:7136   */\n      dup2\n        /* \"#utility.yul\":7125:7128   */\n      dup6\n        /* \"#utility.yul\":7067:7137   */\n      tag_250\n      jump\t// in\n    tag_368:\n        /* \"#utility.yul\":7060:7137   */\n      swap4\n      pop\n        /* \"#utility.yul\":7146:7211   */\n      tag_369\n        /* \"#utility.yul\":7204:7210   */\n      dup2\n        /* \"#utility.yul\":7199:7202   */\n      dup6\n        /* \"#utility.yul\":7192:7196   */\n      0x20\n        /* \"#utility.yul\":7185:7190   */\n      dup7\n        /* \"#utility.yul\":7181:7197   */\n      add\n        /* \"#utility.yul\":7146:7211   */\n      tag_251\n      jump\t// in\n    tag_369:\n        /* \"#utility.yul\":7236:7265   */\n      tag_370\n        /* \"#utility.yul\":7258:7264   */\n      dup2\n        /* \"#utility.yul\":7236:7265   */\n      tag_238\n      jump\t// in\n    tag_370:\n        /* \"#utility.yul\":7231:7234   */\n      dup5\n        /* \"#utility.yul\":7227:7266   */\n      add\n        /* \"#utility.yul\":7220:7266   */\n      swap2\n      pop\n        /* \"#utility.yul\":6989:7272   */\n      pop\n        /* \"#utility.yul\":6899:7272   */\n      swap3\n      swap2\n      pop\n      pop\n      jump\t// out\n        /* \"#utility.yul\":7278:8029   */\n    tag_42:\n        /* \"#utility.yul\":7501:7505   */\n      0x00\n        /* \"#utility.yul\":7539:7542   */\n      0xa0\n        /* \"#utility.yul\":7528:7537   */\n      dup3\n        /* \"#utility.yul\":7524:7543   */\n      add\n        /* \"#utility.yul\":7516:7543   */\n      swap1\n      pop\n        /* \"#utility.yul\":7553:7624   */\n      tag_372\n        /* \"#utility.yul\":7621:7622   */\n      0x00\n        /* \"#utility.yul\":7610:7619   */\n      dup4\n        /* \"#utility.yul\":7606:7623   */\n      add\n        /* \"#utility.yul\":7597:7603   */\n      dup9\n        /* \"#utility.yul\":7553:7624   */\n      tag_247\n      jump\t// in\n    tag_372:\n        /* \"#utility.yul\":7634:7706   */\n      tag_373\n        /* \"#utility.yul\":7702:7704   */\n      0x20\n        /* \"#utility.yul\":7691:7700   */\n      dup4\n        /* \"#utility.yul\":7687:7705   */\n      add\n        /* \"#utility.yul\":7678:7684   */\n      dup8\n        /* \"#utility.yul\":7634:7706   */\n      tag_247\n      jump\t// in\n    tag_373:\n        /* \"#utility.yul\":7716:7788   */\n      tag_374\n        /* \"#utility.yul\":7784:7786   */\n      0x40\n        /* \"#utility.yul\":7773:7782   */\n      dup4\n        /* \"#utility.yul\":7769:7787   */\n      add\n        /* \"#utility.yul\":7760:7766   */\n      dup7\n        /* \"#utility.yul\":7716:7788   */\n      tag_248\n      jump\t// in\n    tag_374:\n        /* \"#utility.yul\":7798:7870   */\n      tag_375\n        /* \"#utility.yul\":7866:7868   */\n      0x60\n        /* \"#utility.yul\":7855:7864   */\n      dup4\n        /* \"#utility.yul\":7851:7869   */\n      add\n        /* \"#utility.yul\":7842:7848   */\n      dup6\n        /* \"#utility.yul\":7798:7870   */\n      tag_248\n      jump\t// in\n    tag_375:\n        /* \"#utility.yul\":7918:7927   */\n      dup2\n        /* \"#utility.yul\":7912:7916   */\n      dup2\n        /* \"#utility.yul\":7908:7928   */\n      sub\n        /* \"#utility.yul\":7902:7905   */\n      0x80\n        /* \"#utility.yul\":7891:7900   */\n      dup4\n        /* \"#utility.yul\":7887:7906   */\n      add\n        /* \"#utility.yul\":7880:7929   */\n      mstore\n        /* \"#utility.yul\":7946:8022   */\n      tag_376\n        /* \"#utility.yul\":8017:8021   */\n      dup2\n        /* \"#utility.yul\":8008:8014   */\n      dup5\n        /* \"#utility.yul\":7946:8022   */\n      tag_252\n      jump\t// in\n    tag_376:\n        /* \"#utility.yul\":7938:8022   */\n      swap1\n      pop\n        /* \"#utility.yul\":7278:8029   */\n      swap7\n      swap6\n      pop\n      pop\n      pop\n      pop\n      pop\n      pop\n      jump\t// out\n        /* \"#utility.yul\":8035:8095   */\n    tag_253:\n        /* \"#utility.yul\":8063:8066   */\n      0x00\n        /* \"#utility.yul\":8084:8089   */\n      dup2\n        /* \"#utility.yul\":8077:8089   */\n      swap1\n      pop\n        /* \"#utility.yul\":8035:8095   */\n      swap2\n      swap1\n      pop\n      jump\t// out\n        /* \"#utility.yul\":8101:8243   */\n    tag_254:\n        /* \"#utility.yul\":8151:8160   */\n      0x00\n        /* \"#utility.yul\":8184:8237   */\n      tag_379\n        /* \"#utility.yul\":8202:8236   */\n      tag_380\n        /* \"#utility.yul\":8211:8235   */\n      tag_381\n        /* \"#utility.yul\":8229:8234   */\n      dup5\n        /* \"#utility.yul\":8211:8235   */\n      tag_227\n      jump\t// in\n    tag_381:\n        /* \"#utility.yul\":8202:8236   */\n      tag_253\n      jump\t// in\n    tag_380:\n        /* \"#utility.yul\":8184:8237   */\n      tag_227\n      jump\t// in\n    tag_379:\n        /* \"#utility.yul\":8171:8237   */\n      swap1\n      pop\n        /* \"#utility.yul\":8101:8243   */\n      swap2\n      swap1\n      pop\n      jump\t// out\n        /* \"#utility.yul\":8249:8375   */\n    tag_255:\n        /* \"#utility.yul\":8299:8308   */\n      0x00\n        /* \"#utility.yul\":8332:8369   */\n      tag_383\n        /* \"#utility.yul\":8363:8368   */\n      dup3\n        /* \"#utility.yul\":8332:8369   */\n      tag_254\n      jump\t// in\n    tag_383:\n        /* \"#utility.yul\":8319:8369   */\n      swap1\n      pop\n        /* \"#utility.yul\":8249:8375   */\n      swap2\n      swap1\n      pop\n      jump\t// out\n        /* \"#utility.yul\":8381:8524   */\n    tag_256:\n        /* \"#utility.yul\":8448:8457   */\n      0x00\n        /* \"#utility.yul\":8481:8518   */\n      tag_385\n        /* \"#utility.yul\":8512:8517   */\n      dup3\n        /* \"#utility.yul\":8481:8518   */\n      tag_255\n      jump\t// in\n    tag_385:\n        /* \"#utility.yul\":8468:8518   */\n      swap1\n      pop\n        /* \"#utility.yul\":8381:8524   */\n      swap2\n      swap1\n      pop\n      jump\t// out\n        /* \"#utility.yul\":8530:8695   */\n    tag_257:\n        /* \"#utility.yul\":8634:8688   */\n      tag_387\n        /* \"#utility.yul\":8682:8687   */\n      dup2\n        /* \"#utility.yul\":8634:8688   */\n      tag_256\n      jump\t// in\n    tag_387:\n        /* \"#utility.yul\":8629:8632   */\n      dup3\n        /* \"#utility.yul\":8622:8689   */\n      mstore\n        /* \"#utility.yul\":8530:8695   */\n      pop\n      pop\n      jump\t// out\n        /* \"#utility.yul\":8701:8957   */\n    tag_46:\n        /* \"#utility.yul\":8811:8815   */\n      0x00\n        /* \"#utility.yul\":8849:8851   */\n      0x20\n        /* \"#utility.yul\":8838:8847   */\n      dup3\n        /* \"#utility.yul\":8834:8852   */\n      add\n        /* \"#utility.yul\":8826:8852   */\n      swap1\n      pop\n        /* \"#utility.yul\":8862:8950   */\n      tag_389\n        /* \"#utility.yul\":8947:8948   */\n      0x00\n        /* \"#utility.yul\":8936:8945   */\n      dup4\n        /* \"#utility.yul\":8932:8949   */\n      add\n        /* \"#utility.yul\":8923:8929   */\n      dup5\n        /* \"#utility.yul\":8862:8950   */\n      tag_257\n      jump\t// in\n    tag_389:\n        /* \"#utility.yul\":8701:8957   */\n      swap3\n      swap2\n      pop\n      pop\n      jump\t// out\n        /* \"#utility.yul\":8963:9085   */\n    tag_258:\n        /* \"#utility.yul\":9036:9060   */\n      tag_391\n        /* \"#utility.yul\":9054:9059   */\n      dup2\n        /* \"#utility.yul\":9036:9060   */\n      tag_246\n      jump\t// in\n    tag_391:\n        /* \"#utility.yul\":9029:9034   */\n      dup2\n        /* \"#utility.yul\":9026:9061   */\n      eq\n        /* \"#utility.yul\":9016:9079   */\n      tag_392\n      jumpi\n        /* \"#utility.yul\":9075:9076   */\n      0x00\n        /* \"#utility.yul\":9072:9073   */\n      dup1\n        /* \"#utility.yul\":9065:9077   */\n      revert\n        /* \"#utility.yul\":9016:9079   */\n    tag_392:\n        /* \"#utility.yul\":8963:9085   */\n      pop\n      jump\t// out\n        /* \"#utility.yul\":9091:9230   */\n    tag_259:\n        /* \"#utility.yul\":9137:9142   */\n      0x00\n        /* \"#utility.yul\":9175:9181   */\n      dup2\n        /* \"#utility.yul\":9162:9182   */\n      calldataload\n        /* \"#utility.yul\":9153:9182   */\n      swap1\n      pop\n        /* \"#utility.yul\":9191:9224   */\n      tag_394\n        /* \"#utility.yul\":9218:9223   */\n      dup2\n        /* \"#utility.yul\":9191:9224   */\n      tag_258\n      jump\t// in\n    tag_394:\n        /* \"#utility.yul\":9091:9230   */\n      swap3\n      swap2\n      pop\n      pop\n      jump\t// out\n        /* \"#utility.yul\":9236:9565   */\n    tag_49:\n        /* \"#utility.yul\":9295:9301   */\n      0x00\n        /* \"#utility.yul\":9344:9346   */\n      0x20\n        /* \"#utility.yul\":9332:9341   */\n      dup3\n        /* \"#utility.yul\":9323:9330   */\n      dup5\n        /* \"#utility.yul\":9319:9342   */\n      sub\n        /* \"#utility.yul\":9315:9347   */\n      slt\n        /* \"#utility.yul\":9312:9431   */\n      iszero\n      tag_396\n      jumpi\n        /* \"#utility.yul\":9350:9429   */\n      tag_397\n      tag_234\n      jump\t// in\n    tag_397:\n        /* \"#utility.yul\":9312:9431   */\n    tag_396:\n        /* \"#utility.yul\":9470:9471   */\n      0x00\n        /* \"#utility.yul\":9495:9548   */\n      tag_398\n        /* \"#utility.yul\":9540:9547   */\n      dup5\n        /* \"#utility.yul\":9531:9537   */\n      dup3\n        /* \"#utility.yul\":9520:9529   */\n      dup6\n        /* \"#utility.yul\":9516:9538   */\n      add\n        /* \"#utility.yul\":9495:9548   */\n      tag_259\n      jump\t// in\n    tag_398:\n        /* \"#utility.yul\":9485:9548   */\n      swap2\n      pop\n        /* \"#utility.yul\":9441:9558   */\n      pop\n        /* \"#utility.yul\":9236:9565   */\n      swap3\n      swap2\n      pop\n      pop\n      jump\t// out\n        /* \"#utility.yul\":9571:9660   */\n    tag_260:\n        /* \"#utility.yul\":9607:9614   */\n      0x00\n        /* \"#utility.yul\":9647:9653   */\n      0xffff\n        /* \"#utility.yul\":9640:9645   */\n      dup3\n        /* \"#utility.yul\":9636:9654   */\n      and\n        /* \"#utility.yul\":9625:9654   */\n      swap1\n      pop\n        /* \"#utility.yul\":9571:9660   */\n      swap2\n      swap1\n      pop\n      jump\t// out\n        /* \"#utility.yul\":9666:9781   */\n    tag_261:\n        /* \"#utility.yul\":9751:9774   */\n      tag_401\n        /* \"#utility.yul\":9768:9773   */\n      dup2\n        /* \"#utility.yul\":9751:9774   */\n      tag_260\n      jump\t// in\n    tag_401:\n        /* \"#utility.yul\":9746:9749   */\n      dup3\n        /* \"#utility.yul\":9739:9775   */\n      mstore\n        /* \"#utility.yul\":9666:9781   */\n      pop\n      pop\n      jump\t// out\n        /* \"#utility.yul\":9787:9877   */\n    tag_262:\n        /* \"#utility.yul\":9821:9828   */\n      0x00\n        /* \"#utility.yul\":9864:9869   */\n      dup2\n        /* \"#utility.yul\":9857:9870   */\n      iszero\n        /* \"#utility.yul\":9850:9871   */\n      iszero\n        /* \"#utility.yul\":9839:9871   */\n      swap1\n      pop\n        /* \"#utility.yul\":9787:9877   */\n      swap2\n      swap1\n      pop\n      jump\t// out\n        /* \"#utility.yul\":9883:9992   */\n    tag_263:\n        /* \"#utility.yul\":9964:9985   */\n      tag_404\n        /* \"#utility.yul\":9979:9984   */\n      dup2\n        /* \"#utility.yul\":9964:9985   */\n      tag_262\n      jump\t// in\n    tag_404:\n        /* \"#utility.yul\":9959:9962   */\n      dup3\n        /* \"#utility.yul\":9952:9986   */\n      mstore\n        /* \"#utility.yul\":9883:9992   */\n      pop\n      pop\n      jump\t// out\n        /* \"#utility.yul\":9998:10075   */\n    tag_264:\n        /* \"#utility.yul\":10035:10042   */\n      0x00\n        /* \"#utility.yul\":10064:10069   */\n      dup2\n        /* \"#utility.yul\":10053:10069   */\n      swap1\n      pop\n        /* \"#utility.yul\":9998:10075   */\n      swap2\n      swap1\n      pop\n      jump\t// out\n        /* \"#utility.yul\":10081:10199   */\n    tag_265:\n        /* \"#utility.yul\":10168:10192   */\n      tag_407\n        /* \"#utility.yul\":10186:10191   */\n      dup2\n        /* \"#utility.yul\":10168:10192   */\n      tag_264\n      jump\t// in\n    tag_407:\n        /* \"#utility.yul\":10163:10166   */\n      dup3\n        /* \"#utility.yul\":10156:10193   */\n      mstore\n        /* \"#utility.yul\":10081:10199   */\n      pop\n      pop\n      jump\t// out\n        /* \"#utility.yul\":10205:11404   */\n    tag_52:\n        /* \"#utility.yul\":10540:10544   */\n      0x00\n        /* \"#utility.yul\":10578:10581   */\n      0x0140\n        /* \"#utility.yul\":10567:10576   */\n      dup3\n        /* \"#utility.yul\":10563:10582   */\n      add\n        /* \"#utility.yul\":10555:10582   */\n      swap1\n      pop\n        /* \"#utility.yul\":10592:10663   */\n      tag_409\n        /* \"#utility.yul\":10660:10661   */\n      0x00\n        /* \"#utility.yul\":10649:10658   */\n      dup4\n        /* \"#utility.yul\":10645:10662   */\n      add\n        /* \"#utility.yul\":10636:10642   */\n      dup14\n        /* \"#utility.yul\":10592:10663   */\n      tag_247\n      jump\t// in\n    tag_409:\n        /* \"#utility.yul\":10673:10743   */\n      tag_410\n        /* \"#utility.yul\":10739:10741   */\n      0x20\n        /* \"#utility.yul\":10728:10737   */\n      dup4\n        /* \"#utility.yul\":10724:10742   */\n      add\n        /* \"#utility.yul\":10715:10721   */\n      dup13\n        /* \"#utility.yul\":10673:10743   */\n      tag_261\n      jump\t// in\n    tag_410:\n        /* \"#utility.yul\":10753:10823   */\n      tag_411\n        /* \"#utility.yul\":10819:10821   */\n      0x40\n        /* \"#utility.yul\":10808:10817   */\n      dup4\n        /* \"#utility.yul\":10804:10822   */\n      add\n        /* \"#utility.yul\":10795:10801   */\n      dup12\n        /* \"#utility.yul\":10753:10823   */\n      tag_261\n      jump\t// in\n    tag_411:\n        /* \"#utility.yul\":10833:10905   */\n      tag_412\n        /* \"#utility.yul\":10901:10903   */\n      0x60\n        /* \"#utility.yul\":10890:10899   */\n      dup4\n        /* \"#utility.yul\":10886:10904   */\n      add\n        /* \"#utility.yul\":10877:10883   */\n      dup11\n        /* \"#utility.yul\":10833:10905   */\n      tag_247\n      jump\t// in\n    tag_412:\n        /* \"#utility.yul\":10915:10988   */\n      tag_413\n        /* \"#utility.yul\":10983:10986   */\n      0x80\n        /* \"#utility.yul\":10972:10981   */\n      dup4\n        /* \"#utility.yul\":10968:10987   */\n      add\n        /* \"#utility.yul\":10959:10965   */\n      dup10\n        /* \"#utility.yul\":10915:10988   */\n      tag_247\n      jump\t// in\n    tag_413:\n        /* \"#utility.yul\":10998:11071   */\n      tag_414\n        /* \"#utility.yul\":11066:11069   */\n      0xa0\n        /* \"#utility.yul\":11055:11064   */\n      dup4\n        /* \"#utility.yul\":11051:11070   */\n      add\n        /* \"#utility.yul\":11042:11048   */\n      dup9\n        /* \"#utility.yul\":10998:11071   */\n      tag_248\n      jump\t// in\n    tag_414:\n        /* \"#utility.yul\":11081:11154   */\n      tag_415\n        /* \"#utility.yul\":11149:11152   */\n      0xc0\n        /* \"#utility.yul\":11138:11147   */\n      dup4\n        /* \"#utility.yul\":11134:11153   */\n      add\n        /* \"#utility.yul\":11125:11131   */\n      dup8\n        /* \"#utility.yul\":11081:11154   */\n      tag_248\n      jump\t// in\n    tag_415:\n        /* \"#utility.yul\":11164:11231   */\n      tag_416\n        /* \"#utility.yul\":11226:11229   */\n      0xe0\n        /* \"#utility.yul\":11215:11224   */\n      dup4\n        /* \"#utility.yul\":11211:11230   */\n      add\n        /* \"#utility.yul\":11202:11208   */\n      dup7\n        /* \"#utility.yul\":11164:11231   */\n      tag_263\n      jump\t// in\n    tag_416:\n        /* \"#utility.yul\":11241:11314   */\n      tag_417\n        /* \"#utility.yul\":11309:11312   */\n      0x0100\n        /* \"#utility.yul\":11298:11307   */\n      dup4\n        /* \"#utility.yul\":11294:11313   */\n      add\n        /* \"#utility.yul\":11285:11291   */\n      dup6\n        /* \"#utility.yul\":11241:11314   */\n      tag_265\n      jump\t// in\n    tag_417:\n        /* \"#utility.yul\":11324:11397   */\n      tag_418\n        /* \"#utility.yul\":11392:11395   */\n      0x0120\n        /* \"#utility.yul\":11381:11390   */\n      dup4\n        /* \"#utility.yul\":11377:11396   */\n      add\n        /* \"#utility.yul\":11368:11374   */\n      dup5\n        /* \"#utility.yul\":11324:11397   */\n      tag_247\n      jump\t// in\n    tag_418:\n        /* \"#utility.yul\":10205:11404   */\n      swap12\n      swap11\n      pop\n      pop\n      pop\n      pop\n      pop\n      pop\n      pop\n      pop\n      pop\n      pop\n      pop\n      jump\t// out\n        /* \"#utility.yul\":11410:11503   */\n    tag_266:\n        /* \"#utility.yul\":11446:11453   */\n      0x00\n        /* \"#utility.yul\":11486:11496   */\n      0xffffffff\n        /* \"#utility.yul\":11479:11484   */\n      dup3\n        /* \"#utility.yul\":11475:11497   */\n      and\n        /* \"#utility.yul\":11464:11497   */\n      swap1\n      pop\n        /* \"#utility.yul\":11410:11503   */\n      swap2\n      swap1\n      pop\n      jump\t// out\n        /* \"#utility.yul\":11509:11624   */\n    tag_267:\n        /* \"#utility.yul\":11594:11617   */\n      tag_421\n        /* \"#utility.yul\":11611:11616   */\n      dup2\n        /* \"#utility.yul\":11594:11617   */\n      tag_266\n      jump\t// in\n    tag_421:\n        /* \"#utility.yul\":11589:11592   */\n      dup3\n        /* \"#utility.yul\":11582:11618   */\n      mstore\n        /* \"#utility.yul\":11509:11624   */\n      pop\n      pop\n      jump\t// out\n        /* \"#utility.yul\":11630:11848   */\n    tag_56:\n        /* \"#utility.yul\":11721:11725   */\n      0x00\n        /* \"#utility.yul\":11759:11761   */\n      0x20\n        /* \"#utility.yul\":11748:11757   */\n      dup3\n        /* \"#utility.yul\":11744:11762   */\n      add\n        /* \"#utility.yul\":11736:11762   */\n      swap1\n      pop\n        /* \"#utility.yul\":11772:11841   */\n      tag_423\n        /* \"#utility.yul\":11838:11839   */\n      0x00\n        /* \"#utility.yul\":11827:11836   */\n      dup4\n        /* \"#utility.yul\":11823:11840   */\n      add\n        /* \"#utility.yul\":11814:11820   */\n      dup5\n        /* \"#utility.yul\":11772:11841   */\n      tag_267\n      jump\t// in\n    tag_423:\n        /* \"#utility.yul\":11630:11848   */\n      swap3\n      swap2\n      pop\n      pop\n      jump\t// out\n        /* \"#utility.yul\":11854:11974   */\n    tag_268:\n        /* \"#utility.yul\":11926:11949   */\n      tag_425\n        /* \"#utility.yul\":11943:11948   */\n      dup2\n        /* \"#utility.yul\":11926:11949   */\n      tag_266\n      jump\t// in\n    tag_425:\n        /* \"#utility.yul\":11919:11924   */\n      dup2\n        /* \"#utility.yul\":11916:11950   */\n      eq\n        /* \"#utility.yul\":11906:11968   */\n      tag_426\n      jumpi\n        /* \"#utility.yul\":11964:11965   */\n      0x00\n        /* \"#utility.yul\":11961:11962   */\n      dup1\n        /* \"#utility.yul\":11954:11966   */\n      revert\n        /* \"#utility.yul\":11906:11968   */\n    tag_426:\n        /* \"#utility.yul\":11854:11974   */\n      pop\n      jump\t// out\n        /* \"#utility.yul\":11980:12117   */\n    tag_269:\n        /* \"#utility.yul\":12025:12030   */\n      0x00\n        /* \"#utility.yul\":12063:12069   */\n      dup2\n        /* \"#utility.yul\":12050:12070   */\n      calldataload\n        /* \"#utility.yul\":12041:12070   */\n      swap1\n      pop\n        /* \"#utility.yul\":12079:12111   */\n      tag_428\n        /* \"#utility.yul\":12105:12110   */\n      dup2\n        /* \"#utility.yul\":12079:12111   */\n      tag_268\n      jump\t// in\n    tag_428:\n        /* \"#utility.yul\":11980:12117   */\n      swap3\n      swap2\n      pop\n      pop\n      jump\t// out\n        /* \"#utility.yul\":12123:12450   */\n    tag_59:\n        /* \"#utility.yul\":12181:12187   */\n      0x00\n        /* \"#utility.yul\":12230:12232   */\n      0x20\n        /* \"#utility.yul\":12218:12227   */\n      dup3\n        /* \"#utility.yul\":12209:12216   */\n      dup5\n        /* \"#utility.yul\":12205:12228   */\n      sub\n        /* \"#utility.yul\":12201:12233   */\n      slt\n        /* \"#utility.yul\":12198:12317   */\n      iszero\n      tag_430\n      jumpi\n        /* \"#utility.yul\":12236:12315   */\n      tag_431\n      tag_234\n      jump\t// in\n    tag_431:\n        /* \"#utility.yul\":12198:12317   */\n    tag_430:\n        /* \"#utility.yul\":12356:12357   */\n      0x00\n        /* \"#utility.yul\":12381:12433   */\n      tag_432\n        /* \"#utility.yul\":12425:12432   */\n      dup5\n        /* \"#utility.yul\":12416:12422   */\n      dup3\n        /* \"#utility.yul\":12405:12414   */\n      dup6\n        /* \"#utility.yul\":12401:12423   */\n      add\n        /* \"#utility.yul\":12381:12433   */\n      tag_269\n      jump\t// in\n    tag_432:\n        /* \"#utility.yul\":12371:12433   */\n      swap2\n      pop\n        /* \"#utility.yul\":12327:12443   */\n      pop\n        /* \"#utility.yul\":12123:12450   */\n      swap3\n      swap2\n      pop\n      pop\n      jump\t// out\n        /* \"#utility.yul\":12456:12772   */\n    tag_62:\n        /* \"#utility.yul\":12569:12573   */\n      0x00\n        /* \"#utility.yul\":12607:12609   */\n      0x40\n        /* \"#utility.yul\":12596:12605   */\n      dup3\n        /* \"#utility.yul\":12592:12610   */\n      add\n        /* \"#utility.yul\":12584:12610   */\n      swap1\n      pop\n        /* \"#utility.yul\":12620:12689   */\n      tag_434\n        /* \"#utility.yul\":12686:12687   */\n      0x00\n        /* \"#utility.yul\":12675:12684   */\n      dup4\n        /* \"#utility.yul\":12671:12688   */\n      add\n        /* \"#utility.yul\":12662:12668   */\n      dup6\n        /* \"#utility.yul\":12620:12689   */\n      tag_267\n      jump\t// in\n    tag_434:\n        /* \"#utility.yul\":12699:12765   */\n      tag_435\n        /* \"#utility.yul\":12761:12763   */\n      0x20\n        /* \"#utility.yul\":12750:12759   */\n      dup4\n        /* \"#utility.yul\":12746:12764   */\n      add\n        /* \"#utility.yul\":12737:12743   */\n      dup5\n        /* \"#utility.yul\":12699:12765   */\n      tag_263\n      jump\t// in\n    tag_435:\n        /* \"#utility.yul\":12456:12772   */\n      swap4\n      swap3\n      pop\n      pop\n      pop\n      jump\t// out\n        /* \"#utility.yul\":12778:12988   */\n    tag_67:\n        /* \"#utility.yul\":12865:12869   */\n      0x00\n        /* \"#utility.yul\":12903:12905   */\n      0x20\n        /* \"#utility.yul\":12892:12901   */\n      dup3\n        /* \"#utility.yul\":12888:12906   */\n      add\n        /* \"#utility.yul\":12880:12906   */\n      swap1\n      pop\n        /* \"#utility.yul\":12916:12981   */\n      tag_437\n        /* \"#utility.yul\":12978:12979   */\n      0x00\n        /* \"#utility.yul\":12967:12976   */\n      dup4\n        /* \"#utility.yul\":12963:12980   */\n      add\n        /* \"#utility.yul\":12954:12960   */\n      dup5\n        /* \"#utility.yul\":12916:12981   */\n      tag_263\n      jump\t// in\n    tag_437:\n        /* \"#utility.yul\":12778:12988   */\n      swap3\n      swap2\n      pop\n      pop\n      jump\t// out\n        /* \"#utility.yul\":12994:13080   */\n    tag_270:\n        /* \"#utility.yul\":13029:13036   */\n      0x00\n        /* \"#utility.yul\":13069:13073   */\n      0xff\n        /* \"#utility.yul\":13062:13067   */\n      dup3\n        /* \"#utility.yul\":13058:13074   */\n      and\n        /* \"#utility.yul\":13047:13074   */\n      swap1\n      pop\n        /* \"#utility.yul\":12994:13080   */\n      swap2\n      swap1\n      pop\n      jump\t// out\n        /* \"#utility.yul\":13086:13198   */\n    tag_271:\n        /* \"#utility.yul\":13169:13191   */\n      tag_440\n        /* \"#utility.yul\":13185:13190   */\n      dup2\n        /* \"#utility.yul\":13169:13191   */\n      tag_270\n      jump\t// in\n    tag_440:\n        /* \"#utility.yul\":13164:13167   */\n      dup3\n        /* \"#utility.yul\":13157:13192   */\n      mstore\n        /* \"#utility.yul\":13086:13198   */\n      pop\n      pop\n      jump\t// out\n        /* \"#utility.yul\":13204:13418   */\n    tag_73:\n        /* \"#utility.yul\":13293:13297   */\n      0x00\n        /* \"#utility.yul\":13331:13333   */\n      0x20\n        /* \"#utility.yul\":13320:13329   */\n      dup3\n        /* \"#utility.yul\":13316:13334   */\n      add\n        /* \"#utility.yul\":13308:13334   */\n      swap1\n      pop\n        /* \"#utility.yul\":13344:13411   */\n      tag_442\n        /* \"#utility.yul\":13408:13409   */\n      0x00\n        /* \"#utility.yul\":13397:13406   */\n      dup4\n        /* \"#utility.yul\":13393:13410   */\n      add\n        /* \"#utility.yul\":13384:13390   */\n      dup5\n        /* \"#utility.yul\":13344:13411   */\n      tag_271\n      jump\t// in\n    tag_442:\n        /* \"#utility.yul\":13204:13418   */\n      swap3\n      swap2\n      pop\n      pop\n      jump\t// out\n        /* \"#utility.yul\":13424:13735   */\n    tag_272:\n        /* \"#utility.yul\":13501:13505   */\n      0x00\n        /* \"#utility.yul\":13591:13609   */\n      0xffffffffffffffff\n        /* \"#utility.yul\":13583:13589   */\n      dup3\n        /* \"#utility.yul\":13580:13610   */\n      gt\n        /* \"#utility.yul\":13577:13633   */\n      iszero\n      tag_444\n      jumpi\n        /* \"#utility.yul\":13613:13631   */\n      tag_445\n      tag_239\n      jump\t// in\n    tag_445:\n        /* \"#utility.yul\":13577:13633   */\n    tag_444:\n        /* \"#utility.yul\":13663:13667   */\n      0x20\n        /* \"#utility.yul\":13655:13661   */\n      dup3\n        /* \"#utility.yul\":13651:13668   */\n      mul\n        /* \"#utility.yul\":13643:13668   */\n      swap1\n      pop\n        /* \"#utility.yul\":13723:13727   */\n      0x20\n        /* \"#utility.yul\":13717:13721   */\n      dup2\n        /* \"#utility.yul\":13713:13728   */\n      add\n        /* \"#utility.yul\":13705:13728   */\n      swap1\n      pop\n        /* \"#utility.yul\":13424:13735   */\n      swap2\n      swap1\n      pop\n      jump\t// out\n        /* \"#utility.yul\":13741:13858   */\n    tag_273:\n        /* \"#utility.yul\":13850:13851   */\n      0x00\n        /* \"#utility.yul\":13847:13848   */\n      dup1\n        /* \"#utility.yul\":13840:13852   */\n      revert\n        /* \"#utility.yul\":13864:13986   */\n    tag_274:\n        /* \"#utility.yul\":13937:13961   */\n      tag_448\n        /* \"#utility.yul\":13955:13960   */\n      dup2\n        /* \"#utility.yul\":13937:13961   */\n      tag_228\n      jump\t// in\n    tag_448:\n        /* \"#utility.yul\":13930:13935   */\n      dup2\n        /* \"#utility.yul\":13927:13962   */\n      eq\n        /* \"#utility.yul\":13917:13980   */\n      tag_449\n      jumpi\n        /* \"#utility.yul\":13976:13977   */\n      0x00\n        /* \"#utility.yul\":13973:13974   */\n      dup1\n        /* \"#utility.yul\":13966:13978   */\n      revert\n        /* \"#utility.yul\":13917:13980   */\n    tag_449:\n        /* \"#utility.yul\":13864:13986   */\n      pop\n      jump\t// out\n        /* \"#utility.yul\":13992:14131   */\n    tag_275:\n        /* \"#utility.yul\":14038:14043   */\n      0x00\n        /* \"#utility.yul\":14076:14082   */\n      dup2\n        /* \"#utility.yul\":14063:14083   */\n      calldataload\n        /* \"#utility.yul\":14054:14083   */\n      swap1\n      pop\n        /* \"#utility.yul\":14092:14125   */\n      tag_451\n        /* \"#utility.yul\":14119:14124   */\n      dup2\n        /* \"#utility.yul\":14092:14125   */\n      tag_274\n      jump\t// in\n    tag_451:\n        /* \"#utility.yul\":13992:14131   */\n      swap3\n      swap2\n      pop\n      pop\n      jump\t// out\n        /* \"#utility.yul\":14154:14864   */\n    tag_276:\n        /* \"#utility.yul\":14250:14255   */\n      0x00\n        /* \"#utility.yul\":14275:14356   */\n      tag_453\n        /* \"#utility.yul\":14291:14355   */\n      tag_454\n        /* \"#utility.yul\":14348:14354   */\n      dup5\n        /* \"#utility.yul\":14291:14355   */\n      tag_272\n      jump\t// in\n    tag_454:\n        /* \"#utility.yul\":14275:14356   */\n      tag_241\n      jump\t// in\n    tag_453:\n        /* \"#utility.yul\":14266:14356   */\n      swap1\n      pop\n        /* \"#utility.yul\":14376:14381   */\n      dup1\n        /* \"#utility.yul\":14405:14411   */\n      dup4\n        /* \"#utility.yul\":14398:14403   */\n      dup3\n        /* \"#utility.yul\":14391:14412   */\n      mstore\n        /* \"#utility.yul\":14439:14443   */\n      0x20\n        /* \"#utility.yul\":14432:14437   */\n      dup3\n        /* \"#utility.yul\":14428:14444   */\n      add\n        /* \"#utility.yul\":14421:14444   */\n      swap1\n      pop\n        /* \"#utility.yul\":14492:14496   */\n      0x20\n        /* \"#utility.yul\":14484:14490   */\n      dup5\n        /* \"#utility.yul\":14480:14497   */\n      mul\n        /* \"#utility.yul\":14472:14478   */\n      dup4\n        /* \"#utility.yul\":14468:14498   */\n      add\n        /* \"#utility.yul\":14521:14524   */\n      dup6\n        /* \"#utility.yul\":14513:14519   */\n      dup2\n        /* \"#utility.yul\":14510:14525   */\n      gt\n        /* \"#utility.yul\":14507:14629   */\n      iszero\n      tag_455\n      jumpi\n        /* \"#utility.yul\":14540:14619   */\n      tag_456\n      tag_273\n      jump\t// in\n    tag_456:\n        /* \"#utility.yul\":14507:14629   */\n    tag_455:\n        /* \"#utility.yul\":14655:14661   */\n      dup4\n        /* \"#utility.yul\":14638:14858   */\n    tag_457:\n        /* \"#utility.yul\":14672:14678   */\n      dup2\n        /* \"#utility.yul\":14667:14670   */\n      dup2\n        /* \"#utility.yul\":14664:14679   */\n      lt\n        /* \"#utility.yul\":14638:14858   */\n      iszero\n      tag_459\n      jumpi\n        /* \"#utility.yul\":14747:14750   */\n      dup1\n        /* \"#utility.yul\":14776:14813   */\n      tag_460\n        /* \"#utility.yul\":14809:14812   */\n      dup9\n        /* \"#utility.yul\":14797:14807   */\n      dup3\n        /* \"#utility.yul\":14776:14813   */\n      tag_275\n      jump\t// in\n    tag_460:\n        /* \"#utility.yul\":14771:14774   */\n      dup5\n        /* \"#utility.yul\":14764:14814   */\n      mstore\n        /* \"#utility.yul\":14843:14847   */\n      0x20\n        /* \"#utility.yul\":14838:14841   */\n      dup5\n        /* \"#utility.yul\":14834:14848   */\n      add\n        /* \"#utility.yul\":14827:14848   */\n      swap4\n      pop\n        /* \"#utility.yul\":14714:14858   */\n      pop\n        /* \"#utility.yul\":14698:14702   */\n      0x20\n        /* \"#utility.yul\":14693:14696   */\n      dup2\n        /* \"#utility.yul\":14689:14703   */\n      add\n        /* \"#utility.yul\":14682:14703   */\n      swap1\n      pop\n        /* \"#utility.yul\":14638:14858   */\n      jump(tag_457)\n    tag_459:\n        /* \"#utility.yul\":14642:14663   */\n      pop\n        /* \"#utility.yul\":14256:14864   */\n      pop\n      pop\n        /* \"#utility.yul\":14154:14864   */\n      swap4\n      swap3\n      pop\n      pop\n      pop\n      jump\t// out\n        /* \"#utility.yul\":14887:15257   */\n    tag_277:\n        /* \"#utility.yul\":14958:14963   */\n      0x00\n        /* \"#utility.yul\":15007:15010   */\n      dup3\n        /* \"#utility.yul\":15000:15004   */\n      0x1f\n        /* \"#utility.yul\":14992:14998   */\n      dup4\n        /* \"#utility.yul\":14988:15005   */\n      add\n        /* \"#utility.yul\":14984:15011   */\n      slt\n        /* \"#utility.yul\":14974:15096   */\n      tag_462\n      jumpi\n        /* \"#utility.yul\":15015:15094   */\n      tag_463\n      tag_236\n      jump\t// in\n    tag_463:\n        /* \"#utility.yul\":14974:15096   */\n    tag_462:\n        /* \"#utility.yul\":15132:15138   */\n      dup2\n        /* \"#utility.yul\":15119:15139   */\n      calldataload\n        /* \"#utility.yul\":15157:15251   */\n      tag_464\n        /* \"#utility.yul\":15247:15250   */\n      dup5\n        /* \"#utility.yul\":15239:15245   */\n      dup3\n        /* \"#utility.yul\":15232:15236   */\n      0x20\n        /* \"#utility.yul\":15224:15230   */\n      dup7\n        /* \"#utility.yul\":15220:15237   */\n      add\n        /* \"#utility.yul\":15157:15251   */\n      tag_276\n      jump\t// in\n    tag_464:\n        /* \"#utility.yul\":15148:15251   */\n      swap2\n      pop\n        /* \"#utility.yul\":14964:15257   */\n      pop\n        /* \"#utility.yul\":14887:15257   */\n      swap3\n      swap2\n      pop\n      pop\n      jump\t// out\n        /* \"#utility.yul\":15263:15802   */\n    tag_79:\n        /* \"#utility.yul\":15347:15353   */\n      0x00\n        /* \"#utility.yul\":15396:15398   */\n      0x20\n        /* \"#utility.yul\":15384:15393   */\n      dup3\n        /* \"#utility.yul\":15375:15382   */\n      dup5\n        /* \"#utility.yul\":15371:15394   */\n      sub\n        /* \"#utility.yul\":15367:15399   */\n      slt\n        /* \"#utility.yul\":15364:15483   */\n      iszero\n      tag_466\n      jumpi\n        /* \"#utility.yul\":15402:15481   */\n      tag_467\n      tag_234\n      jump\t// in\n    tag_467:\n        /* \"#utility.yul\":15364:15483   */\n    tag_466:\n        /* \"#utility.yul\":15550:15551   */\n      0x00\n        /* \"#utility.yul\":15539:15548   */\n      dup3\n        /* \"#utility.yul\":15535:15552   */\n      add\n        /* \"#utility.yul\":15522:15553   */\n      calldataload\n        /* \"#utility.yul\":15580:15598   */\n      0xffffffffffffffff\n        /* \"#utility.yul\":15572:15578   */\n      dup2\n        /* \"#utility.yul\":15569:15599   */\n      gt\n        /* \"#utility.yul\":15566:15683   */\n      iszero\n      tag_468\n      jumpi\n        /* \"#utility.yul\":15602:15681   */\n      tag_469\n      tag_235\n      jump\t// in\n    tag_469:\n        /* \"#utility.yul\":15566:15683   */\n    tag_468:\n        /* \"#utility.yul\":15707:15785   */\n      tag_470\n        /* \"#utility.yul\":15777:15784   */\n      dup5\n        /* \"#utility.yul\":15768:15774   */\n      dup3\n        /* \"#utility.yul\":15757:15766   */\n      dup6\n        /* \"#utility.yul\":15753:15775   */\n      add\n        /* \"#utility.yul\":15707:15785   */\n      tag_277\n      jump\t// in\n    tag_470:\n        /* \"#utility.yul\":15697:15785   */\n      swap2\n      pop\n        /* \"#utility.yul\":15493:15795   */\n      pop\n        /* \"#utility.yul\":15263:15802   */\n      swap3\n      swap2\n      pop\n      pop\n      jump\t// out\n        /* \"#utility.yul\":15808:16030   */\n    tag_87:\n        /* \"#utility.yul\":15901:15905   */\n      0x00\n        /* \"#utility.yul\":15939:15941   */\n      0x20\n        /* \"#utility.yul\":15928:15937   */\n      dup3\n        /* \"#utility.yul\":15924:15942   */\n      add\n        /* \"#utility.yul\":15916:15942   */\n      swap1\n      pop\n        /* \"#utility.yul\":15952:16023   */\n      tag_472\n        /* \"#utility.yul\":16020:16021   */\n      0x00\n        /* \"#utility.yul\":16009:16018   */\n      dup4\n        /* \"#utility.yul\":16005:16022   */\n      add\n        /* \"#utility.yul\":15996:16002   */\n      dup5\n        /* \"#utility.yul\":15952:16023   */\n      tag_265\n      jump\t// in\n    tag_472:\n        /* \"#utility.yul\":15808:16030   */\n      swap3\n      swap2\n      pop\n      pop\n      jump\t// out\n        /* \"#utility.yul\":16036:16179   */\n    tag_278:\n        /* \"#utility.yul\":16103:16112   */\n      0x00\n        /* \"#utility.yul\":16136:16173   */\n      tag_474\n        /* \"#utility.yul\":16167:16172   */\n      dup3\n        /* \"#utility.yul\":16136:16173   */\n      tag_255\n      jump\t// in\n    tag_474:\n        /* \"#utility.yul\":16123:16173   */\n      swap1\n      pop\n        /* \"#utility.yul\":16036:16179   */\n      swap2\n      swap1\n      pop\n      jump\t// out\n        /* \"#utility.yul\":16185:16350   */\n    tag_279:\n        /* \"#utility.yul\":16289:16343   */\n      tag_476\n        /* \"#utility.yul\":16337:16342   */\n      dup2\n        /* \"#utility.yul\":16289:16343   */\n      tag_278\n      jump\t// in\n    tag_476:\n        /* \"#utility.yul\":16284:16287   */\n      dup3\n        /* \"#utility.yul\":16277:16344   */\n      mstore\n        /* \"#utility.yul\":16185:16350   */\n      pop\n      pop\n      jump\t// out\n        /* \"#utility.yul\":16356:16612   */\n    tag_97:\n        /* \"#utility.yul\":16466:16470   */\n      0x00\n        /* \"#utility.yul\":16504:16506   */\n      0x20\n        /* \"#utility.yul\":16493:16502   */\n      dup3\n        /* \"#utility.yul\":16489:16507   */\n      add\n        /* \"#utility.yul\":16481:16507   */\n      swap1\n      pop\n        /* \"#utility.yul\":16517:16605   */\n      tag_478\n        /* \"#utility.yul\":16602:16603   */\n      0x00\n        /* \"#utility.yul\":16591:16600   */\n      dup4\n        /* \"#utility.yul\":16587:16604   */\n      add\n        /* \"#utility.yul\":16578:16584   */\n      dup5\n        /* \"#utility.yul\":16517:16605   */\n      tag_279\n      jump\t// in\n    tag_478:\n        /* \"#utility.yul\":16356:16612   */\n      swap3\n      swap2\n      pop\n      pop\n      jump\t// out\n        /* \"#utility.yul\":16618:16840   */\n    tag_104:\n        /* \"#utility.yul\":16711:16715   */\n      0x00\n        /* \"#utility.yul\":16749:16751   */\n      0x20\n        /* \"#utility.yul\":16738:16747   */\n      dup3\n        /* \"#utility.yul\":16734:16752   */\n      add\n        /* \"#utility.yul\":16726:16752   */\n      swap1\n      pop\n        /* \"#utility.yul\":16762:16833   */\n      tag_480\n        /* \"#utility.yul\":16830:16831   */\n      0x00\n        /* \"#utility.yul\":16819:16828   */\n      dup4\n        /* \"#utility.yul\":16815:16832   */\n      add\n        /* \"#utility.yul\":16806:16812   */\n      dup5\n        /* \"#utility.yul\":16762:16833   */\n      tag_248\n      jump\t// in\n    tag_480:\n        /* \"#utility.yul\":16618:16840   */\n      swap3\n      swap2\n      pop\n      pop\n      jump\t// out\n        /* \"#utility.yul\":16846:17064   */\n    tag_108:\n        /* \"#utility.yul\":16937:16941   */\n      0x00\n        /* \"#utility.yul\":16975:16977   */\n      0x20\n        /* \"#utility.yul\":16964:16973   */\n      dup3\n        /* \"#utility.yul\":16960:16978   */\n      add\n        /* \"#utility.yul\":16952:16978   */\n      swap1\n      pop\n        /* \"#utility.yul\":16988:17057   */\n      tag_482\n        /* \"#utility.yul\":17054:17055   */\n      0x00\n        /* \"#utility.yul\":17043:17052   */\n      dup4\n        /* \"#utility.yul\":17039:17056   */\n      add\n        /* \"#utility.yul\":17030:17036   */\n      dup5\n        /* \"#utility.yul\":16988:17057   */\n      tag_261\n      jump\t// in\n    tag_482:\n        /* \"#utility.yul\":16846:17064   */\n      swap3\n      swap2\n      pop\n      pop\n      jump\t// out\n        /* \"#utility.yul\":17070:17319   */\n    tag_280:\n        /* \"#utility.yul\":17145:17149   */\n      0x00\n        /* \"#utility.yul\":17235:17253   */\n      0xffffffffffffffff\n        /* \"#utility.yul\":17227:17233   */\n      dup3\n        /* \"#utility.yul\":17224:17254   */\n      gt\n        /* \"#utility.yul\":17221:17277   */\n      iszero\n      tag_484\n      jumpi\n        /* \"#utility.yul\":17257:17275   */\n      tag_485\n      tag_239\n      jump\t// in\n    tag_485:\n        /* \"#utility.yul\":17221:17277   */\n    tag_484:\n        /* \"#utility.yul\":17307:17311   */\n      0x20\n        /* \"#utility.yul\":17299:17305   */\n      dup3\n        /* \"#utility.yul\":17295:17312   */\n      mul\n        /* \"#utility.yul\":17287:17312   */\n      swap1\n      pop\n        /* \"#utility.yul\":17070:17319   */\n      swap2\n      swap1\n      pop\n      jump\t// out\n        /* \"#utility.yul\":17325:17447   */\n    tag_281:\n        /* \"#utility.yul\":17398:17422   */\n      tag_487\n        /* \"#utility.yul\":17416:17421   */\n      dup2\n        /* \"#utility.yul\":17398:17422   */\n      tag_264\n      jump\t// in\n    tag_487:\n        /* \"#utility.yul\":17391:17396   */\n      dup2\n        /* \"#utility.yul\":17388:17423   */\n      eq\n        /* \"#utility.yul\":17378:17441   */\n      tag_488\n      jumpi\n        /* \"#utility.yul\":17437:17438   */\n      0x00\n        /* \"#utility.yul\":17434:17435   */\n      dup1\n        /* \"#utility.yul\":17427:17439   */\n      revert\n        /* \"#utility.yul\":17378:17441   */\n    tag_488:\n        /* \"#utility.yul\":17325:17447   */\n      pop\n      jump\t// out\n        /* \"#utility.yul\":17453:17592   */\n    tag_282:\n        /* \"#utility.yul\":17499:17504   */\n      0x00\n        /* \"#utility.yul\":17537:17543   */\n      dup2\n        /* \"#utility.yul\":17524:17544   */\n      calldataload\n        /* \"#utility.yul\":17515:17544   */\n      swap1\n      pop\n        /* \"#utility.yul\":17553:17586   */\n      tag_490\n        /* \"#utility.yul\":17580:17585   */\n      dup2\n        /* \"#utility.yul\":17553:17586   */\n      tag_281\n      jump\t// in\n    tag_490:\n        /* \"#utility.yul\":17453:17592   */\n      swap3\n      swap2\n      pop\n      pop\n      jump\t// out\n        /* \"#utility.yul\":17616:18259   */\n    tag_283:\n        /* \"#utility.yul\":17710:17715   */\n      0x00\n        /* \"#utility.yul\":17735:17814   */\n      tag_492\n        /* \"#utility.yul\":17751:17813   */\n      tag_493\n        /* \"#utility.yul\":17806:17812   */\n      dup5\n        /* \"#utility.yul\":17751:17813   */\n      tag_280\n      jump\t// in\n    tag_493:\n        /* \"#utility.yul\":17735:17814   */\n      tag_241\n      jump\t// in\n    tag_492:\n        /* \"#utility.yul\":17726:17814   */\n      swap1\n      pop\n        /* \"#utility.yul\":17834:17839   */\n      dup1\n        /* \"#utility.yul\":17887:17891   */\n      0x20\n        /* \"#utility.yul\":17879:17885   */\n      dup5\n        /* \"#utility.yul\":17875:17892   */\n      mul\n        /* \"#utility.yul\":17867:17873   */\n      dup4\n        /* \"#utility.yul\":17863:17893   */\n      add\n        /* \"#utility.yul\":17916:17919   */\n      dup6\n        /* \"#utility.yul\":17908:17914   */\n      dup2\n        /* \"#utility.yul\":17905:17920   */\n      gt\n        /* \"#utility.yul\":17902:18024   */\n      iszero\n      tag_494\n      jumpi\n        /* \"#utility.yul\":17935:18014   */\n      tag_495\n      tag_273\n      jump\t// in\n    tag_495:\n        /* \"#utility.yul\":17902:18024   */\n    tag_494:\n        /* \"#utility.yul\":18050:18056   */\n      dup4\n        /* \"#utility.yul\":18033:18253   */\n    tag_496:\n        /* \"#utility.yul\":18067:18073   */\n      dup2\n        /* \"#utility.yul\":18062:18065   */\n      dup2\n        /* \"#utility.yul\":18059:18074   */\n      lt\n        /* \"#utility.yul\":18033:18253   */\n      iszero\n      tag_498\n      jumpi\n        /* \"#utility.yul\":18142:18145   */\n      dup1\n        /* \"#utility.yul\":18171:18208   */\n      tag_499\n        /* \"#utility.yul\":18204:18207   */\n      dup9\n        /* \"#utility.yul\":18192:18202   */\n      dup3\n        /* \"#utility.yul\":18171:18208   */\n      tag_282\n      jump\t// in\n    tag_499:\n        /* \"#utility.yul\":18166:18169   */\n      dup5\n        /* \"#utility.yul\":18159:18209   */\n      mstore\n        /* \"#utility.yul\":18238:18242   */\n      0x20\n        /* \"#utility.yul\":18233:18236   */\n      dup5\n        /* \"#utility.yul\":18229:18243   */\n      add\n        /* \"#utility.yul\":18222:18243   */\n      swap4\n      pop\n        /* \"#utility.yul\":18109:18253   */\n      pop\n        /* \"#utility.yul\":18093:18097   */\n      0x20\n        /* \"#utility.yul\":18088:18091   */\n      dup2\n        /* \"#utility.yul\":18084:18098   */\n      add\n        /* \"#utility.yul\":18077:18098   */\n      swap1\n      pop\n        /* \"#utility.yul\":18033:18253   */\n      jump(tag_496)\n    tag_498:\n        /* \"#utility.yul\":18037:18058   */\n      pop\n        /* \"#utility.yul\":17716:18259   */\n      pop\n      pop\n        /* \"#utility.yul\":17616:18259   */\n      swap4\n      swap3\n      pop\n      pop\n      pop\n      jump\t// out\n        /* \"#utility.yul\":18283:18622   */\n    tag_284:\n        /* \"#utility.yul\":18352:18357   */\n      0x00\n        /* \"#utility.yul\":18401:18404   */\n      dup3\n        /* \"#utility.yul\":18394:18398   */\n      0x1f\n        /* \"#utility.yul\":18386:18392   */\n      dup4\n        /* \"#utility.yul\":18382:18399   */\n      add\n        /* \"#utility.yul\":18378:18405   */\n      slt\n        /* \"#utility.yul\":18368:18490   */\n      tag_501\n      jumpi\n        /* \"#utility.yul\":18409:18488   */\n      tag_502\n      tag_236\n      jump\t// in\n    tag_502:\n        /* \"#utility.yul\":18368:18490   */\n    tag_501:\n        /* \"#utility.yul\":18513:18517   */\n      0x02\n        /* \"#utility.yul\":18535:18616   */\n      tag_503\n        /* \"#utility.yul\":18612:18615   */\n      dup5\n        /* \"#utility.yul\":18604:18610   */\n      dup3\n        /* \"#utility.yul\":18596:18602   */\n      dup6\n        /* \"#utility.yul\":18535:18616   */\n      tag_283\n      jump\t// in\n    tag_503:\n        /* \"#utility.yul\":18526:18616   */\n      swap2\n      pop\n        /* \"#utility.yul\":18358:18622   */\n      pop\n        /* \"#utility.yul\":18283:18622   */\n      swap3\n      swap2\n      pop\n      pop\n      jump\t// out\n        /* \"#utility.yul\":18628:18900   */\n    tag_285:\n        /* \"#utility.yul\":18726:18730   */\n      0x00\n        /* \"#utility.yul\":18816:18834   */\n      0xffffffffffffffff\n        /* \"#utility.yul\":18808:18814   */\n      dup3\n        /* \"#utility.yul\":18805:18835   */\n      gt\n        /* \"#utility.yul\":18802:18858   */\n      iszero\n      tag_505\n      jumpi\n        /* \"#utility.yul\":18838:18856   */\n      tag_506\n      tag_239\n      jump\t// in\n    tag_506:\n        /* \"#utility.yul\":18802:18858   */\n    tag_505:\n        /* \"#utility.yul\":18888:18892   */\n      0x20\n        /* \"#utility.yul\":18880:18886   */\n      dup3\n        /* \"#utility.yul\":18876:18893   */\n      mul\n        /* \"#utility.yul\":18868:18893   */\n      swap1\n      pop\n        /* \"#utility.yul\":18628:18900   */\n      swap2\n      swap1\n      pop\n      jump\t// out\n        /* \"#utility.yul\":18927:19639   */\n    tag_286:\n        /* \"#utility.yul\":19044:19049   */\n      0x00\n        /* \"#utility.yul\":19069:19171   */\n      tag_508\n        /* \"#utility.yul\":19085:19170   */\n      tag_509\n        /* \"#utility.yul\":19163:19169   */\n      dup5\n        /* \"#utility.yul\":19085:19170   */\n      tag_285\n      jump\t// in\n    tag_509:\n        /* \"#utility.yul\":19069:19171   */\n      tag_241\n      jump\t// in\n    tag_508:\n        /* \"#utility.yul\":19060:19171   */\n      swap1\n      pop\n        /* \"#utility.yul\":19191:19196   */\n      dup1\n        /* \"#utility.yul\":19244:19248   */\n      0x40\n        /* \"#utility.yul\":19236:19242   */\n      dup5\n        /* \"#utility.yul\":19232:19249   */\n      mul\n        /* \"#utility.yul\":19224:19230   */\n      dup4\n        /* \"#utility.yul\":19220:19250   */\n      add\n        /* \"#utility.yul\":19273:19276   */\n      dup6\n        /* \"#utility.yul\":19265:19271   */\n      dup2\n        /* \"#utility.yul\":19262:19277   */\n      gt\n        /* \"#utility.yul\":19259:19381   */\n      iszero\n      tag_510\n      jumpi\n        /* \"#utility.yul\":19292:19371   */\n      tag_511\n      tag_273\n      jump\t// in\n    tag_511:\n        /* \"#utility.yul\":19259:19381   */\n    tag_510:\n        /* \"#utility.yul\":19407:19413   */\n      dup4\n        /* \"#utility.yul\":19390:19633   */\n    tag_512:\n        /* \"#utility.yul\":19424:19430   */\n      dup2\n        /* \"#utility.yul\":19419:19422   */\n      dup2\n        /* \"#utility.yul\":19416:19431   */\n      lt\n        /* \"#utility.yul\":19390:19633   */\n      iszero\n      tag_514\n      jumpi\n        /* \"#utility.yul\":19499:19502   */\n      dup1\n        /* \"#utility.yul\":19528:19588   */\n      tag_515\n        /* \"#utility.yul\":19584:19587   */\n      dup9\n        /* \"#utility.yul\":19572:19582   */\n      dup3\n        /* \"#utility.yul\":19528:19588   */\n      tag_284\n      jump\t// in\n    tag_515:\n        /* \"#utility.yul\":19523:19526   */\n      dup5\n        /* \"#utility.yul\":19516:19589   */\n      mstore\n        /* \"#utility.yul\":19618:19622   */\n      0x20\n        /* \"#utility.yul\":19613:19616   */\n      dup5\n        /* \"#utility.yul\":19609:19623   */\n      add\n        /* \"#utility.yul\":19602:19623   */\n      swap4\n      pop\n        /* \"#utility.yul\":19466:19633   */\n      pop\n        /* \"#utility.yul\":19450:19454   */\n      0x40\n        /* \"#utility.yul\":19445:19448   */\n      dup2\n        /* \"#utility.yul\":19441:19455   */\n      add\n        /* \"#utility.yul\":19434:19455   */\n      swap1\n      pop\n        /* \"#utility.yul\":19390:19633   */\n      jump(tag_512)\n    tag_514:\n        /* \"#utility.yul\":19394:19415   */\n      pop\n        /* \"#utility.yul\":19050:19639   */\n      pop\n      pop\n        /* \"#utility.yul\":18927:19639   */\n      swap4\n      swap3\n      pop\n      pop\n      pop\n      jump\t// out\n        /* \"#utility.yul\":19666:20051   */\n    tag_287:\n        /* \"#utility.yul\":19758:19763   */\n      0x00\n        /* \"#utility.yul\":19807:19810   */\n      dup3\n        /* \"#utility.yul\":19800:19804   */\n      0x1f\n        /* \"#utility.yul\":19792:19798   */\n      dup4\n        /* \"#utility.yul\":19788:19805   */\n      add\n        /* \"#utility.yul\":19784:19811   */\n      slt\n        /* \"#utility.yul\":19774:19896   */\n      tag_517\n      jumpi\n        /* \"#utility.yul\":19815:19894   */\n      tag_518\n      tag_236\n      jump\t// in\n    tag_518:\n        /* \"#utility.yul\":19774:19896   */\n    tag_517:\n        /* \"#utility.yul\":19919:19923   */\n      0x02\n        /* \"#utility.yul\":19941:20045   */\n      tag_519\n        /* \"#utility.yul\":20041:20044   */\n      dup5\n        /* \"#utility.yul\":20033:20039   */\n      dup3\n        /* \"#utility.yul\":20025:20031   */\n      dup6\n        /* \"#utility.yul\":19941:20045   */\n      tag_286\n      jump\t// in\n    tag_519:\n        /* \"#utility.yul\":19932:20045   */\n      swap2\n      pop\n        /* \"#utility.yul\":19764:20051   */\n      pop\n        /* \"#utility.yul\":19666:20051   */\n      swap3\n      swap2\n      pop\n      pop\n      jump\t// out\n        /* \"#utility.yul\":20057:20391   */\n    tag_288:\n        /* \"#utility.yul\":20157:20161   */\n      0x00\n        /* \"#utility.yul\":20247:20265   */\n      0xffffffffffffffff\n        /* \"#utility.yul\":20239:20245   */\n      dup3\n        /* \"#utility.yul\":20236:20266   */\n      gt\n        /* \"#utility.yul\":20233:20289   */\n      iszero\n      tag_521\n      jumpi\n        /* \"#utility.yul\":20269:20287   */\n      tag_522\n      tag_239\n      jump\t// in\n    tag_522:\n        /* \"#utility.yul\":20233:20289   */\n    tag_521:\n        /* \"#utility.yul\":20319:20323   */\n      0x20\n        /* \"#utility.yul\":20311:20317   */\n      dup3\n        /* \"#utility.yul\":20307:20324   */\n      mul\n        /* \"#utility.yul\":20299:20324   */\n      swap1\n      pop\n        /* \"#utility.yul\":20379:20383   */\n      0x20\n        /* \"#utility.yul\":20373:20377   */\n      dup2\n        /* \"#utility.yul\":20369:20384   */\n      add\n        /* \"#utility.yul\":20361:20384   */\n      swap1\n      pop\n        /* \"#utility.yul\":20057:20391   */\n      swap2\n      swap1\n      pop\n      jump\t// out\n        /* \"#utility.yul\":20417:21196   */\n    tag_289:\n        /* \"#utility.yul\":20536:20541   */\n      0x00\n        /* \"#utility.yul\":20561:20665   */\n      tag_524\n        /* \"#utility.yul\":20577:20664   */\n      tag_525\n        /* \"#utility.yul\":20657:20663   */\n      dup5\n        /* \"#utility.yul\":20577:20664   */\n      tag_288\n      jump\t// in\n    tag_525:\n        /* \"#utility.yul\":20561:20665   */\n      tag_241\n      jump\t// in\n    tag_524:\n        /* \"#utility.yul\":20552:20665   */\n      swap1\n      pop\n        /* \"#utility.yul\":20685:20690   */\n      dup1\n        /* \"#utility.yul\":20714:20720   */\n      dup4\n        /* \"#utility.yul\":20707:20712   */\n      dup3\n        /* \"#utility.yul\":20700:20721   */\n      mstore\n        /* \"#utility.yul\":20748:20752   */\n      0x20\n        /* \"#utility.yul\":20741:20746   */\n      dup3\n        /* \"#utility.yul\":20737:20753   */\n      add\n        /* \"#utility.yul\":20730:20753   */\n      swap1\n      pop\n        /* \"#utility.yul\":20801:20805   */\n      0x40\n        /* \"#utility.yul\":20793:20799   */\n      dup5\n        /* \"#utility.yul\":20789:20806   */\n      mul\n        /* \"#utility.yul\":20781:20787   */\n      dup4\n        /* \"#utility.yul\":20777:20807   */\n      add\n        /* \"#utility.yul\":20830:20833   */\n      dup6\n        /* \"#utility.yul\":20822:20828   */\n      dup2\n        /* \"#utility.yul\":20819:20834   */\n      gt\n        /* \"#utility.yul\":20816:20938   */\n      iszero\n      tag_526\n      jumpi\n        /* \"#utility.yul\":20849:20928   */\n      tag_527\n      tag_273\n      jump\t// in\n    tag_527:\n        /* \"#utility.yul\":20816:20938   */\n    tag_526:\n        /* \"#utility.yul\":20964:20970   */\n      dup4\n        /* \"#utility.yul\":20947:21190   */\n    tag_528:\n        /* \"#utility.yul\":20981:20987   */\n      dup2\n        /* \"#utility.yul\":20976:20979   */\n      dup2\n        /* \"#utility.yul\":20973:20988   */\n      lt\n        /* \"#utility.yul\":20947:21190   */\n      iszero\n      tag_530\n      jumpi\n        /* \"#utility.yul\":21056:21059   */\n      dup1\n        /* \"#utility.yul\":21085:21145   */\n      tag_531\n        /* \"#utility.yul\":21141:21144   */\n      dup9\n        /* \"#utility.yul\":21129:21139   */\n      dup3\n        /* \"#utility.yul\":21085:21145   */\n      tag_284\n      jump\t// in\n    tag_531:\n        /* \"#utility.yul\":21080:21083   */\n      dup5\n        /* \"#utility.yul\":21073:21146   */\n      mstore\n        /* \"#utility.yul\":21175:21179   */\n      0x20\n        /* \"#utility.yul\":21170:21173   */\n      dup5\n        /* \"#utility.yul\":21166:21180   */\n      add\n        /* \"#utility.yul\":21159:21180   */\n      swap4\n      pop\n        /* \"#utility.yul\":21023:21190   */\n      pop\n        /* \"#utility.yul\":21007:21011   */\n      0x40\n        /* \"#utility.yul\":21002:21005   */\n      dup2\n        /* \"#utility.yul\":20998:21012   */\n      add\n        /* \"#utility.yul\":20991:21012   */\n      swap1\n      pop\n        /* \"#utility.yul\":20947:21190   */\n      jump(tag_528)\n    tag_530:\n        /* \"#utility.yul\":20951:20972   */\n      pop\n        /* \"#utility.yul\":20542:21196   */\n      pop\n      pop\n        /* \"#utility.yul\":20417:21196   */\n      swap4\n      swap3\n      pop\n      pop\n      pop\n      jump\t// out\n        /* \"#utility.yul\":21222:21638   */\n    tag_290:\n        /* \"#utility.yul\":21316:21321   */\n      0x00\n        /* \"#utility.yul\":21365:21368   */\n      dup3\n        /* \"#utility.yul\":21358:21362   */\n      0x1f\n        /* \"#utility.yul\":21350:21356   */\n      dup4\n        /* \"#utility.yul\":21346:21363   */\n      add\n        /* \"#utility.yul\":21342:21369   */\n      slt\n        /* \"#utility.yul\":21332:21454   */\n      tag_533\n      jumpi\n        /* \"#utility.yul\":21373:21452   */\n      tag_534\n      tag_236\n      jump\t// in\n    tag_534:\n        /* \"#utility.yul\":21332:21454   */\n    tag_533:\n        /* \"#utility.yul\":21490:21496   */\n      dup2\n        /* \"#utility.yul\":21477:21497   */\n      calldataload\n        /* \"#utility.yul\":21515:21632   */\n      tag_535\n        /* \"#utility.yul\":21628:21631   */\n      dup5\n        /* \"#utility.yul\":21620:21626   */\n      dup3\n        /* \"#utility.yul\":21613:21617   */\n      0x20\n        /* \"#utility.yul\":21605:21611   */\n      dup7\n        /* \"#utility.yul\":21601:21618   */\n      add\n        /* \"#utility.yul\":21515:21632   */\n      tag_289\n      jump\t// in\n    tag_535:\n        /* \"#utility.yul\":21506:21632   */\n      swap2\n      pop\n        /* \"#utility.yul\":21322:21638   */\n      pop\n        /* \"#utility.yul\":21222:21638   */\n      swap3\n      swap2\n      pop\n      pop\n      jump\t// out\n        /* \"#utility.yul\":21644:23043   */\n    tag_111:\n        /* \"#utility.yul\":21902:21908   */\n      0x00\n        /* \"#utility.yul\":21910:21916   */\n      dup1\n        /* \"#utility.yul\":21918:21924   */\n      0x00\n        /* \"#utility.yul\":21926:21932   */\n      dup1\n        /* \"#utility.yul\":21934:21940   */\n      0x00\n        /* \"#utility.yul\":21983:21986   */\n      0x0160\n        /* \"#utility.yul\":21971:21980   */\n      dup7\n        /* \"#utility.yul\":21962:21969   */\n      dup9\n        /* \"#utility.yul\":21958:21981   */\n      sub\n        /* \"#utility.yul\":21954:21987   */\n      slt\n        /* \"#utility.yul\":21951:22071   */\n      iszero\n      tag_537\n      jumpi\n        /* \"#utility.yul\":21990:22069   */\n      tag_538\n      tag_234\n      jump\t// in\n    tag_538:\n        /* \"#utility.yul\":21951:22071   */\n    tag_537:\n        /* \"#utility.yul\":22110:22111   */\n      0x00\n        /* \"#utility.yul\":22135:22211   */\n      tag_539\n        /* \"#utility.yul\":22203:22210   */\n      dup9\n        /* \"#utility.yul\":22194:22200   */\n      dup3\n        /* \"#utility.yul\":22183:22192   */\n      dup10\n        /* \"#utility.yul\":22179:22201   */\n      add\n        /* \"#utility.yul\":22135:22211   */\n      tag_284\n      jump\t// in\n    tag_539:\n        /* \"#utility.yul\":22125:22211   */\n      swap6\n      pop\n        /* \"#utility.yul\":22081:22221   */\n      pop\n        /* \"#utility.yul\":22260:22262   */\n      0x40\n        /* \"#utility.yul\":22286:22385   */\n      tag_540\n        /* \"#utility.yul\":22377:22384   */\n      dup9\n        /* \"#utility.yul\":22368:22374   */\n      dup3\n        /* \"#utility.yul\":22357:22366   */\n      dup10\n        /* \"#utility.yul\":22353:22375   */\n      add\n        /* \"#utility.yul\":22286:22385   */\n      tag_287\n      jump\t// in\n    tag_540:\n        /* \"#utility.yul\":22276:22385   */\n      swap5\n      pop\n        /* \"#utility.yul\":22231:22395   */\n      pop\n        /* \"#utility.yul\":22434:22437   */\n      0xc0\n        /* \"#utility.yul\":22461:22537   */\n      tag_541\n        /* \"#utility.yul\":22529:22536   */\n      dup9\n        /* \"#utility.yul\":22520:22526   */\n      dup3\n        /* \"#utility.yul\":22509:22518   */\n      dup10\n        /* \"#utility.yul\":22505:22527   */\n      add\n        /* \"#utility.yul\":22461:22537   */\n      tag_284\n      jump\t// in\n    tag_541:\n        /* \"#utility.yul\":22451:22537   */\n      swap4\n      pop\n        /* \"#utility.yul\":22405:22547   */\n      pop\n        /* \"#utility.yul\":22586:22589   */\n      0x0100\n        /* \"#utility.yul\":22613:22689   */\n      tag_542\n        /* \"#utility.yul\":22681:22688   */\n      dup9\n        /* \"#utility.yul\":22672:22678   */\n      dup3\n        /* \"#utility.yul\":22661:22670   */\n      dup10\n        /* \"#utility.yul\":22657:22679   */\n      add\n        /* \"#utility.yul\":22613:22689   */\n      tag_284\n      jump\t// in\n    tag_542:\n        /* \"#utility.yul\":22603:22689   */\n      swap3\n      pop\n        /* \"#utility.yul\":22557:22699   */\n      pop\n        /* \"#utility.yul\":22766:22769   */\n      0x0140\n        /* \"#utility.yul\":22755:22764   */\n      dup7\n        /* \"#utility.yul\":22751:22770   */\n      add\n        /* \"#utility.yul\":22738:22771   */\n      calldataload\n        /* \"#utility.yul\":22798:22816   */\n      0xffffffffffffffff\n        /* \"#utility.yul\":22790:22796   */\n      dup2\n        /* \"#utility.yul\":22787:22817   */\n      gt\n        /* \"#utility.yul\":22784:22901   */\n      iszero\n      tag_543\n      jumpi\n        /* \"#utility.yul\":22820:22899   */\n      tag_544\n      tag_235\n      jump\t// in\n    tag_544:\n        /* \"#utility.yul\":22784:22901   */\n    tag_543:\n        /* \"#utility.yul\":22925:23026   */\n      tag_545\n        /* \"#utility.yul\":23018:23025   */\n      dup9\n        /* \"#utility.yul\":23009:23015   */\n      dup3\n        /* \"#utility.yul\":22998:23007   */\n      dup10\n        /* \"#utility.yul\":22994:23016   */\n      add\n        /* \"#utility.yul\":22925:23026   */\n      tag_290\n      jump\t// in\n    tag_545:\n        /* \"#utility.yul\":22915:23026   */\n      swap2\n      pop\n        /* \"#utility.yul\":22709:23036   */\n      pop\n        /* \"#utility.yul\":21644:23043   */\n      swap3\n      swap6\n      pop\n      swap3\n      swap6\n      swap1\n      swap4\n      pop\n      jump\t// out\n        /* \"#utility.yul\":23049:23378   */\n    tag_118:\n        /* \"#utility.yul\":23108:23114   */\n      0x00\n        /* \"#utility.yul\":23157:23159   */\n      0x20\n        /* \"#utility.yul\":23145:23154   */\n      dup3\n        /* \"#utility.yul\":23136:23143   */\n      dup5\n        /* \"#utility.yul\":23132:23155   */\n      sub\n        /* \"#utility.yul\":23128:23160   */\n      slt\n        /* \"#utility.yul\":23125:23244   */\n      iszero\n      tag_547\n      jumpi\n        /* \"#utility.yul\":23163:23242   */\n      tag_548\n      tag_234\n      jump\t// in\n    tag_548:\n        /* \"#utility.yul\":23125:23244   */\n    tag_547:\n        /* \"#utility.yul\":23283:23284   */\n      0x00\n        /* \"#utility.yul\":23308:23361   */\n      tag_549\n        /* \"#utility.yul\":23353:23360   */\n      dup5\n        /* \"#utility.yul\":23344:23350   */\n      dup3\n        /* \"#utility.yul\":23333:23342   */\n      dup6\n        /* \"#utility.yul\":23329:23351   */\n      add\n        /* \"#utility.yul\":23308:23361   */\n      tag_275\n      jump\t// in\n    tag_549:\n        /* \"#utility.yul\":23298:23361   */\n      swap2\n      pop\n        /* \"#utility.yul\":23254:23371   */\n      pop\n        /* \"#utility.yul\":23049:23378   */\n      swap3\n      swap2\n      pop\n      pop\n      jump\t// out\n\n    auxdata: 0xa26469706673582212201e0a7fe49fd130e28d5c5c22847929792a370d81b7a1d71900c9254672e3a78964736f6c634300081a0033\n}\n",
				"bytecode": {
					"linkReferences": {},
					"object": "608060405234801561000f575f80fd5b506040516120cb3803806120cb8339818101604052810190610031919061081b565b885f73ffffffffffffffffffffffffffffffffffffffff168173ffffffffffffffffffffffffffffffffffffffff16036100a2575f6040517f1e4fbdf70000000000000000000000000000000000000000000000000000000081526004016100999190610928565b60405180910390fd5b6100b18161021760201b60201c565b50600180819055505f60025f6101000a81548160ff02191690831515021790555087600260016101000a81548173ffffffffffffffffffffffffffffffffffffffff021916908373ffffffffffffffffffffffffffffffffffffffff1602179055508660035f6101000a81548173ffffffffffffffffffffffffffffffffffffffff021916908373ffffffffffffffffffffffffffffffffffffffff1602179055506040518060a001604052808681526020018581526020018481526020018381526020018281525060095f820151815f019060026101919291906102db565b506020820151816002019060026101a992919061031b565b506040820151816006019060026101c19291906102db565b506060820151816008019060026101d99291906102db565b50608082015181600a0190805190602001906101f692919061036b565b50905050610209866102d860201b60201c565b505050505050505050610941565b5f805f9054906101000a900473ffffffffffffffffffffffffffffffffffffffff169050815f806101000a81548173ffffffffffffffffffffffffffffffffffffffff021916908373ffffffffffffffffffffffffffffffffffffffff1602179055508173ffffffffffffffffffffffffffffffffffffffff168173ffffffffffffffffffffffffffffffffffffffff167f8be0079c531659141344cd1fd0a4f28419497f9722a3daafe3b4186f6b6457e060405160405180910390a35050565b50565b826002810192821561030a579160200282015b828111156103095782518255916020019190600101906102ee565b5b50905061031791906103c7565b5090565b8260028002810192821561035a579160200282015b82811115610359578251829060026103499291906102db565b5091602001919060020190610330565b5b50905061036791906103e2565b5090565b828054828255905f5260205f209060020281019282156103b6579160200282015b828111156103b5578251829060026103a59291906102db565b509160200191906002019061038c565b5b5090506103c391906103e2565b5090565b5b808211156103de575f815f9055506001016103c8565b5090565b5b80821115610401575f81816103f89190610405565b506002016103e3565b5090565b505f81556001015f9055565b5f604051905090565b5f80fd5b5f80fd5b5f73ffffffffffffffffffffffffffffffffffffffff82169050919050565b5f61044b82610422565b9050919050565b61045b81610441565b8114610465575f80fd5b50565b5f8151905061047681610452565b92915050565b5f80fd5b5f601f19601f8301169050919050565b7f4e487b71000000000000000000000000000000000000000000000000000000005f52604160045260245ffd5b6104c682610480565b810181811067ffffffffffffffff821117156104e5576104e4610490565b5b80604052505050565b5f6104f7610411565b905061050382826104bd565b919050565b5f67ffffffffffffffff82111561052257610521610490565b5b602082029050602081019050919050565b5f80fd5b5f61054961054484610508565b6104ee565b9050808382526020820190506020840283018581111561056c5761056b610533565b5b835b8181101561059557806105818882610468565b84526020840193505060208101905061056e565b5050509392505050565b5f82601f8301126105b3576105b261047c565b5b81516105c3848260208601610537565b91505092915050565b5f67ffffffffffffffff8211156105e6576105e5610490565b5b602082029050919050565b5f819050919050565b610603816105f1565b811461060d575f80fd5b50565b5f8151905061061e816105fa565b92915050565b5f610636610631846105cc565b6104ee565b905080602084028301858111156106505761064f610533565b5b835b8181101561067957806106658882610610565b845260208401935050602081019050610652565b5050509392505050565b5f82601f8301126106975761069661047c565b5b60026106a4848285610624565b91505092915050565b5f67ffffffffffffffff8211156106c7576106c6610490565b5b602082029050919050565b5f6106e46106df846106ad565b6104ee565b905080604084028301858111156106fe576106fd610533565b5b835b8181101561072757806107138882610683565b845260208401935050604081019050610700565b5050509392505050565b5f82601f8301126107455761074461047c565b5b60026107528482856106d2565b91505092915050565b5f67ffffffffffffffff82111561077557610774610490565b5b602082029050602081019050919050565b5f6107986107938461075b565b6104ee565b905080838252602082019050604084028301858111156107bb576107ba610533565b5b835b818110156107e457806107d08882610683565b8452602084019350506040810190506107bd565b5050509392505050565b5f82601f8301126108025761080161047c565b5b8151610812848260208601610786565b91505092915050565b5f805f805f805f805f6101e08a8c0312156108395761083861041a565b5b5f6108468c828d01610468565b99505060206108578c828d01610468565b98505060406108688c828d01610468565b97505060608a015167ffffffffffffffff8111156108895761088861041e565b5b6108958c828d0161059f565b96505060806108a68c828d01610683565b95505060c06108b78c828d01610731565b9450506101406108c98c828d01610683565b9350506101806108db8c828d01610683565b9250506101c08a015167ffffffffffffffff8111156108fd576108fc61041e565b5b6109098c828d016107ee565b9150509295985092959850929598565b61092281610441565b82525050565b5f60208201905061093b5f830184610919565b92915050565b61177d8061094e5f395ff3fe608060405234801561000f575f80fd5b506004361061014b575f3560e01c806366800950116100c1578063872919af1161007a578063872919af146103875780638da5cb5b146103a55780638e98e0b9146103c35780638fc06976146103e1578063b932bcfe146103fd578063f2fde38b1461041b5761014b565b806366800950146102d9578063715018a6146102f55780637269367b146102ff5780637ecf686d1461032f5780638456cb591461035f57806384acd1bb146103695761014b565b806338528f531161011357806338528f53146102145780633870cd121461023257806338a4be87146102635780633f4ba83a146102935780634fd686c81461029d5780635c975abb146102bb5761014b565b80630665f04b1461014f57806308b64d011461016d578063197c6e77146101895780632b7ac3f3146101bd5780632bbd59ca146101db575b5f80fd5b610157610437565b6040516101649190610ccd565b60405180910390f35b61018760048036038101906101829190610e3a565b61043c565b005b6101a3600480360381019061019e9190610eb0565b610458565b6040516101b4959493929190610f7e565b60405180910390f35b6101c5610467565b6040516101d29190611031565b60405180910390f35b6101f560048036038101906101f09190611074565b61048c565b60405161020b9a999897969594939291906110ed565b60405180910390f35b61021c610542565b60405161022991906111a5565b60405180910390f35b61024c600480360381019061024791906111e8565b610557565b60405161025a929190611213565b60405180910390f35b61027d60048036038101906102789190611074565b610594565b60405161028a919061123a565b60405180910390f35b61029b61059a565b005b6102a56105ac565b6040516102b2919061126e565b60405180910390f35b6102c36105b1565b6040516102d0919061123a565b60405180910390f35b6102f360048036038101906102ee9190611375565b6105c6565b005b6102fd6105da565b005b61031960048036038101906103149190611074565b6105ed565b60405161032691906113bc565b60405180910390f35b61034960048036038101906103449190611074565b610602565b604051610356919061123a565b60405180910390f35b61036761061f565b005b610371610631565b60405161037e91906113f5565b60405180910390f35b61038f610657565b60405161039c91906111a5565b60405180910390f35b6103ad61065e565b6040516103ba919061140e565b60405180910390f35b6103cb610685565b6040516103d89190611427565b60405180910390f35b6103fb60048036038101906103f69190611686565b61068a565b005b610405610740565b60405161041291906113bc565b60405180910390f35b6104356004803603810190610430919061171c565b610747565b005b606090565b6104446107cb565b61044c610811565b610454610852565b5050565b5f805f80606091939590929450565b60035f9054906101000a900473ffffffffffffffffffffffffffffffffffffffff1681565b6004602052805f5260405f205f91509050805f015490806001015f9054906101000a900461ffff16908060010160029054906101000a900461ffff1690806002015490806003015490806004015f9054906101000a900473ffffffffffffffffffffffffffffffffffffffff1690806005015f9054906101000a900473ffffffffffffffffffffffffffffffffffffffff16908060050160149054906101000a900460ff1690806006015490806007015490508a565b60085f9054906101000a900463ffffffff1681565b6006602052805f5260405f205f91509050806001015f9054906101000a900463ffffffff16908060010160049054906101000a900460ff16905082565b5f919050565b6105a261085b565b6105aa6108e2565b565b600181565b5f60025f9054906101000a900460ff16905090565b6105ce61085b565b6105d781610943565b50565b6105e261085b565b6105eb5f610946565b565b6007602052805f5260405f205f915090505481565b6005602052805f5260405f205f915054906101000a900460ff1681565b61062761085b565b61062f610a07565b565b600260019054906101000a900473ffffffffffffffffffffffffffffffffffffffff1681565b6201518081565b5f805f9054906101000a900473ffffffffffffffffffffffffffffffffffffffff16905090565b600181565b61069261085b565b6040518060a001604052808681526020018581526020018481526020018381526020018281525060095f820151815f019060026106d0929190610ab0565b506020820151816002019060026106e8929190610af0565b50604082015181600601906002610700929190610ab0565b50606082015181600801906002610718929190610ab0565b50608082015181600a019080519060200190610735929190610b40565b509050505050505050565b6201518081565b61074f61085b565b5f73ffffffffffffffffffffffffffffffffffffffff168173ffffffffffffffffffffffffffffffffffffffff16036107bf575f6040517f1e4fbdf70000000000000000000000000000000000000000000000000000000081526004016107b6919061140e565b60405180910390fd5b6107c881610946565b50565b600260015403610807576040517f3ee5aeb500000000000000000000000000000000000000000000000000000000815260040160405180910390fd5b6002600181905550565b6108196105b1565b15610850576040517fd93c066500000000000000000000000000000000000000000000000000000000815260040160405180910390fd5b565b60018081905550565b610863610a69565b73ffffffffffffffffffffffffffffffffffffffff1661088161065e565b73ffffffffffffffffffffffffffffffffffffffff16146108e0576108a4610a69565b6040517f118cdaa70000000000000000000000000000000000000000000000000000000081526004016108d7919061140e565b60405180910390fd5b565b6108ea610a70565b5f60025f6101000a81548160ff0219169083151502179055507f5db9ee0a495bf2e6ff9c91a7834c1ba4fdd244a5e8aa4e537bd38aeae4b073aa61092c610a69565b604051610939919061140e565b60405180910390a1565b50565b5f805f9054906101000a900473ffffffffffffffffffffffffffffffffffffffff169050815f806101000a81548173ffffffffffffffffffffffffffffffffffffffff021916908373ffffffffffffffffffffffffffffffffffffffff1602179055508173ffffffffffffffffffffffffffffffffffffffff168173ffffffffffffffffffffffffffffffffffffffff167f8be0079c531659141344cd1fd0a4f28419497f9722a3daafe3b4186f6b6457e060405160405180910390a35050565b610a0f610811565b600160025f6101000a81548160ff0219169083151502179055507f62e78cea01bee320cd4e420270b5ea74000d11b0c9f74754ebdbfc544b05a258610a52610a69565b604051610a5f919061140e565b60405180910390a1565b5f33905090565b610a786105b1565b610aae576040517f8dfc202b00000000000000000000000000000000000000000000000000000000815260040160405180910390fd5b565b8260028101928215610adf579160200282015b82811115610ade578251825591602001919060010190610ac3565b5b509050610aec9190610b9c565b5090565b82600280028101928215610b2f579160200282015b82811115610b2e57825182906002610b1e929190610ab0565b5091602001919060020190610b05565b5b509050610b3c9190610bb7565b5090565b828054828255905f5260205f20906002028101928215610b8b579160200282015b82811115610b8a57825182906002610b7a929190610ab0565b5091602001919060020190610b61565b5b509050610b989190610bb7565b5090565b5b80821115610bb3575f815f905550600101610b9d565b5090565b5b80821115610bd6575f8181610bcd9190610bda565b50600201610bb8565b5090565b505f81556001015f9055565b5f81519050919050565b5f82825260208201905092915050565b5f819050602082019050919050565b5f73ffffffffffffffffffffffffffffffffffffffff82169050919050565b5f610c3882610c0f565b9050919050565b610c4881610c2e565b82525050565b5f610c598383610c3f565b60208301905092915050565b5f602082019050919050565b5f610c7b82610be6565b610c858185610bf0565b9350610c9083610c00565b805f5b83811015610cc0578151610ca78882610c4e565b9750610cb283610c65565b925050600181019050610c93565b5085935050505092915050565b5f6020820190508181035f830152610ce58184610c71565b905092915050565b5f604051905090565b5f80fd5b5f80fd5b5f80fd5b5f80fd5b5f601f19601f8301169050919050565b7f4e487b71000000000000000000000000000000000000000000000000000000005f52604160045260245ffd5b610d4c82610d06565b810181811067ffffffffffffffff82111715610d6b57610d6a610d16565b5b80604052505050565b5f610d7d610ced565b9050610d898282610d43565b919050565b5f67ffffffffffffffff821115610da857610da7610d16565b5b610db182610d06565b9050602081019050919050565b828183375f83830152505050565b5f610dde610dd984610d8e565b610d74565b905082815260208101848484011115610dfa57610df9610d02565b5b610e05848285610dbe565b509392505050565b5f82601f830112610e2157610e20610cfe565b5b8135610e31848260208601610dcc565b91505092915050565b5f8060408385031215610e5057610e4f610cf6565b5b5f83013567ffffffffffffffff811115610e6d57610e6c610cfa565b5b610e7985828601610e0d565b925050602083013567ffffffffffffffff811115610e9a57610e99610cfa565b5b610ea685828601610e0d565b9150509250929050565b5f60208284031215610ec557610ec4610cf6565b5b5f82013567ffffffffffffffff811115610ee257610ee1610cfa565b5b610eee84828501610e0d565b91505092915050565b5f819050919050565b610f0981610ef7565b82525050565b610f1881610c2e565b82525050565b5f81519050919050565b5f82825260208201905092915050565b8281835e5f83830152505050565b5f610f5082610f1e565b610f5a8185610f28565b9350610f6a818560208601610f38565b610f7381610d06565b840191505092915050565b5f60a082019050610f915f830188610f00565b610f9e6020830187610f00565b610fab6040830186610f0f565b610fb86060830185610f0f565b8181036080830152610fca8184610f46565b90509695505050505050565b5f819050919050565b5f610ff9610ff4610fef84610c0f565b610fd6565b610c0f565b9050919050565b5f61100a82610fdf565b9050919050565b5f61101b82611000565b9050919050565b61102b81611011565b82525050565b5f6020820190506110445f830184611022565b92915050565b61105381610ef7565b811461105d575f80fd5b50565b5f8135905061106e8161104a565b92915050565b5f6020828403121561108957611088610cf6565b5b5f61109684828501611060565b91505092915050565b5f61ffff82169050919050565b6110b58161109f565b82525050565b5f8115159050919050565b6110cf816110bb565b82525050565b5f819050919050565b6110e7816110d5565b82525050565b5f610140820190506111015f83018d610f00565b61110e602083018c6110ac565b61111b604083018b6110ac565b611128606083018a610f00565b6111356080830189610f00565b61114260a0830188610f0f565b61114f60c0830187610f0f565b61115c60e08301866110c6565b61116a6101008301856110de565b611178610120830184610f00565b9b9a5050505050505050505050565b5f63ffffffff82169050919050565b61119f81611187565b82525050565b5f6020820190506111b85f830184611196565b92915050565b6111c781611187565b81146111d1575f80fd5b50565b5f813590506111e2816111be565b92915050565b5f602082840312156111fd576111fc610cf6565b5b5f61120a848285016111d4565b91505092915050565b5f6040820190506112265f830185611196565b61123360208301846110c6565b9392505050565b5f60208201905061124d5f8301846110c6565b92915050565b5f60ff82169050919050565b61126881611253565b82525050565b5f6020820190506112815f83018461125f565b92915050565b5f67ffffffffffffffff8211156112a1576112a0610d16565b5b602082029050602081019050919050565b5f80fd5b6112bf81610c2e565b81146112c9575f80fd5b50565b5f813590506112da816112b6565b92915050565b5f6112f26112ed84611287565b610d74565b90508083825260208201905060208402830185811115611315576113146112b2565b5b835b8181101561133e578061132a88826112cc565b845260208401935050602081019050611317565b5050509392505050565b5f82601f83011261135c5761135b610cfe565b5b813561136c8482602086016112e0565b91505092915050565b5f6020828403121561138a57611389610cf6565b5b5f82013567ffffffffffffffff8111156113a7576113a6610cfa565b5b6113b384828501611348565b91505092915050565b5f6020820190506113cf5f8301846110de565b92915050565b5f6113df82611000565b9050919050565b6113ef816113d5565b82525050565b5f6020820190506114085f8301846113e6565b92915050565b5f6020820190506114215f830184610f0f565b92915050565b5f60208201905061143a5f8301846110ac565b92915050565b5f67ffffffffffffffff82111561145a57611459610d16565b5b602082029050919050565b61146e816110d5565b8114611478575f80fd5b50565b5f8135905061148981611465565b92915050565b5f6114a161149c84611440565b610d74565b905080602084028301858111156114bb576114ba6112b2565b5b835b818110156114e457806114d0888261147b565b8452602084019350506020810190506114bd565b5050509392505050565b5f82601f83011261150257611501610cfe565b5b600261150f84828561148f565b91505092915050565b5f67ffffffffffffffff82111561153257611531610d16565b5b602082029050919050565b5f61154f61154a84611518565b610d74565b90508060408402830185811115611569576115686112b2565b5b835b81811015611592578061157e88826114ee565b84526020840193505060408101905061156b565b5050509392505050565b5f82601f8301126115b0576115af610cfe565b5b60026115bd84828561153d565b91505092915050565b5f67ffffffffffffffff8211156115e0576115df610d16565b5b602082029050602081019050919050565b5f6116036115fe846115c6565b610d74565b90508083825260208201905060408402830185811115611626576116256112b2565b5b835b8181101561164f578061163b88826114ee565b845260208401935050604081019050611628565b5050509392505050565b5f82601f83011261166d5761166c610cfe565b5b813561167d8482602086016115f1565b91505092915050565b5f805f805f61016086880312156116a05761169f610cf6565b5b5f6116ad888289016114ee565b95505060406116be8882890161159c565b94505060c06116cf888289016114ee565b9350506101006116e1888289016114ee565b92505061014086013567ffffffffffffffff81111561170357611702610cfa565b5b61170f88828901611659565b9150509295509295909350565b5f6020828403121561173157611730610cf6565b5b5f61173e848285016112cc565b9150509291505056fea26469706673582212201e0a7fe49fd130e28d5c5c22847929792a370d81b7a1d71900c9254672e3a78964736f6c634300081a0033",
					"opcodes": "PUSH1 0x80 PUSH1 0x40 MSTORE CALLVALUE DUP1 ISZERO PUSH2 0xF JUMPI PUSH0 DUP1 REVERT JUMPDEST POP PUSH1 0x40 MLOAD PUSH2 0x20CB CODESIZE SUB DUP1 PUSH2 0x20CB DUP4 CODECOPY DUP2 DUP2 ADD PUSH1 0x40 MSTORE DUP2 ADD SWAP1 PUSH2 0x31 SWAP2 SWAP1 PUSH2 0x81B JUMP JUMPDEST DUP9 PUSH0 PUSH20 0xFFFFFFFFFFFFFFFFFFFFFFFFFFFFFFFFFFFFFFFF AND DUP2 PUSH20 0xFFFFFFFFFFFFFFFFFFFFFFFFFFFFFFFFFFFFFFFF AND SUB PUSH2 0xA2 JUMPI PUSH0 PUSH1 0x40 MLOAD PUSH32 0x1E4FBDF700000000000000000000000000000000000000000000000000000000 DUP2 MSTORE PUSH1 0x4 ADD PUSH2 0x99 SWAP2 SWAP1 PUSH2 0x928 JUMP JUMPDEST PUSH1 0x40 MLOAD DUP1 SWAP2 SUB SWAP1 REVERT JUMPDEST PUSH2 0xB1 DUP2 PUSH2 0x217 PUSH1 0x20 SHL PUSH1 0x20 SHR JUMP JUMPDEST POP PUSH1 0x1 DUP1 DUP2 SWAP1 SSTORE POP PUSH0 PUSH1 0x2 PUSH0 PUSH2 0x100 EXP DUP2 SLOAD DUP2 PUSH1 0xFF MUL NOT AND SWAP1 DUP4 ISZERO ISZERO MUL OR SWAP1 SSTORE POP DUP8 PUSH1 0x2 PUSH1 0x1 PUSH2 0x100 EXP DUP2 SLOAD DUP2 PUSH20 0xFFFFFFFFFFFFFFFFFFFFFFFFFFFFFFFFFFFFFFFF MUL NOT AND SWAP1 DUP4 PUSH20 0xFFFFFFFFFFFFFFFFFFFFFFFFFFFFFFFFFFFFFFFF AND MUL OR SWAP1 SSTORE POP DUP7 PUSH1 0x3 PUSH0 PUSH2 0x100 EXP DUP2 SLOAD DUP2 PUSH20 0xFFFFFFFFFFFFFFFFFFFFFFFFFFFFFFFFFFFFFFFF MUL NOT AND SWAP1 DUP4 PUSH20 0xFFFFFFFFFFFFFFFFFFFFFFFFFFFFFFFFFFFFFFFF AND MUL OR SWAP1 SSTORE POP PUSH1 0x40 MLOAD DUP1 PUSH1 0xA0 ADD PUSH1 0x40 MSTORE DUP1 DUP7 DUP2 MSTORE PUSH1 0x20 ADD DUP6 DUP2 MSTORE PUSH1 0x20 ADD DUP5 DUP2 MSTORE PUSH1 0x20 ADD DUP4 DUP2 MSTORE PUSH1 0x20 ADD DUP3 DUP2 MSTORE POP PUSH1 0x9 PUSH0 DUP3 ADD MLOAD DUP2 PUSH0 ADD SWAP1 PUSH1 0x2 PUSH2 0x191 SWAP3 SWAP2 SWAP1 PUSH2 0x2DB JUMP JUMPDEST POP PUSH1 0x20 DUP3 ADD MLOAD DUP2 PUSH1 0x2 ADD SWAP1 PUSH1 0x2 PUSH2 0x1A9 SWAP3 SWAP2 SWAP1 PUSH2 0x31B JUMP JUMPDEST POP PUSH1 0x40 DUP3 ADD MLOAD DUP2 PUSH1 0x6 ADD SWAP1 PUSH1 0x2 PUSH2 0x1C1 SWAP3 SWAP2 SWAP1 PUSH2 0x2DB JUMP JUMPDEST POP PUSH1 0x60 DUP3 ADD MLOAD DUP2 PUSH1 0x8 ADD SWAP1 PUSH1 0x2 PUSH2 0x1D9 SWAP3 SWAP2 SWAP1 PUSH2 0x2DB JUMP JUMPDEST POP PUSH1 0x80 DUP3 ADD MLOAD DUP2 PUSH1 0xA ADD SWAP1 DUP1 MLOAD SWAP1 PUSH1 0x20 ADD SWAP1 PUSH2 0x1F6 SWAP3 SWAP2 SWAP1 PUSH2 0x36B JUMP JUMPDEST POP SWAP1 POP POP PUSH2 0x209 DUP7 PUSH2 0x2D8 PUSH1 0x20 SHL PUSH1 0x20 SHR JUMP JUMPDEST POP POP POP POP POP POP POP POP POP PUSH2 0x941 JUMP JUMPDEST PUSH0 DUP1 PUSH0 SWAP1 SLOAD SWAP1 PUSH2 0x100 EXP SWAP1 DIV PUSH20 0xFFFFFFFFFFFFFFFFFFFFFFFFFFFFFFFFFFFFFFFF AND SWAP1 POP DUP2 PUSH0 DUP1 PUSH2 0x100 EXP DUP2 SLOAD DUP2 PUSH20 0xFFFFFFFFFFFFFFFFFFFFFFFFFFFFFFFFFFFFFFFF MUL NOT AND SWAP1 DUP4 PUSH20 0xFFFFFFFFFFFFFFFFFFFFFFFFFFFFFFFFFFFFFFFF AND MUL OR SWAP1 SSTORE POP DUP2 PUSH20 0xFFFFFFFFFFFFFFFFFFFFFFFFFFFFFFFFFFFFFFFF AND DUP2 PUSH20 0xFFFFFFFFFFFFFFFFFFFFFFFFFFFFFFFFFFFFFFFF AND PUSH32 0x8BE0079C531659141344CD1FD0A4F28419497F9722A3DAAFE3B4186F6B6457E0 PUSH1 0x40 MLOAD PUSH1 0x40 MLOAD DUP1 SWAP2 SUB SWAP1 LOG3 POP POP JUMP JUMPDEST POP JUMP JUMPDEST DUP3 PUSH1 0x2 DUP2 ADD SWAP3 DUP3 ISZERO PUSH2 0x30A JUMPI SWAP2 PUSH1 0x20 MUL DUP3 ADD JUMPDEST DUP3 DUP2 GT ISZERO PUSH2 0x309 JUMPI DUP3 MLOAD DUP3 SSTORE SWAP2 PUSH1 0x20 ADD SWAP2 SWAP1 PUSH1 0x1 ADD SWAP1 PUSH2 0x2EE JUMP JUMPDEST JUMPDEST POP SWAP1 POP PUSH2 0x317 SWAP2 SWAP1 PUSH2 0x3C7 JUMP JUMPDEST POP SWAP1 JUMP JUMPDEST DUP3 PUSH1 0x2 DUP1 MUL DUP2 ADD SWAP3 DUP3 ISZERO PUSH2 0x35A JUMPI SWAP2 PUSH1 0x20 MUL DUP3 ADD JUMPDEST DUP3 DUP2 GT ISZERO PUSH2 0x359 JUMPI DUP3 MLOAD DUP3 SWAP1 PUSH1 0x2 PUSH2 0x349 SWAP3 SWAP2 SWAP1 PUSH2 0x2DB JUMP JUMPDEST POP SWAP2 PUSH1 0x20 ADD SWAP2 SWAP1 PUSH1 0x2 ADD SWAP1 PUSH2 0x330 JUMP JUMPDEST JUMPDEST POP SWAP1 POP PUSH2 0x367 SWAP2 SWAP1 PUSH2 0x3E2 JUMP JUMPDEST POP SWAP1 JUMP JUMPDEST DUP3 DUP1 SLOAD DUP3 DUP3 SSTORE SWAP1 PUSH0 MSTORE PUSH1 0x20 PUSH0 KECCAK256 SWAP1 PUSH1 0x2 MUL DUP2 ADD SWAP3 DUP3 ISZERO PUSH2 0x3B6 JUMPI SWAP2 PUSH1 0x20 MUL DUP3 ADD JUMPDEST DUP3 DUP2 GT ISZERO PUSH2 0x3B5 JUMPI DUP3 MLOAD DUP3 SWAP1 PUSH1 0x2 PUSH2 0x3A5 SWAP3 SWAP2 SWAP1 PUSH2 0x2DB JUMP JUMPDEST POP SWAP2 PUSH1 0x20 ADD SWAP2 SWAP1 PUSH1 0x2 ADD SWAP1 PUSH2 0x38C JUMP JUMPDEST JUMPDEST POP SWAP1 POP PUSH2 0x3C3 SWAP2 SWAP1 PUSH2 0x3E2 JUMP JUMPDEST POP SWAP1 JUMP JUMPDEST JUMPDEST DUP1 DUP3 GT ISZERO PUSH2 0x3DE JUMPI PUSH0 DUP2 PUSH0 SWAP1 SSTORE POP PUSH1 0x1 ADD PUSH2 0x3C8 JUMP JUMPDEST POP SWAP1 JUMP JUMPDEST JUMPDEST DUP1 DUP3 GT ISZERO PUSH2 0x401 JUMPI PUSH0 DUP2 DUP2 PUSH2 0x3F8 SWAP2 SWAP1 PUSH2 0x405 JUMP JUMPDEST POP PUSH1 0x2 ADD PUSH2 0x3E3 JUMP JUMPDEST POP SWAP1 JUMP JUMPDEST POP PUSH0 DUP2 SSTORE PUSH1 0x1 ADD PUSH0 SWAP1 SSTORE JUMP JUMPDEST PUSH0 PUSH1 0x40 MLOAD SWAP1 POP SWAP1 JUMP JUMPDEST PUSH0 DUP1 REVERT JUMPDEST PUSH0 DUP1 REVERT JUMPDEST PUSH0 PUSH20 0xFFFFFFFFFFFFFFFFFFFFFFFFFFFFFFFFFFFFFFFF DUP3 AND SWAP1 POP SWAP2 SWAP1 POP JUMP JUMPDEST PUSH0 PUSH2 0x44B DUP3 PUSH2 0x422 JUMP JUMPDEST SWAP1 POP SWAP2 SWAP1 POP JUMP JUMPDEST PUSH2 0x45B DUP2 PUSH2 0x441 JUMP JUMPDEST DUP2 EQ PUSH2 0x465 JUMPI PUSH0 DUP1 REVERT JUMPDEST POP JUMP JUMPDEST PUSH0 DUP2 MLOAD SWAP1 POP PUSH2 0x476 DUP2 PUSH2 0x452 JUMP JUMPDEST SWAP3 SWAP2 POP POP JUMP JUMPDEST PUSH0 DUP1 REVERT JUMPDEST PUSH0 PUSH1 0x1F NOT PUSH1 0x1F DUP4 ADD AND SWAP1 POP SWAP2 SWAP1 POP JUMP JUMPDEST PUSH32 0x4E487B7100000000000000000000000000000000000000000000000000000000 PUSH0 MSTORE PUSH1 0x41 PUSH1 0x4 MSTORE PUSH1 0x24 PUSH0 REVERT JUMPDEST PUSH2 0x4C6 DUP3 PUSH2 0x480 JUMP JUMPDEST DUP2 ADD DUP2 DUP2 LT PUSH8 0xFFFFFFFFFFFFFFFF DUP3 GT OR ISZERO PUSH2 0x4E5 JUMPI PUSH2 0x4E4 PUSH2 0x490 JUMP JUMPDEST JUMPDEST DUP1 PUSH1 0x40 MSTORE POP POP POP JUMP JUMPDEST PUSH0 PUSH2 0x4F7 PUSH2 0x411 JUMP JUMPDEST SWAP1 POP PUSH2 0x503 DUP3 DUP3 PUSH2 0x4BD JUMP JUMPDEST SWAP2 SWAP1 POP JUMP JUMPDEST PUSH0 PUSH8 0xFFFFFFFFFFFFFFFF DUP3 GT ISZERO PUSH2 0x522 JUMPI PUSH2 0x521 PUSH2 0x490 JUMP JUMPDEST JUMPDEST PUSH1 0x20 DUP3 MUL SWAP1 POP PUSH1 0x20 DUP2 ADD SWAP1 POP SWAP2 SWAP1 POP JUMP JUMPDEST PUSH0 DUP1 REVERT JUMPDEST PUSH0 PUSH2 0x549 PUSH2 0x544 DUP5 PUSH2 0x508 JUMP JUMPDEST PUSH2 0x4EE JUMP JUMPDEST SWAP1 POP DUP1 DUP4 DUP3 MSTORE PUSH1 0x20 DUP3 ADD SWAP1 POP PUSH1 0x20 DUP5 MUL DUP4 ADD DUP6 DUP2 GT ISZERO PUSH2 0x56C JUMPI PUSH2 0x56B PUSH2 0x533 JUMP JUMPDEST JUMPDEST DUP4 JUMPDEST DUP2 DUP2 LT ISZERO PUSH2 0x595 JUMPI DUP1 PUSH2 0x581 DUP9 DUP3 PUSH2 0x468 JUMP JUMPDEST DUP5 MSTORE PUSH1 0x20 DUP5 ADD SWAP4 POP POP PUSH1 0x20 DUP2 ADD SWAP1 POP PUSH2 0x56E JUMP JUMPDEST POP POP POP SWAP4 SWAP3 POP POP POP JUMP JUMPDEST PUSH0 DUP3 PUSH1 0x1F DUP4 ADD SLT PUSH2 0x5B3 JUMPI PUSH2 0x5B2 PUSH2 0x47C JUMP JUMPDEST JUMPDEST DUP2 MLOAD PUSH2 0x5C3 DUP5 DUP3 PUSH1 0x20 DUP7 ADD PUSH2 0x537 JUMP JUMPDEST SWAP2 POP POP SWAP3 SWAP2 POP POP JUMP JUMPDEST PUSH0 PUSH8 0xFFFFFFFFFFFFFFFF DUP3 GT ISZERO PUSH2 0x5E6 JUMPI PUSH2 0x5E5 PUSH2 0x490 JUMP JUMPDEST JUMPDEST PUSH1 0x20 DUP3 MUL SWAP1 POP SWAP2 SWAP1 POP JUMP JUMPDEST PUSH0 DUP2 SWAP1 POP SWAP2 SWAP1 POP JUMP JUMPDEST PUSH2 0x603 DUP2 PUSH2 0x5F1 JUMP JUMPDEST DUP2 EQ PUSH2 0x60D JUMPI PUSH0 DUP1 REVERT JUMPDEST POP JUMP JUMPDEST PUSH0 DUP2 MLOAD SWAP1 POP PUSH2 0x61E DUP2 PUSH2 0x5FA JUMP JUMPDEST SWAP3 SWAP2 POP POP JUMP JUMPDEST PUSH0 PUSH2 0x636 PUSH2 0x631 DUP5 PUSH2 0x5CC JUMP JUMPDEST PUSH2 0x4EE JUMP JUMPDEST SWAP1 POP DUP1 PUSH1 0x20 DUP5 MUL DUP4 ADD DUP6 DUP2 GT ISZERO PUSH2 0x650 JUMPI PUSH2 0x64F PUSH2 0x533 JUMP JUMPDEST JUMPDEST DUP4 JUMPDEST DUP2 DUP2 LT ISZERO PUSH2 0x679 JUMPI DUP1 PUSH2 0x665 DUP9 DUP3 PUSH2 0x610 JUMP JUMPDEST DUP5 MSTORE PUSH1 0x20 DUP5 ADD SWAP4 POP POP PUSH1 0x20 DUP2 ADD SWAP1 POP PUSH2 0x652 JUMP JUMPDEST POP POP POP SWAP4 SWAP3 POP POP POP JUMP JUMPDEST PUSH0 DUP3 PUSH1 0x1F DUP4 ADD SLT PUSH2 0x697 JUMPI PUSH2 0x696 PUSH2 0x47C JUMP JUMPDEST JUMPDEST PUSH1 0x2 PUSH2 0x6A4 DUP5 DUP3 DUP6 PUSH2 0x624 JUMP JUMPDEST SWAP2 POP POP SWAP3 SWAP2 POP POP JUMP JUMPDEST PUSH0 PUSH8 0xFFFFFFFFFFFFFFFF DUP3 GT ISZERO PUSH2 0x6C7 JUMPI PUSH2 0x6C6 PUSH2 0x490 JUMP JUMPDEST JUMPDEST PUSH1 0x20 DUP3 MUL SWAP1 POP SWAP2 SWAP1 POP JUMP JUMPDEST PUSH0 PUSH2 0x6E4 PUSH2 0x6DF DUP5 PUSH2 0x6AD JUMP JUMPDEST PUSH2 0x4EE JUMP JUMPDEST SWAP1 POP DUP1 PUSH1 0x40 DUP5 MUL DUP4 ADD DUP6 DUP2 GT ISZERO PUSH2 0x6FE JUMPI PUSH2 0x6FD PUSH2 0x533 JUMP JUMPDEST JUMPDEST DUP4 JUMPDEST DUP2 DUP2 LT ISZERO PUSH2 0x727 JUMPI DUP1 PUSH2 0x713 DUP9 DUP3 PUSH2 0x683 JUMP JUMPDEST DUP5 MSTORE PUSH1 0x20 DUP5 ADD SWAP4 POP POP PUSH1 0x40 DUP2 ADD SWAP1 POP PUSH2 0x700 JUMP JUMPDEST POP POP POP SWAP4 SWAP3 POP POP POP JUMP JUMPDEST PUSH0 DUP3 PUSH1 0x1F DUP4 ADD SLT PUSH2 0x745 JUMPI PUSH2 0x744 PUSH2 0x47C JUMP JUMPDEST JUMPDEST PUSH1 0x2 PUSH2 0x752 DUP5 DUP3 DUP6 PUSH2 0x6D2 JUMP JUMPDEST SWAP2 POP POP SWAP3 SWAP2 POP POP JUMP JUMPDEST PUSH0 PUSH8 0xFFFFFFFFFFFFFFFF DUP3 GT ISZERO PUSH2 0x775 JUMPI PUSH2 0x774 PUSH2 0x490 JUMP JUMPDEST JUMPDEST PUSH1 0x20 DUP3 MUL SWAP1 POP PUSH1 0x20 DUP2 ADD SWAP1 POP SWAP2 SWAP1 POP JUMP JUMPDEST PUSH0 PUSH2 0x798 PUSH2 0x793 DUP5 PUSH2 0x75B JUMP JUMPDEST PUSH2 0x4EE JUMP JUMPDEST SWAP1 POP DUP1 DUP4 DUP3 MSTORE PUSH1 0x20 DUP3 ADD SWAP1 POP PUSH1 0x40 DUP5 MUL DUP4 ADD DUP6 DUP2 GT ISZERO PUSH2 0x7BB JUMPI PUSH2 0x7BA PUSH2 0x533 JUMP JUMPDEST JUMPDEST DUP4 JUMPDEST DUP2 DUP2 LT ISZERO PUSH2 0x7E4 JUMPI DUP1 PUSH2 0x7D0 DUP9 DUP3 PUSH2 0x683 JUMP JUMPDEST DUP5 MSTORE PUSH1 0x20 DUP5 ADD SWAP4 POP POP PUSH1 0x40 DUP2 ADD SWAP1 POP PUSH2 0x7BD JUMP JUMPDEST POP POP POP SWAP4 SWAP3 POP POP POP JUMP JUMPDEST PUSH0 DUP3 PUSH1 0x1F DUP4 ADD SLT PUSH2 0x802 JUMPI PUSH2 0x801 PUSH2 0x47C JUMP JUMPDEST JUMPDEST DUP2 MLOAD PUSH2 0x812 DUP5 DUP3 PUSH1 0x20 DUP7 ADD PUSH2 0x786 JUMP JUMPDEST SWAP2 POP POP SWAP3 SWAP2 POP POP JUMP JUMPDEST PUSH0 DUP1 PUSH0 DUP1 PUSH0 DUP1 PUSH0 DUP1 PUSH0 PUSH2 0x1E0 DUP11 DUP13 SUB SLT ISZERO PUSH2 0x839 JUMPI PUSH2 0x838 PUSH2 0x41A JUMP JUMPDEST JUMPDEST PUSH0 PUSH2 0x846 DUP13 DUP3 DUP14 ADD PUSH2 0x468 JUMP JUMPDEST SWAP10 POP POP PUSH1 0x20 PUSH2 0x857 DUP13 DUP3 DUP14 ADD PUSH2 0x468 JUMP JUMPDEST SWAP9 POP POP PUSH1 0x40 PUSH2 0x868 DUP13 DUP3 DUP14 ADD PUSH2 0x468 JUMP JUMPDEST SWAP8 POP POP PUSH1 0x60 DUP11 ADD MLOAD PUSH8 0xFFFFFFFFFFFFFFFF DUP2 GT ISZERO PUSH2 0x889 JUMPI PUSH2 0x888 PUSH2 0x41E JUMP JUMPDEST JUMPDEST PUSH2 0x895 DUP13 DUP3 DUP14 ADD PUSH2 0x59F JUMP JUMPDEST SWAP7 POP POP PUSH1 0x80 PUSH2 0x8A6 DUP13 DUP3 DUP14 ADD PUSH2 0x683 JUMP JUMPDEST SWAP6 POP POP PUSH1 0xC0 PUSH2 0x8B7 DUP13 DUP3 DUP14 ADD PUSH2 0x731 JUMP JUMPDEST SWAP5 POP POP PUSH2 0x140 PUSH2 0x8C9 DUP13 DUP3 DUP14 ADD PUSH2 0x683 JUMP JUMPDEST SWAP4 POP POP PUSH2 0x180 PUSH2 0x8DB DUP13 DUP3 DUP14 ADD PUSH2 0x683 JUMP JUMPDEST SWAP3 POP POP PUSH2 0x1C0 DUP11 ADD MLOAD PUSH8 0xFFFFFFFFFFFFFFFF DUP2 GT ISZERO PUSH2 0x8FD JUMPI PUSH2 0x8FC PUSH2 0x41E JUMP JUMPDEST JUMPDEST PUSH2 0x909 DUP13 DUP3 DUP14 ADD PUSH2 0x7EE JUMP JUMPDEST SWAP2 POP POP SWAP3 SWAP6 SWAP9 POP SWAP3 SWAP6 SWAP9 POP SWAP3 SWAP6 SWAP9 JUMP JUMPDEST PUSH2 0x922 DUP2 PUSH2 0x441 JUMP JUMPDEST DUP3 MSTORE POP POP JUMP JUMPDEST PUSH0 PUSH1 0x20 DUP3 ADD SWAP1 POP PUSH2 0x93B PUSH0 DUP4 ADD DUP5 PUSH2 0x919 JUMP JUMPDEST SWAP3 SWAP2 POP POP JUMP JUMPDEST PUSH2 0x177D DUP1 PUSH2 0x94E PUSH0 CODECOPY PUSH0 RETURN INVALID PUSH1 0x80 PUSH1 0x40 MSTORE CALLVALUE DUP1 ISZERO PUSH2 0xF JUMPI PUSH0 DUP1 REVERT JUMPDEST POP PUSH1 0x4 CALLDATASIZE LT PUSH2 0x14B JUMPI PUSH0 CALLDATALOAD PUSH1 0xE0 SHR DUP1 PUSH4 0x66800950 GT PUSH2 0xC1 JUMPI DUP1 PUSH4 0x872919AF GT PUSH2 0x7A JUMPI DUP1 PUSH4 0x872919AF EQ PUSH2 0x387 JUMPI DUP1 PUSH4 0x8DA5CB5B EQ PUSH2 0x3A5 JUMPI DUP1 PUSH4 0x8E98E0B9 EQ PUSH2 0x3C3 JUMPI DUP1 PUSH4 0x8FC06976 EQ PUSH2 0x3E1 JUMPI DUP1 PUSH4 0xB932BCFE EQ PUSH2 0x3FD JUMPI DUP1 PUSH4 0xF2FDE38B EQ PUSH2 0x41B JUMPI PUSH2 0x14B JUMP JUMPDEST DUP1 PUSH4 0x66800950 EQ PUSH2 0x2D9 JUMPI DUP1 PUSH4 0x715018A6 EQ PUSH2 0x2F5 JUMPI DUP1 PUSH4 0x7269367B EQ PUSH2 0x2FF JUMPI DUP1 PUSH4 0x7ECF686D EQ PUSH2 0x32F JUMPI DUP1 PUSH4 0x8456CB59 EQ PUSH2 0x35F JUMPI DUP1 PUSH4 0x84ACD1BB EQ PUSH2 0x369 JUMPI PUSH2 0x14B JUMP JUMPDEST DUP1 PUSH4 0x38528F53 GT PUSH2 0x113 JUMPI DUP1 PUSH4 0x38528F53 EQ PUSH2 0x214 JUMPI DUP1 PUSH4 0x3870CD12 EQ PUSH2 0x232 JUMPI DUP1 PUSH4 0x38A4BE87 EQ PUSH2 0x263 JUMPI DUP1 PUSH4 0x3F4BA83A EQ PUSH2 0x293 JUMPI DUP1 PUSH4 0x4FD686C8 EQ PUSH2 0x29D JUMPI DUP1 PUSH4 0x5C975ABB EQ PUSH2 0x2BB JUMPI PUSH2 0x14B JUMP JUMPDEST DUP1 PUSH4 0x665F04B EQ PUSH2 0x14F JUMPI DUP1 PUSH4 0x8B64D01 EQ PUSH2 0x16D JUMPI DUP1 PUSH4 0x197C6E77 EQ PUSH2 0x189 JUMPI DUP1 PUSH4 0x2B7AC3F3 EQ PUSH2 0x1BD JUMPI DUP1 PUSH4 0x2BBD59CA EQ PUSH2 0x1DB JUMPI JUMPDEST PUSH0 DUP1 REVERT JUMPDEST PUSH2 0x157 PUSH2 0x437 JUMP JUMPDEST PUSH1 0x40 MLOAD PUSH2 0x164 SWAP2 SWAP1 PUSH2 0xCCD JUMP JUMPDEST PUSH1 0x40 MLOAD DUP1 SWAP2 SUB SWAP1 RETURN JUMPDEST PUSH2 0x187 PUSH1 0x4 DUP1 CALLDATASIZE SUB DUP2 ADD SWAP1 PUSH2 0x182 SWAP2 SWAP1 PUSH2 0xE3A JUMP JUMPDEST PUSH2 0x43C JUMP JUMPDEST STOP JUMPDEST PUSH2 0x1A3 PUSH1 0x4 DUP1 CALLDATASIZE SUB DUP2 ADD SWAP1 PUSH2 0x19E SWAP2 SWAP1 PUSH2 0xEB0 JUMP JUMPDEST PUSH2 0x458 JUMP JUMPDEST PUSH1 0x40 MLOAD PUSH2 0x1B4 SWAP6 SWAP5 SWAP4 SWAP3 SWAP2 SWAP1 PUSH2 0xF7E JUMP JUMPDEST PUSH1 0x40 MLOAD DUP1 SWAP2 SUB SWAP1 RETURN JUMPDEST PUSH2 0x1C5 PUSH2 0x467 JUMP JUMPDEST PUSH1 0x40 MLOAD PUSH2 0x1D2 SWAP2 SWAP1 PUSH2 0x1031 JUMP JUMPDEST PUSH1 0x40 MLOAD DUP1 SWAP2 SUB SWAP1 RETURN JUMPDEST PUSH2 0x1F5 PUSH1 0x4 DUP1 CALLDATASIZE SUB DUP2 ADD SWAP1 PUSH2 0x1F0 SWAP2 SWAP1 PUSH2 0x1074 JUMP JUMPDEST PUSH2 0x48C JUMP JUMPDEST PUSH1 0x40 MLOAD PUSH2 0x20B SWAP11 SWAP10 SWAP9 SWAP8 SWAP7 SWAP6 SWAP5 SWAP4 SWAP3 SWAP2 SWAP1 PUSH2 0x10ED JUMP JUMPDEST PUSH1 0x40 MLOAD DUP1 SWAP2 SUB SWAP1 RETURN JUMPDEST PUSH2 0x21C PUSH2 0x542 JUMP JUMPDEST PUSH1 0x40 MLOAD PUSH2 0x229 SWAP2 SWAP1 PUSH2 0x11A5 JUMP JUMPDEST PUSH1 0x40 MLOAD DUP1 SWAP2 SUB SWAP1 RETURN JUMPDEST PUSH2 0x24C PUSH1 0x4 DUP1 CALLDATASIZE SUB DUP2 ADD SWAP1 PUSH2 0x247 SWAP2 SWAP1 PUSH2 0x11E8 JUMP JUMPDEST PUSH2 0x557 JUMP JUMPDEST PUSH1 0x40 MLOAD PUSH2 0x25A SWAP3 SWAP2 SWAP1 PUSH2 0x1213 JUMP JUMPDEST PUSH1 0x40 MLOAD DUP1 SWAP2 SUB SWAP1 RETURN JUMPDEST PUSH2 0x27D PUSH1 0x4 DUP1 CALLDATASIZE SUB DUP2 ADD SWAP1 PUSH2 0x278 SWAP2 SWAP1 PUSH2 0x1074 JUMP JUMPDEST PUSH2 0x594 JUMP JUMPDEST PUSH1 0x40 MLOAD PUSH2 0x28A SWAP2 SWAP1 PUSH2 0x123A JUMP JUMPDEST PUSH1 0x40 MLOAD DUP1 SWAP2 SUB SWAP1 RETURN JUMPDEST PUSH2 0x29B PUSH2 0x59A JUMP JUMPDEST STOP JUMPDEST PUSH2 0x2A5 PUSH2 0x5AC JUMP JUMPDEST PUSH1 0x40 MLOAD PUSH2 0x2B2 SWAP2 SWAP1 PUSH2 0x126E JUMP JUMPDEST PUSH1 0x40 MLOAD DUP1 SWAP2 SUB SWAP1 RETURN JUMPDEST PUSH2 0x2C3 PUSH2 0x5B1 JUMP JUMPDEST PUSH1 0x40 MLOAD PUSH2 0x2D0 SWAP2 SWAP1 PUSH2 0x123A JUMP JUMPDEST PUSH1 0x40 MLOAD DUP1 SWAP2 SUB SWAP1 RETURN JUMPDEST PUSH2 0x2F3 PUSH1 0x4 DUP1 CALLDATASIZE SUB DUP2 ADD SWAP1 PUSH2 0x2EE SWAP2 SWAP1 PUSH2 0x1375 JUMP JUMPDEST PUSH2 0x5C6 JUMP JUMPDEST STOP JUMPDEST PUSH2 0x2FD PUSH2 0x5DA JUMP JUMPDEST STOP JUMPDEST PUSH2 0x319 PUSH1 0x4 DUP1 CALLDATASIZE SUB DUP2 ADD SWAP1 PUSH2 0x314 SWAP2 SWAP1 PUSH2 0x1074 JUMP JUMPDEST PUSH2 0x5ED JUMP JUMPDEST PUSH1 0x40 MLOAD PUSH2 0x326 SWAP2 SWAP1 PUSH2 0x13BC JUMP JUMPDEST PUSH1 0x40 MLOAD DUP1 SWAP2 SUB SWAP1 RETURN JUMPDEST PUSH2 0x349 PUSH1 0x4 DUP1 CALLDATASIZE SUB DUP2 ADD SWAP1 PUSH2 0x344 SWAP2 SWAP1 PUSH2 0x1074 JUMP JUMPDEST PUSH2 0x602 JUMP JUMPDEST PUSH1 0x40 MLOAD PUSH2 0x356 SWAP2 SWAP1 PUSH2 0x123A JUMP JUMPDEST PUSH1 0x40 MLOAD DUP1 SWAP2 SUB SWAP1 RETURN JUMPDEST PUSH2 0x367 PUSH2 0x61F JUMP JUMPDEST STOP JUMPDEST PUSH2 0x371 PUSH2 0x631 JUMP JUMPDEST PUSH1 0x40 MLOAD PUSH2 0x37E SWAP2 SWAP1 PUSH2 0x13F5 JUMP JUMPDEST PUSH1 0x40 MLOAD DUP1 SWAP2 SUB SWAP1 RETURN JUMPDEST PUSH2 0x38F PUSH2 0x657 JUMP JUMPDEST PUSH1 0x40 MLOAD PUSH2 0x39C SWAP2 SWAP1 PUSH2 0x11A5 JUMP JUMPDEST PUSH1 0x40 MLOAD DUP1 SWAP2 SUB SWAP1 RETURN JUMPDEST PUSH2 0x3AD PUSH2 0x65E JUMP JUMPDEST PUSH1 0x40 MLOAD PUSH2 0x3BA SWAP2 SWAP1 PUSH2 0x140E JUMP JUMPDEST PUSH1 0x40 MLOAD DUP1 SWAP2 SUB SWAP1 RETURN JUMPDEST PUSH2 0x3CB PUSH2 0x685 JUMP JUMPDEST PUSH1 0x40 MLOAD PUSH2 0x3D8 SWAP2 SWAP1 PUSH2 0x1427 JUMP JUMPDEST PUSH1 0x40 MLOAD DUP1 SWAP2 SUB SWAP1 RETURN JUMPDEST PUSH2 0x3FB PUSH1 0x4 DUP1 CALLDATASIZE SUB DUP2 ADD SWAP1 PUSH2 0x3F6 SWAP2 SWAP1 PUSH2 0x1686 JUMP JUMPDEST PUSH2 0x68A JUMP JUMPDEST STOP JUMPDEST PUSH2 0x405 PUSH2 0x740 JUMP JUMPDEST PUSH1 0x40 MLOAD PUSH2 0x412 SWAP2 SWAP1 PUSH2 0x13BC JUMP JUMPDEST PUSH1 0x40 MLOAD DUP1 SWAP2 SUB SWAP1 RETURN JUMPDEST PUSH2 0x435 PUSH1 0x4 DUP1 CALLDATASIZE SUB DUP2 ADD SWAP1 PUSH2 0x430 SWAP2 SWAP1 PUSH2 0x171C JUMP JUMPDEST PUSH2 0x747 JUMP JUMPDEST STOP JUMPDEST PUSH1 0x60 SWAP1 JUMP JUMPDEST PUSH2 0x444 PUSH2 0x7CB JUMP JUMPDEST PUSH2 0x44C PUSH2 0x811 JUMP JUMPDEST PUSH2 0x454 PUSH2 0x852 JUMP JUMPDEST POP POP JUMP JUMPDEST PUSH0 DUP1 PUSH0 DUP1 PUSH1 0x60 SWAP2 SWAP4 SWAP6 SWAP1 SWAP3 SWAP5 POP JUMP JUMPDEST PUSH1 0x3 PUSH0 SWAP1 SLOAD SWAP1 PUSH2 0x100 EXP SWAP1 DIV PUSH20 0xFFFFFFFFFFFFFFFFFFFFFFFFFFFFFFFFFFFFFFFF AND DUP2 JUMP JUMPDEST PUSH1 0x4 PUSH1 0x20 MSTORE DUP1 PUSH0 MSTORE PUSH1 0x40 PUSH0 KECCAK256 PUSH0 SWAP2 POP SWAP1 POP DUP1 PUSH0 ADD SLOAD SWAP1 DUP1 PUSH1 0x1 ADD PUSH0 SWAP1 SLOAD SWAP1 PUSH2 0x100 EXP SWAP1 DIV PUSH2 0xFFFF AND SWAP1 DUP1 PUSH1 0x1 ADD PUSH1 0x2 SWAP1 SLOAD SWAP1 PUSH2 0x100 EXP SWAP1 DIV PUSH2 0xFFFF AND SWAP1 DUP1 PUSH1 0x2 ADD SLOAD SWAP1 DUP1 PUSH1 0x3 ADD SLOAD SWAP1 DUP1 PUSH1 0x4 ADD PUSH0 SWAP1 SLOAD SWAP1 PUSH2 0x100 EXP SWAP1 DIV PUSH20 0xFFFFFFFFFFFFFFFFFFFFFFFFFFFFFFFFFFFFFFFF AND SWAP1 DUP1 PUSH1 0x5 ADD PUSH0 SWAP1 SLOAD SWAP1 PUSH2 0x100 EXP SWAP1 DIV PUSH20 0xFFFFFFFFFFFFFFFFFFFFFFFFFFFFFFFFFFFFFFFF AND SWAP1 DUP1 PUSH1 0x5 ADD PUSH1 0x14 SWAP1 SLOAD SWAP1 PUSH2 0x100 EXP SWAP1 DIV PUSH1 0xFF AND SWAP1 DUP1 PUSH1 0x6 ADD SLOAD SWAP1 DUP1 PUSH1 0x7 ADD SLOAD SWAP1 POP DUP11 JUMP JUMPDEST PUSH1 0x8 PUSH0 SWAP1 SLOAD SWAP1 PUSH2 0x100 EXP SWAP1 DIV PUSH4 0xFFFFFFFF AND DUP2 JUMP JUMPDEST PUSH1 0x6 PUSH1 0x20 MSTORE DUP1 PUSH0 MSTORE PUSH1 0x40 PUSH0 KECCAK256 PUSH0 SWAP2 POP SWAP1 POP DUP1 PUSH1 0x1 ADD PUSH0 SWAP1 SLOAD SWAP1 PUSH2 0x100 EXP SWAP1 DIV PUSH4 0xFFFFFFFF AND SWAP1 DUP1 PUSH1 0x1 ADD PUSH1 0x4 SWAP1 SLOAD SWAP1 PUSH2 0x100 EXP SWAP1 DIV PUSH1 0xFF AND SWAP1 POP DUP3 JUMP JUMPDEST PUSH0 SWAP2 SWAP1 POP JUMP JUMPDEST PUSH2 0x5A2 PUSH2 0x85B JUMP JUMPDEST PUSH2 0x5AA PUSH2 0x8E2 JUMP JUMPDEST JUMP JUMPDEST PUSH1 0x1 DUP2 JUMP JUMPDEST PUSH0 PUSH1 0x2 PUSH0 SWAP1 SLOAD SWAP1 PUSH2 0x100 EXP SWAP1 DIV PUSH1 0xFF AND SWAP1 POP SWAP1 JUMP JUMPDEST PUSH2 0x5CE PUSH2 0x85B JUMP JUMPDEST PUSH2 0x5D7 DUP2 PUSH2 0x943 JUMP JUMPDEST POP JUMP JUMPDEST PUSH2 0x5E2 PUSH2 0x85B JUMP JUMPDEST PUSH2 0x5EB PUSH0 PUSH2 0x946 JUMP JUMPDEST JUMP JUMPDEST PUSH1 0x7 PUSH1 0x20 MSTORE DUP1 PUSH0 MSTORE PUSH1 0x40 PUSH0 KECCAK256 PUSH0 SWAP2 POP SWAP1 POP SLOAD DUP2 JUMP JUMPDEST PUSH1 0x5 PUSH1 0x20 MSTORE DUP1 PUSH0 MSTORE PUSH1 0x40 PUSH0 KECCAK256 PUSH0 SWAP2 POP SLOAD SWAP1 PUSH2 0x100 EXP SWAP1 DIV PUSH1 0xFF AND DUP2 JUMP JUMPDEST PUSH2 0x627 PUSH2 0x85B JUMP JUMPDEST PUSH2 0x62F PUSH2 0xA07 JUMP JUMPDEST JUMP JUMPDEST PUSH1 0x2 PUSH1 0x1 SWAP1 SLOAD SWAP1 PUSH2 0x100 EXP SWAP1 DIV PUSH20 0xFFFFFFFFFFFFFFFFFFFFFFFFFFFFFFFFFFFFFFFF AND DUP2 JUMP JUMPDEST PUSH3 0x15180 DUP2 JUMP JUMPDEST PUSH0 DUP1 PUSH0 SWAP1 SLOAD SWAP1 PUSH2 0x100 EXP SWAP1 DIV PUSH20 0xFFFFFFFFFFFFFFFFFFFFFFFFFFFFFFFFFFFFFFFF AND SWAP1 POP SWAP1 JUMP JUMPDEST PUSH1 0x1 DUP2 JUMP JUMPDEST PUSH2 0x692 PUSH2 0x85B JUMP JUMPDEST PUSH1 0x40 MLOAD DUP1 PUSH1 0xA0 ADD PUSH1 0x40 MSTORE DUP1 DUP7 DUP2 MSTORE PUSH1 0x20 ADD DUP6 DUP2 MSTORE PUSH1 0x20 ADD DUP5 DUP2 MSTORE PUSH1 0x20 ADD DUP4 DUP2 MSTORE PUSH1 0x20 ADD DUP3 DUP2 MSTORE POP PUSH1 0x9 PUSH0 DUP3 ADD MLOAD DUP2 PUSH0 ADD SWAP1 PUSH1 0x2 PUSH2 0x6D0 SWAP3 SWAP2 SWAP1 PUSH2 0xAB0 JUMP JUMPDEST POP PUSH1 0x20 DUP3 ADD MLOAD DUP2 PUSH1 0x2 ADD SWAP1 PUSH1 0x2 PUSH2 0x6E8 SWAP3 SWAP2 SWAP1 PUSH2 0xAF0 JUMP JUMPDEST POP PUSH1 0x40 DUP3 ADD MLOAD DUP2 PUSH1 0x6 ADD SWAP1 PUSH1 0x2 PUSH2 0x700 SWAP3 SWAP2 SWAP1 PUSH2 0xAB0 JUMP JUMPDEST POP PUSH1 0x60 DUP3 ADD MLOAD DUP2 PUSH1 0x8 ADD SWAP1 PUSH1 0x2 PUSH2 0x718 SWAP3 SWAP2 SWAP1 PUSH2 0xAB0 JUMP JUMPDEST POP PUSH1 0x80 DUP3 ADD MLOAD DUP2 PUSH1 0xA ADD SWAP1 DUP1 MLOAD SWAP1 PUSH1 0x20 ADD SWAP1 PUSH2 0x735 SWAP3 SWAP2 SWAP1 PUSH2 0xB40 JUMP JUMPDEST POP SWAP1 POP POP POP POP POP POP POP JUMP JUMPDEST PUSH3 0x15180 DUP2 JUMP JUMPDEST PUSH2 0x74F PUSH2 0x85B JUMP JUMPDEST PUSH0 PUSH20 0xFFFFFFFFFFFFFFFFFFFFFFFFFFFFFFFFFFFFFFFF AND DUP2 PUSH20 0xFFFFFFFFFFFFFFFFFFFFFFFFFFFFFFFFFFFFFFFF AND SUB PUSH2 0x7BF JUMPI PUSH0 PUSH1 0x40 MLOAD PUSH32 0x1E4FBDF700000000000000000000000000000000000000000000000000000000 DUP2 MSTORE PUSH1 0x4 ADD PUSH2 0x7B6 SWAP2 SWAP1 PUSH2 0x140E JUMP JUMPDEST PUSH1 0x40 MLOAD DUP1 SWAP2 SUB SWAP1 REVERT JUMPDEST PUSH2 0x7C8 DUP2 PUSH2 0x946 JUMP JUMPDEST POP JUMP JUMPDEST PUSH1 0x2 PUSH1 0x1 SLOAD SUB PUSH2 0x807 JUMPI PUSH1 0x40 MLOAD PUSH32 0x3EE5AEB500000000000000000000000000000000000000000000000000000000 DUP2 MSTORE PUSH1 0x4 ADD PUSH1 0x40 MLOAD DUP1 SWAP2 SUB SWAP1 REVERT JUMPDEST PUSH1 0x2 PUSH1 0x1 DUP2 SWAP1 SSTORE POP JUMP JUMPDEST PUSH2 0x819 PUSH2 0x5B1 JUMP JUMPDEST ISZERO PUSH2 0x850 JUMPI PUSH1 0x40 MLOAD PUSH32 0xD93C066500000000000000000000000000000000000000000000000000000000 DUP2 MSTORE PUSH1 0x4 ADD PUSH1 0x40 MLOAD DUP1 SWAP2 SUB SWAP1 REVERT JUMPDEST JUMP JUMPDEST PUSH1 0x1 DUP1 DUP2 SWAP1 SSTORE POP JUMP JUMPDEST PUSH2 0x863 PUSH2 0xA69 JUMP JUMPDEST PUSH20 0xFFFFFFFFFFFFFFFFFFFFFFFFFFFFFFFFFFFFFFFF AND PUSH2 0x881 PUSH2 0x65E JUMP JUMPDEST PUSH20 0xFFFFFFFFFFFFFFFFFFFFFFFFFFFFFFFFFFFFFFFF AND EQ PUSH2 0x8E0 JUMPI PUSH2 0x8A4 PUSH2 0xA69 JUMP JUMPDEST PUSH1 0x40 MLOAD PUSH32 0x118CDAA700000000000000000000000000000000000000000000000000000000 DUP2 MSTORE PUSH1 0x4 ADD PUSH2 0x8D7 SWAP2 SWAP1 PUSH2 0x140E JUMP JUMPDEST PUSH1 0x40 MLOAD DUP1 SWAP2 SUB SWAP1 REVERT JUMPDEST JUMP JUMPDEST PUSH2 0x8EA PUSH2 0xA70 JUMP JUMPDEST PUSH0 PUSH1 0x2 PUSH0 PUSH2 0x100 EXP DUP2 SLOAD DUP2 PUSH1 0xFF MUL NOT AND SWAP1 DUP4 ISZERO ISZERO MUL OR SWAP1 SSTORE POP PUSH32 0x5DB9EE0A495BF2E6FF9C91A7834C1BA4FDD244A5E8AA4E537BD38AEAE4B073AA PUSH2 0x92C PUSH2 0xA69 JUMP JUMPDEST PUSH1 0x40 MLOAD PUSH2 0x939 SWAP2 SWAP1 PUSH2 0x140E JUMP JUMPDEST PUSH1 0x40 MLOAD DUP1 SWAP2 SUB SWAP1 LOG1 JUMP JUMPDEST POP JUMP JUMPDEST PUSH0 DUP1 PUSH0 SWAP1 SLOAD SWAP1 PUSH2 0x100 EXP SWAP1 DIV PUSH20 0xFFFFFFFFFFFFFFFFFFFFFFFFFFFFFFFFFFFFFFFF AND SWAP1 POP DUP2 PUSH0 DUP1 PUSH2 0x100 EXP DUP2 SLOAD DUP2 PUSH20 0xFFFFFFFFFFFFFFFFFFFFFFFFFFFFFFFFFFFFFFFF MUL NOT AND SWAP1 DUP4 PUSH20 0xFFFFFFFFFFFFFFFFFFFFFFFFFFFFFFFFFFFFFFFF AND MUL OR SWAP1 SSTORE POP DUP2 PUSH20 0xFFFFFFFFFFFFFFFFFFFFFFFFFFFFFFFFFFFFFFFF AND DUP2 PUSH20 0xFFFFFFFFFFFFFFFFFFFFFFFFFFFFFFFFFFFFFFFF AND PUSH32 0x8BE0079C531659141344CD1FD0A4F28419497F9722A3DAAFE3B4186F6B6457E0 PUSH1 0x40 MLOAD PUSH1 0x40 MLOAD DUP1 SWAP2 SUB SWAP1 LOG3 POP POP JUMP JUMPDEST PUSH2 0xA0F PUSH2 0x811 JUMP JUMPDEST PUSH1 0x1 PUSH1 0x2 PUSH0 PUSH2 0x100 EXP DUP2 SLOAD DUP2 PUSH1 0xFF MUL NOT AND SWAP1 DUP4 ISZERO ISZERO MUL OR SWAP1 SSTORE POP PUSH32 0x62E78CEA01BEE320CD4E420270B5EA74000D11B0C9F74754EBDBFC544B05A258 PUSH2 0xA52 PUSH2 0xA69 JUMP JUMPDEST PUSH1 0x40 MLOAD PUSH2 0xA5F SWAP2 SWAP1 PUSH2 0x140E JUMP JUMPDEST PUSH1 0x40 MLOAD DUP1 SWAP2 SUB SWAP1 LOG1 JUMP JUMPDEST PUSH0 CALLER SWAP1 POP SWAP1 JUMP JUMPDEST PUSH2 0xA78 PUSH2 0x5B1 JUMP JUMPDEST PUSH2 0xAAE JUMPI PUSH1 0x40 MLOAD PUSH32 0x8DFC202B00000000000000000000000000000000000000000000000000000000 DUP2 MSTORE PUSH1 0x4 ADD PUSH1 0x40 MLOAD DUP1 SWAP2 SUB SWAP1 REVERT JUMPDEST JUMP JUMPDEST DUP3 PUSH1 0x2 DUP2 ADD SWAP3 DUP3 ISZERO PUSH2 0xADF JUMPI SWAP2 PUSH1 0x20 MUL DUP3 ADD JUMPDEST DUP3 DUP2 GT ISZERO PUSH2 0xADE JUMPI DUP3 MLOAD DUP3 SSTORE SWAP2 PUSH1 0x20 ADD SWAP2 SWAP1 PUSH1 0x1 ADD SWAP1 PUSH2 0xAC3 JUMP JUMPDEST JUMPDEST POP SWAP1 POP PUSH2 0xAEC SWAP2 SWAP1 PUSH2 0xB9C JUMP JUMPDEST POP SWAP1 JUMP JUMPDEST DUP3 PUSH1 0x2 DUP1 MUL DUP2 ADD SWAP3 DUP3 ISZERO PUSH2 0xB2F JUMPI SWAP2 PUSH1 0x20 MUL DUP3 ADD JUMPDEST DUP3 DUP2 GT ISZERO PUSH2 0xB2E JUMPI DUP3 MLOAD DUP3 SWAP1 PUSH1 0x2 PUSH2 0xB1E SWAP3 SWAP2 SWAP1 PUSH2 0xAB0 JUMP JUMPDEST POP SWAP2 PUSH1 0x20 ADD SWAP2 SWAP1 PUSH1 0x2 ADD SWAP1 PUSH2 0xB05 JUMP JUMPDEST JUMPDEST POP SWAP1 POP PUSH2 0xB3C SWAP2 SWAP1 PUSH2 0xBB7 JUMP JUMPDEST POP SWAP1 JUMP JUMPDEST DUP3 DUP1 SLOAD DUP3 DUP3 SSTORE SWAP1 PUSH0 MSTORE PUSH1 0x20 PUSH0 KECCAK256 SWAP1 PUSH1 0x2 MUL DUP2 ADD SWAP3 DUP3 ISZERO PUSH2 0xB8B JUMPI SWAP2 PUSH1 0x20 MUL DUP3 ADD JUMPDEST DUP3 DUP2 GT ISZERO PUSH2 0xB8A JUMPI DUP3 MLOAD DUP3 SWAP1 PUSH1 0x2 PUSH2 0xB7A SWAP3 SWAP2 SWAP1 PUSH2 0xAB0 JUMP JUMPDEST POP SWAP2 PUSH1 0x20 ADD SWAP2 SWAP1 PUSH1 0x2 ADD SWAP1 PUSH2 0xB61 JUMP JUMPDEST JUMPDEST POP SWAP1 POP PUSH2 0xB98 SWAP2 SWAP1 PUSH2 0xBB7 JUMP JUMPDEST POP SWAP1 JUMP JUMPDEST JUMPDEST DUP1 DUP3 GT ISZERO PUSH2 0xBB3 JUMPI PUSH0 DUP2 PUSH0 SWAP1 SSTORE POP PUSH1 0x1 ADD PUSH2 0xB9D JUMP JUMPDEST POP SWAP1 JUMP JUMPDEST JUMPDEST DUP1 DUP3 GT ISZERO PUSH2 0xBD6 JUMPI PUSH0 DUP2 DUP2 PUSH2 0xBCD SWAP2 SWAP1 PUSH2 0xBDA JUMP JUMPDEST POP PUSH1 0x2 ADD PUSH2 0xBB8 JUMP JUMPDEST POP SWAP1 JUMP JUMPDEST POP PUSH0 DUP2 SSTORE PUSH1 0x1 ADD PUSH0 SWAP1 SSTORE JUMP JUMPDEST PUSH0 DUP2 MLOAD SWAP1 POP SWAP2 SWAP1 POP JUMP JUMPDEST PUSH0 DUP3 DUP3 MSTORE PUSH1 0x20 DUP3 ADD SWAP1 POP SWAP3 SWAP2 POP POP JUMP JUMPDEST PUSH0 DUP2 SWAP1 POP PUSH1 0x20 DUP3 ADD SWAP1 POP SWAP2 SWAP1 POP JUMP JUMPDEST PUSH0 PUSH20 0xFFFFFFFFFFFFFFFFFFFFFFFFFFFFFFFFFFFFFFFF DUP3 AND SWAP1 POP SWAP2 SWAP1 POP JUMP JUMPDEST PUSH0 PUSH2 0xC38 DUP3 PUSH2 0xC0F JUMP JUMPDEST SWAP1 POP SWAP2 SWAP1 POP JUMP JUMPDEST PUSH2 0xC48 DUP2 PUSH2 0xC2E JUMP JUMPDEST DUP3 MSTORE POP POP JUMP JUMPDEST PUSH0 PUSH2 0xC59 DUP4 DUP4 PUSH2 0xC3F JUMP JUMPDEST PUSH1 0x20 DUP4 ADD SWAP1 POP SWAP3 SWAP2 POP POP JUMP JUMPDEST PUSH0 PUSH1 0x20 DUP3 ADD SWAP1 POP SWAP2 SWAP1 POP JUMP JUMPDEST PUSH0 PUSH2 0xC7B DUP3 PUSH2 0xBE6 JUMP JUMPDEST PUSH2 0xC85 DUP2 DUP6 PUSH2 0xBF0 JUMP JUMPDEST SWAP4 POP PUSH2 0xC90 DUP4 PUSH2 0xC00 JUMP JUMPDEST DUP1 PUSH0 JUMPDEST DUP4 DUP2 LT ISZERO PUSH2 0xCC0 JUMPI DUP2 MLOAD PUSH2 0xCA7 DUP9 DUP3 PUSH2 0xC4E JUMP JUMPDEST SWAP8 POP PUSH2 0xCB2 DUP4 PUSH2 0xC65 JUMP JUMPDEST SWAP3 POP POP PUSH1 0x1 DUP2 ADD SWAP1 POP PUSH2 0xC93 JUMP JUMPDEST POP DUP6 SWAP4 POP POP POP POP SWAP3 SWAP2 POP POP JUMP JUMPDEST PUSH0 PUSH1 0x20 DUP3 ADD SWAP1 POP DUP2 DUP2 SUB PUSH0 DUP4 ADD MSTORE PUSH2 0xCE5 DUP2 DUP5 PUSH2 0xC71 JUMP JUMPDEST SWAP1 POP SWAP3 SWAP2 POP POP JUMP JUMPDEST PUSH0 PUSH1 0x40 MLOAD SWAP1 POP SWAP1 JUMP JUMPDEST PUSH0 DUP1 REVERT JUMPDEST PUSH0 DUP1 REVERT JUMPDEST PUSH0 DUP1 REVERT JUMPDEST PUSH0 DUP1 REVERT JUMPDEST PUSH0 PUSH1 0x1F NOT PUSH1 0x1F DUP4 ADD AND SWAP1 POP SWAP2 SWAP1 POP JUMP JUMPDEST PUSH32 0x4E487B7100000000000000000000000000000000000000000000000000000000 PUSH0 MSTORE PUSH1 0x41 PUSH1 0x4 MSTORE PUSH1 0x24 PUSH0 REVERT JUMPDEST PUSH2 0xD4C DUP3 PUSH2 0xD06 JUMP JUMPDEST DUP2 ADD DUP2 DUP2 LT PUSH8 0xFFFFFFFFFFFFFFFF DUP3 GT OR ISZERO PUSH2 0xD6B JUMPI PUSH2 0xD6A PUSH2 0xD16 JUMP JUMPDEST JUMPDEST DUP1 PUSH1 0x40 MSTORE POP POP POP JUMP JUMPDEST PUSH0 PUSH2 0xD7D PUSH2 0xCED JUMP JUMPDEST SWAP1 POP PUSH2 0xD89 DUP3 DUP3 PUSH2 0xD43 JUMP JUMPDEST SWAP2 SWAP1 POP JUMP JUMPDEST PUSH0 PUSH8 0xFFFFFFFFFFFFFFFF DUP3 GT ISZERO PUSH2 0xDA8 JUMPI PUSH2 0xDA7 PUSH2 0xD16 JUMP JUMPDEST JUMPDEST PUSH2 0xDB1 DUP3 PUSH2 0xD06 JUMP JUMPDEST SWAP1 POP PUSH1 0x20 DUP2 ADD SWAP1 POP SWAP2 SWAP1 POP JUMP JUMPDEST DUP3 DUP2 DUP4 CALLDATACOPY PUSH0 DUP4 DUP4 ADD MSTORE POP POP POP JUMP JUMPDEST PUSH0 PUSH2 0xDDE PUSH2 0xDD9 DUP5 PUSH2 0xD8E JUMP JUMPDEST PUSH2 0xD74 JUMP JUMPDEST SWAP1 POP DUP3 DUP2 MSTORE PUSH1 0x20 DUP2 ADD DUP5 DUP5 DUP5 ADD GT ISZERO PUSH2 0xDFA JUMPI PUSH2 0xDF9 PUSH2 0xD02 JUMP JUMPDEST JUMPDEST PUSH2 0xE05 DUP5 DUP3 DUP6 PUSH2 0xDBE JUMP JUMPDEST POP SWAP4 SWAP3 POP POP POP JUMP JUMPDEST PUSH0 DUP3 PUSH1 0x1F DUP4 ADD SLT PUSH2 0xE21 JUMPI PUSH2 0xE20 PUSH2 0xCFE JUMP JUMPDEST JUMPDEST DUP2 CALLDATALOAD PUSH2 0xE31 DUP5 DUP3 PUSH1 0x20 DUP7 ADD PUSH2 0xDCC JUMP JUMPDEST SWAP2 POP POP SWAP3 SWAP2 POP POP JUMP JUMPDEST PUSH0 DUP1 PUSH1 0x40 DUP4 DUP6 SUB SLT ISZERO PUSH2 0xE50 JUMPI PUSH2 0xE4F PUSH2 0xCF6 JUMP JUMPDEST JUMPDEST PUSH0 DUP4 ADD CALLDATALOAD PUSH8 0xFFFFFFFFFFFFFFFF DUP2 GT ISZERO PUSH2 0xE6D JUMPI PUSH2 0xE6C PUSH2 0xCFA JUMP JUMPDEST JUMPDEST PUSH2 0xE79 DUP6 DUP3 DUP7 ADD PUSH2 0xE0D JUMP JUMPDEST SWAP3 POP POP PUSH1 0x20 DUP4 ADD CALLDATALOAD PUSH8 0xFFFFFFFFFFFFFFFF DUP2 GT ISZERO PUSH2 0xE9A JUMPI PUSH2 0xE99 PUSH2 0xCFA JUMP JUMPDEST JUMPDEST PUSH2 0xEA6 DUP6 DUP3 DUP7 ADD PUSH2 0xE0D JUMP JUMPDEST SWAP2 POP POP SWAP3 POP SWAP3 SWAP1 POP JUMP JUMPDEST PUSH0 PUSH1 0x20 DUP3 DUP5 SUB SLT ISZERO PUSH2 0xEC5 JUMPI PUSH2 0xEC4 PUSH2 0xCF6 JUMP JUMPDEST JUMPDEST PUSH0 DUP3 ADD CALLDATALOAD PUSH8 0xFFFFFFFFFFFFFFFF DUP2 GT ISZERO PUSH2 0xEE2 JUMPI PUSH2 0xEE1 PUSH2 0xCFA JUMP JUMPDEST JUMPDEST PUSH2 0xEEE DUP5 DUP3 DUP6 ADD PUSH2 0xE0D JUMP JUMPDEST SWAP2 POP POP SWAP3 SWAP2 POP POP JUMP JUMPDEST PUSH0 DUP2 SWAP1 POP SWAP2 SWAP1 POP JUMP JUMPDEST PUSH2 0xF09 DUP2 PUSH2 0xEF7 JUMP JUMPDEST DUP3 MSTORE POP POP JUMP JUMPDEST PUSH2 0xF18 DUP2 PUSH2 0xC2E JUMP JUMPDEST DUP3 MSTORE POP POP JUMP JUMPDEST PUSH0 DUP2 MLOAD SWAP1 POP SWAP2 SWAP1 POP JUMP JUMPDEST PUSH0 DUP3 DUP3 MSTORE PUSH1 0x20 DUP3 ADD SWAP1 POP SWAP3 SWAP2 POP POP JUMP JUMPDEST DUP3 DUP2 DUP4 MCOPY PUSH0 DUP4 DUP4 ADD MSTORE POP POP POP JUMP JUMPDEST PUSH0 PUSH2 0xF50 DUP3 PUSH2 0xF1E JUMP JUMPDEST PUSH2 0xF5A DUP2 DUP6 PUSH2 0xF28 JUMP JUMPDEST SWAP4 POP PUSH2 0xF6A DUP2 DUP6 PUSH1 0x20 DUP7 ADD PUSH2 0xF38 JUMP JUMPDEST PUSH2 0xF73 DUP2 PUSH2 0xD06 JUMP JUMPDEST DUP5 ADD SWAP2 POP POP SWAP3 SWAP2 POP POP JUMP JUMPDEST PUSH0 PUSH1 0xA0 DUP3 ADD SWAP1 POP PUSH2 0xF91 PUSH0 DUP4 ADD DUP9 PUSH2 0xF00 JUMP JUMPDEST PUSH2 0xF9E PUSH1 0x20 DUP4 ADD DUP8 PUSH2 0xF00 JUMP JUMPDEST PUSH2 0xFAB PUSH1 0x40 DUP4 ADD DUP7 PUSH2 0xF0F JUMP JUMPDEST PUSH2 0xFB8 PUSH1 0x60 DUP4 ADD DUP6 PUSH2 0xF0F JUMP JUMPDEST DUP2 DUP2 SUB PUSH1 0x80 DUP4 ADD MSTORE PUSH2 0xFCA DUP2 DUP5 PUSH2 0xF46 JUMP JUMPDEST SWAP1 POP SWAP7 SWAP6 POP POP POP POP POP POP JUMP JUMPDEST PUSH0 DUP2 SWAP1 POP SWAP2 SWAP1 POP JUMP JUMPDEST PUSH0 PUSH2 0xFF9 PUSH2 0xFF4 PUSH2 0xFEF DUP5 PUSH2 0xC0F JUMP JUMPDEST PUSH2 0xFD6 JUMP JUMPDEST PUSH2 0xC0F JUMP JUMPDEST SWAP1 POP SWAP2 SWAP1 POP JUMP JUMPDEST PUSH0 PUSH2 0x100A DUP3 PUSH2 0xFDF JUMP JUMPDEST SWAP1 POP SWAP2 SWAP1 POP JUMP JUMPDEST PUSH0 PUSH2 0x101B DUP3 PUSH2 0x1000 JUMP JUMPDEST SWAP1 POP SWAP2 SWAP1 POP JUMP JUMPDEST PUSH2 0x102B DUP2 PUSH2 0x1011 JUMP JUMPDEST DUP3 MSTORE POP POP JUMP JUMPDEST PUSH0 PUSH1 0x20 DUP3 ADD SWAP1 POP PUSH2 0x1044 PUSH0 DUP4 ADD DUP5 PUSH2 0x1022 JUMP JUMPDEST SWAP3 SWAP2 POP POP JUMP JUMPDEST PUSH2 0x1053 DUP2 PUSH2 0xEF7 JUMP JUMPDEST DUP2 EQ PUSH2 0x105D JUMPI PUSH0 DUP1 REVERT JUMPDEST POP JUMP JUMPDEST PUSH0 DUP2 CALLDATALOAD SWAP1 POP PUSH2 0x106E DUP2 PUSH2 0x104A JUMP JUMPDEST SWAP3 SWAP2 POP POP JUMP JUMPDEST PUSH0 PUSH1 0x20 DUP3 DUP5 SUB SLT ISZERO PUSH2 0x1089 JUMPI PUSH2 0x1088 PUSH2 0xCF6 JUMP JUMPDEST JUMPDEST PUSH0 PUSH2 0x1096 DUP5 DUP3 DUP6 ADD PUSH2 0x1060 JUMP JUMPDEST SWAP2 POP POP SWAP3 SWAP2 POP POP JUMP JUMPDEST PUSH0 PUSH2 0xFFFF DUP3 AND SWAP1 POP SWAP2 SWAP1 POP JUMP JUMPDEST PUSH2 0x10B5 DUP2 PUSH2 0x109F JUMP JUMPDEST DUP3 MSTORE POP POP JUMP JUMPDEST PUSH0 DUP2 ISZERO ISZERO SWAP1 POP SWAP2 SWAP1 POP JUMP JUMPDEST PUSH2 0x10CF DUP2 PUSH2 0x10BB JUMP JUMPDEST DUP3 MSTORE POP POP JUMP JUMPDEST PUSH0 DUP2 SWAP1 POP SWAP2 SWAP1 POP JUMP JUMPDEST PUSH2 0x10E7 DUP2 PUSH2 0x10D5 JUMP JUMPDEST DUP3 MSTORE POP POP JUMP JUMPDEST PUSH0 PUSH2 0x140 DUP3 ADD SWAP1 POP PUSH2 0x1101 PUSH0 DUP4 ADD DUP14 PUSH2 0xF00 JUMP JUMPDEST PUSH2 0x110E PUSH1 0x20 DUP4 ADD DUP13 PUSH2 0x10AC JUMP JUMPDEST PUSH2 0x111B PUSH1 0x40 DUP4 ADD DUP12 PUSH2 0x10AC JUMP JUMPDEST PUSH2 0x1128 PUSH1 0x60 DUP4 ADD DUP11 PUSH2 0xF00 JUMP JUMPDEST PUSH2 0x1135 PUSH1 0x80 DUP4 ADD DUP10 PUSH2 0xF00 JUMP JUMPDEST PUSH2 0x1142 PUSH1 0xA0 DUP4 ADD DUP9 PUSH2 0xF0F JUMP JUMPDEST PUSH2 0x114F PUSH1 0xC0 DUP4 ADD DUP8 PUSH2 0xF0F JUMP JUMPDEST PUSH2 0x115C PUSH1 0xE0 DUP4 ADD DUP7 PUSH2 0x10C6 JUMP JUMPDEST PUSH2 0x116A PUSH2 0x100 DUP4 ADD DUP6 PUSH2 0x10DE JUMP JUMPDEST PUSH2 0x1178 PUSH2 0x120 DUP4 ADD DUP5 PUSH2 0xF00 JUMP JUMPDEST SWAP12 SWAP11 POP POP POP POP POP POP POP POP POP POP POP JUMP JUMPDEST PUSH0 PUSH4 0xFFFFFFFF DUP3 AND SWAP1 POP SWAP2 SWAP1 POP JUMP JUMPDEST PUSH2 0x119F DUP2 PUSH2 0x1187 JUMP JUMPDEST DUP3 MSTORE POP POP JUMP JUMPDEST PUSH0 PUSH1 0x20 DUP3 ADD SWAP1 POP PUSH2 0x11B8 PUSH0 DUP4 ADD DUP5 PUSH2 0x1196 JUMP JUMPDEST SWAP3 SWAP2 POP POP JUMP JUMPDEST PUSH2 0x11C7 DUP2 PUSH2 0x1187 JUMP JUMPDEST DUP2 EQ PUSH2 0x11D1 JUMPI PUSH0 DUP1 REVERT JUMPDEST POP JUMP JUMPDEST PUSH0 DUP2 CALLDATALOAD SWAP1 POP PUSH2 0x11E2 DUP2 PUSH2 0x11BE JUMP JUMPDEST SWAP3 SWAP2 POP POP JUMP JUMPDEST PUSH0 PUSH1 0x20 DUP3 DUP5 SUB SLT ISZERO PUSH2 0x11FD JUMPI PUSH2 0x11FC PUSH2 0xCF6 JUMP JUMPDEST JUMPDEST PUSH0 PUSH2 0x120A DUP5 DUP3 DUP6 ADD PUSH2 0x11D4 JUMP JUMPDEST SWAP2 POP POP SWAP3 SWAP2 POP POP JUMP JUMPDEST PUSH0 PUSH1 0x40 DUP3 ADD SWAP1 POP PUSH2 0x1226 PUSH0 DUP4 ADD DUP6 PUSH2 0x1196 JUMP JUMPDEST PUSH2 0x1233 PUSH1 0x20 DUP4 ADD DUP5 PUSH2 0x10C6 JUMP JUMPDEST SWAP4 SWAP3 POP POP POP JUMP JUMPDEST PUSH0 PUSH1 0x20 DUP3 ADD SWAP1 POP PUSH2 0x124D PUSH0 DUP4 ADD DUP5 PUSH2 0x10C6 JUMP JUMPDEST SWAP3 SWAP2 POP POP JUMP JUMPDEST PUSH0 PUSH1 0xFF DUP3 AND SWAP1 POP SWAP2 SWAP1 POP JUMP JUMPDEST PUSH2 0x1268 DUP2 PUSH2 0x1253 JUMP JUMPDEST DUP3 MSTORE POP POP JUMP JUMPDEST PUSH0 PUSH1 0x20 DUP3 ADD SWAP1 POP PUSH2 0x1281 PUSH0 DUP4 ADD DUP5 PUSH2 0x125F JUMP JUMPDEST SWAP3 SWAP2 POP POP JUMP JUMPDEST PUSH0 PUSH8 0xFFFFFFFFFFFFFFFF DUP3 GT ISZERO PUSH2 0x12A1 JUMPI PUSH2 0x12A0 PUSH2 0xD16 JUMP JUMPDEST JUMPDEST PUSH1 0x20 DUP3 MUL SWAP1 POP PUSH1 0x20 DUP2 ADD SWAP1 POP SWAP2 SWAP1 POP JUMP JUMPDEST PUSH0 DUP1 REVERT JUMPDEST PUSH2 0x12BF DUP2 PUSH2 0xC2E JUMP JUMPDEST DUP2 EQ PUSH2 0x12C9 JUMPI PUSH0 DUP1 REVERT JUMPDEST POP JUMP JUMPDEST PUSH0 DUP2 CALLDATALOAD SWAP1 POP PUSH2 0x12DA DUP2 PUSH2 0x12B6 JUMP JUMPDEST SWAP3 SWAP2 POP POP JUMP JUMPDEST PUSH0 PUSH2 0x12F2 PUSH2 0x12ED DUP5 PUSH2 0x1287 JUMP JUMPDEST PUSH2 0xD74 JUMP JUMPDEST SWAP1 POP DUP1 DUP4 DUP3 MSTORE PUSH1 0x20 DUP3 ADD SWAP1 POP PUSH1 0x20 DUP5 MUL DUP4 ADD DUP6 DUP2 GT ISZERO PUSH2 0x1315 JUMPI PUSH2 0x1314 PUSH2 0x12B2 JUMP JUMPDEST JUMPDEST DUP4 JUMPDEST DUP2 DUP2 LT ISZERO PUSH2 0x133E JUMPI DUP1 PUSH2 0x132A DUP9 DUP3 PUSH2 0x12CC JUMP JUMPDEST DUP5 MSTORE PUSH1 0x20 DUP5 ADD SWAP4 POP POP PUSH1 0x20 DUP2 ADD SWAP1 POP PUSH2 0x1317 JUMP JUMPDEST POP POP POP SWAP4 SWAP3 POP POP POP JUMP JUMPDEST PUSH0 DUP3 PUSH1 0x1F DUP4 ADD SLT PUSH2 0x135C JUMPI PUSH2 0x135B PUSH2 0xCFE JUMP JUMPDEST JUMPDEST DUP2 CALLDATALOAD PUSH2 0x136C DUP5 DUP3 PUSH1 0x20 DUP7 ADD PUSH2 0x12E0 JUMP JUMPDEST SWAP2 POP POP SWAP3 SWAP2 POP POP JUMP JUMPDEST PUSH0 PUSH1 0x20 DUP3 DUP5 SUB SLT ISZERO PUSH2 0x138A JUMPI PUSH2 0x1389 PUSH2 0xCF6 JUMP JUMPDEST JUMPDEST PUSH0 DUP3 ADD CALLDATALOAD PUSH8 0xFFFFFFFFFFFFFFFF DUP2 GT ISZERO PUSH2 0x13A7 JUMPI PUSH2 0x13A6 PUSH2 0xCFA JUMP JUMPDEST JUMPDEST PUSH2 0x13B3 DUP5 DUP3 DUP6 ADD PUSH2 0x1348 JUMP JUMPDEST SWAP2 POP POP SWAP3 SWAP2 POP POP JUMP JUMPDEST PUSH0 PUSH1 0x20 DUP3 ADD SWAP1 POP PUSH2 0x13CF PUSH0 DUP4 ADD DUP5 PUSH2 0x10DE JUMP JUMPDEST SWAP3 SWAP2 POP POP JUMP JUMPDEST PUSH0 PUSH2 0x13DF DUP3 PUSH2 0x1000 JUMP JUMPDEST SWAP1 POP SWAP2 SWAP1 POP JUMP JUMPDEST PUSH2 0x13EF DUP2 PUSH2 0x13D5 JUMP JUMPDEST DUP3 MSTORE POP POP JUMP JUMPDEST PUSH0 PUSH1 0x20 DUP3 ADD SWAP1 POP PUSH2 0x1408 PUSH0 DUP4 ADD DUP5 PUSH2 0x13E6 JUMP JUMPDEST SWAP3 SWAP2 POP POP JUMP JUMPDEST PUSH0 PUSH1 0x20 DUP3 ADD SWAP1 POP PUSH2 0x1421 PUSH0 DUP4 ADD DUP5 PUSH2 0xF0F JUMP JUMPDEST SWAP3 SWAP2 POP POP JUMP JUMPDEST PUSH0 PUSH1 0x20 DUP3 ADD SWAP1 POP PUSH2 0x143A PUSH0 DUP4 ADD DUP5 PUSH2 0x10AC JUMP JUMPDEST SWAP3 SWAP2 POP POP JUMP JUMPDEST PUSH0 PUSH8 0xFFFFFFFFFFFFFFFF DUP3 GT ISZERO PUSH2 0x145A JUMPI PUSH2 0x1459 PUSH2 0xD16 JUMP JUMPDEST JUMPDEST PUSH1 0x20 DUP3 MUL SWAP1 POP SWAP2 SWAP1 POP JUMP JUMPDEST PUSH2 0x146E DUP2 PUSH2 0x10D5 JUMP JUMPDEST DUP2 EQ PUSH2 0x1478 JUMPI PUSH0 DUP1 REVERT JUMPDEST POP JUMP JUMPDEST PUSH0 DUP2 CALLDATALOAD SWAP1 POP PUSH2 0x1489 DUP2 PUSH2 0x1465 JUMP JUMPDEST SWAP3 SWAP2 POP POP JUMP JUMPDEST PUSH0 PUSH2 0x14A1 PUSH2 0x149C DUP5 PUSH2 0x1440 JUMP JUMPDEST PUSH2 0xD74 JUMP JUMPDEST SWAP1 POP DUP1 PUSH1 0x20 DUP5 MUL DUP4 ADD DUP6 DUP2 GT ISZERO PUSH2 0x14BB JUMPI PUSH2 0x14BA PUSH2 0x12B2 JUMP JUMPDEST JUMPDEST DUP4 JUMPDEST DUP2 DUP2 LT ISZERO PUSH2 0x14E4 JUMPI DUP1 PUSH2 0x14D0 DUP9 DUP3 PUSH2 0x147B JUMP JUMPDEST DUP5 MSTORE PUSH1 0x20 DUP5 ADD SWAP4 POP POP PUSH1 0x20 DUP2 ADD SWAP1 POP PUSH2 0x14BD JUMP JUMPDEST POP POP POP SWAP4 SWAP3 POP POP POP JUMP JUMPDEST PUSH0 DUP3 PUSH1 0x1F DUP4 ADD SLT PUSH2 0x1502 JUMPI PUSH2 0x1501 PUSH2 0xCFE JUMP JUMPDEST JUMPDEST PUSH1 0x2 PUSH2 0x150F DUP5 DUP3 DUP6 PUSH2 0x148F JUMP JUMPDEST SWAP2 POP POP SWAP3 SWAP2 POP POP JUMP JUMPDEST PUSH0 PUSH8 0xFFFFFFFFFFFFFFFF DUP3 GT ISZERO PUSH2 0x1532 JUMPI PUSH2 0x1531 PUSH2 0xD16 JUMP JUMPDEST JUMPDEST PUSH1 0x20 DUP3 MUL SWAP1 POP SWAP2 SWAP1 POP JUMP JUMPDEST PUSH0 PUSH2 0x154F PUSH2 0x154A DUP5 PUSH2 0x1518 JUMP JUMPDEST PUSH2 0xD74 JUMP JUMPDEST SWAP1 POP DUP1 PUSH1 0x40 DUP5 MUL DUP4 ADD DUP6 DUP2 GT ISZERO PUSH2 0x1569 JUMPI PUSH2 0x1568 PUSH2 0x12B2 JUMP JUMPDEST JUMPDEST DUP4 JUMPDEST DUP2 DUP2 LT ISZERO PUSH2 0x1592 JUMPI DUP1 PUSH2 0x157E DUP9 DUP3 PUSH2 0x14EE JUMP JUMPDEST DUP5 MSTORE PUSH1 0x20 DUP5 ADD SWAP4 POP POP PUSH1 0x40 DUP2 ADD SWAP1 POP PUSH2 0x156B JUMP JUMPDEST POP POP POP SWAP4 SWAP3 POP POP POP JUMP JUMPDEST PUSH0 DUP3 PUSH1 0x1F DUP4 ADD SLT PUSH2 0x15B0 JUMPI PUSH2 0x15AF PUSH2 0xCFE JUMP JUMPDEST JUMPDEST PUSH1 0x2 PUSH2 0x15BD DUP5 DUP3 DUP6 PUSH2 0x153D JUMP JUMPDEST SWAP2 POP POP SWAP3 SWAP2 POP POP JUMP JUMPDEST PUSH0 PUSH8 0xFFFFFFFFFFFFFFFF DUP3 GT ISZERO PUSH2 0x15E0 JUMPI PUSH2 0x15DF PUSH2 0xD16 JUMP JUMPDEST JUMPDEST PUSH1 0x20 DUP3 MUL SWAP1 POP PUSH1 0x20 DUP2 ADD SWAP1 POP SWAP2 SWAP1 POP JUMP JUMPDEST PUSH0 PUSH2 0x1603 PUSH2 0x15FE DUP5 PUSH2 0x15C6 JUMP JUMPDEST PUSH2 0xD74 JUMP JUMPDEST SWAP1 POP DUP1 DUP4 DUP3 MSTORE PUSH1 0x20 DUP3 ADD SWAP1 POP PUSH1 0x40 DUP5 MUL DUP4 ADD DUP6 DUP2 GT ISZERO PUSH2 0x1626 JUMPI PUSH2 0x1625 PUSH2 0x12B2 JUMP JUMPDEST JUMPDEST DUP4 JUMPDEST DUP2 DUP2 LT ISZERO PUSH2 0x164F JUMPI DUP1 PUSH2 0x163B DUP9 DUP3 PUSH2 0x14EE JUMP JUMPDEST DUP5 MSTORE PUSH1 0x20 DUP5 ADD SWAP4 POP POP PUSH1 0x40 DUP2 ADD SWAP1 POP PUSH2 0x1628 JUMP JUMPDEST POP POP POP SWAP4 SWAP3 POP POP POP JUMP JUMPDEST PUSH0 DUP3 PUSH1 0x1F DUP4 ADD SLT PUSH2 0x166D JUMPI PUSH2 0x166C PUSH2 0xCFE JUMP JUMPDEST JUMPDEST DUP2 CALLDATALOAD PUSH2 0x167D DUP5 DUP3 PUSH1 0x20 DUP7 ADD PUSH2 0x15F1 JUMP JUMPDEST SWAP2 POP POP SWAP3 SWAP2 POP POP JUMP JUMPDEST PUSH0 DUP1 PUSH0 DUP1 PUSH0 PUSH2 0x160 DUP7 DUP9 SUB SLT ISZERO PUSH2 0x16A0 JUMPI PUSH2 0x169F PUSH2 0xCF6 JUMP JUMPDEST JUMPDEST PUSH0 PUSH2 0x16AD DUP9 DUP3 DUP10 ADD PUSH2 0x14EE JUMP JUMPDEST SWAP6 POP POP PUSH1 0x40 PUSH2 0x16BE DUP9 DUP3 DUP10 ADD PUSH2 0x159C JUMP JUMPDEST SWAP5 POP POP PUSH1 0xC0 PUSH2 0x16CF DUP9 DUP3 DUP10 ADD PUSH2 0x14EE JUMP JUMPDEST SWAP4 POP POP PUSH2 0x100 PUSH2 0x16E1 DUP9 DUP3 DUP10 ADD PUSH2 0x14EE JUMP JUMPDEST SWAP3 POP POP PUSH2 0x140 DUP7 ADD CALLDATALOAD PUSH8 0xFFFFFFFFFFFFFFFF DUP2 GT ISZERO PUSH2 0x1703 JUMPI PUSH2 0x1702 PUSH2 0xCFA JUMP JUMPDEST JUMPDEST PUSH2 0x170F DUP9 DUP3 DUP10 ADD PUSH2 0x1659 JUMP JUMPDEST SWAP2 POP POP SWAP3 SWAP6 POP SWAP3 SWAP6 SWAP1 SWAP4 POP JUMP JUMPDEST PUSH0 PUSH1 0x20 DUP3 DUP5 SUB SLT ISZERO PUSH2 0x1731 JUMPI PUSH2 0x1730 PUSH2 0xCF6 JUMP JUMPDEST JUMPDEST PUSH0 PUSH2 0x173E DUP5 DUP3 DUP6 ADD PUSH2 0x12CC JUMP JUMPDEST SWAP2 POP POP SWAP3 SWAP2 POP POP JUMP INVALID LOG2 PUSH5 0x6970667358 0x22 SLT KECCAK256 0x1E EXP PUSH32 0xE49FD130E28D5C5C22847929792A370D81B7A1D71900C9254672E3A78964736F PUSH13 0x634300081A0033000000000000 "
				},
				"gasEstimates": {
					"creation": {
						"codeDepositCost": "1202600",
						"executionCost": "infinite",
						"totalCost": "infinite"
					},
					"external": {
						"CONSISTENCY_LEVEL()": "442",
						"CURRENT_CHAIN_ID()": "397",
						"GUARDIAN_SET_EXPIRY()": "353",
						"MSG_TIMEOUT()": "435",
						"currentGuardianSetIndex()": "2489",
						"decodePayload(bytes)": "infinite",
						"getGuardians()": "infinite",
						"guardianSets(uint32)": "infinite",
						"isMessageTimedOut(bytes32)": "658",
						"messageTimestamps(bytes32)": "2821",
						"messages(bytes32)": "infinite",
						"nullifierUsed(bytes32)": "2874",
						"owner()": "2559",
						"pause()": "infinite",
						"paused()": "2606",
						"renounceOwnership()": "infinite",
						"transferOwnership(address)": "infinite",
						"unpause()": "infinite",
						"updateGuardianSet(address[])": "infinite",
						"updateVerifyingKey(uint256[2],uint256[2][2],uint256[2],uint256[2],uint256[2][])": "infinite",
						"verifier()": "infinite",
						"verifyMessage(bytes,bytes)": "infinite",
						"wormhole()": "infinite"
					},
					"internal": {
						"_updateGuardianSet(address[] memory)": "11"
					}
				},
				"methodIdentifiers": {
					"CONSISTENCY_LEVEL()": "4fd686c8",
					"CURRENT_CHAIN_ID()": "8e98e0b9",
					"GUARDIAN_SET_EXPIRY()": "872919af",
					"MSG_TIMEOUT()": "b932bcfe",
					"currentGuardianSetIndex()": "38528f53",
					"decodePayload(bytes)": "197c6e77",
					"getGuardians()": "0665f04b",
					"guardianSets(uint32)": "3870cd12",
					"isMessageTimedOut(bytes32)": "38a4be87",
					"messageTimestamps(bytes32)": "7269367b",
					"messages(bytes32)": "2bbd59ca",
					"nullifierUsed(bytes32)": "7ecf686d",
					"owner()": "8da5cb5b",
					"pause()": "8456cb59",
					"paused()": "5c975abb",
					"renounceOwnership()": "715018a6",
					"transferOwnership(address)": "f2fde38b",
					"unpause()": "3f4ba83a",
					"updateGuardianSet(address[])": "66800950",
					"updateVerifyingKey(uint256[2],uint256[2][2],uint256[2],uint256[2],uint256[2][])": "8fc06976",
					"verifier()": "2b7ac3f3",
					"verifyMessage(bytes,bytes)": "08b64d01",
					"wormhole()": "84acd1bb"
				}
			},
			"storageLayout": {
				"storage": [
					{
						"astId": 8,
						"contract": "bridges/BridgeVerifier.sol:BridgeVerifier",
						"label": "_owner",
						"offset": 0,
						"slot": "0",
						"type": "t_address"
					},
					{
						"astId": 305,
						"contract": "bridges/BridgeVerifier.sol:BridgeVerifier",
						"label": "_status",
						"offset": 0,
						"slot": "1",
						"type": "t_uint256"
					},
					{
						"astId": 186,
						"contract": "bridges/BridgeVerifier.sol:BridgeVerifier",
						"label": "_paused",
						"offset": 0,
						"slot": "2",
						"type": "t_bool"
					},
					{
						"astId": 394,
						"contract": "bridges/BridgeVerifier.sol:BridgeVerifier",
						"label": "wormhole",
						"offset": 1,
						"slot": "2",
						"type": "t_contract(IWormhole)819"
					},
					{
						"astId": 397,
						"contract": "bridges/BridgeVerifier.sol:BridgeVerifier",
						"label": "verifier",
						"offset": 0,
						"slot": "3",
						"type": "t_contract(IVerifier)781"
					},
					{
						"astId": 402,
						"contract": "bridges/BridgeVerifier.sol:BridgeVerifier",
						"label": "messages",
						"offset": 0,
						"slot": "4",
						"type": "t_mapping(t_bytes32,t_struct(CrossChainMessage)634_storage)"
					},
					{
						"astId": 406,
						"contract": "bridges/BridgeVerifier.sol:BridgeVerifier",
						"label": "nullifierUsed",
						"offset": 0,
						"slot": "5",
						"type": "t_mapping(t_bytes32,t_bool)"
					},
					{
						"astId": 411,
						"contract": "bridges/BridgeVerifier.sol:BridgeVerifier",
						"label": "guardianSets",
						"offset": 0,
						"slot": "6",
						"type": "t_mapping(t_uint32,t_struct(GuardianSet)642_storage)"
					},
					{
						"astId": 415,
						"contract": "bridges/BridgeVerifier.sol:BridgeVerifier",
						"label": "messageTimestamps",
						"offset": 0,
						"slot": "7",
						"type": "t_mapping(t_bytes32,t_uint256)"
					},
					{
						"astId": 417,
						"contract": "bridges/BridgeVerifier.sol:BridgeVerifier",
						"label": "currentGuardianSetIndex",
						"offset": 0,
						"slot": "8",
						"type": "t_uint32"
					},
					{
						"astId": 420,
						"contract": "bridges/BridgeVerifier.sol:BridgeVerifier",
						"label": "verifyingKey",
						"offset": 0,
						"slot": "9",
						"type": "t_struct(VerifyingKey)666_storage"
					}
				],
				"types": {
					"t_address": {
						"encoding": "inplace",
						"label": "address",
						"numberOfBytes": "20"
					},
					"t_array(t_address)dyn_storage": {
						"base": "t_address",
						"encoding": "dynamic_array",
						"label": "address[]",
						"numberOfBytes": "32"
					},
					"t_array(t_array(t_uint256)2_storage)2_storage": {
						"base": "t_array(t_uint256)2_storage",
						"encoding": "inplace",
						"label": "uint256[2][2]",
						"numberOfBytes": "128"
					},
					"t_array(t_array(t_uint256)2_storage)dyn_storage": {
						"base": "t_array(t_uint256)2_storage",
						"encoding": "dynamic_array",
						"label": "uint256[2][]",
						"numberOfBytes": "32"
					},
					"t_array(t_uint256)2_storage": {
						"base": "t_uint256",
						"encoding": "inplace",
						"label": "uint256[2]",
						"numberOfBytes": "64"
					},
					"t_bool": {
						"encoding": "inplace",
						"label": "bool",
						"numberOfBytes": "1"
					},
					"t_bytes32": {
						"encoding": "inplace",
						"label": "bytes32",
						"numberOfBytes": "32"
					},
					"t_contract(IVerifier)781": {
						"encoding": "inplace",
						"label": "contract IVerifier",
						"numberOfBytes": "20"
					},
					"t_contract(IWormhole)819": {
						"encoding": "inplace",
						"label": "contract IWormhole",
						"numberOfBytes": "20"
					},
					"t_mapping(t_bytes32,t_bool)": {
						"encoding": "mapping",
						"key": "t_bytes32",
						"label": "mapping(bytes32 => bool)",
						"numberOfBytes": "32",
						"value": "t_bool"
					},
					"t_mapping(t_bytes32,t_struct(CrossChainMessage)634_storage)": {
						"encoding": "mapping",
						"key": "t_bytes32",
						"label": "mapping(bytes32 => struct IBridgeVerifier.CrossChainMessage)",
						"numberOfBytes": "32",
						"value": "t_struct(CrossChainMessage)634_storage"
					},
					"t_mapping(t_bytes32,t_uint256)": {
						"encoding": "mapping",
						"key": "t_bytes32",
						"label": "mapping(bytes32 => uint256)",
						"numberOfBytes": "32",
						"value": "t_uint256"
					},
					"t_mapping(t_uint32,t_struct(GuardianSet)642_storage)": {
						"encoding": "mapping",
						"key": "t_uint32",
						"label": "mapping(uint32 => struct IBridgeVerifier.GuardianSet)",
						"numberOfBytes": "32",
						"value": "t_struct(GuardianSet)642_storage"
					},
					"t_struct(CrossChainMessage)634_storage": {
						"encoding": "inplace",
						"label": "struct IBridgeVerifier.CrossChainMessage",
						"members": [
							{
								"astId": 615,
								"contract": "bridges/BridgeVerifier.sol:BridgeVerifier",
								"label": "messageHash",
								"offset": 0,
								"slot": "0",
								"type": "t_bytes32"
							},
							{
								"astId": 617,
								"contract": "bridges/BridgeVerifier.sol:BridgeVerifier",
								"label": "sourceChain",
								"offset": 0,
								"slot": "1",
								"type": "t_uint16"
							},
							{
								"astId": 619,
								"contract": "bridges/BridgeVerifier.sol:BridgeVerifier",
								"label": "targetChain",
								"offset": 2,
								"slot": "1",
								"type": "t_uint16"
							},
							{
								"astId": 621,
								"contract": "bridges/BridgeVerifier.sol:BridgeVerifier",
								"label": "payloadHash",
								"offset": 0,
								"slot": "2",
								"type": "t_bytes32"
							},
							{
								"astId": 623,
								"contract": "bridges/BridgeVerifier.sol:BridgeVerifier",
								"label": "nullifier",
								"offset": 0,
								"slot": "3",
								"type": "t_bytes32"
							},
							{
								"astId": 625,
								"contract": "bridges/BridgeVerifier.sol:BridgeVerifier",
								"label": "sender",
								"offset": 0,
								"slot": "4",
								"type": "t_address"
							},
							{
								"astId": 627,
								"contract": "bridges/BridgeVerifier.sol:BridgeVerifier",
								"label": "recipient",
								"offset": 0,
								"slot": "5",
								"type": "t_address"
							},
							{
								"astId": 629,
								"contract": "bridges/BridgeVerifier.sol:BridgeVerifier",
								"label": "executed",
								"offset": 20,
								"slot": "5",
								"type": "t_bool"
							},
							{
								"astId": 631,
								"contract": "bridges/BridgeVerifier.sol:BridgeVerifier",
								"label": "timestamp",
								"offset": 0,
								"slot": "6",
								"type": "t_uint256"
							},
							{
								"astId": 633,
								"contract": "bridges/BridgeVerifier.sol:BridgeVerifier",
								"label": "proof",
								"offset": 0,
								"slot": "7",
								"type": "t_bytes32"
							}
						],
						"numberOfBytes": "256"
					},
					"t_struct(GuardianSet)642_storage": {
						"encoding": "inplace",
						"label": "struct IBridgeVerifier.GuardianSet",
						"members": [
							{
								"astId": 637,
								"contract": "bridges/BridgeVerifier.sol:BridgeVerifier",
								"label": "guardians",
								"offset": 0,
								"slot": "0",
								"type": "t_array(t_address)dyn_storage"
							},
							{
								"astId": 639,
								"contract": "bridges/BridgeVerifier.sol:BridgeVerifier",
								"label": "expirationTime",
								"offset": 0,
								"slot": "1",
								"type": "t_uint32"
							},
							{
								"astId": 641,
								"contract": "bridges/BridgeVerifier.sol:BridgeVerifier",
								"label": "isActive",
								"offset": 4,
								"slot": "1",
								"type": "t_bool"
							}
						],
						"numberOfBytes": "64"
					},
					"t_struct(VerifyingKey)666_storage": {
						"encoding": "inplace",
						"label": "struct IBridgeVerifier.VerifyingKey",
						"members": [
							{
								"astId": 646,
								"contract": "bridges/BridgeVerifier.sol:BridgeVerifier",
								"label": "alpha",
								"offset": 0,
								"slot": "0",
								"type": "t_array(t_uint256)2_storage"
							},
							{
								"astId": 652,
								"contract": "bridges/BridgeVerifier.sol:BridgeVerifier",
								"label": "beta",
								"offset": 0,
								"slot": "2",
								"type": "t_array(t_array(t_uint256)2_storage)2_storage"
							},
							{
								"astId": 656,
								"contract": "bridges/BridgeVerifier.sol:BridgeVerifier",
								"label": "gamma",
								"offset": 0,
								"slot": "6",
								"type": "t_array(t_uint256)2_storage"
							},
							{
								"astId": 660,
								"contract": "bridges/BridgeVerifier.sol:BridgeVerifier",
								"label": "delta",
								"offset": 0,
								"slot": "8",
								"type": "t_array(t_uint256)2_storage"
							},
							{
								"astId": 665,
								"contract": "bridges/BridgeVerifier.sol:BridgeVerifier",
								"label": "ic",
								"offset": 0,
								"slot": "10",
								"type": "t_array(t_array(t_uint256)2_storage)dyn_storage"
							}
						],
						"numberOfBytes": "352"
					},
					"t_uint16": {
						"encoding": "inplace",
						"label": "uint16",
						"numberOfBytes": "2"
					},
					"t_uint256": {
						"encoding": "inplace",
						"label": "uint256",
						"numberOfBytes": "32"
					},
					"t_uint32": {
						"encoding": "inplace",
						"label": "uint32",
						"numberOfBytes": "4"
					}
				}
			},
			"userdoc": {
				"kind": "user",
				"methods": {},
				"version": 1
			}
		}
	}
}