{
	"bridges/WormholeBridge.sol": {
		"WormholeBridge": {
			"abi": [
				{
					"inputs": [
						{
							"internalType": "address",
							"name": "_wormholeAddress",
							"type": "address"
						}
					],
					"stateMutability": "nonpayable",
					"type": "constructor"
				},
				{
					"inputs": [],
					"name": "AccessControlBadConfirmation",
					"type": "error"
				},
				{
					"inputs": [
						{
							"internalType": "address",
							"name": "account",
							"type": "address"
						},
						{
							"internalType": "bytes32",
							"name": "neededRole",
							"type": "bytes32"
						}
					],
					"name": "AccessControlUnauthorizedAccount",
					"type": "error"
				},
				{
					"inputs": [],
					"name": "EnforcedPause",
					"type": "error"
				},
				{
					"inputs": [],
					"name": "ExpectedPause",
					"type": "error"
				},
				{
					"anonymous": false,
					"inputs": [
						{
							"indexed": false,
							"internalType": "address",
							"name": "account",
							"type": "address"
						}
					],
					"name": "Paused",
					"type": "event"
				},
				{
					"anonymous": false,
					"inputs": [
						{
							"indexed": true,
							"internalType": "bytes32",
							"name": "role",
							"type": "bytes32"
						},
						{
							"indexed": true,
							"internalType": "bytes32",
							"name": "previousAdminRole",
							"type": "bytes32"
						},
						{
							"indexed": true,
							"internalType": "bytes32",
							"name": "newAdminRole",
							"type": "bytes32"
						}
					],
					"name": "RoleAdminChanged",
					"type": "event"
				},
				{
					"anonymous": false,
					"inputs": [
						{
							"indexed": true,
							"internalType": "bytes32",
							"name": "role",
							"type": "bytes32"
						},
						{
							"indexed": true,
							"internalType": "address",
							"name": "account",
							"type": "address"
						},
						{
							"indexed": true,
							"internalType": "address",
							"name": "sender",
							"type": "address"
						}
					],
					"name": "RoleGranted",
					"type": "event"
				},
				{
					"anonymous": false,
					"inputs": [
						{
							"indexed": true,
							"internalType": "bytes32",
							"name": "role",
							"type": "bytes32"
						},
						{
							"indexed": true,
							"internalType": "address",
							"name": "account",
							"type": "address"
						},
						{
							"indexed": true,
							"internalType": "address",
							"name": "sender",
							"type": "address"
						}
					],
					"name": "RoleRevoked",
					"type": "event"
				},
				{
					"anonymous": false,
					"inputs": [
						{
							"indexed": true,
							"internalType": "address",
							"name": "token",
							"type": "address"
						},
						{
							"indexed": true,
							"internalType": "address",
							"name": "from",
							"type": "address"
						},
						{
							"indexed": false,
							"internalType": "uint256",
							"name": "amount",
							"type": "uint256"
						},
						{
							"indexed": false,
							"internalType": "uint16",
							"name": "destinationChainId",
							"type": "uint16"
						},
						{
							"indexed": false,
							"internalType": "address",
							"name": "destinationAddress",
							"type": "address"
						}
					],
					"name": "TokensBridged",
					"type": "event"
				},
				{
					"anonymous": false,
					"inputs": [
						{
							"indexed": false,
							"internalType": "address",
							"name": "account",
							"type": "address"
						}
					],
					"name": "Unpaused",
					"type": "event"
				},
				{
					"inputs": [],
					"name": "ADMIN_ROLE",
					"outputs": [
						{
							"internalType": "bytes32",
							"name": "",
							"type": "bytes32"
						}
					],
					"stateMutability": "view",
					"type": "function"
				},
				{
					"inputs": [],
					"name": "DEFAULT_ADMIN_ROLE",
					"outputs": [
						{
							"internalType": "bytes32",
							"name": "",
							"type": "bytes32"
						}
					],
					"stateMutability": "view",
					"type": "function"
				},
				{
					"inputs": [
						{
							"internalType": "address",
							"name": "token",
							"type": "address"
						},
						{
							"internalType": "uint256",
							"name": "amount",
							"type": "uint256"
						},
						{
							"internalType": "uint16",
							"name": "destinationChainId",
							"type": "uint16"
						},
						{
							"internalType": "address",
							"name": "destinationAddress",
							"type": "address"
						}
					],
					"name": "bridgeTokens",
					"outputs": [],
					"stateMutability": "nonpayable",
					"type": "function"
				},
				{
					"inputs": [
						{
							"internalType": "bytes32",
							"name": "role",
							"type": "bytes32"
						}
					],
					"name": "getRoleAdmin",
					"outputs": [
						{
							"internalType": "bytes32",
							"name": "",
							"type": "bytes32"
						}
					],
					"stateMutability": "view",
					"type": "function"
				},
				{
					"inputs": [
						{
							"internalType": "bytes32",
							"name": "role",
							"type": "bytes32"
						},
						{
							"internalType": "address",
							"name": "account",
							"type": "address"
						}
					],
					"name": "grantRole",
					"outputs": [],
					"stateMutability": "nonpayable",
					"type": "function"
				},
				{
					"inputs": [
						{
							"internalType": "bytes32",
							"name": "role",
							"type": "bytes32"
						},
						{
							"internalType": "address",
							"name": "account",
							"type": "address"
						}
					],
					"name": "hasRole",
					"outputs": [
						{
							"internalType": "bool",
							"name": "",
							"type": "bool"
						}
					],
					"stateMutability": "view",
					"type": "function"
				},
				{
					"inputs": [],
					"name": "pause",
					"outputs": [],
					"stateMutability": "nonpayable",
					"type": "function"
				},
				{
					"inputs": [],
					"name": "paused",
					"outputs": [
						{
							"internalType": "bool",
							"name": "",
							"type": "bool"
						}
					],
					"stateMutability": "view",
					"type": "function"
				},
				{
					"inputs": [
						{
							"internalType": "address",
							"name": "token",
							"type": "address"
						},
						{
							"internalType": "uint256",
							"name": "amount",
							"type": "uint256"
						},
						{
							"internalType": "address",
							"name": "recipient",
							"type": "address"
						}
					],
					"name": "receiveTokens",
					"outputs": [],
					"stateMutability": "nonpayable",
					"type": "function"
				},
				{
					"inputs": [
						{
							"internalType": "bytes32",
							"name": "role",
							"type": "bytes32"
						},
						{
							"internalType": "address",
							"name": "callerConfirmation",
							"type": "address"
						}
					],
					"name": "renounceRole",
					"outputs": [],
					"stateMutability": "nonpayable",
					"type": "function"
				},
				{
					"inputs": [
						{
							"internalType": "bytes32",
							"name": "role",
							"type": "bytes32"
						},
						{
							"internalType": "address",
							"name": "account",
							"type": "address"
						}
					],
					"name": "revokeRole",
					"outputs": [],
					"stateMutability": "nonpayable",
					"type": "function"
				},
				{
					"inputs": [
						{
							"internalType": "bytes",
							"name": "message",
							"type": "bytes"
						},
						{
							"internalType": "uint32",
							"name": "nonce",
							"type": "uint32"
						}
					],
					"name": "sendMessageToWormhole",
					"outputs": [
						{
							"internalType": "uint64",
							"name": "",
							"type": "uint64"
						}
					],
					"stateMutability": "nonpayable",
					"type": "function"
				},
				{
					"inputs": [
						{
							"internalType": "bytes4",
							"name": "interfaceId",
							"type": "bytes4"
						}
					],
					"name": "supportsInterface",
					"outputs": [
						{
							"internalType": "bool",
							"name": "",
							"type": "bool"
						}
					],
					"stateMutability": "view",
					"type": "function"
				},
				{
					"inputs": [],
					"name": "unpause",
					"outputs": [],
					"stateMutability": "nonpayable",
					"type": "function"
				},
				{
					"inputs": [],
					"name": "wormhole",
					"outputs": [
						{
							"internalType": "contract IWormhole",
							"name": "",
							"type": "address"
						}
					],
					"stateMutability": "view",
					"type": "function"
				},
				{
					"inputs": [],
					"name": "wormholeTokenBridge",
					"outputs": [
						{
							"internalType": "contract IWormhole",
							"name": "",
							"type": "address"
						}
					],
					"stateMutability": "view",
					"type": "function"
				}
			],
			"devdoc": {
				"errors": {
					"AccessControlBadConfirmation()": [
						{
							"details": "The caller of a function is not the expected one. NOTE: Don't confuse with {AccessControlUnauthorizedAccount}."
						}
					],
					"AccessControlUnauthorizedAccount(address,bytes32)": [
						{
							"details": "The `account` is missing a role."
						}
					],
					"EnforcedPause()": [
						{
							"details": "The operation failed because the contract is paused."
						}
					],
					"ExpectedPause()": [
						{
							"details": "The operation failed because the contract is not paused."
						}
					]
				},
				"events": {
					"Paused(address)": {
						"details": "Emitted when the pause is triggered by `account`."
					},
					"RoleAdminChanged(bytes32,bytes32,bytes32)": {
						"details": "Emitted when `newAdminRole` is set as ``role``'s admin role, replacing `previousAdminRole` `DEFAULT_ADMIN_ROLE` is the starting admin for all roles, despite {RoleAdminChanged} not being emitted signaling this."
					},
					"RoleGranted(bytes32,address,address)": {
						"details": "Emitted when `account` is granted `role`. `sender` is the account that originated the contract call. This account bears the admin role (for the granted role). Expected in cases where the role was granted using the internal {AccessControl-_grantRole}."
					},
					"RoleRevoked(bytes32,address,address)": {
						"details": "Emitted when `account` is revoked `role`. `sender` is the account that originated the contract call:   - if using `revokeRole`, it is the admin role bearer   - if using `renounceRole`, it is the role bearer (i.e. `account`)"
					},
					"Unpaused(address)": {
						"details": "Emitted when the pause is lifted by `account`."
					}
				},
				"kind": "dev",
				"methods": {
					"getRoleAdmin(bytes32)": {
						"details": "Returns the admin role that controls `role`. See {grantRole} and {revokeRole}. To change a role's admin, use {_setRoleAdmin}."
					},
					"grantRole(bytes32,address)": {
						"details": "Grants `role` to `account`. If `account` had not been already granted `role`, emits a {RoleGranted} event. Requirements: - the caller must have ``role``'s admin role. May emit a {RoleGranted} event."
					},
					"hasRole(bytes32,address)": {
						"details": "Returns `true` if `account` has been granted `role`."
					},
					"paused()": {
						"details": "Returns true if the contract is paused, and false otherwise."
					},
					"renounceRole(bytes32,address)": {
						"details": "Revokes `role` from the calling account. Roles are often managed via {grantRole} and {revokeRole}: this function's purpose is to provide a mechanism for accounts to lose their privileges if they are compromised (such as when a trusted device is misplaced). If the calling account had been revoked `role`, emits a {RoleRevoked} event. Requirements: - the caller must be `callerConfirmation`. May emit a {RoleRevoked} event."
					},
					"revokeRole(bytes32,address)": {
						"details": "Revokes `role` from `account`. If `account` had been granted `role`, emits a {RoleRevoked} event. Requirements: - the caller must have ``role``'s admin role. May emit a {RoleRevoked} event."
					},
					"supportsInterface(bytes4)": {
						"details": "See {IERC165-supportsInterface}."
					}
				},
				"version": 1
			},
			"evm": {
				"assembly": "    /* \"bridges/WormholeBridge.sol\":524:3028  contract WormholeBridge is AccessControl, Pausable {... */\n  mstore(0x40, 0x80)\n    /* \"bridges/WormholeBridge.sol\":653:746  constructor(address _wormholeAddress) {... */\n  callvalue\n  dup1\n  iszero\n  tag_1\n  jumpi\n  0x00\n  dup1\n  revert\ntag_1:\n  pop\n  mload(0x40)\n  sub(codesize, bytecodeSize)\n  dup1\n  bytecodeSize\n  dup4\n  codecopy\n  dup2\n  dup2\n  add\n  0x40\n  mstore\n  dup2\n  add\n  swap1\n  tag_2\n  swap2\n  swap1\n  tag_3\n  jump\t// in\ntag_2:\n    /* \"@openzeppelin/contracts/utils/Pausable.sol\":1241:1246  false */\n  0x00\n    /* \"@openzeppelin/contracts/utils/Pausable.sol\":1231:1238  _paused */\n  0x01\n  0x00\n    /* \"@openzeppelin/contracts/utils/Pausable.sol\":1231:1246  _paused = false */\n  0x0100\n  exp\n  dup2\n  sload\n  dup2\n  0xff\n  mul\n  not\n  and\n  swap1\n  dup4\n  iszero\n  iszero\n  mul\n  or\n  swap1\n  sstore\n  pop\n    /* \"bridges/WormholeBridge.sol\":722:738  _wormholeAddress */\n  dup1\n    /* \"bridges/WormholeBridge.sol\":701:709  wormhole */\n  0x01\n  dup1\n    /* \"bridges/WormholeBridge.sol\":701:739  wormhole = IWormhole(_wormholeAddress) */\n  0x0100\n  exp\n  dup2\n  sload\n  dup2\n  0xffffffffffffffffffffffffffffffffffffffff\n  mul\n  not\n  and\n  swap1\n  dup4\n  0xffffffffffffffffffffffffffffffffffffffff\n  and\n  mul\n  or\n  swap1\n  sstore\n  pop\n    /* \"bridges/WormholeBridge.sol\":653:746  constructor(address _wormholeAddress) {... */\n  pop\n    /* \"bridges/WormholeBridge.sol\":524:3028  contract WormholeBridge is AccessControl, Pausable {... */\n  jump(tag_8)\n    /* \"#utility.yul\":88:205   */\ntag_10:\n    /* \"#utility.yul\":197:198   */\n  0x00\n    /* \"#utility.yul\":194:195   */\n  dup1\n    /* \"#utility.yul\":187:199   */\n  revert\n    /* \"#utility.yul\":334:460   */\ntag_12:\n    /* \"#utility.yul\":371:378   */\n  0x00\n    /* \"#utility.yul\":411:453   */\n  0xffffffffffffffffffffffffffffffffffffffff\n    /* \"#utility.yul\":404:409   */\n  dup3\n    /* \"#utility.yul\":400:454   */\n  and\n    /* \"#utility.yul\":389:454   */\n  swap1\n  pop\n    /* \"#utility.yul\":334:460   */\n  swap2\n  swap1\n  pop\n  jump\t// out\n    /* \"#utility.yul\":466:562   */\ntag_13:\n    /* \"#utility.yul\":503:510   */\n  0x00\n    /* \"#utility.yul\":532:556   */\n  tag_22\n    /* \"#utility.yul\":550:555   */\n  dup3\n    /* \"#utility.yul\":532:556   */\n  tag_12\n  jump\t// in\ntag_22:\n    /* \"#utility.yul\":521:556   */\n  swap1\n  pop\n    /* \"#utility.yul\":466:562   */\n  swap2\n  swap1\n  pop\n  jump\t// out\n    /* \"#utility.yul\":568:690   */\ntag_14:\n    /* \"#utility.yul\":641:665   */\n  tag_24\n    /* \"#utility.yul\":659:664   */\n  dup2\n    /* \"#utility.yul\":641:665   */\n  tag_13\n  jump\t// in\ntag_24:\n    /* \"#utility.yul\":634:639   */\n  dup2\n    /* \"#utility.yul\":631:666   */\n  eq\n    /* \"#utility.yul\":621:684   */\n  tag_25\n  jumpi\n    /* \"#utility.yul\":680:681   */\n  0x00\n    /* \"#utility.yul\":677:678   */\n  dup1\n    /* \"#utility.yul\":670:682   */\n  revert\n    /* \"#utility.yul\":621:684   */\ntag_25:\n    /* \"#utility.yul\":568:690   */\n  pop\n  jump\t// out\n    /* \"#utility.yul\":696:839   */\ntag_15:\n    /* \"#utility.yul\":753:758   */\n  0x00\n    /* \"#utility.yul\":784:790   */\n  dup2\n    /* \"#utility.yul\":778:791   */\n  mload\n    /* \"#utility.yul\":769:791   */\n  swap1\n  pop\n    /* \"#utility.yul\":800:833   */\n  tag_27\n    /* \"#utility.yul\":827:832   */\n  dup2\n    /* \"#utility.yul\":800:833   */\n  tag_14\n  jump\t// in\ntag_27:\n    /* \"#utility.yul\":696:839   */\n  swap3\n  swap2\n  pop\n  pop\n  jump\t// out\n    /* \"#utility.yul\":845:1196   */\ntag_3:\n    /* \"#utility.yul\":915:921   */\n  0x00\n    /* \"#utility.yul\":964:966   */\n  0x20\n    /* \"#utility.yul\":952:961   */\n  dup3\n    /* \"#utility.yul\":943:950   */\n  dup5\n    /* \"#utility.yul\":939:962   */\n  sub\n    /* \"#utility.yul\":935:967   */\n  slt\n    /* \"#utility.yul\":932:1051   */\n  iszero\n  tag_29\n  jumpi\n    /* \"#utility.yul\":970:1049   */\n  tag_30\n  tag_10\n  jump\t// in\ntag_30:\n    /* \"#utility.yul\":932:1051   */\ntag_29:\n    /* \"#utility.yul\":1090:1091   */\n  0x00\n    /* \"#utility.yul\":1115:1179   */\n  tag_31\n    /* \"#utility.yul\":1171:1178   */\n  dup5\n    /* \"#utility.yul\":1162:1168   */\n  dup3\n    /* \"#utility.yul\":1151:1160   */\n  dup6\n    /* \"#utility.yul\":1147:1169   */\n  add\n    /* \"#utility.yul\":1115:1179   */\n  tag_15\n  jump\t// in\ntag_31:\n    /* \"#utility.yul\":1105:1179   */\n  swap2\n  pop\n    /* \"#utility.yul\":1061:1189   */\n  pop\n    /* \"#utility.yul\":845:1196   */\n  swap3\n  swap2\n  pop\n  pop\n  jump\t// out\n    /* \"bridges/WormholeBridge.sol\":524:3028  contract WormholeBridge is AccessControl, Pausable {... */\ntag_8:\n  dataSize(sub_0)\n  dup1\n  dataOffset(sub_0)\n  0x00\n  codecopy\n  0x00\n  return\nstop\n\nsub_0: assembly {\n        /* \"bridges/WormholeBridge.sol\":524:3028  contract WormholeBridge is AccessControl, Pausable {... */\n      mstore(0x40, 0x80)\n      callvalue\n      dup1\n      iszero\n      tag_1\n      jumpi\n      0x00\n      dup1\n      revert\n    tag_1:\n      pop\n      jumpi(tag_2, lt(calldatasize, 0x04))\n      shr(0xe0, calldataload(0x00))\n      dup1\n      0x84acd1bb\n      gt\n      tag_19\n      jumpi\n      dup1\n      0xd547741f\n      gt\n      tag_20\n      jumpi\n      dup1\n      0xd547741f\n      eq\n      tag_15\n      jumpi\n      dup1\n      0xe9162e8f\n      eq\n      tag_16\n      jumpi\n      dup1\n      0xf11df69d\n      eq\n      tag_17\n      jumpi\n      dup1\n      0xf6b5a2e3\n      eq\n      tag_18\n      jumpi\n      jump(tag_2)\n    tag_20:\n      dup1\n      0x84acd1bb\n      eq\n      tag_11\n      jumpi\n      dup1\n      0x91d14854\n      eq\n      tag_12\n      jumpi\n      dup1\n      0xa217fddf\n      eq\n      tag_13\n      jumpi\n      dup1\n      0xae866708\n      eq\n      tag_14\n      jumpi\n      jump(tag_2)\n    tag_19:\n      dup1\n      0x3f4ba83a\n      gt\n      tag_21\n      jumpi\n      dup1\n      0x3f4ba83a\n      eq\n      tag_7\n      jumpi\n      dup1\n      0x5c975abb\n      eq\n      tag_8\n      jumpi\n      dup1\n      0x75b238fc\n      eq\n      tag_9\n      jumpi\n      dup1\n      0x8456cb59\n      eq\n      tag_10\n      jumpi\n      jump(tag_2)\n    tag_21:\n      dup1\n      0x01ffc9a7\n      eq\n      tag_3\n      jumpi\n      dup1\n      0x248a9ca3\n      eq\n      tag_4\n      jumpi\n      dup1\n      0x2f2ff15d\n      eq\n      tag_5\n      jumpi\n      dup1\n      0x36568abe\n      eq\n      tag_6\n      jumpi\n    tag_2:\n      0x00\n      dup1\n      revert\n        /* \"@openzeppelin/contracts/access/AccessControl.sol\":2565:2767  function supportsInterface(bytes4 interfaceId) public view virtual override returns (bool) {... */\n    tag_3:\n      tag_22\n      0x04\n      dup1\n      calldatasize\n      sub\n      dup2\n      add\n      swap1\n      tag_23\n      swap2\n      swap1\n      tag_24\n      jump\t// in\n    tag_23:\n      tag_25\n      jump\t// in\n    tag_22:\n      mload(0x40)\n      tag_26\n      swap2\n      swap1\n      tag_27\n      jump\t// in\n    tag_26:\n      mload(0x40)\n      dup1\n      swap2\n      sub\n      swap1\n      return\n        /* \"@openzeppelin/contracts/access/AccessControl.sol\":3810:3930  function getRoleAdmin(bytes32 role) public view virtual returns (bytes32) {... */\n    tag_4:\n      tag_28\n      0x04\n      dup1\n      calldatasize\n      sub\n      dup2\n      add\n      swap1\n      tag_29\n      swap2\n      swap1\n      tag_30\n      jump\t// in\n    tag_29:\n      tag_31\n      jump\t// in\n    tag_28:\n      mload(0x40)\n      tag_32\n      swap2\n      swap1\n      tag_33\n      jump\t// in\n    tag_32:\n      mload(0x40)\n      dup1\n      swap2\n      sub\n      swap1\n      return\n        /* \"@openzeppelin/contracts/access/AccessControl.sol\":4226:4362  function grantRole(bytes32 role, address account) public virtual onlyRole(getRoleAdmin(role)) {... */\n    tag_5:\n      tag_34\n      0x04\n      dup1\n      calldatasize\n      sub\n      dup2\n      add\n      swap1\n      tag_35\n      swap2\n      swap1\n      tag_36\n      jump\t// in\n    tag_35:\n      tag_37\n      jump\t// in\n    tag_34:\n      stop\n        /* \"@openzeppelin/contracts/access/AccessControl.sol\":5328:5573  function renounceRole(bytes32 role, address callerConfirmation) public virtual {... */\n    tag_6:\n      tag_38\n      0x04\n      dup1\n      calldatasize\n      sub\n      dup2\n      add\n      swap1\n      tag_39\n      swap2\n      swap1\n      tag_36\n      jump\t// in\n    tag_39:\n      tag_40\n      jump\t// in\n    tag_38:\n      stop\n        /* \"bridges/WormholeBridge.sol\":2950:3026  function unpause() external onlyRole(ADMIN_ROLE) {... */\n    tag_7:\n      tag_41\n      tag_42\n      jump\t// in\n    tag_41:\n      stop\n        /* \"@openzeppelin/contracts/utils/Pausable.sol\":1850:1934  function paused() public view virtual returns (bool) {... */\n    tag_8:\n      tag_43\n      tag_44\n      jump\t// in\n    tag_43:\n      mload(0x40)\n      tag_45\n      swap2\n      swap1\n      tag_27\n      jump\t// in\n    tag_45:\n      mload(0x40)\n      dup1\n      swap2\n      sub\n      swap1\n      return\n        /* \"bridges/WormholeBridge.sol\":1086:1146  bytes32 public constant ADMIN_ROLE = keccak256(\"ADMIN_ROLE\") */\n    tag_9:\n      tag_46\n      tag_47\n      jump\t// in\n    tag_46:\n      mload(0x40)\n      tag_48\n      swap2\n      swap1\n      tag_33\n      jump\t// in\n    tag_48:\n      mload(0x40)\n      dup1\n      swap2\n      sub\n      swap1\n      return\n        /* \"bridges/WormholeBridge.sol\":2872:2944  function pause() external onlyRole(ADMIN_ROLE) {... */\n    tag_10:\n      tag_49\n      tag_50\n      jump\t// in\n    tag_49:\n      stop\n        /* \"bridges/WormholeBridge.sol\":581:606  IWormhole public wormhole */\n    tag_11:\n      tag_51\n      tag_52\n      jump\t// in\n    tag_51:\n      mload(0x40)\n      tag_53\n      swap2\n      swap1\n      tag_54\n      jump\t// in\n    tag_53:\n      mload(0x40)\n      dup1\n      swap2\n      sub\n      swap1\n      return\n        /* \"@openzeppelin/contracts/access/AccessControl.sol\":2854:2990  function hasRole(bytes32 role, address account) public view virtual returns (bool) {... */\n    tag_12:\n      tag_55\n      0x04\n      dup1\n      calldatasize\n      sub\n      dup2\n      add\n      swap1\n      tag_56\n      swap2\n      swap1\n      tag_36\n      jump\t// in\n    tag_56:\n      tag_57\n      jump\t// in\n    tag_55:\n      mload(0x40)\n      tag_58\n      swap2\n      swap1\n      tag_27\n      jump\t// in\n    tag_58:\n      mload(0x40)\n      dup1\n      swap2\n      sub\n      swap1\n      return\n        /* \"@openzeppelin/contracts/access/AccessControl.sol\":2187:2236  bytes32 public constant DEFAULT_ADMIN_ROLE = 0x00 */\n    tag_13:\n      tag_59\n      tag_60\n      jump\t// in\n    tag_59:\n      mload(0x40)\n      tag_61\n      swap2\n      swap1\n      tag_33\n      jump\t// in\n    tag_61:\n      mload(0x40)\n      dup1\n      swap2\n      sub\n      swap1\n      return\n        /* \"bridges/WormholeBridge.sol\":844:1052  function sendMessageToWormhole(bytes memory message, uint32 nonce) public returns (uint64) {... */\n    tag_14:\n      tag_62\n      0x04\n      dup1\n      calldatasize\n      sub\n      dup2\n      add\n      swap1\n      tag_63\n      swap2\n      swap1\n      tag_64\n      jump\t// in\n    tag_63:\n      tag_65\n      jump\t// in\n    tag_62:\n      mload(0x40)\n      tag_66\n      swap2\n      swap1\n      tag_67\n      jump\t// in\n    tag_66:\n      mload(0x40)\n      dup1\n      swap2\n      sub\n      swap1\n      return\n        /* \"@openzeppelin/contracts/access/AccessControl.sol\":4642:4780  function revokeRole(bytes32 role, address account) public virtual onlyRole(getRoleAdmin(role)) {... */\n    tag_15:\n      tag_68\n      0x04\n      dup1\n      calldatasize\n      sub\n      dup2\n      add\n      swap1\n      tag_69\n      swap2\n      swap1\n      tag_36\n      jump\t// in\n    tag_69:\n      tag_70\n      jump\t// in\n    tag_68:\n      stop\n        /* \"bridges/WormholeBridge.sol\":1573:2648  function bridgeTokens(address token, uint256 amount, uint16 destinationChainId, address destinationAddress) external whenNotPaused {... */\n    tag_16:\n      tag_71\n      0x04\n      dup1\n      calldatasize\n      sub\n      dup2\n      add\n      swap1\n      tag_72\n      swap2\n      swap1\n      tag_73\n      jump\t// in\n    tag_72:\n      tag_74\n      jump\t// in\n    tag_71:\n      stop\n        /* \"bridges/WormholeBridge.sol\":1158:1194  IWormhole public wormholeTokenBridge */\n    tag_17:\n      tag_75\n      tag_76\n      jump\t// in\n    tag_75:\n      mload(0x40)\n      tag_77\n      swap2\n      swap1\n      tag_54\n      jump\t// in\n    tag_77:\n      mload(0x40)\n      dup1\n      swap2\n      sub\n      swap1\n      return\n        /* \"bridges/WormholeBridge.sol\":2654:2866  function receiveTokens(address token, uint256 amount, address recipient) external onlyRole(ADMIN_ROLE) {... */\n    tag_18:\n      tag_78\n      0x04\n      dup1\n      calldatasize\n      sub\n      dup2\n      add\n      swap1\n      tag_79\n      swap2\n      swap1\n      tag_80\n      jump\t// in\n    tag_79:\n      tag_81\n      jump\t// in\n    tag_78:\n      stop\n        /* \"@openzeppelin/contracts/access/AccessControl.sol\":2565:2767  function supportsInterface(bytes4 interfaceId) public view virtual override returns (bool) {... */\n    tag_25:\n        /* \"@openzeppelin/contracts/access/AccessControl.sol\":2650:2654  bool */\n      0x00\n        /* \"@openzeppelin/contracts/access/AccessControl.sol\":2688:2720  type(IAccessControl).interfaceId */\n      0x7965db0b00000000000000000000000000000000000000000000000000000000\n        /* \"@openzeppelin/contracts/access/AccessControl.sol\":2673:2720  interfaceId == type(IAccessControl).interfaceId */\n      not(0xffffffffffffffffffffffffffffffffffffffffffffffffffffffff)\n      and\n        /* \"@openzeppelin/contracts/access/AccessControl.sol\":2673:2684  interfaceId */\n      dup3\n        /* \"@openzeppelin/contracts/access/AccessControl.sol\":2673:2720  interfaceId == type(IAccessControl).interfaceId */\n      not(0xffffffffffffffffffffffffffffffffffffffffffffffffffffffff)\n      and\n      eq\n        /* \"@openzeppelin/contracts/access/AccessControl.sol\":2673:2760  interfaceId == type(IAccessControl).interfaceId || super.supportsInterface(interfaceId) */\n      dup1\n      tag_83\n      jumpi\n      pop\n        /* \"@openzeppelin/contracts/access/AccessControl.sol\":2724:2760  super.supportsInterface(interfaceId) */\n      tag_84\n        /* \"@openzeppelin/contracts/access/AccessControl.sol\":2748:2759  interfaceId */\n      dup3\n        /* \"@openzeppelin/contracts/access/AccessControl.sol\":2724:2747  super.supportsInterface */\n      tag_85\n        /* \"@openzeppelin/contracts/access/AccessControl.sol\":2724:2760  super.supportsInterface(interfaceId) */\n      jump\t// in\n    tag_84:\n        /* \"@openzeppelin/contracts/access/AccessControl.sol\":2673:2760  interfaceId == type(IAccessControl).interfaceId || super.supportsInterface(interfaceId) */\n    tag_83:\n        /* \"@openzeppelin/contracts/access/AccessControl.sol\":2666:2760  return interfaceId == type(IAccessControl).interfaceId || super.supportsInterface(interfaceId) */\n      swap1\n      pop\n        /* \"@openzeppelin/contracts/access/AccessControl.sol\":2565:2767  function supportsInterface(bytes4 interfaceId) public view virtual override returns (bool) {... */\n      swap2\n      swap1\n      pop\n      jump\t// out\n        /* \"@openzeppelin/contracts/access/AccessControl.sol\":3810:3930  function getRoleAdmin(bytes32 role) public view virtual returns (bytes32) {... */\n    tag_31:\n        /* \"@openzeppelin/contracts/access/AccessControl.sol\":3875:3882  bytes32 */\n      0x00\n        /* \"@openzeppelin/contracts/access/AccessControl.sol\":3901:3907  _roles */\n      dup1\n        /* \"@openzeppelin/contracts/access/AccessControl.sol\":3901:3913  _roles[role] */\n      0x00\n        /* \"@openzeppelin/contracts/access/AccessControl.sol\":3908:3912  role */\n      dup4\n        /* \"@openzeppelin/contracts/access/AccessControl.sol\":3901:3913  _roles[role] */\n      dup2\n      mstore\n      0x20\n      add\n      swap1\n      dup2\n      mstore\n      0x20\n      add\n      0x00\n      keccak256\n        /* \"@openzeppelin/contracts/access/AccessControl.sol\":3901:3923  _roles[role].adminRole */\n      0x01\n      add\n      sload\n        /* \"@openzeppelin/contracts/access/AccessControl.sol\":3894:3923  return _roles[role].adminRole */\n      swap1\n      pop\n        /* \"@openzeppelin/contracts/access/AccessControl.sol\":3810:3930  function getRoleAdmin(bytes32 role) public view virtual returns (bytes32) {... */\n      swap2\n      swap1\n      pop\n      jump\t// out\n        /* \"@openzeppelin/contracts/access/AccessControl.sol\":4226:4362  function grantRole(bytes32 role, address account) public virtual onlyRole(getRoleAdmin(role)) {... */\n    tag_37:\n        /* \"@openzeppelin/contracts/access/AccessControl.sol\":4300:4318  getRoleAdmin(role) */\n      tag_87\n        /* \"@openzeppelin/contracts/access/AccessControl.sol\":4313:4317  role */\n      dup3\n        /* \"@openzeppelin/contracts/access/AccessControl.sol\":4300:4312  getRoleAdmin */\n      tag_31\n        /* \"@openzeppelin/contracts/access/AccessControl.sol\":4300:4318  getRoleAdmin(role) */\n      jump\t// in\n    tag_87:\n        /* \"@openzeppelin/contracts/access/AccessControl.sol\":2464:2480  _checkRole(role) */\n      tag_89\n        /* \"@openzeppelin/contracts/access/AccessControl.sol\":2475:2479  role */\n      dup2\n        /* \"@openzeppelin/contracts/access/AccessControl.sol\":2464:2474  _checkRole */\n      tag_90\n        /* \"@openzeppelin/contracts/access/AccessControl.sol\":2464:2480  _checkRole(role) */\n      jump\t// in\n    tag_89:\n        /* \"@openzeppelin/contracts/access/AccessControl.sol\":4330:4355  _grantRole(role, account) */\n      tag_92\n        /* \"@openzeppelin/contracts/access/AccessControl.sol\":4341:4345  role */\n      dup4\n        /* \"@openzeppelin/contracts/access/AccessControl.sol\":4347:4354  account */\n      dup4\n        /* \"@openzeppelin/contracts/access/AccessControl.sol\":4330:4340  _grantRole */\n      tag_93\n        /* \"@openzeppelin/contracts/access/AccessControl.sol\":4330:4355  _grantRole(role, account) */\n      jump\t// in\n    tag_92:\n      pop\n        /* \"@openzeppelin/contracts/access/AccessControl.sol\":4226:4362  function grantRole(bytes32 role, address account) public virtual onlyRole(getRoleAdmin(role)) {... */\n      pop\n      pop\n      pop\n      jump\t// out\n        /* \"@openzeppelin/contracts/access/AccessControl.sol\":5328:5573  function renounceRole(bytes32 role, address callerConfirmation) public virtual {... */\n    tag_40:\n        /* \"@openzeppelin/contracts/access/AccessControl.sol\":5443:5455  _msgSender() */\n      tag_95\n        /* \"@openzeppelin/contracts/access/AccessControl.sol\":5443:5453  _msgSender */\n      tag_96\n        /* \"@openzeppelin/contracts/access/AccessControl.sol\":5443:5455  _msgSender() */\n      jump\t// in\n    tag_95:\n        /* \"@openzeppelin/contracts/access/AccessControl.sol\":5421:5455  callerConfirmation != _msgSender() */\n      0xffffffffffffffffffffffffffffffffffffffff\n      and\n        /* \"@openzeppelin/contracts/access/AccessControl.sol\":5421:5439  callerConfirmation */\n      dup2\n        /* \"@openzeppelin/contracts/access/AccessControl.sol\":5421:5455  callerConfirmation != _msgSender() */\n      0xffffffffffffffffffffffffffffffffffffffff\n      and\n      eq\n        /* \"@openzeppelin/contracts/access/AccessControl.sol\":5417:5519  if (callerConfirmation != _msgSender()) {... */\n      tag_97\n      jumpi\n        /* \"@openzeppelin/contracts/access/AccessControl.sol\":5478:5508  AccessControlBadConfirmation() */\n      mload(0x40)\n      0x6697b23200000000000000000000000000000000000000000000000000000000\n      dup2\n      mstore\n      0x04\n      add\n      mload(0x40)\n      dup1\n      swap2\n      sub\n      swap1\n      revert\n        /* \"@openzeppelin/contracts/access/AccessControl.sol\":5417:5519  if (callerConfirmation != _msgSender()) {... */\n    tag_97:\n        /* \"@openzeppelin/contracts/access/AccessControl.sol\":5529:5566  _revokeRole(role, callerConfirmation) */\n      tag_98\n        /* \"@openzeppelin/contracts/access/AccessControl.sol\":5541:5545  role */\n      dup3\n        /* \"@openzeppelin/contracts/access/AccessControl.sol\":5547:5565  callerConfirmation */\n      dup3\n        /* \"@openzeppelin/contracts/access/AccessControl.sol\":5529:5540  _revokeRole */\n      tag_99\n        /* \"@openzeppelin/contracts/access/AccessControl.sol\":5529:5566  _revokeRole(role, callerConfirmation) */\n      jump\t// in\n    tag_98:\n      pop\n        /* \"@openzeppelin/contracts/access/AccessControl.sol\":5328:5573  function renounceRole(bytes32 role, address callerConfirmation) public virtual {... */\n      pop\n      pop\n      jump\t// out\n        /* \"bridges/WormholeBridge.sol\":2950:3026  function unpause() external onlyRole(ADMIN_ROLE) {... */\n    tag_42:\n        /* \"bridges/WormholeBridge.sol\":1123:1146  keccak256(\"ADMIN_ROLE\") */\n      0xa49807205ce4d355092ef5a8a18f56e8913cf4a201fbe287825b095693c21775\n        /* \"@openzeppelin/contracts/access/AccessControl.sol\":2464:2480  _checkRole(role) */\n      tag_101\n        /* \"@openzeppelin/contracts/access/AccessControl.sol\":2475:2479  role */\n      dup2\n        /* \"@openzeppelin/contracts/access/AccessControl.sol\":2464:2474  _checkRole */\n      tag_90\n        /* \"@openzeppelin/contracts/access/AccessControl.sol\":2464:2480  _checkRole(role) */\n      jump\t// in\n    tag_101:\n        /* \"bridges/WormholeBridge.sol\":3009:3019  _unpause() */\n      tag_103\n        /* \"bridges/WormholeBridge.sol\":3009:3017  _unpause */\n      tag_104\n        /* \"bridges/WormholeBridge.sol\":3009:3019  _unpause() */\n      jump\t// in\n    tag_103:\n        /* \"bridges/WormholeBridge.sol\":2950:3026  function unpause() external onlyRole(ADMIN_ROLE) {... */\n      pop\n      jump\t// out\n        /* \"@openzeppelin/contracts/utils/Pausable.sol\":1850:1934  function paused() public view virtual returns (bool) {... */\n    tag_44:\n        /* \"@openzeppelin/contracts/utils/Pausable.sol\":1897:1901  bool */\n      0x00\n        /* \"@openzeppelin/contracts/utils/Pausable.sol\":1920:1927  _paused */\n      0x01\n      0x00\n      swap1\n      sload\n      swap1\n      0x0100\n      exp\n      swap1\n      div\n      0xff\n      and\n        /* \"@openzeppelin/contracts/utils/Pausable.sol\":1913:1927  return _paused */\n      swap1\n      pop\n        /* \"@openzeppelin/contracts/utils/Pausable.sol\":1850:1934  function paused() public view virtual returns (bool) {... */\n      swap1\n      jump\t// out\n        /* \"bridges/WormholeBridge.sol\":1086:1146  bytes32 public constant ADMIN_ROLE = keccak256(\"ADMIN_ROLE\") */\n    tag_47:\n        /* \"bridges/WormholeBridge.sol\":1123:1146  keccak256(\"ADMIN_ROLE\") */\n      0xa49807205ce4d355092ef5a8a18f56e8913cf4a201fbe287825b095693c21775\n        /* \"bridges/WormholeBridge.sol\":1086:1146  bytes32 public constant ADMIN_ROLE = keccak256(\"ADMIN_ROLE\") */\n      dup2\n      jump\t// out\n        /* \"bridges/WormholeBridge.sol\":2872:2944  function pause() external onlyRole(ADMIN_ROLE) {... */\n    tag_50:\n        /* \"bridges/WormholeBridge.sol\":1123:1146  keccak256(\"ADMIN_ROLE\") */\n      0xa49807205ce4d355092ef5a8a18f56e8913cf4a201fbe287825b095693c21775\n        /* \"@openzeppelin/contracts/access/AccessControl.sol\":2464:2480  _checkRole(role) */\n      tag_107\n        /* \"@openzeppelin/contracts/access/AccessControl.sol\":2475:2479  role */\n      dup2\n        /* \"@openzeppelin/contracts/access/AccessControl.sol\":2464:2474  _checkRole */\n      tag_90\n        /* \"@openzeppelin/contracts/access/AccessControl.sol\":2464:2480  _checkRole(role) */\n      jump\t// in\n    tag_107:\n        /* \"bridges/WormholeBridge.sol\":2929:2937  _pause() */\n      tag_109\n        /* \"bridges/WormholeBridge.sol\":2929:2935  _pause */\n      tag_110\n        /* \"bridges/WormholeBridge.sol\":2929:2937  _pause() */\n      jump\t// in\n    tag_109:\n        /* \"bridges/WormholeBridge.sol\":2872:2944  function pause() external onlyRole(ADMIN_ROLE) {... */\n      pop\n      jump\t// out\n        /* \"bridges/WormholeBridge.sol\":581:606  IWormhole public wormhole */\n    tag_52:\n      0x01\n      dup1\n      sload\n      swap1\n      0x0100\n      exp\n      swap1\n      div\n      0xffffffffffffffffffffffffffffffffffffffff\n      and\n      dup2\n      jump\t// out\n        /* \"@openzeppelin/contracts/access/AccessControl.sol\":2854:2990  function hasRole(bytes32 role, address account) public view virtual returns (bool) {... */\n    tag_57:\n        /* \"@openzeppelin/contracts/access/AccessControl.sol\":2931:2935  bool */\n      0x00\n        /* \"@openzeppelin/contracts/access/AccessControl.sol\":2954:2960  _roles */\n      dup1\n        /* \"@openzeppelin/contracts/access/AccessControl.sol\":2954:2966  _roles[role] */\n      0x00\n        /* \"@openzeppelin/contracts/access/AccessControl.sol\":2961:2965  role */\n      dup5\n        /* \"@openzeppelin/contracts/access/AccessControl.sol\":2954:2966  _roles[role] */\n      dup2\n      mstore\n      0x20\n      add\n      swap1\n      dup2\n      mstore\n      0x20\n      add\n      0x00\n      keccak256\n        /* \"@openzeppelin/contracts/access/AccessControl.sol\":2954:2974  _roles[role].hasRole */\n      0x00\n      add\n        /* \"@openzeppelin/contracts/access/AccessControl.sol\":2954:2983  _roles[role].hasRole[account] */\n      0x00\n        /* \"@openzeppelin/contracts/access/AccessControl.sol\":2975:2982  account */\n      dup4\n        /* \"@openzeppelin/contracts/access/AccessControl.sol\":2954:2983  _roles[role].hasRole[account] */\n      0xffffffffffffffffffffffffffffffffffffffff\n      and\n      0xffffffffffffffffffffffffffffffffffffffff\n      and\n      dup2\n      mstore\n      0x20\n      add\n      swap1\n      dup2\n      mstore\n      0x20\n      add\n      0x00\n      keccak256\n      0x00\n      swap1\n      sload\n      swap1\n      0x0100\n      exp\n      swap1\n      div\n      0xff\n      and\n        /* \"@openzeppelin/contracts/access/AccessControl.sol\":2947:2983  return _roles[role].hasRole[account] */\n      swap1\n      pop\n        /* \"@openzeppelin/contracts/access/AccessControl.sol\":2854:2990  function hasRole(bytes32 role, address account) public view virtual returns (bool) {... */\n      swap3\n      swap2\n      pop\n      pop\n      jump\t// out\n        /* \"@openzeppelin/contracts/access/AccessControl.sol\":2187:2236  bytes32 public constant DEFAULT_ADMIN_ROLE = 0x00 */\n    tag_60:\n        /* \"@openzeppelin/contracts/access/AccessControl.sol\":2232:2236  0x00 */\n      0x00\n        /* \"@openzeppelin/contracts/access/AccessControl.sol\":2187:2236  bytes32 public constant DEFAULT_ADMIN_ROLE = 0x00 */\n      dup1\n      shl\n      dup2\n      jump\t// out\n        /* \"bridges/WormholeBridge.sol\":844:1052  function sendMessageToWormhole(bytes memory message, uint32 nonce) public returns (uint64) {... */\n    tag_65:\n        /* \"bridges/WormholeBridge.sol\":927:933  uint64 */\n      0x00\n        /* \"bridges/WormholeBridge.sol\":1009:1017  wormhole */\n      0x01\n      dup1\n      sload\n      swap1\n      0x0100\n      exp\n      swap1\n      div\n      0xffffffffffffffffffffffffffffffffffffffff\n      and\n        /* \"bridges/WormholeBridge.sol\":1009:1029  wormhole.sendMessage */\n      0xffffffffffffffffffffffffffffffffffffffff\n      and\n      0x21f9aeef\n        /* \"bridges/WormholeBridge.sol\":1030:1037  message */\n      dup5\n        /* \"bridges/WormholeBridge.sol\":1039:1044  nonce */\n      dup5\n        /* \"bridges/WormholeBridge.sol\":1009:1045  wormhole.sendMessage(message, nonce) */\n      mload(0x40)\n      dup4\n      0xffffffff\n      and\n      0xe0\n      shl\n      dup2\n      mstore\n      0x04\n      add\n      tag_113\n      swap3\n      swap2\n      swap1\n      tag_114\n      jump\t// in\n    tag_113:\n      0x20\n      mload(0x40)\n      dup1\n      dup4\n      sub\n      dup2\n      0x00\n      dup8\n      gas\n      call\n      iszero\n      dup1\n      iszero\n      tag_116\n      jumpi\n      returndatasize\n      0x00\n      dup1\n      returndatacopy\n      revert(0x00, returndatasize)\n    tag_116:\n      pop\n      pop\n      pop\n      pop\n      mload(0x40)\n      returndatasize\n      not(0x1f)\n      0x1f\n      dup3\n      add\n      and\n      dup3\n      add\n      dup1\n      0x40\n      mstore\n      pop\n      dup2\n      add\n      swap1\n      tag_117\n      swap2\n      swap1\n      tag_118\n      jump\t// in\n    tag_117:\n        /* \"bridges/WormholeBridge.sol\":1002:1045  return wormhole.sendMessage(message, nonce) */\n      swap1\n      pop\n        /* \"bridges/WormholeBridge.sol\":844:1052  function sendMessageToWormhole(bytes memory message, uint32 nonce) public returns (uint64) {... */\n      swap3\n      swap2\n      pop\n      pop\n      jump\t// out\n        /* \"@openzeppelin/contracts/access/AccessControl.sol\":4642:4780  function revokeRole(bytes32 role, address account) public virtual onlyRole(getRoleAdmin(role)) {... */\n    tag_70:\n        /* \"@openzeppelin/contracts/access/AccessControl.sol\":4717:4735  getRoleAdmin(role) */\n      tag_119\n        /* \"@openzeppelin/contracts/access/AccessControl.sol\":4730:4734  role */\n      dup3\n        /* \"@openzeppelin/contracts/access/AccessControl.sol\":4717:4729  getRoleAdmin */\n      tag_31\n        /* \"@openzeppelin/contracts/access/AccessControl.sol\":4717:4735  getRoleAdmin(role) */\n      jump\t// in\n    tag_119:\n        /* \"@openzeppelin/contracts/access/AccessControl.sol\":2464:2480  _checkRole(role) */\n      tag_121\n        /* \"@openzeppelin/contracts/access/AccessControl.sol\":2475:2479  role */\n      dup2\n        /* \"@openzeppelin/contracts/access/AccessControl.sol\":2464:2474  _checkRole */\n      tag_90\n        /* \"@openzeppelin/contracts/access/AccessControl.sol\":2464:2480  _checkRole(role) */\n      jump\t// in\n    tag_121:\n        /* \"@openzeppelin/contracts/access/AccessControl.sol\":4747:4773  _revokeRole(role, account) */\n      tag_123\n        /* \"@openzeppelin/contracts/access/AccessControl.sol\":4759:4763  role */\n      dup4\n        /* \"@openzeppelin/contracts/access/AccessControl.sol\":4765:4772  account */\n      dup4\n        /* \"@openzeppelin/contracts/access/AccessControl.sol\":4747:4758  _revokeRole */\n      tag_99\n        /* \"@openzeppelin/contracts/access/AccessControl.sol\":4747:4773  _revokeRole(role, account) */\n      jump\t// in\n    tag_123:\n      pop\n        /* \"@openzeppelin/contracts/access/AccessControl.sol\":4642:4780  function revokeRole(bytes32 role, address account) public virtual onlyRole(getRoleAdmin(role)) {... */\n      pop\n      pop\n      pop\n      jump\t// out\n        /* \"bridges/WormholeBridge.sol\":1573:2648  function bridgeTokens(address token, uint256 amount, uint16 destinationChainId, address destinationAddress) external whenNotPaused {... */\n    tag_74:\n        /* \"@openzeppelin/contracts/utils/Pausable.sol\":1474:1493  _requireNotPaused() */\n      tag_125\n        /* \"@openzeppelin/contracts/utils/Pausable.sol\":1474:1491  _requireNotPaused */\n      tag_126\n        /* \"@openzeppelin/contracts/utils/Pausable.sol\":1474:1493  _requireNotPaused() */\n      jump\t// in\n    tag_125:\n        /* \"bridges/WormholeBridge.sol\":1761:1767  amount */\n      dup3\n        /* \"bridges/WormholeBridge.sol\":1729:1734  token */\n      dup5\n        /* \"bridges/WormholeBridge.sol\":1722:1745  IERC20(token).balanceOf */\n      0xffffffffffffffffffffffffffffffffffffffff\n      and\n      0x70a08231\n        /* \"bridges/WormholeBridge.sol\":1746:1756  msg.sender */\n      caller\n        /* \"bridges/WormholeBridge.sol\":1722:1757  IERC20(token).balanceOf(msg.sender) */\n      mload(0x40)\n      dup3\n      0xffffffff\n      and\n      0xe0\n      shl\n      dup2\n      mstore\n      0x04\n      add\n      tag_128\n      swap2\n      swap1\n      tag_129\n      jump\t// in\n    tag_128:\n      0x20\n      mload(0x40)\n      dup1\n      dup4\n      sub\n      dup2\n      dup7\n      gas\n      staticcall\n      iszero\n      dup1\n      iszero\n      tag_131\n      jumpi\n      returndatasize\n      0x00\n      dup1\n      returndatacopy\n      revert(0x00, returndatasize)\n    tag_131:\n      pop\n      pop\n      pop\n      pop\n      mload(0x40)\n      returndatasize\n      not(0x1f)\n      0x1f\n      dup3\n      add\n      and\n      dup3\n      add\n      dup1\n      0x40\n      mstore\n      pop\n      dup2\n      add\n      swap1\n      tag_132\n      swap2\n      swap1\n      tag_133\n      jump\t// in\n    tag_132:\n        /* \"bridges/WormholeBridge.sol\":1722:1767  IERC20(token).balanceOf(msg.sender) >= amount */\n      lt\n      iszero\n        /* \"bridges/WormholeBridge.sol\":1714:1792  require(IERC20(token).balanceOf(msg.sender) >= amount, \"Insufficient balance\") */\n      tag_134\n      jumpi\n      mload(0x40)\n      0x08c379a000000000000000000000000000000000000000000000000000000000\n      dup2\n      mstore\n      0x04\n      add\n      tag_135\n      swap1\n      tag_136\n      jump\t// in\n    tag_135:\n      mload(0x40)\n      dup1\n      swap2\n      sub\n      swap1\n      revert\n    tag_134:\n        /* \"bridges/WormholeBridge.sol\":1878:1883  token */\n      dup4\n        /* \"bridges/WormholeBridge.sol\":1871:1897  IERC20(token).transferFrom */\n      0xffffffffffffffffffffffffffffffffffffffff\n      and\n      0x23b872dd\n        /* \"bridges/WormholeBridge.sol\":1898:1908  msg.sender */\n      caller\n        /* \"bridges/WormholeBridge.sol\":1918:1922  this */\n      address\n        /* \"bridges/WormholeBridge.sol\":1925:1931  amount */\n      dup7\n        /* \"bridges/WormholeBridge.sol\":1871:1932  IERC20(token).transferFrom(msg.sender, address(this), amount) */\n      mload(0x40)\n      dup5\n      0xffffffff\n      and\n      0xe0\n      shl\n      dup2\n      mstore\n      0x04\n      add\n      tag_137\n      swap4\n      swap3\n      swap2\n      swap1\n      tag_138\n      jump\t// in\n    tag_137:\n      0x20\n      mload(0x40)\n      dup1\n      dup4\n      sub\n      dup2\n      0x00\n      dup8\n      gas\n      call\n      iszero\n      dup1\n      iszero\n      tag_140\n      jumpi\n      returndatasize\n      0x00\n      dup1\n      returndatacopy\n      revert(0x00, returndatasize)\n    tag_140:\n      pop\n      pop\n      pop\n      pop\n      mload(0x40)\n      returndatasize\n      not(0x1f)\n      0x1f\n      dup3\n      add\n      and\n      dup3\n      add\n      dup1\n      0x40\n      mstore\n      pop\n      dup2\n      add\n      swap1\n      tag_141\n      swap2\n      swap1\n      tag_142\n      jump\t// in\n    tag_141:\n      pop\n        /* \"bridges/WormholeBridge.sol\":1979:2001  Message memory message */\n      0x00\n        /* \"bridges/WormholeBridge.sol\":2004:2181  Message({... */\n      mload(0x40)\n      dup1\n      0x80\n      add\n      0x40\n      mstore\n      dup1\n        /* \"bridges/WormholeBridge.sol\":2033:2038  token */\n      dup7\n        /* \"bridges/WormholeBridge.sol\":2004:2181  Message({... */\n      0xffffffffffffffffffffffffffffffffffffffff\n      and\n      dup2\n      mstore\n      0x20\n      add\n        /* \"bridges/WormholeBridge.sol\":2060:2066  amount */\n      dup6\n        /* \"bridges/WormholeBridge.sol\":2004:2181  Message({... */\n      dup2\n      mstore\n      0x20\n      add\n        /* \"bridges/WormholeBridge.sol\":2100:2118  destinationChainId */\n      dup5\n        /* \"bridges/WormholeBridge.sol\":2004:2181  Message({... */\n      0xffff\n      and\n      dup2\n      mstore\n      0x20\n      add\n        /* \"bridges/WormholeBridge.sol\":2152:2170  destinationAddress */\n      dup4\n        /* \"bridges/WormholeBridge.sol\":2004:2181  Message({... */\n      0xffffffffffffffffffffffffffffffffffffffff\n      and\n      dup2\n      mstore\n      pop\n        /* \"bridges/WormholeBridge.sol\":1979:2181  Message memory message = Message({... */\n      swap1\n      pop\n        /* \"bridges/WormholeBridge.sol\":2347:2359  uint64 nonce */\n      0x00\n        /* \"bridges/WormholeBridge.sol\":2403:2418  uint32 sequence */\n      dup1\n        /* \"bridges/WormholeBridge.sol\":2428:2485  sendMessageToWormhole(abi.encode(message), uint32(nonce)) */\n      tag_143\n        /* \"bridges/WormholeBridge.sol\":2461:2468  message */\n      dup4\n        /* \"bridges/WormholeBridge.sol\":2450:2469  abi.encode(message) */\n      add(0x20, mload(0x40))\n      tag_144\n      swap2\n      swap1\n      tag_145\n      jump\t// in\n    tag_144:\n      mload(0x40)\n      0x20\n      dup2\n      dup4\n      sub\n      sub\n      dup2\n      mstore\n      swap1\n      0x40\n      mstore\n        /* \"bridges/WormholeBridge.sol\":2478:2483  nonce */\n      dup4\n        /* \"bridges/WormholeBridge.sol\":2428:2449  sendMessageToWormhole */\n      tag_65\n        /* \"bridges/WormholeBridge.sol\":2428:2485  sendMessageToWormhole(abi.encode(message), uint32(nonce)) */\n      jump\t// in\n    tag_143:\n        /* \"bridges/WormholeBridge.sol\":2403:2486  uint32 sequence = uint32(sendMessageToWormhole(abi.encode(message), uint32(nonce))) */\n      swap1\n      pop\n        /* \"bridges/WormholeBridge.sol\":2582:2592  msg.sender */\n      caller\n        /* \"bridges/WormholeBridge.sol\":2561:2641  TokensBridged(token, msg.sender, amount, destinationChainId, destinationAddress) */\n      0xffffffffffffffffffffffffffffffffffffffff\n      and\n        /* \"bridges/WormholeBridge.sol\":2575:2580  token */\n      dup8\n        /* \"bridges/WormholeBridge.sol\":2561:2641  TokensBridged(token, msg.sender, amount, destinationChainId, destinationAddress) */\n      0xffffffffffffffffffffffffffffffffffffffff\n      and\n      0x728d3b43ee01977258cf271ef6081e347591e58d3def342dd415b7720b4f86bb\n        /* \"bridges/WormholeBridge.sol\":2594:2600  amount */\n      dup9\n        /* \"bridges/WormholeBridge.sol\":2602:2620  destinationChainId */\n      dup9\n        /* \"bridges/WormholeBridge.sol\":2622:2640  destinationAddress */\n      dup9\n        /* \"bridges/WormholeBridge.sol\":2561:2641  TokensBridged(token, msg.sender, amount, destinationChainId, destinationAddress) */\n      mload(0x40)\n      tag_146\n      swap4\n      swap3\n      swap2\n      swap1\n      tag_147\n      jump\t// in\n    tag_146:\n      mload(0x40)\n      dup1\n      swap2\n      sub\n      swap1\n      log3\n        /* \"bridges/WormholeBridge.sol\":1704:2648  {... */\n      pop\n      pop\n      pop\n        /* \"bridges/WormholeBridge.sol\":1573:2648  function bridgeTokens(address token, uint256 amount, uint16 destinationChainId, address destinationAddress) external whenNotPaused {... */\n      pop\n      pop\n      pop\n      pop\n      jump\t// out\n        /* \"bridges/WormholeBridge.sol\":1158:1194  IWormhole public wormholeTokenBridge */\n    tag_76:\n      0x02\n      0x00\n      swap1\n      sload\n      swap1\n      0x0100\n      exp\n      swap1\n      div\n      0xffffffffffffffffffffffffffffffffffffffff\n      and\n      dup2\n      jump\t// out\n        /* \"bridges/WormholeBridge.sol\":2654:2866  function receiveTokens(address token, uint256 amount, address recipient) external onlyRole(ADMIN_ROLE) {... */\n    tag_81:\n        /* \"bridges/WormholeBridge.sol\":1123:1146  keccak256(\"ADMIN_ROLE\") */\n      0xa49807205ce4d355092ef5a8a18f56e8913cf4a201fbe287825b095693c21775\n        /* \"@openzeppelin/contracts/access/AccessControl.sol\":2464:2480  _checkRole(role) */\n      tag_149\n        /* \"@openzeppelin/contracts/access/AccessControl.sol\":2475:2479  role */\n      dup2\n        /* \"@openzeppelin/contracts/access/AccessControl.sol\":2464:2474  _checkRole */\n      tag_90\n        /* \"@openzeppelin/contracts/access/AccessControl.sol\":2464:2480  _checkRole(role) */\n      jump\t// in\n    tag_149:\n        /* \"bridges/WormholeBridge.sol\":2825:2830  token */\n      dup4\n        /* \"bridges/WormholeBridge.sol\":2818:2840  IERC20(token).transfer */\n      0xffffffffffffffffffffffffffffffffffffffff\n      and\n      0xa9059cbb\n        /* \"bridges/WormholeBridge.sol\":2841:2850  recipient */\n      dup4\n        /* \"bridges/WormholeBridge.sol\":2852:2858  amount */\n      dup6\n        /* \"bridges/WormholeBridge.sol\":2818:2859  IERC20(token).transfer(recipient, amount) */\n      mload(0x40)\n      dup4\n      0xffffffff\n      and\n      0xe0\n      shl\n      dup2\n      mstore\n      0x04\n      add\n      tag_151\n      swap3\n      swap2\n      swap1\n      tag_152\n      jump\t// in\n    tag_151:\n      0x20\n      mload(0x40)\n      dup1\n      dup4\n      sub\n      dup2\n      0x00\n      dup8\n      gas\n      call\n      iszero\n      dup1\n      iszero\n      tag_154\n      jumpi\n      returndatasize\n      0x00\n      dup1\n      returndatacopy\n      revert(0x00, returndatasize)\n    tag_154:\n      pop\n      pop\n      pop\n      pop\n      mload(0x40)\n      returndatasize\n      not(0x1f)\n      0x1f\n      dup3\n      add\n      and\n      dup3\n      add\n      dup1\n      0x40\n      mstore\n      pop\n      dup2\n      add\n      swap1\n      tag_155\n      swap2\n      swap1\n      tag_142\n      jump\t// in\n    tag_155:\n      pop\n        /* \"bridges/WormholeBridge.sol\":2654:2866  function receiveTokens(address token, uint256 amount, address recipient) external onlyRole(ADMIN_ROLE) {... */\n      pop\n      pop\n      pop\n      pop\n      jump\t// out\n        /* \"@openzeppelin/contracts/utils/introspection/ERC165.sol\":763:909  function supportsInterface(bytes4 interfaceId) public view virtual returns (bool) {... */\n    tag_85:\n        /* \"@openzeppelin/contracts/utils/introspection/ERC165.sol\":839:843  bool */\n      0x00\n        /* \"@openzeppelin/contracts/utils/introspection/ERC165.sol\":877:902  type(IERC165).interfaceId */\n      0x01ffc9a700000000000000000000000000000000000000000000000000000000\n        /* \"@openzeppelin/contracts/utils/introspection/ERC165.sol\":862:902  interfaceId == type(IERC165).interfaceId */\n      not(0xffffffffffffffffffffffffffffffffffffffffffffffffffffffff)\n      and\n        /* \"@openzeppelin/contracts/utils/introspection/ERC165.sol\":862:873  interfaceId */\n      dup3\n        /* \"@openzeppelin/contracts/utils/introspection/ERC165.sol\":862:902  interfaceId == type(IERC165).interfaceId */\n      not(0xffffffffffffffffffffffffffffffffffffffffffffffffffffffff)\n      and\n      eq\n        /* \"@openzeppelin/contracts/utils/introspection/ERC165.sol\":855:902  return interfaceId == type(IERC165).interfaceId */\n      swap1\n      pop\n        /* \"@openzeppelin/contracts/utils/introspection/ERC165.sol\":763:909  function supportsInterface(bytes4 interfaceId) public view virtual returns (bool) {... */\n      swap2\n      swap1\n      pop\n      jump\t// out\n        /* \"@openzeppelin/contracts/access/AccessControl.sol\":3199:3302  function _checkRole(bytes32 role) internal view virtual {... */\n    tag_90:\n        /* \"@openzeppelin/contracts/access/AccessControl.sol\":3265:3295  _checkRole(role, _msgSender()) */\n      tag_158\n        /* \"@openzeppelin/contracts/access/AccessControl.sol\":3276:3280  role */\n      dup2\n        /* \"@openzeppelin/contracts/access/AccessControl.sol\":3282:3294  _msgSender() */\n      tag_159\n        /* \"@openzeppelin/contracts/access/AccessControl.sol\":3282:3292  _msgSender */\n      tag_96\n        /* \"@openzeppelin/contracts/access/AccessControl.sol\":3282:3294  _msgSender() */\n      jump\t// in\n    tag_159:\n        /* \"@openzeppelin/contracts/access/AccessControl.sol\":3265:3275  _checkRole */\n      tag_160\n        /* \"@openzeppelin/contracts/access/AccessControl.sol\":3265:3295  _checkRole(role, _msgSender()) */\n      jump\t// in\n    tag_158:\n        /* \"@openzeppelin/contracts/access/AccessControl.sol\":3199:3302  function _checkRole(bytes32 role) internal view virtual {... */\n      pop\n      jump\t// out\n        /* \"@openzeppelin/contracts/access/AccessControl.sol\":6179:6495  function _grantRole(bytes32 role, address account) internal virtual returns (bool) {... */\n    tag_93:\n        /* \"@openzeppelin/contracts/access/AccessControl.sol\":6256:6260  bool */\n      0x00\n        /* \"@openzeppelin/contracts/access/AccessControl.sol\":6277:6299  hasRole(role, account) */\n      tag_162\n        /* \"@openzeppelin/contracts/access/AccessControl.sol\":6285:6289  role */\n      dup4\n        /* \"@openzeppelin/contracts/access/AccessControl.sol\":6291:6298  account */\n      dup4\n        /* \"@openzeppelin/contracts/access/AccessControl.sol\":6277:6284  hasRole */\n      tag_57\n        /* \"@openzeppelin/contracts/access/AccessControl.sol\":6277:6299  hasRole(role, account) */\n      jump\t// in\n    tag_162:\n        /* \"@openzeppelin/contracts/access/AccessControl.sol\":6272:6489  if (!hasRole(role, account)) {... */\n      tag_163\n      jumpi\n        /* \"@openzeppelin/contracts/access/AccessControl.sol\":6347:6351  true */\n      0x01\n        /* \"@openzeppelin/contracts/access/AccessControl.sol\":6315:6321  _roles */\n      0x00\n        /* \"@openzeppelin/contracts/access/AccessControl.sol\":6315:6327  _roles[role] */\n      dup1\n        /* \"@openzeppelin/contracts/access/AccessControl.sol\":6322:6326  role */\n      dup6\n        /* \"@openzeppelin/contracts/access/AccessControl.sol\":6315:6327  _roles[role] */\n      dup2\n      mstore\n      0x20\n      add\n      swap1\n      dup2\n      mstore\n      0x20\n      add\n      0x00\n      keccak256\n        /* \"@openzeppelin/contracts/access/AccessControl.sol\":6315:6335  _roles[role].hasRole */\n      0x00\n      add\n        /* \"@openzeppelin/contracts/access/AccessControl.sol\":6315:6344  _roles[role].hasRole[account] */\n      0x00\n        /* \"@openzeppelin/contracts/access/AccessControl.sol\":6336:6343  account */\n      dup5\n        /* \"@openzeppelin/contracts/access/AccessControl.sol\":6315:6344  _roles[role].hasRole[account] */\n      0xffffffffffffffffffffffffffffffffffffffff\n      and\n      0xffffffffffffffffffffffffffffffffffffffff\n      and\n      dup2\n      mstore\n      0x20\n      add\n      swap1\n      dup2\n      mstore\n      0x20\n      add\n      0x00\n      keccak256\n      0x00\n        /* \"@openzeppelin/contracts/access/AccessControl.sol\":6315:6351  _roles[role].hasRole[account] = true */\n      0x0100\n      exp\n      dup2\n      sload\n      dup2\n      0xff\n      mul\n      not\n      and\n      swap1\n      dup4\n      iszero\n      iszero\n      mul\n      or\n      swap1\n      sstore\n      pop\n        /* \"@openzeppelin/contracts/access/AccessControl.sol\":6397:6409  _msgSender() */\n      tag_164\n        /* \"@openzeppelin/contracts/access/AccessControl.sol\":6397:6407  _msgSender */\n      tag_96\n        /* \"@openzeppelin/contracts/access/AccessControl.sol\":6397:6409  _msgSender() */\n      jump\t// in\n    tag_164:\n        /* \"@openzeppelin/contracts/access/AccessControl.sol\":6370:6410  RoleGranted(role, account, _msgSender()) */\n      0xffffffffffffffffffffffffffffffffffffffff\n      and\n        /* \"@openzeppelin/contracts/access/AccessControl.sol\":6388:6395  account */\n      dup3\n        /* \"@openzeppelin/contracts/access/AccessControl.sol\":6370:6410  RoleGranted(role, account, _msgSender()) */\n      0xffffffffffffffffffffffffffffffffffffffff\n      and\n        /* \"@openzeppelin/contracts/access/AccessControl.sol\":6382:6386  role */\n      dup5\n        /* \"@openzeppelin/contracts/access/AccessControl.sol\":6370:6410  RoleGranted(role, account, _msgSender()) */\n      0x2f8788117e7eff1d82e926ec794901d17c78024a50270940304540a733656f0d\n      mload(0x40)\n      mload(0x40)\n      dup1\n      swap2\n      sub\n      swap1\n      log4\n        /* \"@openzeppelin/contracts/access/AccessControl.sol\":6431:6435  true */\n      0x01\n        /* \"@openzeppelin/contracts/access/AccessControl.sol\":6424:6435  return true */\n      swap1\n      pop\n      jump(tag_161)\n        /* \"@openzeppelin/contracts/access/AccessControl.sol\":6272:6489  if (!hasRole(role, account)) {... */\n    tag_163:\n        /* \"@openzeppelin/contracts/access/AccessControl.sol\":6473:6478  false */\n      0x00\n        /* \"@openzeppelin/contracts/access/AccessControl.sol\":6466:6478  return false */\n      swap1\n      pop\n        /* \"@openzeppelin/contracts/access/AccessControl.sol\":6179:6495  function _grantRole(bytes32 role, address account) internal virtual returns (bool) {... */\n    tag_161:\n      swap3\n      swap2\n      pop\n      pop\n      jump\t// out\n        /* \"@openzeppelin/contracts/utils/Context.sol\":656:752  function _msgSender() internal view virtual returns (address) {... */\n    tag_96:\n        /* \"@openzeppelin/contracts/utils/Context.sol\":709:716  address */\n      0x00\n        /* \"@openzeppelin/contracts/utils/Context.sol\":735:745  msg.sender */\n      caller\n        /* \"@openzeppelin/contracts/utils/Context.sol\":728:745  return msg.sender */\n      swap1\n      pop\n        /* \"@openzeppelin/contracts/utils/Context.sol\":656:752  function _msgSender() internal view virtual returns (address) {... */\n      swap1\n      jump\t// out\n        /* \"@openzeppelin/contracts/access/AccessControl.sol\":6730:7047  function _revokeRole(bytes32 role, address account) internal virtual returns (bool) {... */\n    tag_99:\n        /* \"@openzeppelin/contracts/access/AccessControl.sol\":6808:6812  bool */\n      0x00\n        /* \"@openzeppelin/contracts/access/AccessControl.sol\":6828:6850  hasRole(role, account) */\n      tag_168\n        /* \"@openzeppelin/contracts/access/AccessControl.sol\":6836:6840  role */\n      dup4\n        /* \"@openzeppelin/contracts/access/AccessControl.sol\":6842:6849  account */\n      dup4\n        /* \"@openzeppelin/contracts/access/AccessControl.sol\":6828:6835  hasRole */\n      tag_57\n        /* \"@openzeppelin/contracts/access/AccessControl.sol\":6828:6850  hasRole(role, account) */\n      jump\t// in\n    tag_168:\n        /* \"@openzeppelin/contracts/access/AccessControl.sol\":6824:7041  if (hasRole(role, account)) {... */\n      iszero\n      tag_169\n      jumpi\n        /* \"@openzeppelin/contracts/access/AccessControl.sol\":6898:6903  false */\n      0x00\n        /* \"@openzeppelin/contracts/access/AccessControl.sol\":6866:6872  _roles */\n      dup1\n        /* \"@openzeppelin/contracts/access/AccessControl.sol\":6866:6878  _roles[role] */\n      0x00\n        /* \"@openzeppelin/contracts/access/AccessControl.sol\":6873:6877  role */\n      dup6\n        /* \"@openzeppelin/contracts/access/AccessControl.sol\":6866:6878  _roles[role] */\n      dup2\n      mstore\n      0x20\n      add\n      swap1\n      dup2\n      mstore\n      0x20\n      add\n      0x00\n      keccak256\n        /* \"@openzeppelin/contracts/access/AccessControl.sol\":6866:6886  _roles[role].hasRole */\n      0x00\n      add\n        /* \"@openzeppelin/contracts/access/AccessControl.sol\":6866:6895  _roles[role].hasRole[account] */\n      0x00\n        /* \"@openzeppelin/contracts/access/AccessControl.sol\":6887:6894  account */\n      dup5\n        /* \"@openzeppelin/contracts/access/AccessControl.sol\":6866:6895  _roles[role].hasRole[account] */\n      0xffffffffffffffffffffffffffffffffffffffff\n      and\n      0xffffffffffffffffffffffffffffffffffffffff\n      and\n      dup2\n      mstore\n      0x20\n      add\n      swap1\n      dup2\n      mstore\n      0x20\n      add\n      0x00\n      keccak256\n      0x00\n        /* \"@openzeppelin/contracts/access/AccessControl.sol\":6866:6903  _roles[role].hasRole[account] = false */\n      0x0100\n      exp\n      dup2\n      sload\n      dup2\n      0xff\n      mul\n      not\n      and\n      swap1\n      dup4\n      iszero\n      iszero\n      mul\n      or\n      swap1\n      sstore\n      pop\n        /* \"@openzeppelin/contracts/access/AccessControl.sol\":6949:6961  _msgSender() */\n      tag_170\n        /* \"@openzeppelin/contracts/access/AccessControl.sol\":6949:6959  _msgSender */\n      tag_96\n        /* \"@openzeppelin/contracts/access/AccessControl.sol\":6949:6961  _msgSender() */\n      jump\t// in\n    tag_170:\n        /* \"@openzeppelin/contracts/access/AccessControl.sol\":6922:6962  RoleRevoked(role, account, _msgSender()) */\n      0xffffffffffffffffffffffffffffffffffffffff\n      and\n        /* \"@openzeppelin/contracts/access/AccessControl.sol\":6940:6947  account */\n      dup3\n        /* \"@openzeppelin/contracts/access/AccessControl.sol\":6922:6962  RoleRevoked(role, account, _msgSender()) */\n      0xffffffffffffffffffffffffffffffffffffffff\n      and\n        /* \"@openzeppelin/contracts/access/AccessControl.sol\":6934:6938  role */\n      dup5\n        /* \"@openzeppelin/contracts/access/AccessControl.sol\":6922:6962  RoleRevoked(role, account, _msgSender()) */\n      0xf6391f5c32d9c69d2a47ea670b442974b53935d1edc7fd64eb21e047a839171b\n      mload(0x40)\n      mload(0x40)\n      dup1\n      swap2\n      sub\n      swap1\n      log4\n        /* \"@openzeppelin/contracts/access/AccessControl.sol\":6983:6987  true */\n      0x01\n        /* \"@openzeppelin/contracts/access/AccessControl.sol\":6976:6987  return true */\n      swap1\n      pop\n      jump(tag_167)\n        /* \"@openzeppelin/contracts/access/AccessControl.sol\":6824:7041  if (hasRole(role, account)) {... */\n    tag_169:\n        /* \"@openzeppelin/contracts/access/AccessControl.sol\":7025:7030  false */\n      0x00\n        /* \"@openzeppelin/contracts/access/AccessControl.sol\":7018:7030  return false */\n      swap1\n      pop\n        /* \"@openzeppelin/contracts/access/AccessControl.sol\":6730:7047  function _revokeRole(bytes32 role, address account) internal virtual returns (bool) {... */\n    tag_167:\n      swap3\n      swap2\n      pop\n      pop\n      jump\t// out\n        /* \"@openzeppelin/contracts/utils/Pausable.sol\":2710:2827  function _unpause() internal virtual whenPaused {... */\n    tag_104:\n        /* \"@openzeppelin/contracts/utils/Pausable.sol\":1721:1737  _requirePaused() */\n      tag_173\n        /* \"@openzeppelin/contracts/utils/Pausable.sol\":1721:1735  _requirePaused */\n      tag_174\n        /* \"@openzeppelin/contracts/utils/Pausable.sol\":1721:1737  _requirePaused() */\n      jump\t// in\n    tag_173:\n        /* \"@openzeppelin/contracts/utils/Pausable.sol\":2778:2783  false */\n      0x00\n        /* \"@openzeppelin/contracts/utils/Pausable.sol\":2768:2775  _paused */\n      0x01\n      0x00\n        /* \"@openzeppelin/contracts/utils/Pausable.sol\":2768:2783  _paused = false */\n      0x0100\n      exp\n      dup2\n      sload\n      dup2\n      0xff\n      mul\n      not\n      and\n      swap1\n      dup4\n      iszero\n      iszero\n      mul\n      or\n      swap1\n      sstore\n      pop\n        /* \"@openzeppelin/contracts/utils/Pausable.sol\":2798:2820  Unpaused(_msgSender()) */\n      0x5db9ee0a495bf2e6ff9c91a7834c1ba4fdd244a5e8aa4e537bd38aeae4b073aa\n        /* \"@openzeppelin/contracts/utils/Pausable.sol\":2807:2819  _msgSender() */\n      tag_176\n        /* \"@openzeppelin/contracts/utils/Pausable.sol\":2807:2817  _msgSender */\n      tag_96\n        /* \"@openzeppelin/contracts/utils/Pausable.sol\":2807:2819  _msgSender() */\n      jump\t// in\n    tag_176:\n        /* \"@openzeppelin/contracts/utils/Pausable.sol\":2798:2820  Unpaused(_msgSender()) */\n      mload(0x40)\n      tag_177\n      swap2\n      swap1\n      tag_129\n      jump\t// in\n    tag_177:\n      mload(0x40)\n      dup1\n      swap2\n      sub\n      swap1\n      log1\n        /* \"@openzeppelin/contracts/utils/Pausable.sol\":2710:2827  function _unpause() internal virtual whenPaused {... */\n      jump\t// out\n        /* \"@openzeppelin/contracts/utils/Pausable.sol\":2463:2578  function _pause() internal virtual whenNotPaused {... */\n    tag_110:\n        /* \"@openzeppelin/contracts/utils/Pausable.sol\":1474:1493  _requireNotPaused() */\n      tag_179\n        /* \"@openzeppelin/contracts/utils/Pausable.sol\":1474:1491  _requireNotPaused */\n      tag_126\n        /* \"@openzeppelin/contracts/utils/Pausable.sol\":1474:1493  _requireNotPaused() */\n      jump\t// in\n    tag_179:\n        /* \"@openzeppelin/contracts/utils/Pausable.sol\":2532:2536  true */\n      0x01\n        /* \"@openzeppelin/contracts/utils/Pausable.sol\":2522:2529  _paused */\n      dup1\n      0x00\n        /* \"@openzeppelin/contracts/utils/Pausable.sol\":2522:2536  _paused = true */\n      0x0100\n      exp\n      dup2\n      sload\n      dup2\n      0xff\n      mul\n      not\n      and\n      swap1\n      dup4\n      iszero\n      iszero\n      mul\n      or\n      swap1\n      sstore\n      pop\n        /* \"@openzeppelin/contracts/utils/Pausable.sol\":2551:2571  Paused(_msgSender()) */\n      0x62e78cea01bee320cd4e420270b5ea74000d11b0c9f74754ebdbfc544b05a258\n        /* \"@openzeppelin/contracts/utils/Pausable.sol\":2558:2570  _msgSender() */\n      tag_181\n        /* \"@openzeppelin/contracts/utils/Pausable.sol\":2558:2568  _msgSender */\n      tag_96\n        /* \"@openzeppelin/contracts/utils/Pausable.sol\":2558:2570  _msgSender() */\n      jump\t// in\n    tag_181:\n        /* \"@openzeppelin/contracts/utils/Pausable.sol\":2551:2571  Paused(_msgSender()) */\n      mload(0x40)\n      tag_182\n      swap2\n      swap1\n      tag_129\n      jump\t// in\n    tag_182:\n      mload(0x40)\n      dup1\n      swap2\n      sub\n      swap1\n      log1\n        /* \"@openzeppelin/contracts/utils/Pausable.sol\":2463:2578  function _pause() internal virtual whenNotPaused {... */\n      jump\t// out\n        /* \"@openzeppelin/contracts/utils/Pausable.sol\":2002:2130  function _requireNotPaused() internal view virtual {... */\n    tag_126:\n        /* \"@openzeppelin/contracts/utils/Pausable.sol\":2067:2075  paused() */\n      tag_184\n        /* \"@openzeppelin/contracts/utils/Pausable.sol\":2067:2073  paused */\n      tag_44\n        /* \"@openzeppelin/contracts/utils/Pausable.sol\":2067:2075  paused() */\n      jump\t// in\n    tag_184:\n        /* \"@openzeppelin/contracts/utils/Pausable.sol\":2063:2124  if (paused()) {... */\n      iszero\n      tag_185\n      jumpi\n        /* \"@openzeppelin/contracts/utils/Pausable.sol\":2098:2113  EnforcedPause() */\n      mload(0x40)\n      0xd93c066500000000000000000000000000000000000000000000000000000000\n      dup2\n      mstore\n      0x04\n      add\n      mload(0x40)\n      dup1\n      swap2\n      sub\n      swap1\n      revert\n        /* \"@openzeppelin/contracts/utils/Pausable.sol\":2063:2124  if (paused()) {... */\n    tag_185:\n        /* \"@openzeppelin/contracts/utils/Pausable.sol\":2002:2130  function _requireNotPaused() internal view virtual {... */\n      jump\t// out\n        /* \"@openzeppelin/contracts/access/AccessControl.sol\":3432:3629  function _checkRole(bytes32 role, address account) internal view virtual {... */\n    tag_160:\n        /* \"@openzeppelin/contracts/access/AccessControl.sol\":3520:3542  hasRole(role, account) */\n      tag_187\n        /* \"@openzeppelin/contracts/access/AccessControl.sol\":3528:3532  role */\n      dup3\n        /* \"@openzeppelin/contracts/access/AccessControl.sol\":3534:3541  account */\n      dup3\n        /* \"@openzeppelin/contracts/access/AccessControl.sol\":3520:3527  hasRole */\n      tag_57\n        /* \"@openzeppelin/contracts/access/AccessControl.sol\":3520:3542  hasRole(role, account) */\n      jump\t// in\n    tag_187:\n        /* \"@openzeppelin/contracts/access/AccessControl.sol\":3515:3623  if (!hasRole(role, account)) {... */\n      tag_188\n      jumpi\n        /* \"@openzeppelin/contracts/access/AccessControl.sol\":3598:3605  account */\n      dup1\n        /* \"@openzeppelin/contracts/access/AccessControl.sol\":3607:3611  role */\n      dup3\n        /* \"@openzeppelin/contracts/access/AccessControl.sol\":3565:3612  AccessControlUnauthorizedAccount(account, role) */\n      mload(0x40)\n      0xe2517d3f00000000000000000000000000000000000000000000000000000000\n      dup2\n      mstore\n      0x04\n      add\n      tag_189\n      swap3\n      swap2\n      swap1\n      tag_190\n      jump\t// in\n    tag_189:\n      mload(0x40)\n      dup1\n      swap2\n      sub\n      swap1\n      revert\n        /* \"@openzeppelin/contracts/access/AccessControl.sol\":3515:3623  if (!hasRole(role, account)) {... */\n    tag_188:\n        /* \"@openzeppelin/contracts/access/AccessControl.sol\":3432:3629  function _checkRole(bytes32 role, address account) internal view virtual {... */\n      pop\n      pop\n      jump\t// out\n        /* \"@openzeppelin/contracts/utils/Pausable.sol\":2202:2328  function _requirePaused() internal view virtual {... */\n    tag_174:\n        /* \"@openzeppelin/contracts/utils/Pausable.sol\":2265:2273  paused() */\n      tag_192\n        /* \"@openzeppelin/contracts/utils/Pausable.sol\":2265:2271  paused */\n      tag_44\n        /* \"@openzeppelin/contracts/utils/Pausable.sol\":2265:2273  paused() */\n      jump\t// in\n    tag_192:\n        /* \"@openzeppelin/contracts/utils/Pausable.sol\":2260:2322  if (!paused()) {... */\n      tag_193\n      jumpi\n        /* \"@openzeppelin/contracts/utils/Pausable.sol\":2296:2311  ExpectedPause() */\n      mload(0x40)\n      0x8dfc202b00000000000000000000000000000000000000000000000000000000\n      dup2\n      mstore\n      0x04\n      add\n      mload(0x40)\n      dup1\n      swap2\n      sub\n      swap1\n      revert\n        /* \"@openzeppelin/contracts/utils/Pausable.sol\":2260:2322  if (!paused()) {... */\n    tag_193:\n        /* \"@openzeppelin/contracts/utils/Pausable.sol\":2202:2328  function _requirePaused() internal view virtual {... */\n      jump\t// out\n        /* \"#utility.yul\":7:82   */\n    tag_194:\n        /* \"#utility.yul\":40:46   */\n      0x00\n        /* \"#utility.yul\":73:75   */\n      0x40\n        /* \"#utility.yul\":67:76   */\n      mload\n        /* \"#utility.yul\":57:76   */\n      swap1\n      pop\n        /* \"#utility.yul\":7:82   */\n      swap1\n      jump\t// out\n        /* \"#utility.yul\":88:205   */\n    tag_195:\n        /* \"#utility.yul\":197:198   */\n      0x00\n        /* \"#utility.yul\":194:195   */\n      dup1\n        /* \"#utility.yul\":187:199   */\n      revert\n        /* \"#utility.yul\":211:328   */\n    tag_196:\n        /* \"#utility.yul\":320:321   */\n      0x00\n        /* \"#utility.yul\":317:318   */\n      dup1\n        /* \"#utility.yul\":310:322   */\n      revert\n        /* \"#utility.yul\":334:483   */\n    tag_197:\n        /* \"#utility.yul\":370:377   */\n      0x00\n        /* \"#utility.yul\":410:476   */\n      0xffffffff00000000000000000000000000000000000000000000000000000000\n        /* \"#utility.yul\":403:408   */\n      dup3\n        /* \"#utility.yul\":399:477   */\n      and\n        /* \"#utility.yul\":388:477   */\n      swap1\n      pop\n        /* \"#utility.yul\":334:483   */\n      swap2\n      swap1\n      pop\n      jump\t// out\n        /* \"#utility.yul\":489:609   */\n    tag_198:\n        /* \"#utility.yul\":561:584   */\n      tag_262\n        /* \"#utility.yul\":578:583   */\n      dup2\n        /* \"#utility.yul\":561:584   */\n      tag_197\n      jump\t// in\n    tag_262:\n        /* \"#utility.yul\":554:559   */\n      dup2\n        /* \"#utility.yul\":551:585   */\n      eq\n        /* \"#utility.yul\":541:603   */\n      tag_263\n      jumpi\n        /* \"#utility.yul\":599:600   */\n      0x00\n        /* \"#utility.yul\":596:597   */\n      dup1\n        /* \"#utility.yul\":589:601   */\n      revert\n        /* \"#utility.yul\":541:603   */\n    tag_263:\n        /* \"#utility.yul\":489:609   */\n      pop\n      jump\t// out\n        /* \"#utility.yul\":615:752   */\n    tag_199:\n        /* \"#utility.yul\":660:665   */\n      0x00\n        /* \"#utility.yul\":698:704   */\n      dup2\n        /* \"#utility.yul\":685:705   */\n      calldataload\n        /* \"#utility.yul\":676:705   */\n      swap1\n      pop\n        /* \"#utility.yul\":714:746   */\n      tag_265\n        /* \"#utility.yul\":740:745   */\n      dup2\n        /* \"#utility.yul\":714:746   */\n      tag_198\n      jump\t// in\n    tag_265:\n        /* \"#utility.yul\":615:752   */\n      swap3\n      swap2\n      pop\n      pop\n      jump\t// out\n        /* \"#utility.yul\":758:1085   */\n    tag_24:\n        /* \"#utility.yul\":816:822   */\n      0x00\n        /* \"#utility.yul\":865:867   */\n      0x20\n        /* \"#utility.yul\":853:862   */\n      dup3\n        /* \"#utility.yul\":844:851   */\n      dup5\n        /* \"#utility.yul\":840:863   */\n      sub\n        /* \"#utility.yul\":836:868   */\n      slt\n        /* \"#utility.yul\":833:952   */\n      iszero\n      tag_267\n      jumpi\n        /* \"#utility.yul\":871:950   */\n      tag_268\n      tag_195\n      jump\t// in\n    tag_268:\n        /* \"#utility.yul\":833:952   */\n    tag_267:\n        /* \"#utility.yul\":991:992   */\n      0x00\n        /* \"#utility.yul\":1016:1068   */\n      tag_269\n        /* \"#utility.yul\":1060:1067   */\n      dup5\n        /* \"#utility.yul\":1051:1057   */\n      dup3\n        /* \"#utility.yul\":1040:1049   */\n      dup6\n        /* \"#utility.yul\":1036:1058   */\n      add\n        /* \"#utility.yul\":1016:1068   */\n      tag_199\n      jump\t// in\n    tag_269:\n        /* \"#utility.yul\":1006:1068   */\n      swap2\n      pop\n        /* \"#utility.yul\":962:1078   */\n      pop\n        /* \"#utility.yul\":758:1085   */\n      swap3\n      swap2\n      pop\n      pop\n      jump\t// out\n        /* \"#utility.yul\":1091:1181   */\n    tag_200:\n        /* \"#utility.yul\":1125:1132   */\n      0x00\n        /* \"#utility.yul\":1168:1173   */\n      dup2\n        /* \"#utility.yul\":1161:1174   */\n      iszero\n        /* \"#utility.yul\":1154:1175   */\n      iszero\n        /* \"#utility.yul\":1143:1175   */\n      swap1\n      pop\n        /* \"#utility.yul\":1091:1181   */\n      swap2\n      swap1\n      pop\n      jump\t// out\n        /* \"#utility.yul\":1187:1296   */\n    tag_201:\n        /* \"#utility.yul\":1268:1289   */\n      tag_272\n        /* \"#utility.yul\":1283:1288   */\n      dup2\n        /* \"#utility.yul\":1268:1289   */\n      tag_200\n      jump\t// in\n    tag_272:\n        /* \"#utility.yul\":1263:1266   */\n      dup3\n        /* \"#utility.yul\":1256:1290   */\n      mstore\n        /* \"#utility.yul\":1187:1296   */\n      pop\n      pop\n      jump\t// out\n        /* \"#utility.yul\":1302:1512   */\n    tag_27:\n        /* \"#utility.yul\":1389:1393   */\n      0x00\n        /* \"#utility.yul\":1427:1429   */\n      0x20\n        /* \"#utility.yul\":1416:1425   */\n      dup3\n        /* \"#utility.yul\":1412:1430   */\n      add\n        /* \"#utility.yul\":1404:1430   */\n      swap1\n      pop\n        /* \"#utility.yul\":1440:1505   */\n      tag_274\n        /* \"#utility.yul\":1502:1503   */\n      0x00\n        /* \"#utility.yul\":1491:1500   */\n      dup4\n        /* \"#utility.yul\":1487:1504   */\n      add\n        /* \"#utility.yul\":1478:1484   */\n      dup5\n        /* \"#utility.yul\":1440:1505   */\n      tag_201\n      jump\t// in\n    tag_274:\n        /* \"#utility.yul\":1302:1512   */\n      swap3\n      swap2\n      pop\n      pop\n      jump\t// out\n        /* \"#utility.yul\":1518:1595   */\n    tag_202:\n        /* \"#utility.yul\":1555:1562   */\n      0x00\n        /* \"#utility.yul\":1584:1589   */\n      dup2\n        /* \"#utility.yul\":1573:1589   */\n      swap1\n      pop\n        /* \"#utility.yul\":1518:1595   */\n      swap2\n      swap1\n      pop\n      jump\t// out\n        /* \"#utility.yul\":1601:1723   */\n    tag_203:\n        /* \"#utility.yul\":1674:1698   */\n      tag_277\n        /* \"#utility.yul\":1692:1697   */\n      dup2\n        /* \"#utility.yul\":1674:1698   */\n      tag_202\n      jump\t// in\n    tag_277:\n        /* \"#utility.yul\":1667:1672   */\n      dup2\n        /* \"#utility.yul\":1664:1699   */\n      eq\n        /* \"#utility.yul\":1654:1717   */\n      tag_278\n      jumpi\n        /* \"#utility.yul\":1713:1714   */\n      0x00\n        /* \"#utility.yul\":1710:1711   */\n      dup1\n        /* \"#utility.yul\":1703:1715   */\n      revert\n        /* \"#utility.yul\":1654:1717   */\n    tag_278:\n        /* \"#utility.yul\":1601:1723   */\n      pop\n      jump\t// out\n        /* \"#utility.yul\":1729:1868   */\n    tag_204:\n        /* \"#utility.yul\":1775:1780   */\n      0x00\n        /* \"#utility.yul\":1813:1819   */\n      dup2\n        /* \"#utility.yul\":1800:1820   */\n      calldataload\n        /* \"#utility.yul\":1791:1820   */\n      swap1\n      pop\n        /* \"#utility.yul\":1829:1862   */\n      tag_280\n        /* \"#utility.yul\":1856:1861   */\n      dup2\n        /* \"#utility.yul\":1829:1862   */\n      tag_203\n      jump\t// in\n    tag_280:\n        /* \"#utility.yul\":1729:1868   */\n      swap3\n      swap2\n      pop\n      pop\n      jump\t// out\n        /* \"#utility.yul\":1874:2203   */\n    tag_30:\n        /* \"#utility.yul\":1933:1939   */\n      0x00\n        /* \"#utility.yul\":1982:1984   */\n      0x20\n        /* \"#utility.yul\":1970:1979   */\n      dup3\n        /* \"#utility.yul\":1961:1968   */\n      dup5\n        /* \"#utility.yul\":1957:1980   */\n      sub\n        /* \"#utility.yul\":1953:1985   */\n      slt\n        /* \"#utility.yul\":1950:2069   */\n      iszero\n      tag_282\n      jumpi\n        /* \"#utility.yul\":1988:2067   */\n      tag_283\n      tag_195\n      jump\t// in\n    tag_283:\n        /* \"#utility.yul\":1950:2069   */\n    tag_282:\n        /* \"#utility.yul\":2108:2109   */\n      0x00\n        /* \"#utility.yul\":2133:2186   */\n      tag_284\n        /* \"#utility.yul\":2178:2185   */\n      dup5\n        /* \"#utility.yul\":2169:2175   */\n      dup3\n        /* \"#utility.yul\":2158:2167   */\n      dup6\n        /* \"#utility.yul\":2154:2176   */\n      add\n        /* \"#utility.yul\":2133:2186   */\n      tag_204\n      jump\t// in\n    tag_284:\n        /* \"#utility.yul\":2123:2186   */\n      swap2\n      pop\n        /* \"#utility.yul\":2079:2196   */\n      pop\n        /* \"#utility.yul\":1874:2203   */\n      swap3\n      swap2\n      pop\n      pop\n      jump\t// out\n        /* \"#utility.yul\":2209:2327   */\n    tag_205:\n        /* \"#utility.yul\":2296:2320   */\n      tag_286\n        /* \"#utility.yul\":2314:2319   */\n      dup2\n        /* \"#utility.yul\":2296:2320   */\n      tag_202\n      jump\t// in\n    tag_286:\n        /* \"#utility.yul\":2291:2294   */\n      dup3\n        /* \"#utility.yul\":2284:2321   */\n      mstore\n        /* \"#utility.yul\":2209:2327   */\n      pop\n      pop\n      jump\t// out\n        /* \"#utility.yul\":2333:2555   */\n    tag_33:\n        /* \"#utility.yul\":2426:2430   */\n      0x00\n        /* \"#utility.yul\":2464:2466   */\n      0x20\n        /* \"#utility.yul\":2453:2462   */\n      dup3\n        /* \"#utility.yul\":2449:2467   */\n      add\n        /* \"#utility.yul\":2441:2467   */\n      swap1\n      pop\n        /* \"#utility.yul\":2477:2548   */\n      tag_288\n        /* \"#utility.yul\":2545:2546   */\n      0x00\n        /* \"#utility.yul\":2534:2543   */\n      dup4\n        /* \"#utility.yul\":2530:2547   */\n      add\n        /* \"#utility.yul\":2521:2527   */\n      dup5\n        /* \"#utility.yul\":2477:2548   */\n      tag_205\n      jump\t// in\n    tag_288:\n        /* \"#utility.yul\":2333:2555   */\n      swap3\n      swap2\n      pop\n      pop\n      jump\t// out\n        /* \"#utility.yul\":2561:2687   */\n    tag_206:\n        /* \"#utility.yul\":2598:2605   */\n      0x00\n        /* \"#utility.yul\":2638:2680   */\n      0xffffffffffffffffffffffffffffffffffffffff\n        /* \"#utility.yul\":2631:2636   */\n      dup3\n        /* \"#utility.yul\":2627:2681   */\n      and\n        /* \"#utility.yul\":2616:2681   */\n      swap1\n      pop\n        /* \"#utility.yul\":2561:2687   */\n      swap2\n      swap1\n      pop\n      jump\t// out\n        /* \"#utility.yul\":2693:2789   */\n    tag_207:\n        /* \"#utility.yul\":2730:2737   */\n      0x00\n        /* \"#utility.yul\":2759:2783   */\n      tag_291\n        /* \"#utility.yul\":2777:2782   */\n      dup3\n        /* \"#utility.yul\":2759:2783   */\n      tag_206\n      jump\t// in\n    tag_291:\n        /* \"#utility.yul\":2748:2783   */\n      swap1\n      pop\n        /* \"#utility.yul\":2693:2789   */\n      swap2\n      swap1\n      pop\n      jump\t// out\n        /* \"#utility.yul\":2795:2917   */\n    tag_208:\n        /* \"#utility.yul\":2868:2892   */\n      tag_293\n        /* \"#utility.yul\":2886:2891   */\n      dup2\n        /* \"#utility.yul\":2868:2892   */\n      tag_207\n      jump\t// in\n    tag_293:\n        /* \"#utility.yul\":2861:2866   */\n      dup2\n        /* \"#utility.yul\":2858:2893   */\n      eq\n        /* \"#utility.yul\":2848:2911   */\n      tag_294\n      jumpi\n        /* \"#utility.yul\":2907:2908   */\n      0x00\n        /* \"#utility.yul\":2904:2905   */\n      dup1\n        /* \"#utility.yul\":2897:2909   */\n      revert\n        /* \"#utility.yul\":2848:2911   */\n    tag_294:\n        /* \"#utility.yul\":2795:2917   */\n      pop\n      jump\t// out\n        /* \"#utility.yul\":2923:3062   */\n    tag_209:\n        /* \"#utility.yul\":2969:2974   */\n      0x00\n        /* \"#utility.yul\":3007:3013   */\n      dup2\n        /* \"#utility.yul\":2994:3014   */\n      calldataload\n        /* \"#utility.yul\":2985:3014   */\n      swap1\n      pop\n        /* \"#utility.yul\":3023:3056   */\n      tag_296\n        /* \"#utility.yul\":3050:3055   */\n      dup2\n        /* \"#utility.yul\":3023:3056   */\n      tag_208\n      jump\t// in\n    tag_296:\n        /* \"#utility.yul\":2923:3062   */\n      swap3\n      swap2\n      pop\n      pop\n      jump\t// out\n        /* \"#utility.yul\":3068:3542   */\n    tag_36:\n        /* \"#utility.yul\":3136:3142   */\n      0x00\n        /* \"#utility.yul\":3144:3150   */\n      dup1\n        /* \"#utility.yul\":3193:3195   */\n      0x40\n        /* \"#utility.yul\":3181:3190   */\n      dup4\n        /* \"#utility.yul\":3172:3179   */\n      dup6\n        /* \"#utility.yul\":3168:3191   */\n      sub\n        /* \"#utility.yul\":3164:3196   */\n      slt\n        /* \"#utility.yul\":3161:3280   */\n      iszero\n      tag_298\n      jumpi\n        /* \"#utility.yul\":3199:3278   */\n      tag_299\n      tag_195\n      jump\t// in\n    tag_299:\n        /* \"#utility.yul\":3161:3280   */\n    tag_298:\n        /* \"#utility.yul\":3319:3320   */\n      0x00\n        /* \"#utility.yul\":3344:3397   */\n      tag_300\n        /* \"#utility.yul\":3389:3396   */\n      dup6\n        /* \"#utility.yul\":3380:3386   */\n      dup3\n        /* \"#utility.yul\":3369:3378   */\n      dup7\n        /* \"#utility.yul\":3365:3387   */\n      add\n        /* \"#utility.yul\":3344:3397   */\n      tag_204\n      jump\t// in\n    tag_300:\n        /* \"#utility.yul\":3334:3397   */\n      swap3\n      pop\n        /* \"#utility.yul\":3290:3407   */\n      pop\n        /* \"#utility.yul\":3446:3448   */\n      0x20\n        /* \"#utility.yul\":3472:3525   */\n      tag_301\n        /* \"#utility.yul\":3517:3524   */\n      dup6\n        /* \"#utility.yul\":3508:3514   */\n      dup3\n        /* \"#utility.yul\":3497:3506   */\n      dup7\n        /* \"#utility.yul\":3493:3515   */\n      add\n        /* \"#utility.yul\":3472:3525   */\n      tag_209\n      jump\t// in\n    tag_301:\n        /* \"#utility.yul\":3462:3525   */\n      swap2\n      pop\n        /* \"#utility.yul\":3417:3535   */\n      pop\n        /* \"#utility.yul\":3068:3542   */\n      swap3\n      pop\n      swap3\n      swap1\n      pop\n      jump\t// out\n        /* \"#utility.yul\":3548:3608   */\n    tag_210:\n        /* \"#utility.yul\":3576:3579   */\n      0x00\n        /* \"#utility.yul\":3597:3602   */\n      dup2\n        /* \"#utility.yul\":3590:3602   */\n      swap1\n      pop\n        /* \"#utility.yul\":3548:3608   */\n      swap2\n      swap1\n      pop\n      jump\t// out\n        /* \"#utility.yul\":3614:3756   */\n    tag_211:\n        /* \"#utility.yul\":3664:3673   */\n      0x00\n        /* \"#utility.yul\":3697:3750   */\n      tag_304\n        /* \"#utility.yul\":3715:3749   */\n      tag_305\n        /* \"#utility.yul\":3724:3748   */\n      tag_306\n        /* \"#utility.yul\":3742:3747   */\n      dup5\n        /* \"#utility.yul\":3724:3748   */\n      tag_206\n      jump\t// in\n    tag_306:\n        /* \"#utility.yul\":3715:3749   */\n      tag_210\n      jump\t// in\n    tag_305:\n        /* \"#utility.yul\":3697:3750   */\n      tag_206\n      jump\t// in\n    tag_304:\n        /* \"#utility.yul\":3684:3750   */\n      swap1\n      pop\n        /* \"#utility.yul\":3614:3756   */\n      swap2\n      swap1\n      pop\n      jump\t// out\n        /* \"#utility.yul\":3762:3888   */\n    tag_212:\n        /* \"#utility.yul\":3812:3821   */\n      0x00\n        /* \"#utility.yul\":3845:3882   */\n      tag_308\n        /* \"#utility.yul\":3876:3881   */\n      dup3\n        /* \"#utility.yul\":3845:3882   */\n      tag_211\n      jump\t// in\n    tag_308:\n        /* \"#utility.yul\":3832:3882   */\n      swap1\n      pop\n        /* \"#utility.yul\":3762:3888   */\n      swap2\n      swap1\n      pop\n      jump\t// out\n        /* \"#utility.yul\":3894:4038   */\n    tag_213:\n        /* \"#utility.yul\":3962:3971   */\n      0x00\n        /* \"#utility.yul\":3995:4032   */\n      tag_310\n        /* \"#utility.yul\":4026:4031   */\n      dup3\n        /* \"#utility.yul\":3995:4032   */\n      tag_212\n      jump\t// in\n    tag_310:\n        /* \"#utility.yul\":3982:4032   */\n      swap1\n      pop\n        /* \"#utility.yul\":3894:4038   */\n      swap2\n      swap1\n      pop\n      jump\t// out\n        /* \"#utility.yul\":4044:4211   */\n    tag_214:\n        /* \"#utility.yul\":4149:4204   */\n      tag_312\n        /* \"#utility.yul\":4198:4203   */\n      dup2\n        /* \"#utility.yul\":4149:4204   */\n      tag_213\n      jump\t// in\n    tag_312:\n        /* \"#utility.yul\":4144:4147   */\n      dup3\n        /* \"#utility.yul\":4137:4205   */\n      mstore\n        /* \"#utility.yul\":4044:4211   */\n      pop\n      pop\n      jump\t// out\n        /* \"#utility.yul\":4217:4475   */\n    tag_54:\n        /* \"#utility.yul\":4328:4332   */\n      0x00\n        /* \"#utility.yul\":4366:4368   */\n      0x20\n        /* \"#utility.yul\":4355:4364   */\n      dup3\n        /* \"#utility.yul\":4351:4369   */\n      add\n        /* \"#utility.yul\":4343:4369   */\n      swap1\n      pop\n        /* \"#utility.yul\":4379:4468   */\n      tag_314\n        /* \"#utility.yul\":4465:4466   */\n      0x00\n        /* \"#utility.yul\":4454:4463   */\n      dup4\n        /* \"#utility.yul\":4450:4467   */\n      add\n        /* \"#utility.yul\":4441:4447   */\n      dup5\n        /* \"#utility.yul\":4379:4468   */\n      tag_214\n      jump\t// in\n    tag_314:\n        /* \"#utility.yul\":4217:4475   */\n      swap3\n      swap2\n      pop\n      pop\n      jump\t// out\n        /* \"#utility.yul\":4481:4598   */\n    tag_215:\n        /* \"#utility.yul\":4590:4591   */\n      0x00\n        /* \"#utility.yul\":4587:4588   */\n      dup1\n        /* \"#utility.yul\":4580:4592   */\n      revert\n        /* \"#utility.yul\":4604:4721   */\n    tag_216:\n        /* \"#utility.yul\":4713:4714   */\n      0x00\n        /* \"#utility.yul\":4710:4711   */\n      dup1\n        /* \"#utility.yul\":4703:4715   */\n      revert\n        /* \"#utility.yul\":4727:4829   */\n    tag_217:\n        /* \"#utility.yul\":4768:4774   */\n      0x00\n        /* \"#utility.yul\":4819:4821   */\n      0x1f\n        /* \"#utility.yul\":4815:4822   */\n      not\n        /* \"#utility.yul\":4810:4812   */\n      0x1f\n        /* \"#utility.yul\":4803:4808   */\n      dup4\n        /* \"#utility.yul\":4799:4813   */\n      add\n        /* \"#utility.yul\":4795:4823   */\n      and\n        /* \"#utility.yul\":4785:4823   */\n      swap1\n      pop\n        /* \"#utility.yul\":4727:4829   */\n      swap2\n      swap1\n      pop\n      jump\t// out\n        /* \"#utility.yul\":4835:5015   */\n    tag_218:\n        /* \"#utility.yul\":4883:4960   */\n      0x4e487b7100000000000000000000000000000000000000000000000000000000\n        /* \"#utility.yul\":4880:4881   */\n      0x00\n        /* \"#utility.yul\":4873:4961   */\n      mstore\n        /* \"#utility.yul\":4980:4984   */\n      0x41\n        /* \"#utility.yul\":4977:4978   */\n      0x04\n        /* \"#utility.yul\":4970:4985   */\n      mstore\n        /* \"#utility.yul\":5004:5008   */\n      0x24\n        /* \"#utility.yul\":5001:5002   */\n      0x00\n        /* \"#utility.yul\":4994:5009   */\n      revert\n        /* \"#utility.yul\":5021:5302   */\n    tag_219:\n        /* \"#utility.yul\":5104:5131   */\n      tag_320\n        /* \"#utility.yul\":5126:5130   */\n      dup3\n        /* \"#utility.yul\":5104:5131   */\n      tag_217\n      jump\t// in\n    tag_320:\n        /* \"#utility.yul\":5096:5102   */\n      dup2\n        /* \"#utility.yul\":5092:5132   */\n      add\n        /* \"#utility.yul\":5234:5240   */\n      dup2\n        /* \"#utility.yul\":5222:5232   */\n      dup2\n        /* \"#utility.yul\":5219:5241   */\n      lt\n        /* \"#utility.yul\":5198:5216   */\n      0xffffffffffffffff\n        /* \"#utility.yul\":5186:5196   */\n      dup3\n        /* \"#utility.yul\":5183:5217   */\n      gt\n        /* \"#utility.yul\":5180:5242   */\n      or\n        /* \"#utility.yul\":5177:5265   */\n      iszero\n      tag_321\n      jumpi\n        /* \"#utility.yul\":5245:5263   */\n      tag_322\n      tag_218\n      jump\t// in\n    tag_322:\n        /* \"#utility.yul\":5177:5265   */\n    tag_321:\n        /* \"#utility.yul\":5285:5295   */\n      dup1\n        /* \"#utility.yul\":5281:5283   */\n      0x40\n        /* \"#utility.yul\":5274:5296   */\n      mstore\n        /* \"#utility.yul\":5064:5302   */\n      pop\n        /* \"#utility.yul\":5021:5302   */\n      pop\n      pop\n      jump\t// out\n        /* \"#utility.yul\":5308:5437   */\n    tag_220:\n        /* \"#utility.yul\":5342:5348   */\n      0x00\n        /* \"#utility.yul\":5369:5389   */\n      tag_324\n      tag_194\n      jump\t// in\n    tag_324:\n        /* \"#utility.yul\":5359:5389   */\n      swap1\n      pop\n        /* \"#utility.yul\":5398:5431   */\n      tag_325\n        /* \"#utility.yul\":5426:5430   */\n      dup3\n        /* \"#utility.yul\":5418:5424   */\n      dup3\n        /* \"#utility.yul\":5398:5431   */\n      tag_219\n      jump\t// in\n    tag_325:\n        /* \"#utility.yul\":5308:5437   */\n      swap2\n      swap1\n      pop\n      jump\t// out\n        /* \"#utility.yul\":5443:5750   */\n    tag_221:\n        /* \"#utility.yul\":5504:5508   */\n      0x00\n        /* \"#utility.yul\":5594:5612   */\n      0xffffffffffffffff\n        /* \"#utility.yul\":5586:5592   */\n      dup3\n        /* \"#utility.yul\":5583:5613   */\n      gt\n        /* \"#utility.yul\":5580:5636   */\n      iszero\n      tag_327\n      jumpi\n        /* \"#utility.yul\":5616:5634   */\n      tag_328\n      tag_218\n      jump\t// in\n    tag_328:\n        /* \"#utility.yul\":5580:5636   */\n    tag_327:\n        /* \"#utility.yul\":5654:5683   */\n      tag_329\n        /* \"#utility.yul\":5676:5682   */\n      dup3\n        /* \"#utility.yul\":5654:5683   */\n      tag_217\n      jump\t// in\n    tag_329:\n        /* \"#utility.yul\":5646:5683   */\n      swap1\n      pop\n        /* \"#utility.yul\":5738:5742   */\n      0x20\n        /* \"#utility.yul\":5732:5736   */\n      dup2\n        /* \"#utility.yul\":5728:5743   */\n      add\n        /* \"#utility.yul\":5720:5743   */\n      swap1\n      pop\n        /* \"#utility.yul\":5443:5750   */\n      swap2\n      swap1\n      pop\n      jump\t// out\n        /* \"#utility.yul\":5756:5904   */\n    tag_222:\n        /* \"#utility.yul\":5854:5860   */\n      dup3\n        /* \"#utility.yul\":5849:5852   */\n      dup2\n        /* \"#utility.yul\":5844:5847   */\n      dup4\n        /* \"#utility.yul\":5831:5861   */\n      calldatacopy\n        /* \"#utility.yul\":5895:5896   */\n      0x00\n        /* \"#utility.yul\":5886:5892   */\n      dup4\n        /* \"#utility.yul\":5881:5884   */\n      dup4\n        /* \"#utility.yul\":5877:5893   */\n      add\n        /* \"#utility.yul\":5870:5897   */\n      mstore\n        /* \"#utility.yul\":5756:5904   */\n      pop\n      pop\n      pop\n      jump\t// out\n        /* \"#utility.yul\":5910:6333   */\n    tag_223:\n        /* \"#utility.yul\":5987:5992   */\n      0x00\n        /* \"#utility.yul\":6012:6077   */\n      tag_332\n        /* \"#utility.yul\":6028:6076   */\n      tag_333\n        /* \"#utility.yul\":6069:6075   */\n      dup5\n        /* \"#utility.yul\":6028:6076   */\n      tag_221\n      jump\t// in\n    tag_333:\n        /* \"#utility.yul\":6012:6077   */\n      tag_220\n      jump\t// in\n    tag_332:\n        /* \"#utility.yul\":6003:6077   */\n      swap1\n      pop\n        /* \"#utility.yul\":6100:6106   */\n      dup3\n        /* \"#utility.yul\":6093:6098   */\n      dup2\n        /* \"#utility.yul\":6086:6107   */\n      mstore\n        /* \"#utility.yul\":6138:6142   */\n      0x20\n        /* \"#utility.yul\":6131:6136   */\n      dup2\n        /* \"#utility.yul\":6127:6143   */\n      add\n        /* \"#utility.yul\":6176:6179   */\n      dup5\n        /* \"#utility.yul\":6167:6173   */\n      dup5\n        /* \"#utility.yul\":6162:6165   */\n      dup5\n        /* \"#utility.yul\":6158:6174   */\n      add\n        /* \"#utility.yul\":6155:6180   */\n      gt\n        /* \"#utility.yul\":6152:6264   */\n      iszero\n      tag_334\n      jumpi\n        /* \"#utility.yul\":6183:6262   */\n      tag_335\n      tag_216\n      jump\t// in\n    tag_335:\n        /* \"#utility.yul\":6152:6264   */\n    tag_334:\n        /* \"#utility.yul\":6273:6327   */\n      tag_336\n        /* \"#utility.yul\":6320:6326   */\n      dup5\n        /* \"#utility.yul\":6315:6318   */\n      dup3\n        /* \"#utility.yul\":6310:6313   */\n      dup6\n        /* \"#utility.yul\":6273:6327   */\n      tag_222\n      jump\t// in\n    tag_336:\n        /* \"#utility.yul\":5993:6333   */\n      pop\n        /* \"#utility.yul\":5910:6333   */\n      swap4\n      swap3\n      pop\n      pop\n      pop\n      jump\t// out\n        /* \"#utility.yul\":6352:6690   */\n    tag_224:\n        /* \"#utility.yul\":6407:6412   */\n      0x00\n        /* \"#utility.yul\":6456:6459   */\n      dup3\n        /* \"#utility.yul\":6449:6453   */\n      0x1f\n        /* \"#utility.yul\":6441:6447   */\n      dup4\n        /* \"#utility.yul\":6437:6454   */\n      add\n        /* \"#utility.yul\":6433:6460   */\n      slt\n        /* \"#utility.yul\":6423:6545   */\n      tag_338\n      jumpi\n        /* \"#utility.yul\":6464:6543   */\n      tag_339\n      tag_215\n      jump\t// in\n    tag_339:\n        /* \"#utility.yul\":6423:6545   */\n    tag_338:\n        /* \"#utility.yul\":6581:6587   */\n      dup2\n        /* \"#utility.yul\":6568:6588   */\n      calldataload\n        /* \"#utility.yul\":6606:6684   */\n      tag_340\n        /* \"#utility.yul\":6680:6683   */\n      dup5\n        /* \"#utility.yul\":6672:6678   */\n      dup3\n        /* \"#utility.yul\":6665:6669   */\n      0x20\n        /* \"#utility.yul\":6657:6663   */\n      dup7\n        /* \"#utility.yul\":6653:6670   */\n      add\n        /* \"#utility.yul\":6606:6684   */\n      tag_223\n      jump\t// in\n    tag_340:\n        /* \"#utility.yul\":6597:6684   */\n      swap2\n      pop\n        /* \"#utility.yul\":6413:6690   */\n      pop\n        /* \"#utility.yul\":6352:6690   */\n      swap3\n      swap2\n      pop\n      pop\n      jump\t// out\n        /* \"#utility.yul\":6696:6789   */\n    tag_225:\n        /* \"#utility.yul\":6732:6739   */\n      0x00\n        /* \"#utility.yul\":6772:6782   */\n      0xffffffff\n        /* \"#utility.yul\":6765:6770   */\n      dup3\n        /* \"#utility.yul\":6761:6783   */\n      and\n        /* \"#utility.yul\":6750:6783   */\n      swap1\n      pop\n        /* \"#utility.yul\":6696:6789   */\n      swap2\n      swap1\n      pop\n      jump\t// out\n        /* \"#utility.yul\":6795:6915   */\n    tag_226:\n        /* \"#utility.yul\":6867:6890   */\n      tag_343\n        /* \"#utility.yul\":6884:6889   */\n      dup2\n        /* \"#utility.yul\":6867:6890   */\n      tag_225\n      jump\t// in\n    tag_343:\n        /* \"#utility.yul\":6860:6865   */\n      dup2\n        /* \"#utility.yul\":6857:6891   */\n      eq\n        /* \"#utility.yul\":6847:6909   */\n      tag_344\n      jumpi\n        /* \"#utility.yul\":6905:6906   */\n      0x00\n        /* \"#utility.yul\":6902:6903   */\n      dup1\n        /* \"#utility.yul\":6895:6907   */\n      revert\n        /* \"#utility.yul\":6847:6909   */\n    tag_344:\n        /* \"#utility.yul\":6795:6915   */\n      pop\n      jump\t// out\n        /* \"#utility.yul\":6921:7058   */\n    tag_227:\n        /* \"#utility.yul\":6966:6971   */\n      0x00\n        /* \"#utility.yul\":7004:7010   */\n      dup2\n        /* \"#utility.yul\":6991:7011   */\n      calldataload\n        /* \"#utility.yul\":6982:7011   */\n      swap1\n      pop\n        /* \"#utility.yul\":7020:7052   */\n      tag_346\n        /* \"#utility.yul\":7046:7051   */\n      dup2\n        /* \"#utility.yul\":7020:7052   */\n      tag_226\n      jump\t// in\n    tag_346:\n        /* \"#utility.yul\":6921:7058   */\n      swap3\n      swap2\n      pop\n      pop\n      jump\t// out\n        /* \"#utility.yul\":7064:7714   */\n    tag_64:\n        /* \"#utility.yul\":7140:7146   */\n      0x00\n        /* \"#utility.yul\":7148:7154   */\n      dup1\n        /* \"#utility.yul\":7197:7199   */\n      0x40\n        /* \"#utility.yul\":7185:7194   */\n      dup4\n        /* \"#utility.yul\":7176:7183   */\n      dup6\n        /* \"#utility.yul\":7172:7195   */\n      sub\n        /* \"#utility.yul\":7168:7200   */\n      slt\n        /* \"#utility.yul\":7165:7284   */\n      iszero\n      tag_348\n      jumpi\n        /* \"#utility.yul\":7203:7282   */\n      tag_349\n      tag_195\n      jump\t// in\n    tag_349:\n        /* \"#utility.yul\":7165:7284   */\n    tag_348:\n        /* \"#utility.yul\":7351:7352   */\n      0x00\n        /* \"#utility.yul\":7340:7349   */\n      dup4\n        /* \"#utility.yul\":7336:7353   */\n      add\n        /* \"#utility.yul\":7323:7354   */\n      calldataload\n        /* \"#utility.yul\":7381:7399   */\n      0xffffffffffffffff\n        /* \"#utility.yul\":7373:7379   */\n      dup2\n        /* \"#utility.yul\":7370:7400   */\n      gt\n        /* \"#utility.yul\":7367:7484   */\n      iszero\n      tag_350\n      jumpi\n        /* \"#utility.yul\":7403:7482   */\n      tag_351\n      tag_196\n      jump\t// in\n    tag_351:\n        /* \"#utility.yul\":7367:7484   */\n    tag_350:\n        /* \"#utility.yul\":7508:7570   */\n      tag_352\n        /* \"#utility.yul\":7562:7569   */\n      dup6\n        /* \"#utility.yul\":7553:7559   */\n      dup3\n        /* \"#utility.yul\":7542:7551   */\n      dup7\n        /* \"#utility.yul\":7538:7560   */\n      add\n        /* \"#utility.yul\":7508:7570   */\n      tag_224\n      jump\t// in\n    tag_352:\n        /* \"#utility.yul\":7498:7570   */\n      swap3\n      pop\n        /* \"#utility.yul\":7294:7580   */\n      pop\n        /* \"#utility.yul\":7619:7621   */\n      0x20\n        /* \"#utility.yul\":7645:7697   */\n      tag_353\n        /* \"#utility.yul\":7689:7696   */\n      dup6\n        /* \"#utility.yul\":7680:7686   */\n      dup3\n        /* \"#utility.yul\":7669:7678   */\n      dup7\n        /* \"#utility.yul\":7665:7687   */\n      add\n        /* \"#utility.yul\":7645:7697   */\n      tag_227\n      jump\t// in\n    tag_353:\n        /* \"#utility.yul\":7635:7697   */\n      swap2\n      pop\n        /* \"#utility.yul\":7590:7707   */\n      pop\n        /* \"#utility.yul\":7064:7714   */\n      swap3\n      pop\n      swap3\n      swap1\n      pop\n      jump\t// out\n        /* \"#utility.yul\":7720:7821   */\n    tag_228:\n        /* \"#utility.yul\":7756:7763   */\n      0x00\n        /* \"#utility.yul\":7796:7814   */\n      0xffffffffffffffff\n        /* \"#utility.yul\":7789:7794   */\n      dup3\n        /* \"#utility.yul\":7785:7815   */\n      and\n        /* \"#utility.yul\":7774:7815   */\n      swap1\n      pop\n        /* \"#utility.yul\":7720:7821   */\n      swap2\n      swap1\n      pop\n      jump\t// out\n        /* \"#utility.yul\":7827:7942   */\n    tag_229:\n        /* \"#utility.yul\":7912:7935   */\n      tag_356\n        /* \"#utility.yul\":7929:7934   */\n      dup2\n        /* \"#utility.yul\":7912:7935   */\n      tag_228\n      jump\t// in\n    tag_356:\n        /* \"#utility.yul\":7907:7910   */\n      dup3\n        /* \"#utility.yul\":7900:7936   */\n      mstore\n        /* \"#utility.yul\":7827:7942   */\n      pop\n      pop\n      jump\t// out\n        /* \"#utility.yul\":7948:8166   */\n    tag_67:\n        /* \"#utility.yul\":8039:8043   */\n      0x00\n        /* \"#utility.yul\":8077:8079   */\n      0x20\n        /* \"#utility.yul\":8066:8075   */\n      dup3\n        /* \"#utility.yul\":8062:8080   */\n      add\n        /* \"#utility.yul\":8054:8080   */\n      swap1\n      pop\n        /* \"#utility.yul\":8090:8159   */\n      tag_358\n        /* \"#utility.yul\":8156:8157   */\n      0x00\n        /* \"#utility.yul\":8145:8154   */\n      dup4\n        /* \"#utility.yul\":8141:8158   */\n      add\n        /* \"#utility.yul\":8132:8138   */\n      dup5\n        /* \"#utility.yul\":8090:8159   */\n      tag_229\n      jump\t// in\n    tag_358:\n        /* \"#utility.yul\":7948:8166   */\n      swap3\n      swap2\n      pop\n      pop\n      jump\t// out\n        /* \"#utility.yul\":8172:8249   */\n    tag_230:\n        /* \"#utility.yul\":8209:8216   */\n      0x00\n        /* \"#utility.yul\":8238:8243   */\n      dup2\n        /* \"#utility.yul\":8227:8243   */\n      swap1\n      pop\n        /* \"#utility.yul\":8172:8249   */\n      swap2\n      swap1\n      pop\n      jump\t// out\n        /* \"#utility.yul\":8255:8377   */\n    tag_231:\n        /* \"#utility.yul\":8328:8352   */\n      tag_361\n        /* \"#utility.yul\":8346:8351   */\n      dup2\n        /* \"#utility.yul\":8328:8352   */\n      tag_230\n      jump\t// in\n    tag_361:\n        /* \"#utility.yul\":8321:8326   */\n      dup2\n        /* \"#utility.yul\":8318:8353   */\n      eq\n        /* \"#utility.yul\":8308:8371   */\n      tag_362\n      jumpi\n        /* \"#utility.yul\":8367:8368   */\n      0x00\n        /* \"#utility.yul\":8364:8365   */\n      dup1\n        /* \"#utility.yul\":8357:8369   */\n      revert\n        /* \"#utility.yul\":8308:8371   */\n    tag_362:\n        /* \"#utility.yul\":8255:8377   */\n      pop\n      jump\t// out\n        /* \"#utility.yul\":8383:8522   */\n    tag_232:\n        /* \"#utility.yul\":8429:8434   */\n      0x00\n        /* \"#utility.yul\":8467:8473   */\n      dup2\n        /* \"#utility.yul\":8454:8474   */\n      calldataload\n        /* \"#utility.yul\":8445:8474   */\n      swap1\n      pop\n        /* \"#utility.yul\":8483:8516   */\n      tag_364\n        /* \"#utility.yul\":8510:8515   */\n      dup2\n        /* \"#utility.yul\":8483:8516   */\n      tag_231\n      jump\t// in\n    tag_364:\n        /* \"#utility.yul\":8383:8522   */\n      swap3\n      swap2\n      pop\n      pop\n      jump\t// out\n        /* \"#utility.yul\":8528:8617   */\n    tag_233:\n        /* \"#utility.yul\":8564:8571   */\n      0x00\n        /* \"#utility.yul\":8604:8610   */\n      0xffff\n        /* \"#utility.yul\":8597:8602   */\n      dup3\n        /* \"#utility.yul\":8593:8611   */\n      and\n        /* \"#utility.yul\":8582:8611   */\n      swap1\n      pop\n        /* \"#utility.yul\":8528:8617   */\n      swap2\n      swap1\n      pop\n      jump\t// out\n        /* \"#utility.yul\":8623:8743   */\n    tag_234:\n        /* \"#utility.yul\":8695:8718   */\n      tag_367\n        /* \"#utility.yul\":8712:8717   */\n      dup2\n        /* \"#utility.yul\":8695:8718   */\n      tag_233\n      jump\t// in\n    tag_367:\n        /* \"#utility.yul\":8688:8693   */\n      dup2\n        /* \"#utility.yul\":8685:8719   */\n      eq\n        /* \"#utility.yul\":8675:8737   */\n      tag_368\n      jumpi\n        /* \"#utility.yul\":8733:8734   */\n      0x00\n        /* \"#utility.yul\":8730:8731   */\n      dup1\n        /* \"#utility.yul\":8723:8735   */\n      revert\n        /* \"#utility.yul\":8675:8737   */\n    tag_368:\n        /* \"#utility.yul\":8623:8743   */\n      pop\n      jump\t// out\n        /* \"#utility.yul\":8749:8886   */\n    tag_235:\n        /* \"#utility.yul\":8794:8799   */\n      0x00\n        /* \"#utility.yul\":8832:8838   */\n      dup2\n        /* \"#utility.yul\":8819:8839   */\n      calldataload\n        /* \"#utility.yul\":8810:8839   */\n      swap1\n      pop\n        /* \"#utility.yul\":8848:8880   */\n      tag_370\n        /* \"#utility.yul\":8874:8879   */\n      dup2\n        /* \"#utility.yul\":8848:8880   */\n      tag_234\n      jump\t// in\n    tag_370:\n        /* \"#utility.yul\":8749:8886   */\n      swap3\n      swap2\n      pop\n      pop\n      jump\t// out\n        /* \"#utility.yul\":8892:9655   */\n    tag_73:\n        /* \"#utility.yul\":8977:8983   */\n      0x00\n        /* \"#utility.yul\":8985:8991   */\n      dup1\n        /* \"#utility.yul\":8993:8999   */\n      0x00\n        /* \"#utility.yul\":9001:9007   */\n      dup1\n        /* \"#utility.yul\":9050:9053   */\n      0x80\n        /* \"#utility.yul\":9038:9047   */\n      dup6\n        /* \"#utility.yul\":9029:9036   */\n      dup8\n        /* \"#utility.yul\":9025:9048   */\n      sub\n        /* \"#utility.yul\":9021:9054   */\n      slt\n        /* \"#utility.yul\":9018:9138   */\n      iszero\n      tag_372\n      jumpi\n        /* \"#utility.yul\":9057:9136   */\n      tag_373\n      tag_195\n      jump\t// in\n    tag_373:\n        /* \"#utility.yul\":9018:9138   */\n    tag_372:\n        /* \"#utility.yul\":9177:9178   */\n      0x00\n        /* \"#utility.yul\":9202:9255   */\n      tag_374\n        /* \"#utility.yul\":9247:9254   */\n      dup8\n        /* \"#utility.yul\":9238:9244   */\n      dup3\n        /* \"#utility.yul\":9227:9236   */\n      dup9\n        /* \"#utility.yul\":9223:9245   */\n      add\n        /* \"#utility.yul\":9202:9255   */\n      tag_209\n      jump\t// in\n    tag_374:\n        /* \"#utility.yul\":9192:9255   */\n      swap5\n      pop\n        /* \"#utility.yul\":9148:9265   */\n      pop\n        /* \"#utility.yul\":9304:9306   */\n      0x20\n        /* \"#utility.yul\":9330:9383   */\n      tag_375\n        /* \"#utility.yul\":9375:9382   */\n      dup8\n        /* \"#utility.yul\":9366:9372   */\n      dup3\n        /* \"#utility.yul\":9355:9364   */\n      dup9\n        /* \"#utility.yul\":9351:9373   */\n      add\n        /* \"#utility.yul\":9330:9383   */\n      tag_232\n      jump\t// in\n    tag_375:\n        /* \"#utility.yul\":9320:9383   */\n      swap4\n      pop\n        /* \"#utility.yul\":9275:9393   */\n      pop\n        /* \"#utility.yul\":9432:9434   */\n      0x40\n        /* \"#utility.yul\":9458:9510   */\n      tag_376\n        /* \"#utility.yul\":9502:9509   */\n      dup8\n        /* \"#utility.yul\":9493:9499   */\n      dup3\n        /* \"#utility.yul\":9482:9491   */\n      dup9\n        /* \"#utility.yul\":9478:9500   */\n      add\n        /* \"#utility.yul\":9458:9510   */\n      tag_235\n      jump\t// in\n    tag_376:\n        /* \"#utility.yul\":9448:9510   */\n      swap3\n      pop\n        /* \"#utility.yul\":9403:9520   */\n      pop\n        /* \"#utility.yul\":9559:9561   */\n      0x60\n        /* \"#utility.yul\":9585:9638   */\n      tag_377\n        /* \"#utility.yul\":9630:9637   */\n      dup8\n        /* \"#utility.yul\":9621:9627   */\n      dup3\n        /* \"#utility.yul\":9610:9619   */\n      dup9\n        /* \"#utility.yul\":9606:9628   */\n      add\n        /* \"#utility.yul\":9585:9638   */\n      tag_209\n      jump\t// in\n    tag_377:\n        /* \"#utility.yul\":9575:9638   */\n      swap2\n      pop\n        /* \"#utility.yul\":9530:9648   */\n      pop\n        /* \"#utility.yul\":8892:9655   */\n      swap3\n      swap6\n      swap2\n      swap5\n      pop\n      swap3\n      pop\n      jump\t// out\n        /* \"#utility.yul\":9661:10280   */\n    tag_80:\n        /* \"#utility.yul\":9738:9744   */\n      0x00\n        /* \"#utility.yul\":9746:9752   */\n      dup1\n        /* \"#utility.yul\":9754:9760   */\n      0x00\n        /* \"#utility.yul\":9803:9805   */\n      0x60\n        /* \"#utility.yul\":9791:9800   */\n      dup5\n        /* \"#utility.yul\":9782:9789   */\n      dup7\n        /* \"#utility.yul\":9778:9801   */\n      sub\n        /* \"#utility.yul\":9774:9806   */\n      slt\n        /* \"#utility.yul\":9771:9890   */\n      iszero\n      tag_379\n      jumpi\n        /* \"#utility.yul\":9809:9888   */\n      tag_380\n      tag_195\n      jump\t// in\n    tag_380:\n        /* \"#utility.yul\":9771:9890   */\n    tag_379:\n        /* \"#utility.yul\":9929:9930   */\n      0x00\n        /* \"#utility.yul\":9954:10007   */\n      tag_381\n        /* \"#utility.yul\":9999:10006   */\n      dup7\n        /* \"#utility.yul\":9990:9996   */\n      dup3\n        /* \"#utility.yul\":9979:9988   */\n      dup8\n        /* \"#utility.yul\":9975:9997   */\n      add\n        /* \"#utility.yul\":9954:10007   */\n      tag_209\n      jump\t// in\n    tag_381:\n        /* \"#utility.yul\":9944:10007   */\n      swap4\n      pop\n        /* \"#utility.yul\":9900:10017   */\n      pop\n        /* \"#utility.yul\":10056:10058   */\n      0x20\n        /* \"#utility.yul\":10082:10135   */\n      tag_382\n        /* \"#utility.yul\":10127:10134   */\n      dup7\n        /* \"#utility.yul\":10118:10124   */\n      dup3\n        /* \"#utility.yul\":10107:10116   */\n      dup8\n        /* \"#utility.yul\":10103:10125   */\n      add\n        /* \"#utility.yul\":10082:10135   */\n      tag_232\n      jump\t// in\n    tag_382:\n        /* \"#utility.yul\":10072:10135   */\n      swap3\n      pop\n        /* \"#utility.yul\":10027:10145   */\n      pop\n        /* \"#utility.yul\":10184:10186   */\n      0x40\n        /* \"#utility.yul\":10210:10263   */\n      tag_383\n        /* \"#utility.yul\":10255:10262   */\n      dup7\n        /* \"#utility.yul\":10246:10252   */\n      dup3\n        /* \"#utility.yul\":10235:10244   */\n      dup8\n        /* \"#utility.yul\":10231:10253   */\n      add\n        /* \"#utility.yul\":10210:10263   */\n      tag_209\n      jump\t// in\n    tag_383:\n        /* \"#utility.yul\":10200:10263   */\n      swap2\n      pop\n        /* \"#utility.yul\":10155:10273   */\n      pop\n        /* \"#utility.yul\":9661:10280   */\n      swap3\n      pop\n      swap3\n      pop\n      swap3\n      jump\t// out\n        /* \"#utility.yul\":10286:10384   */\n    tag_236:\n        /* \"#utility.yul\":10337:10343   */\n      0x00\n        /* \"#utility.yul\":10371:10376   */\n      dup2\n        /* \"#utility.yul\":10365:10377   */\n      mload\n        /* \"#utility.yul\":10355:10377   */\n      swap1\n      pop\n        /* \"#utility.yul\":10286:10384   */\n      swap2\n      swap1\n      pop\n      jump\t// out\n        /* \"#utility.yul\":10390:10558   */\n    tag_237:\n        /* \"#utility.yul\":10473:10484   */\n      0x00\n        /* \"#utility.yul\":10507:10513   */\n      dup3\n        /* \"#utility.yul\":10502:10505   */\n      dup3\n        /* \"#utility.yul\":10495:10514   */\n      mstore\n        /* \"#utility.yul\":10547:10551   */\n      0x20\n        /* \"#utility.yul\":10542:10545   */\n      dup3\n        /* \"#utility.yul\":10538:10552   */\n      add\n        /* \"#utility.yul\":10523:10552   */\n      swap1\n      pop\n        /* \"#utility.yul\":10390:10558   */\n      swap3\n      swap2\n      pop\n      pop\n      jump\t// out\n        /* \"#utility.yul\":10564:10703   */\n    tag_238:\n        /* \"#utility.yul\":10653:10659   */\n      dup3\n        /* \"#utility.yul\":10648:10651   */\n      dup2\n        /* \"#utility.yul\":10643:10646   */\n      dup4\n        /* \"#utility.yul\":10637:10660   */\n      mcopy\n        /* \"#utility.yul\":10694:10695   */\n      0x00\n        /* \"#utility.yul\":10685:10691   */\n      dup4\n        /* \"#utility.yul\":10680:10683   */\n      dup4\n        /* \"#utility.yul\":10676:10692   */\n      add\n        /* \"#utility.yul\":10669:10696   */\n      mstore\n        /* \"#utility.yul\":10564:10703   */\n      pop\n      pop\n      pop\n      jump\t// out\n        /* \"#utility.yul\":10709:11082   */\n    tag_239:\n        /* \"#utility.yul\":10795:10798   */\n      0x00\n        /* \"#utility.yul\":10823:10861   */\n      tag_388\n        /* \"#utility.yul\":10855:10860   */\n      dup3\n        /* \"#utility.yul\":10823:10861   */\n      tag_236\n      jump\t// in\n    tag_388:\n        /* \"#utility.yul\":10877:10947   */\n      tag_389\n        /* \"#utility.yul\":10940:10946   */\n      dup2\n        /* \"#utility.yul\":10935:10938   */\n      dup6\n        /* \"#utility.yul\":10877:10947   */\n      tag_237\n      jump\t// in\n    tag_389:\n        /* \"#utility.yul\":10870:10947   */\n      swap4\n      pop\n        /* \"#utility.yul\":10956:11021   */\n      tag_390\n        /* \"#utility.yul\":11014:11020   */\n      dup2\n        /* \"#utility.yul\":11009:11012   */\n      dup6\n        /* \"#utility.yul\":11002:11006   */\n      0x20\n        /* \"#utility.yul\":10995:11000   */\n      dup7\n        /* \"#utility.yul\":10991:11007   */\n      add\n        /* \"#utility.yul\":10956:11021   */\n      tag_238\n      jump\t// in\n    tag_390:\n        /* \"#utility.yul\":11046:11075   */\n      tag_391\n        /* \"#utility.yul\":11068:11074   */\n      dup2\n        /* \"#utility.yul\":11046:11075   */\n      tag_217\n      jump\t// in\n    tag_391:\n        /* \"#utility.yul\":11041:11044   */\n      dup5\n        /* \"#utility.yul\":11037:11076   */\n      add\n        /* \"#utility.yul\":11030:11076   */\n      swap2\n      pop\n        /* \"#utility.yul\":10799:11082   */\n      pop\n        /* \"#utility.yul\":10709:11082   */\n      swap3\n      swap2\n      pop\n      pop\n      jump\t// out\n        /* \"#utility.yul\":11088:11203   */\n    tag_240:\n        /* \"#utility.yul\":11173:11196   */\n      tag_393\n        /* \"#utility.yul\":11190:11195   */\n      dup2\n        /* \"#utility.yul\":11173:11196   */\n      tag_225\n      jump\t// in\n    tag_393:\n        /* \"#utility.yul\":11168:11171   */\n      dup3\n        /* \"#utility.yul\":11161:11197   */\n      mstore\n        /* \"#utility.yul\":11088:11203   */\n      pop\n      pop\n      jump\t// out\n        /* \"#utility.yul\":11209:11624   */\n    tag_114:\n        /* \"#utility.yul\":11346:11350   */\n      0x00\n        /* \"#utility.yul\":11384:11386   */\n      0x40\n        /* \"#utility.yul\":11373:11382   */\n      dup3\n        /* \"#utility.yul\":11369:11387   */\n      add\n        /* \"#utility.yul\":11361:11387   */\n      swap1\n      pop\n        /* \"#utility.yul\":11433:11442   */\n      dup2\n        /* \"#utility.yul\":11427:11431   */\n      dup2\n        /* \"#utility.yul\":11423:11443   */\n      sub\n        /* \"#utility.yul\":11419:11420   */\n      0x00\n        /* \"#utility.yul\":11408:11417   */\n      dup4\n        /* \"#utility.yul\":11404:11421   */\n      add\n        /* \"#utility.yul\":11397:11444   */\n      mstore\n        /* \"#utility.yul\":11461:11537   */\n      tag_395\n        /* \"#utility.yul\":11532:11536   */\n      dup2\n        /* \"#utility.yul\":11523:11529   */\n      dup6\n        /* \"#utility.yul\":11461:11537   */\n      tag_239\n      jump\t// in\n    tag_395:\n        /* \"#utility.yul\":11453:11537   */\n      swap1\n      pop\n        /* \"#utility.yul\":11547:11617   */\n      tag_396\n        /* \"#utility.yul\":11613:11615   */\n      0x20\n        /* \"#utility.yul\":11602:11611   */\n      dup4\n        /* \"#utility.yul\":11598:11616   */\n      add\n        /* \"#utility.yul\":11589:11595   */\n      dup5\n        /* \"#utility.yul\":11547:11617   */\n      tag_240\n      jump\t// in\n    tag_396:\n        /* \"#utility.yul\":11209:11624   */\n      swap4\n      swap3\n      pop\n      pop\n      pop\n      jump\t// out\n        /* \"#utility.yul\":11630:11750   */\n    tag_241:\n        /* \"#utility.yul\":11702:11725   */\n      tag_398\n        /* \"#utility.yul\":11719:11724   */\n      dup2\n        /* \"#utility.yul\":11702:11725   */\n      tag_228\n      jump\t// in\n    tag_398:\n        /* \"#utility.yul\":11695:11700   */\n      dup2\n        /* \"#utility.yul\":11692:11726   */\n      eq\n        /* \"#utility.yul\":11682:11744   */\n      tag_399\n      jumpi\n        /* \"#utility.yul\":11740:11741   */\n      0x00\n        /* \"#utility.yul\":11737:11738   */\n      dup1\n        /* \"#utility.yul\":11730:11742   */\n      revert\n        /* \"#utility.yul\":11682:11744   */\n    tag_399:\n        /* \"#utility.yul\":11630:11750   */\n      pop\n      jump\t// out\n        /* \"#utility.yul\":11756:11897   */\n    tag_242:\n        /* \"#utility.yul\":11812:11817   */\n      0x00\n        /* \"#utility.yul\":11843:11849   */\n      dup2\n        /* \"#utility.yul\":11837:11850   */\n      mload\n        /* \"#utility.yul\":11828:11850   */\n      swap1\n      pop\n        /* \"#utility.yul\":11859:11891   */\n      tag_401\n        /* \"#utility.yul\":11885:11890   */\n      dup2\n        /* \"#utility.yul\":11859:11891   */\n      tag_241\n      jump\t// in\n    tag_401:\n        /* \"#utility.yul\":11756:11897   */\n      swap3\n      swap2\n      pop\n      pop\n      jump\t// out\n        /* \"#utility.yul\":11903:12252   */\n    tag_118:\n        /* \"#utility.yul\":11972:11978   */\n      0x00\n        /* \"#utility.yul\":12021:12023   */\n      0x20\n        /* \"#utility.yul\":12009:12018   */\n      dup3\n        /* \"#utility.yul\":12000:12007   */\n      dup5\n        /* \"#utility.yul\":11996:12019   */\n      sub\n        /* \"#utility.yul\":11992:12024   */\n      slt\n        /* \"#utility.yul\":11989:12108   */\n      iszero\n      tag_403\n      jumpi\n        /* \"#utility.yul\":12027:12106   */\n      tag_404\n      tag_195\n      jump\t// in\n    tag_404:\n        /* \"#utility.yul\":11989:12108   */\n    tag_403:\n        /* \"#utility.yul\":12147:12148   */\n      0x00\n        /* \"#utility.yul\":12172:12235   */\n      tag_405\n        /* \"#utility.yul\":12227:12234   */\n      dup5\n        /* \"#utility.yul\":12218:12224   */\n      dup3\n        /* \"#utility.yul\":12207:12216   */\n      dup6\n        /* \"#utility.yul\":12203:12225   */\n      add\n        /* \"#utility.yul\":12172:12235   */\n      tag_242\n      jump\t// in\n    tag_405:\n        /* \"#utility.yul\":12162:12235   */\n      swap2\n      pop\n        /* \"#utility.yul\":12118:12245   */\n      pop\n        /* \"#utility.yul\":11903:12252   */\n      swap3\n      swap2\n      pop\n      pop\n      jump\t// out\n        /* \"#utility.yul\":12258:12376   */\n    tag_243:\n        /* \"#utility.yul\":12345:12369   */\n      tag_407\n        /* \"#utility.yul\":12363:12368   */\n      dup2\n        /* \"#utility.yul\":12345:12369   */\n      tag_207\n      jump\t// in\n    tag_407:\n        /* \"#utility.yul\":12340:12343   */\n      dup3\n        /* \"#utility.yul\":12333:12370   */\n      mstore\n        /* \"#utility.yul\":12258:12376   */\n      pop\n      pop\n      jump\t// out\n        /* \"#utility.yul\":12382:12604   */\n    tag_129:\n        /* \"#utility.yul\":12475:12479   */\n      0x00\n        /* \"#utility.yul\":12513:12515   */\n      0x20\n        /* \"#utility.yul\":12502:12511   */\n      dup3\n        /* \"#utility.yul\":12498:12516   */\n      add\n        /* \"#utility.yul\":12490:12516   */\n      swap1\n      pop\n        /* \"#utility.yul\":12526:12597   */\n      tag_409\n        /* \"#utility.yul\":12594:12595   */\n      0x00\n        /* \"#utility.yul\":12583:12592   */\n      dup4\n        /* \"#utility.yul\":12579:12596   */\n      add\n        /* \"#utility.yul\":12570:12576   */\n      dup5\n        /* \"#utility.yul\":12526:12597   */\n      tag_243\n      jump\t// in\n    tag_409:\n        /* \"#utility.yul\":12382:12604   */\n      swap3\n      swap2\n      pop\n      pop\n      jump\t// out\n        /* \"#utility.yul\":12610:12753   */\n    tag_244:\n        /* \"#utility.yul\":12667:12672   */\n      0x00\n        /* \"#utility.yul\":12698:12704   */\n      dup2\n        /* \"#utility.yul\":12692:12705   */\n      mload\n        /* \"#utility.yul\":12683:12705   */\n      swap1\n      pop\n        /* \"#utility.yul\":12714:12747   */\n      tag_411\n        /* \"#utility.yul\":12741:12746   */\n      dup2\n        /* \"#utility.yul\":12714:12747   */\n      tag_231\n      jump\t// in\n    tag_411:\n        /* \"#utility.yul\":12610:12753   */\n      swap3\n      swap2\n      pop\n      pop\n      jump\t// out\n        /* \"#utility.yul\":12759:13110   */\n    tag_133:\n        /* \"#utility.yul\":12829:12835   */\n      0x00\n        /* \"#utility.yul\":12878:12880   */\n      0x20\n        /* \"#utility.yul\":12866:12875   */\n      dup3\n        /* \"#utility.yul\":12857:12864   */\n      dup5\n        /* \"#utility.yul\":12853:12876   */\n      sub\n        /* \"#utility.yul\":12849:12881   */\n      slt\n        /* \"#utility.yul\":12846:12965   */\n      iszero\n      tag_413\n      jumpi\n        /* \"#utility.yul\":12884:12963   */\n      tag_414\n      tag_195\n      jump\t// in\n    tag_414:\n        /* \"#utility.yul\":12846:12965   */\n    tag_413:\n        /* \"#utility.yul\":13004:13005   */\n      0x00\n        /* \"#utility.yul\":13029:13093   */\n      tag_415\n        /* \"#utility.yul\":13085:13092   */\n      dup5\n        /* \"#utility.yul\":13076:13082   */\n      dup3\n        /* \"#utility.yul\":13065:13074   */\n      dup6\n        /* \"#utility.yul\":13061:13083   */\n      add\n        /* \"#utility.yul\":13029:13093   */\n      tag_244\n      jump\t// in\n    tag_415:\n        /* \"#utility.yul\":13019:13093   */\n      swap2\n      pop\n        /* \"#utility.yul\":12975:13103   */\n      pop\n        /* \"#utility.yul\":12759:13110   */\n      swap3\n      swap2\n      pop\n      pop\n      jump\t// out\n        /* \"#utility.yul\":13116:13285   */\n    tag_245:\n        /* \"#utility.yul\":13200:13211   */\n      0x00\n        /* \"#utility.yul\":13234:13240   */\n      dup3\n        /* \"#utility.yul\":13229:13232   */\n      dup3\n        /* \"#utility.yul\":13222:13241   */\n      mstore\n        /* \"#utility.yul\":13274:13278   */\n      0x20\n        /* \"#utility.yul\":13269:13272   */\n      dup3\n        /* \"#utility.yul\":13265:13279   */\n      add\n        /* \"#utility.yul\":13250:13279   */\n      swap1\n      pop\n        /* \"#utility.yul\":13116:13285   */\n      swap3\n      swap2\n      pop\n      pop\n      jump\t// out\n        /* \"#utility.yul\":13291:13461   */\n    tag_246:\n        /* \"#utility.yul\":13431:13453   */\n      0x496e73756666696369656e742062616c616e6365000000000000000000000000\n        /* \"#utility.yul\":13427:13428   */\n      0x00\n        /* \"#utility.yul\":13419:13425   */\n      dup3\n        /* \"#utility.yul\":13415:13429   */\n      add\n        /* \"#utility.yul\":13408:13454   */\n      mstore\n        /* \"#utility.yul\":13291:13461   */\n      pop\n      jump\t// out\n        /* \"#utility.yul\":13467:13833   */\n    tag_247:\n        /* \"#utility.yul\":13609:13612   */\n      0x00\n        /* \"#utility.yul\":13630:13697   */\n      tag_419\n        /* \"#utility.yul\":13694:13696   */\n      0x14\n        /* \"#utility.yul\":13689:13692   */\n      dup4\n        /* \"#utility.yul\":13630:13697   */\n      tag_245\n      jump\t// in\n    tag_419:\n        /* \"#utility.yul\":13623:13697   */\n      swap2\n      pop\n        /* \"#utility.yul\":13706:13799   */\n      tag_420\n        /* \"#utility.yul\":13795:13798   */\n      dup3\n        /* \"#utility.yul\":13706:13799   */\n      tag_246\n      jump\t// in\n    tag_420:\n        /* \"#utility.yul\":13824:13826   */\n      0x20\n        /* \"#utility.yul\":13819:13822   */\n      dup3\n        /* \"#utility.yul\":13815:13827   */\n      add\n        /* \"#utility.yul\":13808:13827   */\n      swap1\n      pop\n        /* \"#utility.yul\":13467:13833   */\n      swap2\n      swap1\n      pop\n      jump\t// out\n        /* \"#utility.yul\":13839:14258   */\n    tag_136:\n        /* \"#utility.yul\":14005:14009   */\n      0x00\n        /* \"#utility.yul\":14043:14045   */\n      0x20\n        /* \"#utility.yul\":14032:14041   */\n      dup3\n        /* \"#utility.yul\":14028:14046   */\n      add\n        /* \"#utility.yul\":14020:14046   */\n      swap1\n      pop\n        /* \"#utility.yul\":14092:14101   */\n      dup2\n        /* \"#utility.yul\":14086:14090   */\n      dup2\n        /* \"#utility.yul\":14082:14102   */\n      sub\n        /* \"#utility.yul\":14078:14079   */\n      0x00\n        /* \"#utility.yul\":14067:14076   */\n      dup4\n        /* \"#utility.yul\":14063:14080   */\n      add\n        /* \"#utility.yul\":14056:14103   */\n      mstore\n        /* \"#utility.yul\":14120:14251   */\n      tag_422\n        /* \"#utility.yul\":14246:14250   */\n      dup2\n        /* \"#utility.yul\":14120:14251   */\n      tag_247\n      jump\t// in\n    tag_422:\n        /* \"#utility.yul\":14112:14251   */\n      swap1\n      pop\n        /* \"#utility.yul\":13839:14258   */\n      swap2\n      swap1\n      pop\n      jump\t// out\n        /* \"#utility.yul\":14264:14382   */\n    tag_248:\n        /* \"#utility.yul\":14351:14375   */\n      tag_424\n        /* \"#utility.yul\":14369:14374   */\n      dup2\n        /* \"#utility.yul\":14351:14375   */\n      tag_230\n      jump\t// in\n    tag_424:\n        /* \"#utility.yul\":14346:14349   */\n      dup3\n        /* \"#utility.yul\":14339:14376   */\n      mstore\n        /* \"#utility.yul\":14264:14382   */\n      pop\n      pop\n      jump\t// out\n        /* \"#utility.yul\":14388:14830   */\n    tag_138:\n        /* \"#utility.yul\":14537:14541   */\n      0x00\n        /* \"#utility.yul\":14575:14577   */\n      0x60\n        /* \"#utility.yul\":14564:14573   */\n      dup3\n        /* \"#utility.yul\":14560:14578   */\n      add\n        /* \"#utility.yul\":14552:14578   */\n      swap1\n      pop\n        /* \"#utility.yul\":14588:14659   */\n      tag_426\n        /* \"#utility.yul\":14656:14657   */\n      0x00\n        /* \"#utility.yul\":14645:14654   */\n      dup4\n        /* \"#utility.yul\":14641:14658   */\n      add\n        /* \"#utility.yul\":14632:14638   */\n      dup7\n        /* \"#utility.yul\":14588:14659   */\n      tag_243\n      jump\t// in\n    tag_426:\n        /* \"#utility.yul\":14669:14741   */\n      tag_427\n        /* \"#utility.yul\":14737:14739   */\n      0x20\n        /* \"#utility.yul\":14726:14735   */\n      dup4\n        /* \"#utility.yul\":14722:14740   */\n      add\n        /* \"#utility.yul\":14713:14719   */\n      dup6\n        /* \"#utility.yul\":14669:14741   */\n      tag_243\n      jump\t// in\n    tag_427:\n        /* \"#utility.yul\":14751:14823   */\n      tag_428\n        /* \"#utility.yul\":14819:14821   */\n      0x40\n        /* \"#utility.yul\":14808:14817   */\n      dup4\n        /* \"#utility.yul\":14804:14822   */\n      add\n        /* \"#utility.yul\":14795:14801   */\n      dup5\n        /* \"#utility.yul\":14751:14823   */\n      tag_248\n      jump\t// in\n    tag_428:\n        /* \"#utility.yul\":14388:14830   */\n      swap5\n      swap4\n      pop\n      pop\n      pop\n      pop\n      jump\t// out\n        /* \"#utility.yul\":14836:14952   */\n    tag_249:\n        /* \"#utility.yul\":14906:14927   */\n      tag_430\n        /* \"#utility.yul\":14921:14926   */\n      dup2\n        /* \"#utility.yul\":14906:14927   */\n      tag_200\n      jump\t// in\n    tag_430:\n        /* \"#utility.yul\":14899:14904   */\n      dup2\n        /* \"#utility.yul\":14896:14928   */\n      eq\n        /* \"#utility.yul\":14886:14946   */\n      tag_431\n      jumpi\n        /* \"#utility.yul\":14942:14943   */\n      0x00\n        /* \"#utility.yul\":14939:14940   */\n      dup1\n        /* \"#utility.yul\":14932:14944   */\n      revert\n        /* \"#utility.yul\":14886:14946   */\n    tag_431:\n        /* \"#utility.yul\":14836:14952   */\n      pop\n      jump\t// out\n        /* \"#utility.yul\":14958:15095   */\n    tag_250:\n        /* \"#utility.yul\":15012:15017   */\n      0x00\n        /* \"#utility.yul\":15043:15049   */\n      dup2\n        /* \"#utility.yul\":15037:15050   */\n      mload\n        /* \"#utility.yul\":15028:15050   */\n      swap1\n      pop\n        /* \"#utility.yul\":15059:15089   */\n      tag_433\n        /* \"#utility.yul\":15083:15088   */\n      dup2\n        /* \"#utility.yul\":15059:15089   */\n      tag_249\n      jump\t// in\n    tag_433:\n        /* \"#utility.yul\":14958:15095   */\n      swap3\n      swap2\n      pop\n      pop\n      jump\t// out\n        /* \"#utility.yul\":15101:15446   */\n    tag_142:\n        /* \"#utility.yul\":15168:15174   */\n      0x00\n        /* \"#utility.yul\":15217:15219   */\n      0x20\n        /* \"#utility.yul\":15205:15214   */\n      dup3\n        /* \"#utility.yul\":15196:15203   */\n      dup5\n        /* \"#utility.yul\":15192:15215   */\n      sub\n        /* \"#utility.yul\":15188:15220   */\n      slt\n        /* \"#utility.yul\":15185:15304   */\n      iszero\n      tag_435\n      jumpi\n        /* \"#utility.yul\":15223:15302   */\n      tag_436\n      tag_195\n      jump\t// in\n    tag_436:\n        /* \"#utility.yul\":15185:15304   */\n    tag_435:\n        /* \"#utility.yul\":15343:15344   */\n      0x00\n        /* \"#utility.yul\":15368:15429   */\n      tag_437\n        /* \"#utility.yul\":15421:15428   */\n      dup5\n        /* \"#utility.yul\":15412:15418   */\n      dup3\n        /* \"#utility.yul\":15401:15410   */\n      dup6\n        /* \"#utility.yul\":15397:15419   */\n      add\n        /* \"#utility.yul\":15368:15429   */\n      tag_250\n      jump\t// in\n    tag_437:\n        /* \"#utility.yul\":15358:15429   */\n      swap2\n      pop\n        /* \"#utility.yul\":15314:15439   */\n      pop\n        /* \"#utility.yul\":15101:15446   */\n      swap3\n      swap2\n      pop\n      pop\n      jump\t// out\n        /* \"#utility.yul\":15452:15560   */\n    tag_251:\n        /* \"#utility.yul\":15529:15553   */\n      tag_439\n        /* \"#utility.yul\":15547:15552   */\n      dup2\n        /* \"#utility.yul\":15529:15553   */\n      tag_207\n      jump\t// in\n    tag_439:\n        /* \"#utility.yul\":15524:15527   */\n      dup3\n        /* \"#utility.yul\":15517:15554   */\n      mstore\n        /* \"#utility.yul\":15452:15560   */\n      pop\n      pop\n      jump\t// out\n        /* \"#utility.yul\":15566:15674   */\n    tag_252:\n        /* \"#utility.yul\":15643:15667   */\n      tag_441\n        /* \"#utility.yul\":15661:15666   */\n      dup2\n        /* \"#utility.yul\":15643:15667   */\n      tag_230\n      jump\t// in\n    tag_441:\n        /* \"#utility.yul\":15638:15641   */\n      dup3\n        /* \"#utility.yul\":15631:15668   */\n      mstore\n        /* \"#utility.yul\":15566:15674   */\n      pop\n      pop\n      jump\t// out\n        /* \"#utility.yul\":15680:15785   */\n    tag_253:\n        /* \"#utility.yul\":15755:15778   */\n      tag_443\n        /* \"#utility.yul\":15772:15777   */\n      dup2\n        /* \"#utility.yul\":15755:15778   */\n      tag_233\n      jump\t// in\n    tag_443:\n        /* \"#utility.yul\":15750:15753   */\n      dup3\n        /* \"#utility.yul\":15743:15779   */\n      mstore\n        /* \"#utility.yul\":15680:15785   */\n      pop\n      pop\n      jump\t// out\n        /* \"#utility.yul\":15861:16745   */\n    tag_254:\n        /* \"#utility.yul\":16008:16012   */\n      0x80\n        /* \"#utility.yul\":16003:16006   */\n      dup3\n        /* \"#utility.yul\":15999:16013   */\n      add\n        /* \"#utility.yul\":16096:16100   */\n      0x00\n        /* \"#utility.yul\":16089:16094   */\n      dup3\n        /* \"#utility.yul\":16085:16101   */\n      add\n        /* \"#utility.yul\":16079:16102   */\n      mload\n        /* \"#utility.yul\":16115:16178   */\n      tag_445\n        /* \"#utility.yul\":16172:16176   */\n      0x00\n        /* \"#utility.yul\":16167:16170   */\n      dup6\n        /* \"#utility.yul\":16163:16177   */\n      add\n        /* \"#utility.yul\":16149:16161   */\n      dup3\n        /* \"#utility.yul\":16115:16178   */\n      tag_251\n      jump\t// in\n    tag_445:\n        /* \"#utility.yul\":16023:16188   */\n      pop\n        /* \"#utility.yul\":16272:16276   */\n      0x20\n        /* \"#utility.yul\":16265:16270   */\n      dup3\n        /* \"#utility.yul\":16261:16277   */\n      add\n        /* \"#utility.yul\":16255:16278   */\n      mload\n        /* \"#utility.yul\":16291:16354   */\n      tag_446\n        /* \"#utility.yul\":16348:16352   */\n      0x20\n        /* \"#utility.yul\":16343:16346   */\n      dup6\n        /* \"#utility.yul\":16339:16353   */\n      add\n        /* \"#utility.yul\":16325:16337   */\n      dup3\n        /* \"#utility.yul\":16291:16354   */\n      tag_252\n      jump\t// in\n    tag_446:\n        /* \"#utility.yul\":16198:16364   */\n      pop\n        /* \"#utility.yul\":16460:16464   */\n      0x40\n        /* \"#utility.yul\":16453:16458   */\n      dup3\n        /* \"#utility.yul\":16449:16465   */\n      add\n        /* \"#utility.yul\":16443:16466   */\n      mload\n        /* \"#utility.yul\":16479:16540   */\n      tag_447\n        /* \"#utility.yul\":16534:16538   */\n      0x40\n        /* \"#utility.yul\":16529:16532   */\n      dup6\n        /* \"#utility.yul\":16525:16539   */\n      add\n        /* \"#utility.yul\":16511:16523   */\n      dup3\n        /* \"#utility.yul\":16479:16540   */\n      tag_253\n      jump\t// in\n    tag_447:\n        /* \"#utility.yul\":16374:16550   */\n      pop\n        /* \"#utility.yul\":16646:16650   */\n      0x60\n        /* \"#utility.yul\":16639:16644   */\n      dup3\n        /* \"#utility.yul\":16635:16651   */\n      add\n        /* \"#utility.yul\":16629:16652   */\n      mload\n        /* \"#utility.yul\":16665:16728   */\n      tag_448\n        /* \"#utility.yul\":16722:16726   */\n      0x60\n        /* \"#utility.yul\":16717:16720   */\n      dup6\n        /* \"#utility.yul\":16713:16727   */\n      add\n        /* \"#utility.yul\":16699:16711   */\n      dup3\n        /* \"#utility.yul\":16665:16728   */\n      tag_251\n      jump\t// in\n    tag_448:\n        /* \"#utility.yul\":16560:16738   */\n      pop\n        /* \"#utility.yul\":15977:16745   */\n      pop\n        /* \"#utility.yul\":15861:16745   */\n      pop\n      pop\n      jump\t// out\n        /* \"#utility.yul\":16751:17074   */\n    tag_145:\n        /* \"#utility.yul\":16894:16898   */\n      0x00\n        /* \"#utility.yul\":16932:16935   */\n      0x80\n        /* \"#utility.yul\":16921:16930   */\n      dup3\n        /* \"#utility.yul\":16917:16936   */\n      add\n        /* \"#utility.yul\":16909:16936   */\n      swap1\n      pop\n        /* \"#utility.yul\":16946:17067   */\n      tag_450\n        /* \"#utility.yul\":17064:17065   */\n      0x00\n        /* \"#utility.yul\":17053:17062   */\n      dup4\n        /* \"#utility.yul\":17049:17066   */\n      add\n        /* \"#utility.yul\":17040:17046   */\n      dup5\n        /* \"#utility.yul\":16946:17067   */\n      tag_254\n      jump\t// in\n    tag_450:\n        /* \"#utility.yul\":16751:17074   */\n      swap3\n      swap2\n      pop\n      pop\n      jump\t// out\n        /* \"#utility.yul\":17080:17195   */\n    tag_255:\n        /* \"#utility.yul\":17165:17188   */\n      tag_452\n        /* \"#utility.yul\":17182:17187   */\n      dup2\n        /* \"#utility.yul\":17165:17188   */\n      tag_233\n      jump\t// in\n    tag_452:\n        /* \"#utility.yul\":17160:17163   */\n      dup3\n        /* \"#utility.yul\":17153:17189   */\n      mstore\n        /* \"#utility.yul\":17080:17195   */\n      pop\n      pop\n      jump\t// out\n        /* \"#utility.yul\":17201:17639   */\n    tag_147:\n        /* \"#utility.yul\":17348:17352   */\n      0x00\n        /* \"#utility.yul\":17386:17388   */\n      0x60\n        /* \"#utility.yul\":17375:17384   */\n      dup3\n        /* \"#utility.yul\":17371:17389   */\n      add\n        /* \"#utility.yul\":17363:17389   */\n      swap1\n      pop\n        /* \"#utility.yul\":17399:17470   */\n      tag_454\n        /* \"#utility.yul\":17467:17468   */\n      0x00\n        /* \"#utility.yul\":17456:17465   */\n      dup4\n        /* \"#utility.yul\":17452:17469   */\n      add\n        /* \"#utility.yul\":17443:17449   */\n      dup7\n        /* \"#utility.yul\":17399:17470   */\n      tag_248\n      jump\t// in\n    tag_454:\n        /* \"#utility.yul\":17480:17550   */\n      tag_455\n        /* \"#utility.yul\":17546:17548   */\n      0x20\n        /* \"#utility.yul\":17535:17544   */\n      dup4\n        /* \"#utility.yul\":17531:17549   */\n      add\n        /* \"#utility.yul\":17522:17528   */\n      dup6\n        /* \"#utility.yul\":17480:17550   */\n      tag_255\n      jump\t// in\n    tag_455:\n        /* \"#utility.yul\":17560:17632   */\n      tag_456\n        /* \"#utility.yul\":17628:17630   */\n      0x40\n        /* \"#utility.yul\":17617:17626   */\n      dup4\n        /* \"#utility.yul\":17613:17631   */\n      add\n        /* \"#utility.yul\":17604:17610   */\n      dup5\n        /* \"#utility.yul\":17560:17632   */\n      tag_243\n      jump\t// in\n    tag_456:\n        /* \"#utility.yul\":17201:17639   */\n      swap5\n      swap4\n      pop\n      pop\n      pop\n      pop\n      jump\t// out\n        /* \"#utility.yul\":17645:17977   */\n    tag_152:\n        /* \"#utility.yul\":17766:17770   */\n      0x00\n        /* \"#utility.yul\":17804:17806   */\n      0x40\n        /* \"#utility.yul\":17793:17802   */\n      dup3\n        /* \"#utility.yul\":17789:17807   */\n      add\n        /* \"#utility.yul\":17781:17807   */\n      swap1\n      pop\n        /* \"#utility.yul\":17817:17888   */\n      tag_458\n        /* \"#utility.yul\":17885:17886   */\n      0x00\n        /* \"#utility.yul\":17874:17883   */\n      dup4\n        /* \"#utility.yul\":17870:17887   */\n      add\n        /* \"#utility.yul\":17861:17867   */\n      dup6\n        /* \"#utility.yul\":17817:17888   */\n      tag_243\n      jump\t// in\n    tag_458:\n        /* \"#utility.yul\":17898:17970   */\n      tag_459\n        /* \"#utility.yul\":17966:17968   */\n      0x20\n        /* \"#utility.yul\":17955:17964   */\n      dup4\n        /* \"#utility.yul\":17951:17969   */\n      add\n        /* \"#utility.yul\":17942:17948   */\n      dup5\n        /* \"#utility.yul\":17898:17970   */\n      tag_248\n      jump\t// in\n    tag_459:\n        /* \"#utility.yul\":17645:17977   */\n      swap4\n      swap3\n      pop\n      pop\n      pop\n      jump\t// out\n        /* \"#utility.yul\":17983:18315   */\n    tag_190:\n        /* \"#utility.yul\":18104:18108   */\n      0x00\n        /* \"#utility.yul\":18142:18144   */\n      0x40\n        /* \"#utility.yul\":18131:18140   */\n      dup3\n        /* \"#utility.yul\":18127:18145   */\n      add\n        /* \"#utility.yul\":18119:18145   */\n      swap1\n      pop\n        /* \"#utility.yul\":18155:18226   */\n      tag_461\n        /* \"#utility.yul\":18223:18224   */\n      0x00\n        /* \"#utility.yul\":18212:18221   */\n      dup4\n        /* \"#utility.yul\":18208:18225   */\n      add\n        /* \"#utility.yul\":18199:18205   */\n      dup6\n        /* \"#utility.yul\":18155:18226   */\n      tag_243\n      jump\t// in\n    tag_461:\n        /* \"#utility.yul\":18236:18308   */\n      tag_462\n        /* \"#utility.yul\":18304:18306   */\n      0x20\n        /* \"#utility.yul\":18293:18302   */\n      dup4\n        /* \"#utility.yul\":18289:18307   */\n      add\n        /* \"#utility.yul\":18280:18286   */\n      dup5\n        /* \"#utility.yul\":18236:18308   */\n      tag_205\n      jump\t// in\n    tag_462:\n        /* \"#utility.yul\":17983:18315   */\n      swap4\n      swap3\n      pop\n      pop\n      pop\n      jump\t// out\n\n    auxdata: 0xa26469706673582212202271234b24fdef94da7b1ea853b7bdeb7fb79958bfaad97c1f572a3d089cfea964736f6c634300081a0033\n}\n",
				"bytecode": {
					"linkReferences": {},
					"object": "608060405234801561000f575f80fd5b5060405161177d38038061177d833981810160405281019061003191906100ee565b5f60015f6101000a81548160ff021916908315150217905550806001806101000a81548173ffffffffffffffffffffffffffffffffffffffff021916908373ffffffffffffffffffffffffffffffffffffffff16021790555050610119565b5f80fd5b5f73ffffffffffffffffffffffffffffffffffffffff82169050919050565b5f6100bd82610094565b9050919050565b6100cd816100b3565b81146100d7575f80fd5b50565b5f815190506100e8816100c4565b92915050565b5f6020828403121561010357610102610090565b5b5f610110848285016100da565b91505092915050565b611657806101265f395ff3fe608060405234801561000f575f80fd5b50600436106100fe575f3560e01c806384acd1bb11610095578063d547741f11610064578063d547741f14610286578063e9162e8f146102a2578063f11df69d146102be578063f6b5a2e3146102dc576100fe565b806384acd1bb146101ea57806391d1485414610208578063a217fddf14610238578063ae86670814610256576100fe565b80633f4ba83a116100d15780633f4ba83a1461019a5780635c975abb146101a457806375b238fc146101c25780638456cb59146101e0576100fe565b806301ffc9a714610102578063248a9ca3146101325780632f2ff15d1461016257806336568abe1461017e575b5f80fd5b61011c60048036038101906101179190610d74565b6102f8565b6040516101299190610db9565b60405180910390f35b61014c60048036038101906101479190610e05565b610371565b6040516101599190610e3f565b60405180910390f35b61017c60048036038101906101779190610eb2565b61038d565b005b61019860048036038101906101939190610eb2565b6103af565b005b6101a261042a565b005b6101ac61045f565b6040516101b99190610db9565b60405180910390f35b6101ca610474565b6040516101d79190610e3f565b60405180910390f35b6101e8610498565b005b6101f26104cd565b6040516101ff9190610f4b565b60405180910390f35b610222600480360381019061021d9190610eb2565b6104f1565b60405161022f9190610db9565b60405180910390f35b610240610554565b60405161024d9190610e3f565b60405180910390f35b610270600480360381019061026b91906110d9565b61055a565b60405161027d9190611155565b60405180910390f35b6102a0600480360381019061029b9190610eb2565b6105fe565b005b6102bc60048036038101906102b791906111d8565b610620565b005b6102c6610853565b6040516102d39190610f4b565b60405180910390f35b6102f660048036038101906102f1919061123c565b610878565b005b5f7f7965db0b000000000000000000000000000000000000000000000000000000007bffffffffffffffffffffffffffffffffffffffffffffffffffffffff1916827bffffffffffffffffffffffffffffffffffffffffffffffffffffffff1916148061036a575061036982610924565b5b9050919050565b5f805f8381526020019081526020015f20600101549050919050565b61039682610371565b61039f8161098d565b6103a983836109a1565b50505050565b6103b7610a8a565b73ffffffffffffffffffffffffffffffffffffffff168173ffffffffffffffffffffffffffffffffffffffff161461041b576040517f6697b23200000000000000000000000000000000000000000000000000000000815260040160405180910390fd5b6104258282610a91565b505050565b7fa49807205ce4d355092ef5a8a18f56e8913cf4a201fbe287825b095693c217756104548161098d565b61045c610b7a565b50565b5f60015f9054906101000a900460ff16905090565b7fa49807205ce4d355092ef5a8a18f56e8913cf4a201fbe287825b095693c2177581565b7fa49807205ce4d355092ef5a8a18f56e8913cf4a201fbe287825b095693c217756104c28161098d565b6104ca610bdb565b50565b60018054906101000a900473ffffffffffffffffffffffffffffffffffffffff1681565b5f805f8481526020019081526020015f205f015f8373ffffffffffffffffffffffffffffffffffffffff1673ffffffffffffffffffffffffffffffffffffffff1681526020019081526020015f205f9054906101000a900460ff16905092915050565b5f801b81565b5f60018054906101000a900473ffffffffffffffffffffffffffffffffffffffff1673ffffffffffffffffffffffffffffffffffffffff166321f9aeef84846040518363ffffffff1660e01b81526004016105b69291906112fb565b6020604051808303815f875af11580156105d2573d5f803e3d5ffd5b505050506040513d601f19601f820116820180604052508101906105f69190611353565b905092915050565b61060782610371565b6106108161098d565b61061a8383610a91565b50505050565b610628610c3c565b828473ffffffffffffffffffffffffffffffffffffffff166370a08231336040518263ffffffff1660e01b8152600401610662919061138d565b602060405180830381865afa15801561067d573d5f803e3d5ffd5b505050506040513d601f19601f820116820180604052508101906106a191906113ba565b10156106e2576040517f08c379a00000000000000000000000000000000000000000000000000000000081526004016106d99061143f565b60405180910390fd5b8373ffffffffffffffffffffffffffffffffffffffff166323b872dd3330866040518463ffffffff1660e01b815260040161071f9392919061146c565b6020604051808303815f875af115801561073b573d5f803e3d5ffd5b505050506040513d601f19601f8201168201806040525081019061075f91906114cb565b505f60405180608001604052808673ffffffffffffffffffffffffffffffffffffffff1681526020018581526020018461ffff1681526020018373ffffffffffffffffffffffffffffffffffffffff1681525090505f806107df836040516020016107ca9190611576565b6040516020818303038152906040528361055a565b90503373ffffffffffffffffffffffffffffffffffffffff168773ffffffffffffffffffffffffffffffffffffffff167f728d3b43ee01977258cf271ef6081e347591e58d3def342dd415b7720b4f86bb8888886040516108429392919061159e565b60405180910390a350505050505050565b60025f9054906101000a900473ffffffffffffffffffffffffffffffffffffffff1681565b7fa49807205ce4d355092ef5a8a18f56e8913cf4a201fbe287825b095693c217756108a28161098d565b8373ffffffffffffffffffffffffffffffffffffffff1663a9059cbb83856040518363ffffffff1660e01b81526004016108dd9291906115d3565b6020604051808303815f875af11580156108f9573d5f803e3d5ffd5b505050506040513d601f19601f8201168201806040525081019061091d91906114cb565b5050505050565b5f7f01ffc9a7000000000000000000000000000000000000000000000000000000007bffffffffffffffffffffffffffffffffffffffffffffffffffffffff1916827bffffffffffffffffffffffffffffffffffffffffffffffffffffffff1916149050919050565b61099e81610999610a8a565b610c7d565b50565b5f6109ac83836104f1565b610a805760015f808581526020019081526020015f205f015f8473ffffffffffffffffffffffffffffffffffffffff1673ffffffffffffffffffffffffffffffffffffffff1681526020019081526020015f205f6101000a81548160ff021916908315150217905550610a1d610a8a565b73ffffffffffffffffffffffffffffffffffffffff168273ffffffffffffffffffffffffffffffffffffffff16847f2f8788117e7eff1d82e926ec794901d17c78024a50270940304540a733656f0d60405160405180910390a460019050610a84565b5f90505b92915050565b5f33905090565b5f610a9c83836104f1565b15610b70575f805f8581526020019081526020015f205f015f8473ffffffffffffffffffffffffffffffffffffffff1673ffffffffffffffffffffffffffffffffffffffff1681526020019081526020015f205f6101000a81548160ff021916908315150217905550610b0d610a8a565b73ffffffffffffffffffffffffffffffffffffffff168273ffffffffffffffffffffffffffffffffffffffff16847ff6391f5c32d9c69d2a47ea670b442974b53935d1edc7fd64eb21e047a839171b60405160405180910390a460019050610b74565b5f90505b92915050565b610b82610cce565b5f60015f6101000a81548160ff0219169083151502179055507f5db9ee0a495bf2e6ff9c91a7834c1ba4fdd244a5e8aa4e537bd38aeae4b073aa610bc4610a8a565b604051610bd1919061138d565b60405180910390a1565b610be3610c3c565b6001805f6101000a81548160ff0219169083151502179055507f62e78cea01bee320cd4e420270b5ea74000d11b0c9f74754ebdbfc544b05a258610c25610a8a565b604051610c32919061138d565b60405180910390a1565b610c4461045f565b15610c7b576040517fd93c066500000000000000000000000000000000000000000000000000000000815260040160405180910390fd5b565b610c8782826104f1565b610cca5780826040517fe2517d3f000000000000000000000000000000000000000000000000000000008152600401610cc19291906115fa565b60405180910390fd5b5050565b610cd661045f565b610d0c576040517f8dfc202b00000000000000000000000000000000000000000000000000000000815260040160405180910390fd5b565b5f604051905090565b5f80fd5b5f80fd5b5f7fffffffff0000000000000000000000000000000000000000000000000000000082169050919050565b610d5381610d1f565b8114610d5d575f80fd5b50565b5f81359050610d6e81610d4a565b92915050565b5f60208284031215610d8957610d88610d17565b5b5f610d9684828501610d60565b91505092915050565b5f8115159050919050565b610db381610d9f565b82525050565b5f602082019050610dcc5f830184610daa565b92915050565b5f819050919050565b610de481610dd2565b8114610dee575f80fd5b50565b5f81359050610dff81610ddb565b92915050565b5f60208284031215610e1a57610e19610d17565b5b5f610e2784828501610df1565b91505092915050565b610e3981610dd2565b82525050565b5f602082019050610e525f830184610e30565b92915050565b5f73ffffffffffffffffffffffffffffffffffffffff82169050919050565b5f610e8182610e58565b9050919050565b610e9181610e77565b8114610e9b575f80fd5b50565b5f81359050610eac81610e88565b92915050565b5f8060408385031215610ec857610ec7610d17565b5b5f610ed585828601610df1565b9250506020610ee685828601610e9e565b9150509250929050565b5f819050919050565b5f610f13610f0e610f0984610e58565b610ef0565b610e58565b9050919050565b5f610f2482610ef9565b9050919050565b5f610f3582610f1a565b9050919050565b610f4581610f2b565b82525050565b5f602082019050610f5e5f830184610f3c565b92915050565b5f80fd5b5f80fd5b5f601f19601f8301169050919050565b7f4e487b71000000000000000000000000000000000000000000000000000000005f52604160045260245ffd5b610fb282610f6c565b810181811067ffffffffffffffff82111715610fd157610fd0610f7c565b5b80604052505050565b5f610fe3610d0e565b9050610fef8282610fa9565b919050565b5f67ffffffffffffffff82111561100e5761100d610f7c565b5b61101782610f6c565b9050602081019050919050565b828183375f83830152505050565b5f61104461103f84610ff4565b610fda565b9050828152602081018484840111156110605761105f610f68565b5b61106b848285611024565b509392505050565b5f82601f83011261108757611086610f64565b5b8135611097848260208601611032565b91505092915050565b5f63ffffffff82169050919050565b6110b8816110a0565b81146110c2575f80fd5b50565b5f813590506110d3816110af565b92915050565b5f80604083850312156110ef576110ee610d17565b5b5f83013567ffffffffffffffff81111561110c5761110b610d1b565b5b61111885828601611073565b9250506020611129858286016110c5565b9150509250929050565b5f67ffffffffffffffff82169050919050565b61114f81611133565b82525050565b5f6020820190506111685f830184611146565b92915050565b5f819050919050565b6111808161116e565b811461118a575f80fd5b50565b5f8135905061119b81611177565b92915050565b5f61ffff82169050919050565b6111b7816111a1565b81146111c1575f80fd5b50565b5f813590506111d2816111ae565b92915050565b5f805f80608085870312156111f0576111ef610d17565b5b5f6111fd87828801610e9e565b945050602061120e8782880161118d565b935050604061121f878288016111c4565b925050606061123087828801610e9e565b91505092959194509250565b5f805f6060848603121561125357611252610d17565b5b5f61126086828701610e9e565b93505060206112718682870161118d565b925050604061128286828701610e9e565b9150509250925092565b5f81519050919050565b5f82825260208201905092915050565b8281835e5f83830152505050565b5f6112be8261128c565b6112c88185611296565b93506112d88185602086016112a6565b6112e181610f6c565b840191505092915050565b6112f5816110a0565b82525050565b5f6040820190508181035f83015261131381856112b4565b905061132260208301846112ec565b9392505050565b61133281611133565b811461133c575f80fd5b50565b5f8151905061134d81611329565b92915050565b5f6020828403121561136857611367610d17565b5b5f6113758482850161133f565b91505092915050565b61138781610e77565b82525050565b5f6020820190506113a05f83018461137e565b92915050565b5f815190506113b481611177565b92915050565b5f602082840312156113cf576113ce610d17565b5b5f6113dc848285016113a6565b91505092915050565b5f82825260208201905092915050565b7f496e73756666696369656e742062616c616e63650000000000000000000000005f82015250565b5f6114296014836113e5565b9150611434826113f5565b602082019050919050565b5f6020820190508181035f8301526114568161141d565b9050919050565b6114668161116e565b82525050565b5f60608201905061147f5f83018661137e565b61148c602083018561137e565b611499604083018461145d565b949350505050565b6114aa81610d9f565b81146114b4575f80fd5b50565b5f815190506114c5816114a1565b92915050565b5f602082840312156114e0576114df610d17565b5b5f6114ed848285016114b7565b91505092915050565b6114ff81610e77565b82525050565b61150e8161116e565b82525050565b61151d816111a1565b82525050565b608082015f8201516115375f8501826114f6565b50602082015161154a6020850182611505565b50604082015161155d6040850182611514565b50606082015161157060608501826114f6565b50505050565b5f6080820190506115895f830184611523565b92915050565b611598816111a1565b82525050565b5f6060820190506115b15f83018661145d565b6115be602083018561158f565b6115cb604083018461137e565b949350505050565b5f6040820190506115e65f83018561137e565b6115f3602083018461145d565b9392505050565b5f60408201905061160d5f83018561137e565b61161a6020830184610e30565b939250505056fea26469706673582212202271234b24fdef94da7b1ea853b7bdeb7fb79958bfaad97c1f572a3d089cfea964736f6c634300081a0033",
					"opcodes": "PUSH1 0x80 PUSH1 0x40 MSTORE CALLVALUE DUP1 ISZERO PUSH2 0xF JUMPI PUSH0 DUP1 REVERT JUMPDEST POP PUSH1 0x40 MLOAD PUSH2 0x177D CODESIZE SUB DUP1 PUSH2 0x177D DUP4 CODECOPY DUP2 DUP2 ADD PUSH1 0x40 MSTORE DUP2 ADD SWAP1 PUSH2 0x31 SWAP2 SWAP1 PUSH2 0xEE JUMP JUMPDEST PUSH0 PUSH1 0x1 PUSH0 PUSH2 0x100 EXP DUP2 SLOAD DUP2 PUSH1 0xFF MUL NOT AND SWAP1 DUP4 ISZERO ISZERO MUL OR SWAP1 SSTORE POP DUP1 PUSH1 0x1 DUP1 PUSH2 0x100 EXP DUP2 SLOAD DUP2 PUSH20 0xFFFFFFFFFFFFFFFFFFFFFFFFFFFFFFFFFFFFFFFF MUL NOT AND SWAP1 DUP4 PUSH20 0xFFFFFFFFFFFFFFFFFFFFFFFFFFFFFFFFFFFFFFFF AND MUL OR SWAP1 SSTORE POP POP PUSH2 0x119 JUMP JUMPDEST PUSH0 DUP1 REVERT JUMPDEST PUSH0 PUSH20 0xFFFFFFFFFFFFFFFFFFFFFFFFFFFFFFFFFFFFFFFF DUP3 AND SWAP1 POP SWAP2 SWAP1 POP JUMP JUMPDEST PUSH0 PUSH2 0xBD DUP3 PUSH2 0x94 JUMP JUMPDEST SWAP1 POP SWAP2 SWAP1 POP JUMP JUMPDEST PUSH2 0xCD DUP2 PUSH2 0xB3 JUMP JUMPDEST DUP2 EQ PUSH2 0xD7 JUMPI PUSH0 DUP1 REVERT JUMPDEST POP JUMP JUMPDEST PUSH0 DUP2 MLOAD SWAP1 POP PUSH2 0xE8 DUP2 PUSH2 0xC4 JUMP JUMPDEST SWAP3 SWAP2 POP POP JUMP JUMPDEST PUSH0 PUSH1 0x20 DUP3 DUP5 SUB SLT ISZERO PUSH2 0x103 JUMPI PUSH2 0x102 PUSH2 0x90 JUMP JUMPDEST JUMPDEST PUSH0 PUSH2 0x110 DUP5 DUP3 DUP6 ADD PUSH2 0xDA JUMP JUMPDEST SWAP2 POP POP SWAP3 SWAP2 POP POP JUMP JUMPDEST PUSH2 0x1657 DUP1 PUSH2 0x126 PUSH0 CODECOPY PUSH0 RETURN INVALID PUSH1 0x80 PUSH1 0x40 MSTORE CALLVALUE DUP1 ISZERO PUSH2 0xF JUMPI PUSH0 DUP1 REVERT JUMPDEST POP PUSH1 0x4 CALLDATASIZE LT PUSH2 0xFE JUMPI PUSH0 CALLDATALOAD PUSH1 0xE0 SHR DUP1 PUSH4 0x84ACD1BB GT PUSH2 0x95 JUMPI DUP1 PUSH4 0xD547741F GT PUSH2 0x64 JUMPI DUP1 PUSH4 0xD547741F EQ PUSH2 0x286 JUMPI DUP1 PUSH4 0xE9162E8F EQ PUSH2 0x2A2 JUMPI DUP1 PUSH4 0xF11DF69D EQ PUSH2 0x2BE JUMPI DUP1 PUSH4 0xF6B5A2E3 EQ PUSH2 0x2DC JUMPI PUSH2 0xFE JUMP JUMPDEST DUP1 PUSH4 0x84ACD1BB EQ PUSH2 0x1EA JUMPI DUP1 PUSH4 0x91D14854 EQ PUSH2 0x208 JUMPI DUP1 PUSH4 0xA217FDDF EQ PUSH2 0x238 JUMPI DUP1 PUSH4 0xAE866708 EQ PUSH2 0x256 JUMPI PUSH2 0xFE JUMP JUMPDEST DUP1 PUSH4 0x3F4BA83A GT PUSH2 0xD1 JUMPI DUP1 PUSH4 0x3F4BA83A EQ PUSH2 0x19A JUMPI DUP1 PUSH4 0x5C975ABB EQ PUSH2 0x1A4 JUMPI DUP1 PUSH4 0x75B238FC EQ PUSH2 0x1C2 JUMPI DUP1 PUSH4 0x8456CB59 EQ PUSH2 0x1E0 JUMPI PUSH2 0xFE JUMP JUMPDEST DUP1 PUSH4 0x1FFC9A7 EQ PUSH2 0x102 JUMPI DUP1 PUSH4 0x248A9CA3 EQ PUSH2 0x132 JUMPI DUP1 PUSH4 0x2F2FF15D EQ PUSH2 0x162 JUMPI DUP1 PUSH4 0x36568ABE EQ PUSH2 0x17E JUMPI JUMPDEST PUSH0 DUP1 REVERT JUMPDEST PUSH2 0x11C PUSH1 0x4 DUP1 CALLDATASIZE SUB DUP2 ADD SWAP1 PUSH2 0x117 SWAP2 SWAP1 PUSH2 0xD74 JUMP JUMPDEST PUSH2 0x2F8 JUMP JUMPDEST PUSH1 0x40 MLOAD PUSH2 0x129 SWAP2 SWAP1 PUSH2 0xDB9 JUMP JUMPDEST PUSH1 0x40 MLOAD DUP1 SWAP2 SUB SWAP1 RETURN JUMPDEST PUSH2 0x14C PUSH1 0x4 DUP1 CALLDATASIZE SUB DUP2 ADD SWAP1 PUSH2 0x147 SWAP2 SWAP1 PUSH2 0xE05 JUMP JUMPDEST PUSH2 0x371 JUMP JUMPDEST PUSH1 0x40 MLOAD PUSH2 0x159 SWAP2 SWAP1 PUSH2 0xE3F JUMP JUMPDEST PUSH1 0x40 MLOAD DUP1 SWAP2 SUB SWAP1 RETURN JUMPDEST PUSH2 0x17C PUSH1 0x4 DUP1 CALLDATASIZE SUB DUP2 ADD SWAP1 PUSH2 0x177 SWAP2 SWAP1 PUSH2 0xEB2 JUMP JUMPDEST PUSH2 0x38D JUMP JUMPDEST STOP JUMPDEST PUSH2 0x198 PUSH1 0x4 DUP1 CALLDATASIZE SUB DUP2 ADD SWAP1 PUSH2 0x193 SWAP2 SWAP1 PUSH2 0xEB2 JUMP JUMPDEST PUSH2 0x3AF JUMP JUMPDEST STOP JUMPDEST PUSH2 0x1A2 PUSH2 0x42A JUMP JUMPDEST STOP JUMPDEST PUSH2 0x1AC PUSH2 0x45F JUMP JUMPDEST PUSH1 0x40 MLOAD PUSH2 0x1B9 SWAP2 SWAP1 PUSH2 0xDB9 JUMP JUMPDEST PUSH1 0x40 MLOAD DUP1 SWAP2 SUB SWAP1 RETURN JUMPDEST PUSH2 0x1CA PUSH2 0x474 JUMP JUMPDEST PUSH1 0x40 MLOAD PUSH2 0x1D7 SWAP2 SWAP1 PUSH2 0xE3F JUMP JUMPDEST PUSH1 0x40 MLOAD DUP1 SWAP2 SUB SWAP1 RETURN JUMPDEST PUSH2 0x1E8 PUSH2 0x498 JUMP JUMPDEST STOP JUMPDEST PUSH2 0x1F2 PUSH2 0x4CD JUMP JUMPDEST PUSH1 0x40 MLOAD PUSH2 0x1FF SWAP2 SWAP1 PUSH2 0xF4B JUMP JUMPDEST PUSH1 0x40 MLOAD DUP1 SWAP2 SUB SWAP1 RETURN JUMPDEST PUSH2 0x222 PUSH1 0x4 DUP1 CALLDATASIZE SUB DUP2 ADD SWAP1 PUSH2 0x21D SWAP2 SWAP1 PUSH2 0xEB2 JUMP JUMPDEST PUSH2 0x4F1 JUMP JUMPDEST PUSH1 0x40 MLOAD PUSH2 0x22F SWAP2 SWAP1 PUSH2 0xDB9 JUMP JUMPDEST PUSH1 0x40 MLOAD DUP1 SWAP2 SUB SWAP1 RETURN JUMPDEST PUSH2 0x240 PUSH2 0x554 JUMP JUMPDEST PUSH1 0x40 MLOAD PUSH2 0x24D SWAP2 SWAP1 PUSH2 0xE3F JUMP JUMPDEST PUSH1 0x40 MLOAD DUP1 SWAP2 SUB SWAP1 RETURN JUMPDEST PUSH2 0x270 PUSH1 0x4 DUP1 CALLDATASIZE SUB DUP2 ADD SWAP1 PUSH2 0x26B SWAP2 SWAP1 PUSH2 0x10D9 JUMP JUMPDEST PUSH2 0x55A JUMP JUMPDEST PUSH1 0x40 MLOAD PUSH2 0x27D SWAP2 SWAP1 PUSH2 0x1155 JUMP JUMPDEST PUSH1 0x40 MLOAD DUP1 SWAP2 SUB SWAP1 RETURN JUMPDEST PUSH2 0x2A0 PUSH1 0x4 DUP1 CALLDATASIZE SUB DUP2 ADD SWAP1 PUSH2 0x29B SWAP2 SWAP1 PUSH2 0xEB2 JUMP JUMPDEST PUSH2 0x5FE JUMP JUMPDEST STOP JUMPDEST PUSH2 0x2BC PUSH1 0x4 DUP1 CALLDATASIZE SUB DUP2 ADD SWAP1 PUSH2 0x2B7 SWAP2 SWAP1 PUSH2 0x11D8 JUMP JUMPDEST PUSH2 0x620 JUMP JUMPDEST STOP JUMPDEST PUSH2 0x2C6 PUSH2 0x853 JUMP JUMPDEST PUSH1 0x40 MLOAD PUSH2 0x2D3 SWAP2 SWAP1 PUSH2 0xF4B JUMP JUMPDEST PUSH1 0x40 MLOAD DUP1 SWAP2 SUB SWAP1 RETURN JUMPDEST PUSH2 0x2F6 PUSH1 0x4 DUP1 CALLDATASIZE SUB DUP2 ADD SWAP1 PUSH2 0x2F1 SWAP2 SWAP1 PUSH2 0x123C JUMP JUMPDEST PUSH2 0x878 JUMP JUMPDEST STOP JUMPDEST PUSH0 PUSH32 0x7965DB0B00000000000000000000000000000000000000000000000000000000 PUSH28 0xFFFFFFFFFFFFFFFFFFFFFFFFFFFFFFFFFFFFFFFFFFFFFFFFFFFFFFFF NOT AND DUP3 PUSH28 0xFFFFFFFFFFFFFFFFFFFFFFFFFFFFFFFFFFFFFFFFFFFFFFFFFFFFFFFF NOT AND EQ DUP1 PUSH2 0x36A JUMPI POP PUSH2 0x369 DUP3 PUSH2 0x924 JUMP JUMPDEST JUMPDEST SWAP1 POP SWAP2 SWAP1 POP JUMP JUMPDEST PUSH0 DUP1 PUSH0 DUP4 DUP2 MSTORE PUSH1 0x20 ADD SWAP1 DUP2 MSTORE PUSH1 0x20 ADD PUSH0 KECCAK256 PUSH1 0x1 ADD SLOAD SWAP1 POP SWAP2 SWAP1 POP JUMP JUMPDEST PUSH2 0x396 DUP3 PUSH2 0x371 JUMP JUMPDEST PUSH2 0x39F DUP2 PUSH2 0x98D JUMP JUMPDEST PUSH2 0x3A9 DUP4 DUP4 PUSH2 0x9A1 JUMP JUMPDEST POP POP POP POP JUMP JUMPDEST PUSH2 0x3B7 PUSH2 0xA8A JUMP JUMPDEST PUSH20 0xFFFFFFFFFFFFFFFFFFFFFFFFFFFFFFFFFFFFFFFF AND DUP2 PUSH20 0xFFFFFFFFFFFFFFFFFFFFFFFFFFFFFFFFFFFFFFFF AND EQ PUSH2 0x41B JUMPI PUSH1 0x40 MLOAD PUSH32 0x6697B23200000000000000000000000000000000000000000000000000000000 DUP2 MSTORE PUSH1 0x4 ADD PUSH1 0x40 MLOAD DUP1 SWAP2 SUB SWAP1 REVERT JUMPDEST PUSH2 0x425 DUP3 DUP3 PUSH2 0xA91 JUMP JUMPDEST POP POP POP JUMP JUMPDEST PUSH32 0xA49807205CE4D355092EF5A8A18F56E8913CF4A201FBE287825B095693C21775 PUSH2 0x454 DUP2 PUSH2 0x98D JUMP JUMPDEST PUSH2 0x45C PUSH2 0xB7A JUMP JUMPDEST POP JUMP JUMPDEST PUSH0 PUSH1 0x1 PUSH0 SWAP1 SLOAD SWAP1 PUSH2 0x100 EXP SWAP1 DIV PUSH1 0xFF AND SWAP1 POP SWAP1 JUMP JUMPDEST PUSH32 0xA49807205CE4D355092EF5A8A18F56E8913CF4A201FBE287825B095693C21775 DUP2 JUMP JUMPDEST PUSH32 0xA49807205CE4D355092EF5A8A18F56E8913CF4A201FBE287825B095693C21775 PUSH2 0x4C2 DUP2 PUSH2 0x98D JUMP JUMPDEST PUSH2 0x4CA PUSH2 0xBDB JUMP JUMPDEST POP JUMP JUMPDEST PUSH1 0x1 DUP1 SLOAD SWAP1 PUSH2 0x100 EXP SWAP1 DIV PUSH20 0xFFFFFFFFFFFFFFFFFFFFFFFFFFFFFFFFFFFFFFFF AND DUP2 JUMP JUMPDEST PUSH0 DUP1 PUSH0 DUP5 DUP2 MSTORE PUSH1 0x20 ADD SWAP1 DUP2 MSTORE PUSH1 0x20 ADD PUSH0 KECCAK256 PUSH0 ADD PUSH0 DUP4 PUSH20 0xFFFFFFFFFFFFFFFFFFFFFFFFFFFFFFFFFFFFFFFF AND PUSH20 0xFFFFFFFFFFFFFFFFFFFFFFFFFFFFFFFFFFFFFFFF AND DUP2 MSTORE PUSH1 0x20 ADD SWAP1 DUP2 MSTORE PUSH1 0x20 ADD PUSH0 KECCAK256 PUSH0 SWAP1 SLOAD SWAP1 PUSH2 0x100 EXP SWAP1 DIV PUSH1 0xFF AND SWAP1 POP SWAP3 SWAP2 POP POP JUMP JUMPDEST PUSH0 DUP1 SHL DUP2 JUMP JUMPDEST PUSH0 PUSH1 0x1 DUP1 SLOAD SWAP1 PUSH2 0x100 EXP SWAP1 DIV PUSH20 0xFFFFFFFFFFFFFFFFFFFFFFFFFFFFFFFFFFFFFFFF AND PUSH20 0xFFFFFFFFFFFFFFFFFFFFFFFFFFFFFFFFFFFFFFFF AND PUSH4 0x21F9AEEF DUP5 DUP5 PUSH1 0x40 MLOAD DUP4 PUSH4 0xFFFFFFFF AND PUSH1 0xE0 SHL DUP2 MSTORE PUSH1 0x4 ADD PUSH2 0x5B6 SWAP3 SWAP2 SWAP1 PUSH2 0x12FB JUMP JUMPDEST PUSH1 0x20 PUSH1 0x40 MLOAD DUP1 DUP4 SUB DUP2 PUSH0 DUP8 GAS CALL ISZERO DUP1 ISZERO PUSH2 0x5D2 JUMPI RETURNDATASIZE PUSH0 DUP1 RETURNDATACOPY RETURNDATASIZE PUSH0 REVERT JUMPDEST POP POP POP POP PUSH1 0x40 MLOAD RETURNDATASIZE PUSH1 0x1F NOT PUSH1 0x1F DUP3 ADD AND DUP3 ADD DUP1 PUSH1 0x40 MSTORE POP DUP2 ADD SWAP1 PUSH2 0x5F6 SWAP2 SWAP1 PUSH2 0x1353 JUMP JUMPDEST SWAP1 POP SWAP3 SWAP2 POP POP JUMP JUMPDEST PUSH2 0x607 DUP3 PUSH2 0x371 JUMP JUMPDEST PUSH2 0x610 DUP2 PUSH2 0x98D JUMP JUMPDEST PUSH2 0x61A DUP4 DUP4 PUSH2 0xA91 JUMP JUMPDEST POP POP POP POP JUMP JUMPDEST PUSH2 0x628 PUSH2 0xC3C JUMP JUMPDEST DUP3 DUP5 PUSH20 0xFFFFFFFFFFFFFFFFFFFFFFFFFFFFFFFFFFFFFFFF AND PUSH4 0x70A08231 CALLER PUSH1 0x40 MLOAD DUP3 PUSH4 0xFFFFFFFF AND PUSH1 0xE0 SHL DUP2 MSTORE PUSH1 0x4 ADD PUSH2 0x662 SWAP2 SWAP1 PUSH2 0x138D JUMP JUMPDEST PUSH1 0x20 PUSH1 0x40 MLOAD DUP1 DUP4 SUB DUP2 DUP7 GAS STATICCALL ISZERO DUP1 ISZERO PUSH2 0x67D JUMPI RETURNDATASIZE PUSH0 DUP1 RETURNDATACOPY RETURNDATASIZE PUSH0 REVERT JUMPDEST POP POP POP POP PUSH1 0x40 MLOAD RETURNDATASIZE PUSH1 0x1F NOT PUSH1 0x1F DUP3 ADD AND DUP3 ADD DUP1 PUSH1 0x40 MSTORE POP DUP2 ADD SWAP1 PUSH2 0x6A1 SWAP2 SWAP1 PUSH2 0x13BA JUMP JUMPDEST LT ISZERO PUSH2 0x6E2 JUMPI PUSH1 0x40 MLOAD PUSH32 0x8C379A000000000000000000000000000000000000000000000000000000000 DUP2 MSTORE PUSH1 0x4 ADD PUSH2 0x6D9 SWAP1 PUSH2 0x143F JUMP JUMPDEST PUSH1 0x40 MLOAD DUP1 SWAP2 SUB SWAP1 REVERT JUMPDEST DUP4 PUSH20 0xFFFFFFFFFFFFFFFFFFFFFFFFFFFFFFFFFFFFFFFF AND PUSH4 0x23B872DD CALLER ADDRESS DUP7 PUSH1 0x40 MLOAD DUP5 PUSH4 0xFFFFFFFF AND PUSH1 0xE0 SHL DUP2 MSTORE PUSH1 0x4 ADD PUSH2 0x71F SWAP4 SWAP3 SWAP2 SWAP1 PUSH2 0x146C JUMP JUMPDEST PUSH1 0x20 PUSH1 0x40 MLOAD DUP1 DUP4 SUB DUP2 PUSH0 DUP8 GAS CALL ISZERO DUP1 ISZERO PUSH2 0x73B JUMPI RETURNDATASIZE PUSH0 DUP1 RETURNDATACOPY RETURNDATASIZE PUSH0 REVERT JUMPDEST POP POP POP POP PUSH1 0x40 MLOAD RETURNDATASIZE PUSH1 0x1F NOT PUSH1 0x1F DUP3 ADD AND DUP3 ADD DUP1 PUSH1 0x40 MSTORE POP DUP2 ADD SWAP1 PUSH2 0x75F SWAP2 SWAP1 PUSH2 0x14CB JUMP JUMPDEST POP PUSH0 PUSH1 0x40 MLOAD DUP1 PUSH1 0x80 ADD PUSH1 0x40 MSTORE DUP1 DUP7 PUSH20 0xFFFFFFFFFFFFFFFFFFFFFFFFFFFFFFFFFFFFFFFF AND DUP2 MSTORE PUSH1 0x20 ADD DUP6 DUP2 MSTORE PUSH1 0x20 ADD DUP5 PUSH2 0xFFFF AND DUP2 MSTORE PUSH1 0x20 ADD DUP4 PUSH20 0xFFFFFFFFFFFFFFFFFFFFFFFFFFFFFFFFFFFFFFFF AND DUP2 MSTORE POP SWAP1 POP PUSH0 DUP1 PUSH2 0x7DF DUP4 PUSH1 0x40 MLOAD PUSH1 0x20 ADD PUSH2 0x7CA SWAP2 SWAP1 PUSH2 0x1576 JUMP JUMPDEST PUSH1 0x40 MLOAD PUSH1 0x20 DUP2 DUP4 SUB SUB DUP2 MSTORE SWAP1 PUSH1 0x40 MSTORE DUP4 PUSH2 0x55A JUMP JUMPDEST SWAP1 POP CALLER PUSH20 0xFFFFFFFFFFFFFFFFFFFFFFFFFFFFFFFFFFFFFFFF AND DUP8 PUSH20 0xFFFFFFFFFFFFFFFFFFFFFFFFFFFFFFFFFFFFFFFF AND PUSH32 0x728D3B43EE01977258CF271EF6081E347591E58D3DEF342DD415B7720B4F86BB DUP9 DUP9 DUP9 PUSH1 0x40 MLOAD PUSH2 0x842 SWAP4 SWAP3 SWAP2 SWAP1 PUSH2 0x159E JUMP JUMPDEST PUSH1 0x40 MLOAD DUP1 SWAP2 SUB SWAP1 LOG3 POP POP POP POP POP POP POP JUMP JUMPDEST PUSH1 0x2 PUSH0 SWAP1 SLOAD SWAP1 PUSH2 0x100 EXP SWAP1 DIV PUSH20 0xFFFFFFFFFFFFFFFFFFFFFFFFFFFFFFFFFFFFFFFF AND DUP2 JUMP JUMPDEST PUSH32 0xA49807205CE4D355092EF5A8A18F56E8913CF4A201FBE287825B095693C21775 PUSH2 0x8A2 DUP2 PUSH2 0x98D JUMP JUMPDEST DUP4 PUSH20 0xFFFFFFFFFFFFFFFFFFFFFFFFFFFFFFFFFFFFFFFF AND PUSH4 0xA9059CBB DUP4 DUP6 PUSH1 0x40 MLOAD DUP4 PUSH4 0xFFFFFFFF AND PUSH1 0xE0 SHL DUP2 MSTORE PUSH1 0x4 ADD PUSH2 0x8DD SWAP3 SWAP2 SWAP1 PUSH2 0x15D3 JUMP JUMPDEST PUSH1 0x20 PUSH1 0x40 MLOAD DUP1 DUP4 SUB DUP2 PUSH0 DUP8 GAS CALL ISZERO DUP1 ISZERO PUSH2 0x8F9 JUMPI RETURNDATASIZE PUSH0 DUP1 RETURNDATACOPY RETURNDATASIZE PUSH0 REVERT JUMPDEST POP POP POP POP PUSH1 0x40 MLOAD RETURNDATASIZE PUSH1 0x1F NOT PUSH1 0x1F DUP3 ADD AND DUP3 ADD DUP1 PUSH1 0x40 MSTORE POP DUP2 ADD SWAP1 PUSH2 0x91D SWAP2 SWAP1 PUSH2 0x14CB JUMP JUMPDEST POP POP POP POP POP JUMP JUMPDEST PUSH0 PUSH32 0x1FFC9A700000000000000000000000000000000000000000000000000000000 PUSH28 0xFFFFFFFFFFFFFFFFFFFFFFFFFFFFFFFFFFFFFFFFFFFFFFFFFFFFFFFF NOT AND DUP3 PUSH28 0xFFFFFFFFFFFFFFFFFFFFFFFFFFFFFFFFFFFFFFFFFFFFFFFFFFFFFFFF NOT AND EQ SWAP1 POP SWAP2 SWAP1 POP JUMP JUMPDEST PUSH2 0x99E DUP2 PUSH2 0x999 PUSH2 0xA8A JUMP JUMPDEST PUSH2 0xC7D JUMP JUMPDEST POP JUMP JUMPDEST PUSH0 PUSH2 0x9AC DUP4 DUP4 PUSH2 0x4F1 JUMP JUMPDEST PUSH2 0xA80 JUMPI PUSH1 0x1 PUSH0 DUP1 DUP6 DUP2 MSTORE PUSH1 0x20 ADD SWAP1 DUP2 MSTORE PUSH1 0x20 ADD PUSH0 KECCAK256 PUSH0 ADD PUSH0 DUP5 PUSH20 0xFFFFFFFFFFFFFFFFFFFFFFFFFFFFFFFFFFFFFFFF AND PUSH20 0xFFFFFFFFFFFFFFFFFFFFFFFFFFFFFFFFFFFFFFFF AND DUP2 MSTORE PUSH1 0x20 ADD SWAP1 DUP2 MSTORE PUSH1 0x20 ADD PUSH0 KECCAK256 PUSH0 PUSH2 0x100 EXP DUP2 SLOAD DUP2 PUSH1 0xFF MUL NOT AND SWAP1 DUP4 ISZERO ISZERO MUL OR SWAP1 SSTORE POP PUSH2 0xA1D PUSH2 0xA8A JUMP JUMPDEST PUSH20 0xFFFFFFFFFFFFFFFFFFFFFFFFFFFFFFFFFFFFFFFF AND DUP3 PUSH20 0xFFFFFFFFFFFFFFFFFFFFFFFFFFFFFFFFFFFFFFFF AND DUP5 PUSH32 0x2F8788117E7EFF1D82E926EC794901D17C78024A50270940304540A733656F0D PUSH1 0x40 MLOAD PUSH1 0x40 MLOAD DUP1 SWAP2 SUB SWAP1 LOG4 PUSH1 0x1 SWAP1 POP PUSH2 0xA84 JUMP JUMPDEST PUSH0 SWAP1 POP JUMPDEST SWAP3 SWAP2 POP POP JUMP JUMPDEST PUSH0 CALLER SWAP1 POP SWAP1 JUMP JUMPDEST PUSH0 PUSH2 0xA9C DUP4 DUP4 PUSH2 0x4F1 JUMP JUMPDEST ISZERO PUSH2 0xB70 JUMPI PUSH0 DUP1 PUSH0 DUP6 DUP2 MSTORE PUSH1 0x20 ADD SWAP1 DUP2 MSTORE PUSH1 0x20 ADD PUSH0 KECCAK256 PUSH0 ADD PUSH0 DUP5 PUSH20 0xFFFFFFFFFFFFFFFFFFFFFFFFFFFFFFFFFFFFFFFF AND PUSH20 0xFFFFFFFFFFFFFFFFFFFFFFFFFFFFFFFFFFFFFFFF AND DUP2 MSTORE PUSH1 0x20 ADD SWAP1 DUP2 MSTORE PUSH1 0x20 ADD PUSH0 KECCAK256 PUSH0 PUSH2 0x100 EXP DUP2 SLOAD DUP2 PUSH1 0xFF MUL NOT AND SWAP1 DUP4 ISZERO ISZERO MUL OR SWAP1 SSTORE POP PUSH2 0xB0D PUSH2 0xA8A JUMP JUMPDEST PUSH20 0xFFFFFFFFFFFFFFFFFFFFFFFFFFFFFFFFFFFFFFFF AND DUP3 PUSH20 0xFFFFFFFFFFFFFFFFFFFFFFFFFFFFFFFFFFFFFFFF AND DUP5 PUSH32 0xF6391F5C32D9C69D2A47EA670B442974B53935D1EDC7FD64EB21E047A839171B PUSH1 0x40 MLOAD PUSH1 0x40 MLOAD DUP1 SWAP2 SUB SWAP1 LOG4 PUSH1 0x1 SWAP1 POP PUSH2 0xB74 JUMP JUMPDEST PUSH0 SWAP1 POP JUMPDEST SWAP3 SWAP2 POP POP JUMP JUMPDEST PUSH2 0xB82 PUSH2 0xCCE JUMP JUMPDEST PUSH0 PUSH1 0x1 PUSH0 PUSH2 0x100 EXP DUP2 SLOAD DUP2 PUSH1 0xFF MUL NOT AND SWAP1 DUP4 ISZERO ISZERO MUL OR SWAP1 SSTORE POP PUSH32 0x5DB9EE0A495BF2E6FF9C91A7834C1BA4FDD244A5E8AA4E537BD38AEAE4B073AA PUSH2 0xBC4 PUSH2 0xA8A JUMP JUMPDEST PUSH1 0x40 MLOAD PUSH2 0xBD1 SWAP2 SWAP1 PUSH2 0x138D JUMP JUMPDEST PUSH1 0x40 MLOAD DUP1 SWAP2 SUB SWAP1 LOG1 JUMP JUMPDEST PUSH2 0xBE3 PUSH2 0xC3C JUMP JUMPDEST PUSH1 0x1 DUP1 PUSH0 PUSH2 0x100 EXP DUP2 SLOAD DUP2 PUSH1 0xFF MUL NOT AND SWAP1 DUP4 ISZERO ISZERO MUL OR SWAP1 SSTORE POP PUSH32 0x62E78CEA01BEE320CD4E420270B5EA74000D11B0C9F74754EBDBFC544B05A258 PUSH2 0xC25 PUSH2 0xA8A JUMP JUMPDEST PUSH1 0x40 MLOAD PUSH2 0xC32 SWAP2 SWAP1 PUSH2 0x138D JUMP JUMPDEST PUSH1 0x40 MLOAD DUP1 SWAP2 SUB SWAP1 LOG1 JUMP JUMPDEST PUSH2 0xC44 PUSH2 0x45F JUMP JUMPDEST ISZERO PUSH2 0xC7B JUMPI PUSH1 0x40 MLOAD PUSH32 0xD93C066500000000000000000000000000000000000000000000000000000000 DUP2 MSTORE PUSH1 0x4 ADD PUSH1 0x40 MLOAD DUP1 SWAP2 SUB SWAP1 REVERT JUMPDEST JUMP JUMPDEST PUSH2 0xC87 DUP3 DUP3 PUSH2 0x4F1 JUMP JUMPDEST PUSH2 0xCCA JUMPI DUP1 DUP3 PUSH1 0x40 MLOAD PUSH32 0xE2517D3F00000000000000000000000000000000000000000000000000000000 DUP2 MSTORE PUSH1 0x4 ADD PUSH2 0xCC1 SWAP3 SWAP2 SWAP1 PUSH2 0x15FA JUMP JUMPDEST PUSH1 0x40 MLOAD DUP1 SWAP2 SUB SWAP1 REVERT JUMPDEST POP POP JUMP JUMPDEST PUSH2 0xCD6 PUSH2 0x45F JUMP JUMPDEST PUSH2 0xD0C JUMPI PUSH1 0x40 MLOAD PUSH32 0x8DFC202B00000000000000000000000000000000000000000000000000000000 DUP2 MSTORE PUSH1 0x4 ADD PUSH1 0x40 MLOAD DUP1 SWAP2 SUB SWAP1 REVERT JUMPDEST JUMP JUMPDEST PUSH0 PUSH1 0x40 MLOAD SWAP1 POP SWAP1 JUMP JUMPDEST PUSH0 DUP1 REVERT JUMPDEST PUSH0 DUP1 REVERT JUMPDEST PUSH0 PUSH32 0xFFFFFFFF00000000000000000000000000000000000000000000000000000000 DUP3 AND SWAP1 POP SWAP2 SWAP1 POP JUMP JUMPDEST PUSH2 0xD53 DUP2 PUSH2 0xD1F JUMP JUMPDEST DUP2 EQ PUSH2 0xD5D JUMPI PUSH0 DUP1 REVERT JUMPDEST POP JUMP JUMPDEST PUSH0 DUP2 CALLDATALOAD SWAP1 POP PUSH2 0xD6E DUP2 PUSH2 0xD4A JUMP JUMPDEST SWAP3 SWAP2 POP POP JUMP JUMPDEST PUSH0 PUSH1 0x20 DUP3 DUP5 SUB SLT ISZERO PUSH2 0xD89 JUMPI PUSH2 0xD88 PUSH2 0xD17 JUMP JUMPDEST JUMPDEST PUSH0 PUSH2 0xD96 DUP5 DUP3 DUP6 ADD PUSH2 0xD60 JUMP JUMPDEST SWAP2 POP POP SWAP3 SWAP2 POP POP JUMP JUMPDEST PUSH0 DUP2 ISZERO ISZERO SWAP1 POP SWAP2 SWAP1 POP JUMP JUMPDEST PUSH2 0xDB3 DUP2 PUSH2 0xD9F JUMP JUMPDEST DUP3 MSTORE POP POP JUMP JUMPDEST PUSH0 PUSH1 0x20 DUP3 ADD SWAP1 POP PUSH2 0xDCC PUSH0 DUP4 ADD DUP5 PUSH2 0xDAA JUMP JUMPDEST SWAP3 SWAP2 POP POP JUMP JUMPDEST PUSH0 DUP2 SWAP1 POP SWAP2 SWAP1 POP JUMP JUMPDEST PUSH2 0xDE4 DUP2 PUSH2 0xDD2 JUMP JUMPDEST DUP2 EQ PUSH2 0xDEE JUMPI PUSH0 DUP1 REVERT JUMPDEST POP JUMP JUMPDEST PUSH0 DUP2 CALLDATALOAD SWAP1 POP PUSH2 0xDFF DUP2 PUSH2 0xDDB JUMP JUMPDEST SWAP3 SWAP2 POP POP JUMP JUMPDEST PUSH0 PUSH1 0x20 DUP3 DUP5 SUB SLT ISZERO PUSH2 0xE1A JUMPI PUSH2 0xE19 PUSH2 0xD17 JUMP JUMPDEST JUMPDEST PUSH0 PUSH2 0xE27 DUP5 DUP3 DUP6 ADD PUSH2 0xDF1 JUMP JUMPDEST SWAP2 POP POP SWAP3 SWAP2 POP POP JUMP JUMPDEST PUSH2 0xE39 DUP2 PUSH2 0xDD2 JUMP JUMPDEST DUP3 MSTORE POP POP JUMP JUMPDEST PUSH0 PUSH1 0x20 DUP3 ADD SWAP1 POP PUSH2 0xE52 PUSH0 DUP4 ADD DUP5 PUSH2 0xE30 JUMP JUMPDEST SWAP3 SWAP2 POP POP JUMP JUMPDEST PUSH0 PUSH20 0xFFFFFFFFFFFFFFFFFFFFFFFFFFFFFFFFFFFFFFFF DUP3 AND SWAP1 POP SWAP2 SWAP1 POP JUMP JUMPDEST PUSH0 PUSH2 0xE81 DUP3 PUSH2 0xE58 JUMP JUMPDEST SWAP1 POP SWAP2 SWAP1 POP JUMP JUMPDEST PUSH2 0xE91 DUP2 PUSH2 0xE77 JUMP JUMPDEST DUP2 EQ PUSH2 0xE9B JUMPI PUSH0 DUP1 REVERT JUMPDEST POP JUMP JUMPDEST PUSH0 DUP2 CALLDATALOAD SWAP1 POP PUSH2 0xEAC DUP2 PUSH2 0xE88 JUMP JUMPDEST SWAP3 SWAP2 POP POP JUMP JUMPDEST PUSH0 DUP1 PUSH1 0x40 DUP4 DUP6 SUB SLT ISZERO PUSH2 0xEC8 JUMPI PUSH2 0xEC7 PUSH2 0xD17 JUMP JUMPDEST JUMPDEST PUSH0 PUSH2 0xED5 DUP6 DUP3 DUP7 ADD PUSH2 0xDF1 JUMP JUMPDEST SWAP3 POP POP PUSH1 0x20 PUSH2 0xEE6 DUP6 DUP3 DUP7 ADD PUSH2 0xE9E JUMP JUMPDEST SWAP2 POP POP SWAP3 POP SWAP3 SWAP1 POP JUMP JUMPDEST PUSH0 DUP2 SWAP1 POP SWAP2 SWAP1 POP JUMP JUMPDEST PUSH0 PUSH2 0xF13 PUSH2 0xF0E PUSH2 0xF09 DUP5 PUSH2 0xE58 JUMP JUMPDEST PUSH2 0xEF0 JUMP JUMPDEST PUSH2 0xE58 JUMP JUMPDEST SWAP1 POP SWAP2 SWAP1 POP JUMP JUMPDEST PUSH0 PUSH2 0xF24 DUP3 PUSH2 0xEF9 JUMP JUMPDEST SWAP1 POP SWAP2 SWAP1 POP JUMP JUMPDEST PUSH0 PUSH2 0xF35 DUP3 PUSH2 0xF1A JUMP JUMPDEST SWAP1 POP SWAP2 SWAP1 POP JUMP JUMPDEST PUSH2 0xF45 DUP2 PUSH2 0xF2B JUMP JUMPDEST DUP3 MSTORE POP POP JUMP JUMPDEST PUSH0 PUSH1 0x20 DUP3 ADD SWAP1 POP PUSH2 0xF5E PUSH0 DUP4 ADD DUP5 PUSH2 0xF3C JUMP JUMPDEST SWAP3 SWAP2 POP POP JUMP JUMPDEST PUSH0 DUP1 REVERT JUMPDEST PUSH0 DUP1 REVERT JUMPDEST PUSH0 PUSH1 0x1F NOT PUSH1 0x1F DUP4 ADD AND SWAP1 POP SWAP2 SWAP1 POP JUMP JUMPDEST PUSH32 0x4E487B7100000000000000000000000000000000000000000000000000000000 PUSH0 MSTORE PUSH1 0x41 PUSH1 0x4 MSTORE PUSH1 0x24 PUSH0 REVERT JUMPDEST PUSH2 0xFB2 DUP3 PUSH2 0xF6C JUMP JUMPDEST DUP2 ADD DUP2 DUP2 LT PUSH8 0xFFFFFFFFFFFFFFFF DUP3 GT OR ISZERO PUSH2 0xFD1 JUMPI PUSH2 0xFD0 PUSH2 0xF7C JUMP JUMPDEST JUMPDEST DUP1 PUSH1 0x40 MSTORE POP POP POP JUMP JUMPDEST PUSH0 PUSH2 0xFE3 PUSH2 0xD0E JUMP JUMPDEST SWAP1 POP PUSH2 0xFEF DUP3 DUP3 PUSH2 0xFA9 JUMP JUMPDEST SWAP2 SWAP1 POP JUMP JUMPDEST PUSH0 PUSH8 0xFFFFFFFFFFFFFFFF DUP3 GT ISZERO PUSH2 0x100E JUMPI PUSH2 0x100D PUSH2 0xF7C JUMP JUMPDEST JUMPDEST PUSH2 0x1017 DUP3 PUSH2 0xF6C JUMP JUMPDEST SWAP1 POP PUSH1 0x20 DUP2 ADD SWAP1 POP SWAP2 SWAP1 POP JUMP JUMPDEST DUP3 DUP2 DUP4 CALLDATACOPY PUSH0 DUP4 DUP4 ADD MSTORE POP POP POP JUMP JUMPDEST PUSH0 PUSH2 0x1044 PUSH2 0x103F DUP5 PUSH2 0xFF4 JUMP JUMPDEST PUSH2 0xFDA JUMP JUMPDEST SWAP1 POP DUP3 DUP2 MSTORE PUSH1 0x20 DUP2 ADD DUP5 DUP5 DUP5 ADD GT ISZERO PUSH2 0x1060 JUMPI PUSH2 0x105F PUSH2 0xF68 JUMP JUMPDEST JUMPDEST PUSH2 0x106B DUP5 DUP3 DUP6 PUSH2 0x1024 JUMP JUMPDEST POP SWAP4 SWAP3 POP POP POP JUMP JUMPDEST PUSH0 DUP3 PUSH1 0x1F DUP4 ADD SLT PUSH2 0x1087 JUMPI PUSH2 0x1086 PUSH2 0xF64 JUMP JUMPDEST JUMPDEST DUP2 CALLDATALOAD PUSH2 0x1097 DUP5 DUP3 PUSH1 0x20 DUP7 ADD PUSH2 0x1032 JUMP JUMPDEST SWAP2 POP POP SWAP3 SWAP2 POP POP JUMP JUMPDEST PUSH0 PUSH4 0xFFFFFFFF DUP3 AND SWAP1 POP SWAP2 SWAP1 POP JUMP JUMPDEST PUSH2 0x10B8 DUP2 PUSH2 0x10A0 JUMP JUMPDEST DUP2 EQ PUSH2 0x10C2 JUMPI PUSH0 DUP1 REVERT JUMPDEST POP JUMP JUMPDEST PUSH0 DUP2 CALLDATALOAD SWAP1 POP PUSH2 0x10D3 DUP2 PUSH2 0x10AF JUMP JUMPDEST SWAP3 SWAP2 POP POP JUMP JUMPDEST PUSH0 DUP1 PUSH1 0x40 DUP4 DUP6 SUB SLT ISZERO PUSH2 0x10EF JUMPI PUSH2 0x10EE PUSH2 0xD17 JUMP JUMPDEST JUMPDEST PUSH0 DUP4 ADD CALLDATALOAD PUSH8 0xFFFFFFFFFFFFFFFF DUP2 GT ISZERO PUSH2 0x110C JUMPI PUSH2 0x110B PUSH2 0xD1B JUMP JUMPDEST JUMPDEST PUSH2 0x1118 DUP6 DUP3 DUP7 ADD PUSH2 0x1073 JUMP JUMPDEST SWAP3 POP POP PUSH1 0x20 PUSH2 0x1129 DUP6 DUP3 DUP7 ADD PUSH2 0x10C5 JUMP JUMPDEST SWAP2 POP POP SWAP3 POP SWAP3 SWAP1 POP JUMP JUMPDEST PUSH0 PUSH8 0xFFFFFFFFFFFFFFFF DUP3 AND SWAP1 POP SWAP2 SWAP1 POP JUMP JUMPDEST PUSH2 0x114F DUP2 PUSH2 0x1133 JUMP JUMPDEST DUP3 MSTORE POP POP JUMP JUMPDEST PUSH0 PUSH1 0x20 DUP3 ADD SWAP1 POP PUSH2 0x1168 PUSH0 DUP4 ADD DUP5 PUSH2 0x1146 JUMP JUMPDEST SWAP3 SWAP2 POP POP JUMP JUMPDEST PUSH0 DUP2 SWAP1 POP SWAP2 SWAP1 POP JUMP JUMPDEST PUSH2 0x1180 DUP2 PUSH2 0x116E JUMP JUMPDEST DUP2 EQ PUSH2 0x118A JUMPI PUSH0 DUP1 REVERT JUMPDEST POP JUMP JUMPDEST PUSH0 DUP2 CALLDATALOAD SWAP1 POP PUSH2 0x119B DUP2 PUSH2 0x1177 JUMP JUMPDEST SWAP3 SWAP2 POP POP JUMP JUMPDEST PUSH0 PUSH2 0xFFFF DUP3 AND SWAP1 POP SWAP2 SWAP1 POP JUMP JUMPDEST PUSH2 0x11B7 DUP2 PUSH2 0x11A1 JUMP JUMPDEST DUP2 EQ PUSH2 0x11C1 JUMPI PUSH0 DUP1 REVERT JUMPDEST POP JUMP JUMPDEST PUSH0 DUP2 CALLDATALOAD SWAP1 POP PUSH2 0x11D2 DUP2 PUSH2 0x11AE JUMP JUMPDEST SWAP3 SWAP2 POP POP JUMP JUMPDEST PUSH0 DUP1 PUSH0 DUP1 PUSH1 0x80 DUP6 DUP8 SUB SLT ISZERO PUSH2 0x11F0 JUMPI PUSH2 0x11EF PUSH2 0xD17 JUMP JUMPDEST JUMPDEST PUSH0 PUSH2 0x11FD DUP8 DUP3 DUP9 ADD PUSH2 0xE9E JUMP JUMPDEST SWAP5 POP POP PUSH1 0x20 PUSH2 0x120E DUP8 DUP3 DUP9 ADD PUSH2 0x118D JUMP JUMPDEST SWAP4 POP POP PUSH1 0x40 PUSH2 0x121F DUP8 DUP3 DUP9 ADD PUSH2 0x11C4 JUMP JUMPDEST SWAP3 POP POP PUSH1 0x60 PUSH2 0x1230 DUP8 DUP3 DUP9 ADD PUSH2 0xE9E JUMP JUMPDEST SWAP2 POP POP SWAP3 SWAP6 SWAP2 SWAP5 POP SWAP3 POP JUMP JUMPDEST PUSH0 DUP1 PUSH0 PUSH1 0x60 DUP5 DUP7 SUB SLT ISZERO PUSH2 0x1253 JUMPI PUSH2 0x1252 PUSH2 0xD17 JUMP JUMPDEST JUMPDEST PUSH0 PUSH2 0x1260 DUP7 DUP3 DUP8 ADD PUSH2 0xE9E JUMP JUMPDEST SWAP4 POP POP PUSH1 0x20 PUSH2 0x1271 DUP7 DUP3 DUP8 ADD PUSH2 0x118D JUMP JUMPDEST SWAP3 POP POP PUSH1 0x40 PUSH2 0x1282 DUP7 DUP3 DUP8 ADD PUSH2 0xE9E JUMP JUMPDEST SWAP2 POP POP SWAP3 POP SWAP3 POP SWAP3 JUMP JUMPDEST PUSH0 DUP2 MLOAD SWAP1 POP SWAP2 SWAP1 POP JUMP JUMPDEST PUSH0 DUP3 DUP3 MSTORE PUSH1 0x20 DUP3 ADD SWAP1 POP SWAP3 SWAP2 POP POP JUMP JUMPDEST DUP3 DUP2 DUP4 MCOPY PUSH0 DUP4 DUP4 ADD MSTORE POP POP POP JUMP JUMPDEST PUSH0 PUSH2 0x12BE DUP3 PUSH2 0x128C JUMP JUMPDEST PUSH2 0x12C8 DUP2 DUP6 PUSH2 0x1296 JUMP JUMPDEST SWAP4 POP PUSH2 0x12D8 DUP2 DUP6 PUSH1 0x20 DUP7 ADD PUSH2 0x12A6 JUMP JUMPDEST PUSH2 0x12E1 DUP2 PUSH2 0xF6C JUMP JUMPDEST DUP5 ADD SWAP2 POP POP SWAP3 SWAP2 POP POP JUMP JUMPDEST PUSH2 0x12F5 DUP2 PUSH2 0x10A0 JUMP JUMPDEST DUP3 MSTORE POP POP JUMP JUMPDEST PUSH0 PUSH1 0x40 DUP3 ADD SWAP1 POP DUP2 DUP2 SUB PUSH0 DUP4 ADD MSTORE PUSH2 0x1313 DUP2 DUP6 PUSH2 0x12B4 JUMP JUMPDEST SWAP1 POP PUSH2 0x1322 PUSH1 0x20 DUP4 ADD DUP5 PUSH2 0x12EC JUMP JUMPDEST SWAP4 SWAP3 POP POP POP JUMP JUMPDEST PUSH2 0x1332 DUP2 PUSH2 0x1133 JUMP JUMPDEST DUP2 EQ PUSH2 0x133C JUMPI PUSH0 DUP1 REVERT JUMPDEST POP JUMP JUMPDEST PUSH0 DUP2 MLOAD SWAP1 POP PUSH2 0x134D DUP2 PUSH2 0x1329 JUMP JUMPDEST SWAP3 SWAP2 POP POP JUMP JUMPDEST PUSH0 PUSH1 0x20 DUP3 DUP5 SUB SLT ISZERO PUSH2 0x1368 JUMPI PUSH2 0x1367 PUSH2 0xD17 JUMP JUMPDEST JUMPDEST PUSH0 PUSH2 0x1375 DUP5 DUP3 DUP6 ADD PUSH2 0x133F JUMP JUMPDEST SWAP2 POP POP SWAP3 SWAP2 POP POP JUMP JUMPDEST PUSH2 0x1387 DUP2 PUSH2 0xE77 JUMP JUMPDEST DUP3 MSTORE POP POP JUMP JUMPDEST PUSH0 PUSH1 0x20 DUP3 ADD SWAP1 POP PUSH2 0x13A0 PUSH0 DUP4 ADD DUP5 PUSH2 0x137E JUMP JUMPDEST SWAP3 SWAP2 POP POP JUMP JUMPDEST PUSH0 DUP2 MLOAD SWAP1 POP PUSH2 0x13B4 DUP2 PUSH2 0x1177 JUMP JUMPDEST SWAP3 SWAP2 POP POP JUMP JUMPDEST PUSH0 PUSH1 0x20 DUP3 DUP5 SUB SLT ISZERO PUSH2 0x13CF JUMPI PUSH2 0x13CE PUSH2 0xD17 JUMP JUMPDEST JUMPDEST PUSH0 PUSH2 0x13DC DUP5 DUP3 DUP6 ADD PUSH2 0x13A6 JUMP JUMPDEST SWAP2 POP POP SWAP3 SWAP2 POP POP JUMP JUMPDEST PUSH0 DUP3 DUP3 MSTORE PUSH1 0x20 DUP3 ADD SWAP1 POP SWAP3 SWAP2 POP POP JUMP JUMPDEST PUSH32 0x496E73756666696369656E742062616C616E6365000000000000000000000000 PUSH0 DUP3 ADD MSTORE POP JUMP JUMPDEST PUSH0 PUSH2 0x1429 PUSH1 0x14 DUP4 PUSH2 0x13E5 JUMP JUMPDEST SWAP2 POP PUSH2 0x1434 DUP3 PUSH2 0x13F5 JUMP JUMPDEST PUSH1 0x20 DUP3 ADD SWAP1 POP SWAP2 SWAP1 POP JUMP JUMPDEST PUSH0 PUSH1 0x20 DUP3 ADD SWAP1 POP DUP2 DUP2 SUB PUSH0 DUP4 ADD MSTORE PUSH2 0x1456 DUP2 PUSH2 0x141D JUMP JUMPDEST SWAP1 POP SWAP2 SWAP1 POP JUMP JUMPDEST PUSH2 0x1466 DUP2 PUSH2 0x116E JUMP JUMPDEST DUP3 MSTORE POP POP JUMP JUMPDEST PUSH0 PUSH1 0x60 DUP3 ADD SWAP1 POP PUSH2 0x147F PUSH0 DUP4 ADD DUP7 PUSH2 0x137E JUMP JUMPDEST PUSH2 0x148C PUSH1 0x20 DUP4 ADD DUP6 PUSH2 0x137E JUMP JUMPDEST PUSH2 0x1499 PUSH1 0x40 DUP4 ADD DUP5 PUSH2 0x145D JUMP JUMPDEST SWAP5 SWAP4 POP POP POP POP JUMP JUMPDEST PUSH2 0x14AA DUP2 PUSH2 0xD9F JUMP JUMPDEST DUP2 EQ PUSH2 0x14B4 JUMPI PUSH0 DUP1 REVERT JUMPDEST POP JUMP JUMPDEST PUSH0 DUP2 MLOAD SWAP1 POP PUSH2 0x14C5 DUP2 PUSH2 0x14A1 JUMP JUMPDEST SWAP3 SWAP2 POP POP JUMP JUMPDEST PUSH0 PUSH1 0x20 DUP3 DUP5 SUB SLT ISZERO PUSH2 0x14E0 JUMPI PUSH2 0x14DF PUSH2 0xD17 JUMP JUMPDEST JUMPDEST PUSH0 PUSH2 0x14ED DUP5 DUP3 DUP6 ADD PUSH2 0x14B7 JUMP JUMPDEST SWAP2 POP POP SWAP3 SWAP2 POP POP JUMP JUMPDEST PUSH2 0x14FF DUP2 PUSH2 0xE77 JUMP JUMPDEST DUP3 MSTORE POP POP JUMP JUMPDEST PUSH2 0x150E DUP2 PUSH2 0x116E JUMP JUMPDEST DUP3 MSTORE POP POP JUMP JUMPDEST PUSH2 0x151D DUP2 PUSH2 0x11A1 JUMP JUMPDEST DUP3 MSTORE POP POP JUMP JUMPDEST PUSH1 0x80 DUP3 ADD PUSH0 DUP3 ADD MLOAD PUSH2 0x1537 PUSH0 DUP6 ADD DUP3 PUSH2 0x14F6 JUMP JUMPDEST POP PUSH1 0x20 DUP3 ADD MLOAD PUSH2 0x154A PUSH1 0x20 DUP6 ADD DUP3 PUSH2 0x1505 JUMP JUMPDEST POP PUSH1 0x40 DUP3 ADD MLOAD PUSH2 0x155D PUSH1 0x40 DUP6 ADD DUP3 PUSH2 0x1514 JUMP JUMPDEST POP PUSH1 0x60 DUP3 ADD MLOAD PUSH2 0x1570 PUSH1 0x60 DUP6 ADD DUP3 PUSH2 0x14F6 JUMP JUMPDEST POP POP POP POP JUMP JUMPDEST PUSH0 PUSH1 0x80 DUP3 ADD SWAP1 POP PUSH2 0x1589 PUSH0 DUP4 ADD DUP5 PUSH2 0x1523 JUMP JUMPDEST SWAP3 SWAP2 POP POP JUMP JUMPDEST PUSH2 0x1598 DUP2 PUSH2 0x11A1 JUMP JUMPDEST DUP3 MSTORE POP POP JUMP JUMPDEST PUSH0 PUSH1 0x60 DUP3 ADD SWAP1 POP PUSH2 0x15B1 PUSH0 DUP4 ADD DUP7 PUSH2 0x145D JUMP JUMPDEST PUSH2 0x15BE PUSH1 0x20 DUP4 ADD DUP6 PUSH2 0x158F JUMP JUMPDEST PUSH2 0x15CB PUSH1 0x40 DUP4 ADD DUP5 PUSH2 0x137E JUMP JUMPDEST SWAP5 SWAP4 POP POP POP POP JUMP JUMPDEST PUSH0 PUSH1 0x40 DUP3 ADD SWAP1 POP PUSH2 0x15E6 PUSH0 DUP4 ADD DUP6 PUSH2 0x137E JUMP JUMPDEST PUSH2 0x15F3 PUSH1 0x20 DUP4 ADD DUP5 PUSH2 0x145D JUMP JUMPDEST SWAP4 SWAP3 POP POP POP JUMP JUMPDEST PUSH0 PUSH1 0x40 DUP3 ADD SWAP1 POP PUSH2 0x160D PUSH0 DUP4 ADD DUP6 PUSH2 0x137E JUMP JUMPDEST PUSH2 0x161A PUSH1 0x20 DUP4 ADD DUP5 PUSH2 0xE30 JUMP JUMPDEST SWAP4 SWAP3 POP POP POP JUMP INVALID LOG2 PUSH5 0x6970667358 0x22 SLT KECCAK256 0x22 PUSH18 0x234B24FDEF94DA7B1EA853B7BDEB7FB79958 0xBF 0xAA 0xD9 PUSH29 0x1F572A3D089CFEA964736F6C634300081A003300000000000000000000 "
				},
				"gasEstimates": {
					"creation": {
						"codeDepositCost": "1143800",
						"executionCost": "infinite",
						"totalCost": "infinite"
					},
					"external": {
						"ADMIN_ROLE()": "392",
						"DEFAULT_ADMIN_ROLE()": "397",
						"bridgeTokens(address,uint256,uint16,address)": "infinite",
						"getRoleAdmin(bytes32)": "infinite",
						"grantRole(bytes32,address)": "infinite",
						"hasRole(bytes32,address)": "3167",
						"pause()": "infinite",
						"paused()": "2518",
						"receiveTokens(address,uint256,address)": "infinite",
						"renounceRole(bytes32,address)": "infinite",
						"revokeRole(bytes32,address)": "infinite",
						"sendMessageToWormhole(bytes,uint32)": "infinite",
						"supportsInterface(bytes4)": "741",
						"unpause()": "infinite",
						"wormhole()": "infinite",
						"wormholeTokenBridge()": "infinite"
					}
				},
				"methodIdentifiers": {
					"ADMIN_ROLE()": "75b238fc",
					"DEFAULT_ADMIN_ROLE()": "a217fddf",
					"bridgeTokens(address,uint256,uint16,address)": "e9162e8f",
					"getRoleAdmin(bytes32)": "248a9ca3",
					"grantRole(bytes32,address)": "2f2ff15d",
					"hasRole(bytes32,address)": "91d14854",
					"pause()": "8456cb59",
					"paused()": "5c975abb",
					"receiveTokens(address,uint256,address)": "f6b5a2e3",
					"renounceRole(bytes32,address)": "36568abe",
					"revokeRole(bytes32,address)": "d547741f",
					"sendMessageToWormhole(bytes,uint32)": "ae866708",
					"supportsInterface(bytes4)": "01ffc9a7",
					"unpause()": "3f4ba83a",
					"wormhole()": "84acd1bb",
					"wormholeTokenBridge()": "f11df69d"
				}
			},
			"storageLayout": {
				"storage": [
					{
						"astId": 26,
						"contract": "bridges/WormholeBridge.sol:WormholeBridge",
						"label": "_roles",
						"offset": 0,
						"slot": "0",
						"type": "t_mapping(t_bytes32,t_struct(RoleData)21_storage)"
					},
					{
						"astId": 573,
						"contract": "bridges/WormholeBridge.sol:WormholeBridge",
						"label": "_paused",
						"offset": 0,
						"slot": "1",
						"type": "t_bool"
					},
					{
						"astId": 4103,
						"contract": "bridges/WormholeBridge.sol:WormholeBridge",
						"label": "wormhole",
						"offset": 1,
						"slot": "1",
						"type": "t_contract(IWormhole)4459"
					},
					{
						"astId": 4142,
						"contract": "bridges/WormholeBridge.sol:WormholeBridge",
						"label": "wormholeTokenBridge",
						"offset": 0,
						"slot": "2",
						"type": "t_contract(IWormhole)4459"
					}
				],
				"types": {
					"t_address": {
						"encoding": "inplace",
						"label": "address",
						"numberOfBytes": "20"
					},
					"t_bool": {
						"encoding": "inplace",
						"label": "bool",
						"numberOfBytes": "1"
					},
					"t_bytes32": {
						"encoding": "inplace",
						"label": "bytes32",
						"numberOfBytes": "32"
					},
					"t_contract(IWormhole)4459": {
						"encoding": "inplace",
						"label": "contract IWormhole",
						"numberOfBytes": "20"
					},
					"t_mapping(t_address,t_bool)": {
						"encoding": "mapping",
						"key": "t_address",
						"label": "mapping(address => bool)",
						"numberOfBytes": "32",
						"value": "t_bool"
					},
					"t_mapping(t_bytes32,t_struct(RoleData)21_storage)": {
						"encoding": "mapping",
						"key": "t_bytes32",
						"label": "mapping(bytes32 => struct AccessControl.RoleData)",
						"numberOfBytes": "32",
						"value": "t_struct(RoleData)21_storage"
					},
					"t_struct(RoleData)21_storage": {
						"encoding": "inplace",
						"label": "struct AccessControl.RoleData",
						"members": [
							{
								"astId": 18,
								"contract": "bridges/WormholeBridge.sol:WormholeBridge",
								"label": "hasRole",
								"offset": 0,
								"slot": "0",
								"type": "t_mapping(t_address,t_bool)"
							},
							{
								"astId": 20,
								"contract": "bridges/WormholeBridge.sol:WormholeBridge",
								"label": "adminRole",
								"offset": 0,
								"slot": "1",
								"type": "t_bytes32"
							}
						],
						"numberOfBytes": "64"
					}
				}
			},
			"userdoc": {
				"kind": "user",
				"methods": {},
				"version": 1
			}
		}
	}
}