{
	"bittorrent/BitTorrentIntegration.sol": {
		"BitTorrentIntegration": {
			"abi": [
				{
					"inputs": [
						{
							"internalType": "address",
							"name": "_verifier",
							"type": "address"
						}
					],
					"stateMutability": "nonpayable",
					"type": "constructor"
				},
				{
					"inputs": [],
					"name": "AccessControlBadConfirmation",
					"type": "error"
				},
				{
					"inputs": [
						{
							"internalType": "address",
							"name": "account",
							"type": "address"
						},
						{
							"internalType": "bytes32",
							"name": "neededRole",
							"type": "bytes32"
						}
					],
					"name": "AccessControlUnauthorizedAccount",
					"type": "error"
				},
				{
					"inputs": [],
					"name": "EnforcedPause",
					"type": "error"
				},
				{
					"inputs": [],
					"name": "ExpectedPause",
					"type": "error"
				},
				{
					"inputs": [],
					"name": "ReentrancyGuardReentrantCall",
					"type": "error"
				},
				{
					"anonymous": false,
					"inputs": [
						{
							"indexed": false,
							"internalType": "address",
							"name": "account",
							"type": "address"
						}
					],
					"name": "Paused",
					"type": "event"
				},
				{
					"anonymous": false,
					"inputs": [
						{
							"indexed": true,
							"internalType": "bytes32",
							"name": "role",
							"type": "bytes32"
						},
						{
							"indexed": true,
							"internalType": "bytes32",
							"name": "previousAdminRole",
							"type": "bytes32"
						},
						{
							"indexed": true,
							"internalType": "bytes32",
							"name": "newAdminRole",
							"type": "bytes32"
						}
					],
					"name": "RoleAdminChanged",
					"type": "event"
				},
				{
					"anonymous": false,
					"inputs": [
						{
							"indexed": true,
							"internalType": "bytes32",
							"name": "role",
							"type": "bytes32"
						},
						{
							"indexed": true,
							"internalType": "address",
							"name": "account",
							"type": "address"
						},
						{
							"indexed": true,
							"internalType": "address",
							"name": "sender",
							"type": "address"
						}
					],
					"name": "RoleGranted",
					"type": "event"
				},
				{
					"anonymous": false,
					"inputs": [
						{
							"indexed": true,
							"internalType": "bytes32",
							"name": "role",
							"type": "bytes32"
						},
						{
							"indexed": true,
							"internalType": "address",
							"name": "account",
							"type": "address"
						},
						{
							"indexed": true,
							"internalType": "address",
							"name": "sender",
							"type": "address"
						}
					],
					"name": "RoleRevoked",
					"type": "event"
				},
				{
					"anonymous": false,
					"inputs": [
						{
							"indexed": true,
							"internalType": "bytes32",
							"name": "torrentHash",
							"type": "bytes32"
						},
						{
							"indexed": true,
							"internalType": "address",
							"name": "peer",
							"type": "address"
						}
					],
					"name": "SwarmJoined",
					"type": "event"
				},
				{
					"anonymous": false,
					"inputs": [
						{
							"indexed": true,
							"internalType": "bytes32",
							"name": "torrentHash",
							"type": "bytes32"
						},
						{
							"indexed": true,
							"internalType": "address",
							"name": "peer",
							"type": "address"
						}
					],
					"name": "SwarmLeft",
					"type": "event"
				},
				{
					"anonymous": false,
					"inputs": [
						{
							"indexed": true,
							"internalType": "bytes32",
							"name": "torrentHash",
							"type": "bytes32"
						},
						{
							"indexed": true,
							"internalType": "address",
							"name": "owner",
							"type": "address"
						}
					],
					"name": "TorrentAdded",
					"type": "event"
				},
				{
					"anonymous": false,
					"inputs": [
						{
							"indexed": true,
							"internalType": "bytes32",
							"name": "torrentHash",
							"type": "bytes32"
						},
						{
							"indexed": true,
							"internalType": "address",
							"name": "remover",
							"type": "address"
						}
					],
					"name": "TorrentRemoved",
					"type": "event"
				},
				{
					"anonymous": false,
					"inputs": [
						{
							"indexed": false,
							"internalType": "address",
							"name": "account",
							"type": "address"
						}
					],
					"name": "Unpaused",
					"type": "event"
				},
				{
					"inputs": [],
					"name": "DEFAULT_ADMIN_ROLE",
					"outputs": [
						{
							"internalType": "bytes32",
							"name": "",
							"type": "bytes32"
						}
					],
					"stateMutability": "view",
					"type": "function"
				},
				{
					"inputs": [],
					"name": "OPERATOR_ROLE",
					"outputs": [
						{
							"internalType": "bytes32",
							"name": "",
							"type": "bytes32"
						}
					],
					"stateMutability": "view",
					"type": "function"
				},
				{
					"inputs": [
						{
							"internalType": "bytes32",
							"name": "torrentHash",
							"type": "bytes32"
						},
						{
							"internalType": "bytes",
							"name": "metadata",
							"type": "bytes"
						}
					],
					"name": "addTorrent",
					"outputs": [],
					"stateMutability": "nonpayable",
					"type": "function"
				},
				{
					"inputs": [
						{
							"internalType": "bytes32",
							"name": "role",
							"type": "bytes32"
						}
					],
					"name": "getRoleAdmin",
					"outputs": [
						{
							"internalType": "bytes32",
							"name": "",
							"type": "bytes32"
						}
					],
					"stateMutability": "view",
					"type": "function"
				},
				{
					"inputs": [
						{
							"internalType": "bytes32",
							"name": "torrentHash",
							"type": "bytes32"
						}
					],
					"name": "getSwarmPeers",
					"outputs": [
						{
							"internalType": "address[]",
							"name": "",
							"type": "address[]"
						}
					],
					"stateMutability": "view",
					"type": "function"
				},
				{
					"inputs": [
						{
							"internalType": "bytes32",
							"name": "torrentHash",
							"type": "bytes32"
						}
					],
					"name": "getTorrentMetadata",
					"outputs": [
						{
							"internalType": "bytes",
							"name": "",
							"type": "bytes"
						}
					],
					"stateMutability": "view",
					"type": "function"
				},
				{
					"inputs": [
						{
							"internalType": "bytes32",
							"name": "role",
							"type": "bytes32"
						},
						{
							"internalType": "address",
							"name": "account",
							"type": "address"
						}
					],
					"name": "grantRole",
					"outputs": [],
					"stateMutability": "nonpayable",
					"type": "function"
				},
				{
					"inputs": [
						{
							"internalType": "bytes32",
							"name": "role",
							"type": "bytes32"
						},
						{
							"internalType": "address",
							"name": "account",
							"type": "address"
						}
					],
					"name": "hasRole",
					"outputs": [
						{
							"internalType": "bool",
							"name": "",
							"type": "bool"
						}
					],
					"stateMutability": "view",
					"type": "function"
				},
				{
					"inputs": [
						{
							"internalType": "bytes32",
							"name": "torrentHash",
							"type": "bytes32"
						},
						{
							"internalType": "address",
							"name": "peer",
							"type": "address"
						}
					],
					"name": "isPeerInSwarm",
					"outputs": [
						{
							"internalType": "bool",
							"name": "",
							"type": "bool"
						}
					],
					"stateMutability": "view",
					"type": "function"
				},
				{
					"inputs": [
						{
							"internalType": "bytes32",
							"name": "torrentHash",
							"type": "bytes32"
						}
					],
					"name": "joinSwarm",
					"outputs": [],
					"stateMutability": "nonpayable",
					"type": "function"
				},
				{
					"inputs": [
						{
							"internalType": "bytes32",
							"name": "torrentHash",
							"type": "bytes32"
						}
					],
					"name": "leaveSwarm",
					"outputs": [],
					"stateMutability": "nonpayable",
					"type": "function"
				},
				{
					"inputs": [],
					"name": "pause",
					"outputs": [],
					"stateMutability": "nonpayable",
					"type": "function"
				},
				{
					"inputs": [],
					"name": "paused",
					"outputs": [
						{
							"internalType": "bool",
							"name": "",
							"type": "bool"
						}
					],
					"stateMutability": "view",
					"type": "function"
				},
				{
					"inputs": [
						{
							"internalType": "bytes32",
							"name": "torrentHash",
							"type": "bytes32"
						}
					],
					"name": "removeTorrent",
					"outputs": [],
					"stateMutability": "nonpayable",
					"type": "function"
				},
				{
					"inputs": [
						{
							"internalType": "bytes32",
							"name": "role",
							"type": "bytes32"
						},
						{
							"internalType": "address",
							"name": "callerConfirmation",
							"type": "address"
						}
					],
					"name": "renounceRole",
					"outputs": [],
					"stateMutability": "nonpayable",
					"type": "function"
				},
				{
					"inputs": [
						{
							"internalType": "bytes32",
							"name": "role",
							"type": "bytes32"
						},
						{
							"internalType": "address",
							"name": "account",
							"type": "address"
						}
					],
					"name": "revokeRole",
					"outputs": [],
					"stateMutability": "nonpayable",
					"type": "function"
				},
				{
					"inputs": [
						{
							"internalType": "bytes4",
							"name": "interfaceId",
							"type": "bytes4"
						}
					],
					"name": "supportsInterface",
					"outputs": [
						{
							"internalType": "bool",
							"name": "",
							"type": "bool"
						}
					],
					"stateMutability": "view",
					"type": "function"
				},
				{
					"inputs": [],
					"name": "unpause",
					"outputs": [],
					"stateMutability": "nonpayable",
					"type": "function"
				},
				{
					"inputs": [
						{
							"internalType": "address",
							"name": "_verifier",
							"type": "address"
						}
					],
					"name": "updateVerifier",
					"outputs": [],
					"stateMutability": "nonpayable",
					"type": "function"
				},
				{
					"inputs": [],
					"name": "verifier",
					"outputs": [
						{
							"internalType": "contract IVerifier",
							"name": "",
							"type": "address"
						}
					],
					"stateMutability": "view",
					"type": "function"
				}
			],
			"devdoc": {
				"errors": {
					"AccessControlBadConfirmation()": [
						{
							"details": "The caller of a function is not the expected one. NOTE: Don't confuse with {AccessControlUnauthorizedAccount}."
						}
					],
					"AccessControlUnauthorizedAccount(address,bytes32)": [
						{
							"details": "The `account` is missing a role."
						}
					],
					"EnforcedPause()": [
						{
							"details": "The operation failed because the contract is paused."
						}
					],
					"ExpectedPause()": [
						{
							"details": "The operation failed because the contract is not paused."
						}
					],
					"ReentrancyGuardReentrantCall()": [
						{
							"details": "Unauthorized reentrant call."
						}
					]
				},
				"events": {
					"Paused(address)": {
						"details": "Emitted when the pause is triggered by `account`."
					},
					"RoleAdminChanged(bytes32,bytes32,bytes32)": {
						"details": "Emitted when `newAdminRole` is set as ``role``'s admin role, replacing `previousAdminRole` `DEFAULT_ADMIN_ROLE` is the starting admin for all roles, despite {RoleAdminChanged} not being emitted signaling this."
					},
					"RoleGranted(bytes32,address,address)": {
						"details": "Emitted when `account` is granted `role`. `sender` is the account that originated the contract call. This account bears the admin role (for the granted role). Expected in cases where the role was granted using the internal {AccessControl-_grantRole}."
					},
					"RoleRevoked(bytes32,address,address)": {
						"details": "Emitted when `account` is revoked `role`. `sender` is the account that originated the contract call:   - if using `revokeRole`, it is the admin role bearer   - if using `renounceRole`, it is the role bearer (i.e. `account`)"
					},
					"Unpaused(address)": {
						"details": "Emitted when the pause is lifted by `account`."
					}
				},
				"kind": "dev",
				"methods": {
					"getRoleAdmin(bytes32)": {
						"details": "Returns the admin role that controls `role`. See {grantRole} and {revokeRole}. To change a role's admin, use {_setRoleAdmin}."
					},
					"grantRole(bytes32,address)": {
						"details": "Grants `role` to `account`. If `account` had not been already granted `role`, emits a {RoleGranted} event. Requirements: - the caller must have ``role``'s admin role. May emit a {RoleGranted} event."
					},
					"hasRole(bytes32,address)": {
						"details": "Returns `true` if `account` has been granted `role`."
					},
					"paused()": {
						"details": "Returns true if the contract is paused, and false otherwise."
					},
					"renounceRole(bytes32,address)": {
						"details": "Revokes `role` from the calling account. Roles are often managed via {grantRole} and {revokeRole}: this function's purpose is to provide a mechanism for accounts to lose their privileges if they are compromised (such as when a trusted device is misplaced). If the calling account had been revoked `role`, emits a {RoleRevoked} event. Requirements: - the caller must be `callerConfirmation`. May emit a {RoleRevoked} event."
					},
					"revokeRole(bytes32,address)": {
						"details": "Revokes `role` from `account`. If `account` had been granted `role`, emits a {RoleRevoked} event. Requirements: - the caller must have ``role``'s admin role. May emit a {RoleRevoked} event."
					},
					"supportsInterface(bytes4)": {
						"details": "See {IERC165-supportsInterface}."
					}
				},
				"version": 1
			},
			"evm": {
				"assembly": "    /* \"bittorrent/BitTorrentIntegration.sol\":309:4601  contract BitTorrentIntegration is IBitTorrent, AccessControl, Pausable, ReentrancyGuard {... */\n  mstore(0x40, 0x80)\n    /* \"bittorrent/BitTorrentIntegration.sol\":752:930  constructor(address _verifier) {... */\n  callvalue\n  dup1\n  iszero\n  tag_1\n  jumpi\n  0x00\n  dup1\n  revert\ntag_1:\n  pop\n  mload(0x40)\n  sub(codesize, bytecodeSize)\n  dup1\n  bytecodeSize\n  dup4\n  codecopy\n  dup2\n  dup2\n  add\n  0x40\n  mstore\n  dup2\n  add\n  swap1\n  tag_2\n  swap2\n  swap1\n  tag_3\n  jump\t// in\ntag_2:\n    /* \"@openzeppelin/contracts/utils/Pausable.sol\":1241:1246  false */\n  0x00\n    /* \"@openzeppelin/contracts/utils/Pausable.sol\":1231:1238  _paused */\n  0x01\n  0x00\n    /* \"@openzeppelin/contracts/utils/Pausable.sol\":1231:1246  _paused = false */\n  0x0100\n  exp\n  dup2\n  sload\n  dup2\n  0xff\n  mul\n  not\n  and\n  swap1\n  dup4\n  iszero\n  iszero\n  mul\n  or\n  swap1\n  sstore\n  pop\n    /* \"@openzeppelin/contracts/utils/ReentrancyGuard.sol\":1857:1858  1 */\n  0x01\n    /* \"@openzeppelin/contracts/utils/ReentrancyGuard.sol\":2061:2068  _status */\n  0x02\n    /* \"@openzeppelin/contracts/utils/ReentrancyGuard.sol\":2061:2082  _status = NOT_ENTERED */\n  dup2\n  swap1\n  sstore\n  pop\n    /* \"bittorrent/BitTorrentIntegration.sol\":793:835  _grantRole(DEFAULT_ADMIN_ROLE, msg.sender) */\n  tag_10\n    /* \"@openzeppelin/contracts/access/AccessControl.sol\":2232:2236  0x00 */\n  0x00\n    /* \"bittorrent/BitTorrentIntegration.sol\":804:822  DEFAULT_ADMIN_ROLE */\n  dup1\n  shl\n    /* \"bittorrent/BitTorrentIntegration.sol\":824:834  msg.sender */\n  caller\n    /* \"bittorrent/BitTorrentIntegration.sol\":793:803  _grantRole */\n  shl(0x20, tag_11)\n    /* \"bittorrent/BitTorrentIntegration.sol\":793:835  _grantRole(DEFAULT_ADMIN_ROLE, msg.sender) */\n  0x20\n  shr\n  jump\t// in\ntag_10:\n  pop\n    /* \"bittorrent/BitTorrentIntegration.sol\":845:882  _grantRole(OPERATOR_ROLE, msg.sender) */\n  tag_12\n    /* \"bittorrent/BitTorrentIntegration.sol\":443:469  keccak256(\"OPERATOR_ROLE\") */\n  0x97667070c54ef182b0f5858b034beac1b6f3089aa2d3188bb1e8929f4fa9b929\n    /* \"bittorrent/BitTorrentIntegration.sol\":871:881  msg.sender */\n  caller\n    /* \"bittorrent/BitTorrentIntegration.sol\":845:855  _grantRole */\n  shl(0x20, tag_11)\n    /* \"bittorrent/BitTorrentIntegration.sol\":845:882  _grantRole(OPERATOR_ROLE, msg.sender) */\n  0x20\n  shr\n  jump\t// in\ntag_12:\n  pop\n    /* \"bittorrent/BitTorrentIntegration.sol\":913:922  _verifier */\n  dup1\n    /* \"bittorrent/BitTorrentIntegration.sol\":892:900  verifier */\n  0x03\n  0x00\n    /* \"bittorrent/BitTorrentIntegration.sol\":892:923  verifier = IVerifier(_verifier) */\n  0x0100\n  exp\n  dup2\n  sload\n  dup2\n  0xffffffffffffffffffffffffffffffffffffffff\n  mul\n  not\n  and\n  swap1\n  dup4\n  0xffffffffffffffffffffffffffffffffffffffff\n  and\n  mul\n  or\n  swap1\n  sstore\n  pop\n    /* \"bittorrent/BitTorrentIntegration.sol\":752:930  constructor(address _verifier) {... */\n  pop\n    /* \"bittorrent/BitTorrentIntegration.sol\":309:4601  contract BitTorrentIntegration is IBitTorrent, AccessControl, Pausable, ReentrancyGuard {... */\n  jump(tag_13)\n    /* \"@openzeppelin/contracts/access/AccessControl.sol\":6179:6495  function _grantRole(bytes32 role, address account) internal virtual returns (bool) {... */\ntag_11:\n    /* \"@openzeppelin/contracts/access/AccessControl.sol\":6256:6260  bool */\n  0x00\n    /* \"@openzeppelin/contracts/access/AccessControl.sol\":6277:6299  hasRole(role, account) */\n  tag_15\n    /* \"@openzeppelin/contracts/access/AccessControl.sol\":6285:6289  role */\n  dup4\n    /* \"@openzeppelin/contracts/access/AccessControl.sol\":6291:6298  account */\n  dup4\n    /* \"@openzeppelin/contracts/access/AccessControl.sol\":6277:6284  hasRole */\n  shl(0x20, tag_16)\n    /* \"@openzeppelin/contracts/access/AccessControl.sol\":6277:6299  hasRole(role, account) */\n  0x20\n  shr\n  jump\t// in\ntag_15:\n    /* \"@openzeppelin/contracts/access/AccessControl.sol\":6272:6489  if (!hasRole(role, account)) {... */\n  tag_17\n  jumpi\n    /* \"@openzeppelin/contracts/access/AccessControl.sol\":6347:6351  true */\n  0x01\n    /* \"@openzeppelin/contracts/access/AccessControl.sol\":6315:6321  _roles */\n  0x00\n    /* \"@openzeppelin/contracts/access/AccessControl.sol\":6315:6327  _roles[role] */\n  dup1\n    /* \"@openzeppelin/contracts/access/AccessControl.sol\":6322:6326  role */\n  dup6\n    /* \"@openzeppelin/contracts/access/AccessControl.sol\":6315:6327  _roles[role] */\n  dup2\n  mstore\n  0x20\n  add\n  swap1\n  dup2\n  mstore\n  0x20\n  add\n  0x00\n  keccak256\n    /* \"@openzeppelin/contracts/access/AccessControl.sol\":6315:6335  _roles[role].hasRole */\n  0x00\n  add\n    /* \"@openzeppelin/contracts/access/AccessControl.sol\":6315:6344  _roles[role].hasRole[account] */\n  0x00\n    /* \"@openzeppelin/contracts/access/AccessControl.sol\":6336:6343  account */\n  dup5\n    /* \"@openzeppelin/contracts/access/AccessControl.sol\":6315:6344  _roles[role].hasRole[account] */\n  0xffffffffffffffffffffffffffffffffffffffff\n  and\n  0xffffffffffffffffffffffffffffffffffffffff\n  and\n  dup2\n  mstore\n  0x20\n  add\n  swap1\n  dup2\n  mstore\n  0x20\n  add\n  0x00\n  keccak256\n  0x00\n    /* \"@openzeppelin/contracts/access/AccessControl.sol\":6315:6351  _roles[role].hasRole[account] = true */\n  0x0100\n  exp\n  dup2\n  sload\n  dup2\n  0xff\n  mul\n  not\n  and\n  swap1\n  dup4\n  iszero\n  iszero\n  mul\n  or\n  swap1\n  sstore\n  pop\n    /* \"@openzeppelin/contracts/access/AccessControl.sol\":6397:6409  _msgSender() */\n  tag_18\n    /* \"@openzeppelin/contracts/access/AccessControl.sol\":6397:6407  _msgSender */\n  shl(0x20, tag_19)\n    /* \"@openzeppelin/contracts/access/AccessControl.sol\":6397:6409  _msgSender() */\n  0x20\n  shr\n  jump\t// in\ntag_18:\n    /* \"@openzeppelin/contracts/access/AccessControl.sol\":6370:6410  RoleGranted(role, account, _msgSender()) */\n  0xffffffffffffffffffffffffffffffffffffffff\n  and\n    /* \"@openzeppelin/contracts/access/AccessControl.sol\":6388:6395  account */\n  dup3\n    /* \"@openzeppelin/contracts/access/AccessControl.sol\":6370:6410  RoleGranted(role, account, _msgSender()) */\n  0xffffffffffffffffffffffffffffffffffffffff\n  and\n    /* \"@openzeppelin/contracts/access/AccessControl.sol\":6382:6386  role */\n  dup5\n    /* \"@openzeppelin/contracts/access/AccessControl.sol\":6370:6410  RoleGranted(role, account, _msgSender()) */\n  0x2f8788117e7eff1d82e926ec794901d17c78024a50270940304540a733656f0d\n  mload(0x40)\n  mload(0x40)\n  dup1\n  swap2\n  sub\n  swap1\n  log4\n    /* \"@openzeppelin/contracts/access/AccessControl.sol\":6431:6435  true */\n  0x01\n    /* \"@openzeppelin/contracts/access/AccessControl.sol\":6424:6435  return true */\n  swap1\n  pop\n  jump(tag_14)\n    /* \"@openzeppelin/contracts/access/AccessControl.sol\":6272:6489  if (!hasRole(role, account)) {... */\ntag_17:\n    /* \"@openzeppelin/contracts/access/AccessControl.sol\":6473:6478  false */\n  0x00\n    /* \"@openzeppelin/contracts/access/AccessControl.sol\":6466:6478  return false */\n  swap1\n  pop\n    /* \"@openzeppelin/contracts/access/AccessControl.sol\":6179:6495  function _grantRole(bytes32 role, address account) internal virtual returns (bool) {... */\ntag_14:\n  swap3\n  swap2\n  pop\n  pop\n  jump\t// out\n    /* \"@openzeppelin/contracts/access/AccessControl.sol\":2854:2990  function hasRole(bytes32 role, address account) public view virtual returns (bool) {... */\ntag_16:\n    /* \"@openzeppelin/contracts/access/AccessControl.sol\":2931:2935  bool */\n  0x00\n    /* \"@openzeppelin/contracts/access/AccessControl.sol\":2954:2960  _roles */\n  dup1\n    /* \"@openzeppelin/contracts/access/AccessControl.sol\":2954:2966  _roles[role] */\n  0x00\n    /* \"@openzeppelin/contracts/access/AccessControl.sol\":2961:2965  role */\n  dup5\n    /* \"@openzeppelin/contracts/access/AccessControl.sol\":2954:2966  _roles[role] */\n  dup2\n  mstore\n  0x20\n  add\n  swap1\n  dup2\n  mstore\n  0x20\n  add\n  0x00\n  keccak256\n    /* \"@openzeppelin/contracts/access/AccessControl.sol\":2954:2974  _roles[role].hasRole */\n  0x00\n  add\n    /* \"@openzeppelin/contracts/access/AccessControl.sol\":2954:2983  _roles[role].hasRole[account] */\n  0x00\n    /* \"@openzeppelin/contracts/access/AccessControl.sol\":2975:2982  account */\n  dup4\n    /* \"@openzeppelin/contracts/access/AccessControl.sol\":2954:2983  _roles[role].hasRole[account] */\n  0xffffffffffffffffffffffffffffffffffffffff\n  and\n  0xffffffffffffffffffffffffffffffffffffffff\n  and\n  dup2\n  mstore\n  0x20\n  add\n  swap1\n  dup2\n  mstore\n  0x20\n  add\n  0x00\n  keccak256\n  0x00\n  swap1\n  sload\n  swap1\n  0x0100\n  exp\n  swap1\n  div\n  0xff\n  and\n    /* \"@openzeppelin/contracts/access/AccessControl.sol\":2947:2983  return _roles[role].hasRole[account] */\n  swap1\n  pop\n    /* \"@openzeppelin/contracts/access/AccessControl.sol\":2854:2990  function hasRole(bytes32 role, address account) public view virtual returns (bool) {... */\n  swap3\n  swap2\n  pop\n  pop\n  jump\t// out\n    /* \"@openzeppelin/contracts/utils/Context.sol\":656:752  function _msgSender() internal view virtual returns (address) {... */\ntag_19:\n    /* \"@openzeppelin/contracts/utils/Context.sol\":709:716  address */\n  0x00\n    /* \"@openzeppelin/contracts/utils/Context.sol\":735:745  msg.sender */\n  caller\n    /* \"@openzeppelin/contracts/utils/Context.sol\":728:745  return msg.sender */\n  swap1\n  pop\n    /* \"@openzeppelin/contracts/utils/Context.sol\":656:752  function _msgSender() internal view virtual returns (address) {... */\n  swap1\n  jump\t// out\n    /* \"#utility.yul\":88:205   */\ntag_24:\n    /* \"#utility.yul\":197:198   */\n  0x00\n    /* \"#utility.yul\":194:195   */\n  dup1\n    /* \"#utility.yul\":187:199   */\n  revert\n    /* \"#utility.yul\":334:460   */\ntag_26:\n    /* \"#utility.yul\":371:378   */\n  0x00\n    /* \"#utility.yul\":411:453   */\n  0xffffffffffffffffffffffffffffffffffffffff\n    /* \"#utility.yul\":404:409   */\n  dup3\n    /* \"#utility.yul\":400:454   */\n  and\n    /* \"#utility.yul\":389:454   */\n  swap1\n  pop\n    /* \"#utility.yul\":334:460   */\n  swap2\n  swap1\n  pop\n  jump\t// out\n    /* \"#utility.yul\":466:562   */\ntag_27:\n    /* \"#utility.yul\":503:510   */\n  0x00\n    /* \"#utility.yul\":532:556   */\n  tag_36\n    /* \"#utility.yul\":550:555   */\n  dup3\n    /* \"#utility.yul\":532:556   */\n  tag_26\n  jump\t// in\ntag_36:\n    /* \"#utility.yul\":521:556   */\n  swap1\n  pop\n    /* \"#utility.yul\":466:562   */\n  swap2\n  swap1\n  pop\n  jump\t// out\n    /* \"#utility.yul\":568:690   */\ntag_28:\n    /* \"#utility.yul\":641:665   */\n  tag_38\n    /* \"#utility.yul\":659:664   */\n  dup2\n    /* \"#utility.yul\":641:665   */\n  tag_27\n  jump\t// in\ntag_38:\n    /* \"#utility.yul\":634:639   */\n  dup2\n    /* \"#utility.yul\":631:666   */\n  eq\n    /* \"#utility.yul\":621:684   */\n  tag_39\n  jumpi\n    /* \"#utility.yul\":680:681   */\n  0x00\n    /* \"#utility.yul\":677:678   */\n  dup1\n    /* \"#utility.yul\":670:682   */\n  revert\n    /* \"#utility.yul\":621:684   */\ntag_39:\n    /* \"#utility.yul\":568:690   */\n  pop\n  jump\t// out\n    /* \"#utility.yul\":696:839   */\ntag_29:\n    /* \"#utility.yul\":753:758   */\n  0x00\n    /* \"#utility.yul\":784:790   */\n  dup2\n    /* \"#utility.yul\":778:791   */\n  mload\n    /* \"#utility.yul\":769:791   */\n  swap1\n  pop\n    /* \"#utility.yul\":800:833   */\n  tag_41\n    /* \"#utility.yul\":827:832   */\n  dup2\n    /* \"#utility.yul\":800:833   */\n  tag_28\n  jump\t// in\ntag_41:\n    /* \"#utility.yul\":696:839   */\n  swap3\n  swap2\n  pop\n  pop\n  jump\t// out\n    /* \"#utility.yul\":845:1196   */\ntag_3:\n    /* \"#utility.yul\":915:921   */\n  0x00\n    /* \"#utility.yul\":964:966   */\n  0x20\n    /* \"#utility.yul\":952:961   */\n  dup3\n    /* \"#utility.yul\":943:950   */\n  dup5\n    /* \"#utility.yul\":939:962   */\n  sub\n    /* \"#utility.yul\":935:967   */\n  slt\n    /* \"#utility.yul\":932:1051   */\n  iszero\n  tag_43\n  jumpi\n    /* \"#utility.yul\":970:1049   */\n  tag_44\n  tag_24\n  jump\t// in\ntag_44:\n    /* \"#utility.yul\":932:1051   */\ntag_43:\n    /* \"#utility.yul\":1090:1091   */\n  0x00\n    /* \"#utility.yul\":1115:1179   */\n  tag_45\n    /* \"#utility.yul\":1171:1178   */\n  dup5\n    /* \"#utility.yul\":1162:1168   */\n  dup3\n    /* \"#utility.yul\":1151:1160   */\n  dup6\n    /* \"#utility.yul\":1147:1169   */\n  add\n    /* \"#utility.yul\":1115:1179   */\n  tag_29\n  jump\t// in\ntag_45:\n    /* \"#utility.yul\":1105:1179   */\n  swap2\n  pop\n    /* \"#utility.yul\":1061:1189   */\n  pop\n    /* \"#utility.yul\":845:1196   */\n  swap3\n  swap2\n  pop\n  pop\n  jump\t// out\n    /* \"bittorrent/BitTorrentIntegration.sol\":309:4601  contract BitTorrentIntegration is IBitTorrent, AccessControl, Pausable, ReentrancyGuard {... */\ntag_13:\n  dataSize(sub_0)\n  dup1\n  dataOffset(sub_0)\n  0x00\n  codecopy\n  0x00\n  return\nstop\n\nsub_0: assembly {\n        /* \"bittorrent/BitTorrentIntegration.sol\":309:4601  contract BitTorrentIntegration is IBitTorrent, AccessControl, Pausable, ReentrancyGuard {... */\n      mstore(0x40, 0x80)\n      callvalue\n      dup1\n      iszero\n      tag_1\n      jumpi\n      0x00\n      dup1\n      revert\n    tag_1:\n      pop\n      jumpi(tag_2, lt(calldatasize, 0x04))\n      shr(0xe0, calldataload(0x00))\n      dup1\n      0x8456cb59\n      gt\n      tag_23\n      jumpi\n      dup1\n      0x9a5e71c2\n      gt\n      tag_24\n      jumpi\n      dup1\n      0x9a5e71c2\n      eq\n      tag_18\n      jumpi\n      dup1\n      0xa217fddf\n      eq\n      tag_19\n      jumpi\n      dup1\n      0xc7aa2f1e\n      eq\n      tag_20\n      jumpi\n      dup1\n      0xd547741f\n      eq\n      tag_21\n      jumpi\n      dup1\n      0xf5b541a6\n      eq\n      tag_22\n      jumpi\n      jump(tag_2)\n    tag_24:\n      dup1\n      0x8456cb59\n      eq\n      tag_13\n      jumpi\n      dup1\n      0x85a80265\n      eq\n      tag_14\n      jumpi\n      dup1\n      0x91d14854\n      eq\n      tag_15\n      jumpi\n      dup1\n      0x97ab3501\n      eq\n      tag_16\n      jumpi\n      dup1\n      0x97fc007c\n      eq\n      tag_17\n      jumpi\n      jump(tag_2)\n    tag_23:\n      dup1\n      0x36568abe\n      gt\n      tag_25\n      jumpi\n      dup1\n      0x36568abe\n      eq\n      tag_8\n      jumpi\n      dup1\n      0x3d2babf2\n      eq\n      tag_9\n      jumpi\n      dup1\n      0x3f4ba83a\n      eq\n      tag_10\n      jumpi\n      dup1\n      0x5c975abb\n      eq\n      tag_11\n      jumpi\n      dup1\n      0x675fd3e6\n      eq\n      tag_12\n      jumpi\n      jump(tag_2)\n    tag_25:\n      dup1\n      0x01ffc9a7\n      eq\n      tag_3\n      jumpi\n      dup1\n      0x1a26edb5\n      eq\n      tag_4\n      jumpi\n      dup1\n      0x248a9ca3\n      eq\n      tag_5\n      jumpi\n      dup1\n      0x2b7ac3f3\n      eq\n      tag_6\n      jumpi\n      dup1\n      0x2f2ff15d\n      eq\n      tag_7\n      jumpi\n    tag_2:\n      0x00\n      dup1\n      revert\n        /* \"@openzeppelin/contracts/access/AccessControl.sol\":2565:2767  function supportsInterface(bytes4 interfaceId) public view virtual override returns (bool) {... */\n    tag_3:\n      tag_26\n      0x04\n      dup1\n      calldatasize\n      sub\n      dup2\n      add\n      swap1\n      tag_27\n      swap2\n      swap1\n      tag_28\n      jump\t// in\n    tag_27:\n      tag_29\n      jump\t// in\n    tag_26:\n      mload(0x40)\n      tag_30\n      swap2\n      swap1\n      tag_31\n      jump\t// in\n    tag_30:\n      mload(0x40)\n      dup1\n      swap2\n      sub\n      swap1\n      return\n        /* \"bittorrent/BitTorrentIntegration.sol\":2950:3132  function getSwarmPeers(bytes32 torrentHash) ... */\n    tag_4:\n      tag_32\n      0x04\n      dup1\n      calldatasize\n      sub\n      dup2\n      add\n      swap1\n      tag_33\n      swap2\n      swap1\n      tag_34\n      jump\t// in\n    tag_33:\n      tag_35\n      jump\t// in\n    tag_32:\n      mload(0x40)\n      tag_36\n      swap2\n      swap1\n      tag_37\n      jump\t// in\n    tag_36:\n      mload(0x40)\n      dup1\n      swap2\n      sub\n      swap1\n      return\n        /* \"@openzeppelin/contracts/access/AccessControl.sol\":3810:3930  function getRoleAdmin(bytes32 role) public view virtual returns (bytes32) {... */\n    tag_5:\n      tag_38\n      0x04\n      dup1\n      calldatasize\n      sub\n      dup2\n      add\n      swap1\n      tag_39\n      swap2\n      swap1\n      tag_34\n      jump\t// in\n    tag_39:\n      tag_40\n      jump\t// in\n    tag_38:\n      mload(0x40)\n      tag_41\n      swap2\n      swap1\n      tag_42\n      jump\t// in\n    tag_41:\n      mload(0x40)\n      dup1\n      swap2\n      sub\n      swap1\n      return\n        /* \"bittorrent/BitTorrentIntegration.sol\":516:541  IVerifier public verifier */\n    tag_6:\n      tag_43\n      tag_44\n      jump\t// in\n    tag_43:\n      mload(0x40)\n      tag_45\n      swap2\n      swap1\n      tag_46\n      jump\t// in\n    tag_45:\n      mload(0x40)\n      dup1\n      swap2\n      sub\n      swap1\n      return\n        /* \"@openzeppelin/contracts/access/AccessControl.sol\":4226:4362  function grantRole(bytes32 role, address account) public virtual onlyRole(getRoleAdmin(role)) {... */\n    tag_7:\n      tag_47\n      0x04\n      dup1\n      calldatasize\n      sub\n      dup2\n      add\n      swap1\n      tag_48\n      swap2\n      swap1\n      tag_49\n      jump\t// in\n    tag_48:\n      tag_50\n      jump\t// in\n    tag_47:\n      stop\n        /* \"@openzeppelin/contracts/access/AccessControl.sol\":5328:5573  function renounceRole(bytes32 role, address callerConfirmation) public virtual {... */\n    tag_8:\n      tag_51\n      0x04\n      dup1\n      calldatasize\n      sub\n      dup2\n      add\n      swap1\n      tag_52\n      swap2\n      swap1\n      tag_49\n      jump\t// in\n    tag_52:\n      tag_53\n      jump\t// in\n    tag_51:\n      stop\n        /* \"bittorrent/BitTorrentIntegration.sol\":3185:3379  function isPeerInSwarm(bytes32 torrentHash, address peer) ... */\n    tag_9:\n      tag_54\n      0x04\n      dup1\n      calldatasize\n      sub\n      dup2\n      add\n      swap1\n      tag_55\n      swap2\n      swap1\n      tag_49\n      jump\t// in\n    tag_55:\n      tag_56\n      jump\t// in\n    tag_54:\n      mload(0x40)\n      tag_57\n      swap2\n      swap1\n      tag_31\n      jump\t// in\n    tag_57:\n      mload(0x40)\n      dup1\n      swap2\n      sub\n      swap1\n      return\n        /* \"bittorrent/BitTorrentIntegration.sol\":4515:4599  function unpause() external onlyRole(DEFAULT_ADMIN_ROLE) {... */\n    tag_10:\n      tag_58\n      tag_59\n      jump\t// in\n    tag_58:\n      stop\n        /* \"@openzeppelin/contracts/utils/Pausable.sol\":1850:1934  function paused() public view virtual returns (bool) {... */\n    tag_11:\n      tag_60\n      tag_61\n      jump\t// in\n    tag_60:\n      mload(0x40)\n      tag_62\n      swap2\n      swap1\n      tag_31\n      jump\t// in\n    tag_62:\n      mload(0x40)\n      dup1\n      swap2\n      sub\n      swap1\n      return\n        /* \"bittorrent/BitTorrentIntegration.sol\":1444:1915  function joinSwarm(bytes32 torrentHash) ... */\n    tag_12:\n      tag_63\n      0x04\n      dup1\n      calldatasize\n      sub\n      dup2\n      add\n      swap1\n      tag_64\n      swap2\n      swap1\n      tag_34\n      jump\t// in\n    tag_64:\n      tag_65\n      jump\t// in\n    tag_63:\n      stop\n        /* \"bittorrent/BitTorrentIntegration.sol\":4429:4509  function pause() external onlyRole(DEFAULT_ADMIN_ROLE) {... */\n    tag_13:\n      tag_66\n      tag_67\n      jump\t// in\n    tag_66:\n      stop\n        /* \"bittorrent/BitTorrentIntegration.sol\":983:1391  function addTorrent(bytes32 torrentHash, bytes memory metadata) ... */\n    tag_14:\n      tag_68\n      0x04\n      dup1\n      calldatasize\n      sub\n      dup2\n      add\n      swap1\n      tag_69\n      swap2\n      swap1\n      tag_70\n      jump\t// in\n    tag_69:\n      tag_71\n      jump\t// in\n    tag_68:\n      stop\n        /* \"@openzeppelin/contracts/access/AccessControl.sol\":2854:2990  function hasRole(bytes32 role, address account) public view virtual returns (bool) {... */\n    tag_15:\n      tag_72\n      0x04\n      dup1\n      calldatasize\n      sub\n      dup2\n      add\n      swap1\n      tag_73\n      swap2\n      swap1\n      tag_49\n      jump\t// in\n    tag_73:\n      tag_74\n      jump\t// in\n    tag_72:\n      mload(0x40)\n      tag_75\n      swap2\n      swap1\n      tag_31\n      jump\t// in\n    tag_75:\n      mload(0x40)\n      dup1\n      swap2\n      sub\n      swap1\n      return\n        /* \"bittorrent/BitTorrentIntegration.sol\":3432:3793  function removeTorrent(bytes32 torrentHash) ... */\n    tag_16:\n      tag_76\n      0x04\n      dup1\n      calldatasize\n      sub\n      dup2\n      add\n      swap1\n      tag_77\n      swap2\n      swap1\n      tag_34\n      jump\t// in\n    tag_77:\n      tag_78\n      jump\t// in\n    tag_76:\n      stop\n        /* \"bittorrent/BitTorrentIntegration.sol\":4204:4423  function updateVerifier(address _verifier)... */\n    tag_17:\n      tag_79\n      0x04\n      dup1\n      calldatasize\n      sub\n      dup2\n      add\n      swap1\n      tag_80\n      swap2\n      swap1\n      tag_81\n      jump\t// in\n    tag_80:\n      tag_82\n      jump\t// in\n    tag_79:\n      stop\n        /* \"bittorrent/BitTorrentIntegration.sol\":1968:2656  function leaveSwarm(bytes32 torrentHash) ... */\n    tag_18:\n      tag_83\n      0x04\n      dup1\n      calldatasize\n      sub\n      dup2\n      add\n      swap1\n      tag_84\n      swap2\n      swap1\n      tag_34\n      jump\t// in\n    tag_84:\n      tag_85\n      jump\t// in\n    tag_83:\n      stop\n        /* \"@openzeppelin/contracts/access/AccessControl.sol\":2187:2236  bytes32 public constant DEFAULT_ADMIN_ROLE = 0x00 */\n    tag_19:\n      tag_86\n      tag_87\n      jump\t// in\n    tag_86:\n      mload(0x40)\n      tag_88\n      swap2\n      swap1\n      tag_42\n      jump\t// in\n    tag_88:\n      mload(0x40)\n      dup1\n      swap2\n      sub\n      swap1\n      return\n        /* \"bittorrent/BitTorrentIntegration.sol\":2709:2897  function getTorrentMetadata(bytes32 torrentHash) ... */\n    tag_20:\n      tag_89\n      0x04\n      dup1\n      calldatasize\n      sub\n      dup2\n      add\n      swap1\n      tag_90\n      swap2\n      swap1\n      tag_34\n      jump\t// in\n    tag_90:\n      tag_91\n      jump\t// in\n    tag_89:\n      mload(0x40)\n      tag_92\n      swap2\n      swap1\n      tag_93\n      jump\t// in\n    tag_92:\n      mload(0x40)\n      dup1\n      swap2\n      sub\n      swap1\n      return\n        /* \"@openzeppelin/contracts/access/AccessControl.sol\":4642:4780  function revokeRole(bytes32 role, address account) public virtual onlyRole(getRoleAdmin(role)) {... */\n    tag_21:\n      tag_94\n      0x04\n      dup1\n      calldatasize\n      sub\n      dup2\n      add\n      swap1\n      tag_95\n      swap2\n      swap1\n      tag_49\n      jump\t// in\n    tag_95:\n      tag_96\n      jump\t// in\n    tag_94:\n      stop\n        /* \"bittorrent/BitTorrentIntegration.sol\":403:469  bytes32 public constant OPERATOR_ROLE = keccak256(\"OPERATOR_ROLE\") */\n    tag_22:\n      tag_97\n      tag_98\n      jump\t// in\n    tag_97:\n      mload(0x40)\n      tag_99\n      swap2\n      swap1\n      tag_42\n      jump\t// in\n    tag_99:\n      mload(0x40)\n      dup1\n      swap2\n      sub\n      swap1\n      return\n        /* \"@openzeppelin/contracts/access/AccessControl.sol\":2565:2767  function supportsInterface(bytes4 interfaceId) public view virtual override returns (bool) {... */\n    tag_29:\n        /* \"@openzeppelin/contracts/access/AccessControl.sol\":2650:2654  bool */\n      0x00\n        /* \"@openzeppelin/contracts/access/AccessControl.sol\":2688:2720  type(IAccessControl).interfaceId */\n      0x7965db0b00000000000000000000000000000000000000000000000000000000\n        /* \"@openzeppelin/contracts/access/AccessControl.sol\":2673:2720  interfaceId == type(IAccessControl).interfaceId */\n      not(0xffffffffffffffffffffffffffffffffffffffffffffffffffffffff)\n      and\n        /* \"@openzeppelin/contracts/access/AccessControl.sol\":2673:2684  interfaceId */\n      dup3\n        /* \"@openzeppelin/contracts/access/AccessControl.sol\":2673:2720  interfaceId == type(IAccessControl).interfaceId */\n      not(0xffffffffffffffffffffffffffffffffffffffffffffffffffffffff)\n      and\n      eq\n        /* \"@openzeppelin/contracts/access/AccessControl.sol\":2673:2760  interfaceId == type(IAccessControl).interfaceId || super.supportsInterface(interfaceId) */\n      dup1\n      tag_101\n      jumpi\n      pop\n        /* \"@openzeppelin/contracts/access/AccessControl.sol\":2724:2760  super.supportsInterface(interfaceId) */\n      tag_102\n        /* \"@openzeppelin/contracts/access/AccessControl.sol\":2748:2759  interfaceId */\n      dup3\n        /* \"@openzeppelin/contracts/access/AccessControl.sol\":2724:2747  super.supportsInterface */\n      tag_103\n        /* \"@openzeppelin/contracts/access/AccessControl.sol\":2724:2760  super.supportsInterface(interfaceId) */\n      jump\t// in\n    tag_102:\n        /* \"@openzeppelin/contracts/access/AccessControl.sol\":2673:2760  interfaceId == type(IAccessControl).interfaceId || super.supportsInterface(interfaceId) */\n    tag_101:\n        /* \"@openzeppelin/contracts/access/AccessControl.sol\":2666:2760  return interfaceId == type(IAccessControl).interfaceId || super.supportsInterface(interfaceId) */\n      swap1\n      pop\n        /* \"@openzeppelin/contracts/access/AccessControl.sol\":2565:2767  function supportsInterface(bytes4 interfaceId) public view virtual override returns (bool) {... */\n      swap2\n      swap1\n      pop\n      jump\t// out\n        /* \"bittorrent/BitTorrentIntegration.sol\":2950:3132  function getSwarmPeers(bytes32 torrentHash) ... */\n    tag_35:\n        /* \"bittorrent/BitTorrentIntegration.sol\":3062:3078  address[] memory */\n      0x60\n        /* \"bittorrent/BitTorrentIntegration.sol\":3102:3112  swarmPeers */\n      0x04\n        /* \"bittorrent/BitTorrentIntegration.sol\":3102:3125  swarmPeers[torrentHash] */\n      0x00\n        /* \"bittorrent/BitTorrentIntegration.sol\":3113:3124  torrentHash */\n      dup4\n        /* \"bittorrent/BitTorrentIntegration.sol\":3102:3125  swarmPeers[torrentHash] */\n      dup2\n      mstore\n      0x20\n      add\n      swap1\n      dup2\n      mstore\n      0x20\n      add\n      0x00\n      keccak256\n        /* \"bittorrent/BitTorrentIntegration.sol\":3095:3125  return swarmPeers[torrentHash] */\n      dup1\n      sload\n      dup1\n      0x20\n      mul\n      0x20\n      add\n      mload(0x40)\n      swap1\n      dup2\n      add\n      0x40\n      mstore\n      dup1\n      swap3\n      swap2\n      swap1\n      dup2\n      dup2\n      mstore\n      0x20\n      add\n      dup3\n      dup1\n      sload\n      dup1\n      iszero\n      tag_105\n      jumpi\n      0x20\n      mul\n      dup3\n      add\n      swap2\n      swap1\n      0x00\n      mstore\n      keccak256(0x00, 0x20)\n      swap1\n    tag_106:\n      dup2\n      0x00\n      swap1\n      sload\n      swap1\n      0x0100\n      exp\n      swap1\n      div\n      0xffffffffffffffffffffffffffffffffffffffff\n      and\n      0xffffffffffffffffffffffffffffffffffffffff\n      and\n      dup2\n      mstore\n      0x20\n      add\n      swap1\n      0x01\n      add\n      swap1\n      dup1\n      dup4\n      gt\n      tag_106\n      jumpi\n    tag_105:\n      pop\n      pop\n      pop\n      pop\n      pop\n      swap1\n      pop\n        /* \"bittorrent/BitTorrentIntegration.sol\":2950:3132  function getSwarmPeers(bytes32 torrentHash) ... */\n      swap2\n      swap1\n      pop\n      jump\t// out\n        /* \"@openzeppelin/contracts/access/AccessControl.sol\":3810:3930  function getRoleAdmin(bytes32 role) public view virtual returns (bytes32) {... */\n    tag_40:\n        /* \"@openzeppelin/contracts/access/AccessControl.sol\":3875:3882  bytes32 */\n      0x00\n        /* \"@openzeppelin/contracts/access/AccessControl.sol\":3901:3907  _roles */\n      dup1\n        /* \"@openzeppelin/contracts/access/AccessControl.sol\":3901:3913  _roles[role] */\n      0x00\n        /* \"@openzeppelin/contracts/access/AccessControl.sol\":3908:3912  role */\n      dup4\n        /* \"@openzeppelin/contracts/access/AccessControl.sol\":3901:3913  _roles[role] */\n      dup2\n      mstore\n      0x20\n      add\n      swap1\n      dup2\n      mstore\n      0x20\n      add\n      0x00\n      keccak256\n        /* \"@openzeppelin/contracts/access/AccessControl.sol\":3901:3923  _roles[role].adminRole */\n      0x01\n      add\n      sload\n        /* \"@openzeppelin/contracts/access/AccessControl.sol\":3894:3923  return _roles[role].adminRole */\n      swap1\n      pop\n        /* \"@openzeppelin/contracts/access/AccessControl.sol\":3810:3930  function getRoleAdmin(bytes32 role) public view virtual returns (bytes32) {... */\n      swap2\n      swap1\n      pop\n      jump\t// out\n        /* \"bittorrent/BitTorrentIntegration.sol\":516:541  IVerifier public verifier */\n    tag_44:\n      0x03\n      0x00\n      swap1\n      sload\n      swap1\n      0x0100\n      exp\n      swap1\n      div\n      0xffffffffffffffffffffffffffffffffffffffff\n      and\n      dup2\n      jump\t// out\n        /* \"@openzeppelin/contracts/access/AccessControl.sol\":4226:4362  function grantRole(bytes32 role, address account) public virtual onlyRole(getRoleAdmin(role)) {... */\n    tag_50:\n        /* \"@openzeppelin/contracts/access/AccessControl.sol\":4300:4318  getRoleAdmin(role) */\n      tag_108\n        /* \"@openzeppelin/contracts/access/AccessControl.sol\":4313:4317  role */\n      dup3\n        /* \"@openzeppelin/contracts/access/AccessControl.sol\":4300:4312  getRoleAdmin */\n      tag_40\n        /* \"@openzeppelin/contracts/access/AccessControl.sol\":4300:4318  getRoleAdmin(role) */\n      jump\t// in\n    tag_108:\n        /* \"@openzeppelin/contracts/access/AccessControl.sol\":2464:2480  _checkRole(role) */\n      tag_110\n        /* \"@openzeppelin/contracts/access/AccessControl.sol\":2475:2479  role */\n      dup2\n        /* \"@openzeppelin/contracts/access/AccessControl.sol\":2464:2474  _checkRole */\n      tag_111\n        /* \"@openzeppelin/contracts/access/AccessControl.sol\":2464:2480  _checkRole(role) */\n      jump\t// in\n    tag_110:\n        /* \"@openzeppelin/contracts/access/AccessControl.sol\":4330:4355  _grantRole(role, account) */\n      tag_113\n        /* \"@openzeppelin/contracts/access/AccessControl.sol\":4341:4345  role */\n      dup4\n        /* \"@openzeppelin/contracts/access/AccessControl.sol\":4347:4354  account */\n      dup4\n        /* \"@openzeppelin/contracts/access/AccessControl.sol\":4330:4340  _grantRole */\n      tag_114\n        /* \"@openzeppelin/contracts/access/AccessControl.sol\":4330:4355  _grantRole(role, account) */\n      jump\t// in\n    tag_113:\n      pop\n        /* \"@openzeppelin/contracts/access/AccessControl.sol\":4226:4362  function grantRole(bytes32 role, address account) public virtual onlyRole(getRoleAdmin(role)) {... */\n      pop\n      pop\n      pop\n      jump\t// out\n        /* \"@openzeppelin/contracts/access/AccessControl.sol\":5328:5573  function renounceRole(bytes32 role, address callerConfirmation) public virtual {... */\n    tag_53:\n        /* \"@openzeppelin/contracts/access/AccessControl.sol\":5443:5455  _msgSender() */\n      tag_116\n        /* \"@openzeppelin/contracts/access/AccessControl.sol\":5443:5453  _msgSender */\n      tag_117\n        /* \"@openzeppelin/contracts/access/AccessControl.sol\":5443:5455  _msgSender() */\n      jump\t// in\n    tag_116:\n        /* \"@openzeppelin/contracts/access/AccessControl.sol\":5421:5455  callerConfirmation != _msgSender() */\n      0xffffffffffffffffffffffffffffffffffffffff\n      and\n        /* \"@openzeppelin/contracts/access/AccessControl.sol\":5421:5439  callerConfirmation */\n      dup2\n        /* \"@openzeppelin/contracts/access/AccessControl.sol\":5421:5455  callerConfirmation != _msgSender() */\n      0xffffffffffffffffffffffffffffffffffffffff\n      and\n      eq\n        /* \"@openzeppelin/contracts/access/AccessControl.sol\":5417:5519  if (callerConfirmation != _msgSender()) {... */\n      tag_118\n      jumpi\n        /* \"@openzeppelin/contracts/access/AccessControl.sol\":5478:5508  AccessControlBadConfirmation() */\n      mload(0x40)\n      0x6697b23200000000000000000000000000000000000000000000000000000000\n      dup2\n      mstore\n      0x04\n      add\n      mload(0x40)\n      dup1\n      swap2\n      sub\n      swap1\n      revert\n        /* \"@openzeppelin/contracts/access/AccessControl.sol\":5417:5519  if (callerConfirmation != _msgSender()) {... */\n    tag_118:\n        /* \"@openzeppelin/contracts/access/AccessControl.sol\":5529:5566  _revokeRole(role, callerConfirmation) */\n      tag_119\n        /* \"@openzeppelin/contracts/access/AccessControl.sol\":5541:5545  role */\n      dup3\n        /* \"@openzeppelin/contracts/access/AccessControl.sol\":5547:5565  callerConfirmation */\n      dup3\n        /* \"@openzeppelin/contracts/access/AccessControl.sol\":5529:5540  _revokeRole */\n      tag_120\n        /* \"@openzeppelin/contracts/access/AccessControl.sol\":5529:5566  _revokeRole(role, callerConfirmation) */\n      jump\t// in\n    tag_119:\n      pop\n        /* \"@openzeppelin/contracts/access/AccessControl.sol\":5328:5573  function renounceRole(bytes32 role, address callerConfirmation) public virtual {... */\n      pop\n      pop\n      jump\t// out\n        /* \"bittorrent/BitTorrentIntegration.sol\":3185:3379  function isPeerInSwarm(bytes32 torrentHash, address peer) ... */\n    tag_56:\n        /* \"bittorrent/BitTorrentIntegration.sol\":3311:3315  bool */\n      0x00\n        /* \"bittorrent/BitTorrentIntegration.sol\":3339:3372  _isPeerInSwarm(torrentHash, peer) */\n      tag_122\n        /* \"bittorrent/BitTorrentIntegration.sol\":3354:3365  torrentHash */\n      dup4\n        /* \"bittorrent/BitTorrentIntegration.sol\":3367:3371  peer */\n      dup4\n        /* \"bittorrent/BitTorrentIntegration.sol\":3339:3353  _isPeerInSwarm */\n      tag_123\n        /* \"bittorrent/BitTorrentIntegration.sol\":3339:3372  _isPeerInSwarm(torrentHash, peer) */\n      jump\t// in\n    tag_122:\n        /* \"bittorrent/BitTorrentIntegration.sol\":3332:3372  return _isPeerInSwarm(torrentHash, peer) */\n      swap1\n      pop\n        /* \"bittorrent/BitTorrentIntegration.sol\":3185:3379  function isPeerInSwarm(bytes32 torrentHash, address peer) ... */\n      swap3\n      swap2\n      pop\n      pop\n      jump\t// out\n        /* \"bittorrent/BitTorrentIntegration.sol\":4515:4599  function unpause() external onlyRole(DEFAULT_ADMIN_ROLE) {... */\n    tag_59:\n        /* \"@openzeppelin/contracts/access/AccessControl.sol\":2232:2236  0x00 */\n      0x00\n        /* \"bittorrent/BitTorrentIntegration.sol\":4552:4570  DEFAULT_ADMIN_ROLE */\n      dup1\n      shl\n        /* \"@openzeppelin/contracts/access/AccessControl.sol\":2464:2480  _checkRole(role) */\n      tag_125\n        /* \"@openzeppelin/contracts/access/AccessControl.sol\":2475:2479  role */\n      dup2\n        /* \"@openzeppelin/contracts/access/AccessControl.sol\":2464:2474  _checkRole */\n      tag_111\n        /* \"@openzeppelin/contracts/access/AccessControl.sol\":2464:2480  _checkRole(role) */\n      jump\t// in\n    tag_125:\n        /* \"bittorrent/BitTorrentIntegration.sol\":4582:4592  _unpause() */\n      tag_127\n        /* \"bittorrent/BitTorrentIntegration.sol\":4582:4590  _unpause */\n      tag_128\n        /* \"bittorrent/BitTorrentIntegration.sol\":4582:4592  _unpause() */\n      jump\t// in\n    tag_127:\n        /* \"bittorrent/BitTorrentIntegration.sol\":4515:4599  function unpause() external onlyRole(DEFAULT_ADMIN_ROLE) {... */\n      pop\n      jump\t// out\n        /* \"@openzeppelin/contracts/utils/Pausable.sol\":1850:1934  function paused() public view virtual returns (bool) {... */\n    tag_61:\n        /* \"@openzeppelin/contracts/utils/Pausable.sol\":1897:1901  bool */\n      0x00\n        /* \"@openzeppelin/contracts/utils/Pausable.sol\":1920:1927  _paused */\n      0x01\n      0x00\n      swap1\n      sload\n      swap1\n      0x0100\n      exp\n      swap1\n      div\n      0xff\n      and\n        /* \"@openzeppelin/contracts/utils/Pausable.sol\":1913:1927  return _paused */\n      swap1\n      pop\n        /* \"@openzeppelin/contracts/utils/Pausable.sol\":1850:1934  function paused() public view virtual returns (bool) {... */\n      swap1\n      jump\t// out\n        /* \"bittorrent/BitTorrentIntegration.sol\":1444:1915  function joinSwarm(bytes32 torrentHash) ... */\n    tag_65:\n        /* \"@openzeppelin/contracts/utils/Pausable.sol\":1474:1493  _requireNotPaused() */\n      tag_131\n        /* \"@openzeppelin/contracts/utils/Pausable.sol\":1474:1491  _requireNotPaused */\n      tag_132\n        /* \"@openzeppelin/contracts/utils/Pausable.sol\":1474:1493  _requireNotPaused() */\n      jump\t// in\n    tag_131:\n        /* \"bittorrent/BitTorrentIntegration.sol\":1604:1605  0 */\n      0x00\n        /* \"bittorrent/BitTorrentIntegration.sol\":1566:1581  torrentMetadata */\n      0x06\n        /* \"bittorrent/BitTorrentIntegration.sol\":1566:1594  torrentMetadata[torrentHash] */\n      0x00\n        /* \"bittorrent/BitTorrentIntegration.sol\":1582:1593  torrentHash */\n      dup4\n        /* \"bittorrent/BitTorrentIntegration.sol\":1566:1594  torrentMetadata[torrentHash] */\n      dup2\n      mstore\n      0x20\n      add\n      swap1\n      dup2\n      mstore\n      0x20\n      add\n      0x00\n      keccak256\n        /* \"bittorrent/BitTorrentIntegration.sol\":1566:1601  torrentMetadata[torrentHash].length */\n      dup1\n      sload\n      tag_134\n      swap1\n      tag_135\n      jump\t// in\n    tag_134:\n      swap1\n      pop\n        /* \"bittorrent/BitTorrentIntegration.sol\":1566:1605  torrentMetadata[torrentHash].length > 0 */\n      gt\n        /* \"bittorrent/BitTorrentIntegration.sol\":1558:1627  require(torrentMetadata[torrentHash].length > 0, \"Torrent not found\") */\n      tag_136\n      jumpi\n      mload(0x40)\n      0x08c379a000000000000000000000000000000000000000000000000000000000\n      dup2\n      mstore\n      0x04\n      add\n      tag_137\n      swap1\n      tag_138\n      jump\t// in\n    tag_137:\n      mload(0x40)\n      dup1\n      swap2\n      sub\n      swap1\n      revert\n    tag_136:\n        /* \"bittorrent/BitTorrentIntegration.sol\":1646:1685  _isPeerInSwarm(torrentHash, msg.sender) */\n      tag_139\n        /* \"bittorrent/BitTorrentIntegration.sol\":1661:1672  torrentHash */\n      dup2\n        /* \"bittorrent/BitTorrentIntegration.sol\":1674:1684  msg.sender */\n      caller\n        /* \"bittorrent/BitTorrentIntegration.sol\":1646:1660  _isPeerInSwarm */\n      tag_123\n        /* \"bittorrent/BitTorrentIntegration.sol\":1646:1685  _isPeerInSwarm(torrentHash, msg.sender) */\n      jump\t// in\n    tag_139:\n        /* \"bittorrent/BitTorrentIntegration.sol\":1645:1685  !_isPeerInSwarm(torrentHash, msg.sender) */\n      iszero\n        /* \"bittorrent/BitTorrentIntegration.sol\":1637:1706  require(!_isPeerInSwarm(torrentHash, msg.sender), \"Already in swarm\") */\n      tag_140\n      jumpi\n      mload(0x40)\n      0x08c379a000000000000000000000000000000000000000000000000000000000\n      dup2\n      mstore\n      0x04\n      add\n      tag_141\n      swap1\n      tag_142\n      jump\t// in\n    tag_141:\n      mload(0x40)\n      dup1\n      swap2\n      sub\n      swap1\n      revert\n    tag_140:\n        /* \"bittorrent/BitTorrentIntegration.sol\":1725:1735  swarmPeers */\n      0x04\n        /* \"bittorrent/BitTorrentIntegration.sol\":1725:1748  swarmPeers[torrentHash] */\n      0x00\n        /* \"bittorrent/BitTorrentIntegration.sol\":1736:1747  torrentHash */\n      dup3\n        /* \"bittorrent/BitTorrentIntegration.sol\":1725:1748  swarmPeers[torrentHash] */\n      dup2\n      mstore\n      0x20\n      add\n      swap1\n      dup2\n      mstore\n      0x20\n      add\n      0x00\n      keccak256\n        /* \"bittorrent/BitTorrentIntegration.sol\":1754:1764  msg.sender */\n      caller\n        /* \"bittorrent/BitTorrentIntegration.sol\":1725:1765  swarmPeers[torrentHash].push(msg.sender) */\n      swap1\n      dup1\n      0x01\n      dup2\n      sload\n      add\n      dup1\n      dup3\n      sstore\n      dup1\n      swap2\n      pop\n      pop\n      0x01\n      swap1\n      sub\n      swap1\n      0x00\n      mstore\n      keccak256(0x00, 0x20)\n      add\n      0x00\n      swap1\n      swap2\n      swap1\n      swap2\n      swap1\n      swap2\n      0x0100\n      exp\n      dup2\n      sload\n      dup2\n      0xffffffffffffffffffffffffffffffffffffffff\n      mul\n      not\n      and\n      swap1\n      dup4\n      0xffffffffffffffffffffffffffffffffffffffff\n      and\n      mul\n      or\n      swap1\n      sstore\n      pop\n        /* \"bittorrent/BitTorrentIntegration.sol\":1847:1848  1 */\n      0x01\n        /* \"bittorrent/BitTorrentIntegration.sol\":1814:1824  swarmPeers */\n      0x04\n        /* \"bittorrent/BitTorrentIntegration.sol\":1814:1837  swarmPeers[torrentHash] */\n      0x00\n        /* \"bittorrent/BitTorrentIntegration.sol\":1825:1836  torrentHash */\n      dup4\n        /* \"bittorrent/BitTorrentIntegration.sol\":1814:1837  swarmPeers[torrentHash] */\n      dup2\n      mstore\n      0x20\n      add\n      swap1\n      dup2\n      mstore\n      0x20\n      add\n      0x00\n      keccak256\n        /* \"bittorrent/BitTorrentIntegration.sol\":1814:1844  swarmPeers[torrentHash].length */\n      dup1\n      sload\n      swap1\n      pop\n        /* \"bittorrent/BitTorrentIntegration.sol\":1814:1848  swarmPeers[torrentHash].length - 1 */\n      tag_144\n      swap2\n      swap1\n      tag_145\n      jump\t// in\n    tag_144:\n        /* \"bittorrent/BitTorrentIntegration.sol\":1775:1786  peerIndices */\n      0x05\n        /* \"bittorrent/BitTorrentIntegration.sol\":1775:1799  peerIndices[torrentHash] */\n      0x00\n        /* \"bittorrent/BitTorrentIntegration.sol\":1787:1798  torrentHash */\n      dup4\n        /* \"bittorrent/BitTorrentIntegration.sol\":1775:1799  peerIndices[torrentHash] */\n      dup2\n      mstore\n      0x20\n      add\n      swap1\n      dup2\n      mstore\n      0x20\n      add\n      0x00\n      keccak256\n        /* \"bittorrent/BitTorrentIntegration.sol\":1775:1811  peerIndices[torrentHash][msg.sender] */\n      0x00\n        /* \"bittorrent/BitTorrentIntegration.sol\":1800:1810  msg.sender */\n      caller\n        /* \"bittorrent/BitTorrentIntegration.sol\":1775:1811  peerIndices[torrentHash][msg.sender] */\n      0xffffffffffffffffffffffffffffffffffffffff\n      and\n      0xffffffffffffffffffffffffffffffffffffffff\n      and\n      dup2\n      mstore\n      0x20\n      add\n      swap1\n      dup2\n      mstore\n      0x20\n      add\n      0x00\n      keccak256\n        /* \"bittorrent/BitTorrentIntegration.sol\":1775:1848  peerIndices[torrentHash][msg.sender] = swarmPeers[torrentHash].length - 1 */\n      dup2\n      swap1\n      sstore\n      pop\n        /* \"bittorrent/BitTorrentIntegration.sol\":1897:1907  msg.sender */\n      caller\n        /* \"bittorrent/BitTorrentIntegration.sol\":1872:1908  SwarmJoined(torrentHash, msg.sender) */\n      0xffffffffffffffffffffffffffffffffffffffff\n      and\n        /* \"bittorrent/BitTorrentIntegration.sol\":1884:1895  torrentHash */\n      dup2\n        /* \"bittorrent/BitTorrentIntegration.sol\":1872:1908  SwarmJoined(torrentHash, msg.sender) */\n      0xec632e7bcb76118db1317c4ffcba85e2ef4eed094130c81803854e6789e5f839\n      mload(0x40)\n      mload(0x40)\n      dup1\n      swap2\n      sub\n      swap1\n      log3\n        /* \"bittorrent/BitTorrentIntegration.sol\":1444:1915  function joinSwarm(bytes32 torrentHash) ... */\n      pop\n      jump\t// out\n        /* \"bittorrent/BitTorrentIntegration.sol\":4429:4509  function pause() external onlyRole(DEFAULT_ADMIN_ROLE) {... */\n    tag_67:\n        /* \"@openzeppelin/contracts/access/AccessControl.sol\":2232:2236  0x00 */\n      0x00\n        /* \"bittorrent/BitTorrentIntegration.sol\":4464:4482  DEFAULT_ADMIN_ROLE */\n      dup1\n      shl\n        /* \"@openzeppelin/contracts/access/AccessControl.sol\":2464:2480  _checkRole(role) */\n      tag_147\n        /* \"@openzeppelin/contracts/access/AccessControl.sol\":2475:2479  role */\n      dup2\n        /* \"@openzeppelin/contracts/access/AccessControl.sol\":2464:2474  _checkRole */\n      tag_111\n        /* \"@openzeppelin/contracts/access/AccessControl.sol\":2464:2480  _checkRole(role) */\n      jump\t// in\n    tag_147:\n        /* \"bittorrent/BitTorrentIntegration.sol\":4494:4502  _pause() */\n      tag_149\n        /* \"bittorrent/BitTorrentIntegration.sol\":4494:4500  _pause */\n      tag_150\n        /* \"bittorrent/BitTorrentIntegration.sol\":4494:4502  _pause() */\n      jump\t// in\n    tag_149:\n        /* \"bittorrent/BitTorrentIntegration.sol\":4429:4509  function pause() external onlyRole(DEFAULT_ADMIN_ROLE) {... */\n      pop\n      jump\t// out\n        /* \"bittorrent/BitTorrentIntegration.sol\":983:1391  function addTorrent(bytes32 torrentHash, bytes memory metadata) ... */\n    tag_71:\n        /* \"@openzeppelin/contracts/utils/Pausable.sol\":1474:1493  _requireNotPaused() */\n      tag_152\n        /* \"@openzeppelin/contracts/utils/Pausable.sol\":1474:1491  _requireNotPaused */\n      tag_132\n        /* \"@openzeppelin/contracts/utils/Pausable.sol\":1474:1493  _requireNotPaused() */\n      jump\t// in\n    tag_152:\n        /* \"@openzeppelin/contracts/utils/ReentrancyGuard.sol\":2500:2521  _nonReentrantBefore() */\n      tag_154\n        /* \"@openzeppelin/contracts/utils/ReentrancyGuard.sol\":2500:2519  _nonReentrantBefore */\n      tag_155\n        /* \"@openzeppelin/contracts/utils/ReentrancyGuard.sol\":2500:2521  _nonReentrantBefore() */\n      jump\t// in\n    tag_154:\n        /* \"bittorrent/BitTorrentIntegration.sol\":1190:1191  0 */\n      0x00\n        /* \"bittorrent/BitTorrentIntegration.sol\":1151:1166  torrentMetadata */\n      0x06\n        /* \"bittorrent/BitTorrentIntegration.sol\":1151:1179  torrentMetadata[torrentHash] */\n      0x00\n        /* \"bittorrent/BitTorrentIntegration.sol\":1167:1178  torrentHash */\n      dup5\n        /* \"bittorrent/BitTorrentIntegration.sol\":1151:1179  torrentMetadata[torrentHash] */\n      dup2\n      mstore\n      0x20\n      add\n      swap1\n      dup2\n      mstore\n      0x20\n      add\n      0x00\n      keccak256\n        /* \"bittorrent/BitTorrentIntegration.sol\":1151:1186  torrentMetadata[torrentHash].length */\n      dup1\n      sload\n      tag_157\n      swap1\n      tag_135\n      jump\t// in\n    tag_157:\n      swap1\n      pop\n        /* \"bittorrent/BitTorrentIntegration.sol\":1151:1191  torrentMetadata[torrentHash].length == 0 */\n      eq\n        /* \"bittorrent/BitTorrentIntegration.sol\":1143:1218  require(torrentMetadata[torrentHash].length == 0, \"Torrent already exists\") */\n      tag_158\n      jumpi\n      mload(0x40)\n      0x08c379a000000000000000000000000000000000000000000000000000000000\n      dup2\n      mstore\n      0x04\n      add\n      tag_159\n      swap1\n      tag_160\n      jump\t// in\n    tag_159:\n      mload(0x40)\n      dup1\n      swap2\n      sub\n      swap1\n      revert\n    tag_158:\n        /* \"bittorrent/BitTorrentIntegration.sol\":1254:1255  0 */\n      0x00\n        /* \"bittorrent/BitTorrentIntegration.sol\":1236:1244  metadata */\n      dup2\n        /* \"bittorrent/BitTorrentIntegration.sol\":1236:1251  metadata.length */\n      mload\n        /* \"bittorrent/BitTorrentIntegration.sol\":1236:1255  metadata.length > 0 */\n      gt\n        /* \"bittorrent/BitTorrentIntegration.sol\":1228:1274  require(metadata.length > 0, \"Empty metadata\") */\n      tag_161\n      jumpi\n      mload(0x40)\n      0x08c379a000000000000000000000000000000000000000000000000000000000\n      dup2\n      mstore\n      0x04\n      add\n      tag_162\n      swap1\n      tag_163\n      jump\t// in\n    tag_162:\n      mload(0x40)\n      dup1\n      swap2\n      sub\n      swap1\n      revert\n    tag_161:\n        /* \"bittorrent/BitTorrentIntegration.sol\":1324:1332  metadata */\n      dup1\n        /* \"bittorrent/BitTorrentIntegration.sol\":1293:1308  torrentMetadata */\n      0x06\n        /* \"bittorrent/BitTorrentIntegration.sol\":1293:1321  torrentMetadata[torrentHash] */\n      0x00\n        /* \"bittorrent/BitTorrentIntegration.sol\":1309:1320  torrentHash */\n      dup5\n        /* \"bittorrent/BitTorrentIntegration.sol\":1293:1321  torrentMetadata[torrentHash] */\n      dup2\n      mstore\n      0x20\n      add\n      swap1\n      dup2\n      mstore\n      0x20\n      add\n      0x00\n      keccak256\n        /* \"bittorrent/BitTorrentIntegration.sol\":1293:1332  torrentMetadata[torrentHash] = metadata */\n      swap1\n      dup2\n      tag_164\n      swap2\n      swap1\n      tag_165\n      jump\t// in\n    tag_164:\n      pop\n        /* \"bittorrent/BitTorrentIntegration.sol\":1373:1383  msg.sender */\n      caller\n        /* \"bittorrent/BitTorrentIntegration.sol\":1347:1384  TorrentAdded(torrentHash, msg.sender) */\n      0xffffffffffffffffffffffffffffffffffffffff\n      and\n        /* \"bittorrent/BitTorrentIntegration.sol\":1360:1371  torrentHash */\n      dup3\n        /* \"bittorrent/BitTorrentIntegration.sol\":1347:1384  TorrentAdded(torrentHash, msg.sender) */\n      0x1b29291c5edac9dd8411455da98ba119e7e2e93cadb5919c2c9a240f3eab6587\n      mload(0x40)\n      mload(0x40)\n      dup1\n      swap2\n      sub\n      swap1\n      log3\n        /* \"@openzeppelin/contracts/utils/ReentrancyGuard.sol\":2542:2562  _nonReentrantAfter() */\n      tag_166\n        /* \"@openzeppelin/contracts/utils/ReentrancyGuard.sol\":2542:2560  _nonReentrantAfter */\n      tag_167\n        /* \"@openzeppelin/contracts/utils/ReentrancyGuard.sol\":2542:2562  _nonReentrantAfter() */\n      jump\t// in\n    tag_166:\n        /* \"bittorrent/BitTorrentIntegration.sol\":983:1391  function addTorrent(bytes32 torrentHash, bytes memory metadata) ... */\n      pop\n      pop\n      jump\t// out\n        /* \"@openzeppelin/contracts/access/AccessControl.sol\":2854:2990  function hasRole(bytes32 role, address account) public view virtual returns (bool) {... */\n    tag_74:\n        /* \"@openzeppelin/contracts/access/AccessControl.sol\":2931:2935  bool */\n      0x00\n        /* \"@openzeppelin/contracts/access/AccessControl.sol\":2954:2960  _roles */\n      dup1\n        /* \"@openzeppelin/contracts/access/AccessControl.sol\":2954:2966  _roles[role] */\n      0x00\n        /* \"@openzeppelin/contracts/access/AccessControl.sol\":2961:2965  role */\n      dup5\n        /* \"@openzeppelin/contracts/access/AccessControl.sol\":2954:2966  _roles[role] */\n      dup2\n      mstore\n      0x20\n      add\n      swap1\n      dup2\n      mstore\n      0x20\n      add\n      0x00\n      keccak256\n        /* \"@openzeppelin/contracts/access/AccessControl.sol\":2954:2974  _roles[role].hasRole */\n      0x00\n      add\n        /* \"@openzeppelin/contracts/access/AccessControl.sol\":2954:2983  _roles[role].hasRole[account] */\n      0x00\n        /* \"@openzeppelin/contracts/access/AccessControl.sol\":2975:2982  account */\n      dup4\n        /* \"@openzeppelin/contracts/access/AccessControl.sol\":2954:2983  _roles[role].hasRole[account] */\n      0xffffffffffffffffffffffffffffffffffffffff\n      and\n      0xffffffffffffffffffffffffffffffffffffffff\n      and\n      dup2\n      mstore\n      0x20\n      add\n      swap1\n      dup2\n      mstore\n      0x20\n      add\n      0x00\n      keccak256\n      0x00\n      swap1\n      sload\n      swap1\n      0x0100\n      exp\n      swap1\n      div\n      0xff\n      and\n        /* \"@openzeppelin/contracts/access/AccessControl.sol\":2947:2983  return _roles[role].hasRole[account] */\n      swap1\n      pop\n        /* \"@openzeppelin/contracts/access/AccessControl.sol\":2854:2990  function hasRole(bytes32 role, address account) public view virtual returns (bool) {... */\n      swap3\n      swap2\n      pop\n      pop\n      jump\t// out\n        /* \"bittorrent/BitTorrentIntegration.sol\":3432:3793  function removeTorrent(bytes32 torrentHash) ... */\n    tag_78:\n        /* \"bittorrent/BitTorrentIntegration.sol\":443:469  keccak256(\"OPERATOR_ROLE\") */\n      0x97667070c54ef182b0f5858b034beac1b6f3089aa2d3188bb1e8929f4fa9b929\n        /* \"@openzeppelin/contracts/access/AccessControl.sol\":2464:2480  _checkRole(role) */\n      tag_170\n        /* \"@openzeppelin/contracts/access/AccessControl.sol\":2475:2479  role */\n      dup2\n        /* \"@openzeppelin/contracts/access/AccessControl.sol\":2464:2474  _checkRole */\n      tag_111\n        /* \"@openzeppelin/contracts/access/AccessControl.sol\":2464:2480  _checkRole(role) */\n      jump\t// in\n    tag_170:\n        /* \"bittorrent/BitTorrentIntegration.sol\":3606:3607  0 */\n      0x00\n        /* \"bittorrent/BitTorrentIntegration.sol\":3568:3583  torrentMetadata */\n      0x06\n        /* \"bittorrent/BitTorrentIntegration.sol\":3568:3596  torrentMetadata[torrentHash] */\n      0x00\n        /* \"bittorrent/BitTorrentIntegration.sol\":3584:3595  torrentHash */\n      dup5\n        /* \"bittorrent/BitTorrentIntegration.sol\":3568:3596  torrentMetadata[torrentHash] */\n      dup2\n      mstore\n      0x20\n      add\n      swap1\n      dup2\n      mstore\n      0x20\n      add\n      0x00\n      keccak256\n        /* \"bittorrent/BitTorrentIntegration.sol\":3568:3603  torrentMetadata[torrentHash].length */\n      dup1\n      sload\n      tag_172\n      swap1\n      tag_135\n      jump\t// in\n    tag_172:\n      swap1\n      pop\n        /* \"bittorrent/BitTorrentIntegration.sol\":3568:3607  torrentMetadata[torrentHash].length > 0 */\n      gt\n        /* \"bittorrent/BitTorrentIntegration.sol\":3560:3629  require(torrentMetadata[torrentHash].length > 0, \"Torrent not found\") */\n      tag_173\n      jumpi\n      mload(0x40)\n      0x08c379a000000000000000000000000000000000000000000000000000000000\n      dup2\n      mstore\n      0x04\n      add\n      tag_174\n      swap1\n      tag_138\n      jump\t// in\n    tag_174:\n      mload(0x40)\n      dup1\n      swap2\n      sub\n      swap1\n      revert\n    tag_173:\n        /* \"bittorrent/BitTorrentIntegration.sol\":3655:3670  torrentMetadata */\n      0x06\n        /* \"bittorrent/BitTorrentIntegration.sol\":3655:3683  torrentMetadata[torrentHash] */\n      0x00\n        /* \"bittorrent/BitTorrentIntegration.sol\":3671:3682  torrentHash */\n      dup4\n        /* \"bittorrent/BitTorrentIntegration.sol\":3655:3683  torrentMetadata[torrentHash] */\n      dup2\n      mstore\n      0x20\n      add\n      swap1\n      dup2\n      mstore\n      0x20\n      add\n      0x00\n      keccak256\n      0x00\n        /* \"bittorrent/BitTorrentIntegration.sol\":3648:3683  delete torrentMetadata[torrentHash] */\n      tag_175\n      swap2\n      swap1\n      tag_176\n      jump\t// in\n    tag_175:\n        /* \"bittorrent/BitTorrentIntegration.sol\":3700:3710  swarmPeers */\n      0x04\n        /* \"bittorrent/BitTorrentIntegration.sol\":3700:3723  swarmPeers[torrentHash] */\n      0x00\n        /* \"bittorrent/BitTorrentIntegration.sol\":3711:3722  torrentHash */\n      dup4\n        /* \"bittorrent/BitTorrentIntegration.sol\":3700:3723  swarmPeers[torrentHash] */\n      dup2\n      mstore\n      0x20\n      add\n      swap1\n      dup2\n      mstore\n      0x20\n      add\n      0x00\n      keccak256\n      0x00\n        /* \"bittorrent/BitTorrentIntegration.sol\":3693:3723  delete swarmPeers[torrentHash] */\n      tag_177\n      swap2\n      swap1\n      tag_178\n      jump\t// in\n    tag_177:\n        /* \"bittorrent/BitTorrentIntegration.sol\":3775:3785  msg.sender */\n      caller\n        /* \"bittorrent/BitTorrentIntegration.sol\":3747:3786  TorrentRemoved(torrentHash, msg.sender) */\n      0xffffffffffffffffffffffffffffffffffffffff\n      and\n        /* \"bittorrent/BitTorrentIntegration.sol\":3762:3773  torrentHash */\n      dup3\n        /* \"bittorrent/BitTorrentIntegration.sol\":3747:3786  TorrentRemoved(torrentHash, msg.sender) */\n      0x426a554d14c27a8b40d14e65bab3a4d4ccf7f9c1f2dd26abde41eabaeb972473\n      mload(0x40)\n      mload(0x40)\n      dup1\n      swap2\n      sub\n      swap1\n      log3\n        /* \"bittorrent/BitTorrentIntegration.sol\":3432:3793  function removeTorrent(bytes32 torrentHash) ... */\n      pop\n      pop\n      jump\t// out\n        /* \"bittorrent/BitTorrentIntegration.sol\":4204:4423  function updateVerifier(address _verifier)... */\n    tag_82:\n        /* \"@openzeppelin/contracts/access/AccessControl.sol\":2232:2236  0x00 */\n      0x00\n        /* \"bittorrent/BitTorrentIntegration.sol\":4281:4299  DEFAULT_ADMIN_ROLE */\n      dup1\n      shl\n        /* \"@openzeppelin/contracts/access/AccessControl.sol\":2464:2480  _checkRole(role) */\n      tag_180\n        /* \"@openzeppelin/contracts/access/AccessControl.sol\":2475:2479  role */\n      dup2\n        /* \"@openzeppelin/contracts/access/AccessControl.sol\":2464:2474  _checkRole */\n      tag_111\n        /* \"@openzeppelin/contracts/access/AccessControl.sol\":2464:2480  _checkRole(role) */\n      jump\t// in\n    tag_180:\n        /* \"bittorrent/BitTorrentIntegration.sol\":4344:4345  0 */\n      0x00\n        /* \"bittorrent/BitTorrentIntegration.sol\":4323:4346  _verifier != address(0) */\n      0xffffffffffffffffffffffffffffffffffffffff\n      and\n        /* \"bittorrent/BitTorrentIntegration.sol\":4323:4332  _verifier */\n      dup3\n        /* \"bittorrent/BitTorrentIntegration.sol\":4323:4346  _verifier != address(0) */\n      0xffffffffffffffffffffffffffffffffffffffff\n      and\n      sub\n        /* \"bittorrent/BitTorrentIntegration.sol\":4315:4375  require(_verifier != address(0), \"Invalid verifier address\") */\n      tag_182\n      jumpi\n      mload(0x40)\n      0x08c379a000000000000000000000000000000000000000000000000000000000\n      dup2\n      mstore\n      0x04\n      add\n      tag_183\n      swap1\n      tag_184\n      jump\t// in\n    tag_183:\n      mload(0x40)\n      dup1\n      swap2\n      sub\n      swap1\n      revert\n    tag_182:\n        /* \"bittorrent/BitTorrentIntegration.sol\":4406:4415  _verifier */\n      dup2\n        /* \"bittorrent/BitTorrentIntegration.sol\":4385:4393  verifier */\n      0x03\n      0x00\n        /* \"bittorrent/BitTorrentIntegration.sol\":4385:4416  verifier = IVerifier(_verifier) */\n      0x0100\n      exp\n      dup2\n      sload\n      dup2\n      0xffffffffffffffffffffffffffffffffffffffff\n      mul\n      not\n      and\n      swap1\n      dup4\n      0xffffffffffffffffffffffffffffffffffffffff\n      and\n      mul\n      or\n      swap1\n      sstore\n      pop\n        /* \"bittorrent/BitTorrentIntegration.sol\":4204:4423  function updateVerifier(address _verifier)... */\n      pop\n      pop\n      jump\t// out\n        /* \"bittorrent/BitTorrentIntegration.sol\":1968:2656  function leaveSwarm(bytes32 torrentHash) ... */\n    tag_85:\n        /* \"bittorrent/BitTorrentIntegration.sol\":2068:2107  _isPeerInSwarm(torrentHash, msg.sender) */\n      tag_186\n        /* \"bittorrent/BitTorrentIntegration.sol\":2083:2094  torrentHash */\n      dup2\n        /* \"bittorrent/BitTorrentIntegration.sol\":2096:2106  msg.sender */\n      caller\n        /* \"bittorrent/BitTorrentIntegration.sol\":2068:2082  _isPeerInSwarm */\n      tag_123\n        /* \"bittorrent/BitTorrentIntegration.sol\":2068:2107  _isPeerInSwarm(torrentHash, msg.sender) */\n      jump\t// in\n    tag_186:\n        /* \"bittorrent/BitTorrentIntegration.sol\":2060:2124  require(_isPeerInSwarm(torrentHash, msg.sender), \"Not in swarm\") */\n      tag_187\n      jumpi\n      mload(0x40)\n      0x08c379a000000000000000000000000000000000000000000000000000000000\n      dup2\n      mstore\n      0x04\n      add\n      tag_188\n      swap1\n      tag_189\n      jump\t// in\n    tag_188:\n      mload(0x40)\n      dup1\n      swap2\n      sub\n      swap1\n      revert\n    tag_187:\n        /* \"bittorrent/BitTorrentIntegration.sol\":2143:2156  uint256 index */\n      0x00\n        /* \"bittorrent/BitTorrentIntegration.sol\":2159:2170  peerIndices */\n      0x05\n        /* \"bittorrent/BitTorrentIntegration.sol\":2159:2183  peerIndices[torrentHash] */\n      0x00\n        /* \"bittorrent/BitTorrentIntegration.sol\":2171:2182  torrentHash */\n      dup4\n        /* \"bittorrent/BitTorrentIntegration.sol\":2159:2183  peerIndices[torrentHash] */\n      dup2\n      mstore\n      0x20\n      add\n      swap1\n      dup2\n      mstore\n      0x20\n      add\n      0x00\n      keccak256\n        /* \"bittorrent/BitTorrentIntegration.sol\":2159:2195  peerIndices[torrentHash][msg.sender] */\n      0x00\n        /* \"bittorrent/BitTorrentIntegration.sol\":2184:2194  msg.sender */\n      caller\n        /* \"bittorrent/BitTorrentIntegration.sol\":2159:2195  peerIndices[torrentHash][msg.sender] */\n      0xffffffffffffffffffffffffffffffffffffffff\n      and\n      0xffffffffffffffffffffffffffffffffffffffff\n      and\n      dup2\n      mstore\n      0x20\n      add\n      swap1\n      dup2\n      mstore\n      0x20\n      add\n      0x00\n      keccak256\n      sload\n        /* \"bittorrent/BitTorrentIntegration.sol\":2143:2195  uint256 index = peerIndices[torrentHash][msg.sender] */\n      swap1\n      pop\n        /* \"bittorrent/BitTorrentIntegration.sol\":2205:2222  uint256 lastIndex */\n      0x00\n        /* \"bittorrent/BitTorrentIntegration.sol\":2258:2259  1 */\n      0x01\n        /* \"bittorrent/BitTorrentIntegration.sol\":2225:2235  swarmPeers */\n      0x04\n        /* \"bittorrent/BitTorrentIntegration.sol\":2225:2248  swarmPeers[torrentHash] */\n      0x00\n        /* \"bittorrent/BitTorrentIntegration.sol\":2236:2247  torrentHash */\n      dup6\n        /* \"bittorrent/BitTorrentIntegration.sol\":2225:2248  swarmPeers[torrentHash] */\n      dup2\n      mstore\n      0x20\n      add\n      swap1\n      dup2\n      mstore\n      0x20\n      add\n      0x00\n      keccak256\n        /* \"bittorrent/BitTorrentIntegration.sol\":2225:2255  swarmPeers[torrentHash].length */\n      dup1\n      sload\n      swap1\n      pop\n        /* \"bittorrent/BitTorrentIntegration.sol\":2225:2259  swarmPeers[torrentHash].length - 1 */\n      tag_190\n      swap2\n      swap1\n      tag_145\n      jump\t// in\n    tag_190:\n        /* \"bittorrent/BitTorrentIntegration.sol\":2205:2259  uint256 lastIndex = swarmPeers[torrentHash].length - 1 */\n      swap1\n      pop\n        /* \"bittorrent/BitTorrentIntegration.sol\":2291:2300  lastIndex */\n      dup1\n        /* \"bittorrent/BitTorrentIntegration.sol\":2282:2287  index */\n      dup3\n        /* \"bittorrent/BitTorrentIntegration.sol\":2282:2300  index != lastIndex */\n      eq\n        /* \"bittorrent/BitTorrentIntegration.sol\":2278:2491  if (index != lastIndex) {... */\n      tag_191\n      jumpi\n        /* \"bittorrent/BitTorrentIntegration.sol\":2316:2332  address lastPeer */\n      0x00\n        /* \"bittorrent/BitTorrentIntegration.sol\":2335:2345  swarmPeers */\n      0x04\n        /* \"bittorrent/BitTorrentIntegration.sol\":2335:2358  swarmPeers[torrentHash] */\n      0x00\n        /* \"bittorrent/BitTorrentIntegration.sol\":2346:2357  torrentHash */\n      dup6\n        /* \"bittorrent/BitTorrentIntegration.sol\":2335:2358  swarmPeers[torrentHash] */\n      dup2\n      mstore\n      0x20\n      add\n      swap1\n      dup2\n      mstore\n      0x20\n      add\n      0x00\n      keccak256\n        /* \"bittorrent/BitTorrentIntegration.sol\":2359:2368  lastIndex */\n      dup3\n        /* \"bittorrent/BitTorrentIntegration.sol\":2335:2369  swarmPeers[torrentHash][lastIndex] */\n      dup2\n      sload\n      dup2\n      lt\n      tag_192\n      jumpi\n      tag_193\n      tag_194\n      jump\t// in\n    tag_193:\n    tag_192:\n      swap1\n      0x00\n      mstore\n      keccak256(0x00, 0x20)\n      add\n      0x00\n      swap1\n      sload\n      swap1\n      0x0100\n      exp\n      swap1\n      div\n      0xffffffffffffffffffffffffffffffffffffffff\n      and\n        /* \"bittorrent/BitTorrentIntegration.sol\":2316:2369  address lastPeer = swarmPeers[torrentHash][lastIndex] */\n      swap1\n      pop\n        /* \"bittorrent/BitTorrentIntegration.sol\":2416:2424  lastPeer */\n      dup1\n        /* \"bittorrent/BitTorrentIntegration.sol\":2383:2393  swarmPeers */\n      0x04\n        /* \"bittorrent/BitTorrentIntegration.sol\":2383:2406  swarmPeers[torrentHash] */\n      0x00\n        /* \"bittorrent/BitTorrentIntegration.sol\":2394:2405  torrentHash */\n      dup7\n        /* \"bittorrent/BitTorrentIntegration.sol\":2383:2406  swarmPeers[torrentHash] */\n      dup2\n      mstore\n      0x20\n      add\n      swap1\n      dup2\n      mstore\n      0x20\n      add\n      0x00\n      keccak256\n        /* \"bittorrent/BitTorrentIntegration.sol\":2407:2412  index */\n      dup5\n        /* \"bittorrent/BitTorrentIntegration.sol\":2383:2413  swarmPeers[torrentHash][index] */\n      dup2\n      sload\n      dup2\n      lt\n      tag_196\n      jumpi\n      tag_197\n      tag_194\n      jump\t// in\n    tag_197:\n    tag_196:\n      swap1\n      0x00\n      mstore\n      keccak256(0x00, 0x20)\n      add\n      0x00\n        /* \"bittorrent/BitTorrentIntegration.sol\":2383:2424  swarmPeers[torrentHash][index] = lastPeer */\n      0x0100\n      exp\n      dup2\n      sload\n      dup2\n      0xffffffffffffffffffffffffffffffffffffffff\n      mul\n      not\n      and\n      swap1\n      dup4\n      0xffffffffffffffffffffffffffffffffffffffff\n      and\n      mul\n      or\n      swap1\n      sstore\n      pop\n        /* \"bittorrent/BitTorrentIntegration.sol\":2475:2480  index */\n      dup3\n        /* \"bittorrent/BitTorrentIntegration.sol\":2438:2449  peerIndices */\n      0x05\n        /* \"bittorrent/BitTorrentIntegration.sol\":2438:2462  peerIndices[torrentHash] */\n      0x00\n        /* \"bittorrent/BitTorrentIntegration.sol\":2450:2461  torrentHash */\n      dup7\n        /* \"bittorrent/BitTorrentIntegration.sol\":2438:2462  peerIndices[torrentHash] */\n      dup2\n      mstore\n      0x20\n      add\n      swap1\n      dup2\n      mstore\n      0x20\n      add\n      0x00\n      keccak256\n        /* \"bittorrent/BitTorrentIntegration.sol\":2438:2472  peerIndices[torrentHash][lastPeer] */\n      0x00\n        /* \"bittorrent/BitTorrentIntegration.sol\":2463:2471  lastPeer */\n      dup4\n        /* \"bittorrent/BitTorrentIntegration.sol\":2438:2472  peerIndices[torrentHash][lastPeer] */\n      0xffffffffffffffffffffffffffffffffffffffff\n      and\n      0xffffffffffffffffffffffffffffffffffffffff\n      and\n      dup2\n      mstore\n      0x20\n      add\n      swap1\n      dup2\n      mstore\n      0x20\n      add\n      0x00\n      keccak256\n        /* \"bittorrent/BitTorrentIntegration.sol\":2438:2480  peerIndices[torrentHash][lastPeer] = index */\n      dup2\n      swap1\n      sstore\n      pop\n        /* \"bittorrent/BitTorrentIntegration.sol\":2302:2491  {... */\n      pop\n        /* \"bittorrent/BitTorrentIntegration.sol\":2278:2491  if (index != lastIndex) {... */\n    tag_191:\n        /* \"bittorrent/BitTorrentIntegration.sol\":2509:2519  swarmPeers */\n      0x04\n        /* \"bittorrent/BitTorrentIntegration.sol\":2509:2532  swarmPeers[torrentHash] */\n      0x00\n        /* \"bittorrent/BitTorrentIntegration.sol\":2520:2531  torrentHash */\n      dup5\n        /* \"bittorrent/BitTorrentIntegration.sol\":2509:2532  swarmPeers[torrentHash] */\n      dup2\n      mstore\n      0x20\n      add\n      swap1\n      dup2\n      mstore\n      0x20\n      add\n      0x00\n      keccak256\n        /* \"bittorrent/BitTorrentIntegration.sol\":2509:2538  swarmPeers[torrentHash].pop() */\n      dup1\n      sload\n      dup1\n      tag_199\n      jumpi\n      tag_200\n      tag_201\n      jump\t// in\n    tag_200:\n    tag_199:\n      0x01\n      swap1\n      sub\n      dup2\n      dup2\n      swap1\n      0x00\n      mstore\n      keccak256(0x00, 0x20)\n      add\n      exp(0x0100, 0x00)\n      dup2\n      sload\n      swap1\n      0xffffffffffffffffffffffffffffffffffffffff\n      mul\n      not\n      and\n      swap1\n      sstore\n      swap1\n      sstore\n        /* \"bittorrent/BitTorrentIntegration.sol\":2555:2566  peerIndices */\n      0x05\n        /* \"bittorrent/BitTorrentIntegration.sol\":2555:2579  peerIndices[torrentHash] */\n      0x00\n        /* \"bittorrent/BitTorrentIntegration.sol\":2567:2578  torrentHash */\n      dup5\n        /* \"bittorrent/BitTorrentIntegration.sol\":2555:2579  peerIndices[torrentHash] */\n      dup2\n      mstore\n      0x20\n      add\n      swap1\n      dup2\n      mstore\n      0x20\n      add\n      0x00\n      keccak256\n        /* \"bittorrent/BitTorrentIntegration.sol\":2555:2591  peerIndices[torrentHash][msg.sender] */\n      0x00\n        /* \"bittorrent/BitTorrentIntegration.sol\":2580:2590  msg.sender */\n      caller\n        /* \"bittorrent/BitTorrentIntegration.sol\":2555:2591  peerIndices[torrentHash][msg.sender] */\n      0xffffffffffffffffffffffffffffffffffffffff\n      and\n      0xffffffffffffffffffffffffffffffffffffffff\n      and\n      dup2\n      mstore\n      0x20\n      add\n      swap1\n      dup2\n      mstore\n      0x20\n      add\n      0x00\n      keccak256\n        /* \"bittorrent/BitTorrentIntegration.sol\":2548:2591  delete peerIndices[torrentHash][msg.sender] */\n      0x00\n      swap1\n      sstore\n        /* \"bittorrent/BitTorrentIntegration.sol\":2638:2648  msg.sender */\n      caller\n        /* \"bittorrent/BitTorrentIntegration.sol\":2615:2649  SwarmLeft(torrentHash, msg.sender) */\n      0xffffffffffffffffffffffffffffffffffffffff\n      and\n        /* \"bittorrent/BitTorrentIntegration.sol\":2625:2636  torrentHash */\n      dup4\n        /* \"bittorrent/BitTorrentIntegration.sol\":2615:2649  SwarmLeft(torrentHash, msg.sender) */\n      0xd6bdaf1e6ce0b30760d15e544dc3fcf5ade4568db6a7f95a10548f4b8c81eb51\n      mload(0x40)\n      mload(0x40)\n      dup1\n      swap2\n      sub\n      swap1\n      log3\n        /* \"bittorrent/BitTorrentIntegration.sol\":2050:2656  {... */\n      pop\n      pop\n        /* \"bittorrent/BitTorrentIntegration.sol\":1968:2656  function leaveSwarm(bytes32 torrentHash) ... */\n      pop\n      jump\t// out\n        /* \"@openzeppelin/contracts/access/AccessControl.sol\":2187:2236  bytes32 public constant DEFAULT_ADMIN_ROLE = 0x00 */\n    tag_87:\n        /* \"@openzeppelin/contracts/access/AccessControl.sol\":2232:2236  0x00 */\n      0x00\n        /* \"@openzeppelin/contracts/access/AccessControl.sol\":2187:2236  bytes32 public constant DEFAULT_ADMIN_ROLE = 0x00 */\n      dup1\n      shl\n      dup2\n      jump\t// out\n        /* \"bittorrent/BitTorrentIntegration.sol\":2709:2897  function getTorrentMetadata(bytes32 torrentHash) ... */\n    tag_91:\n        /* \"bittorrent/BitTorrentIntegration.sol\":2826:2838  bytes memory */\n      0x60\n        /* \"bittorrent/BitTorrentIntegration.sol\":2862:2877  torrentMetadata */\n      0x06\n        /* \"bittorrent/BitTorrentIntegration.sol\":2862:2890  torrentMetadata[torrentHash] */\n      0x00\n        /* \"bittorrent/BitTorrentIntegration.sol\":2878:2889  torrentHash */\n      dup4\n        /* \"bittorrent/BitTorrentIntegration.sol\":2862:2890  torrentMetadata[torrentHash] */\n      dup2\n      mstore\n      0x20\n      add\n      swap1\n      dup2\n      mstore\n      0x20\n      add\n      0x00\n      keccak256\n        /* \"bittorrent/BitTorrentIntegration.sol\":2855:2890  return torrentMetadata[torrentHash] */\n      dup1\n      sload\n      tag_204\n      swap1\n      tag_135\n      jump\t// in\n    tag_204:\n      dup1\n      0x1f\n      add\n      0x20\n      dup1\n      swap2\n      div\n      mul\n      0x20\n      add\n      mload(0x40)\n      swap1\n      dup2\n      add\n      0x40\n      mstore\n      dup1\n      swap3\n      swap2\n      swap1\n      dup2\n      dup2\n      mstore\n      0x20\n      add\n      dup3\n      dup1\n      sload\n      tag_205\n      swap1\n      tag_135\n      jump\t// in\n    tag_205:\n      dup1\n      iszero\n      tag_206\n      jumpi\n      dup1\n      0x1f\n      lt\n      tag_207\n      jumpi\n      0x0100\n      dup1\n      dup4\n      sload\n      div\n      mul\n      dup4\n      mstore\n      swap2\n      0x20\n      add\n      swap2\n      jump(tag_206)\n    tag_207:\n      dup3\n      add\n      swap2\n      swap1\n      0x00\n      mstore\n      keccak256(0x00, 0x20)\n      swap1\n    tag_208:\n      dup2\n      sload\n      dup2\n      mstore\n      swap1\n      0x01\n      add\n      swap1\n      0x20\n      add\n      dup1\n      dup4\n      gt\n      tag_208\n      jumpi\n      dup3\n      swap1\n      sub\n      0x1f\n      and\n      dup3\n      add\n      swap2\n    tag_206:\n      pop\n      pop\n      pop\n      pop\n      pop\n      swap1\n      pop\n        /* \"bittorrent/BitTorrentIntegration.sol\":2709:2897  function getTorrentMetadata(bytes32 torrentHash) ... */\n      swap2\n      swap1\n      pop\n      jump\t// out\n        /* \"@openzeppelin/contracts/access/AccessControl.sol\":4642:4780  function revokeRole(bytes32 role, address account) public virtual onlyRole(getRoleAdmin(role)) {... */\n    tag_96:\n        /* \"@openzeppelin/contracts/access/AccessControl.sol\":4717:4735  getRoleAdmin(role) */\n      tag_209\n        /* \"@openzeppelin/contracts/access/AccessControl.sol\":4730:4734  role */\n      dup3\n        /* \"@openzeppelin/contracts/access/AccessControl.sol\":4717:4729  getRoleAdmin */\n      tag_40\n        /* \"@openzeppelin/contracts/access/AccessControl.sol\":4717:4735  getRoleAdmin(role) */\n      jump\t// in\n    tag_209:\n        /* \"@openzeppelin/contracts/access/AccessControl.sol\":2464:2480  _checkRole(role) */\n      tag_211\n        /* \"@openzeppelin/contracts/access/AccessControl.sol\":2475:2479  role */\n      dup2\n        /* \"@openzeppelin/contracts/access/AccessControl.sol\":2464:2474  _checkRole */\n      tag_111\n        /* \"@openzeppelin/contracts/access/AccessControl.sol\":2464:2480  _checkRole(role) */\n      jump\t// in\n    tag_211:\n        /* \"@openzeppelin/contracts/access/AccessControl.sol\":4747:4773  _revokeRole(role, account) */\n      tag_213\n        /* \"@openzeppelin/contracts/access/AccessControl.sol\":4759:4763  role */\n      dup4\n        /* \"@openzeppelin/contracts/access/AccessControl.sol\":4765:4772  account */\n      dup4\n        /* \"@openzeppelin/contracts/access/AccessControl.sol\":4747:4758  _revokeRole */\n      tag_120\n        /* \"@openzeppelin/contracts/access/AccessControl.sol\":4747:4773  _revokeRole(role, account) */\n      jump\t// in\n    tag_213:\n      pop\n        /* \"@openzeppelin/contracts/access/AccessControl.sol\":4642:4780  function revokeRole(bytes32 role, address account) public virtual onlyRole(getRoleAdmin(role)) {... */\n      pop\n      pop\n      pop\n      jump\t// out\n        /* \"bittorrent/BitTorrentIntegration.sol\":403:469  bytes32 public constant OPERATOR_ROLE = keccak256(\"OPERATOR_ROLE\") */\n    tag_98:\n        /* \"bittorrent/BitTorrentIntegration.sol\":443:469  keccak256(\"OPERATOR_ROLE\") */\n      0x97667070c54ef182b0f5858b034beac1b6f3089aa2d3188bb1e8929f4fa9b929\n        /* \"bittorrent/BitTorrentIntegration.sol\":403:469  bytes32 public constant OPERATOR_ROLE = keccak256(\"OPERATOR_ROLE\") */\n      dup2\n      jump\t// out\n        /* \"@openzeppelin/contracts/utils/introspection/ERC165.sol\":763:909  function supportsInterface(bytes4 interfaceId) public view virtual returns (bool) {... */\n    tag_103:\n        /* \"@openzeppelin/contracts/utils/introspection/ERC165.sol\":839:843  bool */\n      0x00\n        /* \"@openzeppelin/contracts/utils/introspection/ERC165.sol\":877:902  type(IERC165).interfaceId */\n      0x01ffc9a700000000000000000000000000000000000000000000000000000000\n        /* \"@openzeppelin/contracts/utils/introspection/ERC165.sol\":862:902  interfaceId == type(IERC165).interfaceId */\n      not(0xffffffffffffffffffffffffffffffffffffffffffffffffffffffff)\n      and\n        /* \"@openzeppelin/contracts/utils/introspection/ERC165.sol\":862:873  interfaceId */\n      dup3\n        /* \"@openzeppelin/contracts/utils/introspection/ERC165.sol\":862:902  interfaceId == type(IERC165).interfaceId */\n      not(0xffffffffffffffffffffffffffffffffffffffffffffffffffffffff)\n      and\n      eq\n        /* \"@openzeppelin/contracts/utils/introspection/ERC165.sol\":855:902  return interfaceId == type(IERC165).interfaceId */\n      swap1\n      pop\n        /* \"@openzeppelin/contracts/utils/introspection/ERC165.sol\":763:909  function supportsInterface(bytes4 interfaceId) public view virtual returns (bool) {... */\n      swap2\n      swap1\n      pop\n      jump\t// out\n        /* \"@openzeppelin/contracts/access/AccessControl.sol\":3199:3302  function _checkRole(bytes32 role) internal view virtual {... */\n    tag_111:\n        /* \"@openzeppelin/contracts/access/AccessControl.sol\":3265:3295  _checkRole(role, _msgSender()) */\n      tag_216\n        /* \"@openzeppelin/contracts/access/AccessControl.sol\":3276:3280  role */\n      dup2\n        /* \"@openzeppelin/contracts/access/AccessControl.sol\":3282:3294  _msgSender() */\n      tag_217\n        /* \"@openzeppelin/contracts/access/AccessControl.sol\":3282:3292  _msgSender */\n      tag_117\n        /* \"@openzeppelin/contracts/access/AccessControl.sol\":3282:3294  _msgSender() */\n      jump\t// in\n    tag_217:\n        /* \"@openzeppelin/contracts/access/AccessControl.sol\":3265:3275  _checkRole */\n      tag_218\n        /* \"@openzeppelin/contracts/access/AccessControl.sol\":3265:3295  _checkRole(role, _msgSender()) */\n      jump\t// in\n    tag_216:\n        /* \"@openzeppelin/contracts/access/AccessControl.sol\":3199:3302  function _checkRole(bytes32 role) internal view virtual {... */\n      pop\n      jump\t// out\n        /* \"@openzeppelin/contracts/access/AccessControl.sol\":6179:6495  function _grantRole(bytes32 role, address account) internal virtual returns (bool) {... */\n    tag_114:\n        /* \"@openzeppelin/contracts/access/AccessControl.sol\":6256:6260  bool */\n      0x00\n        /* \"@openzeppelin/contracts/access/AccessControl.sol\":6277:6299  hasRole(role, account) */\n      tag_220\n        /* \"@openzeppelin/contracts/access/AccessControl.sol\":6285:6289  role */\n      dup4\n        /* \"@openzeppelin/contracts/access/AccessControl.sol\":6291:6298  account */\n      dup4\n        /* \"@openzeppelin/contracts/access/AccessControl.sol\":6277:6284  hasRole */\n      tag_74\n        /* \"@openzeppelin/contracts/access/AccessControl.sol\":6277:6299  hasRole(role, account) */\n      jump\t// in\n    tag_220:\n        /* \"@openzeppelin/contracts/access/AccessControl.sol\":6272:6489  if (!hasRole(role, account)) {... */\n      tag_221\n      jumpi\n        /* \"@openzeppelin/contracts/access/AccessControl.sol\":6347:6351  true */\n      0x01\n        /* \"@openzeppelin/contracts/access/AccessControl.sol\":6315:6321  _roles */\n      0x00\n        /* \"@openzeppelin/contracts/access/AccessControl.sol\":6315:6327  _roles[role] */\n      dup1\n        /* \"@openzeppelin/contracts/access/AccessControl.sol\":6322:6326  role */\n      dup6\n        /* \"@openzeppelin/contracts/access/AccessControl.sol\":6315:6327  _roles[role] */\n      dup2\n      mstore\n      0x20\n      add\n      swap1\n      dup2\n      mstore\n      0x20\n      add\n      0x00\n      keccak256\n        /* \"@openzeppelin/contracts/access/AccessControl.sol\":6315:6335  _roles[role].hasRole */\n      0x00\n      add\n        /* \"@openzeppelin/contracts/access/AccessControl.sol\":6315:6344  _roles[role].hasRole[account] */\n      0x00\n        /* \"@openzeppelin/contracts/access/AccessControl.sol\":6336:6343  account */\n      dup5\n        /* \"@openzeppelin/contracts/access/AccessControl.sol\":6315:6344  _roles[role].hasRole[account] */\n      0xffffffffffffffffffffffffffffffffffffffff\n      and\n      0xffffffffffffffffffffffffffffffffffffffff\n      and\n      dup2\n      mstore\n      0x20\n      add\n      swap1\n      dup2\n      mstore\n      0x20\n      add\n      0x00\n      keccak256\n      0x00\n        /* \"@openzeppelin/contracts/access/AccessControl.sol\":6315:6351  _roles[role].hasRole[account] = true */\n      0x0100\n      exp\n      dup2\n      sload\n      dup2\n      0xff\n      mul\n      not\n      and\n      swap1\n      dup4\n      iszero\n      iszero\n      mul\n      or\n      swap1\n      sstore\n      pop\n        /* \"@openzeppelin/contracts/access/AccessControl.sol\":6397:6409  _msgSender() */\n      tag_222\n        /* \"@openzeppelin/contracts/access/AccessControl.sol\":6397:6407  _msgSender */\n      tag_117\n        /* \"@openzeppelin/contracts/access/AccessControl.sol\":6397:6409  _msgSender() */\n      jump\t// in\n    tag_222:\n        /* \"@openzeppelin/contracts/access/AccessControl.sol\":6370:6410  RoleGranted(role, account, _msgSender()) */\n      0xffffffffffffffffffffffffffffffffffffffff\n      and\n        /* \"@openzeppelin/contracts/access/AccessControl.sol\":6388:6395  account */\n      dup3\n        /* \"@openzeppelin/contracts/access/AccessControl.sol\":6370:6410  RoleGranted(role, account, _msgSender()) */\n      0xffffffffffffffffffffffffffffffffffffffff\n      and\n        /* \"@openzeppelin/contracts/access/AccessControl.sol\":6382:6386  role */\n      dup5\n        /* \"@openzeppelin/contracts/access/AccessControl.sol\":6370:6410  RoleGranted(role, account, _msgSender()) */\n      0x2f8788117e7eff1d82e926ec794901d17c78024a50270940304540a733656f0d\n      mload(0x40)\n      mload(0x40)\n      dup1\n      swap2\n      sub\n      swap1\n      log4\n        /* \"@openzeppelin/contracts/access/AccessControl.sol\":6431:6435  true */\n      0x01\n        /* \"@openzeppelin/contracts/access/AccessControl.sol\":6424:6435  return true */\n      swap1\n      pop\n      jump(tag_219)\n        /* \"@openzeppelin/contracts/access/AccessControl.sol\":6272:6489  if (!hasRole(role, account)) {... */\n    tag_221:\n        /* \"@openzeppelin/contracts/access/AccessControl.sol\":6473:6478  false */\n      0x00\n        /* \"@openzeppelin/contracts/access/AccessControl.sol\":6466:6478  return false */\n      swap1\n      pop\n        /* \"@openzeppelin/contracts/access/AccessControl.sol\":6179:6495  function _grantRole(bytes32 role, address account) internal virtual returns (bool) {... */\n    tag_219:\n      swap3\n      swap2\n      pop\n      pop\n      jump\t// out\n        /* \"@openzeppelin/contracts/utils/Context.sol\":656:752  function _msgSender() internal view virtual returns (address) {... */\n    tag_117:\n        /* \"@openzeppelin/contracts/utils/Context.sol\":709:716  address */\n      0x00\n        /* \"@openzeppelin/contracts/utils/Context.sol\":735:745  msg.sender */\n      caller\n        /* \"@openzeppelin/contracts/utils/Context.sol\":728:745  return msg.sender */\n      swap1\n      pop\n        /* \"@openzeppelin/contracts/utils/Context.sol\":656:752  function _msgSender() internal view virtual returns (address) {... */\n      swap1\n      jump\t// out\n        /* \"@openzeppelin/contracts/access/AccessControl.sol\":6730:7047  function _revokeRole(bytes32 role, address account) internal virtual returns (bool) {... */\n    tag_120:\n        /* \"@openzeppelin/contracts/access/AccessControl.sol\":6808:6812  bool */\n      0x00\n        /* \"@openzeppelin/contracts/access/AccessControl.sol\":6828:6850  hasRole(role, account) */\n      tag_226\n        /* \"@openzeppelin/contracts/access/AccessControl.sol\":6836:6840  role */\n      dup4\n        /* \"@openzeppelin/contracts/access/AccessControl.sol\":6842:6849  account */\n      dup4\n        /* \"@openzeppelin/contracts/access/AccessControl.sol\":6828:6835  hasRole */\n      tag_74\n        /* \"@openzeppelin/contracts/access/AccessControl.sol\":6828:6850  hasRole(role, account) */\n      jump\t// in\n    tag_226:\n        /* \"@openzeppelin/contracts/access/AccessControl.sol\":6824:7041  if (hasRole(role, account)) {... */\n      iszero\n      tag_227\n      jumpi\n        /* \"@openzeppelin/contracts/access/AccessControl.sol\":6898:6903  false */\n      0x00\n        /* \"@openzeppelin/contracts/access/AccessControl.sol\":6866:6872  _roles */\n      dup1\n        /* \"@openzeppelin/contracts/access/AccessControl.sol\":6866:6878  _roles[role] */\n      0x00\n        /* \"@openzeppelin/contracts/access/AccessControl.sol\":6873:6877  role */\n      dup6\n        /* \"@openzeppelin/contracts/access/AccessControl.sol\":6866:6878  _roles[role] */\n      dup2\n      mstore\n      0x20\n      add\n      swap1\n      dup2\n      mstore\n      0x20\n      add\n      0x00\n      keccak256\n        /* \"@openzeppelin/contracts/access/AccessControl.sol\":6866:6886  _roles[role].hasRole */\n      0x00\n      add\n        /* \"@openzeppelin/contracts/access/AccessControl.sol\":6866:6895  _roles[role].hasRole[account] */\n      0x00\n        /* \"@openzeppelin/contracts/access/AccessControl.sol\":6887:6894  account */\n      dup5\n        /* \"@openzeppelin/contracts/access/AccessControl.sol\":6866:6895  _roles[role].hasRole[account] */\n      0xffffffffffffffffffffffffffffffffffffffff\n      and\n      0xffffffffffffffffffffffffffffffffffffffff\n      and\n      dup2\n      mstore\n      0x20\n      add\n      swap1\n      dup2\n      mstore\n      0x20\n      add\n      0x00\n      keccak256\n      0x00\n        /* \"@openzeppelin/contracts/access/AccessControl.sol\":6866:6903  _roles[role].hasRole[account] = false */\n      0x0100\n      exp\n      dup2\n      sload\n      dup2\n      0xff\n      mul\n      not\n      and\n      swap1\n      dup4\n      iszero\n      iszero\n      mul\n      or\n      swap1\n      sstore\n      pop\n        /* \"@openzeppelin/contracts/access/AccessControl.sol\":6949:6961  _msgSender() */\n      tag_228\n        /* \"@openzeppelin/contracts/access/AccessControl.sol\":6949:6959  _msgSender */\n      tag_117\n        /* \"@openzeppelin/contracts/access/AccessControl.sol\":6949:6961  _msgSender() */\n      jump\t// in\n    tag_228:\n        /* \"@openzeppelin/contracts/access/AccessControl.sol\":6922:6962  RoleRevoked(role, account, _msgSender()) */\n      0xffffffffffffffffffffffffffffffffffffffff\n      and\n        /* \"@openzeppelin/contracts/access/AccessControl.sol\":6940:6947  account */\n      dup3\n        /* \"@openzeppelin/contracts/access/AccessControl.sol\":6922:6962  RoleRevoked(role, account, _msgSender()) */\n      0xffffffffffffffffffffffffffffffffffffffff\n      and\n        /* \"@openzeppelin/contracts/access/AccessControl.sol\":6934:6938  role */\n      dup5\n        /* \"@openzeppelin/contracts/access/AccessControl.sol\":6922:6962  RoleRevoked(role, account, _msgSender()) */\n      0xf6391f5c32d9c69d2a47ea670b442974b53935d1edc7fd64eb21e047a839171b\n      mload(0x40)\n      mload(0x40)\n      dup1\n      swap2\n      sub\n      swap1\n      log4\n        /* \"@openzeppelin/contracts/access/AccessControl.sol\":6983:6987  true */\n      0x01\n        /* \"@openzeppelin/contracts/access/AccessControl.sol\":6976:6987  return true */\n      swap1\n      pop\n      jump(tag_225)\n        /* \"@openzeppelin/contracts/access/AccessControl.sol\":6824:7041  if (hasRole(role, account)) {... */\n    tag_227:\n        /* \"@openzeppelin/contracts/access/AccessControl.sol\":7025:7030  false */\n      0x00\n        /* \"@openzeppelin/contracts/access/AccessControl.sol\":7018:7030  return false */\n      swap1\n      pop\n        /* \"@openzeppelin/contracts/access/AccessControl.sol\":6730:7047  function _revokeRole(bytes32 role, address account) internal virtual returns (bool) {... */\n    tag_225:\n      swap3\n      swap2\n      pop\n      pop\n      jump\t// out\n        /* \"bittorrent/BitTorrentIntegration.sol\":3878:4174  function _isPeerInSwarm(bytes32 torrentHash, address peer) ... */\n    tag_123:\n        /* \"bittorrent/BitTorrentIntegration.sol\":3987:3991  bool */\n      0x00\n        /* \"bittorrent/BitTorrentIntegration.sol\":4008:4021  uint256 index */\n      dup1\n        /* \"bittorrent/BitTorrentIntegration.sol\":4024:4035  peerIndices */\n      0x05\n        /* \"bittorrent/BitTorrentIntegration.sol\":4024:4048  peerIndices[torrentHash] */\n      0x00\n        /* \"bittorrent/BitTorrentIntegration.sol\":4036:4047  torrentHash */\n      dup6\n        /* \"bittorrent/BitTorrentIntegration.sol\":4024:4048  peerIndices[torrentHash] */\n      dup2\n      mstore\n      0x20\n      add\n      swap1\n      dup2\n      mstore\n      0x20\n      add\n      0x00\n      keccak256\n        /* \"bittorrent/BitTorrentIntegration.sol\":4024:4054  peerIndices[torrentHash][peer] */\n      0x00\n        /* \"bittorrent/BitTorrentIntegration.sol\":4049:4053  peer */\n      dup5\n        /* \"bittorrent/BitTorrentIntegration.sol\":4024:4054  peerIndices[torrentHash][peer] */\n      0xffffffffffffffffffffffffffffffffffffffff\n      and\n      0xffffffffffffffffffffffffffffffffffffffff\n      and\n      dup2\n      mstore\n      0x20\n      add\n      swap1\n      dup2\n      mstore\n      0x20\n      add\n      0x00\n      keccak256\n      sload\n        /* \"bittorrent/BitTorrentIntegration.sol\":4008:4054  uint256 index = peerIndices[torrentHash][peer] */\n      swap1\n      pop\n        /* \"bittorrent/BitTorrentIntegration.sol\":4079:4089  swarmPeers */\n      0x04\n        /* \"bittorrent/BitTorrentIntegration.sol\":4079:4102  swarmPeers[torrentHash] */\n      0x00\n        /* \"bittorrent/BitTorrentIntegration.sol\":4090:4101  torrentHash */\n      dup6\n        /* \"bittorrent/BitTorrentIntegration.sol\":4079:4102  swarmPeers[torrentHash] */\n      dup2\n      mstore\n      0x20\n      add\n      swap1\n      dup2\n      mstore\n      0x20\n      add\n      0x00\n      keccak256\n        /* \"bittorrent/BitTorrentIntegration.sol\":4079:4109  swarmPeers[torrentHash].length */\n      dup1\n      sload\n      swap1\n      pop\n        /* \"bittorrent/BitTorrentIntegration.sol\":4071:4076  index */\n      dup2\n        /* \"bittorrent/BitTorrentIntegration.sol\":4071:4109  index < swarmPeers[torrentHash].length */\n      lt\n        /* \"bittorrent/BitTorrentIntegration.sol\":4071:4167  index < swarmPeers[torrentHash].length && ... */\n      dup1\n      iszero\n      tag_231\n      jumpi\n      pop\n        /* \"bittorrent/BitTorrentIntegration.sol\":4163:4167  peer */\n      dup3\n        /* \"bittorrent/BitTorrentIntegration.sol\":4129:4167  swarmPeers[torrentHash][index] == peer */\n      0xffffffffffffffffffffffffffffffffffffffff\n      and\n        /* \"bittorrent/BitTorrentIntegration.sol\":4129:4139  swarmPeers */\n      0x04\n        /* \"bittorrent/BitTorrentIntegration.sol\":4129:4152  swarmPeers[torrentHash] */\n      0x00\n        /* \"bittorrent/BitTorrentIntegration.sol\":4140:4151  torrentHash */\n      dup7\n        /* \"bittorrent/BitTorrentIntegration.sol\":4129:4152  swarmPeers[torrentHash] */\n      dup2\n      mstore\n      0x20\n      add\n      swap1\n      dup2\n      mstore\n      0x20\n      add\n      0x00\n      keccak256\n        /* \"bittorrent/BitTorrentIntegration.sol\":4153:4158  index */\n      dup3\n        /* \"bittorrent/BitTorrentIntegration.sol\":4129:4159  swarmPeers[torrentHash][index] */\n      dup2\n      sload\n      dup2\n      lt\n      tag_232\n      jumpi\n      tag_233\n      tag_194\n      jump\t// in\n    tag_233:\n    tag_232:\n      swap1\n      0x00\n      mstore\n      keccak256(0x00, 0x20)\n      add\n      0x00\n      swap1\n      sload\n      swap1\n      0x0100\n      exp\n      swap1\n      div\n      0xffffffffffffffffffffffffffffffffffffffff\n      and\n        /* \"bittorrent/BitTorrentIntegration.sol\":4129:4167  swarmPeers[torrentHash][index] == peer */\n      0xffffffffffffffffffffffffffffffffffffffff\n      and\n      eq\n        /* \"bittorrent/BitTorrentIntegration.sol\":4071:4167  index < swarmPeers[torrentHash].length && ... */\n    tag_231:\n        /* \"bittorrent/BitTorrentIntegration.sol\":4064:4167  return index < swarmPeers[torrentHash].length && ... */\n      swap2\n      pop\n      pop\n        /* \"bittorrent/BitTorrentIntegration.sol\":3878:4174  function _isPeerInSwarm(bytes32 torrentHash, address peer) ... */\n      swap3\n      swap2\n      pop\n      pop\n      jump\t// out\n        /* \"@openzeppelin/contracts/utils/Pausable.sol\":2710:2827  function _unpause() internal virtual whenPaused {... */\n    tag_128:\n        /* \"@openzeppelin/contracts/utils/Pausable.sol\":1721:1737  _requirePaused() */\n      tag_236\n        /* \"@openzeppelin/contracts/utils/Pausable.sol\":1721:1735  _requirePaused */\n      tag_237\n        /* \"@openzeppelin/contracts/utils/Pausable.sol\":1721:1737  _requirePaused() */\n      jump\t// in\n    tag_236:\n        /* \"@openzeppelin/contracts/utils/Pausable.sol\":2778:2783  false */\n      0x00\n        /* \"@openzeppelin/contracts/utils/Pausable.sol\":2768:2775  _paused */\n      0x01\n      0x00\n        /* \"@openzeppelin/contracts/utils/Pausable.sol\":2768:2783  _paused = false */\n      0x0100\n      exp\n      dup2\n      sload\n      dup2\n      0xff\n      mul\n      not\n      and\n      swap1\n      dup4\n      iszero\n      iszero\n      mul\n      or\n      swap1\n      sstore\n      pop\n        /* \"@openzeppelin/contracts/utils/Pausable.sol\":2798:2820  Unpaused(_msgSender()) */\n      0x5db9ee0a495bf2e6ff9c91a7834c1ba4fdd244a5e8aa4e537bd38aeae4b073aa\n        /* \"@openzeppelin/contracts/utils/Pausable.sol\":2807:2819  _msgSender() */\n      tag_239\n        /* \"@openzeppelin/contracts/utils/Pausable.sol\":2807:2817  _msgSender */\n      tag_117\n        /* \"@openzeppelin/contracts/utils/Pausable.sol\":2807:2819  _msgSender() */\n      jump\t// in\n    tag_239:\n        /* \"@openzeppelin/contracts/utils/Pausable.sol\":2798:2820  Unpaused(_msgSender()) */\n      mload(0x40)\n      tag_240\n      swap2\n      swap1\n      tag_241\n      jump\t// in\n    tag_240:\n      mload(0x40)\n      dup1\n      swap2\n      sub\n      swap1\n      log1\n        /* \"@openzeppelin/contracts/utils/Pausable.sol\":2710:2827  function _unpause() internal virtual whenPaused {... */\n      jump\t// out\n        /* \"@openzeppelin/contracts/utils/Pausable.sol\":2002:2130  function _requireNotPaused() internal view virtual {... */\n    tag_132:\n        /* \"@openzeppelin/contracts/utils/Pausable.sol\":2067:2075  paused() */\n      tag_243\n        /* \"@openzeppelin/contracts/utils/Pausable.sol\":2067:2073  paused */\n      tag_61\n        /* \"@openzeppelin/contracts/utils/Pausable.sol\":2067:2075  paused() */\n      jump\t// in\n    tag_243:\n        /* \"@openzeppelin/contracts/utils/Pausable.sol\":2063:2124  if (paused()) {... */\n      iszero\n      tag_244\n      jumpi\n        /* \"@openzeppelin/contracts/utils/Pausable.sol\":2098:2113  EnforcedPause() */\n      mload(0x40)\n      0xd93c066500000000000000000000000000000000000000000000000000000000\n      dup2\n      mstore\n      0x04\n      add\n      mload(0x40)\n      dup1\n      swap2\n      sub\n      swap1\n      revert\n        /* \"@openzeppelin/contracts/utils/Pausable.sol\":2063:2124  if (paused()) {... */\n    tag_244:\n        /* \"@openzeppelin/contracts/utils/Pausable.sol\":2002:2130  function _requireNotPaused() internal view virtual {... */\n      jump\t// out\n        /* \"@openzeppelin/contracts/utils/Pausable.sol\":2463:2578  function _pause() internal virtual whenNotPaused {... */\n    tag_150:\n        /* \"@openzeppelin/contracts/utils/Pausable.sol\":1474:1493  _requireNotPaused() */\n      tag_246\n        /* \"@openzeppelin/contracts/utils/Pausable.sol\":1474:1491  _requireNotPaused */\n      tag_132\n        /* \"@openzeppelin/contracts/utils/Pausable.sol\":1474:1493  _requireNotPaused() */\n      jump\t// in\n    tag_246:\n        /* \"@openzeppelin/contracts/utils/Pausable.sol\":2532:2536  true */\n      0x01\n        /* \"@openzeppelin/contracts/utils/Pausable.sol\":2522:2529  _paused */\n      dup1\n      0x00\n        /* \"@openzeppelin/contracts/utils/Pausable.sol\":2522:2536  _paused = true */\n      0x0100\n      exp\n      dup2\n      sload\n      dup2\n      0xff\n      mul\n      not\n      and\n      swap1\n      dup4\n      iszero\n      iszero\n      mul\n      or\n      swap1\n      sstore\n      pop\n        /* \"@openzeppelin/contracts/utils/Pausable.sol\":2551:2571  Paused(_msgSender()) */\n      0x62e78cea01bee320cd4e420270b5ea74000d11b0c9f74754ebdbfc544b05a258\n        /* \"@openzeppelin/contracts/utils/Pausable.sol\":2558:2570  _msgSender() */\n      tag_248\n        /* \"@openzeppelin/contracts/utils/Pausable.sol\":2558:2568  _msgSender */\n      tag_117\n        /* \"@openzeppelin/contracts/utils/Pausable.sol\":2558:2570  _msgSender() */\n      jump\t// in\n    tag_248:\n        /* \"@openzeppelin/contracts/utils/Pausable.sol\":2551:2571  Paused(_msgSender()) */\n      mload(0x40)\n      tag_249\n      swap2\n      swap1\n      tag_241\n      jump\t// in\n    tag_249:\n      mload(0x40)\n      dup1\n      swap2\n      sub\n      swap1\n      log1\n        /* \"@openzeppelin/contracts/utils/Pausable.sol\":2463:2578  function _pause() internal virtual whenNotPaused {... */\n      jump\t// out\n        /* \"@openzeppelin/contracts/utils/ReentrancyGuard.sol\":2575:2882  function _nonReentrantBefore() private {... */\n    tag_155:\n        /* \"@openzeppelin/contracts/utils/ReentrancyGuard.sol\":1899:1900  2 */\n      0x02\n        /* \"@openzeppelin/contracts/utils/ReentrancyGuard.sol\":2702:2709  _status */\n      dup1\n      sload\n        /* \"@openzeppelin/contracts/utils/ReentrancyGuard.sol\":2702:2720  _status == ENTERED */\n      sub\n        /* \"@openzeppelin/contracts/utils/ReentrancyGuard.sol\":2698:2784  if (_status == ENTERED) {... */\n      tag_251\n      jumpi\n        /* \"@openzeppelin/contracts/utils/ReentrancyGuard.sol\":2743:2773  ReentrancyGuardReentrantCall() */\n      mload(0x40)\n      0x3ee5aeb500000000000000000000000000000000000000000000000000000000\n      dup2\n      mstore\n      0x04\n      add\n      mload(0x40)\n      dup1\n      swap2\n      sub\n      swap1\n      revert\n        /* \"@openzeppelin/contracts/utils/ReentrancyGuard.sol\":2698:2784  if (_status == ENTERED) {... */\n    tag_251:\n        /* \"@openzeppelin/contracts/utils/ReentrancyGuard.sol\":1899:1900  2 */\n      0x02\n        /* \"@openzeppelin/contracts/utils/ReentrancyGuard.sol\":2858:2865  _status */\n      dup1\n        /* \"@openzeppelin/contracts/utils/ReentrancyGuard.sol\":2858:2875  _status = ENTERED */\n      dup2\n      swap1\n      sstore\n      pop\n        /* \"@openzeppelin/contracts/utils/ReentrancyGuard.sol\":2575:2882  function _nonReentrantBefore() private {... */\n      jump\t// out\n        /* \"@openzeppelin/contracts/utils/ReentrancyGuard.sol\":2888:3096  function _nonReentrantAfter() private {... */\n    tag_167:\n        /* \"@openzeppelin/contracts/utils/ReentrancyGuard.sol\":1857:1858  1 */\n      0x01\n        /* \"@openzeppelin/contracts/utils/ReentrancyGuard.sol\":3068:3075  _status */\n      0x02\n        /* \"@openzeppelin/contracts/utils/ReentrancyGuard.sol\":3068:3089  _status = NOT_ENTERED */\n      dup2\n      swap1\n      sstore\n      pop\n        /* \"@openzeppelin/contracts/utils/ReentrancyGuard.sol\":2888:3096  function _nonReentrantAfter() private {... */\n      jump\t// out\n        /* \"@openzeppelin/contracts/access/AccessControl.sol\":3432:3629  function _checkRole(bytes32 role, address account) internal view virtual {... */\n    tag_218:\n        /* \"@openzeppelin/contracts/access/AccessControl.sol\":3520:3542  hasRole(role, account) */\n      tag_254\n        /* \"@openzeppelin/contracts/access/AccessControl.sol\":3528:3532  role */\n      dup3\n        /* \"@openzeppelin/contracts/access/AccessControl.sol\":3534:3541  account */\n      dup3\n        /* \"@openzeppelin/contracts/access/AccessControl.sol\":3520:3527  hasRole */\n      tag_74\n        /* \"@openzeppelin/contracts/access/AccessControl.sol\":3520:3542  hasRole(role, account) */\n      jump\t// in\n    tag_254:\n        /* \"@openzeppelin/contracts/access/AccessControl.sol\":3515:3623  if (!hasRole(role, account)) {... */\n      tag_255\n      jumpi\n        /* \"@openzeppelin/contracts/access/AccessControl.sol\":3598:3605  account */\n      dup1\n        /* \"@openzeppelin/contracts/access/AccessControl.sol\":3607:3611  role */\n      dup3\n        /* \"@openzeppelin/contracts/access/AccessControl.sol\":3565:3612  AccessControlUnauthorizedAccount(account, role) */\n      mload(0x40)\n      0xe2517d3f00000000000000000000000000000000000000000000000000000000\n      dup2\n      mstore\n      0x04\n      add\n      tag_256\n      swap3\n      swap2\n      swap1\n      tag_257\n      jump\t// in\n    tag_256:\n      mload(0x40)\n      dup1\n      swap2\n      sub\n      swap1\n      revert\n        /* \"@openzeppelin/contracts/access/AccessControl.sol\":3515:3623  if (!hasRole(role, account)) {... */\n    tag_255:\n        /* \"@openzeppelin/contracts/access/AccessControl.sol\":3432:3629  function _checkRole(bytes32 role, address account) internal view virtual {... */\n      pop\n      pop\n      jump\t// out\n        /* \"@openzeppelin/contracts/utils/Pausable.sol\":2202:2328  function _requirePaused() internal view virtual {... */\n    tag_237:\n        /* \"@openzeppelin/contracts/utils/Pausable.sol\":2265:2273  paused() */\n      tag_259\n        /* \"@openzeppelin/contracts/utils/Pausable.sol\":2265:2271  paused */\n      tag_61\n        /* \"@openzeppelin/contracts/utils/Pausable.sol\":2265:2273  paused() */\n      jump\t// in\n    tag_259:\n        /* \"@openzeppelin/contracts/utils/Pausable.sol\":2260:2322  if (!paused()) {... */\n      tag_260\n      jumpi\n        /* \"@openzeppelin/contracts/utils/Pausable.sol\":2296:2311  ExpectedPause() */\n      mload(0x40)\n      0x8dfc202b00000000000000000000000000000000000000000000000000000000\n      dup2\n      mstore\n      0x04\n      add\n      mload(0x40)\n      dup1\n      swap2\n      sub\n      swap1\n      revert\n        /* \"@openzeppelin/contracts/utils/Pausable.sol\":2260:2322  if (!paused()) {... */\n    tag_260:\n        /* \"@openzeppelin/contracts/utils/Pausable.sol\":2202:2328  function _requirePaused() internal view virtual {... */\n      jump\t// out\n    tag_176:\n      pop\n      dup1\n      sload\n      tag_261\n      swap1\n      tag_135\n      jump\t// in\n    tag_261:\n      0x00\n      dup3\n      sstore\n      dup1\n      0x1f\n      lt\n      tag_263\n      jumpi\n      pop\n      jump(tag_262)\n    tag_263:\n      0x1f\n      add\n      0x20\n      swap1\n      div\n      swap1\n      0x00\n      mstore\n      keccak256(0x00, 0x20)\n      swap1\n      dup2\n      add\n      swap1\n      tag_264\n      swap2\n      swap1\n      tag_265\n      jump\t// in\n    tag_264:\n    tag_262:\n      pop\n      jump\t// out\n    tag_178:\n      pop\n      dup1\n      sload\n      0x00\n      dup3\n      sstore\n      swap1\n      0x00\n      mstore\n      keccak256(0x00, 0x20)\n      swap1\n      dup2\n      add\n      swap1\n      tag_267\n      swap2\n      swap1\n      tag_265\n      jump\t// in\n    tag_267:\n      pop\n      jump\t// out\n    tag_265:\n    tag_268:\n      dup1\n      dup3\n      gt\n      iszero\n      tag_269\n      jumpi\n      0x00\n      dup2\n      0x00\n      swap1\n      sstore\n      pop\n      0x01\n      add\n      jump(tag_268)\n    tag_269:\n      pop\n      swap1\n      jump\t// out\n        /* \"#utility.yul\":7:82   */\n    tag_270:\n        /* \"#utility.yul\":40:46   */\n      0x00\n        /* \"#utility.yul\":73:75   */\n      0x40\n        /* \"#utility.yul\":67:76   */\n      mload\n        /* \"#utility.yul\":57:76   */\n      swap1\n      pop\n        /* \"#utility.yul\":7:82   */\n      swap1\n      jump\t// out\n        /* \"#utility.yul\":88:205   */\n    tag_271:\n        /* \"#utility.yul\":197:198   */\n      0x00\n        /* \"#utility.yul\":194:195   */\n      dup1\n        /* \"#utility.yul\":187:199   */\n      revert\n        /* \"#utility.yul\":211:328   */\n    tag_272:\n        /* \"#utility.yul\":320:321   */\n      0x00\n        /* \"#utility.yul\":317:318   */\n      dup1\n        /* \"#utility.yul\":310:322   */\n      revert\n        /* \"#utility.yul\":334:483   */\n    tag_273:\n        /* \"#utility.yul\":370:377   */\n      0x00\n        /* \"#utility.yul\":410:476   */\n      0xffffffff00000000000000000000000000000000000000000000000000000000\n        /* \"#utility.yul\":403:408   */\n      dup3\n        /* \"#utility.yul\":399:477   */\n      and\n        /* \"#utility.yul\":388:477   */\n      swap1\n      pop\n        /* \"#utility.yul\":334:483   */\n      swap2\n      swap1\n      pop\n      jump\t// out\n        /* \"#utility.yul\":489:609   */\n    tag_274:\n        /* \"#utility.yul\":561:584   */\n      tag_349\n        /* \"#utility.yul\":578:583   */\n      dup2\n        /* \"#utility.yul\":561:584   */\n      tag_273\n      jump\t// in\n    tag_349:\n        /* \"#utility.yul\":554:559   */\n      dup2\n        /* \"#utility.yul\":551:585   */\n      eq\n        /* \"#utility.yul\":541:603   */\n      tag_350\n      jumpi\n        /* \"#utility.yul\":599:600   */\n      0x00\n        /* \"#utility.yul\":596:597   */\n      dup1\n        /* \"#utility.yul\":589:601   */\n      revert\n        /* \"#utility.yul\":541:603   */\n    tag_350:\n        /* \"#utility.yul\":489:609   */\n      pop\n      jump\t// out\n        /* \"#utility.yul\":615:752   */\n    tag_275:\n        /* \"#utility.yul\":660:665   */\n      0x00\n        /* \"#utility.yul\":698:704   */\n      dup2\n        /* \"#utility.yul\":685:705   */\n      calldataload\n        /* \"#utility.yul\":676:705   */\n      swap1\n      pop\n        /* \"#utility.yul\":714:746   */\n      tag_352\n        /* \"#utility.yul\":740:745   */\n      dup2\n        /* \"#utility.yul\":714:746   */\n      tag_274\n      jump\t// in\n    tag_352:\n        /* \"#utility.yul\":615:752   */\n      swap3\n      swap2\n      pop\n      pop\n      jump\t// out\n        /* \"#utility.yul\":758:1085   */\n    tag_28:\n        /* \"#utility.yul\":816:822   */\n      0x00\n        /* \"#utility.yul\":865:867   */\n      0x20\n        /* \"#utility.yul\":853:862   */\n      dup3\n        /* \"#utility.yul\":844:851   */\n      dup5\n        /* \"#utility.yul\":840:863   */\n      sub\n        /* \"#utility.yul\":836:868   */\n      slt\n        /* \"#utility.yul\":833:952   */\n      iszero\n      tag_354\n      jumpi\n        /* \"#utility.yul\":871:950   */\n      tag_355\n      tag_271\n      jump\t// in\n    tag_355:\n        /* \"#utility.yul\":833:952   */\n    tag_354:\n        /* \"#utility.yul\":991:992   */\n      0x00\n        /* \"#utility.yul\":1016:1068   */\n      tag_356\n        /* \"#utility.yul\":1060:1067   */\n      dup5\n        /* \"#utility.yul\":1051:1057   */\n      dup3\n        /* \"#utility.yul\":1040:1049   */\n      dup6\n        /* \"#utility.yul\":1036:1058   */\n      add\n        /* \"#utility.yul\":1016:1068   */\n      tag_275\n      jump\t// in\n    tag_356:\n        /* \"#utility.yul\":1006:1068   */\n      swap2\n      pop\n        /* \"#utility.yul\":962:1078   */\n      pop\n        /* \"#utility.yul\":758:1085   */\n      swap3\n      swap2\n      pop\n      pop\n      jump\t// out\n        /* \"#utility.yul\":1091:1181   */\n    tag_276:\n        /* \"#utility.yul\":1125:1132   */\n      0x00\n        /* \"#utility.yul\":1168:1173   */\n      dup2\n        /* \"#utility.yul\":1161:1174   */\n      iszero\n        /* \"#utility.yul\":1154:1175   */\n      iszero\n        /* \"#utility.yul\":1143:1175   */\n      swap1\n      pop\n        /* \"#utility.yul\":1091:1181   */\n      swap2\n      swap1\n      pop\n      jump\t// out\n        /* \"#utility.yul\":1187:1296   */\n    tag_277:\n        /* \"#utility.yul\":1268:1289   */\n      tag_359\n        /* \"#utility.yul\":1283:1288   */\n      dup2\n        /* \"#utility.yul\":1268:1289   */\n      tag_276\n      jump\t// in\n    tag_359:\n        /* \"#utility.yul\":1263:1266   */\n      dup3\n        /* \"#utility.yul\":1256:1290   */\n      mstore\n        /* \"#utility.yul\":1187:1296   */\n      pop\n      pop\n      jump\t// out\n        /* \"#utility.yul\":1302:1512   */\n    tag_31:\n        /* \"#utility.yul\":1389:1393   */\n      0x00\n        /* \"#utility.yul\":1427:1429   */\n      0x20\n        /* \"#utility.yul\":1416:1425   */\n      dup3\n        /* \"#utility.yul\":1412:1430   */\n      add\n        /* \"#utility.yul\":1404:1430   */\n      swap1\n      pop\n        /* \"#utility.yul\":1440:1505   */\n      tag_361\n        /* \"#utility.yul\":1502:1503   */\n      0x00\n        /* \"#utility.yul\":1491:1500   */\n      dup4\n        /* \"#utility.yul\":1487:1504   */\n      add\n        /* \"#utility.yul\":1478:1484   */\n      dup5\n        /* \"#utility.yul\":1440:1505   */\n      tag_277\n      jump\t// in\n    tag_361:\n        /* \"#utility.yul\":1302:1512   */\n      swap3\n      swap2\n      pop\n      pop\n      jump\t// out\n        /* \"#utility.yul\":1518:1595   */\n    tag_278:\n        /* \"#utility.yul\":1555:1562   */\n      0x00\n        /* \"#utility.yul\":1584:1589   */\n      dup2\n        /* \"#utility.yul\":1573:1589   */\n      swap1\n      pop\n        /* \"#utility.yul\":1518:1595   */\n      swap2\n      swap1\n      pop\n      jump\t// out\n        /* \"#utility.yul\":1601:1723   */\n    tag_279:\n        /* \"#utility.yul\":1674:1698   */\n      tag_364\n        /* \"#utility.yul\":1692:1697   */\n      dup2\n        /* \"#utility.yul\":1674:1698   */\n      tag_278\n      jump\t// in\n    tag_364:\n        /* \"#utility.yul\":1667:1672   */\n      dup2\n        /* \"#utility.yul\":1664:1699   */\n      eq\n        /* \"#utility.yul\":1654:1717   */\n      tag_365\n      jumpi\n        /* \"#utility.yul\":1713:1714   */\n      0x00\n        /* \"#utility.yul\":1710:1711   */\n      dup1\n        /* \"#utility.yul\":1703:1715   */\n      revert\n        /* \"#utility.yul\":1654:1717   */\n    tag_365:\n        /* \"#utility.yul\":1601:1723   */\n      pop\n      jump\t// out\n        /* \"#utility.yul\":1729:1868   */\n    tag_280:\n        /* \"#utility.yul\":1775:1780   */\n      0x00\n        /* \"#utility.yul\":1813:1819   */\n      dup2\n        /* \"#utility.yul\":1800:1820   */\n      calldataload\n        /* \"#utility.yul\":1791:1820   */\n      swap1\n      pop\n        /* \"#utility.yul\":1829:1862   */\n      tag_367\n        /* \"#utility.yul\":1856:1861   */\n      dup2\n        /* \"#utility.yul\":1829:1862   */\n      tag_279\n      jump\t// in\n    tag_367:\n        /* \"#utility.yul\":1729:1868   */\n      swap3\n      swap2\n      pop\n      pop\n      jump\t// out\n        /* \"#utility.yul\":1874:2203   */\n    tag_34:\n        /* \"#utility.yul\":1933:1939   */\n      0x00\n        /* \"#utility.yul\":1982:1984   */\n      0x20\n        /* \"#utility.yul\":1970:1979   */\n      dup3\n        /* \"#utility.yul\":1961:1968   */\n      dup5\n        /* \"#utility.yul\":1957:1980   */\n      sub\n        /* \"#utility.yul\":1953:1985   */\n      slt\n        /* \"#utility.yul\":1950:2069   */\n      iszero\n      tag_369\n      jumpi\n        /* \"#utility.yul\":1988:2067   */\n      tag_370\n      tag_271\n      jump\t// in\n    tag_370:\n        /* \"#utility.yul\":1950:2069   */\n    tag_369:\n        /* \"#utility.yul\":2108:2109   */\n      0x00\n        /* \"#utility.yul\":2133:2186   */\n      tag_371\n        /* \"#utility.yul\":2178:2185   */\n      dup5\n        /* \"#utility.yul\":2169:2175   */\n      dup3\n        /* \"#utility.yul\":2158:2167   */\n      dup6\n        /* \"#utility.yul\":2154:2176   */\n      add\n        /* \"#utility.yul\":2133:2186   */\n      tag_280\n      jump\t// in\n    tag_371:\n        /* \"#utility.yul\":2123:2186   */\n      swap2\n      pop\n        /* \"#utility.yul\":2079:2196   */\n      pop\n        /* \"#utility.yul\":1874:2203   */\n      swap3\n      swap2\n      pop\n      pop\n      jump\t// out\n        /* \"#utility.yul\":2209:2323   */\n    tag_281:\n        /* \"#utility.yul\":2276:2282   */\n      0x00\n        /* \"#utility.yul\":2310:2315   */\n      dup2\n        /* \"#utility.yul\":2304:2316   */\n      mload\n        /* \"#utility.yul\":2294:2316   */\n      swap1\n      pop\n        /* \"#utility.yul\":2209:2323   */\n      swap2\n      swap1\n      pop\n      jump\t// out\n        /* \"#utility.yul\":2329:2513   */\n    tag_282:\n        /* \"#utility.yul\":2428:2439   */\n      0x00\n        /* \"#utility.yul\":2462:2468   */\n      dup3\n        /* \"#utility.yul\":2457:2460   */\n      dup3\n        /* \"#utility.yul\":2450:2469   */\n      mstore\n        /* \"#utility.yul\":2502:2506   */\n      0x20\n        /* \"#utility.yul\":2497:2500   */\n      dup3\n        /* \"#utility.yul\":2493:2507   */\n      add\n        /* \"#utility.yul\":2478:2507   */\n      swap1\n      pop\n        /* \"#utility.yul\":2329:2513   */\n      swap3\n      swap2\n      pop\n      pop\n      jump\t// out\n        /* \"#utility.yul\":2519:2651   */\n    tag_283:\n        /* \"#utility.yul\":2586:2590   */\n      0x00\n        /* \"#utility.yul\":2609:2612   */\n      dup2\n        /* \"#utility.yul\":2601:2612   */\n      swap1\n      pop\n        /* \"#utility.yul\":2639:2643   */\n      0x20\n        /* \"#utility.yul\":2634:2637   */\n      dup3\n        /* \"#utility.yul\":2630:2644   */\n      add\n        /* \"#utility.yul\":2622:2644   */\n      swap1\n      pop\n        /* \"#utility.yul\":2519:2651   */\n      swap2\n      swap1\n      pop\n      jump\t// out\n        /* \"#utility.yul\":2657:2783   */\n    tag_284:\n        /* \"#utility.yul\":2694:2701   */\n      0x00\n        /* \"#utility.yul\":2734:2776   */\n      0xffffffffffffffffffffffffffffffffffffffff\n        /* \"#utility.yul\":2727:2732   */\n      dup3\n        /* \"#utility.yul\":2723:2777   */\n      and\n        /* \"#utility.yul\":2712:2777   */\n      swap1\n      pop\n        /* \"#utility.yul\":2657:2783   */\n      swap2\n      swap1\n      pop\n      jump\t// out\n        /* \"#utility.yul\":2789:2885   */\n    tag_285:\n        /* \"#utility.yul\":2826:2833   */\n      0x00\n        /* \"#utility.yul\":2855:2879   */\n      tag_377\n        /* \"#utility.yul\":2873:2878   */\n      dup3\n        /* \"#utility.yul\":2855:2879   */\n      tag_284\n      jump\t// in\n    tag_377:\n        /* \"#utility.yul\":2844:2879   */\n      swap1\n      pop\n        /* \"#utility.yul\":2789:2885   */\n      swap2\n      swap1\n      pop\n      jump\t// out\n        /* \"#utility.yul\":2891:2999   */\n    tag_286:\n        /* \"#utility.yul\":2968:2992   */\n      tag_379\n        /* \"#utility.yul\":2986:2991   */\n      dup2\n        /* \"#utility.yul\":2968:2992   */\n      tag_285\n      jump\t// in\n    tag_379:\n        /* \"#utility.yul\":2963:2966   */\n      dup3\n        /* \"#utility.yul\":2956:2993   */\n      mstore\n        /* \"#utility.yul\":2891:2999   */\n      pop\n      pop\n      jump\t// out\n        /* \"#utility.yul\":3005:3184   */\n    tag_287:\n        /* \"#utility.yul\":3074:3084   */\n      0x00\n        /* \"#utility.yul\":3095:3141   */\n      tag_381\n        /* \"#utility.yul\":3137:3140   */\n      dup4\n        /* \"#utility.yul\":3129:3135   */\n      dup4\n        /* \"#utility.yul\":3095:3141   */\n      tag_286\n      jump\t// in\n    tag_381:\n        /* \"#utility.yul\":3173:3177   */\n      0x20\n        /* \"#utility.yul\":3168:3171   */\n      dup4\n        /* \"#utility.yul\":3164:3178   */\n      add\n        /* \"#utility.yul\":3150:3178   */\n      swap1\n      pop\n        /* \"#utility.yul\":3005:3184   */\n      swap3\n      swap2\n      pop\n      pop\n      jump\t// out\n        /* \"#utility.yul\":3190:3303   */\n    tag_288:\n        /* \"#utility.yul\":3260:3264   */\n      0x00\n        /* \"#utility.yul\":3292:3296   */\n      0x20\n        /* \"#utility.yul\":3287:3290   */\n      dup3\n        /* \"#utility.yul\":3283:3297   */\n      add\n        /* \"#utility.yul\":3275:3297   */\n      swap1\n      pop\n        /* \"#utility.yul\":3190:3303   */\n      swap2\n      swap1\n      pop\n      jump\t// out\n        /* \"#utility.yul\":3339:4071   */\n    tag_289:\n        /* \"#utility.yul\":3458:3461   */\n      0x00\n        /* \"#utility.yul\":3487:3541   */\n      tag_384\n        /* \"#utility.yul\":3535:3540   */\n      dup3\n        /* \"#utility.yul\":3487:3541   */\n      tag_281\n      jump\t// in\n    tag_384:\n        /* \"#utility.yul\":3557:3643   */\n      tag_385\n        /* \"#utility.yul\":3636:3642   */\n      dup2\n        /* \"#utility.yul\":3631:3634   */\n      dup6\n        /* \"#utility.yul\":3557:3643   */\n      tag_282\n      jump\t// in\n    tag_385:\n        /* \"#utility.yul\":3550:3643   */\n      swap4\n      pop\n        /* \"#utility.yul\":3667:3723   */\n      tag_386\n        /* \"#utility.yul\":3717:3722   */\n      dup4\n        /* \"#utility.yul\":3667:3723   */\n      tag_283\n      jump\t// in\n    tag_386:\n        /* \"#utility.yul\":3746:3753   */\n      dup1\n        /* \"#utility.yul\":3777:3778   */\n      0x00\n        /* \"#utility.yul\":3762:4046   */\n    tag_387:\n        /* \"#utility.yul\":3787:3793   */\n      dup4\n        /* \"#utility.yul\":3784:3785   */\n      dup2\n        /* \"#utility.yul\":3781:3794   */\n      lt\n        /* \"#utility.yul\":3762:4046   */\n      iszero\n      tag_389\n      jumpi\n        /* \"#utility.yul\":3863:3869   */\n      dup2\n        /* \"#utility.yul\":3857:3870   */\n      mload\n        /* \"#utility.yul\":3890:3953   */\n      tag_390\n        /* \"#utility.yul\":3949:3952   */\n      dup9\n        /* \"#utility.yul\":3934:3947   */\n      dup3\n        /* \"#utility.yul\":3890:3953   */\n      tag_287\n      jump\t// in\n    tag_390:\n        /* \"#utility.yul\":3883:3953   */\n      swap8\n      pop\n        /* \"#utility.yul\":3976:4036   */\n      tag_391\n        /* \"#utility.yul\":4029:4035   */\n      dup4\n        /* \"#utility.yul\":3976:4036   */\n      tag_288\n      jump\t// in\n    tag_391:\n        /* \"#utility.yul\":3966:4036   */\n      swap3\n      pop\n        /* \"#utility.yul\":3822:4046   */\n      pop\n        /* \"#utility.yul\":3809:3810   */\n      0x01\n        /* \"#utility.yul\":3806:3807   */\n      dup2\n        /* \"#utility.yul\":3802:3811   */\n      add\n        /* \"#utility.yul\":3797:3811   */\n      swap1\n      pop\n        /* \"#utility.yul\":3762:4046   */\n      jump(tag_387)\n    tag_389:\n        /* \"#utility.yul\":3766:3780   */\n      pop\n        /* \"#utility.yul\":4062:4065   */\n      dup6\n        /* \"#utility.yul\":4055:4065   */\n      swap4\n      pop\n        /* \"#utility.yul\":3463:4071   */\n      pop\n      pop\n      pop\n        /* \"#utility.yul\":3339:4071   */\n      swap3\n      swap2\n      pop\n      pop\n      jump\t// out\n        /* \"#utility.yul\":4077:4450   */\n    tag_37:\n        /* \"#utility.yul\":4220:4224   */\n      0x00\n        /* \"#utility.yul\":4258:4260   */\n      0x20\n        /* \"#utility.yul\":4247:4256   */\n      dup3\n        /* \"#utility.yul\":4243:4261   */\n      add\n        /* \"#utility.yul\":4235:4261   */\n      swap1\n      pop\n        /* \"#utility.yul\":4307:4316   */\n      dup2\n        /* \"#utility.yul\":4301:4305   */\n      dup2\n        /* \"#utility.yul\":4297:4317   */\n      sub\n        /* \"#utility.yul\":4293:4294   */\n      0x00\n        /* \"#utility.yul\":4282:4291   */\n      dup4\n        /* \"#utility.yul\":4278:4295   */\n      add\n        /* \"#utility.yul\":4271:4318   */\n      mstore\n        /* \"#utility.yul\":4335:4443   */\n      tag_393\n        /* \"#utility.yul\":4438:4442   */\n      dup2\n        /* \"#utility.yul\":4429:4435   */\n      dup5\n        /* \"#utility.yul\":4335:4443   */\n      tag_289\n      jump\t// in\n    tag_393:\n        /* \"#utility.yul\":4327:4443   */\n      swap1\n      pop\n        /* \"#utility.yul\":4077:4450   */\n      swap3\n      swap2\n      pop\n      pop\n      jump\t// out\n        /* \"#utility.yul\":4456:4574   */\n    tag_290:\n        /* \"#utility.yul\":4543:4567   */\n      tag_395\n        /* \"#utility.yul\":4561:4566   */\n      dup2\n        /* \"#utility.yul\":4543:4567   */\n      tag_278\n      jump\t// in\n    tag_395:\n        /* \"#utility.yul\":4538:4541   */\n      dup3\n        /* \"#utility.yul\":4531:4568   */\n      mstore\n        /* \"#utility.yul\":4456:4574   */\n      pop\n      pop\n      jump\t// out\n        /* \"#utility.yul\":4580:4802   */\n    tag_42:\n        /* \"#utility.yul\":4673:4677   */\n      0x00\n        /* \"#utility.yul\":4711:4713   */\n      0x20\n        /* \"#utility.yul\":4700:4709   */\n      dup3\n        /* \"#utility.yul\":4696:4714   */\n      add\n        /* \"#utility.yul\":4688:4714   */\n      swap1\n      pop\n        /* \"#utility.yul\":4724:4795   */\n      tag_397\n        /* \"#utility.yul\":4792:4793   */\n      0x00\n        /* \"#utility.yul\":4781:4790   */\n      dup4\n        /* \"#utility.yul\":4777:4794   */\n      add\n        /* \"#utility.yul\":4768:4774   */\n      dup5\n        /* \"#utility.yul\":4724:4795   */\n      tag_290\n      jump\t// in\n    tag_397:\n        /* \"#utility.yul\":4580:4802   */\n      swap3\n      swap2\n      pop\n      pop\n      jump\t// out\n        /* \"#utility.yul\":4808:4868   */\n    tag_291:\n        /* \"#utility.yul\":4836:4839   */\n      0x00\n        /* \"#utility.yul\":4857:4862   */\n      dup2\n        /* \"#utility.yul\":4850:4862   */\n      swap1\n      pop\n        /* \"#utility.yul\":4808:4868   */\n      swap2\n      swap1\n      pop\n      jump\t// out\n        /* \"#utility.yul\":4874:5016   */\n    tag_292:\n        /* \"#utility.yul\":4924:4933   */\n      0x00\n        /* \"#utility.yul\":4957:5010   */\n      tag_400\n        /* \"#utility.yul\":4975:5009   */\n      tag_401\n        /* \"#utility.yul\":4984:5008   */\n      tag_402\n        /* \"#utility.yul\":5002:5007   */\n      dup5\n        /* \"#utility.yul\":4984:5008   */\n      tag_284\n      jump\t// in\n    tag_402:\n        /* \"#utility.yul\":4975:5009   */\n      tag_291\n      jump\t// in\n    tag_401:\n        /* \"#utility.yul\":4957:5010   */\n      tag_284\n      jump\t// in\n    tag_400:\n        /* \"#utility.yul\":4944:5010   */\n      swap1\n      pop\n        /* \"#utility.yul\":4874:5016   */\n      swap2\n      swap1\n      pop\n      jump\t// out\n        /* \"#utility.yul\":5022:5148   */\n    tag_293:\n        /* \"#utility.yul\":5072:5081   */\n      0x00\n        /* \"#utility.yul\":5105:5142   */\n      tag_404\n        /* \"#utility.yul\":5136:5141   */\n      dup3\n        /* \"#utility.yul\":5105:5142   */\n      tag_292\n      jump\t// in\n    tag_404:\n        /* \"#utility.yul\":5092:5142   */\n      swap1\n      pop\n        /* \"#utility.yul\":5022:5148   */\n      swap2\n      swap1\n      pop\n      jump\t// out\n        /* \"#utility.yul\":5154:5298   */\n    tag_294:\n        /* \"#utility.yul\":5222:5231   */\n      0x00\n        /* \"#utility.yul\":5255:5292   */\n      tag_406\n        /* \"#utility.yul\":5286:5291   */\n      dup3\n        /* \"#utility.yul\":5255:5292   */\n      tag_293\n      jump\t// in\n    tag_406:\n        /* \"#utility.yul\":5242:5292   */\n      swap1\n      pop\n        /* \"#utility.yul\":5154:5298   */\n      swap2\n      swap1\n      pop\n      jump\t// out\n        /* \"#utility.yul\":5304:5471   */\n    tag_295:\n        /* \"#utility.yul\":5409:5464   */\n      tag_408\n        /* \"#utility.yul\":5458:5463   */\n      dup2\n        /* \"#utility.yul\":5409:5464   */\n      tag_294\n      jump\t// in\n    tag_408:\n        /* \"#utility.yul\":5404:5407   */\n      dup3\n        /* \"#utility.yul\":5397:5465   */\n      mstore\n        /* \"#utility.yul\":5304:5471   */\n      pop\n      pop\n      jump\t// out\n        /* \"#utility.yul\":5477:5735   */\n    tag_46:\n        /* \"#utility.yul\":5588:5592   */\n      0x00\n        /* \"#utility.yul\":5626:5628   */\n      0x20\n        /* \"#utility.yul\":5615:5624   */\n      dup3\n        /* \"#utility.yul\":5611:5629   */\n      add\n        /* \"#utility.yul\":5603:5629   */\n      swap1\n      pop\n        /* \"#utility.yul\":5639:5728   */\n      tag_410\n        /* \"#utility.yul\":5725:5726   */\n      0x00\n        /* \"#utility.yul\":5714:5723   */\n      dup4\n        /* \"#utility.yul\":5710:5727   */\n      add\n        /* \"#utility.yul\":5701:5707   */\n      dup5\n        /* \"#utility.yul\":5639:5728   */\n      tag_295\n      jump\t// in\n    tag_410:\n        /* \"#utility.yul\":5477:5735   */\n      swap3\n      swap2\n      pop\n      pop\n      jump\t// out\n        /* \"#utility.yul\":5741:5863   */\n    tag_296:\n        /* \"#utility.yul\":5814:5838   */\n      tag_412\n        /* \"#utility.yul\":5832:5837   */\n      dup2\n        /* \"#utility.yul\":5814:5838   */\n      tag_285\n      jump\t// in\n    tag_412:\n        /* \"#utility.yul\":5807:5812   */\n      dup2\n        /* \"#utility.yul\":5804:5839   */\n      eq\n        /* \"#utility.yul\":5794:5857   */\n      tag_413\n      jumpi\n        /* \"#utility.yul\":5853:5854   */\n      0x00\n        /* \"#utility.yul\":5850:5851   */\n      dup1\n        /* \"#utility.yul\":5843:5855   */\n      revert\n        /* \"#utility.yul\":5794:5857   */\n    tag_413:\n        /* \"#utility.yul\":5741:5863   */\n      pop\n      jump\t// out\n        /* \"#utility.yul\":5869:6008   */\n    tag_297:\n        /* \"#utility.yul\":5915:5920   */\n      0x00\n        /* \"#utility.yul\":5953:5959   */\n      dup2\n        /* \"#utility.yul\":5940:5960   */\n      calldataload\n        /* \"#utility.yul\":5931:5960   */\n      swap1\n      pop\n        /* \"#utility.yul\":5969:6002   */\n      tag_415\n        /* \"#utility.yul\":5996:6001   */\n      dup2\n        /* \"#utility.yul\":5969:6002   */\n      tag_296\n      jump\t// in\n    tag_415:\n        /* \"#utility.yul\":5869:6008   */\n      swap3\n      swap2\n      pop\n      pop\n      jump\t// out\n        /* \"#utility.yul\":6014:6488   */\n    tag_49:\n        /* \"#utility.yul\":6082:6088   */\n      0x00\n        /* \"#utility.yul\":6090:6096   */\n      dup1\n        /* \"#utility.yul\":6139:6141   */\n      0x40\n        /* \"#utility.yul\":6127:6136   */\n      dup4\n        /* \"#utility.yul\":6118:6125   */\n      dup6\n        /* \"#utility.yul\":6114:6137   */\n      sub\n        /* \"#utility.yul\":6110:6142   */\n      slt\n        /* \"#utility.yul\":6107:6226   */\n      iszero\n      tag_417\n      jumpi\n        /* \"#utility.yul\":6145:6224   */\n      tag_418\n      tag_271\n      jump\t// in\n    tag_418:\n        /* \"#utility.yul\":6107:6226   */\n    tag_417:\n        /* \"#utility.yul\":6265:6266   */\n      0x00\n        /* \"#utility.yul\":6290:6343   */\n      tag_419\n        /* \"#utility.yul\":6335:6342   */\n      dup6\n        /* \"#utility.yul\":6326:6332   */\n      dup3\n        /* \"#utility.yul\":6315:6324   */\n      dup7\n        /* \"#utility.yul\":6311:6333   */\n      add\n        /* \"#utility.yul\":6290:6343   */\n      tag_280\n      jump\t// in\n    tag_419:\n        /* \"#utility.yul\":6280:6343   */\n      swap3\n      pop\n        /* \"#utility.yul\":6236:6353   */\n      pop\n        /* \"#utility.yul\":6392:6394   */\n      0x20\n        /* \"#utility.yul\":6418:6471   */\n      tag_420\n        /* \"#utility.yul\":6463:6470   */\n      dup6\n        /* \"#utility.yul\":6454:6460   */\n      dup3\n        /* \"#utility.yul\":6443:6452   */\n      dup7\n        /* \"#utility.yul\":6439:6461   */\n      add\n        /* \"#utility.yul\":6418:6471   */\n      tag_297\n      jump\t// in\n    tag_420:\n        /* \"#utility.yul\":6408:6471   */\n      swap2\n      pop\n        /* \"#utility.yul\":6363:6481   */\n      pop\n        /* \"#utility.yul\":6014:6488   */\n      swap3\n      pop\n      swap3\n      swap1\n      pop\n      jump\t// out\n        /* \"#utility.yul\":6494:6611   */\n    tag_298:\n        /* \"#utility.yul\":6603:6604   */\n      0x00\n        /* \"#utility.yul\":6600:6601   */\n      dup1\n        /* \"#utility.yul\":6593:6605   */\n      revert\n        /* \"#utility.yul\":6617:6734   */\n    tag_299:\n        /* \"#utility.yul\":6726:6727   */\n      0x00\n        /* \"#utility.yul\":6723:6724   */\n      dup1\n        /* \"#utility.yul\":6716:6728   */\n      revert\n        /* \"#utility.yul\":6740:6842   */\n    tag_300:\n        /* \"#utility.yul\":6781:6787   */\n      0x00\n        /* \"#utility.yul\":6832:6834   */\n      0x1f\n        /* \"#utility.yul\":6828:6835   */\n      not\n        /* \"#utility.yul\":6823:6825   */\n      0x1f\n        /* \"#utility.yul\":6816:6821   */\n      dup4\n        /* \"#utility.yul\":6812:6826   */\n      add\n        /* \"#utility.yul\":6808:6836   */\n      and\n        /* \"#utility.yul\":6798:6836   */\n      swap1\n      pop\n        /* \"#utility.yul\":6740:6842   */\n      swap2\n      swap1\n      pop\n      jump\t// out\n        /* \"#utility.yul\":6848:7028   */\n    tag_301:\n        /* \"#utility.yul\":6896:6973   */\n      0x4e487b7100000000000000000000000000000000000000000000000000000000\n        /* \"#utility.yul\":6893:6894   */\n      0x00\n        /* \"#utility.yul\":6886:6974   */\n      mstore\n        /* \"#utility.yul\":6993:6997   */\n      0x41\n        /* \"#utility.yul\":6990:6991   */\n      0x04\n        /* \"#utility.yul\":6983:6998   */\n      mstore\n        /* \"#utility.yul\":7017:7021   */\n      0x24\n        /* \"#utility.yul\":7014:7015   */\n      0x00\n        /* \"#utility.yul\":7007:7022   */\n      revert\n        /* \"#utility.yul\":7034:7315   */\n    tag_302:\n        /* \"#utility.yul\":7117:7144   */\n      tag_426\n        /* \"#utility.yul\":7139:7143   */\n      dup3\n        /* \"#utility.yul\":7117:7144   */\n      tag_300\n      jump\t// in\n    tag_426:\n        /* \"#utility.yul\":7109:7115   */\n      dup2\n        /* \"#utility.yul\":7105:7145   */\n      add\n        /* \"#utility.yul\":7247:7253   */\n      dup2\n        /* \"#utility.yul\":7235:7245   */\n      dup2\n        /* \"#utility.yul\":7232:7254   */\n      lt\n        /* \"#utility.yul\":7211:7229   */\n      0xffffffffffffffff\n        /* \"#utility.yul\":7199:7209   */\n      dup3\n        /* \"#utility.yul\":7196:7230   */\n      gt\n        /* \"#utility.yul\":7193:7255   */\n      or\n        /* \"#utility.yul\":7190:7278   */\n      iszero\n      tag_427\n      jumpi\n        /* \"#utility.yul\":7258:7276   */\n      tag_428\n      tag_301\n      jump\t// in\n    tag_428:\n        /* \"#utility.yul\":7190:7278   */\n    tag_427:\n        /* \"#utility.yul\":7298:7308   */\n      dup1\n        /* \"#utility.yul\":7294:7296   */\n      0x40\n        /* \"#utility.yul\":7287:7309   */\n      mstore\n        /* \"#utility.yul\":7077:7315   */\n      pop\n        /* \"#utility.yul\":7034:7315   */\n      pop\n      pop\n      jump\t// out\n        /* \"#utility.yul\":7321:7450   */\n    tag_303:\n        /* \"#utility.yul\":7355:7361   */\n      0x00\n        /* \"#utility.yul\":7382:7402   */\n      tag_430\n      tag_270\n      jump\t// in\n    tag_430:\n        /* \"#utility.yul\":7372:7402   */\n      swap1\n      pop\n        /* \"#utility.yul\":7411:7444   */\n      tag_431\n        /* \"#utility.yul\":7439:7443   */\n      dup3\n        /* \"#utility.yul\":7431:7437   */\n      dup3\n        /* \"#utility.yul\":7411:7444   */\n      tag_302\n      jump\t// in\n    tag_431:\n        /* \"#utility.yul\":7321:7450   */\n      swap2\n      swap1\n      pop\n      jump\t// out\n        /* \"#utility.yul\":7456:7763   */\n    tag_304:\n        /* \"#utility.yul\":7517:7521   */\n      0x00\n        /* \"#utility.yul\":7607:7625   */\n      0xffffffffffffffff\n        /* \"#utility.yul\":7599:7605   */\n      dup3\n        /* \"#utility.yul\":7596:7626   */\n      gt\n        /* \"#utility.yul\":7593:7649   */\n      iszero\n      tag_433\n      jumpi\n        /* \"#utility.yul\":7629:7647   */\n      tag_434\n      tag_301\n      jump\t// in\n    tag_434:\n        /* \"#utility.yul\":7593:7649   */\n    tag_433:\n        /* \"#utility.yul\":7667:7696   */\n      tag_435\n        /* \"#utility.yul\":7689:7695   */\n      dup3\n        /* \"#utility.yul\":7667:7696   */\n      tag_300\n      jump\t// in\n    tag_435:\n        /* \"#utility.yul\":7659:7696   */\n      swap1\n      pop\n        /* \"#utility.yul\":7751:7755   */\n      0x20\n        /* \"#utility.yul\":7745:7749   */\n      dup2\n        /* \"#utility.yul\":7741:7756   */\n      add\n        /* \"#utility.yul\":7733:7756   */\n      swap1\n      pop\n        /* \"#utility.yul\":7456:7763   */\n      swap2\n      swap1\n      pop\n      jump\t// out\n        /* \"#utility.yul\":7769:7917   */\n    tag_305:\n        /* \"#utility.yul\":7867:7873   */\n      dup3\n        /* \"#utility.yul\":7862:7865   */\n      dup2\n        /* \"#utility.yul\":7857:7860   */\n      dup4\n        /* \"#utility.yul\":7844:7874   */\n      calldatacopy\n        /* \"#utility.yul\":7908:7909   */\n      0x00\n        /* \"#utility.yul\":7899:7905   */\n      dup4\n        /* \"#utility.yul\":7894:7897   */\n      dup4\n        /* \"#utility.yul\":7890:7906   */\n      add\n        /* \"#utility.yul\":7883:7910   */\n      mstore\n        /* \"#utility.yul\":7769:7917   */\n      pop\n      pop\n      pop\n      jump\t// out\n        /* \"#utility.yul\":7923:8346   */\n    tag_306:\n        /* \"#utility.yul\":8000:8005   */\n      0x00\n        /* \"#utility.yul\":8025:8090   */\n      tag_438\n        /* \"#utility.yul\":8041:8089   */\n      tag_439\n        /* \"#utility.yul\":8082:8088   */\n      dup5\n        /* \"#utility.yul\":8041:8089   */\n      tag_304\n      jump\t// in\n    tag_439:\n        /* \"#utility.yul\":8025:8090   */\n      tag_303\n      jump\t// in\n    tag_438:\n        /* \"#utility.yul\":8016:8090   */\n      swap1\n      pop\n        /* \"#utility.yul\":8113:8119   */\n      dup3\n        /* \"#utility.yul\":8106:8111   */\n      dup2\n        /* \"#utility.yul\":8099:8120   */\n      mstore\n        /* \"#utility.yul\":8151:8155   */\n      0x20\n        /* \"#utility.yul\":8144:8149   */\n      dup2\n        /* \"#utility.yul\":8140:8156   */\n      add\n        /* \"#utility.yul\":8189:8192   */\n      dup5\n        /* \"#utility.yul\":8180:8186   */\n      dup5\n        /* \"#utility.yul\":8175:8178   */\n      dup5\n        /* \"#utility.yul\":8171:8187   */\n      add\n        /* \"#utility.yul\":8168:8193   */\n      gt\n        /* \"#utility.yul\":8165:8277   */\n      iszero\n      tag_440\n      jumpi\n        /* \"#utility.yul\":8196:8275   */\n      tag_441\n      tag_299\n      jump\t// in\n    tag_441:\n        /* \"#utility.yul\":8165:8277   */\n    tag_440:\n        /* \"#utility.yul\":8286:8340   */\n      tag_442\n        /* \"#utility.yul\":8333:8339   */\n      dup5\n        /* \"#utility.yul\":8328:8331   */\n      dup3\n        /* \"#utility.yul\":8323:8326   */\n      dup6\n        /* \"#utility.yul\":8286:8340   */\n      tag_305\n      jump\t// in\n    tag_442:\n        /* \"#utility.yul\":8006:8346   */\n      pop\n        /* \"#utility.yul\":7923:8346   */\n      swap4\n      swap3\n      pop\n      pop\n      pop\n      jump\t// out\n        /* \"#utility.yul\":8365:8703   */\n    tag_307:\n        /* \"#utility.yul\":8420:8425   */\n      0x00\n        /* \"#utility.yul\":8469:8472   */\n      dup3\n        /* \"#utility.yul\":8462:8466   */\n      0x1f\n        /* \"#utility.yul\":8454:8460   */\n      dup4\n        /* \"#utility.yul\":8450:8467   */\n      add\n        /* \"#utility.yul\":8446:8473   */\n      slt\n        /* \"#utility.yul\":8436:8558   */\n      tag_444\n      jumpi\n        /* \"#utility.yul\":8477:8556   */\n      tag_445\n      tag_298\n      jump\t// in\n    tag_445:\n        /* \"#utility.yul\":8436:8558   */\n    tag_444:\n        /* \"#utility.yul\":8594:8600   */\n      dup2\n        /* \"#utility.yul\":8581:8601   */\n      calldataload\n        /* \"#utility.yul\":8619:8697   */\n      tag_446\n        /* \"#utility.yul\":8693:8696   */\n      dup5\n        /* \"#utility.yul\":8685:8691   */\n      dup3\n        /* \"#utility.yul\":8678:8682   */\n      0x20\n        /* \"#utility.yul\":8670:8676   */\n      dup7\n        /* \"#utility.yul\":8666:8683   */\n      add\n        /* \"#utility.yul\":8619:8697   */\n      tag_306\n      jump\t// in\n    tag_446:\n        /* \"#utility.yul\":8610:8697   */\n      swap2\n      pop\n        /* \"#utility.yul\":8426:8703   */\n      pop\n        /* \"#utility.yul\":8365:8703   */\n      swap3\n      swap2\n      pop\n      pop\n      jump\t// out\n        /* \"#utility.yul\":8709:9361   */\n    tag_70:\n        /* \"#utility.yul\":8786:8792   */\n      0x00\n        /* \"#utility.yul\":8794:8800   */\n      dup1\n        /* \"#utility.yul\":8843:8845   */\n      0x40\n        /* \"#utility.yul\":8831:8840   */\n      dup4\n        /* \"#utility.yul\":8822:8829   */\n      dup6\n        /* \"#utility.yul\":8818:8841   */\n      sub\n        /* \"#utility.yul\":8814:8846   */\n      slt\n        /* \"#utility.yul\":8811:8930   */\n      iszero\n      tag_448\n      jumpi\n        /* \"#utility.yul\":8849:8928   */\n      tag_449\n      tag_271\n      jump\t// in\n    tag_449:\n        /* \"#utility.yul\":8811:8930   */\n    tag_448:\n        /* \"#utility.yul\":8969:8970   */\n      0x00\n        /* \"#utility.yul\":8994:9047   */\n      tag_450\n        /* \"#utility.yul\":9039:9046   */\n      dup6\n        /* \"#utility.yul\":9030:9036   */\n      dup3\n        /* \"#utility.yul\":9019:9028   */\n      dup7\n        /* \"#utility.yul\":9015:9037   */\n      add\n        /* \"#utility.yul\":8994:9047   */\n      tag_280\n      jump\t// in\n    tag_450:\n        /* \"#utility.yul\":8984:9047   */\n      swap3\n      pop\n        /* \"#utility.yul\":8940:9057   */\n      pop\n        /* \"#utility.yul\":9124:9126   */\n      0x20\n        /* \"#utility.yul\":9113:9122   */\n      dup4\n        /* \"#utility.yul\":9109:9127   */\n      add\n        /* \"#utility.yul\":9096:9128   */\n      calldataload\n        /* \"#utility.yul\":9155:9173   */\n      0xffffffffffffffff\n        /* \"#utility.yul\":9147:9153   */\n      dup2\n        /* \"#utility.yul\":9144:9174   */\n      gt\n        /* \"#utility.yul\":9141:9258   */\n      iszero\n      tag_451\n      jumpi\n        /* \"#utility.yul\":9177:9256   */\n      tag_452\n      tag_272\n      jump\t// in\n    tag_452:\n        /* \"#utility.yul\":9141:9258   */\n    tag_451:\n        /* \"#utility.yul\":9282:9344   */\n      tag_453\n        /* \"#utility.yul\":9336:9343   */\n      dup6\n        /* \"#utility.yul\":9327:9333   */\n      dup3\n        /* \"#utility.yul\":9316:9325   */\n      dup7\n        /* \"#utility.yul\":9312:9334   */\n      add\n        /* \"#utility.yul\":9282:9344   */\n      tag_307\n      jump\t// in\n    tag_453:\n        /* \"#utility.yul\":9272:9344   */\n      swap2\n      pop\n        /* \"#utility.yul\":9067:9354   */\n      pop\n        /* \"#utility.yul\":8709:9361   */\n      swap3\n      pop\n      swap3\n      swap1\n      pop\n      jump\t// out\n        /* \"#utility.yul\":9367:9696   */\n    tag_81:\n        /* \"#utility.yul\":9426:9432   */\n      0x00\n        /* \"#utility.yul\":9475:9477   */\n      0x20\n        /* \"#utility.yul\":9463:9472   */\n      dup3\n        /* \"#utility.yul\":9454:9461   */\n      dup5\n        /* \"#utility.yul\":9450:9473   */\n      sub\n        /* \"#utility.yul\":9446:9478   */\n      slt\n        /* \"#utility.yul\":9443:9562   */\n      iszero\n      tag_455\n      jumpi\n        /* \"#utility.yul\":9481:9560   */\n      tag_456\n      tag_271\n      jump\t// in\n    tag_456:\n        /* \"#utility.yul\":9443:9562   */\n    tag_455:\n        /* \"#utility.yul\":9601:9602   */\n      0x00\n        /* \"#utility.yul\":9626:9679   */\n      tag_457\n        /* \"#utility.yul\":9671:9678   */\n      dup5\n        /* \"#utility.yul\":9662:9668   */\n      dup3\n        /* \"#utility.yul\":9651:9660   */\n      dup6\n        /* \"#utility.yul\":9647:9669   */\n      add\n        /* \"#utility.yul\":9626:9679   */\n      tag_297\n      jump\t// in\n    tag_457:\n        /* \"#utility.yul\":9616:9679   */\n      swap2\n      pop\n        /* \"#utility.yul\":9572:9689   */\n      pop\n        /* \"#utility.yul\":9367:9696   */\n      swap3\n      swap2\n      pop\n      pop\n      jump\t// out\n        /* \"#utility.yul\":9702:9800   */\n    tag_308:\n        /* \"#utility.yul\":9753:9759   */\n      0x00\n        /* \"#utility.yul\":9787:9792   */\n      dup2\n        /* \"#utility.yul\":9781:9793   */\n      mload\n        /* \"#utility.yul\":9771:9793   */\n      swap1\n      pop\n        /* \"#utility.yul\":9702:9800   */\n      swap2\n      swap1\n      pop\n      jump\t// out\n        /* \"#utility.yul\":9806:9974   */\n    tag_309:\n        /* \"#utility.yul\":9889:9900   */\n      0x00\n        /* \"#utility.yul\":9923:9929   */\n      dup3\n        /* \"#utility.yul\":9918:9921   */\n      dup3\n        /* \"#utility.yul\":9911:9930   */\n      mstore\n        /* \"#utility.yul\":9963:9967   */\n      0x20\n        /* \"#utility.yul\":9958:9961   */\n      dup3\n        /* \"#utility.yul\":9954:9968   */\n      add\n        /* \"#utility.yul\":9939:9968   */\n      swap1\n      pop\n        /* \"#utility.yul\":9806:9974   */\n      swap3\n      swap2\n      pop\n      pop\n      jump\t// out\n        /* \"#utility.yul\":9980:10119   */\n    tag_310:\n        /* \"#utility.yul\":10069:10075   */\n      dup3\n        /* \"#utility.yul\":10064:10067   */\n      dup2\n        /* \"#utility.yul\":10059:10062   */\n      dup4\n        /* \"#utility.yul\":10053:10076   */\n      mcopy\n        /* \"#utility.yul\":10110:10111   */\n      0x00\n        /* \"#utility.yul\":10101:10107   */\n      dup4\n        /* \"#utility.yul\":10096:10099   */\n      dup4\n        /* \"#utility.yul\":10092:10108   */\n      add\n        /* \"#utility.yul\":10085:10112   */\n      mstore\n        /* \"#utility.yul\":9980:10119   */\n      pop\n      pop\n      pop\n      jump\t// out\n        /* \"#utility.yul\":10125:10498   */\n    tag_311:\n        /* \"#utility.yul\":10211:10214   */\n      0x00\n        /* \"#utility.yul\":10239:10277   */\n      tag_462\n        /* \"#utility.yul\":10271:10276   */\n      dup3\n        /* \"#utility.yul\":10239:10277   */\n      tag_308\n      jump\t// in\n    tag_462:\n        /* \"#utility.yul\":10293:10363   */\n      tag_463\n        /* \"#utility.yul\":10356:10362   */\n      dup2\n        /* \"#utility.yul\":10351:10354   */\n      dup6\n        /* \"#utility.yul\":10293:10363   */\n      tag_309\n      jump\t// in\n    tag_463:\n        /* \"#utility.yul\":10286:10363   */\n      swap4\n      pop\n        /* \"#utility.yul\":10372:10437   */\n      tag_464\n        /* \"#utility.yul\":10430:10436   */\n      dup2\n        /* \"#utility.yul\":10425:10428   */\n      dup6\n        /* \"#utility.yul\":10418:10422   */\n      0x20\n        /* \"#utility.yul\":10411:10416   */\n      dup7\n        /* \"#utility.yul\":10407:10423   */\n      add\n        /* \"#utility.yul\":10372:10437   */\n      tag_310\n      jump\t// in\n    tag_464:\n        /* \"#utility.yul\":10462:10491   */\n      tag_465\n        /* \"#utility.yul\":10484:10490   */\n      dup2\n        /* \"#utility.yul\":10462:10491   */\n      tag_300\n      jump\t// in\n    tag_465:\n        /* \"#utility.yul\":10457:10460   */\n      dup5\n        /* \"#utility.yul\":10453:10492   */\n      add\n        /* \"#utility.yul\":10446:10492   */\n      swap2\n      pop\n        /* \"#utility.yul\":10215:10498   */\n      pop\n        /* \"#utility.yul\":10125:10498   */\n      swap3\n      swap2\n      pop\n      pop\n      jump\t// out\n        /* \"#utility.yul\":10504:10813   */\n    tag_93:\n        /* \"#utility.yul\":10615:10619   */\n      0x00\n        /* \"#utility.yul\":10653:10655   */\n      0x20\n        /* \"#utility.yul\":10642:10651   */\n      dup3\n        /* \"#utility.yul\":10638:10656   */\n      add\n        /* \"#utility.yul\":10630:10656   */\n      swap1\n      pop\n        /* \"#utility.yul\":10702:10711   */\n      dup2\n        /* \"#utility.yul\":10696:10700   */\n      dup2\n        /* \"#utility.yul\":10692:10712   */\n      sub\n        /* \"#utility.yul\":10688:10689   */\n      0x00\n        /* \"#utility.yul\":10677:10686   */\n      dup4\n        /* \"#utility.yul\":10673:10690   */\n      add\n        /* \"#utility.yul\":10666:10713   */\n      mstore\n        /* \"#utility.yul\":10730:10806   */\n      tag_467\n        /* \"#utility.yul\":10801:10805   */\n      dup2\n        /* \"#utility.yul\":10792:10798   */\n      dup5\n        /* \"#utility.yul\":10730:10806   */\n      tag_311\n      jump\t// in\n    tag_467:\n        /* \"#utility.yul\":10722:10806   */\n      swap1\n      pop\n        /* \"#utility.yul\":10504:10813   */\n      swap3\n      swap2\n      pop\n      pop\n      jump\t// out\n        /* \"#utility.yul\":10819:10999   */\n    tag_312:\n        /* \"#utility.yul\":10867:10944   */\n      0x4e487b7100000000000000000000000000000000000000000000000000000000\n        /* \"#utility.yul\":10864:10865   */\n      0x00\n        /* \"#utility.yul\":10857:10945   */\n      mstore\n        /* \"#utility.yul\":10964:10968   */\n      0x22\n        /* \"#utility.yul\":10961:10962   */\n      0x04\n        /* \"#utility.yul\":10954:10969   */\n      mstore\n        /* \"#utility.yul\":10988:10992   */\n      0x24\n        /* \"#utility.yul\":10985:10986   */\n      0x00\n        /* \"#utility.yul\":10978:10993   */\n      revert\n        /* \"#utility.yul\":11005:11325   */\n    tag_135:\n        /* \"#utility.yul\":11049:11055   */\n      0x00\n        /* \"#utility.yul\":11086:11087   */\n      0x02\n        /* \"#utility.yul\":11080:11084   */\n      dup3\n        /* \"#utility.yul\":11076:11088   */\n      div\n        /* \"#utility.yul\":11066:11088   */\n      swap1\n      pop\n        /* \"#utility.yul\":11133:11134   */\n      0x01\n        /* \"#utility.yul\":11127:11131   */\n      dup3\n        /* \"#utility.yul\":11123:11135   */\n      and\n        /* \"#utility.yul\":11154:11172   */\n      dup1\n        /* \"#utility.yul\":11144:11225   */\n      tag_470\n      jumpi\n        /* \"#utility.yul\":11210:11214   */\n      0x7f\n        /* \"#utility.yul\":11202:11208   */\n      dup3\n        /* \"#utility.yul\":11198:11215   */\n      and\n        /* \"#utility.yul\":11188:11215   */\n      swap2\n      pop\n        /* \"#utility.yul\":11144:11225   */\n    tag_470:\n        /* \"#utility.yul\":11272:11274   */\n      0x20\n        /* \"#utility.yul\":11264:11270   */\n      dup3\n        /* \"#utility.yul\":11261:11275   */\n      lt\n        /* \"#utility.yul\":11241:11259   */\n      dup2\n        /* \"#utility.yul\":11238:11276   */\n      sub\n        /* \"#utility.yul\":11235:11319   */\n      tag_471\n      jumpi\n        /* \"#utility.yul\":11291:11309   */\n      tag_472\n      tag_312\n      jump\t// in\n    tag_472:\n        /* \"#utility.yul\":11235:11319   */\n    tag_471:\n        /* \"#utility.yul\":11056:11325   */\n      pop\n        /* \"#utility.yul\":11005:11325   */\n      swap2\n      swap1\n      pop\n      jump\t// out\n        /* \"#utility.yul\":11331:11500   */\n    tag_313:\n        /* \"#utility.yul\":11415:11426   */\n      0x00\n        /* \"#utility.yul\":11449:11455   */\n      dup3\n        /* \"#utility.yul\":11444:11447   */\n      dup3\n        /* \"#utility.yul\":11437:11456   */\n      mstore\n        /* \"#utility.yul\":11489:11493   */\n      0x20\n        /* \"#utility.yul\":11484:11487   */\n      dup3\n        /* \"#utility.yul\":11480:11494   */\n      add\n        /* \"#utility.yul\":11465:11494   */\n      swap1\n      pop\n        /* \"#utility.yul\":11331:11500   */\n      swap3\n      swap2\n      pop\n      pop\n      jump\t// out\n        /* \"#utility.yul\":11506:11673   */\n    tag_314:\n        /* \"#utility.yul\":11646:11665   */\n      0x546f7272656e74206e6f7420666f756e64000000000000000000000000000000\n        /* \"#utility.yul\":11642:11643   */\n      0x00\n        /* \"#utility.yul\":11634:11640   */\n      dup3\n        /* \"#utility.yul\":11630:11644   */\n      add\n        /* \"#utility.yul\":11623:11666   */\n      mstore\n        /* \"#utility.yul\":11506:11673   */\n      pop\n      jump\t// out\n        /* \"#utility.yul\":11679:12045   */\n    tag_315:\n        /* \"#utility.yul\":11821:11824   */\n      0x00\n        /* \"#utility.yul\":11842:11909   */\n      tag_476\n        /* \"#utility.yul\":11906:11908   */\n      0x11\n        /* \"#utility.yul\":11901:11904   */\n      dup4\n        /* \"#utility.yul\":11842:11909   */\n      tag_313\n      jump\t// in\n    tag_476:\n        /* \"#utility.yul\":11835:11909   */\n      swap2\n      pop\n        /* \"#utility.yul\":11918:12011   */\n      tag_477\n        /* \"#utility.yul\":12007:12010   */\n      dup3\n        /* \"#utility.yul\":11918:12011   */\n      tag_314\n      jump\t// in\n    tag_477:\n        /* \"#utility.yul\":12036:12038   */\n      0x20\n        /* \"#utility.yul\":12031:12034   */\n      dup3\n        /* \"#utility.yul\":12027:12039   */\n      add\n        /* \"#utility.yul\":12020:12039   */\n      swap1\n      pop\n        /* \"#utility.yul\":11679:12045   */\n      swap2\n      swap1\n      pop\n      jump\t// out\n        /* \"#utility.yul\":12051:12470   */\n    tag_138:\n        /* \"#utility.yul\":12217:12221   */\n      0x00\n        /* \"#utility.yul\":12255:12257   */\n      0x20\n        /* \"#utility.yul\":12244:12253   */\n      dup3\n        /* \"#utility.yul\":12240:12258   */\n      add\n        /* \"#utility.yul\":12232:12258   */\n      swap1\n      pop\n        /* \"#utility.yul\":12304:12313   */\n      dup2\n        /* \"#utility.yul\":12298:12302   */\n      dup2\n        /* \"#utility.yul\":12294:12314   */\n      sub\n        /* \"#utility.yul\":12290:12291   */\n      0x00\n        /* \"#utility.yul\":12279:12288   */\n      dup4\n        /* \"#utility.yul\":12275:12292   */\n      add\n        /* \"#utility.yul\":12268:12315   */\n      mstore\n        /* \"#utility.yul\":12332:12463   */\n      tag_479\n        /* \"#utility.yul\":12458:12462   */\n      dup2\n        /* \"#utility.yul\":12332:12463   */\n      tag_315\n      jump\t// in\n    tag_479:\n        /* \"#utility.yul\":12324:12463   */\n      swap1\n      pop\n        /* \"#utility.yul\":12051:12470   */\n      swap2\n      swap1\n      pop\n      jump\t// out\n        /* \"#utility.yul\":12476:12642   */\n    tag_316:\n        /* \"#utility.yul\":12616:12634   */\n      0x416c726561647920696e20737761726d00000000000000000000000000000000\n        /* \"#utility.yul\":12612:12613   */\n      0x00\n        /* \"#utility.yul\":12604:12610   */\n      dup3\n        /* \"#utility.yul\":12600:12614   */\n      add\n        /* \"#utility.yul\":12593:12635   */\n      mstore\n        /* \"#utility.yul\":12476:12642   */\n      pop\n      jump\t// out\n        /* \"#utility.yul\":12648:13014   */\n    tag_317:\n        /* \"#utility.yul\":12790:12793   */\n      0x00\n        /* \"#utility.yul\":12811:12878   */\n      tag_482\n        /* \"#utility.yul\":12875:12877   */\n      0x10\n        /* \"#utility.yul\":12870:12873   */\n      dup4\n        /* \"#utility.yul\":12811:12878   */\n      tag_313\n      jump\t// in\n    tag_482:\n        /* \"#utility.yul\":12804:12878   */\n      swap2\n      pop\n        /* \"#utility.yul\":12887:12980   */\n      tag_483\n        /* \"#utility.yul\":12976:12979   */\n      dup3\n        /* \"#utility.yul\":12887:12980   */\n      tag_316\n      jump\t// in\n    tag_483:\n        /* \"#utility.yul\":13005:13007   */\n      0x20\n        /* \"#utility.yul\":13000:13003   */\n      dup3\n        /* \"#utility.yul\":12996:13008   */\n      add\n        /* \"#utility.yul\":12989:13008   */\n      swap1\n      pop\n        /* \"#utility.yul\":12648:13014   */\n      swap2\n      swap1\n      pop\n      jump\t// out\n        /* \"#utility.yul\":13020:13439   */\n    tag_142:\n        /* \"#utility.yul\":13186:13190   */\n      0x00\n        /* \"#utility.yul\":13224:13226   */\n      0x20\n        /* \"#utility.yul\":13213:13222   */\n      dup3\n        /* \"#utility.yul\":13209:13227   */\n      add\n        /* \"#utility.yul\":13201:13227   */\n      swap1\n      pop\n        /* \"#utility.yul\":13273:13282   */\n      dup2\n        /* \"#utility.yul\":13267:13271   */\n      dup2\n        /* \"#utility.yul\":13263:13283   */\n      sub\n        /* \"#utility.yul\":13259:13260   */\n      0x00\n        /* \"#utility.yul\":13248:13257   */\n      dup4\n        /* \"#utility.yul\":13244:13261   */\n      add\n        /* \"#utility.yul\":13237:13284   */\n      mstore\n        /* \"#utility.yul\":13301:13432   */\n      tag_485\n        /* \"#utility.yul\":13427:13431   */\n      dup2\n        /* \"#utility.yul\":13301:13432   */\n      tag_317\n      jump\t// in\n    tag_485:\n        /* \"#utility.yul\":13293:13432   */\n      swap1\n      pop\n        /* \"#utility.yul\":13020:13439   */\n      swap2\n      swap1\n      pop\n      jump\t// out\n        /* \"#utility.yul\":13445:13522   */\n    tag_318:\n        /* \"#utility.yul\":13482:13489   */\n      0x00\n        /* \"#utility.yul\":13511:13516   */\n      dup2\n        /* \"#utility.yul\":13500:13516   */\n      swap1\n      pop\n        /* \"#utility.yul\":13445:13522   */\n      swap2\n      swap1\n      pop\n      jump\t// out\n        /* \"#utility.yul\":13528:13708   */\n    tag_319:\n        /* \"#utility.yul\":13576:13653   */\n      0x4e487b7100000000000000000000000000000000000000000000000000000000\n        /* \"#utility.yul\":13573:13574   */\n      0x00\n        /* \"#utility.yul\":13566:13654   */\n      mstore\n        /* \"#utility.yul\":13673:13677   */\n      0x11\n        /* \"#utility.yul\":13670:13671   */\n      0x04\n        /* \"#utility.yul\":13663:13678   */\n      mstore\n        /* \"#utility.yul\":13697:13701   */\n      0x24\n        /* \"#utility.yul\":13694:13695   */\n      0x00\n        /* \"#utility.yul\":13687:13702   */\n      revert\n        /* \"#utility.yul\":13714:13908   */\n    tag_145:\n        /* \"#utility.yul\":13754:13758   */\n      0x00\n        /* \"#utility.yul\":13774:13794   */\n      tag_489\n        /* \"#utility.yul\":13792:13793   */\n      dup3\n        /* \"#utility.yul\":13774:13794   */\n      tag_318\n      jump\t// in\n    tag_489:\n        /* \"#utility.yul\":13769:13794   */\n      swap2\n      pop\n        /* \"#utility.yul\":13808:13828   */\n      tag_490\n        /* \"#utility.yul\":13826:13827   */\n      dup4\n        /* \"#utility.yul\":13808:13828   */\n      tag_318\n      jump\t// in\n    tag_490:\n        /* \"#utility.yul\":13803:13828   */\n      swap3\n      pop\n        /* \"#utility.yul\":13852:13853   */\n      dup3\n        /* \"#utility.yul\":13849:13850   */\n      dup3\n        /* \"#utility.yul\":13845:13854   */\n      sub\n        /* \"#utility.yul\":13837:13854   */\n      swap1\n      pop\n        /* \"#utility.yul\":13876:13877   */\n      dup2\n        /* \"#utility.yul\":13870:13874   */\n      dup2\n        /* \"#utility.yul\":13867:13878   */\n      gt\n        /* \"#utility.yul\":13864:13901   */\n      iszero\n      tag_491\n      jumpi\n        /* \"#utility.yul\":13881:13899   */\n      tag_492\n      tag_319\n      jump\t// in\n    tag_492:\n        /* \"#utility.yul\":13864:13901   */\n    tag_491:\n        /* \"#utility.yul\":13714:13908   */\n      swap3\n      swap2\n      pop\n      pop\n      jump\t// out\n        /* \"#utility.yul\":13914:14086   */\n    tag_320:\n        /* \"#utility.yul\":14054:14078   */\n      0x546f7272656e7420616c72656164792065786973747300000000000000000000\n        /* \"#utility.yul\":14050:14051   */\n      0x00\n        /* \"#utility.yul\":14042:14048   */\n      dup3\n        /* \"#utility.yul\":14038:14052   */\n      add\n        /* \"#utility.yul\":14031:14079   */\n      mstore\n        /* \"#utility.yul\":13914:14086   */\n      pop\n      jump\t// out\n        /* \"#utility.yul\":14092:14458   */\n    tag_321:\n        /* \"#utility.yul\":14234:14237   */\n      0x00\n        /* \"#utility.yul\":14255:14322   */\n      tag_495\n        /* \"#utility.yul\":14319:14321   */\n      0x16\n        /* \"#utility.yul\":14314:14317   */\n      dup4\n        /* \"#utility.yul\":14255:14322   */\n      tag_313\n      jump\t// in\n    tag_495:\n        /* \"#utility.yul\":14248:14322   */\n      swap2\n      pop\n        /* \"#utility.yul\":14331:14424   */\n      tag_496\n        /* \"#utility.yul\":14420:14423   */\n      dup3\n        /* \"#utility.yul\":14331:14424   */\n      tag_320\n      jump\t// in\n    tag_496:\n        /* \"#utility.yul\":14449:14451   */\n      0x20\n        /* \"#utility.yul\":14444:14447   */\n      dup3\n        /* \"#utility.yul\":14440:14452   */\n      add\n        /* \"#utility.yul\":14433:14452   */\n      swap1\n      pop\n        /* \"#utility.yul\":14092:14458   */\n      swap2\n      swap1\n      pop\n      jump\t// out\n        /* \"#utility.yul\":14464:14883   */\n    tag_160:\n        /* \"#utility.yul\":14630:14634   */\n      0x00\n        /* \"#utility.yul\":14668:14670   */\n      0x20\n        /* \"#utility.yul\":14657:14666   */\n      dup3\n        /* \"#utility.yul\":14653:14671   */\n      add\n        /* \"#utility.yul\":14645:14671   */\n      swap1\n      pop\n        /* \"#utility.yul\":14717:14726   */\n      dup2\n        /* \"#utility.yul\":14711:14715   */\n      dup2\n        /* \"#utility.yul\":14707:14727   */\n      sub\n        /* \"#utility.yul\":14703:14704   */\n      0x00\n        /* \"#utility.yul\":14692:14701   */\n      dup4\n        /* \"#utility.yul\":14688:14705   */\n      add\n        /* \"#utility.yul\":14681:14728   */\n      mstore\n        /* \"#utility.yul\":14745:14876   */\n      tag_498\n        /* \"#utility.yul\":14871:14875   */\n      dup2\n        /* \"#utility.yul\":14745:14876   */\n      tag_321\n      jump\t// in\n    tag_498:\n        /* \"#utility.yul\":14737:14876   */\n      swap1\n      pop\n        /* \"#utility.yul\":14464:14883   */\n      swap2\n      swap1\n      pop\n      jump\t// out\n        /* \"#utility.yul\":14889:15053   */\n    tag_322:\n        /* \"#utility.yul\":15029:15045   */\n      0x456d707479206d65746164617461000000000000000000000000000000000000\n        /* \"#utility.yul\":15025:15026   */\n      0x00\n        /* \"#utility.yul\":15017:15023   */\n      dup3\n        /* \"#utility.yul\":15013:15027   */\n      add\n        /* \"#utility.yul\":15006:15046   */\n      mstore\n        /* \"#utility.yul\":14889:15053   */\n      pop\n      jump\t// out\n        /* \"#utility.yul\":15059:15425   */\n    tag_323:\n        /* \"#utility.yul\":15201:15204   */\n      0x00\n        /* \"#utility.yul\":15222:15289   */\n      tag_501\n        /* \"#utility.yul\":15286:15288   */\n      0x0e\n        /* \"#utility.yul\":15281:15284   */\n      dup4\n        /* \"#utility.yul\":15222:15289   */\n      tag_313\n      jump\t// in\n    tag_501:\n        /* \"#utility.yul\":15215:15289   */\n      swap2\n      pop\n        /* \"#utility.yul\":15298:15391   */\n      tag_502\n        /* \"#utility.yul\":15387:15390   */\n      dup3\n        /* \"#utility.yul\":15298:15391   */\n      tag_322\n      jump\t// in\n    tag_502:\n        /* \"#utility.yul\":15416:15418   */\n      0x20\n        /* \"#utility.yul\":15411:15414   */\n      dup3\n        /* \"#utility.yul\":15407:15419   */\n      add\n        /* \"#utility.yul\":15400:15419   */\n      swap1\n      pop\n        /* \"#utility.yul\":15059:15425   */\n      swap2\n      swap1\n      pop\n      jump\t// out\n        /* \"#utility.yul\":15431:15850   */\n    tag_163:\n        /* \"#utility.yul\":15597:15601   */\n      0x00\n        /* \"#utility.yul\":15635:15637   */\n      0x20\n        /* \"#utility.yul\":15624:15633   */\n      dup3\n        /* \"#utility.yul\":15620:15638   */\n      add\n        /* \"#utility.yul\":15612:15638   */\n      swap1\n      pop\n        /* \"#utility.yul\":15684:15693   */\n      dup2\n        /* \"#utility.yul\":15678:15682   */\n      dup2\n        /* \"#utility.yul\":15674:15694   */\n      sub\n        /* \"#utility.yul\":15670:15671   */\n      0x00\n        /* \"#utility.yul\":15659:15668   */\n      dup4\n        /* \"#utility.yul\":15655:15672   */\n      add\n        /* \"#utility.yul\":15648:15695   */\n      mstore\n        /* \"#utility.yul\":15712:15843   */\n      tag_504\n        /* \"#utility.yul\":15838:15842   */\n      dup2\n        /* \"#utility.yul\":15712:15843   */\n      tag_323\n      jump\t// in\n    tag_504:\n        /* \"#utility.yul\":15704:15843   */\n      swap1\n      pop\n        /* \"#utility.yul\":15431:15850   */\n      swap2\n      swap1\n      pop\n      jump\t// out\n        /* \"#utility.yul\":15856:15996   */\n    tag_324:\n        /* \"#utility.yul\":15904:15908   */\n      0x00\n        /* \"#utility.yul\":15927:15930   */\n      dup2\n        /* \"#utility.yul\":15919:15930   */\n      swap1\n      pop\n        /* \"#utility.yul\":15950:15953   */\n      dup2\n        /* \"#utility.yul\":15947:15948   */\n      0x00\n        /* \"#utility.yul\":15940:15954   */\n      mstore\n        /* \"#utility.yul\":15984:15988   */\n      0x20\n        /* \"#utility.yul\":15981:15982   */\n      0x00\n        /* \"#utility.yul\":15971:15989   */\n      keccak256\n        /* \"#utility.yul\":15963:15989   */\n      swap1\n      pop\n        /* \"#utility.yul\":15856:15996   */\n      swap2\n      swap1\n      pop\n      jump\t// out\n        /* \"#utility.yul\":16002:16095   */\n    tag_325:\n        /* \"#utility.yul\":16039:16045   */\n      0x00\n        /* \"#utility.yul\":16086:16088   */\n      0x20\n        /* \"#utility.yul\":16081:16083   */\n      0x1f\n        /* \"#utility.yul\":16074:16079   */\n      dup4\n        /* \"#utility.yul\":16070:16084   */\n      add\n        /* \"#utility.yul\":16066:16089   */\n      div\n        /* \"#utility.yul\":16056:16089   */\n      swap1\n      pop\n        /* \"#utility.yul\":16002:16095   */\n      swap2\n      swap1\n      pop\n      jump\t// out\n        /* \"#utility.yul\":16101:16208   */\n    tag_326:\n        /* \"#utility.yul\":16145:16153   */\n      0x00\n        /* \"#utility.yul\":16195:16200   */\n      dup3\n        /* \"#utility.yul\":16189:16193   */\n      dup3\n        /* \"#utility.yul\":16185:16201   */\n      shl\n        /* \"#utility.yul\":16164:16201   */\n      swap1\n      pop\n        /* \"#utility.yul\":16101:16208   */\n      swap3\n      swap2\n      pop\n      pop\n      jump\t// out\n        /* \"#utility.yul\":16214:16607   */\n    tag_327:\n        /* \"#utility.yul\":16283:16289   */\n      0x00\n        /* \"#utility.yul\":16333:16334   */\n      0x08\n        /* \"#utility.yul\":16321:16331   */\n      dup4\n        /* \"#utility.yul\":16317:16335   */\n      mul\n        /* \"#utility.yul\":16356:16453   */\n      tag_509\n        /* \"#utility.yul\":16386:16452   */\n      0xffffffffffffffffffffffffffffffffffffffffffffffffffffffffffffffff\n        /* \"#utility.yul\":16375:16384   */\n      dup3\n        /* \"#utility.yul\":16356:16453   */\n      tag_326\n      jump\t// in\n    tag_509:\n        /* \"#utility.yul\":16474:16513   */\n      tag_510\n        /* \"#utility.yul\":16504:16512   */\n      dup7\n        /* \"#utility.yul\":16493:16502   */\n      dup4\n        /* \"#utility.yul\":16474:16513   */\n      tag_326\n      jump\t// in\n    tag_510:\n        /* \"#utility.yul\":16462:16513   */\n      swap6\n      pop\n        /* \"#utility.yul\":16546:16550   */\n      dup1\n        /* \"#utility.yul\":16542:16551   */\n      not\n        /* \"#utility.yul\":16535:16540   */\n      dup5\n        /* \"#utility.yul\":16531:16552   */\n      and\n        /* \"#utility.yul\":16522:16552   */\n      swap4\n      pop\n        /* \"#utility.yul\":16595:16599   */\n      dup1\n        /* \"#utility.yul\":16585:16593   */\n      dup7\n        /* \"#utility.yul\":16581:16600   */\n      and\n        /* \"#utility.yul\":16574:16579   */\n      dup5\n        /* \"#utility.yul\":16571:16601   */\n      or\n        /* \"#utility.yul\":16561:16601   */\n      swap3\n      pop\n        /* \"#utility.yul\":16290:16607   */\n      pop\n      pop\n        /* \"#utility.yul\":16214:16607   */\n      swap4\n      swap3\n      pop\n      pop\n      pop\n      jump\t// out\n        /* \"#utility.yul\":16613:16755   */\n    tag_328:\n        /* \"#utility.yul\":16663:16672   */\n      0x00\n        /* \"#utility.yul\":16696:16749   */\n      tag_512\n        /* \"#utility.yul\":16714:16748   */\n      tag_513\n        /* \"#utility.yul\":16723:16747   */\n      tag_514\n        /* \"#utility.yul\":16741:16746   */\n      dup5\n        /* \"#utility.yul\":16723:16747   */\n      tag_318\n      jump\t// in\n    tag_514:\n        /* \"#utility.yul\":16714:16748   */\n      tag_291\n      jump\t// in\n    tag_513:\n        /* \"#utility.yul\":16696:16749   */\n      tag_318\n      jump\t// in\n    tag_512:\n        /* \"#utility.yul\":16683:16749   */\n      swap1\n      pop\n        /* \"#utility.yul\":16613:16755   */\n      swap2\n      swap1\n      pop\n      jump\t// out\n        /* \"#utility.yul\":16761:16836   */\n    tag_329:\n        /* \"#utility.yul\":16804:16807   */\n      0x00\n        /* \"#utility.yul\":16825:16830   */\n      dup2\n        /* \"#utility.yul\":16818:16830   */\n      swap1\n      pop\n        /* \"#utility.yul\":16761:16836   */\n      swap2\n      swap1\n      pop\n      jump\t// out\n        /* \"#utility.yul\":16842:17111   */\n    tag_330:\n        /* \"#utility.yul\":16952:16991   */\n      tag_517\n        /* \"#utility.yul\":16983:16990   */\n      dup4\n        /* \"#utility.yul\":16952:16991   */\n      tag_328\n      jump\t// in\n    tag_517:\n        /* \"#utility.yul\":17013:17104   */\n      tag_518\n        /* \"#utility.yul\":17062:17103   */\n      tag_519\n        /* \"#utility.yul\":17086:17102   */\n      dup3\n        /* \"#utility.yul\":17062:17103   */\n      tag_329\n      jump\t// in\n    tag_519:\n        /* \"#utility.yul\":17054:17060   */\n      dup5\n        /* \"#utility.yul\":17047:17051   */\n      dup5\n        /* \"#utility.yul\":17041:17052   */\n      sload\n        /* \"#utility.yul\":17013:17104   */\n      tag_327\n      jump\t// in\n    tag_518:\n        /* \"#utility.yul\":17007:17011   */\n      dup3\n        /* \"#utility.yul\":17000:17105   */\n      sstore\n        /* \"#utility.yul\":16918:17111   */\n      pop\n        /* \"#utility.yul\":16842:17111   */\n      pop\n      pop\n      pop\n      jump\t// out\n        /* \"#utility.yul\":17117:17190   */\n    tag_331:\n        /* \"#utility.yul\":17162:17165   */\n      0x00\n        /* \"#utility.yul\":17117:17190   */\n      swap1\n      jump\t// out\n        /* \"#utility.yul\":17196:17385   */\n    tag_332:\n        /* \"#utility.yul\":17273:17305   */\n      tag_522\n      tag_331\n      jump\t// in\n    tag_522:\n        /* \"#utility.yul\":17314:17379   */\n      tag_523\n        /* \"#utility.yul\":17372:17378   */\n      dup2\n        /* \"#utility.yul\":17364:17370   */\n      dup5\n        /* \"#utility.yul\":17358:17362   */\n      dup5\n        /* \"#utility.yul\":17314:17379   */\n      tag_330\n      jump\t// in\n    tag_523:\n        /* \"#utility.yul\":17249:17385   */\n      pop\n        /* \"#utility.yul\":17196:17385   */\n      pop\n      pop\n      jump\t// out\n        /* \"#utility.yul\":17391:17577   */\n    tag_333:\n        /* \"#utility.yul\":17451:17571   */\n    tag_525:\n        /* \"#utility.yul\":17468:17471   */\n      dup2\n        /* \"#utility.yul\":17461:17466   */\n      dup2\n        /* \"#utility.yul\":17458:17472   */\n      lt\n        /* \"#utility.yul\":17451:17571   */\n      iszero\n      tag_527\n      jumpi\n        /* \"#utility.yul\":17522:17561   */\n      tag_528\n        /* \"#utility.yul\":17559:17560   */\n      0x00\n        /* \"#utility.yul\":17552:17557   */\n      dup3\n        /* \"#utility.yul\":17522:17561   */\n      tag_332\n      jump\t// in\n    tag_528:\n        /* \"#utility.yul\":17495:17496   */\n      0x01\n        /* \"#utility.yul\":17488:17493   */\n      dup2\n        /* \"#utility.yul\":17484:17497   */\n      add\n        /* \"#utility.yul\":17475:17497   */\n      swap1\n      pop\n        /* \"#utility.yul\":17451:17571   */\n      jump(tag_525)\n    tag_527:\n        /* \"#utility.yul\":17391:17577   */\n      pop\n      pop\n      jump\t// out\n        /* \"#utility.yul\":17583:18124   */\n    tag_334:\n        /* \"#utility.yul\":17683:17685   */\n      0x1f\n        /* \"#utility.yul\":17678:17681   */\n      dup3\n        /* \"#utility.yul\":17675:17686   */\n      gt\n        /* \"#utility.yul\":17672:18117   */\n      iszero\n      tag_530\n      jumpi\n        /* \"#utility.yul\":17717:17754   */\n      tag_531\n        /* \"#utility.yul\":17748:17753   */\n      dup2\n        /* \"#utility.yul\":17717:17754   */\n      tag_324\n      jump\t// in\n    tag_531:\n        /* \"#utility.yul\":17800:17829   */\n      tag_532\n        /* \"#utility.yul\":17818:17828   */\n      dup5\n        /* \"#utility.yul\":17800:17829   */\n      tag_325\n      jump\t// in\n    tag_532:\n        /* \"#utility.yul\":17790:17798   */\n      dup2\n        /* \"#utility.yul\":17786:17830   */\n      add\n        /* \"#utility.yul\":17983:17985   */\n      0x20\n        /* \"#utility.yul\":17971:17981   */\n      dup6\n        /* \"#utility.yul\":17968:17986   */\n      lt\n        /* \"#utility.yul\":17965:18014   */\n      iszero\n      tag_533\n      jumpi\n        /* \"#utility.yul\":18004:18012   */\n      dup2\n        /* \"#utility.yul\":17989:18012   */\n      swap1\n      pop\n        /* \"#utility.yul\":17965:18014   */\n    tag_533:\n        /* \"#utility.yul\":18027:18107   */\n      tag_534\n        /* \"#utility.yul\":18083:18105   */\n      tag_535\n        /* \"#utility.yul\":18101:18104   */\n      dup6\n        /* \"#utility.yul\":18083:18105   */\n      tag_325\n      jump\t// in\n    tag_535:\n        /* \"#utility.yul\":18073:18081   */\n      dup4\n        /* \"#utility.yul\":18069:18106   */\n      add\n        /* \"#utility.yul\":18056:18067   */\n      dup3\n        /* \"#utility.yul\":18027:18107   */\n      tag_333\n      jump\t// in\n    tag_534:\n        /* \"#utility.yul\":17687:18117   */\n      pop\n      pop\n        /* \"#utility.yul\":17672:18117   */\n    tag_530:\n        /* \"#utility.yul\":17583:18124   */\n      pop\n      pop\n      pop\n      jump\t// out\n        /* \"#utility.yul\":18130:18247   */\n    tag_335:\n        /* \"#utility.yul\":18184:18192   */\n      0x00\n        /* \"#utility.yul\":18234:18239   */\n      dup3\n        /* \"#utility.yul\":18228:18232   */\n      dup3\n        /* \"#utility.yul\":18224:18240   */\n      shr\n        /* \"#utility.yul\":18203:18240   */\n      swap1\n      pop\n        /* \"#utility.yul\":18130:18247   */\n      swap3\n      swap2\n      pop\n      pop\n      jump\t// out\n        /* \"#utility.yul\":18253:18422   */\n    tag_336:\n        /* \"#utility.yul\":18297:18303   */\n      0x00\n        /* \"#utility.yul\":18330:18381   */\n      tag_538\n        /* \"#utility.yul\":18378:18379   */\n      0x00\n        /* \"#utility.yul\":18374:18380   */\n      not\n        /* \"#utility.yul\":18366:18371   */\n      dup5\n        /* \"#utility.yul\":18363:18364   */\n      0x08\n        /* \"#utility.yul\":18359:18372   */\n      mul\n        /* \"#utility.yul\":18330:18381   */\n      tag_335\n      jump\t// in\n    tag_538:\n        /* \"#utility.yul\":18326:18382   */\n      not\n        /* \"#utility.yul\":18411:18415   */\n      dup1\n        /* \"#utility.yul\":18405:18409   */\n      dup4\n        /* \"#utility.yul\":18401:18416   */\n      and\n        /* \"#utility.yul\":18391:18416   */\n      swap2\n      pop\n        /* \"#utility.yul\":18304:18422   */\n      pop\n        /* \"#utility.yul\":18253:18422   */\n      swap3\n      swap2\n      pop\n      pop\n      jump\t// out\n        /* \"#utility.yul\":18427:18722   */\n    tag_337:\n        /* \"#utility.yul\":18503:18507   */\n      0x00\n        /* \"#utility.yul\":18649:18678   */\n      tag_540\n        /* \"#utility.yul\":18674:18677   */\n      dup4\n        /* \"#utility.yul\":18668:18672   */\n      dup4\n        /* \"#utility.yul\":18649:18678   */\n      tag_336\n      jump\t// in\n    tag_540:\n        /* \"#utility.yul\":18641:18678   */\n      swap2\n      pop\n        /* \"#utility.yul\":18711:18714   */\n      dup3\n        /* \"#utility.yul\":18708:18709   */\n      0x02\n        /* \"#utility.yul\":18704:18715   */\n      mul\n        /* \"#utility.yul\":18698:18702   */\n      dup3\n        /* \"#utility.yul\":18695:18716   */\n      or\n        /* \"#utility.yul\":18687:18716   */\n      swap1\n      pop\n        /* \"#utility.yul\":18427:18722   */\n      swap3\n      swap2\n      pop\n      pop\n      jump\t// out\n        /* \"#utility.yul\":18727:20117   */\n    tag_165:\n        /* \"#utility.yul\":18842:18878   */\n      tag_542\n        /* \"#utility.yul\":18874:18877   */\n      dup3\n        /* \"#utility.yul\":18842:18878   */\n      tag_308\n      jump\t// in\n    tag_542:\n        /* \"#utility.yul\":18943:18961   */\n      0xffffffffffffffff\n        /* \"#utility.yul\":18935:18941   */\n      dup2\n        /* \"#utility.yul\":18932:18962   */\n      gt\n        /* \"#utility.yul\":18929:18985   */\n      iszero\n      tag_543\n      jumpi\n        /* \"#utility.yul\":18965:18983   */\n      tag_544\n      tag_301\n      jump\t// in\n    tag_544:\n        /* \"#utility.yul\":18929:18985   */\n    tag_543:\n        /* \"#utility.yul\":19009:19047   */\n      tag_545\n        /* \"#utility.yul\":19041:19045   */\n      dup3\n        /* \"#utility.yul\":19035:19046   */\n      sload\n        /* \"#utility.yul\":19009:19047   */\n      tag_135\n      jump\t// in\n    tag_545:\n        /* \"#utility.yul\":19094:19160   */\n      tag_546\n        /* \"#utility.yul\":19153:19159   */\n      dup3\n        /* \"#utility.yul\":19145:19151   */\n      dup3\n        /* \"#utility.yul\":19139:19143   */\n      dup6\n        /* \"#utility.yul\":19094:19160   */\n      tag_334\n      jump\t// in\n    tag_546:\n        /* \"#utility.yul\":19187:19188   */\n      0x00\n        /* \"#utility.yul\":19211:19215   */\n      0x20\n        /* \"#utility.yul\":19198:19215   */\n      swap1\n      pop\n        /* \"#utility.yul\":19243:19245   */\n      0x1f\n        /* \"#utility.yul\":19235:19241   */\n      dup4\n        /* \"#utility.yul\":19232:19246   */\n      gt\n        /* \"#utility.yul\":19260:19261   */\n      0x01\n        /* \"#utility.yul\":19255:19872   */\n      dup2\n      eq\n      tag_548\n      jumpi\n        /* \"#utility.yul\":19916:19917   */\n      0x00\n        /* \"#utility.yul\":19933:19939   */\n      dup5\n        /* \"#utility.yul\":19930:20007   */\n      iszero\n      tag_549\n      jumpi\n        /* \"#utility.yul\":19982:19991   */\n      dup3\n        /* \"#utility.yul\":19977:19980   */\n      dup8\n        /* \"#utility.yul\":19973:19992   */\n      add\n        /* \"#utility.yul\":19967:19993   */\n      mload\n        /* \"#utility.yul\":19958:19993   */\n      swap1\n      pop\n        /* \"#utility.yul\":19930:20007   */\n    tag_549:\n        /* \"#utility.yul\":20033:20100   */\n      tag_550\n        /* \"#utility.yul\":20093:20099   */\n      dup6\n        /* \"#utility.yul\":20086:20091   */\n      dup3\n        /* \"#utility.yul\":20033:20100   */\n      tag_337\n      jump\t// in\n    tag_550:\n        /* \"#utility.yul\":20027:20031   */\n      dup7\n        /* \"#utility.yul\":20020:20101   */\n      sstore\n        /* \"#utility.yul\":19889:20111   */\n      pop\n        /* \"#utility.yul\":19225:20111   */\n      jump(tag_547)\n        /* \"#utility.yul\":19255:19872   */\n    tag_548:\n        /* \"#utility.yul\":19307:19311   */\n      0x1f\n        /* \"#utility.yul\":19303:19312   */\n      not\n        /* \"#utility.yul\":19295:19301   */\n      dup5\n        /* \"#utility.yul\":19291:19313   */\n      and\n        /* \"#utility.yul\":19341:19377   */\n      tag_551\n        /* \"#utility.yul\":19372:19376   */\n      dup7\n        /* \"#utility.yul\":19341:19377   */\n      tag_324\n      jump\t// in\n    tag_551:\n        /* \"#utility.yul\":19399:19400   */\n      0x00\n        /* \"#utility.yul\":19413:19621   */\n    tag_552:\n        /* \"#utility.yul\":19427:19434   */\n      dup3\n        /* \"#utility.yul\":19424:19425   */\n      dup2\n        /* \"#utility.yul\":19421:19435   */\n      lt\n        /* \"#utility.yul\":19413:19621   */\n      iszero\n      tag_554\n      jumpi\n        /* \"#utility.yul\":19506:19515   */\n      dup5\n        /* \"#utility.yul\":19501:19504   */\n      dup10\n        /* \"#utility.yul\":19497:19516   */\n      add\n        /* \"#utility.yul\":19491:19517   */\n      mload\n        /* \"#utility.yul\":19483:19489   */\n      dup3\n        /* \"#utility.yul\":19476:19518   */\n      sstore\n        /* \"#utility.yul\":19557:19558   */\n      0x01\n        /* \"#utility.yul\":19549:19555   */\n      dup3\n        /* \"#utility.yul\":19545:19559   */\n      add\n        /* \"#utility.yul\":19535:19559   */\n      swap2\n      pop\n        /* \"#utility.yul\":19604:19606   */\n      0x20\n        /* \"#utility.yul\":19593:19602   */\n      dup6\n        /* \"#utility.yul\":19589:19607   */\n      add\n        /* \"#utility.yul\":19576:19607   */\n      swap5\n      pop\n        /* \"#utility.yul\":19450:19454   */\n      0x20\n        /* \"#utility.yul\":19447:19448   */\n      dup2\n        /* \"#utility.yul\":19443:19455   */\n      add\n        /* \"#utility.yul\":19438:19455   */\n      swap1\n      pop\n        /* \"#utility.yul\":19413:19621   */\n      jump(tag_552)\n    tag_554:\n        /* \"#utility.yul\":19649:19655   */\n      dup7\n        /* \"#utility.yul\":19640:19647   */\n      dup4\n        /* \"#utility.yul\":19637:19656   */\n      lt\n        /* \"#utility.yul\":19634:19813   */\n      iszero\n      tag_555\n      jumpi\n        /* \"#utility.yul\":19707:19716   */\n      dup5\n        /* \"#utility.yul\":19702:19705   */\n      dup10\n        /* \"#utility.yul\":19698:19717   */\n      add\n        /* \"#utility.yul\":19692:19718   */\n      mload\n        /* \"#utility.yul\":19750:19798   */\n      tag_556\n        /* \"#utility.yul\":19792:19796   */\n      0x1f\n        /* \"#utility.yul\":19784:19790   */\n      dup10\n        /* \"#utility.yul\":19780:19797   */\n      and\n        /* \"#utility.yul\":19769:19778   */\n      dup3\n        /* \"#utility.yul\":19750:19798   */\n      tag_336\n      jump\t// in\n    tag_556:\n        /* \"#utility.yul\":19742:19748   */\n      dup4\n        /* \"#utility.yul\":19735:19799   */\n      sstore\n        /* \"#utility.yul\":19657:19813   */\n      pop\n        /* \"#utility.yul\":19634:19813   */\n    tag_555:\n        /* \"#utility.yul\":19859:19860   */\n      0x01\n        /* \"#utility.yul\":19855:19856   */\n      0x02\n        /* \"#utility.yul\":19847:19853   */\n      dup9\n        /* \"#utility.yul\":19843:19857   */\n      mul\n        /* \"#utility.yul\":19839:19861   */\n      add\n        /* \"#utility.yul\":19833:19837   */\n      dup9\n        /* \"#utility.yul\":19826:19862   */\n      sstore\n        /* \"#utility.yul\":19262:19872   */\n      pop\n      pop\n      pop\n        /* \"#utility.yul\":19225:20111   */\n    tag_547:\n      pop\n        /* \"#utility.yul\":18817:20117   */\n      pop\n      pop\n      pop\n        /* \"#utility.yul\":18727:20117   */\n      pop\n      pop\n      jump\t// out\n        /* \"#utility.yul\":20123:20297   */\n    tag_338:\n        /* \"#utility.yul\":20263:20289   */\n      0x496e76616c696420766572696669657220616464726573730000000000000000\n        /* \"#utility.yul\":20259:20260   */\n      0x00\n        /* \"#utility.yul\":20251:20257   */\n      dup3\n        /* \"#utility.yul\":20247:20261   */\n      add\n        /* \"#utility.yul\":20240:20290   */\n      mstore\n        /* \"#utility.yul\":20123:20297   */\n      pop\n      jump\t// out\n        /* \"#utility.yul\":20303:20669   */\n    tag_339:\n        /* \"#utility.yul\":20445:20448   */\n      0x00\n        /* \"#utility.yul\":20466:20533   */\n      tag_559\n        /* \"#utility.yul\":20530:20532   */\n      0x18\n        /* \"#utility.yul\":20525:20528   */\n      dup4\n        /* \"#utility.yul\":20466:20533   */\n      tag_313\n      jump\t// in\n    tag_559:\n        /* \"#utility.yul\":20459:20533   */\n      swap2\n      pop\n        /* \"#utility.yul\":20542:20635   */\n      tag_560\n        /* \"#utility.yul\":20631:20634   */\n      dup3\n        /* \"#utility.yul\":20542:20635   */\n      tag_338\n      jump\t// in\n    tag_560:\n        /* \"#utility.yul\":20660:20662   */\n      0x20\n        /* \"#utility.yul\":20655:20658   */\n      dup3\n        /* \"#utility.yul\":20651:20663   */\n      add\n        /* \"#utility.yul\":20644:20663   */\n      swap1\n      pop\n        /* \"#utility.yul\":20303:20669   */\n      swap2\n      swap1\n      pop\n      jump\t// out\n        /* \"#utility.yul\":20675:21094   */\n    tag_184:\n        /* \"#utility.yul\":20841:20845   */\n      0x00\n        /* \"#utility.yul\":20879:20881   */\n      0x20\n        /* \"#utility.yul\":20868:20877   */\n      dup3\n        /* \"#utility.yul\":20864:20882   */\n      add\n        /* \"#utility.yul\":20856:20882   */\n      swap1\n      pop\n        /* \"#utility.yul\":20928:20937   */\n      dup2\n        /* \"#utility.yul\":20922:20926   */\n      dup2\n        /* \"#utility.yul\":20918:20938   */\n      sub\n        /* \"#utility.yul\":20914:20915   */\n      0x00\n        /* \"#utility.yul\":20903:20912   */\n      dup4\n        /* \"#utility.yul\":20899:20916   */\n      add\n        /* \"#utility.yul\":20892:20939   */\n      mstore\n        /* \"#utility.yul\":20956:21087   */\n      tag_562\n        /* \"#utility.yul\":21082:21086   */\n      dup2\n        /* \"#utility.yul\":20956:21087   */\n      tag_339\n      jump\t// in\n    tag_562:\n        /* \"#utility.yul\":20948:21087   */\n      swap1\n      pop\n        /* \"#utility.yul\":20675:21094   */\n      swap2\n      swap1\n      pop\n      jump\t// out\n        /* \"#utility.yul\":21100:21262   */\n    tag_340:\n        /* \"#utility.yul\":21240:21254   */\n      0x4e6f7420696e20737761726d0000000000000000000000000000000000000000\n        /* \"#utility.yul\":21236:21237   */\n      0x00\n        /* \"#utility.yul\":21228:21234   */\n      dup3\n        /* \"#utility.yul\":21224:21238   */\n      add\n        /* \"#utility.yul\":21217:21255   */\n      mstore\n        /* \"#utility.yul\":21100:21262   */\n      pop\n      jump\t// out\n        /* \"#utility.yul\":21268:21634   */\n    tag_341:\n        /* \"#utility.yul\":21410:21413   */\n      0x00\n        /* \"#utility.yul\":21431:21498   */\n      tag_565\n        /* \"#utility.yul\":21495:21497   */\n      0x0c\n        /* \"#utility.yul\":21490:21493   */\n      dup4\n        /* \"#utility.yul\":21431:21498   */\n      tag_313\n      jump\t// in\n    tag_565:\n        /* \"#utility.yul\":21424:21498   */\n      swap2\n      pop\n        /* \"#utility.yul\":21507:21600   */\n      tag_566\n        /* \"#utility.yul\":21596:21599   */\n      dup3\n        /* \"#utility.yul\":21507:21600   */\n      tag_340\n      jump\t// in\n    tag_566:\n        /* \"#utility.yul\":21625:21627   */\n      0x20\n        /* \"#utility.yul\":21620:21623   */\n      dup3\n        /* \"#utility.yul\":21616:21628   */\n      add\n        /* \"#utility.yul\":21609:21628   */\n      swap1\n      pop\n        /* \"#utility.yul\":21268:21634   */\n      swap2\n      swap1\n      pop\n      jump\t// out\n        /* \"#utility.yul\":21640:22059   */\n    tag_189:\n        /* \"#utility.yul\":21806:21810   */\n      0x00\n        /* \"#utility.yul\":21844:21846   */\n      0x20\n        /* \"#utility.yul\":21833:21842   */\n      dup3\n        /* \"#utility.yul\":21829:21847   */\n      add\n        /* \"#utility.yul\":21821:21847   */\n      swap1\n      pop\n        /* \"#utility.yul\":21893:21902   */\n      dup2\n        /* \"#utility.yul\":21887:21891   */\n      dup2\n        /* \"#utility.yul\":21883:21903   */\n      sub\n        /* \"#utility.yul\":21879:21880   */\n      0x00\n        /* \"#utility.yul\":21868:21877   */\n      dup4\n        /* \"#utility.yul\":21864:21881   */\n      add\n        /* \"#utility.yul\":21857:21904   */\n      mstore\n        /* \"#utility.yul\":21921:22052   */\n      tag_568\n        /* \"#utility.yul\":22047:22051   */\n      dup2\n        /* \"#utility.yul\":21921:22052   */\n      tag_341\n      jump\t// in\n    tag_568:\n        /* \"#utility.yul\":21913:22052   */\n      swap1\n      pop\n        /* \"#utility.yul\":21640:22059   */\n      swap2\n      swap1\n      pop\n      jump\t// out\n        /* \"#utility.yul\":22065:22245   */\n    tag_194:\n        /* \"#utility.yul\":22113:22190   */\n      0x4e487b7100000000000000000000000000000000000000000000000000000000\n        /* \"#utility.yul\":22110:22111   */\n      0x00\n        /* \"#utility.yul\":22103:22191   */\n      mstore\n        /* \"#utility.yul\":22210:22214   */\n      0x32\n        /* \"#utility.yul\":22207:22208   */\n      0x04\n        /* \"#utility.yul\":22200:22215   */\n      mstore\n        /* \"#utility.yul\":22234:22238   */\n      0x24\n        /* \"#utility.yul\":22231:22232   */\n      0x00\n        /* \"#utility.yul\":22224:22239   */\n      revert\n        /* \"#utility.yul\":22251:22431   */\n    tag_201:\n        /* \"#utility.yul\":22299:22376   */\n      0x4e487b7100000000000000000000000000000000000000000000000000000000\n        /* \"#utility.yul\":22296:22297   */\n      0x00\n        /* \"#utility.yul\":22289:22377   */\n      mstore\n        /* \"#utility.yul\":22396:22400   */\n      0x31\n        /* \"#utility.yul\":22393:22394   */\n      0x04\n        /* \"#utility.yul\":22386:22401   */\n      mstore\n        /* \"#utility.yul\":22420:22424   */\n      0x24\n        /* \"#utility.yul\":22417:22418   */\n      0x00\n        /* \"#utility.yul\":22410:22425   */\n      revert\n        /* \"#utility.yul\":22437:22555   */\n    tag_342:\n        /* \"#utility.yul\":22524:22548   */\n      tag_572\n        /* \"#utility.yul\":22542:22547   */\n      dup2\n        /* \"#utility.yul\":22524:22548   */\n      tag_285\n      jump\t// in\n    tag_572:\n        /* \"#utility.yul\":22519:22522   */\n      dup3\n        /* \"#utility.yul\":22512:22549   */\n      mstore\n        /* \"#utility.yul\":22437:22555   */\n      pop\n      pop\n      jump\t// out\n        /* \"#utility.yul\":22561:22783   */\n    tag_241:\n        /* \"#utility.yul\":22654:22658   */\n      0x00\n        /* \"#utility.yul\":22692:22694   */\n      0x20\n        /* \"#utility.yul\":22681:22690   */\n      dup3\n        /* \"#utility.yul\":22677:22695   */\n      add\n        /* \"#utility.yul\":22669:22695   */\n      swap1\n      pop\n        /* \"#utility.yul\":22705:22776   */\n      tag_574\n        /* \"#utility.yul\":22773:22774   */\n      0x00\n        /* \"#utility.yul\":22762:22771   */\n      dup4\n        /* \"#utility.yul\":22758:22775   */\n      add\n        /* \"#utility.yul\":22749:22755   */\n      dup5\n        /* \"#utility.yul\":22705:22776   */\n      tag_342\n      jump\t// in\n    tag_574:\n        /* \"#utility.yul\":22561:22783   */\n      swap3\n      swap2\n      pop\n      pop\n      jump\t// out\n        /* \"#utility.yul\":22789:23121   */\n    tag_257:\n        /* \"#utility.yul\":22910:22914   */\n      0x00\n        /* \"#utility.yul\":22948:22950   */\n      0x40\n        /* \"#utility.yul\":22937:22946   */\n      dup3\n        /* \"#utility.yul\":22933:22951   */\n      add\n        /* \"#utility.yul\":22925:22951   */\n      swap1\n      pop\n        /* \"#utility.yul\":22961:23032   */\n      tag_576\n        /* \"#utility.yul\":23029:23030   */\n      0x00\n        /* \"#utility.yul\":23018:23027   */\n      dup4\n        /* \"#utility.yul\":23014:23031   */\n      add\n        /* \"#utility.yul\":23005:23011   */\n      dup6\n        /* \"#utility.yul\":22961:23032   */\n      tag_342\n      jump\t// in\n    tag_576:\n        /* \"#utility.yul\":23042:23114   */\n      tag_577\n        /* \"#utility.yul\":23110:23112   */\n      0x20\n        /* \"#utility.yul\":23099:23108   */\n      dup4\n        /* \"#utility.yul\":23095:23113   */\n      add\n        /* \"#utility.yul\":23086:23092   */\n      dup5\n        /* \"#utility.yul\":23042:23114   */\n      tag_290\n      jump\t// in\n    tag_577:\n        /* \"#utility.yul\":22789:23121   */\n      swap4\n      swap3\n      pop\n      pop\n      pop\n      jump\t// out\n\n    auxdata: 0xa26469706673582212208873cdc3f3431d783c09784a3fcdb6d984e4e943b2c96a926bc35f8d7d04469664736f6c634300081a0033\n}\n",
				"bytecode": {
					"linkReferences": {},
					"object": "608060405234801561000f575f80fd5b5060405161233338038061233383398181016040528101906100319190610299565b5f60015f6101000a81548160ff02191690831515021790555060016002819055506100645f801b336100dc60201b60201c565b506100957f97667070c54ef182b0f5858b034beac1b6f3089aa2d3188bb1e8929f4fa9b929336100dc60201b60201c565b508060035f6101000a81548173ffffffffffffffffffffffffffffffffffffffff021916908373ffffffffffffffffffffffffffffffffffffffff160217905550506102c4565b5f6100ed83836101d160201b60201c565b6101c75760015f808581526020019081526020015f205f015f8473ffffffffffffffffffffffffffffffffffffffff1673ffffffffffffffffffffffffffffffffffffffff1681526020019081526020015f205f6101000a81548160ff02191690831515021790555061016461023460201b60201c565b73ffffffffffffffffffffffffffffffffffffffff168273ffffffffffffffffffffffffffffffffffffffff16847f2f8788117e7eff1d82e926ec794901d17c78024a50270940304540a733656f0d60405160405180910390a4600190506101cb565b5f90505b92915050565b5f805f8481526020019081526020015f205f015f8373ffffffffffffffffffffffffffffffffffffffff1673ffffffffffffffffffffffffffffffffffffffff1681526020019081526020015f205f9054906101000a900460ff16905092915050565b5f33905090565b5f80fd5b5f73ffffffffffffffffffffffffffffffffffffffff82169050919050565b5f6102688261023f565b9050919050565b6102788161025e565b8114610282575f80fd5b50565b5f815190506102938161026f565b92915050565b5f602082840312156102ae576102ad61023b565b5b5f6102bb84828501610285565b91505092915050565b612062806102d15f395ff3fe608060405234801561000f575f80fd5b506004361061012a575f3560e01c80638456cb59116100ab5780639a5e71c21161006f5780639a5e71c214610316578063a217fddf14610332578063c7aa2f1e14610350578063d547741f14610380578063f5b541a61461039c5761012a565b80638456cb591461028857806385a802651461029257806391d14854146102ae57806397ab3501146102de57806397fc007c146102fa5761012a565b806336568abe116100f257806336568abe146101f85780633d2babf2146102145780633f4ba83a146102445780635c975abb1461024e578063675fd3e61461026c5761012a565b806301ffc9a71461012e5780631a26edb51461015e578063248a9ca31461018e5780632b7ac3f3146101be5780632f2ff15d146101dc575b5f80fd5b610148600480360381019061014391906114d2565b6103ba565b6040516101559190611517565b60405180910390f35b61017860048036038101906101739190611563565b610433565b6040516101859190611675565b60405180910390f35b6101a860048036038101906101a39190611563565b6104cf565b6040516101b591906116a4565b60405180910390f35b6101c66104eb565b6040516101d39190611718565b60405180910390f35b6101f660048036038101906101f1919061175b565b610510565b005b610212600480360381019061020d919061175b565b610532565b005b61022e6004803603810190610229919061175b565b6105ad565b60405161023b9190611517565b60405180910390f35b61024c6105c0565b005b6102566105d7565b6040516102639190611517565b60405180910390f35b61028660048036038101906102819190611563565b6105ec565b005b6102906107c4565b005b6102ac60048036038101906102a791906118d5565b6107db565b005b6102c860048036038101906102c3919061175b565b6108fc565b6040516102d59190611517565b60405180910390f35b6102f860048036038101906102f39190611563565b61095f565b005b610314600480360381019061030f919061192f565b610a68565b005b610330600480360381019061032b9190611563565b610b26565b005b61033a610ddf565b60405161034791906116a4565b60405180910390f35b61036a60048036038101906103659190611563565b610de5565b60405161037791906119ba565b60405180910390f35b61039a6004803603810190610395919061175b565b610e86565b005b6103a4610ea8565b6040516103b191906116a4565b60405180910390f35b5f7f7965db0b000000000000000000000000000000000000000000000000000000007bffffffffffffffffffffffffffffffffffffffffffffffffffffffff1916827bffffffffffffffffffffffffffffffffffffffffffffffffffffffff1916148061042c575061042b82610ecc565b5b9050919050565b606060045f8381526020019081526020015f208054806020026020016040519081016040528092919081815260200182805480156104c357602002820191905f5260205f20905b815f9054906101000a900473ffffffffffffffffffffffffffffffffffffffff1673ffffffffffffffffffffffffffffffffffffffff168152602001906001019080831161047a575b50505050509050919050565b5f805f8381526020019081526020015f20600101549050919050565b60035f9054906101000a900473ffffffffffffffffffffffffffffffffffffffff1681565b610519826104cf565b61052281610f35565b61052c8383610f49565b50505050565b61053a611032565b73ffffffffffffffffffffffffffffffffffffffff168173ffffffffffffffffffffffffffffffffffffffff161461059e576040517f6697b23200000000000000000000000000000000000000000000000000000000815260040160405180910390fd5b6105a88282611039565b505050565b5f6105b88383611122565b905092915050565b5f801b6105cc81610f35565b6105d4611214565b50565b5f60015f9054906101000a900460ff16905090565b6105f4611275565b5f60065f8381526020019081526020015f20805461061190611a07565b905011610653576040517f08c379a000000000000000000000000000000000000000000000000000000000815260040161064a90611a91565b60405180910390fd5b61065d8133611122565b1561069d576040517f08c379a000000000000000000000000000000000000000000000000000000000815260040161069490611af9565b60405180910390fd5b60045f8281526020019081526020015f2033908060018154018082558091505060019003905f5260205f20015f9091909190916101000a81548173ffffffffffffffffffffffffffffffffffffffff021916908373ffffffffffffffffffffffffffffffffffffffff160217905550600160045f8381526020019081526020015f208054905061072d9190611b4d565b60055f8381526020019081526020015f205f3373ffffffffffffffffffffffffffffffffffffffff1673ffffffffffffffffffffffffffffffffffffffff1681526020019081526020015f20819055503373ffffffffffffffffffffffffffffffffffffffff16817fec632e7bcb76118db1317c4ffcba85e2ef4eed094130c81803854e6789e5f83960405160405180910390a350565b5f801b6107d081610f35565b6107d86112b6565b50565b6107e3611275565b6107eb611317565b5f60065f8481526020019081526020015f20805461080890611a07565b90501461084a576040517f08c379a000000000000000000000000000000000000000000000000000000000815260040161084190611bca565b60405180910390fd5b5f81511161088d576040517f08c379a000000000000000000000000000000000000000000000000000000000815260040161088490611c32565b60405180910390fd5b8060065f8481526020019081526020015f2090816108ab9190611de4565b503373ffffffffffffffffffffffffffffffffffffffff16827f1b29291c5edac9dd8411455da98ba119e7e2e93cadb5919c2c9a240f3eab658760405160405180910390a36108f861135b565b5050565b5f805f8481526020019081526020015f205f015f8373ffffffffffffffffffffffffffffffffffffffff1673ffffffffffffffffffffffffffffffffffffffff1681526020019081526020015f205f9054906101000a900460ff16905092915050565b7f97667070c54ef182b0f5858b034beac1b6f3089aa2d3188bb1e8929f4fa9b92961098981610f35565b5f60065f8481526020019081526020015f2080546109a690611a07565b9050116109e8576040517f08c379a00000000000000000000000000000000000000000000000000000000081526004016109df90611a91565b60405180910390fd5b60065f8381526020019081526020015f205f610a0491906113f6565b60045f8381526020019081526020015f205f610a209190611433565b3373ffffffffffffffffffffffffffffffffffffffff16827f426a554d14c27a8b40d14e65bab3a4d4ccf7f9c1f2dd26abde41eabaeb97247360405160405180910390a35050565b5f801b610a7481610f35565b5f73ffffffffffffffffffffffffffffffffffffffff168273ffffffffffffffffffffffffffffffffffffffff1603610ae2576040517f08c379a0000000000000000000000000000000000000000000000000000000008152600401610ad990611efd565b60405180910390fd5b8160035f6101000a81548173ffffffffffffffffffffffffffffffffffffffff021916908373ffffffffffffffffffffffffffffffffffffffff1602179055505050565b610b308133611122565b610b6f576040517f08c379a0000000000000000000000000000000000000000000000000000000008152600401610b6690611f65565b60405180910390fd5b5f60055f8381526020019081526020015f205f3373ffffffffffffffffffffffffffffffffffffffff1673ffffffffffffffffffffffffffffffffffffffff1681526020019081526020015f205490505f600160045f8581526020019081526020015f2080549050610be19190611b4d565b9050808214610cf4575f60045f8581526020019081526020015f208281548110610c0e57610c0d611f83565b5b905f5260205f20015f9054906101000a900473ffffffffffffffffffffffffffffffffffffffff1690508060045f8681526020019081526020015f208481548110610c5c57610c5b611f83565b5b905f5260205f20015f6101000a81548173ffffffffffffffffffffffffffffffffffffffff021916908373ffffffffffffffffffffffffffffffffffffffff1602179055508260055f8681526020019081526020015f205f8373ffffffffffffffffffffffffffffffffffffffff1673ffffffffffffffffffffffffffffffffffffffff1681526020019081526020015f2081905550505b60045f8481526020019081526020015f20805480610d1557610d14611fb0565b5b600190038181905f5260205f20015f6101000a81549073ffffffffffffffffffffffffffffffffffffffff0219169055905560055f8481526020019081526020015f205f3373ffffffffffffffffffffffffffffffffffffffff1673ffffffffffffffffffffffffffffffffffffffff1681526020019081526020015f205f90553373ffffffffffffffffffffffffffffffffffffffff16837fd6bdaf1e6ce0b30760d15e544dc3fcf5ade4568db6a7f95a10548f4b8c81eb5160405160405180910390a3505050565b5f801b81565b606060065f8381526020019081526020015f208054610e0390611a07565b80601f0160208091040260200160405190810160405280929190818152602001828054610e2f90611a07565b8015610e7a5780601f10610e5157610100808354040283529160200191610e7a565b820191905f5260205f20905b815481529060010190602001808311610e5d57829003601f168201915b50505050509050919050565b610e8f826104cf565b610e9881610f35565b610ea28383611039565b50505050565b7f97667070c54ef182b0f5858b034beac1b6f3089aa2d3188bb1e8929f4fa9b92981565b5f7f01ffc9a7000000000000000000000000000000000000000000000000000000007bffffffffffffffffffffffffffffffffffffffffffffffffffffffff1916827bffffffffffffffffffffffffffffffffffffffffffffffffffffffff1916149050919050565b610f4681610f41611032565b611365565b50565b5f610f5483836108fc565b6110285760015f808581526020019081526020015f205f015f8473ffffffffffffffffffffffffffffffffffffffff1673ffffffffffffffffffffffffffffffffffffffff1681526020019081526020015f205f6101000a81548160ff021916908315150217905550610fc5611032565b73ffffffffffffffffffffffffffffffffffffffff168273ffffffffffffffffffffffffffffffffffffffff16847f2f8788117e7eff1d82e926ec794901d17c78024a50270940304540a733656f0d60405160405180910390a46001905061102c565b5f90505b92915050565b5f33905090565b5f61104483836108fc565b15611118575f805f8581526020019081526020015f205f015f8473ffffffffffffffffffffffffffffffffffffffff1673ffffffffffffffffffffffffffffffffffffffff1681526020019081526020015f205f6101000a81548160ff0219169083151502179055506110b5611032565b73ffffffffffffffffffffffffffffffffffffffff168273ffffffffffffffffffffffffffffffffffffffff16847ff6391f5c32d9c69d2a47ea670b442974b53935d1edc7fd64eb21e047a839171b60405160405180910390a46001905061111c565b5f90505b92915050565b5f8060055f8581526020019081526020015f205f8473ffffffffffffffffffffffffffffffffffffffff1673ffffffffffffffffffffffffffffffffffffffff1681526020019081526020015f2054905060045f8581526020019081526020015f20805490508110801561120b57508273ffffffffffffffffffffffffffffffffffffffff1660045f8681526020019081526020015f2082815481106111cb576111ca611f83565b5b905f5260205f20015f9054906101000a900473ffffffffffffffffffffffffffffffffffffffff1673ffffffffffffffffffffffffffffffffffffffff16145b91505092915050565b61121c6113b6565b5f60015f6101000a81548160ff0219169083151502179055507f5db9ee0a495bf2e6ff9c91a7834c1ba4fdd244a5e8aa4e537bd38aeae4b073aa61125e611032565b60405161126b9190611fec565b60405180910390a1565b61127d6105d7565b156112b4576040517fd93c066500000000000000000000000000000000000000000000000000000000815260040160405180910390fd5b565b6112be611275565b6001805f6101000a81548160ff0219169083151502179055507f62e78cea01bee320cd4e420270b5ea74000d11b0c9f74754ebdbfc544b05a258611300611032565b60405161130d9190611fec565b60405180910390a1565b6002805403611352576040517f3ee5aeb500000000000000000000000000000000000000000000000000000000815260040160405180910390fd5b60028081905550565b6001600281905550565b61136f82826108fc565b6113b25780826040517fe2517d3f0000000000000000000000000000000000000000000000000000000081526004016113a9929190612005565b60405180910390fd5b5050565b6113be6105d7565b6113f4576040517f8dfc202b00000000000000000000000000000000000000000000000000000000815260040160405180910390fd5b565b50805461140290611a07565b5f825580601f106114135750611430565b601f0160209004905f5260205f209081019061142f9190611451565b5b50565b5080545f8255905f5260205f209081019061144e9190611451565b50565b5b80821115611468575f815f905550600101611452565b5090565b5f604051905090565b5f80fd5b5f80fd5b5f7fffffffff0000000000000000000000000000000000000000000000000000000082169050919050565b6114b18161147d565b81146114bb575f80fd5b50565b5f813590506114cc816114a8565b92915050565b5f602082840312156114e7576114e6611475565b5b5f6114f4848285016114be565b91505092915050565b5f8115159050919050565b611511816114fd565b82525050565b5f60208201905061152a5f830184611508565b92915050565b5f819050919050565b61154281611530565b811461154c575f80fd5b50565b5f8135905061155d81611539565b92915050565b5f6020828403121561157857611577611475565b5b5f6115858482850161154f565b91505092915050565b5f81519050919050565b5f82825260208201905092915050565b5f819050602082019050919050565b5f73ffffffffffffffffffffffffffffffffffffffff82169050919050565b5f6115e0826115b7565b9050919050565b6115f0816115d6565b82525050565b5f61160183836115e7565b60208301905092915050565b5f602082019050919050565b5f6116238261158e565b61162d8185611598565b9350611638836115a8565b805f5b8381101561166857815161164f88826115f6565b975061165a8361160d565b92505060018101905061163b565b5085935050505092915050565b5f6020820190508181035f83015261168d8184611619565b905092915050565b61169e81611530565b82525050565b5f6020820190506116b75f830184611695565b92915050565b5f819050919050565b5f6116e06116db6116d6846115b7565b6116bd565b6115b7565b9050919050565b5f6116f1826116c6565b9050919050565b5f611702826116e7565b9050919050565b611712816116f8565b82525050565b5f60208201905061172b5f830184611709565b92915050565b61173a816115d6565b8114611744575f80fd5b50565b5f8135905061175581611731565b92915050565b5f806040838503121561177157611770611475565b5b5f61177e8582860161154f565b925050602061178f85828601611747565b9150509250929050565b5f80fd5b5f80fd5b5f601f19601f8301169050919050565b7f4e487b71000000000000000000000000000000000000000000000000000000005f52604160045260245ffd5b6117e7826117a1565b810181811067ffffffffffffffff82111715611806576118056117b1565b5b80604052505050565b5f61181861146c565b905061182482826117de565b919050565b5f67ffffffffffffffff821115611843576118426117b1565b5b61184c826117a1565b9050602081019050919050565b828183375f83830152505050565b5f61187961187484611829565b61180f565b9050828152602081018484840111156118955761189461179d565b5b6118a0848285611859565b509392505050565b5f82601f8301126118bc576118bb611799565b5b81356118cc848260208601611867565b91505092915050565b5f80604083850312156118eb576118ea611475565b5b5f6118f88582860161154f565b925050602083013567ffffffffffffffff81111561191957611918611479565b5b611925858286016118a8565b9150509250929050565b5f6020828403121561194457611943611475565b5b5f61195184828501611747565b91505092915050565b5f81519050919050565b5f82825260208201905092915050565b8281835e5f83830152505050565b5f61198c8261195a565b6119968185611964565b93506119a6818560208601611974565b6119af816117a1565b840191505092915050565b5f6020820190508181035f8301526119d28184611982565b905092915050565b7f4e487b71000000000000000000000000000000000000000000000000000000005f52602260045260245ffd5b5f6002820490506001821680611a1e57607f821691505b602082108103611a3157611a306119da565b5b50919050565b5f82825260208201905092915050565b7f546f7272656e74206e6f7420666f756e640000000000000000000000000000005f82015250565b5f611a7b601183611a37565b9150611a8682611a47565b602082019050919050565b5f6020820190508181035f830152611aa881611a6f565b9050919050565b7f416c726561647920696e20737761726d000000000000000000000000000000005f82015250565b5f611ae3601083611a37565b9150611aee82611aaf565b602082019050919050565b5f6020820190508181035f830152611b1081611ad7565b9050919050565b5f819050919050565b7f4e487b71000000000000000000000000000000000000000000000000000000005f52601160045260245ffd5b5f611b5782611b17565b9150611b6283611b17565b9250828203905081811115611b7a57611b79611b20565b5b92915050565b7f546f7272656e7420616c726561647920657869737473000000000000000000005f82015250565b5f611bb4601683611a37565b9150611bbf82611b80565b602082019050919050565b5f6020820190508181035f830152611be181611ba8565b9050919050565b7f456d707479206d657461646174610000000000000000000000000000000000005f82015250565b5f611c1c600e83611a37565b9150611c2782611be8565b602082019050919050565b5f6020820190508181035f830152611c4981611c10565b9050919050565b5f819050815f5260205f209050919050565b5f6020601f8301049050919050565b5f82821b905092915050565b5f60088302611cac7fffffffffffffffffffffffffffffffffffffffffffffffffffffffffffffffff82611c71565b611cb68683611c71565b95508019841693508086168417925050509392505050565b5f611ce8611ce3611cde84611b17565b6116bd565b611b17565b9050919050565b5f819050919050565b611d0183611cce565b611d15611d0d82611cef565b848454611c7d565b825550505050565b5f90565b611d29611d1d565b611d34818484611cf8565b505050565b5b81811015611d5757611d4c5f82611d21565b600181019050611d3a565b5050565b601f821115611d9c57611d6d81611c50565b611d7684611c62565b81016020851015611d85578190505b611d99611d9185611c62565b830182611d39565b50505b505050565b5f82821c905092915050565b5f611dbc5f1984600802611da1565b1980831691505092915050565b5f611dd48383611dad565b9150826002028217905092915050565b611ded8261195a565b67ffffffffffffffff811115611e0657611e056117b1565b5b611e108254611a07565b611e1b828285611d5b565b5f60209050601f831160018114611e4c575f8415611e3a578287015190505b611e448582611dc9565b865550611eab565b601f198416611e5a86611c50565b5f5b82811015611e8157848901518255600182019150602085019450602081019050611e5c565b86831015611e9e5784890151611e9a601f891682611dad565b8355505b6001600288020188555050505b505050505050565b7f496e76616c6964207665726966696572206164647265737300000000000000005f82015250565b5f611ee7601883611a37565b9150611ef282611eb3565b602082019050919050565b5f6020820190508181035f830152611f1481611edb565b9050919050565b7f4e6f7420696e20737761726d00000000000000000000000000000000000000005f82015250565b5f611f4f600c83611a37565b9150611f5a82611f1b565b602082019050919050565b5f6020820190508181035f830152611f7c81611f43565b9050919050565b7f4e487b71000000000000000000000000000000000000000000000000000000005f52603260045260245ffd5b7f4e487b71000000000000000000000000000000000000000000000000000000005f52603160045260245ffd5b611fe6816115d6565b82525050565b5f602082019050611fff5f830184611fdd565b92915050565b5f6040820190506120185f830185611fdd565b6120256020830184611695565b939250505056fea26469706673582212208873cdc3f3431d783c09784a3fcdb6d984e4e943b2c96a926bc35f8d7d04469664736f6c634300081a0033",
					"opcodes": "PUSH1 0x80 PUSH1 0x40 MSTORE CALLVALUE DUP1 ISZERO PUSH2 0xF JUMPI PUSH0 DUP1 REVERT JUMPDEST POP PUSH1 0x40 MLOAD PUSH2 0x2333 CODESIZE SUB DUP1 PUSH2 0x2333 DUP4 CODECOPY DUP2 DUP2 ADD PUSH1 0x40 MSTORE DUP2 ADD SWAP1 PUSH2 0x31 SWAP2 SWAP1 PUSH2 0x299 JUMP JUMPDEST PUSH0 PUSH1 0x1 PUSH0 PUSH2 0x100 EXP DUP2 SLOAD DUP2 PUSH1 0xFF MUL NOT AND SWAP1 DUP4 ISZERO ISZERO MUL OR SWAP1 SSTORE POP PUSH1 0x1 PUSH1 0x2 DUP2 SWAP1 SSTORE POP PUSH2 0x64 PUSH0 DUP1 SHL CALLER PUSH2 0xDC PUSH1 0x20 SHL PUSH1 0x20 SHR JUMP JUMPDEST POP PUSH2 0x95 PUSH32 0x97667070C54EF182B0F5858B034BEAC1B6F3089AA2D3188BB1E8929F4FA9B929 CALLER PUSH2 0xDC PUSH1 0x20 SHL PUSH1 0x20 SHR JUMP JUMPDEST POP DUP1 PUSH1 0x3 PUSH0 PUSH2 0x100 EXP DUP2 SLOAD DUP2 PUSH20 0xFFFFFFFFFFFFFFFFFFFFFFFFFFFFFFFFFFFFFFFF MUL NOT AND SWAP1 DUP4 PUSH20 0xFFFFFFFFFFFFFFFFFFFFFFFFFFFFFFFFFFFFFFFF AND MUL OR SWAP1 SSTORE POP POP PUSH2 0x2C4 JUMP JUMPDEST PUSH0 PUSH2 0xED DUP4 DUP4 PUSH2 0x1D1 PUSH1 0x20 SHL PUSH1 0x20 SHR JUMP JUMPDEST PUSH2 0x1C7 JUMPI PUSH1 0x1 PUSH0 DUP1 DUP6 DUP2 MSTORE PUSH1 0x20 ADD SWAP1 DUP2 MSTORE PUSH1 0x20 ADD PUSH0 KECCAK256 PUSH0 ADD PUSH0 DUP5 PUSH20 0xFFFFFFFFFFFFFFFFFFFFFFFFFFFFFFFFFFFFFFFF AND PUSH20 0xFFFFFFFFFFFFFFFFFFFFFFFFFFFFFFFFFFFFFFFF AND DUP2 MSTORE PUSH1 0x20 ADD SWAP1 DUP2 MSTORE PUSH1 0x20 ADD PUSH0 KECCAK256 PUSH0 PUSH2 0x100 EXP DUP2 SLOAD DUP2 PUSH1 0xFF MUL NOT AND SWAP1 DUP4 ISZERO ISZERO MUL OR SWAP1 SSTORE POP PUSH2 0x164 PUSH2 0x234 PUSH1 0x20 SHL PUSH1 0x20 SHR JUMP JUMPDEST PUSH20 0xFFFFFFFFFFFFFFFFFFFFFFFFFFFFFFFFFFFFFFFF AND DUP3 PUSH20 0xFFFFFFFFFFFFFFFFFFFFFFFFFFFFFFFFFFFFFFFF AND DUP5 PUSH32 0x2F8788117E7EFF1D82E926EC794901D17C78024A50270940304540A733656F0D PUSH1 0x40 MLOAD PUSH1 0x40 MLOAD DUP1 SWAP2 SUB SWAP1 LOG4 PUSH1 0x1 SWAP1 POP PUSH2 0x1CB JUMP JUMPDEST PUSH0 SWAP1 POP JUMPDEST SWAP3 SWAP2 POP POP JUMP JUMPDEST PUSH0 DUP1 PUSH0 DUP5 DUP2 MSTORE PUSH1 0x20 ADD SWAP1 DUP2 MSTORE PUSH1 0x20 ADD PUSH0 KECCAK256 PUSH0 ADD PUSH0 DUP4 PUSH20 0xFFFFFFFFFFFFFFFFFFFFFFFFFFFFFFFFFFFFFFFF AND PUSH20 0xFFFFFFFFFFFFFFFFFFFFFFFFFFFFFFFFFFFFFFFF AND DUP2 MSTORE PUSH1 0x20 ADD SWAP1 DUP2 MSTORE PUSH1 0x20 ADD PUSH0 KECCAK256 PUSH0 SWAP1 SLOAD SWAP1 PUSH2 0x100 EXP SWAP1 DIV PUSH1 0xFF AND SWAP1 POP SWAP3 SWAP2 POP POP JUMP JUMPDEST PUSH0 CALLER SWAP1 POP SWAP1 JUMP JUMPDEST PUSH0 DUP1 REVERT JUMPDEST PUSH0 PUSH20 0xFFFFFFFFFFFFFFFFFFFFFFFFFFFFFFFFFFFFFFFF DUP3 AND SWAP1 POP SWAP2 SWAP1 POP JUMP JUMPDEST PUSH0 PUSH2 0x268 DUP3 PUSH2 0x23F JUMP JUMPDEST SWAP1 POP SWAP2 SWAP1 POP JUMP JUMPDEST PUSH2 0x278 DUP2 PUSH2 0x25E JUMP JUMPDEST DUP2 EQ PUSH2 0x282 JUMPI PUSH0 DUP1 REVERT JUMPDEST POP JUMP JUMPDEST PUSH0 DUP2 MLOAD SWAP1 POP PUSH2 0x293 DUP2 PUSH2 0x26F JUMP JUMPDEST SWAP3 SWAP2 POP POP JUMP JUMPDEST PUSH0 PUSH1 0x20 DUP3 DUP5 SUB SLT ISZERO PUSH2 0x2AE JUMPI PUSH2 0x2AD PUSH2 0x23B JUMP JUMPDEST JUMPDEST PUSH0 PUSH2 0x2BB DUP5 DUP3 DUP6 ADD PUSH2 0x285 JUMP JUMPDEST SWAP2 POP POP SWAP3 SWAP2 POP POP JUMP JUMPDEST PUSH2 0x2062 DUP1 PUSH2 0x2D1 PUSH0 CODECOPY PUSH0 RETURN INVALID PUSH1 0x80 PUSH1 0x40 MSTORE CALLVALUE DUP1 ISZERO PUSH2 0xF JUMPI PUSH0 DUP1 REVERT JUMPDEST POP PUSH1 0x4 CALLDATASIZE LT PUSH2 0x12A JUMPI PUSH0 CALLDATALOAD PUSH1 0xE0 SHR DUP1 PUSH4 0x8456CB59 GT PUSH2 0xAB JUMPI DUP1 PUSH4 0x9A5E71C2 GT PUSH2 0x6F JUMPI DUP1 PUSH4 0x9A5E71C2 EQ PUSH2 0x316 JUMPI DUP1 PUSH4 0xA217FDDF EQ PUSH2 0x332 JUMPI DUP1 PUSH4 0xC7AA2F1E EQ PUSH2 0x350 JUMPI DUP1 PUSH4 0xD547741F EQ PUSH2 0x380 JUMPI DUP1 PUSH4 0xF5B541A6 EQ PUSH2 0x39C JUMPI PUSH2 0x12A JUMP JUMPDEST DUP1 PUSH4 0x8456CB59 EQ PUSH2 0x288 JUMPI DUP1 PUSH4 0x85A80265 EQ PUSH2 0x292 JUMPI DUP1 PUSH4 0x91D14854 EQ PUSH2 0x2AE JUMPI DUP1 PUSH4 0x97AB3501 EQ PUSH2 0x2DE JUMPI DUP1 PUSH4 0x97FC007C EQ PUSH2 0x2FA JUMPI PUSH2 0x12A JUMP JUMPDEST DUP1 PUSH4 0x36568ABE GT PUSH2 0xF2 JUMPI DUP1 PUSH4 0x36568ABE EQ PUSH2 0x1F8 JUMPI DUP1 PUSH4 0x3D2BABF2 EQ PUSH2 0x214 JUMPI DUP1 PUSH4 0x3F4BA83A EQ PUSH2 0x244 JUMPI DUP1 PUSH4 0x5C975ABB EQ PUSH2 0x24E JUMPI DUP1 PUSH4 0x675FD3E6 EQ PUSH2 0x26C JUMPI PUSH2 0x12A JUMP JUMPDEST DUP1 PUSH4 0x1FFC9A7 EQ PUSH2 0x12E JUMPI DUP1 PUSH4 0x1A26EDB5 EQ PUSH2 0x15E JUMPI DUP1 PUSH4 0x248A9CA3 EQ PUSH2 0x18E JUMPI DUP1 PUSH4 0x2B7AC3F3 EQ PUSH2 0x1BE JUMPI DUP1 PUSH4 0x2F2FF15D EQ PUSH2 0x1DC JUMPI JUMPDEST PUSH0 DUP1 REVERT JUMPDEST PUSH2 0x148 PUSH1 0x4 DUP1 CALLDATASIZE SUB DUP2 ADD SWAP1 PUSH2 0x143 SWAP2 SWAP1 PUSH2 0x14D2 JUMP JUMPDEST PUSH2 0x3BA JUMP JUMPDEST PUSH1 0x40 MLOAD PUSH2 0x155 SWAP2 SWAP1 PUSH2 0x1517 JUMP JUMPDEST PUSH1 0x40 MLOAD DUP1 SWAP2 SUB SWAP1 RETURN JUMPDEST PUSH2 0x178 PUSH1 0x4 DUP1 CALLDATASIZE SUB DUP2 ADD SWAP1 PUSH2 0x173 SWAP2 SWAP1 PUSH2 0x1563 JUMP JUMPDEST PUSH2 0x433 JUMP JUMPDEST PUSH1 0x40 MLOAD PUSH2 0x185 SWAP2 SWAP1 PUSH2 0x1675 JUMP JUMPDEST PUSH1 0x40 MLOAD DUP1 SWAP2 SUB SWAP1 RETURN JUMPDEST PUSH2 0x1A8 PUSH1 0x4 DUP1 CALLDATASIZE SUB DUP2 ADD SWAP1 PUSH2 0x1A3 SWAP2 SWAP1 PUSH2 0x1563 JUMP JUMPDEST PUSH2 0x4CF JUMP JUMPDEST PUSH1 0x40 MLOAD PUSH2 0x1B5 SWAP2 SWAP1 PUSH2 0x16A4 JUMP JUMPDEST PUSH1 0x40 MLOAD DUP1 SWAP2 SUB SWAP1 RETURN JUMPDEST PUSH2 0x1C6 PUSH2 0x4EB JUMP JUMPDEST PUSH1 0x40 MLOAD PUSH2 0x1D3 SWAP2 SWAP1 PUSH2 0x1718 JUMP JUMPDEST PUSH1 0x40 MLOAD DUP1 SWAP2 SUB SWAP1 RETURN JUMPDEST PUSH2 0x1F6 PUSH1 0x4 DUP1 CALLDATASIZE SUB DUP2 ADD SWAP1 PUSH2 0x1F1 SWAP2 SWAP1 PUSH2 0x175B JUMP JUMPDEST PUSH2 0x510 JUMP JUMPDEST STOP JUMPDEST PUSH2 0x212 PUSH1 0x4 DUP1 CALLDATASIZE SUB DUP2 ADD SWAP1 PUSH2 0x20D SWAP2 SWAP1 PUSH2 0x175B JUMP JUMPDEST PUSH2 0x532 JUMP JUMPDEST STOP JUMPDEST PUSH2 0x22E PUSH1 0x4 DUP1 CALLDATASIZE SUB DUP2 ADD SWAP1 PUSH2 0x229 SWAP2 SWAP1 PUSH2 0x175B JUMP JUMPDEST PUSH2 0x5AD JUMP JUMPDEST PUSH1 0x40 MLOAD PUSH2 0x23B SWAP2 SWAP1 PUSH2 0x1517 JUMP JUMPDEST PUSH1 0x40 MLOAD DUP1 SWAP2 SUB SWAP1 RETURN JUMPDEST PUSH2 0x24C PUSH2 0x5C0 JUMP JUMPDEST STOP JUMPDEST PUSH2 0x256 PUSH2 0x5D7 JUMP JUMPDEST PUSH1 0x40 MLOAD PUSH2 0x263 SWAP2 SWAP1 PUSH2 0x1517 JUMP JUMPDEST PUSH1 0x40 MLOAD DUP1 SWAP2 SUB SWAP1 RETURN JUMPDEST PUSH2 0x286 PUSH1 0x4 DUP1 CALLDATASIZE SUB DUP2 ADD SWAP1 PUSH2 0x281 SWAP2 SWAP1 PUSH2 0x1563 JUMP JUMPDEST PUSH2 0x5EC JUMP JUMPDEST STOP JUMPDEST PUSH2 0x290 PUSH2 0x7C4 JUMP JUMPDEST STOP JUMPDEST PUSH2 0x2AC PUSH1 0x4 DUP1 CALLDATASIZE SUB DUP2 ADD SWAP1 PUSH2 0x2A7 SWAP2 SWAP1 PUSH2 0x18D5 JUMP JUMPDEST PUSH2 0x7DB JUMP JUMPDEST STOP JUMPDEST PUSH2 0x2C8 PUSH1 0x4 DUP1 CALLDATASIZE SUB DUP2 ADD SWAP1 PUSH2 0x2C3 SWAP2 SWAP1 PUSH2 0x175B JUMP JUMPDEST PUSH2 0x8FC JUMP JUMPDEST PUSH1 0x40 MLOAD PUSH2 0x2D5 SWAP2 SWAP1 PUSH2 0x1517 JUMP JUMPDEST PUSH1 0x40 MLOAD DUP1 SWAP2 SUB SWAP1 RETURN JUMPDEST PUSH2 0x2F8 PUSH1 0x4 DUP1 CALLDATASIZE SUB DUP2 ADD SWAP1 PUSH2 0x2F3 SWAP2 SWAP1 PUSH2 0x1563 JUMP JUMPDEST PUSH2 0x95F JUMP JUMPDEST STOP JUMPDEST PUSH2 0x314 PUSH1 0x4 DUP1 CALLDATASIZE SUB DUP2 ADD SWAP1 PUSH2 0x30F SWAP2 SWAP1 PUSH2 0x192F JUMP JUMPDEST PUSH2 0xA68 JUMP JUMPDEST STOP JUMPDEST PUSH2 0x330 PUSH1 0x4 DUP1 CALLDATASIZE SUB DUP2 ADD SWAP1 PUSH2 0x32B SWAP2 SWAP1 PUSH2 0x1563 JUMP JUMPDEST PUSH2 0xB26 JUMP JUMPDEST STOP JUMPDEST PUSH2 0x33A PUSH2 0xDDF JUMP JUMPDEST PUSH1 0x40 MLOAD PUSH2 0x347 SWAP2 SWAP1 PUSH2 0x16A4 JUMP JUMPDEST PUSH1 0x40 MLOAD DUP1 SWAP2 SUB SWAP1 RETURN JUMPDEST PUSH2 0x36A PUSH1 0x4 DUP1 CALLDATASIZE SUB DUP2 ADD SWAP1 PUSH2 0x365 SWAP2 SWAP1 PUSH2 0x1563 JUMP JUMPDEST PUSH2 0xDE5 JUMP JUMPDEST PUSH1 0x40 MLOAD PUSH2 0x377 SWAP2 SWAP1 PUSH2 0x19BA JUMP JUMPDEST PUSH1 0x40 MLOAD DUP1 SWAP2 SUB SWAP1 RETURN JUMPDEST PUSH2 0x39A PUSH1 0x4 DUP1 CALLDATASIZE SUB DUP2 ADD SWAP1 PUSH2 0x395 SWAP2 SWAP1 PUSH2 0x175B JUMP JUMPDEST PUSH2 0xE86 JUMP JUMPDEST STOP JUMPDEST PUSH2 0x3A4 PUSH2 0xEA8 JUMP JUMPDEST PUSH1 0x40 MLOAD PUSH2 0x3B1 SWAP2 SWAP1 PUSH2 0x16A4 JUMP JUMPDEST PUSH1 0x40 MLOAD DUP1 SWAP2 SUB SWAP1 RETURN JUMPDEST PUSH0 PUSH32 0x7965DB0B00000000000000000000000000000000000000000000000000000000 PUSH28 0xFFFFFFFFFFFFFFFFFFFFFFFFFFFFFFFFFFFFFFFFFFFFFFFFFFFFFFFF NOT AND DUP3 PUSH28 0xFFFFFFFFFFFFFFFFFFFFFFFFFFFFFFFFFFFFFFFFFFFFFFFFFFFFFFFF NOT AND EQ DUP1 PUSH2 0x42C JUMPI POP PUSH2 0x42B DUP3 PUSH2 0xECC JUMP JUMPDEST JUMPDEST SWAP1 POP SWAP2 SWAP1 POP JUMP JUMPDEST PUSH1 0x60 PUSH1 0x4 PUSH0 DUP4 DUP2 MSTORE PUSH1 0x20 ADD SWAP1 DUP2 MSTORE PUSH1 0x20 ADD PUSH0 KECCAK256 DUP1 SLOAD DUP1 PUSH1 0x20 MUL PUSH1 0x20 ADD PUSH1 0x40 MLOAD SWAP1 DUP2 ADD PUSH1 0x40 MSTORE DUP1 SWAP3 SWAP2 SWAP1 DUP2 DUP2 MSTORE PUSH1 0x20 ADD DUP3 DUP1 SLOAD DUP1 ISZERO PUSH2 0x4C3 JUMPI PUSH1 0x20 MUL DUP3 ADD SWAP2 SWAP1 PUSH0 MSTORE PUSH1 0x20 PUSH0 KECCAK256 SWAP1 JUMPDEST DUP2 PUSH0 SWAP1 SLOAD SWAP1 PUSH2 0x100 EXP SWAP1 DIV PUSH20 0xFFFFFFFFFFFFFFFFFFFFFFFFFFFFFFFFFFFFFFFF AND PUSH20 0xFFFFFFFFFFFFFFFFFFFFFFFFFFFFFFFFFFFFFFFF AND DUP2 MSTORE PUSH1 0x20 ADD SWAP1 PUSH1 0x1 ADD SWAP1 DUP1 DUP4 GT PUSH2 0x47A JUMPI JUMPDEST POP POP POP POP POP SWAP1 POP SWAP2 SWAP1 POP JUMP JUMPDEST PUSH0 DUP1 PUSH0 DUP4 DUP2 MSTORE PUSH1 0x20 ADD SWAP1 DUP2 MSTORE PUSH1 0x20 ADD PUSH0 KECCAK256 PUSH1 0x1 ADD SLOAD SWAP1 POP SWAP2 SWAP1 POP JUMP JUMPDEST PUSH1 0x3 PUSH0 SWAP1 SLOAD SWAP1 PUSH2 0x100 EXP SWAP1 DIV PUSH20 0xFFFFFFFFFFFFFFFFFFFFFFFFFFFFFFFFFFFFFFFF AND DUP2 JUMP JUMPDEST PUSH2 0x519 DUP3 PUSH2 0x4CF JUMP JUMPDEST PUSH2 0x522 DUP2 PUSH2 0xF35 JUMP JUMPDEST PUSH2 0x52C DUP4 DUP4 PUSH2 0xF49 JUMP JUMPDEST POP POP POP POP JUMP JUMPDEST PUSH2 0x53A PUSH2 0x1032 JUMP JUMPDEST PUSH20 0xFFFFFFFFFFFFFFFFFFFFFFFFFFFFFFFFFFFFFFFF AND DUP2 PUSH20 0xFFFFFFFFFFFFFFFFFFFFFFFFFFFFFFFFFFFFFFFF AND EQ PUSH2 0x59E JUMPI PUSH1 0x40 MLOAD PUSH32 0x6697B23200000000000000000000000000000000000000000000000000000000 DUP2 MSTORE PUSH1 0x4 ADD PUSH1 0x40 MLOAD DUP1 SWAP2 SUB SWAP1 REVERT JUMPDEST PUSH2 0x5A8 DUP3 DUP3 PUSH2 0x1039 JUMP JUMPDEST POP POP POP JUMP JUMPDEST PUSH0 PUSH2 0x5B8 DUP4 DUP4 PUSH2 0x1122 JUMP JUMPDEST SWAP1 POP SWAP3 SWAP2 POP POP JUMP JUMPDEST PUSH0 DUP1 SHL PUSH2 0x5CC DUP2 PUSH2 0xF35 JUMP JUMPDEST PUSH2 0x5D4 PUSH2 0x1214 JUMP JUMPDEST POP JUMP JUMPDEST PUSH0 PUSH1 0x1 PUSH0 SWAP1 SLOAD SWAP1 PUSH2 0x100 EXP SWAP1 DIV PUSH1 0xFF AND SWAP1 POP SWAP1 JUMP JUMPDEST PUSH2 0x5F4 PUSH2 0x1275 JUMP JUMPDEST PUSH0 PUSH1 0x6 PUSH0 DUP4 DUP2 MSTORE PUSH1 0x20 ADD SWAP1 DUP2 MSTORE PUSH1 0x20 ADD PUSH0 KECCAK256 DUP1 SLOAD PUSH2 0x611 SWAP1 PUSH2 0x1A07 JUMP JUMPDEST SWAP1 POP GT PUSH2 0x653 JUMPI PUSH1 0x40 MLOAD PUSH32 0x8C379A000000000000000000000000000000000000000000000000000000000 DUP2 MSTORE PUSH1 0x4 ADD PUSH2 0x64A SWAP1 PUSH2 0x1A91 JUMP JUMPDEST PUSH1 0x40 MLOAD DUP1 SWAP2 SUB SWAP1 REVERT JUMPDEST PUSH2 0x65D DUP2 CALLER PUSH2 0x1122 JUMP JUMPDEST ISZERO PUSH2 0x69D JUMPI PUSH1 0x40 MLOAD PUSH32 0x8C379A000000000000000000000000000000000000000000000000000000000 DUP2 MSTORE PUSH1 0x4 ADD PUSH2 0x694 SWAP1 PUSH2 0x1AF9 JUMP JUMPDEST PUSH1 0x40 MLOAD DUP1 SWAP2 SUB SWAP1 REVERT JUMPDEST PUSH1 0x4 PUSH0 DUP3 DUP2 MSTORE PUSH1 0x20 ADD SWAP1 DUP2 MSTORE PUSH1 0x20 ADD PUSH0 KECCAK256 CALLER SWAP1 DUP1 PUSH1 0x1 DUP2 SLOAD ADD DUP1 DUP3 SSTORE DUP1 SWAP2 POP POP PUSH1 0x1 SWAP1 SUB SWAP1 PUSH0 MSTORE PUSH1 0x20 PUSH0 KECCAK256 ADD PUSH0 SWAP1 SWAP2 SWAP1 SWAP2 SWAP1 SWAP2 PUSH2 0x100 EXP DUP2 SLOAD DUP2 PUSH20 0xFFFFFFFFFFFFFFFFFFFFFFFFFFFFFFFFFFFFFFFF MUL NOT AND SWAP1 DUP4 PUSH20 0xFFFFFFFFFFFFFFFFFFFFFFFFFFFFFFFFFFFFFFFF AND MUL OR SWAP1 SSTORE POP PUSH1 0x1 PUSH1 0x4 PUSH0 DUP4 DUP2 MSTORE PUSH1 0x20 ADD SWAP1 DUP2 MSTORE PUSH1 0x20 ADD PUSH0 KECCAK256 DUP1 SLOAD SWAP1 POP PUSH2 0x72D SWAP2 SWAP1 PUSH2 0x1B4D JUMP JUMPDEST PUSH1 0x5 PUSH0 DUP4 DUP2 MSTORE PUSH1 0x20 ADD SWAP1 DUP2 MSTORE PUSH1 0x20 ADD PUSH0 KECCAK256 PUSH0 CALLER PUSH20 0xFFFFFFFFFFFFFFFFFFFFFFFFFFFFFFFFFFFFFFFF AND PUSH20 0xFFFFFFFFFFFFFFFFFFFFFFFFFFFFFFFFFFFFFFFF AND DUP2 MSTORE PUSH1 0x20 ADD SWAP1 DUP2 MSTORE PUSH1 0x20 ADD PUSH0 KECCAK256 DUP2 SWAP1 SSTORE POP CALLER PUSH20 0xFFFFFFFFFFFFFFFFFFFFFFFFFFFFFFFFFFFFFFFF AND DUP2 PUSH32 0xEC632E7BCB76118DB1317C4FFCBA85E2EF4EED094130C81803854E6789E5F839 PUSH1 0x40 MLOAD PUSH1 0x40 MLOAD DUP1 SWAP2 SUB SWAP1 LOG3 POP JUMP JUMPDEST PUSH0 DUP1 SHL PUSH2 0x7D0 DUP2 PUSH2 0xF35 JUMP JUMPDEST PUSH2 0x7D8 PUSH2 0x12B6 JUMP JUMPDEST POP JUMP JUMPDEST PUSH2 0x7E3 PUSH2 0x1275 JUMP JUMPDEST PUSH2 0x7EB PUSH2 0x1317 JUMP JUMPDEST PUSH0 PUSH1 0x6 PUSH0 DUP5 DUP2 MSTORE PUSH1 0x20 ADD SWAP1 DUP2 MSTORE PUSH1 0x20 ADD PUSH0 KECCAK256 DUP1 SLOAD PUSH2 0x808 SWAP1 PUSH2 0x1A07 JUMP JUMPDEST SWAP1 POP EQ PUSH2 0x84A JUMPI PUSH1 0x40 MLOAD PUSH32 0x8C379A000000000000000000000000000000000000000000000000000000000 DUP2 MSTORE PUSH1 0x4 ADD PUSH2 0x841 SWAP1 PUSH2 0x1BCA JUMP JUMPDEST PUSH1 0x40 MLOAD DUP1 SWAP2 SUB SWAP1 REVERT JUMPDEST PUSH0 DUP2 MLOAD GT PUSH2 0x88D JUMPI PUSH1 0x40 MLOAD PUSH32 0x8C379A000000000000000000000000000000000000000000000000000000000 DUP2 MSTORE PUSH1 0x4 ADD PUSH2 0x884 SWAP1 PUSH2 0x1C32 JUMP JUMPDEST PUSH1 0x40 MLOAD DUP1 SWAP2 SUB SWAP1 REVERT JUMPDEST DUP1 PUSH1 0x6 PUSH0 DUP5 DUP2 MSTORE PUSH1 0x20 ADD SWAP1 DUP2 MSTORE PUSH1 0x20 ADD PUSH0 KECCAK256 SWAP1 DUP2 PUSH2 0x8AB SWAP2 SWAP1 PUSH2 0x1DE4 JUMP JUMPDEST POP CALLER PUSH20 0xFFFFFFFFFFFFFFFFFFFFFFFFFFFFFFFFFFFFFFFF AND DUP3 PUSH32 0x1B29291C5EDAC9DD8411455DA98BA119E7E2E93CADB5919C2C9A240F3EAB6587 PUSH1 0x40 MLOAD PUSH1 0x40 MLOAD DUP1 SWAP2 SUB SWAP1 LOG3 PUSH2 0x8F8 PUSH2 0x135B JUMP JUMPDEST POP POP JUMP JUMPDEST PUSH0 DUP1 PUSH0 DUP5 DUP2 MSTORE PUSH1 0x20 ADD SWAP1 DUP2 MSTORE PUSH1 0x20 ADD PUSH0 KECCAK256 PUSH0 ADD PUSH0 DUP4 PUSH20 0xFFFFFFFFFFFFFFFFFFFFFFFFFFFFFFFFFFFFFFFF AND PUSH20 0xFFFFFFFFFFFFFFFFFFFFFFFFFFFFFFFFFFFFFFFF AND DUP2 MSTORE PUSH1 0x20 ADD SWAP1 DUP2 MSTORE PUSH1 0x20 ADD PUSH0 KECCAK256 PUSH0 SWAP1 SLOAD SWAP1 PUSH2 0x100 EXP SWAP1 DIV PUSH1 0xFF AND SWAP1 POP SWAP3 SWAP2 POP POP JUMP JUMPDEST PUSH32 0x97667070C54EF182B0F5858B034BEAC1B6F3089AA2D3188BB1E8929F4FA9B929 PUSH2 0x989 DUP2 PUSH2 0xF35 JUMP JUMPDEST PUSH0 PUSH1 0x6 PUSH0 DUP5 DUP2 MSTORE PUSH1 0x20 ADD SWAP1 DUP2 MSTORE PUSH1 0x20 ADD PUSH0 KECCAK256 DUP1 SLOAD PUSH2 0x9A6 SWAP1 PUSH2 0x1A07 JUMP JUMPDEST SWAP1 POP GT PUSH2 0x9E8 JUMPI PUSH1 0x40 MLOAD PUSH32 0x8C379A000000000000000000000000000000000000000000000000000000000 DUP2 MSTORE PUSH1 0x4 ADD PUSH2 0x9DF SWAP1 PUSH2 0x1A91 JUMP JUMPDEST PUSH1 0x40 MLOAD DUP1 SWAP2 SUB SWAP1 REVERT JUMPDEST PUSH1 0x6 PUSH0 DUP4 DUP2 MSTORE PUSH1 0x20 ADD SWAP1 DUP2 MSTORE PUSH1 0x20 ADD PUSH0 KECCAK256 PUSH0 PUSH2 0xA04 SWAP2 SWAP1 PUSH2 0x13F6 JUMP JUMPDEST PUSH1 0x4 PUSH0 DUP4 DUP2 MSTORE PUSH1 0x20 ADD SWAP1 DUP2 MSTORE PUSH1 0x20 ADD PUSH0 KECCAK256 PUSH0 PUSH2 0xA20 SWAP2 SWAP1 PUSH2 0x1433 JUMP JUMPDEST CALLER PUSH20 0xFFFFFFFFFFFFFFFFFFFFFFFFFFFFFFFFFFFFFFFF AND DUP3 PUSH32 0x426A554D14C27A8B40D14E65BAB3A4D4CCF7F9C1F2DD26ABDE41EABAEB972473 PUSH1 0x40 MLOAD PUSH1 0x40 MLOAD DUP1 SWAP2 SUB SWAP1 LOG3 POP POP JUMP JUMPDEST PUSH0 DUP1 SHL PUSH2 0xA74 DUP2 PUSH2 0xF35 JUMP JUMPDEST PUSH0 PUSH20 0xFFFFFFFFFFFFFFFFFFFFFFFFFFFFFFFFFFFFFFFF AND DUP3 PUSH20 0xFFFFFFFFFFFFFFFFFFFFFFFFFFFFFFFFFFFFFFFF AND SUB PUSH2 0xAE2 JUMPI PUSH1 0x40 MLOAD PUSH32 0x8C379A000000000000000000000000000000000000000000000000000000000 DUP2 MSTORE PUSH1 0x4 ADD PUSH2 0xAD9 SWAP1 PUSH2 0x1EFD JUMP JUMPDEST PUSH1 0x40 MLOAD DUP1 SWAP2 SUB SWAP1 REVERT JUMPDEST DUP2 PUSH1 0x3 PUSH0 PUSH2 0x100 EXP DUP2 SLOAD DUP2 PUSH20 0xFFFFFFFFFFFFFFFFFFFFFFFFFFFFFFFFFFFFFFFF MUL NOT AND SWAP1 DUP4 PUSH20 0xFFFFFFFFFFFFFFFFFFFFFFFFFFFFFFFFFFFFFFFF AND MUL OR SWAP1 SSTORE POP POP POP JUMP JUMPDEST PUSH2 0xB30 DUP2 CALLER PUSH2 0x1122 JUMP JUMPDEST PUSH2 0xB6F JUMPI PUSH1 0x40 MLOAD PUSH32 0x8C379A000000000000000000000000000000000000000000000000000000000 DUP2 MSTORE PUSH1 0x4 ADD PUSH2 0xB66 SWAP1 PUSH2 0x1F65 JUMP JUMPDEST PUSH1 0x40 MLOAD DUP1 SWAP2 SUB SWAP1 REVERT JUMPDEST PUSH0 PUSH1 0x5 PUSH0 DUP4 DUP2 MSTORE PUSH1 0x20 ADD SWAP1 DUP2 MSTORE PUSH1 0x20 ADD PUSH0 KECCAK256 PUSH0 CALLER PUSH20 0xFFFFFFFFFFFFFFFFFFFFFFFFFFFFFFFFFFFFFFFF AND PUSH20 0xFFFFFFFFFFFFFFFFFFFFFFFFFFFFFFFFFFFFFFFF AND DUP2 MSTORE PUSH1 0x20 ADD SWAP1 DUP2 MSTORE PUSH1 0x20 ADD PUSH0 KECCAK256 SLOAD SWAP1 POP PUSH0 PUSH1 0x1 PUSH1 0x4 PUSH0 DUP6 DUP2 MSTORE PUSH1 0x20 ADD SWAP1 DUP2 MSTORE PUSH1 0x20 ADD PUSH0 KECCAK256 DUP1 SLOAD SWAP1 POP PUSH2 0xBE1 SWAP2 SWAP1 PUSH2 0x1B4D JUMP JUMPDEST SWAP1 POP DUP1 DUP3 EQ PUSH2 0xCF4 JUMPI PUSH0 PUSH1 0x4 PUSH0 DUP6 DUP2 MSTORE PUSH1 0x20 ADD SWAP1 DUP2 MSTORE PUSH1 0x20 ADD PUSH0 KECCAK256 DUP3 DUP2 SLOAD DUP2 LT PUSH2 0xC0E JUMPI PUSH2 0xC0D PUSH2 0x1F83 JUMP JUMPDEST JUMPDEST SWAP1 PUSH0 MSTORE PUSH1 0x20 PUSH0 KECCAK256 ADD PUSH0 SWAP1 SLOAD SWAP1 PUSH2 0x100 EXP SWAP1 DIV PUSH20 0xFFFFFFFFFFFFFFFFFFFFFFFFFFFFFFFFFFFFFFFF AND SWAP1 POP DUP1 PUSH1 0x4 PUSH0 DUP7 DUP2 MSTORE PUSH1 0x20 ADD SWAP1 DUP2 MSTORE PUSH1 0x20 ADD PUSH0 KECCAK256 DUP5 DUP2 SLOAD DUP2 LT PUSH2 0xC5C JUMPI PUSH2 0xC5B PUSH2 0x1F83 JUMP JUMPDEST JUMPDEST SWAP1 PUSH0 MSTORE PUSH1 0x20 PUSH0 KECCAK256 ADD PUSH0 PUSH2 0x100 EXP DUP2 SLOAD DUP2 PUSH20 0xFFFFFFFFFFFFFFFFFFFFFFFFFFFFFFFFFFFFFFFF MUL NOT AND SWAP1 DUP4 PUSH20 0xFFFFFFFFFFFFFFFFFFFFFFFFFFFFFFFFFFFFFFFF AND MUL OR SWAP1 SSTORE POP DUP3 PUSH1 0x5 PUSH0 DUP7 DUP2 MSTORE PUSH1 0x20 ADD SWAP1 DUP2 MSTORE PUSH1 0x20 ADD PUSH0 KECCAK256 PUSH0 DUP4 PUSH20 0xFFFFFFFFFFFFFFFFFFFFFFFFFFFFFFFFFFFFFFFF AND PUSH20 0xFFFFFFFFFFFFFFFFFFFFFFFFFFFFFFFFFFFFFFFF AND DUP2 MSTORE PUSH1 0x20 ADD SWAP1 DUP2 MSTORE PUSH1 0x20 ADD PUSH0 KECCAK256 DUP2 SWAP1 SSTORE POP POP JUMPDEST PUSH1 0x4 PUSH0 DUP5 DUP2 MSTORE PUSH1 0x20 ADD SWAP1 DUP2 MSTORE PUSH1 0x20 ADD PUSH0 KECCAK256 DUP1 SLOAD DUP1 PUSH2 0xD15 JUMPI PUSH2 0xD14 PUSH2 0x1FB0 JUMP JUMPDEST JUMPDEST PUSH1 0x1 SWAP1 SUB DUP2 DUP2 SWAP1 PUSH0 MSTORE PUSH1 0x20 PUSH0 KECCAK256 ADD PUSH0 PUSH2 0x100 EXP DUP2 SLOAD SWAP1 PUSH20 0xFFFFFFFFFFFFFFFFFFFFFFFFFFFFFFFFFFFFFFFF MUL NOT AND SWAP1 SSTORE SWAP1 SSTORE PUSH1 0x5 PUSH0 DUP5 DUP2 MSTORE PUSH1 0x20 ADD SWAP1 DUP2 MSTORE PUSH1 0x20 ADD PUSH0 KECCAK256 PUSH0 CALLER PUSH20 0xFFFFFFFFFFFFFFFFFFFFFFFFFFFFFFFFFFFFFFFF AND PUSH20 0xFFFFFFFFFFFFFFFFFFFFFFFFFFFFFFFFFFFFFFFF AND DUP2 MSTORE PUSH1 0x20 ADD SWAP1 DUP2 MSTORE PUSH1 0x20 ADD PUSH0 KECCAK256 PUSH0 SWAP1 SSTORE CALLER PUSH20 0xFFFFFFFFFFFFFFFFFFFFFFFFFFFFFFFFFFFFFFFF AND DUP4 PUSH32 0xD6BDAF1E6CE0B30760D15E544DC3FCF5ADE4568DB6A7F95A10548F4B8C81EB51 PUSH1 0x40 MLOAD PUSH1 0x40 MLOAD DUP1 SWAP2 SUB SWAP1 LOG3 POP POP POP JUMP JUMPDEST PUSH0 DUP1 SHL DUP2 JUMP JUMPDEST PUSH1 0x60 PUSH1 0x6 PUSH0 DUP4 DUP2 MSTORE PUSH1 0x20 ADD SWAP1 DUP2 MSTORE PUSH1 0x20 ADD PUSH0 KECCAK256 DUP1 SLOAD PUSH2 0xE03 SWAP1 PUSH2 0x1A07 JUMP JUMPDEST DUP1 PUSH1 0x1F ADD PUSH1 0x20 DUP1 SWAP2 DIV MUL PUSH1 0x20 ADD PUSH1 0x40 MLOAD SWAP1 DUP2 ADD PUSH1 0x40 MSTORE DUP1 SWAP3 SWAP2 SWAP1 DUP2 DUP2 MSTORE PUSH1 0x20 ADD DUP3 DUP1 SLOAD PUSH2 0xE2F SWAP1 PUSH2 0x1A07 JUMP JUMPDEST DUP1 ISZERO PUSH2 0xE7A JUMPI DUP1 PUSH1 0x1F LT PUSH2 0xE51 JUMPI PUSH2 0x100 DUP1 DUP4 SLOAD DIV MUL DUP4 MSTORE SWAP2 PUSH1 0x20 ADD SWAP2 PUSH2 0xE7A JUMP JUMPDEST DUP3 ADD SWAP2 SWAP1 PUSH0 MSTORE PUSH1 0x20 PUSH0 KECCAK256 SWAP1 JUMPDEST DUP2 SLOAD DUP2 MSTORE SWAP1 PUSH1 0x1 ADD SWAP1 PUSH1 0x20 ADD DUP1 DUP4 GT PUSH2 0xE5D JUMPI DUP3 SWAP1 SUB PUSH1 0x1F AND DUP3 ADD SWAP2 JUMPDEST POP POP POP POP POP SWAP1 POP SWAP2 SWAP1 POP JUMP JUMPDEST PUSH2 0xE8F DUP3 PUSH2 0x4CF JUMP JUMPDEST PUSH2 0xE98 DUP2 PUSH2 0xF35 JUMP JUMPDEST PUSH2 0xEA2 DUP4 DUP4 PUSH2 0x1039 JUMP JUMPDEST POP POP POP POP JUMP JUMPDEST PUSH32 0x97667070C54EF182B0F5858B034BEAC1B6F3089AA2D3188BB1E8929F4FA9B929 DUP2 JUMP JUMPDEST PUSH0 PUSH32 0x1FFC9A700000000000000000000000000000000000000000000000000000000 PUSH28 0xFFFFFFFFFFFFFFFFFFFFFFFFFFFFFFFFFFFFFFFFFFFFFFFFFFFFFFFF NOT AND DUP3 PUSH28 0xFFFFFFFFFFFFFFFFFFFFFFFFFFFFFFFFFFFFFFFFFFFFFFFFFFFFFFFF NOT AND EQ SWAP1 POP SWAP2 SWAP1 POP JUMP JUMPDEST PUSH2 0xF46 DUP2 PUSH2 0xF41 PUSH2 0x1032 JUMP JUMPDEST PUSH2 0x1365 JUMP JUMPDEST POP JUMP JUMPDEST PUSH0 PUSH2 0xF54 DUP4 DUP4 PUSH2 0x8FC JUMP JUMPDEST PUSH2 0x1028 JUMPI PUSH1 0x1 PUSH0 DUP1 DUP6 DUP2 MSTORE PUSH1 0x20 ADD SWAP1 DUP2 MSTORE PUSH1 0x20 ADD PUSH0 KECCAK256 PUSH0 ADD PUSH0 DUP5 PUSH20 0xFFFFFFFFFFFFFFFFFFFFFFFFFFFFFFFFFFFFFFFF AND PUSH20 0xFFFFFFFFFFFFFFFFFFFFFFFFFFFFFFFFFFFFFFFF AND DUP2 MSTORE PUSH1 0x20 ADD SWAP1 DUP2 MSTORE PUSH1 0x20 ADD PUSH0 KECCAK256 PUSH0 PUSH2 0x100 EXP DUP2 SLOAD DUP2 PUSH1 0xFF MUL NOT AND SWAP1 DUP4 ISZERO ISZERO MUL OR SWAP1 SSTORE POP PUSH2 0xFC5 PUSH2 0x1032 JUMP JUMPDEST PUSH20 0xFFFFFFFFFFFFFFFFFFFFFFFFFFFFFFFFFFFFFFFF AND DUP3 PUSH20 0xFFFFFFFFFFFFFFFFFFFFFFFFFFFFFFFFFFFFFFFF AND DUP5 PUSH32 0x2F8788117E7EFF1D82E926EC794901D17C78024A50270940304540A733656F0D PUSH1 0x40 MLOAD PUSH1 0x40 MLOAD DUP1 SWAP2 SUB SWAP1 LOG4 PUSH1 0x1 SWAP1 POP PUSH2 0x102C JUMP JUMPDEST PUSH0 SWAP1 POP JUMPDEST SWAP3 SWAP2 POP POP JUMP JUMPDEST PUSH0 CALLER SWAP1 POP SWAP1 JUMP JUMPDEST PUSH0 PUSH2 0x1044 DUP4 DUP4 PUSH2 0x8FC JUMP JUMPDEST ISZERO PUSH2 0x1118 JUMPI PUSH0 DUP1 PUSH0 DUP6 DUP2 MSTORE PUSH1 0x20 ADD SWAP1 DUP2 MSTORE PUSH1 0x20 ADD PUSH0 KECCAK256 PUSH0 ADD PUSH0 DUP5 PUSH20 0xFFFFFFFFFFFFFFFFFFFFFFFFFFFFFFFFFFFFFFFF AND PUSH20 0xFFFFFFFFFFFFFFFFFFFFFFFFFFFFFFFFFFFFFFFF AND DUP2 MSTORE PUSH1 0x20 ADD SWAP1 DUP2 MSTORE PUSH1 0x20 ADD PUSH0 KECCAK256 PUSH0 PUSH2 0x100 EXP DUP2 SLOAD DUP2 PUSH1 0xFF MUL NOT AND SWAP1 DUP4 ISZERO ISZERO MUL OR SWAP1 SSTORE POP PUSH2 0x10B5 PUSH2 0x1032 JUMP JUMPDEST PUSH20 0xFFFFFFFFFFFFFFFFFFFFFFFFFFFFFFFFFFFFFFFF AND DUP3 PUSH20 0xFFFFFFFFFFFFFFFFFFFFFFFFFFFFFFFFFFFFFFFF AND DUP5 PUSH32 0xF6391F5C32D9C69D2A47EA670B442974B53935D1EDC7FD64EB21E047A839171B PUSH1 0x40 MLOAD PUSH1 0x40 MLOAD DUP1 SWAP2 SUB SWAP1 LOG4 PUSH1 0x1 SWAP1 POP PUSH2 0x111C JUMP JUMPDEST PUSH0 SWAP1 POP JUMPDEST SWAP3 SWAP2 POP POP JUMP JUMPDEST PUSH0 DUP1 PUSH1 0x5 PUSH0 DUP6 DUP2 MSTORE PUSH1 0x20 ADD SWAP1 DUP2 MSTORE PUSH1 0x20 ADD PUSH0 KECCAK256 PUSH0 DUP5 PUSH20 0xFFFFFFFFFFFFFFFFFFFFFFFFFFFFFFFFFFFFFFFF AND PUSH20 0xFFFFFFFFFFFFFFFFFFFFFFFFFFFFFFFFFFFFFFFF AND DUP2 MSTORE PUSH1 0x20 ADD SWAP1 DUP2 MSTORE PUSH1 0x20 ADD PUSH0 KECCAK256 SLOAD SWAP1 POP PUSH1 0x4 PUSH0 DUP6 DUP2 MSTORE PUSH1 0x20 ADD SWAP1 DUP2 MSTORE PUSH1 0x20 ADD PUSH0 KECCAK256 DUP1 SLOAD SWAP1 POP DUP2 LT DUP1 ISZERO PUSH2 0x120B JUMPI POP DUP3 PUSH20 0xFFFFFFFFFFFFFFFFFFFFFFFFFFFFFFFFFFFFFFFF AND PUSH1 0x4 PUSH0 DUP7 DUP2 MSTORE PUSH1 0x20 ADD SWAP1 DUP2 MSTORE PUSH1 0x20 ADD PUSH0 KECCAK256 DUP3 DUP2 SLOAD DUP2 LT PUSH2 0x11CB JUMPI PUSH2 0x11CA PUSH2 0x1F83 JUMP JUMPDEST JUMPDEST SWAP1 PUSH0 MSTORE PUSH1 0x20 PUSH0 KECCAK256 ADD PUSH0 SWAP1 SLOAD SWAP1 PUSH2 0x100 EXP SWAP1 DIV PUSH20 0xFFFFFFFFFFFFFFFFFFFFFFFFFFFFFFFFFFFFFFFF AND PUSH20 0xFFFFFFFFFFFFFFFFFFFFFFFFFFFFFFFFFFFFFFFF AND EQ JUMPDEST SWAP2 POP POP SWAP3 SWAP2 POP POP JUMP JUMPDEST PUSH2 0x121C PUSH2 0x13B6 JUMP JUMPDEST PUSH0 PUSH1 0x1 PUSH0 PUSH2 0x100 EXP DUP2 SLOAD DUP2 PUSH1 0xFF MUL NOT AND SWAP1 DUP4 ISZERO ISZERO MUL OR SWAP1 SSTORE POP PUSH32 0x5DB9EE0A495BF2E6FF9C91A7834C1BA4FDD244A5E8AA4E537BD38AEAE4B073AA PUSH2 0x125E PUSH2 0x1032 JUMP JUMPDEST PUSH1 0x40 MLOAD PUSH2 0x126B SWAP2 SWAP1 PUSH2 0x1FEC JUMP JUMPDEST PUSH1 0x40 MLOAD DUP1 SWAP2 SUB SWAP1 LOG1 JUMP JUMPDEST PUSH2 0x127D PUSH2 0x5D7 JUMP JUMPDEST ISZERO PUSH2 0x12B4 JUMPI PUSH1 0x40 MLOAD PUSH32 0xD93C066500000000000000000000000000000000000000000000000000000000 DUP2 MSTORE PUSH1 0x4 ADD PUSH1 0x40 MLOAD DUP1 SWAP2 SUB SWAP1 REVERT JUMPDEST JUMP JUMPDEST PUSH2 0x12BE PUSH2 0x1275 JUMP JUMPDEST PUSH1 0x1 DUP1 PUSH0 PUSH2 0x100 EXP DUP2 SLOAD DUP2 PUSH1 0xFF MUL NOT AND SWAP1 DUP4 ISZERO ISZERO MUL OR SWAP1 SSTORE POP PUSH32 0x62E78CEA01BEE320CD4E420270B5EA74000D11B0C9F74754EBDBFC544B05A258 PUSH2 0x1300 PUSH2 0x1032 JUMP JUMPDEST PUSH1 0x40 MLOAD PUSH2 0x130D SWAP2 SWAP1 PUSH2 0x1FEC JUMP JUMPDEST PUSH1 0x40 MLOAD DUP1 SWAP2 SUB SWAP1 LOG1 JUMP JUMPDEST PUSH1 0x2 DUP1 SLOAD SUB PUSH2 0x1352 JUMPI PUSH1 0x40 MLOAD PUSH32 0x3EE5AEB500000000000000000000000000000000000000000000000000000000 DUP2 MSTORE PUSH1 0x4 ADD PUSH1 0x40 MLOAD DUP1 SWAP2 SUB SWAP1 REVERT JUMPDEST PUSH1 0x2 DUP1 DUP2 SWAP1 SSTORE POP JUMP JUMPDEST PUSH1 0x1 PUSH1 0x2 DUP2 SWAP1 SSTORE POP JUMP JUMPDEST PUSH2 0x136F DUP3 DUP3 PUSH2 0x8FC JUMP JUMPDEST PUSH2 0x13B2 JUMPI DUP1 DUP3 PUSH1 0x40 MLOAD PUSH32 0xE2517D3F00000000000000000000000000000000000000000000000000000000 DUP2 MSTORE PUSH1 0x4 ADD PUSH2 0x13A9 SWAP3 SWAP2 SWAP1 PUSH2 0x2005 JUMP JUMPDEST PUSH1 0x40 MLOAD DUP1 SWAP2 SUB SWAP1 REVERT JUMPDEST POP POP JUMP JUMPDEST PUSH2 0x13BE PUSH2 0x5D7 JUMP JUMPDEST PUSH2 0x13F4 JUMPI PUSH1 0x40 MLOAD PUSH32 0x8DFC202B00000000000000000000000000000000000000000000000000000000 DUP2 MSTORE PUSH1 0x4 ADD PUSH1 0x40 MLOAD DUP1 SWAP2 SUB SWAP1 REVERT JUMPDEST JUMP JUMPDEST POP DUP1 SLOAD PUSH2 0x1402 SWAP1 PUSH2 0x1A07 JUMP JUMPDEST PUSH0 DUP3 SSTORE DUP1 PUSH1 0x1F LT PUSH2 0x1413 JUMPI POP PUSH2 0x1430 JUMP JUMPDEST PUSH1 0x1F ADD PUSH1 0x20 SWAP1 DIV SWAP1 PUSH0 MSTORE PUSH1 0x20 PUSH0 KECCAK256 SWAP1 DUP2 ADD SWAP1 PUSH2 0x142F SWAP2 SWAP1 PUSH2 0x1451 JUMP JUMPDEST JUMPDEST POP JUMP JUMPDEST POP DUP1 SLOAD PUSH0 DUP3 SSTORE SWAP1 PUSH0 MSTORE PUSH1 0x20 PUSH0 KECCAK256 SWAP1 DUP2 ADD SWAP1 PUSH2 0x144E SWAP2 SWAP1 PUSH2 0x1451 JUMP JUMPDEST POP JUMP JUMPDEST JUMPDEST DUP1 DUP3 GT ISZERO PUSH2 0x1468 JUMPI PUSH0 DUP2 PUSH0 SWAP1 SSTORE POP PUSH1 0x1 ADD PUSH2 0x1452 JUMP JUMPDEST POP SWAP1 JUMP JUMPDEST PUSH0 PUSH1 0x40 MLOAD SWAP1 POP SWAP1 JUMP JUMPDEST PUSH0 DUP1 REVERT JUMPDEST PUSH0 DUP1 REVERT JUMPDEST PUSH0 PUSH32 0xFFFFFFFF00000000000000000000000000000000000000000000000000000000 DUP3 AND SWAP1 POP SWAP2 SWAP1 POP JUMP JUMPDEST PUSH2 0x14B1 DUP2 PUSH2 0x147D JUMP JUMPDEST DUP2 EQ PUSH2 0x14BB JUMPI PUSH0 DUP1 REVERT JUMPDEST POP JUMP JUMPDEST PUSH0 DUP2 CALLDATALOAD SWAP1 POP PUSH2 0x14CC DUP2 PUSH2 0x14A8 JUMP JUMPDEST SWAP3 SWAP2 POP POP JUMP JUMPDEST PUSH0 PUSH1 0x20 DUP3 DUP5 SUB SLT ISZERO PUSH2 0x14E7 JUMPI PUSH2 0x14E6 PUSH2 0x1475 JUMP JUMPDEST JUMPDEST PUSH0 PUSH2 0x14F4 DUP5 DUP3 DUP6 ADD PUSH2 0x14BE JUMP JUMPDEST SWAP2 POP POP SWAP3 SWAP2 POP POP JUMP JUMPDEST PUSH0 DUP2 ISZERO ISZERO SWAP1 POP SWAP2 SWAP1 POP JUMP JUMPDEST PUSH2 0x1511 DUP2 PUSH2 0x14FD JUMP JUMPDEST DUP3 MSTORE POP POP JUMP JUMPDEST PUSH0 PUSH1 0x20 DUP3 ADD SWAP1 POP PUSH2 0x152A PUSH0 DUP4 ADD DUP5 PUSH2 0x1508 JUMP JUMPDEST SWAP3 SWAP2 POP POP JUMP JUMPDEST PUSH0 DUP2 SWAP1 POP SWAP2 SWAP1 POP JUMP JUMPDEST PUSH2 0x1542 DUP2 PUSH2 0x1530 JUMP JUMPDEST DUP2 EQ PUSH2 0x154C JUMPI PUSH0 DUP1 REVERT JUMPDEST POP JUMP JUMPDEST PUSH0 DUP2 CALLDATALOAD SWAP1 POP PUSH2 0x155D DUP2 PUSH2 0x1539 JUMP JUMPDEST SWAP3 SWAP2 POP POP JUMP JUMPDEST PUSH0 PUSH1 0x20 DUP3 DUP5 SUB SLT ISZERO PUSH2 0x1578 JUMPI PUSH2 0x1577 PUSH2 0x1475 JUMP JUMPDEST JUMPDEST PUSH0 PUSH2 0x1585 DUP5 DUP3 DUP6 ADD PUSH2 0x154F JUMP JUMPDEST SWAP2 POP POP SWAP3 SWAP2 POP POP JUMP JUMPDEST PUSH0 DUP2 MLOAD SWAP1 POP SWAP2 SWAP1 POP JUMP JUMPDEST PUSH0 DUP3 DUP3 MSTORE PUSH1 0x20 DUP3 ADD SWAP1 POP SWAP3 SWAP2 POP POP JUMP JUMPDEST PUSH0 DUP2 SWAP1 POP PUSH1 0x20 DUP3 ADD SWAP1 POP SWAP2 SWAP1 POP JUMP JUMPDEST PUSH0 PUSH20 0xFFFFFFFFFFFFFFFFFFFFFFFFFFFFFFFFFFFFFFFF DUP3 AND SWAP1 POP SWAP2 SWAP1 POP JUMP JUMPDEST PUSH0 PUSH2 0x15E0 DUP3 PUSH2 0x15B7 JUMP JUMPDEST SWAP1 POP SWAP2 SWAP1 POP JUMP JUMPDEST PUSH2 0x15F0 DUP2 PUSH2 0x15D6 JUMP JUMPDEST DUP3 MSTORE POP POP JUMP JUMPDEST PUSH0 PUSH2 0x1601 DUP4 DUP4 PUSH2 0x15E7 JUMP JUMPDEST PUSH1 0x20 DUP4 ADD SWAP1 POP SWAP3 SWAP2 POP POP JUMP JUMPDEST PUSH0 PUSH1 0x20 DUP3 ADD SWAP1 POP SWAP2 SWAP1 POP JUMP JUMPDEST PUSH0 PUSH2 0x1623 DUP3 PUSH2 0x158E JUMP JUMPDEST PUSH2 0x162D DUP2 DUP6 PUSH2 0x1598 JUMP JUMPDEST SWAP4 POP PUSH2 0x1638 DUP4 PUSH2 0x15A8 JUMP JUMPDEST DUP1 PUSH0 JUMPDEST DUP4 DUP2 LT ISZERO PUSH2 0x1668 JUMPI DUP2 MLOAD PUSH2 0x164F DUP9 DUP3 PUSH2 0x15F6 JUMP JUMPDEST SWAP8 POP PUSH2 0x165A DUP4 PUSH2 0x160D JUMP JUMPDEST SWAP3 POP POP PUSH1 0x1 DUP2 ADD SWAP1 POP PUSH2 0x163B JUMP JUMPDEST POP DUP6 SWAP4 POP POP POP POP SWAP3 SWAP2 POP POP JUMP JUMPDEST PUSH0 PUSH1 0x20 DUP3 ADD SWAP1 POP DUP2 DUP2 SUB PUSH0 DUP4 ADD MSTORE PUSH2 0x168D DUP2 DUP5 PUSH2 0x1619 JUMP JUMPDEST SWAP1 POP SWAP3 SWAP2 POP POP JUMP JUMPDEST PUSH2 0x169E DUP2 PUSH2 0x1530 JUMP JUMPDEST DUP3 MSTORE POP POP JUMP JUMPDEST PUSH0 PUSH1 0x20 DUP3 ADD SWAP1 POP PUSH2 0x16B7 PUSH0 DUP4 ADD DUP5 PUSH2 0x1695 JUMP JUMPDEST SWAP3 SWAP2 POP POP JUMP JUMPDEST PUSH0 DUP2 SWAP1 POP SWAP2 SWAP1 POP JUMP JUMPDEST PUSH0 PUSH2 0x16E0 PUSH2 0x16DB PUSH2 0x16D6 DUP5 PUSH2 0x15B7 JUMP JUMPDEST PUSH2 0x16BD JUMP JUMPDEST PUSH2 0x15B7 JUMP JUMPDEST SWAP1 POP SWAP2 SWAP1 POP JUMP JUMPDEST PUSH0 PUSH2 0x16F1 DUP3 PUSH2 0x16C6 JUMP JUMPDEST SWAP1 POP SWAP2 SWAP1 POP JUMP JUMPDEST PUSH0 PUSH2 0x1702 DUP3 PUSH2 0x16E7 JUMP JUMPDEST SWAP1 POP SWAP2 SWAP1 POP JUMP JUMPDEST PUSH2 0x1712 DUP2 PUSH2 0x16F8 JUMP JUMPDEST DUP3 MSTORE POP POP JUMP JUMPDEST PUSH0 PUSH1 0x20 DUP3 ADD SWAP1 POP PUSH2 0x172B PUSH0 DUP4 ADD DUP5 PUSH2 0x1709 JUMP JUMPDEST SWAP3 SWAP2 POP POP JUMP JUMPDEST PUSH2 0x173A DUP2 PUSH2 0x15D6 JUMP JUMPDEST DUP2 EQ PUSH2 0x1744 JUMPI PUSH0 DUP1 REVERT JUMPDEST POP JUMP JUMPDEST PUSH0 DUP2 CALLDATALOAD SWAP1 POP PUSH2 0x1755 DUP2 PUSH2 0x1731 JUMP JUMPDEST SWAP3 SWAP2 POP POP JUMP JUMPDEST PUSH0 DUP1 PUSH1 0x40 DUP4 DUP6 SUB SLT ISZERO PUSH2 0x1771 JUMPI PUSH2 0x1770 PUSH2 0x1475 JUMP JUMPDEST JUMPDEST PUSH0 PUSH2 0x177E DUP6 DUP3 DUP7 ADD PUSH2 0x154F JUMP JUMPDEST SWAP3 POP POP PUSH1 0x20 PUSH2 0x178F DUP6 DUP3 DUP7 ADD PUSH2 0x1747 JUMP JUMPDEST SWAP2 POP POP SWAP3 POP SWAP3 SWAP1 POP JUMP JUMPDEST PUSH0 DUP1 REVERT JUMPDEST PUSH0 DUP1 REVERT JUMPDEST PUSH0 PUSH1 0x1F NOT PUSH1 0x1F DUP4 ADD AND SWAP1 POP SWAP2 SWAP1 POP JUMP JUMPDEST PUSH32 0x4E487B7100000000000000000000000000000000000000000000000000000000 PUSH0 MSTORE PUSH1 0x41 PUSH1 0x4 MSTORE PUSH1 0x24 PUSH0 REVERT JUMPDEST PUSH2 0x17E7 DUP3 PUSH2 0x17A1 JUMP JUMPDEST DUP2 ADD DUP2 DUP2 LT PUSH8 0xFFFFFFFFFFFFFFFF DUP3 GT OR ISZERO PUSH2 0x1806 JUMPI PUSH2 0x1805 PUSH2 0x17B1 JUMP JUMPDEST JUMPDEST DUP1 PUSH1 0x40 MSTORE POP POP POP JUMP JUMPDEST PUSH0 PUSH2 0x1818 PUSH2 0x146C JUMP JUMPDEST SWAP1 POP PUSH2 0x1824 DUP3 DUP3 PUSH2 0x17DE JUMP JUMPDEST SWAP2 SWAP1 POP JUMP JUMPDEST PUSH0 PUSH8 0xFFFFFFFFFFFFFFFF DUP3 GT ISZERO PUSH2 0x1843 JUMPI PUSH2 0x1842 PUSH2 0x17B1 JUMP JUMPDEST JUMPDEST PUSH2 0x184C DUP3 PUSH2 0x17A1 JUMP JUMPDEST SWAP1 POP PUSH1 0x20 DUP2 ADD SWAP1 POP SWAP2 SWAP1 POP JUMP JUMPDEST DUP3 DUP2 DUP4 CALLDATACOPY PUSH0 DUP4 DUP4 ADD MSTORE POP POP POP JUMP JUMPDEST PUSH0 PUSH2 0x1879 PUSH2 0x1874 DUP5 PUSH2 0x1829 JUMP JUMPDEST PUSH2 0x180F JUMP JUMPDEST SWAP1 POP DUP3 DUP2 MSTORE PUSH1 0x20 DUP2 ADD DUP5 DUP5 DUP5 ADD GT ISZERO PUSH2 0x1895 JUMPI PUSH2 0x1894 PUSH2 0x179D JUMP JUMPDEST JUMPDEST PUSH2 0x18A0 DUP5 DUP3 DUP6 PUSH2 0x1859 JUMP JUMPDEST POP SWAP4 SWAP3 POP POP POP JUMP JUMPDEST PUSH0 DUP3 PUSH1 0x1F DUP4 ADD SLT PUSH2 0x18BC JUMPI PUSH2 0x18BB PUSH2 0x1799 JUMP JUMPDEST JUMPDEST DUP2 CALLDATALOAD PUSH2 0x18CC DUP5 DUP3 PUSH1 0x20 DUP7 ADD PUSH2 0x1867 JUMP JUMPDEST SWAP2 POP POP SWAP3 SWAP2 POP POP JUMP JUMPDEST PUSH0 DUP1 PUSH1 0x40 DUP4 DUP6 SUB SLT ISZERO PUSH2 0x18EB JUMPI PUSH2 0x18EA PUSH2 0x1475 JUMP JUMPDEST JUMPDEST PUSH0 PUSH2 0x18F8 DUP6 DUP3 DUP7 ADD PUSH2 0x154F JUMP JUMPDEST SWAP3 POP POP PUSH1 0x20 DUP4 ADD CALLDATALOAD PUSH8 0xFFFFFFFFFFFFFFFF DUP2 GT ISZERO PUSH2 0x1919 JUMPI PUSH2 0x1918 PUSH2 0x1479 JUMP JUMPDEST JUMPDEST PUSH2 0x1925 DUP6 DUP3 DUP7 ADD PUSH2 0x18A8 JUMP JUMPDEST SWAP2 POP POP SWAP3 POP SWAP3 SWAP1 POP JUMP JUMPDEST PUSH0 PUSH1 0x20 DUP3 DUP5 SUB SLT ISZERO PUSH2 0x1944 JUMPI PUSH2 0x1943 PUSH2 0x1475 JUMP JUMPDEST JUMPDEST PUSH0 PUSH2 0x1951 DUP5 DUP3 DUP6 ADD PUSH2 0x1747 JUMP JUMPDEST SWAP2 POP POP SWAP3 SWAP2 POP POP JUMP JUMPDEST PUSH0 DUP2 MLOAD SWAP1 POP SWAP2 SWAP1 POP JUMP JUMPDEST PUSH0 DUP3 DUP3 MSTORE PUSH1 0x20 DUP3 ADD SWAP1 POP SWAP3 SWAP2 POP POP JUMP JUMPDEST DUP3 DUP2 DUP4 MCOPY PUSH0 DUP4 DUP4 ADD MSTORE POP POP POP JUMP JUMPDEST PUSH0 PUSH2 0x198C DUP3 PUSH2 0x195A JUMP JUMPDEST PUSH2 0x1996 DUP2 DUP6 PUSH2 0x1964 JUMP JUMPDEST SWAP4 POP PUSH2 0x19A6 DUP2 DUP6 PUSH1 0x20 DUP7 ADD PUSH2 0x1974 JUMP JUMPDEST PUSH2 0x19AF DUP2 PUSH2 0x17A1 JUMP JUMPDEST DUP5 ADD SWAP2 POP POP SWAP3 SWAP2 POP POP JUMP JUMPDEST PUSH0 PUSH1 0x20 DUP3 ADD SWAP1 POP DUP2 DUP2 SUB PUSH0 DUP4 ADD MSTORE PUSH2 0x19D2 DUP2 DUP5 PUSH2 0x1982 JUMP JUMPDEST SWAP1 POP SWAP3 SWAP2 POP POP JUMP JUMPDEST PUSH32 0x4E487B7100000000000000000000000000000000000000000000000000000000 PUSH0 MSTORE PUSH1 0x22 PUSH1 0x4 MSTORE PUSH1 0x24 PUSH0 REVERT JUMPDEST PUSH0 PUSH1 0x2 DUP3 DIV SWAP1 POP PUSH1 0x1 DUP3 AND DUP1 PUSH2 0x1A1E JUMPI PUSH1 0x7F DUP3 AND SWAP2 POP JUMPDEST PUSH1 0x20 DUP3 LT DUP2 SUB PUSH2 0x1A31 JUMPI PUSH2 0x1A30 PUSH2 0x19DA JUMP JUMPDEST JUMPDEST POP SWAP2 SWAP1 POP JUMP JUMPDEST PUSH0 DUP3 DUP3 MSTORE PUSH1 0x20 DUP3 ADD SWAP1 POP SWAP3 SWAP2 POP POP JUMP JUMPDEST PUSH32 0x546F7272656E74206E6F7420666F756E64000000000000000000000000000000 PUSH0 DUP3 ADD MSTORE POP JUMP JUMPDEST PUSH0 PUSH2 0x1A7B PUSH1 0x11 DUP4 PUSH2 0x1A37 JUMP JUMPDEST SWAP2 POP PUSH2 0x1A86 DUP3 PUSH2 0x1A47 JUMP JUMPDEST PUSH1 0x20 DUP3 ADD SWAP1 POP SWAP2 SWAP1 POP JUMP JUMPDEST PUSH0 PUSH1 0x20 DUP3 ADD SWAP1 POP DUP2 DUP2 SUB PUSH0 DUP4 ADD MSTORE PUSH2 0x1AA8 DUP2 PUSH2 0x1A6F JUMP JUMPDEST SWAP1 POP SWAP2 SWAP1 POP JUMP JUMPDEST PUSH32 0x416C726561647920696E20737761726D00000000000000000000000000000000 PUSH0 DUP3 ADD MSTORE POP JUMP JUMPDEST PUSH0 PUSH2 0x1AE3 PUSH1 0x10 DUP4 PUSH2 0x1A37 JUMP JUMPDEST SWAP2 POP PUSH2 0x1AEE DUP3 PUSH2 0x1AAF JUMP JUMPDEST PUSH1 0x20 DUP3 ADD SWAP1 POP SWAP2 SWAP1 POP JUMP JUMPDEST PUSH0 PUSH1 0x20 DUP3 ADD SWAP1 POP DUP2 DUP2 SUB PUSH0 DUP4 ADD MSTORE PUSH2 0x1B10 DUP2 PUSH2 0x1AD7 JUMP JUMPDEST SWAP1 POP SWAP2 SWAP1 POP JUMP JUMPDEST PUSH0 DUP2 SWAP1 POP SWAP2 SWAP1 POP JUMP JUMPDEST PUSH32 0x4E487B7100000000000000000000000000000000000000000000000000000000 PUSH0 MSTORE PUSH1 0x11 PUSH1 0x4 MSTORE PUSH1 0x24 PUSH0 REVERT JUMPDEST PUSH0 PUSH2 0x1B57 DUP3 PUSH2 0x1B17 JUMP JUMPDEST SWAP2 POP PUSH2 0x1B62 DUP4 PUSH2 0x1B17 JUMP JUMPDEST SWAP3 POP DUP3 DUP3 SUB SWAP1 POP DUP2 DUP2 GT ISZERO PUSH2 0x1B7A JUMPI PUSH2 0x1B79 PUSH2 0x1B20 JUMP JUMPDEST JUMPDEST SWAP3 SWAP2 POP POP JUMP JUMPDEST PUSH32 0x546F7272656E7420616C72656164792065786973747300000000000000000000 PUSH0 DUP3 ADD MSTORE POP JUMP JUMPDEST PUSH0 PUSH2 0x1BB4 PUSH1 0x16 DUP4 PUSH2 0x1A37 JUMP JUMPDEST SWAP2 POP PUSH2 0x1BBF DUP3 PUSH2 0x1B80 JUMP JUMPDEST PUSH1 0x20 DUP3 ADD SWAP1 POP SWAP2 SWAP1 POP JUMP JUMPDEST PUSH0 PUSH1 0x20 DUP3 ADD SWAP1 POP DUP2 DUP2 SUB PUSH0 DUP4 ADD MSTORE PUSH2 0x1BE1 DUP2 PUSH2 0x1BA8 JUMP JUMPDEST SWAP1 POP SWAP2 SWAP1 POP JUMP JUMPDEST PUSH32 0x456D707479206D65746164617461000000000000000000000000000000000000 PUSH0 DUP3 ADD MSTORE POP JUMP JUMPDEST PUSH0 PUSH2 0x1C1C PUSH1 0xE DUP4 PUSH2 0x1A37 JUMP JUMPDEST SWAP2 POP PUSH2 0x1C27 DUP3 PUSH2 0x1BE8 JUMP JUMPDEST PUSH1 0x20 DUP3 ADD SWAP1 POP SWAP2 SWAP1 POP JUMP JUMPDEST PUSH0 PUSH1 0x20 DUP3 ADD SWAP1 POP DUP2 DUP2 SUB PUSH0 DUP4 ADD MSTORE PUSH2 0x1C49 DUP2 PUSH2 0x1C10 JUMP JUMPDEST SWAP1 POP SWAP2 SWAP1 POP JUMP JUMPDEST PUSH0 DUP2 SWAP1 POP DUP2 PUSH0 MSTORE PUSH1 0x20 PUSH0 KECCAK256 SWAP1 POP SWAP2 SWAP1 POP JUMP JUMPDEST PUSH0 PUSH1 0x20 PUSH1 0x1F DUP4 ADD DIV SWAP1 POP SWAP2 SWAP1 POP JUMP JUMPDEST PUSH0 DUP3 DUP3 SHL SWAP1 POP SWAP3 SWAP2 POP POP JUMP JUMPDEST PUSH0 PUSH1 0x8 DUP4 MUL PUSH2 0x1CAC PUSH32 0xFFFFFFFFFFFFFFFFFFFFFFFFFFFFFFFFFFFFFFFFFFFFFFFFFFFFFFFFFFFFFFFF DUP3 PUSH2 0x1C71 JUMP JUMPDEST PUSH2 0x1CB6 DUP7 DUP4 PUSH2 0x1C71 JUMP JUMPDEST SWAP6 POP DUP1 NOT DUP5 AND SWAP4 POP DUP1 DUP7 AND DUP5 OR SWAP3 POP POP POP SWAP4 SWAP3 POP POP POP JUMP JUMPDEST PUSH0 PUSH2 0x1CE8 PUSH2 0x1CE3 PUSH2 0x1CDE DUP5 PUSH2 0x1B17 JUMP JUMPDEST PUSH2 0x16BD JUMP JUMPDEST PUSH2 0x1B17 JUMP JUMPDEST SWAP1 POP SWAP2 SWAP1 POP JUMP JUMPDEST PUSH0 DUP2 SWAP1 POP SWAP2 SWAP1 POP JUMP JUMPDEST PUSH2 0x1D01 DUP4 PUSH2 0x1CCE JUMP JUMPDEST PUSH2 0x1D15 PUSH2 0x1D0D DUP3 PUSH2 0x1CEF JUMP JUMPDEST DUP5 DUP5 SLOAD PUSH2 0x1C7D JUMP JUMPDEST DUP3 SSTORE POP POP POP POP JUMP JUMPDEST PUSH0 SWAP1 JUMP JUMPDEST PUSH2 0x1D29 PUSH2 0x1D1D JUMP JUMPDEST PUSH2 0x1D34 DUP2 DUP5 DUP5 PUSH2 0x1CF8 JUMP JUMPDEST POP POP POP JUMP JUMPDEST JUMPDEST DUP2 DUP2 LT ISZERO PUSH2 0x1D57 JUMPI PUSH2 0x1D4C PUSH0 DUP3 PUSH2 0x1D21 JUMP JUMPDEST PUSH1 0x1 DUP2 ADD SWAP1 POP PUSH2 0x1D3A JUMP JUMPDEST POP POP JUMP JUMPDEST PUSH1 0x1F DUP3 GT ISZERO PUSH2 0x1D9C JUMPI PUSH2 0x1D6D DUP2 PUSH2 0x1C50 JUMP JUMPDEST PUSH2 0x1D76 DUP5 PUSH2 0x1C62 JUMP JUMPDEST DUP2 ADD PUSH1 0x20 DUP6 LT ISZERO PUSH2 0x1D85 JUMPI DUP2 SWAP1 POP JUMPDEST PUSH2 0x1D99 PUSH2 0x1D91 DUP6 PUSH2 0x1C62 JUMP JUMPDEST DUP4 ADD DUP3 PUSH2 0x1D39 JUMP JUMPDEST POP POP JUMPDEST POP POP POP JUMP JUMPDEST PUSH0 DUP3 DUP3 SHR SWAP1 POP SWAP3 SWAP2 POP POP JUMP JUMPDEST PUSH0 PUSH2 0x1DBC PUSH0 NOT DUP5 PUSH1 0x8 MUL PUSH2 0x1DA1 JUMP JUMPDEST NOT DUP1 DUP4 AND SWAP2 POP POP SWAP3 SWAP2 POP POP JUMP JUMPDEST PUSH0 PUSH2 0x1DD4 DUP4 DUP4 PUSH2 0x1DAD JUMP JUMPDEST SWAP2 POP DUP3 PUSH1 0x2 MUL DUP3 OR SWAP1 POP SWAP3 SWAP2 POP POP JUMP JUMPDEST PUSH2 0x1DED DUP3 PUSH2 0x195A JUMP JUMPDEST PUSH8 0xFFFFFFFFFFFFFFFF DUP2 GT ISZERO PUSH2 0x1E06 JUMPI PUSH2 0x1E05 PUSH2 0x17B1 JUMP JUMPDEST JUMPDEST PUSH2 0x1E10 DUP3 SLOAD PUSH2 0x1A07 JUMP JUMPDEST PUSH2 0x1E1B DUP3 DUP3 DUP6 PUSH2 0x1D5B JUMP JUMPDEST PUSH0 PUSH1 0x20 SWAP1 POP PUSH1 0x1F DUP4 GT PUSH1 0x1 DUP2 EQ PUSH2 0x1E4C JUMPI PUSH0 DUP5 ISZERO PUSH2 0x1E3A JUMPI DUP3 DUP8 ADD MLOAD SWAP1 POP JUMPDEST PUSH2 0x1E44 DUP6 DUP3 PUSH2 0x1DC9 JUMP JUMPDEST DUP7 SSTORE POP PUSH2 0x1EAB JUMP JUMPDEST PUSH1 0x1F NOT DUP5 AND PUSH2 0x1E5A DUP7 PUSH2 0x1C50 JUMP JUMPDEST PUSH0 JUMPDEST DUP3 DUP2 LT ISZERO PUSH2 0x1E81 JUMPI DUP5 DUP10 ADD MLOAD DUP3 SSTORE PUSH1 0x1 DUP3 ADD SWAP2 POP PUSH1 0x20 DUP6 ADD SWAP5 POP PUSH1 0x20 DUP2 ADD SWAP1 POP PUSH2 0x1E5C JUMP JUMPDEST DUP7 DUP4 LT ISZERO PUSH2 0x1E9E JUMPI DUP5 DUP10 ADD MLOAD PUSH2 0x1E9A PUSH1 0x1F DUP10 AND DUP3 PUSH2 0x1DAD JUMP JUMPDEST DUP4 SSTORE POP JUMPDEST PUSH1 0x1 PUSH1 0x2 DUP9 MUL ADD DUP9 SSTORE POP POP POP JUMPDEST POP POP POP POP POP POP JUMP JUMPDEST PUSH32 0x496E76616C696420766572696669657220616464726573730000000000000000 PUSH0 DUP3 ADD MSTORE POP JUMP JUMPDEST PUSH0 PUSH2 0x1EE7 PUSH1 0x18 DUP4 PUSH2 0x1A37 JUMP JUMPDEST SWAP2 POP PUSH2 0x1EF2 DUP3 PUSH2 0x1EB3 JUMP JUMPDEST PUSH1 0x20 DUP3 ADD SWAP1 POP SWAP2 SWAP1 POP JUMP JUMPDEST PUSH0 PUSH1 0x20 DUP3 ADD SWAP1 POP DUP2 DUP2 SUB PUSH0 DUP4 ADD MSTORE PUSH2 0x1F14 DUP2 PUSH2 0x1EDB JUMP JUMPDEST SWAP1 POP SWAP2 SWAP1 POP JUMP JUMPDEST PUSH32 0x4E6F7420696E20737761726D0000000000000000000000000000000000000000 PUSH0 DUP3 ADD MSTORE POP JUMP JUMPDEST PUSH0 PUSH2 0x1F4F PUSH1 0xC DUP4 PUSH2 0x1A37 JUMP JUMPDEST SWAP2 POP PUSH2 0x1F5A DUP3 PUSH2 0x1F1B JUMP JUMPDEST PUSH1 0x20 DUP3 ADD SWAP1 POP SWAP2 SWAP1 POP JUMP JUMPDEST PUSH0 PUSH1 0x20 DUP3 ADD SWAP1 POP DUP2 DUP2 SUB PUSH0 DUP4 ADD MSTORE PUSH2 0x1F7C DUP2 PUSH2 0x1F43 JUMP JUMPDEST SWAP1 POP SWAP2 SWAP1 POP JUMP JUMPDEST PUSH32 0x4E487B7100000000000000000000000000000000000000000000000000000000 PUSH0 MSTORE PUSH1 0x32 PUSH1 0x4 MSTORE PUSH1 0x24 PUSH0 REVERT JUMPDEST PUSH32 0x4E487B7100000000000000000000000000000000000000000000000000000000 PUSH0 MSTORE PUSH1 0x31 PUSH1 0x4 MSTORE PUSH1 0x24 PUSH0 REVERT JUMPDEST PUSH2 0x1FE6 DUP2 PUSH2 0x15D6 JUMP JUMPDEST DUP3 MSTORE POP POP JUMP JUMPDEST PUSH0 PUSH1 0x20 DUP3 ADD SWAP1 POP PUSH2 0x1FFF PUSH0 DUP4 ADD DUP5 PUSH2 0x1FDD JUMP JUMPDEST SWAP3 SWAP2 POP POP JUMP JUMPDEST PUSH0 PUSH1 0x40 DUP3 ADD SWAP1 POP PUSH2 0x2018 PUSH0 DUP4 ADD DUP6 PUSH2 0x1FDD JUMP JUMPDEST PUSH2 0x2025 PUSH1 0x20 DUP4 ADD DUP5 PUSH2 0x1695 JUMP JUMPDEST SWAP4 SWAP3 POP POP POP JUMP INVALID LOG2 PUSH5 0x6970667358 0x22 SLT KECCAK256 DUP9 PUSH20 0xCDC3F3431D783C09784A3FCDB6D984E4E943B2C9 PUSH11 0x926BC35F8D7D0446966473 PUSH16 0x6C634300081A00330000000000000000 "
				},
				"gasEstimates": {
					"creation": {
						"codeDepositCost": "1658000",
						"executionCost": "infinite",
						"totalCost": "infinite"
					},
					"external": {
						"DEFAULT_ADMIN_ROLE()": "374",
						"OPERATOR_ROLE()": "435",
						"addTorrent(bytes32,bytes)": "infinite",
						"getRoleAdmin(bytes32)": "infinite",
						"getSwarmPeers(bytes32)": "infinite",
						"getTorrentMetadata(bytes32)": "infinite",
						"grantRole(bytes32,address)": "infinite",
						"hasRole(bytes32,address)": "3189",
						"isPeerInSwarm(bytes32,address)": "9809",
						"joinSwarm(bytes32)": "infinite",
						"leaveSwarm(bytes32)": "infinite",
						"pause()": "infinite",
						"paused()": "2562",
						"removeTorrent(bytes32)": "infinite",
						"renounceRole(bytes32,address)": "infinite",
						"revokeRole(bytes32,address)": "infinite",
						"supportsInterface(bytes4)": "741",
						"unpause()": "infinite",
						"updateVerifier(address)": "infinite",
						"verifier()": "infinite"
					},
					"internal": {
						"_isPeerInSwarm(bytes32,address)": "8934"
					}
				},
				"methodIdentifiers": {
					"DEFAULT_ADMIN_ROLE()": "a217fddf",
					"OPERATOR_ROLE()": "f5b541a6",
					"addTorrent(bytes32,bytes)": "85a80265",
					"getRoleAdmin(bytes32)": "248a9ca3",
					"getSwarmPeers(bytes32)": "1a26edb5",
					"getTorrentMetadata(bytes32)": "c7aa2f1e",
					"grantRole(bytes32,address)": "2f2ff15d",
					"hasRole(bytes32,address)": "91d14854",
					"isPeerInSwarm(bytes32,address)": "3d2babf2",
					"joinSwarm(bytes32)": "675fd3e6",
					"leaveSwarm(bytes32)": "9a5e71c2",
					"pause()": "8456cb59",
					"paused()": "5c975abb",
					"removeTorrent(bytes32)": "97ab3501",
					"renounceRole(bytes32,address)": "36568abe",
					"revokeRole(bytes32,address)": "d547741f",
					"supportsInterface(bytes4)": "01ffc9a7",
					"unpause()": "3f4ba83a",
					"updateVerifier(address)": "97fc007c",
					"verifier()": "2b7ac3f3"
				}
			},
			"storageLayout": {
				"storage": [
					{
						"astId": 26,
						"contract": "bittorrent/BitTorrentIntegration.sol:BitTorrentIntegration",
						"label": "_roles",
						"offset": 0,
						"slot": "0",
						"type": "t_mapping(t_bytes32,t_struct(RoleData)21_storage)"
					},
					{
						"astId": 417,
						"contract": "bittorrent/BitTorrentIntegration.sol:BitTorrentIntegration",
						"label": "_paused",
						"offset": 0,
						"slot": "1",
						"type": "t_bool"
					},
					{
						"astId": 536,
						"contract": "bittorrent/BitTorrentIntegration.sol:BitTorrentIntegration",
						"label": "_status",
						"offset": 0,
						"slot": "2",
						"type": "t_uint256"
					},
					{
						"astId": 653,
						"contract": "bittorrent/BitTorrentIntegration.sol:BitTorrentIntegration",
						"label": "verifier",
						"offset": 0,
						"slot": "3",
						"type": "t_contract(IVerifier)1141"
					},
					{
						"astId": 658,
						"contract": "bittorrent/BitTorrentIntegration.sol:BitTorrentIntegration",
						"label": "swarmPeers",
						"offset": 0,
						"slot": "4",
						"type": "t_mapping(t_bytes32,t_array(t_address)dyn_storage)"
					},
					{
						"astId": 664,
						"contract": "bittorrent/BitTorrentIntegration.sol:BitTorrentIntegration",
						"label": "peerIndices",
						"offset": 0,
						"slot": "5",
						"type": "t_mapping(t_bytes32,t_mapping(t_address,t_uint256))"
					},
					{
						"astId": 668,
						"contract": "bittorrent/BitTorrentIntegration.sol:BitTorrentIntegration",
						"label": "torrentMetadata",
						"offset": 0,
						"slot": "6",
						"type": "t_mapping(t_bytes32,t_bytes_storage)"
					}
				],
				"types": {
					"t_address": {
						"encoding": "inplace",
						"label": "address",
						"numberOfBytes": "20"
					},
					"t_array(t_address)dyn_storage": {
						"base": "t_address",
						"encoding": "dynamic_array",
						"label": "address[]",
						"numberOfBytes": "32"
					},
					"t_bool": {
						"encoding": "inplace",
						"label": "bool",
						"numberOfBytes": "1"
					},
					"t_bytes32": {
						"encoding": "inplace",
						"label": "bytes32",
						"numberOfBytes": "32"
					},
					"t_bytes_storage": {
						"encoding": "bytes",
						"label": "bytes",
						"numberOfBytes": "32"
					},
					"t_contract(IVerifier)1141": {
						"encoding": "inplace",
						"label": "contract IVerifier",
						"numberOfBytes": "20"
					},
					"t_mapping(t_address,t_bool)": {
						"encoding": "mapping",
						"key": "t_address",
						"label": "mapping(address => bool)",
						"numberOfBytes": "32",
						"value": "t_bool"
					},
					"t_mapping(t_address,t_uint256)": {
						"encoding": "mapping",
						"key": "t_address",
						"label": "mapping(address => uint256)",
						"numberOfBytes": "32",
						"value": "t_uint256"
					},
					"t_mapping(t_bytes32,t_array(t_address)dyn_storage)": {
						"encoding": "mapping",
						"key": "t_bytes32",
						"label": "mapping(bytes32 => address[])",
						"numberOfBytes": "32",
						"value": "t_array(t_address)dyn_storage"
					},
					"t_mapping(t_bytes32,t_bytes_storage)": {
						"encoding": "mapping",
						"key": "t_bytes32",
						"label": "mapping(bytes32 => bytes)",
						"numberOfBytes": "32",
						"value": "t_bytes_storage"
					},
					"t_mapping(t_bytes32,t_mapping(t_address,t_uint256))": {
						"encoding": "mapping",
						"key": "t_bytes32",
						"label": "mapping(bytes32 => mapping(address => uint256))",
						"numberOfBytes": "32",
						"value": "t_mapping(t_address,t_uint256)"
					},
					"t_mapping(t_bytes32,t_struct(RoleData)21_storage)": {
						"encoding": "mapping",
						"key": "t_bytes32",
						"label": "mapping(bytes32 => struct AccessControl.RoleData)",
						"numberOfBytes": "32",
						"value": "t_struct(RoleData)21_storage"
					},
					"t_struct(RoleData)21_storage": {
						"encoding": "inplace",
						"label": "struct AccessControl.RoleData",
						"members": [
							{
								"astId": 18,
								"contract": "bittorrent/BitTorrentIntegration.sol:BitTorrentIntegration",
								"label": "hasRole",
								"offset": 0,
								"slot": "0",
								"type": "t_mapping(t_address,t_bool)"
							},
							{
								"astId": 20,
								"contract": "bittorrent/BitTorrentIntegration.sol:BitTorrentIntegration",
								"label": "adminRole",
								"offset": 0,
								"slot": "1",
								"type": "t_bytes32"
							}
						],
						"numberOfBytes": "64"
					},
					"t_uint256": {
						"encoding": "inplace",
						"label": "uint256",
						"numberOfBytes": "32"
					}
				}
			},
			"userdoc": {
				"kind": "user",
				"methods": {},
				"version": 1
			}
		}
	}
}