{
	"bittorrent/BitTorrentIntegration.sol": {
		"BitTorrentIntegration": {
			"abi": [
				{
					"inputs": [],
					"stateMutability": "nonpayable",
					"type": "constructor"
				},
				{
					"inputs": [
						{
							"internalType": "address",
							"name": "owner",
							"type": "address"
						}
					],
					"name": "OwnableInvalidOwner",
					"type": "error"
				},
				{
					"inputs": [
						{
							"internalType": "address",
							"name": "account",
							"type": "address"
						}
					],
					"name": "OwnableUnauthorizedAccount",
					"type": "error"
				},
				{
					"anonymous": false,
					"inputs": [
						{
							"indexed": true,
							"internalType": "bytes32",
							"name": "fileHash",
							"type": "bytes32"
						},
						{
							"indexed": false,
							"internalType": "string",
							"name": "magnetLink",
							"type": "string"
						}
					],
					"name": "MagnetLinkGenerated",
					"type": "event"
				},
				{
					"anonymous": false,
					"inputs": [
						{
							"indexed": true,
							"internalType": "bytes32",
							"name": "fileHash",
							"type": "bytes32"
						},
						{
							"indexed": false,
							"internalType": "string",
							"name": "magnetLink",
							"type": "string"
						}
					],
					"name": "MagnetLinkStored",
					"type": "event"
				},
				{
					"anonymous": false,
					"inputs": [
						{
							"indexed": true,
							"internalType": "address",
							"name": "previousOwner",
							"type": "address"
						},
						{
							"indexed": true,
							"internalType": "address",
							"name": "newOwner",
							"type": "address"
						}
					],
					"name": "OwnershipTransferred",
					"type": "event"
				},
				{
					"inputs": [
						{
							"internalType": "bytes32",
							"name": "_fileHash",
							"type": "bytes32"
						},
						{
							"internalType": "uint256",
							"name": "_size",
							"type": "uint256"
						}
					],
					"name": "generateMagnetLink",
					"outputs": [
						{
							"internalType": "string",
							"name": "",
							"type": "string"
						}
					],
					"stateMutability": "pure",
					"type": "function"
				},
				{
					"inputs": [
						{
							"internalType": "bytes32",
							"name": "_fileHash",
							"type": "bytes32"
						}
					],
					"name": "getMagnetLink",
					"outputs": [
						{
							"internalType": "string",
							"name": "",
							"type": "string"
						}
					],
					"stateMutability": "view",
					"type": "function"
				},
				{
					"inputs": [],
					"name": "owner",
					"outputs": [
						{
							"internalType": "address",
							"name": "",
							"type": "address"
						}
					],
					"stateMutability": "view",
					"type": "function"
				},
				{
					"inputs": [],
					"name": "renounceOwnership",
					"outputs": [],
					"stateMutability": "nonpayable",
					"type": "function"
				},
				{
					"inputs": [
						{
							"internalType": "bytes32",
							"name": "_fileHash",
							"type": "bytes32"
						},
						{
							"internalType": "string",
							"name": "_magnetLink",
							"type": "string"
						}
					],
					"name": "storeMagnetLink",
					"outputs": [],
					"stateMutability": "nonpayable",
					"type": "function"
				},
				{
					"inputs": [
						{
							"internalType": "address",
							"name": "newOwner",
							"type": "address"
						}
					],
					"name": "transferOwnership",
					"outputs": [],
					"stateMutability": "nonpayable",
					"type": "function"
				}
			],
			"devdoc": {
				"errors": {
					"OwnableInvalidOwner(address)": [
						{
							"details": "The owner is not a valid owner account. (eg. `address(0)`)"
						}
					],
					"OwnableUnauthorizedAccount(address)": [
						{
							"details": "The caller account is not authorized to perform an operation."
						}
					]
				},
				"kind": "dev",
				"methods": {
					"owner()": {
						"details": "Returns the address of the current owner."
					},
					"renounceOwnership()": {
						"details": "Leaves the contract without owner. It will not be possible to call `onlyOwner` functions. Can only be called by the current owner. NOTE: Renouncing ownership will leave the contract without an owner, thereby disabling any functionality that is only available to the owner."
					},
					"transferOwnership(address)": {
						"details": "Transfers ownership of the contract to a new account (`newOwner`). Can only be called by the current owner."
					}
				},
				"version": 1
			},
			"evm": {
				"assembly": "    /* \"bittorrent/BitTorrentIntegration.sol\":113:2437  contract BitTorrentIntegration is Ownable {... */\n  mstore(0x40, 0x80)\n    /* \"bittorrent/BitTorrentIntegration.sol\":161:197  constructor() Ownable(msg.sender) {} */\n  callvalue\n  dup1\n  iszero\n  tag_1\n  jumpi\n  0x00\n  dup1\n  revert\ntag_1:\n  pop\n    /* \"bittorrent/BitTorrentIntegration.sol\":183:193  msg.sender */\n  caller\n    /* \"@openzeppelin/contracts/access/Ownable.sol\":1297:1298  0 */\n  0x00\n    /* \"@openzeppelin/contracts/access/Ownable.sol\":1273:1299  initialOwner == address(0) */\n  0xffffffffffffffffffffffffffffffffffffffff\n  and\n    /* \"@openzeppelin/contracts/access/Ownable.sol\":1273:1285  initialOwner */\n  dup2\n    /* \"@openzeppelin/contracts/access/Ownable.sol\":1273:1299  initialOwner == address(0) */\n  0xffffffffffffffffffffffffffffffffffffffff\n  and\n  sub\n    /* \"@openzeppelin/contracts/access/Ownable.sol\":1269:1364  if (initialOwner == address(0)) {... */\n  tag_5\n  jumpi\n    /* \"@openzeppelin/contracts/access/Ownable.sol\":1350:1351  0 */\n  0x00\n    /* \"@openzeppelin/contracts/access/Ownable.sol\":1322:1353  OwnableInvalidOwner(address(0)) */\n  mload(0x40)\n  0x1e4fbdf700000000000000000000000000000000000000000000000000000000\n  dup2\n  mstore\n  0x04\n  add\n  tag_6\n  swap2\n  swap1\n  tag_7\n  jump\t// in\ntag_6:\n  mload(0x40)\n  dup1\n  swap2\n  sub\n  swap1\n  revert\n    /* \"@openzeppelin/contracts/access/Ownable.sol\":1269:1364  if (initialOwner == address(0)) {... */\ntag_5:\n    /* \"@openzeppelin/contracts/access/Ownable.sol\":1373:1405  _transferOwnership(initialOwner) */\n  tag_8\n    /* \"@openzeppelin/contracts/access/Ownable.sol\":1392:1404  initialOwner */\n  dup2\n    /* \"@openzeppelin/contracts/access/Ownable.sol\":1373:1391  _transferOwnership */\n  shl(0x20, tag_9)\n    /* \"@openzeppelin/contracts/access/Ownable.sol\":1373:1405  _transferOwnership(initialOwner) */\n  0x20\n  shr\n  jump\t// in\ntag_8:\n    /* \"@openzeppelin/contracts/access/Ownable.sol\":1225:1412  constructor(address initialOwner) {... */\n  pop\n    /* \"bittorrent/BitTorrentIntegration.sol\":113:2437  contract BitTorrentIntegration is Ownable {... */\n  jump(tag_11)\n    /* \"@openzeppelin/contracts/access/Ownable.sol\":2912:3099  function _transferOwnership(address newOwner) internal virtual {... */\ntag_9:\n    /* \"@openzeppelin/contracts/access/Ownable.sol\":2985:3001  address oldOwner */\n  0x00\n    /* \"@openzeppelin/contracts/access/Ownable.sol\":3004:3010  _owner */\n  dup1\n  0x00\n  swap1\n  sload\n  swap1\n  0x0100\n  exp\n  swap1\n  div\n  0xffffffffffffffffffffffffffffffffffffffff\n  and\n    /* \"@openzeppelin/contracts/access/Ownable.sol\":2985:3010  address oldOwner = _owner */\n  swap1\n  pop\n    /* \"@openzeppelin/contracts/access/Ownable.sol\":3029:3037  newOwner */\n  dup2\n    /* \"@openzeppelin/contracts/access/Ownable.sol\":3020:3026  _owner */\n  0x00\n  dup1\n    /* \"@openzeppelin/contracts/access/Ownable.sol\":3020:3037  _owner = newOwner */\n  0x0100\n  exp\n  dup2\n  sload\n  dup2\n  0xffffffffffffffffffffffffffffffffffffffff\n  mul\n  not\n  and\n  swap1\n  dup4\n  0xffffffffffffffffffffffffffffffffffffffff\n  and\n  mul\n  or\n  swap1\n  sstore\n  pop\n    /* \"@openzeppelin/contracts/access/Ownable.sol\":3083:3091  newOwner */\n  dup2\n    /* \"@openzeppelin/contracts/access/Ownable.sol\":3052:3092  OwnershipTransferred(oldOwner, newOwner) */\n  0xffffffffffffffffffffffffffffffffffffffff\n  and\n    /* \"@openzeppelin/contracts/access/Ownable.sol\":3073:3081  oldOwner */\n  dup2\n    /* \"@openzeppelin/contracts/access/Ownable.sol\":3052:3092  OwnershipTransferred(oldOwner, newOwner) */\n  0xffffffffffffffffffffffffffffffffffffffff\n  and\n  0x8be0079c531659141344cd1fd0a4f28419497f9722a3daafe3b4186f6b6457e0\n  mload(0x40)\n  mload(0x40)\n  dup1\n  swap2\n  sub\n  swap1\n  log3\n    /* \"@openzeppelin/contracts/access/Ownable.sol\":2975:3099  {... */\n  pop\n    /* \"@openzeppelin/contracts/access/Ownable.sol\":2912:3099  function _transferOwnership(address newOwner) internal virtual {... */\n  pop\n  jump\t// out\n    /* \"#utility.yul\":7:133   */\ntag_13:\n    /* \"#utility.yul\":44:51   */\n  0x00\n    /* \"#utility.yul\":84:126   */\n  0xffffffffffffffffffffffffffffffffffffffff\n    /* \"#utility.yul\":77:82   */\n  dup3\n    /* \"#utility.yul\":73:127   */\n  and\n    /* \"#utility.yul\":62:127   */\n  swap1\n  pop\n    /* \"#utility.yul\":7:133   */\n  swap2\n  swap1\n  pop\n  jump\t// out\n    /* \"#utility.yul\":139:235   */\ntag_14:\n    /* \"#utility.yul\":176:183   */\n  0x00\n    /* \"#utility.yul\":205:229   */\n  tag_19\n    /* \"#utility.yul\":223:228   */\n  dup3\n    /* \"#utility.yul\":205:229   */\n  tag_13\n  jump\t// in\ntag_19:\n    /* \"#utility.yul\":194:229   */\n  swap1\n  pop\n    /* \"#utility.yul\":139:235   */\n  swap2\n  swap1\n  pop\n  jump\t// out\n    /* \"#utility.yul\":241:359   */\ntag_15:\n    /* \"#utility.yul\":328:352   */\n  tag_21\n    /* \"#utility.yul\":346:351   */\n  dup2\n    /* \"#utility.yul\":328:352   */\n  tag_14\n  jump\t// in\ntag_21:\n    /* \"#utility.yul\":323:326   */\n  dup3\n    /* \"#utility.yul\":316:353   */\n  mstore\n    /* \"#utility.yul\":241:359   */\n  pop\n  pop\n  jump\t// out\n    /* \"#utility.yul\":365:587   */\ntag_7:\n    /* \"#utility.yul\":458:462   */\n  0x00\n    /* \"#utility.yul\":496:498   */\n  0x20\n    /* \"#utility.yul\":485:494   */\n  dup3\n    /* \"#utility.yul\":481:499   */\n  add\n    /* \"#utility.yul\":473:499   */\n  swap1\n  pop\n    /* \"#utility.yul\":509:580   */\n  tag_23\n    /* \"#utility.yul\":577:578   */\n  0x00\n    /* \"#utility.yul\":566:575   */\n  dup4\n    /* \"#utility.yul\":562:579   */\n  add\n    /* \"#utility.yul\":553:559   */\n  dup5\n    /* \"#utility.yul\":509:580   */\n  tag_15\n  jump\t// in\ntag_23:\n    /* \"#utility.yul\":365:587   */\n  swap3\n  swap2\n  pop\n  pop\n  jump\t// out\n    /* \"bittorrent/BitTorrentIntegration.sol\":113:2437  contract BitTorrentIntegration is Ownable {... */\ntag_11:\n  dataSize(sub_0)\n  dup1\n  dataOffset(sub_0)\n  0x00\n  codecopy\n  0x00\n  return\nstop\n\nsub_0: assembly {\n        /* \"bittorrent/BitTorrentIntegration.sol\":113:2437  contract BitTorrentIntegration is Ownable {... */\n      mstore(0x40, 0x80)\n      callvalue\n      dup1\n      iszero\n      tag_1\n      jumpi\n      0x00\n      dup1\n      revert\n    tag_1:\n      pop\n      jumpi(tag_2, lt(calldatasize, 0x04))\n      shr(0xe0, calldataload(0x00))\n      dup1\n      0x1a5d57e8\n      eq\n      tag_3\n      jumpi\n      dup1\n      0x3558d7bb\n      eq\n      tag_4\n      jumpi\n      dup1\n      0x715018a6\n      eq\n      tag_5\n      jumpi\n      dup1\n      0x8da5cb5b\n      eq\n      tag_6\n      jumpi\n      dup1\n      0xbba77f4d\n      eq\n      tag_7\n      jumpi\n      dup1\n      0xf2fde38b\n      eq\n      tag_8\n      jumpi\n    tag_2:\n      0x00\n      dup1\n      revert\n        /* \"bittorrent/BitTorrentIntegration.sol\":959:1246  function storeMagnetLink(bytes32 _fileHash, string memory _magnetLink) public onlyOwner {... */\n    tag_3:\n      tag_9\n      0x04\n      dup1\n      calldatasize\n      sub\n      dup2\n      add\n      swap1\n      tag_10\n      swap2\n      swap1\n      tag_11\n      jump\t// in\n    tag_10:\n      tag_12\n      jump\t// in\n    tag_9:\n      stop\n        /* \"bittorrent/BitTorrentIntegration.sol\":1305:1429  function getMagnetLink(bytes32 _fileHash) public view returns (string memory) {... */\n    tag_4:\n      tag_13\n      0x04\n      dup1\n      calldatasize\n      sub\n      dup2\n      add\n      swap1\n      tag_14\n      swap2\n      swap1\n      tag_15\n      jump\t// in\n    tag_14:\n      tag_16\n      jump\t// in\n    tag_13:\n      mload(0x40)\n      tag_17\n      swap2\n      swap1\n      tag_18\n      jump\t// in\n    tag_17:\n      mload(0x40)\n      dup1\n      swap2\n      sub\n      swap1\n      return\n        /* \"@openzeppelin/contracts/access/Ownable.sol\":2293:2394  function renounceOwnership() public virtual onlyOwner {... */\n    tag_5:\n      tag_19\n      tag_20\n      jump\t// in\n    tag_19:\n      stop\n        /* \"@openzeppelin/contracts/access/Ownable.sol\":1638:1723  function owner() public view virtual returns (address) {... */\n    tag_6:\n      tag_21\n      tag_22\n      jump\t// in\n    tag_21:\n      mload(0x40)\n      tag_23\n      swap2\n      swap1\n      tag_24\n      jump\t// in\n    tag_23:\n      mload(0x40)\n      dup1\n      swap2\n      sub\n      swap1\n      return\n        /* \"bittorrent/BitTorrentIntegration.sol\":607:903  function generateMagnetLink(bytes32 _fileHash, uint256 _size) public pure returns (string memory) {... */\n    tag_7:\n      tag_25\n      0x04\n      dup1\n      calldatasize\n      sub\n      dup2\n      add\n      swap1\n      tag_26\n      swap2\n      swap1\n      tag_27\n      jump\t// in\n    tag_26:\n      tag_28\n      jump\t// in\n    tag_25:\n      mload(0x40)\n      tag_29\n      swap2\n      swap1\n      tag_18\n      jump\t// in\n    tag_29:\n      mload(0x40)\n      dup1\n      swap2\n      sub\n      swap1\n      return\n        /* \"@openzeppelin/contracts/access/Ownable.sol\":2543:2758  function transferOwnership(address newOwner) public virtual onlyOwner {... */\n    tag_8:\n      tag_30\n      0x04\n      dup1\n      calldatasize\n      sub\n      dup2\n      add\n      swap1\n      tag_31\n      swap2\n      swap1\n      tag_32\n      jump\t// in\n    tag_31:\n      tag_33\n      jump\t// in\n    tag_30:\n      stop\n        /* \"bittorrent/BitTorrentIntegration.sol\":959:1246  function storeMagnetLink(bytes32 _fileHash, string memory _magnetLink) public onlyOwner {... */\n    tag_12:\n        /* \"@openzeppelin/contracts/access/Ownable.sol\":1531:1544  _checkOwner() */\n      tag_35\n        /* \"@openzeppelin/contracts/access/Ownable.sol\":1531:1542  _checkOwner */\n      tag_36\n        /* \"@openzeppelin/contracts/access/Ownable.sol\":1531:1544  _checkOwner() */\n      jump\t// in\n    tag_35:\n        /* \"bittorrent/BitTorrentIntegration.sol\":1130:1141  _magnetLink */\n      dup1\n        /* \"bittorrent/BitTorrentIntegration.sol\":1105:1116  magnetLinks */\n      0x01\n        /* \"bittorrent/BitTorrentIntegration.sol\":1105:1127  magnetLinks[_fileHash] */\n      0x00\n        /* \"bittorrent/BitTorrentIntegration.sol\":1117:1126  _fileHash */\n      dup5\n        /* \"bittorrent/BitTorrentIntegration.sol\":1105:1127  magnetLinks[_fileHash] */\n      dup2\n      mstore\n      0x20\n      add\n      swap1\n      dup2\n      mstore\n      0x20\n      add\n      0x00\n      keccak256\n        /* \"bittorrent/BitTorrentIntegration.sol\":1105:1141  magnetLinks[_fileHash] = _magnetLink */\n      swap1\n      dup2\n      tag_38\n      swap2\n      swap1\n      tag_39\n      jump\t// in\n    tag_38:\n      pop\n        /* \"bittorrent/BitTorrentIntegration.sol\":1216:1225  _fileHash */\n      dup2\n        /* \"bittorrent/BitTorrentIntegration.sol\":1199:1239  MagnetLinkStored(_fileHash, _magnetLink) */\n      0x1dc98efaa85e02ad63b23676873e13fcaad0693adc42bbffdf81eb4733003318\n        /* \"bittorrent/BitTorrentIntegration.sol\":1227:1238  _magnetLink */\n      dup3\n        /* \"bittorrent/BitTorrentIntegration.sol\":1199:1239  MagnetLinkStored(_fileHash, _magnetLink) */\n      mload(0x40)\n      tag_40\n      swap2\n      swap1\n      tag_18\n      jump\t// in\n    tag_40:\n      mload(0x40)\n      dup1\n      swap2\n      sub\n      swap1\n      log2\n        /* \"bittorrent/BitTorrentIntegration.sol\":959:1246  function storeMagnetLink(bytes32 _fileHash, string memory _magnetLink) public onlyOwner {... */\n      pop\n      pop\n      jump\t// out\n        /* \"bittorrent/BitTorrentIntegration.sol\":1305:1429  function getMagnetLink(bytes32 _fileHash) public view returns (string memory) {... */\n    tag_16:\n        /* \"bittorrent/BitTorrentIntegration.sol\":1368:1381  string memory */\n      0x60\n        /* \"bittorrent/BitTorrentIntegration.sol\":1400:1411  magnetLinks */\n      0x01\n        /* \"bittorrent/BitTorrentIntegration.sol\":1400:1422  magnetLinks[_fileHash] */\n      0x00\n        /* \"bittorrent/BitTorrentIntegration.sol\":1412:1421  _fileHash */\n      dup4\n        /* \"bittorrent/BitTorrentIntegration.sol\":1400:1422  magnetLinks[_fileHash] */\n      dup2\n      mstore\n      0x20\n      add\n      swap1\n      dup2\n      mstore\n      0x20\n      add\n      0x00\n      keccak256\n        /* \"bittorrent/BitTorrentIntegration.sol\":1393:1422  return magnetLinks[_fileHash] */\n      dup1\n      sload\n      tag_42\n      swap1\n      tag_43\n      jump\t// in\n    tag_42:\n      dup1\n      0x1f\n      add\n      0x20\n      dup1\n      swap2\n      div\n      mul\n      0x20\n      add\n      mload(0x40)\n      swap1\n      dup2\n      add\n      0x40\n      mstore\n      dup1\n      swap3\n      swap2\n      swap1\n      dup2\n      dup2\n      mstore\n      0x20\n      add\n      dup3\n      dup1\n      sload\n      tag_44\n      swap1\n      tag_43\n      jump\t// in\n    tag_44:\n      dup1\n      iszero\n      tag_45\n      jumpi\n      dup1\n      0x1f\n      lt\n      tag_46\n      jumpi\n      0x0100\n      dup1\n      dup4\n      sload\n      div\n      mul\n      dup4\n      mstore\n      swap2\n      0x20\n      add\n      swap2\n      jump(tag_45)\n    tag_46:\n      dup3\n      add\n      swap2\n      swap1\n      0x00\n      mstore\n      keccak256(0x00, 0x20)\n      swap1\n    tag_47:\n      dup2\n      sload\n      dup2\n      mstore\n      swap1\n      0x01\n      add\n      swap1\n      0x20\n      add\n      dup1\n      dup4\n      gt\n      tag_47\n      jumpi\n      dup3\n      swap1\n      sub\n      0x1f\n      and\n      dup3\n      add\n      swap2\n    tag_45:\n      pop\n      pop\n      pop\n      pop\n      pop\n      swap1\n      pop\n        /* \"bittorrent/BitTorrentIntegration.sol\":1305:1429  function getMagnetLink(bytes32 _fileHash) public view returns (string memory) {... */\n      swap2\n      swap1\n      pop\n      jump\t// out\n        /* \"@openzeppelin/contracts/access/Ownable.sol\":2293:2394  function renounceOwnership() public virtual onlyOwner {... */\n    tag_20:\n        /* \"@openzeppelin/contracts/access/Ownable.sol\":1531:1544  _checkOwner() */\n      tag_49\n        /* \"@openzeppelin/contracts/access/Ownable.sol\":1531:1542  _checkOwner */\n      tag_36\n        /* \"@openzeppelin/contracts/access/Ownable.sol\":1531:1544  _checkOwner() */\n      jump\t// in\n    tag_49:\n        /* \"@openzeppelin/contracts/access/Ownable.sol\":2357:2387  _transferOwnership(address(0)) */\n      tag_51\n        /* \"@openzeppelin/contracts/access/Ownable.sol\":2384:2385  0 */\n      0x00\n        /* \"@openzeppelin/contracts/access/Ownable.sol\":2357:2375  _transferOwnership */\n      tag_52\n        /* \"@openzeppelin/contracts/access/Ownable.sol\":2357:2387  _transferOwnership(address(0)) */\n      jump\t// in\n    tag_51:\n        /* \"@openzeppelin/contracts/access/Ownable.sol\":2293:2394  function renounceOwnership() public virtual onlyOwner {... */\n      jump\t// out\n        /* \"@openzeppelin/contracts/access/Ownable.sol\":1638:1723  function owner() public view virtual returns (address) {... */\n    tag_22:\n        /* \"@openzeppelin/contracts/access/Ownable.sol\":1684:1691  address */\n      0x00\n        /* \"@openzeppelin/contracts/access/Ownable.sol\":1710:1716  _owner */\n      dup1\n      0x00\n      swap1\n      sload\n      swap1\n      0x0100\n      exp\n      swap1\n      div\n      0xffffffffffffffffffffffffffffffffffffffff\n      and\n        /* \"@openzeppelin/contracts/access/Ownable.sol\":1703:1716  return _owner */\n      swap1\n      pop\n        /* \"@openzeppelin/contracts/access/Ownable.sol\":1638:1723  function owner() public view virtual returns (address) {... */\n      swap1\n      jump\t// out\n        /* \"bittorrent/BitTorrentIntegration.sol\":607:903  function generateMagnetLink(bytes32 _fileHash, uint256 _size) public pure returns (string memory) {... */\n    tag_28:\n        /* \"bittorrent/BitTorrentIntegration.sol\":690:703  string memory */\n      0x60\n        /* \"bittorrent/BitTorrentIntegration.sol\":839:861  toHexString(_fileHash) */\n      tag_55\n        /* \"bittorrent/BitTorrentIntegration.sol\":851:860  _fileHash */\n      dup4\n        /* \"bittorrent/BitTorrentIntegration.sol\":839:850  toHexString */\n      tag_56\n        /* \"bittorrent/BitTorrentIntegration.sol\":839:861  toHexString(_fileHash) */\n      jump\t// in\n    tag_55:\n        /* \"bittorrent/BitTorrentIntegration.sol\":879:894  uint2str(_size) */\n      tag_57\n        /* \"bittorrent/BitTorrentIntegration.sol\":888:893  _size */\n      dup4\n        /* \"bittorrent/BitTorrentIntegration.sol\":879:887  uint2str */\n      tag_58\n        /* \"bittorrent/BitTorrentIntegration.sol\":879:894  uint2str(_size) */\n      jump\t// in\n    tag_57:\n        /* \"bittorrent/BitTorrentIntegration.sol\":798:895  abi.encodePacked(\"magnet:?xt=urn:btih:\", toHexString(_fileHash), \"&dn=File&xl=\", uint2str(_size)) */\n      add(0x20, mload(0x40))\n      tag_59\n      swap3\n      swap2\n      swap1\n      tag_60\n      jump\t// in\n    tag_59:\n      mload(0x40)\n      0x20\n      dup2\n      dup4\n      sub\n      sub\n      dup2\n      mstore\n      swap1\n      0x40\n      mstore\n        /* \"bittorrent/BitTorrentIntegration.sol\":784:896  return string(abi.encodePacked(\"magnet:?xt=urn:btih:\", toHexString(_fileHash), \"&dn=File&xl=\", uint2str(_size))) */\n      swap1\n      pop\n        /* \"bittorrent/BitTorrentIntegration.sol\":607:903  function generateMagnetLink(bytes32 _fileHash, uint256 _size) public pure returns (string memory) {... */\n      swap3\n      swap2\n      pop\n      pop\n      jump\t// out\n        /* \"@openzeppelin/contracts/access/Ownable.sol\":2543:2758  function transferOwnership(address newOwner) public virtual onlyOwner {... */\n    tag_33:\n        /* \"@openzeppelin/contracts/access/Ownable.sol\":1531:1544  _checkOwner() */\n      tag_62\n        /* \"@openzeppelin/contracts/access/Ownable.sol\":1531:1542  _checkOwner */\n      tag_36\n        /* \"@openzeppelin/contracts/access/Ownable.sol\":1531:1544  _checkOwner() */\n      jump\t// in\n    tag_62:\n        /* \"@openzeppelin/contracts/access/Ownable.sol\":2647:2648  0 */\n      0x00\n        /* \"@openzeppelin/contracts/access/Ownable.sol\":2627:2649  newOwner == address(0) */\n      0xffffffffffffffffffffffffffffffffffffffff\n      and\n        /* \"@openzeppelin/contracts/access/Ownable.sol\":2627:2635  newOwner */\n      dup2\n        /* \"@openzeppelin/contracts/access/Ownable.sol\":2627:2649  newOwner == address(0) */\n      0xffffffffffffffffffffffffffffffffffffffff\n      and\n      sub\n        /* \"@openzeppelin/contracts/access/Ownable.sol\":2623:2714  if (newOwner == address(0)) {... */\n      tag_64\n      jumpi\n        /* \"@openzeppelin/contracts/access/Ownable.sol\":2700:2701  0 */\n      0x00\n        /* \"@openzeppelin/contracts/access/Ownable.sol\":2672:2703  OwnableInvalidOwner(address(0)) */\n      mload(0x40)\n      0x1e4fbdf700000000000000000000000000000000000000000000000000000000\n      dup2\n      mstore\n      0x04\n      add\n      tag_65\n      swap2\n      swap1\n      tag_24\n      jump\t// in\n    tag_65:\n      mload(0x40)\n      dup1\n      swap2\n      sub\n      swap1\n      revert\n        /* \"@openzeppelin/contracts/access/Ownable.sol\":2623:2714  if (newOwner == address(0)) {... */\n    tag_64:\n        /* \"@openzeppelin/contracts/access/Ownable.sol\":2723:2751  _transferOwnership(newOwner) */\n      tag_66\n        /* \"@openzeppelin/contracts/access/Ownable.sol\":2742:2750  newOwner */\n      dup2\n        /* \"@openzeppelin/contracts/access/Ownable.sol\":2723:2741  _transferOwnership */\n      tag_52\n        /* \"@openzeppelin/contracts/access/Ownable.sol\":2723:2751  _transferOwnership(newOwner) */\n      jump\t// in\n    tag_66:\n        /* \"@openzeppelin/contracts/access/Ownable.sol\":2543:2758  function transferOwnership(address newOwner) public virtual onlyOwner {... */\n      pop\n      jump\t// out\n        /* \"@openzeppelin/contracts/access/Ownable.sol\":1796:1958  function _checkOwner() internal view virtual {... */\n    tag_36:\n        /* \"@openzeppelin/contracts/access/Ownable.sol\":1866:1878  _msgSender() */\n      tag_68\n        /* \"@openzeppelin/contracts/access/Ownable.sol\":1866:1876  _msgSender */\n      tag_69\n        /* \"@openzeppelin/contracts/access/Ownable.sol\":1866:1878  _msgSender() */\n      jump\t// in\n    tag_68:\n        /* \"@openzeppelin/contracts/access/Ownable.sol\":1855:1878  owner() != _msgSender() */\n      0xffffffffffffffffffffffffffffffffffffffff\n      and\n        /* \"@openzeppelin/contracts/access/Ownable.sol\":1855:1862  owner() */\n      tag_70\n        /* \"@openzeppelin/contracts/access/Ownable.sol\":1855:1860  owner */\n      tag_22\n        /* \"@openzeppelin/contracts/access/Ownable.sol\":1855:1862  owner() */\n      jump\t// in\n    tag_70:\n        /* \"@openzeppelin/contracts/access/Ownable.sol\":1855:1878  owner() != _msgSender() */\n      0xffffffffffffffffffffffffffffffffffffffff\n      and\n      eq\n        /* \"@openzeppelin/contracts/access/Ownable.sol\":1851:1952  if (owner() != _msgSender()) {... */\n      tag_71\n      jumpi\n        /* \"@openzeppelin/contracts/access/Ownable.sol\":1928:1940  _msgSender() */\n      tag_72\n        /* \"@openzeppelin/contracts/access/Ownable.sol\":1928:1938  _msgSender */\n      tag_69\n        /* \"@openzeppelin/contracts/access/Ownable.sol\":1928:1940  _msgSender() */\n      jump\t// in\n    tag_72:\n        /* \"@openzeppelin/contracts/access/Ownable.sol\":1901:1941  OwnableUnauthorizedAccount(_msgSender()) */\n      mload(0x40)\n      0x118cdaa700000000000000000000000000000000000000000000000000000000\n      dup2\n      mstore\n      0x04\n      add\n      tag_73\n      swap2\n      swap1\n      tag_24\n      jump\t// in\n    tag_73:\n      mload(0x40)\n      dup1\n      swap2\n      sub\n      swap1\n      revert\n        /* \"@openzeppelin/contracts/access/Ownable.sol\":1851:1952  if (owner() != _msgSender()) {... */\n    tag_71:\n        /* \"@openzeppelin/contracts/access/Ownable.sol\":1796:1958  function _checkOwner() internal view virtual {... */\n      jump\t// out\n        /* \"@openzeppelin/contracts/access/Ownable.sol\":2912:3099  function _transferOwnership(address newOwner) internal virtual {... */\n    tag_52:\n        /* \"@openzeppelin/contracts/access/Ownable.sol\":2985:3001  address oldOwner */\n      0x00\n        /* \"@openzeppelin/contracts/access/Ownable.sol\":3004:3010  _owner */\n      dup1\n      0x00\n      swap1\n      sload\n      swap1\n      0x0100\n      exp\n      swap1\n      div\n      0xffffffffffffffffffffffffffffffffffffffff\n      and\n        /* \"@openzeppelin/contracts/access/Ownable.sol\":2985:3010  address oldOwner = _owner */\n      swap1\n      pop\n        /* \"@openzeppelin/contracts/access/Ownable.sol\":3029:3037  newOwner */\n      dup2\n        /* \"@openzeppelin/contracts/access/Ownable.sol\":3020:3026  _owner */\n      0x00\n      dup1\n        /* \"@openzeppelin/contracts/access/Ownable.sol\":3020:3037  _owner = newOwner */\n      0x0100\n      exp\n      dup2\n      sload\n      dup2\n      0xffffffffffffffffffffffffffffffffffffffff\n      mul\n      not\n      and\n      swap1\n      dup4\n      0xffffffffffffffffffffffffffffffffffffffff\n      and\n      mul\n      or\n      swap1\n      sstore\n      pop\n        /* \"@openzeppelin/contracts/access/Ownable.sol\":3083:3091  newOwner */\n      dup2\n        /* \"@openzeppelin/contracts/access/Ownable.sol\":3052:3092  OwnershipTransferred(oldOwner, newOwner) */\n      0xffffffffffffffffffffffffffffffffffffffff\n      and\n        /* \"@openzeppelin/contracts/access/Ownable.sol\":3073:3081  oldOwner */\n      dup2\n        /* \"@openzeppelin/contracts/access/Ownable.sol\":3052:3092  OwnershipTransferred(oldOwner, newOwner) */\n      0xffffffffffffffffffffffffffffffffffffffff\n      and\n      0x8be0079c531659141344cd1fd0a4f28419497f9722a3daafe3b4186f6b6457e0\n      mload(0x40)\n      mload(0x40)\n      dup1\n      swap2\n      sub\n      swap1\n      log3\n        /* \"@openzeppelin/contracts/access/Ownable.sol\":2975:3099  {... */\n      pop\n        /* \"@openzeppelin/contracts/access/Ownable.sol\":2912:3099  function _transferOwnership(address newOwner) internal virtual {... */\n      pop\n      jump\t// out\n        /* \"bittorrent/BitTorrentIntegration.sol\":1502:1890  function toHexString(bytes32 _data) internal pure returns (string memory) {... */\n    tag_56:\n        /* \"bittorrent/BitTorrentIntegration.sol\":1561:1574  string memory */\n      0x60\n        /* \"bittorrent/BitTorrentIntegration.sol\":1586:1607  bytes memory hexChars */\n      0x00\n        /* \"bittorrent/BitTorrentIntegration.sol\":1586:1628  bytes memory hexChars = \"0123456789abcdef\" */\n      mload(0x40)\n      dup1\n      0x40\n      add\n      0x40\n      mstore\n      dup1\n      0x10\n      dup2\n      mstore\n      0x20\n      add\n      0x3031323334353637383961626364656600000000000000000000000000000000\n      dup2\n      mstore\n      pop\n      swap1\n      pop\n        /* \"bittorrent/BitTorrentIntegration.sol\":1638:1657  bytes memory result */\n      0x00\n        /* \"bittorrent/BitTorrentIntegration.sol\":1670:1672  64 */\n      0x40\n        /* \"bittorrent/BitTorrentIntegration.sol\":1660:1673  new bytes(64) */\n      0xffffffffffffffff\n      dup2\n      gt\n      iszero\n      tag_76\n      jumpi\n      tag_77\n      tag_78\n      jump\t// in\n    tag_77:\n    tag_76:\n      mload(0x40)\n      swap1\n      dup1\n      dup3\n      mstore\n      dup1\n      0x1f\n      add\n      not(0x1f)\n      and\n      0x20\n      add\n      dup3\n      add\n      0x40\n      mstore\n      dup1\n      iszero\n      tag_79\n      jumpi\n      dup2\n      0x20\n      add\n      0x01\n      dup3\n      mul\n      dup1\n      calldatasize\n      dup4\n      calldatacopy\n      dup1\n      dup3\n      add\n      swap2\n      pop\n      pop\n      swap1\n      pop\n    tag_79:\n      pop\n        /* \"bittorrent/BitTorrentIntegration.sol\":1638:1673  bytes memory result = new bytes(64) */\n      swap1\n      pop\n        /* \"bittorrent/BitTorrentIntegration.sol\":1688:1697  uint256 i */\n      0x00\n        /* \"bittorrent/BitTorrentIntegration.sol\":1683:1853  for (uint256 i = 0; i < 32; i++) {... */\n    tag_80:\n        /* \"bittorrent/BitTorrentIntegration.sol\":1707:1709  32 */\n      0x20\n        /* \"bittorrent/BitTorrentIntegration.sol\":1703:1704  i */\n      dup2\n        /* \"bittorrent/BitTorrentIntegration.sol\":1703:1709  i < 32 */\n      lt\n        /* \"bittorrent/BitTorrentIntegration.sol\":1683:1853  for (uint256 i = 0; i < 32; i++) {... */\n      iszero\n      tag_81\n      jumpi\n        /* \"bittorrent/BitTorrentIntegration.sol\":1746:1754  hexChars */\n      dup3\n        /* \"bittorrent/BitTorrentIntegration.sol\":1773:1774  4 */\n      0x04\n        /* \"bittorrent/BitTorrentIntegration.sol\":1761:1766  _data */\n      dup7\n        /* \"bittorrent/BitTorrentIntegration.sol\":1767:1768  i */\n      dup4\n        /* \"bittorrent/BitTorrentIntegration.sol\":1761:1769  _data[i] */\n      0x20\n      dup2\n      lt\n      tag_83\n      jumpi\n      tag_84\n      tag_85\n      jump\t// in\n    tag_84:\n    tag_83:\n      byte\n      0xf8\n      shl\n        /* \"bittorrent/BitTorrentIntegration.sol\":1761:1774  _data[i] >> 4 */\n      not(0xffffffffffffffffffffffffffffffffffffffffffffffffffffffffffffff)\n      and\n      swap1\n      shr\n        /* \"bittorrent/BitTorrentIntegration.sol\":1755:1775  uint8(_data[i] >> 4) */\n      0xf8\n      shr\n        /* \"bittorrent/BitTorrentIntegration.sol\":1746:1776  hexChars[uint8(_data[i] >> 4)] */\n      0xff\n      and\n      dup2\n      mload\n      dup2\n      lt\n      tag_86\n      jumpi\n      tag_87\n      tag_85\n      jump\t// in\n    tag_87:\n    tag_86:\n      0x20\n      add\n      add\n      mload\n      0xf8\n      shr\n      0xf8\n      shl\n        /* \"bittorrent/BitTorrentIntegration.sol\":1730:1736  result */\n      dup3\n        /* \"bittorrent/BitTorrentIntegration.sol\":1741:1742  2 */\n      0x02\n        /* \"bittorrent/BitTorrentIntegration.sol\":1737:1738  i */\n      dup4\n        /* \"bittorrent/BitTorrentIntegration.sol\":1737:1742  i * 2 */\n      tag_88\n      swap2\n      swap1\n      tag_89\n      jump\t// in\n    tag_88:\n        /* \"bittorrent/BitTorrentIntegration.sol\":1730:1743  result[i * 2] */\n      dup2\n      mload\n      dup2\n      lt\n      tag_90\n      jumpi\n      tag_91\n      tag_85\n      jump\t// in\n    tag_91:\n    tag_90:\n      0x20\n      add\n      add\n        /* \"bittorrent/BitTorrentIntegration.sol\":1730:1776  result[i * 2] = hexChars[uint8(_data[i] >> 4)] */\n      swap1\n      not(0xffffffffffffffffffffffffffffffffffffffffffffffffffffffffffffff)\n      and\n      swap1\n      dup2\n      0x00\n      byte\n      swap1\n      mstore8\n      pop\n        /* \"bittorrent/BitTorrentIntegration.sol\":1810:1818  hexChars */\n      dup3\n        /* \"bittorrent/BitTorrentIntegration.sol\":1836:1840  0x0f */\n      0x0f\n        /* \"bittorrent/BitTorrentIntegration.sol\":1825:1840  _data[i] & 0x0f */\n      0xf8\n      shl\n        /* \"bittorrent/BitTorrentIntegration.sol\":1825:1830  _data */\n      dup7\n        /* \"bittorrent/BitTorrentIntegration.sol\":1831:1832  i */\n      dup4\n        /* \"bittorrent/BitTorrentIntegration.sol\":1825:1833  _data[i] */\n      0x20\n      dup2\n      lt\n      tag_92\n      jumpi\n      tag_93\n      tag_85\n      jump\t// in\n    tag_93:\n    tag_92:\n      byte\n      0xf8\n      shl\n        /* \"bittorrent/BitTorrentIntegration.sol\":1825:1840  _data[i] & 0x0f */\n      and\n        /* \"bittorrent/BitTorrentIntegration.sol\":1819:1841  uint8(_data[i] & 0x0f) */\n      0xf8\n      shr\n        /* \"bittorrent/BitTorrentIntegration.sol\":1810:1842  hexChars[uint8(_data[i] & 0x0f)] */\n      0xff\n      and\n      dup2\n      mload\n      dup2\n      lt\n      tag_94\n      jumpi\n      tag_95\n      tag_85\n      jump\t// in\n    tag_95:\n    tag_94:\n      0x20\n      add\n      add\n      mload\n      0xf8\n      shr\n      0xf8\n      shl\n        /* \"bittorrent/BitTorrentIntegration.sol\":1790:1796  result */\n      dup3\n        /* \"bittorrent/BitTorrentIntegration.sol\":1805:1806  1 */\n      0x01\n        /* \"bittorrent/BitTorrentIntegration.sol\":1801:1802  2 */\n      0x02\n        /* \"bittorrent/BitTorrentIntegration.sol\":1797:1798  i */\n      dup5\n        /* \"bittorrent/BitTorrentIntegration.sol\":1797:1802  i * 2 */\n      tag_96\n      swap2\n      swap1\n      tag_89\n      jump\t// in\n    tag_96:\n        /* \"bittorrent/BitTorrentIntegration.sol\":1797:1806  i * 2 + 1 */\n      tag_97\n      swap2\n      swap1\n      tag_98\n      jump\t// in\n    tag_97:\n        /* \"bittorrent/BitTorrentIntegration.sol\":1790:1807  result[i * 2 + 1] */\n      dup2\n      mload\n      dup2\n      lt\n      tag_99\n      jumpi\n      tag_100\n      tag_85\n      jump\t// in\n    tag_100:\n    tag_99:\n      0x20\n      add\n      add\n        /* \"bittorrent/BitTorrentIntegration.sol\":1790:1842  result[i * 2 + 1] = hexChars[uint8(_data[i] & 0x0f)] */\n      swap1\n      not(0xffffffffffffffffffffffffffffffffffffffffffffffffffffffffffffff)\n      and\n      swap1\n      dup2\n      0x00\n      byte\n      swap1\n      mstore8\n      pop\n        /* \"bittorrent/BitTorrentIntegration.sol\":1711:1714  i++ */\n      dup1\n      dup1\n      0x01\n      add\n      swap2\n      pop\n      pop\n        /* \"bittorrent/BitTorrentIntegration.sol\":1683:1853  for (uint256 i = 0; i < 32; i++) {... */\n      jump(tag_80)\n    tag_81:\n      pop\n        /* \"bittorrent/BitTorrentIntegration.sol\":1876:1882  result */\n      dup1\n        /* \"bittorrent/BitTorrentIntegration.sol\":1862:1883  return string(result) */\n      swap3\n      pop\n      pop\n      pop\n        /* \"bittorrent/BitTorrentIntegration.sol\":1502:1890  function toHexString(bytes32 _data) internal pure returns (string memory) {... */\n      swap2\n      swap1\n      pop\n      jump\t// out\n        /* \"bittorrent/BitTorrentIntegration.sol\":1949:2435  function uint2str(uint256 _i) internal pure returns (string memory) {... */\n    tag_58:\n        /* \"bittorrent/BitTorrentIntegration.sol\":2002:2015  string memory */\n      0x60\n        /* \"bittorrent/BitTorrentIntegration.sol\":2037:2038  0 */\n      0x00\n        /* \"bittorrent/BitTorrentIntegration.sol\":2031:2033  _i */\n      dup3\n        /* \"bittorrent/BitTorrentIntegration.sol\":2031:2038  _i == 0 */\n      sub\n        /* \"bittorrent/BitTorrentIntegration.sol\":2027:2075  if (_i == 0) {... */\n      tag_102\n      jumpi\n        /* \"bittorrent/BitTorrentIntegration.sol\":2054:2064  return \"0\" */\n      mload(0x40)\n      dup1\n      0x40\n      add\n      0x40\n      mstore\n      dup1\n      0x01\n      dup2\n      mstore\n      0x20\n      add\n      0x3000000000000000000000000000000000000000000000000000000000000000\n      dup2\n      mstore\n      pop\n      swap1\n      pop\n      jump(tag_101)\n        /* \"bittorrent/BitTorrentIntegration.sol\":2027:2075  if (_i == 0) {... */\n    tag_102:\n        /* \"bittorrent/BitTorrentIntegration.sol\":2084:2093  uint256 j */\n      0x00\n        /* \"bittorrent/BitTorrentIntegration.sol\":2096:2098  _i */\n      dup3\n        /* \"bittorrent/BitTorrentIntegration.sol\":2084:2098  uint256 j = _i */\n      swap1\n      pop\n        /* \"bittorrent/BitTorrentIntegration.sol\":2108:2122  uint256 length */\n      0x00\n        /* \"bittorrent/BitTorrentIntegration.sol\":2132:2201  while (j != 0) {... */\n    tag_103:\n        /* \"bittorrent/BitTorrentIntegration.sol\":2144:2145  0 */\n      0x00\n        /* \"bittorrent/BitTorrentIntegration.sol\":2139:2140  j */\n      dup3\n        /* \"bittorrent/BitTorrentIntegration.sol\":2139:2145  j != 0 */\n      eq\n        /* \"bittorrent/BitTorrentIntegration.sol\":2132:2201  while (j != 0) {... */\n      tag_104\n      jumpi\n        /* \"bittorrent/BitTorrentIntegration.sol\":2161:2169  length++ */\n      dup1\n      dup1\n      tag_105\n      swap1\n      tag_106\n      jump\t// in\n    tag_105:\n      swap2\n      pop\n      pop\n        /* \"bittorrent/BitTorrentIntegration.sol\":2188:2190  10 */\n      0x0a\n        /* \"bittorrent/BitTorrentIntegration.sol\":2183:2190  j /= 10 */\n      dup3\n      tag_107\n      swap2\n      swap1\n      tag_108\n      jump\t// in\n    tag_107:\n      swap2\n      pop\n        /* \"bittorrent/BitTorrentIntegration.sol\":2132:2201  while (j != 0) {... */\n      jump(tag_103)\n    tag_104:\n        /* \"bittorrent/BitTorrentIntegration.sol\":2210:2227  bytes memory bstr */\n      0x00\n        /* \"bittorrent/BitTorrentIntegration.sol\":2240:2246  length */\n      dup2\n        /* \"bittorrent/BitTorrentIntegration.sol\":2230:2247  new bytes(length) */\n      0xffffffffffffffff\n      dup2\n      gt\n      iszero\n      tag_109\n      jumpi\n      tag_110\n      tag_78\n      jump\t// in\n    tag_110:\n    tag_109:\n      mload(0x40)\n      swap1\n      dup1\n      dup3\n      mstore\n      dup1\n      0x1f\n      add\n      not(0x1f)\n      and\n      0x20\n      add\n      dup3\n      add\n      0x40\n      mstore\n      dup1\n      iszero\n      tag_111\n      jumpi\n      dup2\n      0x20\n      add\n      0x01\n      dup3\n      mul\n      dup1\n      calldatasize\n      dup4\n      calldatacopy\n      dup1\n      dup3\n      add\n      swap2\n      pop\n      pop\n      swap1\n      pop\n    tag_111:\n      pop\n        /* \"bittorrent/BitTorrentIntegration.sol\":2210:2247  bytes memory bstr = new bytes(length) */\n      swap1\n      pop\n        /* \"bittorrent/BitTorrentIntegration.sol\":2257:2266  uint256 k */\n      0x00\n        /* \"bittorrent/BitTorrentIntegration.sol\":2269:2275  length */\n      dup3\n        /* \"bittorrent/BitTorrentIntegration.sol\":2257:2275  uint256 k = length */\n      swap1\n      pop\n        /* \"bittorrent/BitTorrentIntegration.sol\":2289:2291  _i */\n      dup6\n        /* \"bittorrent/BitTorrentIntegration.sol\":2285:2291  j = _i */\n      swap4\n      pop\n        /* \"bittorrent/BitTorrentIntegration.sol\":2301:2400  while (j != 0) {... */\n    tag_112:\n        /* \"bittorrent/BitTorrentIntegration.sol\":2313:2314  0 */\n      0x00\n        /* \"bittorrent/BitTorrentIntegration.sol\":2308:2309  j */\n      dup5\n        /* \"bittorrent/BitTorrentIntegration.sol\":2308:2314  j != 0 */\n      eq\n        /* \"bittorrent/BitTorrentIntegration.sol\":2301:2400  while (j != 0) {... */\n      tag_113\n      jumpi\n        /* \"bittorrent/BitTorrentIntegration.sol\":2364:2366  10 */\n      0x0a\n        /* \"bittorrent/BitTorrentIntegration.sol\":2360:2361  j */\n      dup5\n        /* \"bittorrent/BitTorrentIntegration.sol\":2360:2366  j % 10 */\n      tag_114\n      swap2\n      swap1\n      tag_115\n      jump\t// in\n    tag_114:\n        /* \"bittorrent/BitTorrentIntegration.sol\":2355:2357  48 */\n      0x30\n        /* \"bittorrent/BitTorrentIntegration.sol\":2355:2366  48 + j % 10 */\n      tag_116\n      swap2\n      swap1\n      tag_98\n      jump\t// in\n    tag_116:\n        /* \"bittorrent/BitTorrentIntegration.sol\":2342:2368  bytes1(uint8(48 + j % 10)) */\n      0xf8\n      shl\n        /* \"bittorrent/BitTorrentIntegration.sol\":2330:2334  bstr */\n      dup3\n        /* \"bittorrent/BitTorrentIntegration.sol\":2335:2338  --k */\n      dup3\n      tag_117\n      swap1\n      tag_118\n      jump\t// in\n    tag_117:\n      swap3\n      pop\n      dup3\n        /* \"bittorrent/BitTorrentIntegration.sol\":2330:2339  bstr[--k] */\n      dup2\n      mload\n      dup2\n      lt\n      tag_119\n      jumpi\n      tag_120\n      tag_85\n      jump\t// in\n    tag_120:\n    tag_119:\n      0x20\n      add\n      add\n        /* \"bittorrent/BitTorrentIntegration.sol\":2330:2368  bstr[--k] = bytes1(uint8(48 + j % 10)) */\n      swap1\n      not(0xffffffffffffffffffffffffffffffffffffffffffffffffffffffffffffff)\n      and\n      swap1\n      dup2\n      0x00\n      byte\n      swap1\n      mstore8\n      pop\n        /* \"bittorrent/BitTorrentIntegration.sol\":2387:2389  10 */\n      0x0a\n        /* \"bittorrent/BitTorrentIntegration.sol\":2382:2389  j /= 10 */\n      dup5\n      tag_121\n      swap2\n      swap1\n      tag_108\n      jump\t// in\n    tag_121:\n      swap4\n      pop\n        /* \"bittorrent/BitTorrentIntegration.sol\":2301:2400  while (j != 0) {... */\n      jump(tag_112)\n    tag_113:\n        /* \"bittorrent/BitTorrentIntegration.sol\":2423:2427  bstr */\n      dup2\n        /* \"bittorrent/BitTorrentIntegration.sol\":2409:2428  return string(bstr) */\n      swap5\n      pop\n      pop\n      pop\n      pop\n      pop\n        /* \"bittorrent/BitTorrentIntegration.sol\":1949:2435  function uint2str(uint256 _i) internal pure returns (string memory) {... */\n    tag_101:\n      swap2\n      swap1\n      pop\n      jump\t// out\n        /* \"@openzeppelin/contracts/utils/Context.sol\":656:752  function _msgSender() internal view virtual returns (address) {... */\n    tag_69:\n        /* \"@openzeppelin/contracts/utils/Context.sol\":709:716  address */\n      0x00\n        /* \"@openzeppelin/contracts/utils/Context.sol\":735:745  msg.sender */\n      caller\n        /* \"@openzeppelin/contracts/utils/Context.sol\":728:745  return msg.sender */\n      swap1\n      pop\n        /* \"@openzeppelin/contracts/utils/Context.sol\":656:752  function _msgSender() internal view virtual returns (address) {... */\n      swap1\n      jump\t// out\n        /* \"#utility.yul\":7:82   */\n    tag_123:\n        /* \"#utility.yul\":40:46   */\n      0x00\n        /* \"#utility.yul\":73:75   */\n      0x40\n        /* \"#utility.yul\":67:76   */\n      mload\n        /* \"#utility.yul\":57:76   */\n      swap1\n      pop\n        /* \"#utility.yul\":7:82   */\n      swap1\n      jump\t// out\n        /* \"#utility.yul\":88:205   */\n    tag_124:\n        /* \"#utility.yul\":197:198   */\n      0x00\n        /* \"#utility.yul\":194:195   */\n      dup1\n        /* \"#utility.yul\":187:199   */\n      revert\n        /* \"#utility.yul\":211:328   */\n    tag_125:\n        /* \"#utility.yul\":320:321   */\n      0x00\n        /* \"#utility.yul\":317:318   */\n      dup1\n        /* \"#utility.yul\":310:322   */\n      revert\n        /* \"#utility.yul\":334:411   */\n    tag_126:\n        /* \"#utility.yul\":371:378   */\n      0x00\n        /* \"#utility.yul\":400:405   */\n      dup2\n        /* \"#utility.yul\":389:405   */\n      swap1\n      pop\n        /* \"#utility.yul\":334:411   */\n      swap2\n      swap1\n      pop\n      jump\t// out\n        /* \"#utility.yul\":417:539   */\n    tag_127:\n        /* \"#utility.yul\":490:514   */\n      tag_180\n        /* \"#utility.yul\":508:513   */\n      dup2\n        /* \"#utility.yul\":490:514   */\n      tag_126\n      jump\t// in\n    tag_180:\n        /* \"#utility.yul\":483:488   */\n      dup2\n        /* \"#utility.yul\":480:515   */\n      eq\n        /* \"#utility.yul\":470:533   */\n      tag_181\n      jumpi\n        /* \"#utility.yul\":529:530   */\n      0x00\n        /* \"#utility.yul\":526:527   */\n      dup1\n        /* \"#utility.yul\":519:531   */\n      revert\n        /* \"#utility.yul\":470:533   */\n    tag_181:\n        /* \"#utility.yul\":417:539   */\n      pop\n      jump\t// out\n        /* \"#utility.yul\":545:684   */\n    tag_128:\n        /* \"#utility.yul\":591:596   */\n      0x00\n        /* \"#utility.yul\":629:635   */\n      dup2\n        /* \"#utility.yul\":616:636   */\n      calldataload\n        /* \"#utility.yul\":607:636   */\n      swap1\n      pop\n        /* \"#utility.yul\":645:678   */\n      tag_183\n        /* \"#utility.yul\":672:677   */\n      dup2\n        /* \"#utility.yul\":645:678   */\n      tag_127\n      jump\t// in\n    tag_183:\n        /* \"#utility.yul\":545:684   */\n      swap3\n      swap2\n      pop\n      pop\n      jump\t// out\n        /* \"#utility.yul\":690:807   */\n    tag_129:\n        /* \"#utility.yul\":799:800   */\n      0x00\n        /* \"#utility.yul\":796:797   */\n      dup1\n        /* \"#utility.yul\":789:801   */\n      revert\n        /* \"#utility.yul\":813:930   */\n    tag_130:\n        /* \"#utility.yul\":922:923   */\n      0x00\n        /* \"#utility.yul\":919:920   */\n      dup1\n        /* \"#utility.yul\":912:924   */\n      revert\n        /* \"#utility.yul\":936:1038   */\n    tag_131:\n        /* \"#utility.yul\":977:983   */\n      0x00\n        /* \"#utility.yul\":1028:1030   */\n      0x1f\n        /* \"#utility.yul\":1024:1031   */\n      not\n        /* \"#utility.yul\":1019:1021   */\n      0x1f\n        /* \"#utility.yul\":1012:1017   */\n      dup4\n        /* \"#utility.yul\":1008:1022   */\n      add\n        /* \"#utility.yul\":1004:1032   */\n      and\n        /* \"#utility.yul\":994:1032   */\n      swap1\n      pop\n        /* \"#utility.yul\":936:1038   */\n      swap2\n      swap1\n      pop\n      jump\t// out\n        /* \"#utility.yul\":1044:1224   */\n    tag_78:\n        /* \"#utility.yul\":1092:1169   */\n      0x4e487b7100000000000000000000000000000000000000000000000000000000\n        /* \"#utility.yul\":1089:1090   */\n      0x00\n        /* \"#utility.yul\":1082:1170   */\n      mstore\n        /* \"#utility.yul\":1189:1193   */\n      0x41\n        /* \"#utility.yul\":1186:1187   */\n      0x04\n        /* \"#utility.yul\":1179:1194   */\n      mstore\n        /* \"#utility.yul\":1213:1217   */\n      0x24\n        /* \"#utility.yul\":1210:1211   */\n      0x00\n        /* \"#utility.yul\":1203:1218   */\n      revert\n        /* \"#utility.yul\":1230:1511   */\n    tag_132:\n        /* \"#utility.yul\":1313:1340   */\n      tag_189\n        /* \"#utility.yul\":1335:1339   */\n      dup3\n        /* \"#utility.yul\":1313:1340   */\n      tag_131\n      jump\t// in\n    tag_189:\n        /* \"#utility.yul\":1305:1311   */\n      dup2\n        /* \"#utility.yul\":1301:1341   */\n      add\n        /* \"#utility.yul\":1443:1449   */\n      dup2\n        /* \"#utility.yul\":1431:1441   */\n      dup2\n        /* \"#utility.yul\":1428:1450   */\n      lt\n        /* \"#utility.yul\":1407:1425   */\n      0xffffffffffffffff\n        /* \"#utility.yul\":1395:1405   */\n      dup3\n        /* \"#utility.yul\":1392:1426   */\n      gt\n        /* \"#utility.yul\":1389:1451   */\n      or\n        /* \"#utility.yul\":1386:1474   */\n      iszero\n      tag_190\n      jumpi\n        /* \"#utility.yul\":1454:1472   */\n      tag_191\n      tag_78\n      jump\t// in\n    tag_191:\n        /* \"#utility.yul\":1386:1474   */\n    tag_190:\n        /* \"#utility.yul\":1494:1504   */\n      dup1\n        /* \"#utility.yul\":1490:1492   */\n      0x40\n        /* \"#utility.yul\":1483:1505   */\n      mstore\n        /* \"#utility.yul\":1273:1511   */\n      pop\n        /* \"#utility.yul\":1230:1511   */\n      pop\n      pop\n      jump\t// out\n        /* \"#utility.yul\":1517:1646   */\n    tag_133:\n        /* \"#utility.yul\":1551:1557   */\n      0x00\n        /* \"#utility.yul\":1578:1598   */\n      tag_193\n      tag_123\n      jump\t// in\n    tag_193:\n        /* \"#utility.yul\":1568:1598   */\n      swap1\n      pop\n        /* \"#utility.yul\":1607:1640   */\n      tag_194\n        /* \"#utility.yul\":1635:1639   */\n      dup3\n        /* \"#utility.yul\":1627:1633   */\n      dup3\n        /* \"#utility.yul\":1607:1640   */\n      tag_132\n      jump\t// in\n    tag_194:\n        /* \"#utility.yul\":1517:1646   */\n      swap2\n      swap1\n      pop\n      jump\t// out\n        /* \"#utility.yul\":1652:1960   */\n    tag_134:\n        /* \"#utility.yul\":1714:1718   */\n      0x00\n        /* \"#utility.yul\":1804:1822   */\n      0xffffffffffffffff\n        /* \"#utility.yul\":1796:1802   */\n      dup3\n        /* \"#utility.yul\":1793:1823   */\n      gt\n        /* \"#utility.yul\":1790:1846   */\n      iszero\n      tag_196\n      jumpi\n        /* \"#utility.yul\":1826:1844   */\n      tag_197\n      tag_78\n      jump\t// in\n    tag_197:\n        /* \"#utility.yul\":1790:1846   */\n    tag_196:\n        /* \"#utility.yul\":1864:1893   */\n      tag_198\n        /* \"#utility.yul\":1886:1892   */\n      dup3\n        /* \"#utility.yul\":1864:1893   */\n      tag_131\n      jump\t// in\n    tag_198:\n        /* \"#utility.yul\":1856:1893   */\n      swap1\n      pop\n        /* \"#utility.yul\":1948:1952   */\n      0x20\n        /* \"#utility.yul\":1942:1946   */\n      dup2\n        /* \"#utility.yul\":1938:1953   */\n      add\n        /* \"#utility.yul\":1930:1953   */\n      swap1\n      pop\n        /* \"#utility.yul\":1652:1960   */\n      swap2\n      swap1\n      pop\n      jump\t// out\n        /* \"#utility.yul\":1966:2114   */\n    tag_135:\n        /* \"#utility.yul\":2064:2070   */\n      dup3\n        /* \"#utility.yul\":2059:2062   */\n      dup2\n        /* \"#utility.yul\":2054:2057   */\n      dup4\n        /* \"#utility.yul\":2041:2071   */\n      calldatacopy\n        /* \"#utility.yul\":2105:2106   */\n      0x00\n        /* \"#utility.yul\":2096:2102   */\n      dup4\n        /* \"#utility.yul\":2091:2094   */\n      dup4\n        /* \"#utility.yul\":2087:2103   */\n      add\n        /* \"#utility.yul\":2080:2107   */\n      mstore\n        /* \"#utility.yul\":1966:2114   */\n      pop\n      pop\n      pop\n      jump\t// out\n        /* \"#utility.yul\":2120:2545   */\n    tag_136:\n        /* \"#utility.yul\":2198:2203   */\n      0x00\n        /* \"#utility.yul\":2223:2289   */\n      tag_201\n        /* \"#utility.yul\":2239:2288   */\n      tag_202\n        /* \"#utility.yul\":2281:2287   */\n      dup5\n        /* \"#utility.yul\":2239:2288   */\n      tag_134\n      jump\t// in\n    tag_202:\n        /* \"#utility.yul\":2223:2289   */\n      tag_133\n      jump\t// in\n    tag_201:\n        /* \"#utility.yul\":2214:2289   */\n      swap1\n      pop\n        /* \"#utility.yul\":2312:2318   */\n      dup3\n        /* \"#utility.yul\":2305:2310   */\n      dup2\n        /* \"#utility.yul\":2298:2319   */\n      mstore\n        /* \"#utility.yul\":2350:2354   */\n      0x20\n        /* \"#utility.yul\":2343:2348   */\n      dup2\n        /* \"#utility.yul\":2339:2355   */\n      add\n        /* \"#utility.yul\":2388:2391   */\n      dup5\n        /* \"#utility.yul\":2379:2385   */\n      dup5\n        /* \"#utility.yul\":2374:2377   */\n      dup5\n        /* \"#utility.yul\":2370:2386   */\n      add\n        /* \"#utility.yul\":2367:2392   */\n      gt\n        /* \"#utility.yul\":2364:2476   */\n      iszero\n      tag_203\n      jumpi\n        /* \"#utility.yul\":2395:2474   */\n      tag_204\n      tag_130\n      jump\t// in\n    tag_204:\n        /* \"#utility.yul\":2364:2476   */\n    tag_203:\n        /* \"#utility.yul\":2485:2539   */\n      tag_205\n        /* \"#utility.yul\":2532:2538   */\n      dup5\n        /* \"#utility.yul\":2527:2530   */\n      dup3\n        /* \"#utility.yul\":2522:2525   */\n      dup6\n        /* \"#utility.yul\":2485:2539   */\n      tag_135\n      jump\t// in\n    tag_205:\n        /* \"#utility.yul\":2204:2545   */\n      pop\n        /* \"#utility.yul\":2120:2545   */\n      swap4\n      swap3\n      pop\n      pop\n      pop\n      jump\t// out\n        /* \"#utility.yul\":2565:2905   */\n    tag_137:\n        /* \"#utility.yul\":2621:2626   */\n      0x00\n        /* \"#utility.yul\":2670:2673   */\n      dup3\n        /* \"#utility.yul\":2663:2667   */\n      0x1f\n        /* \"#utility.yul\":2655:2661   */\n      dup4\n        /* \"#utility.yul\":2651:2668   */\n      add\n        /* \"#utility.yul\":2647:2674   */\n      slt\n        /* \"#utility.yul\":2637:2759   */\n      tag_207\n      jumpi\n        /* \"#utility.yul\":2678:2757   */\n      tag_208\n      tag_129\n      jump\t// in\n    tag_208:\n        /* \"#utility.yul\":2637:2759   */\n    tag_207:\n        /* \"#utility.yul\":2795:2801   */\n      dup2\n        /* \"#utility.yul\":2782:2802   */\n      calldataload\n        /* \"#utility.yul\":2820:2899   */\n      tag_209\n        /* \"#utility.yul\":2895:2898   */\n      dup5\n        /* \"#utility.yul\":2887:2893   */\n      dup3\n        /* \"#utility.yul\":2880:2884   */\n      0x20\n        /* \"#utility.yul\":2872:2878   */\n      dup7\n        /* \"#utility.yul\":2868:2885   */\n      add\n        /* \"#utility.yul\":2820:2899   */\n      tag_136\n      jump\t// in\n    tag_209:\n        /* \"#utility.yul\":2811:2899   */\n      swap2\n      pop\n        /* \"#utility.yul\":2627:2905   */\n      pop\n        /* \"#utility.yul\":2565:2905   */\n      swap3\n      swap2\n      pop\n      pop\n      jump\t// out\n        /* \"#utility.yul\":2911:3565   */\n    tag_11:\n        /* \"#utility.yul\":2989:2995   */\n      0x00\n        /* \"#utility.yul\":2997:3003   */\n      dup1\n        /* \"#utility.yul\":3046:3048   */\n      0x40\n        /* \"#utility.yul\":3034:3043   */\n      dup4\n        /* \"#utility.yul\":3025:3032   */\n      dup6\n        /* \"#utility.yul\":3021:3044   */\n      sub\n        /* \"#utility.yul\":3017:3049   */\n      slt\n        /* \"#utility.yul\":3014:3133   */\n      iszero\n      tag_211\n      jumpi\n        /* \"#utility.yul\":3052:3131   */\n      tag_212\n      tag_124\n      jump\t// in\n    tag_212:\n        /* \"#utility.yul\":3014:3133   */\n    tag_211:\n        /* \"#utility.yul\":3172:3173   */\n      0x00\n        /* \"#utility.yul\":3197:3250   */\n      tag_213\n        /* \"#utility.yul\":3242:3249   */\n      dup6\n        /* \"#utility.yul\":3233:3239   */\n      dup3\n        /* \"#utility.yul\":3222:3231   */\n      dup7\n        /* \"#utility.yul\":3218:3240   */\n      add\n        /* \"#utility.yul\":3197:3250   */\n      tag_128\n      jump\t// in\n    tag_213:\n        /* \"#utility.yul\":3187:3250   */\n      swap3\n      pop\n        /* \"#utility.yul\":3143:3260   */\n      pop\n        /* \"#utility.yul\":3327:3329   */\n      0x20\n        /* \"#utility.yul\":3316:3325   */\n      dup4\n        /* \"#utility.yul\":3312:3330   */\n      add\n        /* \"#utility.yul\":3299:3331   */\n      calldataload\n        /* \"#utility.yul\":3358:3376   */\n      0xffffffffffffffff\n        /* \"#utility.yul\":3350:3356   */\n      dup2\n        /* \"#utility.yul\":3347:3377   */\n      gt\n        /* \"#utility.yul\":3344:3461   */\n      iszero\n      tag_214\n      jumpi\n        /* \"#utility.yul\":3380:3459   */\n      tag_215\n      tag_125\n      jump\t// in\n    tag_215:\n        /* \"#utility.yul\":3344:3461   */\n    tag_214:\n        /* \"#utility.yul\":3485:3548   */\n      tag_216\n        /* \"#utility.yul\":3540:3547   */\n      dup6\n        /* \"#utility.yul\":3531:3537   */\n      dup3\n        /* \"#utility.yul\":3520:3529   */\n      dup7\n        /* \"#utility.yul\":3516:3538   */\n      add\n        /* \"#utility.yul\":3485:3548   */\n      tag_137\n      jump\t// in\n    tag_216:\n        /* \"#utility.yul\":3475:3548   */\n      swap2\n      pop\n        /* \"#utility.yul\":3270:3558   */\n      pop\n        /* \"#utility.yul\":2911:3565   */\n      swap3\n      pop\n      swap3\n      swap1\n      pop\n      jump\t// out\n        /* \"#utility.yul\":3571:3900   */\n    tag_15:\n        /* \"#utility.yul\":3630:3636   */\n      0x00\n        /* \"#utility.yul\":3679:3681   */\n      0x20\n        /* \"#utility.yul\":3667:3676   */\n      dup3\n        /* \"#utility.yul\":3658:3665   */\n      dup5\n        /* \"#utility.yul\":3654:3677   */\n      sub\n        /* \"#utility.yul\":3650:3682   */\n      slt\n        /* \"#utility.yul\":3647:3766   */\n      iszero\n      tag_218\n      jumpi\n        /* \"#utility.yul\":3685:3764   */\n      tag_219\n      tag_124\n      jump\t// in\n    tag_219:\n        /* \"#utility.yul\":3647:3766   */\n    tag_218:\n        /* \"#utility.yul\":3805:3806   */\n      0x00\n        /* \"#utility.yul\":3830:3883   */\n      tag_220\n        /* \"#utility.yul\":3875:3882   */\n      dup5\n        /* \"#utility.yul\":3866:3872   */\n      dup3\n        /* \"#utility.yul\":3855:3864   */\n      dup6\n        /* \"#utility.yul\":3851:3873   */\n      add\n        /* \"#utility.yul\":3830:3883   */\n      tag_128\n      jump\t// in\n    tag_220:\n        /* \"#utility.yul\":3820:3883   */\n      swap2\n      pop\n        /* \"#utility.yul\":3776:3893   */\n      pop\n        /* \"#utility.yul\":3571:3900   */\n      swap3\n      swap2\n      pop\n      pop\n      jump\t// out\n        /* \"#utility.yul\":3906:4005   */\n    tag_138:\n        /* \"#utility.yul\":3958:3964   */\n      0x00\n        /* \"#utility.yul\":3992:3997   */\n      dup2\n        /* \"#utility.yul\":3986:3998   */\n      mload\n        /* \"#utility.yul\":3976:3998   */\n      swap1\n      pop\n        /* \"#utility.yul\":3906:4005   */\n      swap2\n      swap1\n      pop\n      jump\t// out\n        /* \"#utility.yul\":4011:4180   */\n    tag_139:\n        /* \"#utility.yul\":4095:4106   */\n      0x00\n        /* \"#utility.yul\":4129:4135   */\n      dup3\n        /* \"#utility.yul\":4124:4127   */\n      dup3\n        /* \"#utility.yul\":4117:4136   */\n      mstore\n        /* \"#utility.yul\":4169:4173   */\n      0x20\n        /* \"#utility.yul\":4164:4167   */\n      dup3\n        /* \"#utility.yul\":4160:4174   */\n      add\n        /* \"#utility.yul\":4145:4174   */\n      swap1\n      pop\n        /* \"#utility.yul\":4011:4180   */\n      swap3\n      swap2\n      pop\n      pop\n      jump\t// out\n        /* \"#utility.yul\":4186:4325   */\n    tag_140:\n        /* \"#utility.yul\":4275:4281   */\n      dup3\n        /* \"#utility.yul\":4270:4273   */\n      dup2\n        /* \"#utility.yul\":4265:4268   */\n      dup4\n        /* \"#utility.yul\":4259:4282   */\n      mcopy\n        /* \"#utility.yul\":4316:4317   */\n      0x00\n        /* \"#utility.yul\":4307:4313   */\n      dup4\n        /* \"#utility.yul\":4302:4305   */\n      dup4\n        /* \"#utility.yul\":4298:4314   */\n      add\n        /* \"#utility.yul\":4291:4318   */\n      mstore\n        /* \"#utility.yul\":4186:4325   */\n      pop\n      pop\n      pop\n      jump\t// out\n        /* \"#utility.yul\":4331:4708   */\n    tag_141:\n        /* \"#utility.yul\":4419:4422   */\n      0x00\n        /* \"#utility.yul\":4447:4486   */\n      tag_225\n        /* \"#utility.yul\":4480:4485   */\n      dup3\n        /* \"#utility.yul\":4447:4486   */\n      tag_138\n      jump\t// in\n    tag_225:\n        /* \"#utility.yul\":4502:4573   */\n      tag_226\n        /* \"#utility.yul\":4566:4572   */\n      dup2\n        /* \"#utility.yul\":4561:4564   */\n      dup6\n        /* \"#utility.yul\":4502:4573   */\n      tag_139\n      jump\t// in\n    tag_226:\n        /* \"#utility.yul\":4495:4573   */\n      swap4\n      pop\n        /* \"#utility.yul\":4582:4647   */\n      tag_227\n        /* \"#utility.yul\":4640:4646   */\n      dup2\n        /* \"#utility.yul\":4635:4638   */\n      dup6\n        /* \"#utility.yul\":4628:4632   */\n      0x20\n        /* \"#utility.yul\":4621:4626   */\n      dup7\n        /* \"#utility.yul\":4617:4633   */\n      add\n        /* \"#utility.yul\":4582:4647   */\n      tag_140\n      jump\t// in\n    tag_227:\n        /* \"#utility.yul\":4672:4701   */\n      tag_228\n        /* \"#utility.yul\":4694:4700   */\n      dup2\n        /* \"#utility.yul\":4672:4701   */\n      tag_131\n      jump\t// in\n    tag_228:\n        /* \"#utility.yul\":4667:4670   */\n      dup5\n        /* \"#utility.yul\":4663:4702   */\n      add\n        /* \"#utility.yul\":4656:4702   */\n      swap2\n      pop\n        /* \"#utility.yul\":4423:4708   */\n      pop\n        /* \"#utility.yul\":4331:4708   */\n      swap3\n      swap2\n      pop\n      pop\n      jump\t// out\n        /* \"#utility.yul\":4714:5027   */\n    tag_18:\n        /* \"#utility.yul\":4827:4831   */\n      0x00\n        /* \"#utility.yul\":4865:4867   */\n      0x20\n        /* \"#utility.yul\":4854:4863   */\n      dup3\n        /* \"#utility.yul\":4850:4868   */\n      add\n        /* \"#utility.yul\":4842:4868   */\n      swap1\n      pop\n        /* \"#utility.yul\":4914:4923   */\n      dup2\n        /* \"#utility.yul\":4908:4912   */\n      dup2\n        /* \"#utility.yul\":4904:4924   */\n      sub\n        /* \"#utility.yul\":4900:4901   */\n      0x00\n        /* \"#utility.yul\":4889:4898   */\n      dup4\n        /* \"#utility.yul\":4885:4902   */\n      add\n        /* \"#utility.yul\":4878:4925   */\n      mstore\n        /* \"#utility.yul\":4942:5020   */\n      tag_230\n        /* \"#utility.yul\":5015:5019   */\n      dup2\n        /* \"#utility.yul\":5006:5012   */\n      dup5\n        /* \"#utility.yul\":4942:5020   */\n      tag_141\n      jump\t// in\n    tag_230:\n        /* \"#utility.yul\":4934:5020   */\n      swap1\n      pop\n        /* \"#utility.yul\":4714:5027   */\n      swap3\n      swap2\n      pop\n      pop\n      jump\t// out\n        /* \"#utility.yul\":5033:5159   */\n    tag_142:\n        /* \"#utility.yul\":5070:5077   */\n      0x00\n        /* \"#utility.yul\":5110:5152   */\n      0xffffffffffffffffffffffffffffffffffffffff\n        /* \"#utility.yul\":5103:5108   */\n      dup3\n        /* \"#utility.yul\":5099:5153   */\n      and\n        /* \"#utility.yul\":5088:5153   */\n      swap1\n      pop\n        /* \"#utility.yul\":5033:5159   */\n      swap2\n      swap1\n      pop\n      jump\t// out\n        /* \"#utility.yul\":5165:5261   */\n    tag_143:\n        /* \"#utility.yul\":5202:5209   */\n      0x00\n        /* \"#utility.yul\":5231:5255   */\n      tag_233\n        /* \"#utility.yul\":5249:5254   */\n      dup3\n        /* \"#utility.yul\":5231:5255   */\n      tag_142\n      jump\t// in\n    tag_233:\n        /* \"#utility.yul\":5220:5255   */\n      swap1\n      pop\n        /* \"#utility.yul\":5165:5261   */\n      swap2\n      swap1\n      pop\n      jump\t// out\n        /* \"#utility.yul\":5267:5385   */\n    tag_144:\n        /* \"#utility.yul\":5354:5378   */\n      tag_235\n        /* \"#utility.yul\":5372:5377   */\n      dup2\n        /* \"#utility.yul\":5354:5378   */\n      tag_143\n      jump\t// in\n    tag_235:\n        /* \"#utility.yul\":5349:5352   */\n      dup3\n        /* \"#utility.yul\":5342:5379   */\n      mstore\n        /* \"#utility.yul\":5267:5385   */\n      pop\n      pop\n      jump\t// out\n        /* \"#utility.yul\":5391:5613   */\n    tag_24:\n        /* \"#utility.yul\":5484:5488   */\n      0x00\n        /* \"#utility.yul\":5522:5524   */\n      0x20\n        /* \"#utility.yul\":5511:5520   */\n      dup3\n        /* \"#utility.yul\":5507:5525   */\n      add\n        /* \"#utility.yul\":5499:5525   */\n      swap1\n      pop\n        /* \"#utility.yul\":5535:5606   */\n      tag_237\n        /* \"#utility.yul\":5603:5604   */\n      0x00\n        /* \"#utility.yul\":5592:5601   */\n      dup4\n        /* \"#utility.yul\":5588:5605   */\n      add\n        /* \"#utility.yul\":5579:5585   */\n      dup5\n        /* \"#utility.yul\":5535:5606   */\n      tag_144\n      jump\t// in\n    tag_237:\n        /* \"#utility.yul\":5391:5613   */\n      swap3\n      swap2\n      pop\n      pop\n      jump\t// out\n        /* \"#utility.yul\":5619:5696   */\n    tag_145:\n        /* \"#utility.yul\":5656:5663   */\n      0x00\n        /* \"#utility.yul\":5685:5690   */\n      dup2\n        /* \"#utility.yul\":5674:5690   */\n      swap1\n      pop\n        /* \"#utility.yul\":5619:5696   */\n      swap2\n      swap1\n      pop\n      jump\t// out\n        /* \"#utility.yul\":5702:5824   */\n    tag_146:\n        /* \"#utility.yul\":5775:5799   */\n      tag_240\n        /* \"#utility.yul\":5793:5798   */\n      dup2\n        /* \"#utility.yul\":5775:5799   */\n      tag_145\n      jump\t// in\n    tag_240:\n        /* \"#utility.yul\":5768:5773   */\n      dup2\n        /* \"#utility.yul\":5765:5800   */\n      eq\n        /* \"#utility.yul\":5755:5818   */\n      tag_241\n      jumpi\n        /* \"#utility.yul\":5814:5815   */\n      0x00\n        /* \"#utility.yul\":5811:5812   */\n      dup1\n        /* \"#utility.yul\":5804:5816   */\n      revert\n        /* \"#utility.yul\":5755:5818   */\n    tag_241:\n        /* \"#utility.yul\":5702:5824   */\n      pop\n      jump\t// out\n        /* \"#utility.yul\":5830:5969   */\n    tag_147:\n        /* \"#utility.yul\":5876:5881   */\n      0x00\n        /* \"#utility.yul\":5914:5920   */\n      dup2\n        /* \"#utility.yul\":5901:5921   */\n      calldataload\n        /* \"#utility.yul\":5892:5921   */\n      swap1\n      pop\n        /* \"#utility.yul\":5930:5963   */\n      tag_243\n        /* \"#utility.yul\":5957:5962   */\n      dup2\n        /* \"#utility.yul\":5930:5963   */\n      tag_146\n      jump\t// in\n    tag_243:\n        /* \"#utility.yul\":5830:5969   */\n      swap3\n      swap2\n      pop\n      pop\n      jump\t// out\n        /* \"#utility.yul\":5975:6449   */\n    tag_27:\n        /* \"#utility.yul\":6043:6049   */\n      0x00\n        /* \"#utility.yul\":6051:6057   */\n      dup1\n        /* \"#utility.yul\":6100:6102   */\n      0x40\n        /* \"#utility.yul\":6088:6097   */\n      dup4\n        /* \"#utility.yul\":6079:6086   */\n      dup6\n        /* \"#utility.yul\":6075:6098   */\n      sub\n        /* \"#utility.yul\":6071:6103   */\n      slt\n        /* \"#utility.yul\":6068:6187   */\n      iszero\n      tag_245\n      jumpi\n        /* \"#utility.yul\":6106:6185   */\n      tag_246\n      tag_124\n      jump\t// in\n    tag_246:\n        /* \"#utility.yul\":6068:6187   */\n    tag_245:\n        /* \"#utility.yul\":6226:6227   */\n      0x00\n        /* \"#utility.yul\":6251:6304   */\n      tag_247\n        /* \"#utility.yul\":6296:6303   */\n      dup6\n        /* \"#utility.yul\":6287:6293   */\n      dup3\n        /* \"#utility.yul\":6276:6285   */\n      dup7\n        /* \"#utility.yul\":6272:6294   */\n      add\n        /* \"#utility.yul\":6251:6304   */\n      tag_128\n      jump\t// in\n    tag_247:\n        /* \"#utility.yul\":6241:6304   */\n      swap3\n      pop\n        /* \"#utility.yul\":6197:6314   */\n      pop\n        /* \"#utility.yul\":6353:6355   */\n      0x20\n        /* \"#utility.yul\":6379:6432   */\n      tag_248\n        /* \"#utility.yul\":6424:6431   */\n      dup6\n        /* \"#utility.yul\":6415:6421   */\n      dup3\n        /* \"#utility.yul\":6404:6413   */\n      dup7\n        /* \"#utility.yul\":6400:6422   */\n      add\n        /* \"#utility.yul\":6379:6432   */\n      tag_147\n      jump\t// in\n    tag_248:\n        /* \"#utility.yul\":6369:6432   */\n      swap2\n      pop\n        /* \"#utility.yul\":6324:6442   */\n      pop\n        /* \"#utility.yul\":5975:6449   */\n      swap3\n      pop\n      swap3\n      swap1\n      pop\n      jump\t// out\n        /* \"#utility.yul\":6455:6577   */\n    tag_148:\n        /* \"#utility.yul\":6528:6552   */\n      tag_250\n        /* \"#utility.yul\":6546:6551   */\n      dup2\n        /* \"#utility.yul\":6528:6552   */\n      tag_143\n      jump\t// in\n    tag_250:\n        /* \"#utility.yul\":6521:6526   */\n      dup2\n        /* \"#utility.yul\":6518:6553   */\n      eq\n        /* \"#utility.yul\":6508:6571   */\n      tag_251\n      jumpi\n        /* \"#utility.yul\":6567:6568   */\n      0x00\n        /* \"#utility.yul\":6564:6565   */\n      dup1\n        /* \"#utility.yul\":6557:6569   */\n      revert\n        /* \"#utility.yul\":6508:6571   */\n    tag_251:\n        /* \"#utility.yul\":6455:6577   */\n      pop\n      jump\t// out\n        /* \"#utility.yul\":6583:6722   */\n    tag_149:\n        /* \"#utility.yul\":6629:6634   */\n      0x00\n        /* \"#utility.yul\":6667:6673   */\n      dup2\n        /* \"#utility.yul\":6654:6674   */\n      calldataload\n        /* \"#utility.yul\":6645:6674   */\n      swap1\n      pop\n        /* \"#utility.yul\":6683:6716   */\n      tag_253\n        /* \"#utility.yul\":6710:6715   */\n      dup2\n        /* \"#utility.yul\":6683:6716   */\n      tag_148\n      jump\t// in\n    tag_253:\n        /* \"#utility.yul\":6583:6722   */\n      swap3\n      swap2\n      pop\n      pop\n      jump\t// out\n        /* \"#utility.yul\":6728:7057   */\n    tag_32:\n        /* \"#utility.yul\":6787:6793   */\n      0x00\n        /* \"#utility.yul\":6836:6838   */\n      0x20\n        /* \"#utility.yul\":6824:6833   */\n      dup3\n        /* \"#utility.yul\":6815:6822   */\n      dup5\n        /* \"#utility.yul\":6811:6834   */\n      sub\n        /* \"#utility.yul\":6807:6839   */\n      slt\n        /* \"#utility.yul\":6804:6923   */\n      iszero\n      tag_255\n      jumpi\n        /* \"#utility.yul\":6842:6921   */\n      tag_256\n      tag_124\n      jump\t// in\n    tag_256:\n        /* \"#utility.yul\":6804:6923   */\n    tag_255:\n        /* \"#utility.yul\":6962:6963   */\n      0x00\n        /* \"#utility.yul\":6987:7040   */\n      tag_257\n        /* \"#utility.yul\":7032:7039   */\n      dup5\n        /* \"#utility.yul\":7023:7029   */\n      dup3\n        /* \"#utility.yul\":7012:7021   */\n      dup6\n        /* \"#utility.yul\":7008:7030   */\n      add\n        /* \"#utility.yul\":6987:7040   */\n      tag_149\n      jump\t// in\n    tag_257:\n        /* \"#utility.yul\":6977:7040   */\n      swap2\n      pop\n        /* \"#utility.yul\":6933:7050   */\n      pop\n        /* \"#utility.yul\":6728:7057   */\n      swap3\n      swap2\n      pop\n      pop\n      jump\t// out\n        /* \"#utility.yul\":7063:7243   */\n    tag_150:\n        /* \"#utility.yul\":7111:7188   */\n      0x4e487b7100000000000000000000000000000000000000000000000000000000\n        /* \"#utility.yul\":7108:7109   */\n      0x00\n        /* \"#utility.yul\":7101:7189   */\n      mstore\n        /* \"#utility.yul\":7208:7212   */\n      0x22\n        /* \"#utility.yul\":7205:7206   */\n      0x04\n        /* \"#utility.yul\":7198:7213   */\n      mstore\n        /* \"#utility.yul\":7232:7236   */\n      0x24\n        /* \"#utility.yul\":7229:7230   */\n      0x00\n        /* \"#utility.yul\":7222:7237   */\n      revert\n        /* \"#utility.yul\":7249:7569   */\n    tag_43:\n        /* \"#utility.yul\":7293:7299   */\n      0x00\n        /* \"#utility.yul\":7330:7331   */\n      0x02\n        /* \"#utility.yul\":7324:7328   */\n      dup3\n        /* \"#utility.yul\":7320:7332   */\n      div\n        /* \"#utility.yul\":7310:7332   */\n      swap1\n      pop\n        /* \"#utility.yul\":7377:7378   */\n      0x01\n        /* \"#utility.yul\":7371:7375   */\n      dup3\n        /* \"#utility.yul\":7367:7379   */\n      and\n        /* \"#utility.yul\":7398:7416   */\n      dup1\n        /* \"#utility.yul\":7388:7469   */\n      tag_260\n      jumpi\n        /* \"#utility.yul\":7454:7458   */\n      0x7f\n        /* \"#utility.yul\":7446:7452   */\n      dup3\n        /* \"#utility.yul\":7442:7459   */\n      and\n        /* \"#utility.yul\":7432:7459   */\n      swap2\n      pop\n        /* \"#utility.yul\":7388:7469   */\n    tag_260:\n        /* \"#utility.yul\":7516:7518   */\n      0x20\n        /* \"#utility.yul\":7508:7514   */\n      dup3\n        /* \"#utility.yul\":7505:7519   */\n      lt\n        /* \"#utility.yul\":7485:7503   */\n      dup2\n        /* \"#utility.yul\":7482:7520   */\n      sub\n        /* \"#utility.yul\":7479:7563   */\n      tag_261\n      jumpi\n        /* \"#utility.yul\":7535:7553   */\n      tag_262\n      tag_150\n      jump\t// in\n    tag_262:\n        /* \"#utility.yul\":7479:7563   */\n    tag_261:\n        /* \"#utility.yul\":7300:7569   */\n      pop\n        /* \"#utility.yul\":7249:7569   */\n      swap2\n      swap1\n      pop\n      jump\t// out\n        /* \"#utility.yul\":7575:7716   */\n    tag_151:\n        /* \"#utility.yul\":7624:7628   */\n      0x00\n        /* \"#utility.yul\":7647:7650   */\n      dup2\n        /* \"#utility.yul\":7639:7650   */\n      swap1\n      pop\n        /* \"#utility.yul\":7670:7673   */\n      dup2\n        /* \"#utility.yul\":7667:7668   */\n      0x00\n        /* \"#utility.yul\":7660:7674   */\n      mstore\n        /* \"#utility.yul\":7704:7708   */\n      0x20\n        /* \"#utility.yul\":7701:7702   */\n      0x00\n        /* \"#utility.yul\":7691:7709   */\n      keccak256\n        /* \"#utility.yul\":7683:7709   */\n      swap1\n      pop\n        /* \"#utility.yul\":7575:7716   */\n      swap2\n      swap1\n      pop\n      jump\t// out\n        /* \"#utility.yul\":7722:7815   */\n    tag_152:\n        /* \"#utility.yul\":7759:7765   */\n      0x00\n        /* \"#utility.yul\":7806:7808   */\n      0x20\n        /* \"#utility.yul\":7801:7803   */\n      0x1f\n        /* \"#utility.yul\":7794:7799   */\n      dup4\n        /* \"#utility.yul\":7790:7804   */\n      add\n        /* \"#utility.yul\":7786:7809   */\n      div\n        /* \"#utility.yul\":7776:7809   */\n      swap1\n      pop\n        /* \"#utility.yul\":7722:7815   */\n      swap2\n      swap1\n      pop\n      jump\t// out\n        /* \"#utility.yul\":7821:7928   */\n    tag_153:\n        /* \"#utility.yul\":7865:7873   */\n      0x00\n        /* \"#utility.yul\":7915:7920   */\n      dup3\n        /* \"#utility.yul\":7909:7913   */\n      dup3\n        /* \"#utility.yul\":7905:7921   */\n      shl\n        /* \"#utility.yul\":7884:7921   */\n      swap1\n      pop\n        /* \"#utility.yul\":7821:7928   */\n      swap3\n      swap2\n      pop\n      pop\n      jump\t// out\n        /* \"#utility.yul\":7934:8327   */\n    tag_154:\n        /* \"#utility.yul\":8003:8009   */\n      0x00\n        /* \"#utility.yul\":8053:8054   */\n      0x08\n        /* \"#utility.yul\":8041:8051   */\n      dup4\n        /* \"#utility.yul\":8037:8055   */\n      mul\n        /* \"#utility.yul\":8076:8173   */\n      tag_267\n        /* \"#utility.yul\":8106:8172   */\n      0xffffffffffffffffffffffffffffffffffffffffffffffffffffffffffffffff\n        /* \"#utility.yul\":8095:8104   */\n      dup3\n        /* \"#utility.yul\":8076:8173   */\n      tag_153\n      jump\t// in\n    tag_267:\n        /* \"#utility.yul\":8194:8233   */\n      tag_268\n        /* \"#utility.yul\":8224:8232   */\n      dup7\n        /* \"#utility.yul\":8213:8222   */\n      dup4\n        /* \"#utility.yul\":8194:8233   */\n      tag_153\n      jump\t// in\n    tag_268:\n        /* \"#utility.yul\":8182:8233   */\n      swap6\n      pop\n        /* \"#utility.yul\":8266:8270   */\n      dup1\n        /* \"#utility.yul\":8262:8271   */\n      not\n        /* \"#utility.yul\":8255:8260   */\n      dup5\n        /* \"#utility.yul\":8251:8272   */\n      and\n        /* \"#utility.yul\":8242:8272   */\n      swap4\n      pop\n        /* \"#utility.yul\":8315:8319   */\n      dup1\n        /* \"#utility.yul\":8305:8313   */\n      dup7\n        /* \"#utility.yul\":8301:8320   */\n      and\n        /* \"#utility.yul\":8294:8299   */\n      dup5\n        /* \"#utility.yul\":8291:8321   */\n      or\n        /* \"#utility.yul\":8281:8321   */\n      swap3\n      pop\n        /* \"#utility.yul\":8010:8327   */\n      pop\n      pop\n        /* \"#utility.yul\":7934:8327   */\n      swap4\n      swap3\n      pop\n      pop\n      pop\n      jump\t// out\n        /* \"#utility.yul\":8333:8393   */\n    tag_155:\n        /* \"#utility.yul\":8361:8364   */\n      0x00\n        /* \"#utility.yul\":8382:8387   */\n      dup2\n        /* \"#utility.yul\":8375:8387   */\n      swap1\n      pop\n        /* \"#utility.yul\":8333:8393   */\n      swap2\n      swap1\n      pop\n      jump\t// out\n        /* \"#utility.yul\":8399:8541   */\n    tag_156:\n        /* \"#utility.yul\":8449:8458   */\n      0x00\n        /* \"#utility.yul\":8482:8535   */\n      tag_271\n        /* \"#utility.yul\":8500:8534   */\n      tag_272\n        /* \"#utility.yul\":8509:8533   */\n      tag_273\n        /* \"#utility.yul\":8527:8532   */\n      dup5\n        /* \"#utility.yul\":8509:8533   */\n      tag_145\n      jump\t// in\n    tag_273:\n        /* \"#utility.yul\":8500:8534   */\n      tag_155\n      jump\t// in\n    tag_272:\n        /* \"#utility.yul\":8482:8535   */\n      tag_145\n      jump\t// in\n    tag_271:\n        /* \"#utility.yul\":8469:8535   */\n      swap1\n      pop\n        /* \"#utility.yul\":8399:8541   */\n      swap2\n      swap1\n      pop\n      jump\t// out\n        /* \"#utility.yul\":8547:8622   */\n    tag_157:\n        /* \"#utility.yul\":8590:8593   */\n      0x00\n        /* \"#utility.yul\":8611:8616   */\n      dup2\n        /* \"#utility.yul\":8604:8616   */\n      swap1\n      pop\n        /* \"#utility.yul\":8547:8622   */\n      swap2\n      swap1\n      pop\n      jump\t// out\n        /* \"#utility.yul\":8628:8897   */\n    tag_158:\n        /* \"#utility.yul\":8738:8777   */\n      tag_276\n        /* \"#utility.yul\":8769:8776   */\n      dup4\n        /* \"#utility.yul\":8738:8777   */\n      tag_156\n      jump\t// in\n    tag_276:\n        /* \"#utility.yul\":8799:8890   */\n      tag_277\n        /* \"#utility.yul\":8848:8889   */\n      tag_278\n        /* \"#utility.yul\":8872:8888   */\n      dup3\n        /* \"#utility.yul\":8848:8889   */\n      tag_157\n      jump\t// in\n    tag_278:\n        /* \"#utility.yul\":8840:8846   */\n      dup5\n        /* \"#utility.yul\":8833:8837   */\n      dup5\n        /* \"#utility.yul\":8827:8838   */\n      sload\n        /* \"#utility.yul\":8799:8890   */\n      tag_154\n      jump\t// in\n    tag_277:\n        /* \"#utility.yul\":8793:8797   */\n      dup3\n        /* \"#utility.yul\":8786:8891   */\n      sstore\n        /* \"#utility.yul\":8704:8897   */\n      pop\n        /* \"#utility.yul\":8628:8897   */\n      pop\n      pop\n      pop\n      jump\t// out\n        /* \"#utility.yul\":8903:8976   */\n    tag_159:\n        /* \"#utility.yul\":8948:8951   */\n      0x00\n        /* \"#utility.yul\":8903:8976   */\n      swap1\n      jump\t// out\n        /* \"#utility.yul\":8982:9171   */\n    tag_160:\n        /* \"#utility.yul\":9059:9091   */\n      tag_281\n      tag_159\n      jump\t// in\n    tag_281:\n        /* \"#utility.yul\":9100:9165   */\n      tag_282\n        /* \"#utility.yul\":9158:9164   */\n      dup2\n        /* \"#utility.yul\":9150:9156   */\n      dup5\n        /* \"#utility.yul\":9144:9148   */\n      dup5\n        /* \"#utility.yul\":9100:9165   */\n      tag_158\n      jump\t// in\n    tag_282:\n        /* \"#utility.yul\":9035:9171   */\n      pop\n        /* \"#utility.yul\":8982:9171   */\n      pop\n      pop\n      jump\t// out\n        /* \"#utility.yul\":9177:9363   */\n    tag_161:\n        /* \"#utility.yul\":9237:9357   */\n    tag_284:\n        /* \"#utility.yul\":9254:9257   */\n      dup2\n        /* \"#utility.yul\":9247:9252   */\n      dup2\n        /* \"#utility.yul\":9244:9258   */\n      lt\n        /* \"#utility.yul\":9237:9357   */\n      iszero\n      tag_286\n      jumpi\n        /* \"#utility.yul\":9308:9347   */\n      tag_287\n        /* \"#utility.yul\":9345:9346   */\n      0x00\n        /* \"#utility.yul\":9338:9343   */\n      dup3\n        /* \"#utility.yul\":9308:9347   */\n      tag_160\n      jump\t// in\n    tag_287:\n        /* \"#utility.yul\":9281:9282   */\n      0x01\n        /* \"#utility.yul\":9274:9279   */\n      dup2\n        /* \"#utility.yul\":9270:9283   */\n      add\n        /* \"#utility.yul\":9261:9283   */\n      swap1\n      pop\n        /* \"#utility.yul\":9237:9357   */\n      jump(tag_284)\n    tag_286:\n        /* \"#utility.yul\":9177:9363   */\n      pop\n      pop\n      jump\t// out\n        /* \"#utility.yul\":9369:9912   */\n    tag_162:\n        /* \"#utility.yul\":9470:9472   */\n      0x1f\n        /* \"#utility.yul\":9465:9468   */\n      dup3\n        /* \"#utility.yul\":9462:9473   */\n      gt\n        /* \"#utility.yul\":9459:9905   */\n      iszero\n      tag_289\n      jumpi\n        /* \"#utility.yul\":9504:9542   */\n      tag_290\n        /* \"#utility.yul\":9536:9541   */\n      dup2\n        /* \"#utility.yul\":9504:9542   */\n      tag_151\n      jump\t// in\n    tag_290:\n        /* \"#utility.yul\":9588:9617   */\n      tag_291\n        /* \"#utility.yul\":9606:9616   */\n      dup5\n        /* \"#utility.yul\":9588:9617   */\n      tag_152\n      jump\t// in\n    tag_291:\n        /* \"#utility.yul\":9578:9586   */\n      dup2\n        /* \"#utility.yul\":9574:9618   */\n      add\n        /* \"#utility.yul\":9771:9773   */\n      0x20\n        /* \"#utility.yul\":9759:9769   */\n      dup6\n        /* \"#utility.yul\":9756:9774   */\n      lt\n        /* \"#utility.yul\":9753:9802   */\n      iszero\n      tag_292\n      jumpi\n        /* \"#utility.yul\":9792:9800   */\n      dup2\n        /* \"#utility.yul\":9777:9800   */\n      swap1\n      pop\n        /* \"#utility.yul\":9753:9802   */\n    tag_292:\n        /* \"#utility.yul\":9815:9895   */\n      tag_293\n        /* \"#utility.yul\":9871:9893   */\n      tag_294\n        /* \"#utility.yul\":9889:9892   */\n      dup6\n        /* \"#utility.yul\":9871:9893   */\n      tag_152\n      jump\t// in\n    tag_294:\n        /* \"#utility.yul\":9861:9869   */\n      dup4\n        /* \"#utility.yul\":9857:9894   */\n      add\n        /* \"#utility.yul\":9844:9855   */\n      dup3\n        /* \"#utility.yul\":9815:9895   */\n      tag_161\n      jump\t// in\n    tag_293:\n        /* \"#utility.yul\":9474:9905   */\n      pop\n      pop\n        /* \"#utility.yul\":9459:9905   */\n    tag_289:\n        /* \"#utility.yul\":9369:9912   */\n      pop\n      pop\n      pop\n      jump\t// out\n        /* \"#utility.yul\":9918:10035   */\n    tag_163:\n        /* \"#utility.yul\":9972:9980   */\n      0x00\n        /* \"#utility.yul\":10022:10027   */\n      dup3\n        /* \"#utility.yul\":10016:10020   */\n      dup3\n        /* \"#utility.yul\":10012:10028   */\n      shr\n        /* \"#utility.yul\":9991:10028   */\n      swap1\n      pop\n        /* \"#utility.yul\":9918:10035   */\n      swap3\n      swap2\n      pop\n      pop\n      jump\t// out\n        /* \"#utility.yul\":10041:10210   */\n    tag_164:\n        /* \"#utility.yul\":10085:10091   */\n      0x00\n        /* \"#utility.yul\":10118:10169   */\n      tag_297\n        /* \"#utility.yul\":10166:10167   */\n      0x00\n        /* \"#utility.yul\":10162:10168   */\n      not\n        /* \"#utility.yul\":10154:10159   */\n      dup5\n        /* \"#utility.yul\":10151:10152   */\n      0x08\n        /* \"#utility.yul\":10147:10160   */\n      mul\n        /* \"#utility.yul\":10118:10169   */\n      tag_163\n      jump\t// in\n    tag_297:\n        /* \"#utility.yul\":10114:10170   */\n      not\n        /* \"#utility.yul\":10199:10203   */\n      dup1\n        /* \"#utility.yul\":10193:10197   */\n      dup4\n        /* \"#utility.yul\":10189:10204   */\n      and\n        /* \"#utility.yul\":10179:10204   */\n      swap2\n      pop\n        /* \"#utility.yul\":10092:10210   */\n      pop\n        /* \"#utility.yul\":10041:10210   */\n      swap3\n      swap2\n      pop\n      pop\n      jump\t// out\n        /* \"#utility.yul\":10215:10510   */\n    tag_165:\n        /* \"#utility.yul\":10291:10295   */\n      0x00\n        /* \"#utility.yul\":10437:10466   */\n      tag_299\n        /* \"#utility.yul\":10462:10465   */\n      dup4\n        /* \"#utility.yul\":10456:10460   */\n      dup4\n        /* \"#utility.yul\":10437:10466   */\n      tag_164\n      jump\t// in\n    tag_299:\n        /* \"#utility.yul\":10429:10466   */\n      swap2\n      pop\n        /* \"#utility.yul\":10499:10502   */\n      dup3\n        /* \"#utility.yul\":10496:10497   */\n      0x02\n        /* \"#utility.yul\":10492:10503   */\n      mul\n        /* \"#utility.yul\":10486:10490   */\n      dup3\n        /* \"#utility.yul\":10483:10504   */\n      or\n        /* \"#utility.yul\":10475:10504   */\n      swap1\n      pop\n        /* \"#utility.yul\":10215:10510   */\n      swap3\n      swap2\n      pop\n      pop\n      jump\t// out\n        /* \"#utility.yul\":10515:11910   */\n    tag_39:\n        /* \"#utility.yul\":10632:10669   */\n      tag_301\n        /* \"#utility.yul\":10665:10668   */\n      dup3\n        /* \"#utility.yul\":10632:10669   */\n      tag_138\n      jump\t// in\n    tag_301:\n        /* \"#utility.yul\":10734:10752   */\n      0xffffffffffffffff\n        /* \"#utility.yul\":10726:10732   */\n      dup2\n        /* \"#utility.yul\":10723:10753   */\n      gt\n        /* \"#utility.yul\":10720:10776   */\n      iszero\n      tag_302\n      jumpi\n        /* \"#utility.yul\":10756:10774   */\n      tag_303\n      tag_78\n      jump\t// in\n    tag_303:\n        /* \"#utility.yul\":10720:10776   */\n    tag_302:\n        /* \"#utility.yul\":10800:10838   */\n      tag_304\n        /* \"#utility.yul\":10832:10836   */\n      dup3\n        /* \"#utility.yul\":10826:10837   */\n      sload\n        /* \"#utility.yul\":10800:10838   */\n      tag_43\n      jump\t// in\n    tag_304:\n        /* \"#utility.yul\":10885:10952   */\n      tag_305\n        /* \"#utility.yul\":10945:10951   */\n      dup3\n        /* \"#utility.yul\":10937:10943   */\n      dup3\n        /* \"#utility.yul\":10931:10935   */\n      dup6\n        /* \"#utility.yul\":10885:10952   */\n      tag_162\n      jump\t// in\n    tag_305:\n        /* \"#utility.yul\":10979:10980   */\n      0x00\n        /* \"#utility.yul\":11003:11007   */\n      0x20\n        /* \"#utility.yul\":10990:11007   */\n      swap1\n      pop\n        /* \"#utility.yul\":11035:11037   */\n      0x1f\n        /* \"#utility.yul\":11027:11033   */\n      dup4\n        /* \"#utility.yul\":11024:11038   */\n      gt\n        /* \"#utility.yul\":11052:11053   */\n      0x01\n        /* \"#utility.yul\":11047:11665   */\n      dup2\n      eq\n      tag_307\n      jumpi\n        /* \"#utility.yul\":11709:11710   */\n      0x00\n        /* \"#utility.yul\":11726:11732   */\n      dup5\n        /* \"#utility.yul\":11723:11800   */\n      iszero\n      tag_308\n      jumpi\n        /* \"#utility.yul\":11775:11784   */\n      dup3\n        /* \"#utility.yul\":11770:11773   */\n      dup8\n        /* \"#utility.yul\":11766:11785   */\n      add\n        /* \"#utility.yul\":11760:11786   */\n      mload\n        /* \"#utility.yul\":11751:11786   */\n      swap1\n      pop\n        /* \"#utility.yul\":11723:11800   */\n    tag_308:\n        /* \"#utility.yul\":11826:11893   */\n      tag_309\n        /* \"#utility.yul\":11886:11892   */\n      dup6\n        /* \"#utility.yul\":11879:11884   */\n      dup3\n        /* \"#utility.yul\":11826:11893   */\n      tag_165\n      jump\t// in\n    tag_309:\n        /* \"#utility.yul\":11820:11824   */\n      dup7\n        /* \"#utility.yul\":11813:11894   */\n      sstore\n        /* \"#utility.yul\":11682:11904   */\n      pop\n        /* \"#utility.yul\":11017:11904   */\n      jump(tag_306)\n        /* \"#utility.yul\":11047:11665   */\n    tag_307:\n        /* \"#utility.yul\":11099:11103   */\n      0x1f\n        /* \"#utility.yul\":11095:11104   */\n      not\n        /* \"#utility.yul\":11087:11093   */\n      dup5\n        /* \"#utility.yul\":11083:11105   */\n      and\n        /* \"#utility.yul\":11133:11170   */\n      tag_310\n        /* \"#utility.yul\":11165:11169   */\n      dup7\n        /* \"#utility.yul\":11133:11170   */\n      tag_151\n      jump\t// in\n    tag_310:\n        /* \"#utility.yul\":11192:11193   */\n      0x00\n        /* \"#utility.yul\":11206:11414   */\n    tag_311:\n        /* \"#utility.yul\":11220:11227   */\n      dup3\n        /* \"#utility.yul\":11217:11218   */\n      dup2\n        /* \"#utility.yul\":11214:11228   */\n      lt\n        /* \"#utility.yul\":11206:11414   */\n      iszero\n      tag_313\n      jumpi\n        /* \"#utility.yul\":11299:11308   */\n      dup5\n        /* \"#utility.yul\":11294:11297   */\n      dup10\n        /* \"#utility.yul\":11290:11309   */\n      add\n        /* \"#utility.yul\":11284:11310   */\n      mload\n        /* \"#utility.yul\":11276:11282   */\n      dup3\n        /* \"#utility.yul\":11269:11311   */\n      sstore\n        /* \"#utility.yul\":11350:11351   */\n      0x01\n        /* \"#utility.yul\":11342:11348   */\n      dup3\n        /* \"#utility.yul\":11338:11352   */\n      add\n        /* \"#utility.yul\":11328:11352   */\n      swap2\n      pop\n        /* \"#utility.yul\":11397:11399   */\n      0x20\n        /* \"#utility.yul\":11386:11395   */\n      dup6\n        /* \"#utility.yul\":11382:11400   */\n      add\n        /* \"#utility.yul\":11369:11400   */\n      swap5\n      pop\n        /* \"#utility.yul\":11243:11247   */\n      0x20\n        /* \"#utility.yul\":11240:11241   */\n      dup2\n        /* \"#utility.yul\":11236:11248   */\n      add\n        /* \"#utility.yul\":11231:11248   */\n      swap1\n      pop\n        /* \"#utility.yul\":11206:11414   */\n      jump(tag_311)\n    tag_313:\n        /* \"#utility.yul\":11442:11448   */\n      dup7\n        /* \"#utility.yul\":11433:11440   */\n      dup4\n        /* \"#utility.yul\":11430:11449   */\n      lt\n        /* \"#utility.yul\":11427:11606   */\n      iszero\n      tag_314\n      jumpi\n        /* \"#utility.yul\":11500:11509   */\n      dup5\n        /* \"#utility.yul\":11495:11498   */\n      dup10\n        /* \"#utility.yul\":11491:11510   */\n      add\n        /* \"#utility.yul\":11485:11511   */\n      mload\n        /* \"#utility.yul\":11543:11591   */\n      tag_315\n        /* \"#utility.yul\":11585:11589   */\n      0x1f\n        /* \"#utility.yul\":11577:11583   */\n      dup10\n        /* \"#utility.yul\":11573:11590   */\n      and\n        /* \"#utility.yul\":11562:11571   */\n      dup3\n        /* \"#utility.yul\":11543:11591   */\n      tag_164\n      jump\t// in\n    tag_315:\n        /* \"#utility.yul\":11535:11541   */\n      dup4\n        /* \"#utility.yul\":11528:11592   */\n      sstore\n        /* \"#utility.yul\":11450:11606   */\n      pop\n        /* \"#utility.yul\":11427:11606   */\n    tag_314:\n        /* \"#utility.yul\":11652:11653   */\n      0x01\n        /* \"#utility.yul\":11648:11649   */\n      0x02\n        /* \"#utility.yul\":11640:11646   */\n      dup9\n        /* \"#utility.yul\":11636:11650   */\n      mul\n        /* \"#utility.yul\":11632:11654   */\n      add\n        /* \"#utility.yul\":11626:11630   */\n      dup9\n        /* \"#utility.yul\":11619:11655   */\n      sstore\n        /* \"#utility.yul\":11054:11665   */\n      pop\n      pop\n      pop\n        /* \"#utility.yul\":11017:11904   */\n    tag_306:\n      pop\n        /* \"#utility.yul\":10607:11910   */\n      pop\n      pop\n      pop\n        /* \"#utility.yul\":10515:11910   */\n      pop\n      pop\n      jump\t// out\n        /* \"#utility.yul\":11916:12064   */\n    tag_166:\n        /* \"#utility.yul\":12018:12029   */\n      0x00\n        /* \"#utility.yul\":12055:12058   */\n      dup2\n        /* \"#utility.yul\":12040:12058   */\n      swap1\n      pop\n        /* \"#utility.yul\":11916:12064   */\n      swap3\n      swap2\n      pop\n      pop\n      jump\t// out\n        /* \"#utility.yul\":12070:12240   */\n    tag_167:\n        /* \"#utility.yul\":12210:12232   */\n      0x6d61676e65743a3f78743d75726e3a627469683a000000000000000000000000\n        /* \"#utility.yul\":12206:12207   */\n      0x00\n        /* \"#utility.yul\":12198:12204   */\n      dup3\n        /* \"#utility.yul\":12194:12208   */\n      add\n        /* \"#utility.yul\":12187:12233   */\n      mstore\n        /* \"#utility.yul\":12070:12240   */\n      pop\n      jump\t// out\n        /* \"#utility.yul\":12246:12648   */\n    tag_168:\n        /* \"#utility.yul\":12406:12409   */\n      0x00\n        /* \"#utility.yul\":12427:12512   */\n      tag_319\n        /* \"#utility.yul\":12509:12511   */\n      0x14\n        /* \"#utility.yul\":12504:12507   */\n      dup4\n        /* \"#utility.yul\":12427:12512   */\n      tag_166\n      jump\t// in\n    tag_319:\n        /* \"#utility.yul\":12420:12512   */\n      swap2\n      pop\n        /* \"#utility.yul\":12521:12614   */\n      tag_320\n        /* \"#utility.yul\":12610:12613   */\n      dup3\n        /* \"#utility.yul\":12521:12614   */\n      tag_167\n      jump\t// in\n    tag_320:\n        /* \"#utility.yul\":12639:12641   */\n      0x14\n        /* \"#utility.yul\":12634:12637   */\n      dup3\n        /* \"#utility.yul\":12630:12642   */\n      add\n        /* \"#utility.yul\":12623:12642   */\n      swap1\n      pop\n        /* \"#utility.yul\":12246:12648   */\n      swap2\n      swap1\n      pop\n      jump\t// out\n        /* \"#utility.yul\":12654:13044   */\n    tag_169:\n        /* \"#utility.yul\":12760:12763   */\n      0x00\n        /* \"#utility.yul\":12788:12827   */\n      tag_322\n        /* \"#utility.yul\":12821:12826   */\n      dup3\n        /* \"#utility.yul\":12788:12827   */\n      tag_138\n      jump\t// in\n    tag_322:\n        /* \"#utility.yul\":12843:12932   */\n      tag_323\n        /* \"#utility.yul\":12925:12931   */\n      dup2\n        /* \"#utility.yul\":12920:12923   */\n      dup6\n        /* \"#utility.yul\":12843:12932   */\n      tag_166\n      jump\t// in\n    tag_323:\n        /* \"#utility.yul\":12836:12932   */\n      swap4\n      pop\n        /* \"#utility.yul\":12941:13006   */\n      tag_324\n        /* \"#utility.yul\":12999:13005   */\n      dup2\n        /* \"#utility.yul\":12994:12997   */\n      dup6\n        /* \"#utility.yul\":12987:12991   */\n      0x20\n        /* \"#utility.yul\":12980:12985   */\n      dup7\n        /* \"#utility.yul\":12976:12992   */\n      add\n        /* \"#utility.yul\":12941:13006   */\n      tag_140\n      jump\t// in\n    tag_324:\n        /* \"#utility.yul\":13031:13037   */\n      dup1\n        /* \"#utility.yul\":13026:13029   */\n      dup5\n        /* \"#utility.yul\":13022:13038   */\n      add\n        /* \"#utility.yul\":13015:13038   */\n      swap2\n      pop\n        /* \"#utility.yul\":12764:13044   */\n      pop\n        /* \"#utility.yul\":12654:13044   */\n      swap3\n      swap2\n      pop\n      pop\n      jump\t// out\n        /* \"#utility.yul\":13050:13212   */\n    tag_170:\n        /* \"#utility.yul\":13190:13204   */\n      0x26646e3d46696c6526786c3d0000000000000000000000000000000000000000\n        /* \"#utility.yul\":13186:13187   */\n      0x00\n        /* \"#utility.yul\":13178:13184   */\n      dup3\n        /* \"#utility.yul\":13174:13188   */\n      add\n        /* \"#utility.yul\":13167:13205   */\n      mstore\n        /* \"#utility.yul\":13050:13212   */\n      pop\n      jump\t// out\n        /* \"#utility.yul\":13218:13620   */\n    tag_171:\n        /* \"#utility.yul\":13378:13381   */\n      0x00\n        /* \"#utility.yul\":13399:13484   */\n      tag_327\n        /* \"#utility.yul\":13481:13483   */\n      0x0c\n        /* \"#utility.yul\":13476:13479   */\n      dup4\n        /* \"#utility.yul\":13399:13484   */\n      tag_166\n      jump\t// in\n    tag_327:\n        /* \"#utility.yul\":13392:13484   */\n      swap2\n      pop\n        /* \"#utility.yul\":13493:13586   */\n      tag_328\n        /* \"#utility.yul\":13582:13585   */\n      dup3\n        /* \"#utility.yul\":13493:13586   */\n      tag_170\n      jump\t// in\n    tag_328:\n        /* \"#utility.yul\":13611:13613   */\n      0x0c\n        /* \"#utility.yul\":13606:13609   */\n      dup3\n        /* \"#utility.yul\":13602:13614   */\n      add\n        /* \"#utility.yul\":13595:13614   */\n      swap1\n      pop\n        /* \"#utility.yul\":13218:13620   */\n      swap2\n      swap1\n      pop\n      jump\t// out\n        /* \"#utility.yul\":13626:14593   */\n    tag_60:\n        /* \"#utility.yul\":14008:14011   */\n      0x00\n        /* \"#utility.yul\":14030:14178   */\n      tag_330\n        /* \"#utility.yul\":14174:14177   */\n      dup3\n        /* \"#utility.yul\":14030:14178   */\n      tag_168\n      jump\t// in\n    tag_330:\n        /* \"#utility.yul\":14023:14178   */\n      swap2\n      pop\n        /* \"#utility.yul\":14195:14290   */\n      tag_331\n        /* \"#utility.yul\":14286:14289   */\n      dup3\n        /* \"#utility.yul\":14277:14283   */\n      dup6\n        /* \"#utility.yul\":14195:14290   */\n      tag_169\n      jump\t// in\n    tag_331:\n        /* \"#utility.yul\":14188:14290   */\n      swap2\n      pop\n        /* \"#utility.yul\":14307:14455   */\n      tag_332\n        /* \"#utility.yul\":14451:14454   */\n      dup3\n        /* \"#utility.yul\":14307:14455   */\n      tag_171\n      jump\t// in\n    tag_332:\n        /* \"#utility.yul\":14300:14455   */\n      swap2\n      pop\n        /* \"#utility.yul\":14472:14567   */\n      tag_333\n        /* \"#utility.yul\":14563:14566   */\n      dup3\n        /* \"#utility.yul\":14554:14560   */\n      dup5\n        /* \"#utility.yul\":14472:14567   */\n      tag_169\n      jump\t// in\n    tag_333:\n        /* \"#utility.yul\":14465:14567   */\n      swap2\n      pop\n        /* \"#utility.yul\":14584:14587   */\n      dup2\n        /* \"#utility.yul\":14577:14587   */\n      swap1\n      pop\n        /* \"#utility.yul\":13626:14593   */\n      swap4\n      swap3\n      pop\n      pop\n      pop\n      jump\t// out\n        /* \"#utility.yul\":14599:14779   */\n    tag_85:\n        /* \"#utility.yul\":14647:14724   */\n      0x4e487b7100000000000000000000000000000000000000000000000000000000\n        /* \"#utility.yul\":14644:14645   */\n      0x00\n        /* \"#utility.yul\":14637:14725   */\n      mstore\n        /* \"#utility.yul\":14744:14748   */\n      0x32\n        /* \"#utility.yul\":14741:14742   */\n      0x04\n        /* \"#utility.yul\":14734:14749   */\n      mstore\n        /* \"#utility.yul\":14768:14772   */\n      0x24\n        /* \"#utility.yul\":14765:14766   */\n      0x00\n        /* \"#utility.yul\":14758:14773   */\n      revert\n        /* \"#utility.yul\":14785:14965   */\n    tag_172:\n        /* \"#utility.yul\":14833:14910   */\n      0x4e487b7100000000000000000000000000000000000000000000000000000000\n        /* \"#utility.yul\":14830:14831   */\n      0x00\n        /* \"#utility.yul\":14823:14911   */\n      mstore\n        /* \"#utility.yul\":14930:14934   */\n      0x11\n        /* \"#utility.yul\":14927:14928   */\n      0x04\n        /* \"#utility.yul\":14920:14935   */\n      mstore\n        /* \"#utility.yul\":14954:14958   */\n      0x24\n        /* \"#utility.yul\":14951:14952   */\n      0x00\n        /* \"#utility.yul\":14944:14959   */\n      revert\n        /* \"#utility.yul\":14971:15381   */\n    tag_89:\n        /* \"#utility.yul\":15011:15018   */\n      0x00\n        /* \"#utility.yul\":15034:15054   */\n      tag_337\n        /* \"#utility.yul\":15052:15053   */\n      dup3\n        /* \"#utility.yul\":15034:15054   */\n      tag_145\n      jump\t// in\n    tag_337:\n        /* \"#utility.yul\":15029:15054   */\n      swap2\n      pop\n        /* \"#utility.yul\":15068:15088   */\n      tag_338\n        /* \"#utility.yul\":15086:15087   */\n      dup4\n        /* \"#utility.yul\":15068:15088   */\n      tag_145\n      jump\t// in\n    tag_338:\n        /* \"#utility.yul\":15063:15088   */\n      swap3\n      pop\n        /* \"#utility.yul\":15123:15124   */\n      dup3\n        /* \"#utility.yul\":15120:15121   */\n      dup3\n        /* \"#utility.yul\":15116:15125   */\n      mul\n        /* \"#utility.yul\":15145:15175   */\n      tag_339\n        /* \"#utility.yul\":15163:15174   */\n      dup2\n        /* \"#utility.yul\":15145:15175   */\n      tag_145\n      jump\t// in\n    tag_339:\n        /* \"#utility.yul\":15134:15175   */\n      swap2\n      pop\n        /* \"#utility.yul\":15324:15325   */\n      dup3\n        /* \"#utility.yul\":15315:15322   */\n      dup3\n        /* \"#utility.yul\":15311:15326   */\n      div\n        /* \"#utility.yul\":15308:15309   */\n      dup5\n        /* \"#utility.yul\":15305:15327   */\n      eq\n        /* \"#utility.yul\":15285:15286   */\n      dup4\n        /* \"#utility.yul\":15278:15287   */\n      iszero\n        /* \"#utility.yul\":15258:15341   */\n      or\n        /* \"#utility.yul\":15235:15374   */\n      tag_340\n      jumpi\n        /* \"#utility.yul\":15354:15372   */\n      tag_341\n      tag_172\n      jump\t// in\n    tag_341:\n        /* \"#utility.yul\":15235:15374   */\n    tag_340:\n        /* \"#utility.yul\":15019:15381   */\n      pop\n        /* \"#utility.yul\":14971:15381   */\n      swap3\n      swap2\n      pop\n      pop\n      jump\t// out\n        /* \"#utility.yul\":15387:15578   */\n    tag_98:\n        /* \"#utility.yul\":15427:15430   */\n      0x00\n        /* \"#utility.yul\":15446:15466   */\n      tag_343\n        /* \"#utility.yul\":15464:15465   */\n      dup3\n        /* \"#utility.yul\":15446:15466   */\n      tag_145\n      jump\t// in\n    tag_343:\n        /* \"#utility.yul\":15441:15466   */\n      swap2\n      pop\n        /* \"#utility.yul\":15480:15500   */\n      tag_344\n        /* \"#utility.yul\":15498:15499   */\n      dup4\n        /* \"#utility.yul\":15480:15500   */\n      tag_145\n      jump\t// in\n    tag_344:\n        /* \"#utility.yul\":15475:15500   */\n      swap3\n      pop\n        /* \"#utility.yul\":15523:15524   */\n      dup3\n        /* \"#utility.yul\":15520:15521   */\n      dup3\n        /* \"#utility.yul\":15516:15525   */\n      add\n        /* \"#utility.yul\":15509:15525   */\n      swap1\n      pop\n        /* \"#utility.yul\":15544:15547   */\n      dup1\n        /* \"#utility.yul\":15541:15542   */\n      dup3\n        /* \"#utility.yul\":15538:15548   */\n      gt\n        /* \"#utility.yul\":15535:15571   */\n      iszero\n      tag_345\n      jumpi\n        /* \"#utility.yul\":15551:15569   */\n      tag_346\n      tag_172\n      jump\t// in\n    tag_346:\n        /* \"#utility.yul\":15535:15571   */\n    tag_345:\n        /* \"#utility.yul\":15387:15578   */\n      swap3\n      swap2\n      pop\n      pop\n      jump\t// out\n        /* \"#utility.yul\":15584:15817   */\n    tag_106:\n        /* \"#utility.yul\":15623:15626   */\n      0x00\n        /* \"#utility.yul\":15646:15670   */\n      tag_348\n        /* \"#utility.yul\":15664:15669   */\n      dup3\n        /* \"#utility.yul\":15646:15670   */\n      tag_145\n      jump\t// in\n    tag_348:\n        /* \"#utility.yul\":15637:15670   */\n      swap2\n      pop\n        /* \"#utility.yul\":15692:15758   */\n      0xffffffffffffffffffffffffffffffffffffffffffffffffffffffffffffffff\n        /* \"#utility.yul\":15685:15690   */\n      dup3\n        /* \"#utility.yul\":15682:15759   */\n      sub\n        /* \"#utility.yul\":15679:15782   */\n      tag_349\n      jumpi\n        /* \"#utility.yul\":15762:15780   */\n      tag_350\n      tag_172\n      jump\t// in\n    tag_350:\n        /* \"#utility.yul\":15679:15782   */\n    tag_349:\n        /* \"#utility.yul\":15809:15810   */\n      0x01\n        /* \"#utility.yul\":15802:15807   */\n      dup3\n        /* \"#utility.yul\":15798:15811   */\n      add\n        /* \"#utility.yul\":15791:15811   */\n      swap1\n      pop\n        /* \"#utility.yul\":15584:15817   */\n      swap2\n      swap1\n      pop\n      jump\t// out\n        /* \"#utility.yul\":15823:16003   */\n    tag_173:\n        /* \"#utility.yul\":15871:15948   */\n      0x4e487b7100000000000000000000000000000000000000000000000000000000\n        /* \"#utility.yul\":15868:15869   */\n      0x00\n        /* \"#utility.yul\":15861:15949   */\n      mstore\n        /* \"#utility.yul\":15968:15972   */\n      0x12\n        /* \"#utility.yul\":15965:15966   */\n      0x04\n        /* \"#utility.yul\":15958:15973   */\n      mstore\n        /* \"#utility.yul\":15992:15996   */\n      0x24\n        /* \"#utility.yul\":15989:15990   */\n      0x00\n        /* \"#utility.yul\":15982:15997   */\n      revert\n        /* \"#utility.yul\":16009:16194   */\n    tag_108:\n        /* \"#utility.yul\":16049:16050   */\n      0x00\n        /* \"#utility.yul\":16066:16086   */\n      tag_353\n        /* \"#utility.yul\":16084:16085   */\n      dup3\n        /* \"#utility.yul\":16066:16086   */\n      tag_145\n      jump\t// in\n    tag_353:\n        /* \"#utility.yul\":16061:16086   */\n      swap2\n      pop\n        /* \"#utility.yul\":16100:16120   */\n      tag_354\n        /* \"#utility.yul\":16118:16119   */\n      dup4\n        /* \"#utility.yul\":16100:16120   */\n      tag_145\n      jump\t// in\n    tag_354:\n        /* \"#utility.yul\":16095:16120   */\n      swap3\n      pop\n        /* \"#utility.yul\":16139:16140   */\n      dup3\n        /* \"#utility.yul\":16129:16164   */\n      tag_355\n      jumpi\n        /* \"#utility.yul\":16144:16162   */\n      tag_356\n      tag_173\n      jump\t// in\n    tag_356:\n        /* \"#utility.yul\":16129:16164   */\n    tag_355:\n        /* \"#utility.yul\":16186:16187   */\n      dup3\n        /* \"#utility.yul\":16183:16184   */\n      dup3\n        /* \"#utility.yul\":16179:16188   */\n      div\n        /* \"#utility.yul\":16174:16188   */\n      swap1\n      pop\n        /* \"#utility.yul\":16009:16194   */\n      swap3\n      swap2\n      pop\n      pop\n      jump\t// out\n        /* \"#utility.yul\":16200:16376   */\n    tag_115:\n        /* \"#utility.yul\":16232:16233   */\n      0x00\n        /* \"#utility.yul\":16249:16269   */\n      tag_358\n        /* \"#utility.yul\":16267:16268   */\n      dup3\n        /* \"#utility.yul\":16249:16269   */\n      tag_145\n      jump\t// in\n    tag_358:\n        /* \"#utility.yul\":16244:16269   */\n      swap2\n      pop\n        /* \"#utility.yul\":16283:16303   */\n      tag_359\n        /* \"#utility.yul\":16301:16302   */\n      dup4\n        /* \"#utility.yul\":16283:16303   */\n      tag_145\n      jump\t// in\n    tag_359:\n        /* \"#utility.yul\":16278:16303   */\n      swap3\n      pop\n        /* \"#utility.yul\":16322:16323   */\n      dup3\n        /* \"#utility.yul\":16312:16347   */\n      tag_360\n      jumpi\n        /* \"#utility.yul\":16327:16345   */\n      tag_361\n      tag_173\n      jump\t// in\n    tag_361:\n        /* \"#utility.yul\":16312:16347   */\n    tag_360:\n        /* \"#utility.yul\":16368:16369   */\n      dup3\n        /* \"#utility.yul\":16365:16366   */\n      dup3\n        /* \"#utility.yul\":16361:16370   */\n      mod\n        /* \"#utility.yul\":16356:16370   */\n      swap1\n      pop\n        /* \"#utility.yul\":16200:16376   */\n      swap3\n      swap2\n      pop\n      pop\n      jump\t// out\n        /* \"#utility.yul\":16382:16553   */\n    tag_118:\n        /* \"#utility.yul\":16421:16424   */\n      0x00\n        /* \"#utility.yul\":16444:16468   */\n      tag_363\n        /* \"#utility.yul\":16462:16467   */\n      dup3\n        /* \"#utility.yul\":16444:16468   */\n      tag_145\n      jump\t// in\n    tag_363:\n        /* \"#utility.yul\":16435:16468   */\n      swap2\n      pop\n        /* \"#utility.yul\":16490:16494   */\n      0x00\n        /* \"#utility.yul\":16483:16488   */\n      dup3\n        /* \"#utility.yul\":16480:16495   */\n      sub\n        /* \"#utility.yul\":16477:16518   */\n      tag_364\n      jumpi\n        /* \"#utility.yul\":16498:16516   */\n      tag_365\n      tag_172\n      jump\t// in\n    tag_365:\n        /* \"#utility.yul\":16477:16518   */\n    tag_364:\n        /* \"#utility.yul\":16545:16546   */\n      0x01\n        /* \"#utility.yul\":16538:16543   */\n      dup3\n        /* \"#utility.yul\":16534:16547   */\n      sub\n        /* \"#utility.yul\":16527:16547   */\n      swap1\n      pop\n        /* \"#utility.yul\":16382:16553   */\n      swap2\n      swap1\n      pop\n      jump\t// out\n\n    auxdata: 0xa264697066735822122065ea099417702efee2f5a9de4094cf1dedbbf0a8930454b890e82ea14245be0564736f6c634300081a0033\n}\n",
				"bytecode": {
					"linkReferences": {},
					"object": "608060405234801561000f575f80fd5b50335f73ffffffffffffffffffffffffffffffffffffffff168173ffffffffffffffffffffffffffffffffffffffff1603610081575f6040517f1e4fbdf70000000000000000000000000000000000000000000000000000000081526004016100789190610196565b60405180910390fd5b6100908161009660201b60201c565b506101af565b5f805f9054906101000a900473ffffffffffffffffffffffffffffffffffffffff169050815f806101000a81548173ffffffffffffffffffffffffffffffffffffffff021916908373ffffffffffffffffffffffffffffffffffffffff1602179055508173ffffffffffffffffffffffffffffffffffffffff168173ffffffffffffffffffffffffffffffffffffffff167f8be0079c531659141344cd1fd0a4f28419497f9722a3daafe3b4186f6b6457e060405160405180910390a35050565b5f73ffffffffffffffffffffffffffffffffffffffff82169050919050565b5f61018082610157565b9050919050565b61019081610176565b82525050565b5f6020820190506101a95f830184610187565b92915050565b611136806101bc5f395ff3fe608060405234801561000f575f80fd5b5060043610610060575f3560e01c80631a5d57e8146100645780633558d7bb14610080578063715018a6146100b05780638da5cb5b146100ba578063bba77f4d146100d8578063f2fde38b14610108575b5f80fd5b61007e60048036038101906100799190610944565b610124565b005b61009a6004803603810190610095919061099e565b610187565b6040516100a79190610a29565b60405180910390f35b6100b8610228565b005b6100c261023b565b6040516100cf9190610a88565b60405180910390f35b6100f260048036038101906100ed9190610ad4565b610262565b6040516100ff9190610a29565b60405180910390f35b610122600480360381019061011d9190610b3c565b61029e565b005b61012c610322565b8060015f8481526020019081526020015f20908161014a9190610d61565b50817f1dc98efaa85e02ad63b23676873e13fcaad0693adc42bbffdf81eb47330033188260405161017b9190610a29565b60405180910390a25050565b606060015f8381526020019081526020015f2080546101a590610b94565b80601f01602080910402602001604051908101604052809291908181526020018280546101d190610b94565b801561021c5780601f106101f35761010080835404028352916020019161021c565b820191905f5260205f20905b8154815290600101906020018083116101ff57829003601f168201915b50505050509050919050565b610230610322565b6102395f6103a9565b565b5f805f9054906101000a900473ffffffffffffffffffffffffffffffffffffffff16905090565b606061026d8361046a565b6102768361065f565b604051602001610287929190610efe565b604051602081830303815290604052905092915050565b6102a6610322565b5f73ffffffffffffffffffffffffffffffffffffffff168173ffffffffffffffffffffffffffffffffffffffff1603610316575f6040517f1e4fbdf700000000000000000000000000000000000000000000000000000000815260040161030d9190610a88565b60405180910390fd5b61031f816103a9565b50565b61032a6107bd565b73ffffffffffffffffffffffffffffffffffffffff1661034861023b565b73ffffffffffffffffffffffffffffffffffffffff16146103a75761036b6107bd565b6040517f118cdaa700000000000000000000000000000000000000000000000000000000815260040161039e9190610a88565b60405180910390fd5b565b5f805f9054906101000a900473ffffffffffffffffffffffffffffffffffffffff169050815f806101000a81548173ffffffffffffffffffffffffffffffffffffffff021916908373ffffffffffffffffffffffffffffffffffffffff1602179055508173ffffffffffffffffffffffffffffffffffffffff168173ffffffffffffffffffffffffffffffffffffffff167f8be0079c531659141344cd1fd0a4f28419497f9722a3daafe3b4186f6b6457e060405160405180910390a35050565b60605f6040518060400160405280601081526020017f303132333435363738396162636465660000000000000000000000000000000081525090505f604067ffffffffffffffff8111156104c1576104c0610820565b5b6040519080825280601f01601f1916602001820160405280156104f35781602001600182028036833780820191505090505b5090505f5b60208110156106545782600486836020811061051757610516610f37565b5b1a60f81b7effffffffffffffffffffffffffffffffffffffffffffffffffffffffffffff1916901c60f81c60ff168151811061055657610555610f37565b5b602001015160f81c60f81b8260028361056f9190610f91565b815181106105805761057f610f37565b5b60200101907effffffffffffffffffffffffffffffffffffffffffffffffffffffffffffff191690815f1a90535082600f60f81b8683602081106105c7576105c6610f37565b5b1a60f81b1660f81c60ff16815181106105e3576105e2610f37565b5b602001015160f81c60f81b8260016002846105fe9190610f91565b6106089190610fd2565b8151811061061957610618610f37565b5b60200101907effffffffffffffffffffffffffffffffffffffffffffffffffffffffffffff191690815f1a90535080806001019150506104f8565b508092505050919050565b60605f82036106a5576040518060400160405280600181526020017f300000000000000000000000000000000000000000000000000000000000000081525090506107b8565b5f8290505f5b5f82146106d45780806106bd90611005565b915050600a826106cd9190611079565b91506106ab565b5f8167ffffffffffffffff8111156106ef576106ee610820565b5b6040519080825280601f01601f1916602001820160405280156107215781602001600182028036833780820191505090505b5090505f8290508593505b5f84146107b057600a8461074091906110a9565b603061074c9190610fd2565b60f81b828261075a906110d9565b9250828151811061076e5761076d610f37565b5b60200101907effffffffffffffffffffffffffffffffffffffffffffffffffffffffffffff191690815f1a905350600a846107a99190611079565b935061072c565b819450505050505b919050565b5f33905090565b5f604051905090565b5f80fd5b5f80fd5b5f819050919050565b6107e7816107d5565b81146107f1575f80fd5b50565b5f81359050610802816107de565b92915050565b5f80fd5b5f80fd5b5f601f19601f8301169050919050565b7f4e487b71000000000000000000000000000000000000000000000000000000005f52604160045260245ffd5b61085682610810565b810181811067ffffffffffffffff8211171561087557610874610820565b5b80604052505050565b5f6108876107c4565b9050610893828261084d565b919050565b5f67ffffffffffffffff8211156108b2576108b1610820565b5b6108bb82610810565b9050602081019050919050565b828183375f83830152505050565b5f6108e86108e384610898565b61087e565b9050828152602081018484840111156109045761090361080c565b5b61090f8482856108c8565b509392505050565b5f82601f83011261092b5761092a610808565b5b813561093b8482602086016108d6565b91505092915050565b5f806040838503121561095a576109596107cd565b5b5f610967858286016107f4565b925050602083013567ffffffffffffffff811115610988576109876107d1565b5b61099485828601610917565b9150509250929050565b5f602082840312156109b3576109b26107cd565b5b5f6109c0848285016107f4565b91505092915050565b5f81519050919050565b5f82825260208201905092915050565b8281835e5f83830152505050565b5f6109fb826109c9565b610a0581856109d3565b9350610a158185602086016109e3565b610a1e81610810565b840191505092915050565b5f6020820190508181035f830152610a4181846109f1565b905092915050565b5f73ffffffffffffffffffffffffffffffffffffffff82169050919050565b5f610a7282610a49565b9050919050565b610a8281610a68565b82525050565b5f602082019050610a9b5f830184610a79565b92915050565b5f819050919050565b610ab381610aa1565b8114610abd575f80fd5b50565b5f81359050610ace81610aaa565b92915050565b5f8060408385031215610aea57610ae96107cd565b5b5f610af7858286016107f4565b9250506020610b0885828601610ac0565b9150509250929050565b610b1b81610a68565b8114610b25575f80fd5b50565b5f81359050610b3681610b12565b92915050565b5f60208284031215610b5157610b506107cd565b5b5f610b5e84828501610b28565b91505092915050565b7f4e487b71000000000000000000000000000000000000000000000000000000005f52602260045260245ffd5b5f6002820490506001821680610bab57607f821691505b602082108103610bbe57610bbd610b67565b5b50919050565b5f819050815f5260205f209050919050565b5f6020601f8301049050919050565b5f82821b905092915050565b5f60088302610c207fffffffffffffffffffffffffffffffffffffffffffffffffffffffffffffffff82610be5565b610c2a8683610be5565b95508019841693508086168417925050509392505050565b5f819050919050565b5f610c65610c60610c5b84610aa1565b610c42565b610aa1565b9050919050565b5f819050919050565b610c7e83610c4b565b610c92610c8a82610c6c565b848454610bf1565b825550505050565b5f90565b610ca6610c9a565b610cb1818484610c75565b505050565b5b81811015610cd457610cc95f82610c9e565b600181019050610cb7565b5050565b601f821115610d1957610cea81610bc4565b610cf384610bd6565b81016020851015610d02578190505b610d16610d0e85610bd6565b830182610cb6565b50505b505050565b5f82821c905092915050565b5f610d395f1984600802610d1e565b1980831691505092915050565b5f610d518383610d2a565b9150826002028217905092915050565b610d6a826109c9565b67ffffffffffffffff811115610d8357610d82610820565b5b610d8d8254610b94565b610d98828285610cd8565b5f60209050601f831160018114610dc9575f8415610db7578287015190505b610dc18582610d46565b865550610e28565b601f198416610dd786610bc4565b5f5b82811015610dfe57848901518255600182019150602085019450602081019050610dd9565b86831015610e1b5784890151610e17601f891682610d2a565b8355505b6001600288020188555050505b505050505050565b5f81905092915050565b7f6d61676e65743a3f78743d75726e3a627469683a0000000000000000000000005f82015250565b5f610e6e601483610e30565b9150610e7982610e3a565b601482019050919050565b5f610e8e826109c9565b610e988185610e30565b9350610ea88185602086016109e3565b80840191505092915050565b7f26646e3d46696c6526786c3d00000000000000000000000000000000000000005f82015250565b5f610ee8600c83610e30565b9150610ef382610eb4565b600c82019050919050565b5f610f0882610e62565b9150610f148285610e84565b9150610f1f82610edc565b9150610f2b8284610e84565b91508190509392505050565b7f4e487b71000000000000000000000000000000000000000000000000000000005f52603260045260245ffd5b7f4e487b71000000000000000000000000000000000000000000000000000000005f52601160045260245ffd5b5f610f9b82610aa1565b9150610fa683610aa1565b9250828202610fb481610aa1565b91508282048414831517610fcb57610fca610f64565b5b5092915050565b5f610fdc82610aa1565b9150610fe783610aa1565b9250828201905080821115610fff57610ffe610f64565b5b92915050565b5f61100f82610aa1565b91507fffffffffffffffffffffffffffffffffffffffffffffffffffffffffffffffff820361104157611040610f64565b5b600182019050919050565b7f4e487b71000000000000000000000000000000000000000000000000000000005f52601260045260245ffd5b5f61108382610aa1565b915061108e83610aa1565b92508261109e5761109d61104c565b5b828204905092915050565b5f6110b382610aa1565b91506110be83610aa1565b9250826110ce576110cd61104c565b5b828206905092915050565b5f6110e382610aa1565b91505f82036110f5576110f4610f64565b5b60018203905091905056fea264697066735822122065ea099417702efee2f5a9de4094cf1dedbbf0a8930454b890e82ea14245be0564736f6c634300081a0033",
					"opcodes": "PUSH1 0x80 PUSH1 0x40 MSTORE CALLVALUE DUP1 ISZERO PUSH2 0xF JUMPI PUSH0 DUP1 REVERT JUMPDEST POP CALLER PUSH0 PUSH20 0xFFFFFFFFFFFFFFFFFFFFFFFFFFFFFFFFFFFFFFFF AND DUP2 PUSH20 0xFFFFFFFFFFFFFFFFFFFFFFFFFFFFFFFFFFFFFFFF AND SUB PUSH2 0x81 JUMPI PUSH0 PUSH1 0x40 MLOAD PUSH32 0x1E4FBDF700000000000000000000000000000000000000000000000000000000 DUP2 MSTORE PUSH1 0x4 ADD PUSH2 0x78 SWAP2 SWAP1 PUSH2 0x196 JUMP JUMPDEST PUSH1 0x40 MLOAD DUP1 SWAP2 SUB SWAP1 REVERT JUMPDEST PUSH2 0x90 DUP2 PUSH2 0x96 PUSH1 0x20 SHL PUSH1 0x20 SHR JUMP JUMPDEST POP PUSH2 0x1AF JUMP JUMPDEST PUSH0 DUP1 PUSH0 SWAP1 SLOAD SWAP1 PUSH2 0x100 EXP SWAP1 DIV PUSH20 0xFFFFFFFFFFFFFFFFFFFFFFFFFFFFFFFFFFFFFFFF AND SWAP1 POP DUP2 PUSH0 DUP1 PUSH2 0x100 EXP DUP2 SLOAD DUP2 PUSH20 0xFFFFFFFFFFFFFFFFFFFFFFFFFFFFFFFFFFFFFFFF MUL NOT AND SWAP1 DUP4 PUSH20 0xFFFFFFFFFFFFFFFFFFFFFFFFFFFFFFFFFFFFFFFF AND MUL OR SWAP1 SSTORE POP DUP2 PUSH20 0xFFFFFFFFFFFFFFFFFFFFFFFFFFFFFFFFFFFFFFFF AND DUP2 PUSH20 0xFFFFFFFFFFFFFFFFFFFFFFFFFFFFFFFFFFFFFFFF AND PUSH32 0x8BE0079C531659141344CD1FD0A4F28419497F9722A3DAAFE3B4186F6B6457E0 PUSH1 0x40 MLOAD PUSH1 0x40 MLOAD DUP1 SWAP2 SUB SWAP1 LOG3 POP POP JUMP JUMPDEST PUSH0 PUSH20 0xFFFFFFFFFFFFFFFFFFFFFFFFFFFFFFFFFFFFFFFF DUP3 AND SWAP1 POP SWAP2 SWAP1 POP JUMP JUMPDEST PUSH0 PUSH2 0x180 DUP3 PUSH2 0x157 JUMP JUMPDEST SWAP1 POP SWAP2 SWAP1 POP JUMP JUMPDEST PUSH2 0x190 DUP2 PUSH2 0x176 JUMP JUMPDEST DUP3 MSTORE POP POP JUMP JUMPDEST PUSH0 PUSH1 0x20 DUP3 ADD SWAP1 POP PUSH2 0x1A9 PUSH0 DUP4 ADD DUP5 PUSH2 0x187 JUMP JUMPDEST SWAP3 SWAP2 POP POP JUMP JUMPDEST PUSH2 0x1136 DUP1 PUSH2 0x1BC PUSH0 CODECOPY PUSH0 RETURN INVALID PUSH1 0x80 PUSH1 0x40 MSTORE CALLVALUE DUP1 ISZERO PUSH2 0xF JUMPI PUSH0 DUP1 REVERT JUMPDEST POP PUSH1 0x4 CALLDATASIZE LT PUSH2 0x60 JUMPI PUSH0 CALLDATALOAD PUSH1 0xE0 SHR DUP1 PUSH4 0x1A5D57E8 EQ PUSH2 0x64 JUMPI DUP1 PUSH4 0x3558D7BB EQ PUSH2 0x80 JUMPI DUP1 PUSH4 0x715018A6 EQ PUSH2 0xB0 JUMPI DUP1 PUSH4 0x8DA5CB5B EQ PUSH2 0xBA JUMPI DUP1 PUSH4 0xBBA77F4D EQ PUSH2 0xD8 JUMPI DUP1 PUSH4 0xF2FDE38B EQ PUSH2 0x108 JUMPI JUMPDEST PUSH0 DUP1 REVERT JUMPDEST PUSH2 0x7E PUSH1 0x4 DUP1 CALLDATASIZE SUB DUP2 ADD SWAP1 PUSH2 0x79 SWAP2 SWAP1 PUSH2 0x944 JUMP JUMPDEST PUSH2 0x124 JUMP JUMPDEST STOP JUMPDEST PUSH2 0x9A PUSH1 0x4 DUP1 CALLDATASIZE SUB DUP2 ADD SWAP1 PUSH2 0x95 SWAP2 SWAP1 PUSH2 0x99E JUMP JUMPDEST PUSH2 0x187 JUMP JUMPDEST PUSH1 0x40 MLOAD PUSH2 0xA7 SWAP2 SWAP1 PUSH2 0xA29 JUMP JUMPDEST PUSH1 0x40 MLOAD DUP1 SWAP2 SUB SWAP1 RETURN JUMPDEST PUSH2 0xB8 PUSH2 0x228 JUMP JUMPDEST STOP JUMPDEST PUSH2 0xC2 PUSH2 0x23B JUMP JUMPDEST PUSH1 0x40 MLOAD PUSH2 0xCF SWAP2 SWAP1 PUSH2 0xA88 JUMP JUMPDEST PUSH1 0x40 MLOAD DUP1 SWAP2 SUB SWAP1 RETURN JUMPDEST PUSH2 0xF2 PUSH1 0x4 DUP1 CALLDATASIZE SUB DUP2 ADD SWAP1 PUSH2 0xED SWAP2 SWAP1 PUSH2 0xAD4 JUMP JUMPDEST PUSH2 0x262 JUMP JUMPDEST PUSH1 0x40 MLOAD PUSH2 0xFF SWAP2 SWAP1 PUSH2 0xA29 JUMP JUMPDEST PUSH1 0x40 MLOAD DUP1 SWAP2 SUB SWAP1 RETURN JUMPDEST PUSH2 0x122 PUSH1 0x4 DUP1 CALLDATASIZE SUB DUP2 ADD SWAP1 PUSH2 0x11D SWAP2 SWAP1 PUSH2 0xB3C JUMP JUMPDEST PUSH2 0x29E JUMP JUMPDEST STOP JUMPDEST PUSH2 0x12C PUSH2 0x322 JUMP JUMPDEST DUP1 PUSH1 0x1 PUSH0 DUP5 DUP2 MSTORE PUSH1 0x20 ADD SWAP1 DUP2 MSTORE PUSH1 0x20 ADD PUSH0 KECCAK256 SWAP1 DUP2 PUSH2 0x14A SWAP2 SWAP1 PUSH2 0xD61 JUMP JUMPDEST POP DUP2 PUSH32 0x1DC98EFAA85E02AD63B23676873E13FCAAD0693ADC42BBFFDF81EB4733003318 DUP3 PUSH1 0x40 MLOAD PUSH2 0x17B SWAP2 SWAP1 PUSH2 0xA29 JUMP JUMPDEST PUSH1 0x40 MLOAD DUP1 SWAP2 SUB SWAP1 LOG2 POP POP JUMP JUMPDEST PUSH1 0x60 PUSH1 0x1 PUSH0 DUP4 DUP2 MSTORE PUSH1 0x20 ADD SWAP1 DUP2 MSTORE PUSH1 0x20 ADD PUSH0 KECCAK256 DUP1 SLOAD PUSH2 0x1A5 SWAP1 PUSH2 0xB94 JUMP JUMPDEST DUP1 PUSH1 0x1F ADD PUSH1 0x20 DUP1 SWAP2 DIV MUL PUSH1 0x20 ADD PUSH1 0x40 MLOAD SWAP1 DUP2 ADD PUSH1 0x40 MSTORE DUP1 SWAP3 SWAP2 SWAP1 DUP2 DUP2 MSTORE PUSH1 0x20 ADD DUP3 DUP1 SLOAD PUSH2 0x1D1 SWAP1 PUSH2 0xB94 JUMP JUMPDEST DUP1 ISZERO PUSH2 0x21C JUMPI DUP1 PUSH1 0x1F LT PUSH2 0x1F3 JUMPI PUSH2 0x100 DUP1 DUP4 SLOAD DIV MUL DUP4 MSTORE SWAP2 PUSH1 0x20 ADD SWAP2 PUSH2 0x21C JUMP JUMPDEST DUP3 ADD SWAP2 SWAP1 PUSH0 MSTORE PUSH1 0x20 PUSH0 KECCAK256 SWAP1 JUMPDEST DUP2 SLOAD DUP2 MSTORE SWAP1 PUSH1 0x1 ADD SWAP1 PUSH1 0x20 ADD DUP1 DUP4 GT PUSH2 0x1FF JUMPI DUP3 SWAP1 SUB PUSH1 0x1F AND DUP3 ADD SWAP2 JUMPDEST POP POP POP POP POP SWAP1 POP SWAP2 SWAP1 POP JUMP JUMPDEST PUSH2 0x230 PUSH2 0x322 JUMP JUMPDEST PUSH2 0x239 PUSH0 PUSH2 0x3A9 JUMP JUMPDEST JUMP JUMPDEST PUSH0 DUP1 PUSH0 SWAP1 SLOAD SWAP1 PUSH2 0x100 EXP SWAP1 DIV PUSH20 0xFFFFFFFFFFFFFFFFFFFFFFFFFFFFFFFFFFFFFFFF AND SWAP1 POP SWAP1 JUMP JUMPDEST PUSH1 0x60 PUSH2 0x26D DUP4 PUSH2 0x46A JUMP JUMPDEST PUSH2 0x276 DUP4 PUSH2 0x65F JUMP JUMPDEST PUSH1 0x40 MLOAD PUSH1 0x20 ADD PUSH2 0x287 SWAP3 SWAP2 SWAP1 PUSH2 0xEFE JUMP JUMPDEST PUSH1 0x40 MLOAD PUSH1 0x20 DUP2 DUP4 SUB SUB DUP2 MSTORE SWAP1 PUSH1 0x40 MSTORE SWAP1 POP SWAP3 SWAP2 POP POP JUMP JUMPDEST PUSH2 0x2A6 PUSH2 0x322 JUMP JUMPDEST PUSH0 PUSH20 0xFFFFFFFFFFFFFFFFFFFFFFFFFFFFFFFFFFFFFFFF AND DUP2 PUSH20 0xFFFFFFFFFFFFFFFFFFFFFFFFFFFFFFFFFFFFFFFF AND SUB PUSH2 0x316 JUMPI PUSH0 PUSH1 0x40 MLOAD PUSH32 0x1E4FBDF700000000000000000000000000000000000000000000000000000000 DUP2 MSTORE PUSH1 0x4 ADD PUSH2 0x30D SWAP2 SWAP1 PUSH2 0xA88 JUMP JUMPDEST PUSH1 0x40 MLOAD DUP1 SWAP2 SUB SWAP1 REVERT JUMPDEST PUSH2 0x31F DUP2 PUSH2 0x3A9 JUMP JUMPDEST POP JUMP JUMPDEST PUSH2 0x32A PUSH2 0x7BD JUMP JUMPDEST PUSH20 0xFFFFFFFFFFFFFFFFFFFFFFFFFFFFFFFFFFFFFFFF AND PUSH2 0x348 PUSH2 0x23B JUMP JUMPDEST PUSH20 0xFFFFFFFFFFFFFFFFFFFFFFFFFFFFFFFFFFFFFFFF AND EQ PUSH2 0x3A7 JUMPI PUSH2 0x36B PUSH2 0x7BD JUMP JUMPDEST PUSH1 0x40 MLOAD PUSH32 0x118CDAA700000000000000000000000000000000000000000000000000000000 DUP2 MSTORE PUSH1 0x4 ADD PUSH2 0x39E SWAP2 SWAP1 PUSH2 0xA88 JUMP JUMPDEST PUSH1 0x40 MLOAD DUP1 SWAP2 SUB SWAP1 REVERT JUMPDEST JUMP JUMPDEST PUSH0 DUP1 PUSH0 SWAP1 SLOAD SWAP1 PUSH2 0x100 EXP SWAP1 DIV PUSH20 0xFFFFFFFFFFFFFFFFFFFFFFFFFFFFFFFFFFFFFFFF AND SWAP1 POP DUP2 PUSH0 DUP1 PUSH2 0x100 EXP DUP2 SLOAD DUP2 PUSH20 0xFFFFFFFFFFFFFFFFFFFFFFFFFFFFFFFFFFFFFFFF MUL NOT AND SWAP1 DUP4 PUSH20 0xFFFFFFFFFFFFFFFFFFFFFFFFFFFFFFFFFFFFFFFF AND MUL OR SWAP1 SSTORE POP DUP2 PUSH20 0xFFFFFFFFFFFFFFFFFFFFFFFFFFFFFFFFFFFFFFFF AND DUP2 PUSH20 0xFFFFFFFFFFFFFFFFFFFFFFFFFFFFFFFFFFFFFFFF AND PUSH32 0x8BE0079C531659141344CD1FD0A4F28419497F9722A3DAAFE3B4186F6B6457E0 PUSH1 0x40 MLOAD PUSH1 0x40 MLOAD DUP1 SWAP2 SUB SWAP1 LOG3 POP POP JUMP JUMPDEST PUSH1 0x60 PUSH0 PUSH1 0x40 MLOAD DUP1 PUSH1 0x40 ADD PUSH1 0x40 MSTORE DUP1 PUSH1 0x10 DUP2 MSTORE PUSH1 0x20 ADD PUSH32 0x3031323334353637383961626364656600000000000000000000000000000000 DUP2 MSTORE POP SWAP1 POP PUSH0 PUSH1 0x40 PUSH8 0xFFFFFFFFFFFFFFFF DUP2 GT ISZERO PUSH2 0x4C1 JUMPI PUSH2 0x4C0 PUSH2 0x820 JUMP JUMPDEST JUMPDEST PUSH1 0x40 MLOAD SWAP1 DUP1 DUP3 MSTORE DUP1 PUSH1 0x1F ADD PUSH1 0x1F NOT AND PUSH1 0x20 ADD DUP3 ADD PUSH1 0x40 MSTORE DUP1 ISZERO PUSH2 0x4F3 JUMPI DUP2 PUSH1 0x20 ADD PUSH1 0x1 DUP3 MUL DUP1 CALLDATASIZE DUP4 CALLDATACOPY DUP1 DUP3 ADD SWAP2 POP POP SWAP1 POP JUMPDEST POP SWAP1 POP PUSH0 JUMPDEST PUSH1 0x20 DUP2 LT ISZERO PUSH2 0x654 JUMPI DUP3 PUSH1 0x4 DUP7 DUP4 PUSH1 0x20 DUP2 LT PUSH2 0x517 JUMPI PUSH2 0x516 PUSH2 0xF37 JUMP JUMPDEST JUMPDEST BYTE PUSH1 0xF8 SHL PUSH31 0xFFFFFFFFFFFFFFFFFFFFFFFFFFFFFFFFFFFFFFFFFFFFFFFFFFFFFFFFFFFFFF NOT AND SWAP1 SHR PUSH1 0xF8 SHR PUSH1 0xFF AND DUP2 MLOAD DUP2 LT PUSH2 0x556 JUMPI PUSH2 0x555 PUSH2 0xF37 JUMP JUMPDEST JUMPDEST PUSH1 0x20 ADD ADD MLOAD PUSH1 0xF8 SHR PUSH1 0xF8 SHL DUP3 PUSH1 0x2 DUP4 PUSH2 0x56F SWAP2 SWAP1 PUSH2 0xF91 JUMP JUMPDEST DUP2 MLOAD DUP2 LT PUSH2 0x580 JUMPI PUSH2 0x57F PUSH2 0xF37 JUMP JUMPDEST JUMPDEST PUSH1 0x20 ADD ADD SWAP1 PUSH31 0xFFFFFFFFFFFFFFFFFFFFFFFFFFFFFFFFFFFFFFFFFFFFFFFFFFFFFFFFFFFFFF NOT AND SWAP1 DUP2 PUSH0 BYTE SWAP1 MSTORE8 POP DUP3 PUSH1 0xF PUSH1 0xF8 SHL DUP7 DUP4 PUSH1 0x20 DUP2 LT PUSH2 0x5C7 JUMPI PUSH2 0x5C6 PUSH2 0xF37 JUMP JUMPDEST JUMPDEST BYTE PUSH1 0xF8 SHL AND PUSH1 0xF8 SHR PUSH1 0xFF AND DUP2 MLOAD DUP2 LT PUSH2 0x5E3 JUMPI PUSH2 0x5E2 PUSH2 0xF37 JUMP JUMPDEST JUMPDEST PUSH1 0x20 ADD ADD MLOAD PUSH1 0xF8 SHR PUSH1 0xF8 SHL DUP3 PUSH1 0x1 PUSH1 0x2 DUP5 PUSH2 0x5FE SWAP2 SWAP1 PUSH2 0xF91 JUMP JUMPDEST PUSH2 0x608 SWAP2 SWAP1 PUSH2 0xFD2 JUMP JUMPDEST DUP2 MLOAD DUP2 LT PUSH2 0x619 JUMPI PUSH2 0x618 PUSH2 0xF37 JUMP JUMPDEST JUMPDEST PUSH1 0x20 ADD ADD SWAP1 PUSH31 0xFFFFFFFFFFFFFFFFFFFFFFFFFFFFFFFFFFFFFFFFFFFFFFFFFFFFFFFFFFFFFF NOT AND SWAP1 DUP2 PUSH0 BYTE SWAP1 MSTORE8 POP DUP1 DUP1 PUSH1 0x1 ADD SWAP2 POP POP PUSH2 0x4F8 JUMP JUMPDEST POP DUP1 SWAP3 POP POP POP SWAP2 SWAP1 POP JUMP JUMPDEST PUSH1 0x60 PUSH0 DUP3 SUB PUSH2 0x6A5 JUMPI PUSH1 0x40 MLOAD DUP1 PUSH1 0x40 ADD PUSH1 0x40 MSTORE DUP1 PUSH1 0x1 DUP2 MSTORE PUSH1 0x20 ADD PUSH32 0x3000000000000000000000000000000000000000000000000000000000000000 DUP2 MSTORE POP SWAP1 POP PUSH2 0x7B8 JUMP JUMPDEST PUSH0 DUP3 SWAP1 POP PUSH0 JUMPDEST PUSH0 DUP3 EQ PUSH2 0x6D4 JUMPI DUP1 DUP1 PUSH2 0x6BD SWAP1 PUSH2 0x1005 JUMP JUMPDEST SWAP2 POP POP PUSH1 0xA DUP3 PUSH2 0x6CD SWAP2 SWAP1 PUSH2 0x1079 JUMP JUMPDEST SWAP2 POP PUSH2 0x6AB JUMP JUMPDEST PUSH0 DUP2 PUSH8 0xFFFFFFFFFFFFFFFF DUP2 GT ISZERO PUSH2 0x6EF JUMPI PUSH2 0x6EE PUSH2 0x820 JUMP JUMPDEST JUMPDEST PUSH1 0x40 MLOAD SWAP1 DUP1 DUP3 MSTORE DUP1 PUSH1 0x1F ADD PUSH1 0x1F NOT AND PUSH1 0x20 ADD DUP3 ADD PUSH1 0x40 MSTORE DUP1 ISZERO PUSH2 0x721 JUMPI DUP2 PUSH1 0x20 ADD PUSH1 0x1 DUP3 MUL DUP1 CALLDATASIZE DUP4 CALLDATACOPY DUP1 DUP3 ADD SWAP2 POP POP SWAP1 POP JUMPDEST POP SWAP1 POP PUSH0 DUP3 SWAP1 POP DUP6 SWAP4 POP JUMPDEST PUSH0 DUP5 EQ PUSH2 0x7B0 JUMPI PUSH1 0xA DUP5 PUSH2 0x740 SWAP2 SWAP1 PUSH2 0x10A9 JUMP JUMPDEST PUSH1 0x30 PUSH2 0x74C SWAP2 SWAP1 PUSH2 0xFD2 JUMP JUMPDEST PUSH1 0xF8 SHL DUP3 DUP3 PUSH2 0x75A SWAP1 PUSH2 0x10D9 JUMP JUMPDEST SWAP3 POP DUP3 DUP2 MLOAD DUP2 LT PUSH2 0x76E JUMPI PUSH2 0x76D PUSH2 0xF37 JUMP JUMPDEST JUMPDEST PUSH1 0x20 ADD ADD SWAP1 PUSH31 0xFFFFFFFFFFFFFFFFFFFFFFFFFFFFFFFFFFFFFFFFFFFFFFFFFFFFFFFFFFFFFF NOT AND SWAP1 DUP2 PUSH0 BYTE SWAP1 MSTORE8 POP PUSH1 0xA DUP5 PUSH2 0x7A9 SWAP2 SWAP1 PUSH2 0x1079 JUMP JUMPDEST SWAP4 POP PUSH2 0x72C JUMP JUMPDEST DUP2 SWAP5 POP POP POP POP POP JUMPDEST SWAP2 SWAP1 POP JUMP JUMPDEST PUSH0 CALLER SWAP1 POP SWAP1 JUMP JUMPDEST PUSH0 PUSH1 0x40 MLOAD SWAP1 POP SWAP1 JUMP JUMPDEST PUSH0 DUP1 REVERT JUMPDEST PUSH0 DUP1 REVERT JUMPDEST PUSH0 DUP2 SWAP1 POP SWAP2 SWAP1 POP JUMP JUMPDEST PUSH2 0x7E7 DUP2 PUSH2 0x7D5 JUMP JUMPDEST DUP2 EQ PUSH2 0x7F1 JUMPI PUSH0 DUP1 REVERT JUMPDEST POP JUMP JUMPDEST PUSH0 DUP2 CALLDATALOAD SWAP1 POP PUSH2 0x802 DUP2 PUSH2 0x7DE JUMP JUMPDEST SWAP3 SWAP2 POP POP JUMP JUMPDEST PUSH0 DUP1 REVERT JUMPDEST PUSH0 DUP1 REVERT JUMPDEST PUSH0 PUSH1 0x1F NOT PUSH1 0x1F DUP4 ADD AND SWAP1 POP SWAP2 SWAP1 POP JUMP JUMPDEST PUSH32 0x4E487B7100000000000000000000000000000000000000000000000000000000 PUSH0 MSTORE PUSH1 0x41 PUSH1 0x4 MSTORE PUSH1 0x24 PUSH0 REVERT JUMPDEST PUSH2 0x856 DUP3 PUSH2 0x810 JUMP JUMPDEST DUP2 ADD DUP2 DUP2 LT PUSH8 0xFFFFFFFFFFFFFFFF DUP3 GT OR ISZERO PUSH2 0x875 JUMPI PUSH2 0x874 PUSH2 0x820 JUMP JUMPDEST JUMPDEST DUP1 PUSH1 0x40 MSTORE POP POP POP JUMP JUMPDEST PUSH0 PUSH2 0x887 PUSH2 0x7C4 JUMP JUMPDEST SWAP1 POP PUSH2 0x893 DUP3 DUP3 PUSH2 0x84D JUMP JUMPDEST SWAP2 SWAP1 POP JUMP JUMPDEST PUSH0 PUSH8 0xFFFFFFFFFFFFFFFF DUP3 GT ISZERO PUSH2 0x8B2 JUMPI PUSH2 0x8B1 PUSH2 0x820 JUMP JUMPDEST JUMPDEST PUSH2 0x8BB DUP3 PUSH2 0x810 JUMP JUMPDEST SWAP1 POP PUSH1 0x20 DUP2 ADD SWAP1 POP SWAP2 SWAP1 POP JUMP JUMPDEST DUP3 DUP2 DUP4 CALLDATACOPY PUSH0 DUP4 DUP4 ADD MSTORE POP POP POP JUMP JUMPDEST PUSH0 PUSH2 0x8E8 PUSH2 0x8E3 DUP5 PUSH2 0x898 JUMP JUMPDEST PUSH2 0x87E JUMP JUMPDEST SWAP1 POP DUP3 DUP2 MSTORE PUSH1 0x20 DUP2 ADD DUP5 DUP5 DUP5 ADD GT ISZERO PUSH2 0x904 JUMPI PUSH2 0x903 PUSH2 0x80C JUMP JUMPDEST JUMPDEST PUSH2 0x90F DUP5 DUP3 DUP6 PUSH2 0x8C8 JUMP JUMPDEST POP SWAP4 SWAP3 POP POP POP JUMP JUMPDEST PUSH0 DUP3 PUSH1 0x1F DUP4 ADD SLT PUSH2 0x92B JUMPI PUSH2 0x92A PUSH2 0x808 JUMP JUMPDEST JUMPDEST DUP2 CALLDATALOAD PUSH2 0x93B DUP5 DUP3 PUSH1 0x20 DUP7 ADD PUSH2 0x8D6 JUMP JUMPDEST SWAP2 POP POP SWAP3 SWAP2 POP POP JUMP JUMPDEST PUSH0 DUP1 PUSH1 0x40 DUP4 DUP6 SUB SLT ISZERO PUSH2 0x95A JUMPI PUSH2 0x959 PUSH2 0x7CD JUMP JUMPDEST JUMPDEST PUSH0 PUSH2 0x967 DUP6 DUP3 DUP7 ADD PUSH2 0x7F4 JUMP JUMPDEST SWAP3 POP POP PUSH1 0x20 DUP4 ADD CALLDATALOAD PUSH8 0xFFFFFFFFFFFFFFFF DUP2 GT ISZERO PUSH2 0x988 JUMPI PUSH2 0x987 PUSH2 0x7D1 JUMP JUMPDEST JUMPDEST PUSH2 0x994 DUP6 DUP3 DUP7 ADD PUSH2 0x917 JUMP JUMPDEST SWAP2 POP POP SWAP3 POP SWAP3 SWAP1 POP JUMP JUMPDEST PUSH0 PUSH1 0x20 DUP3 DUP5 SUB SLT ISZERO PUSH2 0x9B3 JUMPI PUSH2 0x9B2 PUSH2 0x7CD JUMP JUMPDEST JUMPDEST PUSH0 PUSH2 0x9C0 DUP5 DUP3 DUP6 ADD PUSH2 0x7F4 JUMP JUMPDEST SWAP2 POP POP SWAP3 SWAP2 POP POP JUMP JUMPDEST PUSH0 DUP2 MLOAD SWAP1 POP SWAP2 SWAP1 POP JUMP JUMPDEST PUSH0 DUP3 DUP3 MSTORE PUSH1 0x20 DUP3 ADD SWAP1 POP SWAP3 SWAP2 POP POP JUMP JUMPDEST DUP3 DUP2 DUP4 MCOPY PUSH0 DUP4 DUP4 ADD MSTORE POP POP POP JUMP JUMPDEST PUSH0 PUSH2 0x9FB DUP3 PUSH2 0x9C9 JUMP JUMPDEST PUSH2 0xA05 DUP2 DUP6 PUSH2 0x9D3 JUMP JUMPDEST SWAP4 POP PUSH2 0xA15 DUP2 DUP6 PUSH1 0x20 DUP7 ADD PUSH2 0x9E3 JUMP JUMPDEST PUSH2 0xA1E DUP2 PUSH2 0x810 JUMP JUMPDEST DUP5 ADD SWAP2 POP POP SWAP3 SWAP2 POP POP JUMP JUMPDEST PUSH0 PUSH1 0x20 DUP3 ADD SWAP1 POP DUP2 DUP2 SUB PUSH0 DUP4 ADD MSTORE PUSH2 0xA41 DUP2 DUP5 PUSH2 0x9F1 JUMP JUMPDEST SWAP1 POP SWAP3 SWAP2 POP POP JUMP JUMPDEST PUSH0 PUSH20 0xFFFFFFFFFFFFFFFFFFFFFFFFFFFFFFFFFFFFFFFF DUP3 AND SWAP1 POP SWAP2 SWAP1 POP JUMP JUMPDEST PUSH0 PUSH2 0xA72 DUP3 PUSH2 0xA49 JUMP JUMPDEST SWAP1 POP SWAP2 SWAP1 POP JUMP JUMPDEST PUSH2 0xA82 DUP2 PUSH2 0xA68 JUMP JUMPDEST DUP3 MSTORE POP POP JUMP JUMPDEST PUSH0 PUSH1 0x20 DUP3 ADD SWAP1 POP PUSH2 0xA9B PUSH0 DUP4 ADD DUP5 PUSH2 0xA79 JUMP JUMPDEST SWAP3 SWAP2 POP POP JUMP JUMPDEST PUSH0 DUP2 SWAP1 POP SWAP2 SWAP1 POP JUMP JUMPDEST PUSH2 0xAB3 DUP2 PUSH2 0xAA1 JUMP JUMPDEST DUP2 EQ PUSH2 0xABD JUMPI PUSH0 DUP1 REVERT JUMPDEST POP JUMP JUMPDEST PUSH0 DUP2 CALLDATALOAD SWAP1 POP PUSH2 0xACE DUP2 PUSH2 0xAAA JUMP JUMPDEST SWAP3 SWAP2 POP POP JUMP JUMPDEST PUSH0 DUP1 PUSH1 0x40 DUP4 DUP6 SUB SLT ISZERO PUSH2 0xAEA JUMPI PUSH2 0xAE9 PUSH2 0x7CD JUMP JUMPDEST JUMPDEST PUSH0 PUSH2 0xAF7 DUP6 DUP3 DUP7 ADD PUSH2 0x7F4 JUMP JUMPDEST SWAP3 POP POP PUSH1 0x20 PUSH2 0xB08 DUP6 DUP3 DUP7 ADD PUSH2 0xAC0 JUMP JUMPDEST SWAP2 POP POP SWAP3 POP SWAP3 SWAP1 POP JUMP JUMPDEST PUSH2 0xB1B DUP2 PUSH2 0xA68 JUMP JUMPDEST DUP2 EQ PUSH2 0xB25 JUMPI PUSH0 DUP1 REVERT JUMPDEST POP JUMP JUMPDEST PUSH0 DUP2 CALLDATALOAD SWAP1 POP PUSH2 0xB36 DUP2 PUSH2 0xB12 JUMP JUMPDEST SWAP3 SWAP2 POP POP JUMP JUMPDEST PUSH0 PUSH1 0x20 DUP3 DUP5 SUB SLT ISZERO PUSH2 0xB51 JUMPI PUSH2 0xB50 PUSH2 0x7CD JUMP JUMPDEST JUMPDEST PUSH0 PUSH2 0xB5E DUP5 DUP3 DUP6 ADD PUSH2 0xB28 JUMP JUMPDEST SWAP2 POP POP SWAP3 SWAP2 POP POP JUMP JUMPDEST PUSH32 0x4E487B7100000000000000000000000000000000000000000000000000000000 PUSH0 MSTORE PUSH1 0x22 PUSH1 0x4 MSTORE PUSH1 0x24 PUSH0 REVERT JUMPDEST PUSH0 PUSH1 0x2 DUP3 DIV SWAP1 POP PUSH1 0x1 DUP3 AND DUP1 PUSH2 0xBAB JUMPI PUSH1 0x7F DUP3 AND SWAP2 POP JUMPDEST PUSH1 0x20 DUP3 LT DUP2 SUB PUSH2 0xBBE JUMPI PUSH2 0xBBD PUSH2 0xB67 JUMP JUMPDEST JUMPDEST POP SWAP2 SWAP1 POP JUMP JUMPDEST PUSH0 DUP2 SWAP1 POP DUP2 PUSH0 MSTORE PUSH1 0x20 PUSH0 KECCAK256 SWAP1 POP SWAP2 SWAP1 POP JUMP JUMPDEST PUSH0 PUSH1 0x20 PUSH1 0x1F DUP4 ADD DIV SWAP1 POP SWAP2 SWAP1 POP JUMP JUMPDEST PUSH0 DUP3 DUP3 SHL SWAP1 POP SWAP3 SWAP2 POP POP JUMP JUMPDEST PUSH0 PUSH1 0x8 DUP4 MUL PUSH2 0xC20 PUSH32 0xFFFFFFFFFFFFFFFFFFFFFFFFFFFFFFFFFFFFFFFFFFFFFFFFFFFFFFFFFFFFFFFF DUP3 PUSH2 0xBE5 JUMP JUMPDEST PUSH2 0xC2A DUP7 DUP4 PUSH2 0xBE5 JUMP JUMPDEST SWAP6 POP DUP1 NOT DUP5 AND SWAP4 POP DUP1 DUP7 AND DUP5 OR SWAP3 POP POP POP SWAP4 SWAP3 POP POP POP JUMP JUMPDEST PUSH0 DUP2 SWAP1 POP SWAP2 SWAP1 POP JUMP JUMPDEST PUSH0 PUSH2 0xC65 PUSH2 0xC60 PUSH2 0xC5B DUP5 PUSH2 0xAA1 JUMP JUMPDEST PUSH2 0xC42 JUMP JUMPDEST PUSH2 0xAA1 JUMP JUMPDEST SWAP1 POP SWAP2 SWAP1 POP JUMP JUMPDEST PUSH0 DUP2 SWAP1 POP SWAP2 SWAP1 POP JUMP JUMPDEST PUSH2 0xC7E DUP4 PUSH2 0xC4B JUMP JUMPDEST PUSH2 0xC92 PUSH2 0xC8A DUP3 PUSH2 0xC6C JUMP JUMPDEST DUP5 DUP5 SLOAD PUSH2 0xBF1 JUMP JUMPDEST DUP3 SSTORE POP POP POP POP JUMP JUMPDEST PUSH0 SWAP1 JUMP JUMPDEST PUSH2 0xCA6 PUSH2 0xC9A JUMP JUMPDEST PUSH2 0xCB1 DUP2 DUP5 DUP5 PUSH2 0xC75 JUMP JUMPDEST POP POP POP JUMP JUMPDEST JUMPDEST DUP2 DUP2 LT ISZERO PUSH2 0xCD4 JUMPI PUSH2 0xCC9 PUSH0 DUP3 PUSH2 0xC9E JUMP JUMPDEST PUSH1 0x1 DUP2 ADD SWAP1 POP PUSH2 0xCB7 JUMP JUMPDEST POP POP JUMP JUMPDEST PUSH1 0x1F DUP3 GT ISZERO PUSH2 0xD19 JUMPI PUSH2 0xCEA DUP2 PUSH2 0xBC4 JUMP JUMPDEST PUSH2 0xCF3 DUP5 PUSH2 0xBD6 JUMP JUMPDEST DUP2 ADD PUSH1 0x20 DUP6 LT ISZERO PUSH2 0xD02 JUMPI DUP2 SWAP1 POP JUMPDEST PUSH2 0xD16 PUSH2 0xD0E DUP6 PUSH2 0xBD6 JUMP JUMPDEST DUP4 ADD DUP3 PUSH2 0xCB6 JUMP JUMPDEST POP POP JUMPDEST POP POP POP JUMP JUMPDEST PUSH0 DUP3 DUP3 SHR SWAP1 POP SWAP3 SWAP2 POP POP JUMP JUMPDEST PUSH0 PUSH2 0xD39 PUSH0 NOT DUP5 PUSH1 0x8 MUL PUSH2 0xD1E JUMP JUMPDEST NOT DUP1 DUP4 AND SWAP2 POP POP SWAP3 SWAP2 POP POP JUMP JUMPDEST PUSH0 PUSH2 0xD51 DUP4 DUP4 PUSH2 0xD2A JUMP JUMPDEST SWAP2 POP DUP3 PUSH1 0x2 MUL DUP3 OR SWAP1 POP SWAP3 SWAP2 POP POP JUMP JUMPDEST PUSH2 0xD6A DUP3 PUSH2 0x9C9 JUMP JUMPDEST PUSH8 0xFFFFFFFFFFFFFFFF DUP2 GT ISZERO PUSH2 0xD83 JUMPI PUSH2 0xD82 PUSH2 0x820 JUMP JUMPDEST JUMPDEST PUSH2 0xD8D DUP3 SLOAD PUSH2 0xB94 JUMP JUMPDEST PUSH2 0xD98 DUP3 DUP3 DUP6 PUSH2 0xCD8 JUMP JUMPDEST PUSH0 PUSH1 0x20 SWAP1 POP PUSH1 0x1F DUP4 GT PUSH1 0x1 DUP2 EQ PUSH2 0xDC9 JUMPI PUSH0 DUP5 ISZERO PUSH2 0xDB7 JUMPI DUP3 DUP8 ADD MLOAD SWAP1 POP JUMPDEST PUSH2 0xDC1 DUP6 DUP3 PUSH2 0xD46 JUMP JUMPDEST DUP7 SSTORE POP PUSH2 0xE28 JUMP JUMPDEST PUSH1 0x1F NOT DUP5 AND PUSH2 0xDD7 DUP7 PUSH2 0xBC4 JUMP JUMPDEST PUSH0 JUMPDEST DUP3 DUP2 LT ISZERO PUSH2 0xDFE JUMPI DUP5 DUP10 ADD MLOAD DUP3 SSTORE PUSH1 0x1 DUP3 ADD SWAP2 POP PUSH1 0x20 DUP6 ADD SWAP5 POP PUSH1 0x20 DUP2 ADD SWAP1 POP PUSH2 0xDD9 JUMP JUMPDEST DUP7 DUP4 LT ISZERO PUSH2 0xE1B JUMPI DUP5 DUP10 ADD MLOAD PUSH2 0xE17 PUSH1 0x1F DUP10 AND DUP3 PUSH2 0xD2A JUMP JUMPDEST DUP4 SSTORE POP JUMPDEST PUSH1 0x1 PUSH1 0x2 DUP9 MUL ADD DUP9 SSTORE POP POP POP JUMPDEST POP POP POP POP POP POP JUMP JUMPDEST PUSH0 DUP2 SWAP1 POP SWAP3 SWAP2 POP POP JUMP JUMPDEST PUSH32 0x6D61676E65743A3F78743D75726E3A627469683A000000000000000000000000 PUSH0 DUP3 ADD MSTORE POP JUMP JUMPDEST PUSH0 PUSH2 0xE6E PUSH1 0x14 DUP4 PUSH2 0xE30 JUMP JUMPDEST SWAP2 POP PUSH2 0xE79 DUP3 PUSH2 0xE3A JUMP JUMPDEST PUSH1 0x14 DUP3 ADD SWAP1 POP SWAP2 SWAP1 POP JUMP JUMPDEST PUSH0 PUSH2 0xE8E DUP3 PUSH2 0x9C9 JUMP JUMPDEST PUSH2 0xE98 DUP2 DUP6 PUSH2 0xE30 JUMP JUMPDEST SWAP4 POP PUSH2 0xEA8 DUP2 DUP6 PUSH1 0x20 DUP7 ADD PUSH2 0x9E3 JUMP JUMPDEST DUP1 DUP5 ADD SWAP2 POP POP SWAP3 SWAP2 POP POP JUMP JUMPDEST PUSH32 0x26646E3D46696C6526786C3D0000000000000000000000000000000000000000 PUSH0 DUP3 ADD MSTORE POP JUMP JUMPDEST PUSH0 PUSH2 0xEE8 PUSH1 0xC DUP4 PUSH2 0xE30 JUMP JUMPDEST SWAP2 POP PUSH2 0xEF3 DUP3 PUSH2 0xEB4 JUMP JUMPDEST PUSH1 0xC DUP3 ADD SWAP1 POP SWAP2 SWAP1 POP JUMP JUMPDEST PUSH0 PUSH2 0xF08 DUP3 PUSH2 0xE62 JUMP JUMPDEST SWAP2 POP PUSH2 0xF14 DUP3 DUP6 PUSH2 0xE84 JUMP JUMPDEST SWAP2 POP PUSH2 0xF1F DUP3 PUSH2 0xEDC JUMP JUMPDEST SWAP2 POP PUSH2 0xF2B DUP3 DUP5 PUSH2 0xE84 JUMP JUMPDEST SWAP2 POP DUP2 SWAP1 POP SWAP4 SWAP3 POP POP POP JUMP JUMPDEST PUSH32 0x4E487B7100000000000000000000000000000000000000000000000000000000 PUSH0 MSTORE PUSH1 0x32 PUSH1 0x4 MSTORE PUSH1 0x24 PUSH0 REVERT JUMPDEST PUSH32 0x4E487B7100000000000000000000000000000000000000000000000000000000 PUSH0 MSTORE PUSH1 0x11 PUSH1 0x4 MSTORE PUSH1 0x24 PUSH0 REVERT JUMPDEST PUSH0 PUSH2 0xF9B DUP3 PUSH2 0xAA1 JUMP JUMPDEST SWAP2 POP PUSH2 0xFA6 DUP4 PUSH2 0xAA1 JUMP JUMPDEST SWAP3 POP DUP3 DUP3 MUL PUSH2 0xFB4 DUP2 PUSH2 0xAA1 JUMP JUMPDEST SWAP2 POP DUP3 DUP3 DIV DUP5 EQ DUP4 ISZERO OR PUSH2 0xFCB JUMPI PUSH2 0xFCA PUSH2 0xF64 JUMP JUMPDEST JUMPDEST POP SWAP3 SWAP2 POP POP JUMP JUMPDEST PUSH0 PUSH2 0xFDC DUP3 PUSH2 0xAA1 JUMP JUMPDEST SWAP2 POP PUSH2 0xFE7 DUP4 PUSH2 0xAA1 JUMP JUMPDEST SWAP3 POP DUP3 DUP3 ADD SWAP1 POP DUP1 DUP3 GT ISZERO PUSH2 0xFFF JUMPI PUSH2 0xFFE PUSH2 0xF64 JUMP JUMPDEST JUMPDEST SWAP3 SWAP2 POP POP JUMP JUMPDEST PUSH0 PUSH2 0x100F DUP3 PUSH2 0xAA1 JUMP JUMPDEST SWAP2 POP PUSH32 0xFFFFFFFFFFFFFFFFFFFFFFFFFFFFFFFFFFFFFFFFFFFFFFFFFFFFFFFFFFFFFFFF DUP3 SUB PUSH2 0x1041 JUMPI PUSH2 0x1040 PUSH2 0xF64 JUMP JUMPDEST JUMPDEST PUSH1 0x1 DUP3 ADD SWAP1 POP SWAP2 SWAP1 POP JUMP JUMPDEST PUSH32 0x4E487B7100000000000000000000000000000000000000000000000000000000 PUSH0 MSTORE PUSH1 0x12 PUSH1 0x4 MSTORE PUSH1 0x24 PUSH0 REVERT JUMPDEST PUSH0 PUSH2 0x1083 DUP3 PUSH2 0xAA1 JUMP JUMPDEST SWAP2 POP PUSH2 0x108E DUP4 PUSH2 0xAA1 JUMP JUMPDEST SWAP3 POP DUP3 PUSH2 0x109E JUMPI PUSH2 0x109D PUSH2 0x104C JUMP JUMPDEST JUMPDEST DUP3 DUP3 DIV SWAP1 POP SWAP3 SWAP2 POP POP JUMP JUMPDEST PUSH0 PUSH2 0x10B3 DUP3 PUSH2 0xAA1 JUMP JUMPDEST SWAP2 POP PUSH2 0x10BE DUP4 PUSH2 0xAA1 JUMP JUMPDEST SWAP3 POP DUP3 PUSH2 0x10CE JUMPI PUSH2 0x10CD PUSH2 0x104C JUMP JUMPDEST JUMPDEST DUP3 DUP3 MOD SWAP1 POP SWAP3 SWAP2 POP POP JUMP JUMPDEST PUSH0 PUSH2 0x10E3 DUP3 PUSH2 0xAA1 JUMP JUMPDEST SWAP2 POP PUSH0 DUP3 SUB PUSH2 0x10F5 JUMPI PUSH2 0x10F4 PUSH2 0xF64 JUMP JUMPDEST JUMPDEST PUSH1 0x1 DUP3 SUB SWAP1 POP SWAP2 SWAP1 POP JUMP INVALID LOG2 PUSH5 0x6970667358 0x22 SLT KECCAK256 PUSH6 0xEA099417702E INVALID 0xE2 CREATE2 0xA9 0xDE BLOCKHASH SWAP5 0xCF SAR 0xED 0xBB CREATE 0xA8 SWAP4 DIV SLOAD 0xB8 SWAP1 0xE8 0x2E LOG1 TIMESTAMP GASLIMIT 0xBE SDIV PUSH5 0x736F6C6343 STOP ADDMOD BYTE STOP CALLER "
				},
				"gasEstimates": {
					"creation": {
						"codeDepositCost": "881200",
						"executionCost": "infinite",
						"totalCost": "infinite"
					},
					"external": {
						"generateMagnetLink(bytes32,uint256)": "infinite",
						"getMagnetLink(bytes32)": "infinite",
						"owner()": "2559",
						"renounceOwnership()": "infinite",
						"storeMagnetLink(bytes32,string)": "infinite",
						"transferOwnership(address)": "infinite"
					},
					"internal": {
						"toHexString(bytes32)": "infinite",
						"uint2str(uint256)": "infinite"
					}
				},
				"methodIdentifiers": {
					"generateMagnetLink(bytes32,uint256)": "bba77f4d",
					"getMagnetLink(bytes32)": "3558d7bb",
					"owner()": "8da5cb5b",
					"renounceOwnership()": "715018a6",
					"storeMagnetLink(bytes32,string)": "1a5d57e8",
					"transferOwnership(address)": "f2fde38b"
				}
			},
			"storageLayout": {
				"storage": [
					{
						"astId": 8,
						"contract": "bittorrent/BitTorrentIntegration.sol:BitTorrentIntegration",
						"label": "_owner",
						"offset": 0,
						"slot": "0",
						"type": "t_address"
					},
					{
						"astId": 194,
						"contract": "bittorrent/BitTorrentIntegration.sol:BitTorrentIntegration",
						"label": "magnetLinks",
						"offset": 0,
						"slot": "1",
						"type": "t_mapping(t_bytes32,t_string_storage)"
					}
				],
				"types": {
					"t_address": {
						"encoding": "inplace",
						"label": "address",
						"numberOfBytes": "20"
					},
					"t_bytes32": {
						"encoding": "inplace",
						"label": "bytes32",
						"numberOfBytes": "32"
					},
					"t_mapping(t_bytes32,t_string_storage)": {
						"encoding": "mapping",
						"key": "t_bytes32",
						"label": "mapping(bytes32 => string)",
						"numberOfBytes": "32",
						"value": "t_string_storage"
					},
					"t_string_storage": {
						"encoding": "bytes",
						"label": "string",
						"numberOfBytes": "32"
					}
				}
			},
			"userdoc": {
				"kind": "user",
				"methods": {},
				"version": 1
			}
		}
	}
}