{
	"data": {
		"bytecode": {
			"linkReferences": {},
			"object": "608060405234801561000f575f80fd5b5060405161233338038061233383398181016040528101906100319190610299565b5f60015f6101000a81548160ff02191690831515021790555060016002819055506100645f801b336100dc60201b60201c565b506100957f97667070c54ef182b0f5858b034beac1b6f3089aa2d3188bb1e8929f4fa9b929336100dc60201b60201c565b508060035f6101000a81548173ffffffffffffffffffffffffffffffffffffffff021916908373ffffffffffffffffffffffffffffffffffffffff160217905550506102c4565b5f6100ed83836101d160201b60201c565b6101c75760015f808581526020019081526020015f205f015f8473ffffffffffffffffffffffffffffffffffffffff1673ffffffffffffffffffffffffffffffffffffffff1681526020019081526020015f205f6101000a81548160ff02191690831515021790555061016461023460201b60201c565b73ffffffffffffffffffffffffffffffffffffffff168273ffffffffffffffffffffffffffffffffffffffff16847f2f8788117e7eff1d82e926ec794901d17c78024a50270940304540a733656f0d60405160405180910390a4600190506101cb565b5f90505b92915050565b5f805f8481526020019081526020015f205f015f8373ffffffffffffffffffffffffffffffffffffffff1673ffffffffffffffffffffffffffffffffffffffff1681526020019081526020015f205f9054906101000a900460ff16905092915050565b5f33905090565b5f80fd5b5f73ffffffffffffffffffffffffffffffffffffffff82169050919050565b5f6102688261023f565b9050919050565b6102788161025e565b8114610282575f80fd5b50565b5f815190506102938161026f565b92915050565b5f602082840312156102ae576102ad61023b565b5b5f6102bb84828501610285565b91505092915050565b612062806102d15f395ff3fe608060405234801561000f575f80fd5b506004361061012a575f3560e01c80638456cb59116100ab5780639a5e71c21161006f5780639a5e71c214610316578063a217fddf14610332578063c7aa2f1e14610350578063d547741f14610380578063f5b541a61461039c5761012a565b80638456cb591461028857806385a802651461029257806391d14854146102ae57806397ab3501146102de57806397fc007c146102fa5761012a565b806336568abe116100f257806336568abe146101f85780633d2babf2146102145780633f4ba83a146102445780635c975abb1461024e578063675fd3e61461026c5761012a565b806301ffc9a71461012e5780631a26edb51461015e578063248a9ca31461018e5780632b7ac3f3146101be5780632f2ff15d146101dc575b5f80fd5b610148600480360381019061014391906114d2565b6103ba565b6040516101559190611517565b60405180910390f35b61017860048036038101906101739190611563565b610433565b6040516101859190611675565b60405180910390f35b6101a860048036038101906101a39190611563565b6104cf565b6040516101b591906116a4565b60405180910390f35b6101c66104eb565b6040516101d39190611718565b60405180910390f35b6101f660048036038101906101f1919061175b565b610510565b005b610212600480360381019061020d919061175b565b610532565b005b61022e6004803603810190610229919061175b565b6105ad565b60405161023b9190611517565b60405180910390f35b61024c6105c0565b005b6102566105d7565b6040516102639190611517565b60405180910390f35b61028660048036038101906102819190611563565b6105ec565b005b6102906107c4565b005b6102ac60048036038101906102a791906118d5565b6107db565b005b6102c860048036038101906102c3919061175b565b6108fc565b6040516102d59190611517565b60405180910390f35b6102f860048036038101906102f39190611563565b61095f565b005b610314600480360381019061030f919061192f565b610a68565b005b610330600480360381019061032b9190611563565b610b26565b005b61033a610ddf565b60405161034791906116a4565b60405180910390f35b61036a60048036038101906103659190611563565b610de5565b60405161037791906119ba565b60405180910390f35b61039a6004803603810190610395919061175b565b610e86565b005b6103a4610ea8565b6040516103b191906116a4565b60405180910390f35b5f7f7965db0b000000000000000000000000000000000000000000000000000000007bffffffffffffffffffffffffffffffffffffffffffffffffffffffff1916827bffffffffffffffffffffffffffffffffffffffffffffffffffffffff1916148061042c575061042b82610ecc565b5b9050919050565b606060045f8381526020019081526020015f208054806020026020016040519081016040528092919081815260200182805480156104c357602002820191905f5260205f20905b815f9054906101000a900473ffffffffffffffffffffffffffffffffffffffff1673ffffffffffffffffffffffffffffffffffffffff168152602001906001019080831161047a575b50505050509050919050565b5f805f8381526020019081526020015f20600101549050919050565b60035f9054906101000a900473ffffffffffffffffffffffffffffffffffffffff1681565b610519826104cf565b61052281610f35565b61052c8383610f49565b50505050565b61053a611032565b73ffffffffffffffffffffffffffffffffffffffff168173ffffffffffffffffffffffffffffffffffffffff161461059e576040517f6697b23200000000000000000000000000000000000000000000000000000000815260040160405180910390fd5b6105a88282611039565b505050565b5f6105b88383611122565b905092915050565b5f801b6105cc81610f35565b6105d4611214565b50565b5f60015f9054906101000a900460ff16905090565b6105f4611275565b5f60065f8381526020019081526020015f20805461061190611a07565b905011610653576040517f08c379a000000000000000000000000000000000000000000000000000000000815260040161064a90611a91565b60405180910390fd5b61065d8133611122565b1561069d576040517f08c379a000000000000000000000000000000000000000000000000000000000815260040161069490611af9565b60405180910390fd5b60045f8281526020019081526020015f2033908060018154018082558091505060019003905f5260205f20015f9091909190916101000a81548173ffffffffffffffffffffffffffffffffffffffff021916908373ffffffffffffffffffffffffffffffffffffffff160217905550600160045f8381526020019081526020015f208054905061072d9190611b4d565b60055f8381526020019081526020015f205f3373ffffffffffffffffffffffffffffffffffffffff1673ffffffffffffffffffffffffffffffffffffffff1681526020019081526020015f20819055503373ffffffffffffffffffffffffffffffffffffffff16817fec632e7bcb76118db1317c4ffcba85e2ef4eed094130c81803854e6789e5f83960405160405180910390a350565b5f801b6107d081610f35565b6107d86112b6565b50565b6107e3611275565b6107eb611317565b5f60065f8481526020019081526020015f20805461080890611a07565b90501461084a576040517f08c379a000000000000000000000000000000000000000000000000000000000815260040161084190611bca565b60405180910390fd5b5f81511161088d576040517f08c379a000000000000000000000000000000000000000000000000000000000815260040161088490611c32565b60405180910390fd5b8060065f8481526020019081526020015f2090816108ab9190611de4565b503373ffffffffffffffffffffffffffffffffffffffff16827f1b29291c5edac9dd8411455da98ba119e7e2e93cadb5919c2c9a240f3eab658760405160405180910390a36108f861135b565b5050565b5f805f8481526020019081526020015f205f015f8373ffffffffffffffffffffffffffffffffffffffff1673ffffffffffffffffffffffffffffffffffffffff1681526020019081526020015f205f9054906101000a900460ff16905092915050565b7f97667070c54ef182b0f5858b034beac1b6f3089aa2d3188bb1e8929f4fa9b92961098981610f35565b5f60065f8481526020019081526020015f2080546109a690611a07565b9050116109e8576040517f08c379a00000000000000000000000000000000000000000000000000000000081526004016109df90611a91565b60405180910390fd5b60065f8381526020019081526020015f205f610a0491906113f6565b60045f8381526020019081526020015f205f610a209190611433565b3373ffffffffffffffffffffffffffffffffffffffff16827f426a554d14c27a8b40d14e65bab3a4d4ccf7f9c1f2dd26abde41eabaeb97247360405160405180910390a35050565b5f801b610a7481610f35565b5f73ffffffffffffffffffffffffffffffffffffffff168273ffffffffffffffffffffffffffffffffffffffff1603610ae2576040517f08c379a0000000000000000000000000000000000000000000000000000000008152600401610ad990611efd565b60405180910390fd5b8160035f6101000a81548173ffffffffffffffffffffffffffffffffffffffff021916908373ffffffffffffffffffffffffffffffffffffffff1602179055505050565b610b308133611122565b610b6f576040517f08c379a0000000000000000000000000000000000000000000000000000000008152600401610b6690611f65565b60405180910390fd5b5f60055f8381526020019081526020015f205f3373ffffffffffffffffffffffffffffffffffffffff1673ffffffffffffffffffffffffffffffffffffffff1681526020019081526020015f205490505f600160045f8581526020019081526020015f2080549050610be19190611b4d565b9050808214610cf4575f60045f8581526020019081526020015f208281548110610c0e57610c0d611f83565b5b905f5260205f20015f9054906101000a900473ffffffffffffffffffffffffffffffffffffffff1690508060045f8681526020019081526020015f208481548110610c5c57610c5b611f83565b5b905f5260205f20015f6101000a81548173ffffffffffffffffffffffffffffffffffffffff021916908373ffffffffffffffffffffffffffffffffffffffff1602179055508260055f8681526020019081526020015f205f8373ffffffffffffffffffffffffffffffffffffffff1673ffffffffffffffffffffffffffffffffffffffff1681526020019081526020015f2081905550505b60045f8481526020019081526020015f20805480610d1557610d14611fb0565b5b600190038181905f5260205f20015f6101000a81549073ffffffffffffffffffffffffffffffffffffffff0219169055905560055f8481526020019081526020015f205f3373ffffffffffffffffffffffffffffffffffffffff1673ffffffffffffffffffffffffffffffffffffffff1681526020019081526020015f205f90553373ffffffffffffffffffffffffffffffffffffffff16837fd6bdaf1e6ce0b30760d15e544dc3fcf5ade4568db6a7f95a10548f4b8c81eb5160405160405180910390a3505050565b5f801b81565b606060065f8381526020019081526020015f208054610e0390611a07565b80601f0160208091040260200160405190810160405280929190818152602001828054610e2f90611a07565b8015610e7a5780601f10610e5157610100808354040283529160200191610e7a565b820191905f5260205f20905b815481529060010190602001808311610e5d57829003601f168201915b50505050509050919050565b610e8f826104cf565b610e9881610f35565b610ea28383611039565b50505050565b7f97667070c54ef182b0f5858b034beac1b6f3089aa2d3188bb1e8929f4fa9b92981565b5f7f01ffc9a7000000000000000000000000000000000000000000000000000000007bffffffffffffffffffffffffffffffffffffffffffffffffffffffff1916827bffffffffffffffffffffffffffffffffffffffffffffffffffffffff1916149050919050565b610f4681610f41611032565b611365565b50565b5f610f5483836108fc565b6110285760015f808581526020019081526020015f205f015f8473ffffffffffffffffffffffffffffffffffffffff1673ffffffffffffffffffffffffffffffffffffffff1681526020019081526020015f205f6101000a81548160ff021916908315150217905550610fc5611032565b73ffffffffffffffffffffffffffffffffffffffff168273ffffffffffffffffffffffffffffffffffffffff16847f2f8788117e7eff1d82e926ec794901d17c78024a50270940304540a733656f0d60405160405180910390a46001905061102c565b5f90505b92915050565b5f33905090565b5f61104483836108fc565b15611118575f805f8581526020019081526020015f205f015f8473ffffffffffffffffffffffffffffffffffffffff1673ffffffffffffffffffffffffffffffffffffffff1681526020019081526020015f205f6101000a81548160ff0219169083151502179055506110b5611032565b73ffffffffffffffffffffffffffffffffffffffff168273ffffffffffffffffffffffffffffffffffffffff16847ff6391f5c32d9c69d2a47ea670b442974b53935d1edc7fd64eb21e047a839171b60405160405180910390a46001905061111c565b5f90505b92915050565b5f8060055f8581526020019081526020015f205f8473ffffffffffffffffffffffffffffffffffffffff1673ffffffffffffffffffffffffffffffffffffffff1681526020019081526020015f2054905060045f8581526020019081526020015f20805490508110801561120b57508273ffffffffffffffffffffffffffffffffffffffff1660045f8681526020019081526020015f2082815481106111cb576111ca611f83565b5b905f5260205f20015f9054906101000a900473ffffffffffffffffffffffffffffffffffffffff1673ffffffffffffffffffffffffffffffffffffffff16145b91505092915050565b61121c6113b6565b5f60015f6101000a81548160ff0219169083151502179055507f5db9ee0a495bf2e6ff9c91a7834c1ba4fdd244a5e8aa4e537bd38aeae4b073aa61125e611032565b60405161126b9190611fec565b60405180910390a1565b61127d6105d7565b156112b4576040517fd93c066500000000000000000000000000000000000000000000000000000000815260040160405180910390fd5b565b6112be611275565b6001805f6101000a81548160ff0219169083151502179055507f62e78cea01bee320cd4e420270b5ea74000d11b0c9f74754ebdbfc544b05a258611300611032565b60405161130d9190611fec565b60405180910390a1565b6002805403611352576040517f3ee5aeb500000000000000000000000000000000000000000000000000000000815260040160405180910390fd5b60028081905550565b6001600281905550565b61136f82826108fc565b6113b25780826040517fe2517d3f0000000000000000000000000000000000000000000000000000000081526004016113a9929190612005565b60405180910390fd5b5050565b6113be6105d7565b6113f4576040517f8dfc202b00000000000000000000000000000000000000000000000000000000815260040160405180910390fd5b565b50805461140290611a07565b5f825580601f106114135750611430565b601f0160209004905f5260205f209081019061142f9190611451565b5b50565b5080545f8255905f5260205f209081019061144e9190611451565b50565b5b80821115611468575f815f905550600101611452565b5090565b5f604051905090565b5f80fd5b5f80fd5b5f7fffffffff0000000000000000000000000000000000000000000000000000000082169050919050565b6114b18161147d565b81146114bb575f80fd5b50565b5f813590506114cc816114a8565b92915050565b5f602082840312156114e7576114e6611475565b5b5f6114f4848285016114be565b91505092915050565b5f8115159050919050565b611511816114fd565b82525050565b5f60208201905061152a5f830184611508565b92915050565b5f819050919050565b61154281611530565b811461154c575f80fd5b50565b5f8135905061155d81611539565b92915050565b5f6020828403121561157857611577611475565b5b5f6115858482850161154f565b91505092915050565b5f81519050919050565b5f82825260208201905092915050565b5f819050602082019050919050565b5f73ffffffffffffffffffffffffffffffffffffffff82169050919050565b5f6115e0826115b7565b9050919050565b6115f0816115d6565b82525050565b5f61160183836115e7565b60208301905092915050565b5f602082019050919050565b5f6116238261158e565b61162d8185611598565b9350611638836115a8565b805f5b8381101561166857815161164f88826115f6565b975061165a8361160d565b92505060018101905061163b565b5085935050505092915050565b5f6020820190508181035f83015261168d8184611619565b905092915050565b61169e81611530565b82525050565b5f6020820190506116b75f830184611695565b92915050565b5f819050919050565b5f6116e06116db6116d6846115b7565b6116bd565b6115b7565b9050919050565b5f6116f1826116c6565b9050919050565b5f611702826116e7565b9050919050565b611712816116f8565b82525050565b5f60208201905061172b5f830184611709565b92915050565b61173a816115d6565b8114611744575f80fd5b50565b5f8135905061175581611731565b92915050565b5f806040838503121561177157611770611475565b5b5f61177e8582860161154f565b925050602061178f85828601611747565b9150509250929050565b5f80fd5b5f80fd5b5f601f19601f8301169050919050565b7f4e487b71000000000000000000000000000000000000000000000000000000005f52604160045260245ffd5b6117e7826117a1565b810181811067ffffffffffffffff82111715611806576118056117b1565b5b80604052505050565b5f61181861146c565b905061182482826117de565b919050565b5f67ffffffffffffffff821115611843576118426117b1565b5b61184c826117a1565b9050602081019050919050565b828183375f83830152505050565b5f61187961187484611829565b61180f565b9050828152602081018484840111156118955761189461179d565b5b6118a0848285611859565b509392505050565b5f82601f8301126118bc576118bb611799565b5b81356118cc848260208601611867565b91505092915050565b5f80604083850312156118eb576118ea611475565b5b5f6118f88582860161154f565b925050602083013567ffffffffffffffff81111561191957611918611479565b5b611925858286016118a8565b9150509250929050565b5f6020828403121561194457611943611475565b5b5f61195184828501611747565b91505092915050565b5f81519050919050565b5f82825260208201905092915050565b8281835e5f83830152505050565b5f61198c8261195a565b6119968185611964565b93506119a6818560208601611974565b6119af816117a1565b840191505092915050565b5f6020820190508181035f8301526119d28184611982565b905092915050565b7f4e487b71000000000000000000000000000000000000000000000000000000005f52602260045260245ffd5b5f6002820490506001821680611a1e57607f821691505b602082108103611a3157611a306119da565b5b50919050565b5f82825260208201905092915050565b7f546f7272656e74206e6f7420666f756e640000000000000000000000000000005f82015250565b5f611a7b601183611a37565b9150611a8682611a47565b602082019050919050565b5f6020820190508181035f830152611aa881611a6f565b9050919050565b7f416c726561647920696e20737761726d000000000000000000000000000000005f82015250565b5f611ae3601083611a37565b9150611aee82611aaf565b602082019050919050565b5f6020820190508181035f830152611b1081611ad7565b9050919050565b5f819050919050565b7f4e487b71000000000000000000000000000000000000000000000000000000005f52601160045260245ffd5b5f611b5782611b17565b9150611b6283611b17565b9250828203905081811115611b7a57611b79611b20565b5b92915050565b7f546f7272656e7420616c726561647920657869737473000000000000000000005f82015250565b5f611bb4601683611a37565b9150611bbf82611b80565b602082019050919050565b5f6020820190508181035f830152611be181611ba8565b9050919050565b7f456d707479206d657461646174610000000000000000000000000000000000005f82015250565b5f611c1c600e83611a37565b9150611c2782611be8565b602082019050919050565b5f6020820190508181035f830152611c4981611c10565b9050919050565b5f819050815f5260205f209050919050565b5f6020601f8301049050919050565b5f82821b905092915050565b5f60088302611cac7fffffffffffffffffffffffffffffffffffffffffffffffffffffffffffffffff82611c71565b611cb68683611c71565b95508019841693508086168417925050509392505050565b5f611ce8611ce3611cde84611b17565b6116bd565b611b17565b9050919050565b5f819050919050565b611d0183611cce565b611d15611d0d82611cef565b848454611c7d565b825550505050565b5f90565b611d29611d1d565b611d34818484611cf8565b505050565b5b81811015611d5757611d4c5f82611d21565b600181019050611d3a565b5050565b601f821115611d9c57611d6d81611c50565b611d7684611c62565b81016020851015611d85578190505b611d99611d9185611c62565b830182611d39565b50505b505050565b5f82821c905092915050565b5f611dbc5f1984600802611da1565b1980831691505092915050565b5f611dd48383611dad565b9150826002028217905092915050565b611ded8261195a565b67ffffffffffffffff811115611e0657611e056117b1565b5b611e108254611a07565b611e1b828285611d5b565b5f60209050601f831160018114611e4c575f8415611e3a578287015190505b611e448582611dc9565b865550611eab565b601f198416611e5a86611c50565b5f5b82811015611e8157848901518255600182019150602085019450602081019050611e5c565b86831015611e9e5784890151611e9a601f891682611dad565b8355505b6001600288020188555050505b505050505050565b7f496e76616c6964207665726966696572206164647265737300000000000000005f82015250565b5f611ee7601883611a37565b9150611ef282611eb3565b602082019050919050565b5f6020820190508181035f830152611f1481611edb565b9050919050565b7f4e6f7420696e20737761726d00000000000000000000000000000000000000005f82015250565b5f611f4f600c83611a37565b9150611f5a82611f1b565b602082019050919050565b5f6020820190508181035f830152611f7c81611f43565b9050919050565b7f4e487b71000000000000000000000000000000000000000000000000000000005f52603260045260245ffd5b7f4e487b71000000000000000000000000000000000000000000000000000000005f52603160045260245ffd5b611fe6816115d6565b82525050565b5f602082019050611fff5f830184611fdd565b92915050565b5f6040820190506120185f830185611fdd565b6120256020830184611695565b939250505056fea26469706673582212208873cdc3f3431d783c09784a3fcdb6d984e4e943b2c96a926bc35f8d7d04469664736f6c634300081a0033",
			"opcodes": "PUSH1 0x80 PUSH1 0x40 MSTORE CALLVALUE DUP1 ISZERO PUSH2 0xF JUMPI PUSH0 DUP1 REVERT JUMPDEST POP PUSH1 0x40 MLOAD PUSH2 0x2333 CODESIZE SUB DUP1 PUSH2 0x2333 DUP4 CODECOPY DUP2 DUP2 ADD PUSH1 0x40 MSTORE DUP2 ADD SWAP1 PUSH2 0x31 SWAP2 SWAP1 PUSH2 0x299 JUMP JUMPDEST PUSH0 PUSH1 0x1 PUSH0 PUSH2 0x100 EXP DUP2 SLOAD DUP2 PUSH1 0xFF MUL NOT AND SWAP1 DUP4 ISZERO ISZERO MUL OR SWAP1 SSTORE POP PUSH1 0x1 PUSH1 0x2 DUP2 SWAP1 SSTORE POP PUSH2 0x64 PUSH0 DUP1 SHL CALLER PUSH2 0xDC PUSH1 0x20 SHL PUSH1 0x20 SHR JUMP JUMPDEST POP PUSH2 0x95 PUSH32 0x97667070C54EF182B0F5858B034BEAC1B6F3089AA2D3188BB1E8929F4FA9B929 CALLER PUSH2 0xDC PUSH1 0x20 SHL PUSH1 0x20 SHR JUMP JUMPDEST POP DUP1 PUSH1 0x3 PUSH0 PUSH2 0x100 EXP DUP2 SLOAD DUP2 PUSH20 0xFFFFFFFFFFFFFFFFFFFFFFFFFFFFFFFFFFFFFFFF MUL NOT AND SWAP1 DUP4 PUSH20 0xFFFFFFFFFFFFFFFFFFFFFFFFFFFFFFFFFFFFFFFF AND MUL OR SWAP1 SSTORE POP POP PUSH2 0x2C4 JUMP JUMPDEST PUSH0 PUSH2 0xED DUP4 DUP4 PUSH2 0x1D1 PUSH1 0x20 SHL PUSH1 0x20 SHR JUMP JUMPDEST PUSH2 0x1C7 JUMPI PUSH1 0x1 PUSH0 DUP1 DUP6 DUP2 MSTORE PUSH1 0x20 ADD SWAP1 DUP2 MSTORE PUSH1 0x20 ADD PUSH0 KECCAK256 PUSH0 ADD PUSH0 DUP5 PUSH20 0xFFFFFFFFFFFFFFFFFFFFFFFFFFFFFFFFFFFFFFFF AND PUSH20 0xFFFFFFFFFFFFFFFFFFFFFFFFFFFFFFFFFFFFFFFF AND DUP2 MSTORE PUSH1 0x20 ADD SWAP1 DUP2 MSTORE PUSH1 0x20 ADD PUSH0 KECCAK256 PUSH0 PUSH2 0x100 EXP DUP2 SLOAD DUP2 PUSH1 0xFF MUL NOT AND SWAP1 DUP4 ISZERO ISZERO MUL OR SWAP1 SSTORE POP PUSH2 0x164 PUSH2 0x234 PUSH1 0x20 SHL PUSH1 0x20 SHR JUMP JUMPDEST PUSH20 0xFFFFFFFFFFFFFFFFFFFFFFFFFFFFFFFFFFFFFFFF AND DUP3 PUSH20 0xFFFFFFFFFFFFFFFFFFFFFFFFFFFFFFFFFFFFFFFF AND DUP5 PUSH32 0x2F8788117E7EFF1D82E926EC794901D17C78024A50270940304540A733656F0D PUSH1 0x40 MLOAD PUSH1 0x40 MLOAD DUP1 SWAP2 SUB SWAP1 LOG4 PUSH1 0x1 SWAP1 POP PUSH2 0x1CB JUMP JUMPDEST PUSH0 SWAP1 POP JUMPDEST SWAP3 SWAP2 POP POP JUMP JUMPDEST PUSH0 DUP1 PUSH0 DUP5 DUP2 MSTORE PUSH1 0x20 ADD SWAP1 DUP2 MSTORE PUSH1 0x20 ADD PUSH0 KECCAK256 PUSH0 ADD PUSH0 DUP4 PUSH20 0xFFFFFFFFFFFFFFFFFFFFFFFFFFFFFFFFFFFFFFFF AND PUSH20 0xFFFFFFFFFFFFFFFFFFFFFFFFFFFFFFFFFFFFFFFF AND DUP2 MSTORE PUSH1 0x20 ADD SWAP1 DUP2 MSTORE PUSH1 0x20 ADD PUSH0 KECCAK256 PUSH0 SWAP1 SLOAD SWAP1 PUSH2 0x100 EXP SWAP1 DIV PUSH1 0xFF AND SWAP1 POP SWAP3 SWAP2 POP POP JUMP JUMPDEST PUSH0 CALLER SWAP1 POP SWAP1 JUMP JUMPDEST PUSH0 DUP1 REVERT JUMPDEST PUSH0 PUSH20 0xFFFFFFFFFFFFFFFFFFFFFFFFFFFFFFFFFFFFFFFF DUP3 AND SWAP1 POP SWAP2 SWAP1 POP JUMP JUMPDEST PUSH0 PUSH2 0x268 DUP3 PUSH2 0x23F JUMP JUMPDEST SWAP1 POP SWAP2 SWAP1 POP JUMP JUMPDEST PUSH2 0x278 DUP2 PUSH2 0x25E JUMP JUMPDEST DUP2 EQ PUSH2 0x282 JUMPI PUSH0 DUP1 REVERT JUMPDEST POP JUMP JUMPDEST PUSH0 DUP2 MLOAD SWAP1 POP PUSH2 0x293 DUP2 PUSH2 0x26F JUMP JUMPDEST SWAP3 SWAP2 POP POP JUMP JUMPDEST PUSH0 PUSH1 0x20 DUP3 DUP5 SUB SLT ISZERO PUSH2 0x2AE JUMPI PUSH2 0x2AD PUSH2 0x23B JUMP JUMPDEST JUMPDEST PUSH0 PUSH2 0x2BB DUP5 DUP3 DUP6 ADD PUSH2 0x285 JUMP JUMPDEST SWAP2 POP POP SWAP3 SWAP2 POP POP JUMP JUMPDEST PUSH2 0x2062 DUP1 PUSH2 0x2D1 PUSH0 CODECOPY PUSH0 RETURN INVALID PUSH1 0x80 PUSH1 0x40 MSTORE CALLVALUE DUP1 ISZERO PUSH2 0xF JUMPI PUSH0 DUP1 REVERT JUMPDEST POP PUSH1 0x4 CALLDATASIZE LT PUSH2 0x12A JUMPI PUSH0 CALLDATALOAD PUSH1 0xE0 SHR DUP1 PUSH4 0x8456CB59 GT PUSH2 0xAB JUMPI DUP1 PUSH4 0x9A5E71C2 GT PUSH2 0x6F JUMPI DUP1 PUSH4 0x9A5E71C2 EQ PUSH2 0x316 JUMPI DUP1 PUSH4 0xA217FDDF EQ PUSH2 0x332 JUMPI DUP1 PUSH4 0xC7AA2F1E EQ PUSH2 0x350 JUMPI DUP1 PUSH4 0xD547741F EQ PUSH2 0x380 JUMPI DUP1 PUSH4 0xF5B541A6 EQ PUSH2 0x39C JUMPI PUSH2 0x12A JUMP JUMPDEST DUP1 PUSH4 0x8456CB59 EQ PUSH2 0x288 JUMPI DUP1 PUSH4 0x85A80265 EQ PUSH2 0x292 JUMPI DUP1 PUSH4 0x91D14854 EQ PUSH2 0x2AE JUMPI DUP1 PUSH4 0x97AB3501 EQ PUSH2 0x2DE JUMPI DUP1 PUSH4 0x97FC007C EQ PUSH2 0x2FA JUMPI PUSH2 0x12A JUMP JUMPDEST DUP1 PUSH4 0x36568ABE GT PUSH2 0xF2 JUMPI DUP1 PUSH4 0x36568ABE EQ PUSH2 0x1F8 JUMPI DUP1 PUSH4 0x3D2BABF2 EQ PUSH2 0x214 JUMPI DUP1 PUSH4 0x3F4BA83A EQ PUSH2 0x244 JUMPI DUP1 PUSH4 0x5C975ABB EQ PUSH2 0x24E JUMPI DUP1 PUSH4 0x675FD3E6 EQ PUSH2 0x26C JUMPI PUSH2 0x12A JUMP JUMPDEST DUP1 PUSH4 0x1FFC9A7 EQ PUSH2 0x12E JUMPI DUP1 PUSH4 0x1A26EDB5 EQ PUSH2 0x15E JUMPI DUP1 PUSH4 0x248A9CA3 EQ PUSH2 0x18E JUMPI DUP1 PUSH4 0x2B7AC3F3 EQ PUSH2 0x1BE JUMPI DUP1 PUSH4 0x2F2FF15D EQ PUSH2 0x1DC JUMPI JUMPDEST PUSH0 DUP1 REVERT JUMPDEST PUSH2 0x148 PUSH1 0x4 DUP1 CALLDATASIZE SUB DUP2 ADD SWAP1 PUSH2 0x143 SWAP2 SWAP1 PUSH2 0x14D2 JUMP JUMPDEST PUSH2 0x3BA JUMP JUMPDEST PUSH1 0x40 MLOAD PUSH2 0x155 SWAP2 SWAP1 PUSH2 0x1517 JUMP JUMPDEST PUSH1 0x40 MLOAD DUP1 SWAP2 SUB SWAP1 RETURN JUMPDEST PUSH2 0x178 PUSH1 0x4 DUP1 CALLDATASIZE SUB DUP2 ADD SWAP1 PUSH2 0x173 SWAP2 SWAP1 PUSH2 0x1563 JUMP JUMPDEST PUSH2 0x433 JUMP JUMPDEST PUSH1 0x40 MLOAD PUSH2 0x185 SWAP2 SWAP1 PUSH2 0x1675 JUMP JUMPDEST PUSH1 0x40 MLOAD DUP1 SWAP2 SUB SWAP1 RETURN JUMPDEST PUSH2 0x1A8 PUSH1 0x4 DUP1 CALLDATASIZE SUB DUP2 ADD SWAP1 PUSH2 0x1A3 SWAP2 SWAP1 PUSH2 0x1563 JUMP JUMPDEST PUSH2 0x4CF JUMP JUMPDEST PUSH1 0x40 MLOAD PUSH2 0x1B5 SWAP2 SWAP1 PUSH2 0x16A4 JUMP JUMPDEST PUSH1 0x40 MLOAD DUP1 SWAP2 SUB SWAP1 RETURN JUMPDEST PUSH2 0x1C6 PUSH2 0x4EB JUMP JUMPDEST PUSH1 0x40 MLOAD PUSH2 0x1D3 SWAP2 SWAP1 PUSH2 0x1718 JUMP JUMPDEST PUSH1 0x40 MLOAD DUP1 SWAP2 SUB SWAP1 RETURN JUMPDEST PUSH2 0x1F6 PUSH1 0x4 DUP1 CALLDATASIZE SUB DUP2 ADD SWAP1 PUSH2 0x1F1 SWAP2 SWAP1 PUSH2 0x175B JUMP JUMPDEST PUSH2 0x510 JUMP JUMPDEST STOP JUMPDEST PUSH2 0x212 PUSH1 0x4 DUP1 CALLDATASIZE SUB DUP2 ADD SWAP1 PUSH2 0x20D SWAP2 SWAP1 PUSH2 0x175B JUMP JUMPDEST PUSH2 0x532 JUMP JUMPDEST STOP JUMPDEST PUSH2 0x22E PUSH1 0x4 DUP1 CALLDATASIZE SUB DUP2 ADD SWAP1 PUSH2 0x229 SWAP2 SWAP1 PUSH2 0x175B JUMP JUMPDEST PUSH2 0x5AD JUMP JUMPDEST PUSH1 0x40 MLOAD PUSH2 0x23B SWAP2 SWAP1 PUSH2 0x1517 JUMP JUMPDEST PUSH1 0x40 MLOAD DUP1 SWAP2 SUB SWAP1 RETURN JUMPDEST PUSH2 0x24C PUSH2 0x5C0 JUMP JUMPDEST STOP JUMPDEST PUSH2 0x256 PUSH2 0x5D7 JUMP JUMPDEST PUSH1 0x40 MLOAD PUSH2 0x263 SWAP2 SWAP1 PUSH2 0x1517 JUMP JUMPDEST PUSH1 0x40 MLOAD DUP1 SWAP2 SUB SWAP1 RETURN JUMPDEST PUSH2 0x286 PUSH1 0x4 DUP1 CALLDATASIZE SUB DUP2 ADD SWAP1 PUSH2 0x281 SWAP2 SWAP1 PUSH2 0x1563 JUMP JUMPDEST PUSH2 0x5EC JUMP JUMPDEST STOP JUMPDEST PUSH2 0x290 PUSH2 0x7C4 JUMP JUMPDEST STOP JUMPDEST PUSH2 0x2AC PUSH1 0x4 DUP1 CALLDATASIZE SUB DUP2 ADD SWAP1 PUSH2 0x2A7 SWAP2 SWAP1 PUSH2 0x18D5 JUMP JUMPDEST PUSH2 0x7DB JUMP JUMPDEST STOP JUMPDEST PUSH2 0x2C8 PUSH1 0x4 DUP1 CALLDATASIZE SUB DUP2 ADD SWAP1 PUSH2 0x2C3 SWAP2 SWAP1 PUSH2 0x175B JUMP JUMPDEST PUSH2 0x8FC JUMP JUMPDEST PUSH1 0x40 MLOAD PUSH2 0x2D5 SWAP2 SWAP1 PUSH2 0x1517 JUMP JUMPDEST PUSH1 0x40 MLOAD DUP1 SWAP2 SUB SWAP1 RETURN JUMPDEST PUSH2 0x2F8 PUSH1 0x4 DUP1 CALLDATASIZE SUB DUP2 ADD SWAP1 PUSH2 0x2F3 SWAP2 SWAP1 PUSH2 0x1563 JUMP JUMPDEST PUSH2 0x95F JUMP JUMPDEST STOP JUMPDEST PUSH2 0x314 PUSH1 0x4 DUP1 CALLDATASIZE SUB DUP2 ADD SWAP1 PUSH2 0x30F SWAP2 SWAP1 PUSH2 0x192F JUMP JUMPDEST PUSH2 0xA68 JUMP JUMPDEST STOP JUMPDEST PUSH2 0x330 PUSH1 0x4 DUP1 CALLDATASIZE SUB DUP2 ADD SWAP1 PUSH2 0x32B SWAP2 SWAP1 PUSH2 0x1563 JUMP JUMPDEST PUSH2 0xB26 JUMP JUMPDEST STOP JUMPDEST PUSH2 0x33A PUSH2 0xDDF JUMP JUMPDEST PUSH1 0x40 MLOAD PUSH2 0x347 SWAP2 SWAP1 PUSH2 0x16A4 JUMP JUMPDEST PUSH1 0x40 MLOAD DUP1 SWAP2 SUB SWAP1 RETURN JUMPDEST PUSH2 0x36A PUSH1 0x4 DUP1 CALLDATASIZE SUB DUP2 ADD SWAP1 PUSH2 0x365 SWAP2 SWAP1 PUSH2 0x1563 JUMP JUMPDEST PUSH2 0xDE5 JUMP JUMPDEST PUSH1 0x40 MLOAD PUSH2 0x377 SWAP2 SWAP1 PUSH2 0x19BA JUMP JUMPDEST PUSH1 0x40 MLOAD DUP1 SWAP2 SUB SWAP1 RETURN JUMPDEST PUSH2 0x39A PUSH1 0x4 DUP1 CALLDATASIZE SUB DUP2 ADD SWAP1 PUSH2 0x395 SWAP2 SWAP1 PUSH2 0x175B JUMP JUMPDEST PUSH2 0xE86 JUMP JUMPDEST STOP JUMPDEST PUSH2 0x3A4 PUSH2 0xEA8 JUMP JUMPDEST PUSH1 0x40 MLOAD PUSH2 0x3B1 SWAP2 SWAP1 PUSH2 0x16A4 JUMP JUMPDEST PUSH1 0x40 MLOAD DUP1 SWAP2 SUB SWAP1 RETURN JUMPDEST PUSH0 PUSH32 0x7965DB0B00000000000000000000000000000000000000000000000000000000 PUSH28 0xFFFFFFFFFFFFFFFFFFFFFFFFFFFFFFFFFFFFFFFFFFFFFFFFFFFFFFFF NOT AND DUP3 PUSH28 0xFFFFFFFFFFFFFFFFFFFFFFFFFFFFFFFFFFFFFFFFFFFFFFFFFFFFFFFF NOT AND EQ DUP1 PUSH2 0x42C JUMPI POP PUSH2 0x42B DUP3 PUSH2 0xECC JUMP JUMPDEST JUMPDEST SWAP1 POP SWAP2 SWAP1 POP JUMP JUMPDEST PUSH1 0x60 PUSH1 0x4 PUSH0 DUP4 DUP2 MSTORE PUSH1 0x20 ADD SWAP1 DUP2 MSTORE PUSH1 0x20 ADD PUSH0 KECCAK256 DUP1 SLOAD DUP1 PUSH1 0x20 MUL PUSH1 0x20 ADD PUSH1 0x40 MLOAD SWAP1 DUP2 ADD PUSH1 0x40 MSTORE DUP1 SWAP3 SWAP2 SWAP1 DUP2 DUP2 MSTORE PUSH1 0x20 ADD DUP3 DUP1 SLOAD DUP1 ISZERO PUSH2 0x4C3 JUMPI PUSH1 0x20 MUL DUP3 ADD SWAP2 SWAP1 PUSH0 MSTORE PUSH1 0x20 PUSH0 KECCAK256 SWAP1 JUMPDEST DUP2 PUSH0 SWAP1 SLOAD SWAP1 PUSH2 0x100 EXP SWAP1 DIV PUSH20 0xFFFFFFFFFFFFFFFFFFFFFFFFFFFFFFFFFFFFFFFF AND PUSH20 0xFFFFFFFFFFFFFFFFFFFFFFFFFFFFFFFFFFFFFFFF AND DUP2 MSTORE PUSH1 0x20 ADD SWAP1 PUSH1 0x1 ADD SWAP1 DUP1 DUP4 GT PUSH2 0x47A JUMPI JUMPDEST POP POP POP POP POP SWAP1 POP SWAP2 SWAP1 POP JUMP JUMPDEST PUSH0 DUP1 PUSH0 DUP4 DUP2 MSTORE PUSH1 0x20 ADD SWAP1 DUP2 MSTORE PUSH1 0x20 ADD PUSH0 KECCAK256 PUSH1 0x1 ADD SLOAD SWAP1 POP SWAP2 SWAP1 POP JUMP JUMPDEST PUSH1 0x3 PUSH0 SWAP1 SLOAD SWAP1 PUSH2 0x100 EXP SWAP1 DIV PUSH20 0xFFFFFFFFFFFFFFFFFFFFFFFFFFFFFFFFFFFFFFFF AND DUP2 JUMP JUMPDEST PUSH2 0x519 DUP3 PUSH2 0x4CF JUMP JUMPDEST PUSH2 0x522 DUP2 PUSH2 0xF35 JUMP JUMPDEST PUSH2 0x52C DUP4 DUP4 PUSH2 0xF49 JUMP JUMPDEST POP POP POP POP JUMP JUMPDEST PUSH2 0x53A PUSH2 0x1032 JUMP JUMPDEST PUSH20 0xFFFFFFFFFFFFFFFFFFFFFFFFFFFFFFFFFFFFFFFF AND DUP2 PUSH20 0xFFFFFFFFFFFFFFFFFFFFFFFFFFFFFFFFFFFFFFFF AND EQ PUSH2 0x59E JUMPI PUSH1 0x40 MLOAD PUSH32 0x6697B23200000000000000000000000000000000000000000000000000000000 DUP2 MSTORE PUSH1 0x4 ADD PUSH1 0x40 MLOAD DUP1 SWAP2 SUB SWAP1 REVERT JUMPDEST PUSH2 0x5A8 DUP3 DUP3 PUSH2 0x1039 JUMP JUMPDEST POP POP POP JUMP JUMPDEST PUSH0 PUSH2 0x5B8 DUP4 DUP4 PUSH2 0x1122 JUMP JUMPDEST SWAP1 POP SWAP3 SWAP2 POP POP JUMP JUMPDEST PUSH0 DUP1 SHL PUSH2 0x5CC DUP2 PUSH2 0xF35 JUMP JUMPDEST PUSH2 0x5D4 PUSH2 0x1214 JUMP JUMPDEST POP JUMP JUMPDEST PUSH0 PUSH1 0x1 PUSH0 SWAP1 SLOAD SWAP1 PUSH2 0x100 EXP SWAP1 DIV PUSH1 0xFF AND SWAP1 POP SWAP1 JUMP JUMPDEST PUSH2 0x5F4 PUSH2 0x1275 JUMP JUMPDEST PUSH0 PUSH1 0x6 PUSH0 DUP4 DUP2 MSTORE PUSH1 0x20 ADD SWAP1 DUP2 MSTORE PUSH1 0x20 ADD PUSH0 KECCAK256 DUP1 SLOAD PUSH2 0x611 SWAP1 PUSH2 0x1A07 JUMP JUMPDEST SWAP1 POP GT PUSH2 0x653 JUMPI PUSH1 0x40 MLOAD PUSH32 0x8C379A000000000000000000000000000000000000000000000000000000000 DUP2 MSTORE PUSH1 0x4 ADD PUSH2 0x64A SWAP1 PUSH2 0x1A91 JUMP JUMPDEST PUSH1 0x40 MLOAD DUP1 SWAP2 SUB SWAP1 REVERT JUMPDEST PUSH2 0x65D DUP2 CALLER PUSH2 0x1122 JUMP JUMPDEST ISZERO PUSH2 0x69D JUMPI PUSH1 0x40 MLOAD PUSH32 0x8C379A000000000000000000000000000000000000000000000000000000000 DUP2 MSTORE PUSH1 0x4 ADD PUSH2 0x694 SWAP1 PUSH2 0x1AF9 JUMP JUMPDEST PUSH1 0x40 MLOAD DUP1 SWAP2 SUB SWAP1 REVERT JUMPDEST PUSH1 0x4 PUSH0 DUP3 DUP2 MSTORE PUSH1 0x20 ADD SWAP1 DUP2 MSTORE PUSH1 0x20 ADD PUSH0 KECCAK256 CALLER SWAP1 DUP1 PUSH1 0x1 DUP2 SLOAD ADD DUP1 DUP3 SSTORE DUP1 SWAP2 POP POP PUSH1 0x1 SWAP1 SUB SWAP1 PUSH0 MSTORE PUSH1 0x20 PUSH0 KECCAK256 ADD PUSH0 SWAP1 SWAP2 SWAP1 SWAP2 SWAP1 SWAP2 PUSH2 0x100 EXP DUP2 SLOAD DUP2 PUSH20 0xFFFFFFFFFFFFFFFFFFFFFFFFFFFFFFFFFFFFFFFF MUL NOT AND SWAP1 DUP4 PUSH20 0xFFFFFFFFFFFFFFFFFFFFFFFFFFFFFFFFFFFFFFFF AND MUL OR SWAP1 SSTORE POP PUSH1 0x1 PUSH1 0x4 PUSH0 DUP4 DUP2 MSTORE PUSH1 0x20 ADD SWAP1 DUP2 MSTORE PUSH1 0x20 ADD PUSH0 KECCAK256 DUP1 SLOAD SWAP1 POP PUSH2 0x72D SWAP2 SWAP1 PUSH2 0x1B4D JUMP JUMPDEST PUSH1 0x5 PUSH0 DUP4 DUP2 MSTORE PUSH1 0x20 ADD SWAP1 DUP2 MSTORE PUSH1 0x20 ADD PUSH0 KECCAK256 PUSH0 CALLER PUSH20 0xFFFFFFFFFFFFFFFFFFFFFFFFFFFFFFFFFFFFFFFF AND PUSH20 0xFFFFFFFFFFFFFFFFFFFFFFFFFFFFFFFFFFFFFFFF AND DUP2 MSTORE PUSH1 0x20 ADD SWAP1 DUP2 MSTORE PUSH1 0x20 ADD PUSH0 KECCAK256 DUP2 SWAP1 SSTORE POP CALLER PUSH20 0xFFFFFFFFFFFFFFFFFFFFFFFFFFFFFFFFFFFFFFFF AND DUP2 PUSH32 0xEC632E7BCB76118DB1317C4FFCBA85E2EF4EED094130C81803854E6789E5F839 PUSH1 0x40 MLOAD PUSH1 0x40 MLOAD DUP1 SWAP2 SUB SWAP1 LOG3 POP JUMP JUMPDEST PUSH0 DUP1 SHL PUSH2 0x7D0 DUP2 PUSH2 0xF35 JUMP JUMPDEST PUSH2 0x7D8 PUSH2 0x12B6 JUMP JUMPDEST POP JUMP JUMPDEST PUSH2 0x7E3 PUSH2 0x1275 JUMP JUMPDEST PUSH2 0x7EB PUSH2 0x1317 JUMP JUMPDEST PUSH0 PUSH1 0x6 PUSH0 DUP5 DUP2 MSTORE PUSH1 0x20 ADD SWAP1 DUP2 MSTORE PUSH1 0x20 ADD PUSH0 KECCAK256 DUP1 SLOAD PUSH2 0x808 SWAP1 PUSH2 0x1A07 JUMP JUMPDEST SWAP1 POP EQ PUSH2 0x84A JUMPI PUSH1 0x40 MLOAD PUSH32 0x8C379A000000000000000000000000000000000000000000000000000000000 DUP2 MSTORE PUSH1 0x4 ADD PUSH2 0x841 SWAP1 PUSH2 0x1BCA JUMP JUMPDEST PUSH1 0x40 MLOAD DUP1 SWAP2 SUB SWAP1 REVERT JUMPDEST PUSH0 DUP2 MLOAD GT PUSH2 0x88D JUMPI PUSH1 0x40 MLOAD PUSH32 0x8C379A000000000000000000000000000000000000000000000000000000000 DUP2 MSTORE PUSH1 0x4 ADD PUSH2 0x884 SWAP1 PUSH2 0x1C32 JUMP JUMPDEST PUSH1 0x40 MLOAD DUP1 SWAP2 SUB SWAP1 REVERT JUMPDEST DUP1 PUSH1 0x6 PUSH0 DUP5 DUP2 MSTORE PUSH1 0x20 ADD SWAP1 DUP2 MSTORE PUSH1 0x20 ADD PUSH0 KECCAK256 SWAP1 DUP2 PUSH2 0x8AB SWAP2 SWAP1 PUSH2 0x1DE4 JUMP JUMPDEST POP CALLER PUSH20 0xFFFFFFFFFFFFFFFFFFFFFFFFFFFFFFFFFFFFFFFF AND DUP3 PUSH32 0x1B29291C5EDAC9DD8411455DA98BA119E7E2E93CADB5919C2C9A240F3EAB6587 PUSH1 0x40 MLOAD PUSH1 0x40 MLOAD DUP1 SWAP2 SUB SWAP1 LOG3 PUSH2 0x8F8 PUSH2 0x135B JUMP JUMPDEST POP POP JUMP JUMPDEST PUSH0 DUP1 PUSH0 DUP5 DUP2 MSTORE PUSH1 0x20 ADD SWAP1 DUP2 MSTORE PUSH1 0x20 ADD PUSH0 KECCAK256 PUSH0 ADD PUSH0 DUP4 PUSH20 0xFFFFFFFFFFFFFFFFFFFFFFFFFFFFFFFFFFFFFFFF AND PUSH20 0xFFFFFFFFFFFFFFFFFFFFFFFFFFFFFFFFFFFFFFFF AND DUP2 MSTORE PUSH1 0x20 ADD SWAP1 DUP2 MSTORE PUSH1 0x20 ADD PUSH0 KECCAK256 PUSH0 SWAP1 SLOAD SWAP1 PUSH2 0x100 EXP SWAP1 DIV PUSH1 0xFF AND SWAP1 POP SWAP3 SWAP2 POP POP JUMP JUMPDEST PUSH32 0x97667070C54EF182B0F5858B034BEAC1B6F3089AA2D3188BB1E8929F4FA9B929 PUSH2 0x989 DUP2 PUSH2 0xF35 JUMP JUMPDEST PUSH0 PUSH1 0x6 PUSH0 DUP5 DUP2 MSTORE PUSH1 0x20 ADD SWAP1 DUP2 MSTORE PUSH1 0x20 ADD PUSH0 KECCAK256 DUP1 SLOAD PUSH2 0x9A6 SWAP1 PUSH2 0x1A07 JUMP JUMPDEST SWAP1 POP GT PUSH2 0x9E8 JUMPI PUSH1 0x40 MLOAD PUSH32 0x8C379A000000000000000000000000000000000000000000000000000000000 DUP2 MSTORE PUSH1 0x4 ADD PUSH2 0x9DF SWAP1 PUSH2 0x1A91 JUMP JUMPDEST PUSH1 0x40 MLOAD DUP1 SWAP2 SUB SWAP1 REVERT JUMPDEST PUSH1 0x6 PUSH0 DUP4 DUP2 MSTORE PUSH1 0x20 ADD SWAP1 DUP2 MSTORE PUSH1 0x20 ADD PUSH0 KECCAK256 PUSH0 PUSH2 0xA04 SWAP2 SWAP1 PUSH2 0x13F6 JUMP JUMPDEST PUSH1 0x4 PUSH0 DUP4 DUP2 MSTORE PUSH1 0x20 ADD SWAP1 DUP2 MSTORE PUSH1 0x20 ADD PUSH0 KECCAK256 PUSH0 PUSH2 0xA20 SWAP2 SWAP1 PUSH2 0x1433 JUMP JUMPDEST CALLER PUSH20 0xFFFFFFFFFFFFFFFFFFFFFFFFFFFFFFFFFFFFFFFF AND DUP3 PUSH32 0x426A554D14C27A8B40D14E65BAB3A4D4CCF7F9C1F2DD26ABDE41EABAEB972473 PUSH1 0x40 MLOAD PUSH1 0x40 MLOAD DUP1 SWAP2 SUB SWAP1 LOG3 POP POP JUMP JUMPDEST PUSH0 DUP1 SHL PUSH2 0xA74 DUP2 PUSH2 0xF35 JUMP JUMPDEST PUSH0 PUSH20 0xFFFFFFFFFFFFFFFFFFFFFFFFFFFFFFFFFFFFFFFF AND DUP3 PUSH20 0xFFFFFFFFFFFFFFFFFFFFFFFFFFFFFFFFFFFFFFFF AND SUB PUSH2 0xAE2 JUMPI PUSH1 0x40 MLOAD PUSH32 0x8C379A000000000000000000000000000000000000000000000000000000000 DUP2 MSTORE PUSH1 0x4 ADD PUSH2 0xAD9 SWAP1 PUSH2 0x1EFD JUMP JUMPDEST PUSH1 0x40 MLOAD DUP1 SWAP2 SUB SWAP1 REVERT JUMPDEST DUP2 PUSH1 0x3 PUSH0 PUSH2 0x100 EXP DUP2 SLOAD DUP2 PUSH20 0xFFFFFFFFFFFFFFFFFFFFFFFFFFFFFFFFFFFFFFFF MUL NOT AND SWAP1 DUP4 PUSH20 0xFFFFFFFFFFFFFFFFFFFFFFFFFFFFFFFFFFFFFFFF AND MUL OR SWAP1 SSTORE POP POP POP JUMP JUMPDEST PUSH2 0xB30 DUP2 CALLER PUSH2 0x1122 JUMP JUMPDEST PUSH2 0xB6F JUMPI PUSH1 0x40 MLOAD PUSH32 0x8C379A000000000000000000000000000000000000000000000000000000000 DUP2 MSTORE PUSH1 0x4 ADD PUSH2 0xB66 SWAP1 PUSH2 0x1F65 JUMP JUMPDEST PUSH1 0x40 MLOAD DUP1 SWAP2 SUB SWAP1 REVERT JUMPDEST PUSH0 PUSH1 0x5 PUSH0 DUP4 DUP2 MSTORE PUSH1 0x20 ADD SWAP1 DUP2 MSTORE PUSH1 0x20 ADD PUSH0 KECCAK256 PUSH0 CALLER PUSH20 0xFFFFFFFFFFFFFFFFFFFFFFFFFFFFFFFFFFFFFFFF AND PUSH20 0xFFFFFFFFFFFFFFFFFFFFFFFFFFFFFFFFFFFFFFFF AND DUP2 MSTORE PUSH1 0x20 ADD SWAP1 DUP2 MSTORE PUSH1 0x20 ADD PUSH0 KECCAK256 SLOAD SWAP1 POP PUSH0 PUSH1 0x1 PUSH1 0x4 PUSH0 DUP6 DUP2 MSTORE PUSH1 0x20 ADD SWAP1 DUP2 MSTORE PUSH1 0x20 ADD PUSH0 KECCAK256 DUP1 SLOAD SWAP1 POP PUSH2 0xBE1 SWAP2 SWAP1 PUSH2 0x1B4D JUMP JUMPDEST SWAP1 POP DUP1 DUP3 EQ PUSH2 0xCF4 JUMPI PUSH0 PUSH1 0x4 PUSH0 DUP6 DUP2 MSTORE PUSH1 0x20 ADD SWAP1 DUP2 MSTORE PUSH1 0x20 ADD PUSH0 KECCAK256 DUP3 DUP2 SLOAD DUP2 LT PUSH2 0xC0E JUMPI PUSH2 0xC0D PUSH2 0x1F83 JUMP JUMPDEST JUMPDEST SWAP1 PUSH0 MSTORE PUSH1 0x20 PUSH0 KECCAK256 ADD PUSH0 SWAP1 SLOAD SWAP1 PUSH2 0x100 EXP SWAP1 DIV PUSH20 0xFFFFFFFFFFFFFFFFFFFFFFFFFFFFFFFFFFFFFFFF AND SWAP1 POP DUP1 PUSH1 0x4 PUSH0 DUP7 DUP2 MSTORE PUSH1 0x20 ADD SWAP1 DUP2 MSTORE PUSH1 0x20 ADD PUSH0 KECCAK256 DUP5 DUP2 SLOAD DUP2 LT PUSH2 0xC5C JUMPI PUSH2 0xC5B PUSH2 0x1F83 JUMP JUMPDEST JUMPDEST SWAP1 PUSH0 MSTORE PUSH1 0x20 PUSH0 KECCAK256 ADD PUSH0 PUSH2 0x100 EXP DUP2 SLOAD DUP2 PUSH20 0xFFFFFFFFFFFFFFFFFFFFFFFFFFFFFFFFFFFFFFFF MUL NOT AND SWAP1 DUP4 PUSH20 0xFFFFFFFFFFFFFFFFFFFFFFFFFFFFFFFFFFFFFFFF AND MUL OR SWAP1 SSTORE POP DUP3 PUSH1 0x5 PUSH0 DUP7 DUP2 MSTORE PUSH1 0x20 ADD SWAP1 DUP2 MSTORE PUSH1 0x20 ADD PUSH0 KECCAK256 PUSH0 DUP4 PUSH20 0xFFFFFFFFFFFFFFFFFFFFFFFFFFFFFFFFFFFFFFFF AND PUSH20 0xFFFFFFFFFFFFFFFFFFFFFFFFFFFFFFFFFFFFFFFF AND DUP2 MSTORE PUSH1 0x20 ADD SWAP1 DUP2 MSTORE PUSH1 0x20 ADD PUSH0 KECCAK256 DUP2 SWAP1 SSTORE POP POP JUMPDEST PUSH1 0x4 PUSH0 DUP5 DUP2 MSTORE PUSH1 0x20 ADD SWAP1 DUP2 MSTORE PUSH1 0x20 ADD PUSH0 KECCAK256 DUP1 SLOAD DUP1 PUSH2 0xD15 JUMPI PUSH2 0xD14 PUSH2 0x1FB0 JUMP JUMPDEST JUMPDEST PUSH1 0x1 SWAP1 SUB DUP2 DUP2 SWAP1 PUSH0 MSTORE PUSH1 0x20 PUSH0 KECCAK256 ADD PUSH0 PUSH2 0x100 EXP DUP2 SLOAD SWAP1 PUSH20 0xFFFFFFFFFFFFFFFFFFFFFFFFFFFFFFFFFFFFFFFF MUL NOT AND SWAP1 SSTORE SWAP1 SSTORE PUSH1 0x5 PUSH0 DUP5 DUP2 MSTORE PUSH1 0x20 ADD SWAP1 DUP2 MSTORE PUSH1 0x20 ADD PUSH0 KECCAK256 PUSH0 CALLER PUSH20 0xFFFFFFFFFFFFFFFFFFFFFFFFFFFFFFFFFFFFFFFF AND PUSH20 0xFFFFFFFFFFFFFFFFFFFFFFFFFFFFFFFFFFFFFFFF AND DUP2 MSTORE PUSH1 0x20 ADD SWAP1 DUP2 MSTORE PUSH1 0x20 ADD PUSH0 KECCAK256 PUSH0 SWAP1 SSTORE CALLER PUSH20 0xFFFFFFFFFFFFFFFFFFFFFFFFFFFFFFFFFFFFFFFF AND DUP4 PUSH32 0xD6BDAF1E6CE0B30760D15E544DC3FCF5ADE4568DB6A7F95A10548F4B8C81EB51 PUSH1 0x40 MLOAD PUSH1 0x40 MLOAD DUP1 SWAP2 SUB SWAP1 LOG3 POP POP POP JUMP JUMPDEST PUSH0 DUP1 SHL DUP2 JUMP JUMPDEST PUSH1 0x60 PUSH1 0x6 PUSH0 DUP4 DUP2 MSTORE PUSH1 0x20 ADD SWAP1 DUP2 MSTORE PUSH1 0x20 ADD PUSH0 KECCAK256 DUP1 SLOAD PUSH2 0xE03 SWAP1 PUSH2 0x1A07 JUMP JUMPDEST DUP1 PUSH1 0x1F ADD PUSH1 0x20 DUP1 SWAP2 DIV MUL PUSH1 0x20 ADD PUSH1 0x40 MLOAD SWAP1 DUP2 ADD PUSH1 0x40 MSTORE DUP1 SWAP3 SWAP2 SWAP1 DUP2 DUP2 MSTORE PUSH1 0x20 ADD DUP3 DUP1 SLOAD PUSH2 0xE2F SWAP1 PUSH2 0x1A07 JUMP JUMPDEST DUP1 ISZERO PUSH2 0xE7A JUMPI DUP1 PUSH1 0x1F LT PUSH2 0xE51 JUMPI PUSH2 0x100 DUP1 DUP4 SLOAD DIV MUL DUP4 MSTORE SWAP2 PUSH1 0x20 ADD SWAP2 PUSH2 0xE7A JUMP JUMPDEST DUP3 ADD SWAP2 SWAP1 PUSH0 MSTORE PUSH1 0x20 PUSH0 KECCAK256 SWAP1 JUMPDEST DUP2 SLOAD DUP2 MSTORE SWAP1 PUSH1 0x1 ADD SWAP1 PUSH1 0x20 ADD DUP1 DUP4 GT PUSH2 0xE5D JUMPI DUP3 SWAP1 SUB PUSH1 0x1F AND DUP3 ADD SWAP2 JUMPDEST POP POP POP POP POP SWAP1 POP SWAP2 SWAP1 POP JUMP JUMPDEST PUSH2 0xE8F DUP3 PUSH2 0x4CF JUMP JUMPDEST PUSH2 0xE98 DUP2 PUSH2 0xF35 JUMP JUMPDEST PUSH2 0xEA2 DUP4 DUP4 PUSH2 0x1039 JUMP JUMPDEST POP POP POP POP JUMP JUMPDEST PUSH32 0x97667070C54EF182B0F5858B034BEAC1B6F3089AA2D3188BB1E8929F4FA9B929 DUP2 JUMP JUMPDEST PUSH0 PUSH32 0x1FFC9A700000000000000000000000000000000000000000000000000000000 PUSH28 0xFFFFFFFFFFFFFFFFFFFFFFFFFFFFFFFFFFFFFFFFFFFFFFFFFFFFFFFF NOT AND DUP3 PUSH28 0xFFFFFFFFFFFFFFFFFFFFFFFFFFFFFFFFFFFFFFFFFFFFFFFFFFFFFFFF NOT AND EQ SWAP1 POP SWAP2 SWAP1 POP JUMP JUMPDEST PUSH2 0xF46 DUP2 PUSH2 0xF41 PUSH2 0x1032 JUMP JUMPDEST PUSH2 0x1365 JUMP JUMPDEST POP JUMP JUMPDEST PUSH0 PUSH2 0xF54 DUP4 DUP4 PUSH2 0x8FC JUMP JUMPDEST PUSH2 0x1028 JUMPI PUSH1 0x1 PUSH0 DUP1 DUP6 DUP2 MSTORE PUSH1 0x20 ADD SWAP1 DUP2 MSTORE PUSH1 0x20 ADD PUSH0 KECCAK256 PUSH0 ADD PUSH0 DUP5 PUSH20 0xFFFFFFFFFFFFFFFFFFFFFFFFFFFFFFFFFFFFFFFF AND PUSH20 0xFFFFFFFFFFFFFFFFFFFFFFFFFFFFFFFFFFFFFFFF AND DUP2 MSTORE PUSH1 0x20 ADD SWAP1 DUP2 MSTORE PUSH1 0x20 ADD PUSH0 KECCAK256 PUSH0 PUSH2 0x100 EXP DUP2 SLOAD DUP2 PUSH1 0xFF MUL NOT AND SWAP1 DUP4 ISZERO ISZERO MUL OR SWAP1 SSTORE POP PUSH2 0xFC5 PUSH2 0x1032 JUMP JUMPDEST PUSH20 0xFFFFFFFFFFFFFFFFFFFFFFFFFFFFFFFFFFFFFFFF AND DUP3 PUSH20 0xFFFFFFFFFFFFFFFFFFFFFFFFFFFFFFFFFFFFFFFF AND DUP5 PUSH32 0x2F8788117E7EFF1D82E926EC794901D17C78024A50270940304540A733656F0D PUSH1 0x40 MLOAD PUSH1 0x40 MLOAD DUP1 SWAP2 SUB SWAP1 LOG4 PUSH1 0x1 SWAP1 POP PUSH2 0x102C JUMP JUMPDEST PUSH0 SWAP1 POP JUMPDEST SWAP3 SWAP2 POP POP JUMP JUMPDEST PUSH0 CALLER SWAP1 POP SWAP1 JUMP JUMPDEST PUSH0 PUSH2 0x1044 DUP4 DUP4 PUSH2 0x8FC JUMP JUMPDEST ISZERO PUSH2 0x1118 JUMPI PUSH0 DUP1 PUSH0 DUP6 DUP2 MSTORE PUSH1 0x20 ADD SWAP1 DUP2 MSTORE PUSH1 0x20 ADD PUSH0 KECCAK256 PUSH0 ADD PUSH0 DUP5 PUSH20 0xFFFFFFFFFFFFFFFFFFFFFFFFFFFFFFFFFFFFFFFF AND PUSH20 0xFFFFFFFFFFFFFFFFFFFFFFFFFFFFFFFFFFFFFFFF AND DUP2 MSTORE PUSH1 0x20 ADD SWAP1 DUP2 MSTORE PUSH1 0x20 ADD PUSH0 KECCAK256 PUSH0 PUSH2 0x100 EXP DUP2 SLOAD DUP2 PUSH1 0xFF MUL NOT AND SWAP1 DUP4 ISZERO ISZERO MUL OR SWAP1 SSTORE POP PUSH2 0x10B5 PUSH2 0x1032 JUMP JUMPDEST PUSH20 0xFFFFFFFFFFFFFFFFFFFFFFFFFFFFFFFFFFFFFFFF AND DUP3 PUSH20 0xFFFFFFFFFFFFFFFFFFFFFFFFFFFFFFFFFFFFFFFF AND DUP5 PUSH32 0xF6391F5C32D9C69D2A47EA670B442974B53935D1EDC7FD64EB21E047A839171B PUSH1 0x40 MLOAD PUSH1 0x40 MLOAD DUP1 SWAP2 SUB SWAP1 LOG4 PUSH1 0x1 SWAP1 POP PUSH2 0x111C JUMP JUMPDEST PUSH0 SWAP1 POP JUMPDEST SWAP3 SWAP2 POP POP JUMP JUMPDEST PUSH0 DUP1 PUSH1 0x5 PUSH0 DUP6 DUP2 MSTORE PUSH1 0x20 ADD SWAP1 DUP2 MSTORE PUSH1 0x20 ADD PUSH0 KECCAK256 PUSH0 DUP5 PUSH20 0xFFFFFFFFFFFFFFFFFFFFFFFFFFFFFFFFFFFFFFFF AND PUSH20 0xFFFFFFFFFFFFFFFFFFFFFFFFFFFFFFFFFFFFFFFF AND DUP2 MSTORE PUSH1 0x20 ADD SWAP1 DUP2 MSTORE PUSH1 0x20 ADD PUSH0 KECCAK256 SLOAD SWAP1 POP PUSH1 0x4 PUSH0 DUP6 DUP2 MSTORE PUSH1 0x20 ADD SWAP1 DUP2 MSTORE PUSH1 0x20 ADD PUSH0 KECCAK256 DUP1 SLOAD SWAP1 POP DUP2 LT DUP1 ISZERO PUSH2 0x120B JUMPI POP DUP3 PUSH20 0xFFFFFFFFFFFFFFFFFFFFFFFFFFFFFFFFFFFFFFFF AND PUSH1 0x4 PUSH0 DUP7 DUP2 MSTORE PUSH1 0x20 ADD SWAP1 DUP2 MSTORE PUSH1 0x20 ADD PUSH0 KECCAK256 DUP3 DUP2 SLOAD DUP2 LT PUSH2 0x11CB JUMPI PUSH2 0x11CA PUSH2 0x1F83 JUMP JUMPDEST JUMPDEST SWAP1 PUSH0 MSTORE PUSH1 0x20 PUSH0 KECCAK256 ADD PUSH0 SWAP1 SLOAD SWAP1 PUSH2 0x100 EXP SWAP1 DIV PUSH20 0xFFFFFFFFFFFFFFFFFFFFFFFFFFFFFFFFFFFFFFFF AND PUSH20 0xFFFFFFFFFFFFFFFFFFFFFFFFFFFFFFFFFFFFFFFF AND EQ JUMPDEST SWAP2 POP POP SWAP3 SWAP2 POP POP JUMP JUMPDEST PUSH2 0x121C PUSH2 0x13B6 JUMP JUMPDEST PUSH0 PUSH1 0x1 PUSH0 PUSH2 0x100 EXP DUP2 SLOAD DUP2 PUSH1 0xFF MUL NOT AND SWAP1 DUP4 ISZERO ISZERO MUL OR SWAP1 SSTORE POP PUSH32 0x5DB9EE0A495BF2E6FF9C91A7834C1BA4FDD244A5E8AA4E537BD38AEAE4B073AA PUSH2 0x125E PUSH2 0x1032 JUMP JUMPDEST PUSH1 0x40 MLOAD PUSH2 0x126B SWAP2 SWAP1 PUSH2 0x1FEC JUMP JUMPDEST PUSH1 0x40 MLOAD DUP1 SWAP2 SUB SWAP1 LOG1 JUMP JUMPDEST PUSH2 0x127D PUSH2 0x5D7 JUMP JUMPDEST ISZERO PUSH2 0x12B4 JUMPI PUSH1 0x40 MLOAD PUSH32 0xD93C066500000000000000000000000000000000000000000000000000000000 DUP2 MSTORE PUSH1 0x4 ADD PUSH1 0x40 MLOAD DUP1 SWAP2 SUB SWAP1 REVERT JUMPDEST JUMP JUMPDEST PUSH2 0x12BE PUSH2 0x1275 JUMP JUMPDEST PUSH1 0x1 DUP1 PUSH0 PUSH2 0x100 EXP DUP2 SLOAD DUP2 PUSH1 0xFF MUL NOT AND SWAP1 DUP4 ISZERO ISZERO MUL OR SWAP1 SSTORE POP PUSH32 0x62E78CEA01BEE320CD4E420270B5EA74000D11B0C9F74754EBDBFC544B05A258 PUSH2 0x1300 PUSH2 0x1032 JUMP JUMPDEST PUSH1 0x40 MLOAD PUSH2 0x130D SWAP2 SWAP1 PUSH2 0x1FEC JUMP JUMPDEST PUSH1 0x40 MLOAD DUP1 SWAP2 SUB SWAP1 LOG1 JUMP JUMPDEST PUSH1 0x2 DUP1 SLOAD SUB PUSH2 0x1352 JUMPI PUSH1 0x40 MLOAD PUSH32 0x3EE5AEB500000000000000000000000000000000000000000000000000000000 DUP2 MSTORE PUSH1 0x4 ADD PUSH1 0x40 MLOAD DUP1 SWAP2 SUB SWAP1 REVERT JUMPDEST PUSH1 0x2 DUP1 DUP2 SWAP1 SSTORE POP JUMP JUMPDEST PUSH1 0x1 PUSH1 0x2 DUP2 SWAP1 SSTORE POP JUMP JUMPDEST PUSH2 0x136F DUP3 DUP3 PUSH2 0x8FC JUMP JUMPDEST PUSH2 0x13B2 JUMPI DUP1 DUP3 PUSH1 0x40 MLOAD PUSH32 0xE2517D3F00000000000000000000000000000000000000000000000000000000 DUP2 MSTORE PUSH1 0x4 ADD PUSH2 0x13A9 SWAP3 SWAP2 SWAP1 PUSH2 0x2005 JUMP JUMPDEST PUSH1 0x40 MLOAD DUP1 SWAP2 SUB SWAP1 REVERT JUMPDEST POP POP JUMP JUMPDEST PUSH2 0x13BE PUSH2 0x5D7 JUMP JUMPDEST PUSH2 0x13F4 JUMPI PUSH1 0x40 MLOAD PUSH32 0x8DFC202B00000000000000000000000000000000000000000000000000000000 DUP2 MSTORE PUSH1 0x4 ADD PUSH1 0x40 MLOAD DUP1 SWAP2 SUB SWAP1 REVERT JUMPDEST JUMP JUMPDEST POP DUP1 SLOAD PUSH2 0x1402 SWAP1 PUSH2 0x1A07 JUMP JUMPDEST PUSH0 DUP3 SSTORE DUP1 PUSH1 0x1F LT PUSH2 0x1413 JUMPI POP PUSH2 0x1430 JUMP JUMPDEST PUSH1 0x1F ADD PUSH1 0x20 SWAP1 DIV SWAP1 PUSH0 MSTORE PUSH1 0x20 PUSH0 KECCAK256 SWAP1 DUP2 ADD SWAP1 PUSH2 0x142F SWAP2 SWAP1 PUSH2 0x1451 JUMP JUMPDEST JUMPDEST POP JUMP JUMPDEST POP DUP1 SLOAD PUSH0 DUP3 SSTORE SWAP1 PUSH0 MSTORE PUSH1 0x20 PUSH0 KECCAK256 SWAP1 DUP2 ADD SWAP1 PUSH2 0x144E SWAP2 SWAP1 PUSH2 0x1451 JUMP JUMPDEST POP JUMP JUMPDEST JUMPDEST DUP1 DUP3 GT ISZERO PUSH2 0x1468 JUMPI PUSH0 DUP2 PUSH0 SWAP1 SSTORE POP PUSH1 0x1 ADD PUSH2 0x1452 JUMP JUMPDEST POP SWAP1 JUMP JUMPDEST PUSH0 PUSH1 0x40 MLOAD SWAP1 POP SWAP1 JUMP JUMPDEST PUSH0 DUP1 REVERT JUMPDEST PUSH0 DUP1 REVERT JUMPDEST PUSH0 PUSH32 0xFFFFFFFF00000000000000000000000000000000000000000000000000000000 DUP3 AND SWAP1 POP SWAP2 SWAP1 POP JUMP JUMPDEST PUSH2 0x14B1 DUP2 PUSH2 0x147D JUMP JUMPDEST DUP2 EQ PUSH2 0x14BB JUMPI PUSH0 DUP1 REVERT JUMPDEST POP JUMP JUMPDEST PUSH0 DUP2 CALLDATALOAD SWAP1 POP PUSH2 0x14CC DUP2 PUSH2 0x14A8 JUMP JUMPDEST SWAP3 SWAP2 POP POP JUMP JUMPDEST PUSH0 PUSH1 0x20 DUP3 DUP5 SUB SLT ISZERO PUSH2 0x14E7 JUMPI PUSH2 0x14E6 PUSH2 0x1475 JUMP JUMPDEST JUMPDEST PUSH0 PUSH2 0x14F4 DUP5 DUP3 DUP6 ADD PUSH2 0x14BE JUMP JUMPDEST SWAP2 POP POP SWAP3 SWAP2 POP POP JUMP JUMPDEST PUSH0 DUP2 ISZERO ISZERO SWAP1 POP SWAP2 SWAP1 POP JUMP JUMPDEST PUSH2 0x1511 DUP2 PUSH2 0x14FD JUMP JUMPDEST DUP3 MSTORE POP POP JUMP JUMPDEST PUSH0 PUSH1 0x20 DUP3 ADD SWAP1 POP PUSH2 0x152A PUSH0 DUP4 ADD DUP5 PUSH2 0x1508 JUMP JUMPDEST SWAP3 SWAP2 POP POP JUMP JUMPDEST PUSH0 DUP2 SWAP1 POP SWAP2 SWAP1 POP JUMP JUMPDEST PUSH2 0x1542 DUP2 PUSH2 0x1530 JUMP JUMPDEST DUP2 EQ PUSH2 0x154C JUMPI PUSH0 DUP1 REVERT JUMPDEST POP JUMP JUMPDEST PUSH0 DUP2 CALLDATALOAD SWAP1 POP PUSH2 0x155D DUP2 PUSH2 0x1539 JUMP JUMPDEST SWAP3 SWAP2 POP POP JUMP JUMPDEST PUSH0 PUSH1 0x20 DUP3 DUP5 SUB SLT ISZERO PUSH2 0x1578 JUMPI PUSH2 0x1577 PUSH2 0x1475 JUMP JUMPDEST JUMPDEST PUSH0 PUSH2 0x1585 DUP5 DUP3 DUP6 ADD PUSH2 0x154F JUMP JUMPDEST SWAP2 POP POP SWAP3 SWAP2 POP POP JUMP JUMPDEST PUSH0 DUP2 MLOAD SWAP1 POP SWAP2 SWAP1 POP JUMP JUMPDEST PUSH0 DUP3 DUP3 MSTORE PUSH1 0x20 DUP3 ADD SWAP1 POP SWAP3 SWAP2 POP POP JUMP JUMPDEST PUSH0 DUP2 SWAP1 POP PUSH1 0x20 DUP3 ADD SWAP1 POP SWAP2 SWAP1 POP JUMP JUMPDEST PUSH0 PUSH20 0xFFFFFFFFFFFFFFFFFFFFFFFFFFFFFFFFFFFFFFFF DUP3 AND SWAP1 POP SWAP2 SWAP1 POP JUMP JUMPDEST PUSH0 PUSH2 0x15E0 DUP3 PUSH2 0x15B7 JUMP JUMPDEST SWAP1 POP SWAP2 SWAP1 POP JUMP JUMPDEST PUSH2 0x15F0 DUP2 PUSH2 0x15D6 JUMP JUMPDEST DUP3 MSTORE POP POP JUMP JUMPDEST PUSH0 PUSH2 0x1601 DUP4 DUP4 PUSH2 0x15E7 JUMP JUMPDEST PUSH1 0x20 DUP4 ADD SWAP1 POP SWAP3 SWAP2 POP POP JUMP JUMPDEST PUSH0 PUSH1 0x20 DUP3 ADD SWAP1 POP SWAP2 SWAP1 POP JUMP JUMPDEST PUSH0 PUSH2 0x1623 DUP3 PUSH2 0x158E JUMP JUMPDEST PUSH2 0x162D DUP2 DUP6 PUSH2 0x1598 JUMP JUMPDEST SWAP4 POP PUSH2 0x1638 DUP4 PUSH2 0x15A8 JUMP JUMPDEST DUP1 PUSH0 JUMPDEST DUP4 DUP2 LT ISZERO PUSH2 0x1668 JUMPI DUP2 MLOAD PUSH2 0x164F DUP9 DUP3 PUSH2 0x15F6 JUMP JUMPDEST SWAP8 POP PUSH2 0x165A DUP4 PUSH2 0x160D JUMP JUMPDEST SWAP3 POP POP PUSH1 0x1 DUP2 ADD SWAP1 POP PUSH2 0x163B JUMP JUMPDEST POP DUP6 SWAP4 POP POP POP POP SWAP3 SWAP2 POP POP JUMP JUMPDEST PUSH0 PUSH1 0x20 DUP3 ADD SWAP1 POP DUP2 DUP2 SUB PUSH0 DUP4 ADD MSTORE PUSH2 0x168D DUP2 DUP5 PUSH2 0x1619 JUMP JUMPDEST SWAP1 POP SWAP3 SWAP2 POP POP JUMP JUMPDEST PUSH2 0x169E DUP2 PUSH2 0x1530 JUMP JUMPDEST DUP3 MSTORE POP POP JUMP JUMPDEST PUSH0 PUSH1 0x20 DUP3 ADD SWAP1 POP PUSH2 0x16B7 PUSH0 DUP4 ADD DUP5 PUSH2 0x1695 JUMP JUMPDEST SWAP3 SWAP2 POP POP JUMP JUMPDEST PUSH0 DUP2 SWAP1 POP SWAP2 SWAP1 POP JUMP JUMPDEST PUSH0 PUSH2 0x16E0 PUSH2 0x16DB PUSH2 0x16D6 DUP5 PUSH2 0x15B7 JUMP JUMPDEST PUSH2 0x16BD JUMP JUMPDEST PUSH2 0x15B7 JUMP JUMPDEST SWAP1 POP SWAP2 SWAP1 POP JUMP JUMPDEST PUSH0 PUSH2 0x16F1 DUP3 PUSH2 0x16C6 JUMP JUMPDEST SWAP1 POP SWAP2 SWAP1 POP JUMP JUMPDEST PUSH0 PUSH2 0x1702 DUP3 PUSH2 0x16E7 JUMP JUMPDEST SWAP1 POP SWAP2 SWAP1 POP JUMP JUMPDEST PUSH2 0x1712 DUP2 PUSH2 0x16F8 JUMP JUMPDEST DUP3 MSTORE POP POP JUMP JUMPDEST PUSH0 PUSH1 0x20 DUP3 ADD SWAP1 POP PUSH2 0x172B PUSH0 DUP4 ADD DUP5 PUSH2 0x1709 JUMP JUMPDEST SWAP3 SWAP2 POP POP JUMP JUMPDEST PUSH2 0x173A DUP2 PUSH2 0x15D6 JUMP JUMPDEST DUP2 EQ PUSH2 0x1744 JUMPI PUSH0 DUP1 REVERT JUMPDEST POP JUMP JUMPDEST PUSH0 DUP2 CALLDATALOAD SWAP1 POP PUSH2 0x1755 DUP2 PUSH2 0x1731 JUMP JUMPDEST SWAP3 SWAP2 POP POP JUMP JUMPDEST PUSH0 DUP1 PUSH1 0x40 DUP4 DUP6 SUB SLT ISZERO PUSH2 0x1771 JUMPI PUSH2 0x1770 PUSH2 0x1475 JUMP JUMPDEST JUMPDEST PUSH0 PUSH2 0x177E DUP6 DUP3 DUP7 ADD PUSH2 0x154F JUMP JUMPDEST SWAP3 POP POP PUSH1 0x20 PUSH2 0x178F DUP6 DUP3 DUP7 ADD PUSH2 0x1747 JUMP JUMPDEST SWAP2 POP POP SWAP3 POP SWAP3 SWAP1 POP JUMP JUMPDEST PUSH0 DUP1 REVERT JUMPDEST PUSH0 DUP1 REVERT JUMPDEST PUSH0 PUSH1 0x1F NOT PUSH1 0x1F DUP4 ADD AND SWAP1 POP SWAP2 SWAP1 POP JUMP JUMPDEST PUSH32 0x4E487B7100000000000000000000000000000000000000000000000000000000 PUSH0 MSTORE PUSH1 0x41 PUSH1 0x4 MSTORE PUSH1 0x24 PUSH0 REVERT JUMPDEST PUSH2 0x17E7 DUP3 PUSH2 0x17A1 JUMP JUMPDEST DUP2 ADD DUP2 DUP2 LT PUSH8 0xFFFFFFFFFFFFFFFF DUP3 GT OR ISZERO PUSH2 0x1806 JUMPI PUSH2 0x1805 PUSH2 0x17B1 JUMP JUMPDEST JUMPDEST DUP1 PUSH1 0x40 MSTORE POP POP POP JUMP JUMPDEST PUSH0 PUSH2 0x1818 PUSH2 0x146C JUMP JUMPDEST SWAP1 POP PUSH2 0x1824 DUP3 DUP3 PUSH2 0x17DE JUMP JUMPDEST SWAP2 SWAP1 POP JUMP JUMPDEST PUSH0 PUSH8 0xFFFFFFFFFFFFFFFF DUP3 GT ISZERO PUSH2 0x1843 JUMPI PUSH2 0x1842 PUSH2 0x17B1 JUMP JUMPDEST JUMPDEST PUSH2 0x184C DUP3 PUSH2 0x17A1 JUMP JUMPDEST SWAP1 POP PUSH1 0x20 DUP2 ADD SWAP1 POP SWAP2 SWAP1 POP JUMP JUMPDEST DUP3 DUP2 DUP4 CALLDATACOPY PUSH0 DUP4 DUP4 ADD MSTORE POP POP POP JUMP JUMPDEST PUSH0 PUSH2 0x1879 PUSH2 0x1874 DUP5 PUSH2 0x1829 JUMP JUMPDEST PUSH2 0x180F JUMP JUMPDEST SWAP1 POP DUP3 DUP2 MSTORE PUSH1 0x20 DUP2 ADD DUP5 DUP5 DUP5 ADD GT ISZERO PUSH2 0x1895 JUMPI PUSH2 0x1894 PUSH2 0x179D JUMP JUMPDEST JUMPDEST PUSH2 0x18A0 DUP5 DUP3 DUP6 PUSH2 0x1859 JUMP JUMPDEST POP SWAP4 SWAP3 POP POP POP JUMP JUMPDEST PUSH0 DUP3 PUSH1 0x1F DUP4 ADD SLT PUSH2 0x18BC JUMPI PUSH2 0x18BB PUSH2 0x1799 JUMP JUMPDEST JUMPDEST DUP2 CALLDATALOAD PUSH2 0x18CC DUP5 DUP3 PUSH1 0x20 DUP7 ADD PUSH2 0x1867 JUMP JUMPDEST SWAP2 POP POP SWAP3 SWAP2 POP POP JUMP JUMPDEST PUSH0 DUP1 PUSH1 0x40 DUP4 DUP6 SUB SLT ISZERO PUSH2 0x18EB JUMPI PUSH2 0x18EA PUSH2 0x1475 JUMP JUMPDEST JUMPDEST PUSH0 PUSH2 0x18F8 DUP6 DUP3 DUP7 ADD PUSH2 0x154F JUMP JUMPDEST SWAP3 POP POP PUSH1 0x20 DUP4 ADD CALLDATALOAD PUSH8 0xFFFFFFFFFFFFFFFF DUP2 GT ISZERO PUSH2 0x1919 JUMPI PUSH2 0x1918 PUSH2 0x1479 JUMP JUMPDEST JUMPDEST PUSH2 0x1925 DUP6 DUP3 DUP7 ADD PUSH2 0x18A8 JUMP JUMPDEST SWAP2 POP POP SWAP3 POP SWAP3 SWAP1 POP JUMP JUMPDEST PUSH0 PUSH1 0x20 DUP3 DUP5 SUB SLT ISZERO PUSH2 0x1944 JUMPI PUSH2 0x1943 PUSH2 0x1475 JUMP JUMPDEST JUMPDEST PUSH0 PUSH2 0x1951 DUP5 DUP3 DUP6 ADD PUSH2 0x1747 JUMP JUMPDEST SWAP2 POP POP SWAP3 SWAP2 POP POP JUMP JUMPDEST PUSH0 DUP2 MLOAD SWAP1 POP SWAP2 SWAP1 POP JUMP JUMPDEST PUSH0 DUP3 DUP3 MSTORE PUSH1 0x20 DUP3 ADD SWAP1 POP SWAP3 SWAP2 POP POP JUMP JUMPDEST DUP3 DUP2 DUP4 MCOPY PUSH0 DUP4 DUP4 ADD MSTORE POP POP POP JUMP JUMPDEST PUSH0 PUSH2 0x198C DUP3 PUSH2 0x195A JUMP JUMPDEST PUSH2 0x1996 DUP2 DUP6 PUSH2 0x1964 JUMP JUMPDEST SWAP4 POP PUSH2 0x19A6 DUP2 DUP6 PUSH1 0x20 DUP7 ADD PUSH2 0x1974 JUMP JUMPDEST PUSH2 0x19AF DUP2 PUSH2 0x17A1 JUMP JUMPDEST DUP5 ADD SWAP2 POP POP SWAP3 SWAP2 POP POP JUMP JUMPDEST PUSH0 PUSH1 0x20 DUP3 ADD SWAP1 POP DUP2 DUP2 SUB PUSH0 DUP4 ADD MSTORE PUSH2 0x19D2 DUP2 DUP5 PUSH2 0x1982 JUMP JUMPDEST SWAP1 POP SWAP3 SWAP2 POP POP JUMP JUMPDEST PUSH32 0x4E487B7100000000000000000000000000000000000000000000000000000000 PUSH0 MSTORE PUSH1 0x22 PUSH1 0x4 MSTORE PUSH1 0x24 PUSH0 REVERT JUMPDEST PUSH0 PUSH1 0x2 DUP3 DIV SWAP1 POP PUSH1 0x1 DUP3 AND DUP1 PUSH2 0x1A1E JUMPI PUSH1 0x7F DUP3 AND SWAP2 POP JUMPDEST PUSH1 0x20 DUP3 LT DUP2 SUB PUSH2 0x1A31 JUMPI PUSH2 0x1A30 PUSH2 0x19DA JUMP JUMPDEST JUMPDEST POP SWAP2 SWAP1 POP JUMP JUMPDEST PUSH0 DUP3 DUP3 MSTORE PUSH1 0x20 DUP3 ADD SWAP1 POP SWAP3 SWAP2 POP POP JUMP JUMPDEST PUSH32 0x546F7272656E74206E6F7420666F756E64000000000000000000000000000000 PUSH0 DUP3 ADD MSTORE POP JUMP JUMPDEST PUSH0 PUSH2 0x1A7B PUSH1 0x11 DUP4 PUSH2 0x1A37 JUMP JUMPDEST SWAP2 POP PUSH2 0x1A86 DUP3 PUSH2 0x1A47 JUMP JUMPDEST PUSH1 0x20 DUP3 ADD SWAP1 POP SWAP2 SWAP1 POP JUMP JUMPDEST PUSH0 PUSH1 0x20 DUP3 ADD SWAP1 POP DUP2 DUP2 SUB PUSH0 DUP4 ADD MSTORE PUSH2 0x1AA8 DUP2 PUSH2 0x1A6F JUMP JUMPDEST SWAP1 POP SWAP2 SWAP1 POP JUMP JUMPDEST PUSH32 0x416C726561647920696E20737761726D00000000000000000000000000000000 PUSH0 DUP3 ADD MSTORE POP JUMP JUMPDEST PUSH0 PUSH2 0x1AE3 PUSH1 0x10 DUP4 PUSH2 0x1A37 JUMP JUMPDEST SWAP2 POP PUSH2 0x1AEE DUP3 PUSH2 0x1AAF JUMP JUMPDEST PUSH1 0x20 DUP3 ADD SWAP1 POP SWAP2 SWAP1 POP JUMP JUMPDEST PUSH0 PUSH1 0x20 DUP3 ADD SWAP1 POP DUP2 DUP2 SUB PUSH0 DUP4 ADD MSTORE PUSH2 0x1B10 DUP2 PUSH2 0x1AD7 JUMP JUMPDEST SWAP1 POP SWAP2 SWAP1 POP JUMP JUMPDEST PUSH0 DUP2 SWAP1 POP SWAP2 SWAP1 POP JUMP JUMPDEST PUSH32 0x4E487B7100000000000000000000000000000000000000000000000000000000 PUSH0 MSTORE PUSH1 0x11 PUSH1 0x4 MSTORE PUSH1 0x24 PUSH0 REVERT JUMPDEST PUSH0 PUSH2 0x1B57 DUP3 PUSH2 0x1B17 JUMP JUMPDEST SWAP2 POP PUSH2 0x1B62 DUP4 PUSH2 0x1B17 JUMP JUMPDEST SWAP3 POP DUP3 DUP3 SUB SWAP1 POP DUP2 DUP2 GT ISZERO PUSH2 0x1B7A JUMPI PUSH2 0x1B79 PUSH2 0x1B20 JUMP JUMPDEST JUMPDEST SWAP3 SWAP2 POP POP JUMP JUMPDEST PUSH32 0x546F7272656E7420616C72656164792065786973747300000000000000000000 PUSH0 DUP3 ADD MSTORE POP JUMP JUMPDEST PUSH0 PUSH2 0x1BB4 PUSH1 0x16 DUP4 PUSH2 0x1A37 JUMP JUMPDEST SWAP2 POP PUSH2 0x1BBF DUP3 PUSH2 0x1B80 JUMP JUMPDEST PUSH1 0x20 DUP3 ADD SWAP1 POP SWAP2 SWAP1 POP JUMP JUMPDEST PUSH0 PUSH1 0x20 DUP3 ADD SWAP1 POP DUP2 DUP2 SUB PUSH0 DUP4 ADD MSTORE PUSH2 0x1BE1 DUP2 PUSH2 0x1BA8 JUMP JUMPDEST SWAP1 POP SWAP2 SWAP1 POP JUMP JUMPDEST PUSH32 0x456D707479206D65746164617461000000000000000000000000000000000000 PUSH0 DUP3 ADD MSTORE POP JUMP JUMPDEST PUSH0 PUSH2 0x1C1C PUSH1 0xE DUP4 PUSH2 0x1A37 JUMP JUMPDEST SWAP2 POP PUSH2 0x1C27 DUP3 PUSH2 0x1BE8 JUMP JUMPDEST PUSH1 0x20 DUP3 ADD SWAP1 POP SWAP2 SWAP1 POP JUMP JUMPDEST PUSH0 PUSH1 0x20 DUP3 ADD SWAP1 POP DUP2 DUP2 SUB PUSH0 DUP4 ADD MSTORE PUSH2 0x1C49 DUP2 PUSH2 0x1C10 JUMP JUMPDEST SWAP1 POP SWAP2 SWAP1 POP JUMP JUMPDEST PUSH0 DUP2 SWAP1 POP DUP2 PUSH0 MSTORE PUSH1 0x20 PUSH0 KECCAK256 SWAP1 POP SWAP2 SWAP1 POP JUMP JUMPDEST PUSH0 PUSH1 0x20 PUSH1 0x1F DUP4 ADD DIV SWAP1 POP SWAP2 SWAP1 POP JUMP JUMPDEST PUSH0 DUP3 DUP3 SHL SWAP1 POP SWAP3 SWAP2 POP POP JUMP JUMPDEST PUSH0 PUSH1 0x8 DUP4 MUL PUSH2 0x1CAC PUSH32 0xFFFFFFFFFFFFFFFFFFFFFFFFFFFFFFFFFFFFFFFFFFFFFFFFFFFFFFFFFFFFFFFF DUP3 PUSH2 0x1C71 JUMP JUMPDEST PUSH2 0x1CB6 DUP7 DUP4 PUSH2 0x1C71 JUMP JUMPDEST SWAP6 POP DUP1 NOT DUP5 AND SWAP4 POP DUP1 DUP7 AND DUP5 OR SWAP3 POP POP POP SWAP4 SWAP3 POP POP POP JUMP JUMPDEST PUSH0 PUSH2 0x1CE8 PUSH2 0x1CE3 PUSH2 0x1CDE DUP5 PUSH2 0x1B17 JUMP JUMPDEST PUSH2 0x16BD JUMP JUMPDEST PUSH2 0x1B17 JUMP JUMPDEST SWAP1 POP SWAP2 SWAP1 POP JUMP JUMPDEST PUSH0 DUP2 SWAP1 POP SWAP2 SWAP1 POP JUMP JUMPDEST PUSH2 0x1D01 DUP4 PUSH2 0x1CCE JUMP JUMPDEST PUSH2 0x1D15 PUSH2 0x1D0D DUP3 PUSH2 0x1CEF JUMP JUMPDEST DUP5 DUP5 SLOAD PUSH2 0x1C7D JUMP JUMPDEST DUP3 SSTORE POP POP POP POP JUMP JUMPDEST PUSH0 SWAP1 JUMP JUMPDEST PUSH2 0x1D29 PUSH2 0x1D1D JUMP JUMPDEST PUSH2 0x1D34 DUP2 DUP5 DUP5 PUSH2 0x1CF8 JUMP JUMPDEST POP POP POP JUMP JUMPDEST JUMPDEST DUP2 DUP2 LT ISZERO PUSH2 0x1D57 JUMPI PUSH2 0x1D4C PUSH0 DUP3 PUSH2 0x1D21 JUMP JUMPDEST PUSH1 0x1 DUP2 ADD SWAP1 POP PUSH2 0x1D3A JUMP JUMPDEST POP POP JUMP JUMPDEST PUSH1 0x1F DUP3 GT ISZERO PUSH2 0x1D9C JUMPI PUSH2 0x1D6D DUP2 PUSH2 0x1C50 JUMP JUMPDEST PUSH2 0x1D76 DUP5 PUSH2 0x1C62 JUMP JUMPDEST DUP2 ADD PUSH1 0x20 DUP6 LT ISZERO PUSH2 0x1D85 JUMPI DUP2 SWAP1 POP JUMPDEST PUSH2 0x1D99 PUSH2 0x1D91 DUP6 PUSH2 0x1C62 JUMP JUMPDEST DUP4 ADD DUP3 PUSH2 0x1D39 JUMP JUMPDEST POP POP JUMPDEST POP POP POP JUMP JUMPDEST PUSH0 DUP3 DUP3 SHR SWAP1 POP SWAP3 SWAP2 POP POP JUMP JUMPDEST PUSH0 PUSH2 0x1DBC PUSH0 NOT DUP5 PUSH1 0x8 MUL PUSH2 0x1DA1 JUMP JUMPDEST NOT DUP1 DUP4 AND SWAP2 POP POP SWAP3 SWAP2 POP POP JUMP JUMPDEST PUSH0 PUSH2 0x1DD4 DUP4 DUP4 PUSH2 0x1DAD JUMP JUMPDEST SWAP2 POP DUP3 PUSH1 0x2 MUL DUP3 OR SWAP1 POP SWAP3 SWAP2 POP POP JUMP JUMPDEST PUSH2 0x1DED DUP3 PUSH2 0x195A JUMP JUMPDEST PUSH8 0xFFFFFFFFFFFFFFFF DUP2 GT ISZERO PUSH2 0x1E06 JUMPI PUSH2 0x1E05 PUSH2 0x17B1 JUMP JUMPDEST JUMPDEST PUSH2 0x1E10 DUP3 SLOAD PUSH2 0x1A07 JUMP JUMPDEST PUSH2 0x1E1B DUP3 DUP3 DUP6 PUSH2 0x1D5B JUMP JUMPDEST PUSH0 PUSH1 0x20 SWAP1 POP PUSH1 0x1F DUP4 GT PUSH1 0x1 DUP2 EQ PUSH2 0x1E4C JUMPI PUSH0 DUP5 ISZERO PUSH2 0x1E3A JUMPI DUP3 DUP8 ADD MLOAD SWAP1 POP JUMPDEST PUSH2 0x1E44 DUP6 DUP3 PUSH2 0x1DC9 JUMP JUMPDEST DUP7 SSTORE POP PUSH2 0x1EAB JUMP JUMPDEST PUSH1 0x1F NOT DUP5 AND PUSH2 0x1E5A DUP7 PUSH2 0x1C50 JUMP JUMPDEST PUSH0 JUMPDEST DUP3 DUP2 LT ISZERO PUSH2 0x1E81 JUMPI DUP5 DUP10 ADD MLOAD DUP3 SSTORE PUSH1 0x1 DUP3 ADD SWAP2 POP PUSH1 0x20 DUP6 ADD SWAP5 POP PUSH1 0x20 DUP2 ADD SWAP1 POP PUSH2 0x1E5C JUMP JUMPDEST DUP7 DUP4 LT ISZERO PUSH2 0x1E9E JUMPI DUP5 DUP10 ADD MLOAD PUSH2 0x1E9A PUSH1 0x1F DUP10 AND DUP3 PUSH2 0x1DAD JUMP JUMPDEST DUP4 SSTORE POP JUMPDEST PUSH1 0x1 PUSH1 0x2 DUP9 MUL ADD DUP9 SSTORE POP POP POP JUMPDEST POP POP POP POP POP POP JUMP JUMPDEST PUSH32 0x496E76616C696420766572696669657220616464726573730000000000000000 PUSH0 DUP3 ADD MSTORE POP JUMP JUMPDEST PUSH0 PUSH2 0x1EE7 PUSH1 0x18 DUP4 PUSH2 0x1A37 JUMP JUMPDEST SWAP2 POP PUSH2 0x1EF2 DUP3 PUSH2 0x1EB3 JUMP JUMPDEST PUSH1 0x20 DUP3 ADD SWAP1 POP SWAP2 SWAP1 POP JUMP JUMPDEST PUSH0 PUSH1 0x20 DUP3 ADD SWAP1 POP DUP2 DUP2 SUB PUSH0 DUP4 ADD MSTORE PUSH2 0x1F14 DUP2 PUSH2 0x1EDB JUMP JUMPDEST SWAP1 POP SWAP2 SWAP1 POP JUMP JUMPDEST PUSH32 0x4E6F7420696E20737761726D0000000000000000000000000000000000000000 PUSH0 DUP3 ADD MSTORE POP JUMP JUMPDEST PUSH0 PUSH2 0x1F4F PUSH1 0xC DUP4 PUSH2 0x1A37 JUMP JUMPDEST SWAP2 POP PUSH2 0x1F5A DUP3 PUSH2 0x1F1B JUMP JUMPDEST PUSH1 0x20 DUP3 ADD SWAP1 POP SWAP2 SWAP1 POP JUMP JUMPDEST PUSH0 PUSH1 0x20 DUP3 ADD SWAP1 POP DUP2 DUP2 SUB PUSH0 DUP4 ADD MSTORE PUSH2 0x1F7C DUP2 PUSH2 0x1F43 JUMP JUMPDEST SWAP1 POP SWAP2 SWAP1 POP JUMP JUMPDEST PUSH32 0x4E487B7100000000000000000000000000000000000000000000000000000000 PUSH0 MSTORE PUSH1 0x32 PUSH1 0x4 MSTORE PUSH1 0x24 PUSH0 REVERT JUMPDEST PUSH32 0x4E487B7100000000000000000000000000000000000000000000000000000000 PUSH0 MSTORE PUSH1 0x31 PUSH1 0x4 MSTORE PUSH1 0x24 PUSH0 REVERT JUMPDEST PUSH2 0x1FE6 DUP2 PUSH2 0x15D6 JUMP JUMPDEST DUP3 MSTORE POP POP JUMP JUMPDEST PUSH0 PUSH1 0x20 DUP3 ADD SWAP1 POP PUSH2 0x1FFF PUSH0 DUP4 ADD DUP5 PUSH2 0x1FDD JUMP JUMPDEST SWAP3 SWAP2 POP POP JUMP JUMPDEST PUSH0 PUSH1 0x40 DUP3 ADD SWAP1 POP PUSH2 0x2018 PUSH0 DUP4 ADD DUP6 PUSH2 0x1FDD JUMP JUMPDEST PUSH2 0x2025 PUSH1 0x20 DUP4 ADD DUP5 PUSH2 0x1695 JUMP JUMPDEST SWAP4 SWAP3 POP POP POP JUMP INVALID LOG2 PUSH5 0x6970667358 0x22 SLT KECCAK256 DUP9 PUSH20 0xCDC3F3431D783C09784A3FCDB6D984E4E943B2C9 PUSH11 0x926BC35F8D7D0446966473 PUSH16 0x6C634300081A00330000000000000000 "
		},
		"gasEstimates": {
			"creation": {
				"codeDepositCost": "1658000",
				"executionCost": "infinite",
				"totalCost": "infinite"
			},
			"external": {
				"DEFAULT_ADMIN_ROLE()": "374",
				"OPERATOR_ROLE()": "435",
				"addTorrent(bytes32,bytes)": "infinite",
				"getRoleAdmin(bytes32)": "infinite",
				"getSwarmPeers(bytes32)": "infinite",
				"getTorrentMetadata(bytes32)": "infinite",
				"grantRole(bytes32,address)": "infinite",
				"hasRole(bytes32,address)": "3189",
				"isPeerInSwarm(bytes32,address)": "9809",
				"joinSwarm(bytes32)": "infinite",
				"leaveSwarm(bytes32)": "infinite",
				"pause()": "infinite",
				"paused()": "2562",
				"removeTorrent(bytes32)": "infinite",
				"renounceRole(bytes32,address)": "infinite",
				"revokeRole(bytes32,address)": "infinite",
				"supportsInterface(bytes4)": "741",
				"unpause()": "infinite",
				"updateVerifier(address)": "infinite",
				"verifier()": "infinite"
			},
			"internal": {
				"_isPeerInSwarm(bytes32,address)": "8934"
			}
		},
		"methodIdentifiers": {
			"DEFAULT_ADMIN_ROLE()": "a217fddf",
			"OPERATOR_ROLE()": "f5b541a6",
			"addTorrent(bytes32,bytes)": "85a80265",
			"getRoleAdmin(bytes32)": "248a9ca3",
			"getSwarmPeers(bytes32)": "1a26edb5",
			"getTorrentMetadata(bytes32)": "c7aa2f1e",
			"grantRole(bytes32,address)": "2f2ff15d",
			"hasRole(bytes32,address)": "91d14854",
			"isPeerInSwarm(bytes32,address)": "3d2babf2",
			"joinSwarm(bytes32)": "675fd3e6",
			"leaveSwarm(bytes32)": "9a5e71c2",
			"pause()": "8456cb59",
			"paused()": "5c975abb",
			"removeTorrent(bytes32)": "97ab3501",
			"renounceRole(bytes32,address)": "36568abe",
			"revokeRole(bytes32,address)": "d547741f",
			"supportsInterface(bytes4)": "01ffc9a7",
			"unpause()": "3f4ba83a",
			"updateVerifier(address)": "97fc007c",
			"verifier()": "2b7ac3f3"
		}
	},
	"abi": [
		{
			"inputs": [
				{
					"internalType": "address",
					"name": "_verifier",
					"type": "address"
				}
			],
			"stateMutability": "nonpayable",
			"type": "constructor"
		},
		{
			"inputs": [],
			"name": "AccessControlBadConfirmation",
			"type": "error"
		},
		{
			"inputs": [
				{
					"internalType": "address",
					"name": "account",
					"type": "address"
				},
				{
					"internalType": "bytes32",
					"name": "neededRole",
					"type": "bytes32"
				}
			],
			"name": "AccessControlUnauthorizedAccount",
			"type": "error"
		},
		{
			"inputs": [],
			"name": "EnforcedPause",
			"type": "error"
		},
		{
			"inputs": [],
			"name": "ExpectedPause",
			"type": "error"
		},
		{
			"inputs": [],
			"name": "ReentrancyGuardReentrantCall",
			"type": "error"
		},
		{
			"anonymous": false,
			"inputs": [
				{
					"indexed": false,
					"internalType": "address",
					"name": "account",
					"type": "address"
				}
			],
			"name": "Paused",
			"type": "event"
		},
		{
			"anonymous": false,
			"inputs": [
				{
					"indexed": true,
					"internalType": "bytes32",
					"name": "role",
					"type": "bytes32"
				},
				{
					"indexed": true,
					"internalType": "bytes32",
					"name": "previousAdminRole",
					"type": "bytes32"
				},
				{
					"indexed": true,
					"internalType": "bytes32",
					"name": "newAdminRole",
					"type": "bytes32"
				}
			],
			"name": "RoleAdminChanged",
			"type": "event"
		},
		{
			"anonymous": false,
			"inputs": [
				{
					"indexed": true,
					"internalType": "bytes32",
					"name": "role",
					"type": "bytes32"
				},
				{
					"indexed": true,
					"internalType": "address",
					"name": "account",
					"type": "address"
				},
				{
					"indexed": true,
					"internalType": "address",
					"name": "sender",
					"type": "address"
				}
			],
			"name": "RoleGranted",
			"type": "event"
		},
		{
			"anonymous": false,
			"inputs": [
				{
					"indexed": true,
					"internalType": "bytes32",
					"name": "role",
					"type": "bytes32"
				},
				{
					"indexed": true,
					"internalType": "address",
					"name": "account",
					"type": "address"
				},
				{
					"indexed": true,
					"internalType": "address",
					"name": "sender",
					"type": "address"
				}
			],
			"name": "RoleRevoked",
			"type": "event"
		},
		{
			"anonymous": false,
			"inputs": [
				{
					"indexed": true,
					"internalType": "bytes32",
					"name": "torrentHash",
					"type": "bytes32"
				},
				{
					"indexed": true,
					"internalType": "address",
					"name": "peer",
					"type": "address"
				}
			],
			"name": "SwarmJoined",
			"type": "event"
		},
		{
			"anonymous": false,
			"inputs": [
				{
					"indexed": true,
					"internalType": "bytes32",
					"name": "torrentHash",
					"type": "bytes32"
				},
				{
					"indexed": true,
					"internalType": "address",
					"name": "peer",
					"type": "address"
				}
			],
			"name": "SwarmLeft",
			"type": "event"
		},
		{
			"anonymous": false,
			"inputs": [
				{
					"indexed": true,
					"internalType": "bytes32",
					"name": "torrentHash",
					"type": "bytes32"
				},
				{
					"indexed": true,
					"internalType": "address",
					"name": "owner",
					"type": "address"
				}
			],
			"name": "TorrentAdded",
			"type": "event"
		},
		{
			"anonymous": false,
			"inputs": [
				{
					"indexed": true,
					"internalType": "bytes32",
					"name": "torrentHash",
					"type": "bytes32"
				},
				{
					"indexed": true,
					"internalType": "address",
					"name": "remover",
					"type": "address"
				}
			],
			"name": "TorrentRemoved",
			"type": "event"
		},
		{
			"anonymous": false,
			"inputs": [
				{
					"indexed": false,
					"internalType": "address",
					"name": "account",
					"type": "address"
				}
			],
			"name": "Unpaused",
			"type": "event"
		},
		{
			"inputs": [],
			"name": "DEFAULT_ADMIN_ROLE",
			"outputs": [
				{
					"internalType": "bytes32",
					"name": "",
					"type": "bytes32"
				}
			],
			"stateMutability": "view",
			"type": "function"
		},
		{
			"inputs": [],
			"name": "OPERATOR_ROLE",
			"outputs": [
				{
					"internalType": "bytes32",
					"name": "",
					"type": "bytes32"
				}
			],
			"stateMutability": "view",
			"type": "function"
		},
		{
			"inputs": [
				{
					"internalType": "bytes32",
					"name": "torrentHash",
					"type": "bytes32"
				},
				{
					"internalType": "bytes",
					"name": "metadata",
					"type": "bytes"
				}
			],
			"name": "addTorrent",
			"outputs": [],
			"stateMutability": "nonpayable",
			"type": "function"
		},
		{
			"inputs": [
				{
					"internalType": "bytes32",
					"name": "role",
					"type": "bytes32"
				}
			],
			"name": "getRoleAdmin",
			"outputs": [
				{
					"internalType": "bytes32",
					"name": "",
					"type": "bytes32"
				}
			],
			"stateMutability": "view",
			"type": "function"
		},
		{
			"inputs": [
				{
					"internalType": "bytes32",
					"name": "torrentHash",
					"type": "bytes32"
				}
			],
			"name": "getSwarmPeers",
			"outputs": [
				{
					"internalType": "address[]",
					"name": "",
					"type": "address[]"
				}
			],
			"stateMutability": "view",
			"type": "function"
		},
		{
			"inputs": [
				{
					"internalType": "bytes32",
					"name": "torrentHash",
					"type": "bytes32"
				}
			],
			"name": "getTorrentMetadata",
			"outputs": [
				{
					"internalType": "bytes",
					"name": "",
					"type": "bytes"
				}
			],
			"stateMutability": "view",
			"type": "function"
		},
		{
			"inputs": [
				{
					"internalType": "bytes32",
					"name": "role",
					"type": "bytes32"
				},
				{
					"internalType": "address",
					"name": "account",
					"type": "address"
				}
			],
			"name": "grantRole",
			"outputs": [],
			"stateMutability": "nonpayable",
			"type": "function"
		},
		{
			"inputs": [
				{
					"internalType": "bytes32",
					"name": "role",
					"type": "bytes32"
				},
				{
					"internalType": "address",
					"name": "account",
					"type": "address"
				}
			],
			"name": "hasRole",
			"outputs": [
				{
					"internalType": "bool",
					"name": "",
					"type": "bool"
				}
			],
			"stateMutability": "view",
			"type": "function"
		},
		{
			"inputs": [
				{
					"internalType": "bytes32",
					"name": "torrentHash",
					"type": "bytes32"
				},
				{
					"internalType": "address",
					"name": "peer",
					"type": "address"
				}
			],
			"name": "isPeerInSwarm",
			"outputs": [
				{
					"internalType": "bool",
					"name": "",
					"type": "bool"
				}
			],
			"stateMutability": "view",
			"type": "function"
		},
		{
			"inputs": [
				{
					"internalType": "bytes32",
					"name": "torrentHash",
					"type": "bytes32"
				}
			],
			"name": "joinSwarm",
			"outputs": [],
			"stateMutability": "nonpayable",
			"type": "function"
		},
		{
			"inputs": [
				{
					"internalType": "bytes32",
					"name": "torrentHash",
					"type": "bytes32"
				}
			],
			"name": "leaveSwarm",
			"outputs": [],
			"stateMutability": "nonpayable",
			"type": "function"
		},
		{
			"inputs": [],
			"name": "pause",
			"outputs": [],
			"stateMutability": "nonpayable",
			"type": "function"
		},
		{
			"inputs": [],
			"name": "paused",
			"outputs": [
				{
					"internalType": "bool",
					"name": "",
					"type": "bool"
				}
			],
			"stateMutability": "view",
			"type": "function"
		},
		{
			"inputs": [
				{
					"internalType": "bytes32",
					"name": "torrentHash",
					"type": "bytes32"
				}
			],
			"name": "removeTorrent",
			"outputs": [],
			"stateMutability": "nonpayable",
			"type": "function"
		},
		{
			"inputs": [
				{
					"internalType": "bytes32",
					"name": "role",
					"type": "bytes32"
				},
				{
					"internalType": "address",
					"name": "callerConfirmation",
					"type": "address"
				}
			],
			"name": "renounceRole",
			"outputs": [],
			"stateMutability": "nonpayable",
			"type": "function"
		},
		{
			"inputs": [
				{
					"internalType": "bytes32",
					"name": "role",
					"type": "bytes32"
				},
				{
					"internalType": "address",
					"name": "account",
					"type": "address"
				}
			],
			"name": "revokeRole",
			"outputs": [],
			"stateMutability": "nonpayable",
			"type": "function"
		},
		{
			"inputs": [
				{
					"internalType": "bytes4",
					"name": "interfaceId",
					"type": "bytes4"
				}
			],
			"name": "supportsInterface",
			"outputs": [
				{
					"internalType": "bool",
					"name": "",
					"type": "bool"
				}
			],
			"stateMutability": "view",
			"type": "function"
		},
		{
			"inputs": [],
			"name": "unpause",
			"outputs": [],
			"stateMutability": "nonpayable",
			"type": "function"
		},
		{
			"inputs": [
				{
					"internalType": "address",
					"name": "_verifier",
					"type": "address"
				}
			],
			"name": "updateVerifier",
			"outputs": [],
			"stateMutability": "nonpayable",
			"type": "function"
		},
		{
			"inputs": [],
			"name": "verifier",
			"outputs": [
				{
					"internalType": "contract IVerifier",
					"name": "",
					"type": "address"
				}
			],
			"stateMutability": "view",
			"type": "function"
		}
	]
}