{
	"core/PrivacyPool.sol": {
		"PrivacyPool": {
			"abi": [
				{
					"inputs": [
						{
							"internalType": "address",
							"name": "_token",
							"type": "address"
						},
						{
							"internalType": "address",
							"name": "_verifier",
							"type": "address"
						},
						{
							"internalType": "address",
							"name": "_owner",
							"type": "address"
						}
					],
					"stateMutability": "nonpayable",
					"type": "constructor"
				},
				{
					"inputs": [],
					"name": "EnforcedPause",
					"type": "error"
				},
				{
					"inputs": [],
					"name": "ExpectedPause",
					"type": "error"
				},
				{
					"inputs": [
						{
							"internalType": "address",
							"name": "owner",
							"type": "address"
						}
					],
					"name": "OwnableInvalidOwner",
					"type": "error"
				},
				{
					"inputs": [
						{
							"internalType": "address",
							"name": "account",
							"type": "address"
						}
					],
					"name": "OwnableUnauthorizedAccount",
					"type": "error"
				},
				{
					"inputs": [],
					"name": "ReentrancyGuardReentrantCall",
					"type": "error"
				},
				{
					"anonymous": false,
					"inputs": [
						{
							"indexed": true,
							"internalType": "address",
							"name": "owner",
							"type": "address"
						},
						{
							"indexed": false,
							"internalType": "uint256",
							"name": "amount",
							"type": "uint256"
						},
						{
							"indexed": false,
							"internalType": "uint256",
							"name": "timestamp",
							"type": "uint256"
						}
					],
					"name": "EmergencyWithdrawal",
					"type": "event"
				},
				{
					"anonymous": false,
					"inputs": [
						{
							"indexed": true,
							"internalType": "bytes32",
							"name": "commitment",
							"type": "bytes32"
						},
						{
							"indexed": false,
							"internalType": "uint256",
							"name": "amount",
							"type": "uint256"
						},
						{
							"indexed": false,
							"internalType": "uint256",
							"name": "timestamp",
							"type": "uint256"
						}
					],
					"name": "NoteDeposited",
					"type": "event"
				},
				{
					"anonymous": false,
					"inputs": [
						{
							"indexed": true,
							"internalType": "bytes32",
							"name": "nullifier",
							"type": "bytes32"
						},
						{
							"indexed": true,
							"internalType": "address",
							"name": "recipient",
							"type": "address"
						},
						{
							"indexed": false,
							"internalType": "uint256",
							"name": "amount",
							"type": "uint256"
						},
						{
							"indexed": false,
							"internalType": "uint256",
							"name": "timestamp",
							"type": "uint256"
						}
					],
					"name": "NoteWithdrawn",
					"type": "event"
				},
				{
					"anonymous": false,
					"inputs": [
						{
							"indexed": true,
							"internalType": "address",
							"name": "previousOwner",
							"type": "address"
						},
						{
							"indexed": true,
							"internalType": "address",
							"name": "newOwner",
							"type": "address"
						}
					],
					"name": "OwnershipTransferred",
					"type": "event"
				},
				{
					"anonymous": false,
					"inputs": [
						{
							"indexed": false,
							"internalType": "address",
							"name": "account",
							"type": "address"
						}
					],
					"name": "Paused",
					"type": "event"
				},
				{
					"anonymous": false,
					"inputs": [
						{
							"indexed": false,
							"internalType": "address",
							"name": "account",
							"type": "address"
						}
					],
					"name": "Unpaused",
					"type": "event"
				},
				{
					"anonymous": false,
					"inputs": [
						{
							"indexed": true,
							"internalType": "address",
							"name": "oldVerifier",
							"type": "address"
						},
						{
							"indexed": true,
							"internalType": "address",
							"name": "newVerifier",
							"type": "address"
						},
						{
							"indexed": false,
							"internalType": "uint256",
							"name": "timestamp",
							"type": "uint256"
						}
					],
					"name": "VerifierUpdated",
					"type": "event"
				},
				{
					"inputs": [],
					"name": "MAX_DEPOSIT",
					"outputs": [
						{
							"internalType": "uint256",
							"name": "",
							"type": "uint256"
						}
					],
					"stateMutability": "view",
					"type": "function"
				},
				{
					"inputs": [],
					"name": "MIN_DEPOSIT",
					"outputs": [
						{
							"internalType": "uint256",
							"name": "",
							"type": "uint256"
						}
					],
					"stateMutability": "view",
					"type": "function"
				},
				{
					"inputs": [
						{
							"internalType": "bytes32",
							"name": "commitment",
							"type": "bytes32"
						},
						{
							"internalType": "uint256",
							"name": "amount",
							"type": "uint256"
						},
						{
							"internalType": "bytes",
							"name": "proof",
							"type": "bytes"
						}
					],
					"name": "deposit",
					"outputs": [],
					"stateMutability": "nonpayable",
					"type": "function"
				},
				{
					"inputs": [],
					"name": "emergencyWithdraw",
					"outputs": [],
					"stateMutability": "nonpayable",
					"type": "function"
				},
				{
					"inputs": [],
					"name": "getBalance",
					"outputs": [
						{
							"internalType": "uint256",
							"name": "",
							"type": "uint256"
						}
					],
					"stateMutability": "view",
					"type": "function"
				},
				{
					"inputs": [
						{
							"internalType": "bytes32",
							"name": "commitment",
							"type": "bytes32"
						}
					],
					"name": "getNoteDetails",
					"outputs": [
						{
							"components": [
								{
									"internalType": "bytes32",
									"name": "commitment",
									"type": "bytes32"
								},
								{
									"internalType": "bytes32",
									"name": "nullifier",
									"type": "bytes32"
								},
								{
									"internalType": "uint256",
									"name": "amount",
									"type": "uint256"
								},
								{
									"internalType": "bool",
									"name": "spent",
									"type": "bool"
								},
								{
									"internalType": "uint256",
									"name": "timestamp",
									"type": "uint256"
								}
							],
							"internalType": "struct PrivacyPool.Note",
							"name": "",
							"type": "tuple"
						}
					],
					"stateMutability": "view",
					"type": "function"
				},
				{
					"inputs": [
						{
							"internalType": "bytes32",
							"name": "nullifier",
							"type": "bytes32"
						}
					],
					"name": "isNullifierUsed",
					"outputs": [
						{
							"internalType": "bool",
							"name": "",
							"type": "bool"
						}
					],
					"stateMutability": "view",
					"type": "function"
				},
				{
					"inputs": [
						{
							"internalType": "bytes32",
							"name": "",
							"type": "bytes32"
						}
					],
					"name": "notes",
					"outputs": [
						{
							"internalType": "bytes32",
							"name": "commitment",
							"type": "bytes32"
						},
						{
							"internalType": "bytes32",
							"name": "nullifier",
							"type": "bytes32"
						},
						{
							"internalType": "uint256",
							"name": "amount",
							"type": "uint256"
						},
						{
							"internalType": "bool",
							"name": "spent",
							"type": "bool"
						},
						{
							"internalType": "uint256",
							"name": "timestamp",
							"type": "uint256"
						}
					],
					"stateMutability": "view",
					"type": "function"
				},
				{
					"inputs": [
						{
							"internalType": "bytes32",
							"name": "",
							"type": "bytes32"
						}
					],
					"name": "nullifierUsed",
					"outputs": [
						{
							"internalType": "bool",
							"name": "",
							"type": "bool"
						}
					],
					"stateMutability": "view",
					"type": "function"
				},
				{
					"inputs": [],
					"name": "owner",
					"outputs": [
						{
							"internalType": "address",
							"name": "",
							"type": "address"
						}
					],
					"stateMutability": "view",
					"type": "function"
				},
				{
					"inputs": [],
					"name": "pause",
					"outputs": [],
					"stateMutability": "nonpayable",
					"type": "function"
				},
				{
					"inputs": [],
					"name": "paused",
					"outputs": [
						{
							"internalType": "bool",
							"name": "",
							"type": "bool"
						}
					],
					"stateMutability": "view",
					"type": "function"
				},
				{
					"inputs": [],
					"name": "renounceOwnership",
					"outputs": [],
					"stateMutability": "nonpayable",
					"type": "function"
				},
				{
					"inputs": [
						{
							"internalType": "address",
							"name": "_verifier",
							"type": "address"
						}
					],
					"name": "setVerifier",
					"outputs": [],
					"stateMutability": "nonpayable",
					"type": "function"
				},
				{
					"inputs": [],
					"name": "token",
					"outputs": [
						{
							"internalType": "contract IERC20",
							"name": "",
							"type": "address"
						}
					],
					"stateMutability": "view",
					"type": "function"
				},
				{
					"inputs": [
						{
							"internalType": "address",
							"name": "newOwner",
							"type": "address"
						}
					],
					"name": "transferOwnership",
					"outputs": [],
					"stateMutability": "nonpayable",
					"type": "function"
				},
				{
					"inputs": [],
					"name": "unpause",
					"outputs": [],
					"stateMutability": "nonpayable",
					"type": "function"
				},
				{
					"inputs": [],
					"name": "verifier",
					"outputs": [
						{
							"internalType": "contract IVerifier",
							"name": "",
							"type": "address"
						}
					],
					"stateMutability": "view",
					"type": "function"
				},
				{
					"inputs": [
						{
							"internalType": "bytes32",
							"name": "nullifier",
							"type": "bytes32"
						},
						{
							"internalType": "bytes32",
							"name": "commitment",
							"type": "bytes32"
						},
						{
							"internalType": "address",
							"name": "recipient",
							"type": "address"
						},
						{
							"internalType": "uint256",
							"name": "amount",
							"type": "uint256"
						},
						{
							"internalType": "bytes",
							"name": "proof",
							"type": "bytes"
						}
					],
					"name": "withdraw",
					"outputs": [],
					"stateMutability": "nonpayable",
					"type": "function"
				}
			],
			"devdoc": {
				"errors": {
					"EnforcedPause()": [
						{
							"details": "The operation failed because the contract is paused."
						}
					],
					"ExpectedPause()": [
						{
							"details": "The operation failed because the contract is not paused."
						}
					],
					"OwnableInvalidOwner(address)": [
						{
							"details": "The owner is not a valid owner account. (eg. `address(0)`)"
						}
					],
					"OwnableUnauthorizedAccount(address)": [
						{
							"details": "The caller account is not authorized to perform an operation."
						}
					],
					"ReentrancyGuardReentrantCall()": [
						{
							"details": "Unauthorized reentrant call."
						}
					]
				},
				"events": {
					"Paused(address)": {
						"details": "Emitted when the pause is triggered by `account`."
					},
					"Unpaused(address)": {
						"details": "Emitted when the pause is lifted by `account`."
					}
				},
				"kind": "dev",
				"methods": {
					"constructor": {
						"params": {
							"_owner": "Address of the contract owner",
							"_token": "Address of the ERC20 token",
							"_verifier": "Address of the verifier contract"
						}
					},
					"deposit(bytes32,uint256,bytes)": {
						"params": {
							"amount": "The deposit amount",
							"commitment": "The note commitment",
							"proof": "Zero-knowledge proof"
						}
					},
					"getBalance()": {
						"returns": {
							"_0": "uint256 Current pool balance"
						}
					},
					"getNoteDetails(bytes32)": {
						"params": {
							"commitment": "Note commitment"
						},
						"returns": {
							"_0": "Note structure"
						}
					},
					"isNullifierUsed(bytes32)": {
						"params": {
							"nullifier": "The nullifier to check"
						},
						"returns": {
							"_0": "bool True if nullifier has been used"
						}
					},
					"owner()": {
						"details": "Returns the address of the current owner."
					},
					"paused()": {
						"details": "Returns true if the contract is paused, and false otherwise."
					},
					"renounceOwnership()": {
						"details": "Leaves the contract without owner. It will not be possible to call `onlyOwner` functions. Can only be called by the current owner. NOTE: Renouncing ownership will leave the contract without an owner, thereby disabling any functionality that is only available to the owner."
					},
					"setVerifier(address)": {
						"params": {
							"_verifier": "New verifier address"
						}
					},
					"transferOwnership(address)": {
						"details": "Transfers ownership of the contract to a new account (`newOwner`). Can only be called by the current owner."
					},
					"withdraw(bytes32,bytes32,address,uint256,bytes)": {
						"params": {
							"amount": "The withdrawal amount",
							"commitment": "The note commitment",
							"nullifier": "The note nullifier",
							"proof": "Zero-knowledge proof",
							"recipient": "The recipient address"
						}
					}
				},
				"version": 1
			},
			"evm": {
				"assembly": "    /* \"core/PrivacyPool.sol\":322:7508  contract PrivacyPool is Ownable, ReentrancyGuard, Pausable {... */\n  mstore(0x40, 0x80)\n    /* \"core/PrivacyPool.sol\":1845:2177  constructor(... */\n  callvalue\n  dup1\n  iszero\n  tag_1\n  jumpi\n  0x00\n  dup1\n  revert\ntag_1:\n  pop\n  mload(0x40)\n  sub(codesize, bytecodeSize)\n  dup1\n  bytecodeSize\n  dup4\n  codecopy\n  dup2\n  dup2\n  add\n  0x40\n  mstore\n  dup2\n  add\n  swap1\n  tag_2\n  swap2\n  swap1\n  tag_3\n  jump\t// in\ntag_2:\n    /* \"core/PrivacyPool.sol\":1946:1952  _owner */\n  dup1\n    /* \"@openzeppelin/contracts/access/Ownable.sol\":1297:1298  0 */\n  0x00\n    /* \"@openzeppelin/contracts/access/Ownable.sol\":1273:1299  initialOwner == address(0) */\n  0xffffffffffffffffffffffffffffffffffffffff\n  and\n    /* \"@openzeppelin/contracts/access/Ownable.sol\":1273:1285  initialOwner */\n  dup2\n    /* \"@openzeppelin/contracts/access/Ownable.sol\":1273:1299  initialOwner == address(0) */\n  0xffffffffffffffffffffffffffffffffffffffff\n  and\n  sub\n    /* \"@openzeppelin/contracts/access/Ownable.sol\":1269:1364  if (initialOwner == address(0)) {... */\n  tag_9\n  jumpi\n    /* \"@openzeppelin/contracts/access/Ownable.sol\":1350:1351  0 */\n  0x00\n    /* \"@openzeppelin/contracts/access/Ownable.sol\":1322:1353  OwnableInvalidOwner(address(0)) */\n  mload(0x40)\n  0x1e4fbdf700000000000000000000000000000000000000000000000000000000\n  dup2\n  mstore\n  0x04\n  add\n  tag_10\n  swap2\n  swap1\n  tag_11\n  jump\t// in\ntag_10:\n  mload(0x40)\n  dup1\n  swap2\n  sub\n  swap1\n  revert\n    /* \"@openzeppelin/contracts/access/Ownable.sol\":1269:1364  if (initialOwner == address(0)) {... */\ntag_9:\n    /* \"@openzeppelin/contracts/access/Ownable.sol\":1373:1405  _transferOwnership(initialOwner) */\n  tag_12\n    /* \"@openzeppelin/contracts/access/Ownable.sol\":1392:1404  initialOwner */\n  dup2\n    /* \"@openzeppelin/contracts/access/Ownable.sol\":1373:1391  _transferOwnership */\n  shl(0x20, tag_13)\n    /* \"@openzeppelin/contracts/access/Ownable.sol\":1373:1405  _transferOwnership(initialOwner) */\n  0x20\n  shr\n  jump\t// in\ntag_12:\n    /* \"@openzeppelin/contracts/access/Ownable.sol\":1225:1412  constructor(address initialOwner) {... */\n  pop\n    /* \"@openzeppelin/contracts/utils/ReentrancyGuard.sol\":1857:1858  1 */\n  0x01\n    /* \"@openzeppelin/contracts/utils/ReentrancyGuard.sol\":2061:2068  _status */\n  dup1\n    /* \"@openzeppelin/contracts/utils/ReentrancyGuard.sol\":2061:2082  _status = NOT_ENTERED */\n  dup2\n  swap1\n  sstore\n  pop\n    /* \"@openzeppelin/contracts/utils/Pausable.sol\":1241:1246  false */\n  0x00\n    /* \"@openzeppelin/contracts/utils/Pausable.sol\":1231:1238  _paused */\n  0x02\n  0x00\n    /* \"@openzeppelin/contracts/utils/Pausable.sol\":1231:1246  _paused = false */\n  0x0100\n  exp\n  dup2\n  sload\n  dup2\n  0xff\n  mul\n  not\n  and\n  swap1\n  dup4\n  iszero\n  iszero\n  mul\n  or\n  swap1\n  sstore\n  pop\n    /* \"core/PrivacyPool.sol\":1990:1991  0 */\n  0x00\n    /* \"core/PrivacyPool.sol\":1972:1992  _token != address(0) */\n  0xffffffffffffffffffffffffffffffffffffffff\n  and\n    /* \"core/PrivacyPool.sol\":1972:1978  _token */\n  dup4\n    /* \"core/PrivacyPool.sol\":1972:1992  _token != address(0) */\n  0xffffffffffffffffffffffffffffffffffffffff\n  and\n  sub\n    /* \"core/PrivacyPool.sol\":1964:2018  require(_token != address(0), \"Invalid token address\") */\n  tag_17\n  jumpi\n  mload(0x40)\n  0x08c379a000000000000000000000000000000000000000000000000000000000\n  dup2\n  mstore\n  0x04\n  add\n  tag_18\n  swap1\n  tag_19\n  jump\t// in\ntag_18:\n  mload(0x40)\n  dup1\n  swap2\n  sub\n  swap1\n  revert\ntag_17:\n    /* \"core/PrivacyPool.sol\":2057:2058  0 */\n  0x00\n    /* \"core/PrivacyPool.sol\":2036:2059  _verifier != address(0) */\n  0xffffffffffffffffffffffffffffffffffffffff\n  and\n    /* \"core/PrivacyPool.sol\":2036:2045  _verifier */\n  dup3\n    /* \"core/PrivacyPool.sol\":2036:2059  _verifier != address(0) */\n  0xffffffffffffffffffffffffffffffffffffffff\n  and\n  sub\n    /* \"core/PrivacyPool.sol\":2028:2088  require(_verifier != address(0), \"Invalid verifier address\") */\n  tag_20\n  jumpi\n  mload(0x40)\n  0x08c379a000000000000000000000000000000000000000000000000000000000\n  dup2\n  mstore\n  0x04\n  add\n  tag_21\n  swap1\n  tag_22\n  jump\t// in\ntag_21:\n  mload(0x40)\n  dup1\n  swap2\n  sub\n  swap1\n  revert\ntag_20:\n    /* \"core/PrivacyPool.sol\":2122:2128  _token */\n  dup3\n    /* \"core/PrivacyPool.sol\":2107:2112  token */\n  0x03\n  0x00\n    /* \"core/PrivacyPool.sol\":2107:2129  token = IERC20(_token) */\n  0x0100\n  exp\n  dup2\n  sload\n  dup2\n  0xffffffffffffffffffffffffffffffffffffffff\n  mul\n  not\n  and\n  swap1\n  dup4\n  0xffffffffffffffffffffffffffffffffffffffff\n  and\n  mul\n  or\n  swap1\n  sstore\n  pop\n    /* \"core/PrivacyPool.sol\":2160:2169  _verifier */\n  dup2\n    /* \"core/PrivacyPool.sol\":2139:2147  verifier */\n  0x02\n  0x01\n    /* \"core/PrivacyPool.sol\":2139:2170  verifier = IVerifier(_verifier) */\n  0x0100\n  exp\n  dup2\n  sload\n  dup2\n  0xffffffffffffffffffffffffffffffffffffffff\n  mul\n  not\n  and\n  swap1\n  dup4\n  0xffffffffffffffffffffffffffffffffffffffff\n  and\n  mul\n  or\n  swap1\n  sstore\n  pop\n    /* \"core/PrivacyPool.sol\":1845:2177  constructor(... */\n  pop\n  pop\n  pop\n    /* \"core/PrivacyPool.sol\":322:7508  contract PrivacyPool is Ownable, ReentrancyGuard, Pausable {... */\n  jump(tag_23)\n    /* \"@openzeppelin/contracts/access/Ownable.sol\":2912:3099  function _transferOwnership(address newOwner) internal virtual {... */\ntag_13:\n    /* \"@openzeppelin/contracts/access/Ownable.sol\":2985:3001  address oldOwner */\n  0x00\n    /* \"@openzeppelin/contracts/access/Ownable.sol\":3004:3010  _owner */\n  dup1\n  0x00\n  swap1\n  sload\n  swap1\n  0x0100\n  exp\n  swap1\n  div\n  0xffffffffffffffffffffffffffffffffffffffff\n  and\n    /* \"@openzeppelin/contracts/access/Ownable.sol\":2985:3010  address oldOwner = _owner */\n  swap1\n  pop\n    /* \"@openzeppelin/contracts/access/Ownable.sol\":3029:3037  newOwner */\n  dup2\n    /* \"@openzeppelin/contracts/access/Ownable.sol\":3020:3026  _owner */\n  0x00\n  dup1\n    /* \"@openzeppelin/contracts/access/Ownable.sol\":3020:3037  _owner = newOwner */\n  0x0100\n  exp\n  dup2\n  sload\n  dup2\n  0xffffffffffffffffffffffffffffffffffffffff\n  mul\n  not\n  and\n  swap1\n  dup4\n  0xffffffffffffffffffffffffffffffffffffffff\n  and\n  mul\n  or\n  swap1\n  sstore\n  pop\n    /* \"@openzeppelin/contracts/access/Ownable.sol\":3083:3091  newOwner */\n  dup2\n    /* \"@openzeppelin/contracts/access/Ownable.sol\":3052:3092  OwnershipTransferred(oldOwner, newOwner) */\n  0xffffffffffffffffffffffffffffffffffffffff\n  and\n    /* \"@openzeppelin/contracts/access/Ownable.sol\":3073:3081  oldOwner */\n  dup2\n    /* \"@openzeppelin/contracts/access/Ownable.sol\":3052:3092  OwnershipTransferred(oldOwner, newOwner) */\n  0xffffffffffffffffffffffffffffffffffffffff\n  and\n  0x8be0079c531659141344cd1fd0a4f28419497f9722a3daafe3b4186f6b6457e0\n  mload(0x40)\n  mload(0x40)\n  dup1\n  swap2\n  sub\n  swap1\n  log3\n    /* \"@openzeppelin/contracts/access/Ownable.sol\":2975:3099  {... */\n  pop\n    /* \"@openzeppelin/contracts/access/Ownable.sol\":2912:3099  function _transferOwnership(address newOwner) internal virtual {... */\n  pop\n  jump\t// out\n    /* \"#utility.yul\":88:205   */\ntag_26:\n    /* \"#utility.yul\":197:198   */\n  0x00\n    /* \"#utility.yul\":194:195   */\n  dup1\n    /* \"#utility.yul\":187:199   */\n  revert\n    /* \"#utility.yul\":334:460   */\ntag_28:\n    /* \"#utility.yul\":371:378   */\n  0x00\n    /* \"#utility.yul\":411:453   */\n  0xffffffffffffffffffffffffffffffffffffffff\n    /* \"#utility.yul\":404:409   */\n  dup3\n    /* \"#utility.yul\":400:454   */\n  and\n    /* \"#utility.yul\":389:454   */\n  swap1\n  pop\n    /* \"#utility.yul\":334:460   */\n  swap2\n  swap1\n  pop\n  jump\t// out\n    /* \"#utility.yul\":466:562   */\ntag_29:\n    /* \"#utility.yul\":503:510   */\n  0x00\n    /* \"#utility.yul\":532:556   */\n  tag_44\n    /* \"#utility.yul\":550:555   */\n  dup3\n    /* \"#utility.yul\":532:556   */\n  tag_28\n  jump\t// in\ntag_44:\n    /* \"#utility.yul\":521:556   */\n  swap1\n  pop\n    /* \"#utility.yul\":466:562   */\n  swap2\n  swap1\n  pop\n  jump\t// out\n    /* \"#utility.yul\":568:690   */\ntag_30:\n    /* \"#utility.yul\":641:665   */\n  tag_46\n    /* \"#utility.yul\":659:664   */\n  dup2\n    /* \"#utility.yul\":641:665   */\n  tag_29\n  jump\t// in\ntag_46:\n    /* \"#utility.yul\":634:639   */\n  dup2\n    /* \"#utility.yul\":631:666   */\n  eq\n    /* \"#utility.yul\":621:684   */\n  tag_47\n  jumpi\n    /* \"#utility.yul\":680:681   */\n  0x00\n    /* \"#utility.yul\":677:678   */\n  dup1\n    /* \"#utility.yul\":670:682   */\n  revert\n    /* \"#utility.yul\":621:684   */\ntag_47:\n    /* \"#utility.yul\":568:690   */\n  pop\n  jump\t// out\n    /* \"#utility.yul\":696:839   */\ntag_31:\n    /* \"#utility.yul\":753:758   */\n  0x00\n    /* \"#utility.yul\":784:790   */\n  dup2\n    /* \"#utility.yul\":778:791   */\n  mload\n    /* \"#utility.yul\":769:791   */\n  swap1\n  pop\n    /* \"#utility.yul\":800:833   */\n  tag_49\n    /* \"#utility.yul\":827:832   */\n  dup2\n    /* \"#utility.yul\":800:833   */\n  tag_30\n  jump\t// in\ntag_49:\n    /* \"#utility.yul\":696:839   */\n  swap3\n  swap2\n  pop\n  pop\n  jump\t// out\n    /* \"#utility.yul\":845:1508   */\ntag_3:\n    /* \"#utility.yul\":933:939   */\n  0x00\n    /* \"#utility.yul\":941:947   */\n  dup1\n    /* \"#utility.yul\":949:955   */\n  0x00\n    /* \"#utility.yul\":998:1000   */\n  0x60\n    /* \"#utility.yul\":986:995   */\n  dup5\n    /* \"#utility.yul\":977:984   */\n  dup7\n    /* \"#utility.yul\":973:996   */\n  sub\n    /* \"#utility.yul\":969:1001   */\n  slt\n    /* \"#utility.yul\":966:1085   */\n  iszero\n  tag_51\n  jumpi\n    /* \"#utility.yul\":1004:1083   */\n  tag_52\n  tag_26\n  jump\t// in\ntag_52:\n    /* \"#utility.yul\":966:1085   */\ntag_51:\n    /* \"#utility.yul\":1124:1125   */\n  0x00\n    /* \"#utility.yul\":1149:1213   */\n  tag_53\n    /* \"#utility.yul\":1205:1212   */\n  dup7\n    /* \"#utility.yul\":1196:1202   */\n  dup3\n    /* \"#utility.yul\":1185:1194   */\n  dup8\n    /* \"#utility.yul\":1181:1203   */\n  add\n    /* \"#utility.yul\":1149:1213   */\n  tag_31\n  jump\t// in\ntag_53:\n    /* \"#utility.yul\":1139:1213   */\n  swap4\n  pop\n    /* \"#utility.yul\":1095:1223   */\n  pop\n    /* \"#utility.yul\":1262:1264   */\n  0x20\n    /* \"#utility.yul\":1288:1352   */\n  tag_54\n    /* \"#utility.yul\":1344:1351   */\n  dup7\n    /* \"#utility.yul\":1335:1341   */\n  dup3\n    /* \"#utility.yul\":1324:1333   */\n  dup8\n    /* \"#utility.yul\":1320:1342   */\n  add\n    /* \"#utility.yul\":1288:1352   */\n  tag_31\n  jump\t// in\ntag_54:\n    /* \"#utility.yul\":1278:1352   */\n  swap3\n  pop\n    /* \"#utility.yul\":1233:1362   */\n  pop\n    /* \"#utility.yul\":1401:1403   */\n  0x40\n    /* \"#utility.yul\":1427:1491   */\n  tag_55\n    /* \"#utility.yul\":1483:1490   */\n  dup7\n    /* \"#utility.yul\":1474:1480   */\n  dup3\n    /* \"#utility.yul\":1463:1472   */\n  dup8\n    /* \"#utility.yul\":1459:1481   */\n  add\n    /* \"#utility.yul\":1427:1491   */\n  tag_31\n  jump\t// in\ntag_55:\n    /* \"#utility.yul\":1417:1491   */\n  swap2\n  pop\n    /* \"#utility.yul\":1372:1501   */\n  pop\n    /* \"#utility.yul\":845:1508   */\n  swap3\n  pop\n  swap3\n  pop\n  swap3\n  jump\t// out\n    /* \"#utility.yul\":1514:1632   */\ntag_32:\n    /* \"#utility.yul\":1601:1625   */\n  tag_57\n    /* \"#utility.yul\":1619:1624   */\n  dup2\n    /* \"#utility.yul\":1601:1625   */\n  tag_29\n  jump\t// in\ntag_57:\n    /* \"#utility.yul\":1596:1599   */\n  dup3\n    /* \"#utility.yul\":1589:1626   */\n  mstore\n    /* \"#utility.yul\":1514:1632   */\n  pop\n  pop\n  jump\t// out\n    /* \"#utility.yul\":1638:1860   */\ntag_11:\n    /* \"#utility.yul\":1731:1735   */\n  0x00\n    /* \"#utility.yul\":1769:1771   */\n  0x20\n    /* \"#utility.yul\":1758:1767   */\n  dup3\n    /* \"#utility.yul\":1754:1772   */\n  add\n    /* \"#utility.yul\":1746:1772   */\n  swap1\n  pop\n    /* \"#utility.yul\":1782:1853   */\n  tag_59\n    /* \"#utility.yul\":1850:1851   */\n  0x00\n    /* \"#utility.yul\":1839:1848   */\n  dup4\n    /* \"#utility.yul\":1835:1852   */\n  add\n    /* \"#utility.yul\":1826:1832   */\n  dup5\n    /* \"#utility.yul\":1782:1853   */\n  tag_32\n  jump\t// in\ntag_59:\n    /* \"#utility.yul\":1638:1860   */\n  swap3\n  swap2\n  pop\n  pop\n  jump\t// out\n    /* \"#utility.yul\":1866:2035   */\ntag_33:\n    /* \"#utility.yul\":1950:1961   */\n  0x00\n    /* \"#utility.yul\":1984:1990   */\n  dup3\n    /* \"#utility.yul\":1979:1982   */\n  dup3\n    /* \"#utility.yul\":1972:1991   */\n  mstore\n    /* \"#utility.yul\":2024:2028   */\n  0x20\n    /* \"#utility.yul\":2019:2022   */\n  dup3\n    /* \"#utility.yul\":2015:2029   */\n  add\n    /* \"#utility.yul\":2000:2029   */\n  swap1\n  pop\n    /* \"#utility.yul\":1866:2035   */\n  swap3\n  swap2\n  pop\n  pop\n  jump\t// out\n    /* \"#utility.yul\":2041:2212   */\ntag_34:\n    /* \"#utility.yul\":2181:2204   */\n  0x496e76616c696420746f6b656e20616464726573730000000000000000000000\n    /* \"#utility.yul\":2177:2178   */\n  0x00\n    /* \"#utility.yul\":2169:2175   */\n  dup3\n    /* \"#utility.yul\":2165:2179   */\n  add\n    /* \"#utility.yul\":2158:2205   */\n  mstore\n    /* \"#utility.yul\":2041:2212   */\n  pop\n  jump\t// out\n    /* \"#utility.yul\":2218:2584   */\ntag_35:\n    /* \"#utility.yul\":2360:2363   */\n  0x00\n    /* \"#utility.yul\":2381:2448   */\n  tag_63\n    /* \"#utility.yul\":2445:2447   */\n  0x15\n    /* \"#utility.yul\":2440:2443   */\n  dup4\n    /* \"#utility.yul\":2381:2448   */\n  tag_33\n  jump\t// in\ntag_63:\n    /* \"#utility.yul\":2374:2448   */\n  swap2\n  pop\n    /* \"#utility.yul\":2457:2550   */\n  tag_64\n    /* \"#utility.yul\":2546:2549   */\n  dup3\n    /* \"#utility.yul\":2457:2550   */\n  tag_34\n  jump\t// in\ntag_64:\n    /* \"#utility.yul\":2575:2577   */\n  0x20\n    /* \"#utility.yul\":2570:2573   */\n  dup3\n    /* \"#utility.yul\":2566:2578   */\n  add\n    /* \"#utility.yul\":2559:2578   */\n  swap1\n  pop\n    /* \"#utility.yul\":2218:2584   */\n  swap2\n  swap1\n  pop\n  jump\t// out\n    /* \"#utility.yul\":2590:3009   */\ntag_19:\n    /* \"#utility.yul\":2756:2760   */\n  0x00\n    /* \"#utility.yul\":2794:2796   */\n  0x20\n    /* \"#utility.yul\":2783:2792   */\n  dup3\n    /* \"#utility.yul\":2779:2797   */\n  add\n    /* \"#utility.yul\":2771:2797   */\n  swap1\n  pop\n    /* \"#utility.yul\":2843:2852   */\n  dup2\n    /* \"#utility.yul\":2837:2841   */\n  dup2\n    /* \"#utility.yul\":2833:2853   */\n  sub\n    /* \"#utility.yul\":2829:2830   */\n  0x00\n    /* \"#utility.yul\":2818:2827   */\n  dup4\n    /* \"#utility.yul\":2814:2831   */\n  add\n    /* \"#utility.yul\":2807:2854   */\n  mstore\n    /* \"#utility.yul\":2871:3002   */\n  tag_66\n    /* \"#utility.yul\":2997:3001   */\n  dup2\n    /* \"#utility.yul\":2871:3002   */\n  tag_35\n  jump\t// in\ntag_66:\n    /* \"#utility.yul\":2863:3002   */\n  swap1\n  pop\n    /* \"#utility.yul\":2590:3009   */\n  swap2\n  swap1\n  pop\n  jump\t// out\n    /* \"#utility.yul\":3015:3189   */\ntag_36:\n    /* \"#utility.yul\":3155:3181   */\n  0x496e76616c696420766572696669657220616464726573730000000000000000\n    /* \"#utility.yul\":3151:3152   */\n  0x00\n    /* \"#utility.yul\":3143:3149   */\n  dup3\n    /* \"#utility.yul\":3139:3153   */\n  add\n    /* \"#utility.yul\":3132:3182   */\n  mstore\n    /* \"#utility.yul\":3015:3189   */\n  pop\n  jump\t// out\n    /* \"#utility.yul\":3195:3561   */\ntag_37:\n    /* \"#utility.yul\":3337:3340   */\n  0x00\n    /* \"#utility.yul\":3358:3425   */\n  tag_69\n    /* \"#utility.yul\":3422:3424   */\n  0x18\n    /* \"#utility.yul\":3417:3420   */\n  dup4\n    /* \"#utility.yul\":3358:3425   */\n  tag_33\n  jump\t// in\ntag_69:\n    /* \"#utility.yul\":3351:3425   */\n  swap2\n  pop\n    /* \"#utility.yul\":3434:3527   */\n  tag_70\n    /* \"#utility.yul\":3523:3526   */\n  dup3\n    /* \"#utility.yul\":3434:3527   */\n  tag_36\n  jump\t// in\ntag_70:\n    /* \"#utility.yul\":3552:3554   */\n  0x20\n    /* \"#utility.yul\":3547:3550   */\n  dup3\n    /* \"#utility.yul\":3543:3555   */\n  add\n    /* \"#utility.yul\":3536:3555   */\n  swap1\n  pop\n    /* \"#utility.yul\":3195:3561   */\n  swap2\n  swap1\n  pop\n  jump\t// out\n    /* \"#utility.yul\":3567:3986   */\ntag_22:\n    /* \"#utility.yul\":3733:3737   */\n  0x00\n    /* \"#utility.yul\":3771:3773   */\n  0x20\n    /* \"#utility.yul\":3760:3769   */\n  dup3\n    /* \"#utility.yul\":3756:3774   */\n  add\n    /* \"#utility.yul\":3748:3774   */\n  swap1\n  pop\n    /* \"#utility.yul\":3820:3829   */\n  dup2\n    /* \"#utility.yul\":3814:3818   */\n  dup2\n    /* \"#utility.yul\":3810:3830   */\n  sub\n    /* \"#utility.yul\":3806:3807   */\n  0x00\n    /* \"#utility.yul\":3795:3804   */\n  dup4\n    /* \"#utility.yul\":3791:3808   */\n  add\n    /* \"#utility.yul\":3784:3831   */\n  mstore\n    /* \"#utility.yul\":3848:3979   */\n  tag_72\n    /* \"#utility.yul\":3974:3978   */\n  dup2\n    /* \"#utility.yul\":3848:3979   */\n  tag_37\n  jump\t// in\ntag_72:\n    /* \"#utility.yul\":3840:3979   */\n  swap1\n  pop\n    /* \"#utility.yul\":3567:3986   */\n  swap2\n  swap1\n  pop\n  jump\t// out\n    /* \"core/PrivacyPool.sol\":322:7508  contract PrivacyPool is Ownable, ReentrancyGuard, Pausable {... */\ntag_23:\n  dataSize(sub_0)\n  dup1\n  dataOffset(sub_0)\n  0x00\n  codecopy\n  0x00\n  return\nstop\n\nsub_0: assembly {\n        /* \"core/PrivacyPool.sol\":322:7508  contract PrivacyPool is Ownable, ReentrancyGuard, Pausable {... */\n      mstore(0x40, 0x80)\n      callvalue\n      dup1\n      iszero\n      tag_1\n      jumpi\n      0x00\n      dup1\n      revert\n    tag_1:\n      pop\n      jumpi(tag_2, lt(calldatasize, 0x04))\n      shr(0xe0, calldataload(0x00))\n      dup1\n      0x8456cb59\n      gt\n      tag_22\n      jumpi\n      dup1\n      0xdb2e21bc\n      gt\n      tag_23\n      jumpi\n      dup1\n      0xdb2e21bc\n      eq\n      tag_17\n      jumpi\n      dup1\n      0xdd5967c3\n      eq\n      tag_18\n      jumpi\n      dup1\n      0xe1e158a5\n      eq\n      tag_19\n      jumpi\n      dup1\n      0xf2fde38b\n      eq\n      tag_20\n      jumpi\n      dup1\n      0xfc0c546a\n      eq\n      tag_21\n      jumpi\n      jump(tag_2)\n    tag_23:\n      dup1\n      0x8456cb59\n      eq\n      tag_12\n      jumpi\n      dup1\n      0x85de26b7\n      eq\n      tag_13\n      jumpi\n      dup1\n      0x8da5cb5b\n      eq\n      tag_14\n      jumpi\n      dup1\n      0x9d280f51\n      eq\n      tag_15\n      jumpi\n      dup1\n      0xb3f15741\n      eq\n      tag_16\n      jumpi\n      jump(tag_2)\n    tag_22:\n      dup1\n      0x3f4ba83a\n      gt\n      tag_24\n      jumpi\n      dup1\n      0x3f4ba83a\n      eq\n      tag_7\n      jumpi\n      dup1\n      0x5437988d\n      eq\n      tag_8\n      jumpi\n      dup1\n      0x5c975abb\n      eq\n      tag_9\n      jumpi\n      dup1\n      0x715018a6\n      eq\n      tag_10\n      jumpi\n      dup1\n      0x7ecf686d\n      eq\n      tag_11\n      jumpi\n      jump(tag_2)\n    tag_24:\n      dup1\n      0x12065fe0\n      eq\n      tag_3\n      jumpi\n      dup1\n      0x1acc8486\n      eq\n      tag_4\n      jumpi\n      dup1\n      0x22dc7b4c\n      eq\n      tag_5\n      jumpi\n      dup1\n      0x2b7ac3f3\n      eq\n      tag_6\n      jumpi\n    tag_2:\n      0x00\n      dup1\n      revert\n        /* \"core/PrivacyPool.sol\":5813:5921  function getBalance() external view returns (uint256) {... */\n    tag_3:\n      tag_25\n      tag_26\n      jump\t// in\n    tag_25:\n      mload(0x40)\n      tag_27\n      swap2\n      swap1\n      tag_28\n      jump\t// in\n    tag_27:\n      mload(0x40)\n      dup1\n      swap2\n      sub\n      swap1\n      return\n        /* \"core/PrivacyPool.sol\":2373:3781  function deposit(... */\n    tag_4:\n      tag_29\n      0x04\n      dup1\n      calldatasize\n      sub\n      dup2\n      add\n      swap1\n      tag_30\n      swap2\n      swap1\n      tag_31\n      jump\t// in\n    tag_30:\n      tag_32\n      jump\t// in\n    tag_29:\n      stop\n        /* \"core/PrivacyPool.sol\":7385:7506  function isNullifierUsed(bytes32 nullifier) external view returns (bool) {... */\n    tag_5:\n      tag_33\n      0x04\n      dup1\n      calldatasize\n      sub\n      dup2\n      add\n      swap1\n      tag_34\n      swap2\n      swap1\n      tag_35\n      jump\t// in\n    tag_34:\n      tag_36\n      jump\t// in\n    tag_33:\n      mload(0x40)\n      tag_37\n      swap2\n      swap1\n      tag_38\n      jump\t// in\n    tag_37:\n      mload(0x40)\n      dup1\n      swap2\n      sub\n      swap1\n      return\n        /* \"core/PrivacyPool.sol\":410:435  IVerifier public verifier */\n    tag_6:\n      tag_39\n      tag_40\n      jump\t// in\n    tag_39:\n      mload(0x40)\n      tag_41\n      swap2\n      swap1\n      tag_42\n      jump\t// in\n    tag_41:\n      mload(0x40)\n      dup1\n      swap2\n      sub\n      swap1\n      return\n        /* \"core/PrivacyPool.sol\":6484:6549  function unpause() external onlyOwner {... */\n    tag_7:\n      tag_43\n      tag_44\n      jump\t// in\n    tag_43:\n      stop\n        /* \"core/PrivacyPool.sol\":6028:6325  function setVerifier(address _verifier) external onlyOwner {... */\n    tag_8:\n      tag_45\n      0x04\n      dup1\n      calldatasize\n      sub\n      dup2\n      add\n      swap1\n      tag_46\n      swap2\n      swap1\n      tag_47\n      jump\t// in\n    tag_46:\n      tag_48\n      jump\t// in\n    tag_45:\n      stop\n        /* \"@openzeppelin/contracts/utils/Pausable.sol\":1850:1934  function paused() public view virtual returns (bool) {... */\n    tag_9:\n      tag_49\n      tag_50\n      jump\t// in\n    tag_49:\n      mload(0x40)\n      tag_51\n      swap2\n      swap1\n      tag_38\n      jump\t// in\n    tag_51:\n      mload(0x40)\n      dup1\n      swap2\n      sub\n      swap1\n      return\n        /* \"@openzeppelin/contracts/access/Ownable.sol\":2293:2394  function renounceOwnership() public virtual onlyOwner {... */\n    tag_10:\n      tag_52\n      tag_53\n      jump\t// in\n    tag_52:\n      stop\n        /* \"core/PrivacyPool.sol\":1031:1076  mapping(bytes32 => bool) public nullifierUsed */\n    tag_11:\n      tag_54\n      0x04\n      dup1\n      calldatasize\n      sub\n      dup2\n      add\n      swap1\n      tag_55\n      swap2\n      swap1\n      tag_35\n      jump\t// in\n    tag_55:\n      tag_56\n      jump\t// in\n    tag_54:\n      mload(0x40)\n      tag_57\n      swap2\n      swap1\n      tag_38\n      jump\t// in\n    tag_57:\n      mload(0x40)\n      dup1\n      swap2\n      sub\n      swap1\n      return\n        /* \"core/PrivacyPool.sol\":6378:6439  function pause() external onlyOwner {... */\n    tag_12:\n      tag_58\n      tag_59\n      jump\t// in\n    tag_58:\n      stop\n        /* \"core/PrivacyPool.sol\":957:994  mapping(bytes32 => Note) public notes */\n    tag_13:\n      tag_60\n      0x04\n      dup1\n      calldatasize\n      sub\n      dup2\n      add\n      swap1\n      tag_61\n      swap2\n      swap1\n      tag_35\n      jump\t// in\n    tag_61:\n      tag_62\n      jump\t// in\n    tag_60:\n      mload(0x40)\n      tag_63\n      swap6\n      swap5\n      swap4\n      swap3\n      swap2\n      swap1\n      tag_64\n      jump\t// in\n    tag_63:\n      mload(0x40)\n      dup1\n      swap2\n      sub\n      swap1\n      return\n        /* \"@openzeppelin/contracts/access/Ownable.sol\":1638:1723  function owner() public view virtual returns (address) {... */\n    tag_14:\n      tag_65\n      tag_66\n      jump\t// in\n    tag_65:\n      mload(0x40)\n      tag_67\n      swap2\n      swap1\n      tag_68\n      jump\t// in\n    tag_67:\n      mload(0x40)\n      dup1\n      swap2\n      sub\n      swap1\n      return\n        /* \"core/PrivacyPool.sol\":7095:7216  function getNoteDetails(bytes32 commitment) external view returns (Note memory) {... */\n    tag_15:\n      tag_69\n      0x04\n      dup1\n      calldatasize\n      sub\n      dup2\n      add\n      swap1\n      tag_70\n      swap2\n      swap1\n      tag_35\n      jump\t// in\n    tag_70:\n      tag_71\n      jump\t// in\n    tag_69:\n      mload(0x40)\n      tag_72\n      swap2\n      swap1\n      tag_73\n      jump\t// in\n    tag_72:\n      mload(0x40)\n      dup1\n      swap2\n      sub\n      swap1\n      return\n        /* \"core/PrivacyPool.sol\":4070:5715  function withdraw(... */\n    tag_16:\n      tag_74\n      0x04\n      dup1\n      calldatasize\n      sub\n      dup2\n      add\n      swap1\n      tag_75\n      swap2\n      swap1\n      tag_76\n      jump\t// in\n    tag_75:\n      tag_77\n      jump\t// in\n    tag_74:\n      stop\n        /* \"core/PrivacyPool.sol\":6622:6970  function emergencyWithdraw() external onlyOwner {... */\n    tag_17:\n      tag_78\n      tag_79\n      jump\t// in\n    tag_78:\n      stop\n        /* \"core/PrivacyPool.sol\":562:604  uint256 public constant MAX_DEPOSIT = 1e24 */\n    tag_18:\n      tag_80\n      tag_81\n      jump\t// in\n    tag_80:\n      mload(0x40)\n      tag_82\n      swap2\n      swap1\n      tag_28\n      jump\t// in\n    tag_82:\n      mload(0x40)\n      dup1\n      swap2\n      sub\n      swap1\n      return\n        /* \"core/PrivacyPool.sol\":488:529  uint256 public constant MIN_DEPOSIT = 1e6 */\n    tag_19:\n      tag_83\n      tag_84\n      jump\t// in\n    tag_83:\n      mload(0x40)\n      tag_85\n      swap2\n      swap1\n      tag_28\n      jump\t// in\n    tag_85:\n      mload(0x40)\n      dup1\n      swap2\n      sub\n      swap1\n      return\n        /* \"@openzeppelin/contracts/access/Ownable.sol\":2543:2758  function transferOwnership(address newOwner) public virtual onlyOwner {... */\n    tag_20:\n      tag_86\n      0x04\n      dup1\n      calldatasize\n      sub\n      dup2\n      add\n      swap1\n      tag_87\n      swap2\n      swap1\n      tag_47\n      jump\t// in\n    tag_87:\n      tag_88\n      jump\t// in\n    tag_86:\n      stop\n        /* \"core/PrivacyPool.sol\":441:460  IERC20 public token */\n    tag_21:\n      tag_89\n      tag_90\n      jump\t// in\n    tag_89:\n      mload(0x40)\n      tag_91\n      swap2\n      swap1\n      tag_92\n      jump\t// in\n    tag_91:\n      mload(0x40)\n      dup1\n      swap2\n      sub\n      swap1\n      return\n        /* \"core/PrivacyPool.sol\":5813:5921  function getBalance() external view returns (uint256) {... */\n    tag_26:\n        /* \"core/PrivacyPool.sol\":5858:5865  uint256 */\n      0x00\n        /* \"core/PrivacyPool.sol\":5884:5889  token */\n      0x03\n      0x00\n      swap1\n      sload\n      swap1\n      0x0100\n      exp\n      swap1\n      div\n      0xffffffffffffffffffffffffffffffffffffffff\n      and\n        /* \"core/PrivacyPool.sol\":5884:5899  token.balanceOf */\n      0xffffffffffffffffffffffffffffffffffffffff\n      and\n      0x70a08231\n        /* \"core/PrivacyPool.sol\":5908:5912  this */\n      address\n        /* \"core/PrivacyPool.sol\":5884:5914  token.balanceOf(address(this)) */\n      mload(0x40)\n      dup3\n      0xffffffff\n      and\n      0xe0\n      shl\n      dup2\n      mstore\n      0x04\n      add\n      tag_94\n      swap2\n      swap1\n      tag_68\n      jump\t// in\n    tag_94:\n      0x20\n      mload(0x40)\n      dup1\n      dup4\n      sub\n      dup2\n      dup7\n      gas\n      staticcall\n      iszero\n      dup1\n      iszero\n      tag_96\n      jumpi\n      returndatasize\n      0x00\n      dup1\n      returndatacopy\n      revert(0x00, returndatasize)\n    tag_96:\n      pop\n      pop\n      pop\n      pop\n      mload(0x40)\n      returndatasize\n      not(0x1f)\n      0x1f\n      dup3\n      add\n      and\n      dup3\n      add\n      dup1\n      0x40\n      mstore\n      pop\n      dup2\n      add\n      swap1\n      tag_97\n      swap2\n      swap1\n      tag_98\n      jump\t// in\n    tag_97:\n        /* \"core/PrivacyPool.sol\":5877:5914  return token.balanceOf(address(this)) */\n      swap1\n      pop\n        /* \"core/PrivacyPool.sol\":5813:5921  function getBalance() external view returns (uint256) {... */\n      swap1\n      jump\t// out\n        /* \"core/PrivacyPool.sol\":2373:3781  function deposit(... */\n    tag_32:\n        /* \"@openzeppelin/contracts/utils/ReentrancyGuard.sol\":2500:2521  _nonReentrantBefore() */\n      tag_100\n        /* \"@openzeppelin/contracts/utils/ReentrancyGuard.sol\":2500:2519  _nonReentrantBefore */\n      tag_101\n        /* \"@openzeppelin/contracts/utils/ReentrancyGuard.sol\":2500:2521  _nonReentrantBefore() */\n      jump\t// in\n    tag_100:\n        /* \"@openzeppelin/contracts/utils/Pausable.sol\":1474:1493  _requireNotPaused() */\n      tag_103\n        /* \"@openzeppelin/contracts/utils/Pausable.sol\":1474:1491  _requireNotPaused */\n      tag_104\n        /* \"@openzeppelin/contracts/utils/Pausable.sol\":1474:1493  _requireNotPaused() */\n      jump\t// in\n    tag_103:\n        /* \"core/PrivacyPool.sol\":2581:2582  0 */\n      0x00\n        /* \"core/PrivacyPool.sol\":2573:2583  bytes32(0) */\n      dup1\n      shl\n        /* \"core/PrivacyPool.sol\":2559:2569  commitment */\n      dup5\n        /* \"core/PrivacyPool.sol\":2559:2583  commitment != bytes32(0) */\n      sub\n        /* \"core/PrivacyPool.sol\":2551:2606  require(commitment != bytes32(0), \"Invalid commitment\") */\n      tag_106\n      jumpi\n      mload(0x40)\n      0x08c379a000000000000000000000000000000000000000000000000000000000\n      dup2\n      mstore\n      0x04\n      add\n      tag_107\n      swap1\n      tag_108\n      jump\t// in\n    tag_107:\n      mload(0x40)\n      dup1\n      swap2\n      sub\n      swap1\n      revert\n    tag_106:\n        /* \"core/PrivacyPool.sol\":526:529  1e6 */\n      0x0f4240\n        /* \"core/PrivacyPool.sol\":2624:2630  amount */\n      dup4\n        /* \"core/PrivacyPool.sol\":2624:2645  amount >= MIN_DEPOSIT */\n      lt\n      iszero\n        /* \"core/PrivacyPool.sol\":2616:2670  require(amount >= MIN_DEPOSIT, \"Amount below minimum\") */\n      tag_109\n      jumpi\n      mload(0x40)\n      0x08c379a000000000000000000000000000000000000000000000000000000000\n      dup2\n      mstore\n      0x04\n      add\n      tag_110\n      swap1\n      tag_111\n      jump\t// in\n    tag_110:\n      mload(0x40)\n      dup1\n      swap2\n      sub\n      swap1\n      revert\n    tag_109:\n        /* \"core/PrivacyPool.sol\":600:604  1e24 */\n      0xd3c21bcecceda1000000\n        /* \"core/PrivacyPool.sol\":2688:2694  amount */\n      dup4\n        /* \"core/PrivacyPool.sol\":2688:2709  amount <= MAX_DEPOSIT */\n      gt\n      iszero\n        /* \"core/PrivacyPool.sol\":2680:2734  require(amount <= MAX_DEPOSIT, \"Amount above maximum\") */\n      tag_112\n      jumpi\n      mload(0x40)\n      0x08c379a000000000000000000000000000000000000000000000000000000000\n      dup2\n      mstore\n      0x04\n      add\n      tag_113\n      swap1\n      tag_114\n      jump\t// in\n    tag_113:\n      mload(0x40)\n      dup1\n      swap2\n      sub\n      swap1\n      revert\n    tag_112:\n        /* \"core/PrivacyPool.sol\":2792:2793  0 */\n      0x00\n        /* \"core/PrivacyPool.sol\":2784:2794  bytes32(0) */\n      dup1\n      shl\n        /* \"core/PrivacyPool.sol\":2752:2757  notes */\n      0x04\n        /* \"core/PrivacyPool.sol\":2752:2769  notes[commitment] */\n      0x00\n        /* \"core/PrivacyPool.sol\":2758:2768  commitment */\n      dup7\n        /* \"core/PrivacyPool.sol\":2752:2769  notes[commitment] */\n      dup2\n      mstore\n      0x20\n      add\n      swap1\n      dup2\n      mstore\n      0x20\n      add\n      0x00\n      keccak256\n        /* \"core/PrivacyPool.sol\":2752:2780  notes[commitment].commitment */\n      0x00\n      add\n      sload\n        /* \"core/PrivacyPool.sol\":2752:2794  notes[commitment].commitment == bytes32(0) */\n      eq\n        /* \"core/PrivacyPool.sol\":2744:2816  require(notes[commitment].commitment == bytes32(0), \"Commitment exists\") */\n      tag_115\n      jumpi\n      mload(0x40)\n      0x08c379a000000000000000000000000000000000000000000000000000000000\n      dup2\n      mstore\n      0x04\n      add\n      tag_116\n      swap1\n      tag_117\n      jump\t// in\n    tag_116:\n      mload(0x40)\n      dup1\n      swap2\n      sub\n      swap1\n      revert\n    tag_115:\n        /* \"core/PrivacyPool.sol\":2849:2850  0 */\n      0x00\n        /* \"core/PrivacyPool.sol\":2834:2839  proof */\n      dup3\n      dup3\n        /* \"core/PrivacyPool.sol\":2834:2846  proof.length */\n      swap1\n      pop\n        /* \"core/PrivacyPool.sol\":2834:2850  proof.length > 0 */\n      gt\n        /* \"core/PrivacyPool.sol\":2826:2866  require(proof.length > 0, \"Empty proof\") */\n      tag_118\n      jumpi\n      mload(0x40)\n      0x08c379a000000000000000000000000000000000000000000000000000000000\n      dup2\n      mstore\n      0x04\n      add\n      tag_119\n      swap1\n      tag_120\n      jump\t// in\n    tag_119:\n      mload(0x40)\n      dup1\n      swap2\n      sub\n      swap1\n      revert\n    tag_118:\n        /* \"core/PrivacyPool.sol\":2930:2938  verifier */\n      0x02\n      0x01\n      swap1\n      sload\n      swap1\n      0x0100\n      exp\n      swap1\n      div\n      0xffffffffffffffffffffffffffffffffffffffff\n      and\n        /* \"core/PrivacyPool.sol\":2930:2957  verifier.verifyDepositProof */\n      0xffffffffffffffffffffffffffffffffffffffff\n      and\n      0xebcb5584\n        /* \"core/PrivacyPool.sol\":2975:2985  commitment */\n      dup6\n        /* \"core/PrivacyPool.sol\":3003:3009  amount */\n      dup6\n        /* \"core/PrivacyPool.sol\":3027:3037  msg.sender */\n      caller\n        /* \"core/PrivacyPool.sol\":3055:3060  proof */\n      dup7\n      dup7\n        /* \"core/PrivacyPool.sol\":2930:3074  verifier.verifyDepositProof(... */\n      mload(0x40)\n      dup7\n      0xffffffff\n      and\n      0xe0\n      shl\n      dup2\n      mstore\n      0x04\n      add\n      tag_121\n      swap6\n      swap5\n      swap4\n      swap3\n      swap2\n      swap1\n      tag_122\n      jump\t// in\n    tag_121:\n      0x20\n      mload(0x40)\n      dup1\n      dup4\n      sub\n      dup2\n      dup7\n      gas\n      staticcall\n      iszero\n      dup1\n      iszero\n      tag_124\n      jumpi\n      returndatasize\n      0x00\n      dup1\n      returndatacopy\n      revert(0x00, returndatasize)\n    tag_124:\n      pop\n      pop\n      pop\n      pop\n      mload(0x40)\n      returndatasize\n      not(0x1f)\n      0x1f\n      dup3\n      add\n      and\n      dup3\n      add\n      dup1\n      0x40\n      mstore\n      pop\n      dup2\n      add\n      swap1\n      tag_125\n      swap2\n      swap1\n      tag_126\n      jump\t// in\n    tag_125:\n        /* \"core/PrivacyPool.sol\":2909:3113  require(... */\n      tag_127\n      jumpi\n      mload(0x40)\n      0x08c379a000000000000000000000000000000000000000000000000000000000\n      dup2\n      mstore\n      0x04\n      add\n      tag_128\n      swap1\n      tag_129\n      jump\t// in\n    tag_128:\n      mload(0x40)\n      dup1\n      swap2\n      sub\n      swap1\n      revert\n    tag_127:\n        /* \"core/PrivacyPool.sol\":3159:3180  uint256 balanceBefore */\n      0x00\n        /* \"core/PrivacyPool.sol\":3183:3188  token */\n      0x03\n      0x00\n      swap1\n      sload\n      swap1\n      0x0100\n      exp\n      swap1\n      div\n      0xffffffffffffffffffffffffffffffffffffffff\n      and\n        /* \"core/PrivacyPool.sol\":3183:3198  token.balanceOf */\n      0xffffffffffffffffffffffffffffffffffffffff\n      and\n      0x70a08231\n        /* \"core/PrivacyPool.sol\":3207:3211  this */\n      address\n        /* \"core/PrivacyPool.sol\":3183:3213  token.balanceOf(address(this)) */\n      mload(0x40)\n      dup3\n      0xffffffff\n      and\n      0xe0\n      shl\n      dup2\n      mstore\n      0x04\n      add\n      tag_130\n      swap2\n      swap1\n      tag_68\n      jump\t// in\n    tag_130:\n      0x20\n      mload(0x40)\n      dup1\n      dup4\n      sub\n      dup2\n      dup7\n      gas\n      staticcall\n      iszero\n      dup1\n      iszero\n      tag_132\n      jumpi\n      returndatasize\n      0x00\n      dup1\n      returndatacopy\n      revert(0x00, returndatasize)\n    tag_132:\n      pop\n      pop\n      pop\n      pop\n      mload(0x40)\n      returndatasize\n      not(0x1f)\n      0x1f\n      dup3\n      add\n      and\n      dup3\n      add\n      dup1\n      0x40\n      mstore\n      pop\n      dup2\n      add\n      swap1\n      tag_133\n      swap2\n      swap1\n      tag_98\n      jump\t// in\n    tag_133:\n        /* \"core/PrivacyPool.sol\":3159:3213  uint256 balanceBefore = token.balanceOf(address(this)) */\n      swap1\n      pop\n        /* \"core/PrivacyPool.sol\":3244:3249  token */\n      0x03\n      0x00\n      swap1\n      sload\n      swap1\n      0x0100\n      exp\n      swap1\n      div\n      0xffffffffffffffffffffffffffffffffffffffff\n      and\n        /* \"core/PrivacyPool.sol\":3244:3262  token.transferFrom */\n      0xffffffffffffffffffffffffffffffffffffffff\n      and\n      0x23b872dd\n        /* \"core/PrivacyPool.sol\":3263:3273  msg.sender */\n      caller\n        /* \"core/PrivacyPool.sol\":3283:3287  this */\n      address\n        /* \"core/PrivacyPool.sol\":3290:3296  amount */\n      dup8\n        /* \"core/PrivacyPool.sol\":3244:3297  token.transferFrom(msg.sender, address(this), amount) */\n      mload(0x40)\n      dup5\n      0xffffffff\n      and\n      0xe0\n      shl\n      dup2\n      mstore\n      0x04\n      add\n      tag_134\n      swap4\n      swap3\n      swap2\n      swap1\n      tag_135\n      jump\t// in\n    tag_134:\n      0x20\n      mload(0x40)\n      dup1\n      dup4\n      sub\n      dup2\n      0x00\n      dup8\n      gas\n      call\n      iszero\n      dup1\n      iszero\n      tag_137\n      jumpi\n      returndatasize\n      0x00\n      dup1\n      returndatacopy\n      revert(0x00, returndatasize)\n    tag_137:\n      pop\n      pop\n      pop\n      pop\n      mload(0x40)\n      returndatasize\n      not(0x1f)\n      0x1f\n      dup3\n      add\n      and\n      dup3\n      add\n      dup1\n      0x40\n      mstore\n      pop\n      dup2\n      add\n      swap1\n      tag_138\n      swap2\n      swap1\n      tag_126\n      jump\t// in\n    tag_138:\n        /* \"core/PrivacyPool.sol\":3223:3338  require(... */\n      tag_139\n      jumpi\n      mload(0x40)\n      0x08c379a000000000000000000000000000000000000000000000000000000000\n      dup2\n      mstore\n      0x04\n      add\n      tag_140\n      swap1\n      tag_141\n      jump\t// in\n    tag_140:\n      mload(0x40)\n      dup1\n      swap2\n      sub\n      swap1\n      revert\n    tag_139:\n        /* \"core/PrivacyPool.sol\":3419:3425  amount */\n      dup4\n        /* \"core/PrivacyPool.sol\":3403:3416  balanceBefore */\n      dup2\n        /* \"core/PrivacyPool.sol\":3403:3425  balanceBefore + amount */\n      tag_142\n      swap2\n      swap1\n      tag_143\n      jump\t// in\n    tag_142:\n        /* \"core/PrivacyPool.sol\":3369:3374  token */\n      0x03\n      0x00\n      swap1\n      sload\n      swap1\n      0x0100\n      exp\n      swap1\n      div\n      0xffffffffffffffffffffffffffffffffffffffff\n      and\n        /* \"core/PrivacyPool.sol\":3369:3384  token.balanceOf */\n      0xffffffffffffffffffffffffffffffffffffffff\n      and\n      0x70a08231\n        /* \"core/PrivacyPool.sol\":3393:3397  this */\n      address\n        /* \"core/PrivacyPool.sol\":3369:3399  token.balanceOf(address(this)) */\n      mload(0x40)\n      dup3\n      0xffffffff\n      and\n      0xe0\n      shl\n      dup2\n      mstore\n      0x04\n      add\n      tag_144\n      swap2\n      swap1\n      tag_68\n      jump\t// in\n    tag_144:\n      0x20\n      mload(0x40)\n      dup1\n      dup4\n      sub\n      dup2\n      dup7\n      gas\n      staticcall\n      iszero\n      dup1\n      iszero\n      tag_146\n      jumpi\n      returndatasize\n      0x00\n      dup1\n      returndatacopy\n      revert(0x00, returndatasize)\n    tag_146:\n      pop\n      pop\n      pop\n      pop\n      mload(0x40)\n      returndatasize\n      not(0x1f)\n      0x1f\n      dup3\n      add\n      and\n      dup3\n      add\n      dup1\n      0x40\n      mstore\n      pop\n      dup2\n      add\n      swap1\n      tag_147\n      swap2\n      swap1\n      tag_98\n      jump\t// in\n    tag_147:\n        /* \"core/PrivacyPool.sol\":3369:3425  token.balanceOf(address(this)) == balanceBefore + amount */\n      eq\n        /* \"core/PrivacyPool.sol\":3348:3474  require(... */\n      tag_148\n      jumpi\n      mload(0x40)\n      0x08c379a000000000000000000000000000000000000000000000000000000000\n      dup2\n      mstore\n      0x04\n      add\n      tag_149\n      swap1\n      tag_150\n      jump\t// in\n    tag_149:\n      mload(0x40)\n      dup1\n      swap2\n      sub\n      swap1\n      revert\n    tag_148:\n        /* \"core/PrivacyPool.sol\":3527:3708  Note({... */\n      mload(0x40)\n      dup1\n      0xa0\n      add\n      0x40\n      mstore\n      dup1\n        /* \"core/PrivacyPool.sol\":3558:3568  commitment */\n      dup7\n        /* \"core/PrivacyPool.sol\":3527:3708  Note({... */\n      dup2\n      mstore\n      0x20\n      add\n        /* \"core/PrivacyPool.sol\":3601:3602  0 */\n      0x00\n        /* \"core/PrivacyPool.sol\":3593:3603  bytes32(0) */\n      dup1\n      shl\n        /* \"core/PrivacyPool.sol\":3527:3708  Note({... */\n      dup2\n      mstore\n      0x20\n      add\n        /* \"core/PrivacyPool.sol\":3625:3631  amount */\n      dup6\n        /* \"core/PrivacyPool.sol\":3527:3708  Note({... */\n      dup2\n      mstore\n      0x20\n      add\n        /* \"core/PrivacyPool.sol\":3652:3657  false */\n      0x00\n        /* \"core/PrivacyPool.sol\":3527:3708  Note({... */\n      iszero\n      iszero\n      dup2\n      mstore\n      0x20\n      add\n        /* \"core/PrivacyPool.sol\":3682:3697  block.timestamp */\n      timestamp\n        /* \"core/PrivacyPool.sol\":3527:3708  Note({... */\n      dup2\n      mstore\n      pop\n        /* \"core/PrivacyPool.sol\":3507:3512  notes */\n      0x04\n        /* \"core/PrivacyPool.sol\":3507:3524  notes[commitment] */\n      0x00\n        /* \"core/PrivacyPool.sol\":3513:3523  commitment */\n      dup8\n        /* \"core/PrivacyPool.sol\":3507:3524  notes[commitment] */\n      dup2\n      mstore\n      0x20\n      add\n      swap1\n      dup2\n      mstore\n      0x20\n      add\n      0x00\n      keccak256\n        /* \"core/PrivacyPool.sol\":3507:3708  notes[commitment] = Note({... */\n      0x00\n      dup3\n      add\n      mload\n      dup2\n      0x00\n      add\n      sstore\n      0x20\n      dup3\n      add\n      mload\n      dup2\n      0x01\n      add\n      sstore\n      0x40\n      dup3\n      add\n      mload\n      dup2\n      0x02\n      add\n      sstore\n      0x60\n      dup3\n      add\n      mload\n      dup2\n      0x03\n      add\n      exp(0x0100, 0x00)\n      dup2\n      sload\n      dup2\n      0xff\n      mul\n      not\n      and\n      swap1\n      dup4\n      iszero\n      iszero\n      mul\n      or\n      swap1\n      sstore\n      pop\n      0x80\n      dup3\n      add\n      mload\n      dup2\n      0x04\n      add\n      sstore\n      swap1\n      pop\n      pop\n        /* \"core/PrivacyPool.sol\":3738:3748  commitment */\n      dup5\n        /* \"core/PrivacyPool.sol\":3724:3774  NoteDeposited(commitment, amount, block.timestamp) */\n      0x1ca12c4f007b87bb1429f9f86ac057e97667574f9f31be5b9c3ea6260e8872fe\n        /* \"core/PrivacyPool.sol\":3750:3756  amount */\n      dup6\n        /* \"core/PrivacyPool.sol\":3758:3773  block.timestamp */\n      timestamp\n        /* \"core/PrivacyPool.sol\":3724:3774  NoteDeposited(commitment, amount, block.timestamp) */\n      mload(0x40)\n      tag_151\n      swap3\n      swap2\n      swap1\n      tag_152\n      jump\t// in\n    tag_151:\n      mload(0x40)\n      dup1\n      swap2\n      sub\n      swap1\n      log2\n        /* \"core/PrivacyPool.sol\":2514:3781  {... */\n      pop\n        /* \"@openzeppelin/contracts/utils/ReentrancyGuard.sol\":2542:2562  _nonReentrantAfter() */\n      tag_153\n        /* \"@openzeppelin/contracts/utils/ReentrancyGuard.sol\":2542:2560  _nonReentrantAfter */\n      tag_154\n        /* \"@openzeppelin/contracts/utils/ReentrancyGuard.sol\":2542:2562  _nonReentrantAfter() */\n      jump\t// in\n    tag_153:\n        /* \"core/PrivacyPool.sol\":2373:3781  function deposit(... */\n      pop\n      pop\n      pop\n      pop\n      jump\t// out\n        /* \"core/PrivacyPool.sol\":7385:7506  function isNullifierUsed(bytes32 nullifier) external view returns (bool) {... */\n    tag_36:\n        /* \"core/PrivacyPool.sol\":7452:7456  bool */\n      0x00\n        /* \"core/PrivacyPool.sol\":7475:7488  nullifierUsed */\n      0x05\n        /* \"core/PrivacyPool.sol\":7475:7499  nullifierUsed[nullifier] */\n      0x00\n        /* \"core/PrivacyPool.sol\":7489:7498  nullifier */\n      dup4\n        /* \"core/PrivacyPool.sol\":7475:7499  nullifierUsed[nullifier] */\n      dup2\n      mstore\n      0x20\n      add\n      swap1\n      dup2\n      mstore\n      0x20\n      add\n      0x00\n      keccak256\n      0x00\n      swap1\n      sload\n      swap1\n      0x0100\n      exp\n      swap1\n      div\n      0xff\n      and\n        /* \"core/PrivacyPool.sol\":7468:7499  return nullifierUsed[nullifier] */\n      swap1\n      pop\n        /* \"core/PrivacyPool.sol\":7385:7506  function isNullifierUsed(bytes32 nullifier) external view returns (bool) {... */\n      swap2\n      swap1\n      pop\n      jump\t// out\n        /* \"core/PrivacyPool.sol\":410:435  IVerifier public verifier */\n    tag_40:\n      0x02\n      0x01\n      swap1\n      sload\n      swap1\n      0x0100\n      exp\n      swap1\n      div\n      0xffffffffffffffffffffffffffffffffffffffff\n      and\n      dup2\n      jump\t// out\n        /* \"core/PrivacyPool.sol\":6484:6549  function unpause() external onlyOwner {... */\n    tag_44:\n        /* \"@openzeppelin/contracts/access/Ownable.sol\":1531:1544  _checkOwner() */\n      tag_157\n        /* \"@openzeppelin/contracts/access/Ownable.sol\":1531:1542  _checkOwner */\n      tag_158\n        /* \"@openzeppelin/contracts/access/Ownable.sol\":1531:1544  _checkOwner() */\n      jump\t// in\n    tag_157:\n        /* \"core/PrivacyPool.sol\":6532:6542  _unpause() */\n      tag_160\n        /* \"core/PrivacyPool.sol\":6532:6540  _unpause */\n      tag_161\n        /* \"core/PrivacyPool.sol\":6532:6542  _unpause() */\n      jump\t// in\n    tag_160:\n        /* \"core/PrivacyPool.sol\":6484:6549  function unpause() external onlyOwner {... */\n      jump\t// out\n        /* \"core/PrivacyPool.sol\":6028:6325  function setVerifier(address _verifier) external onlyOwner {... */\n    tag_48:\n        /* \"@openzeppelin/contracts/access/Ownable.sol\":1531:1544  _checkOwner() */\n      tag_163\n        /* \"@openzeppelin/contracts/access/Ownable.sol\":1531:1542  _checkOwner */\n      tag_158\n        /* \"@openzeppelin/contracts/access/Ownable.sol\":1531:1544  _checkOwner() */\n      jump\t// in\n    tag_163:\n        /* \"core/PrivacyPool.sol\":6126:6127  0 */\n      0x00\n        /* \"core/PrivacyPool.sol\":6105:6128  _verifier != address(0) */\n      0xffffffffffffffffffffffffffffffffffffffff\n      and\n        /* \"core/PrivacyPool.sol\":6105:6114  _verifier */\n      dup2\n        /* \"core/PrivacyPool.sol\":6105:6128  _verifier != address(0) */\n      0xffffffffffffffffffffffffffffffffffffffff\n      and\n      sub\n        /* \"core/PrivacyPool.sol\":6097:6157  require(_verifier != address(0), \"Invalid verifier address\") */\n      tag_165\n      jumpi\n      mload(0x40)\n      0x08c379a000000000000000000000000000000000000000000000000000000000\n      dup2\n      mstore\n      0x04\n      add\n      tag_166\n      swap1\n      tag_167\n      jump\t// in\n    tag_166:\n      mload(0x40)\n      dup1\n      swap2\n      sub\n      swap1\n      revert\n    tag_165:\n        /* \"core/PrivacyPool.sol\":6167:6186  address oldVerifier */\n      0x00\n        /* \"core/PrivacyPool.sol\":6197:6205  verifier */\n      0x02\n      0x01\n      swap1\n      sload\n      swap1\n      0x0100\n      exp\n      swap1\n      div\n      0xffffffffffffffffffffffffffffffffffffffff\n      and\n        /* \"core/PrivacyPool.sol\":6167:6206  address oldVerifier = address(verifier) */\n      swap1\n      pop\n        /* \"core/PrivacyPool.sol\":6237:6246  _verifier */\n      dup2\n        /* \"core/PrivacyPool.sol\":6216:6224  verifier */\n      0x02\n      0x01\n        /* \"core/PrivacyPool.sol\":6216:6247  verifier = IVerifier(_verifier) */\n      0x0100\n      exp\n      dup2\n      sload\n      dup2\n      0xffffffffffffffffffffffffffffffffffffffff\n      mul\n      not\n      and\n      swap1\n      dup4\n      0xffffffffffffffffffffffffffffffffffffffff\n      and\n      mul\n      or\n      swap1\n      sstore\n      pop\n        /* \"core/PrivacyPool.sol\":6291:6300  _verifier */\n      dup2\n        /* \"core/PrivacyPool.sol\":6262:6318  VerifierUpdated(oldVerifier, _verifier, block.timestamp) */\n      0xffffffffffffffffffffffffffffffffffffffff\n      and\n        /* \"core/PrivacyPool.sol\":6278:6289  oldVerifier */\n      dup2\n        /* \"core/PrivacyPool.sol\":6262:6318  VerifierUpdated(oldVerifier, _verifier, block.timestamp) */\n      0xffffffffffffffffffffffffffffffffffffffff\n      and\n      0xd64ae07f3ddea489022b7c3651c0b93cc96296695feac84461061dfa1f34c0cb\n        /* \"core/PrivacyPool.sol\":6302:6317  block.timestamp */\n      timestamp\n        /* \"core/PrivacyPool.sol\":6262:6318  VerifierUpdated(oldVerifier, _verifier, block.timestamp) */\n      mload(0x40)\n      tag_168\n      swap2\n      swap1\n      tag_28\n      jump\t// in\n    tag_168:\n      mload(0x40)\n      dup1\n      swap2\n      sub\n      swap1\n      log3\n        /* \"core/PrivacyPool.sol\":6087:6325  {... */\n      pop\n        /* \"core/PrivacyPool.sol\":6028:6325  function setVerifier(address _verifier) external onlyOwner {... */\n      pop\n      jump\t// out\n        /* \"@openzeppelin/contracts/utils/Pausable.sol\":1850:1934  function paused() public view virtual returns (bool) {... */\n    tag_50:\n        /* \"@openzeppelin/contracts/utils/Pausable.sol\":1897:1901  bool */\n      0x00\n        /* \"@openzeppelin/contracts/utils/Pausable.sol\":1920:1927  _paused */\n      0x02\n      0x00\n      swap1\n      sload\n      swap1\n      0x0100\n      exp\n      swap1\n      div\n      0xff\n      and\n        /* \"@openzeppelin/contracts/utils/Pausable.sol\":1913:1927  return _paused */\n      swap1\n      pop\n        /* \"@openzeppelin/contracts/utils/Pausable.sol\":1850:1934  function paused() public view virtual returns (bool) {... */\n      swap1\n      jump\t// out\n        /* \"@openzeppelin/contracts/access/Ownable.sol\":2293:2394  function renounceOwnership() public virtual onlyOwner {... */\n    tag_53:\n        /* \"@openzeppelin/contracts/access/Ownable.sol\":1531:1544  _checkOwner() */\n      tag_171\n        /* \"@openzeppelin/contracts/access/Ownable.sol\":1531:1542  _checkOwner */\n      tag_158\n        /* \"@openzeppelin/contracts/access/Ownable.sol\":1531:1544  _checkOwner() */\n      jump\t// in\n    tag_171:\n        /* \"@openzeppelin/contracts/access/Ownable.sol\":2357:2387  _transferOwnership(address(0)) */\n      tag_173\n        /* \"@openzeppelin/contracts/access/Ownable.sol\":2384:2385  0 */\n      0x00\n        /* \"@openzeppelin/contracts/access/Ownable.sol\":2357:2375  _transferOwnership */\n      tag_174\n        /* \"@openzeppelin/contracts/access/Ownable.sol\":2357:2387  _transferOwnership(address(0)) */\n      jump\t// in\n    tag_173:\n        /* \"@openzeppelin/contracts/access/Ownable.sol\":2293:2394  function renounceOwnership() public virtual onlyOwner {... */\n      jump\t// out\n        /* \"core/PrivacyPool.sol\":1031:1076  mapping(bytes32 => bool) public nullifierUsed */\n    tag_56:\n      mstore(0x20, 0x05)\n      dup1\n      0x00\n      mstore\n      keccak256(0x00, 0x40)\n      0x00\n      swap2\n      pop\n      sload\n      swap1\n      0x0100\n      exp\n      swap1\n      div\n      0xff\n      and\n      dup2\n      jump\t// out\n        /* \"core/PrivacyPool.sol\":6378:6439  function pause() external onlyOwner {... */\n    tag_59:\n        /* \"@openzeppelin/contracts/access/Ownable.sol\":1531:1544  _checkOwner() */\n      tag_176\n        /* \"@openzeppelin/contracts/access/Ownable.sol\":1531:1542  _checkOwner */\n      tag_158\n        /* \"@openzeppelin/contracts/access/Ownable.sol\":1531:1544  _checkOwner() */\n      jump\t// in\n    tag_176:\n        /* \"core/PrivacyPool.sol\":6424:6432  _pause() */\n      tag_178\n        /* \"core/PrivacyPool.sol\":6424:6430  _pause */\n      tag_179\n        /* \"core/PrivacyPool.sol\":6424:6432  _pause() */\n      jump\t// in\n    tag_178:\n        /* \"core/PrivacyPool.sol\":6378:6439  function pause() external onlyOwner {... */\n      jump\t// out\n        /* \"core/PrivacyPool.sol\":957:994  mapping(bytes32 => Note) public notes */\n    tag_62:\n      mstore(0x20, 0x04)\n      dup1\n      0x00\n      mstore\n      keccak256(0x00, 0x40)\n      0x00\n      swap2\n      pop\n      swap1\n      pop\n      dup1\n      0x00\n      add\n      sload\n      swap1\n      dup1\n      0x01\n      add\n      sload\n      swap1\n      dup1\n      0x02\n      add\n      sload\n      swap1\n      dup1\n      0x03\n      add\n      0x00\n      swap1\n      sload\n      swap1\n      0x0100\n      exp\n      swap1\n      div\n      0xff\n      and\n      swap1\n      dup1\n      0x04\n      add\n      sload\n      swap1\n      pop\n      dup6\n      jump\t// out\n        /* \"@openzeppelin/contracts/access/Ownable.sol\":1638:1723  function owner() public view virtual returns (address) {... */\n    tag_66:\n        /* \"@openzeppelin/contracts/access/Ownable.sol\":1684:1691  address */\n      0x00\n        /* \"@openzeppelin/contracts/access/Ownable.sol\":1710:1716  _owner */\n      dup1\n      0x00\n      swap1\n      sload\n      swap1\n      0x0100\n      exp\n      swap1\n      div\n      0xffffffffffffffffffffffffffffffffffffffff\n      and\n        /* \"@openzeppelin/contracts/access/Ownable.sol\":1703:1716  return _owner */\n      swap1\n      pop\n        /* \"@openzeppelin/contracts/access/Ownable.sol\":1638:1723  function owner() public view virtual returns (address) {... */\n      swap1\n      jump\t// out\n        /* \"core/PrivacyPool.sol\":7095:7216  function getNoteDetails(bytes32 commitment) external view returns (Note memory) {... */\n    tag_71:\n        /* \"core/PrivacyPool.sol\":7162:7173  Note memory */\n      tag_181\n      tag_182\n      jump\t// in\n    tag_181:\n        /* \"core/PrivacyPool.sol\":7192:7197  notes */\n      0x04\n        /* \"core/PrivacyPool.sol\":7192:7209  notes[commitment] */\n      0x00\n        /* \"core/PrivacyPool.sol\":7198:7208  commitment */\n      dup4\n        /* \"core/PrivacyPool.sol\":7192:7209  notes[commitment] */\n      dup2\n      mstore\n      0x20\n      add\n      swap1\n      dup2\n      mstore\n      0x20\n      add\n      0x00\n      keccak256\n        /* \"core/PrivacyPool.sol\":7185:7209  return notes[commitment] */\n      mload(0x40)\n      dup1\n      0xa0\n      add\n      0x40\n      mstore\n      swap1\n      dup2\n      0x00\n      dup3\n      add\n      sload\n      dup2\n      mstore\n      0x20\n      add\n      0x01\n      dup3\n      add\n      sload\n      dup2\n      mstore\n      0x20\n      add\n      0x02\n      dup3\n      add\n      sload\n      dup2\n      mstore\n      0x20\n      add\n      0x03\n      dup3\n      add\n      0x00\n      swap1\n      sload\n      swap1\n      0x0100\n      exp\n      swap1\n      div\n      0xff\n      and\n      iszero\n      iszero\n      iszero\n      iszero\n      dup2\n      mstore\n      0x20\n      add\n      0x04\n      dup3\n      add\n      sload\n      dup2\n      mstore\n      pop\n      pop\n      swap1\n      pop\n        /* \"core/PrivacyPool.sol\":7095:7216  function getNoteDetails(bytes32 commitment) external view returns (Note memory) {... */\n      swap2\n      swap1\n      pop\n      jump\t// out\n        /* \"core/PrivacyPool.sol\":4070:5715  function withdraw(... */\n    tag_77:\n        /* \"@openzeppelin/contracts/utils/ReentrancyGuard.sol\":2500:2521  _nonReentrantBefore() */\n      tag_185\n        /* \"@openzeppelin/contracts/utils/ReentrancyGuard.sol\":2500:2519  _nonReentrantBefore */\n      tag_101\n        /* \"@openzeppelin/contracts/utils/ReentrancyGuard.sol\":2500:2521  _nonReentrantBefore() */\n      jump\t// in\n    tag_185:\n        /* \"@openzeppelin/contracts/utils/Pausable.sol\":1474:1493  _requireNotPaused() */\n      tag_187\n        /* \"@openzeppelin/contracts/utils/Pausable.sol\":1474:1491  _requireNotPaused */\n      tag_104\n        /* \"@openzeppelin/contracts/utils/Pausable.sol\":1474:1493  _requireNotPaused() */\n      jump\t// in\n    tag_187:\n        /* \"core/PrivacyPool.sol\":4332:4333  0 */\n      0x00\n        /* \"core/PrivacyPool.sol\":4324:4334  bytes32(0) */\n      dup1\n      shl\n        /* \"core/PrivacyPool.sol\":4311:4320  nullifier */\n      dup7\n        /* \"core/PrivacyPool.sol\":4311:4334  nullifier != bytes32(0) */\n      sub\n        /* \"core/PrivacyPool.sol\":4303:4356  require(nullifier != bytes32(0), \"Invalid nullifier\") */\n      tag_189\n      jumpi\n      mload(0x40)\n      0x08c379a000000000000000000000000000000000000000000000000000000000\n      dup2\n      mstore\n      0x04\n      add\n      tag_190\n      swap1\n      tag_191\n      jump\t// in\n    tag_190:\n      mload(0x40)\n      dup1\n      swap2\n      sub\n      swap1\n      revert\n    tag_189:\n        /* \"core/PrivacyPool.sol\":4396:4397  0 */\n      0x00\n        /* \"core/PrivacyPool.sol\":4388:4398  bytes32(0) */\n      dup1\n      shl\n        /* \"core/PrivacyPool.sol\":4374:4384  commitment */\n      dup6\n        /* \"core/PrivacyPool.sol\":4374:4398  commitment != bytes32(0) */\n      sub\n        /* \"core/PrivacyPool.sol\":4366:4421  require(commitment != bytes32(0), \"Invalid commitment\") */\n      tag_192\n      jumpi\n      mload(0x40)\n      0x08c379a000000000000000000000000000000000000000000000000000000000\n      dup2\n      mstore\n      0x04\n      add\n      tag_193\n      swap1\n      tag_108\n      jump\t// in\n    tag_193:\n      mload(0x40)\n      dup1\n      swap2\n      sub\n      swap1\n      revert\n    tag_192:\n        /* \"core/PrivacyPool.sol\":4460:4461  0 */\n      0x00\n        /* \"core/PrivacyPool.sol\":4439:4462  recipient != address(0) */\n      0xffffffffffffffffffffffffffffffffffffffff\n      and\n        /* \"core/PrivacyPool.sol\":4439:4448  recipient */\n      dup5\n        /* \"core/PrivacyPool.sol\":4439:4462  recipient != address(0) */\n      0xffffffffffffffffffffffffffffffffffffffff\n      and\n      sub\n        /* \"core/PrivacyPool.sol\":4431:4484  require(recipient != address(0), \"Invalid recipient\") */\n      tag_194\n      jumpi\n      mload(0x40)\n      0x08c379a000000000000000000000000000000000000000000000000000000000\n      dup2\n      mstore\n      0x04\n      add\n      tag_195\n      swap1\n      tag_196\n      jump\t// in\n    tag_195:\n      mload(0x40)\n      dup1\n      swap2\n      sub\n      swap1\n      revert\n    tag_194:\n        /* \"core/PrivacyPool.sol\":4511:4512  0 */\n      0x00\n        /* \"core/PrivacyPool.sol\":4502:4508  amount */\n      dup4\n        /* \"core/PrivacyPool.sol\":4502:4512  amount > 0 */\n      gt\n        /* \"core/PrivacyPool.sol\":4494:4531  require(amount > 0, \"Invalid amount\") */\n      tag_197\n      jumpi\n      mload(0x40)\n      0x08c379a000000000000000000000000000000000000000000000000000000000\n      dup2\n      mstore\n      0x04\n      add\n      tag_198\n      swap1\n      tag_199\n      jump\t// in\n    tag_198:\n      mload(0x40)\n      dup1\n      swap2\n      sub\n      swap1\n      revert\n    tag_197:\n        /* \"core/PrivacyPool.sol\":4550:4563  nullifierUsed */\n      0x05\n        /* \"core/PrivacyPool.sol\":4550:4574  nullifierUsed[nullifier] */\n      0x00\n        /* \"core/PrivacyPool.sol\":4564:4573  nullifier */\n      dup8\n        /* \"core/PrivacyPool.sol\":4550:4574  nullifierUsed[nullifier] */\n      dup2\n      mstore\n      0x20\n      add\n      swap1\n      dup2\n      mstore\n      0x20\n      add\n      0x00\n      keccak256\n      0x00\n      swap1\n      sload\n      swap1\n      0x0100\n      exp\n      swap1\n      div\n      0xff\n      and\n        /* \"core/PrivacyPool.sol\":4549:4574  !nullifierUsed[nullifier] */\n      iszero\n        /* \"core/PrivacyPool.sol\":4541:4593  require(!nullifierUsed[nullifier], \"Nullifier used\") */\n      tag_200\n      jumpi\n      mload(0x40)\n      0x08c379a000000000000000000000000000000000000000000000000000000000\n      dup2\n      mstore\n      0x04\n      add\n      tag_201\n      swap1\n      tag_202\n      jump\t// in\n    tag_201:\n      mload(0x40)\n      dup1\n      swap2\n      sub\n      swap1\n      revert\n    tag_200:\n        /* \"core/PrivacyPool.sol\":4612:4629  Note storage note */\n      0x00\n        /* \"core/PrivacyPool.sol\":4632:4637  notes */\n      0x04\n        /* \"core/PrivacyPool.sol\":4632:4649  notes[commitment] */\n      0x00\n        /* \"core/PrivacyPool.sol\":4638:4648  commitment */\n      dup8\n        /* \"core/PrivacyPool.sol\":4632:4649  notes[commitment] */\n      dup2\n      mstore\n      0x20\n      add\n      swap1\n      dup2\n      mstore\n      0x20\n      add\n      0x00\n      keccak256\n        /* \"core/PrivacyPool.sol\":4612:4649  Note storage note = notes[commitment] */\n      swap1\n      pop\n        /* \"core/PrivacyPool.sol\":4694:4695  0 */\n      0x00\n        /* \"core/PrivacyPool.sol\":4686:4696  bytes32(0) */\n      dup1\n      shl\n        /* \"core/PrivacyPool.sol\":4667:4671  note */\n      dup2\n        /* \"core/PrivacyPool.sol\":4667:4682  note.commitment */\n      0x00\n      add\n      sload\n        /* \"core/PrivacyPool.sol\":4667:4696  note.commitment != bytes32(0) */\n      sub\n        /* \"core/PrivacyPool.sol\":4659:4715  require(note.commitment != bytes32(0), \"Note not found\") */\n      tag_203\n      jumpi\n      mload(0x40)\n      0x08c379a000000000000000000000000000000000000000000000000000000000\n      dup2\n      mstore\n      0x04\n      add\n      tag_204\n      swap1\n      tag_205\n      jump\t// in\n    tag_204:\n      mload(0x40)\n      dup1\n      swap2\n      sub\n      swap1\n      revert\n    tag_203:\n        /* \"core/PrivacyPool.sol\":4734:4738  note */\n      dup1\n        /* \"core/PrivacyPool.sol\":4734:4744  note.spent */\n      0x03\n      add\n      0x00\n      swap1\n      sload\n      swap1\n      0x0100\n      exp\n      swap1\n      div\n      0xff\n      and\n        /* \"core/PrivacyPool.sol\":4733:4744  !note.spent */\n      iszero\n        /* \"core/PrivacyPool.sol\":4725:4759  require(!note.spent, \"Note spent\") */\n      tag_206\n      jumpi\n      mload(0x40)\n      0x08c379a000000000000000000000000000000000000000000000000000000000\n      dup2\n      mstore\n      0x04\n      add\n      tag_207\n      swap1\n      tag_208\n      jump\t// in\n    tag_207:\n      mload(0x40)\n      dup1\n      swap2\n      sub\n      swap1\n      revert\n    tag_206:\n        /* \"core/PrivacyPool.sol\":4787:4791  note */\n      dup1\n        /* \"core/PrivacyPool.sol\":4787:4798  note.amount */\n      0x02\n      add\n      sload\n        /* \"core/PrivacyPool.sol\":4777:4783  amount */\n      dup5\n        /* \"core/PrivacyPool.sol\":4777:4798  amount <= note.amount */\n      gt\n      iszero\n        /* \"core/PrivacyPool.sol\":4769:4823  require(amount <= note.amount, \"Insufficient balance\") */\n      tag_209\n      jumpi\n      mload(0x40)\n      0x08c379a000000000000000000000000000000000000000000000000000000000\n      dup2\n      mstore\n      0x04\n      add\n      tag_210\n      swap1\n      tag_211\n      jump\t// in\n    tag_210:\n      mload(0x40)\n      dup1\n      swap2\n      sub\n      swap1\n      revert\n    tag_209:\n        /* \"core/PrivacyPool.sol\":4856:4857  0 */\n      0x00\n        /* \"core/PrivacyPool.sol\":4841:4846  proof */\n      dup4\n      dup4\n        /* \"core/PrivacyPool.sol\":4841:4853  proof.length */\n      swap1\n      pop\n        /* \"core/PrivacyPool.sol\":4841:4857  proof.length > 0 */\n      gt\n        /* \"core/PrivacyPool.sol\":4833:4873  require(proof.length > 0, \"Empty proof\") */\n      tag_212\n      jumpi\n      mload(0x40)\n      0x08c379a000000000000000000000000000000000000000000000000000000000\n      dup2\n      mstore\n      0x04\n      add\n      tag_213\n      swap1\n      tag_120\n      jump\t// in\n    tag_213:\n      mload(0x40)\n      dup1\n      swap2\n      sub\n      swap1\n      revert\n    tag_212:\n        /* \"core/PrivacyPool.sol\":4940:4948  verifier */\n      0x02\n      0x01\n      swap1\n      sload\n      swap1\n      0x0100\n      exp\n      swap1\n      div\n      0xffffffffffffffffffffffffffffffffffffffff\n      and\n        /* \"core/PrivacyPool.sol\":4940:4968  verifier.verifyWithdrawProof */\n      0xffffffffffffffffffffffffffffffffffffffff\n      and\n      0xc53ed3bf\n        /* \"core/PrivacyPool.sol\":4986:4995  nullifier */\n      dup9\n        /* \"core/PrivacyPool.sol\":5013:5023  commitment */\n      dup9\n        /* \"core/PrivacyPool.sol\":5041:5050  recipient */\n      dup9\n        /* \"core/PrivacyPool.sol\":5068:5074  amount */\n      dup9\n        /* \"core/PrivacyPool.sol\":5092:5097  proof */\n      dup9\n      dup9\n        /* \"core/PrivacyPool.sol\":4940:5111  verifier.verifyWithdrawProof(... */\n      mload(0x40)\n      dup8\n      0xffffffff\n      and\n      0xe0\n      shl\n      dup2\n      mstore\n      0x04\n      add\n      tag_214\n      swap7\n      swap6\n      swap5\n      swap4\n      swap3\n      swap2\n      swap1\n      tag_215\n      jump\t// in\n    tag_214:\n      0x20\n      mload(0x40)\n      dup1\n      dup4\n      sub\n      dup2\n      dup7\n      gas\n      staticcall\n      iszero\n      dup1\n      iszero\n      tag_217\n      jumpi\n      returndatasize\n      0x00\n      dup1\n      returndatacopy\n      revert(0x00, returndatasize)\n    tag_217:\n      pop\n      pop\n      pop\n      pop\n      mload(0x40)\n      returndatasize\n      not(0x1f)\n      0x1f\n      dup3\n      add\n      and\n      dup3\n      add\n      dup1\n      0x40\n      mstore\n      pop\n      dup2\n      add\n      swap1\n      tag_218\n      swap2\n      swap1\n      tag_126\n      jump\t// in\n    tag_218:\n        /* \"core/PrivacyPool.sol\":4919:5150  require(... */\n      tag_219\n      jumpi\n      mload(0x40)\n      0x08c379a000000000000000000000000000000000000000000000000000000000\n      dup2\n      mstore\n      0x04\n      add\n      tag_220\n      swap1\n      tag_129\n      jump\t// in\n    tag_220:\n      mload(0x40)\n      dup1\n      swap2\n      sub\n      swap1\n      revert\n    tag_219:\n        /* \"core/PrivacyPool.sol\":5240:5244  true */\n      0x01\n        /* \"core/PrivacyPool.sol\":5213:5226  nullifierUsed */\n      0x05\n        /* \"core/PrivacyPool.sol\":5213:5237  nullifierUsed[nullifier] */\n      0x00\n        /* \"core/PrivacyPool.sol\":5227:5236  nullifier */\n      dup10\n        /* \"core/PrivacyPool.sol\":5213:5237  nullifierUsed[nullifier] */\n      dup2\n      mstore\n      0x20\n      add\n      swap1\n      dup2\n      mstore\n      0x20\n      add\n      0x00\n      keccak256\n      0x00\n        /* \"core/PrivacyPool.sol\":5213:5244  nullifierUsed[nullifier] = true */\n      0x0100\n      exp\n      dup2\n      sload\n      dup2\n      0xff\n      mul\n      not\n      and\n      swap1\n      dup4\n      iszero\n      iszero\n      mul\n      or\n      swap1\n      sstore\n      pop\n        /* \"core/PrivacyPool.sol\":5267:5271  true */\n      0x01\n        /* \"core/PrivacyPool.sol\":5254:5258  note */\n      dup2\n        /* \"core/PrivacyPool.sol\":5254:5264  note.spent */\n      0x03\n      add\n      0x00\n        /* \"core/PrivacyPool.sol\":5254:5271  note.spent = true */\n      0x0100\n      exp\n      dup2\n      sload\n      dup2\n      0xff\n      mul\n      not\n      and\n      swap1\n      dup4\n      iszero\n      iszero\n      mul\n      or\n      swap1\n      sstore\n      pop\n        /* \"core/PrivacyPool.sol\":5298:5307  nullifier */\n      dup7\n        /* \"core/PrivacyPool.sol\":5281:5285  note */\n      dup2\n        /* \"core/PrivacyPool.sol\":5281:5295  note.nullifier */\n      0x01\n      add\n        /* \"core/PrivacyPool.sol\":5281:5307  note.nullifier = nullifier */\n      dup2\n      swap1\n      sstore\n      pop\n        /* \"core/PrivacyPool.sol\":5345:5366  uint256 balanceBefore */\n      0x00\n        /* \"core/PrivacyPool.sol\":5369:5374  token */\n      0x03\n      0x00\n      swap1\n      sload\n      swap1\n      0x0100\n      exp\n      swap1\n      div\n      0xffffffffffffffffffffffffffffffffffffffff\n      and\n        /* \"core/PrivacyPool.sol\":5369:5384  token.balanceOf */\n      0xffffffffffffffffffffffffffffffffffffffff\n      and\n      0x70a08231\n        /* \"core/PrivacyPool.sol\":5385:5394  recipient */\n      dup8\n        /* \"core/PrivacyPool.sol\":5369:5395  token.balanceOf(recipient) */\n      mload(0x40)\n      dup3\n      0xffffffff\n      and\n      0xe0\n      shl\n      dup2\n      mstore\n      0x04\n      add\n      tag_221\n      swap2\n      swap1\n      tag_68\n      jump\t// in\n    tag_221:\n      0x20\n      mload(0x40)\n      dup1\n      dup4\n      sub\n      dup2\n      dup7\n      gas\n      staticcall\n      iszero\n      dup1\n      iszero\n      tag_223\n      jumpi\n      returndatasize\n      0x00\n      dup1\n      returndatacopy\n      revert(0x00, returndatasize)\n    tag_223:\n      pop\n      pop\n      pop\n      pop\n      mload(0x40)\n      returndatasize\n      not(0x1f)\n      0x1f\n      dup3\n      add\n      and\n      dup3\n      add\n      dup1\n      0x40\n      mstore\n      pop\n      dup2\n      add\n      swap1\n      tag_224\n      swap2\n      swap1\n      tag_98\n      jump\t// in\n    tag_224:\n        /* \"core/PrivacyPool.sol\":5345:5395  uint256 balanceBefore = token.balanceOf(recipient) */\n      swap1\n      pop\n        /* \"core/PrivacyPool.sol\":5426:5431  token */\n      0x03\n      0x00\n      swap1\n      sload\n      swap1\n      0x0100\n      exp\n      swap1\n      div\n      0xffffffffffffffffffffffffffffffffffffffff\n      and\n        /* \"core/PrivacyPool.sol\":5426:5440  token.transfer */\n      0xffffffffffffffffffffffffffffffffffffffff\n      and\n      0xa9059cbb\n        /* \"core/PrivacyPool.sol\":5441:5450  recipient */\n      dup8\n        /* \"core/PrivacyPool.sol\":5452:5458  amount */\n      dup8\n        /* \"core/PrivacyPool.sol\":5426:5459  token.transfer(recipient, amount) */\n      mload(0x40)\n      dup4\n      0xffffffff\n      and\n      0xe0\n      shl\n      dup2\n      mstore\n      0x04\n      add\n      tag_225\n      swap3\n      swap2\n      swap1\n      tag_226\n      jump\t// in\n    tag_225:\n      0x20\n      mload(0x40)\n      dup1\n      dup4\n      sub\n      dup2\n      0x00\n      dup8\n      gas\n      call\n      iszero\n      dup1\n      iszero\n      tag_228\n      jumpi\n      returndatasize\n      0x00\n      dup1\n      returndatacopy\n      revert(0x00, returndatasize)\n    tag_228:\n      pop\n      pop\n      pop\n      pop\n      mload(0x40)\n      returndatasize\n      not(0x1f)\n      0x1f\n      dup3\n      add\n      and\n      dup3\n      add\n      dup1\n      0x40\n      mstore\n      pop\n      dup2\n      add\n      swap1\n      tag_229\n      swap2\n      swap1\n      tag_126\n      jump\t// in\n    tag_229:\n        /* \"core/PrivacyPool.sol\":5405:5500  require(... */\n      tag_230\n      jumpi\n      mload(0x40)\n      0x08c379a000000000000000000000000000000000000000000000000000000000\n      dup2\n      mstore\n      0x04\n      add\n      tag_231\n      swap1\n      tag_141\n      jump\t// in\n    tag_231:\n      mload(0x40)\n      dup1\n      swap2\n      sub\n      swap1\n      revert\n    tag_230:\n        /* \"core/PrivacyPool.sol\":5577:5583  amount */\n      dup5\n        /* \"core/PrivacyPool.sol\":5561:5574  balanceBefore */\n      dup2\n        /* \"core/PrivacyPool.sol\":5561:5583  balanceBefore + amount */\n      tag_232\n      swap2\n      swap1\n      tag_143\n      jump\t// in\n    tag_232:\n        /* \"core/PrivacyPool.sol\":5531:5536  token */\n      0x03\n      0x00\n      swap1\n      sload\n      swap1\n      0x0100\n      exp\n      swap1\n      div\n      0xffffffffffffffffffffffffffffffffffffffff\n      and\n        /* \"core/PrivacyPool.sol\":5531:5546  token.balanceOf */\n      0xffffffffffffffffffffffffffffffffffffffff\n      and\n      0x70a08231\n        /* \"core/PrivacyPool.sol\":5547:5556  recipient */\n      dup9\n        /* \"core/PrivacyPool.sol\":5531:5557  token.balanceOf(recipient) */\n      mload(0x40)\n      dup3\n      0xffffffff\n      and\n      0xe0\n      shl\n      dup2\n      mstore\n      0x04\n      add\n      tag_233\n      swap2\n      swap1\n      tag_68\n      jump\t// in\n    tag_233:\n      0x20\n      mload(0x40)\n      dup1\n      dup4\n      sub\n      dup2\n      dup7\n      gas\n      staticcall\n      iszero\n      dup1\n      iszero\n      tag_235\n      jumpi\n      returndatasize\n      0x00\n      dup1\n      returndatacopy\n      revert(0x00, returndatasize)\n    tag_235:\n      pop\n      pop\n      pop\n      pop\n      mload(0x40)\n      returndatasize\n      not(0x1f)\n      0x1f\n      dup3\n      add\n      and\n      dup3\n      add\n      dup1\n      0x40\n      mstore\n      pop\n      dup2\n      add\n      swap1\n      tag_236\n      swap2\n      swap1\n      tag_98\n      jump\t// in\n    tag_236:\n        /* \"core/PrivacyPool.sol\":5531:5583  token.balanceOf(recipient) == balanceBefore + amount */\n      eq\n        /* \"core/PrivacyPool.sol\":5510:5632  require(... */\n      tag_237\n      jumpi\n      mload(0x40)\n      0x08c379a000000000000000000000000000000000000000000000000000000000\n      dup2\n      mstore\n      0x04\n      add\n      tag_238\n      swap1\n      tag_150\n      jump\t// in\n    tag_238:\n      mload(0x40)\n      dup1\n      swap2\n      sub\n      swap1\n      revert\n    tag_237:\n        /* \"core/PrivacyPool.sol\":5673:5682  recipient */\n      dup6\n        /* \"core/PrivacyPool.sol\":5648:5708  NoteWithdrawn(nullifier, recipient, amount, block.timestamp) */\n      0xffffffffffffffffffffffffffffffffffffffff\n      and\n        /* \"core/PrivacyPool.sol\":5662:5671  nullifier */\n      dup9\n        /* \"core/PrivacyPool.sol\":5648:5708  NoteWithdrawn(nullifier, recipient, amount, block.timestamp) */\n      0x66f083a4c3ed4eec4e232ae3e65a14e7704192e147f54ed38a55600500bc368f\n        /* \"core/PrivacyPool.sol\":5684:5690  amount */\n      dup8\n        /* \"core/PrivacyPool.sol\":5692:5707  block.timestamp */\n      timestamp\n        /* \"core/PrivacyPool.sol\":5648:5708  NoteWithdrawn(nullifier, recipient, amount, block.timestamp) */\n      mload(0x40)\n      tag_239\n      swap3\n      swap2\n      swap1\n      tag_152\n      jump\t// in\n    tag_239:\n      mload(0x40)\n      dup1\n      swap2\n      sub\n      swap1\n      log3\n        /* \"core/PrivacyPool.sol\":4266:5715  {... */\n      pop\n      pop\n        /* \"@openzeppelin/contracts/utils/ReentrancyGuard.sol\":2542:2562  _nonReentrantAfter() */\n      tag_240\n        /* \"@openzeppelin/contracts/utils/ReentrancyGuard.sol\":2542:2560  _nonReentrantAfter */\n      tag_154\n        /* \"@openzeppelin/contracts/utils/ReentrancyGuard.sol\":2542:2562  _nonReentrantAfter() */\n      jump\t// in\n    tag_240:\n        /* \"core/PrivacyPool.sol\":4070:5715  function withdraw(... */\n      pop\n      pop\n      pop\n      pop\n      pop\n      pop\n      jump\t// out\n        /* \"core/PrivacyPool.sol\":6622:6970  function emergencyWithdraw() external onlyOwner {... */\n    tag_79:\n        /* \"@openzeppelin/contracts/access/Ownable.sol\":1531:1544  _checkOwner() */\n      tag_242\n        /* \"@openzeppelin/contracts/access/Ownable.sol\":1531:1542  _checkOwner */\n      tag_158\n        /* \"@openzeppelin/contracts/access/Ownable.sol\":1531:1544  _checkOwner() */\n      jump\t// in\n    tag_242:\n        /* \"core/PrivacyPool.sol\":6680:6695  uint256 balance */\n      0x00\n        /* \"core/PrivacyPool.sol\":6698:6703  token */\n      0x03\n      0x00\n      swap1\n      sload\n      swap1\n      0x0100\n      exp\n      swap1\n      div\n      0xffffffffffffffffffffffffffffffffffffffff\n      and\n        /* \"core/PrivacyPool.sol\":6698:6713  token.balanceOf */\n      0xffffffffffffffffffffffffffffffffffffffff\n      and\n      0x70a08231\n        /* \"core/PrivacyPool.sol\":6722:6726  this */\n      address\n        /* \"core/PrivacyPool.sol\":6698:6728  token.balanceOf(address(this)) */\n      mload(0x40)\n      dup3\n      0xffffffff\n      and\n      0xe0\n      shl\n      dup2\n      mstore\n      0x04\n      add\n      tag_244\n      swap2\n      swap1\n      tag_68\n      jump\t// in\n    tag_244:\n      0x20\n      mload(0x40)\n      dup1\n      dup4\n      sub\n      dup2\n      dup7\n      gas\n      staticcall\n      iszero\n      dup1\n      iszero\n      tag_246\n      jumpi\n      returndatasize\n      0x00\n      dup1\n      returndatacopy\n      revert(0x00, returndatasize)\n    tag_246:\n      pop\n      pop\n      pop\n      pop\n      mload(0x40)\n      returndatasize\n      not(0x1f)\n      0x1f\n      dup3\n      add\n      and\n      dup3\n      add\n      dup1\n      0x40\n      mstore\n      pop\n      dup2\n      add\n      swap1\n      tag_247\n      swap2\n      swap1\n      tag_98\n      jump\t// in\n    tag_247:\n        /* \"core/PrivacyPool.sol\":6680:6728  uint256 balance = token.balanceOf(address(this)) */\n      swap1\n      pop\n        /* \"core/PrivacyPool.sol\":6756:6757  0 */\n      0x00\n        /* \"core/PrivacyPool.sol\":6746:6753  balance */\n      dup2\n        /* \"core/PrivacyPool.sol\":6746:6757  balance > 0 */\n      gt\n        /* \"core/PrivacyPool.sol\":6738:6772  require(balance > 0, \"No balance\") */\n      tag_248\n      jumpi\n      mload(0x40)\n      0x08c379a000000000000000000000000000000000000000000000000000000000\n      dup2\n      mstore\n      0x04\n      add\n      tag_249\n      swap1\n      tag_250\n      jump\t// in\n    tag_249:\n      mload(0x40)\n      dup1\n      swap2\n      sub\n      swap1\n      revert\n    tag_248:\n        /* \"core/PrivacyPool.sol\":6812:6817  token */\n      0x03\n      0x00\n      swap1\n      sload\n      swap1\n      0x0100\n      exp\n      swap1\n      div\n      0xffffffffffffffffffffffffffffffffffffffff\n      and\n        /* \"core/PrivacyPool.sol\":6812:6826  token.transfer */\n      0xffffffffffffffffffffffffffffffffffffffff\n      and\n      0xa9059cbb\n        /* \"core/PrivacyPool.sol\":6827:6834  owner() */\n      tag_251\n        /* \"core/PrivacyPool.sol\":6827:6832  owner */\n      tag_66\n        /* \"core/PrivacyPool.sol\":6827:6834  owner() */\n      jump\t// in\n    tag_251:\n        /* \"core/PrivacyPool.sol\":6836:6843  balance */\n      dup4\n        /* \"core/PrivacyPool.sol\":6812:6844  token.transfer(owner(), balance) */\n      mload(0x40)\n      dup4\n      0xffffffff\n      and\n      0xe0\n      shl\n      dup2\n      mstore\n      0x04\n      add\n      tag_252\n      swap3\n      swap2\n      swap1\n      tag_226\n      jump\t// in\n    tag_252:\n      0x20\n      mload(0x40)\n      dup1\n      dup4\n      sub\n      dup2\n      0x00\n      dup8\n      gas\n      call\n      iszero\n      dup1\n      iszero\n      tag_254\n      jumpi\n      returndatasize\n      0x00\n      dup1\n      returndatacopy\n      revert(0x00, returndatasize)\n    tag_254:\n      pop\n      pop\n      pop\n      pop\n      mload(0x40)\n      returndatasize\n      not(0x1f)\n      0x1f\n      dup3\n      add\n      and\n      dup3\n      add\n      dup1\n      0x40\n      mstore\n      pop\n      dup2\n      add\n      swap1\n      tag_255\n      swap2\n      swap1\n      tag_126\n      jump\t// in\n    tag_255:\n        /* \"core/PrivacyPool.sol\":6791:6885  require(... */\n      tag_256\n      jumpi\n      mload(0x40)\n      0x08c379a000000000000000000000000000000000000000000000000000000000\n      dup2\n      mstore\n      0x04\n      add\n      tag_257\n      swap1\n      tag_141\n      jump\t// in\n    tag_257:\n      mload(0x40)\n      dup1\n      swap2\n      sub\n      swap1\n      revert\n    tag_256:\n        /* \"core/PrivacyPool.sol\":6929:6936  owner() */\n      tag_258\n        /* \"core/PrivacyPool.sol\":6929:6934  owner */\n      tag_66\n        /* \"core/PrivacyPool.sol\":6929:6936  owner() */\n      jump\t// in\n    tag_258:\n        /* \"core/PrivacyPool.sol\":6909:6963  EmergencyWithdrawal(owner(), balance, block.timestamp) */\n      0xffffffffffffffffffffffffffffffffffffffff\n      and\n      0x56da9a5ae0bcf6e7c3fdd78a10550e7d0458de1c39bfb7f6e96a3e92dd344a68\n        /* \"core/PrivacyPool.sol\":6938:6945  balance */\n      dup3\n        /* \"core/PrivacyPool.sol\":6947:6962  block.timestamp */\n      timestamp\n        /* \"core/PrivacyPool.sol\":6909:6963  EmergencyWithdrawal(owner(), balance, block.timestamp) */\n      mload(0x40)\n      tag_259\n      swap3\n      swap2\n      swap1\n      tag_152\n      jump\t// in\n    tag_259:\n      mload(0x40)\n      dup1\n      swap2\n      sub\n      swap1\n      log2\n        /* \"core/PrivacyPool.sol\":6670:6970  {... */\n      pop\n        /* \"core/PrivacyPool.sol\":6622:6970  function emergencyWithdraw() external onlyOwner {... */\n      jump\t// out\n        /* \"core/PrivacyPool.sol\":562:604  uint256 public constant MAX_DEPOSIT = 1e24 */\n    tag_81:\n        /* \"core/PrivacyPool.sol\":600:604  1e24 */\n      0xd3c21bcecceda1000000\n        /* \"core/PrivacyPool.sol\":562:604  uint256 public constant MAX_DEPOSIT = 1e24 */\n      dup2\n      jump\t// out\n        /* \"core/PrivacyPool.sol\":488:529  uint256 public constant MIN_DEPOSIT = 1e6 */\n    tag_84:\n        /* \"core/PrivacyPool.sol\":526:529  1e6 */\n      0x0f4240\n        /* \"core/PrivacyPool.sol\":488:529  uint256 public constant MIN_DEPOSIT = 1e6 */\n      dup2\n      jump\t// out\n        /* \"@openzeppelin/contracts/access/Ownable.sol\":2543:2758  function transferOwnership(address newOwner) public virtual onlyOwner {... */\n    tag_88:\n        /* \"@openzeppelin/contracts/access/Ownable.sol\":1531:1544  _checkOwner() */\n      tag_261\n        /* \"@openzeppelin/contracts/access/Ownable.sol\":1531:1542  _checkOwner */\n      tag_158\n        /* \"@openzeppelin/contracts/access/Ownable.sol\":1531:1544  _checkOwner() */\n      jump\t// in\n    tag_261:\n        /* \"@openzeppelin/contracts/access/Ownable.sol\":2647:2648  0 */\n      0x00\n        /* \"@openzeppelin/contracts/access/Ownable.sol\":2627:2649  newOwner == address(0) */\n      0xffffffffffffffffffffffffffffffffffffffff\n      and\n        /* \"@openzeppelin/contracts/access/Ownable.sol\":2627:2635  newOwner */\n      dup2\n        /* \"@openzeppelin/contracts/access/Ownable.sol\":2627:2649  newOwner == address(0) */\n      0xffffffffffffffffffffffffffffffffffffffff\n      and\n      sub\n        /* \"@openzeppelin/contracts/access/Ownable.sol\":2623:2714  if (newOwner == address(0)) {... */\n      tag_263\n      jumpi\n        /* \"@openzeppelin/contracts/access/Ownable.sol\":2700:2701  0 */\n      0x00\n        /* \"@openzeppelin/contracts/access/Ownable.sol\":2672:2703  OwnableInvalidOwner(address(0)) */\n      mload(0x40)\n      0x1e4fbdf700000000000000000000000000000000000000000000000000000000\n      dup2\n      mstore\n      0x04\n      add\n      tag_264\n      swap2\n      swap1\n      tag_68\n      jump\t// in\n    tag_264:\n      mload(0x40)\n      dup1\n      swap2\n      sub\n      swap1\n      revert\n        /* \"@openzeppelin/contracts/access/Ownable.sol\":2623:2714  if (newOwner == address(0)) {... */\n    tag_263:\n        /* \"@openzeppelin/contracts/access/Ownable.sol\":2723:2751  _transferOwnership(newOwner) */\n      tag_265\n        /* \"@openzeppelin/contracts/access/Ownable.sol\":2742:2750  newOwner */\n      dup2\n        /* \"@openzeppelin/contracts/access/Ownable.sol\":2723:2741  _transferOwnership */\n      tag_174\n        /* \"@openzeppelin/contracts/access/Ownable.sol\":2723:2751  _transferOwnership(newOwner) */\n      jump\t// in\n    tag_265:\n        /* \"@openzeppelin/contracts/access/Ownable.sol\":2543:2758  function transferOwnership(address newOwner) public virtual onlyOwner {... */\n      pop\n      jump\t// out\n        /* \"core/PrivacyPool.sol\":441:460  IERC20 public token */\n    tag_90:\n      0x03\n      0x00\n      swap1\n      sload\n      swap1\n      0x0100\n      exp\n      swap1\n      div\n      0xffffffffffffffffffffffffffffffffffffffff\n      and\n      dup2\n      jump\t// out\n        /* \"@openzeppelin/contracts/utils/ReentrancyGuard.sol\":2575:2882  function _nonReentrantBefore() private {... */\n    tag_101:\n        /* \"@openzeppelin/contracts/utils/ReentrancyGuard.sol\":1899:1900  2 */\n      0x02\n        /* \"@openzeppelin/contracts/utils/ReentrancyGuard.sol\":2702:2709  _status */\n      sload(0x01)\n        /* \"@openzeppelin/contracts/utils/ReentrancyGuard.sol\":2702:2720  _status == ENTERED */\n      sub\n        /* \"@openzeppelin/contracts/utils/ReentrancyGuard.sol\":2698:2784  if (_status == ENTERED) {... */\n      tag_267\n      jumpi\n        /* \"@openzeppelin/contracts/utils/ReentrancyGuard.sol\":2743:2773  ReentrancyGuardReentrantCall() */\n      mload(0x40)\n      0x3ee5aeb500000000000000000000000000000000000000000000000000000000\n      dup2\n      mstore\n      0x04\n      add\n      mload(0x40)\n      dup1\n      swap2\n      sub\n      swap1\n      revert\n        /* \"@openzeppelin/contracts/utils/ReentrancyGuard.sol\":2698:2784  if (_status == ENTERED) {... */\n    tag_267:\n        /* \"@openzeppelin/contracts/utils/ReentrancyGuard.sol\":1899:1900  2 */\n      0x02\n        /* \"@openzeppelin/contracts/utils/ReentrancyGuard.sol\":2858:2865  _status */\n      0x01\n        /* \"@openzeppelin/contracts/utils/ReentrancyGuard.sol\":2858:2875  _status = ENTERED */\n      dup2\n      swap1\n      sstore\n      pop\n        /* \"@openzeppelin/contracts/utils/ReentrancyGuard.sol\":2575:2882  function _nonReentrantBefore() private {... */\n      jump\t// out\n        /* \"@openzeppelin/contracts/utils/Pausable.sol\":2002:2130  function _requireNotPaused() internal view virtual {... */\n    tag_104:\n        /* \"@openzeppelin/contracts/utils/Pausable.sol\":2067:2075  paused() */\n      tag_269\n        /* \"@openzeppelin/contracts/utils/Pausable.sol\":2067:2073  paused */\n      tag_50\n        /* \"@openzeppelin/contracts/utils/Pausable.sol\":2067:2075  paused() */\n      jump\t// in\n    tag_269:\n        /* \"@openzeppelin/contracts/utils/Pausable.sol\":2063:2124  if (paused()) {... */\n      iszero\n      tag_270\n      jumpi\n        /* \"@openzeppelin/contracts/utils/Pausable.sol\":2098:2113  EnforcedPause() */\n      mload(0x40)\n      0xd93c066500000000000000000000000000000000000000000000000000000000\n      dup2\n      mstore\n      0x04\n      add\n      mload(0x40)\n      dup1\n      swap2\n      sub\n      swap1\n      revert\n        /* \"@openzeppelin/contracts/utils/Pausable.sol\":2063:2124  if (paused()) {... */\n    tag_270:\n        /* \"@openzeppelin/contracts/utils/Pausable.sol\":2002:2130  function _requireNotPaused() internal view virtual {... */\n      jump\t// out\n        /* \"@openzeppelin/contracts/utils/ReentrancyGuard.sol\":2888:3096  function _nonReentrantAfter() private {... */\n    tag_154:\n        /* \"@openzeppelin/contracts/utils/ReentrancyGuard.sol\":1857:1858  1 */\n      0x01\n        /* \"@openzeppelin/contracts/utils/ReentrancyGuard.sol\":3068:3075  _status */\n      dup1\n        /* \"@openzeppelin/contracts/utils/ReentrancyGuard.sol\":3068:3089  _status = NOT_ENTERED */\n      dup2\n      swap1\n      sstore\n      pop\n        /* \"@openzeppelin/contracts/utils/ReentrancyGuard.sol\":2888:3096  function _nonReentrantAfter() private {... */\n      jump\t// out\n        /* \"@openzeppelin/contracts/access/Ownable.sol\":1796:1958  function _checkOwner() internal view virtual {... */\n    tag_158:\n        /* \"@openzeppelin/contracts/access/Ownable.sol\":1866:1878  _msgSender() */\n      tag_273\n        /* \"@openzeppelin/contracts/access/Ownable.sol\":1866:1876  _msgSender */\n      tag_274\n        /* \"@openzeppelin/contracts/access/Ownable.sol\":1866:1878  _msgSender() */\n      jump\t// in\n    tag_273:\n        /* \"@openzeppelin/contracts/access/Ownable.sol\":1855:1878  owner() != _msgSender() */\n      0xffffffffffffffffffffffffffffffffffffffff\n      and\n        /* \"@openzeppelin/contracts/access/Ownable.sol\":1855:1862  owner() */\n      tag_275\n        /* \"@openzeppelin/contracts/access/Ownable.sol\":1855:1860  owner */\n      tag_66\n        /* \"@openzeppelin/contracts/access/Ownable.sol\":1855:1862  owner() */\n      jump\t// in\n    tag_275:\n        /* \"@openzeppelin/contracts/access/Ownable.sol\":1855:1878  owner() != _msgSender() */\n      0xffffffffffffffffffffffffffffffffffffffff\n      and\n      eq\n        /* \"@openzeppelin/contracts/access/Ownable.sol\":1851:1952  if (owner() != _msgSender()) {... */\n      tag_276\n      jumpi\n        /* \"@openzeppelin/contracts/access/Ownable.sol\":1928:1940  _msgSender() */\n      tag_277\n        /* \"@openzeppelin/contracts/access/Ownable.sol\":1928:1938  _msgSender */\n      tag_274\n        /* \"@openzeppelin/contracts/access/Ownable.sol\":1928:1940  _msgSender() */\n      jump\t// in\n    tag_277:\n        /* \"@openzeppelin/contracts/access/Ownable.sol\":1901:1941  OwnableUnauthorizedAccount(_msgSender()) */\n      mload(0x40)\n      0x118cdaa700000000000000000000000000000000000000000000000000000000\n      dup2\n      mstore\n      0x04\n      add\n      tag_278\n      swap2\n      swap1\n      tag_68\n      jump\t// in\n    tag_278:\n      mload(0x40)\n      dup1\n      swap2\n      sub\n      swap1\n      revert\n        /* \"@openzeppelin/contracts/access/Ownable.sol\":1851:1952  if (owner() != _msgSender()) {... */\n    tag_276:\n        /* \"@openzeppelin/contracts/access/Ownable.sol\":1796:1958  function _checkOwner() internal view virtual {... */\n      jump\t// out\n        /* \"@openzeppelin/contracts/utils/Pausable.sol\":2710:2827  function _unpause() internal virtual whenPaused {... */\n    tag_161:\n        /* \"@openzeppelin/contracts/utils/Pausable.sol\":1721:1737  _requirePaused() */\n      tag_280\n        /* \"@openzeppelin/contracts/utils/Pausable.sol\":1721:1735  _requirePaused */\n      tag_281\n        /* \"@openzeppelin/contracts/utils/Pausable.sol\":1721:1737  _requirePaused() */\n      jump\t// in\n    tag_280:\n        /* \"@openzeppelin/contracts/utils/Pausable.sol\":2778:2783  false */\n      0x00\n        /* \"@openzeppelin/contracts/utils/Pausable.sol\":2768:2775  _paused */\n      0x02\n      0x00\n        /* \"@openzeppelin/contracts/utils/Pausable.sol\":2768:2783  _paused = false */\n      0x0100\n      exp\n      dup2\n      sload\n      dup2\n      0xff\n      mul\n      not\n      and\n      swap1\n      dup4\n      iszero\n      iszero\n      mul\n      or\n      swap1\n      sstore\n      pop\n        /* \"@openzeppelin/contracts/utils/Pausable.sol\":2798:2820  Unpaused(_msgSender()) */\n      0x5db9ee0a495bf2e6ff9c91a7834c1ba4fdd244a5e8aa4e537bd38aeae4b073aa\n        /* \"@openzeppelin/contracts/utils/Pausable.sol\":2807:2819  _msgSender() */\n      tag_283\n        /* \"@openzeppelin/contracts/utils/Pausable.sol\":2807:2817  _msgSender */\n      tag_274\n        /* \"@openzeppelin/contracts/utils/Pausable.sol\":2807:2819  _msgSender() */\n      jump\t// in\n    tag_283:\n        /* \"@openzeppelin/contracts/utils/Pausable.sol\":2798:2820  Unpaused(_msgSender()) */\n      mload(0x40)\n      tag_284\n      swap2\n      swap1\n      tag_68\n      jump\t// in\n    tag_284:\n      mload(0x40)\n      dup1\n      swap2\n      sub\n      swap1\n      log1\n        /* \"@openzeppelin/contracts/utils/Pausable.sol\":2710:2827  function _unpause() internal virtual whenPaused {... */\n      jump\t// out\n        /* \"@openzeppelin/contracts/access/Ownable.sol\":2912:3099  function _transferOwnership(address newOwner) internal virtual {... */\n    tag_174:\n        /* \"@openzeppelin/contracts/access/Ownable.sol\":2985:3001  address oldOwner */\n      0x00\n        /* \"@openzeppelin/contracts/access/Ownable.sol\":3004:3010  _owner */\n      dup1\n      0x00\n      swap1\n      sload\n      swap1\n      0x0100\n      exp\n      swap1\n      div\n      0xffffffffffffffffffffffffffffffffffffffff\n      and\n        /* \"@openzeppelin/contracts/access/Ownable.sol\":2985:3010  address oldOwner = _owner */\n      swap1\n      pop\n        /* \"@openzeppelin/contracts/access/Ownable.sol\":3029:3037  newOwner */\n      dup2\n        /* \"@openzeppelin/contracts/access/Ownable.sol\":3020:3026  _owner */\n      0x00\n      dup1\n        /* \"@openzeppelin/contracts/access/Ownable.sol\":3020:3037  _owner = newOwner */\n      0x0100\n      exp\n      dup2\n      sload\n      dup2\n      0xffffffffffffffffffffffffffffffffffffffff\n      mul\n      not\n      and\n      swap1\n      dup4\n      0xffffffffffffffffffffffffffffffffffffffff\n      and\n      mul\n      or\n      swap1\n      sstore\n      pop\n        /* \"@openzeppelin/contracts/access/Ownable.sol\":3083:3091  newOwner */\n      dup2\n        /* \"@openzeppelin/contracts/access/Ownable.sol\":3052:3092  OwnershipTransferred(oldOwner, newOwner) */\n      0xffffffffffffffffffffffffffffffffffffffff\n      and\n        /* \"@openzeppelin/contracts/access/Ownable.sol\":3073:3081  oldOwner */\n      dup2\n        /* \"@openzeppelin/contracts/access/Ownable.sol\":3052:3092  OwnershipTransferred(oldOwner, newOwner) */\n      0xffffffffffffffffffffffffffffffffffffffff\n      and\n      0x8be0079c531659141344cd1fd0a4f28419497f9722a3daafe3b4186f6b6457e0\n      mload(0x40)\n      mload(0x40)\n      dup1\n      swap2\n      sub\n      swap1\n      log3\n        /* \"@openzeppelin/contracts/access/Ownable.sol\":2975:3099  {... */\n      pop\n        /* \"@openzeppelin/contracts/access/Ownable.sol\":2912:3099  function _transferOwnership(address newOwner) internal virtual {... */\n      pop\n      jump\t// out\n        /* \"@openzeppelin/contracts/utils/Pausable.sol\":2463:2578  function _pause() internal virtual whenNotPaused {... */\n    tag_179:\n        /* \"@openzeppelin/contracts/utils/Pausable.sol\":1474:1493  _requireNotPaused() */\n      tag_287\n        /* \"@openzeppelin/contracts/utils/Pausable.sol\":1474:1491  _requireNotPaused */\n      tag_104\n        /* \"@openzeppelin/contracts/utils/Pausable.sol\":1474:1493  _requireNotPaused() */\n      jump\t// in\n    tag_287:\n        /* \"@openzeppelin/contracts/utils/Pausable.sol\":2532:2536  true */\n      0x01\n        /* \"@openzeppelin/contracts/utils/Pausable.sol\":2522:2529  _paused */\n      0x02\n      0x00\n        /* \"@openzeppelin/contracts/utils/Pausable.sol\":2522:2536  _paused = true */\n      0x0100\n      exp\n      dup2\n      sload\n      dup2\n      0xff\n      mul\n      not\n      and\n      swap1\n      dup4\n      iszero\n      iszero\n      mul\n      or\n      swap1\n      sstore\n      pop\n        /* \"@openzeppelin/contracts/utils/Pausable.sol\":2551:2571  Paused(_msgSender()) */\n      0x62e78cea01bee320cd4e420270b5ea74000d11b0c9f74754ebdbfc544b05a258\n        /* \"@openzeppelin/contracts/utils/Pausable.sol\":2558:2570  _msgSender() */\n      tag_289\n        /* \"@openzeppelin/contracts/utils/Pausable.sol\":2558:2568  _msgSender */\n      tag_274\n        /* \"@openzeppelin/contracts/utils/Pausable.sol\":2558:2570  _msgSender() */\n      jump\t// in\n    tag_289:\n        /* \"@openzeppelin/contracts/utils/Pausable.sol\":2551:2571  Paused(_msgSender()) */\n      mload(0x40)\n      tag_290\n      swap2\n      swap1\n      tag_68\n      jump\t// in\n    tag_290:\n      mload(0x40)\n      dup1\n      swap2\n      sub\n      swap1\n      log1\n        /* \"@openzeppelin/contracts/utils/Pausable.sol\":2463:2578  function _pause() internal virtual whenNotPaused {... */\n      jump\t// out\n        /* \"@openzeppelin/contracts/utils/Context.sol\":656:752  function _msgSender() internal view virtual returns (address) {... */\n    tag_274:\n        /* \"@openzeppelin/contracts/utils/Context.sol\":709:716  address */\n      0x00\n        /* \"@openzeppelin/contracts/utils/Context.sol\":735:745  msg.sender */\n      caller\n        /* \"@openzeppelin/contracts/utils/Context.sol\":728:745  return msg.sender */\n      swap1\n      pop\n        /* \"@openzeppelin/contracts/utils/Context.sol\":656:752  function _msgSender() internal view virtual returns (address) {... */\n      swap1\n      jump\t// out\n        /* \"@openzeppelin/contracts/utils/Pausable.sol\":2202:2328  function _requirePaused() internal view virtual {... */\n    tag_281:\n        /* \"@openzeppelin/contracts/utils/Pausable.sol\":2265:2273  paused() */\n      tag_293\n        /* \"@openzeppelin/contracts/utils/Pausable.sol\":2265:2271  paused */\n      tag_50\n        /* \"@openzeppelin/contracts/utils/Pausable.sol\":2265:2273  paused() */\n      jump\t// in\n    tag_293:\n        /* \"@openzeppelin/contracts/utils/Pausable.sol\":2260:2322  if (!paused()) {... */\n      tag_294\n      jumpi\n        /* \"@openzeppelin/contracts/utils/Pausable.sol\":2296:2311  ExpectedPause() */\n      mload(0x40)\n      0x8dfc202b00000000000000000000000000000000000000000000000000000000\n      dup2\n      mstore\n      0x04\n      add\n      mload(0x40)\n      dup1\n      swap2\n      sub\n      swap1\n      revert\n        /* \"@openzeppelin/contracts/utils/Pausable.sol\":2260:2322  if (!paused()) {... */\n    tag_294:\n        /* \"@openzeppelin/contracts/utils/Pausable.sol\":2202:2328  function _requirePaused() internal view virtual {... */\n      jump\t// out\n    tag_182:\n      mload(0x40)\n      dup1\n      0xa0\n      add\n      0x40\n      mstore\n      dup1\n      0x00\n      dup1\n      not\n      and\n      dup2\n      mstore\n      0x20\n      add\n      0x00\n      dup1\n      not\n      and\n      dup2\n      mstore\n      0x20\n      add\n      0x00\n      dup2\n      mstore\n      0x20\n      add\n      iszero(iszero(0x00))\n      dup2\n      mstore\n      0x20\n      add\n      0x00\n      dup2\n      mstore\n      pop\n      swap1\n      jump\t// out\n        /* \"#utility.yul\":7:84   */\n    tag_295:\n        /* \"#utility.yul\":44:51   */\n      0x00\n        /* \"#utility.yul\":73:78   */\n      dup2\n        /* \"#utility.yul\":62:78   */\n      swap1\n      pop\n        /* \"#utility.yul\":7:84   */\n      swap2\n      swap1\n      pop\n      jump\t// out\n        /* \"#utility.yul\":90:208   */\n    tag_296:\n        /* \"#utility.yul\":177:201   */\n      tag_374\n        /* \"#utility.yul\":195:200   */\n      dup2\n        /* \"#utility.yul\":177:201   */\n      tag_295\n      jump\t// in\n    tag_374:\n        /* \"#utility.yul\":172:175   */\n      dup3\n        /* \"#utility.yul\":165:202   */\n      mstore\n        /* \"#utility.yul\":90:208   */\n      pop\n      pop\n      jump\t// out\n        /* \"#utility.yul\":214:436   */\n    tag_28:\n        /* \"#utility.yul\":307:311   */\n      0x00\n        /* \"#utility.yul\":345:347   */\n      0x20\n        /* \"#utility.yul\":334:343   */\n      dup3\n        /* \"#utility.yul\":330:348   */\n      add\n        /* \"#utility.yul\":322:348   */\n      swap1\n      pop\n        /* \"#utility.yul\":358:429   */\n      tag_376\n        /* \"#utility.yul\":426:427   */\n      0x00\n        /* \"#utility.yul\":415:424   */\n      dup4\n        /* \"#utility.yul\":411:428   */\n      add\n        /* \"#utility.yul\":402:408   */\n      dup5\n        /* \"#utility.yul\":358:429   */\n      tag_296\n      jump\t// in\n    tag_376:\n        /* \"#utility.yul\":214:436   */\n      swap3\n      swap2\n      pop\n      pop\n      jump\t// out\n        /* \"#utility.yul\":523:640   */\n    tag_298:\n        /* \"#utility.yul\":632:633   */\n      0x00\n        /* \"#utility.yul\":629:630   */\n      dup1\n        /* \"#utility.yul\":622:634   */\n      revert\n        /* \"#utility.yul\":646:763   */\n    tag_299:\n        /* \"#utility.yul\":755:756   */\n      0x00\n        /* \"#utility.yul\":752:753   */\n      dup1\n        /* \"#utility.yul\":745:757   */\n      revert\n        /* \"#utility.yul\":769:846   */\n    tag_300:\n        /* \"#utility.yul\":806:813   */\n      0x00\n        /* \"#utility.yul\":835:840   */\n      dup2\n        /* \"#utility.yul\":824:840   */\n      swap1\n      pop\n        /* \"#utility.yul\":769:846   */\n      swap2\n      swap1\n      pop\n      jump\t// out\n        /* \"#utility.yul\":852:974   */\n    tag_301:\n        /* \"#utility.yul\":925:949   */\n      tag_382\n        /* \"#utility.yul\":943:948   */\n      dup2\n        /* \"#utility.yul\":925:949   */\n      tag_300\n      jump\t// in\n    tag_382:\n        /* \"#utility.yul\":918:923   */\n      dup2\n        /* \"#utility.yul\":915:950   */\n      eq\n        /* \"#utility.yul\":905:968   */\n      tag_383\n      jumpi\n        /* \"#utility.yul\":964:965   */\n      0x00\n        /* \"#utility.yul\":961:962   */\n      dup1\n        /* \"#utility.yul\":954:966   */\n      revert\n        /* \"#utility.yul\":905:968   */\n    tag_383:\n        /* \"#utility.yul\":852:974   */\n      pop\n      jump\t// out\n        /* \"#utility.yul\":980:1119   */\n    tag_302:\n        /* \"#utility.yul\":1026:1031   */\n      0x00\n        /* \"#utility.yul\":1064:1070   */\n      dup2\n        /* \"#utility.yul\":1051:1071   */\n      calldataload\n        /* \"#utility.yul\":1042:1071   */\n      swap1\n      pop\n        /* \"#utility.yul\":1080:1113   */\n      tag_385\n        /* \"#utility.yul\":1107:1112   */\n      dup2\n        /* \"#utility.yul\":1080:1113   */\n      tag_301\n      jump\t// in\n    tag_385:\n        /* \"#utility.yul\":980:1119   */\n      swap3\n      swap2\n      pop\n      pop\n      jump\t// out\n        /* \"#utility.yul\":1125:1247   */\n    tag_303:\n        /* \"#utility.yul\":1198:1222   */\n      tag_387\n        /* \"#utility.yul\":1216:1221   */\n      dup2\n        /* \"#utility.yul\":1198:1222   */\n      tag_295\n      jump\t// in\n    tag_387:\n        /* \"#utility.yul\":1191:1196   */\n      dup2\n        /* \"#utility.yul\":1188:1223   */\n      eq\n        /* \"#utility.yul\":1178:1241   */\n      tag_388\n      jumpi\n        /* \"#utility.yul\":1237:1238   */\n      0x00\n        /* \"#utility.yul\":1234:1235   */\n      dup1\n        /* \"#utility.yul\":1227:1239   */\n      revert\n        /* \"#utility.yul\":1178:1241   */\n    tag_388:\n        /* \"#utility.yul\":1125:1247   */\n      pop\n      jump\t// out\n        /* \"#utility.yul\":1253:1392   */\n    tag_304:\n        /* \"#utility.yul\":1299:1304   */\n      0x00\n        /* \"#utility.yul\":1337:1343   */\n      dup2\n        /* \"#utility.yul\":1324:1344   */\n      calldataload\n        /* \"#utility.yul\":1315:1344   */\n      swap1\n      pop\n        /* \"#utility.yul\":1353:1386   */\n      tag_390\n        /* \"#utility.yul\":1380:1385   */\n      dup2\n        /* \"#utility.yul\":1353:1386   */\n      tag_303\n      jump\t// in\n    tag_390:\n        /* \"#utility.yul\":1253:1392   */\n      swap3\n      swap2\n      pop\n      pop\n      jump\t// out\n        /* \"#utility.yul\":1398:1515   */\n    tag_305:\n        /* \"#utility.yul\":1507:1508   */\n      0x00\n        /* \"#utility.yul\":1504:1505   */\n      dup1\n        /* \"#utility.yul\":1497:1509   */\n      revert\n        /* \"#utility.yul\":1521:1638   */\n    tag_306:\n        /* \"#utility.yul\":1630:1631   */\n      0x00\n        /* \"#utility.yul\":1627:1628   */\n      dup1\n        /* \"#utility.yul\":1620:1632   */\n      revert\n        /* \"#utility.yul\":1644:1761   */\n    tag_307:\n        /* \"#utility.yul\":1753:1754   */\n      0x00\n        /* \"#utility.yul\":1750:1751   */\n      dup1\n        /* \"#utility.yul\":1743:1755   */\n      revert\n        /* \"#utility.yul\":1780:2332   */\n    tag_308:\n        /* \"#utility.yul\":1837:1845   */\n      0x00\n        /* \"#utility.yul\":1847:1853   */\n      dup1\n        /* \"#utility.yul\":1897:1900   */\n      dup4\n        /* \"#utility.yul\":1890:1894   */\n      0x1f\n        /* \"#utility.yul\":1882:1888   */\n      dup5\n        /* \"#utility.yul\":1878:1895   */\n      add\n        /* \"#utility.yul\":1874:1901   */\n      slt\n        /* \"#utility.yul\":1864:1986   */\n      tag_395\n      jumpi\n        /* \"#utility.yul\":1905:1984   */\n      tag_396\n      tag_305\n      jump\t// in\n    tag_396:\n        /* \"#utility.yul\":1864:1986   */\n    tag_395:\n        /* \"#utility.yul\":2018:2024   */\n      dup3\n        /* \"#utility.yul\":2005:2025   */\n      calldataload\n        /* \"#utility.yul\":1995:2025   */\n      swap1\n      pop\n        /* \"#utility.yul\":2048:2066   */\n      0xffffffffffffffff\n        /* \"#utility.yul\":2040:2046   */\n      dup2\n        /* \"#utility.yul\":2037:2067   */\n      gt\n        /* \"#utility.yul\":2034:2151   */\n      iszero\n      tag_397\n      jumpi\n        /* \"#utility.yul\":2070:2149   */\n      tag_398\n      tag_306\n      jump\t// in\n    tag_398:\n        /* \"#utility.yul\":2034:2151   */\n    tag_397:\n        /* \"#utility.yul\":2184:2188   */\n      0x20\n        /* \"#utility.yul\":2176:2182   */\n      dup4\n        /* \"#utility.yul\":2172:2189   */\n      add\n        /* \"#utility.yul\":2160:2189   */\n      swap2\n      pop\n        /* \"#utility.yul\":2238:2241   */\n      dup4\n        /* \"#utility.yul\":2230:2234   */\n      0x01\n        /* \"#utility.yul\":2222:2228   */\n      dup3\n        /* \"#utility.yul\":2218:2235   */\n      mul\n        /* \"#utility.yul\":2208:2216   */\n      dup4\n        /* \"#utility.yul\":2204:2236   */\n      add\n        /* \"#utility.yul\":2201:2242   */\n      gt\n        /* \"#utility.yul\":2198:2326   */\n      iszero\n      tag_399\n      jumpi\n        /* \"#utility.yul\":2245:2324   */\n      tag_400\n      tag_307\n      jump\t// in\n    tag_400:\n        /* \"#utility.yul\":2198:2326   */\n    tag_399:\n        /* \"#utility.yul\":1780:2332   */\n      swap3\n      pop\n      swap3\n      swap1\n      pop\n      jump\t// out\n        /* \"#utility.yul\":2338:3155   */\n    tag_31:\n        /* \"#utility.yul\":2426:2432   */\n      0x00\n        /* \"#utility.yul\":2434:2440   */\n      dup1\n        /* \"#utility.yul\":2442:2448   */\n      0x00\n        /* \"#utility.yul\":2450:2456   */\n      dup1\n        /* \"#utility.yul\":2499:2501   */\n      0x60\n        /* \"#utility.yul\":2487:2496   */\n      dup6\n        /* \"#utility.yul\":2478:2485   */\n      dup8\n        /* \"#utility.yul\":2474:2497   */\n      sub\n        /* \"#utility.yul\":2470:2502   */\n      slt\n        /* \"#utility.yul\":2467:2586   */\n      iszero\n      tag_402\n      jumpi\n        /* \"#utility.yul\":2505:2584   */\n      tag_403\n      tag_298\n      jump\t// in\n    tag_403:\n        /* \"#utility.yul\":2467:2586   */\n    tag_402:\n        /* \"#utility.yul\":2625:2626   */\n      0x00\n        /* \"#utility.yul\":2650:2703   */\n      tag_404\n        /* \"#utility.yul\":2695:2702   */\n      dup8\n        /* \"#utility.yul\":2686:2692   */\n      dup3\n        /* \"#utility.yul\":2675:2684   */\n      dup9\n        /* \"#utility.yul\":2671:2693   */\n      add\n        /* \"#utility.yul\":2650:2703   */\n      tag_302\n      jump\t// in\n    tag_404:\n        /* \"#utility.yul\":2640:2703   */\n      swap5\n      pop\n        /* \"#utility.yul\":2596:2713   */\n      pop\n        /* \"#utility.yul\":2752:2754   */\n      0x20\n        /* \"#utility.yul\":2778:2831   */\n      tag_405\n        /* \"#utility.yul\":2823:2830   */\n      dup8\n        /* \"#utility.yul\":2814:2820   */\n      dup3\n        /* \"#utility.yul\":2803:2812   */\n      dup9\n        /* \"#utility.yul\":2799:2821   */\n      add\n        /* \"#utility.yul\":2778:2831   */\n      tag_304\n      jump\t// in\n    tag_405:\n        /* \"#utility.yul\":2768:2831   */\n      swap4\n      pop\n        /* \"#utility.yul\":2723:2841   */\n      pop\n        /* \"#utility.yul\":2908:2910   */\n      0x40\n        /* \"#utility.yul\":2897:2906   */\n      dup6\n        /* \"#utility.yul\":2893:2911   */\n      add\n        /* \"#utility.yul\":2880:2912   */\n      calldataload\n        /* \"#utility.yul\":2939:2957   */\n      0xffffffffffffffff\n        /* \"#utility.yul\":2931:2937   */\n      dup2\n        /* \"#utility.yul\":2928:2958   */\n      gt\n        /* \"#utility.yul\":2925:3042   */\n      iszero\n      tag_406\n      jumpi\n        /* \"#utility.yul\":2961:3040   */\n      tag_407\n      tag_299\n      jump\t// in\n    tag_407:\n        /* \"#utility.yul\":2925:3042   */\n    tag_406:\n        /* \"#utility.yul\":3074:3138   */\n      tag_408\n        /* \"#utility.yul\":3130:3137   */\n      dup8\n        /* \"#utility.yul\":3121:3127   */\n      dup3\n        /* \"#utility.yul\":3110:3119   */\n      dup9\n        /* \"#utility.yul\":3106:3128   */\n      add\n        /* \"#utility.yul\":3074:3138   */\n      tag_308\n      jump\t// in\n    tag_408:\n        /* \"#utility.yul\":3056:3138   */\n      swap3\n      pop\n      swap3\n      pop\n        /* \"#utility.yul\":2851:3148   */\n      pop\n        /* \"#utility.yul\":2338:3155   */\n      swap3\n      swap6\n      swap2\n      swap5\n      pop\n      swap3\n      pop\n      jump\t// out\n        /* \"#utility.yul\":3161:3490   */\n    tag_35:\n        /* \"#utility.yul\":3220:3226   */\n      0x00\n        /* \"#utility.yul\":3269:3271   */\n      0x20\n        /* \"#utility.yul\":3257:3266   */\n      dup3\n        /* \"#utility.yul\":3248:3255   */\n      dup5\n        /* \"#utility.yul\":3244:3267   */\n      sub\n        /* \"#utility.yul\":3240:3272   */\n      slt\n        /* \"#utility.yul\":3237:3356   */\n      iszero\n      tag_410\n      jumpi\n        /* \"#utility.yul\":3275:3354   */\n      tag_411\n      tag_298\n      jump\t// in\n    tag_411:\n        /* \"#utility.yul\":3237:3356   */\n    tag_410:\n        /* \"#utility.yul\":3395:3396   */\n      0x00\n        /* \"#utility.yul\":3420:3473   */\n      tag_412\n        /* \"#utility.yul\":3465:3472   */\n      dup5\n        /* \"#utility.yul\":3456:3462   */\n      dup3\n        /* \"#utility.yul\":3445:3454   */\n      dup6\n        /* \"#utility.yul\":3441:3463   */\n      add\n        /* \"#utility.yul\":3420:3473   */\n      tag_302\n      jump\t// in\n    tag_412:\n        /* \"#utility.yul\":3410:3473   */\n      swap2\n      pop\n        /* \"#utility.yul\":3366:3483   */\n      pop\n        /* \"#utility.yul\":3161:3490   */\n      swap3\n      swap2\n      pop\n      pop\n      jump\t// out\n        /* \"#utility.yul\":3496:3586   */\n    tag_309:\n        /* \"#utility.yul\":3530:3537   */\n      0x00\n        /* \"#utility.yul\":3573:3578   */\n      dup2\n        /* \"#utility.yul\":3566:3579   */\n      iszero\n        /* \"#utility.yul\":3559:3580   */\n      iszero\n        /* \"#utility.yul\":3548:3580   */\n      swap1\n      pop\n        /* \"#utility.yul\":3496:3586   */\n      swap2\n      swap1\n      pop\n      jump\t// out\n        /* \"#utility.yul\":3592:3701   */\n    tag_310:\n        /* \"#utility.yul\":3673:3694   */\n      tag_415\n        /* \"#utility.yul\":3688:3693   */\n      dup2\n        /* \"#utility.yul\":3673:3694   */\n      tag_309\n      jump\t// in\n    tag_415:\n        /* \"#utility.yul\":3668:3671   */\n      dup3\n        /* \"#utility.yul\":3661:3695   */\n      mstore\n        /* \"#utility.yul\":3592:3701   */\n      pop\n      pop\n      jump\t// out\n        /* \"#utility.yul\":3707:3917   */\n    tag_38:\n        /* \"#utility.yul\":3794:3798   */\n      0x00\n        /* \"#utility.yul\":3832:3834   */\n      0x20\n        /* \"#utility.yul\":3821:3830   */\n      dup3\n        /* \"#utility.yul\":3817:3835   */\n      add\n        /* \"#utility.yul\":3809:3835   */\n      swap1\n      pop\n        /* \"#utility.yul\":3845:3910   */\n      tag_417\n        /* \"#utility.yul\":3907:3908   */\n      0x00\n        /* \"#utility.yul\":3896:3905   */\n      dup4\n        /* \"#utility.yul\":3892:3909   */\n      add\n        /* \"#utility.yul\":3883:3889   */\n      dup5\n        /* \"#utility.yul\":3845:3910   */\n      tag_310\n      jump\t// in\n    tag_417:\n        /* \"#utility.yul\":3707:3917   */\n      swap3\n      swap2\n      pop\n      pop\n      jump\t// out\n        /* \"#utility.yul\":3923:4049   */\n    tag_311:\n        /* \"#utility.yul\":3960:3967   */\n      0x00\n        /* \"#utility.yul\":4000:4042   */\n      0xffffffffffffffffffffffffffffffffffffffff\n        /* \"#utility.yul\":3993:3998   */\n      dup3\n        /* \"#utility.yul\":3989:4043   */\n      and\n        /* \"#utility.yul\":3978:4043   */\n      swap1\n      pop\n        /* \"#utility.yul\":3923:4049   */\n      swap2\n      swap1\n      pop\n      jump\t// out\n        /* \"#utility.yul\":4055:4115   */\n    tag_312:\n        /* \"#utility.yul\":4083:4086   */\n      0x00\n        /* \"#utility.yul\":4104:4109   */\n      dup2\n        /* \"#utility.yul\":4097:4109   */\n      swap1\n      pop\n        /* \"#utility.yul\":4055:4115   */\n      swap2\n      swap1\n      pop\n      jump\t// out\n        /* \"#utility.yul\":4121:4263   */\n    tag_313:\n        /* \"#utility.yul\":4171:4180   */\n      0x00\n        /* \"#utility.yul\":4204:4257   */\n      tag_421\n        /* \"#utility.yul\":4222:4256   */\n      tag_422\n        /* \"#utility.yul\":4231:4255   */\n      tag_423\n        /* \"#utility.yul\":4249:4254   */\n      dup5\n        /* \"#utility.yul\":4231:4255   */\n      tag_311\n      jump\t// in\n    tag_423:\n        /* \"#utility.yul\":4222:4256   */\n      tag_312\n      jump\t// in\n    tag_422:\n        /* \"#utility.yul\":4204:4257   */\n      tag_311\n      jump\t// in\n    tag_421:\n        /* \"#utility.yul\":4191:4257   */\n      swap1\n      pop\n        /* \"#utility.yul\":4121:4263   */\n      swap2\n      swap1\n      pop\n      jump\t// out\n        /* \"#utility.yul\":4269:4395   */\n    tag_314:\n        /* \"#utility.yul\":4319:4328   */\n      0x00\n        /* \"#utility.yul\":4352:4389   */\n      tag_425\n        /* \"#utility.yul\":4383:4388   */\n      dup3\n        /* \"#utility.yul\":4352:4389   */\n      tag_313\n      jump\t// in\n    tag_425:\n        /* \"#utility.yul\":4339:4389   */\n      swap1\n      pop\n        /* \"#utility.yul\":4269:4395   */\n      swap2\n      swap1\n      pop\n      jump\t// out\n        /* \"#utility.yul\":4401:4545   */\n    tag_315:\n        /* \"#utility.yul\":4469:4478   */\n      0x00\n        /* \"#utility.yul\":4502:4539   */\n      tag_427\n        /* \"#utility.yul\":4533:4538   */\n      dup3\n        /* \"#utility.yul\":4502:4539   */\n      tag_314\n      jump\t// in\n    tag_427:\n        /* \"#utility.yul\":4489:4539   */\n      swap1\n      pop\n        /* \"#utility.yul\":4401:4545   */\n      swap2\n      swap1\n      pop\n      jump\t// out\n        /* \"#utility.yul\":4551:4718   */\n    tag_316:\n        /* \"#utility.yul\":4656:4711   */\n      tag_429\n        /* \"#utility.yul\":4705:4710   */\n      dup2\n        /* \"#utility.yul\":4656:4711   */\n      tag_315\n      jump\t// in\n    tag_429:\n        /* \"#utility.yul\":4651:4654   */\n      dup3\n        /* \"#utility.yul\":4644:4712   */\n      mstore\n        /* \"#utility.yul\":4551:4718   */\n      pop\n      pop\n      jump\t// out\n        /* \"#utility.yul\":4724:4982   */\n    tag_42:\n        /* \"#utility.yul\":4835:4839   */\n      0x00\n        /* \"#utility.yul\":4873:4875   */\n      0x20\n        /* \"#utility.yul\":4862:4871   */\n      dup3\n        /* \"#utility.yul\":4858:4876   */\n      add\n        /* \"#utility.yul\":4850:4876   */\n      swap1\n      pop\n        /* \"#utility.yul\":4886:4975   */\n      tag_431\n        /* \"#utility.yul\":4972:4973   */\n      0x00\n        /* \"#utility.yul\":4961:4970   */\n      dup4\n        /* \"#utility.yul\":4957:4974   */\n      add\n        /* \"#utility.yul\":4948:4954   */\n      dup5\n        /* \"#utility.yul\":4886:4975   */\n      tag_316\n      jump\t// in\n    tag_431:\n        /* \"#utility.yul\":4724:4982   */\n      swap3\n      swap2\n      pop\n      pop\n      jump\t// out\n        /* \"#utility.yul\":4988:5084   */\n    tag_317:\n        /* \"#utility.yul\":5025:5032   */\n      0x00\n        /* \"#utility.yul\":5054:5078   */\n      tag_433\n        /* \"#utility.yul\":5072:5077   */\n      dup3\n        /* \"#utility.yul\":5054:5078   */\n      tag_311\n      jump\t// in\n    tag_433:\n        /* \"#utility.yul\":5043:5078   */\n      swap1\n      pop\n        /* \"#utility.yul\":4988:5084   */\n      swap2\n      swap1\n      pop\n      jump\t// out\n        /* \"#utility.yul\":5090:5212   */\n    tag_318:\n        /* \"#utility.yul\":5163:5187   */\n      tag_435\n        /* \"#utility.yul\":5181:5186   */\n      dup2\n        /* \"#utility.yul\":5163:5187   */\n      tag_317\n      jump\t// in\n    tag_435:\n        /* \"#utility.yul\":5156:5161   */\n      dup2\n        /* \"#utility.yul\":5153:5188   */\n      eq\n        /* \"#utility.yul\":5143:5206   */\n      tag_436\n      jumpi\n        /* \"#utility.yul\":5202:5203   */\n      0x00\n        /* \"#utility.yul\":5199:5200   */\n      dup1\n        /* \"#utility.yul\":5192:5204   */\n      revert\n        /* \"#utility.yul\":5143:5206   */\n    tag_436:\n        /* \"#utility.yul\":5090:5212   */\n      pop\n      jump\t// out\n        /* \"#utility.yul\":5218:5357   */\n    tag_319:\n        /* \"#utility.yul\":5264:5269   */\n      0x00\n        /* \"#utility.yul\":5302:5308   */\n      dup2\n        /* \"#utility.yul\":5289:5309   */\n      calldataload\n        /* \"#utility.yul\":5280:5309   */\n      swap1\n      pop\n        /* \"#utility.yul\":5318:5351   */\n      tag_438\n        /* \"#utility.yul\":5345:5350   */\n      dup2\n        /* \"#utility.yul\":5318:5351   */\n      tag_318\n      jump\t// in\n    tag_438:\n        /* \"#utility.yul\":5218:5357   */\n      swap3\n      swap2\n      pop\n      pop\n      jump\t// out\n        /* \"#utility.yul\":5363:5692   */\n    tag_47:\n        /* \"#utility.yul\":5422:5428   */\n      0x00\n        /* \"#utility.yul\":5471:5473   */\n      0x20\n        /* \"#utility.yul\":5459:5468   */\n      dup3\n        /* \"#utility.yul\":5450:5457   */\n      dup5\n        /* \"#utility.yul\":5446:5469   */\n      sub\n        /* \"#utility.yul\":5442:5474   */\n      slt\n        /* \"#utility.yul\":5439:5558   */\n      iszero\n      tag_440\n      jumpi\n        /* \"#utility.yul\":5477:5556   */\n      tag_441\n      tag_298\n      jump\t// in\n    tag_441:\n        /* \"#utility.yul\":5439:5558   */\n    tag_440:\n        /* \"#utility.yul\":5597:5598   */\n      0x00\n        /* \"#utility.yul\":5622:5675   */\n      tag_442\n        /* \"#utility.yul\":5667:5674   */\n      dup5\n        /* \"#utility.yul\":5658:5664   */\n      dup3\n        /* \"#utility.yul\":5647:5656   */\n      dup6\n        /* \"#utility.yul\":5643:5665   */\n      add\n        /* \"#utility.yul\":5622:5675   */\n      tag_319\n      jump\t// in\n    tag_442:\n        /* \"#utility.yul\":5612:5675   */\n      swap2\n      pop\n        /* \"#utility.yul\":5568:5685   */\n      pop\n        /* \"#utility.yul\":5363:5692   */\n      swap3\n      swap2\n      pop\n      pop\n      jump\t// out\n        /* \"#utility.yul\":5698:5816   */\n    tag_320:\n        /* \"#utility.yul\":5785:5809   */\n      tag_444\n        /* \"#utility.yul\":5803:5808   */\n      dup2\n        /* \"#utility.yul\":5785:5809   */\n      tag_300\n      jump\t// in\n    tag_444:\n        /* \"#utility.yul\":5780:5783   */\n      dup3\n        /* \"#utility.yul\":5773:5810   */\n      mstore\n        /* \"#utility.yul\":5698:5816   */\n      pop\n      pop\n      jump\t// out\n        /* \"#utility.yul\":5822:6474   */\n    tag_64:\n        /* \"#utility.yul\":6021:6025   */\n      0x00\n        /* \"#utility.yul\":6059:6062   */\n      0xa0\n        /* \"#utility.yul\":6048:6057   */\n      dup3\n        /* \"#utility.yul\":6044:6063   */\n      add\n        /* \"#utility.yul\":6036:6063   */\n      swap1\n      pop\n        /* \"#utility.yul\":6073:6144   */\n      tag_446\n        /* \"#utility.yul\":6141:6142   */\n      0x00\n        /* \"#utility.yul\":6130:6139   */\n      dup4\n        /* \"#utility.yul\":6126:6143   */\n      add\n        /* \"#utility.yul\":6117:6123   */\n      dup9\n        /* \"#utility.yul\":6073:6144   */\n      tag_320\n      jump\t// in\n    tag_446:\n        /* \"#utility.yul\":6154:6226   */\n      tag_447\n        /* \"#utility.yul\":6222:6224   */\n      0x20\n        /* \"#utility.yul\":6211:6220   */\n      dup4\n        /* \"#utility.yul\":6207:6225   */\n      add\n        /* \"#utility.yul\":6198:6204   */\n      dup8\n        /* \"#utility.yul\":6154:6226   */\n      tag_320\n      jump\t// in\n    tag_447:\n        /* \"#utility.yul\":6236:6308   */\n      tag_448\n        /* \"#utility.yul\":6304:6306   */\n      0x40\n        /* \"#utility.yul\":6293:6302   */\n      dup4\n        /* \"#utility.yul\":6289:6307   */\n      add\n        /* \"#utility.yul\":6280:6286   */\n      dup7\n        /* \"#utility.yul\":6236:6308   */\n      tag_296\n      jump\t// in\n    tag_448:\n        /* \"#utility.yul\":6318:6384   */\n      tag_449\n        /* \"#utility.yul\":6380:6382   */\n      0x60\n        /* \"#utility.yul\":6369:6378   */\n      dup4\n        /* \"#utility.yul\":6365:6383   */\n      add\n        /* \"#utility.yul\":6356:6362   */\n      dup6\n        /* \"#utility.yul\":6318:6384   */\n      tag_310\n      jump\t// in\n    tag_449:\n        /* \"#utility.yul\":6394:6467   */\n      tag_450\n        /* \"#utility.yul\":6462:6465   */\n      0x80\n        /* \"#utility.yul\":6451:6460   */\n      dup4\n        /* \"#utility.yul\":6447:6466   */\n      add\n        /* \"#utility.yul\":6438:6444   */\n      dup5\n        /* \"#utility.yul\":6394:6467   */\n      tag_296\n      jump\t// in\n    tag_450:\n        /* \"#utility.yul\":5822:6474   */\n      swap7\n      swap6\n      pop\n      pop\n      pop\n      pop\n      pop\n      pop\n      jump\t// out\n        /* \"#utility.yul\":6480:6598   */\n    tag_321:\n        /* \"#utility.yul\":6567:6591   */\n      tag_452\n        /* \"#utility.yul\":6585:6590   */\n      dup2\n        /* \"#utility.yul\":6567:6591   */\n      tag_317\n      jump\t// in\n    tag_452:\n        /* \"#utility.yul\":6562:6565   */\n      dup3\n        /* \"#utility.yul\":6555:6592   */\n      mstore\n        /* \"#utility.yul\":6480:6598   */\n      pop\n      pop\n      jump\t// out\n        /* \"#utility.yul\":6604:6826   */\n    tag_68:\n        /* \"#utility.yul\":6697:6701   */\n      0x00\n        /* \"#utility.yul\":6735:6737   */\n      0x20\n        /* \"#utility.yul\":6724:6733   */\n      dup3\n        /* \"#utility.yul\":6720:6738   */\n      add\n        /* \"#utility.yul\":6712:6738   */\n      swap1\n      pop\n        /* \"#utility.yul\":6748:6819   */\n      tag_454\n        /* \"#utility.yul\":6816:6817   */\n      0x00\n        /* \"#utility.yul\":6805:6814   */\n      dup4\n        /* \"#utility.yul\":6801:6818   */\n      add\n        /* \"#utility.yul\":6792:6798   */\n      dup5\n        /* \"#utility.yul\":6748:6819   */\n      tag_321\n      jump\t// in\n    tag_454:\n        /* \"#utility.yul\":6604:6826   */\n      swap3\n      swap2\n      pop\n      pop\n      jump\t// out\n        /* \"#utility.yul\":6832:6940   */\n    tag_322:\n        /* \"#utility.yul\":6909:6933   */\n      tag_456\n        /* \"#utility.yul\":6927:6932   */\n      dup2\n        /* \"#utility.yul\":6909:6933   */\n      tag_300\n      jump\t// in\n    tag_456:\n        /* \"#utility.yul\":6904:6907   */\n      dup3\n        /* \"#utility.yul\":6897:6934   */\n      mstore\n        /* \"#utility.yul\":6832:6940   */\n      pop\n      pop\n      jump\t// out\n        /* \"#utility.yul\":6946:7054   */\n    tag_323:\n        /* \"#utility.yul\":7023:7047   */\n      tag_458\n        /* \"#utility.yul\":7041:7046   */\n      dup2\n        /* \"#utility.yul\":7023:7047   */\n      tag_295\n      jump\t// in\n    tag_458:\n        /* \"#utility.yul\":7018:7021   */\n      dup3\n        /* \"#utility.yul\":7011:7048   */\n      mstore\n        /* \"#utility.yul\":6946:7054   */\n      pop\n      pop\n      jump\t// out\n        /* \"#utility.yul\":7060:7159   */\n    tag_324:\n        /* \"#utility.yul\":7131:7152   */\n      tag_460\n        /* \"#utility.yul\":7146:7151   */\n      dup2\n        /* \"#utility.yul\":7131:7152   */\n      tag_309\n      jump\t// in\n    tag_460:\n        /* \"#utility.yul\":7126:7129   */\n      dup3\n        /* \"#utility.yul\":7119:7153   */\n      mstore\n        /* \"#utility.yul\":7060:7159   */\n      pop\n      pop\n      jump\t// out\n        /* \"#utility.yul\":7223:8257   */\n    tag_325:\n        /* \"#utility.yul\":7362:7366   */\n      0xa0\n        /* \"#utility.yul\":7357:7360   */\n      dup3\n        /* \"#utility.yul\":7353:7367   */\n      add\n        /* \"#utility.yul\":7455:7459   */\n      0x00\n        /* \"#utility.yul\":7448:7453   */\n      dup3\n        /* \"#utility.yul\":7444:7460   */\n      add\n        /* \"#utility.yul\":7438:7461   */\n      mload\n        /* \"#utility.yul\":7474:7537   */\n      tag_462\n        /* \"#utility.yul\":7531:7535   */\n      0x00\n        /* \"#utility.yul\":7526:7529   */\n      dup6\n        /* \"#utility.yul\":7522:7536   */\n      add\n        /* \"#utility.yul\":7508:7520   */\n      dup3\n        /* \"#utility.yul\":7474:7537   */\n      tag_322\n      jump\t// in\n    tag_462:\n        /* \"#utility.yul\":7377:7547   */\n      pop\n        /* \"#utility.yul\":7634:7638   */\n      0x20\n        /* \"#utility.yul\":7627:7632   */\n      dup3\n        /* \"#utility.yul\":7623:7639   */\n      add\n        /* \"#utility.yul\":7617:7640   */\n      mload\n        /* \"#utility.yul\":7653:7716   */\n      tag_463\n        /* \"#utility.yul\":7710:7714   */\n      0x20\n        /* \"#utility.yul\":7705:7708   */\n      dup6\n        /* \"#utility.yul\":7701:7715   */\n      add\n        /* \"#utility.yul\":7687:7699   */\n      dup3\n        /* \"#utility.yul\":7653:7716   */\n      tag_322\n      jump\t// in\n    tag_463:\n        /* \"#utility.yul\":7557:7726   */\n      pop\n        /* \"#utility.yul\":7810:7814   */\n      0x40\n        /* \"#utility.yul\":7803:7808   */\n      dup3\n        /* \"#utility.yul\":7799:7815   */\n      add\n        /* \"#utility.yul\":7793:7816   */\n      mload\n        /* \"#utility.yul\":7829:7892   */\n      tag_464\n        /* \"#utility.yul\":7886:7890   */\n      0x40\n        /* \"#utility.yul\":7881:7884   */\n      dup6\n        /* \"#utility.yul\":7877:7891   */\n      add\n        /* \"#utility.yul\":7863:7875   */\n      dup3\n        /* \"#utility.yul\":7829:7892   */\n      tag_323\n      jump\t// in\n    tag_464:\n        /* \"#utility.yul\":7736:7902   */\n      pop\n        /* \"#utility.yul\":7985:7989   */\n      0x60\n        /* \"#utility.yul\":7978:7983   */\n      dup3\n        /* \"#utility.yul\":7974:7990   */\n      add\n        /* \"#utility.yul\":7968:7991   */\n      mload\n        /* \"#utility.yul\":8004:8061   */\n      tag_465\n        /* \"#utility.yul\":8055:8059   */\n      0x60\n        /* \"#utility.yul\":8050:8053   */\n      dup6\n        /* \"#utility.yul\":8046:8060   */\n      add\n        /* \"#utility.yul\":8032:8044   */\n      dup3\n        /* \"#utility.yul\":8004:8061   */\n      tag_324\n      jump\t// in\n    tag_465:\n        /* \"#utility.yul\":7912:8071   */\n      pop\n        /* \"#utility.yul\":8158:8162   */\n      0x80\n        /* \"#utility.yul\":8151:8156   */\n      dup3\n        /* \"#utility.yul\":8147:8163   */\n      add\n        /* \"#utility.yul\":8141:8164   */\n      mload\n        /* \"#utility.yul\":8177:8240   */\n      tag_466\n        /* \"#utility.yul\":8234:8238   */\n      0x80\n        /* \"#utility.yul\":8229:8232   */\n      dup6\n        /* \"#utility.yul\":8225:8239   */\n      add\n        /* \"#utility.yul\":8211:8223   */\n      dup3\n        /* \"#utility.yul\":8177:8240   */\n      tag_323\n      jump\t// in\n    tag_466:\n        /* \"#utility.yul\":8081:8250   */\n      pop\n        /* \"#utility.yul\":7331:8257   */\n      pop\n        /* \"#utility.yul\":7223:8257   */\n      pop\n      pop\n      jump\t// out\n        /* \"#utility.yul\":8263:8570   */\n    tag_73:\n        /* \"#utility.yul\":8398:8402   */\n      0x00\n        /* \"#utility.yul\":8436:8439   */\n      0xa0\n        /* \"#utility.yul\":8425:8434   */\n      dup3\n        /* \"#utility.yul\":8421:8440   */\n      add\n        /* \"#utility.yul\":8413:8440   */\n      swap1\n      pop\n        /* \"#utility.yul\":8450:8563   */\n      tag_468\n        /* \"#utility.yul\":8560:8561   */\n      0x00\n        /* \"#utility.yul\":8549:8558   */\n      dup4\n        /* \"#utility.yul\":8545:8562   */\n      add\n        /* \"#utility.yul\":8536:8542   */\n      dup5\n        /* \"#utility.yul\":8450:8563   */\n      tag_325\n      jump\t// in\n    tag_468:\n        /* \"#utility.yul\":8263:8570   */\n      swap3\n      swap2\n      pop\n      pop\n      jump\t// out\n        /* \"#utility.yul\":8576:9685   */\n    tag_76:\n        /* \"#utility.yul\":8682:8688   */\n      0x00\n        /* \"#utility.yul\":8690:8696   */\n      dup1\n        /* \"#utility.yul\":8698:8704   */\n      0x00\n        /* \"#utility.yul\":8706:8712   */\n      dup1\n        /* \"#utility.yul\":8714:8720   */\n      0x00\n        /* \"#utility.yul\":8722:8728   */\n      dup1\n        /* \"#utility.yul\":8771:8774   */\n      0xa0\n        /* \"#utility.yul\":8759:8768   */\n      dup8\n        /* \"#utility.yul\":8750:8757   */\n      dup10\n        /* \"#utility.yul\":8746:8769   */\n      sub\n        /* \"#utility.yul\":8742:8775   */\n      slt\n        /* \"#utility.yul\":8739:8859   */\n      iszero\n      tag_470\n      jumpi\n        /* \"#utility.yul\":8778:8857   */\n      tag_471\n      tag_298\n      jump\t// in\n    tag_471:\n        /* \"#utility.yul\":8739:8859   */\n    tag_470:\n        /* \"#utility.yul\":8898:8899   */\n      0x00\n        /* \"#utility.yul\":8923:8976   */\n      tag_472\n        /* \"#utility.yul\":8968:8975   */\n      dup10\n        /* \"#utility.yul\":8959:8965   */\n      dup3\n        /* \"#utility.yul\":8948:8957   */\n      dup11\n        /* \"#utility.yul\":8944:8966   */\n      add\n        /* \"#utility.yul\":8923:8976   */\n      tag_302\n      jump\t// in\n    tag_472:\n        /* \"#utility.yul\":8913:8976   */\n      swap7\n      pop\n        /* \"#utility.yul\":8869:8986   */\n      pop\n        /* \"#utility.yul\":9025:9027   */\n      0x20\n        /* \"#utility.yul\":9051:9104   */\n      tag_473\n        /* \"#utility.yul\":9096:9103   */\n      dup10\n        /* \"#utility.yul\":9087:9093   */\n      dup3\n        /* \"#utility.yul\":9076:9085   */\n      dup11\n        /* \"#utility.yul\":9072:9094   */\n      add\n        /* \"#utility.yul\":9051:9104   */\n      tag_302\n      jump\t// in\n    tag_473:\n        /* \"#utility.yul\":9041:9104   */\n      swap6\n      pop\n        /* \"#utility.yul\":8996:9114   */\n      pop\n        /* \"#utility.yul\":9153:9155   */\n      0x40\n        /* \"#utility.yul\":9179:9232   */\n      tag_474\n        /* \"#utility.yul\":9224:9231   */\n      dup10\n        /* \"#utility.yul\":9215:9221   */\n      dup3\n        /* \"#utility.yul\":9204:9213   */\n      dup11\n        /* \"#utility.yul\":9200:9222   */\n      add\n        /* \"#utility.yul\":9179:9232   */\n      tag_319\n      jump\t// in\n    tag_474:\n        /* \"#utility.yul\":9169:9232   */\n      swap5\n      pop\n        /* \"#utility.yul\":9124:9242   */\n      pop\n        /* \"#utility.yul\":9281:9283   */\n      0x60\n        /* \"#utility.yul\":9307:9360   */\n      tag_475\n        /* \"#utility.yul\":9352:9359   */\n      dup10\n        /* \"#utility.yul\":9343:9349   */\n      dup3\n        /* \"#utility.yul\":9332:9341   */\n      dup11\n        /* \"#utility.yul\":9328:9350   */\n      add\n        /* \"#utility.yul\":9307:9360   */\n      tag_304\n      jump\t// in\n    tag_475:\n        /* \"#utility.yul\":9297:9360   */\n      swap4\n      pop\n        /* \"#utility.yul\":9252:9370   */\n      pop\n        /* \"#utility.yul\":9437:9440   */\n      0x80\n        /* \"#utility.yul\":9426:9435   */\n      dup8\n        /* \"#utility.yul\":9422:9441   */\n      add\n        /* \"#utility.yul\":9409:9442   */\n      calldataload\n        /* \"#utility.yul\":9469:9487   */\n      0xffffffffffffffff\n        /* \"#utility.yul\":9461:9467   */\n      dup2\n        /* \"#utility.yul\":9458:9488   */\n      gt\n        /* \"#utility.yul\":9455:9572   */\n      iszero\n      tag_476\n      jumpi\n        /* \"#utility.yul\":9491:9570   */\n      tag_477\n      tag_299\n      jump\t// in\n    tag_477:\n        /* \"#utility.yul\":9455:9572   */\n    tag_476:\n        /* \"#utility.yul\":9604:9668   */\n      tag_478\n        /* \"#utility.yul\":9660:9667   */\n      dup10\n        /* \"#utility.yul\":9651:9657   */\n      dup3\n        /* \"#utility.yul\":9640:9649   */\n      dup11\n        /* \"#utility.yul\":9636:9658   */\n      add\n        /* \"#utility.yul\":9604:9668   */\n      tag_308\n      jump\t// in\n    tag_478:\n        /* \"#utility.yul\":9586:9668   */\n      swap3\n      pop\n      swap3\n      pop\n        /* \"#utility.yul\":9380:9678   */\n      pop\n        /* \"#utility.yul\":8576:9685   */\n      swap3\n      swap6\n      pop\n      swap3\n      swap6\n      pop\n      swap3\n      swap6\n      jump\t// out\n        /* \"#utility.yul\":9691:9831   */\n    tag_326:\n        /* \"#utility.yul\":9755:9764   */\n      0x00\n        /* \"#utility.yul\":9788:9825   */\n      tag_480\n        /* \"#utility.yul\":9819:9824   */\n      dup3\n        /* \"#utility.yul\":9788:9825   */\n      tag_314\n      jump\t// in\n    tag_480:\n        /* \"#utility.yul\":9775:9825   */\n      swap1\n      pop\n        /* \"#utility.yul\":9691:9831   */\n      swap2\n      swap1\n      pop\n      jump\t// out\n        /* \"#utility.yul\":9837:9996   */\n    tag_327:\n        /* \"#utility.yul\":9938:9989   */\n      tag_482\n        /* \"#utility.yul\":9983:9988   */\n      dup2\n        /* \"#utility.yul\":9938:9989   */\n      tag_326\n      jump\t// in\n    tag_482:\n        /* \"#utility.yul\":9933:9936   */\n      dup3\n        /* \"#utility.yul\":9926:9990   */\n      mstore\n        /* \"#utility.yul\":9837:9996   */\n      pop\n      pop\n      jump\t// out\n        /* \"#utility.yul\":10002:10252   */\n    tag_92:\n        /* \"#utility.yul\":10109:10113   */\n      0x00\n        /* \"#utility.yul\":10147:10149   */\n      0x20\n        /* \"#utility.yul\":10136:10145   */\n      dup3\n        /* \"#utility.yul\":10132:10150   */\n      add\n        /* \"#utility.yul\":10124:10150   */\n      swap1\n      pop\n        /* \"#utility.yul\":10160:10245   */\n      tag_484\n        /* \"#utility.yul\":10242:10243   */\n      0x00\n        /* \"#utility.yul\":10231:10240   */\n      dup4\n        /* \"#utility.yul\":10227:10244   */\n      add\n        /* \"#utility.yul\":10218:10224   */\n      dup5\n        /* \"#utility.yul\":10160:10245   */\n      tag_327\n      jump\t// in\n    tag_484:\n        /* \"#utility.yul\":10002:10252   */\n      swap3\n      swap2\n      pop\n      pop\n      jump\t// out\n        /* \"#utility.yul\":10258:10401   */\n    tag_328:\n        /* \"#utility.yul\":10315:10320   */\n      0x00\n        /* \"#utility.yul\":10346:10352   */\n      dup2\n        /* \"#utility.yul\":10340:10353   */\n      mload\n        /* \"#utility.yul\":10331:10353   */\n      swap1\n      pop\n        /* \"#utility.yul\":10362:10395   */\n      tag_486\n        /* \"#utility.yul\":10389:10394   */\n      dup2\n        /* \"#utility.yul\":10362:10395   */\n      tag_303\n      jump\t// in\n    tag_486:\n        /* \"#utility.yul\":10258:10401   */\n      swap3\n      swap2\n      pop\n      pop\n      jump\t// out\n        /* \"#utility.yul\":10407:10758   */\n    tag_98:\n        /* \"#utility.yul\":10477:10483   */\n      0x00\n        /* \"#utility.yul\":10526:10528   */\n      0x20\n        /* \"#utility.yul\":10514:10523   */\n      dup3\n        /* \"#utility.yul\":10505:10512   */\n      dup5\n        /* \"#utility.yul\":10501:10524   */\n      sub\n        /* \"#utility.yul\":10497:10529   */\n      slt\n        /* \"#utility.yul\":10494:10613   */\n      iszero\n      tag_488\n      jumpi\n        /* \"#utility.yul\":10532:10611   */\n      tag_489\n      tag_298\n      jump\t// in\n    tag_489:\n        /* \"#utility.yul\":10494:10613   */\n    tag_488:\n        /* \"#utility.yul\":10652:10653   */\n      0x00\n        /* \"#utility.yul\":10677:10741   */\n      tag_490\n        /* \"#utility.yul\":10733:10740   */\n      dup5\n        /* \"#utility.yul\":10724:10730   */\n      dup3\n        /* \"#utility.yul\":10713:10722   */\n      dup6\n        /* \"#utility.yul\":10709:10731   */\n      add\n        /* \"#utility.yul\":10677:10741   */\n      tag_328\n      jump\t// in\n    tag_490:\n        /* \"#utility.yul\":10667:10741   */\n      swap2\n      pop\n        /* \"#utility.yul\":10623:10751   */\n      pop\n        /* \"#utility.yul\":10407:10758   */\n      swap3\n      swap2\n      pop\n      pop\n      jump\t// out\n        /* \"#utility.yul\":10764:10933   */\n    tag_329:\n        /* \"#utility.yul\":10848:10859   */\n      0x00\n        /* \"#utility.yul\":10882:10888   */\n      dup3\n        /* \"#utility.yul\":10877:10880   */\n      dup3\n        /* \"#utility.yul\":10870:10889   */\n      mstore\n        /* \"#utility.yul\":10922:10926   */\n      0x20\n        /* \"#utility.yul\":10917:10920   */\n      dup3\n        /* \"#utility.yul\":10913:10927   */\n      add\n        /* \"#utility.yul\":10898:10927   */\n      swap1\n      pop\n        /* \"#utility.yul\":10764:10933   */\n      swap3\n      swap2\n      pop\n      pop\n      jump\t// out\n        /* \"#utility.yul\":10939:11107   */\n    tag_330:\n        /* \"#utility.yul\":11079:11099   */\n      0x496e76616c696420636f6d6d69746d656e740000000000000000000000000000\n        /* \"#utility.yul\":11075:11076   */\n      0x00\n        /* \"#utility.yul\":11067:11073   */\n      dup3\n        /* \"#utility.yul\":11063:11077   */\n      add\n        /* \"#utility.yul\":11056:11100   */\n      mstore\n        /* \"#utility.yul\":10939:11107   */\n      pop\n      jump\t// out\n        /* \"#utility.yul\":11113:11479   */\n    tag_331:\n        /* \"#utility.yul\":11255:11258   */\n      0x00\n        /* \"#utility.yul\":11276:11343   */\n      tag_494\n        /* \"#utility.yul\":11340:11342   */\n      0x12\n        /* \"#utility.yul\":11335:11338   */\n      dup4\n        /* \"#utility.yul\":11276:11343   */\n      tag_329\n      jump\t// in\n    tag_494:\n        /* \"#utility.yul\":11269:11343   */\n      swap2\n      pop\n        /* \"#utility.yul\":11352:11445   */\n      tag_495\n        /* \"#utility.yul\":11441:11444   */\n      dup3\n        /* \"#utility.yul\":11352:11445   */\n      tag_330\n      jump\t// in\n    tag_495:\n        /* \"#utility.yul\":11470:11472   */\n      0x20\n        /* \"#utility.yul\":11465:11468   */\n      dup3\n        /* \"#utility.yul\":11461:11473   */\n      add\n        /* \"#utility.yul\":11454:11473   */\n      swap1\n      pop\n        /* \"#utility.yul\":11113:11479   */\n      swap2\n      swap1\n      pop\n      jump\t// out\n        /* \"#utility.yul\":11485:11904   */\n    tag_108:\n        /* \"#utility.yul\":11651:11655   */\n      0x00\n        /* \"#utility.yul\":11689:11691   */\n      0x20\n        /* \"#utility.yul\":11678:11687   */\n      dup3\n        /* \"#utility.yul\":11674:11692   */\n      add\n        /* \"#utility.yul\":11666:11692   */\n      swap1\n      pop\n        /* \"#utility.yul\":11738:11747   */\n      dup2\n        /* \"#utility.yul\":11732:11736   */\n      dup2\n        /* \"#utility.yul\":11728:11748   */\n      sub\n        /* \"#utility.yul\":11724:11725   */\n      0x00\n        /* \"#utility.yul\":11713:11722   */\n      dup4\n        /* \"#utility.yul\":11709:11726   */\n      add\n        /* \"#utility.yul\":11702:11749   */\n      mstore\n        /* \"#utility.yul\":11766:11897   */\n      tag_497\n        /* \"#utility.yul\":11892:11896   */\n      dup2\n        /* \"#utility.yul\":11766:11897   */\n      tag_331\n      jump\t// in\n    tag_497:\n        /* \"#utility.yul\":11758:11897   */\n      swap1\n      pop\n        /* \"#utility.yul\":11485:11904   */\n      swap2\n      swap1\n      pop\n      jump\t// out\n        /* \"#utility.yul\":11910:12080   */\n    tag_332:\n        /* \"#utility.yul\":12050:12072   */\n      0x416d6f756e742062656c6f77206d696e696d756d000000000000000000000000\n        /* \"#utility.yul\":12046:12047   */\n      0x00\n        /* \"#utility.yul\":12038:12044   */\n      dup3\n        /* \"#utility.yul\":12034:12048   */\n      add\n        /* \"#utility.yul\":12027:12073   */\n      mstore\n        /* \"#utility.yul\":11910:12080   */\n      pop\n      jump\t// out\n        /* \"#utility.yul\":12086:12452   */\n    tag_333:\n        /* \"#utility.yul\":12228:12231   */\n      0x00\n        /* \"#utility.yul\":12249:12316   */\n      tag_500\n        /* \"#utility.yul\":12313:12315   */\n      0x14\n        /* \"#utility.yul\":12308:12311   */\n      dup4\n        /* \"#utility.yul\":12249:12316   */\n      tag_329\n      jump\t// in\n    tag_500:\n        /* \"#utility.yul\":12242:12316   */\n      swap2\n      pop\n        /* \"#utility.yul\":12325:12418   */\n      tag_501\n        /* \"#utility.yul\":12414:12417   */\n      dup3\n        /* \"#utility.yul\":12325:12418   */\n      tag_332\n      jump\t// in\n    tag_501:\n        /* \"#utility.yul\":12443:12445   */\n      0x20\n        /* \"#utility.yul\":12438:12441   */\n      dup3\n        /* \"#utility.yul\":12434:12446   */\n      add\n        /* \"#utility.yul\":12427:12446   */\n      swap1\n      pop\n        /* \"#utility.yul\":12086:12452   */\n      swap2\n      swap1\n      pop\n      jump\t// out\n        /* \"#utility.yul\":12458:12877   */\n    tag_111:\n        /* \"#utility.yul\":12624:12628   */\n      0x00\n        /* \"#utility.yul\":12662:12664   */\n      0x20\n        /* \"#utility.yul\":12651:12660   */\n      dup3\n        /* \"#utility.yul\":12647:12665   */\n      add\n        /* \"#utility.yul\":12639:12665   */\n      swap1\n      pop\n        /* \"#utility.yul\":12711:12720   */\n      dup2\n        /* \"#utility.yul\":12705:12709   */\n      dup2\n        /* \"#utility.yul\":12701:12721   */\n      sub\n        /* \"#utility.yul\":12697:12698   */\n      0x00\n        /* \"#utility.yul\":12686:12695   */\n      dup4\n        /* \"#utility.yul\":12682:12699   */\n      add\n        /* \"#utility.yul\":12675:12722   */\n      mstore\n        /* \"#utility.yul\":12739:12870   */\n      tag_503\n        /* \"#utility.yul\":12865:12869   */\n      dup2\n        /* \"#utility.yul\":12739:12870   */\n      tag_333\n      jump\t// in\n    tag_503:\n        /* \"#utility.yul\":12731:12870   */\n      swap1\n      pop\n        /* \"#utility.yul\":12458:12877   */\n      swap2\n      swap1\n      pop\n      jump\t// out\n        /* \"#utility.yul\":12883:13053   */\n    tag_334:\n        /* \"#utility.yul\":13023:13045   */\n      0x416d6f756e742061626f7665206d6178696d756d000000000000000000000000\n        /* \"#utility.yul\":13019:13020   */\n      0x00\n        /* \"#utility.yul\":13011:13017   */\n      dup3\n        /* \"#utility.yul\":13007:13021   */\n      add\n        /* \"#utility.yul\":13000:13046   */\n      mstore\n        /* \"#utility.yul\":12883:13053   */\n      pop\n      jump\t// out\n        /* \"#utility.yul\":13059:13425   */\n    tag_335:\n        /* \"#utility.yul\":13201:13204   */\n      0x00\n        /* \"#utility.yul\":13222:13289   */\n      tag_506\n        /* \"#utility.yul\":13286:13288   */\n      0x14\n        /* \"#utility.yul\":13281:13284   */\n      dup4\n        /* \"#utility.yul\":13222:13289   */\n      tag_329\n      jump\t// in\n    tag_506:\n        /* \"#utility.yul\":13215:13289   */\n      swap2\n      pop\n        /* \"#utility.yul\":13298:13391   */\n      tag_507\n        /* \"#utility.yul\":13387:13390   */\n      dup3\n        /* \"#utility.yul\":13298:13391   */\n      tag_334\n      jump\t// in\n    tag_507:\n        /* \"#utility.yul\":13416:13418   */\n      0x20\n        /* \"#utility.yul\":13411:13414   */\n      dup3\n        /* \"#utility.yul\":13407:13419   */\n      add\n        /* \"#utility.yul\":13400:13419   */\n      swap1\n      pop\n        /* \"#utility.yul\":13059:13425   */\n      swap2\n      swap1\n      pop\n      jump\t// out\n        /* \"#utility.yul\":13431:13850   */\n    tag_114:\n        /* \"#utility.yul\":13597:13601   */\n      0x00\n        /* \"#utility.yul\":13635:13637   */\n      0x20\n        /* \"#utility.yul\":13624:13633   */\n      dup3\n        /* \"#utility.yul\":13620:13638   */\n      add\n        /* \"#utility.yul\":13612:13638   */\n      swap1\n      pop\n        /* \"#utility.yul\":13684:13693   */\n      dup2\n        /* \"#utility.yul\":13678:13682   */\n      dup2\n        /* \"#utility.yul\":13674:13694   */\n      sub\n        /* \"#utility.yul\":13670:13671   */\n      0x00\n        /* \"#utility.yul\":13659:13668   */\n      dup4\n        /* \"#utility.yul\":13655:13672   */\n      add\n        /* \"#utility.yul\":13648:13695   */\n      mstore\n        /* \"#utility.yul\":13712:13843   */\n      tag_509\n        /* \"#utility.yul\":13838:13842   */\n      dup2\n        /* \"#utility.yul\":13712:13843   */\n      tag_335\n      jump\t// in\n    tag_509:\n        /* \"#utility.yul\":13704:13843   */\n      swap1\n      pop\n        /* \"#utility.yul\":13431:13850   */\n      swap2\n      swap1\n      pop\n      jump\t// out\n        /* \"#utility.yul\":13856:14023   */\n    tag_336:\n        /* \"#utility.yul\":13996:14015   */\n      0x436f6d6d69746d656e7420657869737473000000000000000000000000000000\n        /* \"#utility.yul\":13992:13993   */\n      0x00\n        /* \"#utility.yul\":13984:13990   */\n      dup3\n        /* \"#utility.yul\":13980:13994   */\n      add\n        /* \"#utility.yul\":13973:14016   */\n      mstore\n        /* \"#utility.yul\":13856:14023   */\n      pop\n      jump\t// out\n        /* \"#utility.yul\":14029:14395   */\n    tag_337:\n        /* \"#utility.yul\":14171:14174   */\n      0x00\n        /* \"#utility.yul\":14192:14259   */\n      tag_512\n        /* \"#utility.yul\":14256:14258   */\n      0x11\n        /* \"#utility.yul\":14251:14254   */\n      dup4\n        /* \"#utility.yul\":14192:14259   */\n      tag_329\n      jump\t// in\n    tag_512:\n        /* \"#utility.yul\":14185:14259   */\n      swap2\n      pop\n        /* \"#utility.yul\":14268:14361   */\n      tag_513\n        /* \"#utility.yul\":14357:14360   */\n      dup3\n        /* \"#utility.yul\":14268:14361   */\n      tag_336\n      jump\t// in\n    tag_513:\n        /* \"#utility.yul\":14386:14388   */\n      0x20\n        /* \"#utility.yul\":14381:14384   */\n      dup3\n        /* \"#utility.yul\":14377:14389   */\n      add\n        /* \"#utility.yul\":14370:14389   */\n      swap1\n      pop\n        /* \"#utility.yul\":14029:14395   */\n      swap2\n      swap1\n      pop\n      jump\t// out\n        /* \"#utility.yul\":14401:14820   */\n    tag_117:\n        /* \"#utility.yul\":14567:14571   */\n      0x00\n        /* \"#utility.yul\":14605:14607   */\n      0x20\n        /* \"#utility.yul\":14594:14603   */\n      dup3\n        /* \"#utility.yul\":14590:14608   */\n      add\n        /* \"#utility.yul\":14582:14608   */\n      swap1\n      pop\n        /* \"#utility.yul\":14654:14663   */\n      dup2\n        /* \"#utility.yul\":14648:14652   */\n      dup2\n        /* \"#utility.yul\":14644:14664   */\n      sub\n        /* \"#utility.yul\":14640:14641   */\n      0x00\n        /* \"#utility.yul\":14629:14638   */\n      dup4\n        /* \"#utility.yul\":14625:14642   */\n      add\n        /* \"#utility.yul\":14618:14665   */\n      mstore\n        /* \"#utility.yul\":14682:14813   */\n      tag_515\n        /* \"#utility.yul\":14808:14812   */\n      dup2\n        /* \"#utility.yul\":14682:14813   */\n      tag_337\n      jump\t// in\n    tag_515:\n        /* \"#utility.yul\":14674:14813   */\n      swap1\n      pop\n        /* \"#utility.yul\":14401:14820   */\n      swap2\n      swap1\n      pop\n      jump\t// out\n        /* \"#utility.yul\":14826:14987   */\n    tag_338:\n        /* \"#utility.yul\":14966:14979   */\n      0x456d7074792070726f6f66000000000000000000000000000000000000000000\n        /* \"#utility.yul\":14962:14963   */\n      0x00\n        /* \"#utility.yul\":14954:14960   */\n      dup3\n        /* \"#utility.yul\":14950:14964   */\n      add\n        /* \"#utility.yul\":14943:14980   */\n      mstore\n        /* \"#utility.yul\":14826:14987   */\n      pop\n      jump\t// out\n        /* \"#utility.yul\":14993:15359   */\n    tag_339:\n        /* \"#utility.yul\":15135:15138   */\n      0x00\n        /* \"#utility.yul\":15156:15223   */\n      tag_518\n        /* \"#utility.yul\":15220:15222   */\n      0x0b\n        /* \"#utility.yul\":15215:15218   */\n      dup4\n        /* \"#utility.yul\":15156:15223   */\n      tag_329\n      jump\t// in\n    tag_518:\n        /* \"#utility.yul\":15149:15223   */\n      swap2\n      pop\n        /* \"#utility.yul\":15232:15325   */\n      tag_519\n        /* \"#utility.yul\":15321:15324   */\n      dup3\n        /* \"#utility.yul\":15232:15325   */\n      tag_338\n      jump\t// in\n    tag_519:\n        /* \"#utility.yul\":15350:15352   */\n      0x20\n        /* \"#utility.yul\":15345:15348   */\n      dup3\n        /* \"#utility.yul\":15341:15353   */\n      add\n        /* \"#utility.yul\":15334:15353   */\n      swap1\n      pop\n        /* \"#utility.yul\":14993:15359   */\n      swap2\n      swap1\n      pop\n      jump\t// out\n        /* \"#utility.yul\":15365:15784   */\n    tag_120:\n        /* \"#utility.yul\":15531:15535   */\n      0x00\n        /* \"#utility.yul\":15569:15571   */\n      0x20\n        /* \"#utility.yul\":15558:15567   */\n      dup3\n        /* \"#utility.yul\":15554:15572   */\n      add\n        /* \"#utility.yul\":15546:15572   */\n      swap1\n      pop\n        /* \"#utility.yul\":15618:15627   */\n      dup2\n        /* \"#utility.yul\":15612:15616   */\n      dup2\n        /* \"#utility.yul\":15608:15628   */\n      sub\n        /* \"#utility.yul\":15604:15605   */\n      0x00\n        /* \"#utility.yul\":15593:15602   */\n      dup4\n        /* \"#utility.yul\":15589:15606   */\n      add\n        /* \"#utility.yul\":15582:15629   */\n      mstore\n        /* \"#utility.yul\":15646:15777   */\n      tag_521\n        /* \"#utility.yul\":15772:15776   */\n      dup2\n        /* \"#utility.yul\":15646:15777   */\n      tag_339\n      jump\t// in\n    tag_521:\n        /* \"#utility.yul\":15638:15777   */\n      swap1\n      pop\n        /* \"#utility.yul\":15365:15784   */\n      swap2\n      swap1\n      pop\n      jump\t// out\n        /* \"#utility.yul\":15790:15958   */\n    tag_340:\n        /* \"#utility.yul\":15873:15884   */\n      0x00\n        /* \"#utility.yul\":15907:15913   */\n      dup3\n        /* \"#utility.yul\":15902:15905   */\n      dup3\n        /* \"#utility.yul\":15895:15914   */\n      mstore\n        /* \"#utility.yul\":15947:15951   */\n      0x20\n        /* \"#utility.yul\":15942:15945   */\n      dup3\n        /* \"#utility.yul\":15938:15952   */\n      add\n        /* \"#utility.yul\":15923:15952   */\n      swap1\n      pop\n        /* \"#utility.yul\":15790:15958   */\n      swap3\n      swap2\n      pop\n      pop\n      jump\t// out\n        /* \"#utility.yul\":15964:16112   */\n    tag_341:\n        /* \"#utility.yul\":16062:16068   */\n      dup3\n        /* \"#utility.yul\":16057:16060   */\n      dup2\n        /* \"#utility.yul\":16052:16055   */\n      dup4\n        /* \"#utility.yul\":16039:16069   */\n      calldatacopy\n        /* \"#utility.yul\":16103:16104   */\n      0x00\n        /* \"#utility.yul\":16094:16100   */\n      dup4\n        /* \"#utility.yul\":16089:16092   */\n      dup4\n        /* \"#utility.yul\":16085:16101   */\n      add\n        /* \"#utility.yul\":16078:16105   */\n      mstore\n        /* \"#utility.yul\":15964:16112   */\n      pop\n      pop\n      pop\n      jump\t// out\n        /* \"#utility.yul\":16118:16220   */\n    tag_342:\n        /* \"#utility.yul\":16159:16165   */\n      0x00\n        /* \"#utility.yul\":16210:16212   */\n      0x1f\n        /* \"#utility.yul\":16206:16213   */\n      not\n        /* \"#utility.yul\":16201:16203   */\n      0x1f\n        /* \"#utility.yul\":16194:16199   */\n      dup4\n        /* \"#utility.yul\":16190:16204   */\n      add\n        /* \"#utility.yul\":16186:16214   */\n      and\n        /* \"#utility.yul\":16176:16214   */\n      swap1\n      pop\n        /* \"#utility.yul\":16118:16220   */\n      swap2\n      swap1\n      pop\n      jump\t// out\n        /* \"#utility.yul\":16248:16562   */\n    tag_343:\n        /* \"#utility.yul\":16344:16347   */\n      0x00\n        /* \"#utility.yul\":16365:16435   */\n      tag_526\n        /* \"#utility.yul\":16428:16434   */\n      dup4\n        /* \"#utility.yul\":16423:16426   */\n      dup6\n        /* \"#utility.yul\":16365:16435   */\n      tag_340\n      jump\t// in\n    tag_526:\n        /* \"#utility.yul\":16358:16435   */\n      swap4\n      pop\n        /* \"#utility.yul\":16445:16501   */\n      tag_527\n        /* \"#utility.yul\":16494:16500   */\n      dup4\n        /* \"#utility.yul\":16489:16492   */\n      dup6\n        /* \"#utility.yul\":16482:16487   */\n      dup5\n        /* \"#utility.yul\":16445:16501   */\n      tag_341\n      jump\t// in\n    tag_527:\n        /* \"#utility.yul\":16526:16555   */\n      tag_528\n        /* \"#utility.yul\":16548:16554   */\n      dup4\n        /* \"#utility.yul\":16526:16555   */\n      tag_342\n      jump\t// in\n    tag_528:\n        /* \"#utility.yul\":16521:16524   */\n      dup5\n        /* \"#utility.yul\":16517:16556   */\n      add\n        /* \"#utility.yul\":16510:16556   */\n      swap1\n      pop\n        /* \"#utility.yul\":16248:16562   */\n      swap4\n      swap3\n      pop\n      pop\n      pop\n      jump\t// out\n        /* \"#utility.yul\":16568:17228   */\n    tag_122:\n        /* \"#utility.yul\":16773:16777   */\n      0x00\n        /* \"#utility.yul\":16811:16814   */\n      0x80\n        /* \"#utility.yul\":16800:16809   */\n      dup3\n        /* \"#utility.yul\":16796:16815   */\n      add\n        /* \"#utility.yul\":16788:16815   */\n      swap1\n      pop\n        /* \"#utility.yul\":16825:16896   */\n      tag_530\n        /* \"#utility.yul\":16893:16894   */\n      0x00\n        /* \"#utility.yul\":16882:16891   */\n      dup4\n        /* \"#utility.yul\":16878:16895   */\n      add\n        /* \"#utility.yul\":16869:16875   */\n      dup9\n        /* \"#utility.yul\":16825:16896   */\n      tag_320\n      jump\t// in\n    tag_530:\n        /* \"#utility.yul\":16906:16978   */\n      tag_531\n        /* \"#utility.yul\":16974:16976   */\n      0x20\n        /* \"#utility.yul\":16963:16972   */\n      dup4\n        /* \"#utility.yul\":16959:16977   */\n      add\n        /* \"#utility.yul\":16950:16956   */\n      dup8\n        /* \"#utility.yul\":16906:16978   */\n      tag_296\n      jump\t// in\n    tag_531:\n        /* \"#utility.yul\":16988:17060   */\n      tag_532\n        /* \"#utility.yul\":17056:17058   */\n      0x40\n        /* \"#utility.yul\":17045:17054   */\n      dup4\n        /* \"#utility.yul\":17041:17059   */\n      add\n        /* \"#utility.yul\":17032:17038   */\n      dup7\n        /* \"#utility.yul\":16988:17060   */\n      tag_321\n      jump\t// in\n    tag_532:\n        /* \"#utility.yul\":17107:17116   */\n      dup2\n        /* \"#utility.yul\":17101:17105   */\n      dup2\n        /* \"#utility.yul\":17097:17117   */\n      sub\n        /* \"#utility.yul\":17092:17094   */\n      0x60\n        /* \"#utility.yul\":17081:17090   */\n      dup4\n        /* \"#utility.yul\":17077:17095   */\n      add\n        /* \"#utility.yul\":17070:17118   */\n      mstore\n        /* \"#utility.yul\":17135:17221   */\n      tag_533\n        /* \"#utility.yul\":17216:17220   */\n      dup2\n        /* \"#utility.yul\":17207:17213   */\n      dup5\n        /* \"#utility.yul\":17199:17205   */\n      dup7\n        /* \"#utility.yul\":17135:17221   */\n      tag_343\n      jump\t// in\n    tag_533:\n        /* \"#utility.yul\":17127:17221   */\n      swap1\n      pop\n        /* \"#utility.yul\":16568:17228   */\n      swap7\n      swap6\n      pop\n      pop\n      pop\n      pop\n      pop\n      pop\n      jump\t// out\n        /* \"#utility.yul\":17234:17350   */\n    tag_344:\n        /* \"#utility.yul\":17304:17325   */\n      tag_535\n        /* \"#utility.yul\":17319:17324   */\n      dup2\n        /* \"#utility.yul\":17304:17325   */\n      tag_309\n      jump\t// in\n    tag_535:\n        /* \"#utility.yul\":17297:17302   */\n      dup2\n        /* \"#utility.yul\":17294:17326   */\n      eq\n        /* \"#utility.yul\":17284:17344   */\n      tag_536\n      jumpi\n        /* \"#utility.yul\":17340:17341   */\n      0x00\n        /* \"#utility.yul\":17337:17338   */\n      dup1\n        /* \"#utility.yul\":17330:17342   */\n      revert\n        /* \"#utility.yul\":17284:17344   */\n    tag_536:\n        /* \"#utility.yul\":17234:17350   */\n      pop\n      jump\t// out\n        /* \"#utility.yul\":17356:17493   */\n    tag_345:\n        /* \"#utility.yul\":17410:17415   */\n      0x00\n        /* \"#utility.yul\":17441:17447   */\n      dup2\n        /* \"#utility.yul\":17435:17448   */\n      mload\n        /* \"#utility.yul\":17426:17448   */\n      swap1\n      pop\n        /* \"#utility.yul\":17457:17487   */\n      tag_538\n        /* \"#utility.yul\":17481:17486   */\n      dup2\n        /* \"#utility.yul\":17457:17487   */\n      tag_344\n      jump\t// in\n    tag_538:\n        /* \"#utility.yul\":17356:17493   */\n      swap3\n      swap2\n      pop\n      pop\n      jump\t// out\n        /* \"#utility.yul\":17499:17844   */\n    tag_126:\n        /* \"#utility.yul\":17566:17572   */\n      0x00\n        /* \"#utility.yul\":17615:17617   */\n      0x20\n        /* \"#utility.yul\":17603:17612   */\n      dup3\n        /* \"#utility.yul\":17594:17601   */\n      dup5\n        /* \"#utility.yul\":17590:17613   */\n      sub\n        /* \"#utility.yul\":17586:17618   */\n      slt\n        /* \"#utility.yul\":17583:17702   */\n      iszero\n      tag_540\n      jumpi\n        /* \"#utility.yul\":17621:17700   */\n      tag_541\n      tag_298\n      jump\t// in\n    tag_541:\n        /* \"#utility.yul\":17583:17702   */\n    tag_540:\n        /* \"#utility.yul\":17741:17742   */\n      0x00\n        /* \"#utility.yul\":17766:17827   */\n      tag_542\n        /* \"#utility.yul\":17819:17826   */\n      dup5\n        /* \"#utility.yul\":17810:17816   */\n      dup3\n        /* \"#utility.yul\":17799:17808   */\n      dup6\n        /* \"#utility.yul\":17795:17817   */\n      add\n        /* \"#utility.yul\":17766:17827   */\n      tag_345\n      jump\t// in\n    tag_542:\n        /* \"#utility.yul\":17756:17827   */\n      swap2\n      pop\n        /* \"#utility.yul\":17712:17837   */\n      pop\n        /* \"#utility.yul\":17499:17844   */\n      swap3\n      swap2\n      pop\n      pop\n      jump\t// out\n        /* \"#utility.yul\":17850:18013   */\n    tag_346:\n        /* \"#utility.yul\":17990:18005   */\n      0x496e76616c69642070726f6f6600000000000000000000000000000000000000\n        /* \"#utility.yul\":17986:17987   */\n      0x00\n        /* \"#utility.yul\":17978:17984   */\n      dup3\n        /* \"#utility.yul\":17974:17988   */\n      add\n        /* \"#utility.yul\":17967:18006   */\n      mstore\n        /* \"#utility.yul\":17850:18013   */\n      pop\n      jump\t// out\n        /* \"#utility.yul\":18019:18385   */\n    tag_347:\n        /* \"#utility.yul\":18161:18164   */\n      0x00\n        /* \"#utility.yul\":18182:18249   */\n      tag_545\n        /* \"#utility.yul\":18246:18248   */\n      0x0d\n        /* \"#utility.yul\":18241:18244   */\n      dup4\n        /* \"#utility.yul\":18182:18249   */\n      tag_329\n      jump\t// in\n    tag_545:\n        /* \"#utility.yul\":18175:18249   */\n      swap2\n      pop\n        /* \"#utility.yul\":18258:18351   */\n      tag_546\n        /* \"#utility.yul\":18347:18350   */\n      dup3\n        /* \"#utility.yul\":18258:18351   */\n      tag_346\n      jump\t// in\n    tag_546:\n        /* \"#utility.yul\":18376:18378   */\n      0x20\n        /* \"#utility.yul\":18371:18374   */\n      dup3\n        /* \"#utility.yul\":18367:18379   */\n      add\n        /* \"#utility.yul\":18360:18379   */\n      swap1\n      pop\n        /* \"#utility.yul\":18019:18385   */\n      swap2\n      swap1\n      pop\n      jump\t// out\n        /* \"#utility.yul\":18391:18810   */\n    tag_129:\n        /* \"#utility.yul\":18557:18561   */\n      0x00\n        /* \"#utility.yul\":18595:18597   */\n      0x20\n        /* \"#utility.yul\":18584:18593   */\n      dup3\n        /* \"#utility.yul\":18580:18598   */\n      add\n        /* \"#utility.yul\":18572:18598   */\n      swap1\n      pop\n        /* \"#utility.yul\":18644:18653   */\n      dup2\n        /* \"#utility.yul\":18638:18642   */\n      dup2\n        /* \"#utility.yul\":18634:18654   */\n      sub\n        /* \"#utility.yul\":18630:18631   */\n      0x00\n        /* \"#utility.yul\":18619:18628   */\n      dup4\n        /* \"#utility.yul\":18615:18632   */\n      add\n        /* \"#utility.yul\":18608:18655   */\n      mstore\n        /* \"#utility.yul\":18672:18803   */\n      tag_548\n        /* \"#utility.yul\":18798:18802   */\n      dup2\n        /* \"#utility.yul\":18672:18803   */\n      tag_347\n      jump\t// in\n    tag_548:\n        /* \"#utility.yul\":18664:18803   */\n      swap1\n      pop\n        /* \"#utility.yul\":18391:18810   */\n      swap2\n      swap1\n      pop\n      jump\t// out\n        /* \"#utility.yul\":18816:19258   */\n    tag_135:\n        /* \"#utility.yul\":18965:18969   */\n      0x00\n        /* \"#utility.yul\":19003:19005   */\n      0x60\n        /* \"#utility.yul\":18992:19001   */\n      dup3\n        /* \"#utility.yul\":18988:19006   */\n      add\n        /* \"#utility.yul\":18980:19006   */\n      swap1\n      pop\n        /* \"#utility.yul\":19016:19087   */\n      tag_550\n        /* \"#utility.yul\":19084:19085   */\n      0x00\n        /* \"#utility.yul\":19073:19082   */\n      dup4\n        /* \"#utility.yul\":19069:19086   */\n      add\n        /* \"#utility.yul\":19060:19066   */\n      dup7\n        /* \"#utility.yul\":19016:19087   */\n      tag_321\n      jump\t// in\n    tag_550:\n        /* \"#utility.yul\":19097:19169   */\n      tag_551\n        /* \"#utility.yul\":19165:19167   */\n      0x20\n        /* \"#utility.yul\":19154:19163   */\n      dup4\n        /* \"#utility.yul\":19150:19168   */\n      add\n        /* \"#utility.yul\":19141:19147   */\n      dup6\n        /* \"#utility.yul\":19097:19169   */\n      tag_321\n      jump\t// in\n    tag_551:\n        /* \"#utility.yul\":19179:19251   */\n      tag_552\n        /* \"#utility.yul\":19247:19249   */\n      0x40\n        /* \"#utility.yul\":19236:19245   */\n      dup4\n        /* \"#utility.yul\":19232:19250   */\n      add\n        /* \"#utility.yul\":19223:19229   */\n      dup5\n        /* \"#utility.yul\":19179:19251   */\n      tag_296\n      jump\t// in\n    tag_552:\n        /* \"#utility.yul\":18816:19258   */\n      swap5\n      swap4\n      pop\n      pop\n      pop\n      pop\n      jump\t// out\n        /* \"#utility.yul\":19264:19429   */\n    tag_348:\n        /* \"#utility.yul\":19404:19421   */\n      0x5472616e73666572206661696c65640000000000000000000000000000000000\n        /* \"#utility.yul\":19400:19401   */\n      0x00\n        /* \"#utility.yul\":19392:19398   */\n      dup3\n        /* \"#utility.yul\":19388:19402   */\n      add\n        /* \"#utility.yul\":19381:19422   */\n      mstore\n        /* \"#utility.yul\":19264:19429   */\n      pop\n      jump\t// out\n        /* \"#utility.yul\":19435:19801   */\n    tag_349:\n        /* \"#utility.yul\":19577:19580   */\n      0x00\n        /* \"#utility.yul\":19598:19665   */\n      tag_555\n        /* \"#utility.yul\":19662:19664   */\n      0x0f\n        /* \"#utility.yul\":19657:19660   */\n      dup4\n        /* \"#utility.yul\":19598:19665   */\n      tag_329\n      jump\t// in\n    tag_555:\n        /* \"#utility.yul\":19591:19665   */\n      swap2\n      pop\n        /* \"#utility.yul\":19674:19767   */\n      tag_556\n        /* \"#utility.yul\":19763:19766   */\n      dup3\n        /* \"#utility.yul\":19674:19767   */\n      tag_348\n      jump\t// in\n    tag_556:\n        /* \"#utility.yul\":19792:19794   */\n      0x20\n        /* \"#utility.yul\":19787:19790   */\n      dup3\n        /* \"#utility.yul\":19783:19795   */\n      add\n        /* \"#utility.yul\":19776:19795   */\n      swap1\n      pop\n        /* \"#utility.yul\":19435:19801   */\n      swap2\n      swap1\n      pop\n      jump\t// out\n        /* \"#utility.yul\":19807:20226   */\n    tag_141:\n        /* \"#utility.yul\":19973:19977   */\n      0x00\n        /* \"#utility.yul\":20011:20013   */\n      0x20\n        /* \"#utility.yul\":20000:20009   */\n      dup3\n        /* \"#utility.yul\":19996:20014   */\n      add\n        /* \"#utility.yul\":19988:20014   */\n      swap1\n      pop\n        /* \"#utility.yul\":20060:20069   */\n      dup2\n        /* \"#utility.yul\":20054:20058   */\n      dup2\n        /* \"#utility.yul\":20050:20070   */\n      sub\n        /* \"#utility.yul\":20046:20047   */\n      0x00\n        /* \"#utility.yul\":20035:20044   */\n      dup4\n        /* \"#utility.yul\":20031:20048   */\n      add\n        /* \"#utility.yul\":20024:20071   */\n      mstore\n        /* \"#utility.yul\":20088:20219   */\n      tag_558\n        /* \"#utility.yul\":20214:20218   */\n      dup2\n        /* \"#utility.yul\":20088:20219   */\n      tag_349\n      jump\t// in\n    tag_558:\n        /* \"#utility.yul\":20080:20219   */\n      swap1\n      pop\n        /* \"#utility.yul\":19807:20226   */\n      swap2\n      swap1\n      pop\n      jump\t// out\n        /* \"#utility.yul\":20232:20412   */\n    tag_350:\n        /* \"#utility.yul\":20280:20357   */\n      0x4e487b7100000000000000000000000000000000000000000000000000000000\n        /* \"#utility.yul\":20277:20278   */\n      0x00\n        /* \"#utility.yul\":20270:20358   */\n      mstore\n        /* \"#utility.yul\":20377:20381   */\n      0x11\n        /* \"#utility.yul\":20374:20375   */\n      0x04\n        /* \"#utility.yul\":20367:20382   */\n      mstore\n        /* \"#utility.yul\":20401:20405   */\n      0x24\n        /* \"#utility.yul\":20398:20399   */\n      0x00\n        /* \"#utility.yul\":20391:20406   */\n      revert\n        /* \"#utility.yul\":20418:20609   */\n    tag_143:\n        /* \"#utility.yul\":20458:20461   */\n      0x00\n        /* \"#utility.yul\":20477:20497   */\n      tag_561\n        /* \"#utility.yul\":20495:20496   */\n      dup3\n        /* \"#utility.yul\":20477:20497   */\n      tag_295\n      jump\t// in\n    tag_561:\n        /* \"#utility.yul\":20472:20497   */\n      swap2\n      pop\n        /* \"#utility.yul\":20511:20531   */\n      tag_562\n        /* \"#utility.yul\":20529:20530   */\n      dup4\n        /* \"#utility.yul\":20511:20531   */\n      tag_295\n      jump\t// in\n    tag_562:\n        /* \"#utility.yul\":20506:20531   */\n      swap3\n      pop\n        /* \"#utility.yul\":20554:20555   */\n      dup3\n        /* \"#utility.yul\":20551:20552   */\n      dup3\n        /* \"#utility.yul\":20547:20556   */\n      add\n        /* \"#utility.yul\":20540:20556   */\n      swap1\n      pop\n        /* \"#utility.yul\":20575:20578   */\n      dup1\n        /* \"#utility.yul\":20572:20573   */\n      dup3\n        /* \"#utility.yul\":20569:20579   */\n      gt\n        /* \"#utility.yul\":20566:20602   */\n      iszero\n      tag_563\n      jumpi\n        /* \"#utility.yul\":20582:20600   */\n      tag_564\n      tag_350\n      jump\t// in\n    tag_564:\n        /* \"#utility.yul\":20566:20602   */\n    tag_563:\n        /* \"#utility.yul\":20418:20609   */\n      swap3\n      swap2\n      pop\n      pop\n      jump\t// out\n        /* \"#utility.yul\":20615:20788   */\n    tag_351:\n        /* \"#utility.yul\":20755:20780   */\n      0x496e76616c6964207472616e7366657220616d6f756e74000000000000000000\n        /* \"#utility.yul\":20751:20752   */\n      0x00\n        /* \"#utility.yul\":20743:20749   */\n      dup3\n        /* \"#utility.yul\":20739:20753   */\n      add\n        /* \"#utility.yul\":20732:20781   */\n      mstore\n        /* \"#utility.yul\":20615:20788   */\n      pop\n      jump\t// out\n        /* \"#utility.yul\":20794:21160   */\n    tag_352:\n        /* \"#utility.yul\":20936:20939   */\n      0x00\n        /* \"#utility.yul\":20957:21024   */\n      tag_567\n        /* \"#utility.yul\":21021:21023   */\n      0x17\n        /* \"#utility.yul\":21016:21019   */\n      dup4\n        /* \"#utility.yul\":20957:21024   */\n      tag_329\n      jump\t// in\n    tag_567:\n        /* \"#utility.yul\":20950:21024   */\n      swap2\n      pop\n        /* \"#utility.yul\":21033:21126   */\n      tag_568\n        /* \"#utility.yul\":21122:21125   */\n      dup3\n        /* \"#utility.yul\":21033:21126   */\n      tag_351\n      jump\t// in\n    tag_568:\n        /* \"#utility.yul\":21151:21153   */\n      0x20\n        /* \"#utility.yul\":21146:21149   */\n      dup3\n        /* \"#utility.yul\":21142:21154   */\n      add\n        /* \"#utility.yul\":21135:21154   */\n      swap1\n      pop\n        /* \"#utility.yul\":20794:21160   */\n      swap2\n      swap1\n      pop\n      jump\t// out\n        /* \"#utility.yul\":21166:21585   */\n    tag_150:\n        /* \"#utility.yul\":21332:21336   */\n      0x00\n        /* \"#utility.yul\":21370:21372   */\n      0x20\n        /* \"#utility.yul\":21359:21368   */\n      dup3\n        /* \"#utility.yul\":21355:21373   */\n      add\n        /* \"#utility.yul\":21347:21373   */\n      swap1\n      pop\n        /* \"#utility.yul\":21419:21428   */\n      dup2\n        /* \"#utility.yul\":21413:21417   */\n      dup2\n        /* \"#utility.yul\":21409:21429   */\n      sub\n        /* \"#utility.yul\":21405:21406   */\n      0x00\n        /* \"#utility.yul\":21394:21403   */\n      dup4\n        /* \"#utility.yul\":21390:21407   */\n      add\n        /* \"#utility.yul\":21383:21430   */\n      mstore\n        /* \"#utility.yul\":21447:21578   */\n      tag_570\n        /* \"#utility.yul\":21573:21577   */\n      dup2\n        /* \"#utility.yul\":21447:21578   */\n      tag_352\n      jump\t// in\n    tag_570:\n        /* \"#utility.yul\":21439:21578   */\n      swap1\n      pop\n        /* \"#utility.yul\":21166:21585   */\n      swap2\n      swap1\n      pop\n      jump\t// out\n        /* \"#utility.yul\":21591:21923   */\n    tag_152:\n        /* \"#utility.yul\":21712:21716   */\n      0x00\n        /* \"#utility.yul\":21750:21752   */\n      0x40\n        /* \"#utility.yul\":21739:21748   */\n      dup3\n        /* \"#utility.yul\":21735:21753   */\n      add\n        /* \"#utility.yul\":21727:21753   */\n      swap1\n      pop\n        /* \"#utility.yul\":21763:21834   */\n      tag_572\n        /* \"#utility.yul\":21831:21832   */\n      0x00\n        /* \"#utility.yul\":21820:21829   */\n      dup4\n        /* \"#utility.yul\":21816:21833   */\n      add\n        /* \"#utility.yul\":21807:21813   */\n      dup6\n        /* \"#utility.yul\":21763:21834   */\n      tag_296\n      jump\t// in\n    tag_572:\n        /* \"#utility.yul\":21844:21916   */\n      tag_573\n        /* \"#utility.yul\":21912:21914   */\n      0x20\n        /* \"#utility.yul\":21901:21910   */\n      dup4\n        /* \"#utility.yul\":21897:21915   */\n      add\n        /* \"#utility.yul\":21888:21894   */\n      dup5\n        /* \"#utility.yul\":21844:21916   */\n      tag_296\n      jump\t// in\n    tag_573:\n        /* \"#utility.yul\":21591:21923   */\n      swap4\n      swap3\n      pop\n      pop\n      pop\n      jump\t// out\n        /* \"#utility.yul\":21929:22103   */\n    tag_353:\n        /* \"#utility.yul\":22069:22095   */\n      0x496e76616c696420766572696669657220616464726573730000000000000000\n        /* \"#utility.yul\":22065:22066   */\n      0x00\n        /* \"#utility.yul\":22057:22063   */\n      dup3\n        /* \"#utility.yul\":22053:22067   */\n      add\n        /* \"#utility.yul\":22046:22096   */\n      mstore\n        /* \"#utility.yul\":21929:22103   */\n      pop\n      jump\t// out\n        /* \"#utility.yul\":22109:22475   */\n    tag_354:\n        /* \"#utility.yul\":22251:22254   */\n      0x00\n        /* \"#utility.yul\":22272:22339   */\n      tag_576\n        /* \"#utility.yul\":22336:22338   */\n      0x18\n        /* \"#utility.yul\":22331:22334   */\n      dup4\n        /* \"#utility.yul\":22272:22339   */\n      tag_329\n      jump\t// in\n    tag_576:\n        /* \"#utility.yul\":22265:22339   */\n      swap2\n      pop\n        /* \"#utility.yul\":22348:22441   */\n      tag_577\n        /* \"#utility.yul\":22437:22440   */\n      dup3\n        /* \"#utility.yul\":22348:22441   */\n      tag_353\n      jump\t// in\n    tag_577:\n        /* \"#utility.yul\":22466:22468   */\n      0x20\n        /* \"#utility.yul\":22461:22464   */\n      dup3\n        /* \"#utility.yul\":22457:22469   */\n      add\n        /* \"#utility.yul\":22450:22469   */\n      swap1\n      pop\n        /* \"#utility.yul\":22109:22475   */\n      swap2\n      swap1\n      pop\n      jump\t// out\n        /* \"#utility.yul\":22481:22900   */\n    tag_167:\n        /* \"#utility.yul\":22647:22651   */\n      0x00\n        /* \"#utility.yul\":22685:22687   */\n      0x20\n        /* \"#utility.yul\":22674:22683   */\n      dup3\n        /* \"#utility.yul\":22670:22688   */\n      add\n        /* \"#utility.yul\":22662:22688   */\n      swap1\n      pop\n        /* \"#utility.yul\":22734:22743   */\n      dup2\n        /* \"#utility.yul\":22728:22732   */\n      dup2\n        /* \"#utility.yul\":22724:22744   */\n      sub\n        /* \"#utility.yul\":22720:22721   */\n      0x00\n        /* \"#utility.yul\":22709:22718   */\n      dup4\n        /* \"#utility.yul\":22705:22722   */\n      add\n        /* \"#utility.yul\":22698:22745   */\n      mstore\n        /* \"#utility.yul\":22762:22893   */\n      tag_579\n        /* \"#utility.yul\":22888:22892   */\n      dup2\n        /* \"#utility.yul\":22762:22893   */\n      tag_354\n      jump\t// in\n    tag_579:\n        /* \"#utility.yul\":22754:22893   */\n      swap1\n      pop\n        /* \"#utility.yul\":22481:22900   */\n      swap2\n      swap1\n      pop\n      jump\t// out\n        /* \"#utility.yul\":22906:23073   */\n    tag_355:\n        /* \"#utility.yul\":23046:23065   */\n      0x496e76616c6964206e756c6c6966696572000000000000000000000000000000\n        /* \"#utility.yul\":23042:23043   */\n      0x00\n        /* \"#utility.yul\":23034:23040   */\n      dup3\n        /* \"#utility.yul\":23030:23044   */\n      add\n        /* \"#utility.yul\":23023:23066   */\n      mstore\n        /* \"#utility.yul\":22906:23073   */\n      pop\n      jump\t// out\n        /* \"#utility.yul\":23079:23445   */\n    tag_356:\n        /* \"#utility.yul\":23221:23224   */\n      0x00\n        /* \"#utility.yul\":23242:23309   */\n      tag_582\n        /* \"#utility.yul\":23306:23308   */\n      0x11\n        /* \"#utility.yul\":23301:23304   */\n      dup4\n        /* \"#utility.yul\":23242:23309   */\n      tag_329\n      jump\t// in\n    tag_582:\n        /* \"#utility.yul\":23235:23309   */\n      swap2\n      pop\n        /* \"#utility.yul\":23318:23411   */\n      tag_583\n        /* \"#utility.yul\":23407:23410   */\n      dup3\n        /* \"#utility.yul\":23318:23411   */\n      tag_355\n      jump\t// in\n    tag_583:\n        /* \"#utility.yul\":23436:23438   */\n      0x20\n        /* \"#utility.yul\":23431:23434   */\n      dup3\n        /* \"#utility.yul\":23427:23439   */\n      add\n        /* \"#utility.yul\":23420:23439   */\n      swap1\n      pop\n        /* \"#utility.yul\":23079:23445   */\n      swap2\n      swap1\n      pop\n      jump\t// out\n        /* \"#utility.yul\":23451:23870   */\n    tag_191:\n        /* \"#utility.yul\":23617:23621   */\n      0x00\n        /* \"#utility.yul\":23655:23657   */\n      0x20\n        /* \"#utility.yul\":23644:23653   */\n      dup3\n        /* \"#utility.yul\":23640:23658   */\n      add\n        /* \"#utility.yul\":23632:23658   */\n      swap1\n      pop\n        /* \"#utility.yul\":23704:23713   */\n      dup2\n        /* \"#utility.yul\":23698:23702   */\n      dup2\n        /* \"#utility.yul\":23694:23714   */\n      sub\n        /* \"#utility.yul\":23690:23691   */\n      0x00\n        /* \"#utility.yul\":23679:23688   */\n      dup4\n        /* \"#utility.yul\":23675:23692   */\n      add\n        /* \"#utility.yul\":23668:23715   */\n      mstore\n        /* \"#utility.yul\":23732:23863   */\n      tag_585\n        /* \"#utility.yul\":23858:23862   */\n      dup2\n        /* \"#utility.yul\":23732:23863   */\n      tag_356\n      jump\t// in\n    tag_585:\n        /* \"#utility.yul\":23724:23863   */\n      swap1\n      pop\n        /* \"#utility.yul\":23451:23870   */\n      swap2\n      swap1\n      pop\n      jump\t// out\n        /* \"#utility.yul\":23876:24043   */\n    tag_357:\n        /* \"#utility.yul\":24016:24035   */\n      0x496e76616c696420726563697069656e74000000000000000000000000000000\n        /* \"#utility.yul\":24012:24013   */\n      0x00\n        /* \"#utility.yul\":24004:24010   */\n      dup3\n        /* \"#utility.yul\":24000:24014   */\n      add\n        /* \"#utility.yul\":23993:24036   */\n      mstore\n        /* \"#utility.yul\":23876:24043   */\n      pop\n      jump\t// out\n        /* \"#utility.yul\":24049:24415   */\n    tag_358:\n        /* \"#utility.yul\":24191:24194   */\n      0x00\n        /* \"#utility.yul\":24212:24279   */\n      tag_588\n        /* \"#utility.yul\":24276:24278   */\n      0x11\n        /* \"#utility.yul\":24271:24274   */\n      dup4\n        /* \"#utility.yul\":24212:24279   */\n      tag_329\n      jump\t// in\n    tag_588:\n        /* \"#utility.yul\":24205:24279   */\n      swap2\n      pop\n        /* \"#utility.yul\":24288:24381   */\n      tag_589\n        /* \"#utility.yul\":24377:24380   */\n      dup3\n        /* \"#utility.yul\":24288:24381   */\n      tag_357\n      jump\t// in\n    tag_589:\n        /* \"#utility.yul\":24406:24408   */\n      0x20\n        /* \"#utility.yul\":24401:24404   */\n      dup3\n        /* \"#utility.yul\":24397:24409   */\n      add\n        /* \"#utility.yul\":24390:24409   */\n      swap1\n      pop\n        /* \"#utility.yul\":24049:24415   */\n      swap2\n      swap1\n      pop\n      jump\t// out\n        /* \"#utility.yul\":24421:24840   */\n    tag_196:\n        /* \"#utility.yul\":24587:24591   */\n      0x00\n        /* \"#utility.yul\":24625:24627   */\n      0x20\n        /* \"#utility.yul\":24614:24623   */\n      dup3\n        /* \"#utility.yul\":24610:24628   */\n      add\n        /* \"#utility.yul\":24602:24628   */\n      swap1\n      pop\n        /* \"#utility.yul\":24674:24683   */\n      dup2\n        /* \"#utility.yul\":24668:24672   */\n      dup2\n        /* \"#utility.yul\":24664:24684   */\n      sub\n        /* \"#utility.yul\":24660:24661   */\n      0x00\n        /* \"#utility.yul\":24649:24658   */\n      dup4\n        /* \"#utility.yul\":24645:24662   */\n      add\n        /* \"#utility.yul\":24638:24685   */\n      mstore\n        /* \"#utility.yul\":24702:24833   */\n      tag_591\n        /* \"#utility.yul\":24828:24832   */\n      dup2\n        /* \"#utility.yul\":24702:24833   */\n      tag_358\n      jump\t// in\n    tag_591:\n        /* \"#utility.yul\":24694:24833   */\n      swap1\n      pop\n        /* \"#utility.yul\":24421:24840   */\n      swap2\n      swap1\n      pop\n      jump\t// out\n        /* \"#utility.yul\":24846:25010   */\n    tag_359:\n        /* \"#utility.yul\":24986:25002   */\n      0x496e76616c696420616d6f756e74000000000000000000000000000000000000\n        /* \"#utility.yul\":24982:24983   */\n      0x00\n        /* \"#utility.yul\":24974:24980   */\n      dup3\n        /* \"#utility.yul\":24970:24984   */\n      add\n        /* \"#utility.yul\":24963:25003   */\n      mstore\n        /* \"#utility.yul\":24846:25010   */\n      pop\n      jump\t// out\n        /* \"#utility.yul\":25016:25382   */\n    tag_360:\n        /* \"#utility.yul\":25158:25161   */\n      0x00\n        /* \"#utility.yul\":25179:25246   */\n      tag_594\n        /* \"#utility.yul\":25243:25245   */\n      0x0e\n        /* \"#utility.yul\":25238:25241   */\n      dup4\n        /* \"#utility.yul\":25179:25246   */\n      tag_329\n      jump\t// in\n    tag_594:\n        /* \"#utility.yul\":25172:25246   */\n      swap2\n      pop\n        /* \"#utility.yul\":25255:25348   */\n      tag_595\n        /* \"#utility.yul\":25344:25347   */\n      dup3\n        /* \"#utility.yul\":25255:25348   */\n      tag_359\n      jump\t// in\n    tag_595:\n        /* \"#utility.yul\":25373:25375   */\n      0x20\n        /* \"#utility.yul\":25368:25371   */\n      dup3\n        /* \"#utility.yul\":25364:25376   */\n      add\n        /* \"#utility.yul\":25357:25376   */\n      swap1\n      pop\n        /* \"#utility.yul\":25016:25382   */\n      swap2\n      swap1\n      pop\n      jump\t// out\n        /* \"#utility.yul\":25388:25807   */\n    tag_199:\n        /* \"#utility.yul\":25554:25558   */\n      0x00\n        /* \"#utility.yul\":25592:25594   */\n      0x20\n        /* \"#utility.yul\":25581:25590   */\n      dup3\n        /* \"#utility.yul\":25577:25595   */\n      add\n        /* \"#utility.yul\":25569:25595   */\n      swap1\n      pop\n        /* \"#utility.yul\":25641:25650   */\n      dup2\n        /* \"#utility.yul\":25635:25639   */\n      dup2\n        /* \"#utility.yul\":25631:25651   */\n      sub\n        /* \"#utility.yul\":25627:25628   */\n      0x00\n        /* \"#utility.yul\":25616:25625   */\n      dup4\n        /* \"#utility.yul\":25612:25629   */\n      add\n        /* \"#utility.yul\":25605:25652   */\n      mstore\n        /* \"#utility.yul\":25669:25800   */\n      tag_597\n        /* \"#utility.yul\":25795:25799   */\n      dup2\n        /* \"#utility.yul\":25669:25800   */\n      tag_360\n      jump\t// in\n    tag_597:\n        /* \"#utility.yul\":25661:25800   */\n      swap1\n      pop\n        /* \"#utility.yul\":25388:25807   */\n      swap2\n      swap1\n      pop\n      jump\t// out\n        /* \"#utility.yul\":25813:25977   */\n    tag_361:\n        /* \"#utility.yul\":25953:25969   */\n      0x4e756c6c69666965722075736564000000000000000000000000000000000000\n        /* \"#utility.yul\":25949:25950   */\n      0x00\n        /* \"#utility.yul\":25941:25947   */\n      dup3\n        /* \"#utility.yul\":25937:25951   */\n      add\n        /* \"#utility.yul\":25930:25970   */\n      mstore\n        /* \"#utility.yul\":25813:25977   */\n      pop\n      jump\t// out\n        /* \"#utility.yul\":25983:26349   */\n    tag_362:\n        /* \"#utility.yul\":26125:26128   */\n      0x00\n        /* \"#utility.yul\":26146:26213   */\n      tag_600\n        /* \"#utility.yul\":26210:26212   */\n      0x0e\n        /* \"#utility.yul\":26205:26208   */\n      dup4\n        /* \"#utility.yul\":26146:26213   */\n      tag_329\n      jump\t// in\n    tag_600:\n        /* \"#utility.yul\":26139:26213   */\n      swap2\n      pop\n        /* \"#utility.yul\":26222:26315   */\n      tag_601\n        /* \"#utility.yul\":26311:26314   */\n      dup3\n        /* \"#utility.yul\":26222:26315   */\n      tag_361\n      jump\t// in\n    tag_601:\n        /* \"#utility.yul\":26340:26342   */\n      0x20\n        /* \"#utility.yul\":26335:26338   */\n      dup3\n        /* \"#utility.yul\":26331:26343   */\n      add\n        /* \"#utility.yul\":26324:26343   */\n      swap1\n      pop\n        /* \"#utility.yul\":25983:26349   */\n      swap2\n      swap1\n      pop\n      jump\t// out\n        /* \"#utility.yul\":26355:26774   */\n    tag_202:\n        /* \"#utility.yul\":26521:26525   */\n      0x00\n        /* \"#utility.yul\":26559:26561   */\n      0x20\n        /* \"#utility.yul\":26548:26557   */\n      dup3\n        /* \"#utility.yul\":26544:26562   */\n      add\n        /* \"#utility.yul\":26536:26562   */\n      swap1\n      pop\n        /* \"#utility.yul\":26608:26617   */\n      dup2\n        /* \"#utility.yul\":26602:26606   */\n      dup2\n        /* \"#utility.yul\":26598:26618   */\n      sub\n        /* \"#utility.yul\":26594:26595   */\n      0x00\n        /* \"#utility.yul\":26583:26592   */\n      dup4\n        /* \"#utility.yul\":26579:26596   */\n      add\n        /* \"#utility.yul\":26572:26619   */\n      mstore\n        /* \"#utility.yul\":26636:26767   */\n      tag_603\n        /* \"#utility.yul\":26762:26766   */\n      dup2\n        /* \"#utility.yul\":26636:26767   */\n      tag_362\n      jump\t// in\n    tag_603:\n        /* \"#utility.yul\":26628:26767   */\n      swap1\n      pop\n        /* \"#utility.yul\":26355:26774   */\n      swap2\n      swap1\n      pop\n      jump\t// out\n        /* \"#utility.yul\":26780:26944   */\n    tag_363:\n        /* \"#utility.yul\":26920:26936   */\n      0x4e6f7465206e6f7420666f756e64000000000000000000000000000000000000\n        /* \"#utility.yul\":26916:26917   */\n      0x00\n        /* \"#utility.yul\":26908:26914   */\n      dup3\n        /* \"#utility.yul\":26904:26918   */\n      add\n        /* \"#utility.yul\":26897:26937   */\n      mstore\n        /* \"#utility.yul\":26780:26944   */\n      pop\n      jump\t// out\n        /* \"#utility.yul\":26950:27316   */\n    tag_364:\n        /* \"#utility.yul\":27092:27095   */\n      0x00\n        /* \"#utility.yul\":27113:27180   */\n      tag_606\n        /* \"#utility.yul\":27177:27179   */\n      0x0e\n        /* \"#utility.yul\":27172:27175   */\n      dup4\n        /* \"#utility.yul\":27113:27180   */\n      tag_329\n      jump\t// in\n    tag_606:\n        /* \"#utility.yul\":27106:27180   */\n      swap2\n      pop\n        /* \"#utility.yul\":27189:27282   */\n      tag_607\n        /* \"#utility.yul\":27278:27281   */\n      dup3\n        /* \"#utility.yul\":27189:27282   */\n      tag_363\n      jump\t// in\n    tag_607:\n        /* \"#utility.yul\":27307:27309   */\n      0x20\n        /* \"#utility.yul\":27302:27305   */\n      dup3\n        /* \"#utility.yul\":27298:27310   */\n      add\n        /* \"#utility.yul\":27291:27310   */\n      swap1\n      pop\n        /* \"#utility.yul\":26950:27316   */\n      swap2\n      swap1\n      pop\n      jump\t// out\n        /* \"#utility.yul\":27322:27741   */\n    tag_205:\n        /* \"#utility.yul\":27488:27492   */\n      0x00\n        /* \"#utility.yul\":27526:27528   */\n      0x20\n        /* \"#utility.yul\":27515:27524   */\n      dup3\n        /* \"#utility.yul\":27511:27529   */\n      add\n        /* \"#utility.yul\":27503:27529   */\n      swap1\n      pop\n        /* \"#utility.yul\":27575:27584   */\n      dup2\n        /* \"#utility.yul\":27569:27573   */\n      dup2\n        /* \"#utility.yul\":27565:27585   */\n      sub\n        /* \"#utility.yul\":27561:27562   */\n      0x00\n        /* \"#utility.yul\":27550:27559   */\n      dup4\n        /* \"#utility.yul\":27546:27563   */\n      add\n        /* \"#utility.yul\":27539:27586   */\n      mstore\n        /* \"#utility.yul\":27603:27734   */\n      tag_609\n        /* \"#utility.yul\":27729:27733   */\n      dup2\n        /* \"#utility.yul\":27603:27734   */\n      tag_364\n      jump\t// in\n    tag_609:\n        /* \"#utility.yul\":27595:27734   */\n      swap1\n      pop\n        /* \"#utility.yul\":27322:27741   */\n      swap2\n      swap1\n      pop\n      jump\t// out\n        /* \"#utility.yul\":27747:27907   */\n    tag_365:\n        /* \"#utility.yul\":27887:27899   */\n      0x4e6f7465207370656e7400000000000000000000000000000000000000000000\n        /* \"#utility.yul\":27883:27884   */\n      0x00\n        /* \"#utility.yul\":27875:27881   */\n      dup3\n        /* \"#utility.yul\":27871:27885   */\n      add\n        /* \"#utility.yul\":27864:27900   */\n      mstore\n        /* \"#utility.yul\":27747:27907   */\n      pop\n      jump\t// out\n        /* \"#utility.yul\":27913:28279   */\n    tag_366:\n        /* \"#utility.yul\":28055:28058   */\n      0x00\n        /* \"#utility.yul\":28076:28143   */\n      tag_612\n        /* \"#utility.yul\":28140:28142   */\n      0x0a\n        /* \"#utility.yul\":28135:28138   */\n      dup4\n        /* \"#utility.yul\":28076:28143   */\n      tag_329\n      jump\t// in\n    tag_612:\n        /* \"#utility.yul\":28069:28143   */\n      swap2\n      pop\n        /* \"#utility.yul\":28152:28245   */\n      tag_613\n        /* \"#utility.yul\":28241:28244   */\n      dup3\n        /* \"#utility.yul\":28152:28245   */\n      tag_365\n      jump\t// in\n    tag_613:\n        /* \"#utility.yul\":28270:28272   */\n      0x20\n        /* \"#utility.yul\":28265:28268   */\n      dup3\n        /* \"#utility.yul\":28261:28273   */\n      add\n        /* \"#utility.yul\":28254:28273   */\n      swap1\n      pop\n        /* \"#utility.yul\":27913:28279   */\n      swap2\n      swap1\n      pop\n      jump\t// out\n        /* \"#utility.yul\":28285:28704   */\n    tag_208:\n        /* \"#utility.yul\":28451:28455   */\n      0x00\n        /* \"#utility.yul\":28489:28491   */\n      0x20\n        /* \"#utility.yul\":28478:28487   */\n      dup3\n        /* \"#utility.yul\":28474:28492   */\n      add\n        /* \"#utility.yul\":28466:28492   */\n      swap1\n      pop\n        /* \"#utility.yul\":28538:28547   */\n      dup2\n        /* \"#utility.yul\":28532:28536   */\n      dup2\n        /* \"#utility.yul\":28528:28548   */\n      sub\n        /* \"#utility.yul\":28524:28525   */\n      0x00\n        /* \"#utility.yul\":28513:28522   */\n      dup4\n        /* \"#utility.yul\":28509:28526   */\n      add\n        /* \"#utility.yul\":28502:28549   */\n      mstore\n        /* \"#utility.yul\":28566:28697   */\n      tag_615\n        /* \"#utility.yul\":28692:28696   */\n      dup2\n        /* \"#utility.yul\":28566:28697   */\n      tag_366\n      jump\t// in\n    tag_615:\n        /* \"#utility.yul\":28558:28697   */\n      swap1\n      pop\n        /* \"#utility.yul\":28285:28704   */\n      swap2\n      swap1\n      pop\n      jump\t// out\n        /* \"#utility.yul\":28710:28880   */\n    tag_367:\n        /* \"#utility.yul\":28850:28872   */\n      0x496e73756666696369656e742062616c616e6365000000000000000000000000\n        /* \"#utility.yul\":28846:28847   */\n      0x00\n        /* \"#utility.yul\":28838:28844   */\n      dup3\n        /* \"#utility.yul\":28834:28848   */\n      add\n        /* \"#utility.yul\":28827:28873   */\n      mstore\n        /* \"#utility.yul\":28710:28880   */\n      pop\n      jump\t// out\n        /* \"#utility.yul\":28886:29252   */\n    tag_368:\n        /* \"#utility.yul\":29028:29031   */\n      0x00\n        /* \"#utility.yul\":29049:29116   */\n      tag_618\n        /* \"#utility.yul\":29113:29115   */\n      0x14\n        /* \"#utility.yul\":29108:29111   */\n      dup4\n        /* \"#utility.yul\":29049:29116   */\n      tag_329\n      jump\t// in\n    tag_618:\n        /* \"#utility.yul\":29042:29116   */\n      swap2\n      pop\n        /* \"#utility.yul\":29125:29218   */\n      tag_619\n        /* \"#utility.yul\":29214:29217   */\n      dup3\n        /* \"#utility.yul\":29125:29218   */\n      tag_367\n      jump\t// in\n    tag_619:\n        /* \"#utility.yul\":29243:29245   */\n      0x20\n        /* \"#utility.yul\":29238:29241   */\n      dup3\n        /* \"#utility.yul\":29234:29246   */\n      add\n        /* \"#utility.yul\":29227:29246   */\n      swap1\n      pop\n        /* \"#utility.yul\":28886:29252   */\n      swap2\n      swap1\n      pop\n      jump\t// out\n        /* \"#utility.yul\":29258:29677   */\n    tag_211:\n        /* \"#utility.yul\":29424:29428   */\n      0x00\n        /* \"#utility.yul\":29462:29464   */\n      0x20\n        /* \"#utility.yul\":29451:29460   */\n      dup3\n        /* \"#utility.yul\":29447:29465   */\n      add\n        /* \"#utility.yul\":29439:29465   */\n      swap1\n      pop\n        /* \"#utility.yul\":29511:29520   */\n      dup2\n        /* \"#utility.yul\":29505:29509   */\n      dup2\n        /* \"#utility.yul\":29501:29521   */\n      sub\n        /* \"#utility.yul\":29497:29498   */\n      0x00\n        /* \"#utility.yul\":29486:29495   */\n      dup4\n        /* \"#utility.yul\":29482:29499   */\n      add\n        /* \"#utility.yul\":29475:29522   */\n      mstore\n        /* \"#utility.yul\":29539:29670   */\n      tag_621\n        /* \"#utility.yul\":29665:29669   */\n      dup2\n        /* \"#utility.yul\":29539:29670   */\n      tag_368\n      jump\t// in\n    tag_621:\n        /* \"#utility.yul\":29531:29670   */\n      swap1\n      pop\n        /* \"#utility.yul\":29258:29677   */\n      swap2\n      swap1\n      pop\n      jump\t// out\n        /* \"#utility.yul\":29683:30454   */\n    tag_215:\n        /* \"#utility.yul\":29916:29920   */\n      0x00\n        /* \"#utility.yul\":29954:29957   */\n      0xa0\n        /* \"#utility.yul\":29943:29952   */\n      dup3\n        /* \"#utility.yul\":29939:29958   */\n      add\n        /* \"#utility.yul\":29931:29958   */\n      swap1\n      pop\n        /* \"#utility.yul\":29968:30039   */\n      tag_623\n        /* \"#utility.yul\":30036:30037   */\n      0x00\n        /* \"#utility.yul\":30025:30034   */\n      dup4\n        /* \"#utility.yul\":30021:30038   */\n      add\n        /* \"#utility.yul\":30012:30018   */\n      dup10\n        /* \"#utility.yul\":29968:30039   */\n      tag_320\n      jump\t// in\n    tag_623:\n        /* \"#utility.yul\":30049:30121   */\n      tag_624\n        /* \"#utility.yul\":30117:30119   */\n      0x20\n        /* \"#utility.yul\":30106:30115   */\n      dup4\n        /* \"#utility.yul\":30102:30120   */\n      add\n        /* \"#utility.yul\":30093:30099   */\n      dup9\n        /* \"#utility.yul\":30049:30121   */\n      tag_320\n      jump\t// in\n    tag_624:\n        /* \"#utility.yul\":30131:30203   */\n      tag_625\n        /* \"#utility.yul\":30199:30201   */\n      0x40\n        /* \"#utility.yul\":30188:30197   */\n      dup4\n        /* \"#utility.yul\":30184:30202   */\n      add\n        /* \"#utility.yul\":30175:30181   */\n      dup8\n        /* \"#utility.yul\":30131:30203   */\n      tag_321\n      jump\t// in\n    tag_625:\n        /* \"#utility.yul\":30213:30285   */\n      tag_626\n        /* \"#utility.yul\":30281:30283   */\n      0x60\n        /* \"#utility.yul\":30270:30279   */\n      dup4\n        /* \"#utility.yul\":30266:30284   */\n      add\n        /* \"#utility.yul\":30257:30263   */\n      dup7\n        /* \"#utility.yul\":30213:30285   */\n      tag_296\n      jump\t// in\n    tag_626:\n        /* \"#utility.yul\":30333:30342   */\n      dup2\n        /* \"#utility.yul\":30327:30331   */\n      dup2\n        /* \"#utility.yul\":30323:30343   */\n      sub\n        /* \"#utility.yul\":30317:30320   */\n      0x80\n        /* \"#utility.yul\":30306:30315   */\n      dup4\n        /* \"#utility.yul\":30302:30321   */\n      add\n        /* \"#utility.yul\":30295:30344   */\n      mstore\n        /* \"#utility.yul\":30361:30447   */\n      tag_627\n        /* \"#utility.yul\":30442:30446   */\n      dup2\n        /* \"#utility.yul\":30433:30439   */\n      dup5\n        /* \"#utility.yul\":30425:30431   */\n      dup7\n        /* \"#utility.yul\":30361:30447   */\n      tag_343\n      jump\t// in\n    tag_627:\n        /* \"#utility.yul\":30353:30447   */\n      swap1\n      pop\n        /* \"#utility.yul\":29683:30454   */\n      swap8\n      swap7\n      pop\n      pop\n      pop\n      pop\n      pop\n      pop\n      pop\n      jump\t// out\n        /* \"#utility.yul\":30460:30792   */\n    tag_226:\n        /* \"#utility.yul\":30581:30585   */\n      0x00\n        /* \"#utility.yul\":30619:30621   */\n      0x40\n        /* \"#utility.yul\":30608:30617   */\n      dup3\n        /* \"#utility.yul\":30604:30622   */\n      add\n        /* \"#utility.yul\":30596:30622   */\n      swap1\n      pop\n        /* \"#utility.yul\":30632:30703   */\n      tag_629\n        /* \"#utility.yul\":30700:30701   */\n      0x00\n        /* \"#utility.yul\":30689:30698   */\n      dup4\n        /* \"#utility.yul\":30685:30702   */\n      add\n        /* \"#utility.yul\":30676:30682   */\n      dup6\n        /* \"#utility.yul\":30632:30703   */\n      tag_321\n      jump\t// in\n    tag_629:\n        /* \"#utility.yul\":30713:30785   */\n      tag_630\n        /* \"#utility.yul\":30781:30783   */\n      0x20\n        /* \"#utility.yul\":30770:30779   */\n      dup4\n        /* \"#utility.yul\":30766:30784   */\n      add\n        /* \"#utility.yul\":30757:30763   */\n      dup5\n        /* \"#utility.yul\":30713:30785   */\n      tag_296\n      jump\t// in\n    tag_630:\n        /* \"#utility.yul\":30460:30792   */\n      swap4\n      swap3\n      pop\n      pop\n      pop\n      jump\t// out\n        /* \"#utility.yul\":30798:30958   */\n    tag_369:\n        /* \"#utility.yul\":30938:30950   */\n      0x4e6f2062616c616e636500000000000000000000000000000000000000000000\n        /* \"#utility.yul\":30934:30935   */\n      0x00\n        /* \"#utility.yul\":30926:30932   */\n      dup3\n        /* \"#utility.yul\":30922:30936   */\n      add\n        /* \"#utility.yul\":30915:30951   */\n      mstore\n        /* \"#utility.yul\":30798:30958   */\n      pop\n      jump\t// out\n        /* \"#utility.yul\":30964:31330   */\n    tag_370:\n        /* \"#utility.yul\":31106:31109   */\n      0x00\n        /* \"#utility.yul\":31127:31194   */\n      tag_633\n        /* \"#utility.yul\":31191:31193   */\n      0x0a\n        /* \"#utility.yul\":31186:31189   */\n      dup4\n        /* \"#utility.yul\":31127:31194   */\n      tag_329\n      jump\t// in\n    tag_633:\n        /* \"#utility.yul\":31120:31194   */\n      swap2\n      pop\n        /* \"#utility.yul\":31203:31296   */\n      tag_634\n        /* \"#utility.yul\":31292:31295   */\n      dup3\n        /* \"#utility.yul\":31203:31296   */\n      tag_369\n      jump\t// in\n    tag_634:\n        /* \"#utility.yul\":31321:31323   */\n      0x20\n        /* \"#utility.yul\":31316:31319   */\n      dup3\n        /* \"#utility.yul\":31312:31324   */\n      add\n        /* \"#utility.yul\":31305:31324   */\n      swap1\n      pop\n        /* \"#utility.yul\":30964:31330   */\n      swap2\n      swap1\n      pop\n      jump\t// out\n        /* \"#utility.yul\":31336:31755   */\n    tag_250:\n        /* \"#utility.yul\":31502:31506   */\n      0x00\n        /* \"#utility.yul\":31540:31542   */\n      0x20\n        /* \"#utility.yul\":31529:31538   */\n      dup3\n        /* \"#utility.yul\":31525:31543   */\n      add\n        /* \"#utility.yul\":31517:31543   */\n      swap1\n      pop\n        /* \"#utility.yul\":31589:31598   */\n      dup2\n        /* \"#utility.yul\":31583:31587   */\n      dup2\n        /* \"#utility.yul\":31579:31599   */\n      sub\n        /* \"#utility.yul\":31575:31576   */\n      0x00\n        /* \"#utility.yul\":31564:31573   */\n      dup4\n        /* \"#utility.yul\":31560:31577   */\n      add\n        /* \"#utility.yul\":31553:31600   */\n      mstore\n        /* \"#utility.yul\":31617:31748   */\n      tag_636\n        /* \"#utility.yul\":31743:31747   */\n      dup2\n        /* \"#utility.yul\":31617:31748   */\n      tag_370\n      jump\t// in\n    tag_636:\n        /* \"#utility.yul\":31609:31748   */\n      swap1\n      pop\n        /* \"#utility.yul\":31336:31755   */\n      swap2\n      swap1\n      pop\n      jump\t// out\n\n    auxdata: 0xa26469706673582212203fa8920b56211b1dd08ca50321b973df946b67d1762018ef7506ab04708f79b264736f6c634300081a0033\n}\n",
				"bytecode": {
					"linkReferences": {},
					"object": "608060405234801561000f575f80fd5b50604051612c2f380380612c2f83398181016040528101906100319190610356565b805f73ffffffffffffffffffffffffffffffffffffffff168173ffffffffffffffffffffffffffffffffffffffff16036100a2575f6040517f1e4fbdf700000000000000000000000000000000000000000000000000000000815260040161009991906103b5565b60405180910390fd5b6100b18161023760201b60201c565b50600180819055505f60025f6101000a81548160ff0219169083151502179055505f73ffffffffffffffffffffffffffffffffffffffff168373ffffffffffffffffffffffffffffffffffffffff1603610140576040517f08c379a000000000000000000000000000000000000000000000000000000000815260040161013790610428565b60405180910390fd5b5f73ffffffffffffffffffffffffffffffffffffffff168273ffffffffffffffffffffffffffffffffffffffff16036101ae576040517f08c379a00000000000000000000000000000000000000000000000000000000081526004016101a590610490565b60405180910390fd5b8260035f6101000a81548173ffffffffffffffffffffffffffffffffffffffff021916908373ffffffffffffffffffffffffffffffffffffffff16021790555081600260016101000a81548173ffffffffffffffffffffffffffffffffffffffff021916908373ffffffffffffffffffffffffffffffffffffffff1602179055505050506104ae565b5f805f9054906101000a900473ffffffffffffffffffffffffffffffffffffffff169050815f806101000a81548173ffffffffffffffffffffffffffffffffffffffff021916908373ffffffffffffffffffffffffffffffffffffffff1602179055508173ffffffffffffffffffffffffffffffffffffffff168173ffffffffffffffffffffffffffffffffffffffff167f8be0079c531659141344cd1fd0a4f28419497f9722a3daafe3b4186f6b6457e060405160405180910390a35050565b5f80fd5b5f73ffffffffffffffffffffffffffffffffffffffff82169050919050565b5f610325826102fc565b9050919050565b6103358161031b565b811461033f575f80fd5b50565b5f815190506103508161032c565b92915050565b5f805f6060848603121561036d5761036c6102f8565b5b5f61037a86828701610342565b935050602061038b86828701610342565b925050604061039c86828701610342565b9150509250925092565b6103af8161031b565b82525050565b5f6020820190506103c85f8301846103a6565b92915050565b5f82825260208201905092915050565b7f496e76616c696420746f6b656e206164647265737300000000000000000000005f82015250565b5f6104126015836103ce565b915061041d826103de565b602082019050919050565b5f6020820190508181035f83015261043f81610406565b9050919050565b7f496e76616c6964207665726966696572206164647265737300000000000000005f82015250565b5f61047a6018836103ce565b915061048582610446565b602082019050919050565b5f6020820190508181035f8301526104a78161046e565b9050919050565b612774806104bb5f395ff3fe608060405234801561000f575f80fd5b506004361061011f575f3560e01c80638456cb59116100ab578063db2e21bc1161006f578063db2e21bc146102d1578063dd5967c3146102db578063e1e158a5146102f9578063f2fde38b14610317578063fc0c546a146103335761011f565b80638456cb591461022957806385de26b7146102335780638da5cb5b146102675780639d280f5114610285578063b3f15741146102b55761011f565b80633f4ba83a116100f25780633f4ba83a146101ab5780635437988d146101b55780635c975abb146101d1578063715018a6146101ef5780637ecf686d146101f95761011f565b806312065fe0146101235780631acc84861461014157806322dc7b4c1461015d5780632b7ac3f31461018d575b5f80fd5b61012b610351565b6040516101389190611925565b60405180910390f35b61015b60048036038101906101569190611a04565b6103f0565b005b61017760048036038101906101729190611a75565b61097f565b6040516101849190611aba565b60405180910390f35b6101956109a5565b6040516101a29190611b4d565b60405180910390f35b6101b36109cb565b005b6101cf60048036038101906101ca9190611ba1565b6109dd565b005b6101d9610b23565b6040516101e69190611aba565b60405180910390f35b6101f7610b38565b005b610213600480360381019061020e9190611a75565b610b4b565b6040516102209190611aba565b60405180910390f35b610231610b68565b005b61024d60048036038101906102489190611a75565b610b7a565b60405161025e959493929190611bdb565b60405180910390f35b61026f610bb8565b60405161027c9190611c3b565b60405180910390f35b61029f600480360381019061029a9190611a75565b610bdf565b6040516102ac9190611ce7565b60405180910390f35b6102cf60048036038101906102ca9190611d00565b610c4b565b005b6102d9611319565b005b6102e361153b565b6040516102f09190611925565b60405180910390f35b610301611549565b60405161030e9190611925565b60405180910390f35b610331600480360381019061032c9190611ba1565b611550565b005b61033b6115d4565b6040516103489190611db6565b60405180910390f35b5f60035f9054906101000a900473ffffffffffffffffffffffffffffffffffffffff1673ffffffffffffffffffffffffffffffffffffffff166370a08231306040518263ffffffff1660e01b81526004016103ac9190611c3b565b602060405180830381865afa1580156103c7573d5f803e3d5ffd5b505050506040513d601f19601f820116820180604052508101906103eb9190611de3565b905090565b6103f86115f9565b61040061163f565b5f801b8403610444576040517f08c379a000000000000000000000000000000000000000000000000000000000815260040161043b90611e68565b60405180910390fd5b620f424083101561048a576040517f08c379a000000000000000000000000000000000000000000000000000000000815260040161048190611ed0565b60405180910390fd5b69d3c21bcecceda10000008311156104d7576040517f08c379a00000000000000000000000000000000000000000000000000000000081526004016104ce90611f38565b60405180910390fd5b5f801b60045f8681526020019081526020015f205f01541461052e576040517f08c379a000000000000000000000000000000000000000000000000000000000815260040161052590611fa0565b60405180910390fd5b5f8282905011610573576040517f08c379a000000000000000000000000000000000000000000000000000000000815260040161056a90612008565b60405180910390fd5b600260019054906101000a900473ffffffffffffffffffffffffffffffffffffffff1673ffffffffffffffffffffffffffffffffffffffff1663ebcb558485853386866040518663ffffffff1660e01b81526004016105d6959493929190612080565b602060405180830381865afa1580156105f1573d5f803e3d5ffd5b505050506040513d601f19601f8201168201806040525081019061061591906120f6565b610654576040517f08c379a000000000000000000000000000000000000000000000000000000000815260040161064b9061216b565b60405180910390fd5b5f60035f9054906101000a900473ffffffffffffffffffffffffffffffffffffffff1673ffffffffffffffffffffffffffffffffffffffff166370a08231306040518263ffffffff1660e01b81526004016106af9190611c3b565b602060405180830381865afa1580156106ca573d5f803e3d5ffd5b505050506040513d601f19601f820116820180604052508101906106ee9190611de3565b905060035f9054906101000a900473ffffffffffffffffffffffffffffffffffffffff1673ffffffffffffffffffffffffffffffffffffffff166323b872dd3330876040518463ffffffff1660e01b815260040161074e93929190612189565b6020604051808303815f875af115801561076a573d5f803e3d5ffd5b505050506040513d601f19601f8201168201806040525081019061078e91906120f6565b6107cd576040517f08c379a00000000000000000000000000000000000000000000000000000000081526004016107c490612208565b60405180910390fd5b83816107d99190612253565b60035f9054906101000a900473ffffffffffffffffffffffffffffffffffffffff1673ffffffffffffffffffffffffffffffffffffffff166370a08231306040518263ffffffff1660e01b81526004016108339190611c3b565b602060405180830381865afa15801561084e573d5f803e3d5ffd5b505050506040513d601f19601f820116820180604052508101906108729190611de3565b146108b2576040517f08c379a00000000000000000000000000000000000000000000000000000000081526004016108a9906122d0565b60405180910390fd5b6040518060a001604052808681526020015f801b81526020018581526020015f151581526020014281525060045f8781526020019081526020015f205f820151815f015560208201518160010155604082015181600201556060820151816003015f6101000a81548160ff02191690831515021790555060808201518160040155905050847f1ca12c4f007b87bb1429f9f86ac057e97667574f9f31be5b9c3ea6260e8872fe85426040516109689291906122ee565b60405180910390a250610979611680565b50505050565b5f60055f8381526020019081526020015f205f9054906101000a900460ff169050919050565b600260019054906101000a900473ffffffffffffffffffffffffffffffffffffffff1681565b6109d3611689565b6109db611710565b565b6109e5611689565b5f73ffffffffffffffffffffffffffffffffffffffff168173ffffffffffffffffffffffffffffffffffffffff1603610a53576040517f08c379a0000000000000000000000000000000000000000000000000000000008152600401610a4a9061235f565b60405180910390fd5b5f600260019054906101000a900473ffffffffffffffffffffffffffffffffffffffff16905081600260016101000a81548173ffffffffffffffffffffffffffffffffffffffff021916908373ffffffffffffffffffffffffffffffffffffffff1602179055508173ffffffffffffffffffffffffffffffffffffffff168173ffffffffffffffffffffffffffffffffffffffff167fd64ae07f3ddea489022b7c3651c0b93cc96296695feac84461061dfa1f34c0cb42604051610b179190611925565b60405180910390a35050565b5f60025f9054906101000a900460ff16905090565b610b40611689565b610b495f611771565b565b6005602052805f5260405f205f915054906101000a900460ff1681565b610b70611689565b610b78611832565b565b6004602052805f5260405f205f91509050805f015490806001015490806002015490806003015f9054906101000a900460ff16908060040154905085565b5f805f9054906101000a900473ffffffffffffffffffffffffffffffffffffffff16905090565b610be76118db565b60045f8381526020019081526020015f206040518060a00160405290815f82015481526020016001820154815260200160028201548152602001600382015f9054906101000a900460ff161515151581526020016004820154815250509050919050565b610c536115f9565b610c5b61163f565b5f801b8603610c9f576040517f08c379a0000000000000000000000000000000000000000000000000000000008152600401610c96906123c7565b60405180910390fd5b5f801b8503610ce3576040517f08c379a0000000000000000000000000000000000000000000000000000000008152600401610cda90611e68565b60405180910390fd5b5f73ffffffffffffffffffffffffffffffffffffffff168473ffffffffffffffffffffffffffffffffffffffff1603610d51576040517f08c379a0000000000000000000000000000000000000000000000000000000008152600401610d489061242f565b60405180910390fd5b5f8311610d93576040517f08c379a0000000000000000000000000000000000000000000000000000000008152600401610d8a90612497565b60405180910390fd5b60055f8781526020019081526020015f205f9054906101000a900460ff1615610df1576040517f08c379a0000000000000000000000000000000000000000000000000000000008152600401610de8906124ff565b60405180910390fd5b5f60045f8781526020019081526020015f2090505f801b815f015403610e4c576040517f08c379a0000000000000000000000000000000000000000000000000000000008152600401610e4390612567565b60405180910390fd5b806003015f9054906101000a900460ff1615610e9d576040517f08c379a0000000000000000000000000000000000000000000000000000000008152600401610e94906125cf565b60405180910390fd5b8060020154841115610ee4576040517f08c379a0000000000000000000000000000000000000000000000000000000008152600401610edb90612637565b60405180910390fd5b5f8383905011610f29576040517f08c379a0000000000000000000000000000000000000000000000000000000008152600401610f2090612008565b60405180910390fd5b600260019054906101000a900473ffffffffffffffffffffffffffffffffffffffff1673ffffffffffffffffffffffffffffffffffffffff1663c53ed3bf8888888888886040518763ffffffff1660e01b8152600401610f8e96959493929190612655565b602060405180830381865afa158015610fa9573d5f803e3d5ffd5b505050506040513d601f19601f82011682018060405250810190610fcd91906120f6565b61100c576040517f08c379a00000000000000000000000000000000000000000000000000000000081526004016110039061216b565b60405180910390fd5b600160055f8981526020019081526020015f205f6101000a81548160ff0219169083151502179055506001816003015f6101000a81548160ff0219169083151502179055508681600101819055505f60035f9054906101000a900473ffffffffffffffffffffffffffffffffffffffff1673ffffffffffffffffffffffffffffffffffffffff166370a08231876040518263ffffffff1660e01b81526004016110b59190611c3b565b602060405180830381865afa1580156110d0573d5f803e3d5ffd5b505050506040513d601f19601f820116820180604052508101906110f49190611de3565b905060035f9054906101000a900473ffffffffffffffffffffffffffffffffffffffff1673ffffffffffffffffffffffffffffffffffffffff1663a9059cbb87876040518363ffffffff1660e01b81526004016111529291906126af565b6020604051808303815f875af115801561116e573d5f803e3d5ffd5b505050506040513d601f19601f8201168201806040525081019061119291906120f6565b6111d1576040517f08c379a00000000000000000000000000000000000000000000000000000000081526004016111c890612208565b60405180910390fd5b84816111dd9190612253565b60035f9054906101000a900473ffffffffffffffffffffffffffffffffffffffff1673ffffffffffffffffffffffffffffffffffffffff166370a08231886040518263ffffffff1660e01b81526004016112379190611c3b565b602060405180830381865afa158015611252573d5f803e3d5ffd5b505050506040513d601f19601f820116820180604052508101906112769190611de3565b146112b6576040517f08c379a00000000000000000000000000000000000000000000000000000000081526004016112ad906122d0565b60405180910390fd5b8573ffffffffffffffffffffffffffffffffffffffff16887f66f083a4c3ed4eec4e232ae3e65a14e7704192e147f54ed38a55600500bc368f87426040516112ff9291906122ee565b60405180910390a35050611311611680565b505050505050565b611321611689565b5f60035f9054906101000a900473ffffffffffffffffffffffffffffffffffffffff1673ffffffffffffffffffffffffffffffffffffffff166370a08231306040518263ffffffff1660e01b815260040161137c9190611c3b565b602060405180830381865afa158015611397573d5f803e3d5ffd5b505050506040513d601f19601f820116820180604052508101906113bb9190611de3565b90505f81116113ff576040517f08c379a00000000000000000000000000000000000000000000000000000000081526004016113f690612720565b60405180910390fd5b60035f9054906101000a900473ffffffffffffffffffffffffffffffffffffffff1673ffffffffffffffffffffffffffffffffffffffff1663a9059cbb611444610bb8565b836040518363ffffffff1660e01b81526004016114629291906126af565b6020604051808303815f875af115801561147e573d5f803e3d5ffd5b505050506040513d601f19601f820116820180604052508101906114a291906120f6565b6114e1576040517f08c379a00000000000000000000000000000000000000000000000000000000081526004016114d890612208565b60405180910390fd5b6114e9610bb8565b73ffffffffffffffffffffffffffffffffffffffff167f56da9a5ae0bcf6e7c3fdd78a10550e7d0458de1c39bfb7f6e96a3e92dd344a6882426040516115309291906122ee565b60405180910390a250565b69d3c21bcecceda100000081565b620f424081565b611558611689565b5f73ffffffffffffffffffffffffffffffffffffffff168173ffffffffffffffffffffffffffffffffffffffff16036115c8575f6040517f1e4fbdf70000000000000000000000000000000000000000000000000000000081526004016115bf9190611c3b565b60405180910390fd5b6115d181611771565b50565b60035f9054906101000a900473ffffffffffffffffffffffffffffffffffffffff1681565b600260015403611635576040517f3ee5aeb500000000000000000000000000000000000000000000000000000000815260040160405180910390fd5b6002600181905550565b611647610b23565b1561167e576040517fd93c066500000000000000000000000000000000000000000000000000000000815260040160405180910390fd5b565b60018081905550565b611691611894565b73ffffffffffffffffffffffffffffffffffffffff166116af610bb8565b73ffffffffffffffffffffffffffffffffffffffff161461170e576116d2611894565b6040517f118cdaa70000000000000000000000000000000000000000000000000000000081526004016117059190611c3b565b60405180910390fd5b565b61171861189b565b5f60025f6101000a81548160ff0219169083151502179055507f5db9ee0a495bf2e6ff9c91a7834c1ba4fdd244a5e8aa4e537bd38aeae4b073aa61175a611894565b6040516117679190611c3b565b60405180910390a1565b5f805f9054906101000a900473ffffffffffffffffffffffffffffffffffffffff169050815f806101000a81548173ffffffffffffffffffffffffffffffffffffffff021916908373ffffffffffffffffffffffffffffffffffffffff1602179055508173ffffffffffffffffffffffffffffffffffffffff168173ffffffffffffffffffffffffffffffffffffffff167f8be0079c531659141344cd1fd0a4f28419497f9722a3daafe3b4186f6b6457e060405160405180910390a35050565b61183a61163f565b600160025f6101000a81548160ff0219169083151502179055507f62e78cea01bee320cd4e420270b5ea74000d11b0c9f74754ebdbfc544b05a25861187d611894565b60405161188a9190611c3b565b60405180910390a1565b5f33905090565b6118a3610b23565b6118d9576040517f8dfc202b00000000000000000000000000000000000000000000000000000000815260040160405180910390fd5b565b6040518060a001604052805f80191681526020015f80191681526020015f81526020015f151581526020015f81525090565b5f819050919050565b61191f8161190d565b82525050565b5f6020820190506119385f830184611916565b92915050565b5f80fd5b5f80fd5b5f819050919050565b61195881611946565b8114611962575f80fd5b50565b5f813590506119738161194f565b92915050565b6119828161190d565b811461198c575f80fd5b50565b5f8135905061199d81611979565b92915050565b5f80fd5b5f80fd5b5f80fd5b5f8083601f8401126119c4576119c36119a3565b5b8235905067ffffffffffffffff8111156119e1576119e06119a7565b5b6020830191508360018202830111156119fd576119fc6119ab565b5b9250929050565b5f805f8060608587031215611a1c57611a1b61193e565b5b5f611a2987828801611965565b9450506020611a3a8782880161198f565b935050604085013567ffffffffffffffff811115611a5b57611a5a611942565b5b611a67878288016119af565b925092505092959194509250565b5f60208284031215611a8a57611a8961193e565b5b5f611a9784828501611965565b91505092915050565b5f8115159050919050565b611ab481611aa0565b82525050565b5f602082019050611acd5f830184611aab565b92915050565b5f73ffffffffffffffffffffffffffffffffffffffff82169050919050565b5f819050919050565b5f611b15611b10611b0b84611ad3565b611af2565b611ad3565b9050919050565b5f611b2682611afb565b9050919050565b5f611b3782611b1c565b9050919050565b611b4781611b2d565b82525050565b5f602082019050611b605f830184611b3e565b92915050565b5f611b7082611ad3565b9050919050565b611b8081611b66565b8114611b8a575f80fd5b50565b5f81359050611b9b81611b77565b92915050565b5f60208284031215611bb657611bb561193e565b5b5f611bc384828501611b8d565b91505092915050565b611bd581611946565b82525050565b5f60a082019050611bee5f830188611bcc565b611bfb6020830187611bcc565b611c086040830186611916565b611c156060830185611aab565b611c226080830184611916565b9695505050505050565b611c3581611b66565b82525050565b5f602082019050611c4e5f830184611c2c565b92915050565b611c5d81611946565b82525050565b611c6c8161190d565b82525050565b611c7b81611aa0565b82525050565b60a082015f820151611c955f850182611c54565b506020820151611ca86020850182611c54565b506040820151611cbb6040850182611c63565b506060820151611cce6060850182611c72565b506080820151611ce16080850182611c63565b50505050565b5f60a082019050611cfa5f830184611c81565b92915050565b5f805f805f8060a08789031215611d1a57611d1961193e565b5b5f611d2789828a01611965565b9650506020611d3889828a01611965565b9550506040611d4989828a01611b8d565b9450506060611d5a89828a0161198f565b935050608087013567ffffffffffffffff811115611d7b57611d7a611942565b5b611d8789828a016119af565b92509250509295509295509295565b5f611da082611b1c565b9050919050565b611db081611d96565b82525050565b5f602082019050611dc95f830184611da7565b92915050565b5f81519050611ddd81611979565b92915050565b5f60208284031215611df857611df761193e565b5b5f611e0584828501611dcf565b91505092915050565b5f82825260208201905092915050565b7f496e76616c696420636f6d6d69746d656e7400000000000000000000000000005f82015250565b5f611e52601283611e0e565b9150611e5d82611e1e565b602082019050919050565b5f6020820190508181035f830152611e7f81611e46565b9050919050565b7f416d6f756e742062656c6f77206d696e696d756d0000000000000000000000005f82015250565b5f611eba601483611e0e565b9150611ec582611e86565b602082019050919050565b5f6020820190508181035f830152611ee781611eae565b9050919050565b7f416d6f756e742061626f7665206d6178696d756d0000000000000000000000005f82015250565b5f611f22601483611e0e565b9150611f2d82611eee565b602082019050919050565b5f6020820190508181035f830152611f4f81611f16565b9050919050565b7f436f6d6d69746d656e74206578697374730000000000000000000000000000005f82015250565b5f611f8a601183611e0e565b9150611f9582611f56565b602082019050919050565b5f6020820190508181035f830152611fb781611f7e565b9050919050565b7f456d7074792070726f6f660000000000000000000000000000000000000000005f82015250565b5f611ff2600b83611e0e565b9150611ffd82611fbe565b602082019050919050565b5f6020820190508181035f83015261201f81611fe6565b9050919050565b5f82825260208201905092915050565b828183375f83830152505050565b5f601f19601f8301169050919050565b5f61205f8385612026565b935061206c838584612036565b61207583612044565b840190509392505050565b5f6080820190506120935f830188611bcc565b6120a06020830187611916565b6120ad6040830186611c2c565b81810360608301526120c0818486612054565b90509695505050505050565b6120d581611aa0565b81146120df575f80fd5b50565b5f815190506120f0816120cc565b92915050565b5f6020828403121561210b5761210a61193e565b5b5f612118848285016120e2565b91505092915050565b7f496e76616c69642070726f6f66000000000000000000000000000000000000005f82015250565b5f612155600d83611e0e565b915061216082612121565b602082019050919050565b5f6020820190508181035f83015261218281612149565b9050919050565b5f60608201905061219c5f830186611c2c565b6121a96020830185611c2c565b6121b66040830184611916565b949350505050565b7f5472616e73666572206661696c656400000000000000000000000000000000005f82015250565b5f6121f2600f83611e0e565b91506121fd826121be565b602082019050919050565b5f6020820190508181035f83015261221f816121e6565b9050919050565b7f4e487b71000000000000000000000000000000000000000000000000000000005f52601160045260245ffd5b5f61225d8261190d565b91506122688361190d565b92508282019050808211156122805761227f612226565b5b92915050565b7f496e76616c6964207472616e7366657220616d6f756e740000000000000000005f82015250565b5f6122ba601783611e0e565b91506122c582612286565b602082019050919050565b5f6020820190508181035f8301526122e7816122ae565b9050919050565b5f6040820190506123015f830185611916565b61230e6020830184611916565b9392505050565b7f496e76616c6964207665726966696572206164647265737300000000000000005f82015250565b5f612349601883611e0e565b915061235482612315565b602082019050919050565b5f6020820190508181035f8301526123768161233d565b9050919050565b7f496e76616c6964206e756c6c69666965720000000000000000000000000000005f82015250565b5f6123b1601183611e0e565b91506123bc8261237d565b602082019050919050565b5f6020820190508181035f8301526123de816123a5565b9050919050565b7f496e76616c696420726563697069656e740000000000000000000000000000005f82015250565b5f612419601183611e0e565b9150612424826123e5565b602082019050919050565b5f6020820190508181035f8301526124468161240d565b9050919050565b7f496e76616c696420616d6f756e740000000000000000000000000000000000005f82015250565b5f612481600e83611e0e565b915061248c8261244d565b602082019050919050565b5f6020820190508181035f8301526124ae81612475565b9050919050565b7f4e756c6c696669657220757365640000000000000000000000000000000000005f82015250565b5f6124e9600e83611e0e565b91506124f4826124b5565b602082019050919050565b5f6020820190508181035f830152612516816124dd565b9050919050565b7f4e6f7465206e6f7420666f756e640000000000000000000000000000000000005f82015250565b5f612551600e83611e0e565b915061255c8261251d565b602082019050919050565b5f6020820190508181035f83015261257e81612545565b9050919050565b7f4e6f7465207370656e74000000000000000000000000000000000000000000005f82015250565b5f6125b9600a83611e0e565b91506125c482612585565b602082019050919050565b5f6020820190508181035f8301526125e6816125ad565b9050919050565b7f496e73756666696369656e742062616c616e63650000000000000000000000005f82015250565b5f612621601483611e0e565b915061262c826125ed565b602082019050919050565b5f6020820190508181035f83015261264e81612615565b9050919050565b5f60a0820190506126685f830189611bcc565b6126756020830188611bcc565b6126826040830187611c2c565b61268f6060830186611916565b81810360808301526126a2818486612054565b9050979650505050505050565b5f6040820190506126c25f830185611c2c565b6126cf6020830184611916565b9392505050565b7f4e6f2062616c616e6365000000000000000000000000000000000000000000005f82015250565b5f61270a600a83611e0e565b9150612715826126d6565b602082019050919050565b5f6020820190508181035f830152612737816126fe565b905091905056fea26469706673582212203fa8920b56211b1dd08ca50321b973df946b67d1762018ef7506ab04708f79b264736f6c634300081a0033",
					"opcodes": "PUSH1 0x80 PUSH1 0x40 MSTORE CALLVALUE DUP1 ISZERO PUSH2 0xF JUMPI PUSH0 DUP1 REVERT JUMPDEST POP PUSH1 0x40 MLOAD PUSH2 0x2C2F CODESIZE SUB DUP1 PUSH2 0x2C2F DUP4 CODECOPY DUP2 DUP2 ADD PUSH1 0x40 MSTORE DUP2 ADD SWAP1 PUSH2 0x31 SWAP2 SWAP1 PUSH2 0x356 JUMP JUMPDEST DUP1 PUSH0 PUSH20 0xFFFFFFFFFFFFFFFFFFFFFFFFFFFFFFFFFFFFFFFF AND DUP2 PUSH20 0xFFFFFFFFFFFFFFFFFFFFFFFFFFFFFFFFFFFFFFFF AND SUB PUSH2 0xA2 JUMPI PUSH0 PUSH1 0x40 MLOAD PUSH32 0x1E4FBDF700000000000000000000000000000000000000000000000000000000 DUP2 MSTORE PUSH1 0x4 ADD PUSH2 0x99 SWAP2 SWAP1 PUSH2 0x3B5 JUMP JUMPDEST PUSH1 0x40 MLOAD DUP1 SWAP2 SUB SWAP1 REVERT JUMPDEST PUSH2 0xB1 DUP2 PUSH2 0x237 PUSH1 0x20 SHL PUSH1 0x20 SHR JUMP JUMPDEST POP PUSH1 0x1 DUP1 DUP2 SWAP1 SSTORE POP PUSH0 PUSH1 0x2 PUSH0 PUSH2 0x100 EXP DUP2 SLOAD DUP2 PUSH1 0xFF MUL NOT AND SWAP1 DUP4 ISZERO ISZERO MUL OR SWAP1 SSTORE POP PUSH0 PUSH20 0xFFFFFFFFFFFFFFFFFFFFFFFFFFFFFFFFFFFFFFFF AND DUP4 PUSH20 0xFFFFFFFFFFFFFFFFFFFFFFFFFFFFFFFFFFFFFFFF AND SUB PUSH2 0x140 JUMPI PUSH1 0x40 MLOAD PUSH32 0x8C379A000000000000000000000000000000000000000000000000000000000 DUP2 MSTORE PUSH1 0x4 ADD PUSH2 0x137 SWAP1 PUSH2 0x428 JUMP JUMPDEST PUSH1 0x40 MLOAD DUP1 SWAP2 SUB SWAP1 REVERT JUMPDEST PUSH0 PUSH20 0xFFFFFFFFFFFFFFFFFFFFFFFFFFFFFFFFFFFFFFFF AND DUP3 PUSH20 0xFFFFFFFFFFFFFFFFFFFFFFFFFFFFFFFFFFFFFFFF AND SUB PUSH2 0x1AE JUMPI PUSH1 0x40 MLOAD PUSH32 0x8C379A000000000000000000000000000000000000000000000000000000000 DUP2 MSTORE PUSH1 0x4 ADD PUSH2 0x1A5 SWAP1 PUSH2 0x490 JUMP JUMPDEST PUSH1 0x40 MLOAD DUP1 SWAP2 SUB SWAP1 REVERT JUMPDEST DUP3 PUSH1 0x3 PUSH0 PUSH2 0x100 EXP DUP2 SLOAD DUP2 PUSH20 0xFFFFFFFFFFFFFFFFFFFFFFFFFFFFFFFFFFFFFFFF MUL NOT AND SWAP1 DUP4 PUSH20 0xFFFFFFFFFFFFFFFFFFFFFFFFFFFFFFFFFFFFFFFF AND MUL OR SWAP1 SSTORE POP DUP2 PUSH1 0x2 PUSH1 0x1 PUSH2 0x100 EXP DUP2 SLOAD DUP2 PUSH20 0xFFFFFFFFFFFFFFFFFFFFFFFFFFFFFFFFFFFFFFFF MUL NOT AND SWAP1 DUP4 PUSH20 0xFFFFFFFFFFFFFFFFFFFFFFFFFFFFFFFFFFFFFFFF AND MUL OR SWAP1 SSTORE POP POP POP POP PUSH2 0x4AE JUMP JUMPDEST PUSH0 DUP1 PUSH0 SWAP1 SLOAD SWAP1 PUSH2 0x100 EXP SWAP1 DIV PUSH20 0xFFFFFFFFFFFFFFFFFFFFFFFFFFFFFFFFFFFFFFFF AND SWAP1 POP DUP2 PUSH0 DUP1 PUSH2 0x100 EXP DUP2 SLOAD DUP2 PUSH20 0xFFFFFFFFFFFFFFFFFFFFFFFFFFFFFFFFFFFFFFFF MUL NOT AND SWAP1 DUP4 PUSH20 0xFFFFFFFFFFFFFFFFFFFFFFFFFFFFFFFFFFFFFFFF AND MUL OR SWAP1 SSTORE POP DUP2 PUSH20 0xFFFFFFFFFFFFFFFFFFFFFFFFFFFFFFFFFFFFFFFF AND DUP2 PUSH20 0xFFFFFFFFFFFFFFFFFFFFFFFFFFFFFFFFFFFFFFFF AND PUSH32 0x8BE0079C531659141344CD1FD0A4F28419497F9722A3DAAFE3B4186F6B6457E0 PUSH1 0x40 MLOAD PUSH1 0x40 MLOAD DUP1 SWAP2 SUB SWAP1 LOG3 POP POP JUMP JUMPDEST PUSH0 DUP1 REVERT JUMPDEST PUSH0 PUSH20 0xFFFFFFFFFFFFFFFFFFFFFFFFFFFFFFFFFFFFFFFF DUP3 AND SWAP1 POP SWAP2 SWAP1 POP JUMP JUMPDEST PUSH0 PUSH2 0x325 DUP3 PUSH2 0x2FC JUMP JUMPDEST SWAP1 POP SWAP2 SWAP1 POP JUMP JUMPDEST PUSH2 0x335 DUP2 PUSH2 0x31B JUMP JUMPDEST DUP2 EQ PUSH2 0x33F JUMPI PUSH0 DUP1 REVERT JUMPDEST POP JUMP JUMPDEST PUSH0 DUP2 MLOAD SWAP1 POP PUSH2 0x350 DUP2 PUSH2 0x32C JUMP JUMPDEST SWAP3 SWAP2 POP POP JUMP JUMPDEST PUSH0 DUP1 PUSH0 PUSH1 0x60 DUP5 DUP7 SUB SLT ISZERO PUSH2 0x36D JUMPI PUSH2 0x36C PUSH2 0x2F8 JUMP JUMPDEST JUMPDEST PUSH0 PUSH2 0x37A DUP7 DUP3 DUP8 ADD PUSH2 0x342 JUMP JUMPDEST SWAP4 POP POP PUSH1 0x20 PUSH2 0x38B DUP7 DUP3 DUP8 ADD PUSH2 0x342 JUMP JUMPDEST SWAP3 POP POP PUSH1 0x40 PUSH2 0x39C DUP7 DUP3 DUP8 ADD PUSH2 0x342 JUMP JUMPDEST SWAP2 POP POP SWAP3 POP SWAP3 POP SWAP3 JUMP JUMPDEST PUSH2 0x3AF DUP2 PUSH2 0x31B JUMP JUMPDEST DUP3 MSTORE POP POP JUMP JUMPDEST PUSH0 PUSH1 0x20 DUP3 ADD SWAP1 POP PUSH2 0x3C8 PUSH0 DUP4 ADD DUP5 PUSH2 0x3A6 JUMP JUMPDEST SWAP3 SWAP2 POP POP JUMP JUMPDEST PUSH0 DUP3 DUP3 MSTORE PUSH1 0x20 DUP3 ADD SWAP1 POP SWAP3 SWAP2 POP POP JUMP JUMPDEST PUSH32 0x496E76616C696420746F6B656E20616464726573730000000000000000000000 PUSH0 DUP3 ADD MSTORE POP JUMP JUMPDEST PUSH0 PUSH2 0x412 PUSH1 0x15 DUP4 PUSH2 0x3CE JUMP JUMPDEST SWAP2 POP PUSH2 0x41D DUP3 PUSH2 0x3DE JUMP JUMPDEST PUSH1 0x20 DUP3 ADD SWAP1 POP SWAP2 SWAP1 POP JUMP JUMPDEST PUSH0 PUSH1 0x20 DUP3 ADD SWAP1 POP DUP2 DUP2 SUB PUSH0 DUP4 ADD MSTORE PUSH2 0x43F DUP2 PUSH2 0x406 JUMP JUMPDEST SWAP1 POP SWAP2 SWAP1 POP JUMP JUMPDEST PUSH32 0x496E76616C696420766572696669657220616464726573730000000000000000 PUSH0 DUP3 ADD MSTORE POP JUMP JUMPDEST PUSH0 PUSH2 0x47A PUSH1 0x18 DUP4 PUSH2 0x3CE JUMP JUMPDEST SWAP2 POP PUSH2 0x485 DUP3 PUSH2 0x446 JUMP JUMPDEST PUSH1 0x20 DUP3 ADD SWAP1 POP SWAP2 SWAP1 POP JUMP JUMPDEST PUSH0 PUSH1 0x20 DUP3 ADD SWAP1 POP DUP2 DUP2 SUB PUSH0 DUP4 ADD MSTORE PUSH2 0x4A7 DUP2 PUSH2 0x46E JUMP JUMPDEST SWAP1 POP SWAP2 SWAP1 POP JUMP JUMPDEST PUSH2 0x2774 DUP1 PUSH2 0x4BB PUSH0 CODECOPY PUSH0 RETURN INVALID PUSH1 0x80 PUSH1 0x40 MSTORE CALLVALUE DUP1 ISZERO PUSH2 0xF JUMPI PUSH0 DUP1 REVERT JUMPDEST POP PUSH1 0x4 CALLDATASIZE LT PUSH2 0x11F JUMPI PUSH0 CALLDATALOAD PUSH1 0xE0 SHR DUP1 PUSH4 0x8456CB59 GT PUSH2 0xAB JUMPI DUP1 PUSH4 0xDB2E21BC GT PUSH2 0x6F JUMPI DUP1 PUSH4 0xDB2E21BC EQ PUSH2 0x2D1 JUMPI DUP1 PUSH4 0xDD5967C3 EQ PUSH2 0x2DB JUMPI DUP1 PUSH4 0xE1E158A5 EQ PUSH2 0x2F9 JUMPI DUP1 PUSH4 0xF2FDE38B EQ PUSH2 0x317 JUMPI DUP1 PUSH4 0xFC0C546A EQ PUSH2 0x333 JUMPI PUSH2 0x11F JUMP JUMPDEST DUP1 PUSH4 0x8456CB59 EQ PUSH2 0x229 JUMPI DUP1 PUSH4 0x85DE26B7 EQ PUSH2 0x233 JUMPI DUP1 PUSH4 0x8DA5CB5B EQ PUSH2 0x267 JUMPI DUP1 PUSH4 0x9D280F51 EQ PUSH2 0x285 JUMPI DUP1 PUSH4 0xB3F15741 EQ PUSH2 0x2B5 JUMPI PUSH2 0x11F JUMP JUMPDEST DUP1 PUSH4 0x3F4BA83A GT PUSH2 0xF2 JUMPI DUP1 PUSH4 0x3F4BA83A EQ PUSH2 0x1AB JUMPI DUP1 PUSH4 0x5437988D EQ PUSH2 0x1B5 JUMPI DUP1 PUSH4 0x5C975ABB EQ PUSH2 0x1D1 JUMPI DUP1 PUSH4 0x715018A6 EQ PUSH2 0x1EF JUMPI DUP1 PUSH4 0x7ECF686D EQ PUSH2 0x1F9 JUMPI PUSH2 0x11F JUMP JUMPDEST DUP1 PUSH4 0x12065FE0 EQ PUSH2 0x123 JUMPI DUP1 PUSH4 0x1ACC8486 EQ PUSH2 0x141 JUMPI DUP1 PUSH4 0x22DC7B4C EQ PUSH2 0x15D JUMPI DUP1 PUSH4 0x2B7AC3F3 EQ PUSH2 0x18D JUMPI JUMPDEST PUSH0 DUP1 REVERT JUMPDEST PUSH2 0x12B PUSH2 0x351 JUMP JUMPDEST PUSH1 0x40 MLOAD PUSH2 0x138 SWAP2 SWAP1 PUSH2 0x1925 JUMP JUMPDEST PUSH1 0x40 MLOAD DUP1 SWAP2 SUB SWAP1 RETURN JUMPDEST PUSH2 0x15B PUSH1 0x4 DUP1 CALLDATASIZE SUB DUP2 ADD SWAP1 PUSH2 0x156 SWAP2 SWAP1 PUSH2 0x1A04 JUMP JUMPDEST PUSH2 0x3F0 JUMP JUMPDEST STOP JUMPDEST PUSH2 0x177 PUSH1 0x4 DUP1 CALLDATASIZE SUB DUP2 ADD SWAP1 PUSH2 0x172 SWAP2 SWAP1 PUSH2 0x1A75 JUMP JUMPDEST PUSH2 0x97F JUMP JUMPDEST PUSH1 0x40 MLOAD PUSH2 0x184 SWAP2 SWAP1 PUSH2 0x1ABA JUMP JUMPDEST PUSH1 0x40 MLOAD DUP1 SWAP2 SUB SWAP1 RETURN JUMPDEST PUSH2 0x195 PUSH2 0x9A5 JUMP JUMPDEST PUSH1 0x40 MLOAD PUSH2 0x1A2 SWAP2 SWAP1 PUSH2 0x1B4D JUMP JUMPDEST PUSH1 0x40 MLOAD DUP1 SWAP2 SUB SWAP1 RETURN JUMPDEST PUSH2 0x1B3 PUSH2 0x9CB JUMP JUMPDEST STOP JUMPDEST PUSH2 0x1CF PUSH1 0x4 DUP1 CALLDATASIZE SUB DUP2 ADD SWAP1 PUSH2 0x1CA SWAP2 SWAP1 PUSH2 0x1BA1 JUMP JUMPDEST PUSH2 0x9DD JUMP JUMPDEST STOP JUMPDEST PUSH2 0x1D9 PUSH2 0xB23 JUMP JUMPDEST PUSH1 0x40 MLOAD PUSH2 0x1E6 SWAP2 SWAP1 PUSH2 0x1ABA JUMP JUMPDEST PUSH1 0x40 MLOAD DUP1 SWAP2 SUB SWAP1 RETURN JUMPDEST PUSH2 0x1F7 PUSH2 0xB38 JUMP JUMPDEST STOP JUMPDEST PUSH2 0x213 PUSH1 0x4 DUP1 CALLDATASIZE SUB DUP2 ADD SWAP1 PUSH2 0x20E SWAP2 SWAP1 PUSH2 0x1A75 JUMP JUMPDEST PUSH2 0xB4B JUMP JUMPDEST PUSH1 0x40 MLOAD PUSH2 0x220 SWAP2 SWAP1 PUSH2 0x1ABA JUMP JUMPDEST PUSH1 0x40 MLOAD DUP1 SWAP2 SUB SWAP1 RETURN JUMPDEST PUSH2 0x231 PUSH2 0xB68 JUMP JUMPDEST STOP JUMPDEST PUSH2 0x24D PUSH1 0x4 DUP1 CALLDATASIZE SUB DUP2 ADD SWAP1 PUSH2 0x248 SWAP2 SWAP1 PUSH2 0x1A75 JUMP JUMPDEST PUSH2 0xB7A JUMP JUMPDEST PUSH1 0x40 MLOAD PUSH2 0x25E SWAP6 SWAP5 SWAP4 SWAP3 SWAP2 SWAP1 PUSH2 0x1BDB JUMP JUMPDEST PUSH1 0x40 MLOAD DUP1 SWAP2 SUB SWAP1 RETURN JUMPDEST PUSH2 0x26F PUSH2 0xBB8 JUMP JUMPDEST PUSH1 0x40 MLOAD PUSH2 0x27C SWAP2 SWAP1 PUSH2 0x1C3B JUMP JUMPDEST PUSH1 0x40 MLOAD DUP1 SWAP2 SUB SWAP1 RETURN JUMPDEST PUSH2 0x29F PUSH1 0x4 DUP1 CALLDATASIZE SUB DUP2 ADD SWAP1 PUSH2 0x29A SWAP2 SWAP1 PUSH2 0x1A75 JUMP JUMPDEST PUSH2 0xBDF JUMP JUMPDEST PUSH1 0x40 MLOAD PUSH2 0x2AC SWAP2 SWAP1 PUSH2 0x1CE7 JUMP JUMPDEST PUSH1 0x40 MLOAD DUP1 SWAP2 SUB SWAP1 RETURN JUMPDEST PUSH2 0x2CF PUSH1 0x4 DUP1 CALLDATASIZE SUB DUP2 ADD SWAP1 PUSH2 0x2CA SWAP2 SWAP1 PUSH2 0x1D00 JUMP JUMPDEST PUSH2 0xC4B JUMP JUMPDEST STOP JUMPDEST PUSH2 0x2D9 PUSH2 0x1319 JUMP JUMPDEST STOP JUMPDEST PUSH2 0x2E3 PUSH2 0x153B JUMP JUMPDEST PUSH1 0x40 MLOAD PUSH2 0x2F0 SWAP2 SWAP1 PUSH2 0x1925 JUMP JUMPDEST PUSH1 0x40 MLOAD DUP1 SWAP2 SUB SWAP1 RETURN JUMPDEST PUSH2 0x301 PUSH2 0x1549 JUMP JUMPDEST PUSH1 0x40 MLOAD PUSH2 0x30E SWAP2 SWAP1 PUSH2 0x1925 JUMP JUMPDEST PUSH1 0x40 MLOAD DUP1 SWAP2 SUB SWAP1 RETURN JUMPDEST PUSH2 0x331 PUSH1 0x4 DUP1 CALLDATASIZE SUB DUP2 ADD SWAP1 PUSH2 0x32C SWAP2 SWAP1 PUSH2 0x1BA1 JUMP JUMPDEST PUSH2 0x1550 JUMP JUMPDEST STOP JUMPDEST PUSH2 0x33B PUSH2 0x15D4 JUMP JUMPDEST PUSH1 0x40 MLOAD PUSH2 0x348 SWAP2 SWAP1 PUSH2 0x1DB6 JUMP JUMPDEST PUSH1 0x40 MLOAD DUP1 SWAP2 SUB SWAP1 RETURN JUMPDEST PUSH0 PUSH1 0x3 PUSH0 SWAP1 SLOAD SWAP1 PUSH2 0x100 EXP SWAP1 DIV PUSH20 0xFFFFFFFFFFFFFFFFFFFFFFFFFFFFFFFFFFFFFFFF AND PUSH20 0xFFFFFFFFFFFFFFFFFFFFFFFFFFFFFFFFFFFFFFFF AND PUSH4 0x70A08231 ADDRESS PUSH1 0x40 MLOAD DUP3 PUSH4 0xFFFFFFFF AND PUSH1 0xE0 SHL DUP2 MSTORE PUSH1 0x4 ADD PUSH2 0x3AC SWAP2 SWAP1 PUSH2 0x1C3B JUMP JUMPDEST PUSH1 0x20 PUSH1 0x40 MLOAD DUP1 DUP4 SUB DUP2 DUP7 GAS STATICCALL ISZERO DUP1 ISZERO PUSH2 0x3C7 JUMPI RETURNDATASIZE PUSH0 DUP1 RETURNDATACOPY RETURNDATASIZE PUSH0 REVERT JUMPDEST POP POP POP POP PUSH1 0x40 MLOAD RETURNDATASIZE PUSH1 0x1F NOT PUSH1 0x1F DUP3 ADD AND DUP3 ADD DUP1 PUSH1 0x40 MSTORE POP DUP2 ADD SWAP1 PUSH2 0x3EB SWAP2 SWAP1 PUSH2 0x1DE3 JUMP JUMPDEST SWAP1 POP SWAP1 JUMP JUMPDEST PUSH2 0x3F8 PUSH2 0x15F9 JUMP JUMPDEST PUSH2 0x400 PUSH2 0x163F JUMP JUMPDEST PUSH0 DUP1 SHL DUP5 SUB PUSH2 0x444 JUMPI PUSH1 0x40 MLOAD PUSH32 0x8C379A000000000000000000000000000000000000000000000000000000000 DUP2 MSTORE PUSH1 0x4 ADD PUSH2 0x43B SWAP1 PUSH2 0x1E68 JUMP JUMPDEST PUSH1 0x40 MLOAD DUP1 SWAP2 SUB SWAP1 REVERT JUMPDEST PUSH3 0xF4240 DUP4 LT ISZERO PUSH2 0x48A JUMPI PUSH1 0x40 MLOAD PUSH32 0x8C379A000000000000000000000000000000000000000000000000000000000 DUP2 MSTORE PUSH1 0x4 ADD PUSH2 0x481 SWAP1 PUSH2 0x1ED0 JUMP JUMPDEST PUSH1 0x40 MLOAD DUP1 SWAP2 SUB SWAP1 REVERT JUMPDEST PUSH10 0xD3C21BCECCEDA1000000 DUP4 GT ISZERO PUSH2 0x4D7 JUMPI PUSH1 0x40 MLOAD PUSH32 0x8C379A000000000000000000000000000000000000000000000000000000000 DUP2 MSTORE PUSH1 0x4 ADD PUSH2 0x4CE SWAP1 PUSH2 0x1F38 JUMP JUMPDEST PUSH1 0x40 MLOAD DUP1 SWAP2 SUB SWAP1 REVERT JUMPDEST PUSH0 DUP1 SHL PUSH1 0x4 PUSH0 DUP7 DUP2 MSTORE PUSH1 0x20 ADD SWAP1 DUP2 MSTORE PUSH1 0x20 ADD PUSH0 KECCAK256 PUSH0 ADD SLOAD EQ PUSH2 0x52E JUMPI PUSH1 0x40 MLOAD PUSH32 0x8C379A000000000000000000000000000000000000000000000000000000000 DUP2 MSTORE PUSH1 0x4 ADD PUSH2 0x525 SWAP1 PUSH2 0x1FA0 JUMP JUMPDEST PUSH1 0x40 MLOAD DUP1 SWAP2 SUB SWAP1 REVERT JUMPDEST PUSH0 DUP3 DUP3 SWAP1 POP GT PUSH2 0x573 JUMPI PUSH1 0x40 MLOAD PUSH32 0x8C379A000000000000000000000000000000000000000000000000000000000 DUP2 MSTORE PUSH1 0x4 ADD PUSH2 0x56A SWAP1 PUSH2 0x2008 JUMP JUMPDEST PUSH1 0x40 MLOAD DUP1 SWAP2 SUB SWAP1 REVERT JUMPDEST PUSH1 0x2 PUSH1 0x1 SWAP1 SLOAD SWAP1 PUSH2 0x100 EXP SWAP1 DIV PUSH20 0xFFFFFFFFFFFFFFFFFFFFFFFFFFFFFFFFFFFFFFFF AND PUSH20 0xFFFFFFFFFFFFFFFFFFFFFFFFFFFFFFFFFFFFFFFF AND PUSH4 0xEBCB5584 DUP6 DUP6 CALLER DUP7 DUP7 PUSH1 0x40 MLOAD DUP7 PUSH4 0xFFFFFFFF AND PUSH1 0xE0 SHL DUP2 MSTORE PUSH1 0x4 ADD PUSH2 0x5D6 SWAP6 SWAP5 SWAP4 SWAP3 SWAP2 SWAP1 PUSH2 0x2080 JUMP JUMPDEST PUSH1 0x20 PUSH1 0x40 MLOAD DUP1 DUP4 SUB DUP2 DUP7 GAS STATICCALL ISZERO DUP1 ISZERO PUSH2 0x5F1 JUMPI RETURNDATASIZE PUSH0 DUP1 RETURNDATACOPY RETURNDATASIZE PUSH0 REVERT JUMPDEST POP POP POP POP PUSH1 0x40 MLOAD RETURNDATASIZE PUSH1 0x1F NOT PUSH1 0x1F DUP3 ADD AND DUP3 ADD DUP1 PUSH1 0x40 MSTORE POP DUP2 ADD SWAP1 PUSH2 0x615 SWAP2 SWAP1 PUSH2 0x20F6 JUMP JUMPDEST PUSH2 0x654 JUMPI PUSH1 0x40 MLOAD PUSH32 0x8C379A000000000000000000000000000000000000000000000000000000000 DUP2 MSTORE PUSH1 0x4 ADD PUSH2 0x64B SWAP1 PUSH2 0x216B JUMP JUMPDEST PUSH1 0x40 MLOAD DUP1 SWAP2 SUB SWAP1 REVERT JUMPDEST PUSH0 PUSH1 0x3 PUSH0 SWAP1 SLOAD SWAP1 PUSH2 0x100 EXP SWAP1 DIV PUSH20 0xFFFFFFFFFFFFFFFFFFFFFFFFFFFFFFFFFFFFFFFF AND PUSH20 0xFFFFFFFFFFFFFFFFFFFFFFFFFFFFFFFFFFFFFFFF AND PUSH4 0x70A08231 ADDRESS PUSH1 0x40 MLOAD DUP3 PUSH4 0xFFFFFFFF AND PUSH1 0xE0 SHL DUP2 MSTORE PUSH1 0x4 ADD PUSH2 0x6AF SWAP2 SWAP1 PUSH2 0x1C3B JUMP JUMPDEST PUSH1 0x20 PUSH1 0x40 MLOAD DUP1 DUP4 SUB DUP2 DUP7 GAS STATICCALL ISZERO DUP1 ISZERO PUSH2 0x6CA JUMPI RETURNDATASIZE PUSH0 DUP1 RETURNDATACOPY RETURNDATASIZE PUSH0 REVERT JUMPDEST POP POP POP POP PUSH1 0x40 MLOAD RETURNDATASIZE PUSH1 0x1F NOT PUSH1 0x1F DUP3 ADD AND DUP3 ADD DUP1 PUSH1 0x40 MSTORE POP DUP2 ADD SWAP1 PUSH2 0x6EE SWAP2 SWAP1 PUSH2 0x1DE3 JUMP JUMPDEST SWAP1 POP PUSH1 0x3 PUSH0 SWAP1 SLOAD SWAP1 PUSH2 0x100 EXP SWAP1 DIV PUSH20 0xFFFFFFFFFFFFFFFFFFFFFFFFFFFFFFFFFFFFFFFF AND PUSH20 0xFFFFFFFFFFFFFFFFFFFFFFFFFFFFFFFFFFFFFFFF AND PUSH4 0x23B872DD CALLER ADDRESS DUP8 PUSH1 0x40 MLOAD DUP5 PUSH4 0xFFFFFFFF AND PUSH1 0xE0 SHL DUP2 MSTORE PUSH1 0x4 ADD PUSH2 0x74E SWAP4 SWAP3 SWAP2 SWAP1 PUSH2 0x2189 JUMP JUMPDEST PUSH1 0x20 PUSH1 0x40 MLOAD DUP1 DUP4 SUB DUP2 PUSH0 DUP8 GAS CALL ISZERO DUP1 ISZERO PUSH2 0x76A JUMPI RETURNDATASIZE PUSH0 DUP1 RETURNDATACOPY RETURNDATASIZE PUSH0 REVERT JUMPDEST POP POP POP POP PUSH1 0x40 MLOAD RETURNDATASIZE PUSH1 0x1F NOT PUSH1 0x1F DUP3 ADD AND DUP3 ADD DUP1 PUSH1 0x40 MSTORE POP DUP2 ADD SWAP1 PUSH2 0x78E SWAP2 SWAP1 PUSH2 0x20F6 JUMP JUMPDEST PUSH2 0x7CD JUMPI PUSH1 0x40 MLOAD PUSH32 0x8C379A000000000000000000000000000000000000000000000000000000000 DUP2 MSTORE PUSH1 0x4 ADD PUSH2 0x7C4 SWAP1 PUSH2 0x2208 JUMP JUMPDEST PUSH1 0x40 MLOAD DUP1 SWAP2 SUB SWAP1 REVERT JUMPDEST DUP4 DUP2 PUSH2 0x7D9 SWAP2 SWAP1 PUSH2 0x2253 JUMP JUMPDEST PUSH1 0x3 PUSH0 SWAP1 SLOAD SWAP1 PUSH2 0x100 EXP SWAP1 DIV PUSH20 0xFFFFFFFFFFFFFFFFFFFFFFFFFFFFFFFFFFFFFFFF AND PUSH20 0xFFFFFFFFFFFFFFFFFFFFFFFFFFFFFFFFFFFFFFFF AND PUSH4 0x70A08231 ADDRESS PUSH1 0x40 MLOAD DUP3 PUSH4 0xFFFFFFFF AND PUSH1 0xE0 SHL DUP2 MSTORE PUSH1 0x4 ADD PUSH2 0x833 SWAP2 SWAP1 PUSH2 0x1C3B JUMP JUMPDEST PUSH1 0x20 PUSH1 0x40 MLOAD DUP1 DUP4 SUB DUP2 DUP7 GAS STATICCALL ISZERO DUP1 ISZERO PUSH2 0x84E JUMPI RETURNDATASIZE PUSH0 DUP1 RETURNDATACOPY RETURNDATASIZE PUSH0 REVERT JUMPDEST POP POP POP POP PUSH1 0x40 MLOAD RETURNDATASIZE PUSH1 0x1F NOT PUSH1 0x1F DUP3 ADD AND DUP3 ADD DUP1 PUSH1 0x40 MSTORE POP DUP2 ADD SWAP1 PUSH2 0x872 SWAP2 SWAP1 PUSH2 0x1DE3 JUMP JUMPDEST EQ PUSH2 0x8B2 JUMPI PUSH1 0x40 MLOAD PUSH32 0x8C379A000000000000000000000000000000000000000000000000000000000 DUP2 MSTORE PUSH1 0x4 ADD PUSH2 0x8A9 SWAP1 PUSH2 0x22D0 JUMP JUMPDEST PUSH1 0x40 MLOAD DUP1 SWAP2 SUB SWAP1 REVERT JUMPDEST PUSH1 0x40 MLOAD DUP1 PUSH1 0xA0 ADD PUSH1 0x40 MSTORE DUP1 DUP7 DUP2 MSTORE PUSH1 0x20 ADD PUSH0 DUP1 SHL DUP2 MSTORE PUSH1 0x20 ADD DUP6 DUP2 MSTORE PUSH1 0x20 ADD PUSH0 ISZERO ISZERO DUP2 MSTORE PUSH1 0x20 ADD TIMESTAMP DUP2 MSTORE POP PUSH1 0x4 PUSH0 DUP8 DUP2 MSTORE PUSH1 0x20 ADD SWAP1 DUP2 MSTORE PUSH1 0x20 ADD PUSH0 KECCAK256 PUSH0 DUP3 ADD MLOAD DUP2 PUSH0 ADD SSTORE PUSH1 0x20 DUP3 ADD MLOAD DUP2 PUSH1 0x1 ADD SSTORE PUSH1 0x40 DUP3 ADD MLOAD DUP2 PUSH1 0x2 ADD SSTORE PUSH1 0x60 DUP3 ADD MLOAD DUP2 PUSH1 0x3 ADD PUSH0 PUSH2 0x100 EXP DUP2 SLOAD DUP2 PUSH1 0xFF MUL NOT AND SWAP1 DUP4 ISZERO ISZERO MUL OR SWAP1 SSTORE POP PUSH1 0x80 DUP3 ADD MLOAD DUP2 PUSH1 0x4 ADD SSTORE SWAP1 POP POP DUP5 PUSH32 0x1CA12C4F007B87BB1429F9F86AC057E97667574F9F31BE5B9C3EA6260E8872FE DUP6 TIMESTAMP PUSH1 0x40 MLOAD PUSH2 0x968 SWAP3 SWAP2 SWAP1 PUSH2 0x22EE JUMP JUMPDEST PUSH1 0x40 MLOAD DUP1 SWAP2 SUB SWAP1 LOG2 POP PUSH2 0x979 PUSH2 0x1680 JUMP JUMPDEST POP POP POP POP JUMP JUMPDEST PUSH0 PUSH1 0x5 PUSH0 DUP4 DUP2 MSTORE PUSH1 0x20 ADD SWAP1 DUP2 MSTORE PUSH1 0x20 ADD PUSH0 KECCAK256 PUSH0 SWAP1 SLOAD SWAP1 PUSH2 0x100 EXP SWAP1 DIV PUSH1 0xFF AND SWAP1 POP SWAP2 SWAP1 POP JUMP JUMPDEST PUSH1 0x2 PUSH1 0x1 SWAP1 SLOAD SWAP1 PUSH2 0x100 EXP SWAP1 DIV PUSH20 0xFFFFFFFFFFFFFFFFFFFFFFFFFFFFFFFFFFFFFFFF AND DUP2 JUMP JUMPDEST PUSH2 0x9D3 PUSH2 0x1689 JUMP JUMPDEST PUSH2 0x9DB PUSH2 0x1710 JUMP JUMPDEST JUMP JUMPDEST PUSH2 0x9E5 PUSH2 0x1689 JUMP JUMPDEST PUSH0 PUSH20 0xFFFFFFFFFFFFFFFFFFFFFFFFFFFFFFFFFFFFFFFF AND DUP2 PUSH20 0xFFFFFFFFFFFFFFFFFFFFFFFFFFFFFFFFFFFFFFFF AND SUB PUSH2 0xA53 JUMPI PUSH1 0x40 MLOAD PUSH32 0x8C379A000000000000000000000000000000000000000000000000000000000 DUP2 MSTORE PUSH1 0x4 ADD PUSH2 0xA4A SWAP1 PUSH2 0x235F JUMP JUMPDEST PUSH1 0x40 MLOAD DUP1 SWAP2 SUB SWAP1 REVERT JUMPDEST PUSH0 PUSH1 0x2 PUSH1 0x1 SWAP1 SLOAD SWAP1 PUSH2 0x100 EXP SWAP1 DIV PUSH20 0xFFFFFFFFFFFFFFFFFFFFFFFFFFFFFFFFFFFFFFFF AND SWAP1 POP DUP2 PUSH1 0x2 PUSH1 0x1 PUSH2 0x100 EXP DUP2 SLOAD DUP2 PUSH20 0xFFFFFFFFFFFFFFFFFFFFFFFFFFFFFFFFFFFFFFFF MUL NOT AND SWAP1 DUP4 PUSH20 0xFFFFFFFFFFFFFFFFFFFFFFFFFFFFFFFFFFFFFFFF AND MUL OR SWAP1 SSTORE POP DUP2 PUSH20 0xFFFFFFFFFFFFFFFFFFFFFFFFFFFFFFFFFFFFFFFF AND DUP2 PUSH20 0xFFFFFFFFFFFFFFFFFFFFFFFFFFFFFFFFFFFFFFFF AND PUSH32 0xD64AE07F3DDEA489022B7C3651C0B93CC96296695FEAC84461061DFA1F34C0CB TIMESTAMP PUSH1 0x40 MLOAD PUSH2 0xB17 SWAP2 SWAP1 PUSH2 0x1925 JUMP JUMPDEST PUSH1 0x40 MLOAD DUP1 SWAP2 SUB SWAP1 LOG3 POP POP JUMP JUMPDEST PUSH0 PUSH1 0x2 PUSH0 SWAP1 SLOAD SWAP1 PUSH2 0x100 EXP SWAP1 DIV PUSH1 0xFF AND SWAP1 POP SWAP1 JUMP JUMPDEST PUSH2 0xB40 PUSH2 0x1689 JUMP JUMPDEST PUSH2 0xB49 PUSH0 PUSH2 0x1771 JUMP JUMPDEST JUMP JUMPDEST PUSH1 0x5 PUSH1 0x20 MSTORE DUP1 PUSH0 MSTORE PUSH1 0x40 PUSH0 KECCAK256 PUSH0 SWAP2 POP SLOAD SWAP1 PUSH2 0x100 EXP SWAP1 DIV PUSH1 0xFF AND DUP2 JUMP JUMPDEST PUSH2 0xB70 PUSH2 0x1689 JUMP JUMPDEST PUSH2 0xB78 PUSH2 0x1832 JUMP JUMPDEST JUMP JUMPDEST PUSH1 0x4 PUSH1 0x20 MSTORE DUP1 PUSH0 MSTORE PUSH1 0x40 PUSH0 KECCAK256 PUSH0 SWAP2 POP SWAP1 POP DUP1 PUSH0 ADD SLOAD SWAP1 DUP1 PUSH1 0x1 ADD SLOAD SWAP1 DUP1 PUSH1 0x2 ADD SLOAD SWAP1 DUP1 PUSH1 0x3 ADD PUSH0 SWAP1 SLOAD SWAP1 PUSH2 0x100 EXP SWAP1 DIV PUSH1 0xFF AND SWAP1 DUP1 PUSH1 0x4 ADD SLOAD SWAP1 POP DUP6 JUMP JUMPDEST PUSH0 DUP1 PUSH0 SWAP1 SLOAD SWAP1 PUSH2 0x100 EXP SWAP1 DIV PUSH20 0xFFFFFFFFFFFFFFFFFFFFFFFFFFFFFFFFFFFFFFFF AND SWAP1 POP SWAP1 JUMP JUMPDEST PUSH2 0xBE7 PUSH2 0x18DB JUMP JUMPDEST PUSH1 0x4 PUSH0 DUP4 DUP2 MSTORE PUSH1 0x20 ADD SWAP1 DUP2 MSTORE PUSH1 0x20 ADD PUSH0 KECCAK256 PUSH1 0x40 MLOAD DUP1 PUSH1 0xA0 ADD PUSH1 0x40 MSTORE SWAP1 DUP2 PUSH0 DUP3 ADD SLOAD DUP2 MSTORE PUSH1 0x20 ADD PUSH1 0x1 DUP3 ADD SLOAD DUP2 MSTORE PUSH1 0x20 ADD PUSH1 0x2 DUP3 ADD SLOAD DUP2 MSTORE PUSH1 0x20 ADD PUSH1 0x3 DUP3 ADD PUSH0 SWAP1 SLOAD SWAP1 PUSH2 0x100 EXP SWAP1 DIV PUSH1 0xFF AND ISZERO ISZERO ISZERO ISZERO DUP2 MSTORE PUSH1 0x20 ADD PUSH1 0x4 DUP3 ADD SLOAD DUP2 MSTORE POP POP SWAP1 POP SWAP2 SWAP1 POP JUMP JUMPDEST PUSH2 0xC53 PUSH2 0x15F9 JUMP JUMPDEST PUSH2 0xC5B PUSH2 0x163F JUMP JUMPDEST PUSH0 DUP1 SHL DUP7 SUB PUSH2 0xC9F JUMPI PUSH1 0x40 MLOAD PUSH32 0x8C379A000000000000000000000000000000000000000000000000000000000 DUP2 MSTORE PUSH1 0x4 ADD PUSH2 0xC96 SWAP1 PUSH2 0x23C7 JUMP JUMPDEST PUSH1 0x40 MLOAD DUP1 SWAP2 SUB SWAP1 REVERT JUMPDEST PUSH0 DUP1 SHL DUP6 SUB PUSH2 0xCE3 JUMPI PUSH1 0x40 MLOAD PUSH32 0x8C379A000000000000000000000000000000000000000000000000000000000 DUP2 MSTORE PUSH1 0x4 ADD PUSH2 0xCDA SWAP1 PUSH2 0x1E68 JUMP JUMPDEST PUSH1 0x40 MLOAD DUP1 SWAP2 SUB SWAP1 REVERT JUMPDEST PUSH0 PUSH20 0xFFFFFFFFFFFFFFFFFFFFFFFFFFFFFFFFFFFFFFFF AND DUP5 PUSH20 0xFFFFFFFFFFFFFFFFFFFFFFFFFFFFFFFFFFFFFFFF AND SUB PUSH2 0xD51 JUMPI PUSH1 0x40 MLOAD PUSH32 0x8C379A000000000000000000000000000000000000000000000000000000000 DUP2 MSTORE PUSH1 0x4 ADD PUSH2 0xD48 SWAP1 PUSH2 0x242F JUMP JUMPDEST PUSH1 0x40 MLOAD DUP1 SWAP2 SUB SWAP1 REVERT JUMPDEST PUSH0 DUP4 GT PUSH2 0xD93 JUMPI PUSH1 0x40 MLOAD PUSH32 0x8C379A000000000000000000000000000000000000000000000000000000000 DUP2 MSTORE PUSH1 0x4 ADD PUSH2 0xD8A SWAP1 PUSH2 0x2497 JUMP JUMPDEST PUSH1 0x40 MLOAD DUP1 SWAP2 SUB SWAP1 REVERT JUMPDEST PUSH1 0x5 PUSH0 DUP8 DUP2 MSTORE PUSH1 0x20 ADD SWAP1 DUP2 MSTORE PUSH1 0x20 ADD PUSH0 KECCAK256 PUSH0 SWAP1 SLOAD SWAP1 PUSH2 0x100 EXP SWAP1 DIV PUSH1 0xFF AND ISZERO PUSH2 0xDF1 JUMPI PUSH1 0x40 MLOAD PUSH32 0x8C379A000000000000000000000000000000000000000000000000000000000 DUP2 MSTORE PUSH1 0x4 ADD PUSH2 0xDE8 SWAP1 PUSH2 0x24FF JUMP JUMPDEST PUSH1 0x40 MLOAD DUP1 SWAP2 SUB SWAP1 REVERT JUMPDEST PUSH0 PUSH1 0x4 PUSH0 DUP8 DUP2 MSTORE PUSH1 0x20 ADD SWAP1 DUP2 MSTORE PUSH1 0x20 ADD PUSH0 KECCAK256 SWAP1 POP PUSH0 DUP1 SHL DUP2 PUSH0 ADD SLOAD SUB PUSH2 0xE4C JUMPI PUSH1 0x40 MLOAD PUSH32 0x8C379A000000000000000000000000000000000000000000000000000000000 DUP2 MSTORE PUSH1 0x4 ADD PUSH2 0xE43 SWAP1 PUSH2 0x2567 JUMP JUMPDEST PUSH1 0x40 MLOAD DUP1 SWAP2 SUB SWAP1 REVERT JUMPDEST DUP1 PUSH1 0x3 ADD PUSH0 SWAP1 SLOAD SWAP1 PUSH2 0x100 EXP SWAP1 DIV PUSH1 0xFF AND ISZERO PUSH2 0xE9D JUMPI PUSH1 0x40 MLOAD PUSH32 0x8C379A000000000000000000000000000000000000000000000000000000000 DUP2 MSTORE PUSH1 0x4 ADD PUSH2 0xE94 SWAP1 PUSH2 0x25CF JUMP JUMPDEST PUSH1 0x40 MLOAD DUP1 SWAP2 SUB SWAP1 REVERT JUMPDEST DUP1 PUSH1 0x2 ADD SLOAD DUP5 GT ISZERO PUSH2 0xEE4 JUMPI PUSH1 0x40 MLOAD PUSH32 0x8C379A000000000000000000000000000000000000000000000000000000000 DUP2 MSTORE PUSH1 0x4 ADD PUSH2 0xEDB SWAP1 PUSH2 0x2637 JUMP JUMPDEST PUSH1 0x40 MLOAD DUP1 SWAP2 SUB SWAP1 REVERT JUMPDEST PUSH0 DUP4 DUP4 SWAP1 POP GT PUSH2 0xF29 JUMPI PUSH1 0x40 MLOAD PUSH32 0x8C379A000000000000000000000000000000000000000000000000000000000 DUP2 MSTORE PUSH1 0x4 ADD PUSH2 0xF20 SWAP1 PUSH2 0x2008 JUMP JUMPDEST PUSH1 0x40 MLOAD DUP1 SWAP2 SUB SWAP1 REVERT JUMPDEST PUSH1 0x2 PUSH1 0x1 SWAP1 SLOAD SWAP1 PUSH2 0x100 EXP SWAP1 DIV PUSH20 0xFFFFFFFFFFFFFFFFFFFFFFFFFFFFFFFFFFFFFFFF AND PUSH20 0xFFFFFFFFFFFFFFFFFFFFFFFFFFFFFFFFFFFFFFFF AND PUSH4 0xC53ED3BF DUP9 DUP9 DUP9 DUP9 DUP9 DUP9 PUSH1 0x40 MLOAD DUP8 PUSH4 0xFFFFFFFF AND PUSH1 0xE0 SHL DUP2 MSTORE PUSH1 0x4 ADD PUSH2 0xF8E SWAP7 SWAP6 SWAP5 SWAP4 SWAP3 SWAP2 SWAP1 PUSH2 0x2655 JUMP JUMPDEST PUSH1 0x20 PUSH1 0x40 MLOAD DUP1 DUP4 SUB DUP2 DUP7 GAS STATICCALL ISZERO DUP1 ISZERO PUSH2 0xFA9 JUMPI RETURNDATASIZE PUSH0 DUP1 RETURNDATACOPY RETURNDATASIZE PUSH0 REVERT JUMPDEST POP POP POP POP PUSH1 0x40 MLOAD RETURNDATASIZE PUSH1 0x1F NOT PUSH1 0x1F DUP3 ADD AND DUP3 ADD DUP1 PUSH1 0x40 MSTORE POP DUP2 ADD SWAP1 PUSH2 0xFCD SWAP2 SWAP1 PUSH2 0x20F6 JUMP JUMPDEST PUSH2 0x100C JUMPI PUSH1 0x40 MLOAD PUSH32 0x8C379A000000000000000000000000000000000000000000000000000000000 DUP2 MSTORE PUSH1 0x4 ADD PUSH2 0x1003 SWAP1 PUSH2 0x216B JUMP JUMPDEST PUSH1 0x40 MLOAD DUP1 SWAP2 SUB SWAP1 REVERT JUMPDEST PUSH1 0x1 PUSH1 0x5 PUSH0 DUP10 DUP2 MSTORE PUSH1 0x20 ADD SWAP1 DUP2 MSTORE PUSH1 0x20 ADD PUSH0 KECCAK256 PUSH0 PUSH2 0x100 EXP DUP2 SLOAD DUP2 PUSH1 0xFF MUL NOT AND SWAP1 DUP4 ISZERO ISZERO MUL OR SWAP1 SSTORE POP PUSH1 0x1 DUP2 PUSH1 0x3 ADD PUSH0 PUSH2 0x100 EXP DUP2 SLOAD DUP2 PUSH1 0xFF MUL NOT AND SWAP1 DUP4 ISZERO ISZERO MUL OR SWAP1 SSTORE POP DUP7 DUP2 PUSH1 0x1 ADD DUP2 SWAP1 SSTORE POP PUSH0 PUSH1 0x3 PUSH0 SWAP1 SLOAD SWAP1 PUSH2 0x100 EXP SWAP1 DIV PUSH20 0xFFFFFFFFFFFFFFFFFFFFFFFFFFFFFFFFFFFFFFFF AND PUSH20 0xFFFFFFFFFFFFFFFFFFFFFFFFFFFFFFFFFFFFFFFF AND PUSH4 0x70A08231 DUP8 PUSH1 0x40 MLOAD DUP3 PUSH4 0xFFFFFFFF AND PUSH1 0xE0 SHL DUP2 MSTORE PUSH1 0x4 ADD PUSH2 0x10B5 SWAP2 SWAP1 PUSH2 0x1C3B JUMP JUMPDEST PUSH1 0x20 PUSH1 0x40 MLOAD DUP1 DUP4 SUB DUP2 DUP7 GAS STATICCALL ISZERO DUP1 ISZERO PUSH2 0x10D0 JUMPI RETURNDATASIZE PUSH0 DUP1 RETURNDATACOPY RETURNDATASIZE PUSH0 REVERT JUMPDEST POP POP POP POP PUSH1 0x40 MLOAD RETURNDATASIZE PUSH1 0x1F NOT PUSH1 0x1F DUP3 ADD AND DUP3 ADD DUP1 PUSH1 0x40 MSTORE POP DUP2 ADD SWAP1 PUSH2 0x10F4 SWAP2 SWAP1 PUSH2 0x1DE3 JUMP JUMPDEST SWAP1 POP PUSH1 0x3 PUSH0 SWAP1 SLOAD SWAP1 PUSH2 0x100 EXP SWAP1 DIV PUSH20 0xFFFFFFFFFFFFFFFFFFFFFFFFFFFFFFFFFFFFFFFF AND PUSH20 0xFFFFFFFFFFFFFFFFFFFFFFFFFFFFFFFFFFFFFFFF AND PUSH4 0xA9059CBB DUP8 DUP8 PUSH1 0x40 MLOAD DUP4 PUSH4 0xFFFFFFFF AND PUSH1 0xE0 SHL DUP2 MSTORE PUSH1 0x4 ADD PUSH2 0x1152 SWAP3 SWAP2 SWAP1 PUSH2 0x26AF JUMP JUMPDEST PUSH1 0x20 PUSH1 0x40 MLOAD DUP1 DUP4 SUB DUP2 PUSH0 DUP8 GAS CALL ISZERO DUP1 ISZERO PUSH2 0x116E JUMPI RETURNDATASIZE PUSH0 DUP1 RETURNDATACOPY RETURNDATASIZE PUSH0 REVERT JUMPDEST POP POP POP POP PUSH1 0x40 MLOAD RETURNDATASIZE PUSH1 0x1F NOT PUSH1 0x1F DUP3 ADD AND DUP3 ADD DUP1 PUSH1 0x40 MSTORE POP DUP2 ADD SWAP1 PUSH2 0x1192 SWAP2 SWAP1 PUSH2 0x20F6 JUMP JUMPDEST PUSH2 0x11D1 JUMPI PUSH1 0x40 MLOAD PUSH32 0x8C379A000000000000000000000000000000000000000000000000000000000 DUP2 MSTORE PUSH1 0x4 ADD PUSH2 0x11C8 SWAP1 PUSH2 0x2208 JUMP JUMPDEST PUSH1 0x40 MLOAD DUP1 SWAP2 SUB SWAP1 REVERT JUMPDEST DUP5 DUP2 PUSH2 0x11DD SWAP2 SWAP1 PUSH2 0x2253 JUMP JUMPDEST PUSH1 0x3 PUSH0 SWAP1 SLOAD SWAP1 PUSH2 0x100 EXP SWAP1 DIV PUSH20 0xFFFFFFFFFFFFFFFFFFFFFFFFFFFFFFFFFFFFFFFF AND PUSH20 0xFFFFFFFFFFFFFFFFFFFFFFFFFFFFFFFFFFFFFFFF AND PUSH4 0x70A08231 DUP9 PUSH1 0x40 MLOAD DUP3 PUSH4 0xFFFFFFFF AND PUSH1 0xE0 SHL DUP2 MSTORE PUSH1 0x4 ADD PUSH2 0x1237 SWAP2 SWAP1 PUSH2 0x1C3B JUMP JUMPDEST PUSH1 0x20 PUSH1 0x40 MLOAD DUP1 DUP4 SUB DUP2 DUP7 GAS STATICCALL ISZERO DUP1 ISZERO PUSH2 0x1252 JUMPI RETURNDATASIZE PUSH0 DUP1 RETURNDATACOPY RETURNDATASIZE PUSH0 REVERT JUMPDEST POP POP POP POP PUSH1 0x40 MLOAD RETURNDATASIZE PUSH1 0x1F NOT PUSH1 0x1F DUP3 ADD AND DUP3 ADD DUP1 PUSH1 0x40 MSTORE POP DUP2 ADD SWAP1 PUSH2 0x1276 SWAP2 SWAP1 PUSH2 0x1DE3 JUMP JUMPDEST EQ PUSH2 0x12B6 JUMPI PUSH1 0x40 MLOAD PUSH32 0x8C379A000000000000000000000000000000000000000000000000000000000 DUP2 MSTORE PUSH1 0x4 ADD PUSH2 0x12AD SWAP1 PUSH2 0x22D0 JUMP JUMPDEST PUSH1 0x40 MLOAD DUP1 SWAP2 SUB SWAP1 REVERT JUMPDEST DUP6 PUSH20 0xFFFFFFFFFFFFFFFFFFFFFFFFFFFFFFFFFFFFFFFF AND DUP9 PUSH32 0x66F083A4C3ED4EEC4E232AE3E65A14E7704192E147F54ED38A55600500BC368F DUP8 TIMESTAMP PUSH1 0x40 MLOAD PUSH2 0x12FF SWAP3 SWAP2 SWAP1 PUSH2 0x22EE JUMP JUMPDEST PUSH1 0x40 MLOAD DUP1 SWAP2 SUB SWAP1 LOG3 POP POP PUSH2 0x1311 PUSH2 0x1680 JUMP JUMPDEST POP POP POP POP POP POP JUMP JUMPDEST PUSH2 0x1321 PUSH2 0x1689 JUMP JUMPDEST PUSH0 PUSH1 0x3 PUSH0 SWAP1 SLOAD SWAP1 PUSH2 0x100 EXP SWAP1 DIV PUSH20 0xFFFFFFFFFFFFFFFFFFFFFFFFFFFFFFFFFFFFFFFF AND PUSH20 0xFFFFFFFFFFFFFFFFFFFFFFFFFFFFFFFFFFFFFFFF AND PUSH4 0x70A08231 ADDRESS PUSH1 0x40 MLOAD DUP3 PUSH4 0xFFFFFFFF AND PUSH1 0xE0 SHL DUP2 MSTORE PUSH1 0x4 ADD PUSH2 0x137C SWAP2 SWAP1 PUSH2 0x1C3B JUMP JUMPDEST PUSH1 0x20 PUSH1 0x40 MLOAD DUP1 DUP4 SUB DUP2 DUP7 GAS STATICCALL ISZERO DUP1 ISZERO PUSH2 0x1397 JUMPI RETURNDATASIZE PUSH0 DUP1 RETURNDATACOPY RETURNDATASIZE PUSH0 REVERT JUMPDEST POP POP POP POP PUSH1 0x40 MLOAD RETURNDATASIZE PUSH1 0x1F NOT PUSH1 0x1F DUP3 ADD AND DUP3 ADD DUP1 PUSH1 0x40 MSTORE POP DUP2 ADD SWAP1 PUSH2 0x13BB SWAP2 SWAP1 PUSH2 0x1DE3 JUMP JUMPDEST SWAP1 POP PUSH0 DUP2 GT PUSH2 0x13FF JUMPI PUSH1 0x40 MLOAD PUSH32 0x8C379A000000000000000000000000000000000000000000000000000000000 DUP2 MSTORE PUSH1 0x4 ADD PUSH2 0x13F6 SWAP1 PUSH2 0x2720 JUMP JUMPDEST PUSH1 0x40 MLOAD DUP1 SWAP2 SUB SWAP1 REVERT JUMPDEST PUSH1 0x3 PUSH0 SWAP1 SLOAD SWAP1 PUSH2 0x100 EXP SWAP1 DIV PUSH20 0xFFFFFFFFFFFFFFFFFFFFFFFFFFFFFFFFFFFFFFFF AND PUSH20 0xFFFFFFFFFFFFFFFFFFFFFFFFFFFFFFFFFFFFFFFF AND PUSH4 0xA9059CBB PUSH2 0x1444 PUSH2 0xBB8 JUMP JUMPDEST DUP4 PUSH1 0x40 MLOAD DUP4 PUSH4 0xFFFFFFFF AND PUSH1 0xE0 SHL DUP2 MSTORE PUSH1 0x4 ADD PUSH2 0x1462 SWAP3 SWAP2 SWAP1 PUSH2 0x26AF JUMP JUMPDEST PUSH1 0x20 PUSH1 0x40 MLOAD DUP1 DUP4 SUB DUP2 PUSH0 DUP8 GAS CALL ISZERO DUP1 ISZERO PUSH2 0x147E JUMPI RETURNDATASIZE PUSH0 DUP1 RETURNDATACOPY RETURNDATASIZE PUSH0 REVERT JUMPDEST POP POP POP POP PUSH1 0x40 MLOAD RETURNDATASIZE PUSH1 0x1F NOT PUSH1 0x1F DUP3 ADD AND DUP3 ADD DUP1 PUSH1 0x40 MSTORE POP DUP2 ADD SWAP1 PUSH2 0x14A2 SWAP2 SWAP1 PUSH2 0x20F6 JUMP JUMPDEST PUSH2 0x14E1 JUMPI PUSH1 0x40 MLOAD PUSH32 0x8C379A000000000000000000000000000000000000000000000000000000000 DUP2 MSTORE PUSH1 0x4 ADD PUSH2 0x14D8 SWAP1 PUSH2 0x2208 JUMP JUMPDEST PUSH1 0x40 MLOAD DUP1 SWAP2 SUB SWAP1 REVERT JUMPDEST PUSH2 0x14E9 PUSH2 0xBB8 JUMP JUMPDEST PUSH20 0xFFFFFFFFFFFFFFFFFFFFFFFFFFFFFFFFFFFFFFFF AND PUSH32 0x56DA9A5AE0BCF6E7C3FDD78A10550E7D0458DE1C39BFB7F6E96A3E92DD344A68 DUP3 TIMESTAMP PUSH1 0x40 MLOAD PUSH2 0x1530 SWAP3 SWAP2 SWAP1 PUSH2 0x22EE JUMP JUMPDEST PUSH1 0x40 MLOAD DUP1 SWAP2 SUB SWAP1 LOG2 POP JUMP JUMPDEST PUSH10 0xD3C21BCECCEDA1000000 DUP2 JUMP JUMPDEST PUSH3 0xF4240 DUP2 JUMP JUMPDEST PUSH2 0x1558 PUSH2 0x1689 JUMP JUMPDEST PUSH0 PUSH20 0xFFFFFFFFFFFFFFFFFFFFFFFFFFFFFFFFFFFFFFFF AND DUP2 PUSH20 0xFFFFFFFFFFFFFFFFFFFFFFFFFFFFFFFFFFFFFFFF AND SUB PUSH2 0x15C8 JUMPI PUSH0 PUSH1 0x40 MLOAD PUSH32 0x1E4FBDF700000000000000000000000000000000000000000000000000000000 DUP2 MSTORE PUSH1 0x4 ADD PUSH2 0x15BF SWAP2 SWAP1 PUSH2 0x1C3B JUMP JUMPDEST PUSH1 0x40 MLOAD DUP1 SWAP2 SUB SWAP1 REVERT JUMPDEST PUSH2 0x15D1 DUP2 PUSH2 0x1771 JUMP JUMPDEST POP JUMP JUMPDEST PUSH1 0x3 PUSH0 SWAP1 SLOAD SWAP1 PUSH2 0x100 EXP SWAP1 DIV PUSH20 0xFFFFFFFFFFFFFFFFFFFFFFFFFFFFFFFFFFFFFFFF AND DUP2 JUMP JUMPDEST PUSH1 0x2 PUSH1 0x1 SLOAD SUB PUSH2 0x1635 JUMPI PUSH1 0x40 MLOAD PUSH32 0x3EE5AEB500000000000000000000000000000000000000000000000000000000 DUP2 MSTORE PUSH1 0x4 ADD PUSH1 0x40 MLOAD DUP1 SWAP2 SUB SWAP1 REVERT JUMPDEST PUSH1 0x2 PUSH1 0x1 DUP2 SWAP1 SSTORE POP JUMP JUMPDEST PUSH2 0x1647 PUSH2 0xB23 JUMP JUMPDEST ISZERO PUSH2 0x167E JUMPI PUSH1 0x40 MLOAD PUSH32 0xD93C066500000000000000000000000000000000000000000000000000000000 DUP2 MSTORE PUSH1 0x4 ADD PUSH1 0x40 MLOAD DUP1 SWAP2 SUB SWAP1 REVERT JUMPDEST JUMP JUMPDEST PUSH1 0x1 DUP1 DUP2 SWAP1 SSTORE POP JUMP JUMPDEST PUSH2 0x1691 PUSH2 0x1894 JUMP JUMPDEST PUSH20 0xFFFFFFFFFFFFFFFFFFFFFFFFFFFFFFFFFFFFFFFF AND PUSH2 0x16AF PUSH2 0xBB8 JUMP JUMPDEST PUSH20 0xFFFFFFFFFFFFFFFFFFFFFFFFFFFFFFFFFFFFFFFF AND EQ PUSH2 0x170E JUMPI PUSH2 0x16D2 PUSH2 0x1894 JUMP JUMPDEST PUSH1 0x40 MLOAD PUSH32 0x118CDAA700000000000000000000000000000000000000000000000000000000 DUP2 MSTORE PUSH1 0x4 ADD PUSH2 0x1705 SWAP2 SWAP1 PUSH2 0x1C3B JUMP JUMPDEST PUSH1 0x40 MLOAD DUP1 SWAP2 SUB SWAP1 REVERT JUMPDEST JUMP JUMPDEST PUSH2 0x1718 PUSH2 0x189B JUMP JUMPDEST PUSH0 PUSH1 0x2 PUSH0 PUSH2 0x100 EXP DUP2 SLOAD DUP2 PUSH1 0xFF MUL NOT AND SWAP1 DUP4 ISZERO ISZERO MUL OR SWAP1 SSTORE POP PUSH32 0x5DB9EE0A495BF2E6FF9C91A7834C1BA4FDD244A5E8AA4E537BD38AEAE4B073AA PUSH2 0x175A PUSH2 0x1894 JUMP JUMPDEST PUSH1 0x40 MLOAD PUSH2 0x1767 SWAP2 SWAP1 PUSH2 0x1C3B JUMP JUMPDEST PUSH1 0x40 MLOAD DUP1 SWAP2 SUB SWAP1 LOG1 JUMP JUMPDEST PUSH0 DUP1 PUSH0 SWAP1 SLOAD SWAP1 PUSH2 0x100 EXP SWAP1 DIV PUSH20 0xFFFFFFFFFFFFFFFFFFFFFFFFFFFFFFFFFFFFFFFF AND SWAP1 POP DUP2 PUSH0 DUP1 PUSH2 0x100 EXP DUP2 SLOAD DUP2 PUSH20 0xFFFFFFFFFFFFFFFFFFFFFFFFFFFFFFFFFFFFFFFF MUL NOT AND SWAP1 DUP4 PUSH20 0xFFFFFFFFFFFFFFFFFFFFFFFFFFFFFFFFFFFFFFFF AND MUL OR SWAP1 SSTORE POP DUP2 PUSH20 0xFFFFFFFFFFFFFFFFFFFFFFFFFFFFFFFFFFFFFFFF AND DUP2 PUSH20 0xFFFFFFFFFFFFFFFFFFFFFFFFFFFFFFFFFFFFFFFF AND PUSH32 0x8BE0079C531659141344CD1FD0A4F28419497F9722A3DAAFE3B4186F6B6457E0 PUSH1 0x40 MLOAD PUSH1 0x40 MLOAD DUP1 SWAP2 SUB SWAP1 LOG3 POP POP JUMP JUMPDEST PUSH2 0x183A PUSH2 0x163F JUMP JUMPDEST PUSH1 0x1 PUSH1 0x2 PUSH0 PUSH2 0x100 EXP DUP2 SLOAD DUP2 PUSH1 0xFF MUL NOT AND SWAP1 DUP4 ISZERO ISZERO MUL OR SWAP1 SSTORE POP PUSH32 0x62E78CEA01BEE320CD4E420270B5EA74000D11B0C9F74754EBDBFC544B05A258 PUSH2 0x187D PUSH2 0x1894 JUMP JUMPDEST PUSH1 0x40 MLOAD PUSH2 0x188A SWAP2 SWAP1 PUSH2 0x1C3B JUMP JUMPDEST PUSH1 0x40 MLOAD DUP1 SWAP2 SUB SWAP1 LOG1 JUMP JUMPDEST PUSH0 CALLER SWAP1 POP SWAP1 JUMP JUMPDEST PUSH2 0x18A3 PUSH2 0xB23 JUMP JUMPDEST PUSH2 0x18D9 JUMPI PUSH1 0x40 MLOAD PUSH32 0x8DFC202B00000000000000000000000000000000000000000000000000000000 DUP2 MSTORE PUSH1 0x4 ADD PUSH1 0x40 MLOAD DUP1 SWAP2 SUB SWAP1 REVERT JUMPDEST JUMP JUMPDEST PUSH1 0x40 MLOAD DUP1 PUSH1 0xA0 ADD PUSH1 0x40 MSTORE DUP1 PUSH0 DUP1 NOT AND DUP2 MSTORE PUSH1 0x20 ADD PUSH0 DUP1 NOT AND DUP2 MSTORE PUSH1 0x20 ADD PUSH0 DUP2 MSTORE PUSH1 0x20 ADD PUSH0 ISZERO ISZERO DUP2 MSTORE PUSH1 0x20 ADD PUSH0 DUP2 MSTORE POP SWAP1 JUMP JUMPDEST PUSH0 DUP2 SWAP1 POP SWAP2 SWAP1 POP JUMP JUMPDEST PUSH2 0x191F DUP2 PUSH2 0x190D JUMP JUMPDEST DUP3 MSTORE POP POP JUMP JUMPDEST PUSH0 PUSH1 0x20 DUP3 ADD SWAP1 POP PUSH2 0x1938 PUSH0 DUP4 ADD DUP5 PUSH2 0x1916 JUMP JUMPDEST SWAP3 SWAP2 POP POP JUMP JUMPDEST PUSH0 DUP1 REVERT JUMPDEST PUSH0 DUP1 REVERT JUMPDEST PUSH0 DUP2 SWAP1 POP SWAP2 SWAP1 POP JUMP JUMPDEST PUSH2 0x1958 DUP2 PUSH2 0x1946 JUMP JUMPDEST DUP2 EQ PUSH2 0x1962 JUMPI PUSH0 DUP1 REVERT JUMPDEST POP JUMP JUMPDEST PUSH0 DUP2 CALLDATALOAD SWAP1 POP PUSH2 0x1973 DUP2 PUSH2 0x194F JUMP JUMPDEST SWAP3 SWAP2 POP POP JUMP JUMPDEST PUSH2 0x1982 DUP2 PUSH2 0x190D JUMP JUMPDEST DUP2 EQ PUSH2 0x198C JUMPI PUSH0 DUP1 REVERT JUMPDEST POP JUMP JUMPDEST PUSH0 DUP2 CALLDATALOAD SWAP1 POP PUSH2 0x199D DUP2 PUSH2 0x1979 JUMP JUMPDEST SWAP3 SWAP2 POP POP JUMP JUMPDEST PUSH0 DUP1 REVERT JUMPDEST PUSH0 DUP1 REVERT JUMPDEST PUSH0 DUP1 REVERT JUMPDEST PUSH0 DUP1 DUP4 PUSH1 0x1F DUP5 ADD SLT PUSH2 0x19C4 JUMPI PUSH2 0x19C3 PUSH2 0x19A3 JUMP JUMPDEST JUMPDEST DUP3 CALLDATALOAD SWAP1 POP PUSH8 0xFFFFFFFFFFFFFFFF DUP2 GT ISZERO PUSH2 0x19E1 JUMPI PUSH2 0x19E0 PUSH2 0x19A7 JUMP JUMPDEST JUMPDEST PUSH1 0x20 DUP4 ADD SWAP2 POP DUP4 PUSH1 0x1 DUP3 MUL DUP4 ADD GT ISZERO PUSH2 0x19FD JUMPI PUSH2 0x19FC PUSH2 0x19AB JUMP JUMPDEST JUMPDEST SWAP3 POP SWAP3 SWAP1 POP JUMP JUMPDEST PUSH0 DUP1 PUSH0 DUP1 PUSH1 0x60 DUP6 DUP8 SUB SLT ISZERO PUSH2 0x1A1C JUMPI PUSH2 0x1A1B PUSH2 0x193E JUMP JUMPDEST JUMPDEST PUSH0 PUSH2 0x1A29 DUP8 DUP3 DUP9 ADD PUSH2 0x1965 JUMP JUMPDEST SWAP5 POP POP PUSH1 0x20 PUSH2 0x1A3A DUP8 DUP3 DUP9 ADD PUSH2 0x198F JUMP JUMPDEST SWAP4 POP POP PUSH1 0x40 DUP6 ADD CALLDATALOAD PUSH8 0xFFFFFFFFFFFFFFFF DUP2 GT ISZERO PUSH2 0x1A5B JUMPI PUSH2 0x1A5A PUSH2 0x1942 JUMP JUMPDEST JUMPDEST PUSH2 0x1A67 DUP8 DUP3 DUP9 ADD PUSH2 0x19AF JUMP JUMPDEST SWAP3 POP SWAP3 POP POP SWAP3 SWAP6 SWAP2 SWAP5 POP SWAP3 POP JUMP JUMPDEST PUSH0 PUSH1 0x20 DUP3 DUP5 SUB SLT ISZERO PUSH2 0x1A8A JUMPI PUSH2 0x1A89 PUSH2 0x193E JUMP JUMPDEST JUMPDEST PUSH0 PUSH2 0x1A97 DUP5 DUP3 DUP6 ADD PUSH2 0x1965 JUMP JUMPDEST SWAP2 POP POP SWAP3 SWAP2 POP POP JUMP JUMPDEST PUSH0 DUP2 ISZERO ISZERO SWAP1 POP SWAP2 SWAP1 POP JUMP JUMPDEST PUSH2 0x1AB4 DUP2 PUSH2 0x1AA0 JUMP JUMPDEST DUP3 MSTORE POP POP JUMP JUMPDEST PUSH0 PUSH1 0x20 DUP3 ADD SWAP1 POP PUSH2 0x1ACD PUSH0 DUP4 ADD DUP5 PUSH2 0x1AAB JUMP JUMPDEST SWAP3 SWAP2 POP POP JUMP JUMPDEST PUSH0 PUSH20 0xFFFFFFFFFFFFFFFFFFFFFFFFFFFFFFFFFFFFFFFF DUP3 AND SWAP1 POP SWAP2 SWAP1 POP JUMP JUMPDEST PUSH0 DUP2 SWAP1 POP SWAP2 SWAP1 POP JUMP JUMPDEST PUSH0 PUSH2 0x1B15 PUSH2 0x1B10 PUSH2 0x1B0B DUP5 PUSH2 0x1AD3 JUMP JUMPDEST PUSH2 0x1AF2 JUMP JUMPDEST PUSH2 0x1AD3 JUMP JUMPDEST SWAP1 POP SWAP2 SWAP1 POP JUMP JUMPDEST PUSH0 PUSH2 0x1B26 DUP3 PUSH2 0x1AFB JUMP JUMPDEST SWAP1 POP SWAP2 SWAP1 POP JUMP JUMPDEST PUSH0 PUSH2 0x1B37 DUP3 PUSH2 0x1B1C JUMP JUMPDEST SWAP1 POP SWAP2 SWAP1 POP JUMP JUMPDEST PUSH2 0x1B47 DUP2 PUSH2 0x1B2D JUMP JUMPDEST DUP3 MSTORE POP POP JUMP JUMPDEST PUSH0 PUSH1 0x20 DUP3 ADD SWAP1 POP PUSH2 0x1B60 PUSH0 DUP4 ADD DUP5 PUSH2 0x1B3E JUMP JUMPDEST SWAP3 SWAP2 POP POP JUMP JUMPDEST PUSH0 PUSH2 0x1B70 DUP3 PUSH2 0x1AD3 JUMP JUMPDEST SWAP1 POP SWAP2 SWAP1 POP JUMP JUMPDEST PUSH2 0x1B80 DUP2 PUSH2 0x1B66 JUMP JUMPDEST DUP2 EQ PUSH2 0x1B8A JUMPI PUSH0 DUP1 REVERT JUMPDEST POP JUMP JUMPDEST PUSH0 DUP2 CALLDATALOAD SWAP1 POP PUSH2 0x1B9B DUP2 PUSH2 0x1B77 JUMP JUMPDEST SWAP3 SWAP2 POP POP JUMP JUMPDEST PUSH0 PUSH1 0x20 DUP3 DUP5 SUB SLT ISZERO PUSH2 0x1BB6 JUMPI PUSH2 0x1BB5 PUSH2 0x193E JUMP JUMPDEST JUMPDEST PUSH0 PUSH2 0x1BC3 DUP5 DUP3 DUP6 ADD PUSH2 0x1B8D JUMP JUMPDEST SWAP2 POP POP SWAP3 SWAP2 POP POP JUMP JUMPDEST PUSH2 0x1BD5 DUP2 PUSH2 0x1946 JUMP JUMPDEST DUP3 MSTORE POP POP JUMP JUMPDEST PUSH0 PUSH1 0xA0 DUP3 ADD SWAP1 POP PUSH2 0x1BEE PUSH0 DUP4 ADD DUP9 PUSH2 0x1BCC JUMP JUMPDEST PUSH2 0x1BFB PUSH1 0x20 DUP4 ADD DUP8 PUSH2 0x1BCC JUMP JUMPDEST PUSH2 0x1C08 PUSH1 0x40 DUP4 ADD DUP7 PUSH2 0x1916 JUMP JUMPDEST PUSH2 0x1C15 PUSH1 0x60 DUP4 ADD DUP6 PUSH2 0x1AAB JUMP JUMPDEST PUSH2 0x1C22 PUSH1 0x80 DUP4 ADD DUP5 PUSH2 0x1916 JUMP JUMPDEST SWAP7 SWAP6 POP POP POP POP POP POP JUMP JUMPDEST PUSH2 0x1C35 DUP2 PUSH2 0x1B66 JUMP JUMPDEST DUP3 MSTORE POP POP JUMP JUMPDEST PUSH0 PUSH1 0x20 DUP3 ADD SWAP1 POP PUSH2 0x1C4E PUSH0 DUP4 ADD DUP5 PUSH2 0x1C2C JUMP JUMPDEST SWAP3 SWAP2 POP POP JUMP JUMPDEST PUSH2 0x1C5D DUP2 PUSH2 0x1946 JUMP JUMPDEST DUP3 MSTORE POP POP JUMP JUMPDEST PUSH2 0x1C6C DUP2 PUSH2 0x190D JUMP JUMPDEST DUP3 MSTORE POP POP JUMP JUMPDEST PUSH2 0x1C7B DUP2 PUSH2 0x1AA0 JUMP JUMPDEST DUP3 MSTORE POP POP JUMP JUMPDEST PUSH1 0xA0 DUP3 ADD PUSH0 DUP3 ADD MLOAD PUSH2 0x1C95 PUSH0 DUP6 ADD DUP3 PUSH2 0x1C54 JUMP JUMPDEST POP PUSH1 0x20 DUP3 ADD MLOAD PUSH2 0x1CA8 PUSH1 0x20 DUP6 ADD DUP3 PUSH2 0x1C54 JUMP JUMPDEST POP PUSH1 0x40 DUP3 ADD MLOAD PUSH2 0x1CBB PUSH1 0x40 DUP6 ADD DUP3 PUSH2 0x1C63 JUMP JUMPDEST POP PUSH1 0x60 DUP3 ADD MLOAD PUSH2 0x1CCE PUSH1 0x60 DUP6 ADD DUP3 PUSH2 0x1C72 JUMP JUMPDEST POP PUSH1 0x80 DUP3 ADD MLOAD PUSH2 0x1CE1 PUSH1 0x80 DUP6 ADD DUP3 PUSH2 0x1C63 JUMP JUMPDEST POP POP POP POP JUMP JUMPDEST PUSH0 PUSH1 0xA0 DUP3 ADD SWAP1 POP PUSH2 0x1CFA PUSH0 DUP4 ADD DUP5 PUSH2 0x1C81 JUMP JUMPDEST SWAP3 SWAP2 POP POP JUMP JUMPDEST PUSH0 DUP1 PUSH0 DUP1 PUSH0 DUP1 PUSH1 0xA0 DUP8 DUP10 SUB SLT ISZERO PUSH2 0x1D1A JUMPI PUSH2 0x1D19 PUSH2 0x193E JUMP JUMPDEST JUMPDEST PUSH0 PUSH2 0x1D27 DUP10 DUP3 DUP11 ADD PUSH2 0x1965 JUMP JUMPDEST SWAP7 POP POP PUSH1 0x20 PUSH2 0x1D38 DUP10 DUP3 DUP11 ADD PUSH2 0x1965 JUMP JUMPDEST SWAP6 POP POP PUSH1 0x40 PUSH2 0x1D49 DUP10 DUP3 DUP11 ADD PUSH2 0x1B8D JUMP JUMPDEST SWAP5 POP POP PUSH1 0x60 PUSH2 0x1D5A DUP10 DUP3 DUP11 ADD PUSH2 0x198F JUMP JUMPDEST SWAP4 POP POP PUSH1 0x80 DUP8 ADD CALLDATALOAD PUSH8 0xFFFFFFFFFFFFFFFF DUP2 GT ISZERO PUSH2 0x1D7B JUMPI PUSH2 0x1D7A PUSH2 0x1942 JUMP JUMPDEST JUMPDEST PUSH2 0x1D87 DUP10 DUP3 DUP11 ADD PUSH2 0x19AF JUMP JUMPDEST SWAP3 POP SWAP3 POP POP SWAP3 SWAP6 POP SWAP3 SWAP6 POP SWAP3 SWAP6 JUMP JUMPDEST PUSH0 PUSH2 0x1DA0 DUP3 PUSH2 0x1B1C JUMP JUMPDEST SWAP1 POP SWAP2 SWAP1 POP JUMP JUMPDEST PUSH2 0x1DB0 DUP2 PUSH2 0x1D96 JUMP JUMPDEST DUP3 MSTORE POP POP JUMP JUMPDEST PUSH0 PUSH1 0x20 DUP3 ADD SWAP1 POP PUSH2 0x1DC9 PUSH0 DUP4 ADD DUP5 PUSH2 0x1DA7 JUMP JUMPDEST SWAP3 SWAP2 POP POP JUMP JUMPDEST PUSH0 DUP2 MLOAD SWAP1 POP PUSH2 0x1DDD DUP2 PUSH2 0x1979 JUMP JUMPDEST SWAP3 SWAP2 POP POP JUMP JUMPDEST PUSH0 PUSH1 0x20 DUP3 DUP5 SUB SLT ISZERO PUSH2 0x1DF8 JUMPI PUSH2 0x1DF7 PUSH2 0x193E JUMP JUMPDEST JUMPDEST PUSH0 PUSH2 0x1E05 DUP5 DUP3 DUP6 ADD PUSH2 0x1DCF JUMP JUMPDEST SWAP2 POP POP SWAP3 SWAP2 POP POP JUMP JUMPDEST PUSH0 DUP3 DUP3 MSTORE PUSH1 0x20 DUP3 ADD SWAP1 POP SWAP3 SWAP2 POP POP JUMP JUMPDEST PUSH32 0x496E76616C696420636F6D6D69746D656E740000000000000000000000000000 PUSH0 DUP3 ADD MSTORE POP JUMP JUMPDEST PUSH0 PUSH2 0x1E52 PUSH1 0x12 DUP4 PUSH2 0x1E0E JUMP JUMPDEST SWAP2 POP PUSH2 0x1E5D DUP3 PUSH2 0x1E1E JUMP JUMPDEST PUSH1 0x20 DUP3 ADD SWAP1 POP SWAP2 SWAP1 POP JUMP JUMPDEST PUSH0 PUSH1 0x20 DUP3 ADD SWAP1 POP DUP2 DUP2 SUB PUSH0 DUP4 ADD MSTORE PUSH2 0x1E7F DUP2 PUSH2 0x1E46 JUMP JUMPDEST SWAP1 POP SWAP2 SWAP1 POP JUMP JUMPDEST PUSH32 0x416D6F756E742062656C6F77206D696E696D756D000000000000000000000000 PUSH0 DUP3 ADD MSTORE POP JUMP JUMPDEST PUSH0 PUSH2 0x1EBA PUSH1 0x14 DUP4 PUSH2 0x1E0E JUMP JUMPDEST SWAP2 POP PUSH2 0x1EC5 DUP3 PUSH2 0x1E86 JUMP JUMPDEST PUSH1 0x20 DUP3 ADD SWAP1 POP SWAP2 SWAP1 POP JUMP JUMPDEST PUSH0 PUSH1 0x20 DUP3 ADD SWAP1 POP DUP2 DUP2 SUB PUSH0 DUP4 ADD MSTORE PUSH2 0x1EE7 DUP2 PUSH2 0x1EAE JUMP JUMPDEST SWAP1 POP SWAP2 SWAP1 POP JUMP JUMPDEST PUSH32 0x416D6F756E742061626F7665206D6178696D756D000000000000000000000000 PUSH0 DUP3 ADD MSTORE POP JUMP JUMPDEST PUSH0 PUSH2 0x1F22 PUSH1 0x14 DUP4 PUSH2 0x1E0E JUMP JUMPDEST SWAP2 POP PUSH2 0x1F2D DUP3 PUSH2 0x1EEE JUMP JUMPDEST PUSH1 0x20 DUP3 ADD SWAP1 POP SWAP2 SWAP1 POP JUMP JUMPDEST PUSH0 PUSH1 0x20 DUP3 ADD SWAP1 POP DUP2 DUP2 SUB PUSH0 DUP4 ADD MSTORE PUSH2 0x1F4F DUP2 PUSH2 0x1F16 JUMP JUMPDEST SWAP1 POP SWAP2 SWAP1 POP JUMP JUMPDEST PUSH32 0x436F6D6D69746D656E7420657869737473000000000000000000000000000000 PUSH0 DUP3 ADD MSTORE POP JUMP JUMPDEST PUSH0 PUSH2 0x1F8A PUSH1 0x11 DUP4 PUSH2 0x1E0E JUMP JUMPDEST SWAP2 POP PUSH2 0x1F95 DUP3 PUSH2 0x1F56 JUMP JUMPDEST PUSH1 0x20 DUP3 ADD SWAP1 POP SWAP2 SWAP1 POP JUMP JUMPDEST PUSH0 PUSH1 0x20 DUP3 ADD SWAP1 POP DUP2 DUP2 SUB PUSH0 DUP4 ADD MSTORE PUSH2 0x1FB7 DUP2 PUSH2 0x1F7E JUMP JUMPDEST SWAP1 POP SWAP2 SWAP1 POP JUMP JUMPDEST PUSH32 0x456D7074792070726F6F66000000000000000000000000000000000000000000 PUSH0 DUP3 ADD MSTORE POP JUMP JUMPDEST PUSH0 PUSH2 0x1FF2 PUSH1 0xB DUP4 PUSH2 0x1E0E JUMP JUMPDEST SWAP2 POP PUSH2 0x1FFD DUP3 PUSH2 0x1FBE JUMP JUMPDEST PUSH1 0x20 DUP3 ADD SWAP1 POP SWAP2 SWAP1 POP JUMP JUMPDEST PUSH0 PUSH1 0x20 DUP3 ADD SWAP1 POP DUP2 DUP2 SUB PUSH0 DUP4 ADD MSTORE PUSH2 0x201F DUP2 PUSH2 0x1FE6 JUMP JUMPDEST SWAP1 POP SWAP2 SWAP1 POP JUMP JUMPDEST PUSH0 DUP3 DUP3 MSTORE PUSH1 0x20 DUP3 ADD SWAP1 POP SWAP3 SWAP2 POP POP JUMP JUMPDEST DUP3 DUP2 DUP4 CALLDATACOPY PUSH0 DUP4 DUP4 ADD MSTORE POP POP POP JUMP JUMPDEST PUSH0 PUSH1 0x1F NOT PUSH1 0x1F DUP4 ADD AND SWAP1 POP SWAP2 SWAP1 POP JUMP JUMPDEST PUSH0 PUSH2 0x205F DUP4 DUP6 PUSH2 0x2026 JUMP JUMPDEST SWAP4 POP PUSH2 0x206C DUP4 DUP6 DUP5 PUSH2 0x2036 JUMP JUMPDEST PUSH2 0x2075 DUP4 PUSH2 0x2044 JUMP JUMPDEST DUP5 ADD SWAP1 POP SWAP4 SWAP3 POP POP POP JUMP JUMPDEST PUSH0 PUSH1 0x80 DUP3 ADD SWAP1 POP PUSH2 0x2093 PUSH0 DUP4 ADD DUP9 PUSH2 0x1BCC JUMP JUMPDEST PUSH2 0x20A0 PUSH1 0x20 DUP4 ADD DUP8 PUSH2 0x1916 JUMP JUMPDEST PUSH2 0x20AD PUSH1 0x40 DUP4 ADD DUP7 PUSH2 0x1C2C JUMP JUMPDEST DUP2 DUP2 SUB PUSH1 0x60 DUP4 ADD MSTORE PUSH2 0x20C0 DUP2 DUP5 DUP7 PUSH2 0x2054 JUMP JUMPDEST SWAP1 POP SWAP7 SWAP6 POP POP POP POP POP POP JUMP JUMPDEST PUSH2 0x20D5 DUP2 PUSH2 0x1AA0 JUMP JUMPDEST DUP2 EQ PUSH2 0x20DF JUMPI PUSH0 DUP1 REVERT JUMPDEST POP JUMP JUMPDEST PUSH0 DUP2 MLOAD SWAP1 POP PUSH2 0x20F0 DUP2 PUSH2 0x20CC JUMP JUMPDEST SWAP3 SWAP2 POP POP JUMP JUMPDEST PUSH0 PUSH1 0x20 DUP3 DUP5 SUB SLT ISZERO PUSH2 0x210B JUMPI PUSH2 0x210A PUSH2 0x193E JUMP JUMPDEST JUMPDEST PUSH0 PUSH2 0x2118 DUP5 DUP3 DUP6 ADD PUSH2 0x20E2 JUMP JUMPDEST SWAP2 POP POP SWAP3 SWAP2 POP POP JUMP JUMPDEST PUSH32 0x496E76616C69642070726F6F6600000000000000000000000000000000000000 PUSH0 DUP3 ADD MSTORE POP JUMP JUMPDEST PUSH0 PUSH2 0x2155 PUSH1 0xD DUP4 PUSH2 0x1E0E JUMP JUMPDEST SWAP2 POP PUSH2 0x2160 DUP3 PUSH2 0x2121 JUMP JUMPDEST PUSH1 0x20 DUP3 ADD SWAP1 POP SWAP2 SWAP1 POP JUMP JUMPDEST PUSH0 PUSH1 0x20 DUP3 ADD SWAP1 POP DUP2 DUP2 SUB PUSH0 DUP4 ADD MSTORE PUSH2 0x2182 DUP2 PUSH2 0x2149 JUMP JUMPDEST SWAP1 POP SWAP2 SWAP1 POP JUMP JUMPDEST PUSH0 PUSH1 0x60 DUP3 ADD SWAP1 POP PUSH2 0x219C PUSH0 DUP4 ADD DUP7 PUSH2 0x1C2C JUMP JUMPDEST PUSH2 0x21A9 PUSH1 0x20 DUP4 ADD DUP6 PUSH2 0x1C2C JUMP JUMPDEST PUSH2 0x21B6 PUSH1 0x40 DUP4 ADD DUP5 PUSH2 0x1916 JUMP JUMPDEST SWAP5 SWAP4 POP POP POP POP JUMP JUMPDEST PUSH32 0x5472616E73666572206661696C65640000000000000000000000000000000000 PUSH0 DUP3 ADD MSTORE POP JUMP JUMPDEST PUSH0 PUSH2 0x21F2 PUSH1 0xF DUP4 PUSH2 0x1E0E JUMP JUMPDEST SWAP2 POP PUSH2 0x21FD DUP3 PUSH2 0x21BE JUMP JUMPDEST PUSH1 0x20 DUP3 ADD SWAP1 POP SWAP2 SWAP1 POP JUMP JUMPDEST PUSH0 PUSH1 0x20 DUP3 ADD SWAP1 POP DUP2 DUP2 SUB PUSH0 DUP4 ADD MSTORE PUSH2 0x221F DUP2 PUSH2 0x21E6 JUMP JUMPDEST SWAP1 POP SWAP2 SWAP1 POP JUMP JUMPDEST PUSH32 0x4E487B7100000000000000000000000000000000000000000000000000000000 PUSH0 MSTORE PUSH1 0x11 PUSH1 0x4 MSTORE PUSH1 0x24 PUSH0 REVERT JUMPDEST PUSH0 PUSH2 0x225D DUP3 PUSH2 0x190D JUMP JUMPDEST SWAP2 POP PUSH2 0x2268 DUP4 PUSH2 0x190D JUMP JUMPDEST SWAP3 POP DUP3 DUP3 ADD SWAP1 POP DUP1 DUP3 GT ISZERO PUSH2 0x2280 JUMPI PUSH2 0x227F PUSH2 0x2226 JUMP JUMPDEST JUMPDEST SWAP3 SWAP2 POP POP JUMP JUMPDEST PUSH32 0x496E76616C6964207472616E7366657220616D6F756E74000000000000000000 PUSH0 DUP3 ADD MSTORE POP JUMP JUMPDEST PUSH0 PUSH2 0x22BA PUSH1 0x17 DUP4 PUSH2 0x1E0E JUMP JUMPDEST SWAP2 POP PUSH2 0x22C5 DUP3 PUSH2 0x2286 JUMP JUMPDEST PUSH1 0x20 DUP3 ADD SWAP1 POP SWAP2 SWAP1 POP JUMP JUMPDEST PUSH0 PUSH1 0x20 DUP3 ADD SWAP1 POP DUP2 DUP2 SUB PUSH0 DUP4 ADD MSTORE PUSH2 0x22E7 DUP2 PUSH2 0x22AE JUMP JUMPDEST SWAP1 POP SWAP2 SWAP1 POP JUMP JUMPDEST PUSH0 PUSH1 0x40 DUP3 ADD SWAP1 POP PUSH2 0x2301 PUSH0 DUP4 ADD DUP6 PUSH2 0x1916 JUMP JUMPDEST PUSH2 0x230E PUSH1 0x20 DUP4 ADD DUP5 PUSH2 0x1916 JUMP JUMPDEST SWAP4 SWAP3 POP POP POP JUMP JUMPDEST PUSH32 0x496E76616C696420766572696669657220616464726573730000000000000000 PUSH0 DUP3 ADD MSTORE POP JUMP JUMPDEST PUSH0 PUSH2 0x2349 PUSH1 0x18 DUP4 PUSH2 0x1E0E JUMP JUMPDEST SWAP2 POP PUSH2 0x2354 DUP3 PUSH2 0x2315 JUMP JUMPDEST PUSH1 0x20 DUP3 ADD SWAP1 POP SWAP2 SWAP1 POP JUMP JUMPDEST PUSH0 PUSH1 0x20 DUP3 ADD SWAP1 POP DUP2 DUP2 SUB PUSH0 DUP4 ADD MSTORE PUSH2 0x2376 DUP2 PUSH2 0x233D JUMP JUMPDEST SWAP1 POP SWAP2 SWAP1 POP JUMP JUMPDEST PUSH32 0x496E76616C6964206E756C6C6966696572000000000000000000000000000000 PUSH0 DUP3 ADD MSTORE POP JUMP JUMPDEST PUSH0 PUSH2 0x23B1 PUSH1 0x11 DUP4 PUSH2 0x1E0E JUMP JUMPDEST SWAP2 POP PUSH2 0x23BC DUP3 PUSH2 0x237D JUMP JUMPDEST PUSH1 0x20 DUP3 ADD SWAP1 POP SWAP2 SWAP1 POP JUMP JUMPDEST PUSH0 PUSH1 0x20 DUP3 ADD SWAP1 POP DUP2 DUP2 SUB PUSH0 DUP4 ADD MSTORE PUSH2 0x23DE DUP2 PUSH2 0x23A5 JUMP JUMPDEST SWAP1 POP SWAP2 SWAP1 POP JUMP JUMPDEST PUSH32 0x496E76616C696420726563697069656E74000000000000000000000000000000 PUSH0 DUP3 ADD MSTORE POP JUMP JUMPDEST PUSH0 PUSH2 0x2419 PUSH1 0x11 DUP4 PUSH2 0x1E0E JUMP JUMPDEST SWAP2 POP PUSH2 0x2424 DUP3 PUSH2 0x23E5 JUMP JUMPDEST PUSH1 0x20 DUP3 ADD SWAP1 POP SWAP2 SWAP1 POP JUMP JUMPDEST PUSH0 PUSH1 0x20 DUP3 ADD SWAP1 POP DUP2 DUP2 SUB PUSH0 DUP4 ADD MSTORE PUSH2 0x2446 DUP2 PUSH2 0x240D JUMP JUMPDEST SWAP1 POP SWAP2 SWAP1 POP JUMP JUMPDEST PUSH32 0x496E76616C696420616D6F756E74000000000000000000000000000000000000 PUSH0 DUP3 ADD MSTORE POP JUMP JUMPDEST PUSH0 PUSH2 0x2481 PUSH1 0xE DUP4 PUSH2 0x1E0E JUMP JUMPDEST SWAP2 POP PUSH2 0x248C DUP3 PUSH2 0x244D JUMP JUMPDEST PUSH1 0x20 DUP3 ADD SWAP1 POP SWAP2 SWAP1 POP JUMP JUMPDEST PUSH0 PUSH1 0x20 DUP3 ADD SWAP1 POP DUP2 DUP2 SUB PUSH0 DUP4 ADD MSTORE PUSH2 0x24AE DUP2 PUSH2 0x2475 JUMP JUMPDEST SWAP1 POP SWAP2 SWAP1 POP JUMP JUMPDEST PUSH32 0x4E756C6C69666965722075736564000000000000000000000000000000000000 PUSH0 DUP3 ADD MSTORE POP JUMP JUMPDEST PUSH0 PUSH2 0x24E9 PUSH1 0xE DUP4 PUSH2 0x1E0E JUMP JUMPDEST SWAP2 POP PUSH2 0x24F4 DUP3 PUSH2 0x24B5 JUMP JUMPDEST PUSH1 0x20 DUP3 ADD SWAP1 POP SWAP2 SWAP1 POP JUMP JUMPDEST PUSH0 PUSH1 0x20 DUP3 ADD SWAP1 POP DUP2 DUP2 SUB PUSH0 DUP4 ADD MSTORE PUSH2 0x2516 DUP2 PUSH2 0x24DD JUMP JUMPDEST SWAP1 POP SWAP2 SWAP1 POP JUMP JUMPDEST PUSH32 0x4E6F7465206E6F7420666F756E64000000000000000000000000000000000000 PUSH0 DUP3 ADD MSTORE POP JUMP JUMPDEST PUSH0 PUSH2 0x2551 PUSH1 0xE DUP4 PUSH2 0x1E0E JUMP JUMPDEST SWAP2 POP PUSH2 0x255C DUP3 PUSH2 0x251D JUMP JUMPDEST PUSH1 0x20 DUP3 ADD SWAP1 POP SWAP2 SWAP1 POP JUMP JUMPDEST PUSH0 PUSH1 0x20 DUP3 ADD SWAP1 POP DUP2 DUP2 SUB PUSH0 DUP4 ADD MSTORE PUSH2 0x257E DUP2 PUSH2 0x2545 JUMP JUMPDEST SWAP1 POP SWAP2 SWAP1 POP JUMP JUMPDEST PUSH32 0x4E6F7465207370656E7400000000000000000000000000000000000000000000 PUSH0 DUP3 ADD MSTORE POP JUMP JUMPDEST PUSH0 PUSH2 0x25B9 PUSH1 0xA DUP4 PUSH2 0x1E0E JUMP JUMPDEST SWAP2 POP PUSH2 0x25C4 DUP3 PUSH2 0x2585 JUMP JUMPDEST PUSH1 0x20 DUP3 ADD SWAP1 POP SWAP2 SWAP1 POP JUMP JUMPDEST PUSH0 PUSH1 0x20 DUP3 ADD SWAP1 POP DUP2 DUP2 SUB PUSH0 DUP4 ADD MSTORE PUSH2 0x25E6 DUP2 PUSH2 0x25AD JUMP JUMPDEST SWAP1 POP SWAP2 SWAP1 POP JUMP JUMPDEST PUSH32 0x496E73756666696369656E742062616C616E6365000000000000000000000000 PUSH0 DUP3 ADD MSTORE POP JUMP JUMPDEST PUSH0 PUSH2 0x2621 PUSH1 0x14 DUP4 PUSH2 0x1E0E JUMP JUMPDEST SWAP2 POP PUSH2 0x262C DUP3 PUSH2 0x25ED JUMP JUMPDEST PUSH1 0x20 DUP3 ADD SWAP1 POP SWAP2 SWAP1 POP JUMP JUMPDEST PUSH0 PUSH1 0x20 DUP3 ADD SWAP1 POP DUP2 DUP2 SUB PUSH0 DUP4 ADD MSTORE PUSH2 0x264E DUP2 PUSH2 0x2615 JUMP JUMPDEST SWAP1 POP SWAP2 SWAP1 POP JUMP JUMPDEST PUSH0 PUSH1 0xA0 DUP3 ADD SWAP1 POP PUSH2 0x2668 PUSH0 DUP4 ADD DUP10 PUSH2 0x1BCC JUMP JUMPDEST PUSH2 0x2675 PUSH1 0x20 DUP4 ADD DUP9 PUSH2 0x1BCC JUMP JUMPDEST PUSH2 0x2682 PUSH1 0x40 DUP4 ADD DUP8 PUSH2 0x1C2C JUMP JUMPDEST PUSH2 0x268F PUSH1 0x60 DUP4 ADD DUP7 PUSH2 0x1916 JUMP JUMPDEST DUP2 DUP2 SUB PUSH1 0x80 DUP4 ADD MSTORE PUSH2 0x26A2 DUP2 DUP5 DUP7 PUSH2 0x2054 JUMP JUMPDEST SWAP1 POP SWAP8 SWAP7 POP POP POP POP POP POP POP JUMP JUMPDEST PUSH0 PUSH1 0x40 DUP3 ADD SWAP1 POP PUSH2 0x26C2 PUSH0 DUP4 ADD DUP6 PUSH2 0x1C2C JUMP JUMPDEST PUSH2 0x26CF PUSH1 0x20 DUP4 ADD DUP5 PUSH2 0x1916 JUMP JUMPDEST SWAP4 SWAP3 POP POP POP JUMP JUMPDEST PUSH32 0x4E6F2062616C616E636500000000000000000000000000000000000000000000 PUSH0 DUP3 ADD MSTORE POP JUMP JUMPDEST PUSH0 PUSH2 0x270A PUSH1 0xA DUP4 PUSH2 0x1E0E JUMP JUMPDEST SWAP2 POP PUSH2 0x2715 DUP3 PUSH2 0x26D6 JUMP JUMPDEST PUSH1 0x20 DUP3 ADD SWAP1 POP SWAP2 SWAP1 POP JUMP JUMPDEST PUSH0 PUSH1 0x20 DUP3 ADD SWAP1 POP DUP2 DUP2 SUB PUSH0 DUP4 ADD MSTORE PUSH2 0x2737 DUP2 PUSH2 0x26FE JUMP JUMPDEST SWAP1 POP SWAP2 SWAP1 POP JUMP INVALID LOG2 PUSH5 0x6970667358 0x22 SLT KECCAK256 EXTCODEHASH 0xA8 SWAP3 SIGNEXTEND JUMP 0x21 SHL SAR 0xD0 DUP13 0xA5 SUB 0x21 0xB9 PUSH20 0xDF946B67D1762018EF7506AB04708F79B264736F PUSH13 0x634300081A0033000000000000 "
				},
				"gasEstimates": {
					"creation": {
						"codeDepositCost": "2020000",
						"executionCost": "infinite",
						"totalCost": "infinite"
					},
					"external": {
						"MAX_DEPOSIT()": "369",
						"MIN_DEPOSIT()": "391",
						"deposit(bytes32,uint256,bytes)": "infinite",
						"emergencyWithdraw()": "infinite",
						"getBalance()": "infinite",
						"getNoteDetails(bytes32)": "infinite",
						"isNullifierUsed(bytes32)": "2878",
						"notes(bytes32)": "infinite",
						"nullifierUsed(bytes32)": "2896",
						"owner()": "2582",
						"pause()": "infinite",
						"paused()": "2540",
						"renounceOwnership()": "infinite",
						"setVerifier(address)": "infinite",
						"token()": "infinite",
						"transferOwnership(address)": "infinite",
						"unpause()": "infinite",
						"verifier()": "infinite",
						"withdraw(bytes32,bytes32,address,uint256,bytes)": "infinite"
					}
				},
				"methodIdentifiers": {
					"MAX_DEPOSIT()": "dd5967c3",
					"MIN_DEPOSIT()": "e1e158a5",
					"deposit(bytes32,uint256,bytes)": "1acc8486",
					"emergencyWithdraw()": "db2e21bc",
					"getBalance()": "12065fe0",
					"getNoteDetails(bytes32)": "9d280f51",
					"isNullifierUsed(bytes32)": "22dc7b4c",
					"notes(bytes32)": "85de26b7",
					"nullifierUsed(bytes32)": "7ecf686d",
					"owner()": "8da5cb5b",
					"pause()": "8456cb59",
					"paused()": "5c975abb",
					"renounceOwnership()": "715018a6",
					"setVerifier(address)": "5437988d",
					"token()": "fc0c546a",
					"transferOwnership(address)": "f2fde38b",
					"unpause()": "3f4ba83a",
					"verifier()": "2b7ac3f3",
					"withdraw(bytes32,bytes32,address,uint256,bytes)": "b3f15741"
				}
			},
			"storageLayout": {
				"storage": [
					{
						"astId": 8,
						"contract": "core/PrivacyPool.sol:PrivacyPool",
						"label": "_owner",
						"offset": 0,
						"slot": "0",
						"type": "t_address"
					},
					{
						"astId": 383,
						"contract": "core/PrivacyPool.sol:PrivacyPool",
						"label": "_status",
						"offset": 0,
						"slot": "1",
						"type": "t_uint256"
					},
					{
						"astId": 264,
						"contract": "core/PrivacyPool.sol:PrivacyPool",
						"label": "_paused",
						"offset": 0,
						"slot": "2",
						"type": "t_bool"
					},
					{
						"astId": 457,
						"contract": "core/PrivacyPool.sol:PrivacyPool",
						"label": "verifier",
						"offset": 1,
						"slot": "2",
						"type": "t_contract(IVerifier)1120"
					},
					{
						"astId": 460,
						"contract": "core/PrivacyPool.sol:PrivacyPool",
						"label": "token",
						"offset": 0,
						"slot": "3",
						"type": "t_contract(IERC20)225"
					},
					{
						"astId": 482,
						"contract": "core/PrivacyPool.sol:PrivacyPool",
						"label": "notes",
						"offset": 0,
						"slot": "4",
						"type": "t_mapping(t_bytes32,t_struct(Note)477_storage)"
					},
					{
						"astId": 486,
						"contract": "core/PrivacyPool.sol:PrivacyPool",
						"label": "nullifierUsed",
						"offset": 0,
						"slot": "5",
						"type": "t_mapping(t_bytes32,t_bool)"
					}
				],
				"types": {
					"t_address": {
						"encoding": "inplace",
						"label": "address",
						"numberOfBytes": "20"
					},
					"t_bool": {
						"encoding": "inplace",
						"label": "bool",
						"numberOfBytes": "1"
					},
					"t_bytes32": {
						"encoding": "inplace",
						"label": "bytes32",
						"numberOfBytes": "32"
					},
					"t_contract(IERC20)225": {
						"encoding": "inplace",
						"label": "contract IERC20",
						"numberOfBytes": "20"
					},
					"t_contract(IVerifier)1120": {
						"encoding": "inplace",
						"label": "contract IVerifier",
						"numberOfBytes": "20"
					},
					"t_mapping(t_bytes32,t_bool)": {
						"encoding": "mapping",
						"key": "t_bytes32",
						"label": "mapping(bytes32 => bool)",
						"numberOfBytes": "32",
						"value": "t_bool"
					},
					"t_mapping(t_bytes32,t_struct(Note)477_storage)": {
						"encoding": "mapping",
						"key": "t_bytes32",
						"label": "mapping(bytes32 => struct PrivacyPool.Note)",
						"numberOfBytes": "32",
						"value": "t_struct(Note)477_storage"
					},
					"t_struct(Note)477_storage": {
						"encoding": "inplace",
						"label": "struct PrivacyPool.Note",
						"members": [
							{
								"astId": 468,
								"contract": "core/PrivacyPool.sol:PrivacyPool",
								"label": "commitment",
								"offset": 0,
								"slot": "0",
								"type": "t_bytes32"
							},
							{
								"astId": 470,
								"contract": "core/PrivacyPool.sol:PrivacyPool",
								"label": "nullifier",
								"offset": 0,
								"slot": "1",
								"type": "t_bytes32"
							},
							{
								"astId": 472,
								"contract": "core/PrivacyPool.sol:PrivacyPool",
								"label": "amount",
								"offset": 0,
								"slot": "2",
								"type": "t_uint256"
							},
							{
								"astId": 474,
								"contract": "core/PrivacyPool.sol:PrivacyPool",
								"label": "spent",
								"offset": 0,
								"slot": "3",
								"type": "t_bool"
							},
							{
								"astId": 476,
								"contract": "core/PrivacyPool.sol:PrivacyPool",
								"label": "timestamp",
								"offset": 0,
								"slot": "4",
								"type": "t_uint256"
							}
						],
						"numberOfBytes": "160"
					},
					"t_uint256": {
						"encoding": "inplace",
						"label": "uint256",
						"numberOfBytes": "32"
					}
				}
			},
			"userdoc": {
				"kind": "user",
				"methods": {
					"deposit(bytes32,uint256,bytes)": {
						"notice": "Deposit tokens into privacy pool"
					},
					"emergencyWithdraw()": {
						"notice": "Emergency token withdrawal by owner"
					},
					"getBalance()": {
						"notice": "Get pool balance"
					},
					"getNoteDetails(bytes32)": {
						"notice": "Get note details"
					},
					"isNullifierUsed(bytes32)": {
						"notice": "Check if nullifier has been used"
					},
					"pause()": {
						"notice": "Emergency pause"
					},
					"setVerifier(address)": {
						"notice": "Update verifier contract"
					},
					"unpause()": {
						"notice": "Unpause"
					},
					"withdraw(bytes32,bytes32,address,uint256,bytes)": {
						"notice": "Withdraw tokens from privacy pool"
					}
				},
				"version": 1
			}
		}
	}
}