{
	"core/FileRegistry.sol": {
		"FileRegistry": {
			"abi": [
				{
					"inputs": [],
					"stateMutability": "nonpayable",
					"type": "constructor"
				},
				{
					"inputs": [
						{
							"internalType": "address",
							"name": "owner",
							"type": "address"
						}
					],
					"name": "OwnableInvalidOwner",
					"type": "error"
				},
				{
					"inputs": [
						{
							"internalType": "address",
							"name": "account",
							"type": "address"
						}
					],
					"name": "OwnableUnauthorizedAccount",
					"type": "error"
				},
				{
					"inputs": [],
					"name": "ReentrancyGuardReentrantCall",
					"type": "error"
				},
				{
					"anonymous": false,
					"inputs": [
						{
							"indexed": true,
							"internalType": "bytes32",
							"name": "fileHash",
							"type": "bytes32"
						},
						{
							"indexed": true,
							"internalType": "address",
							"name": "user",
							"type": "address"
						},
						{
							"indexed": false,
							"internalType": "bool",
							"name": "canAccess",
							"type": "bool"
						}
					],
					"name": "FileAccessChanged",
					"type": "event"
				},
				{
					"anonymous": false,
					"inputs": [
						{
							"indexed": true,
							"internalType": "bytes32",
							"name": "fileHash",
							"type": "bytes32"
						},
						{
							"indexed": false,
							"internalType": "string",
							"name": "fileName",
							"type": "string"
						},
						{
							"indexed": true,
							"internalType": "address",
							"name": "owner",
							"type": "address"
						},
						{
							"indexed": false,
							"internalType": "uint256",
							"name": "size",
							"type": "uint256"
						}
					],
					"name": "FileAdded",
					"type": "event"
				},
				{
					"anonymous": false,
					"inputs": [
						{
							"indexed": true,
							"internalType": "address",
							"name": "previousOwner",
							"type": "address"
						},
						{
							"indexed": true,
							"internalType": "address",
							"name": "newOwner",
							"type": "address"
						}
					],
					"name": "OwnershipTransferred",
					"type": "event"
				},
				{
					"inputs": [
						{
							"internalType": "bytes32",
							"name": "_fileHash",
							"type": "bytes32"
						},
						{
							"internalType": "string",
							"name": "_fileName",
							"type": "string"
						},
						{
							"internalType": "address",
							"name": "_owner",
							"type": "address"
						},
						{
							"internalType": "uint256",
							"name": "_size",
							"type": "uint256"
						}
					],
					"name": "addFile",
					"outputs": [],
					"stateMutability": "nonpayable",
					"type": "function"
				},
				{
					"inputs": [
						{
							"internalType": "bytes32",
							"name": "_fileHash",
							"type": "bytes32"
						},
						{
							"internalType": "address",
							"name": "_user",
							"type": "address"
						}
					],
					"name": "checkAccess",
					"outputs": [
						{
							"internalType": "bool",
							"name": "",
							"type": "bool"
						}
					],
					"stateMutability": "view",
					"type": "function"
				},
				{
					"inputs": [
						{
							"internalType": "bytes32",
							"name": "_fileHash",
							"type": "bytes32"
						}
					],
					"name": "getFileInfo",
					"outputs": [
						{
							"internalType": "string",
							"name": "fileName",
							"type": "string"
						},
						{
							"internalType": "address",
							"name": "owner",
							"type": "address"
						},
						{
							"internalType": "uint256",
							"name": "size",
							"type": "uint256"
						},
						{
							"internalType": "uint256",
							"name": "timestamp",
							"type": "uint256"
						}
					],
					"stateMutability": "view",
					"type": "function"
				},
				{
					"inputs": [
						{
							"internalType": "address",
							"name": "_user",
							"type": "address"
						}
					],
					"name": "getUserFiles",
					"outputs": [
						{
							"internalType": "bytes32[]",
							"name": "",
							"type": "bytes32[]"
						}
					],
					"stateMutability": "view",
					"type": "function"
				},
				{
					"inputs": [],
					"name": "owner",
					"outputs": [
						{
							"internalType": "address",
							"name": "",
							"type": "address"
						}
					],
					"stateMutability": "view",
					"type": "function"
				},
				{
					"inputs": [],
					"name": "renounceOwnership",
					"outputs": [],
					"stateMutability": "nonpayable",
					"type": "function"
				},
				{
					"inputs": [
						{
							"internalType": "bytes32",
							"name": "_fileHash",
							"type": "bytes32"
						},
						{
							"internalType": "address",
							"name": "_user",
							"type": "address"
						},
						{
							"internalType": "bool",
							"name": "_canAccess",
							"type": "bool"
						}
					],
					"name": "setFileAccess",
					"outputs": [],
					"stateMutability": "nonpayable",
					"type": "function"
				},
				{
					"inputs": [
						{
							"internalType": "address",
							"name": "newOwner",
							"type": "address"
						}
					],
					"name": "transferOwnership",
					"outputs": [],
					"stateMutability": "nonpayable",
					"type": "function"
				}
			],
			"devdoc": {
				"details": "Manages metadata for all files in the system and handles access control for file sharing",
				"errors": {
					"OwnableInvalidOwner(address)": [
						{
							"details": "The owner is not a valid owner account. (eg. `address(0)`)"
						}
					],
					"OwnableUnauthorizedAccount(address)": [
						{
							"details": "The caller account is not authorized to perform an operation."
						}
					],
					"ReentrancyGuardReentrantCall()": [
						{
							"details": "Unauthorized reentrant call."
						}
					]
				},
				"kind": "dev",
				"methods": {
					"addFile(bytes32,string,address,uint256)": {
						"details": "Adds a new file to the registry",
						"params": {
							"_fileHash": "Hash of the file",
							"_fileName": "Name of the file",
							"_owner": "Address of the file owner",
							"_size": "Size of the file in bytes"
						}
					},
					"checkAccess(bytes32,address)": {
						"details": "Checks if a user has access to a file",
						"params": {
							"_fileHash": "Hash of the file",
							"_user": "Address of the user to check"
						},
						"returns": {
							"_0": "Boolean indicating whether the user has access"
						}
					},
					"getFileInfo(bytes32)": {
						"details": "Retrieves file metadata",
						"params": {
							"_fileHash": "Hash of the file"
						},
						"returns": {
							"fileName": "The name of the file",
							"owner": "The owner of the file",
							"size": "The size of the file",
							"timestamp": "The timestamp of the file"
						}
					},
					"getUserFiles(address)": {
						"details": "Retrieves all files owned by a user",
						"params": {
							"_user": "Address of the user"
						},
						"returns": {
							"_0": "Array of file hashes owned by the user"
						}
					},
					"owner()": {
						"details": "Returns the address of the current owner."
					},
					"renounceOwnership()": {
						"details": "Leaves the contract without owner. It will not be possible to call `onlyOwner` functions. Can only be called by the current owner. NOTE: Renouncing ownership will leave the contract without an owner, thereby disabling any functionality that is only available to the owner."
					},
					"setFileAccess(bytes32,address,bool)": {
						"details": "Sets access permissions for a file",
						"params": {
							"_canAccess": "Boolean indicating whether the user can access the file",
							"_fileHash": "Hash of the file",
							"_user": "Address of the user to grant/revoke access"
						}
					},
					"transferOwnership(address)": {
						"details": "Transfers ownership of the contract to a new account (`newOwner`). Can only be called by the current owner."
					}
				},
				"title": "FileRegistry",
				"version": 1
			},
			"evm": {
				"assembly": "    /* \"core/FileRegistry.sol\":301:3957  contract FileRegistry is Ownable, ReentrancyGuard {... */\n  mstore(0x40, 0x80)\n    /* \"core/FileRegistry.sol\":357:411  constructor() Ownable(msg.sender) ReentrancyGuard() {} */\n  callvalue\n  dup1\n  iszero\n  tag_1\n  jumpi\n  0x00\n  dup1\n  revert\ntag_1:\n  pop\n    /* \"core/FileRegistry.sol\":379:389  msg.sender */\n  caller\n    /* \"@openzeppelin/contracts/access/Ownable.sol\":1297:1298  0 */\n  0x00\n    /* \"@openzeppelin/contracts/access/Ownable.sol\":1273:1299  initialOwner == address(0) */\n  0xffffffffffffffffffffffffffffffffffffffff\n  and\n    /* \"@openzeppelin/contracts/access/Ownable.sol\":1273:1285  initialOwner */\n  dup2\n    /* \"@openzeppelin/contracts/access/Ownable.sol\":1273:1299  initialOwner == address(0) */\n  0xffffffffffffffffffffffffffffffffffffffff\n  and\n  sub\n    /* \"@openzeppelin/contracts/access/Ownable.sol\":1269:1364  if (initialOwner == address(0)) {... */\n  tag_6\n  jumpi\n    /* \"@openzeppelin/contracts/access/Ownable.sol\":1350:1351  0 */\n  0x00\n    /* \"@openzeppelin/contracts/access/Ownable.sol\":1322:1353  OwnableInvalidOwner(address(0)) */\n  mload(0x40)\n  0x1e4fbdf700000000000000000000000000000000000000000000000000000000\n  dup2\n  mstore\n  0x04\n  add\n  tag_7\n  swap2\n  swap1\n  tag_8\n  jump\t// in\ntag_7:\n  mload(0x40)\n  dup1\n  swap2\n  sub\n  swap1\n  revert\n    /* \"@openzeppelin/contracts/access/Ownable.sol\":1269:1364  if (initialOwner == address(0)) {... */\ntag_6:\n    /* \"@openzeppelin/contracts/access/Ownable.sol\":1373:1405  _transferOwnership(initialOwner) */\n  tag_9\n    /* \"@openzeppelin/contracts/access/Ownable.sol\":1392:1404  initialOwner */\n  dup2\n    /* \"@openzeppelin/contracts/access/Ownable.sol\":1373:1391  _transferOwnership */\n  shl(0x20, tag_10)\n    /* \"@openzeppelin/contracts/access/Ownable.sol\":1373:1405  _transferOwnership(initialOwner) */\n  0x20\n  shr\n  jump\t// in\ntag_9:\n    /* \"@openzeppelin/contracts/access/Ownable.sol\":1225:1412  constructor(address initialOwner) {... */\n  pop\n    /* \"@openzeppelin/contracts/utils/ReentrancyGuard.sol\":1857:1858  1 */\n  0x01\n    /* \"@openzeppelin/contracts/utils/ReentrancyGuard.sol\":2061:2068  _status */\n  dup1\n    /* \"@openzeppelin/contracts/utils/ReentrancyGuard.sol\":2061:2082  _status = NOT_ENTERED */\n  dup2\n  swap1\n  sstore\n  pop\n    /* \"core/FileRegistry.sol\":301:3957  contract FileRegistry is Ownable, ReentrancyGuard {... */\n  jump(tag_13)\n    /* \"@openzeppelin/contracts/access/Ownable.sol\":2912:3099  function _transferOwnership(address newOwner) internal virtual {... */\ntag_10:\n    /* \"@openzeppelin/contracts/access/Ownable.sol\":2985:3001  address oldOwner */\n  0x00\n    /* \"@openzeppelin/contracts/access/Ownable.sol\":3004:3010  _owner */\n  dup1\n  0x00\n  swap1\n  sload\n  swap1\n  0x0100\n  exp\n  swap1\n  div\n  0xffffffffffffffffffffffffffffffffffffffff\n  and\n    /* \"@openzeppelin/contracts/access/Ownable.sol\":2985:3010  address oldOwner = _owner */\n  swap1\n  pop\n    /* \"@openzeppelin/contracts/access/Ownable.sol\":3029:3037  newOwner */\n  dup2\n    /* \"@openzeppelin/contracts/access/Ownable.sol\":3020:3026  _owner */\n  0x00\n  dup1\n    /* \"@openzeppelin/contracts/access/Ownable.sol\":3020:3037  _owner = newOwner */\n  0x0100\n  exp\n  dup2\n  sload\n  dup2\n  0xffffffffffffffffffffffffffffffffffffffff\n  mul\n  not\n  and\n  swap1\n  dup4\n  0xffffffffffffffffffffffffffffffffffffffff\n  and\n  mul\n  or\n  swap1\n  sstore\n  pop\n    /* \"@openzeppelin/contracts/access/Ownable.sol\":3083:3091  newOwner */\n  dup2\n    /* \"@openzeppelin/contracts/access/Ownable.sol\":3052:3092  OwnershipTransferred(oldOwner, newOwner) */\n  0xffffffffffffffffffffffffffffffffffffffff\n  and\n    /* \"@openzeppelin/contracts/access/Ownable.sol\":3073:3081  oldOwner */\n  dup2\n    /* \"@openzeppelin/contracts/access/Ownable.sol\":3052:3092  OwnershipTransferred(oldOwner, newOwner) */\n  0xffffffffffffffffffffffffffffffffffffffff\n  and\n  0x8be0079c531659141344cd1fd0a4f28419497f9722a3daafe3b4186f6b6457e0\n  mload(0x40)\n  mload(0x40)\n  dup1\n  swap2\n  sub\n  swap1\n  log3\n    /* \"@openzeppelin/contracts/access/Ownable.sol\":2975:3099  {... */\n  pop\n    /* \"@openzeppelin/contracts/access/Ownable.sol\":2912:3099  function _transferOwnership(address newOwner) internal virtual {... */\n  pop\n  jump\t// out\n    /* \"#utility.yul\":7:133   */\ntag_15:\n    /* \"#utility.yul\":44:51   */\n  0x00\n    /* \"#utility.yul\":84:126   */\n  0xffffffffffffffffffffffffffffffffffffffff\n    /* \"#utility.yul\":77:82   */\n  dup3\n    /* \"#utility.yul\":73:127   */\n  and\n    /* \"#utility.yul\":62:127   */\n  swap1\n  pop\n    /* \"#utility.yul\":7:133   */\n  swap2\n  swap1\n  pop\n  jump\t// out\n    /* \"#utility.yul\":139:235   */\ntag_16:\n    /* \"#utility.yul\":176:183   */\n  0x00\n    /* \"#utility.yul\":205:229   */\n  tag_21\n    /* \"#utility.yul\":223:228   */\n  dup3\n    /* \"#utility.yul\":205:229   */\n  tag_15\n  jump\t// in\ntag_21:\n    /* \"#utility.yul\":194:229   */\n  swap1\n  pop\n    /* \"#utility.yul\":139:235   */\n  swap2\n  swap1\n  pop\n  jump\t// out\n    /* \"#utility.yul\":241:359   */\ntag_17:\n    /* \"#utility.yul\":328:352   */\n  tag_23\n    /* \"#utility.yul\":346:351   */\n  dup2\n    /* \"#utility.yul\":328:352   */\n  tag_16\n  jump\t// in\ntag_23:\n    /* \"#utility.yul\":323:326   */\n  dup3\n    /* \"#utility.yul\":316:353   */\n  mstore\n    /* \"#utility.yul\":241:359   */\n  pop\n  pop\n  jump\t// out\n    /* \"#utility.yul\":365:587   */\ntag_8:\n    /* \"#utility.yul\":458:462   */\n  0x00\n    /* \"#utility.yul\":496:498   */\n  0x20\n    /* \"#utility.yul\":485:494   */\n  dup3\n    /* \"#utility.yul\":481:499   */\n  add\n    /* \"#utility.yul\":473:499   */\n  swap1\n  pop\n    /* \"#utility.yul\":509:580   */\n  tag_25\n    /* \"#utility.yul\":577:578   */\n  0x00\n    /* \"#utility.yul\":566:575   */\n  dup4\n    /* \"#utility.yul\":562:579   */\n  add\n    /* \"#utility.yul\":553:559   */\n  dup5\n    /* \"#utility.yul\":509:580   */\n  tag_17\n  jump\t// in\ntag_25:\n    /* \"#utility.yul\":365:587   */\n  swap3\n  swap2\n  pop\n  pop\n  jump\t// out\n    /* \"core/FileRegistry.sol\":301:3957  contract FileRegistry is Ownable, ReentrancyGuard {... */\ntag_13:\n  dataSize(sub_0)\n  dup1\n  dataOffset(sub_0)\n  0x00\n  codecopy\n  0x00\n  return\nstop\n\nsub_0: assembly {\n        /* \"core/FileRegistry.sol\":301:3957  contract FileRegistry is Ownable, ReentrancyGuard {... */\n      mstore(0x40, 0x80)\n      callvalue\n      dup1\n      iszero\n      tag_1\n      jumpi\n      0x00\n      dup1\n      revert\n    tag_1:\n      pop\n      jumpi(tag_2, lt(calldatasize, 0x04))\n      shr(0xe0, calldataload(0x00))\n      dup1\n      0x715018a6\n      gt\n      tag_11\n      jumpi\n      dup1\n      0x715018a6\n      eq\n      tag_7\n      jumpi\n      dup1\n      0x84897dc2\n      eq\n      tag_8\n      jumpi\n      dup1\n      0x8da5cb5b\n      eq\n      tag_9\n      jumpi\n      dup1\n      0xf2fde38b\n      eq\n      tag_10\n      jumpi\n      jump(tag_2)\n    tag_11:\n      dup1\n      0x1fc37922\n      eq\n      tag_3\n      jumpi\n      dup1\n      0x248427d0\n      eq\n      tag_4\n      jumpi\n      dup1\n      0x3e1fd0da\n      eq\n      tag_5\n      jumpi\n      dup1\n      0x52f7347b\n      eq\n      tag_6\n      jumpi\n    tag_2:\n      0x00\n      dup1\n      revert\n        /* \"core/FileRegistry.sol\":3837:3955  function getUserFiles(address _user) external view returns (bytes32[] memory) {... */\n    tag_3:\n      tag_12\n      0x04\n      dup1\n      calldatasize\n      sub\n      dup2\n      add\n      swap1\n      tag_13\n      swap2\n      swap1\n      tag_14\n      jump\t// in\n    tag_13:\n      tag_15\n      jump\t// in\n    tag_12:\n      mload(0x40)\n      tag_16\n      swap2\n      swap1\n      tag_17\n      jump\t// in\n    tag_16:\n      mload(0x40)\n      dup1\n      swap2\n      sub\n      swap1\n      return\n        /* \"core/FileRegistry.sol\":1137:1919  function addFile(bytes32 _fileHash, string memory _fileName, address _owner, uint256 _size) external onlyOwner nonReentrant {... */\n    tag_4:\n      tag_18\n      0x04\n      dup1\n      calldatasize\n      sub\n      dup2\n      add\n      swap1\n      tag_19\n      swap2\n      swap1\n      tag_20\n      jump\t// in\n    tag_19:\n      tag_21\n      jump\t// in\n    tag_18:\n      stop\n        /* \"core/FileRegistry.sol\":3453:3673  function checkAccess(bytes32 _fileHash, address _user) external view returns (bool) {... */\n    tag_5:\n      tag_22\n      0x04\n      dup1\n      calldatasize\n      sub\n      dup2\n      add\n      swap1\n      tag_23\n      swap2\n      swap1\n      tag_24\n      jump\t// in\n    tag_23:\n      tag_25\n      jump\t// in\n    tag_22:\n      mload(0x40)\n      tag_26\n      swap2\n      swap1\n      tag_27\n      jump\t// in\n    tag_26:\n      mload(0x40)\n      dup1\n      swap2\n      sub\n      swap1\n      return\n        /* \"core/FileRegistry.sol\":2198:2523  function getFileInfo(bytes32 _fileHash) external view returns (string memory fileName, address owner, uint256 size, uint256 timestamp) {... */\n    tag_6:\n      tag_28\n      0x04\n      dup1\n      calldatasize\n      sub\n      dup2\n      add\n      swap1\n      tag_29\n      swap2\n      swap1\n      tag_30\n      jump\t// in\n    tag_29:\n      tag_31\n      jump\t// in\n    tag_28:\n      mload(0x40)\n      tag_32\n      swap5\n      swap4\n      swap3\n      swap2\n      swap1\n      tag_33\n      jump\t// in\n    tag_32:\n      mload(0x40)\n      dup1\n      swap2\n      sub\n      swap1\n      return\n        /* \"@openzeppelin/contracts/access/Ownable.sol\":2293:2394  function renounceOwnership() public virtual onlyOwner {... */\n    tag_7:\n      tag_34\n      tag_35\n      jump\t// in\n    tag_34:\n      stop\n        /* \"core/FileRegistry.sol\":2777:3229  function setFileAccess(bytes32 _fileHash, address _user, bool _canAccess) external nonReentrant {... */\n    tag_8:\n      tag_36\n      0x04\n      dup1\n      calldatasize\n      sub\n      dup2\n      add\n      swap1\n      tag_37\n      swap2\n      swap1\n      tag_38\n      jump\t// in\n    tag_37:\n      tag_39\n      jump\t// in\n    tag_36:\n      stop\n        /* \"@openzeppelin/contracts/access/Ownable.sol\":1638:1723  function owner() public view virtual returns (address) {... */\n    tag_9:\n      tag_40\n      tag_41\n      jump\t// in\n    tag_40:\n      mload(0x40)\n      tag_42\n      swap2\n      swap1\n      tag_43\n      jump\t// in\n    tag_42:\n      mload(0x40)\n      dup1\n      swap2\n      sub\n      swap1\n      return\n        /* \"@openzeppelin/contracts/access/Ownable.sol\":2543:2758  function transferOwnership(address newOwner) public virtual onlyOwner {... */\n    tag_10:\n      tag_44\n      0x04\n      dup1\n      calldatasize\n      sub\n      dup2\n      add\n      swap1\n      tag_45\n      swap2\n      swap1\n      tag_14\n      jump\t// in\n    tag_45:\n      tag_46\n      jump\t// in\n    tag_44:\n      stop\n        /* \"core/FileRegistry.sol\":3837:3955  function getUserFiles(address _user) external view returns (bytes32[] memory) {... */\n    tag_15:\n        /* \"core/FileRegistry.sol\":3897:3913  bytes32[] memory */\n      0x60\n        /* \"core/FileRegistry.sol\":3932:3941  userFiles */\n      0x03\n        /* \"core/FileRegistry.sol\":3932:3948  userFiles[_user] */\n      0x00\n        /* \"core/FileRegistry.sol\":3942:3947  _user */\n      dup4\n        /* \"core/FileRegistry.sol\":3932:3948  userFiles[_user] */\n      0xffffffffffffffffffffffffffffffffffffffff\n      and\n      0xffffffffffffffffffffffffffffffffffffffff\n      and\n      dup2\n      mstore\n      0x20\n      add\n      swap1\n      dup2\n      mstore\n      0x20\n      add\n      0x00\n      keccak256\n        /* \"core/FileRegistry.sol\":3925:3948  return userFiles[_user] */\n      dup1\n      sload\n      dup1\n      0x20\n      mul\n      0x20\n      add\n      mload(0x40)\n      swap1\n      dup2\n      add\n      0x40\n      mstore\n      dup1\n      swap3\n      swap2\n      swap1\n      dup2\n      dup2\n      mstore\n      0x20\n      add\n      dup3\n      dup1\n      sload\n      dup1\n      iszero\n      tag_48\n      jumpi\n      0x20\n      mul\n      dup3\n      add\n      swap2\n      swap1\n      0x00\n      mstore\n      keccak256(0x00, 0x20)\n      swap1\n    tag_49:\n      dup2\n      sload\n      dup2\n      mstore\n      0x20\n      add\n      swap1\n      0x01\n      add\n      swap1\n      dup1\n      dup4\n      gt\n      tag_49\n      jumpi\n    tag_48:\n      pop\n      pop\n      pop\n      pop\n      pop\n      swap1\n      pop\n        /* \"core/FileRegistry.sol\":3837:3955  function getUserFiles(address _user) external view returns (bytes32[] memory) {... */\n      swap2\n      swap1\n      pop\n      jump\t// out\n        /* \"core/FileRegistry.sol\":1137:1919  function addFile(bytes32 _fileHash, string memory _fileName, address _owner, uint256 _size) external onlyOwner nonReentrant {... */\n    tag_21:\n        /* \"@openzeppelin/contracts/access/Ownable.sol\":1531:1544  _checkOwner() */\n      tag_51\n        /* \"@openzeppelin/contracts/access/Ownable.sol\":1531:1542  _checkOwner */\n      tag_52\n        /* \"@openzeppelin/contracts/access/Ownable.sol\":1531:1544  _checkOwner() */\n      jump\t// in\n    tag_51:\n        /* \"@openzeppelin/contracts/utils/ReentrancyGuard.sol\":2500:2521  _nonReentrantBefore() */\n      tag_54\n        /* \"@openzeppelin/contracts/utils/ReentrancyGuard.sol\":2500:2519  _nonReentrantBefore */\n      tag_55\n        /* \"@openzeppelin/contracts/utils/ReentrancyGuard.sol\":2500:2521  _nonReentrantBefore() */\n      jump\t// in\n    tag_54:\n        /* \"core/FileRegistry.sol\":1300:1301  0 */\n      0x00\n        /* \"core/FileRegistry.sol\":1292:1302  bytes32(0) */\n      dup1\n      shl\n        /* \"core/FileRegistry.sol\":1279:1288  _fileHash */\n      dup5\n        /* \"core/FileRegistry.sol\":1279:1302  _fileHash != bytes32(0) */\n      sub\n        /* \"core/FileRegistry.sol\":1271:1324  require(_fileHash != bytes32(0), \"Invalid file hash\") */\n      tag_57\n      jumpi\n      mload(0x40)\n      0x08c379a000000000000000000000000000000000000000000000000000000000\n      dup2\n      mstore\n      0x04\n      add\n      tag_58\n      swap1\n      tag_59\n      jump\t// in\n    tag_58:\n      mload(0x40)\n      dup1\n      swap2\n      sub\n      swap1\n      revert\n    tag_57:\n        /* \"core/FileRegistry.sol\":1360:1361  0 */\n      0x00\n        /* \"core/FileRegistry.sol\":1342:1362  _owner != address(0) */\n      0xffffffffffffffffffffffffffffffffffffffff\n      and\n        /* \"core/FileRegistry.sol\":1342:1348  _owner */\n      dup3\n        /* \"core/FileRegistry.sol\":1342:1362  _owner != address(0) */\n      0xffffffffffffffffffffffffffffffffffffffff\n      and\n      sub\n        /* \"core/FileRegistry.sol\":1334:1388  require(_owner != address(0), \"Invalid owner address\") */\n      tag_60\n      jumpi\n      mload(0x40)\n      0x08c379a000000000000000000000000000000000000000000000000000000000\n      dup2\n      mstore\n      0x04\n      add\n      tag_61\n      swap1\n      tag_62\n      jump\t// in\n    tag_61:\n      mload(0x40)\n      dup1\n      swap2\n      sub\n      swap1\n      revert\n    tag_60:\n        /* \"core/FileRegistry.sol\":1414:1415  0 */\n      0x00\n        /* \"core/FileRegistry.sol\":1406:1411  _size */\n      dup2\n        /* \"core/FileRegistry.sol\":1406:1415  _size > 0 */\n      gt\n        /* \"core/FileRegistry.sol\":1398:1452  require(_size > 0, \"File size must be greater than 0\") */\n      tag_63\n      jumpi\n      mload(0x40)\n      0x08c379a000000000000000000000000000000000000000000000000000000000\n      dup2\n      mstore\n      0x04\n      add\n      tag_64\n      swap1\n      tag_65\n      jump\t// in\n    tag_64:\n      mload(0x40)\n      dup1\n      swap2\n      sub\n      swap1\n      revert\n    tag_63:\n        /* \"core/FileRegistry.sol\":1504:1505  0 */\n      0x00\n        /* \"core/FileRegistry.sol\":1470:1506  files[_fileHash].owner == address(0) */\n      0xffffffffffffffffffffffffffffffffffffffff\n      and\n        /* \"core/FileRegistry.sol\":1470:1475  files */\n      0x02\n        /* \"core/FileRegistry.sol\":1470:1486  files[_fileHash] */\n      0x00\n        /* \"core/FileRegistry.sol\":1476:1485  _fileHash */\n      dup7\n        /* \"core/FileRegistry.sol\":1470:1486  files[_fileHash] */\n      dup2\n      mstore\n      0x20\n      add\n      swap1\n      dup2\n      mstore\n      0x20\n      add\n      0x00\n      keccak256\n        /* \"core/FileRegistry.sol\":1470:1492  files[_fileHash].owner */\n      0x02\n      add\n      0x00\n      swap1\n      sload\n      swap1\n      0x0100\n      exp\n      swap1\n      div\n      0xffffffffffffffffffffffffffffffffffffffff\n      and\n        /* \"core/FileRegistry.sol\":1470:1506  files[_fileHash].owner == address(0) */\n      0xffffffffffffffffffffffffffffffffffffffff\n      and\n      eq\n        /* \"core/FileRegistry.sol\":1462:1530  require(files[_fileHash].owner == address(0), \"File already exists\") */\n      tag_66\n      jumpi\n      mload(0x40)\n      0x08c379a000000000000000000000000000000000000000000000000000000000\n      dup2\n      mstore\n      0x04\n      add\n      tag_67\n      swap1\n      tag_68\n      jump\t// in\n    tag_67:\n      mload(0x40)\n      dup1\n      swap2\n      sub\n      swap1\n      revert\n    tag_66:\n        /* \"core/FileRegistry.sol\":1541:1561  File storage newFile */\n      0x00\n        /* \"core/FileRegistry.sol\":1564:1569  files */\n      0x02\n        /* \"core/FileRegistry.sol\":1564:1580  files[_fileHash] */\n      0x00\n        /* \"core/FileRegistry.sol\":1570:1579  _fileHash */\n      dup7\n        /* \"core/FileRegistry.sol\":1564:1580  files[_fileHash] */\n      dup2\n      mstore\n      0x20\n      add\n      swap1\n      dup2\n      mstore\n      0x20\n      add\n      0x00\n      keccak256\n        /* \"core/FileRegistry.sol\":1541:1580  File storage newFile = files[_fileHash] */\n      swap1\n      pop\n        /* \"core/FileRegistry.sol\":1609:1618  _fileName */\n      dup4\n        /* \"core/FileRegistry.sol\":1590:1597  newFile */\n      dup2\n        /* \"core/FileRegistry.sol\":1590:1606  newFile.fileName */\n      0x00\n      add\n        /* \"core/FileRegistry.sol\":1590:1618  newFile.fileName = _fileName */\n      swap1\n      dup2\n      tag_69\n      swap2\n      swap1\n      tag_70\n      jump\t// in\n    tag_69:\n      pop\n        /* \"core/FileRegistry.sol\":1647:1656  _fileHash */\n      dup5\n        /* \"core/FileRegistry.sol\":1628:1635  newFile */\n      dup2\n        /* \"core/FileRegistry.sol\":1628:1644  newFile.fileHash */\n      0x01\n      add\n        /* \"core/FileRegistry.sol\":1628:1656  newFile.fileHash = _fileHash */\n      dup2\n      swap1\n      sstore\n      pop\n        /* \"core/FileRegistry.sol\":1682:1688  _owner */\n      dup3\n        /* \"core/FileRegistry.sol\":1666:1673  newFile */\n      dup2\n        /* \"core/FileRegistry.sol\":1666:1679  newFile.owner */\n      0x02\n      add\n      0x00\n        /* \"core/FileRegistry.sol\":1666:1688  newFile.owner = _owner */\n      0x0100\n      exp\n      dup2\n      sload\n      dup2\n      0xffffffffffffffffffffffffffffffffffffffff\n      mul\n      not\n      and\n      swap1\n      dup4\n      0xffffffffffffffffffffffffffffffffffffffff\n      and\n      mul\n      or\n      swap1\n      sstore\n      pop\n        /* \"core/FileRegistry.sol\":1713:1718  _size */\n      dup2\n        /* \"core/FileRegistry.sol\":1698:1705  newFile */\n      dup2\n        /* \"core/FileRegistry.sol\":1698:1710  newFile.size */\n      0x03\n      add\n        /* \"core/FileRegistry.sol\":1698:1718  newFile.size = _size */\n      dup2\n      swap1\n      sstore\n      pop\n        /* \"core/FileRegistry.sol\":1748:1763  block.timestamp */\n      timestamp\n        /* \"core/FileRegistry.sol\":1728:1735  newFile */\n      dup2\n        /* \"core/FileRegistry.sol\":1728:1745  newFile.timestamp */\n      0x04\n      add\n        /* \"core/FileRegistry.sol\":1728:1763  newFile.timestamp = block.timestamp */\n      dup2\n      swap1\n      sstore\n      pop\n        /* \"core/FileRegistry.sol\":1802:1806  true */\n      0x01\n        /* \"core/FileRegistry.sol\":1773:1780  newFile */\n      dup2\n        /* \"core/FileRegistry.sol\":1773:1791  newFile.accessList */\n      0x05\n      add\n        /* \"core/FileRegistry.sol\":1773:1799  newFile.accessList[_owner] */\n      0x00\n        /* \"core/FileRegistry.sol\":1792:1798  _owner */\n      dup6\n        /* \"core/FileRegistry.sol\":1773:1799  newFile.accessList[_owner] */\n      0xffffffffffffffffffffffffffffffffffffffff\n      and\n      0xffffffffffffffffffffffffffffffffffffffff\n      and\n      dup2\n      mstore\n      0x20\n      add\n      swap1\n      dup2\n      mstore\n      0x20\n      add\n      0x00\n      keccak256\n      0x00\n        /* \"core/FileRegistry.sol\":1773:1806  newFile.accessList[_owner] = true */\n      0x0100\n      exp\n      dup2\n      sload\n      dup2\n      0xff\n      mul\n      not\n      and\n      swap1\n      dup4\n      iszero\n      iszero\n      mul\n      or\n      swap1\n      sstore\n      pop\n        /* \"core/FileRegistry.sol\":1817:1826  userFiles */\n      0x03\n        /* \"core/FileRegistry.sol\":1817:1834  userFiles[_owner] */\n      0x00\n        /* \"core/FileRegistry.sol\":1827:1833  _owner */\n      dup5\n        /* \"core/FileRegistry.sol\":1817:1834  userFiles[_owner] */\n      0xffffffffffffffffffffffffffffffffffffffff\n      and\n      0xffffffffffffffffffffffffffffffffffffffff\n      and\n      dup2\n      mstore\n      0x20\n      add\n      swap1\n      dup2\n      mstore\n      0x20\n      add\n      0x00\n      keccak256\n        /* \"core/FileRegistry.sol\":1840:1849  _fileHash */\n      dup6\n        /* \"core/FileRegistry.sol\":1817:1850  userFiles[_owner].push(_fileHash) */\n      swap1\n      dup1\n      0x01\n      dup2\n      sload\n      add\n      dup1\n      dup3\n      sstore\n      dup1\n      swap2\n      pop\n      pop\n      0x01\n      swap1\n      sub\n      swap1\n      0x00\n      mstore\n      keccak256(0x00, 0x20)\n      add\n      0x00\n      swap1\n      swap2\n      swap1\n      swap2\n      swap1\n      swap2\n      pop\n      sstore\n        /* \"core/FileRegistry.sol\":1898:1904  _owner */\n      dup3\n        /* \"core/FileRegistry.sol\":1866:1912  FileAdded(_fileHash, _fileName, _owner, _size) */\n      0xffffffffffffffffffffffffffffffffffffffff\n      and\n        /* \"core/FileRegistry.sol\":1876:1885  _fileHash */\n      dup6\n        /* \"core/FileRegistry.sol\":1866:1912  FileAdded(_fileHash, _fileName, _owner, _size) */\n      0x7a194ca9586cbfa3d7c02410e323a9938a3121768590f081295ec4ac8ba85f69\n        /* \"core/FileRegistry.sol\":1887:1896  _fileName */\n      dup7\n        /* \"core/FileRegistry.sol\":1906:1911  _size */\n      dup6\n        /* \"core/FileRegistry.sol\":1866:1912  FileAdded(_fileHash, _fileName, _owner, _size) */\n      mload(0x40)\n      tag_72\n      swap3\n      swap2\n      swap1\n      tag_73\n      jump\t// in\n    tag_72:\n      mload(0x40)\n      dup1\n      swap2\n      sub\n      swap1\n      log3\n        /* \"core/FileRegistry.sol\":1261:1919  {... */\n      pop\n        /* \"@openzeppelin/contracts/utils/ReentrancyGuard.sol\":2542:2562  _nonReentrantAfter() */\n      tag_74\n        /* \"@openzeppelin/contracts/utils/ReentrancyGuard.sol\":2542:2560  _nonReentrantAfter */\n      tag_75\n        /* \"@openzeppelin/contracts/utils/ReentrancyGuard.sol\":2542:2562  _nonReentrantAfter() */\n      jump\t// in\n    tag_74:\n        /* \"core/FileRegistry.sol\":1137:1919  function addFile(bytes32 _fileHash, string memory _fileName, address _owner, uint256 _size) external onlyOwner nonReentrant {... */\n      pop\n      pop\n      pop\n      pop\n      jump\t// out\n        /* \"core/FileRegistry.sol\":3453:3673  function checkAccess(bytes32 _fileHash, address _user) external view returns (bool) {... */\n    tag_25:\n        /* \"core/FileRegistry.sol\":3531:3535  bool */\n      0x00\n        /* \"core/FileRegistry.sol\":3589:3590  0 */\n      dup1\n        /* \"core/FileRegistry.sol\":3555:3591  files[_fileHash].owner != address(0) */\n      0xffffffffffffffffffffffffffffffffffffffff\n      and\n        /* \"core/FileRegistry.sol\":3555:3560  files */\n      0x02\n        /* \"core/FileRegistry.sol\":3555:3571  files[_fileHash] */\n      0x00\n        /* \"core/FileRegistry.sol\":3561:3570  _fileHash */\n      dup6\n        /* \"core/FileRegistry.sol\":3555:3571  files[_fileHash] */\n      dup2\n      mstore\n      0x20\n      add\n      swap1\n      dup2\n      mstore\n      0x20\n      add\n      0x00\n      keccak256\n        /* \"core/FileRegistry.sol\":3555:3577  files[_fileHash].owner */\n      0x02\n      add\n      0x00\n      swap1\n      sload\n      swap1\n      0x0100\n      exp\n      swap1\n      div\n      0xffffffffffffffffffffffffffffffffffffffff\n      and\n        /* \"core/FileRegistry.sol\":3555:3591  files[_fileHash].owner != address(0) */\n      0xffffffffffffffffffffffffffffffffffffffff\n      and\n      sub\n        /* \"core/FileRegistry.sol\":3547:3615  require(files[_fileHash].owner != address(0), \"File does not exist\") */\n      tag_77\n      jumpi\n      mload(0x40)\n      0x08c379a000000000000000000000000000000000000000000000000000000000\n      dup2\n      mstore\n      0x04\n      add\n      tag_78\n      swap1\n      tag_79\n      jump\t// in\n    tag_78:\n      mload(0x40)\n      dup1\n      swap2\n      sub\n      swap1\n      revert\n    tag_77:\n        /* \"core/FileRegistry.sol\":3632:3637  files */\n      0x02\n        /* \"core/FileRegistry.sol\":3632:3648  files[_fileHash] */\n      0x00\n        /* \"core/FileRegistry.sol\":3638:3647  _fileHash */\n      dup5\n        /* \"core/FileRegistry.sol\":3632:3648  files[_fileHash] */\n      dup2\n      mstore\n      0x20\n      add\n      swap1\n      dup2\n      mstore\n      0x20\n      add\n      0x00\n      keccak256\n        /* \"core/FileRegistry.sol\":3632:3659  files[_fileHash].accessList */\n      0x05\n      add\n        /* \"core/FileRegistry.sol\":3632:3666  files[_fileHash].accessList[_user] */\n      0x00\n        /* \"core/FileRegistry.sol\":3660:3665  _user */\n      dup4\n        /* \"core/FileRegistry.sol\":3632:3666  files[_fileHash].accessList[_user] */\n      0xffffffffffffffffffffffffffffffffffffffff\n      and\n      0xffffffffffffffffffffffffffffffffffffffff\n      and\n      dup2\n      mstore\n      0x20\n      add\n      swap1\n      dup2\n      mstore\n      0x20\n      add\n      0x00\n      keccak256\n      0x00\n      swap1\n      sload\n      swap1\n      0x0100\n      exp\n      swap1\n      div\n      0xff\n      and\n        /* \"core/FileRegistry.sol\":3625:3666  return files[_fileHash].accessList[_user] */\n      swap1\n      pop\n        /* \"core/FileRegistry.sol\":3453:3673  function checkAccess(bytes32 _fileHash, address _user) external view returns (bool) {... */\n      swap3\n      swap2\n      pop\n      pop\n      jump\t// out\n        /* \"core/FileRegistry.sol\":2198:2523  function getFileInfo(bytes32 _fileHash) external view returns (string memory fileName, address owner, uint256 size, uint256 timestamp) {... */\n    tag_31:\n        /* \"core/FileRegistry.sol\":2261:2283  string memory fileName */\n      0x60\n        /* \"core/FileRegistry.sol\":2285:2298  address owner */\n      0x00\n        /* \"core/FileRegistry.sol\":2300:2312  uint256 size */\n      dup1\n        /* \"core/FileRegistry.sol\":2314:2331  uint256 timestamp */\n      0x00\n        /* \"core/FileRegistry.sol\":2343:2360  File storage file */\n      dup1\n        /* \"core/FileRegistry.sol\":2363:2368  files */\n      0x02\n        /* \"core/FileRegistry.sol\":2363:2379  files[_fileHash] */\n      0x00\n        /* \"core/FileRegistry.sol\":2369:2378  _fileHash */\n      dup8\n        /* \"core/FileRegistry.sol\":2363:2379  files[_fileHash] */\n      dup2\n      mstore\n      0x20\n      add\n      swap1\n      dup2\n      mstore\n      0x20\n      add\n      0x00\n      keccak256\n        /* \"core/FileRegistry.sol\":2343:2379  File storage file = files[_fileHash] */\n      swap1\n      pop\n        /* \"core/FileRegistry.sol\":2419:2420  0 */\n      0x00\n        /* \"core/FileRegistry.sol\":2397:2421  file.owner != address(0) */\n      0xffffffffffffffffffffffffffffffffffffffff\n      and\n        /* \"core/FileRegistry.sol\":2397:2401  file */\n      dup2\n        /* \"core/FileRegistry.sol\":2397:2407  file.owner */\n      0x02\n      add\n      0x00\n      swap1\n      sload\n      swap1\n      0x0100\n      exp\n      swap1\n      div\n      0xffffffffffffffffffffffffffffffffffffffff\n      and\n        /* \"core/FileRegistry.sol\":2397:2421  file.owner != address(0) */\n      0xffffffffffffffffffffffffffffffffffffffff\n      and\n      sub\n        /* \"core/FileRegistry.sol\":2389:2445  require(file.owner != address(0), \"File does not exist\") */\n      tag_81\n      jumpi\n      mload(0x40)\n      0x08c379a000000000000000000000000000000000000000000000000000000000\n      dup2\n      mstore\n      0x04\n      add\n      tag_82\n      swap1\n      tag_79\n      jump\t// in\n    tag_82:\n      mload(0x40)\n      dup1\n      swap2\n      sub\n      swap1\n      revert\n    tag_81:\n        /* \"core/FileRegistry.sol\":2463:2467  file */\n      dup1\n        /* \"core/FileRegistry.sol\":2463:2476  file.fileName */\n      0x00\n      add\n        /* \"core/FileRegistry.sol\":2478:2482  file */\n      dup2\n        /* \"core/FileRegistry.sol\":2478:2488  file.owner */\n      0x02\n      add\n      0x00\n      swap1\n      sload\n      swap1\n      0x0100\n      exp\n      swap1\n      div\n      0xffffffffffffffffffffffffffffffffffffffff\n      and\n        /* \"core/FileRegistry.sol\":2490:2494  file */\n      dup3\n        /* \"core/FileRegistry.sol\":2490:2499  file.size */\n      0x03\n      add\n      sload\n        /* \"core/FileRegistry.sol\":2501:2505  file */\n      dup4\n        /* \"core/FileRegistry.sol\":2501:2515  file.timestamp */\n      0x04\n      add\n      sload\n        /* \"core/FileRegistry.sol\":2455:2516  return (file.fileName, file.owner, file.size, file.timestamp) */\n      dup4\n      dup1\n      sload\n      tag_83\n      swap1\n      tag_84\n      jump\t// in\n    tag_83:\n      dup1\n      0x1f\n      add\n      0x20\n      dup1\n      swap2\n      div\n      mul\n      0x20\n      add\n      mload(0x40)\n      swap1\n      dup2\n      add\n      0x40\n      mstore\n      dup1\n      swap3\n      swap2\n      swap1\n      dup2\n      dup2\n      mstore\n      0x20\n      add\n      dup3\n      dup1\n      sload\n      tag_85\n      swap1\n      tag_84\n      jump\t// in\n    tag_85:\n      dup1\n      iszero\n      tag_86\n      jumpi\n      dup1\n      0x1f\n      lt\n      tag_87\n      jumpi\n      0x0100\n      dup1\n      dup4\n      sload\n      div\n      mul\n      dup4\n      mstore\n      swap2\n      0x20\n      add\n      swap2\n      jump(tag_86)\n    tag_87:\n      dup3\n      add\n      swap2\n      swap1\n      0x00\n      mstore\n      keccak256(0x00, 0x20)\n      swap1\n    tag_88:\n      dup2\n      sload\n      dup2\n      mstore\n      swap1\n      0x01\n      add\n      swap1\n      0x20\n      add\n      dup1\n      dup4\n      gt\n      tag_88\n      jumpi\n      dup3\n      swap1\n      sub\n      0x1f\n      and\n      dup3\n      add\n      swap2\n    tag_86:\n      pop\n      pop\n      pop\n      pop\n      pop\n      swap4\n      pop\n      swap5\n      pop\n      swap5\n      pop\n      swap5\n      pop\n      swap5\n      pop\n      pop\n        /* \"core/FileRegistry.sol\":2198:2523  function getFileInfo(bytes32 _fileHash) external view returns (string memory fileName, address owner, uint256 size, uint256 timestamp) {... */\n      swap2\n      swap4\n      pop\n      swap2\n      swap4\n      jump\t// out\n        /* \"@openzeppelin/contracts/access/Ownable.sol\":2293:2394  function renounceOwnership() public virtual onlyOwner {... */\n    tag_35:\n        /* \"@openzeppelin/contracts/access/Ownable.sol\":1531:1544  _checkOwner() */\n      tag_90\n        /* \"@openzeppelin/contracts/access/Ownable.sol\":1531:1542  _checkOwner */\n      tag_52\n        /* \"@openzeppelin/contracts/access/Ownable.sol\":1531:1544  _checkOwner() */\n      jump\t// in\n    tag_90:\n        /* \"@openzeppelin/contracts/access/Ownable.sol\":2357:2387  _transferOwnership(address(0)) */\n      tag_92\n        /* \"@openzeppelin/contracts/access/Ownable.sol\":2384:2385  0 */\n      0x00\n        /* \"@openzeppelin/contracts/access/Ownable.sol\":2357:2375  _transferOwnership */\n      tag_93\n        /* \"@openzeppelin/contracts/access/Ownable.sol\":2357:2387  _transferOwnership(address(0)) */\n      jump\t// in\n    tag_92:\n        /* \"@openzeppelin/contracts/access/Ownable.sol\":2293:2394  function renounceOwnership() public virtual onlyOwner {... */\n      jump\t// out\n        /* \"core/FileRegistry.sol\":2777:3229  function setFileAccess(bytes32 _fileHash, address _user, bool _canAccess) external nonReentrant {... */\n    tag_39:\n        /* \"@openzeppelin/contracts/utils/ReentrancyGuard.sol\":2500:2521  _nonReentrantBefore() */\n      tag_95\n        /* \"@openzeppelin/contracts/utils/ReentrancyGuard.sol\":2500:2519  _nonReentrantBefore */\n      tag_55\n        /* \"@openzeppelin/contracts/utils/ReentrancyGuard.sol\":2500:2521  _nonReentrantBefore() */\n      jump\t// in\n    tag_95:\n        /* \"core/FileRegistry.sol\":2925:2926  0 */\n      0x00\n        /* \"core/FileRegistry.sol\":2891:2927  files[_fileHash].owner != address(0) */\n      0xffffffffffffffffffffffffffffffffffffffff\n      and\n        /* \"core/FileRegistry.sol\":2891:2896  files */\n      0x02\n        /* \"core/FileRegistry.sol\":2891:2907  files[_fileHash] */\n      0x00\n        /* \"core/FileRegistry.sol\":2897:2906  _fileHash */\n      dup6\n        /* \"core/FileRegistry.sol\":2891:2907  files[_fileHash] */\n      dup2\n      mstore\n      0x20\n      add\n      swap1\n      dup2\n      mstore\n      0x20\n      add\n      0x00\n      keccak256\n        /* \"core/FileRegistry.sol\":2891:2913  files[_fileHash].owner */\n      0x02\n      add\n      0x00\n      swap1\n      sload\n      swap1\n      0x0100\n      exp\n      swap1\n      div\n      0xffffffffffffffffffffffffffffffffffffffff\n      and\n        /* \"core/FileRegistry.sol\":2891:2927  files[_fileHash].owner != address(0) */\n      0xffffffffffffffffffffffffffffffffffffffff\n      and\n      sub\n        /* \"core/FileRegistry.sol\":2883:2951  require(files[_fileHash].owner != address(0), \"File does not exist\") */\n      tag_97\n      jumpi\n      mload(0x40)\n      0x08c379a000000000000000000000000000000000000000000000000000000000\n      dup2\n      mstore\n      0x04\n      add\n      tag_98\n      swap1\n      tag_79\n      jump\t// in\n    tag_98:\n      mload(0x40)\n      dup1\n      swap2\n      sub\n      swap1\n      revert\n    tag_97:\n        /* \"core/FileRegistry.sol\":2995:3005  msg.sender */\n      caller\n        /* \"core/FileRegistry.sol\":2969:3005  files[_fileHash].owner == msg.sender */\n      0xffffffffffffffffffffffffffffffffffffffff\n      and\n        /* \"core/FileRegistry.sol\":2969:2974  files */\n      0x02\n        /* \"core/FileRegistry.sol\":2969:2985  files[_fileHash] */\n      0x00\n        /* \"core/FileRegistry.sol\":2975:2984  _fileHash */\n      dup6\n        /* \"core/FileRegistry.sol\":2969:2985  files[_fileHash] */\n      dup2\n      mstore\n      0x20\n      add\n      swap1\n      dup2\n      mstore\n      0x20\n      add\n      0x00\n      keccak256\n        /* \"core/FileRegistry.sol\":2969:2991  files[_fileHash].owner */\n      0x02\n      add\n      0x00\n      swap1\n      sload\n      swap1\n      0x0100\n      exp\n      swap1\n      div\n      0xffffffffffffffffffffffffffffffffffffffff\n      and\n        /* \"core/FileRegistry.sol\":2969:3005  files[_fileHash].owner == msg.sender */\n      0xffffffffffffffffffffffffffffffffffffffff\n      and\n      eq\n        /* \"core/FileRegistry.sol\":2961:3040  require(files[_fileHash].owner == msg.sender, \"Only file owner can set access\") */\n      tag_99\n      jumpi\n      mload(0x40)\n      0x08c379a000000000000000000000000000000000000000000000000000000000\n      dup2\n      mstore\n      0x04\n      add\n      tag_100\n      swap1\n      tag_101\n      jump\t// in\n    tag_100:\n      mload(0x40)\n      dup1\n      swap2\n      sub\n      swap1\n      revert\n    tag_99:\n        /* \"core/FileRegistry.sol\":3075:3076  0 */\n      0x00\n        /* \"core/FileRegistry.sol\":3058:3077  _user != address(0) */\n      0xffffffffffffffffffffffffffffffffffffffff\n      and\n        /* \"core/FileRegistry.sol\":3058:3063  _user */\n      dup3\n        /* \"core/FileRegistry.sol\":3058:3077  _user != address(0) */\n      0xffffffffffffffffffffffffffffffffffffffff\n      and\n      sub\n        /* \"core/FileRegistry.sol\":3050:3102  require(_user != address(0), \"Invalid user address\") */\n      tag_102\n      jumpi\n      mload(0x40)\n      0x08c379a000000000000000000000000000000000000000000000000000000000\n      dup2\n      mstore\n      0x04\n      add\n      tag_103\n      swap1\n      tag_104\n      jump\t// in\n    tag_103:\n      mload(0x40)\n      dup1\n      swap2\n      sub\n      swap1\n      revert\n    tag_102:\n        /* \"core/FileRegistry.sol\":3150:3160  _canAccess */\n      dup1\n        /* \"core/FileRegistry.sol\":3113:3118  files */\n      0x02\n        /* \"core/FileRegistry.sol\":3113:3129  files[_fileHash] */\n      0x00\n        /* \"core/FileRegistry.sol\":3119:3128  _fileHash */\n      dup6\n        /* \"core/FileRegistry.sol\":3113:3129  files[_fileHash] */\n      dup2\n      mstore\n      0x20\n      add\n      swap1\n      dup2\n      mstore\n      0x20\n      add\n      0x00\n      keccak256\n        /* \"core/FileRegistry.sol\":3113:3140  files[_fileHash].accessList */\n      0x05\n      add\n        /* \"core/FileRegistry.sol\":3113:3147  files[_fileHash].accessList[_user] */\n      0x00\n        /* \"core/FileRegistry.sol\":3141:3146  _user */\n      dup5\n        /* \"core/FileRegistry.sol\":3113:3147  files[_fileHash].accessList[_user] */\n      0xffffffffffffffffffffffffffffffffffffffff\n      and\n      0xffffffffffffffffffffffffffffffffffffffff\n      and\n      dup2\n      mstore\n      0x20\n      add\n      swap1\n      dup2\n      mstore\n      0x20\n      add\n      0x00\n      keccak256\n      0x00\n        /* \"core/FileRegistry.sol\":3113:3160  files[_fileHash].accessList[_user] = _canAccess */\n      0x0100\n      exp\n      dup2\n      sload\n      dup2\n      0xff\n      mul\n      not\n      and\n      swap1\n      dup4\n      iszero\n      iszero\n      mul\n      or\n      swap1\n      sstore\n      pop\n        /* \"core/FileRegistry.sol\":3204:3209  _user */\n      dup2\n        /* \"core/FileRegistry.sol\":3175:3222  FileAccessChanged(_fileHash, _user, _canAccess) */\n      0xffffffffffffffffffffffffffffffffffffffff\n      and\n        /* \"core/FileRegistry.sol\":3193:3202  _fileHash */\n      dup4\n        /* \"core/FileRegistry.sol\":3175:3222  FileAccessChanged(_fileHash, _user, _canAccess) */\n      0x373a4981e040fe1ca1fab0966e496e584c2d8c8af8329b0539e4fe2359ad4b00\n        /* \"core/FileRegistry.sol\":3211:3221  _canAccess */\n      dup4\n        /* \"core/FileRegistry.sol\":3175:3222  FileAccessChanged(_fileHash, _user, _canAccess) */\n      mload(0x40)\n      tag_105\n      swap2\n      swap1\n      tag_27\n      jump\t// in\n    tag_105:\n      mload(0x40)\n      dup1\n      swap2\n      sub\n      swap1\n      log3\n        /* \"@openzeppelin/contracts/utils/ReentrancyGuard.sol\":2542:2562  _nonReentrantAfter() */\n      tag_106\n        /* \"@openzeppelin/contracts/utils/ReentrancyGuard.sol\":2542:2560  _nonReentrantAfter */\n      tag_75\n        /* \"@openzeppelin/contracts/utils/ReentrancyGuard.sol\":2542:2562  _nonReentrantAfter() */\n      jump\t// in\n    tag_106:\n        /* \"core/FileRegistry.sol\":2777:3229  function setFileAccess(bytes32 _fileHash, address _user, bool _canAccess) external nonReentrant {... */\n      pop\n      pop\n      pop\n      jump\t// out\n        /* \"@openzeppelin/contracts/access/Ownable.sol\":1638:1723  function owner() public view virtual returns (address) {... */\n    tag_41:\n        /* \"@openzeppelin/contracts/access/Ownable.sol\":1684:1691  address */\n      0x00\n        /* \"@openzeppelin/contracts/access/Ownable.sol\":1710:1716  _owner */\n      dup1\n      0x00\n      swap1\n      sload\n      swap1\n      0x0100\n      exp\n      swap1\n      div\n      0xffffffffffffffffffffffffffffffffffffffff\n      and\n        /* \"@openzeppelin/contracts/access/Ownable.sol\":1703:1716  return _owner */\n      swap1\n      pop\n        /* \"@openzeppelin/contracts/access/Ownable.sol\":1638:1723  function owner() public view virtual returns (address) {... */\n      swap1\n      jump\t// out\n        /* \"@openzeppelin/contracts/access/Ownable.sol\":2543:2758  function transferOwnership(address newOwner) public virtual onlyOwner {... */\n    tag_46:\n        /* \"@openzeppelin/contracts/access/Ownable.sol\":1531:1544  _checkOwner() */\n      tag_109\n        /* \"@openzeppelin/contracts/access/Ownable.sol\":1531:1542  _checkOwner */\n      tag_52\n        /* \"@openzeppelin/contracts/access/Ownable.sol\":1531:1544  _checkOwner() */\n      jump\t// in\n    tag_109:\n        /* \"@openzeppelin/contracts/access/Ownable.sol\":2647:2648  0 */\n      0x00\n        /* \"@openzeppelin/contracts/access/Ownable.sol\":2627:2649  newOwner == address(0) */\n      0xffffffffffffffffffffffffffffffffffffffff\n      and\n        /* \"@openzeppelin/contracts/access/Ownable.sol\":2627:2635  newOwner */\n      dup2\n        /* \"@openzeppelin/contracts/access/Ownable.sol\":2627:2649  newOwner == address(0) */\n      0xffffffffffffffffffffffffffffffffffffffff\n      and\n      sub\n        /* \"@openzeppelin/contracts/access/Ownable.sol\":2623:2714  if (newOwner == address(0)) {... */\n      tag_111\n      jumpi\n        /* \"@openzeppelin/contracts/access/Ownable.sol\":2700:2701  0 */\n      0x00\n        /* \"@openzeppelin/contracts/access/Ownable.sol\":2672:2703  OwnableInvalidOwner(address(0)) */\n      mload(0x40)\n      0x1e4fbdf700000000000000000000000000000000000000000000000000000000\n      dup2\n      mstore\n      0x04\n      add\n      tag_112\n      swap2\n      swap1\n      tag_43\n      jump\t// in\n    tag_112:\n      mload(0x40)\n      dup1\n      swap2\n      sub\n      swap1\n      revert\n        /* \"@openzeppelin/contracts/access/Ownable.sol\":2623:2714  if (newOwner == address(0)) {... */\n    tag_111:\n        /* \"@openzeppelin/contracts/access/Ownable.sol\":2723:2751  _transferOwnership(newOwner) */\n      tag_113\n        /* \"@openzeppelin/contracts/access/Ownable.sol\":2742:2750  newOwner */\n      dup2\n        /* \"@openzeppelin/contracts/access/Ownable.sol\":2723:2741  _transferOwnership */\n      tag_93\n        /* \"@openzeppelin/contracts/access/Ownable.sol\":2723:2751  _transferOwnership(newOwner) */\n      jump\t// in\n    tag_113:\n        /* \"@openzeppelin/contracts/access/Ownable.sol\":2543:2758  function transferOwnership(address newOwner) public virtual onlyOwner {... */\n      pop\n      jump\t// out\n        /* \"@openzeppelin/contracts/access/Ownable.sol\":1796:1958  function _checkOwner() internal view virtual {... */\n    tag_52:\n        /* \"@openzeppelin/contracts/access/Ownable.sol\":1866:1878  _msgSender() */\n      tag_115\n        /* \"@openzeppelin/contracts/access/Ownable.sol\":1866:1876  _msgSender */\n      tag_116\n        /* \"@openzeppelin/contracts/access/Ownable.sol\":1866:1878  _msgSender() */\n      jump\t// in\n    tag_115:\n        /* \"@openzeppelin/contracts/access/Ownable.sol\":1855:1878  owner() != _msgSender() */\n      0xffffffffffffffffffffffffffffffffffffffff\n      and\n        /* \"@openzeppelin/contracts/access/Ownable.sol\":1855:1862  owner() */\n      tag_117\n        /* \"@openzeppelin/contracts/access/Ownable.sol\":1855:1860  owner */\n      tag_41\n        /* \"@openzeppelin/contracts/access/Ownable.sol\":1855:1862  owner() */\n      jump\t// in\n    tag_117:\n        /* \"@openzeppelin/contracts/access/Ownable.sol\":1855:1878  owner() != _msgSender() */\n      0xffffffffffffffffffffffffffffffffffffffff\n      and\n      eq\n        /* \"@openzeppelin/contracts/access/Ownable.sol\":1851:1952  if (owner() != _msgSender()) {... */\n      tag_118\n      jumpi\n        /* \"@openzeppelin/contracts/access/Ownable.sol\":1928:1940  _msgSender() */\n      tag_119\n        /* \"@openzeppelin/contracts/access/Ownable.sol\":1928:1938  _msgSender */\n      tag_116\n        /* \"@openzeppelin/contracts/access/Ownable.sol\":1928:1940  _msgSender() */\n      jump\t// in\n    tag_119:\n        /* \"@openzeppelin/contracts/access/Ownable.sol\":1901:1941  OwnableUnauthorizedAccount(_msgSender()) */\n      mload(0x40)\n      0x118cdaa700000000000000000000000000000000000000000000000000000000\n      dup2\n      mstore\n      0x04\n      add\n      tag_120\n      swap2\n      swap1\n      tag_43\n      jump\t// in\n    tag_120:\n      mload(0x40)\n      dup1\n      swap2\n      sub\n      swap1\n      revert\n        /* \"@openzeppelin/contracts/access/Ownable.sol\":1851:1952  if (owner() != _msgSender()) {... */\n    tag_118:\n        /* \"@openzeppelin/contracts/access/Ownable.sol\":1796:1958  function _checkOwner() internal view virtual {... */\n      jump\t// out\n        /* \"@openzeppelin/contracts/utils/ReentrancyGuard.sol\":2575:2882  function _nonReentrantBefore() private {... */\n    tag_55:\n        /* \"@openzeppelin/contracts/utils/ReentrancyGuard.sol\":1899:1900  2 */\n      0x02\n        /* \"@openzeppelin/contracts/utils/ReentrancyGuard.sol\":2702:2709  _status */\n      sload(0x01)\n        /* \"@openzeppelin/contracts/utils/ReentrancyGuard.sol\":2702:2720  _status == ENTERED */\n      sub\n        /* \"@openzeppelin/contracts/utils/ReentrancyGuard.sol\":2698:2784  if (_status == ENTERED) {... */\n      tag_122\n      jumpi\n        /* \"@openzeppelin/contracts/utils/ReentrancyGuard.sol\":2743:2773  ReentrancyGuardReentrantCall() */\n      mload(0x40)\n      0x3ee5aeb500000000000000000000000000000000000000000000000000000000\n      dup2\n      mstore\n      0x04\n      add\n      mload(0x40)\n      dup1\n      swap2\n      sub\n      swap1\n      revert\n        /* \"@openzeppelin/contracts/utils/ReentrancyGuard.sol\":2698:2784  if (_status == ENTERED) {... */\n    tag_122:\n        /* \"@openzeppelin/contracts/utils/ReentrancyGuard.sol\":1899:1900  2 */\n      0x02\n        /* \"@openzeppelin/contracts/utils/ReentrancyGuard.sol\":2858:2865  _status */\n      0x01\n        /* \"@openzeppelin/contracts/utils/ReentrancyGuard.sol\":2858:2875  _status = ENTERED */\n      dup2\n      swap1\n      sstore\n      pop\n        /* \"@openzeppelin/contracts/utils/ReentrancyGuard.sol\":2575:2882  function _nonReentrantBefore() private {... */\n      jump\t// out\n        /* \"@openzeppelin/contracts/utils/ReentrancyGuard.sol\":2888:3096  function _nonReentrantAfter() private {... */\n    tag_75:\n        /* \"@openzeppelin/contracts/utils/ReentrancyGuard.sol\":1857:1858  1 */\n      0x01\n        /* \"@openzeppelin/contracts/utils/ReentrancyGuard.sol\":3068:3075  _status */\n      dup1\n        /* \"@openzeppelin/contracts/utils/ReentrancyGuard.sol\":3068:3089  _status = NOT_ENTERED */\n      dup2\n      swap1\n      sstore\n      pop\n        /* \"@openzeppelin/contracts/utils/ReentrancyGuard.sol\":2888:3096  function _nonReentrantAfter() private {... */\n      jump\t// out\n        /* \"@openzeppelin/contracts/access/Ownable.sol\":2912:3099  function _transferOwnership(address newOwner) internal virtual {... */\n    tag_93:\n        /* \"@openzeppelin/contracts/access/Ownable.sol\":2985:3001  address oldOwner */\n      0x00\n        /* \"@openzeppelin/contracts/access/Ownable.sol\":3004:3010  _owner */\n      dup1\n      0x00\n      swap1\n      sload\n      swap1\n      0x0100\n      exp\n      swap1\n      div\n      0xffffffffffffffffffffffffffffffffffffffff\n      and\n        /* \"@openzeppelin/contracts/access/Ownable.sol\":2985:3010  address oldOwner = _owner */\n      swap1\n      pop\n        /* \"@openzeppelin/contracts/access/Ownable.sol\":3029:3037  newOwner */\n      dup2\n        /* \"@openzeppelin/contracts/access/Ownable.sol\":3020:3026  _owner */\n      0x00\n      dup1\n        /* \"@openzeppelin/contracts/access/Ownable.sol\":3020:3037  _owner = newOwner */\n      0x0100\n      exp\n      dup2\n      sload\n      dup2\n      0xffffffffffffffffffffffffffffffffffffffff\n      mul\n      not\n      and\n      swap1\n      dup4\n      0xffffffffffffffffffffffffffffffffffffffff\n      and\n      mul\n      or\n      swap1\n      sstore\n      pop\n        /* \"@openzeppelin/contracts/access/Ownable.sol\":3083:3091  newOwner */\n      dup2\n        /* \"@openzeppelin/contracts/access/Ownable.sol\":3052:3092  OwnershipTransferred(oldOwner, newOwner) */\n      0xffffffffffffffffffffffffffffffffffffffff\n      and\n        /* \"@openzeppelin/contracts/access/Ownable.sol\":3073:3081  oldOwner */\n      dup2\n        /* \"@openzeppelin/contracts/access/Ownable.sol\":3052:3092  OwnershipTransferred(oldOwner, newOwner) */\n      0xffffffffffffffffffffffffffffffffffffffff\n      and\n      0x8be0079c531659141344cd1fd0a4f28419497f9722a3daafe3b4186f6b6457e0\n      mload(0x40)\n      mload(0x40)\n      dup1\n      swap2\n      sub\n      swap1\n      log3\n        /* \"@openzeppelin/contracts/access/Ownable.sol\":2975:3099  {... */\n      pop\n        /* \"@openzeppelin/contracts/access/Ownable.sol\":2912:3099  function _transferOwnership(address newOwner) internal virtual {... */\n      pop\n      jump\t// out\n        /* \"@openzeppelin/contracts/utils/Context.sol\":656:752  function _msgSender() internal view virtual returns (address) {... */\n    tag_116:\n        /* \"@openzeppelin/contracts/utils/Context.sol\":709:716  address */\n      0x00\n        /* \"@openzeppelin/contracts/utils/Context.sol\":735:745  msg.sender */\n      caller\n        /* \"@openzeppelin/contracts/utils/Context.sol\":728:745  return msg.sender */\n      swap1\n      pop\n        /* \"@openzeppelin/contracts/utils/Context.sol\":656:752  function _msgSender() internal view virtual returns (address) {... */\n      swap1\n      jump\t// out\n        /* \"#utility.yul\":7:82   */\n    tag_126:\n        /* \"#utility.yul\":40:46   */\n      0x00\n        /* \"#utility.yul\":73:75   */\n      0x40\n        /* \"#utility.yul\":67:76   */\n      mload\n        /* \"#utility.yul\":57:76   */\n      swap1\n      pop\n        /* \"#utility.yul\":7:82   */\n      swap1\n      jump\t// out\n        /* \"#utility.yul\":88:205   */\n    tag_127:\n        /* \"#utility.yul\":197:198   */\n      0x00\n        /* \"#utility.yul\":194:195   */\n      dup1\n        /* \"#utility.yul\":187:199   */\n      revert\n        /* \"#utility.yul\":211:328   */\n    tag_128:\n        /* \"#utility.yul\":320:321   */\n      0x00\n        /* \"#utility.yul\":317:318   */\n      dup1\n        /* \"#utility.yul\":310:322   */\n      revert\n        /* \"#utility.yul\":334:460   */\n    tag_129:\n        /* \"#utility.yul\":371:378   */\n      0x00\n        /* \"#utility.yul\":411:453   */\n      0xffffffffffffffffffffffffffffffffffffffff\n        /* \"#utility.yul\":404:409   */\n      dup3\n        /* \"#utility.yul\":400:454   */\n      and\n        /* \"#utility.yul\":389:454   */\n      swap1\n      pop\n        /* \"#utility.yul\":334:460   */\n      swap2\n      swap1\n      pop\n      jump\t// out\n        /* \"#utility.yul\":466:562   */\n    tag_130:\n        /* \"#utility.yul\":503:510   */\n      0x00\n        /* \"#utility.yul\":532:556   */\n      tag_202\n        /* \"#utility.yul\":550:555   */\n      dup3\n        /* \"#utility.yul\":532:556   */\n      tag_129\n      jump\t// in\n    tag_202:\n        /* \"#utility.yul\":521:556   */\n      swap1\n      pop\n        /* \"#utility.yul\":466:562   */\n      swap2\n      swap1\n      pop\n      jump\t// out\n        /* \"#utility.yul\":568:690   */\n    tag_131:\n        /* \"#utility.yul\":641:665   */\n      tag_204\n        /* \"#utility.yul\":659:664   */\n      dup2\n        /* \"#utility.yul\":641:665   */\n      tag_130\n      jump\t// in\n    tag_204:\n        /* \"#utility.yul\":634:639   */\n      dup2\n        /* \"#utility.yul\":631:666   */\n      eq\n        /* \"#utility.yul\":621:684   */\n      tag_205\n      jumpi\n        /* \"#utility.yul\":680:681   */\n      0x00\n        /* \"#utility.yul\":677:678   */\n      dup1\n        /* \"#utility.yul\":670:682   */\n      revert\n        /* \"#utility.yul\":621:684   */\n    tag_205:\n        /* \"#utility.yul\":568:690   */\n      pop\n      jump\t// out\n        /* \"#utility.yul\":696:835   */\n    tag_132:\n        /* \"#utility.yul\":742:747   */\n      0x00\n        /* \"#utility.yul\":780:786   */\n      dup2\n        /* \"#utility.yul\":767:787   */\n      calldataload\n        /* \"#utility.yul\":758:787   */\n      swap1\n      pop\n        /* \"#utility.yul\":796:829   */\n      tag_207\n        /* \"#utility.yul\":823:828   */\n      dup2\n        /* \"#utility.yul\":796:829   */\n      tag_131\n      jump\t// in\n    tag_207:\n        /* \"#utility.yul\":696:835   */\n      swap3\n      swap2\n      pop\n      pop\n      jump\t// out\n        /* \"#utility.yul\":841:1170   */\n    tag_14:\n        /* \"#utility.yul\":900:906   */\n      0x00\n        /* \"#utility.yul\":949:951   */\n      0x20\n        /* \"#utility.yul\":937:946   */\n      dup3\n        /* \"#utility.yul\":928:935   */\n      dup5\n        /* \"#utility.yul\":924:947   */\n      sub\n        /* \"#utility.yul\":920:952   */\n      slt\n        /* \"#utility.yul\":917:1036   */\n      iszero\n      tag_209\n      jumpi\n        /* \"#utility.yul\":955:1034   */\n      tag_210\n      tag_127\n      jump\t// in\n    tag_210:\n        /* \"#utility.yul\":917:1036   */\n    tag_209:\n        /* \"#utility.yul\":1075:1076   */\n      0x00\n        /* \"#utility.yul\":1100:1153   */\n      tag_211\n        /* \"#utility.yul\":1145:1152   */\n      dup5\n        /* \"#utility.yul\":1136:1142   */\n      dup3\n        /* \"#utility.yul\":1125:1134   */\n      dup6\n        /* \"#utility.yul\":1121:1143   */\n      add\n        /* \"#utility.yul\":1100:1153   */\n      tag_132\n      jump\t// in\n    tag_211:\n        /* \"#utility.yul\":1090:1153   */\n      swap2\n      pop\n        /* \"#utility.yul\":1046:1163   */\n      pop\n        /* \"#utility.yul\":841:1170   */\n      swap3\n      swap2\n      pop\n      pop\n      jump\t// out\n        /* \"#utility.yul\":1176:1290   */\n    tag_133:\n        /* \"#utility.yul\":1243:1249   */\n      0x00\n        /* \"#utility.yul\":1277:1282   */\n      dup2\n        /* \"#utility.yul\":1271:1283   */\n      mload\n        /* \"#utility.yul\":1261:1283   */\n      swap1\n      pop\n        /* \"#utility.yul\":1176:1290   */\n      swap2\n      swap1\n      pop\n      jump\t// out\n        /* \"#utility.yul\":1296:1480   */\n    tag_134:\n        /* \"#utility.yul\":1395:1406   */\n      0x00\n        /* \"#utility.yul\":1429:1435   */\n      dup3\n        /* \"#utility.yul\":1424:1427   */\n      dup3\n        /* \"#utility.yul\":1417:1436   */\n      mstore\n        /* \"#utility.yul\":1469:1473   */\n      0x20\n        /* \"#utility.yul\":1464:1467   */\n      dup3\n        /* \"#utility.yul\":1460:1474   */\n      add\n        /* \"#utility.yul\":1445:1474   */\n      swap1\n      pop\n        /* \"#utility.yul\":1296:1480   */\n      swap3\n      swap2\n      pop\n      pop\n      jump\t// out\n        /* \"#utility.yul\":1486:1618   */\n    tag_135:\n        /* \"#utility.yul\":1553:1557   */\n      0x00\n        /* \"#utility.yul\":1576:1579   */\n      dup2\n        /* \"#utility.yul\":1568:1579   */\n      swap1\n      pop\n        /* \"#utility.yul\":1606:1610   */\n      0x20\n        /* \"#utility.yul\":1601:1604   */\n      dup3\n        /* \"#utility.yul\":1597:1611   */\n      add\n        /* \"#utility.yul\":1589:1611   */\n      swap1\n      pop\n        /* \"#utility.yul\":1486:1618   */\n      swap2\n      swap1\n      pop\n      jump\t// out\n        /* \"#utility.yul\":1624:1701   */\n    tag_136:\n        /* \"#utility.yul\":1661:1668   */\n      0x00\n        /* \"#utility.yul\":1690:1695   */\n      dup2\n        /* \"#utility.yul\":1679:1695   */\n      swap1\n      pop\n        /* \"#utility.yul\":1624:1701   */\n      swap2\n      swap1\n      pop\n      jump\t// out\n        /* \"#utility.yul\":1707:1815   */\n    tag_137:\n        /* \"#utility.yul\":1784:1808   */\n      tag_217\n        /* \"#utility.yul\":1802:1807   */\n      dup2\n        /* \"#utility.yul\":1784:1808   */\n      tag_136\n      jump\t// in\n    tag_217:\n        /* \"#utility.yul\":1779:1782   */\n      dup3\n        /* \"#utility.yul\":1772:1809   */\n      mstore\n        /* \"#utility.yul\":1707:1815   */\n      pop\n      pop\n      jump\t// out\n        /* \"#utility.yul\":1821:2000   */\n    tag_138:\n        /* \"#utility.yul\":1890:1900   */\n      0x00\n        /* \"#utility.yul\":1911:1957   */\n      tag_219\n        /* \"#utility.yul\":1953:1956   */\n      dup4\n        /* \"#utility.yul\":1945:1951   */\n      dup4\n        /* \"#utility.yul\":1911:1957   */\n      tag_137\n      jump\t// in\n    tag_219:\n        /* \"#utility.yul\":1989:1993   */\n      0x20\n        /* \"#utility.yul\":1984:1987   */\n      dup4\n        /* \"#utility.yul\":1980:1994   */\n      add\n        /* \"#utility.yul\":1966:1994   */\n      swap1\n      pop\n        /* \"#utility.yul\":1821:2000   */\n      swap3\n      swap2\n      pop\n      pop\n      jump\t// out\n        /* \"#utility.yul\":2006:2119   */\n    tag_139:\n        /* \"#utility.yul\":2076:2080   */\n      0x00\n        /* \"#utility.yul\":2108:2112   */\n      0x20\n        /* \"#utility.yul\":2103:2106   */\n      dup3\n        /* \"#utility.yul\":2099:2113   */\n      add\n        /* \"#utility.yul\":2091:2113   */\n      swap1\n      pop\n        /* \"#utility.yul\":2006:2119   */\n      swap2\n      swap1\n      pop\n      jump\t// out\n        /* \"#utility.yul\":2155:2887   */\n    tag_140:\n        /* \"#utility.yul\":2274:2277   */\n      0x00\n        /* \"#utility.yul\":2303:2357   */\n      tag_222\n        /* \"#utility.yul\":2351:2356   */\n      dup3\n        /* \"#utility.yul\":2303:2357   */\n      tag_133\n      jump\t// in\n    tag_222:\n        /* \"#utility.yul\":2373:2459   */\n      tag_223\n        /* \"#utility.yul\":2452:2458   */\n      dup2\n        /* \"#utility.yul\":2447:2450   */\n      dup6\n        /* \"#utility.yul\":2373:2459   */\n      tag_134\n      jump\t// in\n    tag_223:\n        /* \"#utility.yul\":2366:2459   */\n      swap4\n      pop\n        /* \"#utility.yul\":2483:2539   */\n      tag_224\n        /* \"#utility.yul\":2533:2538   */\n      dup4\n        /* \"#utility.yul\":2483:2539   */\n      tag_135\n      jump\t// in\n    tag_224:\n        /* \"#utility.yul\":2562:2569   */\n      dup1\n        /* \"#utility.yul\":2593:2594   */\n      0x00\n        /* \"#utility.yul\":2578:2862   */\n    tag_225:\n        /* \"#utility.yul\":2603:2609   */\n      dup4\n        /* \"#utility.yul\":2600:2601   */\n      dup2\n        /* \"#utility.yul\":2597:2610   */\n      lt\n        /* \"#utility.yul\":2578:2862   */\n      iszero\n      tag_227\n      jumpi\n        /* \"#utility.yul\":2679:2685   */\n      dup2\n        /* \"#utility.yul\":2673:2686   */\n      mload\n        /* \"#utility.yul\":2706:2769   */\n      tag_228\n        /* \"#utility.yul\":2765:2768   */\n      dup9\n        /* \"#utility.yul\":2750:2763   */\n      dup3\n        /* \"#utility.yul\":2706:2769   */\n      tag_138\n      jump\t// in\n    tag_228:\n        /* \"#utility.yul\":2699:2769   */\n      swap8\n      pop\n        /* \"#utility.yul\":2792:2852   */\n      tag_229\n        /* \"#utility.yul\":2845:2851   */\n      dup4\n        /* \"#utility.yul\":2792:2852   */\n      tag_139\n      jump\t// in\n    tag_229:\n        /* \"#utility.yul\":2782:2852   */\n      swap3\n      pop\n        /* \"#utility.yul\":2638:2862   */\n      pop\n        /* \"#utility.yul\":2625:2626   */\n      0x01\n        /* \"#utility.yul\":2622:2623   */\n      dup2\n        /* \"#utility.yul\":2618:2627   */\n      add\n        /* \"#utility.yul\":2613:2627   */\n      swap1\n      pop\n        /* \"#utility.yul\":2578:2862   */\n      jump(tag_225)\n    tag_227:\n        /* \"#utility.yul\":2582:2596   */\n      pop\n        /* \"#utility.yul\":2878:2881   */\n      dup6\n        /* \"#utility.yul\":2871:2881   */\n      swap4\n      pop\n        /* \"#utility.yul\":2279:2887   */\n      pop\n      pop\n      pop\n        /* \"#utility.yul\":2155:2887   */\n      swap3\n      swap2\n      pop\n      pop\n      jump\t// out\n        /* \"#utility.yul\":2893:3266   */\n    tag_17:\n        /* \"#utility.yul\":3036:3040   */\n      0x00\n        /* \"#utility.yul\":3074:3076   */\n      0x20\n        /* \"#utility.yul\":3063:3072   */\n      dup3\n        /* \"#utility.yul\":3059:3077   */\n      add\n        /* \"#utility.yul\":3051:3077   */\n      swap1\n      pop\n        /* \"#utility.yul\":3123:3132   */\n      dup2\n        /* \"#utility.yul\":3117:3121   */\n      dup2\n        /* \"#utility.yul\":3113:3133   */\n      sub\n        /* \"#utility.yul\":3109:3110   */\n      0x00\n        /* \"#utility.yul\":3098:3107   */\n      dup4\n        /* \"#utility.yul\":3094:3111   */\n      add\n        /* \"#utility.yul\":3087:3134   */\n      mstore\n        /* \"#utility.yul\":3151:3259   */\n      tag_231\n        /* \"#utility.yul\":3254:3258   */\n      dup2\n        /* \"#utility.yul\":3245:3251   */\n      dup5\n        /* \"#utility.yul\":3151:3259   */\n      tag_140\n      jump\t// in\n    tag_231:\n        /* \"#utility.yul\":3143:3259   */\n      swap1\n      pop\n        /* \"#utility.yul\":2893:3266   */\n      swap3\n      swap2\n      pop\n      pop\n      jump\t// out\n        /* \"#utility.yul\":3272:3394   */\n    tag_141:\n        /* \"#utility.yul\":3345:3369   */\n      tag_233\n        /* \"#utility.yul\":3363:3368   */\n      dup2\n        /* \"#utility.yul\":3345:3369   */\n      tag_136\n      jump\t// in\n    tag_233:\n        /* \"#utility.yul\":3338:3343   */\n      dup2\n        /* \"#utility.yul\":3335:3370   */\n      eq\n        /* \"#utility.yul\":3325:3388   */\n      tag_234\n      jumpi\n        /* \"#utility.yul\":3384:3385   */\n      0x00\n        /* \"#utility.yul\":3381:3382   */\n      dup1\n        /* \"#utility.yul\":3374:3386   */\n      revert\n        /* \"#utility.yul\":3325:3388   */\n    tag_234:\n        /* \"#utility.yul\":3272:3394   */\n      pop\n      jump\t// out\n        /* \"#utility.yul\":3400:3539   */\n    tag_142:\n        /* \"#utility.yul\":3446:3451   */\n      0x00\n        /* \"#utility.yul\":3484:3490   */\n      dup2\n        /* \"#utility.yul\":3471:3491   */\n      calldataload\n        /* \"#utility.yul\":3462:3491   */\n      swap1\n      pop\n        /* \"#utility.yul\":3500:3533   */\n      tag_236\n        /* \"#utility.yul\":3527:3532   */\n      dup2\n        /* \"#utility.yul\":3500:3533   */\n      tag_141\n      jump\t// in\n    tag_236:\n        /* \"#utility.yul\":3400:3539   */\n      swap3\n      swap2\n      pop\n      pop\n      jump\t// out\n        /* \"#utility.yul\":3545:3662   */\n    tag_143:\n        /* \"#utility.yul\":3654:3655   */\n      0x00\n        /* \"#utility.yul\":3651:3652   */\n      dup1\n        /* \"#utility.yul\":3644:3656   */\n      revert\n        /* \"#utility.yul\":3668:3785   */\n    tag_144:\n        /* \"#utility.yul\":3777:3778   */\n      0x00\n        /* \"#utility.yul\":3774:3775   */\n      dup1\n        /* \"#utility.yul\":3767:3779   */\n      revert\n        /* \"#utility.yul\":3791:3893   */\n    tag_145:\n        /* \"#utility.yul\":3832:3838   */\n      0x00\n        /* \"#utility.yul\":3883:3885   */\n      0x1f\n        /* \"#utility.yul\":3879:3886   */\n      not\n        /* \"#utility.yul\":3874:3876   */\n      0x1f\n        /* \"#utility.yul\":3867:3872   */\n      dup4\n        /* \"#utility.yul\":3863:3877   */\n      add\n        /* \"#utility.yul\":3859:3887   */\n      and\n        /* \"#utility.yul\":3849:3887   */\n      swap1\n      pop\n        /* \"#utility.yul\":3791:3893   */\n      swap2\n      swap1\n      pop\n      jump\t// out\n        /* \"#utility.yul\":3899:4079   */\n    tag_146:\n        /* \"#utility.yul\":3947:4024   */\n      0x4e487b7100000000000000000000000000000000000000000000000000000000\n        /* \"#utility.yul\":3944:3945   */\n      0x00\n        /* \"#utility.yul\":3937:4025   */\n      mstore\n        /* \"#utility.yul\":4044:4048   */\n      0x41\n        /* \"#utility.yul\":4041:4042   */\n      0x04\n        /* \"#utility.yul\":4034:4049   */\n      mstore\n        /* \"#utility.yul\":4068:4072   */\n      0x24\n        /* \"#utility.yul\":4065:4066   */\n      0x00\n        /* \"#utility.yul\":4058:4073   */\n      revert\n        /* \"#utility.yul\":4085:4366   */\n    tag_147:\n        /* \"#utility.yul\":4168:4195   */\n      tag_242\n        /* \"#utility.yul\":4190:4194   */\n      dup3\n        /* \"#utility.yul\":4168:4195   */\n      tag_145\n      jump\t// in\n    tag_242:\n        /* \"#utility.yul\":4160:4166   */\n      dup2\n        /* \"#utility.yul\":4156:4196   */\n      add\n        /* \"#utility.yul\":4298:4304   */\n      dup2\n        /* \"#utility.yul\":4286:4296   */\n      dup2\n        /* \"#utility.yul\":4283:4305   */\n      lt\n        /* \"#utility.yul\":4262:4280   */\n      0xffffffffffffffff\n        /* \"#utility.yul\":4250:4260   */\n      dup3\n        /* \"#utility.yul\":4247:4281   */\n      gt\n        /* \"#utility.yul\":4244:4306   */\n      or\n        /* \"#utility.yul\":4241:4329   */\n      iszero\n      tag_243\n      jumpi\n        /* \"#utility.yul\":4309:4327   */\n      tag_244\n      tag_146\n      jump\t// in\n    tag_244:\n        /* \"#utility.yul\":4241:4329   */\n    tag_243:\n        /* \"#utility.yul\":4349:4359   */\n      dup1\n        /* \"#utility.yul\":4345:4347   */\n      0x40\n        /* \"#utility.yul\":4338:4360   */\n      mstore\n        /* \"#utility.yul\":4128:4366   */\n      pop\n        /* \"#utility.yul\":4085:4366   */\n      pop\n      pop\n      jump\t// out\n        /* \"#utility.yul\":4372:4501   */\n    tag_148:\n        /* \"#utility.yul\":4406:4412   */\n      0x00\n        /* \"#utility.yul\":4433:4453   */\n      tag_246\n      tag_126\n      jump\t// in\n    tag_246:\n        /* \"#utility.yul\":4423:4453   */\n      swap1\n      pop\n        /* \"#utility.yul\":4462:4495   */\n      tag_247\n        /* \"#utility.yul\":4490:4494   */\n      dup3\n        /* \"#utility.yul\":4482:4488   */\n      dup3\n        /* \"#utility.yul\":4462:4495   */\n      tag_147\n      jump\t// in\n    tag_247:\n        /* \"#utility.yul\":4372:4501   */\n      swap2\n      swap1\n      pop\n      jump\t// out\n        /* \"#utility.yul\":4507:4815   */\n    tag_149:\n        /* \"#utility.yul\":4569:4573   */\n      0x00\n        /* \"#utility.yul\":4659:4677   */\n      0xffffffffffffffff\n        /* \"#utility.yul\":4651:4657   */\n      dup3\n        /* \"#utility.yul\":4648:4678   */\n      gt\n        /* \"#utility.yul\":4645:4701   */\n      iszero\n      tag_249\n      jumpi\n        /* \"#utility.yul\":4681:4699   */\n      tag_250\n      tag_146\n      jump\t// in\n    tag_250:\n        /* \"#utility.yul\":4645:4701   */\n    tag_249:\n        /* \"#utility.yul\":4719:4748   */\n      tag_251\n        /* \"#utility.yul\":4741:4747   */\n      dup3\n        /* \"#utility.yul\":4719:4748   */\n      tag_145\n      jump\t// in\n    tag_251:\n        /* \"#utility.yul\":4711:4748   */\n      swap1\n      pop\n        /* \"#utility.yul\":4803:4807   */\n      0x20\n        /* \"#utility.yul\":4797:4801   */\n      dup2\n        /* \"#utility.yul\":4793:4808   */\n      add\n        /* \"#utility.yul\":4785:4808   */\n      swap1\n      pop\n        /* \"#utility.yul\":4507:4815   */\n      swap2\n      swap1\n      pop\n      jump\t// out\n        /* \"#utility.yul\":4821:4969   */\n    tag_150:\n        /* \"#utility.yul\":4919:4925   */\n      dup3\n        /* \"#utility.yul\":4914:4917   */\n      dup2\n        /* \"#utility.yul\":4909:4912   */\n      dup4\n        /* \"#utility.yul\":4896:4926   */\n      calldatacopy\n        /* \"#utility.yul\":4960:4961   */\n      0x00\n        /* \"#utility.yul\":4951:4957   */\n      dup4\n        /* \"#utility.yul\":4946:4949   */\n      dup4\n        /* \"#utility.yul\":4942:4958   */\n      add\n        /* \"#utility.yul\":4935:4962   */\n      mstore\n        /* \"#utility.yul\":4821:4969   */\n      pop\n      pop\n      pop\n      jump\t// out\n        /* \"#utility.yul\":4975:5400   */\n    tag_151:\n        /* \"#utility.yul\":5053:5058   */\n      0x00\n        /* \"#utility.yul\":5078:5144   */\n      tag_254\n        /* \"#utility.yul\":5094:5143   */\n      tag_255\n        /* \"#utility.yul\":5136:5142   */\n      dup5\n        /* \"#utility.yul\":5094:5143   */\n      tag_149\n      jump\t// in\n    tag_255:\n        /* \"#utility.yul\":5078:5144   */\n      tag_148\n      jump\t// in\n    tag_254:\n        /* \"#utility.yul\":5069:5144   */\n      swap1\n      pop\n        /* \"#utility.yul\":5167:5173   */\n      dup3\n        /* \"#utility.yul\":5160:5165   */\n      dup2\n        /* \"#utility.yul\":5153:5174   */\n      mstore\n        /* \"#utility.yul\":5205:5209   */\n      0x20\n        /* \"#utility.yul\":5198:5203   */\n      dup2\n        /* \"#utility.yul\":5194:5210   */\n      add\n        /* \"#utility.yul\":5243:5246   */\n      dup5\n        /* \"#utility.yul\":5234:5240   */\n      dup5\n        /* \"#utility.yul\":5229:5232   */\n      dup5\n        /* \"#utility.yul\":5225:5241   */\n      add\n        /* \"#utility.yul\":5222:5247   */\n      gt\n        /* \"#utility.yul\":5219:5331   */\n      iszero\n      tag_256\n      jumpi\n        /* \"#utility.yul\":5250:5329   */\n      tag_257\n      tag_144\n      jump\t// in\n    tag_257:\n        /* \"#utility.yul\":5219:5331   */\n    tag_256:\n        /* \"#utility.yul\":5340:5394   */\n      tag_258\n        /* \"#utility.yul\":5387:5393   */\n      dup5\n        /* \"#utility.yul\":5382:5385   */\n      dup3\n        /* \"#utility.yul\":5377:5380   */\n      dup6\n        /* \"#utility.yul\":5340:5394   */\n      tag_150\n      jump\t// in\n    tag_258:\n        /* \"#utility.yul\":5059:5400   */\n      pop\n        /* \"#utility.yul\":4975:5400   */\n      swap4\n      swap3\n      pop\n      pop\n      pop\n      jump\t// out\n        /* \"#utility.yul\":5420:5760   */\n    tag_152:\n        /* \"#utility.yul\":5476:5481   */\n      0x00\n        /* \"#utility.yul\":5525:5528   */\n      dup3\n        /* \"#utility.yul\":5518:5522   */\n      0x1f\n        /* \"#utility.yul\":5510:5516   */\n      dup4\n        /* \"#utility.yul\":5506:5523   */\n      add\n        /* \"#utility.yul\":5502:5529   */\n      slt\n        /* \"#utility.yul\":5492:5614   */\n      tag_260\n      jumpi\n        /* \"#utility.yul\":5533:5612   */\n      tag_261\n      tag_143\n      jump\t// in\n    tag_261:\n        /* \"#utility.yul\":5492:5614   */\n    tag_260:\n        /* \"#utility.yul\":5650:5656   */\n      dup2\n        /* \"#utility.yul\":5637:5657   */\n      calldataload\n        /* \"#utility.yul\":5675:5754   */\n      tag_262\n        /* \"#utility.yul\":5750:5753   */\n      dup5\n        /* \"#utility.yul\":5742:5748   */\n      dup3\n        /* \"#utility.yul\":5735:5739   */\n      0x20\n        /* \"#utility.yul\":5727:5733   */\n      dup7\n        /* \"#utility.yul\":5723:5740   */\n      add\n        /* \"#utility.yul\":5675:5754   */\n      tag_151\n      jump\t// in\n    tag_262:\n        /* \"#utility.yul\":5666:5754   */\n      swap2\n      pop\n        /* \"#utility.yul\":5482:5760   */\n      pop\n        /* \"#utility.yul\":5420:5760   */\n      swap3\n      swap2\n      pop\n      pop\n      jump\t// out\n        /* \"#utility.yul\":5766:5843   */\n    tag_153:\n        /* \"#utility.yul\":5803:5810   */\n      0x00\n        /* \"#utility.yul\":5832:5837   */\n      dup2\n        /* \"#utility.yul\":5821:5837   */\n      swap1\n      pop\n        /* \"#utility.yul\":5766:5843   */\n      swap2\n      swap1\n      pop\n      jump\t// out\n        /* \"#utility.yul\":5849:5971   */\n    tag_154:\n        /* \"#utility.yul\":5922:5946   */\n      tag_265\n        /* \"#utility.yul\":5940:5945   */\n      dup2\n        /* \"#utility.yul\":5922:5946   */\n      tag_153\n      jump\t// in\n    tag_265:\n        /* \"#utility.yul\":5915:5920   */\n      dup2\n        /* \"#utility.yul\":5912:5947   */\n      eq\n        /* \"#utility.yul\":5902:5965   */\n      tag_266\n      jumpi\n        /* \"#utility.yul\":5961:5962   */\n      0x00\n        /* \"#utility.yul\":5958:5959   */\n      dup1\n        /* \"#utility.yul\":5951:5963   */\n      revert\n        /* \"#utility.yul\":5902:5965   */\n    tag_266:\n        /* \"#utility.yul\":5849:5971   */\n      pop\n      jump\t// out\n        /* \"#utility.yul\":5977:6116   */\n    tag_155:\n        /* \"#utility.yul\":6023:6028   */\n      0x00\n        /* \"#utility.yul\":6061:6067   */\n      dup2\n        /* \"#utility.yul\":6048:6068   */\n      calldataload\n        /* \"#utility.yul\":6039:6068   */\n      swap1\n      pop\n        /* \"#utility.yul\":6077:6110   */\n      tag_268\n        /* \"#utility.yul\":6104:6109   */\n      dup2\n        /* \"#utility.yul\":6077:6110   */\n      tag_154\n      jump\t// in\n    tag_268:\n        /* \"#utility.yul\":5977:6116   */\n      swap3\n      swap2\n      pop\n      pop\n      jump\t// out\n        /* \"#utility.yul\":6122:7067   */\n    tag_20:\n        /* \"#utility.yul\":6218:6224   */\n      0x00\n        /* \"#utility.yul\":6226:6232   */\n      dup1\n        /* \"#utility.yul\":6234:6240   */\n      0x00\n        /* \"#utility.yul\":6242:6248   */\n      dup1\n        /* \"#utility.yul\":6291:6294   */\n      0x80\n        /* \"#utility.yul\":6279:6288   */\n      dup6\n        /* \"#utility.yul\":6270:6277   */\n      dup8\n        /* \"#utility.yul\":6266:6289   */\n      sub\n        /* \"#utility.yul\":6262:6295   */\n      slt\n        /* \"#utility.yul\":6259:6379   */\n      iszero\n      tag_270\n      jumpi\n        /* \"#utility.yul\":6298:6377   */\n      tag_271\n      tag_127\n      jump\t// in\n    tag_271:\n        /* \"#utility.yul\":6259:6379   */\n    tag_270:\n        /* \"#utility.yul\":6418:6419   */\n      0x00\n        /* \"#utility.yul\":6443:6496   */\n      tag_272\n        /* \"#utility.yul\":6488:6495   */\n      dup8\n        /* \"#utility.yul\":6479:6485   */\n      dup3\n        /* \"#utility.yul\":6468:6477   */\n      dup9\n        /* \"#utility.yul\":6464:6486   */\n      add\n        /* \"#utility.yul\":6443:6496   */\n      tag_142\n      jump\t// in\n    tag_272:\n        /* \"#utility.yul\":6433:6496   */\n      swap5\n      pop\n        /* \"#utility.yul\":6389:6506   */\n      pop\n        /* \"#utility.yul\":6573:6575   */\n      0x20\n        /* \"#utility.yul\":6562:6571   */\n      dup6\n        /* \"#utility.yul\":6558:6576   */\n      add\n        /* \"#utility.yul\":6545:6577   */\n      calldataload\n        /* \"#utility.yul\":6604:6622   */\n      0xffffffffffffffff\n        /* \"#utility.yul\":6596:6602   */\n      dup2\n        /* \"#utility.yul\":6593:6623   */\n      gt\n        /* \"#utility.yul\":6590:6707   */\n      iszero\n      tag_273\n      jumpi\n        /* \"#utility.yul\":6626:6705   */\n      tag_274\n      tag_128\n      jump\t// in\n    tag_274:\n        /* \"#utility.yul\":6590:6707   */\n    tag_273:\n        /* \"#utility.yul\":6731:6794   */\n      tag_275\n        /* \"#utility.yul\":6786:6793   */\n      dup8\n        /* \"#utility.yul\":6777:6783   */\n      dup3\n        /* \"#utility.yul\":6766:6775   */\n      dup9\n        /* \"#utility.yul\":6762:6784   */\n      add\n        /* \"#utility.yul\":6731:6794   */\n      tag_152\n      jump\t// in\n    tag_275:\n        /* \"#utility.yul\":6721:6794   */\n      swap4\n      pop\n        /* \"#utility.yul\":6516:6804   */\n      pop\n        /* \"#utility.yul\":6843:6845   */\n      0x40\n        /* \"#utility.yul\":6869:6922   */\n      tag_276\n        /* \"#utility.yul\":6914:6921   */\n      dup8\n        /* \"#utility.yul\":6905:6911   */\n      dup3\n        /* \"#utility.yul\":6894:6903   */\n      dup9\n        /* \"#utility.yul\":6890:6912   */\n      add\n        /* \"#utility.yul\":6869:6922   */\n      tag_132\n      jump\t// in\n    tag_276:\n        /* \"#utility.yul\":6859:6922   */\n      swap3\n      pop\n        /* \"#utility.yul\":6814:6932   */\n      pop\n        /* \"#utility.yul\":6971:6973   */\n      0x60\n        /* \"#utility.yul\":6997:7050   */\n      tag_277\n        /* \"#utility.yul\":7042:7049   */\n      dup8\n        /* \"#utility.yul\":7033:7039   */\n      dup3\n        /* \"#utility.yul\":7022:7031   */\n      dup9\n        /* \"#utility.yul\":7018:7040   */\n      add\n        /* \"#utility.yul\":6997:7050   */\n      tag_155\n      jump\t// in\n    tag_277:\n        /* \"#utility.yul\":6987:7050   */\n      swap2\n      pop\n        /* \"#utility.yul\":6942:7060   */\n      pop\n        /* \"#utility.yul\":6122:7067   */\n      swap3\n      swap6\n      swap2\n      swap5\n      pop\n      swap3\n      pop\n      jump\t// out\n        /* \"#utility.yul\":7073:7547   */\n    tag_24:\n        /* \"#utility.yul\":7141:7147   */\n      0x00\n        /* \"#utility.yul\":7149:7155   */\n      dup1\n        /* \"#utility.yul\":7198:7200   */\n      0x40\n        /* \"#utility.yul\":7186:7195   */\n      dup4\n        /* \"#utility.yul\":7177:7184   */\n      dup6\n        /* \"#utility.yul\":7173:7196   */\n      sub\n        /* \"#utility.yul\":7169:7201   */\n      slt\n        /* \"#utility.yul\":7166:7285   */\n      iszero\n      tag_279\n      jumpi\n        /* \"#utility.yul\":7204:7283   */\n      tag_280\n      tag_127\n      jump\t// in\n    tag_280:\n        /* \"#utility.yul\":7166:7285   */\n    tag_279:\n        /* \"#utility.yul\":7324:7325   */\n      0x00\n        /* \"#utility.yul\":7349:7402   */\n      tag_281\n        /* \"#utility.yul\":7394:7401   */\n      dup6\n        /* \"#utility.yul\":7385:7391   */\n      dup3\n        /* \"#utility.yul\":7374:7383   */\n      dup7\n        /* \"#utility.yul\":7370:7392   */\n      add\n        /* \"#utility.yul\":7349:7402   */\n      tag_142\n      jump\t// in\n    tag_281:\n        /* \"#utility.yul\":7339:7402   */\n      swap3\n      pop\n        /* \"#utility.yul\":7295:7412   */\n      pop\n        /* \"#utility.yul\":7451:7453   */\n      0x20\n        /* \"#utility.yul\":7477:7530   */\n      tag_282\n        /* \"#utility.yul\":7522:7529   */\n      dup6\n        /* \"#utility.yul\":7513:7519   */\n      dup3\n        /* \"#utility.yul\":7502:7511   */\n      dup7\n        /* \"#utility.yul\":7498:7520   */\n      add\n        /* \"#utility.yul\":7477:7530   */\n      tag_132\n      jump\t// in\n    tag_282:\n        /* \"#utility.yul\":7467:7530   */\n      swap2\n      pop\n        /* \"#utility.yul\":7422:7540   */\n      pop\n        /* \"#utility.yul\":7073:7547   */\n      swap3\n      pop\n      swap3\n      swap1\n      pop\n      jump\t// out\n        /* \"#utility.yul\":7553:7643   */\n    tag_156:\n        /* \"#utility.yul\":7587:7594   */\n      0x00\n        /* \"#utility.yul\":7630:7635   */\n      dup2\n        /* \"#utility.yul\":7623:7636   */\n      iszero\n        /* \"#utility.yul\":7616:7637   */\n      iszero\n        /* \"#utility.yul\":7605:7637   */\n      swap1\n      pop\n        /* \"#utility.yul\":7553:7643   */\n      swap2\n      swap1\n      pop\n      jump\t// out\n        /* \"#utility.yul\":7649:7758   */\n    tag_157:\n        /* \"#utility.yul\":7730:7751   */\n      tag_285\n        /* \"#utility.yul\":7745:7750   */\n      dup2\n        /* \"#utility.yul\":7730:7751   */\n      tag_156\n      jump\t// in\n    tag_285:\n        /* \"#utility.yul\":7725:7728   */\n      dup3\n        /* \"#utility.yul\":7718:7752   */\n      mstore\n        /* \"#utility.yul\":7649:7758   */\n      pop\n      pop\n      jump\t// out\n        /* \"#utility.yul\":7764:7974   */\n    tag_27:\n        /* \"#utility.yul\":7851:7855   */\n      0x00\n        /* \"#utility.yul\":7889:7891   */\n      0x20\n        /* \"#utility.yul\":7878:7887   */\n      dup3\n        /* \"#utility.yul\":7874:7892   */\n      add\n        /* \"#utility.yul\":7866:7892   */\n      swap1\n      pop\n        /* \"#utility.yul\":7902:7967   */\n      tag_287\n        /* \"#utility.yul\":7964:7965   */\n      0x00\n        /* \"#utility.yul\":7953:7962   */\n      dup4\n        /* \"#utility.yul\":7949:7966   */\n      add\n        /* \"#utility.yul\":7940:7946   */\n      dup5\n        /* \"#utility.yul\":7902:7967   */\n      tag_157\n      jump\t// in\n    tag_287:\n        /* \"#utility.yul\":7764:7974   */\n      swap3\n      swap2\n      pop\n      pop\n      jump\t// out\n        /* \"#utility.yul\":7980:8309   */\n    tag_30:\n        /* \"#utility.yul\":8039:8045   */\n      0x00\n        /* \"#utility.yul\":8088:8090   */\n      0x20\n        /* \"#utility.yul\":8076:8085   */\n      dup3\n        /* \"#utility.yul\":8067:8074   */\n      dup5\n        /* \"#utility.yul\":8063:8086   */\n      sub\n        /* \"#utility.yul\":8059:8091   */\n      slt\n        /* \"#utility.yul\":8056:8175   */\n      iszero\n      tag_289\n      jumpi\n        /* \"#utility.yul\":8094:8173   */\n      tag_290\n      tag_127\n      jump\t// in\n    tag_290:\n        /* \"#utility.yul\":8056:8175   */\n    tag_289:\n        /* \"#utility.yul\":8214:8215   */\n      0x00\n        /* \"#utility.yul\":8239:8292   */\n      tag_291\n        /* \"#utility.yul\":8284:8291   */\n      dup5\n        /* \"#utility.yul\":8275:8281   */\n      dup3\n        /* \"#utility.yul\":8264:8273   */\n      dup6\n        /* \"#utility.yul\":8260:8282   */\n      add\n        /* \"#utility.yul\":8239:8292   */\n      tag_142\n      jump\t// in\n    tag_291:\n        /* \"#utility.yul\":8229:8292   */\n      swap2\n      pop\n        /* \"#utility.yul\":8185:8302   */\n      pop\n        /* \"#utility.yul\":7980:8309   */\n      swap3\n      swap2\n      pop\n      pop\n      jump\t// out\n        /* \"#utility.yul\":8315:8414   */\n    tag_158:\n        /* \"#utility.yul\":8367:8373   */\n      0x00\n        /* \"#utility.yul\":8401:8406   */\n      dup2\n        /* \"#utility.yul\":8395:8407   */\n      mload\n        /* \"#utility.yul\":8385:8407   */\n      swap1\n      pop\n        /* \"#utility.yul\":8315:8414   */\n      swap2\n      swap1\n      pop\n      jump\t// out\n        /* \"#utility.yul\":8420:8589   */\n    tag_159:\n        /* \"#utility.yul\":8504:8515   */\n      0x00\n        /* \"#utility.yul\":8538:8544   */\n      dup3\n        /* \"#utility.yul\":8533:8536   */\n      dup3\n        /* \"#utility.yul\":8526:8545   */\n      mstore\n        /* \"#utility.yul\":8578:8582   */\n      0x20\n        /* \"#utility.yul\":8573:8576   */\n      dup3\n        /* \"#utility.yul\":8569:8583   */\n      add\n        /* \"#utility.yul\":8554:8583   */\n      swap1\n      pop\n        /* \"#utility.yul\":8420:8589   */\n      swap3\n      swap2\n      pop\n      pop\n      jump\t// out\n        /* \"#utility.yul\":8595:8734   */\n    tag_160:\n        /* \"#utility.yul\":8684:8690   */\n      dup3\n        /* \"#utility.yul\":8679:8682   */\n      dup2\n        /* \"#utility.yul\":8674:8677   */\n      dup4\n        /* \"#utility.yul\":8668:8691   */\n      mcopy\n        /* \"#utility.yul\":8725:8726   */\n      0x00\n        /* \"#utility.yul\":8716:8722   */\n      dup4\n        /* \"#utility.yul\":8711:8714   */\n      dup4\n        /* \"#utility.yul\":8707:8723   */\n      add\n        /* \"#utility.yul\":8700:8727   */\n      mstore\n        /* \"#utility.yul\":8595:8734   */\n      pop\n      pop\n      pop\n      jump\t// out\n        /* \"#utility.yul\":8740:9117   */\n    tag_161:\n        /* \"#utility.yul\":8828:8831   */\n      0x00\n        /* \"#utility.yul\":8856:8895   */\n      tag_296\n        /* \"#utility.yul\":8889:8894   */\n      dup3\n        /* \"#utility.yul\":8856:8895   */\n      tag_158\n      jump\t// in\n    tag_296:\n        /* \"#utility.yul\":8911:8982   */\n      tag_297\n        /* \"#utility.yul\":8975:8981   */\n      dup2\n        /* \"#utility.yul\":8970:8973   */\n      dup6\n        /* \"#utility.yul\":8911:8982   */\n      tag_159\n      jump\t// in\n    tag_297:\n        /* \"#utility.yul\":8904:8982   */\n      swap4\n      pop\n        /* \"#utility.yul\":8991:9056   */\n      tag_298\n        /* \"#utility.yul\":9049:9055   */\n      dup2\n        /* \"#utility.yul\":9044:9047   */\n      dup6\n        /* \"#utility.yul\":9037:9041   */\n      0x20\n        /* \"#utility.yul\":9030:9035   */\n      dup7\n        /* \"#utility.yul\":9026:9042   */\n      add\n        /* \"#utility.yul\":8991:9056   */\n      tag_160\n      jump\t// in\n    tag_298:\n        /* \"#utility.yul\":9081:9110   */\n      tag_299\n        /* \"#utility.yul\":9103:9109   */\n      dup2\n        /* \"#utility.yul\":9081:9110   */\n      tag_145\n      jump\t// in\n    tag_299:\n        /* \"#utility.yul\":9076:9079   */\n      dup5\n        /* \"#utility.yul\":9072:9111   */\n      add\n        /* \"#utility.yul\":9065:9111   */\n      swap2\n      pop\n        /* \"#utility.yul\":8832:9117   */\n      pop\n        /* \"#utility.yul\":8740:9117   */\n      swap3\n      swap2\n      pop\n      pop\n      jump\t// out\n        /* \"#utility.yul\":9123:9241   */\n    tag_162:\n        /* \"#utility.yul\":9210:9234   */\n      tag_301\n        /* \"#utility.yul\":9228:9233   */\n      dup2\n        /* \"#utility.yul\":9210:9234   */\n      tag_130\n      jump\t// in\n    tag_301:\n        /* \"#utility.yul\":9205:9208   */\n      dup3\n        /* \"#utility.yul\":9198:9235   */\n      mstore\n        /* \"#utility.yul\":9123:9241   */\n      pop\n      pop\n      jump\t// out\n        /* \"#utility.yul\":9247:9365   */\n    tag_163:\n        /* \"#utility.yul\":9334:9358   */\n      tag_303\n        /* \"#utility.yul\":9352:9357   */\n      dup2\n        /* \"#utility.yul\":9334:9358   */\n      tag_153\n      jump\t// in\n    tag_303:\n        /* \"#utility.yul\":9329:9332   */\n      dup3\n        /* \"#utility.yul\":9322:9359   */\n      mstore\n        /* \"#utility.yul\":9247:9365   */\n      pop\n      pop\n      jump\t// out\n        /* \"#utility.yul\":9371:10015   */\n    tag_33:\n        /* \"#utility.yul\":9568:9572   */\n      0x00\n        /* \"#utility.yul\":9606:9609   */\n      0x80\n        /* \"#utility.yul\":9595:9604   */\n      dup3\n        /* \"#utility.yul\":9591:9610   */\n      add\n        /* \"#utility.yul\":9583:9610   */\n      swap1\n      pop\n        /* \"#utility.yul\":9656:9665   */\n      dup2\n        /* \"#utility.yul\":9650:9654   */\n      dup2\n        /* \"#utility.yul\":9646:9666   */\n      sub\n        /* \"#utility.yul\":9642:9643   */\n      0x00\n        /* \"#utility.yul\":9631:9640   */\n      dup4\n        /* \"#utility.yul\":9627:9644   */\n      add\n        /* \"#utility.yul\":9620:9667   */\n      mstore\n        /* \"#utility.yul\":9684:9762   */\n      tag_305\n        /* \"#utility.yul\":9757:9761   */\n      dup2\n        /* \"#utility.yul\":9748:9754   */\n      dup8\n        /* \"#utility.yul\":9684:9762   */\n      tag_161\n      jump\t// in\n    tag_305:\n        /* \"#utility.yul\":9676:9762   */\n      swap1\n      pop\n        /* \"#utility.yul\":9772:9844   */\n      tag_306\n        /* \"#utility.yul\":9840:9842   */\n      0x20\n        /* \"#utility.yul\":9829:9838   */\n      dup4\n        /* \"#utility.yul\":9825:9843   */\n      add\n        /* \"#utility.yul\":9816:9822   */\n      dup7\n        /* \"#utility.yul\":9772:9844   */\n      tag_162\n      jump\t// in\n    tag_306:\n        /* \"#utility.yul\":9854:9926   */\n      tag_307\n        /* \"#utility.yul\":9922:9924   */\n      0x40\n        /* \"#utility.yul\":9911:9920   */\n      dup4\n        /* \"#utility.yul\":9907:9925   */\n      add\n        /* \"#utility.yul\":9898:9904   */\n      dup6\n        /* \"#utility.yul\":9854:9926   */\n      tag_163\n      jump\t// in\n    tag_307:\n        /* \"#utility.yul\":9936:10008   */\n      tag_308\n        /* \"#utility.yul\":10004:10006   */\n      0x60\n        /* \"#utility.yul\":9993:10002   */\n      dup4\n        /* \"#utility.yul\":9989:10007   */\n      add\n        /* \"#utility.yul\":9980:9986   */\n      dup5\n        /* \"#utility.yul\":9936:10008   */\n      tag_163\n      jump\t// in\n    tag_308:\n        /* \"#utility.yul\":9371:10015   */\n      swap6\n      swap5\n      pop\n      pop\n      pop\n      pop\n      pop\n      jump\t// out\n        /* \"#utility.yul\":10021:10137   */\n    tag_164:\n        /* \"#utility.yul\":10091:10112   */\n      tag_310\n        /* \"#utility.yul\":10106:10111   */\n      dup2\n        /* \"#utility.yul\":10091:10112   */\n      tag_156\n      jump\t// in\n    tag_310:\n        /* \"#utility.yul\":10084:10089   */\n      dup2\n        /* \"#utility.yul\":10081:10113   */\n      eq\n        /* \"#utility.yul\":10071:10131   */\n      tag_311\n      jumpi\n        /* \"#utility.yul\":10127:10128   */\n      0x00\n        /* \"#utility.yul\":10124:10125   */\n      dup1\n        /* \"#utility.yul\":10117:10129   */\n      revert\n        /* \"#utility.yul\":10071:10131   */\n    tag_311:\n        /* \"#utility.yul\":10021:10137   */\n      pop\n      jump\t// out\n        /* \"#utility.yul\":10143:10276   */\n    tag_165:\n        /* \"#utility.yul\":10186:10191   */\n      0x00\n        /* \"#utility.yul\":10224:10230   */\n      dup2\n        /* \"#utility.yul\":10211:10231   */\n      calldataload\n        /* \"#utility.yul\":10202:10231   */\n      swap1\n      pop\n        /* \"#utility.yul\":10240:10270   */\n      tag_313\n        /* \"#utility.yul\":10264:10269   */\n      dup2\n        /* \"#utility.yul\":10240:10270   */\n      tag_164\n      jump\t// in\n    tag_313:\n        /* \"#utility.yul\":10143:10276   */\n      swap3\n      swap2\n      pop\n      pop\n      jump\t// out\n        /* \"#utility.yul\":10282:10895   */\n    tag_38:\n        /* \"#utility.yul\":10356:10362   */\n      0x00\n        /* \"#utility.yul\":10364:10370   */\n      dup1\n        /* \"#utility.yul\":10372:10378   */\n      0x00\n        /* \"#utility.yul\":10421:10423   */\n      0x60\n        /* \"#utility.yul\":10409:10418   */\n      dup5\n        /* \"#utility.yul\":10400:10407   */\n      dup7\n        /* \"#utility.yul\":10396:10419   */\n      sub\n        /* \"#utility.yul\":10392:10424   */\n      slt\n        /* \"#utility.yul\":10389:10508   */\n      iszero\n      tag_315\n      jumpi\n        /* \"#utility.yul\":10427:10506   */\n      tag_316\n      tag_127\n      jump\t// in\n    tag_316:\n        /* \"#utility.yul\":10389:10508   */\n    tag_315:\n        /* \"#utility.yul\":10547:10548   */\n      0x00\n        /* \"#utility.yul\":10572:10625   */\n      tag_317\n        /* \"#utility.yul\":10617:10624   */\n      dup7\n        /* \"#utility.yul\":10608:10614   */\n      dup3\n        /* \"#utility.yul\":10597:10606   */\n      dup8\n        /* \"#utility.yul\":10593:10615   */\n      add\n        /* \"#utility.yul\":10572:10625   */\n      tag_142\n      jump\t// in\n    tag_317:\n        /* \"#utility.yul\":10562:10625   */\n      swap4\n      pop\n        /* \"#utility.yul\":10518:10635   */\n      pop\n        /* \"#utility.yul\":10674:10676   */\n      0x20\n        /* \"#utility.yul\":10700:10753   */\n      tag_318\n        /* \"#utility.yul\":10745:10752   */\n      dup7\n        /* \"#utility.yul\":10736:10742   */\n      dup3\n        /* \"#utility.yul\":10725:10734   */\n      dup8\n        /* \"#utility.yul\":10721:10743   */\n      add\n        /* \"#utility.yul\":10700:10753   */\n      tag_132\n      jump\t// in\n    tag_318:\n        /* \"#utility.yul\":10690:10753   */\n      swap3\n      pop\n        /* \"#utility.yul\":10645:10763   */\n      pop\n        /* \"#utility.yul\":10802:10804   */\n      0x40\n        /* \"#utility.yul\":10828:10878   */\n      tag_319\n        /* \"#utility.yul\":10870:10877   */\n      dup7\n        /* \"#utility.yul\":10861:10867   */\n      dup3\n        /* \"#utility.yul\":10850:10859   */\n      dup8\n        /* \"#utility.yul\":10846:10868   */\n      add\n        /* \"#utility.yul\":10828:10878   */\n      tag_165\n      jump\t// in\n    tag_319:\n        /* \"#utility.yul\":10818:10878   */\n      swap2\n      pop\n        /* \"#utility.yul\":10773:10888   */\n      pop\n        /* \"#utility.yul\":10282:10895   */\n      swap3\n      pop\n      swap3\n      pop\n      swap3\n      jump\t// out\n        /* \"#utility.yul\":10901:11123   */\n    tag_43:\n        /* \"#utility.yul\":10994:10998   */\n      0x00\n        /* \"#utility.yul\":11032:11034   */\n      0x20\n        /* \"#utility.yul\":11021:11030   */\n      dup3\n        /* \"#utility.yul\":11017:11035   */\n      add\n        /* \"#utility.yul\":11009:11035   */\n      swap1\n      pop\n        /* \"#utility.yul\":11045:11116   */\n      tag_321\n        /* \"#utility.yul\":11113:11114   */\n      0x00\n        /* \"#utility.yul\":11102:11111   */\n      dup4\n        /* \"#utility.yul\":11098:11115   */\n      add\n        /* \"#utility.yul\":11089:11095   */\n      dup5\n        /* \"#utility.yul\":11045:11116   */\n      tag_162\n      jump\t// in\n    tag_321:\n        /* \"#utility.yul\":10901:11123   */\n      swap3\n      swap2\n      pop\n      pop\n      jump\t// out\n        /* \"#utility.yul\":11129:11296   */\n    tag_166:\n        /* \"#utility.yul\":11269:11288   */\n      0x496e76616c69642066696c652068617368000000000000000000000000000000\n        /* \"#utility.yul\":11265:11266   */\n      0x00\n        /* \"#utility.yul\":11257:11263   */\n      dup3\n        /* \"#utility.yul\":11253:11267   */\n      add\n        /* \"#utility.yul\":11246:11289   */\n      mstore\n        /* \"#utility.yul\":11129:11296   */\n      pop\n      jump\t// out\n        /* \"#utility.yul\":11302:11668   */\n    tag_167:\n        /* \"#utility.yul\":11444:11447   */\n      0x00\n        /* \"#utility.yul\":11465:11532   */\n      tag_324\n        /* \"#utility.yul\":11529:11531   */\n      0x11\n        /* \"#utility.yul\":11524:11527   */\n      dup4\n        /* \"#utility.yul\":11465:11532   */\n      tag_159\n      jump\t// in\n    tag_324:\n        /* \"#utility.yul\":11458:11532   */\n      swap2\n      pop\n        /* \"#utility.yul\":11541:11634   */\n      tag_325\n        /* \"#utility.yul\":11630:11633   */\n      dup3\n        /* \"#utility.yul\":11541:11634   */\n      tag_166\n      jump\t// in\n    tag_325:\n        /* \"#utility.yul\":11659:11661   */\n      0x20\n        /* \"#utility.yul\":11654:11657   */\n      dup3\n        /* \"#utility.yul\":11650:11662   */\n      add\n        /* \"#utility.yul\":11643:11662   */\n      swap1\n      pop\n        /* \"#utility.yul\":11302:11668   */\n      swap2\n      swap1\n      pop\n      jump\t// out\n        /* \"#utility.yul\":11674:12093   */\n    tag_59:\n        /* \"#utility.yul\":11840:11844   */\n      0x00\n        /* \"#utility.yul\":11878:11880   */\n      0x20\n        /* \"#utility.yul\":11867:11876   */\n      dup3\n        /* \"#utility.yul\":11863:11881   */\n      add\n        /* \"#utility.yul\":11855:11881   */\n      swap1\n      pop\n        /* \"#utility.yul\":11927:11936   */\n      dup2\n        /* \"#utility.yul\":11921:11925   */\n      dup2\n        /* \"#utility.yul\":11917:11937   */\n      sub\n        /* \"#utility.yul\":11913:11914   */\n      0x00\n        /* \"#utility.yul\":11902:11911   */\n      dup4\n        /* \"#utility.yul\":11898:11915   */\n      add\n        /* \"#utility.yul\":11891:11938   */\n      mstore\n        /* \"#utility.yul\":11955:12086   */\n      tag_327\n        /* \"#utility.yul\":12081:12085   */\n      dup2\n        /* \"#utility.yul\":11955:12086   */\n      tag_167\n      jump\t// in\n    tag_327:\n        /* \"#utility.yul\":11947:12086   */\n      swap1\n      pop\n        /* \"#utility.yul\":11674:12093   */\n      swap2\n      swap1\n      pop\n      jump\t// out\n        /* \"#utility.yul\":12099:12270   */\n    tag_168:\n        /* \"#utility.yul\":12239:12262   */\n      0x496e76616c6964206f776e657220616464726573730000000000000000000000\n        /* \"#utility.yul\":12235:12236   */\n      0x00\n        /* \"#utility.yul\":12227:12233   */\n      dup3\n        /* \"#utility.yul\":12223:12237   */\n      add\n        /* \"#utility.yul\":12216:12263   */\n      mstore\n        /* \"#utility.yul\":12099:12270   */\n      pop\n      jump\t// out\n        /* \"#utility.yul\":12276:12642   */\n    tag_169:\n        /* \"#utility.yul\":12418:12421   */\n      0x00\n        /* \"#utility.yul\":12439:12506   */\n      tag_330\n        /* \"#utility.yul\":12503:12505   */\n      0x15\n        /* \"#utility.yul\":12498:12501   */\n      dup4\n        /* \"#utility.yul\":12439:12506   */\n      tag_159\n      jump\t// in\n    tag_330:\n        /* \"#utility.yul\":12432:12506   */\n      swap2\n      pop\n        /* \"#utility.yul\":12515:12608   */\n      tag_331\n        /* \"#utility.yul\":12604:12607   */\n      dup3\n        /* \"#utility.yul\":12515:12608   */\n      tag_168\n      jump\t// in\n    tag_331:\n        /* \"#utility.yul\":12633:12635   */\n      0x20\n        /* \"#utility.yul\":12628:12631   */\n      dup3\n        /* \"#utility.yul\":12624:12636   */\n      add\n        /* \"#utility.yul\":12617:12636   */\n      swap1\n      pop\n        /* \"#utility.yul\":12276:12642   */\n      swap2\n      swap1\n      pop\n      jump\t// out\n        /* \"#utility.yul\":12648:13067   */\n    tag_62:\n        /* \"#utility.yul\":12814:12818   */\n      0x00\n        /* \"#utility.yul\":12852:12854   */\n      0x20\n        /* \"#utility.yul\":12841:12850   */\n      dup3\n        /* \"#utility.yul\":12837:12855   */\n      add\n        /* \"#utility.yul\":12829:12855   */\n      swap1\n      pop\n        /* \"#utility.yul\":12901:12910   */\n      dup2\n        /* \"#utility.yul\":12895:12899   */\n      dup2\n        /* \"#utility.yul\":12891:12911   */\n      sub\n        /* \"#utility.yul\":12887:12888   */\n      0x00\n        /* \"#utility.yul\":12876:12885   */\n      dup4\n        /* \"#utility.yul\":12872:12889   */\n      add\n        /* \"#utility.yul\":12865:12912   */\n      mstore\n        /* \"#utility.yul\":12929:13060   */\n      tag_333\n        /* \"#utility.yul\":13055:13059   */\n      dup2\n        /* \"#utility.yul\":12929:13060   */\n      tag_169\n      jump\t// in\n    tag_333:\n        /* \"#utility.yul\":12921:13060   */\n      swap1\n      pop\n        /* \"#utility.yul\":12648:13067   */\n      swap2\n      swap1\n      pop\n      jump\t// out\n        /* \"#utility.yul\":13073:13255   */\n    tag_170:\n        /* \"#utility.yul\":13213:13247   */\n      0x46696c652073697a65206d7573742062652067726561746572207468616e2030\n        /* \"#utility.yul\":13209:13210   */\n      0x00\n        /* \"#utility.yul\":13201:13207   */\n      dup3\n        /* \"#utility.yul\":13197:13211   */\n      add\n        /* \"#utility.yul\":13190:13248   */\n      mstore\n        /* \"#utility.yul\":13073:13255   */\n      pop\n      jump\t// out\n        /* \"#utility.yul\":13261:13627   */\n    tag_171:\n        /* \"#utility.yul\":13403:13406   */\n      0x00\n        /* \"#utility.yul\":13424:13491   */\n      tag_336\n        /* \"#utility.yul\":13488:13490   */\n      0x20\n        /* \"#utility.yul\":13483:13486   */\n      dup4\n        /* \"#utility.yul\":13424:13491   */\n      tag_159\n      jump\t// in\n    tag_336:\n        /* \"#utility.yul\":13417:13491   */\n      swap2\n      pop\n        /* \"#utility.yul\":13500:13593   */\n      tag_337\n        /* \"#utility.yul\":13589:13592   */\n      dup3\n        /* \"#utility.yul\":13500:13593   */\n      tag_170\n      jump\t// in\n    tag_337:\n        /* \"#utility.yul\":13618:13620   */\n      0x20\n        /* \"#utility.yul\":13613:13616   */\n      dup3\n        /* \"#utility.yul\":13609:13621   */\n      add\n        /* \"#utility.yul\":13602:13621   */\n      swap1\n      pop\n        /* \"#utility.yul\":13261:13627   */\n      swap2\n      swap1\n      pop\n      jump\t// out\n        /* \"#utility.yul\":13633:14052   */\n    tag_65:\n        /* \"#utility.yul\":13799:13803   */\n      0x00\n        /* \"#utility.yul\":13837:13839   */\n      0x20\n        /* \"#utility.yul\":13826:13835   */\n      dup3\n        /* \"#utility.yul\":13822:13840   */\n      add\n        /* \"#utility.yul\":13814:13840   */\n      swap1\n      pop\n        /* \"#utility.yul\":13886:13895   */\n      dup2\n        /* \"#utility.yul\":13880:13884   */\n      dup2\n        /* \"#utility.yul\":13876:13896   */\n      sub\n        /* \"#utility.yul\":13872:13873   */\n      0x00\n        /* \"#utility.yul\":13861:13870   */\n      dup4\n        /* \"#utility.yul\":13857:13874   */\n      add\n        /* \"#utility.yul\":13850:13897   */\n      mstore\n        /* \"#utility.yul\":13914:14045   */\n      tag_339\n        /* \"#utility.yul\":14040:14044   */\n      dup2\n        /* \"#utility.yul\":13914:14045   */\n      tag_171\n      jump\t// in\n    tag_339:\n        /* \"#utility.yul\":13906:14045   */\n      swap1\n      pop\n        /* \"#utility.yul\":13633:14052   */\n      swap2\n      swap1\n      pop\n      jump\t// out\n        /* \"#utility.yul\":14058:14227   */\n    tag_172:\n        /* \"#utility.yul\":14198:14219   */\n      0x46696c6520616c72656164792065786973747300000000000000000000000000\n        /* \"#utility.yul\":14194:14195   */\n      0x00\n        /* \"#utility.yul\":14186:14192   */\n      dup3\n        /* \"#utility.yul\":14182:14196   */\n      add\n        /* \"#utility.yul\":14175:14220   */\n      mstore\n        /* \"#utility.yul\":14058:14227   */\n      pop\n      jump\t// out\n        /* \"#utility.yul\":14233:14599   */\n    tag_173:\n        /* \"#utility.yul\":14375:14378   */\n      0x00\n        /* \"#utility.yul\":14396:14463   */\n      tag_342\n        /* \"#utility.yul\":14460:14462   */\n      0x13\n        /* \"#utility.yul\":14455:14458   */\n      dup4\n        /* \"#utility.yul\":14396:14463   */\n      tag_159\n      jump\t// in\n    tag_342:\n        /* \"#utility.yul\":14389:14463   */\n      swap2\n      pop\n        /* \"#utility.yul\":14472:14565   */\n      tag_343\n        /* \"#utility.yul\":14561:14564   */\n      dup3\n        /* \"#utility.yul\":14472:14565   */\n      tag_172\n      jump\t// in\n    tag_343:\n        /* \"#utility.yul\":14590:14592   */\n      0x20\n        /* \"#utility.yul\":14585:14588   */\n      dup3\n        /* \"#utility.yul\":14581:14593   */\n      add\n        /* \"#utility.yul\":14574:14593   */\n      swap1\n      pop\n        /* \"#utility.yul\":14233:14599   */\n      swap2\n      swap1\n      pop\n      jump\t// out\n        /* \"#utility.yul\":14605:15024   */\n    tag_68:\n        /* \"#utility.yul\":14771:14775   */\n      0x00\n        /* \"#utility.yul\":14809:14811   */\n      0x20\n        /* \"#utility.yul\":14798:14807   */\n      dup3\n        /* \"#utility.yul\":14794:14812   */\n      add\n        /* \"#utility.yul\":14786:14812   */\n      swap1\n      pop\n        /* \"#utility.yul\":14858:14867   */\n      dup2\n        /* \"#utility.yul\":14852:14856   */\n      dup2\n        /* \"#utility.yul\":14848:14868   */\n      sub\n        /* \"#utility.yul\":14844:14845   */\n      0x00\n        /* \"#utility.yul\":14833:14842   */\n      dup4\n        /* \"#utility.yul\":14829:14846   */\n      add\n        /* \"#utility.yul\":14822:14869   */\n      mstore\n        /* \"#utility.yul\":14886:15017   */\n      tag_345\n        /* \"#utility.yul\":15012:15016   */\n      dup2\n        /* \"#utility.yul\":14886:15017   */\n      tag_173\n      jump\t// in\n    tag_345:\n        /* \"#utility.yul\":14878:15017   */\n      swap1\n      pop\n        /* \"#utility.yul\":14605:15024   */\n      swap2\n      swap1\n      pop\n      jump\t// out\n        /* \"#utility.yul\":15030:15210   */\n    tag_174:\n        /* \"#utility.yul\":15078:15155   */\n      0x4e487b7100000000000000000000000000000000000000000000000000000000\n        /* \"#utility.yul\":15075:15076   */\n      0x00\n        /* \"#utility.yul\":15068:15156   */\n      mstore\n        /* \"#utility.yul\":15175:15179   */\n      0x22\n        /* \"#utility.yul\":15172:15173   */\n      0x04\n        /* \"#utility.yul\":15165:15180   */\n      mstore\n        /* \"#utility.yul\":15199:15203   */\n      0x24\n        /* \"#utility.yul\":15196:15197   */\n      0x00\n        /* \"#utility.yul\":15189:15204   */\n      revert\n        /* \"#utility.yul\":15216:15536   */\n    tag_84:\n        /* \"#utility.yul\":15260:15266   */\n      0x00\n        /* \"#utility.yul\":15297:15298   */\n      0x02\n        /* \"#utility.yul\":15291:15295   */\n      dup3\n        /* \"#utility.yul\":15287:15299   */\n      div\n        /* \"#utility.yul\":15277:15299   */\n      swap1\n      pop\n        /* \"#utility.yul\":15344:15345   */\n      0x01\n        /* \"#utility.yul\":15338:15342   */\n      dup3\n        /* \"#utility.yul\":15334:15346   */\n      and\n        /* \"#utility.yul\":15365:15383   */\n      dup1\n        /* \"#utility.yul\":15355:15436   */\n      tag_348\n      jumpi\n        /* \"#utility.yul\":15421:15425   */\n      0x7f\n        /* \"#utility.yul\":15413:15419   */\n      dup3\n        /* \"#utility.yul\":15409:15426   */\n      and\n        /* \"#utility.yul\":15399:15426   */\n      swap2\n      pop\n        /* \"#utility.yul\":15355:15436   */\n    tag_348:\n        /* \"#utility.yul\":15483:15485   */\n      0x20\n        /* \"#utility.yul\":15475:15481   */\n      dup3\n        /* \"#utility.yul\":15472:15486   */\n      lt\n        /* \"#utility.yul\":15452:15470   */\n      dup2\n        /* \"#utility.yul\":15449:15487   */\n      sub\n        /* \"#utility.yul\":15446:15530   */\n      tag_349\n      jumpi\n        /* \"#utility.yul\":15502:15520   */\n      tag_350\n      tag_174\n      jump\t// in\n    tag_350:\n        /* \"#utility.yul\":15446:15530   */\n    tag_349:\n        /* \"#utility.yul\":15267:15536   */\n      pop\n        /* \"#utility.yul\":15216:15536   */\n      swap2\n      swap1\n      pop\n      jump\t// out\n        /* \"#utility.yul\":15542:15683   */\n    tag_175:\n        /* \"#utility.yul\":15591:15595   */\n      0x00\n        /* \"#utility.yul\":15614:15617   */\n      dup2\n        /* \"#utility.yul\":15606:15617   */\n      swap1\n      pop\n        /* \"#utility.yul\":15637:15640   */\n      dup2\n        /* \"#utility.yul\":15634:15635   */\n      0x00\n        /* \"#utility.yul\":15627:15641   */\n      mstore\n        /* \"#utility.yul\":15671:15675   */\n      0x20\n        /* \"#utility.yul\":15668:15669   */\n      0x00\n        /* \"#utility.yul\":15658:15676   */\n      keccak256\n        /* \"#utility.yul\":15650:15676   */\n      swap1\n      pop\n        /* \"#utility.yul\":15542:15683   */\n      swap2\n      swap1\n      pop\n      jump\t// out\n        /* \"#utility.yul\":15689:15782   */\n    tag_176:\n        /* \"#utility.yul\":15726:15732   */\n      0x00\n        /* \"#utility.yul\":15773:15775   */\n      0x20\n        /* \"#utility.yul\":15768:15770   */\n      0x1f\n        /* \"#utility.yul\":15761:15766   */\n      dup4\n        /* \"#utility.yul\":15757:15771   */\n      add\n        /* \"#utility.yul\":15753:15776   */\n      div\n        /* \"#utility.yul\":15743:15776   */\n      swap1\n      pop\n        /* \"#utility.yul\":15689:15782   */\n      swap2\n      swap1\n      pop\n      jump\t// out\n        /* \"#utility.yul\":15788:15895   */\n    tag_177:\n        /* \"#utility.yul\":15832:15840   */\n      0x00\n        /* \"#utility.yul\":15882:15887   */\n      dup3\n        /* \"#utility.yul\":15876:15880   */\n      dup3\n        /* \"#utility.yul\":15872:15888   */\n      shl\n        /* \"#utility.yul\":15851:15888   */\n      swap1\n      pop\n        /* \"#utility.yul\":15788:15895   */\n      swap3\n      swap2\n      pop\n      pop\n      jump\t// out\n        /* \"#utility.yul\":15901:16294   */\n    tag_178:\n        /* \"#utility.yul\":15970:15976   */\n      0x00\n        /* \"#utility.yul\":16020:16021   */\n      0x08\n        /* \"#utility.yul\":16008:16018   */\n      dup4\n        /* \"#utility.yul\":16004:16022   */\n      mul\n        /* \"#utility.yul\":16043:16140   */\n      tag_355\n        /* \"#utility.yul\":16073:16139   */\n      0xffffffffffffffffffffffffffffffffffffffffffffffffffffffffffffffff\n        /* \"#utility.yul\":16062:16071   */\n      dup3\n        /* \"#utility.yul\":16043:16140   */\n      tag_177\n      jump\t// in\n    tag_355:\n        /* \"#utility.yul\":16161:16200   */\n      tag_356\n        /* \"#utility.yul\":16191:16199   */\n      dup7\n        /* \"#utility.yul\":16180:16189   */\n      dup4\n        /* \"#utility.yul\":16161:16200   */\n      tag_177\n      jump\t// in\n    tag_356:\n        /* \"#utility.yul\":16149:16200   */\n      swap6\n      pop\n        /* \"#utility.yul\":16233:16237   */\n      dup1\n        /* \"#utility.yul\":16229:16238   */\n      not\n        /* \"#utility.yul\":16222:16227   */\n      dup5\n        /* \"#utility.yul\":16218:16239   */\n      and\n        /* \"#utility.yul\":16209:16239   */\n      swap4\n      pop\n        /* \"#utility.yul\":16282:16286   */\n      dup1\n        /* \"#utility.yul\":16272:16280   */\n      dup7\n        /* \"#utility.yul\":16268:16287   */\n      and\n        /* \"#utility.yul\":16261:16266   */\n      dup5\n        /* \"#utility.yul\":16258:16288   */\n      or\n        /* \"#utility.yul\":16248:16288   */\n      swap3\n      pop\n        /* \"#utility.yul\":15977:16294   */\n      pop\n      pop\n        /* \"#utility.yul\":15901:16294   */\n      swap4\n      swap3\n      pop\n      pop\n      pop\n      jump\t// out\n        /* \"#utility.yul\":16300:16360   */\n    tag_179:\n        /* \"#utility.yul\":16328:16331   */\n      0x00\n        /* \"#utility.yul\":16349:16354   */\n      dup2\n        /* \"#utility.yul\":16342:16354   */\n      swap1\n      pop\n        /* \"#utility.yul\":16300:16360   */\n      swap2\n      swap1\n      pop\n      jump\t// out\n        /* \"#utility.yul\":16366:16508   */\n    tag_180:\n        /* \"#utility.yul\":16416:16425   */\n      0x00\n        /* \"#utility.yul\":16449:16502   */\n      tag_359\n        /* \"#utility.yul\":16467:16501   */\n      tag_360\n        /* \"#utility.yul\":16476:16500   */\n      tag_361\n        /* \"#utility.yul\":16494:16499   */\n      dup5\n        /* \"#utility.yul\":16476:16500   */\n      tag_153\n      jump\t// in\n    tag_361:\n        /* \"#utility.yul\":16467:16501   */\n      tag_179\n      jump\t// in\n    tag_360:\n        /* \"#utility.yul\":16449:16502   */\n      tag_153\n      jump\t// in\n    tag_359:\n        /* \"#utility.yul\":16436:16502   */\n      swap1\n      pop\n        /* \"#utility.yul\":16366:16508   */\n      swap2\n      swap1\n      pop\n      jump\t// out\n        /* \"#utility.yul\":16514:16589   */\n    tag_181:\n        /* \"#utility.yul\":16557:16560   */\n      0x00\n        /* \"#utility.yul\":16578:16583   */\n      dup2\n        /* \"#utility.yul\":16571:16583   */\n      swap1\n      pop\n        /* \"#utility.yul\":16514:16589   */\n      swap2\n      swap1\n      pop\n      jump\t// out\n        /* \"#utility.yul\":16595:16864   */\n    tag_182:\n        /* \"#utility.yul\":16705:16744   */\n      tag_364\n        /* \"#utility.yul\":16736:16743   */\n      dup4\n        /* \"#utility.yul\":16705:16744   */\n      tag_180\n      jump\t// in\n    tag_364:\n        /* \"#utility.yul\":16766:16857   */\n      tag_365\n        /* \"#utility.yul\":16815:16856   */\n      tag_366\n        /* \"#utility.yul\":16839:16855   */\n      dup3\n        /* \"#utility.yul\":16815:16856   */\n      tag_181\n      jump\t// in\n    tag_366:\n        /* \"#utility.yul\":16807:16813   */\n      dup5\n        /* \"#utility.yul\":16800:16804   */\n      dup5\n        /* \"#utility.yul\":16794:16805   */\n      sload\n        /* \"#utility.yul\":16766:16857   */\n      tag_178\n      jump\t// in\n    tag_365:\n        /* \"#utility.yul\":16760:16764   */\n      dup3\n        /* \"#utility.yul\":16753:16858   */\n      sstore\n        /* \"#utility.yul\":16671:16864   */\n      pop\n        /* \"#utility.yul\":16595:16864   */\n      pop\n      pop\n      pop\n      jump\t// out\n        /* \"#utility.yul\":16870:16943   */\n    tag_183:\n        /* \"#utility.yul\":16915:16918   */\n      0x00\n        /* \"#utility.yul\":16870:16943   */\n      swap1\n      jump\t// out\n        /* \"#utility.yul\":16949:17138   */\n    tag_184:\n        /* \"#utility.yul\":17026:17058   */\n      tag_369\n      tag_183\n      jump\t// in\n    tag_369:\n        /* \"#utility.yul\":17067:17132   */\n      tag_370\n        /* \"#utility.yul\":17125:17131   */\n      dup2\n        /* \"#utility.yul\":17117:17123   */\n      dup5\n        /* \"#utility.yul\":17111:17115   */\n      dup5\n        /* \"#utility.yul\":17067:17132   */\n      tag_182\n      jump\t// in\n    tag_370:\n        /* \"#utility.yul\":17002:17138   */\n      pop\n        /* \"#utility.yul\":16949:17138   */\n      pop\n      pop\n      jump\t// out\n        /* \"#utility.yul\":17144:17330   */\n    tag_185:\n        /* \"#utility.yul\":17204:17324   */\n    tag_372:\n        /* \"#utility.yul\":17221:17224   */\n      dup2\n        /* \"#utility.yul\":17214:17219   */\n      dup2\n        /* \"#utility.yul\":17211:17225   */\n      lt\n        /* \"#utility.yul\":17204:17324   */\n      iszero\n      tag_374\n      jumpi\n        /* \"#utility.yul\":17275:17314   */\n      tag_375\n        /* \"#utility.yul\":17312:17313   */\n      0x00\n        /* \"#utility.yul\":17305:17310   */\n      dup3\n        /* \"#utility.yul\":17275:17314   */\n      tag_184\n      jump\t// in\n    tag_375:\n        /* \"#utility.yul\":17248:17249   */\n      0x01\n        /* \"#utility.yul\":17241:17246   */\n      dup2\n        /* \"#utility.yul\":17237:17250   */\n      add\n        /* \"#utility.yul\":17228:17250   */\n      swap1\n      pop\n        /* \"#utility.yul\":17204:17324   */\n      jump(tag_372)\n    tag_374:\n        /* \"#utility.yul\":17144:17330   */\n      pop\n      pop\n      jump\t// out\n        /* \"#utility.yul\":17336:17879   */\n    tag_186:\n        /* \"#utility.yul\":17437:17439   */\n      0x1f\n        /* \"#utility.yul\":17432:17435   */\n      dup3\n        /* \"#utility.yul\":17429:17440   */\n      gt\n        /* \"#utility.yul\":17426:17872   */\n      iszero\n      tag_377\n      jumpi\n        /* \"#utility.yul\":17471:17509   */\n      tag_378\n        /* \"#utility.yul\":17503:17508   */\n      dup2\n        /* \"#utility.yul\":17471:17509   */\n      tag_175\n      jump\t// in\n    tag_378:\n        /* \"#utility.yul\":17555:17584   */\n      tag_379\n        /* \"#utility.yul\":17573:17583   */\n      dup5\n        /* \"#utility.yul\":17555:17584   */\n      tag_176\n      jump\t// in\n    tag_379:\n        /* \"#utility.yul\":17545:17553   */\n      dup2\n        /* \"#utility.yul\":17541:17585   */\n      add\n        /* \"#utility.yul\":17738:17740   */\n      0x20\n        /* \"#utility.yul\":17726:17736   */\n      dup6\n        /* \"#utility.yul\":17723:17741   */\n      lt\n        /* \"#utility.yul\":17720:17769   */\n      iszero\n      tag_380\n      jumpi\n        /* \"#utility.yul\":17759:17767   */\n      dup2\n        /* \"#utility.yul\":17744:17767   */\n      swap1\n      pop\n        /* \"#utility.yul\":17720:17769   */\n    tag_380:\n        /* \"#utility.yul\":17782:17862   */\n      tag_381\n        /* \"#utility.yul\":17838:17860   */\n      tag_382\n        /* \"#utility.yul\":17856:17859   */\n      dup6\n        /* \"#utility.yul\":17838:17860   */\n      tag_176\n      jump\t// in\n    tag_382:\n        /* \"#utility.yul\":17828:17836   */\n      dup4\n        /* \"#utility.yul\":17824:17861   */\n      add\n        /* \"#utility.yul\":17811:17822   */\n      dup3\n        /* \"#utility.yul\":17782:17862   */\n      tag_185\n      jump\t// in\n    tag_381:\n        /* \"#utility.yul\":17441:17872   */\n      pop\n      pop\n        /* \"#utility.yul\":17426:17872   */\n    tag_377:\n        /* \"#utility.yul\":17336:17879   */\n      pop\n      pop\n      pop\n      jump\t// out\n        /* \"#utility.yul\":17885:18002   */\n    tag_187:\n        /* \"#utility.yul\":17939:17947   */\n      0x00\n        /* \"#utility.yul\":17989:17994   */\n      dup3\n        /* \"#utility.yul\":17983:17987   */\n      dup3\n        /* \"#utility.yul\":17979:17995   */\n      shr\n        /* \"#utility.yul\":17958:17995   */\n      swap1\n      pop\n        /* \"#utility.yul\":17885:18002   */\n      swap3\n      swap2\n      pop\n      pop\n      jump\t// out\n        /* \"#utility.yul\":18008:18177   */\n    tag_188:\n        /* \"#utility.yul\":18052:18058   */\n      0x00\n        /* \"#utility.yul\":18085:18136   */\n      tag_385\n        /* \"#utility.yul\":18133:18134   */\n      0x00\n        /* \"#utility.yul\":18129:18135   */\n      not\n        /* \"#utility.yul\":18121:18126   */\n      dup5\n        /* \"#utility.yul\":18118:18119   */\n      0x08\n        /* \"#utility.yul\":18114:18127   */\n      mul\n        /* \"#utility.yul\":18085:18136   */\n      tag_187\n      jump\t// in\n    tag_385:\n        /* \"#utility.yul\":18081:18137   */\n      not\n        /* \"#utility.yul\":18166:18170   */\n      dup1\n        /* \"#utility.yul\":18160:18164   */\n      dup4\n        /* \"#utility.yul\":18156:18171   */\n      and\n        /* \"#utility.yul\":18146:18171   */\n      swap2\n      pop\n        /* \"#utility.yul\":18059:18177   */\n      pop\n        /* \"#utility.yul\":18008:18177   */\n      swap3\n      swap2\n      pop\n      pop\n      jump\t// out\n        /* \"#utility.yul\":18182:18477   */\n    tag_189:\n        /* \"#utility.yul\":18258:18262   */\n      0x00\n        /* \"#utility.yul\":18404:18433   */\n      tag_387\n        /* \"#utility.yul\":18429:18432   */\n      dup4\n        /* \"#utility.yul\":18423:18427   */\n      dup4\n        /* \"#utility.yul\":18404:18433   */\n      tag_188\n      jump\t// in\n    tag_387:\n        /* \"#utility.yul\":18396:18433   */\n      swap2\n      pop\n        /* \"#utility.yul\":18466:18469   */\n      dup3\n        /* \"#utility.yul\":18463:18464   */\n      0x02\n        /* \"#utility.yul\":18459:18470   */\n      mul\n        /* \"#utility.yul\":18453:18457   */\n      dup3\n        /* \"#utility.yul\":18450:18471   */\n      or\n        /* \"#utility.yul\":18442:18471   */\n      swap1\n      pop\n        /* \"#utility.yul\":18182:18477   */\n      swap3\n      swap2\n      pop\n      pop\n      jump\t// out\n        /* \"#utility.yul\":18482:19877   */\n    tag_70:\n        /* \"#utility.yul\":18599:18636   */\n      tag_389\n        /* \"#utility.yul\":18632:18635   */\n      dup3\n        /* \"#utility.yul\":18599:18636   */\n      tag_158\n      jump\t// in\n    tag_389:\n        /* \"#utility.yul\":18701:18719   */\n      0xffffffffffffffff\n        /* \"#utility.yul\":18693:18699   */\n      dup2\n        /* \"#utility.yul\":18690:18720   */\n      gt\n        /* \"#utility.yul\":18687:18743   */\n      iszero\n      tag_390\n      jumpi\n        /* \"#utility.yul\":18723:18741   */\n      tag_391\n      tag_146\n      jump\t// in\n    tag_391:\n        /* \"#utility.yul\":18687:18743   */\n    tag_390:\n        /* \"#utility.yul\":18767:18805   */\n      tag_392\n        /* \"#utility.yul\":18799:18803   */\n      dup3\n        /* \"#utility.yul\":18793:18804   */\n      sload\n        /* \"#utility.yul\":18767:18805   */\n      tag_84\n      jump\t// in\n    tag_392:\n        /* \"#utility.yul\":18852:18919   */\n      tag_393\n        /* \"#utility.yul\":18912:18918   */\n      dup3\n        /* \"#utility.yul\":18904:18910   */\n      dup3\n        /* \"#utility.yul\":18898:18902   */\n      dup6\n        /* \"#utility.yul\":18852:18919   */\n      tag_186\n      jump\t// in\n    tag_393:\n        /* \"#utility.yul\":18946:18947   */\n      0x00\n        /* \"#utility.yul\":18970:18974   */\n      0x20\n        /* \"#utility.yul\":18957:18974   */\n      swap1\n      pop\n        /* \"#utility.yul\":19002:19004   */\n      0x1f\n        /* \"#utility.yul\":18994:19000   */\n      dup4\n        /* \"#utility.yul\":18991:19005   */\n      gt\n        /* \"#utility.yul\":19019:19020   */\n      0x01\n        /* \"#utility.yul\":19014:19632   */\n      dup2\n      eq\n      tag_395\n      jumpi\n        /* \"#utility.yul\":19676:19677   */\n      0x00\n        /* \"#utility.yul\":19693:19699   */\n      dup5\n        /* \"#utility.yul\":19690:19767   */\n      iszero\n      tag_396\n      jumpi\n        /* \"#utility.yul\":19742:19751   */\n      dup3\n        /* \"#utility.yul\":19737:19740   */\n      dup8\n        /* \"#utility.yul\":19733:19752   */\n      add\n        /* \"#utility.yul\":19727:19753   */\n      mload\n        /* \"#utility.yul\":19718:19753   */\n      swap1\n      pop\n        /* \"#utility.yul\":19690:19767   */\n    tag_396:\n        /* \"#utility.yul\":19793:19860   */\n      tag_397\n        /* \"#utility.yul\":19853:19859   */\n      dup6\n        /* \"#utility.yul\":19846:19851   */\n      dup3\n        /* \"#utility.yul\":19793:19860   */\n      tag_189\n      jump\t// in\n    tag_397:\n        /* \"#utility.yul\":19787:19791   */\n      dup7\n        /* \"#utility.yul\":19780:19861   */\n      sstore\n        /* \"#utility.yul\":19649:19871   */\n      pop\n        /* \"#utility.yul\":18984:19871   */\n      jump(tag_394)\n        /* \"#utility.yul\":19014:19632   */\n    tag_395:\n        /* \"#utility.yul\":19066:19070   */\n      0x1f\n        /* \"#utility.yul\":19062:19071   */\n      not\n        /* \"#utility.yul\":19054:19060   */\n      dup5\n        /* \"#utility.yul\":19050:19072   */\n      and\n        /* \"#utility.yul\":19100:19137   */\n      tag_398\n        /* \"#utility.yul\":19132:19136   */\n      dup7\n        /* \"#utility.yul\":19100:19137   */\n      tag_175\n      jump\t// in\n    tag_398:\n        /* \"#utility.yul\":19159:19160   */\n      0x00\n        /* \"#utility.yul\":19173:19381   */\n    tag_399:\n        /* \"#utility.yul\":19187:19194   */\n      dup3\n        /* \"#utility.yul\":19184:19185   */\n      dup2\n        /* \"#utility.yul\":19181:19195   */\n      lt\n        /* \"#utility.yul\":19173:19381   */\n      iszero\n      tag_401\n      jumpi\n        /* \"#utility.yul\":19266:19275   */\n      dup5\n        /* \"#utility.yul\":19261:19264   */\n      dup10\n        /* \"#utility.yul\":19257:19276   */\n      add\n        /* \"#utility.yul\":19251:19277   */\n      mload\n        /* \"#utility.yul\":19243:19249   */\n      dup3\n        /* \"#utility.yul\":19236:19278   */\n      sstore\n        /* \"#utility.yul\":19317:19318   */\n      0x01\n        /* \"#utility.yul\":19309:19315   */\n      dup3\n        /* \"#utility.yul\":19305:19319   */\n      add\n        /* \"#utility.yul\":19295:19319   */\n      swap2\n      pop\n        /* \"#utility.yul\":19364:19366   */\n      0x20\n        /* \"#utility.yul\":19353:19362   */\n      dup6\n        /* \"#utility.yul\":19349:19367   */\n      add\n        /* \"#utility.yul\":19336:19367   */\n      swap5\n      pop\n        /* \"#utility.yul\":19210:19214   */\n      0x20\n        /* \"#utility.yul\":19207:19208   */\n      dup2\n        /* \"#utility.yul\":19203:19215   */\n      add\n        /* \"#utility.yul\":19198:19215   */\n      swap1\n      pop\n        /* \"#utility.yul\":19173:19381   */\n      jump(tag_399)\n    tag_401:\n        /* \"#utility.yul\":19409:19415   */\n      dup7\n        /* \"#utility.yul\":19400:19407   */\n      dup4\n        /* \"#utility.yul\":19397:19416   */\n      lt\n        /* \"#utility.yul\":19394:19573   */\n      iszero\n      tag_402\n      jumpi\n        /* \"#utility.yul\":19467:19476   */\n      dup5\n        /* \"#utility.yul\":19462:19465   */\n      dup10\n        /* \"#utility.yul\":19458:19477   */\n      add\n        /* \"#utility.yul\":19452:19478   */\n      mload\n        /* \"#utility.yul\":19510:19558   */\n      tag_403\n        /* \"#utility.yul\":19552:19556   */\n      0x1f\n        /* \"#utility.yul\":19544:19550   */\n      dup10\n        /* \"#utility.yul\":19540:19557   */\n      and\n        /* \"#utility.yul\":19529:19538   */\n      dup3\n        /* \"#utility.yul\":19510:19558   */\n      tag_188\n      jump\t// in\n    tag_403:\n        /* \"#utility.yul\":19502:19508   */\n      dup4\n        /* \"#utility.yul\":19495:19559   */\n      sstore\n        /* \"#utility.yul\":19417:19573   */\n      pop\n        /* \"#utility.yul\":19394:19573   */\n    tag_402:\n        /* \"#utility.yul\":19619:19620   */\n      0x01\n        /* \"#utility.yul\":19615:19616   */\n      0x02\n        /* \"#utility.yul\":19607:19613   */\n      dup9\n        /* \"#utility.yul\":19603:19617   */\n      mul\n        /* \"#utility.yul\":19599:19621   */\n      add\n        /* \"#utility.yul\":19593:19597   */\n      dup9\n        /* \"#utility.yul\":19586:19622   */\n      sstore\n        /* \"#utility.yul\":19021:19632   */\n      pop\n      pop\n      pop\n        /* \"#utility.yul\":18984:19871   */\n    tag_394:\n      pop\n        /* \"#utility.yul\":18574:19877   */\n      pop\n      pop\n      pop\n        /* \"#utility.yul\":18482:19877   */\n      pop\n      pop\n      jump\t// out\n        /* \"#utility.yul\":19883:20306   */\n    tag_73:\n        /* \"#utility.yul\":20024:20028   */\n      0x00\n        /* \"#utility.yul\":20062:20064   */\n      0x40\n        /* \"#utility.yul\":20051:20060   */\n      dup3\n        /* \"#utility.yul\":20047:20065   */\n      add\n        /* \"#utility.yul\":20039:20065   */\n      swap1\n      pop\n        /* \"#utility.yul\":20111:20120   */\n      dup2\n        /* \"#utility.yul\":20105:20109   */\n      dup2\n        /* \"#utility.yul\":20101:20121   */\n      sub\n        /* \"#utility.yul\":20097:20098   */\n      0x00\n        /* \"#utility.yul\":20086:20095   */\n      dup4\n        /* \"#utility.yul\":20082:20099   */\n      add\n        /* \"#utility.yul\":20075:20122   */\n      mstore\n        /* \"#utility.yul\":20139:20217   */\n      tag_405\n        /* \"#utility.yul\":20212:20216   */\n      dup2\n        /* \"#utility.yul\":20203:20209   */\n      dup6\n        /* \"#utility.yul\":20139:20217   */\n      tag_161\n      jump\t// in\n    tag_405:\n        /* \"#utility.yul\":20131:20217   */\n      swap1\n      pop\n        /* \"#utility.yul\":20227:20299   */\n      tag_406\n        /* \"#utility.yul\":20295:20297   */\n      0x20\n        /* \"#utility.yul\":20284:20293   */\n      dup4\n        /* \"#utility.yul\":20280:20298   */\n      add\n        /* \"#utility.yul\":20271:20277   */\n      dup5\n        /* \"#utility.yul\":20227:20299   */\n      tag_163\n      jump\t// in\n    tag_406:\n        /* \"#utility.yul\":19883:20306   */\n      swap4\n      swap3\n      pop\n      pop\n      pop\n      jump\t// out\n        /* \"#utility.yul\":20312:20481   */\n    tag_190:\n        /* \"#utility.yul\":20452:20473   */\n      0x46696c6520646f6573206e6f7420657869737400000000000000000000000000\n        /* \"#utility.yul\":20448:20449   */\n      0x00\n        /* \"#utility.yul\":20440:20446   */\n      dup3\n        /* \"#utility.yul\":20436:20450   */\n      add\n        /* \"#utility.yul\":20429:20474   */\n      mstore\n        /* \"#utility.yul\":20312:20481   */\n      pop\n      jump\t// out\n        /* \"#utility.yul\":20487:20853   */\n    tag_191:\n        /* \"#utility.yul\":20629:20632   */\n      0x00\n        /* \"#utility.yul\":20650:20717   */\n      tag_409\n        /* \"#utility.yul\":20714:20716   */\n      0x13\n        /* \"#utility.yul\":20709:20712   */\n      dup4\n        /* \"#utility.yul\":20650:20717   */\n      tag_159\n      jump\t// in\n    tag_409:\n        /* \"#utility.yul\":20643:20717   */\n      swap2\n      pop\n        /* \"#utility.yul\":20726:20819   */\n      tag_410\n        /* \"#utility.yul\":20815:20818   */\n      dup3\n        /* \"#utility.yul\":20726:20819   */\n      tag_190\n      jump\t// in\n    tag_410:\n        /* \"#utility.yul\":20844:20846   */\n      0x20\n        /* \"#utility.yul\":20839:20842   */\n      dup3\n        /* \"#utility.yul\":20835:20847   */\n      add\n        /* \"#utility.yul\":20828:20847   */\n      swap1\n      pop\n        /* \"#utility.yul\":20487:20853   */\n      swap2\n      swap1\n      pop\n      jump\t// out\n        /* \"#utility.yul\":20859:21278   */\n    tag_79:\n        /* \"#utility.yul\":21025:21029   */\n      0x00\n        /* \"#utility.yul\":21063:21065   */\n      0x20\n        /* \"#utility.yul\":21052:21061   */\n      dup3\n        /* \"#utility.yul\":21048:21066   */\n      add\n        /* \"#utility.yul\":21040:21066   */\n      swap1\n      pop\n        /* \"#utility.yul\":21112:21121   */\n      dup2\n        /* \"#utility.yul\":21106:21110   */\n      dup2\n        /* \"#utility.yul\":21102:21122   */\n      sub\n        /* \"#utility.yul\":21098:21099   */\n      0x00\n        /* \"#utility.yul\":21087:21096   */\n      dup4\n        /* \"#utility.yul\":21083:21100   */\n      add\n        /* \"#utility.yul\":21076:21123   */\n      mstore\n        /* \"#utility.yul\":21140:21271   */\n      tag_412\n        /* \"#utility.yul\":21266:21270   */\n      dup2\n        /* \"#utility.yul\":21140:21271   */\n      tag_191\n      jump\t// in\n    tag_412:\n        /* \"#utility.yul\":21132:21271   */\n      swap1\n      pop\n        /* \"#utility.yul\":20859:21278   */\n      swap2\n      swap1\n      pop\n      jump\t// out\n        /* \"#utility.yul\":21284:21464   */\n    tag_192:\n        /* \"#utility.yul\":21424:21456   */\n      0x4f6e6c792066696c65206f776e65722063616e20736574206163636573730000\n        /* \"#utility.yul\":21420:21421   */\n      0x00\n        /* \"#utility.yul\":21412:21418   */\n      dup3\n        /* \"#utility.yul\":21408:21422   */\n      add\n        /* \"#utility.yul\":21401:21457   */\n      mstore\n        /* \"#utility.yul\":21284:21464   */\n      pop\n      jump\t// out\n        /* \"#utility.yul\":21470:21836   */\n    tag_193:\n        /* \"#utility.yul\":21612:21615   */\n      0x00\n        /* \"#utility.yul\":21633:21700   */\n      tag_415\n        /* \"#utility.yul\":21697:21699   */\n      0x1e\n        /* \"#utility.yul\":21692:21695   */\n      dup4\n        /* \"#utility.yul\":21633:21700   */\n      tag_159\n      jump\t// in\n    tag_415:\n        /* \"#utility.yul\":21626:21700   */\n      swap2\n      pop\n        /* \"#utility.yul\":21709:21802   */\n      tag_416\n        /* \"#utility.yul\":21798:21801   */\n      dup3\n        /* \"#utility.yul\":21709:21802   */\n      tag_192\n      jump\t// in\n    tag_416:\n        /* \"#utility.yul\":21827:21829   */\n      0x20\n        /* \"#utility.yul\":21822:21825   */\n      dup3\n        /* \"#utility.yul\":21818:21830   */\n      add\n        /* \"#utility.yul\":21811:21830   */\n      swap1\n      pop\n        /* \"#utility.yul\":21470:21836   */\n      swap2\n      swap1\n      pop\n      jump\t// out\n        /* \"#utility.yul\":21842:22261   */\n    tag_101:\n        /* \"#utility.yul\":22008:22012   */\n      0x00\n        /* \"#utility.yul\":22046:22048   */\n      0x20\n        /* \"#utility.yul\":22035:22044   */\n      dup3\n        /* \"#utility.yul\":22031:22049   */\n      add\n        /* \"#utility.yul\":22023:22049   */\n      swap1\n      pop\n        /* \"#utility.yul\":22095:22104   */\n      dup2\n        /* \"#utility.yul\":22089:22093   */\n      dup2\n        /* \"#utility.yul\":22085:22105   */\n      sub\n        /* \"#utility.yul\":22081:22082   */\n      0x00\n        /* \"#utility.yul\":22070:22079   */\n      dup4\n        /* \"#utility.yul\":22066:22083   */\n      add\n        /* \"#utility.yul\":22059:22106   */\n      mstore\n        /* \"#utility.yul\":22123:22254   */\n      tag_418\n        /* \"#utility.yul\":22249:22253   */\n      dup2\n        /* \"#utility.yul\":22123:22254   */\n      tag_193\n      jump\t// in\n    tag_418:\n        /* \"#utility.yul\":22115:22254   */\n      swap1\n      pop\n        /* \"#utility.yul\":21842:22261   */\n      swap2\n      swap1\n      pop\n      jump\t// out\n        /* \"#utility.yul\":22267:22437   */\n    tag_194:\n        /* \"#utility.yul\":22407:22429   */\n      0x496e76616c696420757365722061646472657373000000000000000000000000\n        /* \"#utility.yul\":22403:22404   */\n      0x00\n        /* \"#utility.yul\":22395:22401   */\n      dup3\n        /* \"#utility.yul\":22391:22405   */\n      add\n        /* \"#utility.yul\":22384:22430   */\n      mstore\n        /* \"#utility.yul\":22267:22437   */\n      pop\n      jump\t// out\n        /* \"#utility.yul\":22443:22809   */\n    tag_195:\n        /* \"#utility.yul\":22585:22588   */\n      0x00\n        /* \"#utility.yul\":22606:22673   */\n      tag_421\n        /* \"#utility.yul\":22670:22672   */\n      0x14\n        /* \"#utility.yul\":22665:22668   */\n      dup4\n        /* \"#utility.yul\":22606:22673   */\n      tag_159\n      jump\t// in\n    tag_421:\n        /* \"#utility.yul\":22599:22673   */\n      swap2\n      pop\n        /* \"#utility.yul\":22682:22775   */\n      tag_422\n        /* \"#utility.yul\":22771:22774   */\n      dup3\n        /* \"#utility.yul\":22682:22775   */\n      tag_194\n      jump\t// in\n    tag_422:\n        /* \"#utility.yul\":22800:22802   */\n      0x20\n        /* \"#utility.yul\":22795:22798   */\n      dup3\n        /* \"#utility.yul\":22791:22803   */\n      add\n        /* \"#utility.yul\":22784:22803   */\n      swap1\n      pop\n        /* \"#utility.yul\":22443:22809   */\n      swap2\n      swap1\n      pop\n      jump\t// out\n        /* \"#utility.yul\":22815:23234   */\n    tag_104:\n        /* \"#utility.yul\":22981:22985   */\n      0x00\n        /* \"#utility.yul\":23019:23021   */\n      0x20\n        /* \"#utility.yul\":23008:23017   */\n      dup3\n        /* \"#utility.yul\":23004:23022   */\n      add\n        /* \"#utility.yul\":22996:23022   */\n      swap1\n      pop\n        /* \"#utility.yul\":23068:23077   */\n      dup2\n        /* \"#utility.yul\":23062:23066   */\n      dup2\n        /* \"#utility.yul\":23058:23078   */\n      sub\n        /* \"#utility.yul\":23054:23055   */\n      0x00\n        /* \"#utility.yul\":23043:23052   */\n      dup4\n        /* \"#utility.yul\":23039:23056   */\n      add\n        /* \"#utility.yul\":23032:23079   */\n      mstore\n        /* \"#utility.yul\":23096:23227   */\n      tag_424\n        /* \"#utility.yul\":23222:23226   */\n      dup2\n        /* \"#utility.yul\":23096:23227   */\n      tag_195\n      jump\t// in\n    tag_424:\n        /* \"#utility.yul\":23088:23227   */\n      swap1\n      pop\n        /* \"#utility.yul\":22815:23234   */\n      swap2\n      swap1\n      pop\n      jump\t// out\n\n    auxdata: 0xa264697066735822122048b33a711dc4af6aca9c74b3c08e90d5177e437c3ad9374452d5397efe5f71a864736f6c634300081a0033\n}\n",
				"bytecode": {
					"linkReferences": {},
					"object": "608060405234801561000f575f80fd5b50335f73ffffffffffffffffffffffffffffffffffffffff168173ffffffffffffffffffffffffffffffffffffffff1603610081575f6040517f1e4fbdf7000000000000000000000000000000000000000000000000000000008152600401610078919061019d565b60405180910390fd5b6100908161009d60201b60201c565b50600180819055506101b6565b5f805f9054906101000a900473ffffffffffffffffffffffffffffffffffffffff169050815f806101000a81548173ffffffffffffffffffffffffffffffffffffffff021916908373ffffffffffffffffffffffffffffffffffffffff1602179055508173ffffffffffffffffffffffffffffffffffffffff168173ffffffffffffffffffffffffffffffffffffffff167f8be0079c531659141344cd1fd0a4f28419497f9722a3daafe3b4186f6b6457e060405160405180910390a35050565b5f73ffffffffffffffffffffffffffffffffffffffff82169050919050565b5f6101878261015e565b9050919050565b6101978161017d565b82525050565b5f6020820190506101b05f83018461018e565b92915050565b611847806101c35f395ff3fe608060405234801561000f575f80fd5b5060043610610086575f3560e01c8063715018a611610059578063715018a61461013957806384897dc2146101435780638da5cb5b1461015f578063f2fde38b1461017d57610086565b80631fc379221461008a578063248427d0146100ba5780633e1fd0da146100d657806352f7347b14610106575b5f80fd5b6100a4600480360381019061009f9190610d27565b610199565b6040516100b19190610e12565b60405180910390f35b6100d460048036038101906100cf9190610fcb565b61022c565b005b6100f060048036038101906100eb919061104b565b61056b565b6040516100fd91906110a3565b60405180910390f35b610120600480360381019061011b91906110bc565b610671565b6040516101309493929190611165565b60405180910390f35b6101416107e6565b005b61015d600480360381019061015891906111d9565b6107f9565b005b610167610a73565b6040516101749190611229565b60405180910390f35b61019760048036038101906101929190610d27565b610a9a565b005b606060035f8373ffffffffffffffffffffffffffffffffffffffff1673ffffffffffffffffffffffffffffffffffffffff1681526020019081526020015f2080548060200260200160405190810160405280929190818152602001828054801561022057602002820191905f5260205f20905b81548152602001906001019080831161020c575b50505050509050919050565b610234610b1e565b61023c610ba5565b5f801b8403610280576040517f08c379a00000000000000000000000000000000000000000000000000000000081526004016102779061128c565b60405180910390fd5b5f73ffffffffffffffffffffffffffffffffffffffff168273ffffffffffffffffffffffffffffffffffffffff16036102ee576040517f08c379a00000000000000000000000000000000000000000000000000000000081526004016102e5906112f4565b60405180910390fd5b5f8111610330576040517f08c379a00000000000000000000000000000000000000000000000000000000081526004016103279061135c565b60405180910390fd5b5f73ffffffffffffffffffffffffffffffffffffffff1660025f8681526020019081526020015f206002015f9054906101000a900473ffffffffffffffffffffffffffffffffffffffff1673ffffffffffffffffffffffffffffffffffffffff16146103d1576040517f08c379a00000000000000000000000000000000000000000000000000000000081526004016103c8906113c4565b60405180910390fd5b5f60025f8681526020019081526020015f20905083815f0190816103f591906115dc565b5084816001018190555082816002015f6101000a81548173ffffffffffffffffffffffffffffffffffffffff021916908373ffffffffffffffffffffffffffffffffffffffff1602179055508181600301819055504281600401819055506001816005015f8573ffffffffffffffffffffffffffffffffffffffff1673ffffffffffffffffffffffffffffffffffffffff1681526020019081526020015f205f6101000a81548160ff02191690831515021790555060035f8473ffffffffffffffffffffffffffffffffffffffff1673ffffffffffffffffffffffffffffffffffffffff1681526020019081526020015f2085908060018154018082558091505060019003905f5260205f20015f90919091909150558273ffffffffffffffffffffffffffffffffffffffff16857f7a194ca9586cbfa3d7c02410e323a9938a3121768590f081295ec4ac8ba85f6986856040516105549291906116ab565b60405180910390a350610565610beb565b50505050565b5f8073ffffffffffffffffffffffffffffffffffffffff1660025f8581526020019081526020015f206002015f9054906101000a900473ffffffffffffffffffffffffffffffffffffffff1673ffffffffffffffffffffffffffffffffffffffff160361060d576040517f08c379a000000000000000000000000000000000000000000000000000000000815260040161060490611723565b60405180910390fd5b60025f8481526020019081526020015f206005015f8373ffffffffffffffffffffffffffffffffffffffff1673ffffffffffffffffffffffffffffffffffffffff1681526020019081526020015f205f9054906101000a900460ff16905092915050565b60605f805f8060025f8781526020019081526020015f2090505f73ffffffffffffffffffffffffffffffffffffffff16816002015f9054906101000a900473ffffffffffffffffffffffffffffffffffffffff1673ffffffffffffffffffffffffffffffffffffffff160361071b576040517f08c379a000000000000000000000000000000000000000000000000000000000815260040161071290611723565b60405180910390fd5b805f01816002015f9054906101000a900473ffffffffffffffffffffffffffffffffffffffff16826003015483600401548380546107589061140f565b80601f01602080910402602001604051908101604052809291908181526020018280546107849061140f565b80156107cf5780601f106107a6576101008083540402835291602001916107cf565b820191905f5260205f20905b8154815290600101906020018083116107b257829003601f168201915b505050505093509450945094509450509193509193565b6107ee610b1e565b6107f75f610bf4565b565b610801610ba5565b5f73ffffffffffffffffffffffffffffffffffffffff1660025f8581526020019081526020015f206002015f9054906101000a900473ffffffffffffffffffffffffffffffffffffffff1673ffffffffffffffffffffffffffffffffffffffff16036108a2576040517f08c379a000000000000000000000000000000000000000000000000000000000815260040161089990611723565b60405180910390fd5b3373ffffffffffffffffffffffffffffffffffffffff1660025f8581526020019081526020015f206002015f9054906101000a900473ffffffffffffffffffffffffffffffffffffffff1673ffffffffffffffffffffffffffffffffffffffff1614610943576040517f08c379a000000000000000000000000000000000000000000000000000000000815260040161093a9061178b565b60405180910390fd5b5f73ffffffffffffffffffffffffffffffffffffffff168273ffffffffffffffffffffffffffffffffffffffff16036109b1576040517f08c379a00000000000000000000000000000000000000000000000000000000081526004016109a8906117f3565b60405180910390fd5b8060025f8581526020019081526020015f206005015f8473ffffffffffffffffffffffffffffffffffffffff1673ffffffffffffffffffffffffffffffffffffffff1681526020019081526020015f205f6101000a81548160ff0219169083151502179055508173ffffffffffffffffffffffffffffffffffffffff16837f373a4981e040fe1ca1fab0966e496e584c2d8c8af8329b0539e4fe2359ad4b0083604051610a5e91906110a3565b60405180910390a3610a6e610beb565b505050565b5f805f9054906101000a900473ffffffffffffffffffffffffffffffffffffffff16905090565b610aa2610b1e565b5f73ffffffffffffffffffffffffffffffffffffffff168173ffffffffffffffffffffffffffffffffffffffff1603610b12575f6040517f1e4fbdf7000000000000000000000000000000000000000000000000000000008152600401610b099190611229565b60405180910390fd5b610b1b81610bf4565b50565b610b26610cb5565b73ffffffffffffffffffffffffffffffffffffffff16610b44610a73565b73ffffffffffffffffffffffffffffffffffffffff1614610ba357610b67610cb5565b6040517f118cdaa7000000000000000000000000000000000000000000000000000000008152600401610b9a9190611229565b60405180910390fd5b565b600260015403610be1576040517f3ee5aeb500000000000000000000000000000000000000000000000000000000815260040160405180910390fd5b6002600181905550565b60018081905550565b5f805f9054906101000a900473ffffffffffffffffffffffffffffffffffffffff169050815f806101000a81548173ffffffffffffffffffffffffffffffffffffffff021916908373ffffffffffffffffffffffffffffffffffffffff1602179055508173ffffffffffffffffffffffffffffffffffffffff168173ffffffffffffffffffffffffffffffffffffffff167f8be0079c531659141344cd1fd0a4f28419497f9722a3daafe3b4186f6b6457e060405160405180910390a35050565b5f33905090565b5f604051905090565b5f80fd5b5f80fd5b5f73ffffffffffffffffffffffffffffffffffffffff82169050919050565b5f610cf682610ccd565b9050919050565b610d0681610cec565b8114610d10575f80fd5b50565b5f81359050610d2181610cfd565b92915050565b5f60208284031215610d3c57610d3b610cc5565b5b5f610d4984828501610d13565b91505092915050565b5f81519050919050565b5f82825260208201905092915050565b5f819050602082019050919050565b5f819050919050565b610d8d81610d7b565b82525050565b5f610d9e8383610d84565b60208301905092915050565b5f602082019050919050565b5f610dc082610d52565b610dca8185610d5c565b9350610dd583610d6c565b805f5b83811015610e05578151610dec8882610d93565b9750610df783610daa565b925050600181019050610dd8565b5085935050505092915050565b5f6020820190508181035f830152610e2a8184610db6565b905092915050565b610e3b81610d7b565b8114610e45575f80fd5b50565b5f81359050610e5681610e32565b92915050565b5f80fd5b5f80fd5b5f601f19601f8301169050919050565b7f4e487b71000000000000000000000000000000000000000000000000000000005f52604160045260245ffd5b610eaa82610e64565b810181811067ffffffffffffffff82111715610ec957610ec8610e74565b5b80604052505050565b5f610edb610cbc565b9050610ee78282610ea1565b919050565b5f67ffffffffffffffff821115610f0657610f05610e74565b5b610f0f82610e64565b9050602081019050919050565b828183375f83830152505050565b5f610f3c610f3784610eec565b610ed2565b905082815260208101848484011115610f5857610f57610e60565b5b610f63848285610f1c565b509392505050565b5f82601f830112610f7f57610f7e610e5c565b5b8135610f8f848260208601610f2a565b91505092915050565b5f819050919050565b610faa81610f98565b8114610fb4575f80fd5b50565b5f81359050610fc581610fa1565b92915050565b5f805f8060808587031215610fe357610fe2610cc5565b5b5f610ff087828801610e48565b945050602085013567ffffffffffffffff81111561101157611010610cc9565b5b61101d87828801610f6b565b935050604061102e87828801610d13565b925050606061103f87828801610fb7565b91505092959194509250565b5f806040838503121561106157611060610cc5565b5b5f61106e85828601610e48565b925050602061107f85828601610d13565b9150509250929050565b5f8115159050919050565b61109d81611089565b82525050565b5f6020820190506110b65f830184611094565b92915050565b5f602082840312156110d1576110d0610cc5565b5b5f6110de84828501610e48565b91505092915050565b5f81519050919050565b5f82825260208201905092915050565b8281835e5f83830152505050565b5f611119826110e7565b61112381856110f1565b9350611133818560208601611101565b61113c81610e64565b840191505092915050565b61115081610cec565b82525050565b61115f81610f98565b82525050565b5f6080820190508181035f83015261117d818761110f565b905061118c6020830186611147565b6111996040830185611156565b6111a66060830184611156565b95945050505050565b6111b881611089565b81146111c2575f80fd5b50565b5f813590506111d3816111af565b92915050565b5f805f606084860312156111f0576111ef610cc5565b5b5f6111fd86828701610e48565b935050602061120e86828701610d13565b925050604061121f868287016111c5565b9150509250925092565b5f60208201905061123c5f830184611147565b92915050565b7f496e76616c69642066696c6520686173680000000000000000000000000000005f82015250565b5f6112766011836110f1565b915061128182611242565b602082019050919050565b5f6020820190508181035f8301526112a38161126a565b9050919050565b7f496e76616c6964206f776e6572206164647265737300000000000000000000005f82015250565b5f6112de6015836110f1565b91506112e9826112aa565b602082019050919050565b5f6020820190508181035f83015261130b816112d2565b9050919050565b7f46696c652073697a65206d7573742062652067726561746572207468616e20305f82015250565b5f6113466020836110f1565b915061135182611312565b602082019050919050565b5f6020820190508181035f8301526113738161133a565b9050919050565b7f46696c6520616c726561647920657869737473000000000000000000000000005f82015250565b5f6113ae6013836110f1565b91506113b98261137a565b602082019050919050565b5f6020820190508181035f8301526113db816113a2565b9050919050565b7f4e487b71000000000000000000000000000000000000000000000000000000005f52602260045260245ffd5b5f600282049050600182168061142657607f821691505b602082108103611439576114386113e2565b5b50919050565b5f819050815f5260205f209050919050565b5f6020601f8301049050919050565b5f82821b905092915050565b5f6008830261149b7fffffffffffffffffffffffffffffffffffffffffffffffffffffffffffffffff82611460565b6114a58683611460565b95508019841693508086168417925050509392505050565b5f819050919050565b5f6114e06114db6114d684610f98565b6114bd565b610f98565b9050919050565b5f819050919050565b6114f9836114c6565b61150d611505826114e7565b84845461146c565b825550505050565b5f90565b611521611515565b61152c8184846114f0565b505050565b5b8181101561154f576115445f82611519565b600181019050611532565b5050565b601f821115611594576115658161143f565b61156e84611451565b8101602085101561157d578190505b61159161158985611451565b830182611531565b50505b505050565b5f82821c905092915050565b5f6115b45f1984600802611599565b1980831691505092915050565b5f6115cc83836115a5565b9150826002028217905092915050565b6115e5826110e7565b67ffffffffffffffff8111156115fe576115fd610e74565b5b611608825461140f565b611613828285611553565b5f60209050601f831160018114611644575f8415611632578287015190505b61163c85826115c1565b8655506116a3565b601f1984166116528661143f565b5f5b8281101561167957848901518255600182019150602085019450602081019050611654565b868310156116965784890151611692601f8916826115a5565b8355505b6001600288020188555050505b505050505050565b5f6040820190508181035f8301526116c3818561110f565b90506116d26020830184611156565b9392505050565b7f46696c6520646f6573206e6f74206578697374000000000000000000000000005f82015250565b5f61170d6013836110f1565b9150611718826116d9565b602082019050919050565b5f6020820190508181035f83015261173a81611701565b9050919050565b7f4f6e6c792066696c65206f776e65722063616e207365742061636365737300005f82015250565b5f611775601e836110f1565b915061178082611741565b602082019050919050565b5f6020820190508181035f8301526117a281611769565b9050919050565b7f496e76616c6964207573657220616464726573730000000000000000000000005f82015250565b5f6117dd6014836110f1565b91506117e8826117a9565b602082019050919050565b5f6020820190508181035f83015261180a816117d1565b905091905056fea264697066735822122048b33a711dc4af6aca9c74b3c08e90d5177e437c3ad9374452d5397efe5f71a864736f6c634300081a0033",
					"opcodes": "PUSH1 0x80 PUSH1 0x40 MSTORE CALLVALUE DUP1 ISZERO PUSH2 0xF JUMPI PUSH0 DUP1 REVERT JUMPDEST POP CALLER PUSH0 PUSH20 0xFFFFFFFFFFFFFFFFFFFFFFFFFFFFFFFFFFFFFFFF AND DUP2 PUSH20 0xFFFFFFFFFFFFFFFFFFFFFFFFFFFFFFFFFFFFFFFF AND SUB PUSH2 0x81 JUMPI PUSH0 PUSH1 0x40 MLOAD PUSH32 0x1E4FBDF700000000000000000000000000000000000000000000000000000000 DUP2 MSTORE PUSH1 0x4 ADD PUSH2 0x78 SWAP2 SWAP1 PUSH2 0x19D JUMP JUMPDEST PUSH1 0x40 MLOAD DUP1 SWAP2 SUB SWAP1 REVERT JUMPDEST PUSH2 0x90 DUP2 PUSH2 0x9D PUSH1 0x20 SHL PUSH1 0x20 SHR JUMP JUMPDEST POP PUSH1 0x1 DUP1 DUP2 SWAP1 SSTORE POP PUSH2 0x1B6 JUMP JUMPDEST PUSH0 DUP1 PUSH0 SWAP1 SLOAD SWAP1 PUSH2 0x100 EXP SWAP1 DIV PUSH20 0xFFFFFFFFFFFFFFFFFFFFFFFFFFFFFFFFFFFFFFFF AND SWAP1 POP DUP2 PUSH0 DUP1 PUSH2 0x100 EXP DUP2 SLOAD DUP2 PUSH20 0xFFFFFFFFFFFFFFFFFFFFFFFFFFFFFFFFFFFFFFFF MUL NOT AND SWAP1 DUP4 PUSH20 0xFFFFFFFFFFFFFFFFFFFFFFFFFFFFFFFFFFFFFFFF AND MUL OR SWAP1 SSTORE POP DUP2 PUSH20 0xFFFFFFFFFFFFFFFFFFFFFFFFFFFFFFFFFFFFFFFF AND DUP2 PUSH20 0xFFFFFFFFFFFFFFFFFFFFFFFFFFFFFFFFFFFFFFFF AND PUSH32 0x8BE0079C531659141344CD1FD0A4F28419497F9722A3DAAFE3B4186F6B6457E0 PUSH1 0x40 MLOAD PUSH1 0x40 MLOAD DUP1 SWAP2 SUB SWAP1 LOG3 POP POP JUMP JUMPDEST PUSH0 PUSH20 0xFFFFFFFFFFFFFFFFFFFFFFFFFFFFFFFFFFFFFFFF DUP3 AND SWAP1 POP SWAP2 SWAP1 POP JUMP JUMPDEST PUSH0 PUSH2 0x187 DUP3 PUSH2 0x15E JUMP JUMPDEST SWAP1 POP SWAP2 SWAP1 POP JUMP JUMPDEST PUSH2 0x197 DUP2 PUSH2 0x17D JUMP JUMPDEST DUP3 MSTORE POP POP JUMP JUMPDEST PUSH0 PUSH1 0x20 DUP3 ADD SWAP1 POP PUSH2 0x1B0 PUSH0 DUP4 ADD DUP5 PUSH2 0x18E JUMP JUMPDEST SWAP3 SWAP2 POP POP JUMP JUMPDEST PUSH2 0x1847 DUP1 PUSH2 0x1C3 PUSH0 CODECOPY PUSH0 RETURN INVALID PUSH1 0x80 PUSH1 0x40 MSTORE CALLVALUE DUP1 ISZERO PUSH2 0xF JUMPI PUSH0 DUP1 REVERT JUMPDEST POP PUSH1 0x4 CALLDATASIZE LT PUSH2 0x86 JUMPI PUSH0 CALLDATALOAD PUSH1 0xE0 SHR DUP1 PUSH4 0x715018A6 GT PUSH2 0x59 JUMPI DUP1 PUSH4 0x715018A6 EQ PUSH2 0x139 JUMPI DUP1 PUSH4 0x84897DC2 EQ PUSH2 0x143 JUMPI DUP1 PUSH4 0x8DA5CB5B EQ PUSH2 0x15F JUMPI DUP1 PUSH4 0xF2FDE38B EQ PUSH2 0x17D JUMPI PUSH2 0x86 JUMP JUMPDEST DUP1 PUSH4 0x1FC37922 EQ PUSH2 0x8A JUMPI DUP1 PUSH4 0x248427D0 EQ PUSH2 0xBA JUMPI DUP1 PUSH4 0x3E1FD0DA EQ PUSH2 0xD6 JUMPI DUP1 PUSH4 0x52F7347B EQ PUSH2 0x106 JUMPI JUMPDEST PUSH0 DUP1 REVERT JUMPDEST PUSH2 0xA4 PUSH1 0x4 DUP1 CALLDATASIZE SUB DUP2 ADD SWAP1 PUSH2 0x9F SWAP2 SWAP1 PUSH2 0xD27 JUMP JUMPDEST PUSH2 0x199 JUMP JUMPDEST PUSH1 0x40 MLOAD PUSH2 0xB1 SWAP2 SWAP1 PUSH2 0xE12 JUMP JUMPDEST PUSH1 0x40 MLOAD DUP1 SWAP2 SUB SWAP1 RETURN JUMPDEST PUSH2 0xD4 PUSH1 0x4 DUP1 CALLDATASIZE SUB DUP2 ADD SWAP1 PUSH2 0xCF SWAP2 SWAP1 PUSH2 0xFCB JUMP JUMPDEST PUSH2 0x22C JUMP JUMPDEST STOP JUMPDEST PUSH2 0xF0 PUSH1 0x4 DUP1 CALLDATASIZE SUB DUP2 ADD SWAP1 PUSH2 0xEB SWAP2 SWAP1 PUSH2 0x104B JUMP JUMPDEST PUSH2 0x56B JUMP JUMPDEST PUSH1 0x40 MLOAD PUSH2 0xFD SWAP2 SWAP1 PUSH2 0x10A3 JUMP JUMPDEST PUSH1 0x40 MLOAD DUP1 SWAP2 SUB SWAP1 RETURN JUMPDEST PUSH2 0x120 PUSH1 0x4 DUP1 CALLDATASIZE SUB DUP2 ADD SWAP1 PUSH2 0x11B SWAP2 SWAP1 PUSH2 0x10BC JUMP JUMPDEST PUSH2 0x671 JUMP JUMPDEST PUSH1 0x40 MLOAD PUSH2 0x130 SWAP5 SWAP4 SWAP3 SWAP2 SWAP1 PUSH2 0x1165 JUMP JUMPDEST PUSH1 0x40 MLOAD DUP1 SWAP2 SUB SWAP1 RETURN JUMPDEST PUSH2 0x141 PUSH2 0x7E6 JUMP JUMPDEST STOP JUMPDEST PUSH2 0x15D PUSH1 0x4 DUP1 CALLDATASIZE SUB DUP2 ADD SWAP1 PUSH2 0x158 SWAP2 SWAP1 PUSH2 0x11D9 JUMP JUMPDEST PUSH2 0x7F9 JUMP JUMPDEST STOP JUMPDEST PUSH2 0x167 PUSH2 0xA73 JUMP JUMPDEST PUSH1 0x40 MLOAD PUSH2 0x174 SWAP2 SWAP1 PUSH2 0x1229 JUMP JUMPDEST PUSH1 0x40 MLOAD DUP1 SWAP2 SUB SWAP1 RETURN JUMPDEST PUSH2 0x197 PUSH1 0x4 DUP1 CALLDATASIZE SUB DUP2 ADD SWAP1 PUSH2 0x192 SWAP2 SWAP1 PUSH2 0xD27 JUMP JUMPDEST PUSH2 0xA9A JUMP JUMPDEST STOP JUMPDEST PUSH1 0x60 PUSH1 0x3 PUSH0 DUP4 PUSH20 0xFFFFFFFFFFFFFFFFFFFFFFFFFFFFFFFFFFFFFFFF AND PUSH20 0xFFFFFFFFFFFFFFFFFFFFFFFFFFFFFFFFFFFFFFFF AND DUP2 MSTORE PUSH1 0x20 ADD SWAP1 DUP2 MSTORE PUSH1 0x20 ADD PUSH0 KECCAK256 DUP1 SLOAD DUP1 PUSH1 0x20 MUL PUSH1 0x20 ADD PUSH1 0x40 MLOAD SWAP1 DUP2 ADD PUSH1 0x40 MSTORE DUP1 SWAP3 SWAP2 SWAP1 DUP2 DUP2 MSTORE PUSH1 0x20 ADD DUP3 DUP1 SLOAD DUP1 ISZERO PUSH2 0x220 JUMPI PUSH1 0x20 MUL DUP3 ADD SWAP2 SWAP1 PUSH0 MSTORE PUSH1 0x20 PUSH0 KECCAK256 SWAP1 JUMPDEST DUP2 SLOAD DUP2 MSTORE PUSH1 0x20 ADD SWAP1 PUSH1 0x1 ADD SWAP1 DUP1 DUP4 GT PUSH2 0x20C JUMPI JUMPDEST POP POP POP POP POP SWAP1 POP SWAP2 SWAP1 POP JUMP JUMPDEST PUSH2 0x234 PUSH2 0xB1E JUMP JUMPDEST PUSH2 0x23C PUSH2 0xBA5 JUMP JUMPDEST PUSH0 DUP1 SHL DUP5 SUB PUSH2 0x280 JUMPI PUSH1 0x40 MLOAD PUSH32 0x8C379A000000000000000000000000000000000000000000000000000000000 DUP2 MSTORE PUSH1 0x4 ADD PUSH2 0x277 SWAP1 PUSH2 0x128C JUMP JUMPDEST PUSH1 0x40 MLOAD DUP1 SWAP2 SUB SWAP1 REVERT JUMPDEST PUSH0 PUSH20 0xFFFFFFFFFFFFFFFFFFFFFFFFFFFFFFFFFFFFFFFF AND DUP3 PUSH20 0xFFFFFFFFFFFFFFFFFFFFFFFFFFFFFFFFFFFFFFFF AND SUB PUSH2 0x2EE JUMPI PUSH1 0x40 MLOAD PUSH32 0x8C379A000000000000000000000000000000000000000000000000000000000 DUP2 MSTORE PUSH1 0x4 ADD PUSH2 0x2E5 SWAP1 PUSH2 0x12F4 JUMP JUMPDEST PUSH1 0x40 MLOAD DUP1 SWAP2 SUB SWAP1 REVERT JUMPDEST PUSH0 DUP2 GT PUSH2 0x330 JUMPI PUSH1 0x40 MLOAD PUSH32 0x8C379A000000000000000000000000000000000000000000000000000000000 DUP2 MSTORE PUSH1 0x4 ADD PUSH2 0x327 SWAP1 PUSH2 0x135C JUMP JUMPDEST PUSH1 0x40 MLOAD DUP1 SWAP2 SUB SWAP1 REVERT JUMPDEST PUSH0 PUSH20 0xFFFFFFFFFFFFFFFFFFFFFFFFFFFFFFFFFFFFFFFF AND PUSH1 0x2 PUSH0 DUP7 DUP2 MSTORE PUSH1 0x20 ADD SWAP1 DUP2 MSTORE PUSH1 0x20 ADD PUSH0 KECCAK256 PUSH1 0x2 ADD PUSH0 SWAP1 SLOAD SWAP1 PUSH2 0x100 EXP SWAP1 DIV PUSH20 0xFFFFFFFFFFFFFFFFFFFFFFFFFFFFFFFFFFFFFFFF AND PUSH20 0xFFFFFFFFFFFFFFFFFFFFFFFFFFFFFFFFFFFFFFFF AND EQ PUSH2 0x3D1 JUMPI PUSH1 0x40 MLOAD PUSH32 0x8C379A000000000000000000000000000000000000000000000000000000000 DUP2 MSTORE PUSH1 0x4 ADD PUSH2 0x3C8 SWAP1 PUSH2 0x13C4 JUMP JUMPDEST PUSH1 0x40 MLOAD DUP1 SWAP2 SUB SWAP1 REVERT JUMPDEST PUSH0 PUSH1 0x2 PUSH0 DUP7 DUP2 MSTORE PUSH1 0x20 ADD SWAP1 DUP2 MSTORE PUSH1 0x20 ADD PUSH0 KECCAK256 SWAP1 POP DUP4 DUP2 PUSH0 ADD SWAP1 DUP2 PUSH2 0x3F5 SWAP2 SWAP1 PUSH2 0x15DC JUMP JUMPDEST POP DUP5 DUP2 PUSH1 0x1 ADD DUP2 SWAP1 SSTORE POP DUP3 DUP2 PUSH1 0x2 ADD PUSH0 PUSH2 0x100 EXP DUP2 SLOAD DUP2 PUSH20 0xFFFFFFFFFFFFFFFFFFFFFFFFFFFFFFFFFFFFFFFF MUL NOT AND SWAP1 DUP4 PUSH20 0xFFFFFFFFFFFFFFFFFFFFFFFFFFFFFFFFFFFFFFFF AND MUL OR SWAP1 SSTORE POP DUP2 DUP2 PUSH1 0x3 ADD DUP2 SWAP1 SSTORE POP TIMESTAMP DUP2 PUSH1 0x4 ADD DUP2 SWAP1 SSTORE POP PUSH1 0x1 DUP2 PUSH1 0x5 ADD PUSH0 DUP6 PUSH20 0xFFFFFFFFFFFFFFFFFFFFFFFFFFFFFFFFFFFFFFFF AND PUSH20 0xFFFFFFFFFFFFFFFFFFFFFFFFFFFFFFFFFFFFFFFF AND DUP2 MSTORE PUSH1 0x20 ADD SWAP1 DUP2 MSTORE PUSH1 0x20 ADD PUSH0 KECCAK256 PUSH0 PUSH2 0x100 EXP DUP2 SLOAD DUP2 PUSH1 0xFF MUL NOT AND SWAP1 DUP4 ISZERO ISZERO MUL OR SWAP1 SSTORE POP PUSH1 0x3 PUSH0 DUP5 PUSH20 0xFFFFFFFFFFFFFFFFFFFFFFFFFFFFFFFFFFFFFFFF AND PUSH20 0xFFFFFFFFFFFFFFFFFFFFFFFFFFFFFFFFFFFFFFFF AND DUP2 MSTORE PUSH1 0x20 ADD SWAP1 DUP2 MSTORE PUSH1 0x20 ADD PUSH0 KECCAK256 DUP6 SWAP1 DUP1 PUSH1 0x1 DUP2 SLOAD ADD DUP1 DUP3 SSTORE DUP1 SWAP2 POP POP PUSH1 0x1 SWAP1 SUB SWAP1 PUSH0 MSTORE PUSH1 0x20 PUSH0 KECCAK256 ADD PUSH0 SWAP1 SWAP2 SWAP1 SWAP2 SWAP1 SWAP2 POP SSTORE DUP3 PUSH20 0xFFFFFFFFFFFFFFFFFFFFFFFFFFFFFFFFFFFFFFFF AND DUP6 PUSH32 0x7A194CA9586CBFA3D7C02410E323A9938A3121768590F081295EC4AC8BA85F69 DUP7 DUP6 PUSH1 0x40 MLOAD PUSH2 0x554 SWAP3 SWAP2 SWAP1 PUSH2 0x16AB JUMP JUMPDEST PUSH1 0x40 MLOAD DUP1 SWAP2 SUB SWAP1 LOG3 POP PUSH2 0x565 PUSH2 0xBEB JUMP JUMPDEST POP POP POP POP JUMP JUMPDEST PUSH0 DUP1 PUSH20 0xFFFFFFFFFFFFFFFFFFFFFFFFFFFFFFFFFFFFFFFF AND PUSH1 0x2 PUSH0 DUP6 DUP2 MSTORE PUSH1 0x20 ADD SWAP1 DUP2 MSTORE PUSH1 0x20 ADD PUSH0 KECCAK256 PUSH1 0x2 ADD PUSH0 SWAP1 SLOAD SWAP1 PUSH2 0x100 EXP SWAP1 DIV PUSH20 0xFFFFFFFFFFFFFFFFFFFFFFFFFFFFFFFFFFFFFFFF AND PUSH20 0xFFFFFFFFFFFFFFFFFFFFFFFFFFFFFFFFFFFFFFFF AND SUB PUSH2 0x60D JUMPI PUSH1 0x40 MLOAD PUSH32 0x8C379A000000000000000000000000000000000000000000000000000000000 DUP2 MSTORE PUSH1 0x4 ADD PUSH2 0x604 SWAP1 PUSH2 0x1723 JUMP JUMPDEST PUSH1 0x40 MLOAD DUP1 SWAP2 SUB SWAP1 REVERT JUMPDEST PUSH1 0x2 PUSH0 DUP5 DUP2 MSTORE PUSH1 0x20 ADD SWAP1 DUP2 MSTORE PUSH1 0x20 ADD PUSH0 KECCAK256 PUSH1 0x5 ADD PUSH0 DUP4 PUSH20 0xFFFFFFFFFFFFFFFFFFFFFFFFFFFFFFFFFFFFFFFF AND PUSH20 0xFFFFFFFFFFFFFFFFFFFFFFFFFFFFFFFFFFFFFFFF AND DUP2 MSTORE PUSH1 0x20 ADD SWAP1 DUP2 MSTORE PUSH1 0x20 ADD PUSH0 KECCAK256 PUSH0 SWAP1 SLOAD SWAP1 PUSH2 0x100 EXP SWAP1 DIV PUSH1 0xFF AND SWAP1 POP SWAP3 SWAP2 POP POP JUMP JUMPDEST PUSH1 0x60 PUSH0 DUP1 PUSH0 DUP1 PUSH1 0x2 PUSH0 DUP8 DUP2 MSTORE PUSH1 0x20 ADD SWAP1 DUP2 MSTORE PUSH1 0x20 ADD PUSH0 KECCAK256 SWAP1 POP PUSH0 PUSH20 0xFFFFFFFFFFFFFFFFFFFFFFFFFFFFFFFFFFFFFFFF AND DUP2 PUSH1 0x2 ADD PUSH0 SWAP1 SLOAD SWAP1 PUSH2 0x100 EXP SWAP1 DIV PUSH20 0xFFFFFFFFFFFFFFFFFFFFFFFFFFFFFFFFFFFFFFFF AND PUSH20 0xFFFFFFFFFFFFFFFFFFFFFFFFFFFFFFFFFFFFFFFF AND SUB PUSH2 0x71B JUMPI PUSH1 0x40 MLOAD PUSH32 0x8C379A000000000000000000000000000000000000000000000000000000000 DUP2 MSTORE PUSH1 0x4 ADD PUSH2 0x712 SWAP1 PUSH2 0x1723 JUMP JUMPDEST PUSH1 0x40 MLOAD DUP1 SWAP2 SUB SWAP1 REVERT JUMPDEST DUP1 PUSH0 ADD DUP2 PUSH1 0x2 ADD PUSH0 SWAP1 SLOAD SWAP1 PUSH2 0x100 EXP SWAP1 DIV PUSH20 0xFFFFFFFFFFFFFFFFFFFFFFFFFFFFFFFFFFFFFFFF AND DUP3 PUSH1 0x3 ADD SLOAD DUP4 PUSH1 0x4 ADD SLOAD DUP4 DUP1 SLOAD PUSH2 0x758 SWAP1 PUSH2 0x140F JUMP JUMPDEST DUP1 PUSH1 0x1F ADD PUSH1 0x20 DUP1 SWAP2 DIV MUL PUSH1 0x20 ADD PUSH1 0x40 MLOAD SWAP1 DUP2 ADD PUSH1 0x40 MSTORE DUP1 SWAP3 SWAP2 SWAP1 DUP2 DUP2 MSTORE PUSH1 0x20 ADD DUP3 DUP1 SLOAD PUSH2 0x784 SWAP1 PUSH2 0x140F JUMP JUMPDEST DUP1 ISZERO PUSH2 0x7CF JUMPI DUP1 PUSH1 0x1F LT PUSH2 0x7A6 JUMPI PUSH2 0x100 DUP1 DUP4 SLOAD DIV MUL DUP4 MSTORE SWAP2 PUSH1 0x20 ADD SWAP2 PUSH2 0x7CF JUMP JUMPDEST DUP3 ADD SWAP2 SWAP1 PUSH0 MSTORE PUSH1 0x20 PUSH0 KECCAK256 SWAP1 JUMPDEST DUP2 SLOAD DUP2 MSTORE SWAP1 PUSH1 0x1 ADD SWAP1 PUSH1 0x20 ADD DUP1 DUP4 GT PUSH2 0x7B2 JUMPI DUP3 SWAP1 SUB PUSH1 0x1F AND DUP3 ADD SWAP2 JUMPDEST POP POP POP POP POP SWAP4 POP SWAP5 POP SWAP5 POP SWAP5 POP SWAP5 POP POP SWAP2 SWAP4 POP SWAP2 SWAP4 JUMP JUMPDEST PUSH2 0x7EE PUSH2 0xB1E JUMP JUMPDEST PUSH2 0x7F7 PUSH0 PUSH2 0xBF4 JUMP JUMPDEST JUMP JUMPDEST PUSH2 0x801 PUSH2 0xBA5 JUMP JUMPDEST PUSH0 PUSH20 0xFFFFFFFFFFFFFFFFFFFFFFFFFFFFFFFFFFFFFFFF AND PUSH1 0x2 PUSH0 DUP6 DUP2 MSTORE PUSH1 0x20 ADD SWAP1 DUP2 MSTORE PUSH1 0x20 ADD PUSH0 KECCAK256 PUSH1 0x2 ADD PUSH0 SWAP1 SLOAD SWAP1 PUSH2 0x100 EXP SWAP1 DIV PUSH20 0xFFFFFFFFFFFFFFFFFFFFFFFFFFFFFFFFFFFFFFFF AND PUSH20 0xFFFFFFFFFFFFFFFFFFFFFFFFFFFFFFFFFFFFFFFF AND SUB PUSH2 0x8A2 JUMPI PUSH1 0x40 MLOAD PUSH32 0x8C379A000000000000000000000000000000000000000000000000000000000 DUP2 MSTORE PUSH1 0x4 ADD PUSH2 0x899 SWAP1 PUSH2 0x1723 JUMP JUMPDEST PUSH1 0x40 MLOAD DUP1 SWAP2 SUB SWAP1 REVERT JUMPDEST CALLER PUSH20 0xFFFFFFFFFFFFFFFFFFFFFFFFFFFFFFFFFFFFFFFF AND PUSH1 0x2 PUSH0 DUP6 DUP2 MSTORE PUSH1 0x20 ADD SWAP1 DUP2 MSTORE PUSH1 0x20 ADD PUSH0 KECCAK256 PUSH1 0x2 ADD PUSH0 SWAP1 SLOAD SWAP1 PUSH2 0x100 EXP SWAP1 DIV PUSH20 0xFFFFFFFFFFFFFFFFFFFFFFFFFFFFFFFFFFFFFFFF AND PUSH20 0xFFFFFFFFFFFFFFFFFFFFFFFFFFFFFFFFFFFFFFFF AND EQ PUSH2 0x943 JUMPI PUSH1 0x40 MLOAD PUSH32 0x8C379A000000000000000000000000000000000000000000000000000000000 DUP2 MSTORE PUSH1 0x4 ADD PUSH2 0x93A SWAP1 PUSH2 0x178B JUMP JUMPDEST PUSH1 0x40 MLOAD DUP1 SWAP2 SUB SWAP1 REVERT JUMPDEST PUSH0 PUSH20 0xFFFFFFFFFFFFFFFFFFFFFFFFFFFFFFFFFFFFFFFF AND DUP3 PUSH20 0xFFFFFFFFFFFFFFFFFFFFFFFFFFFFFFFFFFFFFFFF AND SUB PUSH2 0x9B1 JUMPI PUSH1 0x40 MLOAD PUSH32 0x8C379A000000000000000000000000000000000000000000000000000000000 DUP2 MSTORE PUSH1 0x4 ADD PUSH2 0x9A8 SWAP1 PUSH2 0x17F3 JUMP JUMPDEST PUSH1 0x40 MLOAD DUP1 SWAP2 SUB SWAP1 REVERT JUMPDEST DUP1 PUSH1 0x2 PUSH0 DUP6 DUP2 MSTORE PUSH1 0x20 ADD SWAP1 DUP2 MSTORE PUSH1 0x20 ADD PUSH0 KECCAK256 PUSH1 0x5 ADD PUSH0 DUP5 PUSH20 0xFFFFFFFFFFFFFFFFFFFFFFFFFFFFFFFFFFFFFFFF AND PUSH20 0xFFFFFFFFFFFFFFFFFFFFFFFFFFFFFFFFFFFFFFFF AND DUP2 MSTORE PUSH1 0x20 ADD SWAP1 DUP2 MSTORE PUSH1 0x20 ADD PUSH0 KECCAK256 PUSH0 PUSH2 0x100 EXP DUP2 SLOAD DUP2 PUSH1 0xFF MUL NOT AND SWAP1 DUP4 ISZERO ISZERO MUL OR SWAP1 SSTORE POP DUP2 PUSH20 0xFFFFFFFFFFFFFFFFFFFFFFFFFFFFFFFFFFFFFFFF AND DUP4 PUSH32 0x373A4981E040FE1CA1FAB0966E496E584C2D8C8AF8329B0539E4FE2359AD4B00 DUP4 PUSH1 0x40 MLOAD PUSH2 0xA5E SWAP2 SWAP1 PUSH2 0x10A3 JUMP JUMPDEST PUSH1 0x40 MLOAD DUP1 SWAP2 SUB SWAP1 LOG3 PUSH2 0xA6E PUSH2 0xBEB JUMP JUMPDEST POP POP POP JUMP JUMPDEST PUSH0 DUP1 PUSH0 SWAP1 SLOAD SWAP1 PUSH2 0x100 EXP SWAP1 DIV PUSH20 0xFFFFFFFFFFFFFFFFFFFFFFFFFFFFFFFFFFFFFFFF AND SWAP1 POP SWAP1 JUMP JUMPDEST PUSH2 0xAA2 PUSH2 0xB1E JUMP JUMPDEST PUSH0 PUSH20 0xFFFFFFFFFFFFFFFFFFFFFFFFFFFFFFFFFFFFFFFF AND DUP2 PUSH20 0xFFFFFFFFFFFFFFFFFFFFFFFFFFFFFFFFFFFFFFFF AND SUB PUSH2 0xB12 JUMPI PUSH0 PUSH1 0x40 MLOAD PUSH32 0x1E4FBDF700000000000000000000000000000000000000000000000000000000 DUP2 MSTORE PUSH1 0x4 ADD PUSH2 0xB09 SWAP2 SWAP1 PUSH2 0x1229 JUMP JUMPDEST PUSH1 0x40 MLOAD DUP1 SWAP2 SUB SWAP1 REVERT JUMPDEST PUSH2 0xB1B DUP2 PUSH2 0xBF4 JUMP JUMPDEST POP JUMP JUMPDEST PUSH2 0xB26 PUSH2 0xCB5 JUMP JUMPDEST PUSH20 0xFFFFFFFFFFFFFFFFFFFFFFFFFFFFFFFFFFFFFFFF AND PUSH2 0xB44 PUSH2 0xA73 JUMP JUMPDEST PUSH20 0xFFFFFFFFFFFFFFFFFFFFFFFFFFFFFFFFFFFFFFFF AND EQ PUSH2 0xBA3 JUMPI PUSH2 0xB67 PUSH2 0xCB5 JUMP JUMPDEST PUSH1 0x40 MLOAD PUSH32 0x118CDAA700000000000000000000000000000000000000000000000000000000 DUP2 MSTORE PUSH1 0x4 ADD PUSH2 0xB9A SWAP2 SWAP1 PUSH2 0x1229 JUMP JUMPDEST PUSH1 0x40 MLOAD DUP1 SWAP2 SUB SWAP1 REVERT JUMPDEST JUMP JUMPDEST PUSH1 0x2 PUSH1 0x1 SLOAD SUB PUSH2 0xBE1 JUMPI PUSH1 0x40 MLOAD PUSH32 0x3EE5AEB500000000000000000000000000000000000000000000000000000000 DUP2 MSTORE PUSH1 0x4 ADD PUSH1 0x40 MLOAD DUP1 SWAP2 SUB SWAP1 REVERT JUMPDEST PUSH1 0x2 PUSH1 0x1 DUP2 SWAP1 SSTORE POP JUMP JUMPDEST PUSH1 0x1 DUP1 DUP2 SWAP1 SSTORE POP JUMP JUMPDEST PUSH0 DUP1 PUSH0 SWAP1 SLOAD SWAP1 PUSH2 0x100 EXP SWAP1 DIV PUSH20 0xFFFFFFFFFFFFFFFFFFFFFFFFFFFFFFFFFFFFFFFF AND SWAP1 POP DUP2 PUSH0 DUP1 PUSH2 0x100 EXP DUP2 SLOAD DUP2 PUSH20 0xFFFFFFFFFFFFFFFFFFFFFFFFFFFFFFFFFFFFFFFF MUL NOT AND SWAP1 DUP4 PUSH20 0xFFFFFFFFFFFFFFFFFFFFFFFFFFFFFFFFFFFFFFFF AND MUL OR SWAP1 SSTORE POP DUP2 PUSH20 0xFFFFFFFFFFFFFFFFFFFFFFFFFFFFFFFFFFFFFFFF AND DUP2 PUSH20 0xFFFFFFFFFFFFFFFFFFFFFFFFFFFFFFFFFFFFFFFF AND PUSH32 0x8BE0079C531659141344CD1FD0A4F28419497F9722A3DAAFE3B4186F6B6457E0 PUSH1 0x40 MLOAD PUSH1 0x40 MLOAD DUP1 SWAP2 SUB SWAP1 LOG3 POP POP JUMP JUMPDEST PUSH0 CALLER SWAP1 POP SWAP1 JUMP JUMPDEST PUSH0 PUSH1 0x40 MLOAD SWAP1 POP SWAP1 JUMP JUMPDEST PUSH0 DUP1 REVERT JUMPDEST PUSH0 DUP1 REVERT JUMPDEST PUSH0 PUSH20 0xFFFFFFFFFFFFFFFFFFFFFFFFFFFFFFFFFFFFFFFF DUP3 AND SWAP1 POP SWAP2 SWAP1 POP JUMP JUMPDEST PUSH0 PUSH2 0xCF6 DUP3 PUSH2 0xCCD JUMP JUMPDEST SWAP1 POP SWAP2 SWAP1 POP JUMP JUMPDEST PUSH2 0xD06 DUP2 PUSH2 0xCEC JUMP JUMPDEST DUP2 EQ PUSH2 0xD10 JUMPI PUSH0 DUP1 REVERT JUMPDEST POP JUMP JUMPDEST PUSH0 DUP2 CALLDATALOAD SWAP1 POP PUSH2 0xD21 DUP2 PUSH2 0xCFD JUMP JUMPDEST SWAP3 SWAP2 POP POP JUMP JUMPDEST PUSH0 PUSH1 0x20 DUP3 DUP5 SUB SLT ISZERO PUSH2 0xD3C JUMPI PUSH2 0xD3B PUSH2 0xCC5 JUMP JUMPDEST JUMPDEST PUSH0 PUSH2 0xD49 DUP5 DUP3 DUP6 ADD PUSH2 0xD13 JUMP JUMPDEST SWAP2 POP POP SWAP3 SWAP2 POP POP JUMP JUMPDEST PUSH0 DUP2 MLOAD SWAP1 POP SWAP2 SWAP1 POP JUMP JUMPDEST PUSH0 DUP3 DUP3 MSTORE PUSH1 0x20 DUP3 ADD SWAP1 POP SWAP3 SWAP2 POP POP JUMP JUMPDEST PUSH0 DUP2 SWAP1 POP PUSH1 0x20 DUP3 ADD SWAP1 POP SWAP2 SWAP1 POP JUMP JUMPDEST PUSH0 DUP2 SWAP1 POP SWAP2 SWAP1 POP JUMP JUMPDEST PUSH2 0xD8D DUP2 PUSH2 0xD7B JUMP JUMPDEST DUP3 MSTORE POP POP JUMP JUMPDEST PUSH0 PUSH2 0xD9E DUP4 DUP4 PUSH2 0xD84 JUMP JUMPDEST PUSH1 0x20 DUP4 ADD SWAP1 POP SWAP3 SWAP2 POP POP JUMP JUMPDEST PUSH0 PUSH1 0x20 DUP3 ADD SWAP1 POP SWAP2 SWAP1 POP JUMP JUMPDEST PUSH0 PUSH2 0xDC0 DUP3 PUSH2 0xD52 JUMP JUMPDEST PUSH2 0xDCA DUP2 DUP6 PUSH2 0xD5C JUMP JUMPDEST SWAP4 POP PUSH2 0xDD5 DUP4 PUSH2 0xD6C JUMP JUMPDEST DUP1 PUSH0 JUMPDEST DUP4 DUP2 LT ISZERO PUSH2 0xE05 JUMPI DUP2 MLOAD PUSH2 0xDEC DUP9 DUP3 PUSH2 0xD93 JUMP JUMPDEST SWAP8 POP PUSH2 0xDF7 DUP4 PUSH2 0xDAA JUMP JUMPDEST SWAP3 POP POP PUSH1 0x1 DUP2 ADD SWAP1 POP PUSH2 0xDD8 JUMP JUMPDEST POP DUP6 SWAP4 POP POP POP POP SWAP3 SWAP2 POP POP JUMP JUMPDEST PUSH0 PUSH1 0x20 DUP3 ADD SWAP1 POP DUP2 DUP2 SUB PUSH0 DUP4 ADD MSTORE PUSH2 0xE2A DUP2 DUP5 PUSH2 0xDB6 JUMP JUMPDEST SWAP1 POP SWAP3 SWAP2 POP POP JUMP JUMPDEST PUSH2 0xE3B DUP2 PUSH2 0xD7B JUMP JUMPDEST DUP2 EQ PUSH2 0xE45 JUMPI PUSH0 DUP1 REVERT JUMPDEST POP JUMP JUMPDEST PUSH0 DUP2 CALLDATALOAD SWAP1 POP PUSH2 0xE56 DUP2 PUSH2 0xE32 JUMP JUMPDEST SWAP3 SWAP2 POP POP JUMP JUMPDEST PUSH0 DUP1 REVERT JUMPDEST PUSH0 DUP1 REVERT JUMPDEST PUSH0 PUSH1 0x1F NOT PUSH1 0x1F DUP4 ADD AND SWAP1 POP SWAP2 SWAP1 POP JUMP JUMPDEST PUSH32 0x4E487B7100000000000000000000000000000000000000000000000000000000 PUSH0 MSTORE PUSH1 0x41 PUSH1 0x4 MSTORE PUSH1 0x24 PUSH0 REVERT JUMPDEST PUSH2 0xEAA DUP3 PUSH2 0xE64 JUMP JUMPDEST DUP2 ADD DUP2 DUP2 LT PUSH8 0xFFFFFFFFFFFFFFFF DUP3 GT OR ISZERO PUSH2 0xEC9 JUMPI PUSH2 0xEC8 PUSH2 0xE74 JUMP JUMPDEST JUMPDEST DUP1 PUSH1 0x40 MSTORE POP POP POP JUMP JUMPDEST PUSH0 PUSH2 0xEDB PUSH2 0xCBC JUMP JUMPDEST SWAP1 POP PUSH2 0xEE7 DUP3 DUP3 PUSH2 0xEA1 JUMP JUMPDEST SWAP2 SWAP1 POP JUMP JUMPDEST PUSH0 PUSH8 0xFFFFFFFFFFFFFFFF DUP3 GT ISZERO PUSH2 0xF06 JUMPI PUSH2 0xF05 PUSH2 0xE74 JUMP JUMPDEST JUMPDEST PUSH2 0xF0F DUP3 PUSH2 0xE64 JUMP JUMPDEST SWAP1 POP PUSH1 0x20 DUP2 ADD SWAP1 POP SWAP2 SWAP1 POP JUMP JUMPDEST DUP3 DUP2 DUP4 CALLDATACOPY PUSH0 DUP4 DUP4 ADD MSTORE POP POP POP JUMP JUMPDEST PUSH0 PUSH2 0xF3C PUSH2 0xF37 DUP5 PUSH2 0xEEC JUMP JUMPDEST PUSH2 0xED2 JUMP JUMPDEST SWAP1 POP DUP3 DUP2 MSTORE PUSH1 0x20 DUP2 ADD DUP5 DUP5 DUP5 ADD GT ISZERO PUSH2 0xF58 JUMPI PUSH2 0xF57 PUSH2 0xE60 JUMP JUMPDEST JUMPDEST PUSH2 0xF63 DUP5 DUP3 DUP6 PUSH2 0xF1C JUMP JUMPDEST POP SWAP4 SWAP3 POP POP POP JUMP JUMPDEST PUSH0 DUP3 PUSH1 0x1F DUP4 ADD SLT PUSH2 0xF7F JUMPI PUSH2 0xF7E PUSH2 0xE5C JUMP JUMPDEST JUMPDEST DUP2 CALLDATALOAD PUSH2 0xF8F DUP5 DUP3 PUSH1 0x20 DUP7 ADD PUSH2 0xF2A JUMP JUMPDEST SWAP2 POP POP SWAP3 SWAP2 POP POP JUMP JUMPDEST PUSH0 DUP2 SWAP1 POP SWAP2 SWAP1 POP JUMP JUMPDEST PUSH2 0xFAA DUP2 PUSH2 0xF98 JUMP JUMPDEST DUP2 EQ PUSH2 0xFB4 JUMPI PUSH0 DUP1 REVERT JUMPDEST POP JUMP JUMPDEST PUSH0 DUP2 CALLDATALOAD SWAP1 POP PUSH2 0xFC5 DUP2 PUSH2 0xFA1 JUMP JUMPDEST SWAP3 SWAP2 POP POP JUMP JUMPDEST PUSH0 DUP1 PUSH0 DUP1 PUSH1 0x80 DUP6 DUP8 SUB SLT ISZERO PUSH2 0xFE3 JUMPI PUSH2 0xFE2 PUSH2 0xCC5 JUMP JUMPDEST JUMPDEST PUSH0 PUSH2 0xFF0 DUP8 DUP3 DUP9 ADD PUSH2 0xE48 JUMP JUMPDEST SWAP5 POP POP PUSH1 0x20 DUP6 ADD CALLDATALOAD PUSH8 0xFFFFFFFFFFFFFFFF DUP2 GT ISZERO PUSH2 0x1011 JUMPI PUSH2 0x1010 PUSH2 0xCC9 JUMP JUMPDEST JUMPDEST PUSH2 0x101D DUP8 DUP3 DUP9 ADD PUSH2 0xF6B JUMP JUMPDEST SWAP4 POP POP PUSH1 0x40 PUSH2 0x102E DUP8 DUP3 DUP9 ADD PUSH2 0xD13 JUMP JUMPDEST SWAP3 POP POP PUSH1 0x60 PUSH2 0x103F DUP8 DUP3 DUP9 ADD PUSH2 0xFB7 JUMP JUMPDEST SWAP2 POP POP SWAP3 SWAP6 SWAP2 SWAP5 POP SWAP3 POP JUMP JUMPDEST PUSH0 DUP1 PUSH1 0x40 DUP4 DUP6 SUB SLT ISZERO PUSH2 0x1061 JUMPI PUSH2 0x1060 PUSH2 0xCC5 JUMP JUMPDEST JUMPDEST PUSH0 PUSH2 0x106E DUP6 DUP3 DUP7 ADD PUSH2 0xE48 JUMP JUMPDEST SWAP3 POP POP PUSH1 0x20 PUSH2 0x107F DUP6 DUP3 DUP7 ADD PUSH2 0xD13 JUMP JUMPDEST SWAP2 POP POP SWAP3 POP SWAP3 SWAP1 POP JUMP JUMPDEST PUSH0 DUP2 ISZERO ISZERO SWAP1 POP SWAP2 SWAP1 POP JUMP JUMPDEST PUSH2 0x109D DUP2 PUSH2 0x1089 JUMP JUMPDEST DUP3 MSTORE POP POP JUMP JUMPDEST PUSH0 PUSH1 0x20 DUP3 ADD SWAP1 POP PUSH2 0x10B6 PUSH0 DUP4 ADD DUP5 PUSH2 0x1094 JUMP JUMPDEST SWAP3 SWAP2 POP POP JUMP JUMPDEST PUSH0 PUSH1 0x20 DUP3 DUP5 SUB SLT ISZERO PUSH2 0x10D1 JUMPI PUSH2 0x10D0 PUSH2 0xCC5 JUMP JUMPDEST JUMPDEST PUSH0 PUSH2 0x10DE DUP5 DUP3 DUP6 ADD PUSH2 0xE48 JUMP JUMPDEST SWAP2 POP POP SWAP3 SWAP2 POP POP JUMP JUMPDEST PUSH0 DUP2 MLOAD SWAP1 POP SWAP2 SWAP1 POP JUMP JUMPDEST PUSH0 DUP3 DUP3 MSTORE PUSH1 0x20 DUP3 ADD SWAP1 POP SWAP3 SWAP2 POP POP JUMP JUMPDEST DUP3 DUP2 DUP4 MCOPY PUSH0 DUP4 DUP4 ADD MSTORE POP POP POP JUMP JUMPDEST PUSH0 PUSH2 0x1119 DUP3 PUSH2 0x10E7 JUMP JUMPDEST PUSH2 0x1123 DUP2 DUP6 PUSH2 0x10F1 JUMP JUMPDEST SWAP4 POP PUSH2 0x1133 DUP2 DUP6 PUSH1 0x20 DUP7 ADD PUSH2 0x1101 JUMP JUMPDEST PUSH2 0x113C DUP2 PUSH2 0xE64 JUMP JUMPDEST DUP5 ADD SWAP2 POP POP SWAP3 SWAP2 POP POP JUMP JUMPDEST PUSH2 0x1150 DUP2 PUSH2 0xCEC JUMP JUMPDEST DUP3 MSTORE POP POP JUMP JUMPDEST PUSH2 0x115F DUP2 PUSH2 0xF98 JUMP JUMPDEST DUP3 MSTORE POP POP JUMP JUMPDEST PUSH0 PUSH1 0x80 DUP3 ADD SWAP1 POP DUP2 DUP2 SUB PUSH0 DUP4 ADD MSTORE PUSH2 0x117D DUP2 DUP8 PUSH2 0x110F JUMP JUMPDEST SWAP1 POP PUSH2 0x118C PUSH1 0x20 DUP4 ADD DUP7 PUSH2 0x1147 JUMP JUMPDEST PUSH2 0x1199 PUSH1 0x40 DUP4 ADD DUP6 PUSH2 0x1156 JUMP JUMPDEST PUSH2 0x11A6 PUSH1 0x60 DUP4 ADD DUP5 PUSH2 0x1156 JUMP JUMPDEST SWAP6 SWAP5 POP POP POP POP POP JUMP JUMPDEST PUSH2 0x11B8 DUP2 PUSH2 0x1089 JUMP JUMPDEST DUP2 EQ PUSH2 0x11C2 JUMPI PUSH0 DUP1 REVERT JUMPDEST POP JUMP JUMPDEST PUSH0 DUP2 CALLDATALOAD SWAP1 POP PUSH2 0x11D3 DUP2 PUSH2 0x11AF JUMP JUMPDEST SWAP3 SWAP2 POP POP JUMP JUMPDEST PUSH0 DUP1 PUSH0 PUSH1 0x60 DUP5 DUP7 SUB SLT ISZERO PUSH2 0x11F0 JUMPI PUSH2 0x11EF PUSH2 0xCC5 JUMP JUMPDEST JUMPDEST PUSH0 PUSH2 0x11FD DUP7 DUP3 DUP8 ADD PUSH2 0xE48 JUMP JUMPDEST SWAP4 POP POP PUSH1 0x20 PUSH2 0x120E DUP7 DUP3 DUP8 ADD PUSH2 0xD13 JUMP JUMPDEST SWAP3 POP POP PUSH1 0x40 PUSH2 0x121F DUP7 DUP3 DUP8 ADD PUSH2 0x11C5 JUMP JUMPDEST SWAP2 POP POP SWAP3 POP SWAP3 POP SWAP3 JUMP JUMPDEST PUSH0 PUSH1 0x20 DUP3 ADD SWAP1 POP PUSH2 0x123C PUSH0 DUP4 ADD DUP5 PUSH2 0x1147 JUMP JUMPDEST SWAP3 SWAP2 POP POP JUMP JUMPDEST PUSH32 0x496E76616C69642066696C652068617368000000000000000000000000000000 PUSH0 DUP3 ADD MSTORE POP JUMP JUMPDEST PUSH0 PUSH2 0x1276 PUSH1 0x11 DUP4 PUSH2 0x10F1 JUMP JUMPDEST SWAP2 POP PUSH2 0x1281 DUP3 PUSH2 0x1242 JUMP JUMPDEST PUSH1 0x20 DUP3 ADD SWAP1 POP SWAP2 SWAP1 POP JUMP JUMPDEST PUSH0 PUSH1 0x20 DUP3 ADD SWAP1 POP DUP2 DUP2 SUB PUSH0 DUP4 ADD MSTORE PUSH2 0x12A3 DUP2 PUSH2 0x126A JUMP JUMPDEST SWAP1 POP SWAP2 SWAP1 POP JUMP JUMPDEST PUSH32 0x496E76616C6964206F776E657220616464726573730000000000000000000000 PUSH0 DUP3 ADD MSTORE POP JUMP JUMPDEST PUSH0 PUSH2 0x12DE PUSH1 0x15 DUP4 PUSH2 0x10F1 JUMP JUMPDEST SWAP2 POP PUSH2 0x12E9 DUP3 PUSH2 0x12AA JUMP JUMPDEST PUSH1 0x20 DUP3 ADD SWAP1 POP SWAP2 SWAP1 POP JUMP JUMPDEST PUSH0 PUSH1 0x20 DUP3 ADD SWAP1 POP DUP2 DUP2 SUB PUSH0 DUP4 ADD MSTORE PUSH2 0x130B DUP2 PUSH2 0x12D2 JUMP JUMPDEST SWAP1 POP SWAP2 SWAP1 POP JUMP JUMPDEST PUSH32 0x46696C652073697A65206D7573742062652067726561746572207468616E2030 PUSH0 DUP3 ADD MSTORE POP JUMP JUMPDEST PUSH0 PUSH2 0x1346 PUSH1 0x20 DUP4 PUSH2 0x10F1 JUMP JUMPDEST SWAP2 POP PUSH2 0x1351 DUP3 PUSH2 0x1312 JUMP JUMPDEST PUSH1 0x20 DUP3 ADD SWAP1 POP SWAP2 SWAP1 POP JUMP JUMPDEST PUSH0 PUSH1 0x20 DUP3 ADD SWAP1 POP DUP2 DUP2 SUB PUSH0 DUP4 ADD MSTORE PUSH2 0x1373 DUP2 PUSH2 0x133A JUMP JUMPDEST SWAP1 POP SWAP2 SWAP1 POP JUMP JUMPDEST PUSH32 0x46696C6520616C72656164792065786973747300000000000000000000000000 PUSH0 DUP3 ADD MSTORE POP JUMP JUMPDEST PUSH0 PUSH2 0x13AE PUSH1 0x13 DUP4 PUSH2 0x10F1 JUMP JUMPDEST SWAP2 POP PUSH2 0x13B9 DUP3 PUSH2 0x137A JUMP JUMPDEST PUSH1 0x20 DUP3 ADD SWAP1 POP SWAP2 SWAP1 POP JUMP JUMPDEST PUSH0 PUSH1 0x20 DUP3 ADD SWAP1 POP DUP2 DUP2 SUB PUSH0 DUP4 ADD MSTORE PUSH2 0x13DB DUP2 PUSH2 0x13A2 JUMP JUMPDEST SWAP1 POP SWAP2 SWAP1 POP JUMP JUMPDEST PUSH32 0x4E487B7100000000000000000000000000000000000000000000000000000000 PUSH0 MSTORE PUSH1 0x22 PUSH1 0x4 MSTORE PUSH1 0x24 PUSH0 REVERT JUMPDEST PUSH0 PUSH1 0x2 DUP3 DIV SWAP1 POP PUSH1 0x1 DUP3 AND DUP1 PUSH2 0x1426 JUMPI PUSH1 0x7F DUP3 AND SWAP2 POP JUMPDEST PUSH1 0x20 DUP3 LT DUP2 SUB PUSH2 0x1439 JUMPI PUSH2 0x1438 PUSH2 0x13E2 JUMP JUMPDEST JUMPDEST POP SWAP2 SWAP1 POP JUMP JUMPDEST PUSH0 DUP2 SWAP1 POP DUP2 PUSH0 MSTORE PUSH1 0x20 PUSH0 KECCAK256 SWAP1 POP SWAP2 SWAP1 POP JUMP JUMPDEST PUSH0 PUSH1 0x20 PUSH1 0x1F DUP4 ADD DIV SWAP1 POP SWAP2 SWAP1 POP JUMP JUMPDEST PUSH0 DUP3 DUP3 SHL SWAP1 POP SWAP3 SWAP2 POP POP JUMP JUMPDEST PUSH0 PUSH1 0x8 DUP4 MUL PUSH2 0x149B PUSH32 0xFFFFFFFFFFFFFFFFFFFFFFFFFFFFFFFFFFFFFFFFFFFFFFFFFFFFFFFFFFFFFFFF DUP3 PUSH2 0x1460 JUMP JUMPDEST PUSH2 0x14A5 DUP7 DUP4 PUSH2 0x1460 JUMP JUMPDEST SWAP6 POP DUP1 NOT DUP5 AND SWAP4 POP DUP1 DUP7 AND DUP5 OR SWAP3 POP POP POP SWAP4 SWAP3 POP POP POP JUMP JUMPDEST PUSH0 DUP2 SWAP1 POP SWAP2 SWAP1 POP JUMP JUMPDEST PUSH0 PUSH2 0x14E0 PUSH2 0x14DB PUSH2 0x14D6 DUP5 PUSH2 0xF98 JUMP JUMPDEST PUSH2 0x14BD JUMP JUMPDEST PUSH2 0xF98 JUMP JUMPDEST SWAP1 POP SWAP2 SWAP1 POP JUMP JUMPDEST PUSH0 DUP2 SWAP1 POP SWAP2 SWAP1 POP JUMP JUMPDEST PUSH2 0x14F9 DUP4 PUSH2 0x14C6 JUMP JUMPDEST PUSH2 0x150D PUSH2 0x1505 DUP3 PUSH2 0x14E7 JUMP JUMPDEST DUP5 DUP5 SLOAD PUSH2 0x146C JUMP JUMPDEST DUP3 SSTORE POP POP POP POP JUMP JUMPDEST PUSH0 SWAP1 JUMP JUMPDEST PUSH2 0x1521 PUSH2 0x1515 JUMP JUMPDEST PUSH2 0x152C DUP2 DUP5 DUP5 PUSH2 0x14F0 JUMP JUMPDEST POP POP POP JUMP JUMPDEST JUMPDEST DUP2 DUP2 LT ISZERO PUSH2 0x154F JUMPI PUSH2 0x1544 PUSH0 DUP3 PUSH2 0x1519 JUMP JUMPDEST PUSH1 0x1 DUP2 ADD SWAP1 POP PUSH2 0x1532 JUMP JUMPDEST POP POP JUMP JUMPDEST PUSH1 0x1F DUP3 GT ISZERO PUSH2 0x1594 JUMPI PUSH2 0x1565 DUP2 PUSH2 0x143F JUMP JUMPDEST PUSH2 0x156E DUP5 PUSH2 0x1451 JUMP JUMPDEST DUP2 ADD PUSH1 0x20 DUP6 LT ISZERO PUSH2 0x157D JUMPI DUP2 SWAP1 POP JUMPDEST PUSH2 0x1591 PUSH2 0x1589 DUP6 PUSH2 0x1451 JUMP JUMPDEST DUP4 ADD DUP3 PUSH2 0x1531 JUMP JUMPDEST POP POP JUMPDEST POP POP POP JUMP JUMPDEST PUSH0 DUP3 DUP3 SHR SWAP1 POP SWAP3 SWAP2 POP POP JUMP JUMPDEST PUSH0 PUSH2 0x15B4 PUSH0 NOT DUP5 PUSH1 0x8 MUL PUSH2 0x1599 JUMP JUMPDEST NOT DUP1 DUP4 AND SWAP2 POP POP SWAP3 SWAP2 POP POP JUMP JUMPDEST PUSH0 PUSH2 0x15CC DUP4 DUP4 PUSH2 0x15A5 JUMP JUMPDEST SWAP2 POP DUP3 PUSH1 0x2 MUL DUP3 OR SWAP1 POP SWAP3 SWAP2 POP POP JUMP JUMPDEST PUSH2 0x15E5 DUP3 PUSH2 0x10E7 JUMP JUMPDEST PUSH8 0xFFFFFFFFFFFFFFFF DUP2 GT ISZERO PUSH2 0x15FE JUMPI PUSH2 0x15FD PUSH2 0xE74 JUMP JUMPDEST JUMPDEST PUSH2 0x1608 DUP3 SLOAD PUSH2 0x140F JUMP JUMPDEST PUSH2 0x1613 DUP3 DUP3 DUP6 PUSH2 0x1553 JUMP JUMPDEST PUSH0 PUSH1 0x20 SWAP1 POP PUSH1 0x1F DUP4 GT PUSH1 0x1 DUP2 EQ PUSH2 0x1644 JUMPI PUSH0 DUP5 ISZERO PUSH2 0x1632 JUMPI DUP3 DUP8 ADD MLOAD SWAP1 POP JUMPDEST PUSH2 0x163C DUP6 DUP3 PUSH2 0x15C1 JUMP JUMPDEST DUP7 SSTORE POP PUSH2 0x16A3 JUMP JUMPDEST PUSH1 0x1F NOT DUP5 AND PUSH2 0x1652 DUP7 PUSH2 0x143F JUMP JUMPDEST PUSH0 JUMPDEST DUP3 DUP2 LT ISZERO PUSH2 0x1679 JUMPI DUP5 DUP10 ADD MLOAD DUP3 SSTORE PUSH1 0x1 DUP3 ADD SWAP2 POP PUSH1 0x20 DUP6 ADD SWAP5 POP PUSH1 0x20 DUP2 ADD SWAP1 POP PUSH2 0x1654 JUMP JUMPDEST DUP7 DUP4 LT ISZERO PUSH2 0x1696 JUMPI DUP5 DUP10 ADD MLOAD PUSH2 0x1692 PUSH1 0x1F DUP10 AND DUP3 PUSH2 0x15A5 JUMP JUMPDEST DUP4 SSTORE POP JUMPDEST PUSH1 0x1 PUSH1 0x2 DUP9 MUL ADD DUP9 SSTORE POP POP POP JUMPDEST POP POP POP POP POP POP JUMP JUMPDEST PUSH0 PUSH1 0x40 DUP3 ADD SWAP1 POP DUP2 DUP2 SUB PUSH0 DUP4 ADD MSTORE PUSH2 0x16C3 DUP2 DUP6 PUSH2 0x110F JUMP JUMPDEST SWAP1 POP PUSH2 0x16D2 PUSH1 0x20 DUP4 ADD DUP5 PUSH2 0x1156 JUMP JUMPDEST SWAP4 SWAP3 POP POP POP JUMP JUMPDEST PUSH32 0x46696C6520646F6573206E6F7420657869737400000000000000000000000000 PUSH0 DUP3 ADD MSTORE POP JUMP JUMPDEST PUSH0 PUSH2 0x170D PUSH1 0x13 DUP4 PUSH2 0x10F1 JUMP JUMPDEST SWAP2 POP PUSH2 0x1718 DUP3 PUSH2 0x16D9 JUMP JUMPDEST PUSH1 0x20 DUP3 ADD SWAP1 POP SWAP2 SWAP1 POP JUMP JUMPDEST PUSH0 PUSH1 0x20 DUP3 ADD SWAP1 POP DUP2 DUP2 SUB PUSH0 DUP4 ADD MSTORE PUSH2 0x173A DUP2 PUSH2 0x1701 JUMP JUMPDEST SWAP1 POP SWAP2 SWAP1 POP JUMP JUMPDEST PUSH32 0x4F6E6C792066696C65206F776E65722063616E20736574206163636573730000 PUSH0 DUP3 ADD MSTORE POP JUMP JUMPDEST PUSH0 PUSH2 0x1775 PUSH1 0x1E DUP4 PUSH2 0x10F1 JUMP JUMPDEST SWAP2 POP PUSH2 0x1780 DUP3 PUSH2 0x1741 JUMP JUMPDEST PUSH1 0x20 DUP3 ADD SWAP1 POP SWAP2 SWAP1 POP JUMP JUMPDEST PUSH0 PUSH1 0x20 DUP3 ADD SWAP1 POP DUP2 DUP2 SUB PUSH0 DUP4 ADD MSTORE PUSH2 0x17A2 DUP2 PUSH2 0x1769 JUMP JUMPDEST SWAP1 POP SWAP2 SWAP1 POP JUMP JUMPDEST PUSH32 0x496E76616C696420757365722061646472657373000000000000000000000000 PUSH0 DUP3 ADD MSTORE POP JUMP JUMPDEST PUSH0 PUSH2 0x17DD PUSH1 0x14 DUP4 PUSH2 0x10F1 JUMP JUMPDEST SWAP2 POP PUSH2 0x17E8 DUP3 PUSH2 0x17A9 JUMP JUMPDEST PUSH1 0x20 DUP3 ADD SWAP1 POP SWAP2 SWAP1 POP JUMP JUMPDEST PUSH0 PUSH1 0x20 DUP3 ADD SWAP1 POP DUP2 DUP2 SUB PUSH0 DUP4 ADD MSTORE PUSH2 0x180A DUP2 PUSH2 0x17D1 JUMP JUMPDEST SWAP1 POP SWAP2 SWAP1 POP JUMP INVALID LOG2 PUSH5 0x6970667358 0x22 SLT KECCAK256 BASEFEE 0xB3 GASPRICE PUSH18 0x1DC4AF6ACA9C74B3C08E90D5177E437C3AD9 CALLDATACOPY PREVRANDAO MSTORE 0xD5 CODECOPY PUSH31 0xFE5F71A864736F6C634300081A003300000000000000000000000000000000 "
				},
				"gasEstimates": {
					"creation": {
						"codeDepositCost": "1243000",
						"executionCost": "infinite",
						"totalCost": "infinite"
					},
					"external": {
						"addFile(bytes32,string,address,uint256)": "infinite",
						"checkAccess(bytes32,address)": "5420",
						"getFileInfo(bytes32)": "infinite",
						"getUserFiles(address)": "infinite",
						"owner()": "2559",
						"renounceOwnership()": "infinite",
						"setFileAccess(bytes32,address,bool)": "infinite",
						"transferOwnership(address)": "infinite"
					}
				},
				"methodIdentifiers": {
					"addFile(bytes32,string,address,uint256)": "248427d0",
					"checkAccess(bytes32,address)": "3e1fd0da",
					"getFileInfo(bytes32)": "52f7347b",
					"getUserFiles(address)": "1fc37922",
					"owner()": "8da5cb5b",
					"renounceOwnership()": "715018a6",
					"setFileAccess(bytes32,address,bool)": "84897dc2",
					"transferOwnership(address)": "f2fde38b"
				}
			},
			"storageLayout": {
				"storage": [
					{
						"astId": 8,
						"contract": "core/FileRegistry.sol:FileRegistry",
						"label": "_owner",
						"offset": 0,
						"slot": "0",
						"type": "t_address"
					},
					{
						"astId": 188,
						"contract": "core/FileRegistry.sol:FileRegistry",
						"label": "_status",
						"offset": 0,
						"slot": "1",
						"type": "t_uint256"
					},
					{
						"astId": 285,
						"contract": "core/FileRegistry.sol:FileRegistry",
						"label": "files",
						"offset": 0,
						"slot": "2",
						"type": "t_mapping(t_bytes32,t_struct(File)280_storage)"
					},
					{
						"astId": 290,
						"contract": "core/FileRegistry.sol:FileRegistry",
						"label": "userFiles",
						"offset": 0,
						"slot": "3",
						"type": "t_mapping(t_address,t_array(t_bytes32)dyn_storage)"
					}
				],
				"types": {
					"t_address": {
						"encoding": "inplace",
						"label": "address",
						"numberOfBytes": "20"
					},
					"t_array(t_bytes32)dyn_storage": {
						"base": "t_bytes32",
						"encoding": "dynamic_array",
						"label": "bytes32[]",
						"numberOfBytes": "32"
					},
					"t_bool": {
						"encoding": "inplace",
						"label": "bool",
						"numberOfBytes": "1"
					},
					"t_bytes32": {
						"encoding": "inplace",
						"label": "bytes32",
						"numberOfBytes": "32"
					},
					"t_mapping(t_address,t_array(t_bytes32)dyn_storage)": {
						"encoding": "mapping",
						"key": "t_address",
						"label": "mapping(address => bytes32[])",
						"numberOfBytes": "32",
						"value": "t_array(t_bytes32)dyn_storage"
					},
					"t_mapping(t_address,t_bool)": {
						"encoding": "mapping",
						"key": "t_address",
						"label": "mapping(address => bool)",
						"numberOfBytes": "32",
						"value": "t_bool"
					},
					"t_mapping(t_bytes32,t_struct(File)280_storage)": {
						"encoding": "mapping",
						"key": "t_bytes32",
						"label": "mapping(bytes32 => struct FileRegistry.File)",
						"numberOfBytes": "32",
						"value": "t_struct(File)280_storage"
					},
					"t_string_storage": {
						"encoding": "bytes",
						"label": "string",
						"numberOfBytes": "32"
					},
					"t_struct(File)280_storage": {
						"encoding": "inplace",
						"label": "struct FileRegistry.File",
						"members": [
							{
								"astId": 267,
								"contract": "core/FileRegistry.sol:FileRegistry",
								"label": "fileName",
								"offset": 0,
								"slot": "0",
								"type": "t_string_storage"
							},
							{
								"astId": 269,
								"contract": "core/FileRegistry.sol:FileRegistry",
								"label": "fileHash",
								"offset": 0,
								"slot": "1",
								"type": "t_bytes32"
							},
							{
								"astId": 271,
								"contract": "core/FileRegistry.sol:FileRegistry",
								"label": "owner",
								"offset": 0,
								"slot": "2",
								"type": "t_address"
							},
							{
								"astId": 273,
								"contract": "core/FileRegistry.sol:FileRegistry",
								"label": "size",
								"offset": 0,
								"slot": "3",
								"type": "t_uint256"
							},
							{
								"astId": 275,
								"contract": "core/FileRegistry.sol:FileRegistry",
								"label": "timestamp",
								"offset": 0,
								"slot": "4",
								"type": "t_uint256"
							},
							{
								"astId": 279,
								"contract": "core/FileRegistry.sol:FileRegistry",
								"label": "accessList",
								"offset": 0,
								"slot": "5",
								"type": "t_mapping(t_address,t_bool)"
							}
						],
						"numberOfBytes": "192"
					},
					"t_uint256": {
						"encoding": "inplace",
						"label": "uint256",
						"numberOfBytes": "32"
					}
				}
			},
			"userdoc": {
				"kind": "user",
				"methods": {},
				"version": 1
			}
		}
	}
}