{
	"core/CipherZeroCore.sol": {
		"CipherZeroCore": {
			"abi": [
				{
					"inputs": [
						{
							"internalType": "address",
							"name": "_fileRegistry",
							"type": "address"
						},
						{
							"internalType": "address",
							"name": "_messaging",
							"type": "address"
						},
						{
							"internalType": "address",
							"name": "_storage",
							"type": "address"
						}
					],
					"stateMutability": "nonpayable",
					"type": "constructor"
				},
				{
					"inputs": [
						{
							"internalType": "address",
							"name": "owner",
							"type": "address"
						}
					],
					"name": "OwnableInvalidOwner",
					"type": "error"
				},
				{
					"inputs": [
						{
							"internalType": "address",
							"name": "account",
							"type": "address"
						}
					],
					"name": "OwnableUnauthorizedAccount",
					"type": "error"
				},
				{
					"inputs": [],
					"name": "ReentrancyGuardReentrantCall",
					"type": "error"
				},
				{
					"anonymous": false,
					"inputs": [
						{
							"indexed": true,
							"internalType": "address",
							"name": "user",
							"type": "address"
						},
						{
							"indexed": true,
							"internalType": "bytes32",
							"name": "fileHash",
							"type": "bytes32"
						}
					],
					"name": "FileDownloaded",
					"type": "event"
				},
				{
					"anonymous": false,
					"inputs": [
						{
							"indexed": true,
							"internalType": "address",
							"name": "user",
							"type": "address"
						},
						{
							"indexed": true,
							"internalType": "bytes32",
							"name": "fileHash",
							"type": "bytes32"
						},
						{
							"indexed": false,
							"internalType": "uint256",
							"name": "size",
							"type": "uint256"
						}
					],
					"name": "FileUploaded",
					"type": "event"
				},
				{
					"anonymous": false,
					"inputs": [
						{
							"indexed": true,
							"internalType": "address",
							"name": "sender",
							"type": "address"
						},
						{
							"indexed": true,
							"internalType": "address",
							"name": "recipient",
							"type": "address"
						}
					],
					"name": "MessageSent",
					"type": "event"
				},
				{
					"anonymous": false,
					"inputs": [
						{
							"indexed": true,
							"internalType": "address",
							"name": "previousOwner",
							"type": "address"
						},
						{
							"indexed": true,
							"internalType": "address",
							"name": "newOwner",
							"type": "address"
						}
					],
					"name": "OwnershipTransferred",
					"type": "event"
				},
				{
					"anonymous": false,
					"inputs": [
						{
							"indexed": true,
							"internalType": "address",
							"name": "user",
							"type": "address"
						}
					],
					"name": "UserRegistered",
					"type": "event"
				},
				{
					"inputs": [
						{
							"internalType": "bytes32",
							"name": "_fileHash",
							"type": "bytes32"
						}
					],
					"name": "downloadFile",
					"outputs": [
						{
							"internalType": "bytes",
							"name": "",
							"type": "bytes"
						}
					],
					"stateMutability": "nonpayable",
					"type": "function"
				},
				{
					"inputs": [],
					"name": "fileRegistry",
					"outputs": [
						{
							"internalType": "contract IFileRegistry",
							"name": "",
							"type": "address"
						}
					],
					"stateMutability": "view",
					"type": "function"
				},
				{
					"inputs": [],
					"name": "messaging",
					"outputs": [
						{
							"internalType": "contract IMessaging",
							"name": "",
							"type": "address"
						}
					],
					"stateMutability": "view",
					"type": "function"
				},
				{
					"inputs": [],
					"name": "owner",
					"outputs": [
						{
							"internalType": "address",
							"name": "",
							"type": "address"
						}
					],
					"stateMutability": "view",
					"type": "function"
				},
				{
					"inputs": [
						{
							"internalType": "address",
							"name": "_user",
							"type": "address"
						}
					],
					"name": "registerUser",
					"outputs": [],
					"stateMutability": "nonpayable",
					"type": "function"
				},
				{
					"inputs": [
						{
							"internalType": "address",
							"name": "",
							"type": "address"
						}
					],
					"name": "registeredUsers",
					"outputs": [
						{
							"internalType": "bool",
							"name": "",
							"type": "bool"
						}
					],
					"stateMutability": "view",
					"type": "function"
				},
				{
					"inputs": [],
					"name": "renounceOwnership",
					"outputs": [],
					"stateMutability": "nonpayable",
					"type": "function"
				},
				{
					"inputs": [
						{
							"internalType": "address",
							"name": "_recipient",
							"type": "address"
						},
						{
							"internalType": "bytes",
							"name": "_encryptedMessage",
							"type": "bytes"
						}
					],
					"name": "sendMessage",
					"outputs": [],
					"stateMutability": "nonpayable",
					"type": "function"
				},
				{
					"inputs": [],
					"name": "storageContract",
					"outputs": [
						{
							"internalType": "contract IStorageContract",
							"name": "",
							"type": "address"
						}
					],
					"stateMutability": "view",
					"type": "function"
				},
				{
					"inputs": [
						{
							"internalType": "address",
							"name": "newOwner",
							"type": "address"
						}
					],
					"name": "transferOwnership",
					"outputs": [],
					"stateMutability": "nonpayable",
					"type": "function"
				},
				{
					"inputs": [
						{
							"internalType": "address",
							"name": "_newFileRegistry",
							"type": "address"
						}
					],
					"name": "updateFileRegistry",
					"outputs": [],
					"stateMutability": "nonpayable",
					"type": "function"
				},
				{
					"inputs": [
						{
							"internalType": "address",
							"name": "_newMessaging",
							"type": "address"
						}
					],
					"name": "updateMessaging",
					"outputs": [],
					"stateMutability": "nonpayable",
					"type": "function"
				},
				{
					"inputs": [
						{
							"internalType": "address",
							"name": "_newStorage",
							"type": "address"
						}
					],
					"name": "updateStorage",
					"outputs": [],
					"stateMutability": "nonpayable",
					"type": "function"
				},
				{
					"inputs": [
						{
							"internalType": "bytes32",
							"name": "_fileHash",
							"type": "bytes32"
						},
						{
							"internalType": "uint256",
							"name": "_size",
							"type": "uint256"
						},
						{
							"internalType": "bytes",
							"name": "_data",
							"type": "bytes"
						}
					],
					"name": "uploadFile",
					"outputs": [],
					"stateMutability": "nonpayable",
					"type": "function"
				}
			],
			"devdoc": {
				"details": "Main entry point for the Cipher Zero Protocol",
				"errors": {
					"OwnableInvalidOwner(address)": [
						{
							"details": "The owner is not a valid owner account. (eg. `address(0)`)"
						}
					],
					"OwnableUnauthorizedAccount(address)": [
						{
							"details": "The caller account is not authorized to perform an operation."
						}
					],
					"ReentrancyGuardReentrantCall()": [
						{
							"details": "Unauthorized reentrant call."
						}
					]
				},
				"kind": "dev",
				"methods": {
					"constructor": {
						"details": "Constructor to set up dependencies",
						"params": {
							"_fileRegistry": "Address of the FileRegistry contract",
							"_messaging": "Address of the Messaging contract",
							"_storage": "Address of the Storage contract"
						}
					},
					"owner()": {
						"details": "Returns the address of the current owner."
					},
					"registerUser(address)": {
						"details": "Registers a new user in the protocol",
						"params": {
							"_user": "Address of the user to register"
						}
					},
					"renounceOwnership()": {
						"details": "Leaves the contract without owner. It will not be possible to call `onlyOwner` functions. Can only be called by the current owner. NOTE: Renouncing ownership will leave the contract without an owner, thereby disabling any functionality that is only available to the owner."
					},
					"transferOwnership(address)": {
						"details": "Transfers ownership of the contract to a new account (`newOwner`). Can only be called by the current owner."
					},
					"updateFileRegistry(address)": {
						"details": "Updates the address of the FileRegistry contract",
						"params": {
							"_newFileRegistry": "Address of the new FileRegistry contract"
						}
					},
					"updateMessaging(address)": {
						"details": "Updates the address of the Messaging contract",
						"params": {
							"_newMessaging": "Address of the new Messaging contract"
						}
					},
					"updateStorage(address)": {
						"details": "Updates the address of the Storage contract",
						"params": {
							"_newStorage": "Address of the new Storage contract"
						}
					},
					"uploadFile(bytes32,uint256,bytes)": {
						"details": "Initiates file upload process",
						"params": {
							"_fileHash": "Hash of the file to upload",
							"_size": "Size of the file in bytes"
						}
					}
				},
				"title": "CipherZeroCore",
				"version": 1
			},
			"evm": {
				"assembly": "    /* \"core/CipherZeroCore.sol\":386:5005  contract CipherZeroCore is Ownable, ReentrancyGuard {... */\n  mstore(0x40, 0x80)\n    /* \"core/CipherZeroCore.sol\":1188:1496  constructor(... */\n  callvalue\n  dup1\n  iszero\n  tag_1\n  jumpi\n  0x00\n  dup1\n  revert\ntag_1:\n  pop\n  mload(0x40)\n  sub(codesize, bytecodeSize)\n  dup1\n  bytecodeSize\n  dup4\n  codecopy\n  dup2\n  dup2\n  add\n  0x40\n  mstore\n  dup2\n  add\n  swap1\n  tag_2\n  swap2\n  swap1\n  tag_3\n  jump\t// in\ntag_2:\n    /* \"core/CipherZeroCore.sol\":1301:1311  msg.sender */\n  caller\n    /* \"@openzeppelin/contracts/access/Ownable.sol\":1297:1298  0 */\n  0x00\n    /* \"@openzeppelin/contracts/access/Ownable.sol\":1273:1299  initialOwner == address(0) */\n  0xffffffffffffffffffffffffffffffffffffffff\n  and\n    /* \"@openzeppelin/contracts/access/Ownable.sol\":1273:1285  initialOwner */\n  dup2\n    /* \"@openzeppelin/contracts/access/Ownable.sol\":1273:1299  initialOwner == address(0) */\n  0xffffffffffffffffffffffffffffffffffffffff\n  and\n  sub\n    /* \"@openzeppelin/contracts/access/Ownable.sol\":1269:1364  if (initialOwner == address(0)) {... */\n  tag_8\n  jumpi\n    /* \"@openzeppelin/contracts/access/Ownable.sol\":1350:1351  0 */\n  0x00\n    /* \"@openzeppelin/contracts/access/Ownable.sol\":1322:1353  OwnableInvalidOwner(address(0)) */\n  mload(0x40)\n  0x1e4fbdf700000000000000000000000000000000000000000000000000000000\n  dup2\n  mstore\n  0x04\n  add\n  tag_9\n  swap2\n  swap1\n  tag_10\n  jump\t// in\ntag_9:\n  mload(0x40)\n  dup1\n  swap2\n  sub\n  swap1\n  revert\n    /* \"@openzeppelin/contracts/access/Ownable.sol\":1269:1364  if (initialOwner == address(0)) {... */\ntag_8:\n    /* \"@openzeppelin/contracts/access/Ownable.sol\":1373:1405  _transferOwnership(initialOwner) */\n  tag_11\n    /* \"@openzeppelin/contracts/access/Ownable.sol\":1392:1404  initialOwner */\n  dup2\n    /* \"@openzeppelin/contracts/access/Ownable.sol\":1373:1391  _transferOwnership */\n  shl(0x20, tag_12)\n    /* \"@openzeppelin/contracts/access/Ownable.sol\":1373:1405  _transferOwnership(initialOwner) */\n  0x20\n  shr\n  jump\t// in\ntag_11:\n    /* \"@openzeppelin/contracts/access/Ownable.sol\":1225:1412  constructor(address initialOwner) {... */\n  pop\n    /* \"@openzeppelin/contracts/utils/ReentrancyGuard.sol\":1857:1858  1 */\n  0x01\n    /* \"@openzeppelin/contracts/utils/ReentrancyGuard.sol\":2061:2068  _status */\n  dup1\n    /* \"@openzeppelin/contracts/utils/ReentrancyGuard.sol\":2061:2082  _status = NOT_ENTERED */\n  dup2\n  swap1\n  sstore\n  pop\n    /* \"core/CipherZeroCore.sol\":1352:1365  _fileRegistry */\n  dup3\n    /* \"core/CipherZeroCore.sol\":1323:1335  fileRegistry */\n  0x02\n  0x00\n    /* \"core/CipherZeroCore.sol\":1323:1366  fileRegistry = IFileRegistry(_fileRegistry) */\n  0x0100\n  exp\n  dup2\n  sload\n  dup2\n  0xffffffffffffffffffffffffffffffffffffffff\n  mul\n  not\n  and\n  swap1\n  dup4\n  0xffffffffffffffffffffffffffffffffffffffff\n  and\n  mul\n  or\n  swap1\n  sstore\n  pop\n    /* \"core/CipherZeroCore.sol\":1399:1409  _messaging */\n  dup2\n    /* \"core/CipherZeroCore.sol\":1376:1385  messaging */\n  0x03\n  0x00\n    /* \"core/CipherZeroCore.sol\":1376:1410  messaging = IMessaging(_messaging) */\n  0x0100\n  exp\n  dup2\n  sload\n  dup2\n  0xffffffffffffffffffffffffffffffffffffffff\n  mul\n  not\n  and\n  swap1\n  dup4\n  0xffffffffffffffffffffffffffffffffffffffff\n  and\n  mul\n  or\n  swap1\n  sstore\n  pop\n    /* \"core/CipherZeroCore.sol\":1455:1463  _storage */\n  dup1\n    /* \"core/CipherZeroCore.sol\":1420:1435  storageContract */\n  0x04\n  0x00\n    /* \"core/CipherZeroCore.sol\":1420:1464  storageContract = IStorageContract(_storage) */\n  0x0100\n  exp\n  dup2\n  sload\n  dup2\n  0xffffffffffffffffffffffffffffffffffffffff\n  mul\n  not\n  and\n  swap1\n  dup4\n  0xffffffffffffffffffffffffffffffffffffffff\n  and\n  mul\n  or\n  swap1\n  sstore\n  pop\n    /* \"core/CipherZeroCore.sol\":1188:1496  constructor(... */\n  pop\n  pop\n  pop\n    /* \"core/CipherZeroCore.sol\":386:5005  contract CipherZeroCore is Ownable, ReentrancyGuard {... */\n  jump(tag_15)\n    /* \"@openzeppelin/contracts/access/Ownable.sol\":2912:3099  function _transferOwnership(address newOwner) internal virtual {... */\ntag_12:\n    /* \"@openzeppelin/contracts/access/Ownable.sol\":2985:3001  address oldOwner */\n  0x00\n    /* \"@openzeppelin/contracts/access/Ownable.sol\":3004:3010  _owner */\n  dup1\n  0x00\n  swap1\n  sload\n  swap1\n  0x0100\n  exp\n  swap1\n  div\n  0xffffffffffffffffffffffffffffffffffffffff\n  and\n    /* \"@openzeppelin/contracts/access/Ownable.sol\":2985:3010  address oldOwner = _owner */\n  swap1\n  pop\n    /* \"@openzeppelin/contracts/access/Ownable.sol\":3029:3037  newOwner */\n  dup2\n    /* \"@openzeppelin/contracts/access/Ownable.sol\":3020:3026  _owner */\n  0x00\n  dup1\n    /* \"@openzeppelin/contracts/access/Ownable.sol\":3020:3037  _owner = newOwner */\n  0x0100\n  exp\n  dup2\n  sload\n  dup2\n  0xffffffffffffffffffffffffffffffffffffffff\n  mul\n  not\n  and\n  swap1\n  dup4\n  0xffffffffffffffffffffffffffffffffffffffff\n  and\n  mul\n  or\n  swap1\n  sstore\n  pop\n    /* \"@openzeppelin/contracts/access/Ownable.sol\":3083:3091  newOwner */\n  dup2\n    /* \"@openzeppelin/contracts/access/Ownable.sol\":3052:3092  OwnershipTransferred(oldOwner, newOwner) */\n  0xffffffffffffffffffffffffffffffffffffffff\n  and\n    /* \"@openzeppelin/contracts/access/Ownable.sol\":3073:3081  oldOwner */\n  dup2\n    /* \"@openzeppelin/contracts/access/Ownable.sol\":3052:3092  OwnershipTransferred(oldOwner, newOwner) */\n  0xffffffffffffffffffffffffffffffffffffffff\n  and\n  0x8be0079c531659141344cd1fd0a4f28419497f9722a3daafe3b4186f6b6457e0\n  mload(0x40)\n  mload(0x40)\n  dup1\n  swap2\n  sub\n  swap1\n  log3\n    /* \"@openzeppelin/contracts/access/Ownable.sol\":2975:3099  {... */\n  pop\n    /* \"@openzeppelin/contracts/access/Ownable.sol\":2912:3099  function _transferOwnership(address newOwner) internal virtual {... */\n  pop\n  jump\t// out\n    /* \"#utility.yul\":88:205   */\ntag_18:\n    /* \"#utility.yul\":197:198   */\n  0x00\n    /* \"#utility.yul\":194:195   */\n  dup1\n    /* \"#utility.yul\":187:199   */\n  revert\n    /* \"#utility.yul\":334:460   */\ntag_20:\n    /* \"#utility.yul\":371:378   */\n  0x00\n    /* \"#utility.yul\":411:453   */\n  0xffffffffffffffffffffffffffffffffffffffff\n    /* \"#utility.yul\":404:409   */\n  dup3\n    /* \"#utility.yul\":400:454   */\n  and\n    /* \"#utility.yul\":389:454   */\n  swap1\n  pop\n    /* \"#utility.yul\":334:460   */\n  swap2\n  swap1\n  pop\n  jump\t// out\n    /* \"#utility.yul\":466:562   */\ntag_21:\n    /* \"#utility.yul\":503:510   */\n  0x00\n    /* \"#utility.yul\":532:556   */\n  tag_31\n    /* \"#utility.yul\":550:555   */\n  dup3\n    /* \"#utility.yul\":532:556   */\n  tag_20\n  jump\t// in\ntag_31:\n    /* \"#utility.yul\":521:556   */\n  swap1\n  pop\n    /* \"#utility.yul\":466:562   */\n  swap2\n  swap1\n  pop\n  jump\t// out\n    /* \"#utility.yul\":568:690   */\ntag_22:\n    /* \"#utility.yul\":641:665   */\n  tag_33\n    /* \"#utility.yul\":659:664   */\n  dup2\n    /* \"#utility.yul\":641:665   */\n  tag_21\n  jump\t// in\ntag_33:\n    /* \"#utility.yul\":634:639   */\n  dup2\n    /* \"#utility.yul\":631:666   */\n  eq\n    /* \"#utility.yul\":621:684   */\n  tag_34\n  jumpi\n    /* \"#utility.yul\":680:681   */\n  0x00\n    /* \"#utility.yul\":677:678   */\n  dup1\n    /* \"#utility.yul\":670:682   */\n  revert\n    /* \"#utility.yul\":621:684   */\ntag_34:\n    /* \"#utility.yul\":568:690   */\n  pop\n  jump\t// out\n    /* \"#utility.yul\":696:839   */\ntag_23:\n    /* \"#utility.yul\":753:758   */\n  0x00\n    /* \"#utility.yul\":784:790   */\n  dup2\n    /* \"#utility.yul\":778:791   */\n  mload\n    /* \"#utility.yul\":769:791   */\n  swap1\n  pop\n    /* \"#utility.yul\":800:833   */\n  tag_36\n    /* \"#utility.yul\":827:832   */\n  dup2\n    /* \"#utility.yul\":800:833   */\n  tag_22\n  jump\t// in\ntag_36:\n    /* \"#utility.yul\":696:839   */\n  swap3\n  swap2\n  pop\n  pop\n  jump\t// out\n    /* \"#utility.yul\":845:1508   */\ntag_3:\n    /* \"#utility.yul\":933:939   */\n  0x00\n    /* \"#utility.yul\":941:947   */\n  dup1\n    /* \"#utility.yul\":949:955   */\n  0x00\n    /* \"#utility.yul\":998:1000   */\n  0x60\n    /* \"#utility.yul\":986:995   */\n  dup5\n    /* \"#utility.yul\":977:984   */\n  dup7\n    /* \"#utility.yul\":973:996   */\n  sub\n    /* \"#utility.yul\":969:1001   */\n  slt\n    /* \"#utility.yul\":966:1085   */\n  iszero\n  tag_38\n  jumpi\n    /* \"#utility.yul\":1004:1083   */\n  tag_39\n  tag_18\n  jump\t// in\ntag_39:\n    /* \"#utility.yul\":966:1085   */\ntag_38:\n    /* \"#utility.yul\":1124:1125   */\n  0x00\n    /* \"#utility.yul\":1149:1213   */\n  tag_40\n    /* \"#utility.yul\":1205:1212   */\n  dup7\n    /* \"#utility.yul\":1196:1202   */\n  dup3\n    /* \"#utility.yul\":1185:1194   */\n  dup8\n    /* \"#utility.yul\":1181:1203   */\n  add\n    /* \"#utility.yul\":1149:1213   */\n  tag_23\n  jump\t// in\ntag_40:\n    /* \"#utility.yul\":1139:1213   */\n  swap4\n  pop\n    /* \"#utility.yul\":1095:1223   */\n  pop\n    /* \"#utility.yul\":1262:1264   */\n  0x20\n    /* \"#utility.yul\":1288:1352   */\n  tag_41\n    /* \"#utility.yul\":1344:1351   */\n  dup7\n    /* \"#utility.yul\":1335:1341   */\n  dup3\n    /* \"#utility.yul\":1324:1333   */\n  dup8\n    /* \"#utility.yul\":1320:1342   */\n  add\n    /* \"#utility.yul\":1288:1352   */\n  tag_23\n  jump\t// in\ntag_41:\n    /* \"#utility.yul\":1278:1352   */\n  swap3\n  pop\n    /* \"#utility.yul\":1233:1362   */\n  pop\n    /* \"#utility.yul\":1401:1403   */\n  0x40\n    /* \"#utility.yul\":1427:1491   */\n  tag_42\n    /* \"#utility.yul\":1483:1490   */\n  dup7\n    /* \"#utility.yul\":1474:1480   */\n  dup3\n    /* \"#utility.yul\":1463:1472   */\n  dup8\n    /* \"#utility.yul\":1459:1481   */\n  add\n    /* \"#utility.yul\":1427:1491   */\n  tag_23\n  jump\t// in\ntag_42:\n    /* \"#utility.yul\":1417:1491   */\n  swap2\n  pop\n    /* \"#utility.yul\":1372:1501   */\n  pop\n    /* \"#utility.yul\":845:1508   */\n  swap3\n  pop\n  swap3\n  pop\n  swap3\n  jump\t// out\n    /* \"#utility.yul\":1514:1632   */\ntag_24:\n    /* \"#utility.yul\":1601:1625   */\n  tag_44\n    /* \"#utility.yul\":1619:1624   */\n  dup2\n    /* \"#utility.yul\":1601:1625   */\n  tag_21\n  jump\t// in\ntag_44:\n    /* \"#utility.yul\":1596:1599   */\n  dup3\n    /* \"#utility.yul\":1589:1626   */\n  mstore\n    /* \"#utility.yul\":1514:1632   */\n  pop\n  pop\n  jump\t// out\n    /* \"#utility.yul\":1638:1860   */\ntag_10:\n    /* \"#utility.yul\":1731:1735   */\n  0x00\n    /* \"#utility.yul\":1769:1771   */\n  0x20\n    /* \"#utility.yul\":1758:1767   */\n  dup3\n    /* \"#utility.yul\":1754:1772   */\n  add\n    /* \"#utility.yul\":1746:1772   */\n  swap1\n  pop\n    /* \"#utility.yul\":1782:1853   */\n  tag_46\n    /* \"#utility.yul\":1850:1851   */\n  0x00\n    /* \"#utility.yul\":1839:1848   */\n  dup4\n    /* \"#utility.yul\":1835:1852   */\n  add\n    /* \"#utility.yul\":1826:1832   */\n  dup5\n    /* \"#utility.yul\":1782:1853   */\n  tag_24\n  jump\t// in\ntag_46:\n    /* \"#utility.yul\":1638:1860   */\n  swap3\n  swap2\n  pop\n  pop\n  jump\t// out\n    /* \"core/CipherZeroCore.sol\":386:5005  contract CipherZeroCore is Ownable, ReentrancyGuard {... */\ntag_15:\n  dataSize(sub_0)\n  dup1\n  dataOffset(sub_0)\n  0x00\n  codecopy\n  0x00\n  return\nstop\n\nsub_0: assembly {\n        /* \"core/CipherZeroCore.sol\":386:5005  contract CipherZeroCore is Ownable, ReentrancyGuard {... */\n      mstore(0x40, 0x80)\n      callvalue\n      dup1\n      iszero\n      tag_1\n      jumpi\n      0x00\n      dup1\n      revert\n    tag_1:\n      pop\n      jumpi(tag_2, lt(calldatasize, 0x04))\n      shr(0xe0, calldataload(0x00))\n      dup1\n      0x715018a6\n      gt\n      tag_17\n      jumpi\n      dup1\n      0xbb5ddb0f\n      gt\n      tag_18\n      jumpi\n      dup1\n      0xbb5ddb0f\n      eq\n      tag_13\n      jumpi\n      dup1\n      0xd951e3c1\n      eq\n      tag_14\n      jumpi\n      dup1\n      0xf2fde38b\n      eq\n      tag_15\n      jumpi\n      dup1\n      0xf74fe2e9\n      eq\n      tag_16\n      jumpi\n      jump(tag_2)\n    tag_18:\n      dup1\n      0x715018a6\n      eq\n      tag_10\n      jumpi\n      dup1\n      0x8da5cb5b\n      eq\n      tag_11\n      jumpi\n      dup1\n      0xa30e992c\n      eq\n      tag_12\n      jumpi\n      jump(tag_2)\n    tag_17:\n      dup1\n      0x20673430\n      gt\n      tag_19\n      jumpi\n      dup1\n      0x20673430\n      eq\n      tag_6\n      jumpi\n      dup1\n      0x2199d5cd\n      eq\n      tag_7\n      jumpi\n      dup1\n      0x5276b263\n      eq\n      tag_8\n      jumpi\n      dup1\n      0x588f64e1\n      eq\n      tag_9\n      jumpi\n      jump(tag_2)\n    tag_19:\n      dup1\n      0x03670f4f\n      eq\n      tag_3\n      jumpi\n      dup1\n      0x0e50cee5\n      eq\n      tag_4\n      jumpi\n      dup1\n      0x11ce0267\n      eq\n      tag_5\n      jumpi\n    tag_2:\n      0x00\n      dup1\n      revert\n        /* \"core/CipherZeroCore.sol\":4081:4298  function updateFileRegistry(address _newFileRegistry) external onlyOwner {... */\n    tag_3:\n      tag_20\n      0x04\n      dup1\n      calldatasize\n      sub\n      dup2\n      add\n      swap1\n      tag_21\n      swap2\n      swap1\n      tag_22\n      jump\t// in\n    tag_21:\n      tag_23\n      jump\t// in\n    tag_20:\n      stop\n        /* \"core/CipherZeroCore.sol\":609:656  mapping(address => bool) public registeredUsers */\n    tag_4:\n      tag_24\n      0x04\n      dup1\n      calldatasize\n      sub\n      dup2\n      add\n      swap1\n      tag_25\n      swap2\n      swap1\n      tag_22\n      jump\t// in\n    tag_25:\n      tag_26\n      jump\t// in\n    tag_24:\n      mload(0x40)\n      tag_27\n      swap2\n      swap1\n      tag_28\n      jump\t// in\n    tag_27:\n      mload(0x40)\n      dup1\n      swap2\n      sub\n      swap1\n      return\n        /* \"core/CipherZeroCore.sol\":516:555  IStorageContract public storageContract */\n    tag_5:\n      tag_29\n      tag_30\n      jump\t// in\n    tag_29:\n      mload(0x40)\n      tag_31\n      swap2\n      swap1\n      tag_32\n      jump\t// in\n    tag_31:\n      mload(0x40)\n      dup1\n      swap2\n      sub\n      swap1\n      return\n        /* \"core/CipherZeroCore.sol\":4444:4640  function updateMessaging(address _newMessaging) external onlyOwner {... */\n    tag_6:\n      tag_33\n      0x04\n      dup1\n      calldatasize\n      sub\n      dup2\n      add\n      swap1\n      tag_34\n      swap2\n      swap1\n      tag_22\n      jump\t// in\n    tag_34:\n      tag_35\n      jump\t// in\n    tag_33:\n      stop\n        /* \"core/CipherZeroCore.sol\":1812:2072  function registerUser(address _user) external {... */\n    tag_7:\n      tag_36\n      0x04\n      dup1\n      calldatasize\n      sub\n      dup2\n      add\n      swap1\n      tag_37\n      swap2\n      swap1\n      tag_22\n      jump\t// in\n    tag_37:\n      tag_38\n      jump\t// in\n    tag_36:\n      stop\n        /* \"core/CipherZeroCore.sol\":444:477  IFileRegistry public fileRegistry */\n    tag_8:\n      tag_39\n      tag_40\n      jump\t// in\n    tag_39:\n      mload(0x40)\n      tag_41\n      swap2\n      swap1\n      tag_42\n      jump\t// in\n    tag_41:\n      mload(0x40)\n      dup1\n      swap2\n      sub\n      swap1\n      return\n        /* \"core/CipherZeroCore.sol\":4780:5003  function updateStorage(address _newStorage) external onlyOwner {... */\n    tag_9:\n      tag_43\n      0x04\n      dup1\n      calldatasize\n      sub\n      dup2\n      add\n      swap1\n      tag_44\n      swap2\n      swap1\n      tag_22\n      jump\t// in\n    tag_44:\n      tag_45\n      jump\t// in\n    tag_43:\n      stop\n        /* \"@openzeppelin/contracts/access/Ownable.sol\":2293:2394  function renounceOwnership() public virtual onlyOwner {... */\n    tag_10:\n      tag_46\n      tag_47\n      jump\t// in\n    tag_46:\n      stop\n        /* \"@openzeppelin/contracts/access/Ownable.sol\":1638:1723  function owner() public view virtual returns (address) {... */\n    tag_11:\n      tag_48\n      tag_49\n      jump\t// in\n    tag_48:\n      mload(0x40)\n      tag_50\n      swap2\n      swap1\n      tag_51\n      jump\t// in\n    tag_50:\n      mload(0x40)\n      dup1\n      swap2\n      sub\n      swap1\n      return\n        /* \"core/CipherZeroCore.sol\":2838:3391  function downloadFile(bytes32 _fileHash) ... */\n    tag_12:\n      tag_52\n      0x04\n      dup1\n      calldatasize\n      sub\n      dup2\n      add\n      swap1\n      tag_53\n      swap2\n      swap1\n      tag_54\n      jump\t// in\n    tag_53:\n      tag_55\n      jump\t// in\n    tag_52:\n      mload(0x40)\n      tag_56\n      swap2\n      swap1\n      tag_57\n      jump\t// in\n    tag_56:\n      mload(0x40)\n      dup1\n      swap2\n      sub\n      swap1\n      return\n        /* \"core/CipherZeroCore.sol\":3397:3926  function sendMessage(... */\n    tag_13:\n      tag_58\n      0x04\n      dup1\n      calldatasize\n      sub\n      dup2\n      add\n      swap1\n      tag_59\n      swap2\n      swap1\n      tag_60\n      jump\t// in\n    tag_59:\n      tag_61\n      jump\t// in\n    tag_58:\n      stop\n        /* \"core/CipherZeroCore.sol\":2234:2832  function uploadFile(... */\n    tag_14:\n      tag_62\n      0x04\n      dup1\n      calldatasize\n      sub\n      dup2\n      add\n      swap1\n      tag_63\n      swap2\n      swap1\n      tag_64\n      jump\t// in\n    tag_63:\n      tag_65\n      jump\t// in\n    tag_62:\n      stop\n        /* \"@openzeppelin/contracts/access/Ownable.sol\":2543:2758  function transferOwnership(address newOwner) public virtual onlyOwner {... */\n    tag_15:\n      tag_66\n      0x04\n      dup1\n      calldatasize\n      sub\n      dup2\n      add\n      swap1\n      tag_67\n      swap2\n      swap1\n      tag_22\n      jump\t// in\n    tag_67:\n      tag_68\n      jump\t// in\n    tag_66:\n      stop\n        /* \"core/CipherZeroCore.sol\":483:510  IMessaging public messaging */\n    tag_16:\n      tag_69\n      tag_70\n      jump\t// in\n    tag_69:\n      mload(0x40)\n      tag_71\n      swap2\n      swap1\n      tag_72\n      jump\t// in\n    tag_71:\n      mload(0x40)\n      dup1\n      swap2\n      sub\n      swap1\n      return\n        /* \"core/CipherZeroCore.sol\":4081:4298  function updateFileRegistry(address _newFileRegistry) external onlyOwner {... */\n    tag_23:\n        /* \"@openzeppelin/contracts/access/Ownable.sol\":1531:1544  _checkOwner() */\n      tag_74\n        /* \"@openzeppelin/contracts/access/Ownable.sol\":1531:1542  _checkOwner */\n      tag_75\n        /* \"@openzeppelin/contracts/access/Ownable.sol\":1531:1544  _checkOwner() */\n      jump\t// in\n    tag_74:\n        /* \"core/CipherZeroCore.sol\":4200:4201  0 */\n      0x00\n        /* \"core/CipherZeroCore.sol\":4172:4202  _newFileRegistry != address(0) */\n      0xffffffffffffffffffffffffffffffffffffffff\n      and\n        /* \"core/CipherZeroCore.sol\":4172:4188  _newFileRegistry */\n      dup2\n        /* \"core/CipherZeroCore.sol\":4172:4202  _newFileRegistry != address(0) */\n      0xffffffffffffffffffffffffffffffffffffffff\n      and\n      sub\n        /* \"core/CipherZeroCore.sol\":4164:4235  require(_newFileRegistry != address(0), \"Invalid FileRegistry address\") */\n      tag_77\n      jumpi\n      mload(0x40)\n      0x08c379a000000000000000000000000000000000000000000000000000000000\n      dup2\n      mstore\n      0x04\n      add\n      tag_78\n      swap1\n      tag_79\n      jump\t// in\n    tag_78:\n      mload(0x40)\n      dup1\n      swap2\n      sub\n      swap1\n      revert\n    tag_77:\n        /* \"core/CipherZeroCore.sol\":4274:4290  _newFileRegistry */\n      dup1\n        /* \"core/CipherZeroCore.sol\":4245:4257  fileRegistry */\n      0x02\n      0x00\n        /* \"core/CipherZeroCore.sol\":4245:4291  fileRegistry = IFileRegistry(_newFileRegistry) */\n      0x0100\n      exp\n      dup2\n      sload\n      dup2\n      0xffffffffffffffffffffffffffffffffffffffff\n      mul\n      not\n      and\n      swap1\n      dup4\n      0xffffffffffffffffffffffffffffffffffffffff\n      and\n      mul\n      or\n      swap1\n      sstore\n      pop\n        /* \"core/CipherZeroCore.sol\":4081:4298  function updateFileRegistry(address _newFileRegistry) external onlyOwner {... */\n      pop\n      jump\t// out\n        /* \"core/CipherZeroCore.sol\":609:656  mapping(address => bool) public registeredUsers */\n    tag_26:\n      mstore(0x20, 0x05)\n      dup1\n      0x00\n      mstore\n      keccak256(0x00, 0x40)\n      0x00\n      swap2\n      pop\n      sload\n      swap1\n      0x0100\n      exp\n      swap1\n      div\n      0xff\n      and\n      dup2\n      jump\t// out\n        /* \"core/CipherZeroCore.sol\":516:555  IStorageContract public storageContract */\n    tag_30:\n      0x04\n      0x00\n      swap1\n      sload\n      swap1\n      0x0100\n      exp\n      swap1\n      div\n      0xffffffffffffffffffffffffffffffffffffffff\n      and\n      dup2\n      jump\t// out\n        /* \"core/CipherZeroCore.sol\":4444:4640  function updateMessaging(address _newMessaging) external onlyOwner {... */\n    tag_35:\n        /* \"@openzeppelin/contracts/access/Ownable.sol\":1531:1544  _checkOwner() */\n      tag_81\n        /* \"@openzeppelin/contracts/access/Ownable.sol\":1531:1542  _checkOwner */\n      tag_75\n        /* \"@openzeppelin/contracts/access/Ownable.sol\":1531:1544  _checkOwner() */\n      jump\t// in\n    tag_81:\n        /* \"core/CipherZeroCore.sol\":4554:4555  0 */\n      0x00\n        /* \"core/CipherZeroCore.sol\":4529:4556  _newMessaging != address(0) */\n      0xffffffffffffffffffffffffffffffffffffffff\n      and\n        /* \"core/CipherZeroCore.sol\":4529:4542  _newMessaging */\n      dup2\n        /* \"core/CipherZeroCore.sol\":4529:4556  _newMessaging != address(0) */\n      0xffffffffffffffffffffffffffffffffffffffff\n      and\n      sub\n        /* \"core/CipherZeroCore.sol\":4521:4586  require(_newMessaging != address(0), \"Invalid Messaging address\") */\n      tag_83\n      jumpi\n      mload(0x40)\n      0x08c379a000000000000000000000000000000000000000000000000000000000\n      dup2\n      mstore\n      0x04\n      add\n      tag_84\n      swap1\n      tag_85\n      jump\t// in\n    tag_84:\n      mload(0x40)\n      dup1\n      swap2\n      sub\n      swap1\n      revert\n    tag_83:\n        /* \"core/CipherZeroCore.sol\":4619:4632  _newMessaging */\n      dup1\n        /* \"core/CipherZeroCore.sol\":4596:4605  messaging */\n      0x03\n      0x00\n        /* \"core/CipherZeroCore.sol\":4596:4633  messaging = IMessaging(_newMessaging) */\n      0x0100\n      exp\n      dup2\n      sload\n      dup2\n      0xffffffffffffffffffffffffffffffffffffffff\n      mul\n      not\n      and\n      swap1\n      dup4\n      0xffffffffffffffffffffffffffffffffffffffff\n      and\n      mul\n      or\n      swap1\n      sstore\n      pop\n        /* \"core/CipherZeroCore.sol\":4444:4640  function updateMessaging(address _newMessaging) external onlyOwner {... */\n      pop\n      jump\t// out\n        /* \"core/CipherZeroCore.sol\":1812:2072  function registerUser(address _user) external {... */\n    tag_38:\n        /* \"core/CipherZeroCore.sol\":1893:1894  0 */\n      0x00\n        /* \"core/CipherZeroCore.sol\":1876:1895  _user != address(0) */\n      0xffffffffffffffffffffffffffffffffffffffff\n      and\n        /* \"core/CipherZeroCore.sol\":1876:1881  _user */\n      dup2\n        /* \"core/CipherZeroCore.sol\":1876:1895  _user != address(0) */\n      0xffffffffffffffffffffffffffffffffffffffff\n      and\n      sub\n        /* \"core/CipherZeroCore.sol\":1868:1920  require(_user != address(0), \"Invalid user address\") */\n      tag_87\n      jumpi\n      mload(0x40)\n      0x08c379a000000000000000000000000000000000000000000000000000000000\n      dup2\n      mstore\n      0x04\n      add\n      tag_88\n      swap1\n      tag_89\n      jump\t// in\n    tag_88:\n      mload(0x40)\n      dup1\n      swap2\n      sub\n      swap1\n      revert\n    tag_87:\n        /* \"core/CipherZeroCore.sol\":1939:1954  registeredUsers */\n      0x05\n        /* \"core/CipherZeroCore.sol\":1939:1961  registeredUsers[_user] */\n      0x00\n        /* \"core/CipherZeroCore.sol\":1955:1960  _user */\n      dup3\n        /* \"core/CipherZeroCore.sol\":1939:1961  registeredUsers[_user] */\n      0xffffffffffffffffffffffffffffffffffffffff\n      and\n      0xffffffffffffffffffffffffffffffffffffffff\n      and\n      dup2\n      mstore\n      0x20\n      add\n      swap1\n      dup2\n      mstore\n      0x20\n      add\n      0x00\n      keccak256\n      0x00\n      swap1\n      sload\n      swap1\n      0x0100\n      exp\n      swap1\n      div\n      0xff\n      and\n        /* \"core/CipherZeroCore.sol\":1938:1961  !registeredUsers[_user] */\n      iszero\n        /* \"core/CipherZeroCore.sol\":1930:1989  require(!registeredUsers[_user], \"User already registered\") */\n      tag_90\n      jumpi\n      mload(0x40)\n      0x08c379a000000000000000000000000000000000000000000000000000000000\n      dup2\n      mstore\n      0x04\n      add\n      tag_91\n      swap1\n      tag_92\n      jump\t// in\n    tag_91:\n      mload(0x40)\n      dup1\n      swap2\n      sub\n      swap1\n      revert\n    tag_90:\n        /* \"core/CipherZeroCore.sol\":2025:2029  true */\n      0x01\n        /* \"core/CipherZeroCore.sol\":2000:2015  registeredUsers */\n      0x05\n        /* \"core/CipherZeroCore.sol\":2000:2022  registeredUsers[_user] */\n      0x00\n        /* \"core/CipherZeroCore.sol\":2016:2021  _user */\n      dup4\n        /* \"core/CipherZeroCore.sol\":2000:2022  registeredUsers[_user] */\n      0xffffffffffffffffffffffffffffffffffffffff\n      and\n      0xffffffffffffffffffffffffffffffffffffffff\n      and\n      dup2\n      mstore\n      0x20\n      add\n      swap1\n      dup2\n      mstore\n      0x20\n      add\n      0x00\n      keccak256\n      0x00\n        /* \"core/CipherZeroCore.sol\":2000:2029  registeredUsers[_user] = true */\n      0x0100\n      exp\n      dup2\n      sload\n      dup2\n      0xff\n      mul\n      not\n      and\n      swap1\n      dup4\n      iszero\n      iszero\n      mul\n      or\n      swap1\n      sstore\n      pop\n        /* \"core/CipherZeroCore.sol\":2059:2064  _user */\n      dup1\n        /* \"core/CipherZeroCore.sol\":2044:2065  UserRegistered(_user) */\n      0xffffffffffffffffffffffffffffffffffffffff\n      and\n      0x54db7a5cb4735e1aac1f53db512d3390390bb6637bd30ad4bf9fc98667d9b9b9\n      mload(0x40)\n      mload(0x40)\n      dup1\n      swap2\n      sub\n      swap1\n      log2\n        /* \"core/CipherZeroCore.sol\":1812:2072  function registerUser(address _user) external {... */\n      pop\n      jump\t// out\n        /* \"core/CipherZeroCore.sol\":444:477  IFileRegistry public fileRegistry */\n    tag_40:\n      0x02\n      0x00\n      swap1\n      sload\n      swap1\n      0x0100\n      exp\n      swap1\n      div\n      0xffffffffffffffffffffffffffffffffffffffff\n      and\n      dup2\n      jump\t// out\n        /* \"core/CipherZeroCore.sol\":4780:5003  function updateStorage(address _newStorage) external onlyOwner {... */\n    tag_45:\n        /* \"@openzeppelin/contracts/access/Ownable.sol\":1531:1544  _checkOwner() */\n      tag_94\n        /* \"@openzeppelin/contracts/access/Ownable.sol\":1531:1542  _checkOwner */\n      tag_75\n        /* \"@openzeppelin/contracts/access/Ownable.sol\":1531:1544  _checkOwner() */\n      jump\t// in\n    tag_94:\n        /* \"core/CipherZeroCore.sol\":4884:4885  0 */\n      0x00\n        /* \"core/CipherZeroCore.sol\":4861:4886  _newStorage != address(0) */\n      0xffffffffffffffffffffffffffffffffffffffff\n      and\n        /* \"core/CipherZeroCore.sol\":4861:4872  _newStorage */\n      dup2\n        /* \"core/CipherZeroCore.sol\":4861:4886  _newStorage != address(0) */\n      0xffffffffffffffffffffffffffffffffffffffff\n      and\n      sub\n        /* \"core/CipherZeroCore.sol\":4853:4914  require(_newStorage != address(0), \"Invalid Storage address\") */\n      tag_96\n      jumpi\n      mload(0x40)\n      0x08c379a000000000000000000000000000000000000000000000000000000000\n      dup2\n      mstore\n      0x04\n      add\n      tag_97\n      swap1\n      tag_98\n      jump\t// in\n    tag_97:\n      mload(0x40)\n      dup1\n      swap2\n      sub\n      swap1\n      revert\n    tag_96:\n        /* \"core/CipherZeroCore.sol\":4959:4970  _newStorage */\n      dup1\n        /* \"core/CipherZeroCore.sol\":4924:4939  storageContract */\n      0x04\n      0x00\n        /* \"core/CipherZeroCore.sol\":4924:4971  storageContract = IStorageContract(_newStorage) */\n      0x0100\n      exp\n      dup2\n      sload\n      dup2\n      0xffffffffffffffffffffffffffffffffffffffff\n      mul\n      not\n      and\n      swap1\n      dup4\n      0xffffffffffffffffffffffffffffffffffffffff\n      and\n      mul\n      or\n      swap1\n      sstore\n      pop\n        /* \"core/CipherZeroCore.sol\":4780:5003  function updateStorage(address _newStorage) external onlyOwner {... */\n      pop\n      jump\t// out\n        /* \"@openzeppelin/contracts/access/Ownable.sol\":2293:2394  function renounceOwnership() public virtual onlyOwner {... */\n    tag_47:\n        /* \"@openzeppelin/contracts/access/Ownable.sol\":1531:1544  _checkOwner() */\n      tag_100\n        /* \"@openzeppelin/contracts/access/Ownable.sol\":1531:1542  _checkOwner */\n      tag_75\n        /* \"@openzeppelin/contracts/access/Ownable.sol\":1531:1544  _checkOwner() */\n      jump\t// in\n    tag_100:\n        /* \"@openzeppelin/contracts/access/Ownable.sol\":2357:2387  _transferOwnership(address(0)) */\n      tag_102\n        /* \"@openzeppelin/contracts/access/Ownable.sol\":2384:2385  0 */\n      0x00\n        /* \"@openzeppelin/contracts/access/Ownable.sol\":2357:2375  _transferOwnership */\n      tag_103\n        /* \"@openzeppelin/contracts/access/Ownable.sol\":2357:2387  _transferOwnership(address(0)) */\n      jump\t// in\n    tag_102:\n        /* \"@openzeppelin/contracts/access/Ownable.sol\":2293:2394  function renounceOwnership() public virtual onlyOwner {... */\n      jump\t// out\n        /* \"@openzeppelin/contracts/access/Ownable.sol\":1638:1723  function owner() public view virtual returns (address) {... */\n    tag_49:\n        /* \"@openzeppelin/contracts/access/Ownable.sol\":1684:1691  address */\n      0x00\n        /* \"@openzeppelin/contracts/access/Ownable.sol\":1710:1716  _owner */\n      dup1\n      0x00\n      swap1\n      sload\n      swap1\n      0x0100\n      exp\n      swap1\n      div\n      0xffffffffffffffffffffffffffffffffffffffff\n      and\n        /* \"@openzeppelin/contracts/access/Ownable.sol\":1703:1716  return _owner */\n      swap1\n      pop\n        /* \"@openzeppelin/contracts/access/Ownable.sol\":1638:1723  function owner() public view virtual returns (address) {... */\n      swap1\n      jump\t// out\n        /* \"core/CipherZeroCore.sol\":2838:3391  function downloadFile(bytes32 _fileHash) ... */\n    tag_55:\n        /* \"core/CipherZeroCore.sol\":2965:2977  bytes memory */\n      0x60\n        /* \"core/CipherZeroCore.sol\":1620:1635  registeredUsers */\n      0x05\n        /* \"core/CipherZeroCore.sol\":1620:1647  registeredUsers[msg.sender] */\n      0x00\n        /* \"core/CipherZeroCore.sol\":1636:1646  msg.sender */\n      caller\n        /* \"core/CipherZeroCore.sol\":1620:1647  registeredUsers[msg.sender] */\n      0xffffffffffffffffffffffffffffffffffffffff\n      and\n      0xffffffffffffffffffffffffffffffffffffffff\n      and\n      dup2\n      mstore\n      0x20\n      add\n      swap1\n      dup2\n      mstore\n      0x20\n      add\n      0x00\n      keccak256\n      0x00\n      swap1\n      sload\n      swap1\n      0x0100\n      exp\n      swap1\n      div\n      0xff\n      and\n        /* \"core/CipherZeroCore.sol\":1612:1671  require(registeredUsers[msg.sender], \"User not registered\") */\n      tag_106\n      jumpi\n      mload(0x40)\n      0x08c379a000000000000000000000000000000000000000000000000000000000\n      dup2\n      mstore\n      0x04\n      add\n      tag_107\n      swap1\n      tag_108\n      jump\t// in\n    tag_107:\n      mload(0x40)\n      dup1\n      swap2\n      sub\n      swap1\n      revert\n    tag_106:\n        /* \"@openzeppelin/contracts/utils/ReentrancyGuard.sol\":2500:2521  _nonReentrantBefore() */\n      tag_110\n        /* \"@openzeppelin/contracts/utils/ReentrancyGuard.sol\":2500:2519  _nonReentrantBefore */\n      tag_111\n        /* \"@openzeppelin/contracts/utils/ReentrancyGuard.sol\":2500:2521  _nonReentrantBefore() */\n      jump\t// in\n    tag_110:\n        /* \"core/CipherZeroCore.sol\":3001:3013  fileRegistry */\n      0x02\n      0x00\n      swap1\n      sload\n      swap1\n      0x0100\n      exp\n      swap1\n      div\n      0xffffffffffffffffffffffffffffffffffffffff\n      and\n        /* \"core/CipherZeroCore.sol\":3001:3025  fileRegistry.checkAccess */\n      0xffffffffffffffffffffffffffffffffffffffff\n      and\n      0x3e1fd0da\n        /* \"core/CipherZeroCore.sol\":3026:3035  _fileHash */\n      dup4\n        /* \"core/CipherZeroCore.sol\":3037:3047  msg.sender */\n      caller\n        /* \"core/CipherZeroCore.sol\":3001:3048  fileRegistry.checkAccess(_fileHash, msg.sender) */\n      mload(0x40)\n      dup4\n      0xffffffff\n      and\n      0xe0\n      shl\n      dup2\n      mstore\n      0x04\n      add\n      tag_113\n      swap3\n      swap2\n      swap1\n      tag_114\n      jump\t// in\n    tag_113:\n      0x20\n      mload(0x40)\n      dup1\n      dup4\n      sub\n      dup2\n      dup7\n      gas\n      staticcall\n      iszero\n      dup1\n      iszero\n      tag_116\n      jumpi\n      returndatasize\n      0x00\n      dup1\n      returndatacopy\n      revert(0x00, returndatasize)\n    tag_116:\n      pop\n      pop\n      pop\n      pop\n      mload(0x40)\n      returndatasize\n      not(0x1f)\n      0x1f\n      dup3\n      add\n      and\n      dup3\n      add\n      dup1\n      0x40\n      mstore\n      pop\n      dup2\n      add\n      swap1\n      tag_117\n      swap2\n      swap1\n      tag_118\n      jump\t// in\n    tag_117:\n        /* \"core/CipherZeroCore.sol\":2993:3091  require(fileRegistry.checkAccess(_fileHash, msg.sender), \"User does not have access to this file\") */\n      tag_119\n      jumpi\n      mload(0x40)\n      0x08c379a000000000000000000000000000000000000000000000000000000000\n      dup2\n      mstore\n      0x04\n      add\n      tag_120\n      swap1\n      tag_121\n      jump\t// in\n    tag_120:\n      mload(0x40)\n      dup1\n      swap2\n      sub\n      swap1\n      revert\n    tag_119:\n        /* \"core/CipherZeroCore.sol\":3109:3121  fileRegistry */\n      0x02\n      0x00\n      swap1\n      sload\n      swap1\n      0x0100\n      exp\n      swap1\n      div\n      0xffffffffffffffffffffffffffffffffffffffff\n      and\n        /* \"core/CipherZeroCore.sol\":3109:3133  fileRegistry.getFileInfo */\n      0xffffffffffffffffffffffffffffffffffffffff\n      and\n      0x52f7347b\n        /* \"core/CipherZeroCore.sol\":3134:3143  _fileHash */\n      dup4\n        /* \"core/CipherZeroCore.sol\":3109:3144  fileRegistry.getFileInfo(_fileHash) */\n      mload(0x40)\n      dup3\n      0xffffffff\n      and\n      0xe0\n      shl\n      dup2\n      mstore\n      0x04\n      add\n      tag_122\n      swap2\n      swap1\n      tag_123\n      jump\t// in\n    tag_122:\n      0xe0\n      mload(0x40)\n      dup1\n      dup4\n      sub\n      dup2\n      dup7\n      gas\n      staticcall\n      iszero\n      dup1\n      iszero\n      tag_125\n      jumpi\n      returndatasize\n      0x00\n      dup1\n      returndatacopy\n      revert(0x00, returndatasize)\n    tag_125:\n      pop\n      pop\n      pop\n      pop\n      mload(0x40)\n      returndatasize\n      not(0x1f)\n      0x1f\n      dup3\n      add\n      and\n      dup3\n      add\n      dup1\n      0x40\n      mstore\n      pop\n      dup2\n      add\n      swap1\n      tag_126\n      swap2\n      swap1\n      tag_127\n      jump\t// in\n    tag_126:\n        /* \"core/CipherZeroCore.sol\":3109:3151  fileRegistry.getFileInfo(_fileHash).exists */\n      0xc0\n      add\n      mload\n        /* \"core/CipherZeroCore.sol\":3101:3175  require(fileRegistry.getFileInfo(_fileHash).exists, \"File does not exist\") */\n      tag_128\n      jumpi\n      mload(0x40)\n      0x08c379a000000000000000000000000000000000000000000000000000000000\n      dup2\n      mstore\n      0x04\n      add\n      tag_129\n      swap1\n      tag_130\n      jump\t// in\n    tag_129:\n      mload(0x40)\n      dup1\n      swap2\n      sub\n      swap1\n      revert\n    tag_128:\n        /* \"core/CipherZeroCore.sol\":3186:3207  bytes memory fileData */\n      0x00\n        /* \"core/CipherZeroCore.sol\":3210:3225  storageContract */\n      0x04\n      0x00\n      swap1\n      sload\n      swap1\n      0x0100\n      exp\n      swap1\n      div\n      0xffffffffffffffffffffffffffffffffffffffff\n      and\n        /* \"core/CipherZeroCore.sol\":3210:3238  storageContract.retrieveData */\n      0xffffffffffffffffffffffffffffffffffffffff\n      and\n      0x45e12b5d\n        /* \"core/CipherZeroCore.sol\":3239:3248  _fileHash */\n      dup5\n        /* \"core/CipherZeroCore.sol\":3210:3249  storageContract.retrieveData(_fileHash) */\n      mload(0x40)\n      dup3\n      0xffffffff\n      and\n      0xe0\n      shl\n      dup2\n      mstore\n      0x04\n      add\n      tag_131\n      swap2\n      swap1\n      tag_123\n      jump\t// in\n    tag_131:\n      0x00\n      mload(0x40)\n      dup1\n      dup4\n      sub\n      dup2\n      dup7\n      gas\n      staticcall\n      iszero\n      dup1\n      iszero\n      tag_133\n      jumpi\n      returndatasize\n      0x00\n      dup1\n      returndatacopy\n      revert(0x00, returndatasize)\n    tag_133:\n      pop\n      pop\n      pop\n      pop\n      mload(0x40)\n      returndatasize\n      0x00\n      dup3\n      returndatacopy\n      returndatasize\n      not(0x1f)\n      0x1f\n      dup3\n      add\n      and\n      dup3\n      add\n      dup1\n      0x40\n      mstore\n      pop\n      dup2\n      add\n      swap1\n      tag_134\n      swap2\n      swap1\n      tag_135\n      jump\t// in\n    tag_134:\n        /* \"core/CipherZeroCore.sol\":3186:3249  bytes memory fileData = storageContract.retrieveData(_fileHash) */\n      swap1\n      pop\n        /* \"core/CipherZeroCore.sol\":3285:3286  0 */\n      0x00\n        /* \"core/CipherZeroCore.sol\":3267:3275  fileData */\n      dup2\n        /* \"core/CipherZeroCore.sol\":3267:3282  fileData.length */\n      mload\n        /* \"core/CipherZeroCore.sol\":3267:3286  fileData.length > 0 */\n      gt\n        /* \"core/CipherZeroCore.sol\":3259:3306  require(fileData.length > 0, \"Empty file data\") */\n      tag_136\n      jumpi\n      mload(0x40)\n      0x08c379a000000000000000000000000000000000000000000000000000000000\n      dup2\n      mstore\n      0x04\n      add\n      tag_137\n      swap1\n      tag_138\n      jump\t// in\n    tag_137:\n      mload(0x40)\n      dup1\n      swap2\n      sub\n      swap1\n      revert\n    tag_136:\n        /* \"core/CipherZeroCore.sol\":3349:3358  _fileHash */\n      dup3\n        /* \"core/CipherZeroCore.sol\":3337:3347  msg.sender */\n      caller\n        /* \"core/CipherZeroCore.sol\":3322:3359  FileDownloaded(msg.sender, _fileHash) */\n      0xffffffffffffffffffffffffffffffffffffffff\n      and\n      0xec4bc83aaec04673c1a3b050f7268877ba23ab4bd3db6616c60b82c411132a60\n      mload(0x40)\n      mload(0x40)\n      dup1\n      swap2\n      sub\n      swap1\n      log3\n        /* \"core/CipherZeroCore.sol\":3376:3384  fileData */\n      dup1\n        /* \"core/CipherZeroCore.sol\":3369:3384  return fileData */\n      swap2\n      pop\n      pop\n        /* \"@openzeppelin/contracts/utils/ReentrancyGuard.sol\":2542:2562  _nonReentrantAfter() */\n      tag_139\n        /* \"@openzeppelin/contracts/utils/ReentrancyGuard.sol\":2542:2560  _nonReentrantAfter */\n      tag_140\n        /* \"@openzeppelin/contracts/utils/ReentrancyGuard.sol\":2542:2562  _nonReentrantAfter() */\n      jump\t// in\n    tag_139:\n        /* \"core/CipherZeroCore.sol\":2838:3391  function downloadFile(bytes32 _fileHash) ... */\n      swap2\n      swap1\n      pop\n      jump\t// out\n        /* \"core/CipherZeroCore.sol\":3397:3926  function sendMessage(... */\n    tag_61:\n        /* \"core/CipherZeroCore.sol\":1620:1635  registeredUsers */\n      0x05\n        /* \"core/CipherZeroCore.sol\":1620:1647  registeredUsers[msg.sender] */\n      0x00\n        /* \"core/CipherZeroCore.sol\":1636:1646  msg.sender */\n      caller\n        /* \"core/CipherZeroCore.sol\":1620:1647  registeredUsers[msg.sender] */\n      0xffffffffffffffffffffffffffffffffffffffff\n      and\n      0xffffffffffffffffffffffffffffffffffffffff\n      and\n      dup2\n      mstore\n      0x20\n      add\n      swap1\n      dup2\n      mstore\n      0x20\n      add\n      0x00\n      keccak256\n      0x00\n      swap1\n      sload\n      swap1\n      0x0100\n      exp\n      swap1\n      div\n      0xff\n      and\n        /* \"core/CipherZeroCore.sol\":1612:1671  require(registeredUsers[msg.sender], \"User not registered\") */\n      tag_142\n      jumpi\n      mload(0x40)\n      0x08c379a000000000000000000000000000000000000000000000000000000000\n      dup2\n      mstore\n      0x04\n      add\n      tag_143\n      swap1\n      tag_108\n      jump\t// in\n    tag_143:\n      mload(0x40)\n      dup1\n      swap2\n      sub\n      swap1\n      revert\n    tag_142:\n        /* \"@openzeppelin/contracts/utils/ReentrancyGuard.sol\":2500:2521  _nonReentrantBefore() */\n      tag_145\n        /* \"@openzeppelin/contracts/utils/ReentrancyGuard.sol\":2500:2519  _nonReentrantBefore */\n      tag_111\n        /* \"@openzeppelin/contracts/utils/ReentrancyGuard.sol\":2500:2521  _nonReentrantBefore() */\n      jump\t// in\n    tag_145:\n        /* \"core/CipherZeroCore.sol\":3608:3609  0 */\n      0x00\n        /* \"core/CipherZeroCore.sol\":3586:3610  _recipient != address(0) */\n      0xffffffffffffffffffffffffffffffffffffffff\n      and\n        /* \"core/CipherZeroCore.sol\":3586:3596  _recipient */\n      dup4\n        /* \"core/CipherZeroCore.sol\":3586:3610  _recipient != address(0) */\n      0xffffffffffffffffffffffffffffffffffffffff\n      and\n      sub\n        /* \"core/CipherZeroCore.sol\":3578:3640  require(_recipient != address(0), \"Invalid recipient address\") */\n      tag_147\n      jumpi\n      mload(0x40)\n      0x08c379a000000000000000000000000000000000000000000000000000000000\n      dup2\n      mstore\n      0x04\n      add\n      tag_148\n      swap1\n      tag_149\n      jump\t// in\n    tag_148:\n      mload(0x40)\n      dup1\n      swap2\n      sub\n      swap1\n      revert\n    tag_147:\n        /* \"core/CipherZeroCore.sol\":3685:3686  0 */\n      0x00\n        /* \"core/CipherZeroCore.sol\":3658:3675  _encryptedMessage */\n      dup3\n      dup3\n        /* \"core/CipherZeroCore.sol\":3658:3682  _encryptedMessage.length */\n      swap1\n      pop\n        /* \"core/CipherZeroCore.sol\":3658:3686  _encryptedMessage.length > 0 */\n      gt\n        /* \"core/CipherZeroCore.sol\":3650:3714  require(_encryptedMessage.length > 0, \"Message cannot be empty\") */\n      tag_150\n      jumpi\n      mload(0x40)\n      0x08c379a000000000000000000000000000000000000000000000000000000000\n      dup2\n      mstore\n      0x04\n      add\n      tag_151\n      swap1\n      tag_152\n      jump\t// in\n    tag_151:\n      mload(0x40)\n      dup1\n      swap2\n      sub\n      swap1\n      revert\n    tag_150:\n        /* \"core/CipherZeroCore.sol\":3725:3744  bytes32 messageHash */\n      0x00\n        /* \"core/CipherZeroCore.sol\":3774:3791  _encryptedMessage */\n      dup3\n      dup3\n        /* \"core/CipherZeroCore.sol\":3757:3792  abi.encodePacked(_encryptedMessage) */\n      add(0x20, mload(0x40))\n      tag_153\n      swap3\n      swap2\n      swap1\n      tag_154\n      jump\t// in\n    tag_153:\n      mload(0x40)\n      0x20\n      dup2\n      dup4\n      sub\n      sub\n      dup2\n      mstore\n      swap1\n      0x40\n      mstore\n        /* \"core/CipherZeroCore.sol\":3747:3793  keccak256(abi.encodePacked(_encryptedMessage)) */\n      dup1\n      mload\n      swap1\n      0x20\n      add\n      keccak256\n        /* \"core/CipherZeroCore.sol\":3725:3793  bytes32 messageHash = keccak256(abi.encodePacked(_encryptedMessage)) */\n      swap1\n      pop\n        /* \"core/CipherZeroCore.sol\":3803:3812  messaging */\n      0x03\n      0x00\n      swap1\n      sload\n      swap1\n      0x0100\n      exp\n      swap1\n      div\n      0xffffffffffffffffffffffffffffffffffffffff\n      and\n        /* \"core/CipherZeroCore.sol\":3803:3824  messaging.sendMessage */\n      0xffffffffffffffffffffffffffffffffffffffff\n      and\n      0x2c4ac770\n        /* \"core/CipherZeroCore.sol\":3825:3835  _recipient */\n      dup6\n        /* \"core/CipherZeroCore.sol\":3837:3854  _encryptedMessage */\n      dup6\n      dup6\n        /* \"core/CipherZeroCore.sol\":3856:3867  messageHash */\n      dup6\n        /* \"core/CipherZeroCore.sol\":3803:3868  messaging.sendMessage(_recipient, _encryptedMessage, messageHash) */\n      mload(0x40)\n      dup6\n      0xffffffff\n      and\n      0xe0\n      shl\n      dup2\n      mstore\n      0x04\n      add\n      tag_155\n      swap5\n      swap4\n      swap3\n      swap2\n      swap1\n      tag_156\n      jump\t// in\n    tag_155:\n      0x00\n      mload(0x40)\n      dup1\n      dup4\n      sub\n      dup2\n      0x00\n      dup8\n      dup1\n      extcodesize\n      iszero\n      dup1\n      iszero\n      tag_157\n      jumpi\n      0x00\n      dup1\n      revert\n    tag_157:\n      pop\n      gas\n      call\n      iszero\n      dup1\n      iszero\n      tag_159\n      jumpi\n      returndatasize\n      0x00\n      dup1\n      returndatacopy\n      revert(0x00, returndatasize)\n    tag_159:\n      pop\n      pop\n      pop\n      pop\n        /* \"core/CipherZeroCore.sol\":3908:3918  _recipient */\n      dup4\n        /* \"core/CipherZeroCore.sol\":3884:3919  MessageSent(msg.sender, _recipient) */\n      0xffffffffffffffffffffffffffffffffffffffff\n      and\n        /* \"core/CipherZeroCore.sol\":3896:3906  msg.sender */\n      caller\n        /* \"core/CipherZeroCore.sol\":3884:3919  MessageSent(msg.sender, _recipient) */\n      0xffffffffffffffffffffffffffffffffffffffff\n      and\n      0x921d068ef716f8cffdc14d917b9e3b77c957cd11d308c2c4f92732cc0190f861\n      mload(0x40)\n      mload(0x40)\n      dup1\n      swap2\n      sub\n      swap1\n      log3\n        /* \"core/CipherZeroCore.sol\":3568:3926  {... */\n      pop\n        /* \"@openzeppelin/contracts/utils/ReentrancyGuard.sol\":2542:2562  _nonReentrantAfter() */\n      tag_160\n        /* \"@openzeppelin/contracts/utils/ReentrancyGuard.sol\":2542:2560  _nonReentrantAfter */\n      tag_140\n        /* \"@openzeppelin/contracts/utils/ReentrancyGuard.sol\":2542:2562  _nonReentrantAfter() */\n      jump\t// in\n    tag_160:\n        /* \"core/CipherZeroCore.sol\":3397:3926  function sendMessage(... */\n      pop\n      pop\n      pop\n      jump\t// out\n        /* \"core/CipherZeroCore.sol\":2234:2832  function uploadFile(... */\n    tag_65:\n        /* \"core/CipherZeroCore.sol\":1620:1635  registeredUsers */\n      0x05\n        /* \"core/CipherZeroCore.sol\":1620:1647  registeredUsers[msg.sender] */\n      0x00\n        /* \"core/CipherZeroCore.sol\":1636:1646  msg.sender */\n      caller\n        /* \"core/CipherZeroCore.sol\":1620:1647  registeredUsers[msg.sender] */\n      0xffffffffffffffffffffffffffffffffffffffff\n      and\n      0xffffffffffffffffffffffffffffffffffffffff\n      and\n      dup2\n      mstore\n      0x20\n      add\n      swap1\n      dup2\n      mstore\n      0x20\n      add\n      0x00\n      keccak256\n      0x00\n      swap1\n      sload\n      swap1\n      0x0100\n      exp\n      swap1\n      div\n      0xff\n      and\n        /* \"core/CipherZeroCore.sol\":1612:1671  require(registeredUsers[msg.sender], \"User not registered\") */\n      tag_162\n      jumpi\n      mload(0x40)\n      0x08c379a000000000000000000000000000000000000000000000000000000000\n      dup2\n      mstore\n      0x04\n      add\n      tag_163\n      swap1\n      tag_108\n      jump\t// in\n    tag_163:\n      mload(0x40)\n      dup1\n      swap2\n      sub\n      swap1\n      revert\n    tag_162:\n        /* \"@openzeppelin/contracts/utils/ReentrancyGuard.sol\":2500:2521  _nonReentrantBefore() */\n      tag_165\n        /* \"@openzeppelin/contracts/utils/ReentrancyGuard.sol\":2500:2519  _nonReentrantBefore */\n      tag_111\n        /* \"@openzeppelin/contracts/utils/ReentrancyGuard.sol\":2500:2521  _nonReentrantBefore() */\n      jump\t// in\n    tag_165:\n        /* \"core/CipherZeroCore.sol\":2454:2455  0 */\n      0x00\n        /* \"core/CipherZeroCore.sol\":2446:2456  bytes32(0) */\n      dup1\n      shl\n        /* \"core/CipherZeroCore.sol\":2433:2442  _fileHash */\n      dup5\n        /* \"core/CipherZeroCore.sol\":2433:2456  _fileHash != bytes32(0) */\n      sub\n        /* \"core/CipherZeroCore.sol\":2425:2478  require(_fileHash != bytes32(0), \"Invalid file hash\") */\n      tag_167\n      jumpi\n      mload(0x40)\n      0x08c379a000000000000000000000000000000000000000000000000000000000\n      dup2\n      mstore\n      0x04\n      add\n      tag_168\n      swap1\n      tag_169\n      jump\t// in\n    tag_168:\n      mload(0x40)\n      dup1\n      swap2\n      sub\n      swap1\n      revert\n    tag_167:\n        /* \"core/CipherZeroCore.sol\":2504:2505  0 */\n      0x00\n        /* \"core/CipherZeroCore.sol\":2496:2501  _size */\n      dup4\n        /* \"core/CipherZeroCore.sol\":2496:2505  _size > 0 */\n      gt\n        /* \"core/CipherZeroCore.sol\":2488:2542  require(_size > 0, \"File size must be greater than 0\") */\n      tag_170\n      jumpi\n      mload(0x40)\n      0x08c379a000000000000000000000000000000000000000000000000000000000\n      dup2\n      mstore\n      0x04\n      add\n      tag_171\n      swap1\n      tag_172\n      jump\t// in\n    tag_171:\n      mload(0x40)\n      dup1\n      swap2\n      sub\n      swap1\n      revert\n    tag_170:\n        /* \"core/CipherZeroCore.sol\":2575:2576  0 */\n      0x00\n        /* \"core/CipherZeroCore.sol\":2560:2565  _data */\n      dup3\n      dup3\n        /* \"core/CipherZeroCore.sol\":2560:2572  _data.length */\n      swap1\n      pop\n        /* \"core/CipherZeroCore.sol\":2560:2576  _data.length > 0 */\n      gt\n        /* \"core/CipherZeroCore.sol\":2552:2596  require(_data.length > 0, \"Empty file data\") */\n      tag_173\n      jumpi\n      mload(0x40)\n      0x08c379a000000000000000000000000000000000000000000000000000000000\n      dup2\n      mstore\n      0x04\n      add\n      tag_174\n      swap1\n      tag_138\n      jump\t// in\n    tag_174:\n      mload(0x40)\n      dup1\n      swap2\n      sub\n      swap1\n      revert\n    tag_173:\n        /* \"core/CipherZeroCore.sol\":2630:2635  _size */\n      dup3\n        /* \"core/CipherZeroCore.sol\":2614:2619  _data */\n      dup3\n      dup3\n        /* \"core/CipherZeroCore.sol\":2614:2626  _data.length */\n      swap1\n      pop\n        /* \"core/CipherZeroCore.sol\":2614:2635  _data.length == _size */\n      eq\n        /* \"core/CipherZeroCore.sol\":2606:2653  require(_data.length == _size, \"Size mismatch\") */\n      tag_175\n      jumpi\n      mload(0x40)\n      0x08c379a000000000000000000000000000000000000000000000000000000000\n      dup2\n      mstore\n      0x04\n      add\n      tag_176\n      swap1\n      tag_177\n      jump\t// in\n    tag_176:\n      mload(0x40)\n      dup1\n      swap2\n      sub\n      swap1\n      revert\n    tag_175:\n        /* \"core/CipherZeroCore.sol\":2664:2676  fileRegistry */\n      0x02\n      0x00\n      swap1\n      sload\n      swap1\n      0x0100\n      exp\n      swap1\n      div\n      0xffffffffffffffffffffffffffffffffffffffff\n      and\n        /* \"core/CipherZeroCore.sol\":2664:2684  fileRegistry.addFile */\n      0xffffffffffffffffffffffffffffffffffffffff\n      and\n      0xba7e880b\n        /* \"core/CipherZeroCore.sol\":2685:2694  _fileHash */\n      dup6\n        /* \"core/CipherZeroCore.sol\":2696:2706  msg.sender */\n      caller\n        /* \"core/CipherZeroCore.sol\":2708:2713  _size */\n      dup7\n        /* \"core/CipherZeroCore.sol\":2664:2714  fileRegistry.addFile(_fileHash, msg.sender, _size) */\n      mload(0x40)\n      dup5\n      0xffffffff\n      and\n      0xe0\n      shl\n      dup2\n      mstore\n      0x04\n      add\n      tag_178\n      swap4\n      swap3\n      swap2\n      swap1\n      tag_179\n      jump\t// in\n    tag_178:\n      0x00\n      mload(0x40)\n      dup1\n      dup4\n      sub\n      dup2\n      0x00\n      dup8\n      dup1\n      extcodesize\n      iszero\n      dup1\n      iszero\n      tag_180\n      jumpi\n      0x00\n      dup1\n      revert\n    tag_180:\n      pop\n      gas\n      call\n      iszero\n      dup1\n      iszero\n      tag_182\n      jumpi\n      returndatasize\n      0x00\n      dup1\n      returndatacopy\n      revert(0x00, returndatasize)\n    tag_182:\n      pop\n      pop\n      pop\n      pop\n        /* \"core/CipherZeroCore.sol\":2724:2739  storageContract */\n      0x04\n      0x00\n      swap1\n      sload\n      swap1\n      0x0100\n      exp\n      swap1\n      div\n      0xffffffffffffffffffffffffffffffffffffffff\n      and\n        /* \"core/CipherZeroCore.sol\":2724:2749  storageContract.storeData */\n      0xffffffffffffffffffffffffffffffffffffffff\n      and\n      0x9730174d\n        /* \"core/CipherZeroCore.sol\":2750:2759  _fileHash */\n      dup6\n        /* \"core/CipherZeroCore.sol\":2761:2766  _data */\n      dup5\n      dup5\n        /* \"core/CipherZeroCore.sol\":2724:2767  storageContract.storeData(_fileHash, _data) */\n      mload(0x40)\n      dup5\n      0xffffffff\n      and\n      0xe0\n      shl\n      dup2\n      mstore\n      0x04\n      add\n      tag_183\n      swap4\n      swap3\n      swap2\n      swap1\n      tag_184\n      jump\t// in\n    tag_183:\n      0x00\n      mload(0x40)\n      dup1\n      dup4\n      sub\n      dup2\n      0x00\n      dup8\n      dup1\n      extcodesize\n      iszero\n      dup1\n      iszero\n      tag_185\n      jumpi\n      0x00\n      dup1\n      revert\n    tag_185:\n      pop\n      gas\n      call\n      iszero\n      dup1\n      iszero\n      tag_187\n      jumpi\n      returndatasize\n      0x00\n      dup1\n      returndatacopy\n      revert(0x00, returndatasize)\n    tag_187:\n      pop\n      pop\n      pop\n      pop\n        /* \"core/CipherZeroCore.sol\":2808:2817  _fileHash */\n      dup4\n        /* \"core/CipherZeroCore.sol\":2796:2806  msg.sender */\n      caller\n        /* \"core/CipherZeroCore.sol\":2783:2825  FileUploaded(msg.sender, _fileHash, _size) */\n      0xffffffffffffffffffffffffffffffffffffffff\n      and\n      0x1a28cdb2c58665ac87f664863088c848af994bbe09d700353f23d8ad1aca1f68\n        /* \"core/CipherZeroCore.sol\":2819:2824  _size */\n      dup6\n        /* \"core/CipherZeroCore.sol\":2783:2825  FileUploaded(msg.sender, _fileHash, _size) */\n      mload(0x40)\n      tag_188\n      swap2\n      swap1\n      tag_189\n      jump\t// in\n    tag_188:\n      mload(0x40)\n      dup1\n      swap2\n      sub\n      swap1\n      log3\n        /* \"@openzeppelin/contracts/utils/ReentrancyGuard.sol\":2542:2562  _nonReentrantAfter() */\n      tag_190\n        /* \"@openzeppelin/contracts/utils/ReentrancyGuard.sol\":2542:2560  _nonReentrantAfter */\n      tag_140\n        /* \"@openzeppelin/contracts/utils/ReentrancyGuard.sol\":2542:2562  _nonReentrantAfter() */\n      jump\t// in\n    tag_190:\n        /* \"core/CipherZeroCore.sol\":2234:2832  function uploadFile(... */\n      pop\n      pop\n      pop\n      pop\n      jump\t// out\n        /* \"@openzeppelin/contracts/access/Ownable.sol\":2543:2758  function transferOwnership(address newOwner) public virtual onlyOwner {... */\n    tag_68:\n        /* \"@openzeppelin/contracts/access/Ownable.sol\":1531:1544  _checkOwner() */\n      tag_192\n        /* \"@openzeppelin/contracts/access/Ownable.sol\":1531:1542  _checkOwner */\n      tag_75\n        /* \"@openzeppelin/contracts/access/Ownable.sol\":1531:1544  _checkOwner() */\n      jump\t// in\n    tag_192:\n        /* \"@openzeppelin/contracts/access/Ownable.sol\":2647:2648  0 */\n      0x00\n        /* \"@openzeppelin/contracts/access/Ownable.sol\":2627:2649  newOwner == address(0) */\n      0xffffffffffffffffffffffffffffffffffffffff\n      and\n        /* \"@openzeppelin/contracts/access/Ownable.sol\":2627:2635  newOwner */\n      dup2\n        /* \"@openzeppelin/contracts/access/Ownable.sol\":2627:2649  newOwner == address(0) */\n      0xffffffffffffffffffffffffffffffffffffffff\n      and\n      sub\n        /* \"@openzeppelin/contracts/access/Ownable.sol\":2623:2714  if (newOwner == address(0)) {... */\n      tag_194\n      jumpi\n        /* \"@openzeppelin/contracts/access/Ownable.sol\":2700:2701  0 */\n      0x00\n        /* \"@openzeppelin/contracts/access/Ownable.sol\":2672:2703  OwnableInvalidOwner(address(0)) */\n      mload(0x40)\n      0x1e4fbdf700000000000000000000000000000000000000000000000000000000\n      dup2\n      mstore\n      0x04\n      add\n      tag_195\n      swap2\n      swap1\n      tag_51\n      jump\t// in\n    tag_195:\n      mload(0x40)\n      dup1\n      swap2\n      sub\n      swap1\n      revert\n        /* \"@openzeppelin/contracts/access/Ownable.sol\":2623:2714  if (newOwner == address(0)) {... */\n    tag_194:\n        /* \"@openzeppelin/contracts/access/Ownable.sol\":2723:2751  _transferOwnership(newOwner) */\n      tag_196\n        /* \"@openzeppelin/contracts/access/Ownable.sol\":2742:2750  newOwner */\n      dup2\n        /* \"@openzeppelin/contracts/access/Ownable.sol\":2723:2741  _transferOwnership */\n      tag_103\n        /* \"@openzeppelin/contracts/access/Ownable.sol\":2723:2751  _transferOwnership(newOwner) */\n      jump\t// in\n    tag_196:\n        /* \"@openzeppelin/contracts/access/Ownable.sol\":2543:2758  function transferOwnership(address newOwner) public virtual onlyOwner {... */\n      pop\n      jump\t// out\n        /* \"core/CipherZeroCore.sol\":483:510  IMessaging public messaging */\n    tag_70:\n      0x03\n      0x00\n      swap1\n      sload\n      swap1\n      0x0100\n      exp\n      swap1\n      div\n      0xffffffffffffffffffffffffffffffffffffffff\n      and\n      dup2\n      jump\t// out\n        /* \"@openzeppelin/contracts/access/Ownable.sol\":1796:1958  function _checkOwner() internal view virtual {... */\n    tag_75:\n        /* \"@openzeppelin/contracts/access/Ownable.sol\":1866:1878  _msgSender() */\n      tag_198\n        /* \"@openzeppelin/contracts/access/Ownable.sol\":1866:1876  _msgSender */\n      tag_199\n        /* \"@openzeppelin/contracts/access/Ownable.sol\":1866:1878  _msgSender() */\n      jump\t// in\n    tag_198:\n        /* \"@openzeppelin/contracts/access/Ownable.sol\":1855:1878  owner() != _msgSender() */\n      0xffffffffffffffffffffffffffffffffffffffff\n      and\n        /* \"@openzeppelin/contracts/access/Ownable.sol\":1855:1862  owner() */\n      tag_200\n        /* \"@openzeppelin/contracts/access/Ownable.sol\":1855:1860  owner */\n      tag_49\n        /* \"@openzeppelin/contracts/access/Ownable.sol\":1855:1862  owner() */\n      jump\t// in\n    tag_200:\n        /* \"@openzeppelin/contracts/access/Ownable.sol\":1855:1878  owner() != _msgSender() */\n      0xffffffffffffffffffffffffffffffffffffffff\n      and\n      eq\n        /* \"@openzeppelin/contracts/access/Ownable.sol\":1851:1952  if (owner() != _msgSender()) {... */\n      tag_201\n      jumpi\n        /* \"@openzeppelin/contracts/access/Ownable.sol\":1928:1940  _msgSender() */\n      tag_202\n        /* \"@openzeppelin/contracts/access/Ownable.sol\":1928:1938  _msgSender */\n      tag_199\n        /* \"@openzeppelin/contracts/access/Ownable.sol\":1928:1940  _msgSender() */\n      jump\t// in\n    tag_202:\n        /* \"@openzeppelin/contracts/access/Ownable.sol\":1901:1941  OwnableUnauthorizedAccount(_msgSender()) */\n      mload(0x40)\n      0x118cdaa700000000000000000000000000000000000000000000000000000000\n      dup2\n      mstore\n      0x04\n      add\n      tag_203\n      swap2\n      swap1\n      tag_51\n      jump\t// in\n    tag_203:\n      mload(0x40)\n      dup1\n      swap2\n      sub\n      swap1\n      revert\n        /* \"@openzeppelin/contracts/access/Ownable.sol\":1851:1952  if (owner() != _msgSender()) {... */\n    tag_201:\n        /* \"@openzeppelin/contracts/access/Ownable.sol\":1796:1958  function _checkOwner() internal view virtual {... */\n      jump\t// out\n        /* \"@openzeppelin/contracts/access/Ownable.sol\":2912:3099  function _transferOwnership(address newOwner) internal virtual {... */\n    tag_103:\n        /* \"@openzeppelin/contracts/access/Ownable.sol\":2985:3001  address oldOwner */\n      0x00\n        /* \"@openzeppelin/contracts/access/Ownable.sol\":3004:3010  _owner */\n      dup1\n      0x00\n      swap1\n      sload\n      swap1\n      0x0100\n      exp\n      swap1\n      div\n      0xffffffffffffffffffffffffffffffffffffffff\n      and\n        /* \"@openzeppelin/contracts/access/Ownable.sol\":2985:3010  address oldOwner = _owner */\n      swap1\n      pop\n        /* \"@openzeppelin/contracts/access/Ownable.sol\":3029:3037  newOwner */\n      dup2\n        /* \"@openzeppelin/contracts/access/Ownable.sol\":3020:3026  _owner */\n      0x00\n      dup1\n        /* \"@openzeppelin/contracts/access/Ownable.sol\":3020:3037  _owner = newOwner */\n      0x0100\n      exp\n      dup2\n      sload\n      dup2\n      0xffffffffffffffffffffffffffffffffffffffff\n      mul\n      not\n      and\n      swap1\n      dup4\n      0xffffffffffffffffffffffffffffffffffffffff\n      and\n      mul\n      or\n      swap1\n      sstore\n      pop\n        /* \"@openzeppelin/contracts/access/Ownable.sol\":3083:3091  newOwner */\n      dup2\n        /* \"@openzeppelin/contracts/access/Ownable.sol\":3052:3092  OwnershipTransferred(oldOwner, newOwner) */\n      0xffffffffffffffffffffffffffffffffffffffff\n      and\n        /* \"@openzeppelin/contracts/access/Ownable.sol\":3073:3081  oldOwner */\n      dup2\n        /* \"@openzeppelin/contracts/access/Ownable.sol\":3052:3092  OwnershipTransferred(oldOwner, newOwner) */\n      0xffffffffffffffffffffffffffffffffffffffff\n      and\n      0x8be0079c531659141344cd1fd0a4f28419497f9722a3daafe3b4186f6b6457e0\n      mload(0x40)\n      mload(0x40)\n      dup1\n      swap2\n      sub\n      swap1\n      log3\n        /* \"@openzeppelin/contracts/access/Ownable.sol\":2975:3099  {... */\n      pop\n        /* \"@openzeppelin/contracts/access/Ownable.sol\":2912:3099  function _transferOwnership(address newOwner) internal virtual {... */\n      pop\n      jump\t// out\n        /* \"@openzeppelin/contracts/utils/ReentrancyGuard.sol\":2575:2882  function _nonReentrantBefore() private {... */\n    tag_111:\n        /* \"@openzeppelin/contracts/utils/ReentrancyGuard.sol\":1899:1900  2 */\n      0x02\n        /* \"@openzeppelin/contracts/utils/ReentrancyGuard.sol\":2702:2709  _status */\n      sload(0x01)\n        /* \"@openzeppelin/contracts/utils/ReentrancyGuard.sol\":2702:2720  _status == ENTERED */\n      sub\n        /* \"@openzeppelin/contracts/utils/ReentrancyGuard.sol\":2698:2784  if (_status == ENTERED) {... */\n      tag_206\n      jumpi\n        /* \"@openzeppelin/contracts/utils/ReentrancyGuard.sol\":2743:2773  ReentrancyGuardReentrantCall() */\n      mload(0x40)\n      0x3ee5aeb500000000000000000000000000000000000000000000000000000000\n      dup2\n      mstore\n      0x04\n      add\n      mload(0x40)\n      dup1\n      swap2\n      sub\n      swap1\n      revert\n        /* \"@openzeppelin/contracts/utils/ReentrancyGuard.sol\":2698:2784  if (_status == ENTERED) {... */\n    tag_206:\n        /* \"@openzeppelin/contracts/utils/ReentrancyGuard.sol\":1899:1900  2 */\n      0x02\n        /* \"@openzeppelin/contracts/utils/ReentrancyGuard.sol\":2858:2865  _status */\n      0x01\n        /* \"@openzeppelin/contracts/utils/ReentrancyGuard.sol\":2858:2875  _status = ENTERED */\n      dup2\n      swap1\n      sstore\n      pop\n        /* \"@openzeppelin/contracts/utils/ReentrancyGuard.sol\":2575:2882  function _nonReentrantBefore() private {... */\n      jump\t// out\n        /* \"@openzeppelin/contracts/utils/ReentrancyGuard.sol\":2888:3096  function _nonReentrantAfter() private {... */\n    tag_140:\n        /* \"@openzeppelin/contracts/utils/ReentrancyGuard.sol\":1857:1858  1 */\n      0x01\n        /* \"@openzeppelin/contracts/utils/ReentrancyGuard.sol\":3068:3075  _status */\n      dup1\n        /* \"@openzeppelin/contracts/utils/ReentrancyGuard.sol\":3068:3089  _status = NOT_ENTERED */\n      dup2\n      swap1\n      sstore\n      pop\n        /* \"@openzeppelin/contracts/utils/ReentrancyGuard.sol\":2888:3096  function _nonReentrantAfter() private {... */\n      jump\t// out\n        /* \"@openzeppelin/contracts/utils/Context.sol\":656:752  function _msgSender() internal view virtual returns (address) {... */\n    tag_199:\n        /* \"@openzeppelin/contracts/utils/Context.sol\":709:716  address */\n      0x00\n        /* \"@openzeppelin/contracts/utils/Context.sol\":735:745  msg.sender */\n      caller\n        /* \"@openzeppelin/contracts/utils/Context.sol\":728:745  return msg.sender */\n      swap1\n      pop\n        /* \"@openzeppelin/contracts/utils/Context.sol\":656:752  function _msgSender() internal view virtual returns (address) {... */\n      swap1\n      jump\t// out\n        /* \"#utility.yul\":7:82   */\n    tag_209:\n        /* \"#utility.yul\":40:46   */\n      0x00\n        /* \"#utility.yul\":73:75   */\n      0x40\n        /* \"#utility.yul\":67:76   */\n      mload\n        /* \"#utility.yul\":57:76   */\n      swap1\n      pop\n        /* \"#utility.yul\":7:82   */\n      swap1\n      jump\t// out\n        /* \"#utility.yul\":88:205   */\n    tag_210:\n        /* \"#utility.yul\":197:198   */\n      0x00\n        /* \"#utility.yul\":194:195   */\n      dup1\n        /* \"#utility.yul\":187:199   */\n      revert\n        /* \"#utility.yul\":211:328   */\n    tag_211:\n        /* \"#utility.yul\":320:321   */\n      0x00\n        /* \"#utility.yul\":317:318   */\n      dup1\n        /* \"#utility.yul\":310:322   */\n      revert\n        /* \"#utility.yul\":334:460   */\n    tag_212:\n        /* \"#utility.yul\":371:378   */\n      0x00\n        /* \"#utility.yul\":411:453   */\n      0xffffffffffffffffffffffffffffffffffffffff\n        /* \"#utility.yul\":404:409   */\n      dup3\n        /* \"#utility.yul\":400:454   */\n      and\n        /* \"#utility.yul\":389:454   */\n      swap1\n      pop\n        /* \"#utility.yul\":334:460   */\n      swap2\n      swap1\n      pop\n      jump\t// out\n        /* \"#utility.yul\":466:562   */\n    tag_213:\n        /* \"#utility.yul\":503:510   */\n      0x00\n        /* \"#utility.yul\":532:556   */\n      tag_299\n        /* \"#utility.yul\":550:555   */\n      dup3\n        /* \"#utility.yul\":532:556   */\n      tag_212\n      jump\t// in\n    tag_299:\n        /* \"#utility.yul\":521:556   */\n      swap1\n      pop\n        /* \"#utility.yul\":466:562   */\n      swap2\n      swap1\n      pop\n      jump\t// out\n        /* \"#utility.yul\":568:690   */\n    tag_214:\n        /* \"#utility.yul\":641:665   */\n      tag_301\n        /* \"#utility.yul\":659:664   */\n      dup2\n        /* \"#utility.yul\":641:665   */\n      tag_213\n      jump\t// in\n    tag_301:\n        /* \"#utility.yul\":634:639   */\n      dup2\n        /* \"#utility.yul\":631:666   */\n      eq\n        /* \"#utility.yul\":621:684   */\n      tag_302\n      jumpi\n        /* \"#utility.yul\":680:681   */\n      0x00\n        /* \"#utility.yul\":677:678   */\n      dup1\n        /* \"#utility.yul\":670:682   */\n      revert\n        /* \"#utility.yul\":621:684   */\n    tag_302:\n        /* \"#utility.yul\":568:690   */\n      pop\n      jump\t// out\n        /* \"#utility.yul\":696:835   */\n    tag_215:\n        /* \"#utility.yul\":742:747   */\n      0x00\n        /* \"#utility.yul\":780:786   */\n      dup2\n        /* \"#utility.yul\":767:787   */\n      calldataload\n        /* \"#utility.yul\":758:787   */\n      swap1\n      pop\n        /* \"#utility.yul\":796:829   */\n      tag_304\n        /* \"#utility.yul\":823:828   */\n      dup2\n        /* \"#utility.yul\":796:829   */\n      tag_214\n      jump\t// in\n    tag_304:\n        /* \"#utility.yul\":696:835   */\n      swap3\n      swap2\n      pop\n      pop\n      jump\t// out\n        /* \"#utility.yul\":841:1170   */\n    tag_22:\n        /* \"#utility.yul\":900:906   */\n      0x00\n        /* \"#utility.yul\":949:951   */\n      0x20\n        /* \"#utility.yul\":937:946   */\n      dup3\n        /* \"#utility.yul\":928:935   */\n      dup5\n        /* \"#utility.yul\":924:947   */\n      sub\n        /* \"#utility.yul\":920:952   */\n      slt\n        /* \"#utility.yul\":917:1036   */\n      iszero\n      tag_306\n      jumpi\n        /* \"#utility.yul\":955:1034   */\n      tag_307\n      tag_210\n      jump\t// in\n    tag_307:\n        /* \"#utility.yul\":917:1036   */\n    tag_306:\n        /* \"#utility.yul\":1075:1076   */\n      0x00\n        /* \"#utility.yul\":1100:1153   */\n      tag_308\n        /* \"#utility.yul\":1145:1152   */\n      dup5\n        /* \"#utility.yul\":1136:1142   */\n      dup3\n        /* \"#utility.yul\":1125:1134   */\n      dup6\n        /* \"#utility.yul\":1121:1143   */\n      add\n        /* \"#utility.yul\":1100:1153   */\n      tag_215\n      jump\t// in\n    tag_308:\n        /* \"#utility.yul\":1090:1153   */\n      swap2\n      pop\n        /* \"#utility.yul\":1046:1163   */\n      pop\n        /* \"#utility.yul\":841:1170   */\n      swap3\n      swap2\n      pop\n      pop\n      jump\t// out\n        /* \"#utility.yul\":1176:1266   */\n    tag_216:\n        /* \"#utility.yul\":1210:1217   */\n      0x00\n        /* \"#utility.yul\":1253:1258   */\n      dup2\n        /* \"#utility.yul\":1246:1259   */\n      iszero\n        /* \"#utility.yul\":1239:1260   */\n      iszero\n        /* \"#utility.yul\":1228:1260   */\n      swap1\n      pop\n        /* \"#utility.yul\":1176:1266   */\n      swap2\n      swap1\n      pop\n      jump\t// out\n        /* \"#utility.yul\":1272:1381   */\n    tag_217:\n        /* \"#utility.yul\":1353:1374   */\n      tag_311\n        /* \"#utility.yul\":1368:1373   */\n      dup2\n        /* \"#utility.yul\":1353:1374   */\n      tag_216\n      jump\t// in\n    tag_311:\n        /* \"#utility.yul\":1348:1351   */\n      dup3\n        /* \"#utility.yul\":1341:1375   */\n      mstore\n        /* \"#utility.yul\":1272:1381   */\n      pop\n      pop\n      jump\t// out\n        /* \"#utility.yul\":1387:1597   */\n    tag_28:\n        /* \"#utility.yul\":1474:1478   */\n      0x00\n        /* \"#utility.yul\":1512:1514   */\n      0x20\n        /* \"#utility.yul\":1501:1510   */\n      dup3\n        /* \"#utility.yul\":1497:1515   */\n      add\n        /* \"#utility.yul\":1489:1515   */\n      swap1\n      pop\n        /* \"#utility.yul\":1525:1590   */\n      tag_313\n        /* \"#utility.yul\":1587:1588   */\n      0x00\n        /* \"#utility.yul\":1576:1585   */\n      dup4\n        /* \"#utility.yul\":1572:1589   */\n      add\n        /* \"#utility.yul\":1563:1569   */\n      dup5\n        /* \"#utility.yul\":1525:1590   */\n      tag_217\n      jump\t// in\n    tag_313:\n        /* \"#utility.yul\":1387:1597   */\n      swap3\n      swap2\n      pop\n      pop\n      jump\t// out\n        /* \"#utility.yul\":1603:1663   */\n    tag_218:\n        /* \"#utility.yul\":1631:1634   */\n      0x00\n        /* \"#utility.yul\":1652:1657   */\n      dup2\n        /* \"#utility.yul\":1645:1657   */\n      swap1\n      pop\n        /* \"#utility.yul\":1603:1663   */\n      swap2\n      swap1\n      pop\n      jump\t// out\n        /* \"#utility.yul\":1669:1811   */\n    tag_219:\n        /* \"#utility.yul\":1719:1728   */\n      0x00\n        /* \"#utility.yul\":1752:1805   */\n      tag_316\n        /* \"#utility.yul\":1770:1804   */\n      tag_317\n        /* \"#utility.yul\":1779:1803   */\n      tag_318\n        /* \"#utility.yul\":1797:1802   */\n      dup5\n        /* \"#utility.yul\":1779:1803   */\n      tag_212\n      jump\t// in\n    tag_318:\n        /* \"#utility.yul\":1770:1804   */\n      tag_218\n      jump\t// in\n    tag_317:\n        /* \"#utility.yul\":1752:1805   */\n      tag_212\n      jump\t// in\n    tag_316:\n        /* \"#utility.yul\":1739:1805   */\n      swap1\n      pop\n        /* \"#utility.yul\":1669:1811   */\n      swap2\n      swap1\n      pop\n      jump\t// out\n        /* \"#utility.yul\":1817:1943   */\n    tag_220:\n        /* \"#utility.yul\":1867:1876   */\n      0x00\n        /* \"#utility.yul\":1900:1937   */\n      tag_320\n        /* \"#utility.yul\":1931:1936   */\n      dup3\n        /* \"#utility.yul\":1900:1937   */\n      tag_219\n      jump\t// in\n    tag_320:\n        /* \"#utility.yul\":1887:1937   */\n      swap1\n      pop\n        /* \"#utility.yul\":1817:1943   */\n      swap2\n      swap1\n      pop\n      jump\t// out\n        /* \"#utility.yul\":1949:2099   */\n    tag_221:\n        /* \"#utility.yul\":2023:2032   */\n      0x00\n        /* \"#utility.yul\":2056:2093   */\n      tag_322\n        /* \"#utility.yul\":2087:2092   */\n      dup3\n        /* \"#utility.yul\":2056:2093   */\n      tag_220\n      jump\t// in\n    tag_322:\n        /* \"#utility.yul\":2043:2093   */\n      swap1\n      pop\n        /* \"#utility.yul\":1949:2099   */\n      swap2\n      swap1\n      pop\n      jump\t// out\n        /* \"#utility.yul\":2105:2284   */\n    tag_222:\n        /* \"#utility.yul\":2216:2277   */\n      tag_324\n        /* \"#utility.yul\":2271:2276   */\n      dup2\n        /* \"#utility.yul\":2216:2277   */\n      tag_221\n      jump\t// in\n    tag_324:\n        /* \"#utility.yul\":2211:2214   */\n      dup3\n        /* \"#utility.yul\":2204:2278   */\n      mstore\n        /* \"#utility.yul\":2105:2284   */\n      pop\n      pop\n      jump\t// out\n        /* \"#utility.yul\":2290:2560   */\n    tag_32:\n        /* \"#utility.yul\":2407:2411   */\n      0x00\n        /* \"#utility.yul\":2445:2447   */\n      0x20\n        /* \"#utility.yul\":2434:2443   */\n      dup3\n        /* \"#utility.yul\":2430:2448   */\n      add\n        /* \"#utility.yul\":2422:2448   */\n      swap1\n      pop\n        /* \"#utility.yul\":2458:2553   */\n      tag_326\n        /* \"#utility.yul\":2550:2551   */\n      0x00\n        /* \"#utility.yul\":2539:2548   */\n      dup4\n        /* \"#utility.yul\":2535:2552   */\n      add\n        /* \"#utility.yul\":2526:2532   */\n      dup5\n        /* \"#utility.yul\":2458:2553   */\n      tag_222\n      jump\t// in\n    tag_326:\n        /* \"#utility.yul\":2290:2560   */\n      swap3\n      swap2\n      pop\n      pop\n      jump\t// out\n        /* \"#utility.yul\":2566:2713   */\n    tag_223:\n        /* \"#utility.yul\":2637:2646   */\n      0x00\n        /* \"#utility.yul\":2670:2707   */\n      tag_328\n        /* \"#utility.yul\":2701:2706   */\n      dup3\n        /* \"#utility.yul\":2670:2707   */\n      tag_220\n      jump\t// in\n    tag_328:\n        /* \"#utility.yul\":2657:2707   */\n      swap1\n      pop\n        /* \"#utility.yul\":2566:2713   */\n      swap2\n      swap1\n      pop\n      jump\t// out\n        /* \"#utility.yul\":2719:2892   */\n    tag_224:\n        /* \"#utility.yul\":2827:2885   */\n      tag_330\n        /* \"#utility.yul\":2879:2884   */\n      dup2\n        /* \"#utility.yul\":2827:2885   */\n      tag_223\n      jump\t// in\n    tag_330:\n        /* \"#utility.yul\":2822:2825   */\n      dup3\n        /* \"#utility.yul\":2815:2886   */\n      mstore\n        /* \"#utility.yul\":2719:2892   */\n      pop\n      pop\n      jump\t// out\n        /* \"#utility.yul\":2898:3162   */\n    tag_42:\n        /* \"#utility.yul\":3012:3016   */\n      0x00\n        /* \"#utility.yul\":3050:3052   */\n      0x20\n        /* \"#utility.yul\":3039:3048   */\n      dup3\n        /* \"#utility.yul\":3035:3053   */\n      add\n        /* \"#utility.yul\":3027:3053   */\n      swap1\n      pop\n        /* \"#utility.yul\":3063:3155   */\n      tag_332\n        /* \"#utility.yul\":3152:3153   */\n      0x00\n        /* \"#utility.yul\":3141:3150   */\n      dup4\n        /* \"#utility.yul\":3137:3154   */\n      add\n        /* \"#utility.yul\":3128:3134   */\n      dup5\n        /* \"#utility.yul\":3063:3155   */\n      tag_224\n      jump\t// in\n    tag_332:\n        /* \"#utility.yul\":2898:3162   */\n      swap3\n      swap2\n      pop\n      pop\n      jump\t// out\n        /* \"#utility.yul\":3168:3286   */\n    tag_225:\n        /* \"#utility.yul\":3255:3279   */\n      tag_334\n        /* \"#utility.yul\":3273:3278   */\n      dup2\n        /* \"#utility.yul\":3255:3279   */\n      tag_213\n      jump\t// in\n    tag_334:\n        /* \"#utility.yul\":3250:3253   */\n      dup3\n        /* \"#utility.yul\":3243:3280   */\n      mstore\n        /* \"#utility.yul\":3168:3286   */\n      pop\n      pop\n      jump\t// out\n        /* \"#utility.yul\":3292:3514   */\n    tag_51:\n        /* \"#utility.yul\":3385:3389   */\n      0x00\n        /* \"#utility.yul\":3423:3425   */\n      0x20\n        /* \"#utility.yul\":3412:3421   */\n      dup3\n        /* \"#utility.yul\":3408:3426   */\n      add\n        /* \"#utility.yul\":3400:3426   */\n      swap1\n      pop\n        /* \"#utility.yul\":3436:3507   */\n      tag_336\n        /* \"#utility.yul\":3504:3505   */\n      0x00\n        /* \"#utility.yul\":3493:3502   */\n      dup4\n        /* \"#utility.yul\":3489:3506   */\n      add\n        /* \"#utility.yul\":3480:3486   */\n      dup5\n        /* \"#utility.yul\":3436:3507   */\n      tag_225\n      jump\t// in\n    tag_336:\n        /* \"#utility.yul\":3292:3514   */\n      swap3\n      swap2\n      pop\n      pop\n      jump\t// out\n        /* \"#utility.yul\":3520:3597   */\n    tag_226:\n        /* \"#utility.yul\":3557:3564   */\n      0x00\n        /* \"#utility.yul\":3586:3591   */\n      dup2\n        /* \"#utility.yul\":3575:3591   */\n      swap1\n      pop\n        /* \"#utility.yul\":3520:3597   */\n      swap2\n      swap1\n      pop\n      jump\t// out\n        /* \"#utility.yul\":3603:3725   */\n    tag_227:\n        /* \"#utility.yul\":3676:3700   */\n      tag_339\n        /* \"#utility.yul\":3694:3699   */\n      dup2\n        /* \"#utility.yul\":3676:3700   */\n      tag_226\n      jump\t// in\n    tag_339:\n        /* \"#utility.yul\":3669:3674   */\n      dup2\n        /* \"#utility.yul\":3666:3701   */\n      eq\n        /* \"#utility.yul\":3656:3719   */\n      tag_340\n      jumpi\n        /* \"#utility.yul\":3715:3716   */\n      0x00\n        /* \"#utility.yul\":3712:3713   */\n      dup1\n        /* \"#utility.yul\":3705:3717   */\n      revert\n        /* \"#utility.yul\":3656:3719   */\n    tag_340:\n        /* \"#utility.yul\":3603:3725   */\n      pop\n      jump\t// out\n        /* \"#utility.yul\":3731:3870   */\n    tag_228:\n        /* \"#utility.yul\":3777:3782   */\n      0x00\n        /* \"#utility.yul\":3815:3821   */\n      dup2\n        /* \"#utility.yul\":3802:3822   */\n      calldataload\n        /* \"#utility.yul\":3793:3822   */\n      swap1\n      pop\n        /* \"#utility.yul\":3831:3864   */\n      tag_342\n        /* \"#utility.yul\":3858:3863   */\n      dup2\n        /* \"#utility.yul\":3831:3864   */\n      tag_227\n      jump\t// in\n    tag_342:\n        /* \"#utility.yul\":3731:3870   */\n      swap3\n      swap2\n      pop\n      pop\n      jump\t// out\n        /* \"#utility.yul\":3876:4205   */\n    tag_54:\n        /* \"#utility.yul\":3935:3941   */\n      0x00\n        /* \"#utility.yul\":3984:3986   */\n      0x20\n        /* \"#utility.yul\":3972:3981   */\n      dup3\n        /* \"#utility.yul\":3963:3970   */\n      dup5\n        /* \"#utility.yul\":3959:3982   */\n      sub\n        /* \"#utility.yul\":3955:3987   */\n      slt\n        /* \"#utility.yul\":3952:4071   */\n      iszero\n      tag_344\n      jumpi\n        /* \"#utility.yul\":3990:4069   */\n      tag_345\n      tag_210\n      jump\t// in\n    tag_345:\n        /* \"#utility.yul\":3952:4071   */\n    tag_344:\n        /* \"#utility.yul\":4110:4111   */\n      0x00\n        /* \"#utility.yul\":4135:4188   */\n      tag_346\n        /* \"#utility.yul\":4180:4187   */\n      dup5\n        /* \"#utility.yul\":4171:4177   */\n      dup3\n        /* \"#utility.yul\":4160:4169   */\n      dup6\n        /* \"#utility.yul\":4156:4178   */\n      add\n        /* \"#utility.yul\":4135:4188   */\n      tag_228\n      jump\t// in\n    tag_346:\n        /* \"#utility.yul\":4125:4188   */\n      swap2\n      pop\n        /* \"#utility.yul\":4081:4198   */\n      pop\n        /* \"#utility.yul\":3876:4205   */\n      swap3\n      swap2\n      pop\n      pop\n      jump\t// out\n        /* \"#utility.yul\":4211:4309   */\n    tag_229:\n        /* \"#utility.yul\":4262:4268   */\n      0x00\n        /* \"#utility.yul\":4296:4301   */\n      dup2\n        /* \"#utility.yul\":4290:4302   */\n      mload\n        /* \"#utility.yul\":4280:4302   */\n      swap1\n      pop\n        /* \"#utility.yul\":4211:4309   */\n      swap2\n      swap1\n      pop\n      jump\t// out\n        /* \"#utility.yul\":4315:4483   */\n    tag_230:\n        /* \"#utility.yul\":4398:4409   */\n      0x00\n        /* \"#utility.yul\":4432:4438   */\n      dup3\n        /* \"#utility.yul\":4427:4430   */\n      dup3\n        /* \"#utility.yul\":4420:4439   */\n      mstore\n        /* \"#utility.yul\":4472:4476   */\n      0x20\n        /* \"#utility.yul\":4467:4470   */\n      dup3\n        /* \"#utility.yul\":4463:4477   */\n      add\n        /* \"#utility.yul\":4448:4477   */\n      swap1\n      pop\n        /* \"#utility.yul\":4315:4483   */\n      swap3\n      swap2\n      pop\n      pop\n      jump\t// out\n        /* \"#utility.yul\":4489:4628   */\n    tag_231:\n        /* \"#utility.yul\":4578:4584   */\n      dup3\n        /* \"#utility.yul\":4573:4576   */\n      dup2\n        /* \"#utility.yul\":4568:4571   */\n      dup4\n        /* \"#utility.yul\":4562:4585   */\n      mcopy\n        /* \"#utility.yul\":4619:4620   */\n      0x00\n        /* \"#utility.yul\":4610:4616   */\n      dup4\n        /* \"#utility.yul\":4605:4608   */\n      dup4\n        /* \"#utility.yul\":4601:4617   */\n      add\n        /* \"#utility.yul\":4594:4621   */\n      mstore\n        /* \"#utility.yul\":4489:4628   */\n      pop\n      pop\n      pop\n      jump\t// out\n        /* \"#utility.yul\":4634:4736   */\n    tag_232:\n        /* \"#utility.yul\":4675:4681   */\n      0x00\n        /* \"#utility.yul\":4726:4728   */\n      0x1f\n        /* \"#utility.yul\":4722:4729   */\n      not\n        /* \"#utility.yul\":4717:4719   */\n      0x1f\n        /* \"#utility.yul\":4710:4715   */\n      dup4\n        /* \"#utility.yul\":4706:4720   */\n      add\n        /* \"#utility.yul\":4702:4730   */\n      and\n        /* \"#utility.yul\":4692:4730   */\n      swap1\n      pop\n        /* \"#utility.yul\":4634:4736   */\n      swap2\n      swap1\n      pop\n      jump\t// out\n        /* \"#utility.yul\":4742:5115   */\n    tag_233:\n        /* \"#utility.yul\":4828:4831   */\n      0x00\n        /* \"#utility.yul\":4856:4894   */\n      tag_352\n        /* \"#utility.yul\":4888:4893   */\n      dup3\n        /* \"#utility.yul\":4856:4894   */\n      tag_229\n      jump\t// in\n    tag_352:\n        /* \"#utility.yul\":4910:4980   */\n      tag_353\n        /* \"#utility.yul\":4973:4979   */\n      dup2\n        /* \"#utility.yul\":4968:4971   */\n      dup6\n        /* \"#utility.yul\":4910:4980   */\n      tag_230\n      jump\t// in\n    tag_353:\n        /* \"#utility.yul\":4903:4980   */\n      swap4\n      pop\n        /* \"#utility.yul\":4989:5054   */\n      tag_354\n        /* \"#utility.yul\":5047:5053   */\n      dup2\n        /* \"#utility.yul\":5042:5045   */\n      dup6\n        /* \"#utility.yul\":5035:5039   */\n      0x20\n        /* \"#utility.yul\":5028:5033   */\n      dup7\n        /* \"#utility.yul\":5024:5040   */\n      add\n        /* \"#utility.yul\":4989:5054   */\n      tag_231\n      jump\t// in\n    tag_354:\n        /* \"#utility.yul\":5079:5108   */\n      tag_355\n        /* \"#utility.yul\":5101:5107   */\n      dup2\n        /* \"#utility.yul\":5079:5108   */\n      tag_232\n      jump\t// in\n    tag_355:\n        /* \"#utility.yul\":5074:5077   */\n      dup5\n        /* \"#utility.yul\":5070:5109   */\n      add\n        /* \"#utility.yul\":5063:5109   */\n      swap2\n      pop\n        /* \"#utility.yul\":4832:5115   */\n      pop\n        /* \"#utility.yul\":4742:5115   */\n      swap3\n      swap2\n      pop\n      pop\n      jump\t// out\n        /* \"#utility.yul\":5121:5430   */\n    tag_57:\n        /* \"#utility.yul\":5232:5236   */\n      0x00\n        /* \"#utility.yul\":5270:5272   */\n      0x20\n        /* \"#utility.yul\":5259:5268   */\n      dup3\n        /* \"#utility.yul\":5255:5273   */\n      add\n        /* \"#utility.yul\":5247:5273   */\n      swap1\n      pop\n        /* \"#utility.yul\":5319:5328   */\n      dup2\n        /* \"#utility.yul\":5313:5317   */\n      dup2\n        /* \"#utility.yul\":5309:5329   */\n      sub\n        /* \"#utility.yul\":5305:5306   */\n      0x00\n        /* \"#utility.yul\":5294:5303   */\n      dup4\n        /* \"#utility.yul\":5290:5307   */\n      add\n        /* \"#utility.yul\":5283:5330   */\n      mstore\n        /* \"#utility.yul\":5347:5423   */\n      tag_357\n        /* \"#utility.yul\":5418:5422   */\n      dup2\n        /* \"#utility.yul\":5409:5415   */\n      dup5\n        /* \"#utility.yul\":5347:5423   */\n      tag_233\n      jump\t// in\n    tag_357:\n        /* \"#utility.yul\":5339:5423   */\n      swap1\n      pop\n        /* \"#utility.yul\":5121:5430   */\n      swap3\n      swap2\n      pop\n      pop\n      jump\t// out\n        /* \"#utility.yul\":5436:5553   */\n    tag_234:\n        /* \"#utility.yul\":5545:5546   */\n      0x00\n        /* \"#utility.yul\":5542:5543   */\n      dup1\n        /* \"#utility.yul\":5535:5547   */\n      revert\n        /* \"#utility.yul\":5559:5676   */\n    tag_235:\n        /* \"#utility.yul\":5668:5669   */\n      0x00\n        /* \"#utility.yul\":5665:5666   */\n      dup1\n        /* \"#utility.yul\":5658:5670   */\n      revert\n        /* \"#utility.yul\":5682:5799   */\n    tag_236:\n        /* \"#utility.yul\":5791:5792   */\n      0x00\n        /* \"#utility.yul\":5788:5789   */\n      dup1\n        /* \"#utility.yul\":5781:5793   */\n      revert\n        /* \"#utility.yul\":5818:6370   */\n    tag_237:\n        /* \"#utility.yul\":5875:5883   */\n      0x00\n        /* \"#utility.yul\":5885:5891   */\n      dup1\n        /* \"#utility.yul\":5935:5938   */\n      dup4\n        /* \"#utility.yul\":5928:5932   */\n      0x1f\n        /* \"#utility.yul\":5920:5926   */\n      dup5\n        /* \"#utility.yul\":5916:5933   */\n      add\n        /* \"#utility.yul\":5912:5939   */\n      slt\n        /* \"#utility.yul\":5902:6024   */\n      tag_362\n      jumpi\n        /* \"#utility.yul\":5943:6022   */\n      tag_363\n      tag_234\n      jump\t// in\n    tag_363:\n        /* \"#utility.yul\":5902:6024   */\n    tag_362:\n        /* \"#utility.yul\":6056:6062   */\n      dup3\n        /* \"#utility.yul\":6043:6063   */\n      calldataload\n        /* \"#utility.yul\":6033:6063   */\n      swap1\n      pop\n        /* \"#utility.yul\":6086:6104   */\n      0xffffffffffffffff\n        /* \"#utility.yul\":6078:6084   */\n      dup2\n        /* \"#utility.yul\":6075:6105   */\n      gt\n        /* \"#utility.yul\":6072:6189   */\n      iszero\n      tag_364\n      jumpi\n        /* \"#utility.yul\":6108:6187   */\n      tag_365\n      tag_235\n      jump\t// in\n    tag_365:\n        /* \"#utility.yul\":6072:6189   */\n    tag_364:\n        /* \"#utility.yul\":6222:6226   */\n      0x20\n        /* \"#utility.yul\":6214:6220   */\n      dup4\n        /* \"#utility.yul\":6210:6227   */\n      add\n        /* \"#utility.yul\":6198:6227   */\n      swap2\n      pop\n        /* \"#utility.yul\":6276:6279   */\n      dup4\n        /* \"#utility.yul\":6268:6272   */\n      0x01\n        /* \"#utility.yul\":6260:6266   */\n      dup3\n        /* \"#utility.yul\":6256:6273   */\n      mul\n        /* \"#utility.yul\":6246:6254   */\n      dup4\n        /* \"#utility.yul\":6242:6274   */\n      add\n        /* \"#utility.yul\":6239:6280   */\n      gt\n        /* \"#utility.yul\":6236:6364   */\n      iszero\n      tag_366\n      jumpi\n        /* \"#utility.yul\":6283:6362   */\n      tag_367\n      tag_236\n      jump\t// in\n    tag_367:\n        /* \"#utility.yul\":6236:6364   */\n    tag_366:\n        /* \"#utility.yul\":5818:6370   */\n      swap3\n      pop\n      swap3\n      swap1\n      pop\n      jump\t// out\n        /* \"#utility.yul\":6376:7048   */\n    tag_60:\n        /* \"#utility.yul\":6455:6461   */\n      0x00\n        /* \"#utility.yul\":6463:6469   */\n      dup1\n        /* \"#utility.yul\":6471:6477   */\n      0x00\n        /* \"#utility.yul\":6520:6522   */\n      0x40\n        /* \"#utility.yul\":6508:6517   */\n      dup5\n        /* \"#utility.yul\":6499:6506   */\n      dup7\n        /* \"#utility.yul\":6495:6518   */\n      sub\n        /* \"#utility.yul\":6491:6523   */\n      slt\n        /* \"#utility.yul\":6488:6607   */\n      iszero\n      tag_369\n      jumpi\n        /* \"#utility.yul\":6526:6605   */\n      tag_370\n      tag_210\n      jump\t// in\n    tag_370:\n        /* \"#utility.yul\":6488:6607   */\n    tag_369:\n        /* \"#utility.yul\":6646:6647   */\n      0x00\n        /* \"#utility.yul\":6671:6724   */\n      tag_371\n        /* \"#utility.yul\":6716:6723   */\n      dup7\n        /* \"#utility.yul\":6707:6713   */\n      dup3\n        /* \"#utility.yul\":6696:6705   */\n      dup8\n        /* \"#utility.yul\":6692:6714   */\n      add\n        /* \"#utility.yul\":6671:6724   */\n      tag_215\n      jump\t// in\n    tag_371:\n        /* \"#utility.yul\":6661:6724   */\n      swap4\n      pop\n        /* \"#utility.yul\":6617:6734   */\n      pop\n        /* \"#utility.yul\":6801:6803   */\n      0x20\n        /* \"#utility.yul\":6790:6799   */\n      dup5\n        /* \"#utility.yul\":6786:6804   */\n      add\n        /* \"#utility.yul\":6773:6805   */\n      calldataload\n        /* \"#utility.yul\":6832:6850   */\n      0xffffffffffffffff\n        /* \"#utility.yul\":6824:6830   */\n      dup2\n        /* \"#utility.yul\":6821:6851   */\n      gt\n        /* \"#utility.yul\":6818:6935   */\n      iszero\n      tag_372\n      jumpi\n        /* \"#utility.yul\":6854:6933   */\n      tag_373\n      tag_211\n      jump\t// in\n    tag_373:\n        /* \"#utility.yul\":6818:6935   */\n    tag_372:\n        /* \"#utility.yul\":6967:7031   */\n      tag_374\n        /* \"#utility.yul\":7023:7030   */\n      dup7\n        /* \"#utility.yul\":7014:7020   */\n      dup3\n        /* \"#utility.yul\":7003:7012   */\n      dup8\n        /* \"#utility.yul\":6999:7021   */\n      add\n        /* \"#utility.yul\":6967:7031   */\n      tag_237\n      jump\t// in\n    tag_374:\n        /* \"#utility.yul\":6949:7031   */\n      swap3\n      pop\n      swap3\n      pop\n        /* \"#utility.yul\":6744:7041   */\n      pop\n        /* \"#utility.yul\":6376:7048   */\n      swap3\n      pop\n      swap3\n      pop\n      swap3\n      jump\t// out\n        /* \"#utility.yul\":7054:7131   */\n    tag_238:\n        /* \"#utility.yul\":7091:7098   */\n      0x00\n        /* \"#utility.yul\":7120:7125   */\n      dup2\n        /* \"#utility.yul\":7109:7125   */\n      swap1\n      pop\n        /* \"#utility.yul\":7054:7131   */\n      swap2\n      swap1\n      pop\n      jump\t// out\n        /* \"#utility.yul\":7137:7259   */\n    tag_239:\n        /* \"#utility.yul\":7210:7234   */\n      tag_377\n        /* \"#utility.yul\":7228:7233   */\n      dup2\n        /* \"#utility.yul\":7210:7234   */\n      tag_238\n      jump\t// in\n    tag_377:\n        /* \"#utility.yul\":7203:7208   */\n      dup2\n        /* \"#utility.yul\":7200:7235   */\n      eq\n        /* \"#utility.yul\":7190:7253   */\n      tag_378\n      jumpi\n        /* \"#utility.yul\":7249:7250   */\n      0x00\n        /* \"#utility.yul\":7246:7247   */\n      dup1\n        /* \"#utility.yul\":7239:7251   */\n      revert\n        /* \"#utility.yul\":7190:7253   */\n    tag_378:\n        /* \"#utility.yul\":7137:7259   */\n      pop\n      jump\t// out\n        /* \"#utility.yul\":7265:7404   */\n    tag_240:\n        /* \"#utility.yul\":7311:7316   */\n      0x00\n        /* \"#utility.yul\":7349:7355   */\n      dup2\n        /* \"#utility.yul\":7336:7356   */\n      calldataload\n        /* \"#utility.yul\":7327:7356   */\n      swap1\n      pop\n        /* \"#utility.yul\":7365:7398   */\n      tag_380\n        /* \"#utility.yul\":7392:7397   */\n      dup2\n        /* \"#utility.yul\":7365:7398   */\n      tag_239\n      jump\t// in\n    tag_380:\n        /* \"#utility.yul\":7265:7404   */\n      swap3\n      swap2\n      pop\n      pop\n      jump\t// out\n        /* \"#utility.yul\":7410:8227   */\n    tag_64:\n        /* \"#utility.yul\":7498:7504   */\n      0x00\n        /* \"#utility.yul\":7506:7512   */\n      dup1\n        /* \"#utility.yul\":7514:7520   */\n      0x00\n        /* \"#utility.yul\":7522:7528   */\n      dup1\n        /* \"#utility.yul\":7571:7573   */\n      0x60\n        /* \"#utility.yul\":7559:7568   */\n      dup6\n        /* \"#utility.yul\":7550:7557   */\n      dup8\n        /* \"#utility.yul\":7546:7569   */\n      sub\n        /* \"#utility.yul\":7542:7574   */\n      slt\n        /* \"#utility.yul\":7539:7658   */\n      iszero\n      tag_382\n      jumpi\n        /* \"#utility.yul\":7577:7656   */\n      tag_383\n      tag_210\n      jump\t// in\n    tag_383:\n        /* \"#utility.yul\":7539:7658   */\n    tag_382:\n        /* \"#utility.yul\":7697:7698   */\n      0x00\n        /* \"#utility.yul\":7722:7775   */\n      tag_384\n        /* \"#utility.yul\":7767:7774   */\n      dup8\n        /* \"#utility.yul\":7758:7764   */\n      dup3\n        /* \"#utility.yul\":7747:7756   */\n      dup9\n        /* \"#utility.yul\":7743:7765   */\n      add\n        /* \"#utility.yul\":7722:7775   */\n      tag_228\n      jump\t// in\n    tag_384:\n        /* \"#utility.yul\":7712:7775   */\n      swap5\n      pop\n        /* \"#utility.yul\":7668:7785   */\n      pop\n        /* \"#utility.yul\":7824:7826   */\n      0x20\n        /* \"#utility.yul\":7850:7903   */\n      tag_385\n        /* \"#utility.yul\":7895:7902   */\n      dup8\n        /* \"#utility.yul\":7886:7892   */\n      dup3\n        /* \"#utility.yul\":7875:7884   */\n      dup9\n        /* \"#utility.yul\":7871:7893   */\n      add\n        /* \"#utility.yul\":7850:7903   */\n      tag_240\n      jump\t// in\n    tag_385:\n        /* \"#utility.yul\":7840:7903   */\n      swap4\n      pop\n        /* \"#utility.yul\":7795:7913   */\n      pop\n        /* \"#utility.yul\":7980:7982   */\n      0x40\n        /* \"#utility.yul\":7969:7978   */\n      dup6\n        /* \"#utility.yul\":7965:7983   */\n      add\n        /* \"#utility.yul\":7952:7984   */\n      calldataload\n        /* \"#utility.yul\":8011:8029   */\n      0xffffffffffffffff\n        /* \"#utility.yul\":8003:8009   */\n      dup2\n        /* \"#utility.yul\":8000:8030   */\n      gt\n        /* \"#utility.yul\":7997:8114   */\n      iszero\n      tag_386\n      jumpi\n        /* \"#utility.yul\":8033:8112   */\n      tag_387\n      tag_211\n      jump\t// in\n    tag_387:\n        /* \"#utility.yul\":7997:8114   */\n    tag_386:\n        /* \"#utility.yul\":8146:8210   */\n      tag_388\n        /* \"#utility.yul\":8202:8209   */\n      dup8\n        /* \"#utility.yul\":8193:8199   */\n      dup3\n        /* \"#utility.yul\":8182:8191   */\n      dup9\n        /* \"#utility.yul\":8178:8200   */\n      add\n        /* \"#utility.yul\":8146:8210   */\n      tag_237\n      jump\t// in\n    tag_388:\n        /* \"#utility.yul\":8128:8210   */\n      swap3\n      pop\n      swap3\n      pop\n        /* \"#utility.yul\":7923:8220   */\n      pop\n        /* \"#utility.yul\":7410:8227   */\n      swap3\n      swap6\n      swap2\n      swap5\n      pop\n      swap3\n      pop\n      jump\t// out\n        /* \"#utility.yul\":8233:8377   */\n    tag_241:\n        /* \"#utility.yul\":8301:8310   */\n      0x00\n        /* \"#utility.yul\":8334:8371   */\n      tag_390\n        /* \"#utility.yul\":8365:8370   */\n      dup3\n        /* \"#utility.yul\":8334:8371   */\n      tag_220\n      jump\t// in\n    tag_390:\n        /* \"#utility.yul\":8321:8371   */\n      swap1\n      pop\n        /* \"#utility.yul\":8233:8377   */\n      swap2\n      swap1\n      pop\n      jump\t// out\n        /* \"#utility.yul\":8383:8550   */\n    tag_242:\n        /* \"#utility.yul\":8488:8543   */\n      tag_392\n        /* \"#utility.yul\":8537:8542   */\n      dup2\n        /* \"#utility.yul\":8488:8543   */\n      tag_241\n      jump\t// in\n    tag_392:\n        /* \"#utility.yul\":8483:8486   */\n      dup3\n        /* \"#utility.yul\":8476:8544   */\n      mstore\n        /* \"#utility.yul\":8383:8550   */\n      pop\n      pop\n      jump\t// out\n        /* \"#utility.yul\":8556:8814   */\n    tag_72:\n        /* \"#utility.yul\":8667:8671   */\n      0x00\n        /* \"#utility.yul\":8705:8707   */\n      0x20\n        /* \"#utility.yul\":8694:8703   */\n      dup3\n        /* \"#utility.yul\":8690:8708   */\n      add\n        /* \"#utility.yul\":8682:8708   */\n      swap1\n      pop\n        /* \"#utility.yul\":8718:8807   */\n      tag_394\n        /* \"#utility.yul\":8804:8805   */\n      0x00\n        /* \"#utility.yul\":8793:8802   */\n      dup4\n        /* \"#utility.yul\":8789:8806   */\n      add\n        /* \"#utility.yul\":8780:8786   */\n      dup5\n        /* \"#utility.yul\":8718:8807   */\n      tag_242\n      jump\t// in\n    tag_394:\n        /* \"#utility.yul\":8556:8814   */\n      swap3\n      swap2\n      pop\n      pop\n      jump\t// out\n        /* \"#utility.yul\":8820:8989   */\n    tag_243:\n        /* \"#utility.yul\":8904:8915   */\n      0x00\n        /* \"#utility.yul\":8938:8944   */\n      dup3\n        /* \"#utility.yul\":8933:8936   */\n      dup3\n        /* \"#utility.yul\":8926:8945   */\n      mstore\n        /* \"#utility.yul\":8978:8982   */\n      0x20\n        /* \"#utility.yul\":8973:8976   */\n      dup3\n        /* \"#utility.yul\":8969:8983   */\n      add\n        /* \"#utility.yul\":8954:8983   */\n      swap1\n      pop\n        /* \"#utility.yul\":8820:8989   */\n      swap3\n      swap2\n      pop\n      pop\n      jump\t// out\n        /* \"#utility.yul\":8995:9173   */\n    tag_244:\n        /* \"#utility.yul\":9135:9165   */\n      0x496e76616c69642046696c655265676973747279206164647265737300000000\n        /* \"#utility.yul\":9131:9132   */\n      0x00\n        /* \"#utility.yul\":9123:9129   */\n      dup3\n        /* \"#utility.yul\":9119:9133   */\n      add\n        /* \"#utility.yul\":9112:9166   */\n      mstore\n        /* \"#utility.yul\":8995:9173   */\n      pop\n      jump\t// out\n        /* \"#utility.yul\":9179:9545   */\n    tag_245:\n        /* \"#utility.yul\":9321:9324   */\n      0x00\n        /* \"#utility.yul\":9342:9409   */\n      tag_398\n        /* \"#utility.yul\":9406:9408   */\n      0x1c\n        /* \"#utility.yul\":9401:9404   */\n      dup4\n        /* \"#utility.yul\":9342:9409   */\n      tag_243\n      jump\t// in\n    tag_398:\n        /* \"#utility.yul\":9335:9409   */\n      swap2\n      pop\n        /* \"#utility.yul\":9418:9511   */\n      tag_399\n        /* \"#utility.yul\":9507:9510   */\n      dup3\n        /* \"#utility.yul\":9418:9511   */\n      tag_244\n      jump\t// in\n    tag_399:\n        /* \"#utility.yul\":9536:9538   */\n      0x20\n        /* \"#utility.yul\":9531:9534   */\n      dup3\n        /* \"#utility.yul\":9527:9539   */\n      add\n        /* \"#utility.yul\":9520:9539   */\n      swap1\n      pop\n        /* \"#utility.yul\":9179:9545   */\n      swap2\n      swap1\n      pop\n      jump\t// out\n        /* \"#utility.yul\":9551:9970   */\n    tag_79:\n        /* \"#utility.yul\":9717:9721   */\n      0x00\n        /* \"#utility.yul\":9755:9757   */\n      0x20\n        /* \"#utility.yul\":9744:9753   */\n      dup3\n        /* \"#utility.yul\":9740:9758   */\n      add\n        /* \"#utility.yul\":9732:9758   */\n      swap1\n      pop\n        /* \"#utility.yul\":9804:9813   */\n      dup2\n        /* \"#utility.yul\":9798:9802   */\n      dup2\n        /* \"#utility.yul\":9794:9814   */\n      sub\n        /* \"#utility.yul\":9790:9791   */\n      0x00\n        /* \"#utility.yul\":9779:9788   */\n      dup4\n        /* \"#utility.yul\":9775:9792   */\n      add\n        /* \"#utility.yul\":9768:9815   */\n      mstore\n        /* \"#utility.yul\":9832:9963   */\n      tag_401\n        /* \"#utility.yul\":9958:9962   */\n      dup2\n        /* \"#utility.yul\":9832:9963   */\n      tag_245\n      jump\t// in\n    tag_401:\n        /* \"#utility.yul\":9824:9963   */\n      swap1\n      pop\n        /* \"#utility.yul\":9551:9970   */\n      swap2\n      swap1\n      pop\n      jump\t// out\n        /* \"#utility.yul\":9976:10151   */\n    tag_246:\n        /* \"#utility.yul\":10116:10143   */\n      0x496e76616c6964204d6573736167696e67206164647265737300000000000000\n        /* \"#utility.yul\":10112:10113   */\n      0x00\n        /* \"#utility.yul\":10104:10110   */\n      dup3\n        /* \"#utility.yul\":10100:10114   */\n      add\n        /* \"#utility.yul\":10093:10144   */\n      mstore\n        /* \"#utility.yul\":9976:10151   */\n      pop\n      jump\t// out\n        /* \"#utility.yul\":10157:10523   */\n    tag_247:\n        /* \"#utility.yul\":10299:10302   */\n      0x00\n        /* \"#utility.yul\":10320:10387   */\n      tag_404\n        /* \"#utility.yul\":10384:10386   */\n      0x19\n        /* \"#utility.yul\":10379:10382   */\n      dup4\n        /* \"#utility.yul\":10320:10387   */\n      tag_243\n      jump\t// in\n    tag_404:\n        /* \"#utility.yul\":10313:10387   */\n      swap2\n      pop\n        /* \"#utility.yul\":10396:10489   */\n      tag_405\n        /* \"#utility.yul\":10485:10488   */\n      dup3\n        /* \"#utility.yul\":10396:10489   */\n      tag_246\n      jump\t// in\n    tag_405:\n        /* \"#utility.yul\":10514:10516   */\n      0x20\n        /* \"#utility.yul\":10509:10512   */\n      dup3\n        /* \"#utility.yul\":10505:10517   */\n      add\n        /* \"#utility.yul\":10498:10517   */\n      swap1\n      pop\n        /* \"#utility.yul\":10157:10523   */\n      swap2\n      swap1\n      pop\n      jump\t// out\n        /* \"#utility.yul\":10529:10948   */\n    tag_85:\n        /* \"#utility.yul\":10695:10699   */\n      0x00\n        /* \"#utility.yul\":10733:10735   */\n      0x20\n        /* \"#utility.yul\":10722:10731   */\n      dup3\n        /* \"#utility.yul\":10718:10736   */\n      add\n        /* \"#utility.yul\":10710:10736   */\n      swap1\n      pop\n        /* \"#utility.yul\":10782:10791   */\n      dup2\n        /* \"#utility.yul\":10776:10780   */\n      dup2\n        /* \"#utility.yul\":10772:10792   */\n      sub\n        /* \"#utility.yul\":10768:10769   */\n      0x00\n        /* \"#utility.yul\":10757:10766   */\n      dup4\n        /* \"#utility.yul\":10753:10770   */\n      add\n        /* \"#utility.yul\":10746:10793   */\n      mstore\n        /* \"#utility.yul\":10810:10941   */\n      tag_407\n        /* \"#utility.yul\":10936:10940   */\n      dup2\n        /* \"#utility.yul\":10810:10941   */\n      tag_247\n      jump\t// in\n    tag_407:\n        /* \"#utility.yul\":10802:10941   */\n      swap1\n      pop\n        /* \"#utility.yul\":10529:10948   */\n      swap2\n      swap1\n      pop\n      jump\t// out\n        /* \"#utility.yul\":10954:11124   */\n    tag_248:\n        /* \"#utility.yul\":11094:11116   */\n      0x496e76616c696420757365722061646472657373000000000000000000000000\n        /* \"#utility.yul\":11090:11091   */\n      0x00\n        /* \"#utility.yul\":11082:11088   */\n      dup3\n        /* \"#utility.yul\":11078:11092   */\n      add\n        /* \"#utility.yul\":11071:11117   */\n      mstore\n        /* \"#utility.yul\":10954:11124   */\n      pop\n      jump\t// out\n        /* \"#utility.yul\":11130:11496   */\n    tag_249:\n        /* \"#utility.yul\":11272:11275   */\n      0x00\n        /* \"#utility.yul\":11293:11360   */\n      tag_410\n        /* \"#utility.yul\":11357:11359   */\n      0x14\n        /* \"#utility.yul\":11352:11355   */\n      dup4\n        /* \"#utility.yul\":11293:11360   */\n      tag_243\n      jump\t// in\n    tag_410:\n        /* \"#utility.yul\":11286:11360   */\n      swap2\n      pop\n        /* \"#utility.yul\":11369:11462   */\n      tag_411\n        /* \"#utility.yul\":11458:11461   */\n      dup3\n        /* \"#utility.yul\":11369:11462   */\n      tag_248\n      jump\t// in\n    tag_411:\n        /* \"#utility.yul\":11487:11489   */\n      0x20\n        /* \"#utility.yul\":11482:11485   */\n      dup3\n        /* \"#utility.yul\":11478:11490   */\n      add\n        /* \"#utility.yul\":11471:11490   */\n      swap1\n      pop\n        /* \"#utility.yul\":11130:11496   */\n      swap2\n      swap1\n      pop\n      jump\t// out\n        /* \"#utility.yul\":11502:11921   */\n    tag_89:\n        /* \"#utility.yul\":11668:11672   */\n      0x00\n        /* \"#utility.yul\":11706:11708   */\n      0x20\n        /* \"#utility.yul\":11695:11704   */\n      dup3\n        /* \"#utility.yul\":11691:11709   */\n      add\n        /* \"#utility.yul\":11683:11709   */\n      swap1\n      pop\n        /* \"#utility.yul\":11755:11764   */\n      dup2\n        /* \"#utility.yul\":11749:11753   */\n      dup2\n        /* \"#utility.yul\":11745:11765   */\n      sub\n        /* \"#utility.yul\":11741:11742   */\n      0x00\n        /* \"#utility.yul\":11730:11739   */\n      dup4\n        /* \"#utility.yul\":11726:11743   */\n      add\n        /* \"#utility.yul\":11719:11766   */\n      mstore\n        /* \"#utility.yul\":11783:11914   */\n      tag_413\n        /* \"#utility.yul\":11909:11913   */\n      dup2\n        /* \"#utility.yul\":11783:11914   */\n      tag_249\n      jump\t// in\n    tag_413:\n        /* \"#utility.yul\":11775:11914   */\n      swap1\n      pop\n        /* \"#utility.yul\":11502:11921   */\n      swap2\n      swap1\n      pop\n      jump\t// out\n        /* \"#utility.yul\":11927:12100   */\n    tag_250:\n        /* \"#utility.yul\":12067:12092   */\n      0x5573657220616c72656164792072656769737465726564000000000000000000\n        /* \"#utility.yul\":12063:12064   */\n      0x00\n        /* \"#utility.yul\":12055:12061   */\n      dup3\n        /* \"#utility.yul\":12051:12065   */\n      add\n        /* \"#utility.yul\":12044:12093   */\n      mstore\n        /* \"#utility.yul\":11927:12100   */\n      pop\n      jump\t// out\n        /* \"#utility.yul\":12106:12472   */\n    tag_251:\n        /* \"#utility.yul\":12248:12251   */\n      0x00\n        /* \"#utility.yul\":12269:12336   */\n      tag_416\n        /* \"#utility.yul\":12333:12335   */\n      0x17\n        /* \"#utility.yul\":12328:12331   */\n      dup4\n        /* \"#utility.yul\":12269:12336   */\n      tag_243\n      jump\t// in\n    tag_416:\n        /* \"#utility.yul\":12262:12336   */\n      swap2\n      pop\n        /* \"#utility.yul\":12345:12438   */\n      tag_417\n        /* \"#utility.yul\":12434:12437   */\n      dup3\n        /* \"#utility.yul\":12345:12438   */\n      tag_250\n      jump\t// in\n    tag_417:\n        /* \"#utility.yul\":12463:12465   */\n      0x20\n        /* \"#utility.yul\":12458:12461   */\n      dup3\n        /* \"#utility.yul\":12454:12466   */\n      add\n        /* \"#utility.yul\":12447:12466   */\n      swap1\n      pop\n        /* \"#utility.yul\":12106:12472   */\n      swap2\n      swap1\n      pop\n      jump\t// out\n        /* \"#utility.yul\":12478:12897   */\n    tag_92:\n        /* \"#utility.yul\":12644:12648   */\n      0x00\n        /* \"#utility.yul\":12682:12684   */\n      0x20\n        /* \"#utility.yul\":12671:12680   */\n      dup3\n        /* \"#utility.yul\":12667:12685   */\n      add\n        /* \"#utility.yul\":12659:12685   */\n      swap1\n      pop\n        /* \"#utility.yul\":12731:12740   */\n      dup2\n        /* \"#utility.yul\":12725:12729   */\n      dup2\n        /* \"#utility.yul\":12721:12741   */\n      sub\n        /* \"#utility.yul\":12717:12718   */\n      0x00\n        /* \"#utility.yul\":12706:12715   */\n      dup4\n        /* \"#utility.yul\":12702:12719   */\n      add\n        /* \"#utility.yul\":12695:12742   */\n      mstore\n        /* \"#utility.yul\":12759:12890   */\n      tag_419\n        /* \"#utility.yul\":12885:12889   */\n      dup2\n        /* \"#utility.yul\":12759:12890   */\n      tag_251\n      jump\t// in\n    tag_419:\n        /* \"#utility.yul\":12751:12890   */\n      swap1\n      pop\n        /* \"#utility.yul\":12478:12897   */\n      swap2\n      swap1\n      pop\n      jump\t// out\n        /* \"#utility.yul\":12903:13076   */\n    tag_252:\n        /* \"#utility.yul\":13043:13068   */\n      0x496e76616c69642053746f726167652061646472657373000000000000000000\n        /* \"#utility.yul\":13039:13040   */\n      0x00\n        /* \"#utility.yul\":13031:13037   */\n      dup3\n        /* \"#utility.yul\":13027:13041   */\n      add\n        /* \"#utility.yul\":13020:13069   */\n      mstore\n        /* \"#utility.yul\":12903:13076   */\n      pop\n      jump\t// out\n        /* \"#utility.yul\":13082:13448   */\n    tag_253:\n        /* \"#utility.yul\":13224:13227   */\n      0x00\n        /* \"#utility.yul\":13245:13312   */\n      tag_422\n        /* \"#utility.yul\":13309:13311   */\n      0x17\n        /* \"#utility.yul\":13304:13307   */\n      dup4\n        /* \"#utility.yul\":13245:13312   */\n      tag_243\n      jump\t// in\n    tag_422:\n        /* \"#utility.yul\":13238:13312   */\n      swap2\n      pop\n        /* \"#utility.yul\":13321:13414   */\n      tag_423\n        /* \"#utility.yul\":13410:13413   */\n      dup3\n        /* \"#utility.yul\":13321:13414   */\n      tag_252\n      jump\t// in\n    tag_423:\n        /* \"#utility.yul\":13439:13441   */\n      0x20\n        /* \"#utility.yul\":13434:13437   */\n      dup3\n        /* \"#utility.yul\":13430:13442   */\n      add\n        /* \"#utility.yul\":13423:13442   */\n      swap1\n      pop\n        /* \"#utility.yul\":13082:13448   */\n      swap2\n      swap1\n      pop\n      jump\t// out\n        /* \"#utility.yul\":13454:13873   */\n    tag_98:\n        /* \"#utility.yul\":13620:13624   */\n      0x00\n        /* \"#utility.yul\":13658:13660   */\n      0x20\n        /* \"#utility.yul\":13647:13656   */\n      dup3\n        /* \"#utility.yul\":13643:13661   */\n      add\n        /* \"#utility.yul\":13635:13661   */\n      swap1\n      pop\n        /* \"#utility.yul\":13707:13716   */\n      dup2\n        /* \"#utility.yul\":13701:13705   */\n      dup2\n        /* \"#utility.yul\":13697:13717   */\n      sub\n        /* \"#utility.yul\":13693:13694   */\n      0x00\n        /* \"#utility.yul\":13682:13691   */\n      dup4\n        /* \"#utility.yul\":13678:13695   */\n      add\n        /* \"#utility.yul\":13671:13718   */\n      mstore\n        /* \"#utility.yul\":13735:13866   */\n      tag_425\n        /* \"#utility.yul\":13861:13865   */\n      dup2\n        /* \"#utility.yul\":13735:13866   */\n      tag_253\n      jump\t// in\n    tag_425:\n        /* \"#utility.yul\":13727:13866   */\n      swap1\n      pop\n        /* \"#utility.yul\":13454:13873   */\n      swap2\n      swap1\n      pop\n      jump\t// out\n        /* \"#utility.yul\":13879:14048   */\n    tag_254:\n        /* \"#utility.yul\":14019:14040   */\n      0x55736572206e6f74207265676973746572656400000000000000000000000000\n        /* \"#utility.yul\":14015:14016   */\n      0x00\n        /* \"#utility.yul\":14007:14013   */\n      dup3\n        /* \"#utility.yul\":14003:14017   */\n      add\n        /* \"#utility.yul\":13996:14041   */\n      mstore\n        /* \"#utility.yul\":13879:14048   */\n      pop\n      jump\t// out\n        /* \"#utility.yul\":14054:14420   */\n    tag_255:\n        /* \"#utility.yul\":14196:14199   */\n      0x00\n        /* \"#utility.yul\":14217:14284   */\n      tag_428\n        /* \"#utility.yul\":14281:14283   */\n      0x13\n        /* \"#utility.yul\":14276:14279   */\n      dup4\n        /* \"#utility.yul\":14217:14284   */\n      tag_243\n      jump\t// in\n    tag_428:\n        /* \"#utility.yul\":14210:14284   */\n      swap2\n      pop\n        /* \"#utility.yul\":14293:14386   */\n      tag_429\n        /* \"#utility.yul\":14382:14385   */\n      dup3\n        /* \"#utility.yul\":14293:14386   */\n      tag_254\n      jump\t// in\n    tag_429:\n        /* \"#utility.yul\":14411:14413   */\n      0x20\n        /* \"#utility.yul\":14406:14409   */\n      dup3\n        /* \"#utility.yul\":14402:14414   */\n      add\n        /* \"#utility.yul\":14395:14414   */\n      swap1\n      pop\n        /* \"#utility.yul\":14054:14420   */\n      swap2\n      swap1\n      pop\n      jump\t// out\n        /* \"#utility.yul\":14426:14845   */\n    tag_108:\n        /* \"#utility.yul\":14592:14596   */\n      0x00\n        /* \"#utility.yul\":14630:14632   */\n      0x20\n        /* \"#utility.yul\":14619:14628   */\n      dup3\n        /* \"#utility.yul\":14615:14633   */\n      add\n        /* \"#utility.yul\":14607:14633   */\n      swap1\n      pop\n        /* \"#utility.yul\":14679:14688   */\n      dup2\n        /* \"#utility.yul\":14673:14677   */\n      dup2\n        /* \"#utility.yul\":14669:14689   */\n      sub\n        /* \"#utility.yul\":14665:14666   */\n      0x00\n        /* \"#utility.yul\":14654:14663   */\n      dup4\n        /* \"#utility.yul\":14650:14667   */\n      add\n        /* \"#utility.yul\":14643:14690   */\n      mstore\n        /* \"#utility.yul\":14707:14838   */\n      tag_431\n        /* \"#utility.yul\":14833:14837   */\n      dup2\n        /* \"#utility.yul\":14707:14838   */\n      tag_255\n      jump\t// in\n    tag_431:\n        /* \"#utility.yul\":14699:14838   */\n      swap1\n      pop\n        /* \"#utility.yul\":14426:14845   */\n      swap2\n      swap1\n      pop\n      jump\t// out\n        /* \"#utility.yul\":14851:14969   */\n    tag_256:\n        /* \"#utility.yul\":14938:14962   */\n      tag_433\n        /* \"#utility.yul\":14956:14961   */\n      dup2\n        /* \"#utility.yul\":14938:14962   */\n      tag_226\n      jump\t// in\n    tag_433:\n        /* \"#utility.yul\":14933:14936   */\n      dup3\n        /* \"#utility.yul\":14926:14963   */\n      mstore\n        /* \"#utility.yul\":14851:14969   */\n      pop\n      pop\n      jump\t// out\n        /* \"#utility.yul\":14975:15307   */\n    tag_114:\n        /* \"#utility.yul\":15096:15100   */\n      0x00\n        /* \"#utility.yul\":15134:15136   */\n      0x40\n        /* \"#utility.yul\":15123:15132   */\n      dup3\n        /* \"#utility.yul\":15119:15137   */\n      add\n        /* \"#utility.yul\":15111:15137   */\n      swap1\n      pop\n        /* \"#utility.yul\":15147:15218   */\n      tag_435\n        /* \"#utility.yul\":15215:15216   */\n      0x00\n        /* \"#utility.yul\":15204:15213   */\n      dup4\n        /* \"#utility.yul\":15200:15217   */\n      add\n        /* \"#utility.yul\":15191:15197   */\n      dup6\n        /* \"#utility.yul\":15147:15218   */\n      tag_256\n      jump\t// in\n    tag_435:\n        /* \"#utility.yul\":15228:15300   */\n      tag_436\n        /* \"#utility.yul\":15296:15298   */\n      0x20\n        /* \"#utility.yul\":15285:15294   */\n      dup4\n        /* \"#utility.yul\":15281:15299   */\n      add\n        /* \"#utility.yul\":15272:15278   */\n      dup5\n        /* \"#utility.yul\":15228:15300   */\n      tag_225\n      jump\t// in\n    tag_436:\n        /* \"#utility.yul\":14975:15307   */\n      swap4\n      swap3\n      pop\n      pop\n      pop\n      jump\t// out\n        /* \"#utility.yul\":15313:15429   */\n    tag_257:\n        /* \"#utility.yul\":15383:15404   */\n      tag_438\n        /* \"#utility.yul\":15398:15403   */\n      dup2\n        /* \"#utility.yul\":15383:15404   */\n      tag_216\n      jump\t// in\n    tag_438:\n        /* \"#utility.yul\":15376:15381   */\n      dup2\n        /* \"#utility.yul\":15373:15405   */\n      eq\n        /* \"#utility.yul\":15363:15423   */\n      tag_439\n      jumpi\n        /* \"#utility.yul\":15419:15420   */\n      0x00\n        /* \"#utility.yul\":15416:15417   */\n      dup1\n        /* \"#utility.yul\":15409:15421   */\n      revert\n        /* \"#utility.yul\":15363:15423   */\n    tag_439:\n        /* \"#utility.yul\":15313:15429   */\n      pop\n      jump\t// out\n        /* \"#utility.yul\":15435:15572   */\n    tag_258:\n        /* \"#utility.yul\":15489:15494   */\n      0x00\n        /* \"#utility.yul\":15520:15526   */\n      dup2\n        /* \"#utility.yul\":15514:15527   */\n      mload\n        /* \"#utility.yul\":15505:15527   */\n      swap1\n      pop\n        /* \"#utility.yul\":15536:15566   */\n      tag_441\n        /* \"#utility.yul\":15560:15565   */\n      dup2\n        /* \"#utility.yul\":15536:15566   */\n      tag_257\n      jump\t// in\n    tag_441:\n        /* \"#utility.yul\":15435:15572   */\n      swap3\n      swap2\n      pop\n      pop\n      jump\t// out\n        /* \"#utility.yul\":15578:15923   */\n    tag_118:\n        /* \"#utility.yul\":15645:15651   */\n      0x00\n        /* \"#utility.yul\":15694:15696   */\n      0x20\n        /* \"#utility.yul\":15682:15691   */\n      dup3\n        /* \"#utility.yul\":15673:15680   */\n      dup5\n        /* \"#utility.yul\":15669:15692   */\n      sub\n        /* \"#utility.yul\":15665:15697   */\n      slt\n        /* \"#utility.yul\":15662:15781   */\n      iszero\n      tag_443\n      jumpi\n        /* \"#utility.yul\":15700:15779   */\n      tag_444\n      tag_210\n      jump\t// in\n    tag_444:\n        /* \"#utility.yul\":15662:15781   */\n    tag_443:\n        /* \"#utility.yul\":15820:15821   */\n      0x00\n        /* \"#utility.yul\":15845:15906   */\n      tag_445\n        /* \"#utility.yul\":15898:15905   */\n      dup5\n        /* \"#utility.yul\":15889:15895   */\n      dup3\n        /* \"#utility.yul\":15878:15887   */\n      dup6\n        /* \"#utility.yul\":15874:15896   */\n      add\n        /* \"#utility.yul\":15845:15906   */\n      tag_258\n      jump\t// in\n    tag_445:\n        /* \"#utility.yul\":15835:15906   */\n      swap2\n      pop\n        /* \"#utility.yul\":15791:15916   */\n      pop\n        /* \"#utility.yul\":15578:15923   */\n      swap3\n      swap2\n      pop\n      pop\n      jump\t// out\n        /* \"#utility.yul\":15929:16154   */\n    tag_259:\n        /* \"#utility.yul\":16069:16103   */\n      0x5573657220646f6573206e6f7420686176652061636365737320746f20746869\n        /* \"#utility.yul\":16065:16066   */\n      0x00\n        /* \"#utility.yul\":16057:16063   */\n      dup3\n        /* \"#utility.yul\":16053:16067   */\n      add\n        /* \"#utility.yul\":16046:16104   */\n      mstore\n        /* \"#utility.yul\":16138:16146   */\n      0x732066696c650000000000000000000000000000000000000000000000000000\n        /* \"#utility.yul\":16133:16135   */\n      0x20\n        /* \"#utility.yul\":16125:16131   */\n      dup3\n        /* \"#utility.yul\":16121:16136   */\n      add\n        /* \"#utility.yul\":16114:16147   */\n      mstore\n        /* \"#utility.yul\":15929:16154   */\n      pop\n      jump\t// out\n        /* \"#utility.yul\":16160:16526   */\n    tag_260:\n        /* \"#utility.yul\":16302:16305   */\n      0x00\n        /* \"#utility.yul\":16323:16390   */\n      tag_448\n        /* \"#utility.yul\":16387:16389   */\n      0x26\n        /* \"#utility.yul\":16382:16385   */\n      dup4\n        /* \"#utility.yul\":16323:16390   */\n      tag_243\n      jump\t// in\n    tag_448:\n        /* \"#utility.yul\":16316:16390   */\n      swap2\n      pop\n        /* \"#utility.yul\":16399:16492   */\n      tag_449\n        /* \"#utility.yul\":16488:16491   */\n      dup3\n        /* \"#utility.yul\":16399:16492   */\n      tag_259\n      jump\t// in\n    tag_449:\n        /* \"#utility.yul\":16517:16519   */\n      0x40\n        /* \"#utility.yul\":16512:16515   */\n      dup3\n        /* \"#utility.yul\":16508:16520   */\n      add\n        /* \"#utility.yul\":16501:16520   */\n      swap1\n      pop\n        /* \"#utility.yul\":16160:16526   */\n      swap2\n      swap1\n      pop\n      jump\t// out\n        /* \"#utility.yul\":16532:16951   */\n    tag_121:\n        /* \"#utility.yul\":16698:16702   */\n      0x00\n        /* \"#utility.yul\":16736:16738   */\n      0x20\n        /* \"#utility.yul\":16725:16734   */\n      dup3\n        /* \"#utility.yul\":16721:16739   */\n      add\n        /* \"#utility.yul\":16713:16739   */\n      swap1\n      pop\n        /* \"#utility.yul\":16785:16794   */\n      dup2\n        /* \"#utility.yul\":16779:16783   */\n      dup2\n        /* \"#utility.yul\":16775:16795   */\n      sub\n        /* \"#utility.yul\":16771:16772   */\n      0x00\n        /* \"#utility.yul\":16760:16769   */\n      dup4\n        /* \"#utility.yul\":16756:16773   */\n      add\n        /* \"#utility.yul\":16749:16796   */\n      mstore\n        /* \"#utility.yul\":16813:16944   */\n      tag_451\n        /* \"#utility.yul\":16939:16943   */\n      dup2\n        /* \"#utility.yul\":16813:16944   */\n      tag_260\n      jump\t// in\n    tag_451:\n        /* \"#utility.yul\":16805:16944   */\n      swap1\n      pop\n        /* \"#utility.yul\":16532:16951   */\n      swap2\n      swap1\n      pop\n      jump\t// out\n        /* \"#utility.yul\":16957:17179   */\n    tag_123:\n        /* \"#utility.yul\":17050:17054   */\n      0x00\n        /* \"#utility.yul\":17088:17090   */\n      0x20\n        /* \"#utility.yul\":17077:17086   */\n      dup3\n        /* \"#utility.yul\":17073:17091   */\n      add\n        /* \"#utility.yul\":17065:17091   */\n      swap1\n      pop\n        /* \"#utility.yul\":17101:17172   */\n      tag_453\n        /* \"#utility.yul\":17169:17170   */\n      0x00\n        /* \"#utility.yul\":17158:17167   */\n      dup4\n        /* \"#utility.yul\":17154:17171   */\n      add\n        /* \"#utility.yul\":17145:17151   */\n      dup5\n        /* \"#utility.yul\":17101:17172   */\n      tag_256\n      jump\t// in\n    tag_453:\n        /* \"#utility.yul\":16957:17179   */\n      swap3\n      swap2\n      pop\n      pop\n      jump\t// out\n        /* \"#utility.yul\":17185:17302   */\n    tag_261:\n        /* \"#utility.yul\":17294:17295   */\n      0x00\n        /* \"#utility.yul\":17291:17292   */\n      dup1\n        /* \"#utility.yul\":17284:17296   */\n      revert\n        /* \"#utility.yul\":17308:17488   */\n    tag_262:\n        /* \"#utility.yul\":17356:17433   */\n      0x4e487b7100000000000000000000000000000000000000000000000000000000\n        /* \"#utility.yul\":17353:17354   */\n      0x00\n        /* \"#utility.yul\":17346:17434   */\n      mstore\n        /* \"#utility.yul\":17453:17457   */\n      0x41\n        /* \"#utility.yul\":17450:17451   */\n      0x04\n        /* \"#utility.yul\":17443:17458   */\n      mstore\n        /* \"#utility.yul\":17477:17481   */\n      0x24\n        /* \"#utility.yul\":17474:17475   */\n      0x00\n        /* \"#utility.yul\":17467:17482   */\n      revert\n        /* \"#utility.yul\":17494:17775   */\n    tag_263:\n        /* \"#utility.yul\":17577:17604   */\n      tag_457\n        /* \"#utility.yul\":17599:17603   */\n      dup3\n        /* \"#utility.yul\":17577:17604   */\n      tag_232\n      jump\t// in\n    tag_457:\n        /* \"#utility.yul\":17569:17575   */\n      dup2\n        /* \"#utility.yul\":17565:17605   */\n      add\n        /* \"#utility.yul\":17707:17713   */\n      dup2\n        /* \"#utility.yul\":17695:17705   */\n      dup2\n        /* \"#utility.yul\":17692:17714   */\n      lt\n        /* \"#utility.yul\":17671:17689   */\n      0xffffffffffffffff\n        /* \"#utility.yul\":17659:17669   */\n      dup3\n        /* \"#utility.yul\":17656:17690   */\n      gt\n        /* \"#utility.yul\":17653:17715   */\n      or\n        /* \"#utility.yul\":17650:17738   */\n      iszero\n      tag_458\n      jumpi\n        /* \"#utility.yul\":17718:17736   */\n      tag_459\n      tag_262\n      jump\t// in\n    tag_459:\n        /* \"#utility.yul\":17650:17738   */\n    tag_458:\n        /* \"#utility.yul\":17758:17768   */\n      dup1\n        /* \"#utility.yul\":17754:17756   */\n      0x40\n        /* \"#utility.yul\":17747:17769   */\n      mstore\n        /* \"#utility.yul\":17537:17775   */\n      pop\n        /* \"#utility.yul\":17494:17775   */\n      pop\n      pop\n      jump\t// out\n        /* \"#utility.yul\":17781:17910   */\n    tag_264:\n        /* \"#utility.yul\":17815:17821   */\n      0x00\n        /* \"#utility.yul\":17842:17862   */\n      tag_461\n      tag_209\n      jump\t// in\n    tag_461:\n        /* \"#utility.yul\":17832:17862   */\n      swap1\n      pop\n        /* \"#utility.yul\":17871:17904   */\n      tag_462\n        /* \"#utility.yul\":17899:17903   */\n      dup3\n        /* \"#utility.yul\":17891:17897   */\n      dup3\n        /* \"#utility.yul\":17871:17904   */\n      tag_263\n      jump\t// in\n    tag_462:\n        /* \"#utility.yul\":17781:17910   */\n      swap2\n      swap1\n      pop\n      jump\t// out\n        /* \"#utility.yul\":18039:18182   */\n    tag_266:\n        /* \"#utility.yul\":18096:18101   */\n      0x00\n        /* \"#utility.yul\":18127:18133   */\n      dup2\n        /* \"#utility.yul\":18121:18134   */\n      mload\n        /* \"#utility.yul\":18112:18134   */\n      swap1\n      pop\n        /* \"#utility.yul\":18143:18176   */\n      tag_465\n        /* \"#utility.yul\":18170:18175   */\n      dup2\n        /* \"#utility.yul\":18143:18176   */\n      tag_227\n      jump\t// in\n    tag_465:\n        /* \"#utility.yul\":18039:18182   */\n      swap3\n      swap2\n      pop\n      pop\n      jump\t// out\n        /* \"#utility.yul\":18188:18331   */\n    tag_267:\n        /* \"#utility.yul\":18245:18250   */\n      0x00\n        /* \"#utility.yul\":18276:18282   */\n      dup2\n        /* \"#utility.yul\":18270:18283   */\n      mload\n        /* \"#utility.yul\":18261:18283   */\n      swap1\n      pop\n        /* \"#utility.yul\":18292:18325   */\n      tag_467\n        /* \"#utility.yul\":18319:18324   */\n      dup2\n        /* \"#utility.yul\":18292:18325   */\n      tag_214\n      jump\t// in\n    tag_467:\n        /* \"#utility.yul\":18188:18331   */\n      swap3\n      swap2\n      pop\n      pop\n      jump\t// out\n        /* \"#utility.yul\":18337:18480   */\n    tag_268:\n        /* \"#utility.yul\":18394:18399   */\n      0x00\n        /* \"#utility.yul\":18425:18431   */\n      dup2\n        /* \"#utility.yul\":18419:18432   */\n      mload\n        /* \"#utility.yul\":18410:18432   */\n      swap1\n      pop\n        /* \"#utility.yul\":18441:18474   */\n      tag_469\n        /* \"#utility.yul\":18468:18473   */\n      dup2\n        /* \"#utility.yul\":18441:18474   */\n      tag_239\n      jump\t// in\n    tag_469:\n        /* \"#utility.yul\":18337:18480   */\n      swap3\n      swap2\n      pop\n      pop\n      jump\t// out\n        /* \"#utility.yul\":18523:20017   */\n    tag_269:\n        /* \"#utility.yul\":18608:18613   */\n      0x00\n        /* \"#utility.yul\":18652:18656   */\n      0xe0\n        /* \"#utility.yul\":18640:18649   */\n      dup3\n        /* \"#utility.yul\":18635:18638   */\n      dup5\n        /* \"#utility.yul\":18631:18650   */\n      sub\n        /* \"#utility.yul\":18627:18657   */\n      slt\n        /* \"#utility.yul\":18624:18741   */\n      iszero\n      tag_471\n      jumpi\n        /* \"#utility.yul\":18660:18739   */\n      tag_472\n      tag_261\n      jump\t// in\n    tag_472:\n        /* \"#utility.yul\":18624:18741   */\n    tag_471:\n        /* \"#utility.yul\":18759:18780   */\n      tag_473\n        /* \"#utility.yul\":18775:18779   */\n      0xe0\n        /* \"#utility.yul\":18759:18780   */\n      tag_264\n      jump\t// in\n    tag_473:\n        /* \"#utility.yul\":18750:18780   */\n      swap1\n      pop\n        /* \"#utility.yul\":18843:18844   */\n      0x00\n        /* \"#utility.yul\":18883:18943   */\n      tag_474\n        /* \"#utility.yul\":18939:18942   */\n      dup5\n        /* \"#utility.yul\":18930:18936   */\n      dup3\n        /* \"#utility.yul\":18919:18928   */\n      dup6\n        /* \"#utility.yul\":18915:18937   */\n      add\n        /* \"#utility.yul\":18883:18943   */\n      tag_266\n      jump\t// in\n    tag_474:\n        /* \"#utility.yul\":18876:18880   */\n      0x00\n        /* \"#utility.yul\":18869:18874   */\n      dup4\n        /* \"#utility.yul\":18865:18881   */\n      add\n        /* \"#utility.yul\":18858:18944   */\n      mstore\n        /* \"#utility.yul\":18790:18955   */\n      pop\n        /* \"#utility.yul\":19015:19017   */\n      0x20\n        /* \"#utility.yul\":19056:19116   */\n      tag_475\n        /* \"#utility.yul\":19112:19115   */\n      dup5\n        /* \"#utility.yul\":19103:19109   */\n      dup3\n        /* \"#utility.yul\":19092:19101   */\n      dup6\n        /* \"#utility.yul\":19088:19110   */\n      add\n        /* \"#utility.yul\":19056:19116   */\n      tag_267\n      jump\t// in\n    tag_475:\n        /* \"#utility.yul\":19049:19053   */\n      0x20\n        /* \"#utility.yul\":19042:19047   */\n      dup4\n        /* \"#utility.yul\":19038:19054   */\n      add\n        /* \"#utility.yul\":19031:19117   */\n      mstore\n        /* \"#utility.yul\":18965:19128   */\n      pop\n        /* \"#utility.yul\":19187:19189   */\n      0x40\n        /* \"#utility.yul\":19228:19288   */\n      tag_476\n        /* \"#utility.yul\":19284:19287   */\n      dup5\n        /* \"#utility.yul\":19275:19281   */\n      dup3\n        /* \"#utility.yul\":19264:19273   */\n      dup6\n        /* \"#utility.yul\":19260:19282   */\n      add\n        /* \"#utility.yul\":19228:19288   */\n      tag_268\n      jump\t// in\n    tag_476:\n        /* \"#utility.yul\":19221:19225   */\n      0x40\n        /* \"#utility.yul\":19214:19219   */\n      dup4\n        /* \"#utility.yul\":19210:19226   */\n      add\n        /* \"#utility.yul\":19203:19289   */\n      mstore\n        /* \"#utility.yul\":19138:19300   */\n      pop\n        /* \"#utility.yul\":19364:19366   */\n      0x60\n        /* \"#utility.yul\":19405:19465   */\n      tag_477\n        /* \"#utility.yul\":19461:19464   */\n      dup5\n        /* \"#utility.yul\":19452:19458   */\n      dup3\n        /* \"#utility.yul\":19441:19450   */\n      dup6\n        /* \"#utility.yul\":19437:19459   */\n      add\n        /* \"#utility.yul\":19405:19465   */\n      tag_268\n      jump\t// in\n    tag_477:\n        /* \"#utility.yul\":19398:19402   */\n      0x60\n        /* \"#utility.yul\":19391:19396   */\n      dup4\n        /* \"#utility.yul\":19387:19403   */\n      add\n        /* \"#utility.yul\":19380:19466   */\n      mstore\n        /* \"#utility.yul\":19310:19477   */\n      pop\n        /* \"#utility.yul\":19543:19546   */\n      0x80\n        /* \"#utility.yul\":19585:19642   */\n      tag_478\n        /* \"#utility.yul\":19638:19641   */\n      dup5\n        /* \"#utility.yul\":19629:19635   */\n      dup3\n        /* \"#utility.yul\":19618:19627   */\n      dup6\n        /* \"#utility.yul\":19614:19636   */\n      add\n        /* \"#utility.yul\":19585:19642   */\n      tag_258\n      jump\t// in\n    tag_478:\n        /* \"#utility.yul\":19578:19582   */\n      0x80\n        /* \"#utility.yul\":19571:19576   */\n      dup4\n        /* \"#utility.yul\":19567:19583   */\n      add\n        /* \"#utility.yul\":19560:19643   */\n      mstore\n        /* \"#utility.yul\":19487:19654   */\n      pop\n        /* \"#utility.yul\":19724:19727   */\n      0xa0\n        /* \"#utility.yul\":19766:19826   */\n      tag_479\n        /* \"#utility.yul\":19822:19825   */\n      dup5\n        /* \"#utility.yul\":19813:19819   */\n      dup3\n        /* \"#utility.yul\":19802:19811   */\n      dup6\n        /* \"#utility.yul\":19798:19820   */\n      add\n        /* \"#utility.yul\":19766:19826   */\n      tag_266\n      jump\t// in\n    tag_479:\n        /* \"#utility.yul\":19759:19763   */\n      0xa0\n        /* \"#utility.yul\":19752:19757   */\n      dup4\n        /* \"#utility.yul\":19748:19764   */\n      add\n        /* \"#utility.yul\":19741:19827   */\n      mstore\n        /* \"#utility.yul\":19664:19838   */\n      pop\n        /* \"#utility.yul\":19899:19902   */\n      0xc0\n        /* \"#utility.yul\":19941:19998   */\n      tag_480\n        /* \"#utility.yul\":19994:19997   */\n      dup5\n        /* \"#utility.yul\":19985:19991   */\n      dup3\n        /* \"#utility.yul\":19974:19983   */\n      dup6\n        /* \"#utility.yul\":19970:19992   */\n      add\n        /* \"#utility.yul\":19941:19998   */\n      tag_258\n      jump\t// in\n    tag_480:\n        /* \"#utility.yul\":19934:19938   */\n      0xc0\n        /* \"#utility.yul\":19927:19932   */\n      dup4\n        /* \"#utility.yul\":19923:19939   */\n      add\n        /* \"#utility.yul\":19916:19999   */\n      mstore\n        /* \"#utility.yul\":19848:20010   */\n      pop\n        /* \"#utility.yul\":18523:20017   */\n      swap3\n      swap2\n      pop\n      pop\n      jump\t// out\n        /* \"#utility.yul\":20023:20425   */\n    tag_127:\n        /* \"#utility.yul\":20118:20124   */\n      0x00\n        /* \"#utility.yul\":20167:20170   */\n      0xe0\n        /* \"#utility.yul\":20155:20164   */\n      dup3\n        /* \"#utility.yul\":20146:20153   */\n      dup5\n        /* \"#utility.yul\":20142:20165   */\n      sub\n        /* \"#utility.yul\":20138:20171   */\n      slt\n        /* \"#utility.yul\":20135:20255   */\n      iszero\n      tag_482\n      jumpi\n        /* \"#utility.yul\":20174:20253   */\n      tag_483\n      tag_210\n      jump\t// in\n    tag_483:\n        /* \"#utility.yul\":20135:20255   */\n    tag_482:\n        /* \"#utility.yul\":20294:20295   */\n      0x00\n        /* \"#utility.yul\":20319:20408   */\n      tag_484\n        /* \"#utility.yul\":20400:20407   */\n      dup5\n        /* \"#utility.yul\":20391:20397   */\n      dup3\n        /* \"#utility.yul\":20380:20389   */\n      dup6\n        /* \"#utility.yul\":20376:20398   */\n      add\n        /* \"#utility.yul\":20319:20408   */\n      tag_269\n      jump\t// in\n    tag_484:\n        /* \"#utility.yul\":20309:20408   */\n      swap2\n      pop\n        /* \"#utility.yul\":20265:20418   */\n      pop\n        /* \"#utility.yul\":20023:20425   */\n      swap3\n      swap2\n      pop\n      pop\n      jump\t// out\n        /* \"#utility.yul\":20431:20600   */\n    tag_270:\n        /* \"#utility.yul\":20571:20592   */\n      0x46696c6520646f6573206e6f7420657869737400000000000000000000000000\n        /* \"#utility.yul\":20567:20568   */\n      0x00\n        /* \"#utility.yul\":20559:20565   */\n      dup3\n        /* \"#utility.yul\":20555:20569   */\n      add\n        /* \"#utility.yul\":20548:20593   */\n      mstore\n        /* \"#utility.yul\":20431:20600   */\n      pop\n      jump\t// out\n        /* \"#utility.yul\":20606:20972   */\n    tag_271:\n        /* \"#utility.yul\":20748:20751   */\n      0x00\n        /* \"#utility.yul\":20769:20836   */\n      tag_487\n        /* \"#utility.yul\":20833:20835   */\n      0x13\n        /* \"#utility.yul\":20828:20831   */\n      dup4\n        /* \"#utility.yul\":20769:20836   */\n      tag_243\n      jump\t// in\n    tag_487:\n        /* \"#utility.yul\":20762:20836   */\n      swap2\n      pop\n        /* \"#utility.yul\":20845:20938   */\n      tag_488\n        /* \"#utility.yul\":20934:20937   */\n      dup3\n        /* \"#utility.yul\":20845:20938   */\n      tag_270\n      jump\t// in\n    tag_488:\n        /* \"#utility.yul\":20963:20965   */\n      0x20\n        /* \"#utility.yul\":20958:20961   */\n      dup3\n        /* \"#utility.yul\":20954:20966   */\n      add\n        /* \"#utility.yul\":20947:20966   */\n      swap1\n      pop\n        /* \"#utility.yul\":20606:20972   */\n      swap2\n      swap1\n      pop\n      jump\t// out\n        /* \"#utility.yul\":20978:21397   */\n    tag_130:\n        /* \"#utility.yul\":21144:21148   */\n      0x00\n        /* \"#utility.yul\":21182:21184   */\n      0x20\n        /* \"#utility.yul\":21171:21180   */\n      dup3\n        /* \"#utility.yul\":21167:21185   */\n      add\n        /* \"#utility.yul\":21159:21185   */\n      swap1\n      pop\n        /* \"#utility.yul\":21231:21240   */\n      dup2\n        /* \"#utility.yul\":21225:21229   */\n      dup2\n        /* \"#utility.yul\":21221:21241   */\n      sub\n        /* \"#utility.yul\":21217:21218   */\n      0x00\n        /* \"#utility.yul\":21206:21215   */\n      dup4\n        /* \"#utility.yul\":21202:21219   */\n      add\n        /* \"#utility.yul\":21195:21242   */\n      mstore\n        /* \"#utility.yul\":21259:21390   */\n      tag_490\n        /* \"#utility.yul\":21385:21389   */\n      dup2\n        /* \"#utility.yul\":21259:21390   */\n      tag_271\n      jump\t// in\n    tag_490:\n        /* \"#utility.yul\":21251:21390   */\n      swap1\n      pop\n        /* \"#utility.yul\":20978:21397   */\n      swap2\n      swap1\n      pop\n      jump\t// out\n        /* \"#utility.yul\":21403:21520   */\n    tag_272:\n        /* \"#utility.yul\":21512:21513   */\n      0x00\n        /* \"#utility.yul\":21509:21510   */\n      dup1\n        /* \"#utility.yul\":21502:21514   */\n      revert\n        /* \"#utility.yul\":21526:21833   */\n    tag_273:\n        /* \"#utility.yul\":21587:21591   */\n      0x00\n        /* \"#utility.yul\":21677:21695   */\n      0xffffffffffffffff\n        /* \"#utility.yul\":21669:21675   */\n      dup3\n        /* \"#utility.yul\":21666:21696   */\n      gt\n        /* \"#utility.yul\":21663:21719   */\n      iszero\n      tag_493\n      jumpi\n        /* \"#utility.yul\":21699:21717   */\n      tag_494\n      tag_262\n      jump\t// in\n    tag_494:\n        /* \"#utility.yul\":21663:21719   */\n    tag_493:\n        /* \"#utility.yul\":21737:21766   */\n      tag_495\n        /* \"#utility.yul\":21759:21765   */\n      dup3\n        /* \"#utility.yul\":21737:21766   */\n      tag_232\n      jump\t// in\n    tag_495:\n        /* \"#utility.yul\":21729:21766   */\n      swap1\n      pop\n        /* \"#utility.yul\":21821:21825   */\n      0x20\n        /* \"#utility.yul\":21815:21819   */\n      dup2\n        /* \"#utility.yul\":21811:21826   */\n      add\n        /* \"#utility.yul\":21803:21826   */\n      swap1\n      pop\n        /* \"#utility.yul\":21526:21833   */\n      swap2\n      swap1\n      pop\n      jump\t// out\n        /* \"#utility.yul\":21839:22271   */\n    tag_274:\n        /* \"#utility.yul\":21927:21932   */\n      0x00\n        /* \"#utility.yul\":21952:22017   */\n      tag_497\n        /* \"#utility.yul\":21968:22016   */\n      tag_498\n        /* \"#utility.yul\":22009:22015   */\n      dup5\n        /* \"#utility.yul\":21968:22016   */\n      tag_273\n      jump\t// in\n    tag_498:\n        /* \"#utility.yul\":21952:22017   */\n      tag_264\n      jump\t// in\n    tag_497:\n        /* \"#utility.yul\":21943:22017   */\n      swap1\n      pop\n        /* \"#utility.yul\":22040:22046   */\n      dup3\n        /* \"#utility.yul\":22033:22038   */\n      dup2\n        /* \"#utility.yul\":22026:22047   */\n      mstore\n        /* \"#utility.yul\":22078:22082   */\n      0x20\n        /* \"#utility.yul\":22071:22076   */\n      dup2\n        /* \"#utility.yul\":22067:22083   */\n      add\n        /* \"#utility.yul\":22116:22119   */\n      dup5\n        /* \"#utility.yul\":22107:22113   */\n      dup5\n        /* \"#utility.yul\":22102:22105   */\n      dup5\n        /* \"#utility.yul\":22098:22114   */\n      add\n        /* \"#utility.yul\":22095:22120   */\n      gt\n        /* \"#utility.yul\":22092:22204   */\n      iszero\n      tag_499\n      jumpi\n        /* \"#utility.yul\":22123:22202   */\n      tag_500\n      tag_272\n      jump\t// in\n    tag_500:\n        /* \"#utility.yul\":22092:22204   */\n    tag_499:\n        /* \"#utility.yul\":22213:22265   */\n      tag_501\n        /* \"#utility.yul\":22258:22264   */\n      dup5\n        /* \"#utility.yul\":22253:22256   */\n      dup3\n        /* \"#utility.yul\":22248:22251   */\n      dup6\n        /* \"#utility.yul\":22213:22265   */\n      tag_231\n      jump\t// in\n    tag_501:\n        /* \"#utility.yul\":21933:22271   */\n      pop\n        /* \"#utility.yul\":21839:22271   */\n      swap4\n      swap3\n      pop\n      pop\n      pop\n      jump\t// out\n        /* \"#utility.yul\":22290:22643   */\n    tag_275:\n        /* \"#utility.yul\":22356:22361   */\n      0x00\n        /* \"#utility.yul\":22405:22408   */\n      dup3\n        /* \"#utility.yul\":22398:22402   */\n      0x1f\n        /* \"#utility.yul\":22390:22396   */\n      dup4\n        /* \"#utility.yul\":22386:22403   */\n      add\n        /* \"#utility.yul\":22382:22409   */\n      slt\n        /* \"#utility.yul\":22372:22494   */\n      tag_503\n      jumpi\n        /* \"#utility.yul\":22413:22492   */\n      tag_504\n      tag_234\n      jump\t// in\n    tag_504:\n        /* \"#utility.yul\":22372:22494   */\n    tag_503:\n        /* \"#utility.yul\":22523:22529   */\n      dup2\n        /* \"#utility.yul\":22517:22530   */\n      mload\n        /* \"#utility.yul\":22548:22637   */\n      tag_505\n        /* \"#utility.yul\":22633:22636   */\n      dup5\n        /* \"#utility.yul\":22625:22631   */\n      dup3\n        /* \"#utility.yul\":22618:22622   */\n      0x20\n        /* \"#utility.yul\":22610:22616   */\n      dup7\n        /* \"#utility.yul\":22606:22623   */\n      add\n        /* \"#utility.yul\":22548:22637   */\n      tag_274\n      jump\t// in\n    tag_505:\n        /* \"#utility.yul\":22539:22637   */\n      swap2\n      pop\n        /* \"#utility.yul\":22362:22643   */\n      pop\n        /* \"#utility.yul\":22290:22643   */\n      swap3\n      swap2\n      pop\n      pop\n      jump\t// out\n        /* \"#utility.yul\":22649:23171   */\n    tag_135:\n        /* \"#utility.yul\":22728:22734   */\n      0x00\n        /* \"#utility.yul\":22777:22779   */\n      0x20\n        /* \"#utility.yul\":22765:22774   */\n      dup3\n        /* \"#utility.yul\":22756:22763   */\n      dup5\n        /* \"#utility.yul\":22752:22775   */\n      sub\n        /* \"#utility.yul\":22748:22780   */\n      slt\n        /* \"#utility.yul\":22745:22864   */\n      iszero\n      tag_507\n      jumpi\n        /* \"#utility.yul\":22783:22862   */\n      tag_508\n      tag_210\n      jump\t// in\n    tag_508:\n        /* \"#utility.yul\":22745:22864   */\n    tag_507:\n        /* \"#utility.yul\":22924:22925   */\n      0x00\n        /* \"#utility.yul\":22913:22922   */\n      dup3\n        /* \"#utility.yul\":22909:22926   */\n      add\n        /* \"#utility.yul\":22903:22927   */\n      mload\n        /* \"#utility.yul\":22954:22972   */\n      0xffffffffffffffff\n        /* \"#utility.yul\":22946:22952   */\n      dup2\n        /* \"#utility.yul\":22943:22973   */\n      gt\n        /* \"#utility.yul\":22940:23057   */\n      iszero\n      tag_509\n      jumpi\n        /* \"#utility.yul\":22976:23055   */\n      tag_510\n      tag_211\n      jump\t// in\n    tag_510:\n        /* \"#utility.yul\":22940:23057   */\n    tag_509:\n        /* \"#utility.yul\":23081:23154   */\n      tag_511\n        /* \"#utility.yul\":23146:23153   */\n      dup5\n        /* \"#utility.yul\":23137:23143   */\n      dup3\n        /* \"#utility.yul\":23126:23135   */\n      dup6\n        /* \"#utility.yul\":23122:23144   */\n      add\n        /* \"#utility.yul\":23081:23154   */\n      tag_275\n      jump\t// in\n    tag_511:\n        /* \"#utility.yul\":23071:23154   */\n      swap2\n      pop\n        /* \"#utility.yul\":22874:23164   */\n      pop\n        /* \"#utility.yul\":22649:23171   */\n      swap3\n      swap2\n      pop\n      pop\n      jump\t// out\n        /* \"#utility.yul\":23177:23342   */\n    tag_276:\n        /* \"#utility.yul\":23317:23334   */\n      0x456d7074792066696c6520646174610000000000000000000000000000000000\n        /* \"#utility.yul\":23313:23314   */\n      0x00\n        /* \"#utility.yul\":23305:23311   */\n      dup3\n        /* \"#utility.yul\":23301:23315   */\n      add\n        /* \"#utility.yul\":23294:23335   */\n      mstore\n        /* \"#utility.yul\":23177:23342   */\n      pop\n      jump\t// out\n        /* \"#utility.yul\":23348:23714   */\n    tag_277:\n        /* \"#utility.yul\":23490:23493   */\n      0x00\n        /* \"#utility.yul\":23511:23578   */\n      tag_514\n        /* \"#utility.yul\":23575:23577   */\n      0x0f\n        /* \"#utility.yul\":23570:23573   */\n      dup4\n        /* \"#utility.yul\":23511:23578   */\n      tag_243\n      jump\t// in\n    tag_514:\n        /* \"#utility.yul\":23504:23578   */\n      swap2\n      pop\n        /* \"#utility.yul\":23587:23680   */\n      tag_515\n        /* \"#utility.yul\":23676:23679   */\n      dup3\n        /* \"#utility.yul\":23587:23680   */\n      tag_276\n      jump\t// in\n    tag_515:\n        /* \"#utility.yul\":23705:23707   */\n      0x20\n        /* \"#utility.yul\":23700:23703   */\n      dup3\n        /* \"#utility.yul\":23696:23708   */\n      add\n        /* \"#utility.yul\":23689:23708   */\n      swap1\n      pop\n        /* \"#utility.yul\":23348:23714   */\n      swap2\n      swap1\n      pop\n      jump\t// out\n        /* \"#utility.yul\":23720:24139   */\n    tag_138:\n        /* \"#utility.yul\":23886:23890   */\n      0x00\n        /* \"#utility.yul\":23924:23926   */\n      0x20\n        /* \"#utility.yul\":23913:23922   */\n      dup3\n        /* \"#utility.yul\":23909:23927   */\n      add\n        /* \"#utility.yul\":23901:23927   */\n      swap1\n      pop\n        /* \"#utility.yul\":23973:23982   */\n      dup2\n        /* \"#utility.yul\":23967:23971   */\n      dup2\n        /* \"#utility.yul\":23963:23983   */\n      sub\n        /* \"#utility.yul\":23959:23960   */\n      0x00\n        /* \"#utility.yul\":23948:23957   */\n      dup4\n        /* \"#utility.yul\":23944:23961   */\n      add\n        /* \"#utility.yul\":23937:23984   */\n      mstore\n        /* \"#utility.yul\":24001:24132   */\n      tag_517\n        /* \"#utility.yul\":24127:24131   */\n      dup2\n        /* \"#utility.yul\":24001:24132   */\n      tag_277\n      jump\t// in\n    tag_517:\n        /* \"#utility.yul\":23993:24132   */\n      swap1\n      pop\n        /* \"#utility.yul\":23720:24139   */\n      swap2\n      swap1\n      pop\n      jump\t// out\n        /* \"#utility.yul\":24145:24320   */\n    tag_278:\n        /* \"#utility.yul\":24285:24312   */\n      0x496e76616c696420726563697069656e74206164647265737300000000000000\n        /* \"#utility.yul\":24281:24282   */\n      0x00\n        /* \"#utility.yul\":24273:24279   */\n      dup3\n        /* \"#utility.yul\":24269:24283   */\n      add\n        /* \"#utility.yul\":24262:24313   */\n      mstore\n        /* \"#utility.yul\":24145:24320   */\n      pop\n      jump\t// out\n        /* \"#utility.yul\":24326:24692   */\n    tag_279:\n        /* \"#utility.yul\":24468:24471   */\n      0x00\n        /* \"#utility.yul\":24489:24556   */\n      tag_520\n        /* \"#utility.yul\":24553:24555   */\n      0x19\n        /* \"#utility.yul\":24548:24551   */\n      dup4\n        /* \"#utility.yul\":24489:24556   */\n      tag_243\n      jump\t// in\n    tag_520:\n        /* \"#utility.yul\":24482:24556   */\n      swap2\n      pop\n        /* \"#utility.yul\":24565:24658   */\n      tag_521\n        /* \"#utility.yul\":24654:24657   */\n      dup3\n        /* \"#utility.yul\":24565:24658   */\n      tag_278\n      jump\t// in\n    tag_521:\n        /* \"#utility.yul\":24683:24685   */\n      0x20\n        /* \"#utility.yul\":24678:24681   */\n      dup3\n        /* \"#utility.yul\":24674:24686   */\n      add\n        /* \"#utility.yul\":24667:24686   */\n      swap1\n      pop\n        /* \"#utility.yul\":24326:24692   */\n      swap2\n      swap1\n      pop\n      jump\t// out\n        /* \"#utility.yul\":24698:25117   */\n    tag_149:\n        /* \"#utility.yul\":24864:24868   */\n      0x00\n        /* \"#utility.yul\":24902:24904   */\n      0x20\n        /* \"#utility.yul\":24891:24900   */\n      dup3\n        /* \"#utility.yul\":24887:24905   */\n      add\n        /* \"#utility.yul\":24879:24905   */\n      swap1\n      pop\n        /* \"#utility.yul\":24951:24960   */\n      dup2\n        /* \"#utility.yul\":24945:24949   */\n      dup2\n        /* \"#utility.yul\":24941:24961   */\n      sub\n        /* \"#utility.yul\":24937:24938   */\n      0x00\n        /* \"#utility.yul\":24926:24935   */\n      dup4\n        /* \"#utility.yul\":24922:24939   */\n      add\n        /* \"#utility.yul\":24915:24962   */\n      mstore\n        /* \"#utility.yul\":24979:25110   */\n      tag_523\n        /* \"#utility.yul\":25105:25109   */\n      dup2\n        /* \"#utility.yul\":24979:25110   */\n      tag_279\n      jump\t// in\n    tag_523:\n        /* \"#utility.yul\":24971:25110   */\n      swap1\n      pop\n        /* \"#utility.yul\":24698:25117   */\n      swap2\n      swap1\n      pop\n      jump\t// out\n        /* \"#utility.yul\":25123:25296   */\n    tag_280:\n        /* \"#utility.yul\":25263:25288   */\n      0x4d6573736167652063616e6e6f7420626520656d707479000000000000000000\n        /* \"#utility.yul\":25259:25260   */\n      0x00\n        /* \"#utility.yul\":25251:25257   */\n      dup3\n        /* \"#utility.yul\":25247:25261   */\n      add\n        /* \"#utility.yul\":25240:25289   */\n      mstore\n        /* \"#utility.yul\":25123:25296   */\n      pop\n      jump\t// out\n        /* \"#utility.yul\":25302:25668   */\n    tag_281:\n        /* \"#utility.yul\":25444:25447   */\n      0x00\n        /* \"#utility.yul\":25465:25532   */\n      tag_526\n        /* \"#utility.yul\":25529:25531   */\n      0x17\n        /* \"#utility.yul\":25524:25527   */\n      dup4\n        /* \"#utility.yul\":25465:25532   */\n      tag_243\n      jump\t// in\n    tag_526:\n        /* \"#utility.yul\":25458:25532   */\n      swap2\n      pop\n        /* \"#utility.yul\":25541:25634   */\n      tag_527\n        /* \"#utility.yul\":25630:25633   */\n      dup3\n        /* \"#utility.yul\":25541:25634   */\n      tag_280\n      jump\t// in\n    tag_527:\n        /* \"#utility.yul\":25659:25661   */\n      0x20\n        /* \"#utility.yul\":25654:25657   */\n      dup3\n        /* \"#utility.yul\":25650:25662   */\n      add\n        /* \"#utility.yul\":25643:25662   */\n      swap1\n      pop\n        /* \"#utility.yul\":25302:25668   */\n      swap2\n      swap1\n      pop\n      jump\t// out\n        /* \"#utility.yul\":25674:26093   */\n    tag_152:\n        /* \"#utility.yul\":25840:25844   */\n      0x00\n        /* \"#utility.yul\":25878:25880   */\n      0x20\n        /* \"#utility.yul\":25867:25876   */\n      dup3\n        /* \"#utility.yul\":25863:25881   */\n      add\n        /* \"#utility.yul\":25855:25881   */\n      swap1\n      pop\n        /* \"#utility.yul\":25927:25936   */\n      dup2\n        /* \"#utility.yul\":25921:25925   */\n      dup2\n        /* \"#utility.yul\":25917:25937   */\n      sub\n        /* \"#utility.yul\":25913:25914   */\n      0x00\n        /* \"#utility.yul\":25902:25911   */\n      dup4\n        /* \"#utility.yul\":25898:25915   */\n      add\n        /* \"#utility.yul\":25891:25938   */\n      mstore\n        /* \"#utility.yul\":25955:26086   */\n      tag_529\n        /* \"#utility.yul\":26081:26085   */\n      dup2\n        /* \"#utility.yul\":25955:26086   */\n      tag_281\n      jump\t// in\n    tag_529:\n        /* \"#utility.yul\":25947:26086   */\n      swap1\n      pop\n        /* \"#utility.yul\":25674:26093   */\n      swap2\n      swap1\n      pop\n      jump\t// out\n        /* \"#utility.yul\":26099:26246   */\n    tag_282:\n        /* \"#utility.yul\":26200:26211   */\n      0x00\n        /* \"#utility.yul\":26237:26240   */\n      dup2\n        /* \"#utility.yul\":26222:26240   */\n      swap1\n      pop\n        /* \"#utility.yul\":26099:26246   */\n      swap3\n      swap2\n      pop\n      pop\n      jump\t// out\n        /* \"#utility.yul\":26252:26400   */\n    tag_283:\n        /* \"#utility.yul\":26350:26356   */\n      dup3\n        /* \"#utility.yul\":26345:26348   */\n      dup2\n        /* \"#utility.yul\":26340:26343   */\n      dup4\n        /* \"#utility.yul\":26327:26357   */\n      calldatacopy\n        /* \"#utility.yul\":26391:26392   */\n      0x00\n        /* \"#utility.yul\":26382:26388   */\n      dup4\n        /* \"#utility.yul\":26377:26380   */\n      dup4\n        /* \"#utility.yul\":26373:26389   */\n      add\n        /* \"#utility.yul\":26366:26393   */\n      mstore\n        /* \"#utility.yul\":26252:26400   */\n      pop\n      pop\n      pop\n      jump\t// out\n        /* \"#utility.yul\":26428:26755   */\n    tag_284:\n        /* \"#utility.yul\":26542:26545   */\n      0x00\n        /* \"#utility.yul\":26563:26651   */\n      tag_533\n        /* \"#utility.yul\":26644:26650   */\n      dup4\n        /* \"#utility.yul\":26639:26642   */\n      dup6\n        /* \"#utility.yul\":26563:26651   */\n      tag_282\n      jump\t// in\n    tag_533:\n        /* \"#utility.yul\":26556:26651   */\n      swap4\n      pop\n        /* \"#utility.yul\":26661:26717   */\n      tag_534\n        /* \"#utility.yul\":26710:26716   */\n      dup4\n        /* \"#utility.yul\":26705:26708   */\n      dup6\n        /* \"#utility.yul\":26698:26703   */\n      dup5\n        /* \"#utility.yul\":26661:26717   */\n      tag_283\n      jump\t// in\n    tag_534:\n        /* \"#utility.yul\":26742:26748   */\n      dup3\n        /* \"#utility.yul\":26737:26740   */\n      dup5\n        /* \"#utility.yul\":26733:26749   */\n      add\n        /* \"#utility.yul\":26726:26749   */\n      swap1\n      pop\n        /* \"#utility.yul\":26428:26755   */\n      swap4\n      swap3\n      pop\n      pop\n      pop\n      jump\t// out\n        /* \"#utility.yul\":26761:27052   */\n    tag_154:\n        /* \"#utility.yul\":26901:26904   */\n      0x00\n        /* \"#utility.yul\":26923:27026   */\n      tag_536\n        /* \"#utility.yul\":27022:27025   */\n      dup3\n        /* \"#utility.yul\":27013:27019   */\n      dup5\n        /* \"#utility.yul\":27005:27011   */\n      dup7\n        /* \"#utility.yul\":26923:27026   */\n      tag_284\n      jump\t// in\n    tag_536:\n        /* \"#utility.yul\":26916:27026   */\n      swap2\n      pop\n        /* \"#utility.yul\":27043:27046   */\n      dup2\n        /* \"#utility.yul\":27036:27046   */\n      swap1\n      pop\n        /* \"#utility.yul\":26761:27052   */\n      swap4\n      swap3\n      pop\n      pop\n      pop\n      jump\t// out\n        /* \"#utility.yul\":27080:27394   */\n    tag_285:\n        /* \"#utility.yul\":27176:27179   */\n      0x00\n        /* \"#utility.yul\":27197:27267   */\n      tag_538\n        /* \"#utility.yul\":27260:27266   */\n      dup4\n        /* \"#utility.yul\":27255:27258   */\n      dup6\n        /* \"#utility.yul\":27197:27267   */\n      tag_230\n      jump\t// in\n    tag_538:\n        /* \"#utility.yul\":27190:27267   */\n      swap4\n      pop\n        /* \"#utility.yul\":27277:27333   */\n      tag_539\n        /* \"#utility.yul\":27326:27332   */\n      dup4\n        /* \"#utility.yul\":27321:27324   */\n      dup6\n        /* \"#utility.yul\":27314:27319   */\n      dup5\n        /* \"#utility.yul\":27277:27333   */\n      tag_283\n      jump\t// in\n    tag_539:\n        /* \"#utility.yul\":27358:27387   */\n      tag_540\n        /* \"#utility.yul\":27380:27386   */\n      dup4\n        /* \"#utility.yul\":27358:27387   */\n      tag_232\n      jump\t// in\n    tag_540:\n        /* \"#utility.yul\":27353:27356   */\n      dup5\n        /* \"#utility.yul\":27349:27388   */\n      add\n        /* \"#utility.yul\":27342:27388   */\n      swap1\n      pop\n        /* \"#utility.yul\":27080:27394   */\n      swap4\n      swap3\n      pop\n      pop\n      pop\n      jump\t// out\n        /* \"#utility.yul\":27400:27949   */\n    tag_156:\n        /* \"#utility.yul\":27577:27581   */\n      0x00\n        /* \"#utility.yul\":27615:27617   */\n      0x60\n        /* \"#utility.yul\":27604:27613   */\n      dup3\n        /* \"#utility.yul\":27600:27618   */\n      add\n        /* \"#utility.yul\":27592:27618   */\n      swap1\n      pop\n        /* \"#utility.yul\":27628:27699   */\n      tag_542\n        /* \"#utility.yul\":27696:27697   */\n      0x00\n        /* \"#utility.yul\":27685:27694   */\n      dup4\n        /* \"#utility.yul\":27681:27698   */\n      add\n        /* \"#utility.yul\":27672:27678   */\n      dup8\n        /* \"#utility.yul\":27628:27699   */\n      tag_225\n      jump\t// in\n    tag_542:\n        /* \"#utility.yul\":27746:27755   */\n      dup2\n        /* \"#utility.yul\":27740:27744   */\n      dup2\n        /* \"#utility.yul\":27736:27756   */\n      sub\n        /* \"#utility.yul\":27731:27733   */\n      0x20\n        /* \"#utility.yul\":27720:27729   */\n      dup4\n        /* \"#utility.yul\":27716:27734   */\n      add\n        /* \"#utility.yul\":27709:27757   */\n      mstore\n        /* \"#utility.yul\":27774:27860   */\n      tag_543\n        /* \"#utility.yul\":27855:27859   */\n      dup2\n        /* \"#utility.yul\":27846:27852   */\n      dup6\n        /* \"#utility.yul\":27838:27844   */\n      dup8\n        /* \"#utility.yul\":27774:27860   */\n      tag_285\n      jump\t// in\n    tag_543:\n        /* \"#utility.yul\":27766:27860   */\n      swap1\n      pop\n        /* \"#utility.yul\":27870:27942   */\n      tag_544\n        /* \"#utility.yul\":27938:27940   */\n      0x40\n        /* \"#utility.yul\":27927:27936   */\n      dup4\n        /* \"#utility.yul\":27923:27941   */\n      add\n        /* \"#utility.yul\":27914:27920   */\n      dup5\n        /* \"#utility.yul\":27870:27942   */\n      tag_256\n      jump\t// in\n    tag_544:\n        /* \"#utility.yul\":27400:27949   */\n      swap6\n      swap5\n      pop\n      pop\n      pop\n      pop\n      pop\n      jump\t// out\n        /* \"#utility.yul\":27955:28122   */\n    tag_286:\n        /* \"#utility.yul\":28095:28114   */\n      0x496e76616c69642066696c652068617368000000000000000000000000000000\n        /* \"#utility.yul\":28091:28092   */\n      0x00\n        /* \"#utility.yul\":28083:28089   */\n      dup3\n        /* \"#utility.yul\":28079:28093   */\n      add\n        /* \"#utility.yul\":28072:28115   */\n      mstore\n        /* \"#utility.yul\":27955:28122   */\n      pop\n      jump\t// out\n        /* \"#utility.yul\":28128:28494   */\n    tag_287:\n        /* \"#utility.yul\":28270:28273   */\n      0x00\n        /* \"#utility.yul\":28291:28358   */\n      tag_547\n        /* \"#utility.yul\":28355:28357   */\n      0x11\n        /* \"#utility.yul\":28350:28353   */\n      dup4\n        /* \"#utility.yul\":28291:28358   */\n      tag_243\n      jump\t// in\n    tag_547:\n        /* \"#utility.yul\":28284:28358   */\n      swap2\n      pop\n        /* \"#utility.yul\":28367:28460   */\n      tag_548\n        /* \"#utility.yul\":28456:28459   */\n      dup3\n        /* \"#utility.yul\":28367:28460   */\n      tag_286\n      jump\t// in\n    tag_548:\n        /* \"#utility.yul\":28485:28487   */\n      0x20\n        /* \"#utility.yul\":28480:28483   */\n      dup3\n        /* \"#utility.yul\":28476:28488   */\n      add\n        /* \"#utility.yul\":28469:28488   */\n      swap1\n      pop\n        /* \"#utility.yul\":28128:28494   */\n      swap2\n      swap1\n      pop\n      jump\t// out\n        /* \"#utility.yul\":28500:28919   */\n    tag_169:\n        /* \"#utility.yul\":28666:28670   */\n      0x00\n        /* \"#utility.yul\":28704:28706   */\n      0x20\n        /* \"#utility.yul\":28693:28702   */\n      dup3\n        /* \"#utility.yul\":28689:28707   */\n      add\n        /* \"#utility.yul\":28681:28707   */\n      swap1\n      pop\n        /* \"#utility.yul\":28753:28762   */\n      dup2\n        /* \"#utility.yul\":28747:28751   */\n      dup2\n        /* \"#utility.yul\":28743:28763   */\n      sub\n        /* \"#utility.yul\":28739:28740   */\n      0x00\n        /* \"#utility.yul\":28728:28737   */\n      dup4\n        /* \"#utility.yul\":28724:28741   */\n      add\n        /* \"#utility.yul\":28717:28764   */\n      mstore\n        /* \"#utility.yul\":28781:28912   */\n      tag_550\n        /* \"#utility.yul\":28907:28911   */\n      dup2\n        /* \"#utility.yul\":28781:28912   */\n      tag_287\n      jump\t// in\n    tag_550:\n        /* \"#utility.yul\":28773:28912   */\n      swap1\n      pop\n        /* \"#utility.yul\":28500:28919   */\n      swap2\n      swap1\n      pop\n      jump\t// out\n        /* \"#utility.yul\":28925:29107   */\n    tag_288:\n        /* \"#utility.yul\":29065:29099   */\n      0x46696c652073697a65206d7573742062652067726561746572207468616e2030\n        /* \"#utility.yul\":29061:29062   */\n      0x00\n        /* \"#utility.yul\":29053:29059   */\n      dup3\n        /* \"#utility.yul\":29049:29063   */\n      add\n        /* \"#utility.yul\":29042:29100   */\n      mstore\n        /* \"#utility.yul\":28925:29107   */\n      pop\n      jump\t// out\n        /* \"#utility.yul\":29113:29479   */\n    tag_289:\n        /* \"#utility.yul\":29255:29258   */\n      0x00\n        /* \"#utility.yul\":29276:29343   */\n      tag_553\n        /* \"#utility.yul\":29340:29342   */\n      0x20\n        /* \"#utility.yul\":29335:29338   */\n      dup4\n        /* \"#utility.yul\":29276:29343   */\n      tag_243\n      jump\t// in\n    tag_553:\n        /* \"#utility.yul\":29269:29343   */\n      swap2\n      pop\n        /* \"#utility.yul\":29352:29445   */\n      tag_554\n        /* \"#utility.yul\":29441:29444   */\n      dup3\n        /* \"#utility.yul\":29352:29445   */\n      tag_288\n      jump\t// in\n    tag_554:\n        /* \"#utility.yul\":29470:29472   */\n      0x20\n        /* \"#utility.yul\":29465:29468   */\n      dup3\n        /* \"#utility.yul\":29461:29473   */\n      add\n        /* \"#utility.yul\":29454:29473   */\n      swap1\n      pop\n        /* \"#utility.yul\":29113:29479   */\n      swap2\n      swap1\n      pop\n      jump\t// out\n        /* \"#utility.yul\":29485:29904   */\n    tag_172:\n        /* \"#utility.yul\":29651:29655   */\n      0x00\n        /* \"#utility.yul\":29689:29691   */\n      0x20\n        /* \"#utility.yul\":29678:29687   */\n      dup3\n        /* \"#utility.yul\":29674:29692   */\n      add\n        /* \"#utility.yul\":29666:29692   */\n      swap1\n      pop\n        /* \"#utility.yul\":29738:29747   */\n      dup2\n        /* \"#utility.yul\":29732:29736   */\n      dup2\n        /* \"#utility.yul\":29728:29748   */\n      sub\n        /* \"#utility.yul\":29724:29725   */\n      0x00\n        /* \"#utility.yul\":29713:29722   */\n      dup4\n        /* \"#utility.yul\":29709:29726   */\n      add\n        /* \"#utility.yul\":29702:29749   */\n      mstore\n        /* \"#utility.yul\":29766:29897   */\n      tag_556\n        /* \"#utility.yul\":29892:29896   */\n      dup2\n        /* \"#utility.yul\":29766:29897   */\n      tag_289\n      jump\t// in\n    tag_556:\n        /* \"#utility.yul\":29758:29897   */\n      swap1\n      pop\n        /* \"#utility.yul\":29485:29904   */\n      swap2\n      swap1\n      pop\n      jump\t// out\n        /* \"#utility.yul\":29910:30073   */\n    tag_290:\n        /* \"#utility.yul\":30050:30065   */\n      0x53697a65206d69736d6174636800000000000000000000000000000000000000\n        /* \"#utility.yul\":30046:30047   */\n      0x00\n        /* \"#utility.yul\":30038:30044   */\n      dup3\n        /* \"#utility.yul\":30034:30048   */\n      add\n        /* \"#utility.yul\":30027:30066   */\n      mstore\n        /* \"#utility.yul\":29910:30073   */\n      pop\n      jump\t// out\n        /* \"#utility.yul\":30079:30445   */\n    tag_291:\n        /* \"#utility.yul\":30221:30224   */\n      0x00\n        /* \"#utility.yul\":30242:30309   */\n      tag_559\n        /* \"#utility.yul\":30306:30308   */\n      0x0d\n        /* \"#utility.yul\":30301:30304   */\n      dup4\n        /* \"#utility.yul\":30242:30309   */\n      tag_243\n      jump\t// in\n    tag_559:\n        /* \"#utility.yul\":30235:30309   */\n      swap2\n      pop\n        /* \"#utility.yul\":30318:30411   */\n      tag_560\n        /* \"#utility.yul\":30407:30410   */\n      dup3\n        /* \"#utility.yul\":30318:30411   */\n      tag_290\n      jump\t// in\n    tag_560:\n        /* \"#utility.yul\":30436:30438   */\n      0x20\n        /* \"#utility.yul\":30431:30434   */\n      dup3\n        /* \"#utility.yul\":30427:30439   */\n      add\n        /* \"#utility.yul\":30420:30439   */\n      swap1\n      pop\n        /* \"#utility.yul\":30079:30445   */\n      swap2\n      swap1\n      pop\n      jump\t// out\n        /* \"#utility.yul\":30451:30870   */\n    tag_177:\n        /* \"#utility.yul\":30617:30621   */\n      0x00\n        /* \"#utility.yul\":30655:30657   */\n      0x20\n        /* \"#utility.yul\":30644:30653   */\n      dup3\n        /* \"#utility.yul\":30640:30658   */\n      add\n        /* \"#utility.yul\":30632:30658   */\n      swap1\n      pop\n        /* \"#utility.yul\":30704:30713   */\n      dup2\n        /* \"#utility.yul\":30698:30702   */\n      dup2\n        /* \"#utility.yul\":30694:30714   */\n      sub\n        /* \"#utility.yul\":30690:30691   */\n      0x00\n        /* \"#utility.yul\":30679:30688   */\n      dup4\n        /* \"#utility.yul\":30675:30692   */\n      add\n        /* \"#utility.yul\":30668:30715   */\n      mstore\n        /* \"#utility.yul\":30732:30863   */\n      tag_562\n        /* \"#utility.yul\":30858:30862   */\n      dup2\n        /* \"#utility.yul\":30732:30863   */\n      tag_291\n      jump\t// in\n    tag_562:\n        /* \"#utility.yul\":30724:30863   */\n      swap1\n      pop\n        /* \"#utility.yul\":30451:30870   */\n      swap2\n      swap1\n      pop\n      jump\t// out\n        /* \"#utility.yul\":30876:30994   */\n    tag_292:\n        /* \"#utility.yul\":30963:30987   */\n      tag_564\n        /* \"#utility.yul\":30981:30986   */\n      dup2\n        /* \"#utility.yul\":30963:30987   */\n      tag_238\n      jump\t// in\n    tag_564:\n        /* \"#utility.yul\":30958:30961   */\n      dup3\n        /* \"#utility.yul\":30951:30988   */\n      mstore\n        /* \"#utility.yul\":30876:30994   */\n      pop\n      pop\n      jump\t// out\n        /* \"#utility.yul\":31000:31442   */\n    tag_179:\n        /* \"#utility.yul\":31149:31153   */\n      0x00\n        /* \"#utility.yul\":31187:31189   */\n      0x60\n        /* \"#utility.yul\":31176:31185   */\n      dup3\n        /* \"#utility.yul\":31172:31190   */\n      add\n        /* \"#utility.yul\":31164:31190   */\n      swap1\n      pop\n        /* \"#utility.yul\":31200:31271   */\n      tag_566\n        /* \"#utility.yul\":31268:31269   */\n      0x00\n        /* \"#utility.yul\":31257:31266   */\n      dup4\n        /* \"#utility.yul\":31253:31270   */\n      add\n        /* \"#utility.yul\":31244:31250   */\n      dup7\n        /* \"#utility.yul\":31200:31271   */\n      tag_256\n      jump\t// in\n    tag_566:\n        /* \"#utility.yul\":31281:31353   */\n      tag_567\n        /* \"#utility.yul\":31349:31351   */\n      0x20\n        /* \"#utility.yul\":31338:31347   */\n      dup4\n        /* \"#utility.yul\":31334:31352   */\n      add\n        /* \"#utility.yul\":31325:31331   */\n      dup6\n        /* \"#utility.yul\":31281:31353   */\n      tag_225\n      jump\t// in\n    tag_567:\n        /* \"#utility.yul\":31363:31435   */\n      tag_568\n        /* \"#utility.yul\":31431:31433   */\n      0x40\n        /* \"#utility.yul\":31420:31429   */\n      dup4\n        /* \"#utility.yul\":31416:31434   */\n      add\n        /* \"#utility.yul\":31407:31413   */\n      dup5\n        /* \"#utility.yul\":31363:31435   */\n      tag_292\n      jump\t// in\n    tag_568:\n        /* \"#utility.yul\":31000:31442   */\n      swap5\n      swap4\n      pop\n      pop\n      pop\n      pop\n      jump\t// out\n        /* \"#utility.yul\":31448:31887   */\n    tag_184:\n        /* \"#utility.yul\":31597:31601   */\n      0x00\n        /* \"#utility.yul\":31635:31637   */\n      0x40\n        /* \"#utility.yul\":31624:31633   */\n      dup3\n        /* \"#utility.yul\":31620:31638   */\n      add\n        /* \"#utility.yul\":31612:31638   */\n      swap1\n      pop\n        /* \"#utility.yul\":31648:31719   */\n      tag_570\n        /* \"#utility.yul\":31716:31717   */\n      0x00\n        /* \"#utility.yul\":31705:31714   */\n      dup4\n        /* \"#utility.yul\":31701:31718   */\n      add\n        /* \"#utility.yul\":31692:31698   */\n      dup7\n        /* \"#utility.yul\":31648:31719   */\n      tag_256\n      jump\t// in\n    tag_570:\n        /* \"#utility.yul\":31766:31775   */\n      dup2\n        /* \"#utility.yul\":31760:31764   */\n      dup2\n        /* \"#utility.yul\":31756:31776   */\n      sub\n        /* \"#utility.yul\":31751:31753   */\n      0x20\n        /* \"#utility.yul\":31740:31749   */\n      dup4\n        /* \"#utility.yul\":31736:31754   */\n      add\n        /* \"#utility.yul\":31729:31777   */\n      mstore\n        /* \"#utility.yul\":31794:31880   */\n      tag_571\n        /* \"#utility.yul\":31875:31879   */\n      dup2\n        /* \"#utility.yul\":31866:31872   */\n      dup5\n        /* \"#utility.yul\":31858:31864   */\n      dup7\n        /* \"#utility.yul\":31794:31880   */\n      tag_285\n      jump\t// in\n    tag_571:\n        /* \"#utility.yul\":31786:31880   */\n      swap1\n      pop\n        /* \"#utility.yul\":31448:31887   */\n      swap5\n      swap4\n      pop\n      pop\n      pop\n      pop\n      jump\t// out\n        /* \"#utility.yul\":31893:32115   */\n    tag_189:\n        /* \"#utility.yul\":31986:31990   */\n      0x00\n        /* \"#utility.yul\":32024:32026   */\n      0x20\n        /* \"#utility.yul\":32013:32022   */\n      dup3\n        /* \"#utility.yul\":32009:32027   */\n      add\n        /* \"#utility.yul\":32001:32027   */\n      swap1\n      pop\n        /* \"#utility.yul\":32037:32108   */\n      tag_573\n        /* \"#utility.yul\":32105:32106   */\n      0x00\n        /* \"#utility.yul\":32094:32103   */\n      dup4\n        /* \"#utility.yul\":32090:32107   */\n      add\n        /* \"#utility.yul\":32081:32087   */\n      dup5\n        /* \"#utility.yul\":32037:32108   */\n      tag_292\n      jump\t// in\n    tag_573:\n        /* \"#utility.yul\":31893:32115   */\n      swap3\n      swap2\n      pop\n      pop\n      jump\t// out\n\n    auxdata: 0xa2646970667358221220e4b074898331dd3d962052eb39eeee16aaba2de795e3d43637bf5a385f3897ae64736f6c634300081a0033\n}\n",
				"bytecode": {
					"linkReferences": {},
					"object": "608060405234801561000f575f80fd5b50604051612405380380612405833981810160405281019061003191906102a0565b335f73ffffffffffffffffffffffffffffffffffffffff168173ffffffffffffffffffffffffffffffffffffffff16036100a2575f6040517f1e4fbdf700000000000000000000000000000000000000000000000000000000815260040161009991906102ff565b60405180910390fd5b6100b18161018160201b60201c565b50600180819055508260025f6101000a81548173ffffffffffffffffffffffffffffffffffffffff021916908373ffffffffffffffffffffffffffffffffffffffff1602179055508160035f6101000a81548173ffffffffffffffffffffffffffffffffffffffff021916908373ffffffffffffffffffffffffffffffffffffffff1602179055508060045f6101000a81548173ffffffffffffffffffffffffffffffffffffffff021916908373ffffffffffffffffffffffffffffffffffffffff160217905550505050610318565b5f805f9054906101000a900473ffffffffffffffffffffffffffffffffffffffff169050815f806101000a81548173ffffffffffffffffffffffffffffffffffffffff021916908373ffffffffffffffffffffffffffffffffffffffff1602179055508173ffffffffffffffffffffffffffffffffffffffff168173ffffffffffffffffffffffffffffffffffffffff167f8be0079c531659141344cd1fd0a4f28419497f9722a3daafe3b4186f6b6457e060405160405180910390a35050565b5f80fd5b5f73ffffffffffffffffffffffffffffffffffffffff82169050919050565b5f61026f82610246565b9050919050565b61027f81610265565b8114610289575f80fd5b50565b5f8151905061029a81610276565b92915050565b5f805f606084860312156102b7576102b6610242565b5b5f6102c48682870161028c565b93505060206102d58682870161028c565b92505060406102e68682870161028c565b9150509250925092565b6102f981610265565b82525050565b5f6020820190506103125f8301846102f0565b92915050565b6120e0806103255f395ff3fe608060405234801561000f575f80fd5b50600436106100e8575f3560e01c8063715018a61161008a578063bb5ddb0f11610064578063bb5ddb0f14610220578063d951e3c11461023c578063f2fde38b14610258578063f74fe2e914610274576100e8565b8063715018a6146101c85780638da5cb5b146101d2578063a30e992c146101f0576100e8565b806320673430116100c657806320673430146101565780632199d5cd146101725780635276b2631461018e578063588f64e1146101ac576100e8565b806303670f4f146100ec5780630e50cee51461010857806311ce026714610138575b5f80fd5b6101066004803603810190610101919061129c565b610292565b005b610122600480360381019061011d919061129c565b61034b565b60405161012f91906112e1565b60405180910390f35b610140610368565b60405161014d9190611355565b60405180910390f35b610170600480360381019061016b919061129c565b61038d565b005b61018c6004803603810190610187919061129c565b610446565b005b6101966105d9565b6040516101a3919061138e565b60405180910390f35b6101c660048036038101906101c1919061129c565b6105fe565b005b6101d06106b7565b005b6101da6106ca565b6040516101e791906113b6565b60405180910390f35b61020a60048036038101906102059190611402565b6106f1565b604051610217919061149d565b60405180910390f35b61023a6004803603810190610235919061151e565b610a71565b005b610256600480360381019061025191906115ae565b610cd6565b005b610272600480360381019061026d919061129c565b610fea565b005b61027c61106e565b604051610289919061163f565b60405180910390f35b61029a611093565b5f73ffffffffffffffffffffffffffffffffffffffff168173ffffffffffffffffffffffffffffffffffffffff1603610308576040517f08c379a00000000000000000000000000000000000000000000000000000000081526004016102ff906116b2565b60405180910390fd5b8060025f6101000a81548173ffffffffffffffffffffffffffffffffffffffff021916908373ffffffffffffffffffffffffffffffffffffffff16021790555050565b6005602052805f5260405f205f915054906101000a900460ff1681565b60045f9054906101000a900473ffffffffffffffffffffffffffffffffffffffff1681565b610395611093565b5f73ffffffffffffffffffffffffffffffffffffffff168173ffffffffffffffffffffffffffffffffffffffff1603610403576040517f08c379a00000000000000000000000000000000000000000000000000000000081526004016103fa9061171a565b60405180910390fd5b8060035f6101000a81548173ffffffffffffffffffffffffffffffffffffffff021916908373ffffffffffffffffffffffffffffffffffffffff16021790555050565b5f73ffffffffffffffffffffffffffffffffffffffff168173ffffffffffffffffffffffffffffffffffffffff16036104b4576040517f08c379a00000000000000000000000000000000000000000000000000000000081526004016104ab90611782565b60405180910390fd5b60055f8273ffffffffffffffffffffffffffffffffffffffff1673ffffffffffffffffffffffffffffffffffffffff1681526020019081526020015f205f9054906101000a900460ff161561053e576040517f08c379a0000000000000000000000000000000000000000000000000000000008152600401610535906117ea565b60405180910390fd5b600160055f8373ffffffffffffffffffffffffffffffffffffffff1673ffffffffffffffffffffffffffffffffffffffff1681526020019081526020015f205f6101000a81548160ff0219169083151502179055508073ffffffffffffffffffffffffffffffffffffffff167f54db7a5cb4735e1aac1f53db512d3390390bb6637bd30ad4bf9fc98667d9b9b960405160405180910390a250565b60025f9054906101000a900473ffffffffffffffffffffffffffffffffffffffff1681565b610606611093565b5f73ffffffffffffffffffffffffffffffffffffffff168173ffffffffffffffffffffffffffffffffffffffff1603610674576040517f08c379a000000000000000000000000000000000000000000000000000000000815260040161066b90611852565b60405180910390fd5b8060045f6101000a81548173ffffffffffffffffffffffffffffffffffffffff021916908373ffffffffffffffffffffffffffffffffffffffff16021790555050565b6106bf611093565b6106c85f61111a565b565b5f805f9054906101000a900473ffffffffffffffffffffffffffffffffffffffff16905090565b606060055f3373ffffffffffffffffffffffffffffffffffffffff1673ffffffffffffffffffffffffffffffffffffffff1681526020019081526020015f205f9054906101000a900460ff1661077c576040517f08c379a0000000000000000000000000000000000000000000000000000000008152600401610773906118ba565b60405180910390fd5b6107846111db565b60025f9054906101000a900473ffffffffffffffffffffffffffffffffffffffff1673ffffffffffffffffffffffffffffffffffffffff16633e1fd0da83336040518363ffffffff1660e01b81526004016107e09291906118e7565b602060405180830381865afa1580156107fb573d5f803e3d5ffd5b505050506040513d601f19601f8201168201806040525081019061081f9190611938565b61085e576040517f08c379a0000000000000000000000000000000000000000000000000000000008152600401610855906119d3565b60405180910390fd5b60025f9054906101000a900473ffffffffffffffffffffffffffffffffffffffff1673ffffffffffffffffffffffffffffffffffffffff166352f7347b836040518263ffffffff1660e01b81526004016108b891906119f1565b60e060405180830381865afa1580156108d3573d5f803e3d5ffd5b505050506040513d601f19601f820116820180604052508101906108f79190611b73565b60c0015161093a576040517f08c379a000000000000000000000000000000000000000000000000000000000815260040161093190611be8565b60405180910390fd5b5f60045f9054906101000a900473ffffffffffffffffffffffffffffffffffffffff1673ffffffffffffffffffffffffffffffffffffffff166345e12b5d846040518263ffffffff1660e01b815260040161099591906119f1565b5f60405180830381865afa1580156109af573d5f803e3d5ffd5b505050506040513d5f823e3d601f19601f820116820180604052508101906109d79190611ca8565b90505f815111610a1c576040517f08c379a0000000000000000000000000000000000000000000000000000000008152600401610a1390611d39565b60405180910390fd5b823373ffffffffffffffffffffffffffffffffffffffff167fec4bc83aaec04673c1a3b050f7268877ba23ab4bd3db6616c60b82c411132a6060405160405180910390a380915050610a6c611221565b919050565b60055f3373ffffffffffffffffffffffffffffffffffffffff1673ffffffffffffffffffffffffffffffffffffffff1681526020019081526020015f205f9054906101000a900460ff16610afa576040517f08c379a0000000000000000000000000000000000000000000000000000000008152600401610af1906118ba565b60405180910390fd5b610b026111db565b5f73ffffffffffffffffffffffffffffffffffffffff168373ffffffffffffffffffffffffffffffffffffffff1603610b70576040517f08c379a0000000000000000000000000000000000000000000000000000000008152600401610b6790611da1565b60405180910390fd5b5f8282905011610bb5576040517f08c379a0000000000000000000000000000000000000000000000000000000008152600401610bac90611e09565b60405180910390fd5b5f8282604051602001610bc9929190611e63565b60405160208183030381529060405280519060200120905060035f9054906101000a900473ffffffffffffffffffffffffffffffffffffffff1673ffffffffffffffffffffffffffffffffffffffff16632c4ac770858585856040518563ffffffff1660e01b8152600401610c419493929190611ea7565b5f604051808303815f87803b158015610c58575f80fd5b505af1158015610c6a573d5f803e3d5ffd5b505050508373ffffffffffffffffffffffffffffffffffffffff163373ffffffffffffffffffffffffffffffffffffffff167f921d068ef716f8cffdc14d917b9e3b77c957cd11d308c2c4f92732cc0190f86160405160405180910390a350610cd1611221565b505050565b60055f3373ffffffffffffffffffffffffffffffffffffffff1673ffffffffffffffffffffffffffffffffffffffff1681526020019081526020015f205f9054906101000a900460ff16610d5f576040517f08c379a0000000000000000000000000000000000000000000000000000000008152600401610d56906118ba565b60405180910390fd5b610d676111db565b5f801b8403610dab576040517f08c379a0000000000000000000000000000000000000000000000000000000008152600401610da290611f2f565b60405180910390fd5b5f8311610ded576040517f08c379a0000000000000000000000000000000000000000000000000000000008152600401610de490611f97565b60405180910390fd5b5f8282905011610e32576040517f08c379a0000000000000000000000000000000000000000000000000000000008152600401610e2990611d39565b60405180910390fd5b828282905014610e77576040517f08c379a0000000000000000000000000000000000000000000000000000000008152600401610e6e90611fff565b60405180910390fd5b60025f9054906101000a900473ffffffffffffffffffffffffffffffffffffffff1673ffffffffffffffffffffffffffffffffffffffff1663ba7e880b8533866040518463ffffffff1660e01b8152600401610ed59392919061202c565b5f604051808303815f87803b158015610eec575f80fd5b505af1158015610efe573d5f803e3d5ffd5b5050505060045f9054906101000a900473ffffffffffffffffffffffffffffffffffffffff1673ffffffffffffffffffffffffffffffffffffffff16639730174d8584846040518463ffffffff1660e01b8152600401610f6093929190612061565b5f604051808303815f87803b158015610f77575f80fd5b505af1158015610f89573d5f803e3d5ffd5b50505050833373ffffffffffffffffffffffffffffffffffffffff167f1a28cdb2c58665ac87f664863088c848af994bbe09d700353f23d8ad1aca1f6885604051610fd49190612091565b60405180910390a3610fe4611221565b50505050565b610ff2611093565b5f73ffffffffffffffffffffffffffffffffffffffff168173ffffffffffffffffffffffffffffffffffffffff1603611062575f6040517f1e4fbdf700000000000000000000000000000000000000000000000000000000815260040161105991906113b6565b60405180910390fd5b61106b8161111a565b50565b60035f9054906101000a900473ffffffffffffffffffffffffffffffffffffffff1681565b61109b61122a565b73ffffffffffffffffffffffffffffffffffffffff166110b96106ca565b73ffffffffffffffffffffffffffffffffffffffff1614611118576110dc61122a565b6040517f118cdaa700000000000000000000000000000000000000000000000000000000815260040161110f91906113b6565b60405180910390fd5b565b5f805f9054906101000a900473ffffffffffffffffffffffffffffffffffffffff169050815f806101000a81548173ffffffffffffffffffffffffffffffffffffffff021916908373ffffffffffffffffffffffffffffffffffffffff1602179055508173ffffffffffffffffffffffffffffffffffffffff168173ffffffffffffffffffffffffffffffffffffffff167f8be0079c531659141344cd1fd0a4f28419497f9722a3daafe3b4186f6b6457e060405160405180910390a35050565b600260015403611217576040517f3ee5aeb500000000000000000000000000000000000000000000000000000000815260040160405180910390fd5b6002600181905550565b60018081905550565b5f33905090565b5f604051905090565b5f80fd5b5f80fd5b5f73ffffffffffffffffffffffffffffffffffffffff82169050919050565b5f61126b82611242565b9050919050565b61127b81611261565b8114611285575f80fd5b50565b5f8135905061129681611272565b92915050565b5f602082840312156112b1576112b061123a565b5b5f6112be84828501611288565b91505092915050565b5f8115159050919050565b6112db816112c7565b82525050565b5f6020820190506112f45f8301846112d2565b92915050565b5f819050919050565b5f61131d61131861131384611242565b6112fa565b611242565b9050919050565b5f61132e82611303565b9050919050565b5f61133f82611324565b9050919050565b61134f81611335565b82525050565b5f6020820190506113685f830184611346565b92915050565b5f61137882611324565b9050919050565b6113888161136e565b82525050565b5f6020820190506113a15f83018461137f565b92915050565b6113b081611261565b82525050565b5f6020820190506113c95f8301846113a7565b92915050565b5f819050919050565b6113e1816113cf565b81146113eb575f80fd5b50565b5f813590506113fc816113d8565b92915050565b5f602082840312156114175761141661123a565b5b5f611424848285016113ee565b91505092915050565b5f81519050919050565b5f82825260208201905092915050565b8281835e5f83830152505050565b5f601f19601f8301169050919050565b5f61146f8261142d565b6114798185611437565b9350611489818560208601611447565b61149281611455565b840191505092915050565b5f6020820190508181035f8301526114b58184611465565b905092915050565b5f80fd5b5f80fd5b5f80fd5b5f8083601f8401126114de576114dd6114bd565b5b8235905067ffffffffffffffff8111156114fb576114fa6114c1565b5b602083019150836001820283011115611517576115166114c5565b5b9250929050565b5f805f604084860312156115355761153461123a565b5b5f61154286828701611288565b935050602084013567ffffffffffffffff8111156115635761156261123e565b5b61156f868287016114c9565b92509250509250925092565b5f819050919050565b61158d8161157b565b8114611597575f80fd5b50565b5f813590506115a881611584565b92915050565b5f805f80606085870312156115c6576115c561123a565b5b5f6115d3878288016113ee565b94505060206115e48782880161159a565b935050604085013567ffffffffffffffff8111156116055761160461123e565b5b611611878288016114c9565b925092505092959194509250565b5f61162982611324565b9050919050565b6116398161161f565b82525050565b5f6020820190506116525f830184611630565b92915050565b5f82825260208201905092915050565b7f496e76616c69642046696c6552656769737472792061646472657373000000005f82015250565b5f61169c601c83611658565b91506116a782611668565b602082019050919050565b5f6020820190508181035f8301526116c981611690565b9050919050565b7f496e76616c6964204d6573736167696e672061646472657373000000000000005f82015250565b5f611704601983611658565b915061170f826116d0565b602082019050919050565b5f6020820190508181035f830152611731816116f8565b9050919050565b7f496e76616c6964207573657220616464726573730000000000000000000000005f82015250565b5f61176c601483611658565b915061177782611738565b602082019050919050565b5f6020820190508181035f83015261179981611760565b9050919050565b7f5573657220616c726561647920726567697374657265640000000000000000005f82015250565b5f6117d4601783611658565b91506117df826117a0565b602082019050919050565b5f6020820190508181035f830152611801816117c8565b9050919050565b7f496e76616c69642053746f7261676520616464726573730000000000000000005f82015250565b5f61183c601783611658565b915061184782611808565b602082019050919050565b5f6020820190508181035f83015261186981611830565b9050919050565b7f55736572206e6f742072656769737465726564000000000000000000000000005f82015250565b5f6118a4601383611658565b91506118af82611870565b602082019050919050565b5f6020820190508181035f8301526118d181611898565b9050919050565b6118e1816113cf565b82525050565b5f6040820190506118fa5f8301856118d8565b61190760208301846113a7565b9392505050565b611917816112c7565b8114611921575f80fd5b50565b5f815190506119328161190e565b92915050565b5f6020828403121561194d5761194c61123a565b5b5f61195a84828501611924565b91505092915050565b7f5573657220646f6573206e6f7420686176652061636365737320746f207468695f8201527f732066696c650000000000000000000000000000000000000000000000000000602082015250565b5f6119bd602683611658565b91506119c882611963565b604082019050919050565b5f6020820190508181035f8301526119ea816119b1565b9050919050565b5f602082019050611a045f8301846118d8565b92915050565b5f80fd5b7f4e487b71000000000000000000000000000000000000000000000000000000005f52604160045260245ffd5b611a4482611455565b810181811067ffffffffffffffff82111715611a6357611a62611a0e565b5b80604052505050565b5f611a75611231565b9050611a818282611a3b565b919050565b5f81519050611a94816113d8565b92915050565b5f81519050611aa881611272565b92915050565b5f81519050611abc81611584565b92915050565b5f60e08284031215611ad757611ad6611a0a565b5b611ae160e0611a6c565b90505f611af084828501611a86565b5f830152506020611b0384828501611a9a565b6020830152506040611b1784828501611aae565b6040830152506060611b2b84828501611aae565b6060830152506080611b3f84828501611924565b60808301525060a0611b5384828501611a86565b60a08301525060c0611b6784828501611924565b60c08301525092915050565b5f60e08284031215611b8857611b8761123a565b5b5f611b9584828501611ac2565b91505092915050565b7f46696c6520646f6573206e6f74206578697374000000000000000000000000005f82015250565b5f611bd2601383611658565b9150611bdd82611b9e565b602082019050919050565b5f6020820190508181035f830152611bff81611bc6565b9050919050565b5f80fd5b5f67ffffffffffffffff821115611c2457611c23611a0e565b5b611c2d82611455565b9050602081019050919050565b5f611c4c611c4784611c0a565b611a6c565b905082815260208101848484011115611c6857611c67611c06565b5b611c73848285611447565b509392505050565b5f82601f830112611c8f57611c8e6114bd565b5b8151611c9f848260208601611c3a565b91505092915050565b5f60208284031215611cbd57611cbc61123a565b5b5f82015167ffffffffffffffff811115611cda57611cd961123e565b5b611ce684828501611c7b565b91505092915050565b7f456d7074792066696c65206461746100000000000000000000000000000000005f82015250565b5f611d23600f83611658565b9150611d2e82611cef565b602082019050919050565b5f6020820190508181035f830152611d5081611d17565b9050919050565b7f496e76616c696420726563697069656e742061646472657373000000000000005f82015250565b5f611d8b601983611658565b9150611d9682611d57565b602082019050919050565b5f6020820190508181035f830152611db881611d7f565b9050919050565b7f4d6573736167652063616e6e6f7420626520656d7074790000000000000000005f82015250565b5f611df3601783611658565b9150611dfe82611dbf565b602082019050919050565b5f6020820190508181035f830152611e2081611de7565b9050919050565b5f81905092915050565b828183375f83830152505050565b5f611e4a8385611e27565b9350611e57838584611e31565b82840190509392505050565b5f611e6f828486611e3f565b91508190509392505050565b5f611e868385611437565b9350611e93838584611e31565b611e9c83611455565b840190509392505050565b5f606082019050611eba5f8301876113a7565b8181036020830152611ecd818587611e7b565b9050611edc60408301846118d8565b95945050505050565b7f496e76616c69642066696c6520686173680000000000000000000000000000005f82015250565b5f611f19601183611658565b9150611f2482611ee5565b602082019050919050565b5f6020820190508181035f830152611f4681611f0d565b9050919050565b7f46696c652073697a65206d7573742062652067726561746572207468616e20305f82015250565b5f611f81602083611658565b9150611f8c82611f4d565b602082019050919050565b5f6020820190508181035f830152611fae81611f75565b9050919050565b7f53697a65206d69736d61746368000000000000000000000000000000000000005f82015250565b5f611fe9600d83611658565b9150611ff482611fb5565b602082019050919050565b5f6020820190508181035f83015261201681611fdd565b9050919050565b6120268161157b565b82525050565b5f60608201905061203f5f8301866118d8565b61204c60208301856113a7565b612059604083018461201d565b949350505050565b5f6040820190506120745f8301866118d8565b8181036020830152612087818486611e7b565b9050949350505050565b5f6020820190506120a45f83018461201d565b9291505056fea2646970667358221220e4b074898331dd3d962052eb39eeee16aaba2de795e3d43637bf5a385f3897ae64736f6c634300081a0033",
					"opcodes": "PUSH1 0x80 PUSH1 0x40 MSTORE CALLVALUE DUP1 ISZERO PUSH2 0xF JUMPI PUSH0 DUP1 REVERT JUMPDEST POP PUSH1 0x40 MLOAD PUSH2 0x2405 CODESIZE SUB DUP1 PUSH2 0x2405 DUP4 CODECOPY DUP2 DUP2 ADD PUSH1 0x40 MSTORE DUP2 ADD SWAP1 PUSH2 0x31 SWAP2 SWAP1 PUSH2 0x2A0 JUMP JUMPDEST CALLER PUSH0 PUSH20 0xFFFFFFFFFFFFFFFFFFFFFFFFFFFFFFFFFFFFFFFF AND DUP2 PUSH20 0xFFFFFFFFFFFFFFFFFFFFFFFFFFFFFFFFFFFFFFFF AND SUB PUSH2 0xA2 JUMPI PUSH0 PUSH1 0x40 MLOAD PUSH32 0x1E4FBDF700000000000000000000000000000000000000000000000000000000 DUP2 MSTORE PUSH1 0x4 ADD PUSH2 0x99 SWAP2 SWAP1 PUSH2 0x2FF JUMP JUMPDEST PUSH1 0x40 MLOAD DUP1 SWAP2 SUB SWAP1 REVERT JUMPDEST PUSH2 0xB1 DUP2 PUSH2 0x181 PUSH1 0x20 SHL PUSH1 0x20 SHR JUMP JUMPDEST POP PUSH1 0x1 DUP1 DUP2 SWAP1 SSTORE POP DUP3 PUSH1 0x2 PUSH0 PUSH2 0x100 EXP DUP2 SLOAD DUP2 PUSH20 0xFFFFFFFFFFFFFFFFFFFFFFFFFFFFFFFFFFFFFFFF MUL NOT AND SWAP1 DUP4 PUSH20 0xFFFFFFFFFFFFFFFFFFFFFFFFFFFFFFFFFFFFFFFF AND MUL OR SWAP1 SSTORE POP DUP2 PUSH1 0x3 PUSH0 PUSH2 0x100 EXP DUP2 SLOAD DUP2 PUSH20 0xFFFFFFFFFFFFFFFFFFFFFFFFFFFFFFFFFFFFFFFF MUL NOT AND SWAP1 DUP4 PUSH20 0xFFFFFFFFFFFFFFFFFFFFFFFFFFFFFFFFFFFFFFFF AND MUL OR SWAP1 SSTORE POP DUP1 PUSH1 0x4 PUSH0 PUSH2 0x100 EXP DUP2 SLOAD DUP2 PUSH20 0xFFFFFFFFFFFFFFFFFFFFFFFFFFFFFFFFFFFFFFFF MUL NOT AND SWAP1 DUP4 PUSH20 0xFFFFFFFFFFFFFFFFFFFFFFFFFFFFFFFFFFFFFFFF AND MUL OR SWAP1 SSTORE POP POP POP POP PUSH2 0x318 JUMP JUMPDEST PUSH0 DUP1 PUSH0 SWAP1 SLOAD SWAP1 PUSH2 0x100 EXP SWAP1 DIV PUSH20 0xFFFFFFFFFFFFFFFFFFFFFFFFFFFFFFFFFFFFFFFF AND SWAP1 POP DUP2 PUSH0 DUP1 PUSH2 0x100 EXP DUP2 SLOAD DUP2 PUSH20 0xFFFFFFFFFFFFFFFFFFFFFFFFFFFFFFFFFFFFFFFF MUL NOT AND SWAP1 DUP4 PUSH20 0xFFFFFFFFFFFFFFFFFFFFFFFFFFFFFFFFFFFFFFFF AND MUL OR SWAP1 SSTORE POP DUP2 PUSH20 0xFFFFFFFFFFFFFFFFFFFFFFFFFFFFFFFFFFFFFFFF AND DUP2 PUSH20 0xFFFFFFFFFFFFFFFFFFFFFFFFFFFFFFFFFFFFFFFF AND PUSH32 0x8BE0079C531659141344CD1FD0A4F28419497F9722A3DAAFE3B4186F6B6457E0 PUSH1 0x40 MLOAD PUSH1 0x40 MLOAD DUP1 SWAP2 SUB SWAP1 LOG3 POP POP JUMP JUMPDEST PUSH0 DUP1 REVERT JUMPDEST PUSH0 PUSH20 0xFFFFFFFFFFFFFFFFFFFFFFFFFFFFFFFFFFFFFFFF DUP3 AND SWAP1 POP SWAP2 SWAP1 POP JUMP JUMPDEST PUSH0 PUSH2 0x26F DUP3 PUSH2 0x246 JUMP JUMPDEST SWAP1 POP SWAP2 SWAP1 POP JUMP JUMPDEST PUSH2 0x27F DUP2 PUSH2 0x265 JUMP JUMPDEST DUP2 EQ PUSH2 0x289 JUMPI PUSH0 DUP1 REVERT JUMPDEST POP JUMP JUMPDEST PUSH0 DUP2 MLOAD SWAP1 POP PUSH2 0x29A DUP2 PUSH2 0x276 JUMP JUMPDEST SWAP3 SWAP2 POP POP JUMP JUMPDEST PUSH0 DUP1 PUSH0 PUSH1 0x60 DUP5 DUP7 SUB SLT ISZERO PUSH2 0x2B7 JUMPI PUSH2 0x2B6 PUSH2 0x242 JUMP JUMPDEST JUMPDEST PUSH0 PUSH2 0x2C4 DUP7 DUP3 DUP8 ADD PUSH2 0x28C JUMP JUMPDEST SWAP4 POP POP PUSH1 0x20 PUSH2 0x2D5 DUP7 DUP3 DUP8 ADD PUSH2 0x28C JUMP JUMPDEST SWAP3 POP POP PUSH1 0x40 PUSH2 0x2E6 DUP7 DUP3 DUP8 ADD PUSH2 0x28C JUMP JUMPDEST SWAP2 POP POP SWAP3 POP SWAP3 POP SWAP3 JUMP JUMPDEST PUSH2 0x2F9 DUP2 PUSH2 0x265 JUMP JUMPDEST DUP3 MSTORE POP POP JUMP JUMPDEST PUSH0 PUSH1 0x20 DUP3 ADD SWAP1 POP PUSH2 0x312 PUSH0 DUP4 ADD DUP5 PUSH2 0x2F0 JUMP JUMPDEST SWAP3 SWAP2 POP POP JUMP JUMPDEST PUSH2 0x20E0 DUP1 PUSH2 0x325 PUSH0 CODECOPY PUSH0 RETURN INVALID PUSH1 0x80 PUSH1 0x40 MSTORE CALLVALUE DUP1 ISZERO PUSH2 0xF JUMPI PUSH0 DUP1 REVERT JUMPDEST POP PUSH1 0x4 CALLDATASIZE LT PUSH2 0xE8 JUMPI PUSH0 CALLDATALOAD PUSH1 0xE0 SHR DUP1 PUSH4 0x715018A6 GT PUSH2 0x8A JUMPI DUP1 PUSH4 0xBB5DDB0F GT PUSH2 0x64 JUMPI DUP1 PUSH4 0xBB5DDB0F EQ PUSH2 0x220 JUMPI DUP1 PUSH4 0xD951E3C1 EQ PUSH2 0x23C JUMPI DUP1 PUSH4 0xF2FDE38B EQ PUSH2 0x258 JUMPI DUP1 PUSH4 0xF74FE2E9 EQ PUSH2 0x274 JUMPI PUSH2 0xE8 JUMP JUMPDEST DUP1 PUSH4 0x715018A6 EQ PUSH2 0x1C8 JUMPI DUP1 PUSH4 0x8DA5CB5B EQ PUSH2 0x1D2 JUMPI DUP1 PUSH4 0xA30E992C EQ PUSH2 0x1F0 JUMPI PUSH2 0xE8 JUMP JUMPDEST DUP1 PUSH4 0x20673430 GT PUSH2 0xC6 JUMPI DUP1 PUSH4 0x20673430 EQ PUSH2 0x156 JUMPI DUP1 PUSH4 0x2199D5CD EQ PUSH2 0x172 JUMPI DUP1 PUSH4 0x5276B263 EQ PUSH2 0x18E JUMPI DUP1 PUSH4 0x588F64E1 EQ PUSH2 0x1AC JUMPI PUSH2 0xE8 JUMP JUMPDEST DUP1 PUSH4 0x3670F4F EQ PUSH2 0xEC JUMPI DUP1 PUSH4 0xE50CEE5 EQ PUSH2 0x108 JUMPI DUP1 PUSH4 0x11CE0267 EQ PUSH2 0x138 JUMPI JUMPDEST PUSH0 DUP1 REVERT JUMPDEST PUSH2 0x106 PUSH1 0x4 DUP1 CALLDATASIZE SUB DUP2 ADD SWAP1 PUSH2 0x101 SWAP2 SWAP1 PUSH2 0x129C JUMP JUMPDEST PUSH2 0x292 JUMP JUMPDEST STOP JUMPDEST PUSH2 0x122 PUSH1 0x4 DUP1 CALLDATASIZE SUB DUP2 ADD SWAP1 PUSH2 0x11D SWAP2 SWAP1 PUSH2 0x129C JUMP JUMPDEST PUSH2 0x34B JUMP JUMPDEST PUSH1 0x40 MLOAD PUSH2 0x12F SWAP2 SWAP1 PUSH2 0x12E1 JUMP JUMPDEST PUSH1 0x40 MLOAD DUP1 SWAP2 SUB SWAP1 RETURN JUMPDEST PUSH2 0x140 PUSH2 0x368 JUMP JUMPDEST PUSH1 0x40 MLOAD PUSH2 0x14D SWAP2 SWAP1 PUSH2 0x1355 JUMP JUMPDEST PUSH1 0x40 MLOAD DUP1 SWAP2 SUB SWAP1 RETURN JUMPDEST PUSH2 0x170 PUSH1 0x4 DUP1 CALLDATASIZE SUB DUP2 ADD SWAP1 PUSH2 0x16B SWAP2 SWAP1 PUSH2 0x129C JUMP JUMPDEST PUSH2 0x38D JUMP JUMPDEST STOP JUMPDEST PUSH2 0x18C PUSH1 0x4 DUP1 CALLDATASIZE SUB DUP2 ADD SWAP1 PUSH2 0x187 SWAP2 SWAP1 PUSH2 0x129C JUMP JUMPDEST PUSH2 0x446 JUMP JUMPDEST STOP JUMPDEST PUSH2 0x196 PUSH2 0x5D9 JUMP JUMPDEST PUSH1 0x40 MLOAD PUSH2 0x1A3 SWAP2 SWAP1 PUSH2 0x138E JUMP JUMPDEST PUSH1 0x40 MLOAD DUP1 SWAP2 SUB SWAP1 RETURN JUMPDEST PUSH2 0x1C6 PUSH1 0x4 DUP1 CALLDATASIZE SUB DUP2 ADD SWAP1 PUSH2 0x1C1 SWAP2 SWAP1 PUSH2 0x129C JUMP JUMPDEST PUSH2 0x5FE JUMP JUMPDEST STOP JUMPDEST PUSH2 0x1D0 PUSH2 0x6B7 JUMP JUMPDEST STOP JUMPDEST PUSH2 0x1DA PUSH2 0x6CA JUMP JUMPDEST PUSH1 0x40 MLOAD PUSH2 0x1E7 SWAP2 SWAP1 PUSH2 0x13B6 JUMP JUMPDEST PUSH1 0x40 MLOAD DUP1 SWAP2 SUB SWAP1 RETURN JUMPDEST PUSH2 0x20A PUSH1 0x4 DUP1 CALLDATASIZE SUB DUP2 ADD SWAP1 PUSH2 0x205 SWAP2 SWAP1 PUSH2 0x1402 JUMP JUMPDEST PUSH2 0x6F1 JUMP JUMPDEST PUSH1 0x40 MLOAD PUSH2 0x217 SWAP2 SWAP1 PUSH2 0x149D JUMP JUMPDEST PUSH1 0x40 MLOAD DUP1 SWAP2 SUB SWAP1 RETURN JUMPDEST PUSH2 0x23A PUSH1 0x4 DUP1 CALLDATASIZE SUB DUP2 ADD SWAP1 PUSH2 0x235 SWAP2 SWAP1 PUSH2 0x151E JUMP JUMPDEST PUSH2 0xA71 JUMP JUMPDEST STOP JUMPDEST PUSH2 0x256 PUSH1 0x4 DUP1 CALLDATASIZE SUB DUP2 ADD SWAP1 PUSH2 0x251 SWAP2 SWAP1 PUSH2 0x15AE JUMP JUMPDEST PUSH2 0xCD6 JUMP JUMPDEST STOP JUMPDEST PUSH2 0x272 PUSH1 0x4 DUP1 CALLDATASIZE SUB DUP2 ADD SWAP1 PUSH2 0x26D SWAP2 SWAP1 PUSH2 0x129C JUMP JUMPDEST PUSH2 0xFEA JUMP JUMPDEST STOP JUMPDEST PUSH2 0x27C PUSH2 0x106E JUMP JUMPDEST PUSH1 0x40 MLOAD PUSH2 0x289 SWAP2 SWAP1 PUSH2 0x163F JUMP JUMPDEST PUSH1 0x40 MLOAD DUP1 SWAP2 SUB SWAP1 RETURN JUMPDEST PUSH2 0x29A PUSH2 0x1093 JUMP JUMPDEST PUSH0 PUSH20 0xFFFFFFFFFFFFFFFFFFFFFFFFFFFFFFFFFFFFFFFF AND DUP2 PUSH20 0xFFFFFFFFFFFFFFFFFFFFFFFFFFFFFFFFFFFFFFFF AND SUB PUSH2 0x308 JUMPI PUSH1 0x40 MLOAD PUSH32 0x8C379A000000000000000000000000000000000000000000000000000000000 DUP2 MSTORE PUSH1 0x4 ADD PUSH2 0x2FF SWAP1 PUSH2 0x16B2 JUMP JUMPDEST PUSH1 0x40 MLOAD DUP1 SWAP2 SUB SWAP1 REVERT JUMPDEST DUP1 PUSH1 0x2 PUSH0 PUSH2 0x100 EXP DUP2 SLOAD DUP2 PUSH20 0xFFFFFFFFFFFFFFFFFFFFFFFFFFFFFFFFFFFFFFFF MUL NOT AND SWAP1 DUP4 PUSH20 0xFFFFFFFFFFFFFFFFFFFFFFFFFFFFFFFFFFFFFFFF AND MUL OR SWAP1 SSTORE POP POP JUMP JUMPDEST PUSH1 0x5 PUSH1 0x20 MSTORE DUP1 PUSH0 MSTORE PUSH1 0x40 PUSH0 KECCAK256 PUSH0 SWAP2 POP SLOAD SWAP1 PUSH2 0x100 EXP SWAP1 DIV PUSH1 0xFF AND DUP2 JUMP JUMPDEST PUSH1 0x4 PUSH0 SWAP1 SLOAD SWAP1 PUSH2 0x100 EXP SWAP1 DIV PUSH20 0xFFFFFFFFFFFFFFFFFFFFFFFFFFFFFFFFFFFFFFFF AND DUP2 JUMP JUMPDEST PUSH2 0x395 PUSH2 0x1093 JUMP JUMPDEST PUSH0 PUSH20 0xFFFFFFFFFFFFFFFFFFFFFFFFFFFFFFFFFFFFFFFF AND DUP2 PUSH20 0xFFFFFFFFFFFFFFFFFFFFFFFFFFFFFFFFFFFFFFFF AND SUB PUSH2 0x403 JUMPI PUSH1 0x40 MLOAD PUSH32 0x8C379A000000000000000000000000000000000000000000000000000000000 DUP2 MSTORE PUSH1 0x4 ADD PUSH2 0x3FA SWAP1 PUSH2 0x171A JUMP JUMPDEST PUSH1 0x40 MLOAD DUP1 SWAP2 SUB SWAP1 REVERT JUMPDEST DUP1 PUSH1 0x3 PUSH0 PUSH2 0x100 EXP DUP2 SLOAD DUP2 PUSH20 0xFFFFFFFFFFFFFFFFFFFFFFFFFFFFFFFFFFFFFFFF MUL NOT AND SWAP1 DUP4 PUSH20 0xFFFFFFFFFFFFFFFFFFFFFFFFFFFFFFFFFFFFFFFF AND MUL OR SWAP1 SSTORE POP POP JUMP JUMPDEST PUSH0 PUSH20 0xFFFFFFFFFFFFFFFFFFFFFFFFFFFFFFFFFFFFFFFF AND DUP2 PUSH20 0xFFFFFFFFFFFFFFFFFFFFFFFFFFFFFFFFFFFFFFFF AND SUB PUSH2 0x4B4 JUMPI PUSH1 0x40 MLOAD PUSH32 0x8C379A000000000000000000000000000000000000000000000000000000000 DUP2 MSTORE PUSH1 0x4 ADD PUSH2 0x4AB SWAP1 PUSH2 0x1782 JUMP JUMPDEST PUSH1 0x40 MLOAD DUP1 SWAP2 SUB SWAP1 REVERT JUMPDEST PUSH1 0x5 PUSH0 DUP3 PUSH20 0xFFFFFFFFFFFFFFFFFFFFFFFFFFFFFFFFFFFFFFFF AND PUSH20 0xFFFFFFFFFFFFFFFFFFFFFFFFFFFFFFFFFFFFFFFF AND DUP2 MSTORE PUSH1 0x20 ADD SWAP1 DUP2 MSTORE PUSH1 0x20 ADD PUSH0 KECCAK256 PUSH0 SWAP1 SLOAD SWAP1 PUSH2 0x100 EXP SWAP1 DIV PUSH1 0xFF AND ISZERO PUSH2 0x53E JUMPI PUSH1 0x40 MLOAD PUSH32 0x8C379A000000000000000000000000000000000000000000000000000000000 DUP2 MSTORE PUSH1 0x4 ADD PUSH2 0x535 SWAP1 PUSH2 0x17EA JUMP JUMPDEST PUSH1 0x40 MLOAD DUP1 SWAP2 SUB SWAP1 REVERT JUMPDEST PUSH1 0x1 PUSH1 0x5 PUSH0 DUP4 PUSH20 0xFFFFFFFFFFFFFFFFFFFFFFFFFFFFFFFFFFFFFFFF AND PUSH20 0xFFFFFFFFFFFFFFFFFFFFFFFFFFFFFFFFFFFFFFFF AND DUP2 MSTORE PUSH1 0x20 ADD SWAP1 DUP2 MSTORE PUSH1 0x20 ADD PUSH0 KECCAK256 PUSH0 PUSH2 0x100 EXP DUP2 SLOAD DUP2 PUSH1 0xFF MUL NOT AND SWAP1 DUP4 ISZERO ISZERO MUL OR SWAP1 SSTORE POP DUP1 PUSH20 0xFFFFFFFFFFFFFFFFFFFFFFFFFFFFFFFFFFFFFFFF AND PUSH32 0x54DB7A5CB4735E1AAC1F53DB512D3390390BB6637BD30AD4BF9FC98667D9B9B9 PUSH1 0x40 MLOAD PUSH1 0x40 MLOAD DUP1 SWAP2 SUB SWAP1 LOG2 POP JUMP JUMPDEST PUSH1 0x2 PUSH0 SWAP1 SLOAD SWAP1 PUSH2 0x100 EXP SWAP1 DIV PUSH20 0xFFFFFFFFFFFFFFFFFFFFFFFFFFFFFFFFFFFFFFFF AND DUP2 JUMP JUMPDEST PUSH2 0x606 PUSH2 0x1093 JUMP JUMPDEST PUSH0 PUSH20 0xFFFFFFFFFFFFFFFFFFFFFFFFFFFFFFFFFFFFFFFF AND DUP2 PUSH20 0xFFFFFFFFFFFFFFFFFFFFFFFFFFFFFFFFFFFFFFFF AND SUB PUSH2 0x674 JUMPI PUSH1 0x40 MLOAD PUSH32 0x8C379A000000000000000000000000000000000000000000000000000000000 DUP2 MSTORE PUSH1 0x4 ADD PUSH2 0x66B SWAP1 PUSH2 0x1852 JUMP JUMPDEST PUSH1 0x40 MLOAD DUP1 SWAP2 SUB SWAP1 REVERT JUMPDEST DUP1 PUSH1 0x4 PUSH0 PUSH2 0x100 EXP DUP2 SLOAD DUP2 PUSH20 0xFFFFFFFFFFFFFFFFFFFFFFFFFFFFFFFFFFFFFFFF MUL NOT AND SWAP1 DUP4 PUSH20 0xFFFFFFFFFFFFFFFFFFFFFFFFFFFFFFFFFFFFFFFF AND MUL OR SWAP1 SSTORE POP POP JUMP JUMPDEST PUSH2 0x6BF PUSH2 0x1093 JUMP JUMPDEST PUSH2 0x6C8 PUSH0 PUSH2 0x111A JUMP JUMPDEST JUMP JUMPDEST PUSH0 DUP1 PUSH0 SWAP1 SLOAD SWAP1 PUSH2 0x100 EXP SWAP1 DIV PUSH20 0xFFFFFFFFFFFFFFFFFFFFFFFFFFFFFFFFFFFFFFFF AND SWAP1 POP SWAP1 JUMP JUMPDEST PUSH1 0x60 PUSH1 0x5 PUSH0 CALLER PUSH20 0xFFFFFFFFFFFFFFFFFFFFFFFFFFFFFFFFFFFFFFFF AND PUSH20 0xFFFFFFFFFFFFFFFFFFFFFFFFFFFFFFFFFFFFFFFF AND DUP2 MSTORE PUSH1 0x20 ADD SWAP1 DUP2 MSTORE PUSH1 0x20 ADD PUSH0 KECCAK256 PUSH0 SWAP1 SLOAD SWAP1 PUSH2 0x100 EXP SWAP1 DIV PUSH1 0xFF AND PUSH2 0x77C JUMPI PUSH1 0x40 MLOAD PUSH32 0x8C379A000000000000000000000000000000000000000000000000000000000 DUP2 MSTORE PUSH1 0x4 ADD PUSH2 0x773 SWAP1 PUSH2 0x18BA JUMP JUMPDEST PUSH1 0x40 MLOAD DUP1 SWAP2 SUB SWAP1 REVERT JUMPDEST PUSH2 0x784 PUSH2 0x11DB JUMP JUMPDEST PUSH1 0x2 PUSH0 SWAP1 SLOAD SWAP1 PUSH2 0x100 EXP SWAP1 DIV PUSH20 0xFFFFFFFFFFFFFFFFFFFFFFFFFFFFFFFFFFFFFFFF AND PUSH20 0xFFFFFFFFFFFFFFFFFFFFFFFFFFFFFFFFFFFFFFFF AND PUSH4 0x3E1FD0DA DUP4 CALLER PUSH1 0x40 MLOAD DUP4 PUSH4 0xFFFFFFFF AND PUSH1 0xE0 SHL DUP2 MSTORE PUSH1 0x4 ADD PUSH2 0x7E0 SWAP3 SWAP2 SWAP1 PUSH2 0x18E7 JUMP JUMPDEST PUSH1 0x20 PUSH1 0x40 MLOAD DUP1 DUP4 SUB DUP2 DUP7 GAS STATICCALL ISZERO DUP1 ISZERO PUSH2 0x7FB JUMPI RETURNDATASIZE PUSH0 DUP1 RETURNDATACOPY RETURNDATASIZE PUSH0 REVERT JUMPDEST POP POP POP POP PUSH1 0x40 MLOAD RETURNDATASIZE PUSH1 0x1F NOT PUSH1 0x1F DUP3 ADD AND DUP3 ADD DUP1 PUSH1 0x40 MSTORE POP DUP2 ADD SWAP1 PUSH2 0x81F SWAP2 SWAP1 PUSH2 0x1938 JUMP JUMPDEST PUSH2 0x85E JUMPI PUSH1 0x40 MLOAD PUSH32 0x8C379A000000000000000000000000000000000000000000000000000000000 DUP2 MSTORE PUSH1 0x4 ADD PUSH2 0x855 SWAP1 PUSH2 0x19D3 JUMP JUMPDEST PUSH1 0x40 MLOAD DUP1 SWAP2 SUB SWAP1 REVERT JUMPDEST PUSH1 0x2 PUSH0 SWAP1 SLOAD SWAP1 PUSH2 0x100 EXP SWAP1 DIV PUSH20 0xFFFFFFFFFFFFFFFFFFFFFFFFFFFFFFFFFFFFFFFF AND PUSH20 0xFFFFFFFFFFFFFFFFFFFFFFFFFFFFFFFFFFFFFFFF AND PUSH4 0x52F7347B DUP4 PUSH1 0x40 MLOAD DUP3 PUSH4 0xFFFFFFFF AND PUSH1 0xE0 SHL DUP2 MSTORE PUSH1 0x4 ADD PUSH2 0x8B8 SWAP2 SWAP1 PUSH2 0x19F1 JUMP JUMPDEST PUSH1 0xE0 PUSH1 0x40 MLOAD DUP1 DUP4 SUB DUP2 DUP7 GAS STATICCALL ISZERO DUP1 ISZERO PUSH2 0x8D3 JUMPI RETURNDATASIZE PUSH0 DUP1 RETURNDATACOPY RETURNDATASIZE PUSH0 REVERT JUMPDEST POP POP POP POP PUSH1 0x40 MLOAD RETURNDATASIZE PUSH1 0x1F NOT PUSH1 0x1F DUP3 ADD AND DUP3 ADD DUP1 PUSH1 0x40 MSTORE POP DUP2 ADD SWAP1 PUSH2 0x8F7 SWAP2 SWAP1 PUSH2 0x1B73 JUMP JUMPDEST PUSH1 0xC0 ADD MLOAD PUSH2 0x93A JUMPI PUSH1 0x40 MLOAD PUSH32 0x8C379A000000000000000000000000000000000000000000000000000000000 DUP2 MSTORE PUSH1 0x4 ADD PUSH2 0x931 SWAP1 PUSH2 0x1BE8 JUMP JUMPDEST PUSH1 0x40 MLOAD DUP1 SWAP2 SUB SWAP1 REVERT JUMPDEST PUSH0 PUSH1 0x4 PUSH0 SWAP1 SLOAD SWAP1 PUSH2 0x100 EXP SWAP1 DIV PUSH20 0xFFFFFFFFFFFFFFFFFFFFFFFFFFFFFFFFFFFFFFFF AND PUSH20 0xFFFFFFFFFFFFFFFFFFFFFFFFFFFFFFFFFFFFFFFF AND PUSH4 0x45E12B5D DUP5 PUSH1 0x40 MLOAD DUP3 PUSH4 0xFFFFFFFF AND PUSH1 0xE0 SHL DUP2 MSTORE PUSH1 0x4 ADD PUSH2 0x995 SWAP2 SWAP1 PUSH2 0x19F1 JUMP JUMPDEST PUSH0 PUSH1 0x40 MLOAD DUP1 DUP4 SUB DUP2 DUP7 GAS STATICCALL ISZERO DUP1 ISZERO PUSH2 0x9AF JUMPI RETURNDATASIZE PUSH0 DUP1 RETURNDATACOPY RETURNDATASIZE PUSH0 REVERT JUMPDEST POP POP POP POP PUSH1 0x40 MLOAD RETURNDATASIZE PUSH0 DUP3 RETURNDATACOPY RETURNDATASIZE PUSH1 0x1F NOT PUSH1 0x1F DUP3 ADD AND DUP3 ADD DUP1 PUSH1 0x40 MSTORE POP DUP2 ADD SWAP1 PUSH2 0x9D7 SWAP2 SWAP1 PUSH2 0x1CA8 JUMP JUMPDEST SWAP1 POP PUSH0 DUP2 MLOAD GT PUSH2 0xA1C JUMPI PUSH1 0x40 MLOAD PUSH32 0x8C379A000000000000000000000000000000000000000000000000000000000 DUP2 MSTORE PUSH1 0x4 ADD PUSH2 0xA13 SWAP1 PUSH2 0x1D39 JUMP JUMPDEST PUSH1 0x40 MLOAD DUP1 SWAP2 SUB SWAP1 REVERT JUMPDEST DUP3 CALLER PUSH20 0xFFFFFFFFFFFFFFFFFFFFFFFFFFFFFFFFFFFFFFFF AND PUSH32 0xEC4BC83AAEC04673C1A3B050F7268877BA23AB4BD3DB6616C60B82C411132A60 PUSH1 0x40 MLOAD PUSH1 0x40 MLOAD DUP1 SWAP2 SUB SWAP1 LOG3 DUP1 SWAP2 POP POP PUSH2 0xA6C PUSH2 0x1221 JUMP JUMPDEST SWAP2 SWAP1 POP JUMP JUMPDEST PUSH1 0x5 PUSH0 CALLER PUSH20 0xFFFFFFFFFFFFFFFFFFFFFFFFFFFFFFFFFFFFFFFF AND PUSH20 0xFFFFFFFFFFFFFFFFFFFFFFFFFFFFFFFFFFFFFFFF AND DUP2 MSTORE PUSH1 0x20 ADD SWAP1 DUP2 MSTORE PUSH1 0x20 ADD PUSH0 KECCAK256 PUSH0 SWAP1 SLOAD SWAP1 PUSH2 0x100 EXP SWAP1 DIV PUSH1 0xFF AND PUSH2 0xAFA JUMPI PUSH1 0x40 MLOAD PUSH32 0x8C379A000000000000000000000000000000000000000000000000000000000 DUP2 MSTORE PUSH1 0x4 ADD PUSH2 0xAF1 SWAP1 PUSH2 0x18BA JUMP JUMPDEST PUSH1 0x40 MLOAD DUP1 SWAP2 SUB SWAP1 REVERT JUMPDEST PUSH2 0xB02 PUSH2 0x11DB JUMP JUMPDEST PUSH0 PUSH20 0xFFFFFFFFFFFFFFFFFFFFFFFFFFFFFFFFFFFFFFFF AND DUP4 PUSH20 0xFFFFFFFFFFFFFFFFFFFFFFFFFFFFFFFFFFFFFFFF AND SUB PUSH2 0xB70 JUMPI PUSH1 0x40 MLOAD PUSH32 0x8C379A000000000000000000000000000000000000000000000000000000000 DUP2 MSTORE PUSH1 0x4 ADD PUSH2 0xB67 SWAP1 PUSH2 0x1DA1 JUMP JUMPDEST PUSH1 0x40 MLOAD DUP1 SWAP2 SUB SWAP1 REVERT JUMPDEST PUSH0 DUP3 DUP3 SWAP1 POP GT PUSH2 0xBB5 JUMPI PUSH1 0x40 MLOAD PUSH32 0x8C379A000000000000000000000000000000000000000000000000000000000 DUP2 MSTORE PUSH1 0x4 ADD PUSH2 0xBAC SWAP1 PUSH2 0x1E09 JUMP JUMPDEST PUSH1 0x40 MLOAD DUP1 SWAP2 SUB SWAP1 REVERT JUMPDEST PUSH0 DUP3 DUP3 PUSH1 0x40 MLOAD PUSH1 0x20 ADD PUSH2 0xBC9 SWAP3 SWAP2 SWAP1 PUSH2 0x1E63 JUMP JUMPDEST PUSH1 0x40 MLOAD PUSH1 0x20 DUP2 DUP4 SUB SUB DUP2 MSTORE SWAP1 PUSH1 0x40 MSTORE DUP1 MLOAD SWAP1 PUSH1 0x20 ADD KECCAK256 SWAP1 POP PUSH1 0x3 PUSH0 SWAP1 SLOAD SWAP1 PUSH2 0x100 EXP SWAP1 DIV PUSH20 0xFFFFFFFFFFFFFFFFFFFFFFFFFFFFFFFFFFFFFFFF AND PUSH20 0xFFFFFFFFFFFFFFFFFFFFFFFFFFFFFFFFFFFFFFFF AND PUSH4 0x2C4AC770 DUP6 DUP6 DUP6 DUP6 PUSH1 0x40 MLOAD DUP6 PUSH4 0xFFFFFFFF AND PUSH1 0xE0 SHL DUP2 MSTORE PUSH1 0x4 ADD PUSH2 0xC41 SWAP5 SWAP4 SWAP3 SWAP2 SWAP1 PUSH2 0x1EA7 JUMP JUMPDEST PUSH0 PUSH1 0x40 MLOAD DUP1 DUP4 SUB DUP2 PUSH0 DUP8 DUP1 EXTCODESIZE ISZERO DUP1 ISZERO PUSH2 0xC58 JUMPI PUSH0 DUP1 REVERT JUMPDEST POP GAS CALL ISZERO DUP1 ISZERO PUSH2 0xC6A JUMPI RETURNDATASIZE PUSH0 DUP1 RETURNDATACOPY RETURNDATASIZE PUSH0 REVERT JUMPDEST POP POP POP POP DUP4 PUSH20 0xFFFFFFFFFFFFFFFFFFFFFFFFFFFFFFFFFFFFFFFF AND CALLER PUSH20 0xFFFFFFFFFFFFFFFFFFFFFFFFFFFFFFFFFFFFFFFF AND PUSH32 0x921D068EF716F8CFFDC14D917B9E3B77C957CD11D308C2C4F92732CC0190F861 PUSH1 0x40 MLOAD PUSH1 0x40 MLOAD DUP1 SWAP2 SUB SWAP1 LOG3 POP PUSH2 0xCD1 PUSH2 0x1221 JUMP JUMPDEST POP POP POP JUMP JUMPDEST PUSH1 0x5 PUSH0 CALLER PUSH20 0xFFFFFFFFFFFFFFFFFFFFFFFFFFFFFFFFFFFFFFFF AND PUSH20 0xFFFFFFFFFFFFFFFFFFFFFFFFFFFFFFFFFFFFFFFF AND DUP2 MSTORE PUSH1 0x20 ADD SWAP1 DUP2 MSTORE PUSH1 0x20 ADD PUSH0 KECCAK256 PUSH0 SWAP1 SLOAD SWAP1 PUSH2 0x100 EXP SWAP1 DIV PUSH1 0xFF AND PUSH2 0xD5F JUMPI PUSH1 0x40 MLOAD PUSH32 0x8C379A000000000000000000000000000000000000000000000000000000000 DUP2 MSTORE PUSH1 0x4 ADD PUSH2 0xD56 SWAP1 PUSH2 0x18BA JUMP JUMPDEST PUSH1 0x40 MLOAD DUP1 SWAP2 SUB SWAP1 REVERT JUMPDEST PUSH2 0xD67 PUSH2 0x11DB JUMP JUMPDEST PUSH0 DUP1 SHL DUP5 SUB PUSH2 0xDAB JUMPI PUSH1 0x40 MLOAD PUSH32 0x8C379A000000000000000000000000000000000000000000000000000000000 DUP2 MSTORE PUSH1 0x4 ADD PUSH2 0xDA2 SWAP1 PUSH2 0x1F2F JUMP JUMPDEST PUSH1 0x40 MLOAD DUP1 SWAP2 SUB SWAP1 REVERT JUMPDEST PUSH0 DUP4 GT PUSH2 0xDED JUMPI PUSH1 0x40 MLOAD PUSH32 0x8C379A000000000000000000000000000000000000000000000000000000000 DUP2 MSTORE PUSH1 0x4 ADD PUSH2 0xDE4 SWAP1 PUSH2 0x1F97 JUMP JUMPDEST PUSH1 0x40 MLOAD DUP1 SWAP2 SUB SWAP1 REVERT JUMPDEST PUSH0 DUP3 DUP3 SWAP1 POP GT PUSH2 0xE32 JUMPI PUSH1 0x40 MLOAD PUSH32 0x8C379A000000000000000000000000000000000000000000000000000000000 DUP2 MSTORE PUSH1 0x4 ADD PUSH2 0xE29 SWAP1 PUSH2 0x1D39 JUMP JUMPDEST PUSH1 0x40 MLOAD DUP1 SWAP2 SUB SWAP1 REVERT JUMPDEST DUP3 DUP3 DUP3 SWAP1 POP EQ PUSH2 0xE77 JUMPI PUSH1 0x40 MLOAD PUSH32 0x8C379A000000000000000000000000000000000000000000000000000000000 DUP2 MSTORE PUSH1 0x4 ADD PUSH2 0xE6E SWAP1 PUSH2 0x1FFF JUMP JUMPDEST PUSH1 0x40 MLOAD DUP1 SWAP2 SUB SWAP1 REVERT JUMPDEST PUSH1 0x2 PUSH0 SWAP1 SLOAD SWAP1 PUSH2 0x100 EXP SWAP1 DIV PUSH20 0xFFFFFFFFFFFFFFFFFFFFFFFFFFFFFFFFFFFFFFFF AND PUSH20 0xFFFFFFFFFFFFFFFFFFFFFFFFFFFFFFFFFFFFFFFF AND PUSH4 0xBA7E880B DUP6 CALLER DUP7 PUSH1 0x40 MLOAD DUP5 PUSH4 0xFFFFFFFF AND PUSH1 0xE0 SHL DUP2 MSTORE PUSH1 0x4 ADD PUSH2 0xED5 SWAP4 SWAP3 SWAP2 SWAP1 PUSH2 0x202C JUMP JUMPDEST PUSH0 PUSH1 0x40 MLOAD DUP1 DUP4 SUB DUP2 PUSH0 DUP8 DUP1 EXTCODESIZE ISZERO DUP1 ISZERO PUSH2 0xEEC JUMPI PUSH0 DUP1 REVERT JUMPDEST POP GAS CALL ISZERO DUP1 ISZERO PUSH2 0xEFE JUMPI RETURNDATASIZE PUSH0 DUP1 RETURNDATACOPY RETURNDATASIZE PUSH0 REVERT JUMPDEST POP POP POP POP PUSH1 0x4 PUSH0 SWAP1 SLOAD SWAP1 PUSH2 0x100 EXP SWAP1 DIV PUSH20 0xFFFFFFFFFFFFFFFFFFFFFFFFFFFFFFFFFFFFFFFF AND PUSH20 0xFFFFFFFFFFFFFFFFFFFFFFFFFFFFFFFFFFFFFFFF AND PUSH4 0x9730174D DUP6 DUP5 DUP5 PUSH1 0x40 MLOAD DUP5 PUSH4 0xFFFFFFFF AND PUSH1 0xE0 SHL DUP2 MSTORE PUSH1 0x4 ADD PUSH2 0xF60 SWAP4 SWAP3 SWAP2 SWAP1 PUSH2 0x2061 JUMP JUMPDEST PUSH0 PUSH1 0x40 MLOAD DUP1 DUP4 SUB DUP2 PUSH0 DUP8 DUP1 EXTCODESIZE ISZERO DUP1 ISZERO PUSH2 0xF77 JUMPI PUSH0 DUP1 REVERT JUMPDEST POP GAS CALL ISZERO DUP1 ISZERO PUSH2 0xF89 JUMPI RETURNDATASIZE PUSH0 DUP1 RETURNDATACOPY RETURNDATASIZE PUSH0 REVERT JUMPDEST POP POP POP POP DUP4 CALLER PUSH20 0xFFFFFFFFFFFFFFFFFFFFFFFFFFFFFFFFFFFFFFFF AND PUSH32 0x1A28CDB2C58665AC87F664863088C848AF994BBE09D700353F23D8AD1ACA1F68 DUP6 PUSH1 0x40 MLOAD PUSH2 0xFD4 SWAP2 SWAP1 PUSH2 0x2091 JUMP JUMPDEST PUSH1 0x40 MLOAD DUP1 SWAP2 SUB SWAP1 LOG3 PUSH2 0xFE4 PUSH2 0x1221 JUMP JUMPDEST POP POP POP POP JUMP JUMPDEST PUSH2 0xFF2 PUSH2 0x1093 JUMP JUMPDEST PUSH0 PUSH20 0xFFFFFFFFFFFFFFFFFFFFFFFFFFFFFFFFFFFFFFFF AND DUP2 PUSH20 0xFFFFFFFFFFFFFFFFFFFFFFFFFFFFFFFFFFFFFFFF AND SUB PUSH2 0x1062 JUMPI PUSH0 PUSH1 0x40 MLOAD PUSH32 0x1E4FBDF700000000000000000000000000000000000000000000000000000000 DUP2 MSTORE PUSH1 0x4 ADD PUSH2 0x1059 SWAP2 SWAP1 PUSH2 0x13B6 JUMP JUMPDEST PUSH1 0x40 MLOAD DUP1 SWAP2 SUB SWAP1 REVERT JUMPDEST PUSH2 0x106B DUP2 PUSH2 0x111A JUMP JUMPDEST POP JUMP JUMPDEST PUSH1 0x3 PUSH0 SWAP1 SLOAD SWAP1 PUSH2 0x100 EXP SWAP1 DIV PUSH20 0xFFFFFFFFFFFFFFFFFFFFFFFFFFFFFFFFFFFFFFFF AND DUP2 JUMP JUMPDEST PUSH2 0x109B PUSH2 0x122A JUMP JUMPDEST PUSH20 0xFFFFFFFFFFFFFFFFFFFFFFFFFFFFFFFFFFFFFFFF AND PUSH2 0x10B9 PUSH2 0x6CA JUMP JUMPDEST PUSH20 0xFFFFFFFFFFFFFFFFFFFFFFFFFFFFFFFFFFFFFFFF AND EQ PUSH2 0x1118 JUMPI PUSH2 0x10DC PUSH2 0x122A JUMP JUMPDEST PUSH1 0x40 MLOAD PUSH32 0x118CDAA700000000000000000000000000000000000000000000000000000000 DUP2 MSTORE PUSH1 0x4 ADD PUSH2 0x110F SWAP2 SWAP1 PUSH2 0x13B6 JUMP JUMPDEST PUSH1 0x40 MLOAD DUP1 SWAP2 SUB SWAP1 REVERT JUMPDEST JUMP JUMPDEST PUSH0 DUP1 PUSH0 SWAP1 SLOAD SWAP1 PUSH2 0x100 EXP SWAP1 DIV PUSH20 0xFFFFFFFFFFFFFFFFFFFFFFFFFFFFFFFFFFFFFFFF AND SWAP1 POP DUP2 PUSH0 DUP1 PUSH2 0x100 EXP DUP2 SLOAD DUP2 PUSH20 0xFFFFFFFFFFFFFFFFFFFFFFFFFFFFFFFFFFFFFFFF MUL NOT AND SWAP1 DUP4 PUSH20 0xFFFFFFFFFFFFFFFFFFFFFFFFFFFFFFFFFFFFFFFF AND MUL OR SWAP1 SSTORE POP DUP2 PUSH20 0xFFFFFFFFFFFFFFFFFFFFFFFFFFFFFFFFFFFFFFFF AND DUP2 PUSH20 0xFFFFFFFFFFFFFFFFFFFFFFFFFFFFFFFFFFFFFFFF AND PUSH32 0x8BE0079C531659141344CD1FD0A4F28419497F9722A3DAAFE3B4186F6B6457E0 PUSH1 0x40 MLOAD PUSH1 0x40 MLOAD DUP1 SWAP2 SUB SWAP1 LOG3 POP POP JUMP JUMPDEST PUSH1 0x2 PUSH1 0x1 SLOAD SUB PUSH2 0x1217 JUMPI PUSH1 0x40 MLOAD PUSH32 0x3EE5AEB500000000000000000000000000000000000000000000000000000000 DUP2 MSTORE PUSH1 0x4 ADD PUSH1 0x40 MLOAD DUP1 SWAP2 SUB SWAP1 REVERT JUMPDEST PUSH1 0x2 PUSH1 0x1 DUP2 SWAP1 SSTORE POP JUMP JUMPDEST PUSH1 0x1 DUP1 DUP2 SWAP1 SSTORE POP JUMP JUMPDEST PUSH0 CALLER SWAP1 POP SWAP1 JUMP JUMPDEST PUSH0 PUSH1 0x40 MLOAD SWAP1 POP SWAP1 JUMP JUMPDEST PUSH0 DUP1 REVERT JUMPDEST PUSH0 DUP1 REVERT JUMPDEST PUSH0 PUSH20 0xFFFFFFFFFFFFFFFFFFFFFFFFFFFFFFFFFFFFFFFF DUP3 AND SWAP1 POP SWAP2 SWAP1 POP JUMP JUMPDEST PUSH0 PUSH2 0x126B DUP3 PUSH2 0x1242 JUMP JUMPDEST SWAP1 POP SWAP2 SWAP1 POP JUMP JUMPDEST PUSH2 0x127B DUP2 PUSH2 0x1261 JUMP JUMPDEST DUP2 EQ PUSH2 0x1285 JUMPI PUSH0 DUP1 REVERT JUMPDEST POP JUMP JUMPDEST PUSH0 DUP2 CALLDATALOAD SWAP1 POP PUSH2 0x1296 DUP2 PUSH2 0x1272 JUMP JUMPDEST SWAP3 SWAP2 POP POP JUMP JUMPDEST PUSH0 PUSH1 0x20 DUP3 DUP5 SUB SLT ISZERO PUSH2 0x12B1 JUMPI PUSH2 0x12B0 PUSH2 0x123A JUMP JUMPDEST JUMPDEST PUSH0 PUSH2 0x12BE DUP5 DUP3 DUP6 ADD PUSH2 0x1288 JUMP JUMPDEST SWAP2 POP POP SWAP3 SWAP2 POP POP JUMP JUMPDEST PUSH0 DUP2 ISZERO ISZERO SWAP1 POP SWAP2 SWAP1 POP JUMP JUMPDEST PUSH2 0x12DB DUP2 PUSH2 0x12C7 JUMP JUMPDEST DUP3 MSTORE POP POP JUMP JUMPDEST PUSH0 PUSH1 0x20 DUP3 ADD SWAP1 POP PUSH2 0x12F4 PUSH0 DUP4 ADD DUP5 PUSH2 0x12D2 JUMP JUMPDEST SWAP3 SWAP2 POP POP JUMP JUMPDEST PUSH0 DUP2 SWAP1 POP SWAP2 SWAP1 POP JUMP JUMPDEST PUSH0 PUSH2 0x131D PUSH2 0x1318 PUSH2 0x1313 DUP5 PUSH2 0x1242 JUMP JUMPDEST PUSH2 0x12FA JUMP JUMPDEST PUSH2 0x1242 JUMP JUMPDEST SWAP1 POP SWAP2 SWAP1 POP JUMP JUMPDEST PUSH0 PUSH2 0x132E DUP3 PUSH2 0x1303 JUMP JUMPDEST SWAP1 POP SWAP2 SWAP1 POP JUMP JUMPDEST PUSH0 PUSH2 0x133F DUP3 PUSH2 0x1324 JUMP JUMPDEST SWAP1 POP SWAP2 SWAP1 POP JUMP JUMPDEST PUSH2 0x134F DUP2 PUSH2 0x1335 JUMP JUMPDEST DUP3 MSTORE POP POP JUMP JUMPDEST PUSH0 PUSH1 0x20 DUP3 ADD SWAP1 POP PUSH2 0x1368 PUSH0 DUP4 ADD DUP5 PUSH2 0x1346 JUMP JUMPDEST SWAP3 SWAP2 POP POP JUMP JUMPDEST PUSH0 PUSH2 0x1378 DUP3 PUSH2 0x1324 JUMP JUMPDEST SWAP1 POP SWAP2 SWAP1 POP JUMP JUMPDEST PUSH2 0x1388 DUP2 PUSH2 0x136E JUMP JUMPDEST DUP3 MSTORE POP POP JUMP JUMPDEST PUSH0 PUSH1 0x20 DUP3 ADD SWAP1 POP PUSH2 0x13A1 PUSH0 DUP4 ADD DUP5 PUSH2 0x137F JUMP JUMPDEST SWAP3 SWAP2 POP POP JUMP JUMPDEST PUSH2 0x13B0 DUP2 PUSH2 0x1261 JUMP JUMPDEST DUP3 MSTORE POP POP JUMP JUMPDEST PUSH0 PUSH1 0x20 DUP3 ADD SWAP1 POP PUSH2 0x13C9 PUSH0 DUP4 ADD DUP5 PUSH2 0x13A7 JUMP JUMPDEST SWAP3 SWAP2 POP POP JUMP JUMPDEST PUSH0 DUP2 SWAP1 POP SWAP2 SWAP1 POP JUMP JUMPDEST PUSH2 0x13E1 DUP2 PUSH2 0x13CF JUMP JUMPDEST DUP2 EQ PUSH2 0x13EB JUMPI PUSH0 DUP1 REVERT JUMPDEST POP JUMP JUMPDEST PUSH0 DUP2 CALLDATALOAD SWAP1 POP PUSH2 0x13FC DUP2 PUSH2 0x13D8 JUMP JUMPDEST SWAP3 SWAP2 POP POP JUMP JUMPDEST PUSH0 PUSH1 0x20 DUP3 DUP5 SUB SLT ISZERO PUSH2 0x1417 JUMPI PUSH2 0x1416 PUSH2 0x123A JUMP JUMPDEST JUMPDEST PUSH0 PUSH2 0x1424 DUP5 DUP3 DUP6 ADD PUSH2 0x13EE JUMP JUMPDEST SWAP2 POP POP SWAP3 SWAP2 POP POP JUMP JUMPDEST PUSH0 DUP2 MLOAD SWAP1 POP SWAP2 SWAP1 POP JUMP JUMPDEST PUSH0 DUP3 DUP3 MSTORE PUSH1 0x20 DUP3 ADD SWAP1 POP SWAP3 SWAP2 POP POP JUMP JUMPDEST DUP3 DUP2 DUP4 MCOPY PUSH0 DUP4 DUP4 ADD MSTORE POP POP POP JUMP JUMPDEST PUSH0 PUSH1 0x1F NOT PUSH1 0x1F DUP4 ADD AND SWAP1 POP SWAP2 SWAP1 POP JUMP JUMPDEST PUSH0 PUSH2 0x146F DUP3 PUSH2 0x142D JUMP JUMPDEST PUSH2 0x1479 DUP2 DUP6 PUSH2 0x1437 JUMP JUMPDEST SWAP4 POP PUSH2 0x1489 DUP2 DUP6 PUSH1 0x20 DUP7 ADD PUSH2 0x1447 JUMP JUMPDEST PUSH2 0x1492 DUP2 PUSH2 0x1455 JUMP JUMPDEST DUP5 ADD SWAP2 POP POP SWAP3 SWAP2 POP POP JUMP JUMPDEST PUSH0 PUSH1 0x20 DUP3 ADD SWAP1 POP DUP2 DUP2 SUB PUSH0 DUP4 ADD MSTORE PUSH2 0x14B5 DUP2 DUP5 PUSH2 0x1465 JUMP JUMPDEST SWAP1 POP SWAP3 SWAP2 POP POP JUMP JUMPDEST PUSH0 DUP1 REVERT JUMPDEST PUSH0 DUP1 REVERT JUMPDEST PUSH0 DUP1 REVERT JUMPDEST PUSH0 DUP1 DUP4 PUSH1 0x1F DUP5 ADD SLT PUSH2 0x14DE JUMPI PUSH2 0x14DD PUSH2 0x14BD JUMP JUMPDEST JUMPDEST DUP3 CALLDATALOAD SWAP1 POP PUSH8 0xFFFFFFFFFFFFFFFF DUP2 GT ISZERO PUSH2 0x14FB JUMPI PUSH2 0x14FA PUSH2 0x14C1 JUMP JUMPDEST JUMPDEST PUSH1 0x20 DUP4 ADD SWAP2 POP DUP4 PUSH1 0x1 DUP3 MUL DUP4 ADD GT ISZERO PUSH2 0x1517 JUMPI PUSH2 0x1516 PUSH2 0x14C5 JUMP JUMPDEST JUMPDEST SWAP3 POP SWAP3 SWAP1 POP JUMP JUMPDEST PUSH0 DUP1 PUSH0 PUSH1 0x40 DUP5 DUP7 SUB SLT ISZERO PUSH2 0x1535 JUMPI PUSH2 0x1534 PUSH2 0x123A JUMP JUMPDEST JUMPDEST PUSH0 PUSH2 0x1542 DUP7 DUP3 DUP8 ADD PUSH2 0x1288 JUMP JUMPDEST SWAP4 POP POP PUSH1 0x20 DUP5 ADD CALLDATALOAD PUSH8 0xFFFFFFFFFFFFFFFF DUP2 GT ISZERO PUSH2 0x1563 JUMPI PUSH2 0x1562 PUSH2 0x123E JUMP JUMPDEST JUMPDEST PUSH2 0x156F DUP7 DUP3 DUP8 ADD PUSH2 0x14C9 JUMP JUMPDEST SWAP3 POP SWAP3 POP POP SWAP3 POP SWAP3 POP SWAP3 JUMP JUMPDEST PUSH0 DUP2 SWAP1 POP SWAP2 SWAP1 POP JUMP JUMPDEST PUSH2 0x158D DUP2 PUSH2 0x157B JUMP JUMPDEST DUP2 EQ PUSH2 0x1597 JUMPI PUSH0 DUP1 REVERT JUMPDEST POP JUMP JUMPDEST PUSH0 DUP2 CALLDATALOAD SWAP1 POP PUSH2 0x15A8 DUP2 PUSH2 0x1584 JUMP JUMPDEST SWAP3 SWAP2 POP POP JUMP JUMPDEST PUSH0 DUP1 PUSH0 DUP1 PUSH1 0x60 DUP6 DUP8 SUB SLT ISZERO PUSH2 0x15C6 JUMPI PUSH2 0x15C5 PUSH2 0x123A JUMP JUMPDEST JUMPDEST PUSH0 PUSH2 0x15D3 DUP8 DUP3 DUP9 ADD PUSH2 0x13EE JUMP JUMPDEST SWAP5 POP POP PUSH1 0x20 PUSH2 0x15E4 DUP8 DUP3 DUP9 ADD PUSH2 0x159A JUMP JUMPDEST SWAP4 POP POP PUSH1 0x40 DUP6 ADD CALLDATALOAD PUSH8 0xFFFFFFFFFFFFFFFF DUP2 GT ISZERO PUSH2 0x1605 JUMPI PUSH2 0x1604 PUSH2 0x123E JUMP JUMPDEST JUMPDEST PUSH2 0x1611 DUP8 DUP3 DUP9 ADD PUSH2 0x14C9 JUMP JUMPDEST SWAP3 POP SWAP3 POP POP SWAP3 SWAP6 SWAP2 SWAP5 POP SWAP3 POP JUMP JUMPDEST PUSH0 PUSH2 0x1629 DUP3 PUSH2 0x1324 JUMP JUMPDEST SWAP1 POP SWAP2 SWAP1 POP JUMP JUMPDEST PUSH2 0x1639 DUP2 PUSH2 0x161F JUMP JUMPDEST DUP3 MSTORE POP POP JUMP JUMPDEST PUSH0 PUSH1 0x20 DUP3 ADD SWAP1 POP PUSH2 0x1652 PUSH0 DUP4 ADD DUP5 PUSH2 0x1630 JUMP JUMPDEST SWAP3 SWAP2 POP POP JUMP JUMPDEST PUSH0 DUP3 DUP3 MSTORE PUSH1 0x20 DUP3 ADD SWAP1 POP SWAP3 SWAP2 POP POP JUMP JUMPDEST PUSH32 0x496E76616C69642046696C655265676973747279206164647265737300000000 PUSH0 DUP3 ADD MSTORE POP JUMP JUMPDEST PUSH0 PUSH2 0x169C PUSH1 0x1C DUP4 PUSH2 0x1658 JUMP JUMPDEST SWAP2 POP PUSH2 0x16A7 DUP3 PUSH2 0x1668 JUMP JUMPDEST PUSH1 0x20 DUP3 ADD SWAP1 POP SWAP2 SWAP1 POP JUMP JUMPDEST PUSH0 PUSH1 0x20 DUP3 ADD SWAP1 POP DUP2 DUP2 SUB PUSH0 DUP4 ADD MSTORE PUSH2 0x16C9 DUP2 PUSH2 0x1690 JUMP JUMPDEST SWAP1 POP SWAP2 SWAP1 POP JUMP JUMPDEST PUSH32 0x496E76616C6964204D6573736167696E67206164647265737300000000000000 PUSH0 DUP3 ADD MSTORE POP JUMP JUMPDEST PUSH0 PUSH2 0x1704 PUSH1 0x19 DUP4 PUSH2 0x1658 JUMP JUMPDEST SWAP2 POP PUSH2 0x170F DUP3 PUSH2 0x16D0 JUMP JUMPDEST PUSH1 0x20 DUP3 ADD SWAP1 POP SWAP2 SWAP1 POP JUMP JUMPDEST PUSH0 PUSH1 0x20 DUP3 ADD SWAP1 POP DUP2 DUP2 SUB PUSH0 DUP4 ADD MSTORE PUSH2 0x1731 DUP2 PUSH2 0x16F8 JUMP JUMPDEST SWAP1 POP SWAP2 SWAP1 POP JUMP JUMPDEST PUSH32 0x496E76616C696420757365722061646472657373000000000000000000000000 PUSH0 DUP3 ADD MSTORE POP JUMP JUMPDEST PUSH0 PUSH2 0x176C PUSH1 0x14 DUP4 PUSH2 0x1658 JUMP JUMPDEST SWAP2 POP PUSH2 0x1777 DUP3 PUSH2 0x1738 JUMP JUMPDEST PUSH1 0x20 DUP3 ADD SWAP1 POP SWAP2 SWAP1 POP JUMP JUMPDEST PUSH0 PUSH1 0x20 DUP3 ADD SWAP1 POP DUP2 DUP2 SUB PUSH0 DUP4 ADD MSTORE PUSH2 0x1799 DUP2 PUSH2 0x1760 JUMP JUMPDEST SWAP1 POP SWAP2 SWAP1 POP JUMP JUMPDEST PUSH32 0x5573657220616C72656164792072656769737465726564000000000000000000 PUSH0 DUP3 ADD MSTORE POP JUMP JUMPDEST PUSH0 PUSH2 0x17D4 PUSH1 0x17 DUP4 PUSH2 0x1658 JUMP JUMPDEST SWAP2 POP PUSH2 0x17DF DUP3 PUSH2 0x17A0 JUMP JUMPDEST PUSH1 0x20 DUP3 ADD SWAP1 POP SWAP2 SWAP1 POP JUMP JUMPDEST PUSH0 PUSH1 0x20 DUP3 ADD SWAP1 POP DUP2 DUP2 SUB PUSH0 DUP4 ADD MSTORE PUSH2 0x1801 DUP2 PUSH2 0x17C8 JUMP JUMPDEST SWAP1 POP SWAP2 SWAP1 POP JUMP JUMPDEST PUSH32 0x496E76616C69642053746F726167652061646472657373000000000000000000 PUSH0 DUP3 ADD MSTORE POP JUMP JUMPDEST PUSH0 PUSH2 0x183C PUSH1 0x17 DUP4 PUSH2 0x1658 JUMP JUMPDEST SWAP2 POP PUSH2 0x1847 DUP3 PUSH2 0x1808 JUMP JUMPDEST PUSH1 0x20 DUP3 ADD SWAP1 POP SWAP2 SWAP1 POP JUMP JUMPDEST PUSH0 PUSH1 0x20 DUP3 ADD SWAP1 POP DUP2 DUP2 SUB PUSH0 DUP4 ADD MSTORE PUSH2 0x1869 DUP2 PUSH2 0x1830 JUMP JUMPDEST SWAP1 POP SWAP2 SWAP1 POP JUMP JUMPDEST PUSH32 0x55736572206E6F74207265676973746572656400000000000000000000000000 PUSH0 DUP3 ADD MSTORE POP JUMP JUMPDEST PUSH0 PUSH2 0x18A4 PUSH1 0x13 DUP4 PUSH2 0x1658 JUMP JUMPDEST SWAP2 POP PUSH2 0x18AF DUP3 PUSH2 0x1870 JUMP JUMPDEST PUSH1 0x20 DUP3 ADD SWAP1 POP SWAP2 SWAP1 POP JUMP JUMPDEST PUSH0 PUSH1 0x20 DUP3 ADD SWAP1 POP DUP2 DUP2 SUB PUSH0 DUP4 ADD MSTORE PUSH2 0x18D1 DUP2 PUSH2 0x1898 JUMP JUMPDEST SWAP1 POP SWAP2 SWAP1 POP JUMP JUMPDEST PUSH2 0x18E1 DUP2 PUSH2 0x13CF JUMP JUMPDEST DUP3 MSTORE POP POP JUMP JUMPDEST PUSH0 PUSH1 0x40 DUP3 ADD SWAP1 POP PUSH2 0x18FA PUSH0 DUP4 ADD DUP6 PUSH2 0x18D8 JUMP JUMPDEST PUSH2 0x1907 PUSH1 0x20 DUP4 ADD DUP5 PUSH2 0x13A7 JUMP JUMPDEST SWAP4 SWAP3 POP POP POP JUMP JUMPDEST PUSH2 0x1917 DUP2 PUSH2 0x12C7 JUMP JUMPDEST DUP2 EQ PUSH2 0x1921 JUMPI PUSH0 DUP1 REVERT JUMPDEST POP JUMP JUMPDEST PUSH0 DUP2 MLOAD SWAP1 POP PUSH2 0x1932 DUP2 PUSH2 0x190E JUMP JUMPDEST SWAP3 SWAP2 POP POP JUMP JUMPDEST PUSH0 PUSH1 0x20 DUP3 DUP5 SUB SLT ISZERO PUSH2 0x194D JUMPI PUSH2 0x194C PUSH2 0x123A JUMP JUMPDEST JUMPDEST PUSH0 PUSH2 0x195A DUP5 DUP3 DUP6 ADD PUSH2 0x1924 JUMP JUMPDEST SWAP2 POP POP SWAP3 SWAP2 POP POP JUMP JUMPDEST PUSH32 0x5573657220646F6573206E6F7420686176652061636365737320746F20746869 PUSH0 DUP3 ADD MSTORE PUSH32 0x732066696C650000000000000000000000000000000000000000000000000000 PUSH1 0x20 DUP3 ADD MSTORE POP JUMP JUMPDEST PUSH0 PUSH2 0x19BD PUSH1 0x26 DUP4 PUSH2 0x1658 JUMP JUMPDEST SWAP2 POP PUSH2 0x19C8 DUP3 PUSH2 0x1963 JUMP JUMPDEST PUSH1 0x40 DUP3 ADD SWAP1 POP SWAP2 SWAP1 POP JUMP JUMPDEST PUSH0 PUSH1 0x20 DUP3 ADD SWAP1 POP DUP2 DUP2 SUB PUSH0 DUP4 ADD MSTORE PUSH2 0x19EA DUP2 PUSH2 0x19B1 JUMP JUMPDEST SWAP1 POP SWAP2 SWAP1 POP JUMP JUMPDEST PUSH0 PUSH1 0x20 DUP3 ADD SWAP1 POP PUSH2 0x1A04 PUSH0 DUP4 ADD DUP5 PUSH2 0x18D8 JUMP JUMPDEST SWAP3 SWAP2 POP POP JUMP JUMPDEST PUSH0 DUP1 REVERT JUMPDEST PUSH32 0x4E487B7100000000000000000000000000000000000000000000000000000000 PUSH0 MSTORE PUSH1 0x41 PUSH1 0x4 MSTORE PUSH1 0x24 PUSH0 REVERT JUMPDEST PUSH2 0x1A44 DUP3 PUSH2 0x1455 JUMP JUMPDEST DUP2 ADD DUP2 DUP2 LT PUSH8 0xFFFFFFFFFFFFFFFF DUP3 GT OR ISZERO PUSH2 0x1A63 JUMPI PUSH2 0x1A62 PUSH2 0x1A0E JUMP JUMPDEST JUMPDEST DUP1 PUSH1 0x40 MSTORE POP POP POP JUMP JUMPDEST PUSH0 PUSH2 0x1A75 PUSH2 0x1231 JUMP JUMPDEST SWAP1 POP PUSH2 0x1A81 DUP3 DUP3 PUSH2 0x1A3B JUMP JUMPDEST SWAP2 SWAP1 POP JUMP JUMPDEST PUSH0 DUP2 MLOAD SWAP1 POP PUSH2 0x1A94 DUP2 PUSH2 0x13D8 JUMP JUMPDEST SWAP3 SWAP2 POP POP JUMP JUMPDEST PUSH0 DUP2 MLOAD SWAP1 POP PUSH2 0x1AA8 DUP2 PUSH2 0x1272 JUMP JUMPDEST SWAP3 SWAP2 POP POP JUMP JUMPDEST PUSH0 DUP2 MLOAD SWAP1 POP PUSH2 0x1ABC DUP2 PUSH2 0x1584 JUMP JUMPDEST SWAP3 SWAP2 POP POP JUMP JUMPDEST PUSH0 PUSH1 0xE0 DUP3 DUP5 SUB SLT ISZERO PUSH2 0x1AD7 JUMPI PUSH2 0x1AD6 PUSH2 0x1A0A JUMP JUMPDEST JUMPDEST PUSH2 0x1AE1 PUSH1 0xE0 PUSH2 0x1A6C JUMP JUMPDEST SWAP1 POP PUSH0 PUSH2 0x1AF0 DUP5 DUP3 DUP6 ADD PUSH2 0x1A86 JUMP JUMPDEST PUSH0 DUP4 ADD MSTORE POP PUSH1 0x20 PUSH2 0x1B03 DUP5 DUP3 DUP6 ADD PUSH2 0x1A9A JUMP JUMPDEST PUSH1 0x20 DUP4 ADD MSTORE POP PUSH1 0x40 PUSH2 0x1B17 DUP5 DUP3 DUP6 ADD PUSH2 0x1AAE JUMP JUMPDEST PUSH1 0x40 DUP4 ADD MSTORE POP PUSH1 0x60 PUSH2 0x1B2B DUP5 DUP3 DUP6 ADD PUSH2 0x1AAE JUMP JUMPDEST PUSH1 0x60 DUP4 ADD MSTORE POP PUSH1 0x80 PUSH2 0x1B3F DUP5 DUP3 DUP6 ADD PUSH2 0x1924 JUMP JUMPDEST PUSH1 0x80 DUP4 ADD MSTORE POP PUSH1 0xA0 PUSH2 0x1B53 DUP5 DUP3 DUP6 ADD PUSH2 0x1A86 JUMP JUMPDEST PUSH1 0xA0 DUP4 ADD MSTORE POP PUSH1 0xC0 PUSH2 0x1B67 DUP5 DUP3 DUP6 ADD PUSH2 0x1924 JUMP JUMPDEST PUSH1 0xC0 DUP4 ADD MSTORE POP SWAP3 SWAP2 POP POP JUMP JUMPDEST PUSH0 PUSH1 0xE0 DUP3 DUP5 SUB SLT ISZERO PUSH2 0x1B88 JUMPI PUSH2 0x1B87 PUSH2 0x123A JUMP JUMPDEST JUMPDEST PUSH0 PUSH2 0x1B95 DUP5 DUP3 DUP6 ADD PUSH2 0x1AC2 JUMP JUMPDEST SWAP2 POP POP SWAP3 SWAP2 POP POP JUMP JUMPDEST PUSH32 0x46696C6520646F6573206E6F7420657869737400000000000000000000000000 PUSH0 DUP3 ADD MSTORE POP JUMP JUMPDEST PUSH0 PUSH2 0x1BD2 PUSH1 0x13 DUP4 PUSH2 0x1658 JUMP JUMPDEST SWAP2 POP PUSH2 0x1BDD DUP3 PUSH2 0x1B9E JUMP JUMPDEST PUSH1 0x20 DUP3 ADD SWAP1 POP SWAP2 SWAP1 POP JUMP JUMPDEST PUSH0 PUSH1 0x20 DUP3 ADD SWAP1 POP DUP2 DUP2 SUB PUSH0 DUP4 ADD MSTORE PUSH2 0x1BFF DUP2 PUSH2 0x1BC6 JUMP JUMPDEST SWAP1 POP SWAP2 SWAP1 POP JUMP JUMPDEST PUSH0 DUP1 REVERT JUMPDEST PUSH0 PUSH8 0xFFFFFFFFFFFFFFFF DUP3 GT ISZERO PUSH2 0x1C24 JUMPI PUSH2 0x1C23 PUSH2 0x1A0E JUMP JUMPDEST JUMPDEST PUSH2 0x1C2D DUP3 PUSH2 0x1455 JUMP JUMPDEST SWAP1 POP PUSH1 0x20 DUP2 ADD SWAP1 POP SWAP2 SWAP1 POP JUMP JUMPDEST PUSH0 PUSH2 0x1C4C PUSH2 0x1C47 DUP5 PUSH2 0x1C0A JUMP JUMPDEST PUSH2 0x1A6C JUMP JUMPDEST SWAP1 POP DUP3 DUP2 MSTORE PUSH1 0x20 DUP2 ADD DUP5 DUP5 DUP5 ADD GT ISZERO PUSH2 0x1C68 JUMPI PUSH2 0x1C67 PUSH2 0x1C06 JUMP JUMPDEST JUMPDEST PUSH2 0x1C73 DUP5 DUP3 DUP6 PUSH2 0x1447 JUMP JUMPDEST POP SWAP4 SWAP3 POP POP POP JUMP JUMPDEST PUSH0 DUP3 PUSH1 0x1F DUP4 ADD SLT PUSH2 0x1C8F JUMPI PUSH2 0x1C8E PUSH2 0x14BD JUMP JUMPDEST JUMPDEST DUP2 MLOAD PUSH2 0x1C9F DUP5 DUP3 PUSH1 0x20 DUP7 ADD PUSH2 0x1C3A JUMP JUMPDEST SWAP2 POP POP SWAP3 SWAP2 POP POP JUMP JUMPDEST PUSH0 PUSH1 0x20 DUP3 DUP5 SUB SLT ISZERO PUSH2 0x1CBD JUMPI PUSH2 0x1CBC PUSH2 0x123A JUMP JUMPDEST JUMPDEST PUSH0 DUP3 ADD MLOAD PUSH8 0xFFFFFFFFFFFFFFFF DUP2 GT ISZERO PUSH2 0x1CDA JUMPI PUSH2 0x1CD9 PUSH2 0x123E JUMP JUMPDEST JUMPDEST PUSH2 0x1CE6 DUP5 DUP3 DUP6 ADD PUSH2 0x1C7B JUMP JUMPDEST SWAP2 POP POP SWAP3 SWAP2 POP POP JUMP JUMPDEST PUSH32 0x456D7074792066696C6520646174610000000000000000000000000000000000 PUSH0 DUP3 ADD MSTORE POP JUMP JUMPDEST PUSH0 PUSH2 0x1D23 PUSH1 0xF DUP4 PUSH2 0x1658 JUMP JUMPDEST SWAP2 POP PUSH2 0x1D2E DUP3 PUSH2 0x1CEF JUMP JUMPDEST PUSH1 0x20 DUP3 ADD SWAP1 POP SWAP2 SWAP1 POP JUMP JUMPDEST PUSH0 PUSH1 0x20 DUP3 ADD SWAP1 POP DUP2 DUP2 SUB PUSH0 DUP4 ADD MSTORE PUSH2 0x1D50 DUP2 PUSH2 0x1D17 JUMP JUMPDEST SWAP1 POP SWAP2 SWAP1 POP JUMP JUMPDEST PUSH32 0x496E76616C696420726563697069656E74206164647265737300000000000000 PUSH0 DUP3 ADD MSTORE POP JUMP JUMPDEST PUSH0 PUSH2 0x1D8B PUSH1 0x19 DUP4 PUSH2 0x1658 JUMP JUMPDEST SWAP2 POP PUSH2 0x1D96 DUP3 PUSH2 0x1D57 JUMP JUMPDEST PUSH1 0x20 DUP3 ADD SWAP1 POP SWAP2 SWAP1 POP JUMP JUMPDEST PUSH0 PUSH1 0x20 DUP3 ADD SWAP1 POP DUP2 DUP2 SUB PUSH0 DUP4 ADD MSTORE PUSH2 0x1DB8 DUP2 PUSH2 0x1D7F JUMP JUMPDEST SWAP1 POP SWAP2 SWAP1 POP JUMP JUMPDEST PUSH32 0x4D6573736167652063616E6E6F7420626520656D707479000000000000000000 PUSH0 DUP3 ADD MSTORE POP JUMP JUMPDEST PUSH0 PUSH2 0x1DF3 PUSH1 0x17 DUP4 PUSH2 0x1658 JUMP JUMPDEST SWAP2 POP PUSH2 0x1DFE DUP3 PUSH2 0x1DBF JUMP JUMPDEST PUSH1 0x20 DUP3 ADD SWAP1 POP SWAP2 SWAP1 POP JUMP JUMPDEST PUSH0 PUSH1 0x20 DUP3 ADD SWAP1 POP DUP2 DUP2 SUB PUSH0 DUP4 ADD MSTORE PUSH2 0x1E20 DUP2 PUSH2 0x1DE7 JUMP JUMPDEST SWAP1 POP SWAP2 SWAP1 POP JUMP JUMPDEST PUSH0 DUP2 SWAP1 POP SWAP3 SWAP2 POP POP JUMP JUMPDEST DUP3 DUP2 DUP4 CALLDATACOPY PUSH0 DUP4 DUP4 ADD MSTORE POP POP POP JUMP JUMPDEST PUSH0 PUSH2 0x1E4A DUP4 DUP6 PUSH2 0x1E27 JUMP JUMPDEST SWAP4 POP PUSH2 0x1E57 DUP4 DUP6 DUP5 PUSH2 0x1E31 JUMP JUMPDEST DUP3 DUP5 ADD SWAP1 POP SWAP4 SWAP3 POP POP POP JUMP JUMPDEST PUSH0 PUSH2 0x1E6F DUP3 DUP5 DUP7 PUSH2 0x1E3F JUMP JUMPDEST SWAP2 POP DUP2 SWAP1 POP SWAP4 SWAP3 POP POP POP JUMP JUMPDEST PUSH0 PUSH2 0x1E86 DUP4 DUP6 PUSH2 0x1437 JUMP JUMPDEST SWAP4 POP PUSH2 0x1E93 DUP4 DUP6 DUP5 PUSH2 0x1E31 JUMP JUMPDEST PUSH2 0x1E9C DUP4 PUSH2 0x1455 JUMP JUMPDEST DUP5 ADD SWAP1 POP SWAP4 SWAP3 POP POP POP JUMP JUMPDEST PUSH0 PUSH1 0x60 DUP3 ADD SWAP1 POP PUSH2 0x1EBA PUSH0 DUP4 ADD DUP8 PUSH2 0x13A7 JUMP JUMPDEST DUP2 DUP2 SUB PUSH1 0x20 DUP4 ADD MSTORE PUSH2 0x1ECD DUP2 DUP6 DUP8 PUSH2 0x1E7B JUMP JUMPDEST SWAP1 POP PUSH2 0x1EDC PUSH1 0x40 DUP4 ADD DUP5 PUSH2 0x18D8 JUMP JUMPDEST SWAP6 SWAP5 POP POP POP POP POP JUMP JUMPDEST PUSH32 0x496E76616C69642066696C652068617368000000000000000000000000000000 PUSH0 DUP3 ADD MSTORE POP JUMP JUMPDEST PUSH0 PUSH2 0x1F19 PUSH1 0x11 DUP4 PUSH2 0x1658 JUMP JUMPDEST SWAP2 POP PUSH2 0x1F24 DUP3 PUSH2 0x1EE5 JUMP JUMPDEST PUSH1 0x20 DUP3 ADD SWAP1 POP SWAP2 SWAP1 POP JUMP JUMPDEST PUSH0 PUSH1 0x20 DUP3 ADD SWAP1 POP DUP2 DUP2 SUB PUSH0 DUP4 ADD MSTORE PUSH2 0x1F46 DUP2 PUSH2 0x1F0D JUMP JUMPDEST SWAP1 POP SWAP2 SWAP1 POP JUMP JUMPDEST PUSH32 0x46696C652073697A65206D7573742062652067726561746572207468616E2030 PUSH0 DUP3 ADD MSTORE POP JUMP JUMPDEST PUSH0 PUSH2 0x1F81 PUSH1 0x20 DUP4 PUSH2 0x1658 JUMP JUMPDEST SWAP2 POP PUSH2 0x1F8C DUP3 PUSH2 0x1F4D JUMP JUMPDEST PUSH1 0x20 DUP3 ADD SWAP1 POP SWAP2 SWAP1 POP JUMP JUMPDEST PUSH0 PUSH1 0x20 DUP3 ADD SWAP1 POP DUP2 DUP2 SUB PUSH0 DUP4 ADD MSTORE PUSH2 0x1FAE DUP2 PUSH2 0x1F75 JUMP JUMPDEST SWAP1 POP SWAP2 SWAP1 POP JUMP JUMPDEST PUSH32 0x53697A65206D69736D6174636800000000000000000000000000000000000000 PUSH0 DUP3 ADD MSTORE POP JUMP JUMPDEST PUSH0 PUSH2 0x1FE9 PUSH1 0xD DUP4 PUSH2 0x1658 JUMP JUMPDEST SWAP2 POP PUSH2 0x1FF4 DUP3 PUSH2 0x1FB5 JUMP JUMPDEST PUSH1 0x20 DUP3 ADD SWAP1 POP SWAP2 SWAP1 POP JUMP JUMPDEST PUSH0 PUSH1 0x20 DUP3 ADD SWAP1 POP DUP2 DUP2 SUB PUSH0 DUP4 ADD MSTORE PUSH2 0x2016 DUP2 PUSH2 0x1FDD JUMP JUMPDEST SWAP1 POP SWAP2 SWAP1 POP JUMP JUMPDEST PUSH2 0x2026 DUP2 PUSH2 0x157B JUMP JUMPDEST DUP3 MSTORE POP POP JUMP JUMPDEST PUSH0 PUSH1 0x60 DUP3 ADD SWAP1 POP PUSH2 0x203F PUSH0 DUP4 ADD DUP7 PUSH2 0x18D8 JUMP JUMPDEST PUSH2 0x204C PUSH1 0x20 DUP4 ADD DUP6 PUSH2 0x13A7 JUMP JUMPDEST PUSH2 0x2059 PUSH1 0x40 DUP4 ADD DUP5 PUSH2 0x201D JUMP JUMPDEST SWAP5 SWAP4 POP POP POP POP JUMP JUMPDEST PUSH0 PUSH1 0x40 DUP3 ADD SWAP1 POP PUSH2 0x2074 PUSH0 DUP4 ADD DUP7 PUSH2 0x18D8 JUMP JUMPDEST DUP2 DUP2 SUB PUSH1 0x20 DUP4 ADD MSTORE PUSH2 0x2087 DUP2 DUP5 DUP7 PUSH2 0x1E7B JUMP JUMPDEST SWAP1 POP SWAP5 SWAP4 POP POP POP POP JUMP JUMPDEST PUSH0 PUSH1 0x20 DUP3 ADD SWAP1 POP PUSH2 0x20A4 PUSH0 DUP4 ADD DUP5 PUSH2 0x201D JUMP JUMPDEST SWAP3 SWAP2 POP POP JUMP INVALID LOG2 PUSH5 0x6970667358 0x22 SLT KECCAK256 0xE4 0xB0 PUSH21 0x898331DD3D962052EB39EEEE16AABA2DE795E3D436 CALLDATACOPY 0xBF GAS CODESIZE PUSH0 CODESIZE SWAP8 0xAE PUSH5 0x736F6C6343 STOP ADDMOD BYTE STOP CALLER "
				},
				"gasEstimates": {
					"creation": {
						"codeDepositCost": "1683200",
						"executionCost": "infinite",
						"totalCost": "infinite"
					},
					"external": {
						"downloadFile(bytes32)": "infinite",
						"fileRegistry()": "infinite",
						"messaging()": "infinite",
						"owner()": "2560",
						"registerUser(address)": "28286",
						"registeredUsers(address)": "2879",
						"renounceOwnership()": "infinite",
						"sendMessage(address,bytes)": "infinite",
						"storageContract()": "infinite",
						"transferOwnership(address)": "infinite",
						"updateFileRegistry(address)": "infinite",
						"updateMessaging(address)": "infinite",
						"updateStorage(address)": "infinite",
						"uploadFile(bytes32,uint256,bytes)": "infinite"
					}
				},
				"methodIdentifiers": {
					"downloadFile(bytes32)": "a30e992c",
					"fileRegistry()": "5276b263",
					"messaging()": "f74fe2e9",
					"owner()": "8da5cb5b",
					"registerUser(address)": "2199d5cd",
					"registeredUsers(address)": "0e50cee5",
					"renounceOwnership()": "715018a6",
					"sendMessage(address,bytes)": "bb5ddb0f",
					"storageContract()": "11ce0267",
					"transferOwnership(address)": "f2fde38b",
					"updateFileRegistry(address)": "03670f4f",
					"updateMessaging(address)": "20673430",
					"updateStorage(address)": "588f64e1",
					"uploadFile(bytes32,uint256,bytes)": "d951e3c1"
				}
			},
			"storageLayout": {
				"storage": [
					{
						"astId": 8,
						"contract": "core/CipherZeroCore.sol:CipherZeroCore",
						"label": "_owner",
						"offset": 0,
						"slot": "0",
						"type": "t_address"
					},
					{
						"astId": 188,
						"contract": "core/CipherZeroCore.sol:CipherZeroCore",
						"label": "_status",
						"offset": 0,
						"slot": "1",
						"type": "t_uint256"
					},
					{
						"astId": 261,
						"contract": "core/CipherZeroCore.sol:CipherZeroCore",
						"label": "fileRegistry",
						"offset": 0,
						"slot": "2",
						"type": "t_contract(IFileRegistry)748"
					},
					{
						"astId": 264,
						"contract": "core/CipherZeroCore.sol:CipherZeroCore",
						"label": "messaging",
						"offset": 0,
						"slot": "3",
						"type": "t_contract(IMessaging)829"
					},
					{
						"astId": 267,
						"contract": "core/CipherZeroCore.sol:CipherZeroCore",
						"label": "storageContract",
						"offset": 0,
						"slot": "4",
						"type": "t_contract(IStorageContract)960"
					},
					{
						"astId": 271,
						"contract": "core/CipherZeroCore.sol:CipherZeroCore",
						"label": "registeredUsers",
						"offset": 0,
						"slot": "5",
						"type": "t_mapping(t_address,t_bool)"
					}
				],
				"types": {
					"t_address": {
						"encoding": "inplace",
						"label": "address",
						"numberOfBytes": "20"
					},
					"t_bool": {
						"encoding": "inplace",
						"label": "bool",
						"numberOfBytes": "1"
					},
					"t_contract(IFileRegistry)748": {
						"encoding": "inplace",
						"label": "contract IFileRegistry",
						"numberOfBytes": "20"
					},
					"t_contract(IMessaging)829": {
						"encoding": "inplace",
						"label": "contract IMessaging",
						"numberOfBytes": "20"
					},
					"t_contract(IStorageContract)960": {
						"encoding": "inplace",
						"label": "contract IStorageContract",
						"numberOfBytes": "20"
					},
					"t_mapping(t_address,t_bool)": {
						"encoding": "mapping",
						"key": "t_address",
						"label": "mapping(address => bool)",
						"numberOfBytes": "32",
						"value": "t_bool"
					},
					"t_uint256": {
						"encoding": "inplace",
						"label": "uint256",
						"numberOfBytes": "32"
					}
				}
			},
			"userdoc": {
				"kind": "user",
				"methods": {},
				"version": 1
			}
		}
	}
}