{
	"core/Storage.sol": {
		"Storage": {
			"abi": [
				{
					"inputs": [
						{
							"internalType": "address",
							"name": "initialOwner",
							"type": "address"
						}
					],
					"stateMutability": "nonpayable",
					"type": "constructor"
				},
				{
					"inputs": [
						{
							"internalType": "address",
							"name": "owner",
							"type": "address"
						}
					],
					"name": "OwnableInvalidOwner",
					"type": "error"
				},
				{
					"inputs": [
						{
							"internalType": "address",
							"name": "account",
							"type": "address"
						}
					],
					"name": "OwnableUnauthorizedAccount",
					"type": "error"
				},
				{
					"inputs": [],
					"name": "ReentrancyGuardReentrantCall",
					"type": "error"
				},
				{
					"anonymous": false,
					"inputs": [
						{
							"indexed": true,
							"internalType": "bytes32",
							"name": "fileHash",
							"type": "bytes32"
						},
						{
							"indexed": true,
							"internalType": "uint256",
							"name": "chunkIndex",
							"type": "uint256"
						},
						{
							"indexed": false,
							"internalType": "bytes32",
							"name": "chunkHash",
							"type": "bytes32"
						}
					],
					"name": "ChunkStored",
					"type": "event"
				},
				{
					"anonymous": false,
					"inputs": [
						{
							"indexed": true,
							"internalType": "bytes32",
							"name": "fileHash",
							"type": "bytes32"
						},
						{
							"indexed": false,
							"internalType": "bytes32",
							"name": "encryptionProof",
							"type": "bytes32"
						}
					],
					"name": "EncryptionUpdated",
					"type": "event"
				},
				{
					"anonymous": false,
					"inputs": [
						{
							"indexed": true,
							"internalType": "bytes32",
							"name": "fileHash",
							"type": "bytes32"
						},
						{
							"indexed": true,
							"internalType": "address",
							"name": "owner",
							"type": "address"
						}
					],
					"name": "FileRemoved",
					"type": "event"
				},
				{
					"anonymous": false,
					"inputs": [
						{
							"indexed": true,
							"internalType": "bytes32",
							"name": "fileHash",
							"type": "bytes32"
						},
						{
							"indexed": true,
							"internalType": "address",
							"name": "requester",
							"type": "address"
						}
					],
					"name": "FileRetrieved",
					"type": "event"
				},
				{
					"anonymous": false,
					"inputs": [
						{
							"indexed": true,
							"internalType": "bytes32",
							"name": "fileHash",
							"type": "bytes32"
						},
						{
							"indexed": true,
							"internalType": "address",
							"name": "owner",
							"type": "address"
						},
						{
							"indexed": false,
							"internalType": "uint256",
							"name": "size",
							"type": "uint256"
						},
						{
							"indexed": false,
							"internalType": "uint256",
							"name": "chunks",
							"type": "uint256"
						},
						{
							"indexed": false,
							"internalType": "bool",
							"name": "encrypted",
							"type": "bool"
						}
					],
					"name": "FileStored",
					"type": "event"
				},
				{
					"anonymous": false,
					"inputs": [
						{
							"indexed": true,
							"internalType": "address",
							"name": "previousOwner",
							"type": "address"
						},
						{
							"indexed": true,
							"internalType": "address",
							"name": "newOwner",
							"type": "address"
						}
					],
					"name": "OwnershipTransferred",
					"type": "event"
				},
				{
					"inputs": [],
					"name": "MAX_CHUNK_SIZE",
					"outputs": [
						{
							"internalType": "uint256",
							"name": "",
							"type": "uint256"
						}
					],
					"stateMutability": "view",
					"type": "function"
				},
				{
					"inputs": [],
					"name": "MAX_FILE_SIZE",
					"outputs": [
						{
							"internalType": "uint256",
							"name": "",
							"type": "uint256"
						}
					],
					"stateMutability": "view",
					"type": "function"
				},
				{
					"inputs": [
						{
							"internalType": "bytes32",
							"name": "fileHash",
							"type": "bytes32"
						}
					],
					"name": "fileExists",
					"outputs": [
						{
							"internalType": "bool",
							"name": "",
							"type": "bool"
						}
					],
					"stateMutability": "view",
					"type": "function"
				},
				{
					"inputs": [
						{
							"internalType": "bytes32",
							"name": "fileHash",
							"type": "bytes32"
						}
					],
					"name": "getChunkCount",
					"outputs": [
						{
							"internalType": "uint256",
							"name": "",
							"type": "uint256"
						}
					],
					"stateMutability": "view",
					"type": "function"
				},
				{
					"inputs": [
						{
							"internalType": "bytes32",
							"name": "fileHash",
							"type": "bytes32"
						},
						{
							"internalType": "uint256",
							"name": "index",
							"type": "uint256"
						}
					],
					"name": "getChunkInfo",
					"outputs": [
						{
							"components": [
								{
									"internalType": "uint256",
									"name": "index",
									"type": "uint256"
								},
								{
									"internalType": "uint256",
									"name": "size",
									"type": "uint256"
								},
								{
									"internalType": "bytes32",
									"name": "hash",
									"type": "bytes32"
								},
								{
									"internalType": "bytes32",
									"name": "proof",
									"type": "bytes32"
								}
							],
							"internalType": "struct IStorage.ChunkInfo",
							"name": "",
							"type": "tuple"
						}
					],
					"stateMutability": "view",
					"type": "function"
				},
				{
					"inputs": [
						{
							"internalType": "bytes32",
							"name": "fileHash",
							"type": "bytes32"
						}
					],
					"name": "getFileMetadata",
					"outputs": [
						{
							"components": [
								{
									"internalType": "bytes32",
									"name": "fileHash",
									"type": "bytes32"
								},
								{
									"internalType": "address",
									"name": "owner",
									"type": "address"
								},
								{
									"internalType": "uint256",
									"name": "size",
									"type": "uint256"
								},
								{
									"internalType": "uint256",
									"name": "created",
									"type": "uint256"
								},
								{
									"internalType": "bool",
									"name": "isEncrypted",
									"type": "bool"
								},
								{
									"internalType": "bytes32",
									"name": "encryptionProof",
									"type": "bytes32"
								},
								{
									"internalType": "uint256",
									"name": "chunks",
									"type": "uint256"
								},
								{
									"internalType": "bool",
									"name": "exists",
									"type": "bool"
								}
							],
							"internalType": "struct IStorage.FileMetadata",
							"name": "",
							"type": "tuple"
						}
					],
					"stateMutability": "view",
					"type": "function"
				},
				{
					"inputs": [
						{
							"internalType": "bytes32",
							"name": "fileHash",
							"type": "bytes32"
						}
					],
					"name": "getFileSize",
					"outputs": [
						{
							"internalType": "uint256",
							"name": "",
							"type": "uint256"
						}
					],
					"stateMutability": "view",
					"type": "function"
				},
				{
					"inputs": [
						{
							"internalType": "bytes32",
							"name": "fileHash",
							"type": "bytes32"
						},
						{
							"internalType": "address",
							"name": "user",
							"type": "address"
						}
					],
					"name": "hasAccess",
					"outputs": [
						{
							"internalType": "bool",
							"name": "",
							"type": "bool"
						}
					],
					"stateMutability": "view",
					"type": "function"
				},
				{
					"inputs": [],
					"name": "owner",
					"outputs": [
						{
							"internalType": "address",
							"name": "",
							"type": "address"
						}
					],
					"stateMutability": "view",
					"type": "function"
				},
				{
					"inputs": [
						{
							"internalType": "bytes32",
							"name": "fileHash",
							"type": "bytes32"
						}
					],
					"name": "removeFile",
					"outputs": [],
					"stateMutability": "nonpayable",
					"type": "function"
				},
				{
					"inputs": [],
					"name": "renounceOwnership",
					"outputs": [],
					"stateMutability": "nonpayable",
					"type": "function"
				},
				{
					"inputs": [
						{
							"internalType": "bytes32",
							"name": "fileHash",
							"type": "bytes32"
						},
						{
							"internalType": "uint256",
							"name": "index",
							"type": "uint256"
						}
					],
					"name": "retrieveChunk",
					"outputs": [
						{
							"internalType": "bytes",
							"name": "",
							"type": "bytes"
						}
					],
					"stateMutability": "view",
					"type": "function"
				},
				{
					"inputs": [
						{
							"internalType": "bytes32",
							"name": "fileHash",
							"type": "bytes32"
						}
					],
					"name": "retrieveFile",
					"outputs": [
						{
							"components": [
								{
									"internalType": "bytes32",
									"name": "fileHash",
									"type": "bytes32"
								},
								{
									"internalType": "address",
									"name": "owner",
									"type": "address"
								},
								{
									"internalType": "uint256",
									"name": "size",
									"type": "uint256"
								},
								{
									"internalType": "uint256",
									"name": "created",
									"type": "uint256"
								},
								{
									"internalType": "bool",
									"name": "isEncrypted",
									"type": "bool"
								},
								{
									"internalType": "bytes32",
									"name": "encryptionProof",
									"type": "bytes32"
								},
								{
									"internalType": "uint256",
									"name": "chunks",
									"type": "uint256"
								},
								{
									"internalType": "bool",
									"name": "exists",
									"type": "bool"
								}
							],
							"internalType": "struct IStorage.FileMetadata",
							"name": "",
							"type": "tuple"
						}
					],
					"stateMutability": "view",
					"type": "function"
				},
				{
					"inputs": [
						{
							"internalType": "bytes32",
							"name": "fileHash",
							"type": "bytes32"
						},
						{
							"internalType": "uint256",
							"name": "index",
							"type": "uint256"
						},
						{
							"internalType": "bytes",
							"name": "data",
							"type": "bytes"
						},
						{
							"internalType": "bool",
							"name": "isEncrypted",
							"type": "bool"
						}
					],
					"name": "storeChunk",
					"outputs": [
						{
							"internalType": "bool",
							"name": "",
							"type": "bool"
						}
					],
					"stateMutability": "nonpayable",
					"type": "function"
				},
				{
					"inputs": [
						{
							"internalType": "bytes32",
							"name": "fileHash",
							"type": "bytes32"
						},
						{
							"internalType": "uint256",
							"name": "index",
							"type": "uint256"
						},
						{
							"internalType": "bytes",
							"name": "data",
							"type": "bytes"
						}
					],
					"name": "storeChunk",
					"outputs": [
						{
							"internalType": "bool",
							"name": "",
							"type": "bool"
						}
					],
					"stateMutability": "nonpayable",
					"type": "function"
				},
				{
					"inputs": [
						{
							"internalType": "bytes32",
							"name": "fileHash",
							"type": "bytes32"
						},
						{
							"internalType": "uint256",
							"name": "chunkIndex",
							"type": "uint256"
						},
						{
							"internalType": "bytes",
							"name": "data",
							"type": "bytes"
						},
						{
							"internalType": "bytes32",
							"name": "proof",
							"type": "bytes32"
						}
					],
					"name": "storeChunk",
					"outputs": [],
					"stateMutability": "nonpayable",
					"type": "function"
				},
				{
					"inputs": [
						{
							"internalType": "bytes32",
							"name": "fileHash",
							"type": "bytes32"
						},
						{
							"internalType": "bytes",
							"name": "data",
							"type": "bytes"
						},
						{
							"internalType": "bool",
							"name": "isEncrypted",
							"type": "bool"
						},
						{
							"internalType": "bytes32",
							"name": "encryptionProof",
							"type": "bytes32"
						}
					],
					"name": "storeFile",
					"outputs": [],
					"stateMutability": "nonpayable",
					"type": "function"
				},
				{
					"inputs": [
						{
							"internalType": "bytes32",
							"name": "fileHash",
							"type": "bytes32"
						},
						{
							"internalType": "uint256",
							"name": "size",
							"type": "uint256"
						},
						{
							"internalType": "uint256",
							"name": "chunks",
							"type": "uint256"
						},
						{
							"internalType": "bool",
							"name": "encrypted",
							"type": "bool"
						},
						{
							"internalType": "string",
							"name": "contentType",
							"type": "string"
						}
					],
					"name": "storeFile",
					"outputs": [
						{
							"internalType": "bool",
							"name": "",
							"type": "bool"
						}
					],
					"stateMutability": "nonpayable",
					"type": "function"
				},
				{
					"inputs": [
						{
							"internalType": "bytes32",
							"name": "fileHash",
							"type": "bytes32"
						},
						{
							"internalType": "uint256",
							"name": "size",
							"type": "uint256"
						},
						{
							"internalType": "uint256",
							"name": "chunkCount",
							"type": "uint256"
						},
						{
							"internalType": "string",
							"name": "contentType",
							"type": "string"
						},
						{
							"internalType": "bool",
							"name": "isEncrypted",
							"type": "bool"
						},
						{
							"internalType": "string",
							"name": "encryptionType",
							"type": "string"
						},
						{
							"internalType": "bytes32",
							"name": "encryptionKey",
							"type": "bytes32"
						}
					],
					"name": "storeFile",
					"outputs": [
						{
							"internalType": "bool",
							"name": "",
							"type": "bool"
						}
					],
					"stateMutability": "nonpayable",
					"type": "function"
				},
				{
					"inputs": [
						{
							"internalType": "address",
							"name": "newOwner",
							"type": "address"
						}
					],
					"name": "transferOwnership",
					"outputs": [],
					"stateMutability": "nonpayable",
					"type": "function"
				},
				{
					"inputs": [
						{
							"internalType": "bytes32",
							"name": "fileHash",
							"type": "bytes32"
						},
						{
							"internalType": "bytes32",
							"name": "encryptionProof",
							"type": "bytes32"
						}
					],
					"name": "updateEncryption",
					"outputs": [],
					"stateMutability": "nonpayable",
					"type": "function"
				},
				{
					"inputs": [
						{
							"internalType": "bytes32",
							"name": "fileHash",
							"type": "bytes32"
						},
						{
							"internalType": "bool",
							"name": "encrypted",
							"type": "bool"
						}
					],
					"name": "updateEncryption",
					"outputs": [
						{
							"internalType": "bool",
							"name": "",
							"type": "bool"
						}
					],
					"stateMutability": "nonpayable",
					"type": "function"
				},
				{
					"inputs": [
						{
							"internalType": "bytes32",
							"name": "fileHash",
							"type": "bytes32"
						},
						{
							"internalType": "uint256",
							"name": "index",
							"type": "uint256"
						},
						{
							"internalType": "bytes32",
							"name": "chunkHash",
							"type": "bytes32"
						}
					],
					"name": "verifyChunk",
					"outputs": [
						{
							"internalType": "bool",
							"name": "",
							"type": "bool"
						}
					],
					"stateMutability": "view",
					"type": "function"
				},
				{
					"inputs": [
						{
							"internalType": "bytes32",
							"name": "fileHash",
							"type": "bytes32"
						},
						{
							"internalType": "uint256",
							"name": "chunkIndex",
							"type": "uint256"
						},
						{
							"internalType": "bytes",
							"name": "data",
							"type": "bytes"
						},
						{
							"internalType": "bytes32",
							"name": "proof",
							"type": "bytes32"
						}
					],
					"name": "verifyChunk",
					"outputs": [
						{
							"internalType": "bool",
							"name": "",
							"type": "bool"
						}
					],
					"stateMutability": "view",
					"type": "function"
				}
			],
			"devdoc": {
				"errors": {
					"OwnableInvalidOwner(address)": [
						{
							"details": "The owner is not a valid owner account. (eg. `address(0)`)"
						}
					],
					"OwnableUnauthorizedAccount(address)": [
						{
							"details": "The caller account is not authorized to perform an operation."
						}
					],
					"ReentrancyGuardReentrantCall()": [
						{
							"details": "Unauthorized reentrant call."
						}
					]
				},
				"events": {
					"ChunkStored(bytes32,uint256,bytes32)": {
						"details": "Emitted when a chunk is stored"
					},
					"EncryptionUpdated(bytes32,bytes32)": {
						"details": "Emitted when encryption status changes"
					},
					"FileRemoved(bytes32,address)": {
						"details": "Emitted when a file is removed"
					},
					"FileRetrieved(bytes32,address)": {
						"details": "Emitted when a file is retrieved"
					},
					"FileStored(bytes32,address,uint256,uint256,bool)": {
						"details": "Emitted when a file is stored"
					}
				},
				"kind": "dev",
				"methods": {
					"owner()": {
						"details": "Returns the address of the current owner."
					},
					"renounceOwnership()": {
						"details": "Leaves the contract without owner. It will not be possible to call `onlyOwner` functions. Can only be called by the current owner. NOTE: Renouncing ownership will leave the contract without an owner, thereby disabling any functionality that is only available to the owner."
					},
					"storeFile(bytes32,bytes,bool,bytes32)": {
						"params": {
							"data": "File data to store",
							"encryptionProof": "Proof of encryption if encrypted",
							"fileHash": "Hash of the file",
							"isEncrypted": "Whether the file is encrypted"
						}
					},
					"transferOwnership(address)": {
						"details": "Transfers ownership of the contract to a new account (`newOwner`). Can only be called by the current owner."
					},
					"updateEncryption(bytes32,bytes32)": {
						"params": {
							"encryptionProof": "New encryption proof",
							"fileHash": "Hash of the file"
						}
					}
				},
				"version": 1
			},
			"evm": {
				"assembly": "    /* \"core/Storage.sol\":209:8358  contract Storage is IStorage, Ownable, ReentrancyGuard {... */\n  mstore(0x40, 0x80)\n    /* \"core/Storage.sol\":602:660  constructor(address initialOwner) Ownable(initialOwner) {} */\n  callvalue\n  dup1\n  iszero\n  tag_1\n  jumpi\n  0x00\n  dup1\n  revert\ntag_1:\n  pop\n  mload(0x40)\n  sub(codesize, bytecodeSize)\n  dup1\n  bytecodeSize\n  dup4\n  codecopy\n  dup2\n  dup2\n  add\n  0x40\n  mstore\n  dup2\n  add\n  swap1\n  tag_2\n  swap2\n  swap1\n  tag_3\n  jump\t// in\ntag_2:\n    /* \"core/Storage.sol\":644:656  initialOwner */\n  dup1\n    /* \"@openzeppelin/contracts/access/Ownable.sol\":1297:1298  0 */\n  0x00\n    /* \"@openzeppelin/contracts/access/Ownable.sol\":1273:1299  initialOwner == address(0) */\n  0xffffffffffffffffffffffffffffffffffffffff\n  and\n    /* \"@openzeppelin/contracts/access/Ownable.sol\":1273:1285  initialOwner */\n  dup2\n    /* \"@openzeppelin/contracts/access/Ownable.sol\":1273:1299  initialOwner == address(0) */\n  0xffffffffffffffffffffffffffffffffffffffff\n  and\n  sub\n    /* \"@openzeppelin/contracts/access/Ownable.sol\":1269:1364  if (initialOwner == address(0)) {... */\n  tag_8\n  jumpi\n    /* \"@openzeppelin/contracts/access/Ownable.sol\":1350:1351  0 */\n  0x00\n    /* \"@openzeppelin/contracts/access/Ownable.sol\":1322:1353  OwnableInvalidOwner(address(0)) */\n  mload(0x40)\n  0x1e4fbdf700000000000000000000000000000000000000000000000000000000\n  dup2\n  mstore\n  0x04\n  add\n  tag_9\n  swap2\n  swap1\n  tag_10\n  jump\t// in\ntag_9:\n  mload(0x40)\n  dup1\n  swap2\n  sub\n  swap1\n  revert\n    /* \"@openzeppelin/contracts/access/Ownable.sol\":1269:1364  if (initialOwner == address(0)) {... */\ntag_8:\n    /* \"@openzeppelin/contracts/access/Ownable.sol\":1373:1405  _transferOwnership(initialOwner) */\n  tag_11\n    /* \"@openzeppelin/contracts/access/Ownable.sol\":1392:1404  initialOwner */\n  dup2\n    /* \"@openzeppelin/contracts/access/Ownable.sol\":1373:1391  _transferOwnership */\n  shl(0x20, tag_12)\n    /* \"@openzeppelin/contracts/access/Ownable.sol\":1373:1405  _transferOwnership(initialOwner) */\n  0x20\n  shr\n  jump\t// in\ntag_11:\n    /* \"@openzeppelin/contracts/access/Ownable.sol\":1225:1412  constructor(address initialOwner) {... */\n  pop\n    /* \"@openzeppelin/contracts/utils/ReentrancyGuard.sol\":1857:1858  1 */\n  0x01\n    /* \"@openzeppelin/contracts/utils/ReentrancyGuard.sol\":2061:2068  _status */\n  dup1\n    /* \"@openzeppelin/contracts/utils/ReentrancyGuard.sol\":2061:2082  _status = NOT_ENTERED */\n  dup2\n  swap1\n  sstore\n  pop\n    /* \"core/Storage.sol\":602:660  constructor(address initialOwner) Ownable(initialOwner) {} */\n  pop\n    /* \"core/Storage.sol\":209:8358  contract Storage is IStorage, Ownable, ReentrancyGuard {... */\n  jump(tag_15)\n    /* \"@openzeppelin/contracts/access/Ownable.sol\":2912:3099  function _transferOwnership(address newOwner) internal virtual {... */\ntag_12:\n    /* \"@openzeppelin/contracts/access/Ownable.sol\":2985:3001  address oldOwner */\n  0x00\n    /* \"@openzeppelin/contracts/access/Ownable.sol\":3004:3010  _owner */\n  dup1\n  0x00\n  swap1\n  sload\n  swap1\n  0x0100\n  exp\n  swap1\n  div\n  0xffffffffffffffffffffffffffffffffffffffff\n  and\n    /* \"@openzeppelin/contracts/access/Ownable.sol\":2985:3010  address oldOwner = _owner */\n  swap1\n  pop\n    /* \"@openzeppelin/contracts/access/Ownable.sol\":3029:3037  newOwner */\n  dup2\n    /* \"@openzeppelin/contracts/access/Ownable.sol\":3020:3026  _owner */\n  0x00\n  dup1\n    /* \"@openzeppelin/contracts/access/Ownable.sol\":3020:3037  _owner = newOwner */\n  0x0100\n  exp\n  dup2\n  sload\n  dup2\n  0xffffffffffffffffffffffffffffffffffffffff\n  mul\n  not\n  and\n  swap1\n  dup4\n  0xffffffffffffffffffffffffffffffffffffffff\n  and\n  mul\n  or\n  swap1\n  sstore\n  pop\n    /* \"@openzeppelin/contracts/access/Ownable.sol\":3083:3091  newOwner */\n  dup2\n    /* \"@openzeppelin/contracts/access/Ownable.sol\":3052:3092  OwnershipTransferred(oldOwner, newOwner) */\n  0xffffffffffffffffffffffffffffffffffffffff\n  and\n    /* \"@openzeppelin/contracts/access/Ownable.sol\":3073:3081  oldOwner */\n  dup2\n    /* \"@openzeppelin/contracts/access/Ownable.sol\":3052:3092  OwnershipTransferred(oldOwner, newOwner) */\n  0xffffffffffffffffffffffffffffffffffffffff\n  and\n  0x8be0079c531659141344cd1fd0a4f28419497f9722a3daafe3b4186f6b6457e0\n  mload(0x40)\n  mload(0x40)\n  dup1\n  swap2\n  sub\n  swap1\n  log3\n    /* \"@openzeppelin/contracts/access/Ownable.sol\":2975:3099  {... */\n  pop\n    /* \"@openzeppelin/contracts/access/Ownable.sol\":2912:3099  function _transferOwnership(address newOwner) internal virtual {... */\n  pop\n  jump\t// out\n    /* \"#utility.yul\":88:205   */\ntag_18:\n    /* \"#utility.yul\":197:198   */\n  0x00\n    /* \"#utility.yul\":194:195   */\n  dup1\n    /* \"#utility.yul\":187:199   */\n  revert\n    /* \"#utility.yul\":334:460   */\ntag_20:\n    /* \"#utility.yul\":371:378   */\n  0x00\n    /* \"#utility.yul\":411:453   */\n  0xffffffffffffffffffffffffffffffffffffffff\n    /* \"#utility.yul\":404:409   */\n  dup3\n    /* \"#utility.yul\":400:454   */\n  and\n    /* \"#utility.yul\":389:454   */\n  swap1\n  pop\n    /* \"#utility.yul\":334:460   */\n  swap2\n  swap1\n  pop\n  jump\t// out\n    /* \"#utility.yul\":466:562   */\ntag_21:\n    /* \"#utility.yul\":503:510   */\n  0x00\n    /* \"#utility.yul\":532:556   */\n  tag_31\n    /* \"#utility.yul\":550:555   */\n  dup3\n    /* \"#utility.yul\":532:556   */\n  tag_20\n  jump\t// in\ntag_31:\n    /* \"#utility.yul\":521:556   */\n  swap1\n  pop\n    /* \"#utility.yul\":466:562   */\n  swap2\n  swap1\n  pop\n  jump\t// out\n    /* \"#utility.yul\":568:690   */\ntag_22:\n    /* \"#utility.yul\":641:665   */\n  tag_33\n    /* \"#utility.yul\":659:664   */\n  dup2\n    /* \"#utility.yul\":641:665   */\n  tag_21\n  jump\t// in\ntag_33:\n    /* \"#utility.yul\":634:639   */\n  dup2\n    /* \"#utility.yul\":631:666   */\n  eq\n    /* \"#utility.yul\":621:684   */\n  tag_34\n  jumpi\n    /* \"#utility.yul\":680:681   */\n  0x00\n    /* \"#utility.yul\":677:678   */\n  dup1\n    /* \"#utility.yul\":670:682   */\n  revert\n    /* \"#utility.yul\":621:684   */\ntag_34:\n    /* \"#utility.yul\":568:690   */\n  pop\n  jump\t// out\n    /* \"#utility.yul\":696:839   */\ntag_23:\n    /* \"#utility.yul\":753:758   */\n  0x00\n    /* \"#utility.yul\":784:790   */\n  dup2\n    /* \"#utility.yul\":778:791   */\n  mload\n    /* \"#utility.yul\":769:791   */\n  swap1\n  pop\n    /* \"#utility.yul\":800:833   */\n  tag_36\n    /* \"#utility.yul\":827:832   */\n  dup2\n    /* \"#utility.yul\":800:833   */\n  tag_22\n  jump\t// in\ntag_36:\n    /* \"#utility.yul\":696:839   */\n  swap3\n  swap2\n  pop\n  pop\n  jump\t// out\n    /* \"#utility.yul\":845:1196   */\ntag_3:\n    /* \"#utility.yul\":915:921   */\n  0x00\n    /* \"#utility.yul\":964:966   */\n  0x20\n    /* \"#utility.yul\":952:961   */\n  dup3\n    /* \"#utility.yul\":943:950   */\n  dup5\n    /* \"#utility.yul\":939:962   */\n  sub\n    /* \"#utility.yul\":935:967   */\n  slt\n    /* \"#utility.yul\":932:1051   */\n  iszero\n  tag_38\n  jumpi\n    /* \"#utility.yul\":970:1049   */\n  tag_39\n  tag_18\n  jump\t// in\ntag_39:\n    /* \"#utility.yul\":932:1051   */\ntag_38:\n    /* \"#utility.yul\":1090:1091   */\n  0x00\n    /* \"#utility.yul\":1115:1179   */\n  tag_40\n    /* \"#utility.yul\":1171:1178   */\n  dup5\n    /* \"#utility.yul\":1162:1168   */\n  dup3\n    /* \"#utility.yul\":1151:1160   */\n  dup6\n    /* \"#utility.yul\":1147:1169   */\n  add\n    /* \"#utility.yul\":1115:1179   */\n  tag_23\n  jump\t// in\ntag_40:\n    /* \"#utility.yul\":1105:1179   */\n  swap2\n  pop\n    /* \"#utility.yul\":1061:1189   */\n  pop\n    /* \"#utility.yul\":845:1196   */\n  swap3\n  swap2\n  pop\n  pop\n  jump\t// out\n    /* \"#utility.yul\":1202:1320   */\ntag_24:\n    /* \"#utility.yul\":1289:1313   */\n  tag_42\n    /* \"#utility.yul\":1307:1312   */\n  dup2\n    /* \"#utility.yul\":1289:1313   */\n  tag_21\n  jump\t// in\ntag_42:\n    /* \"#utility.yul\":1284:1287   */\n  dup3\n    /* \"#utility.yul\":1277:1314   */\n  mstore\n    /* \"#utility.yul\":1202:1320   */\n  pop\n  pop\n  jump\t// out\n    /* \"#utility.yul\":1326:1548   */\ntag_10:\n    /* \"#utility.yul\":1419:1423   */\n  0x00\n    /* \"#utility.yul\":1457:1459   */\n  0x20\n    /* \"#utility.yul\":1446:1455   */\n  dup3\n    /* \"#utility.yul\":1442:1460   */\n  add\n    /* \"#utility.yul\":1434:1460   */\n  swap1\n  pop\n    /* \"#utility.yul\":1470:1541   */\n  tag_44\n    /* \"#utility.yul\":1538:1539   */\n  0x00\n    /* \"#utility.yul\":1527:1536   */\n  dup4\n    /* \"#utility.yul\":1523:1540   */\n  add\n    /* \"#utility.yul\":1514:1520   */\n  dup5\n    /* \"#utility.yul\":1470:1541   */\n  tag_24\n  jump\t// in\ntag_44:\n    /* \"#utility.yul\":1326:1548   */\n  swap3\n  swap2\n  pop\n  pop\n  jump\t// out\n    /* \"core/Storage.sol\":209:8358  contract Storage is IStorage, Ownable, ReentrancyGuard {... */\ntag_15:\n  dataSize(sub_0)\n  dup1\n  dataOffset(sub_0)\n  0x00\n  codecopy\n  0x00\n  return\nstop\n\nsub_0: assembly {\n        /* \"core/Storage.sol\":209:8358  contract Storage is IStorage, Ownable, ReentrancyGuard {... */\n      mstore(0x40, 0x80)\n      callvalue\n      dup1\n      iszero\n      tag_1\n      jumpi\n      0x00\n      dup1\n      revert\n    tag_1:\n      pop\n      jumpi(tag_2, lt(calldatasize, 0x04))\n      shr(0xe0, calldataload(0x00))\n      dup1\n      0x83177db3\n      gt\n      tag_27\n      jumpi\n      dup1\n      0xd3bb8b96\n      gt\n      tag_28\n      jumpi\n      dup1\n      0xd3bb8b96\n      eq\n      tag_21\n      jumpi\n      dup1\n      0xd4838061\n      eq\n      tag_22\n      jumpi\n      dup1\n      0xd88eedf6\n      eq\n      tag_23\n      jumpi\n      dup1\n      0xdafc9fc1\n      eq\n      tag_24\n      jumpi\n      dup1\n      0xf292671b\n      eq\n      tag_25\n      jumpi\n      dup1\n      0xf2fde38b\n      eq\n      tag_26\n      jumpi\n      jump(tag_2)\n    tag_28:\n      dup1\n      0x83177db3\n      eq\n      tag_15\n      jumpi\n      dup1\n      0x87ebbf67\n      eq\n      tag_16\n      jumpi\n      dup1\n      0x8da5cb5b\n      eq\n      tag_17\n      jumpi\n      dup1\n      0xa4f39329\n      eq\n      tag_18\n      jumpi\n      dup1\n      0xab2cbcb3\n      eq\n      tag_19\n      jumpi\n      dup1\n      0xd2b18b60\n      eq\n      tag_20\n      jumpi\n      jump(tag_2)\n    tag_27:\n      dup1\n      0x5a9baf37\n      gt\n      tag_29\n      jumpi\n      dup1\n      0x5a9baf37\n      eq\n      tag_9\n      jumpi\n      dup1\n      0x65f35371\n      eq\n      tag_10\n      jumpi\n      dup1\n      0x6a2b0518\n      eq\n      tag_11\n      jumpi\n      dup1\n      0x6e2d7d38\n      eq\n      tag_12\n      jumpi\n      dup1\n      0x715018a6\n      eq\n      tag_13\n      jumpi\n      dup1\n      0x760fc7b8\n      eq\n      tag_14\n      jumpi\n      jump(tag_2)\n    tag_29:\n      dup1\n      0x0bef429b\n      eq\n      tag_3\n      jumpi\n      dup1\n      0x0cec5f62\n      eq\n      tag_4\n      jumpi\n      dup1\n      0x2a4d4280\n      eq\n      tag_5\n      jumpi\n      dup1\n      0x2f0e14fb\n      eq\n      tag_6\n      jumpi\n      dup1\n      0x49385399\n      eq\n      tag_7\n      jumpi\n      dup1\n      0x4d73269c\n      eq\n      tag_8\n      jumpi\n    tag_2:\n      0x00\n      dup1\n      revert\n        /* \"core/Storage.sol\":3540:3816  function removeFile(bytes32 fileHash) external override {... */\n    tag_3:\n      tag_30\n      0x04\n      dup1\n      calldatasize\n      sub\n      dup2\n      add\n      swap1\n      tag_31\n      swap2\n      swap1\n      tag_32\n      jump\t// in\n    tag_31:\n      tag_33\n      jump\t// in\n    tag_30:\n      stop\n        /* \"core/Storage.sol\":694:814  function fileExists(bytes32 fileHash) public view override returns (bool) {... */\n    tag_4:\n      tag_34\n      0x04\n      dup1\n      calldatasize\n      sub\n      dup2\n      add\n      swap1\n      tag_35\n      swap2\n      swap1\n      tag_32\n      jump\t// in\n    tag_35:\n      tag_36\n      jump\t// in\n    tag_34:\n      mload(0x40)\n      tag_37\n      swap2\n      swap1\n      tag_38\n      jump\t// in\n    tag_37:\n      mload(0x40)\n      dup1\n      swap2\n      sub\n      swap1\n      return\n        /* \"core/Storage.sol\":1239:1520  function getChunkInfo(bytes32 fileHash, uint256 index) external view override returns (ChunkInfo memory) {... */\n    tag_5:\n      tag_39\n      0x04\n      dup1\n      calldatasize\n      sub\n      dup2\n      add\n      swap1\n      tag_40\n      swap2\n      swap1\n      tag_41\n      jump\t// in\n    tag_40:\n      tag_42\n      jump\t// in\n    tag_39:\n      mload(0x40)\n      tag_43\n      swap2\n      swap1\n      tag_44\n      jump\t// in\n    tag_43:\n      mload(0x40)\n      dup1\n      swap2\n      sub\n      swap1\n      return\n        /* \"core/Storage.sol\":270:322  uint256 public constant MAX_CHUNK_SIZE = 1024 * 1024 */\n    tag_6:\n      tag_45\n      tag_46\n      jump\t// in\n    tag_45:\n      mload(0x40)\n      tag_47\n      swap2\n      swap1\n      tag_48\n      jump\t// in\n    tag_47:\n      mload(0x40)\n      dup1\n      swap2\n      sub\n      swap1\n      return\n        /* \"core/Storage.sol\":6490:6857  function updateEncryption(... */\n    tag_7:\n      tag_49\n      0x04\n      dup1\n      calldatasize\n      sub\n      dup2\n      add\n      swap1\n      tag_50\n      swap2\n      swap1\n      tag_51\n      jump\t// in\n    tag_50:\n      tag_52\n      jump\t// in\n    tag_49:\n      stop\n        /* \"core/Storage.sol\":5774:6021  function storeChunk(... */\n    tag_8:\n      tag_53\n      0x04\n      dup1\n      calldatasize\n      sub\n      dup2\n      add\n      swap1\n      tag_54\n      swap2\n      swap1\n      tag_55\n      jump\t// in\n    tag_54:\n      tag_56\n      jump\t// in\n    tag_53:\n      mload(0x40)\n      tag_57\n      swap2\n      swap1\n      tag_38\n      jump\t// in\n    tag_57:\n      mload(0x40)\n      dup1\n      swap2\n      sub\n      swap1\n      return\n        /* \"core/Storage.sol\":335:393  uint256 public constant MAX_FILE_SIZE = 1024 * 1024 * 1024 */\n    tag_9:\n      tag_58\n      tag_59\n      jump\t// in\n    tag_58:\n      mload(0x40)\n      tag_60\n      swap2\n      swap1\n      tag_48\n      jump\t// in\n    tag_60:\n      mload(0x40)\n      dup1\n      swap2\n      sub\n      swap1\n      return\n        /* \"core/Storage.sol\":1019:1211  function getFileMetadata(bytes32 fileHash) external view override returns (FileMetadata memory) {... */\n    tag_10:\n      tag_61\n      0x04\n      dup1\n      calldatasize\n      sub\n      dup2\n      add\n      swap1\n      tag_62\n      swap2\n      swap1\n      tag_32\n      jump\t// in\n    tag_62:\n      tag_63\n      jump\t// in\n    tag_61:\n      mload(0x40)\n      tag_64\n      swap2\n      swap1\n      tag_65\n      jump\t// in\n    tag_64:\n      mload(0x40)\n      dup1\n      swap2\n      sub\n      swap1\n      return\n        /* \"core/Storage.sol\":3015:3236  function storeChunk(... */\n    tag_11:\n      tag_66\n      0x04\n      dup1\n      calldatasize\n      sub\n      dup2\n      add\n      swap1\n      tag_67\n      swap2\n      swap1\n      tag_68\n      jump\t// in\n    tag_67:\n      tag_69\n      jump\t// in\n    tag_66:\n      mload(0x40)\n      tag_70\n      swap2\n      swap1\n      tag_38\n      jump\t// in\n    tag_70:\n      mload(0x40)\n      dup1\n      swap2\n      sub\n      swap1\n      return\n        /* \"core/Storage.sol\":2750:2963  function storeChunk(... */\n    tag_12:\n      tag_71\n      0x04\n      dup1\n      calldatasize\n      sub\n      dup2\n      add\n      swap1\n      tag_72\n      swap2\n      swap1\n      tag_73\n      jump\t// in\n    tag_72:\n      tag_74\n      jump\t// in\n    tag_71:\n      stop\n        /* \"@openzeppelin/contracts/access/Ownable.sol\":2293:2394  function renounceOwnership() public virtual onlyOwner {... */\n    tag_13:\n      tag_75\n      tag_76\n      jump\t// in\n    tag_75:\n      stop\n        /* \"core/Storage.sol\":1981:2387  function storeFile(... */\n    tag_14:\n      tag_77\n      0x04\n      dup1\n      calldatasize\n      sub\n      dup2\n      add\n      swap1\n      tag_78\n      swap2\n      swap1\n      tag_79\n      jump\t// in\n    tag_78:\n      tag_80\n      jump\t// in\n    tag_77:\n      stop\n        /* \"core/Storage.sol\":848:988  function hasAccess(bytes32 fileHash, address user) public view override returns (bool) {... */\n    tag_15:\n      tag_81\n      0x04\n      dup1\n      calldatasize\n      sub\n      dup2\n      add\n      swap1\n      tag_82\n      swap2\n      swap1\n      tag_83\n      jump\t// in\n    tag_82:\n      tag_84\n      jump\t// in\n    tag_81:\n      mload(0x40)\n      tag_85\n      swap2\n      swap1\n      tag_38\n      jump\t// in\n    tag_85:\n      mload(0x40)\n      dup1\n      swap2\n      sub\n      swap1\n      return\n        /* \"core/Storage.sol\":3263:3515  function retrieveFile(bytes32 fileHash) external view override returns (FileMetadata memory) {... */\n    tag_16:\n      tag_86\n      0x04\n      dup1\n      calldatasize\n      sub\n      dup2\n      add\n      swap1\n      tag_87\n      swap2\n      swap1\n      tag_32\n      jump\t// in\n    tag_87:\n      tag_88\n      jump\t// in\n    tag_86:\n      mload(0x40)\n      tag_89\n      swap2\n      swap1\n      tag_65\n      jump\t// in\n    tag_89:\n      mload(0x40)\n      dup1\n      swap2\n      sub\n      swap1\n      return\n        /* \"@openzeppelin/contracts/access/Ownable.sol\":1638:1723  function owner() public view virtual returns (address) {... */\n    tag_17:\n      tag_90\n      tag_91\n      jump\t// in\n    tag_90:\n      mload(0x40)\n      tag_92\n      swap2\n      swap1\n      tag_93\n      jump\t// in\n    tag_92:\n      mload(0x40)\n      dup1\n      swap2\n      sub\n      swap1\n      return\n        /* \"core/Storage.sol\":6909:7309  function updateEncryption(... */\n    tag_18:\n      tag_94\n      0x04\n      dup1\n      calldatasize\n      sub\n      dup2\n      add\n      swap1\n      tag_95\n      swap2\n      swap1\n      tag_96\n      jump\t// in\n    tag_95:\n      tag_97\n      jump\t// in\n    tag_94:\n      mload(0x40)\n      tag_98\n      swap2\n      swap1\n      tag_38\n      jump\t// in\n    tag_98:\n      mload(0x40)\n      dup1\n      swap2\n      sub\n      swap1\n      return\n        /* \"core/Storage.sol\":8012:8356  function verifyChunk(... */\n    tag_19:\n      tag_99\n      0x04\n      dup1\n      calldatasize\n      sub\n      dup2\n      add\n      swap1\n      tag_100\n      swap2\n      swap1\n      tag_101\n      jump\t// in\n    tag_100:\n      tag_102\n      jump\t// in\n    tag_99:\n      mload(0x40)\n      tag_103\n      swap2\n      swap1\n      tag_38\n      jump\t// in\n    tag_103:\n      mload(0x40)\n      dup1\n      swap2\n      sub\n      swap1\n      return\n        /* \"core/Storage.sol\":6027:6485  function retrieveChunk(... */\n    tag_20:\n      tag_104\n      0x04\n      dup1\n      calldatasize\n      sub\n      dup2\n      add\n      swap1\n      tag_105\n      swap2\n      swap1\n      tag_41\n      jump\t// in\n    tag_105:\n      tag_106\n      jump\t// in\n    tag_104:\n      mload(0x40)\n      tag_107\n      swap2\n      swap1\n      tag_108\n      jump\t// in\n    tag_107:\n      mload(0x40)\n      dup1\n      swap2\n      sub\n      swap1\n      return\n        /* \"core/Storage.sol\":1761:1942  function getFileSize(bytes32 fileHash) external view override returns (uint256) {... */\n    tag_21:\n      tag_109\n      0x04\n      dup1\n      calldatasize\n      sub\n      dup2\n      add\n      swap1\n      tag_110\n      swap2\n      swap1\n      tag_32\n      jump\t// in\n    tag_110:\n      tag_111\n      jump\t// in\n    tag_109:\n      mload(0x40)\n      tag_112\n      swap2\n      swap1\n      tag_48\n      jump\t// in\n    tag_112:\n      mload(0x40)\n      dup1\n      swap2\n      sub\n      swap1\n      return\n        /* \"core/Storage.sol\":2438:2725  function storeFile(... */\n    tag_22:\n      tag_113\n      0x04\n      dup1\n      calldatasize\n      sub\n      dup2\n      add\n      swap1\n      tag_114\n      swap2\n      swap1\n      tag_115\n      jump\t// in\n    tag_114:\n      tag_116\n      jump\t// in\n    tag_113:\n      mload(0x40)\n      tag_117\n      swap2\n      swap1\n      tag_38\n      jump\t// in\n    tag_117:\n      mload(0x40)\n      dup1\n      swap2\n      sub\n      swap1\n      return\n        /* \"core/Storage.sol\":7355:7965  function verifyChunk(... */\n    tag_23:\n      tag_118\n      0x04\n      dup1\n      calldatasize\n      sub\n      dup2\n      add\n      swap1\n      tag_119\n      swap2\n      swap1\n      tag_73\n      jump\t// in\n    tag_119:\n      tag_120\n      jump\t// in\n    tag_118:\n      mload(0x40)\n      tag_121\n      swap2\n      swap1\n      tag_38\n      jump\t// in\n    tag_121:\n      mload(0x40)\n      dup1\n      swap2\n      sub\n      swap1\n      return\n        /* \"core/Storage.sol\":5395:5768  function storeFile(... */\n    tag_24:\n      tag_122\n      0x04\n      dup1\n      calldatasize\n      sub\n      dup2\n      add\n      swap1\n      tag_123\n      swap2\n      swap1\n      tag_124\n      jump\t// in\n    tag_123:\n      tag_125\n      jump\t// in\n    tag_122:\n      mload(0x40)\n      tag_126\n      swap2\n      swap1\n      tag_38\n      jump\t// in\n    tag_126:\n      mload(0x40)\n      dup1\n      swap2\n      sub\n      swap1\n      return\n        /* \"core/Storage.sol\":1549:1734  function getChunkCount(bytes32 fileHash) external view override returns (uint256) {... */\n    tag_25:\n      tag_127\n      0x04\n      dup1\n      calldatasize\n      sub\n      dup2\n      add\n      swap1\n      tag_128\n      swap2\n      swap1\n      tag_32\n      jump\t// in\n    tag_128:\n      tag_129\n      jump\t// in\n    tag_127:\n      mload(0x40)\n      tag_130\n      swap2\n      swap1\n      tag_48\n      jump\t// in\n    tag_130:\n      mload(0x40)\n      dup1\n      swap2\n      sub\n      swap1\n      return\n        /* \"@openzeppelin/contracts/access/Ownable.sol\":2543:2758  function transferOwnership(address newOwner) public virtual onlyOwner {... */\n    tag_26:\n      tag_131\n      0x04\n      dup1\n      calldatasize\n      sub\n      dup2\n      add\n      swap1\n      tag_132\n      swap2\n      swap1\n      tag_133\n      jump\t// in\n    tag_132:\n      tag_134\n      jump\t// in\n    tag_131:\n      stop\n        /* \"core/Storage.sol\":3540:3816  function removeFile(bytes32 fileHash) external override {... */\n    tag_33:\n        /* \"core/Storage.sol\":3614:3634  fileExists(fileHash) */\n      tag_136\n        /* \"core/Storage.sol\":3625:3633  fileHash */\n      dup2\n        /* \"core/Storage.sol\":3614:3624  fileExists */\n      tag_36\n        /* \"core/Storage.sol\":3614:3634  fileExists(fileHash) */\n      jump\t// in\n    tag_136:\n        /* \"core/Storage.sol\":3606:3653  require(fileExists(fileHash), \"File not found\") */\n      tag_137\n      jumpi\n      mload(0x40)\n      0x08c379a000000000000000000000000000000000000000000000000000000000\n      dup2\n      mstore\n      0x04\n      add\n      tag_138\n      swap1\n      tag_139\n      jump\t// in\n    tag_138:\n      mload(0x40)\n      dup1\n      swap2\n      sub\n      swap1\n      revert\n    tag_137:\n        /* \"core/Storage.sol\":3696:3706  msg.sender */\n      caller\n        /* \"core/Storage.sol\":3671:3706  files[fileHash].owner == msg.sender */\n      0xffffffffffffffffffffffffffffffffffffffff\n      and\n        /* \"core/Storage.sol\":3671:3676  files */\n      0x02\n        /* \"core/Storage.sol\":3671:3686  files[fileHash] */\n      0x00\n        /* \"core/Storage.sol\":3677:3685  fileHash */\n      dup4\n        /* \"core/Storage.sol\":3671:3686  files[fileHash] */\n      dup2\n      mstore\n      0x20\n      add\n      swap1\n      dup2\n      mstore\n      0x20\n      add\n      0x00\n      keccak256\n        /* \"core/Storage.sol\":3671:3692  files[fileHash].owner */\n      0x01\n      add\n      0x00\n      swap1\n      sload\n      swap1\n      0x0100\n      exp\n      swap1\n      div\n      0xffffffffffffffffffffffffffffffffffffffff\n      and\n        /* \"core/Storage.sol\":3671:3706  files[fileHash].owner == msg.sender */\n      0xffffffffffffffffffffffffffffffffffffffff\n      and\n      eq\n        /* \"core/Storage.sol\":3663:3720  require(files[fileHash].owner == msg.sender, \"Not owner\") */\n      tag_140\n      jumpi\n      mload(0x40)\n      0x08c379a000000000000000000000000000000000000000000000000000000000\n      dup2\n      mstore\n      0x04\n      add\n      tag_141\n      swap1\n      tag_142\n      jump\t// in\n    tag_141:\n      mload(0x40)\n      dup1\n      swap2\n      sub\n      swap1\n      revert\n    tag_140:\n        /* \"core/Storage.sol\":3746:3751  files */\n      0x02\n        /* \"core/Storage.sol\":3746:3761  files[fileHash] */\n      0x00\n        /* \"core/Storage.sol\":3752:3760  fileHash */\n      dup3\n        /* \"core/Storage.sol\":3746:3761  files[fileHash] */\n      dup2\n      mstore\n      0x20\n      add\n      swap1\n      dup2\n      mstore\n      0x20\n      add\n      0x00\n      keccak256\n      0x00\n        /* \"core/Storage.sol\":3739:3761  delete files[fileHash] */\n      dup1\n      dup3\n      add\n      0x00\n      swap1\n      sstore\n      0x01\n      dup3\n      add\n      exp(0x0100, 0x00)\n      dup2\n      sload\n      swap1\n      0xffffffffffffffffffffffffffffffffffffffff\n      mul\n      not\n      and\n      swap1\n      sstore\n      0x02\n      dup3\n      add\n      0x00\n      swap1\n      sstore\n      0x03\n      dup3\n      add\n      0x00\n      swap1\n      sstore\n      0x04\n      dup3\n      add\n      exp(0x0100, 0x00)\n      dup2\n      sload\n      swap1\n      0xff\n      mul\n      not\n      and\n      swap1\n      sstore\n      0x05\n      dup3\n      add\n      0x00\n      swap1\n      sstore\n      0x06\n      dup3\n      add\n      0x00\n      swap1\n      sstore\n      0x07\n      dup3\n      add\n      exp(0x0100, 0x00)\n      dup2\n      sload\n      swap1\n      0xff\n      mul\n      not\n      and\n      swap1\n      sstore\n      pop\n      pop\n        /* \"core/Storage.sol\":3798:3808  msg.sender */\n      caller\n        /* \"core/Storage.sol\":3776:3809  FileRemoved(fileHash, msg.sender) */\n      0xffffffffffffffffffffffffffffffffffffffff\n      and\n        /* \"core/Storage.sol\":3788:3796  fileHash */\n      dup2\n        /* \"core/Storage.sol\":3776:3809  FileRemoved(fileHash, msg.sender) */\n      0x7be12496ae22d3d9a9e65382c3ecfe9066f06c542a3a22dd9c9c2deb159de645\n      mload(0x40)\n      mload(0x40)\n      dup1\n      swap2\n      sub\n      swap1\n      log3\n        /* \"core/Storage.sol\":3540:3816  function removeFile(bytes32 fileHash) external override {... */\n      pop\n      jump\t// out\n        /* \"core/Storage.sol\":694:814  function fileExists(bytes32 fileHash) public view override returns (bool) {... */\n    tag_36:\n        /* \"core/Storage.sol\":762:766  bool */\n      0x00\n        /* \"core/Storage.sol\":785:790  files */\n      0x02\n        /* \"core/Storage.sol\":785:800  files[fileHash] */\n      0x00\n        /* \"core/Storage.sol\":791:799  fileHash */\n      dup4\n        /* \"core/Storage.sol\":785:800  files[fileHash] */\n      dup2\n      mstore\n      0x20\n      add\n      swap1\n      dup2\n      mstore\n      0x20\n      add\n      0x00\n      keccak256\n        /* \"core/Storage.sol\":785:807  files[fileHash].exists */\n      0x07\n      add\n      0x00\n      swap1\n      sload\n      swap1\n      0x0100\n      exp\n      swap1\n      div\n      0xff\n      and\n        /* \"core/Storage.sol\":778:807  return files[fileHash].exists */\n      swap1\n      pop\n        /* \"core/Storage.sol\":694:814  function fileExists(bytes32 fileHash) public view override returns (bool) {... */\n      swap2\n      swap1\n      pop\n      jump\t// out\n        /* \"core/Storage.sol\":1239:1520  function getChunkInfo(bytes32 fileHash, uint256 index) external view override returns (ChunkInfo memory) {... */\n    tag_42:\n        /* \"core/Storage.sol\":1326:1342  ChunkInfo memory */\n      tag_144\n      tag_145\n      jump\t// in\n    tag_144:\n        /* \"core/Storage.sol\":1362:1382  fileExists(fileHash) */\n      tag_147\n        /* \"core/Storage.sol\":1373:1381  fileHash */\n      dup4\n        /* \"core/Storage.sol\":1362:1372  fileExists */\n      tag_36\n        /* \"core/Storage.sol\":1362:1382  fileExists(fileHash) */\n      jump\t// in\n    tag_147:\n        /* \"core/Storage.sol\":1354:1401  require(fileExists(fileHash), \"File not found\") */\n      tag_148\n      jumpi\n      mload(0x40)\n      0x08c379a000000000000000000000000000000000000000000000000000000000\n      dup2\n      mstore\n      0x04\n      add\n      tag_149\n      swap1\n      tag_139\n      jump\t// in\n    tag_149:\n      mload(0x40)\n      dup1\n      swap2\n      sub\n      swap1\n      revert\n    tag_148:\n        /* \"core/Storage.sol\":1427:1432  files */\n      0x02\n        /* \"core/Storage.sol\":1427:1442  files[fileHash] */\n      0x00\n        /* \"core/Storage.sol\":1433:1441  fileHash */\n      dup5\n        /* \"core/Storage.sol\":1427:1442  files[fileHash] */\n      dup2\n      mstore\n      0x20\n      add\n      swap1\n      dup2\n      mstore\n      0x20\n      add\n      0x00\n      keccak256\n        /* \"core/Storage.sol\":1427:1449  files[fileHash].chunks */\n      0x06\n      add\n      sload\n        /* \"core/Storage.sol\":1419:1424  index */\n      dup3\n        /* \"core/Storage.sol\":1419:1449  index < files[fileHash].chunks */\n      lt\n        /* \"core/Storage.sol\":1411:1473  require(index < files[fileHash].chunks, \"Invalid chunk index\") */\n      tag_150\n      jumpi\n      mload(0x40)\n      0x08c379a000000000000000000000000000000000000000000000000000000000\n      dup2\n      mstore\n      0x04\n      add\n      tag_151\n      swap1\n      tag_152\n      jump\t// in\n    tag_151:\n      mload(0x40)\n      dup1\n      swap2\n      sub\n      swap1\n      revert\n    tag_150:\n        /* \"core/Storage.sol\":1490:1496  chunks */\n      0x03\n        /* \"core/Storage.sol\":1490:1506  chunks[fileHash] */\n      0x00\n        /* \"core/Storage.sol\":1497:1505  fileHash */\n      dup5\n        /* \"core/Storage.sol\":1490:1506  chunks[fileHash] */\n      dup2\n      mstore\n      0x20\n      add\n      swap1\n      dup2\n      mstore\n      0x20\n      add\n      0x00\n      keccak256\n        /* \"core/Storage.sol\":1490:1513  chunks[fileHash][index] */\n      0x00\n        /* \"core/Storage.sol\":1507:1512  index */\n      dup4\n        /* \"core/Storage.sol\":1490:1513  chunks[fileHash][index] */\n      dup2\n      mstore\n      0x20\n      add\n      swap1\n      dup2\n      mstore\n      0x20\n      add\n      0x00\n      keccak256\n        /* \"core/Storage.sol\":1483:1513  return chunks[fileHash][index] */\n      mload(0x40)\n      dup1\n      0x80\n      add\n      0x40\n      mstore\n      swap1\n      dup2\n      0x00\n      dup3\n      add\n      sload\n      dup2\n      mstore\n      0x20\n      add\n      0x01\n      dup3\n      add\n      sload\n      dup2\n      mstore\n      0x20\n      add\n      0x02\n      dup3\n      add\n      sload\n      dup2\n      mstore\n      0x20\n      add\n      0x03\n      dup3\n      add\n      sload\n      dup2\n      mstore\n      pop\n      pop\n      swap1\n      pop\n        /* \"core/Storage.sol\":1239:1520  function getChunkInfo(bytes32 fileHash, uint256 index) external view override returns (ChunkInfo memory) {... */\n      swap3\n      swap2\n      pop\n      pop\n      jump\t// out\n        /* \"core/Storage.sol\":270:322  uint256 public constant MAX_CHUNK_SIZE = 1024 * 1024 */\n    tag_46:\n        /* \"core/Storage.sol\":311:322  1024 * 1024 */\n      0x100000\n        /* \"core/Storage.sol\":270:322  uint256 public constant MAX_CHUNK_SIZE = 1024 * 1024 */\n      dup2\n      jump\t// out\n        /* \"core/Storage.sol\":6490:6857  function updateEncryption(... */\n    tag_52:\n        /* \"core/Storage.sol\":6617:6637  fileExists(fileHash) */\n      tag_154\n        /* \"core/Storage.sol\":6628:6636  fileHash */\n      dup3\n        /* \"core/Storage.sol\":6617:6627  fileExists */\n      tag_36\n        /* \"core/Storage.sol\":6617:6637  fileExists(fileHash) */\n      jump\t// in\n    tag_154:\n        /* \"core/Storage.sol\":6609:6656  require(fileExists(fileHash), \"File not found\") */\n      tag_155\n      jumpi\n      mload(0x40)\n      0x08c379a000000000000000000000000000000000000000000000000000000000\n      dup2\n      mstore\n      0x04\n      add\n      tag_156\n      swap1\n      tag_139\n      jump\t// in\n    tag_156:\n      mload(0x40)\n      dup1\n      swap2\n      sub\n      swap1\n      revert\n    tag_155:\n        /* \"core/Storage.sol\":6699:6709  msg.sender */\n      caller\n        /* \"core/Storage.sol\":6674:6709  files[fileHash].owner == msg.sender */\n      0xffffffffffffffffffffffffffffffffffffffff\n      and\n        /* \"core/Storage.sol\":6674:6679  files */\n      0x02\n        /* \"core/Storage.sol\":6674:6689  files[fileHash] */\n      0x00\n        /* \"core/Storage.sol\":6680:6688  fileHash */\n      dup5\n        /* \"core/Storage.sol\":6674:6689  files[fileHash] */\n      dup2\n      mstore\n      0x20\n      add\n      swap1\n      dup2\n      mstore\n      0x20\n      add\n      0x00\n      keccak256\n        /* \"core/Storage.sol\":6674:6695  files[fileHash].owner */\n      0x01\n      add\n      0x00\n      swap1\n      sload\n      swap1\n      0x0100\n      exp\n      swap1\n      div\n      0xffffffffffffffffffffffffffffffffffffffff\n      and\n        /* \"core/Storage.sol\":6674:6709  files[fileHash].owner == msg.sender */\n      0xffffffffffffffffffffffffffffffffffffffff\n      and\n      eq\n        /* \"core/Storage.sol\":6666:6723  require(files[fileHash].owner == msg.sender, \"Not owner\") */\n      tag_157\n      jumpi\n      mload(0x40)\n      0x08c379a000000000000000000000000000000000000000000000000000000000\n      dup2\n      mstore\n      0x04\n      add\n      tag_158\n      swap1\n      tag_142\n      jump\t// in\n    tag_158:\n      mload(0x40)\n      dup1\n      swap2\n      sub\n      swap1\n      revert\n    tag_157:\n        /* \"core/Storage.sol\":6776:6791  encryptionProof */\n      dup1\n        /* \"core/Storage.sol\":6742:6747  files */\n      0x02\n        /* \"core/Storage.sol\":6742:6757  files[fileHash] */\n      0x00\n        /* \"core/Storage.sol\":6748:6756  fileHash */\n      dup5\n        /* \"core/Storage.sol\":6742:6757  files[fileHash] */\n      dup2\n      mstore\n      0x20\n      add\n      swap1\n      dup2\n      mstore\n      0x20\n      add\n      0x00\n      keccak256\n        /* \"core/Storage.sol\":6742:6773  files[fileHash].encryptionProof */\n      0x05\n      add\n        /* \"core/Storage.sol\":6742:6791  files[fileHash].encryptionProof = encryptionProof */\n      dup2\n      swap1\n      sstore\n      pop\n        /* \"core/Storage.sol\":6824:6832  fileHash */\n      dup2\n        /* \"core/Storage.sol\":6806:6850  EncryptionUpdated(fileHash, encryptionProof) */\n      0x22fcd0c181fefec176f74b8af4b0d73dde52a16a6127956654704b1b311193f2\n        /* \"core/Storage.sol\":6834:6849  encryptionProof */\n      dup3\n        /* \"core/Storage.sol\":6806:6850  EncryptionUpdated(fileHash, encryptionProof) */\n      mload(0x40)\n      tag_159\n      swap2\n      swap1\n      tag_160\n      jump\t// in\n    tag_159:\n      mload(0x40)\n      dup1\n      swap2\n      sub\n      swap1\n      log2\n        /* \"core/Storage.sol\":6490:6857  function updateEncryption(... */\n      pop\n      pop\n      jump\t// out\n        /* \"core/Storage.sol\":5774:6021  function storeChunk(... */\n    tag_56:\n        /* \"core/Storage.sol\":5931:5935  bool */\n      0x00\n        /* \"core/Storage.sol\":5947:5993  _storeChunk(fileHash, index, data, bytes32(0)) */\n      tag_162\n        /* \"core/Storage.sol\":5959:5967  fileHash */\n      dup7\n        /* \"core/Storage.sol\":5969:5974  index */\n      dup7\n        /* \"core/Storage.sol\":5976:5980  data */\n      dup7\n      dup7\n        /* \"core/Storage.sol\":5990:5991  0 */\n      0x00\n        /* \"core/Storage.sol\":5982:5992  bytes32(0) */\n      dup1\n      shl\n        /* \"core/Storage.sol\":5947:5958  _storeChunk */\n      tag_163\n        /* \"core/Storage.sol\":5947:5993  _storeChunk(fileHash, index, data, bytes32(0)) */\n      jump\t// in\n    tag_162:\n        /* \"core/Storage.sol\":6010:6014  true */\n      0x01\n        /* \"core/Storage.sol\":6003:6014  return true */\n      swap1\n      pop\n        /* \"core/Storage.sol\":5774:6021  function storeChunk(... */\n      swap6\n      swap5\n      pop\n      pop\n      pop\n      pop\n      pop\n      jump\t// out\n        /* \"core/Storage.sol\":335:393  uint256 public constant MAX_FILE_SIZE = 1024 * 1024 * 1024 */\n    tag_59:\n        /* \"core/Storage.sol\":375:393  1024 * 1024 * 1024 */\n      0x40000000\n        /* \"core/Storage.sol\":335:393  uint256 public constant MAX_FILE_SIZE = 1024 * 1024 * 1024 */\n      dup2\n      jump\t// out\n        /* \"core/Storage.sol\":1019:1211  function getFileMetadata(bytes32 fileHash) external view override returns (FileMetadata memory) {... */\n    tag_63:\n        /* \"core/Storage.sol\":1094:1113  FileMetadata memory */\n      tag_164\n      tag_165\n      jump\t// in\n    tag_164:\n        /* \"core/Storage.sol\":1133:1153  fileExists(fileHash) */\n      tag_167\n        /* \"core/Storage.sol\":1144:1152  fileHash */\n      dup3\n        /* \"core/Storage.sol\":1133:1143  fileExists */\n      tag_36\n        /* \"core/Storage.sol\":1133:1153  fileExists(fileHash) */\n      jump\t// in\n    tag_167:\n        /* \"core/Storage.sol\":1125:1172  require(fileExists(fileHash), \"File not found\") */\n      tag_168\n      jumpi\n      mload(0x40)\n      0x08c379a000000000000000000000000000000000000000000000000000000000\n      dup2\n      mstore\n      0x04\n      add\n      tag_169\n      swap1\n      tag_139\n      jump\t// in\n    tag_169:\n      mload(0x40)\n      dup1\n      swap2\n      sub\n      swap1\n      revert\n    tag_168:\n        /* \"core/Storage.sol\":1189:1194  files */\n      0x02\n        /* \"core/Storage.sol\":1189:1204  files[fileHash] */\n      0x00\n        /* \"core/Storage.sol\":1195:1203  fileHash */\n      dup4\n        /* \"core/Storage.sol\":1189:1204  files[fileHash] */\n      dup2\n      mstore\n      0x20\n      add\n      swap1\n      dup2\n      mstore\n      0x20\n      add\n      0x00\n      keccak256\n        /* \"core/Storage.sol\":1182:1204  return files[fileHash] */\n      mload(0x40)\n      dup1\n      0x0100\n      add\n      0x40\n      mstore\n      swap1\n      dup2\n      0x00\n      dup3\n      add\n      sload\n      dup2\n      mstore\n      0x20\n      add\n      0x01\n      dup3\n      add\n      0x00\n      swap1\n      sload\n      swap1\n      0x0100\n      exp\n      swap1\n      div\n      0xffffffffffffffffffffffffffffffffffffffff\n      and\n      0xffffffffffffffffffffffffffffffffffffffff\n      and\n      0xffffffffffffffffffffffffffffffffffffffff\n      and\n      dup2\n      mstore\n      0x20\n      add\n      0x02\n      dup3\n      add\n      sload\n      dup2\n      mstore\n      0x20\n      add\n      0x03\n      dup3\n      add\n      sload\n      dup2\n      mstore\n      0x20\n      add\n      0x04\n      dup3\n      add\n      0x00\n      swap1\n      sload\n      swap1\n      0x0100\n      exp\n      swap1\n      div\n      0xff\n      and\n      iszero\n      iszero\n      iszero\n      iszero\n      dup2\n      mstore\n      0x20\n      add\n      0x05\n      dup3\n      add\n      sload\n      dup2\n      mstore\n      0x20\n      add\n      0x06\n      dup3\n      add\n      sload\n      dup2\n      mstore\n      0x20\n      add\n      0x07\n      dup3\n      add\n      0x00\n      swap1\n      sload\n      swap1\n      0x0100\n      exp\n      swap1\n      div\n      0xff\n      and\n      iszero\n      iszero\n      iszero\n      iszero\n      dup2\n      mstore\n      pop\n      pop\n      swap1\n      pop\n        /* \"core/Storage.sol\":1019:1211  function getFileMetadata(bytes32 fileHash) external view override returns (FileMetadata memory) {... */\n      swap2\n      swap1\n      pop\n      jump\t// out\n        /* \"core/Storage.sol\":3015:3236  function storeChunk(... */\n    tag_69:\n        /* \"core/Storage.sol\":3146:3150  bool */\n      0x00\n        /* \"core/Storage.sol\":3162:3208  _storeChunk(fileHash, index, data, bytes32(0)) */\n      tag_171\n        /* \"core/Storage.sol\":3174:3182  fileHash */\n      dup6\n        /* \"core/Storage.sol\":3184:3189  index */\n      dup6\n        /* \"core/Storage.sol\":3191:3195  data */\n      dup6\n      dup6\n        /* \"core/Storage.sol\":3205:3206  0 */\n      0x00\n        /* \"core/Storage.sol\":3197:3207  bytes32(0) */\n      dup1\n      shl\n        /* \"core/Storage.sol\":3162:3173  _storeChunk */\n      tag_163\n        /* \"core/Storage.sol\":3162:3208  _storeChunk(fileHash, index, data, bytes32(0)) */\n      jump\t// in\n    tag_171:\n        /* \"core/Storage.sol\":3225:3229  true */\n      0x01\n        /* \"core/Storage.sol\":3218:3229  return true */\n      swap1\n      pop\n        /* \"core/Storage.sol\":3015:3236  function storeChunk(... */\n      swap5\n      swap4\n      pop\n      pop\n      pop\n      pop\n      jump\t// out\n        /* \"core/Storage.sol\":2750:2963  function storeChunk(... */\n    tag_74:\n        /* \"core/Storage.sol\":2910:2956  _storeChunk(fileHash, chunkIndex, data, proof) */\n      tag_173\n        /* \"core/Storage.sol\":2922:2930  fileHash */\n      dup6\n        /* \"core/Storage.sol\":2932:2942  chunkIndex */\n      dup6\n        /* \"core/Storage.sol\":2944:2948  data */\n      dup6\n      dup6\n        /* \"core/Storage.sol\":2950:2955  proof */\n      dup6\n        /* \"core/Storage.sol\":2910:2921  _storeChunk */\n      tag_163\n        /* \"core/Storage.sol\":2910:2956  _storeChunk(fileHash, chunkIndex, data, proof) */\n      jump\t// in\n    tag_173:\n        /* \"core/Storage.sol\":2750:2963  function storeChunk(... */\n      pop\n      pop\n      pop\n      pop\n      pop\n      jump\t// out\n        /* \"@openzeppelin/contracts/access/Ownable.sol\":2293:2394  function renounceOwnership() public virtual onlyOwner {... */\n    tag_76:\n        /* \"@openzeppelin/contracts/access/Ownable.sol\":1531:1544  _checkOwner() */\n      tag_175\n        /* \"@openzeppelin/contracts/access/Ownable.sol\":1531:1542  _checkOwner */\n      tag_176\n        /* \"@openzeppelin/contracts/access/Ownable.sol\":1531:1544  _checkOwner() */\n      jump\t// in\n    tag_175:\n        /* \"@openzeppelin/contracts/access/Ownable.sol\":2357:2387  _transferOwnership(address(0)) */\n      tag_178\n        /* \"@openzeppelin/contracts/access/Ownable.sol\":2384:2385  0 */\n      0x00\n        /* \"@openzeppelin/contracts/access/Ownable.sol\":2357:2375  _transferOwnership */\n      tag_179\n        /* \"@openzeppelin/contracts/access/Ownable.sol\":2357:2387  _transferOwnership(address(0)) */\n      jump\t// in\n    tag_178:\n        /* \"@openzeppelin/contracts/access/Ownable.sol\":2293:2394  function renounceOwnership() public virtual onlyOwner {... */\n      jump\t// out\n        /* \"core/Storage.sol\":1981:2387  function storeFile(... */\n    tag_80:\n        /* \"core/Storage.sol\":375:393  1024 * 1024 * 1024 */\n      0x40000000\n        /* \"core/Storage.sol\":2156:2160  data */\n      dup5\n      dup5\n        /* \"core/Storage.sol\":2156:2167  data.length */\n      swap1\n      pop\n        /* \"core/Storage.sol\":2156:2184  data.length <= MAX_FILE_SIZE */\n      gt\n      iszero\n        /* \"core/Storage.sol\":2148:2203  require(data.length <= MAX_FILE_SIZE, \"File too large\") */\n      tag_181\n      jumpi\n      mload(0x40)\n      0x08c379a000000000000000000000000000000000000000000000000000000000\n      dup2\n      mstore\n      0x04\n      add\n      tag_182\n      swap1\n      tag_183\n      jump\t// in\n    tag_182:\n      mload(0x40)\n      dup1\n      swap2\n      sub\n      swap1\n      revert\n    tag_181:\n        /* \"core/Storage.sol\":2213:2231  uint256 chunkCount */\n      0x00\n        /* \"core/Storage.sol\":311:322  1024 * 1024 */\n      0x100000\n        /* \"core/Storage.sol\":2266:2267  1 */\n      0x01\n        /* \"core/Storage.sol\":311:322  1024 * 1024 */\n      0x100000\n        /* \"core/Storage.sol\":2235:2239  data */\n      dup8\n      dup8\n        /* \"core/Storage.sol\":2235:2246  data.length */\n      swap1\n      pop\n        /* \"core/Storage.sol\":2235:2263  data.length + MAX_CHUNK_SIZE */\n      tag_184\n      swap2\n      swap1\n      tag_185\n      jump\t// in\n    tag_184:\n        /* \"core/Storage.sol\":2235:2267  data.length + MAX_CHUNK_SIZE - 1 */\n      tag_186\n      swap2\n      swap1\n      tag_187\n      jump\t// in\n    tag_186:\n        /* \"core/Storage.sol\":2234:2285  (data.length + MAX_CHUNK_SIZE - 1) / MAX_CHUNK_SIZE */\n      tag_188\n      swap2\n      swap1\n      tag_189\n      jump\t// in\n    tag_188:\n        /* \"core/Storage.sol\":2213:2285  uint256 chunkCount = (data.length + MAX_CHUNK_SIZE - 1) / MAX_CHUNK_SIZE */\n      swap1\n      pop\n        /* \"core/Storage.sol\":2304:2380  _createFile(fileHash, data.length, chunkCount, isEncrypted, encryptionProof) */\n      tag_190\n        /* \"core/Storage.sol\":2316:2324  fileHash */\n      dup7\n        /* \"core/Storage.sol\":2326:2330  data */\n      dup7\n      dup7\n        /* \"core/Storage.sol\":2326:2337  data.length */\n      swap1\n      pop\n        /* \"core/Storage.sol\":2339:2349  chunkCount */\n      dup4\n        /* \"core/Storage.sol\":2351:2362  isEncrypted */\n      dup7\n        /* \"core/Storage.sol\":2364:2379  encryptionProof */\n      dup7\n        /* \"core/Storage.sol\":2304:2315  _createFile */\n      tag_191\n        /* \"core/Storage.sol\":2304:2380  _createFile(fileHash, data.length, chunkCount, isEncrypted, encryptionProof) */\n      jump\t// in\n    tag_190:\n        /* \"core/Storage.sol\":2138:2387  {... */\n      pop\n        /* \"core/Storage.sol\":1981:2387  function storeFile(... */\n      pop\n      pop\n      pop\n      pop\n      pop\n      jump\t// out\n        /* \"core/Storage.sol\":848:988  function hasAccess(bytes32 fileHash, address user) public view override returns (bool) {... */\n    tag_84:\n        /* \"core/Storage.sol\":929:933  bool */\n      0x00\n        /* \"core/Storage.sol\":952:965  accessControl */\n      0x04\n        /* \"core/Storage.sol\":952:975  accessControl[fileHash] */\n      0x00\n        /* \"core/Storage.sol\":966:974  fileHash */\n      dup5\n        /* \"core/Storage.sol\":952:975  accessControl[fileHash] */\n      dup2\n      mstore\n      0x20\n      add\n      swap1\n      dup2\n      mstore\n      0x20\n      add\n      0x00\n      keccak256\n        /* \"core/Storage.sol\":952:981  accessControl[fileHash][user] */\n      0x00\n        /* \"core/Storage.sol\":976:980  user */\n      dup4\n        /* \"core/Storage.sol\":952:981  accessControl[fileHash][user] */\n      0xffffffffffffffffffffffffffffffffffffffff\n      and\n      0xffffffffffffffffffffffffffffffffffffffff\n      and\n      dup2\n      mstore\n      0x20\n      add\n      swap1\n      dup2\n      mstore\n      0x20\n      add\n      0x00\n      keccak256\n      0x00\n      swap1\n      sload\n      swap1\n      0x0100\n      exp\n      swap1\n      div\n      0xff\n      and\n        /* \"core/Storage.sol\":945:981  return accessControl[fileHash][user] */\n      swap1\n      pop\n        /* \"core/Storage.sol\":848:988  function hasAccess(bytes32 fileHash, address user) public view override returns (bool) {... */\n      swap3\n      swap2\n      pop\n      pop\n      jump\t// out\n        /* \"core/Storage.sol\":3263:3515  function retrieveFile(bytes32 fileHash) external view override returns (FileMetadata memory) {... */\n    tag_88:\n        /* \"core/Storage.sol\":3335:3354  FileMetadata memory */\n      tag_193\n      tag_165\n      jump\t// in\n    tag_193:\n        /* \"core/Storage.sol\":3374:3394  fileExists(fileHash) */\n      tag_195\n        /* \"core/Storage.sol\":3385:3393  fileHash */\n      dup3\n        /* \"core/Storage.sol\":3374:3384  fileExists */\n      tag_36\n        /* \"core/Storage.sol\":3374:3394  fileExists(fileHash) */\n      jump\t// in\n    tag_195:\n        /* \"core/Storage.sol\":3366:3413  require(fileExists(fileHash), \"File not found\") */\n      tag_196\n      jumpi\n      mload(0x40)\n      0x08c379a000000000000000000000000000000000000000000000000000000000\n      dup2\n      mstore\n      0x04\n      add\n      tag_197\n      swap1\n      tag_139\n      jump\t// in\n    tag_197:\n      mload(0x40)\n      dup1\n      swap2\n      sub\n      swap1\n      revert\n    tag_196:\n        /* \"core/Storage.sol\":3431:3462  hasAccess(fileHash, msg.sender) */\n      tag_198\n        /* \"core/Storage.sol\":3441:3449  fileHash */\n      dup3\n        /* \"core/Storage.sol\":3451:3461  msg.sender */\n      caller\n        /* \"core/Storage.sol\":3431:3440  hasAccess */\n      tag_84\n        /* \"core/Storage.sol\":3431:3462  hasAccess(fileHash, msg.sender) */\n      jump\t// in\n    tag_198:\n        /* \"core/Storage.sol\":3423:3476  require(hasAccess(fileHash, msg.sender), \"No access\") */\n      tag_199\n      jumpi\n      mload(0x40)\n      0x08c379a000000000000000000000000000000000000000000000000000000000\n      dup2\n      mstore\n      0x04\n      add\n      tag_200\n      swap1\n      tag_201\n      jump\t// in\n    tag_200:\n      mload(0x40)\n      dup1\n      swap2\n      sub\n      swap1\n      revert\n    tag_199:\n        /* \"core/Storage.sol\":3493:3498  files */\n      0x02\n        /* \"core/Storage.sol\":3493:3508  files[fileHash] */\n      0x00\n        /* \"core/Storage.sol\":3499:3507  fileHash */\n      dup4\n        /* \"core/Storage.sol\":3493:3508  files[fileHash] */\n      dup2\n      mstore\n      0x20\n      add\n      swap1\n      dup2\n      mstore\n      0x20\n      add\n      0x00\n      keccak256\n        /* \"core/Storage.sol\":3486:3508  return files[fileHash] */\n      mload(0x40)\n      dup1\n      0x0100\n      add\n      0x40\n      mstore\n      swap1\n      dup2\n      0x00\n      dup3\n      add\n      sload\n      dup2\n      mstore\n      0x20\n      add\n      0x01\n      dup3\n      add\n      0x00\n      swap1\n      sload\n      swap1\n      0x0100\n      exp\n      swap1\n      div\n      0xffffffffffffffffffffffffffffffffffffffff\n      and\n      0xffffffffffffffffffffffffffffffffffffffff\n      and\n      0xffffffffffffffffffffffffffffffffffffffff\n      and\n      dup2\n      mstore\n      0x20\n      add\n      0x02\n      dup3\n      add\n      sload\n      dup2\n      mstore\n      0x20\n      add\n      0x03\n      dup3\n      add\n      sload\n      dup2\n      mstore\n      0x20\n      add\n      0x04\n      dup3\n      add\n      0x00\n      swap1\n      sload\n      swap1\n      0x0100\n      exp\n      swap1\n      div\n      0xff\n      and\n      iszero\n      iszero\n      iszero\n      iszero\n      dup2\n      mstore\n      0x20\n      add\n      0x05\n      dup3\n      add\n      sload\n      dup2\n      mstore\n      0x20\n      add\n      0x06\n      dup3\n      add\n      sload\n      dup2\n      mstore\n      0x20\n      add\n      0x07\n      dup3\n      add\n      0x00\n      swap1\n      sload\n      swap1\n      0x0100\n      exp\n      swap1\n      div\n      0xff\n      and\n      iszero\n      iszero\n      iszero\n      iszero\n      dup2\n      mstore\n      pop\n      pop\n      swap1\n      pop\n        /* \"core/Storage.sol\":3263:3515  function retrieveFile(bytes32 fileHash) external view override returns (FileMetadata memory) {... */\n      swap2\n      swap1\n      pop\n      jump\t// out\n        /* \"@openzeppelin/contracts/access/Ownable.sol\":1638:1723  function owner() public view virtual returns (address) {... */\n    tag_91:\n        /* \"@openzeppelin/contracts/access/Ownable.sol\":1684:1691  address */\n      0x00\n        /* \"@openzeppelin/contracts/access/Ownable.sol\":1710:1716  _owner */\n      dup1\n      0x00\n      swap1\n      sload\n      swap1\n      0x0100\n      exp\n      swap1\n      div\n      0xffffffffffffffffffffffffffffffffffffffff\n      and\n        /* \"@openzeppelin/contracts/access/Ownable.sol\":1703:1716  return _owner */\n      swap1\n      pop\n        /* \"@openzeppelin/contracts/access/Ownable.sol\":1638:1723  function owner() public view virtual returns (address) {... */\n      swap1\n      jump\t// out\n        /* \"core/Storage.sol\":6909:7309  function updateEncryption(... */\n    tag_97:\n        /* \"core/Storage.sol\":7018:7022  bool */\n      0x00\n        /* \"core/Storage.sol\":7042:7062  fileExists(fileHash) */\n      tag_204\n        /* \"core/Storage.sol\":7053:7061  fileHash */\n      dup4\n        /* \"core/Storage.sol\":7042:7052  fileExists */\n      tag_36\n        /* \"core/Storage.sol\":7042:7062  fileExists(fileHash) */\n      jump\t// in\n    tag_204:\n        /* \"core/Storage.sol\":7034:7081  require(fileExists(fileHash), \"File not found\") */\n      tag_205\n      jumpi\n      mload(0x40)\n      0x08c379a000000000000000000000000000000000000000000000000000000000\n      dup2\n      mstore\n      0x04\n      add\n      tag_206\n      swap1\n      tag_139\n      jump\t// in\n    tag_206:\n      mload(0x40)\n      dup1\n      swap2\n      sub\n      swap1\n      revert\n    tag_205:\n        /* \"core/Storage.sol\":7124:7134  msg.sender */\n      caller\n        /* \"core/Storage.sol\":7099:7134  files[fileHash].owner == msg.sender */\n      0xffffffffffffffffffffffffffffffffffffffff\n      and\n        /* \"core/Storage.sol\":7099:7104  files */\n      0x02\n        /* \"core/Storage.sol\":7099:7114  files[fileHash] */\n      0x00\n        /* \"core/Storage.sol\":7105:7113  fileHash */\n      dup6\n        /* \"core/Storage.sol\":7099:7114  files[fileHash] */\n      dup2\n      mstore\n      0x20\n      add\n      swap1\n      dup2\n      mstore\n      0x20\n      add\n      0x00\n      keccak256\n        /* \"core/Storage.sol\":7099:7120  files[fileHash].owner */\n      0x01\n      add\n      0x00\n      swap1\n      sload\n      swap1\n      0x0100\n      exp\n      swap1\n      div\n      0xffffffffffffffffffffffffffffffffffffffff\n      and\n        /* \"core/Storage.sol\":7099:7134  files[fileHash].owner == msg.sender */\n      0xffffffffffffffffffffffffffffffffffffffff\n      and\n      eq\n        /* \"core/Storage.sol\":7091:7148  require(files[fileHash].owner == msg.sender, \"Not owner\") */\n      tag_207\n      jumpi\n      mload(0x40)\n      0x08c379a000000000000000000000000000000000000000000000000000000000\n      dup2\n      mstore\n      0x04\n      add\n      tag_208\n      swap1\n      tag_142\n      jump\t// in\n    tag_208:\n      mload(0x40)\n      dup1\n      swap2\n      sub\n      swap1\n      revert\n    tag_207:\n        /* \"core/Storage.sol\":7197:7206  encrypted */\n      dup2\n        /* \"core/Storage.sol\":7167:7172  files */\n      0x02\n        /* \"core/Storage.sol\":7167:7182  files[fileHash] */\n      0x00\n        /* \"core/Storage.sol\":7173:7181  fileHash */\n      dup6\n        /* \"core/Storage.sol\":7167:7182  files[fileHash] */\n      dup2\n      mstore\n      0x20\n      add\n      swap1\n      dup2\n      mstore\n      0x20\n      add\n      0x00\n      keccak256\n        /* \"core/Storage.sol\":7167:7194  files[fileHash].isEncrypted */\n      0x04\n      add\n      0x00\n        /* \"core/Storage.sol\":7167:7206  files[fileHash].isEncrypted = encrypted */\n      0x0100\n      exp\n      dup2\n      sload\n      dup2\n      0xff\n      mul\n      not\n      and\n      swap1\n      dup4\n      iszero\n      iszero\n      mul\n      or\n      swap1\n      sstore\n      pop\n        /* \"core/Storage.sol\":7239:7247  fileHash */\n      dup3\n        /* \"core/Storage.sol\":7221:7281  EncryptionUpdated(fileHash, files[fileHash].encryptionProof) */\n      0x22fcd0c181fefec176f74b8af4b0d73dde52a16a6127956654704b1b311193f2\n        /* \"core/Storage.sol\":7249:7254  files */\n      0x02\n        /* \"core/Storage.sol\":7249:7264  files[fileHash] */\n      0x00\n        /* \"core/Storage.sol\":7255:7263  fileHash */\n      dup7\n        /* \"core/Storage.sol\":7249:7264  files[fileHash] */\n      dup2\n      mstore\n      0x20\n      add\n      swap1\n      dup2\n      mstore\n      0x20\n      add\n      0x00\n      keccak256\n        /* \"core/Storage.sol\":7249:7280  files[fileHash].encryptionProof */\n      0x05\n      add\n      sload\n        /* \"core/Storage.sol\":7221:7281  EncryptionUpdated(fileHash, files[fileHash].encryptionProof) */\n      mload(0x40)\n      tag_209\n      swap2\n      swap1\n      tag_160\n      jump\t// in\n    tag_209:\n      mload(0x40)\n      dup1\n      swap2\n      sub\n      swap1\n      log2\n        /* \"core/Storage.sol\":7298:7302  true */\n      0x01\n        /* \"core/Storage.sol\":7291:7302  return true */\n      swap1\n      pop\n        /* \"core/Storage.sol\":6909:7309  function updateEncryption(... */\n      swap3\n      swap2\n      pop\n      pop\n      jump\t// out\n        /* \"core/Storage.sol\":8012:8356  function verifyChunk(... */\n    tag_102:\n        /* \"core/Storage.sol\":8147:8151  bool */\n      0x00\n        /* \"core/Storage.sol\":8171:8191  fileExists(fileHash) */\n      tag_211\n        /* \"core/Storage.sol\":8182:8190  fileHash */\n      dup5\n        /* \"core/Storage.sol\":8171:8181  fileExists */\n      tag_36\n        /* \"core/Storage.sol\":8171:8191  fileExists(fileHash) */\n      jump\t// in\n    tag_211:\n        /* \"core/Storage.sol\":8163:8210  require(fileExists(fileHash), \"File not found\") */\n      tag_212\n      jumpi\n      mload(0x40)\n      0x08c379a000000000000000000000000000000000000000000000000000000000\n      dup2\n      mstore\n      0x04\n      add\n      tag_213\n      swap1\n      tag_139\n      jump\t// in\n    tag_213:\n      mload(0x40)\n      dup1\n      swap2\n      sub\n      swap1\n      revert\n    tag_212:\n        /* \"core/Storage.sol\":8236:8241  files */\n      0x02\n        /* \"core/Storage.sol\":8236:8251  files[fileHash] */\n      0x00\n        /* \"core/Storage.sol\":8242:8250  fileHash */\n      dup6\n        /* \"core/Storage.sol\":8236:8251  files[fileHash] */\n      dup2\n      mstore\n      0x20\n      add\n      swap1\n      dup2\n      mstore\n      0x20\n      add\n      0x00\n      keccak256\n        /* \"core/Storage.sol\":8236:8258  files[fileHash].chunks */\n      0x06\n      add\n      sload\n        /* \"core/Storage.sol\":8228:8233  index */\n      dup4\n        /* \"core/Storage.sol\":8228:8258  index < files[fileHash].chunks */\n      lt\n        /* \"core/Storage.sol\":8220:8282  require(index < files[fileHash].chunks, \"Invalid chunk index\") */\n      tag_214\n      jumpi\n      mload(0x40)\n      0x08c379a000000000000000000000000000000000000000000000000000000000\n      dup2\n      mstore\n      0x04\n      add\n      tag_215\n      swap1\n      tag_152\n      jump\t// in\n    tag_215:\n      mload(0x40)\n      dup1\n      swap2\n      sub\n      swap1\n      revert\n    tag_214:\n        /* \"core/Storage.sol\":8340:8349  chunkHash */\n      dup2\n        /* \"core/Storage.sol\":8308:8314  chunks */\n      0x03\n        /* \"core/Storage.sol\":8308:8324  chunks[fileHash] */\n      0x00\n        /* \"core/Storage.sol\":8315:8323  fileHash */\n      dup7\n        /* \"core/Storage.sol\":8308:8324  chunks[fileHash] */\n      dup2\n      mstore\n      0x20\n      add\n      swap1\n      dup2\n      mstore\n      0x20\n      add\n      0x00\n      keccak256\n        /* \"core/Storage.sol\":8308:8331  chunks[fileHash][index] */\n      0x00\n        /* \"core/Storage.sol\":8325:8330  index */\n      dup6\n        /* \"core/Storage.sol\":8308:8331  chunks[fileHash][index] */\n      dup2\n      mstore\n      0x20\n      add\n      swap1\n      dup2\n      mstore\n      0x20\n      add\n      0x00\n      keccak256\n        /* \"core/Storage.sol\":8308:8336  chunks[fileHash][index].hash */\n      0x02\n      add\n      sload\n        /* \"core/Storage.sol\":8308:8349  chunks[fileHash][index].hash == chunkHash */\n      eq\n        /* \"core/Storage.sol\":8301:8349  return chunks[fileHash][index].hash == chunkHash */\n      swap1\n      pop\n        /* \"core/Storage.sol\":8012:8356  function verifyChunk(... */\n      swap4\n      swap3\n      pop\n      pop\n      pop\n      jump\t// out\n        /* \"core/Storage.sol\":6027:6485  function retrieveChunk(... */\n    tag_106:\n        /* \"core/Storage.sol\":6137:6149  bytes memory */\n      0x60\n        /* \"core/Storage.sol\":6169:6189  fileExists(fileHash) */\n      tag_217\n        /* \"core/Storage.sol\":6180:6188  fileHash */\n      dup4\n        /* \"core/Storage.sol\":6169:6179  fileExists */\n      tag_36\n        /* \"core/Storage.sol\":6169:6189  fileExists(fileHash) */\n      jump\t// in\n    tag_217:\n        /* \"core/Storage.sol\":6161:6208  require(fileExists(fileHash), \"File not found\") */\n      tag_218\n      jumpi\n      mload(0x40)\n      0x08c379a000000000000000000000000000000000000000000000000000000000\n      dup2\n      mstore\n      0x04\n      add\n      tag_219\n      swap1\n      tag_139\n      jump\t// in\n    tag_219:\n      mload(0x40)\n      dup1\n      swap2\n      sub\n      swap1\n      revert\n    tag_218:\n        /* \"core/Storage.sol\":6226:6257  hasAccess(fileHash, msg.sender) */\n      tag_220\n        /* \"core/Storage.sol\":6236:6244  fileHash */\n      dup4\n        /* \"core/Storage.sol\":6246:6256  msg.sender */\n      caller\n        /* \"core/Storage.sol\":6226:6235  hasAccess */\n      tag_84\n        /* \"core/Storage.sol\":6226:6257  hasAccess(fileHash, msg.sender) */\n      jump\t// in\n    tag_220:\n        /* \"core/Storage.sol\":6218:6271  require(hasAccess(fileHash, msg.sender), \"No access\") */\n      tag_221\n      jumpi\n      mload(0x40)\n      0x08c379a000000000000000000000000000000000000000000000000000000000\n      dup2\n      mstore\n      0x04\n      add\n      tag_222\n      swap1\n      tag_201\n      jump\t// in\n    tag_222:\n      mload(0x40)\n      dup1\n      swap2\n      sub\n      swap1\n      revert\n    tag_221:\n        /* \"core/Storage.sol\":6297:6302  files */\n      0x02\n        /* \"core/Storage.sol\":6297:6312  files[fileHash] */\n      0x00\n        /* \"core/Storage.sol\":6303:6311  fileHash */\n      dup5\n        /* \"core/Storage.sol\":6297:6312  files[fileHash] */\n      dup2\n      mstore\n      0x20\n      add\n      swap1\n      dup2\n      mstore\n      0x20\n      add\n      0x00\n      keccak256\n        /* \"core/Storage.sol\":6297:6319  files[fileHash].chunks */\n      0x06\n      add\n      sload\n        /* \"core/Storage.sol\":6289:6294  index */\n      dup3\n        /* \"core/Storage.sol\":6289:6319  index < files[fileHash].chunks */\n      lt\n        /* \"core/Storage.sol\":6281:6343  require(index < files[fileHash].chunks, \"Invalid chunk index\") */\n      tag_223\n      jumpi\n      mload(0x40)\n      0x08c379a000000000000000000000000000000000000000000000000000000000\n      dup2\n      mstore\n      0x04\n      add\n      tag_224\n      swap1\n      tag_152\n      jump\t// in\n    tag_224:\n      mload(0x40)\n      dup1\n      swap2\n      sub\n      swap1\n      revert\n    tag_223:\n        /* \"core/Storage.sol\":6469:6478  return \"\" */\n      mload(0x40)\n      dup1\n      0x20\n      add\n      0x40\n      mstore\n      dup1\n      0x00\n      dup2\n      mstore\n      pop\n      swap1\n      pop\n        /* \"core/Storage.sol\":6027:6485  function retrieveChunk(... */\n      swap3\n      swap2\n      pop\n      pop\n      jump\t// out\n        /* \"core/Storage.sol\":1761:1942  function getFileSize(bytes32 fileHash) external view override returns (uint256) {... */\n    tag_111:\n        /* \"core/Storage.sol\":1832:1839  uint256 */\n      0x00\n        /* \"core/Storage.sol\":1859:1879  fileExists(fileHash) */\n      tag_226\n        /* \"core/Storage.sol\":1870:1878  fileHash */\n      dup3\n        /* \"core/Storage.sol\":1859:1869  fileExists */\n      tag_36\n        /* \"core/Storage.sol\":1859:1879  fileExists(fileHash) */\n      jump\t// in\n    tag_226:\n        /* \"core/Storage.sol\":1851:1898  require(fileExists(fileHash), \"File not found\") */\n      tag_227\n      jumpi\n      mload(0x40)\n      0x08c379a000000000000000000000000000000000000000000000000000000000\n      dup2\n      mstore\n      0x04\n      add\n      tag_228\n      swap1\n      tag_139\n      jump\t// in\n    tag_228:\n      mload(0x40)\n      dup1\n      swap2\n      sub\n      swap1\n      revert\n    tag_227:\n        /* \"core/Storage.sol\":1915:1920  files */\n      0x02\n        /* \"core/Storage.sol\":1915:1930  files[fileHash] */\n      0x00\n        /* \"core/Storage.sol\":1921:1929  fileHash */\n      dup4\n        /* \"core/Storage.sol\":1915:1930  files[fileHash] */\n      dup2\n      mstore\n      0x20\n      add\n      swap1\n      dup2\n      mstore\n      0x20\n      add\n      0x00\n      keccak256\n        /* \"core/Storage.sol\":1915:1935  files[fileHash].size */\n      0x02\n      add\n      sload\n        /* \"core/Storage.sol\":1908:1935  return files[fileHash].size */\n      swap1\n      pop\n        /* \"core/Storage.sol\":1761:1942  function getFileSize(bytes32 fileHash) external view override returns (uint256) {... */\n      swap2\n      swap1\n      pop\n      jump\t// out\n        /* \"core/Storage.sol\":2438:2725  function storeFile(... */\n    tag_116:\n        /* \"core/Storage.sol\":2623:2627  bool */\n      0x00\n        /* \"core/Storage.sol\":2639:2697  _createFile(fileHash, size, chunks, encrypted, bytes32(0)) */\n      tag_230\n        /* \"core/Storage.sol\":2651:2659  fileHash */\n      dup8\n        /* \"core/Storage.sol\":2661:2665  size */\n      dup8\n        /* \"core/Storage.sol\":2667:2673  chunks */\n      dup8\n        /* \"core/Storage.sol\":2675:2684  encrypted */\n      dup8\n        /* \"core/Storage.sol\":2694:2695  0 */\n      0x00\n        /* \"core/Storage.sol\":2686:2696  bytes32(0) */\n      dup1\n      shl\n        /* \"core/Storage.sol\":2639:2650  _createFile */\n      tag_191\n        /* \"core/Storage.sol\":2639:2697  _createFile(fileHash, size, chunks, encrypted, bytes32(0)) */\n      jump\t// in\n    tag_230:\n        /* \"core/Storage.sol\":2714:2718  true */\n      0x01\n        /* \"core/Storage.sol\":2707:2718  return true */\n      swap1\n      pop\n        /* \"core/Storage.sol\":2438:2725  function storeFile(... */\n      swap7\n      swap6\n      pop\n      pop\n      pop\n      pop\n      pop\n      pop\n      jump\t// out\n        /* \"core/Storage.sol\":7355:7965  function verifyChunk(... */\n    tag_120:\n        /* \"core/Storage.sol\":7520:7524  bool */\n      0x00\n        /* \"core/Storage.sol\":7544:7564  fileExists(fileHash) */\n      tag_232\n        /* \"core/Storage.sol\":7555:7563  fileHash */\n      dup7\n        /* \"core/Storage.sol\":7544:7554  fileExists */\n      tag_36\n        /* \"core/Storage.sol\":7544:7564  fileExists(fileHash) */\n      jump\t// in\n    tag_232:\n        /* \"core/Storage.sol\":7536:7583  require(fileExists(fileHash), \"File not found\") */\n      tag_233\n      jumpi\n      mload(0x40)\n      0x08c379a000000000000000000000000000000000000000000000000000000000\n      dup2\n      mstore\n      0x04\n      add\n      tag_234\n      swap1\n      tag_139\n      jump\t// in\n    tag_234:\n      mload(0x40)\n      dup1\n      swap2\n      sub\n      swap1\n      revert\n    tag_233:\n        /* \"core/Storage.sol\":7614:7619  files */\n      0x02\n        /* \"core/Storage.sol\":7614:7629  files[fileHash] */\n      0x00\n        /* \"core/Storage.sol\":7620:7628  fileHash */\n      dup8\n        /* \"core/Storage.sol\":7614:7629  files[fileHash] */\n      dup2\n      mstore\n      0x20\n      add\n      swap1\n      dup2\n      mstore\n      0x20\n      add\n      0x00\n      keccak256\n        /* \"core/Storage.sol\":7614:7636  files[fileHash].chunks */\n      0x06\n      add\n      sload\n        /* \"core/Storage.sol\":7601:7611  chunkIndex */\n      dup6\n        /* \"core/Storage.sol\":7601:7636  chunkIndex < files[fileHash].chunks */\n      lt\n        /* \"core/Storage.sol\":7593:7660  require(chunkIndex < files[fileHash].chunks, \"Invalid chunk index\") */\n      tag_235\n      jumpi\n      mload(0x40)\n      0x08c379a000000000000000000000000000000000000000000000000000000000\n      dup2\n      mstore\n      0x04\n      add\n      tag_236\n      swap1\n      tag_152\n      jump\t// in\n    tag_236:\n      mload(0x40)\n      dup1\n      swap2\n      sub\n      swap1\n      revert\n    tag_235:\n        /* \"core/Storage.sol\":7679:7702  ChunkInfo storage chunk */\n      0x00\n        /* \"core/Storage.sol\":7705:7711  chunks */\n      0x03\n        /* \"core/Storage.sol\":7705:7721  chunks[fileHash] */\n      0x00\n        /* \"core/Storage.sol\":7712:7720  fileHash */\n      dup9\n        /* \"core/Storage.sol\":7705:7721  chunks[fileHash] */\n      dup2\n      mstore\n      0x20\n      add\n      swap1\n      dup2\n      mstore\n      0x20\n      add\n      0x00\n      keccak256\n        /* \"core/Storage.sol\":7705:7733  chunks[fileHash][chunkIndex] */\n      0x00\n        /* \"core/Storage.sol\":7722:7732  chunkIndex */\n      dup8\n        /* \"core/Storage.sol\":7705:7733  chunks[fileHash][chunkIndex] */\n      dup2\n      mstore\n      0x20\n      add\n      swap1\n      dup2\n      mstore\n      0x20\n      add\n      0x00\n      keccak256\n        /* \"core/Storage.sol\":7679:7733  ChunkInfo storage chunk = chunks[fileHash][chunkIndex] */\n      swap1\n      pop\n        /* \"core/Storage.sol\":7743:7763  bytes32 computedHash */\n      0x00\n        /* \"core/Storage.sol\":7776:7780  data */\n      dup6\n      dup6\n        /* \"core/Storage.sol\":7766:7781  keccak256(data) */\n      mload(0x40)\n      tag_237\n      swap3\n      swap2\n      swap1\n      tag_238\n      jump\t// in\n    tag_237:\n      mload(0x40)\n      dup1\n      swap2\n      sub\n      swap1\n      keccak256\n        /* \"core/Storage.sol\":7743:7781  bytes32 computedHash = keccak256(data) */\n      swap1\n      pop\n        /* \"core/Storage.sol\":7821:7822  0 */\n      0x00\n        /* \"core/Storage.sol\":7813:7823  bytes32(0) */\n      dup1\n      shl\n        /* \"core/Storage.sol\":7804:7809  proof */\n      dup5\n        /* \"core/Storage.sol\":7804:7823  proof != bytes32(0) */\n      eq\n        /* \"core/Storage.sol\":7800:7907  if (proof != bytes32(0)) {... */\n      tag_239\n      jumpi\n        /* \"core/Storage.sol\":7861:7866  proof */\n      dup4\n        /* \"core/Storage.sol\":7846:7851  chunk */\n      dup3\n        /* \"core/Storage.sol\":7846:7857  chunk.proof */\n      0x03\n      add\n      sload\n        /* \"core/Storage.sol\":7846:7866  chunk.proof == proof */\n      eq\n        /* \"core/Storage.sol\":7846:7896  chunk.proof == proof && chunk.hash == computedHash */\n      dup1\n      iszero\n      tag_240\n      jumpi\n      pop\n        /* \"core/Storage.sol\":7884:7896  computedHash */\n      dup1\n        /* \"core/Storage.sol\":7870:7875  chunk */\n      dup3\n        /* \"core/Storage.sol\":7870:7880  chunk.hash */\n      0x02\n      add\n      sload\n        /* \"core/Storage.sol\":7870:7896  chunk.hash == computedHash */\n      eq\n        /* \"core/Storage.sol\":7846:7896  chunk.proof == proof && chunk.hash == computedHash */\n    tag_240:\n        /* \"core/Storage.sol\":7839:7896  return chunk.proof == proof && chunk.hash == computedHash */\n      swap3\n      pop\n      pop\n      pop\n      jump(tag_231)\n        /* \"core/Storage.sol\":7800:7907  if (proof != bytes32(0)) {... */\n    tag_239:\n        /* \"core/Storage.sol\":7946:7958  computedHash */\n      dup1\n        /* \"core/Storage.sol\":7932:7937  chunk */\n      dup3\n        /* \"core/Storage.sol\":7932:7942  chunk.hash */\n      0x02\n      add\n      sload\n        /* \"core/Storage.sol\":7932:7958  chunk.hash == computedHash */\n      eq\n        /* \"core/Storage.sol\":7925:7958  return chunk.hash == computedHash */\n      swap3\n      pop\n      pop\n      pop\n        /* \"core/Storage.sol\":7355:7965  function verifyChunk(... */\n    tag_231:\n      swap6\n      swap5\n      pop\n      pop\n      pop\n      pop\n      pop\n      jump\t// out\n        /* \"core/Storage.sol\":5395:5768  function storeFile(... */\n    tag_125:\n        /* \"core/Storage.sol\":5657:5661  bool */\n      0x00\n        /* \"core/Storage.sol\":5673:5740  _createFile(fileHash, size, chunkCount, isEncrypted, encryptionKey) */\n      tag_242\n        /* \"core/Storage.sol\":5685:5693  fileHash */\n      dup11\n        /* \"core/Storage.sol\":5695:5699  size */\n      dup11\n        /* \"core/Storage.sol\":5701:5711  chunkCount */\n      dup11\n        /* \"core/Storage.sol\":5713:5724  isEncrypted */\n      dup9\n        /* \"core/Storage.sol\":5726:5739  encryptionKey */\n      dup7\n        /* \"core/Storage.sol\":5673:5684  _createFile */\n      tag_191\n        /* \"core/Storage.sol\":5673:5740  _createFile(fileHash, size, chunkCount, isEncrypted, encryptionKey) */\n      jump\t// in\n    tag_242:\n        /* \"core/Storage.sol\":5757:5761  true */\n      0x01\n        /* \"core/Storage.sol\":5750:5761  return true */\n      swap1\n      pop\n        /* \"core/Storage.sol\":5395:5768  function storeFile(... */\n      swap10\n      swap9\n      pop\n      pop\n      pop\n      pop\n      pop\n      pop\n      pop\n      pop\n      pop\n      jump\t// out\n        /* \"core/Storage.sol\":1549:1734  function getChunkCount(bytes32 fileHash) external view override returns (uint256) {... */\n    tag_129:\n        /* \"core/Storage.sol\":1622:1629  uint256 */\n      0x00\n        /* \"core/Storage.sol\":1649:1669  fileExists(fileHash) */\n      tag_244\n        /* \"core/Storage.sol\":1660:1668  fileHash */\n      dup3\n        /* \"core/Storage.sol\":1649:1659  fileExists */\n      tag_36\n        /* \"core/Storage.sol\":1649:1669  fileExists(fileHash) */\n      jump\t// in\n    tag_244:\n        /* \"core/Storage.sol\":1641:1688  require(fileExists(fileHash), \"File not found\") */\n      tag_245\n      jumpi\n      mload(0x40)\n      0x08c379a000000000000000000000000000000000000000000000000000000000\n      dup2\n      mstore\n      0x04\n      add\n      tag_246\n      swap1\n      tag_139\n      jump\t// in\n    tag_246:\n      mload(0x40)\n      dup1\n      swap2\n      sub\n      swap1\n      revert\n    tag_245:\n        /* \"core/Storage.sol\":1705:1710  files */\n      0x02\n        /* \"core/Storage.sol\":1705:1720  files[fileHash] */\n      0x00\n        /* \"core/Storage.sol\":1711:1719  fileHash */\n      dup4\n        /* \"core/Storage.sol\":1705:1720  files[fileHash] */\n      dup2\n      mstore\n      0x20\n      add\n      swap1\n      dup2\n      mstore\n      0x20\n      add\n      0x00\n      keccak256\n        /* \"core/Storage.sol\":1705:1727  files[fileHash].chunks */\n      0x06\n      add\n      sload\n        /* \"core/Storage.sol\":1698:1727  return files[fileHash].chunks */\n      swap1\n      pop\n        /* \"core/Storage.sol\":1549:1734  function getChunkCount(bytes32 fileHash) external view override returns (uint256) {... */\n      swap2\n      swap1\n      pop\n      jump\t// out\n        /* \"@openzeppelin/contracts/access/Ownable.sol\":2543:2758  function transferOwnership(address newOwner) public virtual onlyOwner {... */\n    tag_134:\n        /* \"@openzeppelin/contracts/access/Ownable.sol\":1531:1544  _checkOwner() */\n      tag_248\n        /* \"@openzeppelin/contracts/access/Ownable.sol\":1531:1542  _checkOwner */\n      tag_176\n        /* \"@openzeppelin/contracts/access/Ownable.sol\":1531:1544  _checkOwner() */\n      jump\t// in\n    tag_248:\n        /* \"@openzeppelin/contracts/access/Ownable.sol\":2647:2648  0 */\n      0x00\n        /* \"@openzeppelin/contracts/access/Ownable.sol\":2627:2649  newOwner == address(0) */\n      0xffffffffffffffffffffffffffffffffffffffff\n      and\n        /* \"@openzeppelin/contracts/access/Ownable.sol\":2627:2635  newOwner */\n      dup2\n        /* \"@openzeppelin/contracts/access/Ownable.sol\":2627:2649  newOwner == address(0) */\n      0xffffffffffffffffffffffffffffffffffffffff\n      and\n      sub\n        /* \"@openzeppelin/contracts/access/Ownable.sol\":2623:2714  if (newOwner == address(0)) {... */\n      tag_250\n      jumpi\n        /* \"@openzeppelin/contracts/access/Ownable.sol\":2700:2701  0 */\n      0x00\n        /* \"@openzeppelin/contracts/access/Ownable.sol\":2672:2703  OwnableInvalidOwner(address(0)) */\n      mload(0x40)\n      0x1e4fbdf700000000000000000000000000000000000000000000000000000000\n      dup2\n      mstore\n      0x04\n      add\n      tag_251\n      swap2\n      swap1\n      tag_93\n      jump\t// in\n    tag_251:\n      mload(0x40)\n      dup1\n      swap2\n      sub\n      swap1\n      revert\n        /* \"@openzeppelin/contracts/access/Ownable.sol\":2623:2714  if (newOwner == address(0)) {... */\n    tag_250:\n        /* \"@openzeppelin/contracts/access/Ownable.sol\":2723:2751  _transferOwnership(newOwner) */\n      tag_252\n        /* \"@openzeppelin/contracts/access/Ownable.sol\":2742:2750  newOwner */\n      dup2\n        /* \"@openzeppelin/contracts/access/Ownable.sol\":2723:2741  _transferOwnership */\n      tag_179\n        /* \"@openzeppelin/contracts/access/Ownable.sol\":2723:2751  _transferOwnership(newOwner) */\n      jump\t// in\n    tag_252:\n        /* \"@openzeppelin/contracts/access/Ownable.sol\":2543:2758  function transferOwnership(address newOwner) public virtual onlyOwner {... */\n      pop\n      jump\t// out\n        /* \"core/Storage.sol\":4669:5342  function _storeChunk(... */\n    tag_163:\n        /* \"core/Storage.sol\":4824:4844  fileExists(fileHash) */\n      tag_254\n        /* \"core/Storage.sol\":4835:4843  fileHash */\n      dup6\n        /* \"core/Storage.sol\":4824:4834  fileExists */\n      tag_36\n        /* \"core/Storage.sol\":4824:4844  fileExists(fileHash) */\n      jump\t// in\n    tag_254:\n        /* \"core/Storage.sol\":4816:4863  require(fileExists(fileHash), \"File not found\") */\n      tag_255\n      jumpi\n      mload(0x40)\n      0x08c379a000000000000000000000000000000000000000000000000000000000\n      dup2\n      mstore\n      0x04\n      add\n      tag_256\n      swap1\n      tag_139\n      jump\t// in\n    tag_256:\n      mload(0x40)\n      dup1\n      swap2\n      sub\n      swap1\n      revert\n    tag_255:\n        /* \"core/Storage.sol\":4881:4912  hasAccess(fileHash, msg.sender) */\n      tag_257\n        /* \"core/Storage.sol\":4891:4899  fileHash */\n      dup6\n        /* \"core/Storage.sol\":4901:4911  msg.sender */\n      caller\n        /* \"core/Storage.sol\":4881:4890  hasAccess */\n      tag_84\n        /* \"core/Storage.sol\":4881:4912  hasAccess(fileHash, msg.sender) */\n      jump\t// in\n    tag_257:\n        /* \"core/Storage.sol\":4873:4926  require(hasAccess(fileHash, msg.sender), \"No access\") */\n      tag_258\n      jumpi\n      mload(0x40)\n      0x08c379a000000000000000000000000000000000000000000000000000000000\n      dup2\n      mstore\n      0x04\n      add\n      tag_259\n      swap1\n      tag_201\n      jump\t// in\n    tag_259:\n      mload(0x40)\n      dup1\n      swap2\n      sub\n      swap1\n      revert\n    tag_258:\n        /* \"core/Storage.sol\":311:322  1024 * 1024 */\n      0x100000\n        /* \"core/Storage.sol\":4944:4948  data */\n      dup4\n      dup4\n        /* \"core/Storage.sol\":4944:4955  data.length */\n      swap1\n      pop\n        /* \"core/Storage.sol\":4944:4973  data.length <= MAX_CHUNK_SIZE */\n      gt\n      iszero\n        /* \"core/Storage.sol\":4936:4993  require(data.length <= MAX_CHUNK_SIZE, \"Chunk too large\") */\n      tag_260\n      jumpi\n      mload(0x40)\n      0x08c379a000000000000000000000000000000000000000000000000000000000\n      dup2\n      mstore\n      0x04\n      add\n      tag_261\n      swap1\n      tag_262\n      jump\t// in\n    tag_261:\n      mload(0x40)\n      dup1\n      swap2\n      sub\n      swap1\n      revert\n    tag_260:\n        /* \"core/Storage.sol\":5019:5024  files */\n      0x02\n        /* \"core/Storage.sol\":5019:5034  files[fileHash] */\n      0x00\n        /* \"core/Storage.sol\":5025:5033  fileHash */\n      dup7\n        /* \"core/Storage.sol\":5019:5034  files[fileHash] */\n      dup2\n      mstore\n      0x20\n      add\n      swap1\n      dup2\n      mstore\n      0x20\n      add\n      0x00\n      keccak256\n        /* \"core/Storage.sol\":5019:5041  files[fileHash].chunks */\n      0x06\n      add\n      sload\n        /* \"core/Storage.sol\":5011:5016  index */\n      dup5\n        /* \"core/Storage.sol\":5011:5041  index < files[fileHash].chunks */\n      lt\n        /* \"core/Storage.sol\":5003:5065  require(index < files[fileHash].chunks, \"Invalid chunk index\") */\n      tag_263\n      jumpi\n      mload(0x40)\n      0x08c379a000000000000000000000000000000000000000000000000000000000\n      dup2\n      mstore\n      0x04\n      add\n      tag_264\n      swap1\n      tag_152\n      jump\t// in\n    tag_264:\n      mload(0x40)\n      dup1\n      swap2\n      sub\n      swap1\n      revert\n    tag_263:\n        /* \"core/Storage.sol\":5076:5093  bytes32 chunkHash */\n      0x00\n        /* \"core/Storage.sol\":5106:5110  data */\n      dup4\n      dup4\n        /* \"core/Storage.sol\":5096:5111  keccak256(data) */\n      mload(0x40)\n      tag_265\n      swap3\n      swap2\n      swap1\n      tag_238\n      jump\t// in\n    tag_265:\n      mload(0x40)\n      dup1\n      swap2\n      sub\n      swap1\n      keccak256\n        /* \"core/Storage.sol\":5076:5111  bytes32 chunkHash = keccak256(data) */\n      swap1\n      pop\n        /* \"core/Storage.sol\":5147:5280  ChunkInfo({... */\n      mload(0x40)\n      dup1\n      0x80\n      add\n      0x40\n      mstore\n      dup1\n        /* \"core/Storage.sol\":5178:5183  index */\n      dup7\n        /* \"core/Storage.sol\":5147:5280  ChunkInfo({... */\n      dup2\n      mstore\n      0x20\n      add\n        /* \"core/Storage.sol\":5203:5207  data */\n      dup6\n      dup6\n        /* \"core/Storage.sol\":5203:5214  data.length */\n      swap1\n      pop\n        /* \"core/Storage.sol\":5147:5280  ChunkInfo({... */\n      dup2\n      mstore\n      0x20\n      add\n        /* \"core/Storage.sol\":5234:5243  chunkHash */\n      dup3\n        /* \"core/Storage.sol\":5147:5280  ChunkInfo({... */\n      dup2\n      mstore\n      0x20\n      add\n        /* \"core/Storage.sol\":5264:5269  proof */\n      dup4\n        /* \"core/Storage.sol\":5147:5280  ChunkInfo({... */\n      dup2\n      mstore\n      pop\n        /* \"core/Storage.sol\":5121:5127  chunks */\n      0x03\n        /* \"core/Storage.sol\":5121:5137  chunks[fileHash] */\n      0x00\n        /* \"core/Storage.sol\":5128:5136  fileHash */\n      dup9\n        /* \"core/Storage.sol\":5121:5137  chunks[fileHash] */\n      dup2\n      mstore\n      0x20\n      add\n      swap1\n      dup2\n      mstore\n      0x20\n      add\n      0x00\n      keccak256\n        /* \"core/Storage.sol\":5121:5144  chunks[fileHash][index] */\n      0x00\n        /* \"core/Storage.sol\":5138:5143  index */\n      dup8\n        /* \"core/Storage.sol\":5121:5144  chunks[fileHash][index] */\n      dup2\n      mstore\n      0x20\n      add\n      swap1\n      dup2\n      mstore\n      0x20\n      add\n      0x00\n      keccak256\n        /* \"core/Storage.sol\":5121:5280  chunks[fileHash][index] = ChunkInfo({... */\n      0x00\n      dup3\n      add\n      mload\n      dup2\n      0x00\n      add\n      sstore\n      0x20\n      dup3\n      add\n      mload\n      dup2\n      0x01\n      add\n      sstore\n      0x40\n      dup3\n      add\n      mload\n      dup2\n      0x02\n      add\n      sstore\n      0x60\n      dup3\n      add\n      mload\n      dup2\n      0x03\n      add\n      sstore\n      swap1\n      pop\n      pop\n        /* \"core/Storage.sol\":5318:5323  index */\n      dup5\n        /* \"core/Storage.sol\":5308:5316  fileHash */\n      dup7\n        /* \"core/Storage.sol\":5296:5335  ChunkStored(fileHash, index, chunkHash) */\n      0x094a77d760348eb6b0079a077b9c0a33cb2a9381fedcf68792ed2d6356c97cf0\n        /* \"core/Storage.sol\":5325:5334  chunkHash */\n      dup4\n        /* \"core/Storage.sol\":5296:5335  ChunkStored(fileHash, index, chunkHash) */\n      mload(0x40)\n      tag_266\n      swap2\n      swap1\n      tag_160\n      jump\t// in\n    tag_266:\n      mload(0x40)\n      dup1\n      swap2\n      sub\n      swap1\n      log3\n        /* \"core/Storage.sol\":4806:5342  {... */\n      pop\n        /* \"core/Storage.sol\":4669:5342  function _storeChunk(... */\n      pop\n      pop\n      pop\n      pop\n      pop\n      jump\t// out\n        /* \"@openzeppelin/contracts/access/Ownable.sol\":1796:1958  function _checkOwner() internal view virtual {... */\n    tag_176:\n        /* \"@openzeppelin/contracts/access/Ownable.sol\":1866:1878  _msgSender() */\n      tag_268\n        /* \"@openzeppelin/contracts/access/Ownable.sol\":1866:1876  _msgSender */\n      tag_269\n        /* \"@openzeppelin/contracts/access/Ownable.sol\":1866:1878  _msgSender() */\n      jump\t// in\n    tag_268:\n        /* \"@openzeppelin/contracts/access/Ownable.sol\":1855:1878  owner() != _msgSender() */\n      0xffffffffffffffffffffffffffffffffffffffff\n      and\n        /* \"@openzeppelin/contracts/access/Ownable.sol\":1855:1862  owner() */\n      tag_270\n        /* \"@openzeppelin/contracts/access/Ownable.sol\":1855:1860  owner */\n      tag_91\n        /* \"@openzeppelin/contracts/access/Ownable.sol\":1855:1862  owner() */\n      jump\t// in\n    tag_270:\n        /* \"@openzeppelin/contracts/access/Ownable.sol\":1855:1878  owner() != _msgSender() */\n      0xffffffffffffffffffffffffffffffffffffffff\n      and\n      eq\n        /* \"@openzeppelin/contracts/access/Ownable.sol\":1851:1952  if (owner() != _msgSender()) {... */\n      tag_271\n      jumpi\n        /* \"@openzeppelin/contracts/access/Ownable.sol\":1928:1940  _msgSender() */\n      tag_272\n        /* \"@openzeppelin/contracts/access/Ownable.sol\":1928:1938  _msgSender */\n      tag_269\n        /* \"@openzeppelin/contracts/access/Ownable.sol\":1928:1940  _msgSender() */\n      jump\t// in\n    tag_272:\n        /* \"@openzeppelin/contracts/access/Ownable.sol\":1901:1941  OwnableUnauthorizedAccount(_msgSender()) */\n      mload(0x40)\n      0x118cdaa700000000000000000000000000000000000000000000000000000000\n      dup2\n      mstore\n      0x04\n      add\n      tag_273\n      swap2\n      swap1\n      tag_93\n      jump\t// in\n    tag_273:\n      mload(0x40)\n      dup1\n      swap2\n      sub\n      swap1\n      revert\n        /* \"@openzeppelin/contracts/access/Ownable.sol\":1851:1952  if (owner() != _msgSender()) {... */\n    tag_271:\n        /* \"@openzeppelin/contracts/access/Ownable.sol\":1796:1958  function _checkOwner() internal view virtual {... */\n      jump\t// out\n        /* \"@openzeppelin/contracts/access/Ownable.sol\":2912:3099  function _transferOwnership(address newOwner) internal virtual {... */\n    tag_179:\n        /* \"@openzeppelin/contracts/access/Ownable.sol\":2985:3001  address oldOwner */\n      0x00\n        /* \"@openzeppelin/contracts/access/Ownable.sol\":3004:3010  _owner */\n      dup1\n      0x00\n      swap1\n      sload\n      swap1\n      0x0100\n      exp\n      swap1\n      div\n      0xffffffffffffffffffffffffffffffffffffffff\n      and\n        /* \"@openzeppelin/contracts/access/Ownable.sol\":2985:3010  address oldOwner = _owner */\n      swap1\n      pop\n        /* \"@openzeppelin/contracts/access/Ownable.sol\":3029:3037  newOwner */\n      dup2\n        /* \"@openzeppelin/contracts/access/Ownable.sol\":3020:3026  _owner */\n      0x00\n      dup1\n        /* \"@openzeppelin/contracts/access/Ownable.sol\":3020:3037  _owner = newOwner */\n      0x0100\n      exp\n      dup2\n      sload\n      dup2\n      0xffffffffffffffffffffffffffffffffffffffff\n      mul\n      not\n      and\n      swap1\n      dup4\n      0xffffffffffffffffffffffffffffffffffffffff\n      and\n      mul\n      or\n      swap1\n      sstore\n      pop\n        /* \"@openzeppelin/contracts/access/Ownable.sol\":3083:3091  newOwner */\n      dup2\n        /* \"@openzeppelin/contracts/access/Ownable.sol\":3052:3092  OwnershipTransferred(oldOwner, newOwner) */\n      0xffffffffffffffffffffffffffffffffffffffff\n      and\n        /* \"@openzeppelin/contracts/access/Ownable.sol\":3073:3081  oldOwner */\n      dup2\n        /* \"@openzeppelin/contracts/access/Ownable.sol\":3052:3092  OwnershipTransferred(oldOwner, newOwner) */\n      0xffffffffffffffffffffffffffffffffffffffff\n      and\n      0x8be0079c531659141344cd1fd0a4f28419497f9722a3daafe3b4186f6b6457e0\n      mload(0x40)\n      mload(0x40)\n      dup1\n      swap2\n      sub\n      swap1\n      log3\n        /* \"@openzeppelin/contracts/access/Ownable.sol\":2975:3099  {... */\n      pop\n        /* \"@openzeppelin/contracts/access/Ownable.sol\":2912:3099  function _transferOwnership(address newOwner) internal virtual {... */\n      pop\n      jump\t// out\n        /* \"core/Storage.sol\":3848:4663  function _createFile(... */\n    tag_191:\n        /* \"core/Storage.sol\":4042:4043  0 */\n      0x00\n        /* \"core/Storage.sol\":4035:4039  size */\n      dup5\n        /* \"core/Storage.sol\":4035:4043  size > 0 */\n      gt\n        /* \"core/Storage.sol\":4035:4068  size > 0 && size <= MAX_FILE_SIZE */\n      dup1\n      iszero\n      tag_276\n      jumpi\n      pop\n        /* \"core/Storage.sol\":375:393  1024 * 1024 * 1024 */\n      0x40000000\n        /* \"core/Storage.sol\":4047:4051  size */\n      dup5\n        /* \"core/Storage.sol\":4047:4068  size <= MAX_FILE_SIZE */\n      gt\n      iszero\n        /* \"core/Storage.sol\":4035:4068  size > 0 && size <= MAX_FILE_SIZE */\n    tag_276:\n        /* \"core/Storage.sol\":4027:4090  require(size > 0 && size <= MAX_FILE_SIZE, \"Invalid file size\") */\n      tag_277\n      jumpi\n      mload(0x40)\n      0x08c379a000000000000000000000000000000000000000000000000000000000\n      dup2\n      mstore\n      0x04\n      add\n      tag_278\n      swap1\n      tag_279\n      jump\t// in\n    tag_278:\n      mload(0x40)\n      dup1\n      swap2\n      sub\n      swap1\n      revert\n    tag_277:\n        /* \"core/Storage.sol\":4121:4122  0 */\n      0x00\n        /* \"core/Storage.sol\":4108:4118  chunkCount */\n      dup4\n        /* \"core/Storage.sol\":4108:4122  chunkCount > 0 */\n      gt\n        /* \"core/Storage.sol\":4100:4146  require(chunkCount > 0, \"Invalid chunk count\") */\n      tag_280\n      jumpi\n      mload(0x40)\n      0x08c379a000000000000000000000000000000000000000000000000000000000\n      dup2\n      mstore\n      0x04\n      add\n      tag_281\n      swap1\n      tag_282\n      jump\t// in\n    tag_281:\n      mload(0x40)\n      dup1\n      swap2\n      sub\n      swap1\n      revert\n    tag_280:\n        /* \"core/Storage.sol\":4165:4185  fileExists(fileHash) */\n      tag_283\n        /* \"core/Storage.sol\":4176:4184  fileHash */\n      dup6\n        /* \"core/Storage.sol\":4165:4175  fileExists */\n      tag_36\n        /* \"core/Storage.sol\":4165:4185  fileExists(fileHash) */\n      jump\t// in\n    tag_283:\n        /* \"core/Storage.sol\":4164:4185  !fileExists(fileHash) */\n      iszero\n        /* \"core/Storage.sol\":4156:4209  require(!fileExists(fileHash), \"File already exists\") */\n      tag_284\n      jumpi\n      mload(0x40)\n      0x08c379a000000000000000000000000000000000000000000000000000000000\n      dup2\n      mstore\n      0x04\n      add\n      tag_285\n      swap1\n      tag_286\n      jump\t// in\n    tag_285:\n      mload(0x40)\n      dup1\n      swap2\n      sub\n      swap1\n      revert\n    tag_284:\n        /* \"core/Storage.sol\":4238:4527  FileMetadata({... */\n      mload(0x40)\n      dup1\n      0x0100\n      add\n      0x40\n      mstore\n      dup1\n        /* \"core/Storage.sol\":4275:4283  fileHash */\n      dup7\n        /* \"core/Storage.sol\":4238:4527  FileMetadata({... */\n      dup2\n      mstore\n      0x20\n      add\n        /* \"core/Storage.sol\":4304:4314  msg.sender */\n      caller\n        /* \"core/Storage.sol\":4238:4527  FileMetadata({... */\n      0xffffffffffffffffffffffffffffffffffffffff\n      and\n      dup2\n      mstore\n      0x20\n      add\n        /* \"core/Storage.sol\":4334:4338  size */\n      dup6\n        /* \"core/Storage.sol\":4238:4527  FileMetadata({... */\n      dup2\n      mstore\n      0x20\n      add\n        /* \"core/Storage.sol\":4361:4376  block.timestamp */\n      timestamp\n        /* \"core/Storage.sol\":4238:4527  FileMetadata({... */\n      dup2\n      mstore\n      0x20\n      add\n        /* \"core/Storage.sol\":4403:4412  encrypted */\n      dup4\n        /* \"core/Storage.sol\":4238:4527  FileMetadata({... */\n      iszero\n      iszero\n      dup2\n      mstore\n      0x20\n      add\n        /* \"core/Storage.sol\":4443:4458  encryptionProof */\n      dup3\n        /* \"core/Storage.sol\":4238:4527  FileMetadata({... */\n      dup2\n      mstore\n      0x20\n      add\n        /* \"core/Storage.sol\":4480:4490  chunkCount */\n      dup5\n        /* \"core/Storage.sol\":4238:4527  FileMetadata({... */\n      dup2\n      mstore\n      0x20\n      add\n        /* \"core/Storage.sol\":4512:4516  true */\n      0x01\n        /* \"core/Storage.sol\":4238:4527  FileMetadata({... */\n      iszero\n      iszero\n      dup2\n      mstore\n      pop\n        /* \"core/Storage.sol\":4220:4225  files */\n      0x02\n        /* \"core/Storage.sol\":4220:4235  files[fileHash] */\n      0x00\n        /* \"core/Storage.sol\":4226:4234  fileHash */\n      dup8\n        /* \"core/Storage.sol\":4220:4235  files[fileHash] */\n      dup2\n      mstore\n      0x20\n      add\n      swap1\n      dup2\n      mstore\n      0x20\n      add\n      0x00\n      keccak256\n        /* \"core/Storage.sol\":4220:4527  files[fileHash] = FileMetadata({... */\n      0x00\n      dup3\n      add\n      mload\n      dup2\n      0x00\n      add\n      sstore\n      0x20\n      dup3\n      add\n      mload\n      dup2\n      0x01\n      add\n      exp(0x0100, 0x00)\n      dup2\n      sload\n      dup2\n      0xffffffffffffffffffffffffffffffffffffffff\n      mul\n      not\n      and\n      swap1\n      dup4\n      0xffffffffffffffffffffffffffffffffffffffff\n      and\n      mul\n      or\n      swap1\n      sstore\n      pop\n      0x40\n      dup3\n      add\n      mload\n      dup2\n      0x02\n      add\n      sstore\n      0x60\n      dup3\n      add\n      mload\n      dup2\n      0x03\n      add\n      sstore\n      0x80\n      dup3\n      add\n      mload\n      dup2\n      0x04\n      add\n      exp(0x0100, 0x00)\n      dup2\n      sload\n      dup2\n      0xff\n      mul\n      not\n      and\n      swap1\n      dup4\n      iszero\n      iszero\n      mul\n      or\n      swap1\n      sstore\n      pop\n      0xa0\n      dup3\n      add\n      mload\n      dup2\n      0x05\n      add\n      sstore\n      0xc0\n      dup3\n      add\n      mload\n      dup2\n      0x06\n      add\n      sstore\n      0xe0\n      dup3\n      add\n      mload\n      dup2\n      0x07\n      add\n      exp(0x0100, 0x00)\n      dup2\n      sload\n      dup2\n      0xff\n      mul\n      not\n      and\n      swap1\n      dup4\n      iszero\n      iszero\n      mul\n      or\n      swap1\n      sstore\n      pop\n      swap1\n      pop\n      pop\n        /* \"core/Storage.sol\":4576:4580  true */\n      0x01\n        /* \"core/Storage.sol\":4538:4551  accessControl */\n      0x04\n        /* \"core/Storage.sol\":4538:4561  accessControl[fileHash] */\n      0x00\n        /* \"core/Storage.sol\":4552:4560  fileHash */\n      dup8\n        /* \"core/Storage.sol\":4538:4561  accessControl[fileHash] */\n      dup2\n      mstore\n      0x20\n      add\n      swap1\n      dup2\n      mstore\n      0x20\n      add\n      0x00\n      keccak256\n        /* \"core/Storage.sol\":4538:4573  accessControl[fileHash][msg.sender] */\n      0x00\n        /* \"core/Storage.sol\":4562:4572  msg.sender */\n      caller\n        /* \"core/Storage.sol\":4538:4573  accessControl[fileHash][msg.sender] */\n      0xffffffffffffffffffffffffffffffffffffffff\n      and\n      0xffffffffffffffffffffffffffffffffffffffff\n      and\n      dup2\n      mstore\n      0x20\n      add\n      swap1\n      dup2\n      mstore\n      0x20\n      add\n      0x00\n      keccak256\n      0x00\n        /* \"core/Storage.sol\":4538:4580  accessControl[fileHash][msg.sender] = true */\n      0x0100\n      exp\n      dup2\n      sload\n      dup2\n      0xff\n      mul\n      not\n      and\n      swap1\n      dup4\n      iszero\n      iszero\n      mul\n      or\n      swap1\n      sstore\n      pop\n        /* \"core/Storage.sol\":4616:4626  msg.sender */\n      caller\n        /* \"core/Storage.sol\":4595:4656  FileStored(fileHash, msg.sender, size, chunkCount, encrypted) */\n      0xffffffffffffffffffffffffffffffffffffffff\n      and\n        /* \"core/Storage.sol\":4606:4614  fileHash */\n      dup6\n        /* \"core/Storage.sol\":4595:4656  FileStored(fileHash, msg.sender, size, chunkCount, encrypted) */\n      0xced668f5fd2030036609937f5e7254bf8e9fe5dc7ae3e9efb3b53d5fd1081e5e\n        /* \"core/Storage.sol\":4628:4632  size */\n      dup7\n        /* \"core/Storage.sol\":4634:4644  chunkCount */\n      dup7\n        /* \"core/Storage.sol\":4646:4655  encrypted */\n      dup7\n        /* \"core/Storage.sol\":4595:4656  FileStored(fileHash, msg.sender, size, chunkCount, encrypted) */\n      mload(0x40)\n      tag_287\n      swap4\n      swap3\n      swap2\n      swap1\n      tag_288\n      jump\t// in\n    tag_287:\n      mload(0x40)\n      dup1\n      swap2\n      sub\n      swap1\n      log3\n        /* \"core/Storage.sol\":3848:4663  function _createFile(... */\n      pop\n      pop\n      pop\n      pop\n      pop\n      jump\t// out\n        /* \"@openzeppelin/contracts/utils/Context.sol\":656:752  function _msgSender() internal view virtual returns (address) {... */\n    tag_269:\n        /* \"@openzeppelin/contracts/utils/Context.sol\":709:716  address */\n      0x00\n        /* \"@openzeppelin/contracts/utils/Context.sol\":735:745  msg.sender */\n      caller\n        /* \"@openzeppelin/contracts/utils/Context.sol\":728:745  return msg.sender */\n      swap1\n      pop\n        /* \"@openzeppelin/contracts/utils/Context.sol\":656:752  function _msgSender() internal view virtual returns (address) {... */\n      swap1\n      jump\t// out\n    tag_145:\n      mload(0x40)\n      dup1\n      0x80\n      add\n      0x40\n      mstore\n      dup1\n      0x00\n      dup2\n      mstore\n      0x20\n      add\n      0x00\n      dup2\n      mstore\n      0x20\n      add\n      0x00\n      dup1\n      not\n      and\n      dup2\n      mstore\n      0x20\n      add\n      0x00\n      dup1\n      not\n      and\n      dup2\n      mstore\n      pop\n      swap1\n      jump\t// out\n    tag_165:\n      mload(0x40)\n      dup1\n      0x0100\n      add\n      0x40\n      mstore\n      dup1\n      0x00\n      dup1\n      not\n      and\n      dup2\n      mstore\n      0x20\n      add\n      and(0xffffffffffffffffffffffffffffffffffffffff, 0x00)\n      dup2\n      mstore\n      0x20\n      add\n      0x00\n      dup2\n      mstore\n      0x20\n      add\n      0x00\n      dup2\n      mstore\n      0x20\n      add\n      iszero(iszero(0x00))\n      dup2\n      mstore\n      0x20\n      add\n      0x00\n      dup1\n      not\n      and\n      dup2\n      mstore\n      0x20\n      add\n      0x00\n      dup2\n      mstore\n      0x20\n      add\n      iszero(iszero(0x00))\n      dup2\n      mstore\n      pop\n      swap1\n      jump\t// out\n        /* \"#utility.yul\":88:205   */\n    tag_291:\n        /* \"#utility.yul\":197:198   */\n      0x00\n        /* \"#utility.yul\":194:195   */\n      dup1\n        /* \"#utility.yul\":187:199   */\n      revert\n        /* \"#utility.yul\":211:328   */\n    tag_292:\n        /* \"#utility.yul\":320:321   */\n      0x00\n        /* \"#utility.yul\":317:318   */\n      dup1\n        /* \"#utility.yul\":310:322   */\n      revert\n        /* \"#utility.yul\":334:411   */\n    tag_293:\n        /* \"#utility.yul\":371:378   */\n      0x00\n        /* \"#utility.yul\":400:405   */\n      dup2\n        /* \"#utility.yul\":389:405   */\n      swap1\n      pop\n        /* \"#utility.yul\":334:411   */\n      swap2\n      swap1\n      pop\n      jump\t// out\n        /* \"#utility.yul\":417:539   */\n    tag_294:\n        /* \"#utility.yul\":490:514   */\n      tag_356\n        /* \"#utility.yul\":508:513   */\n      dup2\n        /* \"#utility.yul\":490:514   */\n      tag_293\n      jump\t// in\n    tag_356:\n        /* \"#utility.yul\":483:488   */\n      dup2\n        /* \"#utility.yul\":480:515   */\n      eq\n        /* \"#utility.yul\":470:533   */\n      tag_357\n      jumpi\n        /* \"#utility.yul\":529:530   */\n      0x00\n        /* \"#utility.yul\":526:527   */\n      dup1\n        /* \"#utility.yul\":519:531   */\n      revert\n        /* \"#utility.yul\":470:533   */\n    tag_357:\n        /* \"#utility.yul\":417:539   */\n      pop\n      jump\t// out\n        /* \"#utility.yul\":545:684   */\n    tag_295:\n        /* \"#utility.yul\":591:596   */\n      0x00\n        /* \"#utility.yul\":629:635   */\n      dup2\n        /* \"#utility.yul\":616:636   */\n      calldataload\n        /* \"#utility.yul\":607:636   */\n      swap1\n      pop\n        /* \"#utility.yul\":645:678   */\n      tag_359\n        /* \"#utility.yul\":672:677   */\n      dup2\n        /* \"#utility.yul\":645:678   */\n      tag_294\n      jump\t// in\n    tag_359:\n        /* \"#utility.yul\":545:684   */\n      swap3\n      swap2\n      pop\n      pop\n      jump\t// out\n        /* \"#utility.yul\":690:1019   */\n    tag_32:\n        /* \"#utility.yul\":749:755   */\n      0x00\n        /* \"#utility.yul\":798:800   */\n      0x20\n        /* \"#utility.yul\":786:795   */\n      dup3\n        /* \"#utility.yul\":777:784   */\n      dup5\n        /* \"#utility.yul\":773:796   */\n      sub\n        /* \"#utility.yul\":769:801   */\n      slt\n        /* \"#utility.yul\":766:885   */\n      iszero\n      tag_361\n      jumpi\n        /* \"#utility.yul\":804:883   */\n      tag_362\n      tag_291\n      jump\t// in\n    tag_362:\n        /* \"#utility.yul\":766:885   */\n    tag_361:\n        /* \"#utility.yul\":924:925   */\n      0x00\n        /* \"#utility.yul\":949:1002   */\n      tag_363\n        /* \"#utility.yul\":994:1001   */\n      dup5\n        /* \"#utility.yul\":985:991   */\n      dup3\n        /* \"#utility.yul\":974:983   */\n      dup6\n        /* \"#utility.yul\":970:992   */\n      add\n        /* \"#utility.yul\":949:1002   */\n      tag_295\n      jump\t// in\n    tag_363:\n        /* \"#utility.yul\":939:1002   */\n      swap2\n      pop\n        /* \"#utility.yul\":895:1012   */\n      pop\n        /* \"#utility.yul\":690:1019   */\n      swap3\n      swap2\n      pop\n      pop\n      jump\t// out\n        /* \"#utility.yul\":1025:1115   */\n    tag_296:\n        /* \"#utility.yul\":1059:1066   */\n      0x00\n        /* \"#utility.yul\":1102:1107   */\n      dup2\n        /* \"#utility.yul\":1095:1108   */\n      iszero\n        /* \"#utility.yul\":1088:1109   */\n      iszero\n        /* \"#utility.yul\":1077:1109   */\n      swap1\n      pop\n        /* \"#utility.yul\":1025:1115   */\n      swap2\n      swap1\n      pop\n      jump\t// out\n        /* \"#utility.yul\":1121:1230   */\n    tag_297:\n        /* \"#utility.yul\":1202:1223   */\n      tag_366\n        /* \"#utility.yul\":1217:1222   */\n      dup2\n        /* \"#utility.yul\":1202:1223   */\n      tag_296\n      jump\t// in\n    tag_366:\n        /* \"#utility.yul\":1197:1200   */\n      dup3\n        /* \"#utility.yul\":1190:1224   */\n      mstore\n        /* \"#utility.yul\":1121:1230   */\n      pop\n      pop\n      jump\t// out\n        /* \"#utility.yul\":1236:1446   */\n    tag_38:\n        /* \"#utility.yul\":1323:1327   */\n      0x00\n        /* \"#utility.yul\":1361:1363   */\n      0x20\n        /* \"#utility.yul\":1350:1359   */\n      dup3\n        /* \"#utility.yul\":1346:1364   */\n      add\n        /* \"#utility.yul\":1338:1364   */\n      swap1\n      pop\n        /* \"#utility.yul\":1374:1439   */\n      tag_368\n        /* \"#utility.yul\":1436:1437   */\n      0x00\n        /* \"#utility.yul\":1425:1434   */\n      dup4\n        /* \"#utility.yul\":1421:1438   */\n      add\n        /* \"#utility.yul\":1412:1418   */\n      dup5\n        /* \"#utility.yul\":1374:1439   */\n      tag_297\n      jump\t// in\n    tag_368:\n        /* \"#utility.yul\":1236:1446   */\n      swap3\n      swap2\n      pop\n      pop\n      jump\t// out\n        /* \"#utility.yul\":1452:1529   */\n    tag_298:\n        /* \"#utility.yul\":1489:1496   */\n      0x00\n        /* \"#utility.yul\":1518:1523   */\n      dup2\n        /* \"#utility.yul\":1507:1523   */\n      swap1\n      pop\n        /* \"#utility.yul\":1452:1529   */\n      swap2\n      swap1\n      pop\n      jump\t// out\n        /* \"#utility.yul\":1535:1657   */\n    tag_299:\n        /* \"#utility.yul\":1608:1632   */\n      tag_371\n        /* \"#utility.yul\":1626:1631   */\n      dup2\n        /* \"#utility.yul\":1608:1632   */\n      tag_298\n      jump\t// in\n    tag_371:\n        /* \"#utility.yul\":1601:1606   */\n      dup2\n        /* \"#utility.yul\":1598:1633   */\n      eq\n        /* \"#utility.yul\":1588:1651   */\n      tag_372\n      jumpi\n        /* \"#utility.yul\":1647:1648   */\n      0x00\n        /* \"#utility.yul\":1644:1645   */\n      dup1\n        /* \"#utility.yul\":1637:1649   */\n      revert\n        /* \"#utility.yul\":1588:1651   */\n    tag_372:\n        /* \"#utility.yul\":1535:1657   */\n      pop\n      jump\t// out\n        /* \"#utility.yul\":1663:1802   */\n    tag_300:\n        /* \"#utility.yul\":1709:1714   */\n      0x00\n        /* \"#utility.yul\":1747:1753   */\n      dup2\n        /* \"#utility.yul\":1734:1754   */\n      calldataload\n        /* \"#utility.yul\":1725:1754   */\n      swap1\n      pop\n        /* \"#utility.yul\":1763:1796   */\n      tag_374\n        /* \"#utility.yul\":1790:1795   */\n      dup2\n        /* \"#utility.yul\":1763:1796   */\n      tag_299\n      jump\t// in\n    tag_374:\n        /* \"#utility.yul\":1663:1802   */\n      swap3\n      swap2\n      pop\n      pop\n      jump\t// out\n        /* \"#utility.yul\":1808:2282   */\n    tag_41:\n        /* \"#utility.yul\":1876:1882   */\n      0x00\n        /* \"#utility.yul\":1884:1890   */\n      dup1\n        /* \"#utility.yul\":1933:1935   */\n      0x40\n        /* \"#utility.yul\":1921:1930   */\n      dup4\n        /* \"#utility.yul\":1912:1919   */\n      dup6\n        /* \"#utility.yul\":1908:1931   */\n      sub\n        /* \"#utility.yul\":1904:1936   */\n      slt\n        /* \"#utility.yul\":1901:2020   */\n      iszero\n      tag_376\n      jumpi\n        /* \"#utility.yul\":1939:2018   */\n      tag_377\n      tag_291\n      jump\t// in\n    tag_377:\n        /* \"#utility.yul\":1901:2020   */\n    tag_376:\n        /* \"#utility.yul\":2059:2060   */\n      0x00\n        /* \"#utility.yul\":2084:2137   */\n      tag_378\n        /* \"#utility.yul\":2129:2136   */\n      dup6\n        /* \"#utility.yul\":2120:2126   */\n      dup3\n        /* \"#utility.yul\":2109:2118   */\n      dup7\n        /* \"#utility.yul\":2105:2127   */\n      add\n        /* \"#utility.yul\":2084:2137   */\n      tag_295\n      jump\t// in\n    tag_378:\n        /* \"#utility.yul\":2074:2137   */\n      swap3\n      pop\n        /* \"#utility.yul\":2030:2147   */\n      pop\n        /* \"#utility.yul\":2186:2188   */\n      0x20\n        /* \"#utility.yul\":2212:2265   */\n      tag_379\n        /* \"#utility.yul\":2257:2264   */\n      dup6\n        /* \"#utility.yul\":2248:2254   */\n      dup3\n        /* \"#utility.yul\":2237:2246   */\n      dup7\n        /* \"#utility.yul\":2233:2255   */\n      add\n        /* \"#utility.yul\":2212:2265   */\n      tag_300\n      jump\t// in\n    tag_379:\n        /* \"#utility.yul\":2202:2265   */\n      swap2\n      pop\n        /* \"#utility.yul\":2157:2275   */\n      pop\n        /* \"#utility.yul\":1808:2282   */\n      swap3\n      pop\n      swap3\n      swap1\n      pop\n      jump\t// out\n        /* \"#utility.yul\":2288:2396   */\n    tag_301:\n        /* \"#utility.yul\":2365:2389   */\n      tag_381\n        /* \"#utility.yul\":2383:2388   */\n      dup2\n        /* \"#utility.yul\":2365:2389   */\n      tag_298\n      jump\t// in\n    tag_381:\n        /* \"#utility.yul\":2360:2363   */\n      dup3\n        /* \"#utility.yul\":2353:2390   */\n      mstore\n        /* \"#utility.yul\":2288:2396   */\n      pop\n      pop\n      jump\t// out\n        /* \"#utility.yul\":2402:2510   */\n    tag_302:\n        /* \"#utility.yul\":2479:2503   */\n      tag_383\n        /* \"#utility.yul\":2497:2502   */\n      dup2\n        /* \"#utility.yul\":2479:2503   */\n      tag_293\n      jump\t// in\n    tag_383:\n        /* \"#utility.yul\":2474:2477   */\n      dup3\n        /* \"#utility.yul\":2467:2504   */\n      mstore\n        /* \"#utility.yul\":2402:2510   */\n      pop\n      pop\n      jump\t// out\n        /* \"#utility.yul\":2578:3439   */\n    tag_303:\n        /* \"#utility.yul\":2729:2733   */\n      0x80\n        /* \"#utility.yul\":2724:2727   */\n      dup3\n        /* \"#utility.yul\":2720:2734   */\n      add\n        /* \"#utility.yul\":2817:2821   */\n      0x00\n        /* \"#utility.yul\":2810:2815   */\n      dup3\n        /* \"#utility.yul\":2806:2822   */\n      add\n        /* \"#utility.yul\":2800:2823   */\n      mload\n        /* \"#utility.yul\":2836:2899   */\n      tag_385\n        /* \"#utility.yul\":2893:2897   */\n      0x00\n        /* \"#utility.yul\":2888:2891   */\n      dup6\n        /* \"#utility.yul\":2884:2898   */\n      add\n        /* \"#utility.yul\":2870:2882   */\n      dup3\n        /* \"#utility.yul\":2836:2899   */\n      tag_301\n      jump\t// in\n    tag_385:\n        /* \"#utility.yul\":2744:2909   */\n      pop\n        /* \"#utility.yul\":2991:2995   */\n      0x20\n        /* \"#utility.yul\":2984:2989   */\n      dup3\n        /* \"#utility.yul\":2980:2996   */\n      add\n        /* \"#utility.yul\":2974:2997   */\n      mload\n        /* \"#utility.yul\":3010:3073   */\n      tag_386\n        /* \"#utility.yul\":3067:3071   */\n      0x20\n        /* \"#utility.yul\":3062:3065   */\n      dup6\n        /* \"#utility.yul\":3058:3072   */\n      add\n        /* \"#utility.yul\":3044:3056   */\n      dup3\n        /* \"#utility.yul\":3010:3073   */\n      tag_301\n      jump\t// in\n    tag_386:\n        /* \"#utility.yul\":2919:3083   */\n      pop\n        /* \"#utility.yul\":3165:3169   */\n      0x40\n        /* \"#utility.yul\":3158:3163   */\n      dup3\n        /* \"#utility.yul\":3154:3170   */\n      add\n        /* \"#utility.yul\":3148:3171   */\n      mload\n        /* \"#utility.yul\":3184:3247   */\n      tag_387\n        /* \"#utility.yul\":3241:3245   */\n      0x40\n        /* \"#utility.yul\":3236:3239   */\n      dup6\n        /* \"#utility.yul\":3232:3246   */\n      add\n        /* \"#utility.yul\":3218:3230   */\n      dup3\n        /* \"#utility.yul\":3184:3247   */\n      tag_302\n      jump\t// in\n    tag_387:\n        /* \"#utility.yul\":3093:3257   */\n      pop\n        /* \"#utility.yul\":3340:3344   */\n      0x60\n        /* \"#utility.yul\":3333:3338   */\n      dup3\n        /* \"#utility.yul\":3329:3345   */\n      add\n        /* \"#utility.yul\":3323:3346   */\n      mload\n        /* \"#utility.yul\":3359:3422   */\n      tag_388\n        /* \"#utility.yul\":3416:3420   */\n      0x60\n        /* \"#utility.yul\":3411:3414   */\n      dup6\n        /* \"#utility.yul\":3407:3421   */\n      add\n        /* \"#utility.yul\":3393:3405   */\n      dup3\n        /* \"#utility.yul\":3359:3422   */\n      tag_302\n      jump\t// in\n    tag_388:\n        /* \"#utility.yul\":3267:3432   */\n      pop\n        /* \"#utility.yul\":2698:3439   */\n      pop\n        /* \"#utility.yul\":2578:3439   */\n      pop\n      pop\n      jump\t// out\n        /* \"#utility.yul\":3445:3776   */\n    tag_44:\n        /* \"#utility.yul\":3592:3596   */\n      0x00\n        /* \"#utility.yul\":3630:3633   */\n      0x80\n        /* \"#utility.yul\":3619:3628   */\n      dup3\n        /* \"#utility.yul\":3615:3634   */\n      add\n        /* \"#utility.yul\":3607:3634   */\n      swap1\n      pop\n        /* \"#utility.yul\":3644:3769   */\n      tag_390\n        /* \"#utility.yul\":3766:3767   */\n      0x00\n        /* \"#utility.yul\":3755:3764   */\n      dup4\n        /* \"#utility.yul\":3751:3768   */\n      add\n        /* \"#utility.yul\":3742:3748   */\n      dup5\n        /* \"#utility.yul\":3644:3769   */\n      tag_303\n      jump\t// in\n    tag_390:\n        /* \"#utility.yul\":3445:3776   */\n      swap3\n      swap2\n      pop\n      pop\n      jump\t// out\n        /* \"#utility.yul\":3782:3900   */\n    tag_304:\n        /* \"#utility.yul\":3869:3893   */\n      tag_392\n        /* \"#utility.yul\":3887:3892   */\n      dup2\n        /* \"#utility.yul\":3869:3893   */\n      tag_298\n      jump\t// in\n    tag_392:\n        /* \"#utility.yul\":3864:3867   */\n      dup3\n        /* \"#utility.yul\":3857:3894   */\n      mstore\n        /* \"#utility.yul\":3782:3900   */\n      pop\n      pop\n      jump\t// out\n        /* \"#utility.yul\":3906:4128   */\n    tag_48:\n        /* \"#utility.yul\":3999:4003   */\n      0x00\n        /* \"#utility.yul\":4037:4039   */\n      0x20\n        /* \"#utility.yul\":4026:4035   */\n      dup3\n        /* \"#utility.yul\":4022:4040   */\n      add\n        /* \"#utility.yul\":4014:4040   */\n      swap1\n      pop\n        /* \"#utility.yul\":4050:4121   */\n      tag_394\n        /* \"#utility.yul\":4118:4119   */\n      0x00\n        /* \"#utility.yul\":4107:4116   */\n      dup4\n        /* \"#utility.yul\":4103:4120   */\n      add\n        /* \"#utility.yul\":4094:4100   */\n      dup5\n        /* \"#utility.yul\":4050:4121   */\n      tag_304\n      jump\t// in\n    tag_394:\n        /* \"#utility.yul\":3906:4128   */\n      swap3\n      swap2\n      pop\n      pop\n      jump\t// out\n        /* \"#utility.yul\":4134:4608   */\n    tag_51:\n        /* \"#utility.yul\":4202:4208   */\n      0x00\n        /* \"#utility.yul\":4210:4216   */\n      dup1\n        /* \"#utility.yul\":4259:4261   */\n      0x40\n        /* \"#utility.yul\":4247:4256   */\n      dup4\n        /* \"#utility.yul\":4238:4245   */\n      dup6\n        /* \"#utility.yul\":4234:4257   */\n      sub\n        /* \"#utility.yul\":4230:4262   */\n      slt\n        /* \"#utility.yul\":4227:4346   */\n      iszero\n      tag_396\n      jumpi\n        /* \"#utility.yul\":4265:4344   */\n      tag_397\n      tag_291\n      jump\t// in\n    tag_397:\n        /* \"#utility.yul\":4227:4346   */\n    tag_396:\n        /* \"#utility.yul\":4385:4386   */\n      0x00\n        /* \"#utility.yul\":4410:4463   */\n      tag_398\n        /* \"#utility.yul\":4455:4462   */\n      dup6\n        /* \"#utility.yul\":4446:4452   */\n      dup3\n        /* \"#utility.yul\":4435:4444   */\n      dup7\n        /* \"#utility.yul\":4431:4453   */\n      add\n        /* \"#utility.yul\":4410:4463   */\n      tag_295\n      jump\t// in\n    tag_398:\n        /* \"#utility.yul\":4400:4463   */\n      swap3\n      pop\n        /* \"#utility.yul\":4356:4473   */\n      pop\n        /* \"#utility.yul\":4512:4514   */\n      0x20\n        /* \"#utility.yul\":4538:4591   */\n      tag_399\n        /* \"#utility.yul\":4583:4590   */\n      dup6\n        /* \"#utility.yul\":4574:4580   */\n      dup3\n        /* \"#utility.yul\":4563:4572   */\n      dup7\n        /* \"#utility.yul\":4559:4581   */\n      add\n        /* \"#utility.yul\":4538:4591   */\n      tag_295\n      jump\t// in\n    tag_399:\n        /* \"#utility.yul\":4528:4591   */\n      swap2\n      pop\n        /* \"#utility.yul\":4483:4601   */\n      pop\n        /* \"#utility.yul\":4134:4608   */\n      swap3\n      pop\n      swap3\n      swap1\n      pop\n      jump\t// out\n        /* \"#utility.yul\":4614:4731   */\n    tag_305:\n        /* \"#utility.yul\":4723:4724   */\n      0x00\n        /* \"#utility.yul\":4720:4721   */\n      dup1\n        /* \"#utility.yul\":4713:4725   */\n      revert\n        /* \"#utility.yul\":4737:4854   */\n    tag_306:\n        /* \"#utility.yul\":4846:4847   */\n      0x00\n        /* \"#utility.yul\":4843:4844   */\n      dup1\n        /* \"#utility.yul\":4836:4848   */\n      revert\n        /* \"#utility.yul\":4860:4977   */\n    tag_307:\n        /* \"#utility.yul\":4969:4970   */\n      0x00\n        /* \"#utility.yul\":4966:4967   */\n      dup1\n        /* \"#utility.yul\":4959:4971   */\n      revert\n        /* \"#utility.yul\":4996:5548   */\n    tag_308:\n        /* \"#utility.yul\":5053:5061   */\n      0x00\n        /* \"#utility.yul\":5063:5069   */\n      dup1\n        /* \"#utility.yul\":5113:5116   */\n      dup4\n        /* \"#utility.yul\":5106:5110   */\n      0x1f\n        /* \"#utility.yul\":5098:5104   */\n      dup5\n        /* \"#utility.yul\":5094:5111   */\n      add\n        /* \"#utility.yul\":5090:5117   */\n      slt\n        /* \"#utility.yul\":5080:5202   */\n      tag_404\n      jumpi\n        /* \"#utility.yul\":5121:5200   */\n      tag_405\n      tag_305\n      jump\t// in\n    tag_405:\n        /* \"#utility.yul\":5080:5202   */\n    tag_404:\n        /* \"#utility.yul\":5234:5240   */\n      dup3\n        /* \"#utility.yul\":5221:5241   */\n      calldataload\n        /* \"#utility.yul\":5211:5241   */\n      swap1\n      pop\n        /* \"#utility.yul\":5264:5282   */\n      0xffffffffffffffff\n        /* \"#utility.yul\":5256:5262   */\n      dup2\n        /* \"#utility.yul\":5253:5283   */\n      gt\n        /* \"#utility.yul\":5250:5367   */\n      iszero\n      tag_406\n      jumpi\n        /* \"#utility.yul\":5286:5365   */\n      tag_407\n      tag_306\n      jump\t// in\n    tag_407:\n        /* \"#utility.yul\":5250:5367   */\n    tag_406:\n        /* \"#utility.yul\":5400:5404   */\n      0x20\n        /* \"#utility.yul\":5392:5398   */\n      dup4\n        /* \"#utility.yul\":5388:5405   */\n      add\n        /* \"#utility.yul\":5376:5405   */\n      swap2\n      pop\n        /* \"#utility.yul\":5454:5457   */\n      dup4\n        /* \"#utility.yul\":5446:5450   */\n      0x01\n        /* \"#utility.yul\":5438:5444   */\n      dup3\n        /* \"#utility.yul\":5434:5451   */\n      mul\n        /* \"#utility.yul\":5424:5432   */\n      dup4\n        /* \"#utility.yul\":5420:5452   */\n      add\n        /* \"#utility.yul\":5417:5458   */\n      gt\n        /* \"#utility.yul\":5414:5542   */\n      iszero\n      tag_408\n      jumpi\n        /* \"#utility.yul\":5461:5540   */\n      tag_409\n      tag_307\n      jump\t// in\n    tag_409:\n        /* \"#utility.yul\":5414:5542   */\n    tag_408:\n        /* \"#utility.yul\":4996:5548   */\n      swap3\n      pop\n      swap3\n      swap1\n      pop\n      jump\t// out\n        /* \"#utility.yul\":5554:5670   */\n    tag_309:\n        /* \"#utility.yul\":5624:5645   */\n      tag_411\n        /* \"#utility.yul\":5639:5644   */\n      dup2\n        /* \"#utility.yul\":5624:5645   */\n      tag_296\n      jump\t// in\n    tag_411:\n        /* \"#utility.yul\":5617:5622   */\n      dup2\n        /* \"#utility.yul\":5614:5646   */\n      eq\n        /* \"#utility.yul\":5604:5664   */\n      tag_412\n      jumpi\n        /* \"#utility.yul\":5660:5661   */\n      0x00\n        /* \"#utility.yul\":5657:5658   */\n      dup1\n        /* \"#utility.yul\":5650:5662   */\n      revert\n        /* \"#utility.yul\":5604:5664   */\n    tag_412:\n        /* \"#utility.yul\":5554:5670   */\n      pop\n      jump\t// out\n        /* \"#utility.yul\":5676:5809   */\n    tag_310:\n        /* \"#utility.yul\":5719:5724   */\n      0x00\n        /* \"#utility.yul\":5757:5763   */\n      dup2\n        /* \"#utility.yul\":5744:5764   */\n      calldataload\n        /* \"#utility.yul\":5735:5764   */\n      swap1\n      pop\n        /* \"#utility.yul\":5773:5803   */\n      tag_414\n        /* \"#utility.yul\":5797:5802   */\n      dup2\n        /* \"#utility.yul\":5773:5803   */\n      tag_309\n      jump\t// in\n    tag_414:\n        /* \"#utility.yul\":5676:5809   */\n      swap3\n      swap2\n      pop\n      pop\n      jump\t// out\n        /* \"#utility.yul\":5815:6772   */\n    tag_55:\n        /* \"#utility.yul\":5909:5915   */\n      0x00\n        /* \"#utility.yul\":5917:5923   */\n      dup1\n        /* \"#utility.yul\":5925:5931   */\n      0x00\n        /* \"#utility.yul\":5933:5939   */\n      dup1\n        /* \"#utility.yul\":5941:5947   */\n      0x00\n        /* \"#utility.yul\":5990:5993   */\n      0x80\n        /* \"#utility.yul\":5978:5987   */\n      dup7\n        /* \"#utility.yul\":5969:5976   */\n      dup9\n        /* \"#utility.yul\":5965:5988   */\n      sub\n        /* \"#utility.yul\":5961:5994   */\n      slt\n        /* \"#utility.yul\":5958:6078   */\n      iszero\n      tag_416\n      jumpi\n        /* \"#utility.yul\":5997:6076   */\n      tag_417\n      tag_291\n      jump\t// in\n    tag_417:\n        /* \"#utility.yul\":5958:6078   */\n    tag_416:\n        /* \"#utility.yul\":6117:6118   */\n      0x00\n        /* \"#utility.yul\":6142:6195   */\n      tag_418\n        /* \"#utility.yul\":6187:6194   */\n      dup9\n        /* \"#utility.yul\":6178:6184   */\n      dup3\n        /* \"#utility.yul\":6167:6176   */\n      dup10\n        /* \"#utility.yul\":6163:6185   */\n      add\n        /* \"#utility.yul\":6142:6195   */\n      tag_295\n      jump\t// in\n    tag_418:\n        /* \"#utility.yul\":6132:6195   */\n      swap6\n      pop\n        /* \"#utility.yul\":6088:6205   */\n      pop\n        /* \"#utility.yul\":6244:6246   */\n      0x20\n        /* \"#utility.yul\":6270:6323   */\n      tag_419\n        /* \"#utility.yul\":6315:6322   */\n      dup9\n        /* \"#utility.yul\":6306:6312   */\n      dup3\n        /* \"#utility.yul\":6295:6304   */\n      dup10\n        /* \"#utility.yul\":6291:6313   */\n      add\n        /* \"#utility.yul\":6270:6323   */\n      tag_300\n      jump\t// in\n    tag_419:\n        /* \"#utility.yul\":6260:6323   */\n      swap5\n      pop\n        /* \"#utility.yul\":6215:6333   */\n      pop\n        /* \"#utility.yul\":6400:6402   */\n      0x40\n        /* \"#utility.yul\":6389:6398   */\n      dup7\n        /* \"#utility.yul\":6385:6403   */\n      add\n        /* \"#utility.yul\":6372:6404   */\n      calldataload\n        /* \"#utility.yul\":6431:6449   */\n      0xffffffffffffffff\n        /* \"#utility.yul\":6423:6429   */\n      dup2\n        /* \"#utility.yul\":6420:6450   */\n      gt\n        /* \"#utility.yul\":6417:6534   */\n      iszero\n      tag_420\n      jumpi\n        /* \"#utility.yul\":6453:6532   */\n      tag_421\n      tag_292\n      jump\t// in\n    tag_421:\n        /* \"#utility.yul\":6417:6534   */\n    tag_420:\n        /* \"#utility.yul\":6566:6630   */\n      tag_422\n        /* \"#utility.yul\":6622:6629   */\n      dup9\n        /* \"#utility.yul\":6613:6619   */\n      dup3\n        /* \"#utility.yul\":6602:6611   */\n      dup10\n        /* \"#utility.yul\":6598:6620   */\n      add\n        /* \"#utility.yul\":6566:6630   */\n      tag_308\n      jump\t// in\n    tag_422:\n        /* \"#utility.yul\":6548:6630   */\n      swap4\n      pop\n      swap4\n      pop\n        /* \"#utility.yul\":6343:6640   */\n      pop\n        /* \"#utility.yul\":6679:6681   */\n      0x60\n        /* \"#utility.yul\":6705:6755   */\n      tag_423\n        /* \"#utility.yul\":6747:6754   */\n      dup9\n        /* \"#utility.yul\":6738:6744   */\n      dup3\n        /* \"#utility.yul\":6727:6736   */\n      dup10\n        /* \"#utility.yul\":6723:6745   */\n      add\n        /* \"#utility.yul\":6705:6755   */\n      tag_310\n      jump\t// in\n    tag_423:\n        /* \"#utility.yul\":6695:6755   */\n      swap2\n      pop\n        /* \"#utility.yul\":6650:6765   */\n      pop\n        /* \"#utility.yul\":5815:6772   */\n      swap3\n      swap6\n      pop\n      swap3\n      swap6\n      swap1\n      swap4\n      pop\n      jump\t// out\n        /* \"#utility.yul\":6778:6904   */\n    tag_311:\n        /* \"#utility.yul\":6815:6822   */\n      0x00\n        /* \"#utility.yul\":6855:6897   */\n      0xffffffffffffffffffffffffffffffffffffffff\n        /* \"#utility.yul\":6848:6853   */\n      dup3\n        /* \"#utility.yul\":6844:6898   */\n      and\n        /* \"#utility.yul\":6833:6898   */\n      swap1\n      pop\n        /* \"#utility.yul\":6778:6904   */\n      swap2\n      swap1\n      pop\n      jump\t// out\n        /* \"#utility.yul\":6910:7006   */\n    tag_312:\n        /* \"#utility.yul\":6947:6954   */\n      0x00\n        /* \"#utility.yul\":6976:7000   */\n      tag_426\n        /* \"#utility.yul\":6994:6999   */\n      dup3\n        /* \"#utility.yul\":6976:7000   */\n      tag_311\n      jump\t// in\n    tag_426:\n        /* \"#utility.yul\":6965:7000   */\n      swap1\n      pop\n        /* \"#utility.yul\":6910:7006   */\n      swap2\n      swap1\n      pop\n      jump\t// out\n        /* \"#utility.yul\":7012:7120   */\n    tag_313:\n        /* \"#utility.yul\":7089:7113   */\n      tag_428\n        /* \"#utility.yul\":7107:7112   */\n      dup2\n        /* \"#utility.yul\":7089:7113   */\n      tag_312\n      jump\t// in\n    tag_428:\n        /* \"#utility.yul\":7084:7087   */\n      dup3\n        /* \"#utility.yul\":7077:7114   */\n      mstore\n        /* \"#utility.yul\":7012:7120   */\n      pop\n      pop\n      jump\t// out\n        /* \"#utility.yul\":7126:7225   */\n    tag_314:\n        /* \"#utility.yul\":7197:7218   */\n      tag_430\n        /* \"#utility.yul\":7212:7217   */\n      dup2\n        /* \"#utility.yul\":7197:7218   */\n      tag_296\n      jump\t// in\n    tag_430:\n        /* \"#utility.yul\":7192:7195   */\n      dup3\n        /* \"#utility.yul\":7185:7219   */\n      mstore\n        /* \"#utility.yul\":7126:7225   */\n      pop\n      pop\n      jump\t// out\n        /* \"#utility.yul\":7299:8880   */\n    tag_315:\n        /* \"#utility.yul\":7456:7462   */\n      0x0100\n        /* \"#utility.yul\":7451:7454   */\n      dup3\n        /* \"#utility.yul\":7447:7463   */\n      add\n        /* \"#utility.yul\":7549:7553   */\n      0x00\n        /* \"#utility.yul\":7542:7547   */\n      dup3\n        /* \"#utility.yul\":7538:7554   */\n      add\n        /* \"#utility.yul\":7532:7555   */\n      mload\n        /* \"#utility.yul\":7568:7631   */\n      tag_432\n        /* \"#utility.yul\":7625:7629   */\n      0x00\n        /* \"#utility.yul\":7620:7623   */\n      dup6\n        /* \"#utility.yul\":7616:7630   */\n      add\n        /* \"#utility.yul\":7602:7614   */\n      dup3\n        /* \"#utility.yul\":7568:7631   */\n      tag_302\n      jump\t// in\n    tag_432:\n        /* \"#utility.yul\":7473:7641   */\n      pop\n        /* \"#utility.yul\":7724:7728   */\n      0x20\n        /* \"#utility.yul\":7717:7722   */\n      dup3\n        /* \"#utility.yul\":7713:7729   */\n      add\n        /* \"#utility.yul\":7707:7730   */\n      mload\n        /* \"#utility.yul\":7743:7806   */\n      tag_433\n        /* \"#utility.yul\":7800:7804   */\n      0x20\n        /* \"#utility.yul\":7795:7798   */\n      dup6\n        /* \"#utility.yul\":7791:7805   */\n      add\n        /* \"#utility.yul\":7777:7789   */\n      dup3\n        /* \"#utility.yul\":7743:7806   */\n      tag_313\n      jump\t// in\n    tag_433:\n        /* \"#utility.yul\":7651:7816   */\n      pop\n        /* \"#utility.yul\":7898:7902   */\n      0x40\n        /* \"#utility.yul\":7891:7896   */\n      dup3\n        /* \"#utility.yul\":7887:7903   */\n      add\n        /* \"#utility.yul\":7881:7904   */\n      mload\n        /* \"#utility.yul\":7917:7980   */\n      tag_434\n        /* \"#utility.yul\":7974:7978   */\n      0x40\n        /* \"#utility.yul\":7969:7972   */\n      dup6\n        /* \"#utility.yul\":7965:7979   */\n      add\n        /* \"#utility.yul\":7951:7963   */\n      dup3\n        /* \"#utility.yul\":7917:7980   */\n      tag_301\n      jump\t// in\n    tag_434:\n        /* \"#utility.yul\":7826:7990   */\n      pop\n        /* \"#utility.yul\":8075:8079   */\n      0x60\n        /* \"#utility.yul\":8068:8073   */\n      dup3\n        /* \"#utility.yul\":8064:8080   */\n      add\n        /* \"#utility.yul\":8058:8081   */\n      mload\n        /* \"#utility.yul\":8094:8157   */\n      tag_435\n        /* \"#utility.yul\":8151:8155   */\n      0x60\n        /* \"#utility.yul\":8146:8149   */\n      dup6\n        /* \"#utility.yul\":8142:8156   */\n      add\n        /* \"#utility.yul\":8128:8140   */\n      dup3\n        /* \"#utility.yul\":8094:8157   */\n      tag_301\n      jump\t// in\n    tag_435:\n        /* \"#utility.yul\":8000:8167   */\n      pop\n        /* \"#utility.yul\":8256:8260   */\n      0x80\n        /* \"#utility.yul\":8249:8254   */\n      dup3\n        /* \"#utility.yul\":8245:8261   */\n      add\n        /* \"#utility.yul\":8239:8262   */\n      mload\n        /* \"#utility.yul\":8275:8332   */\n      tag_436\n        /* \"#utility.yul\":8326:8330   */\n      0x80\n        /* \"#utility.yul\":8321:8324   */\n      dup6\n        /* \"#utility.yul\":8317:8331   */\n      add\n        /* \"#utility.yul\":8303:8315   */\n      dup3\n        /* \"#utility.yul\":8275:8332   */\n      tag_314\n      jump\t// in\n    tag_436:\n        /* \"#utility.yul\":8177:8342   */\n      pop\n        /* \"#utility.yul\":8435:8439   */\n      0xa0\n        /* \"#utility.yul\":8428:8433   */\n      dup3\n        /* \"#utility.yul\":8424:8440   */\n      add\n        /* \"#utility.yul\":8418:8441   */\n      mload\n        /* \"#utility.yul\":8454:8517   */\n      tag_437\n        /* \"#utility.yul\":8511:8515   */\n      0xa0\n        /* \"#utility.yul\":8506:8509   */\n      dup6\n        /* \"#utility.yul\":8502:8516   */\n      add\n        /* \"#utility.yul\":8488:8500   */\n      dup3\n        /* \"#utility.yul\":8454:8517   */\n      tag_302\n      jump\t// in\n    tag_437:\n        /* \"#utility.yul\":8352:8527   */\n      pop\n        /* \"#utility.yul\":8611:8615   */\n      0xc0\n        /* \"#utility.yul\":8604:8609   */\n      dup3\n        /* \"#utility.yul\":8600:8616   */\n      add\n        /* \"#utility.yul\":8594:8617   */\n      mload\n        /* \"#utility.yul\":8630:8693   */\n      tag_438\n        /* \"#utility.yul\":8687:8691   */\n      0xc0\n        /* \"#utility.yul\":8682:8685   */\n      dup6\n        /* \"#utility.yul\":8678:8692   */\n      add\n        /* \"#utility.yul\":8664:8676   */\n      dup3\n        /* \"#utility.yul\":8630:8693   */\n      tag_301\n      jump\t// in\n    tag_438:\n        /* \"#utility.yul\":8537:8703   */\n      pop\n        /* \"#utility.yul\":8787:8791   */\n      0xe0\n        /* \"#utility.yul\":8780:8785   */\n      dup3\n        /* \"#utility.yul\":8776:8792   */\n      add\n        /* \"#utility.yul\":8770:8793   */\n      mload\n        /* \"#utility.yul\":8806:8863   */\n      tag_439\n        /* \"#utility.yul\":8857:8861   */\n      0xe0\n        /* \"#utility.yul\":8852:8855   */\n      dup6\n        /* \"#utility.yul\":8848:8862   */\n      add\n        /* \"#utility.yul\":8834:8846   */\n      dup3\n        /* \"#utility.yul\":8806:8863   */\n      tag_314\n      jump\t// in\n    tag_439:\n        /* \"#utility.yul\":8713:8873   */\n      pop\n        /* \"#utility.yul\":7425:8880   */\n      pop\n        /* \"#utility.yul\":7299:8880   */\n      pop\n      pop\n      jump\t// out\n        /* \"#utility.yul\":8886:9229   */\n    tag_65:\n        /* \"#utility.yul\":9039:9043   */\n      0x00\n        /* \"#utility.yul\":9077:9080   */\n      0x0100\n        /* \"#utility.yul\":9066:9075   */\n      dup3\n        /* \"#utility.yul\":9062:9081   */\n      add\n        /* \"#utility.yul\":9054:9081   */\n      swap1\n      pop\n        /* \"#utility.yul\":9091:9222   */\n      tag_441\n        /* \"#utility.yul\":9219:9220   */\n      0x00\n        /* \"#utility.yul\":9208:9217   */\n      dup4\n        /* \"#utility.yul\":9204:9221   */\n      add\n        /* \"#utility.yul\":9195:9201   */\n      dup5\n        /* \"#utility.yul\":9091:9222   */\n      tag_315\n      jump\t// in\n    tag_441:\n        /* \"#utility.yul\":8886:9229   */\n      swap3\n      swap2\n      pop\n      pop\n      jump\t// out\n        /* \"#utility.yul\":9235:10052   */\n    tag_68:\n        /* \"#utility.yul\":9323:9329   */\n      0x00\n        /* \"#utility.yul\":9331:9337   */\n      dup1\n        /* \"#utility.yul\":9339:9345   */\n      0x00\n        /* \"#utility.yul\":9347:9353   */\n      dup1\n        /* \"#utility.yul\":9396:9398   */\n      0x60\n        /* \"#utility.yul\":9384:9393   */\n      dup6\n        /* \"#utility.yul\":9375:9382   */\n      dup8\n        /* \"#utility.yul\":9371:9394   */\n      sub\n        /* \"#utility.yul\":9367:9399   */\n      slt\n        /* \"#utility.yul\":9364:9483   */\n      iszero\n      tag_443\n      jumpi\n        /* \"#utility.yul\":9402:9481   */\n      tag_444\n      tag_291\n      jump\t// in\n    tag_444:\n        /* \"#utility.yul\":9364:9483   */\n    tag_443:\n        /* \"#utility.yul\":9522:9523   */\n      0x00\n        /* \"#utility.yul\":9547:9600   */\n      tag_445\n        /* \"#utility.yul\":9592:9599   */\n      dup8\n        /* \"#utility.yul\":9583:9589   */\n      dup3\n        /* \"#utility.yul\":9572:9581   */\n      dup9\n        /* \"#utility.yul\":9568:9590   */\n      add\n        /* \"#utility.yul\":9547:9600   */\n      tag_295\n      jump\t// in\n    tag_445:\n        /* \"#utility.yul\":9537:9600   */\n      swap5\n      pop\n        /* \"#utility.yul\":9493:9610   */\n      pop\n        /* \"#utility.yul\":9649:9651   */\n      0x20\n        /* \"#utility.yul\":9675:9728   */\n      tag_446\n        /* \"#utility.yul\":9720:9727   */\n      dup8\n        /* \"#utility.yul\":9711:9717   */\n      dup3\n        /* \"#utility.yul\":9700:9709   */\n      dup9\n        /* \"#utility.yul\":9696:9718   */\n      add\n        /* \"#utility.yul\":9675:9728   */\n      tag_300\n      jump\t// in\n    tag_446:\n        /* \"#utility.yul\":9665:9728   */\n      swap4\n      pop\n        /* \"#utility.yul\":9620:9738   */\n      pop\n        /* \"#utility.yul\":9805:9807   */\n      0x40\n        /* \"#utility.yul\":9794:9803   */\n      dup6\n        /* \"#utility.yul\":9790:9808   */\n      add\n        /* \"#utility.yul\":9777:9809   */\n      calldataload\n        /* \"#utility.yul\":9836:9854   */\n      0xffffffffffffffff\n        /* \"#utility.yul\":9828:9834   */\n      dup2\n        /* \"#utility.yul\":9825:9855   */\n      gt\n        /* \"#utility.yul\":9822:9939   */\n      iszero\n      tag_447\n      jumpi\n        /* \"#utility.yul\":9858:9937   */\n      tag_448\n      tag_292\n      jump\t// in\n    tag_448:\n        /* \"#utility.yul\":9822:9939   */\n    tag_447:\n        /* \"#utility.yul\":9971:10035   */\n      tag_449\n        /* \"#utility.yul\":10027:10034   */\n      dup8\n        /* \"#utility.yul\":10018:10024   */\n      dup3\n        /* \"#utility.yul\":10007:10016   */\n      dup9\n        /* \"#utility.yul\":10003:10025   */\n      add\n        /* \"#utility.yul\":9971:10035   */\n      tag_308\n      jump\t// in\n    tag_449:\n        /* \"#utility.yul\":9953:10035   */\n      swap3\n      pop\n      swap3\n      pop\n        /* \"#utility.yul\":9748:10045   */\n      pop\n        /* \"#utility.yul\":9235:10052   */\n      swap3\n      swap6\n      swap2\n      swap5\n      pop\n      swap3\n      pop\n      jump\t// out\n        /* \"#utility.yul\":10058:11021   */\n    tag_73:\n        /* \"#utility.yul\":10155:10161   */\n      0x00\n        /* \"#utility.yul\":10163:10169   */\n      dup1\n        /* \"#utility.yul\":10171:10177   */\n      0x00\n        /* \"#utility.yul\":10179:10185   */\n      dup1\n        /* \"#utility.yul\":10187:10193   */\n      0x00\n        /* \"#utility.yul\":10236:10239   */\n      0x80\n        /* \"#utility.yul\":10224:10233   */\n      dup7\n        /* \"#utility.yul\":10215:10222   */\n      dup9\n        /* \"#utility.yul\":10211:10234   */\n      sub\n        /* \"#utility.yul\":10207:10240   */\n      slt\n        /* \"#utility.yul\":10204:10324   */\n      iszero\n      tag_451\n      jumpi\n        /* \"#utility.yul\":10243:10322   */\n      tag_452\n      tag_291\n      jump\t// in\n    tag_452:\n        /* \"#utility.yul\":10204:10324   */\n    tag_451:\n        /* \"#utility.yul\":10363:10364   */\n      0x00\n        /* \"#utility.yul\":10388:10441   */\n      tag_453\n        /* \"#utility.yul\":10433:10440   */\n      dup9\n        /* \"#utility.yul\":10424:10430   */\n      dup3\n        /* \"#utility.yul\":10413:10422   */\n      dup10\n        /* \"#utility.yul\":10409:10431   */\n      add\n        /* \"#utility.yul\":10388:10441   */\n      tag_295\n      jump\t// in\n    tag_453:\n        /* \"#utility.yul\":10378:10441   */\n      swap6\n      pop\n        /* \"#utility.yul\":10334:10451   */\n      pop\n        /* \"#utility.yul\":10490:10492   */\n      0x20\n        /* \"#utility.yul\":10516:10569   */\n      tag_454\n        /* \"#utility.yul\":10561:10568   */\n      dup9\n        /* \"#utility.yul\":10552:10558   */\n      dup3\n        /* \"#utility.yul\":10541:10550   */\n      dup10\n        /* \"#utility.yul\":10537:10559   */\n      add\n        /* \"#utility.yul\":10516:10569   */\n      tag_300\n      jump\t// in\n    tag_454:\n        /* \"#utility.yul\":10506:10569   */\n      swap5\n      pop\n        /* \"#utility.yul\":10461:10579   */\n      pop\n        /* \"#utility.yul\":10646:10648   */\n      0x40\n        /* \"#utility.yul\":10635:10644   */\n      dup7\n        /* \"#utility.yul\":10631:10649   */\n      add\n        /* \"#utility.yul\":10618:10650   */\n      calldataload\n        /* \"#utility.yul\":10677:10695   */\n      0xffffffffffffffff\n        /* \"#utility.yul\":10669:10675   */\n      dup2\n        /* \"#utility.yul\":10666:10696   */\n      gt\n        /* \"#utility.yul\":10663:10780   */\n      iszero\n      tag_455\n      jumpi\n        /* \"#utility.yul\":10699:10778   */\n      tag_456\n      tag_292\n      jump\t// in\n    tag_456:\n        /* \"#utility.yul\":10663:10780   */\n    tag_455:\n        /* \"#utility.yul\":10812:10876   */\n      tag_457\n        /* \"#utility.yul\":10868:10875   */\n      dup9\n        /* \"#utility.yul\":10859:10865   */\n      dup3\n        /* \"#utility.yul\":10848:10857   */\n      dup10\n        /* \"#utility.yul\":10844:10866   */\n      add\n        /* \"#utility.yul\":10812:10876   */\n      tag_308\n      jump\t// in\n    tag_457:\n        /* \"#utility.yul\":10794:10876   */\n      swap4\n      pop\n      swap4\n      pop\n        /* \"#utility.yul\":10589:10886   */\n      pop\n        /* \"#utility.yul\":10925:10927   */\n      0x60\n        /* \"#utility.yul\":10951:11004   */\n      tag_458\n        /* \"#utility.yul\":10996:11003   */\n      dup9\n        /* \"#utility.yul\":10987:10993   */\n      dup3\n        /* \"#utility.yul\":10976:10985   */\n      dup10\n        /* \"#utility.yul\":10972:10994   */\n      add\n        /* \"#utility.yul\":10951:11004   */\n      tag_295\n      jump\t// in\n    tag_458:\n        /* \"#utility.yul\":10941:11004   */\n      swap2\n      pop\n        /* \"#utility.yul\":10896:11014   */\n      pop\n        /* \"#utility.yul\":10058:11021   */\n      swap3\n      swap6\n      pop\n      swap3\n      swap6\n      swap1\n      swap4\n      pop\n      jump\t// out\n        /* \"#utility.yul\":11027:11984   */\n    tag_79:\n        /* \"#utility.yul\":11121:11127   */\n      0x00\n        /* \"#utility.yul\":11129:11135   */\n      dup1\n        /* \"#utility.yul\":11137:11143   */\n      0x00\n        /* \"#utility.yul\":11145:11151   */\n      dup1\n        /* \"#utility.yul\":11153:11159   */\n      0x00\n        /* \"#utility.yul\":11202:11205   */\n      0x80\n        /* \"#utility.yul\":11190:11199   */\n      dup7\n        /* \"#utility.yul\":11181:11188   */\n      dup9\n        /* \"#utility.yul\":11177:11200   */\n      sub\n        /* \"#utility.yul\":11173:11206   */\n      slt\n        /* \"#utility.yul\":11170:11290   */\n      iszero\n      tag_460\n      jumpi\n        /* \"#utility.yul\":11209:11288   */\n      tag_461\n      tag_291\n      jump\t// in\n    tag_461:\n        /* \"#utility.yul\":11170:11290   */\n    tag_460:\n        /* \"#utility.yul\":11329:11330   */\n      0x00\n        /* \"#utility.yul\":11354:11407   */\n      tag_462\n        /* \"#utility.yul\":11399:11406   */\n      dup9\n        /* \"#utility.yul\":11390:11396   */\n      dup3\n        /* \"#utility.yul\":11379:11388   */\n      dup10\n        /* \"#utility.yul\":11375:11397   */\n      add\n        /* \"#utility.yul\":11354:11407   */\n      tag_295\n      jump\t// in\n    tag_462:\n        /* \"#utility.yul\":11344:11407   */\n      swap6\n      pop\n        /* \"#utility.yul\":11300:11417   */\n      pop\n        /* \"#utility.yul\":11484:11486   */\n      0x20\n        /* \"#utility.yul\":11473:11482   */\n      dup7\n        /* \"#utility.yul\":11469:11487   */\n      add\n        /* \"#utility.yul\":11456:11488   */\n      calldataload\n        /* \"#utility.yul\":11515:11533   */\n      0xffffffffffffffff\n        /* \"#utility.yul\":11507:11513   */\n      dup2\n        /* \"#utility.yul\":11504:11534   */\n      gt\n        /* \"#utility.yul\":11501:11618   */\n      iszero\n      tag_463\n      jumpi\n        /* \"#utility.yul\":11537:11616   */\n      tag_464\n      tag_292\n      jump\t// in\n    tag_464:\n        /* \"#utility.yul\":11501:11618   */\n    tag_463:\n        /* \"#utility.yul\":11650:11714   */\n      tag_465\n        /* \"#utility.yul\":11706:11713   */\n      dup9\n        /* \"#utility.yul\":11697:11703   */\n      dup3\n        /* \"#utility.yul\":11686:11695   */\n      dup10\n        /* \"#utility.yul\":11682:11704   */\n      add\n        /* \"#utility.yul\":11650:11714   */\n      tag_308\n      jump\t// in\n    tag_465:\n        /* \"#utility.yul\":11632:11714   */\n      swap5\n      pop\n      swap5\n      pop\n        /* \"#utility.yul\":11427:11724   */\n      pop\n        /* \"#utility.yul\":11763:11765   */\n      0x40\n        /* \"#utility.yul\":11789:11839   */\n      tag_466\n        /* \"#utility.yul\":11831:11838   */\n      dup9\n        /* \"#utility.yul\":11822:11828   */\n      dup3\n        /* \"#utility.yul\":11811:11820   */\n      dup10\n        /* \"#utility.yul\":11807:11829   */\n      add\n        /* \"#utility.yul\":11789:11839   */\n      tag_310\n      jump\t// in\n    tag_466:\n        /* \"#utility.yul\":11779:11839   */\n      swap3\n      pop\n        /* \"#utility.yul\":11734:11849   */\n      pop\n        /* \"#utility.yul\":11888:11890   */\n      0x60\n        /* \"#utility.yul\":11914:11967   */\n      tag_467\n        /* \"#utility.yul\":11959:11966   */\n      dup9\n        /* \"#utility.yul\":11950:11956   */\n      dup3\n        /* \"#utility.yul\":11939:11948   */\n      dup10\n        /* \"#utility.yul\":11935:11957   */\n      add\n        /* \"#utility.yul\":11914:11967   */\n      tag_295\n      jump\t// in\n    tag_467:\n        /* \"#utility.yul\":11904:11967   */\n      swap2\n      pop\n        /* \"#utility.yul\":11859:11977   */\n      pop\n        /* \"#utility.yul\":11027:11984   */\n      swap3\n      swap6\n      pop\n      swap3\n      swap6\n      swap1\n      swap4\n      pop\n      jump\t// out\n        /* \"#utility.yul\":11990:12112   */\n    tag_316:\n        /* \"#utility.yul\":12063:12087   */\n      tag_469\n        /* \"#utility.yul\":12081:12086   */\n      dup2\n        /* \"#utility.yul\":12063:12087   */\n      tag_312\n      jump\t// in\n    tag_469:\n        /* \"#utility.yul\":12056:12061   */\n      dup2\n        /* \"#utility.yul\":12053:12088   */\n      eq\n        /* \"#utility.yul\":12043:12106   */\n      tag_470\n      jumpi\n        /* \"#utility.yul\":12102:12103   */\n      0x00\n        /* \"#utility.yul\":12099:12100   */\n      dup1\n        /* \"#utility.yul\":12092:12104   */\n      revert\n        /* \"#utility.yul\":12043:12106   */\n    tag_470:\n        /* \"#utility.yul\":11990:12112   */\n      pop\n      jump\t// out\n        /* \"#utility.yul\":12118:12257   */\n    tag_317:\n        /* \"#utility.yul\":12164:12169   */\n      0x00\n        /* \"#utility.yul\":12202:12208   */\n      dup2\n        /* \"#utility.yul\":12189:12209   */\n      calldataload\n        /* \"#utility.yul\":12180:12209   */\n      swap1\n      pop\n        /* \"#utility.yul\":12218:12251   */\n      tag_472\n        /* \"#utility.yul\":12245:12250   */\n      dup2\n        /* \"#utility.yul\":12218:12251   */\n      tag_316\n      jump\t// in\n    tag_472:\n        /* \"#utility.yul\":12118:12257   */\n      swap3\n      swap2\n      pop\n      pop\n      jump\t// out\n        /* \"#utility.yul\":12263:12737   */\n    tag_83:\n        /* \"#utility.yul\":12331:12337   */\n      0x00\n        /* \"#utility.yul\":12339:12345   */\n      dup1\n        /* \"#utility.yul\":12388:12390   */\n      0x40\n        /* \"#utility.yul\":12376:12385   */\n      dup4\n        /* \"#utility.yul\":12367:12374   */\n      dup6\n        /* \"#utility.yul\":12363:12386   */\n      sub\n        /* \"#utility.yul\":12359:12391   */\n      slt\n        /* \"#utility.yul\":12356:12475   */\n      iszero\n      tag_474\n      jumpi\n        /* \"#utility.yul\":12394:12473   */\n      tag_475\n      tag_291\n      jump\t// in\n    tag_475:\n        /* \"#utility.yul\":12356:12475   */\n    tag_474:\n        /* \"#utility.yul\":12514:12515   */\n      0x00\n        /* \"#utility.yul\":12539:12592   */\n      tag_476\n        /* \"#utility.yul\":12584:12591   */\n      dup6\n        /* \"#utility.yul\":12575:12581   */\n      dup3\n        /* \"#utility.yul\":12564:12573   */\n      dup7\n        /* \"#utility.yul\":12560:12582   */\n      add\n        /* \"#utility.yul\":12539:12592   */\n      tag_295\n      jump\t// in\n    tag_476:\n        /* \"#utility.yul\":12529:12592   */\n      swap3\n      pop\n        /* \"#utility.yul\":12485:12602   */\n      pop\n        /* \"#utility.yul\":12641:12643   */\n      0x20\n        /* \"#utility.yul\":12667:12720   */\n      tag_477\n        /* \"#utility.yul\":12712:12719   */\n      dup6\n        /* \"#utility.yul\":12703:12709   */\n      dup3\n        /* \"#utility.yul\":12692:12701   */\n      dup7\n        /* \"#utility.yul\":12688:12710   */\n      add\n        /* \"#utility.yul\":12667:12720   */\n      tag_317\n      jump\t// in\n    tag_477:\n        /* \"#utility.yul\":12657:12720   */\n      swap2\n      pop\n        /* \"#utility.yul\":12612:12730   */\n      pop\n        /* \"#utility.yul\":12263:12737   */\n      swap3\n      pop\n      swap3\n      swap1\n      pop\n      jump\t// out\n        /* \"#utility.yul\":12743:12861   */\n    tag_318:\n        /* \"#utility.yul\":12830:12854   */\n      tag_479\n        /* \"#utility.yul\":12848:12853   */\n      dup2\n        /* \"#utility.yul\":12830:12854   */\n      tag_312\n      jump\t// in\n    tag_479:\n        /* \"#utility.yul\":12825:12828   */\n      dup3\n        /* \"#utility.yul\":12818:12855   */\n      mstore\n        /* \"#utility.yul\":12743:12861   */\n      pop\n      pop\n      jump\t// out\n        /* \"#utility.yul\":12867:13089   */\n    tag_93:\n        /* \"#utility.yul\":12960:12964   */\n      0x00\n        /* \"#utility.yul\":12998:13000   */\n      0x20\n        /* \"#utility.yul\":12987:12996   */\n      dup3\n        /* \"#utility.yul\":12983:13001   */\n      add\n        /* \"#utility.yul\":12975:13001   */\n      swap1\n      pop\n        /* \"#utility.yul\":13011:13082   */\n      tag_481\n        /* \"#utility.yul\":13079:13080   */\n      0x00\n        /* \"#utility.yul\":13068:13077   */\n      dup4\n        /* \"#utility.yul\":13064:13081   */\n      add\n        /* \"#utility.yul\":13055:13061   */\n      dup5\n        /* \"#utility.yul\":13011:13082   */\n      tag_318\n      jump\t// in\n    tag_481:\n        /* \"#utility.yul\":12867:13089   */\n      swap3\n      swap2\n      pop\n      pop\n      jump\t// out\n        /* \"#utility.yul\":13095:13563   */\n    tag_96:\n        /* \"#utility.yul\":13160:13166   */\n      0x00\n        /* \"#utility.yul\":13168:13174   */\n      dup1\n        /* \"#utility.yul\":13217:13219   */\n      0x40\n        /* \"#utility.yul\":13205:13214   */\n      dup4\n        /* \"#utility.yul\":13196:13203   */\n      dup6\n        /* \"#utility.yul\":13192:13215   */\n      sub\n        /* \"#utility.yul\":13188:13220   */\n      slt\n        /* \"#utility.yul\":13185:13304   */\n      iszero\n      tag_483\n      jumpi\n        /* \"#utility.yul\":13223:13302   */\n      tag_484\n      tag_291\n      jump\t// in\n    tag_484:\n        /* \"#utility.yul\":13185:13304   */\n    tag_483:\n        /* \"#utility.yul\":13343:13344   */\n      0x00\n        /* \"#utility.yul\":13368:13421   */\n      tag_485\n        /* \"#utility.yul\":13413:13420   */\n      dup6\n        /* \"#utility.yul\":13404:13410   */\n      dup3\n        /* \"#utility.yul\":13393:13402   */\n      dup7\n        /* \"#utility.yul\":13389:13411   */\n      add\n        /* \"#utility.yul\":13368:13421   */\n      tag_295\n      jump\t// in\n    tag_485:\n        /* \"#utility.yul\":13358:13421   */\n      swap3\n      pop\n        /* \"#utility.yul\":13314:13431   */\n      pop\n        /* \"#utility.yul\":13470:13472   */\n      0x20\n        /* \"#utility.yul\":13496:13546   */\n      tag_486\n        /* \"#utility.yul\":13538:13545   */\n      dup6\n        /* \"#utility.yul\":13529:13535   */\n      dup3\n        /* \"#utility.yul\":13518:13527   */\n      dup7\n        /* \"#utility.yul\":13514:13536   */\n      add\n        /* \"#utility.yul\":13496:13546   */\n      tag_310\n      jump\t// in\n    tag_486:\n        /* \"#utility.yul\":13486:13546   */\n      swap2\n      pop\n        /* \"#utility.yul\":13441:13556   */\n      pop\n        /* \"#utility.yul\":13095:13563   */\n      swap3\n      pop\n      swap3\n      swap1\n      pop\n      jump\t// out\n        /* \"#utility.yul\":13569:14188   */\n    tag_101:\n        /* \"#utility.yul\":13646:13652   */\n      0x00\n        /* \"#utility.yul\":13654:13660   */\n      dup1\n        /* \"#utility.yul\":13662:13668   */\n      0x00\n        /* \"#utility.yul\":13711:13713   */\n      0x60\n        /* \"#utility.yul\":13699:13708   */\n      dup5\n        /* \"#utility.yul\":13690:13697   */\n      dup7\n        /* \"#utility.yul\":13686:13709   */\n      sub\n        /* \"#utility.yul\":13682:13714   */\n      slt\n        /* \"#utility.yul\":13679:13798   */\n      iszero\n      tag_488\n      jumpi\n        /* \"#utility.yul\":13717:13796   */\n      tag_489\n      tag_291\n      jump\t// in\n    tag_489:\n        /* \"#utility.yul\":13679:13798   */\n    tag_488:\n        /* \"#utility.yul\":13837:13838   */\n      0x00\n        /* \"#utility.yul\":13862:13915   */\n      tag_490\n        /* \"#utility.yul\":13907:13914   */\n      dup7\n        /* \"#utility.yul\":13898:13904   */\n      dup3\n        /* \"#utility.yul\":13887:13896   */\n      dup8\n        /* \"#utility.yul\":13883:13905   */\n      add\n        /* \"#utility.yul\":13862:13915   */\n      tag_295\n      jump\t// in\n    tag_490:\n        /* \"#utility.yul\":13852:13915   */\n      swap4\n      pop\n        /* \"#utility.yul\":13808:13925   */\n      pop\n        /* \"#utility.yul\":13964:13966   */\n      0x20\n        /* \"#utility.yul\":13990:14043   */\n      tag_491\n        /* \"#utility.yul\":14035:14042   */\n      dup7\n        /* \"#utility.yul\":14026:14032   */\n      dup3\n        /* \"#utility.yul\":14015:14024   */\n      dup8\n        /* \"#utility.yul\":14011:14033   */\n      add\n        /* \"#utility.yul\":13990:14043   */\n      tag_300\n      jump\t// in\n    tag_491:\n        /* \"#utility.yul\":13980:14043   */\n      swap3\n      pop\n        /* \"#utility.yul\":13935:14053   */\n      pop\n        /* \"#utility.yul\":14092:14094   */\n      0x40\n        /* \"#utility.yul\":14118:14171   */\n      tag_492\n        /* \"#utility.yul\":14163:14170   */\n      dup7\n        /* \"#utility.yul\":14154:14160   */\n      dup3\n        /* \"#utility.yul\":14143:14152   */\n      dup8\n        /* \"#utility.yul\":14139:14161   */\n      add\n        /* \"#utility.yul\":14118:14171   */\n      tag_295\n      jump\t// in\n    tag_492:\n        /* \"#utility.yul\":14108:14171   */\n      swap2\n      pop\n        /* \"#utility.yul\":14063:14181   */\n      pop\n        /* \"#utility.yul\":13569:14188   */\n      swap3\n      pop\n      swap3\n      pop\n      swap3\n      jump\t// out\n        /* \"#utility.yul\":14194:14292   */\n    tag_319:\n        /* \"#utility.yul\":14245:14251   */\n      0x00\n        /* \"#utility.yul\":14279:14284   */\n      dup2\n        /* \"#utility.yul\":14273:14285   */\n      mload\n        /* \"#utility.yul\":14263:14285   */\n      swap1\n      pop\n        /* \"#utility.yul\":14194:14292   */\n      swap2\n      swap1\n      pop\n      jump\t// out\n        /* \"#utility.yul\":14298:14466   */\n    tag_320:\n        /* \"#utility.yul\":14381:14392   */\n      0x00\n        /* \"#utility.yul\":14415:14421   */\n      dup3\n        /* \"#utility.yul\":14410:14413   */\n      dup3\n        /* \"#utility.yul\":14403:14422   */\n      mstore\n        /* \"#utility.yul\":14455:14459   */\n      0x20\n        /* \"#utility.yul\":14450:14453   */\n      dup3\n        /* \"#utility.yul\":14446:14460   */\n      add\n        /* \"#utility.yul\":14431:14460   */\n      swap1\n      pop\n        /* \"#utility.yul\":14298:14466   */\n      swap3\n      swap2\n      pop\n      pop\n      jump\t// out\n        /* \"#utility.yul\":14472:14611   */\n    tag_321:\n        /* \"#utility.yul\":14561:14567   */\n      dup3\n        /* \"#utility.yul\":14556:14559   */\n      dup2\n        /* \"#utility.yul\":14551:14554   */\n      dup4\n        /* \"#utility.yul\":14545:14568   */\n      mcopy\n        /* \"#utility.yul\":14602:14603   */\n      0x00\n        /* \"#utility.yul\":14593:14599   */\n      dup4\n        /* \"#utility.yul\":14588:14591   */\n      dup4\n        /* \"#utility.yul\":14584:14600   */\n      add\n        /* \"#utility.yul\":14577:14604   */\n      mstore\n        /* \"#utility.yul\":14472:14611   */\n      pop\n      pop\n      pop\n      jump\t// out\n        /* \"#utility.yul\":14617:14719   */\n    tag_322:\n        /* \"#utility.yul\":14658:14664   */\n      0x00\n        /* \"#utility.yul\":14709:14711   */\n      0x1f\n        /* \"#utility.yul\":14705:14712   */\n      not\n        /* \"#utility.yul\":14700:14702   */\n      0x1f\n        /* \"#utility.yul\":14693:14698   */\n      dup4\n        /* \"#utility.yul\":14689:14703   */\n      add\n        /* \"#utility.yul\":14685:14713   */\n      and\n        /* \"#utility.yul\":14675:14713   */\n      swap1\n      pop\n        /* \"#utility.yul\":14617:14719   */\n      swap2\n      swap1\n      pop\n      jump\t// out\n        /* \"#utility.yul\":14725:15098   */\n    tag_323:\n        /* \"#utility.yul\":14811:14814   */\n      0x00\n        /* \"#utility.yul\":14839:14877   */\n      tag_498\n        /* \"#utility.yul\":14871:14876   */\n      dup3\n        /* \"#utility.yul\":14839:14877   */\n      tag_319\n      jump\t// in\n    tag_498:\n        /* \"#utility.yul\":14893:14963   */\n      tag_499\n        /* \"#utility.yul\":14956:14962   */\n      dup2\n        /* \"#utility.yul\":14951:14954   */\n      dup6\n        /* \"#utility.yul\":14893:14963   */\n      tag_320\n      jump\t// in\n    tag_499:\n        /* \"#utility.yul\":14886:14963   */\n      swap4\n      pop\n        /* \"#utility.yul\":14972:15037   */\n      tag_500\n        /* \"#utility.yul\":15030:15036   */\n      dup2\n        /* \"#utility.yul\":15025:15028   */\n      dup6\n        /* \"#utility.yul\":15018:15022   */\n      0x20\n        /* \"#utility.yul\":15011:15016   */\n      dup7\n        /* \"#utility.yul\":15007:15023   */\n      add\n        /* \"#utility.yul\":14972:15037   */\n      tag_321\n      jump\t// in\n    tag_500:\n        /* \"#utility.yul\":15062:15091   */\n      tag_501\n        /* \"#utility.yul\":15084:15090   */\n      dup2\n        /* \"#utility.yul\":15062:15091   */\n      tag_322\n      jump\t// in\n    tag_501:\n        /* \"#utility.yul\":15057:15060   */\n      dup5\n        /* \"#utility.yul\":15053:15092   */\n      add\n        /* \"#utility.yul\":15046:15092   */\n      swap2\n      pop\n        /* \"#utility.yul\":14815:15098   */\n      pop\n        /* \"#utility.yul\":14725:15098   */\n      swap3\n      swap2\n      pop\n      pop\n      jump\t// out\n        /* \"#utility.yul\":15104:15413   */\n    tag_108:\n        /* \"#utility.yul\":15215:15219   */\n      0x00\n        /* \"#utility.yul\":15253:15255   */\n      0x20\n        /* \"#utility.yul\":15242:15251   */\n      dup3\n        /* \"#utility.yul\":15238:15256   */\n      add\n        /* \"#utility.yul\":15230:15256   */\n      swap1\n      pop\n        /* \"#utility.yul\":15302:15311   */\n      dup2\n        /* \"#utility.yul\":15296:15300   */\n      dup2\n        /* \"#utility.yul\":15292:15312   */\n      sub\n        /* \"#utility.yul\":15288:15289   */\n      0x00\n        /* \"#utility.yul\":15277:15286   */\n      dup4\n        /* \"#utility.yul\":15273:15290   */\n      add\n        /* \"#utility.yul\":15266:15313   */\n      mstore\n        /* \"#utility.yul\":15330:15406   */\n      tag_503\n        /* \"#utility.yul\":15401:15405   */\n      dup2\n        /* \"#utility.yul\":15392:15398   */\n      dup5\n        /* \"#utility.yul\":15330:15406   */\n      tag_323\n      jump\t// in\n    tag_503:\n        /* \"#utility.yul\":15322:15406   */\n      swap1\n      pop\n        /* \"#utility.yul\":15104:15413   */\n      swap3\n      swap2\n      pop\n      pop\n      jump\t// out\n        /* \"#utility.yul\":15433:15986   */\n    tag_324:\n        /* \"#utility.yul\":15491:15499   */\n      0x00\n        /* \"#utility.yul\":15501:15507   */\n      dup1\n        /* \"#utility.yul\":15551:15554   */\n      dup4\n        /* \"#utility.yul\":15544:15548   */\n      0x1f\n        /* \"#utility.yul\":15536:15542   */\n      dup5\n        /* \"#utility.yul\":15532:15549   */\n      add\n        /* \"#utility.yul\":15528:15555   */\n      slt\n        /* \"#utility.yul\":15518:15640   */\n      tag_505\n      jumpi\n        /* \"#utility.yul\":15559:15638   */\n      tag_506\n      tag_305\n      jump\t// in\n    tag_506:\n        /* \"#utility.yul\":15518:15640   */\n    tag_505:\n        /* \"#utility.yul\":15672:15678   */\n      dup3\n        /* \"#utility.yul\":15659:15679   */\n      calldataload\n        /* \"#utility.yul\":15649:15679   */\n      swap1\n      pop\n        /* \"#utility.yul\":15702:15720   */\n      0xffffffffffffffff\n        /* \"#utility.yul\":15694:15700   */\n      dup2\n        /* \"#utility.yul\":15691:15721   */\n      gt\n        /* \"#utility.yul\":15688:15805   */\n      iszero\n      tag_507\n      jumpi\n        /* \"#utility.yul\":15724:15803   */\n      tag_508\n      tag_306\n      jump\t// in\n    tag_508:\n        /* \"#utility.yul\":15688:15805   */\n    tag_507:\n        /* \"#utility.yul\":15838:15842   */\n      0x20\n        /* \"#utility.yul\":15830:15836   */\n      dup4\n        /* \"#utility.yul\":15826:15843   */\n      add\n        /* \"#utility.yul\":15814:15843   */\n      swap2\n      pop\n        /* \"#utility.yul\":15892:15895   */\n      dup4\n        /* \"#utility.yul\":15884:15888   */\n      0x01\n        /* \"#utility.yul\":15876:15882   */\n      dup3\n        /* \"#utility.yul\":15872:15889   */\n      mul\n        /* \"#utility.yul\":15862:15870   */\n      dup4\n        /* \"#utility.yul\":15858:15890   */\n      add\n        /* \"#utility.yul\":15855:15896   */\n      gt\n        /* \"#utility.yul\":15852:15980   */\n      iszero\n      tag_509\n      jumpi\n        /* \"#utility.yul\":15899:15978   */\n      tag_510\n      tag_307\n      jump\t// in\n    tag_510:\n        /* \"#utility.yul\":15852:15980   */\n    tag_509:\n        /* \"#utility.yul\":15433:15986   */\n      swap3\n      pop\n      swap3\n      swap1\n      pop\n      jump\t// out\n        /* \"#utility.yul\":15992:17097   */\n    tag_115:\n        /* \"#utility.yul\":16096:16102   */\n      0x00\n        /* \"#utility.yul\":16104:16110   */\n      dup1\n        /* \"#utility.yul\":16112:16118   */\n      0x00\n        /* \"#utility.yul\":16120:16126   */\n      dup1\n        /* \"#utility.yul\":16128:16134   */\n      0x00\n        /* \"#utility.yul\":16136:16142   */\n      dup1\n        /* \"#utility.yul\":16185:16188   */\n      0xa0\n        /* \"#utility.yul\":16173:16182   */\n      dup8\n        /* \"#utility.yul\":16164:16171   */\n      dup10\n        /* \"#utility.yul\":16160:16183   */\n      sub\n        /* \"#utility.yul\":16156:16189   */\n      slt\n        /* \"#utility.yul\":16153:16273   */\n      iszero\n      tag_512\n      jumpi\n        /* \"#utility.yul\":16192:16271   */\n      tag_513\n      tag_291\n      jump\t// in\n    tag_513:\n        /* \"#utility.yul\":16153:16273   */\n    tag_512:\n        /* \"#utility.yul\":16312:16313   */\n      0x00\n        /* \"#utility.yul\":16337:16390   */\n      tag_514\n        /* \"#utility.yul\":16382:16389   */\n      dup10\n        /* \"#utility.yul\":16373:16379   */\n      dup3\n        /* \"#utility.yul\":16362:16371   */\n      dup11\n        /* \"#utility.yul\":16358:16380   */\n      add\n        /* \"#utility.yul\":16337:16390   */\n      tag_295\n      jump\t// in\n    tag_514:\n        /* \"#utility.yul\":16327:16390   */\n      swap7\n      pop\n        /* \"#utility.yul\":16283:16400   */\n      pop\n        /* \"#utility.yul\":16439:16441   */\n      0x20\n        /* \"#utility.yul\":16465:16518   */\n      tag_515\n        /* \"#utility.yul\":16510:16517   */\n      dup10\n        /* \"#utility.yul\":16501:16507   */\n      dup3\n        /* \"#utility.yul\":16490:16499   */\n      dup11\n        /* \"#utility.yul\":16486:16508   */\n      add\n        /* \"#utility.yul\":16465:16518   */\n      tag_300\n      jump\t// in\n    tag_515:\n        /* \"#utility.yul\":16455:16518   */\n      swap6\n      pop\n        /* \"#utility.yul\":16410:16528   */\n      pop\n        /* \"#utility.yul\":16567:16569   */\n      0x40\n        /* \"#utility.yul\":16593:16646   */\n      tag_516\n        /* \"#utility.yul\":16638:16645   */\n      dup10\n        /* \"#utility.yul\":16629:16635   */\n      dup3\n        /* \"#utility.yul\":16618:16627   */\n      dup11\n        /* \"#utility.yul\":16614:16636   */\n      add\n        /* \"#utility.yul\":16593:16646   */\n      tag_300\n      jump\t// in\n    tag_516:\n        /* \"#utility.yul\":16583:16646   */\n      swap5\n      pop\n        /* \"#utility.yul\":16538:16656   */\n      pop\n        /* \"#utility.yul\":16695:16697   */\n      0x60\n        /* \"#utility.yul\":16721:16771   */\n      tag_517\n        /* \"#utility.yul\":16763:16770   */\n      dup10\n        /* \"#utility.yul\":16754:16760   */\n      dup3\n        /* \"#utility.yul\":16743:16752   */\n      dup11\n        /* \"#utility.yul\":16739:16761   */\n      add\n        /* \"#utility.yul\":16721:16771   */\n      tag_310\n      jump\t// in\n    tag_517:\n        /* \"#utility.yul\":16711:16771   */\n      swap4\n      pop\n        /* \"#utility.yul\":16666:16781   */\n      pop\n        /* \"#utility.yul\":16848:16851   */\n      0x80\n        /* \"#utility.yul\":16837:16846   */\n      dup8\n        /* \"#utility.yul\":16833:16852   */\n      add\n        /* \"#utility.yul\":16820:16853   */\n      calldataload\n        /* \"#utility.yul\":16880:16898   */\n      0xffffffffffffffff\n        /* \"#utility.yul\":16872:16878   */\n      dup2\n        /* \"#utility.yul\":16869:16899   */\n      gt\n        /* \"#utility.yul\":16866:16983   */\n      iszero\n      tag_518\n      jumpi\n        /* \"#utility.yul\":16902:16981   */\n      tag_519\n      tag_292\n      jump\t// in\n    tag_519:\n        /* \"#utility.yul\":16866:16983   */\n    tag_518:\n        /* \"#utility.yul\":17015:17080   */\n      tag_520\n        /* \"#utility.yul\":17072:17079   */\n      dup10\n        /* \"#utility.yul\":17063:17069   */\n      dup3\n        /* \"#utility.yul\":17052:17061   */\n      dup11\n        /* \"#utility.yul\":17048:17070   */\n      add\n        /* \"#utility.yul\":17015:17080   */\n      tag_324\n      jump\t// in\n    tag_520:\n        /* \"#utility.yul\":16997:17080   */\n      swap3\n      pop\n      swap3\n      pop\n        /* \"#utility.yul\":16791:17090   */\n      pop\n        /* \"#utility.yul\":15992:17097   */\n      swap3\n      swap6\n      pop\n      swap3\n      swap6\n      pop\n      swap3\n      swap6\n      jump\t// out\n        /* \"#utility.yul\":17103:18700   */\n    tag_124:\n        /* \"#utility.yul\":17237:17243   */\n      0x00\n        /* \"#utility.yul\":17245:17251   */\n      dup1\n        /* \"#utility.yul\":17253:17259   */\n      0x00\n        /* \"#utility.yul\":17261:17267   */\n      dup1\n        /* \"#utility.yul\":17269:17275   */\n      0x00\n        /* \"#utility.yul\":17277:17283   */\n      dup1\n        /* \"#utility.yul\":17285:17291   */\n      0x00\n        /* \"#utility.yul\":17293:17299   */\n      dup1\n        /* \"#utility.yul\":17301:17307   */\n      0x00\n        /* \"#utility.yul\":17350:17353   */\n      0xe0\n        /* \"#utility.yul\":17338:17347   */\n      dup11\n        /* \"#utility.yul\":17329:17336   */\n      dup13\n        /* \"#utility.yul\":17325:17348   */\n      sub\n        /* \"#utility.yul\":17321:17354   */\n      slt\n        /* \"#utility.yul\":17318:17438   */\n      iszero\n      tag_522\n      jumpi\n        /* \"#utility.yul\":17357:17436   */\n      tag_523\n      tag_291\n      jump\t// in\n    tag_523:\n        /* \"#utility.yul\":17318:17438   */\n    tag_522:\n        /* \"#utility.yul\":17477:17478   */\n      0x00\n        /* \"#utility.yul\":17502:17555   */\n      tag_524\n        /* \"#utility.yul\":17547:17554   */\n      dup13\n        /* \"#utility.yul\":17538:17544   */\n      dup3\n        /* \"#utility.yul\":17527:17536   */\n      dup14\n        /* \"#utility.yul\":17523:17545   */\n      add\n        /* \"#utility.yul\":17502:17555   */\n      tag_295\n      jump\t// in\n    tag_524:\n        /* \"#utility.yul\":17492:17555   */\n      swap10\n      pop\n        /* \"#utility.yul\":17448:17565   */\n      pop\n        /* \"#utility.yul\":17604:17606   */\n      0x20\n        /* \"#utility.yul\":17630:17683   */\n      tag_525\n        /* \"#utility.yul\":17675:17682   */\n      dup13\n        /* \"#utility.yul\":17666:17672   */\n      dup3\n        /* \"#utility.yul\":17655:17664   */\n      dup14\n        /* \"#utility.yul\":17651:17673   */\n      add\n        /* \"#utility.yul\":17630:17683   */\n      tag_300\n      jump\t// in\n    tag_525:\n        /* \"#utility.yul\":17620:17683   */\n      swap9\n      pop\n        /* \"#utility.yul\":17575:17693   */\n      pop\n        /* \"#utility.yul\":17732:17734   */\n      0x40\n        /* \"#utility.yul\":17758:17811   */\n      tag_526\n        /* \"#utility.yul\":17803:17810   */\n      dup13\n        /* \"#utility.yul\":17794:17800   */\n      dup3\n        /* \"#utility.yul\":17783:17792   */\n      dup14\n        /* \"#utility.yul\":17779:17801   */\n      add\n        /* \"#utility.yul\":17758:17811   */\n      tag_300\n      jump\t// in\n    tag_526:\n        /* \"#utility.yul\":17748:17811   */\n      swap8\n      pop\n        /* \"#utility.yul\":17703:17821   */\n      pop\n        /* \"#utility.yul\":17888:17890   */\n      0x60\n        /* \"#utility.yul\":17877:17886   */\n      dup11\n        /* \"#utility.yul\":17873:17891   */\n      add\n        /* \"#utility.yul\":17860:17892   */\n      calldataload\n        /* \"#utility.yul\":17919:17937   */\n      0xffffffffffffffff\n        /* \"#utility.yul\":17911:17917   */\n      dup2\n        /* \"#utility.yul\":17908:17938   */\n      gt\n        /* \"#utility.yul\":17905:18022   */\n      iszero\n      tag_527\n      jumpi\n        /* \"#utility.yul\":17941:18020   */\n      tag_528\n      tag_292\n      jump\t// in\n    tag_528:\n        /* \"#utility.yul\":17905:18022   */\n    tag_527:\n        /* \"#utility.yul\":18054:18119   */\n      tag_529\n        /* \"#utility.yul\":18111:18118   */\n      dup13\n        /* \"#utility.yul\":18102:18108   */\n      dup3\n        /* \"#utility.yul\":18091:18100   */\n      dup14\n        /* \"#utility.yul\":18087:18109   */\n      add\n        /* \"#utility.yul\":18054:18119   */\n      tag_324\n      jump\t// in\n    tag_529:\n        /* \"#utility.yul\":18036:18119   */\n      swap7\n      pop\n      swap7\n      pop\n        /* \"#utility.yul\":17831:18129   */\n      pop\n        /* \"#utility.yul\":18168:18171   */\n      0x80\n        /* \"#utility.yul\":18195:18245   */\n      tag_530\n        /* \"#utility.yul\":18237:18244   */\n      dup13\n        /* \"#utility.yul\":18228:18234   */\n      dup3\n        /* \"#utility.yul\":18217:18226   */\n      dup14\n        /* \"#utility.yul\":18213:18235   */\n      add\n        /* \"#utility.yul\":18195:18245   */\n      tag_310\n      jump\t// in\n    tag_530:\n        /* \"#utility.yul\":18185:18245   */\n      swap5\n      pop\n        /* \"#utility.yul\":18139:18255   */\n      pop\n        /* \"#utility.yul\":18322:18325   */\n      0xa0\n        /* \"#utility.yul\":18311:18320   */\n      dup11\n        /* \"#utility.yul\":18307:18326   */\n      add\n        /* \"#utility.yul\":18294:18327   */\n      calldataload\n        /* \"#utility.yul\":18354:18372   */\n      0xffffffffffffffff\n        /* \"#utility.yul\":18346:18352   */\n      dup2\n        /* \"#utility.yul\":18343:18373   */\n      gt\n        /* \"#utility.yul\":18340:18457   */\n      iszero\n      tag_531\n      jumpi\n        /* \"#utility.yul\":18376:18455   */\n      tag_532\n      tag_292\n      jump\t// in\n    tag_532:\n        /* \"#utility.yul\":18340:18457   */\n    tag_531:\n        /* \"#utility.yul\":18489:18554   */\n      tag_533\n        /* \"#utility.yul\":18546:18553   */\n      dup13\n        /* \"#utility.yul\":18537:18543   */\n      dup3\n        /* \"#utility.yul\":18526:18535   */\n      dup14\n        /* \"#utility.yul\":18522:18544   */\n      add\n        /* \"#utility.yul\":18489:18554   */\n      tag_324\n      jump\t// in\n    tag_533:\n        /* \"#utility.yul\":18471:18554   */\n      swap4\n      pop\n      swap4\n      pop\n        /* \"#utility.yul\":18265:18564   */\n      pop\n        /* \"#utility.yul\":18603:18606   */\n      0xc0\n        /* \"#utility.yul\":18630:18683   */\n      tag_534\n        /* \"#utility.yul\":18675:18682   */\n      dup13\n        /* \"#utility.yul\":18666:18672   */\n      dup3\n        /* \"#utility.yul\":18655:18664   */\n      dup14\n        /* \"#utility.yul\":18651:18673   */\n      add\n        /* \"#utility.yul\":18630:18683   */\n      tag_295\n      jump\t// in\n    tag_534:\n        /* \"#utility.yul\":18620:18683   */\n      swap2\n      pop\n        /* \"#utility.yul\":18574:18693   */\n      pop\n        /* \"#utility.yul\":17103:18700   */\n      swap3\n      swap6\n      swap9\n      pop\n      swap3\n      swap6\n      swap9\n      pop\n      swap3\n      swap6\n      swap9\n      jump\t// out\n        /* \"#utility.yul\":18706:19035   */\n    tag_133:\n        /* \"#utility.yul\":18765:18771   */\n      0x00\n        /* \"#utility.yul\":18814:18816   */\n      0x20\n        /* \"#utility.yul\":18802:18811   */\n      dup3\n        /* \"#utility.yul\":18793:18800   */\n      dup5\n        /* \"#utility.yul\":18789:18812   */\n      sub\n        /* \"#utility.yul\":18785:18817   */\n      slt\n        /* \"#utility.yul\":18782:18901   */\n      iszero\n      tag_536\n      jumpi\n        /* \"#utility.yul\":18820:18899   */\n      tag_537\n      tag_291\n      jump\t// in\n    tag_537:\n        /* \"#utility.yul\":18782:18901   */\n    tag_536:\n        /* \"#utility.yul\":18940:18941   */\n      0x00\n        /* \"#utility.yul\":18965:19018   */\n      tag_538\n        /* \"#utility.yul\":19010:19017   */\n      dup5\n        /* \"#utility.yul\":19001:19007   */\n      dup3\n        /* \"#utility.yul\":18990:18999   */\n      dup6\n        /* \"#utility.yul\":18986:19008   */\n      add\n        /* \"#utility.yul\":18965:19018   */\n      tag_317\n      jump\t// in\n    tag_538:\n        /* \"#utility.yul\":18955:19018   */\n      swap2\n      pop\n        /* \"#utility.yul\":18911:19028   */\n      pop\n        /* \"#utility.yul\":18706:19035   */\n      swap3\n      swap2\n      pop\n      pop\n      jump\t// out\n        /* \"#utility.yul\":19041:19210   */\n    tag_325:\n        /* \"#utility.yul\":19125:19136   */\n      0x00\n        /* \"#utility.yul\":19159:19165   */\n      dup3\n        /* \"#utility.yul\":19154:19157   */\n      dup3\n        /* \"#utility.yul\":19147:19166   */\n      mstore\n        /* \"#utility.yul\":19199:19203   */\n      0x20\n        /* \"#utility.yul\":19194:19197   */\n      dup3\n        /* \"#utility.yul\":19190:19204   */\n      add\n        /* \"#utility.yul\":19175:19204   */\n      swap1\n      pop\n        /* \"#utility.yul\":19041:19210   */\n      swap3\n      swap2\n      pop\n      pop\n      jump\t// out\n        /* \"#utility.yul\":19216:19380   */\n    tag_326:\n        /* \"#utility.yul\":19356:19372   */\n      0x46696c65206e6f7420666f756e64000000000000000000000000000000000000\n        /* \"#utility.yul\":19352:19353   */\n      0x00\n        /* \"#utility.yul\":19344:19350   */\n      dup3\n        /* \"#utility.yul\":19340:19354   */\n      add\n        /* \"#utility.yul\":19333:19373   */\n      mstore\n        /* \"#utility.yul\":19216:19380   */\n      pop\n      jump\t// out\n        /* \"#utility.yul\":19386:19752   */\n    tag_327:\n        /* \"#utility.yul\":19528:19531   */\n      0x00\n        /* \"#utility.yul\":19549:19616   */\n      tag_542\n        /* \"#utility.yul\":19613:19615   */\n      0x0e\n        /* \"#utility.yul\":19608:19611   */\n      dup4\n        /* \"#utility.yul\":19549:19616   */\n      tag_325\n      jump\t// in\n    tag_542:\n        /* \"#utility.yul\":19542:19616   */\n      swap2\n      pop\n        /* \"#utility.yul\":19625:19718   */\n      tag_543\n        /* \"#utility.yul\":19714:19717   */\n      dup3\n        /* \"#utility.yul\":19625:19718   */\n      tag_326\n      jump\t// in\n    tag_543:\n        /* \"#utility.yul\":19743:19745   */\n      0x20\n        /* \"#utility.yul\":19738:19741   */\n      dup3\n        /* \"#utility.yul\":19734:19746   */\n      add\n        /* \"#utility.yul\":19727:19746   */\n      swap1\n      pop\n        /* \"#utility.yul\":19386:19752   */\n      swap2\n      swap1\n      pop\n      jump\t// out\n        /* \"#utility.yul\":19758:20177   */\n    tag_139:\n        /* \"#utility.yul\":19924:19928   */\n      0x00\n        /* \"#utility.yul\":19962:19964   */\n      0x20\n        /* \"#utility.yul\":19951:19960   */\n      dup3\n        /* \"#utility.yul\":19947:19965   */\n      add\n        /* \"#utility.yul\":19939:19965   */\n      swap1\n      pop\n        /* \"#utility.yul\":20011:20020   */\n      dup2\n        /* \"#utility.yul\":20005:20009   */\n      dup2\n        /* \"#utility.yul\":20001:20021   */\n      sub\n        /* \"#utility.yul\":19997:19998   */\n      0x00\n        /* \"#utility.yul\":19986:19995   */\n      dup4\n        /* \"#utility.yul\":19982:19999   */\n      add\n        /* \"#utility.yul\":19975:20022   */\n      mstore\n        /* \"#utility.yul\":20039:20170   */\n      tag_545\n        /* \"#utility.yul\":20165:20169   */\n      dup2\n        /* \"#utility.yul\":20039:20170   */\n      tag_327\n      jump\t// in\n    tag_545:\n        /* \"#utility.yul\":20031:20170   */\n      swap1\n      pop\n        /* \"#utility.yul\":19758:20177   */\n      swap2\n      swap1\n      pop\n      jump\t// out\n        /* \"#utility.yul\":20183:20342   */\n    tag_328:\n        /* \"#utility.yul\":20323:20334   */\n      0x4e6f74206f776e65720000000000000000000000000000000000000000000000\n        /* \"#utility.yul\":20319:20320   */\n      0x00\n        /* \"#utility.yul\":20311:20317   */\n      dup3\n        /* \"#utility.yul\":20307:20321   */\n      add\n        /* \"#utility.yul\":20300:20335   */\n      mstore\n        /* \"#utility.yul\":20183:20342   */\n      pop\n      jump\t// out\n        /* \"#utility.yul\":20348:20713   */\n    tag_329:\n        /* \"#utility.yul\":20490:20493   */\n      0x00\n        /* \"#utility.yul\":20511:20577   */\n      tag_548\n        /* \"#utility.yul\":20575:20576   */\n      0x09\n        /* \"#utility.yul\":20570:20573   */\n      dup4\n        /* \"#utility.yul\":20511:20577   */\n      tag_325\n      jump\t// in\n    tag_548:\n        /* \"#utility.yul\":20504:20577   */\n      swap2\n      pop\n        /* \"#utility.yul\":20586:20679   */\n      tag_549\n        /* \"#utility.yul\":20675:20678   */\n      dup3\n        /* \"#utility.yul\":20586:20679   */\n      tag_328\n      jump\t// in\n    tag_549:\n        /* \"#utility.yul\":20704:20706   */\n      0x20\n        /* \"#utility.yul\":20699:20702   */\n      dup3\n        /* \"#utility.yul\":20695:20707   */\n      add\n        /* \"#utility.yul\":20688:20707   */\n      swap1\n      pop\n        /* \"#utility.yul\":20348:20713   */\n      swap2\n      swap1\n      pop\n      jump\t// out\n        /* \"#utility.yul\":20719:21138   */\n    tag_142:\n        /* \"#utility.yul\":20885:20889   */\n      0x00\n        /* \"#utility.yul\":20923:20925   */\n      0x20\n        /* \"#utility.yul\":20912:20921   */\n      dup3\n        /* \"#utility.yul\":20908:20926   */\n      add\n        /* \"#utility.yul\":20900:20926   */\n      swap1\n      pop\n        /* \"#utility.yul\":20972:20981   */\n      dup2\n        /* \"#utility.yul\":20966:20970   */\n      dup2\n        /* \"#utility.yul\":20962:20982   */\n      sub\n        /* \"#utility.yul\":20958:20959   */\n      0x00\n        /* \"#utility.yul\":20947:20956   */\n      dup4\n        /* \"#utility.yul\":20943:20960   */\n      add\n        /* \"#utility.yul\":20936:20983   */\n      mstore\n        /* \"#utility.yul\":21000:21131   */\n      tag_551\n        /* \"#utility.yul\":21126:21130   */\n      dup2\n        /* \"#utility.yul\":21000:21131   */\n      tag_329\n      jump\t// in\n    tag_551:\n        /* \"#utility.yul\":20992:21131   */\n      swap1\n      pop\n        /* \"#utility.yul\":20719:21138   */\n      swap2\n      swap1\n      pop\n      jump\t// out\n        /* \"#utility.yul\":21144:21313   */\n    tag_330:\n        /* \"#utility.yul\":21284:21305   */\n      0x496e76616c6964206368756e6b20696e64657800000000000000000000000000\n        /* \"#utility.yul\":21280:21281   */\n      0x00\n        /* \"#utility.yul\":21272:21278   */\n      dup3\n        /* \"#utility.yul\":21268:21282   */\n      add\n        /* \"#utility.yul\":21261:21306   */\n      mstore\n        /* \"#utility.yul\":21144:21313   */\n      pop\n      jump\t// out\n        /* \"#utility.yul\":21319:21685   */\n    tag_331:\n        /* \"#utility.yul\":21461:21464   */\n      0x00\n        /* \"#utility.yul\":21482:21549   */\n      tag_554\n        /* \"#utility.yul\":21546:21548   */\n      0x13\n        /* \"#utility.yul\":21541:21544   */\n      dup4\n        /* \"#utility.yul\":21482:21549   */\n      tag_325\n      jump\t// in\n    tag_554:\n        /* \"#utility.yul\":21475:21549   */\n      swap2\n      pop\n        /* \"#utility.yul\":21558:21651   */\n      tag_555\n        /* \"#utility.yul\":21647:21650   */\n      dup3\n        /* \"#utility.yul\":21558:21651   */\n      tag_330\n      jump\t// in\n    tag_555:\n        /* \"#utility.yul\":21676:21678   */\n      0x20\n        /* \"#utility.yul\":21671:21674   */\n      dup3\n        /* \"#utility.yul\":21667:21679   */\n      add\n        /* \"#utility.yul\":21660:21679   */\n      swap1\n      pop\n        /* \"#utility.yul\":21319:21685   */\n      swap2\n      swap1\n      pop\n      jump\t// out\n        /* \"#utility.yul\":21691:22110   */\n    tag_152:\n        /* \"#utility.yul\":21857:21861   */\n      0x00\n        /* \"#utility.yul\":21895:21897   */\n      0x20\n        /* \"#utility.yul\":21884:21893   */\n      dup3\n        /* \"#utility.yul\":21880:21898   */\n      add\n        /* \"#utility.yul\":21872:21898   */\n      swap1\n      pop\n        /* \"#utility.yul\":21944:21953   */\n      dup2\n        /* \"#utility.yul\":21938:21942   */\n      dup2\n        /* \"#utility.yul\":21934:21954   */\n      sub\n        /* \"#utility.yul\":21930:21931   */\n      0x00\n        /* \"#utility.yul\":21919:21928   */\n      dup4\n        /* \"#utility.yul\":21915:21932   */\n      add\n        /* \"#utility.yul\":21908:21955   */\n      mstore\n        /* \"#utility.yul\":21972:22103   */\n      tag_557\n        /* \"#utility.yul\":22098:22102   */\n      dup2\n        /* \"#utility.yul\":21972:22103   */\n      tag_331\n      jump\t// in\n    tag_557:\n        /* \"#utility.yul\":21964:22103   */\n      swap1\n      pop\n        /* \"#utility.yul\":21691:22110   */\n      swap2\n      swap1\n      pop\n      jump\t// out\n        /* \"#utility.yul\":22116:22234   */\n    tag_332:\n        /* \"#utility.yul\":22203:22227   */\n      tag_559\n        /* \"#utility.yul\":22221:22226   */\n      dup2\n        /* \"#utility.yul\":22203:22227   */\n      tag_293\n      jump\t// in\n    tag_559:\n        /* \"#utility.yul\":22198:22201   */\n      dup3\n        /* \"#utility.yul\":22191:22228   */\n      mstore\n        /* \"#utility.yul\":22116:22234   */\n      pop\n      pop\n      jump\t// out\n        /* \"#utility.yul\":22240:22462   */\n    tag_160:\n        /* \"#utility.yul\":22333:22337   */\n      0x00\n        /* \"#utility.yul\":22371:22373   */\n      0x20\n        /* \"#utility.yul\":22360:22369   */\n      dup3\n        /* \"#utility.yul\":22356:22374   */\n      add\n        /* \"#utility.yul\":22348:22374   */\n      swap1\n      pop\n        /* \"#utility.yul\":22384:22455   */\n      tag_561\n        /* \"#utility.yul\":22452:22453   */\n      0x00\n        /* \"#utility.yul\":22441:22450   */\n      dup4\n        /* \"#utility.yul\":22437:22454   */\n      add\n        /* \"#utility.yul\":22428:22434   */\n      dup5\n        /* \"#utility.yul\":22384:22455   */\n      tag_332\n      jump\t// in\n    tag_561:\n        /* \"#utility.yul\":22240:22462   */\n      swap3\n      swap2\n      pop\n      pop\n      jump\t// out\n        /* \"#utility.yul\":22468:22632   */\n    tag_333:\n        /* \"#utility.yul\":22608:22624   */\n      0x46696c6520746f6f206c61726765000000000000000000000000000000000000\n        /* \"#utility.yul\":22604:22605   */\n      0x00\n        /* \"#utility.yul\":22596:22602   */\n      dup3\n        /* \"#utility.yul\":22592:22606   */\n      add\n        /* \"#utility.yul\":22585:22625   */\n      mstore\n        /* \"#utility.yul\":22468:22632   */\n      pop\n      jump\t// out\n        /* \"#utility.yul\":22638:23004   */\n    tag_334:\n        /* \"#utility.yul\":22780:22783   */\n      0x00\n        /* \"#utility.yul\":22801:22868   */\n      tag_564\n        /* \"#utility.yul\":22865:22867   */\n      0x0e\n        /* \"#utility.yul\":22860:22863   */\n      dup4\n        /* \"#utility.yul\":22801:22868   */\n      tag_325\n      jump\t// in\n    tag_564:\n        /* \"#utility.yul\":22794:22868   */\n      swap2\n      pop\n        /* \"#utility.yul\":22877:22970   */\n      tag_565\n        /* \"#utility.yul\":22966:22969   */\n      dup3\n        /* \"#utility.yul\":22877:22970   */\n      tag_333\n      jump\t// in\n    tag_565:\n        /* \"#utility.yul\":22995:22997   */\n      0x20\n        /* \"#utility.yul\":22990:22993   */\n      dup3\n        /* \"#utility.yul\":22986:22998   */\n      add\n        /* \"#utility.yul\":22979:22998   */\n      swap1\n      pop\n        /* \"#utility.yul\":22638:23004   */\n      swap2\n      swap1\n      pop\n      jump\t// out\n        /* \"#utility.yul\":23010:23429   */\n    tag_183:\n        /* \"#utility.yul\":23176:23180   */\n      0x00\n        /* \"#utility.yul\":23214:23216   */\n      0x20\n        /* \"#utility.yul\":23203:23212   */\n      dup3\n        /* \"#utility.yul\":23199:23217   */\n      add\n        /* \"#utility.yul\":23191:23217   */\n      swap1\n      pop\n        /* \"#utility.yul\":23263:23272   */\n      dup2\n        /* \"#utility.yul\":23257:23261   */\n      dup2\n        /* \"#utility.yul\":23253:23273   */\n      sub\n        /* \"#utility.yul\":23249:23250   */\n      0x00\n        /* \"#utility.yul\":23238:23247   */\n      dup4\n        /* \"#utility.yul\":23234:23251   */\n      add\n        /* \"#utility.yul\":23227:23274   */\n      mstore\n        /* \"#utility.yul\":23291:23422   */\n      tag_567\n        /* \"#utility.yul\":23417:23421   */\n      dup2\n        /* \"#utility.yul\":23291:23422   */\n      tag_334\n      jump\t// in\n    tag_567:\n        /* \"#utility.yul\":23283:23422   */\n      swap1\n      pop\n        /* \"#utility.yul\":23010:23429   */\n      swap2\n      swap1\n      pop\n      jump\t// out\n        /* \"#utility.yul\":23435:23615   */\n    tag_335:\n        /* \"#utility.yul\":23483:23560   */\n      0x4e487b7100000000000000000000000000000000000000000000000000000000\n        /* \"#utility.yul\":23480:23481   */\n      0x00\n        /* \"#utility.yul\":23473:23561   */\n      mstore\n        /* \"#utility.yul\":23580:23584   */\n      0x11\n        /* \"#utility.yul\":23577:23578   */\n      0x04\n        /* \"#utility.yul\":23570:23585   */\n      mstore\n        /* \"#utility.yul\":23604:23608   */\n      0x24\n        /* \"#utility.yul\":23601:23602   */\n      0x00\n        /* \"#utility.yul\":23594:23609   */\n      revert\n        /* \"#utility.yul\":23621:23812   */\n    tag_185:\n        /* \"#utility.yul\":23661:23664   */\n      0x00\n        /* \"#utility.yul\":23680:23700   */\n      tag_570\n        /* \"#utility.yul\":23698:23699   */\n      dup3\n        /* \"#utility.yul\":23680:23700   */\n      tag_298\n      jump\t// in\n    tag_570:\n        /* \"#utility.yul\":23675:23700   */\n      swap2\n      pop\n        /* \"#utility.yul\":23714:23734   */\n      tag_571\n        /* \"#utility.yul\":23732:23733   */\n      dup4\n        /* \"#utility.yul\":23714:23734   */\n      tag_298\n      jump\t// in\n    tag_571:\n        /* \"#utility.yul\":23709:23734   */\n      swap3\n      pop\n        /* \"#utility.yul\":23757:23758   */\n      dup3\n        /* \"#utility.yul\":23754:23755   */\n      dup3\n        /* \"#utility.yul\":23750:23759   */\n      add\n        /* \"#utility.yul\":23743:23759   */\n      swap1\n      pop\n        /* \"#utility.yul\":23778:23781   */\n      dup1\n        /* \"#utility.yul\":23775:23776   */\n      dup3\n        /* \"#utility.yul\":23772:23782   */\n      gt\n        /* \"#utility.yul\":23769:23805   */\n      iszero\n      tag_572\n      jumpi\n        /* \"#utility.yul\":23785:23803   */\n      tag_573\n      tag_335\n      jump\t// in\n    tag_573:\n        /* \"#utility.yul\":23769:23805   */\n    tag_572:\n        /* \"#utility.yul\":23621:23812   */\n      swap3\n      swap2\n      pop\n      pop\n      jump\t// out\n        /* \"#utility.yul\":23818:24012   */\n    tag_187:\n        /* \"#utility.yul\":23858:23862   */\n      0x00\n        /* \"#utility.yul\":23878:23898   */\n      tag_575\n        /* \"#utility.yul\":23896:23897   */\n      dup3\n        /* \"#utility.yul\":23878:23898   */\n      tag_298\n      jump\t// in\n    tag_575:\n        /* \"#utility.yul\":23873:23898   */\n      swap2\n      pop\n        /* \"#utility.yul\":23912:23932   */\n      tag_576\n        /* \"#utility.yul\":23930:23931   */\n      dup4\n        /* \"#utility.yul\":23912:23932   */\n      tag_298\n      jump\t// in\n    tag_576:\n        /* \"#utility.yul\":23907:23932   */\n      swap3\n      pop\n        /* \"#utility.yul\":23956:23957   */\n      dup3\n        /* \"#utility.yul\":23953:23954   */\n      dup3\n        /* \"#utility.yul\":23949:23958   */\n      sub\n        /* \"#utility.yul\":23941:23958   */\n      swap1\n      pop\n        /* \"#utility.yul\":23980:23981   */\n      dup2\n        /* \"#utility.yul\":23974:23978   */\n      dup2\n        /* \"#utility.yul\":23971:23982   */\n      gt\n        /* \"#utility.yul\":23968:24005   */\n      iszero\n      tag_577\n      jumpi\n        /* \"#utility.yul\":23985:24003   */\n      tag_578\n      tag_335\n      jump\t// in\n    tag_578:\n        /* \"#utility.yul\":23968:24005   */\n    tag_577:\n        /* \"#utility.yul\":23818:24012   */\n      swap3\n      swap2\n      pop\n      pop\n      jump\t// out\n        /* \"#utility.yul\":24018:24198   */\n    tag_336:\n        /* \"#utility.yul\":24066:24143   */\n      0x4e487b7100000000000000000000000000000000000000000000000000000000\n        /* \"#utility.yul\":24063:24064   */\n      0x00\n        /* \"#utility.yul\":24056:24144   */\n      mstore\n        /* \"#utility.yul\":24163:24167   */\n      0x12\n        /* \"#utility.yul\":24160:24161   */\n      0x04\n        /* \"#utility.yul\":24153:24168   */\n      mstore\n        /* \"#utility.yul\":24187:24191   */\n      0x24\n        /* \"#utility.yul\":24184:24185   */\n      0x00\n        /* \"#utility.yul\":24177:24192   */\n      revert\n        /* \"#utility.yul\":24204:24389   */\n    tag_189:\n        /* \"#utility.yul\":24244:24245   */\n      0x00\n        /* \"#utility.yul\":24261:24281   */\n      tag_581\n        /* \"#utility.yul\":24279:24280   */\n      dup3\n        /* \"#utility.yul\":24261:24281   */\n      tag_298\n      jump\t// in\n    tag_581:\n        /* \"#utility.yul\":24256:24281   */\n      swap2\n      pop\n        /* \"#utility.yul\":24295:24315   */\n      tag_582\n        /* \"#utility.yul\":24313:24314   */\n      dup4\n        /* \"#utility.yul\":24295:24315   */\n      tag_298\n      jump\t// in\n    tag_582:\n        /* \"#utility.yul\":24290:24315   */\n      swap3\n      pop\n        /* \"#utility.yul\":24334:24335   */\n      dup3\n        /* \"#utility.yul\":24324:24359   */\n      tag_583\n      jumpi\n        /* \"#utility.yul\":24339:24357   */\n      tag_584\n      tag_336\n      jump\t// in\n    tag_584:\n        /* \"#utility.yul\":24324:24359   */\n    tag_583:\n        /* \"#utility.yul\":24381:24382   */\n      dup3\n        /* \"#utility.yul\":24378:24379   */\n      dup3\n        /* \"#utility.yul\":24374:24383   */\n      div\n        /* \"#utility.yul\":24369:24383   */\n      swap1\n      pop\n        /* \"#utility.yul\":24204:24389   */\n      swap3\n      swap2\n      pop\n      pop\n      jump\t// out\n        /* \"#utility.yul\":24395:24554   */\n    tag_337:\n        /* \"#utility.yul\":24535:24546   */\n      0x4e6f206163636573730000000000000000000000000000000000000000000000\n        /* \"#utility.yul\":24531:24532   */\n      0x00\n        /* \"#utility.yul\":24523:24529   */\n      dup3\n        /* \"#utility.yul\":24519:24533   */\n      add\n        /* \"#utility.yul\":24512:24547   */\n      mstore\n        /* \"#utility.yul\":24395:24554   */\n      pop\n      jump\t// out\n        /* \"#utility.yul\":24560:24925   */\n    tag_338:\n        /* \"#utility.yul\":24702:24705   */\n      0x00\n        /* \"#utility.yul\":24723:24789   */\n      tag_587\n        /* \"#utility.yul\":24787:24788   */\n      0x09\n        /* \"#utility.yul\":24782:24785   */\n      dup4\n        /* \"#utility.yul\":24723:24789   */\n      tag_325\n      jump\t// in\n    tag_587:\n        /* \"#utility.yul\":24716:24789   */\n      swap2\n      pop\n        /* \"#utility.yul\":24798:24891   */\n      tag_588\n        /* \"#utility.yul\":24887:24890   */\n      dup3\n        /* \"#utility.yul\":24798:24891   */\n      tag_337\n      jump\t// in\n    tag_588:\n        /* \"#utility.yul\":24916:24918   */\n      0x20\n        /* \"#utility.yul\":24911:24914   */\n      dup3\n        /* \"#utility.yul\":24907:24919   */\n      add\n        /* \"#utility.yul\":24900:24919   */\n      swap1\n      pop\n        /* \"#utility.yul\":24560:24925   */\n      swap2\n      swap1\n      pop\n      jump\t// out\n        /* \"#utility.yul\":24931:25350   */\n    tag_201:\n        /* \"#utility.yul\":25097:25101   */\n      0x00\n        /* \"#utility.yul\":25135:25137   */\n      0x20\n        /* \"#utility.yul\":25124:25133   */\n      dup3\n        /* \"#utility.yul\":25120:25138   */\n      add\n        /* \"#utility.yul\":25112:25138   */\n      swap1\n      pop\n        /* \"#utility.yul\":25184:25193   */\n      dup2\n        /* \"#utility.yul\":25178:25182   */\n      dup2\n        /* \"#utility.yul\":25174:25194   */\n      sub\n        /* \"#utility.yul\":25170:25171   */\n      0x00\n        /* \"#utility.yul\":25159:25168   */\n      dup4\n        /* \"#utility.yul\":25155:25172   */\n      add\n        /* \"#utility.yul\":25148:25195   */\n      mstore\n        /* \"#utility.yul\":25212:25343   */\n      tag_590\n        /* \"#utility.yul\":25338:25342   */\n      dup2\n        /* \"#utility.yul\":25212:25343   */\n      tag_338\n      jump\t// in\n    tag_590:\n        /* \"#utility.yul\":25204:25343   */\n      swap1\n      pop\n        /* \"#utility.yul\":24931:25350   */\n      swap2\n      swap1\n      pop\n      jump\t// out\n        /* \"#utility.yul\":25356:25503   */\n    tag_339:\n        /* \"#utility.yul\":25457:25468   */\n      0x00\n        /* \"#utility.yul\":25494:25497   */\n      dup2\n        /* \"#utility.yul\":25479:25497   */\n      swap1\n      pop\n        /* \"#utility.yul\":25356:25503   */\n      swap3\n      swap2\n      pop\n      pop\n      jump\t// out\n        /* \"#utility.yul\":25509:25657   */\n    tag_340:\n        /* \"#utility.yul\":25607:25613   */\n      dup3\n        /* \"#utility.yul\":25602:25605   */\n      dup2\n        /* \"#utility.yul\":25597:25600   */\n      dup4\n        /* \"#utility.yul\":25584:25614   */\n      calldatacopy\n        /* \"#utility.yul\":25648:25649   */\n      0x00\n        /* \"#utility.yul\":25639:25645   */\n      dup4\n        /* \"#utility.yul\":25634:25637   */\n      dup4\n        /* \"#utility.yul\":25630:25646   */\n      add\n        /* \"#utility.yul\":25623:25650   */\n      mstore\n        /* \"#utility.yul\":25509:25657   */\n      pop\n      pop\n      pop\n      jump\t// out\n        /* \"#utility.yul\":25685:26012   */\n    tag_341:\n        /* \"#utility.yul\":25799:25802   */\n      0x00\n        /* \"#utility.yul\":25820:25908   */\n      tag_594\n        /* \"#utility.yul\":25901:25907   */\n      dup4\n        /* \"#utility.yul\":25896:25899   */\n      dup6\n        /* \"#utility.yul\":25820:25908   */\n      tag_339\n      jump\t// in\n    tag_594:\n        /* \"#utility.yul\":25813:25908   */\n      swap4\n      pop\n        /* \"#utility.yul\":25918:25974   */\n      tag_595\n        /* \"#utility.yul\":25967:25973   */\n      dup4\n        /* \"#utility.yul\":25962:25965   */\n      dup6\n        /* \"#utility.yul\":25955:25960   */\n      dup5\n        /* \"#utility.yul\":25918:25974   */\n      tag_340\n      jump\t// in\n    tag_595:\n        /* \"#utility.yul\":25999:26005   */\n      dup3\n        /* \"#utility.yul\":25994:25997   */\n      dup5\n        /* \"#utility.yul\":25990:26006   */\n      add\n        /* \"#utility.yul\":25983:26006   */\n      swap1\n      pop\n        /* \"#utility.yul\":25685:26012   */\n      swap4\n      swap3\n      pop\n      pop\n      pop\n      jump\t// out\n        /* \"#utility.yul\":26018:26309   */\n    tag_238:\n        /* \"#utility.yul\":26158:26161   */\n      0x00\n        /* \"#utility.yul\":26180:26283   */\n      tag_597\n        /* \"#utility.yul\":26279:26282   */\n      dup3\n        /* \"#utility.yul\":26270:26276   */\n      dup5\n        /* \"#utility.yul\":26262:26268   */\n      dup7\n        /* \"#utility.yul\":26180:26283   */\n      tag_341\n      jump\t// in\n    tag_597:\n        /* \"#utility.yul\":26173:26283   */\n      swap2\n      pop\n        /* \"#utility.yul\":26300:26303   */\n      dup2\n        /* \"#utility.yul\":26293:26303   */\n      swap1\n      pop\n        /* \"#utility.yul\":26018:26309   */\n      swap4\n      swap3\n      pop\n      pop\n      pop\n      jump\t// out\n        /* \"#utility.yul\":26315:26480   */\n    tag_342:\n        /* \"#utility.yul\":26455:26472   */\n      0x4368756e6b20746f6f206c617267650000000000000000000000000000000000\n        /* \"#utility.yul\":26451:26452   */\n      0x00\n        /* \"#utility.yul\":26443:26449   */\n      dup3\n        /* \"#utility.yul\":26439:26453   */\n      add\n        /* \"#utility.yul\":26432:26473   */\n      mstore\n        /* \"#utility.yul\":26315:26480   */\n      pop\n      jump\t// out\n        /* \"#utility.yul\":26486:26852   */\n    tag_343:\n        /* \"#utility.yul\":26628:26631   */\n      0x00\n        /* \"#utility.yul\":26649:26716   */\n      tag_600\n        /* \"#utility.yul\":26713:26715   */\n      0x0f\n        /* \"#utility.yul\":26708:26711   */\n      dup4\n        /* \"#utility.yul\":26649:26716   */\n      tag_325\n      jump\t// in\n    tag_600:\n        /* \"#utility.yul\":26642:26716   */\n      swap2\n      pop\n        /* \"#utility.yul\":26725:26818   */\n      tag_601\n        /* \"#utility.yul\":26814:26817   */\n      dup3\n        /* \"#utility.yul\":26725:26818   */\n      tag_342\n      jump\t// in\n    tag_601:\n        /* \"#utility.yul\":26843:26845   */\n      0x20\n        /* \"#utility.yul\":26838:26841   */\n      dup3\n        /* \"#utility.yul\":26834:26846   */\n      add\n        /* \"#utility.yul\":26827:26846   */\n      swap1\n      pop\n        /* \"#utility.yul\":26486:26852   */\n      swap2\n      swap1\n      pop\n      jump\t// out\n        /* \"#utility.yul\":26858:27277   */\n    tag_262:\n        /* \"#utility.yul\":27024:27028   */\n      0x00\n        /* \"#utility.yul\":27062:27064   */\n      0x20\n        /* \"#utility.yul\":27051:27060   */\n      dup3\n        /* \"#utility.yul\":27047:27065   */\n      add\n        /* \"#utility.yul\":27039:27065   */\n      swap1\n      pop\n        /* \"#utility.yul\":27111:27120   */\n      dup2\n        /* \"#utility.yul\":27105:27109   */\n      dup2\n        /* \"#utility.yul\":27101:27121   */\n      sub\n        /* \"#utility.yul\":27097:27098   */\n      0x00\n        /* \"#utility.yul\":27086:27095   */\n      dup4\n        /* \"#utility.yul\":27082:27099   */\n      add\n        /* \"#utility.yul\":27075:27122   */\n      mstore\n        /* \"#utility.yul\":27139:27270   */\n      tag_603\n        /* \"#utility.yul\":27265:27269   */\n      dup2\n        /* \"#utility.yul\":27139:27270   */\n      tag_343\n      jump\t// in\n    tag_603:\n        /* \"#utility.yul\":27131:27270   */\n      swap1\n      pop\n        /* \"#utility.yul\":26858:27277   */\n      swap2\n      swap1\n      pop\n      jump\t// out\n        /* \"#utility.yul\":27283:27450   */\n    tag_344:\n        /* \"#utility.yul\":27423:27442   */\n      0x496e76616c69642066696c652073697a65000000000000000000000000000000\n        /* \"#utility.yul\":27419:27420   */\n      0x00\n        /* \"#utility.yul\":27411:27417   */\n      dup3\n        /* \"#utility.yul\":27407:27421   */\n      add\n        /* \"#utility.yul\":27400:27443   */\n      mstore\n        /* \"#utility.yul\":27283:27450   */\n      pop\n      jump\t// out\n        /* \"#utility.yul\":27456:27822   */\n    tag_345:\n        /* \"#utility.yul\":27598:27601   */\n      0x00\n        /* \"#utility.yul\":27619:27686   */\n      tag_606\n        /* \"#utility.yul\":27683:27685   */\n      0x11\n        /* \"#utility.yul\":27678:27681   */\n      dup4\n        /* \"#utility.yul\":27619:27686   */\n      tag_325\n      jump\t// in\n    tag_606:\n        /* \"#utility.yul\":27612:27686   */\n      swap2\n      pop\n        /* \"#utility.yul\":27695:27788   */\n      tag_607\n        /* \"#utility.yul\":27784:27787   */\n      dup3\n        /* \"#utility.yul\":27695:27788   */\n      tag_344\n      jump\t// in\n    tag_607:\n        /* \"#utility.yul\":27813:27815   */\n      0x20\n        /* \"#utility.yul\":27808:27811   */\n      dup3\n        /* \"#utility.yul\":27804:27816   */\n      add\n        /* \"#utility.yul\":27797:27816   */\n      swap1\n      pop\n        /* \"#utility.yul\":27456:27822   */\n      swap2\n      swap1\n      pop\n      jump\t// out\n        /* \"#utility.yul\":27828:28247   */\n    tag_279:\n        /* \"#utility.yul\":27994:27998   */\n      0x00\n        /* \"#utility.yul\":28032:28034   */\n      0x20\n        /* \"#utility.yul\":28021:28030   */\n      dup3\n        /* \"#utility.yul\":28017:28035   */\n      add\n        /* \"#utility.yul\":28009:28035   */\n      swap1\n      pop\n        /* \"#utility.yul\":28081:28090   */\n      dup2\n        /* \"#utility.yul\":28075:28079   */\n      dup2\n        /* \"#utility.yul\":28071:28091   */\n      sub\n        /* \"#utility.yul\":28067:28068   */\n      0x00\n        /* \"#utility.yul\":28056:28065   */\n      dup4\n        /* \"#utility.yul\":28052:28069   */\n      add\n        /* \"#utility.yul\":28045:28092   */\n      mstore\n        /* \"#utility.yul\":28109:28240   */\n      tag_609\n        /* \"#utility.yul\":28235:28239   */\n      dup2\n        /* \"#utility.yul\":28109:28240   */\n      tag_345\n      jump\t// in\n    tag_609:\n        /* \"#utility.yul\":28101:28240   */\n      swap1\n      pop\n        /* \"#utility.yul\":27828:28247   */\n      swap2\n      swap1\n      pop\n      jump\t// out\n        /* \"#utility.yul\":28253:28422   */\n    tag_346:\n        /* \"#utility.yul\":28393:28414   */\n      0x496e76616c6964206368756e6b20636f756e7400000000000000000000000000\n        /* \"#utility.yul\":28389:28390   */\n      0x00\n        /* \"#utility.yul\":28381:28387   */\n      dup3\n        /* \"#utility.yul\":28377:28391   */\n      add\n        /* \"#utility.yul\":28370:28415   */\n      mstore\n        /* \"#utility.yul\":28253:28422   */\n      pop\n      jump\t// out\n        /* \"#utility.yul\":28428:28794   */\n    tag_347:\n        /* \"#utility.yul\":28570:28573   */\n      0x00\n        /* \"#utility.yul\":28591:28658   */\n      tag_612\n        /* \"#utility.yul\":28655:28657   */\n      0x13\n        /* \"#utility.yul\":28650:28653   */\n      dup4\n        /* \"#utility.yul\":28591:28658   */\n      tag_325\n      jump\t// in\n    tag_612:\n        /* \"#utility.yul\":28584:28658   */\n      swap2\n      pop\n        /* \"#utility.yul\":28667:28760   */\n      tag_613\n        /* \"#utility.yul\":28756:28759   */\n      dup3\n        /* \"#utility.yul\":28667:28760   */\n      tag_346\n      jump\t// in\n    tag_613:\n        /* \"#utility.yul\":28785:28787   */\n      0x20\n        /* \"#utility.yul\":28780:28783   */\n      dup3\n        /* \"#utility.yul\":28776:28788   */\n      add\n        /* \"#utility.yul\":28769:28788   */\n      swap1\n      pop\n        /* \"#utility.yul\":28428:28794   */\n      swap2\n      swap1\n      pop\n      jump\t// out\n        /* \"#utility.yul\":28800:29219   */\n    tag_282:\n        /* \"#utility.yul\":28966:28970   */\n      0x00\n        /* \"#utility.yul\":29004:29006   */\n      0x20\n        /* \"#utility.yul\":28993:29002   */\n      dup3\n        /* \"#utility.yul\":28989:29007   */\n      add\n        /* \"#utility.yul\":28981:29007   */\n      swap1\n      pop\n        /* \"#utility.yul\":29053:29062   */\n      dup2\n        /* \"#utility.yul\":29047:29051   */\n      dup2\n        /* \"#utility.yul\":29043:29063   */\n      sub\n        /* \"#utility.yul\":29039:29040   */\n      0x00\n        /* \"#utility.yul\":29028:29037   */\n      dup4\n        /* \"#utility.yul\":29024:29041   */\n      add\n        /* \"#utility.yul\":29017:29064   */\n      mstore\n        /* \"#utility.yul\":29081:29212   */\n      tag_615\n        /* \"#utility.yul\":29207:29211   */\n      dup2\n        /* \"#utility.yul\":29081:29212   */\n      tag_347\n      jump\t// in\n    tag_615:\n        /* \"#utility.yul\":29073:29212   */\n      swap1\n      pop\n        /* \"#utility.yul\":28800:29219   */\n      swap2\n      swap1\n      pop\n      jump\t// out\n        /* \"#utility.yul\":29225:29394   */\n    tag_348:\n        /* \"#utility.yul\":29365:29386   */\n      0x46696c6520616c72656164792065786973747300000000000000000000000000\n        /* \"#utility.yul\":29361:29362   */\n      0x00\n        /* \"#utility.yul\":29353:29359   */\n      dup3\n        /* \"#utility.yul\":29349:29363   */\n      add\n        /* \"#utility.yul\":29342:29387   */\n      mstore\n        /* \"#utility.yul\":29225:29394   */\n      pop\n      jump\t// out\n        /* \"#utility.yul\":29400:29766   */\n    tag_349:\n        /* \"#utility.yul\":29542:29545   */\n      0x00\n        /* \"#utility.yul\":29563:29630   */\n      tag_618\n        /* \"#utility.yul\":29627:29629   */\n      0x13\n        /* \"#utility.yul\":29622:29625   */\n      dup4\n        /* \"#utility.yul\":29563:29630   */\n      tag_325\n      jump\t// in\n    tag_618:\n        /* \"#utility.yul\":29556:29630   */\n      swap2\n      pop\n        /* \"#utility.yul\":29639:29732   */\n      tag_619\n        /* \"#utility.yul\":29728:29731   */\n      dup3\n        /* \"#utility.yul\":29639:29732   */\n      tag_348\n      jump\t// in\n    tag_619:\n        /* \"#utility.yul\":29757:29759   */\n      0x20\n        /* \"#utility.yul\":29752:29755   */\n      dup3\n        /* \"#utility.yul\":29748:29760   */\n      add\n        /* \"#utility.yul\":29741:29760   */\n      swap1\n      pop\n        /* \"#utility.yul\":29400:29766   */\n      swap2\n      swap1\n      pop\n      jump\t// out\n        /* \"#utility.yul\":29772:30191   */\n    tag_286:\n        /* \"#utility.yul\":29938:29942   */\n      0x00\n        /* \"#utility.yul\":29976:29978   */\n      0x20\n        /* \"#utility.yul\":29965:29974   */\n      dup3\n        /* \"#utility.yul\":29961:29979   */\n      add\n        /* \"#utility.yul\":29953:29979   */\n      swap1\n      pop\n        /* \"#utility.yul\":30025:30034   */\n      dup2\n        /* \"#utility.yul\":30019:30023   */\n      dup2\n        /* \"#utility.yul\":30015:30035   */\n      sub\n        /* \"#utility.yul\":30011:30012   */\n      0x00\n        /* \"#utility.yul\":30000:30009   */\n      dup4\n        /* \"#utility.yul\":29996:30013   */\n      add\n        /* \"#utility.yul\":29989:30036   */\n      mstore\n        /* \"#utility.yul\":30053:30184   */\n      tag_621\n        /* \"#utility.yul\":30179:30183   */\n      dup2\n        /* \"#utility.yul\":30053:30184   */\n      tag_349\n      jump\t// in\n    tag_621:\n        /* \"#utility.yul\":30045:30184   */\n      swap1\n      pop\n        /* \"#utility.yul\":29772:30191   */\n      swap2\n      swap1\n      pop\n      jump\t// out\n        /* \"#utility.yul\":30197:30627   */\n    tag_288:\n        /* \"#utility.yul\":30340:30344   */\n      0x00\n        /* \"#utility.yul\":30378:30380   */\n      0x60\n        /* \"#utility.yul\":30367:30376   */\n      dup3\n        /* \"#utility.yul\":30363:30381   */\n      add\n        /* \"#utility.yul\":30355:30381   */\n      swap1\n      pop\n        /* \"#utility.yul\":30391:30462   */\n      tag_623\n        /* \"#utility.yul\":30459:30460   */\n      0x00\n        /* \"#utility.yul\":30448:30457   */\n      dup4\n        /* \"#utility.yul\":30444:30461   */\n      add\n        /* \"#utility.yul\":30435:30441   */\n      dup7\n        /* \"#utility.yul\":30391:30462   */\n      tag_304\n      jump\t// in\n    tag_623:\n        /* \"#utility.yul\":30472:30544   */\n      tag_624\n        /* \"#utility.yul\":30540:30542   */\n      0x20\n        /* \"#utility.yul\":30529:30538   */\n      dup4\n        /* \"#utility.yul\":30525:30543   */\n      add\n        /* \"#utility.yul\":30516:30522   */\n      dup6\n        /* \"#utility.yul\":30472:30544   */\n      tag_304\n      jump\t// in\n    tag_624:\n        /* \"#utility.yul\":30554:30620   */\n      tag_625\n        /* \"#utility.yul\":30616:30618   */\n      0x40\n        /* \"#utility.yul\":30605:30614   */\n      dup4\n        /* \"#utility.yul\":30601:30619   */\n      add\n        /* \"#utility.yul\":30592:30598   */\n      dup5\n        /* \"#utility.yul\":30554:30620   */\n      tag_297\n      jump\t// in\n    tag_625:\n        /* \"#utility.yul\":30197:30627   */\n      swap5\n      swap4\n      pop\n      pop\n      pop\n      pop\n      jump\t// out\n\n    auxdata: 0xa26469706673582212204249827eae048fc7f4adfbee6d2aa27cb80f0f59eedc98ece5bb34a6dd9e9e9964736f6c634300081a0033\n}\n",
				"bytecode": {
					"linkReferences": {},
					"object": "608060405234801561000f575f80fd5b50604051612abd380380612abd833981810160405281019061003191906101de565b805f73ffffffffffffffffffffffffffffffffffffffff168173ffffffffffffffffffffffffffffffffffffffff16036100a2575f6040517f1e4fbdf70000000000000000000000000000000000000000000000000000000081526004016100999190610218565b60405180910390fd5b6100b1816100bf60201b60201c565b506001808190555050610231565b5f805f9054906101000a900473ffffffffffffffffffffffffffffffffffffffff169050815f806101000a81548173ffffffffffffffffffffffffffffffffffffffff021916908373ffffffffffffffffffffffffffffffffffffffff1602179055508173ffffffffffffffffffffffffffffffffffffffff168173ffffffffffffffffffffffffffffffffffffffff167f8be0079c531659141344cd1fd0a4f28419497f9722a3daafe3b4186f6b6457e060405160405180910390a35050565b5f80fd5b5f73ffffffffffffffffffffffffffffffffffffffff82169050919050565b5f6101ad82610184565b9050919050565b6101bd816101a3565b81146101c7575f80fd5b50565b5f815190506101d8816101b4565b92915050565b5f602082840312156101f3576101f2610180565b5b5f610200848285016101ca565b91505092915050565b610212816101a3565b82525050565b5f60208201905061022b5f830184610209565b92915050565b61287f8061023e5f395ff3fe608060405234801561000f575f80fd5b5060043610610156575f3560e01c806383177db3116100c1578063d3bb8b961161007a578063d3bb8b961461040e578063d48380611461043e578063d88eedf61461046e578063dafc9fc11461049e578063f292671b146104ce578063f2fde38b146104fe57610156565b806383177db31461030057806387ebbf67146103305780638da5cb5b14610360578063a4f393291461037e578063ab2cbcb3146103ae578063d2b18b60146103de57610156565b80635a9baf37116101135780635a9baf371461024057806365f353711461025e5780636a2b05181461028e5780636e2d7d38146102be578063715018a6146102da578063760fc7b8146102e457610156565b80630bef429b1461015a5780630cec5f62146101765780632a4d4280146101a65780632f0e14fb146101d657806349385399146101f45780634d73269c14610210575b5f80fd5b610174600480360381019061016f9190611a01565b61051a565b005b610190600480360381019061018b9190611a01565b6106cc565b60405161019d9190611a46565b60405180910390f35b6101c060048036038101906101bb9190611a92565b6106f5565b6040516101cd9190611b41565b60405180910390f35b6101de6107f5565b6040516101eb9190611b69565b60405180910390f35b61020e60048036038101906102099190611b82565b6107fc565b005b61022a60048036038101906102259190611c4b565b61093a565b6040516102379190611a46565b60405180910390f35b610248610957565b6040516102559190611b69565b60405180910390f35b61027860048036038101906102739190611a01565b61095f565b6040516102859190611dbd565b60405180910390f35b6102a860048036038101906102a39190611dd7565b610a8d565b6040516102b59190611a46565b60405180910390f35b6102d860048036038101906102d39190611e48565b610aa9565b005b6102e2610abd565b005b6102fe60048036038101906102f99190611ecc565b610ad0565b005b61031a60048036038101906103159190611f7a565b610b61565b6040516103279190611a46565b60405180910390f35b61034a60048036038101906103459190611a01565b610bc3565b6040516103579190611dbd565b60405180910390f35b610368610d3a565b6040516103759190611fc7565b60405180910390f35b61039860048036038101906103939190611fe0565b610d61565b6040516103a59190611a46565b60405180910390f35b6103c860048036038101906103c3919061201e565b610ecc565b6040516103d59190611a46565b60405180910390f35b6103f860048036038101906103f39190611a92565b610f9a565b60405161040591906120de565b60405180910390f35b61042860048036038101906104239190611a01565b61109a565b6040516104359190611b69565b60405180910390f35b61045860048036038101906104539190612153565b6110ff565b6040516104659190611a46565b60405180910390f35b61048860048036038101906104839190611e48565b61111d565b6040516104959190611a46565b60405180910390f35b6104b860048036038101906104b391906121e9565b611237565b6040516104c59190611a46565b60405180910390f35b6104e860048036038101906104e39190611a01565b611256565b6040516104f59190611b69565b60405180910390f35b610518600480360381019061051391906122c5565b6112bb565b005b610523816106cc565b610562576040517f08c379a00000000000000000000000000000000000000000000000000000000081526004016105599061234a565b60405180910390fd5b3373ffffffffffffffffffffffffffffffffffffffff1660025f8381526020019081526020015f206001015f9054906101000a900473ffffffffffffffffffffffffffffffffffffffff1673ffffffffffffffffffffffffffffffffffffffff1614610603576040517f08c379a00000000000000000000000000000000000000000000000000000000081526004016105fa906123b2565b60405180910390fd5b60025f8281526020019081526020015f205f8082015f9055600182015f6101000a81549073ffffffffffffffffffffffffffffffffffffffff0219169055600282015f9055600382015f9055600482015f6101000a81549060ff0219169055600582015f9055600682015f9055600782015f6101000a81549060ff021916905550503373ffffffffffffffffffffffffffffffffffffffff16817f7be12496ae22d3d9a9e65382c3ecfe9066f06c542a3a22dd9c9c2deb159de64560405160405180910390a350565b5f60025f8381526020019081526020015f206007015f9054906101000a900460ff169050919050565b6106fd61193f565b610706836106cc565b610745576040517f08c379a000000000000000000000000000000000000000000000000000000000815260040161073c9061234a565b60405180910390fd5b60025f8481526020019081526020015f2060060154821061079b576040517f08c379a00000000000000000000000000000000000000000000000000000000081526004016107929061241a565b60405180910390fd5b60035f8481526020019081526020015f205f8381526020019081526020015f206040518060800160405290815f82015481526020016001820154815260200160028201548152602001600382015481525050905092915050565b6210000081565b610805826106cc565b610844576040517f08c379a000000000000000000000000000000000000000000000000000000000815260040161083b9061234a565b60405180910390fd5b3373ffffffffffffffffffffffffffffffffffffffff1660025f8481526020019081526020015f206001015f9054906101000a900473ffffffffffffffffffffffffffffffffffffffff1673ffffffffffffffffffffffffffffffffffffffff16146108e5576040517f08c379a00000000000000000000000000000000000000000000000000000000081526004016108dc906123b2565b60405180910390fd5b8060025f8481526020019081526020015f2060050181905550817f22fcd0c181fefec176f74b8af4b0d73dde52a16a6127956654704b1b311193f28260405161092e9190612447565b60405180910390a25050565b5f61094a868686865f801b61133f565b6001905095945050505050565b634000000081565b610967611969565b610970826106cc565b6109af576040517f08c379a00000000000000000000000000000000000000000000000000000000081526004016109a69061234a565b60405180910390fd5b60025f8381526020019081526020015f20604051806101000160405290815f8201548152602001600182015f9054906101000a900473ffffffffffffffffffffffffffffffffffffffff1673ffffffffffffffffffffffffffffffffffffffff1673ffffffffffffffffffffffffffffffffffffffff1681526020016002820154815260200160038201548152602001600482015f9054906101000a900460ff161515151581526020016005820154815260200160068201548152602001600782015f9054906101000a900460ff1615151515815250509050919050565b5f610a9d858585855f801b61133f565b60019050949350505050565b610ab6858585858561133f565b5050505050565b610ac5611538565b610ace5f6115bf565b565b6340000000848490501115610b1a576040517f08c379a0000000000000000000000000000000000000000000000000000000008152600401610b11906124aa565b60405180910390fd5b5f6210000060016210000087879050610b3391906124f5565b610b3d9190612528565b610b479190612588565b9050610b598686869050838686611680565b505050505050565b5f60045f8481526020019081526020015f205f8373ffffffffffffffffffffffffffffffffffffffff1673ffffffffffffffffffffffffffffffffffffffff1681526020019081526020015f205f9054906101000a900460ff16905092915050565b610bcb611969565b610bd4826106cc565b610c13576040517f08c379a0000000000000000000000000000000000000000000000000000000008152600401610c0a9061234a565b60405180910390fd5b610c1d8233610b61565b610c5c576040517f08c379a0000000000000000000000000000000000000000000000000000000008152600401610c5390612602565b60405180910390fd5b60025f8381526020019081526020015f20604051806101000160405290815f8201548152602001600182015f9054906101000a900473ffffffffffffffffffffffffffffffffffffffff1673ffffffffffffffffffffffffffffffffffffffff1673ffffffffffffffffffffffffffffffffffffffff1681526020016002820154815260200160038201548152602001600482015f9054906101000a900460ff161515151581526020016005820154815260200160068201548152602001600782015f9054906101000a900460ff1615151515815250509050919050565b5f805f9054906101000a900473ffffffffffffffffffffffffffffffffffffffff16905090565b5f610d6b836106cc565b610daa576040517f08c379a0000000000000000000000000000000000000000000000000000000008152600401610da19061234a565b60405180910390fd5b3373ffffffffffffffffffffffffffffffffffffffff1660025f8581526020019081526020015f206001015f9054906101000a900473ffffffffffffffffffffffffffffffffffffffff1673ffffffffffffffffffffffffffffffffffffffff1614610e4b576040517f08c379a0000000000000000000000000000000000000000000000000000000008152600401610e42906123b2565b60405180910390fd5b8160025f8581526020019081526020015f206004015f6101000a81548160ff021916908315150217905550827f22fcd0c181fefec176f74b8af4b0d73dde52a16a6127956654704b1b311193f260025f8681526020019081526020015f2060050154604051610eba9190612447565b60405180910390a26001905092915050565b5f610ed6846106cc565b610f15576040517f08c379a0000000000000000000000000000000000000000000000000000000008152600401610f0c9061234a565b60405180910390fd5b60025f8581526020019081526020015f20600601548310610f6b576040517f08c379a0000000000000000000000000000000000000000000000000000000008152600401610f629061241a565b60405180910390fd5b8160035f8681526020019081526020015f205f8581526020019081526020015f20600201541490509392505050565b6060610fa5836106cc565b610fe4576040517f08c379a0000000000000000000000000000000000000000000000000000000008152600401610fdb9061234a565b60405180910390fd5b610fee8333610b61565b61102d576040517f08c379a000000000000000000000000000000000000000000000000000000000815260040161102490612602565b60405180910390fd5b60025f8481526020019081526020015f20600601548210611083576040517f08c379a000000000000000000000000000000000000000000000000000000000815260040161107a9061241a565b60405180910390fd5b60405180602001604052805f815250905092915050565b5f6110a4826106cc565b6110e3576040517f08c379a00000000000000000000000000000000000000000000000000000000081526004016110da9061234a565b60405180910390fd5b60025f8381526020019081526020015f20600201549050919050565b5f61110f878787875f801b611680565b600190509695505050505050565b5f611127866106cc565b611166576040517f08c379a000000000000000000000000000000000000000000000000000000000815260040161115d9061234a565b60405180910390fd5b60025f8781526020019081526020015f206006015485106111bc576040517f08c379a00000000000000000000000000000000000000000000000000000000081526004016111b39061241a565b60405180910390fd5b5f60035f8881526020019081526020015f205f8781526020019081526020015f2090505f85856040516111f092919061265c565b604051809103902090505f801b8414611222578382600301541480156112195750808260020154145b9250505061122e565b80826002015414925050505b95945050505050565b5f6112458a8a8a8886611680565b600190509998505050505050505050565b5f611260826106cc565b61129f576040517f08c379a00000000000000000000000000000000000000000000000000000000081526004016112969061234a565b60405180910390fd5b60025f8381526020019081526020015f20600601549050919050565b6112c3611538565b5f73ffffffffffffffffffffffffffffffffffffffff168173ffffffffffffffffffffffffffffffffffffffff1603611333575f6040517f1e4fbdf700000000000000000000000000000000000000000000000000000000815260040161132a9190611fc7565b60405180910390fd5b61133c816115bf565b50565b611348856106cc565b611387576040517f08c379a000000000000000000000000000000000000000000000000000000000815260040161137e9061234a565b60405180910390fd5b6113918533610b61565b6113d0576040517f08c379a00000000000000000000000000000000000000000000000000000000081526004016113c790612602565b60405180910390fd5b62100000838390501115611419576040517f08c379a0000000000000000000000000000000000000000000000000000000008152600401611410906126be565b60405180910390fd5b60025f8681526020019081526020015f2060060154841061146f576040517f08c379a00000000000000000000000000000000000000000000000000000000081526004016114669061241a565b60405180910390fd5b5f838360405161148092919061265c565b6040518091039020905060405180608001604052808681526020018585905081526020018281526020018381525060035f8881526020019081526020015f205f8781526020019081526020015f205f820151815f015560208201518160010155604082015181600201556060820151816003015590505084867f094a77d760348eb6b0079a077b9c0a33cb2a9381fedcf68792ed2d6356c97cf0836040516115289190612447565b60405180910390a3505050505050565b611540611938565b73ffffffffffffffffffffffffffffffffffffffff1661155e610d3a565b73ffffffffffffffffffffffffffffffffffffffff16146115bd57611581611938565b6040517f118cdaa70000000000000000000000000000000000000000000000000000000081526004016115b49190611fc7565b60405180910390fd5b565b5f805f9054906101000a900473ffffffffffffffffffffffffffffffffffffffff169050815f806101000a81548173ffffffffffffffffffffffffffffffffffffffff021916908373ffffffffffffffffffffffffffffffffffffffff1602179055508173ffffffffffffffffffffffffffffffffffffffff168173ffffffffffffffffffffffffffffffffffffffff167f8be0079c531659141344cd1fd0a4f28419497f9722a3daafe3b4186f6b6457e060405160405180910390a35050565b5f84118015611693575063400000008411155b6116d2576040517f08c379a00000000000000000000000000000000000000000000000000000000081526004016116c990612726565b60405180910390fd5b5f8311611714576040517f08c379a000000000000000000000000000000000000000000000000000000000815260040161170b9061278e565b60405180910390fd5b61171d856106cc565b1561175d576040517f08c379a0000000000000000000000000000000000000000000000000000000008152600401611754906127f6565b60405180910390fd5b6040518061010001604052808681526020013373ffffffffffffffffffffffffffffffffffffffff16815260200185815260200142815260200183151581526020018281526020018481526020016001151581525060025f8781526020019081526020015f205f820151815f01556020820151816001015f6101000a81548173ffffffffffffffffffffffffffffffffffffffff021916908373ffffffffffffffffffffffffffffffffffffffff16021790555060408201518160020155606082015181600301556080820151816004015f6101000a81548160ff02191690831515021790555060a0820151816005015560c0820151816006015560e0820151816007015f6101000a81548160ff021916908315150217905550905050600160045f8781526020019081526020015f205f3373ffffffffffffffffffffffffffffffffffffffff1673ffffffffffffffffffffffffffffffffffffffff1681526020019081526020015f205f6101000a81548160ff0219169083151502179055503373ffffffffffffffffffffffffffffffffffffffff16857fced668f5fd2030036609937f5e7254bf8e9fe5dc7ae3e9efb3b53d5fd1081e5e86868660405161192993929190612814565b60405180910390a35050505050565b5f33905090565b60405180608001604052805f81526020015f81526020015f80191681526020015f80191681525090565b6040518061010001604052805f80191681526020015f73ffffffffffffffffffffffffffffffffffffffff1681526020015f81526020015f81526020015f151581526020015f80191681526020015f81526020015f151581525090565b5f80fd5b5f80fd5b5f819050919050565b6119e0816119ce565b81146119ea575f80fd5b50565b5f813590506119fb816119d7565b92915050565b5f60208284031215611a1657611a156119c6565b5b5f611a23848285016119ed565b91505092915050565b5f8115159050919050565b611a4081611a2c565b82525050565b5f602082019050611a595f830184611a37565b92915050565b5f819050919050565b611a7181611a5f565b8114611a7b575f80fd5b50565b5f81359050611a8c81611a68565b92915050565b5f8060408385031215611aa857611aa76119c6565b5b5f611ab5858286016119ed565b9250506020611ac685828601611a7e565b9150509250929050565b611ad981611a5f565b82525050565b611ae8816119ce565b82525050565b608082015f820151611b025f850182611ad0565b506020820151611b156020850182611ad0565b506040820151611b286040850182611adf565b506060820151611b3b6060850182611adf565b50505050565b5f608082019050611b545f830184611aee565b92915050565b611b6381611a5f565b82525050565b5f602082019050611b7c5f830184611b5a565b92915050565b5f8060408385031215611b9857611b976119c6565b5b5f611ba5858286016119ed565b9250506020611bb6858286016119ed565b9150509250929050565b5f80fd5b5f80fd5b5f80fd5b5f8083601f840112611be157611be0611bc0565b5b8235905067ffffffffffffffff811115611bfe57611bfd611bc4565b5b602083019150836001820283011115611c1a57611c19611bc8565b5b9250929050565b611c2a81611a2c565b8114611c34575f80fd5b50565b5f81359050611c4581611c21565b92915050565b5f805f805f60808688031215611c6457611c636119c6565b5b5f611c71888289016119ed565b9550506020611c8288828901611a7e565b945050604086013567ffffffffffffffff811115611ca357611ca26119ca565b5b611caf88828901611bcc565b93509350506060611cc288828901611c37565b9150509295509295909350565b5f73ffffffffffffffffffffffffffffffffffffffff82169050919050565b5f611cf882611ccf565b9050919050565b611d0881611cee565b82525050565b611d1781611a2c565b82525050565b61010082015f820151611d325f850182611adf565b506020820151611d456020850182611cff565b506040820151611d586040850182611ad0565b506060820151611d6b6060850182611ad0565b506080820151611d7e6080850182611d0e565b5060a0820151611d9160a0850182611adf565b5060c0820151611da460c0850182611ad0565b5060e0820151611db760e0850182611d0e565b50505050565b5f61010082019050611dd15f830184611d1d565b92915050565b5f805f8060608587031215611def57611dee6119c6565b5b5f611dfc878288016119ed565b9450506020611e0d87828801611a7e565b935050604085013567ffffffffffffffff811115611e2e57611e2d6119ca565b5b611e3a87828801611bcc565b925092505092959194509250565b5f805f805f60808688031215611e6157611e606119c6565b5b5f611e6e888289016119ed565b9550506020611e7f88828901611a7e565b945050604086013567ffffffffffffffff811115611ea057611e9f6119ca565b5b611eac88828901611bcc565b93509350506060611ebf888289016119ed565b9150509295509295909350565b5f805f805f60808688031215611ee557611ee46119c6565b5b5f611ef2888289016119ed565b955050602086013567ffffffffffffffff811115611f1357611f126119ca565b5b611f1f88828901611bcc565b94509450506040611f3288828901611c37565b9250506060611f43888289016119ed565b9150509295509295909350565b611f5981611cee565b8114611f63575f80fd5b50565b5f81359050611f7481611f50565b92915050565b5f8060408385031215611f9057611f8f6119c6565b5b5f611f9d858286016119ed565b9250506020611fae85828601611f66565b9150509250929050565b611fc181611cee565b82525050565b5f602082019050611fda5f830184611fb8565b92915050565b5f8060408385031215611ff657611ff56119c6565b5b5f612003858286016119ed565b925050602061201485828601611c37565b9150509250929050565b5f805f60608486031215612035576120346119c6565b5b5f612042868287016119ed565b935050602061205386828701611a7e565b9250506040612064868287016119ed565b9150509250925092565b5f81519050919050565b5f82825260208201905092915050565b8281835e5f83830152505050565b5f601f19601f8301169050919050565b5f6120b08261206e565b6120ba8185612078565b93506120ca818560208601612088565b6120d381612096565b840191505092915050565b5f6020820190508181035f8301526120f681846120a6565b905092915050565b5f8083601f84011261211357612112611bc0565b5b8235905067ffffffffffffffff8111156121305761212f611bc4565b5b60208301915083600182028301111561214c5761214b611bc8565b5b9250929050565b5f805f805f8060a0878903121561216d5761216c6119c6565b5b5f61217a89828a016119ed565b965050602061218b89828a01611a7e565b955050604061219c89828a01611a7e565b94505060606121ad89828a01611c37565b935050608087013567ffffffffffffffff8111156121ce576121cd6119ca565b5b6121da89828a016120fe565b92509250509295509295509295565b5f805f805f805f805f60e08a8c031215612206576122056119c6565b5b5f6122138c828d016119ed565b99505060206122248c828d01611a7e565b98505060406122358c828d01611a7e565b97505060608a013567ffffffffffffffff811115612256576122556119ca565b5b6122628c828d016120fe565b965096505060806122758c828d01611c37565b94505060a08a013567ffffffffffffffff811115612296576122956119ca565b5b6122a28c828d016120fe565b935093505060c06122b58c828d016119ed565b9150509295985092959850929598565b5f602082840312156122da576122d96119c6565b5b5f6122e784828501611f66565b91505092915050565b5f82825260208201905092915050565b7f46696c65206e6f7420666f756e640000000000000000000000000000000000005f82015250565b5f612334600e836122f0565b915061233f82612300565b602082019050919050565b5f6020820190508181035f83015261236181612328565b9050919050565b7f4e6f74206f776e657200000000000000000000000000000000000000000000005f82015250565b5f61239c6009836122f0565b91506123a782612368565b602082019050919050565b5f6020820190508181035f8301526123c981612390565b9050919050565b7f496e76616c6964206368756e6b20696e646578000000000000000000000000005f82015250565b5f6124046013836122f0565b915061240f826123d0565b602082019050919050565b5f6020820190508181035f830152612431816123f8565b9050919050565b612441816119ce565b82525050565b5f60208201905061245a5f830184612438565b92915050565b7f46696c6520746f6f206c617267650000000000000000000000000000000000005f82015250565b5f612494600e836122f0565b915061249f82612460565b602082019050919050565b5f6020820190508181035f8301526124c181612488565b9050919050565b7f4e487b71000000000000000000000000000000000000000000000000000000005f52601160045260245ffd5b5f6124ff82611a5f565b915061250a83611a5f565b9250828201905080821115612522576125216124c8565b5b92915050565b5f61253282611a5f565b915061253d83611a5f565b9250828203905081811115612555576125546124c8565b5b92915050565b7f4e487b71000000000000000000000000000000000000000000000000000000005f52601260045260245ffd5b5f61259282611a5f565b915061259d83611a5f565b9250826125ad576125ac61255b565b5b828204905092915050565b7f4e6f2061636365737300000000000000000000000000000000000000000000005f82015250565b5f6125ec6009836122f0565b91506125f7826125b8565b602082019050919050565b5f6020820190508181035f830152612619816125e0565b9050919050565b5f81905092915050565b828183375f83830152505050565b5f6126438385612620565b935061265083858461262a565b82840190509392505050565b5f612668828486612638565b91508190509392505050565b7f4368756e6b20746f6f206c6172676500000000000000000000000000000000005f82015250565b5f6126a8600f836122f0565b91506126b382612674565b602082019050919050565b5f6020820190508181035f8301526126d58161269c565b9050919050565b7f496e76616c69642066696c652073697a650000000000000000000000000000005f82015250565b5f6127106011836122f0565b915061271b826126dc565b602082019050919050565b5f6020820190508181035f83015261273d81612704565b9050919050565b7f496e76616c6964206368756e6b20636f756e74000000000000000000000000005f82015250565b5f6127786013836122f0565b915061278382612744565b602082019050919050565b5f6020820190508181035f8301526127a58161276c565b9050919050565b7f46696c6520616c726561647920657869737473000000000000000000000000005f82015250565b5f6127e06013836122f0565b91506127eb826127ac565b602082019050919050565b5f6020820190508181035f83015261280d816127d4565b9050919050565b5f6060820190506128275f830186611b5a565b6128346020830185611b5a565b6128416040830184611a37565b94935050505056fea26469706673582212204249827eae048fc7f4adfbee6d2aa27cb80f0f59eedc98ece5bb34a6dd9e9e9964736f6c634300081a0033",
					"opcodes": "PUSH1 0x80 PUSH1 0x40 MSTORE CALLVALUE DUP1 ISZERO PUSH2 0xF JUMPI PUSH0 DUP1 REVERT JUMPDEST POP PUSH1 0x40 MLOAD PUSH2 0x2ABD CODESIZE SUB DUP1 PUSH2 0x2ABD DUP4 CODECOPY DUP2 DUP2 ADD PUSH1 0x40 MSTORE DUP2 ADD SWAP1 PUSH2 0x31 SWAP2 SWAP1 PUSH2 0x1DE JUMP JUMPDEST DUP1 PUSH0 PUSH20 0xFFFFFFFFFFFFFFFFFFFFFFFFFFFFFFFFFFFFFFFF AND DUP2 PUSH20 0xFFFFFFFFFFFFFFFFFFFFFFFFFFFFFFFFFFFFFFFF AND SUB PUSH2 0xA2 JUMPI PUSH0 PUSH1 0x40 MLOAD PUSH32 0x1E4FBDF700000000000000000000000000000000000000000000000000000000 DUP2 MSTORE PUSH1 0x4 ADD PUSH2 0x99 SWAP2 SWAP1 PUSH2 0x218 JUMP JUMPDEST PUSH1 0x40 MLOAD DUP1 SWAP2 SUB SWAP1 REVERT JUMPDEST PUSH2 0xB1 DUP2 PUSH2 0xBF PUSH1 0x20 SHL PUSH1 0x20 SHR JUMP JUMPDEST POP PUSH1 0x1 DUP1 DUP2 SWAP1 SSTORE POP POP PUSH2 0x231 JUMP JUMPDEST PUSH0 DUP1 PUSH0 SWAP1 SLOAD SWAP1 PUSH2 0x100 EXP SWAP1 DIV PUSH20 0xFFFFFFFFFFFFFFFFFFFFFFFFFFFFFFFFFFFFFFFF AND SWAP1 POP DUP2 PUSH0 DUP1 PUSH2 0x100 EXP DUP2 SLOAD DUP2 PUSH20 0xFFFFFFFFFFFFFFFFFFFFFFFFFFFFFFFFFFFFFFFF MUL NOT AND SWAP1 DUP4 PUSH20 0xFFFFFFFFFFFFFFFFFFFFFFFFFFFFFFFFFFFFFFFF AND MUL OR SWAP1 SSTORE POP DUP2 PUSH20 0xFFFFFFFFFFFFFFFFFFFFFFFFFFFFFFFFFFFFFFFF AND DUP2 PUSH20 0xFFFFFFFFFFFFFFFFFFFFFFFFFFFFFFFFFFFFFFFF AND PUSH32 0x8BE0079C531659141344CD1FD0A4F28419497F9722A3DAAFE3B4186F6B6457E0 PUSH1 0x40 MLOAD PUSH1 0x40 MLOAD DUP1 SWAP2 SUB SWAP1 LOG3 POP POP JUMP JUMPDEST PUSH0 DUP1 REVERT JUMPDEST PUSH0 PUSH20 0xFFFFFFFFFFFFFFFFFFFFFFFFFFFFFFFFFFFFFFFF DUP3 AND SWAP1 POP SWAP2 SWAP1 POP JUMP JUMPDEST PUSH0 PUSH2 0x1AD DUP3 PUSH2 0x184 JUMP JUMPDEST SWAP1 POP SWAP2 SWAP1 POP JUMP JUMPDEST PUSH2 0x1BD DUP2 PUSH2 0x1A3 JUMP JUMPDEST DUP2 EQ PUSH2 0x1C7 JUMPI PUSH0 DUP1 REVERT JUMPDEST POP JUMP JUMPDEST PUSH0 DUP2 MLOAD SWAP1 POP PUSH2 0x1D8 DUP2 PUSH2 0x1B4 JUMP JUMPDEST SWAP3 SWAP2 POP POP JUMP JUMPDEST PUSH0 PUSH1 0x20 DUP3 DUP5 SUB SLT ISZERO PUSH2 0x1F3 JUMPI PUSH2 0x1F2 PUSH2 0x180 JUMP JUMPDEST JUMPDEST PUSH0 PUSH2 0x200 DUP5 DUP3 DUP6 ADD PUSH2 0x1CA JUMP JUMPDEST SWAP2 POP POP SWAP3 SWAP2 POP POP JUMP JUMPDEST PUSH2 0x212 DUP2 PUSH2 0x1A3 JUMP JUMPDEST DUP3 MSTORE POP POP JUMP JUMPDEST PUSH0 PUSH1 0x20 DUP3 ADD SWAP1 POP PUSH2 0x22B PUSH0 DUP4 ADD DUP5 PUSH2 0x209 JUMP JUMPDEST SWAP3 SWAP2 POP POP JUMP JUMPDEST PUSH2 0x287F DUP1 PUSH2 0x23E PUSH0 CODECOPY PUSH0 RETURN INVALID PUSH1 0x80 PUSH1 0x40 MSTORE CALLVALUE DUP1 ISZERO PUSH2 0xF JUMPI PUSH0 DUP1 REVERT JUMPDEST POP PUSH1 0x4 CALLDATASIZE LT PUSH2 0x156 JUMPI PUSH0 CALLDATALOAD PUSH1 0xE0 SHR DUP1 PUSH4 0x83177DB3 GT PUSH2 0xC1 JUMPI DUP1 PUSH4 0xD3BB8B96 GT PUSH2 0x7A JUMPI DUP1 PUSH4 0xD3BB8B96 EQ PUSH2 0x40E JUMPI DUP1 PUSH4 0xD4838061 EQ PUSH2 0x43E JUMPI DUP1 PUSH4 0xD88EEDF6 EQ PUSH2 0x46E JUMPI DUP1 PUSH4 0xDAFC9FC1 EQ PUSH2 0x49E JUMPI DUP1 PUSH4 0xF292671B EQ PUSH2 0x4CE JUMPI DUP1 PUSH4 0xF2FDE38B EQ PUSH2 0x4FE JUMPI PUSH2 0x156 JUMP JUMPDEST DUP1 PUSH4 0x83177DB3 EQ PUSH2 0x300 JUMPI DUP1 PUSH4 0x87EBBF67 EQ PUSH2 0x330 JUMPI DUP1 PUSH4 0x8DA5CB5B EQ PUSH2 0x360 JUMPI DUP1 PUSH4 0xA4F39329 EQ PUSH2 0x37E JUMPI DUP1 PUSH4 0xAB2CBCB3 EQ PUSH2 0x3AE JUMPI DUP1 PUSH4 0xD2B18B60 EQ PUSH2 0x3DE JUMPI PUSH2 0x156 JUMP JUMPDEST DUP1 PUSH4 0x5A9BAF37 GT PUSH2 0x113 JUMPI DUP1 PUSH4 0x5A9BAF37 EQ PUSH2 0x240 JUMPI DUP1 PUSH4 0x65F35371 EQ PUSH2 0x25E JUMPI DUP1 PUSH4 0x6A2B0518 EQ PUSH2 0x28E JUMPI DUP1 PUSH4 0x6E2D7D38 EQ PUSH2 0x2BE JUMPI DUP1 PUSH4 0x715018A6 EQ PUSH2 0x2DA JUMPI DUP1 PUSH4 0x760FC7B8 EQ PUSH2 0x2E4 JUMPI PUSH2 0x156 JUMP JUMPDEST DUP1 PUSH4 0xBEF429B EQ PUSH2 0x15A JUMPI DUP1 PUSH4 0xCEC5F62 EQ PUSH2 0x176 JUMPI DUP1 PUSH4 0x2A4D4280 EQ PUSH2 0x1A6 JUMPI DUP1 PUSH4 0x2F0E14FB EQ PUSH2 0x1D6 JUMPI DUP1 PUSH4 0x49385399 EQ PUSH2 0x1F4 JUMPI DUP1 PUSH4 0x4D73269C EQ PUSH2 0x210 JUMPI JUMPDEST PUSH0 DUP1 REVERT JUMPDEST PUSH2 0x174 PUSH1 0x4 DUP1 CALLDATASIZE SUB DUP2 ADD SWAP1 PUSH2 0x16F SWAP2 SWAP1 PUSH2 0x1A01 JUMP JUMPDEST PUSH2 0x51A JUMP JUMPDEST STOP JUMPDEST PUSH2 0x190 PUSH1 0x4 DUP1 CALLDATASIZE SUB DUP2 ADD SWAP1 PUSH2 0x18B SWAP2 SWAP1 PUSH2 0x1A01 JUMP JUMPDEST PUSH2 0x6CC JUMP JUMPDEST PUSH1 0x40 MLOAD PUSH2 0x19D SWAP2 SWAP1 PUSH2 0x1A46 JUMP JUMPDEST PUSH1 0x40 MLOAD DUP1 SWAP2 SUB SWAP1 RETURN JUMPDEST PUSH2 0x1C0 PUSH1 0x4 DUP1 CALLDATASIZE SUB DUP2 ADD SWAP1 PUSH2 0x1BB SWAP2 SWAP1 PUSH2 0x1A92 JUMP JUMPDEST PUSH2 0x6F5 JUMP JUMPDEST PUSH1 0x40 MLOAD PUSH2 0x1CD SWAP2 SWAP1 PUSH2 0x1B41 JUMP JUMPDEST PUSH1 0x40 MLOAD DUP1 SWAP2 SUB SWAP1 RETURN JUMPDEST PUSH2 0x1DE PUSH2 0x7F5 JUMP JUMPDEST PUSH1 0x40 MLOAD PUSH2 0x1EB SWAP2 SWAP1 PUSH2 0x1B69 JUMP JUMPDEST PUSH1 0x40 MLOAD DUP1 SWAP2 SUB SWAP1 RETURN JUMPDEST PUSH2 0x20E PUSH1 0x4 DUP1 CALLDATASIZE SUB DUP2 ADD SWAP1 PUSH2 0x209 SWAP2 SWAP1 PUSH2 0x1B82 JUMP JUMPDEST PUSH2 0x7FC JUMP JUMPDEST STOP JUMPDEST PUSH2 0x22A PUSH1 0x4 DUP1 CALLDATASIZE SUB DUP2 ADD SWAP1 PUSH2 0x225 SWAP2 SWAP1 PUSH2 0x1C4B JUMP JUMPDEST PUSH2 0x93A JUMP JUMPDEST PUSH1 0x40 MLOAD PUSH2 0x237 SWAP2 SWAP1 PUSH2 0x1A46 JUMP JUMPDEST PUSH1 0x40 MLOAD DUP1 SWAP2 SUB SWAP1 RETURN JUMPDEST PUSH2 0x248 PUSH2 0x957 JUMP JUMPDEST PUSH1 0x40 MLOAD PUSH2 0x255 SWAP2 SWAP1 PUSH2 0x1B69 JUMP JUMPDEST PUSH1 0x40 MLOAD DUP1 SWAP2 SUB SWAP1 RETURN JUMPDEST PUSH2 0x278 PUSH1 0x4 DUP1 CALLDATASIZE SUB DUP2 ADD SWAP1 PUSH2 0x273 SWAP2 SWAP1 PUSH2 0x1A01 JUMP JUMPDEST PUSH2 0x95F JUMP JUMPDEST PUSH1 0x40 MLOAD PUSH2 0x285 SWAP2 SWAP1 PUSH2 0x1DBD JUMP JUMPDEST PUSH1 0x40 MLOAD DUP1 SWAP2 SUB SWAP1 RETURN JUMPDEST PUSH2 0x2A8 PUSH1 0x4 DUP1 CALLDATASIZE SUB DUP2 ADD SWAP1 PUSH2 0x2A3 SWAP2 SWAP1 PUSH2 0x1DD7 JUMP JUMPDEST PUSH2 0xA8D JUMP JUMPDEST PUSH1 0x40 MLOAD PUSH2 0x2B5 SWAP2 SWAP1 PUSH2 0x1A46 JUMP JUMPDEST PUSH1 0x40 MLOAD DUP1 SWAP2 SUB SWAP1 RETURN JUMPDEST PUSH2 0x2D8 PUSH1 0x4 DUP1 CALLDATASIZE SUB DUP2 ADD SWAP1 PUSH2 0x2D3 SWAP2 SWAP1 PUSH2 0x1E48 JUMP JUMPDEST PUSH2 0xAA9 JUMP JUMPDEST STOP JUMPDEST PUSH2 0x2E2 PUSH2 0xABD JUMP JUMPDEST STOP JUMPDEST PUSH2 0x2FE PUSH1 0x4 DUP1 CALLDATASIZE SUB DUP2 ADD SWAP1 PUSH2 0x2F9 SWAP2 SWAP1 PUSH2 0x1ECC JUMP JUMPDEST PUSH2 0xAD0 JUMP JUMPDEST STOP JUMPDEST PUSH2 0x31A PUSH1 0x4 DUP1 CALLDATASIZE SUB DUP2 ADD SWAP1 PUSH2 0x315 SWAP2 SWAP1 PUSH2 0x1F7A JUMP JUMPDEST PUSH2 0xB61 JUMP JUMPDEST PUSH1 0x40 MLOAD PUSH2 0x327 SWAP2 SWAP1 PUSH2 0x1A46 JUMP JUMPDEST PUSH1 0x40 MLOAD DUP1 SWAP2 SUB SWAP1 RETURN JUMPDEST PUSH2 0x34A PUSH1 0x4 DUP1 CALLDATASIZE SUB DUP2 ADD SWAP1 PUSH2 0x345 SWAP2 SWAP1 PUSH2 0x1A01 JUMP JUMPDEST PUSH2 0xBC3 JUMP JUMPDEST PUSH1 0x40 MLOAD PUSH2 0x357 SWAP2 SWAP1 PUSH2 0x1DBD JUMP JUMPDEST PUSH1 0x40 MLOAD DUP1 SWAP2 SUB SWAP1 RETURN JUMPDEST PUSH2 0x368 PUSH2 0xD3A JUMP JUMPDEST PUSH1 0x40 MLOAD PUSH2 0x375 SWAP2 SWAP1 PUSH2 0x1FC7 JUMP JUMPDEST PUSH1 0x40 MLOAD DUP1 SWAP2 SUB SWAP1 RETURN JUMPDEST PUSH2 0x398 PUSH1 0x4 DUP1 CALLDATASIZE SUB DUP2 ADD SWAP1 PUSH2 0x393 SWAP2 SWAP1 PUSH2 0x1FE0 JUMP JUMPDEST PUSH2 0xD61 JUMP JUMPDEST PUSH1 0x40 MLOAD PUSH2 0x3A5 SWAP2 SWAP1 PUSH2 0x1A46 JUMP JUMPDEST PUSH1 0x40 MLOAD DUP1 SWAP2 SUB SWAP1 RETURN JUMPDEST PUSH2 0x3C8 PUSH1 0x4 DUP1 CALLDATASIZE SUB DUP2 ADD SWAP1 PUSH2 0x3C3 SWAP2 SWAP1 PUSH2 0x201E JUMP JUMPDEST PUSH2 0xECC JUMP JUMPDEST PUSH1 0x40 MLOAD PUSH2 0x3D5 SWAP2 SWAP1 PUSH2 0x1A46 JUMP JUMPDEST PUSH1 0x40 MLOAD DUP1 SWAP2 SUB SWAP1 RETURN JUMPDEST PUSH2 0x3F8 PUSH1 0x4 DUP1 CALLDATASIZE SUB DUP2 ADD SWAP1 PUSH2 0x3F3 SWAP2 SWAP1 PUSH2 0x1A92 JUMP JUMPDEST PUSH2 0xF9A JUMP JUMPDEST PUSH1 0x40 MLOAD PUSH2 0x405 SWAP2 SWAP1 PUSH2 0x20DE JUMP JUMPDEST PUSH1 0x40 MLOAD DUP1 SWAP2 SUB SWAP1 RETURN JUMPDEST PUSH2 0x428 PUSH1 0x4 DUP1 CALLDATASIZE SUB DUP2 ADD SWAP1 PUSH2 0x423 SWAP2 SWAP1 PUSH2 0x1A01 JUMP JUMPDEST PUSH2 0x109A JUMP JUMPDEST PUSH1 0x40 MLOAD PUSH2 0x435 SWAP2 SWAP1 PUSH2 0x1B69 JUMP JUMPDEST PUSH1 0x40 MLOAD DUP1 SWAP2 SUB SWAP1 RETURN JUMPDEST PUSH2 0x458 PUSH1 0x4 DUP1 CALLDATASIZE SUB DUP2 ADD SWAP1 PUSH2 0x453 SWAP2 SWAP1 PUSH2 0x2153 JUMP JUMPDEST PUSH2 0x10FF JUMP JUMPDEST PUSH1 0x40 MLOAD PUSH2 0x465 SWAP2 SWAP1 PUSH2 0x1A46 JUMP JUMPDEST PUSH1 0x40 MLOAD DUP1 SWAP2 SUB SWAP1 RETURN JUMPDEST PUSH2 0x488 PUSH1 0x4 DUP1 CALLDATASIZE SUB DUP2 ADD SWAP1 PUSH2 0x483 SWAP2 SWAP1 PUSH2 0x1E48 JUMP JUMPDEST PUSH2 0x111D JUMP JUMPDEST PUSH1 0x40 MLOAD PUSH2 0x495 SWAP2 SWAP1 PUSH2 0x1A46 JUMP JUMPDEST PUSH1 0x40 MLOAD DUP1 SWAP2 SUB SWAP1 RETURN JUMPDEST PUSH2 0x4B8 PUSH1 0x4 DUP1 CALLDATASIZE SUB DUP2 ADD SWAP1 PUSH2 0x4B3 SWAP2 SWAP1 PUSH2 0x21E9 JUMP JUMPDEST PUSH2 0x1237 JUMP JUMPDEST PUSH1 0x40 MLOAD PUSH2 0x4C5 SWAP2 SWAP1 PUSH2 0x1A46 JUMP JUMPDEST PUSH1 0x40 MLOAD DUP1 SWAP2 SUB SWAP1 RETURN JUMPDEST PUSH2 0x4E8 PUSH1 0x4 DUP1 CALLDATASIZE SUB DUP2 ADD SWAP1 PUSH2 0x4E3 SWAP2 SWAP1 PUSH2 0x1A01 JUMP JUMPDEST PUSH2 0x1256 JUMP JUMPDEST PUSH1 0x40 MLOAD PUSH2 0x4F5 SWAP2 SWAP1 PUSH2 0x1B69 JUMP JUMPDEST PUSH1 0x40 MLOAD DUP1 SWAP2 SUB SWAP1 RETURN JUMPDEST PUSH2 0x518 PUSH1 0x4 DUP1 CALLDATASIZE SUB DUP2 ADD SWAP1 PUSH2 0x513 SWAP2 SWAP1 PUSH2 0x22C5 JUMP JUMPDEST PUSH2 0x12BB JUMP JUMPDEST STOP JUMPDEST PUSH2 0x523 DUP2 PUSH2 0x6CC JUMP JUMPDEST PUSH2 0x562 JUMPI PUSH1 0x40 MLOAD PUSH32 0x8C379A000000000000000000000000000000000000000000000000000000000 DUP2 MSTORE PUSH1 0x4 ADD PUSH2 0x559 SWAP1 PUSH2 0x234A JUMP JUMPDEST PUSH1 0x40 MLOAD DUP1 SWAP2 SUB SWAP1 REVERT JUMPDEST CALLER PUSH20 0xFFFFFFFFFFFFFFFFFFFFFFFFFFFFFFFFFFFFFFFF AND PUSH1 0x2 PUSH0 DUP4 DUP2 MSTORE PUSH1 0x20 ADD SWAP1 DUP2 MSTORE PUSH1 0x20 ADD PUSH0 KECCAK256 PUSH1 0x1 ADD PUSH0 SWAP1 SLOAD SWAP1 PUSH2 0x100 EXP SWAP1 DIV PUSH20 0xFFFFFFFFFFFFFFFFFFFFFFFFFFFFFFFFFFFFFFFF AND PUSH20 0xFFFFFFFFFFFFFFFFFFFFFFFFFFFFFFFFFFFFFFFF AND EQ PUSH2 0x603 JUMPI PUSH1 0x40 MLOAD PUSH32 0x8C379A000000000000000000000000000000000000000000000000000000000 DUP2 MSTORE PUSH1 0x4 ADD PUSH2 0x5FA SWAP1 PUSH2 0x23B2 JUMP JUMPDEST PUSH1 0x40 MLOAD DUP1 SWAP2 SUB SWAP1 REVERT JUMPDEST PUSH1 0x2 PUSH0 DUP3 DUP2 MSTORE PUSH1 0x20 ADD SWAP1 DUP2 MSTORE PUSH1 0x20 ADD PUSH0 KECCAK256 PUSH0 DUP1 DUP3 ADD PUSH0 SWAP1 SSTORE PUSH1 0x1 DUP3 ADD PUSH0 PUSH2 0x100 EXP DUP2 SLOAD SWAP1 PUSH20 0xFFFFFFFFFFFFFFFFFFFFFFFFFFFFFFFFFFFFFFFF MUL NOT AND SWAP1 SSTORE PUSH1 0x2 DUP3 ADD PUSH0 SWAP1 SSTORE PUSH1 0x3 DUP3 ADD PUSH0 SWAP1 SSTORE PUSH1 0x4 DUP3 ADD PUSH0 PUSH2 0x100 EXP DUP2 SLOAD SWAP1 PUSH1 0xFF MUL NOT AND SWAP1 SSTORE PUSH1 0x5 DUP3 ADD PUSH0 SWAP1 SSTORE PUSH1 0x6 DUP3 ADD PUSH0 SWAP1 SSTORE PUSH1 0x7 DUP3 ADD PUSH0 PUSH2 0x100 EXP DUP2 SLOAD SWAP1 PUSH1 0xFF MUL NOT AND SWAP1 SSTORE POP POP CALLER PUSH20 0xFFFFFFFFFFFFFFFFFFFFFFFFFFFFFFFFFFFFFFFF AND DUP2 PUSH32 0x7BE12496AE22D3D9A9E65382C3ECFE9066F06C542A3A22DD9C9C2DEB159DE645 PUSH1 0x40 MLOAD PUSH1 0x40 MLOAD DUP1 SWAP2 SUB SWAP1 LOG3 POP JUMP JUMPDEST PUSH0 PUSH1 0x2 PUSH0 DUP4 DUP2 MSTORE PUSH1 0x20 ADD SWAP1 DUP2 MSTORE PUSH1 0x20 ADD PUSH0 KECCAK256 PUSH1 0x7 ADD PUSH0 SWAP1 SLOAD SWAP1 PUSH2 0x100 EXP SWAP1 DIV PUSH1 0xFF AND SWAP1 POP SWAP2 SWAP1 POP JUMP JUMPDEST PUSH2 0x6FD PUSH2 0x193F JUMP JUMPDEST PUSH2 0x706 DUP4 PUSH2 0x6CC JUMP JUMPDEST PUSH2 0x745 JUMPI PUSH1 0x40 MLOAD PUSH32 0x8C379A000000000000000000000000000000000000000000000000000000000 DUP2 MSTORE PUSH1 0x4 ADD PUSH2 0x73C SWAP1 PUSH2 0x234A JUMP JUMPDEST PUSH1 0x40 MLOAD DUP1 SWAP2 SUB SWAP1 REVERT JUMPDEST PUSH1 0x2 PUSH0 DUP5 DUP2 MSTORE PUSH1 0x20 ADD SWAP1 DUP2 MSTORE PUSH1 0x20 ADD PUSH0 KECCAK256 PUSH1 0x6 ADD SLOAD DUP3 LT PUSH2 0x79B JUMPI PUSH1 0x40 MLOAD PUSH32 0x8C379A000000000000000000000000000000000000000000000000000000000 DUP2 MSTORE PUSH1 0x4 ADD PUSH2 0x792 SWAP1 PUSH2 0x241A JUMP JUMPDEST PUSH1 0x40 MLOAD DUP1 SWAP2 SUB SWAP1 REVERT JUMPDEST PUSH1 0x3 PUSH0 DUP5 DUP2 MSTORE PUSH1 0x20 ADD SWAP1 DUP2 MSTORE PUSH1 0x20 ADD PUSH0 KECCAK256 PUSH0 DUP4 DUP2 MSTORE PUSH1 0x20 ADD SWAP1 DUP2 MSTORE PUSH1 0x20 ADD PUSH0 KECCAK256 PUSH1 0x40 MLOAD DUP1 PUSH1 0x80 ADD PUSH1 0x40 MSTORE SWAP1 DUP2 PUSH0 DUP3 ADD SLOAD DUP2 MSTORE PUSH1 0x20 ADD PUSH1 0x1 DUP3 ADD SLOAD DUP2 MSTORE PUSH1 0x20 ADD PUSH1 0x2 DUP3 ADD SLOAD DUP2 MSTORE PUSH1 0x20 ADD PUSH1 0x3 DUP3 ADD SLOAD DUP2 MSTORE POP POP SWAP1 POP SWAP3 SWAP2 POP POP JUMP JUMPDEST PUSH3 0x100000 DUP2 JUMP JUMPDEST PUSH2 0x805 DUP3 PUSH2 0x6CC JUMP JUMPDEST PUSH2 0x844 JUMPI PUSH1 0x40 MLOAD PUSH32 0x8C379A000000000000000000000000000000000000000000000000000000000 DUP2 MSTORE PUSH1 0x4 ADD PUSH2 0x83B SWAP1 PUSH2 0x234A JUMP JUMPDEST PUSH1 0x40 MLOAD DUP1 SWAP2 SUB SWAP1 REVERT JUMPDEST CALLER PUSH20 0xFFFFFFFFFFFFFFFFFFFFFFFFFFFFFFFFFFFFFFFF AND PUSH1 0x2 PUSH0 DUP5 DUP2 MSTORE PUSH1 0x20 ADD SWAP1 DUP2 MSTORE PUSH1 0x20 ADD PUSH0 KECCAK256 PUSH1 0x1 ADD PUSH0 SWAP1 SLOAD SWAP1 PUSH2 0x100 EXP SWAP1 DIV PUSH20 0xFFFFFFFFFFFFFFFFFFFFFFFFFFFFFFFFFFFFFFFF AND PUSH20 0xFFFFFFFFFFFFFFFFFFFFFFFFFFFFFFFFFFFFFFFF AND EQ PUSH2 0x8E5 JUMPI PUSH1 0x40 MLOAD PUSH32 0x8C379A000000000000000000000000000000000000000000000000000000000 DUP2 MSTORE PUSH1 0x4 ADD PUSH2 0x8DC SWAP1 PUSH2 0x23B2 JUMP JUMPDEST PUSH1 0x40 MLOAD DUP1 SWAP2 SUB SWAP1 REVERT JUMPDEST DUP1 PUSH1 0x2 PUSH0 DUP5 DUP2 MSTORE PUSH1 0x20 ADD SWAP1 DUP2 MSTORE PUSH1 0x20 ADD PUSH0 KECCAK256 PUSH1 0x5 ADD DUP2 SWAP1 SSTORE POP DUP2 PUSH32 0x22FCD0C181FEFEC176F74B8AF4B0D73DDE52A16A6127956654704B1B311193F2 DUP3 PUSH1 0x40 MLOAD PUSH2 0x92E SWAP2 SWAP1 PUSH2 0x2447 JUMP JUMPDEST PUSH1 0x40 MLOAD DUP1 SWAP2 SUB SWAP1 LOG2 POP POP JUMP JUMPDEST PUSH0 PUSH2 0x94A DUP7 DUP7 DUP7 DUP7 PUSH0 DUP1 SHL PUSH2 0x133F JUMP JUMPDEST PUSH1 0x1 SWAP1 POP SWAP6 SWAP5 POP POP POP POP POP JUMP JUMPDEST PUSH4 0x40000000 DUP2 JUMP JUMPDEST PUSH2 0x967 PUSH2 0x1969 JUMP JUMPDEST PUSH2 0x970 DUP3 PUSH2 0x6CC JUMP JUMPDEST PUSH2 0x9AF JUMPI PUSH1 0x40 MLOAD PUSH32 0x8C379A000000000000000000000000000000000000000000000000000000000 DUP2 MSTORE PUSH1 0x4 ADD PUSH2 0x9A6 SWAP1 PUSH2 0x234A JUMP JUMPDEST PUSH1 0x40 MLOAD DUP1 SWAP2 SUB SWAP1 REVERT JUMPDEST PUSH1 0x2 PUSH0 DUP4 DUP2 MSTORE PUSH1 0x20 ADD SWAP1 DUP2 MSTORE PUSH1 0x20 ADD PUSH0 KECCAK256 PUSH1 0x40 MLOAD DUP1 PUSH2 0x100 ADD PUSH1 0x40 MSTORE SWAP1 DUP2 PUSH0 DUP3 ADD SLOAD DUP2 MSTORE PUSH1 0x20 ADD PUSH1 0x1 DUP3 ADD PUSH0 SWAP1 SLOAD SWAP1 PUSH2 0x100 EXP SWAP1 DIV PUSH20 0xFFFFFFFFFFFFFFFFFFFFFFFFFFFFFFFFFFFFFFFF AND PUSH20 0xFFFFFFFFFFFFFFFFFFFFFFFFFFFFFFFFFFFFFFFF AND PUSH20 0xFFFFFFFFFFFFFFFFFFFFFFFFFFFFFFFFFFFFFFFF AND DUP2 MSTORE PUSH1 0x20 ADD PUSH1 0x2 DUP3 ADD SLOAD DUP2 MSTORE PUSH1 0x20 ADD PUSH1 0x3 DUP3 ADD SLOAD DUP2 MSTORE PUSH1 0x20 ADD PUSH1 0x4 DUP3 ADD PUSH0 SWAP1 SLOAD SWAP1 PUSH2 0x100 EXP SWAP1 DIV PUSH1 0xFF AND ISZERO ISZERO ISZERO ISZERO DUP2 MSTORE PUSH1 0x20 ADD PUSH1 0x5 DUP3 ADD SLOAD DUP2 MSTORE PUSH1 0x20 ADD PUSH1 0x6 DUP3 ADD SLOAD DUP2 MSTORE PUSH1 0x20 ADD PUSH1 0x7 DUP3 ADD PUSH0 SWAP1 SLOAD SWAP1 PUSH2 0x100 EXP SWAP1 DIV PUSH1 0xFF AND ISZERO ISZERO ISZERO ISZERO DUP2 MSTORE POP POP SWAP1 POP SWAP2 SWAP1 POP JUMP JUMPDEST PUSH0 PUSH2 0xA9D DUP6 DUP6 DUP6 DUP6 PUSH0 DUP1 SHL PUSH2 0x133F JUMP JUMPDEST PUSH1 0x1 SWAP1 POP SWAP5 SWAP4 POP POP POP POP JUMP JUMPDEST PUSH2 0xAB6 DUP6 DUP6 DUP6 DUP6 DUP6 PUSH2 0x133F JUMP JUMPDEST POP POP POP POP POP JUMP JUMPDEST PUSH2 0xAC5 PUSH2 0x1538 JUMP JUMPDEST PUSH2 0xACE PUSH0 PUSH2 0x15BF JUMP JUMPDEST JUMP JUMPDEST PUSH4 0x40000000 DUP5 DUP5 SWAP1 POP GT ISZERO PUSH2 0xB1A JUMPI PUSH1 0x40 MLOAD PUSH32 0x8C379A000000000000000000000000000000000000000000000000000000000 DUP2 MSTORE PUSH1 0x4 ADD PUSH2 0xB11 SWAP1 PUSH2 0x24AA JUMP JUMPDEST PUSH1 0x40 MLOAD DUP1 SWAP2 SUB SWAP1 REVERT JUMPDEST PUSH0 PUSH3 0x100000 PUSH1 0x1 PUSH3 0x100000 DUP8 DUP8 SWAP1 POP PUSH2 0xB33 SWAP2 SWAP1 PUSH2 0x24F5 JUMP JUMPDEST PUSH2 0xB3D SWAP2 SWAP1 PUSH2 0x2528 JUMP JUMPDEST PUSH2 0xB47 SWAP2 SWAP1 PUSH2 0x2588 JUMP JUMPDEST SWAP1 POP PUSH2 0xB59 DUP7 DUP7 DUP7 SWAP1 POP DUP4 DUP7 DUP7 PUSH2 0x1680 JUMP JUMPDEST POP POP POP POP POP POP JUMP JUMPDEST PUSH0 PUSH1 0x4 PUSH0 DUP5 DUP2 MSTORE PUSH1 0x20 ADD SWAP1 DUP2 MSTORE PUSH1 0x20 ADD PUSH0 KECCAK256 PUSH0 DUP4 PUSH20 0xFFFFFFFFFFFFFFFFFFFFFFFFFFFFFFFFFFFFFFFF AND PUSH20 0xFFFFFFFFFFFFFFFFFFFFFFFFFFFFFFFFFFFFFFFF AND DUP2 MSTORE PUSH1 0x20 ADD SWAP1 DUP2 MSTORE PUSH1 0x20 ADD PUSH0 KECCAK256 PUSH0 SWAP1 SLOAD SWAP1 PUSH2 0x100 EXP SWAP1 DIV PUSH1 0xFF AND SWAP1 POP SWAP3 SWAP2 POP POP JUMP JUMPDEST PUSH2 0xBCB PUSH2 0x1969 JUMP JUMPDEST PUSH2 0xBD4 DUP3 PUSH2 0x6CC JUMP JUMPDEST PUSH2 0xC13 JUMPI PUSH1 0x40 MLOAD PUSH32 0x8C379A000000000000000000000000000000000000000000000000000000000 DUP2 MSTORE PUSH1 0x4 ADD PUSH2 0xC0A SWAP1 PUSH2 0x234A JUMP JUMPDEST PUSH1 0x40 MLOAD DUP1 SWAP2 SUB SWAP1 REVERT JUMPDEST PUSH2 0xC1D DUP3 CALLER PUSH2 0xB61 JUMP JUMPDEST PUSH2 0xC5C JUMPI PUSH1 0x40 MLOAD PUSH32 0x8C379A000000000000000000000000000000000000000000000000000000000 DUP2 MSTORE PUSH1 0x4 ADD PUSH2 0xC53 SWAP1 PUSH2 0x2602 JUMP JUMPDEST PUSH1 0x40 MLOAD DUP1 SWAP2 SUB SWAP1 REVERT JUMPDEST PUSH1 0x2 PUSH0 DUP4 DUP2 MSTORE PUSH1 0x20 ADD SWAP1 DUP2 MSTORE PUSH1 0x20 ADD PUSH0 KECCAK256 PUSH1 0x40 MLOAD DUP1 PUSH2 0x100 ADD PUSH1 0x40 MSTORE SWAP1 DUP2 PUSH0 DUP3 ADD SLOAD DUP2 MSTORE PUSH1 0x20 ADD PUSH1 0x1 DUP3 ADD PUSH0 SWAP1 SLOAD SWAP1 PUSH2 0x100 EXP SWAP1 DIV PUSH20 0xFFFFFFFFFFFFFFFFFFFFFFFFFFFFFFFFFFFFFFFF AND PUSH20 0xFFFFFFFFFFFFFFFFFFFFFFFFFFFFFFFFFFFFFFFF AND PUSH20 0xFFFFFFFFFFFFFFFFFFFFFFFFFFFFFFFFFFFFFFFF AND DUP2 MSTORE PUSH1 0x20 ADD PUSH1 0x2 DUP3 ADD SLOAD DUP2 MSTORE PUSH1 0x20 ADD PUSH1 0x3 DUP3 ADD SLOAD DUP2 MSTORE PUSH1 0x20 ADD PUSH1 0x4 DUP3 ADD PUSH0 SWAP1 SLOAD SWAP1 PUSH2 0x100 EXP SWAP1 DIV PUSH1 0xFF AND ISZERO ISZERO ISZERO ISZERO DUP2 MSTORE PUSH1 0x20 ADD PUSH1 0x5 DUP3 ADD SLOAD DUP2 MSTORE PUSH1 0x20 ADD PUSH1 0x6 DUP3 ADD SLOAD DUP2 MSTORE PUSH1 0x20 ADD PUSH1 0x7 DUP3 ADD PUSH0 SWAP1 SLOAD SWAP1 PUSH2 0x100 EXP SWAP1 DIV PUSH1 0xFF AND ISZERO ISZERO ISZERO ISZERO DUP2 MSTORE POP POP SWAP1 POP SWAP2 SWAP1 POP JUMP JUMPDEST PUSH0 DUP1 PUSH0 SWAP1 SLOAD SWAP1 PUSH2 0x100 EXP SWAP1 DIV PUSH20 0xFFFFFFFFFFFFFFFFFFFFFFFFFFFFFFFFFFFFFFFF AND SWAP1 POP SWAP1 JUMP JUMPDEST PUSH0 PUSH2 0xD6B DUP4 PUSH2 0x6CC JUMP JUMPDEST PUSH2 0xDAA JUMPI PUSH1 0x40 MLOAD PUSH32 0x8C379A000000000000000000000000000000000000000000000000000000000 DUP2 MSTORE PUSH1 0x4 ADD PUSH2 0xDA1 SWAP1 PUSH2 0x234A JUMP JUMPDEST PUSH1 0x40 MLOAD DUP1 SWAP2 SUB SWAP1 REVERT JUMPDEST CALLER PUSH20 0xFFFFFFFFFFFFFFFFFFFFFFFFFFFFFFFFFFFFFFFF AND PUSH1 0x2 PUSH0 DUP6 DUP2 MSTORE PUSH1 0x20 ADD SWAP1 DUP2 MSTORE PUSH1 0x20 ADD PUSH0 KECCAK256 PUSH1 0x1 ADD PUSH0 SWAP1 SLOAD SWAP1 PUSH2 0x100 EXP SWAP1 DIV PUSH20 0xFFFFFFFFFFFFFFFFFFFFFFFFFFFFFFFFFFFFFFFF AND PUSH20 0xFFFFFFFFFFFFFFFFFFFFFFFFFFFFFFFFFFFFFFFF AND EQ PUSH2 0xE4B JUMPI PUSH1 0x40 MLOAD PUSH32 0x8C379A000000000000000000000000000000000000000000000000000000000 DUP2 MSTORE PUSH1 0x4 ADD PUSH2 0xE42 SWAP1 PUSH2 0x23B2 JUMP JUMPDEST PUSH1 0x40 MLOAD DUP1 SWAP2 SUB SWAP1 REVERT JUMPDEST DUP2 PUSH1 0x2 PUSH0 DUP6 DUP2 MSTORE PUSH1 0x20 ADD SWAP1 DUP2 MSTORE PUSH1 0x20 ADD PUSH0 KECCAK256 PUSH1 0x4 ADD PUSH0 PUSH2 0x100 EXP DUP2 SLOAD DUP2 PUSH1 0xFF MUL NOT AND SWAP1 DUP4 ISZERO ISZERO MUL OR SWAP1 SSTORE POP DUP3 PUSH32 0x22FCD0C181FEFEC176F74B8AF4B0D73DDE52A16A6127956654704B1B311193F2 PUSH1 0x2 PUSH0 DUP7 DUP2 MSTORE PUSH1 0x20 ADD SWAP1 DUP2 MSTORE PUSH1 0x20 ADD PUSH0 KECCAK256 PUSH1 0x5 ADD SLOAD PUSH1 0x40 MLOAD PUSH2 0xEBA SWAP2 SWAP1 PUSH2 0x2447 JUMP JUMPDEST PUSH1 0x40 MLOAD DUP1 SWAP2 SUB SWAP1 LOG2 PUSH1 0x1 SWAP1 POP SWAP3 SWAP2 POP POP JUMP JUMPDEST PUSH0 PUSH2 0xED6 DUP5 PUSH2 0x6CC JUMP JUMPDEST PUSH2 0xF15 JUMPI PUSH1 0x40 MLOAD PUSH32 0x8C379A000000000000000000000000000000000000000000000000000000000 DUP2 MSTORE PUSH1 0x4 ADD PUSH2 0xF0C SWAP1 PUSH2 0x234A JUMP JUMPDEST PUSH1 0x40 MLOAD DUP1 SWAP2 SUB SWAP1 REVERT JUMPDEST PUSH1 0x2 PUSH0 DUP6 DUP2 MSTORE PUSH1 0x20 ADD SWAP1 DUP2 MSTORE PUSH1 0x20 ADD PUSH0 KECCAK256 PUSH1 0x6 ADD SLOAD DUP4 LT PUSH2 0xF6B JUMPI PUSH1 0x40 MLOAD PUSH32 0x8C379A000000000000000000000000000000000000000000000000000000000 DUP2 MSTORE PUSH1 0x4 ADD PUSH2 0xF62 SWAP1 PUSH2 0x241A JUMP JUMPDEST PUSH1 0x40 MLOAD DUP1 SWAP2 SUB SWAP1 REVERT JUMPDEST DUP2 PUSH1 0x3 PUSH0 DUP7 DUP2 MSTORE PUSH1 0x20 ADD SWAP1 DUP2 MSTORE PUSH1 0x20 ADD PUSH0 KECCAK256 PUSH0 DUP6 DUP2 MSTORE PUSH1 0x20 ADD SWAP1 DUP2 MSTORE PUSH1 0x20 ADD PUSH0 KECCAK256 PUSH1 0x2 ADD SLOAD EQ SWAP1 POP SWAP4 SWAP3 POP POP POP JUMP JUMPDEST PUSH1 0x60 PUSH2 0xFA5 DUP4 PUSH2 0x6CC JUMP JUMPDEST PUSH2 0xFE4 JUMPI PUSH1 0x40 MLOAD PUSH32 0x8C379A000000000000000000000000000000000000000000000000000000000 DUP2 MSTORE PUSH1 0x4 ADD PUSH2 0xFDB SWAP1 PUSH2 0x234A JUMP JUMPDEST PUSH1 0x40 MLOAD DUP1 SWAP2 SUB SWAP1 REVERT JUMPDEST PUSH2 0xFEE DUP4 CALLER PUSH2 0xB61 JUMP JUMPDEST PUSH2 0x102D JUMPI PUSH1 0x40 MLOAD PUSH32 0x8C379A000000000000000000000000000000000000000000000000000000000 DUP2 MSTORE PUSH1 0x4 ADD PUSH2 0x1024 SWAP1 PUSH2 0x2602 JUMP JUMPDEST PUSH1 0x40 MLOAD DUP1 SWAP2 SUB SWAP1 REVERT JUMPDEST PUSH1 0x2 PUSH0 DUP5 DUP2 MSTORE PUSH1 0x20 ADD SWAP1 DUP2 MSTORE PUSH1 0x20 ADD PUSH0 KECCAK256 PUSH1 0x6 ADD SLOAD DUP3 LT PUSH2 0x1083 JUMPI PUSH1 0x40 MLOAD PUSH32 0x8C379A000000000000000000000000000000000000000000000000000000000 DUP2 MSTORE PUSH1 0x4 ADD PUSH2 0x107A SWAP1 PUSH2 0x241A JUMP JUMPDEST PUSH1 0x40 MLOAD DUP1 SWAP2 SUB SWAP1 REVERT JUMPDEST PUSH1 0x40 MLOAD DUP1 PUSH1 0x20 ADD PUSH1 0x40 MSTORE DUP1 PUSH0 DUP2 MSTORE POP SWAP1 POP SWAP3 SWAP2 POP POP JUMP JUMPDEST PUSH0 PUSH2 0x10A4 DUP3 PUSH2 0x6CC JUMP JUMPDEST PUSH2 0x10E3 JUMPI PUSH1 0x40 MLOAD PUSH32 0x8C379A000000000000000000000000000000000000000000000000000000000 DUP2 MSTORE PUSH1 0x4 ADD PUSH2 0x10DA SWAP1 PUSH2 0x234A JUMP JUMPDEST PUSH1 0x40 MLOAD DUP1 SWAP2 SUB SWAP1 REVERT JUMPDEST PUSH1 0x2 PUSH0 DUP4 DUP2 MSTORE PUSH1 0x20 ADD SWAP1 DUP2 MSTORE PUSH1 0x20 ADD PUSH0 KECCAK256 PUSH1 0x2 ADD SLOAD SWAP1 POP SWAP2 SWAP1 POP JUMP JUMPDEST PUSH0 PUSH2 0x110F DUP8 DUP8 DUP8 DUP8 PUSH0 DUP1 SHL PUSH2 0x1680 JUMP JUMPDEST PUSH1 0x1 SWAP1 POP SWAP7 SWAP6 POP POP POP POP POP POP JUMP JUMPDEST PUSH0 PUSH2 0x1127 DUP7 PUSH2 0x6CC JUMP JUMPDEST PUSH2 0x1166 JUMPI PUSH1 0x40 MLOAD PUSH32 0x8C379A000000000000000000000000000000000000000000000000000000000 DUP2 MSTORE PUSH1 0x4 ADD PUSH2 0x115D SWAP1 PUSH2 0x234A JUMP JUMPDEST PUSH1 0x40 MLOAD DUP1 SWAP2 SUB SWAP1 REVERT JUMPDEST PUSH1 0x2 PUSH0 DUP8 DUP2 MSTORE PUSH1 0x20 ADD SWAP1 DUP2 MSTORE PUSH1 0x20 ADD PUSH0 KECCAK256 PUSH1 0x6 ADD SLOAD DUP6 LT PUSH2 0x11BC JUMPI PUSH1 0x40 MLOAD PUSH32 0x8C379A000000000000000000000000000000000000000000000000000000000 DUP2 MSTORE PUSH1 0x4 ADD PUSH2 0x11B3 SWAP1 PUSH2 0x241A JUMP JUMPDEST PUSH1 0x40 MLOAD DUP1 SWAP2 SUB SWAP1 REVERT JUMPDEST PUSH0 PUSH1 0x3 PUSH0 DUP9 DUP2 MSTORE PUSH1 0x20 ADD SWAP1 DUP2 MSTORE PUSH1 0x20 ADD PUSH0 KECCAK256 PUSH0 DUP8 DUP2 MSTORE PUSH1 0x20 ADD SWAP1 DUP2 MSTORE PUSH1 0x20 ADD PUSH0 KECCAK256 SWAP1 POP PUSH0 DUP6 DUP6 PUSH1 0x40 MLOAD PUSH2 0x11F0 SWAP3 SWAP2 SWAP1 PUSH2 0x265C JUMP JUMPDEST PUSH1 0x40 MLOAD DUP1 SWAP2 SUB SWAP1 KECCAK256 SWAP1 POP PUSH0 DUP1 SHL DUP5 EQ PUSH2 0x1222 JUMPI DUP4 DUP3 PUSH1 0x3 ADD SLOAD EQ DUP1 ISZERO PUSH2 0x1219 JUMPI POP DUP1 DUP3 PUSH1 0x2 ADD SLOAD EQ JUMPDEST SWAP3 POP POP POP PUSH2 0x122E JUMP JUMPDEST DUP1 DUP3 PUSH1 0x2 ADD SLOAD EQ SWAP3 POP POP POP JUMPDEST SWAP6 SWAP5 POP POP POP POP POP JUMP JUMPDEST PUSH0 PUSH2 0x1245 DUP11 DUP11 DUP11 DUP9 DUP7 PUSH2 0x1680 JUMP JUMPDEST PUSH1 0x1 SWAP1 POP SWAP10 SWAP9 POP POP POP POP POP POP POP POP POP JUMP JUMPDEST PUSH0 PUSH2 0x1260 DUP3 PUSH2 0x6CC JUMP JUMPDEST PUSH2 0x129F JUMPI PUSH1 0x40 MLOAD PUSH32 0x8C379A000000000000000000000000000000000000000000000000000000000 DUP2 MSTORE PUSH1 0x4 ADD PUSH2 0x1296 SWAP1 PUSH2 0x234A JUMP JUMPDEST PUSH1 0x40 MLOAD DUP1 SWAP2 SUB SWAP1 REVERT JUMPDEST PUSH1 0x2 PUSH0 DUP4 DUP2 MSTORE PUSH1 0x20 ADD SWAP1 DUP2 MSTORE PUSH1 0x20 ADD PUSH0 KECCAK256 PUSH1 0x6 ADD SLOAD SWAP1 POP SWAP2 SWAP1 POP JUMP JUMPDEST PUSH2 0x12C3 PUSH2 0x1538 JUMP JUMPDEST PUSH0 PUSH20 0xFFFFFFFFFFFFFFFFFFFFFFFFFFFFFFFFFFFFFFFF AND DUP2 PUSH20 0xFFFFFFFFFFFFFFFFFFFFFFFFFFFFFFFFFFFFFFFF AND SUB PUSH2 0x1333 JUMPI PUSH0 PUSH1 0x40 MLOAD PUSH32 0x1E4FBDF700000000000000000000000000000000000000000000000000000000 DUP2 MSTORE PUSH1 0x4 ADD PUSH2 0x132A SWAP2 SWAP1 PUSH2 0x1FC7 JUMP JUMPDEST PUSH1 0x40 MLOAD DUP1 SWAP2 SUB SWAP1 REVERT JUMPDEST PUSH2 0x133C DUP2 PUSH2 0x15BF JUMP JUMPDEST POP JUMP JUMPDEST PUSH2 0x1348 DUP6 PUSH2 0x6CC JUMP JUMPDEST PUSH2 0x1387 JUMPI PUSH1 0x40 MLOAD PUSH32 0x8C379A000000000000000000000000000000000000000000000000000000000 DUP2 MSTORE PUSH1 0x4 ADD PUSH2 0x137E SWAP1 PUSH2 0x234A JUMP JUMPDEST PUSH1 0x40 MLOAD DUP1 SWAP2 SUB SWAP1 REVERT JUMPDEST PUSH2 0x1391 DUP6 CALLER PUSH2 0xB61 JUMP JUMPDEST PUSH2 0x13D0 JUMPI PUSH1 0x40 MLOAD PUSH32 0x8C379A000000000000000000000000000000000000000000000000000000000 DUP2 MSTORE PUSH1 0x4 ADD PUSH2 0x13C7 SWAP1 PUSH2 0x2602 JUMP JUMPDEST PUSH1 0x40 MLOAD DUP1 SWAP2 SUB SWAP1 REVERT JUMPDEST PUSH3 0x100000 DUP4 DUP4 SWAP1 POP GT ISZERO PUSH2 0x1419 JUMPI PUSH1 0x40 MLOAD PUSH32 0x8C379A000000000000000000000000000000000000000000000000000000000 DUP2 MSTORE PUSH1 0x4 ADD PUSH2 0x1410 SWAP1 PUSH2 0x26BE JUMP JUMPDEST PUSH1 0x40 MLOAD DUP1 SWAP2 SUB SWAP1 REVERT JUMPDEST PUSH1 0x2 PUSH0 DUP7 DUP2 MSTORE PUSH1 0x20 ADD SWAP1 DUP2 MSTORE PUSH1 0x20 ADD PUSH0 KECCAK256 PUSH1 0x6 ADD SLOAD DUP5 LT PUSH2 0x146F JUMPI PUSH1 0x40 MLOAD PUSH32 0x8C379A000000000000000000000000000000000000000000000000000000000 DUP2 MSTORE PUSH1 0x4 ADD PUSH2 0x1466 SWAP1 PUSH2 0x241A JUMP JUMPDEST PUSH1 0x40 MLOAD DUP1 SWAP2 SUB SWAP1 REVERT JUMPDEST PUSH0 DUP4 DUP4 PUSH1 0x40 MLOAD PUSH2 0x1480 SWAP3 SWAP2 SWAP1 PUSH2 0x265C JUMP JUMPDEST PUSH1 0x40 MLOAD DUP1 SWAP2 SUB SWAP1 KECCAK256 SWAP1 POP PUSH1 0x40 MLOAD DUP1 PUSH1 0x80 ADD PUSH1 0x40 MSTORE DUP1 DUP7 DUP2 MSTORE PUSH1 0x20 ADD DUP6 DUP6 SWAP1 POP DUP2 MSTORE PUSH1 0x20 ADD DUP3 DUP2 MSTORE PUSH1 0x20 ADD DUP4 DUP2 MSTORE POP PUSH1 0x3 PUSH0 DUP9 DUP2 MSTORE PUSH1 0x20 ADD SWAP1 DUP2 MSTORE PUSH1 0x20 ADD PUSH0 KECCAK256 PUSH0 DUP8 DUP2 MSTORE PUSH1 0x20 ADD SWAP1 DUP2 MSTORE PUSH1 0x20 ADD PUSH0 KECCAK256 PUSH0 DUP3 ADD MLOAD DUP2 PUSH0 ADD SSTORE PUSH1 0x20 DUP3 ADD MLOAD DUP2 PUSH1 0x1 ADD SSTORE PUSH1 0x40 DUP3 ADD MLOAD DUP2 PUSH1 0x2 ADD SSTORE PUSH1 0x60 DUP3 ADD MLOAD DUP2 PUSH1 0x3 ADD SSTORE SWAP1 POP POP DUP5 DUP7 PUSH32 0x94A77D760348EB6B0079A077B9C0A33CB2A9381FEDCF68792ED2D6356C97CF0 DUP4 PUSH1 0x40 MLOAD PUSH2 0x1528 SWAP2 SWAP1 PUSH2 0x2447 JUMP JUMPDEST PUSH1 0x40 MLOAD DUP1 SWAP2 SUB SWAP1 LOG3 POP POP POP POP POP POP JUMP JUMPDEST PUSH2 0x1540 PUSH2 0x1938 JUMP JUMPDEST PUSH20 0xFFFFFFFFFFFFFFFFFFFFFFFFFFFFFFFFFFFFFFFF AND PUSH2 0x155E PUSH2 0xD3A JUMP JUMPDEST PUSH20 0xFFFFFFFFFFFFFFFFFFFFFFFFFFFFFFFFFFFFFFFF AND EQ PUSH2 0x15BD JUMPI PUSH2 0x1581 PUSH2 0x1938 JUMP JUMPDEST PUSH1 0x40 MLOAD PUSH32 0x118CDAA700000000000000000000000000000000000000000000000000000000 DUP2 MSTORE PUSH1 0x4 ADD PUSH2 0x15B4 SWAP2 SWAP1 PUSH2 0x1FC7 JUMP JUMPDEST PUSH1 0x40 MLOAD DUP1 SWAP2 SUB SWAP1 REVERT JUMPDEST JUMP JUMPDEST PUSH0 DUP1 PUSH0 SWAP1 SLOAD SWAP1 PUSH2 0x100 EXP SWAP1 DIV PUSH20 0xFFFFFFFFFFFFFFFFFFFFFFFFFFFFFFFFFFFFFFFF AND SWAP1 POP DUP2 PUSH0 DUP1 PUSH2 0x100 EXP DUP2 SLOAD DUP2 PUSH20 0xFFFFFFFFFFFFFFFFFFFFFFFFFFFFFFFFFFFFFFFF MUL NOT AND SWAP1 DUP4 PUSH20 0xFFFFFFFFFFFFFFFFFFFFFFFFFFFFFFFFFFFFFFFF AND MUL OR SWAP1 SSTORE POP DUP2 PUSH20 0xFFFFFFFFFFFFFFFFFFFFFFFFFFFFFFFFFFFFFFFF AND DUP2 PUSH20 0xFFFFFFFFFFFFFFFFFFFFFFFFFFFFFFFFFFFFFFFF AND PUSH32 0x8BE0079C531659141344CD1FD0A4F28419497F9722A3DAAFE3B4186F6B6457E0 PUSH1 0x40 MLOAD PUSH1 0x40 MLOAD DUP1 SWAP2 SUB SWAP1 LOG3 POP POP JUMP JUMPDEST PUSH0 DUP5 GT DUP1 ISZERO PUSH2 0x1693 JUMPI POP PUSH4 0x40000000 DUP5 GT ISZERO JUMPDEST PUSH2 0x16D2 JUMPI PUSH1 0x40 MLOAD PUSH32 0x8C379A000000000000000000000000000000000000000000000000000000000 DUP2 MSTORE PUSH1 0x4 ADD PUSH2 0x16C9 SWAP1 PUSH2 0x2726 JUMP JUMPDEST PUSH1 0x40 MLOAD DUP1 SWAP2 SUB SWAP1 REVERT JUMPDEST PUSH0 DUP4 GT PUSH2 0x1714 JUMPI PUSH1 0x40 MLOAD PUSH32 0x8C379A000000000000000000000000000000000000000000000000000000000 DUP2 MSTORE PUSH1 0x4 ADD PUSH2 0x170B SWAP1 PUSH2 0x278E JUMP JUMPDEST PUSH1 0x40 MLOAD DUP1 SWAP2 SUB SWAP1 REVERT JUMPDEST PUSH2 0x171D DUP6 PUSH2 0x6CC JUMP JUMPDEST ISZERO PUSH2 0x175D JUMPI PUSH1 0x40 MLOAD PUSH32 0x8C379A000000000000000000000000000000000000000000000000000000000 DUP2 MSTORE PUSH1 0x4 ADD PUSH2 0x1754 SWAP1 PUSH2 0x27F6 JUMP JUMPDEST PUSH1 0x40 MLOAD DUP1 SWAP2 SUB SWAP1 REVERT JUMPDEST PUSH1 0x40 MLOAD DUP1 PUSH2 0x100 ADD PUSH1 0x40 MSTORE DUP1 DUP7 DUP2 MSTORE PUSH1 0x20 ADD CALLER PUSH20 0xFFFFFFFFFFFFFFFFFFFFFFFFFFFFFFFFFFFFFFFF AND DUP2 MSTORE PUSH1 0x20 ADD DUP6 DUP2 MSTORE PUSH1 0x20 ADD TIMESTAMP DUP2 MSTORE PUSH1 0x20 ADD DUP4 ISZERO ISZERO DUP2 MSTORE PUSH1 0x20 ADD DUP3 DUP2 MSTORE PUSH1 0x20 ADD DUP5 DUP2 MSTORE PUSH1 0x20 ADD PUSH1 0x1 ISZERO ISZERO DUP2 MSTORE POP PUSH1 0x2 PUSH0 DUP8 DUP2 MSTORE PUSH1 0x20 ADD SWAP1 DUP2 MSTORE PUSH1 0x20 ADD PUSH0 KECCAK256 PUSH0 DUP3 ADD MLOAD DUP2 PUSH0 ADD SSTORE PUSH1 0x20 DUP3 ADD MLOAD DUP2 PUSH1 0x1 ADD PUSH0 PUSH2 0x100 EXP DUP2 SLOAD DUP2 PUSH20 0xFFFFFFFFFFFFFFFFFFFFFFFFFFFFFFFFFFFFFFFF MUL NOT AND SWAP1 DUP4 PUSH20 0xFFFFFFFFFFFFFFFFFFFFFFFFFFFFFFFFFFFFFFFF AND MUL OR SWAP1 SSTORE POP PUSH1 0x40 DUP3 ADD MLOAD DUP2 PUSH1 0x2 ADD SSTORE PUSH1 0x60 DUP3 ADD MLOAD DUP2 PUSH1 0x3 ADD SSTORE PUSH1 0x80 DUP3 ADD MLOAD DUP2 PUSH1 0x4 ADD PUSH0 PUSH2 0x100 EXP DUP2 SLOAD DUP2 PUSH1 0xFF MUL NOT AND SWAP1 DUP4 ISZERO ISZERO MUL OR SWAP1 SSTORE POP PUSH1 0xA0 DUP3 ADD MLOAD DUP2 PUSH1 0x5 ADD SSTORE PUSH1 0xC0 DUP3 ADD MLOAD DUP2 PUSH1 0x6 ADD SSTORE PUSH1 0xE0 DUP3 ADD MLOAD DUP2 PUSH1 0x7 ADD PUSH0 PUSH2 0x100 EXP DUP2 SLOAD DUP2 PUSH1 0xFF MUL NOT AND SWAP1 DUP4 ISZERO ISZERO MUL OR SWAP1 SSTORE POP SWAP1 POP POP PUSH1 0x1 PUSH1 0x4 PUSH0 DUP8 DUP2 MSTORE PUSH1 0x20 ADD SWAP1 DUP2 MSTORE PUSH1 0x20 ADD PUSH0 KECCAK256 PUSH0 CALLER PUSH20 0xFFFFFFFFFFFFFFFFFFFFFFFFFFFFFFFFFFFFFFFF AND PUSH20 0xFFFFFFFFFFFFFFFFFFFFFFFFFFFFFFFFFFFFFFFF AND DUP2 MSTORE PUSH1 0x20 ADD SWAP1 DUP2 MSTORE PUSH1 0x20 ADD PUSH0 KECCAK256 PUSH0 PUSH2 0x100 EXP DUP2 SLOAD DUP2 PUSH1 0xFF MUL NOT AND SWAP1 DUP4 ISZERO ISZERO MUL OR SWAP1 SSTORE POP CALLER PUSH20 0xFFFFFFFFFFFFFFFFFFFFFFFFFFFFFFFFFFFFFFFF AND DUP6 PUSH32 0xCED668F5FD2030036609937F5E7254BF8E9FE5DC7AE3E9EFB3B53D5FD1081E5E DUP7 DUP7 DUP7 PUSH1 0x40 MLOAD PUSH2 0x1929 SWAP4 SWAP3 SWAP2 SWAP1 PUSH2 0x2814 JUMP JUMPDEST PUSH1 0x40 MLOAD DUP1 SWAP2 SUB SWAP1 LOG3 POP POP POP POP POP JUMP JUMPDEST PUSH0 CALLER SWAP1 POP SWAP1 JUMP JUMPDEST PUSH1 0x40 MLOAD DUP1 PUSH1 0x80 ADD PUSH1 0x40 MSTORE DUP1 PUSH0 DUP2 MSTORE PUSH1 0x20 ADD PUSH0 DUP2 MSTORE PUSH1 0x20 ADD PUSH0 DUP1 NOT AND DUP2 MSTORE PUSH1 0x20 ADD PUSH0 DUP1 NOT AND DUP2 MSTORE POP SWAP1 JUMP JUMPDEST PUSH1 0x40 MLOAD DUP1 PUSH2 0x100 ADD PUSH1 0x40 MSTORE DUP1 PUSH0 DUP1 NOT AND DUP2 MSTORE PUSH1 0x20 ADD PUSH0 PUSH20 0xFFFFFFFFFFFFFFFFFFFFFFFFFFFFFFFFFFFFFFFF AND DUP2 MSTORE PUSH1 0x20 ADD PUSH0 DUP2 MSTORE PUSH1 0x20 ADD PUSH0 DUP2 MSTORE PUSH1 0x20 ADD PUSH0 ISZERO ISZERO DUP2 MSTORE PUSH1 0x20 ADD PUSH0 DUP1 NOT AND DUP2 MSTORE PUSH1 0x20 ADD PUSH0 DUP2 MSTORE PUSH1 0x20 ADD PUSH0 ISZERO ISZERO DUP2 MSTORE POP SWAP1 JUMP JUMPDEST PUSH0 DUP1 REVERT JUMPDEST PUSH0 DUP1 REVERT JUMPDEST PUSH0 DUP2 SWAP1 POP SWAP2 SWAP1 POP JUMP JUMPDEST PUSH2 0x19E0 DUP2 PUSH2 0x19CE JUMP JUMPDEST DUP2 EQ PUSH2 0x19EA JUMPI PUSH0 DUP1 REVERT JUMPDEST POP JUMP JUMPDEST PUSH0 DUP2 CALLDATALOAD SWAP1 POP PUSH2 0x19FB DUP2 PUSH2 0x19D7 JUMP JUMPDEST SWAP3 SWAP2 POP POP JUMP JUMPDEST PUSH0 PUSH1 0x20 DUP3 DUP5 SUB SLT ISZERO PUSH2 0x1A16 JUMPI PUSH2 0x1A15 PUSH2 0x19C6 JUMP JUMPDEST JUMPDEST PUSH0 PUSH2 0x1A23 DUP5 DUP3 DUP6 ADD PUSH2 0x19ED JUMP JUMPDEST SWAP2 POP POP SWAP3 SWAP2 POP POP JUMP JUMPDEST PUSH0 DUP2 ISZERO ISZERO SWAP1 POP SWAP2 SWAP1 POP JUMP JUMPDEST PUSH2 0x1A40 DUP2 PUSH2 0x1A2C JUMP JUMPDEST DUP3 MSTORE POP POP JUMP JUMPDEST PUSH0 PUSH1 0x20 DUP3 ADD SWAP1 POP PUSH2 0x1A59 PUSH0 DUP4 ADD DUP5 PUSH2 0x1A37 JUMP JUMPDEST SWAP3 SWAP2 POP POP JUMP JUMPDEST PUSH0 DUP2 SWAP1 POP SWAP2 SWAP1 POP JUMP JUMPDEST PUSH2 0x1A71 DUP2 PUSH2 0x1A5F JUMP JUMPDEST DUP2 EQ PUSH2 0x1A7B JUMPI PUSH0 DUP1 REVERT JUMPDEST POP JUMP JUMPDEST PUSH0 DUP2 CALLDATALOAD SWAP1 POP PUSH2 0x1A8C DUP2 PUSH2 0x1A68 JUMP JUMPDEST SWAP3 SWAP2 POP POP JUMP JUMPDEST PUSH0 DUP1 PUSH1 0x40 DUP4 DUP6 SUB SLT ISZERO PUSH2 0x1AA8 JUMPI PUSH2 0x1AA7 PUSH2 0x19C6 JUMP JUMPDEST JUMPDEST PUSH0 PUSH2 0x1AB5 DUP6 DUP3 DUP7 ADD PUSH2 0x19ED JUMP JUMPDEST SWAP3 POP POP PUSH1 0x20 PUSH2 0x1AC6 DUP6 DUP3 DUP7 ADD PUSH2 0x1A7E JUMP JUMPDEST SWAP2 POP POP SWAP3 POP SWAP3 SWAP1 POP JUMP JUMPDEST PUSH2 0x1AD9 DUP2 PUSH2 0x1A5F JUMP JUMPDEST DUP3 MSTORE POP POP JUMP JUMPDEST PUSH2 0x1AE8 DUP2 PUSH2 0x19CE JUMP JUMPDEST DUP3 MSTORE POP POP JUMP JUMPDEST PUSH1 0x80 DUP3 ADD PUSH0 DUP3 ADD MLOAD PUSH2 0x1B02 PUSH0 DUP6 ADD DUP3 PUSH2 0x1AD0 JUMP JUMPDEST POP PUSH1 0x20 DUP3 ADD MLOAD PUSH2 0x1B15 PUSH1 0x20 DUP6 ADD DUP3 PUSH2 0x1AD0 JUMP JUMPDEST POP PUSH1 0x40 DUP3 ADD MLOAD PUSH2 0x1B28 PUSH1 0x40 DUP6 ADD DUP3 PUSH2 0x1ADF JUMP JUMPDEST POP PUSH1 0x60 DUP3 ADD MLOAD PUSH2 0x1B3B PUSH1 0x60 DUP6 ADD DUP3 PUSH2 0x1ADF JUMP JUMPDEST POP POP POP POP JUMP JUMPDEST PUSH0 PUSH1 0x80 DUP3 ADD SWAP1 POP PUSH2 0x1B54 PUSH0 DUP4 ADD DUP5 PUSH2 0x1AEE JUMP JUMPDEST SWAP3 SWAP2 POP POP JUMP JUMPDEST PUSH2 0x1B63 DUP2 PUSH2 0x1A5F JUMP JUMPDEST DUP3 MSTORE POP POP JUMP JUMPDEST PUSH0 PUSH1 0x20 DUP3 ADD SWAP1 POP PUSH2 0x1B7C PUSH0 DUP4 ADD DUP5 PUSH2 0x1B5A JUMP JUMPDEST SWAP3 SWAP2 POP POP JUMP JUMPDEST PUSH0 DUP1 PUSH1 0x40 DUP4 DUP6 SUB SLT ISZERO PUSH2 0x1B98 JUMPI PUSH2 0x1B97 PUSH2 0x19C6 JUMP JUMPDEST JUMPDEST PUSH0 PUSH2 0x1BA5 DUP6 DUP3 DUP7 ADD PUSH2 0x19ED JUMP JUMPDEST SWAP3 POP POP PUSH1 0x20 PUSH2 0x1BB6 DUP6 DUP3 DUP7 ADD PUSH2 0x19ED JUMP JUMPDEST SWAP2 POP POP SWAP3 POP SWAP3 SWAP1 POP JUMP JUMPDEST PUSH0 DUP1 REVERT JUMPDEST PUSH0 DUP1 REVERT JUMPDEST PUSH0 DUP1 REVERT JUMPDEST PUSH0 DUP1 DUP4 PUSH1 0x1F DUP5 ADD SLT PUSH2 0x1BE1 JUMPI PUSH2 0x1BE0 PUSH2 0x1BC0 JUMP JUMPDEST JUMPDEST DUP3 CALLDATALOAD SWAP1 POP PUSH8 0xFFFFFFFFFFFFFFFF DUP2 GT ISZERO PUSH2 0x1BFE JUMPI PUSH2 0x1BFD PUSH2 0x1BC4 JUMP JUMPDEST JUMPDEST PUSH1 0x20 DUP4 ADD SWAP2 POP DUP4 PUSH1 0x1 DUP3 MUL DUP4 ADD GT ISZERO PUSH2 0x1C1A JUMPI PUSH2 0x1C19 PUSH2 0x1BC8 JUMP JUMPDEST JUMPDEST SWAP3 POP SWAP3 SWAP1 POP JUMP JUMPDEST PUSH2 0x1C2A DUP2 PUSH2 0x1A2C JUMP JUMPDEST DUP2 EQ PUSH2 0x1C34 JUMPI PUSH0 DUP1 REVERT JUMPDEST POP JUMP JUMPDEST PUSH0 DUP2 CALLDATALOAD SWAP1 POP PUSH2 0x1C45 DUP2 PUSH2 0x1C21 JUMP JUMPDEST SWAP3 SWAP2 POP POP JUMP JUMPDEST PUSH0 DUP1 PUSH0 DUP1 PUSH0 PUSH1 0x80 DUP7 DUP9 SUB SLT ISZERO PUSH2 0x1C64 JUMPI PUSH2 0x1C63 PUSH2 0x19C6 JUMP JUMPDEST JUMPDEST PUSH0 PUSH2 0x1C71 DUP9 DUP3 DUP10 ADD PUSH2 0x19ED JUMP JUMPDEST SWAP6 POP POP PUSH1 0x20 PUSH2 0x1C82 DUP9 DUP3 DUP10 ADD PUSH2 0x1A7E JUMP JUMPDEST SWAP5 POP POP PUSH1 0x40 DUP7 ADD CALLDATALOAD PUSH8 0xFFFFFFFFFFFFFFFF DUP2 GT ISZERO PUSH2 0x1CA3 JUMPI PUSH2 0x1CA2 PUSH2 0x19CA JUMP JUMPDEST JUMPDEST PUSH2 0x1CAF DUP9 DUP3 DUP10 ADD PUSH2 0x1BCC JUMP JUMPDEST SWAP4 POP SWAP4 POP POP PUSH1 0x60 PUSH2 0x1CC2 DUP9 DUP3 DUP10 ADD PUSH2 0x1C37 JUMP JUMPDEST SWAP2 POP POP SWAP3 SWAP6 POP SWAP3 SWAP6 SWAP1 SWAP4 POP JUMP JUMPDEST PUSH0 PUSH20 0xFFFFFFFFFFFFFFFFFFFFFFFFFFFFFFFFFFFFFFFF DUP3 AND SWAP1 POP SWAP2 SWAP1 POP JUMP JUMPDEST PUSH0 PUSH2 0x1CF8 DUP3 PUSH2 0x1CCF JUMP JUMPDEST SWAP1 POP SWAP2 SWAP1 POP JUMP JUMPDEST PUSH2 0x1D08 DUP2 PUSH2 0x1CEE JUMP JUMPDEST DUP3 MSTORE POP POP JUMP JUMPDEST PUSH2 0x1D17 DUP2 PUSH2 0x1A2C JUMP JUMPDEST DUP3 MSTORE POP POP JUMP JUMPDEST PUSH2 0x100 DUP3 ADD PUSH0 DUP3 ADD MLOAD PUSH2 0x1D32 PUSH0 DUP6 ADD DUP3 PUSH2 0x1ADF JUMP JUMPDEST POP PUSH1 0x20 DUP3 ADD MLOAD PUSH2 0x1D45 PUSH1 0x20 DUP6 ADD DUP3 PUSH2 0x1CFF JUMP JUMPDEST POP PUSH1 0x40 DUP3 ADD MLOAD PUSH2 0x1D58 PUSH1 0x40 DUP6 ADD DUP3 PUSH2 0x1AD0 JUMP JUMPDEST POP PUSH1 0x60 DUP3 ADD MLOAD PUSH2 0x1D6B PUSH1 0x60 DUP6 ADD DUP3 PUSH2 0x1AD0 JUMP JUMPDEST POP PUSH1 0x80 DUP3 ADD MLOAD PUSH2 0x1D7E PUSH1 0x80 DUP6 ADD DUP3 PUSH2 0x1D0E JUMP JUMPDEST POP PUSH1 0xA0 DUP3 ADD MLOAD PUSH2 0x1D91 PUSH1 0xA0 DUP6 ADD DUP3 PUSH2 0x1ADF JUMP JUMPDEST POP PUSH1 0xC0 DUP3 ADD MLOAD PUSH2 0x1DA4 PUSH1 0xC0 DUP6 ADD DUP3 PUSH2 0x1AD0 JUMP JUMPDEST POP PUSH1 0xE0 DUP3 ADD MLOAD PUSH2 0x1DB7 PUSH1 0xE0 DUP6 ADD DUP3 PUSH2 0x1D0E JUMP JUMPDEST POP POP POP POP JUMP JUMPDEST PUSH0 PUSH2 0x100 DUP3 ADD SWAP1 POP PUSH2 0x1DD1 PUSH0 DUP4 ADD DUP5 PUSH2 0x1D1D JUMP JUMPDEST SWAP3 SWAP2 POP POP JUMP JUMPDEST PUSH0 DUP1 PUSH0 DUP1 PUSH1 0x60 DUP6 DUP8 SUB SLT ISZERO PUSH2 0x1DEF JUMPI PUSH2 0x1DEE PUSH2 0x19C6 JUMP JUMPDEST JUMPDEST PUSH0 PUSH2 0x1DFC DUP8 DUP3 DUP9 ADD PUSH2 0x19ED JUMP JUMPDEST SWAP5 POP POP PUSH1 0x20 PUSH2 0x1E0D DUP8 DUP3 DUP9 ADD PUSH2 0x1A7E JUMP JUMPDEST SWAP4 POP POP PUSH1 0x40 DUP6 ADD CALLDATALOAD PUSH8 0xFFFFFFFFFFFFFFFF DUP2 GT ISZERO PUSH2 0x1E2E JUMPI PUSH2 0x1E2D PUSH2 0x19CA JUMP JUMPDEST JUMPDEST PUSH2 0x1E3A DUP8 DUP3 DUP9 ADD PUSH2 0x1BCC JUMP JUMPDEST SWAP3 POP SWAP3 POP POP SWAP3 SWAP6 SWAP2 SWAP5 POP SWAP3 POP JUMP JUMPDEST PUSH0 DUP1 PUSH0 DUP1 PUSH0 PUSH1 0x80 DUP7 DUP9 SUB SLT ISZERO PUSH2 0x1E61 JUMPI PUSH2 0x1E60 PUSH2 0x19C6 JUMP JUMPDEST JUMPDEST PUSH0 PUSH2 0x1E6E DUP9 DUP3 DUP10 ADD PUSH2 0x19ED JUMP JUMPDEST SWAP6 POP POP PUSH1 0x20 PUSH2 0x1E7F DUP9 DUP3 DUP10 ADD PUSH2 0x1A7E JUMP JUMPDEST SWAP5 POP POP PUSH1 0x40 DUP7 ADD CALLDATALOAD PUSH8 0xFFFFFFFFFFFFFFFF DUP2 GT ISZERO PUSH2 0x1EA0 JUMPI PUSH2 0x1E9F PUSH2 0x19CA JUMP JUMPDEST JUMPDEST PUSH2 0x1EAC DUP9 DUP3 DUP10 ADD PUSH2 0x1BCC JUMP JUMPDEST SWAP4 POP SWAP4 POP POP PUSH1 0x60 PUSH2 0x1EBF DUP9 DUP3 DUP10 ADD PUSH2 0x19ED JUMP JUMPDEST SWAP2 POP POP SWAP3 SWAP6 POP SWAP3 SWAP6 SWAP1 SWAP4 POP JUMP JUMPDEST PUSH0 DUP1 PUSH0 DUP1 PUSH0 PUSH1 0x80 DUP7 DUP9 SUB SLT ISZERO PUSH2 0x1EE5 JUMPI PUSH2 0x1EE4 PUSH2 0x19C6 JUMP JUMPDEST JUMPDEST PUSH0 PUSH2 0x1EF2 DUP9 DUP3 DUP10 ADD PUSH2 0x19ED JUMP JUMPDEST SWAP6 POP POP PUSH1 0x20 DUP7 ADD CALLDATALOAD PUSH8 0xFFFFFFFFFFFFFFFF DUP2 GT ISZERO PUSH2 0x1F13 JUMPI PUSH2 0x1F12 PUSH2 0x19CA JUMP JUMPDEST JUMPDEST PUSH2 0x1F1F DUP9 DUP3 DUP10 ADD PUSH2 0x1BCC JUMP JUMPDEST SWAP5 POP SWAP5 POP POP PUSH1 0x40 PUSH2 0x1F32 DUP9 DUP3 DUP10 ADD PUSH2 0x1C37 JUMP JUMPDEST SWAP3 POP POP PUSH1 0x60 PUSH2 0x1F43 DUP9 DUP3 DUP10 ADD PUSH2 0x19ED JUMP JUMPDEST SWAP2 POP POP SWAP3 SWAP6 POP SWAP3 SWAP6 SWAP1 SWAP4 POP JUMP JUMPDEST PUSH2 0x1F59 DUP2 PUSH2 0x1CEE JUMP JUMPDEST DUP2 EQ PUSH2 0x1F63 JUMPI PUSH0 DUP1 REVERT JUMPDEST POP JUMP JUMPDEST PUSH0 DUP2 CALLDATALOAD SWAP1 POP PUSH2 0x1F74 DUP2 PUSH2 0x1F50 JUMP JUMPDEST SWAP3 SWAP2 POP POP JUMP JUMPDEST PUSH0 DUP1 PUSH1 0x40 DUP4 DUP6 SUB SLT ISZERO PUSH2 0x1F90 JUMPI PUSH2 0x1F8F PUSH2 0x19C6 JUMP JUMPDEST JUMPDEST PUSH0 PUSH2 0x1F9D DUP6 DUP3 DUP7 ADD PUSH2 0x19ED JUMP JUMPDEST SWAP3 POP POP PUSH1 0x20 PUSH2 0x1FAE DUP6 DUP3 DUP7 ADD PUSH2 0x1F66 JUMP JUMPDEST SWAP2 POP POP SWAP3 POP SWAP3 SWAP1 POP JUMP JUMPDEST PUSH2 0x1FC1 DUP2 PUSH2 0x1CEE JUMP JUMPDEST DUP3 MSTORE POP POP JUMP JUMPDEST PUSH0 PUSH1 0x20 DUP3 ADD SWAP1 POP PUSH2 0x1FDA PUSH0 DUP4 ADD DUP5 PUSH2 0x1FB8 JUMP JUMPDEST SWAP3 SWAP2 POP POP JUMP JUMPDEST PUSH0 DUP1 PUSH1 0x40 DUP4 DUP6 SUB SLT ISZERO PUSH2 0x1FF6 JUMPI PUSH2 0x1FF5 PUSH2 0x19C6 JUMP JUMPDEST JUMPDEST PUSH0 PUSH2 0x2003 DUP6 DUP3 DUP7 ADD PUSH2 0x19ED JUMP JUMPDEST SWAP3 POP POP PUSH1 0x20 PUSH2 0x2014 DUP6 DUP3 DUP7 ADD PUSH2 0x1C37 JUMP JUMPDEST SWAP2 POP POP SWAP3 POP SWAP3 SWAP1 POP JUMP JUMPDEST PUSH0 DUP1 PUSH0 PUSH1 0x60 DUP5 DUP7 SUB SLT ISZERO PUSH2 0x2035 JUMPI PUSH2 0x2034 PUSH2 0x19C6 JUMP JUMPDEST JUMPDEST PUSH0 PUSH2 0x2042 DUP7 DUP3 DUP8 ADD PUSH2 0x19ED JUMP JUMPDEST SWAP4 POP POP PUSH1 0x20 PUSH2 0x2053 DUP7 DUP3 DUP8 ADD PUSH2 0x1A7E JUMP JUMPDEST SWAP3 POP POP PUSH1 0x40 PUSH2 0x2064 DUP7 DUP3 DUP8 ADD PUSH2 0x19ED JUMP JUMPDEST SWAP2 POP POP SWAP3 POP SWAP3 POP SWAP3 JUMP JUMPDEST PUSH0 DUP2 MLOAD SWAP1 POP SWAP2 SWAP1 POP JUMP JUMPDEST PUSH0 DUP3 DUP3 MSTORE PUSH1 0x20 DUP3 ADD SWAP1 POP SWAP3 SWAP2 POP POP JUMP JUMPDEST DUP3 DUP2 DUP4 MCOPY PUSH0 DUP4 DUP4 ADD MSTORE POP POP POP JUMP JUMPDEST PUSH0 PUSH1 0x1F NOT PUSH1 0x1F DUP4 ADD AND SWAP1 POP SWAP2 SWAP1 POP JUMP JUMPDEST PUSH0 PUSH2 0x20B0 DUP3 PUSH2 0x206E JUMP JUMPDEST PUSH2 0x20BA DUP2 DUP6 PUSH2 0x2078 JUMP JUMPDEST SWAP4 POP PUSH2 0x20CA DUP2 DUP6 PUSH1 0x20 DUP7 ADD PUSH2 0x2088 JUMP JUMPDEST PUSH2 0x20D3 DUP2 PUSH2 0x2096 JUMP JUMPDEST DUP5 ADD SWAP2 POP POP SWAP3 SWAP2 POP POP JUMP JUMPDEST PUSH0 PUSH1 0x20 DUP3 ADD SWAP1 POP DUP2 DUP2 SUB PUSH0 DUP4 ADD MSTORE PUSH2 0x20F6 DUP2 DUP5 PUSH2 0x20A6 JUMP JUMPDEST SWAP1 POP SWAP3 SWAP2 POP POP JUMP JUMPDEST PUSH0 DUP1 DUP4 PUSH1 0x1F DUP5 ADD SLT PUSH2 0x2113 JUMPI PUSH2 0x2112 PUSH2 0x1BC0 JUMP JUMPDEST JUMPDEST DUP3 CALLDATALOAD SWAP1 POP PUSH8 0xFFFFFFFFFFFFFFFF DUP2 GT ISZERO PUSH2 0x2130 JUMPI PUSH2 0x212F PUSH2 0x1BC4 JUMP JUMPDEST JUMPDEST PUSH1 0x20 DUP4 ADD SWAP2 POP DUP4 PUSH1 0x1 DUP3 MUL DUP4 ADD GT ISZERO PUSH2 0x214C JUMPI PUSH2 0x214B PUSH2 0x1BC8 JUMP JUMPDEST JUMPDEST SWAP3 POP SWAP3 SWAP1 POP JUMP JUMPDEST PUSH0 DUP1 PUSH0 DUP1 PUSH0 DUP1 PUSH1 0xA0 DUP8 DUP10 SUB SLT ISZERO PUSH2 0x216D JUMPI PUSH2 0x216C PUSH2 0x19C6 JUMP JUMPDEST JUMPDEST PUSH0 PUSH2 0x217A DUP10 DUP3 DUP11 ADD PUSH2 0x19ED JUMP JUMPDEST SWAP7 POP POP PUSH1 0x20 PUSH2 0x218B DUP10 DUP3 DUP11 ADD PUSH2 0x1A7E JUMP JUMPDEST SWAP6 POP POP PUSH1 0x40 PUSH2 0x219C DUP10 DUP3 DUP11 ADD PUSH2 0x1A7E JUMP JUMPDEST SWAP5 POP POP PUSH1 0x60 PUSH2 0x21AD DUP10 DUP3 DUP11 ADD PUSH2 0x1C37 JUMP JUMPDEST SWAP4 POP POP PUSH1 0x80 DUP8 ADD CALLDATALOAD PUSH8 0xFFFFFFFFFFFFFFFF DUP2 GT ISZERO PUSH2 0x21CE JUMPI PUSH2 0x21CD PUSH2 0x19CA JUMP JUMPDEST JUMPDEST PUSH2 0x21DA DUP10 DUP3 DUP11 ADD PUSH2 0x20FE JUMP JUMPDEST SWAP3 POP SWAP3 POP POP SWAP3 SWAP6 POP SWAP3 SWAP6 POP SWAP3 SWAP6 JUMP JUMPDEST PUSH0 DUP1 PUSH0 DUP1 PUSH0 DUP1 PUSH0 DUP1 PUSH0 PUSH1 0xE0 DUP11 DUP13 SUB SLT ISZERO PUSH2 0x2206 JUMPI PUSH2 0x2205 PUSH2 0x19C6 JUMP JUMPDEST JUMPDEST PUSH0 PUSH2 0x2213 DUP13 DUP3 DUP14 ADD PUSH2 0x19ED JUMP JUMPDEST SWAP10 POP POP PUSH1 0x20 PUSH2 0x2224 DUP13 DUP3 DUP14 ADD PUSH2 0x1A7E JUMP JUMPDEST SWAP9 POP POP PUSH1 0x40 PUSH2 0x2235 DUP13 DUP3 DUP14 ADD PUSH2 0x1A7E JUMP JUMPDEST SWAP8 POP POP PUSH1 0x60 DUP11 ADD CALLDATALOAD PUSH8 0xFFFFFFFFFFFFFFFF DUP2 GT ISZERO PUSH2 0x2256 JUMPI PUSH2 0x2255 PUSH2 0x19CA JUMP JUMPDEST JUMPDEST PUSH2 0x2262 DUP13 DUP3 DUP14 ADD PUSH2 0x20FE JUMP JUMPDEST SWAP7 POP SWAP7 POP POP PUSH1 0x80 PUSH2 0x2275 DUP13 DUP3 DUP14 ADD PUSH2 0x1C37 JUMP JUMPDEST SWAP5 POP POP PUSH1 0xA0 DUP11 ADD CALLDATALOAD PUSH8 0xFFFFFFFFFFFFFFFF DUP2 GT ISZERO PUSH2 0x2296 JUMPI PUSH2 0x2295 PUSH2 0x19CA JUMP JUMPDEST JUMPDEST PUSH2 0x22A2 DUP13 DUP3 DUP14 ADD PUSH2 0x20FE JUMP JUMPDEST SWAP4 POP SWAP4 POP POP PUSH1 0xC0 PUSH2 0x22B5 DUP13 DUP3 DUP14 ADD PUSH2 0x19ED JUMP JUMPDEST SWAP2 POP POP SWAP3 SWAP6 SWAP9 POP SWAP3 SWAP6 SWAP9 POP SWAP3 SWAP6 SWAP9 JUMP JUMPDEST PUSH0 PUSH1 0x20 DUP3 DUP5 SUB SLT ISZERO PUSH2 0x22DA JUMPI PUSH2 0x22D9 PUSH2 0x19C6 JUMP JUMPDEST JUMPDEST PUSH0 PUSH2 0x22E7 DUP5 DUP3 DUP6 ADD PUSH2 0x1F66 JUMP JUMPDEST SWAP2 POP POP SWAP3 SWAP2 POP POP JUMP JUMPDEST PUSH0 DUP3 DUP3 MSTORE PUSH1 0x20 DUP3 ADD SWAP1 POP SWAP3 SWAP2 POP POP JUMP JUMPDEST PUSH32 0x46696C65206E6F7420666F756E64000000000000000000000000000000000000 PUSH0 DUP3 ADD MSTORE POP JUMP JUMPDEST PUSH0 PUSH2 0x2334 PUSH1 0xE DUP4 PUSH2 0x22F0 JUMP JUMPDEST SWAP2 POP PUSH2 0x233F DUP3 PUSH2 0x2300 JUMP JUMPDEST PUSH1 0x20 DUP3 ADD SWAP1 POP SWAP2 SWAP1 POP JUMP JUMPDEST PUSH0 PUSH1 0x20 DUP3 ADD SWAP1 POP DUP2 DUP2 SUB PUSH0 DUP4 ADD MSTORE PUSH2 0x2361 DUP2 PUSH2 0x2328 JUMP JUMPDEST SWAP1 POP SWAP2 SWAP1 POP JUMP JUMPDEST PUSH32 0x4E6F74206F776E65720000000000000000000000000000000000000000000000 PUSH0 DUP3 ADD MSTORE POP JUMP JUMPDEST PUSH0 PUSH2 0x239C PUSH1 0x9 DUP4 PUSH2 0x22F0 JUMP JUMPDEST SWAP2 POP PUSH2 0x23A7 DUP3 PUSH2 0x2368 JUMP JUMPDEST PUSH1 0x20 DUP3 ADD SWAP1 POP SWAP2 SWAP1 POP JUMP JUMPDEST PUSH0 PUSH1 0x20 DUP3 ADD SWAP1 POP DUP2 DUP2 SUB PUSH0 DUP4 ADD MSTORE PUSH2 0x23C9 DUP2 PUSH2 0x2390 JUMP JUMPDEST SWAP1 POP SWAP2 SWAP1 POP JUMP JUMPDEST PUSH32 0x496E76616C6964206368756E6B20696E64657800000000000000000000000000 PUSH0 DUP3 ADD MSTORE POP JUMP JUMPDEST PUSH0 PUSH2 0x2404 PUSH1 0x13 DUP4 PUSH2 0x22F0 JUMP JUMPDEST SWAP2 POP PUSH2 0x240F DUP3 PUSH2 0x23D0 JUMP JUMPDEST PUSH1 0x20 DUP3 ADD SWAP1 POP SWAP2 SWAP1 POP JUMP JUMPDEST PUSH0 PUSH1 0x20 DUP3 ADD SWAP1 POP DUP2 DUP2 SUB PUSH0 DUP4 ADD MSTORE PUSH2 0x2431 DUP2 PUSH2 0x23F8 JUMP JUMPDEST SWAP1 POP SWAP2 SWAP1 POP JUMP JUMPDEST PUSH2 0x2441 DUP2 PUSH2 0x19CE JUMP JUMPDEST DUP3 MSTORE POP POP JUMP JUMPDEST PUSH0 PUSH1 0x20 DUP3 ADD SWAP1 POP PUSH2 0x245A PUSH0 DUP4 ADD DUP5 PUSH2 0x2438 JUMP JUMPDEST SWAP3 SWAP2 POP POP JUMP JUMPDEST PUSH32 0x46696C6520746F6F206C61726765000000000000000000000000000000000000 PUSH0 DUP3 ADD MSTORE POP JUMP JUMPDEST PUSH0 PUSH2 0x2494 PUSH1 0xE DUP4 PUSH2 0x22F0 JUMP JUMPDEST SWAP2 POP PUSH2 0x249F DUP3 PUSH2 0x2460 JUMP JUMPDEST PUSH1 0x20 DUP3 ADD SWAP1 POP SWAP2 SWAP1 POP JUMP JUMPDEST PUSH0 PUSH1 0x20 DUP3 ADD SWAP1 POP DUP2 DUP2 SUB PUSH0 DUP4 ADD MSTORE PUSH2 0x24C1 DUP2 PUSH2 0x2488 JUMP JUMPDEST SWAP1 POP SWAP2 SWAP1 POP JUMP JUMPDEST PUSH32 0x4E487B7100000000000000000000000000000000000000000000000000000000 PUSH0 MSTORE PUSH1 0x11 PUSH1 0x4 MSTORE PUSH1 0x24 PUSH0 REVERT JUMPDEST PUSH0 PUSH2 0x24FF DUP3 PUSH2 0x1A5F JUMP JUMPDEST SWAP2 POP PUSH2 0x250A DUP4 PUSH2 0x1A5F JUMP JUMPDEST SWAP3 POP DUP3 DUP3 ADD SWAP1 POP DUP1 DUP3 GT ISZERO PUSH2 0x2522 JUMPI PUSH2 0x2521 PUSH2 0x24C8 JUMP JUMPDEST JUMPDEST SWAP3 SWAP2 POP POP JUMP JUMPDEST PUSH0 PUSH2 0x2532 DUP3 PUSH2 0x1A5F JUMP JUMPDEST SWAP2 POP PUSH2 0x253D DUP4 PUSH2 0x1A5F JUMP JUMPDEST SWAP3 POP DUP3 DUP3 SUB SWAP1 POP DUP2 DUP2 GT ISZERO PUSH2 0x2555 JUMPI PUSH2 0x2554 PUSH2 0x24C8 JUMP JUMPDEST JUMPDEST SWAP3 SWAP2 POP POP JUMP JUMPDEST PUSH32 0x4E487B7100000000000000000000000000000000000000000000000000000000 PUSH0 MSTORE PUSH1 0x12 PUSH1 0x4 MSTORE PUSH1 0x24 PUSH0 REVERT JUMPDEST PUSH0 PUSH2 0x2592 DUP3 PUSH2 0x1A5F JUMP JUMPDEST SWAP2 POP PUSH2 0x259D DUP4 PUSH2 0x1A5F JUMP JUMPDEST SWAP3 POP DUP3 PUSH2 0x25AD JUMPI PUSH2 0x25AC PUSH2 0x255B JUMP JUMPDEST JUMPDEST DUP3 DUP3 DIV SWAP1 POP SWAP3 SWAP2 POP POP JUMP JUMPDEST PUSH32 0x4E6F206163636573730000000000000000000000000000000000000000000000 PUSH0 DUP3 ADD MSTORE POP JUMP JUMPDEST PUSH0 PUSH2 0x25EC PUSH1 0x9 DUP4 PUSH2 0x22F0 JUMP JUMPDEST SWAP2 POP PUSH2 0x25F7 DUP3 PUSH2 0x25B8 JUMP JUMPDEST PUSH1 0x20 DUP3 ADD SWAP1 POP SWAP2 SWAP1 POP JUMP JUMPDEST PUSH0 PUSH1 0x20 DUP3 ADD SWAP1 POP DUP2 DUP2 SUB PUSH0 DUP4 ADD MSTORE PUSH2 0x2619 DUP2 PUSH2 0x25E0 JUMP JUMPDEST SWAP1 POP SWAP2 SWAP1 POP JUMP JUMPDEST PUSH0 DUP2 SWAP1 POP SWAP3 SWAP2 POP POP JUMP JUMPDEST DUP3 DUP2 DUP4 CALLDATACOPY PUSH0 DUP4 DUP4 ADD MSTORE POP POP POP JUMP JUMPDEST PUSH0 PUSH2 0x2643 DUP4 DUP6 PUSH2 0x2620 JUMP JUMPDEST SWAP4 POP PUSH2 0x2650 DUP4 DUP6 DUP5 PUSH2 0x262A JUMP JUMPDEST DUP3 DUP5 ADD SWAP1 POP SWAP4 SWAP3 POP POP POP JUMP JUMPDEST PUSH0 PUSH2 0x2668 DUP3 DUP5 DUP7 PUSH2 0x2638 JUMP JUMPDEST SWAP2 POP DUP2 SWAP1 POP SWAP4 SWAP3 POP POP POP JUMP JUMPDEST PUSH32 0x4368756E6B20746F6F206C617267650000000000000000000000000000000000 PUSH0 DUP3 ADD MSTORE POP JUMP JUMPDEST PUSH0 PUSH2 0x26A8 PUSH1 0xF DUP4 PUSH2 0x22F0 JUMP JUMPDEST SWAP2 POP PUSH2 0x26B3 DUP3 PUSH2 0x2674 JUMP JUMPDEST PUSH1 0x20 DUP3 ADD SWAP1 POP SWAP2 SWAP1 POP JUMP JUMPDEST PUSH0 PUSH1 0x20 DUP3 ADD SWAP1 POP DUP2 DUP2 SUB PUSH0 DUP4 ADD MSTORE PUSH2 0x26D5 DUP2 PUSH2 0x269C JUMP JUMPDEST SWAP1 POP SWAP2 SWAP1 POP JUMP JUMPDEST PUSH32 0x496E76616C69642066696C652073697A65000000000000000000000000000000 PUSH0 DUP3 ADD MSTORE POP JUMP JUMPDEST PUSH0 PUSH2 0x2710 PUSH1 0x11 DUP4 PUSH2 0x22F0 JUMP JUMPDEST SWAP2 POP PUSH2 0x271B DUP3 PUSH2 0x26DC JUMP JUMPDEST PUSH1 0x20 DUP3 ADD SWAP1 POP SWAP2 SWAP1 POP JUMP JUMPDEST PUSH0 PUSH1 0x20 DUP3 ADD SWAP1 POP DUP2 DUP2 SUB PUSH0 DUP4 ADD MSTORE PUSH2 0x273D DUP2 PUSH2 0x2704 JUMP JUMPDEST SWAP1 POP SWAP2 SWAP1 POP JUMP JUMPDEST PUSH32 0x496E76616C6964206368756E6B20636F756E7400000000000000000000000000 PUSH0 DUP3 ADD MSTORE POP JUMP JUMPDEST PUSH0 PUSH2 0x2778 PUSH1 0x13 DUP4 PUSH2 0x22F0 JUMP JUMPDEST SWAP2 POP PUSH2 0x2783 DUP3 PUSH2 0x2744 JUMP JUMPDEST PUSH1 0x20 DUP3 ADD SWAP1 POP SWAP2 SWAP1 POP JUMP JUMPDEST PUSH0 PUSH1 0x20 DUP3 ADD SWAP1 POP DUP2 DUP2 SUB PUSH0 DUP4 ADD MSTORE PUSH2 0x27A5 DUP2 PUSH2 0x276C JUMP JUMPDEST SWAP1 POP SWAP2 SWAP1 POP JUMP JUMPDEST PUSH32 0x46696C6520616C72656164792065786973747300000000000000000000000000 PUSH0 DUP3 ADD MSTORE POP JUMP JUMPDEST PUSH0 PUSH2 0x27E0 PUSH1 0x13 DUP4 PUSH2 0x22F0 JUMP JUMPDEST SWAP2 POP PUSH2 0x27EB DUP3 PUSH2 0x27AC JUMP JUMPDEST PUSH1 0x20 DUP3 ADD SWAP1 POP SWAP2 SWAP1 POP JUMP JUMPDEST PUSH0 PUSH1 0x20 DUP3 ADD SWAP1 POP DUP2 DUP2 SUB PUSH0 DUP4 ADD MSTORE PUSH2 0x280D DUP2 PUSH2 0x27D4 JUMP JUMPDEST SWAP1 POP SWAP2 SWAP1 POP JUMP JUMPDEST PUSH0 PUSH1 0x60 DUP3 ADD SWAP1 POP PUSH2 0x2827 PUSH0 DUP4 ADD DUP7 PUSH2 0x1B5A JUMP JUMPDEST PUSH2 0x2834 PUSH1 0x20 DUP4 ADD DUP6 PUSH2 0x1B5A JUMP JUMPDEST PUSH2 0x2841 PUSH1 0x40 DUP4 ADD DUP5 PUSH2 0x1A37 JUMP JUMPDEST SWAP5 SWAP4 POP POP POP POP JUMP INVALID LOG2 PUSH5 0x6970667358 0x22 SLT KECCAK256 TIMESTAMP BLOBHASH DUP3 PUSH31 0xAE048FC7F4ADFBEE6D2AA27CB80F0F59EEDC98ECE5BB34A6DD9E9E9964736F PUSH13 0x634300081A0033000000000000 "
				},
				"gasEstimates": {
					"creation": {
						"codeDepositCost": "2073400",
						"executionCost": "infinite",
						"totalCost": "infinite"
					},
					"external": {
						"MAX_CHUNK_SIZE()": "415",
						"MAX_FILE_SIZE()": "348",
						"fileExists(bytes32)": "2862",
						"getChunkCount(bytes32)": "5161",
						"getChunkInfo(bytes32,uint256)": "infinite",
						"getFileMetadata(bytes32)": "infinite",
						"getFileSize(bytes32)": "5073",
						"hasAccess(bytes32,address)": "3140",
						"owner()": "2582",
						"removeFile(bytes32)": "104386",
						"renounceOwnership()": "infinite",
						"retrieveChunk(bytes32,uint256)": "infinite",
						"retrieveFile(bytes32)": "infinite",
						"storeChunk(bytes32,uint256,bytes)": "infinite",
						"storeChunk(bytes32,uint256,bytes,bool)": "infinite",
						"storeChunk(bytes32,uint256,bytes,bytes32)": "infinite",
						"storeFile(bytes32,bytes,bool,bytes32)": "infinite",
						"storeFile(bytes32,uint256,uint256,bool,string)": "infinite",
						"storeFile(bytes32,uint256,uint256,string,bool,string,bytes32)": "infinite",
						"transferOwnership(address)": "infinite",
						"updateEncryption(bytes32,bool)": "infinite",
						"updateEncryption(bytes32,bytes32)": "infinite",
						"verifyChunk(bytes32,uint256,bytes,bytes32)": "infinite",
						"verifyChunk(bytes32,uint256,bytes32)": "infinite"
					},
					"internal": {
						"_createFile(bytes32,uint256,uint256,bool,bytes32)": "infinite",
						"_storeChunk(bytes32,uint256,bytes calldata,bytes32)": "infinite"
					}
				},
				"methodIdentifiers": {
					"MAX_CHUNK_SIZE()": "2f0e14fb",
					"MAX_FILE_SIZE()": "5a9baf37",
					"fileExists(bytes32)": "0cec5f62",
					"getChunkCount(bytes32)": "f292671b",
					"getChunkInfo(bytes32,uint256)": "2a4d4280",
					"getFileMetadata(bytes32)": "65f35371",
					"getFileSize(bytes32)": "d3bb8b96",
					"hasAccess(bytes32,address)": "83177db3",
					"owner()": "8da5cb5b",
					"removeFile(bytes32)": "0bef429b",
					"renounceOwnership()": "715018a6",
					"retrieveChunk(bytes32,uint256)": "d2b18b60",
					"retrieveFile(bytes32)": "87ebbf67",
					"storeChunk(bytes32,uint256,bytes)": "6a2b0518",
					"storeChunk(bytes32,uint256,bytes,bool)": "4d73269c",
					"storeChunk(bytes32,uint256,bytes,bytes32)": "6e2d7d38",
					"storeFile(bytes32,bytes,bool,bytes32)": "760fc7b8",
					"storeFile(bytes32,uint256,uint256,bool,string)": "d4838061",
					"storeFile(bytes32,uint256,uint256,string,bool,string,bytes32)": "dafc9fc1",
					"transferOwnership(address)": "f2fde38b",
					"updateEncryption(bytes32,bool)": "a4f39329",
					"updateEncryption(bytes32,bytes32)": "49385399",
					"verifyChunk(bytes32,uint256,bytes,bytes32)": "d88eedf6",
					"verifyChunk(bytes32,uint256,bytes32)": "ab2cbcb3"
				}
			},
			"storageLayout": {
				"storage": [
					{
						"astId": 8,
						"contract": "core/Storage.sol:Storage",
						"label": "_owner",
						"offset": 0,
						"slot": "0",
						"type": "t_address"
					},
					{
						"astId": 188,
						"contract": "core/Storage.sol:Storage",
						"label": "_status",
						"offset": 0,
						"slot": "1",
						"type": "t_uint256"
					},
					{
						"astId": 274,
						"contract": "core/Storage.sol:Storage",
						"label": "files",
						"offset": 0,
						"slot": "2",
						"type": "t_mapping(t_bytes32,t_struct(FileMetadata)1068_storage)"
					},
					{
						"astId": 281,
						"contract": "core/Storage.sol:Storage",
						"label": "chunks",
						"offset": 0,
						"slot": "3",
						"type": "t_mapping(t_bytes32,t_mapping(t_uint256,t_struct(ChunkInfo)1078_storage))"
					},
					{
						"astId": 287,
						"contract": "core/Storage.sol:Storage",
						"label": "accessControl",
						"offset": 0,
						"slot": "4",
						"type": "t_mapping(t_bytes32,t_mapping(t_address,t_bool))"
					}
				],
				"types": {
					"t_address": {
						"encoding": "inplace",
						"label": "address",
						"numberOfBytes": "20"
					},
					"t_bool": {
						"encoding": "inplace",
						"label": "bool",
						"numberOfBytes": "1"
					},
					"t_bytes32": {
						"encoding": "inplace",
						"label": "bytes32",
						"numberOfBytes": "32"
					},
					"t_mapping(t_address,t_bool)": {
						"encoding": "mapping",
						"key": "t_address",
						"label": "mapping(address => bool)",
						"numberOfBytes": "32",
						"value": "t_bool"
					},
					"t_mapping(t_bytes32,t_mapping(t_address,t_bool))": {
						"encoding": "mapping",
						"key": "t_bytes32",
						"label": "mapping(bytes32 => mapping(address => bool))",
						"numberOfBytes": "32",
						"value": "t_mapping(t_address,t_bool)"
					},
					"t_mapping(t_bytes32,t_mapping(t_uint256,t_struct(ChunkInfo)1078_storage))": {
						"encoding": "mapping",
						"key": "t_bytes32",
						"label": "mapping(bytes32 => mapping(uint256 => struct IStorage.ChunkInfo))",
						"numberOfBytes": "32",
						"value": "t_mapping(t_uint256,t_struct(ChunkInfo)1078_storage)"
					},
					"t_mapping(t_bytes32,t_struct(FileMetadata)1068_storage)": {
						"encoding": "mapping",
						"key": "t_bytes32",
						"label": "mapping(bytes32 => struct IStorage.FileMetadata)",
						"numberOfBytes": "32",
						"value": "t_struct(FileMetadata)1068_storage"
					},
					"t_mapping(t_uint256,t_struct(ChunkInfo)1078_storage)": {
						"encoding": "mapping",
						"key": "t_uint256",
						"label": "mapping(uint256 => struct IStorage.ChunkInfo)",
						"numberOfBytes": "32",
						"value": "t_struct(ChunkInfo)1078_storage"
					},
					"t_struct(ChunkInfo)1078_storage": {
						"encoding": "inplace",
						"label": "struct IStorage.ChunkInfo",
						"members": [
							{
								"astId": 1071,
								"contract": "core/Storage.sol:Storage",
								"label": "index",
								"offset": 0,
								"slot": "0",
								"type": "t_uint256"
							},
							{
								"astId": 1073,
								"contract": "core/Storage.sol:Storage",
								"label": "size",
								"offset": 0,
								"slot": "1",
								"type": "t_uint256"
							},
							{
								"astId": 1075,
								"contract": "core/Storage.sol:Storage",
								"label": "hash",
								"offset": 0,
								"slot": "2",
								"type": "t_bytes32"
							},
							{
								"astId": 1077,
								"contract": "core/Storage.sol:Storage",
								"label": "proof",
								"offset": 0,
								"slot": "3",
								"type": "t_bytes32"
							}
						],
						"numberOfBytes": "128"
					},
					"t_struct(FileMetadata)1068_storage": {
						"encoding": "inplace",
						"label": "struct IStorage.FileMetadata",
						"members": [
							{
								"astId": 1053,
								"contract": "core/Storage.sol:Storage",
								"label": "fileHash",
								"offset": 0,
								"slot": "0",
								"type": "t_bytes32"
							},
							{
								"astId": 1055,
								"contract": "core/Storage.sol:Storage",
								"label": "owner",
								"offset": 0,
								"slot": "1",
								"type": "t_address"
							},
							{
								"astId": 1057,
								"contract": "core/Storage.sol:Storage",
								"label": "size",
								"offset": 0,
								"slot": "2",
								"type": "t_uint256"
							},
							{
								"astId": 1059,
								"contract": "core/Storage.sol:Storage",
								"label": "created",
								"offset": 0,
								"slot": "3",
								"type": "t_uint256"
							},
							{
								"astId": 1061,
								"contract": "core/Storage.sol:Storage",
								"label": "isEncrypted",
								"offset": 0,
								"slot": "4",
								"type": "t_bool"
							},
							{
								"astId": 1063,
								"contract": "core/Storage.sol:Storage",
								"label": "encryptionProof",
								"offset": 0,
								"slot": "5",
								"type": "t_bytes32"
							},
							{
								"astId": 1065,
								"contract": "core/Storage.sol:Storage",
								"label": "chunks",
								"offset": 0,
								"slot": "6",
								"type": "t_uint256"
							},
							{
								"astId": 1067,
								"contract": "core/Storage.sol:Storage",
								"label": "exists",
								"offset": 0,
								"slot": "7",
								"type": "t_bool"
							}
						],
						"numberOfBytes": "256"
					},
					"t_uint256": {
						"encoding": "inplace",
						"label": "uint256",
						"numberOfBytes": "32"
					}
				}
			},
			"userdoc": {
				"kind": "user",
				"methods": {
					"storeFile(bytes32,bytes,bool,bytes32)": {
						"notice": "Store file data"
					},
					"updateEncryption(bytes32,bytes32)": {
						"notice": "Update file encryption status"
					}
				},
				"version": 1
			}
		}
	}
}