{
	"core/MessageRegistry.sol": {
		"MessageRegistry": {
			"abi": [
				{
					"inputs": [
						{
							"internalType": "address",
							"name": "_verifier",
							"type": "address"
						},
						{
							"internalType": "address",
							"name": "_owner",
							"type": "address"
						}
					],
					"stateMutability": "nonpayable",
					"type": "constructor"
				},
				{
					"inputs": [],
					"name": "EnforcedPause",
					"type": "error"
				},
				{
					"inputs": [],
					"name": "ExpectedPause",
					"type": "error"
				},
				{
					"inputs": [
						{
							"internalType": "address",
							"name": "owner",
							"type": "address"
						}
					],
					"name": "OwnableInvalidOwner",
					"type": "error"
				},
				{
					"inputs": [
						{
							"internalType": "address",
							"name": "account",
							"type": "address"
						}
					],
					"name": "OwnableUnauthorizedAccount",
					"type": "error"
				},
				{
					"inputs": [],
					"name": "ReentrancyGuardReentrantCall",
					"type": "error"
				},
				{
					"anonymous": false,
					"inputs": [
						{
							"indexed": true,
							"internalType": "bytes32",
							"name": "commitment",
							"type": "bytes32"
						},
						{
							"indexed": false,
							"internalType": "uint256",
							"name": "timestamp",
							"type": "uint256"
						}
					],
					"name": "MessageRead",
					"type": "event"
				},
				{
					"anonymous": false,
					"inputs": [
						{
							"indexed": true,
							"internalType": "bytes32",
							"name": "commitment",
							"type": "bytes32"
						},
						{
							"indexed": true,
							"internalType": "address",
							"name": "recipient",
							"type": "address"
						},
						{
							"indexed": false,
							"internalType": "uint256",
							"name": "timestamp",
							"type": "uint256"
						}
					],
					"name": "MessageStored",
					"type": "event"
				},
				{
					"anonymous": false,
					"inputs": [
						{
							"indexed": true,
							"internalType": "address",
							"name": "previousOwner",
							"type": "address"
						},
						{
							"indexed": true,
							"internalType": "address",
							"name": "newOwner",
							"type": "address"
						}
					],
					"name": "OwnershipTransferred",
					"type": "event"
				},
				{
					"anonymous": false,
					"inputs": [
						{
							"indexed": false,
							"internalType": "address",
							"name": "account",
							"type": "address"
						}
					],
					"name": "Paused",
					"type": "event"
				},
				{
					"anonymous": false,
					"inputs": [
						{
							"indexed": false,
							"internalType": "address",
							"name": "account",
							"type": "address"
						}
					],
					"name": "Unpaused",
					"type": "event"
				},
				{
					"inputs": [
						{
							"internalType": "bytes32",
							"name": "commitment",
							"type": "bytes32"
						}
					],
					"name": "getMessage",
					"outputs": [
						{
							"components": [
								{
									"internalType": "bytes32",
									"name": "commitment",
									"type": "bytes32"
								},
								{
									"internalType": "bytes32",
									"name": "nullifier",
									"type": "bytes32"
								},
								{
									"internalType": "address",
									"name": "sender",
									"type": "address"
								},
								{
									"internalType": "address",
									"name": "recipient",
									"type": "address"
								},
								{
									"internalType": "bytes",
									"name": "encryptedContent",
									"type": "bytes"
								},
								{
									"internalType": "uint256",
									"name": "timestamp",
									"type": "uint256"
								},
								{
									"internalType": "bool",
									"name": "isRead",
									"type": "bool"
								},
								{
									"internalType": "bytes",
									"name": "proof",
									"type": "bytes"
								}
							],
							"internalType": "struct IMessaging.Message",
							"name": "",
							"type": "tuple"
						}
					],
					"stateMutability": "view",
					"type": "function"
				},
				{
					"inputs": [
						{
							"internalType": "address",
							"name": "user",
							"type": "address"
						}
					],
					"name": "getUserMessageCount",
					"outputs": [
						{
							"internalType": "uint256",
							"name": "",
							"type": "uint256"
						}
					],
					"stateMutability": "view",
					"type": "function"
				},
				{
					"inputs": [
						{
							"internalType": "address",
							"name": "user",
							"type": "address"
						},
						{
							"internalType": "uint256",
							"name": "offset",
							"type": "uint256"
						},
						{
							"internalType": "uint256",
							"name": "limit",
							"type": "uint256"
						}
					],
					"name": "getUserMessages",
					"outputs": [
						{
							"components": [
								{
									"internalType": "bytes32",
									"name": "commitment",
									"type": "bytes32"
								},
								{
									"internalType": "bytes32",
									"name": "nullifier",
									"type": "bytes32"
								},
								{
									"internalType": "address",
									"name": "sender",
									"type": "address"
								},
								{
									"internalType": "address",
									"name": "recipient",
									"type": "address"
								},
								{
									"internalType": "bytes",
									"name": "encryptedContent",
									"type": "bytes"
								},
								{
									"internalType": "uint256",
									"name": "timestamp",
									"type": "uint256"
								},
								{
									"internalType": "bool",
									"name": "isRead",
									"type": "bool"
								},
								{
									"internalType": "bytes",
									"name": "proof",
									"type": "bytes"
								}
							],
							"internalType": "struct IMessaging.Message[]",
							"name": "",
							"type": "tuple[]"
						}
					],
					"stateMutability": "view",
					"type": "function"
				},
				{
					"inputs": [
						{
							"internalType": "bytes32",
							"name": "commitment",
							"type": "bytes32"
						}
					],
					"name": "markMessageRead",
					"outputs": [],
					"stateMutability": "nonpayable",
					"type": "function"
				},
				{
					"inputs": [
						{
							"internalType": "bytes32",
							"name": "",
							"type": "bytes32"
						}
					],
					"name": "messages",
					"outputs": [
						{
							"internalType": "bytes32",
							"name": "commitment",
							"type": "bytes32"
						},
						{
							"internalType": "bytes32",
							"name": "nullifier",
							"type": "bytes32"
						},
						{
							"internalType": "address",
							"name": "sender",
							"type": "address"
						},
						{
							"internalType": "address",
							"name": "recipient",
							"type": "address"
						},
						{
							"internalType": "bytes",
							"name": "encryptedContent",
							"type": "bytes"
						},
						{
							"internalType": "uint256",
							"name": "timestamp",
							"type": "uint256"
						},
						{
							"internalType": "bool",
							"name": "isRead",
							"type": "bool"
						},
						{
							"internalType": "bytes",
							"name": "proof",
							"type": "bytes"
						}
					],
					"stateMutability": "view",
					"type": "function"
				},
				{
					"inputs": [
						{
							"internalType": "bytes32",
							"name": "",
							"type": "bytes32"
						}
					],
					"name": "nullifierUsed",
					"outputs": [
						{
							"internalType": "bool",
							"name": "",
							"type": "bool"
						}
					],
					"stateMutability": "view",
					"type": "function"
				},
				{
					"inputs": [],
					"name": "owner",
					"outputs": [
						{
							"internalType": "address",
							"name": "",
							"type": "address"
						}
					],
					"stateMutability": "view",
					"type": "function"
				},
				{
					"inputs": [],
					"name": "pause",
					"outputs": [],
					"stateMutability": "nonpayable",
					"type": "function"
				},
				{
					"inputs": [],
					"name": "paused",
					"outputs": [
						{
							"internalType": "bool",
							"name": "",
							"type": "bool"
						}
					],
					"stateMutability": "view",
					"type": "function"
				},
				{
					"inputs": [],
					"name": "renounceOwnership",
					"outputs": [],
					"stateMutability": "nonpayable",
					"type": "function"
				},
				{
					"inputs": [
						{
							"internalType": "address",
							"name": "recipient",
							"type": "address"
						},
						{
							"internalType": "bytes",
							"name": "encryptedMessage",
							"type": "bytes"
						},
						{
							"internalType": "bytes32",
							"name": "messageHash",
							"type": "bytes32"
						}
					],
					"name": "sendMessage",
					"outputs": [],
					"stateMutability": "nonpayable",
					"type": "function"
				},
				{
					"inputs": [
						{
							"internalType": "address",
							"name": "_verifier",
							"type": "address"
						}
					],
					"name": "setVerifier",
					"outputs": [],
					"stateMutability": "nonpayable",
					"type": "function"
				},
				{
					"inputs": [
						{
							"internalType": "bytes32",
							"name": "commitment",
							"type": "bytes32"
						},
						{
							"internalType": "bytes32",
							"name": "nullifier",
							"type": "bytes32"
						},
						{
							"internalType": "address",
							"name": "recipient",
							"type": "address"
						},
						{
							"internalType": "bytes",
							"name": "encryptedContent",
							"type": "bytes"
						},
						{
							"internalType": "bytes",
							"name": "proof",
							"type": "bytes"
						}
					],
					"name": "storeMessage",
					"outputs": [],
					"stateMutability": "nonpayable",
					"type": "function"
				},
				{
					"inputs": [
						{
							"internalType": "address",
							"name": "newOwner",
							"type": "address"
						}
					],
					"name": "transferOwnership",
					"outputs": [],
					"stateMutability": "nonpayable",
					"type": "function"
				},
				{
					"inputs": [],
					"name": "unpause",
					"outputs": [],
					"stateMutability": "nonpayable",
					"type": "function"
				},
				{
					"inputs": [
						{
							"internalType": "address",
							"name": "",
							"type": "address"
						},
						{
							"internalType": "uint256",
							"name": "",
							"type": "uint256"
						}
					],
					"name": "userMessages",
					"outputs": [
						{
							"internalType": "bytes32",
							"name": "",
							"type": "bytes32"
						}
					],
					"stateMutability": "view",
					"type": "function"
				},
				{
					"inputs": [],
					"name": "verifier",
					"outputs": [
						{
							"internalType": "contract IVerifier",
							"name": "",
							"type": "address"
						}
					],
					"stateMutability": "view",
					"type": "function"
				}
			],
			"devdoc": {
				"errors": {
					"EnforcedPause()": [
						{
							"details": "The operation failed because the contract is paused."
						}
					],
					"ExpectedPause()": [
						{
							"details": "The operation failed because the contract is not paused."
						}
					],
					"OwnableInvalidOwner(address)": [
						{
							"details": "The owner is not a valid owner account. (eg. `address(0)`)"
						}
					],
					"OwnableUnauthorizedAccount(address)": [
						{
							"details": "The caller account is not authorized to perform an operation."
						}
					],
					"ReentrancyGuardReentrantCall()": [
						{
							"details": "Unauthorized reentrant call."
						}
					]
				},
				"events": {
					"Paused(address)": {
						"details": "Emitted when the pause is triggered by `account`."
					},
					"Unpaused(address)": {
						"details": "Emitted when the pause is lifted by `account`."
					}
				},
				"kind": "dev",
				"methods": {
					"owner()": {
						"details": "Returns the address of the current owner."
					},
					"paused()": {
						"details": "Returns true if the contract is paused, and false otherwise."
					},
					"renounceOwnership()": {
						"details": "Leaves the contract without owner. It will not be possible to call `onlyOwner` functions. Can only be called by the current owner. NOTE: Renouncing ownership will leave the contract without an owner, thereby disabling any functionality that is only available to the owner."
					},
					"transferOwnership(address)": {
						"details": "Transfers ownership of the contract to a new account (`newOwner`). Can only be called by the current owner."
					}
				},
				"version": 1
			},
			"evm": {
				"assembly": "    /* \"core/MessageRegistry.sol\":302:5165  contract MessageRegistry is IMessaging, Ownable, ReentrancyGuard, Pausable {... */\n  mstore(0x40, 0x80)\n    /* \"core/MessageRegistry.sol\":602:805  constructor(... */\n  callvalue\n  dup1\n  iszero\n  tag_1\n  jumpi\n  0x00\n  dup1\n  revert\ntag_1:\n  pop\n  mload(0x40)\n  sub(codesize, bytecodeSize)\n  dup1\n  bytecodeSize\n  dup4\n  codecopy\n  dup2\n  dup2\n  add\n  0x40\n  mstore\n  dup2\n  add\n  swap1\n  tag_2\n  swap2\n  swap1\n  tag_3\n  jump\t// in\ntag_2:\n    /* \"core/MessageRegistry.sol\":679:685  _owner */\n  dup1\n    /* \"@openzeppelin/contracts/access/Ownable.sol\":1297:1298  0 */\n  0x00\n    /* \"@openzeppelin/contracts/access/Ownable.sol\":1273:1299  initialOwner == address(0) */\n  0xffffffffffffffffffffffffffffffffffffffff\n  and\n    /* \"@openzeppelin/contracts/access/Ownable.sol\":1273:1285  initialOwner */\n  dup2\n    /* \"@openzeppelin/contracts/access/Ownable.sol\":1273:1299  initialOwner == address(0) */\n  0xffffffffffffffffffffffffffffffffffffffff\n  and\n  sub\n    /* \"@openzeppelin/contracts/access/Ownable.sol\":1269:1364  if (initialOwner == address(0)) {... */\n  tag_9\n  jumpi\n    /* \"@openzeppelin/contracts/access/Ownable.sol\":1350:1351  0 */\n  0x00\n    /* \"@openzeppelin/contracts/access/Ownable.sol\":1322:1353  OwnableInvalidOwner(address(0)) */\n  mload(0x40)\n  0x1e4fbdf700000000000000000000000000000000000000000000000000000000\n  dup2\n  mstore\n  0x04\n  add\n  tag_10\n  swap2\n  swap1\n  tag_11\n  jump\t// in\ntag_10:\n  mload(0x40)\n  dup1\n  swap2\n  sub\n  swap1\n  revert\n    /* \"@openzeppelin/contracts/access/Ownable.sol\":1269:1364  if (initialOwner == address(0)) {... */\ntag_9:\n    /* \"@openzeppelin/contracts/access/Ownable.sol\":1373:1405  _transferOwnership(initialOwner) */\n  tag_12\n    /* \"@openzeppelin/contracts/access/Ownable.sol\":1392:1404  initialOwner */\n  dup2\n    /* \"@openzeppelin/contracts/access/Ownable.sol\":1373:1391  _transferOwnership */\n  shl(0x20, tag_13)\n    /* \"@openzeppelin/contracts/access/Ownable.sol\":1373:1405  _transferOwnership(initialOwner) */\n  0x20\n  shr\n  jump\t// in\ntag_12:\n    /* \"@openzeppelin/contracts/access/Ownable.sol\":1225:1412  constructor(address initialOwner) {... */\n  pop\n    /* \"@openzeppelin/contracts/utils/ReentrancyGuard.sol\":1857:1858  1 */\n  0x01\n    /* \"@openzeppelin/contracts/utils/ReentrancyGuard.sol\":2061:2068  _status */\n  dup1\n    /* \"@openzeppelin/contracts/utils/ReentrancyGuard.sol\":2061:2082  _status = NOT_ENTERED */\n  dup2\n  swap1\n  sstore\n  pop\n    /* \"@openzeppelin/contracts/utils/Pausable.sol\":1241:1246  false */\n  0x00\n    /* \"@openzeppelin/contracts/utils/Pausable.sol\":1231:1238  _paused */\n  0x02\n  0x00\n    /* \"@openzeppelin/contracts/utils/Pausable.sol\":1231:1246  _paused = false */\n  0x0100\n  exp\n  dup2\n  sload\n  dup2\n  0xff\n  mul\n  not\n  and\n  swap1\n  dup4\n  iszero\n  iszero\n  mul\n  or\n  swap1\n  sstore\n  pop\n    /* \"core/MessageRegistry.sol\":726:727  0 */\n  0x00\n    /* \"core/MessageRegistry.sol\":705:728  _verifier != address(0) */\n  0xffffffffffffffffffffffffffffffffffffffff\n  and\n    /* \"core/MessageRegistry.sol\":705:714  _verifier */\n  dup3\n    /* \"core/MessageRegistry.sol\":705:728  _verifier != address(0) */\n  0xffffffffffffffffffffffffffffffffffffffff\n  and\n  sub\n    /* \"core/MessageRegistry.sol\":697:757  require(_verifier != address(0), \"Invalid verifier address\") */\n  tag_17\n  jumpi\n  mload(0x40)\n  0x08c379a000000000000000000000000000000000000000000000000000000000\n  dup2\n  mstore\n  0x04\n  add\n  tag_18\n  swap1\n  tag_19\n  jump\t// in\ntag_18:\n  mload(0x40)\n  dup1\n  swap2\n  sub\n  swap1\n  revert\ntag_17:\n    /* \"core/MessageRegistry.sol\":788:797  _verifier */\n  dup2\n    /* \"core/MessageRegistry.sol\":767:775  verifier */\n  0x02\n  0x01\n    /* \"core/MessageRegistry.sol\":767:798  verifier = IVerifier(_verifier) */\n  0x0100\n  exp\n  dup2\n  sload\n  dup2\n  0xffffffffffffffffffffffffffffffffffffffff\n  mul\n  not\n  and\n  swap1\n  dup4\n  0xffffffffffffffffffffffffffffffffffffffff\n  and\n  mul\n  or\n  swap1\n  sstore\n  pop\n    /* \"core/MessageRegistry.sol\":602:805  constructor(... */\n  pop\n  pop\n    /* \"core/MessageRegistry.sol\":302:5165  contract MessageRegistry is IMessaging, Ownable, ReentrancyGuard, Pausable {... */\n  jump(tag_20)\n    /* \"@openzeppelin/contracts/access/Ownable.sol\":2912:3099  function _transferOwnership(address newOwner) internal virtual {... */\ntag_13:\n    /* \"@openzeppelin/contracts/access/Ownable.sol\":2985:3001  address oldOwner */\n  0x00\n    /* \"@openzeppelin/contracts/access/Ownable.sol\":3004:3010  _owner */\n  dup1\n  0x00\n  swap1\n  sload\n  swap1\n  0x0100\n  exp\n  swap1\n  div\n  0xffffffffffffffffffffffffffffffffffffffff\n  and\n    /* \"@openzeppelin/contracts/access/Ownable.sol\":2985:3010  address oldOwner = _owner */\n  swap1\n  pop\n    /* \"@openzeppelin/contracts/access/Ownable.sol\":3029:3037  newOwner */\n  dup2\n    /* \"@openzeppelin/contracts/access/Ownable.sol\":3020:3026  _owner */\n  0x00\n  dup1\n    /* \"@openzeppelin/contracts/access/Ownable.sol\":3020:3037  _owner = newOwner */\n  0x0100\n  exp\n  dup2\n  sload\n  dup2\n  0xffffffffffffffffffffffffffffffffffffffff\n  mul\n  not\n  and\n  swap1\n  dup4\n  0xffffffffffffffffffffffffffffffffffffffff\n  and\n  mul\n  or\n  swap1\n  sstore\n  pop\n    /* \"@openzeppelin/contracts/access/Ownable.sol\":3083:3091  newOwner */\n  dup2\n    /* \"@openzeppelin/contracts/access/Ownable.sol\":3052:3092  OwnershipTransferred(oldOwner, newOwner) */\n  0xffffffffffffffffffffffffffffffffffffffff\n  and\n    /* \"@openzeppelin/contracts/access/Ownable.sol\":3073:3081  oldOwner */\n  dup2\n    /* \"@openzeppelin/contracts/access/Ownable.sol\":3052:3092  OwnershipTransferred(oldOwner, newOwner) */\n  0xffffffffffffffffffffffffffffffffffffffff\n  and\n  0x8be0079c531659141344cd1fd0a4f28419497f9722a3daafe3b4186f6b6457e0\n  mload(0x40)\n  mload(0x40)\n  dup1\n  swap2\n  sub\n  swap1\n  log3\n    /* \"@openzeppelin/contracts/access/Ownable.sol\":2975:3099  {... */\n  pop\n    /* \"@openzeppelin/contracts/access/Ownable.sol\":2912:3099  function _transferOwnership(address newOwner) internal virtual {... */\n  pop\n  jump\t// out\n    /* \"#utility.yul\":88:205   */\ntag_23:\n    /* \"#utility.yul\":197:198   */\n  0x00\n    /* \"#utility.yul\":194:195   */\n  dup1\n    /* \"#utility.yul\":187:199   */\n  revert\n    /* \"#utility.yul\":334:460   */\ntag_25:\n    /* \"#utility.yul\":371:378   */\n  0x00\n    /* \"#utility.yul\":411:453   */\n  0xffffffffffffffffffffffffffffffffffffffff\n    /* \"#utility.yul\":404:409   */\n  dup3\n    /* \"#utility.yul\":400:454   */\n  and\n    /* \"#utility.yul\":389:454   */\n  swap1\n  pop\n    /* \"#utility.yul\":334:460   */\n  swap2\n  swap1\n  pop\n  jump\t// out\n    /* \"#utility.yul\":466:562   */\ntag_26:\n    /* \"#utility.yul\":503:510   */\n  0x00\n    /* \"#utility.yul\":532:556   */\n  tag_39\n    /* \"#utility.yul\":550:555   */\n  dup3\n    /* \"#utility.yul\":532:556   */\n  tag_25\n  jump\t// in\ntag_39:\n    /* \"#utility.yul\":521:556   */\n  swap1\n  pop\n    /* \"#utility.yul\":466:562   */\n  swap2\n  swap1\n  pop\n  jump\t// out\n    /* \"#utility.yul\":568:690   */\ntag_27:\n    /* \"#utility.yul\":641:665   */\n  tag_41\n    /* \"#utility.yul\":659:664   */\n  dup2\n    /* \"#utility.yul\":641:665   */\n  tag_26\n  jump\t// in\ntag_41:\n    /* \"#utility.yul\":634:639   */\n  dup2\n    /* \"#utility.yul\":631:666   */\n  eq\n    /* \"#utility.yul\":621:684   */\n  tag_42\n  jumpi\n    /* \"#utility.yul\":680:681   */\n  0x00\n    /* \"#utility.yul\":677:678   */\n  dup1\n    /* \"#utility.yul\":670:682   */\n  revert\n    /* \"#utility.yul\":621:684   */\ntag_42:\n    /* \"#utility.yul\":568:690   */\n  pop\n  jump\t// out\n    /* \"#utility.yul\":696:839   */\ntag_28:\n    /* \"#utility.yul\":753:758   */\n  0x00\n    /* \"#utility.yul\":784:790   */\n  dup2\n    /* \"#utility.yul\":778:791   */\n  mload\n    /* \"#utility.yul\":769:791   */\n  swap1\n  pop\n    /* \"#utility.yul\":800:833   */\n  tag_44\n    /* \"#utility.yul\":827:832   */\n  dup2\n    /* \"#utility.yul\":800:833   */\n  tag_27\n  jump\t// in\ntag_44:\n    /* \"#utility.yul\":696:839   */\n  swap3\n  swap2\n  pop\n  pop\n  jump\t// out\n    /* \"#utility.yul\":845:1352   */\ntag_3:\n    /* \"#utility.yul\":924:930   */\n  0x00\n    /* \"#utility.yul\":932:938   */\n  dup1\n    /* \"#utility.yul\":981:983   */\n  0x40\n    /* \"#utility.yul\":969:978   */\n  dup4\n    /* \"#utility.yul\":960:967   */\n  dup6\n    /* \"#utility.yul\":956:979   */\n  sub\n    /* \"#utility.yul\":952:984   */\n  slt\n    /* \"#utility.yul\":949:1068   */\n  iszero\n  tag_46\n  jumpi\n    /* \"#utility.yul\":987:1066   */\n  tag_47\n  tag_23\n  jump\t// in\ntag_47:\n    /* \"#utility.yul\":949:1068   */\ntag_46:\n    /* \"#utility.yul\":1107:1108   */\n  0x00\n    /* \"#utility.yul\":1132:1196   */\n  tag_48\n    /* \"#utility.yul\":1188:1195   */\n  dup6\n    /* \"#utility.yul\":1179:1185   */\n  dup3\n    /* \"#utility.yul\":1168:1177   */\n  dup7\n    /* \"#utility.yul\":1164:1186   */\n  add\n    /* \"#utility.yul\":1132:1196   */\n  tag_28\n  jump\t// in\ntag_48:\n    /* \"#utility.yul\":1122:1196   */\n  swap3\n  pop\n    /* \"#utility.yul\":1078:1206   */\n  pop\n    /* \"#utility.yul\":1245:1247   */\n  0x20\n    /* \"#utility.yul\":1271:1335   */\n  tag_49\n    /* \"#utility.yul\":1327:1334   */\n  dup6\n    /* \"#utility.yul\":1318:1324   */\n  dup3\n    /* \"#utility.yul\":1307:1316   */\n  dup7\n    /* \"#utility.yul\":1303:1325   */\n  add\n    /* \"#utility.yul\":1271:1335   */\n  tag_28\n  jump\t// in\ntag_49:\n    /* \"#utility.yul\":1261:1335   */\n  swap2\n  pop\n    /* \"#utility.yul\":1216:1345   */\n  pop\n    /* \"#utility.yul\":845:1352   */\n  swap3\n  pop\n  swap3\n  swap1\n  pop\n  jump\t// out\n    /* \"#utility.yul\":1358:1476   */\ntag_29:\n    /* \"#utility.yul\":1445:1469   */\n  tag_51\n    /* \"#utility.yul\":1463:1468   */\n  dup2\n    /* \"#utility.yul\":1445:1469   */\n  tag_26\n  jump\t// in\ntag_51:\n    /* \"#utility.yul\":1440:1443   */\n  dup3\n    /* \"#utility.yul\":1433:1470   */\n  mstore\n    /* \"#utility.yul\":1358:1476   */\n  pop\n  pop\n  jump\t// out\n    /* \"#utility.yul\":1482:1704   */\ntag_11:\n    /* \"#utility.yul\":1575:1579   */\n  0x00\n    /* \"#utility.yul\":1613:1615   */\n  0x20\n    /* \"#utility.yul\":1602:1611   */\n  dup3\n    /* \"#utility.yul\":1598:1616   */\n  add\n    /* \"#utility.yul\":1590:1616   */\n  swap1\n  pop\n    /* \"#utility.yul\":1626:1697   */\n  tag_53\n    /* \"#utility.yul\":1694:1695   */\n  0x00\n    /* \"#utility.yul\":1683:1692   */\n  dup4\n    /* \"#utility.yul\":1679:1696   */\n  add\n    /* \"#utility.yul\":1670:1676   */\n  dup5\n    /* \"#utility.yul\":1626:1697   */\n  tag_29\n  jump\t// in\ntag_53:\n    /* \"#utility.yul\":1482:1704   */\n  swap3\n  swap2\n  pop\n  pop\n  jump\t// out\n    /* \"#utility.yul\":1710:1879   */\ntag_30:\n    /* \"#utility.yul\":1794:1805   */\n  0x00\n    /* \"#utility.yul\":1828:1834   */\n  dup3\n    /* \"#utility.yul\":1823:1826   */\n  dup3\n    /* \"#utility.yul\":1816:1835   */\n  mstore\n    /* \"#utility.yul\":1868:1872   */\n  0x20\n    /* \"#utility.yul\":1863:1866   */\n  dup3\n    /* \"#utility.yul\":1859:1873   */\n  add\n    /* \"#utility.yul\":1844:1873   */\n  swap1\n  pop\n    /* \"#utility.yul\":1710:1879   */\n  swap3\n  swap2\n  pop\n  pop\n  jump\t// out\n    /* \"#utility.yul\":1885:2059   */\ntag_31:\n    /* \"#utility.yul\":2025:2051   */\n  0x496e76616c696420766572696669657220616464726573730000000000000000\n    /* \"#utility.yul\":2021:2022   */\n  0x00\n    /* \"#utility.yul\":2013:2019   */\n  dup3\n    /* \"#utility.yul\":2009:2023   */\n  add\n    /* \"#utility.yul\":2002:2052   */\n  mstore\n    /* \"#utility.yul\":1885:2059   */\n  pop\n  jump\t// out\n    /* \"#utility.yul\":2065:2431   */\ntag_32:\n    /* \"#utility.yul\":2207:2210   */\n  0x00\n    /* \"#utility.yul\":2228:2295   */\n  tag_57\n    /* \"#utility.yul\":2292:2294   */\n  0x18\n    /* \"#utility.yul\":2287:2290   */\n  dup4\n    /* \"#utility.yul\":2228:2295   */\n  tag_30\n  jump\t// in\ntag_57:\n    /* \"#utility.yul\":2221:2295   */\n  swap2\n  pop\n    /* \"#utility.yul\":2304:2397   */\n  tag_58\n    /* \"#utility.yul\":2393:2396   */\n  dup3\n    /* \"#utility.yul\":2304:2397   */\n  tag_31\n  jump\t// in\ntag_58:\n    /* \"#utility.yul\":2422:2424   */\n  0x20\n    /* \"#utility.yul\":2417:2420   */\n  dup3\n    /* \"#utility.yul\":2413:2425   */\n  add\n    /* \"#utility.yul\":2406:2425   */\n  swap1\n  pop\n    /* \"#utility.yul\":2065:2431   */\n  swap2\n  swap1\n  pop\n  jump\t// out\n    /* \"#utility.yul\":2437:2856   */\ntag_19:\n    /* \"#utility.yul\":2603:2607   */\n  0x00\n    /* \"#utility.yul\":2641:2643   */\n  0x20\n    /* \"#utility.yul\":2630:2639   */\n  dup3\n    /* \"#utility.yul\":2626:2644   */\n  add\n    /* \"#utility.yul\":2618:2644   */\n  swap1\n  pop\n    /* \"#utility.yul\":2690:2699   */\n  dup2\n    /* \"#utility.yul\":2684:2688   */\n  dup2\n    /* \"#utility.yul\":2680:2700   */\n  sub\n    /* \"#utility.yul\":2676:2677   */\n  0x00\n    /* \"#utility.yul\":2665:2674   */\n  dup4\n    /* \"#utility.yul\":2661:2678   */\n  add\n    /* \"#utility.yul\":2654:2701   */\n  mstore\n    /* \"#utility.yul\":2718:2849   */\n  tag_60\n    /* \"#utility.yul\":2844:2848   */\n  dup2\n    /* \"#utility.yul\":2718:2849   */\n  tag_32\n  jump\t// in\ntag_60:\n    /* \"#utility.yul\":2710:2849   */\n  swap1\n  pop\n    /* \"#utility.yul\":2437:2856   */\n  swap2\n  swap1\n  pop\n  jump\t// out\n    /* \"core/MessageRegistry.sol\":302:5165  contract MessageRegistry is IMessaging, Ownable, ReentrancyGuard, Pausable {... */\ntag_20:\n  dataSize(sub_0)\n  dup1\n  dataOffset(sub_0)\n  0x00\n  codecopy\n  0x00\n  return\nstop\n\nsub_0: assembly {\n        /* \"core/MessageRegistry.sol\":302:5165  contract MessageRegistry is IMessaging, Ownable, ReentrancyGuard, Pausable {... */\n      mstore(0x40, 0x80)\n      callvalue\n      dup1\n      iszero\n      tag_1\n      jumpi\n      0x00\n      dup1\n      revert\n    tag_1:\n      pop\n      jumpi(tag_2, lt(calldatasize, 0x04))\n      shr(0xe0, calldataload(0x00))\n      dup1\n      0x5c975abb\n      gt\n      tag_20\n      jumpi\n      dup1\n      0x8da5cb5b\n      gt\n      tag_21\n      jumpi\n      dup1\n      0x8da5cb5b\n      eq\n      tag_15\n      jumpi\n      dup1\n      0x9428cda3\n      eq\n      tag_16\n      jumpi\n      dup1\n      0xf2fde38b\n      eq\n      tag_17\n      jumpi\n      dup1\n      0xfe97c0b7\n      eq\n      tag_18\n      jumpi\n      dup1\n      0xff4b91f5\n      eq\n      tag_19\n      jumpi\n      jump(tag_2)\n    tag_21:\n      dup1\n      0x5c975abb\n      eq\n      tag_11\n      jumpi\n      dup1\n      0x715018a6\n      eq\n      tag_12\n      jumpi\n      dup1\n      0x7ecf686d\n      eq\n      tag_13\n      jumpi\n      dup1\n      0x8456cb59\n      eq\n      tag_14\n      jumpi\n      jump(tag_2)\n    tag_20:\n      dup1\n      0x2c4ac770\n      gt\n      tag_22\n      jumpi\n      dup1\n      0x2c4ac770\n      eq\n      tag_7\n      jumpi\n      dup1\n      0x3f4ba83a\n      eq\n      tag_8\n      jumpi\n      dup1\n      0x5437988d\n      eq\n      tag_9\n      jumpi\n      dup1\n      0x57b9222f\n      eq\n      tag_10\n      jumpi\n      jump(tag_2)\n    tag_22:\n      dup1\n      0x0139a221\n      eq\n      tag_3\n      jumpi\n      dup1\n      0x2b659bfb\n      eq\n      tag_4\n      jumpi\n      dup1\n      0x2b7ac3f3\n      eq\n      tag_5\n      jumpi\n      dup1\n      0x2bbd59ca\n      eq\n      tag_6\n      jumpi\n    tag_2:\n      0x00\n      dup1\n      revert\n        /* \"core/MessageRegistry.sol\":4314:4667  function getMessage(bytes32 commitment) ... */\n    tag_3:\n      tag_23\n      0x04\n      dup1\n      calldatasize\n      sub\n      dup2\n      add\n      swap1\n      tag_24\n      swap2\n      swap1\n      tag_25\n      jump\t// in\n    tag_24:\n      tag_26\n      jump\t// in\n    tag_23:\n      mload(0x40)\n      tag_27\n      swap2\n      swap1\n      tag_28\n      jump\t// in\n    tag_27:\n      mload(0x40)\n      dup1\n      swap2\n      sub\n      swap1\n      return\n        /* \"core/MessageRegistry.sol\":5039:5163  function getUserMessageCount(address user) external view returns (uint256) {... */\n    tag_4:\n      tag_29\n      0x04\n      dup1\n      calldatasize\n      sub\n      dup2\n      add\n      swap1\n      tag_30\n      swap2\n      swap1\n      tag_31\n      jump\t// in\n    tag_30:\n      tag_32\n      jump\t// in\n    tag_29:\n      mload(0x40)\n      tag_33\n      swap2\n      swap1\n      tag_34\n      jump\t// in\n    tag_33:\n      mload(0x40)\n      dup1\n      swap2\n      sub\n      swap1\n      return\n        /* \"core/MessageRegistry.sol\":406:431  IVerifier public verifier */\n    tag_5:\n      tag_35\n      tag_36\n      jump\t// in\n    tag_35:\n      mload(0x40)\n      tag_37\n      swap2\n      swap1\n      tag_38\n      jump\t// in\n    tag_37:\n      mload(0x40)\n      dup1\n      swap2\n      sub\n      swap1\n      return\n        /* \"core/MessageRegistry.sol\":442:485  mapping(bytes32 => Message) public messages */\n    tag_6:\n      tag_39\n      0x04\n      dup1\n      calldatasize\n      sub\n      dup2\n      add\n      swap1\n      tag_40\n      swap2\n      swap1\n      tag_25\n      jump\t// in\n    tag_40:\n      tag_41\n      jump\t// in\n    tag_39:\n      mload(0x40)\n      tag_42\n      swap9\n      swap8\n      swap7\n      swap6\n      swap5\n      swap4\n      swap3\n      swap2\n      swap1\n      tag_43\n      jump\t// in\n    tag_42:\n      mload(0x40)\n      dup1\n      swap2\n      sub\n      swap1\n      return\n        /* \"core/MessageRegistry.sol\":2211:3095  function sendMessage(... */\n    tag_7:\n      tag_44\n      0x04\n      dup1\n      calldatasize\n      sub\n      dup2\n      add\n      swap1\n      tag_45\n      swap2\n      swap1\n      tag_46\n      jump\t// in\n    tag_45:\n      tag_47\n      jump\t// in\n    tag_44:\n      stop\n        /* \"core/MessageRegistry.sol\":4946:5011  function unpause() external onlyOwner {... */\n    tag_8:\n      tag_48\n      tag_49\n      jump\t// in\n    tag_48:\n      stop\n        /* \"core/MessageRegistry.sol\":4696:4873  function setVerifier(address _verifier) external onlyOwner {... */\n    tag_9:\n      tag_50\n      0x04\n      dup1\n      calldatasize\n      sub\n      dup2\n      add\n      swap1\n      tag_51\n      swap2\n      swap1\n      tag_31\n      jump\t// in\n    tag_51:\n      tag_52\n      jump\t// in\n    tag_50:\n      stop\n        /* \"core/MessageRegistry.sol\":3599:4308  function getUserMessages(... */\n    tag_10:\n      tag_53\n      0x04\n      dup1\n      calldatasize\n      sub\n      dup2\n      add\n      swap1\n      tag_54\n      swap2\n      swap1\n      tag_55\n      jump\t// in\n    tag_54:\n      tag_56\n      jump\t// in\n    tag_53:\n      mload(0x40)\n      tag_57\n      swap2\n      swap1\n      tag_58\n      jump\t// in\n    tag_57:\n      mload(0x40)\n      dup1\n      swap2\n      sub\n      swap1\n      return\n        /* \"@openzeppelin/contracts/utils/Pausable.sol\":1850:1934  function paused() public view virtual returns (bool) {... */\n    tag_11:\n      tag_59\n      tag_60\n      jump\t// in\n    tag_59:\n      mload(0x40)\n      tag_61\n      swap2\n      swap1\n      tag_62\n      jump\t// in\n    tag_61:\n      mload(0x40)\n      dup1\n      swap2\n      sub\n      swap1\n      return\n        /* \"@openzeppelin/contracts/access/Ownable.sol\":2293:2394  function renounceOwnership() public virtual onlyOwner {... */\n    tag_12:\n      tag_63\n      tag_64\n      jump\t// in\n    tag_63:\n      stop\n        /* \"core/MessageRegistry.sol\":491:536  mapping(bytes32 => bool) public nullifierUsed */\n    tag_13:\n      tag_65\n      0x04\n      dup1\n      calldatasize\n      sub\n      dup2\n      add\n      swap1\n      tag_66\n      swap2\n      swap1\n      tag_25\n      jump\t// in\n    tag_66:\n      tag_67\n      jump\t// in\n    tag_65:\n      mload(0x40)\n      tag_68\n      swap2\n      swap1\n      tag_62\n      jump\t// in\n    tag_68:\n      mload(0x40)\n      dup1\n      swap2\n      sub\n      swap1\n      return\n        /* \"core/MessageRegistry.sol\":4879:4940  function pause() external onlyOwner {... */\n    tag_14:\n      tag_69\n      tag_70\n      jump\t// in\n    tag_69:\n      stop\n        /* \"@openzeppelin/contracts/access/Ownable.sol\":1638:1723  function owner() public view virtual returns (address) {... */\n    tag_15:\n      tag_71\n      tag_72\n      jump\t// in\n    tag_71:\n      mload(0x40)\n      tag_73\n      swap2\n      swap1\n      tag_74\n      jump\t// in\n    tag_73:\n      mload(0x40)\n      dup1\n      swap2\n      sub\n      swap1\n      return\n        /* \"core/MessageRegistry.sol\":542:591  mapping(address => bytes32[]) public userMessages */\n    tag_16:\n      tag_75\n      0x04\n      dup1\n      calldatasize\n      sub\n      dup2\n      add\n      swap1\n      tag_76\n      swap2\n      swap1\n      tag_77\n      jump\t// in\n    tag_76:\n      tag_78\n      jump\t// in\n    tag_75:\n      mload(0x40)\n      tag_79\n      swap2\n      swap1\n      tag_80\n      jump\t// in\n    tag_79:\n      mload(0x40)\n      dup1\n      swap2\n      sub\n      swap1\n      return\n        /* \"@openzeppelin/contracts/access/Ownable.sol\":2543:2758  function transferOwnership(address newOwner) public virtual onlyOwner {... */\n    tag_17:\n      tag_81\n      0x04\n      dup1\n      calldatasize\n      sub\n      dup2\n      add\n      swap1\n      tag_82\n      swap2\n      swap1\n      tag_31\n      jump\t// in\n    tag_82:\n      tag_83\n      jump\t// in\n    tag_81:\n      stop\n        /* \"core/MessageRegistry.sol\":3101:3593  function markMessageRead(bytes32 commitment) external override {... */\n    tag_18:\n      tag_84\n      0x04\n      dup1\n      calldatasize\n      sub\n      dup2\n      add\n      swap1\n      tag_85\n      swap2\n      swap1\n      tag_25\n      jump\t// in\n    tag_85:\n      tag_86\n      jump\t// in\n    tag_84:\n      stop\n        /* \"core/MessageRegistry.sol\":811:2205  function storeMessage(... */\n    tag_19:\n      tag_87\n      0x04\n      dup1\n      calldatasize\n      sub\n      dup2\n      add\n      swap1\n      tag_88\n      swap2\n      swap1\n      tag_89\n      jump\t// in\n    tag_88:\n      tag_90\n      jump\t// in\n    tag_87:\n      stop\n        /* \"core/MessageRegistry.sol\":4314:4667  function getMessage(bytes32 commitment) ... */\n    tag_26:\n        /* \"core/MessageRegistry.sol\":4422:4436  Message memory */\n      tag_91\n      tag_92\n      jump\t// in\n    tag_91:\n        /* \"core/MessageRegistry.sol\":4483:4484  0 */\n      0x00\n        /* \"core/MessageRegistry.sol\":4475:4485  bytes32(0) */\n      dup1\n      shl\n        /* \"core/MessageRegistry.sol\":4461:4471  commitment */\n      dup3\n        /* \"core/MessageRegistry.sol\":4461:4485  commitment != bytes32(0) */\n      sub\n        /* \"core/MessageRegistry.sol\":4453:4508  require(commitment != bytes32(0), \"Invalid commitment\") */\n      tag_94\n      jumpi\n      mload(0x40)\n      0x08c379a000000000000000000000000000000000000000000000000000000000\n      dup2\n      mstore\n      0x04\n      add\n      tag_95\n      swap1\n      tag_96\n      jump\t// in\n    tag_95:\n      mload(0x40)\n      dup1\n      swap2\n      sub\n      swap1\n      revert\n    tag_94:\n        /* \"core/MessageRegistry.sol\":4518:4541  Message storage message */\n      0x00\n        /* \"core/MessageRegistry.sol\":4544:4552  messages */\n      0x03\n        /* \"core/MessageRegistry.sol\":4544:4564  messages[commitment] */\n      0x00\n        /* \"core/MessageRegistry.sol\":4553:4563  commitment */\n      dup5\n        /* \"core/MessageRegistry.sol\":4544:4564  messages[commitment] */\n      dup2\n      mstore\n      0x20\n      add\n      swap1\n      dup2\n      mstore\n      0x20\n      add\n      0x00\n      keccak256\n        /* \"core/MessageRegistry.sol\":4518:4564  Message storage message = messages[commitment] */\n      swap1\n      pop\n        /* \"core/MessageRegistry.sol\":4612:4613  0 */\n      0x00\n        /* \"core/MessageRegistry.sol\":4604:4614  bytes32(0) */\n      dup1\n      shl\n        /* \"core/MessageRegistry.sol\":4582:4589  message */\n      dup2\n        /* \"core/MessageRegistry.sol\":4582:4600  message.commitment */\n      0x00\n      add\n      sload\n        /* \"core/MessageRegistry.sol\":4582:4614  message.commitment != bytes32(0) */\n      sub\n        /* \"core/MessageRegistry.sol\":4574:4636  require(message.commitment != bytes32(0), \"Message not found\") */\n      tag_97\n      jumpi\n      mload(0x40)\n      0x08c379a000000000000000000000000000000000000000000000000000000000\n      dup2\n      mstore\n      0x04\n      add\n      tag_98\n      swap1\n      tag_99\n      jump\t// in\n    tag_98:\n      mload(0x40)\n      dup1\n      swap2\n      sub\n      swap1\n      revert\n    tag_97:\n        /* \"core/MessageRegistry.sol\":4653:4660  message */\n      dup1\n        /* \"core/MessageRegistry.sol\":4646:4660  return message */\n      mload(0x40)\n      dup1\n      0x0100\n      add\n      0x40\n      mstore\n      swap1\n      dup2\n      0x00\n      dup3\n      add\n      sload\n      dup2\n      mstore\n      0x20\n      add\n      0x01\n      dup3\n      add\n      sload\n      dup2\n      mstore\n      0x20\n      add\n      0x02\n      dup3\n      add\n      0x00\n      swap1\n      sload\n      swap1\n      0x0100\n      exp\n      swap1\n      div\n      0xffffffffffffffffffffffffffffffffffffffff\n      and\n      0xffffffffffffffffffffffffffffffffffffffff\n      and\n      0xffffffffffffffffffffffffffffffffffffffff\n      and\n      dup2\n      mstore\n      0x20\n      add\n      0x03\n      dup3\n      add\n      0x00\n      swap1\n      sload\n      swap1\n      0x0100\n      exp\n      swap1\n      div\n      0xffffffffffffffffffffffffffffffffffffffff\n      and\n      0xffffffffffffffffffffffffffffffffffffffff\n      and\n      0xffffffffffffffffffffffffffffffffffffffff\n      and\n      dup2\n      mstore\n      0x20\n      add\n      0x04\n      dup3\n      add\n      dup1\n      sload\n      tag_100\n      swap1\n      tag_101\n      jump\t// in\n    tag_100:\n      dup1\n      0x1f\n      add\n      0x20\n      dup1\n      swap2\n      div\n      mul\n      0x20\n      add\n      mload(0x40)\n      swap1\n      dup2\n      add\n      0x40\n      mstore\n      dup1\n      swap3\n      swap2\n      swap1\n      dup2\n      dup2\n      mstore\n      0x20\n      add\n      dup3\n      dup1\n      sload\n      tag_102\n      swap1\n      tag_101\n      jump\t// in\n    tag_102:\n      dup1\n      iszero\n      tag_103\n      jumpi\n      dup1\n      0x1f\n      lt\n      tag_104\n      jumpi\n      0x0100\n      dup1\n      dup4\n      sload\n      div\n      mul\n      dup4\n      mstore\n      swap2\n      0x20\n      add\n      swap2\n      jump(tag_103)\n    tag_104:\n      dup3\n      add\n      swap2\n      swap1\n      0x00\n      mstore\n      keccak256(0x00, 0x20)\n      swap1\n    tag_105:\n      dup2\n      sload\n      dup2\n      mstore\n      swap1\n      0x01\n      add\n      swap1\n      0x20\n      add\n      dup1\n      dup4\n      gt\n      tag_105\n      jumpi\n      dup3\n      swap1\n      sub\n      0x1f\n      and\n      dup3\n      add\n      swap2\n    tag_103:\n      pop\n      pop\n      pop\n      pop\n      pop\n      dup2\n      mstore\n      0x20\n      add\n      0x05\n      dup3\n      add\n      sload\n      dup2\n      mstore\n      0x20\n      add\n      0x06\n      dup3\n      add\n      0x00\n      swap1\n      sload\n      swap1\n      0x0100\n      exp\n      swap1\n      div\n      0xff\n      and\n      iszero\n      iszero\n      iszero\n      iszero\n      dup2\n      mstore\n      0x20\n      add\n      0x07\n      dup3\n      add\n      dup1\n      sload\n      tag_106\n      swap1\n      tag_101\n      jump\t// in\n    tag_106:\n      dup1\n      0x1f\n      add\n      0x20\n      dup1\n      swap2\n      div\n      mul\n      0x20\n      add\n      mload(0x40)\n      swap1\n      dup2\n      add\n      0x40\n      mstore\n      dup1\n      swap3\n      swap2\n      swap1\n      dup2\n      dup2\n      mstore\n      0x20\n      add\n      dup3\n      dup1\n      sload\n      tag_107\n      swap1\n      tag_101\n      jump\t// in\n    tag_107:\n      dup1\n      iszero\n      tag_108\n      jumpi\n      dup1\n      0x1f\n      lt\n      tag_109\n      jumpi\n      0x0100\n      dup1\n      dup4\n      sload\n      div\n      mul\n      dup4\n      mstore\n      swap2\n      0x20\n      add\n      swap2\n      jump(tag_108)\n    tag_109:\n      dup3\n      add\n      swap2\n      swap1\n      0x00\n      mstore\n      keccak256(0x00, 0x20)\n      swap1\n    tag_110:\n      dup2\n      sload\n      dup2\n      mstore\n      swap1\n      0x01\n      add\n      swap1\n      0x20\n      add\n      dup1\n      dup4\n      gt\n      tag_110\n      jumpi\n      dup3\n      swap1\n      sub\n      0x1f\n      and\n      dup3\n      add\n      swap2\n    tag_108:\n      pop\n      pop\n      pop\n      pop\n      pop\n      dup2\n      mstore\n      pop\n      pop\n      swap2\n      pop\n      pop\n        /* \"core/MessageRegistry.sol\":4314:4667  function getMessage(bytes32 commitment) ... */\n      swap2\n      swap1\n      pop\n      jump\t// out\n        /* \"core/MessageRegistry.sol\":5039:5163  function getUserMessageCount(address user) external view returns (uint256) {... */\n    tag_32:\n        /* \"core/MessageRegistry.sol\":5105:5112  uint256 */\n      0x00\n        /* \"core/MessageRegistry.sol\":5131:5143  userMessages */\n      0x05\n        /* \"core/MessageRegistry.sol\":5131:5149  userMessages[user] */\n      0x00\n        /* \"core/MessageRegistry.sol\":5144:5148  user */\n      dup4\n        /* \"core/MessageRegistry.sol\":5131:5149  userMessages[user] */\n      0xffffffffffffffffffffffffffffffffffffffff\n      and\n      0xffffffffffffffffffffffffffffffffffffffff\n      and\n      dup2\n      mstore\n      0x20\n      add\n      swap1\n      dup2\n      mstore\n      0x20\n      add\n      0x00\n      keccak256\n        /* \"core/MessageRegistry.sol\":5131:5156  userMessages[user].length */\n      dup1\n      sload\n      swap1\n      pop\n        /* \"core/MessageRegistry.sol\":5124:5156  return userMessages[user].length */\n      swap1\n      pop\n        /* \"core/MessageRegistry.sol\":5039:5163  function getUserMessageCount(address user) external view returns (uint256) {... */\n      swap2\n      swap1\n      pop\n      jump\t// out\n        /* \"core/MessageRegistry.sol\":406:431  IVerifier public verifier */\n    tag_36:\n      0x02\n      0x01\n      swap1\n      sload\n      swap1\n      0x0100\n      exp\n      swap1\n      div\n      0xffffffffffffffffffffffffffffffffffffffff\n      and\n      dup2\n      jump\t// out\n        /* \"core/MessageRegistry.sol\":442:485  mapping(bytes32 => Message) public messages */\n    tag_41:\n      mstore(0x20, 0x03)\n      dup1\n      0x00\n      mstore\n      keccak256(0x00, 0x40)\n      0x00\n      swap2\n      pop\n      swap1\n      pop\n      dup1\n      0x00\n      add\n      sload\n      swap1\n      dup1\n      0x01\n      add\n      sload\n      swap1\n      dup1\n      0x02\n      add\n      0x00\n      swap1\n      sload\n      swap1\n      0x0100\n      exp\n      swap1\n      div\n      0xffffffffffffffffffffffffffffffffffffffff\n      and\n      swap1\n      dup1\n      0x03\n      add\n      0x00\n      swap1\n      sload\n      swap1\n      0x0100\n      exp\n      swap1\n      div\n      0xffffffffffffffffffffffffffffffffffffffff\n      and\n      swap1\n      dup1\n      0x04\n      add\n      dup1\n      sload\n      tag_112\n      swap1\n      tag_101\n      jump\t// in\n    tag_112:\n      dup1\n      0x1f\n      add\n      0x20\n      dup1\n      swap2\n      div\n      mul\n      0x20\n      add\n      mload(0x40)\n      swap1\n      dup2\n      add\n      0x40\n      mstore\n      dup1\n      swap3\n      swap2\n      swap1\n      dup2\n      dup2\n      mstore\n      0x20\n      add\n      dup3\n      dup1\n      sload\n      tag_113\n      swap1\n      tag_101\n      jump\t// in\n    tag_113:\n      dup1\n      iszero\n      tag_114\n      jumpi\n      dup1\n      0x1f\n      lt\n      tag_115\n      jumpi\n      0x0100\n      dup1\n      dup4\n      sload\n      div\n      mul\n      dup4\n      mstore\n      swap2\n      0x20\n      add\n      swap2\n      jump(tag_114)\n    tag_115:\n      dup3\n      add\n      swap2\n      swap1\n      0x00\n      mstore\n      keccak256(0x00, 0x20)\n      swap1\n    tag_116:\n      dup2\n      sload\n      dup2\n      mstore\n      swap1\n      0x01\n      add\n      swap1\n      0x20\n      add\n      dup1\n      dup4\n      gt\n      tag_116\n      jumpi\n      dup3\n      swap1\n      sub\n      0x1f\n      and\n      dup3\n      add\n      swap2\n    tag_114:\n      pop\n      pop\n      pop\n      pop\n      pop\n      swap1\n      dup1\n      0x05\n      add\n      sload\n      swap1\n      dup1\n      0x06\n      add\n      0x00\n      swap1\n      sload\n      swap1\n      0x0100\n      exp\n      swap1\n      div\n      0xff\n      and\n      swap1\n      dup1\n      0x07\n      add\n      dup1\n      sload\n      tag_117\n      swap1\n      tag_101\n      jump\t// in\n    tag_117:\n      dup1\n      0x1f\n      add\n      0x20\n      dup1\n      swap2\n      div\n      mul\n      0x20\n      add\n      mload(0x40)\n      swap1\n      dup2\n      add\n      0x40\n      mstore\n      dup1\n      swap3\n      swap2\n      swap1\n      dup2\n      dup2\n      mstore\n      0x20\n      add\n      dup3\n      dup1\n      sload\n      tag_118\n      swap1\n      tag_101\n      jump\t// in\n    tag_118:\n      dup1\n      iszero\n      tag_119\n      jumpi\n      dup1\n      0x1f\n      lt\n      tag_120\n      jumpi\n      0x0100\n      dup1\n      dup4\n      sload\n      div\n      mul\n      dup4\n      mstore\n      swap2\n      0x20\n      add\n      swap2\n      jump(tag_119)\n    tag_120:\n      dup3\n      add\n      swap2\n      swap1\n      0x00\n      mstore\n      keccak256(0x00, 0x20)\n      swap1\n    tag_121:\n      dup2\n      sload\n      dup2\n      mstore\n      swap1\n      0x01\n      add\n      swap1\n      0x20\n      add\n      dup1\n      dup4\n      gt\n      tag_121\n      jumpi\n      dup3\n      swap1\n      sub\n      0x1f\n      and\n      dup3\n      add\n      swap2\n    tag_119:\n      pop\n      pop\n      pop\n      pop\n      pop\n      swap1\n      pop\n      dup9\n      jump\t// out\n        /* \"core/MessageRegistry.sol\":2211:3095  function sendMessage(... */\n    tag_47:\n        /* \"@openzeppelin/contracts/utils/ReentrancyGuard.sol\":2500:2521  _nonReentrantBefore() */\n      tag_123\n        /* \"@openzeppelin/contracts/utils/ReentrancyGuard.sol\":2500:2519  _nonReentrantBefore */\n      tag_124\n        /* \"@openzeppelin/contracts/utils/ReentrancyGuard.sol\":2500:2521  _nonReentrantBefore() */\n      jump\t// in\n    tag_123:\n        /* \"@openzeppelin/contracts/utils/Pausable.sol\":1474:1493  _requireNotPaused() */\n      tag_126\n        /* \"@openzeppelin/contracts/utils/Pausable.sol\":1474:1491  _requireNotPaused */\n      tag_127\n        /* \"@openzeppelin/contracts/utils/Pausable.sol\":1474:1493  _requireNotPaused() */\n      jump\t// in\n    tag_126:\n        /* \"core/MessageRegistry.sol\":2419:2420  0 */\n      0x00\n        /* \"core/MessageRegistry.sol\":2398:2421  recipient != address(0) */\n      0xffffffffffffffffffffffffffffffffffffffff\n      and\n        /* \"core/MessageRegistry.sol\":2398:2407  recipient */\n      dup5\n        /* \"core/MessageRegistry.sol\":2398:2421  recipient != address(0) */\n      0xffffffffffffffffffffffffffffffffffffffff\n      and\n      sub\n        /* \"core/MessageRegistry.sol\":2390:2443  require(recipient != address(0), \"Invalid recipient\") */\n      tag_129\n      jumpi\n      mload(0x40)\n      0x08c379a000000000000000000000000000000000000000000000000000000000\n      dup2\n      mstore\n      0x04\n      add\n      tag_130\n      swap1\n      tag_131\n      jump\t// in\n    tag_130:\n      mload(0x40)\n      dup1\n      swap2\n      sub\n      swap1\n      revert\n    tag_129:\n        /* \"core/MessageRegistry.sol\":2487:2488  0 */\n      0x00\n        /* \"core/MessageRegistry.sol\":2461:2477  encryptedMessage */\n      dup4\n      dup4\n        /* \"core/MessageRegistry.sol\":2461:2484  encryptedMessage.length */\n      swap1\n      pop\n        /* \"core/MessageRegistry.sol\":2461:2488  encryptedMessage.length > 0 */\n      gt\n        /* \"core/MessageRegistry.sol\":2453:2506  require(encryptedMessage.length > 0, \"Empty message\") */\n      tag_132\n      jumpi\n      mload(0x40)\n      0x08c379a000000000000000000000000000000000000000000000000000000000\n      dup2\n      mstore\n      0x04\n      add\n      tag_133\n      swap1\n      tag_134\n      jump\t// in\n    tag_133:\n      mload(0x40)\n      dup1\n      swap2\n      sub\n      swap1\n      revert\n    tag_132:\n        /* \"core/MessageRegistry.sol\":2517:2535  bytes32 commitment */\n      0x00\n        /* \"core/MessageRegistry.sol\":2578:2589  messageHash */\n      dup2\n        /* \"core/MessageRegistry.sol\":2591:2601  msg.sender */\n      caller\n        /* \"core/MessageRegistry.sol\":2603:2612  recipient */\n      dup7\n        /* \"core/MessageRegistry.sol\":2561:2613  abi.encodePacked(messageHash, msg.sender, recipient) */\n      add(0x20, mload(0x40))\n      tag_135\n      swap4\n      swap3\n      swap2\n      swap1\n      tag_136\n      jump\t// in\n    tag_135:\n      mload(0x40)\n      0x20\n      dup2\n      dup4\n      sub\n      sub\n      dup2\n      mstore\n      swap1\n      0x40\n      mstore\n        /* \"core/MessageRegistry.sol\":2538:2623  keccak256(... */\n      dup1\n      mload\n      swap1\n      0x20\n      add\n      keccak256\n        /* \"core/MessageRegistry.sol\":2517:2623  bytes32 commitment = keccak256(... */\n      swap1\n      pop\n        /* \"core/MessageRegistry.sol\":2665:2960  Message({... */\n      mload(0x40)\n      dup1\n      0x0100\n      add\n      0x40\n      mstore\n      dup1\n        /* \"core/MessageRegistry.sol\":2699:2709  commitment */\n      dup3\n        /* \"core/MessageRegistry.sol\":2665:2960  Message({... */\n      dup2\n      mstore\n      0x20\n      add\n        /* \"core/MessageRegistry.sol\":2734:2745  messageHash */\n      dup4\n        /* \"core/MessageRegistry.sol\":2665:2960  Message({... */\n      dup2\n      mstore\n      0x20\n      add\n        /* \"core/MessageRegistry.sol\":2767:2777  msg.sender */\n      caller\n        /* \"core/MessageRegistry.sol\":2665:2960  Message({... */\n      0xffffffffffffffffffffffffffffffffffffffff\n      and\n      dup2\n      mstore\n      0x20\n      add\n        /* \"core/MessageRegistry.sol\":2802:2811  recipient */\n      dup7\n        /* \"core/MessageRegistry.sol\":2665:2960  Message({... */\n      0xffffffffffffffffffffffffffffffffffffffff\n      and\n      dup2\n      mstore\n      0x20\n      add\n        /* \"core/MessageRegistry.sol\":2843:2859  encryptedMessage */\n      dup6\n      dup6\n        /* \"core/MessageRegistry.sol\":2665:2960  Message({... */\n      dup1\n      dup1\n      0x1f\n      add\n      0x20\n      dup1\n      swap2\n      div\n      mul\n      0x20\n      add\n      mload(0x40)\n      swap1\n      dup2\n      add\n      0x40\n      mstore\n      dup1\n      swap4\n      swap3\n      swap2\n      swap1\n      dup2\n      dup2\n      mstore\n      0x20\n      add\n      dup4\n      dup4\n      dup1\n      dup3\n      dup5\n      calldatacopy\n      0x00\n      dup2\n      dup5\n      add\n      mstore\n      not(0x1f)\n      0x1f\n      dup3\n      add\n      and\n      swap1\n      pop\n      dup1\n      dup4\n      add\n      swap3\n      pop\n      pop\n      pop\n      pop\n      pop\n      pop\n      pop\n      dup2\n      mstore\n      0x20\n      add\n        /* \"core/MessageRegistry.sol\":2884:2899  block.timestamp */\n      timestamp\n        /* \"core/MessageRegistry.sol\":2665:2960  Message({... */\n      dup2\n      mstore\n      0x20\n      add\n        /* \"core/MessageRegistry.sol\":2921:2926  false */\n      0x00\n        /* \"core/MessageRegistry.sol\":2665:2960  Message({... */\n      iszero\n      iszero\n      dup2\n      mstore\n      0x20\n      add\n      mload(0x40)\n      dup1\n      0x20\n      add\n      0x40\n      mstore\n      dup1\n      0x00\n      dup2\n      mstore\n      pop\n      dup2\n      mstore\n      pop\n        /* \"core/MessageRegistry.sol\":2642:2650  messages */\n      0x03\n        /* \"core/MessageRegistry.sol\":2642:2662  messages[commitment] */\n      0x00\n        /* \"core/MessageRegistry.sol\":2651:2661  commitment */\n      dup4\n        /* \"core/MessageRegistry.sol\":2642:2662  messages[commitment] */\n      dup2\n      mstore\n      0x20\n      add\n      swap1\n      dup2\n      mstore\n      0x20\n      add\n      0x00\n      keccak256\n        /* \"core/MessageRegistry.sol\":2642:2960  messages[commitment] = Message({... */\n      0x00\n      dup3\n      add\n      mload\n      dup2\n      0x00\n      add\n      sstore\n      0x20\n      dup3\n      add\n      mload\n      dup2\n      0x01\n      add\n      sstore\n      0x40\n      dup3\n      add\n      mload\n      dup2\n      0x02\n      add\n      exp(0x0100, 0x00)\n      dup2\n      sload\n      dup2\n      0xffffffffffffffffffffffffffffffffffffffff\n      mul\n      not\n      and\n      swap1\n      dup4\n      0xffffffffffffffffffffffffffffffffffffffff\n      and\n      mul\n      or\n      swap1\n      sstore\n      pop\n      0x60\n      dup3\n      add\n      mload\n      dup2\n      0x03\n      add\n      exp(0x0100, 0x00)\n      dup2\n      sload\n      dup2\n      0xffffffffffffffffffffffffffffffffffffffff\n      mul\n      not\n      and\n      swap1\n      dup4\n      0xffffffffffffffffffffffffffffffffffffffff\n      and\n      mul\n      or\n      swap1\n      sstore\n      pop\n      0x80\n      dup3\n      add\n      mload\n      dup2\n      0x04\n      add\n      swap1\n      dup2\n      tag_137\n      swap2\n      swap1\n      tag_138\n      jump\t// in\n    tag_137:\n      pop\n      0xa0\n      dup3\n      add\n      mload\n      dup2\n      0x05\n      add\n      sstore\n      0xc0\n      dup3\n      add\n      mload\n      dup2\n      0x06\n      add\n      exp(0x0100, 0x00)\n      dup2\n      sload\n      dup2\n      0xff\n      mul\n      not\n      and\n      swap1\n      dup4\n      iszero\n      iszero\n      mul\n      or\n      swap1\n      sstore\n      pop\n      0xe0\n      dup3\n      add\n      mload\n      dup2\n      0x07\n      add\n      swap1\n      dup2\n      tag_139\n      swap2\n      swap1\n      tag_138\n      jump\t// in\n    tag_139:\n      pop\n      swap1\n      pop\n      pop\n        /* \"core/MessageRegistry.sol\":2971:2983  userMessages */\n      0x05\n        /* \"core/MessageRegistry.sol\":2971:2994  userMessages[recipient] */\n      0x00\n        /* \"core/MessageRegistry.sol\":2984:2993  recipient */\n      dup7\n        /* \"core/MessageRegistry.sol\":2971:2994  userMessages[recipient] */\n      0xffffffffffffffffffffffffffffffffffffffff\n      and\n      0xffffffffffffffffffffffffffffffffffffffff\n      and\n      dup2\n      mstore\n      0x20\n      add\n      swap1\n      dup2\n      mstore\n      0x20\n      add\n      0x00\n      keccak256\n        /* \"core/MessageRegistry.sol\":3000:3010  commitment */\n      dup2\n        /* \"core/MessageRegistry.sol\":2971:3011  userMessages[recipient].push(commitment) */\n      swap1\n      dup1\n      0x01\n      dup2\n      sload\n      add\n      dup1\n      dup3\n      sstore\n      dup1\n      swap2\n      pop\n      pop\n      0x01\n      swap1\n      sub\n      swap1\n      0x00\n      mstore\n      keccak256(0x00, 0x20)\n      add\n      0x00\n      swap1\n      swap2\n      swap1\n      swap2\n      swap1\n      swap2\n      pop\n      sstore\n        /* \"core/MessageRegistry.sol\":3061:3070  recipient */\n      dup5\n        /* \"core/MessageRegistry.sol\":3035:3088  MessageStored(commitment, recipient, block.timestamp) */\n      0xffffffffffffffffffffffffffffffffffffffff\n      and\n        /* \"core/MessageRegistry.sol\":3049:3059  commitment */\n      dup2\n        /* \"core/MessageRegistry.sol\":3035:3088  MessageStored(commitment, recipient, block.timestamp) */\n      0xfc0130f045b99ddc021ab5370f3ebcc300526e38305dc6bbf89079a83abd3eb8\n        /* \"core/MessageRegistry.sol\":3072:3087  block.timestamp */\n      timestamp\n        /* \"core/MessageRegistry.sol\":3035:3088  MessageStored(commitment, recipient, block.timestamp) */\n      mload(0x40)\n      tag_141\n      swap2\n      swap1\n      tag_34\n      jump\t// in\n    tag_141:\n      mload(0x40)\n      dup1\n      swap2\n      sub\n      swap1\n      log3\n        /* \"core/MessageRegistry.sol\":2380:3095  {... */\n      pop\n        /* \"@openzeppelin/contracts/utils/ReentrancyGuard.sol\":2542:2562  _nonReentrantAfter() */\n      tag_142\n        /* \"@openzeppelin/contracts/utils/ReentrancyGuard.sol\":2542:2560  _nonReentrantAfter */\n      tag_143\n        /* \"@openzeppelin/contracts/utils/ReentrancyGuard.sol\":2542:2562  _nonReentrantAfter() */\n      jump\t// in\n    tag_142:\n        /* \"core/MessageRegistry.sol\":2211:3095  function sendMessage(... */\n      pop\n      pop\n      pop\n      pop\n      jump\t// out\n        /* \"core/MessageRegistry.sol\":4946:5011  function unpause() external onlyOwner {... */\n    tag_49:\n        /* \"@openzeppelin/contracts/access/Ownable.sol\":1531:1544  _checkOwner() */\n      tag_145\n        /* \"@openzeppelin/contracts/access/Ownable.sol\":1531:1542  _checkOwner */\n      tag_146\n        /* \"@openzeppelin/contracts/access/Ownable.sol\":1531:1544  _checkOwner() */\n      jump\t// in\n    tag_145:\n        /* \"core/MessageRegistry.sol\":4994:5004  _unpause() */\n      tag_148\n        /* \"core/MessageRegistry.sol\":4994:5002  _unpause */\n      tag_149\n        /* \"core/MessageRegistry.sol\":4994:5004  _unpause() */\n      jump\t// in\n    tag_148:\n        /* \"core/MessageRegistry.sol\":4946:5011  function unpause() external onlyOwner {... */\n      jump\t// out\n        /* \"core/MessageRegistry.sol\":4696:4873  function setVerifier(address _verifier) external onlyOwner {... */\n    tag_52:\n        /* \"@openzeppelin/contracts/access/Ownable.sol\":1531:1544  _checkOwner() */\n      tag_151\n        /* \"@openzeppelin/contracts/access/Ownable.sol\":1531:1542  _checkOwner */\n      tag_146\n        /* \"@openzeppelin/contracts/access/Ownable.sol\":1531:1544  _checkOwner() */\n      jump\t// in\n    tag_151:\n        /* \"core/MessageRegistry.sol\":4794:4795  0 */\n      0x00\n        /* \"core/MessageRegistry.sol\":4773:4796  _verifier != address(0) */\n      0xffffffffffffffffffffffffffffffffffffffff\n      and\n        /* \"core/MessageRegistry.sol\":4773:4782  _verifier */\n      dup2\n        /* \"core/MessageRegistry.sol\":4773:4796  _verifier != address(0) */\n      0xffffffffffffffffffffffffffffffffffffffff\n      and\n      sub\n        /* \"core/MessageRegistry.sol\":4765:4825  require(_verifier != address(0), \"Invalid verifier address\") */\n      tag_153\n      jumpi\n      mload(0x40)\n      0x08c379a000000000000000000000000000000000000000000000000000000000\n      dup2\n      mstore\n      0x04\n      add\n      tag_154\n      swap1\n      tag_155\n      jump\t// in\n    tag_154:\n      mload(0x40)\n      dup1\n      swap2\n      sub\n      swap1\n      revert\n    tag_153:\n        /* \"core/MessageRegistry.sol\":4856:4865  _verifier */\n      dup1\n        /* \"core/MessageRegistry.sol\":4835:4843  verifier */\n      0x02\n      0x01\n        /* \"core/MessageRegistry.sol\":4835:4866  verifier = IVerifier(_verifier) */\n      0x0100\n      exp\n      dup2\n      sload\n      dup2\n      0xffffffffffffffffffffffffffffffffffffffff\n      mul\n      not\n      and\n      swap1\n      dup4\n      0xffffffffffffffffffffffffffffffffffffffff\n      and\n      mul\n      or\n      swap1\n      sstore\n      pop\n        /* \"core/MessageRegistry.sol\":4696:4873  function setVerifier(address _verifier) external onlyOwner {... */\n      pop\n      jump\t// out\n        /* \"core/MessageRegistry.sol\":3599:4308  function getUserMessages(... */\n    tag_56:\n        /* \"core/MessageRegistry.sol\":3731:3747  Message[] memory */\n      0x60\n        /* \"core/MessageRegistry.sol\":3783:3784  0 */\n      0x00\n        /* \"core/MessageRegistry.sol\":3767:3785  user != address(0) */\n      0xffffffffffffffffffffffffffffffffffffffff\n      and\n        /* \"core/MessageRegistry.sol\":3767:3771  user */\n      dup5\n        /* \"core/MessageRegistry.sol\":3767:3785  user != address(0) */\n      0xffffffffffffffffffffffffffffffffffffffff\n      and\n      sub\n        /* \"core/MessageRegistry.sol\":3759:3810  require(user != address(0), \"Invalid user address\") */\n      tag_157\n      jumpi\n      mload(0x40)\n      0x08c379a000000000000000000000000000000000000000000000000000000000\n      dup2\n      mstore\n      0x04\n      add\n      tag_158\n      swap1\n      tag_159\n      jump\t// in\n    tag_158:\n      mload(0x40)\n      dup1\n      swap2\n      sub\n      swap1\n      revert\n    tag_157:\n        /* \"core/MessageRegistry.sol\":3836:3837  0 */\n      0x00\n        /* \"core/MessageRegistry.sol\":3828:3833  limit */\n      dup3\n        /* \"core/MessageRegistry.sol\":3828:3837  limit > 0 */\n      gt\n        /* \"core/MessageRegistry.sol\":3820:3855  require(limit > 0, \"Invalid limit\") */\n      tag_160\n      jumpi\n      mload(0x40)\n      0x08c379a000000000000000000000000000000000000000000000000000000000\n      dup2\n      mstore\n      0x04\n      add\n      tag_161\n      swap1\n      tag_162\n      jump\t// in\n    tag_161:\n      mload(0x40)\n      dup1\n      swap2\n      sub\n      swap1\n      revert\n    tag_160:\n        /* \"core/MessageRegistry.sol\":3874:3900  bytes32[] storage userMsgs */\n      0x00\n        /* \"core/MessageRegistry.sol\":3903:3915  userMessages */\n      0x05\n        /* \"core/MessageRegistry.sol\":3903:3921  userMessages[user] */\n      0x00\n        /* \"core/MessageRegistry.sol\":3916:3920  user */\n      dup7\n        /* \"core/MessageRegistry.sol\":3903:3921  userMessages[user] */\n      0xffffffffffffffffffffffffffffffffffffffff\n      and\n      0xffffffffffffffffffffffffffffffffffffffff\n      and\n      dup2\n      mstore\n      0x20\n      add\n      swap1\n      dup2\n      mstore\n      0x20\n      add\n      0x00\n      keccak256\n        /* \"core/MessageRegistry.sol\":3874:3921  bytes32[] storage userMsgs = userMessages[user] */\n      swap1\n      pop\n        /* \"core/MessageRegistry.sol\":3940:3951  uint256 end */\n      0x00\n        /* \"core/MessageRegistry.sol\":3963:3968  limit */\n      dup4\n        /* \"core/MessageRegistry.sol\":3954:3960  offset */\n      dup6\n        /* \"core/MessageRegistry.sol\":3954:3968  offset + limit */\n      tag_163\n      swap2\n      swap1\n      tag_164\n      jump\t// in\n    tag_163:\n        /* \"core/MessageRegistry.sol\":3940:3968  uint256 end = offset + limit */\n      swap1\n      pop\n        /* \"core/MessageRegistry.sol\":3988:3996  userMsgs */\n      dup2\n        /* \"core/MessageRegistry.sol\":3988:4003  userMsgs.length */\n      dup1\n      sload\n      swap1\n      pop\n        /* \"core/MessageRegistry.sol\":3982:3985  end */\n      dup2\n        /* \"core/MessageRegistry.sol\":3982:4003  end > userMsgs.length */\n      gt\n        /* \"core/MessageRegistry.sol\":3978:4051  if (end > userMsgs.length) {... */\n      iszero\n      tag_165\n      jumpi\n        /* \"core/MessageRegistry.sol\":4025:4033  userMsgs */\n      dup2\n        /* \"core/MessageRegistry.sol\":4025:4040  userMsgs.length */\n      dup1\n      sload\n      swap1\n      pop\n        /* \"core/MessageRegistry.sol\":4019:4040  end = userMsgs.length */\n      swap1\n      pop\n        /* \"core/MessageRegistry.sol\":3978:4051  if (end > userMsgs.length) {... */\n    tag_165:\n        /* \"core/MessageRegistry.sol\":4077:4080  end */\n      dup1\n        /* \"core/MessageRegistry.sol\":4068:4074  offset */\n      dup6\n        /* \"core/MessageRegistry.sol\":4068:4080  offset < end */\n      lt\n        /* \"core/MessageRegistry.sol\":4060:4099  require(offset < end, \"Invalid offset\") */\n      tag_166\n      jumpi\n      mload(0x40)\n      0x08c379a000000000000000000000000000000000000000000000000000000000\n      dup2\n      mstore\n      0x04\n      add\n      tag_167\n      swap1\n      tag_168\n      jump\t// in\n    tag_167:\n      mload(0x40)\n      dup1\n      swap2\n      sub\n      swap1\n      revert\n    tag_166:\n        /* \"core/MessageRegistry.sol\":4110:4133  Message[] memory result */\n      0x00\n        /* \"core/MessageRegistry.sol\":4156:4162  offset */\n      dup6\n        /* \"core/MessageRegistry.sol\":4150:4153  end */\n      dup3\n        /* \"core/MessageRegistry.sol\":4150:4162  end - offset */\n      tag_169\n      swap2\n      swap1\n      tag_170\n      jump\t// in\n    tag_169:\n        /* \"core/MessageRegistry.sol\":4136:4163  new Message[](end - offset) */\n      0xffffffffffffffff\n      dup2\n      gt\n      iszero\n      tag_171\n      jumpi\n      tag_172\n      tag_173\n      jump\t// in\n    tag_172:\n    tag_171:\n      mload(0x40)\n      swap1\n      dup1\n      dup3\n      mstore\n      dup1\n      0x20\n      mul\n      0x20\n      add\n      dup3\n      add\n      0x40\n      mstore\n      dup1\n      iszero\n      tag_174\n      jumpi\n      dup2\n      0x20\n      add\n    tag_175:\n      tag_176\n      tag_92\n      jump\t// in\n    tag_176:\n      dup2\n      mstore\n      0x20\n      add\n      swap1\n      0x01\n      swap1\n      sub\n      swap1\n      dup2\n      tag_175\n      jumpi\n      swap1\n      pop\n    tag_174:\n      pop\n        /* \"core/MessageRegistry.sol\":4110:4163  Message[] memory result = new Message[](end - offset) */\n      swap1\n      pop\n        /* \"core/MessageRegistry.sol\":4178:4187  uint256 i */\n      0x00\n        /* \"core/MessageRegistry.sol\":4190:4196  offset */\n      dup7\n        /* \"core/MessageRegistry.sol\":4178:4196  uint256 i = offset */\n      swap1\n      pop\n        /* \"core/MessageRegistry.sol\":4173:4279  for (uint256 i = offset; i < end; i++) {... */\n    tag_177:\n        /* \"core/MessageRegistry.sol\":4202:4205  end */\n      dup3\n        /* \"core/MessageRegistry.sol\":4198:4199  i */\n      dup2\n        /* \"core/MessageRegistry.sol\":4198:4205  i < end */\n      lt\n        /* \"core/MessageRegistry.sol\":4173:4279  for (uint256 i = offset; i < end; i++) {... */\n      iszero\n      tag_178\n      jumpi\n        /* \"core/MessageRegistry.sol\":4247:4255  messages */\n      0x03\n        /* \"core/MessageRegistry.sol\":4247:4268  messages[userMsgs[i]] */\n      0x00\n        /* \"core/MessageRegistry.sol\":4256:4264  userMsgs */\n      dup6\n        /* \"core/MessageRegistry.sol\":4265:4266  i */\n      dup4\n        /* \"core/MessageRegistry.sol\":4256:4267  userMsgs[i] */\n      dup2\n      sload\n      dup2\n      lt\n      tag_180\n      jumpi\n      tag_181\n      tag_182\n      jump\t// in\n    tag_181:\n    tag_180:\n      swap1\n      0x00\n      mstore\n      keccak256(0x00, 0x20)\n      add\n      sload\n        /* \"core/MessageRegistry.sol\":4247:4268  messages[userMsgs[i]] */\n      dup2\n      mstore\n      0x20\n      add\n      swap1\n      dup2\n      mstore\n      0x20\n      add\n      0x00\n      keccak256\n        /* \"core/MessageRegistry.sol\":4226:4268  result[i - offset] = messages[userMsgs[i]] */\n      mload(0x40)\n      dup1\n      0x0100\n      add\n      0x40\n      mstore\n      swap1\n      dup2\n      0x00\n      dup3\n      add\n      sload\n      dup2\n      mstore\n      0x20\n      add\n      0x01\n      dup3\n      add\n      sload\n      dup2\n      mstore\n      0x20\n      add\n      0x02\n      dup3\n      add\n      0x00\n      swap1\n      sload\n      swap1\n      0x0100\n      exp\n      swap1\n      div\n      0xffffffffffffffffffffffffffffffffffffffff\n      and\n      0xffffffffffffffffffffffffffffffffffffffff\n      and\n      0xffffffffffffffffffffffffffffffffffffffff\n      and\n      dup2\n      mstore\n      0x20\n      add\n      0x03\n      dup3\n      add\n      0x00\n      swap1\n      sload\n      swap1\n      0x0100\n      exp\n      swap1\n      div\n      0xffffffffffffffffffffffffffffffffffffffff\n      and\n      0xffffffffffffffffffffffffffffffffffffffff\n      and\n      0xffffffffffffffffffffffffffffffffffffffff\n      and\n      dup2\n      mstore\n      0x20\n      add\n      0x04\n      dup3\n      add\n      dup1\n      sload\n      tag_184\n      swap1\n      tag_101\n      jump\t// in\n    tag_184:\n      dup1\n      0x1f\n      add\n      0x20\n      dup1\n      swap2\n      div\n      mul\n      0x20\n      add\n      mload(0x40)\n      swap1\n      dup2\n      add\n      0x40\n      mstore\n      dup1\n      swap3\n      swap2\n      swap1\n      dup2\n      dup2\n      mstore\n      0x20\n      add\n      dup3\n      dup1\n      sload\n      tag_185\n      swap1\n      tag_101\n      jump\t// in\n    tag_185:\n      dup1\n      iszero\n      tag_186\n      jumpi\n      dup1\n      0x1f\n      lt\n      tag_187\n      jumpi\n      0x0100\n      dup1\n      dup4\n      sload\n      div\n      mul\n      dup4\n      mstore\n      swap2\n      0x20\n      add\n      swap2\n      jump(tag_186)\n    tag_187:\n      dup3\n      add\n      swap2\n      swap1\n      0x00\n      mstore\n      keccak256(0x00, 0x20)\n      swap1\n    tag_188:\n      dup2\n      sload\n      dup2\n      mstore\n      swap1\n      0x01\n      add\n      swap1\n      0x20\n      add\n      dup1\n      dup4\n      gt\n      tag_188\n      jumpi\n      dup3\n      swap1\n      sub\n      0x1f\n      and\n      dup3\n      add\n      swap2\n    tag_186:\n      pop\n      pop\n      pop\n      pop\n      pop\n      dup2\n      mstore\n      0x20\n      add\n      0x05\n      dup3\n      add\n      sload\n      dup2\n      mstore\n      0x20\n      add\n      0x06\n      dup3\n      add\n      0x00\n      swap1\n      sload\n      swap1\n      0x0100\n      exp\n      swap1\n      div\n      0xff\n      and\n      iszero\n      iszero\n      iszero\n      iszero\n      dup2\n      mstore\n      0x20\n      add\n      0x07\n      dup3\n      add\n      dup1\n      sload\n      tag_189\n      swap1\n      tag_101\n      jump\t// in\n    tag_189:\n      dup1\n      0x1f\n      add\n      0x20\n      dup1\n      swap2\n      div\n      mul\n      0x20\n      add\n      mload(0x40)\n      swap1\n      dup2\n      add\n      0x40\n      mstore\n      dup1\n      swap3\n      swap2\n      swap1\n      dup2\n      dup2\n      mstore\n      0x20\n      add\n      dup3\n      dup1\n      sload\n      tag_190\n      swap1\n      tag_101\n      jump\t// in\n    tag_190:\n      dup1\n      iszero\n      tag_191\n      jumpi\n      dup1\n      0x1f\n      lt\n      tag_192\n      jumpi\n      0x0100\n      dup1\n      dup4\n      sload\n      div\n      mul\n      dup4\n      mstore\n      swap2\n      0x20\n      add\n      swap2\n      jump(tag_191)\n    tag_192:\n      dup3\n      add\n      swap2\n      swap1\n      0x00\n      mstore\n      keccak256(0x00, 0x20)\n      swap1\n    tag_193:\n      dup2\n      sload\n      dup2\n      mstore\n      swap1\n      0x01\n      add\n      swap1\n      0x20\n      add\n      dup1\n      dup4\n      gt\n      tag_193\n      jumpi\n      dup3\n      swap1\n      sub\n      0x1f\n      and\n      dup3\n      add\n      swap2\n    tag_191:\n      pop\n      pop\n      pop\n      pop\n      pop\n      dup2\n      mstore\n      pop\n      pop\n        /* \"core/MessageRegistry.sol\":4226:4232  result */\n      dup3\n        /* \"core/MessageRegistry.sol\":4237:4243  offset */\n      dup9\n        /* \"core/MessageRegistry.sol\":4233:4234  i */\n      dup4\n        /* \"core/MessageRegistry.sol\":4233:4243  i - offset */\n      tag_194\n      swap2\n      swap1\n      tag_170\n      jump\t// in\n    tag_194:\n        /* \"core/MessageRegistry.sol\":4226:4244  result[i - offset] */\n      dup2\n      mload\n      dup2\n      lt\n      tag_195\n      jumpi\n      tag_196\n      tag_182\n      jump\t// in\n    tag_196:\n    tag_195:\n      0x20\n      mul\n      0x20\n      add\n      add\n        /* \"core/MessageRegistry.sol\":4226:4268  result[i - offset] = messages[userMsgs[i]] */\n      dup2\n      swap1\n      mstore\n      pop\n        /* \"core/MessageRegistry.sol\":4207:4210  i++ */\n      dup1\n      dup1\n      0x01\n      add\n      swap2\n      pop\n      pop\n        /* \"core/MessageRegistry.sol\":4173:4279  for (uint256 i = offset; i < end; i++) {... */\n      jump(tag_177)\n    tag_178:\n      pop\n        /* \"core/MessageRegistry.sol\":4295:4301  result */\n      dup1\n        /* \"core/MessageRegistry.sol\":4288:4301  return result */\n      swap4\n      pop\n      pop\n      pop\n      pop\n        /* \"core/MessageRegistry.sol\":3599:4308  function getUserMessages(... */\n      swap4\n      swap3\n      pop\n      pop\n      pop\n      jump\t// out\n        /* \"@openzeppelin/contracts/utils/Pausable.sol\":1850:1934  function paused() public view virtual returns (bool) {... */\n    tag_60:\n        /* \"@openzeppelin/contracts/utils/Pausable.sol\":1897:1901  bool */\n      0x00\n        /* \"@openzeppelin/contracts/utils/Pausable.sol\":1920:1927  _paused */\n      0x02\n      0x00\n      swap1\n      sload\n      swap1\n      0x0100\n      exp\n      swap1\n      div\n      0xff\n      and\n        /* \"@openzeppelin/contracts/utils/Pausable.sol\":1913:1927  return _paused */\n      swap1\n      pop\n        /* \"@openzeppelin/contracts/utils/Pausable.sol\":1850:1934  function paused() public view virtual returns (bool) {... */\n      swap1\n      jump\t// out\n        /* \"@openzeppelin/contracts/access/Ownable.sol\":2293:2394  function renounceOwnership() public virtual onlyOwner {... */\n    tag_64:\n        /* \"@openzeppelin/contracts/access/Ownable.sol\":1531:1544  _checkOwner() */\n      tag_199\n        /* \"@openzeppelin/contracts/access/Ownable.sol\":1531:1542  _checkOwner */\n      tag_146\n        /* \"@openzeppelin/contracts/access/Ownable.sol\":1531:1544  _checkOwner() */\n      jump\t// in\n    tag_199:\n        /* \"@openzeppelin/contracts/access/Ownable.sol\":2357:2387  _transferOwnership(address(0)) */\n      tag_201\n        /* \"@openzeppelin/contracts/access/Ownable.sol\":2384:2385  0 */\n      0x00\n        /* \"@openzeppelin/contracts/access/Ownable.sol\":2357:2375  _transferOwnership */\n      tag_202\n        /* \"@openzeppelin/contracts/access/Ownable.sol\":2357:2387  _transferOwnership(address(0)) */\n      jump\t// in\n    tag_201:\n        /* \"@openzeppelin/contracts/access/Ownable.sol\":2293:2394  function renounceOwnership() public virtual onlyOwner {... */\n      jump\t// out\n        /* \"core/MessageRegistry.sol\":491:536  mapping(bytes32 => bool) public nullifierUsed */\n    tag_67:\n      mstore(0x20, 0x04)\n      dup1\n      0x00\n      mstore\n      keccak256(0x00, 0x40)\n      0x00\n      swap2\n      pop\n      sload\n      swap1\n      0x0100\n      exp\n      swap1\n      div\n      0xff\n      and\n      dup2\n      jump\t// out\n        /* \"core/MessageRegistry.sol\":4879:4940  function pause() external onlyOwner {... */\n    tag_70:\n        /* \"@openzeppelin/contracts/access/Ownable.sol\":1531:1544  _checkOwner() */\n      tag_204\n        /* \"@openzeppelin/contracts/access/Ownable.sol\":1531:1542  _checkOwner */\n      tag_146\n        /* \"@openzeppelin/contracts/access/Ownable.sol\":1531:1544  _checkOwner() */\n      jump\t// in\n    tag_204:\n        /* \"core/MessageRegistry.sol\":4925:4933  _pause() */\n      tag_206\n        /* \"core/MessageRegistry.sol\":4925:4931  _pause */\n      tag_207\n        /* \"core/MessageRegistry.sol\":4925:4933  _pause() */\n      jump\t// in\n    tag_206:\n        /* \"core/MessageRegistry.sol\":4879:4940  function pause() external onlyOwner {... */\n      jump\t// out\n        /* \"@openzeppelin/contracts/access/Ownable.sol\":1638:1723  function owner() public view virtual returns (address) {... */\n    tag_72:\n        /* \"@openzeppelin/contracts/access/Ownable.sol\":1684:1691  address */\n      0x00\n        /* \"@openzeppelin/contracts/access/Ownable.sol\":1710:1716  _owner */\n      dup1\n      0x00\n      swap1\n      sload\n      swap1\n      0x0100\n      exp\n      swap1\n      div\n      0xffffffffffffffffffffffffffffffffffffffff\n      and\n        /* \"@openzeppelin/contracts/access/Ownable.sol\":1703:1716  return _owner */\n      swap1\n      pop\n        /* \"@openzeppelin/contracts/access/Ownable.sol\":1638:1723  function owner() public view virtual returns (address) {... */\n      swap1\n      jump\t// out\n        /* \"core/MessageRegistry.sol\":542:591  mapping(address => bytes32[]) public userMessages */\n    tag_78:\n      mstore(0x20, 0x05)\n      dup2\n      0x00\n      mstore\n      keccak256(0x00, 0x40)\n      dup2\n      dup2\n      sload\n      dup2\n      lt\n      tag_209\n      jumpi\n      0x00\n      dup1\n      revert\n    tag_209:\n      swap1\n      0x00\n      mstore\n      keccak256(0x00, 0x20)\n      add\n      0x00\n      swap2\n      pop\n      swap2\n      pop\n      pop\n      sload\n      dup2\n      jump\t// out\n        /* \"@openzeppelin/contracts/access/Ownable.sol\":2543:2758  function transferOwnership(address newOwner) public virtual onlyOwner {... */\n    tag_83:\n        /* \"@openzeppelin/contracts/access/Ownable.sol\":1531:1544  _checkOwner() */\n      tag_212\n        /* \"@openzeppelin/contracts/access/Ownable.sol\":1531:1542  _checkOwner */\n      tag_146\n        /* \"@openzeppelin/contracts/access/Ownable.sol\":1531:1544  _checkOwner() */\n      jump\t// in\n    tag_212:\n        /* \"@openzeppelin/contracts/access/Ownable.sol\":2647:2648  0 */\n      0x00\n        /* \"@openzeppelin/contracts/access/Ownable.sol\":2627:2649  newOwner == address(0) */\n      0xffffffffffffffffffffffffffffffffffffffff\n      and\n        /* \"@openzeppelin/contracts/access/Ownable.sol\":2627:2635  newOwner */\n      dup2\n        /* \"@openzeppelin/contracts/access/Ownable.sol\":2627:2649  newOwner == address(0) */\n      0xffffffffffffffffffffffffffffffffffffffff\n      and\n      sub\n        /* \"@openzeppelin/contracts/access/Ownable.sol\":2623:2714  if (newOwner == address(0)) {... */\n      tag_214\n      jumpi\n        /* \"@openzeppelin/contracts/access/Ownable.sol\":2700:2701  0 */\n      0x00\n        /* \"@openzeppelin/contracts/access/Ownable.sol\":2672:2703  OwnableInvalidOwner(address(0)) */\n      mload(0x40)\n      0x1e4fbdf700000000000000000000000000000000000000000000000000000000\n      dup2\n      mstore\n      0x04\n      add\n      tag_215\n      swap2\n      swap1\n      tag_74\n      jump\t// in\n    tag_215:\n      mload(0x40)\n      dup1\n      swap2\n      sub\n      swap1\n      revert\n        /* \"@openzeppelin/contracts/access/Ownable.sol\":2623:2714  if (newOwner == address(0)) {... */\n    tag_214:\n        /* \"@openzeppelin/contracts/access/Ownable.sol\":2723:2751  _transferOwnership(newOwner) */\n      tag_216\n        /* \"@openzeppelin/contracts/access/Ownable.sol\":2742:2750  newOwner */\n      dup2\n        /* \"@openzeppelin/contracts/access/Ownable.sol\":2723:2741  _transferOwnership */\n      tag_202\n        /* \"@openzeppelin/contracts/access/Ownable.sol\":2723:2751  _transferOwnership(newOwner) */\n      jump\t// in\n    tag_216:\n        /* \"@openzeppelin/contracts/access/Ownable.sol\":2543:2758  function transferOwnership(address newOwner) public virtual onlyOwner {... */\n      pop\n      jump\t// out\n        /* \"core/MessageRegistry.sol\":3101:3593  function markMessageRead(bytes32 commitment) external override {... */\n    tag_86:\n        /* \"core/MessageRegistry.sol\":3204:3205  0 */\n      0x00\n        /* \"core/MessageRegistry.sol\":3196:3206  bytes32(0) */\n      dup1\n      shl\n        /* \"core/MessageRegistry.sol\":3182:3192  commitment */\n      dup2\n        /* \"core/MessageRegistry.sol\":3182:3206  commitment != bytes32(0) */\n      sub\n        /* \"core/MessageRegistry.sol\":3174:3229  require(commitment != bytes32(0), \"Invalid commitment\") */\n      tag_218\n      jumpi\n      mload(0x40)\n      0x08c379a000000000000000000000000000000000000000000000000000000000\n      dup2\n      mstore\n      0x04\n      add\n      tag_219\n      swap1\n      tag_96\n      jump\t// in\n    tag_219:\n      mload(0x40)\n      dup1\n      swap2\n      sub\n      swap1\n      revert\n    tag_218:\n        /* \"core/MessageRegistry.sol\":3248:3271  Message storage message */\n      0x00\n        /* \"core/MessageRegistry.sol\":3274:3282  messages */\n      0x03\n        /* \"core/MessageRegistry.sol\":3274:3294  messages[commitment] */\n      0x00\n        /* \"core/MessageRegistry.sol\":3283:3293  commitment */\n      dup4\n        /* \"core/MessageRegistry.sol\":3274:3294  messages[commitment] */\n      dup2\n      mstore\n      0x20\n      add\n      swap1\n      dup2\n      mstore\n      0x20\n      add\n      0x00\n      keccak256\n        /* \"core/MessageRegistry.sol\":3248:3294  Message storage message = messages[commitment] */\n      swap1\n      pop\n        /* \"core/MessageRegistry.sol\":3342:3343  0 */\n      0x00\n        /* \"core/MessageRegistry.sol\":3334:3344  bytes32(0) */\n      dup1\n      shl\n        /* \"core/MessageRegistry.sol\":3312:3319  message */\n      dup2\n        /* \"core/MessageRegistry.sol\":3312:3330  message.commitment */\n      0x00\n      add\n      sload\n        /* \"core/MessageRegistry.sol\":3312:3344  message.commitment != bytes32(0) */\n      sub\n        /* \"core/MessageRegistry.sol\":3304:3366  require(message.commitment != bytes32(0), \"Message not found\") */\n      tag_220\n      jumpi\n      mload(0x40)\n      0x08c379a000000000000000000000000000000000000000000000000000000000\n      dup2\n      mstore\n      0x04\n      add\n      tag_221\n      swap1\n      tag_99\n      jump\t// in\n    tag_221:\n      mload(0x40)\n      dup1\n      swap2\n      sub\n      swap1\n      revert\n    tag_220:\n        /* \"core/MessageRegistry.sol\":3405:3415  msg.sender */\n      caller\n        /* \"core/MessageRegistry.sol\":3384:3415  message.recipient == msg.sender */\n      0xffffffffffffffffffffffffffffffffffffffff\n      and\n        /* \"core/MessageRegistry.sol\":3384:3391  message */\n      dup2\n        /* \"core/MessageRegistry.sol\":3384:3401  message.recipient */\n      0x03\n      add\n      0x00\n      swap1\n      sload\n      swap1\n      0x0100\n      exp\n      swap1\n      div\n      0xffffffffffffffffffffffffffffffffffffffff\n      and\n        /* \"core/MessageRegistry.sol\":3384:3415  message.recipient == msg.sender */\n      0xffffffffffffffffffffffffffffffffffffffff\n      and\n      eq\n        /* \"core/MessageRegistry.sol\":3376:3441  require(message.recipient == msg.sender, \"Not message recipient\") */\n      tag_222\n      jumpi\n      mload(0x40)\n      0x08c379a000000000000000000000000000000000000000000000000000000000\n      dup2\n      mstore\n      0x04\n      add\n      tag_223\n      swap1\n      tag_224\n      jump\t// in\n    tag_223:\n      mload(0x40)\n      dup1\n      swap2\n      sub\n      swap1\n      revert\n    tag_222:\n        /* \"core/MessageRegistry.sol\":3460:3467  message */\n      dup1\n        /* \"core/MessageRegistry.sol\":3460:3474  message.isRead */\n      0x06\n      add\n      0x00\n      swap1\n      sload\n      swap1\n      0x0100\n      exp\n      swap1\n      div\n      0xff\n      and\n        /* \"core/MessageRegistry.sol\":3459:3474  !message.isRead */\n      iszero\n        /* \"core/MessageRegistry.sol\":3451:3499  require(!message.isRead, \"Message already read\") */\n      tag_225\n      jumpi\n      mload(0x40)\n      0x08c379a000000000000000000000000000000000000000000000000000000000\n      dup2\n      mstore\n      0x04\n      add\n      tag_226\n      swap1\n      tag_227\n      jump\t// in\n    tag_226:\n      mload(0x40)\n      dup1\n      swap2\n      sub\n      swap1\n      revert\n    tag_225:\n        /* \"core/MessageRegistry.sol\":3527:3531  true */\n      0x01\n        /* \"core/MessageRegistry.sol\":3510:3517  message */\n      dup2\n        /* \"core/MessageRegistry.sol\":3510:3524  message.isRead */\n      0x06\n      add\n      0x00\n        /* \"core/MessageRegistry.sol\":3510:3531  message.isRead = true */\n      0x0100\n      exp\n      dup2\n      sload\n      dup2\n      0xff\n      mul\n      not\n      and\n      swap1\n      dup4\n      iszero\n      iszero\n      mul\n      or\n      swap1\n      sstore\n      pop\n        /* \"core/MessageRegistry.sol\":3558:3568  commitment */\n      dup2\n        /* \"core/MessageRegistry.sol\":3546:3586  MessageRead(commitment, block.timestamp) */\n      0x15a79aca86671a7eb5af826e3fe7a56b9afb1a477fc8bb591388883849543d44\n        /* \"core/MessageRegistry.sol\":3570:3585  block.timestamp */\n      timestamp\n        /* \"core/MessageRegistry.sol\":3546:3586  MessageRead(commitment, block.timestamp) */\n      mload(0x40)\n      tag_228\n      swap2\n      swap1\n      tag_34\n      jump\t// in\n    tag_228:\n      mload(0x40)\n      dup1\n      swap2\n      sub\n      swap1\n      log2\n        /* \"core/MessageRegistry.sol\":3164:3593  {... */\n      pop\n        /* \"core/MessageRegistry.sol\":3101:3593  function markMessageRead(bytes32 commitment) external override {... */\n      pop\n      jump\t// out\n        /* \"core/MessageRegistry.sol\":811:2205  function storeMessage(... */\n    tag_90:\n        /* \"@openzeppelin/contracts/utils/ReentrancyGuard.sol\":2500:2521  _nonReentrantBefore() */\n      tag_230\n        /* \"@openzeppelin/contracts/utils/ReentrancyGuard.sol\":2500:2519  _nonReentrantBefore */\n      tag_124\n        /* \"@openzeppelin/contracts/utils/ReentrancyGuard.sol\":2500:2521  _nonReentrantBefore() */\n      jump\t// in\n    tag_230:\n        /* \"@openzeppelin/contracts/utils/Pausable.sol\":1474:1493  _requireNotPaused() */\n      tag_232\n        /* \"@openzeppelin/contracts/utils/Pausable.sol\":1474:1491  _requireNotPaused */\n      tag_127\n        /* \"@openzeppelin/contracts/utils/Pausable.sol\":1474:1493  _requireNotPaused() */\n      jump\t// in\n    tag_232:\n        /* \"core/MessageRegistry.sol\":1077:1078  0 */\n      0x00\n        /* \"core/MessageRegistry.sol\":1069:1079  bytes32(0) */\n      dup1\n      shl\n        /* \"core/MessageRegistry.sol\":1055:1065  commitment */\n      dup8\n        /* \"core/MessageRegistry.sol\":1055:1079  commitment != bytes32(0) */\n      sub\n        /* \"core/MessageRegistry.sol\":1047:1102  require(commitment != bytes32(0), \"Invalid commitment\") */\n      tag_234\n      jumpi\n      mload(0x40)\n      0x08c379a000000000000000000000000000000000000000000000000000000000\n      dup2\n      mstore\n      0x04\n      add\n      tag_235\n      swap1\n      tag_96\n      jump\t// in\n    tag_235:\n      mload(0x40)\n      dup1\n      swap2\n      sub\n      swap1\n      revert\n    tag_234:\n        /* \"core/MessageRegistry.sol\":1141:1142  0 */\n      0x00\n        /* \"core/MessageRegistry.sol\":1133:1143  bytes32(0) */\n      dup1\n      shl\n        /* \"core/MessageRegistry.sol\":1120:1129  nullifier */\n      dup7\n        /* \"core/MessageRegistry.sol\":1120:1143  nullifier != bytes32(0) */\n      sub\n        /* \"core/MessageRegistry.sol\":1112:1165  require(nullifier != bytes32(0), \"Invalid nullifier\") */\n      tag_236\n      jumpi\n      mload(0x40)\n      0x08c379a000000000000000000000000000000000000000000000000000000000\n      dup2\n      mstore\n      0x04\n      add\n      tag_237\n      swap1\n      tag_238\n      jump\t// in\n    tag_237:\n      mload(0x40)\n      dup1\n      swap2\n      sub\n      swap1\n      revert\n    tag_236:\n        /* \"core/MessageRegistry.sol\":1204:1205  0 */\n      0x00\n        /* \"core/MessageRegistry.sol\":1183:1206  recipient != address(0) */\n      0xffffffffffffffffffffffffffffffffffffffff\n      and\n        /* \"core/MessageRegistry.sol\":1183:1192  recipient */\n      dup6\n        /* \"core/MessageRegistry.sol\":1183:1206  recipient != address(0) */\n      0xffffffffffffffffffffffffffffffffffffffff\n      and\n      sub\n        /* \"core/MessageRegistry.sol\":1175:1228  require(recipient != address(0), \"Invalid recipient\") */\n      tag_239\n      jumpi\n      mload(0x40)\n      0x08c379a000000000000000000000000000000000000000000000000000000000\n      dup2\n      mstore\n      0x04\n      add\n      tag_240\n      swap1\n      tag_131\n      jump\t// in\n    tag_240:\n      mload(0x40)\n      dup1\n      swap2\n      sub\n      swap1\n      revert\n    tag_239:\n        /* \"core/MessageRegistry.sol\":1272:1273  0 */\n      0x00\n        /* \"core/MessageRegistry.sol\":1246:1262  encryptedContent */\n      dup5\n      dup5\n        /* \"core/MessageRegistry.sol\":1246:1269  encryptedContent.length */\n      swap1\n      pop\n        /* \"core/MessageRegistry.sol\":1246:1273  encryptedContent.length > 0 */\n      gt\n        /* \"core/MessageRegistry.sol\":1238:1291  require(encryptedContent.length > 0, \"Empty message\") */\n      tag_241\n      jumpi\n      mload(0x40)\n      0x08c379a000000000000000000000000000000000000000000000000000000000\n      dup2\n      mstore\n      0x04\n      add\n      tag_242\n      swap1\n      tag_134\n      jump\t// in\n    tag_242:\n      mload(0x40)\n      dup1\n      swap2\n      sub\n      swap1\n      revert\n    tag_241:\n        /* \"core/MessageRegistry.sol\":1324:1325  0 */\n      0x00\n        /* \"core/MessageRegistry.sol\":1309:1314  proof */\n      dup3\n      dup3\n        /* \"core/MessageRegistry.sol\":1309:1321  proof.length */\n      swap1\n      pop\n        /* \"core/MessageRegistry.sol\":1309:1325  proof.length > 0 */\n      gt\n        /* \"core/MessageRegistry.sol\":1301:1341  require(proof.length > 0, \"Empty proof\") */\n      tag_243\n      jumpi\n      mload(0x40)\n      0x08c379a000000000000000000000000000000000000000000000000000000000\n      dup2\n      mstore\n      0x04\n      add\n      tag_244\n      swap1\n      tag_245\n      jump\t// in\n    tag_244:\n      mload(0x40)\n      dup1\n      swap2\n      sub\n      swap1\n      revert\n    tag_243:\n        /* \"core/MessageRegistry.sol\":1369:1382  nullifierUsed */\n      0x04\n        /* \"core/MessageRegistry.sol\":1369:1393  nullifierUsed[nullifier] */\n      0x00\n        /* \"core/MessageRegistry.sol\":1383:1392  nullifier */\n      dup8\n        /* \"core/MessageRegistry.sol\":1369:1393  nullifierUsed[nullifier] */\n      dup2\n      mstore\n      0x20\n      add\n      swap1\n      dup2\n      mstore\n      0x20\n      add\n      0x00\n      keccak256\n      0x00\n      swap1\n      sload\n      swap1\n      0x0100\n      exp\n      swap1\n      div\n      0xff\n      and\n        /* \"core/MessageRegistry.sol\":1368:1393  !nullifierUsed[nullifier] */\n      iszero\n        /* \"core/MessageRegistry.sol\":1360:1420  require(!nullifierUsed[nullifier], \"Nullifier already used\") */\n      tag_246\n      jumpi\n      mload(0x40)\n      0x08c379a000000000000000000000000000000000000000000000000000000000\n      dup2\n      mstore\n      0x04\n      add\n      tag_247\n      swap1\n      tag_248\n      jump\t// in\n    tag_247:\n      mload(0x40)\n      dup1\n      swap2\n      sub\n      swap1\n      revert\n    tag_246:\n        /* \"core/MessageRegistry.sol\":1460:1468  verifier */\n      0x02\n      0x01\n      swap1\n      sload\n      swap1\n      0x0100\n      exp\n      swap1\n      div\n      0xffffffffffffffffffffffffffffffffffffffff\n      and\n        /* \"core/MessageRegistry.sol\":1460:1487  verifier.verifyMessageProof */\n      0xffffffffffffffffffffffffffffffffffffffff\n      and\n      0x9cc06848\n        /* \"core/MessageRegistry.sol\":1505:1515  commitment */\n      dup9\n        /* \"core/MessageRegistry.sol\":1533:1542  nullifier */\n      dup9\n        /* \"core/MessageRegistry.sol\":1560:1570  msg.sender */\n      caller\n        /* \"core/MessageRegistry.sol\":1588:1597  recipient */\n      dup10\n        /* \"core/MessageRegistry.sol\":1615:1631  encryptedContent */\n      dup10\n      dup10\n        /* \"core/MessageRegistry.sol\":1649:1654  proof */\n      dup10\n      dup10\n        /* \"core/MessageRegistry.sol\":1460:1668  verifier.verifyMessageProof(... */\n      mload(0x40)\n      dup10\n      0xffffffff\n      and\n      0xe0\n      shl\n      dup2\n      mstore\n      0x04\n      add\n      tag_249\n      swap9\n      swap8\n      swap7\n      swap6\n      swap5\n      swap4\n      swap3\n      swap2\n      swap1\n      tag_250\n      jump\t// in\n    tag_249:\n      0x20\n      mload(0x40)\n      dup1\n      dup4\n      sub\n      dup2\n      dup7\n      gas\n      staticcall\n      iszero\n      dup1\n      iszero\n      tag_252\n      jumpi\n      returndatasize\n      0x00\n      dup1\n      returndatacopy\n      revert(0x00, returndatasize)\n    tag_252:\n      pop\n      pop\n      pop\n      pop\n      mload(0x40)\n      returndatasize\n      not(0x1f)\n      0x1f\n      dup3\n      add\n      and\n      dup3\n      add\n      dup1\n      0x40\n      mstore\n      pop\n      dup2\n      add\n      swap1\n      tag_253\n      swap2\n      swap1\n      tag_254\n      jump\t// in\n    tag_253:\n        /* \"core/MessageRegistry.sol\":1439:1707  require(... */\n      tag_255\n      jumpi\n      mload(0x40)\n      0x08c379a000000000000000000000000000000000000000000000000000000000\n      dup2\n      mstore\n      0x04\n      add\n      tag_256\n      swap1\n      tag_257\n      jump\t// in\n    tag_256:\n      mload(0x40)\n      dup1\n      swap2\n      sub\n      swap1\n      revert\n    tag_255:\n        /* \"core/MessageRegistry.sol\":1741:2037  Message({... */\n      mload(0x40)\n      dup1\n      0x0100\n      add\n      0x40\n      mstore\n      dup1\n        /* \"core/MessageRegistry.sol\":1775:1785  commitment */\n      dup9\n        /* \"core/MessageRegistry.sol\":1741:2037  Message({... */\n      dup2\n      mstore\n      0x20\n      add\n        /* \"core/MessageRegistry.sol\":1810:1819  nullifier */\n      dup8\n        /* \"core/MessageRegistry.sol\":1741:2037  Message({... */\n      dup2\n      mstore\n      0x20\n      add\n        /* \"core/MessageRegistry.sol\":1841:1851  msg.sender */\n      caller\n        /* \"core/MessageRegistry.sol\":1741:2037  Message({... */\n      0xffffffffffffffffffffffffffffffffffffffff\n      and\n      dup2\n      mstore\n      0x20\n      add\n        /* \"core/MessageRegistry.sol\":1876:1885  recipient */\n      dup7\n        /* \"core/MessageRegistry.sol\":1741:2037  Message({... */\n      0xffffffffffffffffffffffffffffffffffffffff\n      and\n      dup2\n      mstore\n      0x20\n      add\n        /* \"core/MessageRegistry.sol\":1917:1933  encryptedContent */\n      dup6\n      dup6\n        /* \"core/MessageRegistry.sol\":1741:2037  Message({... */\n      dup1\n      dup1\n      0x1f\n      add\n      0x20\n      dup1\n      swap2\n      div\n      mul\n      0x20\n      add\n      mload(0x40)\n      swap1\n      dup2\n      add\n      0x40\n      mstore\n      dup1\n      swap4\n      swap3\n      swap2\n      swap1\n      dup2\n      dup2\n      mstore\n      0x20\n      add\n      dup4\n      dup4\n      dup1\n      dup3\n      dup5\n      calldatacopy\n      0x00\n      dup2\n      dup5\n      add\n      mstore\n      not(0x1f)\n      0x1f\n      dup3\n      add\n      and\n      swap1\n      pop\n      dup1\n      dup4\n      add\n      swap3\n      pop\n      pop\n      pop\n      pop\n      pop\n      pop\n      pop\n      dup2\n      mstore\n      0x20\n      add\n        /* \"core/MessageRegistry.sol\":1958:1973  block.timestamp */\n      timestamp\n        /* \"core/MessageRegistry.sol\":1741:2037  Message({... */\n      dup2\n      mstore\n      0x20\n      add\n        /* \"core/MessageRegistry.sol\":1995:2000  false */\n      0x00\n        /* \"core/MessageRegistry.sol\":1741:2037  Message({... */\n      iszero\n      iszero\n      dup2\n      mstore\n      0x20\n      add\n        /* \"core/MessageRegistry.sol\":2021:2026  proof */\n      dup4\n      dup4\n        /* \"core/MessageRegistry.sol\":1741:2037  Message({... */\n      dup1\n      dup1\n      0x1f\n      add\n      0x20\n      dup1\n      swap2\n      div\n      mul\n      0x20\n      add\n      mload(0x40)\n      swap1\n      dup2\n      add\n      0x40\n      mstore\n      dup1\n      swap4\n      swap3\n      swap2\n      swap1\n      dup2\n      dup2\n      mstore\n      0x20\n      add\n      dup4\n      dup4\n      dup1\n      dup3\n      dup5\n      calldatacopy\n      0x00\n      dup2\n      dup5\n      add\n      mstore\n      not(0x1f)\n      0x1f\n      dup3\n      add\n      and\n      swap1\n      pop\n      dup1\n      dup4\n      add\n      swap3\n      pop\n      pop\n      pop\n      pop\n      pop\n      pop\n      pop\n      dup2\n      mstore\n      pop\n        /* \"core/MessageRegistry.sol\":1718:1726  messages */\n      0x03\n        /* \"core/MessageRegistry.sol\":1718:1738  messages[commitment] */\n      0x00\n        /* \"core/MessageRegistry.sol\":1727:1737  commitment */\n      dup10\n        /* \"core/MessageRegistry.sol\":1718:1738  messages[commitment] */\n      dup2\n      mstore\n      0x20\n      add\n      swap1\n      dup2\n      mstore\n      0x20\n      add\n      0x00\n      keccak256\n        /* \"core/MessageRegistry.sol\":1718:2037  messages[commitment] = Message({... */\n      0x00\n      dup3\n      add\n      mload\n      dup2\n      0x00\n      add\n      sstore\n      0x20\n      dup3\n      add\n      mload\n      dup2\n      0x01\n      add\n      sstore\n      0x40\n      dup3\n      add\n      mload\n      dup2\n      0x02\n      add\n      exp(0x0100, 0x00)\n      dup2\n      sload\n      dup2\n      0xffffffffffffffffffffffffffffffffffffffff\n      mul\n      not\n      and\n      swap1\n      dup4\n      0xffffffffffffffffffffffffffffffffffffffff\n      and\n      mul\n      or\n      swap1\n      sstore\n      pop\n      0x60\n      dup3\n      add\n      mload\n      dup2\n      0x03\n      add\n      exp(0x0100, 0x00)\n      dup2\n      sload\n      dup2\n      0xffffffffffffffffffffffffffffffffffffffff\n      mul\n      not\n      and\n      swap1\n      dup4\n      0xffffffffffffffffffffffffffffffffffffffff\n      and\n      mul\n      or\n      swap1\n      sstore\n      pop\n      0x80\n      dup3\n      add\n      mload\n      dup2\n      0x04\n      add\n      swap1\n      dup2\n      tag_258\n      swap2\n      swap1\n      tag_138\n      jump\t// in\n    tag_258:\n      pop\n      0xa0\n      dup3\n      add\n      mload\n      dup2\n      0x05\n      add\n      sstore\n      0xc0\n      dup3\n      add\n      mload\n      dup2\n      0x06\n      add\n      exp(0x0100, 0x00)\n      dup2\n      sload\n      dup2\n      0xff\n      mul\n      not\n      and\n      swap1\n      dup4\n      iszero\n      iszero\n      mul\n      or\n      swap1\n      sstore\n      pop\n      0xe0\n      dup3\n      add\n      mload\n      dup2\n      0x07\n      add\n      swap1\n      dup2\n      tag_259\n      swap2\n      swap1\n      tag_138\n      jump\t// in\n    tag_259:\n      pop\n      swap1\n      pop\n      pop\n        /* \"core/MessageRegistry.sol\":2075:2079  true */\n      0x01\n        /* \"core/MessageRegistry.sol\":2048:2061  nullifierUsed */\n      0x04\n        /* \"core/MessageRegistry.sol\":2048:2072  nullifierUsed[nullifier] */\n      0x00\n        /* \"core/MessageRegistry.sol\":2062:2071  nullifier */\n      dup9\n        /* \"core/MessageRegistry.sol\":2048:2072  nullifierUsed[nullifier] */\n      dup2\n      mstore\n      0x20\n      add\n      swap1\n      dup2\n      mstore\n      0x20\n      add\n      0x00\n      keccak256\n      0x00\n        /* \"core/MessageRegistry.sol\":2048:2079  nullifierUsed[nullifier] = true */\n      0x0100\n      exp\n      dup2\n      sload\n      dup2\n      0xff\n      mul\n      not\n      and\n      swap1\n      dup4\n      iszero\n      iszero\n      mul\n      or\n      swap1\n      sstore\n      pop\n        /* \"core/MessageRegistry.sol\":2089:2101  userMessages */\n      0x05\n        /* \"core/MessageRegistry.sol\":2089:2112  userMessages[recipient] */\n      0x00\n        /* \"core/MessageRegistry.sol\":2102:2111  recipient */\n      dup7\n        /* \"core/MessageRegistry.sol\":2089:2112  userMessages[recipient] */\n      0xffffffffffffffffffffffffffffffffffffffff\n      and\n      0xffffffffffffffffffffffffffffffffffffffff\n      and\n      dup2\n      mstore\n      0x20\n      add\n      swap1\n      dup2\n      mstore\n      0x20\n      add\n      0x00\n      keccak256\n        /* \"core/MessageRegistry.sol\":2118:2128  commitment */\n      dup8\n        /* \"core/MessageRegistry.sol\":2089:2129  userMessages[recipient].push(commitment) */\n      swap1\n      dup1\n      0x01\n      dup2\n      sload\n      add\n      dup1\n      dup3\n      sstore\n      dup1\n      swap2\n      pop\n      pop\n      0x01\n      swap1\n      sub\n      swap1\n      0x00\n      mstore\n      keccak256(0x00, 0x20)\n      add\n      0x00\n      swap1\n      swap2\n      swap1\n      swap2\n      swap1\n      swap2\n      pop\n      sstore\n        /* \"core/MessageRegistry.sol\":2171:2180  recipient */\n      dup5\n        /* \"core/MessageRegistry.sol\":2145:2198  MessageStored(commitment, recipient, block.timestamp) */\n      0xffffffffffffffffffffffffffffffffffffffff\n      and\n        /* \"core/MessageRegistry.sol\":2159:2169  commitment */\n      dup8\n        /* \"core/MessageRegistry.sol\":2145:2198  MessageStored(commitment, recipient, block.timestamp) */\n      0xfc0130f045b99ddc021ab5370f3ebcc300526e38305dc6bbf89079a83abd3eb8\n        /* \"core/MessageRegistry.sol\":2182:2197  block.timestamp */\n      timestamp\n        /* \"core/MessageRegistry.sol\":2145:2198  MessageStored(commitment, recipient, block.timestamp) */\n      mload(0x40)\n      tag_261\n      swap2\n      swap1\n      tag_34\n      jump\t// in\n    tag_261:\n      mload(0x40)\n      dup1\n      swap2\n      sub\n      swap1\n      log3\n        /* \"@openzeppelin/contracts/utils/ReentrancyGuard.sol\":2542:2562  _nonReentrantAfter() */\n      tag_262\n        /* \"@openzeppelin/contracts/utils/ReentrancyGuard.sol\":2542:2560  _nonReentrantAfter */\n      tag_143\n        /* \"@openzeppelin/contracts/utils/ReentrancyGuard.sol\":2542:2562  _nonReentrantAfter() */\n      jump\t// in\n    tag_262:\n        /* \"core/MessageRegistry.sol\":811:2205  function storeMessage(... */\n      pop\n      pop\n      pop\n      pop\n      pop\n      pop\n      pop\n      jump\t// out\n        /* \"@openzeppelin/contracts/utils/ReentrancyGuard.sol\":2575:2882  function _nonReentrantBefore() private {... */\n    tag_124:\n        /* \"@openzeppelin/contracts/utils/ReentrancyGuard.sol\":1899:1900  2 */\n      0x02\n        /* \"@openzeppelin/contracts/utils/ReentrancyGuard.sol\":2702:2709  _status */\n      sload(0x01)\n        /* \"@openzeppelin/contracts/utils/ReentrancyGuard.sol\":2702:2720  _status == ENTERED */\n      sub\n        /* \"@openzeppelin/contracts/utils/ReentrancyGuard.sol\":2698:2784  if (_status == ENTERED) {... */\n      tag_264\n      jumpi\n        /* \"@openzeppelin/contracts/utils/ReentrancyGuard.sol\":2743:2773  ReentrancyGuardReentrantCall() */\n      mload(0x40)\n      0x3ee5aeb500000000000000000000000000000000000000000000000000000000\n      dup2\n      mstore\n      0x04\n      add\n      mload(0x40)\n      dup1\n      swap2\n      sub\n      swap1\n      revert\n        /* \"@openzeppelin/contracts/utils/ReentrancyGuard.sol\":2698:2784  if (_status == ENTERED) {... */\n    tag_264:\n        /* \"@openzeppelin/contracts/utils/ReentrancyGuard.sol\":1899:1900  2 */\n      0x02\n        /* \"@openzeppelin/contracts/utils/ReentrancyGuard.sol\":2858:2865  _status */\n      0x01\n        /* \"@openzeppelin/contracts/utils/ReentrancyGuard.sol\":2858:2875  _status = ENTERED */\n      dup2\n      swap1\n      sstore\n      pop\n        /* \"@openzeppelin/contracts/utils/ReentrancyGuard.sol\":2575:2882  function _nonReentrantBefore() private {... */\n      jump\t// out\n        /* \"@openzeppelin/contracts/utils/Pausable.sol\":2002:2130  function _requireNotPaused() internal view virtual {... */\n    tag_127:\n        /* \"@openzeppelin/contracts/utils/Pausable.sol\":2067:2075  paused() */\n      tag_266\n        /* \"@openzeppelin/contracts/utils/Pausable.sol\":2067:2073  paused */\n      tag_60\n        /* \"@openzeppelin/contracts/utils/Pausable.sol\":2067:2075  paused() */\n      jump\t// in\n    tag_266:\n        /* \"@openzeppelin/contracts/utils/Pausable.sol\":2063:2124  if (paused()) {... */\n      iszero\n      tag_267\n      jumpi\n        /* \"@openzeppelin/contracts/utils/Pausable.sol\":2098:2113  EnforcedPause() */\n      mload(0x40)\n      0xd93c066500000000000000000000000000000000000000000000000000000000\n      dup2\n      mstore\n      0x04\n      add\n      mload(0x40)\n      dup1\n      swap2\n      sub\n      swap1\n      revert\n        /* \"@openzeppelin/contracts/utils/Pausable.sol\":2063:2124  if (paused()) {... */\n    tag_267:\n        /* \"@openzeppelin/contracts/utils/Pausable.sol\":2002:2130  function _requireNotPaused() internal view virtual {... */\n      jump\t// out\n        /* \"@openzeppelin/contracts/utils/ReentrancyGuard.sol\":2888:3096  function _nonReentrantAfter() private {... */\n    tag_143:\n        /* \"@openzeppelin/contracts/utils/ReentrancyGuard.sol\":1857:1858  1 */\n      0x01\n        /* \"@openzeppelin/contracts/utils/ReentrancyGuard.sol\":3068:3075  _status */\n      dup1\n        /* \"@openzeppelin/contracts/utils/ReentrancyGuard.sol\":3068:3089  _status = NOT_ENTERED */\n      dup2\n      swap1\n      sstore\n      pop\n        /* \"@openzeppelin/contracts/utils/ReentrancyGuard.sol\":2888:3096  function _nonReentrantAfter() private {... */\n      jump\t// out\n        /* \"@openzeppelin/contracts/access/Ownable.sol\":1796:1958  function _checkOwner() internal view virtual {... */\n    tag_146:\n        /* \"@openzeppelin/contracts/access/Ownable.sol\":1866:1878  _msgSender() */\n      tag_270\n        /* \"@openzeppelin/contracts/access/Ownable.sol\":1866:1876  _msgSender */\n      tag_271\n        /* \"@openzeppelin/contracts/access/Ownable.sol\":1866:1878  _msgSender() */\n      jump\t// in\n    tag_270:\n        /* \"@openzeppelin/contracts/access/Ownable.sol\":1855:1878  owner() != _msgSender() */\n      0xffffffffffffffffffffffffffffffffffffffff\n      and\n        /* \"@openzeppelin/contracts/access/Ownable.sol\":1855:1862  owner() */\n      tag_272\n        /* \"@openzeppelin/contracts/access/Ownable.sol\":1855:1860  owner */\n      tag_72\n        /* \"@openzeppelin/contracts/access/Ownable.sol\":1855:1862  owner() */\n      jump\t// in\n    tag_272:\n        /* \"@openzeppelin/contracts/access/Ownable.sol\":1855:1878  owner() != _msgSender() */\n      0xffffffffffffffffffffffffffffffffffffffff\n      and\n      eq\n        /* \"@openzeppelin/contracts/access/Ownable.sol\":1851:1952  if (owner() != _msgSender()) {... */\n      tag_273\n      jumpi\n        /* \"@openzeppelin/contracts/access/Ownable.sol\":1928:1940  _msgSender() */\n      tag_274\n        /* \"@openzeppelin/contracts/access/Ownable.sol\":1928:1938  _msgSender */\n      tag_271\n        /* \"@openzeppelin/contracts/access/Ownable.sol\":1928:1940  _msgSender() */\n      jump\t// in\n    tag_274:\n        /* \"@openzeppelin/contracts/access/Ownable.sol\":1901:1941  OwnableUnauthorizedAccount(_msgSender()) */\n      mload(0x40)\n      0x118cdaa700000000000000000000000000000000000000000000000000000000\n      dup2\n      mstore\n      0x04\n      add\n      tag_275\n      swap2\n      swap1\n      tag_74\n      jump\t// in\n    tag_275:\n      mload(0x40)\n      dup1\n      swap2\n      sub\n      swap1\n      revert\n        /* \"@openzeppelin/contracts/access/Ownable.sol\":1851:1952  if (owner() != _msgSender()) {... */\n    tag_273:\n        /* \"@openzeppelin/contracts/access/Ownable.sol\":1796:1958  function _checkOwner() internal view virtual {... */\n      jump\t// out\n        /* \"@openzeppelin/contracts/utils/Pausable.sol\":2710:2827  function _unpause() internal virtual whenPaused {... */\n    tag_149:\n        /* \"@openzeppelin/contracts/utils/Pausable.sol\":1721:1737  _requirePaused() */\n      tag_277\n        /* \"@openzeppelin/contracts/utils/Pausable.sol\":1721:1735  _requirePaused */\n      tag_278\n        /* \"@openzeppelin/contracts/utils/Pausable.sol\":1721:1737  _requirePaused() */\n      jump\t// in\n    tag_277:\n        /* \"@openzeppelin/contracts/utils/Pausable.sol\":2778:2783  false */\n      0x00\n        /* \"@openzeppelin/contracts/utils/Pausable.sol\":2768:2775  _paused */\n      0x02\n      0x00\n        /* \"@openzeppelin/contracts/utils/Pausable.sol\":2768:2783  _paused = false */\n      0x0100\n      exp\n      dup2\n      sload\n      dup2\n      0xff\n      mul\n      not\n      and\n      swap1\n      dup4\n      iszero\n      iszero\n      mul\n      or\n      swap1\n      sstore\n      pop\n        /* \"@openzeppelin/contracts/utils/Pausable.sol\":2798:2820  Unpaused(_msgSender()) */\n      0x5db9ee0a495bf2e6ff9c91a7834c1ba4fdd244a5e8aa4e537bd38aeae4b073aa\n        /* \"@openzeppelin/contracts/utils/Pausable.sol\":2807:2819  _msgSender() */\n      tag_280\n        /* \"@openzeppelin/contracts/utils/Pausable.sol\":2807:2817  _msgSender */\n      tag_271\n        /* \"@openzeppelin/contracts/utils/Pausable.sol\":2807:2819  _msgSender() */\n      jump\t// in\n    tag_280:\n        /* \"@openzeppelin/contracts/utils/Pausable.sol\":2798:2820  Unpaused(_msgSender()) */\n      mload(0x40)\n      tag_281\n      swap2\n      swap1\n      tag_74\n      jump\t// in\n    tag_281:\n      mload(0x40)\n      dup1\n      swap2\n      sub\n      swap1\n      log1\n        /* \"@openzeppelin/contracts/utils/Pausable.sol\":2710:2827  function _unpause() internal virtual whenPaused {... */\n      jump\t// out\n        /* \"@openzeppelin/contracts/access/Ownable.sol\":2912:3099  function _transferOwnership(address newOwner) internal virtual {... */\n    tag_202:\n        /* \"@openzeppelin/contracts/access/Ownable.sol\":2985:3001  address oldOwner */\n      0x00\n        /* \"@openzeppelin/contracts/access/Ownable.sol\":3004:3010  _owner */\n      dup1\n      0x00\n      swap1\n      sload\n      swap1\n      0x0100\n      exp\n      swap1\n      div\n      0xffffffffffffffffffffffffffffffffffffffff\n      and\n        /* \"@openzeppelin/contracts/access/Ownable.sol\":2985:3010  address oldOwner = _owner */\n      swap1\n      pop\n        /* \"@openzeppelin/contracts/access/Ownable.sol\":3029:3037  newOwner */\n      dup2\n        /* \"@openzeppelin/contracts/access/Ownable.sol\":3020:3026  _owner */\n      0x00\n      dup1\n        /* \"@openzeppelin/contracts/access/Ownable.sol\":3020:3037  _owner = newOwner */\n      0x0100\n      exp\n      dup2\n      sload\n      dup2\n      0xffffffffffffffffffffffffffffffffffffffff\n      mul\n      not\n      and\n      swap1\n      dup4\n      0xffffffffffffffffffffffffffffffffffffffff\n      and\n      mul\n      or\n      swap1\n      sstore\n      pop\n        /* \"@openzeppelin/contracts/access/Ownable.sol\":3083:3091  newOwner */\n      dup2\n        /* \"@openzeppelin/contracts/access/Ownable.sol\":3052:3092  OwnershipTransferred(oldOwner, newOwner) */\n      0xffffffffffffffffffffffffffffffffffffffff\n      and\n        /* \"@openzeppelin/contracts/access/Ownable.sol\":3073:3081  oldOwner */\n      dup2\n        /* \"@openzeppelin/contracts/access/Ownable.sol\":3052:3092  OwnershipTransferred(oldOwner, newOwner) */\n      0xffffffffffffffffffffffffffffffffffffffff\n      and\n      0x8be0079c531659141344cd1fd0a4f28419497f9722a3daafe3b4186f6b6457e0\n      mload(0x40)\n      mload(0x40)\n      dup1\n      swap2\n      sub\n      swap1\n      log3\n        /* \"@openzeppelin/contracts/access/Ownable.sol\":2975:3099  {... */\n      pop\n        /* \"@openzeppelin/contracts/access/Ownable.sol\":2912:3099  function _transferOwnership(address newOwner) internal virtual {... */\n      pop\n      jump\t// out\n        /* \"@openzeppelin/contracts/utils/Pausable.sol\":2463:2578  function _pause() internal virtual whenNotPaused {... */\n    tag_207:\n        /* \"@openzeppelin/contracts/utils/Pausable.sol\":1474:1493  _requireNotPaused() */\n      tag_284\n        /* \"@openzeppelin/contracts/utils/Pausable.sol\":1474:1491  _requireNotPaused */\n      tag_127\n        /* \"@openzeppelin/contracts/utils/Pausable.sol\":1474:1493  _requireNotPaused() */\n      jump\t// in\n    tag_284:\n        /* \"@openzeppelin/contracts/utils/Pausable.sol\":2532:2536  true */\n      0x01\n        /* \"@openzeppelin/contracts/utils/Pausable.sol\":2522:2529  _paused */\n      0x02\n      0x00\n        /* \"@openzeppelin/contracts/utils/Pausable.sol\":2522:2536  _paused = true */\n      0x0100\n      exp\n      dup2\n      sload\n      dup2\n      0xff\n      mul\n      not\n      and\n      swap1\n      dup4\n      iszero\n      iszero\n      mul\n      or\n      swap1\n      sstore\n      pop\n        /* \"@openzeppelin/contracts/utils/Pausable.sol\":2551:2571  Paused(_msgSender()) */\n      0x62e78cea01bee320cd4e420270b5ea74000d11b0c9f74754ebdbfc544b05a258\n        /* \"@openzeppelin/contracts/utils/Pausable.sol\":2558:2570  _msgSender() */\n      tag_286\n        /* \"@openzeppelin/contracts/utils/Pausable.sol\":2558:2568  _msgSender */\n      tag_271\n        /* \"@openzeppelin/contracts/utils/Pausable.sol\":2558:2570  _msgSender() */\n      jump\t// in\n    tag_286:\n        /* \"@openzeppelin/contracts/utils/Pausable.sol\":2551:2571  Paused(_msgSender()) */\n      mload(0x40)\n      tag_287\n      swap2\n      swap1\n      tag_74\n      jump\t// in\n    tag_287:\n      mload(0x40)\n      dup1\n      swap2\n      sub\n      swap1\n      log1\n        /* \"@openzeppelin/contracts/utils/Pausable.sol\":2463:2578  function _pause() internal virtual whenNotPaused {... */\n      jump\t// out\n        /* \"@openzeppelin/contracts/utils/Context.sol\":656:752  function _msgSender() internal view virtual returns (address) {... */\n    tag_271:\n        /* \"@openzeppelin/contracts/utils/Context.sol\":709:716  address */\n      0x00\n        /* \"@openzeppelin/contracts/utils/Context.sol\":735:745  msg.sender */\n      caller\n        /* \"@openzeppelin/contracts/utils/Context.sol\":728:745  return msg.sender */\n      swap1\n      pop\n        /* \"@openzeppelin/contracts/utils/Context.sol\":656:752  function _msgSender() internal view virtual returns (address) {... */\n      swap1\n      jump\t// out\n        /* \"@openzeppelin/contracts/utils/Pausable.sol\":2202:2328  function _requirePaused() internal view virtual {... */\n    tag_278:\n        /* \"@openzeppelin/contracts/utils/Pausable.sol\":2265:2273  paused() */\n      tag_290\n        /* \"@openzeppelin/contracts/utils/Pausable.sol\":2265:2271  paused */\n      tag_60\n        /* \"@openzeppelin/contracts/utils/Pausable.sol\":2265:2273  paused() */\n      jump\t// in\n    tag_290:\n        /* \"@openzeppelin/contracts/utils/Pausable.sol\":2260:2322  if (!paused()) {... */\n      tag_291\n      jumpi\n        /* \"@openzeppelin/contracts/utils/Pausable.sol\":2296:2311  ExpectedPause() */\n      mload(0x40)\n      0x8dfc202b00000000000000000000000000000000000000000000000000000000\n      dup2\n      mstore\n      0x04\n      add\n      mload(0x40)\n      dup1\n      swap2\n      sub\n      swap1\n      revert\n        /* \"@openzeppelin/contracts/utils/Pausable.sol\":2260:2322  if (!paused()) {... */\n    tag_291:\n        /* \"@openzeppelin/contracts/utils/Pausable.sol\":2202:2328  function _requirePaused() internal view virtual {... */\n      jump\t// out\n    tag_92:\n      mload(0x40)\n      dup1\n      0x0100\n      add\n      0x40\n      mstore\n      dup1\n      0x00\n      dup1\n      not\n      and\n      dup2\n      mstore\n      0x20\n      add\n      0x00\n      dup1\n      not\n      and\n      dup2\n      mstore\n      0x20\n      add\n      and(0xffffffffffffffffffffffffffffffffffffffff, 0x00)\n      dup2\n      mstore\n      0x20\n      add\n      and(0xffffffffffffffffffffffffffffffffffffffff, 0x00)\n      dup2\n      mstore\n      0x20\n      add\n      0x60\n      dup2\n      mstore\n      0x20\n      add\n      0x00\n      dup2\n      mstore\n      0x20\n      add\n      iszero(iszero(0x00))\n      dup2\n      mstore\n      0x20\n      add\n      0x60\n      dup2\n      mstore\n      pop\n      swap1\n      jump\t// out\n        /* \"#utility.yul\":88:205   */\n    tag_293:\n        /* \"#utility.yul\":197:198   */\n      0x00\n        /* \"#utility.yul\":194:195   */\n      dup1\n        /* \"#utility.yul\":187:199   */\n      revert\n        /* \"#utility.yul\":211:328   */\n    tag_294:\n        /* \"#utility.yul\":320:321   */\n      0x00\n        /* \"#utility.yul\":317:318   */\n      dup1\n        /* \"#utility.yul\":310:322   */\n      revert\n        /* \"#utility.yul\":334:411   */\n    tag_295:\n        /* \"#utility.yul\":371:378   */\n      0x00\n        /* \"#utility.yul\":400:405   */\n      dup2\n        /* \"#utility.yul\":389:405   */\n      swap1\n      pop\n        /* \"#utility.yul\":334:411   */\n      swap2\n      swap1\n      pop\n      jump\t// out\n        /* \"#utility.yul\":417:539   */\n    tag_296:\n        /* \"#utility.yul\":490:514   */\n      tag_399\n        /* \"#utility.yul\":508:513   */\n      dup2\n        /* \"#utility.yul\":490:514   */\n      tag_295\n      jump\t// in\n    tag_399:\n        /* \"#utility.yul\":483:488   */\n      dup2\n        /* \"#utility.yul\":480:515   */\n      eq\n        /* \"#utility.yul\":470:533   */\n      tag_400\n      jumpi\n        /* \"#utility.yul\":529:530   */\n      0x00\n        /* \"#utility.yul\":526:527   */\n      dup1\n        /* \"#utility.yul\":519:531   */\n      revert\n        /* \"#utility.yul\":470:533   */\n    tag_400:\n        /* \"#utility.yul\":417:539   */\n      pop\n      jump\t// out\n        /* \"#utility.yul\":545:684   */\n    tag_297:\n        /* \"#utility.yul\":591:596   */\n      0x00\n        /* \"#utility.yul\":629:635   */\n      dup2\n        /* \"#utility.yul\":616:636   */\n      calldataload\n        /* \"#utility.yul\":607:636   */\n      swap1\n      pop\n        /* \"#utility.yul\":645:678   */\n      tag_402\n        /* \"#utility.yul\":672:677   */\n      dup2\n        /* \"#utility.yul\":645:678   */\n      tag_296\n      jump\t// in\n    tag_402:\n        /* \"#utility.yul\":545:684   */\n      swap3\n      swap2\n      pop\n      pop\n      jump\t// out\n        /* \"#utility.yul\":690:1019   */\n    tag_25:\n        /* \"#utility.yul\":749:755   */\n      0x00\n        /* \"#utility.yul\":798:800   */\n      0x20\n        /* \"#utility.yul\":786:795   */\n      dup3\n        /* \"#utility.yul\":777:784   */\n      dup5\n        /* \"#utility.yul\":773:796   */\n      sub\n        /* \"#utility.yul\":769:801   */\n      slt\n        /* \"#utility.yul\":766:885   */\n      iszero\n      tag_404\n      jumpi\n        /* \"#utility.yul\":804:883   */\n      tag_405\n      tag_293\n      jump\t// in\n    tag_405:\n        /* \"#utility.yul\":766:885   */\n    tag_404:\n        /* \"#utility.yul\":924:925   */\n      0x00\n        /* \"#utility.yul\":949:1002   */\n      tag_406\n        /* \"#utility.yul\":994:1001   */\n      dup5\n        /* \"#utility.yul\":985:991   */\n      dup3\n        /* \"#utility.yul\":974:983   */\n      dup6\n        /* \"#utility.yul\":970:992   */\n      add\n        /* \"#utility.yul\":949:1002   */\n      tag_297\n      jump\t// in\n    tag_406:\n        /* \"#utility.yul\":939:1002   */\n      swap2\n      pop\n        /* \"#utility.yul\":895:1012   */\n      pop\n        /* \"#utility.yul\":690:1019   */\n      swap3\n      swap2\n      pop\n      pop\n      jump\t// out\n        /* \"#utility.yul\":1025:1133   */\n    tag_298:\n        /* \"#utility.yul\":1102:1126   */\n      tag_408\n        /* \"#utility.yul\":1120:1125   */\n      dup2\n        /* \"#utility.yul\":1102:1126   */\n      tag_295\n      jump\t// in\n    tag_408:\n        /* \"#utility.yul\":1097:1100   */\n      dup3\n        /* \"#utility.yul\":1090:1127   */\n      mstore\n        /* \"#utility.yul\":1025:1133   */\n      pop\n      pop\n      jump\t// out\n        /* \"#utility.yul\":1139:1265   */\n    tag_299:\n        /* \"#utility.yul\":1176:1183   */\n      0x00\n        /* \"#utility.yul\":1216:1258   */\n      0xffffffffffffffffffffffffffffffffffffffff\n        /* \"#utility.yul\":1209:1214   */\n      dup3\n        /* \"#utility.yul\":1205:1259   */\n      and\n        /* \"#utility.yul\":1194:1259   */\n      swap1\n      pop\n        /* \"#utility.yul\":1139:1265   */\n      swap2\n      swap1\n      pop\n      jump\t// out\n        /* \"#utility.yul\":1271:1367   */\n    tag_300:\n        /* \"#utility.yul\":1308:1315   */\n      0x00\n        /* \"#utility.yul\":1337:1361   */\n      tag_411\n        /* \"#utility.yul\":1355:1360   */\n      dup3\n        /* \"#utility.yul\":1337:1361   */\n      tag_299\n      jump\t// in\n    tag_411:\n        /* \"#utility.yul\":1326:1361   */\n      swap1\n      pop\n        /* \"#utility.yul\":1271:1367   */\n      swap2\n      swap1\n      pop\n      jump\t// out\n        /* \"#utility.yul\":1373:1481   */\n    tag_301:\n        /* \"#utility.yul\":1450:1474   */\n      tag_413\n        /* \"#utility.yul\":1468:1473   */\n      dup2\n        /* \"#utility.yul\":1450:1474   */\n      tag_300\n      jump\t// in\n    tag_413:\n        /* \"#utility.yul\":1445:1448   */\n      dup3\n        /* \"#utility.yul\":1438:1475   */\n      mstore\n        /* \"#utility.yul\":1373:1481   */\n      pop\n      pop\n      jump\t// out\n        /* \"#utility.yul\":1487:1585   */\n    tag_302:\n        /* \"#utility.yul\":1538:1544   */\n      0x00\n        /* \"#utility.yul\":1572:1577   */\n      dup2\n        /* \"#utility.yul\":1566:1578   */\n      mload\n        /* \"#utility.yul\":1556:1578   */\n      swap1\n      pop\n        /* \"#utility.yul\":1487:1585   */\n      swap2\n      swap1\n      pop\n      jump\t// out\n        /* \"#utility.yul\":1591:1749   */\n    tag_303:\n        /* \"#utility.yul\":1664:1675   */\n      0x00\n        /* \"#utility.yul\":1698:1704   */\n      dup3\n        /* \"#utility.yul\":1693:1696   */\n      dup3\n        /* \"#utility.yul\":1686:1705   */\n      mstore\n        /* \"#utility.yul\":1738:1742   */\n      0x20\n        /* \"#utility.yul\":1733:1736   */\n      dup3\n        /* \"#utility.yul\":1729:1743   */\n      add\n        /* \"#utility.yul\":1714:1743   */\n      swap1\n      pop\n        /* \"#utility.yul\":1591:1749   */\n      swap3\n      swap2\n      pop\n      pop\n      jump\t// out\n        /* \"#utility.yul\":1755:1894   */\n    tag_304:\n        /* \"#utility.yul\":1844:1850   */\n      dup3\n        /* \"#utility.yul\":1839:1842   */\n      dup2\n        /* \"#utility.yul\":1834:1837   */\n      dup4\n        /* \"#utility.yul\":1828:1851   */\n      mcopy\n        /* \"#utility.yul\":1885:1886   */\n      0x00\n        /* \"#utility.yul\":1876:1882   */\n      dup4\n        /* \"#utility.yul\":1871:1874   */\n      dup4\n        /* \"#utility.yul\":1867:1883   */\n      add\n        /* \"#utility.yul\":1860:1887   */\n      mstore\n        /* \"#utility.yul\":1755:1894   */\n      pop\n      pop\n      pop\n      jump\t// out\n        /* \"#utility.yul\":1900:2002   */\n    tag_305:\n        /* \"#utility.yul\":1941:1947   */\n      0x00\n        /* \"#utility.yul\":1992:1994   */\n      0x1f\n        /* \"#utility.yul\":1988:1995   */\n      not\n        /* \"#utility.yul\":1983:1985   */\n      0x1f\n        /* \"#utility.yul\":1976:1981   */\n      dup4\n        /* \"#utility.yul\":1972:1986   */\n      add\n        /* \"#utility.yul\":1968:1996   */\n      and\n        /* \"#utility.yul\":1958:1996   */\n      swap1\n      pop\n        /* \"#utility.yul\":1900:2002   */\n      swap2\n      swap1\n      pop\n      jump\t// out\n        /* \"#utility.yul\":2008:2361   */\n    tag_306:\n        /* \"#utility.yul\":2084:2087   */\n      0x00\n        /* \"#utility.yul\":2112:2150   */\n      tag_419\n        /* \"#utility.yul\":2144:2149   */\n      dup3\n        /* \"#utility.yul\":2112:2150   */\n      tag_302\n      jump\t// in\n    tag_419:\n        /* \"#utility.yul\":2166:2226   */\n      tag_420\n        /* \"#utility.yul\":2219:2225   */\n      dup2\n        /* \"#utility.yul\":2214:2217   */\n      dup6\n        /* \"#utility.yul\":2166:2226   */\n      tag_303\n      jump\t// in\n    tag_420:\n        /* \"#utility.yul\":2159:2226   */\n      swap4\n      pop\n        /* \"#utility.yul\":2235:2300   */\n      tag_421\n        /* \"#utility.yul\":2293:2299   */\n      dup2\n        /* \"#utility.yul\":2288:2291   */\n      dup6\n        /* \"#utility.yul\":2281:2285   */\n      0x20\n        /* \"#utility.yul\":2274:2279   */\n      dup7\n        /* \"#utility.yul\":2270:2286   */\n      add\n        /* \"#utility.yul\":2235:2300   */\n      tag_304\n      jump\t// in\n    tag_421:\n        /* \"#utility.yul\":2325:2354   */\n      tag_422\n        /* \"#utility.yul\":2347:2353   */\n      dup2\n        /* \"#utility.yul\":2325:2354   */\n      tag_305\n      jump\t// in\n    tag_422:\n        /* \"#utility.yul\":2320:2323   */\n      dup5\n        /* \"#utility.yul\":2316:2355   */\n      add\n        /* \"#utility.yul\":2309:2355   */\n      swap2\n      pop\n        /* \"#utility.yul\":2088:2361   */\n      pop\n        /* \"#utility.yul\":2008:2361   */\n      swap3\n      swap2\n      pop\n      pop\n      jump\t// out\n        /* \"#utility.yul\":2367:2444   */\n    tag_307:\n        /* \"#utility.yul\":2404:2411   */\n      0x00\n        /* \"#utility.yul\":2433:2438   */\n      dup2\n        /* \"#utility.yul\":2422:2438   */\n      swap1\n      pop\n        /* \"#utility.yul\":2367:2444   */\n      swap2\n      swap1\n      pop\n      jump\t// out\n        /* \"#utility.yul\":2450:2558   */\n    tag_308:\n        /* \"#utility.yul\":2527:2551   */\n      tag_425\n        /* \"#utility.yul\":2545:2550   */\n      dup2\n        /* \"#utility.yul\":2527:2551   */\n      tag_307\n      jump\t// in\n    tag_425:\n        /* \"#utility.yul\":2522:2525   */\n      dup3\n        /* \"#utility.yul\":2515:2552   */\n      mstore\n        /* \"#utility.yul\":2450:2558   */\n      pop\n      pop\n      jump\t// out\n        /* \"#utility.yul\":2564:2654   */\n    tag_309:\n        /* \"#utility.yul\":2598:2605   */\n      0x00\n        /* \"#utility.yul\":2641:2646   */\n      dup2\n        /* \"#utility.yul\":2634:2647   */\n      iszero\n        /* \"#utility.yul\":2627:2648   */\n      iszero\n        /* \"#utility.yul\":2616:2648   */\n      swap1\n      pop\n        /* \"#utility.yul\":2564:2654   */\n      swap2\n      swap1\n      pop\n      jump\t// out\n        /* \"#utility.yul\":2660:2759   */\n    tag_310:\n        /* \"#utility.yul\":2731:2752   */\n      tag_428\n        /* \"#utility.yul\":2746:2751   */\n      dup2\n        /* \"#utility.yul\":2731:2752   */\n      tag_309\n      jump\t// in\n    tag_428:\n        /* \"#utility.yul\":2726:2729   */\n      dup3\n        /* \"#utility.yul\":2719:2753   */\n      mstore\n        /* \"#utility.yul\":2660:2759   */\n      pop\n      pop\n      jump\t// out\n        /* \"#utility.yul\":2827:4576   */\n    tag_311:\n        /* \"#utility.yul\":2944:2947   */\n      0x00\n        /* \"#utility.yul\":2980:2986   */\n      0x0100\n        /* \"#utility.yul\":2975:2978   */\n      dup4\n        /* \"#utility.yul\":2971:2987   */\n      add\n        /* \"#utility.yul\":3075:3079   */\n      0x00\n        /* \"#utility.yul\":3068:3073   */\n      dup4\n        /* \"#utility.yul\":3064:3080   */\n      add\n        /* \"#utility.yul\":3058:3081   */\n      mload\n        /* \"#utility.yul\":3094:3157   */\n      tag_430\n        /* \"#utility.yul\":3151:3155   */\n      0x00\n        /* \"#utility.yul\":3146:3149   */\n      dup7\n        /* \"#utility.yul\":3142:3156   */\n      add\n        /* \"#utility.yul\":3128:3140   */\n      dup3\n        /* \"#utility.yul\":3094:3157   */\n      tag_298\n      jump\t// in\n    tag_430:\n        /* \"#utility.yul\":2997:3167   */\n      pop\n        /* \"#utility.yul\":3254:3258   */\n      0x20\n        /* \"#utility.yul\":3247:3252   */\n      dup4\n        /* \"#utility.yul\":3243:3259   */\n      add\n        /* \"#utility.yul\":3237:3260   */\n      mload\n        /* \"#utility.yul\":3273:3336   */\n      tag_431\n        /* \"#utility.yul\":3330:3334   */\n      0x20\n        /* \"#utility.yul\":3325:3328   */\n      dup7\n        /* \"#utility.yul\":3321:3335   */\n      add\n        /* \"#utility.yul\":3307:3319   */\n      dup3\n        /* \"#utility.yul\":3273:3336   */\n      tag_298\n      jump\t// in\n    tag_431:\n        /* \"#utility.yul\":3177:3346   */\n      pop\n        /* \"#utility.yul\":3430:3434   */\n      0x40\n        /* \"#utility.yul\":3423:3428   */\n      dup4\n        /* \"#utility.yul\":3419:3435   */\n      add\n        /* \"#utility.yul\":3413:3436   */\n      mload\n        /* \"#utility.yul\":3449:3512   */\n      tag_432\n        /* \"#utility.yul\":3506:3510   */\n      0x40\n        /* \"#utility.yul\":3501:3504   */\n      dup7\n        /* \"#utility.yul\":3497:3511   */\n      add\n        /* \"#utility.yul\":3483:3495   */\n      dup3\n        /* \"#utility.yul\":3449:3512   */\n      tag_301\n      jump\t// in\n    tag_432:\n        /* \"#utility.yul\":3356:3522   */\n      pop\n        /* \"#utility.yul\":3609:3613   */\n      0x60\n        /* \"#utility.yul\":3602:3607   */\n      dup4\n        /* \"#utility.yul\":3598:3614   */\n      add\n        /* \"#utility.yul\":3592:3615   */\n      mload\n        /* \"#utility.yul\":3628:3691   */\n      tag_433\n        /* \"#utility.yul\":3685:3689   */\n      0x60\n        /* \"#utility.yul\":3680:3683   */\n      dup7\n        /* \"#utility.yul\":3676:3690   */\n      add\n        /* \"#utility.yul\":3662:3674   */\n      dup3\n        /* \"#utility.yul\":3628:3691   */\n      tag_301\n      jump\t// in\n    tag_433:\n        /* \"#utility.yul\":3532:3701   */\n      pop\n        /* \"#utility.yul\":3795:3799   */\n      0x80\n        /* \"#utility.yul\":3788:3793   */\n      dup4\n        /* \"#utility.yul\":3784:3800   */\n      add\n        /* \"#utility.yul\":3778:3801   */\n      mload\n        /* \"#utility.yul\":3848:3851   */\n      dup5\n        /* \"#utility.yul\":3842:3846   */\n      dup3\n        /* \"#utility.yul\":3838:3852   */\n      sub\n        /* \"#utility.yul\":3831:3835   */\n      0x80\n        /* \"#utility.yul\":3826:3829   */\n      dup7\n        /* \"#utility.yul\":3822:3836   */\n      add\n        /* \"#utility.yul\":3815:3853   */\n      mstore\n        /* \"#utility.yul\":3874:3945   */\n      tag_434\n        /* \"#utility.yul\":3940:3944   */\n      dup3\n        /* \"#utility.yul\":3926:3938   */\n      dup3\n        /* \"#utility.yul\":3874:3945   */\n      tag_306\n      jump\t// in\n    tag_434:\n        /* \"#utility.yul\":3866:3945   */\n      swap2\n      pop\n        /* \"#utility.yul\":3711:3956   */\n      pop\n        /* \"#utility.yul\":4043:4047   */\n      0xa0\n        /* \"#utility.yul\":4036:4041   */\n      dup4\n        /* \"#utility.yul\":4032:4048   */\n      add\n        /* \"#utility.yul\":4026:4049   */\n      mload\n        /* \"#utility.yul\":4062:4125   */\n      tag_435\n        /* \"#utility.yul\":4119:4123   */\n      0xa0\n        /* \"#utility.yul\":4114:4117   */\n      dup7\n        /* \"#utility.yul\":4110:4124   */\n      add\n        /* \"#utility.yul\":4096:4108   */\n      dup3\n        /* \"#utility.yul\":4062:4125   */\n      tag_308\n      jump\t// in\n    tag_435:\n        /* \"#utility.yul\":3966:4135   */\n      pop\n        /* \"#utility.yul\":4219:4223   */\n      0xc0\n        /* \"#utility.yul\":4212:4217   */\n      dup4\n        /* \"#utility.yul\":4208:4224   */\n      add\n        /* \"#utility.yul\":4202:4225   */\n      mload\n        /* \"#utility.yul\":4238:4295   */\n      tag_436\n        /* \"#utility.yul\":4289:4293   */\n      0xc0\n        /* \"#utility.yul\":4284:4287   */\n      dup7\n        /* \"#utility.yul\":4280:4294   */\n      add\n        /* \"#utility.yul\":4266:4278   */\n      dup3\n        /* \"#utility.yul\":4238:4295   */\n      tag_310\n      jump\t// in\n    tag_436:\n        /* \"#utility.yul\":4145:4305   */\n      pop\n        /* \"#utility.yul\":4388:4392   */\n      0xe0\n        /* \"#utility.yul\":4381:4386   */\n      dup4\n        /* \"#utility.yul\":4377:4393   */\n      add\n        /* \"#utility.yul\":4371:4394   */\n      mload\n        /* \"#utility.yul\":4441:4444   */\n      dup5\n        /* \"#utility.yul\":4435:4439   */\n      dup3\n        /* \"#utility.yul\":4431:4445   */\n      sub\n        /* \"#utility.yul\":4424:4428   */\n      0xe0\n        /* \"#utility.yul\":4419:4422   */\n      dup7\n        /* \"#utility.yul\":4415:4429   */\n      add\n        /* \"#utility.yul\":4408:4446   */\n      mstore\n        /* \"#utility.yul\":4467:4538   */\n      tag_437\n        /* \"#utility.yul\":4533:4537   */\n      dup3\n        /* \"#utility.yul\":4519:4531   */\n      dup3\n        /* \"#utility.yul\":4467:4538   */\n      tag_306\n      jump\t// in\n    tag_437:\n        /* \"#utility.yul\":4459:4538   */\n      swap2\n      pop\n        /* \"#utility.yul\":4315:4549   */\n      pop\n        /* \"#utility.yul\":4566:4570   */\n      dup1\n        /* \"#utility.yul\":4559:4570   */\n      swap2\n      pop\n        /* \"#utility.yul\":2949:4576   */\n      pop\n        /* \"#utility.yul\":2827:4576   */\n      swap3\n      swap2\n      pop\n      pop\n      jump\t// out\n        /* \"#utility.yul\":4582:4951   */\n    tag_28:\n        /* \"#utility.yul\":4723:4727   */\n      0x00\n        /* \"#utility.yul\":4761:4763   */\n      0x20\n        /* \"#utility.yul\":4750:4759   */\n      dup3\n        /* \"#utility.yul\":4746:4764   */\n      add\n        /* \"#utility.yul\":4738:4764   */\n      swap1\n      pop\n        /* \"#utility.yul\":4810:4819   */\n      dup2\n        /* \"#utility.yul\":4804:4808   */\n      dup2\n        /* \"#utility.yul\":4800:4820   */\n      sub\n        /* \"#utility.yul\":4796:4797   */\n      0x00\n        /* \"#utility.yul\":4785:4794   */\n      dup4\n        /* \"#utility.yul\":4781:4798   */\n      add\n        /* \"#utility.yul\":4774:4821   */\n      mstore\n        /* \"#utility.yul\":4838:4944   */\n      tag_439\n        /* \"#utility.yul\":4939:4943   */\n      dup2\n        /* \"#utility.yul\":4930:4936   */\n      dup5\n        /* \"#utility.yul\":4838:4944   */\n      tag_311\n      jump\t// in\n    tag_439:\n        /* \"#utility.yul\":4830:4944   */\n      swap1\n      pop\n        /* \"#utility.yul\":4582:4951   */\n      swap3\n      swap2\n      pop\n      pop\n      jump\t// out\n        /* \"#utility.yul\":4957:5079   */\n    tag_312:\n        /* \"#utility.yul\":5030:5054   */\n      tag_441\n        /* \"#utility.yul\":5048:5053   */\n      dup2\n        /* \"#utility.yul\":5030:5054   */\n      tag_300\n      jump\t// in\n    tag_441:\n        /* \"#utility.yul\":5023:5028   */\n      dup2\n        /* \"#utility.yul\":5020:5055   */\n      eq\n        /* \"#utility.yul\":5010:5073   */\n      tag_442\n      jumpi\n        /* \"#utility.yul\":5069:5070   */\n      0x00\n        /* \"#utility.yul\":5066:5067   */\n      dup1\n        /* \"#utility.yul\":5059:5071   */\n      revert\n        /* \"#utility.yul\":5010:5073   */\n    tag_442:\n        /* \"#utility.yul\":4957:5079   */\n      pop\n      jump\t// out\n        /* \"#utility.yul\":5085:5224   */\n    tag_313:\n        /* \"#utility.yul\":5131:5136   */\n      0x00\n        /* \"#utility.yul\":5169:5175   */\n      dup2\n        /* \"#utility.yul\":5156:5176   */\n      calldataload\n        /* \"#utility.yul\":5147:5176   */\n      swap1\n      pop\n        /* \"#utility.yul\":5185:5218   */\n      tag_444\n        /* \"#utility.yul\":5212:5217   */\n      dup2\n        /* \"#utility.yul\":5185:5218   */\n      tag_312\n      jump\t// in\n    tag_444:\n        /* \"#utility.yul\":5085:5224   */\n      swap3\n      swap2\n      pop\n      pop\n      jump\t// out\n        /* \"#utility.yul\":5230:5559   */\n    tag_31:\n        /* \"#utility.yul\":5289:5295   */\n      0x00\n        /* \"#utility.yul\":5338:5340   */\n      0x20\n        /* \"#utility.yul\":5326:5335   */\n      dup3\n        /* \"#utility.yul\":5317:5324   */\n      dup5\n        /* \"#utility.yul\":5313:5336   */\n      sub\n        /* \"#utility.yul\":5309:5341   */\n      slt\n        /* \"#utility.yul\":5306:5425   */\n      iszero\n      tag_446\n      jumpi\n        /* \"#utility.yul\":5344:5423   */\n      tag_447\n      tag_293\n      jump\t// in\n    tag_447:\n        /* \"#utility.yul\":5306:5425   */\n    tag_446:\n        /* \"#utility.yul\":5464:5465   */\n      0x00\n        /* \"#utility.yul\":5489:5542   */\n      tag_448\n        /* \"#utility.yul\":5534:5541   */\n      dup5\n        /* \"#utility.yul\":5525:5531   */\n      dup3\n        /* \"#utility.yul\":5514:5523   */\n      dup6\n        /* \"#utility.yul\":5510:5532   */\n      add\n        /* \"#utility.yul\":5489:5542   */\n      tag_313\n      jump\t// in\n    tag_448:\n        /* \"#utility.yul\":5479:5542   */\n      swap2\n      pop\n        /* \"#utility.yul\":5435:5552   */\n      pop\n        /* \"#utility.yul\":5230:5559   */\n      swap3\n      swap2\n      pop\n      pop\n      jump\t// out\n        /* \"#utility.yul\":5565:5683   */\n    tag_314:\n        /* \"#utility.yul\":5652:5676   */\n      tag_450\n        /* \"#utility.yul\":5670:5675   */\n      dup2\n        /* \"#utility.yul\":5652:5676   */\n      tag_307\n      jump\t// in\n    tag_450:\n        /* \"#utility.yul\":5647:5650   */\n      dup3\n        /* \"#utility.yul\":5640:5677   */\n      mstore\n        /* \"#utility.yul\":5565:5683   */\n      pop\n      pop\n      jump\t// out\n        /* \"#utility.yul\":5689:5911   */\n    tag_34:\n        /* \"#utility.yul\":5782:5786   */\n      0x00\n        /* \"#utility.yul\":5820:5822   */\n      0x20\n        /* \"#utility.yul\":5809:5818   */\n      dup3\n        /* \"#utility.yul\":5805:5823   */\n      add\n        /* \"#utility.yul\":5797:5823   */\n      swap1\n      pop\n        /* \"#utility.yul\":5833:5904   */\n      tag_452\n        /* \"#utility.yul\":5901:5902   */\n      0x00\n        /* \"#utility.yul\":5890:5899   */\n      dup4\n        /* \"#utility.yul\":5886:5903   */\n      add\n        /* \"#utility.yul\":5877:5883   */\n      dup5\n        /* \"#utility.yul\":5833:5904   */\n      tag_314\n      jump\t// in\n    tag_452:\n        /* \"#utility.yul\":5689:5911   */\n      swap3\n      swap2\n      pop\n      pop\n      jump\t// out\n        /* \"#utility.yul\":5917:5977   */\n    tag_315:\n        /* \"#utility.yul\":5945:5948   */\n      0x00\n        /* \"#utility.yul\":5966:5971   */\n      dup2\n        /* \"#utility.yul\":5959:5971   */\n      swap1\n      pop\n        /* \"#utility.yul\":5917:5977   */\n      swap2\n      swap1\n      pop\n      jump\t// out\n        /* \"#utility.yul\":5983:6125   */\n    tag_316:\n        /* \"#utility.yul\":6033:6042   */\n      0x00\n        /* \"#utility.yul\":6066:6119   */\n      tag_455\n        /* \"#utility.yul\":6084:6118   */\n      tag_456\n        /* \"#utility.yul\":6093:6117   */\n      tag_457\n        /* \"#utility.yul\":6111:6116   */\n      dup5\n        /* \"#utility.yul\":6093:6117   */\n      tag_299\n      jump\t// in\n    tag_457:\n        /* \"#utility.yul\":6084:6118   */\n      tag_315\n      jump\t// in\n    tag_456:\n        /* \"#utility.yul\":6066:6119   */\n      tag_299\n      jump\t// in\n    tag_455:\n        /* \"#utility.yul\":6053:6119   */\n      swap1\n      pop\n        /* \"#utility.yul\":5983:6125   */\n      swap2\n      swap1\n      pop\n      jump\t// out\n        /* \"#utility.yul\":6131:6257   */\n    tag_317:\n        /* \"#utility.yul\":6181:6190   */\n      0x00\n        /* \"#utility.yul\":6214:6251   */\n      tag_459\n        /* \"#utility.yul\":6245:6250   */\n      dup3\n        /* \"#utility.yul\":6214:6251   */\n      tag_316\n      jump\t// in\n    tag_459:\n        /* \"#utility.yul\":6201:6251   */\n      swap1\n      pop\n        /* \"#utility.yul\":6131:6257   */\n      swap2\n      swap1\n      pop\n      jump\t// out\n        /* \"#utility.yul\":6263:6407   */\n    tag_318:\n        /* \"#utility.yul\":6331:6340   */\n      0x00\n        /* \"#utility.yul\":6364:6401   */\n      tag_461\n        /* \"#utility.yul\":6395:6400   */\n      dup3\n        /* \"#utility.yul\":6364:6401   */\n      tag_317\n      jump\t// in\n    tag_461:\n        /* \"#utility.yul\":6351:6401   */\n      swap1\n      pop\n        /* \"#utility.yul\":6263:6407   */\n      swap2\n      swap1\n      pop\n      jump\t// out\n        /* \"#utility.yul\":6413:6580   */\n    tag_319:\n        /* \"#utility.yul\":6518:6573   */\n      tag_463\n        /* \"#utility.yul\":6567:6572   */\n      dup2\n        /* \"#utility.yul\":6518:6573   */\n      tag_318\n      jump\t// in\n    tag_463:\n        /* \"#utility.yul\":6513:6516   */\n      dup3\n        /* \"#utility.yul\":6506:6574   */\n      mstore\n        /* \"#utility.yul\":6413:6580   */\n      pop\n      pop\n      jump\t// out\n        /* \"#utility.yul\":6586:6844   */\n    tag_38:\n        /* \"#utility.yul\":6697:6701   */\n      0x00\n        /* \"#utility.yul\":6735:6737   */\n      0x20\n        /* \"#utility.yul\":6724:6733   */\n      dup3\n        /* \"#utility.yul\":6720:6738   */\n      add\n        /* \"#utility.yul\":6712:6738   */\n      swap1\n      pop\n        /* \"#utility.yul\":6748:6837   */\n      tag_465\n        /* \"#utility.yul\":6834:6835   */\n      0x00\n        /* \"#utility.yul\":6823:6832   */\n      dup4\n        /* \"#utility.yul\":6819:6836   */\n      add\n        /* \"#utility.yul\":6810:6816   */\n      dup5\n        /* \"#utility.yul\":6748:6837   */\n      tag_319\n      jump\t// in\n    tag_465:\n        /* \"#utility.yul\":6586:6844   */\n      swap3\n      swap2\n      pop\n      pop\n      jump\t// out\n        /* \"#utility.yul\":6850:6968   */\n    tag_320:\n        /* \"#utility.yul\":6937:6961   */\n      tag_467\n        /* \"#utility.yul\":6955:6960   */\n      dup2\n        /* \"#utility.yul\":6937:6961   */\n      tag_295\n      jump\t// in\n    tag_467:\n        /* \"#utility.yul\":6932:6935   */\n      dup3\n        /* \"#utility.yul\":6925:6962   */\n      mstore\n        /* \"#utility.yul\":6850:6968   */\n      pop\n      pop\n      jump\t// out\n        /* \"#utility.yul\":6974:7092   */\n    tag_321:\n        /* \"#utility.yul\":7061:7085   */\n      tag_469\n        /* \"#utility.yul\":7079:7084   */\n      dup2\n        /* \"#utility.yul\":7061:7085   */\n      tag_300\n      jump\t// in\n    tag_469:\n        /* \"#utility.yul\":7056:7059   */\n      dup3\n        /* \"#utility.yul\":7049:7086   */\n      mstore\n        /* \"#utility.yul\":6974:7092   */\n      pop\n      pop\n      jump\t// out\n        /* \"#utility.yul\":7098:7266   */\n    tag_322:\n        /* \"#utility.yul\":7181:7192   */\n      0x00\n        /* \"#utility.yul\":7215:7221   */\n      dup3\n        /* \"#utility.yul\":7210:7213   */\n      dup3\n        /* \"#utility.yul\":7203:7222   */\n      mstore\n        /* \"#utility.yul\":7255:7259   */\n      0x20\n        /* \"#utility.yul\":7250:7253   */\n      dup3\n        /* \"#utility.yul\":7246:7260   */\n      add\n        /* \"#utility.yul\":7231:7260   */\n      swap1\n      pop\n        /* \"#utility.yul\":7098:7266   */\n      swap3\n      swap2\n      pop\n      pop\n      jump\t// out\n        /* \"#utility.yul\":7272:7645   */\n    tag_323:\n        /* \"#utility.yul\":7358:7361   */\n      0x00\n        /* \"#utility.yul\":7386:7424   */\n      tag_472\n        /* \"#utility.yul\":7418:7423   */\n      dup3\n        /* \"#utility.yul\":7386:7424   */\n      tag_302\n      jump\t// in\n    tag_472:\n        /* \"#utility.yul\":7440:7510   */\n      tag_473\n        /* \"#utility.yul\":7503:7509   */\n      dup2\n        /* \"#utility.yul\":7498:7501   */\n      dup6\n        /* \"#utility.yul\":7440:7510   */\n      tag_322\n      jump\t// in\n    tag_473:\n        /* \"#utility.yul\":7433:7510   */\n      swap4\n      pop\n        /* \"#utility.yul\":7519:7584   */\n      tag_474\n        /* \"#utility.yul\":7577:7583   */\n      dup2\n        /* \"#utility.yul\":7572:7575   */\n      dup6\n        /* \"#utility.yul\":7565:7569   */\n      0x20\n        /* \"#utility.yul\":7558:7563   */\n      dup7\n        /* \"#utility.yul\":7554:7570   */\n      add\n        /* \"#utility.yul\":7519:7584   */\n      tag_304\n      jump\t// in\n    tag_474:\n        /* \"#utility.yul\":7609:7638   */\n      tag_475\n        /* \"#utility.yul\":7631:7637   */\n      dup2\n        /* \"#utility.yul\":7609:7638   */\n      tag_305\n      jump\t// in\n    tag_475:\n        /* \"#utility.yul\":7604:7607   */\n      dup5\n        /* \"#utility.yul\":7600:7639   */\n      add\n        /* \"#utility.yul\":7593:7639   */\n      swap2\n      pop\n        /* \"#utility.yul\":7362:7645   */\n      pop\n        /* \"#utility.yul\":7272:7645   */\n      swap3\n      swap2\n      pop\n      pop\n      jump\t// out\n        /* \"#utility.yul\":7651:7760   */\n    tag_324:\n        /* \"#utility.yul\":7732:7753   */\n      tag_477\n        /* \"#utility.yul\":7747:7752   */\n      dup2\n        /* \"#utility.yul\":7732:7753   */\n      tag_309\n      jump\t// in\n    tag_477:\n        /* \"#utility.yul\":7727:7730   */\n      dup3\n        /* \"#utility.yul\":7720:7754   */\n      mstore\n        /* \"#utility.yul\":7651:7760   */\n      pop\n      pop\n      jump\t// out\n        /* \"#utility.yul\":7766:8925   */\n    tag_43:\n        /* \"#utility.yul\":8085:8089   */\n      0x00\n        /* \"#utility.yul\":8123:8126   */\n      0x0100\n        /* \"#utility.yul\":8112:8121   */\n      dup3\n        /* \"#utility.yul\":8108:8127   */\n      add\n        /* \"#utility.yul\":8100:8127   */\n      swap1\n      pop\n        /* \"#utility.yul\":8137:8208   */\n      tag_479\n        /* \"#utility.yul\":8205:8206   */\n      0x00\n        /* \"#utility.yul\":8194:8203   */\n      dup4\n        /* \"#utility.yul\":8190:8207   */\n      add\n        /* \"#utility.yul\":8181:8187   */\n      dup12\n        /* \"#utility.yul\":8137:8208   */\n      tag_320\n      jump\t// in\n    tag_479:\n        /* \"#utility.yul\":8218:8290   */\n      tag_480\n        /* \"#utility.yul\":8286:8288   */\n      0x20\n        /* \"#utility.yul\":8275:8284   */\n      dup4\n        /* \"#utility.yul\":8271:8289   */\n      add\n        /* \"#utility.yul\":8262:8268   */\n      dup11\n        /* \"#utility.yul\":8218:8290   */\n      tag_320\n      jump\t// in\n    tag_480:\n        /* \"#utility.yul\":8300:8372   */\n      tag_481\n        /* \"#utility.yul\":8368:8370   */\n      0x40\n        /* \"#utility.yul\":8357:8366   */\n      dup4\n        /* \"#utility.yul\":8353:8371   */\n      add\n        /* \"#utility.yul\":8344:8350   */\n      dup10\n        /* \"#utility.yul\":8300:8372   */\n      tag_321\n      jump\t// in\n    tag_481:\n        /* \"#utility.yul\":8382:8454   */\n      tag_482\n        /* \"#utility.yul\":8450:8452   */\n      0x60\n        /* \"#utility.yul\":8439:8448   */\n      dup4\n        /* \"#utility.yul\":8435:8453   */\n      add\n        /* \"#utility.yul\":8426:8432   */\n      dup9\n        /* \"#utility.yul\":8382:8454   */\n      tag_321\n      jump\t// in\n    tag_482:\n        /* \"#utility.yul\":8502:8511   */\n      dup2\n        /* \"#utility.yul\":8496:8500   */\n      dup2\n        /* \"#utility.yul\":8492:8512   */\n      sub\n        /* \"#utility.yul\":8486:8489   */\n      0x80\n        /* \"#utility.yul\":8475:8484   */\n      dup4\n        /* \"#utility.yul\":8471:8490   */\n      add\n        /* \"#utility.yul\":8464:8513   */\n      mstore\n        /* \"#utility.yul\":8530:8606   */\n      tag_483\n        /* \"#utility.yul\":8601:8605   */\n      dup2\n        /* \"#utility.yul\":8592:8598   */\n      dup8\n        /* \"#utility.yul\":8530:8606   */\n      tag_323\n      jump\t// in\n    tag_483:\n        /* \"#utility.yul\":8522:8606   */\n      swap1\n      pop\n        /* \"#utility.yul\":8616:8689   */\n      tag_484\n        /* \"#utility.yul\":8684:8687   */\n      0xa0\n        /* \"#utility.yul\":8673:8682   */\n      dup4\n        /* \"#utility.yul\":8669:8688   */\n      add\n        /* \"#utility.yul\":8660:8666   */\n      dup7\n        /* \"#utility.yul\":8616:8689   */\n      tag_314\n      jump\t// in\n    tag_484:\n        /* \"#utility.yul\":8699:8766   */\n      tag_485\n        /* \"#utility.yul\":8761:8764   */\n      0xc0\n        /* \"#utility.yul\":8750:8759   */\n      dup4\n        /* \"#utility.yul\":8746:8765   */\n      add\n        /* \"#utility.yul\":8737:8743   */\n      dup6\n        /* \"#utility.yul\":8699:8766   */\n      tag_324\n      jump\t// in\n    tag_485:\n        /* \"#utility.yul\":8814:8823   */\n      dup2\n        /* \"#utility.yul\":8808:8812   */\n      dup2\n        /* \"#utility.yul\":8804:8824   */\n      sub\n        /* \"#utility.yul\":8798:8801   */\n      0xe0\n        /* \"#utility.yul\":8787:8796   */\n      dup4\n        /* \"#utility.yul\":8783:8802   */\n      add\n        /* \"#utility.yul\":8776:8825   */\n      mstore\n        /* \"#utility.yul\":8842:8918   */\n      tag_486\n        /* \"#utility.yul\":8913:8917   */\n      dup2\n        /* \"#utility.yul\":8904:8910   */\n      dup5\n        /* \"#utility.yul\":8842:8918   */\n      tag_323\n      jump\t// in\n    tag_486:\n        /* \"#utility.yul\":8834:8918   */\n      swap1\n      pop\n        /* \"#utility.yul\":7766:8925   */\n      swap10\n      swap9\n      pop\n      pop\n      pop\n      pop\n      pop\n      pop\n      pop\n      pop\n      pop\n      jump\t// out\n        /* \"#utility.yul\":8931:9048   */\n    tag_325:\n        /* \"#utility.yul\":9040:9041   */\n      0x00\n        /* \"#utility.yul\":9037:9038   */\n      dup1\n        /* \"#utility.yul\":9030:9042   */\n      revert\n        /* \"#utility.yul\":9054:9171   */\n    tag_326:\n        /* \"#utility.yul\":9163:9164   */\n      0x00\n        /* \"#utility.yul\":9160:9161   */\n      dup1\n        /* \"#utility.yul\":9153:9165   */\n      revert\n        /* \"#utility.yul\":9177:9294   */\n    tag_327:\n        /* \"#utility.yul\":9286:9287   */\n      0x00\n        /* \"#utility.yul\":9283:9284   */\n      dup1\n        /* \"#utility.yul\":9276:9288   */\n      revert\n        /* \"#utility.yul\":9313:9865   */\n    tag_328:\n        /* \"#utility.yul\":9370:9378   */\n      0x00\n        /* \"#utility.yul\":9380:9386   */\n      dup1\n        /* \"#utility.yul\":9430:9433   */\n      dup4\n        /* \"#utility.yul\":9423:9427   */\n      0x1f\n        /* \"#utility.yul\":9415:9421   */\n      dup5\n        /* \"#utility.yul\":9411:9428   */\n      add\n        /* \"#utility.yul\":9407:9434   */\n      slt\n        /* \"#utility.yul\":9397:9519   */\n      tag_491\n      jumpi\n        /* \"#utility.yul\":9438:9517   */\n      tag_492\n      tag_325\n      jump\t// in\n    tag_492:\n        /* \"#utility.yul\":9397:9519   */\n    tag_491:\n        /* \"#utility.yul\":9551:9557   */\n      dup3\n        /* \"#utility.yul\":9538:9558   */\n      calldataload\n        /* \"#utility.yul\":9528:9558   */\n      swap1\n      pop\n        /* \"#utility.yul\":9581:9599   */\n      0xffffffffffffffff\n        /* \"#utility.yul\":9573:9579   */\n      dup2\n        /* \"#utility.yul\":9570:9600   */\n      gt\n        /* \"#utility.yul\":9567:9684   */\n      iszero\n      tag_493\n      jumpi\n        /* \"#utility.yul\":9603:9682   */\n      tag_494\n      tag_326\n      jump\t// in\n    tag_494:\n        /* \"#utility.yul\":9567:9684   */\n    tag_493:\n        /* \"#utility.yul\":9717:9721   */\n      0x20\n        /* \"#utility.yul\":9709:9715   */\n      dup4\n        /* \"#utility.yul\":9705:9722   */\n      add\n        /* \"#utility.yul\":9693:9722   */\n      swap2\n      pop\n        /* \"#utility.yul\":9771:9774   */\n      dup4\n        /* \"#utility.yul\":9763:9767   */\n      0x01\n        /* \"#utility.yul\":9755:9761   */\n      dup3\n        /* \"#utility.yul\":9751:9768   */\n      mul\n        /* \"#utility.yul\":9741:9749   */\n      dup4\n        /* \"#utility.yul\":9737:9769   */\n      add\n        /* \"#utility.yul\":9734:9775   */\n      gt\n        /* \"#utility.yul\":9731:9859   */\n      iszero\n      tag_495\n      jumpi\n        /* \"#utility.yul\":9778:9857   */\n      tag_496\n      tag_327\n      jump\t// in\n    tag_496:\n        /* \"#utility.yul\":9731:9859   */\n    tag_495:\n        /* \"#utility.yul\":9313:9865   */\n      swap3\n      pop\n      swap3\n      swap1\n      pop\n      jump\t// out\n        /* \"#utility.yul\":9871:10688   */\n    tag_46:\n        /* \"#utility.yul\":9959:9965   */\n      0x00\n        /* \"#utility.yul\":9967:9973   */\n      dup1\n        /* \"#utility.yul\":9975:9981   */\n      0x00\n        /* \"#utility.yul\":9983:9989   */\n      dup1\n        /* \"#utility.yul\":10032:10034   */\n      0x60\n        /* \"#utility.yul\":10020:10029   */\n      dup6\n        /* \"#utility.yul\":10011:10018   */\n      dup8\n        /* \"#utility.yul\":10007:10030   */\n      sub\n        /* \"#utility.yul\":10003:10035   */\n      slt\n        /* \"#utility.yul\":10000:10119   */\n      iszero\n      tag_498\n      jumpi\n        /* \"#utility.yul\":10038:10117   */\n      tag_499\n      tag_293\n      jump\t// in\n    tag_499:\n        /* \"#utility.yul\":10000:10119   */\n    tag_498:\n        /* \"#utility.yul\":10158:10159   */\n      0x00\n        /* \"#utility.yul\":10183:10236   */\n      tag_500\n        /* \"#utility.yul\":10228:10235   */\n      dup8\n        /* \"#utility.yul\":10219:10225   */\n      dup3\n        /* \"#utility.yul\":10208:10217   */\n      dup9\n        /* \"#utility.yul\":10204:10226   */\n      add\n        /* \"#utility.yul\":10183:10236   */\n      tag_313\n      jump\t// in\n    tag_500:\n        /* \"#utility.yul\":10173:10236   */\n      swap5\n      pop\n        /* \"#utility.yul\":10129:10246   */\n      pop\n        /* \"#utility.yul\":10313:10315   */\n      0x20\n        /* \"#utility.yul\":10302:10311   */\n      dup6\n        /* \"#utility.yul\":10298:10316   */\n      add\n        /* \"#utility.yul\":10285:10317   */\n      calldataload\n        /* \"#utility.yul\":10344:10362   */\n      0xffffffffffffffff\n        /* \"#utility.yul\":10336:10342   */\n      dup2\n        /* \"#utility.yul\":10333:10363   */\n      gt\n        /* \"#utility.yul\":10330:10447   */\n      iszero\n      tag_501\n      jumpi\n        /* \"#utility.yul\":10366:10445   */\n      tag_502\n      tag_294\n      jump\t// in\n    tag_502:\n        /* \"#utility.yul\":10330:10447   */\n    tag_501:\n        /* \"#utility.yul\":10479:10543   */\n      tag_503\n        /* \"#utility.yul\":10535:10542   */\n      dup8\n        /* \"#utility.yul\":10526:10532   */\n      dup3\n        /* \"#utility.yul\":10515:10524   */\n      dup9\n        /* \"#utility.yul\":10511:10533   */\n      add\n        /* \"#utility.yul\":10479:10543   */\n      tag_328\n      jump\t// in\n    tag_503:\n        /* \"#utility.yul\":10461:10543   */\n      swap4\n      pop\n      swap4\n      pop\n        /* \"#utility.yul\":10256:10553   */\n      pop\n        /* \"#utility.yul\":10592:10594   */\n      0x40\n        /* \"#utility.yul\":10618:10671   */\n      tag_504\n        /* \"#utility.yul\":10663:10670   */\n      dup8\n        /* \"#utility.yul\":10654:10660   */\n      dup3\n        /* \"#utility.yul\":10643:10652   */\n      dup9\n        /* \"#utility.yul\":10639:10661   */\n      add\n        /* \"#utility.yul\":10618:10671   */\n      tag_297\n      jump\t// in\n    tag_504:\n        /* \"#utility.yul\":10608:10671   */\n      swap2\n      pop\n        /* \"#utility.yul\":10563:10681   */\n      pop\n        /* \"#utility.yul\":9871:10688   */\n      swap3\n      swap6\n      swap2\n      swap5\n      pop\n      swap3\n      pop\n      jump\t// out\n        /* \"#utility.yul\":10694:10816   */\n    tag_329:\n        /* \"#utility.yul\":10767:10791   */\n      tag_506\n        /* \"#utility.yul\":10785:10790   */\n      dup2\n        /* \"#utility.yul\":10767:10791   */\n      tag_307\n      jump\t// in\n    tag_506:\n        /* \"#utility.yul\":10760:10765   */\n      dup2\n        /* \"#utility.yul\":10757:10792   */\n      eq\n        /* \"#utility.yul\":10747:10810   */\n      tag_507\n      jumpi\n        /* \"#utility.yul\":10806:10807   */\n      0x00\n        /* \"#utility.yul\":10803:10804   */\n      dup1\n        /* \"#utility.yul\":10796:10808   */\n      revert\n        /* \"#utility.yul\":10747:10810   */\n    tag_507:\n        /* \"#utility.yul\":10694:10816   */\n      pop\n      jump\t// out\n        /* \"#utility.yul\":10822:10961   */\n    tag_330:\n        /* \"#utility.yul\":10868:10873   */\n      0x00\n        /* \"#utility.yul\":10906:10912   */\n      dup2\n        /* \"#utility.yul\":10893:10913   */\n      calldataload\n        /* \"#utility.yul\":10884:10913   */\n      swap1\n      pop\n        /* \"#utility.yul\":10922:10955   */\n      tag_509\n        /* \"#utility.yul\":10949:10954   */\n      dup2\n        /* \"#utility.yul\":10922:10955   */\n      tag_329\n      jump\t// in\n    tag_509:\n        /* \"#utility.yul\":10822:10961   */\n      swap3\n      swap2\n      pop\n      pop\n      jump\t// out\n        /* \"#utility.yul\":10967:11586   */\n    tag_55:\n        /* \"#utility.yul\":11044:11050   */\n      0x00\n        /* \"#utility.yul\":11052:11058   */\n      dup1\n        /* \"#utility.yul\":11060:11066   */\n      0x00\n        /* \"#utility.yul\":11109:11111   */\n      0x60\n        /* \"#utility.yul\":11097:11106   */\n      dup5\n        /* \"#utility.yul\":11088:11095   */\n      dup7\n        /* \"#utility.yul\":11084:11107   */\n      sub\n        /* \"#utility.yul\":11080:11112   */\n      slt\n        /* \"#utility.yul\":11077:11196   */\n      iszero\n      tag_511\n      jumpi\n        /* \"#utility.yul\":11115:11194   */\n      tag_512\n      tag_293\n      jump\t// in\n    tag_512:\n        /* \"#utility.yul\":11077:11196   */\n    tag_511:\n        /* \"#utility.yul\":11235:11236   */\n      0x00\n        /* \"#utility.yul\":11260:11313   */\n      tag_513\n        /* \"#utility.yul\":11305:11312   */\n      dup7\n        /* \"#utility.yul\":11296:11302   */\n      dup3\n        /* \"#utility.yul\":11285:11294   */\n      dup8\n        /* \"#utility.yul\":11281:11303   */\n      add\n        /* \"#utility.yul\":11260:11313   */\n      tag_313\n      jump\t// in\n    tag_513:\n        /* \"#utility.yul\":11250:11313   */\n      swap4\n      pop\n        /* \"#utility.yul\":11206:11323   */\n      pop\n        /* \"#utility.yul\":11362:11364   */\n      0x20\n        /* \"#utility.yul\":11388:11441   */\n      tag_514\n        /* \"#utility.yul\":11433:11440   */\n      dup7\n        /* \"#utility.yul\":11424:11430   */\n      dup3\n        /* \"#utility.yul\":11413:11422   */\n      dup8\n        /* \"#utility.yul\":11409:11431   */\n      add\n        /* \"#utility.yul\":11388:11441   */\n      tag_330\n      jump\t// in\n    tag_514:\n        /* \"#utility.yul\":11378:11441   */\n      swap3\n      pop\n        /* \"#utility.yul\":11333:11451   */\n      pop\n        /* \"#utility.yul\":11490:11492   */\n      0x40\n        /* \"#utility.yul\":11516:11569   */\n      tag_515\n        /* \"#utility.yul\":11561:11568   */\n      dup7\n        /* \"#utility.yul\":11552:11558   */\n      dup3\n        /* \"#utility.yul\":11541:11550   */\n      dup8\n        /* \"#utility.yul\":11537:11559   */\n      add\n        /* \"#utility.yul\":11516:11569   */\n      tag_330\n      jump\t// in\n    tag_515:\n        /* \"#utility.yul\":11506:11569   */\n      swap2\n      pop\n        /* \"#utility.yul\":11461:11579   */\n      pop\n        /* \"#utility.yul\":10967:11586   */\n      swap3\n      pop\n      swap3\n      pop\n      swap3\n      jump\t// out\n        /* \"#utility.yul\":11592:11730   */\n    tag_331:\n        /* \"#utility.yul\":11683:11689   */\n      0x00\n        /* \"#utility.yul\":11717:11722   */\n      dup2\n        /* \"#utility.yul\":11711:11723   */\n      mload\n        /* \"#utility.yul\":11701:11723   */\n      swap1\n      pop\n        /* \"#utility.yul\":11592:11730   */\n      swap2\n      swap1\n      pop\n      jump\t// out\n        /* \"#utility.yul\":11736:11944   */\n    tag_332:\n        /* \"#utility.yul\":11859:11870   */\n      0x00\n        /* \"#utility.yul\":11893:11899   */\n      dup3\n        /* \"#utility.yul\":11888:11891   */\n      dup3\n        /* \"#utility.yul\":11881:11900   */\n      mstore\n        /* \"#utility.yul\":11933:11937   */\n      0x20\n        /* \"#utility.yul\":11928:11931   */\n      dup3\n        /* \"#utility.yul\":11924:11938   */\n      add\n        /* \"#utility.yul\":11909:11938   */\n      swap1\n      pop\n        /* \"#utility.yul\":11736:11944   */\n      swap3\n      swap2\n      pop\n      pop\n      jump\t// out\n        /* \"#utility.yul\":11950:12106   */\n    tag_333:\n        /* \"#utility.yul\":12041:12045   */\n      0x00\n        /* \"#utility.yul\":12064:12067   */\n      dup2\n        /* \"#utility.yul\":12056:12067   */\n      swap1\n      pop\n        /* \"#utility.yul\":12094:12098   */\n      0x20\n        /* \"#utility.yul\":12089:12092   */\n      dup3\n        /* \"#utility.yul\":12085:12099   */\n      add\n        /* \"#utility.yul\":12077:12099   */\n      swap1\n      pop\n        /* \"#utility.yul\":11950:12106   */\n      swap2\n      swap1\n      pop\n      jump\t// out\n        /* \"#utility.yul\":12174:13913   */\n    tag_334:\n        /* \"#utility.yul\":12281:12284   */\n      0x00\n        /* \"#utility.yul\":12317:12323   */\n      0x0100\n        /* \"#utility.yul\":12312:12315   */\n      dup4\n        /* \"#utility.yul\":12308:12324   */\n      add\n        /* \"#utility.yul\":12412:12416   */\n      0x00\n        /* \"#utility.yul\":12405:12410   */\n      dup4\n        /* \"#utility.yul\":12401:12417   */\n      add\n        /* \"#utility.yul\":12395:12418   */\n      mload\n        /* \"#utility.yul\":12431:12494   */\n      tag_520\n        /* \"#utility.yul\":12488:12492   */\n      0x00\n        /* \"#utility.yul\":12483:12486   */\n      dup7\n        /* \"#utility.yul\":12479:12493   */\n      add\n        /* \"#utility.yul\":12465:12477   */\n      dup3\n        /* \"#utility.yul\":12431:12494   */\n      tag_298\n      jump\t// in\n    tag_520:\n        /* \"#utility.yul\":12334:12504   */\n      pop\n        /* \"#utility.yul\":12591:12595   */\n      0x20\n        /* \"#utility.yul\":12584:12589   */\n      dup4\n        /* \"#utility.yul\":12580:12596   */\n      add\n        /* \"#utility.yul\":12574:12597   */\n      mload\n        /* \"#utility.yul\":12610:12673   */\n      tag_521\n        /* \"#utility.yul\":12667:12671   */\n      0x20\n        /* \"#utility.yul\":12662:12665   */\n      dup7\n        /* \"#utility.yul\":12658:12672   */\n      add\n        /* \"#utility.yul\":12644:12656   */\n      dup3\n        /* \"#utility.yul\":12610:12673   */\n      tag_298\n      jump\t// in\n    tag_521:\n        /* \"#utility.yul\":12514:12683   */\n      pop\n        /* \"#utility.yul\":12767:12771   */\n      0x40\n        /* \"#utility.yul\":12760:12765   */\n      dup4\n        /* \"#utility.yul\":12756:12772   */\n      add\n        /* \"#utility.yul\":12750:12773   */\n      mload\n        /* \"#utility.yul\":12786:12849   */\n      tag_522\n        /* \"#utility.yul\":12843:12847   */\n      0x40\n        /* \"#utility.yul\":12838:12841   */\n      dup7\n        /* \"#utility.yul\":12834:12848   */\n      add\n        /* \"#utility.yul\":12820:12832   */\n      dup3\n        /* \"#utility.yul\":12786:12849   */\n      tag_301\n      jump\t// in\n    tag_522:\n        /* \"#utility.yul\":12693:12859   */\n      pop\n        /* \"#utility.yul\":12946:12950   */\n      0x60\n        /* \"#utility.yul\":12939:12944   */\n      dup4\n        /* \"#utility.yul\":12935:12951   */\n      add\n        /* \"#utility.yul\":12929:12952   */\n      mload\n        /* \"#utility.yul\":12965:13028   */\n      tag_523\n        /* \"#utility.yul\":13022:13026   */\n      0x60\n        /* \"#utility.yul\":13017:13020   */\n      dup7\n        /* \"#utility.yul\":13013:13027   */\n      add\n        /* \"#utility.yul\":12999:13011   */\n      dup3\n        /* \"#utility.yul\":12965:13028   */\n      tag_301\n      jump\t// in\n    tag_523:\n        /* \"#utility.yul\":12869:13038   */\n      pop\n        /* \"#utility.yul\":13132:13136   */\n      0x80\n        /* \"#utility.yul\":13125:13130   */\n      dup4\n        /* \"#utility.yul\":13121:13137   */\n      add\n        /* \"#utility.yul\":13115:13138   */\n      mload\n        /* \"#utility.yul\":13185:13188   */\n      dup5\n        /* \"#utility.yul\":13179:13183   */\n      dup3\n        /* \"#utility.yul\":13175:13189   */\n      sub\n        /* \"#utility.yul\":13168:13172   */\n      0x80\n        /* \"#utility.yul\":13163:13166   */\n      dup7\n        /* \"#utility.yul\":13159:13173   */\n      add\n        /* \"#utility.yul\":13152:13190   */\n      mstore\n        /* \"#utility.yul\":13211:13282   */\n      tag_524\n        /* \"#utility.yul\":13277:13281   */\n      dup3\n        /* \"#utility.yul\":13263:13275   */\n      dup3\n        /* \"#utility.yul\":13211:13282   */\n      tag_306\n      jump\t// in\n    tag_524:\n        /* \"#utility.yul\":13203:13282   */\n      swap2\n      pop\n        /* \"#utility.yul\":13048:13293   */\n      pop\n        /* \"#utility.yul\":13380:13384   */\n      0xa0\n        /* \"#utility.yul\":13373:13378   */\n      dup4\n        /* \"#utility.yul\":13369:13385   */\n      add\n        /* \"#utility.yul\":13363:13386   */\n      mload\n        /* \"#utility.yul\":13399:13462   */\n      tag_525\n        /* \"#utility.yul\":13456:13460   */\n      0xa0\n        /* \"#utility.yul\":13451:13454   */\n      dup7\n        /* \"#utility.yul\":13447:13461   */\n      add\n        /* \"#utility.yul\":13433:13445   */\n      dup3\n        /* \"#utility.yul\":13399:13462   */\n      tag_308\n      jump\t// in\n    tag_525:\n        /* \"#utility.yul\":13303:13472   */\n      pop\n        /* \"#utility.yul\":13556:13560   */\n      0xc0\n        /* \"#utility.yul\":13549:13554   */\n      dup4\n        /* \"#utility.yul\":13545:13561   */\n      add\n        /* \"#utility.yul\":13539:13562   */\n      mload\n        /* \"#utility.yul\":13575:13632   */\n      tag_526\n        /* \"#utility.yul\":13626:13630   */\n      0xc0\n        /* \"#utility.yul\":13621:13624   */\n      dup7\n        /* \"#utility.yul\":13617:13631   */\n      add\n        /* \"#utility.yul\":13603:13615   */\n      dup3\n        /* \"#utility.yul\":13575:13632   */\n      tag_310\n      jump\t// in\n    tag_526:\n        /* \"#utility.yul\":13482:13642   */\n      pop\n        /* \"#utility.yul\":13725:13729   */\n      0xe0\n        /* \"#utility.yul\":13718:13723   */\n      dup4\n        /* \"#utility.yul\":13714:13730   */\n      add\n        /* \"#utility.yul\":13708:13731   */\n      mload\n        /* \"#utility.yul\":13778:13781   */\n      dup5\n        /* \"#utility.yul\":13772:13776   */\n      dup3\n        /* \"#utility.yul\":13768:13782   */\n      sub\n        /* \"#utility.yul\":13761:13765   */\n      0xe0\n        /* \"#utility.yul\":13756:13759   */\n      dup7\n        /* \"#utility.yul\":13752:13766   */\n      add\n        /* \"#utility.yul\":13745:13783   */\n      mstore\n        /* \"#utility.yul\":13804:13875   */\n      tag_527\n        /* \"#utility.yul\":13870:13874   */\n      dup3\n        /* \"#utility.yul\":13856:13868   */\n      dup3\n        /* \"#utility.yul\":13804:13875   */\n      tag_306\n      jump\t// in\n    tag_527:\n        /* \"#utility.yul\":13796:13875   */\n      swap2\n      pop\n        /* \"#utility.yul\":13652:13886   */\n      pop\n        /* \"#utility.yul\":13903:13907   */\n      dup1\n        /* \"#utility.yul\":13896:13907   */\n      swap2\n      pop\n        /* \"#utility.yul\":12286:13913   */\n      pop\n        /* \"#utility.yul\":12174:13913   */\n      swap3\n      swap2\n      pop\n      pop\n      jump\t// out\n        /* \"#utility.yul\":13919:14171   */\n    tag_335:\n        /* \"#utility.yul\":14036:14046   */\n      0x00\n        /* \"#utility.yul\":14071:14165   */\n      tag_529\n        /* \"#utility.yul\":14161:14164   */\n      dup4\n        /* \"#utility.yul\":14153:14159   */\n      dup4\n        /* \"#utility.yul\":14071:14165   */\n      tag_334\n      jump\t// in\n    tag_529:\n        /* \"#utility.yul\":14057:14165   */\n      swap1\n      pop\n        /* \"#utility.yul\":13919:14171   */\n      swap3\n      swap2\n      pop\n      pop\n      jump\t// out\n        /* \"#utility.yul\":14177:14314   */\n    tag_336:\n        /* \"#utility.yul\":14271:14275   */\n      0x00\n        /* \"#utility.yul\":14303:14307   */\n      0x20\n        /* \"#utility.yul\":14298:14301   */\n      dup3\n        /* \"#utility.yul\":14294:14308   */\n      add\n        /* \"#utility.yul\":14286:14308   */\n      swap1\n      pop\n        /* \"#utility.yul\":14177:14314   */\n      swap2\n      swap1\n      pop\n      jump\t// out\n        /* \"#utility.yul\":14386:15489   */\n    tag_337:\n        /* \"#utility.yul\":14553:14556   */\n      0x00\n        /* \"#utility.yul\":14582:14660   */\n      tag_532\n        /* \"#utility.yul\":14654:14659   */\n      dup3\n        /* \"#utility.yul\":14582:14660   */\n      tag_331\n      jump\t// in\n    tag_532:\n        /* \"#utility.yul\":14676:14786   */\n      tag_533\n        /* \"#utility.yul\":14779:14785   */\n      dup2\n        /* \"#utility.yul\":14774:14777   */\n      dup6\n        /* \"#utility.yul\":14676:14786   */\n      tag_332\n      jump\t// in\n    tag_533:\n        /* \"#utility.yul\":14669:14786   */\n      swap4\n      pop\n        /* \"#utility.yul\":14812:14815   */\n      dup4\n        /* \"#utility.yul\":14857:14861   */\n      0x20\n        /* \"#utility.yul\":14849:14855   */\n      dup3\n        /* \"#utility.yul\":14845:14862   */\n      mul\n        /* \"#utility.yul\":14840:14843   */\n      dup6\n        /* \"#utility.yul\":14836:14863   */\n      add\n        /* \"#utility.yul\":14887:14967   */\n      tag_534\n        /* \"#utility.yul\":14961:14966   */\n      dup6\n        /* \"#utility.yul\":14887:14967   */\n      tag_333\n      jump\t// in\n    tag_534:\n        /* \"#utility.yul\":14990:14997   */\n      dup1\n        /* \"#utility.yul\":15021:15022   */\n      0x00\n        /* \"#utility.yul\":15006:15444   */\n    tag_535:\n        /* \"#utility.yul\":15031:15037   */\n      dup6\n        /* \"#utility.yul\":15028:15029   */\n      dup2\n        /* \"#utility.yul\":15025:15038   */\n      lt\n        /* \"#utility.yul\":15006:15444   */\n      iszero\n      tag_537\n      jumpi\n        /* \"#utility.yul\":15102:15111   */\n      dup5\n        /* \"#utility.yul\":15096:15100   */\n      dup5\n        /* \"#utility.yul\":15092:15112   */\n      sub\n        /* \"#utility.yul\":15087:15090   */\n      dup10\n        /* \"#utility.yul\":15080:15113   */\n      mstore\n        /* \"#utility.yul\":15153:15159   */\n      dup2\n        /* \"#utility.yul\":15147:15160   */\n      mload\n        /* \"#utility.yul\":15181:15293   */\n      tag_538\n        /* \"#utility.yul\":15288:15292   */\n      dup6\n        /* \"#utility.yul\":15273:15286   */\n      dup3\n        /* \"#utility.yul\":15181:15293   */\n      tag_335\n      jump\t// in\n    tag_538:\n        /* \"#utility.yul\":15173:15293   */\n      swap5\n      pop\n        /* \"#utility.yul\":15316:15400   */\n      tag_539\n        /* \"#utility.yul\":15393:15399   */\n      dup4\n        /* \"#utility.yul\":15316:15400   */\n      tag_336\n      jump\t// in\n    tag_539:\n        /* \"#utility.yul\":15306:15400   */\n      swap3\n      pop\n        /* \"#utility.yul\":15429:15433   */\n      0x20\n        /* \"#utility.yul\":15424:15427   */\n      dup11\n        /* \"#utility.yul\":15420:15434   */\n      add\n        /* \"#utility.yul\":15413:15434   */\n      swap10\n      pop\n        /* \"#utility.yul\":15066:15444   */\n      pop\n        /* \"#utility.yul\":15053:15054   */\n      0x01\n        /* \"#utility.yul\":15050:15051   */\n      dup2\n        /* \"#utility.yul\":15046:15055   */\n      add\n        /* \"#utility.yul\":15041:15055   */\n      swap1\n      pop\n        /* \"#utility.yul\":15006:15444   */\n      jump(tag_535)\n    tag_537:\n        /* \"#utility.yul\":15010:15024   */\n      pop\n        /* \"#utility.yul\":15460:15464   */\n      dup3\n        /* \"#utility.yul\":15453:15464   */\n      swap8\n      pop\n        /* \"#utility.yul\":15480:15483   */\n      dup8\n        /* \"#utility.yul\":15473:15483   */\n      swap6\n      pop\n        /* \"#utility.yul\":14558:15489   */\n      pop\n      pop\n      pop\n      pop\n      pop\n        /* \"#utility.yul\":14386:15489   */\n      swap3\n      swap2\n      pop\n      pop\n      jump\t// out\n        /* \"#utility.yul\":15495:15964   */\n    tag_58:\n        /* \"#utility.yul\":15686:15690   */\n      0x00\n        /* \"#utility.yul\":15724:15726   */\n      0x20\n        /* \"#utility.yul\":15713:15722   */\n      dup3\n        /* \"#utility.yul\":15709:15727   */\n      add\n        /* \"#utility.yul\":15701:15727   */\n      swap1\n      pop\n        /* \"#utility.yul\":15773:15782   */\n      dup2\n        /* \"#utility.yul\":15767:15771   */\n      dup2\n        /* \"#utility.yul\":15763:15783   */\n      sub\n        /* \"#utility.yul\":15759:15760   */\n      0x00\n        /* \"#utility.yul\":15748:15757   */\n      dup4\n        /* \"#utility.yul\":15744:15761   */\n      add\n        /* \"#utility.yul\":15737:15784   */\n      mstore\n        /* \"#utility.yul\":15801:15957   */\n      tag_541\n        /* \"#utility.yul\":15952:15956   */\n      dup2\n        /* \"#utility.yul\":15943:15949   */\n      dup5\n        /* \"#utility.yul\":15801:15957   */\n      tag_337\n      jump\t// in\n    tag_541:\n        /* \"#utility.yul\":15793:15957   */\n      swap1\n      pop\n        /* \"#utility.yul\":15495:15964   */\n      swap3\n      swap2\n      pop\n      pop\n      jump\t// out\n        /* \"#utility.yul\":15970:16180   */\n    tag_62:\n        /* \"#utility.yul\":16057:16061   */\n      0x00\n        /* \"#utility.yul\":16095:16097   */\n      0x20\n        /* \"#utility.yul\":16084:16093   */\n      dup3\n        /* \"#utility.yul\":16080:16098   */\n      add\n        /* \"#utility.yul\":16072:16098   */\n      swap1\n      pop\n        /* \"#utility.yul\":16108:16173   */\n      tag_543\n        /* \"#utility.yul\":16170:16171   */\n      0x00\n        /* \"#utility.yul\":16159:16168   */\n      dup4\n        /* \"#utility.yul\":16155:16172   */\n      add\n        /* \"#utility.yul\":16146:16152   */\n      dup5\n        /* \"#utility.yul\":16108:16173   */\n      tag_324\n      jump\t// in\n    tag_543:\n        /* \"#utility.yul\":15970:16180   */\n      swap3\n      swap2\n      pop\n      pop\n      jump\t// out\n        /* \"#utility.yul\":16186:16408   */\n    tag_74:\n        /* \"#utility.yul\":16279:16283   */\n      0x00\n        /* \"#utility.yul\":16317:16319   */\n      0x20\n        /* \"#utility.yul\":16306:16315   */\n      dup3\n        /* \"#utility.yul\":16302:16320   */\n      add\n        /* \"#utility.yul\":16294:16320   */\n      swap1\n      pop\n        /* \"#utility.yul\":16330:16401   */\n      tag_545\n        /* \"#utility.yul\":16398:16399   */\n      0x00\n        /* \"#utility.yul\":16387:16396   */\n      dup4\n        /* \"#utility.yul\":16383:16400   */\n      add\n        /* \"#utility.yul\":16374:16380   */\n      dup5\n        /* \"#utility.yul\":16330:16401   */\n      tag_321\n      jump\t// in\n    tag_545:\n        /* \"#utility.yul\":16186:16408   */\n      swap3\n      swap2\n      pop\n      pop\n      jump\t// out\n        /* \"#utility.yul\":16414:16888   */\n    tag_77:\n        /* \"#utility.yul\":16482:16488   */\n      0x00\n        /* \"#utility.yul\":16490:16496   */\n      dup1\n        /* \"#utility.yul\":16539:16541   */\n      0x40\n        /* \"#utility.yul\":16527:16536   */\n      dup4\n        /* \"#utility.yul\":16518:16525   */\n      dup6\n        /* \"#utility.yul\":16514:16537   */\n      sub\n        /* \"#utility.yul\":16510:16542   */\n      slt\n        /* \"#utility.yul\":16507:16626   */\n      iszero\n      tag_547\n      jumpi\n        /* \"#utility.yul\":16545:16624   */\n      tag_548\n      tag_293\n      jump\t// in\n    tag_548:\n        /* \"#utility.yul\":16507:16626   */\n    tag_547:\n        /* \"#utility.yul\":16665:16666   */\n      0x00\n        /* \"#utility.yul\":16690:16743   */\n      tag_549\n        /* \"#utility.yul\":16735:16742   */\n      dup6\n        /* \"#utility.yul\":16726:16732   */\n      dup3\n        /* \"#utility.yul\":16715:16724   */\n      dup7\n        /* \"#utility.yul\":16711:16733   */\n      add\n        /* \"#utility.yul\":16690:16743   */\n      tag_313\n      jump\t// in\n    tag_549:\n        /* \"#utility.yul\":16680:16743   */\n      swap3\n      pop\n        /* \"#utility.yul\":16636:16753   */\n      pop\n        /* \"#utility.yul\":16792:16794   */\n      0x20\n        /* \"#utility.yul\":16818:16871   */\n      tag_550\n        /* \"#utility.yul\":16863:16870   */\n      dup6\n        /* \"#utility.yul\":16854:16860   */\n      dup3\n        /* \"#utility.yul\":16843:16852   */\n      dup7\n        /* \"#utility.yul\":16839:16861   */\n      add\n        /* \"#utility.yul\":16818:16871   */\n      tag_330\n      jump\t// in\n    tag_550:\n        /* \"#utility.yul\":16808:16871   */\n      swap2\n      pop\n        /* \"#utility.yul\":16763:16881   */\n      pop\n        /* \"#utility.yul\":16414:16888   */\n      swap3\n      pop\n      swap3\n      swap1\n      pop\n      jump\t// out\n        /* \"#utility.yul\":16894:17116   */\n    tag_80:\n        /* \"#utility.yul\":16987:16991   */\n      0x00\n        /* \"#utility.yul\":17025:17027   */\n      0x20\n        /* \"#utility.yul\":17014:17023   */\n      dup3\n        /* \"#utility.yul\":17010:17028   */\n      add\n        /* \"#utility.yul\":17002:17028   */\n      swap1\n      pop\n        /* \"#utility.yul\":17038:17109   */\n      tag_552\n        /* \"#utility.yul\":17106:17107   */\n      0x00\n        /* \"#utility.yul\":17095:17104   */\n      dup4\n        /* \"#utility.yul\":17091:17108   */\n      add\n        /* \"#utility.yul\":17082:17088   */\n      dup5\n        /* \"#utility.yul\":17038:17109   */\n      tag_320\n      jump\t// in\n    tag_552:\n        /* \"#utility.yul\":16894:17116   */\n      swap3\n      swap2\n      pop\n      pop\n      jump\t// out\n        /* \"#utility.yul\":17122:18429   */\n    tag_89:\n        /* \"#utility.yul\":17239:17245   */\n      0x00\n        /* \"#utility.yul\":17247:17253   */\n      dup1\n        /* \"#utility.yul\":17255:17261   */\n      0x00\n        /* \"#utility.yul\":17263:17269   */\n      dup1\n        /* \"#utility.yul\":17271:17277   */\n      0x00\n        /* \"#utility.yul\":17279:17285   */\n      dup1\n        /* \"#utility.yul\":17287:17293   */\n      0x00\n        /* \"#utility.yul\":17336:17339   */\n      0xa0\n        /* \"#utility.yul\":17324:17333   */\n      dup9\n        /* \"#utility.yul\":17315:17322   */\n      dup11\n        /* \"#utility.yul\":17311:17334   */\n      sub\n        /* \"#utility.yul\":17307:17340   */\n      slt\n        /* \"#utility.yul\":17304:17424   */\n      iszero\n      tag_554\n      jumpi\n        /* \"#utility.yul\":17343:17422   */\n      tag_555\n      tag_293\n      jump\t// in\n    tag_555:\n        /* \"#utility.yul\":17304:17424   */\n    tag_554:\n        /* \"#utility.yul\":17463:17464   */\n      0x00\n        /* \"#utility.yul\":17488:17541   */\n      tag_556\n        /* \"#utility.yul\":17533:17540   */\n      dup11\n        /* \"#utility.yul\":17524:17530   */\n      dup3\n        /* \"#utility.yul\":17513:17522   */\n      dup12\n        /* \"#utility.yul\":17509:17531   */\n      add\n        /* \"#utility.yul\":17488:17541   */\n      tag_297\n      jump\t// in\n    tag_556:\n        /* \"#utility.yul\":17478:17541   */\n      swap8\n      pop\n        /* \"#utility.yul\":17434:17551   */\n      pop\n        /* \"#utility.yul\":17590:17592   */\n      0x20\n        /* \"#utility.yul\":17616:17669   */\n      tag_557\n        /* \"#utility.yul\":17661:17668   */\n      dup11\n        /* \"#utility.yul\":17652:17658   */\n      dup3\n        /* \"#utility.yul\":17641:17650   */\n      dup12\n        /* \"#utility.yul\":17637:17659   */\n      add\n        /* \"#utility.yul\":17616:17669   */\n      tag_297\n      jump\t// in\n    tag_557:\n        /* \"#utility.yul\":17606:17669   */\n      swap7\n      pop\n        /* \"#utility.yul\":17561:17679   */\n      pop\n        /* \"#utility.yul\":17718:17720   */\n      0x40\n        /* \"#utility.yul\":17744:17797   */\n      tag_558\n        /* \"#utility.yul\":17789:17796   */\n      dup11\n        /* \"#utility.yul\":17780:17786   */\n      dup3\n        /* \"#utility.yul\":17769:17778   */\n      dup12\n        /* \"#utility.yul\":17765:17787   */\n      add\n        /* \"#utility.yul\":17744:17797   */\n      tag_313\n      jump\t// in\n    tag_558:\n        /* \"#utility.yul\":17734:17797   */\n      swap6\n      pop\n        /* \"#utility.yul\":17689:17807   */\n      pop\n        /* \"#utility.yul\":17874:17876   */\n      0x60\n        /* \"#utility.yul\":17863:17872   */\n      dup9\n        /* \"#utility.yul\":17859:17877   */\n      add\n        /* \"#utility.yul\":17846:17878   */\n      calldataload\n        /* \"#utility.yul\":17905:17923   */\n      0xffffffffffffffff\n        /* \"#utility.yul\":17897:17903   */\n      dup2\n        /* \"#utility.yul\":17894:17924   */\n      gt\n        /* \"#utility.yul\":17891:18008   */\n      iszero\n      tag_559\n      jumpi\n        /* \"#utility.yul\":17927:18006   */\n      tag_560\n      tag_294\n      jump\t// in\n    tag_560:\n        /* \"#utility.yul\":17891:18008   */\n    tag_559:\n        /* \"#utility.yul\":18040:18104   */\n      tag_561\n        /* \"#utility.yul\":18096:18103   */\n      dup11\n        /* \"#utility.yul\":18087:18093   */\n      dup3\n        /* \"#utility.yul\":18076:18085   */\n      dup12\n        /* \"#utility.yul\":18072:18094   */\n      add\n        /* \"#utility.yul\":18040:18104   */\n      tag_328\n      jump\t// in\n    tag_561:\n        /* \"#utility.yul\":18022:18104   */\n      swap5\n      pop\n      swap5\n      pop\n        /* \"#utility.yul\":17817:18114   */\n      pop\n        /* \"#utility.yul\":18181:18184   */\n      0x80\n        /* \"#utility.yul\":18170:18179   */\n      dup9\n        /* \"#utility.yul\":18166:18185   */\n      add\n        /* \"#utility.yul\":18153:18186   */\n      calldataload\n        /* \"#utility.yul\":18213:18231   */\n      0xffffffffffffffff\n        /* \"#utility.yul\":18205:18211   */\n      dup2\n        /* \"#utility.yul\":18202:18232   */\n      gt\n        /* \"#utility.yul\":18199:18316   */\n      iszero\n      tag_562\n      jumpi\n        /* \"#utility.yul\":18235:18314   */\n      tag_563\n      tag_294\n      jump\t// in\n    tag_563:\n        /* \"#utility.yul\":18199:18316   */\n    tag_562:\n        /* \"#utility.yul\":18348:18412   */\n      tag_564\n        /* \"#utility.yul\":18404:18411   */\n      dup11\n        /* \"#utility.yul\":18395:18401   */\n      dup3\n        /* \"#utility.yul\":18384:18393   */\n      dup12\n        /* \"#utility.yul\":18380:18402   */\n      add\n        /* \"#utility.yul\":18348:18412   */\n      tag_328\n      jump\t// in\n    tag_564:\n        /* \"#utility.yul\":18330:18412   */\n      swap3\n      pop\n      swap3\n      pop\n        /* \"#utility.yul\":18124:18422   */\n      pop\n        /* \"#utility.yul\":17122:18429   */\n      swap3\n      swap6\n      swap9\n      swap2\n      swap5\n      swap8\n      pop\n      swap3\n      swap6\n      pop\n      jump\t// out\n        /* \"#utility.yul\":18435:18604   */\n    tag_338:\n        /* \"#utility.yul\":18519:18530   */\n      0x00\n        /* \"#utility.yul\":18553:18559   */\n      dup3\n        /* \"#utility.yul\":18548:18551   */\n      dup3\n        /* \"#utility.yul\":18541:18560   */\n      mstore\n        /* \"#utility.yul\":18593:18597   */\n      0x20\n        /* \"#utility.yul\":18588:18591   */\n      dup3\n        /* \"#utility.yul\":18584:18598   */\n      add\n        /* \"#utility.yul\":18569:18598   */\n      swap1\n      pop\n        /* \"#utility.yul\":18435:18604   */\n      swap3\n      swap2\n      pop\n      pop\n      jump\t// out\n        /* \"#utility.yul\":18610:18778   */\n    tag_339:\n        /* \"#utility.yul\":18750:18770   */\n      0x496e76616c696420636f6d6d69746d656e740000000000000000000000000000\n        /* \"#utility.yul\":18746:18747   */\n      0x00\n        /* \"#utility.yul\":18738:18744   */\n      dup3\n        /* \"#utility.yul\":18734:18748   */\n      add\n        /* \"#utility.yul\":18727:18771   */\n      mstore\n        /* \"#utility.yul\":18610:18778   */\n      pop\n      jump\t// out\n        /* \"#utility.yul\":18784:19150   */\n    tag_340:\n        /* \"#utility.yul\":18926:18929   */\n      0x00\n        /* \"#utility.yul\":18947:19014   */\n      tag_568\n        /* \"#utility.yul\":19011:19013   */\n      0x12\n        /* \"#utility.yul\":19006:19009   */\n      dup4\n        /* \"#utility.yul\":18947:19014   */\n      tag_338\n      jump\t// in\n    tag_568:\n        /* \"#utility.yul\":18940:19014   */\n      swap2\n      pop\n        /* \"#utility.yul\":19023:19116   */\n      tag_569\n        /* \"#utility.yul\":19112:19115   */\n      dup3\n        /* \"#utility.yul\":19023:19116   */\n      tag_339\n      jump\t// in\n    tag_569:\n        /* \"#utility.yul\":19141:19143   */\n      0x20\n        /* \"#utility.yul\":19136:19139   */\n      dup3\n        /* \"#utility.yul\":19132:19144   */\n      add\n        /* \"#utility.yul\":19125:19144   */\n      swap1\n      pop\n        /* \"#utility.yul\":18784:19150   */\n      swap2\n      swap1\n      pop\n      jump\t// out\n        /* \"#utility.yul\":19156:19575   */\n    tag_96:\n        /* \"#utility.yul\":19322:19326   */\n      0x00\n        /* \"#utility.yul\":19360:19362   */\n      0x20\n        /* \"#utility.yul\":19349:19358   */\n      dup3\n        /* \"#utility.yul\":19345:19363   */\n      add\n        /* \"#utility.yul\":19337:19363   */\n      swap1\n      pop\n        /* \"#utility.yul\":19409:19418   */\n      dup2\n        /* \"#utility.yul\":19403:19407   */\n      dup2\n        /* \"#utility.yul\":19399:19419   */\n      sub\n        /* \"#utility.yul\":19395:19396   */\n      0x00\n        /* \"#utility.yul\":19384:19393   */\n      dup4\n        /* \"#utility.yul\":19380:19397   */\n      add\n        /* \"#utility.yul\":19373:19420   */\n      mstore\n        /* \"#utility.yul\":19437:19568   */\n      tag_571\n        /* \"#utility.yul\":19563:19567   */\n      dup2\n        /* \"#utility.yul\":19437:19568   */\n      tag_340\n      jump\t// in\n    tag_571:\n        /* \"#utility.yul\":19429:19568   */\n      swap1\n      pop\n        /* \"#utility.yul\":19156:19575   */\n      swap2\n      swap1\n      pop\n      jump\t// out\n        /* \"#utility.yul\":19581:19748   */\n    tag_341:\n        /* \"#utility.yul\":19721:19740   */\n      0x4d657373616765206e6f7420666f756e64000000000000000000000000000000\n        /* \"#utility.yul\":19717:19718   */\n      0x00\n        /* \"#utility.yul\":19709:19715   */\n      dup3\n        /* \"#utility.yul\":19705:19719   */\n      add\n        /* \"#utility.yul\":19698:19741   */\n      mstore\n        /* \"#utility.yul\":19581:19748   */\n      pop\n      jump\t// out\n        /* \"#utility.yul\":19754:20120   */\n    tag_342:\n        /* \"#utility.yul\":19896:19899   */\n      0x00\n        /* \"#utility.yul\":19917:19984   */\n      tag_574\n        /* \"#utility.yul\":19981:19983   */\n      0x11\n        /* \"#utility.yul\":19976:19979   */\n      dup4\n        /* \"#utility.yul\":19917:19984   */\n      tag_338\n      jump\t// in\n    tag_574:\n        /* \"#utility.yul\":19910:19984   */\n      swap2\n      pop\n        /* \"#utility.yul\":19993:20086   */\n      tag_575\n        /* \"#utility.yul\":20082:20085   */\n      dup3\n        /* \"#utility.yul\":19993:20086   */\n      tag_341\n      jump\t// in\n    tag_575:\n        /* \"#utility.yul\":20111:20113   */\n      0x20\n        /* \"#utility.yul\":20106:20109   */\n      dup3\n        /* \"#utility.yul\":20102:20114   */\n      add\n        /* \"#utility.yul\":20095:20114   */\n      swap1\n      pop\n        /* \"#utility.yul\":19754:20120   */\n      swap2\n      swap1\n      pop\n      jump\t// out\n        /* \"#utility.yul\":20126:20545   */\n    tag_99:\n        /* \"#utility.yul\":20292:20296   */\n      0x00\n        /* \"#utility.yul\":20330:20332   */\n      0x20\n        /* \"#utility.yul\":20319:20328   */\n      dup3\n        /* \"#utility.yul\":20315:20333   */\n      add\n        /* \"#utility.yul\":20307:20333   */\n      swap1\n      pop\n        /* \"#utility.yul\":20379:20388   */\n      dup2\n        /* \"#utility.yul\":20373:20377   */\n      dup2\n        /* \"#utility.yul\":20369:20389   */\n      sub\n        /* \"#utility.yul\":20365:20366   */\n      0x00\n        /* \"#utility.yul\":20354:20363   */\n      dup4\n        /* \"#utility.yul\":20350:20367   */\n      add\n        /* \"#utility.yul\":20343:20390   */\n      mstore\n        /* \"#utility.yul\":20407:20538   */\n      tag_577\n        /* \"#utility.yul\":20533:20537   */\n      dup2\n        /* \"#utility.yul\":20407:20538   */\n      tag_342\n      jump\t// in\n    tag_577:\n        /* \"#utility.yul\":20399:20538   */\n      swap1\n      pop\n        /* \"#utility.yul\":20126:20545   */\n      swap2\n      swap1\n      pop\n      jump\t// out\n        /* \"#utility.yul\":20551:20731   */\n    tag_343:\n        /* \"#utility.yul\":20599:20676   */\n      0x4e487b7100000000000000000000000000000000000000000000000000000000\n        /* \"#utility.yul\":20596:20597   */\n      0x00\n        /* \"#utility.yul\":20589:20677   */\n      mstore\n        /* \"#utility.yul\":20696:20700   */\n      0x22\n        /* \"#utility.yul\":20693:20694   */\n      0x04\n        /* \"#utility.yul\":20686:20701   */\n      mstore\n        /* \"#utility.yul\":20720:20724   */\n      0x24\n        /* \"#utility.yul\":20717:20718   */\n      0x00\n        /* \"#utility.yul\":20710:20725   */\n      revert\n        /* \"#utility.yul\":20737:21057   */\n    tag_101:\n        /* \"#utility.yul\":20781:20787   */\n      0x00\n        /* \"#utility.yul\":20818:20819   */\n      0x02\n        /* \"#utility.yul\":20812:20816   */\n      dup3\n        /* \"#utility.yul\":20808:20820   */\n      div\n        /* \"#utility.yul\":20798:20820   */\n      swap1\n      pop\n        /* \"#utility.yul\":20865:20866   */\n      0x01\n        /* \"#utility.yul\":20859:20863   */\n      dup3\n        /* \"#utility.yul\":20855:20867   */\n      and\n        /* \"#utility.yul\":20886:20904   */\n      dup1\n        /* \"#utility.yul\":20876:20957   */\n      tag_580\n      jumpi\n        /* \"#utility.yul\":20942:20946   */\n      0x7f\n        /* \"#utility.yul\":20934:20940   */\n      dup3\n        /* \"#utility.yul\":20930:20947   */\n      and\n        /* \"#utility.yul\":20920:20947   */\n      swap2\n      pop\n        /* \"#utility.yul\":20876:20957   */\n    tag_580:\n        /* \"#utility.yul\":21004:21006   */\n      0x20\n        /* \"#utility.yul\":20996:21002   */\n      dup3\n        /* \"#utility.yul\":20993:21007   */\n      lt\n        /* \"#utility.yul\":20973:20991   */\n      dup2\n        /* \"#utility.yul\":20970:21008   */\n      sub\n        /* \"#utility.yul\":20967:21051   */\n      tag_581\n      jumpi\n        /* \"#utility.yul\":21023:21041   */\n      tag_582\n      tag_343\n      jump\t// in\n    tag_582:\n        /* \"#utility.yul\":20967:21051   */\n    tag_581:\n        /* \"#utility.yul\":20788:21057   */\n      pop\n        /* \"#utility.yul\":20737:21057   */\n      swap2\n      swap1\n      pop\n      jump\t// out\n        /* \"#utility.yul\":21063:21230   */\n    tag_344:\n        /* \"#utility.yul\":21203:21222   */\n      0x496e76616c696420726563697069656e74000000000000000000000000000000\n        /* \"#utility.yul\":21199:21200   */\n      0x00\n        /* \"#utility.yul\":21191:21197   */\n      dup3\n        /* \"#utility.yul\":21187:21201   */\n      add\n        /* \"#utility.yul\":21180:21223   */\n      mstore\n        /* \"#utility.yul\":21063:21230   */\n      pop\n      jump\t// out\n        /* \"#utility.yul\":21236:21602   */\n    tag_345:\n        /* \"#utility.yul\":21378:21381   */\n      0x00\n        /* \"#utility.yul\":21399:21466   */\n      tag_585\n        /* \"#utility.yul\":21463:21465   */\n      0x11\n        /* \"#utility.yul\":21458:21461   */\n      dup4\n        /* \"#utility.yul\":21399:21466   */\n      tag_338\n      jump\t// in\n    tag_585:\n        /* \"#utility.yul\":21392:21466   */\n      swap2\n      pop\n        /* \"#utility.yul\":21475:21568   */\n      tag_586\n        /* \"#utility.yul\":21564:21567   */\n      dup3\n        /* \"#utility.yul\":21475:21568   */\n      tag_344\n      jump\t// in\n    tag_586:\n        /* \"#utility.yul\":21593:21595   */\n      0x20\n        /* \"#utility.yul\":21588:21591   */\n      dup3\n        /* \"#utility.yul\":21584:21596   */\n      add\n        /* \"#utility.yul\":21577:21596   */\n      swap1\n      pop\n        /* \"#utility.yul\":21236:21602   */\n      swap2\n      swap1\n      pop\n      jump\t// out\n        /* \"#utility.yul\":21608:22027   */\n    tag_131:\n        /* \"#utility.yul\":21774:21778   */\n      0x00\n        /* \"#utility.yul\":21812:21814   */\n      0x20\n        /* \"#utility.yul\":21801:21810   */\n      dup3\n        /* \"#utility.yul\":21797:21815   */\n      add\n        /* \"#utility.yul\":21789:21815   */\n      swap1\n      pop\n        /* \"#utility.yul\":21861:21870   */\n      dup2\n        /* \"#utility.yul\":21855:21859   */\n      dup2\n        /* \"#utility.yul\":21851:21871   */\n      sub\n        /* \"#utility.yul\":21847:21848   */\n      0x00\n        /* \"#utility.yul\":21836:21845   */\n      dup4\n        /* \"#utility.yul\":21832:21849   */\n      add\n        /* \"#utility.yul\":21825:21872   */\n      mstore\n        /* \"#utility.yul\":21889:22020   */\n      tag_588\n        /* \"#utility.yul\":22015:22019   */\n      dup2\n        /* \"#utility.yul\":21889:22020   */\n      tag_345\n      jump\t// in\n    tag_588:\n        /* \"#utility.yul\":21881:22020   */\n      swap1\n      pop\n        /* \"#utility.yul\":21608:22027   */\n      swap2\n      swap1\n      pop\n      jump\t// out\n        /* \"#utility.yul\":22033:22196   */\n    tag_346:\n        /* \"#utility.yul\":22173:22188   */\n      0x456d707479206d65737361676500000000000000000000000000000000000000\n        /* \"#utility.yul\":22169:22170   */\n      0x00\n        /* \"#utility.yul\":22161:22167   */\n      dup3\n        /* \"#utility.yul\":22157:22171   */\n      add\n        /* \"#utility.yul\":22150:22189   */\n      mstore\n        /* \"#utility.yul\":22033:22196   */\n      pop\n      jump\t// out\n        /* \"#utility.yul\":22202:22568   */\n    tag_347:\n        /* \"#utility.yul\":22344:22347   */\n      0x00\n        /* \"#utility.yul\":22365:22432   */\n      tag_591\n        /* \"#utility.yul\":22429:22431   */\n      0x0d\n        /* \"#utility.yul\":22424:22427   */\n      dup4\n        /* \"#utility.yul\":22365:22432   */\n      tag_338\n      jump\t// in\n    tag_591:\n        /* \"#utility.yul\":22358:22432   */\n      swap2\n      pop\n        /* \"#utility.yul\":22441:22534   */\n      tag_592\n        /* \"#utility.yul\":22530:22533   */\n      dup3\n        /* \"#utility.yul\":22441:22534   */\n      tag_346\n      jump\t// in\n    tag_592:\n        /* \"#utility.yul\":22559:22561   */\n      0x20\n        /* \"#utility.yul\":22554:22557   */\n      dup3\n        /* \"#utility.yul\":22550:22562   */\n      add\n        /* \"#utility.yul\":22543:22562   */\n      swap1\n      pop\n        /* \"#utility.yul\":22202:22568   */\n      swap2\n      swap1\n      pop\n      jump\t// out\n        /* \"#utility.yul\":22574:22993   */\n    tag_134:\n        /* \"#utility.yul\":22740:22744   */\n      0x00\n        /* \"#utility.yul\":22778:22780   */\n      0x20\n        /* \"#utility.yul\":22767:22776   */\n      dup3\n        /* \"#utility.yul\":22763:22781   */\n      add\n        /* \"#utility.yul\":22755:22781   */\n      swap1\n      pop\n        /* \"#utility.yul\":22827:22836   */\n      dup2\n        /* \"#utility.yul\":22821:22825   */\n      dup2\n        /* \"#utility.yul\":22817:22837   */\n      sub\n        /* \"#utility.yul\":22813:22814   */\n      0x00\n        /* \"#utility.yul\":22802:22811   */\n      dup4\n        /* \"#utility.yul\":22798:22815   */\n      add\n        /* \"#utility.yul\":22791:22838   */\n      mstore\n        /* \"#utility.yul\":22855:22986   */\n      tag_594\n        /* \"#utility.yul\":22981:22985   */\n      dup2\n        /* \"#utility.yul\":22855:22986   */\n      tag_347\n      jump\t// in\n    tag_594:\n        /* \"#utility.yul\":22847:22986   */\n      swap1\n      pop\n        /* \"#utility.yul\":22574:22993   */\n      swap2\n      swap1\n      pop\n      jump\t// out\n        /* \"#utility.yul\":22999:23078   */\n    tag_348:\n        /* \"#utility.yul\":23038:23045   */\n      0x00\n        /* \"#utility.yul\":23067:23072   */\n      dup2\n        /* \"#utility.yul\":23056:23072   */\n      swap1\n      pop\n        /* \"#utility.yul\":22999:23078   */\n      swap2\n      swap1\n      pop\n      jump\t// out\n        /* \"#utility.yul\":23084:23241   */\n    tag_349:\n        /* \"#utility.yul\":23189:23234   */\n      tag_597\n        /* \"#utility.yul\":23209:23233   */\n      tag_598\n        /* \"#utility.yul\":23227:23232   */\n      dup3\n        /* \"#utility.yul\":23209:23233   */\n      tag_295\n      jump\t// in\n    tag_598:\n        /* \"#utility.yul\":23189:23234   */\n      tag_348\n      jump\t// in\n    tag_597:\n        /* \"#utility.yul\":23184:23187   */\n      dup3\n        /* \"#utility.yul\":23177:23235   */\n      mstore\n        /* \"#utility.yul\":23084:23241   */\n      pop\n      pop\n      jump\t// out\n        /* \"#utility.yul\":23247:23341   */\n    tag_350:\n        /* \"#utility.yul\":23280:23288   */\n      0x00\n        /* \"#utility.yul\":23328:23333   */\n      dup2\n        /* \"#utility.yul\":23324:23326   */\n      0x60\n        /* \"#utility.yul\":23320:23334   */\n      shl\n        /* \"#utility.yul\":23299:23334   */\n      swap1\n      pop\n        /* \"#utility.yul\":23247:23341   */\n      swap2\n      swap1\n      pop\n      jump\t// out\n        /* \"#utility.yul\":23347:23441   */\n    tag_351:\n        /* \"#utility.yul\":23386:23393   */\n      0x00\n        /* \"#utility.yul\":23415:23435   */\n      tag_601\n        /* \"#utility.yul\":23429:23434   */\n      dup3\n        /* \"#utility.yul\":23415:23435   */\n      tag_350\n      jump\t// in\n    tag_601:\n        /* \"#utility.yul\":23404:23435   */\n      swap1\n      pop\n        /* \"#utility.yul\":23347:23441   */\n      swap2\n      swap1\n      pop\n      jump\t// out\n        /* \"#utility.yul\":23447:23547   */\n    tag_352:\n        /* \"#utility.yul\":23486:23493   */\n      0x00\n        /* \"#utility.yul\":23515:23541   */\n      tag_603\n        /* \"#utility.yul\":23535:23540   */\n      dup3\n        /* \"#utility.yul\":23515:23541   */\n      tag_351\n      jump\t// in\n    tag_603:\n        /* \"#utility.yul\":23504:23541   */\n      swap1\n      pop\n        /* \"#utility.yul\":23447:23547   */\n      swap2\n      swap1\n      pop\n      jump\t// out\n        /* \"#utility.yul\":23553:23710   */\n    tag_353:\n        /* \"#utility.yul\":23658:23703   */\n      tag_605\n        /* \"#utility.yul\":23678:23702   */\n      tag_606\n        /* \"#utility.yul\":23696:23701   */\n      dup3\n        /* \"#utility.yul\":23678:23702   */\n      tag_300\n      jump\t// in\n    tag_606:\n        /* \"#utility.yul\":23658:23703   */\n      tag_352\n      jump\t// in\n    tag_605:\n        /* \"#utility.yul\":23653:23656   */\n      dup3\n        /* \"#utility.yul\":23646:23704   */\n      mstore\n        /* \"#utility.yul\":23553:23710   */\n      pop\n      pop\n      jump\t// out\n        /* \"#utility.yul\":23716:24254   */\n    tag_136:\n        /* \"#utility.yul\":23884:23887   */\n      0x00\n        /* \"#utility.yul\":23899:23974   */\n      tag_608\n        /* \"#utility.yul\":23970:23973   */\n      dup3\n        /* \"#utility.yul\":23961:23967   */\n      dup7\n        /* \"#utility.yul\":23899:23974   */\n      tag_349\n      jump\t// in\n    tag_608:\n        /* \"#utility.yul\":23999:24001   */\n      0x20\n        /* \"#utility.yul\":23994:23997   */\n      dup3\n        /* \"#utility.yul\":23990:24002   */\n      add\n        /* \"#utility.yul\":23983:24002   */\n      swap2\n      pop\n        /* \"#utility.yul\":24012:24087   */\n      tag_609\n        /* \"#utility.yul\":24083:24086   */\n      dup3\n        /* \"#utility.yul\":24074:24080   */\n      dup6\n        /* \"#utility.yul\":24012:24087   */\n      tag_353\n      jump\t// in\n    tag_609:\n        /* \"#utility.yul\":24112:24114   */\n      0x14\n        /* \"#utility.yul\":24107:24110   */\n      dup3\n        /* \"#utility.yul\":24103:24115   */\n      add\n        /* \"#utility.yul\":24096:24115   */\n      swap2\n      pop\n        /* \"#utility.yul\":24125:24200   */\n      tag_610\n        /* \"#utility.yul\":24196:24199   */\n      dup3\n        /* \"#utility.yul\":24187:24193   */\n      dup5\n        /* \"#utility.yul\":24125:24200   */\n      tag_353\n      jump\t// in\n    tag_610:\n        /* \"#utility.yul\":24225:24227   */\n      0x14\n        /* \"#utility.yul\":24220:24223   */\n      dup3\n        /* \"#utility.yul\":24216:24228   */\n      add\n        /* \"#utility.yul\":24209:24228   */\n      swap2\n      pop\n        /* \"#utility.yul\":24245:24248   */\n      dup2\n        /* \"#utility.yul\":24238:24248   */\n      swap1\n      pop\n        /* \"#utility.yul\":23716:24254   */\n      swap5\n      swap4\n      pop\n      pop\n      pop\n      pop\n      jump\t// out\n        /* \"#utility.yul\":24260:24440   */\n    tag_173:\n        /* \"#utility.yul\":24308:24385   */\n      0x4e487b7100000000000000000000000000000000000000000000000000000000\n        /* \"#utility.yul\":24305:24306   */\n      0x00\n        /* \"#utility.yul\":24298:24386   */\n      mstore\n        /* \"#utility.yul\":24405:24409   */\n      0x41\n        /* \"#utility.yul\":24402:24403   */\n      0x04\n        /* \"#utility.yul\":24395:24410   */\n      mstore\n        /* \"#utility.yul\":24429:24433   */\n      0x24\n        /* \"#utility.yul\":24426:24427   */\n      0x00\n        /* \"#utility.yul\":24419:24434   */\n      revert\n        /* \"#utility.yul\":24446:24586   */\n    tag_354:\n        /* \"#utility.yul\":24494:24498   */\n      0x00\n        /* \"#utility.yul\":24517:24520   */\n      dup2\n        /* \"#utility.yul\":24509:24520   */\n      swap1\n      pop\n        /* \"#utility.yul\":24540:24543   */\n      dup2\n        /* \"#utility.yul\":24537:24538   */\n      0x00\n        /* \"#utility.yul\":24530:24544   */\n      mstore\n        /* \"#utility.yul\":24574:24578   */\n      0x20\n        /* \"#utility.yul\":24571:24572   */\n      0x00\n        /* \"#utility.yul\":24561:24579   */\n      keccak256\n        /* \"#utility.yul\":24553:24579   */\n      swap1\n      pop\n        /* \"#utility.yul\":24446:24586   */\n      swap2\n      swap1\n      pop\n      jump\t// out\n        /* \"#utility.yul\":24592:24685   */\n    tag_355:\n        /* \"#utility.yul\":24629:24635   */\n      0x00\n        /* \"#utility.yul\":24676:24678   */\n      0x20\n        /* \"#utility.yul\":24671:24673   */\n      0x1f\n        /* \"#utility.yul\":24664:24669   */\n      dup4\n        /* \"#utility.yul\":24660:24674   */\n      add\n        /* \"#utility.yul\":24656:24679   */\n      div\n        /* \"#utility.yul\":24646:24679   */\n      swap1\n      pop\n        /* \"#utility.yul\":24592:24685   */\n      swap2\n      swap1\n      pop\n      jump\t// out\n        /* \"#utility.yul\":24691:24798   */\n    tag_356:\n        /* \"#utility.yul\":24735:24743   */\n      0x00\n        /* \"#utility.yul\":24785:24790   */\n      dup3\n        /* \"#utility.yul\":24779:24783   */\n      dup3\n        /* \"#utility.yul\":24775:24791   */\n      shl\n        /* \"#utility.yul\":24754:24791   */\n      swap1\n      pop\n        /* \"#utility.yul\":24691:24798   */\n      swap3\n      swap2\n      pop\n      pop\n      jump\t// out\n        /* \"#utility.yul\":24804:25197   */\n    tag_357:\n        /* \"#utility.yul\":24873:24879   */\n      0x00\n        /* \"#utility.yul\":24923:24924   */\n      0x08\n        /* \"#utility.yul\":24911:24921   */\n      dup4\n        /* \"#utility.yul\":24907:24925   */\n      mul\n        /* \"#utility.yul\":24946:25043   */\n      tag_616\n        /* \"#utility.yul\":24976:25042   */\n      0xffffffffffffffffffffffffffffffffffffffffffffffffffffffffffffffff\n        /* \"#utility.yul\":24965:24974   */\n      dup3\n        /* \"#utility.yul\":24946:25043   */\n      tag_356\n      jump\t// in\n    tag_616:\n        /* \"#utility.yul\":25064:25103   */\n      tag_617\n        /* \"#utility.yul\":25094:25102   */\n      dup7\n        /* \"#utility.yul\":25083:25092   */\n      dup4\n        /* \"#utility.yul\":25064:25103   */\n      tag_356\n      jump\t// in\n    tag_617:\n        /* \"#utility.yul\":25052:25103   */\n      swap6\n      pop\n        /* \"#utility.yul\":25136:25140   */\n      dup1\n        /* \"#utility.yul\":25132:25141   */\n      not\n        /* \"#utility.yul\":25125:25130   */\n      dup5\n        /* \"#utility.yul\":25121:25142   */\n      and\n        /* \"#utility.yul\":25112:25142   */\n      swap4\n      pop\n        /* \"#utility.yul\":25185:25189   */\n      dup1\n        /* \"#utility.yul\":25175:25183   */\n      dup7\n        /* \"#utility.yul\":25171:25190   */\n      and\n        /* \"#utility.yul\":25164:25169   */\n      dup5\n        /* \"#utility.yul\":25161:25191   */\n      or\n        /* \"#utility.yul\":25151:25191   */\n      swap3\n      pop\n        /* \"#utility.yul\":24880:25197   */\n      pop\n      pop\n        /* \"#utility.yul\":24804:25197   */\n      swap4\n      swap3\n      pop\n      pop\n      pop\n      jump\t// out\n        /* \"#utility.yul\":25203:25345   */\n    tag_358:\n        /* \"#utility.yul\":25253:25262   */\n      0x00\n        /* \"#utility.yul\":25286:25339   */\n      tag_619\n        /* \"#utility.yul\":25304:25338   */\n      tag_620\n        /* \"#utility.yul\":25313:25337   */\n      tag_621\n        /* \"#utility.yul\":25331:25336   */\n      dup5\n        /* \"#utility.yul\":25313:25337   */\n      tag_307\n      jump\t// in\n    tag_621:\n        /* \"#utility.yul\":25304:25338   */\n      tag_315\n      jump\t// in\n    tag_620:\n        /* \"#utility.yul\":25286:25339   */\n      tag_307\n      jump\t// in\n    tag_619:\n        /* \"#utility.yul\":25273:25339   */\n      swap1\n      pop\n        /* \"#utility.yul\":25203:25345   */\n      swap2\n      swap1\n      pop\n      jump\t// out\n        /* \"#utility.yul\":25351:25426   */\n    tag_359:\n        /* \"#utility.yul\":25394:25397   */\n      0x00\n        /* \"#utility.yul\":25415:25420   */\n      dup2\n        /* \"#utility.yul\":25408:25420   */\n      swap1\n      pop\n        /* \"#utility.yul\":25351:25426   */\n      swap2\n      swap1\n      pop\n      jump\t// out\n        /* \"#utility.yul\":25432:25701   */\n    tag_360:\n        /* \"#utility.yul\":25542:25581   */\n      tag_624\n        /* \"#utility.yul\":25573:25580   */\n      dup4\n        /* \"#utility.yul\":25542:25581   */\n      tag_358\n      jump\t// in\n    tag_624:\n        /* \"#utility.yul\":25603:25694   */\n      tag_625\n        /* \"#utility.yul\":25652:25693   */\n      tag_626\n        /* \"#utility.yul\":25676:25692   */\n      dup3\n        /* \"#utility.yul\":25652:25693   */\n      tag_359\n      jump\t// in\n    tag_626:\n        /* \"#utility.yul\":25644:25650   */\n      dup5\n        /* \"#utility.yul\":25637:25641   */\n      dup5\n        /* \"#utility.yul\":25631:25642   */\n      sload\n        /* \"#utility.yul\":25603:25694   */\n      tag_357\n      jump\t// in\n    tag_625:\n        /* \"#utility.yul\":25597:25601   */\n      dup3\n        /* \"#utility.yul\":25590:25695   */\n      sstore\n        /* \"#utility.yul\":25508:25701   */\n      pop\n        /* \"#utility.yul\":25432:25701   */\n      pop\n      pop\n      pop\n      jump\t// out\n        /* \"#utility.yul\":25707:25780   */\n    tag_361:\n        /* \"#utility.yul\":25752:25755   */\n      0x00\n        /* \"#utility.yul\":25707:25780   */\n      swap1\n      jump\t// out\n        /* \"#utility.yul\":25786:25975   */\n    tag_362:\n        /* \"#utility.yul\":25863:25895   */\n      tag_629\n      tag_361\n      jump\t// in\n    tag_629:\n        /* \"#utility.yul\":25904:25969   */\n      tag_630\n        /* \"#utility.yul\":25962:25968   */\n      dup2\n        /* \"#utility.yul\":25954:25960   */\n      dup5\n        /* \"#utility.yul\":25948:25952   */\n      dup5\n        /* \"#utility.yul\":25904:25969   */\n      tag_360\n      jump\t// in\n    tag_630:\n        /* \"#utility.yul\":25839:25975   */\n      pop\n        /* \"#utility.yul\":25786:25975   */\n      pop\n      pop\n      jump\t// out\n        /* \"#utility.yul\":25981:26167   */\n    tag_363:\n        /* \"#utility.yul\":26041:26161   */\n    tag_632:\n        /* \"#utility.yul\":26058:26061   */\n      dup2\n        /* \"#utility.yul\":26051:26056   */\n      dup2\n        /* \"#utility.yul\":26048:26062   */\n      lt\n        /* \"#utility.yul\":26041:26161   */\n      iszero\n      tag_634\n      jumpi\n        /* \"#utility.yul\":26112:26151   */\n      tag_635\n        /* \"#utility.yul\":26149:26150   */\n      0x00\n        /* \"#utility.yul\":26142:26147   */\n      dup3\n        /* \"#utility.yul\":26112:26151   */\n      tag_362\n      jump\t// in\n    tag_635:\n        /* \"#utility.yul\":26085:26086   */\n      0x01\n        /* \"#utility.yul\":26078:26083   */\n      dup2\n        /* \"#utility.yul\":26074:26087   */\n      add\n        /* \"#utility.yul\":26065:26087   */\n      swap1\n      pop\n        /* \"#utility.yul\":26041:26161   */\n      jump(tag_632)\n    tag_634:\n        /* \"#utility.yul\":25981:26167   */\n      pop\n      pop\n      jump\t// out\n        /* \"#utility.yul\":26173:26714   */\n    tag_364:\n        /* \"#utility.yul\":26273:26275   */\n      0x1f\n        /* \"#utility.yul\":26268:26271   */\n      dup3\n        /* \"#utility.yul\":26265:26276   */\n      gt\n        /* \"#utility.yul\":26262:26707   */\n      iszero\n      tag_637\n      jumpi\n        /* \"#utility.yul\":26307:26344   */\n      tag_638\n        /* \"#utility.yul\":26338:26343   */\n      dup2\n        /* \"#utility.yul\":26307:26344   */\n      tag_354\n      jump\t// in\n    tag_638:\n        /* \"#utility.yul\":26390:26419   */\n      tag_639\n        /* \"#utility.yul\":26408:26418   */\n      dup5\n        /* \"#utility.yul\":26390:26419   */\n      tag_355\n      jump\t// in\n    tag_639:\n        /* \"#utility.yul\":26380:26388   */\n      dup2\n        /* \"#utility.yul\":26376:26420   */\n      add\n        /* \"#utility.yul\":26573:26575   */\n      0x20\n        /* \"#utility.yul\":26561:26571   */\n      dup6\n        /* \"#utility.yul\":26558:26576   */\n      lt\n        /* \"#utility.yul\":26555:26604   */\n      iszero\n      tag_640\n      jumpi\n        /* \"#utility.yul\":26594:26602   */\n      dup2\n        /* \"#utility.yul\":26579:26602   */\n      swap1\n      pop\n        /* \"#utility.yul\":26555:26604   */\n    tag_640:\n        /* \"#utility.yul\":26617:26697   */\n      tag_641\n        /* \"#utility.yul\":26673:26695   */\n      tag_642\n        /* \"#utility.yul\":26691:26694   */\n      dup6\n        /* \"#utility.yul\":26673:26695   */\n      tag_355\n      jump\t// in\n    tag_642:\n        /* \"#utility.yul\":26663:26671   */\n      dup4\n        /* \"#utility.yul\":26659:26696   */\n      add\n        /* \"#utility.yul\":26646:26657   */\n      dup3\n        /* \"#utility.yul\":26617:26697   */\n      tag_363\n      jump\t// in\n    tag_641:\n        /* \"#utility.yul\":26277:26707   */\n      pop\n      pop\n        /* \"#utility.yul\":26262:26707   */\n    tag_637:\n        /* \"#utility.yul\":26173:26714   */\n      pop\n      pop\n      pop\n      jump\t// out\n        /* \"#utility.yul\":26720:26837   */\n    tag_365:\n        /* \"#utility.yul\":26774:26782   */\n      0x00\n        /* \"#utility.yul\":26824:26829   */\n      dup3\n        /* \"#utility.yul\":26818:26822   */\n      dup3\n        /* \"#utility.yul\":26814:26830   */\n      shr\n        /* \"#utility.yul\":26793:26830   */\n      swap1\n      pop\n        /* \"#utility.yul\":26720:26837   */\n      swap3\n      swap2\n      pop\n      pop\n      jump\t// out\n        /* \"#utility.yul\":26843:27012   */\n    tag_366:\n        /* \"#utility.yul\":26887:26893   */\n      0x00\n        /* \"#utility.yul\":26920:26971   */\n      tag_645\n        /* \"#utility.yul\":26968:26969   */\n      0x00\n        /* \"#utility.yul\":26964:26970   */\n      not\n        /* \"#utility.yul\":26956:26961   */\n      dup5\n        /* \"#utility.yul\":26953:26954   */\n      0x08\n        /* \"#utility.yul\":26949:26962   */\n      mul\n        /* \"#utility.yul\":26920:26971   */\n      tag_365\n      jump\t// in\n    tag_645:\n        /* \"#utility.yul\":26916:26972   */\n      not\n        /* \"#utility.yul\":27001:27005   */\n      dup1\n        /* \"#utility.yul\":26995:26999   */\n      dup4\n        /* \"#utility.yul\":26991:27006   */\n      and\n        /* \"#utility.yul\":26981:27006   */\n      swap2\n      pop\n        /* \"#utility.yul\":26894:27012   */\n      pop\n        /* \"#utility.yul\":26843:27012   */\n      swap3\n      swap2\n      pop\n      pop\n      jump\t// out\n        /* \"#utility.yul\":27017:27312   */\n    tag_367:\n        /* \"#utility.yul\":27093:27097   */\n      0x00\n        /* \"#utility.yul\":27239:27268   */\n      tag_647\n        /* \"#utility.yul\":27264:27267   */\n      dup4\n        /* \"#utility.yul\":27258:27262   */\n      dup4\n        /* \"#utility.yul\":27239:27268   */\n      tag_366\n      jump\t// in\n    tag_647:\n        /* \"#utility.yul\":27231:27268   */\n      swap2\n      pop\n        /* \"#utility.yul\":27301:27304   */\n      dup3\n        /* \"#utility.yul\":27298:27299   */\n      0x02\n        /* \"#utility.yul\":27294:27305   */\n      mul\n        /* \"#utility.yul\":27288:27292   */\n      dup3\n        /* \"#utility.yul\":27285:27306   */\n      or\n        /* \"#utility.yul\":27277:27306   */\n      swap1\n      pop\n        /* \"#utility.yul\":27017:27312   */\n      swap3\n      swap2\n      pop\n      pop\n      jump\t// out\n        /* \"#utility.yul\":27317:28707   */\n    tag_138:\n        /* \"#utility.yul\":27432:27468   */\n      tag_649\n        /* \"#utility.yul\":27464:27467   */\n      dup3\n        /* \"#utility.yul\":27432:27468   */\n      tag_302\n      jump\t// in\n    tag_649:\n        /* \"#utility.yul\":27533:27551   */\n      0xffffffffffffffff\n        /* \"#utility.yul\":27525:27531   */\n      dup2\n        /* \"#utility.yul\":27522:27552   */\n      gt\n        /* \"#utility.yul\":27519:27575   */\n      iszero\n      tag_650\n      jumpi\n        /* \"#utility.yul\":27555:27573   */\n      tag_651\n      tag_173\n      jump\t// in\n    tag_651:\n        /* \"#utility.yul\":27519:27575   */\n    tag_650:\n        /* \"#utility.yul\":27599:27637   */\n      tag_652\n        /* \"#utility.yul\":27631:27635   */\n      dup3\n        /* \"#utility.yul\":27625:27636   */\n      sload\n        /* \"#utility.yul\":27599:27637   */\n      tag_101\n      jump\t// in\n    tag_652:\n        /* \"#utility.yul\":27684:27750   */\n      tag_653\n        /* \"#utility.yul\":27743:27749   */\n      dup3\n        /* \"#utility.yul\":27735:27741   */\n      dup3\n        /* \"#utility.yul\":27729:27733   */\n      dup6\n        /* \"#utility.yul\":27684:27750   */\n      tag_364\n      jump\t// in\n    tag_653:\n        /* \"#utility.yul\":27777:27778   */\n      0x00\n        /* \"#utility.yul\":27801:27805   */\n      0x20\n        /* \"#utility.yul\":27788:27805   */\n      swap1\n      pop\n        /* \"#utility.yul\":27833:27835   */\n      0x1f\n        /* \"#utility.yul\":27825:27831   */\n      dup4\n        /* \"#utility.yul\":27822:27836   */\n      gt\n        /* \"#utility.yul\":27850:27851   */\n      0x01\n        /* \"#utility.yul\":27845:28462   */\n      dup2\n      eq\n      tag_655\n      jumpi\n        /* \"#utility.yul\":28506:28507   */\n      0x00\n        /* \"#utility.yul\":28523:28529   */\n      dup5\n        /* \"#utility.yul\":28520:28597   */\n      iszero\n      tag_656\n      jumpi\n        /* \"#utility.yul\":28572:28581   */\n      dup3\n        /* \"#utility.yul\":28567:28570   */\n      dup8\n        /* \"#utility.yul\":28563:28582   */\n      add\n        /* \"#utility.yul\":28557:28583   */\n      mload\n        /* \"#utility.yul\":28548:28583   */\n      swap1\n      pop\n        /* \"#utility.yul\":28520:28597   */\n    tag_656:\n        /* \"#utility.yul\":28623:28690   */\n      tag_657\n        /* \"#utility.yul\":28683:28689   */\n      dup6\n        /* \"#utility.yul\":28676:28681   */\n      dup3\n        /* \"#utility.yul\":28623:28690   */\n      tag_367\n      jump\t// in\n    tag_657:\n        /* \"#utility.yul\":28617:28621   */\n      dup7\n        /* \"#utility.yul\":28610:28691   */\n      sstore\n        /* \"#utility.yul\":28479:28701   */\n      pop\n        /* \"#utility.yul\":27815:28701   */\n      jump(tag_654)\n        /* \"#utility.yul\":27845:28462   */\n    tag_655:\n        /* \"#utility.yul\":27897:27901   */\n      0x1f\n        /* \"#utility.yul\":27893:27902   */\n      not\n        /* \"#utility.yul\":27885:27891   */\n      dup5\n        /* \"#utility.yul\":27881:27903   */\n      and\n        /* \"#utility.yul\":27931:27967   */\n      tag_658\n        /* \"#utility.yul\":27962:27966   */\n      dup7\n        /* \"#utility.yul\":27931:27967   */\n      tag_354\n      jump\t// in\n    tag_658:\n        /* \"#utility.yul\":27989:27990   */\n      0x00\n        /* \"#utility.yul\":28003:28211   */\n    tag_659:\n        /* \"#utility.yul\":28017:28024   */\n      dup3\n        /* \"#utility.yul\":28014:28015   */\n      dup2\n        /* \"#utility.yul\":28011:28025   */\n      lt\n        /* \"#utility.yul\":28003:28211   */\n      iszero\n      tag_661\n      jumpi\n        /* \"#utility.yul\":28096:28105   */\n      dup5\n        /* \"#utility.yul\":28091:28094   */\n      dup10\n        /* \"#utility.yul\":28087:28106   */\n      add\n        /* \"#utility.yul\":28081:28107   */\n      mload\n        /* \"#utility.yul\":28073:28079   */\n      dup3\n        /* \"#utility.yul\":28066:28108   */\n      sstore\n        /* \"#utility.yul\":28147:28148   */\n      0x01\n        /* \"#utility.yul\":28139:28145   */\n      dup3\n        /* \"#utility.yul\":28135:28149   */\n      add\n        /* \"#utility.yul\":28125:28149   */\n      swap2\n      pop\n        /* \"#utility.yul\":28194:28196   */\n      0x20\n        /* \"#utility.yul\":28183:28192   */\n      dup6\n        /* \"#utility.yul\":28179:28197   */\n      add\n        /* \"#utility.yul\":28166:28197   */\n      swap5\n      pop\n        /* \"#utility.yul\":28040:28044   */\n      0x20\n        /* \"#utility.yul\":28037:28038   */\n      dup2\n        /* \"#utility.yul\":28033:28045   */\n      add\n        /* \"#utility.yul\":28028:28045   */\n      swap1\n      pop\n        /* \"#utility.yul\":28003:28211   */\n      jump(tag_659)\n    tag_661:\n        /* \"#utility.yul\":28239:28245   */\n      dup7\n        /* \"#utility.yul\":28230:28237   */\n      dup4\n        /* \"#utility.yul\":28227:28246   */\n      lt\n        /* \"#utility.yul\":28224:28403   */\n      iszero\n      tag_662\n      jumpi\n        /* \"#utility.yul\":28297:28306   */\n      dup5\n        /* \"#utility.yul\":28292:28295   */\n      dup10\n        /* \"#utility.yul\":28288:28307   */\n      add\n        /* \"#utility.yul\":28282:28308   */\n      mload\n        /* \"#utility.yul\":28340:28388   */\n      tag_663\n        /* \"#utility.yul\":28382:28386   */\n      0x1f\n        /* \"#utility.yul\":28374:28380   */\n      dup10\n        /* \"#utility.yul\":28370:28387   */\n      and\n        /* \"#utility.yul\":28359:28368   */\n      dup3\n        /* \"#utility.yul\":28340:28388   */\n      tag_366\n      jump\t// in\n    tag_663:\n        /* \"#utility.yul\":28332:28338   */\n      dup4\n        /* \"#utility.yul\":28325:28389   */\n      sstore\n        /* \"#utility.yul\":28247:28403   */\n      pop\n        /* \"#utility.yul\":28224:28403   */\n    tag_662:\n        /* \"#utility.yul\":28449:28450   */\n      0x01\n        /* \"#utility.yul\":28445:28446   */\n      0x02\n        /* \"#utility.yul\":28437:28443   */\n      dup9\n        /* \"#utility.yul\":28433:28447   */\n      mul\n        /* \"#utility.yul\":28429:28451   */\n      add\n        /* \"#utility.yul\":28423:28427   */\n      dup9\n        /* \"#utility.yul\":28416:28452   */\n      sstore\n        /* \"#utility.yul\":27852:28462   */\n      pop\n      pop\n      pop\n        /* \"#utility.yul\":27815:28701   */\n    tag_654:\n      pop\n        /* \"#utility.yul\":27407:28707   */\n      pop\n      pop\n      pop\n        /* \"#utility.yul\":27317:28707   */\n      pop\n      pop\n      jump\t// out\n        /* \"#utility.yul\":28713:28887   */\n    tag_368:\n        /* \"#utility.yul\":28853:28879   */\n      0x496e76616c696420766572696669657220616464726573730000000000000000\n        /* \"#utility.yul\":28849:28850   */\n      0x00\n        /* \"#utility.yul\":28841:28847   */\n      dup3\n        /* \"#utility.yul\":28837:28851   */\n      add\n        /* \"#utility.yul\":28830:28880   */\n      mstore\n        /* \"#utility.yul\":28713:28887   */\n      pop\n      jump\t// out\n        /* \"#utility.yul\":28893:29259   */\n    tag_369:\n        /* \"#utility.yul\":29035:29038   */\n      0x00\n        /* \"#utility.yul\":29056:29123   */\n      tag_666\n        /* \"#utility.yul\":29120:29122   */\n      0x18\n        /* \"#utility.yul\":29115:29118   */\n      dup4\n        /* \"#utility.yul\":29056:29123   */\n      tag_338\n      jump\t// in\n    tag_666:\n        /* \"#utility.yul\":29049:29123   */\n      swap2\n      pop\n        /* \"#utility.yul\":29132:29225   */\n      tag_667\n        /* \"#utility.yul\":29221:29224   */\n      dup3\n        /* \"#utility.yul\":29132:29225   */\n      tag_368\n      jump\t// in\n    tag_667:\n        /* \"#utility.yul\":29250:29252   */\n      0x20\n        /* \"#utility.yul\":29245:29248   */\n      dup3\n        /* \"#utility.yul\":29241:29253   */\n      add\n        /* \"#utility.yul\":29234:29253   */\n      swap1\n      pop\n        /* \"#utility.yul\":28893:29259   */\n      swap2\n      swap1\n      pop\n      jump\t// out\n        /* \"#utility.yul\":29265:29684   */\n    tag_155:\n        /* \"#utility.yul\":29431:29435   */\n      0x00\n        /* \"#utility.yul\":29469:29471   */\n      0x20\n        /* \"#utility.yul\":29458:29467   */\n      dup3\n        /* \"#utility.yul\":29454:29472   */\n      add\n        /* \"#utility.yul\":29446:29472   */\n      swap1\n      pop\n        /* \"#utility.yul\":29518:29527   */\n      dup2\n        /* \"#utility.yul\":29512:29516   */\n      dup2\n        /* \"#utility.yul\":29508:29528   */\n      sub\n        /* \"#utility.yul\":29504:29505   */\n      0x00\n        /* \"#utility.yul\":29493:29502   */\n      dup4\n        /* \"#utility.yul\":29489:29506   */\n      add\n        /* \"#utility.yul\":29482:29529   */\n      mstore\n        /* \"#utility.yul\":29546:29677   */\n      tag_669\n        /* \"#utility.yul\":29672:29676   */\n      dup2\n        /* \"#utility.yul\":29546:29677   */\n      tag_369\n      jump\t// in\n    tag_669:\n        /* \"#utility.yul\":29538:29677   */\n      swap1\n      pop\n        /* \"#utility.yul\":29265:29684   */\n      swap2\n      swap1\n      pop\n      jump\t// out\n        /* \"#utility.yul\":29690:29860   */\n    tag_370:\n        /* \"#utility.yul\":29830:29852   */\n      0x496e76616c696420757365722061646472657373000000000000000000000000\n        /* \"#utility.yul\":29826:29827   */\n      0x00\n        /* \"#utility.yul\":29818:29824   */\n      dup3\n        /* \"#utility.yul\":29814:29828   */\n      add\n        /* \"#utility.yul\":29807:29853   */\n      mstore\n        /* \"#utility.yul\":29690:29860   */\n      pop\n      jump\t// out\n        /* \"#utility.yul\":29866:30232   */\n    tag_371:\n        /* \"#utility.yul\":30008:30011   */\n      0x00\n        /* \"#utility.yul\":30029:30096   */\n      tag_672\n        /* \"#utility.yul\":30093:30095   */\n      0x14\n        /* \"#utility.yul\":30088:30091   */\n      dup4\n        /* \"#utility.yul\":30029:30096   */\n      tag_338\n      jump\t// in\n    tag_672:\n        /* \"#utility.yul\":30022:30096   */\n      swap2\n      pop\n        /* \"#utility.yul\":30105:30198   */\n      tag_673\n        /* \"#utility.yul\":30194:30197   */\n      dup3\n        /* \"#utility.yul\":30105:30198   */\n      tag_370\n      jump\t// in\n    tag_673:\n        /* \"#utility.yul\":30223:30225   */\n      0x20\n        /* \"#utility.yul\":30218:30221   */\n      dup3\n        /* \"#utility.yul\":30214:30226   */\n      add\n        /* \"#utility.yul\":30207:30226   */\n      swap1\n      pop\n        /* \"#utility.yul\":29866:30232   */\n      swap2\n      swap1\n      pop\n      jump\t// out\n        /* \"#utility.yul\":30238:30657   */\n    tag_159:\n        /* \"#utility.yul\":30404:30408   */\n      0x00\n        /* \"#utility.yul\":30442:30444   */\n      0x20\n        /* \"#utility.yul\":30431:30440   */\n      dup3\n        /* \"#utility.yul\":30427:30445   */\n      add\n        /* \"#utility.yul\":30419:30445   */\n      swap1\n      pop\n        /* \"#utility.yul\":30491:30500   */\n      dup2\n        /* \"#utility.yul\":30485:30489   */\n      dup2\n        /* \"#utility.yul\":30481:30501   */\n      sub\n        /* \"#utility.yul\":30477:30478   */\n      0x00\n        /* \"#utility.yul\":30466:30475   */\n      dup4\n        /* \"#utility.yul\":30462:30479   */\n      add\n        /* \"#utility.yul\":30455:30502   */\n      mstore\n        /* \"#utility.yul\":30519:30650   */\n      tag_675\n        /* \"#utility.yul\":30645:30649   */\n      dup2\n        /* \"#utility.yul\":30519:30650   */\n      tag_371\n      jump\t// in\n    tag_675:\n        /* \"#utility.yul\":30511:30650   */\n      swap1\n      pop\n        /* \"#utility.yul\":30238:30657   */\n      swap2\n      swap1\n      pop\n      jump\t// out\n        /* \"#utility.yul\":30663:30826   */\n    tag_372:\n        /* \"#utility.yul\":30803:30818   */\n      0x496e76616c6964206c696d697400000000000000000000000000000000000000\n        /* \"#utility.yul\":30799:30800   */\n      0x00\n        /* \"#utility.yul\":30791:30797   */\n      dup3\n        /* \"#utility.yul\":30787:30801   */\n      add\n        /* \"#utility.yul\":30780:30819   */\n      mstore\n        /* \"#utility.yul\":30663:30826   */\n      pop\n      jump\t// out\n        /* \"#utility.yul\":30832:31198   */\n    tag_373:\n        /* \"#utility.yul\":30974:30977   */\n      0x00\n        /* \"#utility.yul\":30995:31062   */\n      tag_678\n        /* \"#utility.yul\":31059:31061   */\n      0x0d\n        /* \"#utility.yul\":31054:31057   */\n      dup4\n        /* \"#utility.yul\":30995:31062   */\n      tag_338\n      jump\t// in\n    tag_678:\n        /* \"#utility.yul\":30988:31062   */\n      swap2\n      pop\n        /* \"#utility.yul\":31071:31164   */\n      tag_679\n        /* \"#utility.yul\":31160:31163   */\n      dup3\n        /* \"#utility.yul\":31071:31164   */\n      tag_372\n      jump\t// in\n    tag_679:\n        /* \"#utility.yul\":31189:31191   */\n      0x20\n        /* \"#utility.yul\":31184:31187   */\n      dup3\n        /* \"#utility.yul\":31180:31192   */\n      add\n        /* \"#utility.yul\":31173:31192   */\n      swap1\n      pop\n        /* \"#utility.yul\":30832:31198   */\n      swap2\n      swap1\n      pop\n      jump\t// out\n        /* \"#utility.yul\":31204:31623   */\n    tag_162:\n        /* \"#utility.yul\":31370:31374   */\n      0x00\n        /* \"#utility.yul\":31408:31410   */\n      0x20\n        /* \"#utility.yul\":31397:31406   */\n      dup3\n        /* \"#utility.yul\":31393:31411   */\n      add\n        /* \"#utility.yul\":31385:31411   */\n      swap1\n      pop\n        /* \"#utility.yul\":31457:31466   */\n      dup2\n        /* \"#utility.yul\":31451:31455   */\n      dup2\n        /* \"#utility.yul\":31447:31467   */\n      sub\n        /* \"#utility.yul\":31443:31444   */\n      0x00\n        /* \"#utility.yul\":31432:31441   */\n      dup4\n        /* \"#utility.yul\":31428:31445   */\n      add\n        /* \"#utility.yul\":31421:31468   */\n      mstore\n        /* \"#utility.yul\":31485:31616   */\n      tag_681\n        /* \"#utility.yul\":31611:31615   */\n      dup2\n        /* \"#utility.yul\":31485:31616   */\n      tag_373\n      jump\t// in\n    tag_681:\n        /* \"#utility.yul\":31477:31616   */\n      swap1\n      pop\n        /* \"#utility.yul\":31204:31623   */\n      swap2\n      swap1\n      pop\n      jump\t// out\n        /* \"#utility.yul\":31629:31809   */\n    tag_374:\n        /* \"#utility.yul\":31677:31754   */\n      0x4e487b7100000000000000000000000000000000000000000000000000000000\n        /* \"#utility.yul\":31674:31675   */\n      0x00\n        /* \"#utility.yul\":31667:31755   */\n      mstore\n        /* \"#utility.yul\":31774:31778   */\n      0x11\n        /* \"#utility.yul\":31771:31772   */\n      0x04\n        /* \"#utility.yul\":31764:31779   */\n      mstore\n        /* \"#utility.yul\":31798:31802   */\n      0x24\n        /* \"#utility.yul\":31795:31796   */\n      0x00\n        /* \"#utility.yul\":31788:31803   */\n      revert\n        /* \"#utility.yul\":31815:32006   */\n    tag_164:\n        /* \"#utility.yul\":31855:31858   */\n      0x00\n        /* \"#utility.yul\":31874:31894   */\n      tag_684\n        /* \"#utility.yul\":31892:31893   */\n      dup3\n        /* \"#utility.yul\":31874:31894   */\n      tag_307\n      jump\t// in\n    tag_684:\n        /* \"#utility.yul\":31869:31894   */\n      swap2\n      pop\n        /* \"#utility.yul\":31908:31928   */\n      tag_685\n        /* \"#utility.yul\":31926:31927   */\n      dup4\n        /* \"#utility.yul\":31908:31928   */\n      tag_307\n      jump\t// in\n    tag_685:\n        /* \"#utility.yul\":31903:31928   */\n      swap3\n      pop\n        /* \"#utility.yul\":31951:31952   */\n      dup3\n        /* \"#utility.yul\":31948:31949   */\n      dup3\n        /* \"#utility.yul\":31944:31953   */\n      add\n        /* \"#utility.yul\":31937:31953   */\n      swap1\n      pop\n        /* \"#utility.yul\":31972:31975   */\n      dup1\n        /* \"#utility.yul\":31969:31970   */\n      dup3\n        /* \"#utility.yul\":31966:31976   */\n      gt\n        /* \"#utility.yul\":31963:31999   */\n      iszero\n      tag_686\n      jumpi\n        /* \"#utility.yul\":31979:31997   */\n      tag_687\n      tag_374\n      jump\t// in\n    tag_687:\n        /* \"#utility.yul\":31963:31999   */\n    tag_686:\n        /* \"#utility.yul\":31815:32006   */\n      swap3\n      swap2\n      pop\n      pop\n      jump\t// out\n        /* \"#utility.yul\":32012:32176   */\n    tag_375:\n        /* \"#utility.yul\":32152:32168   */\n      0x496e76616c6964206f6666736574000000000000000000000000000000000000\n        /* \"#utility.yul\":32148:32149   */\n      0x00\n        /* \"#utility.yul\":32140:32146   */\n      dup3\n        /* \"#utility.yul\":32136:32150   */\n      add\n        /* \"#utility.yul\":32129:32169   */\n      mstore\n        /* \"#utility.yul\":32012:32176   */\n      pop\n      jump\t// out\n        /* \"#utility.yul\":32182:32548   */\n    tag_376:\n        /* \"#utility.yul\":32324:32327   */\n      0x00\n        /* \"#utility.yul\":32345:32412   */\n      tag_690\n        /* \"#utility.yul\":32409:32411   */\n      0x0e\n        /* \"#utility.yul\":32404:32407   */\n      dup4\n        /* \"#utility.yul\":32345:32412   */\n      tag_338\n      jump\t// in\n    tag_690:\n        /* \"#utility.yul\":32338:32412   */\n      swap2\n      pop\n        /* \"#utility.yul\":32421:32514   */\n      tag_691\n        /* \"#utility.yul\":32510:32513   */\n      dup3\n        /* \"#utility.yul\":32421:32514   */\n      tag_375\n      jump\t// in\n    tag_691:\n        /* \"#utility.yul\":32539:32541   */\n      0x20\n        /* \"#utility.yul\":32534:32537   */\n      dup3\n        /* \"#utility.yul\":32530:32542   */\n      add\n        /* \"#utility.yul\":32523:32542   */\n      swap1\n      pop\n        /* \"#utility.yul\":32182:32548   */\n      swap2\n      swap1\n      pop\n      jump\t// out\n        /* \"#utility.yul\":32554:32973   */\n    tag_168:\n        /* \"#utility.yul\":32720:32724   */\n      0x00\n        /* \"#utility.yul\":32758:32760   */\n      0x20\n        /* \"#utility.yul\":32747:32756   */\n      dup3\n        /* \"#utility.yul\":32743:32761   */\n      add\n        /* \"#utility.yul\":32735:32761   */\n      swap1\n      pop\n        /* \"#utility.yul\":32807:32816   */\n      dup2\n        /* \"#utility.yul\":32801:32805   */\n      dup2\n        /* \"#utility.yul\":32797:32817   */\n      sub\n        /* \"#utility.yul\":32793:32794   */\n      0x00\n        /* \"#utility.yul\":32782:32791   */\n      dup4\n        /* \"#utility.yul\":32778:32795   */\n      add\n        /* \"#utility.yul\":32771:32818   */\n      mstore\n        /* \"#utility.yul\":32835:32966   */\n      tag_693\n        /* \"#utility.yul\":32961:32965   */\n      dup2\n        /* \"#utility.yul\":32835:32966   */\n      tag_376\n      jump\t// in\n    tag_693:\n        /* \"#utility.yul\":32827:32966   */\n      swap1\n      pop\n        /* \"#utility.yul\":32554:32973   */\n      swap2\n      swap1\n      pop\n      jump\t// out\n        /* \"#utility.yul\":32979:33173   */\n    tag_170:\n        /* \"#utility.yul\":33019:33023   */\n      0x00\n        /* \"#utility.yul\":33039:33059   */\n      tag_695\n        /* \"#utility.yul\":33057:33058   */\n      dup3\n        /* \"#utility.yul\":33039:33059   */\n      tag_307\n      jump\t// in\n    tag_695:\n        /* \"#utility.yul\":33034:33059   */\n      swap2\n      pop\n        /* \"#utility.yul\":33073:33093   */\n      tag_696\n        /* \"#utility.yul\":33091:33092   */\n      dup4\n        /* \"#utility.yul\":33073:33093   */\n      tag_307\n      jump\t// in\n    tag_696:\n        /* \"#utility.yul\":33068:33093   */\n      swap3\n      pop\n        /* \"#utility.yul\":33117:33118   */\n      dup3\n        /* \"#utility.yul\":33114:33115   */\n      dup3\n        /* \"#utility.yul\":33110:33119   */\n      sub\n        /* \"#utility.yul\":33102:33119   */\n      swap1\n      pop\n        /* \"#utility.yul\":33141:33142   */\n      dup2\n        /* \"#utility.yul\":33135:33139   */\n      dup2\n        /* \"#utility.yul\":33132:33143   */\n      gt\n        /* \"#utility.yul\":33129:33166   */\n      iszero\n      tag_697\n      jumpi\n        /* \"#utility.yul\":33146:33164   */\n      tag_698\n      tag_374\n      jump\t// in\n    tag_698:\n        /* \"#utility.yul\":33129:33166   */\n    tag_697:\n        /* \"#utility.yul\":32979:33173   */\n      swap3\n      swap2\n      pop\n      pop\n      jump\t// out\n        /* \"#utility.yul\":33179:33359   */\n    tag_182:\n        /* \"#utility.yul\":33227:33304   */\n      0x4e487b7100000000000000000000000000000000000000000000000000000000\n        /* \"#utility.yul\":33224:33225   */\n      0x00\n        /* \"#utility.yul\":33217:33305   */\n      mstore\n        /* \"#utility.yul\":33324:33328   */\n      0x32\n        /* \"#utility.yul\":33321:33322   */\n      0x04\n        /* \"#utility.yul\":33314:33329   */\n      mstore\n        /* \"#utility.yul\":33348:33352   */\n      0x24\n        /* \"#utility.yul\":33345:33346   */\n      0x00\n        /* \"#utility.yul\":33338:33353   */\n      revert\n        /* \"#utility.yul\":33365:33536   */\n    tag_377:\n        /* \"#utility.yul\":33505:33528   */\n      0x4e6f74206d65737361676520726563697069656e740000000000000000000000\n        /* \"#utility.yul\":33501:33502   */\n      0x00\n        /* \"#utility.yul\":33493:33499   */\n      dup3\n        /* \"#utility.yul\":33489:33503   */\n      add\n        /* \"#utility.yul\":33482:33529   */\n      mstore\n        /* \"#utility.yul\":33365:33536   */\n      pop\n      jump\t// out\n        /* \"#utility.yul\":33542:33908   */\n    tag_378:\n        /* \"#utility.yul\":33684:33687   */\n      0x00\n        /* \"#utility.yul\":33705:33772   */\n      tag_702\n        /* \"#utility.yul\":33769:33771   */\n      0x15\n        /* \"#utility.yul\":33764:33767   */\n      dup4\n        /* \"#utility.yul\":33705:33772   */\n      tag_338\n      jump\t// in\n    tag_702:\n        /* \"#utility.yul\":33698:33772   */\n      swap2\n      pop\n        /* \"#utility.yul\":33781:33874   */\n      tag_703\n        /* \"#utility.yul\":33870:33873   */\n      dup3\n        /* \"#utility.yul\":33781:33874   */\n      tag_377\n      jump\t// in\n    tag_703:\n        /* \"#utility.yul\":33899:33901   */\n      0x20\n        /* \"#utility.yul\":33894:33897   */\n      dup3\n        /* \"#utility.yul\":33890:33902   */\n      add\n        /* \"#utility.yul\":33883:33902   */\n      swap1\n      pop\n        /* \"#utility.yul\":33542:33908   */\n      swap2\n      swap1\n      pop\n      jump\t// out\n        /* \"#utility.yul\":33914:34333   */\n    tag_224:\n        /* \"#utility.yul\":34080:34084   */\n      0x00\n        /* \"#utility.yul\":34118:34120   */\n      0x20\n        /* \"#utility.yul\":34107:34116   */\n      dup3\n        /* \"#utility.yul\":34103:34121   */\n      add\n        /* \"#utility.yul\":34095:34121   */\n      swap1\n      pop\n        /* \"#utility.yul\":34167:34176   */\n      dup2\n        /* \"#utility.yul\":34161:34165   */\n      dup2\n        /* \"#utility.yul\":34157:34177   */\n      sub\n        /* \"#utility.yul\":34153:34154   */\n      0x00\n        /* \"#utility.yul\":34142:34151   */\n      dup4\n        /* \"#utility.yul\":34138:34155   */\n      add\n        /* \"#utility.yul\":34131:34178   */\n      mstore\n        /* \"#utility.yul\":34195:34326   */\n      tag_705\n        /* \"#utility.yul\":34321:34325   */\n      dup2\n        /* \"#utility.yul\":34195:34326   */\n      tag_378\n      jump\t// in\n    tag_705:\n        /* \"#utility.yul\":34187:34326   */\n      swap1\n      pop\n        /* \"#utility.yul\":33914:34333   */\n      swap2\n      swap1\n      pop\n      jump\t// out\n        /* \"#utility.yul\":34339:34509   */\n    tag_379:\n        /* \"#utility.yul\":34479:34501   */\n      0x4d65737361676520616c72656164792072656164000000000000000000000000\n        /* \"#utility.yul\":34475:34476   */\n      0x00\n        /* \"#utility.yul\":34467:34473   */\n      dup3\n        /* \"#utility.yul\":34463:34477   */\n      add\n        /* \"#utility.yul\":34456:34502   */\n      mstore\n        /* \"#utility.yul\":34339:34509   */\n      pop\n      jump\t// out\n        /* \"#utility.yul\":34515:34881   */\n    tag_380:\n        /* \"#utility.yul\":34657:34660   */\n      0x00\n        /* \"#utility.yul\":34678:34745   */\n      tag_708\n        /* \"#utility.yul\":34742:34744   */\n      0x14\n        /* \"#utility.yul\":34737:34740   */\n      dup4\n        /* \"#utility.yul\":34678:34745   */\n      tag_338\n      jump\t// in\n    tag_708:\n        /* \"#utility.yul\":34671:34745   */\n      swap2\n      pop\n        /* \"#utility.yul\":34754:34847   */\n      tag_709\n        /* \"#utility.yul\":34843:34846   */\n      dup3\n        /* \"#utility.yul\":34754:34847   */\n      tag_379\n      jump\t// in\n    tag_709:\n        /* \"#utility.yul\":34872:34874   */\n      0x20\n        /* \"#utility.yul\":34867:34870   */\n      dup3\n        /* \"#utility.yul\":34863:34875   */\n      add\n        /* \"#utility.yul\":34856:34875   */\n      swap1\n      pop\n        /* \"#utility.yul\":34515:34881   */\n      swap2\n      swap1\n      pop\n      jump\t// out\n        /* \"#utility.yul\":34887:35306   */\n    tag_227:\n        /* \"#utility.yul\":35053:35057   */\n      0x00\n        /* \"#utility.yul\":35091:35093   */\n      0x20\n        /* \"#utility.yul\":35080:35089   */\n      dup3\n        /* \"#utility.yul\":35076:35094   */\n      add\n        /* \"#utility.yul\":35068:35094   */\n      swap1\n      pop\n        /* \"#utility.yul\":35140:35149   */\n      dup2\n        /* \"#utility.yul\":35134:35138   */\n      dup2\n        /* \"#utility.yul\":35130:35150   */\n      sub\n        /* \"#utility.yul\":35126:35127   */\n      0x00\n        /* \"#utility.yul\":35115:35124   */\n      dup4\n        /* \"#utility.yul\":35111:35128   */\n      add\n        /* \"#utility.yul\":35104:35151   */\n      mstore\n        /* \"#utility.yul\":35168:35299   */\n      tag_711\n        /* \"#utility.yul\":35294:35298   */\n      dup2\n        /* \"#utility.yul\":35168:35299   */\n      tag_380\n      jump\t// in\n    tag_711:\n        /* \"#utility.yul\":35160:35299   */\n      swap1\n      pop\n        /* \"#utility.yul\":34887:35306   */\n      swap2\n      swap1\n      pop\n      jump\t// out\n        /* \"#utility.yul\":35312:35479   */\n    tag_381:\n        /* \"#utility.yul\":35452:35471   */\n      0x496e76616c6964206e756c6c6966696572000000000000000000000000000000\n        /* \"#utility.yul\":35448:35449   */\n      0x00\n        /* \"#utility.yul\":35440:35446   */\n      dup3\n        /* \"#utility.yul\":35436:35450   */\n      add\n        /* \"#utility.yul\":35429:35472   */\n      mstore\n        /* \"#utility.yul\":35312:35479   */\n      pop\n      jump\t// out\n        /* \"#utility.yul\":35485:35851   */\n    tag_382:\n        /* \"#utility.yul\":35627:35630   */\n      0x00\n        /* \"#utility.yul\":35648:35715   */\n      tag_714\n        /* \"#utility.yul\":35712:35714   */\n      0x11\n        /* \"#utility.yul\":35707:35710   */\n      dup4\n        /* \"#utility.yul\":35648:35715   */\n      tag_338\n      jump\t// in\n    tag_714:\n        /* \"#utility.yul\":35641:35715   */\n      swap2\n      pop\n        /* \"#utility.yul\":35724:35817   */\n      tag_715\n        /* \"#utility.yul\":35813:35816   */\n      dup3\n        /* \"#utility.yul\":35724:35817   */\n      tag_381\n      jump\t// in\n    tag_715:\n        /* \"#utility.yul\":35842:35844   */\n      0x20\n        /* \"#utility.yul\":35837:35840   */\n      dup3\n        /* \"#utility.yul\":35833:35845   */\n      add\n        /* \"#utility.yul\":35826:35845   */\n      swap1\n      pop\n        /* \"#utility.yul\":35485:35851   */\n      swap2\n      swap1\n      pop\n      jump\t// out\n        /* \"#utility.yul\":35857:36276   */\n    tag_238:\n        /* \"#utility.yul\":36023:36027   */\n      0x00\n        /* \"#utility.yul\":36061:36063   */\n      0x20\n        /* \"#utility.yul\":36050:36059   */\n      dup3\n        /* \"#utility.yul\":36046:36064   */\n      add\n        /* \"#utility.yul\":36038:36064   */\n      swap1\n      pop\n        /* \"#utility.yul\":36110:36119   */\n      dup2\n        /* \"#utility.yul\":36104:36108   */\n      dup2\n        /* \"#utility.yul\":36100:36120   */\n      sub\n        /* \"#utility.yul\":36096:36097   */\n      0x00\n        /* \"#utility.yul\":36085:36094   */\n      dup4\n        /* \"#utility.yul\":36081:36098   */\n      add\n        /* \"#utility.yul\":36074:36121   */\n      mstore\n        /* \"#utility.yul\":36138:36269   */\n      tag_717\n        /* \"#utility.yul\":36264:36268   */\n      dup2\n        /* \"#utility.yul\":36138:36269   */\n      tag_382\n      jump\t// in\n    tag_717:\n        /* \"#utility.yul\":36130:36269   */\n      swap1\n      pop\n        /* \"#utility.yul\":35857:36276   */\n      swap2\n      swap1\n      pop\n      jump\t// out\n        /* \"#utility.yul\":36282:36443   */\n    tag_383:\n        /* \"#utility.yul\":36422:36435   */\n      0x456d7074792070726f6f66000000000000000000000000000000000000000000\n        /* \"#utility.yul\":36418:36419   */\n      0x00\n        /* \"#utility.yul\":36410:36416   */\n      dup3\n        /* \"#utility.yul\":36406:36420   */\n      add\n        /* \"#utility.yul\":36399:36436   */\n      mstore\n        /* \"#utility.yul\":36282:36443   */\n      pop\n      jump\t// out\n        /* \"#utility.yul\":36449:36815   */\n    tag_384:\n        /* \"#utility.yul\":36591:36594   */\n      0x00\n        /* \"#utility.yul\":36612:36679   */\n      tag_720\n        /* \"#utility.yul\":36676:36678   */\n      0x0b\n        /* \"#utility.yul\":36671:36674   */\n      dup4\n        /* \"#utility.yul\":36612:36679   */\n      tag_338\n      jump\t// in\n    tag_720:\n        /* \"#utility.yul\":36605:36679   */\n      swap2\n      pop\n        /* \"#utility.yul\":36688:36781   */\n      tag_721\n        /* \"#utility.yul\":36777:36780   */\n      dup3\n        /* \"#utility.yul\":36688:36781   */\n      tag_383\n      jump\t// in\n    tag_721:\n        /* \"#utility.yul\":36806:36808   */\n      0x20\n        /* \"#utility.yul\":36801:36804   */\n      dup3\n        /* \"#utility.yul\":36797:36809   */\n      add\n        /* \"#utility.yul\":36790:36809   */\n      swap1\n      pop\n        /* \"#utility.yul\":36449:36815   */\n      swap2\n      swap1\n      pop\n      jump\t// out\n        /* \"#utility.yul\":36821:37240   */\n    tag_245:\n        /* \"#utility.yul\":36987:36991   */\n      0x00\n        /* \"#utility.yul\":37025:37027   */\n      0x20\n        /* \"#utility.yul\":37014:37023   */\n      dup3\n        /* \"#utility.yul\":37010:37028   */\n      add\n        /* \"#utility.yul\":37002:37028   */\n      swap1\n      pop\n        /* \"#utility.yul\":37074:37083   */\n      dup2\n        /* \"#utility.yul\":37068:37072   */\n      dup2\n        /* \"#utility.yul\":37064:37084   */\n      sub\n        /* \"#utility.yul\":37060:37061   */\n      0x00\n        /* \"#utility.yul\":37049:37058   */\n      dup4\n        /* \"#utility.yul\":37045:37062   */\n      add\n        /* \"#utility.yul\":37038:37085   */\n      mstore\n        /* \"#utility.yul\":37102:37233   */\n      tag_723\n        /* \"#utility.yul\":37228:37232   */\n      dup2\n        /* \"#utility.yul\":37102:37233   */\n      tag_384\n      jump\t// in\n    tag_723:\n        /* \"#utility.yul\":37094:37233   */\n      swap1\n      pop\n        /* \"#utility.yul\":36821:37240   */\n      swap2\n      swap1\n      pop\n      jump\t// out\n        /* \"#utility.yul\":37246:37418   */\n    tag_385:\n        /* \"#utility.yul\":37386:37410   */\n      0x4e756c6c696669657220616c7265616479207573656400000000000000000000\n        /* \"#utility.yul\":37382:37383   */\n      0x00\n        /* \"#utility.yul\":37374:37380   */\n      dup3\n        /* \"#utility.yul\":37370:37384   */\n      add\n        /* \"#utility.yul\":37363:37411   */\n      mstore\n        /* \"#utility.yul\":37246:37418   */\n      pop\n      jump\t// out\n        /* \"#utility.yul\":37424:37790   */\n    tag_386:\n        /* \"#utility.yul\":37566:37569   */\n      0x00\n        /* \"#utility.yul\":37587:37654   */\n      tag_726\n        /* \"#utility.yul\":37651:37653   */\n      0x16\n        /* \"#utility.yul\":37646:37649   */\n      dup4\n        /* \"#utility.yul\":37587:37654   */\n      tag_338\n      jump\t// in\n    tag_726:\n        /* \"#utility.yul\":37580:37654   */\n      swap2\n      pop\n        /* \"#utility.yul\":37663:37756   */\n      tag_727\n        /* \"#utility.yul\":37752:37755   */\n      dup3\n        /* \"#utility.yul\":37663:37756   */\n      tag_385\n      jump\t// in\n    tag_727:\n        /* \"#utility.yul\":37781:37783   */\n      0x20\n        /* \"#utility.yul\":37776:37779   */\n      dup3\n        /* \"#utility.yul\":37772:37784   */\n      add\n        /* \"#utility.yul\":37765:37784   */\n      swap1\n      pop\n        /* \"#utility.yul\":37424:37790   */\n      swap2\n      swap1\n      pop\n      jump\t// out\n        /* \"#utility.yul\":37796:38215   */\n    tag_248:\n        /* \"#utility.yul\":37962:37966   */\n      0x00\n        /* \"#utility.yul\":38000:38002   */\n      0x20\n        /* \"#utility.yul\":37989:37998   */\n      dup3\n        /* \"#utility.yul\":37985:38003   */\n      add\n        /* \"#utility.yul\":37977:38003   */\n      swap1\n      pop\n        /* \"#utility.yul\":38049:38058   */\n      dup2\n        /* \"#utility.yul\":38043:38047   */\n      dup2\n        /* \"#utility.yul\":38039:38059   */\n      sub\n        /* \"#utility.yul\":38035:38036   */\n      0x00\n        /* \"#utility.yul\":38024:38033   */\n      dup4\n        /* \"#utility.yul\":38020:38037   */\n      add\n        /* \"#utility.yul\":38013:38060   */\n      mstore\n        /* \"#utility.yul\":38077:38208   */\n      tag_729\n        /* \"#utility.yul\":38203:38207   */\n      dup2\n        /* \"#utility.yul\":38077:38208   */\n      tag_386\n      jump\t// in\n    tag_729:\n        /* \"#utility.yul\":38069:38208   */\n      swap1\n      pop\n        /* \"#utility.yul\":37796:38215   */\n      swap2\n      swap1\n      pop\n      jump\t// out\n        /* \"#utility.yul\":38221:38369   */\n    tag_387:\n        /* \"#utility.yul\":38319:38325   */\n      dup3\n        /* \"#utility.yul\":38314:38317   */\n      dup2\n        /* \"#utility.yul\":38309:38312   */\n      dup4\n        /* \"#utility.yul\":38296:38326   */\n      calldatacopy\n        /* \"#utility.yul\":38360:38361   */\n      0x00\n        /* \"#utility.yul\":38351:38357   */\n      dup4\n        /* \"#utility.yul\":38346:38349   */\n      dup4\n        /* \"#utility.yul\":38342:38358   */\n      add\n        /* \"#utility.yul\":38335:38362   */\n      mstore\n        /* \"#utility.yul\":38221:38369   */\n      pop\n      pop\n      pop\n      jump\t// out\n        /* \"#utility.yul\":38397:38711   */\n    tag_388:\n        /* \"#utility.yul\":38493:38496   */\n      0x00\n        /* \"#utility.yul\":38514:38584   */\n      tag_732\n        /* \"#utility.yul\":38577:38583   */\n      dup4\n        /* \"#utility.yul\":38572:38575   */\n      dup6\n        /* \"#utility.yul\":38514:38584   */\n      tag_322\n      jump\t// in\n    tag_732:\n        /* \"#utility.yul\":38507:38584   */\n      swap4\n      pop\n        /* \"#utility.yul\":38594:38650   */\n      tag_733\n        /* \"#utility.yul\":38643:38649   */\n      dup4\n        /* \"#utility.yul\":38638:38641   */\n      dup6\n        /* \"#utility.yul\":38631:38636   */\n      dup5\n        /* \"#utility.yul\":38594:38650   */\n      tag_387\n      jump\t// in\n    tag_733:\n        /* \"#utility.yul\":38675:38704   */\n      tag_734\n        /* \"#utility.yul\":38697:38703   */\n      dup4\n        /* \"#utility.yul\":38675:38704   */\n      tag_305\n      jump\t// in\n    tag_734:\n        /* \"#utility.yul\":38670:38673   */\n      dup5\n        /* \"#utility.yul\":38666:38705   */\n      add\n        /* \"#utility.yul\":38659:38705   */\n      swap1\n      pop\n        /* \"#utility.yul\":38397:38711   */\n      swap4\n      swap3\n      pop\n      pop\n      pop\n      jump\t// out\n        /* \"#utility.yul\":38717:39706   */\n    tag_250:\n        /* \"#utility.yul\":39006:39010   */\n      0x00\n        /* \"#utility.yul\":39044:39047   */\n      0xc0\n        /* \"#utility.yul\":39033:39042   */\n      dup3\n        /* \"#utility.yul\":39029:39048   */\n      add\n        /* \"#utility.yul\":39021:39048   */\n      swap1\n      pop\n        /* \"#utility.yul\":39058:39129   */\n      tag_736\n        /* \"#utility.yul\":39126:39127   */\n      0x00\n        /* \"#utility.yul\":39115:39124   */\n      dup4\n        /* \"#utility.yul\":39111:39128   */\n      add\n        /* \"#utility.yul\":39102:39108   */\n      dup12\n        /* \"#utility.yul\":39058:39129   */\n      tag_320\n      jump\t// in\n    tag_736:\n        /* \"#utility.yul\":39139:39211   */\n      tag_737\n        /* \"#utility.yul\":39207:39209   */\n      0x20\n        /* \"#utility.yul\":39196:39205   */\n      dup4\n        /* \"#utility.yul\":39192:39210   */\n      add\n        /* \"#utility.yul\":39183:39189   */\n      dup11\n        /* \"#utility.yul\":39139:39211   */\n      tag_320\n      jump\t// in\n    tag_737:\n        /* \"#utility.yul\":39221:39293   */\n      tag_738\n        /* \"#utility.yul\":39289:39291   */\n      0x40\n        /* \"#utility.yul\":39278:39287   */\n      dup4\n        /* \"#utility.yul\":39274:39292   */\n      add\n        /* \"#utility.yul\":39265:39271   */\n      dup10\n        /* \"#utility.yul\":39221:39293   */\n      tag_321\n      jump\t// in\n    tag_738:\n        /* \"#utility.yul\":39303:39375   */\n      tag_739\n        /* \"#utility.yul\":39371:39373   */\n      0x60\n        /* \"#utility.yul\":39360:39369   */\n      dup4\n        /* \"#utility.yul\":39356:39374   */\n      add\n        /* \"#utility.yul\":39347:39353   */\n      dup9\n        /* \"#utility.yul\":39303:39375   */\n      tag_321\n      jump\t// in\n    tag_739:\n        /* \"#utility.yul\":39423:39432   */\n      dup2\n        /* \"#utility.yul\":39417:39421   */\n      dup2\n        /* \"#utility.yul\":39413:39433   */\n      sub\n        /* \"#utility.yul\":39407:39410   */\n      0x80\n        /* \"#utility.yul\":39396:39405   */\n      dup4\n        /* \"#utility.yul\":39392:39411   */\n      add\n        /* \"#utility.yul\":39385:39434   */\n      mstore\n        /* \"#utility.yul\":39451:39537   */\n      tag_740\n        /* \"#utility.yul\":39532:39536   */\n      dup2\n        /* \"#utility.yul\":39523:39529   */\n      dup7\n        /* \"#utility.yul\":39515:39521   */\n      dup9\n        /* \"#utility.yul\":39451:39537   */\n      tag_388\n      jump\t// in\n    tag_740:\n        /* \"#utility.yul\":39443:39537   */\n      swap1\n      pop\n        /* \"#utility.yul\":39585:39594   */\n      dup2\n        /* \"#utility.yul\":39579:39583   */\n      dup2\n        /* \"#utility.yul\":39575:39595   */\n      sub\n        /* \"#utility.yul\":39569:39572   */\n      0xa0\n        /* \"#utility.yul\":39558:39567   */\n      dup4\n        /* \"#utility.yul\":39554:39573   */\n      add\n        /* \"#utility.yul\":39547:39596   */\n      mstore\n        /* \"#utility.yul\":39613:39699   */\n      tag_741\n        /* \"#utility.yul\":39694:39698   */\n      dup2\n        /* \"#utility.yul\":39685:39691   */\n      dup5\n        /* \"#utility.yul\":39677:39683   */\n      dup7\n        /* \"#utility.yul\":39613:39699   */\n      tag_388\n      jump\t// in\n    tag_741:\n        /* \"#utility.yul\":39605:39699   */\n      swap1\n      pop\n        /* \"#utility.yul\":38717:39706   */\n      swap10\n      swap9\n      pop\n      pop\n      pop\n      pop\n      pop\n      pop\n      pop\n      pop\n      pop\n      jump\t// out\n        /* \"#utility.yul\":39712:39828   */\n    tag_389:\n        /* \"#utility.yul\":39782:39803   */\n      tag_743\n        /* \"#utility.yul\":39797:39802   */\n      dup2\n        /* \"#utility.yul\":39782:39803   */\n      tag_309\n      jump\t// in\n    tag_743:\n        /* \"#utility.yul\":39775:39780   */\n      dup2\n        /* \"#utility.yul\":39772:39804   */\n      eq\n        /* \"#utility.yul\":39762:39822   */\n      tag_744\n      jumpi\n        /* \"#utility.yul\":39818:39819   */\n      0x00\n        /* \"#utility.yul\":39815:39816   */\n      dup1\n        /* \"#utility.yul\":39808:39820   */\n      revert\n        /* \"#utility.yul\":39762:39822   */\n    tag_744:\n        /* \"#utility.yul\":39712:39828   */\n      pop\n      jump\t// out\n        /* \"#utility.yul\":39834:39971   */\n    tag_390:\n        /* \"#utility.yul\":39888:39893   */\n      0x00\n        /* \"#utility.yul\":39919:39925   */\n      dup2\n        /* \"#utility.yul\":39913:39926   */\n      mload\n        /* \"#utility.yul\":39904:39926   */\n      swap1\n      pop\n        /* \"#utility.yul\":39935:39965   */\n      tag_746\n        /* \"#utility.yul\":39959:39964   */\n      dup2\n        /* \"#utility.yul\":39935:39965   */\n      tag_389\n      jump\t// in\n    tag_746:\n        /* \"#utility.yul\":39834:39971   */\n      swap3\n      swap2\n      pop\n      pop\n      jump\t// out\n        /* \"#utility.yul\":39977:40322   */\n    tag_254:\n        /* \"#utility.yul\":40044:40050   */\n      0x00\n        /* \"#utility.yul\":40093:40095   */\n      0x20\n        /* \"#utility.yul\":40081:40090   */\n      dup3\n        /* \"#utility.yul\":40072:40079   */\n      dup5\n        /* \"#utility.yul\":40068:40091   */\n      sub\n        /* \"#utility.yul\":40064:40096   */\n      slt\n        /* \"#utility.yul\":40061:40180   */\n      iszero\n      tag_748\n      jumpi\n        /* \"#utility.yul\":40099:40178   */\n      tag_749\n      tag_293\n      jump\t// in\n    tag_749:\n        /* \"#utility.yul\":40061:40180   */\n    tag_748:\n        /* \"#utility.yul\":40219:40220   */\n      0x00\n        /* \"#utility.yul\":40244:40305   */\n      tag_750\n        /* \"#utility.yul\":40297:40304   */\n      dup5\n        /* \"#utility.yul\":40288:40294   */\n      dup3\n        /* \"#utility.yul\":40277:40286   */\n      dup6\n        /* \"#utility.yul\":40273:40295   */\n      add\n        /* \"#utility.yul\":40244:40305   */\n      tag_390\n      jump\t// in\n    tag_750:\n        /* \"#utility.yul\":40234:40305   */\n      swap2\n      pop\n        /* \"#utility.yul\":40190:40315   */\n      pop\n        /* \"#utility.yul\":39977:40322   */\n      swap3\n      swap2\n      pop\n      pop\n      jump\t// out\n        /* \"#utility.yul\":40328:40491   */\n    tag_391:\n        /* \"#utility.yul\":40468:40483   */\n      0x496e76616c69642070726f6f6600000000000000000000000000000000000000\n        /* \"#utility.yul\":40464:40465   */\n      0x00\n        /* \"#utility.yul\":40456:40462   */\n      dup3\n        /* \"#utility.yul\":40452:40466   */\n      add\n        /* \"#utility.yul\":40445:40484   */\n      mstore\n        /* \"#utility.yul\":40328:40491   */\n      pop\n      jump\t// out\n        /* \"#utility.yul\":40497:40863   */\n    tag_392:\n        /* \"#utility.yul\":40639:40642   */\n      0x00\n        /* \"#utility.yul\":40660:40727   */\n      tag_753\n        /* \"#utility.yul\":40724:40726   */\n      0x0d\n        /* \"#utility.yul\":40719:40722   */\n      dup4\n        /* \"#utility.yul\":40660:40727   */\n      tag_338\n      jump\t// in\n    tag_753:\n        /* \"#utility.yul\":40653:40727   */\n      swap2\n      pop\n        /* \"#utility.yul\":40736:40829   */\n      tag_754\n        /* \"#utility.yul\":40825:40828   */\n      dup3\n        /* \"#utility.yul\":40736:40829   */\n      tag_391\n      jump\t// in\n    tag_754:\n        /* \"#utility.yul\":40854:40856   */\n      0x20\n        /* \"#utility.yul\":40849:40852   */\n      dup3\n        /* \"#utility.yul\":40845:40857   */\n      add\n        /* \"#utility.yul\":40838:40857   */\n      swap1\n      pop\n        /* \"#utility.yul\":40497:40863   */\n      swap2\n      swap1\n      pop\n      jump\t// out\n        /* \"#utility.yul\":40869:41288   */\n    tag_257:\n        /* \"#utility.yul\":41035:41039   */\n      0x00\n        /* \"#utility.yul\":41073:41075   */\n      0x20\n        /* \"#utility.yul\":41062:41071   */\n      dup3\n        /* \"#utility.yul\":41058:41076   */\n      add\n        /* \"#utility.yul\":41050:41076   */\n      swap1\n      pop\n        /* \"#utility.yul\":41122:41131   */\n      dup2\n        /* \"#utility.yul\":41116:41120   */\n      dup2\n        /* \"#utility.yul\":41112:41132   */\n      sub\n        /* \"#utility.yul\":41108:41109   */\n      0x00\n        /* \"#utility.yul\":41097:41106   */\n      dup4\n        /* \"#utility.yul\":41093:41110   */\n      add\n        /* \"#utility.yul\":41086:41133   */\n      mstore\n        /* \"#utility.yul\":41150:41281   */\n      tag_756\n        /* \"#utility.yul\":41276:41280   */\n      dup2\n        /* \"#utility.yul\":41150:41281   */\n      tag_392\n      jump\t// in\n    tag_756:\n        /* \"#utility.yul\":41142:41281   */\n      swap1\n      pop\n        /* \"#utility.yul\":40869:41288   */\n      swap2\n      swap1\n      pop\n      jump\t// out\n\n    auxdata: 0xa264697066735822122030e8517af1b894ffe18ff150ddd8b0d21f7fb2299d82fbaf1b0cce0b9dd9a22564736f6c634300081a0033\n}\n",
				"bytecode": {
					"linkReferences": {},
					"object": "608060405234801561000f575f80fd5b50604051613397380380613397833981810160405281019061003191906102a7565b805f73ffffffffffffffffffffffffffffffffffffffff168173ffffffffffffffffffffffffffffffffffffffff16036100a2575f6040517f1e4fbdf700000000000000000000000000000000000000000000000000000000815260040161009991906102f4565b60405180910390fd5b6100b18161018860201b60201c565b50600180819055505f60025f6101000a81548160ff0219169083151502179055505f73ffffffffffffffffffffffffffffffffffffffff168273ffffffffffffffffffffffffffffffffffffffff1603610140576040517f08c379a000000000000000000000000000000000000000000000000000000000815260040161013790610367565b60405180910390fd5b81600260016101000a81548173ffffffffffffffffffffffffffffffffffffffff021916908373ffffffffffffffffffffffffffffffffffffffff1602179055505050610385565b5f805f9054906101000a900473ffffffffffffffffffffffffffffffffffffffff169050815f806101000a81548173ffffffffffffffffffffffffffffffffffffffff021916908373ffffffffffffffffffffffffffffffffffffffff1602179055508173ffffffffffffffffffffffffffffffffffffffff168173ffffffffffffffffffffffffffffffffffffffff167f8be0079c531659141344cd1fd0a4f28419497f9722a3daafe3b4186f6b6457e060405160405180910390a35050565b5f80fd5b5f73ffffffffffffffffffffffffffffffffffffffff82169050919050565b5f6102768261024d565b9050919050565b6102868161026c565b8114610290575f80fd5b50565b5f815190506102a18161027d565b92915050565b5f80604083850312156102bd576102bc610249565b5b5f6102ca85828601610293565b92505060206102db85828601610293565b9150509250929050565b6102ee8161026c565b82525050565b5f6020820190506103075f8301846102e5565b92915050565b5f82825260208201905092915050565b7f496e76616c6964207665726966696572206164647265737300000000000000005f82015250565b5f61035160188361030d565b915061035c8261031d565b602082019050919050565b5f6020820190508181035f83015261037e81610345565b9050919050565b613005806103925f395ff3fe608060405234801561000f575f80fd5b5060043610610109575f3560e01c80635c975abb116100a05780638da5cb5b1161006f5780638da5cb5b146102965780639428cda3146102b4578063f2fde38b146102e4578063fe97c0b714610300578063ff4b91f51461031c57610109565b80635c975abb14610234578063715018a6146102525780637ecf686d1461025c5780638456cb591461028c57610109565b80632c4ac770116100dc5780632c4ac770146101c25780633f4ba83a146101de5780635437988d146101e857806357b9222f1461020457610109565b80630139a2211461010d5780632b659bfb1461013d5780632b7ac3f31461016d5780632bbd59ca1461018b575b5f80fd5b61012760048036038101906101229190611cc7565b610338565b6040516101349190611e96565b60405180910390f35b61015760048036038101906101529190611ee0565b6105f5565b6040516101649190611f1a565b60405180910390f35b61017561063e565b6040516101829190611f8e565b60405180910390f35b6101a560048036038101906101a09190611cc7565b610664565b6040516101b998979695949392919061201c565b60405180910390f35b6101dc60048036038101906101d79190612107565b6107fe565b005b6101e6610b6e565b005b61020260048036038101906101fd9190611ee0565b610b80565b005b61021e600480360381019061021991906121a2565b610c3a565b60405161022b9190612361565b60405180910390f35b61023c61107d565b6040516102499190612381565b60405180910390f35b61025a611092565b005b61027660048036038101906102719190611cc7565b6110a5565b6040516102839190612381565b60405180910390f35b6102946110c2565b005b61029e6110d4565b6040516102ab919061239a565b60405180910390f35b6102ce60048036038101906102c991906123b3565b6110fb565b6040516102db91906123f1565b60405180910390f35b6102fe60048036038101906102f99190611ee0565b611126565b005b61031a60048036038101906103159190611cc7565b6111aa565b005b6103366004803603810190610331919061240a565b611383565b005b610340611c19565b5f801b8203610384576040517f08c379a000000000000000000000000000000000000000000000000000000000815260040161037b9061251b565b60405180910390fd5b5f60035f8481526020019081526020015f2090505f801b815f0154036103df576040517f08c379a00000000000000000000000000000000000000000000000000000000081526004016103d690612583565b60405180910390fd5b80604051806101000160405290815f820154815260200160018201548152602001600282015f9054906101000a900473ffffffffffffffffffffffffffffffffffffffff1673ffffffffffffffffffffffffffffffffffffffff1673ffffffffffffffffffffffffffffffffffffffff168152602001600382015f9054906101000a900473ffffffffffffffffffffffffffffffffffffffff1673ffffffffffffffffffffffffffffffffffffffff1673ffffffffffffffffffffffffffffffffffffffff1681526020016004820180546104b9906125ce565b80601f01602080910402602001604051908101604052809291908181526020018280546104e5906125ce565b80156105305780601f1061050757610100808354040283529160200191610530565b820191905f5260205f20905b81548152906001019060200180831161051357829003601f168201915b5050505050815260200160058201548152602001600682015f9054906101000a900460ff1615151515815260200160078201805461056d906125ce565b80601f0160208091040260200160405190810160405280929190818152602001828054610599906125ce565b80156105e45780601f106105bb576101008083540402835291602001916105e4565b820191905f5260205f20905b8154815290600101906020018083116105c757829003601f168201915b505050505081525050915050919050565b5f60055f8373ffffffffffffffffffffffffffffffffffffffff1673ffffffffffffffffffffffffffffffffffffffff1681526020019081526020015f20805490509050919050565b600260019054906101000a900473ffffffffffffffffffffffffffffffffffffffff1681565b6003602052805f5260405f205f91509050805f015490806001015490806002015f9054906101000a900473ffffffffffffffffffffffffffffffffffffffff1690806003015f9054906101000a900473ffffffffffffffffffffffffffffffffffffffff16908060040180546106d9906125ce565b80601f0160208091040260200160405190810160405280929190818152602001828054610705906125ce565b80156107505780601f1061072757610100808354040283529160200191610750565b820191905f5260205f20905b81548152906001019060200180831161073357829003601f168201915b505050505090806005015490806006015f9054906101000a900460ff169080600701805461077d906125ce565b80601f01602080910402602001604051908101604052809291908181526020018280546107a9906125ce565b80156107f45780601f106107cb576101008083540402835291602001916107f4565b820191905f5260205f20905b8154815290600101906020018083116107d757829003601f168201915b5050505050905088565b610806611937565b61080e61197d565b5f73ffffffffffffffffffffffffffffffffffffffff168473ffffffffffffffffffffffffffffffffffffffff160361087c576040517f08c379a000000000000000000000000000000000000000000000000000000000815260040161087390612648565b60405180910390fd5b5f83839050116108c1576040517f08c379a00000000000000000000000000000000000000000000000000000000081526004016108b8906126b0565b60405180910390fd5b5f8133866040516020016108d793929190612733565b6040516020818303038152906040528051906020012090506040518061010001604052808281526020018381526020013373ffffffffffffffffffffffffffffffffffffffff1681526020018673ffffffffffffffffffffffffffffffffffffffff16815260200185858080601f0160208091040260200160405190810160405280939291908181526020018383808284375f81840152601f19601f8201169050808301925050505050505081526020014281526020015f1515815260200160405180602001604052805f81525081525060035f8381526020019081526020015f205f820151815f0155602082015181600101556040820151816002015f6101000a81548173ffffffffffffffffffffffffffffffffffffffff021916908373ffffffffffffffffffffffffffffffffffffffff1602179055506060820151816003015f6101000a81548173ffffffffffffffffffffffffffffffffffffffff021916908373ffffffffffffffffffffffffffffffffffffffff1602179055506080820151816004019081610a6c9190612930565b5060a0820151816005015560c0820151816006015f6101000a81548160ff02191690831515021790555060e0820151816007019081610aab9190612930565b5090505060055f8673ffffffffffffffffffffffffffffffffffffffff1673ffffffffffffffffffffffffffffffffffffffff1681526020019081526020015f2081908060018154018082558091505060019003905f5260205f20015f90919091909150558473ffffffffffffffffffffffffffffffffffffffff16817ffc0130f045b99ddc021ab5370f3ebcc300526e38305dc6bbf89079a83abd3eb842604051610b579190611f1a565b60405180910390a350610b686119be565b50505050565b610b766119c7565b610b7e611a4e565b565b610b886119c7565b5f73ffffffffffffffffffffffffffffffffffffffff168173ffffffffffffffffffffffffffffffffffffffff1603610bf6576040517f08c379a0000000000000000000000000000000000000000000000000000000008152600401610bed90612a49565b60405180910390fd5b80600260016101000a81548173ffffffffffffffffffffffffffffffffffffffff021916908373ffffffffffffffffffffffffffffffffffffffff16021790555050565b60605f73ffffffffffffffffffffffffffffffffffffffff168473ffffffffffffffffffffffffffffffffffffffff1603610caa576040517f08c379a0000000000000000000000000000000000000000000000000000000008152600401610ca190612ab1565b60405180910390fd5b5f8211610cec576040517f08c379a0000000000000000000000000000000000000000000000000000000008152600401610ce390612b19565b60405180910390fd5b5f60055f8673ffffffffffffffffffffffffffffffffffffffff1673ffffffffffffffffffffffffffffffffffffffff1681526020019081526020015f2090505f8385610d399190612b64565b90508180549050811115610d4f57818054905090505b808510610d91576040517f08c379a0000000000000000000000000000000000000000000000000000000008152600401610d8890612be1565b60405180910390fd5b5f8582610d9e9190612bff565b67ffffffffffffffff811115610db757610db661276f565b5b604051908082528060200260200182016040528015610df057816020015b610ddd611c19565b815260200190600190039081610dd55790505b5090505f8690505b8281101561106f5760035f858381548110610e1657610e15612c32565b5b905f5260205f20015481526020019081526020015f20604051806101000160405290815f820154815260200160018201548152602001600282015f9054906101000a900473ffffffffffffffffffffffffffffffffffffffff1673ffffffffffffffffffffffffffffffffffffffff1673ffffffffffffffffffffffffffffffffffffffff168152602001600382015f9054906101000a900473ffffffffffffffffffffffffffffffffffffffff1673ffffffffffffffffffffffffffffffffffffffff1673ffffffffffffffffffffffffffffffffffffffff168152602001600482018054610f05906125ce565b80601f0160208091040260200160405190810160405280929190818152602001828054610f31906125ce565b8015610f7c5780601f10610f5357610100808354040283529160200191610f7c565b820191905f5260205f20905b815481529060010190602001808311610f5f57829003601f168201915b5050505050815260200160058201548152602001600682015f9054906101000a900460ff16151515158152602001600782018054610fb9906125ce565b80601f0160208091040260200160405190810160405280929190818152602001828054610fe5906125ce565b80156110305780601f1061100757610100808354040283529160200191611030565b820191905f5260205f20905b81548152906001019060200180831161101357829003601f168201915b5050505050815250508288836110469190612bff565b8151811061105757611056612c32565b5b60200260200101819052508080600101915050610df8565b508093505050509392505050565b5f60025f9054906101000a900460ff16905090565b61109a6119c7565b6110a35f611aaf565b565b6004602052805f5260405f205f915054906101000a900460ff1681565b6110ca6119c7565b6110d2611b70565b565b5f805f9054906101000a900473ffffffffffffffffffffffffffffffffffffffff16905090565b6005602052815f5260405f208181548110611114575f80fd5b905f5260205f20015f91509150505481565b61112e6119c7565b5f73ffffffffffffffffffffffffffffffffffffffff168173ffffffffffffffffffffffffffffffffffffffff160361119e575f6040517f1e4fbdf7000000000000000000000000000000000000000000000000000000008152600401611195919061239a565b60405180910390fd5b6111a781611aaf565b50565b5f801b81036111ee576040517f08c379a00000000000000000000000000000000000000000000000000000000081526004016111e59061251b565b60405180910390fd5b5f60035f8381526020019081526020015f2090505f801b815f015403611249576040517f08c379a000000000000000000000000000000000000000000000000000000000815260040161124090612583565b60405180910390fd5b3373ffffffffffffffffffffffffffffffffffffffff16816003015f9054906101000a900473ffffffffffffffffffffffffffffffffffffffff1673ffffffffffffffffffffffffffffffffffffffff16146112da576040517f08c379a00000000000000000000000000000000000000000000000000000000081526004016112d190612ca9565b60405180910390fd5b806006015f9054906101000a900460ff161561132b576040517f08c379a000000000000000000000000000000000000000000000000000000000815260040161132290612d11565b60405180910390fd5b6001816006015f6101000a81548160ff021916908315150217905550817f15a79aca86671a7eb5af826e3fe7a56b9afb1a477fc8bb591388883849543d44426040516113779190611f1a565b60405180910390a25050565b61138b611937565b61139361197d565b5f801b87036113d7576040517f08c379a00000000000000000000000000000000000000000000000000000000081526004016113ce9061251b565b60405180910390fd5b5f801b860361141b576040517f08c379a000000000000000000000000000000000000000000000000000000000815260040161141290612d79565b60405180910390fd5b5f73ffffffffffffffffffffffffffffffffffffffff168573ffffffffffffffffffffffffffffffffffffffff1603611489576040517f08c379a000000000000000000000000000000000000000000000000000000000815260040161148090612648565b60405180910390fd5b5f84849050116114ce576040517f08c379a00000000000000000000000000000000000000000000000000000000081526004016114c5906126b0565b60405180910390fd5b5f8282905011611513576040517f08c379a000000000000000000000000000000000000000000000000000000000815260040161150a90612de1565b60405180910390fd5b60045f8781526020019081526020015f205f9054906101000a900460ff1615611571576040517f08c379a000000000000000000000000000000000000000000000000000000000815260040161156890612e49565b60405180910390fd5b600260019054906101000a900473ffffffffffffffffffffffffffffffffffffffff1673ffffffffffffffffffffffffffffffffffffffff16639cc0684888883389898989896040518963ffffffff1660e01b81526004016115da989796959493929190612ea1565b602060405180830381865afa1580156115f5573d5f803e3d5ffd5b505050506040513d601f19601f820116820180604052508101906116199190612f3c565b611658576040517f08c379a000000000000000000000000000000000000000000000000000000000815260040161164f90612fb1565b60405180910390fd5b6040518061010001604052808881526020018781526020013373ffffffffffffffffffffffffffffffffffffffff1681526020018673ffffffffffffffffffffffffffffffffffffffff16815260200185858080601f0160208091040260200160405190810160405280939291908181526020018383808284375f81840152601f19601f8201169050808301925050505050505081526020014281526020015f1515815260200183838080601f0160208091040260200160405190810160405280939291908181526020018383808284375f81840152601f19601f8201169050808301925050505050505081525060035f8981526020019081526020015f205f820151815f0155602082015181600101556040820151816002015f6101000a81548173ffffffffffffffffffffffffffffffffffffffff021916908373ffffffffffffffffffffffffffffffffffffffff1602179055506060820151816003015f6101000a81548173ffffffffffffffffffffffffffffffffffffffff021916908373ffffffffffffffffffffffffffffffffffffffff160217905550608082015181600401908161180a9190612930565b5060a0820151816005015560c0820151816006015f6101000a81548160ff02191690831515021790555060e08201518160070190816118499190612930565b50905050600160045f8881526020019081526020015f205f6101000a81548160ff02191690831515021790555060055f8673ffffffffffffffffffffffffffffffffffffffff1673ffffffffffffffffffffffffffffffffffffffff1681526020019081526020015f2087908060018154018082558091505060019003905f5260205f20015f90919091909150558473ffffffffffffffffffffffffffffffffffffffff16877ffc0130f045b99ddc021ab5370f3ebcc300526e38305dc6bbf89079a83abd3eb84260405161191e9190611f1a565b60405180910390a361192e6119be565b50505050505050565b600260015403611973576040517f3ee5aeb500000000000000000000000000000000000000000000000000000000815260040160405180910390fd5b6002600181905550565b61198561107d565b156119bc576040517fd93c066500000000000000000000000000000000000000000000000000000000815260040160405180910390fd5b565b60018081905550565b6119cf611bd2565b73ffffffffffffffffffffffffffffffffffffffff166119ed6110d4565b73ffffffffffffffffffffffffffffffffffffffff1614611a4c57611a10611bd2565b6040517f118cdaa7000000000000000000000000000000000000000000000000000000008152600401611a43919061239a565b60405180910390fd5b565b611a56611bd9565b5f60025f6101000a81548160ff0219169083151502179055507f5db9ee0a495bf2e6ff9c91a7834c1ba4fdd244a5e8aa4e537bd38aeae4b073aa611a98611bd2565b604051611aa5919061239a565b60405180910390a1565b5f805f9054906101000a900473ffffffffffffffffffffffffffffffffffffffff169050815f806101000a81548173ffffffffffffffffffffffffffffffffffffffff021916908373ffffffffffffffffffffffffffffffffffffffff1602179055508173ffffffffffffffffffffffffffffffffffffffff168173ffffffffffffffffffffffffffffffffffffffff167f8be0079c531659141344cd1fd0a4f28419497f9722a3daafe3b4186f6b6457e060405160405180910390a35050565b611b7861197d565b600160025f6101000a81548160ff0219169083151502179055507f62e78cea01bee320cd4e420270b5ea74000d11b0c9f74754ebdbfc544b05a258611bbb611bd2565b604051611bc8919061239a565b60405180910390a1565b5f33905090565b611be161107d565b611c17576040517f8dfc202b00000000000000000000000000000000000000000000000000000000815260040160405180910390fd5b565b6040518061010001604052805f80191681526020015f80191681526020015f73ffffffffffffffffffffffffffffffffffffffff1681526020015f73ffffffffffffffffffffffffffffffffffffffff168152602001606081526020015f81526020015f15158152602001606081525090565b5f80fd5b5f80fd5b5f819050919050565b611ca681611c94565b8114611cb0575f80fd5b50565b5f81359050611cc181611c9d565b92915050565b5f60208284031215611cdc57611cdb611c8c565b5b5f611ce984828501611cb3565b91505092915050565b611cfb81611c94565b82525050565b5f73ffffffffffffffffffffffffffffffffffffffff82169050919050565b5f611d2a82611d01565b9050919050565b611d3a81611d20565b82525050565b5f81519050919050565b5f82825260208201905092915050565b8281835e5f83830152505050565b5f601f19601f8301169050919050565b5f611d8282611d40565b611d8c8185611d4a565b9350611d9c818560208601611d5a565b611da581611d68565b840191505092915050565b5f819050919050565b611dc281611db0565b82525050565b5f8115159050919050565b611ddc81611dc8565b82525050565b5f61010083015f830151611df85f860182611cf2565b506020830151611e0b6020860182611cf2565b506040830151611e1e6040860182611d31565b506060830151611e316060860182611d31565b5060808301518482036080860152611e498282611d78565b91505060a0830151611e5e60a0860182611db9565b5060c0830151611e7160c0860182611dd3565b5060e083015184820360e0860152611e898282611d78565b9150508091505092915050565b5f6020820190508181035f830152611eae8184611de2565b905092915050565b611ebf81611d20565b8114611ec9575f80fd5b50565b5f81359050611eda81611eb6565b92915050565b5f60208284031215611ef557611ef4611c8c565b5b5f611f0284828501611ecc565b91505092915050565b611f1481611db0565b82525050565b5f602082019050611f2d5f830184611f0b565b92915050565b5f819050919050565b5f611f56611f51611f4c84611d01565b611f33565b611d01565b9050919050565b5f611f6782611f3c565b9050919050565b5f611f7882611f5d565b9050919050565b611f8881611f6e565b82525050565b5f602082019050611fa15f830184611f7f565b92915050565b611fb081611c94565b82525050565b611fbf81611d20565b82525050565b5f82825260208201905092915050565b5f611fdf82611d40565b611fe98185611fc5565b9350611ff9818560208601611d5a565b61200281611d68565b840191505092915050565b61201681611dc8565b82525050565b5f610100820190506120305f83018b611fa7565b61203d602083018a611fa7565b61204a6040830189611fb6565b6120576060830188611fb6565b81810360808301526120698187611fd5565b905061207860a0830186611f0b565b61208560c083018561200d565b81810360e08301526120978184611fd5565b90509998505050505050505050565b5f80fd5b5f80fd5b5f80fd5b5f8083601f8401126120c7576120c66120a6565b5b8235905067ffffffffffffffff8111156120e4576120e36120aa565b5b602083019150836001820283011115612100576120ff6120ae565b5b9250929050565b5f805f806060858703121561211f5761211e611c8c565b5b5f61212c87828801611ecc565b945050602085013567ffffffffffffffff81111561214d5761214c611c90565b5b612159878288016120b2565b9350935050604061216c87828801611cb3565b91505092959194509250565b61218181611db0565b811461218b575f80fd5b50565b5f8135905061219c81612178565b92915050565b5f805f606084860312156121b9576121b8611c8c565b5b5f6121c686828701611ecc565b93505060206121d78682870161218e565b92505060406121e88682870161218e565b9150509250925092565b5f81519050919050565b5f82825260208201905092915050565b5f819050602082019050919050565b5f61010083015f8301516122315f860182611cf2565b5060208301516122446020860182611cf2565b5060408301516122576040860182611d31565b50606083015161226a6060860182611d31565b50608083015184820360808601526122828282611d78565b91505060a083015161229760a0860182611db9565b5060c08301516122aa60c0860182611dd3565b5060e083015184820360e08601526122c28282611d78565b9150508091505092915050565b5f6122da838361221b565b905092915050565b5f602082019050919050565b5f6122f8826121f2565b61230281856121fc565b9350836020820285016123148561220c565b805f5b8581101561234f578484038952815161233085826122cf565b945061233b836122e2565b925060208a01995050600181019050612317565b50829750879550505050505092915050565b5f6020820190508181035f83015261237981846122ee565b905092915050565b5f6020820190506123945f83018461200d565b92915050565b5f6020820190506123ad5f830184611fb6565b92915050565b5f80604083850312156123c9576123c8611c8c565b5b5f6123d685828601611ecc565b92505060206123e78582860161218e565b9150509250929050565b5f6020820190506124045f830184611fa7565b92915050565b5f805f805f805f60a0888a03121561242557612424611c8c565b5b5f6124328a828b01611cb3565b97505060206124438a828b01611cb3565b96505060406124548a828b01611ecc565b955050606088013567ffffffffffffffff81111561247557612474611c90565b5b6124818a828b016120b2565b9450945050608088013567ffffffffffffffff8111156124a4576124a3611c90565b5b6124b08a828b016120b2565b925092505092959891949750929550565b5f82825260208201905092915050565b7f496e76616c696420636f6d6d69746d656e7400000000000000000000000000005f82015250565b5f6125056012836124c1565b9150612510826124d1565b602082019050919050565b5f6020820190508181035f830152612532816124f9565b9050919050565b7f4d657373616765206e6f7420666f756e640000000000000000000000000000005f82015250565b5f61256d6011836124c1565b915061257882612539565b602082019050919050565b5f6020820190508181035f83015261259a81612561565b9050919050565b7f4e487b71000000000000000000000000000000000000000000000000000000005f52602260045260245ffd5b5f60028204905060018216806125e557607f821691505b6020821081036125f8576125f76125a1565b5b50919050565b7f496e76616c696420726563697069656e740000000000000000000000000000005f82015250565b5f6126326011836124c1565b915061263d826125fe565b602082019050919050565b5f6020820190508181035f83015261265f81612626565b9050919050565b7f456d707479206d657373616765000000000000000000000000000000000000005f82015250565b5f61269a600d836124c1565b91506126a582612666565b602082019050919050565b5f6020820190508181035f8301526126c78161268e565b9050919050565b5f819050919050565b6126e86126e382611c94565b6126ce565b82525050565b5f8160601b9050919050565b5f612704826126ee565b9050919050565b5f612715826126fa565b9050919050565b61272d61272882611d20565b61270b565b82525050565b5f61273e82866126d7565b60208201915061274e828561271c565b60148201915061275e828461271c565b601482019150819050949350505050565b7f4e487b71000000000000000000000000000000000000000000000000000000005f52604160045260245ffd5b5f819050815f5260205f209050919050565b5f6020601f8301049050919050565b5f82821b905092915050565b5f600883026127f87fffffffffffffffffffffffffffffffffffffffffffffffffffffffffffffffff826127bd565b61280286836127bd565b95508019841693508086168417925050509392505050565b5f61283461282f61282a84611db0565b611f33565b611db0565b9050919050565b5f819050919050565b61284d8361281a565b6128616128598261283b565b8484546127c9565b825550505050565b5f90565b612875612869565b612880818484612844565b505050565b5b818110156128a3576128985f8261286d565b600181019050612886565b5050565b601f8211156128e8576128b98161279c565b6128c2846127ae565b810160208510156128d1578190505b6128e56128dd856127ae565b830182612885565b50505b505050565b5f82821c905092915050565b5f6129085f19846008026128ed565b1980831691505092915050565b5f61292083836128f9565b9150826002028217905092915050565b61293982611d40565b67ffffffffffffffff8111156129525761295161276f565b5b61295c82546125ce565b6129678282856128a7565b5f60209050601f831160018114612998575f8415612986578287015190505b6129908582612915565b8655506129f7565b601f1984166129a68661279c565b5f5b828110156129cd578489015182556001820191506020850194506020810190506129a8565b868310156129ea57848901516129e6601f8916826128f9565b8355505b6001600288020188555050505b505050505050565b7f496e76616c6964207665726966696572206164647265737300000000000000005f82015250565b5f612a336018836124c1565b9150612a3e826129ff565b602082019050919050565b5f6020820190508181035f830152612a6081612a27565b9050919050565b7f496e76616c6964207573657220616464726573730000000000000000000000005f82015250565b5f612a9b6014836124c1565b9150612aa682612a67565b602082019050919050565b5f6020820190508181035f830152612ac881612a8f565b9050919050565b7f496e76616c6964206c696d6974000000000000000000000000000000000000005f82015250565b5f612b03600d836124c1565b9150612b0e82612acf565b602082019050919050565b5f6020820190508181035f830152612b3081612af7565b9050919050565b7f4e487b71000000000000000000000000000000000000000000000000000000005f52601160045260245ffd5b5f612b6e82611db0565b9150612b7983611db0565b9250828201905080821115612b9157612b90612b37565b5b92915050565b7f496e76616c6964206f66667365740000000000000000000000000000000000005f82015250565b5f612bcb600e836124c1565b9150612bd682612b97565b602082019050919050565b5f6020820190508181035f830152612bf881612bbf565b9050919050565b5f612c0982611db0565b9150612c1483611db0565b9250828203905081811115612c2c57612c2b612b37565b5b92915050565b7f4e487b71000000000000000000000000000000000000000000000000000000005f52603260045260245ffd5b7f4e6f74206d65737361676520726563697069656e7400000000000000000000005f82015250565b5f612c936015836124c1565b9150612c9e82612c5f565b602082019050919050565b5f6020820190508181035f830152612cc081612c87565b9050919050565b7f4d65737361676520616c726561647920726561640000000000000000000000005f82015250565b5f612cfb6014836124c1565b9150612d0682612cc7565b602082019050919050565b5f6020820190508181035f830152612d2881612cef565b9050919050565b7f496e76616c6964206e756c6c69666965720000000000000000000000000000005f82015250565b5f612d636011836124c1565b9150612d6e82612d2f565b602082019050919050565b5f6020820190508181035f830152612d9081612d57565b9050919050565b7f456d7074792070726f6f660000000000000000000000000000000000000000005f82015250565b5f612dcb600b836124c1565b9150612dd682612d97565b602082019050919050565b5f6020820190508181035f830152612df881612dbf565b9050919050565b7f4e756c6c696669657220616c72656164792075736564000000000000000000005f82015250565b5f612e336016836124c1565b9150612e3e82612dff565b602082019050919050565b5f6020820190508181035f830152612e6081612e27565b9050919050565b828183375f83830152505050565b5f612e808385611fc5565b9350612e8d838584612e67565b612e9683611d68565b840190509392505050565b5f60c082019050612eb45f83018b611fa7565b612ec1602083018a611fa7565b612ece6040830189611fb6565b612edb6060830188611fb6565b8181036080830152612eee818688612e75565b905081810360a0830152612f03818486612e75565b90509998505050505050505050565b612f1b81611dc8565b8114612f25575f80fd5b50565b5f81519050612f3681612f12565b92915050565b5f60208284031215612f5157612f50611c8c565b5b5f612f5e84828501612f28565b91505092915050565b7f496e76616c69642070726f6f66000000000000000000000000000000000000005f82015250565b5f612f9b600d836124c1565b9150612fa682612f67565b602082019050919050565b5f6020820190508181035f830152612fc881612f8f565b905091905056fea264697066735822122030e8517af1b894ffe18ff150ddd8b0d21f7fb2299d82fbaf1b0cce0b9dd9a22564736f6c634300081a0033",
					"opcodes": "PUSH1 0x80 PUSH1 0x40 MSTORE CALLVALUE DUP1 ISZERO PUSH2 0xF JUMPI PUSH0 DUP1 REVERT JUMPDEST POP PUSH1 0x40 MLOAD PUSH2 0x3397 CODESIZE SUB DUP1 PUSH2 0x3397 DUP4 CODECOPY DUP2 DUP2 ADD PUSH1 0x40 MSTORE DUP2 ADD SWAP1 PUSH2 0x31 SWAP2 SWAP1 PUSH2 0x2A7 JUMP JUMPDEST DUP1 PUSH0 PUSH20 0xFFFFFFFFFFFFFFFFFFFFFFFFFFFFFFFFFFFFFFFF AND DUP2 PUSH20 0xFFFFFFFFFFFFFFFFFFFFFFFFFFFFFFFFFFFFFFFF AND SUB PUSH2 0xA2 JUMPI PUSH0 PUSH1 0x40 MLOAD PUSH32 0x1E4FBDF700000000000000000000000000000000000000000000000000000000 DUP2 MSTORE PUSH1 0x4 ADD PUSH2 0x99 SWAP2 SWAP1 PUSH2 0x2F4 JUMP JUMPDEST PUSH1 0x40 MLOAD DUP1 SWAP2 SUB SWAP1 REVERT JUMPDEST PUSH2 0xB1 DUP2 PUSH2 0x188 PUSH1 0x20 SHL PUSH1 0x20 SHR JUMP JUMPDEST POP PUSH1 0x1 DUP1 DUP2 SWAP1 SSTORE POP PUSH0 PUSH1 0x2 PUSH0 PUSH2 0x100 EXP DUP2 SLOAD DUP2 PUSH1 0xFF MUL NOT AND SWAP1 DUP4 ISZERO ISZERO MUL OR SWAP1 SSTORE POP PUSH0 PUSH20 0xFFFFFFFFFFFFFFFFFFFFFFFFFFFFFFFFFFFFFFFF AND DUP3 PUSH20 0xFFFFFFFFFFFFFFFFFFFFFFFFFFFFFFFFFFFFFFFF AND SUB PUSH2 0x140 JUMPI PUSH1 0x40 MLOAD PUSH32 0x8C379A000000000000000000000000000000000000000000000000000000000 DUP2 MSTORE PUSH1 0x4 ADD PUSH2 0x137 SWAP1 PUSH2 0x367 JUMP JUMPDEST PUSH1 0x40 MLOAD DUP1 SWAP2 SUB SWAP1 REVERT JUMPDEST DUP2 PUSH1 0x2 PUSH1 0x1 PUSH2 0x100 EXP DUP2 SLOAD DUP2 PUSH20 0xFFFFFFFFFFFFFFFFFFFFFFFFFFFFFFFFFFFFFFFF MUL NOT AND SWAP1 DUP4 PUSH20 0xFFFFFFFFFFFFFFFFFFFFFFFFFFFFFFFFFFFFFFFF AND MUL OR SWAP1 SSTORE POP POP POP PUSH2 0x385 JUMP JUMPDEST PUSH0 DUP1 PUSH0 SWAP1 SLOAD SWAP1 PUSH2 0x100 EXP SWAP1 DIV PUSH20 0xFFFFFFFFFFFFFFFFFFFFFFFFFFFFFFFFFFFFFFFF AND SWAP1 POP DUP2 PUSH0 DUP1 PUSH2 0x100 EXP DUP2 SLOAD DUP2 PUSH20 0xFFFFFFFFFFFFFFFFFFFFFFFFFFFFFFFFFFFFFFFF MUL NOT AND SWAP1 DUP4 PUSH20 0xFFFFFFFFFFFFFFFFFFFFFFFFFFFFFFFFFFFFFFFF AND MUL OR SWAP1 SSTORE POP DUP2 PUSH20 0xFFFFFFFFFFFFFFFFFFFFFFFFFFFFFFFFFFFFFFFF AND DUP2 PUSH20 0xFFFFFFFFFFFFFFFFFFFFFFFFFFFFFFFFFFFFFFFF AND PUSH32 0x8BE0079C531659141344CD1FD0A4F28419497F9722A3DAAFE3B4186F6B6457E0 PUSH1 0x40 MLOAD PUSH1 0x40 MLOAD DUP1 SWAP2 SUB SWAP1 LOG3 POP POP JUMP JUMPDEST PUSH0 DUP1 REVERT JUMPDEST PUSH0 PUSH20 0xFFFFFFFFFFFFFFFFFFFFFFFFFFFFFFFFFFFFFFFF DUP3 AND SWAP1 POP SWAP2 SWAP1 POP JUMP JUMPDEST PUSH0 PUSH2 0x276 DUP3 PUSH2 0x24D JUMP JUMPDEST SWAP1 POP SWAP2 SWAP1 POP JUMP JUMPDEST PUSH2 0x286 DUP2 PUSH2 0x26C JUMP JUMPDEST DUP2 EQ PUSH2 0x290 JUMPI PUSH0 DUP1 REVERT JUMPDEST POP JUMP JUMPDEST PUSH0 DUP2 MLOAD SWAP1 POP PUSH2 0x2A1 DUP2 PUSH2 0x27D JUMP JUMPDEST SWAP3 SWAP2 POP POP JUMP JUMPDEST PUSH0 DUP1 PUSH1 0x40 DUP4 DUP6 SUB SLT ISZERO PUSH2 0x2BD JUMPI PUSH2 0x2BC PUSH2 0x249 JUMP JUMPDEST JUMPDEST PUSH0 PUSH2 0x2CA DUP6 DUP3 DUP7 ADD PUSH2 0x293 JUMP JUMPDEST SWAP3 POP POP PUSH1 0x20 PUSH2 0x2DB DUP6 DUP3 DUP7 ADD PUSH2 0x293 JUMP JUMPDEST SWAP2 POP POP SWAP3 POP SWAP3 SWAP1 POP JUMP JUMPDEST PUSH2 0x2EE DUP2 PUSH2 0x26C JUMP JUMPDEST DUP3 MSTORE POP POP JUMP JUMPDEST PUSH0 PUSH1 0x20 DUP3 ADD SWAP1 POP PUSH2 0x307 PUSH0 DUP4 ADD DUP5 PUSH2 0x2E5 JUMP JUMPDEST SWAP3 SWAP2 POP POP JUMP JUMPDEST PUSH0 DUP3 DUP3 MSTORE PUSH1 0x20 DUP3 ADD SWAP1 POP SWAP3 SWAP2 POP POP JUMP JUMPDEST PUSH32 0x496E76616C696420766572696669657220616464726573730000000000000000 PUSH0 DUP3 ADD MSTORE POP JUMP JUMPDEST PUSH0 PUSH2 0x351 PUSH1 0x18 DUP4 PUSH2 0x30D JUMP JUMPDEST SWAP2 POP PUSH2 0x35C DUP3 PUSH2 0x31D JUMP JUMPDEST PUSH1 0x20 DUP3 ADD SWAP1 POP SWAP2 SWAP1 POP JUMP JUMPDEST PUSH0 PUSH1 0x20 DUP3 ADD SWAP1 POP DUP2 DUP2 SUB PUSH0 DUP4 ADD MSTORE PUSH2 0x37E DUP2 PUSH2 0x345 JUMP JUMPDEST SWAP1 POP SWAP2 SWAP1 POP JUMP JUMPDEST PUSH2 0x3005 DUP1 PUSH2 0x392 PUSH0 CODECOPY PUSH0 RETURN INVALID PUSH1 0x80 PUSH1 0x40 MSTORE CALLVALUE DUP1 ISZERO PUSH2 0xF JUMPI PUSH0 DUP1 REVERT JUMPDEST POP PUSH1 0x4 CALLDATASIZE LT PUSH2 0x109 JUMPI PUSH0 CALLDATALOAD PUSH1 0xE0 SHR DUP1 PUSH4 0x5C975ABB GT PUSH2 0xA0 JUMPI DUP1 PUSH4 0x8DA5CB5B GT PUSH2 0x6F JUMPI DUP1 PUSH4 0x8DA5CB5B EQ PUSH2 0x296 JUMPI DUP1 PUSH4 0x9428CDA3 EQ PUSH2 0x2B4 JUMPI DUP1 PUSH4 0xF2FDE38B EQ PUSH2 0x2E4 JUMPI DUP1 PUSH4 0xFE97C0B7 EQ PUSH2 0x300 JUMPI DUP1 PUSH4 0xFF4B91F5 EQ PUSH2 0x31C JUMPI PUSH2 0x109 JUMP JUMPDEST DUP1 PUSH4 0x5C975ABB EQ PUSH2 0x234 JUMPI DUP1 PUSH4 0x715018A6 EQ PUSH2 0x252 JUMPI DUP1 PUSH4 0x7ECF686D EQ PUSH2 0x25C JUMPI DUP1 PUSH4 0x8456CB59 EQ PUSH2 0x28C JUMPI PUSH2 0x109 JUMP JUMPDEST DUP1 PUSH4 0x2C4AC770 GT PUSH2 0xDC JUMPI DUP1 PUSH4 0x2C4AC770 EQ PUSH2 0x1C2 JUMPI DUP1 PUSH4 0x3F4BA83A EQ PUSH2 0x1DE JUMPI DUP1 PUSH4 0x5437988D EQ PUSH2 0x1E8 JUMPI DUP1 PUSH4 0x57B9222F EQ PUSH2 0x204 JUMPI PUSH2 0x109 JUMP JUMPDEST DUP1 PUSH4 0x139A221 EQ PUSH2 0x10D JUMPI DUP1 PUSH4 0x2B659BFB EQ PUSH2 0x13D JUMPI DUP1 PUSH4 0x2B7AC3F3 EQ PUSH2 0x16D JUMPI DUP1 PUSH4 0x2BBD59CA EQ PUSH2 0x18B JUMPI JUMPDEST PUSH0 DUP1 REVERT JUMPDEST PUSH2 0x127 PUSH1 0x4 DUP1 CALLDATASIZE SUB DUP2 ADD SWAP1 PUSH2 0x122 SWAP2 SWAP1 PUSH2 0x1CC7 JUMP JUMPDEST PUSH2 0x338 JUMP JUMPDEST PUSH1 0x40 MLOAD PUSH2 0x134 SWAP2 SWAP1 PUSH2 0x1E96 JUMP JUMPDEST PUSH1 0x40 MLOAD DUP1 SWAP2 SUB SWAP1 RETURN JUMPDEST PUSH2 0x157 PUSH1 0x4 DUP1 CALLDATASIZE SUB DUP2 ADD SWAP1 PUSH2 0x152 SWAP2 SWAP1 PUSH2 0x1EE0 JUMP JUMPDEST PUSH2 0x5F5 JUMP JUMPDEST PUSH1 0x40 MLOAD PUSH2 0x164 SWAP2 SWAP1 PUSH2 0x1F1A JUMP JUMPDEST PUSH1 0x40 MLOAD DUP1 SWAP2 SUB SWAP1 RETURN JUMPDEST PUSH2 0x175 PUSH2 0x63E JUMP JUMPDEST PUSH1 0x40 MLOAD PUSH2 0x182 SWAP2 SWAP1 PUSH2 0x1F8E JUMP JUMPDEST PUSH1 0x40 MLOAD DUP1 SWAP2 SUB SWAP1 RETURN JUMPDEST PUSH2 0x1A5 PUSH1 0x4 DUP1 CALLDATASIZE SUB DUP2 ADD SWAP1 PUSH2 0x1A0 SWAP2 SWAP1 PUSH2 0x1CC7 JUMP JUMPDEST PUSH2 0x664 JUMP JUMPDEST PUSH1 0x40 MLOAD PUSH2 0x1B9 SWAP9 SWAP8 SWAP7 SWAP6 SWAP5 SWAP4 SWAP3 SWAP2 SWAP1 PUSH2 0x201C JUMP JUMPDEST PUSH1 0x40 MLOAD DUP1 SWAP2 SUB SWAP1 RETURN JUMPDEST PUSH2 0x1DC PUSH1 0x4 DUP1 CALLDATASIZE SUB DUP2 ADD SWAP1 PUSH2 0x1D7 SWAP2 SWAP1 PUSH2 0x2107 JUMP JUMPDEST PUSH2 0x7FE JUMP JUMPDEST STOP JUMPDEST PUSH2 0x1E6 PUSH2 0xB6E JUMP JUMPDEST STOP JUMPDEST PUSH2 0x202 PUSH1 0x4 DUP1 CALLDATASIZE SUB DUP2 ADD SWAP1 PUSH2 0x1FD SWAP2 SWAP1 PUSH2 0x1EE0 JUMP JUMPDEST PUSH2 0xB80 JUMP JUMPDEST STOP JUMPDEST PUSH2 0x21E PUSH1 0x4 DUP1 CALLDATASIZE SUB DUP2 ADD SWAP1 PUSH2 0x219 SWAP2 SWAP1 PUSH2 0x21A2 JUMP JUMPDEST PUSH2 0xC3A JUMP JUMPDEST PUSH1 0x40 MLOAD PUSH2 0x22B SWAP2 SWAP1 PUSH2 0x2361 JUMP JUMPDEST PUSH1 0x40 MLOAD DUP1 SWAP2 SUB SWAP1 RETURN JUMPDEST PUSH2 0x23C PUSH2 0x107D JUMP JUMPDEST PUSH1 0x40 MLOAD PUSH2 0x249 SWAP2 SWAP1 PUSH2 0x2381 JUMP JUMPDEST PUSH1 0x40 MLOAD DUP1 SWAP2 SUB SWAP1 RETURN JUMPDEST PUSH2 0x25A PUSH2 0x1092 JUMP JUMPDEST STOP JUMPDEST PUSH2 0x276 PUSH1 0x4 DUP1 CALLDATASIZE SUB DUP2 ADD SWAP1 PUSH2 0x271 SWAP2 SWAP1 PUSH2 0x1CC7 JUMP JUMPDEST PUSH2 0x10A5 JUMP JUMPDEST PUSH1 0x40 MLOAD PUSH2 0x283 SWAP2 SWAP1 PUSH2 0x2381 JUMP JUMPDEST PUSH1 0x40 MLOAD DUP1 SWAP2 SUB SWAP1 RETURN JUMPDEST PUSH2 0x294 PUSH2 0x10C2 JUMP JUMPDEST STOP JUMPDEST PUSH2 0x29E PUSH2 0x10D4 JUMP JUMPDEST PUSH1 0x40 MLOAD PUSH2 0x2AB SWAP2 SWAP1 PUSH2 0x239A JUMP JUMPDEST PUSH1 0x40 MLOAD DUP1 SWAP2 SUB SWAP1 RETURN JUMPDEST PUSH2 0x2CE PUSH1 0x4 DUP1 CALLDATASIZE SUB DUP2 ADD SWAP1 PUSH2 0x2C9 SWAP2 SWAP1 PUSH2 0x23B3 JUMP JUMPDEST PUSH2 0x10FB JUMP JUMPDEST PUSH1 0x40 MLOAD PUSH2 0x2DB SWAP2 SWAP1 PUSH2 0x23F1 JUMP JUMPDEST PUSH1 0x40 MLOAD DUP1 SWAP2 SUB SWAP1 RETURN JUMPDEST PUSH2 0x2FE PUSH1 0x4 DUP1 CALLDATASIZE SUB DUP2 ADD SWAP1 PUSH2 0x2F9 SWAP2 SWAP1 PUSH2 0x1EE0 JUMP JUMPDEST PUSH2 0x1126 JUMP JUMPDEST STOP JUMPDEST PUSH2 0x31A PUSH1 0x4 DUP1 CALLDATASIZE SUB DUP2 ADD SWAP1 PUSH2 0x315 SWAP2 SWAP1 PUSH2 0x1CC7 JUMP JUMPDEST PUSH2 0x11AA JUMP JUMPDEST STOP JUMPDEST PUSH2 0x336 PUSH1 0x4 DUP1 CALLDATASIZE SUB DUP2 ADD SWAP1 PUSH2 0x331 SWAP2 SWAP1 PUSH2 0x240A JUMP JUMPDEST PUSH2 0x1383 JUMP JUMPDEST STOP JUMPDEST PUSH2 0x340 PUSH2 0x1C19 JUMP JUMPDEST PUSH0 DUP1 SHL DUP3 SUB PUSH2 0x384 JUMPI PUSH1 0x40 MLOAD PUSH32 0x8C379A000000000000000000000000000000000000000000000000000000000 DUP2 MSTORE PUSH1 0x4 ADD PUSH2 0x37B SWAP1 PUSH2 0x251B JUMP JUMPDEST PUSH1 0x40 MLOAD DUP1 SWAP2 SUB SWAP1 REVERT JUMPDEST PUSH0 PUSH1 0x3 PUSH0 DUP5 DUP2 MSTORE PUSH1 0x20 ADD SWAP1 DUP2 MSTORE PUSH1 0x20 ADD PUSH0 KECCAK256 SWAP1 POP PUSH0 DUP1 SHL DUP2 PUSH0 ADD SLOAD SUB PUSH2 0x3DF JUMPI PUSH1 0x40 MLOAD PUSH32 0x8C379A000000000000000000000000000000000000000000000000000000000 DUP2 MSTORE PUSH1 0x4 ADD PUSH2 0x3D6 SWAP1 PUSH2 0x2583 JUMP JUMPDEST PUSH1 0x40 MLOAD DUP1 SWAP2 SUB SWAP1 REVERT JUMPDEST DUP1 PUSH1 0x40 MLOAD DUP1 PUSH2 0x100 ADD PUSH1 0x40 MSTORE SWAP1 DUP2 PUSH0 DUP3 ADD SLOAD DUP2 MSTORE PUSH1 0x20 ADD PUSH1 0x1 DUP3 ADD SLOAD DUP2 MSTORE PUSH1 0x20 ADD PUSH1 0x2 DUP3 ADD PUSH0 SWAP1 SLOAD SWAP1 PUSH2 0x100 EXP SWAP1 DIV PUSH20 0xFFFFFFFFFFFFFFFFFFFFFFFFFFFFFFFFFFFFFFFF AND PUSH20 0xFFFFFFFFFFFFFFFFFFFFFFFFFFFFFFFFFFFFFFFF AND PUSH20 0xFFFFFFFFFFFFFFFFFFFFFFFFFFFFFFFFFFFFFFFF AND DUP2 MSTORE PUSH1 0x20 ADD PUSH1 0x3 DUP3 ADD PUSH0 SWAP1 SLOAD SWAP1 PUSH2 0x100 EXP SWAP1 DIV PUSH20 0xFFFFFFFFFFFFFFFFFFFFFFFFFFFFFFFFFFFFFFFF AND PUSH20 0xFFFFFFFFFFFFFFFFFFFFFFFFFFFFFFFFFFFFFFFF AND PUSH20 0xFFFFFFFFFFFFFFFFFFFFFFFFFFFFFFFFFFFFFFFF AND DUP2 MSTORE PUSH1 0x20 ADD PUSH1 0x4 DUP3 ADD DUP1 SLOAD PUSH2 0x4B9 SWAP1 PUSH2 0x25CE JUMP JUMPDEST DUP1 PUSH1 0x1F ADD PUSH1 0x20 DUP1 SWAP2 DIV MUL PUSH1 0x20 ADD PUSH1 0x40 MLOAD SWAP1 DUP2 ADD PUSH1 0x40 MSTORE DUP1 SWAP3 SWAP2 SWAP1 DUP2 DUP2 MSTORE PUSH1 0x20 ADD DUP3 DUP1 SLOAD PUSH2 0x4E5 SWAP1 PUSH2 0x25CE JUMP JUMPDEST DUP1 ISZERO PUSH2 0x530 JUMPI DUP1 PUSH1 0x1F LT PUSH2 0x507 JUMPI PUSH2 0x100 DUP1 DUP4 SLOAD DIV MUL DUP4 MSTORE SWAP2 PUSH1 0x20 ADD SWAP2 PUSH2 0x530 JUMP JUMPDEST DUP3 ADD SWAP2 SWAP1 PUSH0 MSTORE PUSH1 0x20 PUSH0 KECCAK256 SWAP1 JUMPDEST DUP2 SLOAD DUP2 MSTORE SWAP1 PUSH1 0x1 ADD SWAP1 PUSH1 0x20 ADD DUP1 DUP4 GT PUSH2 0x513 JUMPI DUP3 SWAP1 SUB PUSH1 0x1F AND DUP3 ADD SWAP2 JUMPDEST POP POP POP POP POP DUP2 MSTORE PUSH1 0x20 ADD PUSH1 0x5 DUP3 ADD SLOAD DUP2 MSTORE PUSH1 0x20 ADD PUSH1 0x6 DUP3 ADD PUSH0 SWAP1 SLOAD SWAP1 PUSH2 0x100 EXP SWAP1 DIV PUSH1 0xFF AND ISZERO ISZERO ISZERO ISZERO DUP2 MSTORE PUSH1 0x20 ADD PUSH1 0x7 DUP3 ADD DUP1 SLOAD PUSH2 0x56D SWAP1 PUSH2 0x25CE JUMP JUMPDEST DUP1 PUSH1 0x1F ADD PUSH1 0x20 DUP1 SWAP2 DIV MUL PUSH1 0x20 ADD PUSH1 0x40 MLOAD SWAP1 DUP2 ADD PUSH1 0x40 MSTORE DUP1 SWAP3 SWAP2 SWAP1 DUP2 DUP2 MSTORE PUSH1 0x20 ADD DUP3 DUP1 SLOAD PUSH2 0x599 SWAP1 PUSH2 0x25CE JUMP JUMPDEST DUP1 ISZERO PUSH2 0x5E4 JUMPI DUP1 PUSH1 0x1F LT PUSH2 0x5BB JUMPI PUSH2 0x100 DUP1 DUP4 SLOAD DIV MUL DUP4 MSTORE SWAP2 PUSH1 0x20 ADD SWAP2 PUSH2 0x5E4 JUMP JUMPDEST DUP3 ADD SWAP2 SWAP1 PUSH0 MSTORE PUSH1 0x20 PUSH0 KECCAK256 SWAP1 JUMPDEST DUP2 SLOAD DUP2 MSTORE SWAP1 PUSH1 0x1 ADD SWAP1 PUSH1 0x20 ADD DUP1 DUP4 GT PUSH2 0x5C7 JUMPI DUP3 SWAP1 SUB PUSH1 0x1F AND DUP3 ADD SWAP2 JUMPDEST POP POP POP POP POP DUP2 MSTORE POP POP SWAP2 POP POP SWAP2 SWAP1 POP JUMP JUMPDEST PUSH0 PUSH1 0x5 PUSH0 DUP4 PUSH20 0xFFFFFFFFFFFFFFFFFFFFFFFFFFFFFFFFFFFFFFFF AND PUSH20 0xFFFFFFFFFFFFFFFFFFFFFFFFFFFFFFFFFFFFFFFF AND DUP2 MSTORE PUSH1 0x20 ADD SWAP1 DUP2 MSTORE PUSH1 0x20 ADD PUSH0 KECCAK256 DUP1 SLOAD SWAP1 POP SWAP1 POP SWAP2 SWAP1 POP JUMP JUMPDEST PUSH1 0x2 PUSH1 0x1 SWAP1 SLOAD SWAP1 PUSH2 0x100 EXP SWAP1 DIV PUSH20 0xFFFFFFFFFFFFFFFFFFFFFFFFFFFFFFFFFFFFFFFF AND DUP2 JUMP JUMPDEST PUSH1 0x3 PUSH1 0x20 MSTORE DUP1 PUSH0 MSTORE PUSH1 0x40 PUSH0 KECCAK256 PUSH0 SWAP2 POP SWAP1 POP DUP1 PUSH0 ADD SLOAD SWAP1 DUP1 PUSH1 0x1 ADD SLOAD SWAP1 DUP1 PUSH1 0x2 ADD PUSH0 SWAP1 SLOAD SWAP1 PUSH2 0x100 EXP SWAP1 DIV PUSH20 0xFFFFFFFFFFFFFFFFFFFFFFFFFFFFFFFFFFFFFFFF AND SWAP1 DUP1 PUSH1 0x3 ADD PUSH0 SWAP1 SLOAD SWAP1 PUSH2 0x100 EXP SWAP1 DIV PUSH20 0xFFFFFFFFFFFFFFFFFFFFFFFFFFFFFFFFFFFFFFFF AND SWAP1 DUP1 PUSH1 0x4 ADD DUP1 SLOAD PUSH2 0x6D9 SWAP1 PUSH2 0x25CE JUMP JUMPDEST DUP1 PUSH1 0x1F ADD PUSH1 0x20 DUP1 SWAP2 DIV MUL PUSH1 0x20 ADD PUSH1 0x40 MLOAD SWAP1 DUP2 ADD PUSH1 0x40 MSTORE DUP1 SWAP3 SWAP2 SWAP1 DUP2 DUP2 MSTORE PUSH1 0x20 ADD DUP3 DUP1 SLOAD PUSH2 0x705 SWAP1 PUSH2 0x25CE JUMP JUMPDEST DUP1 ISZERO PUSH2 0x750 JUMPI DUP1 PUSH1 0x1F LT PUSH2 0x727 JUMPI PUSH2 0x100 DUP1 DUP4 SLOAD DIV MUL DUP4 MSTORE SWAP2 PUSH1 0x20 ADD SWAP2 PUSH2 0x750 JUMP JUMPDEST DUP3 ADD SWAP2 SWAP1 PUSH0 MSTORE PUSH1 0x20 PUSH0 KECCAK256 SWAP1 JUMPDEST DUP2 SLOAD DUP2 MSTORE SWAP1 PUSH1 0x1 ADD SWAP1 PUSH1 0x20 ADD DUP1 DUP4 GT PUSH2 0x733 JUMPI DUP3 SWAP1 SUB PUSH1 0x1F AND DUP3 ADD SWAP2 JUMPDEST POP POP POP POP POP SWAP1 DUP1 PUSH1 0x5 ADD SLOAD SWAP1 DUP1 PUSH1 0x6 ADD PUSH0 SWAP1 SLOAD SWAP1 PUSH2 0x100 EXP SWAP1 DIV PUSH1 0xFF AND SWAP1 DUP1 PUSH1 0x7 ADD DUP1 SLOAD PUSH2 0x77D SWAP1 PUSH2 0x25CE JUMP JUMPDEST DUP1 PUSH1 0x1F ADD PUSH1 0x20 DUP1 SWAP2 DIV MUL PUSH1 0x20 ADD PUSH1 0x40 MLOAD SWAP1 DUP2 ADD PUSH1 0x40 MSTORE DUP1 SWAP3 SWAP2 SWAP1 DUP2 DUP2 MSTORE PUSH1 0x20 ADD DUP3 DUP1 SLOAD PUSH2 0x7A9 SWAP1 PUSH2 0x25CE JUMP JUMPDEST DUP1 ISZERO PUSH2 0x7F4 JUMPI DUP1 PUSH1 0x1F LT PUSH2 0x7CB JUMPI PUSH2 0x100 DUP1 DUP4 SLOAD DIV MUL DUP4 MSTORE SWAP2 PUSH1 0x20 ADD SWAP2 PUSH2 0x7F4 JUMP JUMPDEST DUP3 ADD SWAP2 SWAP1 PUSH0 MSTORE PUSH1 0x20 PUSH0 KECCAK256 SWAP1 JUMPDEST DUP2 SLOAD DUP2 MSTORE SWAP1 PUSH1 0x1 ADD SWAP1 PUSH1 0x20 ADD DUP1 DUP4 GT PUSH2 0x7D7 JUMPI DUP3 SWAP1 SUB PUSH1 0x1F AND DUP3 ADD SWAP2 JUMPDEST POP POP POP POP POP SWAP1 POP DUP9 JUMP JUMPDEST PUSH2 0x806 PUSH2 0x1937 JUMP JUMPDEST PUSH2 0x80E PUSH2 0x197D JUMP JUMPDEST PUSH0 PUSH20 0xFFFFFFFFFFFFFFFFFFFFFFFFFFFFFFFFFFFFFFFF AND DUP5 PUSH20 0xFFFFFFFFFFFFFFFFFFFFFFFFFFFFFFFFFFFFFFFF AND SUB PUSH2 0x87C JUMPI PUSH1 0x40 MLOAD PUSH32 0x8C379A000000000000000000000000000000000000000000000000000000000 DUP2 MSTORE PUSH1 0x4 ADD PUSH2 0x873 SWAP1 PUSH2 0x2648 JUMP JUMPDEST PUSH1 0x40 MLOAD DUP1 SWAP2 SUB SWAP1 REVERT JUMPDEST PUSH0 DUP4 DUP4 SWAP1 POP GT PUSH2 0x8C1 JUMPI PUSH1 0x40 MLOAD PUSH32 0x8C379A000000000000000000000000000000000000000000000000000000000 DUP2 MSTORE PUSH1 0x4 ADD PUSH2 0x8B8 SWAP1 PUSH2 0x26B0 JUMP JUMPDEST PUSH1 0x40 MLOAD DUP1 SWAP2 SUB SWAP1 REVERT JUMPDEST PUSH0 DUP2 CALLER DUP7 PUSH1 0x40 MLOAD PUSH1 0x20 ADD PUSH2 0x8D7 SWAP4 SWAP3 SWAP2 SWAP1 PUSH2 0x2733 JUMP JUMPDEST PUSH1 0x40 MLOAD PUSH1 0x20 DUP2 DUP4 SUB SUB DUP2 MSTORE SWAP1 PUSH1 0x40 MSTORE DUP1 MLOAD SWAP1 PUSH1 0x20 ADD KECCAK256 SWAP1 POP PUSH1 0x40 MLOAD DUP1 PUSH2 0x100 ADD PUSH1 0x40 MSTORE DUP1 DUP3 DUP2 MSTORE PUSH1 0x20 ADD DUP4 DUP2 MSTORE PUSH1 0x20 ADD CALLER PUSH20 0xFFFFFFFFFFFFFFFFFFFFFFFFFFFFFFFFFFFFFFFF AND DUP2 MSTORE PUSH1 0x20 ADD DUP7 PUSH20 0xFFFFFFFFFFFFFFFFFFFFFFFFFFFFFFFFFFFFFFFF AND DUP2 MSTORE PUSH1 0x20 ADD DUP6 DUP6 DUP1 DUP1 PUSH1 0x1F ADD PUSH1 0x20 DUP1 SWAP2 DIV MUL PUSH1 0x20 ADD PUSH1 0x40 MLOAD SWAP1 DUP2 ADD PUSH1 0x40 MSTORE DUP1 SWAP4 SWAP3 SWAP2 SWAP1 DUP2 DUP2 MSTORE PUSH1 0x20 ADD DUP4 DUP4 DUP1 DUP3 DUP5 CALLDATACOPY PUSH0 DUP2 DUP5 ADD MSTORE PUSH1 0x1F NOT PUSH1 0x1F DUP3 ADD AND SWAP1 POP DUP1 DUP4 ADD SWAP3 POP POP POP POP POP POP POP DUP2 MSTORE PUSH1 0x20 ADD TIMESTAMP DUP2 MSTORE PUSH1 0x20 ADD PUSH0 ISZERO ISZERO DUP2 MSTORE PUSH1 0x20 ADD PUSH1 0x40 MLOAD DUP1 PUSH1 0x20 ADD PUSH1 0x40 MSTORE DUP1 PUSH0 DUP2 MSTORE POP DUP2 MSTORE POP PUSH1 0x3 PUSH0 DUP4 DUP2 MSTORE PUSH1 0x20 ADD SWAP1 DUP2 MSTORE PUSH1 0x20 ADD PUSH0 KECCAK256 PUSH0 DUP3 ADD MLOAD DUP2 PUSH0 ADD SSTORE PUSH1 0x20 DUP3 ADD MLOAD DUP2 PUSH1 0x1 ADD SSTORE PUSH1 0x40 DUP3 ADD MLOAD DUP2 PUSH1 0x2 ADD PUSH0 PUSH2 0x100 EXP DUP2 SLOAD DUP2 PUSH20 0xFFFFFFFFFFFFFFFFFFFFFFFFFFFFFFFFFFFFFFFF MUL NOT AND SWAP1 DUP4 PUSH20 0xFFFFFFFFFFFFFFFFFFFFFFFFFFFFFFFFFFFFFFFF AND MUL OR SWAP1 SSTORE POP PUSH1 0x60 DUP3 ADD MLOAD DUP2 PUSH1 0x3 ADD PUSH0 PUSH2 0x100 EXP DUP2 SLOAD DUP2 PUSH20 0xFFFFFFFFFFFFFFFFFFFFFFFFFFFFFFFFFFFFFFFF MUL NOT AND SWAP1 DUP4 PUSH20 0xFFFFFFFFFFFFFFFFFFFFFFFFFFFFFFFFFFFFFFFF AND MUL OR SWAP1 SSTORE POP PUSH1 0x80 DUP3 ADD MLOAD DUP2 PUSH1 0x4 ADD SWAP1 DUP2 PUSH2 0xA6C SWAP2 SWAP1 PUSH2 0x2930 JUMP JUMPDEST POP PUSH1 0xA0 DUP3 ADD MLOAD DUP2 PUSH1 0x5 ADD SSTORE PUSH1 0xC0 DUP3 ADD MLOAD DUP2 PUSH1 0x6 ADD PUSH0 PUSH2 0x100 EXP DUP2 SLOAD DUP2 PUSH1 0xFF MUL NOT AND SWAP1 DUP4 ISZERO ISZERO MUL OR SWAP1 SSTORE POP PUSH1 0xE0 DUP3 ADD MLOAD DUP2 PUSH1 0x7 ADD SWAP1 DUP2 PUSH2 0xAAB SWAP2 SWAP1 PUSH2 0x2930 JUMP JUMPDEST POP SWAP1 POP POP PUSH1 0x5 PUSH0 DUP7 PUSH20 0xFFFFFFFFFFFFFFFFFFFFFFFFFFFFFFFFFFFFFFFF AND PUSH20 0xFFFFFFFFFFFFFFFFFFFFFFFFFFFFFFFFFFFFFFFF AND DUP2 MSTORE PUSH1 0x20 ADD SWAP1 DUP2 MSTORE PUSH1 0x20 ADD PUSH0 KECCAK256 DUP2 SWAP1 DUP1 PUSH1 0x1 DUP2 SLOAD ADD DUP1 DUP3 SSTORE DUP1 SWAP2 POP POP PUSH1 0x1 SWAP1 SUB SWAP1 PUSH0 MSTORE PUSH1 0x20 PUSH0 KECCAK256 ADD PUSH0 SWAP1 SWAP2 SWAP1 SWAP2 SWAP1 SWAP2 POP SSTORE DUP5 PUSH20 0xFFFFFFFFFFFFFFFFFFFFFFFFFFFFFFFFFFFFFFFF AND DUP2 PUSH32 0xFC0130F045B99DDC021AB5370F3EBCC300526E38305DC6BBF89079A83ABD3EB8 TIMESTAMP PUSH1 0x40 MLOAD PUSH2 0xB57 SWAP2 SWAP1 PUSH2 0x1F1A JUMP JUMPDEST PUSH1 0x40 MLOAD DUP1 SWAP2 SUB SWAP1 LOG3 POP PUSH2 0xB68 PUSH2 0x19BE JUMP JUMPDEST POP POP POP POP JUMP JUMPDEST PUSH2 0xB76 PUSH2 0x19C7 JUMP JUMPDEST PUSH2 0xB7E PUSH2 0x1A4E JUMP JUMPDEST JUMP JUMPDEST PUSH2 0xB88 PUSH2 0x19C7 JUMP JUMPDEST PUSH0 PUSH20 0xFFFFFFFFFFFFFFFFFFFFFFFFFFFFFFFFFFFFFFFF AND DUP2 PUSH20 0xFFFFFFFFFFFFFFFFFFFFFFFFFFFFFFFFFFFFFFFF AND SUB PUSH2 0xBF6 JUMPI PUSH1 0x40 MLOAD PUSH32 0x8C379A000000000000000000000000000000000000000000000000000000000 DUP2 MSTORE PUSH1 0x4 ADD PUSH2 0xBED SWAP1 PUSH2 0x2A49 JUMP JUMPDEST PUSH1 0x40 MLOAD DUP1 SWAP2 SUB SWAP1 REVERT JUMPDEST DUP1 PUSH1 0x2 PUSH1 0x1 PUSH2 0x100 EXP DUP2 SLOAD DUP2 PUSH20 0xFFFFFFFFFFFFFFFFFFFFFFFFFFFFFFFFFFFFFFFF MUL NOT AND SWAP1 DUP4 PUSH20 0xFFFFFFFFFFFFFFFFFFFFFFFFFFFFFFFFFFFFFFFF AND MUL OR SWAP1 SSTORE POP POP JUMP JUMPDEST PUSH1 0x60 PUSH0 PUSH20 0xFFFFFFFFFFFFFFFFFFFFFFFFFFFFFFFFFFFFFFFF AND DUP5 PUSH20 0xFFFFFFFFFFFFFFFFFFFFFFFFFFFFFFFFFFFFFFFF AND SUB PUSH2 0xCAA JUMPI PUSH1 0x40 MLOAD PUSH32 0x8C379A000000000000000000000000000000000000000000000000000000000 DUP2 MSTORE PUSH1 0x4 ADD PUSH2 0xCA1 SWAP1 PUSH2 0x2AB1 JUMP JUMPDEST PUSH1 0x40 MLOAD DUP1 SWAP2 SUB SWAP1 REVERT JUMPDEST PUSH0 DUP3 GT PUSH2 0xCEC JUMPI PUSH1 0x40 MLOAD PUSH32 0x8C379A000000000000000000000000000000000000000000000000000000000 DUP2 MSTORE PUSH1 0x4 ADD PUSH2 0xCE3 SWAP1 PUSH2 0x2B19 JUMP JUMPDEST PUSH1 0x40 MLOAD DUP1 SWAP2 SUB SWAP1 REVERT JUMPDEST PUSH0 PUSH1 0x5 PUSH0 DUP7 PUSH20 0xFFFFFFFFFFFFFFFFFFFFFFFFFFFFFFFFFFFFFFFF AND PUSH20 0xFFFFFFFFFFFFFFFFFFFFFFFFFFFFFFFFFFFFFFFF AND DUP2 MSTORE PUSH1 0x20 ADD SWAP1 DUP2 MSTORE PUSH1 0x20 ADD PUSH0 KECCAK256 SWAP1 POP PUSH0 DUP4 DUP6 PUSH2 0xD39 SWAP2 SWAP1 PUSH2 0x2B64 JUMP JUMPDEST SWAP1 POP DUP2 DUP1 SLOAD SWAP1 POP DUP2 GT ISZERO PUSH2 0xD4F JUMPI DUP2 DUP1 SLOAD SWAP1 POP SWAP1 POP JUMPDEST DUP1 DUP6 LT PUSH2 0xD91 JUMPI PUSH1 0x40 MLOAD PUSH32 0x8C379A000000000000000000000000000000000000000000000000000000000 DUP2 MSTORE PUSH1 0x4 ADD PUSH2 0xD88 SWAP1 PUSH2 0x2BE1 JUMP JUMPDEST PUSH1 0x40 MLOAD DUP1 SWAP2 SUB SWAP1 REVERT JUMPDEST PUSH0 DUP6 DUP3 PUSH2 0xD9E SWAP2 SWAP1 PUSH2 0x2BFF JUMP JUMPDEST PUSH8 0xFFFFFFFFFFFFFFFF DUP2 GT ISZERO PUSH2 0xDB7 JUMPI PUSH2 0xDB6 PUSH2 0x276F JUMP JUMPDEST JUMPDEST PUSH1 0x40 MLOAD SWAP1 DUP1 DUP3 MSTORE DUP1 PUSH1 0x20 MUL PUSH1 0x20 ADD DUP3 ADD PUSH1 0x40 MSTORE DUP1 ISZERO PUSH2 0xDF0 JUMPI DUP2 PUSH1 0x20 ADD JUMPDEST PUSH2 0xDDD PUSH2 0x1C19 JUMP JUMPDEST DUP2 MSTORE PUSH1 0x20 ADD SWAP1 PUSH1 0x1 SWAP1 SUB SWAP1 DUP2 PUSH2 0xDD5 JUMPI SWAP1 POP JUMPDEST POP SWAP1 POP PUSH0 DUP7 SWAP1 POP JUMPDEST DUP3 DUP2 LT ISZERO PUSH2 0x106F JUMPI PUSH1 0x3 PUSH0 DUP6 DUP4 DUP2 SLOAD DUP2 LT PUSH2 0xE16 JUMPI PUSH2 0xE15 PUSH2 0x2C32 JUMP JUMPDEST JUMPDEST SWAP1 PUSH0 MSTORE PUSH1 0x20 PUSH0 KECCAK256 ADD SLOAD DUP2 MSTORE PUSH1 0x20 ADD SWAP1 DUP2 MSTORE PUSH1 0x20 ADD PUSH0 KECCAK256 PUSH1 0x40 MLOAD DUP1 PUSH2 0x100 ADD PUSH1 0x40 MSTORE SWAP1 DUP2 PUSH0 DUP3 ADD SLOAD DUP2 MSTORE PUSH1 0x20 ADD PUSH1 0x1 DUP3 ADD SLOAD DUP2 MSTORE PUSH1 0x20 ADD PUSH1 0x2 DUP3 ADD PUSH0 SWAP1 SLOAD SWAP1 PUSH2 0x100 EXP SWAP1 DIV PUSH20 0xFFFFFFFFFFFFFFFFFFFFFFFFFFFFFFFFFFFFFFFF AND PUSH20 0xFFFFFFFFFFFFFFFFFFFFFFFFFFFFFFFFFFFFFFFF AND PUSH20 0xFFFFFFFFFFFFFFFFFFFFFFFFFFFFFFFFFFFFFFFF AND DUP2 MSTORE PUSH1 0x20 ADD PUSH1 0x3 DUP3 ADD PUSH0 SWAP1 SLOAD SWAP1 PUSH2 0x100 EXP SWAP1 DIV PUSH20 0xFFFFFFFFFFFFFFFFFFFFFFFFFFFFFFFFFFFFFFFF AND PUSH20 0xFFFFFFFFFFFFFFFFFFFFFFFFFFFFFFFFFFFFFFFF AND PUSH20 0xFFFFFFFFFFFFFFFFFFFFFFFFFFFFFFFFFFFFFFFF AND DUP2 MSTORE PUSH1 0x20 ADD PUSH1 0x4 DUP3 ADD DUP1 SLOAD PUSH2 0xF05 SWAP1 PUSH2 0x25CE JUMP JUMPDEST DUP1 PUSH1 0x1F ADD PUSH1 0x20 DUP1 SWAP2 DIV MUL PUSH1 0x20 ADD PUSH1 0x40 MLOAD SWAP1 DUP2 ADD PUSH1 0x40 MSTORE DUP1 SWAP3 SWAP2 SWAP1 DUP2 DUP2 MSTORE PUSH1 0x20 ADD DUP3 DUP1 SLOAD PUSH2 0xF31 SWAP1 PUSH2 0x25CE JUMP JUMPDEST DUP1 ISZERO PUSH2 0xF7C JUMPI DUP1 PUSH1 0x1F LT PUSH2 0xF53 JUMPI PUSH2 0x100 DUP1 DUP4 SLOAD DIV MUL DUP4 MSTORE SWAP2 PUSH1 0x20 ADD SWAP2 PUSH2 0xF7C JUMP JUMPDEST DUP3 ADD SWAP2 SWAP1 PUSH0 MSTORE PUSH1 0x20 PUSH0 KECCAK256 SWAP1 JUMPDEST DUP2 SLOAD DUP2 MSTORE SWAP1 PUSH1 0x1 ADD SWAP1 PUSH1 0x20 ADD DUP1 DUP4 GT PUSH2 0xF5F JUMPI DUP3 SWAP1 SUB PUSH1 0x1F AND DUP3 ADD SWAP2 JUMPDEST POP POP POP POP POP DUP2 MSTORE PUSH1 0x20 ADD PUSH1 0x5 DUP3 ADD SLOAD DUP2 MSTORE PUSH1 0x20 ADD PUSH1 0x6 DUP3 ADD PUSH0 SWAP1 SLOAD SWAP1 PUSH2 0x100 EXP SWAP1 DIV PUSH1 0xFF AND ISZERO ISZERO ISZERO ISZERO DUP2 MSTORE PUSH1 0x20 ADD PUSH1 0x7 DUP3 ADD DUP1 SLOAD PUSH2 0xFB9 SWAP1 PUSH2 0x25CE JUMP JUMPDEST DUP1 PUSH1 0x1F ADD PUSH1 0x20 DUP1 SWAP2 DIV MUL PUSH1 0x20 ADD PUSH1 0x40 MLOAD SWAP1 DUP2 ADD PUSH1 0x40 MSTORE DUP1 SWAP3 SWAP2 SWAP1 DUP2 DUP2 MSTORE PUSH1 0x20 ADD DUP3 DUP1 SLOAD PUSH2 0xFE5 SWAP1 PUSH2 0x25CE JUMP JUMPDEST DUP1 ISZERO PUSH2 0x1030 JUMPI DUP1 PUSH1 0x1F LT PUSH2 0x1007 JUMPI PUSH2 0x100 DUP1 DUP4 SLOAD DIV MUL DUP4 MSTORE SWAP2 PUSH1 0x20 ADD SWAP2 PUSH2 0x1030 JUMP JUMPDEST DUP3 ADD SWAP2 SWAP1 PUSH0 MSTORE PUSH1 0x20 PUSH0 KECCAK256 SWAP1 JUMPDEST DUP2 SLOAD DUP2 MSTORE SWAP1 PUSH1 0x1 ADD SWAP1 PUSH1 0x20 ADD DUP1 DUP4 GT PUSH2 0x1013 JUMPI DUP3 SWAP1 SUB PUSH1 0x1F AND DUP3 ADD SWAP2 JUMPDEST POP POP POP POP POP DUP2 MSTORE POP POP DUP3 DUP9 DUP4 PUSH2 0x1046 SWAP2 SWAP1 PUSH2 0x2BFF JUMP JUMPDEST DUP2 MLOAD DUP2 LT PUSH2 0x1057 JUMPI PUSH2 0x1056 PUSH2 0x2C32 JUMP JUMPDEST JUMPDEST PUSH1 0x20 MUL PUSH1 0x20 ADD ADD DUP2 SWAP1 MSTORE POP DUP1 DUP1 PUSH1 0x1 ADD SWAP2 POP POP PUSH2 0xDF8 JUMP JUMPDEST POP DUP1 SWAP4 POP POP POP POP SWAP4 SWAP3 POP POP POP JUMP JUMPDEST PUSH0 PUSH1 0x2 PUSH0 SWAP1 SLOAD SWAP1 PUSH2 0x100 EXP SWAP1 DIV PUSH1 0xFF AND SWAP1 POP SWAP1 JUMP JUMPDEST PUSH2 0x109A PUSH2 0x19C7 JUMP JUMPDEST PUSH2 0x10A3 PUSH0 PUSH2 0x1AAF JUMP JUMPDEST JUMP JUMPDEST PUSH1 0x4 PUSH1 0x20 MSTORE DUP1 PUSH0 MSTORE PUSH1 0x40 PUSH0 KECCAK256 PUSH0 SWAP2 POP SLOAD SWAP1 PUSH2 0x100 EXP SWAP1 DIV PUSH1 0xFF AND DUP2 JUMP JUMPDEST PUSH2 0x10CA PUSH2 0x19C7 JUMP JUMPDEST PUSH2 0x10D2 PUSH2 0x1B70 JUMP JUMPDEST JUMP JUMPDEST PUSH0 DUP1 PUSH0 SWAP1 SLOAD SWAP1 PUSH2 0x100 EXP SWAP1 DIV PUSH20 0xFFFFFFFFFFFFFFFFFFFFFFFFFFFFFFFFFFFFFFFF AND SWAP1 POP SWAP1 JUMP JUMPDEST PUSH1 0x5 PUSH1 0x20 MSTORE DUP2 PUSH0 MSTORE PUSH1 0x40 PUSH0 KECCAK256 DUP2 DUP2 SLOAD DUP2 LT PUSH2 0x1114 JUMPI PUSH0 DUP1 REVERT JUMPDEST SWAP1 PUSH0 MSTORE PUSH1 0x20 PUSH0 KECCAK256 ADD PUSH0 SWAP2 POP SWAP2 POP POP SLOAD DUP2 JUMP JUMPDEST PUSH2 0x112E PUSH2 0x19C7 JUMP JUMPDEST PUSH0 PUSH20 0xFFFFFFFFFFFFFFFFFFFFFFFFFFFFFFFFFFFFFFFF AND DUP2 PUSH20 0xFFFFFFFFFFFFFFFFFFFFFFFFFFFFFFFFFFFFFFFF AND SUB PUSH2 0x119E JUMPI PUSH0 PUSH1 0x40 MLOAD PUSH32 0x1E4FBDF700000000000000000000000000000000000000000000000000000000 DUP2 MSTORE PUSH1 0x4 ADD PUSH2 0x1195 SWAP2 SWAP1 PUSH2 0x239A JUMP JUMPDEST PUSH1 0x40 MLOAD DUP1 SWAP2 SUB SWAP1 REVERT JUMPDEST PUSH2 0x11A7 DUP2 PUSH2 0x1AAF JUMP JUMPDEST POP JUMP JUMPDEST PUSH0 DUP1 SHL DUP2 SUB PUSH2 0x11EE JUMPI PUSH1 0x40 MLOAD PUSH32 0x8C379A000000000000000000000000000000000000000000000000000000000 DUP2 MSTORE PUSH1 0x4 ADD PUSH2 0x11E5 SWAP1 PUSH2 0x251B JUMP JUMPDEST PUSH1 0x40 MLOAD DUP1 SWAP2 SUB SWAP1 REVERT JUMPDEST PUSH0 PUSH1 0x3 PUSH0 DUP4 DUP2 MSTORE PUSH1 0x20 ADD SWAP1 DUP2 MSTORE PUSH1 0x20 ADD PUSH0 KECCAK256 SWAP1 POP PUSH0 DUP1 SHL DUP2 PUSH0 ADD SLOAD SUB PUSH2 0x1249 JUMPI PUSH1 0x40 MLOAD PUSH32 0x8C379A000000000000000000000000000000000000000000000000000000000 DUP2 MSTORE PUSH1 0x4 ADD PUSH2 0x1240 SWAP1 PUSH2 0x2583 JUMP JUMPDEST PUSH1 0x40 MLOAD DUP1 SWAP2 SUB SWAP1 REVERT JUMPDEST CALLER PUSH20 0xFFFFFFFFFFFFFFFFFFFFFFFFFFFFFFFFFFFFFFFF AND DUP2 PUSH1 0x3 ADD PUSH0 SWAP1 SLOAD SWAP1 PUSH2 0x100 EXP SWAP1 DIV PUSH20 0xFFFFFFFFFFFFFFFFFFFFFFFFFFFFFFFFFFFFFFFF AND PUSH20 0xFFFFFFFFFFFFFFFFFFFFFFFFFFFFFFFFFFFFFFFF AND EQ PUSH2 0x12DA JUMPI PUSH1 0x40 MLOAD PUSH32 0x8C379A000000000000000000000000000000000000000000000000000000000 DUP2 MSTORE PUSH1 0x4 ADD PUSH2 0x12D1 SWAP1 PUSH2 0x2CA9 JUMP JUMPDEST PUSH1 0x40 MLOAD DUP1 SWAP2 SUB SWAP1 REVERT JUMPDEST DUP1 PUSH1 0x6 ADD PUSH0 SWAP1 SLOAD SWAP1 PUSH2 0x100 EXP SWAP1 DIV PUSH1 0xFF AND ISZERO PUSH2 0x132B JUMPI PUSH1 0x40 MLOAD PUSH32 0x8C379A000000000000000000000000000000000000000000000000000000000 DUP2 MSTORE PUSH1 0x4 ADD PUSH2 0x1322 SWAP1 PUSH2 0x2D11 JUMP JUMPDEST PUSH1 0x40 MLOAD DUP1 SWAP2 SUB SWAP1 REVERT JUMPDEST PUSH1 0x1 DUP2 PUSH1 0x6 ADD PUSH0 PUSH2 0x100 EXP DUP2 SLOAD DUP2 PUSH1 0xFF MUL NOT AND SWAP1 DUP4 ISZERO ISZERO MUL OR SWAP1 SSTORE POP DUP2 PUSH32 0x15A79ACA86671A7EB5AF826E3FE7A56B9AFB1A477FC8BB591388883849543D44 TIMESTAMP PUSH1 0x40 MLOAD PUSH2 0x1377 SWAP2 SWAP1 PUSH2 0x1F1A JUMP JUMPDEST PUSH1 0x40 MLOAD DUP1 SWAP2 SUB SWAP1 LOG2 POP POP JUMP JUMPDEST PUSH2 0x138B PUSH2 0x1937 JUMP JUMPDEST PUSH2 0x1393 PUSH2 0x197D JUMP JUMPDEST PUSH0 DUP1 SHL DUP8 SUB PUSH2 0x13D7 JUMPI PUSH1 0x40 MLOAD PUSH32 0x8C379A000000000000000000000000000000000000000000000000000000000 DUP2 MSTORE PUSH1 0x4 ADD PUSH2 0x13CE SWAP1 PUSH2 0x251B JUMP JUMPDEST PUSH1 0x40 MLOAD DUP1 SWAP2 SUB SWAP1 REVERT JUMPDEST PUSH0 DUP1 SHL DUP7 SUB PUSH2 0x141B JUMPI PUSH1 0x40 MLOAD PUSH32 0x8C379A000000000000000000000000000000000000000000000000000000000 DUP2 MSTORE PUSH1 0x4 ADD PUSH2 0x1412 SWAP1 PUSH2 0x2D79 JUMP JUMPDEST PUSH1 0x40 MLOAD DUP1 SWAP2 SUB SWAP1 REVERT JUMPDEST PUSH0 PUSH20 0xFFFFFFFFFFFFFFFFFFFFFFFFFFFFFFFFFFFFFFFF AND DUP6 PUSH20 0xFFFFFFFFFFFFFFFFFFFFFFFFFFFFFFFFFFFFFFFF AND SUB PUSH2 0x1489 JUMPI PUSH1 0x40 MLOAD PUSH32 0x8C379A000000000000000000000000000000000000000000000000000000000 DUP2 MSTORE PUSH1 0x4 ADD PUSH2 0x1480 SWAP1 PUSH2 0x2648 JUMP JUMPDEST PUSH1 0x40 MLOAD DUP1 SWAP2 SUB SWAP1 REVERT JUMPDEST PUSH0 DUP5 DUP5 SWAP1 POP GT PUSH2 0x14CE JUMPI PUSH1 0x40 MLOAD PUSH32 0x8C379A000000000000000000000000000000000000000000000000000000000 DUP2 MSTORE PUSH1 0x4 ADD PUSH2 0x14C5 SWAP1 PUSH2 0x26B0 JUMP JUMPDEST PUSH1 0x40 MLOAD DUP1 SWAP2 SUB SWAP1 REVERT JUMPDEST PUSH0 DUP3 DUP3 SWAP1 POP GT PUSH2 0x1513 JUMPI PUSH1 0x40 MLOAD PUSH32 0x8C379A000000000000000000000000000000000000000000000000000000000 DUP2 MSTORE PUSH1 0x4 ADD PUSH2 0x150A SWAP1 PUSH2 0x2DE1 JUMP JUMPDEST PUSH1 0x40 MLOAD DUP1 SWAP2 SUB SWAP1 REVERT JUMPDEST PUSH1 0x4 PUSH0 DUP8 DUP2 MSTORE PUSH1 0x20 ADD SWAP1 DUP2 MSTORE PUSH1 0x20 ADD PUSH0 KECCAK256 PUSH0 SWAP1 SLOAD SWAP1 PUSH2 0x100 EXP SWAP1 DIV PUSH1 0xFF AND ISZERO PUSH2 0x1571 JUMPI PUSH1 0x40 MLOAD PUSH32 0x8C379A000000000000000000000000000000000000000000000000000000000 DUP2 MSTORE PUSH1 0x4 ADD PUSH2 0x1568 SWAP1 PUSH2 0x2E49 JUMP JUMPDEST PUSH1 0x40 MLOAD DUP1 SWAP2 SUB SWAP1 REVERT JUMPDEST PUSH1 0x2 PUSH1 0x1 SWAP1 SLOAD SWAP1 PUSH2 0x100 EXP SWAP1 DIV PUSH20 0xFFFFFFFFFFFFFFFFFFFFFFFFFFFFFFFFFFFFFFFF AND PUSH20 0xFFFFFFFFFFFFFFFFFFFFFFFFFFFFFFFFFFFFFFFF AND PUSH4 0x9CC06848 DUP9 DUP9 CALLER DUP10 DUP10 DUP10 DUP10 DUP10 PUSH1 0x40 MLOAD DUP10 PUSH4 0xFFFFFFFF AND PUSH1 0xE0 SHL DUP2 MSTORE PUSH1 0x4 ADD PUSH2 0x15DA SWAP9 SWAP8 SWAP7 SWAP6 SWAP5 SWAP4 SWAP3 SWAP2 SWAP1 PUSH2 0x2EA1 JUMP JUMPDEST PUSH1 0x20 PUSH1 0x40 MLOAD DUP1 DUP4 SUB DUP2 DUP7 GAS STATICCALL ISZERO DUP1 ISZERO PUSH2 0x15F5 JUMPI RETURNDATASIZE PUSH0 DUP1 RETURNDATACOPY RETURNDATASIZE PUSH0 REVERT JUMPDEST POP POP POP POP PUSH1 0x40 MLOAD RETURNDATASIZE PUSH1 0x1F NOT PUSH1 0x1F DUP3 ADD AND DUP3 ADD DUP1 PUSH1 0x40 MSTORE POP DUP2 ADD SWAP1 PUSH2 0x1619 SWAP2 SWAP1 PUSH2 0x2F3C JUMP JUMPDEST PUSH2 0x1658 JUMPI PUSH1 0x40 MLOAD PUSH32 0x8C379A000000000000000000000000000000000000000000000000000000000 DUP2 MSTORE PUSH1 0x4 ADD PUSH2 0x164F SWAP1 PUSH2 0x2FB1 JUMP JUMPDEST PUSH1 0x40 MLOAD DUP1 SWAP2 SUB SWAP1 REVERT JUMPDEST PUSH1 0x40 MLOAD DUP1 PUSH2 0x100 ADD PUSH1 0x40 MSTORE DUP1 DUP9 DUP2 MSTORE PUSH1 0x20 ADD DUP8 DUP2 MSTORE PUSH1 0x20 ADD CALLER PUSH20 0xFFFFFFFFFFFFFFFFFFFFFFFFFFFFFFFFFFFFFFFF AND DUP2 MSTORE PUSH1 0x20 ADD DUP7 PUSH20 0xFFFFFFFFFFFFFFFFFFFFFFFFFFFFFFFFFFFFFFFF AND DUP2 MSTORE PUSH1 0x20 ADD DUP6 DUP6 DUP1 DUP1 PUSH1 0x1F ADD PUSH1 0x20 DUP1 SWAP2 DIV MUL PUSH1 0x20 ADD PUSH1 0x40 MLOAD SWAP1 DUP2 ADD PUSH1 0x40 MSTORE DUP1 SWAP4 SWAP3 SWAP2 SWAP1 DUP2 DUP2 MSTORE PUSH1 0x20 ADD DUP4 DUP4 DUP1 DUP3 DUP5 CALLDATACOPY PUSH0 DUP2 DUP5 ADD MSTORE PUSH1 0x1F NOT PUSH1 0x1F DUP3 ADD AND SWAP1 POP DUP1 DUP4 ADD SWAP3 POP POP POP POP POP POP POP DUP2 MSTORE PUSH1 0x20 ADD TIMESTAMP DUP2 MSTORE PUSH1 0x20 ADD PUSH0 ISZERO ISZERO DUP2 MSTORE PUSH1 0x20 ADD DUP4 DUP4 DUP1 DUP1 PUSH1 0x1F ADD PUSH1 0x20 DUP1 SWAP2 DIV MUL PUSH1 0x20 ADD PUSH1 0x40 MLOAD SWAP1 DUP2 ADD PUSH1 0x40 MSTORE DUP1 SWAP4 SWAP3 SWAP2 SWAP1 DUP2 DUP2 MSTORE PUSH1 0x20 ADD DUP4 DUP4 DUP1 DUP3 DUP5 CALLDATACOPY PUSH0 DUP2 DUP5 ADD MSTORE PUSH1 0x1F NOT PUSH1 0x1F DUP3 ADD AND SWAP1 POP DUP1 DUP4 ADD SWAP3 POP POP POP POP POP POP POP DUP2 MSTORE POP PUSH1 0x3 PUSH0 DUP10 DUP2 MSTORE PUSH1 0x20 ADD SWAP1 DUP2 MSTORE PUSH1 0x20 ADD PUSH0 KECCAK256 PUSH0 DUP3 ADD MLOAD DUP2 PUSH0 ADD SSTORE PUSH1 0x20 DUP3 ADD MLOAD DUP2 PUSH1 0x1 ADD SSTORE PUSH1 0x40 DUP3 ADD MLOAD DUP2 PUSH1 0x2 ADD PUSH0 PUSH2 0x100 EXP DUP2 SLOAD DUP2 PUSH20 0xFFFFFFFFFFFFFFFFFFFFFFFFFFFFFFFFFFFFFFFF MUL NOT AND SWAP1 DUP4 PUSH20 0xFFFFFFFFFFFFFFFFFFFFFFFFFFFFFFFFFFFFFFFF AND MUL OR SWAP1 SSTORE POP PUSH1 0x60 DUP3 ADD MLOAD DUP2 PUSH1 0x3 ADD PUSH0 PUSH2 0x100 EXP DUP2 SLOAD DUP2 PUSH20 0xFFFFFFFFFFFFFFFFFFFFFFFFFFFFFFFFFFFFFFFF MUL NOT AND SWAP1 DUP4 PUSH20 0xFFFFFFFFFFFFFFFFFFFFFFFFFFFFFFFFFFFFFFFF AND MUL OR SWAP1 SSTORE POP PUSH1 0x80 DUP3 ADD MLOAD DUP2 PUSH1 0x4 ADD SWAP1 DUP2 PUSH2 0x180A SWAP2 SWAP1 PUSH2 0x2930 JUMP JUMPDEST POP PUSH1 0xA0 DUP3 ADD MLOAD DUP2 PUSH1 0x5 ADD SSTORE PUSH1 0xC0 DUP3 ADD MLOAD DUP2 PUSH1 0x6 ADD PUSH0 PUSH2 0x100 EXP DUP2 SLOAD DUP2 PUSH1 0xFF MUL NOT AND SWAP1 DUP4 ISZERO ISZERO MUL OR SWAP1 SSTORE POP PUSH1 0xE0 DUP3 ADD MLOAD DUP2 PUSH1 0x7 ADD SWAP1 DUP2 PUSH2 0x1849 SWAP2 SWAP1 PUSH2 0x2930 JUMP JUMPDEST POP SWAP1 POP POP PUSH1 0x1 PUSH1 0x4 PUSH0 DUP9 DUP2 MSTORE PUSH1 0x20 ADD SWAP1 DUP2 MSTORE PUSH1 0x20 ADD PUSH0 KECCAK256 PUSH0 PUSH2 0x100 EXP DUP2 SLOAD DUP2 PUSH1 0xFF MUL NOT AND SWAP1 DUP4 ISZERO ISZERO MUL OR SWAP1 SSTORE POP PUSH1 0x5 PUSH0 DUP7 PUSH20 0xFFFFFFFFFFFFFFFFFFFFFFFFFFFFFFFFFFFFFFFF AND PUSH20 0xFFFFFFFFFFFFFFFFFFFFFFFFFFFFFFFFFFFFFFFF AND DUP2 MSTORE PUSH1 0x20 ADD SWAP1 DUP2 MSTORE PUSH1 0x20 ADD PUSH0 KECCAK256 DUP8 SWAP1 DUP1 PUSH1 0x1 DUP2 SLOAD ADD DUP1 DUP3 SSTORE DUP1 SWAP2 POP POP PUSH1 0x1 SWAP1 SUB SWAP1 PUSH0 MSTORE PUSH1 0x20 PUSH0 KECCAK256 ADD PUSH0 SWAP1 SWAP2 SWAP1 SWAP2 SWAP1 SWAP2 POP SSTORE DUP5 PUSH20 0xFFFFFFFFFFFFFFFFFFFFFFFFFFFFFFFFFFFFFFFF AND DUP8 PUSH32 0xFC0130F045B99DDC021AB5370F3EBCC300526E38305DC6BBF89079A83ABD3EB8 TIMESTAMP PUSH1 0x40 MLOAD PUSH2 0x191E SWAP2 SWAP1 PUSH2 0x1F1A JUMP JUMPDEST PUSH1 0x40 MLOAD DUP1 SWAP2 SUB SWAP1 LOG3 PUSH2 0x192E PUSH2 0x19BE JUMP JUMPDEST POP POP POP POP POP POP POP JUMP JUMPDEST PUSH1 0x2 PUSH1 0x1 SLOAD SUB PUSH2 0x1973 JUMPI PUSH1 0x40 MLOAD PUSH32 0x3EE5AEB500000000000000000000000000000000000000000000000000000000 DUP2 MSTORE PUSH1 0x4 ADD PUSH1 0x40 MLOAD DUP1 SWAP2 SUB SWAP1 REVERT JUMPDEST PUSH1 0x2 PUSH1 0x1 DUP2 SWAP1 SSTORE POP JUMP JUMPDEST PUSH2 0x1985 PUSH2 0x107D JUMP JUMPDEST ISZERO PUSH2 0x19BC JUMPI PUSH1 0x40 MLOAD PUSH32 0xD93C066500000000000000000000000000000000000000000000000000000000 DUP2 MSTORE PUSH1 0x4 ADD PUSH1 0x40 MLOAD DUP1 SWAP2 SUB SWAP1 REVERT JUMPDEST JUMP JUMPDEST PUSH1 0x1 DUP1 DUP2 SWAP1 SSTORE POP JUMP JUMPDEST PUSH2 0x19CF PUSH2 0x1BD2 JUMP JUMPDEST PUSH20 0xFFFFFFFFFFFFFFFFFFFFFFFFFFFFFFFFFFFFFFFF AND PUSH2 0x19ED PUSH2 0x10D4 JUMP JUMPDEST PUSH20 0xFFFFFFFFFFFFFFFFFFFFFFFFFFFFFFFFFFFFFFFF AND EQ PUSH2 0x1A4C JUMPI PUSH2 0x1A10 PUSH2 0x1BD2 JUMP JUMPDEST PUSH1 0x40 MLOAD PUSH32 0x118CDAA700000000000000000000000000000000000000000000000000000000 DUP2 MSTORE PUSH1 0x4 ADD PUSH2 0x1A43 SWAP2 SWAP1 PUSH2 0x239A JUMP JUMPDEST PUSH1 0x40 MLOAD DUP1 SWAP2 SUB SWAP1 REVERT JUMPDEST JUMP JUMPDEST PUSH2 0x1A56 PUSH2 0x1BD9 JUMP JUMPDEST PUSH0 PUSH1 0x2 PUSH0 PUSH2 0x100 EXP DUP2 SLOAD DUP2 PUSH1 0xFF MUL NOT AND SWAP1 DUP4 ISZERO ISZERO MUL OR SWAP1 SSTORE POP PUSH32 0x5DB9EE0A495BF2E6FF9C91A7834C1BA4FDD244A5E8AA4E537BD38AEAE4B073AA PUSH2 0x1A98 PUSH2 0x1BD2 JUMP JUMPDEST PUSH1 0x40 MLOAD PUSH2 0x1AA5 SWAP2 SWAP1 PUSH2 0x239A JUMP JUMPDEST PUSH1 0x40 MLOAD DUP1 SWAP2 SUB SWAP1 LOG1 JUMP JUMPDEST PUSH0 DUP1 PUSH0 SWAP1 SLOAD SWAP1 PUSH2 0x100 EXP SWAP1 DIV PUSH20 0xFFFFFFFFFFFFFFFFFFFFFFFFFFFFFFFFFFFFFFFF AND SWAP1 POP DUP2 PUSH0 DUP1 PUSH2 0x100 EXP DUP2 SLOAD DUP2 PUSH20 0xFFFFFFFFFFFFFFFFFFFFFFFFFFFFFFFFFFFFFFFF MUL NOT AND SWAP1 DUP4 PUSH20 0xFFFFFFFFFFFFFFFFFFFFFFFFFFFFFFFFFFFFFFFF AND MUL OR SWAP1 SSTORE POP DUP2 PUSH20 0xFFFFFFFFFFFFFFFFFFFFFFFFFFFFFFFFFFFFFFFF AND DUP2 PUSH20 0xFFFFFFFFFFFFFFFFFFFFFFFFFFFFFFFFFFFFFFFF AND PUSH32 0x8BE0079C531659141344CD1FD0A4F28419497F9722A3DAAFE3B4186F6B6457E0 PUSH1 0x40 MLOAD PUSH1 0x40 MLOAD DUP1 SWAP2 SUB SWAP1 LOG3 POP POP JUMP JUMPDEST PUSH2 0x1B78 PUSH2 0x197D JUMP JUMPDEST PUSH1 0x1 PUSH1 0x2 PUSH0 PUSH2 0x100 EXP DUP2 SLOAD DUP2 PUSH1 0xFF MUL NOT AND SWAP1 DUP4 ISZERO ISZERO MUL OR SWAP1 SSTORE POP PUSH32 0x62E78CEA01BEE320CD4E420270B5EA74000D11B0C9F74754EBDBFC544B05A258 PUSH2 0x1BBB PUSH2 0x1BD2 JUMP JUMPDEST PUSH1 0x40 MLOAD PUSH2 0x1BC8 SWAP2 SWAP1 PUSH2 0x239A JUMP JUMPDEST PUSH1 0x40 MLOAD DUP1 SWAP2 SUB SWAP1 LOG1 JUMP JUMPDEST PUSH0 CALLER SWAP1 POP SWAP1 JUMP JUMPDEST PUSH2 0x1BE1 PUSH2 0x107D JUMP JUMPDEST PUSH2 0x1C17 JUMPI PUSH1 0x40 MLOAD PUSH32 0x8DFC202B00000000000000000000000000000000000000000000000000000000 DUP2 MSTORE PUSH1 0x4 ADD PUSH1 0x40 MLOAD DUP1 SWAP2 SUB SWAP1 REVERT JUMPDEST JUMP JUMPDEST PUSH1 0x40 MLOAD DUP1 PUSH2 0x100 ADD PUSH1 0x40 MSTORE DUP1 PUSH0 DUP1 NOT AND DUP2 MSTORE PUSH1 0x20 ADD PUSH0 DUP1 NOT AND DUP2 MSTORE PUSH1 0x20 ADD PUSH0 PUSH20 0xFFFFFFFFFFFFFFFFFFFFFFFFFFFFFFFFFFFFFFFF AND DUP2 MSTORE PUSH1 0x20 ADD PUSH0 PUSH20 0xFFFFFFFFFFFFFFFFFFFFFFFFFFFFFFFFFFFFFFFF AND DUP2 MSTORE PUSH1 0x20 ADD PUSH1 0x60 DUP2 MSTORE PUSH1 0x20 ADD PUSH0 DUP2 MSTORE PUSH1 0x20 ADD PUSH0 ISZERO ISZERO DUP2 MSTORE PUSH1 0x20 ADD PUSH1 0x60 DUP2 MSTORE POP SWAP1 JUMP JUMPDEST PUSH0 DUP1 REVERT JUMPDEST PUSH0 DUP1 REVERT JUMPDEST PUSH0 DUP2 SWAP1 POP SWAP2 SWAP1 POP JUMP JUMPDEST PUSH2 0x1CA6 DUP2 PUSH2 0x1C94 JUMP JUMPDEST DUP2 EQ PUSH2 0x1CB0 JUMPI PUSH0 DUP1 REVERT JUMPDEST POP JUMP JUMPDEST PUSH0 DUP2 CALLDATALOAD SWAP1 POP PUSH2 0x1CC1 DUP2 PUSH2 0x1C9D JUMP JUMPDEST SWAP3 SWAP2 POP POP JUMP JUMPDEST PUSH0 PUSH1 0x20 DUP3 DUP5 SUB SLT ISZERO PUSH2 0x1CDC JUMPI PUSH2 0x1CDB PUSH2 0x1C8C JUMP JUMPDEST JUMPDEST PUSH0 PUSH2 0x1CE9 DUP5 DUP3 DUP6 ADD PUSH2 0x1CB3 JUMP JUMPDEST SWAP2 POP POP SWAP3 SWAP2 POP POP JUMP JUMPDEST PUSH2 0x1CFB DUP2 PUSH2 0x1C94 JUMP JUMPDEST DUP3 MSTORE POP POP JUMP JUMPDEST PUSH0 PUSH20 0xFFFFFFFFFFFFFFFFFFFFFFFFFFFFFFFFFFFFFFFF DUP3 AND SWAP1 POP SWAP2 SWAP1 POP JUMP JUMPDEST PUSH0 PUSH2 0x1D2A DUP3 PUSH2 0x1D01 JUMP JUMPDEST SWAP1 POP SWAP2 SWAP1 POP JUMP JUMPDEST PUSH2 0x1D3A DUP2 PUSH2 0x1D20 JUMP JUMPDEST DUP3 MSTORE POP POP JUMP JUMPDEST PUSH0 DUP2 MLOAD SWAP1 POP SWAP2 SWAP1 POP JUMP JUMPDEST PUSH0 DUP3 DUP3 MSTORE PUSH1 0x20 DUP3 ADD SWAP1 POP SWAP3 SWAP2 POP POP JUMP JUMPDEST DUP3 DUP2 DUP4 MCOPY PUSH0 DUP4 DUP4 ADD MSTORE POP POP POP JUMP JUMPDEST PUSH0 PUSH1 0x1F NOT PUSH1 0x1F DUP4 ADD AND SWAP1 POP SWAP2 SWAP1 POP JUMP JUMPDEST PUSH0 PUSH2 0x1D82 DUP3 PUSH2 0x1D40 JUMP JUMPDEST PUSH2 0x1D8C DUP2 DUP6 PUSH2 0x1D4A JUMP JUMPDEST SWAP4 POP PUSH2 0x1D9C DUP2 DUP6 PUSH1 0x20 DUP7 ADD PUSH2 0x1D5A JUMP JUMPDEST PUSH2 0x1DA5 DUP2 PUSH2 0x1D68 JUMP JUMPDEST DUP5 ADD SWAP2 POP POP SWAP3 SWAP2 POP POP JUMP JUMPDEST PUSH0 DUP2 SWAP1 POP SWAP2 SWAP1 POP JUMP JUMPDEST PUSH2 0x1DC2 DUP2 PUSH2 0x1DB0 JUMP JUMPDEST DUP3 MSTORE POP POP JUMP JUMPDEST PUSH0 DUP2 ISZERO ISZERO SWAP1 POP SWAP2 SWAP1 POP JUMP JUMPDEST PUSH2 0x1DDC DUP2 PUSH2 0x1DC8 JUMP JUMPDEST DUP3 MSTORE POP POP JUMP JUMPDEST PUSH0 PUSH2 0x100 DUP4 ADD PUSH0 DUP4 ADD MLOAD PUSH2 0x1DF8 PUSH0 DUP7 ADD DUP3 PUSH2 0x1CF2 JUMP JUMPDEST POP PUSH1 0x20 DUP4 ADD MLOAD PUSH2 0x1E0B PUSH1 0x20 DUP7 ADD DUP3 PUSH2 0x1CF2 JUMP JUMPDEST POP PUSH1 0x40 DUP4 ADD MLOAD PUSH2 0x1E1E PUSH1 0x40 DUP7 ADD DUP3 PUSH2 0x1D31 JUMP JUMPDEST POP PUSH1 0x60 DUP4 ADD MLOAD PUSH2 0x1E31 PUSH1 0x60 DUP7 ADD DUP3 PUSH2 0x1D31 JUMP JUMPDEST POP PUSH1 0x80 DUP4 ADD MLOAD DUP5 DUP3 SUB PUSH1 0x80 DUP7 ADD MSTORE PUSH2 0x1E49 DUP3 DUP3 PUSH2 0x1D78 JUMP JUMPDEST SWAP2 POP POP PUSH1 0xA0 DUP4 ADD MLOAD PUSH2 0x1E5E PUSH1 0xA0 DUP7 ADD DUP3 PUSH2 0x1DB9 JUMP JUMPDEST POP PUSH1 0xC0 DUP4 ADD MLOAD PUSH2 0x1E71 PUSH1 0xC0 DUP7 ADD DUP3 PUSH2 0x1DD3 JUMP JUMPDEST POP PUSH1 0xE0 DUP4 ADD MLOAD DUP5 DUP3 SUB PUSH1 0xE0 DUP7 ADD MSTORE PUSH2 0x1E89 DUP3 DUP3 PUSH2 0x1D78 JUMP JUMPDEST SWAP2 POP POP DUP1 SWAP2 POP POP SWAP3 SWAP2 POP POP JUMP JUMPDEST PUSH0 PUSH1 0x20 DUP3 ADD SWAP1 POP DUP2 DUP2 SUB PUSH0 DUP4 ADD MSTORE PUSH2 0x1EAE DUP2 DUP5 PUSH2 0x1DE2 JUMP JUMPDEST SWAP1 POP SWAP3 SWAP2 POP POP JUMP JUMPDEST PUSH2 0x1EBF DUP2 PUSH2 0x1D20 JUMP JUMPDEST DUP2 EQ PUSH2 0x1EC9 JUMPI PUSH0 DUP1 REVERT JUMPDEST POP JUMP JUMPDEST PUSH0 DUP2 CALLDATALOAD SWAP1 POP PUSH2 0x1EDA DUP2 PUSH2 0x1EB6 JUMP JUMPDEST SWAP3 SWAP2 POP POP JUMP JUMPDEST PUSH0 PUSH1 0x20 DUP3 DUP5 SUB SLT ISZERO PUSH2 0x1EF5 JUMPI PUSH2 0x1EF4 PUSH2 0x1C8C JUMP JUMPDEST JUMPDEST PUSH0 PUSH2 0x1F02 DUP5 DUP3 DUP6 ADD PUSH2 0x1ECC JUMP JUMPDEST SWAP2 POP POP SWAP3 SWAP2 POP POP JUMP JUMPDEST PUSH2 0x1F14 DUP2 PUSH2 0x1DB0 JUMP JUMPDEST DUP3 MSTORE POP POP JUMP JUMPDEST PUSH0 PUSH1 0x20 DUP3 ADD SWAP1 POP PUSH2 0x1F2D PUSH0 DUP4 ADD DUP5 PUSH2 0x1F0B JUMP JUMPDEST SWAP3 SWAP2 POP POP JUMP JUMPDEST PUSH0 DUP2 SWAP1 POP SWAP2 SWAP1 POP JUMP JUMPDEST PUSH0 PUSH2 0x1F56 PUSH2 0x1F51 PUSH2 0x1F4C DUP5 PUSH2 0x1D01 JUMP JUMPDEST PUSH2 0x1F33 JUMP JUMPDEST PUSH2 0x1D01 JUMP JUMPDEST SWAP1 POP SWAP2 SWAP1 POP JUMP JUMPDEST PUSH0 PUSH2 0x1F67 DUP3 PUSH2 0x1F3C JUMP JUMPDEST SWAP1 POP SWAP2 SWAP1 POP JUMP JUMPDEST PUSH0 PUSH2 0x1F78 DUP3 PUSH2 0x1F5D JUMP JUMPDEST SWAP1 POP SWAP2 SWAP1 POP JUMP JUMPDEST PUSH2 0x1F88 DUP2 PUSH2 0x1F6E JUMP JUMPDEST DUP3 MSTORE POP POP JUMP JUMPDEST PUSH0 PUSH1 0x20 DUP3 ADD SWAP1 POP PUSH2 0x1FA1 PUSH0 DUP4 ADD DUP5 PUSH2 0x1F7F JUMP JUMPDEST SWAP3 SWAP2 POP POP JUMP JUMPDEST PUSH2 0x1FB0 DUP2 PUSH2 0x1C94 JUMP JUMPDEST DUP3 MSTORE POP POP JUMP JUMPDEST PUSH2 0x1FBF DUP2 PUSH2 0x1D20 JUMP JUMPDEST DUP3 MSTORE POP POP JUMP JUMPDEST PUSH0 DUP3 DUP3 MSTORE PUSH1 0x20 DUP3 ADD SWAP1 POP SWAP3 SWAP2 POP POP JUMP JUMPDEST PUSH0 PUSH2 0x1FDF DUP3 PUSH2 0x1D40 JUMP JUMPDEST PUSH2 0x1FE9 DUP2 DUP6 PUSH2 0x1FC5 JUMP JUMPDEST SWAP4 POP PUSH2 0x1FF9 DUP2 DUP6 PUSH1 0x20 DUP7 ADD PUSH2 0x1D5A JUMP JUMPDEST PUSH2 0x2002 DUP2 PUSH2 0x1D68 JUMP JUMPDEST DUP5 ADD SWAP2 POP POP SWAP3 SWAP2 POP POP JUMP JUMPDEST PUSH2 0x2016 DUP2 PUSH2 0x1DC8 JUMP JUMPDEST DUP3 MSTORE POP POP JUMP JUMPDEST PUSH0 PUSH2 0x100 DUP3 ADD SWAP1 POP PUSH2 0x2030 PUSH0 DUP4 ADD DUP12 PUSH2 0x1FA7 JUMP JUMPDEST PUSH2 0x203D PUSH1 0x20 DUP4 ADD DUP11 PUSH2 0x1FA7 JUMP JUMPDEST PUSH2 0x204A PUSH1 0x40 DUP4 ADD DUP10 PUSH2 0x1FB6 JUMP JUMPDEST PUSH2 0x2057 PUSH1 0x60 DUP4 ADD DUP9 PUSH2 0x1FB6 JUMP JUMPDEST DUP2 DUP2 SUB PUSH1 0x80 DUP4 ADD MSTORE PUSH2 0x2069 DUP2 DUP8 PUSH2 0x1FD5 JUMP JUMPDEST SWAP1 POP PUSH2 0x2078 PUSH1 0xA0 DUP4 ADD DUP7 PUSH2 0x1F0B JUMP JUMPDEST PUSH2 0x2085 PUSH1 0xC0 DUP4 ADD DUP6 PUSH2 0x200D JUMP JUMPDEST DUP2 DUP2 SUB PUSH1 0xE0 DUP4 ADD MSTORE PUSH2 0x2097 DUP2 DUP5 PUSH2 0x1FD5 JUMP JUMPDEST SWAP1 POP SWAP10 SWAP9 POP POP POP POP POP POP POP POP POP JUMP JUMPDEST PUSH0 DUP1 REVERT JUMPDEST PUSH0 DUP1 REVERT JUMPDEST PUSH0 DUP1 REVERT JUMPDEST PUSH0 DUP1 DUP4 PUSH1 0x1F DUP5 ADD SLT PUSH2 0x20C7 JUMPI PUSH2 0x20C6 PUSH2 0x20A6 JUMP JUMPDEST JUMPDEST DUP3 CALLDATALOAD SWAP1 POP PUSH8 0xFFFFFFFFFFFFFFFF DUP2 GT ISZERO PUSH2 0x20E4 JUMPI PUSH2 0x20E3 PUSH2 0x20AA JUMP JUMPDEST JUMPDEST PUSH1 0x20 DUP4 ADD SWAP2 POP DUP4 PUSH1 0x1 DUP3 MUL DUP4 ADD GT ISZERO PUSH2 0x2100 JUMPI PUSH2 0x20FF PUSH2 0x20AE JUMP JUMPDEST JUMPDEST SWAP3 POP SWAP3 SWAP1 POP JUMP JUMPDEST PUSH0 DUP1 PUSH0 DUP1 PUSH1 0x60 DUP6 DUP8 SUB SLT ISZERO PUSH2 0x211F JUMPI PUSH2 0x211E PUSH2 0x1C8C JUMP JUMPDEST JUMPDEST PUSH0 PUSH2 0x212C DUP8 DUP3 DUP9 ADD PUSH2 0x1ECC JUMP JUMPDEST SWAP5 POP POP PUSH1 0x20 DUP6 ADD CALLDATALOAD PUSH8 0xFFFFFFFFFFFFFFFF DUP2 GT ISZERO PUSH2 0x214D JUMPI PUSH2 0x214C PUSH2 0x1C90 JUMP JUMPDEST JUMPDEST PUSH2 0x2159 DUP8 DUP3 DUP9 ADD PUSH2 0x20B2 JUMP JUMPDEST SWAP4 POP SWAP4 POP POP PUSH1 0x40 PUSH2 0x216C DUP8 DUP3 DUP9 ADD PUSH2 0x1CB3 JUMP JUMPDEST SWAP2 POP POP SWAP3 SWAP6 SWAP2 SWAP5 POP SWAP3 POP JUMP JUMPDEST PUSH2 0x2181 DUP2 PUSH2 0x1DB0 JUMP JUMPDEST DUP2 EQ PUSH2 0x218B JUMPI PUSH0 DUP1 REVERT JUMPDEST POP JUMP JUMPDEST PUSH0 DUP2 CALLDATALOAD SWAP1 POP PUSH2 0x219C DUP2 PUSH2 0x2178 JUMP JUMPDEST SWAP3 SWAP2 POP POP JUMP JUMPDEST PUSH0 DUP1 PUSH0 PUSH1 0x60 DUP5 DUP7 SUB SLT ISZERO PUSH2 0x21B9 JUMPI PUSH2 0x21B8 PUSH2 0x1C8C JUMP JUMPDEST JUMPDEST PUSH0 PUSH2 0x21C6 DUP7 DUP3 DUP8 ADD PUSH2 0x1ECC JUMP JUMPDEST SWAP4 POP POP PUSH1 0x20 PUSH2 0x21D7 DUP7 DUP3 DUP8 ADD PUSH2 0x218E JUMP JUMPDEST SWAP3 POP POP PUSH1 0x40 PUSH2 0x21E8 DUP7 DUP3 DUP8 ADD PUSH2 0x218E JUMP JUMPDEST SWAP2 POP POP SWAP3 POP SWAP3 POP SWAP3 JUMP JUMPDEST PUSH0 DUP2 MLOAD SWAP1 POP SWAP2 SWAP1 POP JUMP JUMPDEST PUSH0 DUP3 DUP3 MSTORE PUSH1 0x20 DUP3 ADD SWAP1 POP SWAP3 SWAP2 POP POP JUMP JUMPDEST PUSH0 DUP2 SWAP1 POP PUSH1 0x20 DUP3 ADD SWAP1 POP SWAP2 SWAP1 POP JUMP JUMPDEST PUSH0 PUSH2 0x100 DUP4 ADD PUSH0 DUP4 ADD MLOAD PUSH2 0x2231 PUSH0 DUP7 ADD DUP3 PUSH2 0x1CF2 JUMP JUMPDEST POP PUSH1 0x20 DUP4 ADD MLOAD PUSH2 0x2244 PUSH1 0x20 DUP7 ADD DUP3 PUSH2 0x1CF2 JUMP JUMPDEST POP PUSH1 0x40 DUP4 ADD MLOAD PUSH2 0x2257 PUSH1 0x40 DUP7 ADD DUP3 PUSH2 0x1D31 JUMP JUMPDEST POP PUSH1 0x60 DUP4 ADD MLOAD PUSH2 0x226A PUSH1 0x60 DUP7 ADD DUP3 PUSH2 0x1D31 JUMP JUMPDEST POP PUSH1 0x80 DUP4 ADD MLOAD DUP5 DUP3 SUB PUSH1 0x80 DUP7 ADD MSTORE PUSH2 0x2282 DUP3 DUP3 PUSH2 0x1D78 JUMP JUMPDEST SWAP2 POP POP PUSH1 0xA0 DUP4 ADD MLOAD PUSH2 0x2297 PUSH1 0xA0 DUP7 ADD DUP3 PUSH2 0x1DB9 JUMP JUMPDEST POP PUSH1 0xC0 DUP4 ADD MLOAD PUSH2 0x22AA PUSH1 0xC0 DUP7 ADD DUP3 PUSH2 0x1DD3 JUMP JUMPDEST POP PUSH1 0xE0 DUP4 ADD MLOAD DUP5 DUP3 SUB PUSH1 0xE0 DUP7 ADD MSTORE PUSH2 0x22C2 DUP3 DUP3 PUSH2 0x1D78 JUMP JUMPDEST SWAP2 POP POP DUP1 SWAP2 POP POP SWAP3 SWAP2 POP POP JUMP JUMPDEST PUSH0 PUSH2 0x22DA DUP4 DUP4 PUSH2 0x221B JUMP JUMPDEST SWAP1 POP SWAP3 SWAP2 POP POP JUMP JUMPDEST PUSH0 PUSH1 0x20 DUP3 ADD SWAP1 POP SWAP2 SWAP1 POP JUMP JUMPDEST PUSH0 PUSH2 0x22F8 DUP3 PUSH2 0x21F2 JUMP JUMPDEST PUSH2 0x2302 DUP2 DUP6 PUSH2 0x21FC JUMP JUMPDEST SWAP4 POP DUP4 PUSH1 0x20 DUP3 MUL DUP6 ADD PUSH2 0x2314 DUP6 PUSH2 0x220C JUMP JUMPDEST DUP1 PUSH0 JUMPDEST DUP6 DUP2 LT ISZERO PUSH2 0x234F JUMPI DUP5 DUP5 SUB DUP10 MSTORE DUP2 MLOAD PUSH2 0x2330 DUP6 DUP3 PUSH2 0x22CF JUMP JUMPDEST SWAP5 POP PUSH2 0x233B DUP4 PUSH2 0x22E2 JUMP JUMPDEST SWAP3 POP PUSH1 0x20 DUP11 ADD SWAP10 POP POP PUSH1 0x1 DUP2 ADD SWAP1 POP PUSH2 0x2317 JUMP JUMPDEST POP DUP3 SWAP8 POP DUP8 SWAP6 POP POP POP POP POP POP SWAP3 SWAP2 POP POP JUMP JUMPDEST PUSH0 PUSH1 0x20 DUP3 ADD SWAP1 POP DUP2 DUP2 SUB PUSH0 DUP4 ADD MSTORE PUSH2 0x2379 DUP2 DUP5 PUSH2 0x22EE JUMP JUMPDEST SWAP1 POP SWAP3 SWAP2 POP POP JUMP JUMPDEST PUSH0 PUSH1 0x20 DUP3 ADD SWAP1 POP PUSH2 0x2394 PUSH0 DUP4 ADD DUP5 PUSH2 0x200D JUMP JUMPDEST SWAP3 SWAP2 POP POP JUMP JUMPDEST PUSH0 PUSH1 0x20 DUP3 ADD SWAP1 POP PUSH2 0x23AD PUSH0 DUP4 ADD DUP5 PUSH2 0x1FB6 JUMP JUMPDEST SWAP3 SWAP2 POP POP JUMP JUMPDEST PUSH0 DUP1 PUSH1 0x40 DUP4 DUP6 SUB SLT ISZERO PUSH2 0x23C9 JUMPI PUSH2 0x23C8 PUSH2 0x1C8C JUMP JUMPDEST JUMPDEST PUSH0 PUSH2 0x23D6 DUP6 DUP3 DUP7 ADD PUSH2 0x1ECC JUMP JUMPDEST SWAP3 POP POP PUSH1 0x20 PUSH2 0x23E7 DUP6 DUP3 DUP7 ADD PUSH2 0x218E JUMP JUMPDEST SWAP2 POP POP SWAP3 POP SWAP3 SWAP1 POP JUMP JUMPDEST PUSH0 PUSH1 0x20 DUP3 ADD SWAP1 POP PUSH2 0x2404 PUSH0 DUP4 ADD DUP5 PUSH2 0x1FA7 JUMP JUMPDEST SWAP3 SWAP2 POP POP JUMP JUMPDEST PUSH0 DUP1 PUSH0 DUP1 PUSH0 DUP1 PUSH0 PUSH1 0xA0 DUP9 DUP11 SUB SLT ISZERO PUSH2 0x2425 JUMPI PUSH2 0x2424 PUSH2 0x1C8C JUMP JUMPDEST JUMPDEST PUSH0 PUSH2 0x2432 DUP11 DUP3 DUP12 ADD PUSH2 0x1CB3 JUMP JUMPDEST SWAP8 POP POP PUSH1 0x20 PUSH2 0x2443 DUP11 DUP3 DUP12 ADD PUSH2 0x1CB3 JUMP JUMPDEST SWAP7 POP POP PUSH1 0x40 PUSH2 0x2454 DUP11 DUP3 DUP12 ADD PUSH2 0x1ECC JUMP JUMPDEST SWAP6 POP POP PUSH1 0x60 DUP9 ADD CALLDATALOAD PUSH8 0xFFFFFFFFFFFFFFFF DUP2 GT ISZERO PUSH2 0x2475 JUMPI PUSH2 0x2474 PUSH2 0x1C90 JUMP JUMPDEST JUMPDEST PUSH2 0x2481 DUP11 DUP3 DUP12 ADD PUSH2 0x20B2 JUMP JUMPDEST SWAP5 POP SWAP5 POP POP PUSH1 0x80 DUP9 ADD CALLDATALOAD PUSH8 0xFFFFFFFFFFFFFFFF DUP2 GT ISZERO PUSH2 0x24A4 JUMPI PUSH2 0x24A3 PUSH2 0x1C90 JUMP JUMPDEST JUMPDEST PUSH2 0x24B0 DUP11 DUP3 DUP12 ADD PUSH2 0x20B2 JUMP JUMPDEST SWAP3 POP SWAP3 POP POP SWAP3 SWAP6 SWAP9 SWAP2 SWAP5 SWAP8 POP SWAP3 SWAP6 POP JUMP JUMPDEST PUSH0 DUP3 DUP3 MSTORE PUSH1 0x20 DUP3 ADD SWAP1 POP SWAP3 SWAP2 POP POP JUMP JUMPDEST PUSH32 0x496E76616C696420636F6D6D69746D656E740000000000000000000000000000 PUSH0 DUP3 ADD MSTORE POP JUMP JUMPDEST PUSH0 PUSH2 0x2505 PUSH1 0x12 DUP4 PUSH2 0x24C1 JUMP JUMPDEST SWAP2 POP PUSH2 0x2510 DUP3 PUSH2 0x24D1 JUMP JUMPDEST PUSH1 0x20 DUP3 ADD SWAP1 POP SWAP2 SWAP1 POP JUMP JUMPDEST PUSH0 PUSH1 0x20 DUP3 ADD SWAP1 POP DUP2 DUP2 SUB PUSH0 DUP4 ADD MSTORE PUSH2 0x2532 DUP2 PUSH2 0x24F9 JUMP JUMPDEST SWAP1 POP SWAP2 SWAP1 POP JUMP JUMPDEST PUSH32 0x4D657373616765206E6F7420666F756E64000000000000000000000000000000 PUSH0 DUP3 ADD MSTORE POP JUMP JUMPDEST PUSH0 PUSH2 0x256D PUSH1 0x11 DUP4 PUSH2 0x24C1 JUMP JUMPDEST SWAP2 POP PUSH2 0x2578 DUP3 PUSH2 0x2539 JUMP JUMPDEST PUSH1 0x20 DUP3 ADD SWAP1 POP SWAP2 SWAP1 POP JUMP JUMPDEST PUSH0 PUSH1 0x20 DUP3 ADD SWAP1 POP DUP2 DUP2 SUB PUSH0 DUP4 ADD MSTORE PUSH2 0x259A DUP2 PUSH2 0x2561 JUMP JUMPDEST SWAP1 POP SWAP2 SWAP1 POP JUMP JUMPDEST PUSH32 0x4E487B7100000000000000000000000000000000000000000000000000000000 PUSH0 MSTORE PUSH1 0x22 PUSH1 0x4 MSTORE PUSH1 0x24 PUSH0 REVERT JUMPDEST PUSH0 PUSH1 0x2 DUP3 DIV SWAP1 POP PUSH1 0x1 DUP3 AND DUP1 PUSH2 0x25E5 JUMPI PUSH1 0x7F DUP3 AND SWAP2 POP JUMPDEST PUSH1 0x20 DUP3 LT DUP2 SUB PUSH2 0x25F8 JUMPI PUSH2 0x25F7 PUSH2 0x25A1 JUMP JUMPDEST JUMPDEST POP SWAP2 SWAP1 POP JUMP JUMPDEST PUSH32 0x496E76616C696420726563697069656E74000000000000000000000000000000 PUSH0 DUP3 ADD MSTORE POP JUMP JUMPDEST PUSH0 PUSH2 0x2632 PUSH1 0x11 DUP4 PUSH2 0x24C1 JUMP JUMPDEST SWAP2 POP PUSH2 0x263D DUP3 PUSH2 0x25FE JUMP JUMPDEST PUSH1 0x20 DUP3 ADD SWAP1 POP SWAP2 SWAP1 POP JUMP JUMPDEST PUSH0 PUSH1 0x20 DUP3 ADD SWAP1 POP DUP2 DUP2 SUB PUSH0 DUP4 ADD MSTORE PUSH2 0x265F DUP2 PUSH2 0x2626 JUMP JUMPDEST SWAP1 POP SWAP2 SWAP1 POP JUMP JUMPDEST PUSH32 0x456D707479206D65737361676500000000000000000000000000000000000000 PUSH0 DUP3 ADD MSTORE POP JUMP JUMPDEST PUSH0 PUSH2 0x269A PUSH1 0xD DUP4 PUSH2 0x24C1 JUMP JUMPDEST SWAP2 POP PUSH2 0x26A5 DUP3 PUSH2 0x2666 JUMP JUMPDEST PUSH1 0x20 DUP3 ADD SWAP1 POP SWAP2 SWAP1 POP JUMP JUMPDEST PUSH0 PUSH1 0x20 DUP3 ADD SWAP1 POP DUP2 DUP2 SUB PUSH0 DUP4 ADD MSTORE PUSH2 0x26C7 DUP2 PUSH2 0x268E JUMP JUMPDEST SWAP1 POP SWAP2 SWAP1 POP JUMP JUMPDEST PUSH0 DUP2 SWAP1 POP SWAP2 SWAP1 POP JUMP JUMPDEST PUSH2 0x26E8 PUSH2 0x26E3 DUP3 PUSH2 0x1C94 JUMP JUMPDEST PUSH2 0x26CE JUMP JUMPDEST DUP3 MSTORE POP POP JUMP JUMPDEST PUSH0 DUP2 PUSH1 0x60 SHL SWAP1 POP SWAP2 SWAP1 POP JUMP JUMPDEST PUSH0 PUSH2 0x2704 DUP3 PUSH2 0x26EE JUMP JUMPDEST SWAP1 POP SWAP2 SWAP1 POP JUMP JUMPDEST PUSH0 PUSH2 0x2715 DUP3 PUSH2 0x26FA JUMP JUMPDEST SWAP1 POP SWAP2 SWAP1 POP JUMP JUMPDEST PUSH2 0x272D PUSH2 0x2728 DUP3 PUSH2 0x1D20 JUMP JUMPDEST PUSH2 0x270B JUMP JUMPDEST DUP3 MSTORE POP POP JUMP JUMPDEST PUSH0 PUSH2 0x273E DUP3 DUP7 PUSH2 0x26D7 JUMP JUMPDEST PUSH1 0x20 DUP3 ADD SWAP2 POP PUSH2 0x274E DUP3 DUP6 PUSH2 0x271C JUMP JUMPDEST PUSH1 0x14 DUP3 ADD SWAP2 POP PUSH2 0x275E DUP3 DUP5 PUSH2 0x271C JUMP JUMPDEST PUSH1 0x14 DUP3 ADD SWAP2 POP DUP2 SWAP1 POP SWAP5 SWAP4 POP POP POP POP JUMP JUMPDEST PUSH32 0x4E487B7100000000000000000000000000000000000000000000000000000000 PUSH0 MSTORE PUSH1 0x41 PUSH1 0x4 MSTORE PUSH1 0x24 PUSH0 REVERT JUMPDEST PUSH0 DUP2 SWAP1 POP DUP2 PUSH0 MSTORE PUSH1 0x20 PUSH0 KECCAK256 SWAP1 POP SWAP2 SWAP1 POP JUMP JUMPDEST PUSH0 PUSH1 0x20 PUSH1 0x1F DUP4 ADD DIV SWAP1 POP SWAP2 SWAP1 POP JUMP JUMPDEST PUSH0 DUP3 DUP3 SHL SWAP1 POP SWAP3 SWAP2 POP POP JUMP JUMPDEST PUSH0 PUSH1 0x8 DUP4 MUL PUSH2 0x27F8 PUSH32 0xFFFFFFFFFFFFFFFFFFFFFFFFFFFFFFFFFFFFFFFFFFFFFFFFFFFFFFFFFFFFFFFF DUP3 PUSH2 0x27BD JUMP JUMPDEST PUSH2 0x2802 DUP7 DUP4 PUSH2 0x27BD JUMP JUMPDEST SWAP6 POP DUP1 NOT DUP5 AND SWAP4 POP DUP1 DUP7 AND DUP5 OR SWAP3 POP POP POP SWAP4 SWAP3 POP POP POP JUMP JUMPDEST PUSH0 PUSH2 0x2834 PUSH2 0x282F PUSH2 0x282A DUP5 PUSH2 0x1DB0 JUMP JUMPDEST PUSH2 0x1F33 JUMP JUMPDEST PUSH2 0x1DB0 JUMP JUMPDEST SWAP1 POP SWAP2 SWAP1 POP JUMP JUMPDEST PUSH0 DUP2 SWAP1 POP SWAP2 SWAP1 POP JUMP JUMPDEST PUSH2 0x284D DUP4 PUSH2 0x281A JUMP JUMPDEST PUSH2 0x2861 PUSH2 0x2859 DUP3 PUSH2 0x283B JUMP JUMPDEST DUP5 DUP5 SLOAD PUSH2 0x27C9 JUMP JUMPDEST DUP3 SSTORE POP POP POP POP JUMP JUMPDEST PUSH0 SWAP1 JUMP JUMPDEST PUSH2 0x2875 PUSH2 0x2869 JUMP JUMPDEST PUSH2 0x2880 DUP2 DUP5 DUP5 PUSH2 0x2844 JUMP JUMPDEST POP POP POP JUMP JUMPDEST JUMPDEST DUP2 DUP2 LT ISZERO PUSH2 0x28A3 JUMPI PUSH2 0x2898 PUSH0 DUP3 PUSH2 0x286D JUMP JUMPDEST PUSH1 0x1 DUP2 ADD SWAP1 POP PUSH2 0x2886 JUMP JUMPDEST POP POP JUMP JUMPDEST PUSH1 0x1F DUP3 GT ISZERO PUSH2 0x28E8 JUMPI PUSH2 0x28B9 DUP2 PUSH2 0x279C JUMP JUMPDEST PUSH2 0x28C2 DUP5 PUSH2 0x27AE JUMP JUMPDEST DUP2 ADD PUSH1 0x20 DUP6 LT ISZERO PUSH2 0x28D1 JUMPI DUP2 SWAP1 POP JUMPDEST PUSH2 0x28E5 PUSH2 0x28DD DUP6 PUSH2 0x27AE JUMP JUMPDEST DUP4 ADD DUP3 PUSH2 0x2885 JUMP JUMPDEST POP POP JUMPDEST POP POP POP JUMP JUMPDEST PUSH0 DUP3 DUP3 SHR SWAP1 POP SWAP3 SWAP2 POP POP JUMP JUMPDEST PUSH0 PUSH2 0x2908 PUSH0 NOT DUP5 PUSH1 0x8 MUL PUSH2 0x28ED JUMP JUMPDEST NOT DUP1 DUP4 AND SWAP2 POP POP SWAP3 SWAP2 POP POP JUMP JUMPDEST PUSH0 PUSH2 0x2920 DUP4 DUP4 PUSH2 0x28F9 JUMP JUMPDEST SWAP2 POP DUP3 PUSH1 0x2 MUL DUP3 OR SWAP1 POP SWAP3 SWAP2 POP POP JUMP JUMPDEST PUSH2 0x2939 DUP3 PUSH2 0x1D40 JUMP JUMPDEST PUSH8 0xFFFFFFFFFFFFFFFF DUP2 GT ISZERO PUSH2 0x2952 JUMPI PUSH2 0x2951 PUSH2 0x276F JUMP JUMPDEST JUMPDEST PUSH2 0x295C DUP3 SLOAD PUSH2 0x25CE JUMP JUMPDEST PUSH2 0x2967 DUP3 DUP3 DUP6 PUSH2 0x28A7 JUMP JUMPDEST PUSH0 PUSH1 0x20 SWAP1 POP PUSH1 0x1F DUP4 GT PUSH1 0x1 DUP2 EQ PUSH2 0x2998 JUMPI PUSH0 DUP5 ISZERO PUSH2 0x2986 JUMPI DUP3 DUP8 ADD MLOAD SWAP1 POP JUMPDEST PUSH2 0x2990 DUP6 DUP3 PUSH2 0x2915 JUMP JUMPDEST DUP7 SSTORE POP PUSH2 0x29F7 JUMP JUMPDEST PUSH1 0x1F NOT DUP5 AND PUSH2 0x29A6 DUP7 PUSH2 0x279C JUMP JUMPDEST PUSH0 JUMPDEST DUP3 DUP2 LT ISZERO PUSH2 0x29CD JUMPI DUP5 DUP10 ADD MLOAD DUP3 SSTORE PUSH1 0x1 DUP3 ADD SWAP2 POP PUSH1 0x20 DUP6 ADD SWAP5 POP PUSH1 0x20 DUP2 ADD SWAP1 POP PUSH2 0x29A8 JUMP JUMPDEST DUP7 DUP4 LT ISZERO PUSH2 0x29EA JUMPI DUP5 DUP10 ADD MLOAD PUSH2 0x29E6 PUSH1 0x1F DUP10 AND DUP3 PUSH2 0x28F9 JUMP JUMPDEST DUP4 SSTORE POP JUMPDEST PUSH1 0x1 PUSH1 0x2 DUP9 MUL ADD DUP9 SSTORE POP POP POP JUMPDEST POP POP POP POP POP POP JUMP JUMPDEST PUSH32 0x496E76616C696420766572696669657220616464726573730000000000000000 PUSH0 DUP3 ADD MSTORE POP JUMP JUMPDEST PUSH0 PUSH2 0x2A33 PUSH1 0x18 DUP4 PUSH2 0x24C1 JUMP JUMPDEST SWAP2 POP PUSH2 0x2A3E DUP3 PUSH2 0x29FF JUMP JUMPDEST PUSH1 0x20 DUP3 ADD SWAP1 POP SWAP2 SWAP1 POP JUMP JUMPDEST PUSH0 PUSH1 0x20 DUP3 ADD SWAP1 POP DUP2 DUP2 SUB PUSH0 DUP4 ADD MSTORE PUSH2 0x2A60 DUP2 PUSH2 0x2A27 JUMP JUMPDEST SWAP1 POP SWAP2 SWAP1 POP JUMP JUMPDEST PUSH32 0x496E76616C696420757365722061646472657373000000000000000000000000 PUSH0 DUP3 ADD MSTORE POP JUMP JUMPDEST PUSH0 PUSH2 0x2A9B PUSH1 0x14 DUP4 PUSH2 0x24C1 JUMP JUMPDEST SWAP2 POP PUSH2 0x2AA6 DUP3 PUSH2 0x2A67 JUMP JUMPDEST PUSH1 0x20 DUP3 ADD SWAP1 POP SWAP2 SWAP1 POP JUMP JUMPDEST PUSH0 PUSH1 0x20 DUP3 ADD SWAP1 POP DUP2 DUP2 SUB PUSH0 DUP4 ADD MSTORE PUSH2 0x2AC8 DUP2 PUSH2 0x2A8F JUMP JUMPDEST SWAP1 POP SWAP2 SWAP1 POP JUMP JUMPDEST PUSH32 0x496E76616C6964206C696D697400000000000000000000000000000000000000 PUSH0 DUP3 ADD MSTORE POP JUMP JUMPDEST PUSH0 PUSH2 0x2B03 PUSH1 0xD DUP4 PUSH2 0x24C1 JUMP JUMPDEST SWAP2 POP PUSH2 0x2B0E DUP3 PUSH2 0x2ACF JUMP JUMPDEST PUSH1 0x20 DUP3 ADD SWAP1 POP SWAP2 SWAP1 POP JUMP JUMPDEST PUSH0 PUSH1 0x20 DUP3 ADD SWAP1 POP DUP2 DUP2 SUB PUSH0 DUP4 ADD MSTORE PUSH2 0x2B30 DUP2 PUSH2 0x2AF7 JUMP JUMPDEST SWAP1 POP SWAP2 SWAP1 POP JUMP JUMPDEST PUSH32 0x4E487B7100000000000000000000000000000000000000000000000000000000 PUSH0 MSTORE PUSH1 0x11 PUSH1 0x4 MSTORE PUSH1 0x24 PUSH0 REVERT JUMPDEST PUSH0 PUSH2 0x2B6E DUP3 PUSH2 0x1DB0 JUMP JUMPDEST SWAP2 POP PUSH2 0x2B79 DUP4 PUSH2 0x1DB0 JUMP JUMPDEST SWAP3 POP DUP3 DUP3 ADD SWAP1 POP DUP1 DUP3 GT ISZERO PUSH2 0x2B91 JUMPI PUSH2 0x2B90 PUSH2 0x2B37 JUMP JUMPDEST JUMPDEST SWAP3 SWAP2 POP POP JUMP JUMPDEST PUSH32 0x496E76616C6964206F6666736574000000000000000000000000000000000000 PUSH0 DUP3 ADD MSTORE POP JUMP JUMPDEST PUSH0 PUSH2 0x2BCB PUSH1 0xE DUP4 PUSH2 0x24C1 JUMP JUMPDEST SWAP2 POP PUSH2 0x2BD6 DUP3 PUSH2 0x2B97 JUMP JUMPDEST PUSH1 0x20 DUP3 ADD SWAP1 POP SWAP2 SWAP1 POP JUMP JUMPDEST PUSH0 PUSH1 0x20 DUP3 ADD SWAP1 POP DUP2 DUP2 SUB PUSH0 DUP4 ADD MSTORE PUSH2 0x2BF8 DUP2 PUSH2 0x2BBF JUMP JUMPDEST SWAP1 POP SWAP2 SWAP1 POP JUMP JUMPDEST PUSH0 PUSH2 0x2C09 DUP3 PUSH2 0x1DB0 JUMP JUMPDEST SWAP2 POP PUSH2 0x2C14 DUP4 PUSH2 0x1DB0 JUMP JUMPDEST SWAP3 POP DUP3 DUP3 SUB SWAP1 POP DUP2 DUP2 GT ISZERO PUSH2 0x2C2C JUMPI PUSH2 0x2C2B PUSH2 0x2B37 JUMP JUMPDEST JUMPDEST SWAP3 SWAP2 POP POP JUMP JUMPDEST PUSH32 0x4E487B7100000000000000000000000000000000000000000000000000000000 PUSH0 MSTORE PUSH1 0x32 PUSH1 0x4 MSTORE PUSH1 0x24 PUSH0 REVERT JUMPDEST PUSH32 0x4E6F74206D65737361676520726563697069656E740000000000000000000000 PUSH0 DUP3 ADD MSTORE POP JUMP JUMPDEST PUSH0 PUSH2 0x2C93 PUSH1 0x15 DUP4 PUSH2 0x24C1 JUMP JUMPDEST SWAP2 POP PUSH2 0x2C9E DUP3 PUSH2 0x2C5F JUMP JUMPDEST PUSH1 0x20 DUP3 ADD SWAP1 POP SWAP2 SWAP1 POP JUMP JUMPDEST PUSH0 PUSH1 0x20 DUP3 ADD SWAP1 POP DUP2 DUP2 SUB PUSH0 DUP4 ADD MSTORE PUSH2 0x2CC0 DUP2 PUSH2 0x2C87 JUMP JUMPDEST SWAP1 POP SWAP2 SWAP1 POP JUMP JUMPDEST PUSH32 0x4D65737361676520616C72656164792072656164000000000000000000000000 PUSH0 DUP3 ADD MSTORE POP JUMP JUMPDEST PUSH0 PUSH2 0x2CFB PUSH1 0x14 DUP4 PUSH2 0x24C1 JUMP JUMPDEST SWAP2 POP PUSH2 0x2D06 DUP3 PUSH2 0x2CC7 JUMP JUMPDEST PUSH1 0x20 DUP3 ADD SWAP1 POP SWAP2 SWAP1 POP JUMP JUMPDEST PUSH0 PUSH1 0x20 DUP3 ADD SWAP1 POP DUP2 DUP2 SUB PUSH0 DUP4 ADD MSTORE PUSH2 0x2D28 DUP2 PUSH2 0x2CEF JUMP JUMPDEST SWAP1 POP SWAP2 SWAP1 POP JUMP JUMPDEST PUSH32 0x496E76616C6964206E756C6C6966696572000000000000000000000000000000 PUSH0 DUP3 ADD MSTORE POP JUMP JUMPDEST PUSH0 PUSH2 0x2D63 PUSH1 0x11 DUP4 PUSH2 0x24C1 JUMP JUMPDEST SWAP2 POP PUSH2 0x2D6E DUP3 PUSH2 0x2D2F JUMP JUMPDEST PUSH1 0x20 DUP3 ADD SWAP1 POP SWAP2 SWAP1 POP JUMP JUMPDEST PUSH0 PUSH1 0x20 DUP3 ADD SWAP1 POP DUP2 DUP2 SUB PUSH0 DUP4 ADD MSTORE PUSH2 0x2D90 DUP2 PUSH2 0x2D57 JUMP JUMPDEST SWAP1 POP SWAP2 SWAP1 POP JUMP JUMPDEST PUSH32 0x456D7074792070726F6F66000000000000000000000000000000000000000000 PUSH0 DUP3 ADD MSTORE POP JUMP JUMPDEST PUSH0 PUSH2 0x2DCB PUSH1 0xB DUP4 PUSH2 0x24C1 JUMP JUMPDEST SWAP2 POP PUSH2 0x2DD6 DUP3 PUSH2 0x2D97 JUMP JUMPDEST PUSH1 0x20 DUP3 ADD SWAP1 POP SWAP2 SWAP1 POP JUMP JUMPDEST PUSH0 PUSH1 0x20 DUP3 ADD SWAP1 POP DUP2 DUP2 SUB PUSH0 DUP4 ADD MSTORE PUSH2 0x2DF8 DUP2 PUSH2 0x2DBF JUMP JUMPDEST SWAP1 POP SWAP2 SWAP1 POP JUMP JUMPDEST PUSH32 0x4E756C6C696669657220616C7265616479207573656400000000000000000000 PUSH0 DUP3 ADD MSTORE POP JUMP JUMPDEST PUSH0 PUSH2 0x2E33 PUSH1 0x16 DUP4 PUSH2 0x24C1 JUMP JUMPDEST SWAP2 POP PUSH2 0x2E3E DUP3 PUSH2 0x2DFF JUMP JUMPDEST PUSH1 0x20 DUP3 ADD SWAP1 POP SWAP2 SWAP1 POP JUMP JUMPDEST PUSH0 PUSH1 0x20 DUP3 ADD SWAP1 POP DUP2 DUP2 SUB PUSH0 DUP4 ADD MSTORE PUSH2 0x2E60 DUP2 PUSH2 0x2E27 JUMP JUMPDEST SWAP1 POP SWAP2 SWAP1 POP JUMP JUMPDEST DUP3 DUP2 DUP4 CALLDATACOPY PUSH0 DUP4 DUP4 ADD MSTORE POP POP POP JUMP JUMPDEST PUSH0 PUSH2 0x2E80 DUP4 DUP6 PUSH2 0x1FC5 JUMP JUMPDEST SWAP4 POP PUSH2 0x2E8D DUP4 DUP6 DUP5 PUSH2 0x2E67 JUMP JUMPDEST PUSH2 0x2E96 DUP4 PUSH2 0x1D68 JUMP JUMPDEST DUP5 ADD SWAP1 POP SWAP4 SWAP3 POP POP POP JUMP JUMPDEST PUSH0 PUSH1 0xC0 DUP3 ADD SWAP1 POP PUSH2 0x2EB4 PUSH0 DUP4 ADD DUP12 PUSH2 0x1FA7 JUMP JUMPDEST PUSH2 0x2EC1 PUSH1 0x20 DUP4 ADD DUP11 PUSH2 0x1FA7 JUMP JUMPDEST PUSH2 0x2ECE PUSH1 0x40 DUP4 ADD DUP10 PUSH2 0x1FB6 JUMP JUMPDEST PUSH2 0x2EDB PUSH1 0x60 DUP4 ADD DUP9 PUSH2 0x1FB6 JUMP JUMPDEST DUP2 DUP2 SUB PUSH1 0x80 DUP4 ADD MSTORE PUSH2 0x2EEE DUP2 DUP7 DUP9 PUSH2 0x2E75 JUMP JUMPDEST SWAP1 POP DUP2 DUP2 SUB PUSH1 0xA0 DUP4 ADD MSTORE PUSH2 0x2F03 DUP2 DUP5 DUP7 PUSH2 0x2E75 JUMP JUMPDEST SWAP1 POP SWAP10 SWAP9 POP POP POP POP POP POP POP POP POP JUMP JUMPDEST PUSH2 0x2F1B DUP2 PUSH2 0x1DC8 JUMP JUMPDEST DUP2 EQ PUSH2 0x2F25 JUMPI PUSH0 DUP1 REVERT JUMPDEST POP JUMP JUMPDEST PUSH0 DUP2 MLOAD SWAP1 POP PUSH2 0x2F36 DUP2 PUSH2 0x2F12 JUMP JUMPDEST SWAP3 SWAP2 POP POP JUMP JUMPDEST PUSH0 PUSH1 0x20 DUP3 DUP5 SUB SLT ISZERO PUSH2 0x2F51 JUMPI PUSH2 0x2F50 PUSH2 0x1C8C JUMP JUMPDEST JUMPDEST PUSH0 PUSH2 0x2F5E DUP5 DUP3 DUP6 ADD PUSH2 0x2F28 JUMP JUMPDEST SWAP2 POP POP SWAP3 SWAP2 POP POP JUMP JUMPDEST PUSH32 0x496E76616C69642070726F6F6600000000000000000000000000000000000000 PUSH0 DUP3 ADD MSTORE POP JUMP JUMPDEST PUSH0 PUSH2 0x2F9B PUSH1 0xD DUP4 PUSH2 0x24C1 JUMP JUMPDEST SWAP2 POP PUSH2 0x2FA6 DUP3 PUSH2 0x2F67 JUMP JUMPDEST PUSH1 0x20 DUP3 ADD SWAP1 POP SWAP2 SWAP1 POP JUMP JUMPDEST PUSH0 PUSH1 0x20 DUP3 ADD SWAP1 POP DUP2 DUP2 SUB PUSH0 DUP4 ADD MSTORE PUSH2 0x2FC8 DUP2 PUSH2 0x2F8F JUMP JUMPDEST SWAP1 POP SWAP2 SWAP1 POP JUMP INVALID LOG2 PUSH5 0x6970667358 0x22 SLT KECCAK256 ADDRESS 0xE8 MLOAD PUSH27 0xF1B894FFE18FF150DDD8B0D21F7FB2299D82FBAF1B0CCE0B9DD9A2 0x25 PUSH5 0x736F6C6343 STOP ADDMOD BYTE STOP CALLER "
				},
				"gasEstimates": {
					"creation": {
						"codeDepositCost": "2458600",
						"executionCost": "infinite",
						"totalCost": "infinite"
					},
					"external": {
						"getMessage(bytes32)": "infinite",
						"getUserMessageCount(address)": "2883",
						"getUserMessages(address,uint256,uint256)": "infinite",
						"markMessageRead(bytes32)": "32911",
						"messages(bytes32)": "infinite",
						"nullifierUsed(bytes32)": "2852",
						"owner()": "2537",
						"pause()": "infinite",
						"paused()": "2496",
						"renounceOwnership()": "infinite",
						"sendMessage(address,bytes,bytes32)": "infinite",
						"setVerifier(address)": "infinite",
						"storeMessage(bytes32,bytes32,address,bytes,bytes)": "infinite",
						"transferOwnership(address)": "infinite",
						"unpause()": "infinite",
						"userMessages(address,uint256)": "5195",
						"verifier()": "infinite"
					}
				},
				"methodIdentifiers": {
					"getMessage(bytes32)": "0139a221",
					"getUserMessageCount(address)": "2b659bfb",
					"getUserMessages(address,uint256,uint256)": "57b9222f",
					"markMessageRead(bytes32)": "fe97c0b7",
					"messages(bytes32)": "2bbd59ca",
					"nullifierUsed(bytes32)": "7ecf686d",
					"owner()": "8da5cb5b",
					"pause()": "8456cb59",
					"paused()": "5c975abb",
					"renounceOwnership()": "715018a6",
					"sendMessage(address,bytes,bytes32)": "2c4ac770",
					"setVerifier(address)": "5437988d",
					"storeMessage(bytes32,bytes32,address,bytes,bytes)": "ff4b91f5",
					"transferOwnership(address)": "f2fde38b",
					"unpause()": "3f4ba83a",
					"userMessages(address,uint256)": "9428cda3",
					"verifier()": "2b7ac3f3"
				}
			},
			"storageLayout": {
				"storage": [
					{
						"astId": 8,
						"contract": "core/MessageRegistry.sol:MessageRegistry",
						"label": "_owner",
						"offset": 0,
						"slot": "0",
						"type": "t_address"
					},
					{
						"astId": 305,
						"contract": "core/MessageRegistry.sol:MessageRegistry",
						"label": "_status",
						"offset": 0,
						"slot": "1",
						"type": "t_uint256"
					},
					{
						"astId": 186,
						"contract": "core/MessageRegistry.sol:MessageRegistry",
						"label": "_paused",
						"offset": 0,
						"slot": "2",
						"type": "t_bool"
					},
					{
						"astId": 381,
						"contract": "core/MessageRegistry.sol:MessageRegistry",
						"label": "verifier",
						"offset": 1,
						"slot": "2",
						"type": "t_contract(IVerifier)1027"
					},
					{
						"astId": 386,
						"contract": "core/MessageRegistry.sol:MessageRegistry",
						"label": "messages",
						"offset": 0,
						"slot": "3",
						"type": "t_mapping(t_bytes32,t_struct(Message)905_storage)"
					},
					{
						"astId": 390,
						"contract": "core/MessageRegistry.sol:MessageRegistry",
						"label": "nullifierUsed",
						"offset": 0,
						"slot": "4",
						"type": "t_mapping(t_bytes32,t_bool)"
					},
					{
						"astId": 395,
						"contract": "core/MessageRegistry.sol:MessageRegistry",
						"label": "userMessages",
						"offset": 0,
						"slot": "5",
						"type": "t_mapping(t_address,t_array(t_bytes32)dyn_storage)"
					}
				],
				"types": {
					"t_address": {
						"encoding": "inplace",
						"label": "address",
						"numberOfBytes": "20"
					},
					"t_array(t_bytes32)dyn_storage": {
						"base": "t_bytes32",
						"encoding": "dynamic_array",
						"label": "bytes32[]",
						"numberOfBytes": "32"
					},
					"t_bool": {
						"encoding": "inplace",
						"label": "bool",
						"numberOfBytes": "1"
					},
					"t_bytes32": {
						"encoding": "inplace",
						"label": "bytes32",
						"numberOfBytes": "32"
					},
					"t_bytes_storage": {
						"encoding": "bytes",
						"label": "bytes",
						"numberOfBytes": "32"
					},
					"t_contract(IVerifier)1027": {
						"encoding": "inplace",
						"label": "contract IVerifier",
						"numberOfBytes": "20"
					},
					"t_mapping(t_address,t_array(t_bytes32)dyn_storage)": {
						"encoding": "mapping",
						"key": "t_address",
						"label": "mapping(address => bytes32[])",
						"numberOfBytes": "32",
						"value": "t_array(t_bytes32)dyn_storage"
					},
					"t_mapping(t_bytes32,t_bool)": {
						"encoding": "mapping",
						"key": "t_bytes32",
						"label": "mapping(bytes32 => bool)",
						"numberOfBytes": "32",
						"value": "t_bool"
					},
					"t_mapping(t_bytes32,t_struct(Message)905_storage)": {
						"encoding": "mapping",
						"key": "t_bytes32",
						"label": "mapping(bytes32 => struct IMessaging.Message)",
						"numberOfBytes": "32",
						"value": "t_struct(Message)905_storage"
					},
					"t_struct(Message)905_storage": {
						"encoding": "inplace",
						"label": "struct IMessaging.Message",
						"members": [
							{
								"astId": 890,
								"contract": "core/MessageRegistry.sol:MessageRegistry",
								"label": "commitment",
								"offset": 0,
								"slot": "0",
								"type": "t_bytes32"
							},
							{
								"astId": 892,
								"contract": "core/MessageRegistry.sol:MessageRegistry",
								"label": "nullifier",
								"offset": 0,
								"slot": "1",
								"type": "t_bytes32"
							},
							{
								"astId": 894,
								"contract": "core/MessageRegistry.sol:MessageRegistry",
								"label": "sender",
								"offset": 0,
								"slot": "2",
								"type": "t_address"
							},
							{
								"astId": 896,
								"contract": "core/MessageRegistry.sol:MessageRegistry",
								"label": "recipient",
								"offset": 0,
								"slot": "3",
								"type": "t_address"
							},
							{
								"astId": 898,
								"contract": "core/MessageRegistry.sol:MessageRegistry",
								"label": "encryptedContent",
								"offset": 0,
								"slot": "4",
								"type": "t_bytes_storage"
							},
							{
								"astId": 900,
								"contract": "core/MessageRegistry.sol:MessageRegistry",
								"label": "timestamp",
								"offset": 0,
								"slot": "5",
								"type": "t_uint256"
							},
							{
								"astId": 902,
								"contract": "core/MessageRegistry.sol:MessageRegistry",
								"label": "isRead",
								"offset": 0,
								"slot": "6",
								"type": "t_bool"
							},
							{
								"astId": 904,
								"contract": "core/MessageRegistry.sol:MessageRegistry",
								"label": "proof",
								"offset": 0,
								"slot": "7",
								"type": "t_bytes_storage"
							}
						],
						"numberOfBytes": "256"
					},
					"t_uint256": {
						"encoding": "inplace",
						"label": "uint256",
						"numberOfBytes": "32"
					}
				}
			},
			"userdoc": {
				"kind": "user",
				"methods": {},
				"version": 1
			}
		}
	}
}