{
	"privacy/mixer/TornadoPool.sol": {
		"TornadoPool": {
			"abi": [
				{
					"inputs": [
						{
							"internalType": "address",
							"name": "initialOwner",
							"type": "address"
						},
						{
							"internalType": "address",
							"name": "_token",
							"type": "address"
						},
						{
							"internalType": "address",
							"name": "_verifier",
							"type": "address"
						}
					],
					"stateMutability": "nonpayable",
					"type": "constructor"
				},
				{
					"inputs": [],
					"name": "EnforcedPause",
					"type": "error"
				},
				{
					"inputs": [],
					"name": "ExpectedPause",
					"type": "error"
				},
				{
					"inputs": [
						{
							"internalType": "address",
							"name": "owner",
							"type": "address"
						}
					],
					"name": "OwnableInvalidOwner",
					"type": "error"
				},
				{
					"inputs": [
						{
							"internalType": "address",
							"name": "account",
							"type": "address"
						}
					],
					"name": "OwnableUnauthorizedAccount",
					"type": "error"
				},
				{
					"inputs": [],
					"name": "ReentrancyGuardReentrantCall",
					"type": "error"
				},
				{
					"anonymous": false,
					"inputs": [
						{
							"indexed": false,
							"internalType": "uint256",
							"name": "denomination",
							"type": "uint256"
						}
					],
					"name": "DenominationDisabled",
					"type": "event"
				},
				{
					"anonymous": false,
					"inputs": [
						{
							"indexed": false,
							"internalType": "uint256",
							"name": "denomination",
							"type": "uint256"
						}
					],
					"name": "DenominationEnabled",
					"type": "event"
				},
				{
					"anonymous": false,
					"inputs": [
						{
							"indexed": true,
							"internalType": "bytes32",
							"name": "commitment",
							"type": "bytes32"
						},
						{
							"indexed": true,
							"internalType": "uint256",
							"name": "denomination",
							"type": "uint256"
						},
						{
							"indexed": false,
							"internalType": "uint32",
							"name": "leafIndex",
							"type": "uint32"
						},
						{
							"indexed": false,
							"internalType": "uint256",
							"name": "timestamp",
							"type": "uint256"
						}
					],
					"name": "Deposit",
					"type": "event"
				},
				{
					"anonymous": false,
					"inputs": [
						{
							"indexed": true,
							"internalType": "address",
							"name": "previousOwner",
							"type": "address"
						},
						{
							"indexed": true,
							"internalType": "address",
							"name": "newOwner",
							"type": "address"
						}
					],
					"name": "OwnershipTransferred",
					"type": "event"
				},
				{
					"anonymous": false,
					"inputs": [
						{
							"indexed": false,
							"internalType": "address",
							"name": "account",
							"type": "address"
						}
					],
					"name": "Paused",
					"type": "event"
				},
				{
					"anonymous": false,
					"inputs": [
						{
							"indexed": false,
							"internalType": "address",
							"name": "account",
							"type": "address"
						}
					],
					"name": "Unpaused",
					"type": "event"
				},
				{
					"anonymous": false,
					"inputs": [
						{
							"indexed": true,
							"internalType": "address",
							"name": "recipient",
							"type": "address"
						},
						{
							"indexed": true,
							"internalType": "bytes32",
							"name": "nullifier",
							"type": "bytes32"
						},
						{
							"indexed": true,
							"internalType": "address",
							"name": "relayer",
							"type": "address"
						},
						{
							"indexed": false,
							"internalType": "uint256",
							"name": "denomination",
							"type": "uint256"
						},
						{
							"indexed": false,
							"internalType": "uint256",
							"name": "fee",
							"type": "uint256"
						}
					],
					"name": "Withdrawal",
					"type": "event"
				},
				{
					"inputs": [],
					"name": "MAX_DEPOSIT_COUNT",
					"outputs": [
						{
							"internalType": "uint256",
							"name": "",
							"type": "uint256"
						}
					],
					"stateMutability": "view",
					"type": "function"
				},
				{
					"inputs": [],
					"name": "MAX_FEE_PERCENT",
					"outputs": [
						{
							"internalType": "uint256",
							"name": "",
							"type": "uint256"
						}
					],
					"stateMutability": "view",
					"type": "function"
				},
				{
					"inputs": [],
					"name": "MERKLE_TREE_HEIGHT",
					"outputs": [
						{
							"internalType": "uint256",
							"name": "",
							"type": "uint256"
						}
					],
					"stateMutability": "view",
					"type": "function"
				},
				{
					"inputs": [
						{
							"internalType": "uint256",
							"name": "amount",
							"type": "uint256"
						}
					],
					"name": "addDenomination",
					"outputs": [],
					"stateMutability": "nonpayable",
					"type": "function"
				},
				{
					"inputs": [],
					"name": "denominationCount",
					"outputs": [
						{
							"internalType": "uint256",
							"name": "",
							"type": "uint256"
						}
					],
					"stateMutability": "view",
					"type": "function"
				},
				{
					"inputs": [
						{
							"internalType": "uint256",
							"name": "",
							"type": "uint256"
						}
					],
					"name": "denominations",
					"outputs": [
						{
							"internalType": "uint256",
							"name": "amount",
							"type": "uint256"
						},
						{
							"internalType": "uint256",
							"name": "depositsCount",
							"type": "uint256"
						},
						{
							"internalType": "bool",
							"name": "enabled",
							"type": "bool"
						}
					],
					"stateMutability": "view",
					"type": "function"
				},
				{
					"inputs": [
						{
							"internalType": "bytes32",
							"name": "commitment",
							"type": "bytes32"
						},
						{
							"internalType": "uint256",
							"name": "denomination",
							"type": "uint256"
						},
						{
							"internalType": "bytes",
							"name": "encryptedNote",
							"type": "bytes"
						}
					],
					"name": "deposit",
					"outputs": [],
					"stateMutability": "nonpayable",
					"type": "function"
				},
				{
					"inputs": [
						{
							"internalType": "uint256",
							"name": "amount",
							"type": "uint256"
						}
					],
					"name": "disableDenomination",
					"outputs": [],
					"stateMutability": "nonpayable",
					"type": "function"
				},
				{
					"inputs": [
						{
							"internalType": "uint256",
							"name": "index",
							"type": "uint256"
						}
					],
					"name": "getPath",
					"outputs": [
						{
							"internalType": "bytes32[]",
							"name": "",
							"type": "bytes32[]"
						}
					],
					"stateMutability": "view",
					"type": "function"
				},
				{
					"inputs": [],
					"name": "getRoot",
					"outputs": [
						{
							"internalType": "bytes32",
							"name": "",
							"type": "bytes32"
						}
					],
					"stateMutability": "view",
					"type": "function"
				},
				{
					"inputs": [],
					"name": "merkleTree",
					"outputs": [
						{
							"internalType": "uint256",
							"name": "nextIndex",
							"type": "uint256"
						},
						{
							"internalType": "bytes32",
							"name": "root",
							"type": "bytes32"
						}
					],
					"stateMutability": "view",
					"type": "function"
				},
				{
					"inputs": [
						{
							"internalType": "bytes32",
							"name": "",
							"type": "bytes32"
						}
					],
					"name": "notes",
					"outputs": [
						{
							"internalType": "bytes32",
							"name": "commitment",
							"type": "bytes32"
						},
						{
							"internalType": "uint32",
							"name": "timestamp",
							"type": "uint32"
						},
						{
							"internalType": "uint256",
							"name": "denomination",
							"type": "uint256"
						},
						{
							"internalType": "bytes",
							"name": "encryptedNote",
							"type": "bytes"
						}
					],
					"stateMutability": "view",
					"type": "function"
				},
				{
					"inputs": [
						{
							"internalType": "bytes32",
							"name": "",
							"type": "bytes32"
						}
					],
					"name": "nullifierHashes",
					"outputs": [
						{
							"internalType": "bool",
							"name": "",
							"type": "bool"
						}
					],
					"stateMutability": "view",
					"type": "function"
				},
				{
					"inputs": [],
					"name": "owner",
					"outputs": [
						{
							"internalType": "address",
							"name": "",
							"type": "address"
						}
					],
					"stateMutability": "view",
					"type": "function"
				},
				{
					"inputs": [],
					"name": "pause",
					"outputs": [],
					"stateMutability": "nonpayable",
					"type": "function"
				},
				{
					"inputs": [],
					"name": "paused",
					"outputs": [
						{
							"internalType": "bool",
							"name": "",
							"type": "bool"
						}
					],
					"stateMutability": "view",
					"type": "function"
				},
				{
					"inputs": [],
					"name": "renounceOwnership",
					"outputs": [],
					"stateMutability": "nonpayable",
					"type": "function"
				},
				{
					"inputs": [],
					"name": "token",
					"outputs": [
						{
							"internalType": "contract IERC20",
							"name": "",
							"type": "address"
						}
					],
					"stateMutability": "view",
					"type": "function"
				},
				{
					"inputs": [
						{
							"internalType": "address",
							"name": "newOwner",
							"type": "address"
						}
					],
					"name": "transferOwnership",
					"outputs": [],
					"stateMutability": "nonpayable",
					"type": "function"
				},
				{
					"inputs": [],
					"name": "unpause",
					"outputs": [],
					"stateMutability": "nonpayable",
					"type": "function"
				},
				{
					"inputs": [],
					"name": "verifier",
					"outputs": [
						{
							"internalType": "contract IMixerVerifier",
							"name": "",
							"type": "address"
						}
					],
					"stateMutability": "view",
					"type": "function"
				},
				{
					"inputs": [
						{
							"internalType": "uint256[8]",
							"name": "proof",
							"type": "uint256[8]"
						},
						{
							"internalType": "bytes32",
							"name": "nullifierHash",
							"type": "bytes32"
						},
						{
							"internalType": "address",
							"name": "recipient",
							"type": "address"
						},
						{
							"internalType": "address",
							"name": "relayer",
							"type": "address"
						},
						{
							"internalType": "uint256",
							"name": "fee",
							"type": "uint256"
						},
						{
							"internalType": "uint256",
							"name": "denomination",
							"type": "uint256"
						}
					],
					"name": "withdraw",
					"outputs": [],
					"stateMutability": "nonpayable",
					"type": "function"
				}
			],
			"devdoc": {
				"details": "Implements a zkSNARK-based mixing protocol",
				"errors": {
					"EnforcedPause()": [
						{
							"details": "The operation failed because the contract is paused."
						}
					],
					"ExpectedPause()": [
						{
							"details": "The operation failed because the contract is not paused."
						}
					],
					"OwnableInvalidOwner(address)": [
						{
							"details": "The owner is not a valid owner account. (eg. `address(0)`)"
						}
					],
					"OwnableUnauthorizedAccount(address)": [
						{
							"details": "The caller account is not authorized to perform an operation."
						}
					],
					"ReentrancyGuardReentrantCall()": [
						{
							"details": "Unauthorized reentrant call."
						}
					]
				},
				"events": {
					"Paused(address)": {
						"details": "Emitted when the pause is triggered by `account`."
					},
					"Unpaused(address)": {
						"details": "Emitted when the pause is lifted by `account`."
					}
				},
				"kind": "dev",
				"methods": {
					"addDenomination(uint256)": {
						"params": {
							"amount": "Denomination amount"
						}
					},
					"constructor": {
						"params": {
							"_token": "Token to be mixed",
							"_verifier": "Verifier contract"
						}
					},
					"deposit(bytes32,uint256,bytes)": {
						"params": {
							"commitment": "Note commitment",
							"denomination": "Deposit amount denomination",
							"encryptedNote": "Encrypted note data"
						}
					},
					"disableDenomination(uint256)": {
						"params": {
							"amount": "Denomination amount"
						}
					},
					"getPath(uint256)": {
						"params": {
							"index": "Leaf index"
						}
					},
					"owner()": {
						"details": "Returns the address of the current owner."
					},
					"paused()": {
						"details": "Returns true if the contract is paused, and false otherwise."
					},
					"renounceOwnership()": {
						"details": "Leaves the contract without owner. It will not be possible to call `onlyOwner` functions. Can only be called by the current owner. NOTE: Renouncing ownership will leave the contract without an owner, thereby disabling any functionality that is only available to the owner."
					},
					"transferOwnership(address)": {
						"details": "Transfers ownership of the contract to a new account (`newOwner`). Can only be called by the current owner."
					},
					"withdraw(uint256[8],bytes32,address,address,uint256,uint256)": {
						"params": {
							"denomination": "Withdrawal denomination",
							"fee": "Relayer fee",
							"nullifierHash": "Nullifier hash",
							"proof": "zkSNARK proof",
							"recipient": "Recipient address",
							"relayer": "Relayer address"
						}
					}
				},
				"title": "TornadoPool",
				"version": 1
			},
			"evm": {
				"assembly": "    /* \"privacy/mixer/TornadoPool.sol\":515:9544  contract TornadoPool is Ownable, ReentrancyGuard, Pausable {... */\n  mstore(0x40, 0x80)\n    /* \"privacy/mixer/TornadoPool.sol\":2476:2717  constructor(... */\n  callvalue\n  dup1\n  iszero\n  tag_1\n  jumpi\n  0x00\n  dup1\n  revert\ntag_1:\n  pop\n  mload(0x40)\n  sub(codesize, bytecodeSize)\n  dup1\n  bytecodeSize\n  dup4\n  codecopy\n  dup2\n  dup2\n  add\n  0x40\n  mstore\n  dup2\n  add\n  swap1\n  tag_2\n  swap2\n  swap1\n  tag_3\n  jump\t// in\ntag_2:\n    /* \"privacy/mixer/TornadoPool.sol\":2584:2596  initialOwner */\n  dup3\n    /* \"@openzeppelin/contracts/access/Ownable.sol\":1297:1298  0 */\n  0x00\n    /* \"@openzeppelin/contracts/access/Ownable.sol\":1273:1299  initialOwner == address(0) */\n  0xffffffffffffffffffffffffffffffffffffffff\n  and\n    /* \"@openzeppelin/contracts/access/Ownable.sol\":1273:1285  initialOwner */\n  dup2\n    /* \"@openzeppelin/contracts/access/Ownable.sol\":1273:1299  initialOwner == address(0) */\n  0xffffffffffffffffffffffffffffffffffffffff\n  and\n  sub\n    /* \"@openzeppelin/contracts/access/Ownable.sol\":1269:1364  if (initialOwner == address(0)) {... */\n  tag_9\n  jumpi\n    /* \"@openzeppelin/contracts/access/Ownable.sol\":1350:1351  0 */\n  0x00\n    /* \"@openzeppelin/contracts/access/Ownable.sol\":1322:1353  OwnableInvalidOwner(address(0)) */\n  mload(0x40)\n  0x1e4fbdf700000000000000000000000000000000000000000000000000000000\n  dup2\n  mstore\n  0x04\n  add\n  tag_10\n  swap2\n  swap1\n  tag_11\n  jump\t// in\ntag_10:\n  mload(0x40)\n  dup1\n  swap2\n  sub\n  swap1\n  revert\n    /* \"@openzeppelin/contracts/access/Ownable.sol\":1269:1364  if (initialOwner == address(0)) {... */\ntag_9:\n    /* \"@openzeppelin/contracts/access/Ownable.sol\":1373:1405  _transferOwnership(initialOwner) */\n  tag_12\n    /* \"@openzeppelin/contracts/access/Ownable.sol\":1392:1404  initialOwner */\n  dup2\n    /* \"@openzeppelin/contracts/access/Ownable.sol\":1373:1391  _transferOwnership */\n  shl(0x20, tag_13)\n    /* \"@openzeppelin/contracts/access/Ownable.sol\":1373:1405  _transferOwnership(initialOwner) */\n  0x20\n  shr\n  jump\t// in\ntag_12:\n    /* \"@openzeppelin/contracts/access/Ownable.sol\":1225:1412  constructor(address initialOwner) {... */\n  pop\n    /* \"@openzeppelin/contracts/utils/ReentrancyGuard.sol\":1857:1858  1 */\n  0x01\n    /* \"@openzeppelin/contracts/utils/ReentrancyGuard.sol\":2061:2068  _status */\n  dup1\n    /* \"@openzeppelin/contracts/utils/ReentrancyGuard.sol\":2061:2082  _status = NOT_ENTERED */\n  dup2\n  swap1\n  sstore\n  pop\n    /* \"@openzeppelin/contracts/utils/Pausable.sol\":1241:1246  false */\n  0x00\n    /* \"@openzeppelin/contracts/utils/Pausable.sol\":1231:1238  _paused */\n  0x02\n  0x00\n    /* \"@openzeppelin/contracts/utils/Pausable.sol\":1231:1246  _paused = false */\n  0x0100\n  exp\n  dup2\n  sload\n  dup2\n  0xff\n  mul\n  not\n  and\n  swap1\n  dup4\n  iszero\n  iszero\n  mul\n  or\n  swap1\n  sstore\n  pop\n    /* \"privacy/mixer/TornadoPool.sol\":2623:2629  _token */\n  dup2\n    /* \"privacy/mixer/TornadoPool.sol\":2608:2613  token */\n  0x02\n  0x01\n    /* \"privacy/mixer/TornadoPool.sol\":2608:2630  token = IERC20(_token) */\n  0x0100\n  exp\n  dup2\n  sload\n  dup2\n  0xffffffffffffffffffffffffffffffffffffffff\n  mul\n  not\n  and\n  swap1\n  dup4\n  0xffffffffffffffffffffffffffffffffffffffff\n  and\n  mul\n  or\n  swap1\n  sstore\n  pop\n    /* \"privacy/mixer/TornadoPool.sol\":2666:2675  _verifier */\n  dup1\n    /* \"privacy/mixer/TornadoPool.sol\":2640:2648  verifier */\n  0x03\n  0x00\n    /* \"privacy/mixer/TornadoPool.sol\":2640:2676  verifier = IMixerVerifier(_verifier) */\n  0x0100\n  exp\n  dup2\n  sload\n  dup2\n  0xffffffffffffffffffffffffffffffffffffffff\n  mul\n  not\n  and\n  swap1\n  dup4\n  0xffffffffffffffffffffffffffffffffffffffff\n  and\n  mul\n  or\n  swap1\n  sstore\n  pop\n    /* \"privacy/mixer/TornadoPool.sol\":2709:2710  0 */\n  0x00\n    /* \"privacy/mixer/TornadoPool.sol\":2686:2696  merkleTree */\n  0x07\n    /* \"privacy/mixer/TornadoPool.sol\":2686:2706  merkleTree.nextIndex */\n  0x01\n  add\n    /* \"privacy/mixer/TornadoPool.sol\":2686:2710  merkleTree.nextIndex = 0 */\n  dup2\n  swap1\n  sstore\n  pop\n    /* \"privacy/mixer/TornadoPool.sol\":2476:2717  constructor(... */\n  pop\n  pop\n  pop\n    /* \"privacy/mixer/TornadoPool.sol\":515:9544  contract TornadoPool is Ownable, ReentrancyGuard, Pausable {... */\n  jump(tag_17)\n    /* \"@openzeppelin/contracts/access/Ownable.sol\":2912:3099  function _transferOwnership(address newOwner) internal virtual {... */\ntag_13:\n    /* \"@openzeppelin/contracts/access/Ownable.sol\":2985:3001  address oldOwner */\n  0x00\n    /* \"@openzeppelin/contracts/access/Ownable.sol\":3004:3010  _owner */\n  dup1\n  0x00\n  swap1\n  sload\n  swap1\n  0x0100\n  exp\n  swap1\n  div\n  0xffffffffffffffffffffffffffffffffffffffff\n  and\n    /* \"@openzeppelin/contracts/access/Ownable.sol\":2985:3010  address oldOwner = _owner */\n  swap1\n  pop\n    /* \"@openzeppelin/contracts/access/Ownable.sol\":3029:3037  newOwner */\n  dup2\n    /* \"@openzeppelin/contracts/access/Ownable.sol\":3020:3026  _owner */\n  0x00\n  dup1\n    /* \"@openzeppelin/contracts/access/Ownable.sol\":3020:3037  _owner = newOwner */\n  0x0100\n  exp\n  dup2\n  sload\n  dup2\n  0xffffffffffffffffffffffffffffffffffffffff\n  mul\n  not\n  and\n  swap1\n  dup4\n  0xffffffffffffffffffffffffffffffffffffffff\n  and\n  mul\n  or\n  swap1\n  sstore\n  pop\n    /* \"@openzeppelin/contracts/access/Ownable.sol\":3083:3091  newOwner */\n  dup2\n    /* \"@openzeppelin/contracts/access/Ownable.sol\":3052:3092  OwnershipTransferred(oldOwner, newOwner) */\n  0xffffffffffffffffffffffffffffffffffffffff\n  and\n    /* \"@openzeppelin/contracts/access/Ownable.sol\":3073:3081  oldOwner */\n  dup2\n    /* \"@openzeppelin/contracts/access/Ownable.sol\":3052:3092  OwnershipTransferred(oldOwner, newOwner) */\n  0xffffffffffffffffffffffffffffffffffffffff\n  and\n  0x8be0079c531659141344cd1fd0a4f28419497f9722a3daafe3b4186f6b6457e0\n  mload(0x40)\n  mload(0x40)\n  dup1\n  swap2\n  sub\n  swap1\n  log3\n    /* \"@openzeppelin/contracts/access/Ownable.sol\":2975:3099  {... */\n  pop\n    /* \"@openzeppelin/contracts/access/Ownable.sol\":2912:3099  function _transferOwnership(address newOwner) internal virtual {... */\n  pop\n  jump\t// out\n    /* \"#utility.yul\":88:205   */\ntag_20:\n    /* \"#utility.yul\":197:198   */\n  0x00\n    /* \"#utility.yul\":194:195   */\n  dup1\n    /* \"#utility.yul\":187:199   */\n  revert\n    /* \"#utility.yul\":334:460   */\ntag_22:\n    /* \"#utility.yul\":371:378   */\n  0x00\n    /* \"#utility.yul\":411:453   */\n  0xffffffffffffffffffffffffffffffffffffffff\n    /* \"#utility.yul\":404:409   */\n  dup3\n    /* \"#utility.yul\":400:454   */\n  and\n    /* \"#utility.yul\":389:454   */\n  swap1\n  pop\n    /* \"#utility.yul\":334:460   */\n  swap2\n  swap1\n  pop\n  jump\t// out\n    /* \"#utility.yul\":466:562   */\ntag_23:\n    /* \"#utility.yul\":503:510   */\n  0x00\n    /* \"#utility.yul\":532:556   */\n  tag_33\n    /* \"#utility.yul\":550:555   */\n  dup3\n    /* \"#utility.yul\":532:556   */\n  tag_22\n  jump\t// in\ntag_33:\n    /* \"#utility.yul\":521:556   */\n  swap1\n  pop\n    /* \"#utility.yul\":466:562   */\n  swap2\n  swap1\n  pop\n  jump\t// out\n    /* \"#utility.yul\":568:690   */\ntag_24:\n    /* \"#utility.yul\":641:665   */\n  tag_35\n    /* \"#utility.yul\":659:664   */\n  dup2\n    /* \"#utility.yul\":641:665   */\n  tag_23\n  jump\t// in\ntag_35:\n    /* \"#utility.yul\":634:639   */\n  dup2\n    /* \"#utility.yul\":631:666   */\n  eq\n    /* \"#utility.yul\":621:684   */\n  tag_36\n  jumpi\n    /* \"#utility.yul\":680:681   */\n  0x00\n    /* \"#utility.yul\":677:678   */\n  dup1\n    /* \"#utility.yul\":670:682   */\n  revert\n    /* \"#utility.yul\":621:684   */\ntag_36:\n    /* \"#utility.yul\":568:690   */\n  pop\n  jump\t// out\n    /* \"#utility.yul\":696:839   */\ntag_25:\n    /* \"#utility.yul\":753:758   */\n  0x00\n    /* \"#utility.yul\":784:790   */\n  dup2\n    /* \"#utility.yul\":778:791   */\n  mload\n    /* \"#utility.yul\":769:791   */\n  swap1\n  pop\n    /* \"#utility.yul\":800:833   */\n  tag_38\n    /* \"#utility.yul\":827:832   */\n  dup2\n    /* \"#utility.yul\":800:833   */\n  tag_24\n  jump\t// in\ntag_38:\n    /* \"#utility.yul\":696:839   */\n  swap3\n  swap2\n  pop\n  pop\n  jump\t// out\n    /* \"#utility.yul\":845:1508   */\ntag_3:\n    /* \"#utility.yul\":933:939   */\n  0x00\n    /* \"#utility.yul\":941:947   */\n  dup1\n    /* \"#utility.yul\":949:955   */\n  0x00\n    /* \"#utility.yul\":998:1000   */\n  0x60\n    /* \"#utility.yul\":986:995   */\n  dup5\n    /* \"#utility.yul\":977:984   */\n  dup7\n    /* \"#utility.yul\":973:996   */\n  sub\n    /* \"#utility.yul\":969:1001   */\n  slt\n    /* \"#utility.yul\":966:1085   */\n  iszero\n  tag_40\n  jumpi\n    /* \"#utility.yul\":1004:1083   */\n  tag_41\n  tag_20\n  jump\t// in\ntag_41:\n    /* \"#utility.yul\":966:1085   */\ntag_40:\n    /* \"#utility.yul\":1124:1125   */\n  0x00\n    /* \"#utility.yul\":1149:1213   */\n  tag_42\n    /* \"#utility.yul\":1205:1212   */\n  dup7\n    /* \"#utility.yul\":1196:1202   */\n  dup3\n    /* \"#utility.yul\":1185:1194   */\n  dup8\n    /* \"#utility.yul\":1181:1203   */\n  add\n    /* \"#utility.yul\":1149:1213   */\n  tag_25\n  jump\t// in\ntag_42:\n    /* \"#utility.yul\":1139:1213   */\n  swap4\n  pop\n    /* \"#utility.yul\":1095:1223   */\n  pop\n    /* \"#utility.yul\":1262:1264   */\n  0x20\n    /* \"#utility.yul\":1288:1352   */\n  tag_43\n    /* \"#utility.yul\":1344:1351   */\n  dup7\n    /* \"#utility.yul\":1335:1341   */\n  dup3\n    /* \"#utility.yul\":1324:1333   */\n  dup8\n    /* \"#utility.yul\":1320:1342   */\n  add\n    /* \"#utility.yul\":1288:1352   */\n  tag_25\n  jump\t// in\ntag_43:\n    /* \"#utility.yul\":1278:1352   */\n  swap3\n  pop\n    /* \"#utility.yul\":1233:1362   */\n  pop\n    /* \"#utility.yul\":1401:1403   */\n  0x40\n    /* \"#utility.yul\":1427:1491   */\n  tag_44\n    /* \"#utility.yul\":1483:1490   */\n  dup7\n    /* \"#utility.yul\":1474:1480   */\n  dup3\n    /* \"#utility.yul\":1463:1472   */\n  dup8\n    /* \"#utility.yul\":1459:1481   */\n  add\n    /* \"#utility.yul\":1427:1491   */\n  tag_25\n  jump\t// in\ntag_44:\n    /* \"#utility.yul\":1417:1491   */\n  swap2\n  pop\n    /* \"#utility.yul\":1372:1501   */\n  pop\n    /* \"#utility.yul\":845:1508   */\n  swap3\n  pop\n  swap3\n  pop\n  swap3\n  jump\t// out\n    /* \"#utility.yul\":1514:1632   */\ntag_26:\n    /* \"#utility.yul\":1601:1625   */\n  tag_46\n    /* \"#utility.yul\":1619:1624   */\n  dup2\n    /* \"#utility.yul\":1601:1625   */\n  tag_23\n  jump\t// in\ntag_46:\n    /* \"#utility.yul\":1596:1599   */\n  dup3\n    /* \"#utility.yul\":1589:1626   */\n  mstore\n    /* \"#utility.yul\":1514:1632   */\n  pop\n  pop\n  jump\t// out\n    /* \"#utility.yul\":1638:1860   */\ntag_11:\n    /* \"#utility.yul\":1731:1735   */\n  0x00\n    /* \"#utility.yul\":1769:1771   */\n  0x20\n    /* \"#utility.yul\":1758:1767   */\n  dup3\n    /* \"#utility.yul\":1754:1772   */\n  add\n    /* \"#utility.yul\":1746:1772   */\n  swap1\n  pop\n    /* \"#utility.yul\":1782:1853   */\n  tag_48\n    /* \"#utility.yul\":1850:1851   */\n  0x00\n    /* \"#utility.yul\":1839:1848   */\n  dup4\n    /* \"#utility.yul\":1835:1852   */\n  add\n    /* \"#utility.yul\":1826:1832   */\n  dup5\n    /* \"#utility.yul\":1782:1853   */\n  tag_26\n  jump\t// in\ntag_48:\n    /* \"#utility.yul\":1638:1860   */\n  swap3\n  swap2\n  pop\n  pop\n  jump\t// out\n    /* \"privacy/mixer/TornadoPool.sol\":515:9544  contract TornadoPool is Ownable, ReentrancyGuard, Pausable {... */\ntag_17:\n  dataSize(sub_0)\n  dup1\n  dataOffset(sub_0)\n  0x00\n  codecopy\n  0x00\n  return\nstop\n\nsub_0: assembly {\n        /* \"privacy/mixer/TornadoPool.sol\":515:9544  contract TornadoPool is Ownable, ReentrancyGuard, Pausable {... */\n      mstore(0x40, 0x80)\n      callvalue\n      dup1\n      iszero\n      tag_1\n      jumpi\n      0x00\n      dup1\n      revert\n    tag_1:\n      pop\n      jumpi(tag_2, lt(calldatasize, 0x04))\n      shr(0xe0, calldataload(0x00))\n      dup1\n      0x85de26b7\n      gt\n      tag_25\n      jumpi\n      dup1\n      0xe1765073\n      gt\n      tag_26\n      jumpi\n      dup1\n      0xe1765073\n      eq\n      tag_19\n      jumpi\n      dup1\n      0xe754b9c6\n      eq\n      tag_20\n      jumpi\n      dup1\n      0xf2fde38b\n      eq\n      tag_21\n      jumpi\n      dup1\n      0xf3ce61ad\n      eq\n      tag_22\n      jumpi\n      dup1\n      0xfc0c546a\n      eq\n      tag_23\n      jumpi\n      dup1\n      0xfcc0be6b\n      eq\n      tag_24\n      jumpi\n      jump(tag_2)\n    tag_26:\n      dup1\n      0x85de26b7\n      eq\n      tag_14\n      jumpi\n      dup1\n      0x86cf6de4\n      eq\n      tag_15\n      jumpi\n      dup1\n      0x8da5cb5b\n      eq\n      tag_16\n      jumpi\n      dup1\n      0xbb7df052\n      eq\n      tag_17\n      jumpi\n      dup1\n      0xcc2ed697\n      eq\n      tag_18\n      jumpi\n      jump(tag_2)\n    tag_25:\n      dup1\n      0x5c975abb\n      gt\n      tag_27\n      jumpi\n      dup1\n      0x5c975abb\n      eq\n      tag_8\n      jumpi\n      dup1\n      0x5ca1e165\n      eq\n      tag_9\n      jumpi\n      dup1\n      0x666ee854\n      eq\n      tag_10\n      jumpi\n      dup1\n      0x67d81740\n      eq\n      tag_11\n      jumpi\n      dup1\n      0x715018a6\n      eq\n      tag_12\n      jumpi\n      dup1\n      0x8456cb59\n      eq\n      tag_13\n      jumpi\n      jump(tag_2)\n    tag_27:\n      dup1\n      0x17cc915c\n      eq\n      tag_3\n      jumpi\n      dup1\n      0x1acc8486\n      eq\n      tag_4\n      jumpi\n      dup1\n      0x2b7ac3f3\n      eq\n      tag_5\n      jumpi\n      dup1\n      0x3f4ba83a\n      eq\n      tag_6\n      jumpi\n      dup1\n      0x595ba3ed\n      eq\n      tag_7\n      jumpi\n    tag_2:\n      0x00\n      dup1\n      revert\n        /* \"privacy/mixer/TornadoPool.sol\":2114:2161  mapping(bytes32 => bool) public nullifierHashes */\n    tag_3:\n      tag_28\n      0x04\n      dup1\n      calldatasize\n      sub\n      dup2\n      add\n      swap1\n      tag_29\n      swap2\n      swap1\n      tag_30\n      jump\t// in\n    tag_29:\n      tag_31\n      jump\t// in\n    tag_28:\n      mload(0x40)\n      tag_32\n      swap2\n      swap1\n      tag_33\n      jump\t// in\n    tag_32:\n      mload(0x40)\n      dup1\n      swap2\n      sub\n      swap1\n      return\n        /* \"privacy/mixer/TornadoPool.sol\":2930:3955  function deposit(... */\n    tag_4:\n      tag_34\n      0x04\n      dup1\n      calldatasize\n      sub\n      dup2\n      add\n      swap1\n      tag_35\n      swap2\n      swap1\n      tag_36\n      jump\t// in\n    tag_35:\n      tag_37\n      jump\t// in\n    tag_34:\n      stop\n        /* \"privacy/mixer/TornadoPool.sol\":2073:2103  IMixerVerifier public verifier */\n    tag_5:\n      tag_38\n      tag_39\n      jump\t// in\n    tag_38:\n      mload(0x40)\n      tag_40\n      swap2\n      swap1\n      tag_41\n      jump\t// in\n    tag_40:\n      mload(0x40)\n      dup1\n      swap2\n      sub\n      swap1\n      return\n        /* \"privacy/mixer/TornadoPool.sol\":9475:9540  function unpause() external onlyOwner {... */\n    tag_6:\n      tag_42\n      tag_43\n      jump\t// in\n    tag_42:\n      stop\n        /* \"privacy/mixer/TornadoPool.sol\":2308:2340  uint256 public denominationCount */\n    tag_7:\n      tag_44\n      tag_45\n      jump\t// in\n    tag_44:\n      mload(0x40)\n      tag_46\n      swap2\n      swap1\n      tag_47\n      jump\t// in\n    tag_46:\n      mload(0x40)\n      dup1\n      swap2\n      sub\n      swap1\n      return\n        /* \"@openzeppelin/contracts/utils/Pausable.sol\":1850:1934  function paused() public view virtual returns (bool) {... */\n    tag_8:\n      tag_48\n      tag_49\n      jump\t// in\n    tag_48:\n      mload(0x40)\n      tag_50\n      swap2\n      swap1\n      tag_33\n      jump\t// in\n    tag_50:\n      mload(0x40)\n      dup1\n      swap2\n      sub\n      swap1\n      return\n        /* \"privacy/mixer/TornadoPool.sol\":8548:8638  function getRoot() external view returns (bytes32) {... */\n    tag_9:\n      tag_51\n      tag_52\n      jump\t// in\n    tag_51:\n      mload(0x40)\n      tag_53\n      swap2\n      swap1\n      tag_54\n      jump\t// in\n    tag_53:\n      mload(0x40)\n      dup1\n      swap2\n      sub\n      swap1\n      return\n        /* \"privacy/mixer/TornadoPool.sol\":6064:6330  function disableDenomination(uint256 amount) external onlyOwner {... */\n    tag_10:\n      tag_55\n      0x04\n      dup1\n      calldatasize\n      sub\n      dup2\n      add\n      swap1\n      tag_56\n      swap2\n      swap1\n      tag_57\n      jump\t// in\n    tag_56:\n      tag_58\n      jump\t// in\n    tag_55:\n      stop\n        /* \"privacy/mixer/TornadoPool.sol\":1969:2012  uint256 public constant MAX_FEE_PERCENT = 2 */\n    tag_11:\n      tag_59\n      tag_60\n      jump\t// in\n    tag_59:\n      mload(0x40)\n      tag_61\n      swap2\n      swap1\n      tag_47\n      jump\t// in\n    tag_61:\n      mload(0x40)\n      dup1\n      swap2\n      sub\n      swap1\n      return\n        /* \"@openzeppelin/contracts/access/Ownable.sol\":2293:2394  function renounceOwnership() public virtual onlyOwner {... */\n    tag_12:\n      tag_62\n      tag_63\n      jump\t// in\n    tag_62:\n      stop\n        /* \"privacy/mixer/TornadoPool.sol\":9408:9469  function pause() external onlyOwner {... */\n    tag_13:\n      tag_64\n      tag_65\n      jump\t// in\n    tag_64:\n      stop\n        /* \"privacy/mixer/TornadoPool.sol\":2226:2263  mapping(bytes32 => Note) public notes */\n    tag_14:\n      tag_66\n      0x04\n      dup1\n      calldatasize\n      sub\n      dup2\n      add\n      swap1\n      tag_67\n      swap2\n      swap1\n      tag_30\n      jump\t// in\n    tag_67:\n      tag_68\n      jump\t// in\n    tag_66:\n      mload(0x40)\n      tag_69\n      swap5\n      swap4\n      swap3\n      swap2\n      swap1\n      tag_70\n      jump\t// in\n    tag_69:\n      mload(0x40)\n      dup1\n      swap2\n      sub\n      swap1\n      return\n        /* \"privacy/mixer/TornadoPool.sol\":4252:5449  function withdraw(... */\n    tag_15:\n      tag_71\n      0x04\n      dup1\n      calldatasize\n      sub\n      dup2\n      add\n      swap1\n      tag_72\n      swap2\n      swap1\n      tag_73\n      jump\t// in\n    tag_72:\n      tag_74\n      jump\t// in\n    tag_71:\n      stop\n        /* \"@openzeppelin/contracts/access/Ownable.sol\":1638:1723  function owner() public view virtual returns (address) {... */\n    tag_16:\n      tag_75\n      tag_76\n      jump\t// in\n    tag_75:\n      mload(0x40)\n      tag_77\n      swap2\n      swap1\n      tag_78\n      jump\t// in\n    tag_77:\n      mload(0x40)\n      dup1\n      swap2\n      sub\n      swap1\n      return\n        /* \"privacy/mixer/TornadoPool.sol\":2274:2302  MerkleTree public merkleTree */\n    tag_17:\n      tag_79\n      tag_80\n      jump\t// in\n    tag_79:\n      mload(0x40)\n      tag_81\n      swap3\n      swap2\n      swap1\n      tag_82\n      jump\t// in\n    tag_81:\n      mload(0x40)\n      dup1\n      swap2\n      sub\n      swap1\n      return\n        /* \"privacy/mixer/TornadoPool.sol\":5563:5965  function addDenomination(uint256 amount) external onlyOwner {... */\n    tag_18:\n      tag_83\n      0x04\n      dup1\n      calldatasize\n      sub\n      dup2\n      add\n      swap1\n      tag_84\n      swap2\n      swap1\n      tag_57\n      jump\t// in\n    tag_84:\n      tag_85\n      jump\t// in\n    tag_83:\n      stop\n        /* \"privacy/mixer/TornadoPool.sol\":8727:9375  function getPath(uint256 index) external view returns (bytes32[] memory) {... */\n    tag_19:\n      tag_86\n      0x04\n      dup1\n      calldatasize\n      sub\n      dup2\n      add\n      swap1\n      tag_87\n      swap2\n      swap1\n      tag_57\n      jump\t// in\n    tag_87:\n      tag_88\n      jump\t// in\n    tag_86:\n      mload(0x40)\n      tag_89\n      swap2\n      swap1\n      tag_90\n      jump\t// in\n    tag_89:\n      mload(0x40)\n      dup1\n      swap2\n      sub\n      swap1\n      return\n        /* \"privacy/mixer/TornadoPool.sol\":1898:1963  uint256 public constant MAX_DEPOSIT_COUNT = 2**MERKLE_TREE_HEIGHT */\n    tag_20:\n      tag_91\n      tag_92\n      jump\t// in\n    tag_91:\n      mload(0x40)\n      tag_93\n      swap2\n      swap1\n      tag_47\n      jump\t// in\n    tag_93:\n      mload(0x40)\n      dup1\n      swap2\n      sub\n      swap1\n      return\n        /* \"@openzeppelin/contracts/access/Ownable.sol\":2543:2758  function transferOwnership(address newOwner) public virtual onlyOwner {... */\n    tag_21:\n      tag_94\n      0x04\n      dup1\n      calldatasize\n      sub\n      dup2\n      add\n      swap1\n      tag_95\n      swap2\n      swap1\n      tag_96\n      jump\t// in\n    tag_95:\n      tag_97\n      jump\t// in\n    tag_94:\n      stop\n        /* \"privacy/mixer/TornadoPool.sol\":2167:2220  mapping(uint256 => Denomination) public denominations */\n    tag_22:\n      tag_98\n      0x04\n      dup1\n      calldatasize\n      sub\n      dup2\n      add\n      swap1\n      tag_99\n      swap2\n      swap1\n      tag_57\n      jump\t// in\n    tag_99:\n      tag_100\n      jump\t// in\n    tag_98:\n      mload(0x40)\n      tag_101\n      swap4\n      swap3\n      swap2\n      swap1\n      tag_102\n      jump\t// in\n    tag_101:\n      mload(0x40)\n      dup1\n      swap2\n      sub\n      swap1\n      return\n        /* \"privacy/mixer/TornadoPool.sol\":2048:2067  IERC20 public token */\n    tag_23:\n      tag_103\n      tag_104\n      jump\t// in\n    tag_103:\n      mload(0x40)\n      tag_105\n      swap2\n      swap1\n      tag_106\n      jump\t// in\n    tag_105:\n      mload(0x40)\n      dup1\n      swap2\n      sub\n      swap1\n      return\n        /* \"privacy/mixer/TornadoPool.sol\":1845:1892  uint256 public constant MERKLE_TREE_HEIGHT = 20 */\n    tag_24:\n      tag_107\n      tag_108\n      jump\t// in\n    tag_107:\n      mload(0x40)\n      tag_109\n      swap2\n      swap1\n      tag_47\n      jump\t// in\n    tag_109:\n      mload(0x40)\n      dup1\n      swap2\n      sub\n      swap1\n      return\n        /* \"privacy/mixer/TornadoPool.sol\":2114:2161  mapping(bytes32 => bool) public nullifierHashes */\n    tag_31:\n      mstore(0x20, 0x04)\n      dup1\n      0x00\n      mstore\n      keccak256(0x00, 0x40)\n      0x00\n      swap2\n      pop\n      sload\n      swap1\n      0x0100\n      exp\n      swap1\n      div\n      0xff\n      and\n      dup2\n      jump\t// out\n        /* \"privacy/mixer/TornadoPool.sol\":2930:3955  function deposit(... */\n    tag_37:\n        /* \"@openzeppelin/contracts/utils/ReentrancyGuard.sol\":2500:2521  _nonReentrantBefore() */\n      tag_111\n        /* \"@openzeppelin/contracts/utils/ReentrancyGuard.sol\":2500:2519  _nonReentrantBefore */\n      tag_112\n        /* \"@openzeppelin/contracts/utils/ReentrancyGuard.sol\":2500:2521  _nonReentrantBefore() */\n      jump\t// in\n    tag_111:\n        /* \"@openzeppelin/contracts/utils/Pausable.sol\":1474:1493  _requireNotPaused() */\n      tag_114\n        /* \"@openzeppelin/contracts/utils/Pausable.sol\":1474:1491  _requireNotPaused */\n      tag_115\n        /* \"@openzeppelin/contracts/utils/Pausable.sol\":1474:1493  _requireNotPaused() */\n      jump\t// in\n    tag_114:\n        /* \"privacy/mixer/TornadoPool.sol\":3156:3169  denominations */\n      0x05\n        /* \"privacy/mixer/TornadoPool.sol\":3156:3183  denominations[denomination] */\n      0x00\n        /* \"privacy/mixer/TornadoPool.sol\":3170:3182  denomination */\n      dup5\n        /* \"privacy/mixer/TornadoPool.sol\":3156:3183  denominations[denomination] */\n      dup2\n      mstore\n      0x20\n      add\n      swap1\n      dup2\n      mstore\n      0x20\n      add\n      0x00\n      keccak256\n        /* \"privacy/mixer/TornadoPool.sol\":3156:3191  denominations[denomination].enabled */\n      0x02\n      add\n      0x00\n      swap1\n      sload\n      swap1\n      0x0100\n      exp\n      swap1\n      div\n      0xff\n      and\n        /* \"privacy/mixer/TornadoPool.sol\":3148:3216  require(denominations[denomination].enabled, \"Invalid denomination\") */\n      tag_117\n      jumpi\n      mload(0x40)\n      0x08c379a000000000000000000000000000000000000000000000000000000000\n      dup2\n      mstore\n      0x04\n      add\n      tag_118\n      swap1\n      tag_119\n      jump\t// in\n    tag_118:\n      mload(0x40)\n      dup1\n      swap2\n      sub\n      swap1\n      revert\n    tag_117:\n        /* \"privacy/mixer/TornadoPool.sol\":1890:1892  20 */\n      0x14\n        /* \"privacy/mixer/TornadoPool.sol\":1942:1943  2 */\n      0x02\n        /* \"privacy/mixer/TornadoPool.sol\":1942:1963  2**MERKLE_TREE_HEIGHT */\n      tag_120\n      swap2\n      swap1\n      tag_121\n      jump\t// in\n    tag_120:\n        /* \"privacy/mixer/TornadoPool.sol\":3234:3244  merkleTree */\n      0x07\n        /* \"privacy/mixer/TornadoPool.sol\":3234:3254  merkleTree.nextIndex */\n      0x01\n      add\n      sload\n        /* \"privacy/mixer/TornadoPool.sol\":3234:3274  merkleTree.nextIndex < MAX_DEPOSIT_COUNT */\n      lt\n        /* \"privacy/mixer/TornadoPool.sol\":3226:3288  require(merkleTree.nextIndex < MAX_DEPOSIT_COUNT, \"Tree full\") */\n      tag_122\n      jumpi\n      mload(0x40)\n      0x08c379a000000000000000000000000000000000000000000000000000000000\n      dup2\n      mstore\n      0x04\n      add\n      tag_123\n      swap1\n      tag_124\n      jump\t// in\n    tag_123:\n      mload(0x40)\n      dup1\n      swap2\n      sub\n      swap1\n      revert\n    tag_122:\n        /* \"privacy/mixer/TornadoPool.sol\":3334:3339  token */\n      0x02\n      0x01\n      swap1\n      sload\n      swap1\n      0x0100\n      exp\n      swap1\n      div\n      0xffffffffffffffffffffffffffffffffffffffff\n      and\n        /* \"privacy/mixer/TornadoPool.sol\":3334:3352  token.transferFrom */\n      0xffffffffffffffffffffffffffffffffffffffff\n      and\n      0x23b872dd\n        /* \"privacy/mixer/TornadoPool.sol\":3353:3363  msg.sender */\n      caller\n        /* \"privacy/mixer/TornadoPool.sol\":3373:3377  this */\n      address\n        /* \"privacy/mixer/TornadoPool.sol\":3380:3392  denomination */\n      dup7\n        /* \"privacy/mixer/TornadoPool.sol\":3334:3393  token.transferFrom(msg.sender, address(this), denomination) */\n      mload(0x40)\n      dup5\n      0xffffffff\n      and\n      0xe0\n      shl\n      dup2\n      mstore\n      0x04\n      add\n      tag_125\n      swap4\n      swap3\n      swap2\n      swap1\n      tag_126\n      jump\t// in\n    tag_125:\n      0x20\n      mload(0x40)\n      dup1\n      dup4\n      sub\n      dup2\n      0x00\n      dup8\n      gas\n      call\n      iszero\n      dup1\n      iszero\n      tag_128\n      jumpi\n      returndatasize\n      0x00\n      dup1\n      returndatacopy\n      revert(0x00, returndatasize)\n    tag_128:\n      pop\n      pop\n      pop\n      pop\n      mload(0x40)\n      returndatasize\n      not(0x1f)\n      0x1f\n      dup3\n      add\n      and\n      dup3\n      add\n      dup1\n      0x40\n      mstore\n      pop\n      dup2\n      add\n      swap1\n      tag_129\n      swap2\n      swap1\n      tag_130\n      jump\t// in\n    tag_129:\n      pop\n        /* \"privacy/mixer/TornadoPool.sol\":3447:3629  Note({... */\n      mload(0x40)\n      dup1\n      0x80\n      add\n      0x40\n      mstore\n      dup1\n        /* \"privacy/mixer/TornadoPool.sol\":3478:3488  commitment */\n      dup6\n        /* \"privacy/mixer/TornadoPool.sol\":3447:3629  Note({... */\n      dup2\n      mstore\n      0x20\n      add\n        /* \"privacy/mixer/TornadoPool.sol\":3520:3535  block.timestamp */\n      timestamp\n        /* \"privacy/mixer/TornadoPool.sol\":3447:3629  Note({... */\n      0xffffffff\n      and\n      dup2\n      mstore\n      0x20\n      add\n        /* \"privacy/mixer/TornadoPool.sol\":3564:3576  denomination */\n      dup5\n        /* \"privacy/mixer/TornadoPool.sol\":3447:3629  Note({... */\n      dup2\n      mstore\n      0x20\n      add\n        /* \"privacy/mixer/TornadoPool.sol\":3605:3618  encryptedNote */\n      dup4\n      dup4\n        /* \"privacy/mixer/TornadoPool.sol\":3447:3629  Note({... */\n      dup1\n      dup1\n      0x1f\n      add\n      0x20\n      dup1\n      swap2\n      div\n      mul\n      0x20\n      add\n      mload(0x40)\n      swap1\n      dup2\n      add\n      0x40\n      mstore\n      dup1\n      swap4\n      swap3\n      swap2\n      swap1\n      dup2\n      dup2\n      mstore\n      0x20\n      add\n      dup4\n      dup4\n      dup1\n      dup3\n      dup5\n      calldatacopy\n      0x00\n      dup2\n      dup5\n      add\n      mstore\n      not(0x1f)\n      0x1f\n      dup3\n      add\n      and\n      swap1\n      pop\n      dup1\n      dup4\n      add\n      swap3\n      pop\n      pop\n      pop\n      pop\n      pop\n      pop\n      pop\n      dup2\n      mstore\n      pop\n        /* \"privacy/mixer/TornadoPool.sol\":3427:3432  notes */\n      0x06\n        /* \"privacy/mixer/TornadoPool.sol\":3427:3444  notes[commitment] */\n      0x00\n        /* \"privacy/mixer/TornadoPool.sol\":3433:3443  commitment */\n      dup7\n        /* \"privacy/mixer/TornadoPool.sol\":3427:3444  notes[commitment] */\n      dup2\n      mstore\n      0x20\n      add\n      swap1\n      dup2\n      mstore\n      0x20\n      add\n      0x00\n      keccak256\n        /* \"privacy/mixer/TornadoPool.sol\":3427:3629  notes[commitment] = Note({... */\n      0x00\n      dup3\n      add\n      mload\n      dup2\n      0x00\n      add\n      sstore\n      0x20\n      dup3\n      add\n      mload\n      dup2\n      0x01\n      add\n      exp(0x0100, 0x00)\n      dup2\n      sload\n      dup2\n      0xffffffff\n      mul\n      not\n      and\n      swap1\n      dup4\n      0xffffffff\n      and\n      mul\n      or\n      swap1\n      sstore\n      pop\n      0x40\n      dup3\n      add\n      mload\n      dup2\n      0x02\n      add\n      sstore\n      0x60\n      dup3\n      add\n      mload\n      dup2\n      0x03\n      add\n      swap1\n      dup2\n      tag_131\n      swap2\n      swap1\n      tag_132\n      jump\t// in\n    tag_131:\n      pop\n      swap1\n      pop\n      pop\n        /* \"privacy/mixer/TornadoPool.sol\":3675:3691  uint32 leafIndex */\n      0x00\n        /* \"privacy/mixer/TornadoPool.sol\":3694:3713  _insert(commitment) */\n      tag_133\n        /* \"privacy/mixer/TornadoPool.sol\":3702:3712  commitment */\n      dup6\n        /* \"privacy/mixer/TornadoPool.sol\":3694:3701  _insert */\n      tag_134\n        /* \"privacy/mixer/TornadoPool.sol\":3694:3713  _insert(commitment) */\n      jump\t// in\n    tag_133:\n        /* \"privacy/mixer/TornadoPool.sol\":3675:3713  uint32 leafIndex = _insert(commitment) */\n      swap1\n      pop\n        /* \"privacy/mixer/TornadoPool.sol\":3769:3782  denominations */\n      0x05\n        /* \"privacy/mixer/TornadoPool.sol\":3769:3796  denominations[denomination] */\n      0x00\n        /* \"privacy/mixer/TornadoPool.sol\":3783:3795  denomination */\n      dup6\n        /* \"privacy/mixer/TornadoPool.sol\":3769:3796  denominations[denomination] */\n      dup2\n      mstore\n      0x20\n      add\n      swap1\n      dup2\n      mstore\n      0x20\n      add\n      0x00\n      keccak256\n        /* \"privacy/mixer/TornadoPool.sol\":3769:3810  denominations[denomination].depositsCount */\n      0x01\n      add\n      0x00\n        /* \"privacy/mixer/TornadoPool.sol\":3769:3812  denominations[denomination].depositsCount++ */\n      dup2\n      sload\n      dup1\n      swap3\n      swap2\n      swap1\n      tag_135\n      swap1\n      tag_136\n      jump\t// in\n    tag_135:\n      swap2\n      swap1\n      pop\n      sstore\n      pop\n        /* \"privacy/mixer/TornadoPool.sol\":3874:3886  denomination */\n      dup4\n        /* \"privacy/mixer/TornadoPool.sol\":3849:3859  commitment */\n      dup6\n        /* \"privacy/mixer/TornadoPool.sol\":3828:3948  Deposit(... */\n      0xce80217ac10251ba83b6b6ce91da12bdd096aa99c37336c00bb01815ff8e77c1\n        /* \"privacy/mixer/TornadoPool.sol\":3900:3909  leafIndex */\n      dup4\n        /* \"privacy/mixer/TornadoPool.sol\":3923:3938  block.timestamp */\n      timestamp\n        /* \"privacy/mixer/TornadoPool.sol\":3828:3948  Deposit(... */\n      mload(0x40)\n      tag_137\n      swap3\n      swap2\n      swap1\n      tag_138\n      jump\t// in\n    tag_137:\n      mload(0x40)\n      dup1\n      swap2\n      sub\n      swap1\n      log3\n        /* \"privacy/mixer/TornadoPool.sol\":3085:3955  {... */\n      pop\n        /* \"@openzeppelin/contracts/utils/ReentrancyGuard.sol\":2542:2562  _nonReentrantAfter() */\n      tag_139\n        /* \"@openzeppelin/contracts/utils/ReentrancyGuard.sol\":2542:2560  _nonReentrantAfter */\n      tag_140\n        /* \"@openzeppelin/contracts/utils/ReentrancyGuard.sol\":2542:2562  _nonReentrantAfter() */\n      jump\t// in\n    tag_139:\n        /* \"privacy/mixer/TornadoPool.sol\":2930:3955  function deposit(... */\n      pop\n      pop\n      pop\n      pop\n      jump\t// out\n        /* \"privacy/mixer/TornadoPool.sol\":2073:2103  IMixerVerifier public verifier */\n    tag_39:\n      0x03\n      0x00\n      swap1\n      sload\n      swap1\n      0x0100\n      exp\n      swap1\n      div\n      0xffffffffffffffffffffffffffffffffffffffff\n      and\n      dup2\n      jump\t// out\n        /* \"privacy/mixer/TornadoPool.sol\":9475:9540  function unpause() external onlyOwner {... */\n    tag_43:\n        /* \"@openzeppelin/contracts/access/Ownable.sol\":1531:1544  _checkOwner() */\n      tag_142\n        /* \"@openzeppelin/contracts/access/Ownable.sol\":1531:1542  _checkOwner */\n      tag_143\n        /* \"@openzeppelin/contracts/access/Ownable.sol\":1531:1544  _checkOwner() */\n      jump\t// in\n    tag_142:\n        /* \"privacy/mixer/TornadoPool.sol\":9523:9533  _unpause() */\n      tag_145\n        /* \"privacy/mixer/TornadoPool.sol\":9523:9531  _unpause */\n      tag_146\n        /* \"privacy/mixer/TornadoPool.sol\":9523:9533  _unpause() */\n      jump\t// in\n    tag_145:\n        /* \"privacy/mixer/TornadoPool.sol\":9475:9540  function unpause() external onlyOwner {... */\n      jump\t// out\n        /* \"privacy/mixer/TornadoPool.sol\":2308:2340  uint256 public denominationCount */\n    tag_45:\n      sload(0x0b)\n      dup2\n      jump\t// out\n        /* \"@openzeppelin/contracts/utils/Pausable.sol\":1850:1934  function paused() public view virtual returns (bool) {... */\n    tag_49:\n        /* \"@openzeppelin/contracts/utils/Pausable.sol\":1897:1901  bool */\n      0x00\n        /* \"@openzeppelin/contracts/utils/Pausable.sol\":1920:1927  _paused */\n      0x02\n      0x00\n      swap1\n      sload\n      swap1\n      0x0100\n      exp\n      swap1\n      div\n      0xff\n      and\n        /* \"@openzeppelin/contracts/utils/Pausable.sol\":1913:1927  return _paused */\n      swap1\n      pop\n        /* \"@openzeppelin/contracts/utils/Pausable.sol\":1850:1934  function paused() public view virtual returns (bool) {... */\n      swap1\n      jump\t// out\n        /* \"privacy/mixer/TornadoPool.sol\":8548:8638  function getRoot() external view returns (bytes32) {... */\n    tag_52:\n        /* \"privacy/mixer/TornadoPool.sol\":8590:8597  bytes32 */\n      0x00\n        /* \"privacy/mixer/TornadoPool.sol\":8616:8626  merkleTree */\n      0x07\n        /* \"privacy/mixer/TornadoPool.sol\":8616:8631  merkleTree.root */\n      0x02\n      add\n      sload\n        /* \"privacy/mixer/TornadoPool.sol\":8609:8631  return merkleTree.root */\n      swap1\n      pop\n        /* \"privacy/mixer/TornadoPool.sol\":8548:8638  function getRoot() external view returns (bytes32) {... */\n      swap1\n      jump\t// out\n        /* \"privacy/mixer/TornadoPool.sol\":6064:6330  function disableDenomination(uint256 amount) external onlyOwner {... */\n    tag_58:\n        /* \"@openzeppelin/contracts/access/Ownable.sol\":1531:1544  _checkOwner() */\n      tag_150\n        /* \"@openzeppelin/contracts/access/Ownable.sol\":1531:1542  _checkOwner */\n      tag_143\n        /* \"@openzeppelin/contracts/access/Ownable.sol\":1531:1544  _checkOwner() */\n      jump\t// in\n    tag_150:\n        /* \"privacy/mixer/TornadoPool.sol\":6146:6159  denominations */\n      0x05\n        /* \"privacy/mixer/TornadoPool.sol\":6146:6167  denominations[amount] */\n      0x00\n        /* \"privacy/mixer/TornadoPool.sol\":6160:6166  amount */\n      dup3\n        /* \"privacy/mixer/TornadoPool.sol\":6146:6167  denominations[amount] */\n      dup2\n      mstore\n      0x20\n      add\n      swap1\n      dup2\n      mstore\n      0x20\n      add\n      0x00\n      keccak256\n        /* \"privacy/mixer/TornadoPool.sol\":6146:6175  denominations[amount].enabled */\n      0x02\n      add\n      0x00\n      swap1\n      sload\n      swap1\n      0x0100\n      exp\n      swap1\n      div\n      0xff\n      and\n        /* \"privacy/mixer/TornadoPool.sol\":6138:6204  require(denominations[amount].enabled, \"Denomination not enabled\") */\n      tag_152\n      jumpi\n      mload(0x40)\n      0x08c379a000000000000000000000000000000000000000000000000000000000\n      dup2\n      mstore\n      0x04\n      add\n      tag_153\n      swap1\n      tag_154\n      jump\t// in\n    tag_153:\n      mload(0x40)\n      dup1\n      swap2\n      sub\n      swap1\n      revert\n    tag_152:\n        /* \"privacy/mixer/TornadoPool.sol\":6246:6251  false */\n      0x00\n        /* \"privacy/mixer/TornadoPool.sol\":6214:6227  denominations */\n      0x05\n        /* \"privacy/mixer/TornadoPool.sol\":6214:6235  denominations[amount] */\n      0x00\n        /* \"privacy/mixer/TornadoPool.sol\":6228:6234  amount */\n      dup4\n        /* \"privacy/mixer/TornadoPool.sol\":6214:6235  denominations[amount] */\n      dup2\n      mstore\n      0x20\n      add\n      swap1\n      dup2\n      mstore\n      0x20\n      add\n      0x00\n      keccak256\n        /* \"privacy/mixer/TornadoPool.sol\":6214:6243  denominations[amount].enabled */\n      0x02\n      add\n      0x00\n        /* \"privacy/mixer/TornadoPool.sol\":6214:6251  denominations[amount].enabled = false */\n      0x0100\n      exp\n      dup2\n      sload\n      dup2\n      0xff\n      mul\n      not\n      and\n      swap1\n      dup4\n      iszero\n      iszero\n      mul\n      or\n      swap1\n      sstore\n      pop\n        /* \"privacy/mixer/TornadoPool.sol\":6261:6278  denominationCount */\n      0x0b\n      0x00\n        /* \"privacy/mixer/TornadoPool.sol\":6261:6280  denominationCount-- */\n      dup2\n      sload\n      dup1\n      swap3\n      swap2\n      swap1\n      tag_155\n      swap1\n      tag_156\n      jump\t// in\n    tag_155:\n      swap2\n      swap1\n      pop\n      sstore\n      pop\n        /* \"privacy/mixer/TornadoPool.sol\":6295:6323  DenominationDisabled(amount) */\n      0x92d6cd445c3824b8ee6f49f30e8df9c4676634c4e177fadc616918ee2af3ea64\n        /* \"privacy/mixer/TornadoPool.sol\":6316:6322  amount */\n      dup2\n        /* \"privacy/mixer/TornadoPool.sol\":6295:6323  DenominationDisabled(amount) */\n      mload(0x40)\n      tag_157\n      swap2\n      swap1\n      tag_47\n      jump\t// in\n    tag_157:\n      mload(0x40)\n      dup1\n      swap2\n      sub\n      swap1\n      log1\n        /* \"privacy/mixer/TornadoPool.sol\":6064:6330  function disableDenomination(uint256 amount) external onlyOwner {... */\n      pop\n      jump\t// out\n        /* \"privacy/mixer/TornadoPool.sol\":1969:2012  uint256 public constant MAX_FEE_PERCENT = 2 */\n    tag_60:\n        /* \"privacy/mixer/TornadoPool.sol\":2011:2012  2 */\n      0x02\n        /* \"privacy/mixer/TornadoPool.sol\":1969:2012  uint256 public constant MAX_FEE_PERCENT = 2 */\n      dup2\n      jump\t// out\n        /* \"@openzeppelin/contracts/access/Ownable.sol\":2293:2394  function renounceOwnership() public virtual onlyOwner {... */\n    tag_63:\n        /* \"@openzeppelin/contracts/access/Ownable.sol\":1531:1544  _checkOwner() */\n      tag_159\n        /* \"@openzeppelin/contracts/access/Ownable.sol\":1531:1542  _checkOwner */\n      tag_143\n        /* \"@openzeppelin/contracts/access/Ownable.sol\":1531:1544  _checkOwner() */\n      jump\t// in\n    tag_159:\n        /* \"@openzeppelin/contracts/access/Ownable.sol\":2357:2387  _transferOwnership(address(0)) */\n      tag_161\n        /* \"@openzeppelin/contracts/access/Ownable.sol\":2384:2385  0 */\n      0x00\n        /* \"@openzeppelin/contracts/access/Ownable.sol\":2357:2375  _transferOwnership */\n      tag_162\n        /* \"@openzeppelin/contracts/access/Ownable.sol\":2357:2387  _transferOwnership(address(0)) */\n      jump\t// in\n    tag_161:\n        /* \"@openzeppelin/contracts/access/Ownable.sol\":2293:2394  function renounceOwnership() public virtual onlyOwner {... */\n      jump\t// out\n        /* \"privacy/mixer/TornadoPool.sol\":9408:9469  function pause() external onlyOwner {... */\n    tag_65:\n        /* \"@openzeppelin/contracts/access/Ownable.sol\":1531:1544  _checkOwner() */\n      tag_164\n        /* \"@openzeppelin/contracts/access/Ownable.sol\":1531:1542  _checkOwner */\n      tag_143\n        /* \"@openzeppelin/contracts/access/Ownable.sol\":1531:1544  _checkOwner() */\n      jump\t// in\n    tag_164:\n        /* \"privacy/mixer/TornadoPool.sol\":9454:9462  _pause() */\n      tag_166\n        /* \"privacy/mixer/TornadoPool.sol\":9454:9460  _pause */\n      tag_167\n        /* \"privacy/mixer/TornadoPool.sol\":9454:9462  _pause() */\n      jump\t// in\n    tag_166:\n        /* \"privacy/mixer/TornadoPool.sol\":9408:9469  function pause() external onlyOwner {... */\n      jump\t// out\n        /* \"privacy/mixer/TornadoPool.sol\":2226:2263  mapping(bytes32 => Note) public notes */\n    tag_68:\n      mstore(0x20, 0x06)\n      dup1\n      0x00\n      mstore\n      keccak256(0x00, 0x40)\n      0x00\n      swap2\n      pop\n      swap1\n      pop\n      dup1\n      0x00\n      add\n      sload\n      swap1\n      dup1\n      0x01\n      add\n      0x00\n      swap1\n      sload\n      swap1\n      0x0100\n      exp\n      swap1\n      div\n      0xffffffff\n      and\n      swap1\n      dup1\n      0x02\n      add\n      sload\n      swap1\n      dup1\n      0x03\n      add\n      dup1\n      sload\n      tag_168\n      swap1\n      tag_169\n      jump\t// in\n    tag_168:\n      dup1\n      0x1f\n      add\n      0x20\n      dup1\n      swap2\n      div\n      mul\n      0x20\n      add\n      mload(0x40)\n      swap1\n      dup2\n      add\n      0x40\n      mstore\n      dup1\n      swap3\n      swap2\n      swap1\n      dup2\n      dup2\n      mstore\n      0x20\n      add\n      dup3\n      dup1\n      sload\n      tag_170\n      swap1\n      tag_169\n      jump\t// in\n    tag_170:\n      dup1\n      iszero\n      tag_171\n      jumpi\n      dup1\n      0x1f\n      lt\n      tag_172\n      jumpi\n      0x0100\n      dup1\n      dup4\n      sload\n      div\n      mul\n      dup4\n      mstore\n      swap2\n      0x20\n      add\n      swap2\n      jump(tag_171)\n    tag_172:\n      dup3\n      add\n      swap2\n      swap1\n      0x00\n      mstore\n      keccak256(0x00, 0x20)\n      swap1\n    tag_173:\n      dup2\n      sload\n      dup2\n      mstore\n      swap1\n      0x01\n      add\n      swap1\n      0x20\n      add\n      dup1\n      dup4\n      gt\n      tag_173\n      jumpi\n      dup3\n      swap1\n      sub\n      0x1f\n      and\n      dup3\n      add\n      swap2\n    tag_171:\n      pop\n      pop\n      pop\n      pop\n      pop\n      swap1\n      pop\n      dup5\n      jump\t// out\n        /* \"privacy/mixer/TornadoPool.sol\":4252:5449  function withdraw(... */\n    tag_74:\n        /* \"@openzeppelin/contracts/utils/ReentrancyGuard.sol\":2500:2521  _nonReentrantBefore() */\n      tag_175\n        /* \"@openzeppelin/contracts/utils/ReentrancyGuard.sol\":2500:2519  _nonReentrantBefore */\n      tag_112\n        /* \"@openzeppelin/contracts/utils/ReentrancyGuard.sol\":2500:2521  _nonReentrantBefore() */\n      jump\t// in\n    tag_175:\n        /* \"@openzeppelin/contracts/utils/Pausable.sol\":1474:1493  _requireNotPaused() */\n      tag_177\n        /* \"@openzeppelin/contracts/utils/Pausable.sol\":1474:1491  _requireNotPaused */\n      tag_115\n        /* \"@openzeppelin/contracts/utils/Pausable.sol\":1474:1493  _requireNotPaused() */\n      jump\t// in\n    tag_177:\n        /* \"privacy/mixer/TornadoPool.sol\":4528:4531  100 */\n      0x64\n        /* \"privacy/mixer/TornadoPool.sol\":2011:2012  2 */\n      0x02\n        /* \"privacy/mixer/TornadoPool.sol\":4495:4507  denomination */\n      dup3\n        /* \"privacy/mixer/TornadoPool.sol\":4495:4525  denomination * MAX_FEE_PERCENT */\n      tag_179\n      swap2\n      swap1\n      tag_180\n      jump\t// in\n    tag_179:\n        /* \"privacy/mixer/TornadoPool.sol\":4495:4531  denomination * MAX_FEE_PERCENT / 100 */\n      tag_181\n      swap2\n      swap1\n      tag_182\n      jump\t// in\n    tag_181:\n        /* \"privacy/mixer/TornadoPool.sol\":4488:4491  fee */\n      dup3\n        /* \"privacy/mixer/TornadoPool.sol\":4488:4531  fee <= denomination * MAX_FEE_PERCENT / 100 */\n      gt\n      iszero\n        /* \"privacy/mixer/TornadoPool.sol\":4480:4548  require(fee <= denomination * MAX_FEE_PERCENT / 100, \"Fee too high\") */\n      tag_183\n      jumpi\n      mload(0x40)\n      0x08c379a000000000000000000000000000000000000000000000000000000000\n      dup2\n      mstore\n      0x04\n      add\n      tag_184\n      swap1\n      tag_185\n      jump\t// in\n    tag_184:\n      mload(0x40)\n      dup1\n      swap2\n      sub\n      swap1\n      revert\n    tag_183:\n        /* \"privacy/mixer/TornadoPool.sol\":4563:4578  nullifierHashes */\n      0x04\n        /* \"privacy/mixer/TornadoPool.sol\":4563:4593  nullifierHashes[nullifierHash] */\n      0x00\n        /* \"privacy/mixer/TornadoPool.sol\":4579:4592  nullifierHash */\n      dup7\n        /* \"privacy/mixer/TornadoPool.sol\":4563:4593  nullifierHashes[nullifierHash] */\n      dup2\n      mstore\n      0x20\n      add\n      swap1\n      dup2\n      mstore\n      0x20\n      add\n      0x00\n      keccak256\n      0x00\n      swap1\n      sload\n      swap1\n      0x0100\n      exp\n      swap1\n      div\n      0xff\n      and\n        /* \"privacy/mixer/TornadoPool.sol\":4562:4593  !nullifierHashes[nullifierHash] */\n      iszero\n        /* \"privacy/mixer/TornadoPool.sol\":4554:4616  require(!nullifierHashes[nullifierHash], \"Note already spent\") */\n      tag_186\n      jumpi\n      mload(0x40)\n      0x08c379a000000000000000000000000000000000000000000000000000000000\n      dup2\n      mstore\n      0x04\n      add\n      tag_187\n      swap1\n      tag_188\n      jump\t// in\n    tag_187:\n      mload(0x40)\n      dup1\n      swap2\n      sub\n      swap1\n      revert\n    tag_186:\n        /* \"privacy/mixer/TornadoPool.sol\":4630:4643  denominations */\n      0x05\n        /* \"privacy/mixer/TornadoPool.sol\":4630:4657  denominations[denomination] */\n      0x00\n        /* \"privacy/mixer/TornadoPool.sol\":4644:4656  denomination */\n      dup3\n        /* \"privacy/mixer/TornadoPool.sol\":4630:4657  denominations[denomination] */\n      dup2\n      mstore\n      0x20\n      add\n      swap1\n      dup2\n      mstore\n      0x20\n      add\n      0x00\n      keccak256\n        /* \"privacy/mixer/TornadoPool.sol\":4630:4665  denominations[denomination].enabled */\n      0x02\n      add\n      0x00\n      swap1\n      sload\n      swap1\n      0x0100\n      exp\n      swap1\n      div\n      0xff\n      and\n        /* \"privacy/mixer/TornadoPool.sol\":4622:4690  require(denominations[denomination].enabled, \"Invalid denomination\") */\n      tag_189\n      jumpi\n      mload(0x40)\n      0x08c379a000000000000000000000000000000000000000000000000000000000\n      dup2\n      mstore\n      0x04\n      add\n      tag_190\n      swap1\n      tag_119\n      jump\t// in\n    tag_190:\n      mload(0x40)\n      dup1\n      swap2\n      sub\n      swap1\n      revert\n    tag_189:\n        /* \"privacy/mixer/TornadoPool.sol\":4742:4766  uint256[1] memory inputs */\n      tag_191\n      tag_192\n      jump\t// in\n    tag_191:\n        /* \"privacy/mixer/TornadoPool.sol\":4985:4997  denomination */\n      dup2\n        /* \"privacy/mixer/TornadoPool.sol\":4957:4965  2 ** 248 */\n      0x0100000000000000000000000000000000000000000000000000000000000000\n        /* \"privacy/mixer/TornadoPool.sol\":4950:4953  fee */\n      dup5\n        /* \"privacy/mixer/TornadoPool.sol\":4950:4966  fee * (2 ** 248) */\n      tag_193\n      swap2\n      swap1\n      tag_180\n      jump\t// in\n    tag_193:\n        /* \"privacy/mixer/TornadoPool.sol\":4922:4930  2 ** 208 */\n      0x010000000000000000000000000000000000000000000000000000\n        /* \"privacy/mixer/TornadoPool.sol\":4909:4916  relayer */\n      dup7\n        /* \"privacy/mixer/TornadoPool.sol\":4893:4918  uint256(uint160(relayer)) */\n      0xffffffffffffffffffffffffffffffffffffffff\n      and\n        /* \"privacy/mixer/TornadoPool.sol\":4893:4931  uint256(uint160(relayer)) * (2 ** 208) */\n      tag_194\n      swap2\n      swap1\n      tag_180\n      jump\t// in\n    tag_194:\n        /* \"privacy/mixer/TornadoPool.sol\":4865:4873  2 ** 160 */\n      0x010000000000000000000000000000000000000000\n        /* \"privacy/mixer/TornadoPool.sol\":4850:4859  recipient */\n      dup9\n        /* \"privacy/mixer/TornadoPool.sol\":4834:4861  uint256(uint160(recipient)) */\n      0xffffffffffffffffffffffffffffffffffffffff\n      and\n        /* \"privacy/mixer/TornadoPool.sol\":4834:4874  uint256(uint160(recipient)) * (2 ** 160) */\n      tag_195\n      swap2\n      swap1\n      tag_180\n      jump\t// in\n    tag_195:\n        /* \"privacy/mixer/TornadoPool.sol\":4800:4813  nullifierHash */\n      dup10\n        /* \"privacy/mixer/TornadoPool.sol\":4792:4814  uint256(nullifierHash) */\n      0x00\n      shr\n        /* \"privacy/mixer/TornadoPool.sol\":4784:4874  uint256(uint256(nullifierHash)) +... */\n      tag_196\n      swap2\n      swap1\n      tag_197\n      jump\t// in\n    tag_196:\n        /* \"privacy/mixer/TornadoPool.sol\":4784:4931  uint256(uint256(nullifierHash)) +... */\n      tag_198\n      swap2\n      swap1\n      tag_197\n      jump\t// in\n    tag_198:\n        /* \"privacy/mixer/TornadoPool.sol\":4784:4966  uint256(uint256(nullifierHash)) +... */\n      tag_199\n      swap2\n      swap1\n      tag_197\n      jump\t// in\n    tag_199:\n        /* \"privacy/mixer/TornadoPool.sol\":4784:4997  uint256(uint256(nullifierHash)) +... */\n      tag_200\n      swap2\n      swap1\n      tag_197\n      jump\t// in\n    tag_200:\n        /* \"privacy/mixer/TornadoPool.sol\":4772:4778  inputs */\n      dup2\n        /* \"privacy/mixer/TornadoPool.sol\":4779:4780  0 */\n      0x00\n        /* \"privacy/mixer/TornadoPool.sol\":4772:4781  inputs[0] */\n      0x01\n      dup2\n      lt\n      tag_201\n      jumpi\n      tag_202\n      tag_203\n      jump\t// in\n    tag_202:\n    tag_201:\n      0x20\n      mul\n      add\n        /* \"privacy/mixer/TornadoPool.sol\":4772:4997  inputs[0] = uint256(uint256(nullifierHash)) +... */\n      dup2\n      dup2\n      mstore\n      pop\n      pop\n        /* \"privacy/mixer/TornadoPool.sol\":5045:5053  verifier */\n      0x03\n      0x00\n      swap1\n      sload\n      swap1\n      0x0100\n      exp\n      swap1\n      div\n      0xffffffffffffffffffffffffffffffffffffffff\n      and\n        /* \"privacy/mixer/TornadoPool.sol\":5045:5065  verifier.verifyProof */\n      0xffffffffffffffffffffffffffffffffffffffff\n      and\n      0x1b81f829\n        /* \"privacy/mixer/TornadoPool.sol\":5066:5071  proof */\n      dup9\n        /* \"privacy/mixer/TornadoPool.sol\":5073:5079  inputs */\n      dup4\n        /* \"privacy/mixer/TornadoPool.sol\":5045:5080  verifier.verifyProof(proof, inputs) */\n      mload(0x40)\n      dup4\n      0xffffffff\n      and\n      0xe0\n      shl\n      dup2\n      mstore\n      0x04\n      add\n      tag_204\n      swap3\n      swap2\n      swap1\n      tag_205\n      jump\t// in\n    tag_204:\n      0x20\n      mload(0x40)\n      dup1\n      dup4\n      sub\n      dup2\n      dup7\n      gas\n      staticcall\n      iszero\n      dup1\n      iszero\n      tag_207\n      jumpi\n      returndatasize\n      0x00\n      dup1\n      returndatacopy\n      revert(0x00, returndatasize)\n    tag_207:\n      pop\n      pop\n      pop\n      pop\n      mload(0x40)\n      returndatasize\n      not(0x1f)\n      0x1f\n      dup3\n      add\n      and\n      dup3\n      add\n      dup1\n      0x40\n      mstore\n      pop\n      dup2\n      add\n      swap1\n      tag_208\n      swap2\n      swap1\n      tag_130\n      jump\t// in\n    tag_208:\n        /* \"privacy/mixer/TornadoPool.sol\":5028:5111  require(... */\n      tag_209\n      jumpi\n      mload(0x40)\n      0x08c379a000000000000000000000000000000000000000000000000000000000\n      dup2\n      mstore\n      0x04\n      add\n      tag_210\n      swap1\n      tag_211\n      jump\t// in\n    tag_210:\n      mload(0x40)\n      dup1\n      swap2\n      sub\n      swap1\n      revert\n    tag_209:\n        /* \"privacy/mixer/TornadoPool.sol\":5182:5186  true */\n      0x01\n        /* \"privacy/mixer/TornadoPool.sol\":5149:5164  nullifierHashes */\n      0x04\n        /* \"privacy/mixer/TornadoPool.sol\":5149:5179  nullifierHashes[nullifierHash] */\n      0x00\n        /* \"privacy/mixer/TornadoPool.sol\":5165:5178  nullifierHash */\n      dup9\n        /* \"privacy/mixer/TornadoPool.sol\":5149:5179  nullifierHashes[nullifierHash] */\n      dup2\n      mstore\n      0x20\n      add\n      swap1\n      dup2\n      mstore\n      0x20\n      add\n      0x00\n      keccak256\n      0x00\n        /* \"privacy/mixer/TornadoPool.sol\":5149:5186  nullifierHashes[nullifierHash] = true */\n      0x0100\n      exp\n      dup2\n      sload\n      dup2\n      0xff\n      mul\n      not\n      and\n      swap1\n      dup4\n      iszero\n      iszero\n      mul\n      or\n      swap1\n      sstore\n      pop\n        /* \"privacy/mixer/TornadoPool.sol\":5226:5227  0 */\n      0x00\n        /* \"privacy/mixer/TornadoPool.sol\":5220:5223  fee */\n      dup4\n        /* \"privacy/mixer/TornadoPool.sol\":5220:5227  fee > 0 */\n      gt\n        /* \"privacy/mixer/TornadoPool.sol\":5216:5274  if (fee > 0) {... */\n      iszero\n      tag_212\n      jumpi\n        /* \"privacy/mixer/TornadoPool.sol\":5239:5244  token */\n      0x02\n      0x01\n      swap1\n      sload\n      swap1\n      0x0100\n      exp\n      swap1\n      div\n      0xffffffffffffffffffffffffffffffffffffffff\n      and\n        /* \"privacy/mixer/TornadoPool.sol\":5239:5253  token.transfer */\n      0xffffffffffffffffffffffffffffffffffffffff\n      and\n      0xa9059cbb\n        /* \"privacy/mixer/TornadoPool.sol\":5254:5261  relayer */\n      dup6\n        /* \"privacy/mixer/TornadoPool.sol\":5263:5266  fee */\n      dup6\n        /* \"privacy/mixer/TornadoPool.sol\":5239:5267  token.transfer(relayer, fee) */\n      mload(0x40)\n      dup4\n      0xffffffff\n      and\n      0xe0\n      shl\n      dup2\n      mstore\n      0x04\n      add\n      tag_213\n      swap3\n      swap2\n      swap1\n      tag_214\n      jump\t// in\n    tag_213:\n      0x20\n      mload(0x40)\n      dup1\n      dup4\n      sub\n      dup2\n      0x00\n      dup8\n      gas\n      call\n      iszero\n      dup1\n      iszero\n      tag_216\n      jumpi\n      returndatasize\n      0x00\n      dup1\n      returndatacopy\n      revert(0x00, returndatasize)\n    tag_216:\n      pop\n      pop\n      pop\n      pop\n      mload(0x40)\n      returndatasize\n      not(0x1f)\n      0x1f\n      dup3\n      add\n      and\n      dup3\n      add\n      dup1\n      0x40\n      mstore\n      pop\n      dup2\n      add\n      swap1\n      tag_217\n      swap2\n      swap1\n      tag_130\n      jump\t// in\n    tag_217:\n      pop\n        /* \"privacy/mixer/TornadoPool.sol\":5216:5274  if (fee > 0) {... */\n    tag_212:\n        /* \"privacy/mixer/TornadoPool.sol\":5279:5284  token */\n      0x02\n      0x01\n      swap1\n      sload\n      swap1\n      0x0100\n      exp\n      swap1\n      div\n      0xffffffffffffffffffffffffffffffffffffffff\n      and\n        /* \"privacy/mixer/TornadoPool.sol\":5279:5293  token.transfer */\n      0xffffffffffffffffffffffffffffffffffffffff\n      and\n      0xa9059cbb\n        /* \"privacy/mixer/TornadoPool.sol\":5294:5303  recipient */\n      dup7\n        /* \"privacy/mixer/TornadoPool.sol\":5320:5323  fee */\n      dup6\n        /* \"privacy/mixer/TornadoPool.sol\":5305:5317  denomination */\n      dup6\n        /* \"privacy/mixer/TornadoPool.sol\":5305:5323  denomination - fee */\n      tag_218\n      swap2\n      swap1\n      tag_219\n      jump\t// in\n    tag_218:\n        /* \"privacy/mixer/TornadoPool.sol\":5279:5324  token.transfer(recipient, denomination - fee) */\n      mload(0x40)\n      dup4\n      0xffffffff\n      and\n      0xe0\n      shl\n      dup2\n      mstore\n      0x04\n      add\n      tag_220\n      swap3\n      swap2\n      swap1\n      tag_214\n      jump\t// in\n    tag_220:\n      0x20\n      mload(0x40)\n      dup1\n      dup4\n      sub\n      dup2\n      0x00\n      dup8\n      gas\n      call\n      iszero\n      dup1\n      iszero\n      tag_222\n      jumpi\n      returndatasize\n      0x00\n      dup1\n      returndatacopy\n      revert(0x00, returndatasize)\n    tag_222:\n      pop\n      pop\n      pop\n      pop\n      mload(0x40)\n      returndatasize\n      not(0x1f)\n      0x1f\n      dup3\n      add\n      and\n      dup3\n      add\n      dup1\n      0x40\n      mstore\n      pop\n      dup2\n      add\n      swap1\n      tag_223\n      swap2\n      swap1\n      tag_130\n      jump\t// in\n    tag_223:\n      pop\n        /* \"privacy/mixer/TornadoPool.sol\":5398:5405  relayer */\n      dup4\n        /* \"privacy/mixer/TornadoPool.sol\":5336:5446  Withdrawal(... */\n      0xffffffffffffffffffffffffffffffffffffffff\n      and\n        /* \"privacy/mixer/TornadoPool.sol\":5375:5388  nullifierHash */\n      dup7\n        /* \"privacy/mixer/TornadoPool.sol\":5356:5365  recipient */\n      dup7\n        /* \"privacy/mixer/TornadoPool.sol\":5336:5446  Withdrawal(... */\n      0xffffffffffffffffffffffffffffffffffffffff\n      and\n      0x6d7aac54bd3d1c91db3b1fd7b8d6cb45324ad6b5e373c0f0ea4d7b2606c4c2c8\n        /* \"privacy/mixer/TornadoPool.sol\":5415:5427  denomination */\n      dup6\n        /* \"privacy/mixer/TornadoPool.sol\":5437:5440  fee */\n      dup8\n        /* \"privacy/mixer/TornadoPool.sol\":5336:5446  Withdrawal(... */\n      mload(0x40)\n      tag_224\n      swap3\n      swap2\n      swap1\n      tag_225\n      jump\t// in\n    tag_224:\n      mload(0x40)\n      dup1\n      swap2\n      sub\n      swap1\n      log4\n        /* \"privacy/mixer/TornadoPool.sol\":4453:5449  {... */\n      pop\n        /* \"@openzeppelin/contracts/utils/ReentrancyGuard.sol\":2542:2562  _nonReentrantAfter() */\n      tag_226\n        /* \"@openzeppelin/contracts/utils/ReentrancyGuard.sol\":2542:2560  _nonReentrantAfter */\n      tag_140\n        /* \"@openzeppelin/contracts/utils/ReentrancyGuard.sol\":2542:2562  _nonReentrantAfter() */\n      jump\t// in\n    tag_226:\n        /* \"privacy/mixer/TornadoPool.sol\":4252:5449  function withdraw(... */\n      pop\n      pop\n      pop\n      pop\n      pop\n      pop\n      jump\t// out\n        /* \"@openzeppelin/contracts/access/Ownable.sol\":1638:1723  function owner() public view virtual returns (address) {... */\n    tag_76:\n        /* \"@openzeppelin/contracts/access/Ownable.sol\":1684:1691  address */\n      0x00\n        /* \"@openzeppelin/contracts/access/Ownable.sol\":1710:1716  _owner */\n      dup1\n      0x00\n      swap1\n      sload\n      swap1\n      0x0100\n      exp\n      swap1\n      div\n      0xffffffffffffffffffffffffffffffffffffffff\n      and\n        /* \"@openzeppelin/contracts/access/Ownable.sol\":1703:1716  return _owner */\n      swap1\n      pop\n        /* \"@openzeppelin/contracts/access/Ownable.sol\":1638:1723  function owner() public view virtual returns (address) {... */\n      swap1\n      jump\t// out\n        /* \"privacy/mixer/TornadoPool.sol\":2274:2302  MerkleTree public merkleTree */\n    tag_80:\n      0x07\n      dup1\n      0x01\n      add\n      sload\n      swap1\n      dup1\n      0x02\n      add\n      sload\n      swap1\n      pop\n      dup3\n      jump\t// out\n        /* \"privacy/mixer/TornadoPool.sol\":5563:5965  function addDenomination(uint256 amount) external onlyOwner {... */\n    tag_85:\n        /* \"@openzeppelin/contracts/access/Ownable.sol\":1531:1544  _checkOwner() */\n      tag_229\n        /* \"@openzeppelin/contracts/access/Ownable.sol\":1531:1542  _checkOwner */\n      tag_143\n        /* \"@openzeppelin/contracts/access/Ownable.sol\":1531:1544  _checkOwner() */\n      jump\t// in\n    tag_229:\n        /* \"privacy/mixer/TornadoPool.sol\":5650:5651  0 */\n      0x00\n        /* \"privacy/mixer/TornadoPool.sol\":5641:5647  amount */\n      dup2\n        /* \"privacy/mixer/TornadoPool.sol\":5641:5651  amount > 0 */\n      gt\n        /* \"privacy/mixer/TornadoPool.sol\":5633:5670  require(amount > 0, \"Invalid amount\") */\n      tag_231\n      jumpi\n      mload(0x40)\n      0x08c379a000000000000000000000000000000000000000000000000000000000\n      dup2\n      mstore\n      0x04\n      add\n      tag_232\n      swap1\n      tag_233\n      jump\t// in\n    tag_232:\n      mload(0x40)\n      dup1\n      swap2\n      sub\n      swap1\n      revert\n    tag_231:\n        /* \"privacy/mixer/TornadoPool.sol\":5689:5702  denominations */\n      0x05\n        /* \"privacy/mixer/TornadoPool.sol\":5689:5710  denominations[amount] */\n      0x00\n        /* \"privacy/mixer/TornadoPool.sol\":5703:5709  amount */\n      dup3\n        /* \"privacy/mixer/TornadoPool.sol\":5689:5710  denominations[amount] */\n      dup2\n      mstore\n      0x20\n      add\n      swap1\n      dup2\n      mstore\n      0x20\n      add\n      0x00\n      keccak256\n        /* \"privacy/mixer/TornadoPool.sol\":5689:5718  denominations[amount].enabled */\n      0x02\n      add\n      0x00\n      swap1\n      sload\n      swap1\n      0x0100\n      exp\n      swap1\n      div\n      0xff\n      and\n        /* \"privacy/mixer/TornadoPool.sol\":5688:5718  !denominations[amount].enabled */\n      iszero\n        /* \"privacy/mixer/TornadoPool.sol\":5680:5742  require(!denominations[amount].enabled, \"Denomination exists\") */\n      tag_234\n      jumpi\n      mload(0x40)\n      0x08c379a000000000000000000000000000000000000000000000000000000000\n      dup2\n      mstore\n      0x04\n      add\n      tag_235\n      swap1\n      tag_236\n      jump\t// in\n    tag_235:\n      mload(0x40)\n      dup1\n      swap2\n      sub\n      swap1\n      revert\n    tag_234:\n        /* \"privacy/mixer/TornadoPool.sol\":5777:5886  Denomination({... */\n      mload(0x40)\n      dup1\n      0x60\n      add\n      0x40\n      mstore\n      dup1\n        /* \"privacy/mixer/TornadoPool.sol\":5812:5818  amount */\n      dup3\n        /* \"privacy/mixer/TornadoPool.sol\":5777:5886  Denomination({... */\n      dup2\n      mstore\n      0x20\n      add\n        /* \"privacy/mixer/TornadoPool.sol\":5847:5848  0 */\n      0x00\n        /* \"privacy/mixer/TornadoPool.sol\":5777:5886  Denomination({... */\n      dup2\n      mstore\n      0x20\n      add\n        /* \"privacy/mixer/TornadoPool.sol\":5871:5875  true */\n      0x01\n        /* \"privacy/mixer/TornadoPool.sol\":5777:5886  Denomination({... */\n      iszero\n      iszero\n      dup2\n      mstore\n      pop\n        /* \"privacy/mixer/TornadoPool.sol\":5753:5766  denominations */\n      0x05\n        /* \"privacy/mixer/TornadoPool.sol\":5753:5774  denominations[amount] */\n      0x00\n        /* \"privacy/mixer/TornadoPool.sol\":5767:5773  amount */\n      dup4\n        /* \"privacy/mixer/TornadoPool.sol\":5753:5774  denominations[amount] */\n      dup2\n      mstore\n      0x20\n      add\n      swap1\n      dup2\n      mstore\n      0x20\n      add\n      0x00\n      keccak256\n        /* \"privacy/mixer/TornadoPool.sol\":5753:5886  denominations[amount] = Denomination({... */\n      0x00\n      dup3\n      add\n      mload\n      dup2\n      0x00\n      add\n      sstore\n      0x20\n      dup3\n      add\n      mload\n      dup2\n      0x01\n      add\n      sstore\n      0x40\n      dup3\n      add\n      mload\n      dup2\n      0x02\n      add\n      exp(0x0100, 0x00)\n      dup2\n      sload\n      dup2\n      0xff\n      mul\n      not\n      and\n      swap1\n      dup4\n      iszero\n      iszero\n      mul\n      or\n      swap1\n      sstore\n      pop\n      swap1\n      pop\n      pop\n        /* \"privacy/mixer/TornadoPool.sol\":5897:5914  denominationCount */\n      0x0b\n      0x00\n        /* \"privacy/mixer/TornadoPool.sol\":5897:5916  denominationCount++ */\n      dup2\n      sload\n      dup1\n      swap3\n      swap2\n      swap1\n      tag_237\n      swap1\n      tag_136\n      jump\t// in\n    tag_237:\n      swap2\n      swap1\n      pop\n      sstore\n      pop\n        /* \"privacy/mixer/TornadoPool.sol\":5931:5958  DenominationEnabled(amount) */\n      0x8a5735e0baf05ee5a04a6dd24654f14b2f442d7fc7321c0dc098b8e338bc0408\n        /* \"privacy/mixer/TornadoPool.sol\":5951:5957  amount */\n      dup2\n        /* \"privacy/mixer/TornadoPool.sol\":5931:5958  DenominationEnabled(amount) */\n      mload(0x40)\n      tag_238\n      swap2\n      swap1\n      tag_47\n      jump\t// in\n    tag_238:\n      mload(0x40)\n      dup1\n      swap2\n      sub\n      swap1\n      log1\n        /* \"privacy/mixer/TornadoPool.sol\":5563:5965  function addDenomination(uint256 amount) external onlyOwner {... */\n      pop\n      jump\t// out\n        /* \"privacy/mixer/TornadoPool.sol\":8727:9375  function getPath(uint256 index) external view returns (bytes32[] memory) {... */\n    tag_88:\n        /* \"privacy/mixer/TornadoPool.sol\":8782:8798  bytes32[] memory */\n      0x60\n        /* \"privacy/mixer/TornadoPool.sol\":8826:8836  merkleTree */\n      0x07\n        /* \"privacy/mixer/TornadoPool.sol\":8826:8846  merkleTree.nextIndex */\n      0x01\n      add\n      sload\n        /* \"privacy/mixer/TornadoPool.sol\":8818:8823  index */\n      dup3\n        /* \"privacy/mixer/TornadoPool.sol\":8818:8846  index < merkleTree.nextIndex */\n      lt\n        /* \"privacy/mixer/TornadoPool.sol\":8810:8870  require(index < merkleTree.nextIndex, \"Index out of bounds\") */\n      tag_240\n      jumpi\n      mload(0x40)\n      0x08c379a000000000000000000000000000000000000000000000000000000000\n      dup2\n      mstore\n      0x04\n      add\n      tag_241\n      swap1\n      tag_242\n      jump\t// in\n    tag_241:\n      mload(0x40)\n      dup1\n      swap2\n      sub\n      swap1\n      revert\n    tag_240:\n        /* \"privacy/mixer/TornadoPool.sol\":8881:8902  bytes32[] memory path */\n      0x00\n        /* \"privacy/mixer/TornadoPool.sol\":1890:1892  20 */\n      0x14\n        /* \"privacy/mixer/TornadoPool.sol\":8905:8938  new bytes32[](MERKLE_TREE_HEIGHT) */\n      0xffffffffffffffff\n      dup2\n      gt\n      iszero\n      tag_243\n      jumpi\n      tag_244\n      tag_245\n      jump\t// in\n    tag_244:\n    tag_243:\n      mload(0x40)\n      swap1\n      dup1\n      dup3\n      mstore\n      dup1\n      0x20\n      mul\n      0x20\n      add\n      dup3\n      add\n      0x40\n      mstore\n      dup1\n      iszero\n      tag_246\n      jumpi\n      dup2\n      0x20\n      add\n      0x20\n      dup3\n      mul\n      dup1\n      calldatasize\n      dup4\n      calldatacopy\n      dup1\n      dup3\n      add\n      swap2\n      pop\n      pop\n      swap1\n      pop\n    tag_246:\n      pop\n        /* \"privacy/mixer/TornadoPool.sol\":8881:8938  bytes32[] memory path = new bytes32[](MERKLE_TREE_HEIGHT) */\n      swap1\n      pop\n        /* \"privacy/mixer/TornadoPool.sol\":8948:8968  uint256 currentIndex */\n      0x00\n        /* \"privacy/mixer/TornadoPool.sol\":8971:8976  index */\n      dup4\n        /* \"privacy/mixer/TornadoPool.sol\":8948:8976  uint256 currentIndex = index */\n      swap1\n      pop\n        /* \"privacy/mixer/TornadoPool.sol\":8992:9001  uint256 i */\n      0x00\n        /* \"privacy/mixer/TornadoPool.sol\":8987:9347  for (uint256 i = 0; i < MERKLE_TREE_HEIGHT; i++) {... */\n    tag_247:\n        /* \"privacy/mixer/TornadoPool.sol\":1890:1892  20 */\n      0x14\n        /* \"privacy/mixer/TornadoPool.sol\":9007:9008  i */\n      dup2\n        /* \"privacy/mixer/TornadoPool.sol\":9007:9029  i < MERKLE_TREE_HEIGHT */\n      lt\n        /* \"privacy/mixer/TornadoPool.sol\":8987:9347  for (uint256 i = 0; i < MERKLE_TREE_HEIGHT; i++) {... */\n      iszero\n      tag_248\n      jumpi\n        /* \"privacy/mixer/TornadoPool.sol\":9050:9070  uint256 siblingIndex */\n      0x00\n        /* \"privacy/mixer/TornadoPool.sol\":9108:9109  0 */\n      dup1\n        /* \"privacy/mixer/TornadoPool.sol\":9103:9104  2 */\n      0x02\n        /* \"privacy/mixer/TornadoPool.sol\":9088:9100  currentIndex */\n      dup5\n        /* \"privacy/mixer/TornadoPool.sol\":9088:9104  currentIndex % 2 */\n      tag_250\n      swap2\n      swap1\n      tag_251\n      jump\t// in\n    tag_250:\n        /* \"privacy/mixer/TornadoPool.sol\":9088:9109  currentIndex % 2 == 0 */\n      sub\n        /* \"privacy/mixer/TornadoPool.sol\":9084:9245  if (currentIndex % 2 == 0) {... */\n      tag_252\n      jumpi\n        /* \"privacy/mixer/TornadoPool.sol\":9159:9160  1 */\n      0x01\n        /* \"privacy/mixer/TornadoPool.sol\":9144:9156  currentIndex */\n      dup4\n        /* \"privacy/mixer/TornadoPool.sol\":9144:9160  currentIndex + 1 */\n      tag_253\n      swap2\n      swap1\n      tag_197\n      jump\t// in\n    tag_253:\n        /* \"privacy/mixer/TornadoPool.sol\":9129:9160  siblingIndex = currentIndex + 1 */\n      swap1\n      pop\n        /* \"privacy/mixer/TornadoPool.sol\":9084:9245  if (currentIndex % 2 == 0) {... */\n      jump(tag_254)\n    tag_252:\n        /* \"privacy/mixer/TornadoPool.sol\":9229:9230  1 */\n      0x01\n        /* \"privacy/mixer/TornadoPool.sol\":9214:9226  currentIndex */\n      dup4\n        /* \"privacy/mixer/TornadoPool.sol\":9214:9230  currentIndex - 1 */\n      tag_255\n      swap2\n      swap1\n      tag_219\n      jump\t// in\n    tag_255:\n        /* \"privacy/mixer/TornadoPool.sol\":9199:9230  siblingIndex = currentIndex - 1 */\n      swap1\n      pop\n        /* \"privacy/mixer/TornadoPool.sol\":9084:9245  if (currentIndex % 2 == 0) {... */\n    tag_254:\n        /* \"privacy/mixer/TornadoPool.sol\":9269:9279  merkleTree */\n      0x07\n        /* \"privacy/mixer/TornadoPool.sol\":9269:9288  merkleTree.branches */\n      0x03\n      add\n        /* \"privacy/mixer/TornadoPool.sol\":9269:9302  merkleTree.branches[siblingIndex] */\n      0x00\n        /* \"privacy/mixer/TornadoPool.sol\":9289:9301  siblingIndex */\n      dup3\n        /* \"privacy/mixer/TornadoPool.sol\":9269:9302  merkleTree.branches[siblingIndex] */\n      dup2\n      mstore\n      0x20\n      add\n      swap1\n      dup2\n      mstore\n      0x20\n      add\n      0x00\n      keccak256\n        /* \"privacy/mixer/TornadoPool.sol\":9269:9305  merkleTree.branches[siblingIndex][i] */\n      0x00\n        /* \"privacy/mixer/TornadoPool.sol\":9303:9304  i */\n      dup4\n        /* \"privacy/mixer/TornadoPool.sol\":9269:9305  merkleTree.branches[siblingIndex][i] */\n      dup2\n      mstore\n      0x20\n      add\n      swap1\n      dup2\n      mstore\n      0x20\n      add\n      0x00\n      keccak256\n      sload\n        /* \"privacy/mixer/TornadoPool.sol\":9259:9263  path */\n      dup5\n        /* \"privacy/mixer/TornadoPool.sol\":9264:9265  i */\n      dup4\n        /* \"privacy/mixer/TornadoPool.sol\":9259:9266  path[i] */\n      dup2\n      mload\n      dup2\n      lt\n      tag_256\n      jumpi\n      tag_257\n      tag_203\n      jump\t// in\n    tag_257:\n    tag_256:\n      0x20\n      mul\n      0x20\n      add\n      add\n        /* \"privacy/mixer/TornadoPool.sol\":9259:9305  path[i] = merkleTree.branches[siblingIndex][i] */\n      dup2\n      dup2\n      mstore\n      pop\n      pop\n        /* \"privacy/mixer/TornadoPool.sol\":9335:9336  2 */\n      0x02\n        /* \"privacy/mixer/TornadoPool.sol\":9319:9336  currentIndex /= 2 */\n      dup4\n      tag_258\n      swap2\n      swap1\n      tag_182\n      jump\t// in\n    tag_258:\n      swap3\n      pop\n        /* \"privacy/mixer/TornadoPool.sol\":9036:9347  {... */\n      pop\n        /* \"privacy/mixer/TornadoPool.sol\":9031:9034  i++ */\n      dup1\n      dup1\n      0x01\n      add\n      swap2\n      pop\n      pop\n        /* \"privacy/mixer/TornadoPool.sol\":8987:9347  for (uint256 i = 0; i < MERKLE_TREE_HEIGHT; i++) {... */\n      jump(tag_247)\n    tag_248:\n      pop\n        /* \"privacy/mixer/TornadoPool.sol\":9364:9368  path */\n      dup2\n        /* \"privacy/mixer/TornadoPool.sol\":9357:9368  return path */\n      swap3\n      pop\n      pop\n      pop\n        /* \"privacy/mixer/TornadoPool.sol\":8727:9375  function getPath(uint256 index) external view returns (bytes32[] memory) {... */\n      swap2\n      swap1\n      pop\n      jump\t// out\n        /* \"privacy/mixer/TornadoPool.sol\":1898:1963  uint256 public constant MAX_DEPOSIT_COUNT = 2**MERKLE_TREE_HEIGHT */\n    tag_92:\n        /* \"privacy/mixer/TornadoPool.sol\":1890:1892  20 */\n      0x14\n        /* \"privacy/mixer/TornadoPool.sol\":1942:1943  2 */\n      0x02\n        /* \"privacy/mixer/TornadoPool.sol\":1942:1963  2**MERKLE_TREE_HEIGHT */\n      tag_259\n      swap2\n      swap1\n      tag_121\n      jump\t// in\n    tag_259:\n        /* \"privacy/mixer/TornadoPool.sol\":1898:1963  uint256 public constant MAX_DEPOSIT_COUNT = 2**MERKLE_TREE_HEIGHT */\n      dup2\n      jump\t// out\n        /* \"@openzeppelin/contracts/access/Ownable.sol\":2543:2758  function transferOwnership(address newOwner) public virtual onlyOwner {... */\n    tag_97:\n        /* \"@openzeppelin/contracts/access/Ownable.sol\":1531:1544  _checkOwner() */\n      tag_261\n        /* \"@openzeppelin/contracts/access/Ownable.sol\":1531:1542  _checkOwner */\n      tag_143\n        /* \"@openzeppelin/contracts/access/Ownable.sol\":1531:1544  _checkOwner() */\n      jump\t// in\n    tag_261:\n        /* \"@openzeppelin/contracts/access/Ownable.sol\":2647:2648  0 */\n      0x00\n        /* \"@openzeppelin/contracts/access/Ownable.sol\":2627:2649  newOwner == address(0) */\n      0xffffffffffffffffffffffffffffffffffffffff\n      and\n        /* \"@openzeppelin/contracts/access/Ownable.sol\":2627:2635  newOwner */\n      dup2\n        /* \"@openzeppelin/contracts/access/Ownable.sol\":2627:2649  newOwner == address(0) */\n      0xffffffffffffffffffffffffffffffffffffffff\n      and\n      sub\n        /* \"@openzeppelin/contracts/access/Ownable.sol\":2623:2714  if (newOwner == address(0)) {... */\n      tag_263\n      jumpi\n        /* \"@openzeppelin/contracts/access/Ownable.sol\":2700:2701  0 */\n      0x00\n        /* \"@openzeppelin/contracts/access/Ownable.sol\":2672:2703  OwnableInvalidOwner(address(0)) */\n      mload(0x40)\n      0x1e4fbdf700000000000000000000000000000000000000000000000000000000\n      dup2\n      mstore\n      0x04\n      add\n      tag_264\n      swap2\n      swap1\n      tag_78\n      jump\t// in\n    tag_264:\n      mload(0x40)\n      dup1\n      swap2\n      sub\n      swap1\n      revert\n        /* \"@openzeppelin/contracts/access/Ownable.sol\":2623:2714  if (newOwner == address(0)) {... */\n    tag_263:\n        /* \"@openzeppelin/contracts/access/Ownable.sol\":2723:2751  _transferOwnership(newOwner) */\n      tag_265\n        /* \"@openzeppelin/contracts/access/Ownable.sol\":2742:2750  newOwner */\n      dup2\n        /* \"@openzeppelin/contracts/access/Ownable.sol\":2723:2741  _transferOwnership */\n      tag_162\n        /* \"@openzeppelin/contracts/access/Ownable.sol\":2723:2751  _transferOwnership(newOwner) */\n      jump\t// in\n    tag_265:\n        /* \"@openzeppelin/contracts/access/Ownable.sol\":2543:2758  function transferOwnership(address newOwner) public virtual onlyOwner {... */\n      pop\n      jump\t// out\n        /* \"privacy/mixer/TornadoPool.sol\":2167:2220  mapping(uint256 => Denomination) public denominations */\n    tag_100:\n      mstore(0x20, 0x05)\n      dup1\n      0x00\n      mstore\n      keccak256(0x00, 0x40)\n      0x00\n      swap2\n      pop\n      swap1\n      pop\n      dup1\n      0x00\n      add\n      sload\n      swap1\n      dup1\n      0x01\n      add\n      sload\n      swap1\n      dup1\n      0x02\n      add\n      0x00\n      swap1\n      sload\n      swap1\n      0x0100\n      exp\n      swap1\n      div\n      0xff\n      and\n      swap1\n      pop\n      dup4\n      jump\t// out\n        /* \"privacy/mixer/TornadoPool.sol\":2048:2067  IERC20 public token */\n    tag_104:\n      0x02\n      0x01\n      swap1\n      sload\n      swap1\n      0x0100\n      exp\n      swap1\n      div\n      0xffffffffffffffffffffffffffffffffffffffff\n      and\n      dup2\n      jump\t// out\n        /* \"privacy/mixer/TornadoPool.sol\":1845:1892  uint256 public constant MERKLE_TREE_HEIGHT = 20 */\n    tag_108:\n        /* \"privacy/mixer/TornadoPool.sol\":1890:1892  20 */\n      0x14\n        /* \"privacy/mixer/TornadoPool.sol\":1845:1892  uint256 public constant MERKLE_TREE_HEIGHT = 20 */\n      dup2\n      jump\t// out\n        /* \"@openzeppelin/contracts/utils/ReentrancyGuard.sol\":2575:2882  function _nonReentrantBefore() private {... */\n    tag_112:\n        /* \"@openzeppelin/contracts/utils/ReentrancyGuard.sol\":1899:1900  2 */\n      0x02\n        /* \"@openzeppelin/contracts/utils/ReentrancyGuard.sol\":2702:2709  _status */\n      sload(0x01)\n        /* \"@openzeppelin/contracts/utils/ReentrancyGuard.sol\":2702:2720  _status == ENTERED */\n      sub\n        /* \"@openzeppelin/contracts/utils/ReentrancyGuard.sol\":2698:2784  if (_status == ENTERED) {... */\n      tag_267\n      jumpi\n        /* \"@openzeppelin/contracts/utils/ReentrancyGuard.sol\":2743:2773  ReentrancyGuardReentrantCall() */\n      mload(0x40)\n      0x3ee5aeb500000000000000000000000000000000000000000000000000000000\n      dup2\n      mstore\n      0x04\n      add\n      mload(0x40)\n      dup1\n      swap2\n      sub\n      swap1\n      revert\n        /* \"@openzeppelin/contracts/utils/ReentrancyGuard.sol\":2698:2784  if (_status == ENTERED) {... */\n    tag_267:\n        /* \"@openzeppelin/contracts/utils/ReentrancyGuard.sol\":1899:1900  2 */\n      0x02\n        /* \"@openzeppelin/contracts/utils/ReentrancyGuard.sol\":2858:2865  _status */\n      0x01\n        /* \"@openzeppelin/contracts/utils/ReentrancyGuard.sol\":2858:2875  _status = ENTERED */\n      dup2\n      swap1\n      sstore\n      pop\n        /* \"@openzeppelin/contracts/utils/ReentrancyGuard.sol\":2575:2882  function _nonReentrantBefore() private {... */\n      jump\t// out\n        /* \"@openzeppelin/contracts/utils/Pausable.sol\":2002:2130  function _requireNotPaused() internal view virtual {... */\n    tag_115:\n        /* \"@openzeppelin/contracts/utils/Pausable.sol\":2067:2075  paused() */\n      tag_269\n        /* \"@openzeppelin/contracts/utils/Pausable.sol\":2067:2073  paused */\n      tag_49\n        /* \"@openzeppelin/contracts/utils/Pausable.sol\":2067:2075  paused() */\n      jump\t// in\n    tag_269:\n        /* \"@openzeppelin/contracts/utils/Pausable.sol\":2063:2124  if (paused()) {... */\n      iszero\n      tag_270\n      jumpi\n        /* \"@openzeppelin/contracts/utils/Pausable.sol\":2098:2113  EnforcedPause() */\n      mload(0x40)\n      0xd93c066500000000000000000000000000000000000000000000000000000000\n      dup2\n      mstore\n      0x04\n      add\n      mload(0x40)\n      dup1\n      swap2\n      sub\n      swap1\n      revert\n        /* \"@openzeppelin/contracts/utils/Pausable.sol\":2063:2124  if (paused()) {... */\n    tag_270:\n        /* \"@openzeppelin/contracts/utils/Pausable.sol\":2002:2130  function _requireNotPaused() internal view virtual {... */\n      jump\t// out\n        /* \"privacy/mixer/TornadoPool.sol\":6472:7926  function _insert(bytes32 commitment) internal returns (uint32) {... */\n    tag_134:\n        /* \"privacy/mixer/TornadoPool.sol\":6527:6533  uint32 */\n      0x00\n        /* \"privacy/mixer/TornadoPool.sol\":6545:6564  uint32 currentIndex */\n      dup1\n        /* \"privacy/mixer/TornadoPool.sol\":6574:6584  merkleTree */\n      0x07\n        /* \"privacy/mixer/TornadoPool.sol\":6574:6594  merkleTree.nextIndex */\n      0x01\n      add\n      sload\n        /* \"privacy/mixer/TornadoPool.sol\":6545:6595  uint32 currentIndex = uint32(merkleTree.nextIndex) */\n      swap1\n      pop\n        /* \"privacy/mixer/TornadoPool.sol\":1890:1892  20 */\n      0x14\n        /* \"privacy/mixer/TornadoPool.sol\":1942:1943  2 */\n      0x02\n        /* \"privacy/mixer/TornadoPool.sol\":1942:1963  2**MERKLE_TREE_HEIGHT */\n      tag_272\n      swap2\n      swap1\n      tag_121\n      jump\t// in\n    tag_272:\n        /* \"privacy/mixer/TornadoPool.sol\":6613:6625  currentIndex */\n      dup2\n        /* \"privacy/mixer/TornadoPool.sol\":6613:6645  currentIndex < MAX_DEPOSIT_COUNT */\n      0xffffffff\n      and\n      lt\n        /* \"privacy/mixer/TornadoPool.sol\":6605:6659  require(currentIndex < MAX_DEPOSIT_COUNT, \"Tree full\") */\n      tag_273\n      jumpi\n      mload(0x40)\n      0x08c379a000000000000000000000000000000000000000000000000000000000\n      dup2\n      mstore\n      0x04\n      add\n      tag_274\n      swap1\n      tag_124\n      jump\t// in\n    tag_274:\n      mload(0x40)\n      dup1\n      swap2\n      sub\n      swap1\n      revert\n    tag_273:\n        /* \"privacy/mixer/TornadoPool.sol\":6693:6703  merkleTree */\n      0x07\n        /* \"privacy/mixer/TornadoPool.sol\":6693:6710  merkleTree.leaves */\n      0x00\n      add\n        /* \"privacy/mixer/TornadoPool.sol\":6716:6726  commitment */\n      dup4\n        /* \"privacy/mixer/TornadoPool.sol\":6693:6727  merkleTree.leaves.push(commitment) */\n      swap1\n      dup1\n      0x01\n      dup2\n      sload\n      add\n      dup1\n      dup3\n      sstore\n      dup1\n      swap2\n      pop\n      pop\n      0x01\n      swap1\n      sub\n      swap1\n      0x00\n      mstore\n      keccak256(0x00, 0x20)\n      add\n      0x00\n      swap1\n      swap2\n      swap1\n      swap2\n      swap1\n      swap2\n      pop\n      sstore\n        /* \"privacy/mixer/TornadoPool.sol\":6776:6786  commitment */\n      dup3\n        /* \"privacy/mixer/TornadoPool.sol\":6737:6747  merkleTree */\n      0x07\n        /* \"privacy/mixer/TornadoPool.sol\":6737:6756  merkleTree.branches */\n      0x03\n      add\n        /* \"privacy/mixer/TornadoPool.sol\":6737:6770  merkleTree.branches[currentIndex] */\n      0x00\n        /* \"privacy/mixer/TornadoPool.sol\":6757:6769  currentIndex */\n      dup4\n        /* \"privacy/mixer/TornadoPool.sol\":6737:6770  merkleTree.branches[currentIndex] */\n      0xffffffff\n      and\n      dup2\n      mstore\n      0x20\n      add\n      swap1\n      dup2\n      mstore\n      0x20\n      add\n      0x00\n      keccak256\n        /* \"privacy/mixer/TornadoPool.sol\":6737:6773  merkleTree.branches[currentIndex][0] */\n      0x00\n        /* \"privacy/mixer/TornadoPool.sol\":6771:6772  0 */\n      dup1\n        /* \"privacy/mixer/TornadoPool.sol\":6737:6773  merkleTree.branches[currentIndex][0] */\n      dup2\n      mstore\n      0x20\n      add\n      swap1\n      dup2\n      mstore\n      0x20\n      add\n      0x00\n      keccak256\n        /* \"privacy/mixer/TornadoPool.sol\":6737:6786  merkleTree.branches[currentIndex][0] = commitment */\n      dup2\n      swap1\n      sstore\n      pop\n        /* \"privacy/mixer/TornadoPool.sol\":6820:6840  uint256 currentLevel */\n      0x00\n        /* \"privacy/mixer/TornadoPool.sol\":6854:6879  uint256 currentLevelIndex */\n      dup1\n        /* \"privacy/mixer/TornadoPool.sol\":6882:6894  currentIndex */\n      dup3\n        /* \"privacy/mixer/TornadoPool.sol\":6854:6894  uint256 currentLevelIndex = currentIndex */\n      0xffffffff\n      and\n      swap1\n      pop\n        /* \"privacy/mixer/TornadoPool.sol\":6904:6916  bytes32 left */\n      0x00\n        /* \"privacy/mixer/TornadoPool.sol\":6926:6939  bytes32 right */\n      dup1\n        /* \"privacy/mixer/TornadoPool.sol\":6950:7764  while (currentLevel < MERKLE_TREE_HEIGHT) {... */\n    tag_276:\n        /* \"privacy/mixer/TornadoPool.sol\":1890:1892  20 */\n      0x14\n        /* \"privacy/mixer/TornadoPool.sol\":6957:6969  currentLevel */\n      dup5\n        /* \"privacy/mixer/TornadoPool.sol\":6957:6990  currentLevel < MERKLE_TREE_HEIGHT */\n      lt\n        /* \"privacy/mixer/TornadoPool.sol\":6950:7764  while (currentLevel < MERKLE_TREE_HEIGHT) {... */\n      iszero\n      tag_277\n      jumpi\n        /* \"privacy/mixer/TornadoPool.sol\":7035:7036  0 */\n      0x00\n        /* \"privacy/mixer/TornadoPool.sol\":7030:7031  2 */\n      0x02\n        /* \"privacy/mixer/TornadoPool.sol\":7010:7027  currentLevelIndex */\n      dup5\n        /* \"privacy/mixer/TornadoPool.sol\":7010:7031  currentLevelIndex % 2 */\n      tag_278\n      swap2\n      swap1\n      tag_251\n      jump\t// in\n    tag_278:\n        /* \"privacy/mixer/TornadoPool.sol\":7010:7036  currentLevelIndex % 2 == 0 */\n      sub\n        /* \"privacy/mixer/TornadoPool.sol\":7006:7677  if (currentLevelIndex % 2 == 0) {... */\n      tag_279\n      jumpi\n        /* \"privacy/mixer/TornadoPool.sol\":7094:7104  merkleTree */\n      0x07\n        /* \"privacy/mixer/TornadoPool.sol\":7094:7113  merkleTree.branches */\n      0x03\n      add\n        /* \"privacy/mixer/TornadoPool.sol\":7094:7132  merkleTree.branches[currentLevelIndex] */\n      0x00\n        /* \"privacy/mixer/TornadoPool.sol\":7114:7131  currentLevelIndex */\n      dup5\n        /* \"privacy/mixer/TornadoPool.sol\":7094:7132  merkleTree.branches[currentLevelIndex] */\n      dup2\n      mstore\n      0x20\n      add\n      swap1\n      dup2\n      mstore\n      0x20\n      add\n      0x00\n      keccak256\n        /* \"privacy/mixer/TornadoPool.sol\":7094:7146  merkleTree.branches[currentLevelIndex][currentLevel] */\n      0x00\n        /* \"privacy/mixer/TornadoPool.sol\":7133:7145  currentLevel */\n      dup6\n        /* \"privacy/mixer/TornadoPool.sol\":7094:7146  merkleTree.branches[currentLevelIndex][currentLevel] */\n      dup2\n      mstore\n      0x20\n      add\n      swap1\n      dup2\n      mstore\n      0x20\n      add\n      0x00\n      keccak256\n      sload\n        /* \"privacy/mixer/TornadoPool.sol\":7087:7146  left = merkleTree.branches[currentLevelIndex][currentLevel] */\n      swap2\n      pop\n        /* \"privacy/mixer/TornadoPool.sol\":7172:7191  zeros(currentLevel) */\n      tag_280\n        /* \"privacy/mixer/TornadoPool.sol\":7178:7190  currentLevel */\n      dup5\n        /* \"privacy/mixer/TornadoPool.sol\":7172:7177  zeros */\n      tag_281\n        /* \"privacy/mixer/TornadoPool.sol\":7172:7191  zeros(currentLevel) */\n      jump\t// in\n    tag_280:\n        /* \"privacy/mixer/TornadoPool.sol\":7164:7191  right = zeros(currentLevel) */\n      swap1\n      pop\n        /* \"privacy/mixer/TornadoPool.sol\":7289:7315  hashLeftRight(left, right) */\n      tag_282\n        /* \"privacy/mixer/TornadoPool.sol\":7303:7307  left */\n      dup3\n        /* \"privacy/mixer/TornadoPool.sol\":7309:7314  right */\n      dup3\n        /* \"privacy/mixer/TornadoPool.sol\":7289:7302  hashLeftRight */\n      tag_283\n        /* \"privacy/mixer/TornadoPool.sol\":7289:7315  hashLeftRight(left, right) */\n      jump\t// in\n    tag_282:\n        /* \"privacy/mixer/TornadoPool.sol\":7209:7219  merkleTree */\n      0x07\n        /* \"privacy/mixer/TornadoPool.sol\":7209:7228  merkleTree.branches */\n      0x03\n      add\n        /* \"privacy/mixer/TornadoPool.sol\":7209:7247  merkleTree.branches[currentLevelIndex] */\n      0x00\n        /* \"privacy/mixer/TornadoPool.sol\":7229:7246  currentLevelIndex */\n      dup6\n        /* \"privacy/mixer/TornadoPool.sol\":7209:7247  merkleTree.branches[currentLevelIndex] */\n      dup2\n      mstore\n      0x20\n      add\n      swap1\n      dup2\n      mstore\n      0x20\n      add\n      0x00\n      keccak256\n        /* \"privacy/mixer/TornadoPool.sol\":7209:7265  merkleTree.branches[currentLevelIndex][currentLevel + 1] */\n      0x00\n        /* \"privacy/mixer/TornadoPool.sol\":7263:7264  1 */\n      0x01\n        /* \"privacy/mixer/TornadoPool.sol\":7248:7260  currentLevel */\n      dup8\n        /* \"privacy/mixer/TornadoPool.sol\":7248:7264  currentLevel + 1 */\n      tag_284\n      swap2\n      swap1\n      tag_197\n      jump\t// in\n    tag_284:\n        /* \"privacy/mixer/TornadoPool.sol\":7209:7265  merkleTree.branches[currentLevelIndex][currentLevel + 1] */\n      dup2\n      mstore\n      0x20\n      add\n      swap1\n      dup2\n      mstore\n      0x20\n      add\n      0x00\n      keccak256\n        /* \"privacy/mixer/TornadoPool.sol\":7209:7315  merkleTree.branches[currentLevelIndex][currentLevel + 1] = ... */\n      dup2\n      swap1\n      sstore\n      pop\n        /* \"privacy/mixer/TornadoPool.sol\":7006:7677  if (currentLevelIndex % 2 == 0) {... */\n      jump(tag_285)\n    tag_279:\n        /* \"privacy/mixer/TornadoPool.sol\":7400:7410  merkleTree */\n      0x07\n        /* \"privacy/mixer/TornadoPool.sol\":7400:7419  merkleTree.branches */\n      0x03\n      add\n        /* \"privacy/mixer/TornadoPool.sol\":7400:7442  merkleTree.branches[currentLevelIndex - 1] */\n      0x00\n        /* \"privacy/mixer/TornadoPool.sol\":7440:7441  1 */\n      0x01\n        /* \"privacy/mixer/TornadoPool.sol\":7420:7437  currentLevelIndex */\n      dup6\n        /* \"privacy/mixer/TornadoPool.sol\":7420:7441  currentLevelIndex - 1 */\n      tag_286\n      swap2\n      swap1\n      tag_219\n      jump\t// in\n    tag_286:\n        /* \"privacy/mixer/TornadoPool.sol\":7400:7442  merkleTree.branches[currentLevelIndex - 1] */\n      dup2\n      mstore\n      0x20\n      add\n      swap1\n      dup2\n      mstore\n      0x20\n      add\n      0x00\n      keccak256\n        /* \"privacy/mixer/TornadoPool.sol\":7400:7456  merkleTree.branches[currentLevelIndex - 1][currentLevel] */\n      0x00\n        /* \"privacy/mixer/TornadoPool.sol\":7443:7455  currentLevel */\n      dup6\n        /* \"privacy/mixer/TornadoPool.sol\":7400:7456  merkleTree.branches[currentLevelIndex - 1][currentLevel] */\n      dup2\n      mstore\n      0x20\n      add\n      swap1\n      dup2\n      mstore\n      0x20\n      add\n      0x00\n      keccak256\n      sload\n        /* \"privacy/mixer/TornadoPool.sol\":7393:7456  left = merkleTree.branches[currentLevelIndex - 1][currentLevel] */\n      swap2\n      pop\n        /* \"privacy/mixer/TornadoPool.sol\":7482:7492  merkleTree */\n      0x07\n        /* \"privacy/mixer/TornadoPool.sol\":7482:7501  merkleTree.branches */\n      0x03\n      add\n        /* \"privacy/mixer/TornadoPool.sol\":7482:7520  merkleTree.branches[currentLevelIndex] */\n      0x00\n        /* \"privacy/mixer/TornadoPool.sol\":7502:7519  currentLevelIndex */\n      dup5\n        /* \"privacy/mixer/TornadoPool.sol\":7482:7520  merkleTree.branches[currentLevelIndex] */\n      dup2\n      mstore\n      0x20\n      add\n      swap1\n      dup2\n      mstore\n      0x20\n      add\n      0x00\n      keccak256\n        /* \"privacy/mixer/TornadoPool.sol\":7482:7534  merkleTree.branches[currentLevelIndex][currentLevel] */\n      0x00\n        /* \"privacy/mixer/TornadoPool.sol\":7521:7533  currentLevel */\n      dup6\n        /* \"privacy/mixer/TornadoPool.sol\":7482:7534  merkleTree.branches[currentLevelIndex][currentLevel] */\n      dup2\n      mstore\n      0x20\n      add\n      swap1\n      dup2\n      mstore\n      0x20\n      add\n      0x00\n      keccak256\n      sload\n        /* \"privacy/mixer/TornadoPool.sol\":7474:7534  right = merkleTree.branches[currentLevelIndex][currentLevel] */\n      swap1\n      pop\n        /* \"privacy/mixer/TornadoPool.sol\":7636:7662  hashLeftRight(left, right) */\n      tag_287\n        /* \"privacy/mixer/TornadoPool.sol\":7650:7654  left */\n      dup3\n        /* \"privacy/mixer/TornadoPool.sol\":7656:7661  right */\n      dup3\n        /* \"privacy/mixer/TornadoPool.sol\":7636:7649  hashLeftRight */\n      tag_283\n        /* \"privacy/mixer/TornadoPool.sol\":7636:7662  hashLeftRight(left, right) */\n      jump\t// in\n    tag_287:\n        /* \"privacy/mixer/TornadoPool.sol\":7552:7562  merkleTree */\n      0x07\n        /* \"privacy/mixer/TornadoPool.sol\":7552:7571  merkleTree.branches */\n      0x03\n      add\n        /* \"privacy/mixer/TornadoPool.sol\":7552:7594  merkleTree.branches[currentLevelIndex - 1] */\n      0x00\n        /* \"privacy/mixer/TornadoPool.sol\":7592:7593  1 */\n      0x01\n        /* \"privacy/mixer/TornadoPool.sol\":7572:7589  currentLevelIndex */\n      dup7\n        /* \"privacy/mixer/TornadoPool.sol\":7572:7593  currentLevelIndex - 1 */\n      tag_288\n      swap2\n      swap1\n      tag_219\n      jump\t// in\n    tag_288:\n        /* \"privacy/mixer/TornadoPool.sol\":7552:7594  merkleTree.branches[currentLevelIndex - 1] */\n      dup2\n      mstore\n      0x20\n      add\n      swap1\n      dup2\n      mstore\n      0x20\n      add\n      0x00\n      keccak256\n        /* \"privacy/mixer/TornadoPool.sol\":7552:7612  merkleTree.branches[currentLevelIndex - 1][currentLevel + 1] */\n      0x00\n        /* \"privacy/mixer/TornadoPool.sol\":7610:7611  1 */\n      0x01\n        /* \"privacy/mixer/TornadoPool.sol\":7595:7607  currentLevel */\n      dup8\n        /* \"privacy/mixer/TornadoPool.sol\":7595:7611  currentLevel + 1 */\n      tag_289\n      swap2\n      swap1\n      tag_197\n      jump\t// in\n    tag_289:\n        /* \"privacy/mixer/TornadoPool.sol\":7552:7612  merkleTree.branches[currentLevelIndex - 1][currentLevel + 1] */\n      dup2\n      mstore\n      0x20\n      add\n      swap1\n      dup2\n      mstore\n      0x20\n      add\n      0x00\n      keccak256\n        /* \"privacy/mixer/TornadoPool.sol\":7552:7662  merkleTree.branches[currentLevelIndex - 1][currentLevel + 1] = ... */\n      dup2\n      swap1\n      sstore\n      pop\n        /* \"privacy/mixer/TornadoPool.sol\":7006:7677  if (currentLevelIndex % 2 == 0) {... */\n    tag_285:\n        /* \"privacy/mixer/TornadoPool.sol\":7724:7725  2 */\n      0x02\n        /* \"privacy/mixer/TornadoPool.sol\":7703:7725  currentLevelIndex /= 2 */\n      dup4\n      tag_290\n      swap2\n      swap1\n      tag_182\n      jump\t// in\n    tag_290:\n      swap3\n      pop\n        /* \"privacy/mixer/TornadoPool.sol\":7739:7753  currentLevel++ */\n      dup4\n      dup1\n      tag_291\n      swap1\n      tag_136\n      jump\t// in\n    tag_291:\n      swap5\n      pop\n      pop\n        /* \"privacy/mixer/TornadoPool.sol\":6950:7764  while (currentLevel < MERKLE_TREE_HEIGHT) {... */\n      jump(tag_276)\n    tag_277:\n        /* \"privacy/mixer/TornadoPool.sol\":7815:7825  merkleTree */\n      0x07\n        /* \"privacy/mixer/TornadoPool.sol\":7815:7834  merkleTree.branches */\n      0x03\n      add\n        /* \"privacy/mixer/TornadoPool.sol\":7815:7837  merkleTree.branches[0] */\n      0x00\n        /* \"privacy/mixer/TornadoPool.sol\":7835:7836  0 */\n      dup1\n        /* \"privacy/mixer/TornadoPool.sol\":7815:7837  merkleTree.branches[0] */\n      dup2\n      mstore\n      0x20\n      add\n      swap1\n      dup2\n      mstore\n      0x20\n      add\n      0x00\n      keccak256\n        /* \"privacy/mixer/TornadoPool.sol\":7815:7857  merkleTree.branches[0][MERKLE_TREE_HEIGHT] */\n      0x00\n        /* \"privacy/mixer/TornadoPool.sol\":1890:1892  20 */\n      0x14\n        /* \"privacy/mixer/TornadoPool.sol\":7815:7857  merkleTree.branches[0][MERKLE_TREE_HEIGHT] */\n      dup2\n      mstore\n      0x20\n      add\n      swap1\n      dup2\n      mstore\n      0x20\n      add\n      0x00\n      keccak256\n      sload\n        /* \"privacy/mixer/TornadoPool.sol\":7797:7807  merkleTree */\n      0x07\n        /* \"privacy/mixer/TornadoPool.sol\":7797:7812  merkleTree.root */\n      0x02\n      add\n        /* \"privacy/mixer/TornadoPool.sol\":7797:7857  merkleTree.root = merkleTree.branches[0][MERKLE_TREE_HEIGHT] */\n      dup2\n      swap1\n      sstore\n      pop\n        /* \"privacy/mixer/TornadoPool.sol\":7867:7877  merkleTree */\n      0x07\n        /* \"privacy/mixer/TornadoPool.sol\":7867:7887  merkleTree.nextIndex */\n      0x01\n      add\n      0x00\n        /* \"privacy/mixer/TornadoPool.sol\":7867:7889  merkleTree.nextIndex++ */\n      dup2\n      sload\n      dup1\n      swap3\n      swap2\n      swap1\n      tag_292\n      swap1\n      tag_136\n      jump\t// in\n    tag_292:\n      swap2\n      swap1\n      pop\n      sstore\n      pop\n        /* \"privacy/mixer/TornadoPool.sol\":7907:7919  currentIndex */\n      dup5\n        /* \"privacy/mixer/TornadoPool.sol\":7900:7919  return currentIndex */\n      swap6\n      pop\n      pop\n      pop\n      pop\n      pop\n      pop\n        /* \"privacy/mixer/TornadoPool.sol\":6472:7926  function _insert(bytes32 commitment) internal returns (uint32) {... */\n      swap2\n      swap1\n      pop\n      jump\t// out\n        /* \"@openzeppelin/contracts/utils/ReentrancyGuard.sol\":2888:3096  function _nonReentrantAfter() private {... */\n    tag_140:\n        /* \"@openzeppelin/contracts/utils/ReentrancyGuard.sol\":1857:1858  1 */\n      0x01\n        /* \"@openzeppelin/contracts/utils/ReentrancyGuard.sol\":3068:3075  _status */\n      dup1\n        /* \"@openzeppelin/contracts/utils/ReentrancyGuard.sol\":3068:3089  _status = NOT_ENTERED */\n      dup2\n      swap1\n      sstore\n      pop\n        /* \"@openzeppelin/contracts/utils/ReentrancyGuard.sol\":2888:3096  function _nonReentrantAfter() private {... */\n      jump\t// out\n        /* \"@openzeppelin/contracts/access/Ownable.sol\":1796:1958  function _checkOwner() internal view virtual {... */\n    tag_143:\n        /* \"@openzeppelin/contracts/access/Ownable.sol\":1866:1878  _msgSender() */\n      tag_295\n        /* \"@openzeppelin/contracts/access/Ownable.sol\":1866:1876  _msgSender */\n      tag_296\n        /* \"@openzeppelin/contracts/access/Ownable.sol\":1866:1878  _msgSender() */\n      jump\t// in\n    tag_295:\n        /* \"@openzeppelin/contracts/access/Ownable.sol\":1855:1878  owner() != _msgSender() */\n      0xffffffffffffffffffffffffffffffffffffffff\n      and\n        /* \"@openzeppelin/contracts/access/Ownable.sol\":1855:1862  owner() */\n      tag_297\n        /* \"@openzeppelin/contracts/access/Ownable.sol\":1855:1860  owner */\n      tag_76\n        /* \"@openzeppelin/contracts/access/Ownable.sol\":1855:1862  owner() */\n      jump\t// in\n    tag_297:\n        /* \"@openzeppelin/contracts/access/Ownable.sol\":1855:1878  owner() != _msgSender() */\n      0xffffffffffffffffffffffffffffffffffffffff\n      and\n      eq\n        /* \"@openzeppelin/contracts/access/Ownable.sol\":1851:1952  if (owner() != _msgSender()) {... */\n      tag_298\n      jumpi\n        /* \"@openzeppelin/contracts/access/Ownable.sol\":1928:1940  _msgSender() */\n      tag_299\n        /* \"@openzeppelin/contracts/access/Ownable.sol\":1928:1938  _msgSender */\n      tag_296\n        /* \"@openzeppelin/contracts/access/Ownable.sol\":1928:1940  _msgSender() */\n      jump\t// in\n    tag_299:\n        /* \"@openzeppelin/contracts/access/Ownable.sol\":1901:1941  OwnableUnauthorizedAccount(_msgSender()) */\n      mload(0x40)\n      0x118cdaa700000000000000000000000000000000000000000000000000000000\n      dup2\n      mstore\n      0x04\n      add\n      tag_300\n      swap2\n      swap1\n      tag_78\n      jump\t// in\n    tag_300:\n      mload(0x40)\n      dup1\n      swap2\n      sub\n      swap1\n      revert\n        /* \"@openzeppelin/contracts/access/Ownable.sol\":1851:1952  if (owner() != _msgSender()) {... */\n    tag_298:\n        /* \"@openzeppelin/contracts/access/Ownable.sol\":1796:1958  function _checkOwner() internal view virtual {... */\n      jump\t// out\n        /* \"@openzeppelin/contracts/utils/Pausable.sol\":2710:2827  function _unpause() internal virtual whenPaused {... */\n    tag_146:\n        /* \"@openzeppelin/contracts/utils/Pausable.sol\":1721:1737  _requirePaused() */\n      tag_302\n        /* \"@openzeppelin/contracts/utils/Pausable.sol\":1721:1735  _requirePaused */\n      tag_303\n        /* \"@openzeppelin/contracts/utils/Pausable.sol\":1721:1737  _requirePaused() */\n      jump\t// in\n    tag_302:\n        /* \"@openzeppelin/contracts/utils/Pausable.sol\":2778:2783  false */\n      0x00\n        /* \"@openzeppelin/contracts/utils/Pausable.sol\":2768:2775  _paused */\n      0x02\n      0x00\n        /* \"@openzeppelin/contracts/utils/Pausable.sol\":2768:2783  _paused = false */\n      0x0100\n      exp\n      dup2\n      sload\n      dup2\n      0xff\n      mul\n      not\n      and\n      swap1\n      dup4\n      iszero\n      iszero\n      mul\n      or\n      swap1\n      sstore\n      pop\n        /* \"@openzeppelin/contracts/utils/Pausable.sol\":2798:2820  Unpaused(_msgSender()) */\n      0x5db9ee0a495bf2e6ff9c91a7834c1ba4fdd244a5e8aa4e537bd38aeae4b073aa\n        /* \"@openzeppelin/contracts/utils/Pausable.sol\":2807:2819  _msgSender() */\n      tag_305\n        /* \"@openzeppelin/contracts/utils/Pausable.sol\":2807:2817  _msgSender */\n      tag_296\n        /* \"@openzeppelin/contracts/utils/Pausable.sol\":2807:2819  _msgSender() */\n      jump\t// in\n    tag_305:\n        /* \"@openzeppelin/contracts/utils/Pausable.sol\":2798:2820  Unpaused(_msgSender()) */\n      mload(0x40)\n      tag_306\n      swap2\n      swap1\n      tag_78\n      jump\t// in\n    tag_306:\n      mload(0x40)\n      dup1\n      swap2\n      sub\n      swap1\n      log1\n        /* \"@openzeppelin/contracts/utils/Pausable.sol\":2710:2827  function _unpause() internal virtual whenPaused {... */\n      jump\t// out\n        /* \"@openzeppelin/contracts/access/Ownable.sol\":2912:3099  function _transferOwnership(address newOwner) internal virtual {... */\n    tag_162:\n        /* \"@openzeppelin/contracts/access/Ownable.sol\":2985:3001  address oldOwner */\n      0x00\n        /* \"@openzeppelin/contracts/access/Ownable.sol\":3004:3010  _owner */\n      dup1\n      0x00\n      swap1\n      sload\n      swap1\n      0x0100\n      exp\n      swap1\n      div\n      0xffffffffffffffffffffffffffffffffffffffff\n      and\n        /* \"@openzeppelin/contracts/access/Ownable.sol\":2985:3010  address oldOwner = _owner */\n      swap1\n      pop\n        /* \"@openzeppelin/contracts/access/Ownable.sol\":3029:3037  newOwner */\n      dup2\n        /* \"@openzeppelin/contracts/access/Ownable.sol\":3020:3026  _owner */\n      0x00\n      dup1\n        /* \"@openzeppelin/contracts/access/Ownable.sol\":3020:3037  _owner = newOwner */\n      0x0100\n      exp\n      dup2\n      sload\n      dup2\n      0xffffffffffffffffffffffffffffffffffffffff\n      mul\n      not\n      and\n      swap1\n      dup4\n      0xffffffffffffffffffffffffffffffffffffffff\n      and\n      mul\n      or\n      swap1\n      sstore\n      pop\n        /* \"@openzeppelin/contracts/access/Ownable.sol\":3083:3091  newOwner */\n      dup2\n        /* \"@openzeppelin/contracts/access/Ownable.sol\":3052:3092  OwnershipTransferred(oldOwner, newOwner) */\n      0xffffffffffffffffffffffffffffffffffffffff\n      and\n        /* \"@openzeppelin/contracts/access/Ownable.sol\":3073:3081  oldOwner */\n      dup2\n        /* \"@openzeppelin/contracts/access/Ownable.sol\":3052:3092  OwnershipTransferred(oldOwner, newOwner) */\n      0xffffffffffffffffffffffffffffffffffffffff\n      and\n      0x8be0079c531659141344cd1fd0a4f28419497f9722a3daafe3b4186f6b6457e0\n      mload(0x40)\n      mload(0x40)\n      dup1\n      swap2\n      sub\n      swap1\n      log3\n        /* \"@openzeppelin/contracts/access/Ownable.sol\":2975:3099  {... */\n      pop\n        /* \"@openzeppelin/contracts/access/Ownable.sol\":2912:3099  function _transferOwnership(address newOwner) internal virtual {... */\n      pop\n      jump\t// out\n        /* \"@openzeppelin/contracts/utils/Pausable.sol\":2463:2578  function _pause() internal virtual whenNotPaused {... */\n    tag_167:\n        /* \"@openzeppelin/contracts/utils/Pausable.sol\":1474:1493  _requireNotPaused() */\n      tag_309\n        /* \"@openzeppelin/contracts/utils/Pausable.sol\":1474:1491  _requireNotPaused */\n      tag_115\n        /* \"@openzeppelin/contracts/utils/Pausable.sol\":1474:1493  _requireNotPaused() */\n      jump\t// in\n    tag_309:\n        /* \"@openzeppelin/contracts/utils/Pausable.sol\":2532:2536  true */\n      0x01\n        /* \"@openzeppelin/contracts/utils/Pausable.sol\":2522:2529  _paused */\n      0x02\n      0x00\n        /* \"@openzeppelin/contracts/utils/Pausable.sol\":2522:2536  _paused = true */\n      0x0100\n      exp\n      dup2\n      sload\n      dup2\n      0xff\n      mul\n      not\n      and\n      swap1\n      dup4\n      iszero\n      iszero\n      mul\n      or\n      swap1\n      sstore\n      pop\n        /* \"@openzeppelin/contracts/utils/Pausable.sol\":2551:2571  Paused(_msgSender()) */\n      0x62e78cea01bee320cd4e420270b5ea74000d11b0c9f74754ebdbfc544b05a258\n        /* \"@openzeppelin/contracts/utils/Pausable.sol\":2558:2570  _msgSender() */\n      tag_311\n        /* \"@openzeppelin/contracts/utils/Pausable.sol\":2558:2568  _msgSender */\n      tag_296\n        /* \"@openzeppelin/contracts/utils/Pausable.sol\":2558:2570  _msgSender() */\n      jump\t// in\n    tag_311:\n        /* \"@openzeppelin/contracts/utils/Pausable.sol\":2551:2571  Paused(_msgSender()) */\n      mload(0x40)\n      tag_312\n      swap2\n      swap1\n      tag_78\n      jump\t// in\n    tag_312:\n      mload(0x40)\n      dup1\n      swap2\n      sub\n      swap1\n      log1\n        /* \"@openzeppelin/contracts/utils/Pausable.sol\":2463:2578  function _pause() internal virtual whenNotPaused {... */\n      jump\t// out\n        /* \"privacy/mixer/TornadoPool.sol\":8312:8490  function zeros(uint256 level) internal pure returns (bytes32) {... */\n    tag_281:\n        /* \"privacy/mixer/TornadoPool.sol\":8365:8372  bytes32 */\n      0x00\n        /* \"privacy/mixer/TornadoPool.sol\":8397:8398  0 */\n      dup1\n        /* \"privacy/mixer/TornadoPool.sol\":8388:8393  level */\n      dup3\n        /* \"privacy/mixer/TornadoPool.sol\":8388:8398  level == 0 */\n      sub\n        /* \"privacy/mixer/TornadoPool.sol\":8384:8417  if (level == 0) return bytes32(0) */\n      tag_314\n      jumpi\n        /* \"privacy/mixer/TornadoPool.sol\":8415:8416  0 */\n      0x00\n        /* \"privacy/mixer/TornadoPool.sol\":8407:8417  bytes32(0) */\n      dup1\n      shl\n        /* \"privacy/mixer/TornadoPool.sol\":8400:8417  return bytes32(0) */\n      swap1\n      pop\n      jump(tag_313)\n        /* \"privacy/mixer/TornadoPool.sol\":8384:8417  if (level == 0) return bytes32(0) */\n    tag_314:\n        /* \"privacy/mixer/TornadoPool.sol\":8434:8483  hashLeftRight(zeros(level - 1), zeros(level - 1)) */\n      tag_315\n        /* \"privacy/mixer/TornadoPool.sol\":8448:8464  zeros(level - 1) */\n      tag_316\n        /* \"privacy/mixer/TornadoPool.sol\":8462:8463  1 */\n      0x01\n        /* \"privacy/mixer/TornadoPool.sol\":8454:8459  level */\n      dup5\n        /* \"privacy/mixer/TornadoPool.sol\":8454:8463  level - 1 */\n      tag_317\n      swap2\n      swap1\n      tag_219\n      jump\t// in\n    tag_317:\n        /* \"privacy/mixer/TornadoPool.sol\":8448:8453  zeros */\n      tag_281\n        /* \"privacy/mixer/TornadoPool.sol\":8448:8464  zeros(level - 1) */\n      jump\t// in\n    tag_316:\n        /* \"privacy/mixer/TornadoPool.sol\":8466:8482  zeros(level - 1) */\n      tag_318\n        /* \"privacy/mixer/TornadoPool.sol\":8480:8481  1 */\n      0x01\n        /* \"privacy/mixer/TornadoPool.sol\":8472:8477  level */\n      dup6\n        /* \"privacy/mixer/TornadoPool.sol\":8472:8481  level - 1 */\n      tag_319\n      swap2\n      swap1\n      tag_219\n      jump\t// in\n    tag_319:\n        /* \"privacy/mixer/TornadoPool.sol\":8466:8471  zeros */\n      tag_281\n        /* \"privacy/mixer/TornadoPool.sol\":8466:8482  zeros(level - 1) */\n      jump\t// in\n    tag_318:\n        /* \"privacy/mixer/TornadoPool.sol\":8434:8447  hashLeftRight */\n      tag_283\n        /* \"privacy/mixer/TornadoPool.sol\":8434:8483  hashLeftRight(zeros(level - 1), zeros(level - 1)) */\n      jump\t// in\n    tag_315:\n        /* \"privacy/mixer/TornadoPool.sol\":8427:8483  return hashLeftRight(zeros(level - 1), zeros(level - 1)) */\n      swap1\n      pop\n        /* \"privacy/mixer/TornadoPool.sol\":8312:8490  function zeros(uint256 level) internal pure returns (bytes32) {... */\n    tag_313:\n      swap2\n      swap1\n      pop\n      jump\t// out\n        /* \"privacy/mixer/TornadoPool.sol\":8049:8219  function hashLeftRight(... */\n    tag_283:\n        /* \"privacy/mixer/TornadoPool.sol\":8146:8153  bytes32 */\n      0x00\n        /* \"privacy/mixer/TornadoPool.sol\":8199:8203  left */\n      dup3\n        /* \"privacy/mixer/TornadoPool.sol\":8205:8210  right */\n      dup3\n        /* \"privacy/mixer/TornadoPool.sol\":8182:8211  abi.encodePacked(left, right) */\n      add(0x20, mload(0x40))\n      tag_321\n      swap3\n      swap2\n      swap1\n      tag_322\n      jump\t// in\n    tag_321:\n      mload(0x40)\n      0x20\n      dup2\n      dup4\n      sub\n      sub\n      dup2\n      mstore\n      swap1\n      0x40\n      mstore\n        /* \"privacy/mixer/TornadoPool.sol\":8172:8212  keccak256(abi.encodePacked(left, right)) */\n      dup1\n      mload\n      swap1\n      0x20\n      add\n      keccak256\n        /* \"privacy/mixer/TornadoPool.sol\":8165:8212  return keccak256(abi.encodePacked(left, right)) */\n      swap1\n      pop\n        /* \"privacy/mixer/TornadoPool.sol\":8049:8219  function hashLeftRight(... */\n      swap3\n      swap2\n      pop\n      pop\n      jump\t// out\n        /* \"@openzeppelin/contracts/utils/Context.sol\":656:752  function _msgSender() internal view virtual returns (address) {... */\n    tag_296:\n        /* \"@openzeppelin/contracts/utils/Context.sol\":709:716  address */\n      0x00\n        /* \"@openzeppelin/contracts/utils/Context.sol\":735:745  msg.sender */\n      caller\n        /* \"@openzeppelin/contracts/utils/Context.sol\":728:745  return msg.sender */\n      swap1\n      pop\n        /* \"@openzeppelin/contracts/utils/Context.sol\":656:752  function _msgSender() internal view virtual returns (address) {... */\n      swap1\n      jump\t// out\n        /* \"@openzeppelin/contracts/utils/Pausable.sol\":2202:2328  function _requirePaused() internal view virtual {... */\n    tag_303:\n        /* \"@openzeppelin/contracts/utils/Pausable.sol\":2265:2273  paused() */\n      tag_325\n        /* \"@openzeppelin/contracts/utils/Pausable.sol\":2265:2271  paused */\n      tag_49\n        /* \"@openzeppelin/contracts/utils/Pausable.sol\":2265:2273  paused() */\n      jump\t// in\n    tag_325:\n        /* \"@openzeppelin/contracts/utils/Pausable.sol\":2260:2322  if (!paused()) {... */\n      tag_326\n      jumpi\n        /* \"@openzeppelin/contracts/utils/Pausable.sol\":2296:2311  ExpectedPause() */\n      mload(0x40)\n      0x8dfc202b00000000000000000000000000000000000000000000000000000000\n      dup2\n      mstore\n      0x04\n      add\n      mload(0x40)\n      dup1\n      swap2\n      sub\n      swap1\n      revert\n        /* \"@openzeppelin/contracts/utils/Pausable.sol\":2260:2322  if (!paused()) {... */\n    tag_326:\n        /* \"@openzeppelin/contracts/utils/Pausable.sol\":2202:2328  function _requirePaused() internal view virtual {... */\n      jump\t// out\n    tag_192:\n      mload(0x40)\n      dup1\n      0x20\n      add\n      0x40\n      mstore\n      dup1\n      0x01\n      swap1\n      0x20\n      dup3\n      mul\n      dup1\n      calldatasize\n      dup4\n      calldatacopy\n      dup1\n      dup3\n      add\n      swap2\n      pop\n      pop\n      swap1\n      pop\n      pop\n      swap1\n      jump\t// out\n        /* \"#utility.yul\":88:205   */\n    tag_328:\n        /* \"#utility.yul\":197:198   */\n      0x00\n        /* \"#utility.yul\":194:195   */\n      dup1\n        /* \"#utility.yul\":187:199   */\n      revert\n        /* \"#utility.yul\":211:328   */\n    tag_329:\n        /* \"#utility.yul\":320:321   */\n      0x00\n        /* \"#utility.yul\":317:318   */\n      dup1\n        /* \"#utility.yul\":310:322   */\n      revert\n        /* \"#utility.yul\":334:411   */\n    tag_330:\n        /* \"#utility.yul\":371:378   */\n      0x00\n        /* \"#utility.yul\":400:405   */\n      dup2\n        /* \"#utility.yul\":389:405   */\n      swap1\n      pop\n        /* \"#utility.yul\":334:411   */\n      swap2\n      swap1\n      pop\n      jump\t// out\n        /* \"#utility.yul\":417:539   */\n    tag_331:\n        /* \"#utility.yul\":490:514   */\n      tag_429\n        /* \"#utility.yul\":508:513   */\n      dup2\n        /* \"#utility.yul\":490:514   */\n      tag_330\n      jump\t// in\n    tag_429:\n        /* \"#utility.yul\":483:488   */\n      dup2\n        /* \"#utility.yul\":480:515   */\n      eq\n        /* \"#utility.yul\":470:533   */\n      tag_430\n      jumpi\n        /* \"#utility.yul\":529:530   */\n      0x00\n        /* \"#utility.yul\":526:527   */\n      dup1\n        /* \"#utility.yul\":519:531   */\n      revert\n        /* \"#utility.yul\":470:533   */\n    tag_430:\n        /* \"#utility.yul\":417:539   */\n      pop\n      jump\t// out\n        /* \"#utility.yul\":545:684   */\n    tag_332:\n        /* \"#utility.yul\":591:596   */\n      0x00\n        /* \"#utility.yul\":629:635   */\n      dup2\n        /* \"#utility.yul\":616:636   */\n      calldataload\n        /* \"#utility.yul\":607:636   */\n      swap1\n      pop\n        /* \"#utility.yul\":645:678   */\n      tag_432\n        /* \"#utility.yul\":672:677   */\n      dup2\n        /* \"#utility.yul\":645:678   */\n      tag_331\n      jump\t// in\n    tag_432:\n        /* \"#utility.yul\":545:684   */\n      swap3\n      swap2\n      pop\n      pop\n      jump\t// out\n        /* \"#utility.yul\":690:1019   */\n    tag_30:\n        /* \"#utility.yul\":749:755   */\n      0x00\n        /* \"#utility.yul\":798:800   */\n      0x20\n        /* \"#utility.yul\":786:795   */\n      dup3\n        /* \"#utility.yul\":777:784   */\n      dup5\n        /* \"#utility.yul\":773:796   */\n      sub\n        /* \"#utility.yul\":769:801   */\n      slt\n        /* \"#utility.yul\":766:885   */\n      iszero\n      tag_434\n      jumpi\n        /* \"#utility.yul\":804:883   */\n      tag_435\n      tag_328\n      jump\t// in\n    tag_435:\n        /* \"#utility.yul\":766:885   */\n    tag_434:\n        /* \"#utility.yul\":924:925   */\n      0x00\n        /* \"#utility.yul\":949:1002   */\n      tag_436\n        /* \"#utility.yul\":994:1001   */\n      dup5\n        /* \"#utility.yul\":985:991   */\n      dup3\n        /* \"#utility.yul\":974:983   */\n      dup6\n        /* \"#utility.yul\":970:992   */\n      add\n        /* \"#utility.yul\":949:1002   */\n      tag_332\n      jump\t// in\n    tag_436:\n        /* \"#utility.yul\":939:1002   */\n      swap2\n      pop\n        /* \"#utility.yul\":895:1012   */\n      pop\n        /* \"#utility.yul\":690:1019   */\n      swap3\n      swap2\n      pop\n      pop\n      jump\t// out\n        /* \"#utility.yul\":1025:1115   */\n    tag_333:\n        /* \"#utility.yul\":1059:1066   */\n      0x00\n        /* \"#utility.yul\":1102:1107   */\n      dup2\n        /* \"#utility.yul\":1095:1108   */\n      iszero\n        /* \"#utility.yul\":1088:1109   */\n      iszero\n        /* \"#utility.yul\":1077:1109   */\n      swap1\n      pop\n        /* \"#utility.yul\":1025:1115   */\n      swap2\n      swap1\n      pop\n      jump\t// out\n        /* \"#utility.yul\":1121:1230   */\n    tag_334:\n        /* \"#utility.yul\":1202:1223   */\n      tag_439\n        /* \"#utility.yul\":1217:1222   */\n      dup2\n        /* \"#utility.yul\":1202:1223   */\n      tag_333\n      jump\t// in\n    tag_439:\n        /* \"#utility.yul\":1197:1200   */\n      dup3\n        /* \"#utility.yul\":1190:1224   */\n      mstore\n        /* \"#utility.yul\":1121:1230   */\n      pop\n      pop\n      jump\t// out\n        /* \"#utility.yul\":1236:1446   */\n    tag_33:\n        /* \"#utility.yul\":1323:1327   */\n      0x00\n        /* \"#utility.yul\":1361:1363   */\n      0x20\n        /* \"#utility.yul\":1350:1359   */\n      dup3\n        /* \"#utility.yul\":1346:1364   */\n      add\n        /* \"#utility.yul\":1338:1364   */\n      swap1\n      pop\n        /* \"#utility.yul\":1374:1439   */\n      tag_441\n        /* \"#utility.yul\":1436:1437   */\n      0x00\n        /* \"#utility.yul\":1425:1434   */\n      dup4\n        /* \"#utility.yul\":1421:1438   */\n      add\n        /* \"#utility.yul\":1412:1418   */\n      dup5\n        /* \"#utility.yul\":1374:1439   */\n      tag_334\n      jump\t// in\n    tag_441:\n        /* \"#utility.yul\":1236:1446   */\n      swap3\n      swap2\n      pop\n      pop\n      jump\t// out\n        /* \"#utility.yul\":1452:1529   */\n    tag_335:\n        /* \"#utility.yul\":1489:1496   */\n      0x00\n        /* \"#utility.yul\":1518:1523   */\n      dup2\n        /* \"#utility.yul\":1507:1523   */\n      swap1\n      pop\n        /* \"#utility.yul\":1452:1529   */\n      swap2\n      swap1\n      pop\n      jump\t// out\n        /* \"#utility.yul\":1535:1657   */\n    tag_336:\n        /* \"#utility.yul\":1608:1632   */\n      tag_444\n        /* \"#utility.yul\":1626:1631   */\n      dup2\n        /* \"#utility.yul\":1608:1632   */\n      tag_335\n      jump\t// in\n    tag_444:\n        /* \"#utility.yul\":1601:1606   */\n      dup2\n        /* \"#utility.yul\":1598:1633   */\n      eq\n        /* \"#utility.yul\":1588:1651   */\n      tag_445\n      jumpi\n        /* \"#utility.yul\":1647:1648   */\n      0x00\n        /* \"#utility.yul\":1644:1645   */\n      dup1\n        /* \"#utility.yul\":1637:1649   */\n      revert\n        /* \"#utility.yul\":1588:1651   */\n    tag_445:\n        /* \"#utility.yul\":1535:1657   */\n      pop\n      jump\t// out\n        /* \"#utility.yul\":1663:1802   */\n    tag_337:\n        /* \"#utility.yul\":1709:1714   */\n      0x00\n        /* \"#utility.yul\":1747:1753   */\n      dup2\n        /* \"#utility.yul\":1734:1754   */\n      calldataload\n        /* \"#utility.yul\":1725:1754   */\n      swap1\n      pop\n        /* \"#utility.yul\":1763:1796   */\n      tag_447\n        /* \"#utility.yul\":1790:1795   */\n      dup2\n        /* \"#utility.yul\":1763:1796   */\n      tag_336\n      jump\t// in\n    tag_447:\n        /* \"#utility.yul\":1663:1802   */\n      swap3\n      swap2\n      pop\n      pop\n      jump\t// out\n        /* \"#utility.yul\":1808:1925   */\n    tag_338:\n        /* \"#utility.yul\":1917:1918   */\n      0x00\n        /* \"#utility.yul\":1914:1915   */\n      dup1\n        /* \"#utility.yul\":1907:1919   */\n      revert\n        /* \"#utility.yul\":1931:2048   */\n    tag_339:\n        /* \"#utility.yul\":2040:2041   */\n      0x00\n        /* \"#utility.yul\":2037:2038   */\n      dup1\n        /* \"#utility.yul\":2030:2042   */\n      revert\n        /* \"#utility.yul\":2054:2171   */\n    tag_340:\n        /* \"#utility.yul\":2163:2164   */\n      0x00\n        /* \"#utility.yul\":2160:2161   */\n      dup1\n        /* \"#utility.yul\":2153:2165   */\n      revert\n        /* \"#utility.yul\":2190:2742   */\n    tag_341:\n        /* \"#utility.yul\":2247:2255   */\n      0x00\n        /* \"#utility.yul\":2257:2263   */\n      dup1\n        /* \"#utility.yul\":2307:2310   */\n      dup4\n        /* \"#utility.yul\":2300:2304   */\n      0x1f\n        /* \"#utility.yul\":2292:2298   */\n      dup5\n        /* \"#utility.yul\":2288:2305   */\n      add\n        /* \"#utility.yul\":2284:2311   */\n      slt\n        /* \"#utility.yul\":2274:2396   */\n      tag_452\n      jumpi\n        /* \"#utility.yul\":2315:2394   */\n      tag_453\n      tag_338\n      jump\t// in\n    tag_453:\n        /* \"#utility.yul\":2274:2396   */\n    tag_452:\n        /* \"#utility.yul\":2428:2434   */\n      dup3\n        /* \"#utility.yul\":2415:2435   */\n      calldataload\n        /* \"#utility.yul\":2405:2435   */\n      swap1\n      pop\n        /* \"#utility.yul\":2458:2476   */\n      0xffffffffffffffff\n        /* \"#utility.yul\":2450:2456   */\n      dup2\n        /* \"#utility.yul\":2447:2477   */\n      gt\n        /* \"#utility.yul\":2444:2561   */\n      iszero\n      tag_454\n      jumpi\n        /* \"#utility.yul\":2480:2559   */\n      tag_455\n      tag_339\n      jump\t// in\n    tag_455:\n        /* \"#utility.yul\":2444:2561   */\n    tag_454:\n        /* \"#utility.yul\":2594:2598   */\n      0x20\n        /* \"#utility.yul\":2586:2592   */\n      dup4\n        /* \"#utility.yul\":2582:2599   */\n      add\n        /* \"#utility.yul\":2570:2599   */\n      swap2\n      pop\n        /* \"#utility.yul\":2648:2651   */\n      dup4\n        /* \"#utility.yul\":2640:2644   */\n      0x01\n        /* \"#utility.yul\":2632:2638   */\n      dup3\n        /* \"#utility.yul\":2628:2645   */\n      mul\n        /* \"#utility.yul\":2618:2626   */\n      dup4\n        /* \"#utility.yul\":2614:2646   */\n      add\n        /* \"#utility.yul\":2611:2652   */\n      gt\n        /* \"#utility.yul\":2608:2736   */\n      iszero\n      tag_456\n      jumpi\n        /* \"#utility.yul\":2655:2734   */\n      tag_457\n      tag_340\n      jump\t// in\n    tag_457:\n        /* \"#utility.yul\":2608:2736   */\n    tag_456:\n        /* \"#utility.yul\":2190:2742   */\n      swap3\n      pop\n      swap3\n      swap1\n      pop\n      jump\t// out\n        /* \"#utility.yul\":2748:3565   */\n    tag_36:\n        /* \"#utility.yul\":2836:2842   */\n      0x00\n        /* \"#utility.yul\":2844:2850   */\n      dup1\n        /* \"#utility.yul\":2852:2858   */\n      0x00\n        /* \"#utility.yul\":2860:2866   */\n      dup1\n        /* \"#utility.yul\":2909:2911   */\n      0x60\n        /* \"#utility.yul\":2897:2906   */\n      dup6\n        /* \"#utility.yul\":2888:2895   */\n      dup8\n        /* \"#utility.yul\":2884:2907   */\n      sub\n        /* \"#utility.yul\":2880:2912   */\n      slt\n        /* \"#utility.yul\":2877:2996   */\n      iszero\n      tag_459\n      jumpi\n        /* \"#utility.yul\":2915:2994   */\n      tag_460\n      tag_328\n      jump\t// in\n    tag_460:\n        /* \"#utility.yul\":2877:2996   */\n    tag_459:\n        /* \"#utility.yul\":3035:3036   */\n      0x00\n        /* \"#utility.yul\":3060:3113   */\n      tag_461\n        /* \"#utility.yul\":3105:3112   */\n      dup8\n        /* \"#utility.yul\":3096:3102   */\n      dup3\n        /* \"#utility.yul\":3085:3094   */\n      dup9\n        /* \"#utility.yul\":3081:3103   */\n      add\n        /* \"#utility.yul\":3060:3113   */\n      tag_332\n      jump\t// in\n    tag_461:\n        /* \"#utility.yul\":3050:3113   */\n      swap5\n      pop\n        /* \"#utility.yul\":3006:3123   */\n      pop\n        /* \"#utility.yul\":3162:3164   */\n      0x20\n        /* \"#utility.yul\":3188:3241   */\n      tag_462\n        /* \"#utility.yul\":3233:3240   */\n      dup8\n        /* \"#utility.yul\":3224:3230   */\n      dup3\n        /* \"#utility.yul\":3213:3222   */\n      dup9\n        /* \"#utility.yul\":3209:3231   */\n      add\n        /* \"#utility.yul\":3188:3241   */\n      tag_337\n      jump\t// in\n    tag_462:\n        /* \"#utility.yul\":3178:3241   */\n      swap4\n      pop\n        /* \"#utility.yul\":3133:3251   */\n      pop\n        /* \"#utility.yul\":3318:3320   */\n      0x40\n        /* \"#utility.yul\":3307:3316   */\n      dup6\n        /* \"#utility.yul\":3303:3321   */\n      add\n        /* \"#utility.yul\":3290:3322   */\n      calldataload\n        /* \"#utility.yul\":3349:3367   */\n      0xffffffffffffffff\n        /* \"#utility.yul\":3341:3347   */\n      dup2\n        /* \"#utility.yul\":3338:3368   */\n      gt\n        /* \"#utility.yul\":3335:3452   */\n      iszero\n      tag_463\n      jumpi\n        /* \"#utility.yul\":3371:3450   */\n      tag_464\n      tag_329\n      jump\t// in\n    tag_464:\n        /* \"#utility.yul\":3335:3452   */\n    tag_463:\n        /* \"#utility.yul\":3484:3548   */\n      tag_465\n        /* \"#utility.yul\":3540:3547   */\n      dup8\n        /* \"#utility.yul\":3531:3537   */\n      dup3\n        /* \"#utility.yul\":3520:3529   */\n      dup9\n        /* \"#utility.yul\":3516:3538   */\n      add\n        /* \"#utility.yul\":3484:3548   */\n      tag_341\n      jump\t// in\n    tag_465:\n        /* \"#utility.yul\":3466:3548   */\n      swap3\n      pop\n      swap3\n      pop\n        /* \"#utility.yul\":3261:3558   */\n      pop\n        /* \"#utility.yul\":2748:3565   */\n      swap3\n      swap6\n      swap2\n      swap5\n      pop\n      swap3\n      pop\n      jump\t// out\n        /* \"#utility.yul\":3571:3697   */\n    tag_342:\n        /* \"#utility.yul\":3608:3615   */\n      0x00\n        /* \"#utility.yul\":3648:3690   */\n      0xffffffffffffffffffffffffffffffffffffffff\n        /* \"#utility.yul\":3641:3646   */\n      dup3\n        /* \"#utility.yul\":3637:3691   */\n      and\n        /* \"#utility.yul\":3626:3691   */\n      swap1\n      pop\n        /* \"#utility.yul\":3571:3697   */\n      swap2\n      swap1\n      pop\n      jump\t// out\n        /* \"#utility.yul\":3703:3763   */\n    tag_343:\n        /* \"#utility.yul\":3731:3734   */\n      0x00\n        /* \"#utility.yul\":3752:3757   */\n      dup2\n        /* \"#utility.yul\":3745:3757   */\n      swap1\n      pop\n        /* \"#utility.yul\":3703:3763   */\n      swap2\n      swap1\n      pop\n      jump\t// out\n        /* \"#utility.yul\":3769:3911   */\n    tag_344:\n        /* \"#utility.yul\":3819:3828   */\n      0x00\n        /* \"#utility.yul\":3852:3905   */\n      tag_469\n        /* \"#utility.yul\":3870:3904   */\n      tag_470\n        /* \"#utility.yul\":3879:3903   */\n      tag_471\n        /* \"#utility.yul\":3897:3902   */\n      dup5\n        /* \"#utility.yul\":3879:3903   */\n      tag_342\n      jump\t// in\n    tag_471:\n        /* \"#utility.yul\":3870:3904   */\n      tag_343\n      jump\t// in\n    tag_470:\n        /* \"#utility.yul\":3852:3905   */\n      tag_342\n      jump\t// in\n    tag_469:\n        /* \"#utility.yul\":3839:3905   */\n      swap1\n      pop\n        /* \"#utility.yul\":3769:3911   */\n      swap2\n      swap1\n      pop\n      jump\t// out\n        /* \"#utility.yul\":3917:4043   */\n    tag_345:\n        /* \"#utility.yul\":3967:3976   */\n      0x00\n        /* \"#utility.yul\":4000:4037   */\n      tag_473\n        /* \"#utility.yul\":4031:4036   */\n      dup3\n        /* \"#utility.yul\":4000:4037   */\n      tag_344\n      jump\t// in\n    tag_473:\n        /* \"#utility.yul\":3987:4037   */\n      swap1\n      pop\n        /* \"#utility.yul\":3917:4043   */\n      swap2\n      swap1\n      pop\n      jump\t// out\n        /* \"#utility.yul\":4049:4197   */\n    tag_346:\n        /* \"#utility.yul\":4121:4130   */\n      0x00\n        /* \"#utility.yul\":4154:4191   */\n      tag_475\n        /* \"#utility.yul\":4185:4190   */\n      dup3\n        /* \"#utility.yul\":4154:4191   */\n      tag_345\n      jump\t// in\n    tag_475:\n        /* \"#utility.yul\":4141:4191   */\n      swap1\n      pop\n        /* \"#utility.yul\":4049:4197   */\n      swap2\n      swap1\n      pop\n      jump\t// out\n        /* \"#utility.yul\":4203:4378   */\n    tag_347:\n        /* \"#utility.yul\":4312:4371   */\n      tag_477\n        /* \"#utility.yul\":4365:4370   */\n      dup2\n        /* \"#utility.yul\":4312:4371   */\n      tag_346\n      jump\t// in\n    tag_477:\n        /* \"#utility.yul\":4307:4310   */\n      dup3\n        /* \"#utility.yul\":4300:4372   */\n      mstore\n        /* \"#utility.yul\":4203:4378   */\n      pop\n      pop\n      jump\t// out\n        /* \"#utility.yul\":4384:4650   */\n    tag_41:\n        /* \"#utility.yul\":4499:4503   */\n      0x00\n        /* \"#utility.yul\":4537:4539   */\n      0x20\n        /* \"#utility.yul\":4526:4535   */\n      dup3\n        /* \"#utility.yul\":4522:4540   */\n      add\n        /* \"#utility.yul\":4514:4540   */\n      swap1\n      pop\n        /* \"#utility.yul\":4550:4643   */\n      tag_479\n        /* \"#utility.yul\":4640:4641   */\n      0x00\n        /* \"#utility.yul\":4629:4638   */\n      dup4\n        /* \"#utility.yul\":4625:4642   */\n      add\n        /* \"#utility.yul\":4616:4622   */\n      dup5\n        /* \"#utility.yul\":4550:4643   */\n      tag_347\n      jump\t// in\n    tag_479:\n        /* \"#utility.yul\":4384:4650   */\n      swap3\n      swap2\n      pop\n      pop\n      jump\t// out\n        /* \"#utility.yul\":4656:4774   */\n    tag_348:\n        /* \"#utility.yul\":4743:4767   */\n      tag_481\n        /* \"#utility.yul\":4761:4766   */\n      dup2\n        /* \"#utility.yul\":4743:4767   */\n      tag_335\n      jump\t// in\n    tag_481:\n        /* \"#utility.yul\":4738:4741   */\n      dup3\n        /* \"#utility.yul\":4731:4768   */\n      mstore\n        /* \"#utility.yul\":4656:4774   */\n      pop\n      pop\n      jump\t// out\n        /* \"#utility.yul\":4780:5002   */\n    tag_47:\n        /* \"#utility.yul\":4873:4877   */\n      0x00\n        /* \"#utility.yul\":4911:4913   */\n      0x20\n        /* \"#utility.yul\":4900:4909   */\n      dup3\n        /* \"#utility.yul\":4896:4914   */\n      add\n        /* \"#utility.yul\":4888:4914   */\n      swap1\n      pop\n        /* \"#utility.yul\":4924:4995   */\n      tag_483\n        /* \"#utility.yul\":4992:4993   */\n      0x00\n        /* \"#utility.yul\":4981:4990   */\n      dup4\n        /* \"#utility.yul\":4977:4994   */\n      add\n        /* \"#utility.yul\":4968:4974   */\n      dup5\n        /* \"#utility.yul\":4924:4995   */\n      tag_348\n      jump\t// in\n    tag_483:\n        /* \"#utility.yul\":4780:5002   */\n      swap3\n      swap2\n      pop\n      pop\n      jump\t// out\n        /* \"#utility.yul\":5008:5126   */\n    tag_349:\n        /* \"#utility.yul\":5095:5119   */\n      tag_485\n        /* \"#utility.yul\":5113:5118   */\n      dup2\n        /* \"#utility.yul\":5095:5119   */\n      tag_330\n      jump\t// in\n    tag_485:\n        /* \"#utility.yul\":5090:5093   */\n      dup3\n        /* \"#utility.yul\":5083:5120   */\n      mstore\n        /* \"#utility.yul\":5008:5126   */\n      pop\n      pop\n      jump\t// out\n        /* \"#utility.yul\":5132:5354   */\n    tag_54:\n        /* \"#utility.yul\":5225:5229   */\n      0x00\n        /* \"#utility.yul\":5263:5265   */\n      0x20\n        /* \"#utility.yul\":5252:5261   */\n      dup3\n        /* \"#utility.yul\":5248:5266   */\n      add\n        /* \"#utility.yul\":5240:5266   */\n      swap1\n      pop\n        /* \"#utility.yul\":5276:5347   */\n      tag_487\n        /* \"#utility.yul\":5344:5345   */\n      0x00\n        /* \"#utility.yul\":5333:5342   */\n      dup4\n        /* \"#utility.yul\":5329:5346   */\n      add\n        /* \"#utility.yul\":5320:5326   */\n      dup5\n        /* \"#utility.yul\":5276:5347   */\n      tag_349\n      jump\t// in\n    tag_487:\n        /* \"#utility.yul\":5132:5354   */\n      swap3\n      swap2\n      pop\n      pop\n      jump\t// out\n        /* \"#utility.yul\":5360:5689   */\n    tag_57:\n        /* \"#utility.yul\":5419:5425   */\n      0x00\n        /* \"#utility.yul\":5468:5470   */\n      0x20\n        /* \"#utility.yul\":5456:5465   */\n      dup3\n        /* \"#utility.yul\":5447:5454   */\n      dup5\n        /* \"#utility.yul\":5443:5466   */\n      sub\n        /* \"#utility.yul\":5439:5471   */\n      slt\n        /* \"#utility.yul\":5436:5555   */\n      iszero\n      tag_489\n      jumpi\n        /* \"#utility.yul\":5474:5553   */\n      tag_490\n      tag_328\n      jump\t// in\n    tag_490:\n        /* \"#utility.yul\":5436:5555   */\n    tag_489:\n        /* \"#utility.yul\":5594:5595   */\n      0x00\n        /* \"#utility.yul\":5619:5672   */\n      tag_491\n        /* \"#utility.yul\":5664:5671   */\n      dup5\n        /* \"#utility.yul\":5655:5661   */\n      dup3\n        /* \"#utility.yul\":5644:5653   */\n      dup6\n        /* \"#utility.yul\":5640:5662   */\n      add\n        /* \"#utility.yul\":5619:5672   */\n      tag_337\n      jump\t// in\n    tag_491:\n        /* \"#utility.yul\":5609:5672   */\n      swap2\n      pop\n        /* \"#utility.yul\":5565:5682   */\n      pop\n        /* \"#utility.yul\":5360:5689   */\n      swap3\n      swap2\n      pop\n      pop\n      jump\t// out\n        /* \"#utility.yul\":5695:5788   */\n    tag_350:\n        /* \"#utility.yul\":5731:5738   */\n      0x00\n        /* \"#utility.yul\":5771:5781   */\n      0xffffffff\n        /* \"#utility.yul\":5764:5769   */\n      dup3\n        /* \"#utility.yul\":5760:5782   */\n      and\n        /* \"#utility.yul\":5749:5782   */\n      swap1\n      pop\n        /* \"#utility.yul\":5695:5788   */\n      swap2\n      swap1\n      pop\n      jump\t// out\n        /* \"#utility.yul\":5794:5909   */\n    tag_351:\n        /* \"#utility.yul\":5879:5902   */\n      tag_494\n        /* \"#utility.yul\":5896:5901   */\n      dup2\n        /* \"#utility.yul\":5879:5902   */\n      tag_350\n      jump\t// in\n    tag_494:\n        /* \"#utility.yul\":5874:5877   */\n      dup3\n        /* \"#utility.yul\":5867:5903   */\n      mstore\n        /* \"#utility.yul\":5794:5909   */\n      pop\n      pop\n      jump\t// out\n        /* \"#utility.yul\":5915:6013   */\n    tag_352:\n        /* \"#utility.yul\":5966:5972   */\n      0x00\n        /* \"#utility.yul\":6000:6005   */\n      dup2\n        /* \"#utility.yul\":5994:6006   */\n      mload\n        /* \"#utility.yul\":5984:6006   */\n      swap1\n      pop\n        /* \"#utility.yul\":5915:6013   */\n      swap2\n      swap1\n      pop\n      jump\t// out\n        /* \"#utility.yul\":6019:6187   */\n    tag_353:\n        /* \"#utility.yul\":6102:6113   */\n      0x00\n        /* \"#utility.yul\":6136:6142   */\n      dup3\n        /* \"#utility.yul\":6131:6134   */\n      dup3\n        /* \"#utility.yul\":6124:6143   */\n      mstore\n        /* \"#utility.yul\":6176:6180   */\n      0x20\n        /* \"#utility.yul\":6171:6174   */\n      dup3\n        /* \"#utility.yul\":6167:6181   */\n      add\n        /* \"#utility.yul\":6152:6181   */\n      swap1\n      pop\n        /* \"#utility.yul\":6019:6187   */\n      swap3\n      swap2\n      pop\n      pop\n      jump\t// out\n        /* \"#utility.yul\":6193:6332   */\n    tag_354:\n        /* \"#utility.yul\":6282:6288   */\n      dup3\n        /* \"#utility.yul\":6277:6280   */\n      dup2\n        /* \"#utility.yul\":6272:6275   */\n      dup4\n        /* \"#utility.yul\":6266:6289   */\n      mcopy\n        /* \"#utility.yul\":6323:6324   */\n      0x00\n        /* \"#utility.yul\":6314:6320   */\n      dup4\n        /* \"#utility.yul\":6309:6312   */\n      dup4\n        /* \"#utility.yul\":6305:6321   */\n      add\n        /* \"#utility.yul\":6298:6325   */\n      mstore\n        /* \"#utility.yul\":6193:6332   */\n      pop\n      pop\n      pop\n      jump\t// out\n        /* \"#utility.yul\":6338:6440   */\n    tag_355:\n        /* \"#utility.yul\":6379:6385   */\n      0x00\n        /* \"#utility.yul\":6430:6432   */\n      0x1f\n        /* \"#utility.yul\":6426:6433   */\n      not\n        /* \"#utility.yul\":6421:6423   */\n      0x1f\n        /* \"#utility.yul\":6414:6419   */\n      dup4\n        /* \"#utility.yul\":6410:6424   */\n      add\n        /* \"#utility.yul\":6406:6434   */\n      and\n        /* \"#utility.yul\":6396:6434   */\n      swap1\n      pop\n        /* \"#utility.yul\":6338:6440   */\n      swap2\n      swap1\n      pop\n      jump\t// out\n        /* \"#utility.yul\":6446:6819   */\n    tag_356:\n        /* \"#utility.yul\":6532:6535   */\n      0x00\n        /* \"#utility.yul\":6560:6598   */\n      tag_500\n        /* \"#utility.yul\":6592:6597   */\n      dup3\n        /* \"#utility.yul\":6560:6598   */\n      tag_352\n      jump\t// in\n    tag_500:\n        /* \"#utility.yul\":6614:6684   */\n      tag_501\n        /* \"#utility.yul\":6677:6683   */\n      dup2\n        /* \"#utility.yul\":6672:6675   */\n      dup6\n        /* \"#utility.yul\":6614:6684   */\n      tag_353\n      jump\t// in\n    tag_501:\n        /* \"#utility.yul\":6607:6684   */\n      swap4\n      pop\n        /* \"#utility.yul\":6693:6758   */\n      tag_502\n        /* \"#utility.yul\":6751:6757   */\n      dup2\n        /* \"#utility.yul\":6746:6749   */\n      dup6\n        /* \"#utility.yul\":6739:6743   */\n      0x20\n        /* \"#utility.yul\":6732:6737   */\n      dup7\n        /* \"#utility.yul\":6728:6744   */\n      add\n        /* \"#utility.yul\":6693:6758   */\n      tag_354\n      jump\t// in\n    tag_502:\n        /* \"#utility.yul\":6783:6812   */\n      tag_503\n        /* \"#utility.yul\":6805:6811   */\n      dup2\n        /* \"#utility.yul\":6783:6812   */\n      tag_355\n      jump\t// in\n    tag_503:\n        /* \"#utility.yul\":6778:6781   */\n      dup5\n        /* \"#utility.yul\":6774:6813   */\n      add\n        /* \"#utility.yul\":6767:6813   */\n      swap2\n      pop\n        /* \"#utility.yul\":6536:6819   */\n      pop\n        /* \"#utility.yul\":6446:6819   */\n      swap3\n      swap2\n      pop\n      pop\n      jump\t// out\n        /* \"#utility.yul\":6825:7461   */\n    tag_70:\n        /* \"#utility.yul\":7018:7022   */\n      0x00\n        /* \"#utility.yul\":7056:7059   */\n      0x80\n        /* \"#utility.yul\":7045:7054   */\n      dup3\n        /* \"#utility.yul\":7041:7060   */\n      add\n        /* \"#utility.yul\":7033:7060   */\n      swap1\n      pop\n        /* \"#utility.yul\":7070:7141   */\n      tag_505\n        /* \"#utility.yul\":7138:7139   */\n      0x00\n        /* \"#utility.yul\":7127:7136   */\n      dup4\n        /* \"#utility.yul\":7123:7140   */\n      add\n        /* \"#utility.yul\":7114:7120   */\n      dup8\n        /* \"#utility.yul\":7070:7141   */\n      tag_349\n      jump\t// in\n    tag_505:\n        /* \"#utility.yul\":7151:7221   */\n      tag_506\n        /* \"#utility.yul\":7217:7219   */\n      0x20\n        /* \"#utility.yul\":7206:7215   */\n      dup4\n        /* \"#utility.yul\":7202:7220   */\n      add\n        /* \"#utility.yul\":7193:7199   */\n      dup7\n        /* \"#utility.yul\":7151:7221   */\n      tag_351\n      jump\t// in\n    tag_506:\n        /* \"#utility.yul\":7231:7303   */\n      tag_507\n        /* \"#utility.yul\":7299:7301   */\n      0x40\n        /* \"#utility.yul\":7288:7297   */\n      dup4\n        /* \"#utility.yul\":7284:7302   */\n      add\n        /* \"#utility.yul\":7275:7281   */\n      dup6\n        /* \"#utility.yul\":7231:7303   */\n      tag_348\n      jump\t// in\n    tag_507:\n        /* \"#utility.yul\":7350:7359   */\n      dup2\n        /* \"#utility.yul\":7344:7348   */\n      dup2\n        /* \"#utility.yul\":7340:7360   */\n      sub\n        /* \"#utility.yul\":7335:7337   */\n      0x60\n        /* \"#utility.yul\":7324:7333   */\n      dup4\n        /* \"#utility.yul\":7320:7338   */\n      add\n        /* \"#utility.yul\":7313:7361   */\n      mstore\n        /* \"#utility.yul\":7378:7454   */\n      tag_508\n        /* \"#utility.yul\":7449:7453   */\n      dup2\n        /* \"#utility.yul\":7440:7446   */\n      dup5\n        /* \"#utility.yul\":7378:7454   */\n      tag_356\n      jump\t// in\n    tag_508:\n        /* \"#utility.yul\":7370:7454   */\n      swap1\n      pop\n        /* \"#utility.yul\":6825:7461   */\n      swap6\n      swap5\n      pop\n      pop\n      pop\n      pop\n      pop\n      jump\t// out\n        /* \"#utility.yul\":7485:7734   */\n    tag_357:\n        /* \"#utility.yul\":7556:7564   */\n      0x00\n        /* \"#utility.yul\":7587:7593   */\n      dup2\n        /* \"#utility.yul\":7575:7593   */\n      swap1\n      pop\n        /* \"#utility.yul\":7640:7643   */\n      dup3\n        /* \"#utility.yul\":7632:7636   */\n      0x20\n        /* \"#utility.yul\":7626:7630   */\n      0x08\n        /* \"#utility.yul\":7622:7637   */\n      mul\n        /* \"#utility.yul\":7612:7620   */\n      dup3\n        /* \"#utility.yul\":7608:7638   */\n      add\n        /* \"#utility.yul\":7605:7644   */\n      gt\n        /* \"#utility.yul\":7602:7728   */\n      iszero\n      tag_510\n      jumpi\n        /* \"#utility.yul\":7647:7726   */\n      tag_511\n      tag_340\n      jump\t// in\n    tag_511:\n        /* \"#utility.yul\":7602:7728   */\n    tag_510:\n        /* \"#utility.yul\":7485:7734   */\n      swap3\n      swap2\n      pop\n      pop\n      jump\t// out\n        /* \"#utility.yul\":7740:7836   */\n    tag_358:\n        /* \"#utility.yul\":7777:7784   */\n      0x00\n        /* \"#utility.yul\":7806:7830   */\n      tag_513\n        /* \"#utility.yul\":7824:7829   */\n      dup3\n        /* \"#utility.yul\":7806:7830   */\n      tag_342\n      jump\t// in\n    tag_513:\n        /* \"#utility.yul\":7795:7830   */\n      swap1\n      pop\n        /* \"#utility.yul\":7740:7836   */\n      swap2\n      swap1\n      pop\n      jump\t// out\n        /* \"#utility.yul\":7842:7964   */\n    tag_359:\n        /* \"#utility.yul\":7915:7939   */\n      tag_515\n        /* \"#utility.yul\":7933:7938   */\n      dup2\n        /* \"#utility.yul\":7915:7939   */\n      tag_358\n      jump\t// in\n    tag_515:\n        /* \"#utility.yul\":7908:7913   */\n      dup2\n        /* \"#utility.yul\":7905:7940   */\n      eq\n        /* \"#utility.yul\":7895:7958   */\n      tag_516\n      jumpi\n        /* \"#utility.yul\":7954:7955   */\n      0x00\n        /* \"#utility.yul\":7951:7952   */\n      dup1\n        /* \"#utility.yul\":7944:7956   */\n      revert\n        /* \"#utility.yul\":7895:7958   */\n    tag_516:\n        /* \"#utility.yul\":7842:7964   */\n      pop\n      jump\t// out\n        /* \"#utility.yul\":7970:8109   */\n    tag_360:\n        /* \"#utility.yul\":8016:8021   */\n      0x00\n        /* \"#utility.yul\":8054:8060   */\n      dup2\n        /* \"#utility.yul\":8041:8061   */\n      calldataload\n        /* \"#utility.yul\":8032:8061   */\n      swap1\n      pop\n        /* \"#utility.yul\":8070:8103   */\n      tag_518\n        /* \"#utility.yul\":8097:8102   */\n      dup2\n        /* \"#utility.yul\":8070:8103   */\n      tag_359\n      jump\t// in\n    tag_518:\n        /* \"#utility.yul\":7970:8109   */\n      swap3\n      swap2\n      pop\n      pop\n      jump\t// out\n        /* \"#utility.yul\":8115:9225   */\n    tag_73:\n        /* \"#utility.yul\":8244:8250   */\n      0x00\n        /* \"#utility.yul\":8252:8258   */\n      dup1\n        /* \"#utility.yul\":8260:8266   */\n      0x00\n        /* \"#utility.yul\":8268:8274   */\n      dup1\n        /* \"#utility.yul\":8276:8282   */\n      0x00\n        /* \"#utility.yul\":8284:8290   */\n      dup1\n        /* \"#utility.yul\":8333:8336   */\n      0x01a0\n        /* \"#utility.yul\":8321:8330   */\n      dup8\n        /* \"#utility.yul\":8312:8319   */\n      dup10\n        /* \"#utility.yul\":8308:8331   */\n      sub\n        /* \"#utility.yul\":8304:8337   */\n      slt\n        /* \"#utility.yul\":8301:8421   */\n      iszero\n      tag_520\n      jumpi\n        /* \"#utility.yul\":8340:8419   */\n      tag_521\n      tag_328\n      jump\t// in\n    tag_521:\n        /* \"#utility.yul\":8301:8421   */\n    tag_520:\n        /* \"#utility.yul\":8460:8461   */\n      0x00\n        /* \"#utility.yul\":8485:8563   */\n      tag_522\n        /* \"#utility.yul\":8555:8562   */\n      dup10\n        /* \"#utility.yul\":8546:8552   */\n      dup3\n        /* \"#utility.yul\":8535:8544   */\n      dup11\n        /* \"#utility.yul\":8531:8553   */\n      add\n        /* \"#utility.yul\":8485:8563   */\n      tag_357\n      jump\t// in\n    tag_522:\n        /* \"#utility.yul\":8475:8563   */\n      swap7\n      pop\n        /* \"#utility.yul\":8431:8573   */\n      pop\n        /* \"#utility.yul\":8612:8615   */\n      0x0100\n        /* \"#utility.yul\":8639:8692   */\n      tag_523\n        /* \"#utility.yul\":8684:8691   */\n      dup10\n        /* \"#utility.yul\":8675:8681   */\n      dup3\n        /* \"#utility.yul\":8664:8673   */\n      dup11\n        /* \"#utility.yul\":8660:8682   */\n      add\n        /* \"#utility.yul\":8639:8692   */\n      tag_332\n      jump\t// in\n    tag_523:\n        /* \"#utility.yul\":8629:8692   */\n      swap6\n      pop\n        /* \"#utility.yul\":8583:8702   */\n      pop\n        /* \"#utility.yul\":8741:8744   */\n      0x0120\n        /* \"#utility.yul\":8768:8821   */\n      tag_524\n        /* \"#utility.yul\":8813:8820   */\n      dup10\n        /* \"#utility.yul\":8804:8810   */\n      dup3\n        /* \"#utility.yul\":8793:8802   */\n      dup11\n        /* \"#utility.yul\":8789:8811   */\n      add\n        /* \"#utility.yul\":8768:8821   */\n      tag_360\n      jump\t// in\n    tag_524:\n        /* \"#utility.yul\":8758:8821   */\n      swap5\n      pop\n        /* \"#utility.yul\":8712:8831   */\n      pop\n        /* \"#utility.yul\":8870:8873   */\n      0x0140\n        /* \"#utility.yul\":8897:8950   */\n      tag_525\n        /* \"#utility.yul\":8942:8949   */\n      dup10\n        /* \"#utility.yul\":8933:8939   */\n      dup3\n        /* \"#utility.yul\":8922:8931   */\n      dup11\n        /* \"#utility.yul\":8918:8940   */\n      add\n        /* \"#utility.yul\":8897:8950   */\n      tag_360\n      jump\t// in\n    tag_525:\n        /* \"#utility.yul\":8887:8950   */\n      swap4\n      pop\n        /* \"#utility.yul\":8841:8960   */\n      pop\n        /* \"#utility.yul\":8999:9002   */\n      0x0160\n        /* \"#utility.yul\":9026:9079   */\n      tag_526\n        /* \"#utility.yul\":9071:9078   */\n      dup10\n        /* \"#utility.yul\":9062:9068   */\n      dup3\n        /* \"#utility.yul\":9051:9060   */\n      dup11\n        /* \"#utility.yul\":9047:9069   */\n      add\n        /* \"#utility.yul\":9026:9079   */\n      tag_337\n      jump\t// in\n    tag_526:\n        /* \"#utility.yul\":9016:9079   */\n      swap3\n      pop\n        /* \"#utility.yul\":8970:9089   */\n      pop\n        /* \"#utility.yul\":9128:9131   */\n      0x0180\n        /* \"#utility.yul\":9155:9208   */\n      tag_527\n        /* \"#utility.yul\":9200:9207   */\n      dup10\n        /* \"#utility.yul\":9191:9197   */\n      dup3\n        /* \"#utility.yul\":9180:9189   */\n      dup11\n        /* \"#utility.yul\":9176:9198   */\n      add\n        /* \"#utility.yul\":9155:9208   */\n      tag_337\n      jump\t// in\n    tag_527:\n        /* \"#utility.yul\":9145:9208   */\n      swap2\n      pop\n        /* \"#utility.yul\":9099:9218   */\n      pop\n        /* \"#utility.yul\":8115:9225   */\n      swap3\n      swap6\n      pop\n      swap3\n      swap6\n      pop\n      swap3\n      swap6\n      jump\t// out\n        /* \"#utility.yul\":9231:9349   */\n    tag_361:\n        /* \"#utility.yul\":9318:9342   */\n      tag_529\n        /* \"#utility.yul\":9336:9341   */\n      dup2\n        /* \"#utility.yul\":9318:9342   */\n      tag_358\n      jump\t// in\n    tag_529:\n        /* \"#utility.yul\":9313:9316   */\n      dup3\n        /* \"#utility.yul\":9306:9343   */\n      mstore\n        /* \"#utility.yul\":9231:9349   */\n      pop\n      pop\n      jump\t// out\n        /* \"#utility.yul\":9355:9577   */\n    tag_78:\n        /* \"#utility.yul\":9448:9452   */\n      0x00\n        /* \"#utility.yul\":9486:9488   */\n      0x20\n        /* \"#utility.yul\":9475:9484   */\n      dup3\n        /* \"#utility.yul\":9471:9489   */\n      add\n        /* \"#utility.yul\":9463:9489   */\n      swap1\n      pop\n        /* \"#utility.yul\":9499:9570   */\n      tag_531\n        /* \"#utility.yul\":9567:9568   */\n      0x00\n        /* \"#utility.yul\":9556:9565   */\n      dup4\n        /* \"#utility.yul\":9552:9569   */\n      add\n        /* \"#utility.yul\":9543:9549   */\n      dup5\n        /* \"#utility.yul\":9499:9570   */\n      tag_361\n      jump\t// in\n    tag_531:\n        /* \"#utility.yul\":9355:9577   */\n      swap3\n      swap2\n      pop\n      pop\n      jump\t// out\n        /* \"#utility.yul\":9583:9915   */\n    tag_82:\n        /* \"#utility.yul\":9704:9708   */\n      0x00\n        /* \"#utility.yul\":9742:9744   */\n      0x40\n        /* \"#utility.yul\":9731:9740   */\n      dup3\n        /* \"#utility.yul\":9727:9745   */\n      add\n        /* \"#utility.yul\":9719:9745   */\n      swap1\n      pop\n        /* \"#utility.yul\":9755:9826   */\n      tag_533\n        /* \"#utility.yul\":9823:9824   */\n      0x00\n        /* \"#utility.yul\":9812:9821   */\n      dup4\n        /* \"#utility.yul\":9808:9825   */\n      add\n        /* \"#utility.yul\":9799:9805   */\n      dup6\n        /* \"#utility.yul\":9755:9826   */\n      tag_348\n      jump\t// in\n    tag_533:\n        /* \"#utility.yul\":9836:9908   */\n      tag_534\n        /* \"#utility.yul\":9904:9906   */\n      0x20\n        /* \"#utility.yul\":9893:9902   */\n      dup4\n        /* \"#utility.yul\":9889:9907   */\n      add\n        /* \"#utility.yul\":9880:9886   */\n      dup5\n        /* \"#utility.yul\":9836:9908   */\n      tag_349\n      jump\t// in\n    tag_534:\n        /* \"#utility.yul\":9583:9915   */\n      swap4\n      swap3\n      pop\n      pop\n      pop\n      jump\t// out\n        /* \"#utility.yul\":9921:10035   */\n    tag_362:\n        /* \"#utility.yul\":9988:9994   */\n      0x00\n        /* \"#utility.yul\":10022:10027   */\n      dup2\n        /* \"#utility.yul\":10016:10028   */\n      mload\n        /* \"#utility.yul\":10006:10028   */\n      swap1\n      pop\n        /* \"#utility.yul\":9921:10035   */\n      swap2\n      swap1\n      pop\n      jump\t// out\n        /* \"#utility.yul\":10041:10225   */\n    tag_363:\n        /* \"#utility.yul\":10140:10151   */\n      0x00\n        /* \"#utility.yul\":10174:10180   */\n      dup3\n        /* \"#utility.yul\":10169:10172   */\n      dup3\n        /* \"#utility.yul\":10162:10181   */\n      mstore\n        /* \"#utility.yul\":10214:10218   */\n      0x20\n        /* \"#utility.yul\":10209:10212   */\n      dup3\n        /* \"#utility.yul\":10205:10219   */\n      add\n        /* \"#utility.yul\":10190:10219   */\n      swap1\n      pop\n        /* \"#utility.yul\":10041:10225   */\n      swap3\n      swap2\n      pop\n      pop\n      jump\t// out\n        /* \"#utility.yul\":10231:10363   */\n    tag_364:\n        /* \"#utility.yul\":10298:10302   */\n      0x00\n        /* \"#utility.yul\":10321:10324   */\n      dup2\n        /* \"#utility.yul\":10313:10324   */\n      swap1\n      pop\n        /* \"#utility.yul\":10351:10355   */\n      0x20\n        /* \"#utility.yul\":10346:10349   */\n      dup3\n        /* \"#utility.yul\":10342:10356   */\n      add\n        /* \"#utility.yul\":10334:10356   */\n      swap1\n      pop\n        /* \"#utility.yul\":10231:10363   */\n      swap2\n      swap1\n      pop\n      jump\t// out\n        /* \"#utility.yul\":10369:10477   */\n    tag_365:\n        /* \"#utility.yul\":10446:10470   */\n      tag_539\n        /* \"#utility.yul\":10464:10469   */\n      dup2\n        /* \"#utility.yul\":10446:10470   */\n      tag_330\n      jump\t// in\n    tag_539:\n        /* \"#utility.yul\":10441:10444   */\n      dup3\n        /* \"#utility.yul\":10434:10471   */\n      mstore\n        /* \"#utility.yul\":10369:10477   */\n      pop\n      pop\n      jump\t// out\n        /* \"#utility.yul\":10483:10662   */\n    tag_366:\n        /* \"#utility.yul\":10552:10562   */\n      0x00\n        /* \"#utility.yul\":10573:10619   */\n      tag_541\n        /* \"#utility.yul\":10615:10618   */\n      dup4\n        /* \"#utility.yul\":10607:10613   */\n      dup4\n        /* \"#utility.yul\":10573:10619   */\n      tag_365\n      jump\t// in\n    tag_541:\n        /* \"#utility.yul\":10651:10655   */\n      0x20\n        /* \"#utility.yul\":10646:10649   */\n      dup4\n        /* \"#utility.yul\":10642:10656   */\n      add\n        /* \"#utility.yul\":10628:10656   */\n      swap1\n      pop\n        /* \"#utility.yul\":10483:10662   */\n      swap3\n      swap2\n      pop\n      pop\n      jump\t// out\n        /* \"#utility.yul\":10668:10781   */\n    tag_367:\n        /* \"#utility.yul\":10738:10742   */\n      0x00\n        /* \"#utility.yul\":10770:10774   */\n      0x20\n        /* \"#utility.yul\":10765:10768   */\n      dup3\n        /* \"#utility.yul\":10761:10775   */\n      add\n        /* \"#utility.yul\":10753:10775   */\n      swap1\n      pop\n        /* \"#utility.yul\":10668:10781   */\n      swap2\n      swap1\n      pop\n      jump\t// out\n        /* \"#utility.yul\":10817:11549   */\n    tag_368:\n        /* \"#utility.yul\":10936:10939   */\n      0x00\n        /* \"#utility.yul\":10965:11019   */\n      tag_544\n        /* \"#utility.yul\":11013:11018   */\n      dup3\n        /* \"#utility.yul\":10965:11019   */\n      tag_362\n      jump\t// in\n    tag_544:\n        /* \"#utility.yul\":11035:11121   */\n      tag_545\n        /* \"#utility.yul\":11114:11120   */\n      dup2\n        /* \"#utility.yul\":11109:11112   */\n      dup6\n        /* \"#utility.yul\":11035:11121   */\n      tag_363\n      jump\t// in\n    tag_545:\n        /* \"#utility.yul\":11028:11121   */\n      swap4\n      pop\n        /* \"#utility.yul\":11145:11201   */\n      tag_546\n        /* \"#utility.yul\":11195:11200   */\n      dup4\n        /* \"#utility.yul\":11145:11201   */\n      tag_364\n      jump\t// in\n    tag_546:\n        /* \"#utility.yul\":11224:11231   */\n      dup1\n        /* \"#utility.yul\":11255:11256   */\n      0x00\n        /* \"#utility.yul\":11240:11524   */\n    tag_547:\n        /* \"#utility.yul\":11265:11271   */\n      dup4\n        /* \"#utility.yul\":11262:11263   */\n      dup2\n        /* \"#utility.yul\":11259:11272   */\n      lt\n        /* \"#utility.yul\":11240:11524   */\n      iszero\n      tag_549\n      jumpi\n        /* \"#utility.yul\":11341:11347   */\n      dup2\n        /* \"#utility.yul\":11335:11348   */\n      mload\n        /* \"#utility.yul\":11368:11431   */\n      tag_550\n        /* \"#utility.yul\":11427:11430   */\n      dup9\n        /* \"#utility.yul\":11412:11425   */\n      dup3\n        /* \"#utility.yul\":11368:11431   */\n      tag_366\n      jump\t// in\n    tag_550:\n        /* \"#utility.yul\":11361:11431   */\n      swap8\n      pop\n        /* \"#utility.yul\":11454:11514   */\n      tag_551\n        /* \"#utility.yul\":11507:11513   */\n      dup4\n        /* \"#utility.yul\":11454:11514   */\n      tag_367\n      jump\t// in\n    tag_551:\n        /* \"#utility.yul\":11444:11514   */\n      swap3\n      pop\n        /* \"#utility.yul\":11300:11524   */\n      pop\n        /* \"#utility.yul\":11287:11288   */\n      0x01\n        /* \"#utility.yul\":11284:11285   */\n      dup2\n        /* \"#utility.yul\":11280:11289   */\n      add\n        /* \"#utility.yul\":11275:11289   */\n      swap1\n      pop\n        /* \"#utility.yul\":11240:11524   */\n      jump(tag_547)\n    tag_549:\n        /* \"#utility.yul\":11244:11258   */\n      pop\n        /* \"#utility.yul\":11540:11543   */\n      dup6\n        /* \"#utility.yul\":11533:11543   */\n      swap4\n      pop\n        /* \"#utility.yul\":10941:11549   */\n      pop\n      pop\n      pop\n        /* \"#utility.yul\":10817:11549   */\n      swap3\n      swap2\n      pop\n      pop\n      jump\t// out\n        /* \"#utility.yul\":11555:11928   */\n    tag_90:\n        /* \"#utility.yul\":11698:11702   */\n      0x00\n        /* \"#utility.yul\":11736:11738   */\n      0x20\n        /* \"#utility.yul\":11725:11734   */\n      dup3\n        /* \"#utility.yul\":11721:11739   */\n      add\n        /* \"#utility.yul\":11713:11739   */\n      swap1\n      pop\n        /* \"#utility.yul\":11785:11794   */\n      dup2\n        /* \"#utility.yul\":11779:11783   */\n      dup2\n        /* \"#utility.yul\":11775:11795   */\n      sub\n        /* \"#utility.yul\":11771:11772   */\n      0x00\n        /* \"#utility.yul\":11760:11769   */\n      dup4\n        /* \"#utility.yul\":11756:11773   */\n      add\n        /* \"#utility.yul\":11749:11796   */\n      mstore\n        /* \"#utility.yul\":11813:11921   */\n      tag_553\n        /* \"#utility.yul\":11916:11920   */\n      dup2\n        /* \"#utility.yul\":11907:11913   */\n      dup5\n        /* \"#utility.yul\":11813:11921   */\n      tag_368\n      jump\t// in\n    tag_553:\n        /* \"#utility.yul\":11805:11921   */\n      swap1\n      pop\n        /* \"#utility.yul\":11555:11928   */\n      swap3\n      swap2\n      pop\n      pop\n      jump\t// out\n        /* \"#utility.yul\":11934:12263   */\n    tag_96:\n        /* \"#utility.yul\":11993:11999   */\n      0x00\n        /* \"#utility.yul\":12042:12044   */\n      0x20\n        /* \"#utility.yul\":12030:12039   */\n      dup3\n        /* \"#utility.yul\":12021:12028   */\n      dup5\n        /* \"#utility.yul\":12017:12040   */\n      sub\n        /* \"#utility.yul\":12013:12045   */\n      slt\n        /* \"#utility.yul\":12010:12129   */\n      iszero\n      tag_555\n      jumpi\n        /* \"#utility.yul\":12048:12127   */\n      tag_556\n      tag_328\n      jump\t// in\n    tag_556:\n        /* \"#utility.yul\":12010:12129   */\n    tag_555:\n        /* \"#utility.yul\":12168:12169   */\n      0x00\n        /* \"#utility.yul\":12193:12246   */\n      tag_557\n        /* \"#utility.yul\":12238:12245   */\n      dup5\n        /* \"#utility.yul\":12229:12235   */\n      dup3\n        /* \"#utility.yul\":12218:12227   */\n      dup6\n        /* \"#utility.yul\":12214:12236   */\n      add\n        /* \"#utility.yul\":12193:12246   */\n      tag_360\n      jump\t// in\n    tag_557:\n        /* \"#utility.yul\":12183:12246   */\n      swap2\n      pop\n        /* \"#utility.yul\":12139:12256   */\n      pop\n        /* \"#utility.yul\":11934:12263   */\n      swap3\n      swap2\n      pop\n      pop\n      jump\t// out\n        /* \"#utility.yul\":12269:12699   */\n    tag_102:\n        /* \"#utility.yul\":12412:12416   */\n      0x00\n        /* \"#utility.yul\":12450:12452   */\n      0x60\n        /* \"#utility.yul\":12439:12448   */\n      dup3\n        /* \"#utility.yul\":12435:12453   */\n      add\n        /* \"#utility.yul\":12427:12453   */\n      swap1\n      pop\n        /* \"#utility.yul\":12463:12534   */\n      tag_559\n        /* \"#utility.yul\":12531:12532   */\n      0x00\n        /* \"#utility.yul\":12520:12529   */\n      dup4\n        /* \"#utility.yul\":12516:12533   */\n      add\n        /* \"#utility.yul\":12507:12513   */\n      dup7\n        /* \"#utility.yul\":12463:12534   */\n      tag_348\n      jump\t// in\n    tag_559:\n        /* \"#utility.yul\":12544:12616   */\n      tag_560\n        /* \"#utility.yul\":12612:12614   */\n      0x20\n        /* \"#utility.yul\":12601:12610   */\n      dup4\n        /* \"#utility.yul\":12597:12615   */\n      add\n        /* \"#utility.yul\":12588:12594   */\n      dup6\n        /* \"#utility.yul\":12544:12616   */\n      tag_348\n      jump\t// in\n    tag_560:\n        /* \"#utility.yul\":12626:12692   */\n      tag_561\n        /* \"#utility.yul\":12688:12690   */\n      0x40\n        /* \"#utility.yul\":12677:12686   */\n      dup4\n        /* \"#utility.yul\":12673:12691   */\n      add\n        /* \"#utility.yul\":12664:12670   */\n      dup5\n        /* \"#utility.yul\":12626:12692   */\n      tag_334\n      jump\t// in\n    tag_561:\n        /* \"#utility.yul\":12269:12699   */\n      swap5\n      swap4\n      pop\n      pop\n      pop\n      pop\n      jump\t// out\n        /* \"#utility.yul\":12705:12845   */\n    tag_369:\n        /* \"#utility.yul\":12769:12778   */\n      0x00\n        /* \"#utility.yul\":12802:12839   */\n      tag_563\n        /* \"#utility.yul\":12833:12838   */\n      dup3\n        /* \"#utility.yul\":12802:12839   */\n      tag_345\n      jump\t// in\n    tag_563:\n        /* \"#utility.yul\":12789:12839   */\n      swap1\n      pop\n        /* \"#utility.yul\":12705:12845   */\n      swap2\n      swap1\n      pop\n      jump\t// out\n        /* \"#utility.yul\":12851:13010   */\n    tag_370:\n        /* \"#utility.yul\":12952:13003   */\n      tag_565\n        /* \"#utility.yul\":12997:13002   */\n      dup2\n        /* \"#utility.yul\":12952:13003   */\n      tag_369\n      jump\t// in\n    tag_565:\n        /* \"#utility.yul\":12947:12950   */\n      dup3\n        /* \"#utility.yul\":12940:13004   */\n      mstore\n        /* \"#utility.yul\":12851:13010   */\n      pop\n      pop\n      jump\t// out\n        /* \"#utility.yul\":13016:13266   */\n    tag_106:\n        /* \"#utility.yul\":13123:13127   */\n      0x00\n        /* \"#utility.yul\":13161:13163   */\n      0x20\n        /* \"#utility.yul\":13150:13159   */\n      dup3\n        /* \"#utility.yul\":13146:13164   */\n      add\n        /* \"#utility.yul\":13138:13164   */\n      swap1\n      pop\n        /* \"#utility.yul\":13174:13259   */\n      tag_567\n        /* \"#utility.yul\":13256:13257   */\n      0x00\n        /* \"#utility.yul\":13245:13254   */\n      dup4\n        /* \"#utility.yul\":13241:13258   */\n      add\n        /* \"#utility.yul\":13232:13238   */\n      dup5\n        /* \"#utility.yul\":13174:13259   */\n      tag_370\n      jump\t// in\n    tag_567:\n        /* \"#utility.yul\":13016:13266   */\n      swap3\n      swap2\n      pop\n      pop\n      jump\t// out\n        /* \"#utility.yul\":13272:13441   */\n    tag_371:\n        /* \"#utility.yul\":13356:13367   */\n      0x00\n        /* \"#utility.yul\":13390:13396   */\n      dup3\n        /* \"#utility.yul\":13385:13388   */\n      dup3\n        /* \"#utility.yul\":13378:13397   */\n      mstore\n        /* \"#utility.yul\":13430:13434   */\n      0x20\n        /* \"#utility.yul\":13425:13428   */\n      dup3\n        /* \"#utility.yul\":13421:13435   */\n      add\n        /* \"#utility.yul\":13406:13435   */\n      swap1\n      pop\n        /* \"#utility.yul\":13272:13441   */\n      swap3\n      swap2\n      pop\n      pop\n      jump\t// out\n        /* \"#utility.yul\":13447:13617   */\n    tag_372:\n        /* \"#utility.yul\":13587:13609   */\n      0x496e76616c69642064656e6f6d696e6174696f6e000000000000000000000000\n        /* \"#utility.yul\":13583:13584   */\n      0x00\n        /* \"#utility.yul\":13575:13581   */\n      dup3\n        /* \"#utility.yul\":13571:13585   */\n      add\n        /* \"#utility.yul\":13564:13610   */\n      mstore\n        /* \"#utility.yul\":13447:13617   */\n      pop\n      jump\t// out\n        /* \"#utility.yul\":13623:13989   */\n    tag_373:\n        /* \"#utility.yul\":13765:13768   */\n      0x00\n        /* \"#utility.yul\":13786:13853   */\n      tag_571\n        /* \"#utility.yul\":13850:13852   */\n      0x14\n        /* \"#utility.yul\":13845:13848   */\n      dup4\n        /* \"#utility.yul\":13786:13853   */\n      tag_371\n      jump\t// in\n    tag_571:\n        /* \"#utility.yul\":13779:13853   */\n      swap2\n      pop\n        /* \"#utility.yul\":13862:13955   */\n      tag_572\n        /* \"#utility.yul\":13951:13954   */\n      dup3\n        /* \"#utility.yul\":13862:13955   */\n      tag_372\n      jump\t// in\n    tag_572:\n        /* \"#utility.yul\":13980:13982   */\n      0x20\n        /* \"#utility.yul\":13975:13978   */\n      dup3\n        /* \"#utility.yul\":13971:13983   */\n      add\n        /* \"#utility.yul\":13964:13983   */\n      swap1\n      pop\n        /* \"#utility.yul\":13623:13989   */\n      swap2\n      swap1\n      pop\n      jump\t// out\n        /* \"#utility.yul\":13995:14414   */\n    tag_119:\n        /* \"#utility.yul\":14161:14165   */\n      0x00\n        /* \"#utility.yul\":14199:14201   */\n      0x20\n        /* \"#utility.yul\":14188:14197   */\n      dup3\n        /* \"#utility.yul\":14184:14202   */\n      add\n        /* \"#utility.yul\":14176:14202   */\n      swap1\n      pop\n        /* \"#utility.yul\":14248:14257   */\n      dup2\n        /* \"#utility.yul\":14242:14246   */\n      dup2\n        /* \"#utility.yul\":14238:14258   */\n      sub\n        /* \"#utility.yul\":14234:14235   */\n      0x00\n        /* \"#utility.yul\":14223:14232   */\n      dup4\n        /* \"#utility.yul\":14219:14236   */\n      add\n        /* \"#utility.yul\":14212:14259   */\n      mstore\n        /* \"#utility.yul\":14276:14407   */\n      tag_574\n        /* \"#utility.yul\":14402:14406   */\n      dup2\n        /* \"#utility.yul\":14276:14407   */\n      tag_373\n      jump\t// in\n    tag_574:\n        /* \"#utility.yul\":14268:14407   */\n      swap1\n      pop\n        /* \"#utility.yul\":13995:14414   */\n      swap2\n      swap1\n      pop\n      jump\t// out\n        /* \"#utility.yul\":14420:14600   */\n    tag_374:\n        /* \"#utility.yul\":14468:14545   */\n      0x4e487b7100000000000000000000000000000000000000000000000000000000\n        /* \"#utility.yul\":14465:14466   */\n      0x00\n        /* \"#utility.yul\":14458:14546   */\n      mstore\n        /* \"#utility.yul\":14565:14569   */\n      0x11\n        /* \"#utility.yul\":14562:14563   */\n      0x04\n        /* \"#utility.yul\":14555:14570   */\n      mstore\n        /* \"#utility.yul\":14589:14593   */\n      0x24\n        /* \"#utility.yul\":14586:14587   */\n      0x00\n        /* \"#utility.yul\":14579:14594   */\n      revert\n        /* \"#utility.yul\":14606:14708   */\n    tag_375:\n        /* \"#utility.yul\":14648:14656   */\n      0x00\n        /* \"#utility.yul\":14695:14700   */\n      dup2\n        /* \"#utility.yul\":14692:14693   */\n      0x01\n        /* \"#utility.yul\":14688:14701   */\n      shr\n        /* \"#utility.yul\":14667:14701   */\n      swap1\n      pop\n        /* \"#utility.yul\":14606:14708   */\n      swap2\n      swap1\n      pop\n      jump\t// out\n        /* \"#utility.yul\":14714:15562   */\n    tag_376:\n        /* \"#utility.yul\":14775:14780   */\n      0x00\n        /* \"#utility.yul\":14782:14786   */\n      dup1\n        /* \"#utility.yul\":14806:14812   */\n      dup3\n        /* \"#utility.yul\":14797:14812   */\n      swap2\n      pop\n        /* \"#utility.yul\":14830:14835   */\n      dup4\n        /* \"#utility.yul\":14821:14835   */\n      swap1\n      pop\n        /* \"#utility.yul\":14844:15556   */\n    tag_578:\n        /* \"#utility.yul\":14865:14866   */\n      0x01\n        /* \"#utility.yul\":14855:14863   */\n      dup6\n        /* \"#utility.yul\":14852:14867   */\n      gt\n        /* \"#utility.yul\":14844:15556   */\n      iszero\n      tag_580\n      jumpi\n        /* \"#utility.yul\":14960:14964   */\n      dup1\n        /* \"#utility.yul\":14955:14958   */\n      dup7\n        /* \"#utility.yul\":14951:14965   */\n      div\n        /* \"#utility.yul\":14945:14949   */\n      dup2\n        /* \"#utility.yul\":14942:14966   */\n      gt\n        /* \"#utility.yul\":14939:14989   */\n      iszero\n      tag_581\n      jumpi\n        /* \"#utility.yul\":14969:14987   */\n      tag_582\n      tag_374\n      jump\t// in\n    tag_582:\n        /* \"#utility.yul\":14939:14989   */\n    tag_581:\n        /* \"#utility.yul\":15019:15020   */\n      0x01\n        /* \"#utility.yul\":15009:15017   */\n      dup6\n        /* \"#utility.yul\":15005:15021   */\n      and\n        /* \"#utility.yul\":15002:15453   */\n      iszero\n      tag_583\n      jumpi\n        /* \"#utility.yul\":15434:15438   */\n      dup1\n        /* \"#utility.yul\":15427:15432   */\n      dup3\n        /* \"#utility.yul\":15423:15439   */\n      mul\n        /* \"#utility.yul\":15414:15439   */\n      swap2\n      pop\n        /* \"#utility.yul\":15002:15453   */\n    tag_583:\n        /* \"#utility.yul\":15484:15488   */\n      dup1\n        /* \"#utility.yul\":15478:15482   */\n      dup2\n        /* \"#utility.yul\":15474:15489   */\n      mul\n        /* \"#utility.yul\":15466:15489   */\n      swap1\n      pop\n        /* \"#utility.yul\":15514:15546   */\n      tag_584\n        /* \"#utility.yul\":15537:15545   */\n      dup6\n        /* \"#utility.yul\":15514:15546   */\n      tag_375\n      jump\t// in\n    tag_584:\n        /* \"#utility.yul\":15502:15546   */\n      swap5\n      pop\n        /* \"#utility.yul\":14844:15556   */\n      jump(tag_578)\n    tag_580:\n        /* \"#utility.yul\":14714:15562   */\n      swap5\n      pop\n      swap5\n      swap3\n      pop\n      pop\n      pop\n      jump\t// out\n        /* \"#utility.yul\":15568:16641   */\n    tag_377:\n        /* \"#utility.yul\":15622:15627   */\n      0x00\n        /* \"#utility.yul\":15813:15821   */\n      dup3\n        /* \"#utility.yul\":15803:15843   */\n      tag_586\n      jumpi\n        /* \"#utility.yul\":15834:15835   */\n      0x01\n        /* \"#utility.yul\":15825:15835   */\n      swap1\n      pop\n        /* \"#utility.yul\":15836:15841   */\n      jump(tag_585)\n        /* \"#utility.yul\":15803:15843   */\n    tag_586:\n        /* \"#utility.yul\":15862:15866   */\n      dup2\n        /* \"#utility.yul\":15852:15888   */\n      tag_587\n      jumpi\n        /* \"#utility.yul\":15879:15880   */\n      0x00\n        /* \"#utility.yul\":15870:15880   */\n      swap1\n      pop\n        /* \"#utility.yul\":15881:15886   */\n      jump(tag_585)\n        /* \"#utility.yul\":15852:15888   */\n    tag_587:\n        /* \"#utility.yul\":15948:15952   */\n      dup2\n        /* \"#utility.yul\":15996:15997   */\n      0x01\n        /* \"#utility.yul\":15991:16018   */\n      dup2\n      eq\n      tag_589\n      jumpi\n        /* \"#utility.yul\":16032:16033   */\n      0x02\n        /* \"#utility.yul\":16027:16218   */\n      dup2\n      eq\n      tag_590\n      jumpi\n        /* \"#utility.yul\":15941:16218   */\n      jump(tag_588)\n        /* \"#utility.yul\":15991:16018   */\n    tag_589:\n        /* \"#utility.yul\":16009:16010   */\n      0x01\n        /* \"#utility.yul\":16000:16010   */\n      swap2\n      pop\n        /* \"#utility.yul\":16011:16016   */\n      pop\n      jump(tag_585)\n        /* \"#utility.yul\":16027:16218   */\n    tag_590:\n        /* \"#utility.yul\":16072:16075   */\n      0xff\n        /* \"#utility.yul\":16062:16070   */\n      dup5\n        /* \"#utility.yul\":16059:16076   */\n      gt\n        /* \"#utility.yul\":16056:16099   */\n      iszero\n      tag_591\n      jumpi\n        /* \"#utility.yul\":16079:16097   */\n      tag_592\n      tag_374\n      jump\t// in\n    tag_592:\n        /* \"#utility.yul\":16056:16099   */\n    tag_591:\n        /* \"#utility.yul\":16128:16136   */\n      dup4\n        /* \"#utility.yul\":16125:16126   */\n      0x02\n        /* \"#utility.yul\":16121:16137   */\n      exp\n        /* \"#utility.yul\":16112:16137   */\n      swap2\n      pop\n        /* \"#utility.yul\":16163:16166   */\n      dup5\n        /* \"#utility.yul\":16156:16161   */\n      dup3\n        /* \"#utility.yul\":16153:16167   */\n      gt\n        /* \"#utility.yul\":16150:16190   */\n      iszero\n      tag_593\n      jumpi\n        /* \"#utility.yul\":16170:16188   */\n      tag_594\n      tag_374\n      jump\t// in\n    tag_594:\n        /* \"#utility.yul\":16150:16190   */\n    tag_593:\n        /* \"#utility.yul\":16203:16208   */\n      pop\n      jump(tag_585)\n        /* \"#utility.yul\":15941:16218   */\n    tag_588:\n      pop\n        /* \"#utility.yul\":16327:16329   */\n      0x20\n        /* \"#utility.yul\":16317:16325   */\n      dup4\n        /* \"#utility.yul\":16314:16330   */\n      lt\n        /* \"#utility.yul\":16308:16311   */\n      0x0133\n        /* \"#utility.yul\":16302:16306   */\n      dup4\n        /* \"#utility.yul\":16299:16312   */\n      lt\n        /* \"#utility.yul\":16295:16331   */\n      and\n        /* \"#utility.yul\":16277:16279   */\n      0x4e\n        /* \"#utility.yul\":16267:16275   */\n      dup5\n        /* \"#utility.yul\":16264:16280   */\n      lt\n        /* \"#utility.yul\":16259:16261   */\n      0x0b\n        /* \"#utility.yul\":16253:16257   */\n      dup5\n        /* \"#utility.yul\":16250:16262   */\n      lt\n        /* \"#utility.yul\":16246:16281   */\n      and\n        /* \"#utility.yul\":16230:16341   */\n      or\n        /* \"#utility.yul\":16227:16473   */\n      iszero\n      tag_595\n      jumpi\n        /* \"#utility.yul\":16383:16391   */\n      dup3\n        /* \"#utility.yul\":16377:16381   */\n      dup3\n        /* \"#utility.yul\":16373:16392   */\n      exp\n        /* \"#utility.yul\":16364:16392   */\n      swap1\n      pop\n        /* \"#utility.yul\":16418:16421   */\n      dup4\n        /* \"#utility.yul\":16411:16416   */\n      dup2\n        /* \"#utility.yul\":16408:16422   */\n      gt\n        /* \"#utility.yul\":16405:16445   */\n      iszero\n      tag_596\n      jumpi\n        /* \"#utility.yul\":16425:16443   */\n      tag_597\n      tag_374\n      jump\t// in\n    tag_597:\n        /* \"#utility.yul\":16405:16445   */\n    tag_596:\n        /* \"#utility.yul\":16458:16463   */\n      jump(tag_585)\n        /* \"#utility.yul\":16227:16473   */\n    tag_595:\n        /* \"#utility.yul\":16498:16540   */\n      tag_598\n        /* \"#utility.yul\":16536:16539   */\n      dup5\n        /* \"#utility.yul\":16526:16534   */\n      dup5\n        /* \"#utility.yul\":16520:16524   */\n      dup5\n        /* \"#utility.yul\":16517:16518   */\n      0x01\n        /* \"#utility.yul\":16498:16540   */\n      tag_376\n      jump\t// in\n    tag_598:\n        /* \"#utility.yul\":16483:16540   */\n      swap3\n      pop\n      swap1\n      pop\n        /* \"#utility.yul\":16572:16576   */\n      dup2\n        /* \"#utility.yul\":16567:16570   */\n      dup5\n        /* \"#utility.yul\":16563:16577   */\n      div\n        /* \"#utility.yul\":16556:16561   */\n      dup2\n        /* \"#utility.yul\":16553:16578   */\n      gt\n        /* \"#utility.yul\":16550:16601   */\n      iszero\n      tag_599\n      jumpi\n        /* \"#utility.yul\":16581:16599   */\n      tag_600\n      tag_374\n      jump\t// in\n    tag_600:\n        /* \"#utility.yul\":16550:16601   */\n    tag_599:\n        /* \"#utility.yul\":16630:16634   */\n      dup2\n        /* \"#utility.yul\":16623:16628   */\n      dup2\n        /* \"#utility.yul\":16619:16635   */\n      mul\n        /* \"#utility.yul\":16610:16635   */\n      swap1\n      pop\n        /* \"#utility.yul\":15568:16641   */\n    tag_585:\n      swap4\n      swap3\n      pop\n      pop\n      pop\n      jump\t// out\n        /* \"#utility.yul\":16647:16932   */\n    tag_121:\n        /* \"#utility.yul\":16707:16712   */\n      0x00\n        /* \"#utility.yul\":16731:16754   */\n      tag_602\n        /* \"#utility.yul\":16749:16753   */\n      dup3\n        /* \"#utility.yul\":16731:16754   */\n      tag_335\n      jump\t// in\n    tag_602:\n        /* \"#utility.yul\":16723:16754   */\n      swap2\n      pop\n        /* \"#utility.yul\":16775:16802   */\n      tag_603\n        /* \"#utility.yul\":16793:16801   */\n      dup4\n        /* \"#utility.yul\":16775:16802   */\n      tag_335\n      jump\t// in\n    tag_603:\n        /* \"#utility.yul\":16763:16802   */\n      swap3\n      pop\n        /* \"#utility.yul\":16821:16925   */\n      tag_604\n        /* \"#utility.yul\":16858:16924   */\n      0xffffffffffffffffffffffffffffffffffffffffffffffffffffffffffffffff\n        /* \"#utility.yul\":16848:16856   */\n      dup5\n        /* \"#utility.yul\":16842:16846   */\n      dup5\n        /* \"#utility.yul\":16821:16925   */\n      tag_377\n      jump\t// in\n    tag_604:\n        /* \"#utility.yul\":16812:16925   */\n      swap1\n      pop\n        /* \"#utility.yul\":16647:16932   */\n      swap3\n      swap2\n      pop\n      pop\n      jump\t// out\n        /* \"#utility.yul\":16938:17097   */\n    tag_378:\n        /* \"#utility.yul\":17078:17089   */\n      0x547265652066756c6c0000000000000000000000000000000000000000000000\n        /* \"#utility.yul\":17074:17075   */\n      0x00\n        /* \"#utility.yul\":17066:17072   */\n      dup3\n        /* \"#utility.yul\":17062:17076   */\n      add\n        /* \"#utility.yul\":17055:17090   */\n      mstore\n        /* \"#utility.yul\":16938:17097   */\n      pop\n      jump\t// out\n        /* \"#utility.yul\":17103:17468   */\n    tag_379:\n        /* \"#utility.yul\":17245:17248   */\n      0x00\n        /* \"#utility.yul\":17266:17332   */\n      tag_607\n        /* \"#utility.yul\":17330:17331   */\n      0x09\n        /* \"#utility.yul\":17325:17328   */\n      dup4\n        /* \"#utility.yul\":17266:17332   */\n      tag_371\n      jump\t// in\n    tag_607:\n        /* \"#utility.yul\":17259:17332   */\n      swap2\n      pop\n        /* \"#utility.yul\":17341:17434   */\n      tag_608\n        /* \"#utility.yul\":17430:17433   */\n      dup3\n        /* \"#utility.yul\":17341:17434   */\n      tag_378\n      jump\t// in\n    tag_608:\n        /* \"#utility.yul\":17459:17461   */\n      0x20\n        /* \"#utility.yul\":17454:17457   */\n      dup3\n        /* \"#utility.yul\":17450:17462   */\n      add\n        /* \"#utility.yul\":17443:17462   */\n      swap1\n      pop\n        /* \"#utility.yul\":17103:17468   */\n      swap2\n      swap1\n      pop\n      jump\t// out\n        /* \"#utility.yul\":17474:17893   */\n    tag_124:\n        /* \"#utility.yul\":17640:17644   */\n      0x00\n        /* \"#utility.yul\":17678:17680   */\n      0x20\n        /* \"#utility.yul\":17667:17676   */\n      dup3\n        /* \"#utility.yul\":17663:17681   */\n      add\n        /* \"#utility.yul\":17655:17681   */\n      swap1\n      pop\n        /* \"#utility.yul\":17727:17736   */\n      dup2\n        /* \"#utility.yul\":17721:17725   */\n      dup2\n        /* \"#utility.yul\":17717:17737   */\n      sub\n        /* \"#utility.yul\":17713:17714   */\n      0x00\n        /* \"#utility.yul\":17702:17711   */\n      dup4\n        /* \"#utility.yul\":17698:17715   */\n      add\n        /* \"#utility.yul\":17691:17738   */\n      mstore\n        /* \"#utility.yul\":17755:17886   */\n      tag_610\n        /* \"#utility.yul\":17881:17885   */\n      dup2\n        /* \"#utility.yul\":17755:17886   */\n      tag_379\n      jump\t// in\n    tag_610:\n        /* \"#utility.yul\":17747:17886   */\n      swap1\n      pop\n        /* \"#utility.yul\":17474:17893   */\n      swap2\n      swap1\n      pop\n      jump\t// out\n        /* \"#utility.yul\":17899:18341   */\n    tag_126:\n        /* \"#utility.yul\":18048:18052   */\n      0x00\n        /* \"#utility.yul\":18086:18088   */\n      0x60\n        /* \"#utility.yul\":18075:18084   */\n      dup3\n        /* \"#utility.yul\":18071:18089   */\n      add\n        /* \"#utility.yul\":18063:18089   */\n      swap1\n      pop\n        /* \"#utility.yul\":18099:18170   */\n      tag_612\n        /* \"#utility.yul\":18167:18168   */\n      0x00\n        /* \"#utility.yul\":18156:18165   */\n      dup4\n        /* \"#utility.yul\":18152:18169   */\n      add\n        /* \"#utility.yul\":18143:18149   */\n      dup7\n        /* \"#utility.yul\":18099:18170   */\n      tag_361\n      jump\t// in\n    tag_612:\n        /* \"#utility.yul\":18180:18252   */\n      tag_613\n        /* \"#utility.yul\":18248:18250   */\n      0x20\n        /* \"#utility.yul\":18237:18246   */\n      dup4\n        /* \"#utility.yul\":18233:18251   */\n      add\n        /* \"#utility.yul\":18224:18230   */\n      dup6\n        /* \"#utility.yul\":18180:18252   */\n      tag_361\n      jump\t// in\n    tag_613:\n        /* \"#utility.yul\":18262:18334   */\n      tag_614\n        /* \"#utility.yul\":18330:18332   */\n      0x40\n        /* \"#utility.yul\":18319:18328   */\n      dup4\n        /* \"#utility.yul\":18315:18333   */\n      add\n        /* \"#utility.yul\":18306:18312   */\n      dup5\n        /* \"#utility.yul\":18262:18334   */\n      tag_348\n      jump\t// in\n    tag_614:\n        /* \"#utility.yul\":17899:18341   */\n      swap5\n      swap4\n      pop\n      pop\n      pop\n      pop\n      jump\t// out\n        /* \"#utility.yul\":18347:18463   */\n    tag_380:\n        /* \"#utility.yul\":18417:18438   */\n      tag_616\n        /* \"#utility.yul\":18432:18437   */\n      dup2\n        /* \"#utility.yul\":18417:18438   */\n      tag_333\n      jump\t// in\n    tag_616:\n        /* \"#utility.yul\":18410:18415   */\n      dup2\n        /* \"#utility.yul\":18407:18439   */\n      eq\n        /* \"#utility.yul\":18397:18457   */\n      tag_617\n      jumpi\n        /* \"#utility.yul\":18453:18454   */\n      0x00\n        /* \"#utility.yul\":18450:18451   */\n      dup1\n        /* \"#utility.yul\":18443:18455   */\n      revert\n        /* \"#utility.yul\":18397:18457   */\n    tag_617:\n        /* \"#utility.yul\":18347:18463   */\n      pop\n      jump\t// out\n        /* \"#utility.yul\":18469:18606   */\n    tag_381:\n        /* \"#utility.yul\":18523:18528   */\n      0x00\n        /* \"#utility.yul\":18554:18560   */\n      dup2\n        /* \"#utility.yul\":18548:18561   */\n      mload\n        /* \"#utility.yul\":18539:18561   */\n      swap1\n      pop\n        /* \"#utility.yul\":18570:18600   */\n      tag_619\n        /* \"#utility.yul\":18594:18599   */\n      dup2\n        /* \"#utility.yul\":18570:18600   */\n      tag_380\n      jump\t// in\n    tag_619:\n        /* \"#utility.yul\":18469:18606   */\n      swap3\n      swap2\n      pop\n      pop\n      jump\t// out\n        /* \"#utility.yul\":18612:18957   */\n    tag_130:\n        /* \"#utility.yul\":18679:18685   */\n      0x00\n        /* \"#utility.yul\":18728:18730   */\n      0x20\n        /* \"#utility.yul\":18716:18725   */\n      dup3\n        /* \"#utility.yul\":18707:18714   */\n      dup5\n        /* \"#utility.yul\":18703:18726   */\n      sub\n        /* \"#utility.yul\":18699:18731   */\n      slt\n        /* \"#utility.yul\":18696:18815   */\n      iszero\n      tag_621\n      jumpi\n        /* \"#utility.yul\":18734:18813   */\n      tag_622\n      tag_328\n      jump\t// in\n    tag_622:\n        /* \"#utility.yul\":18696:18815   */\n    tag_621:\n        /* \"#utility.yul\":18854:18855   */\n      0x00\n        /* \"#utility.yul\":18879:18940   */\n      tag_623\n        /* \"#utility.yul\":18932:18939   */\n      dup5\n        /* \"#utility.yul\":18923:18929   */\n      dup3\n        /* \"#utility.yul\":18912:18921   */\n      dup6\n        /* \"#utility.yul\":18908:18930   */\n      add\n        /* \"#utility.yul\":18879:18940   */\n      tag_381\n      jump\t// in\n    tag_623:\n        /* \"#utility.yul\":18869:18940   */\n      swap2\n      pop\n        /* \"#utility.yul\":18825:18950   */\n      pop\n        /* \"#utility.yul\":18612:18957   */\n      swap3\n      swap2\n      pop\n      pop\n      jump\t// out\n        /* \"#utility.yul\":18963:19143   */\n    tag_245:\n        /* \"#utility.yul\":19011:19088   */\n      0x4e487b7100000000000000000000000000000000000000000000000000000000\n        /* \"#utility.yul\":19008:19009   */\n      0x00\n        /* \"#utility.yul\":19001:19089   */\n      mstore\n        /* \"#utility.yul\":19108:19112   */\n      0x41\n        /* \"#utility.yul\":19105:19106   */\n      0x04\n        /* \"#utility.yul\":19098:19113   */\n      mstore\n        /* \"#utility.yul\":19132:19136   */\n      0x24\n        /* \"#utility.yul\":19129:19130   */\n      0x00\n        /* \"#utility.yul\":19122:19137   */\n      revert\n        /* \"#utility.yul\":19149:19329   */\n    tag_382:\n        /* \"#utility.yul\":19197:19274   */\n      0x4e487b7100000000000000000000000000000000000000000000000000000000\n        /* \"#utility.yul\":19194:19195   */\n      0x00\n        /* \"#utility.yul\":19187:19275   */\n      mstore\n        /* \"#utility.yul\":19294:19298   */\n      0x22\n        /* \"#utility.yul\":19291:19292   */\n      0x04\n        /* \"#utility.yul\":19284:19299   */\n      mstore\n        /* \"#utility.yul\":19318:19322   */\n      0x24\n        /* \"#utility.yul\":19315:19316   */\n      0x00\n        /* \"#utility.yul\":19308:19323   */\n      revert\n        /* \"#utility.yul\":19335:19655   */\n    tag_169:\n        /* \"#utility.yul\":19379:19385   */\n      0x00\n        /* \"#utility.yul\":19416:19417   */\n      0x02\n        /* \"#utility.yul\":19410:19414   */\n      dup3\n        /* \"#utility.yul\":19406:19418   */\n      div\n        /* \"#utility.yul\":19396:19418   */\n      swap1\n      pop\n        /* \"#utility.yul\":19463:19464   */\n      0x01\n        /* \"#utility.yul\":19457:19461   */\n      dup3\n        /* \"#utility.yul\":19453:19465   */\n      and\n        /* \"#utility.yul\":19484:19502   */\n      dup1\n        /* \"#utility.yul\":19474:19555   */\n      tag_627\n      jumpi\n        /* \"#utility.yul\":19540:19544   */\n      0x7f\n        /* \"#utility.yul\":19532:19538   */\n      dup3\n        /* \"#utility.yul\":19528:19545   */\n      and\n        /* \"#utility.yul\":19518:19545   */\n      swap2\n      pop\n        /* \"#utility.yul\":19474:19555   */\n    tag_627:\n        /* \"#utility.yul\":19602:19604   */\n      0x20\n        /* \"#utility.yul\":19594:19600   */\n      dup3\n        /* \"#utility.yul\":19591:19605   */\n      lt\n        /* \"#utility.yul\":19571:19589   */\n      dup2\n        /* \"#utility.yul\":19568:19606   */\n      sub\n        /* \"#utility.yul\":19565:19649   */\n      tag_628\n      jumpi\n        /* \"#utility.yul\":19621:19639   */\n      tag_629\n      tag_382\n      jump\t// in\n    tag_629:\n        /* \"#utility.yul\":19565:19649   */\n    tag_628:\n        /* \"#utility.yul\":19386:19655   */\n      pop\n        /* \"#utility.yul\":19335:19655   */\n      swap2\n      swap1\n      pop\n      jump\t// out\n        /* \"#utility.yul\":19661:19801   */\n    tag_383:\n        /* \"#utility.yul\":19709:19713   */\n      0x00\n        /* \"#utility.yul\":19732:19735   */\n      dup2\n        /* \"#utility.yul\":19724:19735   */\n      swap1\n      pop\n        /* \"#utility.yul\":19755:19758   */\n      dup2\n        /* \"#utility.yul\":19752:19753   */\n      0x00\n        /* \"#utility.yul\":19745:19759   */\n      mstore\n        /* \"#utility.yul\":19789:19793   */\n      0x20\n        /* \"#utility.yul\":19786:19787   */\n      0x00\n        /* \"#utility.yul\":19776:19794   */\n      keccak256\n        /* \"#utility.yul\":19768:19794   */\n      swap1\n      pop\n        /* \"#utility.yul\":19661:19801   */\n      swap2\n      swap1\n      pop\n      jump\t// out\n        /* \"#utility.yul\":19807:19900   */\n    tag_384:\n        /* \"#utility.yul\":19844:19850   */\n      0x00\n        /* \"#utility.yul\":19891:19893   */\n      0x20\n        /* \"#utility.yul\":19886:19888   */\n      0x1f\n        /* \"#utility.yul\":19879:19884   */\n      dup4\n        /* \"#utility.yul\":19875:19889   */\n      add\n        /* \"#utility.yul\":19871:19894   */\n      div\n        /* \"#utility.yul\":19861:19894   */\n      swap1\n      pop\n        /* \"#utility.yul\":19807:19900   */\n      swap2\n      swap1\n      pop\n      jump\t// out\n        /* \"#utility.yul\":19906:20013   */\n    tag_385:\n        /* \"#utility.yul\":19950:19958   */\n      0x00\n        /* \"#utility.yul\":20000:20005   */\n      dup3\n        /* \"#utility.yul\":19994:19998   */\n      dup3\n        /* \"#utility.yul\":19990:20006   */\n      shl\n        /* \"#utility.yul\":19969:20006   */\n      swap1\n      pop\n        /* \"#utility.yul\":19906:20013   */\n      swap3\n      swap2\n      pop\n      pop\n      jump\t// out\n        /* \"#utility.yul\":20019:20412   */\n    tag_386:\n        /* \"#utility.yul\":20088:20094   */\n      0x00\n        /* \"#utility.yul\":20138:20139   */\n      0x08\n        /* \"#utility.yul\":20126:20136   */\n      dup4\n        /* \"#utility.yul\":20122:20140   */\n      mul\n        /* \"#utility.yul\":20161:20258   */\n      tag_634\n        /* \"#utility.yul\":20191:20257   */\n      0xffffffffffffffffffffffffffffffffffffffffffffffffffffffffffffffff\n        /* \"#utility.yul\":20180:20189   */\n      dup3\n        /* \"#utility.yul\":20161:20258   */\n      tag_385\n      jump\t// in\n    tag_634:\n        /* \"#utility.yul\":20279:20318   */\n      tag_635\n        /* \"#utility.yul\":20309:20317   */\n      dup7\n        /* \"#utility.yul\":20298:20307   */\n      dup4\n        /* \"#utility.yul\":20279:20318   */\n      tag_385\n      jump\t// in\n    tag_635:\n        /* \"#utility.yul\":20267:20318   */\n      swap6\n      pop\n        /* \"#utility.yul\":20351:20355   */\n      dup1\n        /* \"#utility.yul\":20347:20356   */\n      not\n        /* \"#utility.yul\":20340:20345   */\n      dup5\n        /* \"#utility.yul\":20336:20357   */\n      and\n        /* \"#utility.yul\":20327:20357   */\n      swap4\n      pop\n        /* \"#utility.yul\":20400:20404   */\n      dup1\n        /* \"#utility.yul\":20390:20398   */\n      dup7\n        /* \"#utility.yul\":20386:20405   */\n      and\n        /* \"#utility.yul\":20379:20384   */\n      dup5\n        /* \"#utility.yul\":20376:20406   */\n      or\n        /* \"#utility.yul\":20366:20406   */\n      swap3\n      pop\n        /* \"#utility.yul\":20095:20412   */\n      pop\n      pop\n        /* \"#utility.yul\":20019:20412   */\n      swap4\n      swap3\n      pop\n      pop\n      pop\n      jump\t// out\n        /* \"#utility.yul\":20418:20560   */\n    tag_387:\n        /* \"#utility.yul\":20468:20477   */\n      0x00\n        /* \"#utility.yul\":20501:20554   */\n      tag_637\n        /* \"#utility.yul\":20519:20553   */\n      tag_638\n        /* \"#utility.yul\":20528:20552   */\n      tag_639\n        /* \"#utility.yul\":20546:20551   */\n      dup5\n        /* \"#utility.yul\":20528:20552   */\n      tag_335\n      jump\t// in\n    tag_639:\n        /* \"#utility.yul\":20519:20553   */\n      tag_343\n      jump\t// in\n    tag_638:\n        /* \"#utility.yul\":20501:20554   */\n      tag_335\n      jump\t// in\n    tag_637:\n        /* \"#utility.yul\":20488:20554   */\n      swap1\n      pop\n        /* \"#utility.yul\":20418:20560   */\n      swap2\n      swap1\n      pop\n      jump\t// out\n        /* \"#utility.yul\":20566:20641   */\n    tag_388:\n        /* \"#utility.yul\":20609:20612   */\n      0x00\n        /* \"#utility.yul\":20630:20635   */\n      dup2\n        /* \"#utility.yul\":20623:20635   */\n      swap1\n      pop\n        /* \"#utility.yul\":20566:20641   */\n      swap2\n      swap1\n      pop\n      jump\t// out\n        /* \"#utility.yul\":20647:20916   */\n    tag_389:\n        /* \"#utility.yul\":20757:20796   */\n      tag_642\n        /* \"#utility.yul\":20788:20795   */\n      dup4\n        /* \"#utility.yul\":20757:20796   */\n      tag_387\n      jump\t// in\n    tag_642:\n        /* \"#utility.yul\":20818:20909   */\n      tag_643\n        /* \"#utility.yul\":20867:20908   */\n      tag_644\n        /* \"#utility.yul\":20891:20907   */\n      dup3\n        /* \"#utility.yul\":20867:20908   */\n      tag_388\n      jump\t// in\n    tag_644:\n        /* \"#utility.yul\":20859:20865   */\n      dup5\n        /* \"#utility.yul\":20852:20856   */\n      dup5\n        /* \"#utility.yul\":20846:20857   */\n      sload\n        /* \"#utility.yul\":20818:20909   */\n      tag_386\n      jump\t// in\n    tag_643:\n        /* \"#utility.yul\":20812:20816   */\n      dup3\n        /* \"#utility.yul\":20805:20910   */\n      sstore\n        /* \"#utility.yul\":20723:20916   */\n      pop\n        /* \"#utility.yul\":20647:20916   */\n      pop\n      pop\n      pop\n      jump\t// out\n        /* \"#utility.yul\":20922:20995   */\n    tag_390:\n        /* \"#utility.yul\":20967:20970   */\n      0x00\n        /* \"#utility.yul\":20922:20995   */\n      swap1\n      jump\t// out\n        /* \"#utility.yul\":21001:21190   */\n    tag_391:\n        /* \"#utility.yul\":21078:21110   */\n      tag_647\n      tag_390\n      jump\t// in\n    tag_647:\n        /* \"#utility.yul\":21119:21184   */\n      tag_648\n        /* \"#utility.yul\":21177:21183   */\n      dup2\n        /* \"#utility.yul\":21169:21175   */\n      dup5\n        /* \"#utility.yul\":21163:21167   */\n      dup5\n        /* \"#utility.yul\":21119:21184   */\n      tag_389\n      jump\t// in\n    tag_648:\n        /* \"#utility.yul\":21054:21190   */\n      pop\n        /* \"#utility.yul\":21001:21190   */\n      pop\n      pop\n      jump\t// out\n        /* \"#utility.yul\":21196:21382   */\n    tag_392:\n        /* \"#utility.yul\":21256:21376   */\n    tag_650:\n        /* \"#utility.yul\":21273:21276   */\n      dup2\n        /* \"#utility.yul\":21266:21271   */\n      dup2\n        /* \"#utility.yul\":21263:21277   */\n      lt\n        /* \"#utility.yul\":21256:21376   */\n      iszero\n      tag_652\n      jumpi\n        /* \"#utility.yul\":21327:21366   */\n      tag_653\n        /* \"#utility.yul\":21364:21365   */\n      0x00\n        /* \"#utility.yul\":21357:21362   */\n      dup3\n        /* \"#utility.yul\":21327:21366   */\n      tag_391\n      jump\t// in\n    tag_653:\n        /* \"#utility.yul\":21300:21301   */\n      0x01\n        /* \"#utility.yul\":21293:21298   */\n      dup2\n        /* \"#utility.yul\":21289:21302   */\n      add\n        /* \"#utility.yul\":21280:21302   */\n      swap1\n      pop\n        /* \"#utility.yul\":21256:21376   */\n      jump(tag_650)\n    tag_652:\n        /* \"#utility.yul\":21196:21382   */\n      pop\n      pop\n      jump\t// out\n        /* \"#utility.yul\":21388:21929   */\n    tag_393:\n        /* \"#utility.yul\":21488:21490   */\n      0x1f\n        /* \"#utility.yul\":21483:21486   */\n      dup3\n        /* \"#utility.yul\":21480:21491   */\n      gt\n        /* \"#utility.yul\":21477:21922   */\n      iszero\n      tag_655\n      jumpi\n        /* \"#utility.yul\":21522:21559   */\n      tag_656\n        /* \"#utility.yul\":21553:21558   */\n      dup2\n        /* \"#utility.yul\":21522:21559   */\n      tag_383\n      jump\t// in\n    tag_656:\n        /* \"#utility.yul\":21605:21634   */\n      tag_657\n        /* \"#utility.yul\":21623:21633   */\n      dup5\n        /* \"#utility.yul\":21605:21634   */\n      tag_384\n      jump\t// in\n    tag_657:\n        /* \"#utility.yul\":21595:21603   */\n      dup2\n        /* \"#utility.yul\":21591:21635   */\n      add\n        /* \"#utility.yul\":21788:21790   */\n      0x20\n        /* \"#utility.yul\":21776:21786   */\n      dup6\n        /* \"#utility.yul\":21773:21791   */\n      lt\n        /* \"#utility.yul\":21770:21819   */\n      iszero\n      tag_658\n      jumpi\n        /* \"#utility.yul\":21809:21817   */\n      dup2\n        /* \"#utility.yul\":21794:21817   */\n      swap1\n      pop\n        /* \"#utility.yul\":21770:21819   */\n    tag_658:\n        /* \"#utility.yul\":21832:21912   */\n      tag_659\n        /* \"#utility.yul\":21888:21910   */\n      tag_660\n        /* \"#utility.yul\":21906:21909   */\n      dup6\n        /* \"#utility.yul\":21888:21910   */\n      tag_384\n      jump\t// in\n    tag_660:\n        /* \"#utility.yul\":21878:21886   */\n      dup4\n        /* \"#utility.yul\":21874:21911   */\n      add\n        /* \"#utility.yul\":21861:21872   */\n      dup3\n        /* \"#utility.yul\":21832:21912   */\n      tag_392\n      jump\t// in\n    tag_659:\n        /* \"#utility.yul\":21492:21922   */\n      pop\n      pop\n        /* \"#utility.yul\":21477:21922   */\n    tag_655:\n        /* \"#utility.yul\":21388:21929   */\n      pop\n      pop\n      pop\n      jump\t// out\n        /* \"#utility.yul\":21935:22052   */\n    tag_394:\n        /* \"#utility.yul\":21989:21997   */\n      0x00\n        /* \"#utility.yul\":22039:22044   */\n      dup3\n        /* \"#utility.yul\":22033:22037   */\n      dup3\n        /* \"#utility.yul\":22029:22045   */\n      shr\n        /* \"#utility.yul\":22008:22045   */\n      swap1\n      pop\n        /* \"#utility.yul\":21935:22052   */\n      swap3\n      swap2\n      pop\n      pop\n      jump\t// out\n        /* \"#utility.yul\":22058:22227   */\n    tag_395:\n        /* \"#utility.yul\":22102:22108   */\n      0x00\n        /* \"#utility.yul\":22135:22186   */\n      tag_663\n        /* \"#utility.yul\":22183:22184   */\n      0x00\n        /* \"#utility.yul\":22179:22185   */\n      not\n        /* \"#utility.yul\":22171:22176   */\n      dup5\n        /* \"#utility.yul\":22168:22169   */\n      0x08\n        /* \"#utility.yul\":22164:22177   */\n      mul\n        /* \"#utility.yul\":22135:22186   */\n      tag_394\n      jump\t// in\n    tag_663:\n        /* \"#utility.yul\":22131:22187   */\n      not\n        /* \"#utility.yul\":22216:22220   */\n      dup1\n        /* \"#utility.yul\":22210:22214   */\n      dup4\n        /* \"#utility.yul\":22206:22221   */\n      and\n        /* \"#utility.yul\":22196:22221   */\n      swap2\n      pop\n        /* \"#utility.yul\":22109:22227   */\n      pop\n        /* \"#utility.yul\":22058:22227   */\n      swap3\n      swap2\n      pop\n      pop\n      jump\t// out\n        /* \"#utility.yul\":22232:22527   */\n    tag_396:\n        /* \"#utility.yul\":22308:22312   */\n      0x00\n        /* \"#utility.yul\":22454:22483   */\n      tag_665\n        /* \"#utility.yul\":22479:22482   */\n      dup4\n        /* \"#utility.yul\":22473:22477   */\n      dup4\n        /* \"#utility.yul\":22454:22483   */\n      tag_395\n      jump\t// in\n    tag_665:\n        /* \"#utility.yul\":22446:22483   */\n      swap2\n      pop\n        /* \"#utility.yul\":22516:22519   */\n      dup3\n        /* \"#utility.yul\":22513:22514   */\n      0x02\n        /* \"#utility.yul\":22509:22520   */\n      mul\n        /* \"#utility.yul\":22503:22507   */\n      dup3\n        /* \"#utility.yul\":22500:22521   */\n      or\n        /* \"#utility.yul\":22492:22521   */\n      swap1\n      pop\n        /* \"#utility.yul\":22232:22527   */\n      swap3\n      swap2\n      pop\n      pop\n      jump\t// out\n        /* \"#utility.yul\":22532:23922   */\n    tag_132:\n        /* \"#utility.yul\":22647:22683   */\n      tag_667\n        /* \"#utility.yul\":22679:22682   */\n      dup3\n        /* \"#utility.yul\":22647:22683   */\n      tag_352\n      jump\t// in\n    tag_667:\n        /* \"#utility.yul\":22748:22766   */\n      0xffffffffffffffff\n        /* \"#utility.yul\":22740:22746   */\n      dup2\n        /* \"#utility.yul\":22737:22767   */\n      gt\n        /* \"#utility.yul\":22734:22790   */\n      iszero\n      tag_668\n      jumpi\n        /* \"#utility.yul\":22770:22788   */\n      tag_669\n      tag_245\n      jump\t// in\n    tag_669:\n        /* \"#utility.yul\":22734:22790   */\n    tag_668:\n        /* \"#utility.yul\":22814:22852   */\n      tag_670\n        /* \"#utility.yul\":22846:22850   */\n      dup3\n        /* \"#utility.yul\":22840:22851   */\n      sload\n        /* \"#utility.yul\":22814:22852   */\n      tag_169\n      jump\t// in\n    tag_670:\n        /* \"#utility.yul\":22899:22965   */\n      tag_671\n        /* \"#utility.yul\":22958:22964   */\n      dup3\n        /* \"#utility.yul\":22950:22956   */\n      dup3\n        /* \"#utility.yul\":22944:22948   */\n      dup6\n        /* \"#utility.yul\":22899:22965   */\n      tag_393\n      jump\t// in\n    tag_671:\n        /* \"#utility.yul\":22992:22993   */\n      0x00\n        /* \"#utility.yul\":23016:23020   */\n      0x20\n        /* \"#utility.yul\":23003:23020   */\n      swap1\n      pop\n        /* \"#utility.yul\":23048:23050   */\n      0x1f\n        /* \"#utility.yul\":23040:23046   */\n      dup4\n        /* \"#utility.yul\":23037:23051   */\n      gt\n        /* \"#utility.yul\":23065:23066   */\n      0x01\n        /* \"#utility.yul\":23060:23677   */\n      dup2\n      eq\n      tag_673\n      jumpi\n        /* \"#utility.yul\":23721:23722   */\n      0x00\n        /* \"#utility.yul\":23738:23744   */\n      dup5\n        /* \"#utility.yul\":23735:23812   */\n      iszero\n      tag_674\n      jumpi\n        /* \"#utility.yul\":23787:23796   */\n      dup3\n        /* \"#utility.yul\":23782:23785   */\n      dup8\n        /* \"#utility.yul\":23778:23797   */\n      add\n        /* \"#utility.yul\":23772:23798   */\n      mload\n        /* \"#utility.yul\":23763:23798   */\n      swap1\n      pop\n        /* \"#utility.yul\":23735:23812   */\n    tag_674:\n        /* \"#utility.yul\":23838:23905   */\n      tag_675\n        /* \"#utility.yul\":23898:23904   */\n      dup6\n        /* \"#utility.yul\":23891:23896   */\n      dup3\n        /* \"#utility.yul\":23838:23905   */\n      tag_396\n      jump\t// in\n    tag_675:\n        /* \"#utility.yul\":23832:23836   */\n      dup7\n        /* \"#utility.yul\":23825:23906   */\n      sstore\n        /* \"#utility.yul\":23694:23916   */\n      pop\n        /* \"#utility.yul\":23030:23916   */\n      jump(tag_672)\n        /* \"#utility.yul\":23060:23677   */\n    tag_673:\n        /* \"#utility.yul\":23112:23116   */\n      0x1f\n        /* \"#utility.yul\":23108:23117   */\n      not\n        /* \"#utility.yul\":23100:23106   */\n      dup5\n        /* \"#utility.yul\":23096:23118   */\n      and\n        /* \"#utility.yul\":23146:23182   */\n      tag_676\n        /* \"#utility.yul\":23177:23181   */\n      dup7\n        /* \"#utility.yul\":23146:23182   */\n      tag_383\n      jump\t// in\n    tag_676:\n        /* \"#utility.yul\":23204:23205   */\n      0x00\n        /* \"#utility.yul\":23218:23426   */\n    tag_677:\n        /* \"#utility.yul\":23232:23239   */\n      dup3\n        /* \"#utility.yul\":23229:23230   */\n      dup2\n        /* \"#utility.yul\":23226:23240   */\n      lt\n        /* \"#utility.yul\":23218:23426   */\n      iszero\n      tag_679\n      jumpi\n        /* \"#utility.yul\":23311:23320   */\n      dup5\n        /* \"#utility.yul\":23306:23309   */\n      dup10\n        /* \"#utility.yul\":23302:23321   */\n      add\n        /* \"#utility.yul\":23296:23322   */\n      mload\n        /* \"#utility.yul\":23288:23294   */\n      dup3\n        /* \"#utility.yul\":23281:23323   */\n      sstore\n        /* \"#utility.yul\":23362:23363   */\n      0x01\n        /* \"#utility.yul\":23354:23360   */\n      dup3\n        /* \"#utility.yul\":23350:23364   */\n      add\n        /* \"#utility.yul\":23340:23364   */\n      swap2\n      pop\n        /* \"#utility.yul\":23409:23411   */\n      0x20\n        /* \"#utility.yul\":23398:23407   */\n      dup6\n        /* \"#utility.yul\":23394:23412   */\n      add\n        /* \"#utility.yul\":23381:23412   */\n      swap5\n      pop\n        /* \"#utility.yul\":23255:23259   */\n      0x20\n        /* \"#utility.yul\":23252:23253   */\n      dup2\n        /* \"#utility.yul\":23248:23260   */\n      add\n        /* \"#utility.yul\":23243:23260   */\n      swap1\n      pop\n        /* \"#utility.yul\":23218:23426   */\n      jump(tag_677)\n    tag_679:\n        /* \"#utility.yul\":23454:23460   */\n      dup7\n        /* \"#utility.yul\":23445:23452   */\n      dup4\n        /* \"#utility.yul\":23442:23461   */\n      lt\n        /* \"#utility.yul\":23439:23618   */\n      iszero\n      tag_680\n      jumpi\n        /* \"#utility.yul\":23512:23521   */\n      dup5\n        /* \"#utility.yul\":23507:23510   */\n      dup10\n        /* \"#utility.yul\":23503:23522   */\n      add\n        /* \"#utility.yul\":23497:23523   */\n      mload\n        /* \"#utility.yul\":23555:23603   */\n      tag_681\n        /* \"#utility.yul\":23597:23601   */\n      0x1f\n        /* \"#utility.yul\":23589:23595   */\n      dup10\n        /* \"#utility.yul\":23585:23602   */\n      and\n        /* \"#utility.yul\":23574:23583   */\n      dup3\n        /* \"#utility.yul\":23555:23603   */\n      tag_395\n      jump\t// in\n    tag_681:\n        /* \"#utility.yul\":23547:23553   */\n      dup4\n        /* \"#utility.yul\":23540:23604   */\n      sstore\n        /* \"#utility.yul\":23462:23618   */\n      pop\n        /* \"#utility.yul\":23439:23618   */\n    tag_680:\n        /* \"#utility.yul\":23664:23665   */\n      0x01\n        /* \"#utility.yul\":23660:23661   */\n      0x02\n        /* \"#utility.yul\":23652:23658   */\n      dup9\n        /* \"#utility.yul\":23648:23662   */\n      mul\n        /* \"#utility.yul\":23644:23666   */\n      add\n        /* \"#utility.yul\":23638:23642   */\n      dup9\n        /* \"#utility.yul\":23631:23667   */\n      sstore\n        /* \"#utility.yul\":23067:23677   */\n      pop\n      pop\n      pop\n        /* \"#utility.yul\":23030:23916   */\n    tag_672:\n      pop\n        /* \"#utility.yul\":22622:23922   */\n      pop\n      pop\n      pop\n        /* \"#utility.yul\":22532:23922   */\n      pop\n      pop\n      jump\t// out\n        /* \"#utility.yul\":23928:24161   */\n    tag_136:\n        /* \"#utility.yul\":23967:23970   */\n      0x00\n        /* \"#utility.yul\":23990:24014   */\n      tag_683\n        /* \"#utility.yul\":24008:24013   */\n      dup3\n        /* \"#utility.yul\":23990:24014   */\n      tag_335\n      jump\t// in\n    tag_683:\n        /* \"#utility.yul\":23981:24014   */\n      swap2\n      pop\n        /* \"#utility.yul\":24036:24102   */\n      0xffffffffffffffffffffffffffffffffffffffffffffffffffffffffffffffff\n        /* \"#utility.yul\":24029:24034   */\n      dup3\n        /* \"#utility.yul\":24026:24103   */\n      sub\n        /* \"#utility.yul\":24023:24126   */\n      tag_684\n      jumpi\n        /* \"#utility.yul\":24106:24124   */\n      tag_685\n      tag_374\n      jump\t// in\n    tag_685:\n        /* \"#utility.yul\":24023:24126   */\n    tag_684:\n        /* \"#utility.yul\":24153:24154   */\n      0x01\n        /* \"#utility.yul\":24146:24151   */\n      dup3\n        /* \"#utility.yul\":24142:24155   */\n      add\n        /* \"#utility.yul\":24135:24155   */\n      swap1\n      pop\n        /* \"#utility.yul\":23928:24161   */\n      swap2\n      swap1\n      pop\n      jump\t// out\n        /* \"#utility.yul\":24167:24495   */\n    tag_138:\n        /* \"#utility.yul\":24286:24290   */\n      0x00\n        /* \"#utility.yul\":24324:24326   */\n      0x40\n        /* \"#utility.yul\":24313:24322   */\n      dup3\n        /* \"#utility.yul\":24309:24327   */\n      add\n        /* \"#utility.yul\":24301:24327   */\n      swap1\n      pop\n        /* \"#utility.yul\":24337:24406   */\n      tag_687\n        /* \"#utility.yul\":24403:24404   */\n      0x00\n        /* \"#utility.yul\":24392:24401   */\n      dup4\n        /* \"#utility.yul\":24388:24405   */\n      add\n        /* \"#utility.yul\":24379:24385   */\n      dup6\n        /* \"#utility.yul\":24337:24406   */\n      tag_351\n      jump\t// in\n    tag_687:\n        /* \"#utility.yul\":24416:24488   */\n      tag_688\n        /* \"#utility.yul\":24484:24486   */\n      0x20\n        /* \"#utility.yul\":24473:24482   */\n      dup4\n        /* \"#utility.yul\":24469:24487   */\n      add\n        /* \"#utility.yul\":24460:24466   */\n      dup5\n        /* \"#utility.yul\":24416:24488   */\n      tag_348\n      jump\t// in\n    tag_688:\n        /* \"#utility.yul\":24167:24495   */\n      swap4\n      swap3\n      pop\n      pop\n      pop\n      jump\t// out\n        /* \"#utility.yul\":24501:24675   */\n    tag_397:\n        /* \"#utility.yul\":24641:24667   */\n      0x44656e6f6d696e6174696f6e206e6f7420656e61626c65640000000000000000\n        /* \"#utility.yul\":24637:24638   */\n      0x00\n        /* \"#utility.yul\":24629:24635   */\n      dup3\n        /* \"#utility.yul\":24625:24639   */\n      add\n        /* \"#utility.yul\":24618:24668   */\n      mstore\n        /* \"#utility.yul\":24501:24675   */\n      pop\n      jump\t// out\n        /* \"#utility.yul\":24681:25047   */\n    tag_398:\n        /* \"#utility.yul\":24823:24826   */\n      0x00\n        /* \"#utility.yul\":24844:24911   */\n      tag_691\n        /* \"#utility.yul\":24908:24910   */\n      0x18\n        /* \"#utility.yul\":24903:24906   */\n      dup4\n        /* \"#utility.yul\":24844:24911   */\n      tag_371\n      jump\t// in\n    tag_691:\n        /* \"#utility.yul\":24837:24911   */\n      swap2\n      pop\n        /* \"#utility.yul\":24920:25013   */\n      tag_692\n        /* \"#utility.yul\":25009:25012   */\n      dup3\n        /* \"#utility.yul\":24920:25013   */\n      tag_397\n      jump\t// in\n    tag_692:\n        /* \"#utility.yul\":25038:25040   */\n      0x20\n        /* \"#utility.yul\":25033:25036   */\n      dup3\n        /* \"#utility.yul\":25029:25041   */\n      add\n        /* \"#utility.yul\":25022:25041   */\n      swap1\n      pop\n        /* \"#utility.yul\":24681:25047   */\n      swap2\n      swap1\n      pop\n      jump\t// out\n        /* \"#utility.yul\":25053:25472   */\n    tag_154:\n        /* \"#utility.yul\":25219:25223   */\n      0x00\n        /* \"#utility.yul\":25257:25259   */\n      0x20\n        /* \"#utility.yul\":25246:25255   */\n      dup3\n        /* \"#utility.yul\":25242:25260   */\n      add\n        /* \"#utility.yul\":25234:25260   */\n      swap1\n      pop\n        /* \"#utility.yul\":25306:25315   */\n      dup2\n        /* \"#utility.yul\":25300:25304   */\n      dup2\n        /* \"#utility.yul\":25296:25316   */\n      sub\n        /* \"#utility.yul\":25292:25293   */\n      0x00\n        /* \"#utility.yul\":25281:25290   */\n      dup4\n        /* \"#utility.yul\":25277:25294   */\n      add\n        /* \"#utility.yul\":25270:25317   */\n      mstore\n        /* \"#utility.yul\":25334:25465   */\n      tag_694\n        /* \"#utility.yul\":25460:25464   */\n      dup2\n        /* \"#utility.yul\":25334:25465   */\n      tag_398\n      jump\t// in\n    tag_694:\n        /* \"#utility.yul\":25326:25465   */\n      swap1\n      pop\n        /* \"#utility.yul\":25053:25472   */\n      swap2\n      swap1\n      pop\n      jump\t// out\n        /* \"#utility.yul\":25478:25649   */\n    tag_156:\n        /* \"#utility.yul\":25517:25520   */\n      0x00\n        /* \"#utility.yul\":25540:25564   */\n      tag_696\n        /* \"#utility.yul\":25558:25563   */\n      dup3\n        /* \"#utility.yul\":25540:25564   */\n      tag_335\n      jump\t// in\n    tag_696:\n        /* \"#utility.yul\":25531:25564   */\n      swap2\n      pop\n        /* \"#utility.yul\":25586:25590   */\n      0x00\n        /* \"#utility.yul\":25579:25584   */\n      dup3\n        /* \"#utility.yul\":25576:25591   */\n      sub\n        /* \"#utility.yul\":25573:25614   */\n      tag_697\n      jumpi\n        /* \"#utility.yul\":25594:25612   */\n      tag_698\n      tag_374\n      jump\t// in\n    tag_698:\n        /* \"#utility.yul\":25573:25614   */\n    tag_697:\n        /* \"#utility.yul\":25641:25642   */\n      0x01\n        /* \"#utility.yul\":25634:25639   */\n      dup3\n        /* \"#utility.yul\":25630:25643   */\n      sub\n        /* \"#utility.yul\":25623:25643   */\n      swap1\n      pop\n        /* \"#utility.yul\":25478:25649   */\n      swap2\n      swap1\n      pop\n      jump\t// out\n        /* \"#utility.yul\":25655:26065   */\n    tag_180:\n        /* \"#utility.yul\":25695:25702   */\n      0x00\n        /* \"#utility.yul\":25718:25738   */\n      tag_700\n        /* \"#utility.yul\":25736:25737   */\n      dup3\n        /* \"#utility.yul\":25718:25738   */\n      tag_335\n      jump\t// in\n    tag_700:\n        /* \"#utility.yul\":25713:25738   */\n      swap2\n      pop\n        /* \"#utility.yul\":25752:25772   */\n      tag_701\n        /* \"#utility.yul\":25770:25771   */\n      dup4\n        /* \"#utility.yul\":25752:25772   */\n      tag_335\n      jump\t// in\n    tag_701:\n        /* \"#utility.yul\":25747:25772   */\n      swap3\n      pop\n        /* \"#utility.yul\":25807:25808   */\n      dup3\n        /* \"#utility.yul\":25804:25805   */\n      dup3\n        /* \"#utility.yul\":25800:25809   */\n      mul\n        /* \"#utility.yul\":25829:25859   */\n      tag_702\n        /* \"#utility.yul\":25847:25858   */\n      dup2\n        /* \"#utility.yul\":25829:25859   */\n      tag_335\n      jump\t// in\n    tag_702:\n        /* \"#utility.yul\":25818:25859   */\n      swap2\n      pop\n        /* \"#utility.yul\":26008:26009   */\n      dup3\n        /* \"#utility.yul\":25999:26006   */\n      dup3\n        /* \"#utility.yul\":25995:26010   */\n      div\n        /* \"#utility.yul\":25992:25993   */\n      dup5\n        /* \"#utility.yul\":25989:26011   */\n      eq\n        /* \"#utility.yul\":25969:25970   */\n      dup4\n        /* \"#utility.yul\":25962:25971   */\n      iszero\n        /* \"#utility.yul\":25942:26025   */\n      or\n        /* \"#utility.yul\":25919:26058   */\n      tag_703\n      jumpi\n        /* \"#utility.yul\":26038:26056   */\n      tag_704\n      tag_374\n      jump\t// in\n    tag_704:\n        /* \"#utility.yul\":25919:26058   */\n    tag_703:\n        /* \"#utility.yul\":25703:26065   */\n      pop\n        /* \"#utility.yul\":25655:26065   */\n      swap3\n      swap2\n      pop\n      pop\n      jump\t// out\n        /* \"#utility.yul\":26071:26251   */\n    tag_399:\n        /* \"#utility.yul\":26119:26196   */\n      0x4e487b7100000000000000000000000000000000000000000000000000000000\n        /* \"#utility.yul\":26116:26117   */\n      0x00\n        /* \"#utility.yul\":26109:26197   */\n      mstore\n        /* \"#utility.yul\":26216:26220   */\n      0x12\n        /* \"#utility.yul\":26213:26214   */\n      0x04\n        /* \"#utility.yul\":26206:26221   */\n      mstore\n        /* \"#utility.yul\":26240:26244   */\n      0x24\n        /* \"#utility.yul\":26237:26238   */\n      0x00\n        /* \"#utility.yul\":26230:26245   */\n      revert\n        /* \"#utility.yul\":26257:26442   */\n    tag_182:\n        /* \"#utility.yul\":26297:26298   */\n      0x00\n        /* \"#utility.yul\":26314:26334   */\n      tag_707\n        /* \"#utility.yul\":26332:26333   */\n      dup3\n        /* \"#utility.yul\":26314:26334   */\n      tag_335\n      jump\t// in\n    tag_707:\n        /* \"#utility.yul\":26309:26334   */\n      swap2\n      pop\n        /* \"#utility.yul\":26348:26368   */\n      tag_708\n        /* \"#utility.yul\":26366:26367   */\n      dup4\n        /* \"#utility.yul\":26348:26368   */\n      tag_335\n      jump\t// in\n    tag_708:\n        /* \"#utility.yul\":26343:26368   */\n      swap3\n      pop\n        /* \"#utility.yul\":26387:26388   */\n      dup3\n        /* \"#utility.yul\":26377:26412   */\n      tag_709\n      jumpi\n        /* \"#utility.yul\":26392:26410   */\n      tag_710\n      tag_399\n      jump\t// in\n    tag_710:\n        /* \"#utility.yul\":26377:26412   */\n    tag_709:\n        /* \"#utility.yul\":26434:26435   */\n      dup3\n        /* \"#utility.yul\":26431:26432   */\n      dup3\n        /* \"#utility.yul\":26427:26436   */\n      div\n        /* \"#utility.yul\":26422:26436   */\n      swap1\n      pop\n        /* \"#utility.yul\":26257:26442   */\n      swap3\n      swap2\n      pop\n      pop\n      jump\t// out\n        /* \"#utility.yul\":26448:26610   */\n    tag_400:\n        /* \"#utility.yul\":26588:26602   */\n      0x46656520746f6f20686967680000000000000000000000000000000000000000\n        /* \"#utility.yul\":26584:26585   */\n      0x00\n        /* \"#utility.yul\":26576:26582   */\n      dup3\n        /* \"#utility.yul\":26572:26586   */\n      add\n        /* \"#utility.yul\":26565:26603   */\n      mstore\n        /* \"#utility.yul\":26448:26610   */\n      pop\n      jump\t// out\n        /* \"#utility.yul\":26616:26982   */\n    tag_401:\n        /* \"#utility.yul\":26758:26761   */\n      0x00\n        /* \"#utility.yul\":26779:26846   */\n      tag_713\n        /* \"#utility.yul\":26843:26845   */\n      0x0c\n        /* \"#utility.yul\":26838:26841   */\n      dup4\n        /* \"#utility.yul\":26779:26846   */\n      tag_371\n      jump\t// in\n    tag_713:\n        /* \"#utility.yul\":26772:26846   */\n      swap2\n      pop\n        /* \"#utility.yul\":26855:26948   */\n      tag_714\n        /* \"#utility.yul\":26944:26947   */\n      dup3\n        /* \"#utility.yul\":26855:26948   */\n      tag_400\n      jump\t// in\n    tag_714:\n        /* \"#utility.yul\":26973:26975   */\n      0x20\n        /* \"#utility.yul\":26968:26971   */\n      dup3\n        /* \"#utility.yul\":26964:26976   */\n      add\n        /* \"#utility.yul\":26957:26976   */\n      swap1\n      pop\n        /* \"#utility.yul\":26616:26982   */\n      swap2\n      swap1\n      pop\n      jump\t// out\n        /* \"#utility.yul\":26988:27407   */\n    tag_185:\n        /* \"#utility.yul\":27154:27158   */\n      0x00\n        /* \"#utility.yul\":27192:27194   */\n      0x20\n        /* \"#utility.yul\":27181:27190   */\n      dup3\n        /* \"#utility.yul\":27177:27195   */\n      add\n        /* \"#utility.yul\":27169:27195   */\n      swap1\n      pop\n        /* \"#utility.yul\":27241:27250   */\n      dup2\n        /* \"#utility.yul\":27235:27239   */\n      dup2\n        /* \"#utility.yul\":27231:27251   */\n      sub\n        /* \"#utility.yul\":27227:27228   */\n      0x00\n        /* \"#utility.yul\":27216:27225   */\n      dup4\n        /* \"#utility.yul\":27212:27229   */\n      add\n        /* \"#utility.yul\":27205:27252   */\n      mstore\n        /* \"#utility.yul\":27269:27400   */\n      tag_716\n        /* \"#utility.yul\":27395:27399   */\n      dup2\n        /* \"#utility.yul\":27269:27400   */\n      tag_401\n      jump\t// in\n    tag_716:\n        /* \"#utility.yul\":27261:27400   */\n      swap1\n      pop\n        /* \"#utility.yul\":26988:27407   */\n      swap2\n      swap1\n      pop\n      jump\t// out\n        /* \"#utility.yul\":27413:27581   */\n    tag_402:\n        /* \"#utility.yul\":27553:27573   */\n      0x4e6f746520616c7265616479207370656e740000000000000000000000000000\n        /* \"#utility.yul\":27549:27550   */\n      0x00\n        /* \"#utility.yul\":27541:27547   */\n      dup3\n        /* \"#utility.yul\":27537:27551   */\n      add\n        /* \"#utility.yul\":27530:27574   */\n      mstore\n        /* \"#utility.yul\":27413:27581   */\n      pop\n      jump\t// out\n        /* \"#utility.yul\":27587:27953   */\n    tag_403:\n        /* \"#utility.yul\":27729:27732   */\n      0x00\n        /* \"#utility.yul\":27750:27817   */\n      tag_719\n        /* \"#utility.yul\":27814:27816   */\n      0x12\n        /* \"#utility.yul\":27809:27812   */\n      dup4\n        /* \"#utility.yul\":27750:27817   */\n      tag_371\n      jump\t// in\n    tag_719:\n        /* \"#utility.yul\":27743:27817   */\n      swap2\n      pop\n        /* \"#utility.yul\":27826:27919   */\n      tag_720\n        /* \"#utility.yul\":27915:27918   */\n      dup3\n        /* \"#utility.yul\":27826:27919   */\n      tag_402\n      jump\t// in\n    tag_720:\n        /* \"#utility.yul\":27944:27946   */\n      0x20\n        /* \"#utility.yul\":27939:27942   */\n      dup3\n        /* \"#utility.yul\":27935:27947   */\n      add\n        /* \"#utility.yul\":27928:27947   */\n      swap1\n      pop\n        /* \"#utility.yul\":27587:27953   */\n      swap2\n      swap1\n      pop\n      jump\t// out\n        /* \"#utility.yul\":27959:28378   */\n    tag_188:\n        /* \"#utility.yul\":28125:28129   */\n      0x00\n        /* \"#utility.yul\":28163:28165   */\n      0x20\n        /* \"#utility.yul\":28152:28161   */\n      dup3\n        /* \"#utility.yul\":28148:28166   */\n      add\n        /* \"#utility.yul\":28140:28166   */\n      swap1\n      pop\n        /* \"#utility.yul\":28212:28221   */\n      dup2\n        /* \"#utility.yul\":28206:28210   */\n      dup2\n        /* \"#utility.yul\":28202:28222   */\n      sub\n        /* \"#utility.yul\":28198:28199   */\n      0x00\n        /* \"#utility.yul\":28187:28196   */\n      dup4\n        /* \"#utility.yul\":28183:28200   */\n      add\n        /* \"#utility.yul\":28176:28223   */\n      mstore\n        /* \"#utility.yul\":28240:28371   */\n      tag_722\n        /* \"#utility.yul\":28366:28370   */\n      dup2\n        /* \"#utility.yul\":28240:28371   */\n      tag_403\n      jump\t// in\n    tag_722:\n        /* \"#utility.yul\":28232:28371   */\n      swap1\n      pop\n        /* \"#utility.yul\":27959:28378   */\n      swap2\n      swap1\n      pop\n      jump\t// out\n        /* \"#utility.yul\":28384:28575   */\n    tag_197:\n        /* \"#utility.yul\":28424:28427   */\n      0x00\n        /* \"#utility.yul\":28443:28463   */\n      tag_724\n        /* \"#utility.yul\":28461:28462   */\n      dup3\n        /* \"#utility.yul\":28443:28463   */\n      tag_335\n      jump\t// in\n    tag_724:\n        /* \"#utility.yul\":28438:28463   */\n      swap2\n      pop\n        /* \"#utility.yul\":28477:28497   */\n      tag_725\n        /* \"#utility.yul\":28495:28496   */\n      dup4\n        /* \"#utility.yul\":28477:28497   */\n      tag_335\n      jump\t// in\n    tag_725:\n        /* \"#utility.yul\":28472:28497   */\n      swap3\n      pop\n        /* \"#utility.yul\":28520:28521   */\n      dup3\n        /* \"#utility.yul\":28517:28518   */\n      dup3\n        /* \"#utility.yul\":28513:28522   */\n      add\n        /* \"#utility.yul\":28506:28522   */\n      swap1\n      pop\n        /* \"#utility.yul\":28541:28544   */\n      dup1\n        /* \"#utility.yul\":28538:28539   */\n      dup3\n        /* \"#utility.yul\":28535:28545   */\n      gt\n        /* \"#utility.yul\":28532:28568   */\n      iszero\n      tag_726\n      jumpi\n        /* \"#utility.yul\":28548:28566   */\n      tag_727\n      tag_374\n      jump\t// in\n    tag_727:\n        /* \"#utility.yul\":28532:28568   */\n    tag_726:\n        /* \"#utility.yul\":28384:28575   */\n      swap3\n      swap2\n      pop\n      pop\n      jump\t// out\n        /* \"#utility.yul\":28581:28761   */\n    tag_203:\n        /* \"#utility.yul\":28629:28706   */\n      0x4e487b7100000000000000000000000000000000000000000000000000000000\n        /* \"#utility.yul\":28626:28627   */\n      0x00\n        /* \"#utility.yul\":28619:28707   */\n      mstore\n        /* \"#utility.yul\":28726:28730   */\n      0x32\n        /* \"#utility.yul\":28723:28724   */\n      0x04\n        /* \"#utility.yul\":28716:28731   */\n      mstore\n        /* \"#utility.yul\":28750:28754   */\n      0x24\n        /* \"#utility.yul\":28747:28748   */\n      0x00\n        /* \"#utility.yul\":28740:28755   */\n      revert\n        /* \"#utility.yul\":28767:28866   */\n    tag_404:\n        /* \"#utility.yul\":28852:28858   */\n      dup3\n        /* \"#utility.yul\":28847:28850   */\n      dup2\n        /* \"#utility.yul\":28842:28845   */\n      dup4\n        /* \"#utility.yul\":28829:28859   */\n      calldatacopy\n        /* \"#utility.yul\":28767:28866   */\n      pop\n      pop\n      pop\n      jump\t// out\n        /* \"#utility.yul\":28904:29076   */\n    tag_405:\n        /* \"#utility.yul\":29027:29070   */\n      tag_731\n        /* \"#utility.yul\":29063:29069   */\n      0x0100\n        /* \"#utility.yul\":29058:29061   */\n      dup4\n        /* \"#utility.yul\":29051:29056   */\n      dup4\n        /* \"#utility.yul\":29027:29070   */\n      tag_404\n      jump\t// in\n    tag_731:\n        /* \"#utility.yul\":28904:29076   */\n      pop\n      pop\n      jump\t// out\n        /* \"#utility.yul\":29082:29186   */\n    tag_406:\n        /* \"#utility.yul\":29147:29153   */\n      0x00\n        /* \"#utility.yul\":29175:29179   */\n      0x01\n        /* \"#utility.yul\":29165:29179   */\n      swap1\n      pop\n        /* \"#utility.yul\":29082:29186   */\n      swap2\n      swap1\n      pop\n      jump\t// out\n        /* \"#utility.yul\":29192:29335   */\n    tag_407:\n        /* \"#utility.yul\":29289:29300   */\n      0x00\n        /* \"#utility.yul\":29326:29329   */\n      dup2\n        /* \"#utility.yul\":29311:29329   */\n      swap1\n      pop\n        /* \"#utility.yul\":29192:29335   */\n      swap3\n      swap2\n      pop\n      pop\n      jump\t// out\n        /* \"#utility.yul\":29341:29439   */\n    tag_408:\n        /* \"#utility.yul\":29406:29410   */\n      0x00\n        /* \"#utility.yul\":29429:29432   */\n      dup2\n        /* \"#utility.yul\":29421:29432   */\n      swap1\n      pop\n        /* \"#utility.yul\":29341:29439   */\n      swap2\n      swap1\n      pop\n      jump\t// out\n        /* \"#utility.yul\":29445:29553   */\n    tag_409:\n        /* \"#utility.yul\":29522:29546   */\n      tag_736\n        /* \"#utility.yul\":29540:29545   */\n      dup2\n        /* \"#utility.yul\":29522:29546   */\n      tag_335\n      jump\t// in\n    tag_736:\n        /* \"#utility.yul\":29517:29520   */\n      dup3\n        /* \"#utility.yul\":29510:29547   */\n      mstore\n        /* \"#utility.yul\":29445:29553   */\n      pop\n      pop\n      jump\t// out\n        /* \"#utility.yul\":29559:29738   */\n    tag_410:\n        /* \"#utility.yul\":29628:29638   */\n      0x00\n        /* \"#utility.yul\":29649:29695   */\n      tag_738\n        /* \"#utility.yul\":29691:29694   */\n      dup4\n        /* \"#utility.yul\":29683:29689   */\n      dup4\n        /* \"#utility.yul\":29649:29695   */\n      tag_409\n      jump\t// in\n    tag_738:\n        /* \"#utility.yul\":29727:29731   */\n      0x20\n        /* \"#utility.yul\":29722:29725   */\n      dup4\n        /* \"#utility.yul\":29718:29732   */\n      add\n        /* \"#utility.yul\":29704:29732   */\n      swap1\n      pop\n        /* \"#utility.yul\":29559:29738   */\n      swap3\n      swap2\n      pop\n      pop\n      jump\t// out\n        /* \"#utility.yul\":29744:29855   */\n    tag_411:\n        /* \"#utility.yul\":29812:29816   */\n      0x00\n        /* \"#utility.yul\":29844:29848   */\n      0x20\n        /* \"#utility.yul\":29839:29842   */\n      dup3\n        /* \"#utility.yul\":29835:29849   */\n      add\n        /* \"#utility.yul\":29827:29849   */\n      swap1\n      pop\n        /* \"#utility.yul\":29744:29855   */\n      swap2\n      swap1\n      pop\n      jump\t// out\n        /* \"#utility.yul\":29893:30587   */\n    tag_412:\n        /* \"#utility.yul\":30029:30081   */\n      tag_741\n        /* \"#utility.yul\":30075:30080   */\n      dup2\n        /* \"#utility.yul\":30029:30081   */\n      tag_406\n      jump\t// in\n    tag_741:\n        /* \"#utility.yul\":30097:30181   */\n      tag_742\n        /* \"#utility.yul\":30174:30180   */\n      dup2\n        /* \"#utility.yul\":30169:30172   */\n      dup5\n        /* \"#utility.yul\":30097:30181   */\n      tag_407\n      jump\t// in\n    tag_742:\n        /* \"#utility.yul\":30090:30181   */\n      swap3\n      pop\n        /* \"#utility.yul\":30205:30259   */\n      tag_743\n        /* \"#utility.yul\":30253:30258   */\n      dup3\n        /* \"#utility.yul\":30205:30259   */\n      tag_408\n      jump\t// in\n    tag_743:\n        /* \"#utility.yul\":30282:30289   */\n      dup1\n        /* \"#utility.yul\":30313:30314   */\n      0x00\n        /* \"#utility.yul\":30298:30580   */\n    tag_744:\n        /* \"#utility.yul\":30323:30329   */\n      dup4\n        /* \"#utility.yul\":30320:30321   */\n      dup2\n        /* \"#utility.yul\":30317:30330   */\n      lt\n        /* \"#utility.yul\":30298:30580   */\n      iszero\n      tag_746\n      jumpi\n        /* \"#utility.yul\":30399:30405   */\n      dup2\n        /* \"#utility.yul\":30393:30406   */\n      mload\n        /* \"#utility.yul\":30426:30489   */\n      tag_747\n        /* \"#utility.yul\":30485:30488   */\n      dup8\n        /* \"#utility.yul\":30470:30483   */\n      dup3\n        /* \"#utility.yul\":30426:30489   */\n      tag_410\n      jump\t// in\n    tag_747:\n        /* \"#utility.yul\":30419:30489   */\n      swap7\n      pop\n        /* \"#utility.yul\":30512:30570   */\n      tag_748\n        /* \"#utility.yul\":30563:30569   */\n      dup4\n        /* \"#utility.yul\":30512:30570   */\n      tag_411\n      jump\t// in\n    tag_748:\n        /* \"#utility.yul\":30502:30570   */\n      swap3\n      pop\n        /* \"#utility.yul\":30358:30580   */\n      pop\n        /* \"#utility.yul\":30345:30346   */\n      0x01\n        /* \"#utility.yul\":30342:30343   */\n      dup2\n        /* \"#utility.yul\":30338:30347   */\n      add\n        /* \"#utility.yul\":30333:30347   */\n      swap1\n      pop\n        /* \"#utility.yul\":30298:30580   */\n      jump(tag_744)\n    tag_746:\n        /* \"#utility.yul\":30302:30316   */\n      pop\n        /* \"#utility.yul\":30005:30587   */\n      pop\n      pop\n      pop\n        /* \"#utility.yul\":29893:30587   */\n      pop\n      pop\n      jump\t// out\n        /* \"#utility.yul\":30593:31115   */\n    tag_205:\n        /* \"#utility.yul\":30808:30812   */\n      0x00\n        /* \"#utility.yul\":30846:30849   */\n      0x0120\n        /* \"#utility.yul\":30835:30844   */\n      dup3\n        /* \"#utility.yul\":30831:30850   */\n      add\n        /* \"#utility.yul\":30823:30850   */\n      swap1\n      pop\n        /* \"#utility.yul\":30860:30979   */\n      tag_750\n        /* \"#utility.yul\":30976:30977   */\n      0x00\n        /* \"#utility.yul\":30965:30974   */\n      dup4\n        /* \"#utility.yul\":30961:30978   */\n      add\n        /* \"#utility.yul\":30952:30958   */\n      dup6\n        /* \"#utility.yul\":30860:30979   */\n      tag_405\n      jump\t// in\n    tag_750:\n        /* \"#utility.yul\":30989:31108   */\n      tag_751\n        /* \"#utility.yul\":31103:31106   */\n      0x0100\n        /* \"#utility.yul\":31092:31101   */\n      dup4\n        /* \"#utility.yul\":31088:31107   */\n      add\n        /* \"#utility.yul\":31079:31085   */\n      dup5\n        /* \"#utility.yul\":30989:31108   */\n      tag_412\n      jump\t// in\n    tag_751:\n        /* \"#utility.yul\":30593:31115   */\n      swap4\n      swap3\n      pop\n      pop\n      pop\n      jump\t// out\n        /* \"#utility.yul\":31121:31284   */\n    tag_413:\n        /* \"#utility.yul\":31261:31276   */\n      0x496e76616c69642070726f6f6600000000000000000000000000000000000000\n        /* \"#utility.yul\":31257:31258   */\n      0x00\n        /* \"#utility.yul\":31249:31255   */\n      dup3\n        /* \"#utility.yul\":31245:31259   */\n      add\n        /* \"#utility.yul\":31238:31277   */\n      mstore\n        /* \"#utility.yul\":31121:31284   */\n      pop\n      jump\t// out\n        /* \"#utility.yul\":31290:31656   */\n    tag_414:\n        /* \"#utility.yul\":31432:31435   */\n      0x00\n        /* \"#utility.yul\":31453:31520   */\n      tag_754\n        /* \"#utility.yul\":31517:31519   */\n      0x0d\n        /* \"#utility.yul\":31512:31515   */\n      dup4\n        /* \"#utility.yul\":31453:31520   */\n      tag_371\n      jump\t// in\n    tag_754:\n        /* \"#utility.yul\":31446:31520   */\n      swap2\n      pop\n        /* \"#utility.yul\":31529:31622   */\n      tag_755\n        /* \"#utility.yul\":31618:31621   */\n      dup3\n        /* \"#utility.yul\":31529:31622   */\n      tag_413\n      jump\t// in\n    tag_755:\n        /* \"#utility.yul\":31647:31649   */\n      0x20\n        /* \"#utility.yul\":31642:31645   */\n      dup3\n        /* \"#utility.yul\":31638:31650   */\n      add\n        /* \"#utility.yul\":31631:31650   */\n      swap1\n      pop\n        /* \"#utility.yul\":31290:31656   */\n      swap2\n      swap1\n      pop\n      jump\t// out\n        /* \"#utility.yul\":31662:32081   */\n    tag_211:\n        /* \"#utility.yul\":31828:31832   */\n      0x00\n        /* \"#utility.yul\":31866:31868   */\n      0x20\n        /* \"#utility.yul\":31855:31864   */\n      dup3\n        /* \"#utility.yul\":31851:31869   */\n      add\n        /* \"#utility.yul\":31843:31869   */\n      swap1\n      pop\n        /* \"#utility.yul\":31915:31924   */\n      dup2\n        /* \"#utility.yul\":31909:31913   */\n      dup2\n        /* \"#utility.yul\":31905:31925   */\n      sub\n        /* \"#utility.yul\":31901:31902   */\n      0x00\n        /* \"#utility.yul\":31890:31899   */\n      dup4\n        /* \"#utility.yul\":31886:31903   */\n      add\n        /* \"#utility.yul\":31879:31926   */\n      mstore\n        /* \"#utility.yul\":31943:32074   */\n      tag_757\n        /* \"#utility.yul\":32069:32073   */\n      dup2\n        /* \"#utility.yul\":31943:32074   */\n      tag_414\n      jump\t// in\n    tag_757:\n        /* \"#utility.yul\":31935:32074   */\n      swap1\n      pop\n        /* \"#utility.yul\":31662:32081   */\n      swap2\n      swap1\n      pop\n      jump\t// out\n        /* \"#utility.yul\":32087:32419   */\n    tag_214:\n        /* \"#utility.yul\":32208:32212   */\n      0x00\n        /* \"#utility.yul\":32246:32248   */\n      0x40\n        /* \"#utility.yul\":32235:32244   */\n      dup3\n        /* \"#utility.yul\":32231:32249   */\n      add\n        /* \"#utility.yul\":32223:32249   */\n      swap1\n      pop\n        /* \"#utility.yul\":32259:32330   */\n      tag_759\n        /* \"#utility.yul\":32327:32328   */\n      0x00\n        /* \"#utility.yul\":32316:32325   */\n      dup4\n        /* \"#utility.yul\":32312:32329   */\n      add\n        /* \"#utility.yul\":32303:32309   */\n      dup6\n        /* \"#utility.yul\":32259:32330   */\n      tag_361\n      jump\t// in\n    tag_759:\n        /* \"#utility.yul\":32340:32412   */\n      tag_760\n        /* \"#utility.yul\":32408:32410   */\n      0x20\n        /* \"#utility.yul\":32397:32406   */\n      dup4\n        /* \"#utility.yul\":32393:32411   */\n      add\n        /* \"#utility.yul\":32384:32390   */\n      dup5\n        /* \"#utility.yul\":32340:32412   */\n      tag_348\n      jump\t// in\n    tag_760:\n        /* \"#utility.yul\":32087:32419   */\n      swap4\n      swap3\n      pop\n      pop\n      pop\n      jump\t// out\n        /* \"#utility.yul\":32425:32619   */\n    tag_219:\n        /* \"#utility.yul\":32465:32469   */\n      0x00\n        /* \"#utility.yul\":32485:32505   */\n      tag_762\n        /* \"#utility.yul\":32503:32504   */\n      dup3\n        /* \"#utility.yul\":32485:32505   */\n      tag_335\n      jump\t// in\n    tag_762:\n        /* \"#utility.yul\":32480:32505   */\n      swap2\n      pop\n        /* \"#utility.yul\":32519:32539   */\n      tag_763\n        /* \"#utility.yul\":32537:32538   */\n      dup4\n        /* \"#utility.yul\":32519:32539   */\n      tag_335\n      jump\t// in\n    tag_763:\n        /* \"#utility.yul\":32514:32539   */\n      swap3\n      pop\n        /* \"#utility.yul\":32563:32564   */\n      dup3\n        /* \"#utility.yul\":32560:32561   */\n      dup3\n        /* \"#utility.yul\":32556:32565   */\n      sub\n        /* \"#utility.yul\":32548:32565   */\n      swap1\n      pop\n        /* \"#utility.yul\":32587:32588   */\n      dup2\n        /* \"#utility.yul\":32581:32585   */\n      dup2\n        /* \"#utility.yul\":32578:32589   */\n      gt\n        /* \"#utility.yul\":32575:32612   */\n      iszero\n      tag_764\n      jumpi\n        /* \"#utility.yul\":32592:32610   */\n      tag_765\n      tag_374\n      jump\t// in\n    tag_765:\n        /* \"#utility.yul\":32575:32612   */\n    tag_764:\n        /* \"#utility.yul\":32425:32619   */\n      swap3\n      swap2\n      pop\n      pop\n      jump\t// out\n        /* \"#utility.yul\":32625:32957   */\n    tag_225:\n        /* \"#utility.yul\":32746:32750   */\n      0x00\n        /* \"#utility.yul\":32784:32786   */\n      0x40\n        /* \"#utility.yul\":32773:32782   */\n      dup3\n        /* \"#utility.yul\":32769:32787   */\n      add\n        /* \"#utility.yul\":32761:32787   */\n      swap1\n      pop\n        /* \"#utility.yul\":32797:32868   */\n      tag_767\n        /* \"#utility.yul\":32865:32866   */\n      0x00\n        /* \"#utility.yul\":32854:32863   */\n      dup4\n        /* \"#utility.yul\":32850:32867   */\n      add\n        /* \"#utility.yul\":32841:32847   */\n      dup6\n        /* \"#utility.yul\":32797:32868   */\n      tag_348\n      jump\t// in\n    tag_767:\n        /* \"#utility.yul\":32878:32950   */\n      tag_768\n        /* \"#utility.yul\":32946:32948   */\n      0x20\n        /* \"#utility.yul\":32935:32944   */\n      dup4\n        /* \"#utility.yul\":32931:32949   */\n      add\n        /* \"#utility.yul\":32922:32928   */\n      dup5\n        /* \"#utility.yul\":32878:32950   */\n      tag_348\n      jump\t// in\n    tag_768:\n        /* \"#utility.yul\":32625:32957   */\n      swap4\n      swap3\n      pop\n      pop\n      pop\n      jump\t// out\n        /* \"#utility.yul\":32963:33127   */\n    tag_415:\n        /* \"#utility.yul\":33103:33119   */\n      0x496e76616c696420616d6f756e74000000000000000000000000000000000000\n        /* \"#utility.yul\":33099:33100   */\n      0x00\n        /* \"#utility.yul\":33091:33097   */\n      dup3\n        /* \"#utility.yul\":33087:33101   */\n      add\n        /* \"#utility.yul\":33080:33120   */\n      mstore\n        /* \"#utility.yul\":32963:33127   */\n      pop\n      jump\t// out\n        /* \"#utility.yul\":33133:33499   */\n    tag_416:\n        /* \"#utility.yul\":33275:33278   */\n      0x00\n        /* \"#utility.yul\":33296:33363   */\n      tag_771\n        /* \"#utility.yul\":33360:33362   */\n      0x0e\n        /* \"#utility.yul\":33355:33358   */\n      dup4\n        /* \"#utility.yul\":33296:33363   */\n      tag_371\n      jump\t// in\n    tag_771:\n        /* \"#utility.yul\":33289:33363   */\n      swap2\n      pop\n        /* \"#utility.yul\":33372:33465   */\n      tag_772\n        /* \"#utility.yul\":33461:33464   */\n      dup3\n        /* \"#utility.yul\":33372:33465   */\n      tag_415\n      jump\t// in\n    tag_772:\n        /* \"#utility.yul\":33490:33492   */\n      0x20\n        /* \"#utility.yul\":33485:33488   */\n      dup3\n        /* \"#utility.yul\":33481:33493   */\n      add\n        /* \"#utility.yul\":33474:33493   */\n      swap1\n      pop\n        /* \"#utility.yul\":33133:33499   */\n      swap2\n      swap1\n      pop\n      jump\t// out\n        /* \"#utility.yul\":33505:33924   */\n    tag_233:\n        /* \"#utility.yul\":33671:33675   */\n      0x00\n        /* \"#utility.yul\":33709:33711   */\n      0x20\n        /* \"#utility.yul\":33698:33707   */\n      dup3\n        /* \"#utility.yul\":33694:33712   */\n      add\n        /* \"#utility.yul\":33686:33712   */\n      swap1\n      pop\n        /* \"#utility.yul\":33758:33767   */\n      dup2\n        /* \"#utility.yul\":33752:33756   */\n      dup2\n        /* \"#utility.yul\":33748:33768   */\n      sub\n        /* \"#utility.yul\":33744:33745   */\n      0x00\n        /* \"#utility.yul\":33733:33742   */\n      dup4\n        /* \"#utility.yul\":33729:33746   */\n      add\n        /* \"#utility.yul\":33722:33769   */\n      mstore\n        /* \"#utility.yul\":33786:33917   */\n      tag_774\n        /* \"#utility.yul\":33912:33916   */\n      dup2\n        /* \"#utility.yul\":33786:33917   */\n      tag_416\n      jump\t// in\n    tag_774:\n        /* \"#utility.yul\":33778:33917   */\n      swap1\n      pop\n        /* \"#utility.yul\":33505:33924   */\n      swap2\n      swap1\n      pop\n      jump\t// out\n        /* \"#utility.yul\":33930:34099   */\n    tag_417:\n        /* \"#utility.yul\":34070:34091   */\n      0x44656e6f6d696e6174696f6e2065786973747300000000000000000000000000\n        /* \"#utility.yul\":34066:34067   */\n      0x00\n        /* \"#utility.yul\":34058:34064   */\n      dup3\n        /* \"#utility.yul\":34054:34068   */\n      add\n        /* \"#utility.yul\":34047:34092   */\n      mstore\n        /* \"#utility.yul\":33930:34099   */\n      pop\n      jump\t// out\n        /* \"#utility.yul\":34105:34471   */\n    tag_418:\n        /* \"#utility.yul\":34247:34250   */\n      0x00\n        /* \"#utility.yul\":34268:34335   */\n      tag_777\n        /* \"#utility.yul\":34332:34334   */\n      0x13\n        /* \"#utility.yul\":34327:34330   */\n      dup4\n        /* \"#utility.yul\":34268:34335   */\n      tag_371\n      jump\t// in\n    tag_777:\n        /* \"#utility.yul\":34261:34335   */\n      swap2\n      pop\n        /* \"#utility.yul\":34344:34437   */\n      tag_778\n        /* \"#utility.yul\":34433:34436   */\n      dup3\n        /* \"#utility.yul\":34344:34437   */\n      tag_417\n      jump\t// in\n    tag_778:\n        /* \"#utility.yul\":34462:34464   */\n      0x20\n        /* \"#utility.yul\":34457:34460   */\n      dup3\n        /* \"#utility.yul\":34453:34465   */\n      add\n        /* \"#utility.yul\":34446:34465   */\n      swap1\n      pop\n        /* \"#utility.yul\":34105:34471   */\n      swap2\n      swap1\n      pop\n      jump\t// out\n        /* \"#utility.yul\":34477:34896   */\n    tag_236:\n        /* \"#utility.yul\":34643:34647   */\n      0x00\n        /* \"#utility.yul\":34681:34683   */\n      0x20\n        /* \"#utility.yul\":34670:34679   */\n      dup3\n        /* \"#utility.yul\":34666:34684   */\n      add\n        /* \"#utility.yul\":34658:34684   */\n      swap1\n      pop\n        /* \"#utility.yul\":34730:34739   */\n      dup2\n        /* \"#utility.yul\":34724:34728   */\n      dup2\n        /* \"#utility.yul\":34720:34740   */\n      sub\n        /* \"#utility.yul\":34716:34717   */\n      0x00\n        /* \"#utility.yul\":34705:34714   */\n      dup4\n        /* \"#utility.yul\":34701:34718   */\n      add\n        /* \"#utility.yul\":34694:34741   */\n      mstore\n        /* \"#utility.yul\":34758:34889   */\n      tag_780\n        /* \"#utility.yul\":34884:34888   */\n      dup2\n        /* \"#utility.yul\":34758:34889   */\n      tag_418\n      jump\t// in\n    tag_780:\n        /* \"#utility.yul\":34750:34889   */\n      swap1\n      pop\n        /* \"#utility.yul\":34477:34896   */\n      swap2\n      swap1\n      pop\n      jump\t// out\n        /* \"#utility.yul\":34902:35071   */\n    tag_419:\n        /* \"#utility.yul\":35042:35063   */\n      0x496e646578206f7574206f6620626f756e647300000000000000000000000000\n        /* \"#utility.yul\":35038:35039   */\n      0x00\n        /* \"#utility.yul\":35030:35036   */\n      dup3\n        /* \"#utility.yul\":35026:35040   */\n      add\n        /* \"#utility.yul\":35019:35064   */\n      mstore\n        /* \"#utility.yul\":34902:35071   */\n      pop\n      jump\t// out\n        /* \"#utility.yul\":35077:35443   */\n    tag_420:\n        /* \"#utility.yul\":35219:35222   */\n      0x00\n        /* \"#utility.yul\":35240:35307   */\n      tag_783\n        /* \"#utility.yul\":35304:35306   */\n      0x13\n        /* \"#utility.yul\":35299:35302   */\n      dup4\n        /* \"#utility.yul\":35240:35307   */\n      tag_371\n      jump\t// in\n    tag_783:\n        /* \"#utility.yul\":35233:35307   */\n      swap2\n      pop\n        /* \"#utility.yul\":35316:35409   */\n      tag_784\n        /* \"#utility.yul\":35405:35408   */\n      dup3\n        /* \"#utility.yul\":35316:35409   */\n      tag_419\n      jump\t// in\n    tag_784:\n        /* \"#utility.yul\":35434:35436   */\n      0x20\n        /* \"#utility.yul\":35429:35432   */\n      dup3\n        /* \"#utility.yul\":35425:35437   */\n      add\n        /* \"#utility.yul\":35418:35437   */\n      swap1\n      pop\n        /* \"#utility.yul\":35077:35443   */\n      swap2\n      swap1\n      pop\n      jump\t// out\n        /* \"#utility.yul\":35449:35868   */\n    tag_242:\n        /* \"#utility.yul\":35615:35619   */\n      0x00\n        /* \"#utility.yul\":35653:35655   */\n      0x20\n        /* \"#utility.yul\":35642:35651   */\n      dup3\n        /* \"#utility.yul\":35638:35656   */\n      add\n        /* \"#utility.yul\":35630:35656   */\n      swap1\n      pop\n        /* \"#utility.yul\":35702:35711   */\n      dup2\n        /* \"#utility.yul\":35696:35700   */\n      dup2\n        /* \"#utility.yul\":35692:35712   */\n      sub\n        /* \"#utility.yul\":35688:35689   */\n      0x00\n        /* \"#utility.yul\":35677:35686   */\n      dup4\n        /* \"#utility.yul\":35673:35690   */\n      add\n        /* \"#utility.yul\":35666:35713   */\n      mstore\n        /* \"#utility.yul\":35730:35861   */\n      tag_786\n        /* \"#utility.yul\":35856:35860   */\n      dup2\n        /* \"#utility.yul\":35730:35861   */\n      tag_420\n      jump\t// in\n    tag_786:\n        /* \"#utility.yul\":35722:35861   */\n      swap1\n      pop\n        /* \"#utility.yul\":35449:35868   */\n      swap2\n      swap1\n      pop\n      jump\t// out\n        /* \"#utility.yul\":35874:36050   */\n    tag_251:\n        /* \"#utility.yul\":35906:35907   */\n      0x00\n        /* \"#utility.yul\":35923:35943   */\n      tag_788\n        /* \"#utility.yul\":35941:35942   */\n      dup3\n        /* \"#utility.yul\":35923:35943   */\n      tag_335\n      jump\t// in\n    tag_788:\n        /* \"#utility.yul\":35918:35943   */\n      swap2\n      pop\n        /* \"#utility.yul\":35957:35977   */\n      tag_789\n        /* \"#utility.yul\":35975:35976   */\n      dup4\n        /* \"#utility.yul\":35957:35977   */\n      tag_335\n      jump\t// in\n    tag_789:\n        /* \"#utility.yul\":35952:35977   */\n      swap3\n      pop\n        /* \"#utility.yul\":35996:35997   */\n      dup3\n        /* \"#utility.yul\":35986:36021   */\n      tag_790\n      jumpi\n        /* \"#utility.yul\":36001:36019   */\n      tag_791\n      tag_399\n      jump\t// in\n    tag_791:\n        /* \"#utility.yul\":35986:36021   */\n    tag_790:\n        /* \"#utility.yul\":36042:36043   */\n      dup3\n        /* \"#utility.yul\":36039:36040   */\n      dup3\n        /* \"#utility.yul\":36035:36044   */\n      mod\n        /* \"#utility.yul\":36030:36044   */\n      swap1\n      pop\n        /* \"#utility.yul\":35874:36050   */\n      swap3\n      swap2\n      pop\n      pop\n      jump\t// out\n        /* \"#utility.yul\":36056:36135   */\n    tag_421:\n        /* \"#utility.yul\":36095:36102   */\n      0x00\n        /* \"#utility.yul\":36124:36129   */\n      dup2\n        /* \"#utility.yul\":36113:36129   */\n      swap1\n      pop\n        /* \"#utility.yul\":36056:36135   */\n      swap2\n      swap1\n      pop\n      jump\t// out\n        /* \"#utility.yul\":36141:36298   */\n    tag_422:\n        /* \"#utility.yul\":36246:36291   */\n      tag_794\n        /* \"#utility.yul\":36266:36290   */\n      tag_795\n        /* \"#utility.yul\":36284:36289   */\n      dup3\n        /* \"#utility.yul\":36266:36290   */\n      tag_330\n      jump\t// in\n    tag_795:\n        /* \"#utility.yul\":36246:36291   */\n      tag_421\n      jump\t// in\n    tag_794:\n        /* \"#utility.yul\":36241:36244   */\n      dup3\n        /* \"#utility.yul\":36234:36292   */\n      mstore\n        /* \"#utility.yul\":36141:36298   */\n      pop\n      pop\n      jump\t// out\n        /* \"#utility.yul\":36304:36701   */\n    tag_322:\n        /* \"#utility.yul\":36444:36447   */\n      0x00\n        /* \"#utility.yul\":36459:36534   */\n      tag_797\n        /* \"#utility.yul\":36530:36533   */\n      dup3\n        /* \"#utility.yul\":36521:36527   */\n      dup6\n        /* \"#utility.yul\":36459:36534   */\n      tag_422\n      jump\t// in\n    tag_797:\n        /* \"#utility.yul\":36559:36561   */\n      0x20\n        /* \"#utility.yul\":36554:36557   */\n      dup3\n        /* \"#utility.yul\":36550:36562   */\n      add\n        /* \"#utility.yul\":36543:36562   */\n      swap2\n      pop\n        /* \"#utility.yul\":36572:36647   */\n      tag_798\n        /* \"#utility.yul\":36643:36646   */\n      dup3\n        /* \"#utility.yul\":36634:36640   */\n      dup5\n        /* \"#utility.yul\":36572:36647   */\n      tag_422\n      jump\t// in\n    tag_798:\n        /* \"#utility.yul\":36672:36674   */\n      0x20\n        /* \"#utility.yul\":36667:36670   */\n      dup3\n        /* \"#utility.yul\":36663:36675   */\n      add\n        /* \"#utility.yul\":36656:36675   */\n      swap2\n      pop\n        /* \"#utility.yul\":36692:36695   */\n      dup2\n        /* \"#utility.yul\":36685:36695   */\n      swap1\n      pop\n        /* \"#utility.yul\":36304:36701   */\n      swap4\n      swap3\n      pop\n      pop\n      pop\n      jump\t// out\n\n    auxdata: 0xa264697066735822122069e24e512f184a8541e999023b789f7bced51e13d9b44c508ad3f8aafafc7de964736f6c634300081a0033\n}\n",
				"bytecode": {
					"linkReferences": {},
					"object": "608060405234801561000f575f80fd5b50604051612d36380380612d3683398181016040528101906100319190610284565b825f73ffffffffffffffffffffffffffffffffffffffff168173ffffffffffffffffffffffffffffffffffffffff16036100a2575f6040517f1e4fbdf700000000000000000000000000000000000000000000000000000000815260040161009991906102e3565b60405180910390fd5b6100b18161016560201b60201c565b50600180819055505f60025f6101000a81548160ff02191690831515021790555081600260016101000a81548173ffffffffffffffffffffffffffffffffffffffff021916908373ffffffffffffffffffffffffffffffffffffffff1602179055508060035f6101000a81548173ffffffffffffffffffffffffffffffffffffffff021916908373ffffffffffffffffffffffffffffffffffffffff1602179055505f6007600101819055505050506102fc565b5f805f9054906101000a900473ffffffffffffffffffffffffffffffffffffffff169050815f806101000a81548173ffffffffffffffffffffffffffffffffffffffff021916908373ffffffffffffffffffffffffffffffffffffffff1602179055508173ffffffffffffffffffffffffffffffffffffffff168173ffffffffffffffffffffffffffffffffffffffff167f8be0079c531659141344cd1fd0a4f28419497f9722a3daafe3b4186f6b6457e060405160405180910390a35050565b5f80fd5b5f73ffffffffffffffffffffffffffffffffffffffff82169050919050565b5f6102538261022a565b9050919050565b61026381610249565b811461026d575f80fd5b50565b5f8151905061027e8161025a565b92915050565b5f805f6060848603121561029b5761029a610226565b5b5f6102a886828701610270565b93505060206102b986828701610270565b92505060406102ca86828701610270565b9150509250925092565b6102dd81610249565b82525050565b5f6020820190506102f65f8301846102d4565b92915050565b612a2d806103095f395ff3fe608060405234801561000f575f80fd5b5060043610610140575f3560e01c806385de26b7116100b6578063e17650731161007a578063e176507314610308578063e754b9c614610338578063f2fde38b14610356578063f3ce61ad14610372578063fc0c546a146103a4578063fcc0be6b146103c257610140565b806385de26b71461026057806386cf6de4146102935780638da5cb5b146102af578063bb7df052146102cd578063cc2ed697146102ec57610140565b80635c975abb116101085780635c975abb146101d65780635ca1e165146101f4578063666ee8541461021257806367d817401461022e578063715018a61461024c5780638456cb591461025657610140565b806317cc915c146101445780631acc8486146101745780632b7ac3f3146101905780633f4ba83a146101ae578063595ba3ed146101b8575b5f80fd5b61015e600480360381019061015991906117b8565b6103e0565b60405161016b91906117fd565b60405180910390f35b61018e600480360381019061018991906118aa565b6103fd565b005b6101986106ac565b6040516101a59190611995565b60405180910390f35b6101b66106d1565b005b6101c06106e3565b6040516101cd91906119bd565b60405180910390f35b6101de6106e9565b6040516101eb91906117fd565b60405180910390f35b6101fc6106fe565b60405161020991906119e5565b60405180910390f35b61022c600480360381019061022791906119fe565b61070a565b005b6102366107ee565b60405161024391906119bd565b60405180910390f35b6102546107f3565b005b61025e610806565b005b61027a600480360381019061027591906117b8565b610818565b60405161028a9493929190611ab7565b60405180910390f35b6102ad60048036038101906102a89190611b5d565b6108d9565b005b6102b7610dbe565b6040516102c49190611bfb565b60405180910390f35b6102d5610de5565b6040516102e3929190611c14565b60405180910390f35b610306600480360381019061030191906119fe565b610df7565b005b610322600480360381019061031d91906119fe565b610f56565b60405161032f9190611cf2565b60405180910390f35b61034061109e565b60405161034d91906119bd565b60405180910390f35b610370600480360381019061036b9190611d12565b6110af565b005b61038c600480360381019061038791906119fe565b611133565b60405161039b93929190611d3d565b60405180910390f35b6103ac611165565b6040516103b99190611d92565b60405180910390f35b6103ca61118b565b6040516103d791906119bd565b60405180910390f35b6004602052805f5260405f205f915054906101000a900460ff1681565b610405611190565b61040d6111d6565b60055f8481526020019081526020015f206002015f9054906101000a900460ff1661046d576040517f08c379a000000000000000000000000000000000000000000000000000000000815260040161046490611e05565b60405180910390fd5b6014600261047b9190611f7f565b600760010154106104c1576040517f08c379a00000000000000000000000000000000000000000000000000000000081526004016104b890612013565b60405180910390fd5b600260019054906101000a900473ffffffffffffffffffffffffffffffffffffffff1673ffffffffffffffffffffffffffffffffffffffff166323b872dd3330866040518463ffffffff1660e01b815260040161052093929190612031565b6020604051808303815f875af115801561053c573d5f803e3d5ffd5b505050506040513d601f19601f820116820180604052508101906105609190612090565b5060405180608001604052808581526020014263ffffffff16815260200184815260200183838080601f0160208091040260200160405190810160405280939291908181526020018383808284375f81840152601f19601f8201169050808301925050505050505081525060065f8681526020019081526020015f205f820151815f01556020820151816001015f6101000a81548163ffffffff021916908363ffffffff16021790555060408201518160020155606082015181600301908161062991906122d9565b509050505f61063785611217565b905060055f8581526020019081526020015f206001015f81548092919061065d906123a8565b919050555083857fce80217ac10251ba83b6b6ce91da12bdd096aa99c37336c00bb01815ff8e77c183426040516106959291906123ef565b60405180910390a3506106a6611482565b50505050565b60035f9054906101000a900473ffffffffffffffffffffffffffffffffffffffff1681565b6106d961148b565b6106e1611512565b565b600b5481565b5f60025f9054906101000a900460ff16905090565b5f600760020154905090565b61071261148b565b60055f8281526020019081526020015f206002015f9054906101000a900460ff16610772576040517f08c379a000000000000000000000000000000000000000000000000000000000815260040161076990612460565b60405180910390fd5b5f60055f8381526020019081526020015f206002015f6101000a81548160ff021916908315150217905550600b5f8154809291906107af9061247e565b91905055507f92d6cd445c3824b8ee6f49f30e8df9c4676634c4e177fadc616918ee2af3ea64816040516107e391906119bd565b60405180910390a150565b600281565b6107fb61148b565b6108045f611573565b565b61080e61148b565b610816611634565b565b6006602052805f5260405f205f91509050805f015490806001015f9054906101000a900463ffffffff169080600201549080600301805461085890612115565b80601f016020809104026020016040519081016040528092919081815260200182805461088490612115565b80156108cf5780601f106108a6576101008083540402835291602001916108cf565b820191905f5260205f20905b8154815290600101906020018083116108b257829003601f168201915b5050505050905084565b6108e1611190565b6108e96111d6565b60646002826108f891906124a5565b6109029190612513565b821115610944576040517f08c379a000000000000000000000000000000000000000000000000000000000815260040161093b9061258d565b60405180910390fd5b60045f8681526020019081526020015f205f9054906101000a900460ff16156109a2576040517f08c379a0000000000000000000000000000000000000000000000000000000008152600401610999906125f5565b60405180910390fd5b60055f8281526020019081526020015f206002015f9054906101000a900460ff16610a02576040517f08c379a00000000000000000000000000000000000000000000000000000000081526004016109f990611e05565b60405180910390fd5b610a0a61175b565b817f010000000000000000000000000000000000000000000000000000000000000084610a3791906124a5565b7a0100000000000000000000000000000000000000000000000000008673ffffffffffffffffffffffffffffffffffffffff16610a7491906124a5565b740100000000000000000000000000000000000000008873ffffffffffffffffffffffffffffffffffffffff16610aab91906124a5565b895f1c610ab89190612613565b610ac29190612613565b610acc9190612613565b610ad69190612613565b815f60018110610ae957610ae8612646565b5b60200201818152505060035f9054906101000a900473ffffffffffffffffffffffffffffffffffffffff1673ffffffffffffffffffffffffffffffffffffffff16631b81f82988836040518363ffffffff1660e01b8152600401610b4e929190612732565b602060405180830381865afa158015610b69573d5f803e3d5ffd5b505050506040513d601f19601f82011682018060405250810190610b8d9190612090565b610bcc576040517f08c379a0000000000000000000000000000000000000000000000000000000008152600401610bc3906127a5565b60405180910390fd5b600160045f8881526020019081526020015f205f6101000a81548160ff0219169083151502179055505f831115610c9c57600260019054906101000a900473ffffffffffffffffffffffffffffffffffffffff1673ffffffffffffffffffffffffffffffffffffffff1663a9059cbb85856040518363ffffffff1660e01b8152600401610c5a9291906127c3565b6020604051808303815f875af1158015610c76573d5f803e3d5ffd5b505050506040513d601f19601f82011682018060405250810190610c9a9190612090565b505b600260019054906101000a900473ffffffffffffffffffffffffffffffffffffffff1673ffffffffffffffffffffffffffffffffffffffff1663a9059cbb868585610ce791906127ea565b6040518363ffffffff1660e01b8152600401610d049291906127c3565b6020604051808303815f875af1158015610d20573d5f803e3d5ffd5b505050506040513d601f19601f82011682018060405250810190610d449190612090565b508373ffffffffffffffffffffffffffffffffffffffff16868673ffffffffffffffffffffffffffffffffffffffff167f6d7aac54bd3d1c91db3b1fd7b8d6cb45324ad6b5e373c0f0ea4d7b2606c4c2c88587604051610da592919061281d565b60405180910390a450610db6611482565b505050505050565b5f805f9054906101000a900473ffffffffffffffffffffffffffffffffffffffff16905090565b60078060010154908060020154905082565b610dff61148b565b5f8111610e41576040517f08c379a0000000000000000000000000000000000000000000000000000000008152600401610e389061288e565b60405180910390fd5b60055f8281526020019081526020015f206002015f9054906101000a900460ff1615610ea2576040517f08c379a0000000000000000000000000000000000000000000000000000000008152600401610e99906128f6565b60405180910390fd5b60405180606001604052808281526020015f81526020016001151581525060055f8381526020019081526020015f205f820151815f0155602082015181600101556040820151816002015f6101000a81548160ff021916908315150217905550905050600b5f815480929190610f17906123a8565b91905055507f8a5735e0baf05ee5a04a6dd24654f14b2f442d7fc7321c0dc098b8e338bc040881604051610f4b91906119bd565b60405180910390a150565b60606007600101548210610f9f576040517f08c379a0000000000000000000000000000000000000000000000000000000008152600401610f969061295e565b60405180910390fd5b5f601467ffffffffffffffff811115610fbb57610fba6120bb565b5b604051908082528060200260200182016040528015610fe95781602001602082028036833780820191505090505b5090505f8390505f5b6014811015611093575f8060028461100a919061297c565b036110235760018361101c9190612613565b9050611033565b60018361103091906127ea565b90505b60076003015f8281526020019081526020015f205f8381526020019081526020015f205484838151811061106a57611069612646565b5b6020026020010181815250506002836110839190612513565b9250508080600101915050610ff2565b508192505050919050565b601460026110ac9190611f7f565b81565b6110b761148b565b5f73ffffffffffffffffffffffffffffffffffffffff168173ffffffffffffffffffffffffffffffffffffffff1603611127575f6040517f1e4fbdf700000000000000000000000000000000000000000000000000000000815260040161111e9190611bfb565b60405180910390fd5b61113081611573565b50565b6005602052805f5260405f205f91509050805f015490806001015490806002015f9054906101000a900460ff16905083565b600260019054906101000a900473ffffffffffffffffffffffffffffffffffffffff1681565b601481565b6002600154036111cc576040517f3ee5aeb500000000000000000000000000000000000000000000000000000000815260040160405180910390fd5b6002600181905550565b6111de6106e9565b15611215576040517fd93c066500000000000000000000000000000000000000000000000000000000815260040160405180910390fd5b565b5f8060076001015490506014600261122f9190611f7f565b8163ffffffff1610611276576040517f08c379a000000000000000000000000000000000000000000000000000000000815260040161126d90612013565b60405180910390fd5b60075f0183908060018154018082558091505060019003905f5260205f20015f90919091909150558260076003015f8363ffffffff1681526020019081526020015f205f8081526020019081526020015f20819055505f808263ffffffff1690505f805b601484101561142d575f6002846112f1919061297c565b036113695760076003015f8481526020019081526020015f205f8581526020019081526020015f2054915061132584611696565b905061133182826116e2565b60076003015f8581526020019081526020015f205f6001876113539190612613565b81526020019081526020015f208190555061140b565b60076003015f60018561137c91906127ea565b81526020019081526020015f205f8581526020019081526020015f2054915060076003015f8481526020019081526020015f205f8581526020019081526020015f205490506113cb82826116e2565b60076003015f6001866113de91906127ea565b81526020019081526020015f205f6001876113f99190612613565b81526020019081526020015f20819055505b6002836114189190612513565b92508380611425906123a8565b9450506112da565b60076003015f8081526020019081526020015f205f601481526020019081526020015f205460076002018190555060076001015f815480929190611470906123a8565b91905055508495505050505050919050565b60018081905550565b611493611714565b73ffffffffffffffffffffffffffffffffffffffff166114b1610dbe565b73ffffffffffffffffffffffffffffffffffffffff1614611510576114d4611714565b6040517f118cdaa70000000000000000000000000000000000000000000000000000000081526004016115079190611bfb565b60405180910390fd5b565b61151a61171b565b5f60025f6101000a81548160ff0219169083151502179055507f5db9ee0a495bf2e6ff9c91a7834c1ba4fdd244a5e8aa4e537bd38aeae4b073aa61155c611714565b6040516115699190611bfb565b60405180910390a1565b5f805f9054906101000a900473ffffffffffffffffffffffffffffffffffffffff169050815f806101000a81548173ffffffffffffffffffffffffffffffffffffffff021916908373ffffffffffffffffffffffffffffffffffffffff1602179055508173ffffffffffffffffffffffffffffffffffffffff168173ffffffffffffffffffffffffffffffffffffffff167f8be0079c531659141344cd1fd0a4f28419497f9722a3daafe3b4186f6b6457e060405160405180910390a35050565b61163c6111d6565b600160025f6101000a81548160ff0219169083151502179055507f62e78cea01bee320cd4e420270b5ea74000d11b0c9f74754ebdbfc544b05a25861167f611714565b60405161168c9190611bfb565b60405180910390a1565b5f8082036116a8575f801b90506116dd565b6116da6116c06001846116bb91906127ea565b611696565b6116d56001856116d091906127ea565b611696565b6116e2565b90505b919050565b5f82826040516020016116f69291906129cc565b60405160208183030381529060405280519060200120905092915050565b5f33905090565b6117236106e9565b611759576040517f8dfc202b00000000000000000000000000000000000000000000000000000000815260040160405180910390fd5b565b6040518060200160405280600190602082028036833780820191505090505090565b5f80fd5b5f80fd5b5f819050919050565b61179781611785565b81146117a1575f80fd5b50565b5f813590506117b28161178e565b92915050565b5f602082840312156117cd576117cc61177d565b5b5f6117da848285016117a4565b91505092915050565b5f8115159050919050565b6117f7816117e3565b82525050565b5f6020820190506118105f8301846117ee565b92915050565b5f819050919050565b61182881611816565b8114611832575f80fd5b50565b5f813590506118438161181f565b92915050565b5f80fd5b5f80fd5b5f80fd5b5f8083601f84011261186a57611869611849565b5b8235905067ffffffffffffffff8111156118875761188661184d565b5b6020830191508360018202830111156118a3576118a2611851565b5b9250929050565b5f805f80606085870312156118c2576118c161177d565b5b5f6118cf878288016117a4565b94505060206118e087828801611835565b935050604085013567ffffffffffffffff81111561190157611900611781565b5b61190d87828801611855565b925092505092959194509250565b5f73ffffffffffffffffffffffffffffffffffffffff82169050919050565b5f819050919050565b5f61195d6119586119538461191b565b61193a565b61191b565b9050919050565b5f61196e82611943565b9050919050565b5f61197f82611964565b9050919050565b61198f81611975565b82525050565b5f6020820190506119a85f830184611986565b92915050565b6119b781611816565b82525050565b5f6020820190506119d05f8301846119ae565b92915050565b6119df81611785565b82525050565b5f6020820190506119f85f8301846119d6565b92915050565b5f60208284031215611a1357611a1261177d565b5b5f611a2084828501611835565b91505092915050565b5f63ffffffff82169050919050565b611a4181611a29565b82525050565b5f81519050919050565b5f82825260208201905092915050565b8281835e5f83830152505050565b5f601f19601f8301169050919050565b5f611a8982611a47565b611a938185611a51565b9350611aa3818560208601611a61565b611aac81611a6f565b840191505092915050565b5f608082019050611aca5f8301876119d6565b611ad76020830186611a38565b611ae460408301856119ae565b8181036060830152611af68184611a7f565b905095945050505050565b5f81905082602060080282011115611b1c57611b1b611851565b5b92915050565b5f611b2c8261191b565b9050919050565b611b3c81611b22565b8114611b46575f80fd5b50565b5f81359050611b5781611b33565b92915050565b5f805f805f806101a08789031215611b7857611b7761177d565b5b5f611b8589828a01611b01565b965050610100611b9789828a016117a4565b955050610120611ba989828a01611b49565b945050610140611bbb89828a01611b49565b935050610160611bcd89828a01611835565b925050610180611bdf89828a01611835565b9150509295509295509295565b611bf581611b22565b82525050565b5f602082019050611c0e5f830184611bec565b92915050565b5f604082019050611c275f8301856119ae565b611c3460208301846119d6565b9392505050565b5f81519050919050565b5f82825260208201905092915050565b5f819050602082019050919050565b611c6d81611785565b82525050565b5f611c7e8383611c64565b60208301905092915050565b5f602082019050919050565b5f611ca082611c3b565b611caa8185611c45565b9350611cb583611c55565b805f5b83811015611ce5578151611ccc8882611c73565b9750611cd783611c8a565b925050600181019050611cb8565b5085935050505092915050565b5f6020820190508181035f830152611d0a8184611c96565b905092915050565b5f60208284031215611d2757611d2661177d565b5b5f611d3484828501611b49565b91505092915050565b5f606082019050611d505f8301866119ae565b611d5d60208301856119ae565b611d6a60408301846117ee565b949350505050565b5f611d7c82611964565b9050919050565b611d8c81611d72565b82525050565b5f602082019050611da55f830184611d83565b92915050565b5f82825260208201905092915050565b7f496e76616c69642064656e6f6d696e6174696f6e0000000000000000000000005f82015250565b5f611def601483611dab565b9150611dfa82611dbb565b602082019050919050565b5f6020820190508181035f830152611e1c81611de3565b9050919050565b7f4e487b71000000000000000000000000000000000000000000000000000000005f52601160045260245ffd5b5f8160011c9050919050565b5f808291508390505b6001851115611ea557808604811115611e8157611e80611e23565b5b6001851615611e905780820291505b8081029050611e9e85611e50565b9450611e65565b94509492505050565b5f82611ebd5760019050611f78565b81611eca575f9050611f78565b8160018114611ee05760028114611eea57611f19565b6001915050611f78565b60ff841115611efc57611efb611e23565b5b8360020a915084821115611f1357611f12611e23565b5b50611f78565b5060208310610133831016604e8410600b8410161715611f4e5782820a905083811115611f4957611f48611e23565b5b611f78565b611f5b8484846001611e5c565b92509050818404811115611f7257611f71611e23565b5b81810290505b9392505050565b5f611f8982611816565b9150611f9483611816565b9250611fc17fffffffffffffffffffffffffffffffffffffffffffffffffffffffffffffffff8484611eae565b905092915050565b7f547265652066756c6c00000000000000000000000000000000000000000000005f82015250565b5f611ffd600983611dab565b915061200882611fc9565b602082019050919050565b5f6020820190508181035f83015261202a81611ff1565b9050919050565b5f6060820190506120445f830186611bec565b6120516020830185611bec565b61205e60408301846119ae565b949350505050565b61206f816117e3565b8114612079575f80fd5b50565b5f8151905061208a81612066565b92915050565b5f602082840312156120a5576120a461177d565b5b5f6120b28482850161207c565b91505092915050565b7f4e487b71000000000000000000000000000000000000000000000000000000005f52604160045260245ffd5b7f4e487b71000000000000000000000000000000000000000000000000000000005f52602260045260245ffd5b5f600282049050600182168061212c57607f821691505b60208210810361213f5761213e6120e8565b5b50919050565b5f819050815f5260205f209050919050565b5f6020601f8301049050919050565b5f82821b905092915050565b5f600883026121a17fffffffffffffffffffffffffffffffffffffffffffffffffffffffffffffffff82612166565b6121ab8683612166565b95508019841693508086168417925050509392505050565b5f6121dd6121d86121d384611816565b61193a565b611816565b9050919050565b5f819050919050565b6121f6836121c3565b61220a612202826121e4565b848454612172565b825550505050565b5f90565b61221e612212565b6122298184846121ed565b505050565b5b8181101561224c576122415f82612216565b60018101905061222f565b5050565b601f8211156122915761226281612145565b61226b84612157565b8101602085101561227a578190505b61228e61228685612157565b83018261222e565b50505b505050565b5f82821c905092915050565b5f6122b15f1984600802612296565b1980831691505092915050565b5f6122c983836122a2565b9150826002028217905092915050565b6122e282611a47565b67ffffffffffffffff8111156122fb576122fa6120bb565b5b6123058254612115565b612310828285612250565b5f60209050601f831160018114612341575f841561232f578287015190505b61233985826122be565b8655506123a0565b601f19841661234f86612145565b5f5b8281101561237657848901518255600182019150602085019450602081019050612351565b86831015612393578489015161238f601f8916826122a2565b8355505b6001600288020188555050505b505050505050565b5f6123b282611816565b91507fffffffffffffffffffffffffffffffffffffffffffffffffffffffffffffffff82036123e4576123e3611e23565b5b600182019050919050565b5f6040820190506124025f830185611a38565b61240f60208301846119ae565b9392505050565b7f44656e6f6d696e6174696f6e206e6f7420656e61626c656400000000000000005f82015250565b5f61244a601883611dab565b915061245582612416565b602082019050919050565b5f6020820190508181035f8301526124778161243e565b9050919050565b5f61248882611816565b91505f820361249a57612499611e23565b5b600182039050919050565b5f6124af82611816565b91506124ba83611816565b92508282026124c881611816565b915082820484148315176124df576124de611e23565b5b5092915050565b7f4e487b71000000000000000000000000000000000000000000000000000000005f52601260045260245ffd5b5f61251d82611816565b915061252883611816565b925082612538576125376124e6565b5b828204905092915050565b7f46656520746f6f206869676800000000000000000000000000000000000000005f82015250565b5f612577600c83611dab565b915061258282612543565b602082019050919050565b5f6020820190508181035f8301526125a48161256b565b9050919050565b7f4e6f746520616c7265616479207370656e7400000000000000000000000000005f82015250565b5f6125df601283611dab565b91506125ea826125ab565b602082019050919050565b5f6020820190508181035f83015261260c816125d3565b9050919050565b5f61261d82611816565b915061262883611816565b92508282019050808211156126405761263f611e23565b5b92915050565b7f4e487b71000000000000000000000000000000000000000000000000000000005f52603260045260245ffd5b82818337505050565b6126896101008383612673565b5050565b5f60019050919050565b5f81905092915050565b5f819050919050565b6126b381611816565b82525050565b5f6126c483836126aa565b60208301905092915050565b5f602082019050919050565b6126e58161268d565b6126ef8184612697565b92506126fa826126a1565b805f5b8381101561272a57815161271187826126b9565b965061271c836126d0565b9250506001810190506126fd565b505050505050565b5f610120820190506127465f83018561267c565b6127546101008301846126dc565b9392505050565b7f496e76616c69642070726f6f66000000000000000000000000000000000000005f82015250565b5f61278f600d83611dab565b915061279a8261275b565b602082019050919050565b5f6020820190508181035f8301526127bc81612783565b9050919050565b5f6040820190506127d65f830185611bec565b6127e360208301846119ae565b9392505050565b5f6127f482611816565b91506127ff83611816565b925082820390508181111561281757612816611e23565b5b92915050565b5f6040820190506128305f8301856119ae565b61283d60208301846119ae565b9392505050565b7f496e76616c696420616d6f756e740000000000000000000000000000000000005f82015250565b5f612878600e83611dab565b915061288382612844565b602082019050919050565b5f6020820190508181035f8301526128a58161286c565b9050919050565b7f44656e6f6d696e6174696f6e20657869737473000000000000000000000000005f82015250565b5f6128e0601383611dab565b91506128eb826128ac565b602082019050919050565b5f6020820190508181035f83015261290d816128d4565b9050919050565b7f496e646578206f7574206f6620626f756e6473000000000000000000000000005f82015250565b5f612948601383611dab565b915061295382612914565b602082019050919050565b5f6020820190508181035f8301526129758161293c565b9050919050565b5f61298682611816565b915061299183611816565b9250826129a1576129a06124e6565b5b828206905092915050565b5f819050919050565b6129c66129c182611785565b6129ac565b82525050565b5f6129d782856129b5565b6020820191506129e782846129b5565b602082019150819050939250505056fea264697066735822122069e24e512f184a8541e999023b789f7bced51e13d9b44c508ad3f8aafafc7de964736f6c634300081a0033",
					"opcodes": "PUSH1 0x80 PUSH1 0x40 MSTORE CALLVALUE DUP1 ISZERO PUSH2 0xF JUMPI PUSH0 DUP1 REVERT JUMPDEST POP PUSH1 0x40 MLOAD PUSH2 0x2D36 CODESIZE SUB DUP1 PUSH2 0x2D36 DUP4 CODECOPY DUP2 DUP2 ADD PUSH1 0x40 MSTORE DUP2 ADD SWAP1 PUSH2 0x31 SWAP2 SWAP1 PUSH2 0x284 JUMP JUMPDEST DUP3 PUSH0 PUSH20 0xFFFFFFFFFFFFFFFFFFFFFFFFFFFFFFFFFFFFFFFF AND DUP2 PUSH20 0xFFFFFFFFFFFFFFFFFFFFFFFFFFFFFFFFFFFFFFFF AND SUB PUSH2 0xA2 JUMPI PUSH0 PUSH1 0x40 MLOAD PUSH32 0x1E4FBDF700000000000000000000000000000000000000000000000000000000 DUP2 MSTORE PUSH1 0x4 ADD PUSH2 0x99 SWAP2 SWAP1 PUSH2 0x2E3 JUMP JUMPDEST PUSH1 0x40 MLOAD DUP1 SWAP2 SUB SWAP1 REVERT JUMPDEST PUSH2 0xB1 DUP2 PUSH2 0x165 PUSH1 0x20 SHL PUSH1 0x20 SHR JUMP JUMPDEST POP PUSH1 0x1 DUP1 DUP2 SWAP1 SSTORE POP PUSH0 PUSH1 0x2 PUSH0 PUSH2 0x100 EXP DUP2 SLOAD DUP2 PUSH1 0xFF MUL NOT AND SWAP1 DUP4 ISZERO ISZERO MUL OR SWAP1 SSTORE POP DUP2 PUSH1 0x2 PUSH1 0x1 PUSH2 0x100 EXP DUP2 SLOAD DUP2 PUSH20 0xFFFFFFFFFFFFFFFFFFFFFFFFFFFFFFFFFFFFFFFF MUL NOT AND SWAP1 DUP4 PUSH20 0xFFFFFFFFFFFFFFFFFFFFFFFFFFFFFFFFFFFFFFFF AND MUL OR SWAP1 SSTORE POP DUP1 PUSH1 0x3 PUSH0 PUSH2 0x100 EXP DUP2 SLOAD DUP2 PUSH20 0xFFFFFFFFFFFFFFFFFFFFFFFFFFFFFFFFFFFFFFFF MUL NOT AND SWAP1 DUP4 PUSH20 0xFFFFFFFFFFFFFFFFFFFFFFFFFFFFFFFFFFFFFFFF AND MUL OR SWAP1 SSTORE POP PUSH0 PUSH1 0x7 PUSH1 0x1 ADD DUP2 SWAP1 SSTORE POP POP POP POP PUSH2 0x2FC JUMP JUMPDEST PUSH0 DUP1 PUSH0 SWAP1 SLOAD SWAP1 PUSH2 0x100 EXP SWAP1 DIV PUSH20 0xFFFFFFFFFFFFFFFFFFFFFFFFFFFFFFFFFFFFFFFF AND SWAP1 POP DUP2 PUSH0 DUP1 PUSH2 0x100 EXP DUP2 SLOAD DUP2 PUSH20 0xFFFFFFFFFFFFFFFFFFFFFFFFFFFFFFFFFFFFFFFF MUL NOT AND SWAP1 DUP4 PUSH20 0xFFFFFFFFFFFFFFFFFFFFFFFFFFFFFFFFFFFFFFFF AND MUL OR SWAP1 SSTORE POP DUP2 PUSH20 0xFFFFFFFFFFFFFFFFFFFFFFFFFFFFFFFFFFFFFFFF AND DUP2 PUSH20 0xFFFFFFFFFFFFFFFFFFFFFFFFFFFFFFFFFFFFFFFF AND PUSH32 0x8BE0079C531659141344CD1FD0A4F28419497F9722A3DAAFE3B4186F6B6457E0 PUSH1 0x40 MLOAD PUSH1 0x40 MLOAD DUP1 SWAP2 SUB SWAP1 LOG3 POP POP JUMP JUMPDEST PUSH0 DUP1 REVERT JUMPDEST PUSH0 PUSH20 0xFFFFFFFFFFFFFFFFFFFFFFFFFFFFFFFFFFFFFFFF DUP3 AND SWAP1 POP SWAP2 SWAP1 POP JUMP JUMPDEST PUSH0 PUSH2 0x253 DUP3 PUSH2 0x22A JUMP JUMPDEST SWAP1 POP SWAP2 SWAP1 POP JUMP JUMPDEST PUSH2 0x263 DUP2 PUSH2 0x249 JUMP JUMPDEST DUP2 EQ PUSH2 0x26D JUMPI PUSH0 DUP1 REVERT JUMPDEST POP JUMP JUMPDEST PUSH0 DUP2 MLOAD SWAP1 POP PUSH2 0x27E DUP2 PUSH2 0x25A JUMP JUMPDEST SWAP3 SWAP2 POP POP JUMP JUMPDEST PUSH0 DUP1 PUSH0 PUSH1 0x60 DUP5 DUP7 SUB SLT ISZERO PUSH2 0x29B JUMPI PUSH2 0x29A PUSH2 0x226 JUMP JUMPDEST JUMPDEST PUSH0 PUSH2 0x2A8 DUP7 DUP3 DUP8 ADD PUSH2 0x270 JUMP JUMPDEST SWAP4 POP POP PUSH1 0x20 PUSH2 0x2B9 DUP7 DUP3 DUP8 ADD PUSH2 0x270 JUMP JUMPDEST SWAP3 POP POP PUSH1 0x40 PUSH2 0x2CA DUP7 DUP3 DUP8 ADD PUSH2 0x270 JUMP JUMPDEST SWAP2 POP POP SWAP3 POP SWAP3 POP SWAP3 JUMP JUMPDEST PUSH2 0x2DD DUP2 PUSH2 0x249 JUMP JUMPDEST DUP3 MSTORE POP POP JUMP JUMPDEST PUSH0 PUSH1 0x20 DUP3 ADD SWAP1 POP PUSH2 0x2F6 PUSH0 DUP4 ADD DUP5 PUSH2 0x2D4 JUMP JUMPDEST SWAP3 SWAP2 POP POP JUMP JUMPDEST PUSH2 0x2A2D DUP1 PUSH2 0x309 PUSH0 CODECOPY PUSH0 RETURN INVALID PUSH1 0x80 PUSH1 0x40 MSTORE CALLVALUE DUP1 ISZERO PUSH2 0xF JUMPI PUSH0 DUP1 REVERT JUMPDEST POP PUSH1 0x4 CALLDATASIZE LT PUSH2 0x140 JUMPI PUSH0 CALLDATALOAD PUSH1 0xE0 SHR DUP1 PUSH4 0x85DE26B7 GT PUSH2 0xB6 JUMPI DUP1 PUSH4 0xE1765073 GT PUSH2 0x7A JUMPI DUP1 PUSH4 0xE1765073 EQ PUSH2 0x308 JUMPI DUP1 PUSH4 0xE754B9C6 EQ PUSH2 0x338 JUMPI DUP1 PUSH4 0xF2FDE38B EQ PUSH2 0x356 JUMPI DUP1 PUSH4 0xF3CE61AD EQ PUSH2 0x372 JUMPI DUP1 PUSH4 0xFC0C546A EQ PUSH2 0x3A4 JUMPI DUP1 PUSH4 0xFCC0BE6B EQ PUSH2 0x3C2 JUMPI PUSH2 0x140 JUMP JUMPDEST DUP1 PUSH4 0x85DE26B7 EQ PUSH2 0x260 JUMPI DUP1 PUSH4 0x86CF6DE4 EQ PUSH2 0x293 JUMPI DUP1 PUSH4 0x8DA5CB5B EQ PUSH2 0x2AF JUMPI DUP1 PUSH4 0xBB7DF052 EQ PUSH2 0x2CD JUMPI DUP1 PUSH4 0xCC2ED697 EQ PUSH2 0x2EC JUMPI PUSH2 0x140 JUMP JUMPDEST DUP1 PUSH4 0x5C975ABB GT PUSH2 0x108 JUMPI DUP1 PUSH4 0x5C975ABB EQ PUSH2 0x1D6 JUMPI DUP1 PUSH4 0x5CA1E165 EQ PUSH2 0x1F4 JUMPI DUP1 PUSH4 0x666EE854 EQ PUSH2 0x212 JUMPI DUP1 PUSH4 0x67D81740 EQ PUSH2 0x22E JUMPI DUP1 PUSH4 0x715018A6 EQ PUSH2 0x24C JUMPI DUP1 PUSH4 0x8456CB59 EQ PUSH2 0x256 JUMPI PUSH2 0x140 JUMP JUMPDEST DUP1 PUSH4 0x17CC915C EQ PUSH2 0x144 JUMPI DUP1 PUSH4 0x1ACC8486 EQ PUSH2 0x174 JUMPI DUP1 PUSH4 0x2B7AC3F3 EQ PUSH2 0x190 JUMPI DUP1 PUSH4 0x3F4BA83A EQ PUSH2 0x1AE JUMPI DUP1 PUSH4 0x595BA3ED EQ PUSH2 0x1B8 JUMPI JUMPDEST PUSH0 DUP1 REVERT JUMPDEST PUSH2 0x15E PUSH1 0x4 DUP1 CALLDATASIZE SUB DUP2 ADD SWAP1 PUSH2 0x159 SWAP2 SWAP1 PUSH2 0x17B8 JUMP JUMPDEST PUSH2 0x3E0 JUMP JUMPDEST PUSH1 0x40 MLOAD PUSH2 0x16B SWAP2 SWAP1 PUSH2 0x17FD JUMP JUMPDEST PUSH1 0x40 MLOAD DUP1 SWAP2 SUB SWAP1 RETURN JUMPDEST PUSH2 0x18E PUSH1 0x4 DUP1 CALLDATASIZE SUB DUP2 ADD SWAP1 PUSH2 0x189 SWAP2 SWAP1 PUSH2 0x18AA JUMP JUMPDEST PUSH2 0x3FD JUMP JUMPDEST STOP JUMPDEST PUSH2 0x198 PUSH2 0x6AC JUMP JUMPDEST PUSH1 0x40 MLOAD PUSH2 0x1A5 SWAP2 SWAP1 PUSH2 0x1995 JUMP JUMPDEST PUSH1 0x40 MLOAD DUP1 SWAP2 SUB SWAP1 RETURN JUMPDEST PUSH2 0x1B6 PUSH2 0x6D1 JUMP JUMPDEST STOP JUMPDEST PUSH2 0x1C0 PUSH2 0x6E3 JUMP JUMPDEST PUSH1 0x40 MLOAD PUSH2 0x1CD SWAP2 SWAP1 PUSH2 0x19BD JUMP JUMPDEST PUSH1 0x40 MLOAD DUP1 SWAP2 SUB SWAP1 RETURN JUMPDEST PUSH2 0x1DE PUSH2 0x6E9 JUMP JUMPDEST PUSH1 0x40 MLOAD PUSH2 0x1EB SWAP2 SWAP1 PUSH2 0x17FD JUMP JUMPDEST PUSH1 0x40 MLOAD DUP1 SWAP2 SUB SWAP1 RETURN JUMPDEST PUSH2 0x1FC PUSH2 0x6FE JUMP JUMPDEST PUSH1 0x40 MLOAD PUSH2 0x209 SWAP2 SWAP1 PUSH2 0x19E5 JUMP JUMPDEST PUSH1 0x40 MLOAD DUP1 SWAP2 SUB SWAP1 RETURN JUMPDEST PUSH2 0x22C PUSH1 0x4 DUP1 CALLDATASIZE SUB DUP2 ADD SWAP1 PUSH2 0x227 SWAP2 SWAP1 PUSH2 0x19FE JUMP JUMPDEST PUSH2 0x70A JUMP JUMPDEST STOP JUMPDEST PUSH2 0x236 PUSH2 0x7EE JUMP JUMPDEST PUSH1 0x40 MLOAD PUSH2 0x243 SWAP2 SWAP1 PUSH2 0x19BD JUMP JUMPDEST PUSH1 0x40 MLOAD DUP1 SWAP2 SUB SWAP1 RETURN JUMPDEST PUSH2 0x254 PUSH2 0x7F3 JUMP JUMPDEST STOP JUMPDEST PUSH2 0x25E PUSH2 0x806 JUMP JUMPDEST STOP JUMPDEST PUSH2 0x27A PUSH1 0x4 DUP1 CALLDATASIZE SUB DUP2 ADD SWAP1 PUSH2 0x275 SWAP2 SWAP1 PUSH2 0x17B8 JUMP JUMPDEST PUSH2 0x818 JUMP JUMPDEST PUSH1 0x40 MLOAD PUSH2 0x28A SWAP5 SWAP4 SWAP3 SWAP2 SWAP1 PUSH2 0x1AB7 JUMP JUMPDEST PUSH1 0x40 MLOAD DUP1 SWAP2 SUB SWAP1 RETURN JUMPDEST PUSH2 0x2AD PUSH1 0x4 DUP1 CALLDATASIZE SUB DUP2 ADD SWAP1 PUSH2 0x2A8 SWAP2 SWAP1 PUSH2 0x1B5D JUMP JUMPDEST PUSH2 0x8D9 JUMP JUMPDEST STOP JUMPDEST PUSH2 0x2B7 PUSH2 0xDBE JUMP JUMPDEST PUSH1 0x40 MLOAD PUSH2 0x2C4 SWAP2 SWAP1 PUSH2 0x1BFB JUMP JUMPDEST PUSH1 0x40 MLOAD DUP1 SWAP2 SUB SWAP1 RETURN JUMPDEST PUSH2 0x2D5 PUSH2 0xDE5 JUMP JUMPDEST PUSH1 0x40 MLOAD PUSH2 0x2E3 SWAP3 SWAP2 SWAP1 PUSH2 0x1C14 JUMP JUMPDEST PUSH1 0x40 MLOAD DUP1 SWAP2 SUB SWAP1 RETURN JUMPDEST PUSH2 0x306 PUSH1 0x4 DUP1 CALLDATASIZE SUB DUP2 ADD SWAP1 PUSH2 0x301 SWAP2 SWAP1 PUSH2 0x19FE JUMP JUMPDEST PUSH2 0xDF7 JUMP JUMPDEST STOP JUMPDEST PUSH2 0x322 PUSH1 0x4 DUP1 CALLDATASIZE SUB DUP2 ADD SWAP1 PUSH2 0x31D SWAP2 SWAP1 PUSH2 0x19FE JUMP JUMPDEST PUSH2 0xF56 JUMP JUMPDEST PUSH1 0x40 MLOAD PUSH2 0x32F SWAP2 SWAP1 PUSH2 0x1CF2 JUMP JUMPDEST PUSH1 0x40 MLOAD DUP1 SWAP2 SUB SWAP1 RETURN JUMPDEST PUSH2 0x340 PUSH2 0x109E JUMP JUMPDEST PUSH1 0x40 MLOAD PUSH2 0x34D SWAP2 SWAP1 PUSH2 0x19BD JUMP JUMPDEST PUSH1 0x40 MLOAD DUP1 SWAP2 SUB SWAP1 RETURN JUMPDEST PUSH2 0x370 PUSH1 0x4 DUP1 CALLDATASIZE SUB DUP2 ADD SWAP1 PUSH2 0x36B SWAP2 SWAP1 PUSH2 0x1D12 JUMP JUMPDEST PUSH2 0x10AF JUMP JUMPDEST STOP JUMPDEST PUSH2 0x38C PUSH1 0x4 DUP1 CALLDATASIZE SUB DUP2 ADD SWAP1 PUSH2 0x387 SWAP2 SWAP1 PUSH2 0x19FE JUMP JUMPDEST PUSH2 0x1133 JUMP JUMPDEST PUSH1 0x40 MLOAD PUSH2 0x39B SWAP4 SWAP3 SWAP2 SWAP1 PUSH2 0x1D3D JUMP JUMPDEST PUSH1 0x40 MLOAD DUP1 SWAP2 SUB SWAP1 RETURN JUMPDEST PUSH2 0x3AC PUSH2 0x1165 JUMP JUMPDEST PUSH1 0x40 MLOAD PUSH2 0x3B9 SWAP2 SWAP1 PUSH2 0x1D92 JUMP JUMPDEST PUSH1 0x40 MLOAD DUP1 SWAP2 SUB SWAP1 RETURN JUMPDEST PUSH2 0x3CA PUSH2 0x118B JUMP JUMPDEST PUSH1 0x40 MLOAD PUSH2 0x3D7 SWAP2 SWAP1 PUSH2 0x19BD JUMP JUMPDEST PUSH1 0x40 MLOAD DUP1 SWAP2 SUB SWAP1 RETURN JUMPDEST PUSH1 0x4 PUSH1 0x20 MSTORE DUP1 PUSH0 MSTORE PUSH1 0x40 PUSH0 KECCAK256 PUSH0 SWAP2 POP SLOAD SWAP1 PUSH2 0x100 EXP SWAP1 DIV PUSH1 0xFF AND DUP2 JUMP JUMPDEST PUSH2 0x405 PUSH2 0x1190 JUMP JUMPDEST PUSH2 0x40D PUSH2 0x11D6 JUMP JUMPDEST PUSH1 0x5 PUSH0 DUP5 DUP2 MSTORE PUSH1 0x20 ADD SWAP1 DUP2 MSTORE PUSH1 0x20 ADD PUSH0 KECCAK256 PUSH1 0x2 ADD PUSH0 SWAP1 SLOAD SWAP1 PUSH2 0x100 EXP SWAP1 DIV PUSH1 0xFF AND PUSH2 0x46D JUMPI PUSH1 0x40 MLOAD PUSH32 0x8C379A000000000000000000000000000000000000000000000000000000000 DUP2 MSTORE PUSH1 0x4 ADD PUSH2 0x464 SWAP1 PUSH2 0x1E05 JUMP JUMPDEST PUSH1 0x40 MLOAD DUP1 SWAP2 SUB SWAP1 REVERT JUMPDEST PUSH1 0x14 PUSH1 0x2 PUSH2 0x47B SWAP2 SWAP1 PUSH2 0x1F7F JUMP JUMPDEST PUSH1 0x7 PUSH1 0x1 ADD SLOAD LT PUSH2 0x4C1 JUMPI PUSH1 0x40 MLOAD PUSH32 0x8C379A000000000000000000000000000000000000000000000000000000000 DUP2 MSTORE PUSH1 0x4 ADD PUSH2 0x4B8 SWAP1 PUSH2 0x2013 JUMP JUMPDEST PUSH1 0x40 MLOAD DUP1 SWAP2 SUB SWAP1 REVERT JUMPDEST PUSH1 0x2 PUSH1 0x1 SWAP1 SLOAD SWAP1 PUSH2 0x100 EXP SWAP1 DIV PUSH20 0xFFFFFFFFFFFFFFFFFFFFFFFFFFFFFFFFFFFFFFFF AND PUSH20 0xFFFFFFFFFFFFFFFFFFFFFFFFFFFFFFFFFFFFFFFF AND PUSH4 0x23B872DD CALLER ADDRESS DUP7 PUSH1 0x40 MLOAD DUP5 PUSH4 0xFFFFFFFF AND PUSH1 0xE0 SHL DUP2 MSTORE PUSH1 0x4 ADD PUSH2 0x520 SWAP4 SWAP3 SWAP2 SWAP1 PUSH2 0x2031 JUMP JUMPDEST PUSH1 0x20 PUSH1 0x40 MLOAD DUP1 DUP4 SUB DUP2 PUSH0 DUP8 GAS CALL ISZERO DUP1 ISZERO PUSH2 0x53C JUMPI RETURNDATASIZE PUSH0 DUP1 RETURNDATACOPY RETURNDATASIZE PUSH0 REVERT JUMPDEST POP POP POP POP PUSH1 0x40 MLOAD RETURNDATASIZE PUSH1 0x1F NOT PUSH1 0x1F DUP3 ADD AND DUP3 ADD DUP1 PUSH1 0x40 MSTORE POP DUP2 ADD SWAP1 PUSH2 0x560 SWAP2 SWAP1 PUSH2 0x2090 JUMP JUMPDEST POP PUSH1 0x40 MLOAD DUP1 PUSH1 0x80 ADD PUSH1 0x40 MSTORE DUP1 DUP6 DUP2 MSTORE PUSH1 0x20 ADD TIMESTAMP PUSH4 0xFFFFFFFF AND DUP2 MSTORE PUSH1 0x20 ADD DUP5 DUP2 MSTORE PUSH1 0x20 ADD DUP4 DUP4 DUP1 DUP1 PUSH1 0x1F ADD PUSH1 0x20 DUP1 SWAP2 DIV MUL PUSH1 0x20 ADD PUSH1 0x40 MLOAD SWAP1 DUP2 ADD PUSH1 0x40 MSTORE DUP1 SWAP4 SWAP3 SWAP2 SWAP1 DUP2 DUP2 MSTORE PUSH1 0x20 ADD DUP4 DUP4 DUP1 DUP3 DUP5 CALLDATACOPY PUSH0 DUP2 DUP5 ADD MSTORE PUSH1 0x1F NOT PUSH1 0x1F DUP3 ADD AND SWAP1 POP DUP1 DUP4 ADD SWAP3 POP POP POP POP POP POP POP DUP2 MSTORE POP PUSH1 0x6 PUSH0 DUP7 DUP2 MSTORE PUSH1 0x20 ADD SWAP1 DUP2 MSTORE PUSH1 0x20 ADD PUSH0 KECCAK256 PUSH0 DUP3 ADD MLOAD DUP2 PUSH0 ADD SSTORE PUSH1 0x20 DUP3 ADD MLOAD DUP2 PUSH1 0x1 ADD PUSH0 PUSH2 0x100 EXP DUP2 SLOAD DUP2 PUSH4 0xFFFFFFFF MUL NOT AND SWAP1 DUP4 PUSH4 0xFFFFFFFF AND MUL OR SWAP1 SSTORE POP PUSH1 0x40 DUP3 ADD MLOAD DUP2 PUSH1 0x2 ADD SSTORE PUSH1 0x60 DUP3 ADD MLOAD DUP2 PUSH1 0x3 ADD SWAP1 DUP2 PUSH2 0x629 SWAP2 SWAP1 PUSH2 0x22D9 JUMP JUMPDEST POP SWAP1 POP POP PUSH0 PUSH2 0x637 DUP6 PUSH2 0x1217 JUMP JUMPDEST SWAP1 POP PUSH1 0x5 PUSH0 DUP6 DUP2 MSTORE PUSH1 0x20 ADD SWAP1 DUP2 MSTORE PUSH1 0x20 ADD PUSH0 KECCAK256 PUSH1 0x1 ADD PUSH0 DUP2 SLOAD DUP1 SWAP3 SWAP2 SWAP1 PUSH2 0x65D SWAP1 PUSH2 0x23A8 JUMP JUMPDEST SWAP2 SWAP1 POP SSTORE POP DUP4 DUP6 PUSH32 0xCE80217AC10251BA83B6B6CE91DA12BDD096AA99C37336C00BB01815FF8E77C1 DUP4 TIMESTAMP PUSH1 0x40 MLOAD PUSH2 0x695 SWAP3 SWAP2 SWAP1 PUSH2 0x23EF JUMP JUMPDEST PUSH1 0x40 MLOAD DUP1 SWAP2 SUB SWAP1 LOG3 POP PUSH2 0x6A6 PUSH2 0x1482 JUMP JUMPDEST POP POP POP POP JUMP JUMPDEST PUSH1 0x3 PUSH0 SWAP1 SLOAD SWAP1 PUSH2 0x100 EXP SWAP1 DIV PUSH20 0xFFFFFFFFFFFFFFFFFFFFFFFFFFFFFFFFFFFFFFFF AND DUP2 JUMP JUMPDEST PUSH2 0x6D9 PUSH2 0x148B JUMP JUMPDEST PUSH2 0x6E1 PUSH2 0x1512 JUMP JUMPDEST JUMP JUMPDEST PUSH1 0xB SLOAD DUP2 JUMP JUMPDEST PUSH0 PUSH1 0x2 PUSH0 SWAP1 SLOAD SWAP1 PUSH2 0x100 EXP SWAP1 DIV PUSH1 0xFF AND SWAP1 POP SWAP1 JUMP JUMPDEST PUSH0 PUSH1 0x7 PUSH1 0x2 ADD SLOAD SWAP1 POP SWAP1 JUMP JUMPDEST PUSH2 0x712 PUSH2 0x148B JUMP JUMPDEST PUSH1 0x5 PUSH0 DUP3 DUP2 MSTORE PUSH1 0x20 ADD SWAP1 DUP2 MSTORE PUSH1 0x20 ADD PUSH0 KECCAK256 PUSH1 0x2 ADD PUSH0 SWAP1 SLOAD SWAP1 PUSH2 0x100 EXP SWAP1 DIV PUSH1 0xFF AND PUSH2 0x772 JUMPI PUSH1 0x40 MLOAD PUSH32 0x8C379A000000000000000000000000000000000000000000000000000000000 DUP2 MSTORE PUSH1 0x4 ADD PUSH2 0x769 SWAP1 PUSH2 0x2460 JUMP JUMPDEST PUSH1 0x40 MLOAD DUP1 SWAP2 SUB SWAP1 REVERT JUMPDEST PUSH0 PUSH1 0x5 PUSH0 DUP4 DUP2 MSTORE PUSH1 0x20 ADD SWAP1 DUP2 MSTORE PUSH1 0x20 ADD PUSH0 KECCAK256 PUSH1 0x2 ADD PUSH0 PUSH2 0x100 EXP DUP2 SLOAD DUP2 PUSH1 0xFF MUL NOT AND SWAP1 DUP4 ISZERO ISZERO MUL OR SWAP1 SSTORE POP PUSH1 0xB PUSH0 DUP2 SLOAD DUP1 SWAP3 SWAP2 SWAP1 PUSH2 0x7AF SWAP1 PUSH2 0x247E JUMP JUMPDEST SWAP2 SWAP1 POP SSTORE POP PUSH32 0x92D6CD445C3824B8EE6F49F30E8DF9C4676634C4E177FADC616918EE2AF3EA64 DUP2 PUSH1 0x40 MLOAD PUSH2 0x7E3 SWAP2 SWAP1 PUSH2 0x19BD JUMP JUMPDEST PUSH1 0x40 MLOAD DUP1 SWAP2 SUB SWAP1 LOG1 POP JUMP JUMPDEST PUSH1 0x2 DUP2 JUMP JUMPDEST PUSH2 0x7FB PUSH2 0x148B JUMP JUMPDEST PUSH2 0x804 PUSH0 PUSH2 0x1573 JUMP JUMPDEST JUMP JUMPDEST PUSH2 0x80E PUSH2 0x148B JUMP JUMPDEST PUSH2 0x816 PUSH2 0x1634 JUMP JUMPDEST JUMP JUMPDEST PUSH1 0x6 PUSH1 0x20 MSTORE DUP1 PUSH0 MSTORE PUSH1 0x40 PUSH0 KECCAK256 PUSH0 SWAP2 POP SWAP1 POP DUP1 PUSH0 ADD SLOAD SWAP1 DUP1 PUSH1 0x1 ADD PUSH0 SWAP1 SLOAD SWAP1 PUSH2 0x100 EXP SWAP1 DIV PUSH4 0xFFFFFFFF AND SWAP1 DUP1 PUSH1 0x2 ADD SLOAD SWAP1 DUP1 PUSH1 0x3 ADD DUP1 SLOAD PUSH2 0x858 SWAP1 PUSH2 0x2115 JUMP JUMPDEST DUP1 PUSH1 0x1F ADD PUSH1 0x20 DUP1 SWAP2 DIV MUL PUSH1 0x20 ADD PUSH1 0x40 MLOAD SWAP1 DUP2 ADD PUSH1 0x40 MSTORE DUP1 SWAP3 SWAP2 SWAP1 DUP2 DUP2 MSTORE PUSH1 0x20 ADD DUP3 DUP1 SLOAD PUSH2 0x884 SWAP1 PUSH2 0x2115 JUMP JUMPDEST DUP1 ISZERO PUSH2 0x8CF JUMPI DUP1 PUSH1 0x1F LT PUSH2 0x8A6 JUMPI PUSH2 0x100 DUP1 DUP4 SLOAD DIV MUL DUP4 MSTORE SWAP2 PUSH1 0x20 ADD SWAP2 PUSH2 0x8CF JUMP JUMPDEST DUP3 ADD SWAP2 SWAP1 PUSH0 MSTORE PUSH1 0x20 PUSH0 KECCAK256 SWAP1 JUMPDEST DUP2 SLOAD DUP2 MSTORE SWAP1 PUSH1 0x1 ADD SWAP1 PUSH1 0x20 ADD DUP1 DUP4 GT PUSH2 0x8B2 JUMPI DUP3 SWAP1 SUB PUSH1 0x1F AND DUP3 ADD SWAP2 JUMPDEST POP POP POP POP POP SWAP1 POP DUP5 JUMP JUMPDEST PUSH2 0x8E1 PUSH2 0x1190 JUMP JUMPDEST PUSH2 0x8E9 PUSH2 0x11D6 JUMP JUMPDEST PUSH1 0x64 PUSH1 0x2 DUP3 PUSH2 0x8F8 SWAP2 SWAP1 PUSH2 0x24A5 JUMP JUMPDEST PUSH2 0x902 SWAP2 SWAP1 PUSH2 0x2513 JUMP JUMPDEST DUP3 GT ISZERO PUSH2 0x944 JUMPI PUSH1 0x40 MLOAD PUSH32 0x8C379A000000000000000000000000000000000000000000000000000000000 DUP2 MSTORE PUSH1 0x4 ADD PUSH2 0x93B SWAP1 PUSH2 0x258D JUMP JUMPDEST PUSH1 0x40 MLOAD DUP1 SWAP2 SUB SWAP1 REVERT JUMPDEST PUSH1 0x4 PUSH0 DUP7 DUP2 MSTORE PUSH1 0x20 ADD SWAP1 DUP2 MSTORE PUSH1 0x20 ADD PUSH0 KECCAK256 PUSH0 SWAP1 SLOAD SWAP1 PUSH2 0x100 EXP SWAP1 DIV PUSH1 0xFF AND ISZERO PUSH2 0x9A2 JUMPI PUSH1 0x40 MLOAD PUSH32 0x8C379A000000000000000000000000000000000000000000000000000000000 DUP2 MSTORE PUSH1 0x4 ADD PUSH2 0x999 SWAP1 PUSH2 0x25F5 JUMP JUMPDEST PUSH1 0x40 MLOAD DUP1 SWAP2 SUB SWAP1 REVERT JUMPDEST PUSH1 0x5 PUSH0 DUP3 DUP2 MSTORE PUSH1 0x20 ADD SWAP1 DUP2 MSTORE PUSH1 0x20 ADD PUSH0 KECCAK256 PUSH1 0x2 ADD PUSH0 SWAP1 SLOAD SWAP1 PUSH2 0x100 EXP SWAP1 DIV PUSH1 0xFF AND PUSH2 0xA02 JUMPI PUSH1 0x40 MLOAD PUSH32 0x8C379A000000000000000000000000000000000000000000000000000000000 DUP2 MSTORE PUSH1 0x4 ADD PUSH2 0x9F9 SWAP1 PUSH2 0x1E05 JUMP JUMPDEST PUSH1 0x40 MLOAD DUP1 SWAP2 SUB SWAP1 REVERT JUMPDEST PUSH2 0xA0A PUSH2 0x175B JUMP JUMPDEST DUP2 PUSH32 0x100000000000000000000000000000000000000000000000000000000000000 DUP5 PUSH2 0xA37 SWAP2 SWAP1 PUSH2 0x24A5 JUMP JUMPDEST PUSH27 0x10000000000000000000000000000000000000000000000000000 DUP7 PUSH20 0xFFFFFFFFFFFFFFFFFFFFFFFFFFFFFFFFFFFFFFFF AND PUSH2 0xA74 SWAP2 SWAP1 PUSH2 0x24A5 JUMP JUMPDEST PUSH21 0x10000000000000000000000000000000000000000 DUP9 PUSH20 0xFFFFFFFFFFFFFFFFFFFFFFFFFFFFFFFFFFFFFFFF AND PUSH2 0xAAB SWAP2 SWAP1 PUSH2 0x24A5 JUMP JUMPDEST DUP10 PUSH0 SHR PUSH2 0xAB8 SWAP2 SWAP1 PUSH2 0x2613 JUMP JUMPDEST PUSH2 0xAC2 SWAP2 SWAP1 PUSH2 0x2613 JUMP JUMPDEST PUSH2 0xACC SWAP2 SWAP1 PUSH2 0x2613 JUMP JUMPDEST PUSH2 0xAD6 SWAP2 SWAP1 PUSH2 0x2613 JUMP JUMPDEST DUP2 PUSH0 PUSH1 0x1 DUP2 LT PUSH2 0xAE9 JUMPI PUSH2 0xAE8 PUSH2 0x2646 JUMP JUMPDEST JUMPDEST PUSH1 0x20 MUL ADD DUP2 DUP2 MSTORE POP POP PUSH1 0x3 PUSH0 SWAP1 SLOAD SWAP1 PUSH2 0x100 EXP SWAP1 DIV PUSH20 0xFFFFFFFFFFFFFFFFFFFFFFFFFFFFFFFFFFFFFFFF AND PUSH20 0xFFFFFFFFFFFFFFFFFFFFFFFFFFFFFFFFFFFFFFFF AND PUSH4 0x1B81F829 DUP9 DUP4 PUSH1 0x40 MLOAD DUP4 PUSH4 0xFFFFFFFF AND PUSH1 0xE0 SHL DUP2 MSTORE PUSH1 0x4 ADD PUSH2 0xB4E SWAP3 SWAP2 SWAP1 PUSH2 0x2732 JUMP JUMPDEST PUSH1 0x20 PUSH1 0x40 MLOAD DUP1 DUP4 SUB DUP2 DUP7 GAS STATICCALL ISZERO DUP1 ISZERO PUSH2 0xB69 JUMPI RETURNDATASIZE PUSH0 DUP1 RETURNDATACOPY RETURNDATASIZE PUSH0 REVERT JUMPDEST POP POP POP POP PUSH1 0x40 MLOAD RETURNDATASIZE PUSH1 0x1F NOT PUSH1 0x1F DUP3 ADD AND DUP3 ADD DUP1 PUSH1 0x40 MSTORE POP DUP2 ADD SWAP1 PUSH2 0xB8D SWAP2 SWAP1 PUSH2 0x2090 JUMP JUMPDEST PUSH2 0xBCC JUMPI PUSH1 0x40 MLOAD PUSH32 0x8C379A000000000000000000000000000000000000000000000000000000000 DUP2 MSTORE PUSH1 0x4 ADD PUSH2 0xBC3 SWAP1 PUSH2 0x27A5 JUMP JUMPDEST PUSH1 0x40 MLOAD DUP1 SWAP2 SUB SWAP1 REVERT JUMPDEST PUSH1 0x1 PUSH1 0x4 PUSH0 DUP9 DUP2 MSTORE PUSH1 0x20 ADD SWAP1 DUP2 MSTORE PUSH1 0x20 ADD PUSH0 KECCAK256 PUSH0 PUSH2 0x100 EXP DUP2 SLOAD DUP2 PUSH1 0xFF MUL NOT AND SWAP1 DUP4 ISZERO ISZERO MUL OR SWAP1 SSTORE POP PUSH0 DUP4 GT ISZERO PUSH2 0xC9C JUMPI PUSH1 0x2 PUSH1 0x1 SWAP1 SLOAD SWAP1 PUSH2 0x100 EXP SWAP1 DIV PUSH20 0xFFFFFFFFFFFFFFFFFFFFFFFFFFFFFFFFFFFFFFFF AND PUSH20 0xFFFFFFFFFFFFFFFFFFFFFFFFFFFFFFFFFFFFFFFF AND PUSH4 0xA9059CBB DUP6 DUP6 PUSH1 0x40 MLOAD DUP4 PUSH4 0xFFFFFFFF AND PUSH1 0xE0 SHL DUP2 MSTORE PUSH1 0x4 ADD PUSH2 0xC5A SWAP3 SWAP2 SWAP1 PUSH2 0x27C3 JUMP JUMPDEST PUSH1 0x20 PUSH1 0x40 MLOAD DUP1 DUP4 SUB DUP2 PUSH0 DUP8 GAS CALL ISZERO DUP1 ISZERO PUSH2 0xC76 JUMPI RETURNDATASIZE PUSH0 DUP1 RETURNDATACOPY RETURNDATASIZE PUSH0 REVERT JUMPDEST POP POP POP POP PUSH1 0x40 MLOAD RETURNDATASIZE PUSH1 0x1F NOT PUSH1 0x1F DUP3 ADD AND DUP3 ADD DUP1 PUSH1 0x40 MSTORE POP DUP2 ADD SWAP1 PUSH2 0xC9A SWAP2 SWAP1 PUSH2 0x2090 JUMP JUMPDEST POP JUMPDEST PUSH1 0x2 PUSH1 0x1 SWAP1 SLOAD SWAP1 PUSH2 0x100 EXP SWAP1 DIV PUSH20 0xFFFFFFFFFFFFFFFFFFFFFFFFFFFFFFFFFFFFFFFF AND PUSH20 0xFFFFFFFFFFFFFFFFFFFFFFFFFFFFFFFFFFFFFFFF AND PUSH4 0xA9059CBB DUP7 DUP6 DUP6 PUSH2 0xCE7 SWAP2 SWAP1 PUSH2 0x27EA JUMP JUMPDEST PUSH1 0x40 MLOAD DUP4 PUSH4 0xFFFFFFFF AND PUSH1 0xE0 SHL DUP2 MSTORE PUSH1 0x4 ADD PUSH2 0xD04 SWAP3 SWAP2 SWAP1 PUSH2 0x27C3 JUMP JUMPDEST PUSH1 0x20 PUSH1 0x40 MLOAD DUP1 DUP4 SUB DUP2 PUSH0 DUP8 GAS CALL ISZERO DUP1 ISZERO PUSH2 0xD20 JUMPI RETURNDATASIZE PUSH0 DUP1 RETURNDATACOPY RETURNDATASIZE PUSH0 REVERT JUMPDEST POP POP POP POP PUSH1 0x40 MLOAD RETURNDATASIZE PUSH1 0x1F NOT PUSH1 0x1F DUP3 ADD AND DUP3 ADD DUP1 PUSH1 0x40 MSTORE POP DUP2 ADD SWAP1 PUSH2 0xD44 SWAP2 SWAP1 PUSH2 0x2090 JUMP JUMPDEST POP DUP4 PUSH20 0xFFFFFFFFFFFFFFFFFFFFFFFFFFFFFFFFFFFFFFFF AND DUP7 DUP7 PUSH20 0xFFFFFFFFFFFFFFFFFFFFFFFFFFFFFFFFFFFFFFFF AND PUSH32 0x6D7AAC54BD3D1C91DB3B1FD7B8D6CB45324AD6B5E373C0F0EA4D7B2606C4C2C8 DUP6 DUP8 PUSH1 0x40 MLOAD PUSH2 0xDA5 SWAP3 SWAP2 SWAP1 PUSH2 0x281D JUMP JUMPDEST PUSH1 0x40 MLOAD DUP1 SWAP2 SUB SWAP1 LOG4 POP PUSH2 0xDB6 PUSH2 0x1482 JUMP JUMPDEST POP POP POP POP POP POP JUMP JUMPDEST PUSH0 DUP1 PUSH0 SWAP1 SLOAD SWAP1 PUSH2 0x100 EXP SWAP1 DIV PUSH20 0xFFFFFFFFFFFFFFFFFFFFFFFFFFFFFFFFFFFFFFFF AND SWAP1 POP SWAP1 JUMP JUMPDEST PUSH1 0x7 DUP1 PUSH1 0x1 ADD SLOAD SWAP1 DUP1 PUSH1 0x2 ADD SLOAD SWAP1 POP DUP3 JUMP JUMPDEST PUSH2 0xDFF PUSH2 0x148B JUMP JUMPDEST PUSH0 DUP2 GT PUSH2 0xE41 JUMPI PUSH1 0x40 MLOAD PUSH32 0x8C379A000000000000000000000000000000000000000000000000000000000 DUP2 MSTORE PUSH1 0x4 ADD PUSH2 0xE38 SWAP1 PUSH2 0x288E JUMP JUMPDEST PUSH1 0x40 MLOAD DUP1 SWAP2 SUB SWAP1 REVERT JUMPDEST PUSH1 0x5 PUSH0 DUP3 DUP2 MSTORE PUSH1 0x20 ADD SWAP1 DUP2 MSTORE PUSH1 0x20 ADD PUSH0 KECCAK256 PUSH1 0x2 ADD PUSH0 SWAP1 SLOAD SWAP1 PUSH2 0x100 EXP SWAP1 DIV PUSH1 0xFF AND ISZERO PUSH2 0xEA2 JUMPI PUSH1 0x40 MLOAD PUSH32 0x8C379A000000000000000000000000000000000000000000000000000000000 DUP2 MSTORE PUSH1 0x4 ADD PUSH2 0xE99 SWAP1 PUSH2 0x28F6 JUMP JUMPDEST PUSH1 0x40 MLOAD DUP1 SWAP2 SUB SWAP1 REVERT JUMPDEST PUSH1 0x40 MLOAD DUP1 PUSH1 0x60 ADD PUSH1 0x40 MSTORE DUP1 DUP3 DUP2 MSTORE PUSH1 0x20 ADD PUSH0 DUP2 MSTORE PUSH1 0x20 ADD PUSH1 0x1 ISZERO ISZERO DUP2 MSTORE POP PUSH1 0x5 PUSH0 DUP4 DUP2 MSTORE PUSH1 0x20 ADD SWAP1 DUP2 MSTORE PUSH1 0x20 ADD PUSH0 KECCAK256 PUSH0 DUP3 ADD MLOAD DUP2 PUSH0 ADD SSTORE PUSH1 0x20 DUP3 ADD MLOAD DUP2 PUSH1 0x1 ADD SSTORE PUSH1 0x40 DUP3 ADD MLOAD DUP2 PUSH1 0x2 ADD PUSH0 PUSH2 0x100 EXP DUP2 SLOAD DUP2 PUSH1 0xFF MUL NOT AND SWAP1 DUP4 ISZERO ISZERO MUL OR SWAP1 SSTORE POP SWAP1 POP POP PUSH1 0xB PUSH0 DUP2 SLOAD DUP1 SWAP3 SWAP2 SWAP1 PUSH2 0xF17 SWAP1 PUSH2 0x23A8 JUMP JUMPDEST SWAP2 SWAP1 POP SSTORE POP PUSH32 0x8A5735E0BAF05EE5A04A6DD24654F14B2F442D7FC7321C0DC098B8E338BC0408 DUP2 PUSH1 0x40 MLOAD PUSH2 0xF4B SWAP2 SWAP1 PUSH2 0x19BD JUMP JUMPDEST PUSH1 0x40 MLOAD DUP1 SWAP2 SUB SWAP1 LOG1 POP JUMP JUMPDEST PUSH1 0x60 PUSH1 0x7 PUSH1 0x1 ADD SLOAD DUP3 LT PUSH2 0xF9F JUMPI PUSH1 0x40 MLOAD PUSH32 0x8C379A000000000000000000000000000000000000000000000000000000000 DUP2 MSTORE PUSH1 0x4 ADD PUSH2 0xF96 SWAP1 PUSH2 0x295E JUMP JUMPDEST PUSH1 0x40 MLOAD DUP1 SWAP2 SUB SWAP1 REVERT JUMPDEST PUSH0 PUSH1 0x14 PUSH8 0xFFFFFFFFFFFFFFFF DUP2 GT ISZERO PUSH2 0xFBB JUMPI PUSH2 0xFBA PUSH2 0x20BB JUMP JUMPDEST JUMPDEST PUSH1 0x40 MLOAD SWAP1 DUP1 DUP3 MSTORE DUP1 PUSH1 0x20 MUL PUSH1 0x20 ADD DUP3 ADD PUSH1 0x40 MSTORE DUP1 ISZERO PUSH2 0xFE9 JUMPI DUP2 PUSH1 0x20 ADD PUSH1 0x20 DUP3 MUL DUP1 CALLDATASIZE DUP4 CALLDATACOPY DUP1 DUP3 ADD SWAP2 POP POP SWAP1 POP JUMPDEST POP SWAP1 POP PUSH0 DUP4 SWAP1 POP PUSH0 JUMPDEST PUSH1 0x14 DUP2 LT ISZERO PUSH2 0x1093 JUMPI PUSH0 DUP1 PUSH1 0x2 DUP5 PUSH2 0x100A SWAP2 SWAP1 PUSH2 0x297C JUMP JUMPDEST SUB PUSH2 0x1023 JUMPI PUSH1 0x1 DUP4 PUSH2 0x101C SWAP2 SWAP1 PUSH2 0x2613 JUMP JUMPDEST SWAP1 POP PUSH2 0x1033 JUMP JUMPDEST PUSH1 0x1 DUP4 PUSH2 0x1030 SWAP2 SWAP1 PUSH2 0x27EA JUMP JUMPDEST SWAP1 POP JUMPDEST PUSH1 0x7 PUSH1 0x3 ADD PUSH0 DUP3 DUP2 MSTORE PUSH1 0x20 ADD SWAP1 DUP2 MSTORE PUSH1 0x20 ADD PUSH0 KECCAK256 PUSH0 DUP4 DUP2 MSTORE PUSH1 0x20 ADD SWAP1 DUP2 MSTORE PUSH1 0x20 ADD PUSH0 KECCAK256 SLOAD DUP5 DUP4 DUP2 MLOAD DUP2 LT PUSH2 0x106A JUMPI PUSH2 0x1069 PUSH2 0x2646 JUMP JUMPDEST JUMPDEST PUSH1 0x20 MUL PUSH1 0x20 ADD ADD DUP2 DUP2 MSTORE POP POP PUSH1 0x2 DUP4 PUSH2 0x1083 SWAP2 SWAP1 PUSH2 0x2513 JUMP JUMPDEST SWAP3 POP POP DUP1 DUP1 PUSH1 0x1 ADD SWAP2 POP POP PUSH2 0xFF2 JUMP JUMPDEST POP DUP2 SWAP3 POP POP POP SWAP2 SWAP1 POP JUMP JUMPDEST PUSH1 0x14 PUSH1 0x2 PUSH2 0x10AC SWAP2 SWAP1 PUSH2 0x1F7F JUMP JUMPDEST DUP2 JUMP JUMPDEST PUSH2 0x10B7 PUSH2 0x148B JUMP JUMPDEST PUSH0 PUSH20 0xFFFFFFFFFFFFFFFFFFFFFFFFFFFFFFFFFFFFFFFF AND DUP2 PUSH20 0xFFFFFFFFFFFFFFFFFFFFFFFFFFFFFFFFFFFFFFFF AND SUB PUSH2 0x1127 JUMPI PUSH0 PUSH1 0x40 MLOAD PUSH32 0x1E4FBDF700000000000000000000000000000000000000000000000000000000 DUP2 MSTORE PUSH1 0x4 ADD PUSH2 0x111E SWAP2 SWAP1 PUSH2 0x1BFB JUMP JUMPDEST PUSH1 0x40 MLOAD DUP1 SWAP2 SUB SWAP1 REVERT JUMPDEST PUSH2 0x1130 DUP2 PUSH2 0x1573 JUMP JUMPDEST POP JUMP JUMPDEST PUSH1 0x5 PUSH1 0x20 MSTORE DUP1 PUSH0 MSTORE PUSH1 0x40 PUSH0 KECCAK256 PUSH0 SWAP2 POP SWAP1 POP DUP1 PUSH0 ADD SLOAD SWAP1 DUP1 PUSH1 0x1 ADD SLOAD SWAP1 DUP1 PUSH1 0x2 ADD PUSH0 SWAP1 SLOAD SWAP1 PUSH2 0x100 EXP SWAP1 DIV PUSH1 0xFF AND SWAP1 POP DUP4 JUMP JUMPDEST PUSH1 0x2 PUSH1 0x1 SWAP1 SLOAD SWAP1 PUSH2 0x100 EXP SWAP1 DIV PUSH20 0xFFFFFFFFFFFFFFFFFFFFFFFFFFFFFFFFFFFFFFFF AND DUP2 JUMP JUMPDEST PUSH1 0x14 DUP2 JUMP JUMPDEST PUSH1 0x2 PUSH1 0x1 SLOAD SUB PUSH2 0x11CC JUMPI PUSH1 0x40 MLOAD PUSH32 0x3EE5AEB500000000000000000000000000000000000000000000000000000000 DUP2 MSTORE PUSH1 0x4 ADD PUSH1 0x40 MLOAD DUP1 SWAP2 SUB SWAP1 REVERT JUMPDEST PUSH1 0x2 PUSH1 0x1 DUP2 SWAP1 SSTORE POP JUMP JUMPDEST PUSH2 0x11DE PUSH2 0x6E9 JUMP JUMPDEST ISZERO PUSH2 0x1215 JUMPI PUSH1 0x40 MLOAD PUSH32 0xD93C066500000000000000000000000000000000000000000000000000000000 DUP2 MSTORE PUSH1 0x4 ADD PUSH1 0x40 MLOAD DUP1 SWAP2 SUB SWAP1 REVERT JUMPDEST JUMP JUMPDEST PUSH0 DUP1 PUSH1 0x7 PUSH1 0x1 ADD SLOAD SWAP1 POP PUSH1 0x14 PUSH1 0x2 PUSH2 0x122F SWAP2 SWAP1 PUSH2 0x1F7F JUMP JUMPDEST DUP2 PUSH4 0xFFFFFFFF AND LT PUSH2 0x1276 JUMPI PUSH1 0x40 MLOAD PUSH32 0x8C379A000000000000000000000000000000000000000000000000000000000 DUP2 MSTORE PUSH1 0x4 ADD PUSH2 0x126D SWAP1 PUSH2 0x2013 JUMP JUMPDEST PUSH1 0x40 MLOAD DUP1 SWAP2 SUB SWAP1 REVERT JUMPDEST PUSH1 0x7 PUSH0 ADD DUP4 SWAP1 DUP1 PUSH1 0x1 DUP2 SLOAD ADD DUP1 DUP3 SSTORE DUP1 SWAP2 POP POP PUSH1 0x1 SWAP1 SUB SWAP1 PUSH0 MSTORE PUSH1 0x20 PUSH0 KECCAK256 ADD PUSH0 SWAP1 SWAP2 SWAP1 SWAP2 SWAP1 SWAP2 POP SSTORE DUP3 PUSH1 0x7 PUSH1 0x3 ADD PUSH0 DUP4 PUSH4 0xFFFFFFFF AND DUP2 MSTORE PUSH1 0x20 ADD SWAP1 DUP2 MSTORE PUSH1 0x20 ADD PUSH0 KECCAK256 PUSH0 DUP1 DUP2 MSTORE PUSH1 0x20 ADD SWAP1 DUP2 MSTORE PUSH1 0x20 ADD PUSH0 KECCAK256 DUP2 SWAP1 SSTORE POP PUSH0 DUP1 DUP3 PUSH4 0xFFFFFFFF AND SWAP1 POP PUSH0 DUP1 JUMPDEST PUSH1 0x14 DUP5 LT ISZERO PUSH2 0x142D JUMPI PUSH0 PUSH1 0x2 DUP5 PUSH2 0x12F1 SWAP2 SWAP1 PUSH2 0x297C JUMP JUMPDEST SUB PUSH2 0x1369 JUMPI PUSH1 0x7 PUSH1 0x3 ADD PUSH0 DUP5 DUP2 MSTORE PUSH1 0x20 ADD SWAP1 DUP2 MSTORE PUSH1 0x20 ADD PUSH0 KECCAK256 PUSH0 DUP6 DUP2 MSTORE PUSH1 0x20 ADD SWAP1 DUP2 MSTORE PUSH1 0x20 ADD PUSH0 KECCAK256 SLOAD SWAP2 POP PUSH2 0x1325 DUP5 PUSH2 0x1696 JUMP JUMPDEST SWAP1 POP PUSH2 0x1331 DUP3 DUP3 PUSH2 0x16E2 JUMP JUMPDEST PUSH1 0x7 PUSH1 0x3 ADD PUSH0 DUP6 DUP2 MSTORE PUSH1 0x20 ADD SWAP1 DUP2 MSTORE PUSH1 0x20 ADD PUSH0 KECCAK256 PUSH0 PUSH1 0x1 DUP8 PUSH2 0x1353 SWAP2 SWAP1 PUSH2 0x2613 JUMP JUMPDEST DUP2 MSTORE PUSH1 0x20 ADD SWAP1 DUP2 MSTORE PUSH1 0x20 ADD PUSH0 KECCAK256 DUP2 SWAP1 SSTORE POP PUSH2 0x140B JUMP JUMPDEST PUSH1 0x7 PUSH1 0x3 ADD PUSH0 PUSH1 0x1 DUP6 PUSH2 0x137C SWAP2 SWAP1 PUSH2 0x27EA JUMP JUMPDEST DUP2 MSTORE PUSH1 0x20 ADD SWAP1 DUP2 MSTORE PUSH1 0x20 ADD PUSH0 KECCAK256 PUSH0 DUP6 DUP2 MSTORE PUSH1 0x20 ADD SWAP1 DUP2 MSTORE PUSH1 0x20 ADD PUSH0 KECCAK256 SLOAD SWAP2 POP PUSH1 0x7 PUSH1 0x3 ADD PUSH0 DUP5 DUP2 MSTORE PUSH1 0x20 ADD SWAP1 DUP2 MSTORE PUSH1 0x20 ADD PUSH0 KECCAK256 PUSH0 DUP6 DUP2 MSTORE PUSH1 0x20 ADD SWAP1 DUP2 MSTORE PUSH1 0x20 ADD PUSH0 KECCAK256 SLOAD SWAP1 POP PUSH2 0x13CB DUP3 DUP3 PUSH2 0x16E2 JUMP JUMPDEST PUSH1 0x7 PUSH1 0x3 ADD PUSH0 PUSH1 0x1 DUP7 PUSH2 0x13DE SWAP2 SWAP1 PUSH2 0x27EA JUMP JUMPDEST DUP2 MSTORE PUSH1 0x20 ADD SWAP1 DUP2 MSTORE PUSH1 0x20 ADD PUSH0 KECCAK256 PUSH0 PUSH1 0x1 DUP8 PUSH2 0x13F9 SWAP2 SWAP1 PUSH2 0x2613 JUMP JUMPDEST DUP2 MSTORE PUSH1 0x20 ADD SWAP1 DUP2 MSTORE PUSH1 0x20 ADD PUSH0 KECCAK256 DUP2 SWAP1 SSTORE POP JUMPDEST PUSH1 0x2 DUP4 PUSH2 0x1418 SWAP2 SWAP1 PUSH2 0x2513 JUMP JUMPDEST SWAP3 POP DUP4 DUP1 PUSH2 0x1425 SWAP1 PUSH2 0x23A8 JUMP JUMPDEST SWAP5 POP POP PUSH2 0x12DA JUMP JUMPDEST PUSH1 0x7 PUSH1 0x3 ADD PUSH0 DUP1 DUP2 MSTORE PUSH1 0x20 ADD SWAP1 DUP2 MSTORE PUSH1 0x20 ADD PUSH0 KECCAK256 PUSH0 PUSH1 0x14 DUP2 MSTORE PUSH1 0x20 ADD SWAP1 DUP2 MSTORE PUSH1 0x20 ADD PUSH0 KECCAK256 SLOAD PUSH1 0x7 PUSH1 0x2 ADD DUP2 SWAP1 SSTORE POP PUSH1 0x7 PUSH1 0x1 ADD PUSH0 DUP2 SLOAD DUP1 SWAP3 SWAP2 SWAP1 PUSH2 0x1470 SWAP1 PUSH2 0x23A8 JUMP JUMPDEST SWAP2 SWAP1 POP SSTORE POP DUP5 SWAP6 POP POP POP POP POP POP SWAP2 SWAP1 POP JUMP JUMPDEST PUSH1 0x1 DUP1 DUP2 SWAP1 SSTORE POP JUMP JUMPDEST PUSH2 0x1493 PUSH2 0x1714 JUMP JUMPDEST PUSH20 0xFFFFFFFFFFFFFFFFFFFFFFFFFFFFFFFFFFFFFFFF AND PUSH2 0x14B1 PUSH2 0xDBE JUMP JUMPDEST PUSH20 0xFFFFFFFFFFFFFFFFFFFFFFFFFFFFFFFFFFFFFFFF AND EQ PUSH2 0x1510 JUMPI PUSH2 0x14D4 PUSH2 0x1714 JUMP JUMPDEST PUSH1 0x40 MLOAD PUSH32 0x118CDAA700000000000000000000000000000000000000000000000000000000 DUP2 MSTORE PUSH1 0x4 ADD PUSH2 0x1507 SWAP2 SWAP1 PUSH2 0x1BFB JUMP JUMPDEST PUSH1 0x40 MLOAD DUP1 SWAP2 SUB SWAP1 REVERT JUMPDEST JUMP JUMPDEST PUSH2 0x151A PUSH2 0x171B JUMP JUMPDEST PUSH0 PUSH1 0x2 PUSH0 PUSH2 0x100 EXP DUP2 SLOAD DUP2 PUSH1 0xFF MUL NOT AND SWAP1 DUP4 ISZERO ISZERO MUL OR SWAP1 SSTORE POP PUSH32 0x5DB9EE0A495BF2E6FF9C91A7834C1BA4FDD244A5E8AA4E537BD38AEAE4B073AA PUSH2 0x155C PUSH2 0x1714 JUMP JUMPDEST PUSH1 0x40 MLOAD PUSH2 0x1569 SWAP2 SWAP1 PUSH2 0x1BFB JUMP JUMPDEST PUSH1 0x40 MLOAD DUP1 SWAP2 SUB SWAP1 LOG1 JUMP JUMPDEST PUSH0 DUP1 PUSH0 SWAP1 SLOAD SWAP1 PUSH2 0x100 EXP SWAP1 DIV PUSH20 0xFFFFFFFFFFFFFFFFFFFFFFFFFFFFFFFFFFFFFFFF AND SWAP1 POP DUP2 PUSH0 DUP1 PUSH2 0x100 EXP DUP2 SLOAD DUP2 PUSH20 0xFFFFFFFFFFFFFFFFFFFFFFFFFFFFFFFFFFFFFFFF MUL NOT AND SWAP1 DUP4 PUSH20 0xFFFFFFFFFFFFFFFFFFFFFFFFFFFFFFFFFFFFFFFF AND MUL OR SWAP1 SSTORE POP DUP2 PUSH20 0xFFFFFFFFFFFFFFFFFFFFFFFFFFFFFFFFFFFFFFFF AND DUP2 PUSH20 0xFFFFFFFFFFFFFFFFFFFFFFFFFFFFFFFFFFFFFFFF AND PUSH32 0x8BE0079C531659141344CD1FD0A4F28419497F9722A3DAAFE3B4186F6B6457E0 PUSH1 0x40 MLOAD PUSH1 0x40 MLOAD DUP1 SWAP2 SUB SWAP1 LOG3 POP POP JUMP JUMPDEST PUSH2 0x163C PUSH2 0x11D6 JUMP JUMPDEST PUSH1 0x1 PUSH1 0x2 PUSH0 PUSH2 0x100 EXP DUP2 SLOAD DUP2 PUSH1 0xFF MUL NOT AND SWAP1 DUP4 ISZERO ISZERO MUL OR SWAP1 SSTORE POP PUSH32 0x62E78CEA01BEE320CD4E420270B5EA74000D11B0C9F74754EBDBFC544B05A258 PUSH2 0x167F PUSH2 0x1714 JUMP JUMPDEST PUSH1 0x40 MLOAD PUSH2 0x168C SWAP2 SWAP1 PUSH2 0x1BFB JUMP JUMPDEST PUSH1 0x40 MLOAD DUP1 SWAP2 SUB SWAP1 LOG1 JUMP JUMPDEST PUSH0 DUP1 DUP3 SUB PUSH2 0x16A8 JUMPI PUSH0 DUP1 SHL SWAP1 POP PUSH2 0x16DD JUMP JUMPDEST PUSH2 0x16DA PUSH2 0x16C0 PUSH1 0x1 DUP5 PUSH2 0x16BB SWAP2 SWAP1 PUSH2 0x27EA JUMP JUMPDEST PUSH2 0x1696 JUMP JUMPDEST PUSH2 0x16D5 PUSH1 0x1 DUP6 PUSH2 0x16D0 SWAP2 SWAP1 PUSH2 0x27EA JUMP JUMPDEST PUSH2 0x1696 JUMP JUMPDEST PUSH2 0x16E2 JUMP JUMPDEST SWAP1 POP JUMPDEST SWAP2 SWAP1 POP JUMP JUMPDEST PUSH0 DUP3 DUP3 PUSH1 0x40 MLOAD PUSH1 0x20 ADD PUSH2 0x16F6 SWAP3 SWAP2 SWAP1 PUSH2 0x29CC JUMP JUMPDEST PUSH1 0x40 MLOAD PUSH1 0x20 DUP2 DUP4 SUB SUB DUP2 MSTORE SWAP1 PUSH1 0x40 MSTORE DUP1 MLOAD SWAP1 PUSH1 0x20 ADD KECCAK256 SWAP1 POP SWAP3 SWAP2 POP POP JUMP JUMPDEST PUSH0 CALLER SWAP1 POP SWAP1 JUMP JUMPDEST PUSH2 0x1723 PUSH2 0x6E9 JUMP JUMPDEST PUSH2 0x1759 JUMPI PUSH1 0x40 MLOAD PUSH32 0x8DFC202B00000000000000000000000000000000000000000000000000000000 DUP2 MSTORE PUSH1 0x4 ADD PUSH1 0x40 MLOAD DUP1 SWAP2 SUB SWAP1 REVERT JUMPDEST JUMP JUMPDEST PUSH1 0x40 MLOAD DUP1 PUSH1 0x20 ADD PUSH1 0x40 MSTORE DUP1 PUSH1 0x1 SWAP1 PUSH1 0x20 DUP3 MUL DUP1 CALLDATASIZE DUP4 CALLDATACOPY DUP1 DUP3 ADD SWAP2 POP POP SWAP1 POP POP SWAP1 JUMP JUMPDEST PUSH0 DUP1 REVERT JUMPDEST PUSH0 DUP1 REVERT JUMPDEST PUSH0 DUP2 SWAP1 POP SWAP2 SWAP1 POP JUMP JUMPDEST PUSH2 0x1797 DUP2 PUSH2 0x1785 JUMP JUMPDEST DUP2 EQ PUSH2 0x17A1 JUMPI PUSH0 DUP1 REVERT JUMPDEST POP JUMP JUMPDEST PUSH0 DUP2 CALLDATALOAD SWAP1 POP PUSH2 0x17B2 DUP2 PUSH2 0x178E JUMP JUMPDEST SWAP3 SWAP2 POP POP JUMP JUMPDEST PUSH0 PUSH1 0x20 DUP3 DUP5 SUB SLT ISZERO PUSH2 0x17CD JUMPI PUSH2 0x17CC PUSH2 0x177D JUMP JUMPDEST JUMPDEST PUSH0 PUSH2 0x17DA DUP5 DUP3 DUP6 ADD PUSH2 0x17A4 JUMP JUMPDEST SWAP2 POP POP SWAP3 SWAP2 POP POP JUMP JUMPDEST PUSH0 DUP2 ISZERO ISZERO SWAP1 POP SWAP2 SWAP1 POP JUMP JUMPDEST PUSH2 0x17F7 DUP2 PUSH2 0x17E3 JUMP JUMPDEST DUP3 MSTORE POP POP JUMP JUMPDEST PUSH0 PUSH1 0x20 DUP3 ADD SWAP1 POP PUSH2 0x1810 PUSH0 DUP4 ADD DUP5 PUSH2 0x17EE JUMP JUMPDEST SWAP3 SWAP2 POP POP JUMP JUMPDEST PUSH0 DUP2 SWAP1 POP SWAP2 SWAP1 POP JUMP JUMPDEST PUSH2 0x1828 DUP2 PUSH2 0x1816 JUMP JUMPDEST DUP2 EQ PUSH2 0x1832 JUMPI PUSH0 DUP1 REVERT JUMPDEST POP JUMP JUMPDEST PUSH0 DUP2 CALLDATALOAD SWAP1 POP PUSH2 0x1843 DUP2 PUSH2 0x181F JUMP JUMPDEST SWAP3 SWAP2 POP POP JUMP JUMPDEST PUSH0 DUP1 REVERT JUMPDEST PUSH0 DUP1 REVERT JUMPDEST PUSH0 DUP1 REVERT JUMPDEST PUSH0 DUP1 DUP4 PUSH1 0x1F DUP5 ADD SLT PUSH2 0x186A JUMPI PUSH2 0x1869 PUSH2 0x1849 JUMP JUMPDEST JUMPDEST DUP3 CALLDATALOAD SWAP1 POP PUSH8 0xFFFFFFFFFFFFFFFF DUP2 GT ISZERO PUSH2 0x1887 JUMPI PUSH2 0x1886 PUSH2 0x184D JUMP JUMPDEST JUMPDEST PUSH1 0x20 DUP4 ADD SWAP2 POP DUP4 PUSH1 0x1 DUP3 MUL DUP4 ADD GT ISZERO PUSH2 0x18A3 JUMPI PUSH2 0x18A2 PUSH2 0x1851 JUMP JUMPDEST JUMPDEST SWAP3 POP SWAP3 SWAP1 POP JUMP JUMPDEST PUSH0 DUP1 PUSH0 DUP1 PUSH1 0x60 DUP6 DUP8 SUB SLT ISZERO PUSH2 0x18C2 JUMPI PUSH2 0x18C1 PUSH2 0x177D JUMP JUMPDEST JUMPDEST PUSH0 PUSH2 0x18CF DUP8 DUP3 DUP9 ADD PUSH2 0x17A4 JUMP JUMPDEST SWAP5 POP POP PUSH1 0x20 PUSH2 0x18E0 DUP8 DUP3 DUP9 ADD PUSH2 0x1835 JUMP JUMPDEST SWAP4 POP POP PUSH1 0x40 DUP6 ADD CALLDATALOAD PUSH8 0xFFFFFFFFFFFFFFFF DUP2 GT ISZERO PUSH2 0x1901 JUMPI PUSH2 0x1900 PUSH2 0x1781 JUMP JUMPDEST JUMPDEST PUSH2 0x190D DUP8 DUP3 DUP9 ADD PUSH2 0x1855 JUMP JUMPDEST SWAP3 POP SWAP3 POP POP SWAP3 SWAP6 SWAP2 SWAP5 POP SWAP3 POP JUMP JUMPDEST PUSH0 PUSH20 0xFFFFFFFFFFFFFFFFFFFFFFFFFFFFFFFFFFFFFFFF DUP3 AND SWAP1 POP SWAP2 SWAP1 POP JUMP JUMPDEST PUSH0 DUP2 SWAP1 POP SWAP2 SWAP1 POP JUMP JUMPDEST PUSH0 PUSH2 0x195D PUSH2 0x1958 PUSH2 0x1953 DUP5 PUSH2 0x191B JUMP JUMPDEST PUSH2 0x193A JUMP JUMPDEST PUSH2 0x191B JUMP JUMPDEST SWAP1 POP SWAP2 SWAP1 POP JUMP JUMPDEST PUSH0 PUSH2 0x196E DUP3 PUSH2 0x1943 JUMP JUMPDEST SWAP1 POP SWAP2 SWAP1 POP JUMP JUMPDEST PUSH0 PUSH2 0x197F DUP3 PUSH2 0x1964 JUMP JUMPDEST SWAP1 POP SWAP2 SWAP1 POP JUMP JUMPDEST PUSH2 0x198F DUP2 PUSH2 0x1975 JUMP JUMPDEST DUP3 MSTORE POP POP JUMP JUMPDEST PUSH0 PUSH1 0x20 DUP3 ADD SWAP1 POP PUSH2 0x19A8 PUSH0 DUP4 ADD DUP5 PUSH2 0x1986 JUMP JUMPDEST SWAP3 SWAP2 POP POP JUMP JUMPDEST PUSH2 0x19B7 DUP2 PUSH2 0x1816 JUMP JUMPDEST DUP3 MSTORE POP POP JUMP JUMPDEST PUSH0 PUSH1 0x20 DUP3 ADD SWAP1 POP PUSH2 0x19D0 PUSH0 DUP4 ADD DUP5 PUSH2 0x19AE JUMP JUMPDEST SWAP3 SWAP2 POP POP JUMP JUMPDEST PUSH2 0x19DF DUP2 PUSH2 0x1785 JUMP JUMPDEST DUP3 MSTORE POP POP JUMP JUMPDEST PUSH0 PUSH1 0x20 DUP3 ADD SWAP1 POP PUSH2 0x19F8 PUSH0 DUP4 ADD DUP5 PUSH2 0x19D6 JUMP JUMPDEST SWAP3 SWAP2 POP POP JUMP JUMPDEST PUSH0 PUSH1 0x20 DUP3 DUP5 SUB SLT ISZERO PUSH2 0x1A13 JUMPI PUSH2 0x1A12 PUSH2 0x177D JUMP JUMPDEST JUMPDEST PUSH0 PUSH2 0x1A20 DUP5 DUP3 DUP6 ADD PUSH2 0x1835 JUMP JUMPDEST SWAP2 POP POP SWAP3 SWAP2 POP POP JUMP JUMPDEST PUSH0 PUSH4 0xFFFFFFFF DUP3 AND SWAP1 POP SWAP2 SWAP1 POP JUMP JUMPDEST PUSH2 0x1A41 DUP2 PUSH2 0x1A29 JUMP JUMPDEST DUP3 MSTORE POP POP JUMP JUMPDEST PUSH0 DUP2 MLOAD SWAP1 POP SWAP2 SWAP1 POP JUMP JUMPDEST PUSH0 DUP3 DUP3 MSTORE PUSH1 0x20 DUP3 ADD SWAP1 POP SWAP3 SWAP2 POP POP JUMP JUMPDEST DUP3 DUP2 DUP4 MCOPY PUSH0 DUP4 DUP4 ADD MSTORE POP POP POP JUMP JUMPDEST PUSH0 PUSH1 0x1F NOT PUSH1 0x1F DUP4 ADD AND SWAP1 POP SWAP2 SWAP1 POP JUMP JUMPDEST PUSH0 PUSH2 0x1A89 DUP3 PUSH2 0x1A47 JUMP JUMPDEST PUSH2 0x1A93 DUP2 DUP6 PUSH2 0x1A51 JUMP JUMPDEST SWAP4 POP PUSH2 0x1AA3 DUP2 DUP6 PUSH1 0x20 DUP7 ADD PUSH2 0x1A61 JUMP JUMPDEST PUSH2 0x1AAC DUP2 PUSH2 0x1A6F JUMP JUMPDEST DUP5 ADD SWAP2 POP POP SWAP3 SWAP2 POP POP JUMP JUMPDEST PUSH0 PUSH1 0x80 DUP3 ADD SWAP1 POP PUSH2 0x1ACA PUSH0 DUP4 ADD DUP8 PUSH2 0x19D6 JUMP JUMPDEST PUSH2 0x1AD7 PUSH1 0x20 DUP4 ADD DUP7 PUSH2 0x1A38 JUMP JUMPDEST PUSH2 0x1AE4 PUSH1 0x40 DUP4 ADD DUP6 PUSH2 0x19AE JUMP JUMPDEST DUP2 DUP2 SUB PUSH1 0x60 DUP4 ADD MSTORE PUSH2 0x1AF6 DUP2 DUP5 PUSH2 0x1A7F JUMP JUMPDEST SWAP1 POP SWAP6 SWAP5 POP POP POP POP POP JUMP JUMPDEST PUSH0 DUP2 SWAP1 POP DUP3 PUSH1 0x20 PUSH1 0x8 MUL DUP3 ADD GT ISZERO PUSH2 0x1B1C JUMPI PUSH2 0x1B1B PUSH2 0x1851 JUMP JUMPDEST JUMPDEST SWAP3 SWAP2 POP POP JUMP JUMPDEST PUSH0 PUSH2 0x1B2C DUP3 PUSH2 0x191B JUMP JUMPDEST SWAP1 POP SWAP2 SWAP1 POP JUMP JUMPDEST PUSH2 0x1B3C DUP2 PUSH2 0x1B22 JUMP JUMPDEST DUP2 EQ PUSH2 0x1B46 JUMPI PUSH0 DUP1 REVERT JUMPDEST POP JUMP JUMPDEST PUSH0 DUP2 CALLDATALOAD SWAP1 POP PUSH2 0x1B57 DUP2 PUSH2 0x1B33 JUMP JUMPDEST SWAP3 SWAP2 POP POP JUMP JUMPDEST PUSH0 DUP1 PUSH0 DUP1 PUSH0 DUP1 PUSH2 0x1A0 DUP8 DUP10 SUB SLT ISZERO PUSH2 0x1B78 JUMPI PUSH2 0x1B77 PUSH2 0x177D JUMP JUMPDEST JUMPDEST PUSH0 PUSH2 0x1B85 DUP10 DUP3 DUP11 ADD PUSH2 0x1B01 JUMP JUMPDEST SWAP7 POP POP PUSH2 0x100 PUSH2 0x1B97 DUP10 DUP3 DUP11 ADD PUSH2 0x17A4 JUMP JUMPDEST SWAP6 POP POP PUSH2 0x120 PUSH2 0x1BA9 DUP10 DUP3 DUP11 ADD PUSH2 0x1B49 JUMP JUMPDEST SWAP5 POP POP PUSH2 0x140 PUSH2 0x1BBB DUP10 DUP3 DUP11 ADD PUSH2 0x1B49 JUMP JUMPDEST SWAP4 POP POP PUSH2 0x160 PUSH2 0x1BCD DUP10 DUP3 DUP11 ADD PUSH2 0x1835 JUMP JUMPDEST SWAP3 POP POP PUSH2 0x180 PUSH2 0x1BDF DUP10 DUP3 DUP11 ADD PUSH2 0x1835 JUMP JUMPDEST SWAP2 POP POP SWAP3 SWAP6 POP SWAP3 SWAP6 POP SWAP3 SWAP6 JUMP JUMPDEST PUSH2 0x1BF5 DUP2 PUSH2 0x1B22 JUMP JUMPDEST DUP3 MSTORE POP POP JUMP JUMPDEST PUSH0 PUSH1 0x20 DUP3 ADD SWAP1 POP PUSH2 0x1C0E PUSH0 DUP4 ADD DUP5 PUSH2 0x1BEC JUMP JUMPDEST SWAP3 SWAP2 POP POP JUMP JUMPDEST PUSH0 PUSH1 0x40 DUP3 ADD SWAP1 POP PUSH2 0x1C27 PUSH0 DUP4 ADD DUP6 PUSH2 0x19AE JUMP JUMPDEST PUSH2 0x1C34 PUSH1 0x20 DUP4 ADD DUP5 PUSH2 0x19D6 JUMP JUMPDEST SWAP4 SWAP3 POP POP POP JUMP JUMPDEST PUSH0 DUP2 MLOAD SWAP1 POP SWAP2 SWAP1 POP JUMP JUMPDEST PUSH0 DUP3 DUP3 MSTORE PUSH1 0x20 DUP3 ADD SWAP1 POP SWAP3 SWAP2 POP POP JUMP JUMPDEST PUSH0 DUP2 SWAP1 POP PUSH1 0x20 DUP3 ADD SWAP1 POP SWAP2 SWAP1 POP JUMP JUMPDEST PUSH2 0x1C6D DUP2 PUSH2 0x1785 JUMP JUMPDEST DUP3 MSTORE POP POP JUMP JUMPDEST PUSH0 PUSH2 0x1C7E DUP4 DUP4 PUSH2 0x1C64 JUMP JUMPDEST PUSH1 0x20 DUP4 ADD SWAP1 POP SWAP3 SWAP2 POP POP JUMP JUMPDEST PUSH0 PUSH1 0x20 DUP3 ADD SWAP1 POP SWAP2 SWAP1 POP JUMP JUMPDEST PUSH0 PUSH2 0x1CA0 DUP3 PUSH2 0x1C3B JUMP JUMPDEST PUSH2 0x1CAA DUP2 DUP6 PUSH2 0x1C45 JUMP JUMPDEST SWAP4 POP PUSH2 0x1CB5 DUP4 PUSH2 0x1C55 JUMP JUMPDEST DUP1 PUSH0 JUMPDEST DUP4 DUP2 LT ISZERO PUSH2 0x1CE5 JUMPI DUP2 MLOAD PUSH2 0x1CCC DUP9 DUP3 PUSH2 0x1C73 JUMP JUMPDEST SWAP8 POP PUSH2 0x1CD7 DUP4 PUSH2 0x1C8A JUMP JUMPDEST SWAP3 POP POP PUSH1 0x1 DUP2 ADD SWAP1 POP PUSH2 0x1CB8 JUMP JUMPDEST POP DUP6 SWAP4 POP POP POP POP SWAP3 SWAP2 POP POP JUMP JUMPDEST PUSH0 PUSH1 0x20 DUP3 ADD SWAP1 POP DUP2 DUP2 SUB PUSH0 DUP4 ADD MSTORE PUSH2 0x1D0A DUP2 DUP5 PUSH2 0x1C96 JUMP JUMPDEST SWAP1 POP SWAP3 SWAP2 POP POP JUMP JUMPDEST PUSH0 PUSH1 0x20 DUP3 DUP5 SUB SLT ISZERO PUSH2 0x1D27 JUMPI PUSH2 0x1D26 PUSH2 0x177D JUMP JUMPDEST JUMPDEST PUSH0 PUSH2 0x1D34 DUP5 DUP3 DUP6 ADD PUSH2 0x1B49 JUMP JUMPDEST SWAP2 POP POP SWAP3 SWAP2 POP POP JUMP JUMPDEST PUSH0 PUSH1 0x60 DUP3 ADD SWAP1 POP PUSH2 0x1D50 PUSH0 DUP4 ADD DUP7 PUSH2 0x19AE JUMP JUMPDEST PUSH2 0x1D5D PUSH1 0x20 DUP4 ADD DUP6 PUSH2 0x19AE JUMP JUMPDEST PUSH2 0x1D6A PUSH1 0x40 DUP4 ADD DUP5 PUSH2 0x17EE JUMP JUMPDEST SWAP5 SWAP4 POP POP POP POP JUMP JUMPDEST PUSH0 PUSH2 0x1D7C DUP3 PUSH2 0x1964 JUMP JUMPDEST SWAP1 POP SWAP2 SWAP1 POP JUMP JUMPDEST PUSH2 0x1D8C DUP2 PUSH2 0x1D72 JUMP JUMPDEST DUP3 MSTORE POP POP JUMP JUMPDEST PUSH0 PUSH1 0x20 DUP3 ADD SWAP1 POP PUSH2 0x1DA5 PUSH0 DUP4 ADD DUP5 PUSH2 0x1D83 JUMP JUMPDEST SWAP3 SWAP2 POP POP JUMP JUMPDEST PUSH0 DUP3 DUP3 MSTORE PUSH1 0x20 DUP3 ADD SWAP1 POP SWAP3 SWAP2 POP POP JUMP JUMPDEST PUSH32 0x496E76616C69642064656E6F6D696E6174696F6E000000000000000000000000 PUSH0 DUP3 ADD MSTORE POP JUMP JUMPDEST PUSH0 PUSH2 0x1DEF PUSH1 0x14 DUP4 PUSH2 0x1DAB JUMP JUMPDEST SWAP2 POP PUSH2 0x1DFA DUP3 PUSH2 0x1DBB JUMP JUMPDEST PUSH1 0x20 DUP3 ADD SWAP1 POP SWAP2 SWAP1 POP JUMP JUMPDEST PUSH0 PUSH1 0x20 DUP3 ADD SWAP1 POP DUP2 DUP2 SUB PUSH0 DUP4 ADD MSTORE PUSH2 0x1E1C DUP2 PUSH2 0x1DE3 JUMP JUMPDEST SWAP1 POP SWAP2 SWAP1 POP JUMP JUMPDEST PUSH32 0x4E487B7100000000000000000000000000000000000000000000000000000000 PUSH0 MSTORE PUSH1 0x11 PUSH1 0x4 MSTORE PUSH1 0x24 PUSH0 REVERT JUMPDEST PUSH0 DUP2 PUSH1 0x1 SHR SWAP1 POP SWAP2 SWAP1 POP JUMP JUMPDEST PUSH0 DUP1 DUP3 SWAP2 POP DUP4 SWAP1 POP JUMPDEST PUSH1 0x1 DUP6 GT ISZERO PUSH2 0x1EA5 JUMPI DUP1 DUP7 DIV DUP2 GT ISZERO PUSH2 0x1E81 JUMPI PUSH2 0x1E80 PUSH2 0x1E23 JUMP JUMPDEST JUMPDEST PUSH1 0x1 DUP6 AND ISZERO PUSH2 0x1E90 JUMPI DUP1 DUP3 MUL SWAP2 POP JUMPDEST DUP1 DUP2 MUL SWAP1 POP PUSH2 0x1E9E DUP6 PUSH2 0x1E50 JUMP JUMPDEST SWAP5 POP PUSH2 0x1E65 JUMP JUMPDEST SWAP5 POP SWAP5 SWAP3 POP POP POP JUMP JUMPDEST PUSH0 DUP3 PUSH2 0x1EBD JUMPI PUSH1 0x1 SWAP1 POP PUSH2 0x1F78 JUMP JUMPDEST DUP2 PUSH2 0x1ECA JUMPI PUSH0 SWAP1 POP PUSH2 0x1F78 JUMP JUMPDEST DUP2 PUSH1 0x1 DUP2 EQ PUSH2 0x1EE0 JUMPI PUSH1 0x2 DUP2 EQ PUSH2 0x1EEA JUMPI PUSH2 0x1F19 JUMP JUMPDEST PUSH1 0x1 SWAP2 POP POP PUSH2 0x1F78 JUMP JUMPDEST PUSH1 0xFF DUP5 GT ISZERO PUSH2 0x1EFC JUMPI PUSH2 0x1EFB PUSH2 0x1E23 JUMP JUMPDEST JUMPDEST DUP4 PUSH1 0x2 EXP SWAP2 POP DUP5 DUP3 GT ISZERO PUSH2 0x1F13 JUMPI PUSH2 0x1F12 PUSH2 0x1E23 JUMP JUMPDEST JUMPDEST POP PUSH2 0x1F78 JUMP JUMPDEST POP PUSH1 0x20 DUP4 LT PUSH2 0x133 DUP4 LT AND PUSH1 0x4E DUP5 LT PUSH1 0xB DUP5 LT AND OR ISZERO PUSH2 0x1F4E JUMPI DUP3 DUP3 EXP SWAP1 POP DUP4 DUP2 GT ISZERO PUSH2 0x1F49 JUMPI PUSH2 0x1F48 PUSH2 0x1E23 JUMP JUMPDEST JUMPDEST PUSH2 0x1F78 JUMP JUMPDEST PUSH2 0x1F5B DUP5 DUP5 DUP5 PUSH1 0x1 PUSH2 0x1E5C JUMP JUMPDEST SWAP3 POP SWAP1 POP DUP2 DUP5 DIV DUP2 GT ISZERO PUSH2 0x1F72 JUMPI PUSH2 0x1F71 PUSH2 0x1E23 JUMP JUMPDEST JUMPDEST DUP2 DUP2 MUL SWAP1 POP JUMPDEST SWAP4 SWAP3 POP POP POP JUMP JUMPDEST PUSH0 PUSH2 0x1F89 DUP3 PUSH2 0x1816 JUMP JUMPDEST SWAP2 POP PUSH2 0x1F94 DUP4 PUSH2 0x1816 JUMP JUMPDEST SWAP3 POP PUSH2 0x1FC1 PUSH32 0xFFFFFFFFFFFFFFFFFFFFFFFFFFFFFFFFFFFFFFFFFFFFFFFFFFFFFFFFFFFFFFFF DUP5 DUP5 PUSH2 0x1EAE JUMP JUMPDEST SWAP1 POP SWAP3 SWAP2 POP POP JUMP JUMPDEST PUSH32 0x547265652066756C6C0000000000000000000000000000000000000000000000 PUSH0 DUP3 ADD MSTORE POP JUMP JUMPDEST PUSH0 PUSH2 0x1FFD PUSH1 0x9 DUP4 PUSH2 0x1DAB JUMP JUMPDEST SWAP2 POP PUSH2 0x2008 DUP3 PUSH2 0x1FC9 JUMP JUMPDEST PUSH1 0x20 DUP3 ADD SWAP1 POP SWAP2 SWAP1 POP JUMP JUMPDEST PUSH0 PUSH1 0x20 DUP3 ADD SWAP1 POP DUP2 DUP2 SUB PUSH0 DUP4 ADD MSTORE PUSH2 0x202A DUP2 PUSH2 0x1FF1 JUMP JUMPDEST SWAP1 POP SWAP2 SWAP1 POP JUMP JUMPDEST PUSH0 PUSH1 0x60 DUP3 ADD SWAP1 POP PUSH2 0x2044 PUSH0 DUP4 ADD DUP7 PUSH2 0x1BEC JUMP JUMPDEST PUSH2 0x2051 PUSH1 0x20 DUP4 ADD DUP6 PUSH2 0x1BEC JUMP JUMPDEST PUSH2 0x205E PUSH1 0x40 DUP4 ADD DUP5 PUSH2 0x19AE JUMP JUMPDEST SWAP5 SWAP4 POP POP POP POP JUMP JUMPDEST PUSH2 0x206F DUP2 PUSH2 0x17E3 JUMP JUMPDEST DUP2 EQ PUSH2 0x2079 JUMPI PUSH0 DUP1 REVERT JUMPDEST POP JUMP JUMPDEST PUSH0 DUP2 MLOAD SWAP1 POP PUSH2 0x208A DUP2 PUSH2 0x2066 JUMP JUMPDEST SWAP3 SWAP2 POP POP JUMP JUMPDEST PUSH0 PUSH1 0x20 DUP3 DUP5 SUB SLT ISZERO PUSH2 0x20A5 JUMPI PUSH2 0x20A4 PUSH2 0x177D JUMP JUMPDEST JUMPDEST PUSH0 PUSH2 0x20B2 DUP5 DUP3 DUP6 ADD PUSH2 0x207C JUMP JUMPDEST SWAP2 POP POP SWAP3 SWAP2 POP POP JUMP JUMPDEST PUSH32 0x4E487B7100000000000000000000000000000000000000000000000000000000 PUSH0 MSTORE PUSH1 0x41 PUSH1 0x4 MSTORE PUSH1 0x24 PUSH0 REVERT JUMPDEST PUSH32 0x4E487B7100000000000000000000000000000000000000000000000000000000 PUSH0 MSTORE PUSH1 0x22 PUSH1 0x4 MSTORE PUSH1 0x24 PUSH0 REVERT JUMPDEST PUSH0 PUSH1 0x2 DUP3 DIV SWAP1 POP PUSH1 0x1 DUP3 AND DUP1 PUSH2 0x212C JUMPI PUSH1 0x7F DUP3 AND SWAP2 POP JUMPDEST PUSH1 0x20 DUP3 LT DUP2 SUB PUSH2 0x213F JUMPI PUSH2 0x213E PUSH2 0x20E8 JUMP JUMPDEST JUMPDEST POP SWAP2 SWAP1 POP JUMP JUMPDEST PUSH0 DUP2 SWAP1 POP DUP2 PUSH0 MSTORE PUSH1 0x20 PUSH0 KECCAK256 SWAP1 POP SWAP2 SWAP1 POP JUMP JUMPDEST PUSH0 PUSH1 0x20 PUSH1 0x1F DUP4 ADD DIV SWAP1 POP SWAP2 SWAP1 POP JUMP JUMPDEST PUSH0 DUP3 DUP3 SHL SWAP1 POP SWAP3 SWAP2 POP POP JUMP JUMPDEST PUSH0 PUSH1 0x8 DUP4 MUL PUSH2 0x21A1 PUSH32 0xFFFFFFFFFFFFFFFFFFFFFFFFFFFFFFFFFFFFFFFFFFFFFFFFFFFFFFFFFFFFFFFF DUP3 PUSH2 0x2166 JUMP JUMPDEST PUSH2 0x21AB DUP7 DUP4 PUSH2 0x2166 JUMP JUMPDEST SWAP6 POP DUP1 NOT DUP5 AND SWAP4 POP DUP1 DUP7 AND DUP5 OR SWAP3 POP POP POP SWAP4 SWAP3 POP POP POP JUMP JUMPDEST PUSH0 PUSH2 0x21DD PUSH2 0x21D8 PUSH2 0x21D3 DUP5 PUSH2 0x1816 JUMP JUMPDEST PUSH2 0x193A JUMP JUMPDEST PUSH2 0x1816 JUMP JUMPDEST SWAP1 POP SWAP2 SWAP1 POP JUMP JUMPDEST PUSH0 DUP2 SWAP1 POP SWAP2 SWAP1 POP JUMP JUMPDEST PUSH2 0x21F6 DUP4 PUSH2 0x21C3 JUMP JUMPDEST PUSH2 0x220A PUSH2 0x2202 DUP3 PUSH2 0x21E4 JUMP JUMPDEST DUP5 DUP5 SLOAD PUSH2 0x2172 JUMP JUMPDEST DUP3 SSTORE POP POP POP POP JUMP JUMPDEST PUSH0 SWAP1 JUMP JUMPDEST PUSH2 0x221E PUSH2 0x2212 JUMP JUMPDEST PUSH2 0x2229 DUP2 DUP5 DUP5 PUSH2 0x21ED JUMP JUMPDEST POP POP POP JUMP JUMPDEST JUMPDEST DUP2 DUP2 LT ISZERO PUSH2 0x224C JUMPI PUSH2 0x2241 PUSH0 DUP3 PUSH2 0x2216 JUMP JUMPDEST PUSH1 0x1 DUP2 ADD SWAP1 POP PUSH2 0x222F JUMP JUMPDEST POP POP JUMP JUMPDEST PUSH1 0x1F DUP3 GT ISZERO PUSH2 0x2291 JUMPI PUSH2 0x2262 DUP2 PUSH2 0x2145 JUMP JUMPDEST PUSH2 0x226B DUP5 PUSH2 0x2157 JUMP JUMPDEST DUP2 ADD PUSH1 0x20 DUP6 LT ISZERO PUSH2 0x227A JUMPI DUP2 SWAP1 POP JUMPDEST PUSH2 0x228E PUSH2 0x2286 DUP6 PUSH2 0x2157 JUMP JUMPDEST DUP4 ADD DUP3 PUSH2 0x222E JUMP JUMPDEST POP POP JUMPDEST POP POP POP JUMP JUMPDEST PUSH0 DUP3 DUP3 SHR SWAP1 POP SWAP3 SWAP2 POP POP JUMP JUMPDEST PUSH0 PUSH2 0x22B1 PUSH0 NOT DUP5 PUSH1 0x8 MUL PUSH2 0x2296 JUMP JUMPDEST NOT DUP1 DUP4 AND SWAP2 POP POP SWAP3 SWAP2 POP POP JUMP JUMPDEST PUSH0 PUSH2 0x22C9 DUP4 DUP4 PUSH2 0x22A2 JUMP JUMPDEST SWAP2 POP DUP3 PUSH1 0x2 MUL DUP3 OR SWAP1 POP SWAP3 SWAP2 POP POP JUMP JUMPDEST PUSH2 0x22E2 DUP3 PUSH2 0x1A47 JUMP JUMPDEST PUSH8 0xFFFFFFFFFFFFFFFF DUP2 GT ISZERO PUSH2 0x22FB JUMPI PUSH2 0x22FA PUSH2 0x20BB JUMP JUMPDEST JUMPDEST PUSH2 0x2305 DUP3 SLOAD PUSH2 0x2115 JUMP JUMPDEST PUSH2 0x2310 DUP3 DUP3 DUP6 PUSH2 0x2250 JUMP JUMPDEST PUSH0 PUSH1 0x20 SWAP1 POP PUSH1 0x1F DUP4 GT PUSH1 0x1 DUP2 EQ PUSH2 0x2341 JUMPI PUSH0 DUP5 ISZERO PUSH2 0x232F JUMPI DUP3 DUP8 ADD MLOAD SWAP1 POP JUMPDEST PUSH2 0x2339 DUP6 DUP3 PUSH2 0x22BE JUMP JUMPDEST DUP7 SSTORE POP PUSH2 0x23A0 JUMP JUMPDEST PUSH1 0x1F NOT DUP5 AND PUSH2 0x234F DUP7 PUSH2 0x2145 JUMP JUMPDEST PUSH0 JUMPDEST DUP3 DUP2 LT ISZERO PUSH2 0x2376 JUMPI DUP5 DUP10 ADD MLOAD DUP3 SSTORE PUSH1 0x1 DUP3 ADD SWAP2 POP PUSH1 0x20 DUP6 ADD SWAP5 POP PUSH1 0x20 DUP2 ADD SWAP1 POP PUSH2 0x2351 JUMP JUMPDEST DUP7 DUP4 LT ISZERO PUSH2 0x2393 JUMPI DUP5 DUP10 ADD MLOAD PUSH2 0x238F PUSH1 0x1F DUP10 AND DUP3 PUSH2 0x22A2 JUMP JUMPDEST DUP4 SSTORE POP JUMPDEST PUSH1 0x1 PUSH1 0x2 DUP9 MUL ADD DUP9 SSTORE POP POP POP JUMPDEST POP POP POP POP POP POP JUMP JUMPDEST PUSH0 PUSH2 0x23B2 DUP3 PUSH2 0x1816 JUMP JUMPDEST SWAP2 POP PUSH32 0xFFFFFFFFFFFFFFFFFFFFFFFFFFFFFFFFFFFFFFFFFFFFFFFFFFFFFFFFFFFFFFFF DUP3 SUB PUSH2 0x23E4 JUMPI PUSH2 0x23E3 PUSH2 0x1E23 JUMP JUMPDEST JUMPDEST PUSH1 0x1 DUP3 ADD SWAP1 POP SWAP2 SWAP1 POP JUMP JUMPDEST PUSH0 PUSH1 0x40 DUP3 ADD SWAP1 POP PUSH2 0x2402 PUSH0 DUP4 ADD DUP6 PUSH2 0x1A38 JUMP JUMPDEST PUSH2 0x240F PUSH1 0x20 DUP4 ADD DUP5 PUSH2 0x19AE JUMP JUMPDEST SWAP4 SWAP3 POP POP POP JUMP JUMPDEST PUSH32 0x44656E6F6D696E6174696F6E206E6F7420656E61626C65640000000000000000 PUSH0 DUP3 ADD MSTORE POP JUMP JUMPDEST PUSH0 PUSH2 0x244A PUSH1 0x18 DUP4 PUSH2 0x1DAB JUMP JUMPDEST SWAP2 POP PUSH2 0x2455 DUP3 PUSH2 0x2416 JUMP JUMPDEST PUSH1 0x20 DUP3 ADD SWAP1 POP SWAP2 SWAP1 POP JUMP JUMPDEST PUSH0 PUSH1 0x20 DUP3 ADD SWAP1 POP DUP2 DUP2 SUB PUSH0 DUP4 ADD MSTORE PUSH2 0x2477 DUP2 PUSH2 0x243E JUMP JUMPDEST SWAP1 POP SWAP2 SWAP1 POP JUMP JUMPDEST PUSH0 PUSH2 0x2488 DUP3 PUSH2 0x1816 JUMP JUMPDEST SWAP2 POP PUSH0 DUP3 SUB PUSH2 0x249A JUMPI PUSH2 0x2499 PUSH2 0x1E23 JUMP JUMPDEST JUMPDEST PUSH1 0x1 DUP3 SUB SWAP1 POP SWAP2 SWAP1 POP JUMP JUMPDEST PUSH0 PUSH2 0x24AF DUP3 PUSH2 0x1816 JUMP JUMPDEST SWAP2 POP PUSH2 0x24BA DUP4 PUSH2 0x1816 JUMP JUMPDEST SWAP3 POP DUP3 DUP3 MUL PUSH2 0x24C8 DUP2 PUSH2 0x1816 JUMP JUMPDEST SWAP2 POP DUP3 DUP3 DIV DUP5 EQ DUP4 ISZERO OR PUSH2 0x24DF JUMPI PUSH2 0x24DE PUSH2 0x1E23 JUMP JUMPDEST JUMPDEST POP SWAP3 SWAP2 POP POP JUMP JUMPDEST PUSH32 0x4E487B7100000000000000000000000000000000000000000000000000000000 PUSH0 MSTORE PUSH1 0x12 PUSH1 0x4 MSTORE PUSH1 0x24 PUSH0 REVERT JUMPDEST PUSH0 PUSH2 0x251D DUP3 PUSH2 0x1816 JUMP JUMPDEST SWAP2 POP PUSH2 0x2528 DUP4 PUSH2 0x1816 JUMP JUMPDEST SWAP3 POP DUP3 PUSH2 0x2538 JUMPI PUSH2 0x2537 PUSH2 0x24E6 JUMP JUMPDEST JUMPDEST DUP3 DUP3 DIV SWAP1 POP SWAP3 SWAP2 POP POP JUMP JUMPDEST PUSH32 0x46656520746F6F20686967680000000000000000000000000000000000000000 PUSH0 DUP3 ADD MSTORE POP JUMP JUMPDEST PUSH0 PUSH2 0x2577 PUSH1 0xC DUP4 PUSH2 0x1DAB JUMP JUMPDEST SWAP2 POP PUSH2 0x2582 DUP3 PUSH2 0x2543 JUMP JUMPDEST PUSH1 0x20 DUP3 ADD SWAP1 POP SWAP2 SWAP1 POP JUMP JUMPDEST PUSH0 PUSH1 0x20 DUP3 ADD SWAP1 POP DUP2 DUP2 SUB PUSH0 DUP4 ADD MSTORE PUSH2 0x25A4 DUP2 PUSH2 0x256B JUMP JUMPDEST SWAP1 POP SWAP2 SWAP1 POP JUMP JUMPDEST PUSH32 0x4E6F746520616C7265616479207370656E740000000000000000000000000000 PUSH0 DUP3 ADD MSTORE POP JUMP JUMPDEST PUSH0 PUSH2 0x25DF PUSH1 0x12 DUP4 PUSH2 0x1DAB JUMP JUMPDEST SWAP2 POP PUSH2 0x25EA DUP3 PUSH2 0x25AB JUMP JUMPDEST PUSH1 0x20 DUP3 ADD SWAP1 POP SWAP2 SWAP1 POP JUMP JUMPDEST PUSH0 PUSH1 0x20 DUP3 ADD SWAP1 POP DUP2 DUP2 SUB PUSH0 DUP4 ADD MSTORE PUSH2 0x260C DUP2 PUSH2 0x25D3 JUMP JUMPDEST SWAP1 POP SWAP2 SWAP1 POP JUMP JUMPDEST PUSH0 PUSH2 0x261D DUP3 PUSH2 0x1816 JUMP JUMPDEST SWAP2 POP PUSH2 0x2628 DUP4 PUSH2 0x1816 JUMP JUMPDEST SWAP3 POP DUP3 DUP3 ADD SWAP1 POP DUP1 DUP3 GT ISZERO PUSH2 0x2640 JUMPI PUSH2 0x263F PUSH2 0x1E23 JUMP JUMPDEST JUMPDEST SWAP3 SWAP2 POP POP JUMP JUMPDEST PUSH32 0x4E487B7100000000000000000000000000000000000000000000000000000000 PUSH0 MSTORE PUSH1 0x32 PUSH1 0x4 MSTORE PUSH1 0x24 PUSH0 REVERT JUMPDEST DUP3 DUP2 DUP4 CALLDATACOPY POP POP POP JUMP JUMPDEST PUSH2 0x2689 PUSH2 0x100 DUP4 DUP4 PUSH2 0x2673 JUMP JUMPDEST POP POP JUMP JUMPDEST PUSH0 PUSH1 0x1 SWAP1 POP SWAP2 SWAP1 POP JUMP JUMPDEST PUSH0 DUP2 SWAP1 POP SWAP3 SWAP2 POP POP JUMP JUMPDEST PUSH0 DUP2 SWAP1 POP SWAP2 SWAP1 POP JUMP JUMPDEST PUSH2 0x26B3 DUP2 PUSH2 0x1816 JUMP JUMPDEST DUP3 MSTORE POP POP JUMP JUMPDEST PUSH0 PUSH2 0x26C4 DUP4 DUP4 PUSH2 0x26AA JUMP JUMPDEST PUSH1 0x20 DUP4 ADD SWAP1 POP SWAP3 SWAP2 POP POP JUMP JUMPDEST PUSH0 PUSH1 0x20 DUP3 ADD SWAP1 POP SWAP2 SWAP1 POP JUMP JUMPDEST PUSH2 0x26E5 DUP2 PUSH2 0x268D JUMP JUMPDEST PUSH2 0x26EF DUP2 DUP5 PUSH2 0x2697 JUMP JUMPDEST SWAP3 POP PUSH2 0x26FA DUP3 PUSH2 0x26A1 JUMP JUMPDEST DUP1 PUSH0 JUMPDEST DUP4 DUP2 LT ISZERO PUSH2 0x272A JUMPI DUP2 MLOAD PUSH2 0x2711 DUP8 DUP3 PUSH2 0x26B9 JUMP JUMPDEST SWAP7 POP PUSH2 0x271C DUP4 PUSH2 0x26D0 JUMP JUMPDEST SWAP3 POP POP PUSH1 0x1 DUP2 ADD SWAP1 POP PUSH2 0x26FD JUMP JUMPDEST POP POP POP POP POP POP JUMP JUMPDEST PUSH0 PUSH2 0x120 DUP3 ADD SWAP1 POP PUSH2 0x2746 PUSH0 DUP4 ADD DUP6 PUSH2 0x267C JUMP JUMPDEST PUSH2 0x2754 PUSH2 0x100 DUP4 ADD DUP5 PUSH2 0x26DC JUMP JUMPDEST SWAP4 SWAP3 POP POP POP JUMP JUMPDEST PUSH32 0x496E76616C69642070726F6F6600000000000000000000000000000000000000 PUSH0 DUP3 ADD MSTORE POP JUMP JUMPDEST PUSH0 PUSH2 0x278F PUSH1 0xD DUP4 PUSH2 0x1DAB JUMP JUMPDEST SWAP2 POP PUSH2 0x279A DUP3 PUSH2 0x275B JUMP JUMPDEST PUSH1 0x20 DUP3 ADD SWAP1 POP SWAP2 SWAP1 POP JUMP JUMPDEST PUSH0 PUSH1 0x20 DUP3 ADD SWAP1 POP DUP2 DUP2 SUB PUSH0 DUP4 ADD MSTORE PUSH2 0x27BC DUP2 PUSH2 0x2783 JUMP JUMPDEST SWAP1 POP SWAP2 SWAP1 POP JUMP JUMPDEST PUSH0 PUSH1 0x40 DUP3 ADD SWAP1 POP PUSH2 0x27D6 PUSH0 DUP4 ADD DUP6 PUSH2 0x1BEC JUMP JUMPDEST PUSH2 0x27E3 PUSH1 0x20 DUP4 ADD DUP5 PUSH2 0x19AE JUMP JUMPDEST SWAP4 SWAP3 POP POP POP JUMP JUMPDEST PUSH0 PUSH2 0x27F4 DUP3 PUSH2 0x1816 JUMP JUMPDEST SWAP2 POP PUSH2 0x27FF DUP4 PUSH2 0x1816 JUMP JUMPDEST SWAP3 POP DUP3 DUP3 SUB SWAP1 POP DUP2 DUP2 GT ISZERO PUSH2 0x2817 JUMPI PUSH2 0x2816 PUSH2 0x1E23 JUMP JUMPDEST JUMPDEST SWAP3 SWAP2 POP POP JUMP JUMPDEST PUSH0 PUSH1 0x40 DUP3 ADD SWAP1 POP PUSH2 0x2830 PUSH0 DUP4 ADD DUP6 PUSH2 0x19AE JUMP JUMPDEST PUSH2 0x283D PUSH1 0x20 DUP4 ADD DUP5 PUSH2 0x19AE JUMP JUMPDEST SWAP4 SWAP3 POP POP POP JUMP JUMPDEST PUSH32 0x496E76616C696420616D6F756E74000000000000000000000000000000000000 PUSH0 DUP3 ADD MSTORE POP JUMP JUMPDEST PUSH0 PUSH2 0x2878 PUSH1 0xE DUP4 PUSH2 0x1DAB JUMP JUMPDEST SWAP2 POP PUSH2 0x2883 DUP3 PUSH2 0x2844 JUMP JUMPDEST PUSH1 0x20 DUP3 ADD SWAP1 POP SWAP2 SWAP1 POP JUMP JUMPDEST PUSH0 PUSH1 0x20 DUP3 ADD SWAP1 POP DUP2 DUP2 SUB PUSH0 DUP4 ADD MSTORE PUSH2 0x28A5 DUP2 PUSH2 0x286C JUMP JUMPDEST SWAP1 POP SWAP2 SWAP1 POP JUMP JUMPDEST PUSH32 0x44656E6F6D696E6174696F6E2065786973747300000000000000000000000000 PUSH0 DUP3 ADD MSTORE POP JUMP JUMPDEST PUSH0 PUSH2 0x28E0 PUSH1 0x13 DUP4 PUSH2 0x1DAB JUMP JUMPDEST SWAP2 POP PUSH2 0x28EB DUP3 PUSH2 0x28AC JUMP JUMPDEST PUSH1 0x20 DUP3 ADD SWAP1 POP SWAP2 SWAP1 POP JUMP JUMPDEST PUSH0 PUSH1 0x20 DUP3 ADD SWAP1 POP DUP2 DUP2 SUB PUSH0 DUP4 ADD MSTORE PUSH2 0x290D DUP2 PUSH2 0x28D4 JUMP JUMPDEST SWAP1 POP SWAP2 SWAP1 POP JUMP JUMPDEST PUSH32 0x496E646578206F7574206F6620626F756E647300000000000000000000000000 PUSH0 DUP3 ADD MSTORE POP JUMP JUMPDEST PUSH0 PUSH2 0x2948 PUSH1 0x13 DUP4 PUSH2 0x1DAB JUMP JUMPDEST SWAP2 POP PUSH2 0x2953 DUP3 PUSH2 0x2914 JUMP JUMPDEST PUSH1 0x20 DUP3 ADD SWAP1 POP SWAP2 SWAP1 POP JUMP JUMPDEST PUSH0 PUSH1 0x20 DUP3 ADD SWAP1 POP DUP2 DUP2 SUB PUSH0 DUP4 ADD MSTORE PUSH2 0x2975 DUP2 PUSH2 0x293C JUMP JUMPDEST SWAP1 POP SWAP2 SWAP1 POP JUMP JUMPDEST PUSH0 PUSH2 0x2986 DUP3 PUSH2 0x1816 JUMP JUMPDEST SWAP2 POP PUSH2 0x2991 DUP4 PUSH2 0x1816 JUMP JUMPDEST SWAP3 POP DUP3 PUSH2 0x29A1 JUMPI PUSH2 0x29A0 PUSH2 0x24E6 JUMP JUMPDEST JUMPDEST DUP3 DUP3 MOD SWAP1 POP SWAP3 SWAP2 POP POP JUMP JUMPDEST PUSH0 DUP2 SWAP1 POP SWAP2 SWAP1 POP JUMP JUMPDEST PUSH2 0x29C6 PUSH2 0x29C1 DUP3 PUSH2 0x1785 JUMP JUMPDEST PUSH2 0x29AC JUMP JUMPDEST DUP3 MSTORE POP POP JUMP JUMPDEST PUSH0 PUSH2 0x29D7 DUP3 DUP6 PUSH2 0x29B5 JUMP JUMPDEST PUSH1 0x20 DUP3 ADD SWAP2 POP PUSH2 0x29E7 DUP3 DUP5 PUSH2 0x29B5 JUMP JUMPDEST PUSH1 0x20 DUP3 ADD SWAP2 POP DUP2 SWAP1 POP SWAP4 SWAP3 POP POP POP JUMP INVALID LOG2 PUSH5 0x6970667358 0x22 SLT KECCAK256 PUSH10 0xE24E512F184A8541E999 MUL EXTCODESIZE PUSH25 0x9F7BCED51E13D9B44C508AD3F8AAFAFC7DE964736F6C634300 ADDMOD BYTE STOP CALLER "
				},
				"gasEstimates": {
					"creation": {
						"codeDepositCost": "2159400",
						"executionCost": "infinite",
						"totalCost": "infinite"
					},
					"external": {
						"MAX_DEPOSIT_COUNT()": "infinite",
						"MAX_FEE_PERCENT()": "414",
						"MERKLE_TREE_HEIGHT()": "457",
						"addDenomination(uint256)": "infinite",
						"denominationCount()": "2537",
						"denominations(uint256)": "infinite",
						"deposit(bytes32,uint256,bytes)": "infinite",
						"disableDenomination(uint256)": "infinite",
						"getPath(uint256)": "infinite",
						"getRoot()": "2483",
						"merkleTree()": "4739",
						"notes(bytes32)": "infinite",
						"nullifierHashes(bytes32)": "2809",
						"owner()": "2582",
						"pause()": "infinite",
						"paused()": "2496",
						"renounceOwnership()": "infinite",
						"token()": "infinite",
						"transferOwnership(address)": "infinite",
						"unpause()": "infinite",
						"verifier()": "infinite",
						"withdraw(uint256[8],bytes32,address,address,uint256,uint256)": "infinite"
					},
					"internal": {
						"_insert(bytes32)": "infinite",
						"hashLeftRight(bytes32,bytes32)": "infinite",
						"zeros(uint256)": "infinite"
					}
				},
				"methodIdentifiers": {
					"MAX_DEPOSIT_COUNT()": "e754b9c6",
					"MAX_FEE_PERCENT()": "67d81740",
					"MERKLE_TREE_HEIGHT()": "fcc0be6b",
					"addDenomination(uint256)": "cc2ed697",
					"denominationCount()": "595ba3ed",
					"denominations(uint256)": "f3ce61ad",
					"deposit(bytes32,uint256,bytes)": "1acc8486",
					"disableDenomination(uint256)": "666ee854",
					"getPath(uint256)": "e1765073",
					"getRoot()": "5ca1e165",
					"merkleTree()": "bb7df052",
					"notes(bytes32)": "85de26b7",
					"nullifierHashes(bytes32)": "17cc915c",
					"owner()": "8da5cb5b",
					"pause()": "8456cb59",
					"paused()": "5c975abb",
					"renounceOwnership()": "715018a6",
					"token()": "fc0c546a",
					"transferOwnership(address)": "f2fde38b",
					"unpause()": "3f4ba83a",
					"verifier()": "2b7ac3f3",
					"withdraw(uint256[8],bytes32,address,address,uint256,uint256)": "86cf6de4"
				}
			},
			"storageLayout": {
				"storage": [
					{
						"astId": 8,
						"contract": "privacy/mixer/TornadoPool.sol:TornadoPool",
						"label": "_owner",
						"offset": 0,
						"slot": "0",
						"type": "t_address"
					},
					{
						"astId": 383,
						"contract": "privacy/mixer/TornadoPool.sol:TornadoPool",
						"label": "_status",
						"offset": 0,
						"slot": "1",
						"type": "t_uint256"
					},
					{
						"astId": 264,
						"contract": "privacy/mixer/TornadoPool.sol:TornadoPool",
						"label": "_paused",
						"offset": 0,
						"slot": "2",
						"type": "t_bool"
					},
					{
						"astId": 799,
						"contract": "privacy/mixer/TornadoPool.sol:TornadoPool",
						"label": "token",
						"offset": 1,
						"slot": "2",
						"type": "t_contract(IERC20)225"
					},
					{
						"astId": 802,
						"contract": "privacy/mixer/TornadoPool.sol:TornadoPool",
						"label": "verifier",
						"offset": 0,
						"slot": "3",
						"type": "t_contract(IMixerVerifier)464"
					},
					{
						"astId": 806,
						"contract": "privacy/mixer/TornadoPool.sol:TornadoPool",
						"label": "nullifierHashes",
						"offset": 0,
						"slot": "4",
						"type": "t_mapping(t_bytes32,t_bool)"
					},
					{
						"astId": 811,
						"contract": "privacy/mixer/TornadoPool.sol:TornadoPool",
						"label": "denominations",
						"offset": 0,
						"slot": "5",
						"type": "t_mapping(t_uint256,t_struct(Denomination)732_storage)"
					},
					{
						"astId": 816,
						"contract": "privacy/mixer/TornadoPool.sol:TornadoPool",
						"label": "notes",
						"offset": 0,
						"slot": "6",
						"type": "t_mapping(t_bytes32,t_struct(Note)741_storage)"
					},
					{
						"astId": 819,
						"contract": "privacy/mixer/TornadoPool.sol:TornadoPool",
						"label": "merkleTree",
						"offset": 0,
						"slot": "7",
						"type": "t_struct(MerkleTree)755_storage"
					},
					{
						"astId": 821,
						"contract": "privacy/mixer/TornadoPool.sol:TornadoPool",
						"label": "denominationCount",
						"offset": 0,
						"slot": "11",
						"type": "t_uint256"
					}
				],
				"types": {
					"t_address": {
						"encoding": "inplace",
						"label": "address",
						"numberOfBytes": "20"
					},
					"t_array(t_bytes32)dyn_storage": {
						"base": "t_bytes32",
						"encoding": "dynamic_array",
						"label": "bytes32[]",
						"numberOfBytes": "32"
					},
					"t_bool": {
						"encoding": "inplace",
						"label": "bool",
						"numberOfBytes": "1"
					},
					"t_bytes32": {
						"encoding": "inplace",
						"label": "bytes32",
						"numberOfBytes": "32"
					},
					"t_bytes_storage": {
						"encoding": "bytes",
						"label": "bytes",
						"numberOfBytes": "32"
					},
					"t_contract(IERC20)225": {
						"encoding": "inplace",
						"label": "contract IERC20",
						"numberOfBytes": "20"
					},
					"t_contract(IMixerVerifier)464": {
						"encoding": "inplace",
						"label": "contract IMixerVerifier",
						"numberOfBytes": "20"
					},
					"t_mapping(t_bytes32,t_bool)": {
						"encoding": "mapping",
						"key": "t_bytes32",
						"label": "mapping(bytes32 => bool)",
						"numberOfBytes": "32",
						"value": "t_bool"
					},
					"t_mapping(t_bytes32,t_struct(Note)741_storage)": {
						"encoding": "mapping",
						"key": "t_bytes32",
						"label": "mapping(bytes32 => struct TornadoPool.Note)",
						"numberOfBytes": "32",
						"value": "t_struct(Note)741_storage"
					},
					"t_mapping(t_uint256,t_bytes32)": {
						"encoding": "mapping",
						"key": "t_uint256",
						"label": "mapping(uint256 => bytes32)",
						"numberOfBytes": "32",
						"value": "t_bytes32"
					},
					"t_mapping(t_uint256,t_mapping(t_uint256,t_bytes32))": {
						"encoding": "mapping",
						"key": "t_uint256",
						"label": "mapping(uint256 => mapping(uint256 => bytes32))",
						"numberOfBytes": "32",
						"value": "t_mapping(t_uint256,t_bytes32)"
					},
					"t_mapping(t_uint256,t_struct(Denomination)732_storage)": {
						"encoding": "mapping",
						"key": "t_uint256",
						"label": "mapping(uint256 => struct TornadoPool.Denomination)",
						"numberOfBytes": "32",
						"value": "t_struct(Denomination)732_storage"
					},
					"t_struct(Denomination)732_storage": {
						"encoding": "inplace",
						"label": "struct TornadoPool.Denomination",
						"members": [
							{
								"astId": 727,
								"contract": "privacy/mixer/TornadoPool.sol:TornadoPool",
								"label": "amount",
								"offset": 0,
								"slot": "0",
								"type": "t_uint256"
							},
							{
								"astId": 729,
								"contract": "privacy/mixer/TornadoPool.sol:TornadoPool",
								"label": "depositsCount",
								"offset": 0,
								"slot": "1",
								"type": "t_uint256"
							},
							{
								"astId": 731,
								"contract": "privacy/mixer/TornadoPool.sol:TornadoPool",
								"label": "enabled",
								"offset": 0,
								"slot": "2",
								"type": "t_bool"
							}
						],
						"numberOfBytes": "96"
					},
					"t_struct(MerkleTree)755_storage": {
						"encoding": "inplace",
						"label": "struct TornadoPool.MerkleTree",
						"members": [
							{
								"astId": 744,
								"contract": "privacy/mixer/TornadoPool.sol:TornadoPool",
								"label": "leaves",
								"offset": 0,
								"slot": "0",
								"type": "t_array(t_bytes32)dyn_storage"
							},
							{
								"astId": 746,
								"contract": "privacy/mixer/TornadoPool.sol:TornadoPool",
								"label": "nextIndex",
								"offset": 0,
								"slot": "1",
								"type": "t_uint256"
							},
							{
								"astId": 748,
								"contract": "privacy/mixer/TornadoPool.sol:TornadoPool",
								"label": "root",
								"offset": 0,
								"slot": "2",
								"type": "t_bytes32"
							},
							{
								"astId": 754,
								"contract": "privacy/mixer/TornadoPool.sol:TornadoPool",
								"label": "branches",
								"offset": 0,
								"slot": "3",
								"type": "t_mapping(t_uint256,t_mapping(t_uint256,t_bytes32))"
							}
						],
						"numberOfBytes": "128"
					},
					"t_struct(Note)741_storage": {
						"encoding": "inplace",
						"label": "struct TornadoPool.Note",
						"members": [
							{
								"astId": 734,
								"contract": "privacy/mixer/TornadoPool.sol:TornadoPool",
								"label": "commitment",
								"offset": 0,
								"slot": "0",
								"type": "t_bytes32"
							},
							{
								"astId": 736,
								"contract": "privacy/mixer/TornadoPool.sol:TornadoPool",
								"label": "timestamp",
								"offset": 0,
								"slot": "1",
								"type": "t_uint32"
							},
							{
								"astId": 738,
								"contract": "privacy/mixer/TornadoPool.sol:TornadoPool",
								"label": "denomination",
								"offset": 0,
								"slot": "2",
								"type": "t_uint256"
							},
							{
								"astId": 740,
								"contract": "privacy/mixer/TornadoPool.sol:TornadoPool",
								"label": "encryptedNote",
								"offset": 0,
								"slot": "3",
								"type": "t_bytes_storage"
							}
						],
						"numberOfBytes": "128"
					},
					"t_uint256": {
						"encoding": "inplace",
						"label": "uint256",
						"numberOfBytes": "32"
					},
					"t_uint32": {
						"encoding": "inplace",
						"label": "uint32",
						"numberOfBytes": "4"
					}
				}
			},
			"userdoc": {
				"kind": "user",
				"methods": {
					"addDenomination(uint256)": {
						"notice": "Add new denomination"
					},
					"constructor": {
						"notice": "Constructor"
					},
					"deposit(bytes32,uint256,bytes)": {
						"notice": "Deposit tokens into mixing pool"
					},
					"disableDenomination(uint256)": {
						"notice": "Disable denomination"
					},
					"getPath(uint256)": {
						"notice": "Get merkle tree path"
					},
					"getRoot()": {
						"notice": "Get merkle tree root"
					},
					"withdraw(uint256[8],bytes32,address,address,uint256,uint256)": {
						"notice": "Withdraw mixed tokens"
					}
				},
				"notice": "Privacy pool for token mixing in Cipher Zero Protocol",
				"version": 1
			}
		}
	}
}