{
	"privacy/mixer/MixerVerifier.sol": {
		"MixerVerifier": {
			"abi": [
				{
					"inputs": [
						{
							"internalType": "address",
							"name": "initialOwner",
							"type": "address"
						},
						{
							"internalType": "uint256[]",
							"name": "_denominations",
							"type": "uint256[]"
						},
						{
							"internalType": "uint256[2]",
							"name": "_alpha1",
							"type": "uint256[2]"
						},
						{
							"internalType": "uint256[2][2]",
							"name": "_beta2",
							"type": "uint256[2][2]"
						},
						{
							"internalType": "uint256[2]",
							"name": "_gamma2",
							"type": "uint256[2]"
						},
						{
							"internalType": "uint256[2]",
							"name": "_delta2",
							"type": "uint256[2]"
						},
						{
							"internalType": "uint256[2][][]",
							"name": "_ic",
							"type": "uint256[2][][]"
						},
						{
							"internalType": "bytes32",
							"name": "_identifier",
							"type": "bytes32"
						}
					],
					"stateMutability": "nonpayable",
					"type": "constructor"
				},
				{
					"inputs": [],
					"name": "EnforcedPause",
					"type": "error"
				},
				{
					"inputs": [],
					"name": "ExpectedPause",
					"type": "error"
				},
				{
					"inputs": [
						{
							"internalType": "address",
							"name": "owner",
							"type": "address"
						}
					],
					"name": "OwnableInvalidOwner",
					"type": "error"
				},
				{
					"inputs": [
						{
							"internalType": "address",
							"name": "account",
							"type": "address"
						}
					],
					"name": "OwnableUnauthorizedAccount",
					"type": "error"
				},
				{
					"inputs": [],
					"name": "ReentrancyGuardReentrantCall",
					"type": "error"
				},
				{
					"anonymous": false,
					"inputs": [
						{
							"indexed": true,
							"internalType": "uint256",
							"name": "denomination",
							"type": "uint256"
						},
						{
							"indexed": false,
							"internalType": "uint256",
							"name": "timestamp",
							"type": "uint256"
						}
					],
					"name": "DenominationAdded",
					"type": "event"
				},
				{
					"anonymous": false,
					"inputs": [
						{
							"indexed": true,
							"internalType": "uint256",
							"name": "denomination",
							"type": "uint256"
						},
						{
							"indexed": false,
							"internalType": "uint256",
							"name": "timestamp",
							"type": "uint256"
						}
					],
					"name": "DenominationRemoved",
					"type": "event"
				},
				{
					"anonymous": false,
					"inputs": [
						{
							"indexed": true,
							"internalType": "address",
							"name": "previousOwner",
							"type": "address"
						},
						{
							"indexed": true,
							"internalType": "address",
							"name": "newOwner",
							"type": "address"
						}
					],
					"name": "OwnershipTransferred",
					"type": "event"
				},
				{
					"anonymous": false,
					"inputs": [
						{
							"indexed": false,
							"internalType": "address",
							"name": "account",
							"type": "address"
						}
					],
					"name": "Paused",
					"type": "event"
				},
				{
					"anonymous": false,
					"inputs": [
						{
							"indexed": true,
							"internalType": "bytes32",
							"name": "nullifierHash",
							"type": "bytes32"
						},
						{
							"indexed": true,
							"internalType": "bytes32",
							"name": "commitment",
							"type": "bytes32"
						},
						{
							"indexed": true,
							"internalType": "uint256",
							"name": "denomination",
							"type": "uint256"
						}
					],
					"name": "ProofVerified",
					"type": "event"
				},
				{
					"anonymous": false,
					"inputs": [
						{
							"indexed": false,
							"internalType": "address",
							"name": "account",
							"type": "address"
						}
					],
					"name": "Unpaused",
					"type": "event"
				},
				{
					"inputs": [],
					"name": "FIELD_SIZE",
					"outputs": [
						{
							"internalType": "uint256",
							"name": "",
							"type": "uint256"
						}
					],
					"stateMutability": "view",
					"type": "function"
				},
				{
					"inputs": [],
					"name": "MAX_INPUTS",
					"outputs": [
						{
							"internalType": "uint256",
							"name": "",
							"type": "uint256"
						}
					],
					"stateMutability": "view",
					"type": "function"
				},
				{
					"inputs": [
						{
							"internalType": "uint256",
							"name": "denomination",
							"type": "uint256"
						},
						{
							"internalType": "uint256[2][]",
							"name": "ic",
							"type": "uint256[2][]"
						}
					],
					"name": "addDenomination",
					"outputs": [],
					"stateMutability": "nonpayable",
					"type": "function"
				},
				{
					"inputs": [
						{
							"internalType": "uint256",
							"name": "",
							"type": "uint256"
						}
					],
					"name": "alpha1",
					"outputs": [
						{
							"internalType": "uint256",
							"name": "",
							"type": "uint256"
						}
					],
					"stateMutability": "view",
					"type": "function"
				},
				{
					"inputs": [
						{
							"internalType": "uint256",
							"name": "",
							"type": "uint256"
						},
						{
							"internalType": "uint256",
							"name": "",
							"type": "uint256"
						}
					],
					"name": "beta2",
					"outputs": [
						{
							"internalType": "uint256",
							"name": "",
							"type": "uint256"
						}
					],
					"stateMutability": "view",
					"type": "function"
				},
				{
					"inputs": [
						{
							"internalType": "uint256",
							"name": "",
							"type": "uint256"
						}
					],
					"name": "delta2",
					"outputs": [
						{
							"internalType": "uint256",
							"name": "",
							"type": "uint256"
						}
					],
					"stateMutability": "view",
					"type": "function"
				},
				{
					"inputs": [
						{
							"internalType": "uint256",
							"name": "",
							"type": "uint256"
						}
					],
					"name": "denominations",
					"outputs": [
						{
							"internalType": "uint256",
							"name": "",
							"type": "uint256"
						}
					],
					"stateMutability": "view",
					"type": "function"
				},
				{
					"inputs": [
						{
							"internalType": "uint256",
							"name": "",
							"type": "uint256"
						}
					],
					"name": "gamma2",
					"outputs": [
						{
							"internalType": "uint256",
							"name": "",
							"type": "uint256"
						}
					],
					"stateMutability": "view",
					"type": "function"
				},
				{
					"inputs": [],
					"name": "getVerifierID",
					"outputs": [
						{
							"internalType": "bytes32",
							"name": "",
							"type": "bytes32"
						}
					],
					"stateMutability": "view",
					"type": "function"
				},
				{
					"inputs": [
						{
							"internalType": "uint256",
							"name": "",
							"type": "uint256"
						},
						{
							"internalType": "uint256",
							"name": "",
							"type": "uint256"
						},
						{
							"internalType": "uint256",
							"name": "",
							"type": "uint256"
						}
					],
					"name": "inputCoefficients",
					"outputs": [
						{
							"internalType": "uint256",
							"name": "",
							"type": "uint256"
						}
					],
					"stateMutability": "view",
					"type": "function"
				},
				{
					"inputs": [],
					"name": "owner",
					"outputs": [
						{
							"internalType": "address",
							"name": "",
							"type": "address"
						}
					],
					"stateMutability": "view",
					"type": "function"
				},
				{
					"inputs": [],
					"name": "paused",
					"outputs": [
						{
							"internalType": "bool",
							"name": "",
							"type": "bool"
						}
					],
					"stateMutability": "view",
					"type": "function"
				},
				{
					"inputs": [
						{
							"internalType": "uint256",
							"name": "denomination",
							"type": "uint256"
						}
					],
					"name": "removeDenomination",
					"outputs": [],
					"stateMutability": "nonpayable",
					"type": "function"
				},
				{
					"inputs": [],
					"name": "renounceOwnership",
					"outputs": [],
					"stateMutability": "nonpayable",
					"type": "function"
				},
				{
					"inputs": [
						{
							"internalType": "uint256",
							"name": "",
							"type": "uint256"
						}
					],
					"name": "supportedDenominations",
					"outputs": [
						{
							"internalType": "bool",
							"name": "",
							"type": "bool"
						}
					],
					"stateMutability": "view",
					"type": "function"
				},
				{
					"inputs": [
						{
							"internalType": "address",
							"name": "newOwner",
							"type": "address"
						}
					],
					"name": "transferOwnership",
					"outputs": [],
					"stateMutability": "nonpayable",
					"type": "function"
				},
				{
					"inputs": [
						{
							"internalType": "bytes32",
							"name": "",
							"type": "bytes32"
						}
					],
					"name": "verifiedProofs",
					"outputs": [
						{
							"internalType": "bool",
							"name": "",
							"type": "bool"
						}
					],
					"stateMutability": "view",
					"type": "function"
				},
				{
					"inputs": [],
					"name": "verifierIdentifier",
					"outputs": [
						{
							"internalType": "bytes32",
							"name": "",
							"type": "bytes32"
						}
					],
					"stateMutability": "view",
					"type": "function"
				},
				{
					"inputs": [
						{
							"internalType": "bytes",
							"name": "proof",
							"type": "bytes"
						},
						{
							"internalType": "uint256[]",
							"name": "inputs",
							"type": "uint256[]"
						},
						{
							"internalType": "uint256",
							"name": "denomination",
							"type": "uint256"
						}
					],
					"name": "verifyDepositProof",
					"outputs": [
						{
							"internalType": "bool",
							"name": "",
							"type": "bool"
						}
					],
					"stateMutability": "view",
					"type": "function"
				},
				{
					"inputs": [
						{
							"internalType": "uint256[8]",
							"name": "proof",
							"type": "uint256[8]"
						},
						{
							"internalType": "uint256[1]",
							"name": "inputs",
							"type": "uint256[1]"
						}
					],
					"name": "verifyProof",
					"outputs": [
						{
							"internalType": "bool",
							"name": "",
							"type": "bool"
						}
					],
					"stateMutability": "view",
					"type": "function"
				},
				{
					"inputs": [
						{
							"internalType": "bytes",
							"name": "proof",
							"type": "bytes"
						},
						{
							"internalType": "uint256[]",
							"name": "inputs",
							"type": "uint256[]"
						},
						{
							"internalType": "uint256",
							"name": "denomination",
							"type": "uint256"
						}
					],
					"name": "verifyWithdrawalProof",
					"outputs": [
						{
							"internalType": "bool",
							"name": "",
							"type": "bool"
						}
					],
					"stateMutability": "view",
					"type": "function"
				}
			],
			"devdoc": {
				"errors": {
					"EnforcedPause()": [
						{
							"details": "The operation failed because the contract is paused."
						}
					],
					"ExpectedPause()": [
						{
							"details": "The operation failed because the contract is not paused."
						}
					],
					"OwnableInvalidOwner(address)": [
						{
							"details": "The owner is not a valid owner account. (eg. `address(0)`)"
						}
					],
					"OwnableUnauthorizedAccount(address)": [
						{
							"details": "The caller account is not authorized to perform an operation."
						}
					],
					"ReentrancyGuardReentrantCall()": [
						{
							"details": "Unauthorized reentrant call."
						}
					]
				},
				"events": {
					"Paused(address)": {
						"details": "Emitted when the pause is triggered by `account`."
					},
					"Unpaused(address)": {
						"details": "Emitted when the pause is lifted by `account`."
					}
				},
				"kind": "dev",
				"methods": {
					"owner()": {
						"details": "Returns the address of the current owner."
					},
					"paused()": {
						"details": "Returns true if the contract is paused, and false otherwise."
					},
					"renounceOwnership()": {
						"details": "Leaves the contract without owner. It will not be possible to call `onlyOwner` functions. Can only be called by the current owner. NOTE: Renouncing ownership will leave the contract without an owner, thereby disabling any functionality that is only available to the owner."
					},
					"transferOwnership(address)": {
						"details": "Transfers ownership of the contract to a new account (`newOwner`). Can only be called by the current owner."
					}
				},
				"version": 1
			},
			"evm": {
				"assembly": "    /* \"privacy/mixer/MixerVerifier.sol\":271:8631  contract MixerVerifier is IMixerVerifier, Ownable, ReentrancyGuard, Pausable {... */\n  mstore(0x40, 0xa0)\n    /* \"privacy/mixer/MixerVerifier.sol\":1313:1999  constructor(... */\n  callvalue\n  dup1\n  iszero\n  tag_1\n  jumpi\n  0x00\n  dup1\n  revert\ntag_1:\n  pop\n  mload(0x40)\n  sub(codesize, bytecodeSize)\n  dup1\n  bytecodeSize\n  dup4\n  codecopy\n  dup2\n  dup2\n  add\n  0x40\n  mstore\n  dup2\n  add\n  swap1\n  tag_2\n  swap2\n  swap1\n  tag_3\n  jump\t// in\ntag_2:\n    /* \"privacy/mixer/MixerVerifier.sol\":1616:1628  initialOwner */\n  dup8\n    /* \"@openzeppelin/contracts/access/Ownable.sol\":1297:1298  0 */\n  0x00\n    /* \"@openzeppelin/contracts/access/Ownable.sol\":1273:1299  initialOwner == address(0) */\n  0xffffffffffffffffffffffffffffffffffffffff\n  and\n    /* \"@openzeppelin/contracts/access/Ownable.sol\":1273:1285  initialOwner */\n  dup2\n    /* \"@openzeppelin/contracts/access/Ownable.sol\":1273:1299  initialOwner == address(0) */\n  0xffffffffffffffffffffffffffffffffffffffff\n  and\n  sub\n    /* \"@openzeppelin/contracts/access/Ownable.sol\":1269:1364  if (initialOwner == address(0)) {... */\n  tag_9\n  jumpi\n    /* \"@openzeppelin/contracts/access/Ownable.sol\":1350:1351  0 */\n  0x00\n    /* \"@openzeppelin/contracts/access/Ownable.sol\":1322:1353  OwnableInvalidOwner(address(0)) */\n  mload(0x40)\n  0x1e4fbdf700000000000000000000000000000000000000000000000000000000\n  dup2\n  mstore\n  0x04\n  add\n  tag_10\n  swap2\n  swap1\n  tag_11\n  jump\t// in\ntag_10:\n  mload(0x40)\n  dup1\n  swap2\n  sub\n  swap1\n  revert\n    /* \"@openzeppelin/contracts/access/Ownable.sol\":1269:1364  if (initialOwner == address(0)) {... */\ntag_9:\n    /* \"@openzeppelin/contracts/access/Ownable.sol\":1373:1405  _transferOwnership(initialOwner) */\n  tag_12\n    /* \"@openzeppelin/contracts/access/Ownable.sol\":1392:1404  initialOwner */\n  dup2\n    /* \"@openzeppelin/contracts/access/Ownable.sol\":1373:1391  _transferOwnership */\n  shl(0x20, tag_13)\n    /* \"@openzeppelin/contracts/access/Ownable.sol\":1373:1405  _transferOwnership(initialOwner) */\n  0x20\n  shr\n  jump\t// in\ntag_12:\n    /* \"@openzeppelin/contracts/access/Ownable.sol\":1225:1412  constructor(address initialOwner) {... */\n  pop\n    /* \"@openzeppelin/contracts/utils/ReentrancyGuard.sol\":1857:1858  1 */\n  0x01\n    /* \"@openzeppelin/contracts/utils/ReentrancyGuard.sol\":2061:2068  _status */\n  dup1\n    /* \"@openzeppelin/contracts/utils/ReentrancyGuard.sol\":2061:2082  _status = NOT_ENTERED */\n  dup2\n  swap1\n  sstore\n  pop\n    /* \"@openzeppelin/contracts/utils/Pausable.sol\":1241:1246  false */\n  0x00\n    /* \"@openzeppelin/contracts/utils/Pausable.sol\":1231:1238  _paused */\n  0x02\n  0x00\n    /* \"@openzeppelin/contracts/utils/Pausable.sol\":1231:1246  _paused = false */\n  0x0100\n  exp\n  dup2\n  sload\n  dup2\n  0xff\n  mul\n  not\n  and\n  swap1\n  dup4\n  iszero\n  iszero\n  mul\n  or\n  swap1\n  sstore\n  pop\n    /* \"privacy/mixer/MixerVerifier.sol\":1673:1676  _ic */\n  dup2\n    /* \"privacy/mixer/MixerVerifier.sol\":1673:1683  _ic.length */\n  mload\n    /* \"privacy/mixer/MixerVerifier.sol\":1648:1662  _denominations */\n  dup8\n    /* \"privacy/mixer/MixerVerifier.sol\":1648:1669  _denominations.length */\n  mload\n    /* \"privacy/mixer/MixerVerifier.sol\":1648:1683  _denominations.length == _ic.length */\n  eq\n    /* \"privacy/mixer/MixerVerifier.sol\":1640:1709  require(_denominations.length == _ic.length, \"Invalid input lengths\") */\n  tag_17\n  jumpi\n  mload(0x40)\n  0x08c379a000000000000000000000000000000000000000000000000000000000\n  dup2\n  mstore\n  0x04\n  add\n  tag_18\n  swap1\n  tag_19\n  jump\t// in\ntag_18:\n  mload(0x40)\n  dup1\n  swap2\n  sub\n  swap1\n  revert\ntag_17:\n    /* \"privacy/mixer/MixerVerifier.sol\":1737:1744  _alpha1 */\n  dup6\n    /* \"privacy/mixer/MixerVerifier.sol\":1728:1734  alpha1 */\n  0x03\n    /* \"privacy/mixer/MixerVerifier.sol\":1728:1744  alpha1 = _alpha1 */\n  swap1\n  0x02\n  tag_20\n  swap3\n  swap2\n  swap1\n  tag_21\n  jump\t// in\ntag_20:\n  pop\n    /* \"privacy/mixer/MixerVerifier.sol\":1762:1768  _beta2 */\n  dup5\n    /* \"privacy/mixer/MixerVerifier.sol\":1754:1759  beta2 */\n  0x05\n    /* \"privacy/mixer/MixerVerifier.sol\":1754:1768  beta2 = _beta2 */\n  swap1\n  0x02\n  tag_22\n  swap3\n  swap2\n  swap1\n  tag_23\n  jump\t// in\ntag_22:\n  pop\n    /* \"privacy/mixer/MixerVerifier.sol\":1787:1794  _gamma2 */\n  dup4\n    /* \"privacy/mixer/MixerVerifier.sol\":1778:1784  gamma2 */\n  0x09\n    /* \"privacy/mixer/MixerVerifier.sol\":1778:1794  gamma2 = _gamma2 */\n  swap1\n  0x02\n  tag_24\n  swap3\n  swap2\n  swap1\n  tag_21\n  jump\t// in\ntag_24:\n  pop\n    /* \"privacy/mixer/MixerVerifier.sol\":1813:1820  _delta2 */\n  dup3\n    /* \"privacy/mixer/MixerVerifier.sol\":1804:1810  delta2 */\n  0x0b\n    /* \"privacy/mixer/MixerVerifier.sol\":1804:1820  delta2 = _delta2 */\n  swap1\n  0x02\n  tag_25\n  swap3\n  swap2\n  swap1\n  tag_21\n  jump\t// in\ntag_25:\n  pop\n    /* \"privacy/mixer/MixerVerifier.sol\":1851:1862  _identifier */\n  dup1\n    /* \"privacy/mixer/MixerVerifier.sol\":1830:1862  verifierIdentifier = _identifier */\n  0x80\n  dup2\n  dup2\n  mstore\n  pop\n  pop\n    /* \"privacy/mixer/MixerVerifier.sol\":1878:1887  uint256 i */\n  0x00\n    /* \"privacy/mixer/MixerVerifier.sol\":1873:1993  for (uint256 i = 0; i < _denominations.length; i++) {... */\ntag_26:\n    /* \"privacy/mixer/MixerVerifier.sol\":1897:1911  _denominations */\n  dup8\n    /* \"privacy/mixer/MixerVerifier.sol\":1897:1918  _denominations.length */\n  mload\n    /* \"privacy/mixer/MixerVerifier.sol\":1893:1894  i */\n  dup2\n    /* \"privacy/mixer/MixerVerifier.sol\":1893:1918  i < _denominations.length */\n  lt\n    /* \"privacy/mixer/MixerVerifier.sol\":1873:1993  for (uint256 i = 0; i < _denominations.length; i++) {... */\n  iszero\n  tag_27\n  jumpi\n    /* \"privacy/mixer/MixerVerifier.sol\":1939:1982  _addDenomination(_denominations[i], _ic[i]) */\n  tag_29\n    /* \"privacy/mixer/MixerVerifier.sol\":1956:1970  _denominations */\n  dup9\n    /* \"privacy/mixer/MixerVerifier.sol\":1971:1972  i */\n  dup3\n    /* \"privacy/mixer/MixerVerifier.sol\":1956:1973  _denominations[i] */\n  dup2\n  mload\n  dup2\n  lt\n  tag_30\n  jumpi\n  tag_31\n  tag_32\n  jump\t// in\ntag_31:\ntag_30:\n  0x20\n  mul\n  0x20\n  add\n  add\n  mload\n    /* \"privacy/mixer/MixerVerifier.sol\":1975:1978  _ic */\n  dup5\n    /* \"privacy/mixer/MixerVerifier.sol\":1979:1980  i */\n  dup4\n    /* \"privacy/mixer/MixerVerifier.sol\":1975:1981  _ic[i] */\n  dup2\n  mload\n  dup2\n  lt\n  tag_33\n  jumpi\n  tag_34\n  tag_32\n  jump\t// in\ntag_34:\ntag_33:\n  0x20\n  mul\n  0x20\n  add\n  add\n  mload\n    /* \"privacy/mixer/MixerVerifier.sol\":1939:1955  _addDenomination */\n  shl(0x20, tag_35)\n    /* \"privacy/mixer/MixerVerifier.sol\":1939:1982  _addDenomination(_denominations[i], _ic[i]) */\n  0x20\n  shr\n  jump\t// in\ntag_29:\n    /* \"privacy/mixer/MixerVerifier.sol\":1920:1923  i++ */\n  dup1\n  dup1\n  0x01\n  add\n  swap2\n  pop\n  pop\n    /* \"privacy/mixer/MixerVerifier.sol\":1873:1993  for (uint256 i = 0; i < _denominations.length; i++) {... */\n  jump(tag_26)\ntag_27:\n  pop\n    /* \"privacy/mixer/MixerVerifier.sol\":1313:1999  constructor(... */\n  pop\n  pop\n  pop\n  pop\n  pop\n  pop\n  pop\n  pop\n    /* \"privacy/mixer/MixerVerifier.sol\":271:8631  contract MixerVerifier is IMixerVerifier, Ownable, ReentrancyGuard, Pausable {... */\n  jump(tag_36)\n    /* \"@openzeppelin/contracts/access/Ownable.sol\":2912:3099  function _transferOwnership(address newOwner) internal virtual {... */\ntag_13:\n    /* \"@openzeppelin/contracts/access/Ownable.sol\":2985:3001  address oldOwner */\n  0x00\n    /* \"@openzeppelin/contracts/access/Ownable.sol\":3004:3010  _owner */\n  dup1\n  0x00\n  swap1\n  sload\n  swap1\n  0x0100\n  exp\n  swap1\n  div\n  0xffffffffffffffffffffffffffffffffffffffff\n  and\n    /* \"@openzeppelin/contracts/access/Ownable.sol\":2985:3010  address oldOwner = _owner */\n  swap1\n  pop\n    /* \"@openzeppelin/contracts/access/Ownable.sol\":3029:3037  newOwner */\n  dup2\n    /* \"@openzeppelin/contracts/access/Ownable.sol\":3020:3026  _owner */\n  0x00\n  dup1\n    /* \"@openzeppelin/contracts/access/Ownable.sol\":3020:3037  _owner = newOwner */\n  0x0100\n  exp\n  dup2\n  sload\n  dup2\n  0xffffffffffffffffffffffffffffffffffffffff\n  mul\n  not\n  and\n  swap1\n  dup4\n  0xffffffffffffffffffffffffffffffffffffffff\n  and\n  mul\n  or\n  swap1\n  sstore\n  pop\n    /* \"@openzeppelin/contracts/access/Ownable.sol\":3083:3091  newOwner */\n  dup2\n    /* \"@openzeppelin/contracts/access/Ownable.sol\":3052:3092  OwnershipTransferred(oldOwner, newOwner) */\n  0xffffffffffffffffffffffffffffffffffffffff\n  and\n    /* \"@openzeppelin/contracts/access/Ownable.sol\":3073:3081  oldOwner */\n  dup2\n    /* \"@openzeppelin/contracts/access/Ownable.sol\":3052:3092  OwnershipTransferred(oldOwner, newOwner) */\n  0xffffffffffffffffffffffffffffffffffffffff\n  and\n  0x8be0079c531659141344cd1fd0a4f28419497f9722a3daafe3b4186f6b6457e0\n  mload(0x40)\n  mload(0x40)\n  dup1\n  swap2\n  sub\n  swap1\n  log3\n    /* \"@openzeppelin/contracts/access/Ownable.sol\":2975:3099  {... */\n  pop\n    /* \"@openzeppelin/contracts/access/Ownable.sol\":2912:3099  function _transferOwnership(address newOwner) internal virtual {... */\n  pop\n  jump\t// out\n    /* \"privacy/mixer/MixerVerifier.sol\":6378:6903  function _addDenomination(... */\ntag_35:\n    /* \"privacy/mixer/MixerVerifier.sol\":6500:6522  supportedDenominations */\n  0x0f\n    /* \"privacy/mixer/MixerVerifier.sol\":6500:6536  supportedDenominations[denomination] */\n  0x00\n    /* \"privacy/mixer/MixerVerifier.sol\":6523:6535  denomination */\n  dup4\n    /* \"privacy/mixer/MixerVerifier.sol\":6500:6536  supportedDenominations[denomination] */\n  dup2\n  mstore\n  0x20\n  add\n  swap1\n  dup2\n  mstore\n  0x20\n  add\n  0x00\n  keccak256\n  0x00\n  swap1\n  sload\n  swap1\n  0x0100\n  exp\n  swap1\n  div\n  0xff\n  and\n    /* \"privacy/mixer/MixerVerifier.sol\":6499:6536  !supportedDenominations[denomination] */\n  iszero\n    /* \"privacy/mixer/MixerVerifier.sol\":6491:6560  require(!supportedDenominations[denomination], \"Denomination exists\") */\n  tag_39\n  jumpi\n  mload(0x40)\n  0x08c379a000000000000000000000000000000000000000000000000000000000\n  dup2\n  mstore\n  0x04\n  add\n  tag_40\n  swap1\n  tag_41\n  jump\t// in\ntag_40:\n  mload(0x40)\n  dup1\n  swap2\n  sub\n  swap1\n  revert\ntag_39:\n    /* \"privacy/mixer/MixerVerifier.sol\":6590:6591  0 */\n  0x00\n    /* \"privacy/mixer/MixerVerifier.sol\":6578:6580  ic */\n  dup2\n    /* \"privacy/mixer/MixerVerifier.sol\":6578:6587  ic.length */\n  mload\n    /* \"privacy/mixer/MixerVerifier.sol\":6578:6591  ic.length > 0 */\n  gt\n    /* \"privacy/mixer/MixerVerifier.sol\":6570:6610  require(ic.length > 0, \"Empty IC array\") */\n  tag_42\n  jumpi\n  mload(0x40)\n  0x08c379a000000000000000000000000000000000000000000000000000000000\n  dup2\n  mstore\n  0x04\n  add\n  tag_43\n  swap1\n  tag_44\n  jump\t// in\ntag_43:\n  mload(0x40)\n  dup1\n  swap2\n  sub\n  swap1\n  revert\ntag_42:\n    /* \"privacy/mixer/MixerVerifier.sol\":6660:6664  true */\n  0x01\n    /* \"privacy/mixer/MixerVerifier.sol\":6621:6643  supportedDenominations */\n  0x0f\n    /* \"privacy/mixer/MixerVerifier.sol\":6621:6657  supportedDenominations[denomination] */\n  0x00\n    /* \"privacy/mixer/MixerVerifier.sol\":6644:6656  denomination */\n  dup5\n    /* \"privacy/mixer/MixerVerifier.sol\":6621:6657  supportedDenominations[denomination] */\n  dup2\n  mstore\n  0x20\n  add\n  swap1\n  dup2\n  mstore\n  0x20\n  add\n  0x00\n  keccak256\n  0x00\n    /* \"privacy/mixer/MixerVerifier.sol\":6621:6664  supportedDenominations[denomination] = true */\n  0x0100\n  exp\n  dup2\n  sload\n  dup2\n  0xff\n  mul\n  not\n  and\n  swap1\n  dup4\n  iszero\n  iszero\n  mul\n  or\n  swap1\n  sstore\n  pop\n    /* \"privacy/mixer/MixerVerifier.sol\":6674:6687  denominations */\n  0x10\n    /* \"privacy/mixer/MixerVerifier.sol\":6693:6705  denomination */\n  dup3\n    /* \"privacy/mixer/MixerVerifier.sol\":6674:6706  denominations.push(denomination) */\n  swap1\n  dup1\n  0x01\n  dup2\n  sload\n  add\n  dup1\n  dup3\n  sstore\n  dup1\n  swap2\n  pop\n  pop\n  0x01\n  swap1\n  sub\n  swap1\n  0x00\n  mstore\n  keccak256(0x00, 0x20)\n  add\n  0x00\n  swap1\n  swap2\n  swap1\n  swap2\n  swap1\n  swap2\n  pop\n  sstore\n    /* \"privacy/mixer/MixerVerifier.sol\":6730:6739  uint256 i */\n  0x00\n    /* \"privacy/mixer/MixerVerifier.sol\":6725:6833  for (uint256 i = 0; i < ic.length; i++) {... */\ntag_46:\n    /* \"privacy/mixer/MixerVerifier.sol\":6749:6751  ic */\n  dup2\n    /* \"privacy/mixer/MixerVerifier.sol\":6749:6758  ic.length */\n  mload\n    /* \"privacy/mixer/MixerVerifier.sol\":6745:6746  i */\n  dup2\n    /* \"privacy/mixer/MixerVerifier.sol\":6745:6758  i < ic.length */\n  lt\n    /* \"privacy/mixer/MixerVerifier.sol\":6725:6833  for (uint256 i = 0; i < ic.length; i++) {... */\n  iszero\n  tag_47\n  jumpi\n    /* \"privacy/mixer/MixerVerifier.sol\":6779:6796  inputCoefficients */\n  0x0d\n    /* \"privacy/mixer/MixerVerifier.sol\":6779:6810  inputCoefficients[denomination] */\n  0x00\n    /* \"privacy/mixer/MixerVerifier.sol\":6797:6809  denomination */\n  dup5\n    /* \"privacy/mixer/MixerVerifier.sol\":6779:6810  inputCoefficients[denomination] */\n  dup2\n  mstore\n  0x20\n  add\n  swap1\n  dup2\n  mstore\n  0x20\n  add\n  0x00\n  keccak256\n    /* \"privacy/mixer/MixerVerifier.sol\":6816:6818  ic */\n  dup3\n    /* \"privacy/mixer/MixerVerifier.sol\":6819:6820  i */\n  dup3\n    /* \"privacy/mixer/MixerVerifier.sol\":6816:6821  ic[i] */\n  dup2\n  mload\n  dup2\n  lt\n  tag_49\n  jumpi\n  tag_50\n  tag_32\n  jump\t// in\ntag_50:\ntag_49:\n  0x20\n  mul\n  0x20\n  add\n  add\n  mload\n    /* \"privacy/mixer/MixerVerifier.sol\":6779:6822  inputCoefficients[denomination].push(ic[i]) */\n  swap1\n  dup1\n  0x01\n  dup2\n  sload\n  add\n  dup1\n  dup3\n  sstore\n  dup1\n  swap2\n  pop\n  pop\n  0x01\n  swap1\n  sub\n  swap1\n  0x00\n  mstore\n  keccak256(0x00, 0x20)\n  swap1\n  0x02\n  mul\n  add\n  0x00\n  swap1\n  swap2\n  swap1\n  swap2\n  swap1\n  swap2\n  pop\n  swap1\n  0x02\n  tag_52\n  swap3\n  swap2\n  swap1\n  tag_21\n  jump\t// in\ntag_52:\n  pop\n    /* \"privacy/mixer/MixerVerifier.sol\":6760:6763  i++ */\n  dup1\n  dup1\n  0x01\n  add\n  swap2\n  pop\n  pop\n    /* \"privacy/mixer/MixerVerifier.sol\":6725:6833  for (uint256 i = 0; i < ic.length; i++) {... */\n  jump(tag_46)\ntag_47:\n  pop\n    /* \"privacy/mixer/MixerVerifier.sol\":6866:6878  denomination */\n  dup2\n    /* \"privacy/mixer/MixerVerifier.sol\":6848:6896  DenominationAdded(denomination, block.timestamp) */\n  0xa1339eb0c83d6ef984978de4b1183619df17a5dcbb74c7d120d193fa5586feec\n    /* \"privacy/mixer/MixerVerifier.sol\":6880:6895  block.timestamp */\n  timestamp\n    /* \"privacy/mixer/MixerVerifier.sol\":6848:6896  DenominationAdded(denomination, block.timestamp) */\n  mload(0x40)\n  tag_53\n  swap2\n  swap1\n  tag_54\n  jump\t// in\ntag_53:\n  mload(0x40)\n  dup1\n  swap2\n  sub\n  swap1\n  log2\n    /* \"privacy/mixer/MixerVerifier.sol\":6378:6903  function _addDenomination(... */\n  pop\n  pop\n  jump\t// out\n    /* \"privacy/mixer/MixerVerifier.sol\":271:8631  contract MixerVerifier is IMixerVerifier, Ownable, ReentrancyGuard, Pausable {... */\ntag_21:\n  dup3\n  0x02\n  dup2\n  add\n  swap3\n  dup3\n  iszero\n  tag_55\n  jumpi\n  swap2\n  0x20\n  mul\n  dup3\n  add\ntag_56:\n  dup3\n  dup2\n  gt\n  iszero\n  tag_57\n  jumpi\n  dup3\n  mload\n  dup3\n  sstore\n  swap2\n  0x20\n  add\n  swap2\n  swap1\n  0x01\n  add\n  swap1\n  jump(tag_56)\ntag_57:\ntag_55:\n  pop\n  swap1\n  pop\n  tag_58\n  swap2\n  swap1\n  tag_59\n  jump\t// in\ntag_58:\n  pop\n  swap1\n  jump\t// out\ntag_23:\n  dup3\n  0x02\n  dup1\n  mul\n  dup2\n  add\n  swap3\n  dup3\n  iszero\n  tag_60\n  jumpi\n  swap2\n  0x20\n  mul\n  dup3\n  add\ntag_61:\n  dup3\n  dup2\n  gt\n  iszero\n  tag_62\n  jumpi\n  dup3\n  mload\n  dup3\n  swap1\n  0x02\n  tag_63\n  swap3\n  swap2\n  swap1\n  tag_21\n  jump\t// in\ntag_63:\n  pop\n  swap2\n  0x20\n  add\n  swap2\n  swap1\n  0x02\n  add\n  swap1\n  jump(tag_61)\ntag_62:\ntag_60:\n  pop\n  swap1\n  pop\n  tag_64\n  swap2\n  swap1\n  tag_65\n  jump\t// in\ntag_64:\n  pop\n  swap1\n  jump\t// out\ntag_59:\ntag_66:\n  dup1\n  dup3\n  gt\n  iszero\n  tag_67\n  jumpi\n  0x00\n  dup2\n  0x00\n  swap1\n  sstore\n  pop\n  0x01\n  add\n  jump(tag_66)\ntag_67:\n  pop\n  swap1\n  jump\t// out\ntag_65:\ntag_68:\n  dup1\n  dup3\n  gt\n  iszero\n  tag_69\n  jumpi\n  0x00\n  dup2\n  dup2\n  tag_70\n  swap2\n  swap1\n  tag_71\n  jump\t// in\ntag_70:\n  pop\n  0x02\n  add\n  jump(tag_68)\ntag_69:\n  pop\n  swap1\n  jump\t// out\ntag_71:\n  pop\n  0x00\n  dup2\n  sstore\n  0x01\n  add\n  0x00\n  swap1\n  sstore\n  jump\t// out\n    /* \"#utility.yul\":7:82   */\ntag_72:\n    /* \"#utility.yul\":40:46   */\n  0x00\n    /* \"#utility.yul\":73:75   */\n  0x40\n    /* \"#utility.yul\":67:76   */\n  mload\n    /* \"#utility.yul\":57:76   */\n  swap1\n  pop\n    /* \"#utility.yul\":7:82   */\n  swap1\n  jump\t// out\n    /* \"#utility.yul\":88:205   */\ntag_73:\n    /* \"#utility.yul\":197:198   */\n  0x00\n    /* \"#utility.yul\":194:195   */\n  dup1\n    /* \"#utility.yul\":187:199   */\n  revert\n    /* \"#utility.yul\":211:328   */\ntag_74:\n    /* \"#utility.yul\":320:321   */\n  0x00\n    /* \"#utility.yul\":317:318   */\n  dup1\n    /* \"#utility.yul\":310:322   */\n  revert\n    /* \"#utility.yul\":334:460   */\ntag_75:\n    /* \"#utility.yul\":371:378   */\n  0x00\n    /* \"#utility.yul\":411:453   */\n  0xffffffffffffffffffffffffffffffffffffffff\n    /* \"#utility.yul\":404:409   */\n  dup3\n    /* \"#utility.yul\":400:454   */\n  and\n    /* \"#utility.yul\":389:454   */\n  swap1\n  pop\n    /* \"#utility.yul\":334:460   */\n  swap2\n  swap1\n  pop\n  jump\t// out\n    /* \"#utility.yul\":466:562   */\ntag_76:\n    /* \"#utility.yul\":503:510   */\n  0x00\n    /* \"#utility.yul\":532:556   */\n  tag_121\n    /* \"#utility.yul\":550:555   */\n  dup3\n    /* \"#utility.yul\":532:556   */\n  tag_75\n  jump\t// in\ntag_121:\n    /* \"#utility.yul\":521:556   */\n  swap1\n  pop\n    /* \"#utility.yul\":466:562   */\n  swap2\n  swap1\n  pop\n  jump\t// out\n    /* \"#utility.yul\":568:690   */\ntag_77:\n    /* \"#utility.yul\":641:665   */\n  tag_123\n    /* \"#utility.yul\":659:664   */\n  dup2\n    /* \"#utility.yul\":641:665   */\n  tag_76\n  jump\t// in\ntag_123:\n    /* \"#utility.yul\":634:639   */\n  dup2\n    /* \"#utility.yul\":631:666   */\n  eq\n    /* \"#utility.yul\":621:684   */\n  tag_124\n  jumpi\n    /* \"#utility.yul\":680:681   */\n  0x00\n    /* \"#utility.yul\":677:678   */\n  dup1\n    /* \"#utility.yul\":670:682   */\n  revert\n    /* \"#utility.yul\":621:684   */\ntag_124:\n    /* \"#utility.yul\":568:690   */\n  pop\n  jump\t// out\n    /* \"#utility.yul\":696:839   */\ntag_78:\n    /* \"#utility.yul\":753:758   */\n  0x00\n    /* \"#utility.yul\":784:790   */\n  dup2\n    /* \"#utility.yul\":778:791   */\n  mload\n    /* \"#utility.yul\":769:791   */\n  swap1\n  pop\n    /* \"#utility.yul\":800:833   */\n  tag_126\n    /* \"#utility.yul\":827:832   */\n  dup2\n    /* \"#utility.yul\":800:833   */\n  tag_77\n  jump\t// in\ntag_126:\n    /* \"#utility.yul\":696:839   */\n  swap3\n  swap2\n  pop\n  pop\n  jump\t// out\n    /* \"#utility.yul\":845:962   */\ntag_79:\n    /* \"#utility.yul\":954:955   */\n  0x00\n    /* \"#utility.yul\":951:952   */\n  dup1\n    /* \"#utility.yul\":944:956   */\n  revert\n    /* \"#utility.yul\":968:1070   */\ntag_80:\n    /* \"#utility.yul\":1009:1015   */\n  0x00\n    /* \"#utility.yul\":1060:1062   */\n  0x1f\n    /* \"#utility.yul\":1056:1063   */\n  not\n    /* \"#utility.yul\":1051:1053   */\n  0x1f\n    /* \"#utility.yul\":1044:1049   */\n  dup4\n    /* \"#utility.yul\":1040:1054   */\n  add\n    /* \"#utility.yul\":1036:1064   */\n  and\n    /* \"#utility.yul\":1026:1064   */\n  swap1\n  pop\n    /* \"#utility.yul\":968:1070   */\n  swap2\n  swap1\n  pop\n  jump\t// out\n    /* \"#utility.yul\":1076:1256   */\ntag_81:\n    /* \"#utility.yul\":1124:1201   */\n  0x4e487b7100000000000000000000000000000000000000000000000000000000\n    /* \"#utility.yul\":1121:1122   */\n  0x00\n    /* \"#utility.yul\":1114:1202   */\n  mstore\n    /* \"#utility.yul\":1221:1225   */\n  0x41\n    /* \"#utility.yul\":1218:1219   */\n  0x04\n    /* \"#utility.yul\":1211:1226   */\n  mstore\n    /* \"#utility.yul\":1245:1249   */\n  0x24\n    /* \"#utility.yul\":1242:1243   */\n  0x00\n    /* \"#utility.yul\":1235:1250   */\n  revert\n    /* \"#utility.yul\":1262:1543   */\ntag_82:\n    /* \"#utility.yul\":1345:1372   */\n  tag_131\n    /* \"#utility.yul\":1367:1371   */\n  dup3\n    /* \"#utility.yul\":1345:1372   */\n  tag_80\n  jump\t// in\ntag_131:\n    /* \"#utility.yul\":1337:1343   */\n  dup2\n    /* \"#utility.yul\":1333:1373   */\n  add\n    /* \"#utility.yul\":1475:1481   */\n  dup2\n    /* \"#utility.yul\":1463:1473   */\n  dup2\n    /* \"#utility.yul\":1460:1482   */\n  lt\n    /* \"#utility.yul\":1439:1457   */\n  0xffffffffffffffff\n    /* \"#utility.yul\":1427:1437   */\n  dup3\n    /* \"#utility.yul\":1424:1458   */\n  gt\n    /* \"#utility.yul\":1421:1483   */\n  or\n    /* \"#utility.yul\":1418:1506   */\n  iszero\n  tag_132\n  jumpi\n    /* \"#utility.yul\":1486:1504   */\n  tag_133\n  tag_81\n  jump\t// in\ntag_133:\n    /* \"#utility.yul\":1418:1506   */\ntag_132:\n    /* \"#utility.yul\":1526:1536   */\n  dup1\n    /* \"#utility.yul\":1522:1524   */\n  0x40\n    /* \"#utility.yul\":1515:1537   */\n  mstore\n    /* \"#utility.yul\":1305:1543   */\n  pop\n    /* \"#utility.yul\":1262:1543   */\n  pop\n  pop\n  jump\t// out\n    /* \"#utility.yul\":1549:1678   */\ntag_83:\n    /* \"#utility.yul\":1583:1589   */\n  0x00\n    /* \"#utility.yul\":1610:1630   */\n  tag_135\n  tag_72\n  jump\t// in\ntag_135:\n    /* \"#utility.yul\":1600:1630   */\n  swap1\n  pop\n    /* \"#utility.yul\":1639:1672   */\n  tag_136\n    /* \"#utility.yul\":1667:1671   */\n  dup3\n    /* \"#utility.yul\":1659:1665   */\n  dup3\n    /* \"#utility.yul\":1639:1672   */\n  tag_82\n  jump\t// in\ntag_136:\n    /* \"#utility.yul\":1549:1678   */\n  swap2\n  swap1\n  pop\n  jump\t// out\n    /* \"#utility.yul\":1684:1995   */\ntag_84:\n    /* \"#utility.yul\":1761:1765   */\n  0x00\n    /* \"#utility.yul\":1851:1869   */\n  0xffffffffffffffff\n    /* \"#utility.yul\":1843:1849   */\n  dup3\n    /* \"#utility.yul\":1840:1870   */\n  gt\n    /* \"#utility.yul\":1837:1893   */\n  iszero\n  tag_138\n  jumpi\n    /* \"#utility.yul\":1873:1891   */\n  tag_139\n  tag_81\n  jump\t// in\ntag_139:\n    /* \"#utility.yul\":1837:1893   */\ntag_138:\n    /* \"#utility.yul\":1923:1927   */\n  0x20\n    /* \"#utility.yul\":1915:1921   */\n  dup3\n    /* \"#utility.yul\":1911:1928   */\n  mul\n    /* \"#utility.yul\":1903:1928   */\n  swap1\n  pop\n    /* \"#utility.yul\":1983:1987   */\n  0x20\n    /* \"#utility.yul\":1977:1981   */\n  dup2\n    /* \"#utility.yul\":1973:1988   */\n  add\n    /* \"#utility.yul\":1965:1988   */\n  swap1\n  pop\n    /* \"#utility.yul\":1684:1995   */\n  swap2\n  swap1\n  pop\n  jump\t// out\n    /* \"#utility.yul\":2001:2118   */\ntag_85:\n    /* \"#utility.yul\":2110:2111   */\n  0x00\n    /* \"#utility.yul\":2107:2108   */\n  dup1\n    /* \"#utility.yul\":2100:2112   */\n  revert\n    /* \"#utility.yul\":2124:2201   */\ntag_86:\n    /* \"#utility.yul\":2161:2168   */\n  0x00\n    /* \"#utility.yul\":2190:2195   */\n  dup2\n    /* \"#utility.yul\":2179:2195   */\n  swap1\n  pop\n    /* \"#utility.yul\":2124:2201   */\n  swap2\n  swap1\n  pop\n  jump\t// out\n    /* \"#utility.yul\":2207:2329   */\ntag_87:\n    /* \"#utility.yul\":2280:2304   */\n  tag_143\n    /* \"#utility.yul\":2298:2303   */\n  dup2\n    /* \"#utility.yul\":2280:2304   */\n  tag_86\n  jump\t// in\ntag_143:\n    /* \"#utility.yul\":2273:2278   */\n  dup2\n    /* \"#utility.yul\":2270:2305   */\n  eq\n    /* \"#utility.yul\":2260:2323   */\n  tag_144\n  jumpi\n    /* \"#utility.yul\":2319:2320   */\n  0x00\n    /* \"#utility.yul\":2316:2317   */\n  dup1\n    /* \"#utility.yul\":2309:2321   */\n  revert\n    /* \"#utility.yul\":2260:2323   */\ntag_144:\n    /* \"#utility.yul\":2207:2329   */\n  pop\n  jump\t// out\n    /* \"#utility.yul\":2335:2478   */\ntag_88:\n    /* \"#utility.yul\":2392:2397   */\n  0x00\n    /* \"#utility.yul\":2423:2429   */\n  dup2\n    /* \"#utility.yul\":2417:2430   */\n  mload\n    /* \"#utility.yul\":2408:2430   */\n  swap1\n  pop\n    /* \"#utility.yul\":2439:2472   */\n  tag_146\n    /* \"#utility.yul\":2466:2471   */\n  dup2\n    /* \"#utility.yul\":2439:2472   */\n  tag_87\n  jump\t// in\ntag_146:\n    /* \"#utility.yul\":2335:2478   */\n  swap3\n  swap2\n  pop\n  pop\n  jump\t// out\n    /* \"#utility.yul\":2501:3233   */\ntag_89:\n    /* \"#utility.yul\":2608:2613   */\n  0x00\n    /* \"#utility.yul\":2633:2714   */\n  tag_148\n    /* \"#utility.yul\":2649:2713   */\n  tag_149\n    /* \"#utility.yul\":2706:2712   */\n  dup5\n    /* \"#utility.yul\":2649:2713   */\n  tag_84\n  jump\t// in\ntag_149:\n    /* \"#utility.yul\":2633:2714   */\n  tag_83\n  jump\t// in\ntag_148:\n    /* \"#utility.yul\":2624:2714   */\n  swap1\n  pop\n    /* \"#utility.yul\":2734:2739   */\n  dup1\n    /* \"#utility.yul\":2763:2769   */\n  dup4\n    /* \"#utility.yul\":2756:2761   */\n  dup3\n    /* \"#utility.yul\":2749:2770   */\n  mstore\n    /* \"#utility.yul\":2797:2801   */\n  0x20\n    /* \"#utility.yul\":2790:2795   */\n  dup3\n    /* \"#utility.yul\":2786:2802   */\n  add\n    /* \"#utility.yul\":2779:2802   */\n  swap1\n  pop\n    /* \"#utility.yul\":2850:2854   */\n  0x20\n    /* \"#utility.yul\":2842:2848   */\n  dup5\n    /* \"#utility.yul\":2838:2855   */\n  mul\n    /* \"#utility.yul\":2830:2836   */\n  dup4\n    /* \"#utility.yul\":2826:2856   */\n  add\n    /* \"#utility.yul\":2879:2882   */\n  dup6\n    /* \"#utility.yul\":2871:2877   */\n  dup2\n    /* \"#utility.yul\":2868:2883   */\n  gt\n    /* \"#utility.yul\":2865:2987   */\n  iszero\n  tag_150\n  jumpi\n    /* \"#utility.yul\":2898:2977   */\n  tag_151\n  tag_85\n  jump\t// in\ntag_151:\n    /* \"#utility.yul\":2865:2987   */\ntag_150:\n    /* \"#utility.yul\":3013:3019   */\n  dup4\n    /* \"#utility.yul\":2996:3227   */\ntag_152:\n    /* \"#utility.yul\":3030:3036   */\n  dup2\n    /* \"#utility.yul\":3025:3028   */\n  dup2\n    /* \"#utility.yul\":3022:3037   */\n  lt\n    /* \"#utility.yul\":2996:3227   */\n  iszero\n  tag_154\n  jumpi\n    /* \"#utility.yul\":3105:3108   */\n  dup1\n    /* \"#utility.yul\":3134:3182   */\n  tag_155\n    /* \"#utility.yul\":3178:3181   */\n  dup9\n    /* \"#utility.yul\":3166:3176   */\n  dup3\n    /* \"#utility.yul\":3134:3182   */\n  tag_88\n  jump\t// in\ntag_155:\n    /* \"#utility.yul\":3129:3132   */\n  dup5\n    /* \"#utility.yul\":3122:3183   */\n  mstore\n    /* \"#utility.yul\":3212:3216   */\n  0x20\n    /* \"#utility.yul\":3207:3210   */\n  dup5\n    /* \"#utility.yul\":3203:3217   */\n  add\n    /* \"#utility.yul\":3196:3217   */\n  swap4\n  pop\n    /* \"#utility.yul\":3072:3227   */\n  pop\n    /* \"#utility.yul\":3056:3060   */\n  0x20\n    /* \"#utility.yul\":3051:3054   */\n  dup2\n    /* \"#utility.yul\":3047:3061   */\n  add\n    /* \"#utility.yul\":3040:3061   */\n  swap1\n  pop\n    /* \"#utility.yul\":2996:3227   */\n  jump(tag_152)\ntag_154:\n    /* \"#utility.yul\":3000:3021   */\n  pop\n    /* \"#utility.yul\":2614:3233   */\n  pop\n  pop\n    /* \"#utility.yul\":2501:3233   */\n  swap4\n  swap3\n  pop\n  pop\n  pop\n  jump\t// out\n    /* \"#utility.yul\":3256:3641   */\ntag_90:\n    /* \"#utility.yul\":3338:3343   */\n  0x00\n    /* \"#utility.yul\":3387:3390   */\n  dup3\n    /* \"#utility.yul\":3380:3384   */\n  0x1f\n    /* \"#utility.yul\":3372:3378   */\n  dup4\n    /* \"#utility.yul\":3368:3385   */\n  add\n    /* \"#utility.yul\":3364:3391   */\n  slt\n    /* \"#utility.yul\":3354:3476   */\n  tag_157\n  jumpi\n    /* \"#utility.yul\":3395:3474   */\n  tag_158\n  tag_79\n  jump\t// in\ntag_158:\n    /* \"#utility.yul\":3354:3476   */\ntag_157:\n    /* \"#utility.yul\":3505:3511   */\n  dup2\n    /* \"#utility.yul\":3499:3512   */\n  mload\n    /* \"#utility.yul\":3530:3635   */\n  tag_159\n    /* \"#utility.yul\":3631:3634   */\n  dup5\n    /* \"#utility.yul\":3623:3629   */\n  dup3\n    /* \"#utility.yul\":3616:3620   */\n  0x20\n    /* \"#utility.yul\":3608:3614   */\n  dup7\n    /* \"#utility.yul\":3604:3621   */\n  add\n    /* \"#utility.yul\":3530:3635   */\n  tag_89\n  jump\t// in\ntag_159:\n    /* \"#utility.yul\":3521:3635   */\n  swap2\n  pop\n    /* \"#utility.yul\":3344:3641   */\n  pop\n    /* \"#utility.yul\":3256:3641   */\n  swap3\n  swap2\n  pop\n  pop\n  jump\t// out\n    /* \"#utility.yul\":3647:3896   */\ntag_91:\n    /* \"#utility.yul\":3722:3726   */\n  0x00\n    /* \"#utility.yul\":3812:3830   */\n  0xffffffffffffffff\n    /* \"#utility.yul\":3804:3810   */\n  dup3\n    /* \"#utility.yul\":3801:3831   */\n  gt\n    /* \"#utility.yul\":3798:3854   */\n  iszero\n  tag_161\n  jumpi\n    /* \"#utility.yul\":3834:3852   */\n  tag_162\n  tag_81\n  jump\t// in\ntag_162:\n    /* \"#utility.yul\":3798:3854   */\ntag_161:\n    /* \"#utility.yul\":3884:3888   */\n  0x20\n    /* \"#utility.yul\":3876:3882   */\n  dup3\n    /* \"#utility.yul\":3872:3889   */\n  mul\n    /* \"#utility.yul\":3864:3889   */\n  swap1\n  pop\n    /* \"#utility.yul\":3647:3896   */\n  swap2\n  swap1\n  pop\n  jump\t// out\n    /* \"#utility.yul\":3920:4585   */\ntag_92:\n    /* \"#utility.yul\":4025:4030   */\n  0x00\n    /* \"#utility.yul\":4050:4129   */\n  tag_164\n    /* \"#utility.yul\":4066:4128   */\n  tag_165\n    /* \"#utility.yul\":4121:4127   */\n  dup5\n    /* \"#utility.yul\":4066:4128   */\n  tag_91\n  jump\t// in\ntag_165:\n    /* \"#utility.yul\":4050:4129   */\n  tag_83\n  jump\t// in\ntag_164:\n    /* \"#utility.yul\":4041:4129   */\n  swap1\n  pop\n    /* \"#utility.yul\":4149:4154   */\n  dup1\n    /* \"#utility.yul\":4202:4206   */\n  0x20\n    /* \"#utility.yul\":4194:4200   */\n  dup5\n    /* \"#utility.yul\":4190:4207   */\n  mul\n    /* \"#utility.yul\":4182:4188   */\n  dup4\n    /* \"#utility.yul\":4178:4208   */\n  add\n    /* \"#utility.yul\":4231:4234   */\n  dup6\n    /* \"#utility.yul\":4223:4229   */\n  dup2\n    /* \"#utility.yul\":4220:4235   */\n  gt\n    /* \"#utility.yul\":4217:4339   */\n  iszero\n  tag_166\n  jumpi\n    /* \"#utility.yul\":4250:4329   */\n  tag_167\n  tag_85\n  jump\t// in\ntag_167:\n    /* \"#utility.yul\":4217:4339   */\ntag_166:\n    /* \"#utility.yul\":4365:4371   */\n  dup4\n    /* \"#utility.yul\":4348:4579   */\ntag_168:\n    /* \"#utility.yul\":4382:4388   */\n  dup2\n    /* \"#utility.yul\":4377:4380   */\n  dup2\n    /* \"#utility.yul\":4374:4389   */\n  lt\n    /* \"#utility.yul\":4348:4579   */\n  iszero\n  tag_170\n  jumpi\n    /* \"#utility.yul\":4457:4460   */\n  dup1\n    /* \"#utility.yul\":4486:4534   */\n  tag_171\n    /* \"#utility.yul\":4530:4533   */\n  dup9\n    /* \"#utility.yul\":4518:4528   */\n  dup3\n    /* \"#utility.yul\":4486:4534   */\n  tag_88\n  jump\t// in\ntag_171:\n    /* \"#utility.yul\":4481:4484   */\n  dup5\n    /* \"#utility.yul\":4474:4535   */\n  mstore\n    /* \"#utility.yul\":4564:4568   */\n  0x20\n    /* \"#utility.yul\":4559:4562   */\n  dup5\n    /* \"#utility.yul\":4555:4569   */\n  add\n    /* \"#utility.yul\":4548:4569   */\n  swap4\n  pop\n    /* \"#utility.yul\":4424:4579   */\n  pop\n    /* \"#utility.yul\":4408:4412   */\n  0x20\n    /* \"#utility.yul\":4403:4406   */\n  dup2\n    /* \"#utility.yul\":4399:4413   */\n  add\n    /* \"#utility.yul\":4392:4413   */\n  swap1\n  pop\n    /* \"#utility.yul\":4348:4579   */\n  jump(tag_168)\ntag_170:\n    /* \"#utility.yul\":4352:4373   */\n  pop\n    /* \"#utility.yul\":4031:4585   */\n  pop\n  pop\n    /* \"#utility.yul\":3920:4585   */\n  swap4\n  swap3\n  pop\n  pop\n  pop\n  jump\t// out\n    /* \"#utility.yul\":4609:4970   */\ntag_93:\n    /* \"#utility.yul\":4689:4694   */\n  0x00\n    /* \"#utility.yul\":4738:4741   */\n  dup3\n    /* \"#utility.yul\":4731:4735   */\n  0x1f\n    /* \"#utility.yul\":4723:4729   */\n  dup4\n    /* \"#utility.yul\":4719:4736   */\n  add\n    /* \"#utility.yul\":4715:4742   */\n  slt\n    /* \"#utility.yul\":4705:4827   */\n  tag_173\n  jumpi\n    /* \"#utility.yul\":4746:4825   */\n  tag_174\n  tag_79\n  jump\t// in\ntag_174:\n    /* \"#utility.yul\":4705:4827   */\ntag_173:\n    /* \"#utility.yul\":4850:4854   */\n  0x02\n    /* \"#utility.yul\":4872:4964   */\n  tag_175\n    /* \"#utility.yul\":4960:4963   */\n  dup5\n    /* \"#utility.yul\":4952:4958   */\n  dup3\n    /* \"#utility.yul\":4944:4950   */\n  dup6\n    /* \"#utility.yul\":4872:4964   */\n  tag_92\n  jump\t// in\ntag_175:\n    /* \"#utility.yul\":4863:4964   */\n  swap2\n  pop\n    /* \"#utility.yul\":4695:4970   */\n  pop\n    /* \"#utility.yul\":4609:4970   */\n  swap3\n  swap2\n  pop\n  pop\n  jump\t// out\n    /* \"#utility.yul\":4976:5248   */\ntag_94:\n    /* \"#utility.yul\":5074:5078   */\n  0x00\n    /* \"#utility.yul\":5164:5182   */\n  0xffffffffffffffff\n    /* \"#utility.yul\":5156:5162   */\n  dup3\n    /* \"#utility.yul\":5153:5183   */\n  gt\n    /* \"#utility.yul\":5150:5206   */\n  iszero\n  tag_177\n  jumpi\n    /* \"#utility.yul\":5186:5204   */\n  tag_178\n  tag_81\n  jump\t// in\ntag_178:\n    /* \"#utility.yul\":5150:5206   */\ntag_177:\n    /* \"#utility.yul\":5236:5240   */\n  0x20\n    /* \"#utility.yul\":5228:5234   */\n  dup3\n    /* \"#utility.yul\":5224:5241   */\n  mul\n    /* \"#utility.yul\":5216:5241   */\n  swap1\n  pop\n    /* \"#utility.yul\":4976:5248   */\n  swap2\n  swap1\n  pop\n  jump\t// out\n    /* \"#utility.yul\":5275:6009   */\ntag_95:\n    /* \"#utility.yul\":5403:5408   */\n  0x00\n    /* \"#utility.yul\":5428:5530   */\n  tag_180\n    /* \"#utility.yul\":5444:5529   */\n  tag_181\n    /* \"#utility.yul\":5522:5528   */\n  dup5\n    /* \"#utility.yul\":5444:5529   */\n  tag_94\n  jump\t// in\ntag_181:\n    /* \"#utility.yul\":5428:5530   */\n  tag_83\n  jump\t// in\ntag_180:\n    /* \"#utility.yul\":5419:5530   */\n  swap1\n  pop\n    /* \"#utility.yul\":5550:5555   */\n  dup1\n    /* \"#utility.yul\":5603:5607   */\n  0x40\n    /* \"#utility.yul\":5595:5601   */\n  dup5\n    /* \"#utility.yul\":5591:5608   */\n  mul\n    /* \"#utility.yul\":5583:5589   */\n  dup4\n    /* \"#utility.yul\":5579:5609   */\n  add\n    /* \"#utility.yul\":5632:5635   */\n  dup6\n    /* \"#utility.yul\":5624:5630   */\n  dup2\n    /* \"#utility.yul\":5621:5636   */\n  gt\n    /* \"#utility.yul\":5618:5740   */\n  iszero\n  tag_182\n  jumpi\n    /* \"#utility.yul\":5651:5730   */\n  tag_183\n  tag_85\n  jump\t// in\ntag_183:\n    /* \"#utility.yul\":5618:5740   */\ntag_182:\n    /* \"#utility.yul\":5766:5772   */\n  dup4\n    /* \"#utility.yul\":5749:6003   */\ntag_184:\n    /* \"#utility.yul\":5783:5789   */\n  dup2\n    /* \"#utility.yul\":5778:5781   */\n  dup2\n    /* \"#utility.yul\":5775:5790   */\n  lt\n    /* \"#utility.yul\":5749:6003   */\n  iszero\n  tag_186\n  jumpi\n    /* \"#utility.yul\":5858:5861   */\n  dup1\n    /* \"#utility.yul\":5887:5958   */\n  tag_187\n    /* \"#utility.yul\":5954:5957   */\n  dup9\n    /* \"#utility.yul\":5942:5952   */\n  dup3\n    /* \"#utility.yul\":5887:5958   */\n  tag_93\n  jump\t// in\ntag_187:\n    /* \"#utility.yul\":5882:5885   */\n  dup5\n    /* \"#utility.yul\":5875:5959   */\n  mstore\n    /* \"#utility.yul\":5988:5992   */\n  0x20\n    /* \"#utility.yul\":5983:5986   */\n  dup5\n    /* \"#utility.yul\":5979:5993   */\n  add\n    /* \"#utility.yul\":5972:5993   */\n  swap4\n  pop\n    /* \"#utility.yul\":5825:6003   */\n  pop\n    /* \"#utility.yul\":5809:5813   */\n  0x40\n    /* \"#utility.yul\":5804:5807   */\n  dup2\n    /* \"#utility.yul\":5800:5814   */\n  add\n    /* \"#utility.yul\":5793:5814   */\n  swap1\n  pop\n    /* \"#utility.yul\":5749:6003   */\n  jump(tag_184)\ntag_186:\n    /* \"#utility.yul\":5753:5774   */\n  pop\n    /* \"#utility.yul\":5409:6009   */\n  pop\n  pop\n    /* \"#utility.yul\":5275:6009   */\n  swap4\n  swap3\n  pop\n  pop\n  pop\n  jump\t// out\n    /* \"#utility.yul\":6036:6443   */\ntag_96:\n    /* \"#utility.yul\":6139:6144   */\n  0x00\n    /* \"#utility.yul\":6188:6191   */\n  dup3\n    /* \"#utility.yul\":6181:6185   */\n  0x1f\n    /* \"#utility.yul\":6173:6179   */\n  dup4\n    /* \"#utility.yul\":6169:6186   */\n  add\n    /* \"#utility.yul\":6165:6192   */\n  slt\n    /* \"#utility.yul\":6155:6277   */\n  tag_189\n  jumpi\n    /* \"#utility.yul\":6196:6275   */\n  tag_190\n  tag_79\n  jump\t// in\ntag_190:\n    /* \"#utility.yul\":6155:6277   */\ntag_189:\n    /* \"#utility.yul\":6300:6304   */\n  0x02\n    /* \"#utility.yul\":6322:6437   */\n  tag_191\n    /* \"#utility.yul\":6433:6436   */\n  dup5\n    /* \"#utility.yul\":6425:6431   */\n  dup3\n    /* \"#utility.yul\":6417:6423   */\n  dup6\n    /* \"#utility.yul\":6322:6437   */\n  tag_95\n  jump\t// in\ntag_191:\n    /* \"#utility.yul\":6313:6437   */\n  swap2\n  pop\n    /* \"#utility.yul\":6145:6443   */\n  pop\n    /* \"#utility.yul\":6036:6443   */\n  swap3\n  swap2\n  pop\n  pop\n  jump\t// out\n    /* \"#utility.yul\":6449:6808   */\ntag_97:\n    /* \"#utility.yul\":6574:6578   */\n  0x00\n    /* \"#utility.yul\":6664:6682   */\n  0xffffffffffffffff\n    /* \"#utility.yul\":6656:6662   */\n  dup3\n    /* \"#utility.yul\":6653:6683   */\n  gt\n    /* \"#utility.yul\":6650:6706   */\n  iszero\n  tag_193\n  jumpi\n    /* \"#utility.yul\":6686:6704   */\n  tag_194\n  tag_81\n  jump\t// in\ntag_194:\n    /* \"#utility.yul\":6650:6706   */\ntag_193:\n    /* \"#utility.yul\":6736:6740   */\n  0x20\n    /* \"#utility.yul\":6728:6734   */\n  dup3\n    /* \"#utility.yul\":6724:6741   */\n  mul\n    /* \"#utility.yul\":6716:6741   */\n  swap1\n  pop\n    /* \"#utility.yul\":6796:6800   */\n  0x20\n    /* \"#utility.yul\":6790:6794   */\n  dup2\n    /* \"#utility.yul\":6786:6801   */\n  add\n    /* \"#utility.yul\":6778:6801   */\n  swap1\n  pop\n    /* \"#utility.yul\":6449:6808   */\n  swap2\n  swap1\n  pop\n  jump\t// out\n    /* \"#utility.yul\":6814:7148   */\ntag_98:\n    /* \"#utility.yul\":6914:6918   */\n  0x00\n    /* \"#utility.yul\":7004:7022   */\n  0xffffffffffffffff\n    /* \"#utility.yul\":6996:7002   */\n  dup3\n    /* \"#utility.yul\":6993:7023   */\n  gt\n    /* \"#utility.yul\":6990:7046   */\n  iszero\n  tag_196\n  jumpi\n    /* \"#utility.yul\":7026:7044   */\n  tag_197\n  tag_81\n  jump\t// in\ntag_197:\n    /* \"#utility.yul\":6990:7046   */\ntag_196:\n    /* \"#utility.yul\":7076:7080   */\n  0x20\n    /* \"#utility.yul\":7068:7074   */\n  dup3\n    /* \"#utility.yul\":7064:7081   */\n  mul\n    /* \"#utility.yul\":7056:7081   */\n  swap1\n  pop\n    /* \"#utility.yul\":7136:7140   */\n  0x20\n    /* \"#utility.yul\":7130:7134   */\n  dup2\n    /* \"#utility.yul\":7126:7141   */\n  add\n    /* \"#utility.yul\":7118:7141   */\n  swap1\n  pop\n    /* \"#utility.yul\":6814:7148   */\n  swap2\n  swap1\n  pop\n  jump\t// out\n    /* \"#utility.yul\":7174:7975   */\ntag_99:\n    /* \"#utility.yul\":7304:7309   */\n  0x00\n    /* \"#utility.yul\":7329:7433   */\n  tag_199\n    /* \"#utility.yul\":7345:7432   */\n  tag_200\n    /* \"#utility.yul\":7425:7431   */\n  dup5\n    /* \"#utility.yul\":7345:7432   */\n  tag_98\n  jump\t// in\ntag_200:\n    /* \"#utility.yul\":7329:7433   */\n  tag_83\n  jump\t// in\ntag_199:\n    /* \"#utility.yul\":7320:7433   */\n  swap1\n  pop\n    /* \"#utility.yul\":7453:7458   */\n  dup1\n    /* \"#utility.yul\":7482:7488   */\n  dup4\n    /* \"#utility.yul\":7475:7480   */\n  dup3\n    /* \"#utility.yul\":7468:7489   */\n  mstore\n    /* \"#utility.yul\":7516:7520   */\n  0x20\n    /* \"#utility.yul\":7509:7514   */\n  dup3\n    /* \"#utility.yul\":7505:7521   */\n  add\n    /* \"#utility.yul\":7498:7521   */\n  swap1\n  pop\n    /* \"#utility.yul\":7569:7573   */\n  0x40\n    /* \"#utility.yul\":7561:7567   */\n  dup5\n    /* \"#utility.yul\":7557:7574   */\n  mul\n    /* \"#utility.yul\":7549:7555   */\n  dup4\n    /* \"#utility.yul\":7545:7575   */\n  add\n    /* \"#utility.yul\":7598:7601   */\n  dup6\n    /* \"#utility.yul\":7590:7596   */\n  dup2\n    /* \"#utility.yul\":7587:7602   */\n  gt\n    /* \"#utility.yul\":7584:7706   */\n  iszero\n  tag_201\n  jumpi\n    /* \"#utility.yul\":7617:7696   */\n  tag_202\n  tag_85\n  jump\t// in\ntag_202:\n    /* \"#utility.yul\":7584:7706   */\ntag_201:\n    /* \"#utility.yul\":7732:7738   */\n  dup4\n    /* \"#utility.yul\":7715:7969   */\ntag_203:\n    /* \"#utility.yul\":7749:7755   */\n  dup2\n    /* \"#utility.yul\":7744:7747   */\n  dup2\n    /* \"#utility.yul\":7741:7756   */\n  lt\n    /* \"#utility.yul\":7715:7969   */\n  iszero\n  tag_205\n  jumpi\n    /* \"#utility.yul\":7824:7827   */\n  dup1\n    /* \"#utility.yul\":7853:7924   */\n  tag_206\n    /* \"#utility.yul\":7920:7923   */\n  dup9\n    /* \"#utility.yul\":7908:7918   */\n  dup3\n    /* \"#utility.yul\":7853:7924   */\n  tag_93\n  jump\t// in\ntag_206:\n    /* \"#utility.yul\":7848:7851   */\n  dup5\n    /* \"#utility.yul\":7841:7925   */\n  mstore\n    /* \"#utility.yul\":7954:7958   */\n  0x20\n    /* \"#utility.yul\":7949:7952   */\n  dup5\n    /* \"#utility.yul\":7945:7959   */\n  add\n    /* \"#utility.yul\":7938:7959   */\n  swap4\n  pop\n    /* \"#utility.yul\":7791:7969   */\n  pop\n    /* \"#utility.yul\":7775:7779   */\n  0x40\n    /* \"#utility.yul\":7770:7773   */\n  dup2\n    /* \"#utility.yul\":7766:7780   */\n  add\n    /* \"#utility.yul\":7759:7780   */\n  swap1\n  pop\n    /* \"#utility.yul\":7715:7969   */\n  jump(tag_203)\ntag_205:\n    /* \"#utility.yul\":7719:7740   */\n  pop\n    /* \"#utility.yul\":7310:7975   */\n  pop\n  pop\n    /* \"#utility.yul\":7174:7975   */\n  swap4\n  swap3\n  pop\n  pop\n  pop\n  jump\t// out\n    /* \"#utility.yul\":8001:8432   */\ntag_100:\n    /* \"#utility.yul\":8106:8111   */\n  0x00\n    /* \"#utility.yul\":8155:8158   */\n  dup3\n    /* \"#utility.yul\":8148:8152   */\n  0x1f\n    /* \"#utility.yul\":8140:8146   */\n  dup4\n    /* \"#utility.yul\":8136:8153   */\n  add\n    /* \"#utility.yul\":8132:8159   */\n  slt\n    /* \"#utility.yul\":8122:8244   */\n  tag_208\n  jumpi\n    /* \"#utility.yul\":8163:8242   */\n  tag_209\n  tag_79\n  jump\t// in\ntag_209:\n    /* \"#utility.yul\":8122:8244   */\ntag_208:\n    /* \"#utility.yul\":8273:8279   */\n  dup2\n    /* \"#utility.yul\":8267:8280   */\n  mload\n    /* \"#utility.yul\":8298:8426   */\n  tag_210\n    /* \"#utility.yul\":8422:8425   */\n  dup5\n    /* \"#utility.yul\":8414:8420   */\n  dup3\n    /* \"#utility.yul\":8407:8411   */\n  0x20\n    /* \"#utility.yul\":8399:8405   */\n  dup7\n    /* \"#utility.yul\":8395:8412   */\n  add\n    /* \"#utility.yul\":8298:8426   */\n  tag_99\n  jump\t// in\ntag_210:\n    /* \"#utility.yul\":8289:8426   */\n  swap2\n  pop\n    /* \"#utility.yul\":8112:8432   */\n  pop\n    /* \"#utility.yul\":8001:8432   */\n  swap3\n  swap2\n  pop\n  pop\n  jump\t// out\n    /* \"#utility.yul\":8460:9534   */\ntag_101:\n    /* \"#utility.yul\":8615:8620   */\n  0x00\n    /* \"#utility.yul\":8640:8769   */\n  tag_212\n    /* \"#utility.yul\":8656:8768   */\n  tag_213\n    /* \"#utility.yul\":8761:8767   */\n  dup5\n    /* \"#utility.yul\":8656:8768   */\n  tag_97\n  jump\t// in\ntag_213:\n    /* \"#utility.yul\":8640:8769   */\n  tag_83\n  jump\t// in\ntag_212:\n    /* \"#utility.yul\":8631:8769   */\n  swap1\n  pop\n    /* \"#utility.yul\":8789:8794   */\n  dup1\n    /* \"#utility.yul\":8818:8824   */\n  dup4\n    /* \"#utility.yul\":8811:8816   */\n  dup3\n    /* \"#utility.yul\":8804:8825   */\n  mstore\n    /* \"#utility.yul\":8852:8856   */\n  0x20\n    /* \"#utility.yul\":8845:8850   */\n  dup3\n    /* \"#utility.yul\":8841:8857   */\n  add\n    /* \"#utility.yul\":8834:8857   */\n  swap1\n  pop\n    /* \"#utility.yul\":8905:8909   */\n  0x20\n    /* \"#utility.yul\":8897:8903   */\n  dup5\n    /* \"#utility.yul\":8893:8910   */\n  mul\n    /* \"#utility.yul\":8885:8891   */\n  dup4\n    /* \"#utility.yul\":8881:8911   */\n  add\n    /* \"#utility.yul\":8934:8937   */\n  dup6\n    /* \"#utility.yul\":8926:8932   */\n  dup2\n    /* \"#utility.yul\":8923:8938   */\n  gt\n    /* \"#utility.yul\":8920:9042   */\n  iszero\n  tag_214\n  jumpi\n    /* \"#utility.yul\":8953:9032   */\n  tag_215\n  tag_85\n  jump\t// in\ntag_215:\n    /* \"#utility.yul\":8920:9042   */\ntag_214:\n    /* \"#utility.yul\":9068:9074   */\n  dup4\n    /* \"#utility.yul\":9051:9528   */\ntag_216:\n    /* \"#utility.yul\":9085:9091   */\n  dup2\n    /* \"#utility.yul\":9080:9083   */\n  dup2\n    /* \"#utility.yul\":9077:9092   */\n  lt\n    /* \"#utility.yul\":9051:9528   */\n  iszero\n  tag_218\n  jumpi\n    /* \"#utility.yul\":9167:9170   */\n  dup1\n    /* \"#utility.yul\":9161:9171   */\n  mload\n    /* \"#utility.yul\":9203:9221   */\n  0xffffffffffffffff\n    /* \"#utility.yul\":9190:9201   */\n  dup2\n    /* \"#utility.yul\":9187:9222   */\n  gt\n    /* \"#utility.yul\":9184:9306   */\n  iszero\n  tag_219\n  jumpi\n    /* \"#utility.yul\":9225:9304   */\n  tag_220\n  tag_79\n  jump\t// in\ntag_220:\n    /* \"#utility.yul\":9184:9306   */\ntag_219:\n    /* \"#utility.yul\":9349:9360   */\n  dup1\n    /* \"#utility.yul\":9341:9347   */\n  dup7\n    /* \"#utility.yul\":9337:9361   */\n  add\n    /* \"#utility.yul\":9387:9483   */\n  tag_221\n    /* \"#utility.yul\":9479:9482   */\n  dup10\n    /* \"#utility.yul\":9467:9477   */\n  dup3\n    /* \"#utility.yul\":9387:9483   */\n  tag_100\n  jump\t// in\ntag_221:\n    /* \"#utility.yul\":9382:9385   */\n  dup6\n    /* \"#utility.yul\":9375:9484   */\n  mstore\n    /* \"#utility.yul\":9513:9517   */\n  0x20\n    /* \"#utility.yul\":9508:9511   */\n  dup6\n    /* \"#utility.yul\":9504:9518   */\n  add\n    /* \"#utility.yul\":9497:9518   */\n  swap5\n  pop\n    /* \"#utility.yul\":9127:9528   */\n  pop\n  pop\n    /* \"#utility.yul\":9111:9115   */\n  0x20\n    /* \"#utility.yul\":9106:9109   */\n  dup2\n    /* \"#utility.yul\":9102:9116   */\n  add\n    /* \"#utility.yul\":9095:9116   */\n  swap1\n  pop\n    /* \"#utility.yul\":9051:9528   */\n  jump(tag_216)\ntag_218:\n    /* \"#utility.yul\":9055:9076   */\n  pop\n    /* \"#utility.yul\":8621:9534   */\n  pop\n  pop\n    /* \"#utility.yul\":8460:9534   */\n  swap4\n  swap3\n  pop\n  pop\n  pop\n  jump\t// out\n    /* \"#utility.yul\":9562:10043   */\ntag_102:\n    /* \"#utility.yul\":9692:9697   */\n  0x00\n    /* \"#utility.yul\":9741:9744   */\n  dup3\n    /* \"#utility.yul\":9734:9738   */\n  0x1f\n    /* \"#utility.yul\":9726:9732   */\n  dup4\n    /* \"#utility.yul\":9722:9739   */\n  add\n    /* \"#utility.yul\":9718:9745   */\n  slt\n    /* \"#utility.yul\":9708:9830   */\n  tag_223\n  jumpi\n    /* \"#utility.yul\":9749:9828   */\n  tag_224\n  tag_79\n  jump\t// in\ntag_224:\n    /* \"#utility.yul\":9708:9830   */\ntag_223:\n    /* \"#utility.yul\":9859:9865   */\n  dup2\n    /* \"#utility.yul\":9853:9866   */\n  mload\n    /* \"#utility.yul\":9884:10037   */\n  tag_225\n    /* \"#utility.yul\":10033:10036   */\n  dup5\n    /* \"#utility.yul\":10025:10031   */\n  dup3\n    /* \"#utility.yul\":10018:10022   */\n  0x20\n    /* \"#utility.yul\":10010:10016   */\n  dup7\n    /* \"#utility.yul\":10006:10023   */\n  add\n    /* \"#utility.yul\":9884:10037   */\n  tag_101\n  jump\t// in\ntag_225:\n    /* \"#utility.yul\":9875:10037   */\n  swap2\n  pop\n    /* \"#utility.yul\":9698:10043   */\n  pop\n    /* \"#utility.yul\":9562:10043   */\n  swap3\n  swap2\n  pop\n  pop\n  jump\t// out\n    /* \"#utility.yul\":10049:10126   */\ntag_103:\n    /* \"#utility.yul\":10086:10093   */\n  0x00\n    /* \"#utility.yul\":10115:10120   */\n  dup2\n    /* \"#utility.yul\":10104:10120   */\n  swap1\n  pop\n    /* \"#utility.yul\":10049:10126   */\n  swap2\n  swap1\n  pop\n  jump\t// out\n    /* \"#utility.yul\":10132:10254   */\ntag_104:\n    /* \"#utility.yul\":10205:10229   */\n  tag_228\n    /* \"#utility.yul\":10223:10228   */\n  dup2\n    /* \"#utility.yul\":10205:10229   */\n  tag_103\n  jump\t// in\ntag_228:\n    /* \"#utility.yul\":10198:10203   */\n  dup2\n    /* \"#utility.yul\":10195:10230   */\n  eq\n    /* \"#utility.yul\":10185:10248   */\n  tag_229\n  jumpi\n    /* \"#utility.yul\":10244:10245   */\n  0x00\n    /* \"#utility.yul\":10241:10242   */\n  dup1\n    /* \"#utility.yul\":10234:10246   */\n  revert\n    /* \"#utility.yul\":10185:10248   */\ntag_229:\n    /* \"#utility.yul\":10132:10254   */\n  pop\n  jump\t// out\n    /* \"#utility.yul\":10260:10403   */\ntag_105:\n    /* \"#utility.yul\":10317:10322   */\n  0x00\n    /* \"#utility.yul\":10348:10354   */\n  dup2\n    /* \"#utility.yul\":10342:10355   */\n  mload\n    /* \"#utility.yul\":10333:10355   */\n  swap1\n  pop\n    /* \"#utility.yul\":10364:10397   */\n  tag_231\n    /* \"#utility.yul\":10391:10396   */\n  dup2\n    /* \"#utility.yul\":10364:10397   */\n  tag_104\n  jump\t// in\ntag_231:\n    /* \"#utility.yul\":10260:10403   */\n  swap3\n  swap2\n  pop\n  pop\n  jump\t// out\n    /* \"#utility.yul\":10409:12590   */\ntag_3:\n    /* \"#utility.yul\":10755:10761   */\n  0x00\n    /* \"#utility.yul\":10763:10769   */\n  dup1\n    /* \"#utility.yul\":10771:10777   */\n  0x00\n    /* \"#utility.yul\":10779:10785   */\n  dup1\n    /* \"#utility.yul\":10787:10793   */\n  0x00\n    /* \"#utility.yul\":10795:10801   */\n  dup1\n    /* \"#utility.yul\":10803:10809   */\n  0x00\n    /* \"#utility.yul\":10811:10817   */\n  dup1\n    /* \"#utility.yul\":10860:10863   */\n  0x01c0\n    /* \"#utility.yul\":10848:10857   */\n  dup10\n    /* \"#utility.yul\":10839:10846   */\n  dup12\n    /* \"#utility.yul\":10835:10858   */\n  sub\n    /* \"#utility.yul\":10831:10864   */\n  slt\n    /* \"#utility.yul\":10828:10948   */\n  iszero\n  tag_233\n  jumpi\n    /* \"#utility.yul\":10867:10946   */\n  tag_234\n  tag_73\n  jump\t// in\ntag_234:\n    /* \"#utility.yul\":10828:10948   */\ntag_233:\n    /* \"#utility.yul\":10987:10988   */\n  0x00\n    /* \"#utility.yul\":11012:11076   */\n  tag_235\n    /* \"#utility.yul\":11068:11075   */\n  dup12\n    /* \"#utility.yul\":11059:11065   */\n  dup3\n    /* \"#utility.yul\":11048:11057   */\n  dup13\n    /* \"#utility.yul\":11044:11066   */\n  add\n    /* \"#utility.yul\":11012:11076   */\n  tag_78\n  jump\t// in\ntag_235:\n    /* \"#utility.yul\":11002:11076   */\n  swap9\n  pop\n    /* \"#utility.yul\":10958:11086   */\n  pop\n    /* \"#utility.yul\":11146:11148   */\n  0x20\n    /* \"#utility.yul\":11135:11144   */\n  dup10\n    /* \"#utility.yul\":11131:11149   */\n  add\n    /* \"#utility.yul\":11125:11150   */\n  mload\n    /* \"#utility.yul\":11177:11195   */\n  0xffffffffffffffff\n    /* \"#utility.yul\":11169:11175   */\n  dup2\n    /* \"#utility.yul\":11166:11196   */\n  gt\n    /* \"#utility.yul\":11163:11280   */\n  iszero\n  tag_236\n  jumpi\n    /* \"#utility.yul\":11199:11278   */\n  tag_237\n  tag_74\n  jump\t// in\ntag_237:\n    /* \"#utility.yul\":11163:11280   */\ntag_236:\n    /* \"#utility.yul\":11304:11393   */\n  tag_238\n    /* \"#utility.yul\":11385:11392   */\n  dup12\n    /* \"#utility.yul\":11376:11382   */\n  dup3\n    /* \"#utility.yul\":11365:11374   */\n  dup13\n    /* \"#utility.yul\":11361:11383   */\n  add\n    /* \"#utility.yul\":11304:11393   */\n  tag_90\n  jump\t// in\ntag_238:\n    /* \"#utility.yul\":11294:11393   */\n  swap8\n  pop\n    /* \"#utility.yul\":11096:11403   */\n  pop\n    /* \"#utility.yul\":11442:11444   */\n  0x40\n    /* \"#utility.yul\":11468:11555   */\n  tag_239\n    /* \"#utility.yul\":11547:11554   */\n  dup12\n    /* \"#utility.yul\":11538:11544   */\n  dup3\n    /* \"#utility.yul\":11527:11536   */\n  dup13\n    /* \"#utility.yul\":11523:11545   */\n  add\n    /* \"#utility.yul\":11468:11555   */\n  tag_93\n  jump\t// in\ntag_239:\n    /* \"#utility.yul\":11458:11555   */\n  swap7\n  pop\n    /* \"#utility.yul\":11413:11565   */\n  pop\n    /* \"#utility.yul\":11604:11607   */\n  0x80\n    /* \"#utility.yul\":11631:11741   */\n  tag_240\n    /* \"#utility.yul\":11733:11740   */\n  dup12\n    /* \"#utility.yul\":11724:11730   */\n  dup3\n    /* \"#utility.yul\":11713:11722   */\n  dup13\n    /* \"#utility.yul\":11709:11731   */\n  add\n    /* \"#utility.yul\":11631:11741   */\n  tag_96\n  jump\t// in\ntag_240:\n    /* \"#utility.yul\":11621:11741   */\n  swap6\n  pop\n    /* \"#utility.yul\":11575:11751   */\n  pop\n    /* \"#utility.yul\":11790:11793   */\n  0x0100\n    /* \"#utility.yul\":11817:11904   */\n  tag_241\n    /* \"#utility.yul\":11896:11903   */\n  dup12\n    /* \"#utility.yul\":11887:11893   */\n  dup3\n    /* \"#utility.yul\":11876:11885   */\n  dup13\n    /* \"#utility.yul\":11872:11894   */\n  add\n    /* \"#utility.yul\":11817:11904   */\n  tag_93\n  jump\t// in\ntag_241:\n    /* \"#utility.yul\":11807:11904   */\n  swap5\n  pop\n    /* \"#utility.yul\":11761:11914   */\n  pop\n    /* \"#utility.yul\":11953:11956   */\n  0x0140\n    /* \"#utility.yul\":11980:12067   */\n  tag_242\n    /* \"#utility.yul\":12059:12066   */\n  dup12\n    /* \"#utility.yul\":12050:12056   */\n  dup3\n    /* \"#utility.yul\":12039:12048   */\n  dup13\n    /* \"#utility.yul\":12035:12057   */\n  add\n    /* \"#utility.yul\":11980:12067   */\n  tag_93\n  jump\t// in\ntag_242:\n    /* \"#utility.yul\":11970:12067   */\n  swap4\n  pop\n    /* \"#utility.yul\":11924:12077   */\n  pop\n    /* \"#utility.yul\":12137:12140   */\n  0x0180\n    /* \"#utility.yul\":12126:12135   */\n  dup10\n    /* \"#utility.yul\":12122:12141   */\n  add\n    /* \"#utility.yul\":12116:12142   */\n  mload\n    /* \"#utility.yul\":12169:12187   */\n  0xffffffffffffffff\n    /* \"#utility.yul\":12161:12167   */\n  dup2\n    /* \"#utility.yul\":12158:12188   */\n  gt\n    /* \"#utility.yul\":12155:12272   */\n  iszero\n  tag_243\n  jumpi\n    /* \"#utility.yul\":12191:12270   */\n  tag_244\n  tag_74\n  jump\t// in\ntag_244:\n    /* \"#utility.yul\":12155:12272   */\ntag_243:\n    /* \"#utility.yul\":12296:12433   */\n  tag_245\n    /* \"#utility.yul\":12425:12432   */\n  dup12\n    /* \"#utility.yul\":12416:12422   */\n  dup3\n    /* \"#utility.yul\":12405:12414   */\n  dup13\n    /* \"#utility.yul\":12401:12423   */\n  add\n    /* \"#utility.yul\":12296:12433   */\n  tag_102\n  jump\t// in\ntag_245:\n    /* \"#utility.yul\":12286:12433   */\n  swap3\n  pop\n    /* \"#utility.yul\":12087:12443   */\n  pop\n    /* \"#utility.yul\":12482:12485   */\n  0x01a0\n    /* \"#utility.yul\":12509:12573   */\n  tag_246\n    /* \"#utility.yul\":12565:12572   */\n  dup12\n    /* \"#utility.yul\":12556:12562   */\n  dup3\n    /* \"#utility.yul\":12545:12554   */\n  dup13\n    /* \"#utility.yul\":12541:12563   */\n  add\n    /* \"#utility.yul\":12509:12573   */\n  tag_105\n  jump\t// in\ntag_246:\n    /* \"#utility.yul\":12499:12573   */\n  swap2\n  pop\n    /* \"#utility.yul\":12453:12583   */\n  pop\n    /* \"#utility.yul\":10409:12590   */\n  swap3\n  swap6\n  swap9\n  pop\n  swap3\n  swap6\n  swap9\n  swap1\n  swap4\n  swap7\n  pop\n  jump\t// out\n    /* \"#utility.yul\":12596:12714   */\ntag_106:\n    /* \"#utility.yul\":12683:12707   */\n  tag_248\n    /* \"#utility.yul\":12701:12706   */\n  dup2\n    /* \"#utility.yul\":12683:12707   */\n  tag_76\n  jump\t// in\ntag_248:\n    /* \"#utility.yul\":12678:12681   */\n  dup3\n    /* \"#utility.yul\":12671:12708   */\n  mstore\n    /* \"#utility.yul\":12596:12714   */\n  pop\n  pop\n  jump\t// out\n    /* \"#utility.yul\":12720:12942   */\ntag_11:\n    /* \"#utility.yul\":12813:12817   */\n  0x00\n    /* \"#utility.yul\":12851:12853   */\n  0x20\n    /* \"#utility.yul\":12840:12849   */\n  dup3\n    /* \"#utility.yul\":12836:12854   */\n  add\n    /* \"#utility.yul\":12828:12854   */\n  swap1\n  pop\n    /* \"#utility.yul\":12864:12935   */\n  tag_250\n    /* \"#utility.yul\":12932:12933   */\n  0x00\n    /* \"#utility.yul\":12921:12930   */\n  dup4\n    /* \"#utility.yul\":12917:12934   */\n  add\n    /* \"#utility.yul\":12908:12914   */\n  dup5\n    /* \"#utility.yul\":12864:12935   */\n  tag_106\n  jump\t// in\ntag_250:\n    /* \"#utility.yul\":12720:12942   */\n  swap3\n  swap2\n  pop\n  pop\n  jump\t// out\n    /* \"#utility.yul\":12948:13117   */\ntag_107:\n    /* \"#utility.yul\":13032:13043   */\n  0x00\n    /* \"#utility.yul\":13066:13072   */\n  dup3\n    /* \"#utility.yul\":13061:13064   */\n  dup3\n    /* \"#utility.yul\":13054:13073   */\n  mstore\n    /* \"#utility.yul\":13106:13110   */\n  0x20\n    /* \"#utility.yul\":13101:13104   */\n  dup3\n    /* \"#utility.yul\":13097:13111   */\n  add\n    /* \"#utility.yul\":13082:13111   */\n  swap1\n  pop\n    /* \"#utility.yul\":12948:13117   */\n  swap3\n  swap2\n  pop\n  pop\n  jump\t// out\n    /* \"#utility.yul\":13123:13294   */\ntag_108:\n    /* \"#utility.yul\":13263:13286   */\n  0x496e76616c696420696e707574206c656e677468730000000000000000000000\n    /* \"#utility.yul\":13259:13260   */\n  0x00\n    /* \"#utility.yul\":13251:13257   */\n  dup3\n    /* \"#utility.yul\":13247:13261   */\n  add\n    /* \"#utility.yul\":13240:13287   */\n  mstore\n    /* \"#utility.yul\":13123:13294   */\n  pop\n  jump\t// out\n    /* \"#utility.yul\":13300:13666   */\ntag_109:\n    /* \"#utility.yul\":13442:13445   */\n  0x00\n    /* \"#utility.yul\":13463:13530   */\n  tag_254\n    /* \"#utility.yul\":13527:13529   */\n  0x15\n    /* \"#utility.yul\":13522:13525   */\n  dup4\n    /* \"#utility.yul\":13463:13530   */\n  tag_107\n  jump\t// in\ntag_254:\n    /* \"#utility.yul\":13456:13530   */\n  swap2\n  pop\n    /* \"#utility.yul\":13539:13632   */\n  tag_255\n    /* \"#utility.yul\":13628:13631   */\n  dup3\n    /* \"#utility.yul\":13539:13632   */\n  tag_108\n  jump\t// in\ntag_255:\n    /* \"#utility.yul\":13657:13659   */\n  0x20\n    /* \"#utility.yul\":13652:13655   */\n  dup3\n    /* \"#utility.yul\":13648:13660   */\n  add\n    /* \"#utility.yul\":13641:13660   */\n  swap1\n  pop\n    /* \"#utility.yul\":13300:13666   */\n  swap2\n  swap1\n  pop\n  jump\t// out\n    /* \"#utility.yul\":13672:14091   */\ntag_19:\n    /* \"#utility.yul\":13838:13842   */\n  0x00\n    /* \"#utility.yul\":13876:13878   */\n  0x20\n    /* \"#utility.yul\":13865:13874   */\n  dup3\n    /* \"#utility.yul\":13861:13879   */\n  add\n    /* \"#utility.yul\":13853:13879   */\n  swap1\n  pop\n    /* \"#utility.yul\":13925:13934   */\n  dup2\n    /* \"#utility.yul\":13919:13923   */\n  dup2\n    /* \"#utility.yul\":13915:13935   */\n  sub\n    /* \"#utility.yul\":13911:13912   */\n  0x00\n    /* \"#utility.yul\":13900:13909   */\n  dup4\n    /* \"#utility.yul\":13896:13913   */\n  add\n    /* \"#utility.yul\":13889:13936   */\n  mstore\n    /* \"#utility.yul\":13953:14084   */\n  tag_257\n    /* \"#utility.yul\":14079:14083   */\n  dup2\n    /* \"#utility.yul\":13953:14084   */\n  tag_109\n  jump\t// in\ntag_257:\n    /* \"#utility.yul\":13945:14084   */\n  swap1\n  pop\n    /* \"#utility.yul\":13672:14091   */\n  swap2\n  swap1\n  pop\n  jump\t// out\n    /* \"#utility.yul\":14097:14277   */\ntag_32:\n    /* \"#utility.yul\":14145:14222   */\n  0x4e487b7100000000000000000000000000000000000000000000000000000000\n    /* \"#utility.yul\":14142:14143   */\n  0x00\n    /* \"#utility.yul\":14135:14223   */\n  mstore\n    /* \"#utility.yul\":14242:14246   */\n  0x32\n    /* \"#utility.yul\":14239:14240   */\n  0x04\n    /* \"#utility.yul\":14232:14247   */\n  mstore\n    /* \"#utility.yul\":14266:14270   */\n  0x24\n    /* \"#utility.yul\":14263:14264   */\n  0x00\n    /* \"#utility.yul\":14256:14271   */\n  revert\n    /* \"#utility.yul\":14283:14452   */\ntag_110:\n    /* \"#utility.yul\":14423:14444   */\n  0x44656e6f6d696e6174696f6e2065786973747300000000000000000000000000\n    /* \"#utility.yul\":14419:14420   */\n  0x00\n    /* \"#utility.yul\":14411:14417   */\n  dup3\n    /* \"#utility.yul\":14407:14421   */\n  add\n    /* \"#utility.yul\":14400:14445   */\n  mstore\n    /* \"#utility.yul\":14283:14452   */\n  pop\n  jump\t// out\n    /* \"#utility.yul\":14458:14824   */\ntag_111:\n    /* \"#utility.yul\":14600:14603   */\n  0x00\n    /* \"#utility.yul\":14621:14688   */\n  tag_261\n    /* \"#utility.yul\":14685:14687   */\n  0x13\n    /* \"#utility.yul\":14680:14683   */\n  dup4\n    /* \"#utility.yul\":14621:14688   */\n  tag_107\n  jump\t// in\ntag_261:\n    /* \"#utility.yul\":14614:14688   */\n  swap2\n  pop\n    /* \"#utility.yul\":14697:14790   */\n  tag_262\n    /* \"#utility.yul\":14786:14789   */\n  dup3\n    /* \"#utility.yul\":14697:14790   */\n  tag_110\n  jump\t// in\ntag_262:\n    /* \"#utility.yul\":14815:14817   */\n  0x20\n    /* \"#utility.yul\":14810:14813   */\n  dup3\n    /* \"#utility.yul\":14806:14818   */\n  add\n    /* \"#utility.yul\":14799:14818   */\n  swap1\n  pop\n    /* \"#utility.yul\":14458:14824   */\n  swap2\n  swap1\n  pop\n  jump\t// out\n    /* \"#utility.yul\":14830:15249   */\ntag_41:\n    /* \"#utility.yul\":14996:15000   */\n  0x00\n    /* \"#utility.yul\":15034:15036   */\n  0x20\n    /* \"#utility.yul\":15023:15032   */\n  dup3\n    /* \"#utility.yul\":15019:15037   */\n  add\n    /* \"#utility.yul\":15011:15037   */\n  swap1\n  pop\n    /* \"#utility.yul\":15083:15092   */\n  dup2\n    /* \"#utility.yul\":15077:15081   */\n  dup2\n    /* \"#utility.yul\":15073:15093   */\n  sub\n    /* \"#utility.yul\":15069:15070   */\n  0x00\n    /* \"#utility.yul\":15058:15067   */\n  dup4\n    /* \"#utility.yul\":15054:15071   */\n  add\n    /* \"#utility.yul\":15047:15094   */\n  mstore\n    /* \"#utility.yul\":15111:15242   */\n  tag_264\n    /* \"#utility.yul\":15237:15241   */\n  dup2\n    /* \"#utility.yul\":15111:15242   */\n  tag_111\n  jump\t// in\ntag_264:\n    /* \"#utility.yul\":15103:15242   */\n  swap1\n  pop\n    /* \"#utility.yul\":14830:15249   */\n  swap2\n  swap1\n  pop\n  jump\t// out\n    /* \"#utility.yul\":15255:15419   */\ntag_112:\n    /* \"#utility.yul\":15395:15411   */\n  0x456d707479204943206172726179000000000000000000000000000000000000\n    /* \"#utility.yul\":15391:15392   */\n  0x00\n    /* \"#utility.yul\":15383:15389   */\n  dup3\n    /* \"#utility.yul\":15379:15393   */\n  add\n    /* \"#utility.yul\":15372:15412   */\n  mstore\n    /* \"#utility.yul\":15255:15419   */\n  pop\n  jump\t// out\n    /* \"#utility.yul\":15425:15791   */\ntag_113:\n    /* \"#utility.yul\":15567:15570   */\n  0x00\n    /* \"#utility.yul\":15588:15655   */\n  tag_267\n    /* \"#utility.yul\":15652:15654   */\n  0x0e\n    /* \"#utility.yul\":15647:15650   */\n  dup4\n    /* \"#utility.yul\":15588:15655   */\n  tag_107\n  jump\t// in\ntag_267:\n    /* \"#utility.yul\":15581:15655   */\n  swap2\n  pop\n    /* \"#utility.yul\":15664:15757   */\n  tag_268\n    /* \"#utility.yul\":15753:15756   */\n  dup3\n    /* \"#utility.yul\":15664:15757   */\n  tag_112\n  jump\t// in\ntag_268:\n    /* \"#utility.yul\":15782:15784   */\n  0x20\n    /* \"#utility.yul\":15777:15780   */\n  dup3\n    /* \"#utility.yul\":15773:15785   */\n  add\n    /* \"#utility.yul\":15766:15785   */\n  swap1\n  pop\n    /* \"#utility.yul\":15425:15791   */\n  swap2\n  swap1\n  pop\n  jump\t// out\n    /* \"#utility.yul\":15797:16216   */\ntag_44:\n    /* \"#utility.yul\":15963:15967   */\n  0x00\n    /* \"#utility.yul\":16001:16003   */\n  0x20\n    /* \"#utility.yul\":15990:15999   */\n  dup3\n    /* \"#utility.yul\":15986:16004   */\n  add\n    /* \"#utility.yul\":15978:16004   */\n  swap1\n  pop\n    /* \"#utility.yul\":16050:16059   */\n  dup2\n    /* \"#utility.yul\":16044:16048   */\n  dup2\n    /* \"#utility.yul\":16040:16060   */\n  sub\n    /* \"#utility.yul\":16036:16037   */\n  0x00\n    /* \"#utility.yul\":16025:16034   */\n  dup4\n    /* \"#utility.yul\":16021:16038   */\n  add\n    /* \"#utility.yul\":16014:16061   */\n  mstore\n    /* \"#utility.yul\":16078:16209   */\n  tag_270\n    /* \"#utility.yul\":16204:16208   */\n  dup2\n    /* \"#utility.yul\":16078:16209   */\n  tag_113\n  jump\t// in\ntag_270:\n    /* \"#utility.yul\":16070:16209   */\n  swap1\n  pop\n    /* \"#utility.yul\":15797:16216   */\n  swap2\n  swap1\n  pop\n  jump\t// out\n    /* \"#utility.yul\":16222:16340   */\ntag_114:\n    /* \"#utility.yul\":16309:16333   */\n  tag_272\n    /* \"#utility.yul\":16327:16332   */\n  dup2\n    /* \"#utility.yul\":16309:16333   */\n  tag_86\n  jump\t// in\ntag_272:\n    /* \"#utility.yul\":16304:16307   */\n  dup3\n    /* \"#utility.yul\":16297:16334   */\n  mstore\n    /* \"#utility.yul\":16222:16340   */\n  pop\n  pop\n  jump\t// out\n    /* \"#utility.yul\":16346:16568   */\ntag_54:\n    /* \"#utility.yul\":16439:16443   */\n  0x00\n    /* \"#utility.yul\":16477:16479   */\n  0x20\n    /* \"#utility.yul\":16466:16475   */\n  dup3\n    /* \"#utility.yul\":16462:16480   */\n  add\n    /* \"#utility.yul\":16454:16480   */\n  swap1\n  pop\n    /* \"#utility.yul\":16490:16561   */\n  tag_274\n    /* \"#utility.yul\":16558:16559   */\n  0x00\n    /* \"#utility.yul\":16547:16556   */\n  dup4\n    /* \"#utility.yul\":16543:16560   */\n  add\n    /* \"#utility.yul\":16534:16540   */\n  dup5\n    /* \"#utility.yul\":16490:16561   */\n  tag_114\n  jump\t// in\ntag_274:\n    /* \"#utility.yul\":16346:16568   */\n  swap3\n  swap2\n  pop\n  pop\n  jump\t// out\n    /* \"privacy/mixer/MixerVerifier.sol\":271:8631  contract MixerVerifier is IMixerVerifier, Ownable, ReentrancyGuard, Pausable {... */\ntag_36:\n  mload(0x80)\n  codecopy(0x00, dataOffset(sub_0), dataSize(sub_0))\n  0x00\n  assignImmutable(\"0x59ec111d9d8ceec2ab223a1d5004f35d19292b31c8f02c623d83a90888216dda\")\n  return(0x00, dataSize(sub_0))\nstop\n\nsub_0: assembly {\n        /* \"privacy/mixer/MixerVerifier.sol\":271:8631  contract MixerVerifier is IMixerVerifier, Ownable, ReentrancyGuard, Pausable {... */\n      mstore(0x40, 0x80)\n      callvalue\n      dup1\n      iszero\n      tag_1\n      jumpi\n      0x00\n      dup1\n      revert\n    tag_1:\n      pop\n      jumpi(tag_2, lt(calldatasize, 0x04))\n      shr(0xe0, calldataload(0x00))\n      dup1\n      0x715018a6\n      gt\n      tag_24\n      jumpi\n      dup1\n      0xc66cd380\n      gt\n      tag_25\n      jumpi\n      dup1\n      0xc66cd380\n      eq\n      tag_18\n      jumpi\n      dup1\n      0xd77d63ed\n      eq\n      tag_19\n      jumpi\n      dup1\n      0xdc8fe0bd\n      eq\n      tag_20\n      jumpi\n      dup1\n      0xe70a7450\n      eq\n      tag_21\n      jumpi\n      dup1\n      0xf2fde38b\n      eq\n      tag_22\n      jumpi\n      dup1\n      0xf3ce61ad\n      eq\n      tag_23\n      jumpi\n      jump(tag_2)\n    tag_25:\n      dup1\n      0x715018a6\n      eq\n      tag_13\n      jumpi\n      dup1\n      0x87511997\n      eq\n      tag_14\n      jumpi\n      dup1\n      0x8da5cb5b\n      eq\n      tag_15\n      jumpi\n      dup1\n      0x96e106eb\n      eq\n      tag_16\n      jumpi\n      dup1\n      0xb208eae8\n      eq\n      tag_17\n      jumpi\n      jump(tag_2)\n    tag_24:\n      dup1\n      0x414a37ba\n      gt\n      tag_26\n      jumpi\n      dup1\n      0x414a37ba\n      eq\n      tag_8\n      jumpi\n      dup1\n      0x442f2da6\n      eq\n      tag_9\n      jumpi\n      dup1\n      0x56de61b5\n      eq\n      tag_10\n      jumpi\n      dup1\n      0x594eac4a\n      eq\n      tag_11\n      jumpi\n      dup1\n      0x5c975abb\n      eq\n      tag_12\n      jumpi\n      jump(tag_2)\n    tag_26:\n      dup1\n      0x15bf02e5\n      eq\n      tag_3\n      jumpi\n      dup1\n      0x176d80c4\n      eq\n      tag_4\n      jumpi\n      dup1\n      0x1b81f829\n      eq\n      tag_5\n      jumpi\n      dup1\n      0x2d0a90f5\n      eq\n      tag_6\n      jumpi\n      dup1\n      0x31437a5d\n      eq\n      tag_7\n      jumpi\n    tag_2:\n      0x00\n      dup1\n      revert\n        /* \"privacy/mixer/MixerVerifier.sol\":811:850  uint256 public constant MAX_INPUTS = 10 */\n    tag_3:\n      tag_27\n      tag_28\n      jump\t// in\n    tag_27:\n      mload(0x40)\n      tag_29\n      swap2\n      swap1\n      tag_30\n      jump\t// in\n    tag_29:\n      mload(0x40)\n      dup1\n      swap2\n      sub\n      swap1\n      return\n        /* \"privacy/mixer/MixerVerifier.sol\":658:704  mapping(bytes32 => bool) public verifiedProofs */\n    tag_4:\n      tag_31\n      0x04\n      dup1\n      calldatasize\n      sub\n      dup2\n      add\n      swap1\n      tag_32\n      swap2\n      swap1\n      tag_33\n      jump\t// in\n    tag_32:\n      tag_34\n      jump\t// in\n    tag_31:\n      mload(0x40)\n      tag_35\n      swap2\n      swap1\n      tag_36\n      jump\t// in\n    tag_35:\n      mload(0x40)\n      dup1\n      swap2\n      sub\n      swap1\n      return\n        /* \"privacy/mixer/MixerVerifier.sol\":2005:2584  function verifyProof(... */\n    tag_5:\n      tag_37\n      0x04\n      dup1\n      calldatasize\n      sub\n      dup2\n      add\n      swap1\n      tag_38\n      swap2\n      swap1\n      tag_39\n      jump\t// in\n    tag_38:\n      tag_40\n      jump\t// in\n    tag_37:\n      mload(0x40)\n      tag_41\n      swap2\n      swap1\n      tag_36\n      jump\t// in\n    tag_41:\n      mload(0x40)\n      dup1\n      swap2\n      sub\n      swap1\n      return\n        /* \"privacy/mixer/MixerVerifier.sol\":439:463  uint256[2] public gamma2 */\n    tag_6:\n      tag_42\n      0x04\n      dup1\n      calldatasize\n      sub\n      dup2\n      add\n      swap1\n      tag_43\n      swap2\n      swap1\n      tag_44\n      jump\t// in\n    tag_43:\n      tag_45\n      jump\t// in\n    tag_42:\n      mload(0x40)\n      tag_46\n      swap2\n      swap1\n      tag_30\n      jump\t// in\n    tag_46:\n      mload(0x40)\n      dup1\n      swap2\n      sub\n      swap1\n      return\n        /* \"privacy/mixer/MixerVerifier.sol\":7080:7688  function removeDenomination(uint256 denomination) external onlyOwner {... */\n    tag_7:\n      tag_47\n      0x04\n      dup1\n      calldatasize\n      sub\n      dup2\n      add\n      swap1\n      tag_48\n      swap2\n      swap1\n      tag_44\n      jump\t// in\n    tag_48:\n      tag_49\n      jump\t// in\n    tag_47:\n      stop\n        /* \"privacy/mixer/MixerVerifier.sol\":856:970  uint256 public constant FIELD_SIZE = 21888242871839275222246405745257275088548364400416034343698204186575808495617 */\n    tag_8:\n      tag_50\n      tag_51\n      jump\t// in\n    tag_50:\n      mload(0x40)\n      tag_52\n      swap2\n      swap1\n      tag_30\n      jump\t// in\n    tag_52:\n      mload(0x40)\n      dup1\n      swap2\n      sub\n      swap1\n      return\n        /* \"privacy/mixer/MixerVerifier.sol\":499:556  mapping(uint256 => uint256[2][]) public inputCoefficients */\n    tag_9:\n      tag_53\n      0x04\n      dup1\n      calldatasize\n      sub\n      dup2\n      add\n      swap1\n      tag_54\n      swap2\n      swap1\n      tag_55\n      jump\t// in\n    tag_54:\n      tag_56\n      jump\t// in\n    tag_53:\n      mload(0x40)\n      tag_57\n      swap2\n      swap1\n      tag_30\n      jump\t// in\n    tag_57:\n      mload(0x40)\n      dup1\n      swap2\n      sub\n      swap1\n      return\n        /* \"privacy/mixer/MixerVerifier.sol\":3232:3903  function verifyWithdrawalProof(... */\n    tag_10:\n      tag_58\n      0x04\n      dup1\n      calldatasize\n      sub\n      dup2\n      add\n      swap1\n      tag_59\n      swap2\n      swap1\n      tag_60\n      jump\t// in\n    tag_59:\n      tag_61\n      jump\t// in\n    tag_58:\n      mload(0x40)\n      tag_62\n      swap2\n      swap1\n      tag_36\n      jump\t// in\n    tag_62:\n      mload(0x40)\n      dup1\n      swap2\n      sub\n      swap1\n      return\n        /* \"privacy/mixer/MixerVerifier.sol\":407:433  uint256[2][2] public beta2 */\n    tag_11:\n      tag_63\n      0x04\n      dup1\n      calldatasize\n      sub\n      dup2\n      add\n      swap1\n      tag_64\n      swap2\n      swap1\n      tag_65\n      jump\t// in\n    tag_64:\n      tag_66\n      jump\t// in\n    tag_63:\n      mload(0x40)\n      tag_67\n      swap2\n      swap1\n      tag_30\n      jump\t// in\n    tag_67:\n      mload(0x40)\n      dup1\n      swap2\n      sub\n      swap1\n      return\n        /* \"@openzeppelin/contracts/utils/Pausable.sol\":1850:1934  function paused() public view virtual returns (bool) {... */\n    tag_12:\n      tag_68\n      tag_69\n      jump\t// in\n    tag_68:\n      mload(0x40)\n      tag_70\n      swap2\n      swap1\n      tag_36\n      jump\t// in\n    tag_70:\n      mload(0x40)\n      dup1\n      swap2\n      sub\n      swap1\n      return\n        /* \"@openzeppelin/contracts/access/Ownable.sol\":2293:2394  function renounceOwnership() public virtual onlyOwner {... */\n    tag_13:\n      tag_71\n      tag_72\n      jump\t// in\n    tag_71:\n      stop\n        /* \"privacy/mixer/MixerVerifier.sol\":976:1019  bytes32 public immutable verifierIdentifier */\n    tag_14:\n      tag_73\n      tag_74\n      jump\t// in\n    tag_73:\n      mload(0x40)\n      tag_75\n      swap2\n      swap1\n      tag_76\n      jump\t// in\n    tag_75:\n      mload(0x40)\n      dup1\n      swap2\n      sub\n      swap1\n      return\n        /* \"@openzeppelin/contracts/access/Ownable.sol\":1638:1723  function owner() public view virtual returns (address) {... */\n    tag_15:\n      tag_77\n      tag_78\n      jump\t// in\n    tag_77:\n      mload(0x40)\n      tag_79\n      swap2\n      swap1\n      tag_80\n      jump\t// in\n    tag_79:\n      mload(0x40)\n      dup1\n      swap2\n      sub\n      swap1\n      return\n        /* \"privacy/mixer/MixerVerifier.sol\":6909:7074  function addDenomination(... */\n    tag_16:\n      tag_81\n      0x04\n      dup1\n      calldatasize\n      sub\n      dup2\n      add\n      swap1\n      tag_82\n      swap2\n      swap1\n      tag_83\n      jump\t// in\n    tag_82:\n      tag_84\n      jump\t// in\n    tag_81:\n      stop\n        /* \"privacy/mixer/MixerVerifier.sol\":2590:2698  function getVerifierID() external view override returns (bytes32) {... */\n    tag_17:\n      tag_85\n      tag_86\n      jump\t// in\n    tag_85:\n      mload(0x40)\n      tag_87\n      swap2\n      swap1\n      tag_76\n      jump\t// in\n    tag_87:\n      mload(0x40)\n      dup1\n      swap2\n      sub\n      swap1\n      return\n        /* \"privacy/mixer/MixerVerifier.sol\":469:493  uint256[2] public delta2 */\n    tag_18:\n      tag_88\n      0x04\n      dup1\n      calldatasize\n      sub\n      dup2\n      add\n      swap1\n      tag_89\n      swap2\n      swap1\n      tag_44\n      jump\t// in\n    tag_89:\n      tag_90\n      jump\t// in\n    tag_88:\n      mload(0x40)\n      tag_91\n      swap2\n      swap1\n      tag_30\n      jump\t// in\n    tag_91:\n      mload(0x40)\n      dup1\n      swap2\n      sub\n      swap1\n      return\n        /* \"privacy/mixer/MixerVerifier.sol\":710:764  mapping(uint256 => bool) public supportedDenominations */\n    tag_19:\n      tag_92\n      0x04\n      dup1\n      calldatasize\n      sub\n      dup2\n      add\n      swap1\n      tag_93\n      swap2\n      swap1\n      tag_44\n      jump\t// in\n    tag_93:\n      tag_94\n      jump\t// in\n    tag_92:\n      mload(0x40)\n      tag_95\n      swap2\n      swap1\n      tag_36\n      jump\t// in\n    tag_95:\n      mload(0x40)\n      dup1\n      swap2\n      sub\n      swap1\n      return\n        /* \"privacy/mixer/MixerVerifier.sol\":377:401  uint256[2] public alpha1 */\n    tag_20:\n      tag_96\n      0x04\n      dup1\n      calldatasize\n      sub\n      dup2\n      add\n      swap1\n      tag_97\n      swap2\n      swap1\n      tag_44\n      jump\t// in\n    tag_97:\n      tag_98\n      jump\t// in\n    tag_96:\n      mload(0x40)\n      tag_99\n      swap2\n      swap1\n      tag_30\n      jump\t// in\n    tag_99:\n      mload(0x40)\n      dup1\n      swap2\n      sub\n      swap1\n      return\n        /* \"privacy/mixer/MixerVerifier.sol\":2704:3226  function verifyDepositProof(... */\n    tag_21:\n      tag_100\n      0x04\n      dup1\n      calldatasize\n      sub\n      dup2\n      add\n      swap1\n      tag_101\n      swap2\n      swap1\n      tag_60\n      jump\t// in\n    tag_101:\n      tag_102\n      jump\t// in\n    tag_100:\n      mload(0x40)\n      tag_103\n      swap2\n      swap1\n      tag_36\n      jump\t// in\n    tag_103:\n      mload(0x40)\n      dup1\n      swap2\n      sub\n      swap1\n      return\n        /* \"@openzeppelin/contracts/access/Ownable.sol\":2543:2758  function transferOwnership(address newOwner) public virtual onlyOwner {... */\n    tag_22:\n      tag_104\n      0x04\n      dup1\n      calldatasize\n      sub\n      dup2\n      add\n      swap1\n      tag_105\n      swap2\n      swap1\n      tag_106\n      jump\t// in\n    tag_105:\n      tag_107\n      jump\t// in\n    tag_104:\n      stop\n        /* \"privacy/mixer/MixerVerifier.sol\":770:800  uint256[] public denominations */\n    tag_23:\n      tag_108\n      0x04\n      dup1\n      calldatasize\n      sub\n      dup2\n      add\n      swap1\n      tag_109\n      swap2\n      swap1\n      tag_44\n      jump\t// in\n    tag_109:\n      tag_110\n      jump\t// in\n    tag_108:\n      mload(0x40)\n      tag_111\n      swap2\n      swap1\n      tag_30\n      jump\t// in\n    tag_111:\n      mload(0x40)\n      dup1\n      swap2\n      sub\n      swap1\n      return\n        /* \"privacy/mixer/MixerVerifier.sol\":811:850  uint256 public constant MAX_INPUTS = 10 */\n    tag_28:\n        /* \"privacy/mixer/MixerVerifier.sol\":848:850  10 */\n      0x0a\n        /* \"privacy/mixer/MixerVerifier.sol\":811:850  uint256 public constant MAX_INPUTS = 10 */\n      dup2\n      jump\t// out\n        /* \"privacy/mixer/MixerVerifier.sol\":658:704  mapping(bytes32 => bool) public verifiedProofs */\n    tag_34:\n      mstore(0x20, 0x0e)\n      dup1\n      0x00\n      mstore\n      keccak256(0x00, 0x40)\n      0x00\n      swap2\n      pop\n      sload\n      swap1\n      0x0100\n      exp\n      swap1\n      div\n      0xff\n      and\n      dup2\n      jump\t// out\n        /* \"privacy/mixer/MixerVerifier.sol\":2005:2584  function verifyProof(... */\n    tag_40:\n        /* \"privacy/mixer/MixerVerifier.sol\":2137:2141  bool */\n      0x00\n        /* \"@openzeppelin/contracts/utils/Pausable.sol\":1474:1493  _requireNotPaused() */\n      tag_113\n        /* \"@openzeppelin/contracts/utils/Pausable.sol\":1474:1491  _requireNotPaused */\n      tag_114\n        /* \"@openzeppelin/contracts/utils/Pausable.sol\":1474:1493  _requireNotPaused() */\n      jump\t// in\n    tag_113:\n        /* \"privacy/mixer/MixerVerifier.sol\":2188:2215  uint256[] memory inputArray */\n      0x00\n        /* \"privacy/mixer/MixerVerifier.sol\":2232:2233  1 */\n      0x01\n        /* \"privacy/mixer/MixerVerifier.sol\":2218:2234  new uint256[](1) */\n      0xffffffffffffffff\n      dup2\n      gt\n      iszero\n      tag_116\n      jumpi\n      tag_117\n      tag_118\n      jump\t// in\n    tag_117:\n    tag_116:\n      mload(0x40)\n      swap1\n      dup1\n      dup3\n      mstore\n      dup1\n      0x20\n      mul\n      0x20\n      add\n      dup3\n      add\n      0x40\n      mstore\n      dup1\n      iszero\n      tag_119\n      jumpi\n      dup2\n      0x20\n      add\n      0x20\n      dup3\n      mul\n      dup1\n      calldatasize\n      dup4\n      calldatacopy\n      dup1\n      dup3\n      add\n      swap2\n      pop\n      pop\n      swap1\n      pop\n    tag_119:\n      pop\n        /* \"privacy/mixer/MixerVerifier.sol\":2188:2234  uint256[] memory inputArray = new uint256[](1) */\n      swap1\n      pop\n        /* \"privacy/mixer/MixerVerifier.sol\":2256:2262  inputs */\n      dup3\n        /* \"privacy/mixer/MixerVerifier.sol\":2263:2264  0 */\n      0x00\n        /* \"privacy/mixer/MixerVerifier.sol\":2256:2265  inputs[0] */\n      0x01\n      dup2\n      lt\n      tag_120\n      jumpi\n      tag_121\n      tag_122\n      jump\t// in\n    tag_121:\n    tag_120:\n      0x20\n      mul\n      add\n      calldataload\n        /* \"privacy/mixer/MixerVerifier.sol\":2240:2250  inputArray */\n      dup2\n        /* \"privacy/mixer/MixerVerifier.sol\":2251:2252  0 */\n      0x00\n        /* \"privacy/mixer/MixerVerifier.sol\":2240:2253  inputArray[0] */\n      dup2\n      mload\n      dup2\n      lt\n      tag_123\n      jumpi\n      tag_124\n      tag_122\n      jump\t// in\n    tag_124:\n    tag_123:\n      0x20\n      mul\n      0x20\n      add\n      add\n        /* \"privacy/mixer/MixerVerifier.sol\":2240:2265  inputArray[0] = inputs[0] */\n      dup2\n      dup2\n      mstore\n      pop\n      pop\n        /* \"privacy/mixer/MixerVerifier.sol\":2272:2295  Proof memory grothProof */\n      0x00\n        /* \"privacy/mixer/MixerVerifier.sol\":2298:2434  Proof({... */\n      mload(0x40)\n      dup1\n      0x60\n      add\n      0x40\n      mstore\n      dup1\n      mload(0x40)\n      dup1\n      0x40\n      add\n      0x40\n      mstore\n      dup1\n        /* \"privacy/mixer/MixerVerifier.sol\":2318:2323  proof */\n      dup9\n        /* \"privacy/mixer/MixerVerifier.sol\":2324:2325  0 */\n      0x00\n        /* \"privacy/mixer/MixerVerifier.sol\":2318:2326  proof[0] */\n      0x08\n      dup2\n      lt\n      tag_125\n      jumpi\n      tag_126\n      tag_122\n      jump\t// in\n    tag_126:\n    tag_125:\n      0x20\n      mul\n      add\n      calldataload\n        /* \"privacy/mixer/MixerVerifier.sol\":2298:2434  Proof({... */\n      dup2\n      mstore\n      0x20\n      add\n        /* \"privacy/mixer/MixerVerifier.sol\":2328:2333  proof */\n      dup9\n        /* \"privacy/mixer/MixerVerifier.sol\":2334:2335  1 */\n      0x01\n        /* \"privacy/mixer/MixerVerifier.sol\":2328:2336  proof[1] */\n      0x08\n      dup2\n      lt\n      tag_127\n      jumpi\n      tag_128\n      tag_122\n      jump\t// in\n    tag_128:\n    tag_127:\n      0x20\n      mul\n      add\n      calldataload\n        /* \"privacy/mixer/MixerVerifier.sol\":2298:2434  Proof({... */\n      dup2\n      mstore\n      pop\n      dup2\n      mstore\n      0x20\n      add\n      mload(0x40)\n      dup1\n      0x40\n      add\n      0x40\n      mstore\n      dup1\n      mload(0x40)\n      dup1\n      0x40\n      add\n      0x40\n      mstore\n      dup1\n        /* \"privacy/mixer/MixerVerifier.sol\":2352:2357  proof */\n      dup11\n        /* \"privacy/mixer/MixerVerifier.sol\":2358:2359  2 */\n      0x02\n        /* \"privacy/mixer/MixerVerifier.sol\":2352:2360  proof[2] */\n      0x08\n      dup2\n      lt\n      tag_129\n      jumpi\n      tag_130\n      tag_122\n      jump\t// in\n    tag_130:\n    tag_129:\n      0x20\n      mul\n      add\n      calldataload\n        /* \"privacy/mixer/MixerVerifier.sol\":2298:2434  Proof({... */\n      dup2\n      mstore\n      0x20\n      add\n        /* \"privacy/mixer/MixerVerifier.sol\":2362:2367  proof */\n      dup11\n        /* \"privacy/mixer/MixerVerifier.sol\":2368:2369  3 */\n      0x03\n        /* \"privacy/mixer/MixerVerifier.sol\":2362:2370  proof[3] */\n      0x08\n      dup2\n      lt\n      tag_131\n      jumpi\n      tag_132\n      tag_122\n      jump\t// in\n    tag_132:\n    tag_131:\n      0x20\n      mul\n      add\n      calldataload\n        /* \"privacy/mixer/MixerVerifier.sol\":2298:2434  Proof({... */\n      dup2\n      mstore\n      pop\n      dup2\n      mstore\n      0x20\n      add\n      mload(0x40)\n      dup1\n      0x40\n      add\n      0x40\n      mstore\n      dup1\n        /* \"privacy/mixer/MixerVerifier.sol\":2374:2379  proof */\n      dup11\n        /* \"privacy/mixer/MixerVerifier.sol\":2380:2381  4 */\n      0x04\n        /* \"privacy/mixer/MixerVerifier.sol\":2374:2382  proof[4] */\n      0x08\n      dup2\n      lt\n      tag_133\n      jumpi\n      tag_134\n      tag_122\n      jump\t// in\n    tag_134:\n    tag_133:\n      0x20\n      mul\n      add\n      calldataload\n        /* \"privacy/mixer/MixerVerifier.sol\":2298:2434  Proof({... */\n      dup2\n      mstore\n      0x20\n      add\n        /* \"privacy/mixer/MixerVerifier.sol\":2384:2389  proof */\n      dup11\n        /* \"privacy/mixer/MixerVerifier.sol\":2390:2391  5 */\n      0x05\n        /* \"privacy/mixer/MixerVerifier.sol\":2384:2392  proof[5] */\n      0x08\n      dup2\n      lt\n      tag_135\n      jumpi\n      tag_136\n      tag_122\n      jump\t// in\n    tag_136:\n    tag_135:\n      0x20\n      mul\n      add\n      calldataload\n        /* \"privacy/mixer/MixerVerifier.sol\":2298:2434  Proof({... */\n      dup2\n      mstore\n      pop\n      dup2\n      mstore\n      pop\n      dup2\n      mstore\n      0x20\n      add\n      mload(0x40)\n      dup1\n      0x40\n      add\n      0x40\n      mstore\n      dup1\n        /* \"privacy/mixer/MixerVerifier.sol\":2408:2413  proof */\n      dup9\n        /* \"privacy/mixer/MixerVerifier.sol\":2414:2415  6 */\n      0x06\n        /* \"privacy/mixer/MixerVerifier.sol\":2408:2416  proof[6] */\n      0x08\n      dup2\n      lt\n      tag_137\n      jumpi\n      tag_138\n      tag_122\n      jump\t// in\n    tag_138:\n    tag_137:\n      0x20\n      mul\n      add\n      calldataload\n        /* \"privacy/mixer/MixerVerifier.sol\":2298:2434  Proof({... */\n      dup2\n      mstore\n      0x20\n      add\n        /* \"privacy/mixer/MixerVerifier.sol\":2418:2423  proof */\n      dup9\n        /* \"privacy/mixer/MixerVerifier.sol\":2424:2425  7 */\n      0x07\n        /* \"privacy/mixer/MixerVerifier.sol\":2418:2426  proof[7] */\n      0x08\n      dup2\n      lt\n      tag_139\n      jumpi\n      tag_140\n      tag_122\n      jump\t// in\n    tag_140:\n    tag_139:\n      0x20\n      mul\n      add\n      calldataload\n        /* \"privacy/mixer/MixerVerifier.sol\":2298:2434  Proof({... */\n      dup2\n      mstore\n      pop\n      dup2\n      mstore\n      pop\n        /* \"privacy/mixer/MixerVerifier.sol\":2272:2434  Proof memory grothProof = Proof({... */\n      swap1\n      pop\n        /* \"privacy/mixer/MixerVerifier.sol\":2448:2581  _verifyProof(... */\n      tag_141\n        /* \"privacy/mixer/MixerVerifier.sol\":2470:2480  grothProof */\n      dup2\n        /* \"privacy/mixer/MixerVerifier.sol\":2491:2501  inputArray */\n      dup4\n        /* \"privacy/mixer/MixerVerifier.sol\":2540:2557  inputCoefficients */\n      0x0d\n        /* \"privacy/mixer/MixerVerifier.sol\":2540:2575  inputCoefficients[denominations[0]] */\n      0x00\n        /* \"privacy/mixer/MixerVerifier.sol\":2558:2571  denominations */\n      0x10\n        /* \"privacy/mixer/MixerVerifier.sol\":2572:2573  0 */\n      0x00\n        /* \"privacy/mixer/MixerVerifier.sol\":2558:2574  denominations[0] */\n      dup2\n      sload\n      dup2\n      lt\n      tag_142\n      jumpi\n      tag_143\n      tag_122\n      jump\t// in\n    tag_143:\n    tag_142:\n      swap1\n      0x00\n      mstore\n      keccak256(0x00, 0x20)\n      add\n      sload\n        /* \"privacy/mixer/MixerVerifier.sol\":2540:2575  inputCoefficients[denominations[0]] */\n      dup2\n      mstore\n      0x20\n      add\n      swap1\n      dup2\n      mstore\n      0x20\n      add\n      0x00\n      keccak256\n        /* \"privacy/mixer/MixerVerifier.sol\":2448:2581  _verifyProof(... */\n      dup1\n      sload\n      dup1\n      0x20\n      mul\n      0x20\n      add\n      mload(0x40)\n      swap1\n      dup2\n      add\n      0x40\n      mstore\n      dup1\n      swap3\n      swap2\n      swap1\n      dup2\n      dup2\n      mstore\n      0x20\n      add\n      0x00\n      swap1\n    tag_145:\n      dup3\n      dup3\n      lt\n      iszero\n      tag_146\n      jumpi\n      dup4\n      dup3\n      swap1\n      0x00\n      mstore\n      keccak256(0x00, 0x20)\n      swap1\n      0x02\n      mul\n      add\n      0x02\n      dup1\n      0x20\n      mul\n      mload(0x40)\n      swap1\n      dup2\n      add\n      0x40\n      mstore\n      dup1\n      swap3\n      swap2\n      swap1\n      dup3\n      0x02\n      dup1\n      iszero\n      tag_148\n      jumpi\n      0x20\n      mul\n      dup3\n      add\n      swap2\n    tag_149:\n      dup2\n      sload\n      dup2\n      mstore\n      0x20\n      add\n      swap1\n      0x01\n      add\n      swap1\n      dup1\n      dup4\n      gt\n      tag_149\n      jumpi\n    tag_148:\n      pop\n      pop\n      pop\n      pop\n      pop\n      dup2\n      mstore\n      0x20\n      add\n      swap1\n      0x01\n      add\n      swap1\n      jump(tag_145)\n    tag_146:\n      pop\n      pop\n      pop\n      pop\n        /* \"privacy/mixer/MixerVerifier.sol\":2448:2460  _verifyProof */\n      tag_150\n        /* \"privacy/mixer/MixerVerifier.sol\":2448:2581  _verifyProof(... */\n      jump\t// in\n    tag_141:\n        /* \"privacy/mixer/MixerVerifier.sol\":2441:2581  return _verifyProof(... */\n      swap3\n      pop\n      pop\n      pop\n        /* \"privacy/mixer/MixerVerifier.sol\":2005:2584  function verifyProof(... */\n      swap3\n      swap2\n      pop\n      pop\n      jump\t// out\n        /* \"privacy/mixer/MixerVerifier.sol\":439:463  uint256[2] public gamma2 */\n    tag_45:\n      0x09\n      dup2\n      0x02\n      dup2\n      lt\n      tag_151\n      jumpi\n      0x00\n      dup1\n      revert\n    tag_151:\n      add\n      0x00\n      swap2\n      pop\n      swap1\n      pop\n      sload\n      dup2\n      jump\t// out\n        /* \"privacy/mixer/MixerVerifier.sol\":7080:7688  function removeDenomination(uint256 denomination) external onlyOwner {... */\n    tag_49:\n        /* \"@openzeppelin/contracts/access/Ownable.sol\":1531:1544  _checkOwner() */\n      tag_154\n        /* \"@openzeppelin/contracts/access/Ownable.sol\":1531:1542  _checkOwner */\n      tag_155\n        /* \"@openzeppelin/contracts/access/Ownable.sol\":1531:1544  _checkOwner() */\n      jump\t// in\n    tag_154:\n        /* \"privacy/mixer/MixerVerifier.sol\":7167:7189  supportedDenominations */\n      0x0f\n        /* \"privacy/mixer/MixerVerifier.sol\":7167:7203  supportedDenominations[denomination] */\n      0x00\n        /* \"privacy/mixer/MixerVerifier.sol\":7190:7202  denomination */\n      dup3\n        /* \"privacy/mixer/MixerVerifier.sol\":7167:7203  supportedDenominations[denomination] */\n      dup2\n      mstore\n      0x20\n      add\n      swap1\n      dup2\n      mstore\n      0x20\n      add\n      0x00\n      keccak256\n      0x00\n      swap1\n      sload\n      swap1\n      0x0100\n      exp\n      swap1\n      div\n      0xff\n      and\n        /* \"privacy/mixer/MixerVerifier.sol\":7159:7230  require(supportedDenominations[denomination], \"Denomination not found\") */\n      tag_157\n      jumpi\n      mload(0x40)\n      0x08c379a000000000000000000000000000000000000000000000000000000000\n      dup2\n      mstore\n      0x04\n      add\n      tag_158\n      swap1\n      tag_159\n      jump\t// in\n    tag_158:\n      mload(0x40)\n      dup1\n      swap2\n      sub\n      swap1\n      revert\n    tag_157:\n        /* \"privacy/mixer/MixerVerifier.sol\":7288:7293  false */\n      0x00\n        /* \"privacy/mixer/MixerVerifier.sol\":7249:7271  supportedDenominations */\n      0x0f\n        /* \"privacy/mixer/MixerVerifier.sol\":7249:7285  supportedDenominations[denomination] */\n      0x00\n        /* \"privacy/mixer/MixerVerifier.sol\":7272:7284  denomination */\n      dup4\n        /* \"privacy/mixer/MixerVerifier.sol\":7249:7285  supportedDenominations[denomination] */\n      dup2\n      mstore\n      0x20\n      add\n      swap1\n      dup2\n      mstore\n      0x20\n      add\n      0x00\n      keccak256\n      0x00\n        /* \"privacy/mixer/MixerVerifier.sol\":7249:7293  supportedDenominations[denomination] = false */\n      0x0100\n      exp\n      dup2\n      sload\n      dup2\n      0xff\n      mul\n      not\n      and\n      swap1\n      dup4\n      iszero\n      iszero\n      mul\n      or\n      swap1\n      sstore\n      pop\n        /* \"privacy/mixer/MixerVerifier.sol\":7310:7327  inputCoefficients */\n      0x0d\n        /* \"privacy/mixer/MixerVerifier.sol\":7310:7341  inputCoefficients[denomination] */\n      0x00\n        /* \"privacy/mixer/MixerVerifier.sol\":7328:7340  denomination */\n      dup3\n        /* \"privacy/mixer/MixerVerifier.sol\":7310:7341  inputCoefficients[denomination] */\n      dup2\n      mstore\n      0x20\n      add\n      swap1\n      dup2\n      mstore\n      0x20\n      add\n      0x00\n      keccak256\n      0x00\n        /* \"privacy/mixer/MixerVerifier.sol\":7303:7341  delete inputCoefficients[denomination] */\n      tag_160\n      swap2\n      swap1\n      tag_161\n      jump\t// in\n    tag_160:\n        /* \"privacy/mixer/MixerVerifier.sol\":7357:7366  uint256 i */\n      0x00\n        /* \"privacy/mixer/MixerVerifier.sol\":7352:7616  for (uint256 i = 0; i < denominations.length; i++) {... */\n    tag_162:\n        /* \"privacy/mixer/MixerVerifier.sol\":7376:7389  denominations */\n      0x10\n        /* \"privacy/mixer/MixerVerifier.sol\":7376:7396  denominations.length */\n      dup1\n      sload\n      swap1\n      pop\n        /* \"privacy/mixer/MixerVerifier.sol\":7372:7373  i */\n      dup2\n        /* \"privacy/mixer/MixerVerifier.sol\":7372:7396  i < denominations.length */\n      lt\n        /* \"privacy/mixer/MixerVerifier.sol\":7352:7616  for (uint256 i = 0; i < denominations.length; i++) {... */\n      iszero\n      tag_163\n      jumpi\n        /* \"privacy/mixer/MixerVerifier.sol\":7441:7453  denomination */\n      dup2\n        /* \"privacy/mixer/MixerVerifier.sol\":7421:7434  denominations */\n      0x10\n        /* \"privacy/mixer/MixerVerifier.sol\":7435:7436  i */\n      dup3\n        /* \"privacy/mixer/MixerVerifier.sol\":7421:7437  denominations[i] */\n      dup2\n      sload\n      dup2\n      lt\n      tag_165\n      jumpi\n      tag_166\n      tag_122\n      jump\t// in\n    tag_166:\n    tag_165:\n      swap1\n      0x00\n      mstore\n      keccak256(0x00, 0x20)\n      add\n      sload\n        /* \"privacy/mixer/MixerVerifier.sol\":7421:7453  denominations[i] == denomination */\n      sub\n        /* \"privacy/mixer/MixerVerifier.sol\":7417:7606  if (denominations[i] == denomination) {... */\n      tag_168\n      jumpi\n        /* \"privacy/mixer/MixerVerifier.sol\":7492:7505  denominations */\n      0x10\n        /* \"privacy/mixer/MixerVerifier.sol\":7529:7530  1 */\n      0x01\n        /* \"privacy/mixer/MixerVerifier.sol\":7506:7519  denominations */\n      0x10\n        /* \"privacy/mixer/MixerVerifier.sol\":7506:7526  denominations.length */\n      dup1\n      sload\n      swap1\n      pop\n        /* \"privacy/mixer/MixerVerifier.sol\":7506:7530  denominations.length - 1 */\n      tag_169\n      swap2\n      swap1\n      tag_170\n      jump\t// in\n    tag_169:\n        /* \"privacy/mixer/MixerVerifier.sol\":7492:7531  denominations[denominations.length - 1] */\n      dup2\n      sload\n      dup2\n      lt\n      tag_171\n      jumpi\n      tag_172\n      tag_122\n      jump\t// in\n    tag_172:\n    tag_171:\n      swap1\n      0x00\n      mstore\n      keccak256(0x00, 0x20)\n      add\n      sload\n        /* \"privacy/mixer/MixerVerifier.sol\":7473:7486  denominations */\n      0x10\n        /* \"privacy/mixer/MixerVerifier.sol\":7487:7488  i */\n      dup3\n        /* \"privacy/mixer/MixerVerifier.sol\":7473:7489  denominations[i] */\n      dup2\n      sload\n      dup2\n      lt\n      tag_174\n      jumpi\n      tag_175\n      tag_122\n      jump\t// in\n    tag_175:\n    tag_174:\n      swap1\n      0x00\n      mstore\n      keccak256(0x00, 0x20)\n      add\n        /* \"privacy/mixer/MixerVerifier.sol\":7473:7531  denominations[i] = denominations[denominations.length - 1] */\n      dup2\n      swap1\n      sstore\n      pop\n        /* \"privacy/mixer/MixerVerifier.sol\":7549:7562  denominations */\n      0x10\n        /* \"privacy/mixer/MixerVerifier.sol\":7549:7568  denominations.pop() */\n      dup1\n      sload\n      dup1\n      tag_177\n      jumpi\n      tag_178\n      tag_179\n      jump\t// in\n    tag_178:\n    tag_177:\n      0x01\n      swap1\n      sub\n      dup2\n      dup2\n      swap1\n      0x00\n      mstore\n      keccak256(0x00, 0x20)\n      add\n      0x00\n      swap1\n      sstore\n      swap1\n      sstore\n        /* \"privacy/mixer/MixerVerifier.sol\":7586:7591  break */\n      jump(tag_163)\n        /* \"privacy/mixer/MixerVerifier.sol\":7417:7606  if (denominations[i] == denomination) {... */\n    tag_168:\n        /* \"privacy/mixer/MixerVerifier.sol\":7398:7401  i++ */\n      dup1\n      dup1\n      0x01\n      add\n      swap2\n      pop\n      pop\n        /* \"privacy/mixer/MixerVerifier.sol\":7352:7616  for (uint256 i = 0; i < denominations.length; i++) {... */\n      jump(tag_162)\n    tag_163:\n      pop\n        /* \"privacy/mixer/MixerVerifier.sol\":7651:7663  denomination */\n      dup1\n        /* \"privacy/mixer/MixerVerifier.sol\":7631:7681  DenominationRemoved(denomination, block.timestamp) */\n      0x37eb657934d587be188bee7ec9363315171a630b765283c28201ee84e963cbd5\n        /* \"privacy/mixer/MixerVerifier.sol\":7665:7680  block.timestamp */\n      timestamp\n        /* \"privacy/mixer/MixerVerifier.sol\":7631:7681  DenominationRemoved(denomination, block.timestamp) */\n      mload(0x40)\n      tag_181\n      swap2\n      swap1\n      tag_30\n      jump\t// in\n    tag_181:\n      mload(0x40)\n      dup1\n      swap2\n      sub\n      swap1\n      log2\n        /* \"privacy/mixer/MixerVerifier.sol\":7080:7688  function removeDenomination(uint256 denomination) external onlyOwner {... */\n      pop\n      jump\t// out\n        /* \"privacy/mixer/MixerVerifier.sol\":856:970  uint256 public constant FIELD_SIZE = 21888242871839275222246405745257275088548364400416034343698204186575808495617 */\n    tag_51:\n        /* \"privacy/mixer/MixerVerifier.sol\":893:970  21888242871839275222246405745257275088548364400416034343698204186575808495617 */\n      0x30644e72e131a029b85045b68181585d2833e84879b9709143e1f593f0000001\n        /* \"privacy/mixer/MixerVerifier.sol\":856:970  uint256 public constant FIELD_SIZE = 21888242871839275222246405745257275088548364400416034343698204186575808495617 */\n      dup2\n      jump\t// out\n        /* \"privacy/mixer/MixerVerifier.sol\":499:556  mapping(uint256 => uint256[2][]) public inputCoefficients */\n    tag_56:\n      mstore(0x20, 0x0d)\n      dup3\n      0x00\n      mstore\n      keccak256(0x00, 0x40)\n      dup3\n      dup2\n      sload\n      dup2\n      lt\n      tag_182\n      jumpi\n      0x00\n      dup1\n      revert\n    tag_182:\n      swap1\n      0x00\n      mstore\n      keccak256(0x00, 0x20)\n      swap1\n      0x02\n      mul\n      add\n      dup2\n      0x02\n      dup2\n      lt\n      tag_184\n      jumpi\n      0x00\n      dup1\n      revert\n    tag_184:\n      add\n      0x00\n      swap3\n      pop\n      swap3\n      pop\n      pop\n      pop\n      sload\n      dup2\n      jump\t// out\n        /* \"privacy/mixer/MixerVerifier.sol\":3232:3903  function verifyWithdrawalProof(... */\n    tag_61:\n        /* \"privacy/mixer/MixerVerifier.sol\":3410:3414  bool */\n      0x00\n        /* \"@openzeppelin/contracts/utils/Pausable.sol\":1474:1493  _requireNotPaused() */\n      tag_187\n        /* \"@openzeppelin/contracts/utils/Pausable.sol\":1474:1491  _requireNotPaused */\n      tag_114\n        /* \"@openzeppelin/contracts/utils/Pausable.sol\":1474:1493  _requireNotPaused() */\n      jump\t// in\n    tag_187:\n        /* \"privacy/mixer/MixerVerifier.sol\":3434:3456  supportedDenominations */\n      0x0f\n        /* \"privacy/mixer/MixerVerifier.sol\":3434:3470  supportedDenominations[denomination] */\n      0x00\n        /* \"privacy/mixer/MixerVerifier.sol\":3457:3469  denomination */\n      dup4\n        /* \"privacy/mixer/MixerVerifier.sol\":3434:3470  supportedDenominations[denomination] */\n      dup2\n      mstore\n      0x20\n      add\n      swap1\n      dup2\n      mstore\n      0x20\n      add\n      0x00\n      keccak256\n      0x00\n      swap1\n      sload\n      swap1\n      0x0100\n      exp\n      swap1\n      div\n      0xff\n      and\n        /* \"privacy/mixer/MixerVerifier.sol\":3426:3499  require(supportedDenominations[denomination], \"Unsupported denomination\") */\n      tag_189\n      jumpi\n      mload(0x40)\n      0x08c379a000000000000000000000000000000000000000000000000000000000\n      dup2\n      mstore\n      0x04\n      add\n      tag_190\n      swap1\n      tag_191\n      jump\t// in\n    tag_190:\n      mload(0x40)\n      dup1\n      swap2\n      sub\n      swap1\n      revert\n    tag_189:\n        /* \"privacy/mixer/MixerVerifier.sol\":848:850  10 */\n      0x0a\n        /* \"privacy/mixer/MixerVerifier.sol\":3517:3523  inputs */\n      dup5\n      dup5\n        /* \"privacy/mixer/MixerVerifier.sol\":3517:3530  inputs.length */\n      swap1\n      pop\n        /* \"privacy/mixer/MixerVerifier.sol\":3517:3544  inputs.length <= MAX_INPUTS */\n      gt\n      iszero\n        /* \"privacy/mixer/MixerVerifier.sol\":3509:3564  require(inputs.length <= MAX_INPUTS, \"Too many inputs\") */\n      tag_192\n      jumpi\n      mload(0x40)\n      0x08c379a000000000000000000000000000000000000000000000000000000000\n      dup2\n      mstore\n      0x04\n      add\n      tag_193\n      swap1\n      tag_194\n      jump\t// in\n    tag_193:\n      mload(0x40)\n      dup1\n      swap2\n      sub\n      swap1\n      revert\n    tag_192:\n        /* \"privacy/mixer/MixerVerifier.sol\":3575:3603  Proof memory withdrawalProof */\n      0x00\n        /* \"privacy/mixer/MixerVerifier.sol\":3617:3622  proof */\n      dup7\n      dup7\n        /* \"privacy/mixer/MixerVerifier.sol\":3606:3632  abi.decode(proof, (Proof)) */\n      dup2\n      add\n      swap1\n      tag_195\n      swap2\n      swap1\n      tag_196\n      jump\t// in\n    tag_195:\n        /* \"privacy/mixer/MixerVerifier.sol\":3575:3632  Proof memory withdrawalProof = abi.decode(proof, (Proof)) */\n      swap1\n      pop\n        /* \"privacy/mixer/MixerVerifier.sol\":3642:3668  _verifyInputRanges(inputs) */\n      tag_197\n        /* \"privacy/mixer/MixerVerifier.sol\":3661:3667  inputs */\n      dup6\n      dup6\n        /* \"privacy/mixer/MixerVerifier.sol\":3642:3668  _verifyInputRanges(inputs) */\n      dup1\n      dup1\n      0x20\n      mul\n      0x20\n      add\n      mload(0x40)\n      swap1\n      dup2\n      add\n      0x40\n      mstore\n      dup1\n      swap4\n      swap3\n      swap2\n      swap1\n      dup2\n      dup2\n      mstore\n      0x20\n      add\n      dup4\n      dup4\n      0x20\n      mul\n      dup1\n      dup3\n      dup5\n      calldatacopy\n      0x00\n      dup2\n      dup5\n      add\n      mstore\n      not(0x1f)\n      0x1f\n      dup3\n      add\n      and\n      swap1\n      pop\n      dup1\n      dup4\n      add\n      swap3\n      pop\n      pop\n      pop\n      pop\n      pop\n      pop\n      pop\n        /* \"privacy/mixer/MixerVerifier.sol\":3642:3660  _verifyInputRanges */\n      tag_198\n        /* \"privacy/mixer/MixerVerifier.sol\":3642:3668  _verifyInputRanges(inputs) */\n      jump\t// in\n    tag_197:\n        /* \"privacy/mixer/MixerVerifier.sol\":3679:3696  bytes32 proofHash */\n      0x00\n        /* \"privacy/mixer/MixerVerifier.sol\":3726:3731  proof */\n      dup8\n      dup8\n        /* \"privacy/mixer/MixerVerifier.sol\":3733:3739  inputs */\n      dup8\n      dup8\n        /* \"privacy/mixer/MixerVerifier.sol\":3709:3740  abi.encodePacked(proof, inputs) */\n      add(0x20, mload(0x40))\n      tag_199\n      swap5\n      swap4\n      swap3\n      swap2\n      swap1\n      tag_200\n      jump\t// in\n    tag_199:\n      mload(0x40)\n      0x20\n      dup2\n      dup4\n      sub\n      sub\n      dup2\n      mstore\n      swap1\n      0x40\n      mstore\n        /* \"privacy/mixer/MixerVerifier.sol\":3699:3741  keccak256(abi.encodePacked(proof, inputs)) */\n      dup1\n      mload\n      swap1\n      0x20\n      add\n      keccak256\n        /* \"privacy/mixer/MixerVerifier.sol\":3679:3741  bytes32 proofHash = keccak256(abi.encodePacked(proof, inputs)) */\n      swap1\n      pop\n        /* \"privacy/mixer/MixerVerifier.sol\":3760:3774  verifiedProofs */\n      0x0e\n        /* \"privacy/mixer/MixerVerifier.sol\":3760:3785  verifiedProofs[proofHash] */\n      0x00\n        /* \"privacy/mixer/MixerVerifier.sol\":3775:3784  proofHash */\n      dup3\n        /* \"privacy/mixer/MixerVerifier.sol\":3760:3785  verifiedProofs[proofHash] */\n      dup2\n      mstore\n      0x20\n      add\n      swap1\n      dup2\n      mstore\n      0x20\n      add\n      0x00\n      keccak256\n      0x00\n      swap1\n      sload\n      swap1\n      0x0100\n      exp\n      swap1\n      div\n      0xff\n      and\n        /* \"privacy/mixer/MixerVerifier.sol\":3759:3785  !verifiedProofs[proofHash] */\n      iszero\n        /* \"privacy/mixer/MixerVerifier.sol\":3751:3808  require(!verifiedProofs[proofHash], \"Proof already used\") */\n      tag_201\n      jumpi\n      mload(0x40)\n      0x08c379a000000000000000000000000000000000000000000000000000000000\n      dup2\n      mstore\n      0x04\n      add\n      tag_202\n      swap1\n      tag_203\n      jump\t// in\n    tag_202:\n      mload(0x40)\n      dup1\n      swap2\n      sub\n      swap1\n      revert\n    tag_201:\n        /* \"privacy/mixer/MixerVerifier.sol\":3826:3896  _verifyProof(withdrawalProof, inputs, inputCoefficients[denomination]) */\n      tag_204\n        /* \"privacy/mixer/MixerVerifier.sol\":3839:3854  withdrawalProof */\n      dup3\n        /* \"privacy/mixer/MixerVerifier.sol\":3856:3862  inputs */\n      dup8\n      dup8\n        /* \"privacy/mixer/MixerVerifier.sol\":3826:3896  _verifyProof(withdrawalProof, inputs, inputCoefficients[denomination]) */\n      dup1\n      dup1\n      0x20\n      mul\n      0x20\n      add\n      mload(0x40)\n      swap1\n      dup2\n      add\n      0x40\n      mstore\n      dup1\n      swap4\n      swap3\n      swap2\n      swap1\n      dup2\n      dup2\n      mstore\n      0x20\n      add\n      dup4\n      dup4\n      0x20\n      mul\n      dup1\n      dup3\n      dup5\n      calldatacopy\n      0x00\n      dup2\n      dup5\n      add\n      mstore\n      not(0x1f)\n      0x1f\n      dup3\n      add\n      and\n      swap1\n      pop\n      dup1\n      dup4\n      add\n      swap3\n      pop\n      pop\n      pop\n      pop\n      pop\n      pop\n      pop\n        /* \"privacy/mixer/MixerVerifier.sol\":3864:3881  inputCoefficients */\n      0x0d\n        /* \"privacy/mixer/MixerVerifier.sol\":3864:3895  inputCoefficients[denomination] */\n      0x00\n        /* \"privacy/mixer/MixerVerifier.sol\":3882:3894  denomination */\n      dup9\n        /* \"privacy/mixer/MixerVerifier.sol\":3864:3895  inputCoefficients[denomination] */\n      dup2\n      mstore\n      0x20\n      add\n      swap1\n      dup2\n      mstore\n      0x20\n      add\n      0x00\n      keccak256\n        /* \"privacy/mixer/MixerVerifier.sol\":3826:3896  _verifyProof(withdrawalProof, inputs, inputCoefficients[denomination]) */\n      dup1\n      sload\n      dup1\n      0x20\n      mul\n      0x20\n      add\n      mload(0x40)\n      swap1\n      dup2\n      add\n      0x40\n      mstore\n      dup1\n      swap3\n      swap2\n      swap1\n      dup2\n      dup2\n      mstore\n      0x20\n      add\n      0x00\n      swap1\n    tag_205:\n      dup3\n      dup3\n      lt\n      iszero\n      tag_206\n      jumpi\n      dup4\n      dup3\n      swap1\n      0x00\n      mstore\n      keccak256(0x00, 0x20)\n      swap1\n      0x02\n      mul\n      add\n      0x02\n      dup1\n      0x20\n      mul\n      mload(0x40)\n      swap1\n      dup2\n      add\n      0x40\n      mstore\n      dup1\n      swap3\n      swap2\n      swap1\n      dup3\n      0x02\n      dup1\n      iszero\n      tag_208\n      jumpi\n      0x20\n      mul\n      dup3\n      add\n      swap2\n    tag_209:\n      dup2\n      sload\n      dup2\n      mstore\n      0x20\n      add\n      swap1\n      0x01\n      add\n      swap1\n      dup1\n      dup4\n      gt\n      tag_209\n      jumpi\n    tag_208:\n      pop\n      pop\n      pop\n      pop\n      pop\n      dup2\n      mstore\n      0x20\n      add\n      swap1\n      0x01\n      add\n      swap1\n      jump(tag_205)\n    tag_206:\n      pop\n      pop\n      pop\n      pop\n        /* \"privacy/mixer/MixerVerifier.sol\":3826:3838  _verifyProof */\n      tag_150\n        /* \"privacy/mixer/MixerVerifier.sol\":3826:3896  _verifyProof(withdrawalProof, inputs, inputCoefficients[denomination]) */\n      jump\t// in\n    tag_204:\n        /* \"privacy/mixer/MixerVerifier.sol\":3819:3896  return _verifyProof(withdrawalProof, inputs, inputCoefficients[denomination]) */\n      swap3\n      pop\n      pop\n      pop\n        /* \"privacy/mixer/MixerVerifier.sol\":3232:3903  function verifyWithdrawalProof(... */\n      swap6\n      swap5\n      pop\n      pop\n      pop\n      pop\n      pop\n      jump\t// out\n        /* \"privacy/mixer/MixerVerifier.sol\":407:433  uint256[2][2] public beta2 */\n    tag_66:\n      0x05\n      dup3\n      0x02\n      dup2\n      lt\n      tag_210\n      jumpi\n      0x00\n      dup1\n      revert\n    tag_210:\n      0x02\n      mul\n      add\n      dup2\n      0x02\n      dup2\n      lt\n      tag_212\n      jumpi\n      0x00\n      dup1\n      revert\n    tag_212:\n      add\n      0x00\n      swap2\n      pop\n      swap2\n      pop\n      pop\n      sload\n      dup2\n      jump\t// out\n        /* \"@openzeppelin/contracts/utils/Pausable.sol\":1850:1934  function paused() public view virtual returns (bool) {... */\n    tag_69:\n        /* \"@openzeppelin/contracts/utils/Pausable.sol\":1897:1901  bool */\n      0x00\n        /* \"@openzeppelin/contracts/utils/Pausable.sol\":1920:1927  _paused */\n      0x02\n      0x00\n      swap1\n      sload\n      swap1\n      0x0100\n      exp\n      swap1\n      div\n      0xff\n      and\n        /* \"@openzeppelin/contracts/utils/Pausable.sol\":1913:1927  return _paused */\n      swap1\n      pop\n        /* \"@openzeppelin/contracts/utils/Pausable.sol\":1850:1934  function paused() public view virtual returns (bool) {... */\n      swap1\n      jump\t// out\n        /* \"@openzeppelin/contracts/access/Ownable.sol\":2293:2394  function renounceOwnership() public virtual onlyOwner {... */\n    tag_72:\n        /* \"@openzeppelin/contracts/access/Ownable.sol\":1531:1544  _checkOwner() */\n      tag_216\n        /* \"@openzeppelin/contracts/access/Ownable.sol\":1531:1542  _checkOwner */\n      tag_155\n        /* \"@openzeppelin/contracts/access/Ownable.sol\":1531:1544  _checkOwner() */\n      jump\t// in\n    tag_216:\n        /* \"@openzeppelin/contracts/access/Ownable.sol\":2357:2387  _transferOwnership(address(0)) */\n      tag_218\n        /* \"@openzeppelin/contracts/access/Ownable.sol\":2384:2385  0 */\n      0x00\n        /* \"@openzeppelin/contracts/access/Ownable.sol\":2357:2375  _transferOwnership */\n      tag_219\n        /* \"@openzeppelin/contracts/access/Ownable.sol\":2357:2387  _transferOwnership(address(0)) */\n      jump\t// in\n    tag_218:\n        /* \"@openzeppelin/contracts/access/Ownable.sol\":2293:2394  function renounceOwnership() public virtual onlyOwner {... */\n      jump\t// out\n        /* \"privacy/mixer/MixerVerifier.sol\":976:1019  bytes32 public immutable verifierIdentifier */\n    tag_74:\n      immutable(\"0x59ec111d9d8ceec2ab223a1d5004f35d19292b31c8f02c623d83a90888216dda\")\n      dup2\n      jump\t// out\n        /* \"@openzeppelin/contracts/access/Ownable.sol\":1638:1723  function owner() public view virtual returns (address) {... */\n    tag_78:\n        /* \"@openzeppelin/contracts/access/Ownable.sol\":1684:1691  address */\n      0x00\n        /* \"@openzeppelin/contracts/access/Ownable.sol\":1710:1716  _owner */\n      dup1\n      0x00\n      swap1\n      sload\n      swap1\n      0x0100\n      exp\n      swap1\n      div\n      0xffffffffffffffffffffffffffffffffffffffff\n      and\n        /* \"@openzeppelin/contracts/access/Ownable.sol\":1703:1716  return _owner */\n      swap1\n      pop\n        /* \"@openzeppelin/contracts/access/Ownable.sol\":1638:1723  function owner() public view virtual returns (address) {... */\n      swap1\n      jump\t// out\n        /* \"privacy/mixer/MixerVerifier.sol\":6909:7074  function addDenomination(... */\n    tag_84:\n        /* \"@openzeppelin/contracts/access/Ownable.sol\":1531:1544  _checkOwner() */\n      tag_222\n        /* \"@openzeppelin/contracts/access/Ownable.sol\":1531:1542  _checkOwner */\n      tag_155\n        /* \"@openzeppelin/contracts/access/Ownable.sol\":1531:1544  _checkOwner() */\n      jump\t// in\n    tag_222:\n        /* \"privacy/mixer/MixerVerifier.sol\":7033:7067  _addDenomination(denomination, ic) */\n      tag_224\n        /* \"privacy/mixer/MixerVerifier.sol\":7050:7062  denomination */\n      dup4\n        /* \"privacy/mixer/MixerVerifier.sol\":7064:7066  ic */\n      dup4\n      dup4\n        /* \"privacy/mixer/MixerVerifier.sol\":7033:7067  _addDenomination(denomination, ic) */\n      dup1\n      dup1\n      0x20\n      mul\n      0x20\n      add\n      mload(0x40)\n      swap1\n      dup2\n      add\n      0x40\n      mstore\n      dup1\n      swap4\n      swap3\n      swap2\n      swap1\n      dup2\n      dup2\n      mstore\n      0x20\n      add\n      0x00\n      swap1\n    tag_225:\n      dup3\n      dup3\n      lt\n      iszero\n      tag_226\n      jumpi\n      dup5\n      dup5\n      dup4\n      swap1\n      pop\n      0x40\n      mul\n      add\n      0x02\n      dup1\n      0x20\n      mul\n      mload(0x40)\n      swap1\n      dup2\n      add\n      0x40\n      mstore\n      dup1\n      swap3\n      swap2\n      swap1\n      dup3\n      mul(0x20, 0x02)\n      dup1\n      dup3\n      dup5\n      calldatacopy\n      0x00\n      dup2\n      dup5\n      add\n      mstore\n      not(0x1f)\n      0x1f\n      dup3\n      add\n      and\n      swap1\n      pop\n      dup1\n      dup4\n      add\n      swap3\n      pop\n      pop\n      pop\n      pop\n      pop\n      pop\n      dup2\n      mstore\n      0x20\n      add\n      swap1\n      0x01\n      add\n      swap1\n      jump(tag_225)\n    tag_226:\n      pop\n      pop\n      pop\n      pop\n      pop\n        /* \"privacy/mixer/MixerVerifier.sol\":7033:7049  _addDenomination */\n      tag_227\n        /* \"privacy/mixer/MixerVerifier.sol\":7033:7067  _addDenomination(denomination, ic) */\n      jump\t// in\n    tag_224:\n        /* \"privacy/mixer/MixerVerifier.sol\":6909:7074  function addDenomination(... */\n      pop\n      pop\n      pop\n      jump\t// out\n        /* \"privacy/mixer/MixerVerifier.sol\":2590:2698  function getVerifierID() external view override returns (bytes32) {... */\n    tag_86:\n        /* \"privacy/mixer/MixerVerifier.sol\":2647:2654  bytes32 */\n      0x00\n        /* \"privacy/mixer/MixerVerifier.sol\":2673:2691  verifierIdentifier */\n      immutable(\"0x59ec111d9d8ceec2ab223a1d5004f35d19292b31c8f02c623d83a90888216dda\")\n        /* \"privacy/mixer/MixerVerifier.sol\":2666:2691  return verifierIdentifier */\n      swap1\n      pop\n        /* \"privacy/mixer/MixerVerifier.sol\":2590:2698  function getVerifierID() external view override returns (bytes32) {... */\n      swap1\n      jump\t// out\n        /* \"privacy/mixer/MixerVerifier.sol\":469:493  uint256[2] public delta2 */\n    tag_90:\n      0x0b\n      dup2\n      0x02\n      dup2\n      lt\n      tag_229\n      jumpi\n      0x00\n      dup1\n      revert\n    tag_229:\n      add\n      0x00\n      swap2\n      pop\n      swap1\n      pop\n      sload\n      dup2\n      jump\t// out\n        /* \"privacy/mixer/MixerVerifier.sol\":710:764  mapping(uint256 => bool) public supportedDenominations */\n    tag_94:\n      mstore(0x20, 0x0f)\n      dup1\n      0x00\n      mstore\n      keccak256(0x00, 0x40)\n      0x00\n      swap2\n      pop\n      sload\n      swap1\n      0x0100\n      exp\n      swap1\n      div\n      0xff\n      and\n      dup2\n      jump\t// out\n        /* \"privacy/mixer/MixerVerifier.sol\":377:401  uint256[2] public alpha1 */\n    tag_98:\n      0x03\n      dup2\n      0x02\n      dup2\n      lt\n      tag_231\n      jumpi\n      0x00\n      dup1\n      revert\n    tag_231:\n      add\n      0x00\n      swap2\n      pop\n      swap1\n      pop\n      sload\n      dup2\n      jump\t// out\n        /* \"privacy/mixer/MixerVerifier.sol\":2704:3226  function verifyDepositProof(... */\n    tag_102:\n        /* \"privacy/mixer/MixerVerifier.sol\":2879:2883  bool */\n      0x00\n        /* \"@openzeppelin/contracts/utils/Pausable.sol\":1474:1493  _requireNotPaused() */\n      tag_234\n        /* \"@openzeppelin/contracts/utils/Pausable.sol\":1474:1491  _requireNotPaused */\n      tag_114\n        /* \"@openzeppelin/contracts/utils/Pausable.sol\":1474:1493  _requireNotPaused() */\n      jump\t// in\n    tag_234:\n        /* \"privacy/mixer/MixerVerifier.sol\":2903:2925  supportedDenominations */\n      0x0f\n        /* \"privacy/mixer/MixerVerifier.sol\":2903:2939  supportedDenominations[denomination] */\n      0x00\n        /* \"privacy/mixer/MixerVerifier.sol\":2926:2938  denomination */\n      dup4\n        /* \"privacy/mixer/MixerVerifier.sol\":2903:2939  supportedDenominations[denomination] */\n      dup2\n      mstore\n      0x20\n      add\n      swap1\n      dup2\n      mstore\n      0x20\n      add\n      0x00\n      keccak256\n      0x00\n      swap1\n      sload\n      swap1\n      0x0100\n      exp\n      swap1\n      div\n      0xff\n      and\n        /* \"privacy/mixer/MixerVerifier.sol\":2895:2968  require(supportedDenominations[denomination], \"Unsupported denomination\") */\n      tag_236\n      jumpi\n      mload(0x40)\n      0x08c379a000000000000000000000000000000000000000000000000000000000\n      dup2\n      mstore\n      0x04\n      add\n      tag_237\n      swap1\n      tag_191\n      jump\t// in\n    tag_237:\n      mload(0x40)\n      dup1\n      swap2\n      sub\n      swap1\n      revert\n    tag_236:\n        /* \"privacy/mixer/MixerVerifier.sol\":848:850  10 */\n      0x0a\n        /* \"privacy/mixer/MixerVerifier.sol\":2986:2992  inputs */\n      dup5\n      dup5\n        /* \"privacy/mixer/MixerVerifier.sol\":2986:2999  inputs.length */\n      swap1\n      pop\n        /* \"privacy/mixer/MixerVerifier.sol\":2986:3013  inputs.length <= MAX_INPUTS */\n      gt\n      iszero\n        /* \"privacy/mixer/MixerVerifier.sol\":2978:3033  require(inputs.length <= MAX_INPUTS, \"Too many inputs\") */\n      tag_238\n      jumpi\n      mload(0x40)\n      0x08c379a000000000000000000000000000000000000000000000000000000000\n      dup2\n      mstore\n      0x04\n      add\n      tag_239\n      swap1\n      tag_194\n      jump\t// in\n    tag_239:\n      mload(0x40)\n      dup1\n      swap2\n      sub\n      swap1\n      revert\n    tag_238:\n        /* \"privacy/mixer/MixerVerifier.sol\":3044:3069  Proof memory depositProof */\n      0x00\n        /* \"privacy/mixer/MixerVerifier.sol\":3083:3088  proof */\n      dup7\n      dup7\n        /* \"privacy/mixer/MixerVerifier.sol\":3072:3098  abi.decode(proof, (Proof)) */\n      dup2\n      add\n      swap1\n      tag_240\n      swap2\n      swap1\n      tag_196\n      jump\t// in\n    tag_240:\n        /* \"privacy/mixer/MixerVerifier.sol\":3044:3098  Proof memory depositProof = abi.decode(proof, (Proof)) */\n      swap1\n      pop\n        /* \"privacy/mixer/MixerVerifier.sol\":3108:3134  _verifyInputRanges(inputs) */\n      tag_241\n        /* \"privacy/mixer/MixerVerifier.sol\":3127:3133  inputs */\n      dup6\n      dup6\n        /* \"privacy/mixer/MixerVerifier.sol\":3108:3134  _verifyInputRanges(inputs) */\n      dup1\n      dup1\n      0x20\n      mul\n      0x20\n      add\n      mload(0x40)\n      swap1\n      dup2\n      add\n      0x40\n      mstore\n      dup1\n      swap4\n      swap3\n      swap2\n      swap1\n      dup2\n      dup2\n      mstore\n      0x20\n      add\n      dup4\n      dup4\n      0x20\n      mul\n      dup1\n      dup3\n      dup5\n      calldatacopy\n      0x00\n      dup2\n      dup5\n      add\n      mstore\n      not(0x1f)\n      0x1f\n      dup3\n      add\n      and\n      swap1\n      pop\n      dup1\n      dup4\n      add\n      swap3\n      pop\n      pop\n      pop\n      pop\n      pop\n      pop\n      pop\n        /* \"privacy/mixer/MixerVerifier.sol\":3108:3126  _verifyInputRanges */\n      tag_198\n        /* \"privacy/mixer/MixerVerifier.sol\":3108:3134  _verifyInputRanges(inputs) */\n      jump\t// in\n    tag_241:\n        /* \"privacy/mixer/MixerVerifier.sol\":3152:3219  _verifyProof(depositProof, inputs, inputCoefficients[denomination]) */\n      tag_242\n        /* \"privacy/mixer/MixerVerifier.sol\":3165:3177  depositProof */\n      dup2\n        /* \"privacy/mixer/MixerVerifier.sol\":3179:3185  inputs */\n      dup7\n      dup7\n        /* \"privacy/mixer/MixerVerifier.sol\":3152:3219  _verifyProof(depositProof, inputs, inputCoefficients[denomination]) */\n      dup1\n      dup1\n      0x20\n      mul\n      0x20\n      add\n      mload(0x40)\n      swap1\n      dup2\n      add\n      0x40\n      mstore\n      dup1\n      swap4\n      swap3\n      swap2\n      swap1\n      dup2\n      dup2\n      mstore\n      0x20\n      add\n      dup4\n      dup4\n      0x20\n      mul\n      dup1\n      dup3\n      dup5\n      calldatacopy\n      0x00\n      dup2\n      dup5\n      add\n      mstore\n      not(0x1f)\n      0x1f\n      dup3\n      add\n      and\n      swap1\n      pop\n      dup1\n      dup4\n      add\n      swap3\n      pop\n      pop\n      pop\n      pop\n      pop\n      pop\n      pop\n        /* \"privacy/mixer/MixerVerifier.sol\":3187:3204  inputCoefficients */\n      0x0d\n        /* \"privacy/mixer/MixerVerifier.sol\":3187:3218  inputCoefficients[denomination] */\n      0x00\n        /* \"privacy/mixer/MixerVerifier.sol\":3205:3217  denomination */\n      dup8\n        /* \"privacy/mixer/MixerVerifier.sol\":3187:3218  inputCoefficients[denomination] */\n      dup2\n      mstore\n      0x20\n      add\n      swap1\n      dup2\n      mstore\n      0x20\n      add\n      0x00\n      keccak256\n        /* \"privacy/mixer/MixerVerifier.sol\":3152:3219  _verifyProof(depositProof, inputs, inputCoefficients[denomination]) */\n      dup1\n      sload\n      dup1\n      0x20\n      mul\n      0x20\n      add\n      mload(0x40)\n      swap1\n      dup2\n      add\n      0x40\n      mstore\n      dup1\n      swap3\n      swap2\n      swap1\n      dup2\n      dup2\n      mstore\n      0x20\n      add\n      0x00\n      swap1\n    tag_243:\n      dup3\n      dup3\n      lt\n      iszero\n      tag_244\n      jumpi\n      dup4\n      dup3\n      swap1\n      0x00\n      mstore\n      keccak256(0x00, 0x20)\n      swap1\n      0x02\n      mul\n      add\n      0x02\n      dup1\n      0x20\n      mul\n      mload(0x40)\n      swap1\n      dup2\n      add\n      0x40\n      mstore\n      dup1\n      swap3\n      swap2\n      swap1\n      dup3\n      0x02\n      dup1\n      iszero\n      tag_246\n      jumpi\n      0x20\n      mul\n      dup3\n      add\n      swap2\n    tag_247:\n      dup2\n      sload\n      dup2\n      mstore\n      0x20\n      add\n      swap1\n      0x01\n      add\n      swap1\n      dup1\n      dup4\n      gt\n      tag_247\n      jumpi\n    tag_246:\n      pop\n      pop\n      pop\n      pop\n      pop\n      dup2\n      mstore\n      0x20\n      add\n      swap1\n      0x01\n      add\n      swap1\n      jump(tag_243)\n    tag_244:\n      pop\n      pop\n      pop\n      pop\n        /* \"privacy/mixer/MixerVerifier.sol\":3152:3164  _verifyProof */\n      tag_150\n        /* \"privacy/mixer/MixerVerifier.sol\":3152:3219  _verifyProof(depositProof, inputs, inputCoefficients[denomination]) */\n      jump\t// in\n    tag_242:\n        /* \"privacy/mixer/MixerVerifier.sol\":3145:3219  return _verifyProof(depositProof, inputs, inputCoefficients[denomination]) */\n      swap2\n      pop\n      pop\n        /* \"privacy/mixer/MixerVerifier.sol\":2704:3226  function verifyDepositProof(... */\n      swap6\n      swap5\n      pop\n      pop\n      pop\n      pop\n      pop\n      jump\t// out\n        /* \"@openzeppelin/contracts/access/Ownable.sol\":2543:2758  function transferOwnership(address newOwner) public virtual onlyOwner {... */\n    tag_107:\n        /* \"@openzeppelin/contracts/access/Ownable.sol\":1531:1544  _checkOwner() */\n      tag_249\n        /* \"@openzeppelin/contracts/access/Ownable.sol\":1531:1542  _checkOwner */\n      tag_155\n        /* \"@openzeppelin/contracts/access/Ownable.sol\":1531:1544  _checkOwner() */\n      jump\t// in\n    tag_249:\n        /* \"@openzeppelin/contracts/access/Ownable.sol\":2647:2648  0 */\n      0x00\n        /* \"@openzeppelin/contracts/access/Ownable.sol\":2627:2649  newOwner == address(0) */\n      0xffffffffffffffffffffffffffffffffffffffff\n      and\n        /* \"@openzeppelin/contracts/access/Ownable.sol\":2627:2635  newOwner */\n      dup2\n        /* \"@openzeppelin/contracts/access/Ownable.sol\":2627:2649  newOwner == address(0) */\n      0xffffffffffffffffffffffffffffffffffffffff\n      and\n      sub\n        /* \"@openzeppelin/contracts/access/Ownable.sol\":2623:2714  if (newOwner == address(0)) {... */\n      tag_251\n      jumpi\n        /* \"@openzeppelin/contracts/access/Ownable.sol\":2700:2701  0 */\n      0x00\n        /* \"@openzeppelin/contracts/access/Ownable.sol\":2672:2703  OwnableInvalidOwner(address(0)) */\n      mload(0x40)\n      0x1e4fbdf700000000000000000000000000000000000000000000000000000000\n      dup2\n      mstore\n      0x04\n      add\n      tag_252\n      swap2\n      swap1\n      tag_80\n      jump\t// in\n    tag_252:\n      mload(0x40)\n      dup1\n      swap2\n      sub\n      swap1\n      revert\n        /* \"@openzeppelin/contracts/access/Ownable.sol\":2623:2714  if (newOwner == address(0)) {... */\n    tag_251:\n        /* \"@openzeppelin/contracts/access/Ownable.sol\":2723:2751  _transferOwnership(newOwner) */\n      tag_253\n        /* \"@openzeppelin/contracts/access/Ownable.sol\":2742:2750  newOwner */\n      dup2\n        /* \"@openzeppelin/contracts/access/Ownable.sol\":2723:2741  _transferOwnership */\n      tag_219\n        /* \"@openzeppelin/contracts/access/Ownable.sol\":2723:2751  _transferOwnership(newOwner) */\n      jump\t// in\n    tag_253:\n        /* \"@openzeppelin/contracts/access/Ownable.sol\":2543:2758  function transferOwnership(address newOwner) public virtual onlyOwner {... */\n      pop\n      jump\t// out\n        /* \"privacy/mixer/MixerVerifier.sol\":770:800  uint256[] public denominations */\n    tag_110:\n      0x10\n      dup2\n      dup2\n      sload\n      dup2\n      lt\n      tag_254\n      jumpi\n      0x00\n      dup1\n      revert\n    tag_254:\n      swap1\n      0x00\n      mstore\n      keccak256(0x00, 0x20)\n      add\n      0x00\n      swap2\n      pop\n      swap1\n      pop\n      sload\n      dup2\n      jump\t// out\n        /* \"@openzeppelin/contracts/utils/Pausable.sol\":2002:2130  function _requireNotPaused() internal view virtual {... */\n    tag_114:\n        /* \"@openzeppelin/contracts/utils/Pausable.sol\":2067:2075  paused() */\n      tag_257\n        /* \"@openzeppelin/contracts/utils/Pausable.sol\":2067:2073  paused */\n      tag_69\n        /* \"@openzeppelin/contracts/utils/Pausable.sol\":2067:2075  paused() */\n      jump\t// in\n    tag_257:\n        /* \"@openzeppelin/contracts/utils/Pausable.sol\":2063:2124  if (paused()) {... */\n      iszero\n      tag_258\n      jumpi\n        /* \"@openzeppelin/contracts/utils/Pausable.sol\":2098:2113  EnforcedPause() */\n      mload(0x40)\n      0xd93c066500000000000000000000000000000000000000000000000000000000\n      dup2\n      mstore\n      0x04\n      add\n      mload(0x40)\n      dup1\n      swap2\n      sub\n      swap1\n      revert\n        /* \"@openzeppelin/contracts/utils/Pausable.sol\":2063:2124  if (paused()) {... */\n    tag_258:\n        /* \"@openzeppelin/contracts/utils/Pausable.sol\":2002:2130  function _requireNotPaused() internal view virtual {... */\n      jump\t// out\n        /* \"privacy/mixer/MixerVerifier.sol\":3909:4378  function _verifyProof(... */\n    tag_150:\n        /* \"privacy/mixer/MixerVerifier.sol\":4057:4061  bool */\n      0x00\n        /* \"privacy/mixer/MixerVerifier.sol\":4102:4104  ic */\n      dup2\n        /* \"privacy/mixer/MixerVerifier.sol\":4102:4111  ic.length */\n      mload\n        /* \"privacy/mixer/MixerVerifier.sol\":4097:4098  1 */\n      0x01\n        /* \"privacy/mixer/MixerVerifier.sol\":4081:4087  inputs */\n      dup5\n        /* \"privacy/mixer/MixerVerifier.sol\":4081:4094  inputs.length */\n      mload\n        /* \"privacy/mixer/MixerVerifier.sol\":4081:4098  inputs.length + 1 */\n      tag_260\n      swap2\n      swap1\n      tag_261\n      jump\t// in\n    tag_260:\n        /* \"privacy/mixer/MixerVerifier.sol\":4081:4111  inputs.length + 1 == ic.length */\n      eq\n        /* \"privacy/mixer/MixerVerifier.sol\":4073:4136  require(inputs.length + 1 == ic.length, \"Invalid input length\") */\n      tag_262\n      jumpi\n      mload(0x40)\n      0x08c379a000000000000000000000000000000000000000000000000000000000\n      dup2\n      mstore\n      0x04\n      add\n      tag_263\n      swap1\n      tag_264\n      jump\t// in\n    tag_263:\n      mload(0x40)\n      dup1\n      swap2\n      sub\n      swap1\n      revert\n    tag_262:\n        /* \"privacy/mixer/MixerVerifier.sol\":4147:4169  uint256[2] memory vk_x */\n      0x00\n        /* \"privacy/mixer/MixerVerifier.sol\":4172:4209  _computeLinearCombination(inputs, ic) */\n      tag_265\n        /* \"privacy/mixer/MixerVerifier.sol\":4198:4204  inputs */\n      dup5\n        /* \"privacy/mixer/MixerVerifier.sol\":4206:4208  ic */\n      dup5\n        /* \"privacy/mixer/MixerVerifier.sol\":4172:4197  _computeLinearCombination */\n      tag_266\n        /* \"privacy/mixer/MixerVerifier.sol\":4172:4209  _computeLinearCombination(inputs, ic) */\n      jump\t// in\n    tag_265:\n        /* \"privacy/mixer/MixerVerifier.sol\":4147:4209  uint256[2] memory vk_x = _computeLinearCombination(inputs, ic) */\n      swap1\n      pop\n        /* \"privacy/mixer/MixerVerifier.sol\":4227:4371  _verifyPairing(... */\n      tag_267\n        /* \"privacy/mixer/MixerVerifier.sol\":4255:4264  proofData */\n      dup6\n        /* \"privacy/mixer/MixerVerifier.sol\":4278:4282  vk_x */\n      dup3\n        /* \"privacy/mixer/MixerVerifier.sol\":4296:4302  alpha1 */\n      0x03\n        /* \"privacy/mixer/MixerVerifier.sol\":4227:4371  _verifyPairing(... */\n      0x02\n      dup1\n      0x20\n      mul\n      mload(0x40)\n      swap1\n      dup2\n      add\n      0x40\n      mstore\n      dup1\n      swap3\n      swap2\n      swap1\n      dup3\n      0x02\n      dup1\n      iszero\n      tag_268\n      jumpi\n      0x20\n      mul\n      dup3\n      add\n      swap2\n    tag_269:\n      dup2\n      sload\n      dup2\n      mstore\n      0x20\n      add\n      swap1\n      0x01\n      add\n      swap1\n      dup1\n      dup4\n      gt\n      tag_269\n      jumpi\n    tag_268:\n      pop\n      pop\n      pop\n      pop\n      pop\n        /* \"privacy/mixer/MixerVerifier.sol\":4316:4321  beta2 */\n      0x05\n        /* \"privacy/mixer/MixerVerifier.sol\":4227:4371  _verifyPairing(... */\n      0x02\n      dup1\n      0x20\n      mul\n      mload(0x40)\n      swap1\n      dup2\n      add\n      0x40\n      mstore\n      dup1\n      swap3\n      swap2\n      swap1\n      0x00\n      swap1\n    tag_270:\n      dup3\n      dup3\n      lt\n      iszero\n      tag_271\n      jumpi\n      dup4\n      dup3\n      0x02\n      mul\n      add\n      0x02\n      dup1\n      0x20\n      mul\n      mload(0x40)\n      swap1\n      dup2\n      add\n      0x40\n      mstore\n      dup1\n      swap3\n      swap2\n      swap1\n      dup3\n      0x02\n      dup1\n      iszero\n      tag_273\n      jumpi\n      0x20\n      mul\n      dup3\n      add\n      swap2\n    tag_274:\n      dup2\n      sload\n      dup2\n      mstore\n      0x20\n      add\n      swap1\n      0x01\n      add\n      swap1\n      dup1\n      dup4\n      gt\n      tag_274\n      jumpi\n    tag_273:\n      pop\n      pop\n      pop\n      pop\n      pop\n      dup2\n      mstore\n      0x20\n      add\n      swap1\n      0x01\n      add\n      swap1\n      jump(tag_270)\n    tag_271:\n      pop\n      pop\n      pop\n      pop\n        /* \"privacy/mixer/MixerVerifier.sol\":4335:4341  gamma2 */\n      0x09\n        /* \"privacy/mixer/MixerVerifier.sol\":4227:4371  _verifyPairing(... */\n      0x02\n      dup1\n      0x20\n      mul\n      mload(0x40)\n      swap1\n      dup2\n      add\n      0x40\n      mstore\n      dup1\n      swap3\n      swap2\n      swap1\n      dup3\n      0x02\n      dup1\n      iszero\n      tag_275\n      jumpi\n      0x20\n      mul\n      dup3\n      add\n      swap2\n    tag_276:\n      dup2\n      sload\n      dup2\n      mstore\n      0x20\n      add\n      swap1\n      0x01\n      add\n      swap1\n      dup1\n      dup4\n      gt\n      tag_276\n      jumpi\n    tag_275:\n      pop\n      pop\n      pop\n      pop\n      pop\n        /* \"privacy/mixer/MixerVerifier.sol\":4355:4361  delta2 */\n      0x0b\n        /* \"privacy/mixer/MixerVerifier.sol\":4227:4371  _verifyPairing(... */\n      0x02\n      dup1\n      0x20\n      mul\n      mload(0x40)\n      swap1\n      dup2\n      add\n      0x40\n      mstore\n      dup1\n      swap3\n      swap2\n      swap1\n      dup3\n      0x02\n      dup1\n      iszero\n      tag_277\n      jumpi\n      0x20\n      mul\n      dup3\n      add\n      swap2\n    tag_278:\n      dup2\n      sload\n      dup2\n      mstore\n      0x20\n      add\n      swap1\n      0x01\n      add\n      swap1\n      dup1\n      dup4\n      gt\n      tag_278\n      jumpi\n    tag_277:\n      pop\n      pop\n      pop\n      pop\n      pop\n        /* \"privacy/mixer/MixerVerifier.sol\":4227:4241  _verifyPairing */\n      tag_279\n        /* \"privacy/mixer/MixerVerifier.sol\":4227:4371  _verifyPairing(... */\n      jump\t// in\n    tag_267:\n        /* \"privacy/mixer/MixerVerifier.sol\":4220:4371  return _verifyPairing(... */\n      swap2\n      pop\n      pop\n        /* \"privacy/mixer/MixerVerifier.sol\":3909:4378  function _verifyProof(... */\n      swap4\n      swap3\n      pop\n      pop\n      pop\n      jump\t// out\n        /* \"@openzeppelin/contracts/access/Ownable.sol\":1796:1958  function _checkOwner() internal view virtual {... */\n    tag_155:\n        /* \"@openzeppelin/contracts/access/Ownable.sol\":1866:1878  _msgSender() */\n      tag_281\n        /* \"@openzeppelin/contracts/access/Ownable.sol\":1866:1876  _msgSender */\n      tag_282\n        /* \"@openzeppelin/contracts/access/Ownable.sol\":1866:1878  _msgSender() */\n      jump\t// in\n    tag_281:\n        /* \"@openzeppelin/contracts/access/Ownable.sol\":1855:1878  owner() != _msgSender() */\n      0xffffffffffffffffffffffffffffffffffffffff\n      and\n        /* \"@openzeppelin/contracts/access/Ownable.sol\":1855:1862  owner() */\n      tag_283\n        /* \"@openzeppelin/contracts/access/Ownable.sol\":1855:1860  owner */\n      tag_78\n        /* \"@openzeppelin/contracts/access/Ownable.sol\":1855:1862  owner() */\n      jump\t// in\n    tag_283:\n        /* \"@openzeppelin/contracts/access/Ownable.sol\":1855:1878  owner() != _msgSender() */\n      0xffffffffffffffffffffffffffffffffffffffff\n      and\n      eq\n        /* \"@openzeppelin/contracts/access/Ownable.sol\":1851:1952  if (owner() != _msgSender()) {... */\n      tag_284\n      jumpi\n        /* \"@openzeppelin/contracts/access/Ownable.sol\":1928:1940  _msgSender() */\n      tag_285\n        /* \"@openzeppelin/contracts/access/Ownable.sol\":1928:1938  _msgSender */\n      tag_282\n        /* \"@openzeppelin/contracts/access/Ownable.sol\":1928:1940  _msgSender() */\n      jump\t// in\n    tag_285:\n        /* \"@openzeppelin/contracts/access/Ownable.sol\":1901:1941  OwnableUnauthorizedAccount(_msgSender()) */\n      mload(0x40)\n      0x118cdaa700000000000000000000000000000000000000000000000000000000\n      dup2\n      mstore\n      0x04\n      add\n      tag_286\n      swap2\n      swap1\n      tag_80\n      jump\t// in\n    tag_286:\n      mload(0x40)\n      dup1\n      swap2\n      sub\n      swap1\n      revert\n        /* \"@openzeppelin/contracts/access/Ownable.sol\":1851:1952  if (owner() != _msgSender()) {... */\n    tag_284:\n        /* \"@openzeppelin/contracts/access/Ownable.sol\":1796:1958  function _checkOwner() internal view virtual {... */\n      jump\t// out\n        /* \"privacy/mixer/MixerVerifier.sol\":6170:6372  function _verifyInputRanges(uint256[] memory inputs) internal pure {... */\n    tag_198:\n        /* \"privacy/mixer/MixerVerifier.sol\":6252:6261  uint256 i */\n      0x00\n        /* \"privacy/mixer/MixerVerifier.sol\":6247:6366  for (uint256 i = 0; i < inputs.length; i++) {... */\n    tag_288:\n        /* \"privacy/mixer/MixerVerifier.sol\":6271:6277  inputs */\n      dup2\n        /* \"privacy/mixer/MixerVerifier.sol\":6271:6284  inputs.length */\n      mload\n        /* \"privacy/mixer/MixerVerifier.sol\":6267:6268  i */\n      dup2\n        /* \"privacy/mixer/MixerVerifier.sol\":6267:6284  i < inputs.length */\n      lt\n        /* \"privacy/mixer/MixerVerifier.sol\":6247:6366  for (uint256 i = 0; i < inputs.length; i++) {... */\n      iszero\n      tag_289\n      jumpi\n        /* \"privacy/mixer/MixerVerifier.sol\":893:970  21888242871839275222246405745257275088548364400416034343698204186575808495617 */\n      0x30644e72e131a029b85045b68181585d2833e84879b9709143e1f593f0000001\n        /* \"privacy/mixer/MixerVerifier.sol\":6313:6319  inputs */\n      dup3\n        /* \"privacy/mixer/MixerVerifier.sol\":6320:6321  i */\n      dup3\n        /* \"privacy/mixer/MixerVerifier.sol\":6313:6322  inputs[i] */\n      dup2\n      mload\n      dup2\n      lt\n      tag_291\n      jumpi\n      tag_292\n      tag_122\n      jump\t// in\n    tag_292:\n    tag_291:\n      0x20\n      mul\n      0x20\n      add\n      add\n      mload\n        /* \"privacy/mixer/MixerVerifier.sol\":6313:6335  inputs[i] < FIELD_SIZE */\n      lt\n        /* \"privacy/mixer/MixerVerifier.sol\":6305:6355  require(inputs[i] < FIELD_SIZE, \"Input too large\") */\n      tag_293\n      jumpi\n      mload(0x40)\n      0x08c379a000000000000000000000000000000000000000000000000000000000\n      dup2\n      mstore\n      0x04\n      add\n      tag_294\n      swap1\n      tag_295\n      jump\t// in\n    tag_294:\n      mload(0x40)\n      dup1\n      swap2\n      sub\n      swap1\n      revert\n    tag_293:\n        /* \"privacy/mixer/MixerVerifier.sol\":6286:6289  i++ */\n      dup1\n      dup1\n      0x01\n      add\n      swap2\n      pop\n      pop\n        /* \"privacy/mixer/MixerVerifier.sol\":6247:6366  for (uint256 i = 0; i < inputs.length; i++) {... */\n      jump(tag_288)\n    tag_289:\n      pop\n        /* \"privacy/mixer/MixerVerifier.sol\":6170:6372  function _verifyInputRanges(uint256[] memory inputs) internal pure {... */\n      pop\n      jump\t// out\n        /* \"@openzeppelin/contracts/access/Ownable.sol\":2912:3099  function _transferOwnership(address newOwner) internal virtual {... */\n    tag_219:\n        /* \"@openzeppelin/contracts/access/Ownable.sol\":2985:3001  address oldOwner */\n      0x00\n        /* \"@openzeppelin/contracts/access/Ownable.sol\":3004:3010  _owner */\n      dup1\n      0x00\n      swap1\n      sload\n      swap1\n      0x0100\n      exp\n      swap1\n      div\n      0xffffffffffffffffffffffffffffffffffffffff\n      and\n        /* \"@openzeppelin/contracts/access/Ownable.sol\":2985:3010  address oldOwner = _owner */\n      swap1\n      pop\n        /* \"@openzeppelin/contracts/access/Ownable.sol\":3029:3037  newOwner */\n      dup2\n        /* \"@openzeppelin/contracts/access/Ownable.sol\":3020:3026  _owner */\n      0x00\n      dup1\n        /* \"@openzeppelin/contracts/access/Ownable.sol\":3020:3037  _owner = newOwner */\n      0x0100\n      exp\n      dup2\n      sload\n      dup2\n      0xffffffffffffffffffffffffffffffffffffffff\n      mul\n      not\n      and\n      swap1\n      dup4\n      0xffffffffffffffffffffffffffffffffffffffff\n      and\n      mul\n      or\n      swap1\n      sstore\n      pop\n        /* \"@openzeppelin/contracts/access/Ownable.sol\":3083:3091  newOwner */\n      dup2\n        /* \"@openzeppelin/contracts/access/Ownable.sol\":3052:3092  OwnershipTransferred(oldOwner, newOwner) */\n      0xffffffffffffffffffffffffffffffffffffffff\n      and\n        /* \"@openzeppelin/contracts/access/Ownable.sol\":3073:3081  oldOwner */\n      dup2\n        /* \"@openzeppelin/contracts/access/Ownable.sol\":3052:3092  OwnershipTransferred(oldOwner, newOwner) */\n      0xffffffffffffffffffffffffffffffffffffffff\n      and\n      0x8be0079c531659141344cd1fd0a4f28419497f9722a3daafe3b4186f6b6457e0\n      mload(0x40)\n      mload(0x40)\n      dup1\n      swap2\n      sub\n      swap1\n      log3\n        /* \"@openzeppelin/contracts/access/Ownable.sol\":2975:3099  {... */\n      pop\n        /* \"@openzeppelin/contracts/access/Ownable.sol\":2912:3099  function _transferOwnership(address newOwner) internal virtual {... */\n      pop\n      jump\t// out\n        /* \"privacy/mixer/MixerVerifier.sol\":6378:6903  function _addDenomination(... */\n    tag_227:\n        /* \"privacy/mixer/MixerVerifier.sol\":6500:6522  supportedDenominations */\n      0x0f\n        /* \"privacy/mixer/MixerVerifier.sol\":6500:6536  supportedDenominations[denomination] */\n      0x00\n        /* \"privacy/mixer/MixerVerifier.sol\":6523:6535  denomination */\n      dup4\n        /* \"privacy/mixer/MixerVerifier.sol\":6500:6536  supportedDenominations[denomination] */\n      dup2\n      mstore\n      0x20\n      add\n      swap1\n      dup2\n      mstore\n      0x20\n      add\n      0x00\n      keccak256\n      0x00\n      swap1\n      sload\n      swap1\n      0x0100\n      exp\n      swap1\n      div\n      0xff\n      and\n        /* \"privacy/mixer/MixerVerifier.sol\":6499:6536  !supportedDenominations[denomination] */\n      iszero\n        /* \"privacy/mixer/MixerVerifier.sol\":6491:6560  require(!supportedDenominations[denomination], \"Denomination exists\") */\n      tag_298\n      jumpi\n      mload(0x40)\n      0x08c379a000000000000000000000000000000000000000000000000000000000\n      dup2\n      mstore\n      0x04\n      add\n      tag_299\n      swap1\n      tag_300\n      jump\t// in\n    tag_299:\n      mload(0x40)\n      dup1\n      swap2\n      sub\n      swap1\n      revert\n    tag_298:\n        /* \"privacy/mixer/MixerVerifier.sol\":6590:6591  0 */\n      0x00\n        /* \"privacy/mixer/MixerVerifier.sol\":6578:6580  ic */\n      dup2\n        /* \"privacy/mixer/MixerVerifier.sol\":6578:6587  ic.length */\n      mload\n        /* \"privacy/mixer/MixerVerifier.sol\":6578:6591  ic.length > 0 */\n      gt\n        /* \"privacy/mixer/MixerVerifier.sol\":6570:6610  require(ic.length > 0, \"Empty IC array\") */\n      tag_301\n      jumpi\n      mload(0x40)\n      0x08c379a000000000000000000000000000000000000000000000000000000000\n      dup2\n      mstore\n      0x04\n      add\n      tag_302\n      swap1\n      tag_303\n      jump\t// in\n    tag_302:\n      mload(0x40)\n      dup1\n      swap2\n      sub\n      swap1\n      revert\n    tag_301:\n        /* \"privacy/mixer/MixerVerifier.sol\":6660:6664  true */\n      0x01\n        /* \"privacy/mixer/MixerVerifier.sol\":6621:6643  supportedDenominations */\n      0x0f\n        /* \"privacy/mixer/MixerVerifier.sol\":6621:6657  supportedDenominations[denomination] */\n      0x00\n        /* \"privacy/mixer/MixerVerifier.sol\":6644:6656  denomination */\n      dup5\n        /* \"privacy/mixer/MixerVerifier.sol\":6621:6657  supportedDenominations[denomination] */\n      dup2\n      mstore\n      0x20\n      add\n      swap1\n      dup2\n      mstore\n      0x20\n      add\n      0x00\n      keccak256\n      0x00\n        /* \"privacy/mixer/MixerVerifier.sol\":6621:6664  supportedDenominations[denomination] = true */\n      0x0100\n      exp\n      dup2\n      sload\n      dup2\n      0xff\n      mul\n      not\n      and\n      swap1\n      dup4\n      iszero\n      iszero\n      mul\n      or\n      swap1\n      sstore\n      pop\n        /* \"privacy/mixer/MixerVerifier.sol\":6674:6687  denominations */\n      0x10\n        /* \"privacy/mixer/MixerVerifier.sol\":6693:6705  denomination */\n      dup3\n        /* \"privacy/mixer/MixerVerifier.sol\":6674:6706  denominations.push(denomination) */\n      swap1\n      dup1\n      0x01\n      dup2\n      sload\n      add\n      dup1\n      dup3\n      sstore\n      dup1\n      swap2\n      pop\n      pop\n      0x01\n      swap1\n      sub\n      swap1\n      0x00\n      mstore\n      keccak256(0x00, 0x20)\n      add\n      0x00\n      swap1\n      swap2\n      swap1\n      swap2\n      swap1\n      swap2\n      pop\n      sstore\n        /* \"privacy/mixer/MixerVerifier.sol\":6730:6739  uint256 i */\n      0x00\n        /* \"privacy/mixer/MixerVerifier.sol\":6725:6833  for (uint256 i = 0; i < ic.length; i++) {... */\n    tag_305:\n        /* \"privacy/mixer/MixerVerifier.sol\":6749:6751  ic */\n      dup2\n        /* \"privacy/mixer/MixerVerifier.sol\":6749:6758  ic.length */\n      mload\n        /* \"privacy/mixer/MixerVerifier.sol\":6745:6746  i */\n      dup2\n        /* \"privacy/mixer/MixerVerifier.sol\":6745:6758  i < ic.length */\n      lt\n        /* \"privacy/mixer/MixerVerifier.sol\":6725:6833  for (uint256 i = 0; i < ic.length; i++) {... */\n      iszero\n      tag_306\n      jumpi\n        /* \"privacy/mixer/MixerVerifier.sol\":6779:6796  inputCoefficients */\n      0x0d\n        /* \"privacy/mixer/MixerVerifier.sol\":6779:6810  inputCoefficients[denomination] */\n      0x00\n        /* \"privacy/mixer/MixerVerifier.sol\":6797:6809  denomination */\n      dup5\n        /* \"privacy/mixer/MixerVerifier.sol\":6779:6810  inputCoefficients[denomination] */\n      dup2\n      mstore\n      0x20\n      add\n      swap1\n      dup2\n      mstore\n      0x20\n      add\n      0x00\n      keccak256\n        /* \"privacy/mixer/MixerVerifier.sol\":6816:6818  ic */\n      dup3\n        /* \"privacy/mixer/MixerVerifier.sol\":6819:6820  i */\n      dup3\n        /* \"privacy/mixer/MixerVerifier.sol\":6816:6821  ic[i] */\n      dup2\n      mload\n      dup2\n      lt\n      tag_308\n      jumpi\n      tag_309\n      tag_122\n      jump\t// in\n    tag_309:\n    tag_308:\n      0x20\n      mul\n      0x20\n      add\n      add\n      mload\n        /* \"privacy/mixer/MixerVerifier.sol\":6779:6822  inputCoefficients[denomination].push(ic[i]) */\n      swap1\n      dup1\n      0x01\n      dup2\n      sload\n      add\n      dup1\n      dup3\n      sstore\n      dup1\n      swap2\n      pop\n      pop\n      0x01\n      swap1\n      sub\n      swap1\n      0x00\n      mstore\n      keccak256(0x00, 0x20)\n      swap1\n      0x02\n      mul\n      add\n      0x00\n      swap1\n      swap2\n      swap1\n      swap2\n      swap1\n      swap2\n      pop\n      swap1\n      0x02\n      tag_311\n      swap3\n      swap2\n      swap1\n      tag_312\n      jump\t// in\n    tag_311:\n      pop\n        /* \"privacy/mixer/MixerVerifier.sol\":6760:6763  i++ */\n      dup1\n      dup1\n      0x01\n      add\n      swap2\n      pop\n      pop\n        /* \"privacy/mixer/MixerVerifier.sol\":6725:6833  for (uint256 i = 0; i < ic.length; i++) {... */\n      jump(tag_305)\n    tag_306:\n      pop\n        /* \"privacy/mixer/MixerVerifier.sol\":6866:6878  denomination */\n      dup2\n        /* \"privacy/mixer/MixerVerifier.sol\":6848:6896  DenominationAdded(denomination, block.timestamp) */\n      0xa1339eb0c83d6ef984978de4b1183619df17a5dcbb74c7d120d193fa5586feec\n        /* \"privacy/mixer/MixerVerifier.sol\":6880:6895  block.timestamp */\n      timestamp\n        /* \"privacy/mixer/MixerVerifier.sol\":6848:6896  DenominationAdded(denomination, block.timestamp) */\n      mload(0x40)\n      tag_313\n      swap2\n      swap1\n      tag_30\n      jump\t// in\n    tag_313:\n      mload(0x40)\n      dup1\n      swap2\n      sub\n      swap1\n      log2\n        /* \"privacy/mixer/MixerVerifier.sol\":6378:6903  function _addDenomination(... */\n      pop\n      pop\n      jump\t// out\n        /* \"privacy/mixer/MixerVerifier.sol\":4384:4863  function _computeLinearCombination(... */\n    tag_266:\n        /* \"privacy/mixer/MixerVerifier.sol\":4501:4518  uint256[2] memory */\n      tag_314\n      tag_315\n      jump\t// in\n    tag_314:\n        /* \"privacy/mixer/MixerVerifier.sol\":4555:4577  uint256[2] memory vk_x */\n      0x00\n        /* \"privacy/mixer/MixerVerifier.sol\":4580:4582  ic */\n      dup3\n        /* \"privacy/mixer/MixerVerifier.sol\":4583:4584  0 */\n      0x00\n        /* \"privacy/mixer/MixerVerifier.sol\":4580:4585  ic[0] */\n      dup2\n      mload\n      dup2\n      lt\n      tag_317\n      jumpi\n      tag_318\n      tag_122\n      jump\t// in\n    tag_318:\n    tag_317:\n      0x20\n      mul\n      0x20\n      add\n      add\n      mload\n        /* \"privacy/mixer/MixerVerifier.sol\":4555:4585  uint256[2] memory vk_x = ic[0] */\n      swap1\n      pop\n        /* \"privacy/mixer/MixerVerifier.sol\":4597:4606  uint256 i */\n      0x00\n        /* \"privacy/mixer/MixerVerifier.sol\":4592:4843  for (uint256 i = 0; i < inputs.length; i++) {... */\n    tag_319:\n        /* \"privacy/mixer/MixerVerifier.sol\":4616:4622  inputs */\n      dup5\n        /* \"privacy/mixer/MixerVerifier.sol\":4616:4629  inputs.length */\n      mload\n        /* \"privacy/mixer/MixerVerifier.sol\":4612:4613  i */\n      dup2\n        /* \"privacy/mixer/MixerVerifier.sol\":4612:4629  i < inputs.length */\n      lt\n        /* \"privacy/mixer/MixerVerifier.sol\":4592:4843  for (uint256 i = 0; i < inputs.length; i++) {... */\n      iszero\n      tag_320\n      jumpi\n        /* \"privacy/mixer/MixerVerifier.sol\":893:970  21888242871839275222246405745257275088548364400416034343698204186575808495617 */\n      0x30644e72e131a029b85045b68181585d2833e84879b9709143e1f593f0000001\n        /* \"privacy/mixer/MixerVerifier.sol\":4654:4660  inputs */\n      dup6\n        /* \"privacy/mixer/MixerVerifier.sol\":4661:4662  i */\n      dup3\n        /* \"privacy/mixer/MixerVerifier.sol\":4654:4663  inputs[i] */\n      dup2\n      mload\n      dup2\n      lt\n      tag_322\n      jumpi\n      tag_323\n      tag_122\n      jump\t// in\n    tag_323:\n    tag_322:\n      0x20\n      mul\n      0x20\n      add\n      add\n      mload\n        /* \"privacy/mixer/MixerVerifier.sol\":4654:4676  inputs[i] < FIELD_SIZE */\n      lt\n        /* \"privacy/mixer/MixerVerifier.sol\":4646:4696  require(inputs[i] < FIELD_SIZE, \"Input too large\") */\n      tag_324\n      jumpi\n      mload(0x40)\n      0x08c379a000000000000000000000000000000000000000000000000000000000\n      dup2\n      mstore\n      0x04\n      add\n      tag_325\n      swap1\n      tag_295\n      jump\t// in\n    tag_325:\n      mload(0x40)\n      dup1\n      swap2\n      sub\n      swap1\n      revert\n    tag_324:\n        /* \"privacy/mixer/MixerVerifier.sol\":4716:4725  uint256 x */\n      0x00\n        /* \"privacy/mixer/MixerVerifier.sol\":4727:4736  uint256 y */\n      dup1\n        /* \"privacy/mixer/MixerVerifier.sol\":4740:4772  _scalarMul(ic[i + 1], inputs[i]) */\n      tag_326\n        /* \"privacy/mixer/MixerVerifier.sol\":4751:4753  ic */\n      dup7\n        /* \"privacy/mixer/MixerVerifier.sol\":4758:4759  1 */\n      0x01\n        /* \"privacy/mixer/MixerVerifier.sol\":4754:4755  i */\n      dup6\n        /* \"privacy/mixer/MixerVerifier.sol\":4754:4759  i + 1 */\n      tag_327\n      swap2\n      swap1\n      tag_261\n      jump\t// in\n    tag_327:\n        /* \"privacy/mixer/MixerVerifier.sol\":4751:4760  ic[i + 1] */\n      dup2\n      mload\n      dup2\n      lt\n      tag_328\n      jumpi\n      tag_329\n      tag_122\n      jump\t// in\n    tag_329:\n    tag_328:\n      0x20\n      mul\n      0x20\n      add\n      add\n      mload\n        /* \"privacy/mixer/MixerVerifier.sol\":4762:4768  inputs */\n      dup9\n        /* \"privacy/mixer/MixerVerifier.sol\":4769:4770  i */\n      dup6\n        /* \"privacy/mixer/MixerVerifier.sol\":4762:4771  inputs[i] */\n      dup2\n      mload\n      dup2\n      lt\n      tag_330\n      jumpi\n      tag_331\n      tag_122\n      jump\t// in\n    tag_331:\n    tag_330:\n      0x20\n      mul\n      0x20\n      add\n      add\n      mload\n        /* \"privacy/mixer/MixerVerifier.sol\":4740:4750  _scalarMul */\n      tag_332\n        /* \"privacy/mixer/MixerVerifier.sol\":4740:4772  _scalarMul(ic[i + 1], inputs[i]) */\n      jump\t// in\n    tag_326:\n        /* \"privacy/mixer/MixerVerifier.sol\":4715:4772  (uint256 x, uint256 y) = _scalarMul(ic[i + 1], inputs[i]) */\n      swap2\n      pop\n      swap2\n      pop\n        /* \"privacy/mixer/MixerVerifier.sol\":4803:4836  _pointAdd(vk_x[0], vk_x[1], x, y) */\n      tag_333\n        /* \"privacy/mixer/MixerVerifier.sol\":4813:4817  vk_x */\n      dup5\n        /* \"privacy/mixer/MixerVerifier.sol\":4818:4819  0 */\n      0x00\n        /* \"privacy/mixer/MixerVerifier.sol\":4813:4820  vk_x[0] */\n      0x02\n      dup2\n      lt\n      tag_334\n      jumpi\n      tag_335\n      tag_122\n      jump\t// in\n    tag_335:\n    tag_334:\n      0x20\n      mul\n      add\n      mload\n        /* \"privacy/mixer/MixerVerifier.sol\":4822:4826  vk_x */\n      dup6\n        /* \"privacy/mixer/MixerVerifier.sol\":4827:4828  1 */\n      0x01\n        /* \"privacy/mixer/MixerVerifier.sol\":4822:4829  vk_x[1] */\n      0x02\n      dup2\n      lt\n      tag_336\n      jumpi\n      tag_337\n      tag_122\n      jump\t// in\n    tag_337:\n    tag_336:\n      0x20\n      mul\n      add\n      mload\n        /* \"privacy/mixer/MixerVerifier.sol\":4831:4832  x */\n      dup5\n        /* \"privacy/mixer/MixerVerifier.sol\":4834:4835  y */\n      dup5\n        /* \"privacy/mixer/MixerVerifier.sol\":4803:4812  _pointAdd */\n      tag_338\n        /* \"privacy/mixer/MixerVerifier.sol\":4803:4836  _pointAdd(vk_x[0], vk_x[1], x, y) */\n      jump\t// in\n    tag_333:\n        /* \"privacy/mixer/MixerVerifier.sol\":4783:4787  vk_x */\n      dup6\n        /* \"privacy/mixer/MixerVerifier.sol\":4788:4789  0 */\n      0x00\n        /* \"privacy/mixer/MixerVerifier.sol\":4783:4790  vk_x[0] */\n      0x02\n      dup2\n      lt\n      tag_339\n      jumpi\n      tag_340\n      tag_122\n      jump\t// in\n    tag_340:\n    tag_339:\n      0x20\n      mul\n      add\n        /* \"privacy/mixer/MixerVerifier.sol\":4792:4796  vk_x */\n      dup7\n        /* \"privacy/mixer/MixerVerifier.sol\":4797:4798  1 */\n      0x01\n        /* \"privacy/mixer/MixerVerifier.sol\":4792:4799  vk_x[1] */\n      0x02\n      dup2\n      lt\n      tag_341\n      jumpi\n      tag_342\n      tag_122\n      jump\t// in\n    tag_342:\n    tag_341:\n      0x20\n      mul\n      add\n        /* \"privacy/mixer/MixerVerifier.sol\":4782:4836  (vk_x[0], vk_x[1]) = _pointAdd(vk_x[0], vk_x[1], x, y) */\n      dup3\n      dup2\n      mstore\n      pop\n      dup3\n      dup2\n      mstore\n      pop\n      pop\n      pop\n        /* \"privacy/mixer/MixerVerifier.sol\":4636:4843  {... */\n      pop\n      pop\n        /* \"privacy/mixer/MixerVerifier.sol\":4631:4634  i++ */\n      dup1\n      dup1\n      0x01\n      add\n      swap2\n      pop\n      pop\n        /* \"privacy/mixer/MixerVerifier.sol\":4592:4843  for (uint256 i = 0; i < inputs.length; i++) {... */\n      jump(tag_319)\n    tag_320:\n      pop\n        /* \"privacy/mixer/MixerVerifier.sol\":4856:4860  vk_x */\n      dup1\n        /* \"privacy/mixer/MixerVerifier.sol\":4849:4860  return vk_x */\n      swap2\n      pop\n      pop\n        /* \"privacy/mixer/MixerVerifier.sol\":4384:4863  function _computeLinearCombination(... */\n      swap3\n      swap2\n      pop\n      pop\n      jump\t// out\n        /* \"privacy/mixer/MixerVerifier.sol\":4869:6164  function _verifyPairing(... */\n    tag_279:\n        /* \"privacy/mixer/MixerVerifier.sol\":5152:5156  bool */\n      0x00\n        /* \"privacy/mixer/MixerVerifier.sol\":5168:5192  uint256[24] memory input */\n      tag_344\n      tag_345\n      jump\t// in\n    tag_344:\n        /* \"privacy/mixer/MixerVerifier.sol\":5214:5223  proofData */\n      dup8\n        /* \"privacy/mixer/MixerVerifier.sol\":5214:5225  proofData.a */\n      0x00\n      add\n      mload\n        /* \"privacy/mixer/MixerVerifier.sol\":5226:5227  0 */\n      0x00\n        /* \"privacy/mixer/MixerVerifier.sol\":5214:5228  proofData.a[0] */\n      0x02\n      dup2\n      lt\n      tag_346\n      jumpi\n      tag_347\n      tag_122\n      jump\t// in\n    tag_347:\n    tag_346:\n      0x20\n      mul\n      add\n      mload\n        /* \"privacy/mixer/MixerVerifier.sol\":5203:5208  input */\n      dup2\n        /* \"privacy/mixer/MixerVerifier.sol\":5209:5210  0 */\n      0x00\n        /* \"privacy/mixer/MixerVerifier.sol\":5203:5211  input[0] */\n      0x18\n      dup2\n      lt\n      tag_348\n      jumpi\n      tag_349\n      tag_122\n      jump\t// in\n    tag_349:\n    tag_348:\n      0x20\n      mul\n      add\n        /* \"privacy/mixer/MixerVerifier.sol\":5203:5228  input[0] = proofData.a[0] */\n      dup2\n      dup2\n      mstore\n      pop\n      pop\n        /* \"privacy/mixer/MixerVerifier.sol\":5249:5258  proofData */\n      dup8\n        /* \"privacy/mixer/MixerVerifier.sol\":5249:5260  proofData.a */\n      0x00\n      add\n      mload\n        /* \"privacy/mixer/MixerVerifier.sol\":5261:5262  1 */\n      0x01\n        /* \"privacy/mixer/MixerVerifier.sol\":5249:5263  proofData.a[1] */\n      0x02\n      dup2\n      lt\n      tag_350\n      jumpi\n      tag_351\n      tag_122\n      jump\t// in\n    tag_351:\n    tag_350:\n      0x20\n      mul\n      add\n      mload\n        /* \"privacy/mixer/MixerVerifier.sol\":5238:5243  input */\n      dup2\n        /* \"privacy/mixer/MixerVerifier.sol\":5244:5245  1 */\n      0x01\n        /* \"privacy/mixer/MixerVerifier.sol\":5238:5246  input[1] */\n      0x18\n      dup2\n      lt\n      tag_352\n      jumpi\n      tag_353\n      tag_122\n      jump\t// in\n    tag_353:\n    tag_352:\n      0x20\n      mul\n      add\n        /* \"privacy/mixer/MixerVerifier.sol\":5238:5263  input[1] = proofData.a[1] */\n      dup2\n      dup2\n      mstore\n      pop\n      pop\n        /* \"privacy/mixer/MixerVerifier.sol\":5284:5293  proofData */\n      dup8\n        /* \"privacy/mixer/MixerVerifier.sol\":5284:5295  proofData.b */\n      0x20\n      add\n      mload\n        /* \"privacy/mixer/MixerVerifier.sol\":5296:5297  0 */\n      0x00\n        /* \"privacy/mixer/MixerVerifier.sol\":5284:5298  proofData.b[0] */\n      0x02\n      dup2\n      lt\n      tag_354\n      jumpi\n      tag_355\n      tag_122\n      jump\t// in\n    tag_355:\n    tag_354:\n      0x20\n      mul\n      add\n      mload\n        /* \"privacy/mixer/MixerVerifier.sol\":5299:5300  0 */\n      0x00\n        /* \"privacy/mixer/MixerVerifier.sol\":5284:5301  proofData.b[0][0] */\n      0x02\n      dup2\n      lt\n      tag_356\n      jumpi\n      tag_357\n      tag_122\n      jump\t// in\n    tag_357:\n    tag_356:\n      0x20\n      mul\n      add\n      mload\n        /* \"privacy/mixer/MixerVerifier.sol\":5273:5278  input */\n      dup2\n        /* \"privacy/mixer/MixerVerifier.sol\":5279:5280  2 */\n      0x02\n        /* \"privacy/mixer/MixerVerifier.sol\":5273:5281  input[2] */\n      0x18\n      dup2\n      lt\n      tag_358\n      jumpi\n      tag_359\n      tag_122\n      jump\t// in\n    tag_359:\n    tag_358:\n      0x20\n      mul\n      add\n        /* \"privacy/mixer/MixerVerifier.sol\":5273:5301  input[2] = proofData.b[0][0] */\n      dup2\n      dup2\n      mstore\n      pop\n      pop\n        /* \"privacy/mixer/MixerVerifier.sol\":5322:5331  proofData */\n      dup8\n        /* \"privacy/mixer/MixerVerifier.sol\":5322:5333  proofData.b */\n      0x20\n      add\n      mload\n        /* \"privacy/mixer/MixerVerifier.sol\":5334:5335  0 */\n      0x00\n        /* \"privacy/mixer/MixerVerifier.sol\":5322:5336  proofData.b[0] */\n      0x02\n      dup2\n      lt\n      tag_360\n      jumpi\n      tag_361\n      tag_122\n      jump\t// in\n    tag_361:\n    tag_360:\n      0x20\n      mul\n      add\n      mload\n        /* \"privacy/mixer/MixerVerifier.sol\":5337:5338  1 */\n      0x01\n        /* \"privacy/mixer/MixerVerifier.sol\":5322:5339  proofData.b[0][1] */\n      0x02\n      dup2\n      lt\n      tag_362\n      jumpi\n      tag_363\n      tag_122\n      jump\t// in\n    tag_363:\n    tag_362:\n      0x20\n      mul\n      add\n      mload\n        /* \"privacy/mixer/MixerVerifier.sol\":5311:5316  input */\n      dup2\n        /* \"privacy/mixer/MixerVerifier.sol\":5317:5318  3 */\n      0x03\n        /* \"privacy/mixer/MixerVerifier.sol\":5311:5319  input[3] */\n      0x18\n      dup2\n      lt\n      tag_364\n      jumpi\n      tag_365\n      tag_122\n      jump\t// in\n    tag_365:\n    tag_364:\n      0x20\n      mul\n      add\n        /* \"privacy/mixer/MixerVerifier.sol\":5311:5339  input[3] = proofData.b[0][1] */\n      dup2\n      dup2\n      mstore\n      pop\n      pop\n        /* \"privacy/mixer/MixerVerifier.sol\":5360:5369  proofData */\n      dup8\n        /* \"privacy/mixer/MixerVerifier.sol\":5360:5371  proofData.b */\n      0x20\n      add\n      mload\n        /* \"privacy/mixer/MixerVerifier.sol\":5372:5373  1 */\n      0x01\n        /* \"privacy/mixer/MixerVerifier.sol\":5360:5374  proofData.b[1] */\n      0x02\n      dup2\n      lt\n      tag_366\n      jumpi\n      tag_367\n      tag_122\n      jump\t// in\n    tag_367:\n    tag_366:\n      0x20\n      mul\n      add\n      mload\n        /* \"privacy/mixer/MixerVerifier.sol\":5375:5376  0 */\n      0x00\n        /* \"privacy/mixer/MixerVerifier.sol\":5360:5377  proofData.b[1][0] */\n      0x02\n      dup2\n      lt\n      tag_368\n      jumpi\n      tag_369\n      tag_122\n      jump\t// in\n    tag_369:\n    tag_368:\n      0x20\n      mul\n      add\n      mload\n        /* \"privacy/mixer/MixerVerifier.sol\":5349:5354  input */\n      dup2\n        /* \"privacy/mixer/MixerVerifier.sol\":5355:5356  4 */\n      0x04\n        /* \"privacy/mixer/MixerVerifier.sol\":5349:5357  input[4] */\n      0x18\n      dup2\n      lt\n      tag_370\n      jumpi\n      tag_371\n      tag_122\n      jump\t// in\n    tag_371:\n    tag_370:\n      0x20\n      mul\n      add\n        /* \"privacy/mixer/MixerVerifier.sol\":5349:5377  input[4] = proofData.b[1][0] */\n      dup2\n      dup2\n      mstore\n      pop\n      pop\n        /* \"privacy/mixer/MixerVerifier.sol\":5398:5407  proofData */\n      dup8\n        /* \"privacy/mixer/MixerVerifier.sol\":5398:5409  proofData.b */\n      0x20\n      add\n      mload\n        /* \"privacy/mixer/MixerVerifier.sol\":5410:5411  1 */\n      0x01\n        /* \"privacy/mixer/MixerVerifier.sol\":5398:5412  proofData.b[1] */\n      0x02\n      dup2\n      lt\n      tag_372\n      jumpi\n      tag_373\n      tag_122\n      jump\t// in\n    tag_373:\n    tag_372:\n      0x20\n      mul\n      add\n      mload\n        /* \"privacy/mixer/MixerVerifier.sol\":5413:5414  1 */\n      0x01\n        /* \"privacy/mixer/MixerVerifier.sol\":5398:5415  proofData.b[1][1] */\n      0x02\n      dup2\n      lt\n      tag_374\n      jumpi\n      tag_375\n      tag_122\n      jump\t// in\n    tag_375:\n    tag_374:\n      0x20\n      mul\n      add\n      mload\n        /* \"privacy/mixer/MixerVerifier.sol\":5387:5392  input */\n      dup2\n        /* \"privacy/mixer/MixerVerifier.sol\":5393:5394  5 */\n      0x05\n        /* \"privacy/mixer/MixerVerifier.sol\":5387:5395  input[5] */\n      0x18\n      dup2\n      lt\n      tag_376\n      jumpi\n      tag_377\n      tag_122\n      jump\t// in\n    tag_377:\n    tag_376:\n      0x20\n      mul\n      add\n        /* \"privacy/mixer/MixerVerifier.sol\":5387:5415  input[5] = proofData.b[1][1] */\n      dup2\n      dup2\n      mstore\n      pop\n      pop\n        /* \"privacy/mixer/MixerVerifier.sol\":5436:5449  alpha1_points */\n      dup6\n        /* \"privacy/mixer/MixerVerifier.sol\":5450:5451  0 */\n      0x00\n        /* \"privacy/mixer/MixerVerifier.sol\":5436:5452  alpha1_points[0] */\n      0x02\n      dup2\n      lt\n      tag_378\n      jumpi\n      tag_379\n      tag_122\n      jump\t// in\n    tag_379:\n    tag_378:\n      0x20\n      mul\n      add\n      mload\n        /* \"privacy/mixer/MixerVerifier.sol\":5425:5430  input */\n      dup2\n        /* \"privacy/mixer/MixerVerifier.sol\":5431:5432  6 */\n      0x06\n        /* \"privacy/mixer/MixerVerifier.sol\":5425:5433  input[6] */\n      0x18\n      dup2\n      lt\n      tag_380\n      jumpi\n      tag_381\n      tag_122\n      jump\t// in\n    tag_381:\n    tag_380:\n      0x20\n      mul\n      add\n        /* \"privacy/mixer/MixerVerifier.sol\":5425:5452  input[6] = alpha1_points[0] */\n      dup2\n      dup2\n      mstore\n      pop\n      pop\n        /* \"privacy/mixer/MixerVerifier.sol\":5473:5486  alpha1_points */\n      dup6\n        /* \"privacy/mixer/MixerVerifier.sol\":5487:5488  1 */\n      0x01\n        /* \"privacy/mixer/MixerVerifier.sol\":5473:5489  alpha1_points[1] */\n      0x02\n      dup2\n      lt\n      tag_382\n      jumpi\n      tag_383\n      tag_122\n      jump\t// in\n    tag_383:\n    tag_382:\n      0x20\n      mul\n      add\n      mload\n        /* \"privacy/mixer/MixerVerifier.sol\":5462:5467  input */\n      dup2\n        /* \"privacy/mixer/MixerVerifier.sol\":5468:5469  7 */\n      0x07\n        /* \"privacy/mixer/MixerVerifier.sol\":5462:5470  input[7] */\n      0x18\n      dup2\n      lt\n      tag_384\n      jumpi\n      tag_385\n      tag_122\n      jump\t// in\n    tag_385:\n    tag_384:\n      0x20\n      mul\n      add\n        /* \"privacy/mixer/MixerVerifier.sol\":5462:5489  input[7] = alpha1_points[1] */\n      dup2\n      dup2\n      mstore\n      pop\n      pop\n        /* \"privacy/mixer/MixerVerifier.sol\":5510:5522  beta2_points */\n      dup5\n        /* \"privacy/mixer/MixerVerifier.sol\":5523:5524  0 */\n      0x00\n        /* \"privacy/mixer/MixerVerifier.sol\":5510:5525  beta2_points[0] */\n      0x02\n      dup2\n      lt\n      tag_386\n      jumpi\n      tag_387\n      tag_122\n      jump\t// in\n    tag_387:\n    tag_386:\n      0x20\n      mul\n      add\n      mload\n        /* \"privacy/mixer/MixerVerifier.sol\":5526:5527  0 */\n      0x00\n        /* \"privacy/mixer/MixerVerifier.sol\":5510:5528  beta2_points[0][0] */\n      0x02\n      dup2\n      lt\n      tag_388\n      jumpi\n      tag_389\n      tag_122\n      jump\t// in\n    tag_389:\n    tag_388:\n      0x20\n      mul\n      add\n      mload\n        /* \"privacy/mixer/MixerVerifier.sol\":5499:5504  input */\n      dup2\n        /* \"privacy/mixer/MixerVerifier.sol\":5505:5506  8 */\n      0x08\n        /* \"privacy/mixer/MixerVerifier.sol\":5499:5507  input[8] */\n      0x18\n      dup2\n      lt\n      tag_390\n      jumpi\n      tag_391\n      tag_122\n      jump\t// in\n    tag_391:\n    tag_390:\n      0x20\n      mul\n      add\n        /* \"privacy/mixer/MixerVerifier.sol\":5499:5528  input[8] = beta2_points[0][0] */\n      dup2\n      dup2\n      mstore\n      pop\n      pop\n        /* \"privacy/mixer/MixerVerifier.sol\":5549:5561  beta2_points */\n      dup5\n        /* \"privacy/mixer/MixerVerifier.sol\":5562:5563  0 */\n      0x00\n        /* \"privacy/mixer/MixerVerifier.sol\":5549:5564  beta2_points[0] */\n      0x02\n      dup2\n      lt\n      tag_392\n      jumpi\n      tag_393\n      tag_122\n      jump\t// in\n    tag_393:\n    tag_392:\n      0x20\n      mul\n      add\n      mload\n        /* \"privacy/mixer/MixerVerifier.sol\":5565:5566  1 */\n      0x01\n        /* \"privacy/mixer/MixerVerifier.sol\":5549:5567  beta2_points[0][1] */\n      0x02\n      dup2\n      lt\n      tag_394\n      jumpi\n      tag_395\n      tag_122\n      jump\t// in\n    tag_395:\n    tag_394:\n      0x20\n      mul\n      add\n      mload\n        /* \"privacy/mixer/MixerVerifier.sol\":5538:5543  input */\n      dup2\n        /* \"privacy/mixer/MixerVerifier.sol\":5544:5545  9 */\n      0x09\n        /* \"privacy/mixer/MixerVerifier.sol\":5538:5546  input[9] */\n      0x18\n      dup2\n      lt\n      tag_396\n      jumpi\n      tag_397\n      tag_122\n      jump\t// in\n    tag_397:\n    tag_396:\n      0x20\n      mul\n      add\n        /* \"privacy/mixer/MixerVerifier.sol\":5538:5567  input[9] = beta2_points[0][1] */\n      dup2\n      dup2\n      mstore\n      pop\n      pop\n        /* \"privacy/mixer/MixerVerifier.sol\":5589:5601  beta2_points */\n      dup5\n        /* \"privacy/mixer/MixerVerifier.sol\":5602:5603  1 */\n      0x01\n        /* \"privacy/mixer/MixerVerifier.sol\":5589:5604  beta2_points[1] */\n      0x02\n      dup2\n      lt\n      tag_398\n      jumpi\n      tag_399\n      tag_122\n      jump\t// in\n    tag_399:\n    tag_398:\n      0x20\n      mul\n      add\n      mload\n        /* \"privacy/mixer/MixerVerifier.sol\":5605:5606  0 */\n      0x00\n        /* \"privacy/mixer/MixerVerifier.sol\":5589:5607  beta2_points[1][0] */\n      0x02\n      dup2\n      lt\n      tag_400\n      jumpi\n      tag_401\n      tag_122\n      jump\t// in\n    tag_401:\n    tag_400:\n      0x20\n      mul\n      add\n      mload\n        /* \"privacy/mixer/MixerVerifier.sol\":5577:5582  input */\n      dup2\n        /* \"privacy/mixer/MixerVerifier.sol\":5583:5585  10 */\n      0x0a\n        /* \"privacy/mixer/MixerVerifier.sol\":5577:5586  input[10] */\n      0x18\n      dup2\n      lt\n      tag_402\n      jumpi\n      tag_403\n      tag_122\n      jump\t// in\n    tag_403:\n    tag_402:\n      0x20\n      mul\n      add\n        /* \"privacy/mixer/MixerVerifier.sol\":5577:5607  input[10] = beta2_points[1][0] */\n      dup2\n      dup2\n      mstore\n      pop\n      pop\n        /* \"privacy/mixer/MixerVerifier.sol\":5629:5641  beta2_points */\n      dup5\n        /* \"privacy/mixer/MixerVerifier.sol\":5642:5643  1 */\n      0x01\n        /* \"privacy/mixer/MixerVerifier.sol\":5629:5644  beta2_points[1] */\n      0x02\n      dup2\n      lt\n      tag_404\n      jumpi\n      tag_405\n      tag_122\n      jump\t// in\n    tag_405:\n    tag_404:\n      0x20\n      mul\n      add\n      mload\n        /* \"privacy/mixer/MixerVerifier.sol\":5645:5646  1 */\n      0x01\n        /* \"privacy/mixer/MixerVerifier.sol\":5629:5647  beta2_points[1][1] */\n      0x02\n      dup2\n      lt\n      tag_406\n      jumpi\n      tag_407\n      tag_122\n      jump\t// in\n    tag_407:\n    tag_406:\n      0x20\n      mul\n      add\n      mload\n        /* \"privacy/mixer/MixerVerifier.sol\":5617:5622  input */\n      dup2\n        /* \"privacy/mixer/MixerVerifier.sol\":5623:5625  11 */\n      0x0b\n        /* \"privacy/mixer/MixerVerifier.sol\":5617:5626  input[11] */\n      0x18\n      dup2\n      lt\n      tag_408\n      jumpi\n      tag_409\n      tag_122\n      jump\t// in\n    tag_409:\n    tag_408:\n      0x20\n      mul\n      add\n        /* \"privacy/mixer/MixerVerifier.sol\":5617:5647  input[11] = beta2_points[1][1] */\n      dup2\n      dup2\n      mstore\n      pop\n      pop\n        /* \"privacy/mixer/MixerVerifier.sol\":5669:5673  vk_x */\n      dup7\n        /* \"privacy/mixer/MixerVerifier.sol\":5674:5675  0 */\n      0x00\n        /* \"privacy/mixer/MixerVerifier.sol\":5669:5676  vk_x[0] */\n      0x02\n      dup2\n      lt\n      tag_410\n      jumpi\n      tag_411\n      tag_122\n      jump\t// in\n    tag_411:\n    tag_410:\n      0x20\n      mul\n      add\n      mload\n        /* \"privacy/mixer/MixerVerifier.sol\":5657:5662  input */\n      dup2\n        /* \"privacy/mixer/MixerVerifier.sol\":5663:5665  12 */\n      0x0c\n        /* \"privacy/mixer/MixerVerifier.sol\":5657:5666  input[12] */\n      0x18\n      dup2\n      lt\n      tag_412\n      jumpi\n      tag_413\n      tag_122\n      jump\t// in\n    tag_413:\n    tag_412:\n      0x20\n      mul\n      add\n        /* \"privacy/mixer/MixerVerifier.sol\":5657:5676  input[12] = vk_x[0] */\n      dup2\n      dup2\n      mstore\n      pop\n      pop\n        /* \"privacy/mixer/MixerVerifier.sol\":5698:5702  vk_x */\n      dup7\n        /* \"privacy/mixer/MixerVerifier.sol\":5703:5704  1 */\n      0x01\n        /* \"privacy/mixer/MixerVerifier.sol\":5698:5705  vk_x[1] */\n      0x02\n      dup2\n      lt\n      tag_414\n      jumpi\n      tag_415\n      tag_122\n      jump\t// in\n    tag_415:\n    tag_414:\n      0x20\n      mul\n      add\n      mload\n        /* \"privacy/mixer/MixerVerifier.sol\":5686:5691  input */\n      dup2\n        /* \"privacy/mixer/MixerVerifier.sol\":5692:5694  13 */\n      0x0d\n        /* \"privacy/mixer/MixerVerifier.sol\":5686:5695  input[13] */\n      0x18\n      dup2\n      lt\n      tag_416\n      jumpi\n      tag_417\n      tag_122\n      jump\t// in\n    tag_417:\n    tag_416:\n      0x20\n      mul\n      add\n        /* \"privacy/mixer/MixerVerifier.sol\":5686:5705  input[13] = vk_x[1] */\n      dup2\n      dup2\n      mstore\n      pop\n      pop\n        /* \"privacy/mixer/MixerVerifier.sol\":5727:5740  gamma2_points */\n      dup4\n        /* \"privacy/mixer/MixerVerifier.sol\":5741:5742  0 */\n      0x00\n        /* \"privacy/mixer/MixerVerifier.sol\":5727:5743  gamma2_points[0] */\n      0x02\n      dup2\n      lt\n      tag_418\n      jumpi\n      tag_419\n      tag_122\n      jump\t// in\n    tag_419:\n    tag_418:\n      0x20\n      mul\n      add\n      mload\n        /* \"privacy/mixer/MixerVerifier.sol\":5715:5720  input */\n      dup2\n        /* \"privacy/mixer/MixerVerifier.sol\":5721:5723  14 */\n      0x0e\n        /* \"privacy/mixer/MixerVerifier.sol\":5715:5724  input[14] */\n      0x18\n      dup2\n      lt\n      tag_420\n      jumpi\n      tag_421\n      tag_122\n      jump\t// in\n    tag_421:\n    tag_420:\n      0x20\n      mul\n      add\n        /* \"privacy/mixer/MixerVerifier.sol\":5715:5743  input[14] = gamma2_points[0] */\n      dup2\n      dup2\n      mstore\n      pop\n      pop\n        /* \"privacy/mixer/MixerVerifier.sol\":5765:5778  gamma2_points */\n      dup4\n        /* \"privacy/mixer/MixerVerifier.sol\":5779:5780  1 */\n      0x01\n        /* \"privacy/mixer/MixerVerifier.sol\":5765:5781  gamma2_points[1] */\n      0x02\n      dup2\n      lt\n      tag_422\n      jumpi\n      tag_423\n      tag_122\n      jump\t// in\n    tag_423:\n    tag_422:\n      0x20\n      mul\n      add\n      mload\n        /* \"privacy/mixer/MixerVerifier.sol\":5753:5758  input */\n      dup2\n        /* \"privacy/mixer/MixerVerifier.sol\":5759:5761  15 */\n      0x0f\n        /* \"privacy/mixer/MixerVerifier.sol\":5753:5762  input[15] */\n      0x18\n      dup2\n      lt\n      tag_424\n      jumpi\n      tag_425\n      tag_122\n      jump\t// in\n    tag_425:\n    tag_424:\n      0x20\n      mul\n      add\n        /* \"privacy/mixer/MixerVerifier.sol\":5753:5781  input[15] = gamma2_points[1] */\n      dup2\n      dup2\n      mstore\n      pop\n      pop\n        /* \"privacy/mixer/MixerVerifier.sol\":5803:5812  proofData */\n      dup8\n        /* \"privacy/mixer/MixerVerifier.sol\":5803:5814  proofData.c */\n      0x40\n      add\n      mload\n        /* \"privacy/mixer/MixerVerifier.sol\":5815:5816  0 */\n      0x00\n        /* \"privacy/mixer/MixerVerifier.sol\":5803:5817  proofData.c[0] */\n      0x02\n      dup2\n      lt\n      tag_426\n      jumpi\n      tag_427\n      tag_122\n      jump\t// in\n    tag_427:\n    tag_426:\n      0x20\n      mul\n      add\n      mload\n        /* \"privacy/mixer/MixerVerifier.sol\":5791:5796  input */\n      dup2\n        /* \"privacy/mixer/MixerVerifier.sol\":5797:5799  16 */\n      0x10\n        /* \"privacy/mixer/MixerVerifier.sol\":5791:5800  input[16] */\n      0x18\n      dup2\n      lt\n      tag_428\n      jumpi\n      tag_429\n      tag_122\n      jump\t// in\n    tag_429:\n    tag_428:\n      0x20\n      mul\n      add\n        /* \"privacy/mixer/MixerVerifier.sol\":5791:5817  input[16] = proofData.c[0] */\n      dup2\n      dup2\n      mstore\n      pop\n      pop\n        /* \"privacy/mixer/MixerVerifier.sol\":5839:5848  proofData */\n      dup8\n        /* \"privacy/mixer/MixerVerifier.sol\":5839:5850  proofData.c */\n      0x40\n      add\n      mload\n        /* \"privacy/mixer/MixerVerifier.sol\":5851:5852  1 */\n      0x01\n        /* \"privacy/mixer/MixerVerifier.sol\":5839:5853  proofData.c[1] */\n      0x02\n      dup2\n      lt\n      tag_430\n      jumpi\n      tag_431\n      tag_122\n      jump\t// in\n    tag_431:\n    tag_430:\n      0x20\n      mul\n      add\n      mload\n        /* \"privacy/mixer/MixerVerifier.sol\":5827:5832  input */\n      dup2\n        /* \"privacy/mixer/MixerVerifier.sol\":5833:5835  17 */\n      0x11\n        /* \"privacy/mixer/MixerVerifier.sol\":5827:5836  input[17] */\n      0x18\n      dup2\n      lt\n      tag_432\n      jumpi\n      tag_433\n      tag_122\n      jump\t// in\n    tag_433:\n    tag_432:\n      0x20\n      mul\n      add\n        /* \"privacy/mixer/MixerVerifier.sol\":5827:5853  input[17] = proofData.c[1] */\n      dup2\n      dup2\n      mstore\n      pop\n      pop\n        /* \"privacy/mixer/MixerVerifier.sol\":5875:5888  delta2_points */\n      dup3\n        /* \"privacy/mixer/MixerVerifier.sol\":5889:5890  0 */\n      0x00\n        /* \"privacy/mixer/MixerVerifier.sol\":5875:5891  delta2_points[0] */\n      0x02\n      dup2\n      lt\n      tag_434\n      jumpi\n      tag_435\n      tag_122\n      jump\t// in\n    tag_435:\n    tag_434:\n      0x20\n      mul\n      add\n      mload\n        /* \"privacy/mixer/MixerVerifier.sol\":5863:5868  input */\n      dup2\n        /* \"privacy/mixer/MixerVerifier.sol\":5869:5871  18 */\n      0x12\n        /* \"privacy/mixer/MixerVerifier.sol\":5863:5872  input[18] */\n      0x18\n      dup2\n      lt\n      tag_436\n      jumpi\n      tag_437\n      tag_122\n      jump\t// in\n    tag_437:\n    tag_436:\n      0x20\n      mul\n      add\n        /* \"privacy/mixer/MixerVerifier.sol\":5863:5891  input[18] = delta2_points[0] */\n      dup2\n      dup2\n      mstore\n      pop\n      pop\n        /* \"privacy/mixer/MixerVerifier.sol\":5913:5926  delta2_points */\n      dup3\n        /* \"privacy/mixer/MixerVerifier.sol\":5927:5928  1 */\n      0x01\n        /* \"privacy/mixer/MixerVerifier.sol\":5913:5929  delta2_points[1] */\n      0x02\n      dup2\n      lt\n      tag_438\n      jumpi\n      tag_439\n      tag_122\n      jump\t// in\n    tag_439:\n    tag_438:\n      0x20\n      mul\n      add\n      mload\n        /* \"privacy/mixer/MixerVerifier.sol\":5901:5906  input */\n      dup2\n        /* \"privacy/mixer/MixerVerifier.sol\":5907:5909  19 */\n      0x13\n        /* \"privacy/mixer/MixerVerifier.sol\":5901:5910  input[19] */\n      0x18\n      dup2\n      lt\n      tag_440\n      jumpi\n      tag_441\n      tag_122\n      jump\t// in\n    tag_441:\n    tag_440:\n      0x20\n      mul\n      add\n        /* \"privacy/mixer/MixerVerifier.sol\":5901:5929  input[19] = delta2_points[1] */\n      dup2\n      dup2\n      mstore\n      pop\n      pop\n        /* \"privacy/mixer/MixerVerifier.sol\":5940:5961  uint256[1] memory out */\n      tag_442\n      tag_443\n      jump\t// in\n    tag_442:\n        /* \"privacy/mixer/MixerVerifier.sol\":5971:5983  bool success */\n      0x00\n        /* \"privacy/mixer/MixerVerifier.sol\":6066:6068  32 */\n      0x20\n        /* \"privacy/mixer/MixerVerifier.sol\":6061:6064  out */\n      dup3\n        /* \"privacy/mixer/MixerVerifier.sol\":6056:6059  768 */\n      0x0300\n        /* \"privacy/mixer/MixerVerifier.sol\":6049:6054  input */\n      dup6\n        /* \"privacy/mixer/MixerVerifier.sol\":6046:6047  8 */\n      0x08\n        /* \"privacy/mixer/MixerVerifier.sol\":6039:6044  gas() */\n      gas\n        /* \"privacy/mixer/MixerVerifier.sol\":6028:6069  staticcall(gas(), 8, input, 768, out, 32) */\n      staticcall\n        /* \"privacy/mixer/MixerVerifier.sol\":6017:6069  success := staticcall(gas(), 8, input, 768, out, 32) */\n      swap1\n      pop\n        /* \"privacy/mixer/MixerVerifier.sol\":6097:6104  success */\n      dup1\n        /* \"privacy/mixer/MixerVerifier.sol\":6089:6129  require(success, \"Pairing check failed\") */\n      tag_444\n      jumpi\n      mload(0x40)\n      0x08c379a000000000000000000000000000000000000000000000000000000000\n      dup2\n      mstore\n      0x04\n      add\n      tag_445\n      swap1\n      tag_446\n      jump\t// in\n    tag_445:\n      mload(0x40)\n      dup1\n      swap2\n      sub\n      swap1\n      revert\n    tag_444:\n        /* \"privacy/mixer/MixerVerifier.sol\":6156:6157  1 */\n      0x01\n        /* \"privacy/mixer/MixerVerifier.sol\":6146:6149  out */\n      dup3\n        /* \"privacy/mixer/MixerVerifier.sol\":6150:6151  0 */\n      0x00\n        /* \"privacy/mixer/MixerVerifier.sol\":6146:6152  out[0] */\n      0x01\n      dup2\n      lt\n      tag_447\n      jumpi\n      tag_448\n      tag_122\n      jump\t// in\n    tag_448:\n    tag_447:\n      0x20\n      mul\n      add\n      mload\n        /* \"privacy/mixer/MixerVerifier.sol\":6146:6157  out[0] == 1 */\n      eq\n        /* \"privacy/mixer/MixerVerifier.sol\":6139:6157  return out[0] == 1 */\n      swap4\n      pop\n      pop\n      pop\n      pop\n        /* \"privacy/mixer/MixerVerifier.sol\":4869:6164  function _verifyPairing(... */\n      swap7\n      swap6\n      pop\n      pop\n      pop\n      pop\n      pop\n      pop\n      jump\t// out\n        /* \"@openzeppelin/contracts/utils/Context.sol\":656:752  function _msgSender() internal view virtual returns (address) {... */\n    tag_282:\n        /* \"@openzeppelin/contracts/utils/Context.sol\":709:716  address */\n      0x00\n        /* \"@openzeppelin/contracts/utils/Context.sol\":735:745  msg.sender */\n      caller\n        /* \"@openzeppelin/contracts/utils/Context.sol\":728:745  return msg.sender */\n      swap1\n      pop\n        /* \"@openzeppelin/contracts/utils/Context.sol\":656:752  function _msgSender() internal view virtual returns (address) {... */\n      swap1\n      jump\t// out\n        /* \"privacy/mixer/MixerVerifier.sol\":7694:8143  function _scalarMul(... */\n    tag_332:\n        /* \"privacy/mixer/MixerVerifier.sol\":7779:7786  uint256 */\n      0x00\n        /* \"privacy/mixer/MixerVerifier.sol\":7788:7795  uint256 */\n      dup1\n        /* \"privacy/mixer/MixerVerifier.sol\":7833:7856  uint256[3] memory input */\n      tag_451\n      tag_452\n      jump\t// in\n    tag_451:\n        /* \"privacy/mixer/MixerVerifier.sol\":7873:7874  p */\n      dup5\n        /* \"privacy/mixer/MixerVerifier.sol\":7875:7876  0 */\n      0x00\n        /* \"privacy/mixer/MixerVerifier.sol\":7873:7877  p[0] */\n      0x02\n      dup2\n      lt\n      tag_453\n      jumpi\n      tag_454\n      tag_122\n      jump\t// in\n    tag_454:\n    tag_453:\n      0x20\n      mul\n      add\n      mload\n        /* \"privacy/mixer/MixerVerifier.sol\":7862:7867  input */\n      dup2\n        /* \"privacy/mixer/MixerVerifier.sol\":7868:7869  0 */\n      0x00\n        /* \"privacy/mixer/MixerVerifier.sol\":7862:7870  input[0] */\n      0x03\n      dup2\n      lt\n      tag_455\n      jumpi\n      tag_456\n      tag_122\n      jump\t// in\n    tag_456:\n    tag_455:\n      0x20\n      mul\n      add\n        /* \"privacy/mixer/MixerVerifier.sol\":7862:7877  input[0] = p[0] */\n      dup2\n      dup2\n      mstore\n      pop\n      pop\n        /* \"privacy/mixer/MixerVerifier.sol\":7894:7895  p */\n      dup5\n        /* \"privacy/mixer/MixerVerifier.sol\":7896:7897  1 */\n      0x01\n        /* \"privacy/mixer/MixerVerifier.sol\":7894:7898  p[1] */\n      0x02\n      dup2\n      lt\n      tag_457\n      jumpi\n      tag_458\n      tag_122\n      jump\t// in\n    tag_458:\n    tag_457:\n      0x20\n      mul\n      add\n      mload\n        /* \"privacy/mixer/MixerVerifier.sol\":7883:7888  input */\n      dup2\n        /* \"privacy/mixer/MixerVerifier.sol\":7889:7890  1 */\n      0x01\n        /* \"privacy/mixer/MixerVerifier.sol\":7883:7891  input[1] */\n      0x03\n      dup2\n      lt\n      tag_459\n      jumpi\n      tag_460\n      tag_122\n      jump\t// in\n    tag_460:\n    tag_459:\n      0x20\n      mul\n      add\n        /* \"privacy/mixer/MixerVerifier.sol\":7883:7898  input[1] = p[1] */\n      dup2\n      dup2\n      mstore\n      pop\n      pop\n        /* \"privacy/mixer/MixerVerifier.sol\":7915:7916  s */\n      dup4\n        /* \"privacy/mixer/MixerVerifier.sol\":7904:7909  input */\n      dup2\n        /* \"privacy/mixer/MixerVerifier.sol\":7910:7911  2 */\n      0x02\n        /* \"privacy/mixer/MixerVerifier.sol\":7904:7912  input[2] */\n      0x03\n      dup2\n      lt\n      tag_461\n      jumpi\n      tag_462\n      tag_122\n      jump\t// in\n    tag_462:\n    tag_461:\n      0x20\n      mul\n      add\n        /* \"privacy/mixer/MixerVerifier.sol\":7904:7916  input[2] = s */\n      dup2\n      dup2\n      mstore\n      pop\n      pop\n        /* \"privacy/mixer/MixerVerifier.sol\":7923:7947  uint256[2] memory result */\n      tag_463\n      tag_315\n      jump\t// in\n    tag_463:\n        /* \"privacy/mixer/MixerVerifier.sol\":7953:7965  bool success */\n      0x00\n        /* \"privacy/mixer/MixerVerifier.sol\":8042:8044  64 */\n      0x40\n        /* \"privacy/mixer/MixerVerifier.sol\":8034:8040  result */\n      dup3\n        /* \"privacy/mixer/MixerVerifier.sol\":8030:8032  96 */\n      0x60\n        /* \"privacy/mixer/MixerVerifier.sol\":8023:8028  input */\n      dup6\n        /* \"privacy/mixer/MixerVerifier.sol\":8020:8021  7 */\n      0x07\n        /* \"privacy/mixer/MixerVerifier.sol\":8013:8018  gas() */\n      gas\n        /* \"privacy/mixer/MixerVerifier.sol\":8002:8045  staticcall(gas(), 7, input, 96, result, 64) */\n      staticcall\n        /* \"privacy/mixer/MixerVerifier.sol\":7991:8045  success := staticcall(gas(), 7, input, 96, result, 64) */\n      swap1\n      pop\n        /* \"privacy/mixer/MixerVerifier.sol\":8065:8072  success */\n      dup1\n        /* \"privacy/mixer/MixerVerifier.sol\":8057:8105  require(success, \"Scalar multiplication failed\") */\n      tag_464\n      jumpi\n      mload(0x40)\n      0x08c379a000000000000000000000000000000000000000000000000000000000\n      dup2\n      mstore\n      0x04\n      add\n      tag_465\n      swap1\n      tag_466\n      jump\t// in\n    tag_465:\n      mload(0x40)\n      dup1\n      swap2\n      sub\n      swap1\n      revert\n    tag_464:\n        /* \"privacy/mixer/MixerVerifier.sol\":8119:8125  result */\n      dup2\n        /* \"privacy/mixer/MixerVerifier.sol\":8126:8127  0 */\n      0x00\n        /* \"privacy/mixer/MixerVerifier.sol\":8119:8128  result[0] */\n      0x02\n      dup2\n      lt\n      tag_467\n      jumpi\n      tag_468\n      tag_122\n      jump\t// in\n    tag_468:\n    tag_467:\n      0x20\n      mul\n      add\n      mload\n        /* \"privacy/mixer/MixerVerifier.sol\":8130:8136  result */\n      dup3\n        /* \"privacy/mixer/MixerVerifier.sol\":8137:8138  1 */\n      0x01\n        /* \"privacy/mixer/MixerVerifier.sol\":8130:8139  result[1] */\n      0x02\n      dup2\n      lt\n      tag_469\n      jumpi\n      tag_470\n      tag_122\n      jump\t// in\n    tag_470:\n    tag_469:\n      0x20\n      mul\n      add\n      mload\n        /* \"privacy/mixer/MixerVerifier.sol\":8111:8140  return (result[0], result[1]) */\n      swap5\n      pop\n      swap5\n      pop\n      pop\n      pop\n      pop\n        /* \"privacy/mixer/MixerVerifier.sol\":7694:8143  function _scalarMul(... */\n      swap3\n      pop\n      swap3\n      swap1\n      pop\n      jump\t// out\n        /* \"privacy/mixer/MixerVerifier.sol\":8145:8627  function _pointAdd(... */\n    tag_338:\n        /* \"privacy/mixer/MixerVerifier.sol\":8253:8260  uint256 */\n      0x00\n        /* \"privacy/mixer/MixerVerifier.sol\":8262:8269  uint256 */\n      dup1\n        /* \"privacy/mixer/MixerVerifier.sol\":8307:8330  uint256[4] memory input */\n      tag_472\n      tag_473\n      jump\t// in\n    tag_472:\n        /* \"privacy/mixer/MixerVerifier.sol\":8347:8349  x1 */\n      dup7\n        /* \"privacy/mixer/MixerVerifier.sol\":8336:8341  input */\n      dup2\n        /* \"privacy/mixer/MixerVerifier.sol\":8342:8343  0 */\n      0x00\n        /* \"privacy/mixer/MixerVerifier.sol\":8336:8344  input[0] */\n      0x04\n      dup2\n      lt\n      tag_474\n      jumpi\n      tag_475\n      tag_122\n      jump\t// in\n    tag_475:\n    tag_474:\n      0x20\n      mul\n      add\n        /* \"privacy/mixer/MixerVerifier.sol\":8336:8349  input[0] = x1 */\n      dup2\n      dup2\n      mstore\n      pop\n      pop\n        /* \"privacy/mixer/MixerVerifier.sol\":8366:8368  y1 */\n      dup6\n        /* \"privacy/mixer/MixerVerifier.sol\":8355:8360  input */\n      dup2\n        /* \"privacy/mixer/MixerVerifier.sol\":8361:8362  1 */\n      0x01\n        /* \"privacy/mixer/MixerVerifier.sol\":8355:8363  input[1] */\n      0x04\n      dup2\n      lt\n      tag_476\n      jumpi\n      tag_477\n      tag_122\n      jump\t// in\n    tag_477:\n    tag_476:\n      0x20\n      mul\n      add\n        /* \"privacy/mixer/MixerVerifier.sol\":8355:8368  input[1] = y1 */\n      dup2\n      dup2\n      mstore\n      pop\n      pop\n        /* \"privacy/mixer/MixerVerifier.sol\":8385:8387  x2 */\n      dup5\n        /* \"privacy/mixer/MixerVerifier.sol\":8374:8379  input */\n      dup2\n        /* \"privacy/mixer/MixerVerifier.sol\":8380:8381  2 */\n      0x02\n        /* \"privacy/mixer/MixerVerifier.sol\":8374:8382  input[2] */\n      0x04\n      dup2\n      lt\n      tag_478\n      jumpi\n      tag_479\n      tag_122\n      jump\t// in\n    tag_479:\n    tag_478:\n      0x20\n      mul\n      add\n        /* \"privacy/mixer/MixerVerifier.sol\":8374:8387  input[2] = x2 */\n      dup2\n      dup2\n      mstore\n      pop\n      pop\n        /* \"privacy/mixer/MixerVerifier.sol\":8404:8406  y2 */\n      dup4\n        /* \"privacy/mixer/MixerVerifier.sol\":8393:8398  input */\n      dup2\n        /* \"privacy/mixer/MixerVerifier.sol\":8399:8400  3 */\n      0x03\n        /* \"privacy/mixer/MixerVerifier.sol\":8393:8401  input[3] */\n      0x04\n      dup2\n      lt\n      tag_480\n      jumpi\n      tag_481\n      tag_122\n      jump\t// in\n    tag_481:\n    tag_480:\n      0x20\n      mul\n      add\n        /* \"privacy/mixer/MixerVerifier.sol\":8393:8406  input[3] = y2 */\n      dup2\n      dup2\n      mstore\n      pop\n      pop\n        /* \"privacy/mixer/MixerVerifier.sol\":8413:8437  uint256[2] memory result */\n      tag_482\n      tag_315\n      jump\t// in\n    tag_482:\n        /* \"privacy/mixer/MixerVerifier.sol\":8443:8455  bool success */\n      0x00\n        /* \"privacy/mixer/MixerVerifier.sol\":8533:8535  64 */\n      0x40\n        /* \"privacy/mixer/MixerVerifier.sol\":8525:8531  result */\n      dup3\n        /* \"privacy/mixer/MixerVerifier.sol\":8520:8523  128 */\n      0x80\n        /* \"privacy/mixer/MixerVerifier.sol\":8513:8518  input */\n      dup6\n        /* \"privacy/mixer/MixerVerifier.sol\":8510:8511  6 */\n      0x06\n        /* \"privacy/mixer/MixerVerifier.sol\":8503:8508  gas() */\n      gas\n        /* \"privacy/mixer/MixerVerifier.sol\":8492:8536  staticcall(gas(), 6, input, 128, result, 64) */\n      staticcall\n        /* \"privacy/mixer/MixerVerifier.sol\":8481:8536  success := staticcall(gas(), 6, input, 128, result, 64) */\n      swap1\n      pop\n        /* \"privacy/mixer/MixerVerifier.sol\":8556:8563  success */\n      dup1\n        /* \"privacy/mixer/MixerVerifier.sol\":8548:8589  require(success, \"Point addition failed\") */\n      tag_483\n      jumpi\n      mload(0x40)\n      0x08c379a000000000000000000000000000000000000000000000000000000000\n      dup2\n      mstore\n      0x04\n      add\n      tag_484\n      swap1\n      tag_485\n      jump\t// in\n    tag_484:\n      mload(0x40)\n      dup1\n      swap2\n      sub\n      swap1\n      revert\n    tag_483:\n        /* \"privacy/mixer/MixerVerifier.sol\":8603:8609  result */\n      dup2\n        /* \"privacy/mixer/MixerVerifier.sol\":8610:8611  0 */\n      0x00\n        /* \"privacy/mixer/MixerVerifier.sol\":8603:8612  result[0] */\n      0x02\n      dup2\n      lt\n      tag_486\n      jumpi\n      tag_487\n      tag_122\n      jump\t// in\n    tag_487:\n    tag_486:\n      0x20\n      mul\n      add\n      mload\n        /* \"privacy/mixer/MixerVerifier.sol\":8614:8620  result */\n      dup3\n        /* \"privacy/mixer/MixerVerifier.sol\":8621:8622  1 */\n      0x01\n        /* \"privacy/mixer/MixerVerifier.sol\":8614:8623  result[1] */\n      0x02\n      dup2\n      lt\n      tag_488\n      jumpi\n      tag_489\n      tag_122\n      jump\t// in\n    tag_489:\n    tag_488:\n      0x20\n      mul\n      add\n      mload\n        /* \"privacy/mixer/MixerVerifier.sol\":8595:8624  return (result[0], result[1]) */\n      swap5\n      pop\n      swap5\n      pop\n      pop\n      pop\n      pop\n        /* \"privacy/mixer/MixerVerifier.sol\":8145:8627  function _pointAdd(... */\n      swap5\n      pop\n      swap5\n      swap3\n      pop\n      pop\n      pop\n      jump\t// out\n    tag_161:\n      pop\n      dup1\n      sload\n      0x00\n      dup3\n      sstore\n      0x02\n      mul\n      swap1\n      0x00\n      mstore\n      keccak256(0x00, 0x20)\n      swap1\n      dup2\n      add\n      swap1\n      tag_491\n      swap2\n      swap1\n      tag_492\n      jump\t// in\n    tag_491:\n      pop\n      jump\t// out\n    tag_312:\n      dup3\n      0x02\n      dup2\n      add\n      swap3\n      dup3\n      iszero\n      tag_493\n      jumpi\n      swap2\n      0x20\n      mul\n      dup3\n      add\n    tag_494:\n      dup3\n      dup2\n      gt\n      iszero\n      tag_495\n      jumpi\n      dup3\n      mload\n      dup3\n      sstore\n      swap2\n      0x20\n      add\n      swap2\n      swap1\n      0x01\n      add\n      swap1\n      jump(tag_494)\n    tag_495:\n    tag_493:\n      pop\n      swap1\n      pop\n      tag_496\n      swap2\n      swap1\n      tag_497\n      jump\t// in\n    tag_496:\n      pop\n      swap1\n      jump\t// out\n    tag_315:\n      mload(0x40)\n      dup1\n      0x40\n      add\n      0x40\n      mstore\n      dup1\n      0x02\n      swap1\n      0x20\n      dup3\n      mul\n      dup1\n      calldatasize\n      dup4\n      calldatacopy\n      dup1\n      dup3\n      add\n      swap2\n      pop\n      pop\n      swap1\n      pop\n      pop\n      swap1\n      jump\t// out\n    tag_345:\n      mload(0x40)\n      dup1\n      0x0300\n      add\n      0x40\n      mstore\n      dup1\n      0x18\n      swap1\n      0x20\n      dup3\n      mul\n      dup1\n      calldatasize\n      dup4\n      calldatacopy\n      dup1\n      dup3\n      add\n      swap2\n      pop\n      pop\n      swap1\n      pop\n      pop\n      swap1\n      jump\t// out\n    tag_443:\n      mload(0x40)\n      dup1\n      0x20\n      add\n      0x40\n      mstore\n      dup1\n      0x01\n      swap1\n      0x20\n      dup3\n      mul\n      dup1\n      calldatasize\n      dup4\n      calldatacopy\n      dup1\n      dup3\n      add\n      swap2\n      pop\n      pop\n      swap1\n      pop\n      pop\n      swap1\n      jump\t// out\n    tag_452:\n      mload(0x40)\n      dup1\n      0x60\n      add\n      0x40\n      mstore\n      dup1\n      0x03\n      swap1\n      0x20\n      dup3\n      mul\n      dup1\n      calldatasize\n      dup4\n      calldatacopy\n      dup1\n      dup3\n      add\n      swap2\n      pop\n      pop\n      swap1\n      pop\n      pop\n      swap1\n      jump\t// out\n    tag_473:\n      mload(0x40)\n      dup1\n      0x80\n      add\n      0x40\n      mstore\n      dup1\n      0x04\n      swap1\n      0x20\n      dup3\n      mul\n      dup1\n      calldatasize\n      dup4\n      calldatacopy\n      dup1\n      dup3\n      add\n      swap2\n      pop\n      pop\n      swap1\n      pop\n      pop\n      swap1\n      jump\t// out\n    tag_492:\n    tag_498:\n      dup1\n      dup3\n      gt\n      iszero\n      tag_499\n      jumpi\n      0x00\n      dup2\n      dup2\n      tag_500\n      swap2\n      swap1\n      tag_501\n      jump\t// in\n    tag_500:\n      pop\n      0x02\n      add\n      jump(tag_498)\n    tag_499:\n      pop\n      swap1\n      jump\t// out\n    tag_497:\n    tag_502:\n      dup1\n      dup3\n      gt\n      iszero\n      tag_503\n      jumpi\n      0x00\n      dup2\n      0x00\n      swap1\n      sstore\n      pop\n      0x01\n      add\n      jump(tag_502)\n    tag_503:\n      pop\n      swap1\n      jump\t// out\n    tag_501:\n      pop\n      0x00\n      dup2\n      sstore\n      0x01\n      add\n      0x00\n      swap1\n      sstore\n      jump\t// out\n        /* \"#utility.yul\":7:84   */\n    tag_504:\n        /* \"#utility.yul\":44:51   */\n      0x00\n        /* \"#utility.yul\":73:78   */\n      dup2\n        /* \"#utility.yul\":62:78   */\n      swap1\n      pop\n        /* \"#utility.yul\":7:84   */\n      swap2\n      swap1\n      pop\n      jump\t// out\n        /* \"#utility.yul\":90:208   */\n    tag_505:\n        /* \"#utility.yul\":177:201   */\n      tag_576\n        /* \"#utility.yul\":195:200   */\n      dup2\n        /* \"#utility.yul\":177:201   */\n      tag_504\n      jump\t// in\n    tag_576:\n        /* \"#utility.yul\":172:175   */\n      dup3\n        /* \"#utility.yul\":165:202   */\n      mstore\n        /* \"#utility.yul\":90:208   */\n      pop\n      pop\n      jump\t// out\n        /* \"#utility.yul\":214:436   */\n    tag_30:\n        /* \"#utility.yul\":307:311   */\n      0x00\n        /* \"#utility.yul\":345:347   */\n      0x20\n        /* \"#utility.yul\":334:343   */\n      dup3\n        /* \"#utility.yul\":330:348   */\n      add\n        /* \"#utility.yul\":322:348   */\n      swap1\n      pop\n        /* \"#utility.yul\":358:429   */\n      tag_578\n        /* \"#utility.yul\":426:427   */\n      0x00\n        /* \"#utility.yul\":415:424   */\n      dup4\n        /* \"#utility.yul\":411:428   */\n      add\n        /* \"#utility.yul\":402:408   */\n      dup5\n        /* \"#utility.yul\":358:429   */\n      tag_505\n      jump\t// in\n    tag_578:\n        /* \"#utility.yul\":214:436   */\n      swap3\n      swap2\n      pop\n      pop\n      jump\t// out\n        /* \"#utility.yul\":442:517   */\n    tag_506:\n        /* \"#utility.yul\":475:481   */\n      0x00\n        /* \"#utility.yul\":508:510   */\n      0x40\n        /* \"#utility.yul\":502:511   */\n      mload\n        /* \"#utility.yul\":492:511   */\n      swap1\n      pop\n        /* \"#utility.yul\":442:517   */\n      swap1\n      jump\t// out\n        /* \"#utility.yul\":523:640   */\n    tag_507:\n        /* \"#utility.yul\":632:633   */\n      0x00\n        /* \"#utility.yul\":629:630   */\n      dup1\n        /* \"#utility.yul\":622:634   */\n      revert\n        /* \"#utility.yul\":646:763   */\n    tag_508:\n        /* \"#utility.yul\":755:756   */\n      0x00\n        /* \"#utility.yul\":752:753   */\n      dup1\n        /* \"#utility.yul\":745:757   */\n      revert\n        /* \"#utility.yul\":769:846   */\n    tag_509:\n        /* \"#utility.yul\":806:813   */\n      0x00\n        /* \"#utility.yul\":835:840   */\n      dup2\n        /* \"#utility.yul\":824:840   */\n      swap1\n      pop\n        /* \"#utility.yul\":769:846   */\n      swap2\n      swap1\n      pop\n      jump\t// out\n        /* \"#utility.yul\":852:974   */\n    tag_510:\n        /* \"#utility.yul\":925:949   */\n      tag_584\n        /* \"#utility.yul\":943:948   */\n      dup2\n        /* \"#utility.yul\":925:949   */\n      tag_509\n      jump\t// in\n    tag_584:\n        /* \"#utility.yul\":918:923   */\n      dup2\n        /* \"#utility.yul\":915:950   */\n      eq\n        /* \"#utility.yul\":905:968   */\n      tag_585\n      jumpi\n        /* \"#utility.yul\":964:965   */\n      0x00\n        /* \"#utility.yul\":961:962   */\n      dup1\n        /* \"#utility.yul\":954:966   */\n      revert\n        /* \"#utility.yul\":905:968   */\n    tag_585:\n        /* \"#utility.yul\":852:974   */\n      pop\n      jump\t// out\n        /* \"#utility.yul\":980:1119   */\n    tag_511:\n        /* \"#utility.yul\":1026:1031   */\n      0x00\n        /* \"#utility.yul\":1064:1070   */\n      dup2\n        /* \"#utility.yul\":1051:1071   */\n      calldataload\n        /* \"#utility.yul\":1042:1071   */\n      swap1\n      pop\n        /* \"#utility.yul\":1080:1113   */\n      tag_587\n        /* \"#utility.yul\":1107:1112   */\n      dup2\n        /* \"#utility.yul\":1080:1113   */\n      tag_510\n      jump\t// in\n    tag_587:\n        /* \"#utility.yul\":980:1119   */\n      swap3\n      swap2\n      pop\n      pop\n      jump\t// out\n        /* \"#utility.yul\":1125:1454   */\n    tag_33:\n        /* \"#utility.yul\":1184:1190   */\n      0x00\n        /* \"#utility.yul\":1233:1235   */\n      0x20\n        /* \"#utility.yul\":1221:1230   */\n      dup3\n        /* \"#utility.yul\":1212:1219   */\n      dup5\n        /* \"#utility.yul\":1208:1231   */\n      sub\n        /* \"#utility.yul\":1204:1236   */\n      slt\n        /* \"#utility.yul\":1201:1320   */\n      iszero\n      tag_589\n      jumpi\n        /* \"#utility.yul\":1239:1318   */\n      tag_590\n      tag_507\n      jump\t// in\n    tag_590:\n        /* \"#utility.yul\":1201:1320   */\n    tag_589:\n        /* \"#utility.yul\":1359:1360   */\n      0x00\n        /* \"#utility.yul\":1384:1437   */\n      tag_591\n        /* \"#utility.yul\":1429:1436   */\n      dup5\n        /* \"#utility.yul\":1420:1426   */\n      dup3\n        /* \"#utility.yul\":1409:1418   */\n      dup6\n        /* \"#utility.yul\":1405:1427   */\n      add\n        /* \"#utility.yul\":1384:1437   */\n      tag_511\n      jump\t// in\n    tag_591:\n        /* \"#utility.yul\":1374:1437   */\n      swap2\n      pop\n        /* \"#utility.yul\":1330:1447   */\n      pop\n        /* \"#utility.yul\":1125:1454   */\n      swap3\n      swap2\n      pop\n      pop\n      jump\t// out\n        /* \"#utility.yul\":1460:1550   */\n    tag_512:\n        /* \"#utility.yul\":1494:1501   */\n      0x00\n        /* \"#utility.yul\":1537:1542   */\n      dup2\n        /* \"#utility.yul\":1530:1543   */\n      iszero\n        /* \"#utility.yul\":1523:1544   */\n      iszero\n        /* \"#utility.yul\":1512:1544   */\n      swap1\n      pop\n        /* \"#utility.yul\":1460:1550   */\n      swap2\n      swap1\n      pop\n      jump\t// out\n        /* \"#utility.yul\":1556:1665   */\n    tag_513:\n        /* \"#utility.yul\":1637:1658   */\n      tag_594\n        /* \"#utility.yul\":1652:1657   */\n      dup2\n        /* \"#utility.yul\":1637:1658   */\n      tag_512\n      jump\t// in\n    tag_594:\n        /* \"#utility.yul\":1632:1635   */\n      dup3\n        /* \"#utility.yul\":1625:1659   */\n      mstore\n        /* \"#utility.yul\":1556:1665   */\n      pop\n      pop\n      jump\t// out\n        /* \"#utility.yul\":1671:1881   */\n    tag_36:\n        /* \"#utility.yul\":1758:1762   */\n      0x00\n        /* \"#utility.yul\":1796:1798   */\n      0x20\n        /* \"#utility.yul\":1785:1794   */\n      dup3\n        /* \"#utility.yul\":1781:1799   */\n      add\n        /* \"#utility.yul\":1773:1799   */\n      swap1\n      pop\n        /* \"#utility.yul\":1809:1874   */\n      tag_596\n        /* \"#utility.yul\":1871:1872   */\n      0x00\n        /* \"#utility.yul\":1860:1869   */\n      dup4\n        /* \"#utility.yul\":1856:1873   */\n      add\n        /* \"#utility.yul\":1847:1853   */\n      dup5\n        /* \"#utility.yul\":1809:1874   */\n      tag_513\n      jump\t// in\n    tag_596:\n        /* \"#utility.yul\":1671:1881   */\n      swap3\n      swap2\n      pop\n      pop\n      jump\t// out\n        /* \"#utility.yul\":1887:2004   */\n    tag_514:\n        /* \"#utility.yul\":1996:1997   */\n      0x00\n        /* \"#utility.yul\":1993:1994   */\n      dup1\n        /* \"#utility.yul\":1986:1998   */\n      revert\n        /* \"#utility.yul\":2028:2277   */\n    tag_515:\n        /* \"#utility.yul\":2099:2107   */\n      0x00\n        /* \"#utility.yul\":2130:2136   */\n      dup2\n        /* \"#utility.yul\":2118:2136   */\n      swap1\n      pop\n        /* \"#utility.yul\":2183:2186   */\n      dup3\n        /* \"#utility.yul\":2175:2179   */\n      0x20\n        /* \"#utility.yul\":2169:2173   */\n      0x08\n        /* \"#utility.yul\":2165:2180   */\n      mul\n        /* \"#utility.yul\":2155:2163   */\n      dup3\n        /* \"#utility.yul\":2151:2181   */\n      add\n        /* \"#utility.yul\":2148:2187   */\n      gt\n        /* \"#utility.yul\":2145:2271   */\n      iszero\n      tag_599\n      jumpi\n        /* \"#utility.yul\":2190:2269   */\n      tag_600\n      tag_514\n      jump\t// in\n    tag_600:\n        /* \"#utility.yul\":2145:2271   */\n    tag_599:\n        /* \"#utility.yul\":2028:2277   */\n      swap3\n      swap2\n      pop\n      pop\n      jump\t// out\n        /* \"#utility.yul\":2301:2550   */\n    tag_516:\n        /* \"#utility.yul\":2372:2380   */\n      0x00\n        /* \"#utility.yul\":2403:2409   */\n      dup2\n        /* \"#utility.yul\":2391:2409   */\n      swap1\n      pop\n        /* \"#utility.yul\":2456:2459   */\n      dup3\n        /* \"#utility.yul\":2448:2452   */\n      0x20\n        /* \"#utility.yul\":2442:2446   */\n      0x01\n        /* \"#utility.yul\":2438:2453   */\n      mul\n        /* \"#utility.yul\":2428:2436   */\n      dup3\n        /* \"#utility.yul\":2424:2454   */\n      add\n        /* \"#utility.yul\":2421:2460   */\n      gt\n        /* \"#utility.yul\":2418:2544   */\n      iszero\n      tag_602\n      jumpi\n        /* \"#utility.yul\":2463:2542   */\n      tag_603\n      tag_514\n      jump\t// in\n    tag_603:\n        /* \"#utility.yul\":2418:2544   */\n    tag_602:\n        /* \"#utility.yul\":2301:2550   */\n      swap3\n      swap2\n      pop\n      pop\n      jump\t// out\n        /* \"#utility.yul\":2556:3132   */\n    tag_39:\n        /* \"#utility.yul\":2674:2680   */\n      0x00\n        /* \"#utility.yul\":2682:2688   */\n      dup1\n        /* \"#utility.yul\":2731:2734   */\n      0x0120\n        /* \"#utility.yul\":2719:2728   */\n      dup4\n        /* \"#utility.yul\":2710:2717   */\n      dup6\n        /* \"#utility.yul\":2706:2729   */\n      sub\n        /* \"#utility.yul\":2702:2735   */\n      slt\n        /* \"#utility.yul\":2699:2819   */\n      iszero\n      tag_605\n      jumpi\n        /* \"#utility.yul\":2738:2817   */\n      tag_606\n      tag_507\n      jump\t// in\n    tag_606:\n        /* \"#utility.yul\":2699:2819   */\n    tag_605:\n        /* \"#utility.yul\":2858:2859   */\n      0x00\n        /* \"#utility.yul\":2883:2961   */\n      tag_607\n        /* \"#utility.yul\":2953:2960   */\n      dup6\n        /* \"#utility.yul\":2944:2950   */\n      dup3\n        /* \"#utility.yul\":2933:2942   */\n      dup7\n        /* \"#utility.yul\":2929:2951   */\n      add\n        /* \"#utility.yul\":2883:2961   */\n      tag_515\n      jump\t// in\n    tag_607:\n        /* \"#utility.yul\":2873:2961   */\n      swap3\n      pop\n        /* \"#utility.yul\":2829:2971   */\n      pop\n        /* \"#utility.yul\":3010:3013   */\n      0x0100\n        /* \"#utility.yul\":3037:3115   */\n      tag_608\n        /* \"#utility.yul\":3107:3114   */\n      dup6\n        /* \"#utility.yul\":3098:3104   */\n      dup3\n        /* \"#utility.yul\":3087:3096   */\n      dup7\n        /* \"#utility.yul\":3083:3105   */\n      add\n        /* \"#utility.yul\":3037:3115   */\n      tag_516\n      jump\t// in\n    tag_608:\n        /* \"#utility.yul\":3027:3115   */\n      swap2\n      pop\n        /* \"#utility.yul\":2981:3125   */\n      pop\n        /* \"#utility.yul\":2556:3132   */\n      swap3\n      pop\n      swap3\n      swap1\n      pop\n      jump\t// out\n        /* \"#utility.yul\":3138:3260   */\n    tag_517:\n        /* \"#utility.yul\":3211:3235   */\n      tag_610\n        /* \"#utility.yul\":3229:3234   */\n      dup2\n        /* \"#utility.yul\":3211:3235   */\n      tag_504\n      jump\t// in\n    tag_610:\n        /* \"#utility.yul\":3204:3209   */\n      dup2\n        /* \"#utility.yul\":3201:3236   */\n      eq\n        /* \"#utility.yul\":3191:3254   */\n      tag_611\n      jumpi\n        /* \"#utility.yul\":3250:3251   */\n      0x00\n        /* \"#utility.yul\":3247:3248   */\n      dup1\n        /* \"#utility.yul\":3240:3252   */\n      revert\n        /* \"#utility.yul\":3191:3254   */\n    tag_611:\n        /* \"#utility.yul\":3138:3260   */\n      pop\n      jump\t// out\n        /* \"#utility.yul\":3266:3405   */\n    tag_518:\n        /* \"#utility.yul\":3312:3317   */\n      0x00\n        /* \"#utility.yul\":3350:3356   */\n      dup2\n        /* \"#utility.yul\":3337:3357   */\n      calldataload\n        /* \"#utility.yul\":3328:3357   */\n      swap1\n      pop\n        /* \"#utility.yul\":3366:3399   */\n      tag_613\n        /* \"#utility.yul\":3393:3398   */\n      dup2\n        /* \"#utility.yul\":3366:3399   */\n      tag_517\n      jump\t// in\n    tag_613:\n        /* \"#utility.yul\":3266:3405   */\n      swap3\n      swap2\n      pop\n      pop\n      jump\t// out\n        /* \"#utility.yul\":3411:3740   */\n    tag_44:\n        /* \"#utility.yul\":3470:3476   */\n      0x00\n        /* \"#utility.yul\":3519:3521   */\n      0x20\n        /* \"#utility.yul\":3507:3516   */\n      dup3\n        /* \"#utility.yul\":3498:3505   */\n      dup5\n        /* \"#utility.yul\":3494:3517   */\n      sub\n        /* \"#utility.yul\":3490:3522   */\n      slt\n        /* \"#utility.yul\":3487:3606   */\n      iszero\n      tag_615\n      jumpi\n        /* \"#utility.yul\":3525:3604   */\n      tag_616\n      tag_507\n      jump\t// in\n    tag_616:\n        /* \"#utility.yul\":3487:3606   */\n    tag_615:\n        /* \"#utility.yul\":3645:3646   */\n      0x00\n        /* \"#utility.yul\":3670:3723   */\n      tag_617\n        /* \"#utility.yul\":3715:3722   */\n      dup5\n        /* \"#utility.yul\":3706:3712   */\n      dup3\n        /* \"#utility.yul\":3695:3704   */\n      dup6\n        /* \"#utility.yul\":3691:3713   */\n      add\n        /* \"#utility.yul\":3670:3723   */\n      tag_518\n      jump\t// in\n    tag_617:\n        /* \"#utility.yul\":3660:3723   */\n      swap2\n      pop\n        /* \"#utility.yul\":3616:3733   */\n      pop\n        /* \"#utility.yul\":3411:3740   */\n      swap3\n      swap2\n      pop\n      pop\n      jump\t// out\n        /* \"#utility.yul\":3746:4365   */\n    tag_55:\n        /* \"#utility.yul\":3823:3829   */\n      0x00\n        /* \"#utility.yul\":3831:3837   */\n      dup1\n        /* \"#utility.yul\":3839:3845   */\n      0x00\n        /* \"#utility.yul\":3888:3890   */\n      0x60\n        /* \"#utility.yul\":3876:3885   */\n      dup5\n        /* \"#utility.yul\":3867:3874   */\n      dup7\n        /* \"#utility.yul\":3863:3886   */\n      sub\n        /* \"#utility.yul\":3859:3891   */\n      slt\n        /* \"#utility.yul\":3856:3975   */\n      iszero\n      tag_619\n      jumpi\n        /* \"#utility.yul\":3894:3973   */\n      tag_620\n      tag_507\n      jump\t// in\n    tag_620:\n        /* \"#utility.yul\":3856:3975   */\n    tag_619:\n        /* \"#utility.yul\":4014:4015   */\n      0x00\n        /* \"#utility.yul\":4039:4092   */\n      tag_621\n        /* \"#utility.yul\":4084:4091   */\n      dup7\n        /* \"#utility.yul\":4075:4081   */\n      dup3\n        /* \"#utility.yul\":4064:4073   */\n      dup8\n        /* \"#utility.yul\":4060:4082   */\n      add\n        /* \"#utility.yul\":4039:4092   */\n      tag_518\n      jump\t// in\n    tag_621:\n        /* \"#utility.yul\":4029:4092   */\n      swap4\n      pop\n        /* \"#utility.yul\":3985:4102   */\n      pop\n        /* \"#utility.yul\":4141:4143   */\n      0x20\n        /* \"#utility.yul\":4167:4220   */\n      tag_622\n        /* \"#utility.yul\":4212:4219   */\n      dup7\n        /* \"#utility.yul\":4203:4209   */\n      dup3\n        /* \"#utility.yul\":4192:4201   */\n      dup8\n        /* \"#utility.yul\":4188:4210   */\n      add\n        /* \"#utility.yul\":4167:4220   */\n      tag_518\n      jump\t// in\n    tag_622:\n        /* \"#utility.yul\":4157:4220   */\n      swap3\n      pop\n        /* \"#utility.yul\":4112:4230   */\n      pop\n        /* \"#utility.yul\":4269:4271   */\n      0x40\n        /* \"#utility.yul\":4295:4348   */\n      tag_623\n        /* \"#utility.yul\":4340:4347   */\n      dup7\n        /* \"#utility.yul\":4331:4337   */\n      dup3\n        /* \"#utility.yul\":4320:4329   */\n      dup8\n        /* \"#utility.yul\":4316:4338   */\n      add\n        /* \"#utility.yul\":4295:4348   */\n      tag_518\n      jump\t// in\n    tag_623:\n        /* \"#utility.yul\":4285:4348   */\n      swap2\n      pop\n        /* \"#utility.yul\":4240:4358   */\n      pop\n        /* \"#utility.yul\":3746:4365   */\n      swap3\n      pop\n      swap3\n      pop\n      swap3\n      jump\t// out\n        /* \"#utility.yul\":4371:4488   */\n    tag_519:\n        /* \"#utility.yul\":4480:4481   */\n      0x00\n        /* \"#utility.yul\":4477:4478   */\n      dup1\n        /* \"#utility.yul\":4470:4482   */\n      revert\n        /* \"#utility.yul\":4494:4611   */\n    tag_520:\n        /* \"#utility.yul\":4603:4604   */\n      0x00\n        /* \"#utility.yul\":4600:4601   */\n      dup1\n        /* \"#utility.yul\":4593:4605   */\n      revert\n        /* \"#utility.yul\":4630:5182   */\n    tag_521:\n        /* \"#utility.yul\":4687:4695   */\n      0x00\n        /* \"#utility.yul\":4697:4703   */\n      dup1\n        /* \"#utility.yul\":4747:4750   */\n      dup4\n        /* \"#utility.yul\":4740:4744   */\n      0x1f\n        /* \"#utility.yul\":4732:4738   */\n      dup5\n        /* \"#utility.yul\":4728:4745   */\n      add\n        /* \"#utility.yul\":4724:4751   */\n      slt\n        /* \"#utility.yul\":4714:4836   */\n      tag_627\n      jumpi\n        /* \"#utility.yul\":4755:4834   */\n      tag_628\n      tag_519\n      jump\t// in\n    tag_628:\n        /* \"#utility.yul\":4714:4836   */\n    tag_627:\n        /* \"#utility.yul\":4868:4874   */\n      dup3\n        /* \"#utility.yul\":4855:4875   */\n      calldataload\n        /* \"#utility.yul\":4845:4875   */\n      swap1\n      pop\n        /* \"#utility.yul\":4898:4916   */\n      0xffffffffffffffff\n        /* \"#utility.yul\":4890:4896   */\n      dup2\n        /* \"#utility.yul\":4887:4917   */\n      gt\n        /* \"#utility.yul\":4884:5001   */\n      iszero\n      tag_629\n      jumpi\n        /* \"#utility.yul\":4920:4999   */\n      tag_630\n      tag_520\n      jump\t// in\n    tag_630:\n        /* \"#utility.yul\":4884:5001   */\n    tag_629:\n        /* \"#utility.yul\":5034:5038   */\n      0x20\n        /* \"#utility.yul\":5026:5032   */\n      dup4\n        /* \"#utility.yul\":5022:5039   */\n      add\n        /* \"#utility.yul\":5010:5039   */\n      swap2\n      pop\n        /* \"#utility.yul\":5088:5091   */\n      dup4\n        /* \"#utility.yul\":5080:5084   */\n      0x01\n        /* \"#utility.yul\":5072:5078   */\n      dup3\n        /* \"#utility.yul\":5068:5085   */\n      mul\n        /* \"#utility.yul\":5058:5066   */\n      dup4\n        /* \"#utility.yul\":5054:5086   */\n      add\n        /* \"#utility.yul\":5051:5092   */\n      gt\n        /* \"#utility.yul\":5048:5176   */\n      iszero\n      tag_631\n      jumpi\n        /* \"#utility.yul\":5095:5174   */\n      tag_632\n      tag_514\n      jump\t// in\n    tag_632:\n        /* \"#utility.yul\":5048:5176   */\n    tag_631:\n        /* \"#utility.yul\":4630:5182   */\n      swap3\n      pop\n      swap3\n      swap1\n      pop\n      jump\t// out\n        /* \"#utility.yul\":5205:5773   */\n    tag_522:\n        /* \"#utility.yul\":5278:5286   */\n      0x00\n        /* \"#utility.yul\":5288:5294   */\n      dup1\n        /* \"#utility.yul\":5338:5341   */\n      dup4\n        /* \"#utility.yul\":5331:5335   */\n      0x1f\n        /* \"#utility.yul\":5323:5329   */\n      dup5\n        /* \"#utility.yul\":5319:5336   */\n      add\n        /* \"#utility.yul\":5315:5342   */\n      slt\n        /* \"#utility.yul\":5305:5427   */\n      tag_634\n      jumpi\n        /* \"#utility.yul\":5346:5425   */\n      tag_635\n      tag_519\n      jump\t// in\n    tag_635:\n        /* \"#utility.yul\":5305:5427   */\n    tag_634:\n        /* \"#utility.yul\":5459:5465   */\n      dup3\n        /* \"#utility.yul\":5446:5466   */\n      calldataload\n        /* \"#utility.yul\":5436:5466   */\n      swap1\n      pop\n        /* \"#utility.yul\":5489:5507   */\n      0xffffffffffffffff\n        /* \"#utility.yul\":5481:5487   */\n      dup2\n        /* \"#utility.yul\":5478:5508   */\n      gt\n        /* \"#utility.yul\":5475:5592   */\n      iszero\n      tag_636\n      jumpi\n        /* \"#utility.yul\":5511:5590   */\n      tag_637\n      tag_520\n      jump\t// in\n    tag_637:\n        /* \"#utility.yul\":5475:5592   */\n    tag_636:\n        /* \"#utility.yul\":5625:5629   */\n      0x20\n        /* \"#utility.yul\":5617:5623   */\n      dup4\n        /* \"#utility.yul\":5613:5630   */\n      add\n        /* \"#utility.yul\":5601:5630   */\n      swap2\n      pop\n        /* \"#utility.yul\":5679:5682   */\n      dup4\n        /* \"#utility.yul\":5671:5675   */\n      0x20\n        /* \"#utility.yul\":5663:5669   */\n      dup3\n        /* \"#utility.yul\":5659:5676   */\n      mul\n        /* \"#utility.yul\":5649:5657   */\n      dup4\n        /* \"#utility.yul\":5645:5677   */\n      add\n        /* \"#utility.yul\":5642:5683   */\n      gt\n        /* \"#utility.yul\":5639:5767   */\n      iszero\n      tag_638\n      jumpi\n        /* \"#utility.yul\":5686:5765   */\n      tag_639\n      tag_514\n      jump\t// in\n    tag_639:\n        /* \"#utility.yul\":5639:5767   */\n    tag_638:\n        /* \"#utility.yul\":5205:5773   */\n      swap3\n      pop\n      swap3\n      swap1\n      pop\n      jump\t// out\n        /* \"#utility.yul\":5779:6826   */\n    tag_60:\n        /* \"#utility.yul\":5894:5900   */\n      0x00\n        /* \"#utility.yul\":5902:5908   */\n      dup1\n        /* \"#utility.yul\":5910:5916   */\n      0x00\n        /* \"#utility.yul\":5918:5924   */\n      dup1\n        /* \"#utility.yul\":5926:5932   */\n      0x00\n        /* \"#utility.yul\":5975:5977   */\n      0x60\n        /* \"#utility.yul\":5963:5972   */\n      dup7\n        /* \"#utility.yul\":5954:5961   */\n      dup9\n        /* \"#utility.yul\":5950:5973   */\n      sub\n        /* \"#utility.yul\":5946:5978   */\n      slt\n        /* \"#utility.yul\":5943:6062   */\n      iszero\n      tag_641\n      jumpi\n        /* \"#utility.yul\":5981:6060   */\n      tag_642\n      tag_507\n      jump\t// in\n    tag_642:\n        /* \"#utility.yul\":5943:6062   */\n    tag_641:\n        /* \"#utility.yul\":6129:6130   */\n      0x00\n        /* \"#utility.yul\":6118:6127   */\n      dup7\n        /* \"#utility.yul\":6114:6131   */\n      add\n        /* \"#utility.yul\":6101:6132   */\n      calldataload\n        /* \"#utility.yul\":6159:6177   */\n      0xffffffffffffffff\n        /* \"#utility.yul\":6151:6157   */\n      dup2\n        /* \"#utility.yul\":6148:6178   */\n      gt\n        /* \"#utility.yul\":6145:6262   */\n      iszero\n      tag_643\n      jumpi\n        /* \"#utility.yul\":6181:6260   */\n      tag_644\n      tag_508\n      jump\t// in\n    tag_644:\n        /* \"#utility.yul\":6145:6262   */\n    tag_643:\n        /* \"#utility.yul\":6294:6358   */\n      tag_645\n        /* \"#utility.yul\":6350:6357   */\n      dup9\n        /* \"#utility.yul\":6341:6347   */\n      dup3\n        /* \"#utility.yul\":6330:6339   */\n      dup10\n        /* \"#utility.yul\":6326:6348   */\n      add\n        /* \"#utility.yul\":6294:6358   */\n      tag_521\n      jump\t// in\n    tag_645:\n        /* \"#utility.yul\":6276:6358   */\n      swap6\n      pop\n      swap6\n      pop\n        /* \"#utility.yul\":6072:6368   */\n      pop\n        /* \"#utility.yul\":6435:6437   */\n      0x20\n        /* \"#utility.yul\":6424:6433   */\n      dup7\n        /* \"#utility.yul\":6420:6438   */\n      add\n        /* \"#utility.yul\":6407:6439   */\n      calldataload\n        /* \"#utility.yul\":6466:6484   */\n      0xffffffffffffffff\n        /* \"#utility.yul\":6458:6464   */\n      dup2\n        /* \"#utility.yul\":6455:6485   */\n      gt\n        /* \"#utility.yul\":6452:6569   */\n      iszero\n      tag_646\n      jumpi\n        /* \"#utility.yul\":6488:6567   */\n      tag_647\n      tag_508\n      jump\t// in\n    tag_647:\n        /* \"#utility.yul\":6452:6569   */\n    tag_646:\n        /* \"#utility.yul\":6601:6681   */\n      tag_648\n        /* \"#utility.yul\":6673:6680   */\n      dup9\n        /* \"#utility.yul\":6664:6670   */\n      dup3\n        /* \"#utility.yul\":6653:6662   */\n      dup10\n        /* \"#utility.yul\":6649:6671   */\n      add\n        /* \"#utility.yul\":6601:6681   */\n      tag_522\n      jump\t// in\n    tag_648:\n        /* \"#utility.yul\":6583:6681   */\n      swap4\n      pop\n      swap4\n      pop\n        /* \"#utility.yul\":6378:6691   */\n      pop\n        /* \"#utility.yul\":6730:6732   */\n      0x40\n        /* \"#utility.yul\":6756:6809   */\n      tag_649\n        /* \"#utility.yul\":6801:6808   */\n      dup9\n        /* \"#utility.yul\":6792:6798   */\n      dup3\n        /* \"#utility.yul\":6781:6790   */\n      dup10\n        /* \"#utility.yul\":6777:6799   */\n      add\n        /* \"#utility.yul\":6756:6809   */\n      tag_518\n      jump\t// in\n    tag_649:\n        /* \"#utility.yul\":6746:6809   */\n      swap2\n      pop\n        /* \"#utility.yul\":6701:6819   */\n      pop\n        /* \"#utility.yul\":5779:6826   */\n      swap3\n      swap6\n      pop\n      swap3\n      swap6\n      swap1\n      swap4\n      pop\n      jump\t// out\n        /* \"#utility.yul\":6832:7306   */\n    tag_65:\n        /* \"#utility.yul\":6900:6906   */\n      0x00\n        /* \"#utility.yul\":6908:6914   */\n      dup1\n        /* \"#utility.yul\":6957:6959   */\n      0x40\n        /* \"#utility.yul\":6945:6954   */\n      dup4\n        /* \"#utility.yul\":6936:6943   */\n      dup6\n        /* \"#utility.yul\":6932:6955   */\n      sub\n        /* \"#utility.yul\":6928:6960   */\n      slt\n        /* \"#utility.yul\":6925:7044   */\n      iszero\n      tag_651\n      jumpi\n        /* \"#utility.yul\":6963:7042   */\n      tag_652\n      tag_507\n      jump\t// in\n    tag_652:\n        /* \"#utility.yul\":6925:7044   */\n    tag_651:\n        /* \"#utility.yul\":7083:7084   */\n      0x00\n        /* \"#utility.yul\":7108:7161   */\n      tag_653\n        /* \"#utility.yul\":7153:7160   */\n      dup6\n        /* \"#utility.yul\":7144:7150   */\n      dup3\n        /* \"#utility.yul\":7133:7142   */\n      dup7\n        /* \"#utility.yul\":7129:7151   */\n      add\n        /* \"#utility.yul\":7108:7161   */\n      tag_518\n      jump\t// in\n    tag_653:\n        /* \"#utility.yul\":7098:7161   */\n      swap3\n      pop\n        /* \"#utility.yul\":7054:7171   */\n      pop\n        /* \"#utility.yul\":7210:7212   */\n      0x20\n        /* \"#utility.yul\":7236:7289   */\n      tag_654\n        /* \"#utility.yul\":7281:7288   */\n      dup6\n        /* \"#utility.yul\":7272:7278   */\n      dup3\n        /* \"#utility.yul\":7261:7270   */\n      dup7\n        /* \"#utility.yul\":7257:7279   */\n      add\n        /* \"#utility.yul\":7236:7289   */\n      tag_518\n      jump\t// in\n    tag_654:\n        /* \"#utility.yul\":7226:7289   */\n      swap2\n      pop\n        /* \"#utility.yul\":7181:7299   */\n      pop\n        /* \"#utility.yul\":6832:7306   */\n      swap3\n      pop\n      swap3\n      swap1\n      pop\n      jump\t// out\n        /* \"#utility.yul\":7312:7430   */\n    tag_523:\n        /* \"#utility.yul\":7399:7423   */\n      tag_656\n        /* \"#utility.yul\":7417:7422   */\n      dup2\n        /* \"#utility.yul\":7399:7423   */\n      tag_509\n      jump\t// in\n    tag_656:\n        /* \"#utility.yul\":7394:7397   */\n      dup3\n        /* \"#utility.yul\":7387:7424   */\n      mstore\n        /* \"#utility.yul\":7312:7430   */\n      pop\n      pop\n      jump\t// out\n        /* \"#utility.yul\":7436:7658   */\n    tag_76:\n        /* \"#utility.yul\":7529:7533   */\n      0x00\n        /* \"#utility.yul\":7567:7569   */\n      0x20\n        /* \"#utility.yul\":7556:7565   */\n      dup3\n        /* \"#utility.yul\":7552:7570   */\n      add\n        /* \"#utility.yul\":7544:7570   */\n      swap1\n      pop\n        /* \"#utility.yul\":7580:7651   */\n      tag_658\n        /* \"#utility.yul\":7648:7649   */\n      0x00\n        /* \"#utility.yul\":7637:7646   */\n      dup4\n        /* \"#utility.yul\":7633:7650   */\n      add\n        /* \"#utility.yul\":7624:7630   */\n      dup5\n        /* \"#utility.yul\":7580:7651   */\n      tag_523\n      jump\t// in\n    tag_658:\n        /* \"#utility.yul\":7436:7658   */\n      swap3\n      swap2\n      pop\n      pop\n      jump\t// out\n        /* \"#utility.yul\":7664:7790   */\n    tag_524:\n        /* \"#utility.yul\":7701:7708   */\n      0x00\n        /* \"#utility.yul\":7741:7783   */\n      0xffffffffffffffffffffffffffffffffffffffff\n        /* \"#utility.yul\":7734:7739   */\n      dup3\n        /* \"#utility.yul\":7730:7784   */\n      and\n        /* \"#utility.yul\":7719:7784   */\n      swap1\n      pop\n        /* \"#utility.yul\":7664:7790   */\n      swap2\n      swap1\n      pop\n      jump\t// out\n        /* \"#utility.yul\":7796:7892   */\n    tag_525:\n        /* \"#utility.yul\":7833:7840   */\n      0x00\n        /* \"#utility.yul\":7862:7886   */\n      tag_661\n        /* \"#utility.yul\":7880:7885   */\n      dup3\n        /* \"#utility.yul\":7862:7886   */\n      tag_524\n      jump\t// in\n    tag_661:\n        /* \"#utility.yul\":7851:7886   */\n      swap1\n      pop\n        /* \"#utility.yul\":7796:7892   */\n      swap2\n      swap1\n      pop\n      jump\t// out\n        /* \"#utility.yul\":7898:8016   */\n    tag_526:\n        /* \"#utility.yul\":7985:8009   */\n      tag_663\n        /* \"#utility.yul\":8003:8008   */\n      dup2\n        /* \"#utility.yul\":7985:8009   */\n      tag_525\n      jump\t// in\n    tag_663:\n        /* \"#utility.yul\":7980:7983   */\n      dup3\n        /* \"#utility.yul\":7973:8010   */\n      mstore\n        /* \"#utility.yul\":7898:8016   */\n      pop\n      pop\n      jump\t// out\n        /* \"#utility.yul\":8022:8244   */\n    tag_80:\n        /* \"#utility.yul\":8115:8119   */\n      0x00\n        /* \"#utility.yul\":8153:8155   */\n      0x20\n        /* \"#utility.yul\":8142:8151   */\n      dup3\n        /* \"#utility.yul\":8138:8156   */\n      add\n        /* \"#utility.yul\":8130:8156   */\n      swap1\n      pop\n        /* \"#utility.yul\":8166:8237   */\n      tag_665\n        /* \"#utility.yul\":8234:8235   */\n      0x00\n        /* \"#utility.yul\":8223:8232   */\n      dup4\n        /* \"#utility.yul\":8219:8236   */\n      add\n        /* \"#utility.yul\":8210:8216   */\n      dup5\n        /* \"#utility.yul\":8166:8237   */\n      tag_526\n      jump\t// in\n    tag_665:\n        /* \"#utility.yul\":8022:8244   */\n      swap3\n      swap2\n      pop\n      pop\n      jump\t// out\n        /* \"#utility.yul\":8270:8863   */\n    tag_527:\n        /* \"#utility.yul\":8368:8376   */\n      0x00\n        /* \"#utility.yul\":8378:8384   */\n      dup1\n        /* \"#utility.yul\":8428:8431   */\n      dup4\n        /* \"#utility.yul\":8421:8425   */\n      0x1f\n        /* \"#utility.yul\":8413:8419   */\n      dup5\n        /* \"#utility.yul\":8409:8426   */\n      add\n        /* \"#utility.yul\":8405:8432   */\n      slt\n        /* \"#utility.yul\":8395:8517   */\n      tag_667\n      jumpi\n        /* \"#utility.yul\":8436:8515   */\n      tag_668\n      tag_519\n      jump\t// in\n    tag_668:\n        /* \"#utility.yul\":8395:8517   */\n    tag_667:\n        /* \"#utility.yul\":8549:8555   */\n      dup3\n        /* \"#utility.yul\":8536:8556   */\n      calldataload\n        /* \"#utility.yul\":8526:8556   */\n      swap1\n      pop\n        /* \"#utility.yul\":8579:8597   */\n      0xffffffffffffffff\n        /* \"#utility.yul\":8571:8577   */\n      dup2\n        /* \"#utility.yul\":8568:8598   */\n      gt\n        /* \"#utility.yul\":8565:8682   */\n      iszero\n      tag_669\n      jumpi\n        /* \"#utility.yul\":8601:8680   */\n      tag_670\n      tag_520\n      jump\t// in\n    tag_670:\n        /* \"#utility.yul\":8565:8682   */\n    tag_669:\n        /* \"#utility.yul\":8715:8719   */\n      0x20\n        /* \"#utility.yul\":8707:8713   */\n      dup4\n        /* \"#utility.yul\":8703:8720   */\n      add\n        /* \"#utility.yul\":8691:8720   */\n      swap2\n      pop\n        /* \"#utility.yul\":8769:8772   */\n      dup4\n        /* \"#utility.yul\":8761:8765   */\n      0x40\n        /* \"#utility.yul\":8753:8759   */\n      dup3\n        /* \"#utility.yul\":8749:8766   */\n      mul\n        /* \"#utility.yul\":8739:8747   */\n      dup4\n        /* \"#utility.yul\":8735:8767   */\n      add\n        /* \"#utility.yul\":8732:8773   */\n      gt\n        /* \"#utility.yul\":8729:8857   */\n      iszero\n      tag_671\n      jumpi\n        /* \"#utility.yul\":8776:8855   */\n      tag_672\n      tag_514\n      jump\t// in\n    tag_672:\n        /* \"#utility.yul\":8729:8857   */\n    tag_671:\n        /* \"#utility.yul\":8270:8863   */\n      swap3\n      pop\n      swap3\n      swap1\n      pop\n      jump\t// out\n        /* \"#utility.yul\":8869:9623   */\n    tag_83:\n        /* \"#utility.yul\":8989:8995   */\n      0x00\n        /* \"#utility.yul\":8997:9003   */\n      dup1\n        /* \"#utility.yul\":9005:9011   */\n      0x00\n        /* \"#utility.yul\":9054:9056   */\n      0x40\n        /* \"#utility.yul\":9042:9051   */\n      dup5\n        /* \"#utility.yul\":9033:9040   */\n      dup7\n        /* \"#utility.yul\":9029:9052   */\n      sub\n        /* \"#utility.yul\":9025:9057   */\n      slt\n        /* \"#utility.yul\":9022:9141   */\n      iszero\n      tag_674\n      jumpi\n        /* \"#utility.yul\":9060:9139   */\n      tag_675\n      tag_507\n      jump\t// in\n    tag_675:\n        /* \"#utility.yul\":9022:9141   */\n    tag_674:\n        /* \"#utility.yul\":9180:9181   */\n      0x00\n        /* \"#utility.yul\":9205:9258   */\n      tag_676\n        /* \"#utility.yul\":9250:9257   */\n      dup7\n        /* \"#utility.yul\":9241:9247   */\n      dup3\n        /* \"#utility.yul\":9230:9239   */\n      dup8\n        /* \"#utility.yul\":9226:9248   */\n      add\n        /* \"#utility.yul\":9205:9258   */\n      tag_518\n      jump\t// in\n    tag_676:\n        /* \"#utility.yul\":9195:9258   */\n      swap4\n      pop\n        /* \"#utility.yul\":9151:9268   */\n      pop\n        /* \"#utility.yul\":9335:9337   */\n      0x20\n        /* \"#utility.yul\":9324:9333   */\n      dup5\n        /* \"#utility.yul\":9320:9338   */\n      add\n        /* \"#utility.yul\":9307:9339   */\n      calldataload\n        /* \"#utility.yul\":9366:9384   */\n      0xffffffffffffffff\n        /* \"#utility.yul\":9358:9364   */\n      dup2\n        /* \"#utility.yul\":9355:9385   */\n      gt\n        /* \"#utility.yul\":9352:9469   */\n      iszero\n      tag_677\n      jumpi\n        /* \"#utility.yul\":9388:9467   */\n      tag_678\n      tag_508\n      jump\t// in\n    tag_678:\n        /* \"#utility.yul\":9352:9469   */\n    tag_677:\n        /* \"#utility.yul\":9501:9606   */\n      tag_679\n        /* \"#utility.yul\":9598:9605   */\n      dup7\n        /* \"#utility.yul\":9589:9595   */\n      dup3\n        /* \"#utility.yul\":9578:9587   */\n      dup8\n        /* \"#utility.yul\":9574:9596   */\n      add\n        /* \"#utility.yul\":9501:9606   */\n      tag_527\n      jump\t// in\n    tag_679:\n        /* \"#utility.yul\":9483:9606   */\n      swap3\n      pop\n      swap3\n      pop\n        /* \"#utility.yul\":9278:9616   */\n      pop\n        /* \"#utility.yul\":8869:9623   */\n      swap3\n      pop\n      swap3\n      pop\n      swap3\n      jump\t// out\n        /* \"#utility.yul\":9629:9751   */\n    tag_528:\n        /* \"#utility.yul\":9702:9726   */\n      tag_681\n        /* \"#utility.yul\":9720:9725   */\n      dup2\n        /* \"#utility.yul\":9702:9726   */\n      tag_525\n      jump\t// in\n    tag_681:\n        /* \"#utility.yul\":9695:9700   */\n      dup2\n        /* \"#utility.yul\":9692:9727   */\n      eq\n        /* \"#utility.yul\":9682:9745   */\n      tag_682\n      jumpi\n        /* \"#utility.yul\":9741:9742   */\n      0x00\n        /* \"#utility.yul\":9738:9739   */\n      dup1\n        /* \"#utility.yul\":9731:9743   */\n      revert\n        /* \"#utility.yul\":9682:9745   */\n    tag_682:\n        /* \"#utility.yul\":9629:9751   */\n      pop\n      jump\t// out\n        /* \"#utility.yul\":9757:9896   */\n    tag_529:\n        /* \"#utility.yul\":9803:9808   */\n      0x00\n        /* \"#utility.yul\":9841:9847   */\n      dup2\n        /* \"#utility.yul\":9828:9848   */\n      calldataload\n        /* \"#utility.yul\":9819:9848   */\n      swap1\n      pop\n        /* \"#utility.yul\":9857:9890   */\n      tag_684\n        /* \"#utility.yul\":9884:9889   */\n      dup2\n        /* \"#utility.yul\":9857:9890   */\n      tag_528\n      jump\t// in\n    tag_684:\n        /* \"#utility.yul\":9757:9896   */\n      swap3\n      swap2\n      pop\n      pop\n      jump\t// out\n        /* \"#utility.yul\":9902:10231   */\n    tag_106:\n        /* \"#utility.yul\":9961:9967   */\n      0x00\n        /* \"#utility.yul\":10010:10012   */\n      0x20\n        /* \"#utility.yul\":9998:10007   */\n      dup3\n        /* \"#utility.yul\":9989:9996   */\n      dup5\n        /* \"#utility.yul\":9985:10008   */\n      sub\n        /* \"#utility.yul\":9981:10013   */\n      slt\n        /* \"#utility.yul\":9978:10097   */\n      iszero\n      tag_686\n      jumpi\n        /* \"#utility.yul\":10016:10095   */\n      tag_687\n      tag_507\n      jump\t// in\n    tag_687:\n        /* \"#utility.yul\":9978:10097   */\n    tag_686:\n        /* \"#utility.yul\":10136:10137   */\n      0x00\n        /* \"#utility.yul\":10161:10214   */\n      tag_688\n        /* \"#utility.yul\":10206:10213   */\n      dup5\n        /* \"#utility.yul\":10197:10203   */\n      dup3\n        /* \"#utility.yul\":10186:10195   */\n      dup6\n        /* \"#utility.yul\":10182:10204   */\n      add\n        /* \"#utility.yul\":10161:10214   */\n      tag_529\n      jump\t// in\n    tag_688:\n        /* \"#utility.yul\":10151:10214   */\n      swap2\n      pop\n        /* \"#utility.yul\":10107:10224   */\n      pop\n        /* \"#utility.yul\":9902:10231   */\n      swap3\n      swap2\n      pop\n      pop\n      jump\t// out\n        /* \"#utility.yul\":10237:10417   */\n    tag_118:\n        /* \"#utility.yul\":10285:10362   */\n      0x4e487b7100000000000000000000000000000000000000000000000000000000\n        /* \"#utility.yul\":10282:10283   */\n      0x00\n        /* \"#utility.yul\":10275:10363   */\n      mstore\n        /* \"#utility.yul\":10382:10386   */\n      0x41\n        /* \"#utility.yul\":10379:10380   */\n      0x04\n        /* \"#utility.yul\":10372:10387   */\n      mstore\n        /* \"#utility.yul\":10406:10410   */\n      0x24\n        /* \"#utility.yul\":10403:10404   */\n      0x00\n        /* \"#utility.yul\":10396:10411   */\n      revert\n        /* \"#utility.yul\":10423:10603   */\n    tag_122:\n        /* \"#utility.yul\":10471:10548   */\n      0x4e487b7100000000000000000000000000000000000000000000000000000000\n        /* \"#utility.yul\":10468:10469   */\n      0x00\n        /* \"#utility.yul\":10461:10549   */\n      mstore\n        /* \"#utility.yul\":10568:10572   */\n      0x32\n        /* \"#utility.yul\":10565:10566   */\n      0x04\n        /* \"#utility.yul\":10558:10573   */\n      mstore\n        /* \"#utility.yul\":10592:10596   */\n      0x24\n        /* \"#utility.yul\":10589:10590   */\n      0x00\n        /* \"#utility.yul\":10582:10597   */\n      revert\n        /* \"#utility.yul\":10609:10778   */\n    tag_530:\n        /* \"#utility.yul\":10693:10704   */\n      0x00\n        /* \"#utility.yul\":10727:10733   */\n      dup3\n        /* \"#utility.yul\":10722:10725   */\n      dup3\n        /* \"#utility.yul\":10715:10734   */\n      mstore\n        /* \"#utility.yul\":10767:10771   */\n      0x20\n        /* \"#utility.yul\":10762:10765   */\n      dup3\n        /* \"#utility.yul\":10758:10772   */\n      add\n        /* \"#utility.yul\":10743:10772   */\n      swap1\n      pop\n        /* \"#utility.yul\":10609:10778   */\n      swap3\n      swap2\n      pop\n      pop\n      jump\t// out\n        /* \"#utility.yul\":10784:10956   */\n    tag_531:\n        /* \"#utility.yul\":10924:10948   */\n      0x44656e6f6d696e6174696f6e206e6f7420666f756e6400000000000000000000\n        /* \"#utility.yul\":10920:10921   */\n      0x00\n        /* \"#utility.yul\":10912:10918   */\n      dup3\n        /* \"#utility.yul\":10908:10922   */\n      add\n        /* \"#utility.yul\":10901:10949   */\n      mstore\n        /* \"#utility.yul\":10784:10956   */\n      pop\n      jump\t// out\n        /* \"#utility.yul\":10962:11328   */\n    tag_532:\n        /* \"#utility.yul\":11104:11107   */\n      0x00\n        /* \"#utility.yul\":11125:11192   */\n      tag_694\n        /* \"#utility.yul\":11189:11191   */\n      0x16\n        /* \"#utility.yul\":11184:11187   */\n      dup4\n        /* \"#utility.yul\":11125:11192   */\n      tag_530\n      jump\t// in\n    tag_694:\n        /* \"#utility.yul\":11118:11192   */\n      swap2\n      pop\n        /* \"#utility.yul\":11201:11294   */\n      tag_695\n        /* \"#utility.yul\":11290:11293   */\n      dup3\n        /* \"#utility.yul\":11201:11294   */\n      tag_531\n      jump\t// in\n    tag_695:\n        /* \"#utility.yul\":11319:11321   */\n      0x20\n        /* \"#utility.yul\":11314:11317   */\n      dup3\n        /* \"#utility.yul\":11310:11322   */\n      add\n        /* \"#utility.yul\":11303:11322   */\n      swap1\n      pop\n        /* \"#utility.yul\":10962:11328   */\n      swap2\n      swap1\n      pop\n      jump\t// out\n        /* \"#utility.yul\":11334:11753   */\n    tag_159:\n        /* \"#utility.yul\":11500:11504   */\n      0x00\n        /* \"#utility.yul\":11538:11540   */\n      0x20\n        /* \"#utility.yul\":11527:11536   */\n      dup3\n        /* \"#utility.yul\":11523:11541   */\n      add\n        /* \"#utility.yul\":11515:11541   */\n      swap1\n      pop\n        /* \"#utility.yul\":11587:11596   */\n      dup2\n        /* \"#utility.yul\":11581:11585   */\n      dup2\n        /* \"#utility.yul\":11577:11597   */\n      sub\n        /* \"#utility.yul\":11573:11574   */\n      0x00\n        /* \"#utility.yul\":11562:11571   */\n      dup4\n        /* \"#utility.yul\":11558:11575   */\n      add\n        /* \"#utility.yul\":11551:11598   */\n      mstore\n        /* \"#utility.yul\":11615:11746   */\n      tag_697\n        /* \"#utility.yul\":11741:11745   */\n      dup2\n        /* \"#utility.yul\":11615:11746   */\n      tag_532\n      jump\t// in\n    tag_697:\n        /* \"#utility.yul\":11607:11746   */\n      swap1\n      pop\n        /* \"#utility.yul\":11334:11753   */\n      swap2\n      swap1\n      pop\n      jump\t// out\n        /* \"#utility.yul\":11759:11939   */\n    tag_533:\n        /* \"#utility.yul\":11807:11884   */\n      0x4e487b7100000000000000000000000000000000000000000000000000000000\n        /* \"#utility.yul\":11804:11805   */\n      0x00\n        /* \"#utility.yul\":11797:11885   */\n      mstore\n        /* \"#utility.yul\":11904:11908   */\n      0x11\n        /* \"#utility.yul\":11901:11902   */\n      0x04\n        /* \"#utility.yul\":11894:11909   */\n      mstore\n        /* \"#utility.yul\":11928:11932   */\n      0x24\n        /* \"#utility.yul\":11925:11926   */\n      0x00\n        /* \"#utility.yul\":11918:11933   */\n      revert\n        /* \"#utility.yul\":11945:12139   */\n    tag_170:\n        /* \"#utility.yul\":11985:11989   */\n      0x00\n        /* \"#utility.yul\":12005:12025   */\n      tag_700\n        /* \"#utility.yul\":12023:12024   */\n      dup3\n        /* \"#utility.yul\":12005:12025   */\n      tag_504\n      jump\t// in\n    tag_700:\n        /* \"#utility.yul\":12000:12025   */\n      swap2\n      pop\n        /* \"#utility.yul\":12039:12059   */\n      tag_701\n        /* \"#utility.yul\":12057:12058   */\n      dup4\n        /* \"#utility.yul\":12039:12059   */\n      tag_504\n      jump\t// in\n    tag_701:\n        /* \"#utility.yul\":12034:12059   */\n      swap3\n      pop\n        /* \"#utility.yul\":12083:12084   */\n      dup3\n        /* \"#utility.yul\":12080:12081   */\n      dup3\n        /* \"#utility.yul\":12076:12085   */\n      sub\n        /* \"#utility.yul\":12068:12085   */\n      swap1\n      pop\n        /* \"#utility.yul\":12107:12108   */\n      dup2\n        /* \"#utility.yul\":12101:12105   */\n      dup2\n        /* \"#utility.yul\":12098:12109   */\n      gt\n        /* \"#utility.yul\":12095:12132   */\n      iszero\n      tag_702\n      jumpi\n        /* \"#utility.yul\":12112:12130   */\n      tag_703\n      tag_533\n      jump\t// in\n    tag_703:\n        /* \"#utility.yul\":12095:12132   */\n    tag_702:\n        /* \"#utility.yul\":11945:12139   */\n      swap3\n      swap2\n      pop\n      pop\n      jump\t// out\n        /* \"#utility.yul\":12145:12325   */\n    tag_179:\n        /* \"#utility.yul\":12193:12270   */\n      0x4e487b7100000000000000000000000000000000000000000000000000000000\n        /* \"#utility.yul\":12190:12191   */\n      0x00\n        /* \"#utility.yul\":12183:12271   */\n      mstore\n        /* \"#utility.yul\":12290:12294   */\n      0x31\n        /* \"#utility.yul\":12287:12288   */\n      0x04\n        /* \"#utility.yul\":12280:12295   */\n      mstore\n        /* \"#utility.yul\":12314:12318   */\n      0x24\n        /* \"#utility.yul\":12311:12312   */\n      0x00\n        /* \"#utility.yul\":12304:12319   */\n      revert\n        /* \"#utility.yul\":12331:12505   */\n    tag_534:\n        /* \"#utility.yul\":12471:12497   */\n      0x556e737570706f727465642064656e6f6d696e6174696f6e0000000000000000\n        /* \"#utility.yul\":12467:12468   */\n      0x00\n        /* \"#utility.yul\":12459:12465   */\n      dup3\n        /* \"#utility.yul\":12455:12469   */\n      add\n        /* \"#utility.yul\":12448:12498   */\n      mstore\n        /* \"#utility.yul\":12331:12505   */\n      pop\n      jump\t// out\n        /* \"#utility.yul\":12511:12877   */\n    tag_535:\n        /* \"#utility.yul\":12653:12656   */\n      0x00\n        /* \"#utility.yul\":12674:12741   */\n      tag_707\n        /* \"#utility.yul\":12738:12740   */\n      0x18\n        /* \"#utility.yul\":12733:12736   */\n      dup4\n        /* \"#utility.yul\":12674:12741   */\n      tag_530\n      jump\t// in\n    tag_707:\n        /* \"#utility.yul\":12667:12741   */\n      swap2\n      pop\n        /* \"#utility.yul\":12750:12843   */\n      tag_708\n        /* \"#utility.yul\":12839:12842   */\n      dup3\n        /* \"#utility.yul\":12750:12843   */\n      tag_534\n      jump\t// in\n    tag_708:\n        /* \"#utility.yul\":12868:12870   */\n      0x20\n        /* \"#utility.yul\":12863:12866   */\n      dup3\n        /* \"#utility.yul\":12859:12871   */\n      add\n        /* \"#utility.yul\":12852:12871   */\n      swap1\n      pop\n        /* \"#utility.yul\":12511:12877   */\n      swap2\n      swap1\n      pop\n      jump\t// out\n        /* \"#utility.yul\":12883:13302   */\n    tag_191:\n        /* \"#utility.yul\":13049:13053   */\n      0x00\n        /* \"#utility.yul\":13087:13089   */\n      0x20\n        /* \"#utility.yul\":13076:13085   */\n      dup3\n        /* \"#utility.yul\":13072:13090   */\n      add\n        /* \"#utility.yul\":13064:13090   */\n      swap1\n      pop\n        /* \"#utility.yul\":13136:13145   */\n      dup2\n        /* \"#utility.yul\":13130:13134   */\n      dup2\n        /* \"#utility.yul\":13126:13146   */\n      sub\n        /* \"#utility.yul\":13122:13123   */\n      0x00\n        /* \"#utility.yul\":13111:13120   */\n      dup4\n        /* \"#utility.yul\":13107:13124   */\n      add\n        /* \"#utility.yul\":13100:13147   */\n      mstore\n        /* \"#utility.yul\":13164:13295   */\n      tag_710\n        /* \"#utility.yul\":13290:13294   */\n      dup2\n        /* \"#utility.yul\":13164:13295   */\n      tag_535\n      jump\t// in\n    tag_710:\n        /* \"#utility.yul\":13156:13295   */\n      swap1\n      pop\n        /* \"#utility.yul\":12883:13302   */\n      swap2\n      swap1\n      pop\n      jump\t// out\n        /* \"#utility.yul\":13308:13473   */\n    tag_536:\n        /* \"#utility.yul\":13448:13465   */\n      0x546f6f206d616e7920696e707574730000000000000000000000000000000000\n        /* \"#utility.yul\":13444:13445   */\n      0x00\n        /* \"#utility.yul\":13436:13442   */\n      dup3\n        /* \"#utility.yul\":13432:13446   */\n      add\n        /* \"#utility.yul\":13425:13466   */\n      mstore\n        /* \"#utility.yul\":13308:13473   */\n      pop\n      jump\t// out\n        /* \"#utility.yul\":13479:13845   */\n    tag_537:\n        /* \"#utility.yul\":13621:13624   */\n      0x00\n        /* \"#utility.yul\":13642:13709   */\n      tag_713\n        /* \"#utility.yul\":13706:13708   */\n      0x0f\n        /* \"#utility.yul\":13701:13704   */\n      dup4\n        /* \"#utility.yul\":13642:13709   */\n      tag_530\n      jump\t// in\n    tag_713:\n        /* \"#utility.yul\":13635:13709   */\n      swap2\n      pop\n        /* \"#utility.yul\":13718:13811   */\n      tag_714\n        /* \"#utility.yul\":13807:13810   */\n      dup3\n        /* \"#utility.yul\":13718:13811   */\n      tag_536\n      jump\t// in\n    tag_714:\n        /* \"#utility.yul\":13836:13838   */\n      0x20\n        /* \"#utility.yul\":13831:13834   */\n      dup3\n        /* \"#utility.yul\":13827:13839   */\n      add\n        /* \"#utility.yul\":13820:13839   */\n      swap1\n      pop\n        /* \"#utility.yul\":13479:13845   */\n      swap2\n      swap1\n      pop\n      jump\t// out\n        /* \"#utility.yul\":13851:14270   */\n    tag_194:\n        /* \"#utility.yul\":14017:14021   */\n      0x00\n        /* \"#utility.yul\":14055:14057   */\n      0x20\n        /* \"#utility.yul\":14044:14053   */\n      dup3\n        /* \"#utility.yul\":14040:14058   */\n      add\n        /* \"#utility.yul\":14032:14058   */\n      swap1\n      pop\n        /* \"#utility.yul\":14104:14113   */\n      dup2\n        /* \"#utility.yul\":14098:14102   */\n      dup2\n        /* \"#utility.yul\":14094:14114   */\n      sub\n        /* \"#utility.yul\":14090:14091   */\n      0x00\n        /* \"#utility.yul\":14079:14088   */\n      dup4\n        /* \"#utility.yul\":14075:14092   */\n      add\n        /* \"#utility.yul\":14068:14115   */\n      mstore\n        /* \"#utility.yul\":14132:14263   */\n      tag_716\n        /* \"#utility.yul\":14258:14262   */\n      dup2\n        /* \"#utility.yul\":14132:14263   */\n      tag_537\n      jump\t// in\n    tag_716:\n        /* \"#utility.yul\":14124:14263   */\n      swap1\n      pop\n        /* \"#utility.yul\":13851:14270   */\n      swap2\n      swap1\n      pop\n      jump\t// out\n        /* \"#utility.yul\":14276:14393   */\n    tag_538:\n        /* \"#utility.yul\":14385:14386   */\n      0x00\n        /* \"#utility.yul\":14382:14383   */\n      dup1\n        /* \"#utility.yul\":14375:14387   */\n      revert\n        /* \"#utility.yul\":14399:14501   */\n    tag_539:\n        /* \"#utility.yul\":14440:14446   */\n      0x00\n        /* \"#utility.yul\":14491:14493   */\n      0x1f\n        /* \"#utility.yul\":14487:14494   */\n      not\n        /* \"#utility.yul\":14482:14484   */\n      0x1f\n        /* \"#utility.yul\":14475:14480   */\n      dup4\n        /* \"#utility.yul\":14471:14485   */\n      add\n        /* \"#utility.yul\":14467:14495   */\n      and\n        /* \"#utility.yul\":14457:14495   */\n      swap1\n      pop\n        /* \"#utility.yul\":14399:14501   */\n      swap2\n      swap1\n      pop\n      jump\t// out\n        /* \"#utility.yul\":14507:14788   */\n    tag_540:\n        /* \"#utility.yul\":14590:14617   */\n      tag_720\n        /* \"#utility.yul\":14612:14616   */\n      dup3\n        /* \"#utility.yul\":14590:14617   */\n      tag_539\n      jump\t// in\n    tag_720:\n        /* \"#utility.yul\":14582:14588   */\n      dup2\n        /* \"#utility.yul\":14578:14618   */\n      add\n        /* \"#utility.yul\":14720:14726   */\n      dup2\n        /* \"#utility.yul\":14708:14718   */\n      dup2\n        /* \"#utility.yul\":14705:14727   */\n      lt\n        /* \"#utility.yul\":14684:14702   */\n      0xffffffffffffffff\n        /* \"#utility.yul\":14672:14682   */\n      dup3\n        /* \"#utility.yul\":14669:14703   */\n      gt\n        /* \"#utility.yul\":14666:14728   */\n      or\n        /* \"#utility.yul\":14663:14751   */\n      iszero\n      tag_721\n      jumpi\n        /* \"#utility.yul\":14731:14749   */\n      tag_722\n      tag_118\n      jump\t// in\n    tag_722:\n        /* \"#utility.yul\":14663:14751   */\n    tag_721:\n        /* \"#utility.yul\":14771:14781   */\n      dup1\n        /* \"#utility.yul\":14767:14769   */\n      0x40\n        /* \"#utility.yul\":14760:14782   */\n      mstore\n        /* \"#utility.yul\":14550:14788   */\n      pop\n        /* \"#utility.yul\":14507:14788   */\n      pop\n      pop\n      jump\t// out\n        /* \"#utility.yul\":14794:14923   */\n    tag_541:\n        /* \"#utility.yul\":14828:14834   */\n      0x00\n        /* \"#utility.yul\":14855:14875   */\n      tag_724\n      tag_506\n      jump\t// in\n    tag_724:\n        /* \"#utility.yul\":14845:14875   */\n      swap1\n      pop\n        /* \"#utility.yul\":14884:14917   */\n      tag_725\n        /* \"#utility.yul\":14912:14916   */\n      dup3\n        /* \"#utility.yul\":14904:14910   */\n      dup3\n        /* \"#utility.yul\":14884:14917   */\n      tag_540\n      jump\t// in\n    tag_725:\n        /* \"#utility.yul\":14794:14923   */\n      swap2\n      swap1\n      pop\n      jump\t// out\n        /* \"#utility.yul\":15052:15301   */\n    tag_543:\n        /* \"#utility.yul\":15127:15131   */\n      0x00\n        /* \"#utility.yul\":15217:15235   */\n      0xffffffffffffffff\n        /* \"#utility.yul\":15209:15215   */\n      dup3\n        /* \"#utility.yul\":15206:15236   */\n      gt\n        /* \"#utility.yul\":15203:15259   */\n      iszero\n      tag_728\n      jumpi\n        /* \"#utility.yul\":15239:15257   */\n      tag_729\n      tag_118\n      jump\t// in\n    tag_729:\n        /* \"#utility.yul\":15203:15259   */\n    tag_728:\n        /* \"#utility.yul\":15289:15293   */\n      0x20\n        /* \"#utility.yul\":15281:15287   */\n      dup3\n        /* \"#utility.yul\":15277:15294   */\n      mul\n        /* \"#utility.yul\":15269:15294   */\n      swap1\n      pop\n        /* \"#utility.yul\":15052:15301   */\n      swap2\n      swap1\n      pop\n      jump\t// out\n        /* \"#utility.yul\":15325:15968   */\n    tag_544:\n        /* \"#utility.yul\":15419:15424   */\n      0x00\n        /* \"#utility.yul\":15444:15523   */\n      tag_731\n        /* \"#utility.yul\":15460:15522   */\n      tag_732\n        /* \"#utility.yul\":15515:15521   */\n      dup5\n        /* \"#utility.yul\":15460:15522   */\n      tag_543\n      jump\t// in\n    tag_732:\n        /* \"#utility.yul\":15444:15523   */\n      tag_541\n      jump\t// in\n    tag_731:\n        /* \"#utility.yul\":15435:15523   */\n      swap1\n      pop\n        /* \"#utility.yul\":15543:15548   */\n      dup1\n        /* \"#utility.yul\":15596:15600   */\n      0x20\n        /* \"#utility.yul\":15588:15594   */\n      dup5\n        /* \"#utility.yul\":15584:15601   */\n      mul\n        /* \"#utility.yul\":15576:15582   */\n      dup4\n        /* \"#utility.yul\":15572:15602   */\n      add\n        /* \"#utility.yul\":15625:15628   */\n      dup6\n        /* \"#utility.yul\":15617:15623   */\n      dup2\n        /* \"#utility.yul\":15614:15629   */\n      gt\n        /* \"#utility.yul\":15611:15733   */\n      iszero\n      tag_733\n      jumpi\n        /* \"#utility.yul\":15644:15723   */\n      tag_734\n      tag_514\n      jump\t// in\n    tag_734:\n        /* \"#utility.yul\":15611:15733   */\n    tag_733:\n        /* \"#utility.yul\":15759:15765   */\n      dup4\n        /* \"#utility.yul\":15742:15962   */\n    tag_735:\n        /* \"#utility.yul\":15776:15782   */\n      dup2\n        /* \"#utility.yul\":15771:15774   */\n      dup2\n        /* \"#utility.yul\":15768:15783   */\n      lt\n        /* \"#utility.yul\":15742:15962   */\n      iszero\n      tag_737\n      jumpi\n        /* \"#utility.yul\":15851:15854   */\n      dup1\n        /* \"#utility.yul\":15880:15917   */\n      tag_738\n        /* \"#utility.yul\":15913:15916   */\n      dup9\n        /* \"#utility.yul\":15901:15911   */\n      dup3\n        /* \"#utility.yul\":15880:15917   */\n      tag_518\n      jump\t// in\n    tag_738:\n        /* \"#utility.yul\":15875:15878   */\n      dup5\n        /* \"#utility.yul\":15868:15918   */\n      mstore\n        /* \"#utility.yul\":15947:15951   */\n      0x20\n        /* \"#utility.yul\":15942:15945   */\n      dup5\n        /* \"#utility.yul\":15938:15952   */\n      add\n        /* \"#utility.yul\":15931:15952   */\n      swap4\n      pop\n        /* \"#utility.yul\":15818:15962   */\n      pop\n        /* \"#utility.yul\":15802:15806   */\n      0x20\n        /* \"#utility.yul\":15797:15800   */\n      dup2\n        /* \"#utility.yul\":15793:15807   */\n      add\n        /* \"#utility.yul\":15786:15807   */\n      swap1\n      pop\n        /* \"#utility.yul\":15742:15962   */\n      jump(tag_735)\n    tag_737:\n        /* \"#utility.yul\":15746:15767   */\n      pop\n        /* \"#utility.yul\":15425:15968   */\n      pop\n      pop\n        /* \"#utility.yul\":15325:15968   */\n      swap4\n      swap3\n      pop\n      pop\n      pop\n      jump\t// out\n        /* \"#utility.yul\":15992:16331   */\n    tag_545:\n        /* \"#utility.yul\":16061:16066   */\n      0x00\n        /* \"#utility.yul\":16110:16113   */\n      dup3\n        /* \"#utility.yul\":16103:16107   */\n      0x1f\n        /* \"#utility.yul\":16095:16101   */\n      dup4\n        /* \"#utility.yul\":16091:16108   */\n      add\n        /* \"#utility.yul\":16087:16114   */\n      slt\n        /* \"#utility.yul\":16077:16199   */\n      tag_740\n      jumpi\n        /* \"#utility.yul\":16118:16197   */\n      tag_741\n      tag_519\n      jump\t// in\n    tag_741:\n        /* \"#utility.yul\":16077:16199   */\n    tag_740:\n        /* \"#utility.yul\":16222:16226   */\n      0x02\n        /* \"#utility.yul\":16244:16325   */\n      tag_742\n        /* \"#utility.yul\":16321:16324   */\n      dup5\n        /* \"#utility.yul\":16313:16319   */\n      dup3\n        /* \"#utility.yul\":16305:16311   */\n      dup6\n        /* \"#utility.yul\":16244:16325   */\n      tag_544\n      jump\t// in\n    tag_742:\n        /* \"#utility.yul\":16235:16325   */\n      swap2\n      pop\n        /* \"#utility.yul\":16067:16331   */\n      pop\n        /* \"#utility.yul\":15992:16331   */\n      swap3\n      swap2\n      pop\n      pop\n      jump\t// out\n        /* \"#utility.yul\":16337:16609   */\n    tag_546:\n        /* \"#utility.yul\":16435:16439   */\n      0x00\n        /* \"#utility.yul\":16525:16543   */\n      0xffffffffffffffff\n        /* \"#utility.yul\":16517:16523   */\n      dup3\n        /* \"#utility.yul\":16514:16544   */\n      gt\n        /* \"#utility.yul\":16511:16567   */\n      iszero\n      tag_744\n      jumpi\n        /* \"#utility.yul\":16547:16565   */\n      tag_745\n      tag_118\n      jump\t// in\n    tag_745:\n        /* \"#utility.yul\":16511:16567   */\n    tag_744:\n        /* \"#utility.yul\":16597:16601   */\n      0x20\n        /* \"#utility.yul\":16589:16595   */\n      dup3\n        /* \"#utility.yul\":16585:16602   */\n      mul\n        /* \"#utility.yul\":16577:16602   */\n      swap1\n      pop\n        /* \"#utility.yul\":16337:16609   */\n      swap2\n      swap1\n      pop\n      jump\t// out\n        /* \"#utility.yul\":16636:17348   */\n    tag_547:\n        /* \"#utility.yul\":16753:16758   */\n      0x00\n        /* \"#utility.yul\":16778:16880   */\n      tag_747\n        /* \"#utility.yul\":16794:16879   */\n      tag_748\n        /* \"#utility.yul\":16872:16878   */\n      dup5\n        /* \"#utility.yul\":16794:16879   */\n      tag_546\n      jump\t// in\n    tag_748:\n        /* \"#utility.yul\":16778:16880   */\n      tag_541\n      jump\t// in\n    tag_747:\n        /* \"#utility.yul\":16769:16880   */\n      swap1\n      pop\n        /* \"#utility.yul\":16900:16905   */\n      dup1\n        /* \"#utility.yul\":16953:16957   */\n      0x40\n        /* \"#utility.yul\":16945:16951   */\n      dup5\n        /* \"#utility.yul\":16941:16958   */\n      mul\n        /* \"#utility.yul\":16933:16939   */\n      dup4\n        /* \"#utility.yul\":16929:16959   */\n      add\n        /* \"#utility.yul\":16982:16985   */\n      dup6\n        /* \"#utility.yul\":16974:16980   */\n      dup2\n        /* \"#utility.yul\":16971:16986   */\n      gt\n        /* \"#utility.yul\":16968:17090   */\n      iszero\n      tag_749\n      jumpi\n        /* \"#utility.yul\":17001:17080   */\n      tag_750\n      tag_514\n      jump\t// in\n    tag_750:\n        /* \"#utility.yul\":16968:17090   */\n    tag_749:\n        /* \"#utility.yul\":17116:17122   */\n      dup4\n        /* \"#utility.yul\":17099:17342   */\n    tag_751:\n        /* \"#utility.yul\":17133:17139   */\n      dup2\n        /* \"#utility.yul\":17128:17131   */\n      dup2\n        /* \"#utility.yul\":17125:17140   */\n      lt\n        /* \"#utility.yul\":17099:17342   */\n      iszero\n      tag_753\n      jumpi\n        /* \"#utility.yul\":17208:17211   */\n      dup1\n        /* \"#utility.yul\":17237:17297   */\n      tag_754\n        /* \"#utility.yul\":17293:17296   */\n      dup9\n        /* \"#utility.yul\":17281:17291   */\n      dup3\n        /* \"#utility.yul\":17237:17297   */\n      tag_545\n      jump\t// in\n    tag_754:\n        /* \"#utility.yul\":17232:17235   */\n      dup5\n        /* \"#utility.yul\":17225:17298   */\n      mstore\n        /* \"#utility.yul\":17327:17331   */\n      0x20\n        /* \"#utility.yul\":17322:17325   */\n      dup5\n        /* \"#utility.yul\":17318:17332   */\n      add\n        /* \"#utility.yul\":17311:17332   */\n      swap4\n      pop\n        /* \"#utility.yul\":17175:17342   */\n      pop\n        /* \"#utility.yul\":17159:17163   */\n      0x40\n        /* \"#utility.yul\":17154:17157   */\n      dup2\n        /* \"#utility.yul\":17150:17164   */\n      add\n        /* \"#utility.yul\":17143:17164   */\n      swap1\n      pop\n        /* \"#utility.yul\":17099:17342   */\n      jump(tag_751)\n    tag_753:\n        /* \"#utility.yul\":17103:17124   */\n      pop\n        /* \"#utility.yul\":16759:17348   */\n      pop\n      pop\n        /* \"#utility.yul\":16636:17348   */\n      swap4\n      swap3\n      pop\n      pop\n      pop\n      jump\t// out\n        /* \"#utility.yul\":17375:17760   */\n    tag_548:\n        /* \"#utility.yul\":17467:17472   */\n      0x00\n        /* \"#utility.yul\":17516:17519   */\n      dup3\n        /* \"#utility.yul\":17509:17513   */\n      0x1f\n        /* \"#utility.yul\":17501:17507   */\n      dup4\n        /* \"#utility.yul\":17497:17514   */\n      add\n        /* \"#utility.yul\":17493:17520   */\n      slt\n        /* \"#utility.yul\":17483:17605   */\n      tag_756\n      jumpi\n        /* \"#utility.yul\":17524:17603   */\n      tag_757\n      tag_519\n      jump\t// in\n    tag_757:\n        /* \"#utility.yul\":17483:17605   */\n    tag_756:\n        /* \"#utility.yul\":17628:17632   */\n      0x02\n        /* \"#utility.yul\":17650:17754   */\n      tag_758\n        /* \"#utility.yul\":17750:17753   */\n      dup5\n        /* \"#utility.yul\":17742:17748   */\n      dup3\n        /* \"#utility.yul\":17734:17740   */\n      dup6\n        /* \"#utility.yul\":17650:17754   */\n      tag_547\n      jump\t// in\n    tag_758:\n        /* \"#utility.yul\":17641:17754   */\n      swap2\n      pop\n        /* \"#utility.yul\":17473:17760   */\n      pop\n        /* \"#utility.yul\":17375:17760   */\n      swap3\n      swap2\n      pop\n      pop\n      jump\t// out\n        /* \"#utility.yul\":17800:18618   */\n    tag_549:\n        /* \"#utility.yul\":17871:17876   */\n      0x00\n        /* \"#utility.yul\":17915:17921   */\n      0x0100\n        /* \"#utility.yul\":17903:17912   */\n      dup3\n        /* \"#utility.yul\":17898:17901   */\n      dup5\n        /* \"#utility.yul\":17894:17913   */\n      sub\n        /* \"#utility.yul\":17890:17922   */\n      slt\n        /* \"#utility.yul\":17887:18006   */\n      iszero\n      tag_760\n      jumpi\n        /* \"#utility.yul\":17925:18004   */\n      tag_761\n      tag_538\n      jump\t// in\n    tag_761:\n        /* \"#utility.yul\":17887:18006   */\n    tag_760:\n        /* \"#utility.yul\":18024:18045   */\n      tag_762\n        /* \"#utility.yul\":18040:18044   */\n      0x60\n        /* \"#utility.yul\":18024:18045   */\n      tag_541\n      jump\t// in\n    tag_762:\n        /* \"#utility.yul\":18015:18045   */\n      swap1\n      pop\n        /* \"#utility.yul\":18101:18102   */\n      0x00\n        /* \"#utility.yul\":18141:18213   */\n      tag_763\n        /* \"#utility.yul\":18209:18212   */\n      dup5\n        /* \"#utility.yul\":18200:18206   */\n      dup3\n        /* \"#utility.yul\":18189:18198   */\n      dup6\n        /* \"#utility.yul\":18185:18207   */\n      add\n        /* \"#utility.yul\":18141:18213   */\n      tag_545\n      jump\t// in\n    tag_763:\n        /* \"#utility.yul\":18134:18138   */\n      0x00\n        /* \"#utility.yul\":18127:18132   */\n      dup4\n        /* \"#utility.yul\":18123:18139   */\n      add\n        /* \"#utility.yul\":18116:18214   */\n      mstore\n        /* \"#utility.yul\":18055:18225   */\n      pop\n        /* \"#utility.yul\":18281:18283   */\n      0x40\n        /* \"#utility.yul\":18322:18417   */\n      tag_764\n        /* \"#utility.yul\":18413:18416   */\n      dup5\n        /* \"#utility.yul\":18404:18410   */\n      dup3\n        /* \"#utility.yul\":18393:18402   */\n      dup6\n        /* \"#utility.yul\":18389:18411   */\n      add\n        /* \"#utility.yul\":18322:18417   */\n      tag_548\n      jump\t// in\n    tag_764:\n        /* \"#utility.yul\":18315:18319   */\n      0x20\n        /* \"#utility.yul\":18308:18313   */\n      dup4\n        /* \"#utility.yul\":18304:18320   */\n      add\n        /* \"#utility.yul\":18297:18418   */\n      mstore\n        /* \"#utility.yul\":18235:18429   */\n      pop\n        /* \"#utility.yul\":18485:18488   */\n      0xc0\n        /* \"#utility.yul\":18527:18599   */\n      tag_765\n        /* \"#utility.yul\":18595:18598   */\n      dup5\n        /* \"#utility.yul\":18586:18592   */\n      dup3\n        /* \"#utility.yul\":18575:18584   */\n      dup6\n        /* \"#utility.yul\":18571:18593   */\n      add\n        /* \"#utility.yul\":18527:18599   */\n      tag_545\n      jump\t// in\n    tag_765:\n        /* \"#utility.yul\":18520:18524   */\n      0x40\n        /* \"#utility.yul\":18513:18518   */\n      dup4\n        /* \"#utility.yul\":18509:18525   */\n      add\n        /* \"#utility.yul\":18502:18600   */\n      mstore\n        /* \"#utility.yul\":18439:18611   */\n      pop\n        /* \"#utility.yul\":17800:18618   */\n      swap3\n      swap2\n      pop\n      pop\n      jump\t// out\n        /* \"#utility.yul\":18624:18998   */\n    tag_196:\n        /* \"#utility.yul\":18705:18711   */\n      0x00\n        /* \"#utility.yul\":18754:18757   */\n      0x0100\n        /* \"#utility.yul\":18742:18751   */\n      dup3\n        /* \"#utility.yul\":18733:18740   */\n      dup5\n        /* \"#utility.yul\":18729:18752   */\n      sub\n        /* \"#utility.yul\":18725:18758   */\n      slt\n        /* \"#utility.yul\":18722:18842   */\n      iszero\n      tag_767\n      jumpi\n        /* \"#utility.yul\":18761:18840   */\n      tag_768\n      tag_507\n      jump\t// in\n    tag_768:\n        /* \"#utility.yul\":18722:18842   */\n    tag_767:\n        /* \"#utility.yul\":18881:18882   */\n      0x00\n        /* \"#utility.yul\":18906:18981   */\n      tag_769\n        /* \"#utility.yul\":18973:18980   */\n      dup5\n        /* \"#utility.yul\":18964:18970   */\n      dup3\n        /* \"#utility.yul\":18953:18962   */\n      dup6\n        /* \"#utility.yul\":18949:18971   */\n      add\n        /* \"#utility.yul\":18906:18981   */\n      tag_549\n      jump\t// in\n    tag_769:\n        /* \"#utility.yul\":18896:18981   */\n      swap2\n      pop\n        /* \"#utility.yul\":18852:18991   */\n      pop\n        /* \"#utility.yul\":18624:18998   */\n      swap3\n      swap2\n      pop\n      pop\n      jump\t// out\n        /* \"#utility.yul\":19004:19151   */\n    tag_550:\n        /* \"#utility.yul\":19105:19116   */\n      0x00\n        /* \"#utility.yul\":19142:19145   */\n      dup2\n        /* \"#utility.yul\":19127:19145   */\n      swap1\n      pop\n        /* \"#utility.yul\":19004:19151   */\n      swap3\n      swap2\n      pop\n      pop\n      jump\t// out\n        /* \"#utility.yul\":19157:19305   */\n    tag_551:\n        /* \"#utility.yul\":19255:19261   */\n      dup3\n        /* \"#utility.yul\":19250:19253   */\n      dup2\n        /* \"#utility.yul\":19245:19248   */\n      dup4\n        /* \"#utility.yul\":19232:19262   */\n      calldatacopy\n        /* \"#utility.yul\":19296:19297   */\n      0x00\n        /* \"#utility.yul\":19287:19293   */\n      dup4\n        /* \"#utility.yul\":19282:19285   */\n      dup4\n        /* \"#utility.yul\":19278:19294   */\n      add\n        /* \"#utility.yul\":19271:19298   */\n      mstore\n        /* \"#utility.yul\":19157:19305   */\n      pop\n      pop\n      pop\n      jump\t// out\n        /* \"#utility.yul\":19333:19660   */\n    tag_552:\n        /* \"#utility.yul\":19447:19450   */\n      0x00\n        /* \"#utility.yul\":19468:19556   */\n      tag_773\n        /* \"#utility.yul\":19549:19555   */\n      dup4\n        /* \"#utility.yul\":19544:19547   */\n      dup6\n        /* \"#utility.yul\":19468:19556   */\n      tag_550\n      jump\t// in\n    tag_773:\n        /* \"#utility.yul\":19461:19556   */\n      swap4\n      pop\n        /* \"#utility.yul\":19566:19622   */\n      tag_774\n        /* \"#utility.yul\":19615:19621   */\n      dup4\n        /* \"#utility.yul\":19610:19613   */\n      dup6\n        /* \"#utility.yul\":19603:19608   */\n      dup5\n        /* \"#utility.yul\":19566:19622   */\n      tag_551\n      jump\t// in\n    tag_774:\n        /* \"#utility.yul\":19647:19653   */\n      dup3\n        /* \"#utility.yul\":19642:19645   */\n      dup5\n        /* \"#utility.yul\":19638:19654   */\n      add\n        /* \"#utility.yul\":19631:19654   */\n      swap1\n      pop\n        /* \"#utility.yul\":19333:19660   */\n      swap4\n      swap3\n      pop\n      pop\n      pop\n      jump\t// out\n        /* \"#utility.yul\":19666:19829   */\n    tag_553:\n        /* \"#utility.yul\":19783:19794   */\n      0x00\n        /* \"#utility.yul\":19820:19823   */\n      dup2\n        /* \"#utility.yul\":19805:19823   */\n      swap1\n      pop\n        /* \"#utility.yul\":19666:19829   */\n      swap3\n      swap2\n      pop\n      pop\n      jump\t// out\n        /* \"#utility.yul\":19835:19952   */\n    tag_554:\n        /* \"#utility.yul\":19944:19945   */\n      0x00\n        /* \"#utility.yul\":19941:19942   */\n      dup1\n        /* \"#utility.yul\":19934:19946   */\n      revert\n        /* \"#utility.yul\":19958:20057   */\n    tag_555:\n        /* \"#utility.yul\":20043:20049   */\n      dup3\n        /* \"#utility.yul\":20038:20041   */\n      dup2\n        /* \"#utility.yul\":20033:20036   */\n      dup4\n        /* \"#utility.yul\":20020:20050   */\n      calldatacopy\n        /* \"#utility.yul\":19958:20057   */\n      pop\n      pop\n      pop\n      jump\t// out\n        /* \"#utility.yul\":20093:20666   */\n    tag_556:\n        /* \"#utility.yul\":20239:20242   */\n      0x00\n        /* \"#utility.yul\":20260:20364   */\n      tag_779\n        /* \"#utility.yul\":20357:20363   */\n      dup4\n        /* \"#utility.yul\":20352:20355   */\n      dup6\n        /* \"#utility.yul\":20260:20364   */\n      tag_553\n      jump\t// in\n    tag_779:\n        /* \"#utility.yul\":20253:20364   */\n      swap4\n      pop\n        /* \"#utility.yul\":20388:20454   */\n      0x07ffffffffffffffffffffffffffffffffffffffffffffffffffffffffffffff\n        /* \"#utility.yul\":20380:20386   */\n      dup4\n        /* \"#utility.yul\":20377:20455   */\n      gt\n        /* \"#utility.yul\":20374:20539   */\n      iszero\n      tag_780\n      jumpi\n        /* \"#utility.yul\":20458:20537   */\n      tag_781\n      tag_554\n      jump\t// in\n    tag_781:\n        /* \"#utility.yul\":20374:20539   */\n    tag_780:\n        /* \"#utility.yul\":20570:20574   */\n      0x20\n        /* \"#utility.yul\":20562:20568   */\n      dup4\n        /* \"#utility.yul\":20558:20575   */\n      mul\n        /* \"#utility.yul\":20548:20575   */\n      swap3\n      pop\n        /* \"#utility.yul\":20585:20628   */\n      tag_782\n        /* \"#utility.yul\":20621:20627   */\n      dup4\n        /* \"#utility.yul\":20616:20619   */\n      dup6\n        /* \"#utility.yul\":20609:20614   */\n      dup5\n        /* \"#utility.yul\":20585:20628   */\n      tag_555\n      jump\t// in\n    tag_782:\n        /* \"#utility.yul\":20653:20659   */\n      dup3\n        /* \"#utility.yul\":20648:20651   */\n      dup5\n        /* \"#utility.yul\":20644:20660   */\n      add\n        /* \"#utility.yul\":20637:20660   */\n      swap1\n      pop\n        /* \"#utility.yul\":20093:20666   */\n      swap4\n      swap3\n      pop\n      pop\n      pop\n      jump\t// out\n        /* \"#utility.yul\":20672:21203   */\n    tag_200:\n        /* \"#utility.yul\":20900:20903   */\n      0x00\n        /* \"#utility.yul\":20922:21025   */\n      tag_784\n        /* \"#utility.yul\":21021:21024   */\n      dup3\n        /* \"#utility.yul\":21012:21018   */\n      dup7\n        /* \"#utility.yul\":21004:21010   */\n      dup9\n        /* \"#utility.yul\":20922:21025   */\n      tag_552\n      jump\t// in\n    tag_784:\n        /* \"#utility.yul\":20915:21025   */\n      swap2\n      pop\n        /* \"#utility.yul\":21042:21177   */\n      tag_785\n        /* \"#utility.yul\":21173:21176   */\n      dup3\n        /* \"#utility.yul\":21164:21170   */\n      dup5\n        /* \"#utility.yul\":21156:21162   */\n      dup7\n        /* \"#utility.yul\":21042:21177   */\n      tag_556\n      jump\t// in\n    tag_785:\n        /* \"#utility.yul\":21035:21177   */\n      swap2\n      pop\n        /* \"#utility.yul\":21194:21197   */\n      dup2\n        /* \"#utility.yul\":21187:21197   */\n      swap1\n      pop\n        /* \"#utility.yul\":20672:21203   */\n      swap6\n      swap5\n      pop\n      pop\n      pop\n      pop\n      pop\n      jump\t// out\n        /* \"#utility.yul\":21209:21377   */\n    tag_557:\n        /* \"#utility.yul\":21349:21369   */\n      0x50726f6f6620616c726561647920757365640000000000000000000000000000\n        /* \"#utility.yul\":21345:21346   */\n      0x00\n        /* \"#utility.yul\":21337:21343   */\n      dup3\n        /* \"#utility.yul\":21333:21347   */\n      add\n        /* \"#utility.yul\":21326:21370   */\n      mstore\n        /* \"#utility.yul\":21209:21377   */\n      pop\n      jump\t// out\n        /* \"#utility.yul\":21383:21749   */\n    tag_558:\n        /* \"#utility.yul\":21525:21528   */\n      0x00\n        /* \"#utility.yul\":21546:21613   */\n      tag_788\n        /* \"#utility.yul\":21610:21612   */\n      0x12\n        /* \"#utility.yul\":21605:21608   */\n      dup4\n        /* \"#utility.yul\":21546:21613   */\n      tag_530\n      jump\t// in\n    tag_788:\n        /* \"#utility.yul\":21539:21613   */\n      swap2\n      pop\n        /* \"#utility.yul\":21622:21715   */\n      tag_789\n        /* \"#utility.yul\":21711:21714   */\n      dup3\n        /* \"#utility.yul\":21622:21715   */\n      tag_557\n      jump\t// in\n    tag_789:\n        /* \"#utility.yul\":21740:21742   */\n      0x20\n        /* \"#utility.yul\":21735:21738   */\n      dup3\n        /* \"#utility.yul\":21731:21743   */\n      add\n        /* \"#utility.yul\":21724:21743   */\n      swap1\n      pop\n        /* \"#utility.yul\":21383:21749   */\n      swap2\n      swap1\n      pop\n      jump\t// out\n        /* \"#utility.yul\":21755:22174   */\n    tag_203:\n        /* \"#utility.yul\":21921:21925   */\n      0x00\n        /* \"#utility.yul\":21959:21961   */\n      0x20\n        /* \"#utility.yul\":21948:21957   */\n      dup3\n        /* \"#utility.yul\":21944:21962   */\n      add\n        /* \"#utility.yul\":21936:21962   */\n      swap1\n      pop\n        /* \"#utility.yul\":22008:22017   */\n      dup2\n        /* \"#utility.yul\":22002:22006   */\n      dup2\n        /* \"#utility.yul\":21998:22018   */\n      sub\n        /* \"#utility.yul\":21994:21995   */\n      0x00\n        /* \"#utility.yul\":21983:21992   */\n      dup4\n        /* \"#utility.yul\":21979:21996   */\n      add\n        /* \"#utility.yul\":21972:22019   */\n      mstore\n        /* \"#utility.yul\":22036:22167   */\n      tag_791\n        /* \"#utility.yul\":22162:22166   */\n      dup2\n        /* \"#utility.yul\":22036:22167   */\n      tag_558\n      jump\t// in\n    tag_791:\n        /* \"#utility.yul\":22028:22167   */\n      swap1\n      pop\n        /* \"#utility.yul\":21755:22174   */\n      swap2\n      swap1\n      pop\n      jump\t// out\n        /* \"#utility.yul\":22180:22371   */\n    tag_261:\n        /* \"#utility.yul\":22220:22223   */\n      0x00\n        /* \"#utility.yul\":22239:22259   */\n      tag_793\n        /* \"#utility.yul\":22257:22258   */\n      dup3\n        /* \"#utility.yul\":22239:22259   */\n      tag_504\n      jump\t// in\n    tag_793:\n        /* \"#utility.yul\":22234:22259   */\n      swap2\n      pop\n        /* \"#utility.yul\":22273:22293   */\n      tag_794\n        /* \"#utility.yul\":22291:22292   */\n      dup4\n        /* \"#utility.yul\":22273:22293   */\n      tag_504\n      jump\t// in\n    tag_794:\n        /* \"#utility.yul\":22268:22293   */\n      swap3\n      pop\n        /* \"#utility.yul\":22316:22317   */\n      dup3\n        /* \"#utility.yul\":22313:22314   */\n      dup3\n        /* \"#utility.yul\":22309:22318   */\n      add\n        /* \"#utility.yul\":22302:22318   */\n      swap1\n      pop\n        /* \"#utility.yul\":22337:22340   */\n      dup1\n        /* \"#utility.yul\":22334:22335   */\n      dup3\n        /* \"#utility.yul\":22331:22341   */\n      gt\n        /* \"#utility.yul\":22328:22364   */\n      iszero\n      tag_795\n      jumpi\n        /* \"#utility.yul\":22344:22362   */\n      tag_796\n      tag_533\n      jump\t// in\n    tag_796:\n        /* \"#utility.yul\":22328:22364   */\n    tag_795:\n        /* \"#utility.yul\":22180:22371   */\n      swap3\n      swap2\n      pop\n      pop\n      jump\t// out\n        /* \"#utility.yul\":22377:22547   */\n    tag_559:\n        /* \"#utility.yul\":22517:22539   */\n      0x496e76616c696420696e707574206c656e677468000000000000000000000000\n        /* \"#utility.yul\":22513:22514   */\n      0x00\n        /* \"#utility.yul\":22505:22511   */\n      dup3\n        /* \"#utility.yul\":22501:22515   */\n      add\n        /* \"#utility.yul\":22494:22540   */\n      mstore\n        /* \"#utility.yul\":22377:22547   */\n      pop\n      jump\t// out\n        /* \"#utility.yul\":22553:22919   */\n    tag_560:\n        /* \"#utility.yul\":22695:22698   */\n      0x00\n        /* \"#utility.yul\":22716:22783   */\n      tag_799\n        /* \"#utility.yul\":22780:22782   */\n      0x14\n        /* \"#utility.yul\":22775:22778   */\n      dup4\n        /* \"#utility.yul\":22716:22783   */\n      tag_530\n      jump\t// in\n    tag_799:\n        /* \"#utility.yul\":22709:22783   */\n      swap2\n      pop\n        /* \"#utility.yul\":22792:22885   */\n      tag_800\n        /* \"#utility.yul\":22881:22884   */\n      dup3\n        /* \"#utility.yul\":22792:22885   */\n      tag_559\n      jump\t// in\n    tag_800:\n        /* \"#utility.yul\":22910:22912   */\n      0x20\n        /* \"#utility.yul\":22905:22908   */\n      dup3\n        /* \"#utility.yul\":22901:22913   */\n      add\n        /* \"#utility.yul\":22894:22913   */\n      swap1\n      pop\n        /* \"#utility.yul\":22553:22919   */\n      swap2\n      swap1\n      pop\n      jump\t// out\n        /* \"#utility.yul\":22925:23344   */\n    tag_264:\n        /* \"#utility.yul\":23091:23095   */\n      0x00\n        /* \"#utility.yul\":23129:23131   */\n      0x20\n        /* \"#utility.yul\":23118:23127   */\n      dup3\n        /* \"#utility.yul\":23114:23132   */\n      add\n        /* \"#utility.yul\":23106:23132   */\n      swap1\n      pop\n        /* \"#utility.yul\":23178:23187   */\n      dup2\n        /* \"#utility.yul\":23172:23176   */\n      dup2\n        /* \"#utility.yul\":23168:23188   */\n      sub\n        /* \"#utility.yul\":23164:23165   */\n      0x00\n        /* \"#utility.yul\":23153:23162   */\n      dup4\n        /* \"#utility.yul\":23149:23166   */\n      add\n        /* \"#utility.yul\":23142:23189   */\n      mstore\n        /* \"#utility.yul\":23206:23337   */\n      tag_802\n        /* \"#utility.yul\":23332:23336   */\n      dup2\n        /* \"#utility.yul\":23206:23337   */\n      tag_560\n      jump\t// in\n    tag_802:\n        /* \"#utility.yul\":23198:23337   */\n      swap1\n      pop\n        /* \"#utility.yul\":22925:23344   */\n      swap2\n      swap1\n      pop\n      jump\t// out\n        /* \"#utility.yul\":23350:23515   */\n    tag_561:\n        /* \"#utility.yul\":23490:23507   */\n      0x496e70757420746f6f206c617267650000000000000000000000000000000000\n        /* \"#utility.yul\":23486:23487   */\n      0x00\n        /* \"#utility.yul\":23478:23484   */\n      dup3\n        /* \"#utility.yul\":23474:23488   */\n      add\n        /* \"#utility.yul\":23467:23508   */\n      mstore\n        /* \"#utility.yul\":23350:23515   */\n      pop\n      jump\t// out\n        /* \"#utility.yul\":23521:23887   */\n    tag_562:\n        /* \"#utility.yul\":23663:23666   */\n      0x00\n        /* \"#utility.yul\":23684:23751   */\n      tag_805\n        /* \"#utility.yul\":23748:23750   */\n      0x0f\n        /* \"#utility.yul\":23743:23746   */\n      dup4\n        /* \"#utility.yul\":23684:23751   */\n      tag_530\n      jump\t// in\n    tag_805:\n        /* \"#utility.yul\":23677:23751   */\n      swap2\n      pop\n        /* \"#utility.yul\":23760:23853   */\n      tag_806\n        /* \"#utility.yul\":23849:23852   */\n      dup3\n        /* \"#utility.yul\":23760:23853   */\n      tag_561\n      jump\t// in\n    tag_806:\n        /* \"#utility.yul\":23878:23880   */\n      0x20\n        /* \"#utility.yul\":23873:23876   */\n      dup3\n        /* \"#utility.yul\":23869:23881   */\n      add\n        /* \"#utility.yul\":23862:23881   */\n      swap1\n      pop\n        /* \"#utility.yul\":23521:23887   */\n      swap2\n      swap1\n      pop\n      jump\t// out\n        /* \"#utility.yul\":23893:24312   */\n    tag_295:\n        /* \"#utility.yul\":24059:24063   */\n      0x00\n        /* \"#utility.yul\":24097:24099   */\n      0x20\n        /* \"#utility.yul\":24086:24095   */\n      dup3\n        /* \"#utility.yul\":24082:24100   */\n      add\n        /* \"#utility.yul\":24074:24100   */\n      swap1\n      pop\n        /* \"#utility.yul\":24146:24155   */\n      dup2\n        /* \"#utility.yul\":24140:24144   */\n      dup2\n        /* \"#utility.yul\":24136:24156   */\n      sub\n        /* \"#utility.yul\":24132:24133   */\n      0x00\n        /* \"#utility.yul\":24121:24130   */\n      dup4\n        /* \"#utility.yul\":24117:24134   */\n      add\n        /* \"#utility.yul\":24110:24157   */\n      mstore\n        /* \"#utility.yul\":24174:24305   */\n      tag_808\n        /* \"#utility.yul\":24300:24304   */\n      dup2\n        /* \"#utility.yul\":24174:24305   */\n      tag_562\n      jump\t// in\n    tag_808:\n        /* \"#utility.yul\":24166:24305   */\n      swap1\n      pop\n        /* \"#utility.yul\":23893:24312   */\n      swap2\n      swap1\n      pop\n      jump\t// out\n        /* \"#utility.yul\":24318:24487   */\n    tag_563:\n        /* \"#utility.yul\":24458:24479   */\n      0x44656e6f6d696e6174696f6e2065786973747300000000000000000000000000\n        /* \"#utility.yul\":24454:24455   */\n      0x00\n        /* \"#utility.yul\":24446:24452   */\n      dup3\n        /* \"#utility.yul\":24442:24456   */\n      add\n        /* \"#utility.yul\":24435:24480   */\n      mstore\n        /* \"#utility.yul\":24318:24487   */\n      pop\n      jump\t// out\n        /* \"#utility.yul\":24493:24859   */\n    tag_564:\n        /* \"#utility.yul\":24635:24638   */\n      0x00\n        /* \"#utility.yul\":24656:24723   */\n      tag_811\n        /* \"#utility.yul\":24720:24722   */\n      0x13\n        /* \"#utility.yul\":24715:24718   */\n      dup4\n        /* \"#utility.yul\":24656:24723   */\n      tag_530\n      jump\t// in\n    tag_811:\n        /* \"#utility.yul\":24649:24723   */\n      swap2\n      pop\n        /* \"#utility.yul\":24732:24825   */\n      tag_812\n        /* \"#utility.yul\":24821:24824   */\n      dup3\n        /* \"#utility.yul\":24732:24825   */\n      tag_563\n      jump\t// in\n    tag_812:\n        /* \"#utility.yul\":24850:24852   */\n      0x20\n        /* \"#utility.yul\":24845:24848   */\n      dup3\n        /* \"#utility.yul\":24841:24853   */\n      add\n        /* \"#utility.yul\":24834:24853   */\n      swap1\n      pop\n        /* \"#utility.yul\":24493:24859   */\n      swap2\n      swap1\n      pop\n      jump\t// out\n        /* \"#utility.yul\":24865:25284   */\n    tag_300:\n        /* \"#utility.yul\":25031:25035   */\n      0x00\n        /* \"#utility.yul\":25069:25071   */\n      0x20\n        /* \"#utility.yul\":25058:25067   */\n      dup3\n        /* \"#utility.yul\":25054:25072   */\n      add\n        /* \"#utility.yul\":25046:25072   */\n      swap1\n      pop\n        /* \"#utility.yul\":25118:25127   */\n      dup2\n        /* \"#utility.yul\":25112:25116   */\n      dup2\n        /* \"#utility.yul\":25108:25128   */\n      sub\n        /* \"#utility.yul\":25104:25105   */\n      0x00\n        /* \"#utility.yul\":25093:25102   */\n      dup4\n        /* \"#utility.yul\":25089:25106   */\n      add\n        /* \"#utility.yul\":25082:25129   */\n      mstore\n        /* \"#utility.yul\":25146:25277   */\n      tag_814\n        /* \"#utility.yul\":25272:25276   */\n      dup2\n        /* \"#utility.yul\":25146:25277   */\n      tag_564\n      jump\t// in\n    tag_814:\n        /* \"#utility.yul\":25138:25277   */\n      swap1\n      pop\n        /* \"#utility.yul\":24865:25284   */\n      swap2\n      swap1\n      pop\n      jump\t// out\n        /* \"#utility.yul\":25290:25454   */\n    tag_565:\n        /* \"#utility.yul\":25430:25446   */\n      0x456d707479204943206172726179000000000000000000000000000000000000\n        /* \"#utility.yul\":25426:25427   */\n      0x00\n        /* \"#utility.yul\":25418:25424   */\n      dup3\n        /* \"#utility.yul\":25414:25428   */\n      add\n        /* \"#utility.yul\":25407:25447   */\n      mstore\n        /* \"#utility.yul\":25290:25454   */\n      pop\n      jump\t// out\n        /* \"#utility.yul\":25460:25826   */\n    tag_566:\n        /* \"#utility.yul\":25602:25605   */\n      0x00\n        /* \"#utility.yul\":25623:25690   */\n      tag_817\n        /* \"#utility.yul\":25687:25689   */\n      0x0e\n        /* \"#utility.yul\":25682:25685   */\n      dup4\n        /* \"#utility.yul\":25623:25690   */\n      tag_530\n      jump\t// in\n    tag_817:\n        /* \"#utility.yul\":25616:25690   */\n      swap2\n      pop\n        /* \"#utility.yul\":25699:25792   */\n      tag_818\n        /* \"#utility.yul\":25788:25791   */\n      dup3\n        /* \"#utility.yul\":25699:25792   */\n      tag_565\n      jump\t// in\n    tag_818:\n        /* \"#utility.yul\":25817:25819   */\n      0x20\n        /* \"#utility.yul\":25812:25815   */\n      dup3\n        /* \"#utility.yul\":25808:25820   */\n      add\n        /* \"#utility.yul\":25801:25820   */\n      swap1\n      pop\n        /* \"#utility.yul\":25460:25826   */\n      swap2\n      swap1\n      pop\n      jump\t// out\n        /* \"#utility.yul\":25832:26251   */\n    tag_303:\n        /* \"#utility.yul\":25998:26002   */\n      0x00\n        /* \"#utility.yul\":26036:26038   */\n      0x20\n        /* \"#utility.yul\":26025:26034   */\n      dup3\n        /* \"#utility.yul\":26021:26039   */\n      add\n        /* \"#utility.yul\":26013:26039   */\n      swap1\n      pop\n        /* \"#utility.yul\":26085:26094   */\n      dup2\n        /* \"#utility.yul\":26079:26083   */\n      dup2\n        /* \"#utility.yul\":26075:26095   */\n      sub\n        /* \"#utility.yul\":26071:26072   */\n      0x00\n        /* \"#utility.yul\":26060:26069   */\n      dup4\n        /* \"#utility.yul\":26056:26073   */\n      add\n        /* \"#utility.yul\":26049:26096   */\n      mstore\n        /* \"#utility.yul\":26113:26244   */\n      tag_820\n        /* \"#utility.yul\":26239:26243   */\n      dup2\n        /* \"#utility.yul\":26113:26244   */\n      tag_566\n      jump\t// in\n    tag_820:\n        /* \"#utility.yul\":26105:26244   */\n      swap1\n      pop\n        /* \"#utility.yul\":25832:26251   */\n      swap2\n      swap1\n      pop\n      jump\t// out\n        /* \"#utility.yul\":26257:26427   */\n    tag_567:\n        /* \"#utility.yul\":26397:26419   */\n      0x50616972696e6720636865636b206661696c6564000000000000000000000000\n        /* \"#utility.yul\":26393:26394   */\n      0x00\n        /* \"#utility.yul\":26385:26391   */\n      dup3\n        /* \"#utility.yul\":26381:26395   */\n      add\n        /* \"#utility.yul\":26374:26420   */\n      mstore\n        /* \"#utility.yul\":26257:26427   */\n      pop\n      jump\t// out\n        /* \"#utility.yul\":26433:26799   */\n    tag_568:\n        /* \"#utility.yul\":26575:26578   */\n      0x00\n        /* \"#utility.yul\":26596:26663   */\n      tag_823\n        /* \"#utility.yul\":26660:26662   */\n      0x14\n        /* \"#utility.yul\":26655:26658   */\n      dup4\n        /* \"#utility.yul\":26596:26663   */\n      tag_530\n      jump\t// in\n    tag_823:\n        /* \"#utility.yul\":26589:26663   */\n      swap2\n      pop\n        /* \"#utility.yul\":26672:26765   */\n      tag_824\n        /* \"#utility.yul\":26761:26764   */\n      dup3\n        /* \"#utility.yul\":26672:26765   */\n      tag_567\n      jump\t// in\n    tag_824:\n        /* \"#utility.yul\":26790:26792   */\n      0x20\n        /* \"#utility.yul\":26785:26788   */\n      dup3\n        /* \"#utility.yul\":26781:26793   */\n      add\n        /* \"#utility.yul\":26774:26793   */\n      swap1\n      pop\n        /* \"#utility.yul\":26433:26799   */\n      swap2\n      swap1\n      pop\n      jump\t// out\n        /* \"#utility.yul\":26805:27224   */\n    tag_446:\n        /* \"#utility.yul\":26971:26975   */\n      0x00\n        /* \"#utility.yul\":27009:27011   */\n      0x20\n        /* \"#utility.yul\":26998:27007   */\n      dup3\n        /* \"#utility.yul\":26994:27012   */\n      add\n        /* \"#utility.yul\":26986:27012   */\n      swap1\n      pop\n        /* \"#utility.yul\":27058:27067   */\n      dup2\n        /* \"#utility.yul\":27052:27056   */\n      dup2\n        /* \"#utility.yul\":27048:27068   */\n      sub\n        /* \"#utility.yul\":27044:27045   */\n      0x00\n        /* \"#utility.yul\":27033:27042   */\n      dup4\n        /* \"#utility.yul\":27029:27046   */\n      add\n        /* \"#utility.yul\":27022:27069   */\n      mstore\n        /* \"#utility.yul\":27086:27217   */\n      tag_826\n        /* \"#utility.yul\":27212:27216   */\n      dup2\n        /* \"#utility.yul\":27086:27217   */\n      tag_568\n      jump\t// in\n    tag_826:\n        /* \"#utility.yul\":27078:27217   */\n      swap1\n      pop\n        /* \"#utility.yul\":26805:27224   */\n      swap2\n      swap1\n      pop\n      jump\t// out\n        /* \"#utility.yul\":27230:27408   */\n    tag_569:\n        /* \"#utility.yul\":27370:27400   */\n      0x5363616c6172206d756c7469706c69636174696f6e206661696c656400000000\n        /* \"#utility.yul\":27366:27367   */\n      0x00\n        /* \"#utility.yul\":27358:27364   */\n      dup3\n        /* \"#utility.yul\":27354:27368   */\n      add\n        /* \"#utility.yul\":27347:27401   */\n      mstore\n        /* \"#utility.yul\":27230:27408   */\n      pop\n      jump\t// out\n        /* \"#utility.yul\":27414:27780   */\n    tag_570:\n        /* \"#utility.yul\":27556:27559   */\n      0x00\n        /* \"#utility.yul\":27577:27644   */\n      tag_829\n        /* \"#utility.yul\":27641:27643   */\n      0x1c\n        /* \"#utility.yul\":27636:27639   */\n      dup4\n        /* \"#utility.yul\":27577:27644   */\n      tag_530\n      jump\t// in\n    tag_829:\n        /* \"#utility.yul\":27570:27644   */\n      swap2\n      pop\n        /* \"#utility.yul\":27653:27746   */\n      tag_830\n        /* \"#utility.yul\":27742:27745   */\n      dup3\n        /* \"#utility.yul\":27653:27746   */\n      tag_569\n      jump\t// in\n    tag_830:\n        /* \"#utility.yul\":27771:27773   */\n      0x20\n        /* \"#utility.yul\":27766:27769   */\n      dup3\n        /* \"#utility.yul\":27762:27774   */\n      add\n        /* \"#utility.yul\":27755:27774   */\n      swap1\n      pop\n        /* \"#utility.yul\":27414:27780   */\n      swap2\n      swap1\n      pop\n      jump\t// out\n        /* \"#utility.yul\":27786:28205   */\n    tag_466:\n        /* \"#utility.yul\":27952:27956   */\n      0x00\n        /* \"#utility.yul\":27990:27992   */\n      0x20\n        /* \"#utility.yul\":27979:27988   */\n      dup3\n        /* \"#utility.yul\":27975:27993   */\n      add\n        /* \"#utility.yul\":27967:27993   */\n      swap1\n      pop\n        /* \"#utility.yul\":28039:28048   */\n      dup2\n        /* \"#utility.yul\":28033:28037   */\n      dup2\n        /* \"#utility.yul\":28029:28049   */\n      sub\n        /* \"#utility.yul\":28025:28026   */\n      0x00\n        /* \"#utility.yul\":28014:28023   */\n      dup4\n        /* \"#utility.yul\":28010:28027   */\n      add\n        /* \"#utility.yul\":28003:28050   */\n      mstore\n        /* \"#utility.yul\":28067:28198   */\n      tag_832\n        /* \"#utility.yul\":28193:28197   */\n      dup2\n        /* \"#utility.yul\":28067:28198   */\n      tag_570\n      jump\t// in\n    tag_832:\n        /* \"#utility.yul\":28059:28198   */\n      swap1\n      pop\n        /* \"#utility.yul\":27786:28205   */\n      swap2\n      swap1\n      pop\n      jump\t// out\n        /* \"#utility.yul\":28211:28382   */\n    tag_571:\n        /* \"#utility.yul\":28351:28374   */\n      0x506f696e74206164646974696f6e206661696c65640000000000000000000000\n        /* \"#utility.yul\":28347:28348   */\n      0x00\n        /* \"#utility.yul\":28339:28345   */\n      dup3\n        /* \"#utility.yul\":28335:28349   */\n      add\n        /* \"#utility.yul\":28328:28375   */\n      mstore\n        /* \"#utility.yul\":28211:28382   */\n      pop\n      jump\t// out\n        /* \"#utility.yul\":28388:28754   */\n    tag_572:\n        /* \"#utility.yul\":28530:28533   */\n      0x00\n        /* \"#utility.yul\":28551:28618   */\n      tag_835\n        /* \"#utility.yul\":28615:28617   */\n      0x15\n        /* \"#utility.yul\":28610:28613   */\n      dup4\n        /* \"#utility.yul\":28551:28618   */\n      tag_530\n      jump\t// in\n    tag_835:\n        /* \"#utility.yul\":28544:28618   */\n      swap2\n      pop\n        /* \"#utility.yul\":28627:28720   */\n      tag_836\n        /* \"#utility.yul\":28716:28719   */\n      dup3\n        /* \"#utility.yul\":28627:28720   */\n      tag_571\n      jump\t// in\n    tag_836:\n        /* \"#utility.yul\":28745:28747   */\n      0x20\n        /* \"#utility.yul\":28740:28743   */\n      dup3\n        /* \"#utility.yul\":28736:28748   */\n      add\n        /* \"#utility.yul\":28729:28748   */\n      swap1\n      pop\n        /* \"#utility.yul\":28388:28754   */\n      swap2\n      swap1\n      pop\n      jump\t// out\n        /* \"#utility.yul\":28760:29179   */\n    tag_485:\n        /* \"#utility.yul\":28926:28930   */\n      0x00\n        /* \"#utility.yul\":28964:28966   */\n      0x20\n        /* \"#utility.yul\":28953:28962   */\n      dup3\n        /* \"#utility.yul\":28949:28967   */\n      add\n        /* \"#utility.yul\":28941:28967   */\n      swap1\n      pop\n        /* \"#utility.yul\":29013:29022   */\n      dup2\n        /* \"#utility.yul\":29007:29011   */\n      dup2\n        /* \"#utility.yul\":29003:29023   */\n      sub\n        /* \"#utility.yul\":28999:29000   */\n      0x00\n        /* \"#utility.yul\":28988:28997   */\n      dup4\n        /* \"#utility.yul\":28984:29001   */\n      add\n        /* \"#utility.yul\":28977:29024   */\n      mstore\n        /* \"#utility.yul\":29041:29172   */\n      tag_838\n        /* \"#utility.yul\":29167:29171   */\n      dup2\n        /* \"#utility.yul\":29041:29172   */\n      tag_572\n      jump\t// in\n    tag_838:\n        /* \"#utility.yul\":29033:29172   */\n      swap1\n      pop\n        /* \"#utility.yul\":28760:29179   */\n      swap2\n      swap1\n      pop\n      jump\t// out\n\n    auxdata: 0xa2646970667358221220fc844266055413204085c1a6cd5a2d080ccca3166690049abcef5516f7ff35bd64736f6c634300081a0033\n}\n",
				"bytecode": {
					"linkReferences": {},
					"object": "60a060405234801561000f575f80fd5b50604051613afc380380613afc83398181016040528101906100319190610a2c565b875f73ffffffffffffffffffffffffffffffffffffffff168173ffffffffffffffffffffffffffffffffffffffff16036100a2575f6040517f1e4fbdf70000000000000000000000000000000000000000000000000000000081526004016100999190610b28565b60405180910390fd5b6100b1816101d060201b60201c565b50600180819055505f60025f6101000a81548160ff0219169083151502179055508151875114610116576040517f08c379a000000000000000000000000000000000000000000000000000000000815260040161010d90610b9b565b60405180910390fd5b856003906002610127929190610437565b50846005906002610139929190610477565b5083600990600261014b929190610437565b5082600b90600261015d929190610437565b5080608081815250505f5b87518110156101c2576101b588828151811061018757610186610bb9565b5b60200260200101518483815181106101a2576101a1610bb9565b5b602002602001015161029160201b60201c565b8080600101915050610168565b505050505050505050610cde565b5f805f9054906101000a900473ffffffffffffffffffffffffffffffffffffffff169050815f806101000a81548173ffffffffffffffffffffffffffffffffffffffff021916908373ffffffffffffffffffffffffffffffffffffffff1602179055508173ffffffffffffffffffffffffffffffffffffffff168173ffffffffffffffffffffffffffffffffffffffff167f8be0079c531659141344cd1fd0a4f28419497f9722a3daafe3b4186f6b6457e060405160405180910390a35050565b600f5f8381526020019081526020015f205f9054906101000a900460ff16156102ef576040517f08c379a00000000000000000000000000000000000000000000000000000000081526004016102e690610c30565b60405180910390fd5b5f815111610332576040517f08c379a000000000000000000000000000000000000000000000000000000000815260040161032990610c98565b60405180910390fd5b6001600f5f8481526020019081526020015f205f6101000a81548160ff021916908315150217905550601082908060018154018082558091505060019003905f5260205f20015f90919091909150555f5b81518110156103fa57600d5f8481526020019081526020015f208282815181106103b0576103af610bb9565b5b6020026020010151908060018154018082558091505060019003905f5260205f2090600202015f909190919091509060026103ec929190610437565b508080600101915050610383565b50817fa1339eb0c83d6ef984978de4b1183619df17a5dcbb74c7d120d193fa5586feec4260405161042b9190610cc5565b60405180910390a25050565b8260028101928215610466579160200282015b8281111561046557825182559160200191906001019061044a565b5b50905061047391906104c7565b5090565b826002800281019282156104b6579160200282015b828111156104b5578251829060026104a5929190610437565b509160200191906002019061048c565b5b5090506104c391906104e2565b5090565b5b808211156104de575f815f9055506001016104c8565b5090565b5b80821115610501575f81816104f89190610505565b506002016104e3565b5090565b505f81556001015f9055565b5f604051905090565b5f80fd5b5f80fd5b5f73ffffffffffffffffffffffffffffffffffffffff82169050919050565b5f61054b82610522565b9050919050565b61055b81610541565b8114610565575f80fd5b50565b5f8151905061057681610552565b92915050565b5f80fd5b5f601f19601f8301169050919050565b7f4e487b71000000000000000000000000000000000000000000000000000000005f52604160045260245ffd5b6105c682610580565b810181811067ffffffffffffffff821117156105e5576105e4610590565b5b80604052505050565b5f6105f7610511565b905061060382826105bd565b919050565b5f67ffffffffffffffff82111561062257610621610590565b5b602082029050602081019050919050565b5f80fd5b5f819050919050565b61064981610637565b8114610653575f80fd5b50565b5f8151905061066481610640565b92915050565b5f61067c61067784610608565b6105ee565b9050808382526020820190506020840283018581111561069f5761069e610633565b5b835b818110156106c857806106b48882610656565b8452602084019350506020810190506106a1565b5050509392505050565b5f82601f8301126106e6576106e561057c565b5b81516106f684826020860161066a565b91505092915050565b5f67ffffffffffffffff82111561071957610718610590565b5b602082029050919050565b5f610736610731846106ff565b6105ee565b905080602084028301858111156107505761074f610633565b5b835b8181101561077957806107658882610656565b845260208401935050602081019050610752565b5050509392505050565b5f82601f8301126107975761079661057c565b5b60026107a4848285610724565b91505092915050565b5f67ffffffffffffffff8211156107c7576107c6610590565b5b602082029050919050565b5f6107e46107df846107ad565b6105ee565b905080604084028301858111156107fe576107fd610633565b5b835b8181101561082757806108138882610783565b845260208401935050604081019050610800565b5050509392505050565b5f82601f8301126108455761084461057c565b5b60026108528482856107d2565b91505092915050565b5f67ffffffffffffffff82111561087557610874610590565b5b602082029050602081019050919050565b5f67ffffffffffffffff8211156108a05761089f610590565b5b602082029050602081019050919050565b5f6108c36108be84610886565b6105ee565b905080838252602082019050604084028301858111156108e6576108e5610633565b5b835b8181101561090f57806108fb8882610783565b8452602084019350506040810190506108e8565b5050509392505050565b5f82601f83011261092d5761092c61057c565b5b815161093d8482602086016108b1565b91505092915050565b5f6109586109538461085b565b6105ee565b9050808382526020820190506020840283018581111561097b5761097a610633565b5b835b818110156109c257805167ffffffffffffffff8111156109a05761099f61057c565b5b8086016109ad8982610919565b8552602085019450505060208101905061097d565b5050509392505050565b5f82601f8301126109e0576109df61057c565b5b81516109f0848260208601610946565b91505092915050565b5f819050919050565b610a0b816109f9565b8114610a15575f80fd5b50565b5f81519050610a2681610a02565b92915050565b5f805f805f805f806101c0898b031215610a4957610a4861051a565b5b5f610a568b828c01610568565b985050602089015167ffffffffffffffff811115610a7757610a7661051e565b5b610a838b828c016106d2565b9750506040610a948b828c01610783565b9650506080610aa58b828c01610831565b955050610100610ab78b828c01610783565b945050610140610ac98b828c01610783565b93505061018089015167ffffffffffffffff811115610aeb57610aea61051e565b5b610af78b828c016109cc565b9250506101a0610b098b828c01610a18565b9150509295985092959890939650565b610b2281610541565b82525050565b5f602082019050610b3b5f830184610b19565b92915050565b5f82825260208201905092915050565b7f496e76616c696420696e707574206c656e6774687300000000000000000000005f82015250565b5f610b85601583610b41565b9150610b9082610b51565b602082019050919050565b5f6020820190508181035f830152610bb281610b79565b9050919050565b7f4e487b71000000000000000000000000000000000000000000000000000000005f52603260045260245ffd5b7f44656e6f6d696e6174696f6e20657869737473000000000000000000000000005f82015250565b5f610c1a601383610b41565b9150610c2582610be6565b602082019050919050565b5f6020820190508181035f830152610c4781610c0e565b9050919050565b7f456d7074792049432061727261790000000000000000000000000000000000005f82015250565b5f610c82600e83610b41565b9150610c8d82610c4e565b602082019050919050565b5f6020820190508181035f830152610caf81610c76565b9050919050565b610cbf81610637565b82525050565b5f602082019050610cd85f830184610cb6565b92915050565b608051612dff610cfd5f395f8181610bfe0152610cdc0152612dff5ff3fe608060405234801561000f575f80fd5b5060043610610135575f3560e01c8063715018a6116100b6578063c66cd3801161007a578063c66cd3801461034f578063d77d63ed1461037f578063dc8fe0bd146103af578063e70a7450146103df578063f2fde38b1461040f578063f3ce61ad1461042b57610135565b8063715018a6146102cf57806387511997146102d95780638da5cb5b146102f757806396e106eb14610315578063b208eae81461033157610135565b8063414a37ba116100fd578063414a37ba14610203578063442f2da61461022157806356de61b514610251578063594eac4a146102815780635c975abb146102b157610135565b806315bf02e514610139578063176d80c4146101575780631b81f829146101875780632d0a90f5146101b757806331437a5d146101e7575b5f80fd5b61014161045b565b60405161014e919061201b565b60405180910390f35b610171600480360381019061016c9190612078565b610460565b60405161017e91906120bd565b60405180910390f35b6101a1600480360381019061019c919061211c565b61047d565b6040516101ae91906120bd565b60405180910390f35b6101d160048036038101906101cc9190612186565b610710565b6040516101de919061201b565b60405180910390f35b61020160048036038101906101fc9190612186565b610729565b005b61020b6108c5565b604051610218919061201b565b60405180910390f35b61023b600480360381019061023691906121b1565b6108e9565b604051610248919061201b565b60405180910390f35b61026b600480360381019061026691906122b3565b610927565b60405161027891906120bd565b60405180910390f35b61029b60048036038101906102969190612344565b610ba9565b6040516102a8919061201b565b60405180910390f35b6102b9610bd4565b6040516102c691906120bd565b60405180910390f35b6102d7610be9565b005b6102e1610bfc565b6040516102ee9190612391565b60405180910390f35b6102ff610c20565b60405161030c91906123e9565b60405180910390f35b61032f600480360381019061032a9190612457565b610c47565b005b610339610cd9565b6040516103469190612391565b60405180910390f35b61036960048036038101906103649190612186565b610d00565b604051610376919061201b565b60405180910390f35b61039960048036038101906103949190612186565b610d19565b6040516103a691906120bd565b60405180910390f35b6103c960048036038101906103c49190612186565b610d36565b6040516103d6919061201b565b60405180910390f35b6103f960048036038101906103f491906122b3565b610d4f565b60405161040691906120bd565b60405180910390f35b610429600480360381019061042491906124de565b610f42565b005b61044560048036038101906104409190612186565b610fc6565b604051610452919061201b565b60405180910390f35b600a81565b600e602052805f5260405f205f915054906101000a900460ff1681565b5f610486610fe6565b5f600167ffffffffffffffff8111156104a2576104a1612509565b5b6040519080825280602002602001820160405280156104d05781602001602082028036833780820191505090505b509050825f600181106104e6576104e5612536565b5b6020020135815f815181106104fe576104fd612536565b5b6020026020010181815250505f60405180606001604052806040518060400160405280885f6008811061053457610533612536565b5b602002013581526020018860016008811061055257610551612536565b5b60200201358152508152602001604051806040016040528060405180604001604052808a60026008811061058957610588612536565b5b602002013581526020018a6003600881106105a7576105a6612536565b5b6020020135815250815260200160405180604001604052808a6004600881106105d3576105d2612536565b5b602002013581526020018a6005600881106105f1576105f0612536565b5b602002013581525081525081526020016040518060400160405280886006600881106106205761061f612536565b5b602002013581526020018860076008811061063e5761063d612536565b5b602002013581525081525090506107068183600d5f60105f8154811061066757610666612536565b5b905f5260205f20015481526020019081526020015f20805480602002602001604051908101604052809291908181526020015f905b828210156106fd578382905f5260205f2090600202016002806020026040519081016040528092919082600280156106e9576020028201915b8154815260200190600101908083116106d5575b50505050508152602001906001019061069c565b50505050611027565b9250505092915050565b6009816002811061071f575f80fd5b015f915090505481565b6107316111c8565b600f5f8281526020019081526020015f205f9054906101000a900460ff1661078e576040517f08c379a0000000000000000000000000000000000000000000000000000000008152600401610785906125bd565b60405180910390fd5b5f600f5f8381526020019081526020015f205f6101000a81548160ff021916908315150217905550600d5f8281526020019081526020015f205f6107d29190611ead565b5f5b6010805490508110156108895781601082815481106107f6576107f5612536565b5b905f5260205f2001540361087c57601060016010805490506108189190612608565b8154811061082957610828612536565b5b905f5260205f2001546010828154811061084657610845612536565b5b905f5260205f20018190555060108054806108645761086361263b565b5b600190038181905f5260205f20015f90559055610889565b80806001019150506107d4565b50807f37eb657934d587be188bee7ec9363315171a630b765283c28201ee84e963cbd5426040516108ba919061201b565b60405180910390a250565b7f30644e72e131a029b85045b68181585d2833e84879b9709143e1f593f000000181565b600d602052825f5260405f208281548110610902575f80fd5b905f5260205f209060020201816002811061091b575f80fd5b015f9250925050505481565b5f610930610fe6565b600f5f8381526020019081526020015f205f9054906101000a900460ff1661098d576040517f08c379a0000000000000000000000000000000000000000000000000000000008152600401610984906126b2565b60405180910390fd5b600a8484905011156109d4576040517f08c379a00000000000000000000000000000000000000000000000000000000081526004016109cb9061271a565b60405180910390fd5b5f86868101906109e49190612955565b9050610a2f8585808060200260200160405190810160405280939291908181526020018383602002808284375f81840152601f19601f8201169050808301925050505050505061124f565b5f87878787604051602001610a479493929190612a2f565b604051602081830303815290604052805190602001209050600e5f8281526020019081526020015f205f9054906101000a900460ff1615610abd576040517f08c379a0000000000000000000000000000000000000000000000000000000008152600401610ab490612aa0565b60405180910390fd5b610b9c828787808060200260200160405190810160405280939291908181526020018383602002808284375f81840152601f19601f82011690508083019250505050505050600d5f8881526020019081526020015f20805480602002602001604051908101604052809291908181526020015f905b82821015610b93578382905f5260205f209060020201600280602002604051908101604052809291908260028015610b7f576020028201915b815481526020019060010190808311610b6b575b505050505081526020019060010190610b32565b50505050611027565b9250505095945050505050565b60058260028110610bb8575f80fd5b600202018160028110610bc9575f80fd5b015f91509150505481565b5f60025f9054906101000a900460ff16905090565b610bf16111c8565b610bfa5f6112e7565b565b7f000000000000000000000000000000000000000000000000000000000000000081565b5f805f9054906101000a900473ffffffffffffffffffffffffffffffffffffffff16905090565b610c4f6111c8565b610cd4838383808060200260200160405190810160405280939291908181526020015f905b82821015610cca5784848390506040020160028060200260405190810160405280929190826002602002808284375f81840152601f19601f82011690508083019250505050505081526020019060010190610c74565b50505050506113a8565b505050565b5f7f0000000000000000000000000000000000000000000000000000000000000000905090565b600b8160028110610d0f575f80fd5b015f915090505481565b600f602052805f5260405f205f915054906101000a900460ff1681565b60038160028110610d45575f80fd5b015f915090505481565b5f610d58610fe6565b600f5f8381526020019081526020015f205f9054906101000a900460ff16610db5576040517f08c379a0000000000000000000000000000000000000000000000000000000008152600401610dac906126b2565b60405180910390fd5b600a848490501115610dfc576040517f08c379a0000000000000000000000000000000000000000000000000000000008152600401610df39061271a565b60405180910390fd5b5f8686810190610e0c9190612955565b9050610e578585808060200260200160405190810160405280939291908181526020018383602002808284375f81840152601f19601f8201169050808301925050505050505061124f565b610f36818686808060200260200160405190810160405280939291908181526020018383602002808284375f81840152601f19601f82011690508083019250505050505050600d5f8781526020019081526020015f20805480602002602001604051908101604052809291908181526020015f905b82821015610f2d578382905f5260205f209060020201600280602002604051908101604052809291908260028015610f19576020028201915b815481526020019060010190808311610f05575b505050505081526020019060010190610ecc565b50505050611027565b91505095945050505050565b610f4a6111c8565b5f73ffffffffffffffffffffffffffffffffffffffff168173ffffffffffffffffffffffffffffffffffffffff1603610fba575f6040517f1e4fbdf7000000000000000000000000000000000000000000000000000000008152600401610fb191906123e9565b60405180910390fd5b610fc3816112e7565b50565b60108181548110610fd5575f80fd5b905f5260205f20015f915090505481565b610fee610bd4565b15611025576040517fd93c066500000000000000000000000000000000000000000000000000000000815260040160405180910390fd5b565b5f8151600184516110389190612abe565b14611078576040517f08c379a000000000000000000000000000000000000000000000000000000000815260040161106f90612b3b565b60405180910390fd5b5f611083848461154e565b90506111be858260036002806020026040519081016040528092919082600280156110c3576020028201915b8154815260200190600101908083116110af575b50505050506005600280602002604051908101604052809291905f905b8282101561113957838260020201600280602002604051908101604052809291908260028015611125576020028201915b815481526020019060010190808311611111575b5050505050815260200190600101906110e0565b505050506009600280602002604051908101604052809291908260028015611176576020028201915b815481526020019060010190808311611162575b5050505050600b6002806020026040519081016040528092919082600280156111b4576020028201915b8154815260200190600101908083116111a0575b50505050506116d9565b9150509392505050565b6111d0611c69565b73ffffffffffffffffffffffffffffffffffffffff166111ee610c20565b73ffffffffffffffffffffffffffffffffffffffff161461124d57611211611c69565b6040517f118cdaa700000000000000000000000000000000000000000000000000000000815260040161124491906123e9565b60405180910390fd5b565b5f5b81518110156112e3577f30644e72e131a029b85045b68181585d2833e84879b9709143e1f593f000000182828151811061128e5761128d612536565b5b6020026020010151106112d6576040517f08c379a00000000000000000000000000000000000000000000000000000000081526004016112cd90612ba3565b60405180910390fd5b8080600101915050611251565b5050565b5f805f9054906101000a900473ffffffffffffffffffffffffffffffffffffffff169050815f806101000a81548173ffffffffffffffffffffffffffffffffffffffff021916908373ffffffffffffffffffffffffffffffffffffffff1602179055508173ffffffffffffffffffffffffffffffffffffffff168173ffffffffffffffffffffffffffffffffffffffff167f8be0079c531659141344cd1fd0a4f28419497f9722a3daafe3b4186f6b6457e060405160405180910390a35050565b600f5f8381526020019081526020015f205f9054906101000a900460ff1615611406576040517f08c379a00000000000000000000000000000000000000000000000000000000081526004016113fd90612c0b565b60405180910390fd5b5f815111611449576040517f08c379a000000000000000000000000000000000000000000000000000000000815260040161144090612c73565b60405180910390fd5b6001600f5f8481526020019081526020015f205f6101000a81548160ff021916908315150217905550601082908060018154018082558091505060019003905f5260205f20015f90919091909150555f5b815181101561151157600d5f8481526020019081526020015f208282815181106114c7576114c6612536565b5b6020026020010151908060018154018082558091505060019003905f5260205f2090600202015f90919091909150906002611503929190611ece565b50808060010191505061149a565b50817fa1339eb0c83d6ef984978de4b1183619df17a5dcbb74c7d120d193fa5586feec42604051611542919061201b565b60405180910390a25050565b611556611f0e565b5f825f8151811061156a57611569612536565b5b602002602001015190505f5b84518110156116ce577f30644e72e131a029b85045b68181585d2833e84879b9709143e1f593f00000018582815181106115b3576115b2612536565b5b6020026020010151106115fb576040517f08c379a00000000000000000000000000000000000000000000000000000000081526004016115f290612ba3565b60405180910390fd5b5f806116478660018561160e9190612abe565b8151811061161f5761161e612536565b5b602002602001015188858151811061163a57611639612536565b5b6020026020010151611c70565b91509150611686845f6002811061166157611660612536565b5b60200201518560016002811061167a57611679612536565b5b60200201518484611d96565b855f6002811061169957611698612536565b5b60200201866001600281106116b1576116b0612536565b5b602002018281525082815250505050508080600101915050611576565b508091505092915050565b5f6116e2611f30565b875f01515f600281106116f8576116f7612536565b5b6020020151815f601881106117105761170f612536565b5b602002018181525050875f01516001600281106117305761172f612536565b5b60200201518160016018811061174957611748612536565b5b60200201818152505087602001515f6002811061176957611768612536565b5b60200201515f600281106117805761177f612536565b5b60200201518160026018811061179957611798612536565b5b60200201818152505087602001515f600281106117b9576117b8612536565b5b60200201516001600281106117d1576117d0612536565b5b6020020151816003601881106117ea576117e9612536565b5b602002018181525050876020015160016002811061180b5761180a612536565b5b60200201515f6002811061182257611821612536565b5b60200201518160046018811061183b5761183a612536565b5b602002018181525050876020015160016002811061185c5761185b612536565b5b602002015160016002811061187457611873612536565b5b60200201518160056018811061188d5761188c612536565b5b602002018181525050855f600281106118a9576118a8612536565b5b6020020151816006601881106118c2576118c1612536565b5b602002018181525050856001600281106118df576118de612536565b5b6020020151816007601881106118f8576118f7612536565b5b602002018181525050845f6002811061191457611913612536565b5b60200201515f6002811061192b5761192a612536565b5b60200201518160086018811061194457611943612536565b5b602002018181525050845f600281106119605761195f612536565b5b602002015160016002811061197857611977612536565b5b60200201518160096018811061199157611990612536565b5b602002018181525050846001600281106119ae576119ad612536565b5b60200201515f600281106119c5576119c4612536565b5b602002015181600a601881106119de576119dd612536565b5b602002018181525050846001600281106119fb576119fa612536565b5b6020020151600160028110611a1357611a12612536565b5b602002015181600b60188110611a2c57611a2b612536565b5b602002018181525050865f60028110611a4857611a47612536565b5b602002015181600c60188110611a6157611a60612536565b5b60200201818152505086600160028110611a7e57611a7d612536565b5b602002015181600d60188110611a9757611a96612536565b5b602002018181525050835f60028110611ab357611ab2612536565b5b602002015181600e60188110611acc57611acb612536565b5b60200201818152505083600160028110611ae957611ae8612536565b5b602002015181600f60188110611b0257611b01612536565b5b60200201818152505087604001515f60028110611b2257611b21612536565b5b602002015181601060188110611b3b57611b3a612536565b5b6020020181815250508760400151600160028110611b5c57611b5b612536565b5b602002015181601160188110611b7557611b74612536565b5b602002018181525050825f60028110611b9157611b90612536565b5b602002015181601260188110611baa57611ba9612536565b5b60200201818152505082600160028110611bc757611bc6612536565b5b602002015181601360188110611be057611bdf612536565b5b602002018181525050611bf1611f53565b5f6020826103008560085afa905080611c3f576040517f08c379a0000000000000000000000000000000000000000000000000000000008152600401611c3690612cdb565b60405180910390fd5b6001825f60018110611c5457611c53612536565b5b60200201511493505050509695505050505050565b5f33905090565b5f80611c7a611f75565b845f60028110611c8d57611c8c612536565b5b6020020151815f60038110611ca557611ca4612536565b5b60200201818152505084600160028110611cc257611cc1612536565b5b602002015181600160038110611cdb57611cda612536565b5b6020020181815250508381600260038110611cf957611cf8612536565b5b602002018181525050611d0a611f0e565b5f60408260608560075afa905080611d57576040517f08c379a0000000000000000000000000000000000000000000000000000000008152600401611d4e90612d43565b60405180910390fd5b815f60028110611d6a57611d69612536565b5b602002015182600160028110611d8357611d82612536565b5b6020020151945094505050509250929050565b5f80611da0611f97565b86815f60048110611db457611db3612536565b5b6020020181815250508581600160048110611dd257611dd1612536565b5b6020020181815250508481600260048110611df057611def612536565b5b6020020181815250508381600360048110611e0e57611e0d612536565b5b602002018181525050611e1f611f0e565b5f60408260808560065afa905080611e6c576040517f08c379a0000000000000000000000000000000000000000000000000000000008152600401611e6390612dab565b60405180910390fd5b815f60028110611e7f57611e7e612536565b5b602002015182600160028110611e9857611e97612536565b5b60200201519450945050505094509492505050565b5080545f8255600202905f5260205f2090810190611ecb9190611fb9565b50565b8260028101928215611efd579160200282015b82811115611efc578251825591602001919060010190611ee1565b5b509050611f0a9190611fdc565b5090565b6040518060400160405280600290602082028036833780820191505090505090565b604051806103000160405280601890602082028036833780820191505090505090565b6040518060200160405280600190602082028036833780820191505090505090565b6040518060600160405280600390602082028036833780820191505090505090565b6040518060800160405280600490602082028036833780820191505090505090565b5b80821115611fd8575f8181611fcf9190611ff7565b50600201611fba565b5090565b5b80821115611ff3575f815f905550600101611fdd565b5090565b505f81556001015f9055565b5f819050919050565b61201581612003565b82525050565b5f60208201905061202e5f83018461200c565b92915050565b5f604051905090565b5f80fd5b5f80fd5b5f819050919050565b61205781612045565b8114612061575f80fd5b50565b5f813590506120728161204e565b92915050565b5f6020828403121561208d5761208c61203d565b5b5f61209a84828501612064565b91505092915050565b5f8115159050919050565b6120b7816120a3565b82525050565b5f6020820190506120d05f8301846120ae565b92915050565b5f80fd5b5f819050826020600802820111156120f5576120f46120d6565b5b92915050565b5f81905082602060010282011115612116576121156120d6565b5b92915050565b5f8061012083850312156121335761213261203d565b5b5f612140858286016120da565b925050610100612152858286016120fb565b9150509250929050565b61216581612003565b811461216f575f80fd5b50565b5f813590506121808161215c565b92915050565b5f6020828403121561219b5761219a61203d565b5b5f6121a884828501612172565b91505092915050565b5f805f606084860312156121c8576121c761203d565b5b5f6121d586828701612172565b93505060206121e686828701612172565b92505060406121f786828701612172565b9150509250925092565b5f80fd5b5f80fd5b5f8083601f84011261221e5761221d612201565b5b8235905067ffffffffffffffff81111561223b5761223a612205565b5b602083019150836001820283011115612257576122566120d6565b5b9250929050565b5f8083601f84011261227357612272612201565b5b8235905067ffffffffffffffff8111156122905761228f612205565b5b6020830191508360208202830111156122ac576122ab6120d6565b5b9250929050565b5f805f805f606086880312156122cc576122cb61203d565b5b5f86013567ffffffffffffffff8111156122e9576122e8612041565b5b6122f588828901612209565b9550955050602086013567ffffffffffffffff81111561231857612317612041565b5b6123248882890161225e565b9350935050604061233788828901612172565b9150509295509295909350565b5f806040838503121561235a5761235961203d565b5b5f61236785828601612172565b925050602061237885828601612172565b9150509250929050565b61238b81612045565b82525050565b5f6020820190506123a45f830184612382565b92915050565b5f73ffffffffffffffffffffffffffffffffffffffff82169050919050565b5f6123d3826123aa565b9050919050565b6123e3816123c9565b82525050565b5f6020820190506123fc5f8301846123da565b92915050565b5f8083601f84011261241757612416612201565b5b8235905067ffffffffffffffff81111561243457612433612205565b5b6020830191508360408202830111156124505761244f6120d6565b5b9250929050565b5f805f6040848603121561246e5761246d61203d565b5b5f61247b86828701612172565b935050602084013567ffffffffffffffff81111561249c5761249b612041565b5b6124a886828701612402565b92509250509250925092565b6124bd816123c9565b81146124c7575f80fd5b50565b5f813590506124d8816124b4565b92915050565b5f602082840312156124f3576124f261203d565b5b5f612500848285016124ca565b91505092915050565b7f4e487b71000000000000000000000000000000000000000000000000000000005f52604160045260245ffd5b7f4e487b71000000000000000000000000000000000000000000000000000000005f52603260045260245ffd5b5f82825260208201905092915050565b7f44656e6f6d696e6174696f6e206e6f7420666f756e64000000000000000000005f82015250565b5f6125a7601683612563565b91506125b282612573565b602082019050919050565b5f6020820190508181035f8301526125d48161259b565b9050919050565b7f4e487b71000000000000000000000000000000000000000000000000000000005f52601160045260245ffd5b5f61261282612003565b915061261d83612003565b9250828203905081811115612635576126346125db565b5b92915050565b7f4e487b71000000000000000000000000000000000000000000000000000000005f52603160045260245ffd5b7f556e737570706f727465642064656e6f6d696e6174696f6e00000000000000005f82015250565b5f61269c601883612563565b91506126a782612668565b602082019050919050565b5f6020820190508181035f8301526126c981612690565b9050919050565b7f546f6f206d616e7920696e7075747300000000000000000000000000000000005f82015250565b5f612704600f83612563565b915061270f826126d0565b602082019050919050565b5f6020820190508181035f830152612731816126f8565b9050919050565b5f80fd5b5f601f19601f8301169050919050565b6127558261273c565b810181811067ffffffffffffffff8211171561277457612773612509565b5b80604052505050565b5f612786612034565b9050612792828261274c565b919050565b5f67ffffffffffffffff8211156127b1576127b0612509565b5b602082029050919050565b5f6127ce6127c984612797565b61277d565b905080602084028301858111156127e8576127e76120d6565b5b835b8181101561281157806127fd8882612172565b8452602084019350506020810190506127ea565b5050509392505050565b5f82601f83011261282f5761282e612201565b5b600261283c8482856127bc565b91505092915050565b5f67ffffffffffffffff82111561285f5761285e612509565b5b602082029050919050565b5f61287c61287784612845565b61277d565b90508060408402830185811115612896576128956120d6565b5b835b818110156128bf57806128ab888261281b565b845260208401935050604081019050612898565b5050509392505050565b5f82601f8301126128dd576128dc612201565b5b60026128ea84828561286a565b91505092915050565b5f610100828403121561290957612908612738565b5b612913606061277d565b90505f6129228482850161281b565b5f830152506040612935848285016128c9565b60208301525060c06129498482850161281b565b60408301525092915050565b5f610100828403121561296b5761296a61203d565b5b5f612978848285016128f3565b91505092915050565b5f81905092915050565b828183375f83830152505050565b5f6129a48385612981565b93506129b183858461298b565b82840190509392505050565b5f81905092915050565b5f80fd5b82818337505050565b5f6129df83856129bd565b93507f07ffffffffffffffffffffffffffffffffffffffffffffffffffffffffffffff831115612a1257612a116129c7565b5b602083029250612a238385846129cb565b82840190509392505050565b5f612a3b828688612999565b9150612a488284866129d4565b915081905095945050505050565b7f50726f6f6620616c7265616479207573656400000000000000000000000000005f82015250565b5f612a8a601283612563565b9150612a9582612a56565b602082019050919050565b5f6020820190508181035f830152612ab781612a7e565b9050919050565b5f612ac882612003565b9150612ad383612003565b9250828201905080821115612aeb57612aea6125db565b5b92915050565b7f496e76616c696420696e707574206c656e6774680000000000000000000000005f82015250565b5f612b25601483612563565b9150612b3082612af1565b602082019050919050565b5f6020820190508181035f830152612b5281612b19565b9050919050565b7f496e70757420746f6f206c6172676500000000000000000000000000000000005f82015250565b5f612b8d600f83612563565b9150612b9882612b59565b602082019050919050565b5f6020820190508181035f830152612bba81612b81565b9050919050565b7f44656e6f6d696e6174696f6e20657869737473000000000000000000000000005f82015250565b5f612bf5601383612563565b9150612c0082612bc1565b602082019050919050565b5f6020820190508181035f830152612c2281612be9565b9050919050565b7f456d7074792049432061727261790000000000000000000000000000000000005f82015250565b5f612c5d600e83612563565b9150612c6882612c29565b602082019050919050565b5f6020820190508181035f830152612c8a81612c51565b9050919050565b7f50616972696e6720636865636b206661696c65640000000000000000000000005f82015250565b5f612cc5601483612563565b9150612cd082612c91565b602082019050919050565b5f6020820190508181035f830152612cf281612cb9565b9050919050565b7f5363616c6172206d756c7469706c69636174696f6e206661696c6564000000005f82015250565b5f612d2d601c83612563565b9150612d3882612cf9565b602082019050919050565b5f6020820190508181035f830152612d5a81612d21565b9050919050565b7f506f696e74206164646974696f6e206661696c656400000000000000000000005f82015250565b5f612d95601583612563565b9150612da082612d61565b602082019050919050565b5f6020820190508181035f830152612dc281612d89565b905091905056fea2646970667358221220fc844266055413204085c1a6cd5a2d080ccca3166690049abcef5516f7ff35bd64736f6c634300081a0033",
					"opcodes": "PUSH1 0xA0 PUSH1 0x40 MSTORE CALLVALUE DUP1 ISZERO PUSH2 0xF JUMPI PUSH0 DUP1 REVERT JUMPDEST POP PUSH1 0x40 MLOAD PUSH2 0x3AFC CODESIZE SUB DUP1 PUSH2 0x3AFC DUP4 CODECOPY DUP2 DUP2 ADD PUSH1 0x40 MSTORE DUP2 ADD SWAP1 PUSH2 0x31 SWAP2 SWAP1 PUSH2 0xA2C JUMP JUMPDEST DUP8 PUSH0 PUSH20 0xFFFFFFFFFFFFFFFFFFFFFFFFFFFFFFFFFFFFFFFF AND DUP2 PUSH20 0xFFFFFFFFFFFFFFFFFFFFFFFFFFFFFFFFFFFFFFFF AND SUB PUSH2 0xA2 JUMPI PUSH0 PUSH1 0x40 MLOAD PUSH32 0x1E4FBDF700000000000000000000000000000000000000000000000000000000 DUP2 MSTORE PUSH1 0x4 ADD PUSH2 0x99 SWAP2 SWAP1 PUSH2 0xB28 JUMP JUMPDEST PUSH1 0x40 MLOAD DUP1 SWAP2 SUB SWAP1 REVERT JUMPDEST PUSH2 0xB1 DUP2 PUSH2 0x1D0 PUSH1 0x20 SHL PUSH1 0x20 SHR JUMP JUMPDEST POP PUSH1 0x1 DUP1 DUP2 SWAP1 SSTORE POP PUSH0 PUSH1 0x2 PUSH0 PUSH2 0x100 EXP DUP2 SLOAD DUP2 PUSH1 0xFF MUL NOT AND SWAP1 DUP4 ISZERO ISZERO MUL OR SWAP1 SSTORE POP DUP2 MLOAD DUP8 MLOAD EQ PUSH2 0x116 JUMPI PUSH1 0x40 MLOAD PUSH32 0x8C379A000000000000000000000000000000000000000000000000000000000 DUP2 MSTORE PUSH1 0x4 ADD PUSH2 0x10D SWAP1 PUSH2 0xB9B JUMP JUMPDEST PUSH1 0x40 MLOAD DUP1 SWAP2 SUB SWAP1 REVERT JUMPDEST DUP6 PUSH1 0x3 SWAP1 PUSH1 0x2 PUSH2 0x127 SWAP3 SWAP2 SWAP1 PUSH2 0x437 JUMP JUMPDEST POP DUP5 PUSH1 0x5 SWAP1 PUSH1 0x2 PUSH2 0x139 SWAP3 SWAP2 SWAP1 PUSH2 0x477 JUMP JUMPDEST POP DUP4 PUSH1 0x9 SWAP1 PUSH1 0x2 PUSH2 0x14B SWAP3 SWAP2 SWAP1 PUSH2 0x437 JUMP JUMPDEST POP DUP3 PUSH1 0xB SWAP1 PUSH1 0x2 PUSH2 0x15D SWAP3 SWAP2 SWAP1 PUSH2 0x437 JUMP JUMPDEST POP DUP1 PUSH1 0x80 DUP2 DUP2 MSTORE POP POP PUSH0 JUMPDEST DUP8 MLOAD DUP2 LT ISZERO PUSH2 0x1C2 JUMPI PUSH2 0x1B5 DUP9 DUP3 DUP2 MLOAD DUP2 LT PUSH2 0x187 JUMPI PUSH2 0x186 PUSH2 0xBB9 JUMP JUMPDEST JUMPDEST PUSH1 0x20 MUL PUSH1 0x20 ADD ADD MLOAD DUP5 DUP4 DUP2 MLOAD DUP2 LT PUSH2 0x1A2 JUMPI PUSH2 0x1A1 PUSH2 0xBB9 JUMP JUMPDEST JUMPDEST PUSH1 0x20 MUL PUSH1 0x20 ADD ADD MLOAD PUSH2 0x291 PUSH1 0x20 SHL PUSH1 0x20 SHR JUMP JUMPDEST DUP1 DUP1 PUSH1 0x1 ADD SWAP2 POP POP PUSH2 0x168 JUMP JUMPDEST POP POP POP POP POP POP POP POP POP PUSH2 0xCDE JUMP JUMPDEST PUSH0 DUP1 PUSH0 SWAP1 SLOAD SWAP1 PUSH2 0x100 EXP SWAP1 DIV PUSH20 0xFFFFFFFFFFFFFFFFFFFFFFFFFFFFFFFFFFFFFFFF AND SWAP1 POP DUP2 PUSH0 DUP1 PUSH2 0x100 EXP DUP2 SLOAD DUP2 PUSH20 0xFFFFFFFFFFFFFFFFFFFFFFFFFFFFFFFFFFFFFFFF MUL NOT AND SWAP1 DUP4 PUSH20 0xFFFFFFFFFFFFFFFFFFFFFFFFFFFFFFFFFFFFFFFF AND MUL OR SWAP1 SSTORE POP DUP2 PUSH20 0xFFFFFFFFFFFFFFFFFFFFFFFFFFFFFFFFFFFFFFFF AND DUP2 PUSH20 0xFFFFFFFFFFFFFFFFFFFFFFFFFFFFFFFFFFFFFFFF AND PUSH32 0x8BE0079C531659141344CD1FD0A4F28419497F9722A3DAAFE3B4186F6B6457E0 PUSH1 0x40 MLOAD PUSH1 0x40 MLOAD DUP1 SWAP2 SUB SWAP1 LOG3 POP POP JUMP JUMPDEST PUSH1 0xF PUSH0 DUP4 DUP2 MSTORE PUSH1 0x20 ADD SWAP1 DUP2 MSTORE PUSH1 0x20 ADD PUSH0 KECCAK256 PUSH0 SWAP1 SLOAD SWAP1 PUSH2 0x100 EXP SWAP1 DIV PUSH1 0xFF AND ISZERO PUSH2 0x2EF JUMPI PUSH1 0x40 MLOAD PUSH32 0x8C379A000000000000000000000000000000000000000000000000000000000 DUP2 MSTORE PUSH1 0x4 ADD PUSH2 0x2E6 SWAP1 PUSH2 0xC30 JUMP JUMPDEST PUSH1 0x40 MLOAD DUP1 SWAP2 SUB SWAP1 REVERT JUMPDEST PUSH0 DUP2 MLOAD GT PUSH2 0x332 JUMPI PUSH1 0x40 MLOAD PUSH32 0x8C379A000000000000000000000000000000000000000000000000000000000 DUP2 MSTORE PUSH1 0x4 ADD PUSH2 0x329 SWAP1 PUSH2 0xC98 JUMP JUMPDEST PUSH1 0x40 MLOAD DUP1 SWAP2 SUB SWAP1 REVERT JUMPDEST PUSH1 0x1 PUSH1 0xF PUSH0 DUP5 DUP2 MSTORE PUSH1 0x20 ADD SWAP1 DUP2 MSTORE PUSH1 0x20 ADD PUSH0 KECCAK256 PUSH0 PUSH2 0x100 EXP DUP2 SLOAD DUP2 PUSH1 0xFF MUL NOT AND SWAP1 DUP4 ISZERO ISZERO MUL OR SWAP1 SSTORE POP PUSH1 0x10 DUP3 SWAP1 DUP1 PUSH1 0x1 DUP2 SLOAD ADD DUP1 DUP3 SSTORE DUP1 SWAP2 POP POP PUSH1 0x1 SWAP1 SUB SWAP1 PUSH0 MSTORE PUSH1 0x20 PUSH0 KECCAK256 ADD PUSH0 SWAP1 SWAP2 SWAP1 SWAP2 SWAP1 SWAP2 POP SSTORE PUSH0 JUMPDEST DUP2 MLOAD DUP2 LT ISZERO PUSH2 0x3FA JUMPI PUSH1 0xD PUSH0 DUP5 DUP2 MSTORE PUSH1 0x20 ADD SWAP1 DUP2 MSTORE PUSH1 0x20 ADD PUSH0 KECCAK256 DUP3 DUP3 DUP2 MLOAD DUP2 LT PUSH2 0x3B0 JUMPI PUSH2 0x3AF PUSH2 0xBB9 JUMP JUMPDEST JUMPDEST PUSH1 0x20 MUL PUSH1 0x20 ADD ADD MLOAD SWAP1 DUP1 PUSH1 0x1 DUP2 SLOAD ADD DUP1 DUP3 SSTORE DUP1 SWAP2 POP POP PUSH1 0x1 SWAP1 SUB SWAP1 PUSH0 MSTORE PUSH1 0x20 PUSH0 KECCAK256 SWAP1 PUSH1 0x2 MUL ADD PUSH0 SWAP1 SWAP2 SWAP1 SWAP2 SWAP1 SWAP2 POP SWAP1 PUSH1 0x2 PUSH2 0x3EC SWAP3 SWAP2 SWAP1 PUSH2 0x437 JUMP JUMPDEST POP DUP1 DUP1 PUSH1 0x1 ADD SWAP2 POP POP PUSH2 0x383 JUMP JUMPDEST POP DUP2 PUSH32 0xA1339EB0C83D6EF984978DE4B1183619DF17A5DCBB74C7D120D193FA5586FEEC TIMESTAMP PUSH1 0x40 MLOAD PUSH2 0x42B SWAP2 SWAP1 PUSH2 0xCC5 JUMP JUMPDEST PUSH1 0x40 MLOAD DUP1 SWAP2 SUB SWAP1 LOG2 POP POP JUMP JUMPDEST DUP3 PUSH1 0x2 DUP2 ADD SWAP3 DUP3 ISZERO PUSH2 0x466 JUMPI SWAP2 PUSH1 0x20 MUL DUP3 ADD JUMPDEST DUP3 DUP2 GT ISZERO PUSH2 0x465 JUMPI DUP3 MLOAD DUP3 SSTORE SWAP2 PUSH1 0x20 ADD SWAP2 SWAP1 PUSH1 0x1 ADD SWAP1 PUSH2 0x44A JUMP JUMPDEST JUMPDEST POP SWAP1 POP PUSH2 0x473 SWAP2 SWAP1 PUSH2 0x4C7 JUMP JUMPDEST POP SWAP1 JUMP JUMPDEST DUP3 PUSH1 0x2 DUP1 MUL DUP2 ADD SWAP3 DUP3 ISZERO PUSH2 0x4B6 JUMPI SWAP2 PUSH1 0x20 MUL DUP3 ADD JUMPDEST DUP3 DUP2 GT ISZERO PUSH2 0x4B5 JUMPI DUP3 MLOAD DUP3 SWAP1 PUSH1 0x2 PUSH2 0x4A5 SWAP3 SWAP2 SWAP1 PUSH2 0x437 JUMP JUMPDEST POP SWAP2 PUSH1 0x20 ADD SWAP2 SWAP1 PUSH1 0x2 ADD SWAP1 PUSH2 0x48C JUMP JUMPDEST JUMPDEST POP SWAP1 POP PUSH2 0x4C3 SWAP2 SWAP1 PUSH2 0x4E2 JUMP JUMPDEST POP SWAP1 JUMP JUMPDEST JUMPDEST DUP1 DUP3 GT ISZERO PUSH2 0x4DE JUMPI PUSH0 DUP2 PUSH0 SWAP1 SSTORE POP PUSH1 0x1 ADD PUSH2 0x4C8 JUMP JUMPDEST POP SWAP1 JUMP JUMPDEST JUMPDEST DUP1 DUP3 GT ISZERO PUSH2 0x501 JUMPI PUSH0 DUP2 DUP2 PUSH2 0x4F8 SWAP2 SWAP1 PUSH2 0x505 JUMP JUMPDEST POP PUSH1 0x2 ADD PUSH2 0x4E3 JUMP JUMPDEST POP SWAP1 JUMP JUMPDEST POP PUSH0 DUP2 SSTORE PUSH1 0x1 ADD PUSH0 SWAP1 SSTORE JUMP JUMPDEST PUSH0 PUSH1 0x40 MLOAD SWAP1 POP SWAP1 JUMP JUMPDEST PUSH0 DUP1 REVERT JUMPDEST PUSH0 DUP1 REVERT JUMPDEST PUSH0 PUSH20 0xFFFFFFFFFFFFFFFFFFFFFFFFFFFFFFFFFFFFFFFF DUP3 AND SWAP1 POP SWAP2 SWAP1 POP JUMP JUMPDEST PUSH0 PUSH2 0x54B DUP3 PUSH2 0x522 JUMP JUMPDEST SWAP1 POP SWAP2 SWAP1 POP JUMP JUMPDEST PUSH2 0x55B DUP2 PUSH2 0x541 JUMP JUMPDEST DUP2 EQ PUSH2 0x565 JUMPI PUSH0 DUP1 REVERT JUMPDEST POP JUMP JUMPDEST PUSH0 DUP2 MLOAD SWAP1 POP PUSH2 0x576 DUP2 PUSH2 0x552 JUMP JUMPDEST SWAP3 SWAP2 POP POP JUMP JUMPDEST PUSH0 DUP1 REVERT JUMPDEST PUSH0 PUSH1 0x1F NOT PUSH1 0x1F DUP4 ADD AND SWAP1 POP SWAP2 SWAP1 POP JUMP JUMPDEST PUSH32 0x4E487B7100000000000000000000000000000000000000000000000000000000 PUSH0 MSTORE PUSH1 0x41 PUSH1 0x4 MSTORE PUSH1 0x24 PUSH0 REVERT JUMPDEST PUSH2 0x5C6 DUP3 PUSH2 0x580 JUMP JUMPDEST DUP2 ADD DUP2 DUP2 LT PUSH8 0xFFFFFFFFFFFFFFFF DUP3 GT OR ISZERO PUSH2 0x5E5 JUMPI PUSH2 0x5E4 PUSH2 0x590 JUMP JUMPDEST JUMPDEST DUP1 PUSH1 0x40 MSTORE POP POP POP JUMP JUMPDEST PUSH0 PUSH2 0x5F7 PUSH2 0x511 JUMP JUMPDEST SWAP1 POP PUSH2 0x603 DUP3 DUP3 PUSH2 0x5BD JUMP JUMPDEST SWAP2 SWAP1 POP JUMP JUMPDEST PUSH0 PUSH8 0xFFFFFFFFFFFFFFFF DUP3 GT ISZERO PUSH2 0x622 JUMPI PUSH2 0x621 PUSH2 0x590 JUMP JUMPDEST JUMPDEST PUSH1 0x20 DUP3 MUL SWAP1 POP PUSH1 0x20 DUP2 ADD SWAP1 POP SWAP2 SWAP1 POP JUMP JUMPDEST PUSH0 DUP1 REVERT JUMPDEST PUSH0 DUP2 SWAP1 POP SWAP2 SWAP1 POP JUMP JUMPDEST PUSH2 0x649 DUP2 PUSH2 0x637 JUMP JUMPDEST DUP2 EQ PUSH2 0x653 JUMPI PUSH0 DUP1 REVERT JUMPDEST POP JUMP JUMPDEST PUSH0 DUP2 MLOAD SWAP1 POP PUSH2 0x664 DUP2 PUSH2 0x640 JUMP JUMPDEST SWAP3 SWAP2 POP POP JUMP JUMPDEST PUSH0 PUSH2 0x67C PUSH2 0x677 DUP5 PUSH2 0x608 JUMP JUMPDEST PUSH2 0x5EE JUMP JUMPDEST SWAP1 POP DUP1 DUP4 DUP3 MSTORE PUSH1 0x20 DUP3 ADD SWAP1 POP PUSH1 0x20 DUP5 MUL DUP4 ADD DUP6 DUP2 GT ISZERO PUSH2 0x69F JUMPI PUSH2 0x69E PUSH2 0x633 JUMP JUMPDEST JUMPDEST DUP4 JUMPDEST DUP2 DUP2 LT ISZERO PUSH2 0x6C8 JUMPI DUP1 PUSH2 0x6B4 DUP9 DUP3 PUSH2 0x656 JUMP JUMPDEST DUP5 MSTORE PUSH1 0x20 DUP5 ADD SWAP4 POP POP PUSH1 0x20 DUP2 ADD SWAP1 POP PUSH2 0x6A1 JUMP JUMPDEST POP POP POP SWAP4 SWAP3 POP POP POP JUMP JUMPDEST PUSH0 DUP3 PUSH1 0x1F DUP4 ADD SLT PUSH2 0x6E6 JUMPI PUSH2 0x6E5 PUSH2 0x57C JUMP JUMPDEST JUMPDEST DUP2 MLOAD PUSH2 0x6F6 DUP5 DUP3 PUSH1 0x20 DUP7 ADD PUSH2 0x66A JUMP JUMPDEST SWAP2 POP POP SWAP3 SWAP2 POP POP JUMP JUMPDEST PUSH0 PUSH8 0xFFFFFFFFFFFFFFFF DUP3 GT ISZERO PUSH2 0x719 JUMPI PUSH2 0x718 PUSH2 0x590 JUMP JUMPDEST JUMPDEST PUSH1 0x20 DUP3 MUL SWAP1 POP SWAP2 SWAP1 POP JUMP JUMPDEST PUSH0 PUSH2 0x736 PUSH2 0x731 DUP5 PUSH2 0x6FF JUMP JUMPDEST PUSH2 0x5EE JUMP JUMPDEST SWAP1 POP DUP1 PUSH1 0x20 DUP5 MUL DUP4 ADD DUP6 DUP2 GT ISZERO PUSH2 0x750 JUMPI PUSH2 0x74F PUSH2 0x633 JUMP JUMPDEST JUMPDEST DUP4 JUMPDEST DUP2 DUP2 LT ISZERO PUSH2 0x779 JUMPI DUP1 PUSH2 0x765 DUP9 DUP3 PUSH2 0x656 JUMP JUMPDEST DUP5 MSTORE PUSH1 0x20 DUP5 ADD SWAP4 POP POP PUSH1 0x20 DUP2 ADD SWAP1 POP PUSH2 0x752 JUMP JUMPDEST POP POP POP SWAP4 SWAP3 POP POP POP JUMP JUMPDEST PUSH0 DUP3 PUSH1 0x1F DUP4 ADD SLT PUSH2 0x797 JUMPI PUSH2 0x796 PUSH2 0x57C JUMP JUMPDEST JUMPDEST PUSH1 0x2 PUSH2 0x7A4 DUP5 DUP3 DUP6 PUSH2 0x724 JUMP JUMPDEST SWAP2 POP POP SWAP3 SWAP2 POP POP JUMP JUMPDEST PUSH0 PUSH8 0xFFFFFFFFFFFFFFFF DUP3 GT ISZERO PUSH2 0x7C7 JUMPI PUSH2 0x7C6 PUSH2 0x590 JUMP JUMPDEST JUMPDEST PUSH1 0x20 DUP3 MUL SWAP1 POP SWAP2 SWAP1 POP JUMP JUMPDEST PUSH0 PUSH2 0x7E4 PUSH2 0x7DF DUP5 PUSH2 0x7AD JUMP JUMPDEST PUSH2 0x5EE JUMP JUMPDEST SWAP1 POP DUP1 PUSH1 0x40 DUP5 MUL DUP4 ADD DUP6 DUP2 GT ISZERO PUSH2 0x7FE JUMPI PUSH2 0x7FD PUSH2 0x633 JUMP JUMPDEST JUMPDEST DUP4 JUMPDEST DUP2 DUP2 LT ISZERO PUSH2 0x827 JUMPI DUP1 PUSH2 0x813 DUP9 DUP3 PUSH2 0x783 JUMP JUMPDEST DUP5 MSTORE PUSH1 0x20 DUP5 ADD SWAP4 POP POP PUSH1 0x40 DUP2 ADD SWAP1 POP PUSH2 0x800 JUMP JUMPDEST POP POP POP SWAP4 SWAP3 POP POP POP JUMP JUMPDEST PUSH0 DUP3 PUSH1 0x1F DUP4 ADD SLT PUSH2 0x845 JUMPI PUSH2 0x844 PUSH2 0x57C JUMP JUMPDEST JUMPDEST PUSH1 0x2 PUSH2 0x852 DUP5 DUP3 DUP6 PUSH2 0x7D2 JUMP JUMPDEST SWAP2 POP POP SWAP3 SWAP2 POP POP JUMP JUMPDEST PUSH0 PUSH8 0xFFFFFFFFFFFFFFFF DUP3 GT ISZERO PUSH2 0x875 JUMPI PUSH2 0x874 PUSH2 0x590 JUMP JUMPDEST JUMPDEST PUSH1 0x20 DUP3 MUL SWAP1 POP PUSH1 0x20 DUP2 ADD SWAP1 POP SWAP2 SWAP1 POP JUMP JUMPDEST PUSH0 PUSH8 0xFFFFFFFFFFFFFFFF DUP3 GT ISZERO PUSH2 0x8A0 JUMPI PUSH2 0x89F PUSH2 0x590 JUMP JUMPDEST JUMPDEST PUSH1 0x20 DUP3 MUL SWAP1 POP PUSH1 0x20 DUP2 ADD SWAP1 POP SWAP2 SWAP1 POP JUMP JUMPDEST PUSH0 PUSH2 0x8C3 PUSH2 0x8BE DUP5 PUSH2 0x886 JUMP JUMPDEST PUSH2 0x5EE JUMP JUMPDEST SWAP1 POP DUP1 DUP4 DUP3 MSTORE PUSH1 0x20 DUP3 ADD SWAP1 POP PUSH1 0x40 DUP5 MUL DUP4 ADD DUP6 DUP2 GT ISZERO PUSH2 0x8E6 JUMPI PUSH2 0x8E5 PUSH2 0x633 JUMP JUMPDEST JUMPDEST DUP4 JUMPDEST DUP2 DUP2 LT ISZERO PUSH2 0x90F JUMPI DUP1 PUSH2 0x8FB DUP9 DUP3 PUSH2 0x783 JUMP JUMPDEST DUP5 MSTORE PUSH1 0x20 DUP5 ADD SWAP4 POP POP PUSH1 0x40 DUP2 ADD SWAP1 POP PUSH2 0x8E8 JUMP JUMPDEST POP POP POP SWAP4 SWAP3 POP POP POP JUMP JUMPDEST PUSH0 DUP3 PUSH1 0x1F DUP4 ADD SLT PUSH2 0x92D JUMPI PUSH2 0x92C PUSH2 0x57C JUMP JUMPDEST JUMPDEST DUP2 MLOAD PUSH2 0x93D DUP5 DUP3 PUSH1 0x20 DUP7 ADD PUSH2 0x8B1 JUMP JUMPDEST SWAP2 POP POP SWAP3 SWAP2 POP POP JUMP JUMPDEST PUSH0 PUSH2 0x958 PUSH2 0x953 DUP5 PUSH2 0x85B JUMP JUMPDEST PUSH2 0x5EE JUMP JUMPDEST SWAP1 POP DUP1 DUP4 DUP3 MSTORE PUSH1 0x20 DUP3 ADD SWAP1 POP PUSH1 0x20 DUP5 MUL DUP4 ADD DUP6 DUP2 GT ISZERO PUSH2 0x97B JUMPI PUSH2 0x97A PUSH2 0x633 JUMP JUMPDEST JUMPDEST DUP4 JUMPDEST DUP2 DUP2 LT ISZERO PUSH2 0x9C2 JUMPI DUP1 MLOAD PUSH8 0xFFFFFFFFFFFFFFFF DUP2 GT ISZERO PUSH2 0x9A0 JUMPI PUSH2 0x99F PUSH2 0x57C JUMP JUMPDEST JUMPDEST DUP1 DUP7 ADD PUSH2 0x9AD DUP10 DUP3 PUSH2 0x919 JUMP JUMPDEST DUP6 MSTORE PUSH1 0x20 DUP6 ADD SWAP5 POP POP POP PUSH1 0x20 DUP2 ADD SWAP1 POP PUSH2 0x97D JUMP JUMPDEST POP POP POP SWAP4 SWAP3 POP POP POP JUMP JUMPDEST PUSH0 DUP3 PUSH1 0x1F DUP4 ADD SLT PUSH2 0x9E0 JUMPI PUSH2 0x9DF PUSH2 0x57C JUMP JUMPDEST JUMPDEST DUP2 MLOAD PUSH2 0x9F0 DUP5 DUP3 PUSH1 0x20 DUP7 ADD PUSH2 0x946 JUMP JUMPDEST SWAP2 POP POP SWAP3 SWAP2 POP POP JUMP JUMPDEST PUSH0 DUP2 SWAP1 POP SWAP2 SWAP1 POP JUMP JUMPDEST PUSH2 0xA0B DUP2 PUSH2 0x9F9 JUMP JUMPDEST DUP2 EQ PUSH2 0xA15 JUMPI PUSH0 DUP1 REVERT JUMPDEST POP JUMP JUMPDEST PUSH0 DUP2 MLOAD SWAP1 POP PUSH2 0xA26 DUP2 PUSH2 0xA02 JUMP JUMPDEST SWAP3 SWAP2 POP POP JUMP JUMPDEST PUSH0 DUP1 PUSH0 DUP1 PUSH0 DUP1 PUSH0 DUP1 PUSH2 0x1C0 DUP10 DUP12 SUB SLT ISZERO PUSH2 0xA49 JUMPI PUSH2 0xA48 PUSH2 0x51A JUMP JUMPDEST JUMPDEST PUSH0 PUSH2 0xA56 DUP12 DUP3 DUP13 ADD PUSH2 0x568 JUMP JUMPDEST SWAP9 POP POP PUSH1 0x20 DUP10 ADD MLOAD PUSH8 0xFFFFFFFFFFFFFFFF DUP2 GT ISZERO PUSH2 0xA77 JUMPI PUSH2 0xA76 PUSH2 0x51E JUMP JUMPDEST JUMPDEST PUSH2 0xA83 DUP12 DUP3 DUP13 ADD PUSH2 0x6D2 JUMP JUMPDEST SWAP8 POP POP PUSH1 0x40 PUSH2 0xA94 DUP12 DUP3 DUP13 ADD PUSH2 0x783 JUMP JUMPDEST SWAP7 POP POP PUSH1 0x80 PUSH2 0xAA5 DUP12 DUP3 DUP13 ADD PUSH2 0x831 JUMP JUMPDEST SWAP6 POP POP PUSH2 0x100 PUSH2 0xAB7 DUP12 DUP3 DUP13 ADD PUSH2 0x783 JUMP JUMPDEST SWAP5 POP POP PUSH2 0x140 PUSH2 0xAC9 DUP12 DUP3 DUP13 ADD PUSH2 0x783 JUMP JUMPDEST SWAP4 POP POP PUSH2 0x180 DUP10 ADD MLOAD PUSH8 0xFFFFFFFFFFFFFFFF DUP2 GT ISZERO PUSH2 0xAEB JUMPI PUSH2 0xAEA PUSH2 0x51E JUMP JUMPDEST JUMPDEST PUSH2 0xAF7 DUP12 DUP3 DUP13 ADD PUSH2 0x9CC JUMP JUMPDEST SWAP3 POP POP PUSH2 0x1A0 PUSH2 0xB09 DUP12 DUP3 DUP13 ADD PUSH2 0xA18 JUMP JUMPDEST SWAP2 POP POP SWAP3 SWAP6 SWAP9 POP SWAP3 SWAP6 SWAP9 SWAP1 SWAP4 SWAP7 POP JUMP JUMPDEST PUSH2 0xB22 DUP2 PUSH2 0x541 JUMP JUMPDEST DUP3 MSTORE POP POP JUMP JUMPDEST PUSH0 PUSH1 0x20 DUP3 ADD SWAP1 POP PUSH2 0xB3B PUSH0 DUP4 ADD DUP5 PUSH2 0xB19 JUMP JUMPDEST SWAP3 SWAP2 POP POP JUMP JUMPDEST PUSH0 DUP3 DUP3 MSTORE PUSH1 0x20 DUP3 ADD SWAP1 POP SWAP3 SWAP2 POP POP JUMP JUMPDEST PUSH32 0x496E76616C696420696E707574206C656E677468730000000000000000000000 PUSH0 DUP3 ADD MSTORE POP JUMP JUMPDEST PUSH0 PUSH2 0xB85 PUSH1 0x15 DUP4 PUSH2 0xB41 JUMP JUMPDEST SWAP2 POP PUSH2 0xB90 DUP3 PUSH2 0xB51 JUMP JUMPDEST PUSH1 0x20 DUP3 ADD SWAP1 POP SWAP2 SWAP1 POP JUMP JUMPDEST PUSH0 PUSH1 0x20 DUP3 ADD SWAP1 POP DUP2 DUP2 SUB PUSH0 DUP4 ADD MSTORE PUSH2 0xBB2 DUP2 PUSH2 0xB79 JUMP JUMPDEST SWAP1 POP SWAP2 SWAP1 POP JUMP JUMPDEST PUSH32 0x4E487B7100000000000000000000000000000000000000000000000000000000 PUSH0 MSTORE PUSH1 0x32 PUSH1 0x4 MSTORE PUSH1 0x24 PUSH0 REVERT JUMPDEST PUSH32 0x44656E6F6D696E6174696F6E2065786973747300000000000000000000000000 PUSH0 DUP3 ADD MSTORE POP JUMP JUMPDEST PUSH0 PUSH2 0xC1A PUSH1 0x13 DUP4 PUSH2 0xB41 JUMP JUMPDEST SWAP2 POP PUSH2 0xC25 DUP3 PUSH2 0xBE6 JUMP JUMPDEST PUSH1 0x20 DUP3 ADD SWAP1 POP SWAP2 SWAP1 POP JUMP JUMPDEST PUSH0 PUSH1 0x20 DUP3 ADD SWAP1 POP DUP2 DUP2 SUB PUSH0 DUP4 ADD MSTORE PUSH2 0xC47 DUP2 PUSH2 0xC0E JUMP JUMPDEST SWAP1 POP SWAP2 SWAP1 POP JUMP JUMPDEST PUSH32 0x456D707479204943206172726179000000000000000000000000000000000000 PUSH0 DUP3 ADD MSTORE POP JUMP JUMPDEST PUSH0 PUSH2 0xC82 PUSH1 0xE DUP4 PUSH2 0xB41 JUMP JUMPDEST SWAP2 POP PUSH2 0xC8D DUP3 PUSH2 0xC4E JUMP JUMPDEST PUSH1 0x20 DUP3 ADD SWAP1 POP SWAP2 SWAP1 POP JUMP JUMPDEST PUSH0 PUSH1 0x20 DUP3 ADD SWAP1 POP DUP2 DUP2 SUB PUSH0 DUP4 ADD MSTORE PUSH2 0xCAF DUP2 PUSH2 0xC76 JUMP JUMPDEST SWAP1 POP SWAP2 SWAP1 POP JUMP JUMPDEST PUSH2 0xCBF DUP2 PUSH2 0x637 JUMP JUMPDEST DUP3 MSTORE POP POP JUMP JUMPDEST PUSH0 PUSH1 0x20 DUP3 ADD SWAP1 POP PUSH2 0xCD8 PUSH0 DUP4 ADD DUP5 PUSH2 0xCB6 JUMP JUMPDEST SWAP3 SWAP2 POP POP JUMP JUMPDEST PUSH1 0x80 MLOAD PUSH2 0x2DFF PUSH2 0xCFD PUSH0 CODECOPY PUSH0 DUP2 DUP2 PUSH2 0xBFE ADD MSTORE PUSH2 0xCDC ADD MSTORE PUSH2 0x2DFF PUSH0 RETURN INVALID PUSH1 0x80 PUSH1 0x40 MSTORE CALLVALUE DUP1 ISZERO PUSH2 0xF JUMPI PUSH0 DUP1 REVERT JUMPDEST POP PUSH1 0x4 CALLDATASIZE LT PUSH2 0x135 JUMPI PUSH0 CALLDATALOAD PUSH1 0xE0 SHR DUP1 PUSH4 0x715018A6 GT PUSH2 0xB6 JUMPI DUP1 PUSH4 0xC66CD380 GT PUSH2 0x7A JUMPI DUP1 PUSH4 0xC66CD380 EQ PUSH2 0x34F JUMPI DUP1 PUSH4 0xD77D63ED EQ PUSH2 0x37F JUMPI DUP1 PUSH4 0xDC8FE0BD EQ PUSH2 0x3AF JUMPI DUP1 PUSH4 0xE70A7450 EQ PUSH2 0x3DF JUMPI DUP1 PUSH4 0xF2FDE38B EQ PUSH2 0x40F JUMPI DUP1 PUSH4 0xF3CE61AD EQ PUSH2 0x42B JUMPI PUSH2 0x135 JUMP JUMPDEST DUP1 PUSH4 0x715018A6 EQ PUSH2 0x2CF JUMPI DUP1 PUSH4 0x87511997 EQ PUSH2 0x2D9 JUMPI DUP1 PUSH4 0x8DA5CB5B EQ PUSH2 0x2F7 JUMPI DUP1 PUSH4 0x96E106EB EQ PUSH2 0x315 JUMPI DUP1 PUSH4 0xB208EAE8 EQ PUSH2 0x331 JUMPI PUSH2 0x135 JUMP JUMPDEST DUP1 PUSH4 0x414A37BA GT PUSH2 0xFD JUMPI DUP1 PUSH4 0x414A37BA EQ PUSH2 0x203 JUMPI DUP1 PUSH4 0x442F2DA6 EQ PUSH2 0x221 JUMPI DUP1 PUSH4 0x56DE61B5 EQ PUSH2 0x251 JUMPI DUP1 PUSH4 0x594EAC4A EQ PUSH2 0x281 JUMPI DUP1 PUSH4 0x5C975ABB EQ PUSH2 0x2B1 JUMPI PUSH2 0x135 JUMP JUMPDEST DUP1 PUSH4 0x15BF02E5 EQ PUSH2 0x139 JUMPI DUP1 PUSH4 0x176D80C4 EQ PUSH2 0x157 JUMPI DUP1 PUSH4 0x1B81F829 EQ PUSH2 0x187 JUMPI DUP1 PUSH4 0x2D0A90F5 EQ PUSH2 0x1B7 JUMPI DUP1 PUSH4 0x31437A5D EQ PUSH2 0x1E7 JUMPI JUMPDEST PUSH0 DUP1 REVERT JUMPDEST PUSH2 0x141 PUSH2 0x45B JUMP JUMPDEST PUSH1 0x40 MLOAD PUSH2 0x14E SWAP2 SWAP1 PUSH2 0x201B JUMP JUMPDEST PUSH1 0x40 MLOAD DUP1 SWAP2 SUB SWAP1 RETURN JUMPDEST PUSH2 0x171 PUSH1 0x4 DUP1 CALLDATASIZE SUB DUP2 ADD SWAP1 PUSH2 0x16C SWAP2 SWAP1 PUSH2 0x2078 JUMP JUMPDEST PUSH2 0x460 JUMP JUMPDEST PUSH1 0x40 MLOAD PUSH2 0x17E SWAP2 SWAP1 PUSH2 0x20BD JUMP JUMPDEST PUSH1 0x40 MLOAD DUP1 SWAP2 SUB SWAP1 RETURN JUMPDEST PUSH2 0x1A1 PUSH1 0x4 DUP1 CALLDATASIZE SUB DUP2 ADD SWAP1 PUSH2 0x19C SWAP2 SWAP1 PUSH2 0x211C JUMP JUMPDEST PUSH2 0x47D JUMP JUMPDEST PUSH1 0x40 MLOAD PUSH2 0x1AE SWAP2 SWAP1 PUSH2 0x20BD JUMP JUMPDEST PUSH1 0x40 MLOAD DUP1 SWAP2 SUB SWAP1 RETURN JUMPDEST PUSH2 0x1D1 PUSH1 0x4 DUP1 CALLDATASIZE SUB DUP2 ADD SWAP1 PUSH2 0x1CC SWAP2 SWAP1 PUSH2 0x2186 JUMP JUMPDEST PUSH2 0x710 JUMP JUMPDEST PUSH1 0x40 MLOAD PUSH2 0x1DE SWAP2 SWAP1 PUSH2 0x201B JUMP JUMPDEST PUSH1 0x40 MLOAD DUP1 SWAP2 SUB SWAP1 RETURN JUMPDEST PUSH2 0x201 PUSH1 0x4 DUP1 CALLDATASIZE SUB DUP2 ADD SWAP1 PUSH2 0x1FC SWAP2 SWAP1 PUSH2 0x2186 JUMP JUMPDEST PUSH2 0x729 JUMP JUMPDEST STOP JUMPDEST PUSH2 0x20B PUSH2 0x8C5 JUMP JUMPDEST PUSH1 0x40 MLOAD PUSH2 0x218 SWAP2 SWAP1 PUSH2 0x201B JUMP JUMPDEST PUSH1 0x40 MLOAD DUP1 SWAP2 SUB SWAP1 RETURN JUMPDEST PUSH2 0x23B PUSH1 0x4 DUP1 CALLDATASIZE SUB DUP2 ADD SWAP1 PUSH2 0x236 SWAP2 SWAP1 PUSH2 0x21B1 JUMP JUMPDEST PUSH2 0x8E9 JUMP JUMPDEST PUSH1 0x40 MLOAD PUSH2 0x248 SWAP2 SWAP1 PUSH2 0x201B JUMP JUMPDEST PUSH1 0x40 MLOAD DUP1 SWAP2 SUB SWAP1 RETURN JUMPDEST PUSH2 0x26B PUSH1 0x4 DUP1 CALLDATASIZE SUB DUP2 ADD SWAP1 PUSH2 0x266 SWAP2 SWAP1 PUSH2 0x22B3 JUMP JUMPDEST PUSH2 0x927 JUMP JUMPDEST PUSH1 0x40 MLOAD PUSH2 0x278 SWAP2 SWAP1 PUSH2 0x20BD JUMP JUMPDEST PUSH1 0x40 MLOAD DUP1 SWAP2 SUB SWAP1 RETURN JUMPDEST PUSH2 0x29B PUSH1 0x4 DUP1 CALLDATASIZE SUB DUP2 ADD SWAP1 PUSH2 0x296 SWAP2 SWAP1 PUSH2 0x2344 JUMP JUMPDEST PUSH2 0xBA9 JUMP JUMPDEST PUSH1 0x40 MLOAD PUSH2 0x2A8 SWAP2 SWAP1 PUSH2 0x201B JUMP JUMPDEST PUSH1 0x40 MLOAD DUP1 SWAP2 SUB SWAP1 RETURN JUMPDEST PUSH2 0x2B9 PUSH2 0xBD4 JUMP JUMPDEST PUSH1 0x40 MLOAD PUSH2 0x2C6 SWAP2 SWAP1 PUSH2 0x20BD JUMP JUMPDEST PUSH1 0x40 MLOAD DUP1 SWAP2 SUB SWAP1 RETURN JUMPDEST PUSH2 0x2D7 PUSH2 0xBE9 JUMP JUMPDEST STOP JUMPDEST PUSH2 0x2E1 PUSH2 0xBFC JUMP JUMPDEST PUSH1 0x40 MLOAD PUSH2 0x2EE SWAP2 SWAP1 PUSH2 0x2391 JUMP JUMPDEST PUSH1 0x40 MLOAD DUP1 SWAP2 SUB SWAP1 RETURN JUMPDEST PUSH2 0x2FF PUSH2 0xC20 JUMP JUMPDEST PUSH1 0x40 MLOAD PUSH2 0x30C SWAP2 SWAP1 PUSH2 0x23E9 JUMP JUMPDEST PUSH1 0x40 MLOAD DUP1 SWAP2 SUB SWAP1 RETURN JUMPDEST PUSH2 0x32F PUSH1 0x4 DUP1 CALLDATASIZE SUB DUP2 ADD SWAP1 PUSH2 0x32A SWAP2 SWAP1 PUSH2 0x2457 JUMP JUMPDEST PUSH2 0xC47 JUMP JUMPDEST STOP JUMPDEST PUSH2 0x339 PUSH2 0xCD9 JUMP JUMPDEST PUSH1 0x40 MLOAD PUSH2 0x346 SWAP2 SWAP1 PUSH2 0x2391 JUMP JUMPDEST PUSH1 0x40 MLOAD DUP1 SWAP2 SUB SWAP1 RETURN JUMPDEST PUSH2 0x369 PUSH1 0x4 DUP1 CALLDATASIZE SUB DUP2 ADD SWAP1 PUSH2 0x364 SWAP2 SWAP1 PUSH2 0x2186 JUMP JUMPDEST PUSH2 0xD00 JUMP JUMPDEST PUSH1 0x40 MLOAD PUSH2 0x376 SWAP2 SWAP1 PUSH2 0x201B JUMP JUMPDEST PUSH1 0x40 MLOAD DUP1 SWAP2 SUB SWAP1 RETURN JUMPDEST PUSH2 0x399 PUSH1 0x4 DUP1 CALLDATASIZE SUB DUP2 ADD SWAP1 PUSH2 0x394 SWAP2 SWAP1 PUSH2 0x2186 JUMP JUMPDEST PUSH2 0xD19 JUMP JUMPDEST PUSH1 0x40 MLOAD PUSH2 0x3A6 SWAP2 SWAP1 PUSH2 0x20BD JUMP JUMPDEST PUSH1 0x40 MLOAD DUP1 SWAP2 SUB SWAP1 RETURN JUMPDEST PUSH2 0x3C9 PUSH1 0x4 DUP1 CALLDATASIZE SUB DUP2 ADD SWAP1 PUSH2 0x3C4 SWAP2 SWAP1 PUSH2 0x2186 JUMP JUMPDEST PUSH2 0xD36 JUMP JUMPDEST PUSH1 0x40 MLOAD PUSH2 0x3D6 SWAP2 SWAP1 PUSH2 0x201B JUMP JUMPDEST PUSH1 0x40 MLOAD DUP1 SWAP2 SUB SWAP1 RETURN JUMPDEST PUSH2 0x3F9 PUSH1 0x4 DUP1 CALLDATASIZE SUB DUP2 ADD SWAP1 PUSH2 0x3F4 SWAP2 SWAP1 PUSH2 0x22B3 JUMP JUMPDEST PUSH2 0xD4F JUMP JUMPDEST PUSH1 0x40 MLOAD PUSH2 0x406 SWAP2 SWAP1 PUSH2 0x20BD JUMP JUMPDEST PUSH1 0x40 MLOAD DUP1 SWAP2 SUB SWAP1 RETURN JUMPDEST PUSH2 0x429 PUSH1 0x4 DUP1 CALLDATASIZE SUB DUP2 ADD SWAP1 PUSH2 0x424 SWAP2 SWAP1 PUSH2 0x24DE JUMP JUMPDEST PUSH2 0xF42 JUMP JUMPDEST STOP JUMPDEST PUSH2 0x445 PUSH1 0x4 DUP1 CALLDATASIZE SUB DUP2 ADD SWAP1 PUSH2 0x440 SWAP2 SWAP1 PUSH2 0x2186 JUMP JUMPDEST PUSH2 0xFC6 JUMP JUMPDEST PUSH1 0x40 MLOAD PUSH2 0x452 SWAP2 SWAP1 PUSH2 0x201B JUMP JUMPDEST PUSH1 0x40 MLOAD DUP1 SWAP2 SUB SWAP1 RETURN JUMPDEST PUSH1 0xA DUP2 JUMP JUMPDEST PUSH1 0xE PUSH1 0x20 MSTORE DUP1 PUSH0 MSTORE PUSH1 0x40 PUSH0 KECCAK256 PUSH0 SWAP2 POP SLOAD SWAP1 PUSH2 0x100 EXP SWAP1 DIV PUSH1 0xFF AND DUP2 JUMP JUMPDEST PUSH0 PUSH2 0x486 PUSH2 0xFE6 JUMP JUMPDEST PUSH0 PUSH1 0x1 PUSH8 0xFFFFFFFFFFFFFFFF DUP2 GT ISZERO PUSH2 0x4A2 JUMPI PUSH2 0x4A1 PUSH2 0x2509 JUMP JUMPDEST JUMPDEST PUSH1 0x40 MLOAD SWAP1 DUP1 DUP3 MSTORE DUP1 PUSH1 0x20 MUL PUSH1 0x20 ADD DUP3 ADD PUSH1 0x40 MSTORE DUP1 ISZERO PUSH2 0x4D0 JUMPI DUP2 PUSH1 0x20 ADD PUSH1 0x20 DUP3 MUL DUP1 CALLDATASIZE DUP4 CALLDATACOPY DUP1 DUP3 ADD SWAP2 POP POP SWAP1 POP JUMPDEST POP SWAP1 POP DUP3 PUSH0 PUSH1 0x1 DUP2 LT PUSH2 0x4E6 JUMPI PUSH2 0x4E5 PUSH2 0x2536 JUMP JUMPDEST JUMPDEST PUSH1 0x20 MUL ADD CALLDATALOAD DUP2 PUSH0 DUP2 MLOAD DUP2 LT PUSH2 0x4FE JUMPI PUSH2 0x4FD PUSH2 0x2536 JUMP JUMPDEST JUMPDEST PUSH1 0x20 MUL PUSH1 0x20 ADD ADD DUP2 DUP2 MSTORE POP POP PUSH0 PUSH1 0x40 MLOAD DUP1 PUSH1 0x60 ADD PUSH1 0x40 MSTORE DUP1 PUSH1 0x40 MLOAD DUP1 PUSH1 0x40 ADD PUSH1 0x40 MSTORE DUP1 DUP9 PUSH0 PUSH1 0x8 DUP2 LT PUSH2 0x534 JUMPI PUSH2 0x533 PUSH2 0x2536 JUMP JUMPDEST JUMPDEST PUSH1 0x20 MUL ADD CALLDATALOAD DUP2 MSTORE PUSH1 0x20 ADD DUP9 PUSH1 0x1 PUSH1 0x8 DUP2 LT PUSH2 0x552 JUMPI PUSH2 0x551 PUSH2 0x2536 JUMP JUMPDEST JUMPDEST PUSH1 0x20 MUL ADD CALLDATALOAD DUP2 MSTORE POP DUP2 MSTORE PUSH1 0x20 ADD PUSH1 0x40 MLOAD DUP1 PUSH1 0x40 ADD PUSH1 0x40 MSTORE DUP1 PUSH1 0x40 MLOAD DUP1 PUSH1 0x40 ADD PUSH1 0x40 MSTORE DUP1 DUP11 PUSH1 0x2 PUSH1 0x8 DUP2 LT PUSH2 0x589 JUMPI PUSH2 0x588 PUSH2 0x2536 JUMP JUMPDEST JUMPDEST PUSH1 0x20 MUL ADD CALLDATALOAD DUP2 MSTORE PUSH1 0x20 ADD DUP11 PUSH1 0x3 PUSH1 0x8 DUP2 LT PUSH2 0x5A7 JUMPI PUSH2 0x5A6 PUSH2 0x2536 JUMP JUMPDEST JUMPDEST PUSH1 0x20 MUL ADD CALLDATALOAD DUP2 MSTORE POP DUP2 MSTORE PUSH1 0x20 ADD PUSH1 0x40 MLOAD DUP1 PUSH1 0x40 ADD PUSH1 0x40 MSTORE DUP1 DUP11 PUSH1 0x4 PUSH1 0x8 DUP2 LT PUSH2 0x5D3 JUMPI PUSH2 0x5D2 PUSH2 0x2536 JUMP JUMPDEST JUMPDEST PUSH1 0x20 MUL ADD CALLDATALOAD DUP2 MSTORE PUSH1 0x20 ADD DUP11 PUSH1 0x5 PUSH1 0x8 DUP2 LT PUSH2 0x5F1 JUMPI PUSH2 0x5F0 PUSH2 0x2536 JUMP JUMPDEST JUMPDEST PUSH1 0x20 MUL ADD CALLDATALOAD DUP2 MSTORE POP DUP2 MSTORE POP DUP2 MSTORE PUSH1 0x20 ADD PUSH1 0x40 MLOAD DUP1 PUSH1 0x40 ADD PUSH1 0x40 MSTORE DUP1 DUP9 PUSH1 0x6 PUSH1 0x8 DUP2 LT PUSH2 0x620 JUMPI PUSH2 0x61F PUSH2 0x2536 JUMP JUMPDEST JUMPDEST PUSH1 0x20 MUL ADD CALLDATALOAD DUP2 MSTORE PUSH1 0x20 ADD DUP9 PUSH1 0x7 PUSH1 0x8 DUP2 LT PUSH2 0x63E JUMPI PUSH2 0x63D PUSH2 0x2536 JUMP JUMPDEST JUMPDEST PUSH1 0x20 MUL ADD CALLDATALOAD DUP2 MSTORE POP DUP2 MSTORE POP SWAP1 POP PUSH2 0x706 DUP2 DUP4 PUSH1 0xD PUSH0 PUSH1 0x10 PUSH0 DUP2 SLOAD DUP2 LT PUSH2 0x667 JUMPI PUSH2 0x666 PUSH2 0x2536 JUMP JUMPDEST JUMPDEST SWAP1 PUSH0 MSTORE PUSH1 0x20 PUSH0 KECCAK256 ADD SLOAD DUP2 MSTORE PUSH1 0x20 ADD SWAP1 DUP2 MSTORE PUSH1 0x20 ADD PUSH0 KECCAK256 DUP1 SLOAD DUP1 PUSH1 0x20 MUL PUSH1 0x20 ADD PUSH1 0x40 MLOAD SWAP1 DUP2 ADD PUSH1 0x40 MSTORE DUP1 SWAP3 SWAP2 SWAP1 DUP2 DUP2 MSTORE PUSH1 0x20 ADD PUSH0 SWAP1 JUMPDEST DUP3 DUP3 LT ISZERO PUSH2 0x6FD JUMPI DUP4 DUP3 SWAP1 PUSH0 MSTORE PUSH1 0x20 PUSH0 KECCAK256 SWAP1 PUSH1 0x2 MUL ADD PUSH1 0x2 DUP1 PUSH1 0x20 MUL PUSH1 0x40 MLOAD SWAP1 DUP2 ADD PUSH1 0x40 MSTORE DUP1 SWAP3 SWAP2 SWAP1 DUP3 PUSH1 0x2 DUP1 ISZERO PUSH2 0x6E9 JUMPI PUSH1 0x20 MUL DUP3 ADD SWAP2 JUMPDEST DUP2 SLOAD DUP2 MSTORE PUSH1 0x20 ADD SWAP1 PUSH1 0x1 ADD SWAP1 DUP1 DUP4 GT PUSH2 0x6D5 JUMPI JUMPDEST POP POP POP POP POP DUP2 MSTORE PUSH1 0x20 ADD SWAP1 PUSH1 0x1 ADD SWAP1 PUSH2 0x69C JUMP JUMPDEST POP POP POP POP PUSH2 0x1027 JUMP JUMPDEST SWAP3 POP POP POP SWAP3 SWAP2 POP POP JUMP JUMPDEST PUSH1 0x9 DUP2 PUSH1 0x2 DUP2 LT PUSH2 0x71F JUMPI PUSH0 DUP1 REVERT JUMPDEST ADD PUSH0 SWAP2 POP SWAP1 POP SLOAD DUP2 JUMP JUMPDEST PUSH2 0x731 PUSH2 0x11C8 JUMP JUMPDEST PUSH1 0xF PUSH0 DUP3 DUP2 MSTORE PUSH1 0x20 ADD SWAP1 DUP2 MSTORE PUSH1 0x20 ADD PUSH0 KECCAK256 PUSH0 SWAP1 SLOAD SWAP1 PUSH2 0x100 EXP SWAP1 DIV PUSH1 0xFF AND PUSH2 0x78E JUMPI PUSH1 0x40 MLOAD PUSH32 0x8C379A000000000000000000000000000000000000000000000000000000000 DUP2 MSTORE PUSH1 0x4 ADD PUSH2 0x785 SWAP1 PUSH2 0x25BD JUMP JUMPDEST PUSH1 0x40 MLOAD DUP1 SWAP2 SUB SWAP1 REVERT JUMPDEST PUSH0 PUSH1 0xF PUSH0 DUP4 DUP2 MSTORE PUSH1 0x20 ADD SWAP1 DUP2 MSTORE PUSH1 0x20 ADD PUSH0 KECCAK256 PUSH0 PUSH2 0x100 EXP DUP2 SLOAD DUP2 PUSH1 0xFF MUL NOT AND SWAP1 DUP4 ISZERO ISZERO MUL OR SWAP1 SSTORE POP PUSH1 0xD PUSH0 DUP3 DUP2 MSTORE PUSH1 0x20 ADD SWAP1 DUP2 MSTORE PUSH1 0x20 ADD PUSH0 KECCAK256 PUSH0 PUSH2 0x7D2 SWAP2 SWAP1 PUSH2 0x1EAD JUMP JUMPDEST PUSH0 JUMPDEST PUSH1 0x10 DUP1 SLOAD SWAP1 POP DUP2 LT ISZERO PUSH2 0x889 JUMPI DUP2 PUSH1 0x10 DUP3 DUP2 SLOAD DUP2 LT PUSH2 0x7F6 JUMPI PUSH2 0x7F5 PUSH2 0x2536 JUMP JUMPDEST JUMPDEST SWAP1 PUSH0 MSTORE PUSH1 0x20 PUSH0 KECCAK256 ADD SLOAD SUB PUSH2 0x87C JUMPI PUSH1 0x10 PUSH1 0x1 PUSH1 0x10 DUP1 SLOAD SWAP1 POP PUSH2 0x818 SWAP2 SWAP1 PUSH2 0x2608 JUMP JUMPDEST DUP2 SLOAD DUP2 LT PUSH2 0x829 JUMPI PUSH2 0x828 PUSH2 0x2536 JUMP JUMPDEST JUMPDEST SWAP1 PUSH0 MSTORE PUSH1 0x20 PUSH0 KECCAK256 ADD SLOAD PUSH1 0x10 DUP3 DUP2 SLOAD DUP2 LT PUSH2 0x846 JUMPI PUSH2 0x845 PUSH2 0x2536 JUMP JUMPDEST JUMPDEST SWAP1 PUSH0 MSTORE PUSH1 0x20 PUSH0 KECCAK256 ADD DUP2 SWAP1 SSTORE POP PUSH1 0x10 DUP1 SLOAD DUP1 PUSH2 0x864 JUMPI PUSH2 0x863 PUSH2 0x263B JUMP JUMPDEST JUMPDEST PUSH1 0x1 SWAP1 SUB DUP2 DUP2 SWAP1 PUSH0 MSTORE PUSH1 0x20 PUSH0 KECCAK256 ADD PUSH0 SWAP1 SSTORE SWAP1 SSTORE PUSH2 0x889 JUMP JUMPDEST DUP1 DUP1 PUSH1 0x1 ADD SWAP2 POP POP PUSH2 0x7D4 JUMP JUMPDEST POP DUP1 PUSH32 0x37EB657934D587BE188BEE7EC9363315171A630B765283C28201EE84E963CBD5 TIMESTAMP PUSH1 0x40 MLOAD PUSH2 0x8BA SWAP2 SWAP1 PUSH2 0x201B JUMP JUMPDEST PUSH1 0x40 MLOAD DUP1 SWAP2 SUB SWAP1 LOG2 POP JUMP JUMPDEST PUSH32 0x30644E72E131A029B85045B68181585D2833E84879B9709143E1F593F0000001 DUP2 JUMP JUMPDEST PUSH1 0xD PUSH1 0x20 MSTORE DUP3 PUSH0 MSTORE PUSH1 0x40 PUSH0 KECCAK256 DUP3 DUP2 SLOAD DUP2 LT PUSH2 0x902 JUMPI PUSH0 DUP1 REVERT JUMPDEST SWAP1 PUSH0 MSTORE PUSH1 0x20 PUSH0 KECCAK256 SWAP1 PUSH1 0x2 MUL ADD DUP2 PUSH1 0x2 DUP2 LT PUSH2 0x91B JUMPI PUSH0 DUP1 REVERT JUMPDEST ADD PUSH0 SWAP3 POP SWAP3 POP POP POP SLOAD DUP2 JUMP JUMPDEST PUSH0 PUSH2 0x930 PUSH2 0xFE6 JUMP JUMPDEST PUSH1 0xF PUSH0 DUP4 DUP2 MSTORE PUSH1 0x20 ADD SWAP1 DUP2 MSTORE PUSH1 0x20 ADD PUSH0 KECCAK256 PUSH0 SWAP1 SLOAD SWAP1 PUSH2 0x100 EXP SWAP1 DIV PUSH1 0xFF AND PUSH2 0x98D JUMPI PUSH1 0x40 MLOAD PUSH32 0x8C379A000000000000000000000000000000000000000000000000000000000 DUP2 MSTORE PUSH1 0x4 ADD PUSH2 0x984 SWAP1 PUSH2 0x26B2 JUMP JUMPDEST PUSH1 0x40 MLOAD DUP1 SWAP2 SUB SWAP1 REVERT JUMPDEST PUSH1 0xA DUP5 DUP5 SWAP1 POP GT ISZERO PUSH2 0x9D4 JUMPI PUSH1 0x40 MLOAD PUSH32 0x8C379A000000000000000000000000000000000000000000000000000000000 DUP2 MSTORE PUSH1 0x4 ADD PUSH2 0x9CB SWAP1 PUSH2 0x271A JUMP JUMPDEST PUSH1 0x40 MLOAD DUP1 SWAP2 SUB SWAP1 REVERT JUMPDEST PUSH0 DUP7 DUP7 DUP2 ADD SWAP1 PUSH2 0x9E4 SWAP2 SWAP1 PUSH2 0x2955 JUMP JUMPDEST SWAP1 POP PUSH2 0xA2F DUP6 DUP6 DUP1 DUP1 PUSH1 0x20 MUL PUSH1 0x20 ADD PUSH1 0x40 MLOAD SWAP1 DUP2 ADD PUSH1 0x40 MSTORE DUP1 SWAP4 SWAP3 SWAP2 SWAP1 DUP2 DUP2 MSTORE PUSH1 0x20 ADD DUP4 DUP4 PUSH1 0x20 MUL DUP1 DUP3 DUP5 CALLDATACOPY PUSH0 DUP2 DUP5 ADD MSTORE PUSH1 0x1F NOT PUSH1 0x1F DUP3 ADD AND SWAP1 POP DUP1 DUP4 ADD SWAP3 POP POP POP POP POP POP POP PUSH2 0x124F JUMP JUMPDEST PUSH0 DUP8 DUP8 DUP8 DUP8 PUSH1 0x40 MLOAD PUSH1 0x20 ADD PUSH2 0xA47 SWAP5 SWAP4 SWAP3 SWAP2 SWAP1 PUSH2 0x2A2F JUMP JUMPDEST PUSH1 0x40 MLOAD PUSH1 0x20 DUP2 DUP4 SUB SUB DUP2 MSTORE SWAP1 PUSH1 0x40 MSTORE DUP1 MLOAD SWAP1 PUSH1 0x20 ADD KECCAK256 SWAP1 POP PUSH1 0xE PUSH0 DUP3 DUP2 MSTORE PUSH1 0x20 ADD SWAP1 DUP2 MSTORE PUSH1 0x20 ADD PUSH0 KECCAK256 PUSH0 SWAP1 SLOAD SWAP1 PUSH2 0x100 EXP SWAP1 DIV PUSH1 0xFF AND ISZERO PUSH2 0xABD JUMPI PUSH1 0x40 MLOAD PUSH32 0x8C379A000000000000000000000000000000000000000000000000000000000 DUP2 MSTORE PUSH1 0x4 ADD PUSH2 0xAB4 SWAP1 PUSH2 0x2AA0 JUMP JUMPDEST PUSH1 0x40 MLOAD DUP1 SWAP2 SUB SWAP1 REVERT JUMPDEST PUSH2 0xB9C DUP3 DUP8 DUP8 DUP1 DUP1 PUSH1 0x20 MUL PUSH1 0x20 ADD PUSH1 0x40 MLOAD SWAP1 DUP2 ADD PUSH1 0x40 MSTORE DUP1 SWAP4 SWAP3 SWAP2 SWAP1 DUP2 DUP2 MSTORE PUSH1 0x20 ADD DUP4 DUP4 PUSH1 0x20 MUL DUP1 DUP3 DUP5 CALLDATACOPY PUSH0 DUP2 DUP5 ADD MSTORE PUSH1 0x1F NOT PUSH1 0x1F DUP3 ADD AND SWAP1 POP DUP1 DUP4 ADD SWAP3 POP POP POP POP POP POP POP PUSH1 0xD PUSH0 DUP9 DUP2 MSTORE PUSH1 0x20 ADD SWAP1 DUP2 MSTORE PUSH1 0x20 ADD PUSH0 KECCAK256 DUP1 SLOAD DUP1 PUSH1 0x20 MUL PUSH1 0x20 ADD PUSH1 0x40 MLOAD SWAP1 DUP2 ADD PUSH1 0x40 MSTORE DUP1 SWAP3 SWAP2 SWAP1 DUP2 DUP2 MSTORE PUSH1 0x20 ADD PUSH0 SWAP1 JUMPDEST DUP3 DUP3 LT ISZERO PUSH2 0xB93 JUMPI DUP4 DUP3 SWAP1 PUSH0 MSTORE PUSH1 0x20 PUSH0 KECCAK256 SWAP1 PUSH1 0x2 MUL ADD PUSH1 0x2 DUP1 PUSH1 0x20 MUL PUSH1 0x40 MLOAD SWAP1 DUP2 ADD PUSH1 0x40 MSTORE DUP1 SWAP3 SWAP2 SWAP1 DUP3 PUSH1 0x2 DUP1 ISZERO PUSH2 0xB7F JUMPI PUSH1 0x20 MUL DUP3 ADD SWAP2 JUMPDEST DUP2 SLOAD DUP2 MSTORE PUSH1 0x20 ADD SWAP1 PUSH1 0x1 ADD SWAP1 DUP1 DUP4 GT PUSH2 0xB6B JUMPI JUMPDEST POP POP POP POP POP DUP2 MSTORE PUSH1 0x20 ADD SWAP1 PUSH1 0x1 ADD SWAP1 PUSH2 0xB32 JUMP JUMPDEST POP POP POP POP PUSH2 0x1027 JUMP JUMPDEST SWAP3 POP POP POP SWAP6 SWAP5 POP POP POP POP POP JUMP JUMPDEST PUSH1 0x5 DUP3 PUSH1 0x2 DUP2 LT PUSH2 0xBB8 JUMPI PUSH0 DUP1 REVERT JUMPDEST PUSH1 0x2 MUL ADD DUP2 PUSH1 0x2 DUP2 LT PUSH2 0xBC9 JUMPI PUSH0 DUP1 REVERT JUMPDEST ADD PUSH0 SWAP2 POP SWAP2 POP POP SLOAD DUP2 JUMP JUMPDEST PUSH0 PUSH1 0x2 PUSH0 SWAP1 SLOAD SWAP1 PUSH2 0x100 EXP SWAP1 DIV PUSH1 0xFF AND SWAP1 POP SWAP1 JUMP JUMPDEST PUSH2 0xBF1 PUSH2 0x11C8 JUMP JUMPDEST PUSH2 0xBFA PUSH0 PUSH2 0x12E7 JUMP JUMPDEST JUMP JUMPDEST PUSH32 0x0 DUP2 JUMP JUMPDEST PUSH0 DUP1 PUSH0 SWAP1 SLOAD SWAP1 PUSH2 0x100 EXP SWAP1 DIV PUSH20 0xFFFFFFFFFFFFFFFFFFFFFFFFFFFFFFFFFFFFFFFF AND SWAP1 POP SWAP1 JUMP JUMPDEST PUSH2 0xC4F PUSH2 0x11C8 JUMP JUMPDEST PUSH2 0xCD4 DUP4 DUP4 DUP4 DUP1 DUP1 PUSH1 0x20 MUL PUSH1 0x20 ADD PUSH1 0x40 MLOAD SWAP1 DUP2 ADD PUSH1 0x40 MSTORE DUP1 SWAP4 SWAP3 SWAP2 SWAP1 DUP2 DUP2 MSTORE PUSH1 0x20 ADD PUSH0 SWAP1 JUMPDEST DUP3 DUP3 LT ISZERO PUSH2 0xCCA JUMPI DUP5 DUP5 DUP4 SWAP1 POP PUSH1 0x40 MUL ADD PUSH1 0x2 DUP1 PUSH1 0x20 MUL PUSH1 0x40 MLOAD SWAP1 DUP2 ADD PUSH1 0x40 MSTORE DUP1 SWAP3 SWAP2 SWAP1 DUP3 PUSH1 0x2 PUSH1 0x20 MUL DUP1 DUP3 DUP5 CALLDATACOPY PUSH0 DUP2 DUP5 ADD MSTORE PUSH1 0x1F NOT PUSH1 0x1F DUP3 ADD AND SWAP1 POP DUP1 DUP4 ADD SWAP3 POP POP POP POP POP POP DUP2 MSTORE PUSH1 0x20 ADD SWAP1 PUSH1 0x1 ADD SWAP1 PUSH2 0xC74 JUMP JUMPDEST POP POP POP POP POP PUSH2 0x13A8 JUMP JUMPDEST POP POP POP JUMP JUMPDEST PUSH0 PUSH32 0x0 SWAP1 POP SWAP1 JUMP JUMPDEST PUSH1 0xB DUP2 PUSH1 0x2 DUP2 LT PUSH2 0xD0F JUMPI PUSH0 DUP1 REVERT JUMPDEST ADD PUSH0 SWAP2 POP SWAP1 POP SLOAD DUP2 JUMP JUMPDEST PUSH1 0xF PUSH1 0x20 MSTORE DUP1 PUSH0 MSTORE PUSH1 0x40 PUSH0 KECCAK256 PUSH0 SWAP2 POP SLOAD SWAP1 PUSH2 0x100 EXP SWAP1 DIV PUSH1 0xFF AND DUP2 JUMP JUMPDEST PUSH1 0x3 DUP2 PUSH1 0x2 DUP2 LT PUSH2 0xD45 JUMPI PUSH0 DUP1 REVERT JUMPDEST ADD PUSH0 SWAP2 POP SWAP1 POP SLOAD DUP2 JUMP JUMPDEST PUSH0 PUSH2 0xD58 PUSH2 0xFE6 JUMP JUMPDEST PUSH1 0xF PUSH0 DUP4 DUP2 MSTORE PUSH1 0x20 ADD SWAP1 DUP2 MSTORE PUSH1 0x20 ADD PUSH0 KECCAK256 PUSH0 SWAP1 SLOAD SWAP1 PUSH2 0x100 EXP SWAP1 DIV PUSH1 0xFF AND PUSH2 0xDB5 JUMPI PUSH1 0x40 MLOAD PUSH32 0x8C379A000000000000000000000000000000000000000000000000000000000 DUP2 MSTORE PUSH1 0x4 ADD PUSH2 0xDAC SWAP1 PUSH2 0x26B2 JUMP JUMPDEST PUSH1 0x40 MLOAD DUP1 SWAP2 SUB SWAP1 REVERT JUMPDEST PUSH1 0xA DUP5 DUP5 SWAP1 POP GT ISZERO PUSH2 0xDFC JUMPI PUSH1 0x40 MLOAD PUSH32 0x8C379A000000000000000000000000000000000000000000000000000000000 DUP2 MSTORE PUSH1 0x4 ADD PUSH2 0xDF3 SWAP1 PUSH2 0x271A JUMP JUMPDEST PUSH1 0x40 MLOAD DUP1 SWAP2 SUB SWAP1 REVERT JUMPDEST PUSH0 DUP7 DUP7 DUP2 ADD SWAP1 PUSH2 0xE0C SWAP2 SWAP1 PUSH2 0x2955 JUMP JUMPDEST SWAP1 POP PUSH2 0xE57 DUP6 DUP6 DUP1 DUP1 PUSH1 0x20 MUL PUSH1 0x20 ADD PUSH1 0x40 MLOAD SWAP1 DUP2 ADD PUSH1 0x40 MSTORE DUP1 SWAP4 SWAP3 SWAP2 SWAP1 DUP2 DUP2 MSTORE PUSH1 0x20 ADD DUP4 DUP4 PUSH1 0x20 MUL DUP1 DUP3 DUP5 CALLDATACOPY PUSH0 DUP2 DUP5 ADD MSTORE PUSH1 0x1F NOT PUSH1 0x1F DUP3 ADD AND SWAP1 POP DUP1 DUP4 ADD SWAP3 POP POP POP POP POP POP POP PUSH2 0x124F JUMP JUMPDEST PUSH2 0xF36 DUP2 DUP7 DUP7 DUP1 DUP1 PUSH1 0x20 MUL PUSH1 0x20 ADD PUSH1 0x40 MLOAD SWAP1 DUP2 ADD PUSH1 0x40 MSTORE DUP1 SWAP4 SWAP3 SWAP2 SWAP1 DUP2 DUP2 MSTORE PUSH1 0x20 ADD DUP4 DUP4 PUSH1 0x20 MUL DUP1 DUP3 DUP5 CALLDATACOPY PUSH0 DUP2 DUP5 ADD MSTORE PUSH1 0x1F NOT PUSH1 0x1F DUP3 ADD AND SWAP1 POP DUP1 DUP4 ADD SWAP3 POP POP POP POP POP POP POP PUSH1 0xD PUSH0 DUP8 DUP2 MSTORE PUSH1 0x20 ADD SWAP1 DUP2 MSTORE PUSH1 0x20 ADD PUSH0 KECCAK256 DUP1 SLOAD DUP1 PUSH1 0x20 MUL PUSH1 0x20 ADD PUSH1 0x40 MLOAD SWAP1 DUP2 ADD PUSH1 0x40 MSTORE DUP1 SWAP3 SWAP2 SWAP1 DUP2 DUP2 MSTORE PUSH1 0x20 ADD PUSH0 SWAP1 JUMPDEST DUP3 DUP3 LT ISZERO PUSH2 0xF2D JUMPI DUP4 DUP3 SWAP1 PUSH0 MSTORE PUSH1 0x20 PUSH0 KECCAK256 SWAP1 PUSH1 0x2 MUL ADD PUSH1 0x2 DUP1 PUSH1 0x20 MUL PUSH1 0x40 MLOAD SWAP1 DUP2 ADD PUSH1 0x40 MSTORE DUP1 SWAP3 SWAP2 SWAP1 DUP3 PUSH1 0x2 DUP1 ISZERO PUSH2 0xF19 JUMPI PUSH1 0x20 MUL DUP3 ADD SWAP2 JUMPDEST DUP2 SLOAD DUP2 MSTORE PUSH1 0x20 ADD SWAP1 PUSH1 0x1 ADD SWAP1 DUP1 DUP4 GT PUSH2 0xF05 JUMPI JUMPDEST POP POP POP POP POP DUP2 MSTORE PUSH1 0x20 ADD SWAP1 PUSH1 0x1 ADD SWAP1 PUSH2 0xECC JUMP JUMPDEST POP POP POP POP PUSH2 0x1027 JUMP JUMPDEST SWAP2 POP POP SWAP6 SWAP5 POP POP POP POP POP JUMP JUMPDEST PUSH2 0xF4A PUSH2 0x11C8 JUMP JUMPDEST PUSH0 PUSH20 0xFFFFFFFFFFFFFFFFFFFFFFFFFFFFFFFFFFFFFFFF AND DUP2 PUSH20 0xFFFFFFFFFFFFFFFFFFFFFFFFFFFFFFFFFFFFFFFF AND SUB PUSH2 0xFBA JUMPI PUSH0 PUSH1 0x40 MLOAD PUSH32 0x1E4FBDF700000000000000000000000000000000000000000000000000000000 DUP2 MSTORE PUSH1 0x4 ADD PUSH2 0xFB1 SWAP2 SWAP1 PUSH2 0x23E9 JUMP JUMPDEST PUSH1 0x40 MLOAD DUP1 SWAP2 SUB SWAP1 REVERT JUMPDEST PUSH2 0xFC3 DUP2 PUSH2 0x12E7 JUMP JUMPDEST POP JUMP JUMPDEST PUSH1 0x10 DUP2 DUP2 SLOAD DUP2 LT PUSH2 0xFD5 JUMPI PUSH0 DUP1 REVERT JUMPDEST SWAP1 PUSH0 MSTORE PUSH1 0x20 PUSH0 KECCAK256 ADD PUSH0 SWAP2 POP SWAP1 POP SLOAD DUP2 JUMP JUMPDEST PUSH2 0xFEE PUSH2 0xBD4 JUMP JUMPDEST ISZERO PUSH2 0x1025 JUMPI PUSH1 0x40 MLOAD PUSH32 0xD93C066500000000000000000000000000000000000000000000000000000000 DUP2 MSTORE PUSH1 0x4 ADD PUSH1 0x40 MLOAD DUP1 SWAP2 SUB SWAP1 REVERT JUMPDEST JUMP JUMPDEST PUSH0 DUP2 MLOAD PUSH1 0x1 DUP5 MLOAD PUSH2 0x1038 SWAP2 SWAP1 PUSH2 0x2ABE JUMP JUMPDEST EQ PUSH2 0x1078 JUMPI PUSH1 0x40 MLOAD PUSH32 0x8C379A000000000000000000000000000000000000000000000000000000000 DUP2 MSTORE PUSH1 0x4 ADD PUSH2 0x106F SWAP1 PUSH2 0x2B3B JUMP JUMPDEST PUSH1 0x40 MLOAD DUP1 SWAP2 SUB SWAP1 REVERT JUMPDEST PUSH0 PUSH2 0x1083 DUP5 DUP5 PUSH2 0x154E JUMP JUMPDEST SWAP1 POP PUSH2 0x11BE DUP6 DUP3 PUSH1 0x3 PUSH1 0x2 DUP1 PUSH1 0x20 MUL PUSH1 0x40 MLOAD SWAP1 DUP2 ADD PUSH1 0x40 MSTORE DUP1 SWAP3 SWAP2 SWAP1 DUP3 PUSH1 0x2 DUP1 ISZERO PUSH2 0x10C3 JUMPI PUSH1 0x20 MUL DUP3 ADD SWAP2 JUMPDEST DUP2 SLOAD DUP2 MSTORE PUSH1 0x20 ADD SWAP1 PUSH1 0x1 ADD SWAP1 DUP1 DUP4 GT PUSH2 0x10AF JUMPI JUMPDEST POP POP POP POP POP PUSH1 0x5 PUSH1 0x2 DUP1 PUSH1 0x20 MUL PUSH1 0x40 MLOAD SWAP1 DUP2 ADD PUSH1 0x40 MSTORE DUP1 SWAP3 SWAP2 SWAP1 PUSH0 SWAP1 JUMPDEST DUP3 DUP3 LT ISZERO PUSH2 0x1139 JUMPI DUP4 DUP3 PUSH1 0x2 MUL ADD PUSH1 0x2 DUP1 PUSH1 0x20 MUL PUSH1 0x40 MLOAD SWAP1 DUP2 ADD PUSH1 0x40 MSTORE DUP1 SWAP3 SWAP2 SWAP1 DUP3 PUSH1 0x2 DUP1 ISZERO PUSH2 0x1125 JUMPI PUSH1 0x20 MUL DUP3 ADD SWAP2 JUMPDEST DUP2 SLOAD DUP2 MSTORE PUSH1 0x20 ADD SWAP1 PUSH1 0x1 ADD SWAP1 DUP1 DUP4 GT PUSH2 0x1111 JUMPI JUMPDEST POP POP POP POP POP DUP2 MSTORE PUSH1 0x20 ADD SWAP1 PUSH1 0x1 ADD SWAP1 PUSH2 0x10E0 JUMP JUMPDEST POP POP POP POP PUSH1 0x9 PUSH1 0x2 DUP1 PUSH1 0x20 MUL PUSH1 0x40 MLOAD SWAP1 DUP2 ADD PUSH1 0x40 MSTORE DUP1 SWAP3 SWAP2 SWAP1 DUP3 PUSH1 0x2 DUP1 ISZERO PUSH2 0x1176 JUMPI PUSH1 0x20 MUL DUP3 ADD SWAP2 JUMPDEST DUP2 SLOAD DUP2 MSTORE PUSH1 0x20 ADD SWAP1 PUSH1 0x1 ADD SWAP1 DUP1 DUP4 GT PUSH2 0x1162 JUMPI JUMPDEST POP POP POP POP POP PUSH1 0xB PUSH1 0x2 DUP1 PUSH1 0x20 MUL PUSH1 0x40 MLOAD SWAP1 DUP2 ADD PUSH1 0x40 MSTORE DUP1 SWAP3 SWAP2 SWAP1 DUP3 PUSH1 0x2 DUP1 ISZERO PUSH2 0x11B4 JUMPI PUSH1 0x20 MUL DUP3 ADD SWAP2 JUMPDEST DUP2 SLOAD DUP2 MSTORE PUSH1 0x20 ADD SWAP1 PUSH1 0x1 ADD SWAP1 DUP1 DUP4 GT PUSH2 0x11A0 JUMPI JUMPDEST POP POP POP POP POP PUSH2 0x16D9 JUMP JUMPDEST SWAP2 POP POP SWAP4 SWAP3 POP POP POP JUMP JUMPDEST PUSH2 0x11D0 PUSH2 0x1C69 JUMP JUMPDEST PUSH20 0xFFFFFFFFFFFFFFFFFFFFFFFFFFFFFFFFFFFFFFFF AND PUSH2 0x11EE PUSH2 0xC20 JUMP JUMPDEST PUSH20 0xFFFFFFFFFFFFFFFFFFFFFFFFFFFFFFFFFFFFFFFF AND EQ PUSH2 0x124D JUMPI PUSH2 0x1211 PUSH2 0x1C69 JUMP JUMPDEST PUSH1 0x40 MLOAD PUSH32 0x118CDAA700000000000000000000000000000000000000000000000000000000 DUP2 MSTORE PUSH1 0x4 ADD PUSH2 0x1244 SWAP2 SWAP1 PUSH2 0x23E9 JUMP JUMPDEST PUSH1 0x40 MLOAD DUP1 SWAP2 SUB SWAP1 REVERT JUMPDEST JUMP JUMPDEST PUSH0 JUMPDEST DUP2 MLOAD DUP2 LT ISZERO PUSH2 0x12E3 JUMPI PUSH32 0x30644E72E131A029B85045B68181585D2833E84879B9709143E1F593F0000001 DUP3 DUP3 DUP2 MLOAD DUP2 LT PUSH2 0x128E JUMPI PUSH2 0x128D PUSH2 0x2536 JUMP JUMPDEST JUMPDEST PUSH1 0x20 MUL PUSH1 0x20 ADD ADD MLOAD LT PUSH2 0x12D6 JUMPI PUSH1 0x40 MLOAD PUSH32 0x8C379A000000000000000000000000000000000000000000000000000000000 DUP2 MSTORE PUSH1 0x4 ADD PUSH2 0x12CD SWAP1 PUSH2 0x2BA3 JUMP JUMPDEST PUSH1 0x40 MLOAD DUP1 SWAP2 SUB SWAP1 REVERT JUMPDEST DUP1 DUP1 PUSH1 0x1 ADD SWAP2 POP POP PUSH2 0x1251 JUMP JUMPDEST POP POP JUMP JUMPDEST PUSH0 DUP1 PUSH0 SWAP1 SLOAD SWAP1 PUSH2 0x100 EXP SWAP1 DIV PUSH20 0xFFFFFFFFFFFFFFFFFFFFFFFFFFFFFFFFFFFFFFFF AND SWAP1 POP DUP2 PUSH0 DUP1 PUSH2 0x100 EXP DUP2 SLOAD DUP2 PUSH20 0xFFFFFFFFFFFFFFFFFFFFFFFFFFFFFFFFFFFFFFFF MUL NOT AND SWAP1 DUP4 PUSH20 0xFFFFFFFFFFFFFFFFFFFFFFFFFFFFFFFFFFFFFFFF AND MUL OR SWAP1 SSTORE POP DUP2 PUSH20 0xFFFFFFFFFFFFFFFFFFFFFFFFFFFFFFFFFFFFFFFF AND DUP2 PUSH20 0xFFFFFFFFFFFFFFFFFFFFFFFFFFFFFFFFFFFFFFFF AND PUSH32 0x8BE0079C531659141344CD1FD0A4F28419497F9722A3DAAFE3B4186F6B6457E0 PUSH1 0x40 MLOAD PUSH1 0x40 MLOAD DUP1 SWAP2 SUB SWAP1 LOG3 POP POP JUMP JUMPDEST PUSH1 0xF PUSH0 DUP4 DUP2 MSTORE PUSH1 0x20 ADD SWAP1 DUP2 MSTORE PUSH1 0x20 ADD PUSH0 KECCAK256 PUSH0 SWAP1 SLOAD SWAP1 PUSH2 0x100 EXP SWAP1 DIV PUSH1 0xFF AND ISZERO PUSH2 0x1406 JUMPI PUSH1 0x40 MLOAD PUSH32 0x8C379A000000000000000000000000000000000000000000000000000000000 DUP2 MSTORE PUSH1 0x4 ADD PUSH2 0x13FD SWAP1 PUSH2 0x2C0B JUMP JUMPDEST PUSH1 0x40 MLOAD DUP1 SWAP2 SUB SWAP1 REVERT JUMPDEST PUSH0 DUP2 MLOAD GT PUSH2 0x1449 JUMPI PUSH1 0x40 MLOAD PUSH32 0x8C379A000000000000000000000000000000000000000000000000000000000 DUP2 MSTORE PUSH1 0x4 ADD PUSH2 0x1440 SWAP1 PUSH2 0x2C73 JUMP JUMPDEST PUSH1 0x40 MLOAD DUP1 SWAP2 SUB SWAP1 REVERT JUMPDEST PUSH1 0x1 PUSH1 0xF PUSH0 DUP5 DUP2 MSTORE PUSH1 0x20 ADD SWAP1 DUP2 MSTORE PUSH1 0x20 ADD PUSH0 KECCAK256 PUSH0 PUSH2 0x100 EXP DUP2 SLOAD DUP2 PUSH1 0xFF MUL NOT AND SWAP1 DUP4 ISZERO ISZERO MUL OR SWAP1 SSTORE POP PUSH1 0x10 DUP3 SWAP1 DUP1 PUSH1 0x1 DUP2 SLOAD ADD DUP1 DUP3 SSTORE DUP1 SWAP2 POP POP PUSH1 0x1 SWAP1 SUB SWAP1 PUSH0 MSTORE PUSH1 0x20 PUSH0 KECCAK256 ADD PUSH0 SWAP1 SWAP2 SWAP1 SWAP2 SWAP1 SWAP2 POP SSTORE PUSH0 JUMPDEST DUP2 MLOAD DUP2 LT ISZERO PUSH2 0x1511 JUMPI PUSH1 0xD PUSH0 DUP5 DUP2 MSTORE PUSH1 0x20 ADD SWAP1 DUP2 MSTORE PUSH1 0x20 ADD PUSH0 KECCAK256 DUP3 DUP3 DUP2 MLOAD DUP2 LT PUSH2 0x14C7 JUMPI PUSH2 0x14C6 PUSH2 0x2536 JUMP JUMPDEST JUMPDEST PUSH1 0x20 MUL PUSH1 0x20 ADD ADD MLOAD SWAP1 DUP1 PUSH1 0x1 DUP2 SLOAD ADD DUP1 DUP3 SSTORE DUP1 SWAP2 POP POP PUSH1 0x1 SWAP1 SUB SWAP1 PUSH0 MSTORE PUSH1 0x20 PUSH0 KECCAK256 SWAP1 PUSH1 0x2 MUL ADD PUSH0 SWAP1 SWAP2 SWAP1 SWAP2 SWAP1 SWAP2 POP SWAP1 PUSH1 0x2 PUSH2 0x1503 SWAP3 SWAP2 SWAP1 PUSH2 0x1ECE JUMP JUMPDEST POP DUP1 DUP1 PUSH1 0x1 ADD SWAP2 POP POP PUSH2 0x149A JUMP JUMPDEST POP DUP2 PUSH32 0xA1339EB0C83D6EF984978DE4B1183619DF17A5DCBB74C7D120D193FA5586FEEC TIMESTAMP PUSH1 0x40 MLOAD PUSH2 0x1542 SWAP2 SWAP1 PUSH2 0x201B JUMP JUMPDEST PUSH1 0x40 MLOAD DUP1 SWAP2 SUB SWAP1 LOG2 POP POP JUMP JUMPDEST PUSH2 0x1556 PUSH2 0x1F0E JUMP JUMPDEST PUSH0 DUP3 PUSH0 DUP2 MLOAD DUP2 LT PUSH2 0x156A JUMPI PUSH2 0x1569 PUSH2 0x2536 JUMP JUMPDEST JUMPDEST PUSH1 0x20 MUL PUSH1 0x20 ADD ADD MLOAD SWAP1 POP PUSH0 JUMPDEST DUP5 MLOAD DUP2 LT ISZERO PUSH2 0x16CE JUMPI PUSH32 0x30644E72E131A029B85045B68181585D2833E84879B9709143E1F593F0000001 DUP6 DUP3 DUP2 MLOAD DUP2 LT PUSH2 0x15B3 JUMPI PUSH2 0x15B2 PUSH2 0x2536 JUMP JUMPDEST JUMPDEST PUSH1 0x20 MUL PUSH1 0x20 ADD ADD MLOAD LT PUSH2 0x15FB JUMPI PUSH1 0x40 MLOAD PUSH32 0x8C379A000000000000000000000000000000000000000000000000000000000 DUP2 MSTORE PUSH1 0x4 ADD PUSH2 0x15F2 SWAP1 PUSH2 0x2BA3 JUMP JUMPDEST PUSH1 0x40 MLOAD DUP1 SWAP2 SUB SWAP1 REVERT JUMPDEST PUSH0 DUP1 PUSH2 0x1647 DUP7 PUSH1 0x1 DUP6 PUSH2 0x160E SWAP2 SWAP1 PUSH2 0x2ABE JUMP JUMPDEST DUP2 MLOAD DUP2 LT PUSH2 0x161F JUMPI PUSH2 0x161E PUSH2 0x2536 JUMP JUMPDEST JUMPDEST PUSH1 0x20 MUL PUSH1 0x20 ADD ADD MLOAD DUP9 DUP6 DUP2 MLOAD DUP2 LT PUSH2 0x163A JUMPI PUSH2 0x1639 PUSH2 0x2536 JUMP JUMPDEST JUMPDEST PUSH1 0x20 MUL PUSH1 0x20 ADD ADD MLOAD PUSH2 0x1C70 JUMP JUMPDEST SWAP2 POP SWAP2 POP PUSH2 0x1686 DUP5 PUSH0 PUSH1 0x2 DUP2 LT PUSH2 0x1661 JUMPI PUSH2 0x1660 PUSH2 0x2536 JUMP JUMPDEST JUMPDEST PUSH1 0x20 MUL ADD MLOAD DUP6 PUSH1 0x1 PUSH1 0x2 DUP2 LT PUSH2 0x167A JUMPI PUSH2 0x1679 PUSH2 0x2536 JUMP JUMPDEST JUMPDEST PUSH1 0x20 MUL ADD MLOAD DUP5 DUP5 PUSH2 0x1D96 JUMP JUMPDEST DUP6 PUSH0 PUSH1 0x2 DUP2 LT PUSH2 0x1699 JUMPI PUSH2 0x1698 PUSH2 0x2536 JUMP JUMPDEST JUMPDEST PUSH1 0x20 MUL ADD DUP7 PUSH1 0x1 PUSH1 0x2 DUP2 LT PUSH2 0x16B1 JUMPI PUSH2 0x16B0 PUSH2 0x2536 JUMP JUMPDEST JUMPDEST PUSH1 0x20 MUL ADD DUP3 DUP2 MSTORE POP DUP3 DUP2 MSTORE POP POP POP POP POP DUP1 DUP1 PUSH1 0x1 ADD SWAP2 POP POP PUSH2 0x1576 JUMP JUMPDEST POP DUP1 SWAP2 POP POP SWAP3 SWAP2 POP POP JUMP JUMPDEST PUSH0 PUSH2 0x16E2 PUSH2 0x1F30 JUMP JUMPDEST DUP8 PUSH0 ADD MLOAD PUSH0 PUSH1 0x2 DUP2 LT PUSH2 0x16F8 JUMPI PUSH2 0x16F7 PUSH2 0x2536 JUMP JUMPDEST JUMPDEST PUSH1 0x20 MUL ADD MLOAD DUP2 PUSH0 PUSH1 0x18 DUP2 LT PUSH2 0x1710 JUMPI PUSH2 0x170F PUSH2 0x2536 JUMP JUMPDEST JUMPDEST PUSH1 0x20 MUL ADD DUP2 DUP2 MSTORE POP POP DUP8 PUSH0 ADD MLOAD PUSH1 0x1 PUSH1 0x2 DUP2 LT PUSH2 0x1730 JUMPI PUSH2 0x172F PUSH2 0x2536 JUMP JUMPDEST JUMPDEST PUSH1 0x20 MUL ADD MLOAD DUP2 PUSH1 0x1 PUSH1 0x18 DUP2 LT PUSH2 0x1749 JUMPI PUSH2 0x1748 PUSH2 0x2536 JUMP JUMPDEST JUMPDEST PUSH1 0x20 MUL ADD DUP2 DUP2 MSTORE POP POP DUP8 PUSH1 0x20 ADD MLOAD PUSH0 PUSH1 0x2 DUP2 LT PUSH2 0x1769 JUMPI PUSH2 0x1768 PUSH2 0x2536 JUMP JUMPDEST JUMPDEST PUSH1 0x20 MUL ADD MLOAD PUSH0 PUSH1 0x2 DUP2 LT PUSH2 0x1780 JUMPI PUSH2 0x177F PUSH2 0x2536 JUMP JUMPDEST JUMPDEST PUSH1 0x20 MUL ADD MLOAD DUP2 PUSH1 0x2 PUSH1 0x18 DUP2 LT PUSH2 0x1799 JUMPI PUSH2 0x1798 PUSH2 0x2536 JUMP JUMPDEST JUMPDEST PUSH1 0x20 MUL ADD DUP2 DUP2 MSTORE POP POP DUP8 PUSH1 0x20 ADD MLOAD PUSH0 PUSH1 0x2 DUP2 LT PUSH2 0x17B9 JUMPI PUSH2 0x17B8 PUSH2 0x2536 JUMP JUMPDEST JUMPDEST PUSH1 0x20 MUL ADD MLOAD PUSH1 0x1 PUSH1 0x2 DUP2 LT PUSH2 0x17D1 JUMPI PUSH2 0x17D0 PUSH2 0x2536 JUMP JUMPDEST JUMPDEST PUSH1 0x20 MUL ADD MLOAD DUP2 PUSH1 0x3 PUSH1 0x18 DUP2 LT PUSH2 0x17EA JUMPI PUSH2 0x17E9 PUSH2 0x2536 JUMP JUMPDEST JUMPDEST PUSH1 0x20 MUL ADD DUP2 DUP2 MSTORE POP POP DUP8 PUSH1 0x20 ADD MLOAD PUSH1 0x1 PUSH1 0x2 DUP2 LT PUSH2 0x180B JUMPI PUSH2 0x180A PUSH2 0x2536 JUMP JUMPDEST JUMPDEST PUSH1 0x20 MUL ADD MLOAD PUSH0 PUSH1 0x2 DUP2 LT PUSH2 0x1822 JUMPI PUSH2 0x1821 PUSH2 0x2536 JUMP JUMPDEST JUMPDEST PUSH1 0x20 MUL ADD MLOAD DUP2 PUSH1 0x4 PUSH1 0x18 DUP2 LT PUSH2 0x183B JUMPI PUSH2 0x183A PUSH2 0x2536 JUMP JUMPDEST JUMPDEST PUSH1 0x20 MUL ADD DUP2 DUP2 MSTORE POP POP DUP8 PUSH1 0x20 ADD MLOAD PUSH1 0x1 PUSH1 0x2 DUP2 LT PUSH2 0x185C JUMPI PUSH2 0x185B PUSH2 0x2536 JUMP JUMPDEST JUMPDEST PUSH1 0x20 MUL ADD MLOAD PUSH1 0x1 PUSH1 0x2 DUP2 LT PUSH2 0x1874 JUMPI PUSH2 0x1873 PUSH2 0x2536 JUMP JUMPDEST JUMPDEST PUSH1 0x20 MUL ADD MLOAD DUP2 PUSH1 0x5 PUSH1 0x18 DUP2 LT PUSH2 0x188D JUMPI PUSH2 0x188C PUSH2 0x2536 JUMP JUMPDEST JUMPDEST PUSH1 0x20 MUL ADD DUP2 DUP2 MSTORE POP POP DUP6 PUSH0 PUSH1 0x2 DUP2 LT PUSH2 0x18A9 JUMPI PUSH2 0x18A8 PUSH2 0x2536 JUMP JUMPDEST JUMPDEST PUSH1 0x20 MUL ADD MLOAD DUP2 PUSH1 0x6 PUSH1 0x18 DUP2 LT PUSH2 0x18C2 JUMPI PUSH2 0x18C1 PUSH2 0x2536 JUMP JUMPDEST JUMPDEST PUSH1 0x20 MUL ADD DUP2 DUP2 MSTORE POP POP DUP6 PUSH1 0x1 PUSH1 0x2 DUP2 LT PUSH2 0x18DF JUMPI PUSH2 0x18DE PUSH2 0x2536 JUMP JUMPDEST JUMPDEST PUSH1 0x20 MUL ADD MLOAD DUP2 PUSH1 0x7 PUSH1 0x18 DUP2 LT PUSH2 0x18F8 JUMPI PUSH2 0x18F7 PUSH2 0x2536 JUMP JUMPDEST JUMPDEST PUSH1 0x20 MUL ADD DUP2 DUP2 MSTORE POP POP DUP5 PUSH0 PUSH1 0x2 DUP2 LT PUSH2 0x1914 JUMPI PUSH2 0x1913 PUSH2 0x2536 JUMP JUMPDEST JUMPDEST PUSH1 0x20 MUL ADD MLOAD PUSH0 PUSH1 0x2 DUP2 LT PUSH2 0x192B JUMPI PUSH2 0x192A PUSH2 0x2536 JUMP JUMPDEST JUMPDEST PUSH1 0x20 MUL ADD MLOAD DUP2 PUSH1 0x8 PUSH1 0x18 DUP2 LT PUSH2 0x1944 JUMPI PUSH2 0x1943 PUSH2 0x2536 JUMP JUMPDEST JUMPDEST PUSH1 0x20 MUL ADD DUP2 DUP2 MSTORE POP POP DUP5 PUSH0 PUSH1 0x2 DUP2 LT PUSH2 0x1960 JUMPI PUSH2 0x195F PUSH2 0x2536 JUMP JUMPDEST JUMPDEST PUSH1 0x20 MUL ADD MLOAD PUSH1 0x1 PUSH1 0x2 DUP2 LT PUSH2 0x1978 JUMPI PUSH2 0x1977 PUSH2 0x2536 JUMP JUMPDEST JUMPDEST PUSH1 0x20 MUL ADD MLOAD DUP2 PUSH1 0x9 PUSH1 0x18 DUP2 LT PUSH2 0x1991 JUMPI PUSH2 0x1990 PUSH2 0x2536 JUMP JUMPDEST JUMPDEST PUSH1 0x20 MUL ADD DUP2 DUP2 MSTORE POP POP DUP5 PUSH1 0x1 PUSH1 0x2 DUP2 LT PUSH2 0x19AE JUMPI PUSH2 0x19AD PUSH2 0x2536 JUMP JUMPDEST JUMPDEST PUSH1 0x20 MUL ADD MLOAD PUSH0 PUSH1 0x2 DUP2 LT PUSH2 0x19C5 JUMPI PUSH2 0x19C4 PUSH2 0x2536 JUMP JUMPDEST JUMPDEST PUSH1 0x20 MUL ADD MLOAD DUP2 PUSH1 0xA PUSH1 0x18 DUP2 LT PUSH2 0x19DE JUMPI PUSH2 0x19DD PUSH2 0x2536 JUMP JUMPDEST JUMPDEST PUSH1 0x20 MUL ADD DUP2 DUP2 MSTORE POP POP DUP5 PUSH1 0x1 PUSH1 0x2 DUP2 LT PUSH2 0x19FB JUMPI PUSH2 0x19FA PUSH2 0x2536 JUMP JUMPDEST JUMPDEST PUSH1 0x20 MUL ADD MLOAD PUSH1 0x1 PUSH1 0x2 DUP2 LT PUSH2 0x1A13 JUMPI PUSH2 0x1A12 PUSH2 0x2536 JUMP JUMPDEST JUMPDEST PUSH1 0x20 MUL ADD MLOAD DUP2 PUSH1 0xB PUSH1 0x18 DUP2 LT PUSH2 0x1A2C JUMPI PUSH2 0x1A2B PUSH2 0x2536 JUMP JUMPDEST JUMPDEST PUSH1 0x20 MUL ADD DUP2 DUP2 MSTORE POP POP DUP7 PUSH0 PUSH1 0x2 DUP2 LT PUSH2 0x1A48 JUMPI PUSH2 0x1A47 PUSH2 0x2536 JUMP JUMPDEST JUMPDEST PUSH1 0x20 MUL ADD MLOAD DUP2 PUSH1 0xC PUSH1 0x18 DUP2 LT PUSH2 0x1A61 JUMPI PUSH2 0x1A60 PUSH2 0x2536 JUMP JUMPDEST JUMPDEST PUSH1 0x20 MUL ADD DUP2 DUP2 MSTORE POP POP DUP7 PUSH1 0x1 PUSH1 0x2 DUP2 LT PUSH2 0x1A7E JUMPI PUSH2 0x1A7D PUSH2 0x2536 JUMP JUMPDEST JUMPDEST PUSH1 0x20 MUL ADD MLOAD DUP2 PUSH1 0xD PUSH1 0x18 DUP2 LT PUSH2 0x1A97 JUMPI PUSH2 0x1A96 PUSH2 0x2536 JUMP JUMPDEST JUMPDEST PUSH1 0x20 MUL ADD DUP2 DUP2 MSTORE POP POP DUP4 PUSH0 PUSH1 0x2 DUP2 LT PUSH2 0x1AB3 JUMPI PUSH2 0x1AB2 PUSH2 0x2536 JUMP JUMPDEST JUMPDEST PUSH1 0x20 MUL ADD MLOAD DUP2 PUSH1 0xE PUSH1 0x18 DUP2 LT PUSH2 0x1ACC JUMPI PUSH2 0x1ACB PUSH2 0x2536 JUMP JUMPDEST JUMPDEST PUSH1 0x20 MUL ADD DUP2 DUP2 MSTORE POP POP DUP4 PUSH1 0x1 PUSH1 0x2 DUP2 LT PUSH2 0x1AE9 JUMPI PUSH2 0x1AE8 PUSH2 0x2536 JUMP JUMPDEST JUMPDEST PUSH1 0x20 MUL ADD MLOAD DUP2 PUSH1 0xF PUSH1 0x18 DUP2 LT PUSH2 0x1B02 JUMPI PUSH2 0x1B01 PUSH2 0x2536 JUMP JUMPDEST JUMPDEST PUSH1 0x20 MUL ADD DUP2 DUP2 MSTORE POP POP DUP8 PUSH1 0x40 ADD MLOAD PUSH0 PUSH1 0x2 DUP2 LT PUSH2 0x1B22 JUMPI PUSH2 0x1B21 PUSH2 0x2536 JUMP JUMPDEST JUMPDEST PUSH1 0x20 MUL ADD MLOAD DUP2 PUSH1 0x10 PUSH1 0x18 DUP2 LT PUSH2 0x1B3B JUMPI PUSH2 0x1B3A PUSH2 0x2536 JUMP JUMPDEST JUMPDEST PUSH1 0x20 MUL ADD DUP2 DUP2 MSTORE POP POP DUP8 PUSH1 0x40 ADD MLOAD PUSH1 0x1 PUSH1 0x2 DUP2 LT PUSH2 0x1B5C JUMPI PUSH2 0x1B5B PUSH2 0x2536 JUMP JUMPDEST JUMPDEST PUSH1 0x20 MUL ADD MLOAD DUP2 PUSH1 0x11 PUSH1 0x18 DUP2 LT PUSH2 0x1B75 JUMPI PUSH2 0x1B74 PUSH2 0x2536 JUMP JUMPDEST JUMPDEST PUSH1 0x20 MUL ADD DUP2 DUP2 MSTORE POP POP DUP3 PUSH0 PUSH1 0x2 DUP2 LT PUSH2 0x1B91 JUMPI PUSH2 0x1B90 PUSH2 0x2536 JUMP JUMPDEST JUMPDEST PUSH1 0x20 MUL ADD MLOAD DUP2 PUSH1 0x12 PUSH1 0x18 DUP2 LT PUSH2 0x1BAA JUMPI PUSH2 0x1BA9 PUSH2 0x2536 JUMP JUMPDEST JUMPDEST PUSH1 0x20 MUL ADD DUP2 DUP2 MSTORE POP POP DUP3 PUSH1 0x1 PUSH1 0x2 DUP2 LT PUSH2 0x1BC7 JUMPI PUSH2 0x1BC6 PUSH2 0x2536 JUMP JUMPDEST JUMPDEST PUSH1 0x20 MUL ADD MLOAD DUP2 PUSH1 0x13 PUSH1 0x18 DUP2 LT PUSH2 0x1BE0 JUMPI PUSH2 0x1BDF PUSH2 0x2536 JUMP JUMPDEST JUMPDEST PUSH1 0x20 MUL ADD DUP2 DUP2 MSTORE POP POP PUSH2 0x1BF1 PUSH2 0x1F53 JUMP JUMPDEST PUSH0 PUSH1 0x20 DUP3 PUSH2 0x300 DUP6 PUSH1 0x8 GAS STATICCALL SWAP1 POP DUP1 PUSH2 0x1C3F JUMPI PUSH1 0x40 MLOAD PUSH32 0x8C379A000000000000000000000000000000000000000000000000000000000 DUP2 MSTORE PUSH1 0x4 ADD PUSH2 0x1C36 SWAP1 PUSH2 0x2CDB JUMP JUMPDEST PUSH1 0x40 MLOAD DUP1 SWAP2 SUB SWAP1 REVERT JUMPDEST PUSH1 0x1 DUP3 PUSH0 PUSH1 0x1 DUP2 LT PUSH2 0x1C54 JUMPI PUSH2 0x1C53 PUSH2 0x2536 JUMP JUMPDEST JUMPDEST PUSH1 0x20 MUL ADD MLOAD EQ SWAP4 POP POP POP POP SWAP7 SWAP6 POP POP POP POP POP POP JUMP JUMPDEST PUSH0 CALLER SWAP1 POP SWAP1 JUMP JUMPDEST PUSH0 DUP1 PUSH2 0x1C7A PUSH2 0x1F75 JUMP JUMPDEST DUP5 PUSH0 PUSH1 0x2 DUP2 LT PUSH2 0x1C8D JUMPI PUSH2 0x1C8C PUSH2 0x2536 JUMP JUMPDEST JUMPDEST PUSH1 0x20 MUL ADD MLOAD DUP2 PUSH0 PUSH1 0x3 DUP2 LT PUSH2 0x1CA5 JUMPI PUSH2 0x1CA4 PUSH2 0x2536 JUMP JUMPDEST JUMPDEST PUSH1 0x20 MUL ADD DUP2 DUP2 MSTORE POP POP DUP5 PUSH1 0x1 PUSH1 0x2 DUP2 LT PUSH2 0x1CC2 JUMPI PUSH2 0x1CC1 PUSH2 0x2536 JUMP JUMPDEST JUMPDEST PUSH1 0x20 MUL ADD MLOAD DUP2 PUSH1 0x1 PUSH1 0x3 DUP2 LT PUSH2 0x1CDB JUMPI PUSH2 0x1CDA PUSH2 0x2536 JUMP JUMPDEST JUMPDEST PUSH1 0x20 MUL ADD DUP2 DUP2 MSTORE POP POP DUP4 DUP2 PUSH1 0x2 PUSH1 0x3 DUP2 LT PUSH2 0x1CF9 JUMPI PUSH2 0x1CF8 PUSH2 0x2536 JUMP JUMPDEST JUMPDEST PUSH1 0x20 MUL ADD DUP2 DUP2 MSTORE POP POP PUSH2 0x1D0A PUSH2 0x1F0E JUMP JUMPDEST PUSH0 PUSH1 0x40 DUP3 PUSH1 0x60 DUP6 PUSH1 0x7 GAS STATICCALL SWAP1 POP DUP1 PUSH2 0x1D57 JUMPI PUSH1 0x40 MLOAD PUSH32 0x8C379A000000000000000000000000000000000000000000000000000000000 DUP2 MSTORE PUSH1 0x4 ADD PUSH2 0x1D4E SWAP1 PUSH2 0x2D43 JUMP JUMPDEST PUSH1 0x40 MLOAD DUP1 SWAP2 SUB SWAP1 REVERT JUMPDEST DUP2 PUSH0 PUSH1 0x2 DUP2 LT PUSH2 0x1D6A JUMPI PUSH2 0x1D69 PUSH2 0x2536 JUMP JUMPDEST JUMPDEST PUSH1 0x20 MUL ADD MLOAD DUP3 PUSH1 0x1 PUSH1 0x2 DUP2 LT PUSH2 0x1D83 JUMPI PUSH2 0x1D82 PUSH2 0x2536 JUMP JUMPDEST JUMPDEST PUSH1 0x20 MUL ADD MLOAD SWAP5 POP SWAP5 POP POP POP POP SWAP3 POP SWAP3 SWAP1 POP JUMP JUMPDEST PUSH0 DUP1 PUSH2 0x1DA0 PUSH2 0x1F97 JUMP JUMPDEST DUP7 DUP2 PUSH0 PUSH1 0x4 DUP2 LT PUSH2 0x1DB4 JUMPI PUSH2 0x1DB3 PUSH2 0x2536 JUMP JUMPDEST JUMPDEST PUSH1 0x20 MUL ADD DUP2 DUP2 MSTORE POP POP DUP6 DUP2 PUSH1 0x1 PUSH1 0x4 DUP2 LT PUSH2 0x1DD2 JUMPI PUSH2 0x1DD1 PUSH2 0x2536 JUMP JUMPDEST JUMPDEST PUSH1 0x20 MUL ADD DUP2 DUP2 MSTORE POP POP DUP5 DUP2 PUSH1 0x2 PUSH1 0x4 DUP2 LT PUSH2 0x1DF0 JUMPI PUSH2 0x1DEF PUSH2 0x2536 JUMP JUMPDEST JUMPDEST PUSH1 0x20 MUL ADD DUP2 DUP2 MSTORE POP POP DUP4 DUP2 PUSH1 0x3 PUSH1 0x4 DUP2 LT PUSH2 0x1E0E JUMPI PUSH2 0x1E0D PUSH2 0x2536 JUMP JUMPDEST JUMPDEST PUSH1 0x20 MUL ADD DUP2 DUP2 MSTORE POP POP PUSH2 0x1E1F PUSH2 0x1F0E JUMP JUMPDEST PUSH0 PUSH1 0x40 DUP3 PUSH1 0x80 DUP6 PUSH1 0x6 GAS STATICCALL SWAP1 POP DUP1 PUSH2 0x1E6C JUMPI PUSH1 0x40 MLOAD PUSH32 0x8C379A000000000000000000000000000000000000000000000000000000000 DUP2 MSTORE PUSH1 0x4 ADD PUSH2 0x1E63 SWAP1 PUSH2 0x2DAB JUMP JUMPDEST PUSH1 0x40 MLOAD DUP1 SWAP2 SUB SWAP1 REVERT JUMPDEST DUP2 PUSH0 PUSH1 0x2 DUP2 LT PUSH2 0x1E7F JUMPI PUSH2 0x1E7E PUSH2 0x2536 JUMP JUMPDEST JUMPDEST PUSH1 0x20 MUL ADD MLOAD DUP3 PUSH1 0x1 PUSH1 0x2 DUP2 LT PUSH2 0x1E98 JUMPI PUSH2 0x1E97 PUSH2 0x2536 JUMP JUMPDEST JUMPDEST PUSH1 0x20 MUL ADD MLOAD SWAP5 POP SWAP5 POP POP POP POP SWAP5 POP SWAP5 SWAP3 POP POP POP JUMP JUMPDEST POP DUP1 SLOAD PUSH0 DUP3 SSTORE PUSH1 0x2 MUL SWAP1 PUSH0 MSTORE PUSH1 0x20 PUSH0 KECCAK256 SWAP1 DUP2 ADD SWAP1 PUSH2 0x1ECB SWAP2 SWAP1 PUSH2 0x1FB9 JUMP JUMPDEST POP JUMP JUMPDEST DUP3 PUSH1 0x2 DUP2 ADD SWAP3 DUP3 ISZERO PUSH2 0x1EFD JUMPI SWAP2 PUSH1 0x20 MUL DUP3 ADD JUMPDEST DUP3 DUP2 GT ISZERO PUSH2 0x1EFC JUMPI DUP3 MLOAD DUP3 SSTORE SWAP2 PUSH1 0x20 ADD SWAP2 SWAP1 PUSH1 0x1 ADD SWAP1 PUSH2 0x1EE1 JUMP JUMPDEST JUMPDEST POP SWAP1 POP PUSH2 0x1F0A SWAP2 SWAP1 PUSH2 0x1FDC JUMP JUMPDEST POP SWAP1 JUMP JUMPDEST PUSH1 0x40 MLOAD DUP1 PUSH1 0x40 ADD PUSH1 0x40 MSTORE DUP1 PUSH1 0x2 SWAP1 PUSH1 0x20 DUP3 MUL DUP1 CALLDATASIZE DUP4 CALLDATACOPY DUP1 DUP3 ADD SWAP2 POP POP SWAP1 POP POP SWAP1 JUMP JUMPDEST PUSH1 0x40 MLOAD DUP1 PUSH2 0x300 ADD PUSH1 0x40 MSTORE DUP1 PUSH1 0x18 SWAP1 PUSH1 0x20 DUP3 MUL DUP1 CALLDATASIZE DUP4 CALLDATACOPY DUP1 DUP3 ADD SWAP2 POP POP SWAP1 POP POP SWAP1 JUMP JUMPDEST PUSH1 0x40 MLOAD DUP1 PUSH1 0x20 ADD PUSH1 0x40 MSTORE DUP1 PUSH1 0x1 SWAP1 PUSH1 0x20 DUP3 MUL DUP1 CALLDATASIZE DUP4 CALLDATACOPY DUP1 DUP3 ADD SWAP2 POP POP SWAP1 POP POP SWAP1 JUMP JUMPDEST PUSH1 0x40 MLOAD DUP1 PUSH1 0x60 ADD PUSH1 0x40 MSTORE DUP1 PUSH1 0x3 SWAP1 PUSH1 0x20 DUP3 MUL DUP1 CALLDATASIZE DUP4 CALLDATACOPY DUP1 DUP3 ADD SWAP2 POP POP SWAP1 POP POP SWAP1 JUMP JUMPDEST PUSH1 0x40 MLOAD DUP1 PUSH1 0x80 ADD PUSH1 0x40 MSTORE DUP1 PUSH1 0x4 SWAP1 PUSH1 0x20 DUP3 MUL DUP1 CALLDATASIZE DUP4 CALLDATACOPY DUP1 DUP3 ADD SWAP2 POP POP SWAP1 POP POP SWAP1 JUMP JUMPDEST JUMPDEST DUP1 DUP3 GT ISZERO PUSH2 0x1FD8 JUMPI PUSH0 DUP2 DUP2 PUSH2 0x1FCF SWAP2 SWAP1 PUSH2 0x1FF7 JUMP JUMPDEST POP PUSH1 0x2 ADD PUSH2 0x1FBA JUMP JUMPDEST POP SWAP1 JUMP JUMPDEST JUMPDEST DUP1 DUP3 GT ISZERO PUSH2 0x1FF3 JUMPI PUSH0 DUP2 PUSH0 SWAP1 SSTORE POP PUSH1 0x1 ADD PUSH2 0x1FDD JUMP JUMPDEST POP SWAP1 JUMP JUMPDEST POP PUSH0 DUP2 SSTORE PUSH1 0x1 ADD PUSH0 SWAP1 SSTORE JUMP JUMPDEST PUSH0 DUP2 SWAP1 POP SWAP2 SWAP1 POP JUMP JUMPDEST PUSH2 0x2015 DUP2 PUSH2 0x2003 JUMP JUMPDEST DUP3 MSTORE POP POP JUMP JUMPDEST PUSH0 PUSH1 0x20 DUP3 ADD SWAP1 POP PUSH2 0x202E PUSH0 DUP4 ADD DUP5 PUSH2 0x200C JUMP JUMPDEST SWAP3 SWAP2 POP POP JUMP JUMPDEST PUSH0 PUSH1 0x40 MLOAD SWAP1 POP SWAP1 JUMP JUMPDEST PUSH0 DUP1 REVERT JUMPDEST PUSH0 DUP1 REVERT JUMPDEST PUSH0 DUP2 SWAP1 POP SWAP2 SWAP1 POP JUMP JUMPDEST PUSH2 0x2057 DUP2 PUSH2 0x2045 JUMP JUMPDEST DUP2 EQ PUSH2 0x2061 JUMPI PUSH0 DUP1 REVERT JUMPDEST POP JUMP JUMPDEST PUSH0 DUP2 CALLDATALOAD SWAP1 POP PUSH2 0x2072 DUP2 PUSH2 0x204E JUMP JUMPDEST SWAP3 SWAP2 POP POP JUMP JUMPDEST PUSH0 PUSH1 0x20 DUP3 DUP5 SUB SLT ISZERO PUSH2 0x208D JUMPI PUSH2 0x208C PUSH2 0x203D JUMP JUMPDEST JUMPDEST PUSH0 PUSH2 0x209A DUP5 DUP3 DUP6 ADD PUSH2 0x2064 JUMP JUMPDEST SWAP2 POP POP SWAP3 SWAP2 POP POP JUMP JUMPDEST PUSH0 DUP2 ISZERO ISZERO SWAP1 POP SWAP2 SWAP1 POP JUMP JUMPDEST PUSH2 0x20B7 DUP2 PUSH2 0x20A3 JUMP JUMPDEST DUP3 MSTORE POP POP JUMP JUMPDEST PUSH0 PUSH1 0x20 DUP3 ADD SWAP1 POP PUSH2 0x20D0 PUSH0 DUP4 ADD DUP5 PUSH2 0x20AE JUMP JUMPDEST SWAP3 SWAP2 POP POP JUMP JUMPDEST PUSH0 DUP1 REVERT JUMPDEST PUSH0 DUP2 SWAP1 POP DUP3 PUSH1 0x20 PUSH1 0x8 MUL DUP3 ADD GT ISZERO PUSH2 0x20F5 JUMPI PUSH2 0x20F4 PUSH2 0x20D6 JUMP JUMPDEST JUMPDEST SWAP3 SWAP2 POP POP JUMP JUMPDEST PUSH0 DUP2 SWAP1 POP DUP3 PUSH1 0x20 PUSH1 0x1 MUL DUP3 ADD GT ISZERO PUSH2 0x2116 JUMPI PUSH2 0x2115 PUSH2 0x20D6 JUMP JUMPDEST JUMPDEST SWAP3 SWAP2 POP POP JUMP JUMPDEST PUSH0 DUP1 PUSH2 0x120 DUP4 DUP6 SUB SLT ISZERO PUSH2 0x2133 JUMPI PUSH2 0x2132 PUSH2 0x203D JUMP JUMPDEST JUMPDEST PUSH0 PUSH2 0x2140 DUP6 DUP3 DUP7 ADD PUSH2 0x20DA JUMP JUMPDEST SWAP3 POP POP PUSH2 0x100 PUSH2 0x2152 DUP6 DUP3 DUP7 ADD PUSH2 0x20FB JUMP JUMPDEST SWAP2 POP POP SWAP3 POP SWAP3 SWAP1 POP JUMP JUMPDEST PUSH2 0x2165 DUP2 PUSH2 0x2003 JUMP JUMPDEST DUP2 EQ PUSH2 0x216F JUMPI PUSH0 DUP1 REVERT JUMPDEST POP JUMP JUMPDEST PUSH0 DUP2 CALLDATALOAD SWAP1 POP PUSH2 0x2180 DUP2 PUSH2 0x215C JUMP JUMPDEST SWAP3 SWAP2 POP POP JUMP JUMPDEST PUSH0 PUSH1 0x20 DUP3 DUP5 SUB SLT ISZERO PUSH2 0x219B JUMPI PUSH2 0x219A PUSH2 0x203D JUMP JUMPDEST JUMPDEST PUSH0 PUSH2 0x21A8 DUP5 DUP3 DUP6 ADD PUSH2 0x2172 JUMP JUMPDEST SWAP2 POP POP SWAP3 SWAP2 POP POP JUMP JUMPDEST PUSH0 DUP1 PUSH0 PUSH1 0x60 DUP5 DUP7 SUB SLT ISZERO PUSH2 0x21C8 JUMPI PUSH2 0x21C7 PUSH2 0x203D JUMP JUMPDEST JUMPDEST PUSH0 PUSH2 0x21D5 DUP7 DUP3 DUP8 ADD PUSH2 0x2172 JUMP JUMPDEST SWAP4 POP POP PUSH1 0x20 PUSH2 0x21E6 DUP7 DUP3 DUP8 ADD PUSH2 0x2172 JUMP JUMPDEST SWAP3 POP POP PUSH1 0x40 PUSH2 0x21F7 DUP7 DUP3 DUP8 ADD PUSH2 0x2172 JUMP JUMPDEST SWAP2 POP POP SWAP3 POP SWAP3 POP SWAP3 JUMP JUMPDEST PUSH0 DUP1 REVERT JUMPDEST PUSH0 DUP1 REVERT JUMPDEST PUSH0 DUP1 DUP4 PUSH1 0x1F DUP5 ADD SLT PUSH2 0x221E JUMPI PUSH2 0x221D PUSH2 0x2201 JUMP JUMPDEST JUMPDEST DUP3 CALLDATALOAD SWAP1 POP PUSH8 0xFFFFFFFFFFFFFFFF DUP2 GT ISZERO PUSH2 0x223B JUMPI PUSH2 0x223A PUSH2 0x2205 JUMP JUMPDEST JUMPDEST PUSH1 0x20 DUP4 ADD SWAP2 POP DUP4 PUSH1 0x1 DUP3 MUL DUP4 ADD GT ISZERO PUSH2 0x2257 JUMPI PUSH2 0x2256 PUSH2 0x20D6 JUMP JUMPDEST JUMPDEST SWAP3 POP SWAP3 SWAP1 POP JUMP JUMPDEST PUSH0 DUP1 DUP4 PUSH1 0x1F DUP5 ADD SLT PUSH2 0x2273 JUMPI PUSH2 0x2272 PUSH2 0x2201 JUMP JUMPDEST JUMPDEST DUP3 CALLDATALOAD SWAP1 POP PUSH8 0xFFFFFFFFFFFFFFFF DUP2 GT ISZERO PUSH2 0x2290 JUMPI PUSH2 0x228F PUSH2 0x2205 JUMP JUMPDEST JUMPDEST PUSH1 0x20 DUP4 ADD SWAP2 POP DUP4 PUSH1 0x20 DUP3 MUL DUP4 ADD GT ISZERO PUSH2 0x22AC JUMPI PUSH2 0x22AB PUSH2 0x20D6 JUMP JUMPDEST JUMPDEST SWAP3 POP SWAP3 SWAP1 POP JUMP JUMPDEST PUSH0 DUP1 PUSH0 DUP1 PUSH0 PUSH1 0x60 DUP7 DUP9 SUB SLT ISZERO PUSH2 0x22CC JUMPI PUSH2 0x22CB PUSH2 0x203D JUMP JUMPDEST JUMPDEST PUSH0 DUP7 ADD CALLDATALOAD PUSH8 0xFFFFFFFFFFFFFFFF DUP2 GT ISZERO PUSH2 0x22E9 JUMPI PUSH2 0x22E8 PUSH2 0x2041 JUMP JUMPDEST JUMPDEST PUSH2 0x22F5 DUP9 DUP3 DUP10 ADD PUSH2 0x2209 JUMP JUMPDEST SWAP6 POP SWAP6 POP POP PUSH1 0x20 DUP7 ADD CALLDATALOAD PUSH8 0xFFFFFFFFFFFFFFFF DUP2 GT ISZERO PUSH2 0x2318 JUMPI PUSH2 0x2317 PUSH2 0x2041 JUMP JUMPDEST JUMPDEST PUSH2 0x2324 DUP9 DUP3 DUP10 ADD PUSH2 0x225E JUMP JUMPDEST SWAP4 POP SWAP4 POP POP PUSH1 0x40 PUSH2 0x2337 DUP9 DUP3 DUP10 ADD PUSH2 0x2172 JUMP JUMPDEST SWAP2 POP POP SWAP3 SWAP6 POP SWAP3 SWAP6 SWAP1 SWAP4 POP JUMP JUMPDEST PUSH0 DUP1 PUSH1 0x40 DUP4 DUP6 SUB SLT ISZERO PUSH2 0x235A JUMPI PUSH2 0x2359 PUSH2 0x203D JUMP JUMPDEST JUMPDEST PUSH0 PUSH2 0x2367 DUP6 DUP3 DUP7 ADD PUSH2 0x2172 JUMP JUMPDEST SWAP3 POP POP PUSH1 0x20 PUSH2 0x2378 DUP6 DUP3 DUP7 ADD PUSH2 0x2172 JUMP JUMPDEST SWAP2 POP POP SWAP3 POP SWAP3 SWAP1 POP JUMP JUMPDEST PUSH2 0x238B DUP2 PUSH2 0x2045 JUMP JUMPDEST DUP3 MSTORE POP POP JUMP JUMPDEST PUSH0 PUSH1 0x20 DUP3 ADD SWAP1 POP PUSH2 0x23A4 PUSH0 DUP4 ADD DUP5 PUSH2 0x2382 JUMP JUMPDEST SWAP3 SWAP2 POP POP JUMP JUMPDEST PUSH0 PUSH20 0xFFFFFFFFFFFFFFFFFFFFFFFFFFFFFFFFFFFFFFFF DUP3 AND SWAP1 POP SWAP2 SWAP1 POP JUMP JUMPDEST PUSH0 PUSH2 0x23D3 DUP3 PUSH2 0x23AA JUMP JUMPDEST SWAP1 POP SWAP2 SWAP1 POP JUMP JUMPDEST PUSH2 0x23E3 DUP2 PUSH2 0x23C9 JUMP JUMPDEST DUP3 MSTORE POP POP JUMP JUMPDEST PUSH0 PUSH1 0x20 DUP3 ADD SWAP1 POP PUSH2 0x23FC PUSH0 DUP4 ADD DUP5 PUSH2 0x23DA JUMP JUMPDEST SWAP3 SWAP2 POP POP JUMP JUMPDEST PUSH0 DUP1 DUP4 PUSH1 0x1F DUP5 ADD SLT PUSH2 0x2417 JUMPI PUSH2 0x2416 PUSH2 0x2201 JUMP JUMPDEST JUMPDEST DUP3 CALLDATALOAD SWAP1 POP PUSH8 0xFFFFFFFFFFFFFFFF DUP2 GT ISZERO PUSH2 0x2434 JUMPI PUSH2 0x2433 PUSH2 0x2205 JUMP JUMPDEST JUMPDEST PUSH1 0x20 DUP4 ADD SWAP2 POP DUP4 PUSH1 0x40 DUP3 MUL DUP4 ADD GT ISZERO PUSH2 0x2450 JUMPI PUSH2 0x244F PUSH2 0x20D6 JUMP JUMPDEST JUMPDEST SWAP3 POP SWAP3 SWAP1 POP JUMP JUMPDEST PUSH0 DUP1 PUSH0 PUSH1 0x40 DUP5 DUP7 SUB SLT ISZERO PUSH2 0x246E JUMPI PUSH2 0x246D PUSH2 0x203D JUMP JUMPDEST JUMPDEST PUSH0 PUSH2 0x247B DUP7 DUP3 DUP8 ADD PUSH2 0x2172 JUMP JUMPDEST SWAP4 POP POP PUSH1 0x20 DUP5 ADD CALLDATALOAD PUSH8 0xFFFFFFFFFFFFFFFF DUP2 GT ISZERO PUSH2 0x249C JUMPI PUSH2 0x249B PUSH2 0x2041 JUMP JUMPDEST JUMPDEST PUSH2 0x24A8 DUP7 DUP3 DUP8 ADD PUSH2 0x2402 JUMP JUMPDEST SWAP3 POP SWAP3 POP POP SWAP3 POP SWAP3 POP SWAP3 JUMP JUMPDEST PUSH2 0x24BD DUP2 PUSH2 0x23C9 JUMP JUMPDEST DUP2 EQ PUSH2 0x24C7 JUMPI PUSH0 DUP1 REVERT JUMPDEST POP JUMP JUMPDEST PUSH0 DUP2 CALLDATALOAD SWAP1 POP PUSH2 0x24D8 DUP2 PUSH2 0x24B4 JUMP JUMPDEST SWAP3 SWAP2 POP POP JUMP JUMPDEST PUSH0 PUSH1 0x20 DUP3 DUP5 SUB SLT ISZERO PUSH2 0x24F3 JUMPI PUSH2 0x24F2 PUSH2 0x203D JUMP JUMPDEST JUMPDEST PUSH0 PUSH2 0x2500 DUP5 DUP3 DUP6 ADD PUSH2 0x24CA JUMP JUMPDEST SWAP2 POP POP SWAP3 SWAP2 POP POP JUMP JUMPDEST PUSH32 0x4E487B7100000000000000000000000000000000000000000000000000000000 PUSH0 MSTORE PUSH1 0x41 PUSH1 0x4 MSTORE PUSH1 0x24 PUSH0 REVERT JUMPDEST PUSH32 0x4E487B7100000000000000000000000000000000000000000000000000000000 PUSH0 MSTORE PUSH1 0x32 PUSH1 0x4 MSTORE PUSH1 0x24 PUSH0 REVERT JUMPDEST PUSH0 DUP3 DUP3 MSTORE PUSH1 0x20 DUP3 ADD SWAP1 POP SWAP3 SWAP2 POP POP JUMP JUMPDEST PUSH32 0x44656E6F6D696E6174696F6E206E6F7420666F756E6400000000000000000000 PUSH0 DUP3 ADD MSTORE POP JUMP JUMPDEST PUSH0 PUSH2 0x25A7 PUSH1 0x16 DUP4 PUSH2 0x2563 JUMP JUMPDEST SWAP2 POP PUSH2 0x25B2 DUP3 PUSH2 0x2573 JUMP JUMPDEST PUSH1 0x20 DUP3 ADD SWAP1 POP SWAP2 SWAP1 POP JUMP JUMPDEST PUSH0 PUSH1 0x20 DUP3 ADD SWAP1 POP DUP2 DUP2 SUB PUSH0 DUP4 ADD MSTORE PUSH2 0x25D4 DUP2 PUSH2 0x259B JUMP JUMPDEST SWAP1 POP SWAP2 SWAP1 POP JUMP JUMPDEST PUSH32 0x4E487B7100000000000000000000000000000000000000000000000000000000 PUSH0 MSTORE PUSH1 0x11 PUSH1 0x4 MSTORE PUSH1 0x24 PUSH0 REVERT JUMPDEST PUSH0 PUSH2 0x2612 DUP3 PUSH2 0x2003 JUMP JUMPDEST SWAP2 POP PUSH2 0x261D DUP4 PUSH2 0x2003 JUMP JUMPDEST SWAP3 POP DUP3 DUP3 SUB SWAP1 POP DUP2 DUP2 GT ISZERO PUSH2 0x2635 JUMPI PUSH2 0x2634 PUSH2 0x25DB JUMP JUMPDEST JUMPDEST SWAP3 SWAP2 POP POP JUMP JUMPDEST PUSH32 0x4E487B7100000000000000000000000000000000000000000000000000000000 PUSH0 MSTORE PUSH1 0x31 PUSH1 0x4 MSTORE PUSH1 0x24 PUSH0 REVERT JUMPDEST PUSH32 0x556E737570706F727465642064656E6F6D696E6174696F6E0000000000000000 PUSH0 DUP3 ADD MSTORE POP JUMP JUMPDEST PUSH0 PUSH2 0x269C PUSH1 0x18 DUP4 PUSH2 0x2563 JUMP JUMPDEST SWAP2 POP PUSH2 0x26A7 DUP3 PUSH2 0x2668 JUMP JUMPDEST PUSH1 0x20 DUP3 ADD SWAP1 POP SWAP2 SWAP1 POP JUMP JUMPDEST PUSH0 PUSH1 0x20 DUP3 ADD SWAP1 POP DUP2 DUP2 SUB PUSH0 DUP4 ADD MSTORE PUSH2 0x26C9 DUP2 PUSH2 0x2690 JUMP JUMPDEST SWAP1 POP SWAP2 SWAP1 POP JUMP JUMPDEST PUSH32 0x546F6F206D616E7920696E707574730000000000000000000000000000000000 PUSH0 DUP3 ADD MSTORE POP JUMP JUMPDEST PUSH0 PUSH2 0x2704 PUSH1 0xF DUP4 PUSH2 0x2563 JUMP JUMPDEST SWAP2 POP PUSH2 0x270F DUP3 PUSH2 0x26D0 JUMP JUMPDEST PUSH1 0x20 DUP3 ADD SWAP1 POP SWAP2 SWAP1 POP JUMP JUMPDEST PUSH0 PUSH1 0x20 DUP3 ADD SWAP1 POP DUP2 DUP2 SUB PUSH0 DUP4 ADD MSTORE PUSH2 0x2731 DUP2 PUSH2 0x26F8 JUMP JUMPDEST SWAP1 POP SWAP2 SWAP1 POP JUMP JUMPDEST PUSH0 DUP1 REVERT JUMPDEST PUSH0 PUSH1 0x1F NOT PUSH1 0x1F DUP4 ADD AND SWAP1 POP SWAP2 SWAP1 POP JUMP JUMPDEST PUSH2 0x2755 DUP3 PUSH2 0x273C JUMP JUMPDEST DUP2 ADD DUP2 DUP2 LT PUSH8 0xFFFFFFFFFFFFFFFF DUP3 GT OR ISZERO PUSH2 0x2774 JUMPI PUSH2 0x2773 PUSH2 0x2509 JUMP JUMPDEST JUMPDEST DUP1 PUSH1 0x40 MSTORE POP POP POP JUMP JUMPDEST PUSH0 PUSH2 0x2786 PUSH2 0x2034 JUMP JUMPDEST SWAP1 POP PUSH2 0x2792 DUP3 DUP3 PUSH2 0x274C JUMP JUMPDEST SWAP2 SWAP1 POP JUMP JUMPDEST PUSH0 PUSH8 0xFFFFFFFFFFFFFFFF DUP3 GT ISZERO PUSH2 0x27B1 JUMPI PUSH2 0x27B0 PUSH2 0x2509 JUMP JUMPDEST JUMPDEST PUSH1 0x20 DUP3 MUL SWAP1 POP SWAP2 SWAP1 POP JUMP JUMPDEST PUSH0 PUSH2 0x27CE PUSH2 0x27C9 DUP5 PUSH2 0x2797 JUMP JUMPDEST PUSH2 0x277D JUMP JUMPDEST SWAP1 POP DUP1 PUSH1 0x20 DUP5 MUL DUP4 ADD DUP6 DUP2 GT ISZERO PUSH2 0x27E8 JUMPI PUSH2 0x27E7 PUSH2 0x20D6 JUMP JUMPDEST JUMPDEST DUP4 JUMPDEST DUP2 DUP2 LT ISZERO PUSH2 0x2811 JUMPI DUP1 PUSH2 0x27FD DUP9 DUP3 PUSH2 0x2172 JUMP JUMPDEST DUP5 MSTORE PUSH1 0x20 DUP5 ADD SWAP4 POP POP PUSH1 0x20 DUP2 ADD SWAP1 POP PUSH2 0x27EA JUMP JUMPDEST POP POP POP SWAP4 SWAP3 POP POP POP JUMP JUMPDEST PUSH0 DUP3 PUSH1 0x1F DUP4 ADD SLT PUSH2 0x282F JUMPI PUSH2 0x282E PUSH2 0x2201 JUMP JUMPDEST JUMPDEST PUSH1 0x2 PUSH2 0x283C DUP5 DUP3 DUP6 PUSH2 0x27BC JUMP JUMPDEST SWAP2 POP POP SWAP3 SWAP2 POP POP JUMP JUMPDEST PUSH0 PUSH8 0xFFFFFFFFFFFFFFFF DUP3 GT ISZERO PUSH2 0x285F JUMPI PUSH2 0x285E PUSH2 0x2509 JUMP JUMPDEST JUMPDEST PUSH1 0x20 DUP3 MUL SWAP1 POP SWAP2 SWAP1 POP JUMP JUMPDEST PUSH0 PUSH2 0x287C PUSH2 0x2877 DUP5 PUSH2 0x2845 JUMP JUMPDEST PUSH2 0x277D JUMP JUMPDEST SWAP1 POP DUP1 PUSH1 0x40 DUP5 MUL DUP4 ADD DUP6 DUP2 GT ISZERO PUSH2 0x2896 JUMPI PUSH2 0x2895 PUSH2 0x20D6 JUMP JUMPDEST JUMPDEST DUP4 JUMPDEST DUP2 DUP2 LT ISZERO PUSH2 0x28BF JUMPI DUP1 PUSH2 0x28AB DUP9 DUP3 PUSH2 0x281B JUMP JUMPDEST DUP5 MSTORE PUSH1 0x20 DUP5 ADD SWAP4 POP POP PUSH1 0x40 DUP2 ADD SWAP1 POP PUSH2 0x2898 JUMP JUMPDEST POP POP POP SWAP4 SWAP3 POP POP POP JUMP JUMPDEST PUSH0 DUP3 PUSH1 0x1F DUP4 ADD SLT PUSH2 0x28DD JUMPI PUSH2 0x28DC PUSH2 0x2201 JUMP JUMPDEST JUMPDEST PUSH1 0x2 PUSH2 0x28EA DUP5 DUP3 DUP6 PUSH2 0x286A JUMP JUMPDEST SWAP2 POP POP SWAP3 SWAP2 POP POP JUMP JUMPDEST PUSH0 PUSH2 0x100 DUP3 DUP5 SUB SLT ISZERO PUSH2 0x2909 JUMPI PUSH2 0x2908 PUSH2 0x2738 JUMP JUMPDEST JUMPDEST PUSH2 0x2913 PUSH1 0x60 PUSH2 0x277D JUMP JUMPDEST SWAP1 POP PUSH0 PUSH2 0x2922 DUP5 DUP3 DUP6 ADD PUSH2 0x281B JUMP JUMPDEST PUSH0 DUP4 ADD MSTORE POP PUSH1 0x40 PUSH2 0x2935 DUP5 DUP3 DUP6 ADD PUSH2 0x28C9 JUMP JUMPDEST PUSH1 0x20 DUP4 ADD MSTORE POP PUSH1 0xC0 PUSH2 0x2949 DUP5 DUP3 DUP6 ADD PUSH2 0x281B JUMP JUMPDEST PUSH1 0x40 DUP4 ADD MSTORE POP SWAP3 SWAP2 POP POP JUMP JUMPDEST PUSH0 PUSH2 0x100 DUP3 DUP5 SUB SLT ISZERO PUSH2 0x296B JUMPI PUSH2 0x296A PUSH2 0x203D JUMP JUMPDEST JUMPDEST PUSH0 PUSH2 0x2978 DUP5 DUP3 DUP6 ADD PUSH2 0x28F3 JUMP JUMPDEST SWAP2 POP POP SWAP3 SWAP2 POP POP JUMP JUMPDEST PUSH0 DUP2 SWAP1 POP SWAP3 SWAP2 POP POP JUMP JUMPDEST DUP3 DUP2 DUP4 CALLDATACOPY PUSH0 DUP4 DUP4 ADD MSTORE POP POP POP JUMP JUMPDEST PUSH0 PUSH2 0x29A4 DUP4 DUP6 PUSH2 0x2981 JUMP JUMPDEST SWAP4 POP PUSH2 0x29B1 DUP4 DUP6 DUP5 PUSH2 0x298B JUMP JUMPDEST DUP3 DUP5 ADD SWAP1 POP SWAP4 SWAP3 POP POP POP JUMP JUMPDEST PUSH0 DUP2 SWAP1 POP SWAP3 SWAP2 POP POP JUMP JUMPDEST PUSH0 DUP1 REVERT JUMPDEST DUP3 DUP2 DUP4 CALLDATACOPY POP POP POP JUMP JUMPDEST PUSH0 PUSH2 0x29DF DUP4 DUP6 PUSH2 0x29BD JUMP JUMPDEST SWAP4 POP PUSH32 0x7FFFFFFFFFFFFFFFFFFFFFFFFFFFFFFFFFFFFFFFFFFFFFFFFFFFFFFFFFFFFFF DUP4 GT ISZERO PUSH2 0x2A12 JUMPI PUSH2 0x2A11 PUSH2 0x29C7 JUMP JUMPDEST JUMPDEST PUSH1 0x20 DUP4 MUL SWAP3 POP PUSH2 0x2A23 DUP4 DUP6 DUP5 PUSH2 0x29CB JUMP JUMPDEST DUP3 DUP5 ADD SWAP1 POP SWAP4 SWAP3 POP POP POP JUMP JUMPDEST PUSH0 PUSH2 0x2A3B DUP3 DUP7 DUP9 PUSH2 0x2999 JUMP JUMPDEST SWAP2 POP PUSH2 0x2A48 DUP3 DUP5 DUP7 PUSH2 0x29D4 JUMP JUMPDEST SWAP2 POP DUP2 SWAP1 POP SWAP6 SWAP5 POP POP POP POP POP JUMP JUMPDEST PUSH32 0x50726F6F6620616C726561647920757365640000000000000000000000000000 PUSH0 DUP3 ADD MSTORE POP JUMP JUMPDEST PUSH0 PUSH2 0x2A8A PUSH1 0x12 DUP4 PUSH2 0x2563 JUMP JUMPDEST SWAP2 POP PUSH2 0x2A95 DUP3 PUSH2 0x2A56 JUMP JUMPDEST PUSH1 0x20 DUP3 ADD SWAP1 POP SWAP2 SWAP1 POP JUMP JUMPDEST PUSH0 PUSH1 0x20 DUP3 ADD SWAP1 POP DUP2 DUP2 SUB PUSH0 DUP4 ADD MSTORE PUSH2 0x2AB7 DUP2 PUSH2 0x2A7E JUMP JUMPDEST SWAP1 POP SWAP2 SWAP1 POP JUMP JUMPDEST PUSH0 PUSH2 0x2AC8 DUP3 PUSH2 0x2003 JUMP JUMPDEST SWAP2 POP PUSH2 0x2AD3 DUP4 PUSH2 0x2003 JUMP JUMPDEST SWAP3 POP DUP3 DUP3 ADD SWAP1 POP DUP1 DUP3 GT ISZERO PUSH2 0x2AEB JUMPI PUSH2 0x2AEA PUSH2 0x25DB JUMP JUMPDEST JUMPDEST SWAP3 SWAP2 POP POP JUMP JUMPDEST PUSH32 0x496E76616C696420696E707574206C656E677468000000000000000000000000 PUSH0 DUP3 ADD MSTORE POP JUMP JUMPDEST PUSH0 PUSH2 0x2B25 PUSH1 0x14 DUP4 PUSH2 0x2563 JUMP JUMPDEST SWAP2 POP PUSH2 0x2B30 DUP3 PUSH2 0x2AF1 JUMP JUMPDEST PUSH1 0x20 DUP3 ADD SWAP1 POP SWAP2 SWAP1 POP JUMP JUMPDEST PUSH0 PUSH1 0x20 DUP3 ADD SWAP1 POP DUP2 DUP2 SUB PUSH0 DUP4 ADD MSTORE PUSH2 0x2B52 DUP2 PUSH2 0x2B19 JUMP JUMPDEST SWAP1 POP SWAP2 SWAP1 POP JUMP JUMPDEST PUSH32 0x496E70757420746F6F206C617267650000000000000000000000000000000000 PUSH0 DUP3 ADD MSTORE POP JUMP JUMPDEST PUSH0 PUSH2 0x2B8D PUSH1 0xF DUP4 PUSH2 0x2563 JUMP JUMPDEST SWAP2 POP PUSH2 0x2B98 DUP3 PUSH2 0x2B59 JUMP JUMPDEST PUSH1 0x20 DUP3 ADD SWAP1 POP SWAP2 SWAP1 POP JUMP JUMPDEST PUSH0 PUSH1 0x20 DUP3 ADD SWAP1 POP DUP2 DUP2 SUB PUSH0 DUP4 ADD MSTORE PUSH2 0x2BBA DUP2 PUSH2 0x2B81 JUMP JUMPDEST SWAP1 POP SWAP2 SWAP1 POP JUMP JUMPDEST PUSH32 0x44656E6F6D696E6174696F6E2065786973747300000000000000000000000000 PUSH0 DUP3 ADD MSTORE POP JUMP JUMPDEST PUSH0 PUSH2 0x2BF5 PUSH1 0x13 DUP4 PUSH2 0x2563 JUMP JUMPDEST SWAP2 POP PUSH2 0x2C00 DUP3 PUSH2 0x2BC1 JUMP JUMPDEST PUSH1 0x20 DUP3 ADD SWAP1 POP SWAP2 SWAP1 POP JUMP JUMPDEST PUSH0 PUSH1 0x20 DUP3 ADD SWAP1 POP DUP2 DUP2 SUB PUSH0 DUP4 ADD MSTORE PUSH2 0x2C22 DUP2 PUSH2 0x2BE9 JUMP JUMPDEST SWAP1 POP SWAP2 SWAP1 POP JUMP JUMPDEST PUSH32 0x456D707479204943206172726179000000000000000000000000000000000000 PUSH0 DUP3 ADD MSTORE POP JUMP JUMPDEST PUSH0 PUSH2 0x2C5D PUSH1 0xE DUP4 PUSH2 0x2563 JUMP JUMPDEST SWAP2 POP PUSH2 0x2C68 DUP3 PUSH2 0x2C29 JUMP JUMPDEST PUSH1 0x20 DUP3 ADD SWAP1 POP SWAP2 SWAP1 POP JUMP JUMPDEST PUSH0 PUSH1 0x20 DUP3 ADD SWAP1 POP DUP2 DUP2 SUB PUSH0 DUP4 ADD MSTORE PUSH2 0x2C8A DUP2 PUSH2 0x2C51 JUMP JUMPDEST SWAP1 POP SWAP2 SWAP1 POP JUMP JUMPDEST PUSH32 0x50616972696E6720636865636B206661696C6564000000000000000000000000 PUSH0 DUP3 ADD MSTORE POP JUMP JUMPDEST PUSH0 PUSH2 0x2CC5 PUSH1 0x14 DUP4 PUSH2 0x2563 JUMP JUMPDEST SWAP2 POP PUSH2 0x2CD0 DUP3 PUSH2 0x2C91 JUMP JUMPDEST PUSH1 0x20 DUP3 ADD SWAP1 POP SWAP2 SWAP1 POP JUMP JUMPDEST PUSH0 PUSH1 0x20 DUP3 ADD SWAP1 POP DUP2 DUP2 SUB PUSH0 DUP4 ADD MSTORE PUSH2 0x2CF2 DUP2 PUSH2 0x2CB9 JUMP JUMPDEST SWAP1 POP SWAP2 SWAP1 POP JUMP JUMPDEST PUSH32 0x5363616C6172206D756C7469706C69636174696F6E206661696C656400000000 PUSH0 DUP3 ADD MSTORE POP JUMP JUMPDEST PUSH0 PUSH2 0x2D2D PUSH1 0x1C DUP4 PUSH2 0x2563 JUMP JUMPDEST SWAP2 POP PUSH2 0x2D38 DUP3 PUSH2 0x2CF9 JUMP JUMPDEST PUSH1 0x20 DUP3 ADD SWAP1 POP SWAP2 SWAP1 POP JUMP JUMPDEST PUSH0 PUSH1 0x20 DUP3 ADD SWAP1 POP DUP2 DUP2 SUB PUSH0 DUP4 ADD MSTORE PUSH2 0x2D5A DUP2 PUSH2 0x2D21 JUMP JUMPDEST SWAP1 POP SWAP2 SWAP1 POP JUMP JUMPDEST PUSH32 0x506F696E74206164646974696F6E206661696C65640000000000000000000000 PUSH0 DUP3 ADD MSTORE POP JUMP JUMPDEST PUSH0 PUSH2 0x2D95 PUSH1 0x15 DUP4 PUSH2 0x2563 JUMP JUMPDEST SWAP2 POP PUSH2 0x2DA0 DUP3 PUSH2 0x2D61 JUMP JUMPDEST PUSH1 0x20 DUP3 ADD SWAP1 POP SWAP2 SWAP1 POP JUMP JUMPDEST PUSH0 PUSH1 0x20 DUP3 ADD SWAP1 POP DUP2 DUP2 SUB PUSH0 DUP4 ADD MSTORE PUSH2 0x2DC2 DUP2 PUSH2 0x2D89 JUMP JUMPDEST SWAP1 POP SWAP2 SWAP1 POP JUMP INVALID LOG2 PUSH5 0x6970667358 0x22 SLT KECCAK256 0xFC DUP5 TIMESTAMP PUSH7 0x55413204085C1 0xA6 0xCD GAS 0x2D ADDMOD 0xC 0xCC LOG3 AND PUSH7 0x90049ABCEF5516 0xF7 SELFDESTRUCT CALLDATALOAD 0xBD PUSH5 0x736F6C6343 STOP ADDMOD BYTE STOP CALLER "
				},
				"gasEstimates": {
					"creation": {
						"codeDepositCost": "2355000",
						"executionCost": "infinite",
						"totalCost": "infinite"
					},
					"external": {
						"FIELD_SIZE()": "348",
						"MAX_INPUTS()": "349",
						"addDenomination(uint256,uint256[2][])": "infinite",
						"alpha1(uint256)": "infinite",
						"beta2(uint256,uint256)": "infinite",
						"delta2(uint256)": "infinite",
						"denominations(uint256)": "infinite",
						"gamma2(uint256)": "infinite",
						"getVerifierID()": "infinite",
						"inputCoefficients(uint256,uint256,uint256)": "infinite",
						"owner()": "2582",
						"paused()": "2584",
						"removeDenomination(uint256)": "infinite",
						"renounceOwnership()": "infinite",
						"supportedDenominations(uint256)": "2829",
						"transferOwnership(address)": "infinite",
						"verifiedProofs(bytes32)": "2831",
						"verifierIdentifier()": "infinite",
						"verifyDepositProof(bytes,uint256[],uint256)": "infinite",
						"verifyProof(uint256[8],uint256[1])": "infinite",
						"verifyWithdrawalProof(bytes,uint256[],uint256)": "infinite"
					},
					"internal": {
						"_addDenomination(uint256,uint256[2] memory[] memory)": "infinite",
						"_computeLinearCombination(uint256[] memory,uint256[2] memory[] memory)": "infinite",
						"_pointAdd(uint256,uint256,uint256,uint256)": "infinite",
						"_scalarMul(uint256[2] memory,uint256)": "infinite",
						"_verifyInputRanges(uint256[] memory)": "infinite",
						"_verifyPairing(struct MixerVerifier.Proof memory,uint256[2] memory,uint256[2] memory,uint256[2] memory[2] memory,uint256[2] memory,uint256[2] memory)": "infinite",
						"_verifyProof(struct MixerVerifier.Proof memory,uint256[] memory,uint256[2] memory[] memory)": "infinite"
					}
				},
				"methodIdentifiers": {
					"FIELD_SIZE()": "414a37ba",
					"MAX_INPUTS()": "15bf02e5",
					"addDenomination(uint256,uint256[2][])": "96e106eb",
					"alpha1(uint256)": "dc8fe0bd",
					"beta2(uint256,uint256)": "594eac4a",
					"delta2(uint256)": "c66cd380",
					"denominations(uint256)": "f3ce61ad",
					"gamma2(uint256)": "2d0a90f5",
					"getVerifierID()": "b208eae8",
					"inputCoefficients(uint256,uint256,uint256)": "442f2da6",
					"owner()": "8da5cb5b",
					"paused()": "5c975abb",
					"removeDenomination(uint256)": "31437a5d",
					"renounceOwnership()": "715018a6",
					"supportedDenominations(uint256)": "d77d63ed",
					"transferOwnership(address)": "f2fde38b",
					"verifiedProofs(bytes32)": "176d80c4",
					"verifierIdentifier()": "87511997",
					"verifyDepositProof(bytes,uint256[],uint256)": "e70a7450",
					"verifyProof(uint256[8],uint256[1])": "1b81f829",
					"verifyWithdrawalProof(bytes,uint256[],uint256)": "56de61b5"
				}
			},
			"storageLayout": {
				"storage": [
					{
						"astId": 8,
						"contract": "privacy/mixer/MixerVerifier.sol:MixerVerifier",
						"label": "_owner",
						"offset": 0,
						"slot": "0",
						"type": "t_address"
					},
					{
						"astId": 305,
						"contract": "privacy/mixer/MixerVerifier.sol:MixerVerifier",
						"label": "_status",
						"offset": 0,
						"slot": "1",
						"type": "t_uint256"
					},
					{
						"astId": 186,
						"contract": "privacy/mixer/MixerVerifier.sol:MixerVerifier",
						"label": "_paused",
						"offset": 0,
						"slot": "2",
						"type": "t_bool"
					},
					{
						"astId": 426,
						"contract": "privacy/mixer/MixerVerifier.sol:MixerVerifier",
						"label": "alpha1",
						"offset": 0,
						"slot": "3",
						"type": "t_array(t_uint256)2_storage"
					},
					{
						"astId": 432,
						"contract": "privacy/mixer/MixerVerifier.sol:MixerVerifier",
						"label": "beta2",
						"offset": 0,
						"slot": "5",
						"type": "t_array(t_array(t_uint256)2_storage)2_storage"
					},
					{
						"astId": 436,
						"contract": "privacy/mixer/MixerVerifier.sol:MixerVerifier",
						"label": "gamma2",
						"offset": 0,
						"slot": "9",
						"type": "t_array(t_uint256)2_storage"
					},
					{
						"astId": 440,
						"contract": "privacy/mixer/MixerVerifier.sol:MixerVerifier",
						"label": "delta2",
						"offset": 0,
						"slot": "11",
						"type": "t_array(t_uint256)2_storage"
					},
					{
						"astId": 447,
						"contract": "privacy/mixer/MixerVerifier.sol:MixerVerifier",
						"label": "inputCoefficients",
						"offset": 0,
						"slot": "13",
						"type": "t_mapping(t_uint256,t_array(t_array(t_uint256)2_storage)dyn_storage)"
					},
					{
						"astId": 466,
						"contract": "privacy/mixer/MixerVerifier.sol:MixerVerifier",
						"label": "verifiedProofs",
						"offset": 0,
						"slot": "14",
						"type": "t_mapping(t_bytes32,t_bool)"
					},
					{
						"astId": 470,
						"contract": "privacy/mixer/MixerVerifier.sol:MixerVerifier",
						"label": "supportedDenominations",
						"offset": 0,
						"slot": "15",
						"type": "t_mapping(t_uint256,t_bool)"
					},
					{
						"astId": 473,
						"contract": "privacy/mixer/MixerVerifier.sol:MixerVerifier",
						"label": "denominations",
						"offset": 0,
						"slot": "16",
						"type": "t_array(t_uint256)dyn_storage"
					}
				],
				"types": {
					"t_address": {
						"encoding": "inplace",
						"label": "address",
						"numberOfBytes": "20"
					},
					"t_array(t_array(t_uint256)2_storage)2_storage": {
						"base": "t_array(t_uint256)2_storage",
						"encoding": "inplace",
						"label": "uint256[2][2]",
						"numberOfBytes": "128"
					},
					"t_array(t_array(t_uint256)2_storage)dyn_storage": {
						"base": "t_array(t_uint256)2_storage",
						"encoding": "dynamic_array",
						"label": "uint256[2][]",
						"numberOfBytes": "32"
					},
					"t_array(t_uint256)2_storage": {
						"base": "t_uint256",
						"encoding": "inplace",
						"label": "uint256[2]",
						"numberOfBytes": "64"
					},
					"t_array(t_uint256)dyn_storage": {
						"base": "t_uint256",
						"encoding": "dynamic_array",
						"label": "uint256[]",
						"numberOfBytes": "32"
					},
					"t_bool": {
						"encoding": "inplace",
						"label": "bool",
						"numberOfBytes": "1"
					},
					"t_bytes32": {
						"encoding": "inplace",
						"label": "bytes32",
						"numberOfBytes": "32"
					},
					"t_mapping(t_bytes32,t_bool)": {
						"encoding": "mapping",
						"key": "t_bytes32",
						"label": "mapping(bytes32 => bool)",
						"numberOfBytes": "32",
						"value": "t_bool"
					},
					"t_mapping(t_uint256,t_array(t_array(t_uint256)2_storage)dyn_storage)": {
						"encoding": "mapping",
						"key": "t_uint256",
						"label": "mapping(uint256 => uint256[2][])",
						"numberOfBytes": "32",
						"value": "t_array(t_array(t_uint256)2_storage)dyn_storage"
					},
					"t_mapping(t_uint256,t_bool)": {
						"encoding": "mapping",
						"key": "t_uint256",
						"label": "mapping(uint256 => bool)",
						"numberOfBytes": "32",
						"value": "t_bool"
					},
					"t_uint256": {
						"encoding": "inplace",
						"label": "uint256",
						"numberOfBytes": "32"
					}
				}
			},
			"userdoc": {
				"kind": "user",
				"methods": {},
				"version": 1
			}
		}
	}
}