{
	"zkp/ZKVerifier.sol": {
		"ZKVerifier": {
			"abi": [
				{
					"inputs": [
						{
							"internalType": "address",
							"name": "initialOwner",
							"type": "address"
						}
					],
					"stateMutability": "nonpayable",
					"type": "constructor"
				},
				{
					"inputs": [],
					"name": "EnforcedPause",
					"type": "error"
				},
				{
					"inputs": [],
					"name": "ExpectedPause",
					"type": "error"
				},
				{
					"inputs": [
						{
							"internalType": "address",
							"name": "owner",
							"type": "address"
						}
					],
					"name": "OwnableInvalidOwner",
					"type": "error"
				},
				{
					"inputs": [
						{
							"internalType": "address",
							"name": "account",
							"type": "address"
						}
					],
					"name": "OwnableUnauthorizedAccount",
					"type": "error"
				},
				{
					"inputs": [],
					"name": "ReentrancyGuardReentrantCall",
					"type": "error"
				},
				{
					"anonymous": false,
					"inputs": [
						{
							"indexed": true,
							"internalType": "address",
							"name": "previousOwner",
							"type": "address"
						},
						{
							"indexed": true,
							"internalType": "address",
							"name": "newOwner",
							"type": "address"
						}
					],
					"name": "OwnershipTransferred",
					"type": "event"
				},
				{
					"anonymous": false,
					"inputs": [
						{
							"indexed": false,
							"internalType": "address",
							"name": "account",
							"type": "address"
						}
					],
					"name": "Paused",
					"type": "event"
				},
				{
					"anonymous": false,
					"inputs": [
						{
							"indexed": true,
							"internalType": "bytes32",
							"name": "proofHash",
							"type": "bytes32"
						},
						{
							"indexed": true,
							"internalType": "address",
							"name": "verifier",
							"type": "address"
						},
						{
							"indexed": true,
							"internalType": "bool",
							"name": "success",
							"type": "bool"
						},
						{
							"indexed": false,
							"internalType": "uint256",
							"name": "timestamp",
							"type": "uint256"
						}
					],
					"name": "ProofVerified",
					"type": "event"
				},
				{
					"anonymous": false,
					"inputs": [
						{
							"indexed": false,
							"internalType": "address",
							"name": "account",
							"type": "address"
						}
					],
					"name": "Unpaused",
					"type": "event"
				},
				{
					"anonymous": false,
					"inputs": [
						{
							"indexed": true,
							"internalType": "bytes32",
							"name": "proofHash",
							"type": "bytes32"
						},
						{
							"indexed": false,
							"internalType": "string",
							"name": "reason",
							"type": "string"
						},
						{
							"indexed": false,
							"internalType": "uint256",
							"name": "timestamp",
							"type": "uint256"
						}
					],
					"name": "VerifierError",
					"type": "event"
				},
				{
					"inputs": [
						{
							"internalType": "uint256",
							"name": "blocksBack",
							"type": "uint256"
						}
					],
					"name": "clearOldBlockCounts",
					"outputs": [],
					"stateMutability": "nonpayable",
					"type": "function"
				},
				{
					"inputs": [
						{
							"internalType": "bytes32",
							"name": "proofHash",
							"type": "bytes32"
						}
					],
					"name": "getVerificationInfo",
					"outputs": [
						{
							"internalType": "bool",
							"name": "verified",
							"type": "bool"
						},
						{
							"internalType": "uint256",
							"name": "verificationTime",
							"type": "uint256"
						}
					],
					"stateMutability": "view",
					"type": "function"
				},
				{
					"inputs": [],
					"name": "owner",
					"outputs": [
						{
							"internalType": "address",
							"name": "",
							"type": "address"
						}
					],
					"stateMutability": "view",
					"type": "function"
				},
				{
					"inputs": [],
					"name": "pause",
					"outputs": [],
					"stateMutability": "nonpayable",
					"type": "function"
				},
				{
					"inputs": [],
					"name": "paused",
					"outputs": [
						{
							"internalType": "bool",
							"name": "",
							"type": "bool"
						}
					],
					"stateMutability": "view",
					"type": "function"
				},
				{
					"inputs": [],
					"name": "renounceOwnership",
					"outputs": [],
					"stateMutability": "nonpayable",
					"type": "function"
				},
				{
					"inputs": [
						{
							"internalType": "address",
							"name": "newOwner",
							"type": "address"
						}
					],
					"name": "transferOwnership",
					"outputs": [],
					"stateMutability": "nonpayable",
					"type": "function"
				},
				{
					"inputs": [],
					"name": "unpause",
					"outputs": [],
					"stateMutability": "nonpayable",
					"type": "function"
				},
				{
					"inputs": [
						{
							"internalType": "bytes32",
							"name": "",
							"type": "bytes32"
						}
					],
					"name": "verifiedProofs",
					"outputs": [
						{
							"internalType": "bool",
							"name": "",
							"type": "bool"
						}
					],
					"stateMutability": "view",
					"type": "function"
				},
				{
					"inputs": [
						{
							"internalType": "uint256[8]",
							"name": "proof",
							"type": "uint256[8]"
						},
						{
							"internalType": "uint256[1]",
							"name": "input",
							"type": "uint256[1]"
						}
					],
					"name": "verifyAndRecordProof",
					"outputs": [
						{
							"internalType": "bool",
							"name": "",
							"type": "bool"
						}
					],
					"stateMutability": "nonpayable",
					"type": "function"
				},
				{
					"inputs": [
						{
							"internalType": "uint256[8]",
							"name": "proof",
							"type": "uint256[8]"
						},
						{
							"internalType": "uint256[1]",
							"name": "input",
							"type": "uint256[1]"
						}
					],
					"name": "verifyProof",
					"outputs": [
						{
							"internalType": "bool",
							"name": "",
							"type": "bool"
						}
					],
					"stateMutability": "view",
					"type": "function"
				}
			],
			"devdoc": {
				"errors": {
					"EnforcedPause()": [
						{
							"details": "The operation failed because the contract is paused."
						}
					],
					"ExpectedPause()": [
						{
							"details": "The operation failed because the contract is not paused."
						}
					],
					"OwnableInvalidOwner(address)": [
						{
							"details": "The owner is not a valid owner account. (eg. `address(0)`)"
						}
					],
					"OwnableUnauthorizedAccount(address)": [
						{
							"details": "The caller account is not authorized to perform an operation."
						}
					],
					"ReentrancyGuardReentrantCall()": [
						{
							"details": "Unauthorized reentrant call."
						}
					]
				},
				"events": {
					"Paused(address)": {
						"details": "Emitted when the pause is triggered by `account`."
					},
					"Unpaused(address)": {
						"details": "Emitted when the pause is lifted by `account`."
					}
				},
				"kind": "dev",
				"methods": {
					"owner()": {
						"details": "Returns the address of the current owner."
					},
					"paused()": {
						"details": "Returns true if the contract is paused, and false otherwise."
					},
					"renounceOwnership()": {
						"details": "Leaves the contract without owner. It will not be possible to call `onlyOwner` functions. Can only be called by the current owner. NOTE: Renouncing ownership will leave the contract without an owner, thereby disabling any functionality that is only available to the owner."
					},
					"transferOwnership(address)": {
						"details": "Transfers ownership of the contract to a new account (`newOwner`). Can only be called by the current owner."
					}
				},
				"version": 1
			},
			"evm": {
				"assembly": "    /* \"zkp/ZKVerifier.sol\":374:6512  contract ZKVerifier is IZKVerifier, Ownable, Pausable, ReentrancyGuard {... */\n  mstore(0x40, 0x80)\n    /* \"zkp/ZKVerifier.sol\":1618:1793  constructor(address initialOwner) Ownable(initialOwner) {... */\n  callvalue\n  dup1\n  iszero\n  tag_1\n  jumpi\n  0x00\n  dup1\n  revert\ntag_1:\n  pop\n  mload(0x40)\n  sub(codesize, bytecodeSize)\n  dup1\n  bytecodeSize\n  dup4\n  codecopy\n  dup2\n  dup2\n  add\n  0x40\n  mstore\n  dup2\n  add\n  swap1\n  tag_2\n  swap2\n  swap1\n  tag_3\n  jump\t// in\ntag_2:\n    /* \"zkp/ZKVerifier.sol\":1660:1672  initialOwner */\n  dup1\n    /* \"@openzeppelin/contracts/access/Ownable.sol\":1297:1298  0 */\n  0x00\n    /* \"@openzeppelin/contracts/access/Ownable.sol\":1273:1299  initialOwner == address(0) */\n  0xffffffffffffffffffffffffffffffffffffffff\n  and\n    /* \"@openzeppelin/contracts/access/Ownable.sol\":1273:1285  initialOwner */\n  dup2\n    /* \"@openzeppelin/contracts/access/Ownable.sol\":1273:1299  initialOwner == address(0) */\n  0xffffffffffffffffffffffffffffffffffffffff\n  and\n  sub\n    /* \"@openzeppelin/contracts/access/Ownable.sol\":1269:1364  if (initialOwner == address(0)) {... */\n  tag_9\n  jumpi\n    /* \"@openzeppelin/contracts/access/Ownable.sol\":1350:1351  0 */\n  0x00\n    /* \"@openzeppelin/contracts/access/Ownable.sol\":1322:1353  OwnableInvalidOwner(address(0)) */\n  mload(0x40)\n  0x1e4fbdf700000000000000000000000000000000000000000000000000000000\n  dup2\n  mstore\n  0x04\n  add\n  tag_10\n  swap2\n  swap1\n  tag_11\n  jump\t// in\ntag_10:\n  mload(0x40)\n  dup1\n  swap2\n  sub\n  swap1\n  revert\n    /* \"@openzeppelin/contracts/access/Ownable.sol\":1269:1364  if (initialOwner == address(0)) {... */\ntag_9:\n    /* \"@openzeppelin/contracts/access/Ownable.sol\":1373:1405  _transferOwnership(initialOwner) */\n  tag_12\n    /* \"@openzeppelin/contracts/access/Ownable.sol\":1392:1404  initialOwner */\n  dup2\n    /* \"@openzeppelin/contracts/access/Ownable.sol\":1373:1391  _transferOwnership */\n  shl(0x20, tag_13)\n    /* \"@openzeppelin/contracts/access/Ownable.sol\":1373:1405  _transferOwnership(initialOwner) */\n  0x20\n  shr\n  jump\t// in\ntag_12:\n    /* \"@openzeppelin/contracts/access/Ownable.sol\":1225:1412  constructor(address initialOwner) {... */\n  pop\n    /* \"@openzeppelin/contracts/utils/Pausable.sol\":1241:1246  false */\n  0x00\n    /* \"@openzeppelin/contracts/utils/Pausable.sol\":1231:1238  _paused */\n  dup1\n  0x14\n    /* \"@openzeppelin/contracts/utils/Pausable.sol\":1231:1246  _paused = false */\n  0x0100\n  exp\n  dup2\n  sload\n  dup2\n  0xff\n  mul\n  not\n  and\n  swap1\n  dup4\n  iszero\n  iszero\n  mul\n  or\n  swap1\n  sstore\n  pop\n    /* \"@openzeppelin/contracts/utils/ReentrancyGuard.sol\":1857:1858  1 */\n  0x01\n    /* \"@openzeppelin/contracts/utils/ReentrancyGuard.sol\":2061:2068  _status */\n  dup1\n    /* \"@openzeppelin/contracts/utils/ReentrancyGuard.sol\":2061:2082  _status = NOT_ENTERED */\n  dup2\n  swap1\n  sstore\n  pop\n    /* \"zkp/ZKVerifier.sol\":1717:1718  0 */\n  0x00\n    /* \"zkp/ZKVerifier.sol\":1693:1719  initialOwner != address(0) */\n  0xffffffffffffffffffffffffffffffffffffffff\n  and\n    /* \"zkp/ZKVerifier.sol\":1693:1705  initialOwner */\n  dup2\n    /* \"zkp/ZKVerifier.sol\":1693:1719  initialOwner != address(0) */\n  0xffffffffffffffffffffffffffffffffffffffff\n  and\n  sub\n    /* \"zkp/ZKVerifier.sol\":1685:1737  require(initialOwner != address(0), \"Invalid owner\") */\n  tag_17\n  jumpi\n  mload(0x40)\n  0x08c379a000000000000000000000000000000000000000000000000000000000\n  dup2\n  mstore\n  0x04\n  add\n  tag_18\n  swap1\n  tag_19\n  jump\t// in\ntag_18:\n  mload(0x40)\n  dup1\n  swap2\n  sub\n  swap1\n  revert\ntag_17:\n    /* \"zkp/ZKVerifier.sol\":1748:1756  _pause() */\n  tag_20\n    /* \"zkp/ZKVerifier.sol\":1748:1754  _pause */\n  shl(0x20, tag_21)\n    /* \"zkp/ZKVerifier.sol\":1748:1756  _pause() */\n  0x20\n  shr\n  jump\t// in\ntag_20:\n    /* \"zkp/ZKVerifier.sol\":1618:1793  constructor(address initialOwner) Ownable(initialOwner) {... */\n  pop\n    /* \"zkp/ZKVerifier.sol\":374:6512  contract ZKVerifier is IZKVerifier, Ownable, Pausable, ReentrancyGuard {... */\n  jump(tag_22)\n    /* \"@openzeppelin/contracts/access/Ownable.sol\":2912:3099  function _transferOwnership(address newOwner) internal virtual {... */\ntag_13:\n    /* \"@openzeppelin/contracts/access/Ownable.sol\":2985:3001  address oldOwner */\n  0x00\n    /* \"@openzeppelin/contracts/access/Ownable.sol\":3004:3010  _owner */\n  dup1\n  0x00\n  swap1\n  sload\n  swap1\n  0x0100\n  exp\n  swap1\n  div\n  0xffffffffffffffffffffffffffffffffffffffff\n  and\n    /* \"@openzeppelin/contracts/access/Ownable.sol\":2985:3010  address oldOwner = _owner */\n  swap1\n  pop\n    /* \"@openzeppelin/contracts/access/Ownable.sol\":3029:3037  newOwner */\n  dup2\n    /* \"@openzeppelin/contracts/access/Ownable.sol\":3020:3026  _owner */\n  0x00\n  dup1\n    /* \"@openzeppelin/contracts/access/Ownable.sol\":3020:3037  _owner = newOwner */\n  0x0100\n  exp\n  dup2\n  sload\n  dup2\n  0xffffffffffffffffffffffffffffffffffffffff\n  mul\n  not\n  and\n  swap1\n  dup4\n  0xffffffffffffffffffffffffffffffffffffffff\n  and\n  mul\n  or\n  swap1\n  sstore\n  pop\n    /* \"@openzeppelin/contracts/access/Ownable.sol\":3083:3091  newOwner */\n  dup2\n    /* \"@openzeppelin/contracts/access/Ownable.sol\":3052:3092  OwnershipTransferred(oldOwner, newOwner) */\n  0xffffffffffffffffffffffffffffffffffffffff\n  and\n    /* \"@openzeppelin/contracts/access/Ownable.sol\":3073:3081  oldOwner */\n  dup2\n    /* \"@openzeppelin/contracts/access/Ownable.sol\":3052:3092  OwnershipTransferred(oldOwner, newOwner) */\n  0xffffffffffffffffffffffffffffffffffffffff\n  and\n  0x8be0079c531659141344cd1fd0a4f28419497f9722a3daafe3b4186f6b6457e0\n  mload(0x40)\n  mload(0x40)\n  dup1\n  swap2\n  sub\n  swap1\n  log3\n    /* \"@openzeppelin/contracts/access/Ownable.sol\":2975:3099  {... */\n  pop\n    /* \"@openzeppelin/contracts/access/Ownable.sol\":2912:3099  function _transferOwnership(address newOwner) internal virtual {... */\n  pop\n  jump\t// out\n    /* \"@openzeppelin/contracts/utils/Pausable.sol\":2463:2578  function _pause() internal virtual whenNotPaused {... */\ntag_21:\n    /* \"@openzeppelin/contracts/utils/Pausable.sol\":1474:1493  _requireNotPaused() */\n  tag_25\n    /* \"@openzeppelin/contracts/utils/Pausable.sol\":1474:1491  _requireNotPaused */\n  shl(0x20, tag_26)\n    /* \"@openzeppelin/contracts/utils/Pausable.sol\":1474:1493  _requireNotPaused() */\n  0x20\n  shr\n  jump\t// in\ntag_25:\n    /* \"@openzeppelin/contracts/utils/Pausable.sol\":2532:2536  true */\n  0x01\n    /* \"@openzeppelin/contracts/utils/Pausable.sol\":2522:2529  _paused */\n  0x00\n  0x14\n    /* \"@openzeppelin/contracts/utils/Pausable.sol\":2522:2536  _paused = true */\n  0x0100\n  exp\n  dup2\n  sload\n  dup2\n  0xff\n  mul\n  not\n  and\n  swap1\n  dup4\n  iszero\n  iszero\n  mul\n  or\n  swap1\n  sstore\n  pop\n    /* \"@openzeppelin/contracts/utils/Pausable.sol\":2551:2571  Paused(_msgSender()) */\n  0x62e78cea01bee320cd4e420270b5ea74000d11b0c9f74754ebdbfc544b05a258\n    /* \"@openzeppelin/contracts/utils/Pausable.sol\":2558:2570  _msgSender() */\n  tag_28\n    /* \"@openzeppelin/contracts/utils/Pausable.sol\":2558:2568  _msgSender */\n  shl(0x20, tag_29)\n    /* \"@openzeppelin/contracts/utils/Pausable.sol\":2558:2570  _msgSender() */\n  0x20\n  shr\n  jump\t// in\ntag_28:\n    /* \"@openzeppelin/contracts/utils/Pausable.sol\":2551:2571  Paused(_msgSender()) */\n  mload(0x40)\n  tag_30\n  swap2\n  swap1\n  tag_11\n  jump\t// in\ntag_30:\n  mload(0x40)\n  dup1\n  swap2\n  sub\n  swap1\n  log1\n    /* \"@openzeppelin/contracts/utils/Pausable.sol\":2463:2578  function _pause() internal virtual whenNotPaused {... */\n  jump\t// out\n    /* \"@openzeppelin/contracts/utils/Pausable.sol\":2002:2130  function _requireNotPaused() internal view virtual {... */\ntag_26:\n    /* \"@openzeppelin/contracts/utils/Pausable.sol\":2067:2075  paused() */\n  tag_32\n    /* \"@openzeppelin/contracts/utils/Pausable.sol\":2067:2073  paused */\n  shl(0x20, tag_33)\n    /* \"@openzeppelin/contracts/utils/Pausable.sol\":2067:2075  paused() */\n  0x20\n  shr\n  jump\t// in\ntag_32:\n    /* \"@openzeppelin/contracts/utils/Pausable.sol\":2063:2124  if (paused()) {... */\n  iszero\n  tag_34\n  jumpi\n    /* \"@openzeppelin/contracts/utils/Pausable.sol\":2098:2113  EnforcedPause() */\n  mload(0x40)\n  0xd93c066500000000000000000000000000000000000000000000000000000000\n  dup2\n  mstore\n  0x04\n  add\n  mload(0x40)\n  dup1\n  swap2\n  sub\n  swap1\n  revert\n    /* \"@openzeppelin/contracts/utils/Pausable.sol\":2063:2124  if (paused()) {... */\ntag_34:\n    /* \"@openzeppelin/contracts/utils/Pausable.sol\":2002:2130  function _requireNotPaused() internal view virtual {... */\n  jump\t// out\n    /* \"@openzeppelin/contracts/utils/Context.sol\":656:752  function _msgSender() internal view virtual returns (address) {... */\ntag_29:\n    /* \"@openzeppelin/contracts/utils/Context.sol\":709:716  address */\n  0x00\n    /* \"@openzeppelin/contracts/utils/Context.sol\":735:745  msg.sender */\n  caller\n    /* \"@openzeppelin/contracts/utils/Context.sol\":728:745  return msg.sender */\n  swap1\n  pop\n    /* \"@openzeppelin/contracts/utils/Context.sol\":656:752  function _msgSender() internal view virtual returns (address) {... */\n  swap1\n  jump\t// out\n    /* \"@openzeppelin/contracts/utils/Pausable.sol\":1850:1934  function paused() public view virtual returns (bool) {... */\ntag_33:\n    /* \"@openzeppelin/contracts/utils/Pausable.sol\":1897:1901  bool */\n  0x00\n    /* \"@openzeppelin/contracts/utils/Pausable.sol\":1920:1927  _paused */\n  dup1\n  0x14\n  swap1\n  sload\n  swap1\n  0x0100\n  exp\n  swap1\n  div\n  0xff\n  and\n    /* \"@openzeppelin/contracts/utils/Pausable.sol\":1913:1927  return _paused */\n  swap1\n  pop\n    /* \"@openzeppelin/contracts/utils/Pausable.sol\":1850:1934  function paused() public view virtual returns (bool) {... */\n  swap1\n  jump\t// out\n    /* \"#utility.yul\":88:205   */\ntag_38:\n    /* \"#utility.yul\":197:198   */\n  0x00\n    /* \"#utility.yul\":194:195   */\n  dup1\n    /* \"#utility.yul\":187:199   */\n  revert\n    /* \"#utility.yul\":334:460   */\ntag_40:\n    /* \"#utility.yul\":371:378   */\n  0x00\n    /* \"#utility.yul\":411:453   */\n  0xffffffffffffffffffffffffffffffffffffffff\n    /* \"#utility.yul\":404:409   */\n  dup3\n    /* \"#utility.yul\":400:454   */\n  and\n    /* \"#utility.yul\":389:454   */\n  swap1\n  pop\n    /* \"#utility.yul\":334:460   */\n  swap2\n  swap1\n  pop\n  jump\t// out\n    /* \"#utility.yul\":466:562   */\ntag_41:\n    /* \"#utility.yul\":503:510   */\n  0x00\n    /* \"#utility.yul\":532:556   */\n  tag_54\n    /* \"#utility.yul\":550:555   */\n  dup3\n    /* \"#utility.yul\":532:556   */\n  tag_40\n  jump\t// in\ntag_54:\n    /* \"#utility.yul\":521:556   */\n  swap1\n  pop\n    /* \"#utility.yul\":466:562   */\n  swap2\n  swap1\n  pop\n  jump\t// out\n    /* \"#utility.yul\":568:690   */\ntag_42:\n    /* \"#utility.yul\":641:665   */\n  tag_56\n    /* \"#utility.yul\":659:664   */\n  dup2\n    /* \"#utility.yul\":641:665   */\n  tag_41\n  jump\t// in\ntag_56:\n    /* \"#utility.yul\":634:639   */\n  dup2\n    /* \"#utility.yul\":631:666   */\n  eq\n    /* \"#utility.yul\":621:684   */\n  tag_57\n  jumpi\n    /* \"#utility.yul\":680:681   */\n  0x00\n    /* \"#utility.yul\":677:678   */\n  dup1\n    /* \"#utility.yul\":670:682   */\n  revert\n    /* \"#utility.yul\":621:684   */\ntag_57:\n    /* \"#utility.yul\":568:690   */\n  pop\n  jump\t// out\n    /* \"#utility.yul\":696:839   */\ntag_43:\n    /* \"#utility.yul\":753:758   */\n  0x00\n    /* \"#utility.yul\":784:790   */\n  dup2\n    /* \"#utility.yul\":778:791   */\n  mload\n    /* \"#utility.yul\":769:791   */\n  swap1\n  pop\n    /* \"#utility.yul\":800:833   */\n  tag_59\n    /* \"#utility.yul\":827:832   */\n  dup2\n    /* \"#utility.yul\":800:833   */\n  tag_42\n  jump\t// in\ntag_59:\n    /* \"#utility.yul\":696:839   */\n  swap3\n  swap2\n  pop\n  pop\n  jump\t// out\n    /* \"#utility.yul\":845:1196   */\ntag_3:\n    /* \"#utility.yul\":915:921   */\n  0x00\n    /* \"#utility.yul\":964:966   */\n  0x20\n    /* \"#utility.yul\":952:961   */\n  dup3\n    /* \"#utility.yul\":943:950   */\n  dup5\n    /* \"#utility.yul\":939:962   */\n  sub\n    /* \"#utility.yul\":935:967   */\n  slt\n    /* \"#utility.yul\":932:1051   */\n  iszero\n  tag_61\n  jumpi\n    /* \"#utility.yul\":970:1049   */\n  tag_62\n  tag_38\n  jump\t// in\ntag_62:\n    /* \"#utility.yul\":932:1051   */\ntag_61:\n    /* \"#utility.yul\":1090:1091   */\n  0x00\n    /* \"#utility.yul\":1115:1179   */\n  tag_63\n    /* \"#utility.yul\":1171:1178   */\n  dup5\n    /* \"#utility.yul\":1162:1168   */\n  dup3\n    /* \"#utility.yul\":1151:1160   */\n  dup6\n    /* \"#utility.yul\":1147:1169   */\n  add\n    /* \"#utility.yul\":1115:1179   */\n  tag_43\n  jump\t// in\ntag_63:\n    /* \"#utility.yul\":1105:1179   */\n  swap2\n  pop\n    /* \"#utility.yul\":1061:1189   */\n  pop\n    /* \"#utility.yul\":845:1196   */\n  swap3\n  swap2\n  pop\n  pop\n  jump\t// out\n    /* \"#utility.yul\":1202:1320   */\ntag_44:\n    /* \"#utility.yul\":1289:1313   */\n  tag_65\n    /* \"#utility.yul\":1307:1312   */\n  dup2\n    /* \"#utility.yul\":1289:1313   */\n  tag_41\n  jump\t// in\ntag_65:\n    /* \"#utility.yul\":1284:1287   */\n  dup3\n    /* \"#utility.yul\":1277:1314   */\n  mstore\n    /* \"#utility.yul\":1202:1320   */\n  pop\n  pop\n  jump\t// out\n    /* \"#utility.yul\":1326:1548   */\ntag_11:\n    /* \"#utility.yul\":1419:1423   */\n  0x00\n    /* \"#utility.yul\":1457:1459   */\n  0x20\n    /* \"#utility.yul\":1446:1455   */\n  dup3\n    /* \"#utility.yul\":1442:1460   */\n  add\n    /* \"#utility.yul\":1434:1460   */\n  swap1\n  pop\n    /* \"#utility.yul\":1470:1541   */\n  tag_67\n    /* \"#utility.yul\":1538:1539   */\n  0x00\n    /* \"#utility.yul\":1527:1536   */\n  dup4\n    /* \"#utility.yul\":1523:1540   */\n  add\n    /* \"#utility.yul\":1514:1520   */\n  dup5\n    /* \"#utility.yul\":1470:1541   */\n  tag_44\n  jump\t// in\ntag_67:\n    /* \"#utility.yul\":1326:1548   */\n  swap3\n  swap2\n  pop\n  pop\n  jump\t// out\n    /* \"#utility.yul\":1554:1723   */\ntag_45:\n    /* \"#utility.yul\":1638:1649   */\n  0x00\n    /* \"#utility.yul\":1672:1678   */\n  dup3\n    /* \"#utility.yul\":1667:1670   */\n  dup3\n    /* \"#utility.yul\":1660:1679   */\n  mstore\n    /* \"#utility.yul\":1712:1716   */\n  0x20\n    /* \"#utility.yul\":1707:1710   */\n  dup3\n    /* \"#utility.yul\":1703:1717   */\n  add\n    /* \"#utility.yul\":1688:1717   */\n  swap1\n  pop\n    /* \"#utility.yul\":1554:1723   */\n  swap3\n  swap2\n  pop\n  pop\n  jump\t// out\n    /* \"#utility.yul\":1729:1892   */\ntag_46:\n    /* \"#utility.yul\":1869:1884   */\n  0x496e76616c6964206f776e657200000000000000000000000000000000000000\n    /* \"#utility.yul\":1865:1866   */\n  0x00\n    /* \"#utility.yul\":1857:1863   */\n  dup3\n    /* \"#utility.yul\":1853:1867   */\n  add\n    /* \"#utility.yul\":1846:1885   */\n  mstore\n    /* \"#utility.yul\":1729:1892   */\n  pop\n  jump\t// out\n    /* \"#utility.yul\":1898:2264   */\ntag_47:\n    /* \"#utility.yul\":2040:2043   */\n  0x00\n    /* \"#utility.yul\":2061:2128   */\n  tag_71\n    /* \"#utility.yul\":2125:2127   */\n  0x0d\n    /* \"#utility.yul\":2120:2123   */\n  dup4\n    /* \"#utility.yul\":2061:2128   */\n  tag_45\n  jump\t// in\ntag_71:\n    /* \"#utility.yul\":2054:2128   */\n  swap2\n  pop\n    /* \"#utility.yul\":2137:2230   */\n  tag_72\n    /* \"#utility.yul\":2226:2229   */\n  dup3\n    /* \"#utility.yul\":2137:2230   */\n  tag_46\n  jump\t// in\ntag_72:\n    /* \"#utility.yul\":2255:2257   */\n  0x20\n    /* \"#utility.yul\":2250:2253   */\n  dup3\n    /* \"#utility.yul\":2246:2258   */\n  add\n    /* \"#utility.yul\":2239:2258   */\n  swap1\n  pop\n    /* \"#utility.yul\":1898:2264   */\n  swap2\n  swap1\n  pop\n  jump\t// out\n    /* \"#utility.yul\":2270:2689   */\ntag_19:\n    /* \"#utility.yul\":2436:2440   */\n  0x00\n    /* \"#utility.yul\":2474:2476   */\n  0x20\n    /* \"#utility.yul\":2463:2472   */\n  dup3\n    /* \"#utility.yul\":2459:2477   */\n  add\n    /* \"#utility.yul\":2451:2477   */\n  swap1\n  pop\n    /* \"#utility.yul\":2523:2532   */\n  dup2\n    /* \"#utility.yul\":2517:2521   */\n  dup2\n    /* \"#utility.yul\":2513:2533   */\n  sub\n    /* \"#utility.yul\":2509:2510   */\n  0x00\n    /* \"#utility.yul\":2498:2507   */\n  dup4\n    /* \"#utility.yul\":2494:2511   */\n  add\n    /* \"#utility.yul\":2487:2534   */\n  mstore\n    /* \"#utility.yul\":2551:2682   */\n  tag_74\n    /* \"#utility.yul\":2677:2681   */\n  dup2\n    /* \"#utility.yul\":2551:2682   */\n  tag_47\n  jump\t// in\ntag_74:\n    /* \"#utility.yul\":2543:2682   */\n  swap1\n  pop\n    /* \"#utility.yul\":2270:2689   */\n  swap2\n  swap1\n  pop\n  jump\t// out\n    /* \"zkp/ZKVerifier.sol\":374:6512  contract ZKVerifier is IZKVerifier, Ownable, Pausable, ReentrancyGuard {... */\ntag_22:\n  dataSize(sub_0)\n  dup1\n  dataOffset(sub_0)\n  0x00\n  codecopy\n  0x00\n  return\nstop\n\nsub_0: assembly {\n        /* \"zkp/ZKVerifier.sol\":374:6512  contract ZKVerifier is IZKVerifier, Ownable, Pausable, ReentrancyGuard {... */\n      mstore(0x40, 0x80)\n      callvalue\n      dup1\n      iszero\n      tag_1\n      jumpi\n      0x00\n      dup1\n      revert\n    tag_1:\n      pop\n      jumpi(tag_2, lt(calldatasize, 0x04))\n      shr(0xe0, calldataload(0x00))\n      dup1\n      0x715018a6\n      gt\n      tag_14\n      jumpi\n      dup1\n      0x715018a6\n      eq\n      tag_8\n      jumpi\n      dup1\n      0x8456cb59\n      eq\n      tag_9\n      jumpi\n      dup1\n      0x8da5cb5b\n      eq\n      tag_10\n      jumpi\n      dup1\n      0xc8fea3a5\n      eq\n      tag_11\n      jumpi\n      dup1\n      0xcd95fe6b\n      eq\n      tag_12\n      jumpi\n      dup1\n      0xf2fde38b\n      eq\n      tag_13\n      jumpi\n      jump(tag_2)\n    tag_14:\n      dup1\n      0x176d80c4\n      eq\n      tag_3\n      jumpi\n      dup1\n      0x1b81f829\n      eq\n      tag_4\n      jumpi\n      dup1\n      0x3f4ba83a\n      eq\n      tag_5\n      jumpi\n      dup1\n      0x41f03c69\n      eq\n      tag_6\n      jumpi\n      dup1\n      0x5c975abb\n      eq\n      tag_7\n      jumpi\n    tag_2:\n      0x00\n      dup1\n      revert\n        /* \"zkp/ZKVerifier.sol\":1028:1074  mapping(bytes32 => bool) public verifiedProofs */\n    tag_3:\n      tag_15\n      0x04\n      dup1\n      calldatasize\n      sub\n      dup2\n      add\n      swap1\n      tag_16\n      swap2\n      swap1\n      tag_17\n      jump\t// in\n    tag_16:\n      tag_18\n      jump\t// in\n    tag_15:\n      mload(0x40)\n      tag_19\n      swap2\n      swap1\n      tag_20\n      jump\t// in\n    tag_19:\n      mload(0x40)\n      dup1\n      swap2\n      sub\n      swap1\n      return\n        /* \"zkp/ZKVerifier.sol\":1801:2319  function verifyProof(... */\n    tag_4:\n      tag_21\n      0x04\n      dup1\n      calldatasize\n      sub\n      dup2\n      add\n      swap1\n      tag_22\n      swap2\n      swap1\n      tag_23\n      jump\t// in\n    tag_22:\n      tag_24\n      jump\t// in\n    tag_21:\n      mload(0x40)\n      tag_25\n      swap2\n      swap1\n      tag_20\n      jump\t// in\n    tag_25:\n      mload(0x40)\n      dup1\n      swap2\n      sub\n      swap1\n      return\n        /* \"zkp/ZKVerifier.sol\":6442:6509  function unpause() external onlyOwner {... */\n    tag_5:\n      tag_26\n      tag_27\n      jump\t// in\n    tag_26:\n      stop\n        /* \"zkp/ZKVerifier.sol\":6152:6363  function getVerificationInfo(... */\n    tag_6:\n      tag_28\n      0x04\n      dup1\n      calldatasize\n      sub\n      dup2\n      add\n      swap1\n      tag_29\n      swap2\n      swap1\n      tag_17\n      jump\t// in\n    tag_29:\n      tag_30\n      jump\t// in\n    tag_28:\n      mload(0x40)\n      tag_31\n      swap3\n      swap2\n      swap1\n      tag_32\n      jump\t// in\n    tag_31:\n      mload(0x40)\n      dup1\n      swap2\n      sub\n      swap1\n      return\n        /* \"@openzeppelin/contracts/utils/Pausable.sol\":1850:1934  function paused() public view virtual returns (bool) {... */\n    tag_7:\n      tag_33\n      tag_34\n      jump\t// in\n    tag_33:\n      mload(0x40)\n      tag_35\n      swap2\n      swap1\n      tag_20\n      jump\t// in\n    tag_35:\n      mload(0x40)\n      dup1\n      swap2\n      sub\n      swap1\n      return\n        /* \"@openzeppelin/contracts/access/Ownable.sol\":2293:2394  function renounceOwnership() public virtual onlyOwner {... */\n    tag_8:\n      tag_36\n      tag_37\n      jump\t// in\n    tag_36:\n      stop\n        /* \"zkp/ZKVerifier.sol\":6371:6434  function pause() external onlyOwner {... */\n    tag_9:\n      tag_38\n      tag_39\n      jump\t// in\n    tag_38:\n      stop\n        /* \"@openzeppelin/contracts/access/Ownable.sol\":1638:1723  function owner() public view virtual returns (address) {... */\n    tag_10:\n      tag_40\n      tag_41\n      jump\t// in\n    tag_40:\n      mload(0x40)\n      tag_42\n      swap2\n      swap1\n      tag_43\n      jump\t// in\n    tag_42:\n      mload(0x40)\n      dup1\n      swap2\n      sub\n      swap1\n      return\n        /* \"zkp/ZKVerifier.sol\":5819:6144  function clearOldBlockCounts(uint256 blocksBack) external onlyOwner {... */\n    tag_11:\n      tag_44\n      0x04\n      dup1\n      calldatasize\n      sub\n      dup2\n      add\n      swap1\n      tag_45\n      swap2\n      swap1\n      tag_46\n      jump\t// in\n    tag_45:\n      tag_47\n      jump\t// in\n    tag_44:\n      stop\n        /* \"zkp/ZKVerifier.sol\":2327:3379  function verifyAndRecordProof(... */\n    tag_12:\n      tag_48\n      0x04\n      dup1\n      calldatasize\n      sub\n      dup2\n      add\n      swap1\n      tag_49\n      swap2\n      swap1\n      tag_23\n      jump\t// in\n    tag_49:\n      tag_50\n      jump\t// in\n    tag_48:\n      mload(0x40)\n      tag_51\n      swap2\n      swap1\n      tag_20\n      jump\t// in\n    tag_51:\n      mload(0x40)\n      dup1\n      swap2\n      sub\n      swap1\n      return\n        /* \"@openzeppelin/contracts/access/Ownable.sol\":2543:2758  function transferOwnership(address newOwner) public virtual onlyOwner {... */\n    tag_13:\n      tag_52\n      0x04\n      dup1\n      calldatasize\n      sub\n      dup2\n      add\n      swap1\n      tag_53\n      swap2\n      swap1\n      tag_54\n      jump\t// in\n    tag_53:\n      tag_55\n      jump\t// in\n    tag_52:\n      stop\n        /* \"zkp/ZKVerifier.sol\":1028:1074  mapping(bytes32 => bool) public verifiedProofs */\n    tag_18:\n      mstore(0x20, 0x03)\n      dup1\n      0x00\n      mstore\n      keccak256(0x00, 0x40)\n      0x00\n      swap2\n      pop\n      sload\n      swap1\n      0x0100\n      exp\n      swap1\n      div\n      0xff\n      and\n      dup2\n      jump\t// out\n        /* \"zkp/ZKVerifier.sol\":1801:2319  function verifyProof(... */\n    tag_24:\n        /* \"zkp/ZKVerifier.sol\":1947:1951  bool */\n      0x00\n        /* \"@openzeppelin/contracts/utils/Pausable.sol\":1474:1493  _requireNotPaused() */\n      tag_57\n        /* \"@openzeppelin/contracts/utils/Pausable.sol\":1474:1491  _requireNotPaused */\n      tag_58\n        /* \"@openzeppelin/contracts/utils/Pausable.sol\":1474:1493  _requireNotPaused() */\n      jump\t// in\n    tag_57:\n        /* \"zkp/ZKVerifier.sol\":1972:2000  validateInputs(proof, input) */\n      tag_60\n        /* \"zkp/ZKVerifier.sol\":1987:1992  proof */\n      dup4\n        /* \"zkp/ZKVerifier.sol\":1994:1999  input */\n      dup4\n        /* \"zkp/ZKVerifier.sol\":1972:1986  validateInputs */\n      tag_61\n        /* \"zkp/ZKVerifier.sol\":1972:2000  validateInputs(proof, input) */\n      jump\t// in\n    tag_60:\n        /* \"zkp/ZKVerifier.sol\":1964:2019  require(validateInputs(proof, input), \"Invalid inputs\") */\n      tag_62\n      jumpi\n      mload(0x40)\n      0x08c379a000000000000000000000000000000000000000000000000000000000\n      dup2\n      mstore\n      0x04\n      add\n      tag_63\n      swap1\n      tag_64\n      jump\t// in\n    tag_63:\n      mload(0x40)\n      dup1\n      swap2\n      sub\n      swap1\n      revert\n    tag_62:\n        /* \"zkp/ZKVerifier.sol\":2032:2048  G1Point memory a */\n      0x00\n        /* \"zkp/ZKVerifier.sol\":2051:2078  G1Point(proof[0], proof[1]) */\n      mload(0x40)\n      dup1\n      0x40\n      add\n      0x40\n      mstore\n      dup1\n        /* \"zkp/ZKVerifier.sol\":2059:2064  proof */\n      dup6\n        /* \"zkp/ZKVerifier.sol\":2065:2066  0 */\n      0x00\n        /* \"zkp/ZKVerifier.sol\":2059:2067  proof[0] */\n      0x08\n      dup2\n      lt\n      tag_65\n      jumpi\n      tag_66\n      tag_67\n      jump\t// in\n    tag_66:\n    tag_65:\n      0x20\n      mul\n      add\n      calldataload\n        /* \"zkp/ZKVerifier.sol\":2051:2078  G1Point(proof[0], proof[1]) */\n      dup2\n      mstore\n      0x20\n      add\n        /* \"zkp/ZKVerifier.sol\":2069:2074  proof */\n      dup6\n        /* \"zkp/ZKVerifier.sol\":2075:2076  1 */\n      0x01\n        /* \"zkp/ZKVerifier.sol\":2069:2077  proof[1] */\n      0x08\n      dup2\n      lt\n      tag_68\n      jumpi\n      tag_69\n      tag_67\n      jump\t// in\n    tag_69:\n    tag_68:\n      0x20\n      mul\n      add\n      calldataload\n        /* \"zkp/ZKVerifier.sol\":2051:2078  G1Point(proof[0], proof[1]) */\n      dup2\n      mstore\n      pop\n        /* \"zkp/ZKVerifier.sol\":2032:2078  G1Point memory a = G1Point(proof[0], proof[1]) */\n      swap1\n      pop\n        /* \"zkp/ZKVerifier.sol\":2089:2105  G2Point memory b */\n      0x00\n        /* \"zkp/ZKVerifier.sol\":2108:2197  G2Point(... */\n      mload(0x40)\n      dup1\n      0x40\n      add\n      0x40\n      mstore\n      dup1\n      mload(0x40)\n      dup1\n      0x40\n      add\n      0x40\n      mstore\n      dup1\n        /* \"zkp/ZKVerifier.sol\":2131:2136  proof */\n      dup9\n        /* \"zkp/ZKVerifier.sol\":2137:2138  2 */\n      0x02\n        /* \"zkp/ZKVerifier.sol\":2131:2139  proof[2] */\n      0x08\n      dup2\n      lt\n      tag_70\n      jumpi\n      tag_71\n      tag_67\n      jump\t// in\n    tag_71:\n    tag_70:\n      0x20\n      mul\n      add\n      calldataload\n        /* \"zkp/ZKVerifier.sol\":2108:2197  G2Point(... */\n      dup2\n      mstore\n      0x20\n      add\n        /* \"zkp/ZKVerifier.sol\":2141:2146  proof */\n      dup9\n        /* \"zkp/ZKVerifier.sol\":2147:2148  3 */\n      0x03\n        /* \"zkp/ZKVerifier.sol\":2141:2149  proof[3] */\n      0x08\n      dup2\n      lt\n      tag_72\n      jumpi\n      tag_73\n      tag_67\n      jump\t// in\n    tag_73:\n    tag_72:\n      0x20\n      mul\n      add\n      calldataload\n        /* \"zkp/ZKVerifier.sol\":2108:2197  G2Point(... */\n      dup2\n      mstore\n      pop\n      dup2\n      mstore\n      0x20\n      add\n      mload(0x40)\n      dup1\n      0x40\n      add\n      0x40\n      mstore\n      dup1\n        /* \"zkp/ZKVerifier.sol\":2167:2172  proof */\n      dup9\n        /* \"zkp/ZKVerifier.sol\":2173:2174  4 */\n      0x04\n        /* \"zkp/ZKVerifier.sol\":2167:2175  proof[4] */\n      0x08\n      dup2\n      lt\n      tag_74\n      jumpi\n      tag_75\n      tag_67\n      jump\t// in\n    tag_75:\n    tag_74:\n      0x20\n      mul\n      add\n      calldataload\n        /* \"zkp/ZKVerifier.sol\":2108:2197  G2Point(... */\n      dup2\n      mstore\n      0x20\n      add\n        /* \"zkp/ZKVerifier.sol\":2177:2182  proof */\n      dup9\n        /* \"zkp/ZKVerifier.sol\":2183:2184  5 */\n      0x05\n        /* \"zkp/ZKVerifier.sol\":2177:2185  proof[5] */\n      0x08\n      dup2\n      lt\n      tag_76\n      jumpi\n      tag_77\n      tag_67\n      jump\t// in\n    tag_77:\n    tag_76:\n      0x20\n      mul\n      add\n      calldataload\n        /* \"zkp/ZKVerifier.sol\":2108:2197  G2Point(... */\n      dup2\n      mstore\n      pop\n      dup2\n      mstore\n      pop\n        /* \"zkp/ZKVerifier.sol\":2089:2197  G2Point memory b = G2Point(... */\n      swap1\n      pop\n        /* \"zkp/ZKVerifier.sol\":2208:2224  G1Point memory c */\n      0x00\n        /* \"zkp/ZKVerifier.sol\":2227:2254  G1Point(proof[6], proof[7]) */\n      mload(0x40)\n      dup1\n      0x40\n      add\n      0x40\n      mstore\n      dup1\n        /* \"zkp/ZKVerifier.sol\":2235:2240  proof */\n      dup8\n        /* \"zkp/ZKVerifier.sol\":2241:2242  6 */\n      0x06\n        /* \"zkp/ZKVerifier.sol\":2235:2243  proof[6] */\n      0x08\n      dup2\n      lt\n      tag_78\n      jumpi\n      tag_79\n      tag_67\n      jump\t// in\n    tag_79:\n    tag_78:\n      0x20\n      mul\n      add\n      calldataload\n        /* \"zkp/ZKVerifier.sol\":2227:2254  G1Point(proof[6], proof[7]) */\n      dup2\n      mstore\n      0x20\n      add\n        /* \"zkp/ZKVerifier.sol\":2245:2250  proof */\n      dup8\n        /* \"zkp/ZKVerifier.sol\":2251:2252  7 */\n      0x07\n        /* \"zkp/ZKVerifier.sol\":2245:2253  proof[7] */\n      0x08\n      dup2\n      lt\n      tag_80\n      jumpi\n      tag_81\n      tag_67\n      jump\t// in\n    tag_81:\n    tag_80:\n      0x20\n      mul\n      add\n      calldataload\n        /* \"zkp/ZKVerifier.sol\":2227:2254  G1Point(proof[6], proof[7]) */\n      dup2\n      mstore\n      pop\n        /* \"zkp/ZKVerifier.sol\":2208:2254  G1Point memory c = G1Point(proof[6], proof[7]) */\n      swap1\n      pop\n        /* \"zkp/ZKVerifier.sol\":2274:2311  _verifyProofPoints(a, b, c, input[0]) */\n      tag_82\n        /* \"zkp/ZKVerifier.sol\":2293:2294  a */\n      dup4\n        /* \"zkp/ZKVerifier.sol\":2296:2297  b */\n      dup4\n        /* \"zkp/ZKVerifier.sol\":2299:2300  c */\n      dup4\n        /* \"zkp/ZKVerifier.sol\":2302:2307  input */\n      dup9\n        /* \"zkp/ZKVerifier.sol\":2308:2309  0 */\n      0x00\n        /* \"zkp/ZKVerifier.sol\":2302:2310  input[0] */\n      0x01\n      dup2\n      lt\n      tag_83\n      jumpi\n      tag_84\n      tag_67\n      jump\t// in\n    tag_84:\n    tag_83:\n      0x20\n      mul\n      add\n      calldataload\n        /* \"zkp/ZKVerifier.sol\":2274:2292  _verifyProofPoints */\n      tag_85\n        /* \"zkp/ZKVerifier.sol\":2274:2311  _verifyProofPoints(a, b, c, input[0]) */\n      jump\t// in\n    tag_82:\n        /* \"zkp/ZKVerifier.sol\":2267:2311  return _verifyProofPoints(a, b, c, input[0]) */\n      swap4\n      pop\n      pop\n      pop\n      pop\n        /* \"zkp/ZKVerifier.sol\":1801:2319  function verifyProof(... */\n      swap3\n      swap2\n      pop\n      pop\n      jump\t// out\n        /* \"zkp/ZKVerifier.sol\":6442:6509  function unpause() external onlyOwner {... */\n    tag_27:\n        /* \"@openzeppelin/contracts/access/Ownable.sol\":1531:1544  _checkOwner() */\n      tag_87\n        /* \"@openzeppelin/contracts/access/Ownable.sol\":1531:1542  _checkOwner */\n      tag_88\n        /* \"@openzeppelin/contracts/access/Ownable.sol\":1531:1544  _checkOwner() */\n      jump\t// in\n    tag_87:\n        /* \"zkp/ZKVerifier.sol\":6491:6501  _unpause() */\n      tag_90\n        /* \"zkp/ZKVerifier.sol\":6491:6499  _unpause */\n      tag_91\n        /* \"zkp/ZKVerifier.sol\":6491:6501  _unpause() */\n      jump\t// in\n    tag_90:\n        /* \"zkp/ZKVerifier.sol\":6442:6509  function unpause() external onlyOwner {... */\n      jump\t// out\n        /* \"zkp/ZKVerifier.sol\":6152:6363  function getVerificationInfo(... */\n    tag_30:\n        /* \"zkp/ZKVerifier.sol\":6239:6252  bool verified */\n      0x00\n        /* \"zkp/ZKVerifier.sol\":6254:6278  uint256 verificationTime */\n      dup1\n        /* \"zkp/ZKVerifier.sol\":6299:6313  verifiedProofs */\n      0x03\n        /* \"zkp/ZKVerifier.sol\":6299:6324  verifiedProofs[proofHash] */\n      0x00\n        /* \"zkp/ZKVerifier.sol\":6314:6323  proofHash */\n      dup5\n        /* \"zkp/ZKVerifier.sol\":6299:6324  verifiedProofs[proofHash] */\n      dup2\n      mstore\n      0x20\n      add\n      swap1\n      dup2\n      mstore\n      0x20\n      add\n      0x00\n      keccak256\n      0x00\n      swap1\n      sload\n      swap1\n      0x0100\n      exp\n      swap1\n      div\n      0xff\n      and\n        /* \"zkp/ZKVerifier.sol\":6326:6343  verificationTimes */\n      0x04\n        /* \"zkp/ZKVerifier.sol\":6326:6354  verificationTimes[proofHash] */\n      0x00\n        /* \"zkp/ZKVerifier.sol\":6344:6353  proofHash */\n      dup6\n        /* \"zkp/ZKVerifier.sol\":6326:6354  verificationTimes[proofHash] */\n      dup2\n      mstore\n      0x20\n      add\n      swap1\n      dup2\n      mstore\n      0x20\n      add\n      0x00\n      keccak256\n      sload\n        /* \"zkp/ZKVerifier.sol\":6291:6355  return (verifiedProofs[proofHash], verificationTimes[proofHash]) */\n      swap2\n      pop\n      swap2\n      pop\n        /* \"zkp/ZKVerifier.sol\":6152:6363  function getVerificationInfo(... */\n      swap2\n      pop\n      swap2\n      jump\t// out\n        /* \"@openzeppelin/contracts/utils/Pausable.sol\":1850:1934  function paused() public view virtual returns (bool) {... */\n    tag_34:\n        /* \"@openzeppelin/contracts/utils/Pausable.sol\":1897:1901  bool */\n      0x00\n        /* \"@openzeppelin/contracts/utils/Pausable.sol\":1920:1927  _paused */\n      dup1\n      0x14\n      swap1\n      sload\n      swap1\n      0x0100\n      exp\n      swap1\n      div\n      0xff\n      and\n        /* \"@openzeppelin/contracts/utils/Pausable.sol\":1913:1927  return _paused */\n      swap1\n      pop\n        /* \"@openzeppelin/contracts/utils/Pausable.sol\":1850:1934  function paused() public view virtual returns (bool) {... */\n      swap1\n      jump\t// out\n        /* \"@openzeppelin/contracts/access/Ownable.sol\":2293:2394  function renounceOwnership() public virtual onlyOwner {... */\n    tag_37:\n        /* \"@openzeppelin/contracts/access/Ownable.sol\":1531:1544  _checkOwner() */\n      tag_95\n        /* \"@openzeppelin/contracts/access/Ownable.sol\":1531:1542  _checkOwner */\n      tag_88\n        /* \"@openzeppelin/contracts/access/Ownable.sol\":1531:1544  _checkOwner() */\n      jump\t// in\n    tag_95:\n        /* \"@openzeppelin/contracts/access/Ownable.sol\":2357:2387  _transferOwnership(address(0)) */\n      tag_97\n        /* \"@openzeppelin/contracts/access/Ownable.sol\":2384:2385  0 */\n      0x00\n        /* \"@openzeppelin/contracts/access/Ownable.sol\":2357:2375  _transferOwnership */\n      tag_98\n        /* \"@openzeppelin/contracts/access/Ownable.sol\":2357:2387  _transferOwnership(address(0)) */\n      jump\t// in\n    tag_97:\n        /* \"@openzeppelin/contracts/access/Ownable.sol\":2293:2394  function renounceOwnership() public virtual onlyOwner {... */\n      jump\t// out\n        /* \"zkp/ZKVerifier.sol\":6371:6434  function pause() external onlyOwner {... */\n    tag_39:\n        /* \"@openzeppelin/contracts/access/Ownable.sol\":1531:1544  _checkOwner() */\n      tag_100\n        /* \"@openzeppelin/contracts/access/Ownable.sol\":1531:1542  _checkOwner */\n      tag_88\n        /* \"@openzeppelin/contracts/access/Ownable.sol\":1531:1544  _checkOwner() */\n      jump\t// in\n    tag_100:\n        /* \"zkp/ZKVerifier.sol\":6418:6426  _pause() */\n      tag_102\n        /* \"zkp/ZKVerifier.sol\":6418:6424  _pause */\n      tag_103\n        /* \"zkp/ZKVerifier.sol\":6418:6426  _pause() */\n      jump\t// in\n    tag_102:\n        /* \"zkp/ZKVerifier.sol\":6371:6434  function pause() external onlyOwner {... */\n      jump\t// out\n        /* \"@openzeppelin/contracts/access/Ownable.sol\":1638:1723  function owner() public view virtual returns (address) {... */\n    tag_41:\n        /* \"@openzeppelin/contracts/access/Ownable.sol\":1684:1691  address */\n      0x00\n        /* \"@openzeppelin/contracts/access/Ownable.sol\":1710:1716  _owner */\n      dup1\n      0x00\n      swap1\n      sload\n      swap1\n      0x0100\n      exp\n      swap1\n      div\n      0xffffffffffffffffffffffffffffffffffffffff\n      and\n        /* \"@openzeppelin/contracts/access/Ownable.sol\":1703:1716  return _owner */\n      swap1\n      pop\n        /* \"@openzeppelin/contracts/access/Ownable.sol\":1638:1723  function owner() public view virtual returns (address) {... */\n      swap1\n      jump\t// out\n        /* \"zkp/ZKVerifier.sol\":5819:6144  function clearOldBlockCounts(uint256 blocksBack) external onlyOwner {... */\n    tag_47:\n        /* \"@openzeppelin/contracts/access/Ownable.sol\":1531:1544  _checkOwner() */\n      tag_106\n        /* \"@openzeppelin/contracts/access/Ownable.sol\":1531:1542  _checkOwner */\n      tag_88\n        /* \"@openzeppelin/contracts/access/Ownable.sol\":1531:1544  _checkOwner() */\n      jump\t// in\n    tag_106:\n        /* \"zkp/ZKVerifier.sol\":5919:5920  0 */\n      0x00\n        /* \"zkp/ZKVerifier.sol\":5906:5916  blocksBack */\n      dup2\n        /* \"zkp/ZKVerifier.sol\":5906:5920  blocksBack > 0 */\n      gt\n        /* \"zkp/ZKVerifier.sol\":5898:5944  require(blocksBack > 0, \"Invalid block count\") */\n      tag_108\n      jumpi\n      mload(0x40)\n      0x08c379a000000000000000000000000000000000000000000000000000000000\n      dup2\n      mstore\n      0x04\n      add\n      tag_109\n      swap1\n      tag_110\n      jump\t// in\n    tag_109:\n      mload(0x40)\n      dup1\n      swap2\n      sub\n      swap1\n      revert\n    tag_108:\n        /* \"zkp/ZKVerifier.sol\":5955:5974  uint256 targetBlock */\n      0x00\n        /* \"zkp/ZKVerifier.sol\":5992:6002  blocksBack */\n      dup2\n        /* \"zkp/ZKVerifier.sol\":5977:5989  block.number */\n      number\n        /* \"zkp/ZKVerifier.sol\":5977:6002  block.number - blocksBack */\n      tag_111\n      swap2\n      swap1\n      tag_112\n      jump\t// in\n    tag_111:\n        /* \"zkp/ZKVerifier.sol\":5955:6002  uint256 targetBlock = block.number - blocksBack */\n      swap1\n      pop\n        /* \"zkp/ZKVerifier.sol\":6028:6037  uint256 i */\n      0x00\n        /* \"zkp/ZKVerifier.sol\":6023:6137  for (uint256 i = 0; i < blocksBack; i++) {... */\n    tag_113:\n        /* \"zkp/ZKVerifier.sol\":6047:6057  blocksBack */\n      dup3\n        /* \"zkp/ZKVerifier.sol\":6043:6044  i */\n      dup2\n        /* \"zkp/ZKVerifier.sol\":6043:6057  i < blocksBack */\n      lt\n        /* \"zkp/ZKVerifier.sol\":6023:6137  for (uint256 i = 0; i < blocksBack; i++) {... */\n      iszero\n      tag_114\n      jumpi\n        /* \"zkp/ZKVerifier.sol\":6086:6108  blockVerificationCount */\n      0x02\n        /* \"zkp/ZKVerifier.sol\":6086:6125  blockVerificationCount[targetBlock - i] */\n      0x00\n        /* \"zkp/ZKVerifier.sol\":6123:6124  i */\n      dup3\n        /* \"zkp/ZKVerifier.sol\":6109:6120  targetBlock */\n      dup5\n        /* \"zkp/ZKVerifier.sol\":6109:6124  targetBlock - i */\n      tag_116\n      swap2\n      swap1\n      tag_112\n      jump\t// in\n    tag_116:\n        /* \"zkp/ZKVerifier.sol\":6086:6125  blockVerificationCount[targetBlock - i] */\n      dup2\n      mstore\n      0x20\n      add\n      swap1\n      dup2\n      mstore\n      0x20\n      add\n      0x00\n      keccak256\n        /* \"zkp/ZKVerifier.sol\":6079:6125  delete blockVerificationCount[targetBlock - i] */\n      0x00\n      swap1\n      sstore\n        /* \"zkp/ZKVerifier.sol\":6059:6062  i++ */\n      dup1\n      dup1\n      0x01\n      add\n      swap2\n      pop\n      pop\n        /* \"zkp/ZKVerifier.sol\":6023:6137  for (uint256 i = 0; i < blocksBack; i++) {... */\n      jump(tag_113)\n    tag_114:\n      pop\n        /* \"zkp/ZKVerifier.sol\":5887:6144  {... */\n      pop\n        /* \"zkp/ZKVerifier.sol\":5819:6144  function clearOldBlockCounts(uint256 blocksBack) external onlyOwner {... */\n      pop\n      jump\t// out\n        /* \"zkp/ZKVerifier.sol\":2327:3379  function verifyAndRecordProof(... */\n    tag_50:\n        /* \"zkp/ZKVerifier.sol\":2481:2485  bool */\n      0x00\n        /* \"@openzeppelin/contracts/utils/Pausable.sol\":1474:1493  _requireNotPaused() */\n      tag_118\n        /* \"@openzeppelin/contracts/utils/Pausable.sol\":1474:1491  _requireNotPaused */\n      tag_58\n        /* \"@openzeppelin/contracts/utils/Pausable.sol\":1474:1493  _requireNotPaused() */\n      jump\t// in\n    tag_118:\n        /* \"@openzeppelin/contracts/utils/ReentrancyGuard.sol\":2500:2521  _nonReentrantBefore() */\n      tag_120\n        /* \"@openzeppelin/contracts/utils/ReentrancyGuard.sol\":2500:2519  _nonReentrantBefore */\n      tag_121\n        /* \"@openzeppelin/contracts/utils/ReentrancyGuard.sol\":2500:2521  _nonReentrantBefore() */\n      jump\t// in\n    tag_120:\n        /* \"zkp/ZKVerifier.sol\":934:936  50 */\n      0x32\n        /* \"zkp/ZKVerifier.sol\":2520:2542  blockVerificationCount */\n      0x02\n        /* \"zkp/ZKVerifier.sol\":2520:2556  blockVerificationCount[block.number] */\n      0x00\n        /* \"zkp/ZKVerifier.sol\":2543:2555  block.number */\n      number\n        /* \"zkp/ZKVerifier.sol\":2520:2556  blockVerificationCount[block.number] */\n      dup2\n      mstore\n      0x20\n      add\n      swap1\n      dup2\n      mstore\n      0x20\n      add\n      0x00\n      keccak256\n      sload\n        /* \"zkp/ZKVerifier.sol\":2520:2586  blockVerificationCount[block.number] < MAX_VERIFICATIONS_PER_BLOCK */\n      lt\n        /* \"zkp/ZKVerifier.sol\":2498:2633  require(... */\n      tag_123\n      jumpi\n      mload(0x40)\n      0x08c379a000000000000000000000000000000000000000000000000000000000\n      dup2\n      mstore\n      0x04\n      add\n      tag_124\n      swap1\n      tag_125\n      jump\t// in\n    tag_124:\n      mload(0x40)\n      dup1\n      swap2\n      sub\n      swap1\n      revert\n    tag_123:\n        /* \"zkp/ZKVerifier.sol\":2646:2663  bytes32 proofHash */\n      0x00\n        /* \"zkp/ZKVerifier.sol\":2666:2697  generateProofHash(proof, input) */\n      tag_126\n        /* \"zkp/ZKVerifier.sol\":2684:2689  proof */\n      dup5\n        /* \"zkp/ZKVerifier.sol\":2691:2696  input */\n      dup5\n        /* \"zkp/ZKVerifier.sol\":2666:2683  generateProofHash */\n      tag_127\n        /* \"zkp/ZKVerifier.sol\":2666:2697  generateProofHash(proof, input) */\n      jump\t// in\n    tag_126:\n        /* \"zkp/ZKVerifier.sol\":2646:2697  bytes32 proofHash = generateProofHash(proof, input) */\n      swap1\n      pop\n        /* \"zkp/ZKVerifier.sol\":2717:2731  verifiedProofs */\n      0x03\n        /* \"zkp/ZKVerifier.sol\":2717:2742  verifiedProofs[proofHash] */\n      0x00\n        /* \"zkp/ZKVerifier.sol\":2732:2741  proofHash */\n      dup3\n        /* \"zkp/ZKVerifier.sol\":2717:2742  verifiedProofs[proofHash] */\n      dup2\n      mstore\n      0x20\n      add\n      swap1\n      dup2\n      mstore\n      0x20\n      add\n      0x00\n      keccak256\n      0x00\n      swap1\n      sload\n      swap1\n      0x0100\n      exp\n      swap1\n      div\n      0xff\n      and\n        /* \"zkp/ZKVerifier.sol\":2716:2742  !verifiedProofs[proofHash] */\n      iszero\n        /* \"zkp/ZKVerifier.sol\":2708:2769  require(!verifiedProofs[proofHash], \"Proof already verified\") */\n      tag_128\n      jumpi\n      mload(0x40)\n      0x08c379a000000000000000000000000000000000000000000000000000000000\n      dup2\n      mstore\n      0x04\n      add\n      tag_129\n      swap1\n      tag_130\n      jump\t// in\n    tag_129:\n      mload(0x40)\n      dup1\n      swap2\n      sub\n      swap1\n      revert\n    tag_128:\n        /* \"zkp/ZKVerifier.sol\":2782:2794  bool isValid */\n      0x00\n        /* \"zkp/ZKVerifier.sol\":2809:2813  this */\n      address\n        /* \"zkp/ZKVerifier.sol\":2809:2825  this.verifyProof */\n      0xffffffffffffffffffffffffffffffffffffffff\n      and\n      0x1b81f829\n        /* \"zkp/ZKVerifier.sol\":2826:2831  proof */\n      dup7\n        /* \"zkp/ZKVerifier.sol\":2833:2838  input */\n      dup7\n        /* \"zkp/ZKVerifier.sol\":2809:2839  this.verifyProof(proof, input) */\n      mload(0x40)\n      dup4\n      0xffffffff\n      and\n      0xe0\n      shl\n      dup2\n      mstore\n      0x04\n      add\n      tag_131\n      swap3\n      swap2\n      swap1\n      tag_132\n      jump\t// in\n    tag_131:\n      0x20\n      mload(0x40)\n      dup1\n      dup4\n      sub\n      dup2\n      dup7\n      gas\n      staticcall\n      swap3\n      pop\n      pop\n      pop\n      dup1\n      iszero\n      tag_133\n      jumpi\n      pop\n      mload(0x40)\n      returndatasize\n      not(0x1f)\n      0x1f\n      dup3\n      add\n      and\n      dup3\n      add\n      dup1\n      0x40\n      mstore\n      pop\n      dup2\n      add\n      swap1\n      tag_134\n      swap2\n      swap1\n      tag_135\n      jump\t// in\n    tag_134:\n      0x01\n    tag_133:\n        /* \"zkp/ZKVerifier.sol\":2805:3048  try this.verifyProof(proof, input) returns (bool result) {... */\n      tag_136\n      jumpi\n      tag_140\n      tag_141\n      jump\t// in\n    tag_140:\n      dup1\n      0x08c379a0\n      sub\n      tag_139\n      jumpi\n      pop\n      tag_142\n      tag_143\n      jump\t// in\n    tag_142:\n      dup1\n      tag_144\n      jumpi\n      pop\n      jump(tag_138)\n    tag_144:\n        /* \"zkp/ZKVerifier.sol\":2974:2983  proofHash */\n      dup3\n        /* \"zkp/ZKVerifier.sol\":2960:3009  VerifierError(proofHash, reason, block.timestamp) */\n      0xeabe9d31f64f68fa6a548e84d57c997311a32ab33a5445ea892460d3253c366d\n        /* \"zkp/ZKVerifier.sol\":2985:2991  reason */\n      dup3\n        /* \"zkp/ZKVerifier.sol\":2993:3008  block.timestamp */\n      timestamp\n        /* \"zkp/ZKVerifier.sol\":2960:3009  VerifierError(proofHash, reason, block.timestamp) */\n      mload(0x40)\n      tag_145\n      swap3\n      swap2\n      swap1\n      tag_146\n      jump\t// in\n    tag_145:\n      mload(0x40)\n      dup1\n      swap2\n      sub\n      swap1\n      log2\n        /* \"zkp/ZKVerifier.sol\":3031:3036  false */\n      0x00\n        /* \"zkp/ZKVerifier.sol\":3024:3036  return false */\n      swap4\n      pop\n      pop\n      pop\n      pop\n      jump(tag_122)\n        /* \"zkp/ZKVerifier.sol\":2805:3048  try this.verifyProof(proof, input) returns (bool result) {... */\n    tag_139:\n      pop\n    tag_138:\n      returndatasize\n      0x00\n      dup1\n      returndatacopy\n      revert(0x00, returndatasize)\n    tag_136:\n        /* \"zkp/ZKVerifier.sol\":2887:2893  result */\n      dup1\n        /* \"zkp/ZKVerifier.sol\":2877:2893  isValid = result */\n      swap2\n      pop\n        /* \"zkp/ZKVerifier.sol\":2840:2905  returns (bool result) {... */\n      pop\n        /* \"zkp/ZKVerifier.sol\":3088:3095  isValid */\n      dup1\n        /* \"zkp/ZKVerifier.sol\":3060:3074  verifiedProofs */\n      0x03\n        /* \"zkp/ZKVerifier.sol\":3060:3085  verifiedProofs[proofHash] */\n      0x00\n        /* \"zkp/ZKVerifier.sol\":3075:3084  proofHash */\n      dup5\n        /* \"zkp/ZKVerifier.sol\":3060:3085  verifiedProofs[proofHash] */\n      dup2\n      mstore\n      0x20\n      add\n      swap1\n      dup2\n      mstore\n      0x20\n      add\n      0x00\n      keccak256\n      0x00\n        /* \"zkp/ZKVerifier.sol\":3060:3095  verifiedProofs[proofHash] = isValid */\n      0x0100\n      exp\n      dup2\n      sload\n      dup2\n      0xff\n      mul\n      not\n      and\n      swap1\n      dup4\n      iszero\n      iszero\n      mul\n      or\n      swap1\n      sstore\n      pop\n        /* \"zkp/ZKVerifier.sol\":3137:3152  block.timestamp */\n      timestamp\n        /* \"zkp/ZKVerifier.sol\":3106:3123  verificationTimes */\n      0x04\n        /* \"zkp/ZKVerifier.sol\":3106:3134  verificationTimes[proofHash] */\n      0x00\n        /* \"zkp/ZKVerifier.sol\":3124:3133  proofHash */\n      dup5\n        /* \"zkp/ZKVerifier.sol\":3106:3134  verificationTimes[proofHash] */\n      dup2\n      mstore\n      0x20\n      add\n      swap1\n      dup2\n      mstore\n      0x20\n      add\n      0x00\n      keccak256\n        /* \"zkp/ZKVerifier.sol\":3106:3152  verificationTimes[proofHash] = block.timestamp */\n      dup2\n      swap1\n      sstore\n      pop\n        /* \"zkp/ZKVerifier.sol\":3163:3185  blockVerificationCount */\n      0x02\n        /* \"zkp/ZKVerifier.sol\":3163:3199  blockVerificationCount[block.number] */\n      0x00\n        /* \"zkp/ZKVerifier.sol\":3186:3198  block.number */\n      number\n        /* \"zkp/ZKVerifier.sol\":3163:3199  blockVerificationCount[block.number] */\n      dup2\n      mstore\n      0x20\n      add\n      swap1\n      dup2\n      mstore\n      0x20\n      add\n      0x00\n      keccak256\n      0x00\n        /* \"zkp/ZKVerifier.sol\":3163:3201  blockVerificationCount[block.number]++ */\n      dup2\n      sload\n      dup1\n      swap3\n      swap2\n      swap1\n      tag_148\n      swap1\n      tag_149\n      jump\t// in\n    tag_148:\n      swap2\n      swap1\n      pop\n      sstore\n      pop\n        /* \"zkp/ZKVerifier.sol\":3296:3303  isValid */\n      dup1\n        /* \"zkp/ZKVerifier.sol\":3219:3344  ProofVerified(... */\n      iszero\n      iszero\n        /* \"zkp/ZKVerifier.sol\":3271:3281  msg.sender */\n      caller\n        /* \"zkp/ZKVerifier.sol\":3219:3344  ProofVerified(... */\n      0xffffffffffffffffffffffffffffffffffffffff\n      and\n        /* \"zkp/ZKVerifier.sol\":3247:3256  proofHash */\n      dup4\n        /* \"zkp/ZKVerifier.sol\":3219:3344  ProofVerified(... */\n      0xd70445ae79bfa82bd8c52e90ca89940dff8279c6c39f91265be2f4ae43e4cae2\n        /* \"zkp/ZKVerifier.sol\":3318:3333  block.timestamp */\n      timestamp\n        /* \"zkp/ZKVerifier.sol\":3219:3344  ProofVerified(... */\n      mload(0x40)\n      tag_150\n      swap2\n      swap1\n      tag_151\n      jump\t// in\n    tag_150:\n      mload(0x40)\n      dup1\n      swap2\n      sub\n      swap1\n      log4\n        /* \"zkp/ZKVerifier.sol\":3364:3371  isValid */\n      dup1\n        /* \"zkp/ZKVerifier.sol\":3357:3371  return isValid */\n      swap3\n      pop\n      pop\n      pop\n        /* \"@openzeppelin/contracts/utils/ReentrancyGuard.sol\":2531:2532  _ */\n    tag_122:\n        /* \"@openzeppelin/contracts/utils/ReentrancyGuard.sol\":2542:2562  _nonReentrantAfter() */\n      tag_152\n        /* \"@openzeppelin/contracts/utils/ReentrancyGuard.sol\":2542:2560  _nonReentrantAfter */\n      tag_153\n        /* \"@openzeppelin/contracts/utils/ReentrancyGuard.sol\":2542:2562  _nonReentrantAfter() */\n      jump\t// in\n    tag_152:\n        /* \"zkp/ZKVerifier.sol\":2327:3379  function verifyAndRecordProof(... */\n      swap3\n      swap2\n      pop\n      pop\n      jump\t// out\n        /* \"@openzeppelin/contracts/access/Ownable.sol\":2543:2758  function transferOwnership(address newOwner) public virtual onlyOwner {... */\n    tag_55:\n        /* \"@openzeppelin/contracts/access/Ownable.sol\":1531:1544  _checkOwner() */\n      tag_155\n        /* \"@openzeppelin/contracts/access/Ownable.sol\":1531:1542  _checkOwner */\n      tag_88\n        /* \"@openzeppelin/contracts/access/Ownable.sol\":1531:1544  _checkOwner() */\n      jump\t// in\n    tag_155:\n        /* \"@openzeppelin/contracts/access/Ownable.sol\":2647:2648  0 */\n      0x00\n        /* \"@openzeppelin/contracts/access/Ownable.sol\":2627:2649  newOwner == address(0) */\n      0xffffffffffffffffffffffffffffffffffffffff\n      and\n        /* \"@openzeppelin/contracts/access/Ownable.sol\":2627:2635  newOwner */\n      dup2\n        /* \"@openzeppelin/contracts/access/Ownable.sol\":2627:2649  newOwner == address(0) */\n      0xffffffffffffffffffffffffffffffffffffffff\n      and\n      sub\n        /* \"@openzeppelin/contracts/access/Ownable.sol\":2623:2714  if (newOwner == address(0)) {... */\n      tag_157\n      jumpi\n        /* \"@openzeppelin/contracts/access/Ownable.sol\":2700:2701  0 */\n      0x00\n        /* \"@openzeppelin/contracts/access/Ownable.sol\":2672:2703  OwnableInvalidOwner(address(0)) */\n      mload(0x40)\n      0x1e4fbdf700000000000000000000000000000000000000000000000000000000\n      dup2\n      mstore\n      0x04\n      add\n      tag_158\n      swap2\n      swap1\n      tag_43\n      jump\t// in\n    tag_158:\n      mload(0x40)\n      dup1\n      swap2\n      sub\n      swap1\n      revert\n        /* \"@openzeppelin/contracts/access/Ownable.sol\":2623:2714  if (newOwner == address(0)) {... */\n    tag_157:\n        /* \"@openzeppelin/contracts/access/Ownable.sol\":2723:2751  _transferOwnership(newOwner) */\n      tag_159\n        /* \"@openzeppelin/contracts/access/Ownable.sol\":2742:2750  newOwner */\n      dup2\n        /* \"@openzeppelin/contracts/access/Ownable.sol\":2723:2741  _transferOwnership */\n      tag_98\n        /* \"@openzeppelin/contracts/access/Ownable.sol\":2723:2751  _transferOwnership(newOwner) */\n      jump\t// in\n    tag_159:\n        /* \"@openzeppelin/contracts/access/Ownable.sol\":2543:2758  function transferOwnership(address newOwner) public virtual onlyOwner {... */\n      pop\n      jump\t// out\n        /* \"@openzeppelin/contracts/utils/Pausable.sol\":2002:2130  function _requireNotPaused() internal view virtual {... */\n    tag_58:\n        /* \"@openzeppelin/contracts/utils/Pausable.sol\":2067:2075  paused() */\n      tag_161\n        /* \"@openzeppelin/contracts/utils/Pausable.sol\":2067:2073  paused */\n      tag_34\n        /* \"@openzeppelin/contracts/utils/Pausable.sol\":2067:2075  paused() */\n      jump\t// in\n    tag_161:\n        /* \"@openzeppelin/contracts/utils/Pausable.sol\":2063:2124  if (paused()) {... */\n      iszero\n      tag_162\n      jumpi\n        /* \"@openzeppelin/contracts/utils/Pausable.sol\":2098:2113  EnforcedPause() */\n      mload(0x40)\n      0xd93c066500000000000000000000000000000000000000000000000000000000\n      dup2\n      mstore\n      0x04\n      add\n      mload(0x40)\n      dup1\n      swap2\n      sub\n      swap1\n      revert\n        /* \"@openzeppelin/contracts/utils/Pausable.sol\":2063:2124  if (paused()) {... */\n    tag_162:\n        /* \"@openzeppelin/contracts/utils/Pausable.sol\":2002:2130  function _requireNotPaused() internal view virtual {... */\n      jump\t// out\n        /* \"zkp/ZKVerifier.sol\":4629:4948  function validateInputs(... */\n    tag_61:\n        /* \"zkp/ZKVerifier.sol\":4755:4759  bool */\n      0x00\n        /* \"zkp/ZKVerifier.sol\":4776:4785  uint256 i */\n      dup1\n        /* \"zkp/ZKVerifier.sol\":4788:4789  0 */\n      0x00\n        /* \"zkp/ZKVerifier.sol\":4776:4789  uint256 i = 0 */\n      swap1\n      pop\n        /* \"zkp/ZKVerifier.sol\":4772:4869  for(uint256 i = 0; i < 8; i++) {... */\n    tag_164:\n        /* \"zkp/ZKVerifier.sol\":4795:4796  8 */\n      0x08\n        /* \"zkp/ZKVerifier.sol\":4791:4792  i */\n      dup2\n        /* \"zkp/ZKVerifier.sol\":4791:4796  i < 8 */\n      lt\n        /* \"zkp/ZKVerifier.sol\":4772:4869  for(uint256 i = 0; i < 8; i++) {... */\n      iszero\n      tag_165\n      jumpi\n        /* \"zkp/ZKVerifier.sol\":508:585  21888242871839275222246405745257275088548364400416034343698204186575808495617 */\n      0x30644e72e131a029b85045b68181585d2833e84879b9709143e1f593f0000001\n        /* \"zkp/ZKVerifier.sol\":4821:4826  proof */\n      dup5\n        /* \"zkp/ZKVerifier.sol\":4827:4828  i */\n      dup3\n        /* \"zkp/ZKVerifier.sol\":4821:4829  proof[i] */\n      0x08\n      dup2\n      lt\n      tag_167\n      jumpi\n      tag_168\n      tag_67\n      jump\t// in\n    tag_168:\n    tag_167:\n      0x20\n      mul\n      add\n      calldataload\n        /* \"zkp/ZKVerifier.sol\":4821:4843  proof[i] >= FIELD_SIZE */\n      lt\n        /* \"zkp/ZKVerifier.sol\":4818:4857  if(proof[i] >= FIELD_SIZE) return false */\n      tag_169\n      jumpi\n        /* \"zkp/ZKVerifier.sol\":4852:4857  false */\n      0x00\n        /* \"zkp/ZKVerifier.sol\":4845:4857  return false */\n      swap2\n      pop\n      pop\n      jump(tag_163)\n        /* \"zkp/ZKVerifier.sol\":4818:4857  if(proof[i] >= FIELD_SIZE) return false */\n    tag_169:\n        /* \"zkp/ZKVerifier.sol\":4798:4801  i++ */\n      dup1\n      dup1\n      0x01\n      add\n      swap2\n      pop\n      pop\n        /* \"zkp/ZKVerifier.sol\":4772:4869  for(uint256 i = 0; i < 8; i++) {... */\n      jump(tag_164)\n    tag_165:\n      pop\n        /* \"zkp/ZKVerifier.sol\":508:585  21888242871839275222246405745257275088548364400416034343698204186575808495617 */\n      0x30644e72e131a029b85045b68181585d2833e84879b9709143e1f593f0000001\n        /* \"zkp/ZKVerifier.sol\":4882:4887  input */\n      dup3\n        /* \"zkp/ZKVerifier.sol\":4888:4889  0 */\n      0x00\n        /* \"zkp/ZKVerifier.sol\":4882:4890  input[0] */\n      0x01\n      dup2\n      lt\n      tag_170\n      jumpi\n      tag_171\n      tag_67\n      jump\t// in\n    tag_171:\n    tag_170:\n      0x20\n      mul\n      add\n      calldataload\n        /* \"zkp/ZKVerifier.sol\":4882:4904  input[0] >= FIELD_SIZE */\n      lt\n        /* \"zkp/ZKVerifier.sol\":4879:4918  if(input[0] >= FIELD_SIZE) return false */\n      tag_172\n      jumpi\n        /* \"zkp/ZKVerifier.sol\":4913:4918  false */\n      0x00\n        /* \"zkp/ZKVerifier.sol\":4906:4918  return false */\n      swap1\n      pop\n      jump(tag_163)\n        /* \"zkp/ZKVerifier.sol\":4879:4918  if(input[0] >= FIELD_SIZE) return false */\n    tag_172:\n        /* \"zkp/ZKVerifier.sol\":4936:4940  true */\n      0x01\n        /* \"zkp/ZKVerifier.sol\":4929:4940  return true */\n      swap1\n      pop\n        /* \"zkp/ZKVerifier.sol\":4629:4948  function validateInputs(... */\n    tag_163:\n      swap3\n      swap2\n      pop\n      pop\n      jump\t// out\n        /* \"zkp/ZKVerifier.sol\":3387:4621  function _verifyProofPoints(... */\n    tag_85:\n        /* \"zkp/ZKVerifier.sol\":3530:3534  bool */\n      0x00\n        /* \"zkp/ZKVerifier.sol\":3548:3562  isOnCurveG1(a) */\n      tag_174\n        /* \"zkp/ZKVerifier.sol\":3560:3561  a */\n      dup6\n        /* \"zkp/ZKVerifier.sol\":3548:3559  isOnCurveG1 */\n      tag_175\n        /* \"zkp/ZKVerifier.sol\":3548:3562  isOnCurveG1(a) */\n      jump\t// in\n    tag_174:\n        /* \"zkp/ZKVerifier.sol\":3547:3562  !isOnCurveG1(a) */\n      iszero\n        /* \"zkp/ZKVerifier.sol\":3547:3581  !isOnCurveG1(a) || !isOnCurveG2(b) */\n      dup1\n      tag_176\n      jumpi\n      pop\n        /* \"zkp/ZKVerifier.sol\":3567:3581  isOnCurveG2(b) */\n      tag_177\n        /* \"zkp/ZKVerifier.sol\":3579:3580  b */\n      dup5\n        /* \"zkp/ZKVerifier.sol\":3567:3578  isOnCurveG2 */\n      tag_178\n        /* \"zkp/ZKVerifier.sol\":3567:3581  isOnCurveG2(b) */\n      jump\t// in\n    tag_177:\n        /* \"zkp/ZKVerifier.sol\":3566:3581  !isOnCurveG2(b) */\n      iszero\n        /* \"zkp/ZKVerifier.sol\":3547:3581  !isOnCurveG1(a) || !isOnCurveG2(b) */\n    tag_176:\n        /* \"zkp/ZKVerifier.sol\":3547:3600  !isOnCurveG1(a) || !isOnCurveG2(b) || !isOnCurveG1(c) */\n      dup1\n      tag_179\n      jumpi\n      pop\n        /* \"zkp/ZKVerifier.sol\":3586:3600  isOnCurveG1(c) */\n      tag_180\n        /* \"zkp/ZKVerifier.sol\":3598:3599  c */\n      dup4\n        /* \"zkp/ZKVerifier.sol\":3586:3597  isOnCurveG1 */\n      tag_175\n        /* \"zkp/ZKVerifier.sol\":3586:3600  isOnCurveG1(c) */\n      jump\t// in\n    tag_180:\n        /* \"zkp/ZKVerifier.sol\":3585:3600  !isOnCurveG1(c) */\n      iszero\n        /* \"zkp/ZKVerifier.sol\":3547:3600  !isOnCurveG1(a) || !isOnCurveG2(b) || !isOnCurveG1(c) */\n    tag_179:\n        /* \"zkp/ZKVerifier.sol\":3543:3633  if (!isOnCurveG1(a) || !isOnCurveG2(b) || !isOnCurveG1(c)) {... */\n      iszero\n      tag_181\n      jumpi\n        /* \"zkp/ZKVerifier.sol\":3620:3625  false */\n      0x00\n        /* \"zkp/ZKVerifier.sol\":3613:3625  return false */\n      swap1\n      pop\n      jump(tag_173)\n        /* \"zkp/ZKVerifier.sol\":3543:3633  if (!isOnCurveG1(a) || !isOnCurveG2(b) || !isOnCurveG1(c)) {... */\n    tag_181:\n        /* \"zkp/ZKVerifier.sol\":3641:3672  uint256[24] memory pairingInput */\n      tag_182\n      tag_183\n      jump\t// in\n    tag_182:\n        /* \"zkp/ZKVerifier.sol\":3679:3691  bool success */\n      0x00\n        /* \"zkp/ZKVerifier.sol\":3850:3851  a */\n      dup7\n        /* \"zkp/ZKVerifier.sol\":3844:3852  mload(a) */\n      mload\n        /* \"zkp/ZKVerifier.sol\":3830:3842  pairingInput */\n      dup3\n        /* \"zkp/ZKVerifier.sol\":3823:3853  mstore(pairingInput, mload(a)) */\n      mstore\n        /* \"zkp/ZKVerifier.sol\":3908:3912  0x20 */\n      0x20\n        /* \"zkp/ZKVerifier.sol\":3905:3906  a */\n      dup8\n        /* \"zkp/ZKVerifier.sol\":3901:3913  add(a, 0x20) */\n      add\n        /* \"zkp/ZKVerifier.sol\":3895:3914  mload(add(a, 0x20)) */\n      mload\n        /* \"zkp/ZKVerifier.sol\":3888:3892  0x20 */\n      0x20\n        /* \"zkp/ZKVerifier.sol\":3874:3886  pairingInput */\n      dup4\n        /* \"zkp/ZKVerifier.sol\":3870:3893  add(pairingInput, 0x20) */\n      add\n        /* \"zkp/ZKVerifier.sol\":3863:3915  mstore(add(pairingInput, 0x20), mload(add(a, 0x20))) */\n      mstore\n        /* \"zkp/ZKVerifier.sol\":3954:3958  0x20 */\n      0x20\n        /* \"zkp/ZKVerifier.sol\":3951:3952  b */\n      dup7\n        /* \"zkp/ZKVerifier.sol\":3947:3959  add(b, 0x20) */\n      add\n        /* \"zkp/ZKVerifier.sol\":4007:4011  bPtr */\n      dup1\n        /* \"zkp/ZKVerifier.sol\":4001:4012  mload(bPtr) */\n      mload\n        /* \"zkp/ZKVerifier.sol\":3994:3998  0x40 */\n      0x40\n        /* \"zkp/ZKVerifier.sol\":3980:3992  pairingInput */\n      dup5\n        /* \"zkp/ZKVerifier.sol\":3976:3999  add(pairingInput, 0x40) */\n      add\n        /* \"zkp/ZKVerifier.sol\":3969:4013  mstore(add(pairingInput, 0x40), mload(bPtr)) */\n      mstore\n        /* \"zkp/ZKVerifier.sol\":4071:4075  0x20 */\n      0x20\n        /* \"zkp/ZKVerifier.sol\":4065:4069  bPtr */\n      dup2\n        /* \"zkp/ZKVerifier.sol\":4061:4076  add(bPtr, 0x20) */\n      add\n        /* \"zkp/ZKVerifier.sol\":4055:4077  mload(add(bPtr, 0x20)) */\n      mload\n        /* \"zkp/ZKVerifier.sol\":4048:4052  0x60 */\n      0x60\n        /* \"zkp/ZKVerifier.sol\":4034:4046  pairingInput */\n      dup5\n        /* \"zkp/ZKVerifier.sol\":4030:4053  add(pairingInput, 0x60) */\n      add\n        /* \"zkp/ZKVerifier.sol\":4023:4078  mstore(add(pairingInput, 0x60), mload(add(bPtr, 0x20))) */\n      mstore\n        /* \"zkp/ZKVerifier.sol\":4136:4140  0x40 */\n      0x40\n        /* \"zkp/ZKVerifier.sol\":4130:4134  bPtr */\n      dup2\n        /* \"zkp/ZKVerifier.sol\":4126:4141  add(bPtr, 0x40) */\n      add\n        /* \"zkp/ZKVerifier.sol\":4120:4142  mload(add(bPtr, 0x40)) */\n      mload\n        /* \"zkp/ZKVerifier.sol\":4113:4117  0x80 */\n      0x80\n        /* \"zkp/ZKVerifier.sol\":4099:4111  pairingInput */\n      dup5\n        /* \"zkp/ZKVerifier.sol\":4095:4118  add(pairingInput, 0x80) */\n      add\n        /* \"zkp/ZKVerifier.sol\":4088:4143  mstore(add(pairingInput, 0x80), mload(add(bPtr, 0x40))) */\n      mstore\n        /* \"zkp/ZKVerifier.sol\":4201:4205  0x60 */\n      0x60\n        /* \"zkp/ZKVerifier.sol\":4195:4199  bPtr */\n      dup2\n        /* \"zkp/ZKVerifier.sol\":4191:4206  add(bPtr, 0x60) */\n      add\n        /* \"zkp/ZKVerifier.sol\":4185:4207  mload(add(bPtr, 0x60)) */\n      mload\n        /* \"zkp/ZKVerifier.sol\":4178:4182  0xA0 */\n      0xa0\n        /* \"zkp/ZKVerifier.sol\":4164:4176  pairingInput */\n      dup5\n        /* \"zkp/ZKVerifier.sol\":4160:4183  add(pairingInput, 0xA0) */\n      add\n        /* \"zkp/ZKVerifier.sol\":4153:4208  mstore(add(pairingInput, 0xA0), mload(add(bPtr, 0x60))) */\n      mstore\n        /* \"zkp/ZKVerifier.sol\":4428:4432  0x20 */\n      0x20\n        /* \"zkp/ZKVerifier.sol\":4401:4413  pairingInput */\n      dup4\n        /* \"zkp/ZKVerifier.sol\":4366:4369  768 */\n      0x0300\n        /* \"zkp/ZKVerifier.sol\":4339:4351  pairingInput */\n      dup6\n        /* \"zkp/ZKVerifier.sol\":4290:4291  8 */\n      0x08\n        /* \"zkp/ZKVerifier.sol\":4270:4275  gas() */\n      gas\n        /* \"zkp/ZKVerifier.sol\":4245:4443  staticcall(... */\n      staticcall\n        /* \"zkp/ZKVerifier.sol\":4473:4490  successInAssembly */\n      dup1\n        /* \"zkp/ZKVerifier.sol\":4463:4530  if iszero(successInAssembly) {... */\n      tag_184\n      jumpi\n        /* \"zkp/ZKVerifier.sol\":4517:4518  0 */\n      0x00\n        /* \"zkp/ZKVerifier.sol\":4514:4515  0 */\n      dup1\n        /* \"zkp/ZKVerifier.sol\":4507:4519  revert(0, 0) */\n      revert\n        /* \"zkp/ZKVerifier.sol\":4463:4530  if iszero(successInAssembly) {... */\n    tag_184:\n        /* \"zkp/ZKVerifier.sol\":4567:4579  pairingInput */\n      dup4\n        /* \"zkp/ZKVerifier.sol\":4561:4580  mload(pairingInput) */\n      mload\n        /* \"zkp/ZKVerifier.sol\":4550:4580  success := mload(pairingInput) */\n      swap3\n      pop\n        /* \"zkp/ZKVerifier.sol\":3763:4587  {... */\n      pop\n      pop\n        /* \"zkp/ZKVerifier.sol\":4606:4613  success */\n      dup1\n        /* \"zkp/ZKVerifier.sol\":4599:4613  return success */\n      swap3\n      pop\n      pop\n      pop\n        /* \"zkp/ZKVerifier.sol\":3387:4621  function _verifyProofPoints(... */\n    tag_173:\n      swap5\n      swap4\n      pop\n      pop\n      pop\n      pop\n      jump\t// out\n        /* \"@openzeppelin/contracts/access/Ownable.sol\":1796:1958  function _checkOwner() internal view virtual {... */\n    tag_88:\n        /* \"@openzeppelin/contracts/access/Ownable.sol\":1866:1878  _msgSender() */\n      tag_186\n        /* \"@openzeppelin/contracts/access/Ownable.sol\":1866:1876  _msgSender */\n      tag_187\n        /* \"@openzeppelin/contracts/access/Ownable.sol\":1866:1878  _msgSender() */\n      jump\t// in\n    tag_186:\n        /* \"@openzeppelin/contracts/access/Ownable.sol\":1855:1878  owner() != _msgSender() */\n      0xffffffffffffffffffffffffffffffffffffffff\n      and\n        /* \"@openzeppelin/contracts/access/Ownable.sol\":1855:1862  owner() */\n      tag_188\n        /* \"@openzeppelin/contracts/access/Ownable.sol\":1855:1860  owner */\n      tag_41\n        /* \"@openzeppelin/contracts/access/Ownable.sol\":1855:1862  owner() */\n      jump\t// in\n    tag_188:\n        /* \"@openzeppelin/contracts/access/Ownable.sol\":1855:1878  owner() != _msgSender() */\n      0xffffffffffffffffffffffffffffffffffffffff\n      and\n      eq\n        /* \"@openzeppelin/contracts/access/Ownable.sol\":1851:1952  if (owner() != _msgSender()) {... */\n      tag_189\n      jumpi\n        /* \"@openzeppelin/contracts/access/Ownable.sol\":1928:1940  _msgSender() */\n      tag_190\n        /* \"@openzeppelin/contracts/access/Ownable.sol\":1928:1938  _msgSender */\n      tag_187\n        /* \"@openzeppelin/contracts/access/Ownable.sol\":1928:1940  _msgSender() */\n      jump\t// in\n    tag_190:\n        /* \"@openzeppelin/contracts/access/Ownable.sol\":1901:1941  OwnableUnauthorizedAccount(_msgSender()) */\n      mload(0x40)\n      0x118cdaa700000000000000000000000000000000000000000000000000000000\n      dup2\n      mstore\n      0x04\n      add\n      tag_191\n      swap2\n      swap1\n      tag_43\n      jump\t// in\n    tag_191:\n      mload(0x40)\n      dup1\n      swap2\n      sub\n      swap1\n      revert\n        /* \"@openzeppelin/contracts/access/Ownable.sol\":1851:1952  if (owner() != _msgSender()) {... */\n    tag_189:\n        /* \"@openzeppelin/contracts/access/Ownable.sol\":1796:1958  function _checkOwner() internal view virtual {... */\n      jump\t// out\n        /* \"@openzeppelin/contracts/utils/Pausable.sol\":2710:2827  function _unpause() internal virtual whenPaused {... */\n    tag_91:\n        /* \"@openzeppelin/contracts/utils/Pausable.sol\":1721:1737  _requirePaused() */\n      tag_193\n        /* \"@openzeppelin/contracts/utils/Pausable.sol\":1721:1735  _requirePaused */\n      tag_194\n        /* \"@openzeppelin/contracts/utils/Pausable.sol\":1721:1737  _requirePaused() */\n      jump\t// in\n    tag_193:\n        /* \"@openzeppelin/contracts/utils/Pausable.sol\":2778:2783  false */\n      0x00\n        /* \"@openzeppelin/contracts/utils/Pausable.sol\":2768:2775  _paused */\n      dup1\n      0x14\n        /* \"@openzeppelin/contracts/utils/Pausable.sol\":2768:2783  _paused = false */\n      0x0100\n      exp\n      dup2\n      sload\n      dup2\n      0xff\n      mul\n      not\n      and\n      swap1\n      dup4\n      iszero\n      iszero\n      mul\n      or\n      swap1\n      sstore\n      pop\n        /* \"@openzeppelin/contracts/utils/Pausable.sol\":2798:2820  Unpaused(_msgSender()) */\n      0x5db9ee0a495bf2e6ff9c91a7834c1ba4fdd244a5e8aa4e537bd38aeae4b073aa\n        /* \"@openzeppelin/contracts/utils/Pausable.sol\":2807:2819  _msgSender() */\n      tag_196\n        /* \"@openzeppelin/contracts/utils/Pausable.sol\":2807:2817  _msgSender */\n      tag_187\n        /* \"@openzeppelin/contracts/utils/Pausable.sol\":2807:2819  _msgSender() */\n      jump\t// in\n    tag_196:\n        /* \"@openzeppelin/contracts/utils/Pausable.sol\":2798:2820  Unpaused(_msgSender()) */\n      mload(0x40)\n      tag_197\n      swap2\n      swap1\n      tag_43\n      jump\t// in\n    tag_197:\n      mload(0x40)\n      dup1\n      swap2\n      sub\n      swap1\n      log1\n        /* \"@openzeppelin/contracts/utils/Pausable.sol\":2710:2827  function _unpause() internal virtual whenPaused {... */\n      jump\t// out\n        /* \"@openzeppelin/contracts/access/Ownable.sol\":2912:3099  function _transferOwnership(address newOwner) internal virtual {... */\n    tag_98:\n        /* \"@openzeppelin/contracts/access/Ownable.sol\":2985:3001  address oldOwner */\n      0x00\n        /* \"@openzeppelin/contracts/access/Ownable.sol\":3004:3010  _owner */\n      dup1\n      0x00\n      swap1\n      sload\n      swap1\n      0x0100\n      exp\n      swap1\n      div\n      0xffffffffffffffffffffffffffffffffffffffff\n      and\n        /* \"@openzeppelin/contracts/access/Ownable.sol\":2985:3010  address oldOwner = _owner */\n      swap1\n      pop\n        /* \"@openzeppelin/contracts/access/Ownable.sol\":3029:3037  newOwner */\n      dup2\n        /* \"@openzeppelin/contracts/access/Ownable.sol\":3020:3026  _owner */\n      0x00\n      dup1\n        /* \"@openzeppelin/contracts/access/Ownable.sol\":3020:3037  _owner = newOwner */\n      0x0100\n      exp\n      dup2\n      sload\n      dup2\n      0xffffffffffffffffffffffffffffffffffffffff\n      mul\n      not\n      and\n      swap1\n      dup4\n      0xffffffffffffffffffffffffffffffffffffffff\n      and\n      mul\n      or\n      swap1\n      sstore\n      pop\n        /* \"@openzeppelin/contracts/access/Ownable.sol\":3083:3091  newOwner */\n      dup2\n        /* \"@openzeppelin/contracts/access/Ownable.sol\":3052:3092  OwnershipTransferred(oldOwner, newOwner) */\n      0xffffffffffffffffffffffffffffffffffffffff\n      and\n        /* \"@openzeppelin/contracts/access/Ownable.sol\":3073:3081  oldOwner */\n      dup2\n        /* \"@openzeppelin/contracts/access/Ownable.sol\":3052:3092  OwnershipTransferred(oldOwner, newOwner) */\n      0xffffffffffffffffffffffffffffffffffffffff\n      and\n      0x8be0079c531659141344cd1fd0a4f28419497f9722a3daafe3b4186f6b6457e0\n      mload(0x40)\n      mload(0x40)\n      dup1\n      swap2\n      sub\n      swap1\n      log3\n        /* \"@openzeppelin/contracts/access/Ownable.sol\":2975:3099  {... */\n      pop\n        /* \"@openzeppelin/contracts/access/Ownable.sol\":2912:3099  function _transferOwnership(address newOwner) internal virtual {... */\n      pop\n      jump\t// out\n        /* \"@openzeppelin/contracts/utils/Pausable.sol\":2463:2578  function _pause() internal virtual whenNotPaused {... */\n    tag_103:\n        /* \"@openzeppelin/contracts/utils/Pausable.sol\":1474:1493  _requireNotPaused() */\n      tag_200\n        /* \"@openzeppelin/contracts/utils/Pausable.sol\":1474:1491  _requireNotPaused */\n      tag_58\n        /* \"@openzeppelin/contracts/utils/Pausable.sol\":1474:1493  _requireNotPaused() */\n      jump\t// in\n    tag_200:\n        /* \"@openzeppelin/contracts/utils/Pausable.sol\":2532:2536  true */\n      0x01\n        /* \"@openzeppelin/contracts/utils/Pausable.sol\":2522:2529  _paused */\n      0x00\n      0x14\n        /* \"@openzeppelin/contracts/utils/Pausable.sol\":2522:2536  _paused = true */\n      0x0100\n      exp\n      dup2\n      sload\n      dup2\n      0xff\n      mul\n      not\n      and\n      swap1\n      dup4\n      iszero\n      iszero\n      mul\n      or\n      swap1\n      sstore\n      pop\n        /* \"@openzeppelin/contracts/utils/Pausable.sol\":2551:2571  Paused(_msgSender()) */\n      0x62e78cea01bee320cd4e420270b5ea74000d11b0c9f74754ebdbfc544b05a258\n        /* \"@openzeppelin/contracts/utils/Pausable.sol\":2558:2570  _msgSender() */\n      tag_202\n        /* \"@openzeppelin/contracts/utils/Pausable.sol\":2558:2568  _msgSender */\n      tag_187\n        /* \"@openzeppelin/contracts/utils/Pausable.sol\":2558:2570  _msgSender() */\n      jump\t// in\n    tag_202:\n        /* \"@openzeppelin/contracts/utils/Pausable.sol\":2551:2571  Paused(_msgSender()) */\n      mload(0x40)\n      tag_203\n      swap2\n      swap1\n      tag_43\n      jump\t// in\n    tag_203:\n      mload(0x40)\n      dup1\n      swap2\n      sub\n      swap1\n      log1\n        /* \"@openzeppelin/contracts/utils/Pausable.sol\":2463:2578  function _pause() internal virtual whenNotPaused {... */\n      jump\t// out\n        /* \"@openzeppelin/contracts/utils/ReentrancyGuard.sol\":2575:2882  function _nonReentrantBefore() private {... */\n    tag_121:\n        /* \"@openzeppelin/contracts/utils/ReentrancyGuard.sol\":1899:1900  2 */\n      0x02\n        /* \"@openzeppelin/contracts/utils/ReentrancyGuard.sol\":2702:2709  _status */\n      sload(0x01)\n        /* \"@openzeppelin/contracts/utils/ReentrancyGuard.sol\":2702:2720  _status == ENTERED */\n      sub\n        /* \"@openzeppelin/contracts/utils/ReentrancyGuard.sol\":2698:2784  if (_status == ENTERED) {... */\n      tag_205\n      jumpi\n        /* \"@openzeppelin/contracts/utils/ReentrancyGuard.sol\":2743:2773  ReentrancyGuardReentrantCall() */\n      mload(0x40)\n      0x3ee5aeb500000000000000000000000000000000000000000000000000000000\n      dup2\n      mstore\n      0x04\n      add\n      mload(0x40)\n      dup1\n      swap2\n      sub\n      swap1\n      revert\n        /* \"@openzeppelin/contracts/utils/ReentrancyGuard.sol\":2698:2784  if (_status == ENTERED) {... */\n    tag_205:\n        /* \"@openzeppelin/contracts/utils/ReentrancyGuard.sol\":1899:1900  2 */\n      0x02\n        /* \"@openzeppelin/contracts/utils/ReentrancyGuard.sol\":2858:2865  _status */\n      0x01\n        /* \"@openzeppelin/contracts/utils/ReentrancyGuard.sol\":2858:2875  _status = ENTERED */\n      dup2\n      swap1\n      sstore\n      pop\n        /* \"@openzeppelin/contracts/utils/ReentrancyGuard.sol\":2575:2882  function _nonReentrantBefore() private {... */\n      jump\t// out\n        /* \"zkp/ZKVerifier.sol\":5606:5811  function generateProofHash(... */\n    tag_127:\n        /* \"zkp/ZKVerifier.sol\":5735:5742  bytes32 */\n      0x00\n        /* \"zkp/ZKVerifier.sol\":5789:5794  proof */\n      dup3\n        /* \"zkp/ZKVerifier.sol\":5796:5801  input */\n      dup3\n        /* \"zkp/ZKVerifier.sol\":5772:5802  abi.encodePacked(proof, input) */\n      add(0x20, mload(0x40))\n      tag_207\n      swap3\n      swap2\n      swap1\n      tag_208\n      jump\t// in\n    tag_207:\n      mload(0x40)\n      0x20\n      dup2\n      dup4\n      sub\n      sub\n      dup2\n      mstore\n      swap1\n      0x40\n      mstore\n        /* \"zkp/ZKVerifier.sol\":5762:5803  keccak256(abi.encodePacked(proof, input)) */\n      dup1\n      mload\n      swap1\n      0x20\n      add\n      keccak256\n        /* \"zkp/ZKVerifier.sol\":5755:5803  return keccak256(abi.encodePacked(proof, input)) */\n      swap1\n      pop\n        /* \"zkp/ZKVerifier.sol\":5606:5811  function generateProofHash(... */\n      swap3\n      swap2\n      pop\n      pop\n      jump\t// out\n        /* \"@openzeppelin/contracts/utils/ReentrancyGuard.sol\":2888:3096  function _nonReentrantAfter() private {... */\n    tag_153:\n        /* \"@openzeppelin/contracts/utils/ReentrancyGuard.sol\":1857:1858  1 */\n      0x01\n        /* \"@openzeppelin/contracts/utils/ReentrancyGuard.sol\":3068:3075  _status */\n      dup1\n        /* \"@openzeppelin/contracts/utils/ReentrancyGuard.sol\":3068:3089  _status = NOT_ENTERED */\n      dup2\n      swap1\n      sstore\n      pop\n        /* \"@openzeppelin/contracts/utils/ReentrancyGuard.sol\":2888:3096  function _nonReentrantAfter() private {... */\n      jump\t// out\n        /* \"zkp/ZKVerifier.sol\":4956:5338  function isOnCurveG1(G1Point memory point) internal pure returns (bool) {... */\n    tag_175:\n        /* \"zkp/ZKVerifier.sol\":5022:5026  bool */\n      0x00\n        /* \"zkp/ZKVerifier.sol\":5039:5048  uint256 p */\n      dup1\n        /* \"zkp/ZKVerifier.sol\":508:585  21888242871839275222246405745257275088548364400416034343698204186575808495617 */\n      0x30644e72e131a029b85045b68181585d2833e84879b9709143e1f593f0000001\n        /* \"zkp/ZKVerifier.sol\":5039:5061  uint256 p = FIELD_SIZE */\n      swap1\n      pop\n        /* \"zkp/ZKVerifier.sol\":5087:5088  p */\n      dup1\n        /* \"zkp/ZKVerifier.sol\":5076:5081  point */\n      dup4\n        /* \"zkp/ZKVerifier.sol\":5076:5083  point.X */\n      0x00\n      add\n      mload\n        /* \"zkp/ZKVerifier.sol\":5076:5088  point.X >= p */\n      lt\n      iszero\n        /* \"zkp/ZKVerifier.sol\":5076:5104  point.X >= p || point.Y >= p */\n      dup1\n      tag_211\n      jumpi\n      pop\n        /* \"zkp/ZKVerifier.sol\":5103:5104  p */\n      dup1\n        /* \"zkp/ZKVerifier.sol\":5092:5097  point */\n      dup4\n        /* \"zkp/ZKVerifier.sol\":5092:5099  point.Y */\n      0x20\n      add\n      mload\n        /* \"zkp/ZKVerifier.sol\":5092:5104  point.Y >= p */\n      lt\n      iszero\n        /* \"zkp/ZKVerifier.sol\":5076:5104  point.X >= p || point.Y >= p */\n    tag_211:\n        /* \"zkp/ZKVerifier.sol\":5072:5145  if (point.X >= p || point.Y >= p) {... */\n      iszero\n      tag_212\n      jumpi\n        /* \"zkp/ZKVerifier.sol\":5128:5133  false */\n      0x00\n        /* \"zkp/ZKVerifier.sol\":5121:5133  return false */\n      swap2\n      pop\n      pop\n      jump(tag_210)\n        /* \"zkp/ZKVerifier.sol\":5072:5145  if (point.X >= p || point.Y >= p) {... */\n    tag_212:\n        /* \"zkp/ZKVerifier.sol\":5165:5176  uint256 lhs */\n      0x00\n        /* \"zkp/ZKVerifier.sol\":5204:5205  p */\n      dup2\n        /* \"zkp/ZKVerifier.sol\":5179:5206  mulmod(point.Y, point.Y, p) */\n      dup1\n      tag_213\n      jumpi\n      tag_214\n      tag_215\n      jump\t// in\n    tag_214:\n    tag_213:\n        /* \"zkp/ZKVerifier.sol\":5195:5200  point */\n      dup5\n        /* \"zkp/ZKVerifier.sol\":5195:5202  point.Y */\n      0x20\n      add\n      mload\n        /* \"zkp/ZKVerifier.sol\":5186:5191  point */\n      dup6\n        /* \"zkp/ZKVerifier.sol\":5186:5193  point.Y */\n      0x20\n      add\n      mload\n        /* \"zkp/ZKVerifier.sol\":5179:5206  mulmod(point.Y, point.Y, p) */\n      mulmod\n        /* \"zkp/ZKVerifier.sol\":5165:5206  uint256 lhs = mulmod(point.Y, point.Y, p) */\n      swap1\n      pop\n        /* \"zkp/ZKVerifier.sol\":5217:5228  uint256 rhs */\n      0x00\n        /* \"zkp/ZKVerifier.sol\":5290:5291  p */\n      dup3\n        /* \"zkp/ZKVerifier.sol\":5231:5292  addmod(mulmod(mulmod(point.X, point.X, p), point.X, p), 3, p) */\n      dup1\n      tag_216\n      jumpi\n      tag_217\n      tag_215\n      jump\t// in\n    tag_217:\n    tag_216:\n        /* \"zkp/ZKVerifier.sol\":5287:5288  3 */\n      0x03\n        /* \"zkp/ZKVerifier.sol\":5283:5284  p */\n      dup5\n        /* \"zkp/ZKVerifier.sol\":5238:5285  mulmod(mulmod(point.X, point.X, p), point.X, p) */\n      dup1\n      tag_218\n      jumpi\n      tag_219\n      tag_215\n      jump\t// in\n    tag_219:\n    tag_218:\n        /* \"zkp/ZKVerifier.sol\":5274:5279  point */\n      dup8\n        /* \"zkp/ZKVerifier.sol\":5274:5281  point.X */\n      0x00\n      add\n      mload\n        /* \"zkp/ZKVerifier.sol\":5270:5271  p */\n      dup7\n        /* \"zkp/ZKVerifier.sol\":5245:5272  mulmod(point.X, point.X, p) */\n      dup1\n      tag_220\n      jumpi\n      tag_221\n      tag_215\n      jump\t// in\n    tag_221:\n    tag_220:\n        /* \"zkp/ZKVerifier.sol\":5261:5266  point */\n      dup10\n        /* \"zkp/ZKVerifier.sol\":5261:5268  point.X */\n      0x00\n      add\n      mload\n        /* \"zkp/ZKVerifier.sol\":5252:5257  point */\n      dup11\n        /* \"zkp/ZKVerifier.sol\":5252:5259  point.X */\n      0x00\n      add\n      mload\n        /* \"zkp/ZKVerifier.sol\":5245:5272  mulmod(point.X, point.X, p) */\n      mulmod\n        /* \"zkp/ZKVerifier.sol\":5238:5285  mulmod(mulmod(point.X, point.X, p), point.X, p) */\n      mulmod\n        /* \"zkp/ZKVerifier.sol\":5231:5292  addmod(mulmod(mulmod(point.X, point.X, p), point.X, p), 3, p) */\n      addmod\n        /* \"zkp/ZKVerifier.sol\":5217:5292  uint256 rhs = addmod(mulmod(mulmod(point.X, point.X, p), point.X, p), 3, p) */\n      swap1\n      pop\n        /* \"zkp/ZKVerifier.sol\":5327:5330  rhs */\n      dup1\n        /* \"zkp/ZKVerifier.sol\":5320:5323  lhs */\n      dup3\n        /* \"zkp/ZKVerifier.sol\":5320:5330  lhs == rhs */\n      eq\n        /* \"zkp/ZKVerifier.sol\":5313:5330  return lhs == rhs */\n      swap4\n      pop\n      pop\n      pop\n      pop\n        /* \"zkp/ZKVerifier.sol\":4956:5338  function isOnCurveG1(G1Point memory point) internal pure returns (bool) {... */\n    tag_210:\n      swap2\n      swap1\n      pop\n      jump\t// out\n        /* \"zkp/ZKVerifier.sol\":5346:5598  function isOnCurveG2(G2Point memory point) internal pure returns (bool) {... */\n    tag_178:\n        /* \"zkp/ZKVerifier.sol\":5412:5416  bool */\n      0x00\n        /* \"zkp/ZKVerifier.sol\":508:585  21888242871839275222246405745257275088548364400416034343698204186575808495617 */\n      0x30644e72e131a029b85045b68181585d2833e84879b9709143e1f593f0000001\n        /* \"zkp/ZKVerifier.sol\":5436:5441  point */\n      dup3\n        /* \"zkp/ZKVerifier.sol\":5436:5443  point.X */\n      0x00\n      add\n      mload\n        /* \"zkp/ZKVerifier.sol\":5444:5445  0 */\n      0x00\n        /* \"zkp/ZKVerifier.sol\":5436:5446  point.X[0] */\n      0x02\n      dup2\n      lt\n      tag_223\n      jumpi\n      tag_224\n      tag_67\n      jump\t// in\n    tag_224:\n    tag_223:\n      0x20\n      mul\n      add\n      mload\n        /* \"zkp/ZKVerifier.sol\":5436:5459  point.X[0] < FIELD_SIZE */\n      lt\n        /* \"zkp/ZKVerifier.sol\":5436:5503  point.X[0] < FIELD_SIZE && ... */\n      dup1\n      iszero\n      tag_225\n      jumpi\n      pop\n        /* \"zkp/ZKVerifier.sol\":508:585  21888242871839275222246405745257275088548364400416034343698204186575808495617 */\n      0x30644e72e131a029b85045b68181585d2833e84879b9709143e1f593f0000001\n        /* \"zkp/ZKVerifier.sol\":5480:5485  point */\n      dup3\n        /* \"zkp/ZKVerifier.sol\":5480:5487  point.X */\n      0x00\n      add\n      mload\n        /* \"zkp/ZKVerifier.sol\":5488:5489  1 */\n      0x01\n        /* \"zkp/ZKVerifier.sol\":5480:5490  point.X[1] */\n      0x02\n      dup2\n      lt\n      tag_226\n      jumpi\n      tag_227\n      tag_67\n      jump\t// in\n    tag_227:\n    tag_226:\n      0x20\n      mul\n      add\n      mload\n        /* \"zkp/ZKVerifier.sol\":5480:5503  point.X[1] < FIELD_SIZE */\n      lt\n        /* \"zkp/ZKVerifier.sol\":5436:5503  point.X[0] < FIELD_SIZE && ... */\n    tag_225:\n        /* \"zkp/ZKVerifier.sol\":5436:5546  point.X[0] < FIELD_SIZE && ... */\n      dup1\n      iszero\n      tag_228\n      jumpi\n      pop\n        /* \"zkp/ZKVerifier.sol\":508:585  21888242871839275222246405745257275088548364400416034343698204186575808495617 */\n      0x30644e72e131a029b85045b68181585d2833e84879b9709143e1f593f0000001\n        /* \"zkp/ZKVerifier.sol\":5523:5528  point */\n      dup3\n        /* \"zkp/ZKVerifier.sol\":5523:5530  point.Y */\n      0x20\n      add\n      mload\n        /* \"zkp/ZKVerifier.sol\":5531:5532  0 */\n      0x00\n        /* \"zkp/ZKVerifier.sol\":5523:5533  point.Y[0] */\n      0x02\n      dup2\n      lt\n      tag_229\n      jumpi\n      tag_230\n      tag_67\n      jump\t// in\n    tag_230:\n    tag_229:\n      0x20\n      mul\n      add\n      mload\n        /* \"zkp/ZKVerifier.sol\":5523:5546  point.Y[0] < FIELD_SIZE */\n      lt\n        /* \"zkp/ZKVerifier.sol\":5436:5546  point.X[0] < FIELD_SIZE && ... */\n    tag_228:\n        /* \"zkp/ZKVerifier.sol\":5436:5590  point.X[0] < FIELD_SIZE && ... */\n      dup1\n      iszero\n      tag_231\n      jumpi\n      pop\n        /* \"zkp/ZKVerifier.sol\":508:585  21888242871839275222246405745257275088548364400416034343698204186575808495617 */\n      0x30644e72e131a029b85045b68181585d2833e84879b9709143e1f593f0000001\n        /* \"zkp/ZKVerifier.sol\":5567:5572  point */\n      dup3\n        /* \"zkp/ZKVerifier.sol\":5567:5574  point.Y */\n      0x20\n      add\n      mload\n        /* \"zkp/ZKVerifier.sol\":5575:5576  1 */\n      0x01\n        /* \"zkp/ZKVerifier.sol\":5567:5577  point.Y[1] */\n      0x02\n      dup2\n      lt\n      tag_232\n      jumpi\n      tag_233\n      tag_67\n      jump\t// in\n    tag_233:\n    tag_232:\n      0x20\n      mul\n      add\n      mload\n        /* \"zkp/ZKVerifier.sol\":5567:5590  point.Y[1] < FIELD_SIZE */\n      lt\n        /* \"zkp/ZKVerifier.sol\":5436:5590  point.X[0] < FIELD_SIZE && ... */\n    tag_231:\n        /* \"zkp/ZKVerifier.sol\":5429:5590  return point.X[0] < FIELD_SIZE && ... */\n      swap1\n      pop\n        /* \"zkp/ZKVerifier.sol\":5346:5598  function isOnCurveG2(G2Point memory point) internal pure returns (bool) {... */\n      swap2\n      swap1\n      pop\n      jump\t// out\n        /* \"@openzeppelin/contracts/utils/Context.sol\":656:752  function _msgSender() internal view virtual returns (address) {... */\n    tag_187:\n        /* \"@openzeppelin/contracts/utils/Context.sol\":709:716  address */\n      0x00\n        /* \"@openzeppelin/contracts/utils/Context.sol\":735:745  msg.sender */\n      caller\n        /* \"@openzeppelin/contracts/utils/Context.sol\":728:745  return msg.sender */\n      swap1\n      pop\n        /* \"@openzeppelin/contracts/utils/Context.sol\":656:752  function _msgSender() internal view virtual returns (address) {... */\n      swap1\n      jump\t// out\n        /* \"@openzeppelin/contracts/utils/Pausable.sol\":2202:2328  function _requirePaused() internal view virtual {... */\n    tag_194:\n        /* \"@openzeppelin/contracts/utils/Pausable.sol\":2265:2273  paused() */\n      tag_236\n        /* \"@openzeppelin/contracts/utils/Pausable.sol\":2265:2271  paused */\n      tag_34\n        /* \"@openzeppelin/contracts/utils/Pausable.sol\":2265:2273  paused() */\n      jump\t// in\n    tag_236:\n        /* \"@openzeppelin/contracts/utils/Pausable.sol\":2260:2322  if (!paused()) {... */\n      tag_237\n      jumpi\n        /* \"@openzeppelin/contracts/utils/Pausable.sol\":2296:2311  ExpectedPause() */\n      mload(0x40)\n      0x8dfc202b00000000000000000000000000000000000000000000000000000000\n      dup2\n      mstore\n      0x04\n      add\n      mload(0x40)\n      dup1\n      swap2\n      sub\n      swap1\n      revert\n        /* \"@openzeppelin/contracts/utils/Pausable.sol\":2260:2322  if (!paused()) {... */\n    tag_237:\n        /* \"@openzeppelin/contracts/utils/Pausable.sol\":2202:2328  function _requirePaused() internal view virtual {... */\n      jump\t// out\n    tag_183:\n      mload(0x40)\n      dup1\n      0x0300\n      add\n      0x40\n      mstore\n      dup1\n      0x18\n      swap1\n      0x20\n      dup3\n      mul\n      dup1\n      calldatasize\n      dup4\n      calldatacopy\n      dup1\n      dup3\n      add\n      swap2\n      pop\n      pop\n      swap1\n      pop\n      pop\n      swap1\n      jump\t// out\n        /* \"#utility.yul\":7:82   */\n    tag_238:\n        /* \"#utility.yul\":40:46   */\n      0x00\n        /* \"#utility.yul\":73:75   */\n      0x40\n        /* \"#utility.yul\":67:76   */\n      mload\n        /* \"#utility.yul\":57:76   */\n      swap1\n      pop\n        /* \"#utility.yul\":7:82   */\n      swap1\n      jump\t// out\n        /* \"#utility.yul\":88:205   */\n    tag_239:\n        /* \"#utility.yul\":197:198   */\n      0x00\n        /* \"#utility.yul\":194:195   */\n      dup1\n        /* \"#utility.yul\":187:199   */\n      revert\n        /* \"#utility.yul\":334:411   */\n    tag_241:\n        /* \"#utility.yul\":371:378   */\n      0x00\n        /* \"#utility.yul\":400:405   */\n      dup2\n        /* \"#utility.yul\":389:405   */\n      swap1\n      pop\n        /* \"#utility.yul\":334:411   */\n      swap2\n      swap1\n      pop\n      jump\t// out\n        /* \"#utility.yul\":417:539   */\n    tag_242:\n        /* \"#utility.yul\":490:514   */\n      tag_288\n        /* \"#utility.yul\":508:513   */\n      dup2\n        /* \"#utility.yul\":490:514   */\n      tag_241\n      jump\t// in\n    tag_288:\n        /* \"#utility.yul\":483:488   */\n      dup2\n        /* \"#utility.yul\":480:515   */\n      eq\n        /* \"#utility.yul\":470:533   */\n      tag_289\n      jumpi\n        /* \"#utility.yul\":529:530   */\n      0x00\n        /* \"#utility.yul\":526:527   */\n      dup1\n        /* \"#utility.yul\":519:531   */\n      revert\n        /* \"#utility.yul\":470:533   */\n    tag_289:\n        /* \"#utility.yul\":417:539   */\n      pop\n      jump\t// out\n        /* \"#utility.yul\":545:684   */\n    tag_243:\n        /* \"#utility.yul\":591:596   */\n      0x00\n        /* \"#utility.yul\":629:635   */\n      dup2\n        /* \"#utility.yul\":616:636   */\n      calldataload\n        /* \"#utility.yul\":607:636   */\n      swap1\n      pop\n        /* \"#utility.yul\":645:678   */\n      tag_291\n        /* \"#utility.yul\":672:677   */\n      dup2\n        /* \"#utility.yul\":645:678   */\n      tag_242\n      jump\t// in\n    tag_291:\n        /* \"#utility.yul\":545:684   */\n      swap3\n      swap2\n      pop\n      pop\n      jump\t// out\n        /* \"#utility.yul\":690:1019   */\n    tag_17:\n        /* \"#utility.yul\":749:755   */\n      0x00\n        /* \"#utility.yul\":798:800   */\n      0x20\n        /* \"#utility.yul\":786:795   */\n      dup3\n        /* \"#utility.yul\":777:784   */\n      dup5\n        /* \"#utility.yul\":773:796   */\n      sub\n        /* \"#utility.yul\":769:801   */\n      slt\n        /* \"#utility.yul\":766:885   */\n      iszero\n      tag_293\n      jumpi\n        /* \"#utility.yul\":804:883   */\n      tag_294\n      tag_239\n      jump\t// in\n    tag_294:\n        /* \"#utility.yul\":766:885   */\n    tag_293:\n        /* \"#utility.yul\":924:925   */\n      0x00\n        /* \"#utility.yul\":949:1002   */\n      tag_295\n        /* \"#utility.yul\":994:1001   */\n      dup5\n        /* \"#utility.yul\":985:991   */\n      dup3\n        /* \"#utility.yul\":974:983   */\n      dup6\n        /* \"#utility.yul\":970:992   */\n      add\n        /* \"#utility.yul\":949:1002   */\n      tag_243\n      jump\t// in\n    tag_295:\n        /* \"#utility.yul\":939:1002   */\n      swap2\n      pop\n        /* \"#utility.yul\":895:1012   */\n      pop\n        /* \"#utility.yul\":690:1019   */\n      swap3\n      swap2\n      pop\n      pop\n      jump\t// out\n        /* \"#utility.yul\":1025:1115   */\n    tag_244:\n        /* \"#utility.yul\":1059:1066   */\n      0x00\n        /* \"#utility.yul\":1102:1107   */\n      dup2\n        /* \"#utility.yul\":1095:1108   */\n      iszero\n        /* \"#utility.yul\":1088:1109   */\n      iszero\n        /* \"#utility.yul\":1077:1109   */\n      swap1\n      pop\n        /* \"#utility.yul\":1025:1115   */\n      swap2\n      swap1\n      pop\n      jump\t// out\n        /* \"#utility.yul\":1121:1230   */\n    tag_245:\n        /* \"#utility.yul\":1202:1223   */\n      tag_298\n        /* \"#utility.yul\":1217:1222   */\n      dup2\n        /* \"#utility.yul\":1202:1223   */\n      tag_244\n      jump\t// in\n    tag_298:\n        /* \"#utility.yul\":1197:1200   */\n      dup3\n        /* \"#utility.yul\":1190:1224   */\n      mstore\n        /* \"#utility.yul\":1121:1230   */\n      pop\n      pop\n      jump\t// out\n        /* \"#utility.yul\":1236:1446   */\n    tag_20:\n        /* \"#utility.yul\":1323:1327   */\n      0x00\n        /* \"#utility.yul\":1361:1363   */\n      0x20\n        /* \"#utility.yul\":1350:1359   */\n      dup3\n        /* \"#utility.yul\":1346:1364   */\n      add\n        /* \"#utility.yul\":1338:1364   */\n      swap1\n      pop\n        /* \"#utility.yul\":1374:1439   */\n      tag_300\n        /* \"#utility.yul\":1436:1437   */\n      0x00\n        /* \"#utility.yul\":1425:1434   */\n      dup4\n        /* \"#utility.yul\":1421:1438   */\n      add\n        /* \"#utility.yul\":1412:1418   */\n      dup5\n        /* \"#utility.yul\":1374:1439   */\n      tag_245\n      jump\t// in\n    tag_300:\n        /* \"#utility.yul\":1236:1446   */\n      swap3\n      swap2\n      pop\n      pop\n      jump\t// out\n        /* \"#utility.yul\":1452:1569   */\n    tag_246:\n        /* \"#utility.yul\":1561:1562   */\n      0x00\n        /* \"#utility.yul\":1558:1559   */\n      dup1\n        /* \"#utility.yul\":1551:1563   */\n      revert\n        /* \"#utility.yul\":1593:1842   */\n    tag_247:\n        /* \"#utility.yul\":1664:1672   */\n      0x00\n        /* \"#utility.yul\":1695:1701   */\n      dup2\n        /* \"#utility.yul\":1683:1701   */\n      swap1\n      pop\n        /* \"#utility.yul\":1748:1751   */\n      dup3\n        /* \"#utility.yul\":1740:1744   */\n      0x20\n        /* \"#utility.yul\":1734:1738   */\n      0x08\n        /* \"#utility.yul\":1730:1745   */\n      mul\n        /* \"#utility.yul\":1720:1728   */\n      dup3\n        /* \"#utility.yul\":1716:1746   */\n      add\n        /* \"#utility.yul\":1713:1752   */\n      gt\n        /* \"#utility.yul\":1710:1836   */\n      iszero\n      tag_303\n      jumpi\n        /* \"#utility.yul\":1755:1834   */\n      tag_304\n      tag_246\n      jump\t// in\n    tag_304:\n        /* \"#utility.yul\":1710:1836   */\n    tag_303:\n        /* \"#utility.yul\":1593:1842   */\n      swap3\n      swap2\n      pop\n      pop\n      jump\t// out\n        /* \"#utility.yul\":1866:2115   */\n    tag_248:\n        /* \"#utility.yul\":1937:1945   */\n      0x00\n        /* \"#utility.yul\":1968:1974   */\n      dup2\n        /* \"#utility.yul\":1956:1974   */\n      swap1\n      pop\n        /* \"#utility.yul\":2021:2024   */\n      dup3\n        /* \"#utility.yul\":2013:2017   */\n      0x20\n        /* \"#utility.yul\":2007:2011   */\n      0x01\n        /* \"#utility.yul\":2003:2018   */\n      mul\n        /* \"#utility.yul\":1993:2001   */\n      dup3\n        /* \"#utility.yul\":1989:2019   */\n      add\n        /* \"#utility.yul\":1986:2025   */\n      gt\n        /* \"#utility.yul\":1983:2109   */\n      iszero\n      tag_306\n      jumpi\n        /* \"#utility.yul\":2028:2107   */\n      tag_307\n      tag_246\n      jump\t// in\n    tag_307:\n        /* \"#utility.yul\":1983:2109   */\n    tag_306:\n        /* \"#utility.yul\":1866:2115   */\n      swap3\n      swap2\n      pop\n      pop\n      jump\t// out\n        /* \"#utility.yul\":2121:2697   */\n    tag_23:\n        /* \"#utility.yul\":2239:2245   */\n      0x00\n        /* \"#utility.yul\":2247:2253   */\n      dup1\n        /* \"#utility.yul\":2296:2299   */\n      0x0120\n        /* \"#utility.yul\":2284:2293   */\n      dup4\n        /* \"#utility.yul\":2275:2282   */\n      dup6\n        /* \"#utility.yul\":2271:2294   */\n      sub\n        /* \"#utility.yul\":2267:2300   */\n      slt\n        /* \"#utility.yul\":2264:2384   */\n      iszero\n      tag_309\n      jumpi\n        /* \"#utility.yul\":2303:2382   */\n      tag_310\n      tag_239\n      jump\t// in\n    tag_310:\n        /* \"#utility.yul\":2264:2384   */\n    tag_309:\n        /* \"#utility.yul\":2423:2424   */\n      0x00\n        /* \"#utility.yul\":2448:2526   */\n      tag_311\n        /* \"#utility.yul\":2518:2525   */\n      dup6\n        /* \"#utility.yul\":2509:2515   */\n      dup3\n        /* \"#utility.yul\":2498:2507   */\n      dup7\n        /* \"#utility.yul\":2494:2516   */\n      add\n        /* \"#utility.yul\":2448:2526   */\n      tag_247\n      jump\t// in\n    tag_311:\n        /* \"#utility.yul\":2438:2526   */\n      swap3\n      pop\n        /* \"#utility.yul\":2394:2536   */\n      pop\n        /* \"#utility.yul\":2575:2578   */\n      0x0100\n        /* \"#utility.yul\":2602:2680   */\n      tag_312\n        /* \"#utility.yul\":2672:2679   */\n      dup6\n        /* \"#utility.yul\":2663:2669   */\n      dup3\n        /* \"#utility.yul\":2652:2661   */\n      dup7\n        /* \"#utility.yul\":2648:2670   */\n      add\n        /* \"#utility.yul\":2602:2680   */\n      tag_248\n      jump\t// in\n    tag_312:\n        /* \"#utility.yul\":2592:2680   */\n      swap2\n      pop\n        /* \"#utility.yul\":2546:2690   */\n      pop\n        /* \"#utility.yul\":2121:2697   */\n      swap3\n      pop\n      swap3\n      swap1\n      pop\n      jump\t// out\n        /* \"#utility.yul\":2703:2780   */\n    tag_249:\n        /* \"#utility.yul\":2740:2747   */\n      0x00\n        /* \"#utility.yul\":2769:2774   */\n      dup2\n        /* \"#utility.yul\":2758:2774   */\n      swap1\n      pop\n        /* \"#utility.yul\":2703:2780   */\n      swap2\n      swap1\n      pop\n      jump\t// out\n        /* \"#utility.yul\":2786:2904   */\n    tag_250:\n        /* \"#utility.yul\":2873:2897   */\n      tag_315\n        /* \"#utility.yul\":2891:2896   */\n      dup2\n        /* \"#utility.yul\":2873:2897   */\n      tag_249\n      jump\t// in\n    tag_315:\n        /* \"#utility.yul\":2868:2871   */\n      dup3\n        /* \"#utility.yul\":2861:2898   */\n      mstore\n        /* \"#utility.yul\":2786:2904   */\n      pop\n      pop\n      jump\t// out\n        /* \"#utility.yul\":2910:3230   */\n    tag_32:\n        /* \"#utility.yul\":3025:3029   */\n      0x00\n        /* \"#utility.yul\":3063:3065   */\n      0x40\n        /* \"#utility.yul\":3052:3061   */\n      dup3\n        /* \"#utility.yul\":3048:3066   */\n      add\n        /* \"#utility.yul\":3040:3066   */\n      swap1\n      pop\n        /* \"#utility.yul\":3076:3141   */\n      tag_317\n        /* \"#utility.yul\":3138:3139   */\n      0x00\n        /* \"#utility.yul\":3127:3136   */\n      dup4\n        /* \"#utility.yul\":3123:3140   */\n      add\n        /* \"#utility.yul\":3114:3120   */\n      dup6\n        /* \"#utility.yul\":3076:3141   */\n      tag_245\n      jump\t// in\n    tag_317:\n        /* \"#utility.yul\":3151:3223   */\n      tag_318\n        /* \"#utility.yul\":3219:3221   */\n      0x20\n        /* \"#utility.yul\":3208:3217   */\n      dup4\n        /* \"#utility.yul\":3204:3222   */\n      add\n        /* \"#utility.yul\":3195:3201   */\n      dup5\n        /* \"#utility.yul\":3151:3223   */\n      tag_250\n      jump\t// in\n    tag_318:\n        /* \"#utility.yul\":2910:3230   */\n      swap4\n      swap3\n      pop\n      pop\n      pop\n      jump\t// out\n        /* \"#utility.yul\":3236:3362   */\n    tag_251:\n        /* \"#utility.yul\":3273:3280   */\n      0x00\n        /* \"#utility.yul\":3313:3355   */\n      0xffffffffffffffffffffffffffffffffffffffff\n        /* \"#utility.yul\":3306:3311   */\n      dup3\n        /* \"#utility.yul\":3302:3356   */\n      and\n        /* \"#utility.yul\":3291:3356   */\n      swap1\n      pop\n        /* \"#utility.yul\":3236:3362   */\n      swap2\n      swap1\n      pop\n      jump\t// out\n        /* \"#utility.yul\":3368:3464   */\n    tag_252:\n        /* \"#utility.yul\":3405:3412   */\n      0x00\n        /* \"#utility.yul\":3434:3458   */\n      tag_321\n        /* \"#utility.yul\":3452:3457   */\n      dup3\n        /* \"#utility.yul\":3434:3458   */\n      tag_251\n      jump\t// in\n    tag_321:\n        /* \"#utility.yul\":3423:3458   */\n      swap1\n      pop\n        /* \"#utility.yul\":3368:3464   */\n      swap2\n      swap1\n      pop\n      jump\t// out\n        /* \"#utility.yul\":3470:3588   */\n    tag_253:\n        /* \"#utility.yul\":3557:3581   */\n      tag_323\n        /* \"#utility.yul\":3575:3580   */\n      dup2\n        /* \"#utility.yul\":3557:3581   */\n      tag_252\n      jump\t// in\n    tag_323:\n        /* \"#utility.yul\":3552:3555   */\n      dup3\n        /* \"#utility.yul\":3545:3582   */\n      mstore\n        /* \"#utility.yul\":3470:3588   */\n      pop\n      pop\n      jump\t// out\n        /* \"#utility.yul\":3594:3816   */\n    tag_43:\n        /* \"#utility.yul\":3687:3691   */\n      0x00\n        /* \"#utility.yul\":3725:3727   */\n      0x20\n        /* \"#utility.yul\":3714:3723   */\n      dup3\n        /* \"#utility.yul\":3710:3728   */\n      add\n        /* \"#utility.yul\":3702:3728   */\n      swap1\n      pop\n        /* \"#utility.yul\":3738:3809   */\n      tag_325\n        /* \"#utility.yul\":3806:3807   */\n      0x00\n        /* \"#utility.yul\":3795:3804   */\n      dup4\n        /* \"#utility.yul\":3791:3808   */\n      add\n        /* \"#utility.yul\":3782:3788   */\n      dup5\n        /* \"#utility.yul\":3738:3809   */\n      tag_253\n      jump\t// in\n    tag_325:\n        /* \"#utility.yul\":3594:3816   */\n      swap3\n      swap2\n      pop\n      pop\n      jump\t// out\n        /* \"#utility.yul\":3822:3944   */\n    tag_254:\n        /* \"#utility.yul\":3895:3919   */\n      tag_327\n        /* \"#utility.yul\":3913:3918   */\n      dup2\n        /* \"#utility.yul\":3895:3919   */\n      tag_249\n      jump\t// in\n    tag_327:\n        /* \"#utility.yul\":3888:3893   */\n      dup2\n        /* \"#utility.yul\":3885:3920   */\n      eq\n        /* \"#utility.yul\":3875:3938   */\n      tag_328\n      jumpi\n        /* \"#utility.yul\":3934:3935   */\n      0x00\n        /* \"#utility.yul\":3931:3932   */\n      dup1\n        /* \"#utility.yul\":3924:3936   */\n      revert\n        /* \"#utility.yul\":3875:3938   */\n    tag_328:\n        /* \"#utility.yul\":3822:3944   */\n      pop\n      jump\t// out\n        /* \"#utility.yul\":3950:4089   */\n    tag_255:\n        /* \"#utility.yul\":3996:4001   */\n      0x00\n        /* \"#utility.yul\":4034:4040   */\n      dup2\n        /* \"#utility.yul\":4021:4041   */\n      calldataload\n        /* \"#utility.yul\":4012:4041   */\n      swap1\n      pop\n        /* \"#utility.yul\":4050:4083   */\n      tag_330\n        /* \"#utility.yul\":4077:4082   */\n      dup2\n        /* \"#utility.yul\":4050:4083   */\n      tag_254\n      jump\t// in\n    tag_330:\n        /* \"#utility.yul\":3950:4089   */\n      swap3\n      swap2\n      pop\n      pop\n      jump\t// out\n        /* \"#utility.yul\":4095:4424   */\n    tag_46:\n        /* \"#utility.yul\":4154:4160   */\n      0x00\n        /* \"#utility.yul\":4203:4205   */\n      0x20\n        /* \"#utility.yul\":4191:4200   */\n      dup3\n        /* \"#utility.yul\":4182:4189   */\n      dup5\n        /* \"#utility.yul\":4178:4201   */\n      sub\n        /* \"#utility.yul\":4174:4206   */\n      slt\n        /* \"#utility.yul\":4171:4290   */\n      iszero\n      tag_332\n      jumpi\n        /* \"#utility.yul\":4209:4288   */\n      tag_333\n      tag_239\n      jump\t// in\n    tag_333:\n        /* \"#utility.yul\":4171:4290   */\n    tag_332:\n        /* \"#utility.yul\":4329:4330   */\n      0x00\n        /* \"#utility.yul\":4354:4407   */\n      tag_334\n        /* \"#utility.yul\":4399:4406   */\n      dup5\n        /* \"#utility.yul\":4390:4396   */\n      dup3\n        /* \"#utility.yul\":4379:4388   */\n      dup6\n        /* \"#utility.yul\":4375:4397   */\n      add\n        /* \"#utility.yul\":4354:4407   */\n      tag_255\n      jump\t// in\n    tag_334:\n        /* \"#utility.yul\":4344:4407   */\n      swap2\n      pop\n        /* \"#utility.yul\":4300:4417   */\n      pop\n        /* \"#utility.yul\":4095:4424   */\n      swap3\n      swap2\n      pop\n      pop\n      jump\t// out\n        /* \"#utility.yul\":4430:4552   */\n    tag_256:\n        /* \"#utility.yul\":4503:4527   */\n      tag_336\n        /* \"#utility.yul\":4521:4526   */\n      dup2\n        /* \"#utility.yul\":4503:4527   */\n      tag_252\n      jump\t// in\n    tag_336:\n        /* \"#utility.yul\":4496:4501   */\n      dup2\n        /* \"#utility.yul\":4493:4528   */\n      eq\n        /* \"#utility.yul\":4483:4546   */\n      tag_337\n      jumpi\n        /* \"#utility.yul\":4542:4543   */\n      0x00\n        /* \"#utility.yul\":4539:4540   */\n      dup1\n        /* \"#utility.yul\":4532:4544   */\n      revert\n        /* \"#utility.yul\":4483:4546   */\n    tag_337:\n        /* \"#utility.yul\":4430:4552   */\n      pop\n      jump\t// out\n        /* \"#utility.yul\":4558:4697   */\n    tag_257:\n        /* \"#utility.yul\":4604:4609   */\n      0x00\n        /* \"#utility.yul\":4642:4648   */\n      dup2\n        /* \"#utility.yul\":4629:4649   */\n      calldataload\n        /* \"#utility.yul\":4620:4649   */\n      swap1\n      pop\n        /* \"#utility.yul\":4658:4691   */\n      tag_339\n        /* \"#utility.yul\":4685:4690   */\n      dup2\n        /* \"#utility.yul\":4658:4691   */\n      tag_256\n      jump\t// in\n    tag_339:\n        /* \"#utility.yul\":4558:4697   */\n      swap3\n      swap2\n      pop\n      pop\n      jump\t// out\n        /* \"#utility.yul\":4703:5032   */\n    tag_54:\n        /* \"#utility.yul\":4762:4768   */\n      0x00\n        /* \"#utility.yul\":4811:4813   */\n      0x20\n        /* \"#utility.yul\":4799:4808   */\n      dup3\n        /* \"#utility.yul\":4790:4797   */\n      dup5\n        /* \"#utility.yul\":4786:4809   */\n      sub\n        /* \"#utility.yul\":4782:4814   */\n      slt\n        /* \"#utility.yul\":4779:4898   */\n      iszero\n      tag_341\n      jumpi\n        /* \"#utility.yul\":4817:4896   */\n      tag_342\n      tag_239\n      jump\t// in\n    tag_342:\n        /* \"#utility.yul\":4779:4898   */\n    tag_341:\n        /* \"#utility.yul\":4937:4938   */\n      0x00\n        /* \"#utility.yul\":4962:5015   */\n      tag_343\n        /* \"#utility.yul\":5007:5014   */\n      dup5\n        /* \"#utility.yul\":4998:5004   */\n      dup3\n        /* \"#utility.yul\":4987:4996   */\n      dup6\n        /* \"#utility.yul\":4983:5005   */\n      add\n        /* \"#utility.yul\":4962:5015   */\n      tag_257\n      jump\t// in\n    tag_343:\n        /* \"#utility.yul\":4952:5015   */\n      swap2\n      pop\n        /* \"#utility.yul\":4908:5025   */\n      pop\n        /* \"#utility.yul\":4703:5032   */\n      swap3\n      swap2\n      pop\n      pop\n      jump\t// out\n        /* \"#utility.yul\":5038:5207   */\n    tag_258:\n        /* \"#utility.yul\":5122:5133   */\n      0x00\n        /* \"#utility.yul\":5156:5162   */\n      dup3\n        /* \"#utility.yul\":5151:5154   */\n      dup3\n        /* \"#utility.yul\":5144:5163   */\n      mstore\n        /* \"#utility.yul\":5196:5200   */\n      0x20\n        /* \"#utility.yul\":5191:5194   */\n      dup3\n        /* \"#utility.yul\":5187:5201   */\n      add\n        /* \"#utility.yul\":5172:5201   */\n      swap1\n      pop\n        /* \"#utility.yul\":5038:5207   */\n      swap3\n      swap2\n      pop\n      pop\n      jump\t// out\n        /* \"#utility.yul\":5213:5377   */\n    tag_259:\n        /* \"#utility.yul\":5353:5369   */\n      0x496e76616c696420696e70757473000000000000000000000000000000000000\n        /* \"#utility.yul\":5349:5350   */\n      0x00\n        /* \"#utility.yul\":5341:5347   */\n      dup3\n        /* \"#utility.yul\":5337:5351   */\n      add\n        /* \"#utility.yul\":5330:5370   */\n      mstore\n        /* \"#utility.yul\":5213:5377   */\n      pop\n      jump\t// out\n        /* \"#utility.yul\":5383:5749   */\n    tag_260:\n        /* \"#utility.yul\":5525:5528   */\n      0x00\n        /* \"#utility.yul\":5546:5613   */\n      tag_347\n        /* \"#utility.yul\":5610:5612   */\n      0x0e\n        /* \"#utility.yul\":5605:5608   */\n      dup4\n        /* \"#utility.yul\":5546:5613   */\n      tag_258\n      jump\t// in\n    tag_347:\n        /* \"#utility.yul\":5539:5613   */\n      swap2\n      pop\n        /* \"#utility.yul\":5622:5715   */\n      tag_348\n        /* \"#utility.yul\":5711:5714   */\n      dup3\n        /* \"#utility.yul\":5622:5715   */\n      tag_259\n      jump\t// in\n    tag_348:\n        /* \"#utility.yul\":5740:5742   */\n      0x20\n        /* \"#utility.yul\":5735:5738   */\n      dup3\n        /* \"#utility.yul\":5731:5743   */\n      add\n        /* \"#utility.yul\":5724:5743   */\n      swap1\n      pop\n        /* \"#utility.yul\":5383:5749   */\n      swap2\n      swap1\n      pop\n      jump\t// out\n        /* \"#utility.yul\":5755:6174   */\n    tag_64:\n        /* \"#utility.yul\":5921:5925   */\n      0x00\n        /* \"#utility.yul\":5959:5961   */\n      0x20\n        /* \"#utility.yul\":5948:5957   */\n      dup3\n        /* \"#utility.yul\":5944:5962   */\n      add\n        /* \"#utility.yul\":5936:5962   */\n      swap1\n      pop\n        /* \"#utility.yul\":6008:6017   */\n      dup2\n        /* \"#utility.yul\":6002:6006   */\n      dup2\n        /* \"#utility.yul\":5998:6018   */\n      sub\n        /* \"#utility.yul\":5994:5995   */\n      0x00\n        /* \"#utility.yul\":5983:5992   */\n      dup4\n        /* \"#utility.yul\":5979:5996   */\n      add\n        /* \"#utility.yul\":5972:6019   */\n      mstore\n        /* \"#utility.yul\":6036:6167   */\n      tag_350\n        /* \"#utility.yul\":6162:6166   */\n      dup2\n        /* \"#utility.yul\":6036:6167   */\n      tag_260\n      jump\t// in\n    tag_350:\n        /* \"#utility.yul\":6028:6167   */\n      swap1\n      pop\n        /* \"#utility.yul\":5755:6174   */\n      swap2\n      swap1\n      pop\n      jump\t// out\n        /* \"#utility.yul\":6180:6360   */\n    tag_67:\n        /* \"#utility.yul\":6228:6305   */\n      0x4e487b7100000000000000000000000000000000000000000000000000000000\n        /* \"#utility.yul\":6225:6226   */\n      0x00\n        /* \"#utility.yul\":6218:6306   */\n      mstore\n        /* \"#utility.yul\":6325:6329   */\n      0x32\n        /* \"#utility.yul\":6322:6323   */\n      0x04\n        /* \"#utility.yul\":6315:6330   */\n      mstore\n        /* \"#utility.yul\":6349:6353   */\n      0x24\n        /* \"#utility.yul\":6346:6347   */\n      0x00\n        /* \"#utility.yul\":6339:6354   */\n      revert\n        /* \"#utility.yul\":6366:6535   */\n    tag_261:\n        /* \"#utility.yul\":6506:6527   */\n      0x496e76616c696420626c6f636b20636f756e7400000000000000000000000000\n        /* \"#utility.yul\":6502:6503   */\n      0x00\n        /* \"#utility.yul\":6494:6500   */\n      dup3\n        /* \"#utility.yul\":6490:6504   */\n      add\n        /* \"#utility.yul\":6483:6528   */\n      mstore\n        /* \"#utility.yul\":6366:6535   */\n      pop\n      jump\t// out\n        /* \"#utility.yul\":6541:6907   */\n    tag_262:\n        /* \"#utility.yul\":6683:6686   */\n      0x00\n        /* \"#utility.yul\":6704:6771   */\n      tag_354\n        /* \"#utility.yul\":6768:6770   */\n      0x13\n        /* \"#utility.yul\":6763:6766   */\n      dup4\n        /* \"#utility.yul\":6704:6771   */\n      tag_258\n      jump\t// in\n    tag_354:\n        /* \"#utility.yul\":6697:6771   */\n      swap2\n      pop\n        /* \"#utility.yul\":6780:6873   */\n      tag_355\n        /* \"#utility.yul\":6869:6872   */\n      dup3\n        /* \"#utility.yul\":6780:6873   */\n      tag_261\n      jump\t// in\n    tag_355:\n        /* \"#utility.yul\":6898:6900   */\n      0x20\n        /* \"#utility.yul\":6893:6896   */\n      dup3\n        /* \"#utility.yul\":6889:6901   */\n      add\n        /* \"#utility.yul\":6882:6901   */\n      swap1\n      pop\n        /* \"#utility.yul\":6541:6907   */\n      swap2\n      swap1\n      pop\n      jump\t// out\n        /* \"#utility.yul\":6913:7332   */\n    tag_110:\n        /* \"#utility.yul\":7079:7083   */\n      0x00\n        /* \"#utility.yul\":7117:7119   */\n      0x20\n        /* \"#utility.yul\":7106:7115   */\n      dup3\n        /* \"#utility.yul\":7102:7120   */\n      add\n        /* \"#utility.yul\":7094:7120   */\n      swap1\n      pop\n        /* \"#utility.yul\":7166:7175   */\n      dup2\n        /* \"#utility.yul\":7160:7164   */\n      dup2\n        /* \"#utility.yul\":7156:7176   */\n      sub\n        /* \"#utility.yul\":7152:7153   */\n      0x00\n        /* \"#utility.yul\":7141:7150   */\n      dup4\n        /* \"#utility.yul\":7137:7154   */\n      add\n        /* \"#utility.yul\":7130:7177   */\n      mstore\n        /* \"#utility.yul\":7194:7325   */\n      tag_357\n        /* \"#utility.yul\":7320:7324   */\n      dup2\n        /* \"#utility.yul\":7194:7325   */\n      tag_262\n      jump\t// in\n    tag_357:\n        /* \"#utility.yul\":7186:7325   */\n      swap1\n      pop\n        /* \"#utility.yul\":6913:7332   */\n      swap2\n      swap1\n      pop\n      jump\t// out\n        /* \"#utility.yul\":7338:7518   */\n    tag_263:\n        /* \"#utility.yul\":7386:7463   */\n      0x4e487b7100000000000000000000000000000000000000000000000000000000\n        /* \"#utility.yul\":7383:7384   */\n      0x00\n        /* \"#utility.yul\":7376:7464   */\n      mstore\n        /* \"#utility.yul\":7483:7487   */\n      0x11\n        /* \"#utility.yul\":7480:7481   */\n      0x04\n        /* \"#utility.yul\":7473:7488   */\n      mstore\n        /* \"#utility.yul\":7507:7511   */\n      0x24\n        /* \"#utility.yul\":7504:7505   */\n      0x00\n        /* \"#utility.yul\":7497:7512   */\n      revert\n        /* \"#utility.yul\":7524:7718   */\n    tag_112:\n        /* \"#utility.yul\":7564:7568   */\n      0x00\n        /* \"#utility.yul\":7584:7604   */\n      tag_360\n        /* \"#utility.yul\":7602:7603   */\n      dup3\n        /* \"#utility.yul\":7584:7604   */\n      tag_249\n      jump\t// in\n    tag_360:\n        /* \"#utility.yul\":7579:7604   */\n      swap2\n      pop\n        /* \"#utility.yul\":7618:7638   */\n      tag_361\n        /* \"#utility.yul\":7636:7637   */\n      dup4\n        /* \"#utility.yul\":7618:7638   */\n      tag_249\n      jump\t// in\n    tag_361:\n        /* \"#utility.yul\":7613:7638   */\n      swap3\n      pop\n        /* \"#utility.yul\":7662:7663   */\n      dup3\n        /* \"#utility.yul\":7659:7660   */\n      dup3\n        /* \"#utility.yul\":7655:7664   */\n      sub\n        /* \"#utility.yul\":7647:7664   */\n      swap1\n      pop\n        /* \"#utility.yul\":7686:7687   */\n      dup2\n        /* \"#utility.yul\":7680:7684   */\n      dup2\n        /* \"#utility.yul\":7677:7688   */\n      gt\n        /* \"#utility.yul\":7674:7711   */\n      iszero\n      tag_362\n      jumpi\n        /* \"#utility.yul\":7691:7709   */\n      tag_363\n      tag_263\n      jump\t// in\n    tag_363:\n        /* \"#utility.yul\":7674:7711   */\n    tag_362:\n        /* \"#utility.yul\":7524:7718   */\n      swap3\n      swap2\n      pop\n      pop\n      jump\t// out\n        /* \"#utility.yul\":7724:7893   */\n    tag_264:\n        /* \"#utility.yul\":7864:7885   */\n      0x52617465206c696d697420657863656564656400000000000000000000000000\n        /* \"#utility.yul\":7860:7861   */\n      0x00\n        /* \"#utility.yul\":7852:7858   */\n      dup3\n        /* \"#utility.yul\":7848:7862   */\n      add\n        /* \"#utility.yul\":7841:7886   */\n      mstore\n        /* \"#utility.yul\":7724:7893   */\n      pop\n      jump\t// out\n        /* \"#utility.yul\":7899:8265   */\n    tag_265:\n        /* \"#utility.yul\":8041:8044   */\n      0x00\n        /* \"#utility.yul\":8062:8129   */\n      tag_366\n        /* \"#utility.yul\":8126:8128   */\n      0x13\n        /* \"#utility.yul\":8121:8124   */\n      dup4\n        /* \"#utility.yul\":8062:8129   */\n      tag_258\n      jump\t// in\n    tag_366:\n        /* \"#utility.yul\":8055:8129   */\n      swap2\n      pop\n        /* \"#utility.yul\":8138:8231   */\n      tag_367\n        /* \"#utility.yul\":8227:8230   */\n      dup3\n        /* \"#utility.yul\":8138:8231   */\n      tag_264\n      jump\t// in\n    tag_367:\n        /* \"#utility.yul\":8256:8258   */\n      0x20\n        /* \"#utility.yul\":8251:8254   */\n      dup3\n        /* \"#utility.yul\":8247:8259   */\n      add\n        /* \"#utility.yul\":8240:8259   */\n      swap1\n      pop\n        /* \"#utility.yul\":7899:8265   */\n      swap2\n      swap1\n      pop\n      jump\t// out\n        /* \"#utility.yul\":8271:8690   */\n    tag_125:\n        /* \"#utility.yul\":8437:8441   */\n      0x00\n        /* \"#utility.yul\":8475:8477   */\n      0x20\n        /* \"#utility.yul\":8464:8473   */\n      dup3\n        /* \"#utility.yul\":8460:8478   */\n      add\n        /* \"#utility.yul\":8452:8478   */\n      swap1\n      pop\n        /* \"#utility.yul\":8524:8533   */\n      dup2\n        /* \"#utility.yul\":8518:8522   */\n      dup2\n        /* \"#utility.yul\":8514:8534   */\n      sub\n        /* \"#utility.yul\":8510:8511   */\n      0x00\n        /* \"#utility.yul\":8499:8508   */\n      dup4\n        /* \"#utility.yul\":8495:8512   */\n      add\n        /* \"#utility.yul\":8488:8535   */\n      mstore\n        /* \"#utility.yul\":8552:8683   */\n      tag_369\n        /* \"#utility.yul\":8678:8682   */\n      dup2\n        /* \"#utility.yul\":8552:8683   */\n      tag_265\n      jump\t// in\n    tag_369:\n        /* \"#utility.yul\":8544:8683   */\n      swap1\n      pop\n        /* \"#utility.yul\":8271:8690   */\n      swap2\n      swap1\n      pop\n      jump\t// out\n        /* \"#utility.yul\":8696:8868   */\n    tag_266:\n        /* \"#utility.yul\":8836:8860   */\n      0x50726f6f6620616c726561647920766572696669656400000000000000000000\n        /* \"#utility.yul\":8832:8833   */\n      0x00\n        /* \"#utility.yul\":8824:8830   */\n      dup3\n        /* \"#utility.yul\":8820:8834   */\n      add\n        /* \"#utility.yul\":8813:8861   */\n      mstore\n        /* \"#utility.yul\":8696:8868   */\n      pop\n      jump\t// out\n        /* \"#utility.yul\":8874:9240   */\n    tag_267:\n        /* \"#utility.yul\":9016:9019   */\n      0x00\n        /* \"#utility.yul\":9037:9104   */\n      tag_372\n        /* \"#utility.yul\":9101:9103   */\n      0x16\n        /* \"#utility.yul\":9096:9099   */\n      dup4\n        /* \"#utility.yul\":9037:9104   */\n      tag_258\n      jump\t// in\n    tag_372:\n        /* \"#utility.yul\":9030:9104   */\n      swap2\n      pop\n        /* \"#utility.yul\":9113:9206   */\n      tag_373\n        /* \"#utility.yul\":9202:9205   */\n      dup3\n        /* \"#utility.yul\":9113:9206   */\n      tag_266\n      jump\t// in\n    tag_373:\n        /* \"#utility.yul\":9231:9233   */\n      0x20\n        /* \"#utility.yul\":9226:9229   */\n      dup3\n        /* \"#utility.yul\":9222:9234   */\n      add\n        /* \"#utility.yul\":9215:9234   */\n      swap1\n      pop\n        /* \"#utility.yul\":8874:9240   */\n      swap2\n      swap1\n      pop\n      jump\t// out\n        /* \"#utility.yul\":9246:9665   */\n    tag_130:\n        /* \"#utility.yul\":9412:9416   */\n      0x00\n        /* \"#utility.yul\":9450:9452   */\n      0x20\n        /* \"#utility.yul\":9439:9448   */\n      dup3\n        /* \"#utility.yul\":9435:9453   */\n      add\n        /* \"#utility.yul\":9427:9453   */\n      swap1\n      pop\n        /* \"#utility.yul\":9499:9508   */\n      dup2\n        /* \"#utility.yul\":9493:9497   */\n      dup2\n        /* \"#utility.yul\":9489:9509   */\n      sub\n        /* \"#utility.yul\":9485:9486   */\n      0x00\n        /* \"#utility.yul\":9474:9483   */\n      dup4\n        /* \"#utility.yul\":9470:9487   */\n      add\n        /* \"#utility.yul\":9463:9510   */\n      mstore\n        /* \"#utility.yul\":9527:9658   */\n      tag_375\n        /* \"#utility.yul\":9653:9657   */\n      dup2\n        /* \"#utility.yul\":9527:9658   */\n      tag_267\n      jump\t// in\n    tag_375:\n        /* \"#utility.yul\":9519:9658   */\n      swap1\n      pop\n        /* \"#utility.yul\":9246:9665   */\n      swap2\n      swap1\n      pop\n      jump\t// out\n        /* \"#utility.yul\":9671:9770   */\n    tag_268:\n        /* \"#utility.yul\":9756:9762   */\n      dup3\n        /* \"#utility.yul\":9751:9754   */\n      dup2\n        /* \"#utility.yul\":9746:9749   */\n      dup4\n        /* \"#utility.yul\":9733:9763   */\n      calldatacopy\n        /* \"#utility.yul\":9671:9770   */\n      pop\n      pop\n      pop\n      jump\t// out\n        /* \"#utility.yul\":9808:9980   */\n    tag_269:\n        /* \"#utility.yul\":9931:9974   */\n      tag_378\n        /* \"#utility.yul\":9967:9973   */\n      0x0100\n        /* \"#utility.yul\":9962:9965   */\n      dup4\n        /* \"#utility.yul\":9955:9960   */\n      dup4\n        /* \"#utility.yul\":9931:9974   */\n      tag_268\n      jump\t// in\n    tag_378:\n        /* \"#utility.yul\":9808:9980   */\n      pop\n      pop\n      jump\t// out\n        /* \"#utility.yul\":10018:10188   */\n    tag_270:\n        /* \"#utility.yul\":10141:10182   */\n      tag_380\n        /* \"#utility.yul\":10177:10181   */\n      0x20\n        /* \"#utility.yul\":10172:10175   */\n      dup4\n        /* \"#utility.yul\":10165:10170   */\n      dup4\n        /* \"#utility.yul\":10141:10182   */\n      tag_268\n      jump\t// in\n    tag_380:\n        /* \"#utility.yul\":10018:10188   */\n      pop\n      pop\n      jump\t// out\n        /* \"#utility.yul\":10194:10720   */\n    tag_132:\n        /* \"#utility.yul\":10411:10415   */\n      0x00\n        /* \"#utility.yul\":10449:10452   */\n      0x0120\n        /* \"#utility.yul\":10438:10447   */\n      dup3\n        /* \"#utility.yul\":10434:10453   */\n      add\n        /* \"#utility.yul\":10426:10453   */\n      swap1\n      pop\n        /* \"#utility.yul\":10463:10582   */\n      tag_382\n        /* \"#utility.yul\":10579:10580   */\n      0x00\n        /* \"#utility.yul\":10568:10577   */\n      dup4\n        /* \"#utility.yul\":10564:10581   */\n      add\n        /* \"#utility.yul\":10555:10561   */\n      dup6\n        /* \"#utility.yul\":10463:10582   */\n      tag_269\n      jump\t// in\n    tag_382:\n        /* \"#utility.yul\":10592:10713   */\n      tag_383\n        /* \"#utility.yul\":10708:10711   */\n      0x0100\n        /* \"#utility.yul\":10697:10706   */\n      dup4\n        /* \"#utility.yul\":10693:10712   */\n      add\n        /* \"#utility.yul\":10684:10690   */\n      dup5\n        /* \"#utility.yul\":10592:10713   */\n      tag_270\n      jump\t// in\n    tag_383:\n        /* \"#utility.yul\":10194:10720   */\n      swap4\n      swap3\n      pop\n      pop\n      pop\n      jump\t// out\n        /* \"#utility.yul\":10726:10842   */\n    tag_271:\n        /* \"#utility.yul\":10796:10817   */\n      tag_385\n        /* \"#utility.yul\":10811:10816   */\n      dup2\n        /* \"#utility.yul\":10796:10817   */\n      tag_244\n      jump\t// in\n    tag_385:\n        /* \"#utility.yul\":10789:10794   */\n      dup2\n        /* \"#utility.yul\":10786:10818   */\n      eq\n        /* \"#utility.yul\":10776:10836   */\n      tag_386\n      jumpi\n        /* \"#utility.yul\":10832:10833   */\n      0x00\n        /* \"#utility.yul\":10829:10830   */\n      dup1\n        /* \"#utility.yul\":10822:10834   */\n      revert\n        /* \"#utility.yul\":10776:10836   */\n    tag_386:\n        /* \"#utility.yul\":10726:10842   */\n      pop\n      jump\t// out\n        /* \"#utility.yul\":10848:10985   */\n    tag_272:\n        /* \"#utility.yul\":10902:10907   */\n      0x00\n        /* \"#utility.yul\":10933:10939   */\n      dup2\n        /* \"#utility.yul\":10927:10940   */\n      mload\n        /* \"#utility.yul\":10918:10940   */\n      swap1\n      pop\n        /* \"#utility.yul\":10949:10979   */\n      tag_388\n        /* \"#utility.yul\":10973:10978   */\n      dup2\n        /* \"#utility.yul\":10949:10979   */\n      tag_271\n      jump\t// in\n    tag_388:\n        /* \"#utility.yul\":10848:10985   */\n      swap3\n      swap2\n      pop\n      pop\n      jump\t// out\n        /* \"#utility.yul\":10991:11336   */\n    tag_135:\n        /* \"#utility.yul\":11058:11064   */\n      0x00\n        /* \"#utility.yul\":11107:11109   */\n      0x20\n        /* \"#utility.yul\":11095:11104   */\n      dup3\n        /* \"#utility.yul\":11086:11093   */\n      dup5\n        /* \"#utility.yul\":11082:11105   */\n      sub\n        /* \"#utility.yul\":11078:11110   */\n      slt\n        /* \"#utility.yul\":11075:11194   */\n      iszero\n      tag_390\n      jumpi\n        /* \"#utility.yul\":11113:11192   */\n      tag_391\n      tag_239\n      jump\t// in\n    tag_391:\n        /* \"#utility.yul\":11075:11194   */\n    tag_390:\n        /* \"#utility.yul\":11233:11234   */\n      0x00\n        /* \"#utility.yul\":11258:11319   */\n      tag_392\n        /* \"#utility.yul\":11311:11318   */\n      dup5\n        /* \"#utility.yul\":11302:11308   */\n      dup3\n        /* \"#utility.yul\":11291:11300   */\n      dup6\n        /* \"#utility.yul\":11287:11309   */\n      add\n        /* \"#utility.yul\":11258:11319   */\n      tag_272\n      jump\t// in\n    tag_392:\n        /* \"#utility.yul\":11248:11319   */\n      swap2\n      pop\n        /* \"#utility.yul\":11204:11329   */\n      pop\n        /* \"#utility.yul\":10991:11336   */\n      swap3\n      swap2\n      pop\n      pop\n      jump\t// out\n        /* \"#utility.yul\":11342:11448   */\n    tag_273:\n        /* \"#utility.yul\":11386:11394   */\n      0x00\n        /* \"#utility.yul\":11435:11440   */\n      dup2\n        /* \"#utility.yul\":11430:11433   */\n      0xe0\n        /* \"#utility.yul\":11426:11441   */\n      shr\n        /* \"#utility.yul\":11405:11441   */\n      swap1\n      pop\n        /* \"#utility.yul\":11342:11448   */\n      swap2\n      swap1\n      pop\n      jump\t// out\n        /* \"#utility.yul\":11454:11637   */\n    tag_141:\n        /* \"#utility.yul\":11489:11492   */\n      0x00\n        /* \"#utility.yul\":11527:11528   */\n      0x03\n        /* \"#utility.yul\":11509:11525   */\n      returndatasize\n        /* \"#utility.yul\":11506:11529   */\n      gt\n        /* \"#utility.yul\":11503:11631   */\n      iszero\n      tag_395\n      jumpi\n        /* \"#utility.yul\":11565:11566   */\n      0x04\n        /* \"#utility.yul\":11562:11563   */\n      0x00\n        /* \"#utility.yul\":11559:11560   */\n      dup1\n        /* \"#utility.yul\":11544:11567   */\n      returndatacopy\n        /* \"#utility.yul\":11587:11621   */\n      tag_396\n        /* \"#utility.yul\":11618:11619   */\n      0x00\n        /* \"#utility.yul\":11612:11620   */\n      mload\n        /* \"#utility.yul\":11587:11621   */\n      tag_273\n      jump\t// in\n    tag_396:\n        /* \"#utility.yul\":11580:11621   */\n      swap1\n      pop\n        /* \"#utility.yul\":11503:11631   */\n    tag_395:\n        /* \"#utility.yul\":11454:11637   */\n      swap1\n      jump\t// out\n        /* \"#utility.yul\":11643:11745   */\n    tag_274:\n        /* \"#utility.yul\":11684:11690   */\n      0x00\n        /* \"#utility.yul\":11735:11737   */\n      0x1f\n        /* \"#utility.yul\":11731:11738   */\n      not\n        /* \"#utility.yul\":11726:11728   */\n      0x1f\n        /* \"#utility.yul\":11719:11724   */\n      dup4\n        /* \"#utility.yul\":11715:11729   */\n      add\n        /* \"#utility.yul\":11711:11739   */\n      and\n        /* \"#utility.yul\":11701:11739   */\n      swap1\n      pop\n        /* \"#utility.yul\":11643:11745   */\n      swap2\n      swap1\n      pop\n      jump\t// out\n        /* \"#utility.yul\":11751:11931   */\n    tag_275:\n        /* \"#utility.yul\":11799:11876   */\n      0x4e487b7100000000000000000000000000000000000000000000000000000000\n        /* \"#utility.yul\":11796:11797   */\n      0x00\n        /* \"#utility.yul\":11789:11877   */\n      mstore\n        /* \"#utility.yul\":11896:11900   */\n      0x41\n        /* \"#utility.yul\":11893:11894   */\n      0x04\n        /* \"#utility.yul\":11886:11901   */\n      mstore\n        /* \"#utility.yul\":11920:11924   */\n      0x24\n        /* \"#utility.yul\":11917:11918   */\n      0x00\n        /* \"#utility.yul\":11910:11925   */\n      revert\n        /* \"#utility.yul\":11937:12218   */\n    tag_276:\n        /* \"#utility.yul\":12020:12047   */\n      tag_400\n        /* \"#utility.yul\":12042:12046   */\n      dup3\n        /* \"#utility.yul\":12020:12047   */\n      tag_274\n      jump\t// in\n    tag_400:\n        /* \"#utility.yul\":12012:12018   */\n      dup2\n        /* \"#utility.yul\":12008:12048   */\n      add\n        /* \"#utility.yul\":12150:12156   */\n      dup2\n        /* \"#utility.yul\":12138:12148   */\n      dup2\n        /* \"#utility.yul\":12135:12157   */\n      lt\n        /* \"#utility.yul\":12114:12132   */\n      0xffffffffffffffff\n        /* \"#utility.yul\":12102:12112   */\n      dup3\n        /* \"#utility.yul\":12099:12133   */\n      gt\n        /* \"#utility.yul\":12096:12158   */\n      or\n        /* \"#utility.yul\":12093:12181   */\n      iszero\n      tag_401\n      jumpi\n        /* \"#utility.yul\":12161:12179   */\n      tag_402\n      tag_275\n      jump\t// in\n    tag_402:\n        /* \"#utility.yul\":12093:12181   */\n    tag_401:\n        /* \"#utility.yul\":12201:12211   */\n      dup1\n        /* \"#utility.yul\":12197:12199   */\n      0x40\n        /* \"#utility.yul\":12190:12212   */\n      mstore\n        /* \"#utility.yul\":11980:12218   */\n      pop\n        /* \"#utility.yul\":11937:12218   */\n      pop\n      pop\n      jump\t// out\n        /* \"#utility.yul\":12224:12935   */\n    tag_143:\n        /* \"#utility.yul\":12263:12266   */\n      0x00\n        /* \"#utility.yul\":12301:12305   */\n      0x44\n        /* \"#utility.yul\":12283:12299   */\n      returndatasize\n        /* \"#utility.yul\":12280:12306   */\n      lt\n        /* \"#utility.yul\":12309:12314   */\n      tag_403\n        /* \"#utility.yul\":12277:12316   */\n      jumpi\n        /* \"#utility.yul\":12338:12358   */\n      tag_405\n      tag_238\n      jump\t// in\n    tag_405:\n        /* \"#utility.yul\":12413:12414   */\n      0x04\n        /* \"#utility.yul\":12395:12411   */\n      returndatasize\n        /* \"#utility.yul\":12391:12415   */\n      sub\n        /* \"#utility.yul\":12388:12389   */\n      0x04\n        /* \"#utility.yul\":12382:12386   */\n      dup3\n        /* \"#utility.yul\":12367:12416   */\n      returndatacopy\n        /* \"#utility.yul\":12446:12450   */\n      dup1\n        /* \"#utility.yul\":12440:12451   */\n      mload\n        /* \"#utility.yul\":12545:12561   */\n      returndatasize\n        /* \"#utility.yul\":12538:12542   */\n      0x24\n        /* \"#utility.yul\":12530:12536   */\n      dup3\n        /* \"#utility.yul\":12526:12543   */\n      add\n        /* \"#utility.yul\":12523:12562   */\n      gt\n        /* \"#utility.yul\":12490:12508   */\n      0xffffffffffffffff\n        /* \"#utility.yul\":12482:12488   */\n      dup3\n        /* \"#utility.yul\":12479:12509   */\n      gt\n        /* \"#utility.yul\":12463:12576   */\n      or\n        /* \"#utility.yul\":12460:12606   */\n      iszero\n      tag_406\n      jumpi\n        /* \"#utility.yul\":12591:12596   */\n      pop\n      pop\n      jump(tag_403)\n        /* \"#utility.yul\":12460:12606   */\n    tag_406:\n        /* \"#utility.yul\":12637:12643   */\n      dup1\n        /* \"#utility.yul\":12631:12635   */\n      dup3\n        /* \"#utility.yul\":12627:12644   */\n      add\n        /* \"#utility.yul\":12673:12676   */\n      dup1\n        /* \"#utility.yul\":12667:12677   */\n      mload\n        /* \"#utility.yul\":12700:12718   */\n      0xffffffffffffffff\n        /* \"#utility.yul\":12692:12698   */\n      dup2\n        /* \"#utility.yul\":12689:12719   */\n      gt\n        /* \"#utility.yul\":12686:12729   */\n      iszero\n      tag_407\n      jumpi\n        /* \"#utility.yul\":12722:12727   */\n      pop\n      pop\n      pop\n      pop\n      jump(tag_403)\n        /* \"#utility.yul\":12686:12729   */\n    tag_407:\n        /* \"#utility.yul\":12770:12776   */\n      dup1\n        /* \"#utility.yul\":12763:12767   */\n      0x20\n        /* \"#utility.yul\":12758:12761   */\n      dup4\n        /* \"#utility.yul\":12754:12768   */\n      add\n        /* \"#utility.yul\":12750:12777   */\n      add\n        /* \"#utility.yul\":12829:12830   */\n      0x04\n        /* \"#utility.yul\":12811:12827   */\n      returndatasize\n        /* \"#utility.yul\":12807:12831   */\n      sub\n        /* \"#utility.yul\":12801:12805   */\n      dup6\n        /* \"#utility.yul\":12797:12832   */\n      add\n        /* \"#utility.yul\":12792:12795   */\n      dup2\n        /* \"#utility.yul\":12789:12833   */\n      gt\n        /* \"#utility.yul\":12786:12843   */\n      iszero\n      tag_408\n      jumpi\n        /* \"#utility.yul\":12836:12841   */\n      pop\n      pop\n      pop\n      pop\n      pop\n      jump(tag_403)\n        /* \"#utility.yul\":12786:12843   */\n    tag_408:\n        /* \"#utility.yul\":12853:12910   */\n      tag_409\n        /* \"#utility.yul\":12901:12907   */\n      dup3\n        /* \"#utility.yul\":12895:12899   */\n      0x20\n        /* \"#utility.yul\":12891:12908   */\n      add\n        /* \"#utility.yul\":12883:12889   */\n      dup6\n        /* \"#utility.yul\":12879:12909   */\n      add\n        /* \"#utility.yul\":12873:12877   */\n      dup7\n        /* \"#utility.yul\":12853:12910   */\n      tag_276\n      jump\t// in\n    tag_409:\n        /* \"#utility.yul\":12926:12929   */\n      dup3\n        /* \"#utility.yul\":12919:12929   */\n      swap6\n      pop\n        /* \"#utility.yul\":12267:12935   */\n      pop\n      pop\n      pop\n      pop\n      pop\n        /* \"#utility.yul\":12224:12935   */\n    tag_403:\n      swap1\n      jump\t// out\n        /* \"#utility.yul\":12941:13040   */\n    tag_277:\n        /* \"#utility.yul\":12993:12999   */\n      0x00\n        /* \"#utility.yul\":13027:13032   */\n      dup2\n        /* \"#utility.yul\":13021:13033   */\n      mload\n        /* \"#utility.yul\":13011:13033   */\n      swap1\n      pop\n        /* \"#utility.yul\":12941:13040   */\n      swap2\n      swap1\n      pop\n      jump\t// out\n        /* \"#utility.yul\":13046:13185   */\n    tag_278:\n        /* \"#utility.yul\":13135:13141   */\n      dup3\n        /* \"#utility.yul\":13130:13133   */\n      dup2\n        /* \"#utility.yul\":13125:13128   */\n      dup4\n        /* \"#utility.yul\":13119:13142   */\n      mcopy\n        /* \"#utility.yul\":13176:13177   */\n      0x00\n        /* \"#utility.yul\":13167:13173   */\n      dup4\n        /* \"#utility.yul\":13162:13165   */\n      dup4\n        /* \"#utility.yul\":13158:13174   */\n      add\n        /* \"#utility.yul\":13151:13178   */\n      mstore\n        /* \"#utility.yul\":13046:13185   */\n      pop\n      pop\n      pop\n      jump\t// out\n        /* \"#utility.yul\":13191:13568   */\n    tag_279:\n        /* \"#utility.yul\":13279:13282   */\n      0x00\n        /* \"#utility.yul\":13307:13346   */\n      tag_413\n        /* \"#utility.yul\":13340:13345   */\n      dup3\n        /* \"#utility.yul\":13307:13346   */\n      tag_277\n      jump\t// in\n    tag_413:\n        /* \"#utility.yul\":13362:13433   */\n      tag_414\n        /* \"#utility.yul\":13426:13432   */\n      dup2\n        /* \"#utility.yul\":13421:13424   */\n      dup6\n        /* \"#utility.yul\":13362:13433   */\n      tag_258\n      jump\t// in\n    tag_414:\n        /* \"#utility.yul\":13355:13433   */\n      swap4\n      pop\n        /* \"#utility.yul\":13442:13507   */\n      tag_415\n        /* \"#utility.yul\":13500:13506   */\n      dup2\n        /* \"#utility.yul\":13495:13498   */\n      dup6\n        /* \"#utility.yul\":13488:13492   */\n      0x20\n        /* \"#utility.yul\":13481:13486   */\n      dup7\n        /* \"#utility.yul\":13477:13493   */\n      add\n        /* \"#utility.yul\":13442:13507   */\n      tag_278\n      jump\t// in\n    tag_415:\n        /* \"#utility.yul\":13532:13561   */\n      tag_416\n        /* \"#utility.yul\":13554:13560   */\n      dup2\n        /* \"#utility.yul\":13532:13561   */\n      tag_274\n      jump\t// in\n    tag_416:\n        /* \"#utility.yul\":13527:13530   */\n      dup5\n        /* \"#utility.yul\":13523:13562   */\n      add\n        /* \"#utility.yul\":13516:13562   */\n      swap2\n      pop\n        /* \"#utility.yul\":13283:13568   */\n      pop\n        /* \"#utility.yul\":13191:13568   */\n      swap3\n      swap2\n      pop\n      pop\n      jump\t// out\n        /* \"#utility.yul\":13574:13997   */\n    tag_146:\n        /* \"#utility.yul\":13715:13719   */\n      0x00\n        /* \"#utility.yul\":13753:13755   */\n      0x40\n        /* \"#utility.yul\":13742:13751   */\n      dup3\n        /* \"#utility.yul\":13738:13756   */\n      add\n        /* \"#utility.yul\":13730:13756   */\n      swap1\n      pop\n        /* \"#utility.yul\":13802:13811   */\n      dup2\n        /* \"#utility.yul\":13796:13800   */\n      dup2\n        /* \"#utility.yul\":13792:13812   */\n      sub\n        /* \"#utility.yul\":13788:13789   */\n      0x00\n        /* \"#utility.yul\":13777:13786   */\n      dup4\n        /* \"#utility.yul\":13773:13790   */\n      add\n        /* \"#utility.yul\":13766:13813   */\n      mstore\n        /* \"#utility.yul\":13830:13908   */\n      tag_418\n        /* \"#utility.yul\":13903:13907   */\n      dup2\n        /* \"#utility.yul\":13894:13900   */\n      dup6\n        /* \"#utility.yul\":13830:13908   */\n      tag_279\n      jump\t// in\n    tag_418:\n        /* \"#utility.yul\":13822:13908   */\n      swap1\n      pop\n        /* \"#utility.yul\":13918:13990   */\n      tag_419\n        /* \"#utility.yul\":13986:13988   */\n      0x20\n        /* \"#utility.yul\":13975:13984   */\n      dup4\n        /* \"#utility.yul\":13971:13989   */\n      add\n        /* \"#utility.yul\":13962:13968   */\n      dup5\n        /* \"#utility.yul\":13918:13990   */\n      tag_250\n      jump\t// in\n    tag_419:\n        /* \"#utility.yul\":13574:13997   */\n      swap4\n      swap3\n      pop\n      pop\n      pop\n      jump\t// out\n        /* \"#utility.yul\":14003:14236   */\n    tag_149:\n        /* \"#utility.yul\":14042:14045   */\n      0x00\n        /* \"#utility.yul\":14065:14089   */\n      tag_421\n        /* \"#utility.yul\":14083:14088   */\n      dup3\n        /* \"#utility.yul\":14065:14089   */\n      tag_249\n      jump\t// in\n    tag_421:\n        /* \"#utility.yul\":14056:14089   */\n      swap2\n      pop\n        /* \"#utility.yul\":14111:14177   */\n      0xffffffffffffffffffffffffffffffffffffffffffffffffffffffffffffffff\n        /* \"#utility.yul\":14104:14109   */\n      dup3\n        /* \"#utility.yul\":14101:14178   */\n      sub\n        /* \"#utility.yul\":14098:14201   */\n      tag_422\n      jumpi\n        /* \"#utility.yul\":14181:14199   */\n      tag_423\n      tag_263\n      jump\t// in\n    tag_423:\n        /* \"#utility.yul\":14098:14201   */\n    tag_422:\n        /* \"#utility.yul\":14228:14229   */\n      0x01\n        /* \"#utility.yul\":14221:14226   */\n      dup3\n        /* \"#utility.yul\":14217:14230   */\n      add\n        /* \"#utility.yul\":14210:14230   */\n      swap1\n      pop\n        /* \"#utility.yul\":14003:14236   */\n      swap2\n      swap1\n      pop\n      jump\t// out\n        /* \"#utility.yul\":14242:14464   */\n    tag_151:\n        /* \"#utility.yul\":14335:14339   */\n      0x00\n        /* \"#utility.yul\":14373:14375   */\n      0x20\n        /* \"#utility.yul\":14362:14371   */\n      dup3\n        /* \"#utility.yul\":14358:14376   */\n      add\n        /* \"#utility.yul\":14350:14376   */\n      swap1\n      pop\n        /* \"#utility.yul\":14386:14457   */\n      tag_425\n        /* \"#utility.yul\":14454:14455   */\n      0x00\n        /* \"#utility.yul\":14443:14452   */\n      dup4\n        /* \"#utility.yul\":14439:14456   */\n      add\n        /* \"#utility.yul\":14430:14436   */\n      dup5\n        /* \"#utility.yul\":14386:14457   */\n      tag_250\n      jump\t// in\n    tag_425:\n        /* \"#utility.yul\":14242:14464   */\n      swap3\n      swap2\n      pop\n      pop\n      jump\t// out\n        /* \"#utility.yul\":14502:14692   */\n    tag_280:\n        /* \"#utility.yul\":14643:14686   */\n      tag_427\n        /* \"#utility.yul\":14679:14685   */\n      0x0100\n        /* \"#utility.yul\":14674:14677   */\n      dup4\n        /* \"#utility.yul\":14667:14672   */\n      dup4\n        /* \"#utility.yul\":14643:14686   */\n      tag_268\n      jump\t// in\n    tag_427:\n        /* \"#utility.yul\":14502:14692   */\n      pop\n      pop\n      jump\t// out\n        /* \"#utility.yul\":14730:14918   */\n    tag_281:\n        /* \"#utility.yul\":14871:14912   */\n      tag_429\n        /* \"#utility.yul\":14907:14911   */\n      0x20\n        /* \"#utility.yul\":14902:14905   */\n      dup4\n        /* \"#utility.yul\":14895:14900   */\n      dup4\n        /* \"#utility.yul\":14871:14912   */\n      tag_268\n      jump\t// in\n    tag_429:\n        /* \"#utility.yul\":14730:14918   */\n      pop\n      pop\n      jump\t// out\n        /* \"#utility.yul\":14924:15514   */\n    tag_208:\n        /* \"#utility.yul\":15160:15163   */\n      0x00\n        /* \"#utility.yul\":15175:15298   */\n      tag_431\n        /* \"#utility.yul\":15294:15297   */\n      dup3\n        /* \"#utility.yul\":15285:15291   */\n      dup6\n        /* \"#utility.yul\":15175:15298   */\n      tag_280\n      jump\t// in\n    tag_431:\n        /* \"#utility.yul\":15323:15326   */\n      0x0100\n        /* \"#utility.yul\":15318:15321   */\n      dup3\n        /* \"#utility.yul\":15314:15327   */\n      add\n        /* \"#utility.yul\":15307:15327   */\n      swap2\n      pop\n        /* \"#utility.yul\":15337:15460   */\n      tag_432\n        /* \"#utility.yul\":15456:15459   */\n      dup3\n        /* \"#utility.yul\":15447:15453   */\n      dup5\n        /* \"#utility.yul\":15337:15460   */\n      tag_281\n      jump\t// in\n    tag_432:\n        /* \"#utility.yul\":15485:15487   */\n      0x20\n        /* \"#utility.yul\":15480:15483   */\n      dup3\n        /* \"#utility.yul\":15476:15488   */\n      add\n        /* \"#utility.yul\":15469:15488   */\n      swap2\n      pop\n        /* \"#utility.yul\":15505:15508   */\n      dup2\n        /* \"#utility.yul\":15498:15508   */\n      swap1\n      pop\n        /* \"#utility.yul\":14924:15514   */\n      swap4\n      swap3\n      pop\n      pop\n      pop\n      jump\t// out\n        /* \"#utility.yul\":15520:15700   */\n    tag_215:\n        /* \"#utility.yul\":15568:15645   */\n      0x4e487b7100000000000000000000000000000000000000000000000000000000\n        /* \"#utility.yul\":15565:15566   */\n      0x00\n        /* \"#utility.yul\":15558:15646   */\n      mstore\n        /* \"#utility.yul\":15665:15669   */\n      0x12\n        /* \"#utility.yul\":15662:15663   */\n      0x04\n        /* \"#utility.yul\":15655:15670   */\n      mstore\n        /* \"#utility.yul\":15689:15693   */\n      0x24\n        /* \"#utility.yul\":15686:15687   */\n      0x00\n        /* \"#utility.yul\":15679:15694   */\n      revert\n\n    auxdata: 0xa26469706673582212200d45e2269f0bc672723821a4c89dbe6e50257f5ddc060647be74f1886d90e5c564736f6c634300081a0033\n}\n",
				"bytecode": {
					"linkReferences": {},
					"object": "608060405234801561000f575f80fd5b50604051611a95380380611a9583398181016040528101906100319190610344565b805f73ffffffffffffffffffffffffffffffffffffffff168173ffffffffffffffffffffffffffffffffffffffff16036100a2575f6040517f1e4fbdf7000000000000000000000000000000000000000000000000000000008152600401610099919061037e565b60405180910390fd5b6100b18161015460201b60201c565b505f8060146101000a81548160ff021916908315150217905550600180819055505f73ffffffffffffffffffffffffffffffffffffffff168173ffffffffffffffffffffffffffffffffffffffff1603610140576040517f08c379a0000000000000000000000000000000000000000000000000000000008152600401610137906103f1565b60405180910390fd5b61014e61021560201b60201c565b5061040f565b5f805f9054906101000a900473ffffffffffffffffffffffffffffffffffffffff169050815f806101000a81548173ffffffffffffffffffffffffffffffffffffffff021916908373ffffffffffffffffffffffffffffffffffffffff1602179055508173ffffffffffffffffffffffffffffffffffffffff168173ffffffffffffffffffffffffffffffffffffffff167f8be0079c531659141344cd1fd0a4f28419497f9722a3daafe3b4186f6b6457e060405160405180910390a35050565b61022361028360201b60201c565b60015f60146101000a81548160ff0219169083151502179055507f62e78cea01bee320cd4e420270b5ea74000d11b0c9f74754ebdbfc544b05a25861026c6102ca60201b60201c565b604051610279919061037e565b60405180910390a1565b6102916102d160201b60201c565b156102c8576040517fd93c066500000000000000000000000000000000000000000000000000000000815260040160405180910390fd5b565b5f33905090565b5f8060149054906101000a900460ff16905090565b5f80fd5b5f73ffffffffffffffffffffffffffffffffffffffff82169050919050565b5f610313826102ea565b9050919050565b61032381610309565b811461032d575f80fd5b50565b5f8151905061033e8161031a565b92915050565b5f60208284031215610359576103586102e6565b5b5f61036684828501610330565b91505092915050565b61037881610309565b82525050565b5f6020820190506103915f83018461036f565b92915050565b5f82825260208201905092915050565b7f496e76616c6964206f776e6572000000000000000000000000000000000000005f82015250565b5f6103db600d83610397565b91506103e6826103a7565b602082019050919050565b5f6020820190508181035f830152610408816103cf565b9050919050565b6116798061041c5f395ff3fe608060405234801561000f575f80fd5b50600436106100a7575f3560e01c8063715018a61161006f578063715018a6146101645780638456cb591461016e5780638da5cb5b14610178578063c8fea3a514610196578063cd95fe6b146101b2578063f2fde38b146101e2576100a7565b8063176d80c4146100ab5780631b81f829146100db5780633f4ba83a1461010b57806341f03c69146101155780635c975abb14610146575b5f80fd5b6100c560048036038101906100c09190610eb9565b6101fe565b6040516100d29190610efe565b60405180910390f35b6100f560048036038101906100f09190610f5d565b61021b565b6040516101029190610efe565b60405180910390f35b6101136103ca565b005b61012f600480360381019061012a9190610eb9565b6103dc565b60405161013d929190610fb5565b60405180910390f35b61014e610417565b60405161015b9190610efe565b60405180910390f35b61016c61042c565b005b61017661043f565b005b610180610451565b60405161018d919061101b565b60405180910390f35b6101b060048036038101906101ab919061105e565b610478565b005b6101cc60048036038101906101c79190610f5d565b61050c565b6040516101d99190610efe565b60405180910390f35b6101fc60048036038101906101f791906110b3565b61079a565b005b6003602052805f5260405f205f915054906101000a900460ff1681565b5f61022461081e565b61022e838361085f565b61026d576040517f08c379a000000000000000000000000000000000000000000000000000000000815260040161026490611138565b60405180910390fd5b5f6040518060400160405280855f6008811061028c5761028b611156565b5b60200201358152602001856001600881106102aa576102a9611156565b5b602002013581525090505f60405180604001604052806040518060400160405280886002600881106102df576102de611156565b5b60200201358152602001886003600881106102fd576102fc611156565b5b6020020135815250815260200160405180604001604052808860046008811061032957610328611156565b5b602002013581526020018860056008811061034757610346611156565b5b602002013581525081525090505f60405180604001604052808760066008811061037457610373611156565b5b602002013581526020018760076008811061039257610391611156565b5b602002013581525090506103bf838383885f600181106103b5576103b4611156565b5b6020020135610914565b935050505092915050565b6103d26109b6565b6103da610a3d565b565b5f8060035f8481526020019081526020015f205f9054906101000a900460ff1660045f8581526020019081526020015f205491509150915091565b5f8060149054906101000a900460ff16905090565b6104346109b6565b61043d5f610a9e565b565b6104476109b6565b61044f610b5f565b565b5f805f9054906101000a900473ffffffffffffffffffffffffffffffffffffffff16905090565b6104806109b6565b5f81116104c2576040517f08c379a00000000000000000000000000000000000000000000000000000000081526004016104b9906111cd565b60405180910390fd5b5f81436104cf9190611218565b90505f5b828110156105075760025f82846104ea9190611218565b81526020019081526020015f205f905580806001019150506104d3565b505050565b5f61051561081e565b61051d610bc1565b603260025f4381526020019081526020015f205410610571576040517f08c379a000000000000000000000000000000000000000000000000000000000815260040161056890611295565b60405180910390fd5b5f61057c8484610c07565b905060035f8281526020019081526020015f205f9054906101000a900460ff16156105dc576040517f08c379a00000000000000000000000000000000000000000000000000000000081526004016105d3906112fd565b60405180910390fd5b5f3073ffffffffffffffffffffffffffffffffffffffff16631b81f82986866040518363ffffffff1660e01b8152600401610618929190611345565b602060405180830381865afa92505050801561065257506040513d601f19601f8201168201806040525081019061064f9190611398565b60015b6106cc5761065e6113cf565b806308c379a0036106c2575061067261145c565b8061067d57506106c4565b827feabe9d31f64f68fa6a548e84d57c997311a32ab33a5445ea892460d3253c366d82426040516106af92919061153b565b60405180910390a25f935050505061078c565b505b3d5f803e3d5ffd5b809150508060035f8481526020019081526020015f205f6101000a81548160ff0219169083151502179055504260045f8481526020019081526020015f208190555060025f4381526020019081526020015f205f81548092919061072f90611569565b91905055508015153373ffffffffffffffffffffffffffffffffffffffff16837fd70445ae79bfa82bd8c52e90ca89940dff8279c6c39f91265be2f4ae43e4cae24260405161077e91906115b0565b60405180910390a480925050505b610794610c39565b92915050565b6107a26109b6565b5f73ffffffffffffffffffffffffffffffffffffffff168173ffffffffffffffffffffffffffffffffffffffff1603610812575f6040517f1e4fbdf7000000000000000000000000000000000000000000000000000000008152600401610809919061101b565b60405180910390fd5b61081b81610a9e565b50565b610826610417565b1561085d576040517fd93c066500000000000000000000000000000000000000000000000000000000815260040160405180910390fd5b565b5f805f90505b60088110156108c2577f30644e72e131a029b85045b68181585d2833e84879b9709143e1f593f00000018482600881106108a2576108a1611156565b5b6020020135106108b5575f91505061090e565b8080600101915050610865565b507f30644e72e131a029b85045b68181585d2833e84879b9709143e1f593f0000001825f600181106108f7576108f6611156565b5b602002013510610909575f905061090e565b600190505b92915050565b5f61091e85610c42565b1580610930575061092e84610cf7565b155b80610941575061093f83610c42565b155b1561094e575f90506109ae565b610956610e56565b5f865182526020870151602083015260208601805160408401526020810151606084015260408101516080840152606081015160a08401526020836103008560085afa806109a2575f80fd5b83519250505080925050505b949350505050565b6109be610e0f565b73ffffffffffffffffffffffffffffffffffffffff166109dc610451565b73ffffffffffffffffffffffffffffffffffffffff1614610a3b576109ff610e0f565b6040517f118cdaa7000000000000000000000000000000000000000000000000000000008152600401610a32919061101b565b60405180910390fd5b565b610a45610e16565b5f8060146101000a81548160ff0219169083151502179055507f5db9ee0a495bf2e6ff9c91a7834c1ba4fdd244a5e8aa4e537bd38aeae4b073aa610a87610e0f565b604051610a94919061101b565b60405180910390a1565b5f805f9054906101000a900473ffffffffffffffffffffffffffffffffffffffff169050815f806101000a81548173ffffffffffffffffffffffffffffffffffffffff021916908373ffffffffffffffffffffffffffffffffffffffff1602179055508173ffffffffffffffffffffffffffffffffffffffff168173ffffffffffffffffffffffffffffffffffffffff167f8be0079c531659141344cd1fd0a4f28419497f9722a3daafe3b4186f6b6457e060405160405180910390a35050565b610b6761081e565b60015f60146101000a81548160ff0219169083151502179055507f62e78cea01bee320cd4e420270b5ea74000d11b0c9f74754ebdbfc544b05a258610baa610e0f565b604051610bb7919061101b565b60405180910390a1565b600260015403610bfd576040517f3ee5aeb500000000000000000000000000000000000000000000000000000000815260040160405180910390fd5b6002600181905550565b5f8282604051602001610c1b9291906115ea565b60405160208183030381529060405280519060200120905092915050565b60018081905550565b5f807f30644e72e131a029b85045b68181585d2833e84879b9709143e1f593f0000001905080835f0151101580610c7d575080836020015110155b15610c8b575f915050610cf2565b5f8180610c9b57610c9a611616565b5b846020015185602001510990505f8280610cb857610cb7611616565b5b60038480610cc957610cc8611616565b5b875f01518680610cdc57610cdb611616565b5b895f01518a5f0151090908905080821493505050505b919050565b5f7f30644e72e131a029b85045b68181585d2833e84879b9709143e1f593f0000001825f01515f60028110610d2f57610d2e611156565b5b6020020151108015610d7b57507f30644e72e131a029b85045b68181585d2833e84879b9709143e1f593f0000001825f0151600160028110610d7457610d73611156565b5b6020020151105b8015610dc157507f30644e72e131a029b85045b68181585d2833e84879b9709143e1f593f000000182602001515f60028110610dba57610db9611156565b5b6020020151105b8015610e0857507f30644e72e131a029b85045b68181585d2833e84879b9709143e1f593f00000018260200151600160028110610e0157610e00611156565b5b6020020151105b9050919050565b5f33905090565b610e1e610417565b610e54576040517f8dfc202b00000000000000000000000000000000000000000000000000000000815260040160405180910390fd5b565b604051806103000160405280601890602082028036833780820191505090505090565b5f604051905090565b5f80fd5b5f819050919050565b610e9881610e86565b8114610ea2575f80fd5b50565b5f81359050610eb381610e8f565b92915050565b5f60208284031215610ece57610ecd610e82565b5b5f610edb84828501610ea5565b91505092915050565b5f8115159050919050565b610ef881610ee4565b82525050565b5f602082019050610f115f830184610eef565b92915050565b5f80fd5b5f81905082602060080282011115610f3657610f35610f17565b5b92915050565b5f81905082602060010282011115610f5757610f56610f17565b5b92915050565b5f806101208385031215610f7457610f73610e82565b5b5f610f8185828601610f1b565b925050610100610f9385828601610f3c565b9150509250929050565b5f819050919050565b610faf81610f9d565b82525050565b5f604082019050610fc85f830185610eef565b610fd56020830184610fa6565b9392505050565b5f73ffffffffffffffffffffffffffffffffffffffff82169050919050565b5f61100582610fdc565b9050919050565b61101581610ffb565b82525050565b5f60208201905061102e5f83018461100c565b92915050565b61103d81610f9d565b8114611047575f80fd5b50565b5f8135905061105881611034565b92915050565b5f6020828403121561107357611072610e82565b5b5f6110808482850161104a565b91505092915050565b61109281610ffb565b811461109c575f80fd5b50565b5f813590506110ad81611089565b92915050565b5f602082840312156110c8576110c7610e82565b5b5f6110d58482850161109f565b91505092915050565b5f82825260208201905092915050565b7f496e76616c696420696e707574730000000000000000000000000000000000005f82015250565b5f611122600e836110de565b915061112d826110ee565b602082019050919050565b5f6020820190508181035f83015261114f81611116565b9050919050565b7f4e487b71000000000000000000000000000000000000000000000000000000005f52603260045260245ffd5b7f496e76616c696420626c6f636b20636f756e74000000000000000000000000005f82015250565b5f6111b76013836110de565b91506111c282611183565b602082019050919050565b5f6020820190508181035f8301526111e4816111ab565b9050919050565b7f4e487b71000000000000000000000000000000000000000000000000000000005f52601160045260245ffd5b5f61122282610f9d565b915061122d83610f9d565b9250828203905081811115611245576112446111eb565b5b92915050565b7f52617465206c696d6974206578636565646564000000000000000000000000005f82015250565b5f61127f6013836110de565b915061128a8261124b565b602082019050919050565b5f6020820190508181035f8301526112ac81611273565b9050919050565b7f50726f6f6620616c7265616479207665726966696564000000000000000000005f82015250565b5f6112e76016836110de565b91506112f2826112b3565b602082019050919050565b5f6020820190508181035f830152611314816112db565b9050919050565b82818337505050565b611331610100838361131b565b5050565b6113416020838361131b565b5050565b5f610120820190506113595f830185611324565b611367610100830184611335565b9392505050565b61137781610ee4565b8114611381575f80fd5b50565b5f815190506113928161136e565b92915050565b5f602082840312156113ad576113ac610e82565b5b5f6113ba84828501611384565b91505092915050565b5f8160e01c9050919050565b5f60033d11156113eb5760045f803e6113e85f516113c3565b90505b90565b5f601f19601f8301169050919050565b7f4e487b71000000000000000000000000000000000000000000000000000000005f52604160045260245ffd5b611434826113ee565b810181811067ffffffffffffffff82111715611453576114526113fe565b5b80604052505050565b5f60443d106114e85761146d610e79565b60043d036004823e80513d602482011167ffffffffffffffff821117156114955750506114e8565b808201805167ffffffffffffffff8111156114b357505050506114e8565b80602083010160043d0385018111156114d05750505050506114e8565b6114df8260200185018661142b565b82955050505050505b90565b5f81519050919050565b8281835e5f83830152505050565b5f61150d826114eb565b61151781856110de565b93506115278185602086016114f5565b611530816113ee565b840191505092915050565b5f6040820190508181035f8301526115538185611503565b90506115626020830184610fa6565b9392505050565b5f61157382610f9d565b91507fffffffffffffffffffffffffffffffffffffffffffffffffffffffffffffffff82036115a5576115a46111eb565b5b600182019050919050565b5f6020820190506115c35f830184610fa6565b92915050565b6115d6610100838361131b565b5050565b6115e66020838361131b565b5050565b5f6115f582856115c9565b6101008201915061160682846115da565b6020820191508190509392505050565b7f4e487b71000000000000000000000000000000000000000000000000000000005f52601260045260245ffdfea26469706673582212200d45e2269f0bc672723821a4c89dbe6e50257f5ddc060647be74f1886d90e5c564736f6c634300081a0033",
					"opcodes": "PUSH1 0x80 PUSH1 0x40 MSTORE CALLVALUE DUP1 ISZERO PUSH2 0xF JUMPI PUSH0 DUP1 REVERT JUMPDEST POP PUSH1 0x40 MLOAD PUSH2 0x1A95 CODESIZE SUB DUP1 PUSH2 0x1A95 DUP4 CODECOPY DUP2 DUP2 ADD PUSH1 0x40 MSTORE DUP2 ADD SWAP1 PUSH2 0x31 SWAP2 SWAP1 PUSH2 0x344 JUMP JUMPDEST DUP1 PUSH0 PUSH20 0xFFFFFFFFFFFFFFFFFFFFFFFFFFFFFFFFFFFFFFFF AND DUP2 PUSH20 0xFFFFFFFFFFFFFFFFFFFFFFFFFFFFFFFFFFFFFFFF AND SUB PUSH2 0xA2 JUMPI PUSH0 PUSH1 0x40 MLOAD PUSH32 0x1E4FBDF700000000000000000000000000000000000000000000000000000000 DUP2 MSTORE PUSH1 0x4 ADD PUSH2 0x99 SWAP2 SWAP1 PUSH2 0x37E JUMP JUMPDEST PUSH1 0x40 MLOAD DUP1 SWAP2 SUB SWAP1 REVERT JUMPDEST PUSH2 0xB1 DUP2 PUSH2 0x154 PUSH1 0x20 SHL PUSH1 0x20 SHR JUMP JUMPDEST POP PUSH0 DUP1 PUSH1 0x14 PUSH2 0x100 EXP DUP2 SLOAD DUP2 PUSH1 0xFF MUL NOT AND SWAP1 DUP4 ISZERO ISZERO MUL OR SWAP1 SSTORE POP PUSH1 0x1 DUP1 DUP2 SWAP1 SSTORE POP PUSH0 PUSH20 0xFFFFFFFFFFFFFFFFFFFFFFFFFFFFFFFFFFFFFFFF AND DUP2 PUSH20 0xFFFFFFFFFFFFFFFFFFFFFFFFFFFFFFFFFFFFFFFF AND SUB PUSH2 0x140 JUMPI PUSH1 0x40 MLOAD PUSH32 0x8C379A000000000000000000000000000000000000000000000000000000000 DUP2 MSTORE PUSH1 0x4 ADD PUSH2 0x137 SWAP1 PUSH2 0x3F1 JUMP JUMPDEST PUSH1 0x40 MLOAD DUP1 SWAP2 SUB SWAP1 REVERT JUMPDEST PUSH2 0x14E PUSH2 0x215 PUSH1 0x20 SHL PUSH1 0x20 SHR JUMP JUMPDEST POP PUSH2 0x40F JUMP JUMPDEST PUSH0 DUP1 PUSH0 SWAP1 SLOAD SWAP1 PUSH2 0x100 EXP SWAP1 DIV PUSH20 0xFFFFFFFFFFFFFFFFFFFFFFFFFFFFFFFFFFFFFFFF AND SWAP1 POP DUP2 PUSH0 DUP1 PUSH2 0x100 EXP DUP2 SLOAD DUP2 PUSH20 0xFFFFFFFFFFFFFFFFFFFFFFFFFFFFFFFFFFFFFFFF MUL NOT AND SWAP1 DUP4 PUSH20 0xFFFFFFFFFFFFFFFFFFFFFFFFFFFFFFFFFFFFFFFF AND MUL OR SWAP1 SSTORE POP DUP2 PUSH20 0xFFFFFFFFFFFFFFFFFFFFFFFFFFFFFFFFFFFFFFFF AND DUP2 PUSH20 0xFFFFFFFFFFFFFFFFFFFFFFFFFFFFFFFFFFFFFFFF AND PUSH32 0x8BE0079C531659141344CD1FD0A4F28419497F9722A3DAAFE3B4186F6B6457E0 PUSH1 0x40 MLOAD PUSH1 0x40 MLOAD DUP1 SWAP2 SUB SWAP1 LOG3 POP POP JUMP JUMPDEST PUSH2 0x223 PUSH2 0x283 PUSH1 0x20 SHL PUSH1 0x20 SHR JUMP JUMPDEST PUSH1 0x1 PUSH0 PUSH1 0x14 PUSH2 0x100 EXP DUP2 SLOAD DUP2 PUSH1 0xFF MUL NOT AND SWAP1 DUP4 ISZERO ISZERO MUL OR SWAP1 SSTORE POP PUSH32 0x62E78CEA01BEE320CD4E420270B5EA74000D11B0C9F74754EBDBFC544B05A258 PUSH2 0x26C PUSH2 0x2CA PUSH1 0x20 SHL PUSH1 0x20 SHR JUMP JUMPDEST PUSH1 0x40 MLOAD PUSH2 0x279 SWAP2 SWAP1 PUSH2 0x37E JUMP JUMPDEST PUSH1 0x40 MLOAD DUP1 SWAP2 SUB SWAP1 LOG1 JUMP JUMPDEST PUSH2 0x291 PUSH2 0x2D1 PUSH1 0x20 SHL PUSH1 0x20 SHR JUMP JUMPDEST ISZERO PUSH2 0x2C8 JUMPI PUSH1 0x40 MLOAD PUSH32 0xD93C066500000000000000000000000000000000000000000000000000000000 DUP2 MSTORE PUSH1 0x4 ADD PUSH1 0x40 MLOAD DUP1 SWAP2 SUB SWAP1 REVERT JUMPDEST JUMP JUMPDEST PUSH0 CALLER SWAP1 POP SWAP1 JUMP JUMPDEST PUSH0 DUP1 PUSH1 0x14 SWAP1 SLOAD SWAP1 PUSH2 0x100 EXP SWAP1 DIV PUSH1 0xFF AND SWAP1 POP SWAP1 JUMP JUMPDEST PUSH0 DUP1 REVERT JUMPDEST PUSH0 PUSH20 0xFFFFFFFFFFFFFFFFFFFFFFFFFFFFFFFFFFFFFFFF DUP3 AND SWAP1 POP SWAP2 SWAP1 POP JUMP JUMPDEST PUSH0 PUSH2 0x313 DUP3 PUSH2 0x2EA JUMP JUMPDEST SWAP1 POP SWAP2 SWAP1 POP JUMP JUMPDEST PUSH2 0x323 DUP2 PUSH2 0x309 JUMP JUMPDEST DUP2 EQ PUSH2 0x32D JUMPI PUSH0 DUP1 REVERT JUMPDEST POP JUMP JUMPDEST PUSH0 DUP2 MLOAD SWAP1 POP PUSH2 0x33E DUP2 PUSH2 0x31A JUMP JUMPDEST SWAP3 SWAP2 POP POP JUMP JUMPDEST PUSH0 PUSH1 0x20 DUP3 DUP5 SUB SLT ISZERO PUSH2 0x359 JUMPI PUSH2 0x358 PUSH2 0x2E6 JUMP JUMPDEST JUMPDEST PUSH0 PUSH2 0x366 DUP5 DUP3 DUP6 ADD PUSH2 0x330 JUMP JUMPDEST SWAP2 POP POP SWAP3 SWAP2 POP POP JUMP JUMPDEST PUSH2 0x378 DUP2 PUSH2 0x309 JUMP JUMPDEST DUP3 MSTORE POP POP JUMP JUMPDEST PUSH0 PUSH1 0x20 DUP3 ADD SWAP1 POP PUSH2 0x391 PUSH0 DUP4 ADD DUP5 PUSH2 0x36F JUMP JUMPDEST SWAP3 SWAP2 POP POP JUMP JUMPDEST PUSH0 DUP3 DUP3 MSTORE PUSH1 0x20 DUP3 ADD SWAP1 POP SWAP3 SWAP2 POP POP JUMP JUMPDEST PUSH32 0x496E76616C6964206F776E657200000000000000000000000000000000000000 PUSH0 DUP3 ADD MSTORE POP JUMP JUMPDEST PUSH0 PUSH2 0x3DB PUSH1 0xD DUP4 PUSH2 0x397 JUMP JUMPDEST SWAP2 POP PUSH2 0x3E6 DUP3 PUSH2 0x3A7 JUMP JUMPDEST PUSH1 0x20 DUP3 ADD SWAP1 POP SWAP2 SWAP1 POP JUMP JUMPDEST PUSH0 PUSH1 0x20 DUP3 ADD SWAP1 POP DUP2 DUP2 SUB PUSH0 DUP4 ADD MSTORE PUSH2 0x408 DUP2 PUSH2 0x3CF JUMP JUMPDEST SWAP1 POP SWAP2 SWAP1 POP JUMP JUMPDEST PUSH2 0x1679 DUP1 PUSH2 0x41C PUSH0 CODECOPY PUSH0 RETURN INVALID PUSH1 0x80 PUSH1 0x40 MSTORE CALLVALUE DUP1 ISZERO PUSH2 0xF JUMPI PUSH0 DUP1 REVERT JUMPDEST POP PUSH1 0x4 CALLDATASIZE LT PUSH2 0xA7 JUMPI PUSH0 CALLDATALOAD PUSH1 0xE0 SHR DUP1 PUSH4 0x715018A6 GT PUSH2 0x6F JUMPI DUP1 PUSH4 0x715018A6 EQ PUSH2 0x164 JUMPI DUP1 PUSH4 0x8456CB59 EQ PUSH2 0x16E JUMPI DUP1 PUSH4 0x8DA5CB5B EQ PUSH2 0x178 JUMPI DUP1 PUSH4 0xC8FEA3A5 EQ PUSH2 0x196 JUMPI DUP1 PUSH4 0xCD95FE6B EQ PUSH2 0x1B2 JUMPI DUP1 PUSH4 0xF2FDE38B EQ PUSH2 0x1E2 JUMPI PUSH2 0xA7 JUMP JUMPDEST DUP1 PUSH4 0x176D80C4 EQ PUSH2 0xAB JUMPI DUP1 PUSH4 0x1B81F829 EQ PUSH2 0xDB JUMPI DUP1 PUSH4 0x3F4BA83A EQ PUSH2 0x10B JUMPI DUP1 PUSH4 0x41F03C69 EQ PUSH2 0x115 JUMPI DUP1 PUSH4 0x5C975ABB EQ PUSH2 0x146 JUMPI JUMPDEST PUSH0 DUP1 REVERT JUMPDEST PUSH2 0xC5 PUSH1 0x4 DUP1 CALLDATASIZE SUB DUP2 ADD SWAP1 PUSH2 0xC0 SWAP2 SWAP1 PUSH2 0xEB9 JUMP JUMPDEST PUSH2 0x1FE JUMP JUMPDEST PUSH1 0x40 MLOAD PUSH2 0xD2 SWAP2 SWAP1 PUSH2 0xEFE JUMP JUMPDEST PUSH1 0x40 MLOAD DUP1 SWAP2 SUB SWAP1 RETURN JUMPDEST PUSH2 0xF5 PUSH1 0x4 DUP1 CALLDATASIZE SUB DUP2 ADD SWAP1 PUSH2 0xF0 SWAP2 SWAP1 PUSH2 0xF5D JUMP JUMPDEST PUSH2 0x21B JUMP JUMPDEST PUSH1 0x40 MLOAD PUSH2 0x102 SWAP2 SWAP1 PUSH2 0xEFE JUMP JUMPDEST PUSH1 0x40 MLOAD DUP1 SWAP2 SUB SWAP1 RETURN JUMPDEST PUSH2 0x113 PUSH2 0x3CA JUMP JUMPDEST STOP JUMPDEST PUSH2 0x12F PUSH1 0x4 DUP1 CALLDATASIZE SUB DUP2 ADD SWAP1 PUSH2 0x12A SWAP2 SWAP1 PUSH2 0xEB9 JUMP JUMPDEST PUSH2 0x3DC JUMP JUMPDEST PUSH1 0x40 MLOAD PUSH2 0x13D SWAP3 SWAP2 SWAP1 PUSH2 0xFB5 JUMP JUMPDEST PUSH1 0x40 MLOAD DUP1 SWAP2 SUB SWAP1 RETURN JUMPDEST PUSH2 0x14E PUSH2 0x417 JUMP JUMPDEST PUSH1 0x40 MLOAD PUSH2 0x15B SWAP2 SWAP1 PUSH2 0xEFE JUMP JUMPDEST PUSH1 0x40 MLOAD DUP1 SWAP2 SUB SWAP1 RETURN JUMPDEST PUSH2 0x16C PUSH2 0x42C JUMP JUMPDEST STOP JUMPDEST PUSH2 0x176 PUSH2 0x43F JUMP JUMPDEST STOP JUMPDEST PUSH2 0x180 PUSH2 0x451 JUMP JUMPDEST PUSH1 0x40 MLOAD PUSH2 0x18D SWAP2 SWAP1 PUSH2 0x101B JUMP JUMPDEST PUSH1 0x40 MLOAD DUP1 SWAP2 SUB SWAP1 RETURN JUMPDEST PUSH2 0x1B0 PUSH1 0x4 DUP1 CALLDATASIZE SUB DUP2 ADD SWAP1 PUSH2 0x1AB SWAP2 SWAP1 PUSH2 0x105E JUMP JUMPDEST PUSH2 0x478 JUMP JUMPDEST STOP JUMPDEST PUSH2 0x1CC PUSH1 0x4 DUP1 CALLDATASIZE SUB DUP2 ADD SWAP1 PUSH2 0x1C7 SWAP2 SWAP1 PUSH2 0xF5D JUMP JUMPDEST PUSH2 0x50C JUMP JUMPDEST PUSH1 0x40 MLOAD PUSH2 0x1D9 SWAP2 SWAP1 PUSH2 0xEFE JUMP JUMPDEST PUSH1 0x40 MLOAD DUP1 SWAP2 SUB SWAP1 RETURN JUMPDEST PUSH2 0x1FC PUSH1 0x4 DUP1 CALLDATASIZE SUB DUP2 ADD SWAP1 PUSH2 0x1F7 SWAP2 SWAP1 PUSH2 0x10B3 JUMP JUMPDEST PUSH2 0x79A JUMP JUMPDEST STOP JUMPDEST PUSH1 0x3 PUSH1 0x20 MSTORE DUP1 PUSH0 MSTORE PUSH1 0x40 PUSH0 KECCAK256 PUSH0 SWAP2 POP SLOAD SWAP1 PUSH2 0x100 EXP SWAP1 DIV PUSH1 0xFF AND DUP2 JUMP JUMPDEST PUSH0 PUSH2 0x224 PUSH2 0x81E JUMP JUMPDEST PUSH2 0x22E DUP4 DUP4 PUSH2 0x85F JUMP JUMPDEST PUSH2 0x26D JUMPI PUSH1 0x40 MLOAD PUSH32 0x8C379A000000000000000000000000000000000000000000000000000000000 DUP2 MSTORE PUSH1 0x4 ADD PUSH2 0x264 SWAP1 PUSH2 0x1138 JUMP JUMPDEST PUSH1 0x40 MLOAD DUP1 SWAP2 SUB SWAP1 REVERT JUMPDEST PUSH0 PUSH1 0x40 MLOAD DUP1 PUSH1 0x40 ADD PUSH1 0x40 MSTORE DUP1 DUP6 PUSH0 PUSH1 0x8 DUP2 LT PUSH2 0x28C JUMPI PUSH2 0x28B PUSH2 0x1156 JUMP JUMPDEST JUMPDEST PUSH1 0x20 MUL ADD CALLDATALOAD DUP2 MSTORE PUSH1 0x20 ADD DUP6 PUSH1 0x1 PUSH1 0x8 DUP2 LT PUSH2 0x2AA JUMPI PUSH2 0x2A9 PUSH2 0x1156 JUMP JUMPDEST JUMPDEST PUSH1 0x20 MUL ADD CALLDATALOAD DUP2 MSTORE POP SWAP1 POP PUSH0 PUSH1 0x40 MLOAD DUP1 PUSH1 0x40 ADD PUSH1 0x40 MSTORE DUP1 PUSH1 0x40 MLOAD DUP1 PUSH1 0x40 ADD PUSH1 0x40 MSTORE DUP1 DUP9 PUSH1 0x2 PUSH1 0x8 DUP2 LT PUSH2 0x2DF JUMPI PUSH2 0x2DE PUSH2 0x1156 JUMP JUMPDEST JUMPDEST PUSH1 0x20 MUL ADD CALLDATALOAD DUP2 MSTORE PUSH1 0x20 ADD DUP9 PUSH1 0x3 PUSH1 0x8 DUP2 LT PUSH2 0x2FD JUMPI PUSH2 0x2FC PUSH2 0x1156 JUMP JUMPDEST JUMPDEST PUSH1 0x20 MUL ADD CALLDATALOAD DUP2 MSTORE POP DUP2 MSTORE PUSH1 0x20 ADD PUSH1 0x40 MLOAD DUP1 PUSH1 0x40 ADD PUSH1 0x40 MSTORE DUP1 DUP9 PUSH1 0x4 PUSH1 0x8 DUP2 LT PUSH2 0x329 JUMPI PUSH2 0x328 PUSH2 0x1156 JUMP JUMPDEST JUMPDEST PUSH1 0x20 MUL ADD CALLDATALOAD DUP2 MSTORE PUSH1 0x20 ADD DUP9 PUSH1 0x5 PUSH1 0x8 DUP2 LT PUSH2 0x347 JUMPI PUSH2 0x346 PUSH2 0x1156 JUMP JUMPDEST JUMPDEST PUSH1 0x20 MUL ADD CALLDATALOAD DUP2 MSTORE POP DUP2 MSTORE POP SWAP1 POP PUSH0 PUSH1 0x40 MLOAD DUP1 PUSH1 0x40 ADD PUSH1 0x40 MSTORE DUP1 DUP8 PUSH1 0x6 PUSH1 0x8 DUP2 LT PUSH2 0x374 JUMPI PUSH2 0x373 PUSH2 0x1156 JUMP JUMPDEST JUMPDEST PUSH1 0x20 MUL ADD CALLDATALOAD DUP2 MSTORE PUSH1 0x20 ADD DUP8 PUSH1 0x7 PUSH1 0x8 DUP2 LT PUSH2 0x392 JUMPI PUSH2 0x391 PUSH2 0x1156 JUMP JUMPDEST JUMPDEST PUSH1 0x20 MUL ADD CALLDATALOAD DUP2 MSTORE POP SWAP1 POP PUSH2 0x3BF DUP4 DUP4 DUP4 DUP9 PUSH0 PUSH1 0x1 DUP2 LT PUSH2 0x3B5 JUMPI PUSH2 0x3B4 PUSH2 0x1156 JUMP JUMPDEST JUMPDEST PUSH1 0x20 MUL ADD CALLDATALOAD PUSH2 0x914 JUMP JUMPDEST SWAP4 POP POP POP POP SWAP3 SWAP2 POP POP JUMP JUMPDEST PUSH2 0x3D2 PUSH2 0x9B6 JUMP JUMPDEST PUSH2 0x3DA PUSH2 0xA3D JUMP JUMPDEST JUMP JUMPDEST PUSH0 DUP1 PUSH1 0x3 PUSH0 DUP5 DUP2 MSTORE PUSH1 0x20 ADD SWAP1 DUP2 MSTORE PUSH1 0x20 ADD PUSH0 KECCAK256 PUSH0 SWAP1 SLOAD SWAP1 PUSH2 0x100 EXP SWAP1 DIV PUSH1 0xFF AND PUSH1 0x4 PUSH0 DUP6 DUP2 MSTORE PUSH1 0x20 ADD SWAP1 DUP2 MSTORE PUSH1 0x20 ADD PUSH0 KECCAK256 SLOAD SWAP2 POP SWAP2 POP SWAP2 POP SWAP2 JUMP JUMPDEST PUSH0 DUP1 PUSH1 0x14 SWAP1 SLOAD SWAP1 PUSH2 0x100 EXP SWAP1 DIV PUSH1 0xFF AND SWAP1 POP SWAP1 JUMP JUMPDEST PUSH2 0x434 PUSH2 0x9B6 JUMP JUMPDEST PUSH2 0x43D PUSH0 PUSH2 0xA9E JUMP JUMPDEST JUMP JUMPDEST PUSH2 0x447 PUSH2 0x9B6 JUMP JUMPDEST PUSH2 0x44F PUSH2 0xB5F JUMP JUMPDEST JUMP JUMPDEST PUSH0 DUP1 PUSH0 SWAP1 SLOAD SWAP1 PUSH2 0x100 EXP SWAP1 DIV PUSH20 0xFFFFFFFFFFFFFFFFFFFFFFFFFFFFFFFFFFFFFFFF AND SWAP1 POP SWAP1 JUMP JUMPDEST PUSH2 0x480 PUSH2 0x9B6 JUMP JUMPDEST PUSH0 DUP2 GT PUSH2 0x4C2 JUMPI PUSH1 0x40 MLOAD PUSH32 0x8C379A000000000000000000000000000000000000000000000000000000000 DUP2 MSTORE PUSH1 0x4 ADD PUSH2 0x4B9 SWAP1 PUSH2 0x11CD JUMP JUMPDEST PUSH1 0x40 MLOAD DUP1 SWAP2 SUB SWAP1 REVERT JUMPDEST PUSH0 DUP2 NUMBER PUSH2 0x4CF SWAP2 SWAP1 PUSH2 0x1218 JUMP JUMPDEST SWAP1 POP PUSH0 JUMPDEST DUP3 DUP2 LT ISZERO PUSH2 0x507 JUMPI PUSH1 0x2 PUSH0 DUP3 DUP5 PUSH2 0x4EA SWAP2 SWAP1 PUSH2 0x1218 JUMP JUMPDEST DUP2 MSTORE PUSH1 0x20 ADD SWAP1 DUP2 MSTORE PUSH1 0x20 ADD PUSH0 KECCAK256 PUSH0 SWAP1 SSTORE DUP1 DUP1 PUSH1 0x1 ADD SWAP2 POP POP PUSH2 0x4D3 JUMP JUMPDEST POP POP POP JUMP JUMPDEST PUSH0 PUSH2 0x515 PUSH2 0x81E JUMP JUMPDEST PUSH2 0x51D PUSH2 0xBC1 JUMP JUMPDEST PUSH1 0x32 PUSH1 0x2 PUSH0 NUMBER DUP2 MSTORE PUSH1 0x20 ADD SWAP1 DUP2 MSTORE PUSH1 0x20 ADD PUSH0 KECCAK256 SLOAD LT PUSH2 0x571 JUMPI PUSH1 0x40 MLOAD PUSH32 0x8C379A000000000000000000000000000000000000000000000000000000000 DUP2 MSTORE PUSH1 0x4 ADD PUSH2 0x568 SWAP1 PUSH2 0x1295 JUMP JUMPDEST PUSH1 0x40 MLOAD DUP1 SWAP2 SUB SWAP1 REVERT JUMPDEST PUSH0 PUSH2 0x57C DUP5 DUP5 PUSH2 0xC07 JUMP JUMPDEST SWAP1 POP PUSH1 0x3 PUSH0 DUP3 DUP2 MSTORE PUSH1 0x20 ADD SWAP1 DUP2 MSTORE PUSH1 0x20 ADD PUSH0 KECCAK256 PUSH0 SWAP1 SLOAD SWAP1 PUSH2 0x100 EXP SWAP1 DIV PUSH1 0xFF AND ISZERO PUSH2 0x5DC JUMPI PUSH1 0x40 MLOAD PUSH32 0x8C379A000000000000000000000000000000000000000000000000000000000 DUP2 MSTORE PUSH1 0x4 ADD PUSH2 0x5D3 SWAP1 PUSH2 0x12FD JUMP JUMPDEST PUSH1 0x40 MLOAD DUP1 SWAP2 SUB SWAP1 REVERT JUMPDEST PUSH0 ADDRESS PUSH20 0xFFFFFFFFFFFFFFFFFFFFFFFFFFFFFFFFFFFFFFFF AND PUSH4 0x1B81F829 DUP7 DUP7 PUSH1 0x40 MLOAD DUP4 PUSH4 0xFFFFFFFF AND PUSH1 0xE0 SHL DUP2 MSTORE PUSH1 0x4 ADD PUSH2 0x618 SWAP3 SWAP2 SWAP1 PUSH2 0x1345 JUMP JUMPDEST PUSH1 0x20 PUSH1 0x40 MLOAD DUP1 DUP4 SUB DUP2 DUP7 GAS STATICCALL SWAP3 POP POP POP DUP1 ISZERO PUSH2 0x652 JUMPI POP PUSH1 0x40 MLOAD RETURNDATASIZE PUSH1 0x1F NOT PUSH1 0x1F DUP3 ADD AND DUP3 ADD DUP1 PUSH1 0x40 MSTORE POP DUP2 ADD SWAP1 PUSH2 0x64F SWAP2 SWAP1 PUSH2 0x1398 JUMP JUMPDEST PUSH1 0x1 JUMPDEST PUSH2 0x6CC JUMPI PUSH2 0x65E PUSH2 0x13CF JUMP JUMPDEST DUP1 PUSH4 0x8C379A0 SUB PUSH2 0x6C2 JUMPI POP PUSH2 0x672 PUSH2 0x145C JUMP JUMPDEST DUP1 PUSH2 0x67D JUMPI POP PUSH2 0x6C4 JUMP JUMPDEST DUP3 PUSH32 0xEABE9D31F64F68FA6A548E84D57C997311A32AB33A5445EA892460D3253C366D DUP3 TIMESTAMP PUSH1 0x40 MLOAD PUSH2 0x6AF SWAP3 SWAP2 SWAP1 PUSH2 0x153B JUMP JUMPDEST PUSH1 0x40 MLOAD DUP1 SWAP2 SUB SWAP1 LOG2 PUSH0 SWAP4 POP POP POP POP PUSH2 0x78C JUMP JUMPDEST POP JUMPDEST RETURNDATASIZE PUSH0 DUP1 RETURNDATACOPY RETURNDATASIZE PUSH0 REVERT JUMPDEST DUP1 SWAP2 POP POP DUP1 PUSH1 0x3 PUSH0 DUP5 DUP2 MSTORE PUSH1 0x20 ADD SWAP1 DUP2 MSTORE PUSH1 0x20 ADD PUSH0 KECCAK256 PUSH0 PUSH2 0x100 EXP DUP2 SLOAD DUP2 PUSH1 0xFF MUL NOT AND SWAP1 DUP4 ISZERO ISZERO MUL OR SWAP1 SSTORE POP TIMESTAMP PUSH1 0x4 PUSH0 DUP5 DUP2 MSTORE PUSH1 0x20 ADD SWAP1 DUP2 MSTORE PUSH1 0x20 ADD PUSH0 KECCAK256 DUP2 SWAP1 SSTORE POP PUSH1 0x2 PUSH0 NUMBER DUP2 MSTORE PUSH1 0x20 ADD SWAP1 DUP2 MSTORE PUSH1 0x20 ADD PUSH0 KECCAK256 PUSH0 DUP2 SLOAD DUP1 SWAP3 SWAP2 SWAP1 PUSH2 0x72F SWAP1 PUSH2 0x1569 JUMP JUMPDEST SWAP2 SWAP1 POP SSTORE POP DUP1 ISZERO ISZERO CALLER PUSH20 0xFFFFFFFFFFFFFFFFFFFFFFFFFFFFFFFFFFFFFFFF AND DUP4 PUSH32 0xD70445AE79BFA82BD8C52E90CA89940DFF8279C6C39F91265BE2F4AE43E4CAE2 TIMESTAMP PUSH1 0x40 MLOAD PUSH2 0x77E SWAP2 SWAP1 PUSH2 0x15B0 JUMP JUMPDEST PUSH1 0x40 MLOAD DUP1 SWAP2 SUB SWAP1 LOG4 DUP1 SWAP3 POP POP POP JUMPDEST PUSH2 0x794 PUSH2 0xC39 JUMP JUMPDEST SWAP3 SWAP2 POP POP JUMP JUMPDEST PUSH2 0x7A2 PUSH2 0x9B6 JUMP JUMPDEST PUSH0 PUSH20 0xFFFFFFFFFFFFFFFFFFFFFFFFFFFFFFFFFFFFFFFF AND DUP2 PUSH20 0xFFFFFFFFFFFFFFFFFFFFFFFFFFFFFFFFFFFFFFFF AND SUB PUSH2 0x812 JUMPI PUSH0 PUSH1 0x40 MLOAD PUSH32 0x1E4FBDF700000000000000000000000000000000000000000000000000000000 DUP2 MSTORE PUSH1 0x4 ADD PUSH2 0x809 SWAP2 SWAP1 PUSH2 0x101B JUMP JUMPDEST PUSH1 0x40 MLOAD DUP1 SWAP2 SUB SWAP1 REVERT JUMPDEST PUSH2 0x81B DUP2 PUSH2 0xA9E JUMP JUMPDEST POP JUMP JUMPDEST PUSH2 0x826 PUSH2 0x417 JUMP JUMPDEST ISZERO PUSH2 0x85D JUMPI PUSH1 0x40 MLOAD PUSH32 0xD93C066500000000000000000000000000000000000000000000000000000000 DUP2 MSTORE PUSH1 0x4 ADD PUSH1 0x40 MLOAD DUP1 SWAP2 SUB SWAP1 REVERT JUMPDEST JUMP JUMPDEST PUSH0 DUP1 PUSH0 SWAP1 POP JUMPDEST PUSH1 0x8 DUP2 LT ISZERO PUSH2 0x8C2 JUMPI PUSH32 0x30644E72E131A029B85045B68181585D2833E84879B9709143E1F593F0000001 DUP5 DUP3 PUSH1 0x8 DUP2 LT PUSH2 0x8A2 JUMPI PUSH2 0x8A1 PUSH2 0x1156 JUMP JUMPDEST JUMPDEST PUSH1 0x20 MUL ADD CALLDATALOAD LT PUSH2 0x8B5 JUMPI PUSH0 SWAP2 POP POP PUSH2 0x90E JUMP JUMPDEST DUP1 DUP1 PUSH1 0x1 ADD SWAP2 POP POP PUSH2 0x865 JUMP JUMPDEST POP PUSH32 0x30644E72E131A029B85045B68181585D2833E84879B9709143E1F593F0000001 DUP3 PUSH0 PUSH1 0x1 DUP2 LT PUSH2 0x8F7 JUMPI PUSH2 0x8F6 PUSH2 0x1156 JUMP JUMPDEST JUMPDEST PUSH1 0x20 MUL ADD CALLDATALOAD LT PUSH2 0x909 JUMPI PUSH0 SWAP1 POP PUSH2 0x90E JUMP JUMPDEST PUSH1 0x1 SWAP1 POP JUMPDEST SWAP3 SWAP2 POP POP JUMP JUMPDEST PUSH0 PUSH2 0x91E DUP6 PUSH2 0xC42 JUMP JUMPDEST ISZERO DUP1 PUSH2 0x930 JUMPI POP PUSH2 0x92E DUP5 PUSH2 0xCF7 JUMP JUMPDEST ISZERO JUMPDEST DUP1 PUSH2 0x941 JUMPI POP PUSH2 0x93F DUP4 PUSH2 0xC42 JUMP JUMPDEST ISZERO JUMPDEST ISZERO PUSH2 0x94E JUMPI PUSH0 SWAP1 POP PUSH2 0x9AE JUMP JUMPDEST PUSH2 0x956 PUSH2 0xE56 JUMP JUMPDEST PUSH0 DUP7 MLOAD DUP3 MSTORE PUSH1 0x20 DUP8 ADD MLOAD PUSH1 0x20 DUP4 ADD MSTORE PUSH1 0x20 DUP7 ADD DUP1 MLOAD PUSH1 0x40 DUP5 ADD MSTORE PUSH1 0x20 DUP2 ADD MLOAD PUSH1 0x60 DUP5 ADD MSTORE PUSH1 0x40 DUP2 ADD MLOAD PUSH1 0x80 DUP5 ADD MSTORE PUSH1 0x60 DUP2 ADD MLOAD PUSH1 0xA0 DUP5 ADD MSTORE PUSH1 0x20 DUP4 PUSH2 0x300 DUP6 PUSH1 0x8 GAS STATICCALL DUP1 PUSH2 0x9A2 JUMPI PUSH0 DUP1 REVERT JUMPDEST DUP4 MLOAD SWAP3 POP POP POP DUP1 SWAP3 POP POP POP JUMPDEST SWAP5 SWAP4 POP POP POP POP JUMP JUMPDEST PUSH2 0x9BE PUSH2 0xE0F JUMP JUMPDEST PUSH20 0xFFFFFFFFFFFFFFFFFFFFFFFFFFFFFFFFFFFFFFFF AND PUSH2 0x9DC PUSH2 0x451 JUMP JUMPDEST PUSH20 0xFFFFFFFFFFFFFFFFFFFFFFFFFFFFFFFFFFFFFFFF AND EQ PUSH2 0xA3B JUMPI PUSH2 0x9FF PUSH2 0xE0F JUMP JUMPDEST PUSH1 0x40 MLOAD PUSH32 0x118CDAA700000000000000000000000000000000000000000000000000000000 DUP2 MSTORE PUSH1 0x4 ADD PUSH2 0xA32 SWAP2 SWAP1 PUSH2 0x101B JUMP JUMPDEST PUSH1 0x40 MLOAD DUP1 SWAP2 SUB SWAP1 REVERT JUMPDEST JUMP JUMPDEST PUSH2 0xA45 PUSH2 0xE16 JUMP JUMPDEST PUSH0 DUP1 PUSH1 0x14 PUSH2 0x100 EXP DUP2 SLOAD DUP2 PUSH1 0xFF MUL NOT AND SWAP1 DUP4 ISZERO ISZERO MUL OR SWAP1 SSTORE POP PUSH32 0x5DB9EE0A495BF2E6FF9C91A7834C1BA4FDD244A5E8AA4E537BD38AEAE4B073AA PUSH2 0xA87 PUSH2 0xE0F JUMP JUMPDEST PUSH1 0x40 MLOAD PUSH2 0xA94 SWAP2 SWAP1 PUSH2 0x101B JUMP JUMPDEST PUSH1 0x40 MLOAD DUP1 SWAP2 SUB SWAP1 LOG1 JUMP JUMPDEST PUSH0 DUP1 PUSH0 SWAP1 SLOAD SWAP1 PUSH2 0x100 EXP SWAP1 DIV PUSH20 0xFFFFFFFFFFFFFFFFFFFFFFFFFFFFFFFFFFFFFFFF AND SWAP1 POP DUP2 PUSH0 DUP1 PUSH2 0x100 EXP DUP2 SLOAD DUP2 PUSH20 0xFFFFFFFFFFFFFFFFFFFFFFFFFFFFFFFFFFFFFFFF MUL NOT AND SWAP1 DUP4 PUSH20 0xFFFFFFFFFFFFFFFFFFFFFFFFFFFFFFFFFFFFFFFF AND MUL OR SWAP1 SSTORE POP DUP2 PUSH20 0xFFFFFFFFFFFFFFFFFFFFFFFFFFFFFFFFFFFFFFFF AND DUP2 PUSH20 0xFFFFFFFFFFFFFFFFFFFFFFFFFFFFFFFFFFFFFFFF AND PUSH32 0x8BE0079C531659141344CD1FD0A4F28419497F9722A3DAAFE3B4186F6B6457E0 PUSH1 0x40 MLOAD PUSH1 0x40 MLOAD DUP1 SWAP2 SUB SWAP1 LOG3 POP POP JUMP JUMPDEST PUSH2 0xB67 PUSH2 0x81E JUMP JUMPDEST PUSH1 0x1 PUSH0 PUSH1 0x14 PUSH2 0x100 EXP DUP2 SLOAD DUP2 PUSH1 0xFF MUL NOT AND SWAP1 DUP4 ISZERO ISZERO MUL OR SWAP1 SSTORE POP PUSH32 0x62E78CEA01BEE320CD4E420270B5EA74000D11B0C9F74754EBDBFC544B05A258 PUSH2 0xBAA PUSH2 0xE0F JUMP JUMPDEST PUSH1 0x40 MLOAD PUSH2 0xBB7 SWAP2 SWAP1 PUSH2 0x101B JUMP JUMPDEST PUSH1 0x40 MLOAD DUP1 SWAP2 SUB SWAP1 LOG1 JUMP JUMPDEST PUSH1 0x2 PUSH1 0x1 SLOAD SUB PUSH2 0xBFD JUMPI PUSH1 0x40 MLOAD PUSH32 0x3EE5AEB500000000000000000000000000000000000000000000000000000000 DUP2 MSTORE PUSH1 0x4 ADD PUSH1 0x40 MLOAD DUP1 SWAP2 SUB SWAP1 REVERT JUMPDEST PUSH1 0x2 PUSH1 0x1 DUP2 SWAP1 SSTORE POP JUMP JUMPDEST PUSH0 DUP3 DUP3 PUSH1 0x40 MLOAD PUSH1 0x20 ADD PUSH2 0xC1B SWAP3 SWAP2 SWAP1 PUSH2 0x15EA JUMP JUMPDEST PUSH1 0x40 MLOAD PUSH1 0x20 DUP2 DUP4 SUB SUB DUP2 MSTORE SWAP1 PUSH1 0x40 MSTORE DUP1 MLOAD SWAP1 PUSH1 0x20 ADD KECCAK256 SWAP1 POP SWAP3 SWAP2 POP POP JUMP JUMPDEST PUSH1 0x1 DUP1 DUP2 SWAP1 SSTORE POP JUMP JUMPDEST PUSH0 DUP1 PUSH32 0x30644E72E131A029B85045B68181585D2833E84879B9709143E1F593F0000001 SWAP1 POP DUP1 DUP4 PUSH0 ADD MLOAD LT ISZERO DUP1 PUSH2 0xC7D JUMPI POP DUP1 DUP4 PUSH1 0x20 ADD MLOAD LT ISZERO JUMPDEST ISZERO PUSH2 0xC8B JUMPI PUSH0 SWAP2 POP POP PUSH2 0xCF2 JUMP JUMPDEST PUSH0 DUP2 DUP1 PUSH2 0xC9B JUMPI PUSH2 0xC9A PUSH2 0x1616 JUMP JUMPDEST JUMPDEST DUP5 PUSH1 0x20 ADD MLOAD DUP6 PUSH1 0x20 ADD MLOAD MULMOD SWAP1 POP PUSH0 DUP3 DUP1 PUSH2 0xCB8 JUMPI PUSH2 0xCB7 PUSH2 0x1616 JUMP JUMPDEST JUMPDEST PUSH1 0x3 DUP5 DUP1 PUSH2 0xCC9 JUMPI PUSH2 0xCC8 PUSH2 0x1616 JUMP JUMPDEST JUMPDEST DUP8 PUSH0 ADD MLOAD DUP7 DUP1 PUSH2 0xCDC JUMPI PUSH2 0xCDB PUSH2 0x1616 JUMP JUMPDEST JUMPDEST DUP10 PUSH0 ADD MLOAD DUP11 PUSH0 ADD MLOAD MULMOD MULMOD ADDMOD SWAP1 POP DUP1 DUP3 EQ SWAP4 POP POP POP POP JUMPDEST SWAP2 SWAP1 POP JUMP JUMPDEST PUSH0 PUSH32 0x30644E72E131A029B85045B68181585D2833E84879B9709143E1F593F0000001 DUP3 PUSH0 ADD MLOAD PUSH0 PUSH1 0x2 DUP2 LT PUSH2 0xD2F JUMPI PUSH2 0xD2E PUSH2 0x1156 JUMP JUMPDEST JUMPDEST PUSH1 0x20 MUL ADD MLOAD LT DUP1 ISZERO PUSH2 0xD7B JUMPI POP PUSH32 0x30644E72E131A029B85045B68181585D2833E84879B9709143E1F593F0000001 DUP3 PUSH0 ADD MLOAD PUSH1 0x1 PUSH1 0x2 DUP2 LT PUSH2 0xD74 JUMPI PUSH2 0xD73 PUSH2 0x1156 JUMP JUMPDEST JUMPDEST PUSH1 0x20 MUL ADD MLOAD LT JUMPDEST DUP1 ISZERO PUSH2 0xDC1 JUMPI POP PUSH32 0x30644E72E131A029B85045B68181585D2833E84879B9709143E1F593F0000001 DUP3 PUSH1 0x20 ADD MLOAD PUSH0 PUSH1 0x2 DUP2 LT PUSH2 0xDBA JUMPI PUSH2 0xDB9 PUSH2 0x1156 JUMP JUMPDEST JUMPDEST PUSH1 0x20 MUL ADD MLOAD LT JUMPDEST DUP1 ISZERO PUSH2 0xE08 JUMPI POP PUSH32 0x30644E72E131A029B85045B68181585D2833E84879B9709143E1F593F0000001 DUP3 PUSH1 0x20 ADD MLOAD PUSH1 0x1 PUSH1 0x2 DUP2 LT PUSH2 0xE01 JUMPI PUSH2 0xE00 PUSH2 0x1156 JUMP JUMPDEST JUMPDEST PUSH1 0x20 MUL ADD MLOAD LT JUMPDEST SWAP1 POP SWAP2 SWAP1 POP JUMP JUMPDEST PUSH0 CALLER SWAP1 POP SWAP1 JUMP JUMPDEST PUSH2 0xE1E PUSH2 0x417 JUMP JUMPDEST PUSH2 0xE54 JUMPI PUSH1 0x40 MLOAD PUSH32 0x8DFC202B00000000000000000000000000000000000000000000000000000000 DUP2 MSTORE PUSH1 0x4 ADD PUSH1 0x40 MLOAD DUP1 SWAP2 SUB SWAP1 REVERT JUMPDEST JUMP JUMPDEST PUSH1 0x40 MLOAD DUP1 PUSH2 0x300 ADD PUSH1 0x40 MSTORE DUP1 PUSH1 0x18 SWAP1 PUSH1 0x20 DUP3 MUL DUP1 CALLDATASIZE DUP4 CALLDATACOPY DUP1 DUP3 ADD SWAP2 POP POP SWAP1 POP POP SWAP1 JUMP JUMPDEST PUSH0 PUSH1 0x40 MLOAD SWAP1 POP SWAP1 JUMP JUMPDEST PUSH0 DUP1 REVERT JUMPDEST PUSH0 DUP2 SWAP1 POP SWAP2 SWAP1 POP JUMP JUMPDEST PUSH2 0xE98 DUP2 PUSH2 0xE86 JUMP JUMPDEST DUP2 EQ PUSH2 0xEA2 JUMPI PUSH0 DUP1 REVERT JUMPDEST POP JUMP JUMPDEST PUSH0 DUP2 CALLDATALOAD SWAP1 POP PUSH2 0xEB3 DUP2 PUSH2 0xE8F JUMP JUMPDEST SWAP3 SWAP2 POP POP JUMP JUMPDEST PUSH0 PUSH1 0x20 DUP3 DUP5 SUB SLT ISZERO PUSH2 0xECE JUMPI PUSH2 0xECD PUSH2 0xE82 JUMP JUMPDEST JUMPDEST PUSH0 PUSH2 0xEDB DUP5 DUP3 DUP6 ADD PUSH2 0xEA5 JUMP JUMPDEST SWAP2 POP POP SWAP3 SWAP2 POP POP JUMP JUMPDEST PUSH0 DUP2 ISZERO ISZERO SWAP1 POP SWAP2 SWAP1 POP JUMP JUMPDEST PUSH2 0xEF8 DUP2 PUSH2 0xEE4 JUMP JUMPDEST DUP3 MSTORE POP POP JUMP JUMPDEST PUSH0 PUSH1 0x20 DUP3 ADD SWAP1 POP PUSH2 0xF11 PUSH0 DUP4 ADD DUP5 PUSH2 0xEEF JUMP JUMPDEST SWAP3 SWAP2 POP POP JUMP JUMPDEST PUSH0 DUP1 REVERT JUMPDEST PUSH0 DUP2 SWAP1 POP DUP3 PUSH1 0x20 PUSH1 0x8 MUL DUP3 ADD GT ISZERO PUSH2 0xF36 JUMPI PUSH2 0xF35 PUSH2 0xF17 JUMP JUMPDEST JUMPDEST SWAP3 SWAP2 POP POP JUMP JUMPDEST PUSH0 DUP2 SWAP1 POP DUP3 PUSH1 0x20 PUSH1 0x1 MUL DUP3 ADD GT ISZERO PUSH2 0xF57 JUMPI PUSH2 0xF56 PUSH2 0xF17 JUMP JUMPDEST JUMPDEST SWAP3 SWAP2 POP POP JUMP JUMPDEST PUSH0 DUP1 PUSH2 0x120 DUP4 DUP6 SUB SLT ISZERO PUSH2 0xF74 JUMPI PUSH2 0xF73 PUSH2 0xE82 JUMP JUMPDEST JUMPDEST PUSH0 PUSH2 0xF81 DUP6 DUP3 DUP7 ADD PUSH2 0xF1B JUMP JUMPDEST SWAP3 POP POP PUSH2 0x100 PUSH2 0xF93 DUP6 DUP3 DUP7 ADD PUSH2 0xF3C JUMP JUMPDEST SWAP2 POP POP SWAP3 POP SWAP3 SWAP1 POP JUMP JUMPDEST PUSH0 DUP2 SWAP1 POP SWAP2 SWAP1 POP JUMP JUMPDEST PUSH2 0xFAF DUP2 PUSH2 0xF9D JUMP JUMPDEST DUP3 MSTORE POP POP JUMP JUMPDEST PUSH0 PUSH1 0x40 DUP3 ADD SWAP1 POP PUSH2 0xFC8 PUSH0 DUP4 ADD DUP6 PUSH2 0xEEF JUMP JUMPDEST PUSH2 0xFD5 PUSH1 0x20 DUP4 ADD DUP5 PUSH2 0xFA6 JUMP JUMPDEST SWAP4 SWAP3 POP POP POP JUMP JUMPDEST PUSH0 PUSH20 0xFFFFFFFFFFFFFFFFFFFFFFFFFFFFFFFFFFFFFFFF DUP3 AND SWAP1 POP SWAP2 SWAP1 POP JUMP JUMPDEST PUSH0 PUSH2 0x1005 DUP3 PUSH2 0xFDC JUMP JUMPDEST SWAP1 POP SWAP2 SWAP1 POP JUMP JUMPDEST PUSH2 0x1015 DUP2 PUSH2 0xFFB JUMP JUMPDEST DUP3 MSTORE POP POP JUMP JUMPDEST PUSH0 PUSH1 0x20 DUP3 ADD SWAP1 POP PUSH2 0x102E PUSH0 DUP4 ADD DUP5 PUSH2 0x100C JUMP JUMPDEST SWAP3 SWAP2 POP POP JUMP JUMPDEST PUSH2 0x103D DUP2 PUSH2 0xF9D JUMP JUMPDEST DUP2 EQ PUSH2 0x1047 JUMPI PUSH0 DUP1 REVERT JUMPDEST POP JUMP JUMPDEST PUSH0 DUP2 CALLDATALOAD SWAP1 POP PUSH2 0x1058 DUP2 PUSH2 0x1034 JUMP JUMPDEST SWAP3 SWAP2 POP POP JUMP JUMPDEST PUSH0 PUSH1 0x20 DUP3 DUP5 SUB SLT ISZERO PUSH2 0x1073 JUMPI PUSH2 0x1072 PUSH2 0xE82 JUMP JUMPDEST JUMPDEST PUSH0 PUSH2 0x1080 DUP5 DUP3 DUP6 ADD PUSH2 0x104A JUMP JUMPDEST SWAP2 POP POP SWAP3 SWAP2 POP POP JUMP JUMPDEST PUSH2 0x1092 DUP2 PUSH2 0xFFB JUMP JUMPDEST DUP2 EQ PUSH2 0x109C JUMPI PUSH0 DUP1 REVERT JUMPDEST POP JUMP JUMPDEST PUSH0 DUP2 CALLDATALOAD SWAP1 POP PUSH2 0x10AD DUP2 PUSH2 0x1089 JUMP JUMPDEST SWAP3 SWAP2 POP POP JUMP JUMPDEST PUSH0 PUSH1 0x20 DUP3 DUP5 SUB SLT ISZERO PUSH2 0x10C8 JUMPI PUSH2 0x10C7 PUSH2 0xE82 JUMP JUMPDEST JUMPDEST PUSH0 PUSH2 0x10D5 DUP5 DUP3 DUP6 ADD PUSH2 0x109F JUMP JUMPDEST SWAP2 POP POP SWAP3 SWAP2 POP POP JUMP JUMPDEST PUSH0 DUP3 DUP3 MSTORE PUSH1 0x20 DUP3 ADD SWAP1 POP SWAP3 SWAP2 POP POP JUMP JUMPDEST PUSH32 0x496E76616C696420696E70757473000000000000000000000000000000000000 PUSH0 DUP3 ADD MSTORE POP JUMP JUMPDEST PUSH0 PUSH2 0x1122 PUSH1 0xE DUP4 PUSH2 0x10DE JUMP JUMPDEST SWAP2 POP PUSH2 0x112D DUP3 PUSH2 0x10EE JUMP JUMPDEST PUSH1 0x20 DUP3 ADD SWAP1 POP SWAP2 SWAP1 POP JUMP JUMPDEST PUSH0 PUSH1 0x20 DUP3 ADD SWAP1 POP DUP2 DUP2 SUB PUSH0 DUP4 ADD MSTORE PUSH2 0x114F DUP2 PUSH2 0x1116 JUMP JUMPDEST SWAP1 POP SWAP2 SWAP1 POP JUMP JUMPDEST PUSH32 0x4E487B7100000000000000000000000000000000000000000000000000000000 PUSH0 MSTORE PUSH1 0x32 PUSH1 0x4 MSTORE PUSH1 0x24 PUSH0 REVERT JUMPDEST PUSH32 0x496E76616C696420626C6F636B20636F756E7400000000000000000000000000 PUSH0 DUP3 ADD MSTORE POP JUMP JUMPDEST PUSH0 PUSH2 0x11B7 PUSH1 0x13 DUP4 PUSH2 0x10DE JUMP JUMPDEST SWAP2 POP PUSH2 0x11C2 DUP3 PUSH2 0x1183 JUMP JUMPDEST PUSH1 0x20 DUP3 ADD SWAP1 POP SWAP2 SWAP1 POP JUMP JUMPDEST PUSH0 PUSH1 0x20 DUP3 ADD SWAP1 POP DUP2 DUP2 SUB PUSH0 DUP4 ADD MSTORE PUSH2 0x11E4 DUP2 PUSH2 0x11AB JUMP JUMPDEST SWAP1 POP SWAP2 SWAP1 POP JUMP JUMPDEST PUSH32 0x4E487B7100000000000000000000000000000000000000000000000000000000 PUSH0 MSTORE PUSH1 0x11 PUSH1 0x4 MSTORE PUSH1 0x24 PUSH0 REVERT JUMPDEST PUSH0 PUSH2 0x1222 DUP3 PUSH2 0xF9D JUMP JUMPDEST SWAP2 POP PUSH2 0x122D DUP4 PUSH2 0xF9D JUMP JUMPDEST SWAP3 POP DUP3 DUP3 SUB SWAP1 POP DUP2 DUP2 GT ISZERO PUSH2 0x1245 JUMPI PUSH2 0x1244 PUSH2 0x11EB JUMP JUMPDEST JUMPDEST SWAP3 SWAP2 POP POP JUMP JUMPDEST PUSH32 0x52617465206C696D697420657863656564656400000000000000000000000000 PUSH0 DUP3 ADD MSTORE POP JUMP JUMPDEST PUSH0 PUSH2 0x127F PUSH1 0x13 DUP4 PUSH2 0x10DE JUMP JUMPDEST SWAP2 POP PUSH2 0x128A DUP3 PUSH2 0x124B JUMP JUMPDEST PUSH1 0x20 DUP3 ADD SWAP1 POP SWAP2 SWAP1 POP JUMP JUMPDEST PUSH0 PUSH1 0x20 DUP3 ADD SWAP1 POP DUP2 DUP2 SUB PUSH0 DUP4 ADD MSTORE PUSH2 0x12AC DUP2 PUSH2 0x1273 JUMP JUMPDEST SWAP1 POP SWAP2 SWAP1 POP JUMP JUMPDEST PUSH32 0x50726F6F6620616C726561647920766572696669656400000000000000000000 PUSH0 DUP3 ADD MSTORE POP JUMP JUMPDEST PUSH0 PUSH2 0x12E7 PUSH1 0x16 DUP4 PUSH2 0x10DE JUMP JUMPDEST SWAP2 POP PUSH2 0x12F2 DUP3 PUSH2 0x12B3 JUMP JUMPDEST PUSH1 0x20 DUP3 ADD SWAP1 POP SWAP2 SWAP1 POP JUMP JUMPDEST PUSH0 PUSH1 0x20 DUP3 ADD SWAP1 POP DUP2 DUP2 SUB PUSH0 DUP4 ADD MSTORE PUSH2 0x1314 DUP2 PUSH2 0x12DB JUMP JUMPDEST SWAP1 POP SWAP2 SWAP1 POP JUMP JUMPDEST DUP3 DUP2 DUP4 CALLDATACOPY POP POP POP JUMP JUMPDEST PUSH2 0x1331 PUSH2 0x100 DUP4 DUP4 PUSH2 0x131B JUMP JUMPDEST POP POP JUMP JUMPDEST PUSH2 0x1341 PUSH1 0x20 DUP4 DUP4 PUSH2 0x131B JUMP JUMPDEST POP POP JUMP JUMPDEST PUSH0 PUSH2 0x120 DUP3 ADD SWAP1 POP PUSH2 0x1359 PUSH0 DUP4 ADD DUP6 PUSH2 0x1324 JUMP JUMPDEST PUSH2 0x1367 PUSH2 0x100 DUP4 ADD DUP5 PUSH2 0x1335 JUMP JUMPDEST SWAP4 SWAP3 POP POP POP JUMP JUMPDEST PUSH2 0x1377 DUP2 PUSH2 0xEE4 JUMP JUMPDEST DUP2 EQ PUSH2 0x1381 JUMPI PUSH0 DUP1 REVERT JUMPDEST POP JUMP JUMPDEST PUSH0 DUP2 MLOAD SWAP1 POP PUSH2 0x1392 DUP2 PUSH2 0x136E JUMP JUMPDEST SWAP3 SWAP2 POP POP JUMP JUMPDEST PUSH0 PUSH1 0x20 DUP3 DUP5 SUB SLT ISZERO PUSH2 0x13AD JUMPI PUSH2 0x13AC PUSH2 0xE82 JUMP JUMPDEST JUMPDEST PUSH0 PUSH2 0x13BA DUP5 DUP3 DUP6 ADD PUSH2 0x1384 JUMP JUMPDEST SWAP2 POP POP SWAP3 SWAP2 POP POP JUMP JUMPDEST PUSH0 DUP2 PUSH1 0xE0 SHR SWAP1 POP SWAP2 SWAP1 POP JUMP JUMPDEST PUSH0 PUSH1 0x3 RETURNDATASIZE GT ISZERO PUSH2 0x13EB JUMPI PUSH1 0x4 PUSH0 DUP1 RETURNDATACOPY PUSH2 0x13E8 PUSH0 MLOAD PUSH2 0x13C3 JUMP JUMPDEST SWAP1 POP JUMPDEST SWAP1 JUMP JUMPDEST PUSH0 PUSH1 0x1F NOT PUSH1 0x1F DUP4 ADD AND SWAP1 POP SWAP2 SWAP1 POP JUMP JUMPDEST PUSH32 0x4E487B7100000000000000000000000000000000000000000000000000000000 PUSH0 MSTORE PUSH1 0x41 PUSH1 0x4 MSTORE PUSH1 0x24 PUSH0 REVERT JUMPDEST PUSH2 0x1434 DUP3 PUSH2 0x13EE JUMP JUMPDEST DUP2 ADD DUP2 DUP2 LT PUSH8 0xFFFFFFFFFFFFFFFF DUP3 GT OR ISZERO PUSH2 0x1453 JUMPI PUSH2 0x1452 PUSH2 0x13FE JUMP JUMPDEST JUMPDEST DUP1 PUSH1 0x40 MSTORE POP POP POP JUMP JUMPDEST PUSH0 PUSH1 0x44 RETURNDATASIZE LT PUSH2 0x14E8 JUMPI PUSH2 0x146D PUSH2 0xE79 JUMP JUMPDEST PUSH1 0x4 RETURNDATASIZE SUB PUSH1 0x4 DUP3 RETURNDATACOPY DUP1 MLOAD RETURNDATASIZE PUSH1 0x24 DUP3 ADD GT PUSH8 0xFFFFFFFFFFFFFFFF DUP3 GT OR ISZERO PUSH2 0x1495 JUMPI POP POP PUSH2 0x14E8 JUMP JUMPDEST DUP1 DUP3 ADD DUP1 MLOAD PUSH8 0xFFFFFFFFFFFFFFFF DUP2 GT ISZERO PUSH2 0x14B3 JUMPI POP POP POP POP PUSH2 0x14E8 JUMP JUMPDEST DUP1 PUSH1 0x20 DUP4 ADD ADD PUSH1 0x4 RETURNDATASIZE SUB DUP6 ADD DUP2 GT ISZERO PUSH2 0x14D0 JUMPI POP POP POP POP POP PUSH2 0x14E8 JUMP JUMPDEST PUSH2 0x14DF DUP3 PUSH1 0x20 ADD DUP6 ADD DUP7 PUSH2 0x142B JUMP JUMPDEST DUP3 SWAP6 POP POP POP POP POP POP JUMPDEST SWAP1 JUMP JUMPDEST PUSH0 DUP2 MLOAD SWAP1 POP SWAP2 SWAP1 POP JUMP JUMPDEST DUP3 DUP2 DUP4 MCOPY PUSH0 DUP4 DUP4 ADD MSTORE POP POP POP JUMP JUMPDEST PUSH0 PUSH2 0x150D DUP3 PUSH2 0x14EB JUMP JUMPDEST PUSH2 0x1517 DUP2 DUP6 PUSH2 0x10DE JUMP JUMPDEST SWAP4 POP PUSH2 0x1527 DUP2 DUP6 PUSH1 0x20 DUP7 ADD PUSH2 0x14F5 JUMP JUMPDEST PUSH2 0x1530 DUP2 PUSH2 0x13EE JUMP JUMPDEST DUP5 ADD SWAP2 POP POP SWAP3 SWAP2 POP POP JUMP JUMPDEST PUSH0 PUSH1 0x40 DUP3 ADD SWAP1 POP DUP2 DUP2 SUB PUSH0 DUP4 ADD MSTORE PUSH2 0x1553 DUP2 DUP6 PUSH2 0x1503 JUMP JUMPDEST SWAP1 POP PUSH2 0x1562 PUSH1 0x20 DUP4 ADD DUP5 PUSH2 0xFA6 JUMP JUMPDEST SWAP4 SWAP3 POP POP POP JUMP JUMPDEST PUSH0 PUSH2 0x1573 DUP3 PUSH2 0xF9D JUMP JUMPDEST SWAP2 POP PUSH32 0xFFFFFFFFFFFFFFFFFFFFFFFFFFFFFFFFFFFFFFFFFFFFFFFFFFFFFFFFFFFFFFFF DUP3 SUB PUSH2 0x15A5 JUMPI PUSH2 0x15A4 PUSH2 0x11EB JUMP JUMPDEST JUMPDEST PUSH1 0x1 DUP3 ADD SWAP1 POP SWAP2 SWAP1 POP JUMP JUMPDEST PUSH0 PUSH1 0x20 DUP3 ADD SWAP1 POP PUSH2 0x15C3 PUSH0 DUP4 ADD DUP5 PUSH2 0xFA6 JUMP JUMPDEST SWAP3 SWAP2 POP POP JUMP JUMPDEST PUSH2 0x15D6 PUSH2 0x100 DUP4 DUP4 PUSH2 0x131B JUMP JUMPDEST POP POP JUMP JUMPDEST PUSH2 0x15E6 PUSH1 0x20 DUP4 DUP4 PUSH2 0x131B JUMP JUMPDEST POP POP JUMP JUMPDEST PUSH0 PUSH2 0x15F5 DUP3 DUP6 PUSH2 0x15C9 JUMP JUMPDEST PUSH2 0x100 DUP3 ADD SWAP2 POP PUSH2 0x1606 DUP3 DUP5 PUSH2 0x15DA JUMP JUMPDEST PUSH1 0x20 DUP3 ADD SWAP2 POP DUP2 SWAP1 POP SWAP4 SWAP3 POP POP POP JUMP JUMPDEST PUSH32 0x4E487B7100000000000000000000000000000000000000000000000000000000 PUSH0 MSTORE PUSH1 0x12 PUSH1 0x4 MSTORE PUSH1 0x24 PUSH0 REVERT INVALID LOG2 PUSH5 0x6970667358 0x22 SLT KECCAK256 0xD GASLIMIT 0xE2 0x26 SWAP16 SIGNEXTEND 0xC6 PUSH19 0x723821A4C89DBE6E50257F5DDC060647BE74F1 DUP9 PUSH14 0x90E5C564736F6C634300081A0033 "
				},
				"gasEstimates": {
					"creation": {
						"codeDepositCost": "1150600",
						"executionCost": "infinite",
						"totalCost": "infinite"
					},
					"external": {
						"clearOldBlockCounts(uint256)": "infinite",
						"getVerificationInfo(bytes32)": "5163",
						"owner()": "2559",
						"pause()": "infinite",
						"paused()": "2613",
						"renounceOwnership()": "infinite",
						"transferOwnership(address)": "infinite",
						"unpause()": "infinite",
						"verifiedProofs(bytes32)": "2786",
						"verifyAndRecordProof(uint256[8],uint256[1])": "infinite",
						"verifyProof(uint256[8],uint256[1])": "infinite"
					},
					"internal": {
						"_verifyProofPoints(struct ZKVerifier.G1Point memory,struct ZKVerifier.G2Point memory,struct ZKVerifier.G1Point memory,uint256)": "infinite",
						"generateProofHash(uint256[8] calldata,uint256[1] calldata)": "infinite",
						"isOnCurveG1(struct ZKVerifier.G1Point memory)": "infinite",
						"isOnCurveG2(struct ZKVerifier.G2Point memory)": "infinite",
						"validateInputs(uint256[8] calldata,uint256[1] calldata)": "infinite"
					}
				},
				"methodIdentifiers": {
					"clearOldBlockCounts(uint256)": "c8fea3a5",
					"getVerificationInfo(bytes32)": "41f03c69",
					"owner()": "8da5cb5b",
					"pause()": "8456cb59",
					"paused()": "5c975abb",
					"renounceOwnership()": "715018a6",
					"transferOwnership(address)": "f2fde38b",
					"unpause()": "3f4ba83a",
					"verifiedProofs(bytes32)": "176d80c4",
					"verifyAndRecordProof(uint256[8],uint256[1])": "cd95fe6b",
					"verifyProof(uint256[8],uint256[1])": "1b81f829"
				}
			},
			"storageLayout": {
				"storage": [
					{
						"astId": 8,
						"contract": "zkp/ZKVerifier.sol:ZKVerifier",
						"label": "_owner",
						"offset": 0,
						"slot": "0",
						"type": "t_address"
					},
					{
						"astId": 186,
						"contract": "zkp/ZKVerifier.sol:ZKVerifier",
						"label": "_paused",
						"offset": 20,
						"slot": "0",
						"type": "t_bool"
					},
					{
						"astId": 305,
						"contract": "zkp/ZKVerifier.sol:ZKVerifier",
						"label": "_status",
						"offset": 0,
						"slot": "1",
						"type": "t_uint256"
					},
					{
						"astId": 406,
						"contract": "zkp/ZKVerifier.sol:ZKVerifier",
						"label": "blockVerificationCount",
						"offset": 0,
						"slot": "2",
						"type": "t_mapping(t_uint256,t_uint256)"
					},
					{
						"astId": 410,
						"contract": "zkp/ZKVerifier.sol:ZKVerifier",
						"label": "verifiedProofs",
						"offset": 0,
						"slot": "3",
						"type": "t_mapping(t_bytes32,t_bool)"
					},
					{
						"astId": 414,
						"contract": "zkp/ZKVerifier.sol:ZKVerifier",
						"label": "verificationTimes",
						"offset": 0,
						"slot": "4",
						"type": "t_mapping(t_bytes32,t_uint256)"
					}
				],
				"types": {
					"t_address": {
						"encoding": "inplace",
						"label": "address",
						"numberOfBytes": "20"
					},
					"t_bool": {
						"encoding": "inplace",
						"label": "bool",
						"numberOfBytes": "1"
					},
					"t_bytes32": {
						"encoding": "inplace",
						"label": "bytes32",
						"numberOfBytes": "32"
					},
					"t_mapping(t_bytes32,t_bool)": {
						"encoding": "mapping",
						"key": "t_bytes32",
						"label": "mapping(bytes32 => bool)",
						"numberOfBytes": "32",
						"value": "t_bool"
					},
					"t_mapping(t_bytes32,t_uint256)": {
						"encoding": "mapping",
						"key": "t_bytes32",
						"label": "mapping(bytes32 => uint256)",
						"numberOfBytes": "32",
						"value": "t_uint256"
					},
					"t_mapping(t_uint256,t_uint256)": {
						"encoding": "mapping",
						"key": "t_uint256",
						"label": "mapping(uint256 => uint256)",
						"numberOfBytes": "32",
						"value": "t_uint256"
					},
					"t_uint256": {
						"encoding": "inplace",
						"label": "uint256",
						"numberOfBytes": "32"
					}
				}
			},
			"userdoc": {
				"kind": "user",
				"methods": {},
				"version": 1
			}
		}
	}
}