{
	"zkp/ZKVerifier.sol": {
		"ZKVerifier": {
			"abi": [
				{
					"inputs": [
						{
							"internalType": "address",
							"name": "initialOwner",
							"type": "address"
						}
					],
					"stateMutability": "nonpayable",
					"type": "constructor"
				},
				{
					"inputs": [],
					"name": "EnforcedPause",
					"type": "error"
				},
				{
					"inputs": [],
					"name": "ExpectedPause",
					"type": "error"
				},
				{
					"inputs": [
						{
							"internalType": "address",
							"name": "owner",
							"type": "address"
						}
					],
					"name": "OwnableInvalidOwner",
					"type": "error"
				},
				{
					"inputs": [
						{
							"internalType": "address",
							"name": "account",
							"type": "address"
						}
					],
					"name": "OwnableUnauthorizedAccount",
					"type": "error"
				},
				{
					"inputs": [],
					"name": "ReentrancyGuardReentrantCall",
					"type": "error"
				},
				{
					"anonymous": false,
					"inputs": [
						{
							"indexed": true,
							"internalType": "address",
							"name": "previousOwner",
							"type": "address"
						},
						{
							"indexed": true,
							"internalType": "address",
							"name": "newOwner",
							"type": "address"
						}
					],
					"name": "OwnershipTransferred",
					"type": "event"
				},
				{
					"anonymous": false,
					"inputs": [
						{
							"indexed": false,
							"internalType": "address",
							"name": "account",
							"type": "address"
						}
					],
					"name": "Paused",
					"type": "event"
				},
				{
					"anonymous": false,
					"inputs": [
						{
							"indexed": true,
							"internalType": "bytes32",
							"name": "proofHash",
							"type": "bytes32"
						},
						{
							"indexed": false,
							"internalType": "bool",
							"name": "success",
							"type": "bool"
						}
					],
					"name": "ProofVerified",
					"type": "event"
				},
				{
					"anonymous": false,
					"inputs": [
						{
							"indexed": false,
							"internalType": "address",
							"name": "account",
							"type": "address"
						}
					],
					"name": "Unpaused",
					"type": "event"
				},
				{
					"anonymous": false,
					"inputs": [
						{
							"indexed": true,
							"internalType": "bytes32",
							"name": "proofHash",
							"type": "bytes32"
						},
						{
							"indexed": false,
							"internalType": "string",
							"name": "reason",
							"type": "string"
						}
					],
					"name": "VerifierError",
					"type": "event"
				},
				{
					"inputs": [],
					"name": "owner",
					"outputs": [
						{
							"internalType": "address",
							"name": "",
							"type": "address"
						}
					],
					"stateMutability": "view",
					"type": "function"
				},
				{
					"inputs": [],
					"name": "pause",
					"outputs": [],
					"stateMutability": "nonpayable",
					"type": "function"
				},
				{
					"inputs": [],
					"name": "paused",
					"outputs": [
						{
							"internalType": "bool",
							"name": "",
							"type": "bool"
						}
					],
					"stateMutability": "view",
					"type": "function"
				},
				{
					"inputs": [],
					"name": "renounceOwnership",
					"outputs": [],
					"stateMutability": "nonpayable",
					"type": "function"
				},
				{
					"inputs": [
						{
							"internalType": "address",
							"name": "newOwner",
							"type": "address"
						}
					],
					"name": "transferOwnership",
					"outputs": [],
					"stateMutability": "nonpayable",
					"type": "function"
				},
				{
					"inputs": [],
					"name": "unpause",
					"outputs": [],
					"stateMutability": "nonpayable",
					"type": "function"
				},
				{
					"inputs": [
						{
							"internalType": "bytes32",
							"name": "",
							"type": "bytes32"
						}
					],
					"name": "verifiedProofs",
					"outputs": [
						{
							"internalType": "bool",
							"name": "",
							"type": "bool"
						}
					],
					"stateMutability": "view",
					"type": "function"
				},
				{
					"inputs": [
						{
							"internalType": "uint256[8]",
							"name": "proof",
							"type": "uint256[8]"
						},
						{
							"internalType": "uint256[1]",
							"name": "input",
							"type": "uint256[1]"
						}
					],
					"name": "verifyAndRecordProof",
					"outputs": [
						{
							"internalType": "bool",
							"name": "",
							"type": "bool"
						}
					],
					"stateMutability": "nonpayable",
					"type": "function"
				},
				{
					"inputs": [
						{
							"internalType": "uint256[8]",
							"name": "proof",
							"type": "uint256[8]"
						},
						{
							"internalType": "uint256[1]",
							"name": "input",
							"type": "uint256[1]"
						}
					],
					"name": "verifyProof",
					"outputs": [
						{
							"internalType": "bool",
							"name": "",
							"type": "bool"
						}
					],
					"stateMutability": "view",
					"type": "function"
				}
			],
			"devdoc": {
				"errors": {
					"EnforcedPause()": [
						{
							"details": "The operation failed because the contract is paused."
						}
					],
					"ExpectedPause()": [
						{
							"details": "The operation failed because the contract is not paused."
						}
					],
					"OwnableInvalidOwner(address)": [
						{
							"details": "The owner is not a valid owner account. (eg. `address(0)`)"
						}
					],
					"OwnableUnauthorizedAccount(address)": [
						{
							"details": "The caller account is not authorized to perform an operation."
						}
					],
					"ReentrancyGuardReentrantCall()": [
						{
							"details": "Unauthorized reentrant call."
						}
					]
				},
				"events": {
					"Paused(address)": {
						"details": "Emitted when the pause is triggered by `account`."
					},
					"Unpaused(address)": {
						"details": "Emitted when the pause is lifted by `account`."
					}
				},
				"kind": "dev",
				"methods": {
					"owner()": {
						"details": "Returns the address of the current owner."
					},
					"paused()": {
						"details": "Returns true if the contract is paused, and false otherwise."
					},
					"renounceOwnership()": {
						"details": "Leaves the contract without owner. It will not be possible to call `onlyOwner` functions. Can only be called by the current owner. NOTE: Renouncing ownership will leave the contract without an owner, thereby disabling any functionality that is only available to the owner."
					},
					"transferOwnership(address)": {
						"details": "Transfers ownership of the contract to a new account (`newOwner`). Can only be called by the current owner."
					},
					"verifyAndRecordProof(uint256[8],uint256[1])": {
						"params": {
							"input": "Array containing public inputs",
							"proof": "Array containing proof elements"
						},
						"returns": {
							"_0": "bool indicating if proof is valid"
						}
					},
					"verifyProof(uint256[8],uint256[1])": {
						"params": {
							"input": "Array containing public inputs",
							"proof": "Array containing proof elements [a1, a2, b11, b12, b21, b22, c1, c2]"
						},
						"returns": {
							"_0": "bool indicating if proof is valid"
						}
					}
				},
				"version": 1
			},
			"evm": {
				"assembly": "    /* \"zkp/ZKVerifier.sol\":414:5134  contract ZKVerifier is IZKVerifier, Ownable, Pausable, ReentrancyGuard {... */\n  mstore(0x40, 0x80)\n    /* \"zkp/ZKVerifier.sol\":1013:1071  constructor(address initialOwner) Ownable(initialOwner) {} */\n  callvalue\n  dup1\n  iszero\n  tag_1\n  jumpi\n  0x00\n  dup1\n  revert\ntag_1:\n  pop\n  mload(0x40)\n  sub(codesize, bytecodeSize)\n  dup1\n  bytecodeSize\n  dup4\n  codecopy\n  dup2\n  dup2\n  add\n  0x40\n  mstore\n  dup2\n  add\n  swap1\n  tag_2\n  swap2\n  swap1\n  tag_3\n  jump\t// in\ntag_2:\n    /* \"zkp/ZKVerifier.sol\":1055:1067  initialOwner */\n  dup1\n    /* \"@openzeppelin/contracts/access/Ownable.sol\":1297:1298  0 */\n  0x00\n    /* \"@openzeppelin/contracts/access/Ownable.sol\":1273:1299  initialOwner == address(0) */\n  0xffffffffffffffffffffffffffffffffffffffff\n  and\n    /* \"@openzeppelin/contracts/access/Ownable.sol\":1273:1285  initialOwner */\n  dup2\n    /* \"@openzeppelin/contracts/access/Ownable.sol\":1273:1299  initialOwner == address(0) */\n  0xffffffffffffffffffffffffffffffffffffffff\n  and\n  sub\n    /* \"@openzeppelin/contracts/access/Ownable.sol\":1269:1364  if (initialOwner == address(0)) {... */\n  tag_9\n  jumpi\n    /* \"@openzeppelin/contracts/access/Ownable.sol\":1350:1351  0 */\n  0x00\n    /* \"@openzeppelin/contracts/access/Ownable.sol\":1322:1353  OwnableInvalidOwner(address(0)) */\n  mload(0x40)\n  0x1e4fbdf700000000000000000000000000000000000000000000000000000000\n  dup2\n  mstore\n  0x04\n  add\n  tag_10\n  swap2\n  swap1\n  tag_11\n  jump\t// in\ntag_10:\n  mload(0x40)\n  dup1\n  swap2\n  sub\n  swap1\n  revert\n    /* \"@openzeppelin/contracts/access/Ownable.sol\":1269:1364  if (initialOwner == address(0)) {... */\ntag_9:\n    /* \"@openzeppelin/contracts/access/Ownable.sol\":1373:1405  _transferOwnership(initialOwner) */\n  tag_12\n    /* \"@openzeppelin/contracts/access/Ownable.sol\":1392:1404  initialOwner */\n  dup2\n    /* \"@openzeppelin/contracts/access/Ownable.sol\":1373:1391  _transferOwnership */\n  shl(0x20, tag_13)\n    /* \"@openzeppelin/contracts/access/Ownable.sol\":1373:1405  _transferOwnership(initialOwner) */\n  0x20\n  shr\n  jump\t// in\ntag_12:\n    /* \"@openzeppelin/contracts/access/Ownable.sol\":1225:1412  constructor(address initialOwner) {... */\n  pop\n    /* \"@openzeppelin/contracts/utils/Pausable.sol\":1241:1246  false */\n  0x00\n    /* \"@openzeppelin/contracts/utils/Pausable.sol\":1231:1238  _paused */\n  dup1\n  0x14\n    /* \"@openzeppelin/contracts/utils/Pausable.sol\":1231:1246  _paused = false */\n  0x0100\n  exp\n  dup2\n  sload\n  dup2\n  0xff\n  mul\n  not\n  and\n  swap1\n  dup4\n  iszero\n  iszero\n  mul\n  or\n  swap1\n  sstore\n  pop\n    /* \"@openzeppelin/contracts/utils/ReentrancyGuard.sol\":1857:1858  1 */\n  0x01\n    /* \"@openzeppelin/contracts/utils/ReentrancyGuard.sol\":2061:2068  _status */\n  dup1\n    /* \"@openzeppelin/contracts/utils/ReentrancyGuard.sol\":2061:2082  _status = NOT_ENTERED */\n  dup2\n  swap1\n  sstore\n  pop\n    /* \"zkp/ZKVerifier.sol\":1013:1071  constructor(address initialOwner) Ownable(initialOwner) {} */\n  pop\n    /* \"zkp/ZKVerifier.sol\":414:5134  contract ZKVerifier is IZKVerifier, Ownable, Pausable, ReentrancyGuard {... */\n  jump(tag_17)\n    /* \"@openzeppelin/contracts/access/Ownable.sol\":2912:3099  function _transferOwnership(address newOwner) internal virtual {... */\ntag_13:\n    /* \"@openzeppelin/contracts/access/Ownable.sol\":2985:3001  address oldOwner */\n  0x00\n    /* \"@openzeppelin/contracts/access/Ownable.sol\":3004:3010  _owner */\n  dup1\n  0x00\n  swap1\n  sload\n  swap1\n  0x0100\n  exp\n  swap1\n  div\n  0xffffffffffffffffffffffffffffffffffffffff\n  and\n    /* \"@openzeppelin/contracts/access/Ownable.sol\":2985:3010  address oldOwner = _owner */\n  swap1\n  pop\n    /* \"@openzeppelin/contracts/access/Ownable.sol\":3029:3037  newOwner */\n  dup2\n    /* \"@openzeppelin/contracts/access/Ownable.sol\":3020:3026  _owner */\n  0x00\n  dup1\n    /* \"@openzeppelin/contracts/access/Ownable.sol\":3020:3037  _owner = newOwner */\n  0x0100\n  exp\n  dup2\n  sload\n  dup2\n  0xffffffffffffffffffffffffffffffffffffffff\n  mul\n  not\n  and\n  swap1\n  dup4\n  0xffffffffffffffffffffffffffffffffffffffff\n  and\n  mul\n  or\n  swap1\n  sstore\n  pop\n    /* \"@openzeppelin/contracts/access/Ownable.sol\":3083:3091  newOwner */\n  dup2\n    /* \"@openzeppelin/contracts/access/Ownable.sol\":3052:3092  OwnershipTransferred(oldOwner, newOwner) */\n  0xffffffffffffffffffffffffffffffffffffffff\n  and\n    /* \"@openzeppelin/contracts/access/Ownable.sol\":3073:3081  oldOwner */\n  dup2\n    /* \"@openzeppelin/contracts/access/Ownable.sol\":3052:3092  OwnershipTransferred(oldOwner, newOwner) */\n  0xffffffffffffffffffffffffffffffffffffffff\n  and\n  0x8be0079c531659141344cd1fd0a4f28419497f9722a3daafe3b4186f6b6457e0\n  mload(0x40)\n  mload(0x40)\n  dup1\n  swap2\n  sub\n  swap1\n  log3\n    /* \"@openzeppelin/contracts/access/Ownable.sol\":2975:3099  {... */\n  pop\n    /* \"@openzeppelin/contracts/access/Ownable.sol\":2912:3099  function _transferOwnership(address newOwner) internal virtual {... */\n  pop\n  jump\t// out\n    /* \"#utility.yul\":88:205   */\ntag_20:\n    /* \"#utility.yul\":197:198   */\n  0x00\n    /* \"#utility.yul\":194:195   */\n  dup1\n    /* \"#utility.yul\":187:199   */\n  revert\n    /* \"#utility.yul\":334:460   */\ntag_22:\n    /* \"#utility.yul\":371:378   */\n  0x00\n    /* \"#utility.yul\":411:453   */\n  0xffffffffffffffffffffffffffffffffffffffff\n    /* \"#utility.yul\":404:409   */\n  dup3\n    /* \"#utility.yul\":400:454   */\n  and\n    /* \"#utility.yul\":389:454   */\n  swap1\n  pop\n    /* \"#utility.yul\":334:460   */\n  swap2\n  swap1\n  pop\n  jump\t// out\n    /* \"#utility.yul\":466:562   */\ntag_23:\n    /* \"#utility.yul\":503:510   */\n  0x00\n    /* \"#utility.yul\":532:556   */\n  tag_33\n    /* \"#utility.yul\":550:555   */\n  dup3\n    /* \"#utility.yul\":532:556   */\n  tag_22\n  jump\t// in\ntag_33:\n    /* \"#utility.yul\":521:556   */\n  swap1\n  pop\n    /* \"#utility.yul\":466:562   */\n  swap2\n  swap1\n  pop\n  jump\t// out\n    /* \"#utility.yul\":568:690   */\ntag_24:\n    /* \"#utility.yul\":641:665   */\n  tag_35\n    /* \"#utility.yul\":659:664   */\n  dup2\n    /* \"#utility.yul\":641:665   */\n  tag_23\n  jump\t// in\ntag_35:\n    /* \"#utility.yul\":634:639   */\n  dup2\n    /* \"#utility.yul\":631:666   */\n  eq\n    /* \"#utility.yul\":621:684   */\n  tag_36\n  jumpi\n    /* \"#utility.yul\":680:681   */\n  0x00\n    /* \"#utility.yul\":677:678   */\n  dup1\n    /* \"#utility.yul\":670:682   */\n  revert\n    /* \"#utility.yul\":621:684   */\ntag_36:\n    /* \"#utility.yul\":568:690   */\n  pop\n  jump\t// out\n    /* \"#utility.yul\":696:839   */\ntag_25:\n    /* \"#utility.yul\":753:758   */\n  0x00\n    /* \"#utility.yul\":784:790   */\n  dup2\n    /* \"#utility.yul\":778:791   */\n  mload\n    /* \"#utility.yul\":769:791   */\n  swap1\n  pop\n    /* \"#utility.yul\":800:833   */\n  tag_38\n    /* \"#utility.yul\":827:832   */\n  dup2\n    /* \"#utility.yul\":800:833   */\n  tag_24\n  jump\t// in\ntag_38:\n    /* \"#utility.yul\":696:839   */\n  swap3\n  swap2\n  pop\n  pop\n  jump\t// out\n    /* \"#utility.yul\":845:1196   */\ntag_3:\n    /* \"#utility.yul\":915:921   */\n  0x00\n    /* \"#utility.yul\":964:966   */\n  0x20\n    /* \"#utility.yul\":952:961   */\n  dup3\n    /* \"#utility.yul\":943:950   */\n  dup5\n    /* \"#utility.yul\":939:962   */\n  sub\n    /* \"#utility.yul\":935:967   */\n  slt\n    /* \"#utility.yul\":932:1051   */\n  iszero\n  tag_40\n  jumpi\n    /* \"#utility.yul\":970:1049   */\n  tag_41\n  tag_20\n  jump\t// in\ntag_41:\n    /* \"#utility.yul\":932:1051   */\ntag_40:\n    /* \"#utility.yul\":1090:1091   */\n  0x00\n    /* \"#utility.yul\":1115:1179   */\n  tag_42\n    /* \"#utility.yul\":1171:1178   */\n  dup5\n    /* \"#utility.yul\":1162:1168   */\n  dup3\n    /* \"#utility.yul\":1151:1160   */\n  dup6\n    /* \"#utility.yul\":1147:1169   */\n  add\n    /* \"#utility.yul\":1115:1179   */\n  tag_25\n  jump\t// in\ntag_42:\n    /* \"#utility.yul\":1105:1179   */\n  swap2\n  pop\n    /* \"#utility.yul\":1061:1189   */\n  pop\n    /* \"#utility.yul\":845:1196   */\n  swap3\n  swap2\n  pop\n  pop\n  jump\t// out\n    /* \"#utility.yul\":1202:1320   */\ntag_26:\n    /* \"#utility.yul\":1289:1313   */\n  tag_44\n    /* \"#utility.yul\":1307:1312   */\n  dup2\n    /* \"#utility.yul\":1289:1313   */\n  tag_23\n  jump\t// in\ntag_44:\n    /* \"#utility.yul\":1284:1287   */\n  dup3\n    /* \"#utility.yul\":1277:1314   */\n  mstore\n    /* \"#utility.yul\":1202:1320   */\n  pop\n  pop\n  jump\t// out\n    /* \"#utility.yul\":1326:1548   */\ntag_11:\n    /* \"#utility.yul\":1419:1423   */\n  0x00\n    /* \"#utility.yul\":1457:1459   */\n  0x20\n    /* \"#utility.yul\":1446:1455   */\n  dup3\n    /* \"#utility.yul\":1442:1460   */\n  add\n    /* \"#utility.yul\":1434:1460   */\n  swap1\n  pop\n    /* \"#utility.yul\":1470:1541   */\n  tag_46\n    /* \"#utility.yul\":1538:1539   */\n  0x00\n    /* \"#utility.yul\":1527:1536   */\n  dup4\n    /* \"#utility.yul\":1523:1540   */\n  add\n    /* \"#utility.yul\":1514:1520   */\n  dup5\n    /* \"#utility.yul\":1470:1541   */\n  tag_26\n  jump\t// in\ntag_46:\n    /* \"#utility.yul\":1326:1548   */\n  swap3\n  swap2\n  pop\n  pop\n  jump\t// out\n    /* \"zkp/ZKVerifier.sol\":414:5134  contract ZKVerifier is IZKVerifier, Ownable, Pausable, ReentrancyGuard {... */\ntag_17:\n  dataSize(sub_0)\n  dup1\n  dataOffset(sub_0)\n  0x00\n  codecopy\n  0x00\n  return\nstop\n\nsub_0: assembly {\n        /* \"zkp/ZKVerifier.sol\":414:5134  contract ZKVerifier is IZKVerifier, Ownable, Pausable, ReentrancyGuard {... */\n      mstore(0x40, 0x80)\n      callvalue\n      dup1\n      iszero\n      tag_1\n      jumpi\n      0x00\n      dup1\n      revert\n    tag_1:\n      pop\n      jumpi(tag_2, lt(calldatasize, 0x04))\n      shr(0xe0, calldataload(0x00))\n      dup1\n      0x715018a6\n      gt\n      tag_12\n      jumpi\n      dup1\n      0x715018a6\n      eq\n      tag_7\n      jumpi\n      dup1\n      0x8456cb59\n      eq\n      tag_8\n      jumpi\n      dup1\n      0x8da5cb5b\n      eq\n      tag_9\n      jumpi\n      dup1\n      0xcd95fe6b\n      eq\n      tag_10\n      jumpi\n      dup1\n      0xf2fde38b\n      eq\n      tag_11\n      jumpi\n      jump(tag_2)\n    tag_12:\n      dup1\n      0x176d80c4\n      eq\n      tag_3\n      jumpi\n      dup1\n      0x1b81f829\n      eq\n      tag_4\n      jumpi\n      dup1\n      0x3f4ba83a\n      eq\n      tag_5\n      jumpi\n      dup1\n      0x5c975abb\n      eq\n      tag_6\n      jumpi\n    tag_2:\n      0x00\n      dup1\n      revert\n        /* \"zkp/ZKVerifier.sol\":516:562  mapping(bytes32 => bool) public verifiedProofs */\n    tag_3:\n      tag_13\n      0x04\n      dup1\n      calldatasize\n      sub\n      dup2\n      add\n      swap1\n      tag_14\n      swap2\n      swap1\n      tag_15\n      jump\t// in\n    tag_14:\n      tag_16\n      jump\t// in\n    tag_13:\n      mload(0x40)\n      tag_17\n      swap2\n      swap1\n      tag_18\n      jump\t// in\n    tag_17:\n      mload(0x40)\n      dup1\n      swap2\n      sub\n      swap1\n      return\n        /* \"zkp/ZKVerifier.sol\":1339:1941  function verifyProof(... */\n    tag_4:\n      tag_19\n      0x04\n      dup1\n      calldatasize\n      sub\n      dup2\n      add\n      swap1\n      tag_20\n      swap2\n      swap1\n      tag_21\n      jump\t// in\n    tag_20:\n      tag_22\n      jump\t// in\n    tag_19:\n      mload(0x40)\n      tag_23\n      swap2\n      swap1\n      tag_18\n      jump\t// in\n    tag_23:\n      mload(0x40)\n      dup1\n      swap2\n      sub\n      swap1\n      return\n        /* \"zkp/ZKVerifier.sol\":5064:5131  function unpause() external onlyOwner {... */\n    tag_5:\n      tag_24\n      tag_25\n      jump\t// in\n    tag_24:\n      stop\n        /* \"@openzeppelin/contracts/utils/Pausable.sol\":1850:1934  function paused() public view virtual returns (bool) {... */\n    tag_6:\n      tag_26\n      tag_27\n      jump\t// in\n    tag_26:\n      mload(0x40)\n      tag_28\n      swap2\n      swap1\n      tag_18\n      jump\t// in\n    tag_28:\n      mload(0x40)\n      dup1\n      swap2\n      sub\n      swap1\n      return\n        /* \"@openzeppelin/contracts/access/Ownable.sol\":2293:2394  function renounceOwnership() public virtual onlyOwner {... */\n    tag_7:\n      tag_29\n      tag_30\n      jump\t// in\n    tag_29:\n      stop\n        /* \"zkp/ZKVerifier.sol\":4993:5056  function pause() external onlyOwner {... */\n    tag_8:\n      tag_31\n      tag_32\n      jump\t// in\n    tag_31:\n      stop\n        /* \"@openzeppelin/contracts/access/Ownable.sol\":1638:1723  function owner() public view virtual returns (address) {... */\n    tag_9:\n      tag_33\n      tag_34\n      jump\t// in\n    tag_33:\n      mload(0x40)\n      tag_35\n      swap2\n      swap1\n      tag_36\n      jump\t// in\n    tag_35:\n      mload(0x40)\n      dup1\n      swap2\n      sub\n      swap1\n      return\n        /* \"zkp/ZKVerifier.sol\":2200:2651  function verifyAndRecordProof(... */\n    tag_10:\n      tag_37\n      0x04\n      dup1\n      calldatasize\n      sub\n      dup2\n      add\n      swap1\n      tag_38\n      swap2\n      swap1\n      tag_21\n      jump\t// in\n    tag_38:\n      tag_39\n      jump\t// in\n    tag_37:\n      mload(0x40)\n      tag_40\n      swap2\n      swap1\n      tag_18\n      jump\t// in\n    tag_40:\n      mload(0x40)\n      dup1\n      swap2\n      sub\n      swap1\n      return\n        /* \"@openzeppelin/contracts/access/Ownable.sol\":2543:2758  function transferOwnership(address newOwner) public virtual onlyOwner {... */\n    tag_11:\n      tag_41\n      0x04\n      dup1\n      calldatasize\n      sub\n      dup2\n      add\n      swap1\n      tag_42\n      swap2\n      swap1\n      tag_43\n      jump\t// in\n    tag_42:\n      tag_44\n      jump\t// in\n    tag_41:\n      stop\n        /* \"zkp/ZKVerifier.sol\":516:562  mapping(bytes32 => bool) public verifiedProofs */\n    tag_16:\n      mstore(0x20, 0x02)\n      dup1\n      0x00\n      mstore\n      keccak256(0x00, 0x40)\n      0x00\n      swap2\n      pop\n      sload\n      swap1\n      0x0100\n      exp\n      swap1\n      div\n      0xff\n      and\n      dup2\n      jump\t// out\n        /* \"zkp/ZKVerifier.sol\":1339:1941  function verifyProof(... */\n    tag_22:\n        /* \"zkp/ZKVerifier.sol\":1485:1489  bool */\n      0x00\n        /* \"@openzeppelin/contracts/utils/Pausable.sol\":1474:1493  _requireNotPaused() */\n      tag_46\n        /* \"@openzeppelin/contracts/utils/Pausable.sol\":1474:1491  _requireNotPaused */\n      tag_47\n        /* \"@openzeppelin/contracts/utils/Pausable.sol\":1474:1493  _requireNotPaused() */\n      jump\t// in\n    tag_46:\n        /* \"zkp/ZKVerifier.sol\":1510:1538  validateInputs(proof, input) */\n      tag_49\n        /* \"zkp/ZKVerifier.sol\":1525:1530  proof */\n      dup4\n        /* \"zkp/ZKVerifier.sol\":1532:1537  input */\n      dup4\n        /* \"zkp/ZKVerifier.sol\":1510:1524  validateInputs */\n      tag_50\n        /* \"zkp/ZKVerifier.sol\":1510:1538  validateInputs(proof, input) */\n      jump\t// in\n    tag_49:\n        /* \"zkp/ZKVerifier.sol\":1502:1567  require(validateInputs(proof, input), \"Invalid input parameters\") */\n      tag_51\n      jumpi\n      mload(0x40)\n      0x08c379a000000000000000000000000000000000000000000000000000000000\n      dup2\n      mstore\n      0x04\n      add\n      tag_52\n      swap1\n      tag_53\n      jump\t// in\n    tag_52:\n      mload(0x40)\n      dup1\n      swap2\n      sub\n      swap1\n      revert\n    tag_51:\n        /* \"zkp/ZKVerifier.sol\":1622:1638  G1Point memory a */\n      0x00\n        /* \"zkp/ZKVerifier.sol\":1641:1668  G1Point(proof[0], proof[1]) */\n      mload(0x40)\n      dup1\n      0x40\n      add\n      0x40\n      mstore\n      dup1\n        /* \"zkp/ZKVerifier.sol\":1649:1654  proof */\n      dup6\n        /* \"zkp/ZKVerifier.sol\":1655:1656  0 */\n      0x00\n        /* \"zkp/ZKVerifier.sol\":1649:1657  proof[0] */\n      0x08\n      dup2\n      lt\n      tag_54\n      jumpi\n      tag_55\n      tag_56\n      jump\t// in\n    tag_55:\n    tag_54:\n      0x20\n      mul\n      add\n      calldataload\n        /* \"zkp/ZKVerifier.sol\":1641:1668  G1Point(proof[0], proof[1]) */\n      dup2\n      mstore\n      0x20\n      add\n        /* \"zkp/ZKVerifier.sol\":1659:1664  proof */\n      dup6\n        /* \"zkp/ZKVerifier.sol\":1665:1666  1 */\n      0x01\n        /* \"zkp/ZKVerifier.sol\":1659:1667  proof[1] */\n      0x08\n      dup2\n      lt\n      tag_57\n      jumpi\n      tag_58\n      tag_56\n      jump\t// in\n    tag_58:\n    tag_57:\n      0x20\n      mul\n      add\n      calldataload\n        /* \"zkp/ZKVerifier.sol\":1641:1668  G1Point(proof[0], proof[1]) */\n      dup2\n      mstore\n      pop\n        /* \"zkp/ZKVerifier.sol\":1622:1668  G1Point memory a = G1Point(proof[0], proof[1]) */\n      swap1\n      pop\n        /* \"zkp/ZKVerifier.sol\":1679:1695  G2Point memory b */\n      0x00\n        /* \"zkp/ZKVerifier.sol\":1698:1787  G2Point(... */\n      mload(0x40)\n      dup1\n      0x40\n      add\n      0x40\n      mstore\n      dup1\n      mload(0x40)\n      dup1\n      0x40\n      add\n      0x40\n      mstore\n      dup1\n        /* \"zkp/ZKVerifier.sol\":1721:1726  proof */\n      dup9\n        /* \"zkp/ZKVerifier.sol\":1727:1728  2 */\n      0x02\n        /* \"zkp/ZKVerifier.sol\":1721:1729  proof[2] */\n      0x08\n      dup2\n      lt\n      tag_59\n      jumpi\n      tag_60\n      tag_56\n      jump\t// in\n    tag_60:\n    tag_59:\n      0x20\n      mul\n      add\n      calldataload\n        /* \"zkp/ZKVerifier.sol\":1698:1787  G2Point(... */\n      dup2\n      mstore\n      0x20\n      add\n        /* \"zkp/ZKVerifier.sol\":1731:1736  proof */\n      dup9\n        /* \"zkp/ZKVerifier.sol\":1737:1738  3 */\n      0x03\n        /* \"zkp/ZKVerifier.sol\":1731:1739  proof[3] */\n      0x08\n      dup2\n      lt\n      tag_61\n      jumpi\n      tag_62\n      tag_56\n      jump\t// in\n    tag_62:\n    tag_61:\n      0x20\n      mul\n      add\n      calldataload\n        /* \"zkp/ZKVerifier.sol\":1698:1787  G2Point(... */\n      dup2\n      mstore\n      pop\n      dup2\n      mstore\n      0x20\n      add\n      mload(0x40)\n      dup1\n      0x40\n      add\n      0x40\n      mstore\n      dup1\n        /* \"zkp/ZKVerifier.sol\":1757:1762  proof */\n      dup9\n        /* \"zkp/ZKVerifier.sol\":1763:1764  4 */\n      0x04\n        /* \"zkp/ZKVerifier.sol\":1757:1765  proof[4] */\n      0x08\n      dup2\n      lt\n      tag_63\n      jumpi\n      tag_64\n      tag_56\n      jump\t// in\n    tag_64:\n    tag_63:\n      0x20\n      mul\n      add\n      calldataload\n        /* \"zkp/ZKVerifier.sol\":1698:1787  G2Point(... */\n      dup2\n      mstore\n      0x20\n      add\n        /* \"zkp/ZKVerifier.sol\":1767:1772  proof */\n      dup9\n        /* \"zkp/ZKVerifier.sol\":1773:1774  5 */\n      0x05\n        /* \"zkp/ZKVerifier.sol\":1767:1775  proof[5] */\n      0x08\n      dup2\n      lt\n      tag_65\n      jumpi\n      tag_66\n      tag_56\n      jump\t// in\n    tag_66:\n    tag_65:\n      0x20\n      mul\n      add\n      calldataload\n        /* \"zkp/ZKVerifier.sol\":1698:1787  G2Point(... */\n      dup2\n      mstore\n      pop\n      dup2\n      mstore\n      pop\n        /* \"zkp/ZKVerifier.sol\":1679:1787  G2Point memory b = G2Point(... */\n      swap1\n      pop\n        /* \"zkp/ZKVerifier.sol\":1798:1814  G1Point memory c */\n      0x00\n        /* \"zkp/ZKVerifier.sol\":1817:1844  G1Point(proof[6], proof[7]) */\n      mload(0x40)\n      dup1\n      0x40\n      add\n      0x40\n      mstore\n      dup1\n        /* \"zkp/ZKVerifier.sol\":1825:1830  proof */\n      dup8\n        /* \"zkp/ZKVerifier.sol\":1831:1832  6 */\n      0x06\n        /* \"zkp/ZKVerifier.sol\":1825:1833  proof[6] */\n      0x08\n      dup2\n      lt\n      tag_67\n      jumpi\n      tag_68\n      tag_56\n      jump\t// in\n    tag_68:\n    tag_67:\n      0x20\n      mul\n      add\n      calldataload\n        /* \"zkp/ZKVerifier.sol\":1817:1844  G1Point(proof[6], proof[7]) */\n      dup2\n      mstore\n      0x20\n      add\n        /* \"zkp/ZKVerifier.sol\":1835:1840  proof */\n      dup8\n        /* \"zkp/ZKVerifier.sol\":1841:1842  7 */\n      0x07\n        /* \"zkp/ZKVerifier.sol\":1835:1843  proof[7] */\n      0x08\n      dup2\n      lt\n      tag_69\n      jumpi\n      tag_70\n      tag_56\n      jump\t// in\n    tag_70:\n    tag_69:\n      0x20\n      mul\n      add\n      calldataload\n        /* \"zkp/ZKVerifier.sol\":1817:1844  G1Point(proof[6], proof[7]) */\n      dup2\n      mstore\n      pop\n        /* \"zkp/ZKVerifier.sol\":1798:1844  G1Point memory c = G1Point(proof[6], proof[7]) */\n      swap1\n      pop\n        /* \"zkp/ZKVerifier.sol\":1896:1933  _verifyProofPoints(a, b, c, input[0]) */\n      tag_71\n        /* \"zkp/ZKVerifier.sol\":1915:1916  a */\n      dup4\n        /* \"zkp/ZKVerifier.sol\":1918:1919  b */\n      dup4\n        /* \"zkp/ZKVerifier.sol\":1921:1922  c */\n      dup4\n        /* \"zkp/ZKVerifier.sol\":1924:1929  input */\n      dup9\n        /* \"zkp/ZKVerifier.sol\":1930:1931  0 */\n      0x00\n        /* \"zkp/ZKVerifier.sol\":1924:1932  input[0] */\n      0x01\n      dup2\n      lt\n      tag_72\n      jumpi\n      tag_73\n      tag_56\n      jump\t// in\n    tag_73:\n    tag_72:\n      0x20\n      mul\n      add\n      calldataload\n        /* \"zkp/ZKVerifier.sol\":1896:1914  _verifyProofPoints */\n      tag_74\n        /* \"zkp/ZKVerifier.sol\":1896:1933  _verifyProofPoints(a, b, c, input[0]) */\n      jump\t// in\n    tag_71:\n        /* \"zkp/ZKVerifier.sol\":1889:1933  return _verifyProofPoints(a, b, c, input[0]) */\n      swap4\n      pop\n      pop\n      pop\n      pop\n        /* \"zkp/ZKVerifier.sol\":1339:1941  function verifyProof(... */\n      swap3\n      swap2\n      pop\n      pop\n      jump\t// out\n        /* \"zkp/ZKVerifier.sol\":5064:5131  function unpause() external onlyOwner {... */\n    tag_25:\n        /* \"@openzeppelin/contracts/access/Ownable.sol\":1531:1544  _checkOwner() */\n      tag_76\n        /* \"@openzeppelin/contracts/access/Ownable.sol\":1531:1542  _checkOwner */\n      tag_77\n        /* \"@openzeppelin/contracts/access/Ownable.sol\":1531:1544  _checkOwner() */\n      jump\t// in\n    tag_76:\n        /* \"zkp/ZKVerifier.sol\":5113:5123  _unpause() */\n      tag_79\n        /* \"zkp/ZKVerifier.sol\":5113:5121  _unpause */\n      tag_80\n        /* \"zkp/ZKVerifier.sol\":5113:5123  _unpause() */\n      jump\t// in\n    tag_79:\n        /* \"zkp/ZKVerifier.sol\":5064:5131  function unpause() external onlyOwner {... */\n      jump\t// out\n        /* \"@openzeppelin/contracts/utils/Pausable.sol\":1850:1934  function paused() public view virtual returns (bool) {... */\n    tag_27:\n        /* \"@openzeppelin/contracts/utils/Pausable.sol\":1897:1901  bool */\n      0x00\n        /* \"@openzeppelin/contracts/utils/Pausable.sol\":1920:1927  _paused */\n      dup1\n      0x14\n      swap1\n      sload\n      swap1\n      0x0100\n      exp\n      swap1\n      div\n      0xff\n      and\n        /* \"@openzeppelin/contracts/utils/Pausable.sol\":1913:1927  return _paused */\n      swap1\n      pop\n        /* \"@openzeppelin/contracts/utils/Pausable.sol\":1850:1934  function paused() public view virtual returns (bool) {... */\n      swap1\n      jump\t// out\n        /* \"@openzeppelin/contracts/access/Ownable.sol\":2293:2394  function renounceOwnership() public virtual onlyOwner {... */\n    tag_30:\n        /* \"@openzeppelin/contracts/access/Ownable.sol\":1531:1544  _checkOwner() */\n      tag_83\n        /* \"@openzeppelin/contracts/access/Ownable.sol\":1531:1542  _checkOwner */\n      tag_77\n        /* \"@openzeppelin/contracts/access/Ownable.sol\":1531:1544  _checkOwner() */\n      jump\t// in\n    tag_83:\n        /* \"@openzeppelin/contracts/access/Ownable.sol\":2357:2387  _transferOwnership(address(0)) */\n      tag_85\n        /* \"@openzeppelin/contracts/access/Ownable.sol\":2384:2385  0 */\n      0x00\n        /* \"@openzeppelin/contracts/access/Ownable.sol\":2357:2375  _transferOwnership */\n      tag_86\n        /* \"@openzeppelin/contracts/access/Ownable.sol\":2357:2387  _transferOwnership(address(0)) */\n      jump\t// in\n    tag_85:\n        /* \"@openzeppelin/contracts/access/Ownable.sol\":2293:2394  function renounceOwnership() public virtual onlyOwner {... */\n      jump\t// out\n        /* \"zkp/ZKVerifier.sol\":4993:5056  function pause() external onlyOwner {... */\n    tag_32:\n        /* \"@openzeppelin/contracts/access/Ownable.sol\":1531:1544  _checkOwner() */\n      tag_88\n        /* \"@openzeppelin/contracts/access/Ownable.sol\":1531:1542  _checkOwner */\n      tag_77\n        /* \"@openzeppelin/contracts/access/Ownable.sol\":1531:1544  _checkOwner() */\n      jump\t// in\n    tag_88:\n        /* \"zkp/ZKVerifier.sol\":5040:5048  _pause() */\n      tag_90\n        /* \"zkp/ZKVerifier.sol\":5040:5046  _pause */\n      tag_91\n        /* \"zkp/ZKVerifier.sol\":5040:5048  _pause() */\n      jump\t// in\n    tag_90:\n        /* \"zkp/ZKVerifier.sol\":4993:5056  function pause() external onlyOwner {... */\n      jump\t// out\n        /* \"@openzeppelin/contracts/access/Ownable.sol\":1638:1723  function owner() public view virtual returns (address) {... */\n    tag_34:\n        /* \"@openzeppelin/contracts/access/Ownable.sol\":1684:1691  address */\n      0x00\n        /* \"@openzeppelin/contracts/access/Ownable.sol\":1710:1716  _owner */\n      dup1\n      0x00\n      swap1\n      sload\n      swap1\n      0x0100\n      exp\n      swap1\n      div\n      0xffffffffffffffffffffffffffffffffffffffff\n      and\n        /* \"@openzeppelin/contracts/access/Ownable.sol\":1703:1716  return _owner */\n      swap1\n      pop\n        /* \"@openzeppelin/contracts/access/Ownable.sol\":1638:1723  function owner() public view virtual returns (address) {... */\n      swap1\n      jump\t// out\n        /* \"zkp/ZKVerifier.sol\":2200:2651  function verifyAndRecordProof(... */\n    tag_39:\n        /* \"zkp/ZKVerifier.sol\":2354:2358  bool */\n      0x00\n        /* \"@openzeppelin/contracts/utils/Pausable.sol\":1474:1493  _requireNotPaused() */\n      tag_94\n        /* \"@openzeppelin/contracts/utils/Pausable.sol\":1474:1491  _requireNotPaused */\n      tag_47\n        /* \"@openzeppelin/contracts/utils/Pausable.sol\":1474:1493  _requireNotPaused() */\n      jump\t// in\n    tag_94:\n        /* \"@openzeppelin/contracts/utils/ReentrancyGuard.sol\":2500:2521  _nonReentrantBefore() */\n      tag_96\n        /* \"@openzeppelin/contracts/utils/ReentrancyGuard.sol\":2500:2519  _nonReentrantBefore */\n      tag_97\n        /* \"@openzeppelin/contracts/utils/ReentrancyGuard.sol\":2500:2521  _nonReentrantBefore() */\n      jump\t// in\n    tag_96:\n        /* \"zkp/ZKVerifier.sol\":2371:2388  bytes32 proofHash */\n      0x00\n        /* \"zkp/ZKVerifier.sol\":2391:2422  generateProofHash(proof, input) */\n      tag_99\n        /* \"zkp/ZKVerifier.sol\":2409:2414  proof */\n      dup5\n        /* \"zkp/ZKVerifier.sol\":2416:2421  input */\n      dup5\n        /* \"zkp/ZKVerifier.sol\":2391:2408  generateProofHash */\n      tag_100\n        /* \"zkp/ZKVerifier.sol\":2391:2422  generateProofHash(proof, input) */\n      jump\t// in\n    tag_99:\n        /* \"zkp/ZKVerifier.sol\":2371:2422  bytes32 proofHash = generateProofHash(proof, input) */\n      swap1\n      pop\n        /* \"zkp/ZKVerifier.sol\":2433:2445  bool isValid */\n      0x00\n        /* \"zkp/ZKVerifier.sol\":2448:2452  this */\n      address\n        /* \"zkp/ZKVerifier.sol\":2448:2464  this.verifyProof */\n      0xffffffffffffffffffffffffffffffffffffffff\n      and\n      0x1b81f829\n        /* \"zkp/ZKVerifier.sol\":2465:2470  proof */\n      dup7\n        /* \"zkp/ZKVerifier.sol\":2472:2477  input */\n      dup7\n        /* \"zkp/ZKVerifier.sol\":2448:2478  this.verifyProof(proof, input) */\n      mload(0x40)\n      dup4\n      0xffffffff\n      and\n      0xe0\n      shl\n      dup2\n      mstore\n      0x04\n      add\n      tag_101\n      swap3\n      swap2\n      swap1\n      tag_102\n      jump\t// in\n    tag_101:\n      0x20\n      mload(0x40)\n      dup1\n      dup4\n      sub\n      dup2\n      dup7\n      gas\n      staticcall\n      iszero\n      dup1\n      iszero\n      tag_104\n      jumpi\n      returndatasize\n      0x00\n      dup1\n      returndatacopy\n      revert(0x00, returndatasize)\n    tag_104:\n      pop\n      pop\n      pop\n      pop\n      mload(0x40)\n      returndatasize\n      not(0x1f)\n      0x1f\n      dup3\n      add\n      and\n      dup3\n      add\n      dup1\n      0x40\n      mstore\n      pop\n      dup2\n      add\n      swap1\n      tag_105\n      swap2\n      swap1\n      tag_106\n      jump\t// in\n    tag_105:\n        /* \"zkp/ZKVerifier.sol\":2433:2478  bool isValid = this.verifyProof(proof, input) */\n      swap1\n      pop\n        /* \"zkp/ZKVerifier.sol\":2560:2567  isValid */\n      dup1\n        /* \"zkp/ZKVerifier.sol\":2532:2546  verifiedProofs */\n      0x02\n        /* \"zkp/ZKVerifier.sol\":2532:2557  verifiedProofs[proofHash] */\n      0x00\n        /* \"zkp/ZKVerifier.sol\":2547:2556  proofHash */\n      dup5\n        /* \"zkp/ZKVerifier.sol\":2532:2557  verifiedProofs[proofHash] */\n      dup2\n      mstore\n      0x20\n      add\n      swap1\n      dup2\n      mstore\n      0x20\n      add\n      0x00\n      keccak256\n      0x00\n        /* \"zkp/ZKVerifier.sol\":2532:2567  verifiedProofs[proofHash] = isValid */\n      0x0100\n      exp\n      dup2\n      sload\n      dup2\n      0xff\n      mul\n      not\n      and\n      swap1\n      dup4\n      iszero\n      iszero\n      mul\n      or\n      swap1\n      sstore\n      pop\n        /* \"zkp/ZKVerifier.sol\":2597:2606  proofHash */\n      dup2\n        /* \"zkp/ZKVerifier.sol\":2583:2616  ProofVerified(proofHash, isValid) */\n      0xf8ea4b84d199e84ff35249e26840ceba1b2a1711d50a01b47e98173701172180\n        /* \"zkp/ZKVerifier.sol\":2608:2615  isValid */\n      dup3\n        /* \"zkp/ZKVerifier.sol\":2583:2616  ProofVerified(proofHash, isValid) */\n      mload(0x40)\n      tag_107\n      swap2\n      swap1\n      tag_18\n      jump\t// in\n    tag_107:\n      mload(0x40)\n      dup1\n      swap2\n      sub\n      swap1\n      log2\n        /* \"zkp/ZKVerifier.sol\":2636:2643  isValid */\n      dup1\n        /* \"zkp/ZKVerifier.sol\":2629:2643  return isValid */\n      swap3\n      pop\n      pop\n      pop\n        /* \"@openzeppelin/contracts/utils/ReentrancyGuard.sol\":2542:2562  _nonReentrantAfter() */\n      tag_108\n        /* \"@openzeppelin/contracts/utils/ReentrancyGuard.sol\":2542:2560  _nonReentrantAfter */\n      tag_109\n        /* \"@openzeppelin/contracts/utils/ReentrancyGuard.sol\":2542:2562  _nonReentrantAfter() */\n      jump\t// in\n    tag_108:\n        /* \"zkp/ZKVerifier.sol\":2200:2651  function verifyAndRecordProof(... */\n      swap3\n      swap2\n      pop\n      pop\n      jump\t// out\n        /* \"@openzeppelin/contracts/access/Ownable.sol\":2543:2758  function transferOwnership(address newOwner) public virtual onlyOwner {... */\n    tag_44:\n        /* \"@openzeppelin/contracts/access/Ownable.sol\":1531:1544  _checkOwner() */\n      tag_111\n        /* \"@openzeppelin/contracts/access/Ownable.sol\":1531:1542  _checkOwner */\n      tag_77\n        /* \"@openzeppelin/contracts/access/Ownable.sol\":1531:1544  _checkOwner() */\n      jump\t// in\n    tag_111:\n        /* \"@openzeppelin/contracts/access/Ownable.sol\":2647:2648  0 */\n      0x00\n        /* \"@openzeppelin/contracts/access/Ownable.sol\":2627:2649  newOwner == address(0) */\n      0xffffffffffffffffffffffffffffffffffffffff\n      and\n        /* \"@openzeppelin/contracts/access/Ownable.sol\":2627:2635  newOwner */\n      dup2\n        /* \"@openzeppelin/contracts/access/Ownable.sol\":2627:2649  newOwner == address(0) */\n      0xffffffffffffffffffffffffffffffffffffffff\n      and\n      sub\n        /* \"@openzeppelin/contracts/access/Ownable.sol\":2623:2714  if (newOwner == address(0)) {... */\n      tag_113\n      jumpi\n        /* \"@openzeppelin/contracts/access/Ownable.sol\":2700:2701  0 */\n      0x00\n        /* \"@openzeppelin/contracts/access/Ownable.sol\":2672:2703  OwnableInvalidOwner(address(0)) */\n      mload(0x40)\n      0x1e4fbdf700000000000000000000000000000000000000000000000000000000\n      dup2\n      mstore\n      0x04\n      add\n      tag_114\n      swap2\n      swap1\n      tag_36\n      jump\t// in\n    tag_114:\n      mload(0x40)\n      dup1\n      swap2\n      sub\n      swap1\n      revert\n        /* \"@openzeppelin/contracts/access/Ownable.sol\":2623:2714  if (newOwner == address(0)) {... */\n    tag_113:\n        /* \"@openzeppelin/contracts/access/Ownable.sol\":2723:2751  _transferOwnership(newOwner) */\n      tag_115\n        /* \"@openzeppelin/contracts/access/Ownable.sol\":2742:2750  newOwner */\n      dup2\n        /* \"@openzeppelin/contracts/access/Ownable.sol\":2723:2741  _transferOwnership */\n      tag_86\n        /* \"@openzeppelin/contracts/access/Ownable.sol\":2723:2751  _transferOwnership(newOwner) */\n      jump\t// in\n    tag_115:\n        /* \"@openzeppelin/contracts/access/Ownable.sol\":2543:2758  function transferOwnership(address newOwner) public virtual onlyOwner {... */\n      pop\n      jump\t// out\n        /* \"@openzeppelin/contracts/utils/Pausable.sol\":2002:2130  function _requireNotPaused() internal view virtual {... */\n    tag_47:\n        /* \"@openzeppelin/contracts/utils/Pausable.sol\":2067:2075  paused() */\n      tag_117\n        /* \"@openzeppelin/contracts/utils/Pausable.sol\":2067:2073  paused */\n      tag_27\n        /* \"@openzeppelin/contracts/utils/Pausable.sol\":2067:2075  paused() */\n      jump\t// in\n    tag_117:\n        /* \"@openzeppelin/contracts/utils/Pausable.sol\":2063:2124  if (paused()) {... */\n      iszero\n      tag_118\n      jumpi\n        /* \"@openzeppelin/contracts/utils/Pausable.sol\":2098:2113  EnforcedPause() */\n      mload(0x40)\n      0xd93c066500000000000000000000000000000000000000000000000000000000\n      dup2\n      mstore\n      0x04\n      add\n      mload(0x40)\n      dup1\n      swap2\n      sub\n      swap1\n      revert\n        /* \"@openzeppelin/contracts/utils/Pausable.sol\":2063:2124  if (paused()) {... */\n    tag_118:\n        /* \"@openzeppelin/contracts/utils/Pausable.sol\":2002:2130  function _requireNotPaused() internal view virtual {... */\n      jump\t// out\n        /* \"zkp/ZKVerifier.sol\":3152:3479  function validateInputs(... */\n    tag_50:\n        /* \"zkp/ZKVerifier.sol\":3278:3282  bool */\n      0x00\n        /* \"zkp/ZKVerifier.sol\":3299:3305  uint i */\n      dup1\n        /* \"zkp/ZKVerifier.sol\":3308:3309  0 */\n      0x00\n        /* \"zkp/ZKVerifier.sol\":3299:3309  uint i = 0 */\n      swap1\n      pop\n        /* \"zkp/ZKVerifier.sol\":3295:3400  for(uint i = 0; i < proof.length; i++) {... */\n    tag_120:\n        /* \"zkp/ZKVerifier.sol\":3315:3327  proof.length */\n      0x08\n        /* \"zkp/ZKVerifier.sol\":3311:3312  i */\n      dup2\n        /* \"zkp/ZKVerifier.sol\":3311:3327  i < proof.length */\n      lt\n        /* \"zkp/ZKVerifier.sol\":3295:3400  for(uint i = 0; i < proof.length; i++) {... */\n      iszero\n      tag_121\n      jumpi\n        /* \"zkp/ZKVerifier.sol\":607:684  21888242871839275222246405745257275088548364400416034343698204186575808495617 */\n      0x30644e72e131a029b85045b68181585d2833e84879b9709143e1f593f0000001\n        /* \"zkp/ZKVerifier.sol\":3352:3357  proof */\n      dup5\n        /* \"zkp/ZKVerifier.sol\":3358:3359  i */\n      dup3\n        /* \"zkp/ZKVerifier.sol\":3352:3360  proof[i] */\n      0x08\n      dup2\n      lt\n      tag_123\n      jumpi\n      tag_124\n      tag_56\n      jump\t// in\n    tag_124:\n    tag_123:\n      0x20\n      mul\n      add\n      calldataload\n        /* \"zkp/ZKVerifier.sol\":3352:3374  proof[i] >= FIELD_SIZE */\n      lt\n        /* \"zkp/ZKVerifier.sol\":3349:3388  if(proof[i] >= FIELD_SIZE) return false */\n      tag_125\n      jumpi\n        /* \"zkp/ZKVerifier.sol\":3383:3388  false */\n      0x00\n        /* \"zkp/ZKVerifier.sol\":3376:3388  return false */\n      swap2\n      pop\n      pop\n      jump(tag_119)\n        /* \"zkp/ZKVerifier.sol\":3349:3388  if(proof[i] >= FIELD_SIZE) return false */\n    tag_125:\n        /* \"zkp/ZKVerifier.sol\":3329:3332  i++ */\n      dup1\n      dup1\n      0x01\n      add\n      swap2\n      pop\n      pop\n        /* \"zkp/ZKVerifier.sol\":3295:3400  for(uint i = 0; i < proof.length; i++) {... */\n      jump(tag_120)\n    tag_121:\n      pop\n        /* \"zkp/ZKVerifier.sol\":607:684  21888242871839275222246405745257275088548364400416034343698204186575808495617 */\n      0x30644e72e131a029b85045b68181585d2833e84879b9709143e1f593f0000001\n        /* \"zkp/ZKVerifier.sol\":3413:3418  input */\n      dup3\n        /* \"zkp/ZKVerifier.sol\":3419:3420  0 */\n      0x00\n        /* \"zkp/ZKVerifier.sol\":3413:3421  input[0] */\n      0x01\n      dup2\n      lt\n      tag_126\n      jumpi\n      tag_127\n      tag_56\n      jump\t// in\n    tag_127:\n    tag_126:\n      0x20\n      mul\n      add\n      calldataload\n        /* \"zkp/ZKVerifier.sol\":3413:3435  input[0] >= FIELD_SIZE */\n      lt\n        /* \"zkp/ZKVerifier.sol\":3410:3449  if(input[0] >= FIELD_SIZE) return false */\n      tag_128\n      jumpi\n        /* \"zkp/ZKVerifier.sol\":3444:3449  false */\n      0x00\n        /* \"zkp/ZKVerifier.sol\":3437:3449  return false */\n      swap1\n      pop\n      jump(tag_119)\n        /* \"zkp/ZKVerifier.sol\":3410:3449  if(input[0] >= FIELD_SIZE) return false */\n    tag_128:\n        /* \"zkp/ZKVerifier.sol\":3467:3471  true */\n      0x01\n        /* \"zkp/ZKVerifier.sol\":3460:3471  return true */\n      swap1\n      pop\n        /* \"zkp/ZKVerifier.sol\":3152:3479  function validateInputs(... */\n    tag_119:\n      swap3\n      swap2\n      pop\n      pop\n      jump\t// out\n        /* \"zkp/ZKVerifier.sol\":2731:3065  function _verifyProofPoints(... */\n    tag_74:\n        /* \"zkp/ZKVerifier.sol\":2894:2898  bool */\n      0x00\n        /* \"zkp/ZKVerifier.sol\":2916:2930  isOnCurveG1(a) */\n      tag_130\n        /* \"zkp/ZKVerifier.sol\":2928:2929  a */\n      dup6\n        /* \"zkp/ZKVerifier.sol\":2916:2927  isOnCurveG1 */\n      tag_131\n        /* \"zkp/ZKVerifier.sol\":2916:2930  isOnCurveG1(a) */\n      jump\t// in\n    tag_130:\n        /* \"zkp/ZKVerifier.sol\":2915:2930  !isOnCurveG1(a) */\n      iszero\n        /* \"zkp/ZKVerifier.sol\":2915:2949  !isOnCurveG1(a) || !isOnCurveG2(b) */\n      dup1\n      tag_132\n      jumpi\n      pop\n        /* \"zkp/ZKVerifier.sol\":2935:2949  isOnCurveG2(b) */\n      tag_133\n        /* \"zkp/ZKVerifier.sol\":2947:2948  b */\n      dup5\n        /* \"zkp/ZKVerifier.sol\":2935:2946  isOnCurveG2 */\n      tag_134\n        /* \"zkp/ZKVerifier.sol\":2935:2949  isOnCurveG2(b) */\n      jump\t// in\n    tag_133:\n        /* \"zkp/ZKVerifier.sol\":2934:2949  !isOnCurveG2(b) */\n      iszero\n        /* \"zkp/ZKVerifier.sol\":2915:2949  !isOnCurveG1(a) || !isOnCurveG2(b) */\n    tag_132:\n        /* \"zkp/ZKVerifier.sol\":2915:2968  !isOnCurveG1(a) || !isOnCurveG2(b) || !isOnCurveG1(c) */\n      dup1\n      tag_135\n      jumpi\n      pop\n        /* \"zkp/ZKVerifier.sol\":2954:2968  isOnCurveG1(c) */\n      tag_136\n        /* \"zkp/ZKVerifier.sol\":2966:2967  c */\n      dup4\n        /* \"zkp/ZKVerifier.sol\":2954:2965  isOnCurveG1 */\n      tag_131\n        /* \"zkp/ZKVerifier.sol\":2954:2968  isOnCurveG1(c) */\n      jump\t// in\n    tag_136:\n        /* \"zkp/ZKVerifier.sol\":2953:2968  !isOnCurveG1(c) */\n      iszero\n        /* \"zkp/ZKVerifier.sol\":2915:2968  !isOnCurveG1(a) || !isOnCurveG2(b) || !isOnCurveG1(c) */\n    tag_135:\n        /* \"zkp/ZKVerifier.sol\":2911:3009  if (!isOnCurveG1(a) || !isOnCurveG2(b) || !isOnCurveG1(c)) {... */\n      iszero\n      tag_137\n      jumpi\n        /* \"zkp/ZKVerifier.sol\":2992:2997  false */\n      0x00\n        /* \"zkp/ZKVerifier.sol\":2985:2997  return false */\n      swap1\n      pop\n      jump(tag_129)\n        /* \"zkp/ZKVerifier.sol\":2911:3009  if (!isOnCurveG1(a) || !isOnCurveG2(b) || !isOnCurveG1(c)) {... */\n    tag_137:\n        /* \"zkp/ZKVerifier.sol\":3028:3057  verifyPairing(a, b, c, input) */\n      tag_138\n        /* \"zkp/ZKVerifier.sol\":3042:3043  a */\n      dup6\n        /* \"zkp/ZKVerifier.sol\":3045:3046  b */\n      dup6\n        /* \"zkp/ZKVerifier.sol\":3048:3049  c */\n      dup6\n        /* \"zkp/ZKVerifier.sol\":3051:3056  input */\n      dup6\n        /* \"zkp/ZKVerifier.sol\":3028:3041  verifyPairing */\n      tag_139\n        /* \"zkp/ZKVerifier.sol\":3028:3057  verifyPairing(a, b, c, input) */\n      jump\t// in\n    tag_138:\n        /* \"zkp/ZKVerifier.sol\":3021:3057  return verifyPairing(a, b, c, input) */\n      swap1\n      pop\n        /* \"zkp/ZKVerifier.sol\":2731:3065  function _verifyProofPoints(... */\n    tag_129:\n      swap5\n      swap4\n      pop\n      pop\n      pop\n      pop\n      jump\t// out\n        /* \"@openzeppelin/contracts/access/Ownable.sol\":1796:1958  function _checkOwner() internal view virtual {... */\n    tag_77:\n        /* \"@openzeppelin/contracts/access/Ownable.sol\":1866:1878  _msgSender() */\n      tag_141\n        /* \"@openzeppelin/contracts/access/Ownable.sol\":1866:1876  _msgSender */\n      tag_142\n        /* \"@openzeppelin/contracts/access/Ownable.sol\":1866:1878  _msgSender() */\n      jump\t// in\n    tag_141:\n        /* \"@openzeppelin/contracts/access/Ownable.sol\":1855:1878  owner() != _msgSender() */\n      0xffffffffffffffffffffffffffffffffffffffff\n      and\n        /* \"@openzeppelin/contracts/access/Ownable.sol\":1855:1862  owner() */\n      tag_143\n        /* \"@openzeppelin/contracts/access/Ownable.sol\":1855:1860  owner */\n      tag_34\n        /* \"@openzeppelin/contracts/access/Ownable.sol\":1855:1862  owner() */\n      jump\t// in\n    tag_143:\n        /* \"@openzeppelin/contracts/access/Ownable.sol\":1855:1878  owner() != _msgSender() */\n      0xffffffffffffffffffffffffffffffffffffffff\n      and\n      eq\n        /* \"@openzeppelin/contracts/access/Ownable.sol\":1851:1952  if (owner() != _msgSender()) {... */\n      tag_144\n      jumpi\n        /* \"@openzeppelin/contracts/access/Ownable.sol\":1928:1940  _msgSender() */\n      tag_145\n        /* \"@openzeppelin/contracts/access/Ownable.sol\":1928:1938  _msgSender */\n      tag_142\n        /* \"@openzeppelin/contracts/access/Ownable.sol\":1928:1940  _msgSender() */\n      jump\t// in\n    tag_145:\n        /* \"@openzeppelin/contracts/access/Ownable.sol\":1901:1941  OwnableUnauthorizedAccount(_msgSender()) */\n      mload(0x40)\n      0x118cdaa700000000000000000000000000000000000000000000000000000000\n      dup2\n      mstore\n      0x04\n      add\n      tag_146\n      swap2\n      swap1\n      tag_36\n      jump\t// in\n    tag_146:\n      mload(0x40)\n      dup1\n      swap2\n      sub\n      swap1\n      revert\n        /* \"@openzeppelin/contracts/access/Ownable.sol\":1851:1952  if (owner() != _msgSender()) {... */\n    tag_144:\n        /* \"@openzeppelin/contracts/access/Ownable.sol\":1796:1958  function _checkOwner() internal view virtual {... */\n      jump\t// out\n        /* \"@openzeppelin/contracts/utils/Pausable.sol\":2710:2827  function _unpause() internal virtual whenPaused {... */\n    tag_80:\n        /* \"@openzeppelin/contracts/utils/Pausable.sol\":1721:1737  _requirePaused() */\n      tag_148\n        /* \"@openzeppelin/contracts/utils/Pausable.sol\":1721:1735  _requirePaused */\n      tag_149\n        /* \"@openzeppelin/contracts/utils/Pausable.sol\":1721:1737  _requirePaused() */\n      jump\t// in\n    tag_148:\n        /* \"@openzeppelin/contracts/utils/Pausable.sol\":2778:2783  false */\n      0x00\n        /* \"@openzeppelin/contracts/utils/Pausable.sol\":2768:2775  _paused */\n      dup1\n      0x14\n        /* \"@openzeppelin/contracts/utils/Pausable.sol\":2768:2783  _paused = false */\n      0x0100\n      exp\n      dup2\n      sload\n      dup2\n      0xff\n      mul\n      not\n      and\n      swap1\n      dup4\n      iszero\n      iszero\n      mul\n      or\n      swap1\n      sstore\n      pop\n        /* \"@openzeppelin/contracts/utils/Pausable.sol\":2798:2820  Unpaused(_msgSender()) */\n      0x5db9ee0a495bf2e6ff9c91a7834c1ba4fdd244a5e8aa4e537bd38aeae4b073aa\n        /* \"@openzeppelin/contracts/utils/Pausable.sol\":2807:2819  _msgSender() */\n      tag_151\n        /* \"@openzeppelin/contracts/utils/Pausable.sol\":2807:2817  _msgSender */\n      tag_142\n        /* \"@openzeppelin/contracts/utils/Pausable.sol\":2807:2819  _msgSender() */\n      jump\t// in\n    tag_151:\n        /* \"@openzeppelin/contracts/utils/Pausable.sol\":2798:2820  Unpaused(_msgSender()) */\n      mload(0x40)\n      tag_152\n      swap2\n      swap1\n      tag_36\n      jump\t// in\n    tag_152:\n      mload(0x40)\n      dup1\n      swap2\n      sub\n      swap1\n      log1\n        /* \"@openzeppelin/contracts/utils/Pausable.sol\":2710:2827  function _unpause() internal virtual whenPaused {... */\n      jump\t// out\n        /* \"@openzeppelin/contracts/access/Ownable.sol\":2912:3099  function _transferOwnership(address newOwner) internal virtual {... */\n    tag_86:\n        /* \"@openzeppelin/contracts/access/Ownable.sol\":2985:3001  address oldOwner */\n      0x00\n        /* \"@openzeppelin/contracts/access/Ownable.sol\":3004:3010  _owner */\n      dup1\n      0x00\n      swap1\n      sload\n      swap1\n      0x0100\n      exp\n      swap1\n      div\n      0xffffffffffffffffffffffffffffffffffffffff\n      and\n        /* \"@openzeppelin/contracts/access/Ownable.sol\":2985:3010  address oldOwner = _owner */\n      swap1\n      pop\n        /* \"@openzeppelin/contracts/access/Ownable.sol\":3029:3037  newOwner */\n      dup2\n        /* \"@openzeppelin/contracts/access/Ownable.sol\":3020:3026  _owner */\n      0x00\n      dup1\n        /* \"@openzeppelin/contracts/access/Ownable.sol\":3020:3037  _owner = newOwner */\n      0x0100\n      exp\n      dup2\n      sload\n      dup2\n      0xffffffffffffffffffffffffffffffffffffffff\n      mul\n      not\n      and\n      swap1\n      dup4\n      0xffffffffffffffffffffffffffffffffffffffff\n      and\n      mul\n      or\n      swap1\n      sstore\n      pop\n        /* \"@openzeppelin/contracts/access/Ownable.sol\":3083:3091  newOwner */\n      dup2\n        /* \"@openzeppelin/contracts/access/Ownable.sol\":3052:3092  OwnershipTransferred(oldOwner, newOwner) */\n      0xffffffffffffffffffffffffffffffffffffffff\n      and\n        /* \"@openzeppelin/contracts/access/Ownable.sol\":3073:3081  oldOwner */\n      dup2\n        /* \"@openzeppelin/contracts/access/Ownable.sol\":3052:3092  OwnershipTransferred(oldOwner, newOwner) */\n      0xffffffffffffffffffffffffffffffffffffffff\n      and\n      0x8be0079c531659141344cd1fd0a4f28419497f9722a3daafe3b4186f6b6457e0\n      mload(0x40)\n      mload(0x40)\n      dup1\n      swap2\n      sub\n      swap1\n      log3\n        /* \"@openzeppelin/contracts/access/Ownable.sol\":2975:3099  {... */\n      pop\n        /* \"@openzeppelin/contracts/access/Ownable.sol\":2912:3099  function _transferOwnership(address newOwner) internal virtual {... */\n      pop\n      jump\t// out\n        /* \"@openzeppelin/contracts/utils/Pausable.sol\":2463:2578  function _pause() internal virtual whenNotPaused {... */\n    tag_91:\n        /* \"@openzeppelin/contracts/utils/Pausable.sol\":1474:1493  _requireNotPaused() */\n      tag_155\n        /* \"@openzeppelin/contracts/utils/Pausable.sol\":1474:1491  _requireNotPaused */\n      tag_47\n        /* \"@openzeppelin/contracts/utils/Pausable.sol\":1474:1493  _requireNotPaused() */\n      jump\t// in\n    tag_155:\n        /* \"@openzeppelin/contracts/utils/Pausable.sol\":2532:2536  true */\n      0x01\n        /* \"@openzeppelin/contracts/utils/Pausable.sol\":2522:2529  _paused */\n      0x00\n      0x14\n        /* \"@openzeppelin/contracts/utils/Pausable.sol\":2522:2536  _paused = true */\n      0x0100\n      exp\n      dup2\n      sload\n      dup2\n      0xff\n      mul\n      not\n      and\n      swap1\n      dup4\n      iszero\n      iszero\n      mul\n      or\n      swap1\n      sstore\n      pop\n        /* \"@openzeppelin/contracts/utils/Pausable.sol\":2551:2571  Paused(_msgSender()) */\n      0x62e78cea01bee320cd4e420270b5ea74000d11b0c9f74754ebdbfc544b05a258\n        /* \"@openzeppelin/contracts/utils/Pausable.sol\":2558:2570  _msgSender() */\n      tag_157\n        /* \"@openzeppelin/contracts/utils/Pausable.sol\":2558:2568  _msgSender */\n      tag_142\n        /* \"@openzeppelin/contracts/utils/Pausable.sol\":2558:2570  _msgSender() */\n      jump\t// in\n    tag_157:\n        /* \"@openzeppelin/contracts/utils/Pausable.sol\":2551:2571  Paused(_msgSender()) */\n      mload(0x40)\n      tag_158\n      swap2\n      swap1\n      tag_36\n      jump\t// in\n    tag_158:\n      mload(0x40)\n      dup1\n      swap2\n      sub\n      swap1\n      log1\n        /* \"@openzeppelin/contracts/utils/Pausable.sol\":2463:2578  function _pause() internal virtual whenNotPaused {... */\n      jump\t// out\n        /* \"@openzeppelin/contracts/utils/ReentrancyGuard.sol\":2575:2882  function _nonReentrantBefore() private {... */\n    tag_97:\n        /* \"@openzeppelin/contracts/utils/ReentrancyGuard.sol\":1899:1900  2 */\n      0x02\n        /* \"@openzeppelin/contracts/utils/ReentrancyGuard.sol\":2702:2709  _status */\n      sload(0x01)\n        /* \"@openzeppelin/contracts/utils/ReentrancyGuard.sol\":2702:2720  _status == ENTERED */\n      sub\n        /* \"@openzeppelin/contracts/utils/ReentrancyGuard.sol\":2698:2784  if (_status == ENTERED) {... */\n      tag_160\n      jumpi\n        /* \"@openzeppelin/contracts/utils/ReentrancyGuard.sol\":2743:2773  ReentrancyGuardReentrantCall() */\n      mload(0x40)\n      0x3ee5aeb500000000000000000000000000000000000000000000000000000000\n      dup2\n      mstore\n      0x04\n      add\n      mload(0x40)\n      dup1\n      swap2\n      sub\n      swap1\n      revert\n        /* \"@openzeppelin/contracts/utils/ReentrancyGuard.sol\":2698:2784  if (_status == ENTERED) {... */\n    tag_160:\n        /* \"@openzeppelin/contracts/utils/ReentrancyGuard.sol\":1899:1900  2 */\n      0x02\n        /* \"@openzeppelin/contracts/utils/ReentrancyGuard.sol\":2858:2865  _status */\n      0x01\n        /* \"@openzeppelin/contracts/utils/ReentrancyGuard.sol\":2858:2875  _status = ENTERED */\n      dup2\n      swap1\n      sstore\n      pop\n        /* \"@openzeppelin/contracts/utils/ReentrancyGuard.sol\":2575:2882  function _nonReentrantBefore() private {... */\n      jump\t// out\n        /* \"zkp/ZKVerifier.sol\":3572:3777  function generateProofHash(... */\n    tag_100:\n        /* \"zkp/ZKVerifier.sol\":3701:3708  bytes32 */\n      0x00\n        /* \"zkp/ZKVerifier.sol\":3755:3760  proof */\n      dup3\n        /* \"zkp/ZKVerifier.sol\":3762:3767  input */\n      dup3\n        /* \"zkp/ZKVerifier.sol\":3738:3768  abi.encodePacked(proof, input) */\n      add(0x20, mload(0x40))\n      tag_162\n      swap3\n      swap2\n      swap1\n      tag_163\n      jump\t// in\n    tag_162:\n      mload(0x40)\n      0x20\n      dup2\n      dup4\n      sub\n      sub\n      dup2\n      mstore\n      swap1\n      0x40\n      mstore\n        /* \"zkp/ZKVerifier.sol\":3728:3769  keccak256(abi.encodePacked(proof, input)) */\n      dup1\n      mload\n      swap1\n      0x20\n      add\n      keccak256\n        /* \"zkp/ZKVerifier.sol\":3721:3769  return keccak256(abi.encodePacked(proof, input)) */\n      swap1\n      pop\n        /* \"zkp/ZKVerifier.sol\":3572:3777  function generateProofHash(... */\n      swap3\n      swap2\n      pop\n      pop\n      jump\t// out\n        /* \"@openzeppelin/contracts/utils/ReentrancyGuard.sol\":2888:3096  function _nonReentrantAfter() private {... */\n    tag_109:\n        /* \"@openzeppelin/contracts/utils/ReentrancyGuard.sol\":1857:1858  1 */\n      0x01\n        /* \"@openzeppelin/contracts/utils/ReentrancyGuard.sol\":3068:3075  _status */\n      dup1\n        /* \"@openzeppelin/contracts/utils/ReentrancyGuard.sol\":3068:3089  _status = NOT_ENTERED */\n      dup2\n      swap1\n      sstore\n      pop\n        /* \"@openzeppelin/contracts/utils/ReentrancyGuard.sol\":2888:3096  function _nonReentrantAfter() private {... */\n      jump\t// out\n        /* \"zkp/ZKVerifier.sol\":3849:4178  function isOnCurveG1(G1Point memory point) internal pure returns (bool) {... */\n    tag_131:\n        /* \"zkp/ZKVerifier.sol\":3915:3919  bool */\n      0x00\n        /* \"zkp/ZKVerifier.sol\":3932:3941  uint256 p */\n      dup1\n        /* \"zkp/ZKVerifier.sol\":607:684  21888242871839275222246405745257275088548364400416034343698204186575808495617 */\n      0x30644e72e131a029b85045b68181585d2833e84879b9709143e1f593f0000001\n        /* \"zkp/ZKVerifier.sol\":3932:3954  uint256 p = FIELD_SIZE */\n      swap1\n      pop\n        /* \"zkp/ZKVerifier.sol\":3965:3974  uint256 x */\n      0x00\n        /* \"zkp/ZKVerifier.sol\":3977:3982  point */\n      dup4\n        /* \"zkp/ZKVerifier.sol\":3977:3984  point.X */\n      0x00\n      add\n      mload\n        /* \"zkp/ZKVerifier.sol\":3965:3984  uint256 x = point.X */\n      swap1\n      pop\n        /* \"zkp/ZKVerifier.sol\":3995:4004  uint256 y */\n      0x00\n        /* \"zkp/ZKVerifier.sol\":4007:4012  point */\n      dup5\n        /* \"zkp/ZKVerifier.sol\":4007:4014  point.Y */\n      0x20\n      add\n      mload\n        /* \"zkp/ZKVerifier.sol\":3995:4014  uint256 y = point.Y */\n      swap1\n      pop\n        /* \"zkp/ZKVerifier.sol\":4035:4046  uint256 lhs */\n      0x00\n        /* \"zkp/ZKVerifier.sol\":4062:4063  p */\n      dup4\n        /* \"zkp/ZKVerifier.sol\":4049:4064  mulmod(y, y, p) */\n      dup1\n      tag_166\n      jumpi\n      tag_167\n      tag_168\n      jump\t// in\n    tag_167:\n    tag_166:\n        /* \"zkp/ZKVerifier.sol\":4059:4060  y */\n      dup3\n        /* \"zkp/ZKVerifier.sol\":4056:4057  y */\n      dup4\n        /* \"zkp/ZKVerifier.sol\":4049:4064  mulmod(y, y, p) */\n      mulmod\n        /* \"zkp/ZKVerifier.sol\":4035:4064  uint256 lhs = mulmod(y, y, p) */\n      swap1\n      pop\n        /* \"zkp/ZKVerifier.sol\":4075:4086  uint256 rhs */\n      0x00\n        /* \"zkp/ZKVerifier.sol\":4130:4131  p */\n      dup5\n        /* \"zkp/ZKVerifier.sol\":4089:4132  addmod(mulmod(mulmod(x, x, p), x, p), 3, p) */\n      dup1\n      tag_169\n      jumpi\n      tag_170\n      tag_168\n      jump\t// in\n    tag_170:\n    tag_169:\n        /* \"zkp/ZKVerifier.sol\":4127:4128  3 */\n      0x03\n        /* \"zkp/ZKVerifier.sol\":4123:4124  p */\n      dup7\n        /* \"zkp/ZKVerifier.sol\":4096:4125  mulmod(mulmod(x, x, p), x, p) */\n      dup1\n      tag_171\n      jumpi\n      tag_172\n      tag_168\n      jump\t// in\n    tag_172:\n    tag_171:\n        /* \"zkp/ZKVerifier.sol\":4120:4121  x */\n      dup7\n        /* \"zkp/ZKVerifier.sol\":4116:4117  p */\n      dup9\n        /* \"zkp/ZKVerifier.sol\":4103:4118  mulmod(x, x, p) */\n      dup1\n      tag_173\n      jumpi\n      tag_174\n      tag_168\n      jump\t// in\n    tag_174:\n    tag_173:\n        /* \"zkp/ZKVerifier.sol\":4113:4114  x */\n      dup9\n        /* \"zkp/ZKVerifier.sol\":4110:4111  x */\n      dup10\n        /* \"zkp/ZKVerifier.sol\":4103:4118  mulmod(x, x, p) */\n      mulmod\n        /* \"zkp/ZKVerifier.sol\":4096:4125  mulmod(mulmod(x, x, p), x, p) */\n      mulmod\n        /* \"zkp/ZKVerifier.sol\":4089:4132  addmod(mulmod(mulmod(x, x, p), x, p), 3, p) */\n      addmod\n        /* \"zkp/ZKVerifier.sol\":4075:4132  uint256 rhs = addmod(mulmod(mulmod(x, x, p), x, p), 3, p) */\n      swap1\n      pop\n        /* \"zkp/ZKVerifier.sol\":4167:4170  rhs */\n      dup1\n        /* \"zkp/ZKVerifier.sol\":4160:4163  lhs */\n      dup3\n        /* \"zkp/ZKVerifier.sol\":4160:4170  lhs == rhs */\n      eq\n        /* \"zkp/ZKVerifier.sol\":4153:4170  return lhs == rhs */\n      swap6\n      pop\n      pop\n      pop\n      pop\n      pop\n      pop\n        /* \"zkp/ZKVerifier.sol\":3849:4178  function isOnCurveG1(G1Point memory point) internal pure returns (bool) {... */\n      swap2\n      swap1\n      pop\n      jump\t// out\n        /* \"zkp/ZKVerifier.sol\":4250:4502  function isOnCurveG2(G2Point memory point) internal pure returns (bool) {... */\n    tag_134:\n        /* \"zkp/ZKVerifier.sol\":4316:4320  bool */\n      0x00\n        /* \"zkp/ZKVerifier.sol\":607:684  21888242871839275222246405745257275088548364400416034343698204186575808495617 */\n      0x30644e72e131a029b85045b68181585d2833e84879b9709143e1f593f0000001\n        /* \"zkp/ZKVerifier.sol\":4340:4345  point */\n      dup3\n        /* \"zkp/ZKVerifier.sol\":4340:4347  point.X */\n      0x00\n      add\n      mload\n        /* \"zkp/ZKVerifier.sol\":4348:4349  0 */\n      0x00\n        /* \"zkp/ZKVerifier.sol\":4340:4350  point.X[0] */\n      0x02\n      dup2\n      lt\n      tag_176\n      jumpi\n      tag_177\n      tag_56\n      jump\t// in\n    tag_177:\n    tag_176:\n      0x20\n      mul\n      add\n      mload\n        /* \"zkp/ZKVerifier.sol\":4340:4363  point.X[0] < FIELD_SIZE */\n      lt\n        /* \"zkp/ZKVerifier.sol\":4340:4407  point.X[0] < FIELD_SIZE && ... */\n      dup1\n      iszero\n      tag_178\n      jumpi\n      pop\n        /* \"zkp/ZKVerifier.sol\":607:684  21888242871839275222246405745257275088548364400416034343698204186575808495617 */\n      0x30644e72e131a029b85045b68181585d2833e84879b9709143e1f593f0000001\n        /* \"zkp/ZKVerifier.sol\":4384:4389  point */\n      dup3\n        /* \"zkp/ZKVerifier.sol\":4384:4391  point.X */\n      0x00\n      add\n      mload\n        /* \"zkp/ZKVerifier.sol\":4392:4393  1 */\n      0x01\n        /* \"zkp/ZKVerifier.sol\":4384:4394  point.X[1] */\n      0x02\n      dup2\n      lt\n      tag_179\n      jumpi\n      tag_180\n      tag_56\n      jump\t// in\n    tag_180:\n    tag_179:\n      0x20\n      mul\n      add\n      mload\n        /* \"zkp/ZKVerifier.sol\":4384:4407  point.X[1] < FIELD_SIZE */\n      lt\n        /* \"zkp/ZKVerifier.sol\":4340:4407  point.X[0] < FIELD_SIZE && ... */\n    tag_178:\n        /* \"zkp/ZKVerifier.sol\":4340:4450  point.X[0] < FIELD_SIZE && ... */\n      dup1\n      iszero\n      tag_181\n      jumpi\n      pop\n        /* \"zkp/ZKVerifier.sol\":607:684  21888242871839275222246405745257275088548364400416034343698204186575808495617 */\n      0x30644e72e131a029b85045b68181585d2833e84879b9709143e1f593f0000001\n        /* \"zkp/ZKVerifier.sol\":4427:4432  point */\n      dup3\n        /* \"zkp/ZKVerifier.sol\":4427:4434  point.Y */\n      0x20\n      add\n      mload\n        /* \"zkp/ZKVerifier.sol\":4435:4436  0 */\n      0x00\n        /* \"zkp/ZKVerifier.sol\":4427:4437  point.Y[0] */\n      0x02\n      dup2\n      lt\n      tag_182\n      jumpi\n      tag_183\n      tag_56\n      jump\t// in\n    tag_183:\n    tag_182:\n      0x20\n      mul\n      add\n      mload\n        /* \"zkp/ZKVerifier.sol\":4427:4450  point.Y[0] < FIELD_SIZE */\n      lt\n        /* \"zkp/ZKVerifier.sol\":4340:4450  point.X[0] < FIELD_SIZE && ... */\n    tag_181:\n        /* \"zkp/ZKVerifier.sol\":4340:4494  point.X[0] < FIELD_SIZE && ... */\n      dup1\n      iszero\n      tag_184\n      jumpi\n      pop\n        /* \"zkp/ZKVerifier.sol\":607:684  21888242871839275222246405745257275088548364400416034343698204186575808495617 */\n      0x30644e72e131a029b85045b68181585d2833e84879b9709143e1f593f0000001\n        /* \"zkp/ZKVerifier.sol\":4471:4476  point */\n      dup3\n        /* \"zkp/ZKVerifier.sol\":4471:4478  point.Y */\n      0x20\n      add\n      mload\n        /* \"zkp/ZKVerifier.sol\":4479:4480  1 */\n      0x01\n        /* \"zkp/ZKVerifier.sol\":4471:4481  point.Y[1] */\n      0x02\n      dup2\n      lt\n      tag_185\n      jumpi\n      tag_186\n      tag_56\n      jump\t// in\n    tag_186:\n    tag_185:\n      0x20\n      mul\n      add\n      mload\n        /* \"zkp/ZKVerifier.sol\":4471:4494  point.Y[1] < FIELD_SIZE */\n      lt\n        /* \"zkp/ZKVerifier.sol\":4340:4494  point.X[0] < FIELD_SIZE && ... */\n    tag_184:\n        /* \"zkp/ZKVerifier.sol\":4333:4494  return point.X[0] < FIELD_SIZE && ... */\n      swap1\n      pop\n        /* \"zkp/ZKVerifier.sol\":4250:4502  function isOnCurveG2(G2Point memory point) internal pure returns (bool) {... */\n      swap2\n      swap1\n      pop\n      jump\t// out\n        /* \"zkp/ZKVerifier.sol\":4568:4961  function verifyPairing(... */\n    tag_139:\n        /* \"zkp/ZKVerifier.sol\":4726:4730  bool */\n      0x00\n        /* \"zkp/ZKVerifier.sol\":4743:4762  bytes32 pairingHash */\n      dup1\n        /* \"zkp/ZKVerifier.sol\":4806:4807  a */\n      dup6\n        /* \"zkp/ZKVerifier.sol\":4806:4809  a.X */\n      0x00\n      add\n      mload\n        /* \"zkp/ZKVerifier.sol\":4811:4812  a */\n      dup7\n        /* \"zkp/ZKVerifier.sol\":4811:4814  a.Y */\n      0x20\n      add\n      mload\n        /* \"zkp/ZKVerifier.sol\":4829:4830  b */\n      dup7\n        /* \"zkp/ZKVerifier.sol\":4829:4832  b.X */\n      0x00\n      add\n      mload\n        /* \"zkp/ZKVerifier.sol\":4834:4835  b */\n      dup8\n        /* \"zkp/ZKVerifier.sol\":4834:4837  b.Y */\n      0x20\n      add\n      mload\n        /* \"zkp/ZKVerifier.sol\":4852:4853  c */\n      dup8\n        /* \"zkp/ZKVerifier.sol\":4852:4855  c.X */\n      0x00\n      add\n      mload\n        /* \"zkp/ZKVerifier.sol\":4857:4858  c */\n      dup9\n        /* \"zkp/ZKVerifier.sol\":4857:4860  c.Y */\n      0x20\n      add\n      mload\n        /* \"zkp/ZKVerifier.sol\":4875:4880  input */\n      dup9\n        /* \"zkp/ZKVerifier.sol\":4775:4891  abi.encodePacked(... */\n      add(0x20, mload(0x40))\n      tag_188\n      swap8\n      swap7\n      swap6\n      swap5\n      swap4\n      swap3\n      swap2\n      swap1\n      tag_189\n      jump\t// in\n    tag_188:\n      mload(0x40)\n      0x20\n      dup2\n      dup4\n      sub\n      sub\n      dup2\n      mstore\n      swap1\n      0x40\n      mstore\n        /* \"zkp/ZKVerifier.sol\":4765:4892  keccak256(abi.encodePacked(... */\n      dup1\n      mload\n      swap1\n      0x20\n      add\n      keccak256\n        /* \"zkp/ZKVerifier.sol\":4743:4892  bytes32 pairingHash = keccak256(abi.encodePacked(... */\n      swap1\n      pop\n        /* \"zkp/ZKVerifier.sol\":607:684  21888242871839275222246405745257275088548364400416034343698204186575808495617 */\n      0x30644e72e131a029b85045b68181585d2833e84879b9709143e1f593f0000001\n        /* \"zkp/ZKVerifier.sol\":4928:4939  pairingHash */\n      dup2\n        /* \"zkp/ZKVerifier.sol\":4920:4940  uint256(pairingHash) */\n      0x00\n      shr\n        /* \"zkp/ZKVerifier.sol\":4920:4953  uint256(pairingHash) < FIELD_SIZE */\n      lt\n        /* \"zkp/ZKVerifier.sol\":4913:4953  return uint256(pairingHash) < FIELD_SIZE */\n      swap2\n      pop\n      pop\n        /* \"zkp/ZKVerifier.sol\":4568:4961  function verifyPairing(... */\n      swap5\n      swap4\n      pop\n      pop\n      pop\n      pop\n      jump\t// out\n        /* \"@openzeppelin/contracts/utils/Context.sol\":656:752  function _msgSender() internal view virtual returns (address) {... */\n    tag_142:\n        /* \"@openzeppelin/contracts/utils/Context.sol\":709:716  address */\n      0x00\n        /* \"@openzeppelin/contracts/utils/Context.sol\":735:745  msg.sender */\n      caller\n        /* \"@openzeppelin/contracts/utils/Context.sol\":728:745  return msg.sender */\n      swap1\n      pop\n        /* \"@openzeppelin/contracts/utils/Context.sol\":656:752  function _msgSender() internal view virtual returns (address) {... */\n      swap1\n      jump\t// out\n        /* \"@openzeppelin/contracts/utils/Pausable.sol\":2202:2328  function _requirePaused() internal view virtual {... */\n    tag_149:\n        /* \"@openzeppelin/contracts/utils/Pausable.sol\":2265:2273  paused() */\n      tag_192\n        /* \"@openzeppelin/contracts/utils/Pausable.sol\":2265:2271  paused */\n      tag_27\n        /* \"@openzeppelin/contracts/utils/Pausable.sol\":2265:2273  paused() */\n      jump\t// in\n    tag_192:\n        /* \"@openzeppelin/contracts/utils/Pausable.sol\":2260:2322  if (!paused()) {... */\n      tag_193\n      jumpi\n        /* \"@openzeppelin/contracts/utils/Pausable.sol\":2296:2311  ExpectedPause() */\n      mload(0x40)\n      0x8dfc202b00000000000000000000000000000000000000000000000000000000\n      dup2\n      mstore\n      0x04\n      add\n      mload(0x40)\n      dup1\n      swap2\n      sub\n      swap1\n      revert\n        /* \"@openzeppelin/contracts/utils/Pausable.sol\":2260:2322  if (!paused()) {... */\n    tag_193:\n        /* \"@openzeppelin/contracts/utils/Pausable.sol\":2202:2328  function _requirePaused() internal view virtual {... */\n      jump\t// out\n        /* \"#utility.yul\":88:205   */\n    tag_195:\n        /* \"#utility.yul\":197:198   */\n      0x00\n        /* \"#utility.yul\":194:195   */\n      dup1\n        /* \"#utility.yul\":187:199   */\n      revert\n        /* \"#utility.yul\":334:411   */\n    tag_197:\n        /* \"#utility.yul\":371:378   */\n      0x00\n        /* \"#utility.yul\":400:405   */\n      dup2\n        /* \"#utility.yul\":389:405   */\n      swap1\n      pop\n        /* \"#utility.yul\":334:411   */\n      swap2\n      swap1\n      pop\n      jump\t// out\n        /* \"#utility.yul\":417:539   */\n    tag_198:\n        /* \"#utility.yul\":490:514   */\n      tag_236\n        /* \"#utility.yul\":508:513   */\n      dup2\n        /* \"#utility.yul\":490:514   */\n      tag_197\n      jump\t// in\n    tag_236:\n        /* \"#utility.yul\":483:488   */\n      dup2\n        /* \"#utility.yul\":480:515   */\n      eq\n        /* \"#utility.yul\":470:533   */\n      tag_237\n      jumpi\n        /* \"#utility.yul\":529:530   */\n      0x00\n        /* \"#utility.yul\":526:527   */\n      dup1\n        /* \"#utility.yul\":519:531   */\n      revert\n        /* \"#utility.yul\":470:533   */\n    tag_237:\n        /* \"#utility.yul\":417:539   */\n      pop\n      jump\t// out\n        /* \"#utility.yul\":545:684   */\n    tag_199:\n        /* \"#utility.yul\":591:596   */\n      0x00\n        /* \"#utility.yul\":629:635   */\n      dup2\n        /* \"#utility.yul\":616:636   */\n      calldataload\n        /* \"#utility.yul\":607:636   */\n      swap1\n      pop\n        /* \"#utility.yul\":645:678   */\n      tag_239\n        /* \"#utility.yul\":672:677   */\n      dup2\n        /* \"#utility.yul\":645:678   */\n      tag_198\n      jump\t// in\n    tag_239:\n        /* \"#utility.yul\":545:684   */\n      swap3\n      swap2\n      pop\n      pop\n      jump\t// out\n        /* \"#utility.yul\":690:1019   */\n    tag_15:\n        /* \"#utility.yul\":749:755   */\n      0x00\n        /* \"#utility.yul\":798:800   */\n      0x20\n        /* \"#utility.yul\":786:795   */\n      dup3\n        /* \"#utility.yul\":777:784   */\n      dup5\n        /* \"#utility.yul\":773:796   */\n      sub\n        /* \"#utility.yul\":769:801   */\n      slt\n        /* \"#utility.yul\":766:885   */\n      iszero\n      tag_241\n      jumpi\n        /* \"#utility.yul\":804:883   */\n      tag_242\n      tag_195\n      jump\t// in\n    tag_242:\n        /* \"#utility.yul\":766:885   */\n    tag_241:\n        /* \"#utility.yul\":924:925   */\n      0x00\n        /* \"#utility.yul\":949:1002   */\n      tag_243\n        /* \"#utility.yul\":994:1001   */\n      dup5\n        /* \"#utility.yul\":985:991   */\n      dup3\n        /* \"#utility.yul\":974:983   */\n      dup6\n        /* \"#utility.yul\":970:992   */\n      add\n        /* \"#utility.yul\":949:1002   */\n      tag_199\n      jump\t// in\n    tag_243:\n        /* \"#utility.yul\":939:1002   */\n      swap2\n      pop\n        /* \"#utility.yul\":895:1012   */\n      pop\n        /* \"#utility.yul\":690:1019   */\n      swap3\n      swap2\n      pop\n      pop\n      jump\t// out\n        /* \"#utility.yul\":1025:1115   */\n    tag_200:\n        /* \"#utility.yul\":1059:1066   */\n      0x00\n        /* \"#utility.yul\":1102:1107   */\n      dup2\n        /* \"#utility.yul\":1095:1108   */\n      iszero\n        /* \"#utility.yul\":1088:1109   */\n      iszero\n        /* \"#utility.yul\":1077:1109   */\n      swap1\n      pop\n        /* \"#utility.yul\":1025:1115   */\n      swap2\n      swap1\n      pop\n      jump\t// out\n        /* \"#utility.yul\":1121:1230   */\n    tag_201:\n        /* \"#utility.yul\":1202:1223   */\n      tag_246\n        /* \"#utility.yul\":1217:1222   */\n      dup2\n        /* \"#utility.yul\":1202:1223   */\n      tag_200\n      jump\t// in\n    tag_246:\n        /* \"#utility.yul\":1197:1200   */\n      dup3\n        /* \"#utility.yul\":1190:1224   */\n      mstore\n        /* \"#utility.yul\":1121:1230   */\n      pop\n      pop\n      jump\t// out\n        /* \"#utility.yul\":1236:1446   */\n    tag_18:\n        /* \"#utility.yul\":1323:1327   */\n      0x00\n        /* \"#utility.yul\":1361:1363   */\n      0x20\n        /* \"#utility.yul\":1350:1359   */\n      dup3\n        /* \"#utility.yul\":1346:1364   */\n      add\n        /* \"#utility.yul\":1338:1364   */\n      swap1\n      pop\n        /* \"#utility.yul\":1374:1439   */\n      tag_248\n        /* \"#utility.yul\":1436:1437   */\n      0x00\n        /* \"#utility.yul\":1425:1434   */\n      dup4\n        /* \"#utility.yul\":1421:1438   */\n      add\n        /* \"#utility.yul\":1412:1418   */\n      dup5\n        /* \"#utility.yul\":1374:1439   */\n      tag_201\n      jump\t// in\n    tag_248:\n        /* \"#utility.yul\":1236:1446   */\n      swap3\n      swap2\n      pop\n      pop\n      jump\t// out\n        /* \"#utility.yul\":1452:1569   */\n    tag_202:\n        /* \"#utility.yul\":1561:1562   */\n      0x00\n        /* \"#utility.yul\":1558:1559   */\n      dup1\n        /* \"#utility.yul\":1551:1563   */\n      revert\n        /* \"#utility.yul\":1593:1842   */\n    tag_203:\n        /* \"#utility.yul\":1664:1672   */\n      0x00\n        /* \"#utility.yul\":1695:1701   */\n      dup2\n        /* \"#utility.yul\":1683:1701   */\n      swap1\n      pop\n        /* \"#utility.yul\":1748:1751   */\n      dup3\n        /* \"#utility.yul\":1740:1744   */\n      0x20\n        /* \"#utility.yul\":1734:1738   */\n      0x08\n        /* \"#utility.yul\":1730:1745   */\n      mul\n        /* \"#utility.yul\":1720:1728   */\n      dup3\n        /* \"#utility.yul\":1716:1746   */\n      add\n        /* \"#utility.yul\":1713:1752   */\n      gt\n        /* \"#utility.yul\":1710:1836   */\n      iszero\n      tag_251\n      jumpi\n        /* \"#utility.yul\":1755:1834   */\n      tag_252\n      tag_202\n      jump\t// in\n    tag_252:\n        /* \"#utility.yul\":1710:1836   */\n    tag_251:\n        /* \"#utility.yul\":1593:1842   */\n      swap3\n      swap2\n      pop\n      pop\n      jump\t// out\n        /* \"#utility.yul\":1866:2115   */\n    tag_204:\n        /* \"#utility.yul\":1937:1945   */\n      0x00\n        /* \"#utility.yul\":1968:1974   */\n      dup2\n        /* \"#utility.yul\":1956:1974   */\n      swap1\n      pop\n        /* \"#utility.yul\":2021:2024   */\n      dup3\n        /* \"#utility.yul\":2013:2017   */\n      0x20\n        /* \"#utility.yul\":2007:2011   */\n      0x01\n        /* \"#utility.yul\":2003:2018   */\n      mul\n        /* \"#utility.yul\":1993:2001   */\n      dup3\n        /* \"#utility.yul\":1989:2019   */\n      add\n        /* \"#utility.yul\":1986:2025   */\n      gt\n        /* \"#utility.yul\":1983:2109   */\n      iszero\n      tag_254\n      jumpi\n        /* \"#utility.yul\":2028:2107   */\n      tag_255\n      tag_202\n      jump\t// in\n    tag_255:\n        /* \"#utility.yul\":1983:2109   */\n    tag_254:\n        /* \"#utility.yul\":1866:2115   */\n      swap3\n      swap2\n      pop\n      pop\n      jump\t// out\n        /* \"#utility.yul\":2121:2697   */\n    tag_21:\n        /* \"#utility.yul\":2239:2245   */\n      0x00\n        /* \"#utility.yul\":2247:2253   */\n      dup1\n        /* \"#utility.yul\":2296:2299   */\n      0x0120\n        /* \"#utility.yul\":2284:2293   */\n      dup4\n        /* \"#utility.yul\":2275:2282   */\n      dup6\n        /* \"#utility.yul\":2271:2294   */\n      sub\n        /* \"#utility.yul\":2267:2300   */\n      slt\n        /* \"#utility.yul\":2264:2384   */\n      iszero\n      tag_257\n      jumpi\n        /* \"#utility.yul\":2303:2382   */\n      tag_258\n      tag_195\n      jump\t// in\n    tag_258:\n        /* \"#utility.yul\":2264:2384   */\n    tag_257:\n        /* \"#utility.yul\":2423:2424   */\n      0x00\n        /* \"#utility.yul\":2448:2526   */\n      tag_259\n        /* \"#utility.yul\":2518:2525   */\n      dup6\n        /* \"#utility.yul\":2509:2515   */\n      dup3\n        /* \"#utility.yul\":2498:2507   */\n      dup7\n        /* \"#utility.yul\":2494:2516   */\n      add\n        /* \"#utility.yul\":2448:2526   */\n      tag_203\n      jump\t// in\n    tag_259:\n        /* \"#utility.yul\":2438:2526   */\n      swap3\n      pop\n        /* \"#utility.yul\":2394:2536   */\n      pop\n        /* \"#utility.yul\":2575:2578   */\n      0x0100\n        /* \"#utility.yul\":2602:2680   */\n      tag_260\n        /* \"#utility.yul\":2672:2679   */\n      dup6\n        /* \"#utility.yul\":2663:2669   */\n      dup3\n        /* \"#utility.yul\":2652:2661   */\n      dup7\n        /* \"#utility.yul\":2648:2670   */\n      add\n        /* \"#utility.yul\":2602:2680   */\n      tag_204\n      jump\t// in\n    tag_260:\n        /* \"#utility.yul\":2592:2680   */\n      swap2\n      pop\n        /* \"#utility.yul\":2546:2690   */\n      pop\n        /* \"#utility.yul\":2121:2697   */\n      swap3\n      pop\n      swap3\n      swap1\n      pop\n      jump\t// out\n        /* \"#utility.yul\":2703:2829   */\n    tag_205:\n        /* \"#utility.yul\":2740:2747   */\n      0x00\n        /* \"#utility.yul\":2780:2822   */\n      0xffffffffffffffffffffffffffffffffffffffff\n        /* \"#utility.yul\":2773:2778   */\n      dup3\n        /* \"#utility.yul\":2769:2823   */\n      and\n        /* \"#utility.yul\":2758:2823   */\n      swap1\n      pop\n        /* \"#utility.yul\":2703:2829   */\n      swap2\n      swap1\n      pop\n      jump\t// out\n        /* \"#utility.yul\":2835:2931   */\n    tag_206:\n        /* \"#utility.yul\":2872:2879   */\n      0x00\n        /* \"#utility.yul\":2901:2925   */\n      tag_263\n        /* \"#utility.yul\":2919:2924   */\n      dup3\n        /* \"#utility.yul\":2901:2925   */\n      tag_205\n      jump\t// in\n    tag_263:\n        /* \"#utility.yul\":2890:2925   */\n      swap1\n      pop\n        /* \"#utility.yul\":2835:2931   */\n      swap2\n      swap1\n      pop\n      jump\t// out\n        /* \"#utility.yul\":2937:3055   */\n    tag_207:\n        /* \"#utility.yul\":3024:3048   */\n      tag_265\n        /* \"#utility.yul\":3042:3047   */\n      dup2\n        /* \"#utility.yul\":3024:3048   */\n      tag_206\n      jump\t// in\n    tag_265:\n        /* \"#utility.yul\":3019:3022   */\n      dup3\n        /* \"#utility.yul\":3012:3049   */\n      mstore\n        /* \"#utility.yul\":2937:3055   */\n      pop\n      pop\n      jump\t// out\n        /* \"#utility.yul\":3061:3283   */\n    tag_36:\n        /* \"#utility.yul\":3154:3158   */\n      0x00\n        /* \"#utility.yul\":3192:3194   */\n      0x20\n        /* \"#utility.yul\":3181:3190   */\n      dup3\n        /* \"#utility.yul\":3177:3195   */\n      add\n        /* \"#utility.yul\":3169:3195   */\n      swap1\n      pop\n        /* \"#utility.yul\":3205:3276   */\n      tag_267\n        /* \"#utility.yul\":3273:3274   */\n      0x00\n        /* \"#utility.yul\":3262:3271   */\n      dup4\n        /* \"#utility.yul\":3258:3275   */\n      add\n        /* \"#utility.yul\":3249:3255   */\n      dup5\n        /* \"#utility.yul\":3205:3276   */\n      tag_207\n      jump\t// in\n    tag_267:\n        /* \"#utility.yul\":3061:3283   */\n      swap3\n      swap2\n      pop\n      pop\n      jump\t// out\n        /* \"#utility.yul\":3289:3411   */\n    tag_208:\n        /* \"#utility.yul\":3362:3386   */\n      tag_269\n        /* \"#utility.yul\":3380:3385   */\n      dup2\n        /* \"#utility.yul\":3362:3386   */\n      tag_206\n      jump\t// in\n    tag_269:\n        /* \"#utility.yul\":3355:3360   */\n      dup2\n        /* \"#utility.yul\":3352:3387   */\n      eq\n        /* \"#utility.yul\":3342:3405   */\n      tag_270\n      jumpi\n        /* \"#utility.yul\":3401:3402   */\n      0x00\n        /* \"#utility.yul\":3398:3399   */\n      dup1\n        /* \"#utility.yul\":3391:3403   */\n      revert\n        /* \"#utility.yul\":3342:3405   */\n    tag_270:\n        /* \"#utility.yul\":3289:3411   */\n      pop\n      jump\t// out\n        /* \"#utility.yul\":3417:3556   */\n    tag_209:\n        /* \"#utility.yul\":3463:3468   */\n      0x00\n        /* \"#utility.yul\":3501:3507   */\n      dup2\n        /* \"#utility.yul\":3488:3508   */\n      calldataload\n        /* \"#utility.yul\":3479:3508   */\n      swap1\n      pop\n        /* \"#utility.yul\":3517:3550   */\n      tag_272\n        /* \"#utility.yul\":3544:3549   */\n      dup2\n        /* \"#utility.yul\":3517:3550   */\n      tag_208\n      jump\t// in\n    tag_272:\n        /* \"#utility.yul\":3417:3556   */\n      swap3\n      swap2\n      pop\n      pop\n      jump\t// out\n        /* \"#utility.yul\":3562:3891   */\n    tag_43:\n        /* \"#utility.yul\":3621:3627   */\n      0x00\n        /* \"#utility.yul\":3670:3672   */\n      0x20\n        /* \"#utility.yul\":3658:3667   */\n      dup3\n        /* \"#utility.yul\":3649:3656   */\n      dup5\n        /* \"#utility.yul\":3645:3668   */\n      sub\n        /* \"#utility.yul\":3641:3673   */\n      slt\n        /* \"#utility.yul\":3638:3757   */\n      iszero\n      tag_274\n      jumpi\n        /* \"#utility.yul\":3676:3755   */\n      tag_275\n      tag_195\n      jump\t// in\n    tag_275:\n        /* \"#utility.yul\":3638:3757   */\n    tag_274:\n        /* \"#utility.yul\":3796:3797   */\n      0x00\n        /* \"#utility.yul\":3821:3874   */\n      tag_276\n        /* \"#utility.yul\":3866:3873   */\n      dup5\n        /* \"#utility.yul\":3857:3863   */\n      dup3\n        /* \"#utility.yul\":3846:3855   */\n      dup6\n        /* \"#utility.yul\":3842:3864   */\n      add\n        /* \"#utility.yul\":3821:3874   */\n      tag_209\n      jump\t// in\n    tag_276:\n        /* \"#utility.yul\":3811:3874   */\n      swap2\n      pop\n        /* \"#utility.yul\":3767:3884   */\n      pop\n        /* \"#utility.yul\":3562:3891   */\n      swap3\n      swap2\n      pop\n      pop\n      jump\t// out\n        /* \"#utility.yul\":3897:4066   */\n    tag_210:\n        /* \"#utility.yul\":3981:3992   */\n      0x00\n        /* \"#utility.yul\":4015:4021   */\n      dup3\n        /* \"#utility.yul\":4010:4013   */\n      dup3\n        /* \"#utility.yul\":4003:4022   */\n      mstore\n        /* \"#utility.yul\":4055:4059   */\n      0x20\n        /* \"#utility.yul\":4050:4053   */\n      dup3\n        /* \"#utility.yul\":4046:4060   */\n      add\n        /* \"#utility.yul\":4031:4060   */\n      swap1\n      pop\n        /* \"#utility.yul\":3897:4066   */\n      swap3\n      swap2\n      pop\n      pop\n      jump\t// out\n        /* \"#utility.yul\":4072:4246   */\n    tag_211:\n        /* \"#utility.yul\":4212:4238   */\n      0x496e76616c696420696e70757420706172616d65746572730000000000000000\n        /* \"#utility.yul\":4208:4209   */\n      0x00\n        /* \"#utility.yul\":4200:4206   */\n      dup3\n        /* \"#utility.yul\":4196:4210   */\n      add\n        /* \"#utility.yul\":4189:4239   */\n      mstore\n        /* \"#utility.yul\":4072:4246   */\n      pop\n      jump\t// out\n        /* \"#utility.yul\":4252:4618   */\n    tag_212:\n        /* \"#utility.yul\":4394:4397   */\n      0x00\n        /* \"#utility.yul\":4415:4482   */\n      tag_280\n        /* \"#utility.yul\":4479:4481   */\n      0x18\n        /* \"#utility.yul\":4474:4477   */\n      dup4\n        /* \"#utility.yul\":4415:4482   */\n      tag_210\n      jump\t// in\n    tag_280:\n        /* \"#utility.yul\":4408:4482   */\n      swap2\n      pop\n        /* \"#utility.yul\":4491:4584   */\n      tag_281\n        /* \"#utility.yul\":4580:4583   */\n      dup3\n        /* \"#utility.yul\":4491:4584   */\n      tag_211\n      jump\t// in\n    tag_281:\n        /* \"#utility.yul\":4609:4611   */\n      0x20\n        /* \"#utility.yul\":4604:4607   */\n      dup3\n        /* \"#utility.yul\":4600:4612   */\n      add\n        /* \"#utility.yul\":4593:4612   */\n      swap1\n      pop\n        /* \"#utility.yul\":4252:4618   */\n      swap2\n      swap1\n      pop\n      jump\t// out\n        /* \"#utility.yul\":4624:5043   */\n    tag_53:\n        /* \"#utility.yul\":4790:4794   */\n      0x00\n        /* \"#utility.yul\":4828:4830   */\n      0x20\n        /* \"#utility.yul\":4817:4826   */\n      dup3\n        /* \"#utility.yul\":4813:4831   */\n      add\n        /* \"#utility.yul\":4805:4831   */\n      swap1\n      pop\n        /* \"#utility.yul\":4877:4886   */\n      dup2\n        /* \"#utility.yul\":4871:4875   */\n      dup2\n        /* \"#utility.yul\":4867:4887   */\n      sub\n        /* \"#utility.yul\":4863:4864   */\n      0x00\n        /* \"#utility.yul\":4852:4861   */\n      dup4\n        /* \"#utility.yul\":4848:4865   */\n      add\n        /* \"#utility.yul\":4841:4888   */\n      mstore\n        /* \"#utility.yul\":4905:5036   */\n      tag_283\n        /* \"#utility.yul\":5031:5035   */\n      dup2\n        /* \"#utility.yul\":4905:5036   */\n      tag_212\n      jump\t// in\n    tag_283:\n        /* \"#utility.yul\":4897:5036   */\n      swap1\n      pop\n        /* \"#utility.yul\":4624:5043   */\n      swap2\n      swap1\n      pop\n      jump\t// out\n        /* \"#utility.yul\":5049:5229   */\n    tag_56:\n        /* \"#utility.yul\":5097:5174   */\n      0x4e487b7100000000000000000000000000000000000000000000000000000000\n        /* \"#utility.yul\":5094:5095   */\n      0x00\n        /* \"#utility.yul\":5087:5175   */\n      mstore\n        /* \"#utility.yul\":5194:5198   */\n      0x32\n        /* \"#utility.yul\":5191:5192   */\n      0x04\n        /* \"#utility.yul\":5184:5199   */\n      mstore\n        /* \"#utility.yul\":5218:5222   */\n      0x24\n        /* \"#utility.yul\":5215:5216   */\n      0x00\n        /* \"#utility.yul\":5208:5223   */\n      revert\n        /* \"#utility.yul\":5235:5334   */\n    tag_213:\n        /* \"#utility.yul\":5320:5326   */\n      dup3\n        /* \"#utility.yul\":5315:5318   */\n      dup2\n        /* \"#utility.yul\":5310:5313   */\n      dup4\n        /* \"#utility.yul\":5297:5327   */\n      calldatacopy\n        /* \"#utility.yul\":5235:5334   */\n      pop\n      pop\n      pop\n      jump\t// out\n        /* \"#utility.yul\":5372:5544   */\n    tag_214:\n        /* \"#utility.yul\":5495:5538   */\n      tag_287\n        /* \"#utility.yul\":5531:5537   */\n      0x0100\n        /* \"#utility.yul\":5526:5529   */\n      dup4\n        /* \"#utility.yul\":5519:5524   */\n      dup4\n        /* \"#utility.yul\":5495:5538   */\n      tag_213\n      jump\t// in\n    tag_287:\n        /* \"#utility.yul\":5372:5544   */\n      pop\n      pop\n      jump\t// out\n        /* \"#utility.yul\":5582:5752   */\n    tag_215:\n        /* \"#utility.yul\":5705:5746   */\n      tag_289\n        /* \"#utility.yul\":5741:5745   */\n      0x20\n        /* \"#utility.yul\":5736:5739   */\n      dup4\n        /* \"#utility.yul\":5729:5734   */\n      dup4\n        /* \"#utility.yul\":5705:5746   */\n      tag_213\n      jump\t// in\n    tag_289:\n        /* \"#utility.yul\":5582:5752   */\n      pop\n      pop\n      jump\t// out\n        /* \"#utility.yul\":5758:6284   */\n    tag_102:\n        /* \"#utility.yul\":5975:5979   */\n      0x00\n        /* \"#utility.yul\":6013:6016   */\n      0x0120\n        /* \"#utility.yul\":6002:6011   */\n      dup3\n        /* \"#utility.yul\":5998:6017   */\n      add\n        /* \"#utility.yul\":5990:6017   */\n      swap1\n      pop\n        /* \"#utility.yul\":6027:6146   */\n      tag_291\n        /* \"#utility.yul\":6143:6144   */\n      0x00\n        /* \"#utility.yul\":6132:6141   */\n      dup4\n        /* \"#utility.yul\":6128:6145   */\n      add\n        /* \"#utility.yul\":6119:6125   */\n      dup6\n        /* \"#utility.yul\":6027:6146   */\n      tag_214\n      jump\t// in\n    tag_291:\n        /* \"#utility.yul\":6156:6277   */\n      tag_292\n        /* \"#utility.yul\":6272:6275   */\n      0x0100\n        /* \"#utility.yul\":6261:6270   */\n      dup4\n        /* \"#utility.yul\":6257:6276   */\n      add\n        /* \"#utility.yul\":6248:6254   */\n      dup5\n        /* \"#utility.yul\":6156:6277   */\n      tag_215\n      jump\t// in\n    tag_292:\n        /* \"#utility.yul\":5758:6284   */\n      swap4\n      swap3\n      pop\n      pop\n      pop\n      jump\t// out\n        /* \"#utility.yul\":6290:6406   */\n    tag_216:\n        /* \"#utility.yul\":6360:6381   */\n      tag_294\n        /* \"#utility.yul\":6375:6380   */\n      dup2\n        /* \"#utility.yul\":6360:6381   */\n      tag_200\n      jump\t// in\n    tag_294:\n        /* \"#utility.yul\":6353:6358   */\n      dup2\n        /* \"#utility.yul\":6350:6382   */\n      eq\n        /* \"#utility.yul\":6340:6400   */\n      tag_295\n      jumpi\n        /* \"#utility.yul\":6396:6397   */\n      0x00\n        /* \"#utility.yul\":6393:6394   */\n      dup1\n        /* \"#utility.yul\":6386:6398   */\n      revert\n        /* \"#utility.yul\":6340:6400   */\n    tag_295:\n        /* \"#utility.yul\":6290:6406   */\n      pop\n      jump\t// out\n        /* \"#utility.yul\":6412:6549   */\n    tag_217:\n        /* \"#utility.yul\":6466:6471   */\n      0x00\n        /* \"#utility.yul\":6497:6503   */\n      dup2\n        /* \"#utility.yul\":6491:6504   */\n      mload\n        /* \"#utility.yul\":6482:6504   */\n      swap1\n      pop\n        /* \"#utility.yul\":6513:6543   */\n      tag_297\n        /* \"#utility.yul\":6537:6542   */\n      dup2\n        /* \"#utility.yul\":6513:6543   */\n      tag_216\n      jump\t// in\n    tag_297:\n        /* \"#utility.yul\":6412:6549   */\n      swap3\n      swap2\n      pop\n      pop\n      jump\t// out\n        /* \"#utility.yul\":6555:6900   */\n    tag_106:\n        /* \"#utility.yul\":6622:6628   */\n      0x00\n        /* \"#utility.yul\":6671:6673   */\n      0x20\n        /* \"#utility.yul\":6659:6668   */\n      dup3\n        /* \"#utility.yul\":6650:6657   */\n      dup5\n        /* \"#utility.yul\":6646:6669   */\n      sub\n        /* \"#utility.yul\":6642:6674   */\n      slt\n        /* \"#utility.yul\":6639:6758   */\n      iszero\n      tag_299\n      jumpi\n        /* \"#utility.yul\":6677:6756   */\n      tag_300\n      tag_195\n      jump\t// in\n    tag_300:\n        /* \"#utility.yul\":6639:6758   */\n    tag_299:\n        /* \"#utility.yul\":6797:6798   */\n      0x00\n        /* \"#utility.yul\":6822:6883   */\n      tag_301\n        /* \"#utility.yul\":6875:6882   */\n      dup5\n        /* \"#utility.yul\":6866:6872   */\n      dup3\n        /* \"#utility.yul\":6855:6864   */\n      dup6\n        /* \"#utility.yul\":6851:6873   */\n      add\n        /* \"#utility.yul\":6822:6883   */\n      tag_217\n      jump\t// in\n    tag_301:\n        /* \"#utility.yul\":6812:6883   */\n      swap2\n      pop\n        /* \"#utility.yul\":6768:6893   */\n      pop\n        /* \"#utility.yul\":6555:6900   */\n      swap3\n      swap2\n      pop\n      pop\n      jump\t// out\n        /* \"#utility.yul\":6938:7128   */\n    tag_218:\n        /* \"#utility.yul\":7079:7122   */\n      tag_303\n        /* \"#utility.yul\":7115:7121   */\n      0x0100\n        /* \"#utility.yul\":7110:7113   */\n      dup4\n        /* \"#utility.yul\":7103:7108   */\n      dup4\n        /* \"#utility.yul\":7079:7122   */\n      tag_213\n      jump\t// in\n    tag_303:\n        /* \"#utility.yul\":6938:7128   */\n      pop\n      pop\n      jump\t// out\n        /* \"#utility.yul\":7166:7354   */\n    tag_219:\n        /* \"#utility.yul\":7307:7348   */\n      tag_305\n        /* \"#utility.yul\":7343:7347   */\n      0x20\n        /* \"#utility.yul\":7338:7341   */\n      dup4\n        /* \"#utility.yul\":7331:7336   */\n      dup4\n        /* \"#utility.yul\":7307:7348   */\n      tag_213\n      jump\t// in\n    tag_305:\n        /* \"#utility.yul\":7166:7354   */\n      pop\n      pop\n      jump\t// out\n        /* \"#utility.yul\":7360:7950   */\n    tag_163:\n        /* \"#utility.yul\":7596:7599   */\n      0x00\n        /* \"#utility.yul\":7611:7734   */\n      tag_307\n        /* \"#utility.yul\":7730:7733   */\n      dup3\n        /* \"#utility.yul\":7721:7727   */\n      dup6\n        /* \"#utility.yul\":7611:7734   */\n      tag_218\n      jump\t// in\n    tag_307:\n        /* \"#utility.yul\":7759:7762   */\n      0x0100\n        /* \"#utility.yul\":7754:7757   */\n      dup3\n        /* \"#utility.yul\":7750:7763   */\n      add\n        /* \"#utility.yul\":7743:7763   */\n      swap2\n      pop\n        /* \"#utility.yul\":7773:7896   */\n      tag_308\n        /* \"#utility.yul\":7892:7895   */\n      dup3\n        /* \"#utility.yul\":7883:7889   */\n      dup5\n        /* \"#utility.yul\":7773:7896   */\n      tag_219\n      jump\t// in\n    tag_308:\n        /* \"#utility.yul\":7921:7923   */\n      0x20\n        /* \"#utility.yul\":7916:7919   */\n      dup3\n        /* \"#utility.yul\":7912:7924   */\n      add\n        /* \"#utility.yul\":7905:7924   */\n      swap2\n      pop\n        /* \"#utility.yul\":7941:7944   */\n      dup2\n        /* \"#utility.yul\":7934:7944   */\n      swap1\n      pop\n        /* \"#utility.yul\":7360:7950   */\n      swap4\n      swap3\n      pop\n      pop\n      pop\n      jump\t// out\n        /* \"#utility.yul\":7956:8136   */\n    tag_168:\n        /* \"#utility.yul\":8004:8081   */\n      0x4e487b7100000000000000000000000000000000000000000000000000000000\n        /* \"#utility.yul\":8001:8002   */\n      0x00\n        /* \"#utility.yul\":7994:8082   */\n      mstore\n        /* \"#utility.yul\":8101:8105   */\n      0x12\n        /* \"#utility.yul\":8098:8099   */\n      0x04\n        /* \"#utility.yul\":8091:8106   */\n      mstore\n        /* \"#utility.yul\":8125:8129   */\n      0x24\n        /* \"#utility.yul\":8122:8123   */\n      0x00\n        /* \"#utility.yul\":8115:8130   */\n      revert\n        /* \"#utility.yul\":8142:8219   */\n    tag_220:\n        /* \"#utility.yul\":8179:8186   */\n      0x00\n        /* \"#utility.yul\":8208:8213   */\n      dup2\n        /* \"#utility.yul\":8197:8213   */\n      swap1\n      pop\n        /* \"#utility.yul\":8142:8219   */\n      swap2\n      swap1\n      pop\n      jump\t// out\n        /* \"#utility.yul\":8225:8304   */\n    tag_221:\n        /* \"#utility.yul\":8264:8271   */\n      0x00\n        /* \"#utility.yul\":8293:8298   */\n      dup2\n        /* \"#utility.yul\":8282:8298   */\n      swap1\n      pop\n        /* \"#utility.yul\":8225:8304   */\n      swap2\n      swap1\n      pop\n      jump\t// out\n        /* \"#utility.yul\":8310:8467   */\n    tag_222:\n        /* \"#utility.yul\":8415:8460   */\n      tag_313\n        /* \"#utility.yul\":8435:8459   */\n      tag_314\n        /* \"#utility.yul\":8453:8458   */\n      dup3\n        /* \"#utility.yul\":8435:8459   */\n      tag_220\n      jump\t// in\n    tag_314:\n        /* \"#utility.yul\":8415:8460   */\n      tag_221\n      jump\t// in\n    tag_313:\n        /* \"#utility.yul\":8410:8413   */\n      dup3\n        /* \"#utility.yul\":8403:8461   */\n      mstore\n        /* \"#utility.yul\":8310:8467   */\n      pop\n      pop\n      jump\t// out\n        /* \"#utility.yul\":8473:8577   */\n    tag_223:\n        /* \"#utility.yul\":8538:8544   */\n      0x00\n        /* \"#utility.yul\":8566:8570   */\n      0x02\n        /* \"#utility.yul\":8556:8570   */\n      swap1\n      pop\n        /* \"#utility.yul\":8473:8577   */\n      swap2\n      swap1\n      pop\n      jump\t// out\n        /* \"#utility.yul\":8583:8744   */\n    tag_224:\n        /* \"#utility.yul\":8698:8709   */\n      0x00\n        /* \"#utility.yul\":8735:8738   */\n      dup2\n        /* \"#utility.yul\":8720:8738   */\n      swap1\n      pop\n        /* \"#utility.yul\":8583:8744   */\n      swap3\n      swap2\n      pop\n      pop\n      jump\t// out\n        /* \"#utility.yul\":8750:8848   */\n    tag_225:\n        /* \"#utility.yul\":8815:8819   */\n      0x00\n        /* \"#utility.yul\":8838:8841   */\n      dup2\n        /* \"#utility.yul\":8830:8841   */\n      swap1\n      pop\n        /* \"#utility.yul\":8750:8848   */\n      swap2\n      swap1\n      pop\n      jump\t// out\n        /* \"#utility.yul\":8854:8970   */\n    tag_226:\n        /* \"#utility.yul\":8939:8963   */\n      tag_319\n        /* \"#utility.yul\":8957:8962   */\n      dup2\n        /* \"#utility.yul\":8939:8963   */\n      tag_220\n      jump\t// in\n    tag_319:\n        /* \"#utility.yul\":8934:8937   */\n      dup3\n        /* \"#utility.yul\":8927:8964   */\n      mstore\n        /* \"#utility.yul\":8854:8970   */\n      pop\n      pop\n      jump\t// out\n        /* \"#utility.yul\":8976:9171   */\n    tag_227:\n        /* \"#utility.yul\":9053:9063   */\n      0x00\n        /* \"#utility.yul\":9074:9128   */\n      tag_321\n        /* \"#utility.yul\":9124:9127   */\n      dup4\n        /* \"#utility.yul\":9116:9122   */\n      dup4\n        /* \"#utility.yul\":9074:9128   */\n      tag_226\n      jump\t// in\n    tag_321:\n        /* \"#utility.yul\":9160:9164   */\n      0x20\n        /* \"#utility.yul\":9155:9158   */\n      dup4\n        /* \"#utility.yul\":9151:9165   */\n      add\n        /* \"#utility.yul\":9137:9165   */\n      swap1\n      pop\n        /* \"#utility.yul\":8976:9171   */\n      swap3\n      swap2\n      pop\n      pop\n      jump\t// out\n        /* \"#utility.yul\":9177:9288   */\n    tag_228:\n        /* \"#utility.yul\":9245:9249   */\n      0x00\n        /* \"#utility.yul\":9277:9281   */\n      0x20\n        /* \"#utility.yul\":9272:9275   */\n      dup3\n        /* \"#utility.yul\":9268:9282   */\n      add\n        /* \"#utility.yul\":9260:9282   */\n      swap1\n      pop\n        /* \"#utility.yul\":9177:9288   */\n      swap2\n      swap1\n      pop\n      jump\t// out\n        /* \"#utility.yul\":9326:10064   */\n    tag_229:\n        /* \"#utility.yul\":9480:9532   */\n      tag_324\n        /* \"#utility.yul\":9526:9531   */\n      dup2\n        /* \"#utility.yul\":9480:9532   */\n      tag_223\n      jump\t// in\n    tag_324:\n        /* \"#utility.yul\":9548:9650   */\n      tag_325\n        /* \"#utility.yul\":9643:9649   */\n      dup2\n        /* \"#utility.yul\":9638:9641   */\n      dup5\n        /* \"#utility.yul\":9548:9650   */\n      tag_224\n      jump\t// in\n    tag_325:\n        /* \"#utility.yul\":9541:9650   */\n      swap3\n      pop\n        /* \"#utility.yul\":9674:9728   */\n      tag_326\n        /* \"#utility.yul\":9722:9727   */\n      dup3\n        /* \"#utility.yul\":9674:9728   */\n      tag_225\n      jump\t// in\n    tag_326:\n        /* \"#utility.yul\":9751:9758   */\n      dup1\n        /* \"#utility.yul\":9782:9783   */\n      0x00\n        /* \"#utility.yul\":9767:10057   */\n    tag_327:\n        /* \"#utility.yul\":9792:9798   */\n      dup4\n        /* \"#utility.yul\":9789:9790   */\n      dup2\n        /* \"#utility.yul\":9786:9799   */\n      lt\n        /* \"#utility.yul\":9767:10057   */\n      iszero\n      tag_329\n      jumpi\n        /* \"#utility.yul\":9868:9874   */\n      dup2\n        /* \"#utility.yul\":9862:9875   */\n      mload\n        /* \"#utility.yul\":9895:9966   */\n      tag_330\n        /* \"#utility.yul\":9962:9965   */\n      dup8\n        /* \"#utility.yul\":9947:9960   */\n      dup3\n        /* \"#utility.yul\":9895:9966   */\n      tag_227\n      jump\t// in\n    tag_330:\n        /* \"#utility.yul\":9888:9966   */\n      swap7\n      pop\n        /* \"#utility.yul\":9989:10047   */\n      tag_331\n        /* \"#utility.yul\":10040:10046   */\n      dup4\n        /* \"#utility.yul\":9989:10047   */\n      tag_228\n      jump\t// in\n    tag_331:\n        /* \"#utility.yul\":9979:10047   */\n      swap3\n      pop\n        /* \"#utility.yul\":9827:10057   */\n      pop\n        /* \"#utility.yul\":9814:9815   */\n      0x01\n        /* \"#utility.yul\":9811:9812   */\n      dup2\n        /* \"#utility.yul\":9807:9816   */\n      add\n        /* \"#utility.yul\":9802:9816   */\n      swap1\n      pop\n        /* \"#utility.yul\":9767:10057   */\n      jump(tag_327)\n    tag_329:\n        /* \"#utility.yul\":9771:9785   */\n      pop\n        /* \"#utility.yul\":9456:10064   */\n      pop\n      pop\n      pop\n        /* \"#utility.yul\":9326:10064   */\n      pop\n      pop\n      jump\t// out\n        /* \"#utility.yul\":10070:11356   */\n    tag_189:\n        /* \"#utility.yul\":10442:10445   */\n      0x00\n        /* \"#utility.yul\":10457:10532   */\n      tag_333\n        /* \"#utility.yul\":10528:10531   */\n      dup3\n        /* \"#utility.yul\":10519:10525   */\n      dup11\n        /* \"#utility.yul\":10457:10532   */\n      tag_222\n      jump\t// in\n    tag_333:\n        /* \"#utility.yul\":10557:10559   */\n      0x20\n        /* \"#utility.yul\":10552:10555   */\n      dup3\n        /* \"#utility.yul\":10548:10560   */\n      add\n        /* \"#utility.yul\":10541:10560   */\n      swap2\n      pop\n        /* \"#utility.yul\":10570:10645   */\n      tag_334\n        /* \"#utility.yul\":10641:10644   */\n      dup3\n        /* \"#utility.yul\":10632:10638   */\n      dup10\n        /* \"#utility.yul\":10570:10645   */\n      tag_222\n      jump\t// in\n    tag_334:\n        /* \"#utility.yul\":10670:10672   */\n      0x20\n        /* \"#utility.yul\":10665:10668   */\n      dup3\n        /* \"#utility.yul\":10661:10673   */\n      add\n        /* \"#utility.yul\":10654:10673   */\n      swap2\n      pop\n        /* \"#utility.yul\":10683:10804   */\n      tag_335\n        /* \"#utility.yul\":10800:10803   */\n      dup3\n        /* \"#utility.yul\":10791:10797   */\n      dup9\n        /* \"#utility.yul\":10683:10804   */\n      tag_229\n      jump\t// in\n    tag_335:\n        /* \"#utility.yul\":10829:10831   */\n      0x40\n        /* \"#utility.yul\":10824:10827   */\n      dup3\n        /* \"#utility.yul\":10820:10832   */\n      add\n        /* \"#utility.yul\":10813:10832   */\n      swap2\n      pop\n        /* \"#utility.yul\":10842:10963   */\n      tag_336\n        /* \"#utility.yul\":10959:10962   */\n      dup3\n        /* \"#utility.yul\":10950:10956   */\n      dup8\n        /* \"#utility.yul\":10842:10963   */\n      tag_229\n      jump\t// in\n    tag_336:\n        /* \"#utility.yul\":10988:10990   */\n      0x40\n        /* \"#utility.yul\":10983:10986   */\n      dup3\n        /* \"#utility.yul\":10979:10991   */\n      add\n        /* \"#utility.yul\":10972:10991   */\n      swap2\n      pop\n        /* \"#utility.yul\":11001:11076   */\n      tag_337\n        /* \"#utility.yul\":11072:11075   */\n      dup3\n        /* \"#utility.yul\":11063:11069   */\n      dup7\n        /* \"#utility.yul\":11001:11076   */\n      tag_222\n      jump\t// in\n    tag_337:\n        /* \"#utility.yul\":11101:11103   */\n      0x20\n        /* \"#utility.yul\":11096:11099   */\n      dup3\n        /* \"#utility.yul\":11092:11104   */\n      add\n        /* \"#utility.yul\":11085:11104   */\n      swap2\n      pop\n        /* \"#utility.yul\":11114:11189   */\n      tag_338\n        /* \"#utility.yul\":11185:11188   */\n      dup3\n        /* \"#utility.yul\":11176:11182   */\n      dup6\n        /* \"#utility.yul\":11114:11189   */\n      tag_222\n      jump\t// in\n    tag_338:\n        /* \"#utility.yul\":11214:11216   */\n      0x20\n        /* \"#utility.yul\":11209:11212   */\n      dup3\n        /* \"#utility.yul\":11205:11217   */\n      add\n        /* \"#utility.yul\":11198:11217   */\n      swap2\n      pop\n        /* \"#utility.yul\":11227:11302   */\n      tag_339\n        /* \"#utility.yul\":11298:11301   */\n      dup3\n        /* \"#utility.yul\":11289:11295   */\n      dup5\n        /* \"#utility.yul\":11227:11302   */\n      tag_222\n      jump\t// in\n    tag_339:\n        /* \"#utility.yul\":11327:11329   */\n      0x20\n        /* \"#utility.yul\":11322:11325   */\n      dup3\n        /* \"#utility.yul\":11318:11330   */\n      add\n        /* \"#utility.yul\":11311:11330   */\n      swap2\n      pop\n        /* \"#utility.yul\":11347:11350   */\n      dup2\n        /* \"#utility.yul\":11340:11350   */\n      swap1\n      pop\n        /* \"#utility.yul\":10070:11356   */\n      swap9\n      swap8\n      pop\n      pop\n      pop\n      pop\n      pop\n      pop\n      pop\n      pop\n      jump\t// out\n\n    auxdata: 0xa264697066735822122085b9425c53c5c8786b76be2a9c37c98d7b52886fe66a570b79834a8b193865a964736f6c634300081a0033\n}\n",
				"bytecode": {
					"linkReferences": {},
					"object": "608060405234801561000f575f80fd5b50604051611314380380611314833981810160405281019061003191906101f7565b805f73ffffffffffffffffffffffffffffffffffffffff168173ffffffffffffffffffffffffffffffffffffffff16036100a2575f6040517f1e4fbdf70000000000000000000000000000000000000000000000000000000081526004016100999190610231565b60405180910390fd5b6100b1816100d860201b60201c565b505f8060146101000a81548160ff021916908315150217905550600180819055505061024a565b5f805f9054906101000a900473ffffffffffffffffffffffffffffffffffffffff169050815f806101000a81548173ffffffffffffffffffffffffffffffffffffffff021916908373ffffffffffffffffffffffffffffffffffffffff1602179055508173ffffffffffffffffffffffffffffffffffffffff168173ffffffffffffffffffffffffffffffffffffffff167f8be0079c531659141344cd1fd0a4f28419497f9722a3daafe3b4186f6b6457e060405160405180910390a35050565b5f80fd5b5f73ffffffffffffffffffffffffffffffffffffffff82169050919050565b5f6101c68261019d565b9050919050565b6101d6816101bc565b81146101e0575f80fd5b50565b5f815190506101f1816101cd565b92915050565b5f6020828403121561020c5761020b610199565b5b5f610219848285016101e3565b91505092915050565b61022b816101bc565b82525050565b5f6020820190506102445f830184610222565b92915050565b6110bd806102575f395ff3fe608060405234801561000f575f80fd5b5060043610610091575f3560e01c8063715018a611610064578063715018a61461011d5780638456cb59146101275780638da5cb5b14610131578063cd95fe6b1461014f578063f2fde38b1461017f57610091565b8063176d80c4146100955780631b81f829146100c55780633f4ba83a146100f55780635c975abb146100ff575b5f80fd5b6100af60048036038101906100aa9190610be1565b61019b565b6040516100bc9190610c26565b60405180910390f35b6100df60048036038101906100da9190610c85565b6101b8565b6040516100ec9190610c26565b60405180910390f35b6100fd610367565b005b610107610379565b6040516101149190610c26565b60405180910390f35b61012561038e565b005b61012f6103a1565b005b6101396103b3565b6040516101469190610d04565b60405180910390f35b61016960048036038101906101649190610c85565b6103da565b6040516101769190610c26565b60405180910390f35b61019960048036038101906101949190610d47565b6104e8565b005b6002602052805f5260405f205f915054906101000a900460ff1681565b5f6101c161056c565b6101cb83836105ad565b61020a576040517f08c379a000000000000000000000000000000000000000000000000000000000815260040161020190610dcc565b60405180910390fd5b5f6040518060400160405280855f6008811061022957610228610dea565b5b602002013581526020018560016008811061024757610246610dea565b5b602002013581525090505f604051806040016040528060405180604001604052808860026008811061027c5761027b610dea565b5b602002013581526020018860036008811061029a57610299610dea565b5b602002013581525081526020016040518060400160405280886004600881106102c6576102c5610dea565b5b60200201358152602001886005600881106102e4576102e3610dea565b5b602002013581525081525090505f60405180604001604052808760066008811061031157610310610dea565b5b602002013581526020018760076008811061032f5761032e610dea565b5b6020020135815250905061035c838383885f6001811061035257610351610dea565b5b6020020135610662565b935050505092915050565b61036f6106b3565b61037761073a565b565b5f8060149054906101000a900460ff16905090565b6103966106b3565b61039f5f61079b565b565b6103a96106b3565b6103b161085c565b565b5f805f9054906101000a900473ffffffffffffffffffffffffffffffffffffffff16905090565b5f6103e361056c565b6103eb6108be565b5f6103f68484610904565b90505f3073ffffffffffffffffffffffffffffffffffffffff16631b81f82986866040518363ffffffff1660e01b8152600401610434929190610e41565b602060405180830381865afa15801561044f573d5f803e3d5ffd5b505050506040513d601f19601f820116820180604052508101906104739190610e94565b90508060025f8481526020019081526020015f205f6101000a81548160ff021916908315150217905550817ff8ea4b84d199e84ff35249e26840ceba1b2a1711d50a01b47e98173701172180826040516104cd9190610c26565b60405180910390a280925050506104e2610936565b92915050565b6104f06106b3565b5f73ffffffffffffffffffffffffffffffffffffffff168173ffffffffffffffffffffffffffffffffffffffff1603610560575f6040517f1e4fbdf70000000000000000000000000000000000000000000000000000000081526004016105579190610d04565b60405180910390fd5b6105698161079b565b50565b610574610379565b156105ab576040517fd93c066500000000000000000000000000000000000000000000000000000000815260040160405180910390fd5b565b5f805f90505b6008811015610610577f30644e72e131a029b85045b68181585d2833e84879b9709143e1f593f00000018482600881106105f0576105ef610dea565b5b602002013510610603575f91505061065c565b80806001019150506105b3565b507f30644e72e131a029b85045b68181585d2833e84879b9709143e1f593f0000001825f6001811061064557610644610dea565b5b602002013510610657575f905061065c565b600190505b92915050565b5f61066c8561093f565b158061067e575061067c846109cf565b155b8061068f575061068d8361093f565b155b1561069c575f90506106ab565b6106a885858585610ae7565b90505b949350505050565b6106bb610b63565b73ffffffffffffffffffffffffffffffffffffffff166106d96103b3565b73ffffffffffffffffffffffffffffffffffffffff1614610738576106fc610b63565b6040517f118cdaa700000000000000000000000000000000000000000000000000000000815260040161072f9190610d04565b60405180910390fd5b565b610742610b6a565b5f8060146101000a81548160ff0219169083151502179055507f5db9ee0a495bf2e6ff9c91a7834c1ba4fdd244a5e8aa4e537bd38aeae4b073aa610784610b63565b6040516107919190610d04565b60405180910390a1565b5f805f9054906101000a900473ffffffffffffffffffffffffffffffffffffffff169050815f806101000a81548173ffffffffffffffffffffffffffffffffffffffff021916908373ffffffffffffffffffffffffffffffffffffffff1602179055508173ffffffffffffffffffffffffffffffffffffffff168173ffffffffffffffffffffffffffffffffffffffff167f8be0079c531659141344cd1fd0a4f28419497f9722a3daafe3b4186f6b6457e060405160405180910390a35050565b61086461056c565b60015f60146101000a81548160ff0219169083151502179055507f62e78cea01bee320cd4e420270b5ea74000d11b0c9f74754ebdbfc544b05a2586108a7610b63565b6040516108b49190610d04565b60405180910390a1565b6002600154036108fa576040517f3ee5aeb500000000000000000000000000000000000000000000000000000000815260040160405180910390fd5b6002600181905550565b5f8282604051602001610918929190610ee0565b60405160208183030381529060405280519060200120905092915050565b60018081905550565b5f807f30644e72e131a029b85045b68181585d2833e84879b9709143e1f593f000000190505f835f015190505f846020015190505f838061098357610982610f0c565b5b82830990505f848061099857610997610f0c565b5b600386806109a9576109a8610f0c565b5b8688806109b9576109b8610f0c565b5b8889090908905080821495505050505050919050565b5f7f30644e72e131a029b85045b68181585d2833e84879b9709143e1f593f0000001825f01515f60028110610a0757610a06610dea565b5b6020020151108015610a5357507f30644e72e131a029b85045b68181585d2833e84879b9709143e1f593f0000001825f0151600160028110610a4c57610a4b610dea565b5b6020020151105b8015610a9957507f30644e72e131a029b85045b68181585d2833e84879b9709143e1f593f000000182602001515f60028110610a9257610a91610dea565b5b6020020151105b8015610ae057507f30644e72e131a029b85045b68181585d2833e84879b9709143e1f593f00000018260200151600160028110610ad957610ad8610dea565b5b6020020151105b9050919050565b5f80855f01518660200151865f01518760200151875f0151886020015188604051602001610b1b9796959493929190611007565b6040516020818303038152906040528051906020012090507f30644e72e131a029b85045b68181585d2833e84879b9709143e1f593f0000001815f1c10915050949350505050565b5f33905090565b610b72610379565b610ba8576040517f8dfc202b00000000000000000000000000000000000000000000000000000000815260040160405180910390fd5b565b5f80fd5b5f819050919050565b610bc081610bae565b8114610bca575f80fd5b50565b5f81359050610bdb81610bb7565b92915050565b5f60208284031215610bf657610bf5610baa565b5b5f610c0384828501610bcd565b91505092915050565b5f8115159050919050565b610c2081610c0c565b82525050565b5f602082019050610c395f830184610c17565b92915050565b5f80fd5b5f81905082602060080282011115610c5e57610c5d610c3f565b5b92915050565b5f81905082602060010282011115610c7f57610c7e610c3f565b5b92915050565b5f806101208385031215610c9c57610c9b610baa565b5b5f610ca985828601610c43565b925050610100610cbb85828601610c64565b9150509250929050565b5f73ffffffffffffffffffffffffffffffffffffffff82169050919050565b5f610cee82610cc5565b9050919050565b610cfe81610ce4565b82525050565b5f602082019050610d175f830184610cf5565b92915050565b610d2681610ce4565b8114610d30575f80fd5b50565b5f81359050610d4181610d1d565b92915050565b5f60208284031215610d5c57610d5b610baa565b5b5f610d6984828501610d33565b91505092915050565b5f82825260208201905092915050565b7f496e76616c696420696e70757420706172616d657465727300000000000000005f82015250565b5f610db6601883610d72565b9150610dc182610d82565b602082019050919050565b5f6020820190508181035f830152610de381610daa565b9050919050565b7f4e487b71000000000000000000000000000000000000000000000000000000005f52603260045260245ffd5b82818337505050565b610e2d6101008383610e17565b5050565b610e3d60208383610e17565b5050565b5f61012082019050610e555f830185610e20565b610e63610100830184610e31565b9392505050565b610e7381610c0c565b8114610e7d575f80fd5b50565b5f81519050610e8e81610e6a565b92915050565b5f60208284031215610ea957610ea8610baa565b5b5f610eb684828501610e80565b91505092915050565b610ecc6101008383610e17565b5050565b610edc60208383610e17565b5050565b5f610eeb8285610ebf565b61010082019150610efc8284610ed0565b6020820191508190509392505050565b7f4e487b71000000000000000000000000000000000000000000000000000000005f52601260045260245ffd5b5f819050919050565b5f819050919050565b610f5c610f5782610f39565b610f42565b82525050565b5f60029050919050565b5f81905092915050565b5f819050919050565b610f8881610f39565b82525050565b5f610f998383610f7f565b60208301905092915050565b5f602082019050919050565b610fba81610f62565b610fc48184610f6c565b9250610fcf82610f76565b805f5b83811015610fff578151610fe68782610f8e565b9650610ff183610fa5565b925050600181019050610fd2565b505050505050565b5f611012828a610f4b565b6020820191506110228289610f4b565b6020820191506110328288610fb1565b6040820191506110428287610fb1565b6040820191506110528286610f4b565b6020820191506110628285610f4b565b6020820191506110728284610f4b565b6020820191508190509897505050505050505056fea264697066735822122085b9425c53c5c8786b76be2a9c37c98d7b52886fe66a570b79834a8b193865a964736f6c634300081a0033",
					"opcodes": "PUSH1 0x80 PUSH1 0x40 MSTORE CALLVALUE DUP1 ISZERO PUSH2 0xF JUMPI PUSH0 DUP1 REVERT JUMPDEST POP PUSH1 0x40 MLOAD PUSH2 0x1314 CODESIZE SUB DUP1 PUSH2 0x1314 DUP4 CODECOPY DUP2 DUP2 ADD PUSH1 0x40 MSTORE DUP2 ADD SWAP1 PUSH2 0x31 SWAP2 SWAP1 PUSH2 0x1F7 JUMP JUMPDEST DUP1 PUSH0 PUSH20 0xFFFFFFFFFFFFFFFFFFFFFFFFFFFFFFFFFFFFFFFF AND DUP2 PUSH20 0xFFFFFFFFFFFFFFFFFFFFFFFFFFFFFFFFFFFFFFFF AND SUB PUSH2 0xA2 JUMPI PUSH0 PUSH1 0x40 MLOAD PUSH32 0x1E4FBDF700000000000000000000000000000000000000000000000000000000 DUP2 MSTORE PUSH1 0x4 ADD PUSH2 0x99 SWAP2 SWAP1 PUSH2 0x231 JUMP JUMPDEST PUSH1 0x40 MLOAD DUP1 SWAP2 SUB SWAP1 REVERT JUMPDEST PUSH2 0xB1 DUP2 PUSH2 0xD8 PUSH1 0x20 SHL PUSH1 0x20 SHR JUMP JUMPDEST POP PUSH0 DUP1 PUSH1 0x14 PUSH2 0x100 EXP DUP2 SLOAD DUP2 PUSH1 0xFF MUL NOT AND SWAP1 DUP4 ISZERO ISZERO MUL OR SWAP1 SSTORE POP PUSH1 0x1 DUP1 DUP2 SWAP1 SSTORE POP POP PUSH2 0x24A JUMP JUMPDEST PUSH0 DUP1 PUSH0 SWAP1 SLOAD SWAP1 PUSH2 0x100 EXP SWAP1 DIV PUSH20 0xFFFFFFFFFFFFFFFFFFFFFFFFFFFFFFFFFFFFFFFF AND SWAP1 POP DUP2 PUSH0 DUP1 PUSH2 0x100 EXP DUP2 SLOAD DUP2 PUSH20 0xFFFFFFFFFFFFFFFFFFFFFFFFFFFFFFFFFFFFFFFF MUL NOT AND SWAP1 DUP4 PUSH20 0xFFFFFFFFFFFFFFFFFFFFFFFFFFFFFFFFFFFFFFFF AND MUL OR SWAP1 SSTORE POP DUP2 PUSH20 0xFFFFFFFFFFFFFFFFFFFFFFFFFFFFFFFFFFFFFFFF AND DUP2 PUSH20 0xFFFFFFFFFFFFFFFFFFFFFFFFFFFFFFFFFFFFFFFF AND PUSH32 0x8BE0079C531659141344CD1FD0A4F28419497F9722A3DAAFE3B4186F6B6457E0 PUSH1 0x40 MLOAD PUSH1 0x40 MLOAD DUP1 SWAP2 SUB SWAP1 LOG3 POP POP JUMP JUMPDEST PUSH0 DUP1 REVERT JUMPDEST PUSH0 PUSH20 0xFFFFFFFFFFFFFFFFFFFFFFFFFFFFFFFFFFFFFFFF DUP3 AND SWAP1 POP SWAP2 SWAP1 POP JUMP JUMPDEST PUSH0 PUSH2 0x1C6 DUP3 PUSH2 0x19D JUMP JUMPDEST SWAP1 POP SWAP2 SWAP1 POP JUMP JUMPDEST PUSH2 0x1D6 DUP2 PUSH2 0x1BC JUMP JUMPDEST DUP2 EQ PUSH2 0x1E0 JUMPI PUSH0 DUP1 REVERT JUMPDEST POP JUMP JUMPDEST PUSH0 DUP2 MLOAD SWAP1 POP PUSH2 0x1F1 DUP2 PUSH2 0x1CD JUMP JUMPDEST SWAP3 SWAP2 POP POP JUMP JUMPDEST PUSH0 PUSH1 0x20 DUP3 DUP5 SUB SLT ISZERO PUSH2 0x20C JUMPI PUSH2 0x20B PUSH2 0x199 JUMP JUMPDEST JUMPDEST PUSH0 PUSH2 0x219 DUP5 DUP3 DUP6 ADD PUSH2 0x1E3 JUMP JUMPDEST SWAP2 POP POP SWAP3 SWAP2 POP POP JUMP JUMPDEST PUSH2 0x22B DUP2 PUSH2 0x1BC JUMP JUMPDEST DUP3 MSTORE POP POP JUMP JUMPDEST PUSH0 PUSH1 0x20 DUP3 ADD SWAP1 POP PUSH2 0x244 PUSH0 DUP4 ADD DUP5 PUSH2 0x222 JUMP JUMPDEST SWAP3 SWAP2 POP POP JUMP JUMPDEST PUSH2 0x10BD DUP1 PUSH2 0x257 PUSH0 CODECOPY PUSH0 RETURN INVALID PUSH1 0x80 PUSH1 0x40 MSTORE CALLVALUE DUP1 ISZERO PUSH2 0xF JUMPI PUSH0 DUP1 REVERT JUMPDEST POP PUSH1 0x4 CALLDATASIZE LT PUSH2 0x91 JUMPI PUSH0 CALLDATALOAD PUSH1 0xE0 SHR DUP1 PUSH4 0x715018A6 GT PUSH2 0x64 JUMPI DUP1 PUSH4 0x715018A6 EQ PUSH2 0x11D JUMPI DUP1 PUSH4 0x8456CB59 EQ PUSH2 0x127 JUMPI DUP1 PUSH4 0x8DA5CB5B EQ PUSH2 0x131 JUMPI DUP1 PUSH4 0xCD95FE6B EQ PUSH2 0x14F JUMPI DUP1 PUSH4 0xF2FDE38B EQ PUSH2 0x17F JUMPI PUSH2 0x91 JUMP JUMPDEST DUP1 PUSH4 0x176D80C4 EQ PUSH2 0x95 JUMPI DUP1 PUSH4 0x1B81F829 EQ PUSH2 0xC5 JUMPI DUP1 PUSH4 0x3F4BA83A EQ PUSH2 0xF5 JUMPI DUP1 PUSH4 0x5C975ABB EQ PUSH2 0xFF JUMPI JUMPDEST PUSH0 DUP1 REVERT JUMPDEST PUSH2 0xAF PUSH1 0x4 DUP1 CALLDATASIZE SUB DUP2 ADD SWAP1 PUSH2 0xAA SWAP2 SWAP1 PUSH2 0xBE1 JUMP JUMPDEST PUSH2 0x19B JUMP JUMPDEST PUSH1 0x40 MLOAD PUSH2 0xBC SWAP2 SWAP1 PUSH2 0xC26 JUMP JUMPDEST PUSH1 0x40 MLOAD DUP1 SWAP2 SUB SWAP1 RETURN JUMPDEST PUSH2 0xDF PUSH1 0x4 DUP1 CALLDATASIZE SUB DUP2 ADD SWAP1 PUSH2 0xDA SWAP2 SWAP1 PUSH2 0xC85 JUMP JUMPDEST PUSH2 0x1B8 JUMP JUMPDEST PUSH1 0x40 MLOAD PUSH2 0xEC SWAP2 SWAP1 PUSH2 0xC26 JUMP JUMPDEST PUSH1 0x40 MLOAD DUP1 SWAP2 SUB SWAP1 RETURN JUMPDEST PUSH2 0xFD PUSH2 0x367 JUMP JUMPDEST STOP JUMPDEST PUSH2 0x107 PUSH2 0x379 JUMP JUMPDEST PUSH1 0x40 MLOAD PUSH2 0x114 SWAP2 SWAP1 PUSH2 0xC26 JUMP JUMPDEST PUSH1 0x40 MLOAD DUP1 SWAP2 SUB SWAP1 RETURN JUMPDEST PUSH2 0x125 PUSH2 0x38E JUMP JUMPDEST STOP JUMPDEST PUSH2 0x12F PUSH2 0x3A1 JUMP JUMPDEST STOP JUMPDEST PUSH2 0x139 PUSH2 0x3B3 JUMP JUMPDEST PUSH1 0x40 MLOAD PUSH2 0x146 SWAP2 SWAP1 PUSH2 0xD04 JUMP JUMPDEST PUSH1 0x40 MLOAD DUP1 SWAP2 SUB SWAP1 RETURN JUMPDEST PUSH2 0x169 PUSH1 0x4 DUP1 CALLDATASIZE SUB DUP2 ADD SWAP1 PUSH2 0x164 SWAP2 SWAP1 PUSH2 0xC85 JUMP JUMPDEST PUSH2 0x3DA JUMP JUMPDEST PUSH1 0x40 MLOAD PUSH2 0x176 SWAP2 SWAP1 PUSH2 0xC26 JUMP JUMPDEST PUSH1 0x40 MLOAD DUP1 SWAP2 SUB SWAP1 RETURN JUMPDEST PUSH2 0x199 PUSH1 0x4 DUP1 CALLDATASIZE SUB DUP2 ADD SWAP1 PUSH2 0x194 SWAP2 SWAP1 PUSH2 0xD47 JUMP JUMPDEST PUSH2 0x4E8 JUMP JUMPDEST STOP JUMPDEST PUSH1 0x2 PUSH1 0x20 MSTORE DUP1 PUSH0 MSTORE PUSH1 0x40 PUSH0 KECCAK256 PUSH0 SWAP2 POP SLOAD SWAP1 PUSH2 0x100 EXP SWAP1 DIV PUSH1 0xFF AND DUP2 JUMP JUMPDEST PUSH0 PUSH2 0x1C1 PUSH2 0x56C JUMP JUMPDEST PUSH2 0x1CB DUP4 DUP4 PUSH2 0x5AD JUMP JUMPDEST PUSH2 0x20A JUMPI PUSH1 0x40 MLOAD PUSH32 0x8C379A000000000000000000000000000000000000000000000000000000000 DUP2 MSTORE PUSH1 0x4 ADD PUSH2 0x201 SWAP1 PUSH2 0xDCC JUMP JUMPDEST PUSH1 0x40 MLOAD DUP1 SWAP2 SUB SWAP1 REVERT JUMPDEST PUSH0 PUSH1 0x40 MLOAD DUP1 PUSH1 0x40 ADD PUSH1 0x40 MSTORE DUP1 DUP6 PUSH0 PUSH1 0x8 DUP2 LT PUSH2 0x229 JUMPI PUSH2 0x228 PUSH2 0xDEA JUMP JUMPDEST JUMPDEST PUSH1 0x20 MUL ADD CALLDATALOAD DUP2 MSTORE PUSH1 0x20 ADD DUP6 PUSH1 0x1 PUSH1 0x8 DUP2 LT PUSH2 0x247 JUMPI PUSH2 0x246 PUSH2 0xDEA JUMP JUMPDEST JUMPDEST PUSH1 0x20 MUL ADD CALLDATALOAD DUP2 MSTORE POP SWAP1 POP PUSH0 PUSH1 0x40 MLOAD DUP1 PUSH1 0x40 ADD PUSH1 0x40 MSTORE DUP1 PUSH1 0x40 MLOAD DUP1 PUSH1 0x40 ADD PUSH1 0x40 MSTORE DUP1 DUP9 PUSH1 0x2 PUSH1 0x8 DUP2 LT PUSH2 0x27C JUMPI PUSH2 0x27B PUSH2 0xDEA JUMP JUMPDEST JUMPDEST PUSH1 0x20 MUL ADD CALLDATALOAD DUP2 MSTORE PUSH1 0x20 ADD DUP9 PUSH1 0x3 PUSH1 0x8 DUP2 LT PUSH2 0x29A JUMPI PUSH2 0x299 PUSH2 0xDEA JUMP JUMPDEST JUMPDEST PUSH1 0x20 MUL ADD CALLDATALOAD DUP2 MSTORE POP DUP2 MSTORE PUSH1 0x20 ADD PUSH1 0x40 MLOAD DUP1 PUSH1 0x40 ADD PUSH1 0x40 MSTORE DUP1 DUP9 PUSH1 0x4 PUSH1 0x8 DUP2 LT PUSH2 0x2C6 JUMPI PUSH2 0x2C5 PUSH2 0xDEA JUMP JUMPDEST JUMPDEST PUSH1 0x20 MUL ADD CALLDATALOAD DUP2 MSTORE PUSH1 0x20 ADD DUP9 PUSH1 0x5 PUSH1 0x8 DUP2 LT PUSH2 0x2E4 JUMPI PUSH2 0x2E3 PUSH2 0xDEA JUMP JUMPDEST JUMPDEST PUSH1 0x20 MUL ADD CALLDATALOAD DUP2 MSTORE POP DUP2 MSTORE POP SWAP1 POP PUSH0 PUSH1 0x40 MLOAD DUP1 PUSH1 0x40 ADD PUSH1 0x40 MSTORE DUP1 DUP8 PUSH1 0x6 PUSH1 0x8 DUP2 LT PUSH2 0x311 JUMPI PUSH2 0x310 PUSH2 0xDEA JUMP JUMPDEST JUMPDEST PUSH1 0x20 MUL ADD CALLDATALOAD DUP2 MSTORE PUSH1 0x20 ADD DUP8 PUSH1 0x7 PUSH1 0x8 DUP2 LT PUSH2 0x32F JUMPI PUSH2 0x32E PUSH2 0xDEA JUMP JUMPDEST JUMPDEST PUSH1 0x20 MUL ADD CALLDATALOAD DUP2 MSTORE POP SWAP1 POP PUSH2 0x35C DUP4 DUP4 DUP4 DUP9 PUSH0 PUSH1 0x1 DUP2 LT PUSH2 0x352 JUMPI PUSH2 0x351 PUSH2 0xDEA JUMP JUMPDEST JUMPDEST PUSH1 0x20 MUL ADD CALLDATALOAD PUSH2 0x662 JUMP JUMPDEST SWAP4 POP POP POP POP SWAP3 SWAP2 POP POP JUMP JUMPDEST PUSH2 0x36F PUSH2 0x6B3 JUMP JUMPDEST PUSH2 0x377 PUSH2 0x73A JUMP JUMPDEST JUMP JUMPDEST PUSH0 DUP1 PUSH1 0x14 SWAP1 SLOAD SWAP1 PUSH2 0x100 EXP SWAP1 DIV PUSH1 0xFF AND SWAP1 POP SWAP1 JUMP JUMPDEST PUSH2 0x396 PUSH2 0x6B3 JUMP JUMPDEST PUSH2 0x39F PUSH0 PUSH2 0x79B JUMP JUMPDEST JUMP JUMPDEST PUSH2 0x3A9 PUSH2 0x6B3 JUMP JUMPDEST PUSH2 0x3B1 PUSH2 0x85C JUMP JUMPDEST JUMP JUMPDEST PUSH0 DUP1 PUSH0 SWAP1 SLOAD SWAP1 PUSH2 0x100 EXP SWAP1 DIV PUSH20 0xFFFFFFFFFFFFFFFFFFFFFFFFFFFFFFFFFFFFFFFF AND SWAP1 POP SWAP1 JUMP JUMPDEST PUSH0 PUSH2 0x3E3 PUSH2 0x56C JUMP JUMPDEST PUSH2 0x3EB PUSH2 0x8BE JUMP JUMPDEST PUSH0 PUSH2 0x3F6 DUP5 DUP5 PUSH2 0x904 JUMP JUMPDEST SWAP1 POP PUSH0 ADDRESS PUSH20 0xFFFFFFFFFFFFFFFFFFFFFFFFFFFFFFFFFFFFFFFF AND PUSH4 0x1B81F829 DUP7 DUP7 PUSH1 0x40 MLOAD DUP4 PUSH4 0xFFFFFFFF AND PUSH1 0xE0 SHL DUP2 MSTORE PUSH1 0x4 ADD PUSH2 0x434 SWAP3 SWAP2 SWAP1 PUSH2 0xE41 JUMP JUMPDEST PUSH1 0x20 PUSH1 0x40 MLOAD DUP1 DUP4 SUB DUP2 DUP7 GAS STATICCALL ISZERO DUP1 ISZERO PUSH2 0x44F JUMPI RETURNDATASIZE PUSH0 DUP1 RETURNDATACOPY RETURNDATASIZE PUSH0 REVERT JUMPDEST POP POP POP POP PUSH1 0x40 MLOAD RETURNDATASIZE PUSH1 0x1F NOT PUSH1 0x1F DUP3 ADD AND DUP3 ADD DUP1 PUSH1 0x40 MSTORE POP DUP2 ADD SWAP1 PUSH2 0x473 SWAP2 SWAP1 PUSH2 0xE94 JUMP JUMPDEST SWAP1 POP DUP1 PUSH1 0x2 PUSH0 DUP5 DUP2 MSTORE PUSH1 0x20 ADD SWAP1 DUP2 MSTORE PUSH1 0x20 ADD PUSH0 KECCAK256 PUSH0 PUSH2 0x100 EXP DUP2 SLOAD DUP2 PUSH1 0xFF MUL NOT AND SWAP1 DUP4 ISZERO ISZERO MUL OR SWAP1 SSTORE POP DUP2 PUSH32 0xF8EA4B84D199E84FF35249E26840CEBA1B2A1711D50A01B47E98173701172180 DUP3 PUSH1 0x40 MLOAD PUSH2 0x4CD SWAP2 SWAP1 PUSH2 0xC26 JUMP JUMPDEST PUSH1 0x40 MLOAD DUP1 SWAP2 SUB SWAP1 LOG2 DUP1 SWAP3 POP POP POP PUSH2 0x4E2 PUSH2 0x936 JUMP JUMPDEST SWAP3 SWAP2 POP POP JUMP JUMPDEST PUSH2 0x4F0 PUSH2 0x6B3 JUMP JUMPDEST PUSH0 PUSH20 0xFFFFFFFFFFFFFFFFFFFFFFFFFFFFFFFFFFFFFFFF AND DUP2 PUSH20 0xFFFFFFFFFFFFFFFFFFFFFFFFFFFFFFFFFFFFFFFF AND SUB PUSH2 0x560 JUMPI PUSH0 PUSH1 0x40 MLOAD PUSH32 0x1E4FBDF700000000000000000000000000000000000000000000000000000000 DUP2 MSTORE PUSH1 0x4 ADD PUSH2 0x557 SWAP2 SWAP1 PUSH2 0xD04 JUMP JUMPDEST PUSH1 0x40 MLOAD DUP1 SWAP2 SUB SWAP1 REVERT JUMPDEST PUSH2 0x569 DUP2 PUSH2 0x79B JUMP JUMPDEST POP JUMP JUMPDEST PUSH2 0x574 PUSH2 0x379 JUMP JUMPDEST ISZERO PUSH2 0x5AB JUMPI PUSH1 0x40 MLOAD PUSH32 0xD93C066500000000000000000000000000000000000000000000000000000000 DUP2 MSTORE PUSH1 0x4 ADD PUSH1 0x40 MLOAD DUP1 SWAP2 SUB SWAP1 REVERT JUMPDEST JUMP JUMPDEST PUSH0 DUP1 PUSH0 SWAP1 POP JUMPDEST PUSH1 0x8 DUP2 LT ISZERO PUSH2 0x610 JUMPI PUSH32 0x30644E72E131A029B85045B68181585D2833E84879B9709143E1F593F0000001 DUP5 DUP3 PUSH1 0x8 DUP2 LT PUSH2 0x5F0 JUMPI PUSH2 0x5EF PUSH2 0xDEA JUMP JUMPDEST JUMPDEST PUSH1 0x20 MUL ADD CALLDATALOAD LT PUSH2 0x603 JUMPI PUSH0 SWAP2 POP POP PUSH2 0x65C JUMP JUMPDEST DUP1 DUP1 PUSH1 0x1 ADD SWAP2 POP POP PUSH2 0x5B3 JUMP JUMPDEST POP PUSH32 0x30644E72E131A029B85045B68181585D2833E84879B9709143E1F593F0000001 DUP3 PUSH0 PUSH1 0x1 DUP2 LT PUSH2 0x645 JUMPI PUSH2 0x644 PUSH2 0xDEA JUMP JUMPDEST JUMPDEST PUSH1 0x20 MUL ADD CALLDATALOAD LT PUSH2 0x657 JUMPI PUSH0 SWAP1 POP PUSH2 0x65C JUMP JUMPDEST PUSH1 0x1 SWAP1 POP JUMPDEST SWAP3 SWAP2 POP POP JUMP JUMPDEST PUSH0 PUSH2 0x66C DUP6 PUSH2 0x93F JUMP JUMPDEST ISZERO DUP1 PUSH2 0x67E JUMPI POP PUSH2 0x67C DUP5 PUSH2 0x9CF JUMP JUMPDEST ISZERO JUMPDEST DUP1 PUSH2 0x68F JUMPI POP PUSH2 0x68D DUP4 PUSH2 0x93F JUMP JUMPDEST ISZERO JUMPDEST ISZERO PUSH2 0x69C JUMPI PUSH0 SWAP1 POP PUSH2 0x6AB JUMP JUMPDEST PUSH2 0x6A8 DUP6 DUP6 DUP6 DUP6 PUSH2 0xAE7 JUMP JUMPDEST SWAP1 POP JUMPDEST SWAP5 SWAP4 POP POP POP POP JUMP JUMPDEST PUSH2 0x6BB PUSH2 0xB63 JUMP JUMPDEST PUSH20 0xFFFFFFFFFFFFFFFFFFFFFFFFFFFFFFFFFFFFFFFF AND PUSH2 0x6D9 PUSH2 0x3B3 JUMP JUMPDEST PUSH20 0xFFFFFFFFFFFFFFFFFFFFFFFFFFFFFFFFFFFFFFFF AND EQ PUSH2 0x738 JUMPI PUSH2 0x6FC PUSH2 0xB63 JUMP JUMPDEST PUSH1 0x40 MLOAD PUSH32 0x118CDAA700000000000000000000000000000000000000000000000000000000 DUP2 MSTORE PUSH1 0x4 ADD PUSH2 0x72F SWAP2 SWAP1 PUSH2 0xD04 JUMP JUMPDEST PUSH1 0x40 MLOAD DUP1 SWAP2 SUB SWAP1 REVERT JUMPDEST JUMP JUMPDEST PUSH2 0x742 PUSH2 0xB6A JUMP JUMPDEST PUSH0 DUP1 PUSH1 0x14 PUSH2 0x100 EXP DUP2 SLOAD DUP2 PUSH1 0xFF MUL NOT AND SWAP1 DUP4 ISZERO ISZERO MUL OR SWAP1 SSTORE POP PUSH32 0x5DB9EE0A495BF2E6FF9C91A7834C1BA4FDD244A5E8AA4E537BD38AEAE4B073AA PUSH2 0x784 PUSH2 0xB63 JUMP JUMPDEST PUSH1 0x40 MLOAD PUSH2 0x791 SWAP2 SWAP1 PUSH2 0xD04 JUMP JUMPDEST PUSH1 0x40 MLOAD DUP1 SWAP2 SUB SWAP1 LOG1 JUMP JUMPDEST PUSH0 DUP1 PUSH0 SWAP1 SLOAD SWAP1 PUSH2 0x100 EXP SWAP1 DIV PUSH20 0xFFFFFFFFFFFFFFFFFFFFFFFFFFFFFFFFFFFFFFFF AND SWAP1 POP DUP2 PUSH0 DUP1 PUSH2 0x100 EXP DUP2 SLOAD DUP2 PUSH20 0xFFFFFFFFFFFFFFFFFFFFFFFFFFFFFFFFFFFFFFFF MUL NOT AND SWAP1 DUP4 PUSH20 0xFFFFFFFFFFFFFFFFFFFFFFFFFFFFFFFFFFFFFFFF AND MUL OR SWAP1 SSTORE POP DUP2 PUSH20 0xFFFFFFFFFFFFFFFFFFFFFFFFFFFFFFFFFFFFFFFF AND DUP2 PUSH20 0xFFFFFFFFFFFFFFFFFFFFFFFFFFFFFFFFFFFFFFFF AND PUSH32 0x8BE0079C531659141344CD1FD0A4F28419497F9722A3DAAFE3B4186F6B6457E0 PUSH1 0x40 MLOAD PUSH1 0x40 MLOAD DUP1 SWAP2 SUB SWAP1 LOG3 POP POP JUMP JUMPDEST PUSH2 0x864 PUSH2 0x56C JUMP JUMPDEST PUSH1 0x1 PUSH0 PUSH1 0x14 PUSH2 0x100 EXP DUP2 SLOAD DUP2 PUSH1 0xFF MUL NOT AND SWAP1 DUP4 ISZERO ISZERO MUL OR SWAP1 SSTORE POP PUSH32 0x62E78CEA01BEE320CD4E420270B5EA74000D11B0C9F74754EBDBFC544B05A258 PUSH2 0x8A7 PUSH2 0xB63 JUMP JUMPDEST PUSH1 0x40 MLOAD PUSH2 0x8B4 SWAP2 SWAP1 PUSH2 0xD04 JUMP JUMPDEST PUSH1 0x40 MLOAD DUP1 SWAP2 SUB SWAP1 LOG1 JUMP JUMPDEST PUSH1 0x2 PUSH1 0x1 SLOAD SUB PUSH2 0x8FA JUMPI PUSH1 0x40 MLOAD PUSH32 0x3EE5AEB500000000000000000000000000000000000000000000000000000000 DUP2 MSTORE PUSH1 0x4 ADD PUSH1 0x40 MLOAD DUP1 SWAP2 SUB SWAP1 REVERT JUMPDEST PUSH1 0x2 PUSH1 0x1 DUP2 SWAP1 SSTORE POP JUMP JUMPDEST PUSH0 DUP3 DUP3 PUSH1 0x40 MLOAD PUSH1 0x20 ADD PUSH2 0x918 SWAP3 SWAP2 SWAP1 PUSH2 0xEE0 JUMP JUMPDEST PUSH1 0x40 MLOAD PUSH1 0x20 DUP2 DUP4 SUB SUB DUP2 MSTORE SWAP1 PUSH1 0x40 MSTORE DUP1 MLOAD SWAP1 PUSH1 0x20 ADD KECCAK256 SWAP1 POP SWAP3 SWAP2 POP POP JUMP JUMPDEST PUSH1 0x1 DUP1 DUP2 SWAP1 SSTORE POP JUMP JUMPDEST PUSH0 DUP1 PUSH32 0x30644E72E131A029B85045B68181585D2833E84879B9709143E1F593F0000001 SWAP1 POP PUSH0 DUP4 PUSH0 ADD MLOAD SWAP1 POP PUSH0 DUP5 PUSH1 0x20 ADD MLOAD SWAP1 POP PUSH0 DUP4 DUP1 PUSH2 0x983 JUMPI PUSH2 0x982 PUSH2 0xF0C JUMP JUMPDEST JUMPDEST DUP3 DUP4 MULMOD SWAP1 POP PUSH0 DUP5 DUP1 PUSH2 0x998 JUMPI PUSH2 0x997 PUSH2 0xF0C JUMP JUMPDEST JUMPDEST PUSH1 0x3 DUP7 DUP1 PUSH2 0x9A9 JUMPI PUSH2 0x9A8 PUSH2 0xF0C JUMP JUMPDEST JUMPDEST DUP7 DUP9 DUP1 PUSH2 0x9B9 JUMPI PUSH2 0x9B8 PUSH2 0xF0C JUMP JUMPDEST JUMPDEST DUP9 DUP10 MULMOD MULMOD ADDMOD SWAP1 POP DUP1 DUP3 EQ SWAP6 POP POP POP POP POP POP SWAP2 SWAP1 POP JUMP JUMPDEST PUSH0 PUSH32 0x30644E72E131A029B85045B68181585D2833E84879B9709143E1F593F0000001 DUP3 PUSH0 ADD MLOAD PUSH0 PUSH1 0x2 DUP2 LT PUSH2 0xA07 JUMPI PUSH2 0xA06 PUSH2 0xDEA JUMP JUMPDEST JUMPDEST PUSH1 0x20 MUL ADD MLOAD LT DUP1 ISZERO PUSH2 0xA53 JUMPI POP PUSH32 0x30644E72E131A029B85045B68181585D2833E84879B9709143E1F593F0000001 DUP3 PUSH0 ADD MLOAD PUSH1 0x1 PUSH1 0x2 DUP2 LT PUSH2 0xA4C JUMPI PUSH2 0xA4B PUSH2 0xDEA JUMP JUMPDEST JUMPDEST PUSH1 0x20 MUL ADD MLOAD LT JUMPDEST DUP1 ISZERO PUSH2 0xA99 JUMPI POP PUSH32 0x30644E72E131A029B85045B68181585D2833E84879B9709143E1F593F0000001 DUP3 PUSH1 0x20 ADD MLOAD PUSH0 PUSH1 0x2 DUP2 LT PUSH2 0xA92 JUMPI PUSH2 0xA91 PUSH2 0xDEA JUMP JUMPDEST JUMPDEST PUSH1 0x20 MUL ADD MLOAD LT JUMPDEST DUP1 ISZERO PUSH2 0xAE0 JUMPI POP PUSH32 0x30644E72E131A029B85045B68181585D2833E84879B9709143E1F593F0000001 DUP3 PUSH1 0x20 ADD MLOAD PUSH1 0x1 PUSH1 0x2 DUP2 LT PUSH2 0xAD9 JUMPI PUSH2 0xAD8 PUSH2 0xDEA JUMP JUMPDEST JUMPDEST PUSH1 0x20 MUL ADD MLOAD LT JUMPDEST SWAP1 POP SWAP2 SWAP1 POP JUMP JUMPDEST PUSH0 DUP1 DUP6 PUSH0 ADD MLOAD DUP7 PUSH1 0x20 ADD MLOAD DUP7 PUSH0 ADD MLOAD DUP8 PUSH1 0x20 ADD MLOAD DUP8 PUSH0 ADD MLOAD DUP9 PUSH1 0x20 ADD MLOAD DUP9 PUSH1 0x40 MLOAD PUSH1 0x20 ADD PUSH2 0xB1B SWAP8 SWAP7 SWAP6 SWAP5 SWAP4 SWAP3 SWAP2 SWAP1 PUSH2 0x1007 JUMP JUMPDEST PUSH1 0x40 MLOAD PUSH1 0x20 DUP2 DUP4 SUB SUB DUP2 MSTORE SWAP1 PUSH1 0x40 MSTORE DUP1 MLOAD SWAP1 PUSH1 0x20 ADD KECCAK256 SWAP1 POP PUSH32 0x30644E72E131A029B85045B68181585D2833E84879B9709143E1F593F0000001 DUP2 PUSH0 SHR LT SWAP2 POP POP SWAP5 SWAP4 POP POP POP POP JUMP JUMPDEST PUSH0 CALLER SWAP1 POP SWAP1 JUMP JUMPDEST PUSH2 0xB72 PUSH2 0x379 JUMP JUMPDEST PUSH2 0xBA8 JUMPI PUSH1 0x40 MLOAD PUSH32 0x8DFC202B00000000000000000000000000000000000000000000000000000000 DUP2 MSTORE PUSH1 0x4 ADD PUSH1 0x40 MLOAD DUP1 SWAP2 SUB SWAP1 REVERT JUMPDEST JUMP JUMPDEST PUSH0 DUP1 REVERT JUMPDEST PUSH0 DUP2 SWAP1 POP SWAP2 SWAP1 POP JUMP JUMPDEST PUSH2 0xBC0 DUP2 PUSH2 0xBAE JUMP JUMPDEST DUP2 EQ PUSH2 0xBCA JUMPI PUSH0 DUP1 REVERT JUMPDEST POP JUMP JUMPDEST PUSH0 DUP2 CALLDATALOAD SWAP1 POP PUSH2 0xBDB DUP2 PUSH2 0xBB7 JUMP JUMPDEST SWAP3 SWAP2 POP POP JUMP JUMPDEST PUSH0 PUSH1 0x20 DUP3 DUP5 SUB SLT ISZERO PUSH2 0xBF6 JUMPI PUSH2 0xBF5 PUSH2 0xBAA JUMP JUMPDEST JUMPDEST PUSH0 PUSH2 0xC03 DUP5 DUP3 DUP6 ADD PUSH2 0xBCD JUMP JUMPDEST SWAP2 POP POP SWAP3 SWAP2 POP POP JUMP JUMPDEST PUSH0 DUP2 ISZERO ISZERO SWAP1 POP SWAP2 SWAP1 POP JUMP JUMPDEST PUSH2 0xC20 DUP2 PUSH2 0xC0C JUMP JUMPDEST DUP3 MSTORE POP POP JUMP JUMPDEST PUSH0 PUSH1 0x20 DUP3 ADD SWAP1 POP PUSH2 0xC39 PUSH0 DUP4 ADD DUP5 PUSH2 0xC17 JUMP JUMPDEST SWAP3 SWAP2 POP POP JUMP JUMPDEST PUSH0 DUP1 REVERT JUMPDEST PUSH0 DUP2 SWAP1 POP DUP3 PUSH1 0x20 PUSH1 0x8 MUL DUP3 ADD GT ISZERO PUSH2 0xC5E JUMPI PUSH2 0xC5D PUSH2 0xC3F JUMP JUMPDEST JUMPDEST SWAP3 SWAP2 POP POP JUMP JUMPDEST PUSH0 DUP2 SWAP1 POP DUP3 PUSH1 0x20 PUSH1 0x1 MUL DUP3 ADD GT ISZERO PUSH2 0xC7F JUMPI PUSH2 0xC7E PUSH2 0xC3F JUMP JUMPDEST JUMPDEST SWAP3 SWAP2 POP POP JUMP JUMPDEST PUSH0 DUP1 PUSH2 0x120 DUP4 DUP6 SUB SLT ISZERO PUSH2 0xC9C JUMPI PUSH2 0xC9B PUSH2 0xBAA JUMP JUMPDEST JUMPDEST PUSH0 PUSH2 0xCA9 DUP6 DUP3 DUP7 ADD PUSH2 0xC43 JUMP JUMPDEST SWAP3 POP POP PUSH2 0x100 PUSH2 0xCBB DUP6 DUP3 DUP7 ADD PUSH2 0xC64 JUMP JUMPDEST SWAP2 POP POP SWAP3 POP SWAP3 SWAP1 POP JUMP JUMPDEST PUSH0 PUSH20 0xFFFFFFFFFFFFFFFFFFFFFFFFFFFFFFFFFFFFFFFF DUP3 AND SWAP1 POP SWAP2 SWAP1 POP JUMP JUMPDEST PUSH0 PUSH2 0xCEE DUP3 PUSH2 0xCC5 JUMP JUMPDEST SWAP1 POP SWAP2 SWAP1 POP JUMP JUMPDEST PUSH2 0xCFE DUP2 PUSH2 0xCE4 JUMP JUMPDEST DUP3 MSTORE POP POP JUMP JUMPDEST PUSH0 PUSH1 0x20 DUP3 ADD SWAP1 POP PUSH2 0xD17 PUSH0 DUP4 ADD DUP5 PUSH2 0xCF5 JUMP JUMPDEST SWAP3 SWAP2 POP POP JUMP JUMPDEST PUSH2 0xD26 DUP2 PUSH2 0xCE4 JUMP JUMPDEST DUP2 EQ PUSH2 0xD30 JUMPI PUSH0 DUP1 REVERT JUMPDEST POP JUMP JUMPDEST PUSH0 DUP2 CALLDATALOAD SWAP1 POP PUSH2 0xD41 DUP2 PUSH2 0xD1D JUMP JUMPDEST SWAP3 SWAP2 POP POP JUMP JUMPDEST PUSH0 PUSH1 0x20 DUP3 DUP5 SUB SLT ISZERO PUSH2 0xD5C JUMPI PUSH2 0xD5B PUSH2 0xBAA JUMP JUMPDEST JUMPDEST PUSH0 PUSH2 0xD69 DUP5 DUP3 DUP6 ADD PUSH2 0xD33 JUMP JUMPDEST SWAP2 POP POP SWAP3 SWAP2 POP POP JUMP JUMPDEST PUSH0 DUP3 DUP3 MSTORE PUSH1 0x20 DUP3 ADD SWAP1 POP SWAP3 SWAP2 POP POP JUMP JUMPDEST PUSH32 0x496E76616C696420696E70757420706172616D65746572730000000000000000 PUSH0 DUP3 ADD MSTORE POP JUMP JUMPDEST PUSH0 PUSH2 0xDB6 PUSH1 0x18 DUP4 PUSH2 0xD72 JUMP JUMPDEST SWAP2 POP PUSH2 0xDC1 DUP3 PUSH2 0xD82 JUMP JUMPDEST PUSH1 0x20 DUP3 ADD SWAP1 POP SWAP2 SWAP1 POP JUMP JUMPDEST PUSH0 PUSH1 0x20 DUP3 ADD SWAP1 POP DUP2 DUP2 SUB PUSH0 DUP4 ADD MSTORE PUSH2 0xDE3 DUP2 PUSH2 0xDAA JUMP JUMPDEST SWAP1 POP SWAP2 SWAP1 POP JUMP JUMPDEST PUSH32 0x4E487B7100000000000000000000000000000000000000000000000000000000 PUSH0 MSTORE PUSH1 0x32 PUSH1 0x4 MSTORE PUSH1 0x24 PUSH0 REVERT JUMPDEST DUP3 DUP2 DUP4 CALLDATACOPY POP POP POP JUMP JUMPDEST PUSH2 0xE2D PUSH2 0x100 DUP4 DUP4 PUSH2 0xE17 JUMP JUMPDEST POP POP JUMP JUMPDEST PUSH2 0xE3D PUSH1 0x20 DUP4 DUP4 PUSH2 0xE17 JUMP JUMPDEST POP POP JUMP JUMPDEST PUSH0 PUSH2 0x120 DUP3 ADD SWAP1 POP PUSH2 0xE55 PUSH0 DUP4 ADD DUP6 PUSH2 0xE20 JUMP JUMPDEST PUSH2 0xE63 PUSH2 0x100 DUP4 ADD DUP5 PUSH2 0xE31 JUMP JUMPDEST SWAP4 SWAP3 POP POP POP JUMP JUMPDEST PUSH2 0xE73 DUP2 PUSH2 0xC0C JUMP JUMPDEST DUP2 EQ PUSH2 0xE7D JUMPI PUSH0 DUP1 REVERT JUMPDEST POP JUMP JUMPDEST PUSH0 DUP2 MLOAD SWAP1 POP PUSH2 0xE8E DUP2 PUSH2 0xE6A JUMP JUMPDEST SWAP3 SWAP2 POP POP JUMP JUMPDEST PUSH0 PUSH1 0x20 DUP3 DUP5 SUB SLT ISZERO PUSH2 0xEA9 JUMPI PUSH2 0xEA8 PUSH2 0xBAA JUMP JUMPDEST JUMPDEST PUSH0 PUSH2 0xEB6 DUP5 DUP3 DUP6 ADD PUSH2 0xE80 JUMP JUMPDEST SWAP2 POP POP SWAP3 SWAP2 POP POP JUMP JUMPDEST PUSH2 0xECC PUSH2 0x100 DUP4 DUP4 PUSH2 0xE17 JUMP JUMPDEST POP POP JUMP JUMPDEST PUSH2 0xEDC PUSH1 0x20 DUP4 DUP4 PUSH2 0xE17 JUMP JUMPDEST POP POP JUMP JUMPDEST PUSH0 PUSH2 0xEEB DUP3 DUP6 PUSH2 0xEBF JUMP JUMPDEST PUSH2 0x100 DUP3 ADD SWAP2 POP PUSH2 0xEFC DUP3 DUP5 PUSH2 0xED0 JUMP JUMPDEST PUSH1 0x20 DUP3 ADD SWAP2 POP DUP2 SWAP1 POP SWAP4 SWAP3 POP POP POP JUMP JUMPDEST PUSH32 0x4E487B7100000000000000000000000000000000000000000000000000000000 PUSH0 MSTORE PUSH1 0x12 PUSH1 0x4 MSTORE PUSH1 0x24 PUSH0 REVERT JUMPDEST PUSH0 DUP2 SWAP1 POP SWAP2 SWAP1 POP JUMP JUMPDEST PUSH0 DUP2 SWAP1 POP SWAP2 SWAP1 POP JUMP JUMPDEST PUSH2 0xF5C PUSH2 0xF57 DUP3 PUSH2 0xF39 JUMP JUMPDEST PUSH2 0xF42 JUMP JUMPDEST DUP3 MSTORE POP POP JUMP JUMPDEST PUSH0 PUSH1 0x2 SWAP1 POP SWAP2 SWAP1 POP JUMP JUMPDEST PUSH0 DUP2 SWAP1 POP SWAP3 SWAP2 POP POP JUMP JUMPDEST PUSH0 DUP2 SWAP1 POP SWAP2 SWAP1 POP JUMP JUMPDEST PUSH2 0xF88 DUP2 PUSH2 0xF39 JUMP JUMPDEST DUP3 MSTORE POP POP JUMP JUMPDEST PUSH0 PUSH2 0xF99 DUP4 DUP4 PUSH2 0xF7F JUMP JUMPDEST PUSH1 0x20 DUP4 ADD SWAP1 POP SWAP3 SWAP2 POP POP JUMP JUMPDEST PUSH0 PUSH1 0x20 DUP3 ADD SWAP1 POP SWAP2 SWAP1 POP JUMP JUMPDEST PUSH2 0xFBA DUP2 PUSH2 0xF62 JUMP JUMPDEST PUSH2 0xFC4 DUP2 DUP5 PUSH2 0xF6C JUMP JUMPDEST SWAP3 POP PUSH2 0xFCF DUP3 PUSH2 0xF76 JUMP JUMPDEST DUP1 PUSH0 JUMPDEST DUP4 DUP2 LT ISZERO PUSH2 0xFFF JUMPI DUP2 MLOAD PUSH2 0xFE6 DUP8 DUP3 PUSH2 0xF8E JUMP JUMPDEST SWAP7 POP PUSH2 0xFF1 DUP4 PUSH2 0xFA5 JUMP JUMPDEST SWAP3 POP POP PUSH1 0x1 DUP2 ADD SWAP1 POP PUSH2 0xFD2 JUMP JUMPDEST POP POP POP POP POP POP JUMP JUMPDEST PUSH0 PUSH2 0x1012 DUP3 DUP11 PUSH2 0xF4B JUMP JUMPDEST PUSH1 0x20 DUP3 ADD SWAP2 POP PUSH2 0x1022 DUP3 DUP10 PUSH2 0xF4B JUMP JUMPDEST PUSH1 0x20 DUP3 ADD SWAP2 POP PUSH2 0x1032 DUP3 DUP9 PUSH2 0xFB1 JUMP JUMPDEST PUSH1 0x40 DUP3 ADD SWAP2 POP PUSH2 0x1042 DUP3 DUP8 PUSH2 0xFB1 JUMP JUMPDEST PUSH1 0x40 DUP3 ADD SWAP2 POP PUSH2 0x1052 DUP3 DUP7 PUSH2 0xF4B JUMP JUMPDEST PUSH1 0x20 DUP3 ADD SWAP2 POP PUSH2 0x1062 DUP3 DUP6 PUSH2 0xF4B JUMP JUMPDEST PUSH1 0x20 DUP3 ADD SWAP2 POP PUSH2 0x1072 DUP3 DUP5 PUSH2 0xF4B JUMP JUMPDEST PUSH1 0x20 DUP3 ADD SWAP2 POP DUP2 SWAP1 POP SWAP9 SWAP8 POP POP POP POP POP POP POP POP JUMP INVALID LOG2 PUSH5 0x6970667358 0x22 SLT KECCAK256 DUP6 0xB9 TIMESTAMP TLOAD MSTORE8 0xC5 0xC8 PUSH25 0x6B76BE2A9C37C98D7B52886FE66A570B79834A8B193865A964 PUSH20 0x6F6C634300081A00330000000000000000000000 "
				},
				"gasEstimates": {
					"creation": {
						"codeDepositCost": "857000",
						"executionCost": "infinite",
						"totalCost": "infinite"
					},
					"external": {
						"owner()": "2559",
						"pause()": "infinite",
						"paused()": "2591",
						"renounceOwnership()": "infinite",
						"transferOwnership(address)": "infinite",
						"unpause()": "infinite",
						"verifiedProofs(bytes32)": "2786",
						"verifyAndRecordProof(uint256[8],uint256[1])": "infinite",
						"verifyProof(uint256[8],uint256[1])": "infinite"
					},
					"internal": {
						"_verifyProofPoints(struct ZKVerifier.G1Point memory,struct ZKVerifier.G2Point memory,struct ZKVerifier.G1Point memory,uint256)": "infinite",
						"generateProofHash(uint256[8] calldata,uint256[1] calldata)": "infinite",
						"isOnCurveG1(struct ZKVerifier.G1Point memory)": "infinite",
						"isOnCurveG2(struct ZKVerifier.G2Point memory)": "infinite",
						"validateInputs(uint256[8] calldata,uint256[1] calldata)": "infinite",
						"verifyPairing(struct ZKVerifier.G1Point memory,struct ZKVerifier.G2Point memory,struct ZKVerifier.G1Point memory,uint256)": "infinite"
					}
				},
				"methodIdentifiers": {
					"owner()": "8da5cb5b",
					"pause()": "8456cb59",
					"paused()": "5c975abb",
					"renounceOwnership()": "715018a6",
					"transferOwnership(address)": "f2fde38b",
					"unpause()": "3f4ba83a",
					"verifiedProofs(bytes32)": "176d80c4",
					"verifyAndRecordProof(uint256[8],uint256[1])": "cd95fe6b",
					"verifyProof(uint256[8],uint256[1])": "1b81f829"
				}
			},
			"storageLayout": {
				"storage": [
					{
						"astId": 8,
						"contract": "zkp/ZKVerifier.sol:ZKVerifier",
						"label": "_owner",
						"offset": 0,
						"slot": "0",
						"type": "t_address"
					},
					{
						"astId": 186,
						"contract": "zkp/ZKVerifier.sol:ZKVerifier",
						"label": "_paused",
						"offset": 20,
						"slot": "0",
						"type": "t_bool"
					},
					{
						"astId": 305,
						"contract": "zkp/ZKVerifier.sol:ZKVerifier",
						"label": "_status",
						"offset": 0,
						"slot": "1",
						"type": "t_uint256"
					},
					{
						"astId": 394,
						"contract": "zkp/ZKVerifier.sol:ZKVerifier",
						"label": "verifiedProofs",
						"offset": 0,
						"slot": "2",
						"type": "t_mapping(t_bytes32,t_bool)"
					}
				],
				"types": {
					"t_address": {
						"encoding": "inplace",
						"label": "address",
						"numberOfBytes": "20"
					},
					"t_bool": {
						"encoding": "inplace",
						"label": "bool",
						"numberOfBytes": "1"
					},
					"t_bytes32": {
						"encoding": "inplace",
						"label": "bytes32",
						"numberOfBytes": "32"
					},
					"t_mapping(t_bytes32,t_bool)": {
						"encoding": "mapping",
						"key": "t_bytes32",
						"label": "mapping(bytes32 => bool)",
						"numberOfBytes": "32",
						"value": "t_bool"
					},
					"t_uint256": {
						"encoding": "inplace",
						"label": "uint256",
						"numberOfBytes": "32"
					}
				}
			},
			"userdoc": {
				"kind": "user",
				"methods": {
					"verifyAndRecordProof(uint256[8],uint256[1])": {
						"notice": "Verify and record proof (non-view version that updates state)"
					},
					"verifyProof(uint256[8],uint256[1])": {
						"notice": "Verify a ZK proof (view function)"
					}
				},
				"version": 1
			}
		}
	}
}