{
	"zkp/Verifier.sol": {
		"Verifier": {
			"abi": [
				{
					"inputs": [],
					"name": "verificationKeyHash",
					"outputs": [
						{
							"internalType": "bytes32",
							"name": "vkHash",
							"type": "bytes32"
						}
					],
					"stateMutability": "pure",
					"type": "function"
				},
				{
					"inputs": [
						{
							"internalType": "uint256[]",
							"name": "",
							"type": "uint256[]"
						},
						{
							"internalType": "uint256[]",
							"name": "",
							"type": "uint256[]"
						},
						{
							"internalType": "uint256[]",
							"name": "",
							"type": "uint256[]"
						}
					],
					"name": "verify",
					"outputs": [
						{
							"internalType": "bool",
							"name": "",
							"type": "bool"
						}
					],
					"stateMutability": "view",
					"type": "function"
				}
			],
			"devdoc": {
				"author": "Matter Labs",
				"details": "It uses a custom memory layout inside the inline assembly block. Each reserved memory cell is declared in the constants below.For a better understanding of the verifier algorithm please refer to the following papers: * Original Plonk Article: https://eprint.iacr.org/2019/953.pdf * Original LookUp Article: https://eprint.iacr.org/2020/315.pdf * Plonk for zkSync v1.1: https://github.com/matter-labs/solidity_plonk_verifier/raw/recursive/bellman_vk_codegen_recursive/RecursivePlonkUnrolledForEthereum.pdf The notation used in the code is the same as in the papers.",
				"kind": "dev",
				"methods": {
					"verificationKeyHash()": {
						"returns": {
							"vkHash": "The keccak256 hash of the loaded verification keys."
						}
					},
					"verify(uint256[],uint256[],uint256[])": {
						"details": "Verifies a zk-SNARK proof.",
						"returns": {
							"_0": "A boolean value indicating whether the zk-SNARK proof is valid. Note: The function may revert execution instead of returning false in some cases."
						}
					}
				},
				"stateVariables": {
					"FR_MASK": {
						"details": "flip of 0xe000000000000000000000000000000000000000000000000000000000000000;"
					}
				},
				"version": 1
			},
			"evm": {
				"assembly": "    /* \"zkp/Verifier.sol\":1033:95437  contract Verifier is IVerifier {... */\n  mstore(0x40, 0x80)\n  callvalue\n  dup1\n  iszero\n  tag_1\n  jumpi\n  0x00\n  dup1\n  revert\ntag_1:\n  pop\n  dataSize(sub_0)\n  dup1\n  dataOffset(sub_0)\n  0x00\n  codecopy\n  0x00\n  return\nstop\n\nsub_0: assembly {\n        /* \"zkp/Verifier.sol\":1033:95437  contract Verifier is IVerifier {... */\n      mstore(0x40, 0x80)\n      callvalue\n      dup1\n      iszero\n      tag_1\n      jumpi\n      0x00\n      dup1\n      revert\n    tag_1:\n      pop\n      jumpi(tag_2, lt(calldatasize, 0x04))\n      shr(0xe0, calldataload(0x00))\n      dup1\n      0x87d9d023\n      eq\n      tag_3\n      jumpi\n      dup1\n      0x9e8945d2\n      eq\n      tag_4\n      jumpi\n    tag_2:\n      0x00\n      dup1\n      revert\n        /* \"zkp/Verifier.sol\":23668:95435  function verify(... */\n    tag_3:\n      tag_5\n      0x04\n      dup1\n      calldatasize\n      sub\n      dup2\n      add\n      swap1\n      tag_6\n      swap2\n      swap1\n      tag_7\n      jump\t// in\n    tag_6:\n      tag_8\n      jump\t// in\n    tag_5:\n      mload(0x40)\n      tag_9\n      swap2\n      swap1\n      tag_10\n      jump\t// in\n    tag_9:\n      mload(0x40)\n      dup1\n      swap2\n      sub\n      swap1\n      return\n        /* \"zkp/Verifier.sol\":17267:17601  function verificationKeyHash() external pure returns (bytes32 vkHash) {... */\n    tag_4:\n      tag_11\n      tag_12\n      jump\t// in\n    tag_11:\n      mload(0x40)\n      tag_13\n      swap2\n      swap1\n      tag_14\n      jump\t// in\n    tag_13:\n      mload(0x40)\n      dup1\n      swap2\n      sub\n      swap1\n      return\n        /* \"zkp/Verifier.sol\":23668:95435  function verify(... */\n    tag_8:\n        /* \"zkp/Verifier.sol\":23854:23858  bool */\n      0x00\n        /* \"zkp/Verifier.sol\":23986:24008  _loadVerificationKey() */\n      tag_16\n        /* \"zkp/Verifier.sol\":23986:24006  _loadVerificationKey */\n      tag_17\n        /* \"zkp/Verifier.sol\":23986:24008  _loadVerificationKey() */\n      jump\t// in\n    tag_16:\n        /* \"zkp/Verifier.sol\":24732:25310  function revertWithMessage(len, reason) {... */\n      jump(tag_41)\n    tag_18:\n        /* \"zkp/Verifier.sol\":24893:24959  0x08c379a000000000000000000000000000000000000000000000000000000000 */\n      0x08c379a000000000000000000000000000000000000000000000000000000000\n        /* \"zkp/Verifier.sol\":24887:24891  0x00 */\n      0x00\n        /* \"zkp/Verifier.sol\":24880:24960  mstore(0x00, 0x08c379a000000000000000000000000000000000000000000000000000000000) */\n      mstore\n        /* \"zkp/Verifier.sol\":25021:25087  0x0000000000000000000000000000000000000000000000000000000000000020 */\n      0x20\n        /* \"zkp/Verifier.sol\":25015:25019  0x04 */\n      0x04\n        /* \"zkp/Verifier.sol\":25008:25088  mstore(0x04, 0x0000000000000000000000000000000000000000000000000000000000000020) */\n      mstore\n        /* \"zkp/Verifier.sol\":25161:25164  len */\n      dup1\n        /* \"zkp/Verifier.sol\":25155:25159  0x24 */\n      0x24\n        /* \"zkp/Verifier.sol\":25148:25165  mstore(0x24, len) */\n      mstore\n        /* \"zkp/Verifier.sol\":25228:25234  reason */\n      dup2\n        /* \"zkp/Verifier.sol\":25222:25226  0x44 */\n      0x44\n        /* \"zkp/Verifier.sol\":25215:25235  mstore(0x44, reason) */\n      mstore\n        /* \"zkp/Verifier.sol\":25291:25295  0x64 */\n      0x64\n        /* \"zkp/Verifier.sol\":25285:25289  0x00 */\n      0x00\n        /* \"zkp/Verifier.sol\":25278:25296  revert(0x00, 0x64) */\n      revert\n        /* \"zkp/Verifier.sol\":25422:25881  function modexp(value, power) -> res {... */\n    tag_19:\n        /* \"zkp/Verifier.sol\":25455:25458  res */\n      0x00\n        /* \"zkp/Verifier.sol\":25490:25494  0x20 */\n      0x20\n        /* \"zkp/Verifier.sol\":25484:25488  0x00 */\n      0x00\n        /* \"zkp/Verifier.sol\":25477:25495  mstore(0x00, 0x20) */\n      mstore\n        /* \"zkp/Verifier.sol\":25525:25529  0x20 */\n      0x20\n        /* \"zkp/Verifier.sol\":25519:25523  0x20 */\n      dup1\n        /* \"zkp/Verifier.sol\":25512:25530  mstore(0x20, 0x20) */\n      mstore\n        /* \"zkp/Verifier.sol\":25560:25564  0x20 */\n      0x20\n        /* \"zkp/Verifier.sol\":25554:25558  0x40 */\n      0x40\n        /* \"zkp/Verifier.sol\":25547:25565  mstore(0x40, 0x20) */\n      mstore\n        /* \"zkp/Verifier.sol\":25595:25600  value */\n      dup2\n        /* \"zkp/Verifier.sol\":25589:25593  0x60 */\n      0x60\n        /* \"zkp/Verifier.sol\":25582:25601  mstore(0x60, value) */\n      mstore\n        /* \"zkp/Verifier.sol\":25631:25636  power */\n      dup3\n        /* \"zkp/Verifier.sol\":25625:25629  0x80 */\n      0x80\n        /* \"zkp/Verifier.sol\":25618:25637  mstore(0x80, power) */\n      mstore\n        /* \"zkp/Verifier.sol\":25667:25672  R_MOD */\n      0x30644e72e131a029b85045b68181585d2833e84879b9709143e1f593f0000001\n        /* \"zkp/Verifier.sol\":25661:25665  0xa0 */\n      0xa0\n        /* \"zkp/Verifier.sol\":25654:25673  mstore(0xa0, R_MOD) */\n      mstore\n        /* \"zkp/Verifier.sol\":25736:25740  0x20 */\n      0x20\n        /* \"zkp/Verifier.sol\":25730:25734  0x00 */\n      0x00\n        /* \"zkp/Verifier.sol\":25724:25728  0xc0 */\n      0xc0\n        /* \"zkp/Verifier.sol\":25721:25722  0 */\n      0x00\n        /* \"zkp/Verifier.sol\":25718:25719  5 */\n      0x05\n        /* \"zkp/Verifier.sol\":25711:25716  gas() */\n      gas\n        /* \"zkp/Verifier.sol\":25700:25741  staticcall(gas(), 5, 0, 0xc0, 0x00, 0x20) */\n      staticcall\n        /* \"zkp/Verifier.sol\":25690:25832  if iszero(staticcall(gas(), 5, 0, 0xc0, 0x00, 0x20)) {... */\n      tag_44\n      jumpi\n        /* \"zkp/Verifier.sol\":25765:25814  revertWithMessage(24, \"modexp precompile failed\") */\n      tag_45\n        /* \"zkp/Verifier.sol\":25787:25813  \"modexp precompile failed\" */\n      0x6d6f6465787020707265636f6d70696c65206661696c65640000000000000000\n        /* \"zkp/Verifier.sol\":25783:25785  24 */\n      0x18\n        /* \"zkp/Verifier.sol\":25765:25814  revertWithMessage(24, \"modexp precompile failed\") */\n      tag_18\n      jump\t// in\n    tag_45:\n        /* \"zkp/Verifier.sol\":25690:25832  if iszero(staticcall(gas(), 5, 0, 0xc0, 0x00, 0x20)) {... */\n    tag_44:\n        /* \"zkp/Verifier.sol\":25862:25866  0x00 */\n      0x00\n        /* \"zkp/Verifier.sol\":25856:25867  mload(0x00) */\n      mload\n        /* \"zkp/Verifier.sol\":25849:25867  res := mload(0x00) */\n      swap1\n      pop\n        /* \"zkp/Verifier.sol\":25422:25881  function modexp(value, power) -> res {... */\n      swap3\n      swap2\n      pop\n      pop\n      jump\t// out\n        /* \"zkp/Verifier.sol\":26011:26362  function pointMulIntoDest(point, s, dest) {... */\n    tag_20:\n        /* \"zkp/Verifier.sol\":26090:26095  point */\n      dup1\n        /* \"zkp/Verifier.sol\":26084:26096  mload(point) */\n      mload\n        /* \"zkp/Verifier.sol\":26078:26082  0x00 */\n      0x00\n        /* \"zkp/Verifier.sol\":26071:26097  mstore(0x00, mload(point)) */\n      mstore\n        /* \"zkp/Verifier.sol\":26144:26148  0x20 */\n      0x20\n        /* \"zkp/Verifier.sol\":26137:26142  point */\n      dup2\n        /* \"zkp/Verifier.sol\":26133:26149  add(point, 0x20) */\n      add\n        /* \"zkp/Verifier.sol\":26127:26150  mload(add(point, 0x20)) */\n      mload\n        /* \"zkp/Verifier.sol\":26121:26125  0x20 */\n      0x20\n        /* \"zkp/Verifier.sol\":26114:26151  mstore(0x20, mload(add(point, 0x20))) */\n      mstore\n        /* \"zkp/Verifier.sol\":26181:26182  s */\n      dup2\n        /* \"zkp/Verifier.sol\":26175:26179  0x40 */\n      0x40\n        /* \"zkp/Verifier.sol\":26168:26183  mstore(0x40, s) */\n      mstore\n        /* \"zkp/Verifier.sol\":26246:26250  0x40 */\n      0x40\n        /* \"zkp/Verifier.sol\":26240:26244  dest */\n      dup4\n        /* \"zkp/Verifier.sol\":26234:26238  0x60 */\n      0x60\n        /* \"zkp/Verifier.sol\":26231:26232  0 */\n      0x00\n        /* \"zkp/Verifier.sol\":26228:26229  7 */\n      0x07\n        /* \"zkp/Verifier.sol\":26221:26226  gas() */\n      gas\n        /* \"zkp/Verifier.sol\":26210:26251  staticcall(gas(), 7, 0, 0x60, dest, 0x40) */\n      staticcall\n        /* \"zkp/Verifier.sol\":26200:26348  if iszero(staticcall(gas(), 7, 0, 0x60, dest, 0x40)) {... */\n      tag_47\n      jumpi\n        /* \"zkp/Verifier.sol\":26275:26330  revertWithMessage(30, \"pointMulIntoDest: ecMul failed\") */\n      tag_48\n        /* \"zkp/Verifier.sol\":26297:26329  \"pointMulIntoDest: ecMul failed\" */\n      0x706f696e744d756c496e746f446573743a2065634d756c206661696c65640000\n        /* \"zkp/Verifier.sol\":26293:26295  30 */\n      0x1e\n        /* \"zkp/Verifier.sol\":26275:26330  revertWithMessage(30, \"pointMulIntoDest: ecMul failed\") */\n      tag_18\n      jump\t// in\n    tag_48:\n        /* \"zkp/Verifier.sol\":26200:26348  if iszero(staticcall(gas(), 7, 0, 0x60, dest, 0x40)) {... */\n    tag_47:\n        /* \"zkp/Verifier.sol\":26011:26362  function pointMulIntoDest(point, s, dest) {... */\n      pop\n      pop\n      pop\n      jump\t// out\n        /* \"zkp/Verifier.sol\":26486:26891  function pointAddIntoDest(p1, p2, dest) {... */\n    tag_21:\n        /* \"zkp/Verifier.sol\":26563:26565  p1 */\n      dup1\n        /* \"zkp/Verifier.sol\":26557:26566  mload(p1) */\n      mload\n        /* \"zkp/Verifier.sol\":26551:26555  0x00 */\n      0x00\n        /* \"zkp/Verifier.sol\":26544:26567  mstore(0x00, mload(p1)) */\n      mstore\n        /* \"zkp/Verifier.sol\":26611:26615  0x20 */\n      0x20\n        /* \"zkp/Verifier.sol\":26607:26609  p1 */\n      dup2\n        /* \"zkp/Verifier.sol\":26603:26616  add(p1, 0x20) */\n      add\n        /* \"zkp/Verifier.sol\":26597:26617  mload(add(p1, 0x20)) */\n      mload\n        /* \"zkp/Verifier.sol\":26591:26595  0x20 */\n      0x20\n        /* \"zkp/Verifier.sol\":26584:26618  mstore(0x20, mload(add(p1, 0x20))) */\n      mstore\n        /* \"zkp/Verifier.sol\":26654:26656  p2 */\n      dup2\n        /* \"zkp/Verifier.sol\":26648:26657  mload(p2) */\n      mload\n        /* \"zkp/Verifier.sol\":26642:26646  0x40 */\n      0x40\n        /* \"zkp/Verifier.sol\":26635:26658  mstore(0x40, mload(p2)) */\n      mstore\n        /* \"zkp/Verifier.sol\":26702:26706  0x20 */\n      0x20\n        /* \"zkp/Verifier.sol\":26698:26700  p2 */\n      dup3\n        /* \"zkp/Verifier.sol\":26694:26707  add(p2, 0x20) */\n      add\n        /* \"zkp/Verifier.sol\":26688:26708  mload(add(p2, 0x20)) */\n      mload\n        /* \"zkp/Verifier.sol\":26682:26686  0x60 */\n      0x60\n        /* \"zkp/Verifier.sol\":26675:26709  mstore(0x60, mload(add(p2, 0x20))) */\n      mstore\n        /* \"zkp/Verifier.sol\":26775:26779  0x40 */\n      0x40\n        /* \"zkp/Verifier.sol\":26769:26773  dest */\n      dup4\n        /* \"zkp/Verifier.sol\":26763:26767  0x80 */\n      0x80\n        /* \"zkp/Verifier.sol\":26757:26761  0x00 */\n      0x00\n        /* \"zkp/Verifier.sol\":26754:26755  6 */\n      0x06\n        /* \"zkp/Verifier.sol\":26747:26752  gas() */\n      gas\n        /* \"zkp/Verifier.sol\":26736:26780  staticcall(gas(), 6, 0x00, 0x80, dest, 0x40) */\n      staticcall\n        /* \"zkp/Verifier.sol\":26726:26877  if iszero(staticcall(gas(), 6, 0x00, 0x80, dest, 0x40)) {... */\n      tag_50\n      jumpi\n        /* \"zkp/Verifier.sol\":26804:26859  revertWithMessage(30, \"pointAddIntoDest: ecAdd failed\") */\n      tag_51\n        /* \"zkp/Verifier.sol\":26826:26858  \"pointAddIntoDest: ecAdd failed\" */\n      0x706f696e74416464496e746f446573743a206563416464206661696c65640000\n        /* \"zkp/Verifier.sol\":26822:26824  30 */\n      0x1e\n        /* \"zkp/Verifier.sol\":26804:26859  revertWithMessage(30, \"pointAddIntoDest: ecAdd failed\") */\n      tag_18\n      jump\t// in\n    tag_51:\n        /* \"zkp/Verifier.sol\":26726:26877  if iszero(staticcall(gas(), 6, 0x00, 0x80, dest, 0x40)) {... */\n    tag_50:\n        /* \"zkp/Verifier.sol\":26486:26891  function pointAddIntoDest(p1, p2, dest) {... */\n      pop\n      pop\n      pop\n      jump\t// out\n        /* \"zkp/Verifier.sol\":27010:27415  function pointSubAssign(p1, p2) {... */\n    tag_22:\n        /* \"zkp/Verifier.sol\":27079:27081  p1 */\n      dup1\n        /* \"zkp/Verifier.sol\":27073:27082  mload(p1) */\n      mload\n        /* \"zkp/Verifier.sol\":27067:27071  0x00 */\n      0x00\n        /* \"zkp/Verifier.sol\":27060:27083  mstore(0x00, mload(p1)) */\n      mstore\n        /* \"zkp/Verifier.sol\":27127:27131  0x20 */\n      0x20\n        /* \"zkp/Verifier.sol\":27123:27125  p1 */\n      dup2\n        /* \"zkp/Verifier.sol\":27119:27132  add(p1, 0x20) */\n      add\n        /* \"zkp/Verifier.sol\":27113:27133  mload(add(p1, 0x20)) */\n      mload\n        /* \"zkp/Verifier.sol\":27107:27111  0x20 */\n      0x20\n        /* \"zkp/Verifier.sol\":27100:27134  mstore(0x20, mload(add(p1, 0x20))) */\n      mstore\n        /* \"zkp/Verifier.sol\":27170:27172  p2 */\n      dup2\n        /* \"zkp/Verifier.sol\":27164:27173  mload(p2) */\n      mload\n        /* \"zkp/Verifier.sol\":27158:27162  0x40 */\n      0x40\n        /* \"zkp/Verifier.sol\":27151:27174  mstore(0x40, mload(p2)) */\n      mstore\n        /* \"zkp/Verifier.sol\":27229:27233  0x20 */\n      0x20\n        /* \"zkp/Verifier.sol\":27225:27227  p2 */\n      dup3\n        /* \"zkp/Verifier.sol\":27221:27234  add(p2, 0x20) */\n      add\n        /* \"zkp/Verifier.sol\":27215:27235  mload(add(p2, 0x20)) */\n      mload\n        /* \"zkp/Verifier.sol\":27208:27213  Q_MOD */\n      0x30644e72e131a029b85045b68181585d97816a916871ca8d3c208c16d87cfd47\n        /* \"zkp/Verifier.sol\":27204:27236  sub(Q_MOD, mload(add(p2, 0x20))) */\n      sub\n        /* \"zkp/Verifier.sol\":27198:27202  0x60 */\n      0x60\n        /* \"zkp/Verifier.sol\":27191:27237  mstore(0x60, sub(Q_MOD, mload(add(p2, 0x20)))) */\n      mstore\n        /* \"zkp/Verifier.sol\":27301:27305  0x40 */\n      0x40\n        /* \"zkp/Verifier.sol\":27297:27299  p1 */\n      dup2\n        /* \"zkp/Verifier.sol\":27291:27295  0x80 */\n      0x80\n        /* \"zkp/Verifier.sol\":27285:27289  0x00 */\n      0x00\n        /* \"zkp/Verifier.sol\":27282:27283  6 */\n      0x06\n        /* \"zkp/Verifier.sol\":27275:27280  gas() */\n      gas\n        /* \"zkp/Verifier.sol\":27264:27306  staticcall(gas(), 6, 0x00, 0x80, p1, 0x40) */\n      staticcall\n        /* \"zkp/Verifier.sol\":27254:27401  if iszero(staticcall(gas(), 6, 0x00, 0x80, p1, 0x40)) {... */\n      tag_53\n      jumpi\n        /* \"zkp/Verifier.sol\":27330:27383  revertWithMessage(28, \"pointSubAssign: ecAdd failed\") */\n      tag_54\n        /* \"zkp/Verifier.sol\":27352:27382  \"pointSubAssign: ecAdd failed\" */\n      0x706f696e7453756241737369676e3a206563416464206661696c656400000000\n        /* \"zkp/Verifier.sol\":27348:27350  28 */\n      0x1c\n        /* \"zkp/Verifier.sol\":27330:27383  revertWithMessage(28, \"pointSubAssign: ecAdd failed\") */\n      tag_18\n      jump\t// in\n    tag_54:\n        /* \"zkp/Verifier.sol\":27254:27401  if iszero(staticcall(gas(), 6, 0x00, 0x80, p1, 0x40)) {... */\n    tag_53:\n        /* \"zkp/Verifier.sol\":27010:27415  function pointSubAssign(p1, p2) {... */\n      pop\n      pop\n      jump\t// out\n        /* \"zkp/Verifier.sol\":27531:27924  function pointAddAssign(p1, p2) {... */\n    tag_23:\n        /* \"zkp/Verifier.sol\":27600:27602  p1 */\n      dup1\n        /* \"zkp/Verifier.sol\":27594:27603  mload(p1) */\n      mload\n        /* \"zkp/Verifier.sol\":27588:27592  0x00 */\n      0x00\n        /* \"zkp/Verifier.sol\":27581:27604  mstore(0x00, mload(p1)) */\n      mstore\n        /* \"zkp/Verifier.sol\":27648:27652  0x20 */\n      0x20\n        /* \"zkp/Verifier.sol\":27644:27646  p1 */\n      dup2\n        /* \"zkp/Verifier.sol\":27640:27653  add(p1, 0x20) */\n      add\n        /* \"zkp/Verifier.sol\":27634:27654  mload(add(p1, 0x20)) */\n      mload\n        /* \"zkp/Verifier.sol\":27628:27632  0x20 */\n      0x20\n        /* \"zkp/Verifier.sol\":27621:27655  mstore(0x20, mload(add(p1, 0x20))) */\n      mstore\n        /* \"zkp/Verifier.sol\":27691:27693  p2 */\n      dup2\n        /* \"zkp/Verifier.sol\":27685:27694  mload(p2) */\n      mload\n        /* \"zkp/Verifier.sol\":27679:27683  0x40 */\n      0x40\n        /* \"zkp/Verifier.sol\":27672:27695  mstore(0x40, mload(p2)) */\n      mstore\n        /* \"zkp/Verifier.sol\":27739:27743  0x20 */\n      0x20\n        /* \"zkp/Verifier.sol\":27735:27737  p2 */\n      dup3\n        /* \"zkp/Verifier.sol\":27731:27744  add(p2, 0x20) */\n      add\n        /* \"zkp/Verifier.sol\":27725:27745  mload(add(p2, 0x20)) */\n      mload\n        /* \"zkp/Verifier.sol\":27719:27723  0x60 */\n      0x60\n        /* \"zkp/Verifier.sol\":27712:27746  mstore(0x60, mload(add(p2, 0x20))) */\n      mstore\n        /* \"zkp/Verifier.sol\":27810:27814  0x40 */\n      0x40\n        /* \"zkp/Verifier.sol\":27806:27808  p1 */\n      dup2\n        /* \"zkp/Verifier.sol\":27800:27804  0x80 */\n      0x80\n        /* \"zkp/Verifier.sol\":27794:27798  0x00 */\n      0x00\n        /* \"zkp/Verifier.sol\":27791:27792  6 */\n      0x06\n        /* \"zkp/Verifier.sol\":27784:27789  gas() */\n      gas\n        /* \"zkp/Verifier.sol\":27773:27815  staticcall(gas(), 6, 0x00, 0x80, p1, 0x40) */\n      staticcall\n        /* \"zkp/Verifier.sol\":27763:27910  if iszero(staticcall(gas(), 6, 0x00, 0x80, p1, 0x40)) {... */\n      tag_56\n      jumpi\n        /* \"zkp/Verifier.sol\":27839:27892  revertWithMessage(28, \"pointAddAssign: ecAdd failed\") */\n      tag_57\n        /* \"zkp/Verifier.sol\":27861:27891  \"pointAddAssign: ecAdd failed\" */\n      0x706f696e7441646441737369676e3a206563416464206661696c656400000000\n        /* \"zkp/Verifier.sol\":27857:27859  28 */\n      0x1c\n        /* \"zkp/Verifier.sol\":27839:27892  revertWithMessage(28, \"pointAddAssign: ecAdd failed\") */\n      tag_18\n      jump\t// in\n    tag_57:\n        /* \"zkp/Verifier.sol\":27763:27910  if iszero(staticcall(gas(), 6, 0x00, 0x80, p1, 0x40)) {... */\n    tag_56:\n        /* \"zkp/Verifier.sol\":27531:27924  function pointAddAssign(p1, p2) {... */\n      pop\n      pop\n      jump\t// out\n        /* \"zkp/Verifier.sol\":28052:28620  function pointMulAndAddIntoDest(point, s, dest) {... */\n    tag_24:\n        /* \"zkp/Verifier.sol\":28137:28142  point */\n      dup1\n        /* \"zkp/Verifier.sol\":28131:28143  mload(point) */\n      mload\n        /* \"zkp/Verifier.sol\":28125:28129  0x00 */\n      0x00\n        /* \"zkp/Verifier.sol\":28118:28144  mstore(0x00, mload(point)) */\n      mstore\n        /* \"zkp/Verifier.sol\":28191:28195  0x20 */\n      0x20\n        /* \"zkp/Verifier.sol\":28184:28189  point */\n      dup2\n        /* \"zkp/Verifier.sol\":28180:28196  add(point, 0x20) */\n      add\n        /* \"zkp/Verifier.sol\":28174:28197  mload(add(point, 0x20)) */\n      mload\n        /* \"zkp/Verifier.sol\":28168:28172  0x20 */\n      0x20\n        /* \"zkp/Verifier.sol\":28161:28198  mstore(0x20, mload(add(point, 0x20))) */\n      mstore\n        /* \"zkp/Verifier.sol\":28228:28229  s */\n      dup2\n        /* \"zkp/Verifier.sol\":28222:28226  0x40 */\n      0x40\n        /* \"zkp/Verifier.sol\":28215:28230  mstore(0x40, s) */\n      mstore\n        /* \"zkp/Verifier.sol\":28295:28299  0x40 */\n      0x40\n        /* \"zkp/Verifier.sol\":28292:28293  0 */\n      0x00\n        /* \"zkp/Verifier.sol\":28286:28290  0x60 */\n      0x60\n        /* \"zkp/Verifier.sol\":28283:28284  0 */\n      0x00\n        /* \"zkp/Verifier.sol\":28280:28281  7 */\n      0x07\n        /* \"zkp/Verifier.sol\":28273:28278  gas() */\n      gas\n        /* \"zkp/Verifier.sol\":28262:28300  staticcall(gas(), 7, 0, 0x60, 0, 0x40) */\n      staticcall\n        /* \"zkp/Verifier.sol\":28337:28341  dest */\n      dup4\n        /* \"zkp/Verifier.sol\":28331:28342  mload(dest) */\n      mload\n        /* \"zkp/Verifier.sol\":28325:28329  0x40 */\n      0x40\n        /* \"zkp/Verifier.sol\":28318:28343  mstore(0x40, mload(dest)) */\n      mstore\n        /* \"zkp/Verifier.sol\":28389:28393  0x20 */\n      0x20\n        /* \"zkp/Verifier.sol\":28383:28387  dest */\n      dup5\n        /* \"zkp/Verifier.sol\":28379:28394  add(dest, 0x20) */\n      add\n        /* \"zkp/Verifier.sol\":28373:28395  mload(add(dest, 0x20)) */\n      mload\n        /* \"zkp/Verifier.sol\":28367:28371  0x60 */\n      0x60\n        /* \"zkp/Verifier.sol\":28360:28396  mstore(0x60, mload(add(dest, 0x20))) */\n      mstore\n        /* \"zkp/Verifier.sol\":28476:28480  0x40 */\n      0x40\n        /* \"zkp/Verifier.sol\":28470:28474  dest */\n      dup5\n        /* \"zkp/Verifier.sol\":28464:28468  0x80 */\n      0x80\n        /* \"zkp/Verifier.sol\":28458:28462  0x00 */\n      0x00\n        /* \"zkp/Verifier.sol\":28455:28456  6 */\n      0x06\n        /* \"zkp/Verifier.sol\":28448:28453  gas() */\n      gas\n        /* \"zkp/Verifier.sol\":28437:28481  staticcall(gas(), 6, 0x00, 0x80, dest, 0x40) */\n      staticcall\n        /* \"zkp/Verifier.sol\":28428:28435  success */\n      dup2\n        /* \"zkp/Verifier.sol\":28424:28482  and(success, staticcall(gas(), 6, 0x00, 0x80, dest, 0x40)) */\n      and\n        /* \"zkp/Verifier.sol\":28413:28482  success := and(success, staticcall(gas(), 6, 0x00, 0x80, dest, 0x40)) */\n      swap1\n      pop\n        /* \"zkp/Verifier.sol\":28510:28517  success */\n      dup1\n        /* \"zkp/Verifier.sol\":28500:28606  if iszero(success) {... */\n      tag_59\n      jumpi\n        /* \"zkp/Verifier.sol\":28541:28588  revertWithMessage(22, \"pointMulAndAddIntoDest\") */\n      tag_60\n        /* \"zkp/Verifier.sol\":28563:28587  \"pointMulAndAddIntoDest\" */\n      0x706f696e744d756c416e64416464496e746f4465737400000000000000000000\n        /* \"zkp/Verifier.sol\":28559:28561  22 */\n      0x16\n        /* \"zkp/Verifier.sol\":28541:28588  revertWithMessage(22, \"pointMulAndAddIntoDest\") */\n      tag_18\n      jump\t// in\n    tag_60:\n        /* \"zkp/Verifier.sol\":28500:28606  if iszero(success) {... */\n    tag_59:\n        /* \"zkp/Verifier.sol\":28100:28620  {... */\n      pop\n        /* \"zkp/Verifier.sol\":28052:28620  function pointMulAndAddIntoDest(point, s, dest) {... */\n      pop\n      pop\n      pop\n      jump\t// out\n        /* \"zkp/Verifier.sol\":28729:29132  function pointNegate(point) {... */\n    tag_25:\n        /* \"zkp/Verifier.sol\":28802:28806  0x20 */\n      0x20\n        /* \"zkp/Verifier.sol\":28795:28800  point */\n      dup2\n        /* \"zkp/Verifier.sol\":28791:28807  add(point, 0x20) */\n      add\n        /* \"zkp/Verifier.sol\":28785:28808  mload(add(point, 0x20)) */\n      mload\n        /* \"zkp/Verifier.sol\":28832:28834  pY */\n      dup1\n        /* \"zkp/Verifier.sol\":28856:28857  0 */\n      0x00\n        /* \"zkp/Verifier.sol\":28851:29013  case 0 {... */\n      dup2\n      eq\n      tag_63\n      jumpi\n        /* \"zkp/Verifier.sol\":29096:29098  pY */\n      dup2\n        /* \"zkp/Verifier.sol\":29089:29094  Q_MOD */\n      0x30644e72e131a029b85045b68181585d97816a916871ca8d3c208c16d87cfd47\n        /* \"zkp/Verifier.sol\":29085:29099  sub(Q_MOD, pY) */\n      sub\n        /* \"zkp/Verifier.sol\":29078:29082  0x20 */\n      0x20\n        /* \"zkp/Verifier.sol\":29071:29076  point */\n      dup5\n        /* \"zkp/Verifier.sol\":29067:29083  add(point, 0x20) */\n      add\n        /* \"zkp/Verifier.sol\":29060:29100  mstore(add(point, 0x20), sub(Q_MOD, pY)) */\n      mstore\n        /* \"zkp/Verifier.sol\":28825:29118  switch pY... */\n      jump(tag_62)\n        /* \"zkp/Verifier.sol\":28851:29013  case 0 {... */\n    tag_63:\n        /* \"zkp/Verifier.sol\":28889:28894  point */\n      dup3\n        /* \"zkp/Verifier.sol\":28883:28895  mload(point) */\n      mload\n        /* \"zkp/Verifier.sol\":28880:28995  if mload(point) {... */\n      iszero\n      tag_64\n      jumpi\n        /* \"zkp/Verifier.sol\":28922:28973  revertWithMessage(26, \"pointNegate: invalid point\") */\n      tag_65\n        /* \"zkp/Verifier.sol\":28944:28972  \"pointNegate: invalid point\" */\n      0x706f696e744e65676174653a20696e76616c696420706f696e74000000000000\n        /* \"zkp/Verifier.sol\":28940:28942  26 */\n      0x1a\n        /* \"zkp/Verifier.sol\":28922:28973  revertWithMessage(26, \"pointNegate: invalid point\") */\n      tag_18\n      jump\t// in\n    tag_65:\n        /* \"zkp/Verifier.sol\":28880:28995  if mload(point) {... */\n    tag_64:\n        /* \"zkp/Verifier.sol\":28825:29118  switch pY... */\n    tag_62:\n      pop\n        /* \"zkp/Verifier.sol\":28757:29132  {... */\n      pop\n        /* \"zkp/Verifier.sol\":28729:29132  function pointNegate(point) {... */\n      pop\n      jump\t// out\n        /* \"zkp/Verifier.sol\":29434:29913  function updateTranscript(value) {... */\n    tag_26:\n        /* \"zkp/Verifier.sol\":29519:29523  0x00 */\n      0x00\n        /* \"zkp/Verifier.sol\":29493:29517  TRANSCRIPT_DST_BYTE_SLOT */\n      0x0d43\n        /* \"zkp/Verifier.sol\":29485:29524  mstore8(TRANSCRIPT_DST_BYTE_SLOT, 0x00) */\n      mstore8\n        /* \"zkp/Verifier.sol\":29575:29580  value */\n      dup1\n        /* \"zkp/Verifier.sol\":29548:29573  TRANSCRIPT_CHALLENGE_SLOT */\n      0x0d84\n        /* \"zkp/Verifier.sol\":29541:29581  mstore(TRANSCRIPT_CHALLENGE_SLOT, value) */\n      mstore\n        /* \"zkp/Verifier.sol\":29648:29652  0x64 */\n      0x64\n        /* \"zkp/Verifier.sol\":29625:29646  TRANSCRIPT_BEGIN_SLOT */\n      0x0d40\n        /* \"zkp/Verifier.sol\":29615:29653  keccak256(TRANSCRIPT_BEGIN_SLOT, 0x64) */\n      keccak256\n        /* \"zkp/Verifier.sol\":29704:29708  0x01 */\n      0x01\n        /* \"zkp/Verifier.sol\":29678:29702  TRANSCRIPT_DST_BYTE_SLOT */\n      0x0d43\n        /* \"zkp/Verifier.sol\":29670:29709  mstore8(TRANSCRIPT_DST_BYTE_SLOT, 0x01) */\n      mstore8\n        /* \"zkp/Verifier.sol\":29776:29780  0x64 */\n      0x64\n        /* \"zkp/Verifier.sol\":29753:29774  TRANSCRIPT_BEGIN_SLOT */\n      0x0d40\n        /* \"zkp/Verifier.sol\":29743:29781  keccak256(TRANSCRIPT_BEGIN_SLOT, 0x64) */\n      keccak256\n        /* \"zkp/Verifier.sol\":29830:29839  newState1 */\n      dup1\n        /* \"zkp/Verifier.sol\":29805:29828  TRANSCRIPT_STATE_1_SLOT */\n      0x0d64\n        /* \"zkp/Verifier.sol\":29798:29840  mstore(TRANSCRIPT_STATE_1_SLOT, newState1) */\n      mstore\n        /* \"zkp/Verifier.sol\":29889:29898  newState0 */\n      dup2\n        /* \"zkp/Verifier.sol\":29864:29887  TRANSCRIPT_STATE_0_SLOT */\n      0x0d44\n        /* \"zkp/Verifier.sol\":29857:29899  mstore(TRANSCRIPT_STATE_0_SLOT, newState0) */\n      mstore\n        /* \"zkp/Verifier.sol\":29467:29913  {... */\n      pop\n      pop\n        /* \"zkp/Verifier.sol\":29434:29913  function updateTranscript(value) {... */\n      pop\n      jump\t// out\n        /* \"zkp/Verifier.sol\":29982:30278  function getTranscriptChallenge(numberOfChallenge) -> challenge {... */\n    tag_27:\n        /* \"zkp/Verifier.sol\":30036:30045  challenge */\n      0x00\n        /* \"zkp/Verifier.sol\":30098:30102  0x02 */\n      0x02\n        /* \"zkp/Verifier.sol\":30072:30096  TRANSCRIPT_DST_BYTE_SLOT */\n      0x0d43\n        /* \"zkp/Verifier.sol\":30064:30103  mstore8(TRANSCRIPT_DST_BYTE_SLOT, 0x02) */\n      mstore8\n        /* \"zkp/Verifier.sol\":30163:30180  numberOfChallenge */\n      dup2\n        /* \"zkp/Verifier.sol\":30158:30161  224 */\n      0xe0\n        /* \"zkp/Verifier.sol\":30154:30181  shl(224, numberOfChallenge) */\n      shl\n        /* \"zkp/Verifier.sol\":30127:30152  TRANSCRIPT_CHALLENGE_SLOT */\n      0x0d84\n        /* \"zkp/Verifier.sol\":30120:30182  mstore(TRANSCRIPT_CHALLENGE_SLOT, shl(224, numberOfChallenge)) */\n      mstore\n        /* \"zkp/Verifier.sol\":30256:30263  FR_MASK */\n      0x1fffffffffffffffffffffffffffffffffffffffffffffffffffffffffffffff\n        /* \"zkp/Verifier.sol\":30249:30253  0x48 */\n      0x48\n        /* \"zkp/Verifier.sol\":30226:30247  TRANSCRIPT_BEGIN_SLOT */\n      0x0d40\n        /* \"zkp/Verifier.sol\":30216:30254  keccak256(TRANSCRIPT_BEGIN_SLOT, 0x48) */\n      keccak256\n        /* \"zkp/Verifier.sol\":30212:30264  and(keccak256(TRANSCRIPT_BEGIN_SLOT, 0x48), FR_MASK) */\n      and\n        /* \"zkp/Verifier.sol\":30199:30264  challenge := and(keccak256(TRANSCRIPT_BEGIN_SLOT, 0x48), FR_MASK) */\n      swap1\n      pop\n        /* \"zkp/Verifier.sol\":29982:30278  function getTranscriptChallenge(numberOfChallenge) -> challenge {... */\n      swap2\n      swap1\n      pop\n      jump\t// out\n        /* \"zkp/Verifier.sol\":32552:43894  function loadProof() {... */\n    tag_28:\n        /* \"zkp/Verifier.sol\":32658:32662  0x04 */\n      0x04\n        /* \"zkp/Verifier.sol\":32645:32663  calldataload(0x04) */\n      calldataload\n        /* \"zkp/Verifier.sol\":32737:32741  0x04 */\n      0x04\n        /* \"zkp/Verifier.sol\":32729:32735  offset */\n      dup2\n        /* \"zkp/Verifier.sol\":32725:32742  add(offset, 0x04) */\n      add\n        /* \"zkp/Verifier.sol\":32712:32743  calldataload(add(offset, 0x04)) */\n      calldataload\n        /* \"zkp/Verifier.sol\":32804:32805  1 */\n      0x01\n        /* \"zkp/Verifier.sol\":32778:32802  publicInputLengthInWords */\n      dup2\n        /* \"zkp/Verifier.sol\":32775:32806  eq(publicInputLengthInWords, 1) */\n      eq\n        /* \"zkp/Verifier.sol\":32922:32929  FR_MASK */\n      0x1fffffffffffffffffffffffffffffffffffffffffffffffffffffffffffffff\n        /* \"zkp/Verifier.sol\":32914:32918  0x24 */\n      0x24\n        /* \"zkp/Verifier.sol\":32906:32912  offset */\n      dup5\n        /* \"zkp/Verifier.sol\":32902:32919  add(offset, 0x24) */\n      add\n        /* \"zkp/Verifier.sol\":32889:32920  calldataload(add(offset, 0x24)) */\n      calldataload\n        /* \"zkp/Verifier.sol\":32885:32930  and(calldataload(add(offset, 0x24)), FR_MASK) */\n      and\n        /* \"zkp/Verifier.sol\":32865:32883  PROOF_PUBLIC_INPUT */\n      0x0720\n        /* \"zkp/Verifier.sol\":32858:32931  mstore(PROOF_PUBLIC_INPUT, and(calldataload(add(offset, 0x24)), FR_MASK)) */\n      mstore\n        /* \"zkp/Verifier.sol\":33041:33045  0x24 */\n      0x24\n        /* \"zkp/Verifier.sol\":33028:33046  calldataload(0x24) */\n      calldataload\n        /* \"zkp/Verifier.sol\":33018:33046  offset := calldataload(0x24) */\n      swap3\n      pop\n        /* \"zkp/Verifier.sol\":33114:33118  0x04 */\n      0x04\n        /* \"zkp/Verifier.sol\":33106:33112  offset */\n      dup4\n        /* \"zkp/Verifier.sol\":33102:33119  add(offset, 0x04) */\n      add\n        /* \"zkp/Verifier.sol\":33089:33120  calldataload(add(offset, 0x04)) */\n      calldataload\n        /* \"zkp/Verifier.sol\":33180:33187  isValid */\n      dup2\n        /* \"zkp/Verifier.sol\":33175:33177  44 */\n      0x2c\n        /* \"zkp/Verifier.sol\":33155:33173  proofLengthInWords */\n      dup3\n        /* \"zkp/Verifier.sol\":33152:33178  eq(proofLengthInWords, 44) */\n      eq\n        /* \"zkp/Verifier.sol\":33148:33188  and(eq(proofLengthInWords, 44), isValid) */\n      and\n        /* \"zkp/Verifier.sol\":33137:33188  isValid := and(eq(proofLengthInWords, 44), isValid) */\n      swap2\n      pop\n        /* \"zkp/Verifier.sol\":33314:33319  Q_MOD */\n      0x30644e72e131a029b85045b68181585d97816a916871ca8d3c208c16d87cfd47\n        /* \"zkp/Verifier.sol\":33305:33310  0x024 */\n      0x24\n        /* \"zkp/Verifier.sol\":33297:33303  offset */\n      dup6\n        /* \"zkp/Verifier.sol\":33293:33311  add(offset, 0x024) */\n      add\n        /* \"zkp/Verifier.sol\":33280:33312  calldataload(add(offset, 0x024)) */\n      calldataload\n        /* \"zkp/Verifier.sol\":33276:33320  mod(calldataload(add(offset, 0x024)), Q_MOD) */\n      mod\n        /* \"zkp/Verifier.sol\":33388:33393  Q_MOD */\n      0x30644e72e131a029b85045b68181585d97816a916871ca8d3c208c16d87cfd47\n        /* \"zkp/Verifier.sol\":33379:33384  0x044 */\n      0x44\n        /* \"zkp/Verifier.sol\":33371:33377  offset */\n      dup7\n        /* \"zkp/Verifier.sol\":33367:33385  add(offset, 0x044) */\n      add\n        /* \"zkp/Verifier.sol\":33354:33386  calldataload(add(offset, 0x044)) */\n      calldataload\n        /* \"zkp/Verifier.sol\":33350:33394  mod(calldataload(add(offset, 0x044)), Q_MOD) */\n      mod\n        /* \"zkp/Verifier.sol\":33438:33443  Q_MOD */\n      0x30644e72e131a029b85045b68181585d97816a916871ca8d3c208c16d87cfd47\n        /* \"zkp/Verifier.sol\":33435:33436  x */\n      dup3\n        /* \"zkp/Verifier.sol\":33432:33433  x */\n      dup4\n        /* \"zkp/Verifier.sol\":33425:33444  mulmod(x, x, Q_MOD) */\n      mulmod\n        /* \"zkp/Verifier.sol\":33545:33552  isValid */\n      dup5\n        /* \"zkp/Verifier.sol\":33536:33541  Q_MOD */\n      0x30644e72e131a029b85045b68181585d97816a916871ca8d3c208c16d87cfd47\n        /* \"zkp/Verifier.sol\":33533:33534  3 */\n      0x03\n        /* \"zkp/Verifier.sol\":33525:33530  Q_MOD */\n      0x30644e72e131a029b85045b68181585d97816a916871ca8d3c208c16d87cfd47\n        /* \"zkp/Verifier.sol\":33521:33523  xx */\n      dup5\n        /* \"zkp/Verifier.sol\":33518:33519  x */\n      dup8\n        /* \"zkp/Verifier.sol\":33511:33531  mulmod(x, xx, Q_MOD) */\n      mulmod\n        /* \"zkp/Verifier.sol\":33504:33542  addmod(mulmod(x, xx, Q_MOD), 3, Q_MOD) */\n      addmod\n        /* \"zkp/Verifier.sol\":33496:33501  Q_MOD */\n      0x30644e72e131a029b85045b68181585d97816a916871ca8d3c208c16d87cfd47\n        /* \"zkp/Verifier.sol\":33493:33494  y */\n      dup5\n        /* \"zkp/Verifier.sol\":33490:33491  y */\n      dup6\n        /* \"zkp/Verifier.sol\":33483:33502  mulmod(y, y, Q_MOD) */\n      mulmod\n        /* \"zkp/Verifier.sol\":33480:33543  eq(mulmod(y, y, Q_MOD), addmod(mulmod(x, xx, Q_MOD), 3, Q_MOD)) */\n      eq\n        /* \"zkp/Verifier.sol\":33476:33553  and(eq(mulmod(y, y, Q_MOD), addmod(mulmod(x, xx, Q_MOD), 3, Q_MOD)), isValid) */\n      and\n        /* \"zkp/Verifier.sol\":33465:33553  isValid := and(eq(mulmod(y, y, Q_MOD), addmod(mulmod(x, xx, Q_MOD), 3, Q_MOD)), isValid) */\n      swap5\n      pop\n        /* \"zkp/Verifier.sol\":33609:33610  x */\n      dup3\n        /* \"zkp/Verifier.sol\":33581:33607  PROOF_STATE_POLYS_0_X_SLOT */\n      0x0740\n        /* \"zkp/Verifier.sol\":33574:33611  mstore(PROOF_STATE_POLYS_0_X_SLOT, x) */\n      mstore\n        /* \"zkp/Verifier.sol\":33667:33668  y */\n      dup2\n        /* \"zkp/Verifier.sol\":33639:33665  PROOF_STATE_POLYS_0_Y_SLOT */\n      0x0760\n        /* \"zkp/Verifier.sol\":33632:33669  mstore(PROOF_STATE_POLYS_0_Y_SLOT, y) */\n      mstore\n        /* \"zkp/Verifier.sol\":33245:33687  {... */\n      pop\n      pop\n      pop\n        /* \"zkp/Verifier.sol\":33812:33817  Q_MOD */\n      0x30644e72e131a029b85045b68181585d97816a916871ca8d3c208c16d87cfd47\n        /* \"zkp/Verifier.sol\":33803:33808  0x064 */\n      0x64\n        /* \"zkp/Verifier.sol\":33795:33801  offset */\n      dup6\n        /* \"zkp/Verifier.sol\":33791:33809  add(offset, 0x064) */\n      add\n        /* \"zkp/Verifier.sol\":33778:33810  calldataload(add(offset, 0x064)) */\n      calldataload\n        /* \"zkp/Verifier.sol\":33774:33818  mod(calldataload(add(offset, 0x064)), Q_MOD) */\n      mod\n        /* \"zkp/Verifier.sol\":33886:33891  Q_MOD */\n      0x30644e72e131a029b85045b68181585d97816a916871ca8d3c208c16d87cfd47\n        /* \"zkp/Verifier.sol\":33877:33882  0x084 */\n      0x84\n        /* \"zkp/Verifier.sol\":33869:33875  offset */\n      dup7\n        /* \"zkp/Verifier.sol\":33865:33883  add(offset, 0x084) */\n      add\n        /* \"zkp/Verifier.sol\":33852:33884  calldataload(add(offset, 0x084)) */\n      calldataload\n        /* \"zkp/Verifier.sol\":33848:33892  mod(calldataload(add(offset, 0x084)), Q_MOD) */\n      mod\n        /* \"zkp/Verifier.sol\":33936:33941  Q_MOD */\n      0x30644e72e131a029b85045b68181585d97816a916871ca8d3c208c16d87cfd47\n        /* \"zkp/Verifier.sol\":33933:33934  x */\n      dup3\n        /* \"zkp/Verifier.sol\":33930:33931  x */\n      dup4\n        /* \"zkp/Verifier.sol\":33923:33942  mulmod(x, x, Q_MOD) */\n      mulmod\n        /* \"zkp/Verifier.sol\":34043:34050  isValid */\n      dup5\n        /* \"zkp/Verifier.sol\":34034:34039  Q_MOD */\n      0x30644e72e131a029b85045b68181585d97816a916871ca8d3c208c16d87cfd47\n        /* \"zkp/Verifier.sol\":34031:34032  3 */\n      0x03\n        /* \"zkp/Verifier.sol\":34023:34028  Q_MOD */\n      0x30644e72e131a029b85045b68181585d97816a916871ca8d3c208c16d87cfd47\n        /* \"zkp/Verifier.sol\":34019:34021  xx */\n      dup5\n        /* \"zkp/Verifier.sol\":34016:34017  x */\n      dup8\n        /* \"zkp/Verifier.sol\":34009:34029  mulmod(x, xx, Q_MOD) */\n      mulmod\n        /* \"zkp/Verifier.sol\":34002:34040  addmod(mulmod(x, xx, Q_MOD), 3, Q_MOD) */\n      addmod\n        /* \"zkp/Verifier.sol\":33994:33999  Q_MOD */\n      0x30644e72e131a029b85045b68181585d97816a916871ca8d3c208c16d87cfd47\n        /* \"zkp/Verifier.sol\":33991:33992  y */\n      dup5\n        /* \"zkp/Verifier.sol\":33988:33989  y */\n      dup6\n        /* \"zkp/Verifier.sol\":33981:34000  mulmod(y, y, Q_MOD) */\n      mulmod\n        /* \"zkp/Verifier.sol\":33978:34041  eq(mulmod(y, y, Q_MOD), addmod(mulmod(x, xx, Q_MOD), 3, Q_MOD)) */\n      eq\n        /* \"zkp/Verifier.sol\":33974:34051  and(eq(mulmod(y, y, Q_MOD), addmod(mulmod(x, xx, Q_MOD), 3, Q_MOD)), isValid) */\n      and\n        /* \"zkp/Verifier.sol\":33963:34051  isValid := and(eq(mulmod(y, y, Q_MOD), addmod(mulmod(x, xx, Q_MOD), 3, Q_MOD)), isValid) */\n      swap5\n      pop\n        /* \"zkp/Verifier.sol\":34107:34108  x */\n      dup3\n        /* \"zkp/Verifier.sol\":34079:34105  PROOF_STATE_POLYS_1_X_SLOT */\n      0x0780\n        /* \"zkp/Verifier.sol\":34072:34109  mstore(PROOF_STATE_POLYS_1_X_SLOT, x) */\n      mstore\n        /* \"zkp/Verifier.sol\":34165:34166  y */\n      dup2\n        /* \"zkp/Verifier.sol\":34137:34163  PROOF_STATE_POLYS_1_Y_SLOT */\n      0x07a0\n        /* \"zkp/Verifier.sol\":34130:34167  mstore(PROOF_STATE_POLYS_1_Y_SLOT, y) */\n      mstore\n        /* \"zkp/Verifier.sol\":33743:34185  {... */\n      pop\n      pop\n      pop\n        /* \"zkp/Verifier.sol\":34310:34315  Q_MOD */\n      0x30644e72e131a029b85045b68181585d97816a916871ca8d3c208c16d87cfd47\n        /* \"zkp/Verifier.sol\":34301:34306  0x0a4 */\n      0xa4\n        /* \"zkp/Verifier.sol\":34293:34299  offset */\n      dup6\n        /* \"zkp/Verifier.sol\":34289:34307  add(offset, 0x0a4) */\n      add\n        /* \"zkp/Verifier.sol\":34276:34308  calldataload(add(offset, 0x0a4)) */\n      calldataload\n        /* \"zkp/Verifier.sol\":34272:34316  mod(calldataload(add(offset, 0x0a4)), Q_MOD) */\n      mod\n        /* \"zkp/Verifier.sol\":34384:34389  Q_MOD */\n      0x30644e72e131a029b85045b68181585d97816a916871ca8d3c208c16d87cfd47\n        /* \"zkp/Verifier.sol\":34375:34380  0x0c4 */\n      0xc4\n        /* \"zkp/Verifier.sol\":34367:34373  offset */\n      dup7\n        /* \"zkp/Verifier.sol\":34363:34381  add(offset, 0x0c4) */\n      add\n        /* \"zkp/Verifier.sol\":34350:34382  calldataload(add(offset, 0x0c4)) */\n      calldataload\n        /* \"zkp/Verifier.sol\":34346:34390  mod(calldataload(add(offset, 0x0c4)), Q_MOD) */\n      mod\n        /* \"zkp/Verifier.sol\":34434:34439  Q_MOD */\n      0x30644e72e131a029b85045b68181585d97816a916871ca8d3c208c16d87cfd47\n        /* \"zkp/Verifier.sol\":34431:34432  x */\n      dup3\n        /* \"zkp/Verifier.sol\":34428:34429  x */\n      dup4\n        /* \"zkp/Verifier.sol\":34421:34440  mulmod(x, x, Q_MOD) */\n      mulmod\n        /* \"zkp/Verifier.sol\":34541:34548  isValid */\n      dup5\n        /* \"zkp/Verifier.sol\":34532:34537  Q_MOD */\n      0x30644e72e131a029b85045b68181585d97816a916871ca8d3c208c16d87cfd47\n        /* \"zkp/Verifier.sol\":34529:34530  3 */\n      0x03\n        /* \"zkp/Verifier.sol\":34521:34526  Q_MOD */\n      0x30644e72e131a029b85045b68181585d97816a916871ca8d3c208c16d87cfd47\n        /* \"zkp/Verifier.sol\":34517:34519  xx */\n      dup5\n        /* \"zkp/Verifier.sol\":34514:34515  x */\n      dup8\n        /* \"zkp/Verifier.sol\":34507:34527  mulmod(x, xx, Q_MOD) */\n      mulmod\n        /* \"zkp/Verifier.sol\":34500:34538  addmod(mulmod(x, xx, Q_MOD), 3, Q_MOD) */\n      addmod\n        /* \"zkp/Verifier.sol\":34492:34497  Q_MOD */\n      0x30644e72e131a029b85045b68181585d97816a916871ca8d3c208c16d87cfd47\n        /* \"zkp/Verifier.sol\":34489:34490  y */\n      dup5\n        /* \"zkp/Verifier.sol\":34486:34487  y */\n      dup6\n        /* \"zkp/Verifier.sol\":34479:34498  mulmod(y, y, Q_MOD) */\n      mulmod\n        /* \"zkp/Verifier.sol\":34476:34539  eq(mulmod(y, y, Q_MOD), addmod(mulmod(x, xx, Q_MOD), 3, Q_MOD)) */\n      eq\n        /* \"zkp/Verifier.sol\":34472:34549  and(eq(mulmod(y, y, Q_MOD), addmod(mulmod(x, xx, Q_MOD), 3, Q_MOD)), isValid) */\n      and\n        /* \"zkp/Verifier.sol\":34461:34549  isValid := and(eq(mulmod(y, y, Q_MOD), addmod(mulmod(x, xx, Q_MOD), 3, Q_MOD)), isValid) */\n      swap5\n      pop\n        /* \"zkp/Verifier.sol\":34605:34606  x */\n      dup3\n        /* \"zkp/Verifier.sol\":34577:34603  PROOF_STATE_POLYS_2_X_SLOT */\n      0x07c0\n        /* \"zkp/Verifier.sol\":34570:34607  mstore(PROOF_STATE_POLYS_2_X_SLOT, x) */\n      mstore\n        /* \"zkp/Verifier.sol\":34663:34664  y */\n      dup2\n        /* \"zkp/Verifier.sol\":34635:34661  PROOF_STATE_POLYS_2_Y_SLOT */\n      0x07e0\n        /* \"zkp/Verifier.sol\":34628:34665  mstore(PROOF_STATE_POLYS_2_Y_SLOT, y) */\n      mstore\n        /* \"zkp/Verifier.sol\":34241:34683  {... */\n      pop\n      pop\n      pop\n        /* \"zkp/Verifier.sol\":34808:34813  Q_MOD */\n      0x30644e72e131a029b85045b68181585d97816a916871ca8d3c208c16d87cfd47\n        /* \"zkp/Verifier.sol\":34799:34804  0x0e4 */\n      0xe4\n        /* \"zkp/Verifier.sol\":34791:34797  offset */\n      dup6\n        /* \"zkp/Verifier.sol\":34787:34805  add(offset, 0x0e4) */\n      add\n        /* \"zkp/Verifier.sol\":34774:34806  calldataload(add(offset, 0x0e4)) */\n      calldataload\n        /* \"zkp/Verifier.sol\":34770:34814  mod(calldataload(add(offset, 0x0e4)), Q_MOD) */\n      mod\n        /* \"zkp/Verifier.sol\":34882:34887  Q_MOD */\n      0x30644e72e131a029b85045b68181585d97816a916871ca8d3c208c16d87cfd47\n        /* \"zkp/Verifier.sol\":34873:34878  0x104 */\n      0x0104\n        /* \"zkp/Verifier.sol\":34865:34871  offset */\n      dup7\n        /* \"zkp/Verifier.sol\":34861:34879  add(offset, 0x104) */\n      add\n        /* \"zkp/Verifier.sol\":34848:34880  calldataload(add(offset, 0x104)) */\n      calldataload\n        /* \"zkp/Verifier.sol\":34844:34888  mod(calldataload(add(offset, 0x104)), Q_MOD) */\n      mod\n        /* \"zkp/Verifier.sol\":34932:34937  Q_MOD */\n      0x30644e72e131a029b85045b68181585d97816a916871ca8d3c208c16d87cfd47\n        /* \"zkp/Verifier.sol\":34929:34930  x */\n      dup3\n        /* \"zkp/Verifier.sol\":34926:34927  x */\n      dup4\n        /* \"zkp/Verifier.sol\":34919:34938  mulmod(x, x, Q_MOD) */\n      mulmod\n        /* \"zkp/Verifier.sol\":35039:35046  isValid */\n      dup5\n        /* \"zkp/Verifier.sol\":35030:35035  Q_MOD */\n      0x30644e72e131a029b85045b68181585d97816a916871ca8d3c208c16d87cfd47\n        /* \"zkp/Verifier.sol\":35027:35028  3 */\n      0x03\n        /* \"zkp/Verifier.sol\":35019:35024  Q_MOD */\n      0x30644e72e131a029b85045b68181585d97816a916871ca8d3c208c16d87cfd47\n        /* \"zkp/Verifier.sol\":35015:35017  xx */\n      dup5\n        /* \"zkp/Verifier.sol\":35012:35013  x */\n      dup8\n        /* \"zkp/Verifier.sol\":35005:35025  mulmod(x, xx, Q_MOD) */\n      mulmod\n        /* \"zkp/Verifier.sol\":34998:35036  addmod(mulmod(x, xx, Q_MOD), 3, Q_MOD) */\n      addmod\n        /* \"zkp/Verifier.sol\":34990:34995  Q_MOD */\n      0x30644e72e131a029b85045b68181585d97816a916871ca8d3c208c16d87cfd47\n        /* \"zkp/Verifier.sol\":34987:34988  y */\n      dup5\n        /* \"zkp/Verifier.sol\":34984:34985  y */\n      dup6\n        /* \"zkp/Verifier.sol\":34977:34996  mulmod(y, y, Q_MOD) */\n      mulmod\n        /* \"zkp/Verifier.sol\":34974:35037  eq(mulmod(y, y, Q_MOD), addmod(mulmod(x, xx, Q_MOD), 3, Q_MOD)) */\n      eq\n        /* \"zkp/Verifier.sol\":34970:35047  and(eq(mulmod(y, y, Q_MOD), addmod(mulmod(x, xx, Q_MOD), 3, Q_MOD)), isValid) */\n      and\n        /* \"zkp/Verifier.sol\":34959:35047  isValid := and(eq(mulmod(y, y, Q_MOD), addmod(mulmod(x, xx, Q_MOD), 3, Q_MOD)), isValid) */\n      swap5\n      pop\n        /* \"zkp/Verifier.sol\":35103:35104  x */\n      dup3\n        /* \"zkp/Verifier.sol\":35075:35101  PROOF_STATE_POLYS_3_X_SLOT */\n      0x0800\n        /* \"zkp/Verifier.sol\":35068:35105  mstore(PROOF_STATE_POLYS_3_X_SLOT, x) */\n      mstore\n        /* \"zkp/Verifier.sol\":35161:35162  y */\n      dup2\n        /* \"zkp/Verifier.sol\":35133:35159  PROOF_STATE_POLYS_3_Y_SLOT */\n      0x0820\n        /* \"zkp/Verifier.sol\":35126:35163  mstore(PROOF_STATE_POLYS_3_Y_SLOT, y) */\n      mstore\n        /* \"zkp/Verifier.sol\":34739:35181  {... */\n      pop\n      pop\n      pop\n        /* \"zkp/Verifier.sol\":35323:35328  Q_MOD */\n      0x30644e72e131a029b85045b68181585d97816a916871ca8d3c208c16d87cfd47\n        /* \"zkp/Verifier.sol\":35314:35319  0x124 */\n      0x0124\n        /* \"zkp/Verifier.sol\":35306:35312  offset */\n      dup6\n        /* \"zkp/Verifier.sol\":35302:35320  add(offset, 0x124) */\n      add\n        /* \"zkp/Verifier.sol\":35289:35321  calldataload(add(offset, 0x124)) */\n      calldataload\n        /* \"zkp/Verifier.sol\":35285:35329  mod(calldataload(add(offset, 0x124)), Q_MOD) */\n      mod\n        /* \"zkp/Verifier.sol\":35397:35402  Q_MOD */\n      0x30644e72e131a029b85045b68181585d97816a916871ca8d3c208c16d87cfd47\n        /* \"zkp/Verifier.sol\":35388:35393  0x144 */\n      0x0144\n        /* \"zkp/Verifier.sol\":35380:35386  offset */\n      dup7\n        /* \"zkp/Verifier.sol\":35376:35394  add(offset, 0x144) */\n      add\n        /* \"zkp/Verifier.sol\":35363:35395  calldataload(add(offset, 0x144)) */\n      calldataload\n        /* \"zkp/Verifier.sol\":35359:35403  mod(calldataload(add(offset, 0x144)), Q_MOD) */\n      mod\n        /* \"zkp/Verifier.sol\":35447:35452  Q_MOD */\n      0x30644e72e131a029b85045b68181585d97816a916871ca8d3c208c16d87cfd47\n        /* \"zkp/Verifier.sol\":35444:35445  x */\n      dup3\n        /* \"zkp/Verifier.sol\":35441:35442  x */\n      dup4\n        /* \"zkp/Verifier.sol\":35434:35453  mulmod(x, x, Q_MOD) */\n      mulmod\n        /* \"zkp/Verifier.sol\":35554:35561  isValid */\n      dup5\n        /* \"zkp/Verifier.sol\":35545:35550  Q_MOD */\n      0x30644e72e131a029b85045b68181585d97816a916871ca8d3c208c16d87cfd47\n        /* \"zkp/Verifier.sol\":35542:35543  3 */\n      0x03\n        /* \"zkp/Verifier.sol\":35534:35539  Q_MOD */\n      0x30644e72e131a029b85045b68181585d97816a916871ca8d3c208c16d87cfd47\n        /* \"zkp/Verifier.sol\":35530:35532  xx */\n      dup5\n        /* \"zkp/Verifier.sol\":35527:35528  x */\n      dup8\n        /* \"zkp/Verifier.sol\":35520:35540  mulmod(x, xx, Q_MOD) */\n      mulmod\n        /* \"zkp/Verifier.sol\":35513:35551  addmod(mulmod(x, xx, Q_MOD), 3, Q_MOD) */\n      addmod\n        /* \"zkp/Verifier.sol\":35505:35510  Q_MOD */\n      0x30644e72e131a029b85045b68181585d97816a916871ca8d3c208c16d87cfd47\n        /* \"zkp/Verifier.sol\":35502:35503  y */\n      dup5\n        /* \"zkp/Verifier.sol\":35499:35500  y */\n      dup6\n        /* \"zkp/Verifier.sol\":35492:35511  mulmod(y, y, Q_MOD) */\n      mulmod\n        /* \"zkp/Verifier.sol\":35489:35552  eq(mulmod(y, y, Q_MOD), addmod(mulmod(x, xx, Q_MOD), 3, Q_MOD)) */\n      eq\n        /* \"zkp/Verifier.sol\":35485:35562  and(eq(mulmod(y, y, Q_MOD), addmod(mulmod(x, xx, Q_MOD), 3, Q_MOD)), isValid) */\n      and\n        /* \"zkp/Verifier.sol\":35474:35562  isValid := and(eq(mulmod(y, y, Q_MOD), addmod(mulmod(x, xx, Q_MOD), 3, Q_MOD)), isValid) */\n      swap5\n      pop\n        /* \"zkp/Verifier.sol\":35635:35636  x */\n      dup3\n        /* \"zkp/Verifier.sol\":35590:35633  PROOF_COPY_PERMUTATION_GRAND_PRODUCT_X_SLOT */\n      0x0840\n        /* \"zkp/Verifier.sol\":35583:35637  mstore(PROOF_COPY_PERMUTATION_GRAND_PRODUCT_X_SLOT, x) */\n      mstore\n        /* \"zkp/Verifier.sol\":35710:35711  y */\n      dup2\n        /* \"zkp/Verifier.sol\":35665:35708  PROOF_COPY_PERMUTATION_GRAND_PRODUCT_Y_SLOT */\n      0x0860\n        /* \"zkp/Verifier.sol\":35658:35712  mstore(PROOF_COPY_PERMUTATION_GRAND_PRODUCT_Y_SLOT, y) */\n      mstore\n        /* \"zkp/Verifier.sol\":35254:35730  {... */\n      pop\n      pop\n      pop\n        /* \"zkp/Verifier.sol\":35855:35860  Q_MOD */\n      0x30644e72e131a029b85045b68181585d97816a916871ca8d3c208c16d87cfd47\n        /* \"zkp/Verifier.sol\":35846:35851  0x164 */\n      0x0164\n        /* \"zkp/Verifier.sol\":35838:35844  offset */\n      dup6\n        /* \"zkp/Verifier.sol\":35834:35852  add(offset, 0x164) */\n      add\n        /* \"zkp/Verifier.sol\":35821:35853  calldataload(add(offset, 0x164)) */\n      calldataload\n        /* \"zkp/Verifier.sol\":35817:35861  mod(calldataload(add(offset, 0x164)), Q_MOD) */\n      mod\n        /* \"zkp/Verifier.sol\":35929:35934  Q_MOD */\n      0x30644e72e131a029b85045b68181585d97816a916871ca8d3c208c16d87cfd47\n        /* \"zkp/Verifier.sol\":35920:35925  0x184 */\n      0x0184\n        /* \"zkp/Verifier.sol\":35912:35918  offset */\n      dup7\n        /* \"zkp/Verifier.sol\":35908:35926  add(offset, 0x184) */\n      add\n        /* \"zkp/Verifier.sol\":35895:35927  calldataload(add(offset, 0x184)) */\n      calldataload\n        /* \"zkp/Verifier.sol\":35891:35935  mod(calldataload(add(offset, 0x184)), Q_MOD) */\n      mod\n        /* \"zkp/Verifier.sol\":35979:35984  Q_MOD */\n      0x30644e72e131a029b85045b68181585d97816a916871ca8d3c208c16d87cfd47\n        /* \"zkp/Verifier.sol\":35976:35977  x */\n      dup3\n        /* \"zkp/Verifier.sol\":35973:35974  x */\n      dup4\n        /* \"zkp/Verifier.sol\":35966:35985  mulmod(x, x, Q_MOD) */\n      mulmod\n        /* \"zkp/Verifier.sol\":36086:36093  isValid */\n      dup5\n        /* \"zkp/Verifier.sol\":36077:36082  Q_MOD */\n      0x30644e72e131a029b85045b68181585d97816a916871ca8d3c208c16d87cfd47\n        /* \"zkp/Verifier.sol\":36074:36075  3 */\n      0x03\n        /* \"zkp/Verifier.sol\":36066:36071  Q_MOD */\n      0x30644e72e131a029b85045b68181585d97816a916871ca8d3c208c16d87cfd47\n        /* \"zkp/Verifier.sol\":36062:36064  xx */\n      dup5\n        /* \"zkp/Verifier.sol\":36059:36060  x */\n      dup8\n        /* \"zkp/Verifier.sol\":36052:36072  mulmod(x, xx, Q_MOD) */\n      mulmod\n        /* \"zkp/Verifier.sol\":36045:36083  addmod(mulmod(x, xx, Q_MOD), 3, Q_MOD) */\n      addmod\n        /* \"zkp/Verifier.sol\":36037:36042  Q_MOD */\n      0x30644e72e131a029b85045b68181585d97816a916871ca8d3c208c16d87cfd47\n        /* \"zkp/Verifier.sol\":36034:36035  y */\n      dup5\n        /* \"zkp/Verifier.sol\":36031:36032  y */\n      dup6\n        /* \"zkp/Verifier.sol\":36024:36043  mulmod(y, y, Q_MOD) */\n      mulmod\n        /* \"zkp/Verifier.sol\":36021:36084  eq(mulmod(y, y, Q_MOD), addmod(mulmod(x, xx, Q_MOD), 3, Q_MOD)) */\n      eq\n        /* \"zkp/Verifier.sol\":36017:36094  and(eq(mulmod(y, y, Q_MOD), addmod(mulmod(x, xx, Q_MOD), 3, Q_MOD)), isValid) */\n      and\n        /* \"zkp/Verifier.sol\":36006:36094  isValid := and(eq(mulmod(y, y, Q_MOD), addmod(mulmod(x, xx, Q_MOD), 3, Q_MOD)), isValid) */\n      swap5\n      pop\n        /* \"zkp/Verifier.sol\":36150:36151  x */\n      dup3\n        /* \"zkp/Verifier.sol\":36122:36148  PROOF_LOOKUP_S_POLY_X_SLOT */\n      0x0880\n        /* \"zkp/Verifier.sol\":36115:36152  mstore(PROOF_LOOKUP_S_POLY_X_SLOT, x) */\n      mstore\n        /* \"zkp/Verifier.sol\":36208:36209  y */\n      dup2\n        /* \"zkp/Verifier.sol\":36180:36206  PROOF_LOOKUP_S_POLY_Y_SLOT */\n      0x08a0\n        /* \"zkp/Verifier.sol\":36173:36210  mstore(PROOF_LOOKUP_S_POLY_Y_SLOT, y) */\n      mstore\n        /* \"zkp/Verifier.sol\":35786:36228  {... */\n      pop\n      pop\n      pop\n        /* \"zkp/Verifier.sol\":36360:36365  Q_MOD */\n      0x30644e72e131a029b85045b68181585d97816a916871ca8d3c208c16d87cfd47\n        /* \"zkp/Verifier.sol\":36351:36356  0x1a4 */\n      0x01a4\n        /* \"zkp/Verifier.sol\":36343:36349  offset */\n      dup6\n        /* \"zkp/Verifier.sol\":36339:36357  add(offset, 0x1a4) */\n      add\n        /* \"zkp/Verifier.sol\":36326:36358  calldataload(add(offset, 0x1a4)) */\n      calldataload\n        /* \"zkp/Verifier.sol\":36322:36366  mod(calldataload(add(offset, 0x1a4)), Q_MOD) */\n      mod\n        /* \"zkp/Verifier.sol\":36434:36439  Q_MOD */\n      0x30644e72e131a029b85045b68181585d97816a916871ca8d3c208c16d87cfd47\n        /* \"zkp/Verifier.sol\":36425:36430  0x1c4 */\n      0x01c4\n        /* \"zkp/Verifier.sol\":36417:36423  offset */\n      dup7\n        /* \"zkp/Verifier.sol\":36413:36431  add(offset, 0x1c4) */\n      add\n        /* \"zkp/Verifier.sol\":36400:36432  calldataload(add(offset, 0x1c4)) */\n      calldataload\n        /* \"zkp/Verifier.sol\":36396:36440  mod(calldataload(add(offset, 0x1c4)), Q_MOD) */\n      mod\n        /* \"zkp/Verifier.sol\":36484:36489  Q_MOD */\n      0x30644e72e131a029b85045b68181585d97816a916871ca8d3c208c16d87cfd47\n        /* \"zkp/Verifier.sol\":36481:36482  x */\n      dup3\n        /* \"zkp/Verifier.sol\":36478:36479  x */\n      dup4\n        /* \"zkp/Verifier.sol\":36471:36490  mulmod(x, x, Q_MOD) */\n      mulmod\n        /* \"zkp/Verifier.sol\":36591:36598  isValid */\n      dup5\n        /* \"zkp/Verifier.sol\":36582:36587  Q_MOD */\n      0x30644e72e131a029b85045b68181585d97816a916871ca8d3c208c16d87cfd47\n        /* \"zkp/Verifier.sol\":36579:36580  3 */\n      0x03\n        /* \"zkp/Verifier.sol\":36571:36576  Q_MOD */\n      0x30644e72e131a029b85045b68181585d97816a916871ca8d3c208c16d87cfd47\n        /* \"zkp/Verifier.sol\":36567:36569  xx */\n      dup5\n        /* \"zkp/Verifier.sol\":36564:36565  x */\n      dup8\n        /* \"zkp/Verifier.sol\":36557:36577  mulmod(x, xx, Q_MOD) */\n      mulmod\n        /* \"zkp/Verifier.sol\":36550:36588  addmod(mulmod(x, xx, Q_MOD), 3, Q_MOD) */\n      addmod\n        /* \"zkp/Verifier.sol\":36542:36547  Q_MOD */\n      0x30644e72e131a029b85045b68181585d97816a916871ca8d3c208c16d87cfd47\n        /* \"zkp/Verifier.sol\":36539:36540  y */\n      dup5\n        /* \"zkp/Verifier.sol\":36536:36537  y */\n      dup6\n        /* \"zkp/Verifier.sol\":36529:36548  mulmod(y, y, Q_MOD) */\n      mulmod\n        /* \"zkp/Verifier.sol\":36526:36589  eq(mulmod(y, y, Q_MOD), addmod(mulmod(x, xx, Q_MOD), 3, Q_MOD)) */\n      eq\n        /* \"zkp/Verifier.sol\":36522:36599  and(eq(mulmod(y, y, Q_MOD), addmod(mulmod(x, xx, Q_MOD), 3, Q_MOD)), isValid) */\n      and\n        /* \"zkp/Verifier.sol\":36511:36599  isValid := and(eq(mulmod(y, y, Q_MOD), addmod(mulmod(x, xx, Q_MOD), 3, Q_MOD)), isValid) */\n      swap5\n      pop\n        /* \"zkp/Verifier.sol\":36662:36663  x */\n      dup3\n        /* \"zkp/Verifier.sol\":36627:36660  PROOF_LOOKUP_GRAND_PRODUCT_X_SLOT */\n      0x08c0\n        /* \"zkp/Verifier.sol\":36620:36664  mstore(PROOF_LOOKUP_GRAND_PRODUCT_X_SLOT, x) */\n      mstore\n        /* \"zkp/Verifier.sol\":36727:36728  y */\n      dup2\n        /* \"zkp/Verifier.sol\":36692:36725  PROOF_LOOKUP_GRAND_PRODUCT_Y_SLOT */\n      0x08e0\n        /* \"zkp/Verifier.sol\":36685:36729  mstore(PROOF_LOOKUP_GRAND_PRODUCT_Y_SLOT, y) */\n      mstore\n        /* \"zkp/Verifier.sol\":36291:36747  {... */\n      pop\n      pop\n      pop\n        /* \"zkp/Verifier.sol\":36880:36885  Q_MOD */\n      0x30644e72e131a029b85045b68181585d97816a916871ca8d3c208c16d87cfd47\n        /* \"zkp/Verifier.sol\":36871:36876  0x1e4 */\n      0x01e4\n        /* \"zkp/Verifier.sol\":36863:36869  offset */\n      dup6\n        /* \"zkp/Verifier.sol\":36859:36877  add(offset, 0x1e4) */\n      add\n        /* \"zkp/Verifier.sol\":36846:36878  calldataload(add(offset, 0x1e4)) */\n      calldataload\n        /* \"zkp/Verifier.sol\":36842:36886  mod(calldataload(add(offset, 0x1e4)), Q_MOD) */\n      mod\n        /* \"zkp/Verifier.sol\":36954:36959  Q_MOD */\n      0x30644e72e131a029b85045b68181585d97816a916871ca8d3c208c16d87cfd47\n        /* \"zkp/Verifier.sol\":36945:36950  0x204 */\n      0x0204\n        /* \"zkp/Verifier.sol\":36937:36943  offset */\n      dup7\n        /* \"zkp/Verifier.sol\":36933:36951  add(offset, 0x204) */\n      add\n        /* \"zkp/Verifier.sol\":36920:36952  calldataload(add(offset, 0x204)) */\n      calldataload\n        /* \"zkp/Verifier.sol\":36916:36960  mod(calldataload(add(offset, 0x204)), Q_MOD) */\n      mod\n        /* \"zkp/Verifier.sol\":37004:37009  Q_MOD */\n      0x30644e72e131a029b85045b68181585d97816a916871ca8d3c208c16d87cfd47\n        /* \"zkp/Verifier.sol\":37001:37002  x */\n      dup3\n        /* \"zkp/Verifier.sol\":36998:36999  x */\n      dup4\n        /* \"zkp/Verifier.sol\":36991:37010  mulmod(x, x, Q_MOD) */\n      mulmod\n        /* \"zkp/Verifier.sol\":37111:37118  isValid */\n      dup5\n        /* \"zkp/Verifier.sol\":37102:37107  Q_MOD */\n      0x30644e72e131a029b85045b68181585d97816a916871ca8d3c208c16d87cfd47\n        /* \"zkp/Verifier.sol\":37099:37100  3 */\n      0x03\n        /* \"zkp/Verifier.sol\":37091:37096  Q_MOD */\n      0x30644e72e131a029b85045b68181585d97816a916871ca8d3c208c16d87cfd47\n        /* \"zkp/Verifier.sol\":37087:37089  xx */\n      dup5\n        /* \"zkp/Verifier.sol\":37084:37085  x */\n      dup8\n        /* \"zkp/Verifier.sol\":37077:37097  mulmod(x, xx, Q_MOD) */\n      mulmod\n        /* \"zkp/Verifier.sol\":37070:37108  addmod(mulmod(x, xx, Q_MOD), 3, Q_MOD) */\n      addmod\n        /* \"zkp/Verifier.sol\":37062:37067  Q_MOD */\n      0x30644e72e131a029b85045b68181585d97816a916871ca8d3c208c16d87cfd47\n        /* \"zkp/Verifier.sol\":37059:37060  y */\n      dup5\n        /* \"zkp/Verifier.sol\":37056:37057  y */\n      dup6\n        /* \"zkp/Verifier.sol\":37049:37068  mulmod(y, y, Q_MOD) */\n      mulmod\n        /* \"zkp/Verifier.sol\":37046:37109  eq(mulmod(y, y, Q_MOD), addmod(mulmod(x, xx, Q_MOD), 3, Q_MOD)) */\n      eq\n        /* \"zkp/Verifier.sol\":37042:37119  and(eq(mulmod(y, y, Q_MOD), addmod(mulmod(x, xx, Q_MOD), 3, Q_MOD)), isValid) */\n      and\n        /* \"zkp/Verifier.sol\":37031:37119  isValid := and(eq(mulmod(y, y, Q_MOD), addmod(mulmod(x, xx, Q_MOD), 3, Q_MOD)), isValid) */\n      swap5\n      pop\n        /* \"zkp/Verifier.sol\":37183:37184  x */\n      dup3\n        /* \"zkp/Verifier.sol\":37147:37181  PROOF_QUOTIENT_POLY_PARTS_0_X_SLOT */\n      0x0900\n        /* \"zkp/Verifier.sol\":37140:37185  mstore(PROOF_QUOTIENT_POLY_PARTS_0_X_SLOT, x) */\n      mstore\n        /* \"zkp/Verifier.sol\":37249:37250  y */\n      dup2\n        /* \"zkp/Verifier.sol\":37213:37247  PROOF_QUOTIENT_POLY_PARTS_0_Y_SLOT */\n      0x0920\n        /* \"zkp/Verifier.sol\":37206:37251  mstore(PROOF_QUOTIENT_POLY_PARTS_0_Y_SLOT, y) */\n      mstore\n        /* \"zkp/Verifier.sol\":36811:37269  {... */\n      pop\n      pop\n      pop\n        /* \"zkp/Verifier.sol\":37402:37407  Q_MOD */\n      0x30644e72e131a029b85045b68181585d97816a916871ca8d3c208c16d87cfd47\n        /* \"zkp/Verifier.sol\":37393:37398  0x224 */\n      0x0224\n        /* \"zkp/Verifier.sol\":37385:37391  offset */\n      dup6\n        /* \"zkp/Verifier.sol\":37381:37399  add(offset, 0x224) */\n      add\n        /* \"zkp/Verifier.sol\":37368:37400  calldataload(add(offset, 0x224)) */\n      calldataload\n        /* \"zkp/Verifier.sol\":37364:37408  mod(calldataload(add(offset, 0x224)), Q_MOD) */\n      mod\n        /* \"zkp/Verifier.sol\":37476:37481  Q_MOD */\n      0x30644e72e131a029b85045b68181585d97816a916871ca8d3c208c16d87cfd47\n        /* \"zkp/Verifier.sol\":37467:37472  0x244 */\n      0x0244\n        /* \"zkp/Verifier.sol\":37459:37465  offset */\n      dup7\n        /* \"zkp/Verifier.sol\":37455:37473  add(offset, 0x244) */\n      add\n        /* \"zkp/Verifier.sol\":37442:37474  calldataload(add(offset, 0x244)) */\n      calldataload\n        /* \"zkp/Verifier.sol\":37438:37482  mod(calldataload(add(offset, 0x244)), Q_MOD) */\n      mod\n        /* \"zkp/Verifier.sol\":37526:37531  Q_MOD */\n      0x30644e72e131a029b85045b68181585d97816a916871ca8d3c208c16d87cfd47\n        /* \"zkp/Verifier.sol\":37523:37524  x */\n      dup3\n        /* \"zkp/Verifier.sol\":37520:37521  x */\n      dup4\n        /* \"zkp/Verifier.sol\":37513:37532  mulmod(x, x, Q_MOD) */\n      mulmod\n        /* \"zkp/Verifier.sol\":37633:37640  isValid */\n      dup5\n        /* \"zkp/Verifier.sol\":37624:37629  Q_MOD */\n      0x30644e72e131a029b85045b68181585d97816a916871ca8d3c208c16d87cfd47\n        /* \"zkp/Verifier.sol\":37621:37622  3 */\n      0x03\n        /* \"zkp/Verifier.sol\":37613:37618  Q_MOD */\n      0x30644e72e131a029b85045b68181585d97816a916871ca8d3c208c16d87cfd47\n        /* \"zkp/Verifier.sol\":37609:37611  xx */\n      dup5\n        /* \"zkp/Verifier.sol\":37606:37607  x */\n      dup8\n        /* \"zkp/Verifier.sol\":37599:37619  mulmod(x, xx, Q_MOD) */\n      mulmod\n        /* \"zkp/Verifier.sol\":37592:37630  addmod(mulmod(x, xx, Q_MOD), 3, Q_MOD) */\n      addmod\n        /* \"zkp/Verifier.sol\":37584:37589  Q_MOD */\n      0x30644e72e131a029b85045b68181585d97816a916871ca8d3c208c16d87cfd47\n        /* \"zkp/Verifier.sol\":37581:37582  y */\n      dup5\n        /* \"zkp/Verifier.sol\":37578:37579  y */\n      dup6\n        /* \"zkp/Verifier.sol\":37571:37590  mulmod(y, y, Q_MOD) */\n      mulmod\n        /* \"zkp/Verifier.sol\":37568:37631  eq(mulmod(y, y, Q_MOD), addmod(mulmod(x, xx, Q_MOD), 3, Q_MOD)) */\n      eq\n        /* \"zkp/Verifier.sol\":37564:37641  and(eq(mulmod(y, y, Q_MOD), addmod(mulmod(x, xx, Q_MOD), 3, Q_MOD)), isValid) */\n      and\n        /* \"zkp/Verifier.sol\":37553:37641  isValid := and(eq(mulmod(y, y, Q_MOD), addmod(mulmod(x, xx, Q_MOD), 3, Q_MOD)), isValid) */\n      swap5\n      pop\n        /* \"zkp/Verifier.sol\":37705:37706  x */\n      dup3\n        /* \"zkp/Verifier.sol\":37669:37703  PROOF_QUOTIENT_POLY_PARTS_1_X_SLOT */\n      0x0940\n        /* \"zkp/Verifier.sol\":37662:37707  mstore(PROOF_QUOTIENT_POLY_PARTS_1_X_SLOT, x) */\n      mstore\n        /* \"zkp/Verifier.sol\":37771:37772  y */\n      dup2\n        /* \"zkp/Verifier.sol\":37735:37769  PROOF_QUOTIENT_POLY_PARTS_1_Y_SLOT */\n      0x0960\n        /* \"zkp/Verifier.sol\":37728:37773  mstore(PROOF_QUOTIENT_POLY_PARTS_1_Y_SLOT, y) */\n      mstore\n        /* \"zkp/Verifier.sol\":37333:37791  {... */\n      pop\n      pop\n      pop\n        /* \"zkp/Verifier.sol\":37924:37929  Q_MOD */\n      0x30644e72e131a029b85045b68181585d97816a916871ca8d3c208c16d87cfd47\n        /* \"zkp/Verifier.sol\":37915:37920  0x264 */\n      0x0264\n        /* \"zkp/Verifier.sol\":37907:37913  offset */\n      dup6\n        /* \"zkp/Verifier.sol\":37903:37921  add(offset, 0x264) */\n      add\n        /* \"zkp/Verifier.sol\":37890:37922  calldataload(add(offset, 0x264)) */\n      calldataload\n        /* \"zkp/Verifier.sol\":37886:37930  mod(calldataload(add(offset, 0x264)), Q_MOD) */\n      mod\n        /* \"zkp/Verifier.sol\":37998:38003  Q_MOD */\n      0x30644e72e131a029b85045b68181585d97816a916871ca8d3c208c16d87cfd47\n        /* \"zkp/Verifier.sol\":37989:37994  0x284 */\n      0x0284\n        /* \"zkp/Verifier.sol\":37981:37987  offset */\n      dup7\n        /* \"zkp/Verifier.sol\":37977:37995  add(offset, 0x284) */\n      add\n        /* \"zkp/Verifier.sol\":37964:37996  calldataload(add(offset, 0x284)) */\n      calldataload\n        /* \"zkp/Verifier.sol\":37960:38004  mod(calldataload(add(offset, 0x284)), Q_MOD) */\n      mod\n        /* \"zkp/Verifier.sol\":38048:38053  Q_MOD */\n      0x30644e72e131a029b85045b68181585d97816a916871ca8d3c208c16d87cfd47\n        /* \"zkp/Verifier.sol\":38045:38046  x */\n      dup3\n        /* \"zkp/Verifier.sol\":38042:38043  x */\n      dup4\n        /* \"zkp/Verifier.sol\":38035:38054  mulmod(x, x, Q_MOD) */\n      mulmod\n        /* \"zkp/Verifier.sol\":38155:38162  isValid */\n      dup5\n        /* \"zkp/Verifier.sol\":38146:38151  Q_MOD */\n      0x30644e72e131a029b85045b68181585d97816a916871ca8d3c208c16d87cfd47\n        /* \"zkp/Verifier.sol\":38143:38144  3 */\n      0x03\n        /* \"zkp/Verifier.sol\":38135:38140  Q_MOD */\n      0x30644e72e131a029b85045b68181585d97816a916871ca8d3c208c16d87cfd47\n        /* \"zkp/Verifier.sol\":38131:38133  xx */\n      dup5\n        /* \"zkp/Verifier.sol\":38128:38129  x */\n      dup8\n        /* \"zkp/Verifier.sol\":38121:38141  mulmod(x, xx, Q_MOD) */\n      mulmod\n        /* \"zkp/Verifier.sol\":38114:38152  addmod(mulmod(x, xx, Q_MOD), 3, Q_MOD) */\n      addmod\n        /* \"zkp/Verifier.sol\":38106:38111  Q_MOD */\n      0x30644e72e131a029b85045b68181585d97816a916871ca8d3c208c16d87cfd47\n        /* \"zkp/Verifier.sol\":38103:38104  y */\n      dup5\n        /* \"zkp/Verifier.sol\":38100:38101  y */\n      dup6\n        /* \"zkp/Verifier.sol\":38093:38112  mulmod(y, y, Q_MOD) */\n      mulmod\n        /* \"zkp/Verifier.sol\":38090:38153  eq(mulmod(y, y, Q_MOD), addmod(mulmod(x, xx, Q_MOD), 3, Q_MOD)) */\n      eq\n        /* \"zkp/Verifier.sol\":38086:38163  and(eq(mulmod(y, y, Q_MOD), addmod(mulmod(x, xx, Q_MOD), 3, Q_MOD)), isValid) */\n      and\n        /* \"zkp/Verifier.sol\":38075:38163  isValid := and(eq(mulmod(y, y, Q_MOD), addmod(mulmod(x, xx, Q_MOD), 3, Q_MOD)), isValid) */\n      swap5\n      pop\n        /* \"zkp/Verifier.sol\":38227:38228  x */\n      dup3\n        /* \"zkp/Verifier.sol\":38191:38225  PROOF_QUOTIENT_POLY_PARTS_2_X_SLOT */\n      0x0980\n        /* \"zkp/Verifier.sol\":38184:38229  mstore(PROOF_QUOTIENT_POLY_PARTS_2_X_SLOT, x) */\n      mstore\n        /* \"zkp/Verifier.sol\":38293:38294  y */\n      dup2\n        /* \"zkp/Verifier.sol\":38257:38291  PROOF_QUOTIENT_POLY_PARTS_2_Y_SLOT */\n      0x09a0\n        /* \"zkp/Verifier.sol\":38250:38295  mstore(PROOF_QUOTIENT_POLY_PARTS_2_Y_SLOT, y) */\n      mstore\n        /* \"zkp/Verifier.sol\":37855:38313  {... */\n      pop\n      pop\n      pop\n        /* \"zkp/Verifier.sol\":38446:38451  Q_MOD */\n      0x30644e72e131a029b85045b68181585d97816a916871ca8d3c208c16d87cfd47\n        /* \"zkp/Verifier.sol\":38437:38442  0x2a4 */\n      0x02a4\n        /* \"zkp/Verifier.sol\":38429:38435  offset */\n      dup6\n        /* \"zkp/Verifier.sol\":38425:38443  add(offset, 0x2a4) */\n      add\n        /* \"zkp/Verifier.sol\":38412:38444  calldataload(add(offset, 0x2a4)) */\n      calldataload\n        /* \"zkp/Verifier.sol\":38408:38452  mod(calldataload(add(offset, 0x2a4)), Q_MOD) */\n      mod\n        /* \"zkp/Verifier.sol\":38520:38525  Q_MOD */\n      0x30644e72e131a029b85045b68181585d97816a916871ca8d3c208c16d87cfd47\n        /* \"zkp/Verifier.sol\":38511:38516  0x2c4 */\n      0x02c4\n        /* \"zkp/Verifier.sol\":38503:38509  offset */\n      dup7\n        /* \"zkp/Verifier.sol\":38499:38517  add(offset, 0x2c4) */\n      add\n        /* \"zkp/Verifier.sol\":38486:38518  calldataload(add(offset, 0x2c4)) */\n      calldataload\n        /* \"zkp/Verifier.sol\":38482:38526  mod(calldataload(add(offset, 0x2c4)), Q_MOD) */\n      mod\n        /* \"zkp/Verifier.sol\":38570:38575  Q_MOD */\n      0x30644e72e131a029b85045b68181585d97816a916871ca8d3c208c16d87cfd47\n        /* \"zkp/Verifier.sol\":38567:38568  x */\n      dup3\n        /* \"zkp/Verifier.sol\":38564:38565  x */\n      dup4\n        /* \"zkp/Verifier.sol\":38557:38576  mulmod(x, x, Q_MOD) */\n      mulmod\n        /* \"zkp/Verifier.sol\":38677:38684  isValid */\n      dup5\n        /* \"zkp/Verifier.sol\":38668:38673  Q_MOD */\n      0x30644e72e131a029b85045b68181585d97816a916871ca8d3c208c16d87cfd47\n        /* \"zkp/Verifier.sol\":38665:38666  3 */\n      0x03\n        /* \"zkp/Verifier.sol\":38657:38662  Q_MOD */\n      0x30644e72e131a029b85045b68181585d97816a916871ca8d3c208c16d87cfd47\n        /* \"zkp/Verifier.sol\":38653:38655  xx */\n      dup5\n        /* \"zkp/Verifier.sol\":38650:38651  x */\n      dup8\n        /* \"zkp/Verifier.sol\":38643:38663  mulmod(x, xx, Q_MOD) */\n      mulmod\n        /* \"zkp/Verifier.sol\":38636:38674  addmod(mulmod(x, xx, Q_MOD), 3, Q_MOD) */\n      addmod\n        /* \"zkp/Verifier.sol\":38628:38633  Q_MOD */\n      0x30644e72e131a029b85045b68181585d97816a916871ca8d3c208c16d87cfd47\n        /* \"zkp/Verifier.sol\":38625:38626  y */\n      dup5\n        /* \"zkp/Verifier.sol\":38622:38623  y */\n      dup6\n        /* \"zkp/Verifier.sol\":38615:38634  mulmod(y, y, Q_MOD) */\n      mulmod\n        /* \"zkp/Verifier.sol\":38612:38675  eq(mulmod(y, y, Q_MOD), addmod(mulmod(x, xx, Q_MOD), 3, Q_MOD)) */\n      eq\n        /* \"zkp/Verifier.sol\":38608:38685  and(eq(mulmod(y, y, Q_MOD), addmod(mulmod(x, xx, Q_MOD), 3, Q_MOD)), isValid) */\n      and\n        /* \"zkp/Verifier.sol\":38597:38685  isValid := and(eq(mulmod(y, y, Q_MOD), addmod(mulmod(x, xx, Q_MOD), 3, Q_MOD)), isValid) */\n      swap5\n      pop\n        /* \"zkp/Verifier.sol\":38749:38750  x */\n      dup3\n        /* \"zkp/Verifier.sol\":38713:38747  PROOF_QUOTIENT_POLY_PARTS_3_X_SLOT */\n      0x09c0\n        /* \"zkp/Verifier.sol\":38706:38751  mstore(PROOF_QUOTIENT_POLY_PARTS_3_X_SLOT, x) */\n      mstore\n        /* \"zkp/Verifier.sol\":38815:38816  y */\n      dup2\n        /* \"zkp/Verifier.sol\":38779:38813  PROOF_QUOTIENT_POLY_PARTS_3_Y_SLOT */\n      0x09e0\n        /* \"zkp/Verifier.sol\":38772:38817  mstore(PROOF_QUOTIENT_POLY_PARTS_3_Y_SLOT, y) */\n      mstore\n        /* \"zkp/Verifier.sol\":38377:38835  {... */\n      pop\n      pop\n      pop\n        /* \"zkp/Verifier.sol\":38937:38942  R_MOD */\n      0x30644e72e131a029b85045b68181585d2833e84879b9709143e1f593f0000001\n        /* \"zkp/Verifier.sol\":38928:38933  0x2e4 */\n      0x02e4\n        /* \"zkp/Verifier.sol\":38920:38926  offset */\n      dup6\n        /* \"zkp/Verifier.sol\":38916:38934  add(offset, 0x2e4) */\n      add\n        /* \"zkp/Verifier.sol\":38903:38935  calldataload(add(offset, 0x2e4)) */\n      calldataload\n        /* \"zkp/Verifier.sol\":38899:38943  mod(calldataload(add(offset, 0x2e4)), R_MOD) */\n      mod\n        /* \"zkp/Verifier.sol\":38860:38897  PROOF_STATE_POLYS_0_OPENING_AT_Z_SLOT */\n      0x0a00\n        /* \"zkp/Verifier.sol\":38853:38944  mstore(PROOF_STATE_POLYS_0_OPENING_AT_Z_SLOT, mod(calldataload(add(offset, 0x2e4)), R_MOD)) */\n      mstore\n        /* \"zkp/Verifier.sol\":39045:39050  R_MOD */\n      0x30644e72e131a029b85045b68181585d2833e84879b9709143e1f593f0000001\n        /* \"zkp/Verifier.sol\":39036:39041  0x304 */\n      0x0304\n        /* \"zkp/Verifier.sol\":39028:39034  offset */\n      dup6\n        /* \"zkp/Verifier.sol\":39024:39042  add(offset, 0x304) */\n      add\n        /* \"zkp/Verifier.sol\":39011:39043  calldataload(add(offset, 0x304)) */\n      calldataload\n        /* \"zkp/Verifier.sol\":39007:39051  mod(calldataload(add(offset, 0x304)), R_MOD) */\n      mod\n        /* \"zkp/Verifier.sol\":38968:39005  PROOF_STATE_POLYS_1_OPENING_AT_Z_SLOT */\n      0x0a20\n        /* \"zkp/Verifier.sol\":38961:39052  mstore(PROOF_STATE_POLYS_1_OPENING_AT_Z_SLOT, mod(calldataload(add(offset, 0x304)), R_MOD)) */\n      mstore\n        /* \"zkp/Verifier.sol\":39153:39158  R_MOD */\n      0x30644e72e131a029b85045b68181585d2833e84879b9709143e1f593f0000001\n        /* \"zkp/Verifier.sol\":39144:39149  0x324 */\n      0x0324\n        /* \"zkp/Verifier.sol\":39136:39142  offset */\n      dup6\n        /* \"zkp/Verifier.sol\":39132:39150  add(offset, 0x324) */\n      add\n        /* \"zkp/Verifier.sol\":39119:39151  calldataload(add(offset, 0x324)) */\n      calldataload\n        /* \"zkp/Verifier.sol\":39115:39159  mod(calldataload(add(offset, 0x324)), R_MOD) */\n      mod\n        /* \"zkp/Verifier.sol\":39076:39113  PROOF_STATE_POLYS_2_OPENING_AT_Z_SLOT */\n      0x0a40\n        /* \"zkp/Verifier.sol\":39069:39160  mstore(PROOF_STATE_POLYS_2_OPENING_AT_Z_SLOT, mod(calldataload(add(offset, 0x324)), R_MOD)) */\n      mstore\n        /* \"zkp/Verifier.sol\":39261:39266  R_MOD */\n      0x30644e72e131a029b85045b68181585d2833e84879b9709143e1f593f0000001\n        /* \"zkp/Verifier.sol\":39252:39257  0x344 */\n      0x0344\n        /* \"zkp/Verifier.sol\":39244:39250  offset */\n      dup6\n        /* \"zkp/Verifier.sol\":39240:39258  add(offset, 0x344) */\n      add\n        /* \"zkp/Verifier.sol\":39227:39259  calldataload(add(offset, 0x344)) */\n      calldataload\n        /* \"zkp/Verifier.sol\":39223:39267  mod(calldataload(add(offset, 0x344)), R_MOD) */\n      mod\n        /* \"zkp/Verifier.sol\":39184:39221  PROOF_STATE_POLYS_3_OPENING_AT_Z_SLOT */\n      0x0a60\n        /* \"zkp/Verifier.sol\":39177:39268  mstore(PROOF_STATE_POLYS_3_OPENING_AT_Z_SLOT, mod(calldataload(add(offset, 0x344)), R_MOD)) */\n      mstore\n        /* \"zkp/Verifier.sol\":39376:39381  R_MOD */\n      0x30644e72e131a029b85045b68181585d2833e84879b9709143e1f593f0000001\n        /* \"zkp/Verifier.sol\":39367:39372  0x364 */\n      0x0364\n        /* \"zkp/Verifier.sol\":39359:39365  offset */\n      dup6\n        /* \"zkp/Verifier.sol\":39355:39373  add(offset, 0x364) */\n      add\n        /* \"zkp/Verifier.sol\":39342:39374  calldataload(add(offset, 0x364)) */\n      calldataload\n        /* \"zkp/Verifier.sol\":39338:39382  mod(calldataload(add(offset, 0x364)), R_MOD) */\n      mod\n        /* \"zkp/Verifier.sol\":39293:39336  PROOF_STATE_POLYS_3_OPENING_AT_Z_OMEGA_SLOT */\n      0x0a80\n        /* \"zkp/Verifier.sol\":39286:39383  mstore(PROOF_STATE_POLYS_3_OPENING_AT_Z_OMEGA_SLOT, mod(calldataload(add(offset, 0x364)), R_MOD)) */\n      mstore\n        /* \"zkp/Verifier.sol\":39487:39492  R_MOD */\n      0x30644e72e131a029b85045b68181585d2833e84879b9709143e1f593f0000001\n        /* \"zkp/Verifier.sol\":39478:39483  0x384 */\n      0x0384\n        /* \"zkp/Verifier.sol\":39470:39476  offset */\n      dup6\n        /* \"zkp/Verifier.sol\":39466:39484  add(offset, 0x384) */\n      add\n        /* \"zkp/Verifier.sol\":39453:39485  calldataload(add(offset, 0x384)) */\n      calldataload\n        /* \"zkp/Verifier.sol\":39449:39493  mod(calldataload(add(offset, 0x384)), R_MOD) */\n      mod\n        /* \"zkp/Verifier.sol\":39407:39447  PROOF_GATE_SELECTORS_0_OPENING_AT_Z_SLOT */\n      0x0aa0\n        /* \"zkp/Verifier.sol\":39400:39494  mstore(PROOF_GATE_SELECTORS_0_OPENING_AT_Z_SLOT, mod(calldataload(add(offset, 0x384)), R_MOD)) */\n      mstore\n        /* \"zkp/Verifier.sol\":39607:39612  R_MOD */\n      0x30644e72e131a029b85045b68181585d2833e84879b9709143e1f593f0000001\n        /* \"zkp/Verifier.sol\":39598:39603  0x3a4 */\n      0x03a4\n        /* \"zkp/Verifier.sol\":39590:39596  offset */\n      dup6\n        /* \"zkp/Verifier.sol\":39586:39604  add(offset, 0x3a4) */\n      add\n        /* \"zkp/Verifier.sol\":39573:39605  calldataload(add(offset, 0x3a4)) */\n      calldataload\n        /* \"zkp/Verifier.sol\":39569:39613  mod(calldataload(add(offset, 0x3a4)), R_MOD) */\n      mod\n        /* \"zkp/Verifier.sol\":39519:39567  PROOF_COPY_PERMUTATION_POLYS_0_OPENING_AT_Z_SLOT */\n      0x0ac0\n        /* \"zkp/Verifier.sol\":39512:39614  mstore(PROOF_COPY_PERMUTATION_POLYS_0_OPENING_AT_Z_SLOT, mod(calldataload(add(offset, 0x3a4)), R_MOD)) */\n      mstore\n        /* \"zkp/Verifier.sol\":39726:39731  R_MOD */\n      0x30644e72e131a029b85045b68181585d2833e84879b9709143e1f593f0000001\n        /* \"zkp/Verifier.sol\":39717:39722  0x3c4 */\n      0x03c4\n        /* \"zkp/Verifier.sol\":39709:39715  offset */\n      dup6\n        /* \"zkp/Verifier.sol\":39705:39723  add(offset, 0x3c4) */\n      add\n        /* \"zkp/Verifier.sol\":39692:39724  calldataload(add(offset, 0x3c4)) */\n      calldataload\n        /* \"zkp/Verifier.sol\":39688:39732  mod(calldataload(add(offset, 0x3c4)), R_MOD) */\n      mod\n        /* \"zkp/Verifier.sol\":39638:39686  PROOF_COPY_PERMUTATION_POLYS_1_OPENING_AT_Z_SLOT */\n      0x0ae0\n        /* \"zkp/Verifier.sol\":39631:39733  mstore(PROOF_COPY_PERMUTATION_POLYS_1_OPENING_AT_Z_SLOT, mod(calldataload(add(offset, 0x3c4)), R_MOD)) */\n      mstore\n        /* \"zkp/Verifier.sol\":39845:39850  R_MOD */\n      0x30644e72e131a029b85045b68181585d2833e84879b9709143e1f593f0000001\n        /* \"zkp/Verifier.sol\":39836:39841  0x3e4 */\n      0x03e4\n        /* \"zkp/Verifier.sol\":39828:39834  offset */\n      dup6\n        /* \"zkp/Verifier.sol\":39824:39842  add(offset, 0x3e4) */\n      add\n        /* \"zkp/Verifier.sol\":39811:39843  calldataload(add(offset, 0x3e4)) */\n      calldataload\n        /* \"zkp/Verifier.sol\":39807:39851  mod(calldataload(add(offset, 0x3e4)), R_MOD) */\n      mod\n        /* \"zkp/Verifier.sol\":39757:39805  PROOF_COPY_PERMUTATION_POLYS_2_OPENING_AT_Z_SLOT */\n      0x0b00\n        /* \"zkp/Verifier.sol\":39750:39852  mstore(PROOF_COPY_PERMUTATION_POLYS_2_OPENING_AT_Z_SLOT, mod(calldataload(add(offset, 0x3e4)), R_MOD)) */\n      mstore\n        /* \"zkp/Verifier.sol\":40018:40023  R_MOD */\n      0x30644e72e131a029b85045b68181585d2833e84879b9709143e1f593f0000001\n        /* \"zkp/Verifier.sol\":40009:40014  0x404 */\n      0x0404\n        /* \"zkp/Verifier.sol\":40001:40007  offset */\n      dup6\n        /* \"zkp/Verifier.sol\":39997:40015  add(offset, 0x404) */\n      add\n        /* \"zkp/Verifier.sol\":39984:40016  calldataload(add(offset, 0x404)) */\n      calldataload\n        /* \"zkp/Verifier.sol\":39980:40024  mod(calldataload(add(offset, 0x404)), R_MOD) */\n      mod\n        /* \"zkp/Verifier.sol\":39898:39958  PROOF_COPY_PERMUTATION_GRAND_PRODUCT_OPENING_AT_Z_OMEGA_SLOT */\n      0x0b20\n        /* \"zkp/Verifier.sol\":39870:40042  mstore(... */\n      mstore\n        /* \"zkp/Verifier.sol\":40149:40154  R_MOD */\n      0x30644e72e131a029b85045b68181585d2833e84879b9709143e1f593f0000001\n        /* \"zkp/Verifier.sol\":40140:40145  0x424 */\n      0x0424\n        /* \"zkp/Verifier.sol\":40132:40138  offset */\n      dup6\n        /* \"zkp/Verifier.sol\":40128:40146  add(offset, 0x424) */\n      add\n        /* \"zkp/Verifier.sol\":40115:40147  calldataload(add(offset, 0x424)) */\n      calldataload\n        /* \"zkp/Verifier.sol\":40111:40155  mod(calldataload(add(offset, 0x424)), R_MOD) */\n      mod\n        /* \"zkp/Verifier.sol\":40066:40109  PROOF_LOOKUP_S_POLY_OPENING_AT_Z_OMEGA_SLOT */\n      0x0b40\n        /* \"zkp/Verifier.sol\":40059:40156  mstore(PROOF_LOOKUP_S_POLY_OPENING_AT_Z_OMEGA_SLOT, mod(calldataload(add(offset, 0x424)), R_MOD)) */\n      mstore\n        /* \"zkp/Verifier.sol\":40270:40275  R_MOD */\n      0x30644e72e131a029b85045b68181585d2833e84879b9709143e1f593f0000001\n        /* \"zkp/Verifier.sol\":40261:40266  0x444 */\n      0x0444\n        /* \"zkp/Verifier.sol\":40253:40259  offset */\n      dup6\n        /* \"zkp/Verifier.sol\":40249:40267  add(offset, 0x444) */\n      add\n        /* \"zkp/Verifier.sol\":40236:40268  calldataload(add(offset, 0x444)) */\n      calldataload\n        /* \"zkp/Verifier.sol\":40232:40276  mod(calldataload(add(offset, 0x444)), R_MOD) */\n      mod\n        /* \"zkp/Verifier.sol\":40180:40230  PROOF_LOOKUP_GRAND_PRODUCT_OPENING_AT_Z_OMEGA_SLOT */\n      0x0b60\n        /* \"zkp/Verifier.sol\":40173:40277  mstore(PROOF_LOOKUP_GRAND_PRODUCT_OPENING_AT_Z_OMEGA_SLOT, mod(calldataload(add(offset, 0x444)), R_MOD)) */\n      mstore\n        /* \"zkp/Verifier.sol\":40378:40383  R_MOD */\n      0x30644e72e131a029b85045b68181585d2833e84879b9709143e1f593f0000001\n        /* \"zkp/Verifier.sol\":40369:40374  0x464 */\n      0x0464\n        /* \"zkp/Verifier.sol\":40361:40367  offset */\n      dup6\n        /* \"zkp/Verifier.sol\":40357:40375  add(offset, 0x464) */\n      add\n        /* \"zkp/Verifier.sol\":40344:40376  calldataload(add(offset, 0x464)) */\n      calldataload\n        /* \"zkp/Verifier.sol\":40340:40384  mod(calldataload(add(offset, 0x464)), R_MOD) */\n      mod\n        /* \"zkp/Verifier.sol\":40301:40338  PROOF_LOOKUP_T_POLY_OPENING_AT_Z_SLOT */\n      0x0b80\n        /* \"zkp/Verifier.sol\":40294:40385  mstore(PROOF_LOOKUP_T_POLY_OPENING_AT_Z_SLOT, mod(calldataload(add(offset, 0x464)), R_MOD)) */\n      mstore\n        /* \"zkp/Verifier.sol\":40492:40497  R_MOD */\n      0x30644e72e131a029b85045b68181585d2833e84879b9709143e1f593f0000001\n        /* \"zkp/Verifier.sol\":40483:40488  0x484 */\n      0x0484\n        /* \"zkp/Verifier.sol\":40475:40481  offset */\n      dup6\n        /* \"zkp/Verifier.sol\":40471:40489  add(offset, 0x484) */\n      add\n        /* \"zkp/Verifier.sol\":40458:40490  calldataload(add(offset, 0x484)) */\n      calldataload\n        /* \"zkp/Verifier.sol\":40454:40498  mod(calldataload(add(offset, 0x484)), R_MOD) */\n      mod\n        /* \"zkp/Verifier.sol\":40409:40452  PROOF_LOOKUP_T_POLY_OPENING_AT_Z_OMEGA_SLOT */\n      0x0ba0\n        /* \"zkp/Verifier.sol\":40402:40499  mstore(PROOF_LOOKUP_T_POLY_OPENING_AT_Z_OMEGA_SLOT, mod(calldataload(add(offset, 0x484)), R_MOD)) */\n      mstore\n        /* \"zkp/Verifier.sol\":40607:40612  R_MOD */\n      0x30644e72e131a029b85045b68181585d2833e84879b9709143e1f593f0000001\n        /* \"zkp/Verifier.sol\":40598:40603  0x4a4 */\n      0x04a4\n        /* \"zkp/Verifier.sol\":40590:40596  offset */\n      dup6\n        /* \"zkp/Verifier.sol\":40586:40604  add(offset, 0x4a4) */\n      add\n        /* \"zkp/Verifier.sol\":40573:40605  calldataload(add(offset, 0x4a4)) */\n      calldataload\n        /* \"zkp/Verifier.sol\":40569:40613  mod(calldataload(add(offset, 0x4a4)), R_MOD) */\n      mod\n        /* \"zkp/Verifier.sol\":40523:40567  PROOF_LOOKUP_SELECTOR_POLY_OPENING_AT_Z_SLOT */\n      0x0bc0\n        /* \"zkp/Verifier.sol\":40516:40614  mstore(PROOF_LOOKUP_SELECTOR_POLY_OPENING_AT_Z_SLOT, mod(calldataload(add(offset, 0x4a4)), R_MOD)) */\n      mstore\n        /* \"zkp/Verifier.sol\":40724:40729  R_MOD */\n      0x30644e72e131a029b85045b68181585d2833e84879b9709143e1f593f0000001\n        /* \"zkp/Verifier.sol\":40715:40720  0x4c4 */\n      0x04c4\n        /* \"zkp/Verifier.sol\":40707:40713  offset */\n      dup6\n        /* \"zkp/Verifier.sol\":40703:40721  add(offset, 0x4c4) */\n      add\n        /* \"zkp/Verifier.sol\":40690:40722  calldataload(add(offset, 0x4c4)) */\n      calldataload\n        /* \"zkp/Verifier.sol\":40686:40730  mod(calldataload(add(offset, 0x4c4)), R_MOD) */\n      mod\n        /* \"zkp/Verifier.sol\":40638:40684  PROOF_LOOKUP_TABLE_TYPE_POLY_OPENING_AT_Z_SLOT */\n      0x0be0\n        /* \"zkp/Verifier.sol\":40631:40731  mstore(PROOF_LOOKUP_TABLE_TYPE_POLY_OPENING_AT_Z_SLOT, mod(calldataload(add(offset, 0x4c4)), R_MOD)) */\n      mstore\n        /* \"zkp/Verifier.sol\":40832:40837  R_MOD */\n      0x30644e72e131a029b85045b68181585d2833e84879b9709143e1f593f0000001\n        /* \"zkp/Verifier.sol\":40823:40828  0x4e4 */\n      0x04e4\n        /* \"zkp/Verifier.sol\":40815:40821  offset */\n      dup6\n        /* \"zkp/Verifier.sol\":40811:40829  add(offset, 0x4e4) */\n      add\n        /* \"zkp/Verifier.sol\":40798:40830  calldataload(add(offset, 0x4e4)) */\n      calldataload\n        /* \"zkp/Verifier.sol\":40794:40838  mod(calldataload(add(offset, 0x4e4)), R_MOD) */\n      mod\n        /* \"zkp/Verifier.sol\":40755:40792  PROOF_QUOTIENT_POLY_OPENING_AT_Z_SLOT */\n      0x0c00\n        /* \"zkp/Verifier.sol\":40748:40839  mstore(PROOF_QUOTIENT_POLY_OPENING_AT_Z_SLOT, mod(calldataload(add(offset, 0x4e4)), R_MOD)) */\n      mstore\n        /* \"zkp/Verifier.sol\":40945:40950  R_MOD */\n      0x30644e72e131a029b85045b68181585d2833e84879b9709143e1f593f0000001\n        /* \"zkp/Verifier.sol\":40936:40941  0x504 */\n      0x0504\n        /* \"zkp/Verifier.sol\":40928:40934  offset */\n      dup6\n        /* \"zkp/Verifier.sol\":40924:40942  add(offset, 0x504) */\n      add\n        /* \"zkp/Verifier.sol\":40911:40943  calldataload(add(offset, 0x504)) */\n      calldataload\n        /* \"zkp/Verifier.sol\":40907:40951  mod(calldataload(add(offset, 0x504)), R_MOD) */\n      mod\n        /* \"zkp/Verifier.sol\":40863:40905  PROOF_LINEARISATION_POLY_OPENING_AT_Z_SLOT */\n      0x0c20\n        /* \"zkp/Verifier.sol\":40856:40952  mstore(PROOF_LINEARISATION_POLY_OPENING_AT_Z_SLOT, mod(calldataload(add(offset, 0x504)), R_MOD)) */\n      mstore\n        /* \"zkp/Verifier.sol\":41083:41088  Q_MOD */\n      0x30644e72e131a029b85045b68181585d97816a916871ca8d3c208c16d87cfd47\n        /* \"zkp/Verifier.sol\":41074:41079  0x524 */\n      0x0524\n        /* \"zkp/Verifier.sol\":41066:41072  offset */\n      dup6\n        /* \"zkp/Verifier.sol\":41062:41080  add(offset, 0x524) */\n      add\n        /* \"zkp/Verifier.sol\":41049:41081  calldataload(add(offset, 0x524)) */\n      calldataload\n        /* \"zkp/Verifier.sol\":41045:41089  mod(calldataload(add(offset, 0x524)), Q_MOD) */\n      mod\n        /* \"zkp/Verifier.sol\":41157:41162  Q_MOD */\n      0x30644e72e131a029b85045b68181585d97816a916871ca8d3c208c16d87cfd47\n        /* \"zkp/Verifier.sol\":41148:41153  0x544 */\n      0x0544\n        /* \"zkp/Verifier.sol\":41140:41146  offset */\n      dup7\n        /* \"zkp/Verifier.sol\":41136:41154  add(offset, 0x544) */\n      add\n        /* \"zkp/Verifier.sol\":41123:41155  calldataload(add(offset, 0x544)) */\n      calldataload\n        /* \"zkp/Verifier.sol\":41119:41163  mod(calldataload(add(offset, 0x544)), Q_MOD) */\n      mod\n        /* \"zkp/Verifier.sol\":41207:41212  Q_MOD */\n      0x30644e72e131a029b85045b68181585d97816a916871ca8d3c208c16d87cfd47\n        /* \"zkp/Verifier.sol\":41204:41205  x */\n      dup3\n        /* \"zkp/Verifier.sol\":41201:41202  x */\n      dup4\n        /* \"zkp/Verifier.sol\":41194:41213  mulmod(x, x, Q_MOD) */\n      mulmod\n        /* \"zkp/Verifier.sol\":41314:41321  isValid */\n      dup5\n        /* \"zkp/Verifier.sol\":41305:41310  Q_MOD */\n      0x30644e72e131a029b85045b68181585d97816a916871ca8d3c208c16d87cfd47\n        /* \"zkp/Verifier.sol\":41302:41303  3 */\n      0x03\n        /* \"zkp/Verifier.sol\":41294:41299  Q_MOD */\n      0x30644e72e131a029b85045b68181585d97816a916871ca8d3c208c16d87cfd47\n        /* \"zkp/Verifier.sol\":41290:41292  xx */\n      dup5\n        /* \"zkp/Verifier.sol\":41287:41288  x */\n      dup8\n        /* \"zkp/Verifier.sol\":41280:41300  mulmod(x, xx, Q_MOD) */\n      mulmod\n        /* \"zkp/Verifier.sol\":41273:41311  addmod(mulmod(x, xx, Q_MOD), 3, Q_MOD) */\n      addmod\n        /* \"zkp/Verifier.sol\":41265:41270  Q_MOD */\n      0x30644e72e131a029b85045b68181585d97816a916871ca8d3c208c16d87cfd47\n        /* \"zkp/Verifier.sol\":41262:41263  y */\n      dup5\n        /* \"zkp/Verifier.sol\":41259:41260  y */\n      dup6\n        /* \"zkp/Verifier.sol\":41252:41271  mulmod(y, y, Q_MOD) */\n      mulmod\n        /* \"zkp/Verifier.sol\":41249:41312  eq(mulmod(y, y, Q_MOD), addmod(mulmod(x, xx, Q_MOD), 3, Q_MOD)) */\n      eq\n        /* \"zkp/Verifier.sol\":41245:41322  and(eq(mulmod(y, y, Q_MOD), addmod(mulmod(x, xx, Q_MOD), 3, Q_MOD)), isValid) */\n      and\n        /* \"zkp/Verifier.sol\":41234:41322  isValid := and(eq(mulmod(y, y, Q_MOD), addmod(mulmod(x, xx, Q_MOD), 3, Q_MOD)), isValid) */\n      swap5\n      pop\n        /* \"zkp/Verifier.sol\":41383:41384  x */\n      dup3\n        /* \"zkp/Verifier.sol\":41350:41381  PROOF_OPENING_PROOF_AT_Z_X_SLOT */\n      0x0c40\n        /* \"zkp/Verifier.sol\":41343:41385  mstore(PROOF_OPENING_PROOF_AT_Z_X_SLOT, x) */\n      mstore\n        /* \"zkp/Verifier.sol\":41446:41447  y */\n      dup2\n        /* \"zkp/Verifier.sol\":41413:41444  PROOF_OPENING_PROOF_AT_Z_Y_SLOT */\n      0x0c60\n        /* \"zkp/Verifier.sol\":41406:41448  mstore(PROOF_OPENING_PROOF_AT_Z_Y_SLOT, y) */\n      mstore\n        /* \"zkp/Verifier.sol\":41014:41466  {... */\n      pop\n      pop\n      pop\n        /* \"zkp/Verifier.sol\":41602:41607  Q_MOD */\n      0x30644e72e131a029b85045b68181585d97816a916871ca8d3c208c16d87cfd47\n        /* \"zkp/Verifier.sol\":41593:41598  0x564 */\n      0x0564\n        /* \"zkp/Verifier.sol\":41585:41591  offset */\n      dup6\n        /* \"zkp/Verifier.sol\":41581:41599  add(offset, 0x564) */\n      add\n        /* \"zkp/Verifier.sol\":41568:41600  calldataload(add(offset, 0x564)) */\n      calldataload\n        /* \"zkp/Verifier.sol\":41564:41608  mod(calldataload(add(offset, 0x564)), Q_MOD) */\n      mod\n        /* \"zkp/Verifier.sol\":41676:41681  Q_MOD */\n      0x30644e72e131a029b85045b68181585d97816a916871ca8d3c208c16d87cfd47\n        /* \"zkp/Verifier.sol\":41667:41672  0x584 */\n      0x0584\n        /* \"zkp/Verifier.sol\":41659:41665  offset */\n      dup7\n        /* \"zkp/Verifier.sol\":41655:41673  add(offset, 0x584) */\n      add\n        /* \"zkp/Verifier.sol\":41642:41674  calldataload(add(offset, 0x584)) */\n      calldataload\n        /* \"zkp/Verifier.sol\":41638:41682  mod(calldataload(add(offset, 0x584)), Q_MOD) */\n      mod\n        /* \"zkp/Verifier.sol\":41726:41731  Q_MOD */\n      0x30644e72e131a029b85045b68181585d97816a916871ca8d3c208c16d87cfd47\n        /* \"zkp/Verifier.sol\":41723:41724  x */\n      dup3\n        /* \"zkp/Verifier.sol\":41720:41721  x */\n      dup4\n        /* \"zkp/Verifier.sol\":41713:41732  mulmod(x, x, Q_MOD) */\n      mulmod\n        /* \"zkp/Verifier.sol\":41833:41840  isValid */\n      dup5\n        /* \"zkp/Verifier.sol\":41824:41829  Q_MOD */\n      0x30644e72e131a029b85045b68181585d97816a916871ca8d3c208c16d87cfd47\n        /* \"zkp/Verifier.sol\":41821:41822  3 */\n      0x03\n        /* \"zkp/Verifier.sol\":41813:41818  Q_MOD */\n      0x30644e72e131a029b85045b68181585d97816a916871ca8d3c208c16d87cfd47\n        /* \"zkp/Verifier.sol\":41809:41811  xx */\n      dup5\n        /* \"zkp/Verifier.sol\":41806:41807  x */\n      dup8\n        /* \"zkp/Verifier.sol\":41799:41819  mulmod(x, xx, Q_MOD) */\n      mulmod\n        /* \"zkp/Verifier.sol\":41792:41830  addmod(mulmod(x, xx, Q_MOD), 3, Q_MOD) */\n      addmod\n        /* \"zkp/Verifier.sol\":41784:41789  Q_MOD */\n      0x30644e72e131a029b85045b68181585d97816a916871ca8d3c208c16d87cfd47\n        /* \"zkp/Verifier.sol\":41781:41782  y */\n      dup5\n        /* \"zkp/Verifier.sol\":41778:41779  y */\n      dup6\n        /* \"zkp/Verifier.sol\":41771:41790  mulmod(y, y, Q_MOD) */\n      mulmod\n        /* \"zkp/Verifier.sol\":41768:41831  eq(mulmod(y, y, Q_MOD), addmod(mulmod(x, xx, Q_MOD), 3, Q_MOD)) */\n      eq\n        /* \"zkp/Verifier.sol\":41764:41841  and(eq(mulmod(y, y, Q_MOD), addmod(mulmod(x, xx, Q_MOD), 3, Q_MOD)), isValid) */\n      and\n        /* \"zkp/Verifier.sol\":41753:41841  isValid := and(eq(mulmod(y, y, Q_MOD), addmod(mulmod(x, xx, Q_MOD), 3, Q_MOD)), isValid) */\n      swap5\n      pop\n        /* \"zkp/Verifier.sol\":41908:41909  x */\n      dup3\n        /* \"zkp/Verifier.sol\":41869:41906  PROOF_OPENING_PROOF_AT_Z_OMEGA_X_SLOT */\n      0x0c80\n        /* \"zkp/Verifier.sol\":41862:41910  mstore(PROOF_OPENING_PROOF_AT_Z_OMEGA_X_SLOT, x) */\n      mstore\n        /* \"zkp/Verifier.sol\":41977:41978  y */\n      dup2\n        /* \"zkp/Verifier.sol\":41938:41975  PROOF_OPENING_PROOF_AT_Z_OMEGA_Y_SLOT */\n      0x0ca0\n        /* \"zkp/Verifier.sol\":41931:41979  mstore(PROOF_OPENING_PROOF_AT_Z_OMEGA_Y_SLOT, y) */\n      mstore\n        /* \"zkp/Verifier.sol\":41533:41997  {... */\n      pop\n      pop\n      pop\n        /* \"zkp/Verifier.sol\":42097:42101  0x44 */\n      0x44\n        /* \"zkp/Verifier.sol\":42084:42102  calldataload(0x44) */\n      calldataload\n        /* \"zkp/Verifier.sol\":42074:42102  offset := calldataload(0x44) */\n      swap4\n      pop\n        /* \"zkp/Verifier.sol\":42179:42183  0x04 */\n      0x04\n        /* \"zkp/Verifier.sol\":42171:42177  offset */\n      dup5\n        /* \"zkp/Verifier.sol\":42167:42184  add(offset, 0x04) */\n      add\n        /* \"zkp/Verifier.sol\":42154:42185  calldataload(add(offset, 0x04)) */\n      calldataload\n        /* \"zkp/Verifier.sol\":42216:42238  VK_RECURSIVE_FLAG_SLOT */\n      0x0700\n        /* \"zkp/Verifier.sol\":42210:42239  mload(VK_RECURSIVE_FLAG_SLOT) */\n      mload\n        /* \"zkp/Verifier.sol\":42261:42262  0 */\n      0x00\n        /* \"zkp/Verifier.sol\":42256:42417  case 0 {... */\n      dup2\n      eq\n      tag_70\n      jumpi\n        /* \"zkp/Verifier.sol\":42583:42590  isValid */\n      dup4\n        /* \"zkp/Verifier.sol\":42579:42580  4 */\n      0x04\n        /* \"zkp/Verifier.sol\":42550:42577  recursiveProofLengthInWords */\n      dup4\n        /* \"zkp/Verifier.sol\":42547:42581  eq(recursiveProofLengthInWords, 4) */\n      eq\n        /* \"zkp/Verifier.sol\":42543:42591  and(eq(recursiveProofLengthInWords, 4), isValid) */\n      and\n        /* \"zkp/Verifier.sol\":42532:42591  isValid := and(eq(recursiveProofLengthInWords, 4), isValid) */\n      swap4\n      pop\n        /* \"zkp/Verifier.sol\":42732:42737  Q_MOD */\n      0x30644e72e131a029b85045b68181585d97816a916871ca8d3c208c16d87cfd47\n        /* \"zkp/Verifier.sol\":42723:42728  0x024 */\n      0x24\n        /* \"zkp/Verifier.sol\":42715:42721  offset */\n      dup8\n        /* \"zkp/Verifier.sol\":42711:42729  add(offset, 0x024) */\n      add\n        /* \"zkp/Verifier.sol\":42698:42730  calldataload(add(offset, 0x024)) */\n      calldataload\n        /* \"zkp/Verifier.sol\":42694:42738  mod(calldataload(add(offset, 0x024)), Q_MOD) */\n      mod\n        /* \"zkp/Verifier.sol\":42810:42815  Q_MOD */\n      0x30644e72e131a029b85045b68181585d97816a916871ca8d3c208c16d87cfd47\n        /* \"zkp/Verifier.sol\":42801:42806  0x044 */\n      0x44\n        /* \"zkp/Verifier.sol\":42793:42799  offset */\n      dup9\n        /* \"zkp/Verifier.sol\":42789:42807  add(offset, 0x044) */\n      add\n        /* \"zkp/Verifier.sol\":42776:42808  calldataload(add(offset, 0x044)) */\n      calldataload\n        /* \"zkp/Verifier.sol\":42772:42816  mod(calldataload(add(offset, 0x044)), Q_MOD) */\n      mod\n        /* \"zkp/Verifier.sol\":42864:42869  Q_MOD */\n      0x30644e72e131a029b85045b68181585d97816a916871ca8d3c208c16d87cfd47\n        /* \"zkp/Verifier.sol\":42861:42862  x */\n      dup3\n        /* \"zkp/Verifier.sol\":42858:42859  x */\n      dup4\n        /* \"zkp/Verifier.sol\":42851:42870  mulmod(x, x, Q_MOD) */\n      mulmod\n        /* \"zkp/Verifier.sol\":42975:42982  isValid */\n      dup7\n        /* \"zkp/Verifier.sol\":42966:42971  Q_MOD */\n      0x30644e72e131a029b85045b68181585d97816a916871ca8d3c208c16d87cfd47\n        /* \"zkp/Verifier.sol\":42963:42964  3 */\n      0x03\n        /* \"zkp/Verifier.sol\":42955:42960  Q_MOD */\n      0x30644e72e131a029b85045b68181585d97816a916871ca8d3c208c16d87cfd47\n        /* \"zkp/Verifier.sol\":42951:42953  xx */\n      dup5\n        /* \"zkp/Verifier.sol\":42948:42949  x */\n      dup8\n        /* \"zkp/Verifier.sol\":42941:42961  mulmod(x, xx, Q_MOD) */\n      mulmod\n        /* \"zkp/Verifier.sol\":42934:42972  addmod(mulmod(x, xx, Q_MOD), 3, Q_MOD) */\n      addmod\n        /* \"zkp/Verifier.sol\":42926:42931  Q_MOD */\n      0x30644e72e131a029b85045b68181585d97816a916871ca8d3c208c16d87cfd47\n        /* \"zkp/Verifier.sol\":42923:42924  y */\n      dup5\n        /* \"zkp/Verifier.sol\":42920:42921  y */\n      dup6\n        /* \"zkp/Verifier.sol\":42913:42932  mulmod(y, y, Q_MOD) */\n      mulmod\n        /* \"zkp/Verifier.sol\":42910:42973  eq(mulmod(y, y, Q_MOD), addmod(mulmod(x, xx, Q_MOD), 3, Q_MOD)) */\n      eq\n        /* \"zkp/Verifier.sol\":42906:42983  and(eq(mulmod(y, y, Q_MOD), addmod(mulmod(x, xx, Q_MOD), 3, Q_MOD)), isValid) */\n      and\n        /* \"zkp/Verifier.sol\":42895:42983  isValid := and(eq(mulmod(y, y, Q_MOD), addmod(mulmod(x, xx, Q_MOD), 3, Q_MOD)), isValid) */\n      swap7\n      pop\n        /* \"zkp/Verifier.sol\":43047:43048  x */\n      dup3\n        /* \"zkp/Verifier.sol\":43015:43045  PROOF_RECURSIVE_PART_P1_X_SLOT */\n      0x0cc0\n        /* \"zkp/Verifier.sol\":43008:43049  mstore(PROOF_RECURSIVE_PART_P1_X_SLOT, x) */\n      mstore\n        /* \"zkp/Verifier.sol\":43113:43114  y */\n      dup2\n        /* \"zkp/Verifier.sol\":43081:43111  PROOF_RECURSIVE_PART_P1_Y_SLOT */\n      0x0ce0\n        /* \"zkp/Verifier.sol\":43074:43115  mstore(PROOF_RECURSIVE_PART_P1_Y_SLOT, y) */\n      mstore\n        /* \"zkp/Verifier.sol\":42659:43137  {... */\n      pop\n      pop\n      pop\n        /* \"zkp/Verifier.sol\":43278:43283  Q_MOD */\n      0x30644e72e131a029b85045b68181585d97816a916871ca8d3c208c16d87cfd47\n        /* \"zkp/Verifier.sol\":43269:43274  0x064 */\n      0x64\n        /* \"zkp/Verifier.sol\":43261:43267  offset */\n      dup8\n        /* \"zkp/Verifier.sol\":43257:43275  add(offset, 0x064) */\n      add\n        /* \"zkp/Verifier.sol\":43244:43276  calldataload(add(offset, 0x064)) */\n      calldataload\n        /* \"zkp/Verifier.sol\":43240:43284  mod(calldataload(add(offset, 0x064)), Q_MOD) */\n      mod\n        /* \"zkp/Verifier.sol\":43356:43361  Q_MOD */\n      0x30644e72e131a029b85045b68181585d97816a916871ca8d3c208c16d87cfd47\n        /* \"zkp/Verifier.sol\":43347:43352  0x084 */\n      0x84\n        /* \"zkp/Verifier.sol\":43339:43345  offset */\n      dup9\n        /* \"zkp/Verifier.sol\":43335:43353  add(offset, 0x084) */\n      add\n        /* \"zkp/Verifier.sol\":43322:43354  calldataload(add(offset, 0x084)) */\n      calldataload\n        /* \"zkp/Verifier.sol\":43318:43362  mod(calldataload(add(offset, 0x084)), Q_MOD) */\n      mod\n        /* \"zkp/Verifier.sol\":43410:43415  Q_MOD */\n      0x30644e72e131a029b85045b68181585d97816a916871ca8d3c208c16d87cfd47\n        /* \"zkp/Verifier.sol\":43407:43408  x */\n      dup3\n        /* \"zkp/Verifier.sol\":43404:43405  x */\n      dup4\n        /* \"zkp/Verifier.sol\":43397:43416  mulmod(x, x, Q_MOD) */\n      mulmod\n        /* \"zkp/Verifier.sol\":43521:43528  isValid */\n      dup7\n        /* \"zkp/Verifier.sol\":43512:43517  Q_MOD */\n      0x30644e72e131a029b85045b68181585d97816a916871ca8d3c208c16d87cfd47\n        /* \"zkp/Verifier.sol\":43509:43510  3 */\n      0x03\n        /* \"zkp/Verifier.sol\":43501:43506  Q_MOD */\n      0x30644e72e131a029b85045b68181585d97816a916871ca8d3c208c16d87cfd47\n        /* \"zkp/Verifier.sol\":43497:43499  xx */\n      dup5\n        /* \"zkp/Verifier.sol\":43494:43495  x */\n      dup8\n        /* \"zkp/Verifier.sol\":43487:43507  mulmod(x, xx, Q_MOD) */\n      mulmod\n        /* \"zkp/Verifier.sol\":43480:43518  addmod(mulmod(x, xx, Q_MOD), 3, Q_MOD) */\n      addmod\n        /* \"zkp/Verifier.sol\":43472:43477  Q_MOD */\n      0x30644e72e131a029b85045b68181585d97816a916871ca8d3c208c16d87cfd47\n        /* \"zkp/Verifier.sol\":43469:43470  y */\n      dup5\n        /* \"zkp/Verifier.sol\":43466:43467  y */\n      dup6\n        /* \"zkp/Verifier.sol\":43459:43478  mulmod(y, y, Q_MOD) */\n      mulmod\n        /* \"zkp/Verifier.sol\":43456:43519  eq(mulmod(y, y, Q_MOD), addmod(mulmod(x, xx, Q_MOD), 3, Q_MOD)) */\n      eq\n        /* \"zkp/Verifier.sol\":43452:43529  and(eq(mulmod(y, y, Q_MOD), addmod(mulmod(x, xx, Q_MOD), 3, Q_MOD)), isValid) */\n      and\n        /* \"zkp/Verifier.sol\":43441:43529  isValid := and(eq(mulmod(y, y, Q_MOD), addmod(mulmod(x, xx, Q_MOD), 3, Q_MOD)), isValid) */\n      swap7\n      pop\n        /* \"zkp/Verifier.sol\":43593:43594  x */\n      dup3\n        /* \"zkp/Verifier.sol\":43561:43591  PROOF_RECURSIVE_PART_P2_X_SLOT */\n      0x0d00\n        /* \"zkp/Verifier.sol\":43554:43595  mstore(PROOF_RECURSIVE_PART_P2_X_SLOT, x) */\n      mstore\n        /* \"zkp/Verifier.sol\":43659:43660  y */\n      dup2\n        /* \"zkp/Verifier.sol\":43627:43657  PROOF_RECURSIVE_PART_P2_Y_SLOT */\n      0x0d20\n        /* \"zkp/Verifier.sol\":43620:43661  mstore(PROOF_RECURSIVE_PART_P2_Y_SLOT, y) */\n      mstore\n        /* \"zkp/Verifier.sol\":43205:43683  {... */\n      pop\n      pop\n      pop\n        /* \"zkp/Verifier.sol\":42203:43701  switch mload(VK_RECURSIVE_FLAG_SLOT)... */\n      jump(tag_69)\n        /* \"zkp/Verifier.sol\":42256:42417  case 0 {... */\n    tag_70:\n        /* \"zkp/Verifier.sol\":42391:42398  isValid */\n      dup4\n        /* \"zkp/Verifier.sol\":42361:42388  recursiveProofLengthInWords */\n      dup3\n        /* \"zkp/Verifier.sol\":42354:42389  iszero(recursiveProofLengthInWords) */\n      iszero\n        /* \"zkp/Verifier.sol\":42350:42399  and(iszero(recursiveProofLengthInWords), isValid) */\n      and\n        /* \"zkp/Verifier.sol\":42339:42399  isValid := and(iszero(recursiveProofLengthInWords), isValid) */\n      swap4\n      pop\n        /* \"zkp/Verifier.sol\":42203:43701  switch mload(VK_RECURSIVE_FLAG_SLOT)... */\n    tag_69:\n      pop\n        /* \"zkp/Verifier.sol\":43779:43786  isValid */\n      dup3\n        /* \"zkp/Verifier.sol\":43769:43880  if iszero(isValid) {... */\n      tag_71\n      jumpi\n        /* \"zkp/Verifier.sol\":43810:43862  revertWithMessage(27, \"loadProof: Proof is invalid\") */\n      tag_72\n        /* \"zkp/Verifier.sol\":43832:43861  \"loadProof: Proof is invalid\" */\n      0x6c6f616450726f6f663a2050726f6f6620697320696e76616c69640000000000\n        /* \"zkp/Verifier.sol\":43828:43830  27 */\n      0x1b\n        /* \"zkp/Verifier.sol\":43810:43862  revertWithMessage(27, \"loadProof: Proof is invalid\") */\n      tag_18\n      jump\t// in\n    tag_72:\n        /* \"zkp/Verifier.sol\":43769:43880  if iszero(isValid) {... */\n    tag_71:\n        /* \"zkp/Verifier.sol\":32573:43894  {... */\n      pop\n      pop\n      pop\n      pop\n      pop\n        /* \"zkp/Verifier.sol\":32552:43894  function loadProof() {... */\n      jump\t// out\n        /* \"zkp/Verifier.sol\":45082:49601  function initializeTranscript() {... */\n    tag_29:\n        /* \"zkp/Verifier.sol\":45159:45202  updateTranscript(mload(PROOF_PUBLIC_INPUT)) */\n      tag_74\n        /* \"zkp/Verifier.sol\":45182:45200  PROOF_PUBLIC_INPUT */\n      0x0720\n        /* \"zkp/Verifier.sol\":45176:45201  mload(PROOF_PUBLIC_INPUT) */\n      mload\n        /* \"zkp/Verifier.sol\":45159:45202  updateTranscript(mload(PROOF_PUBLIC_INPUT)) */\n      tag_26\n      jump\t// in\n    tag_74:\n        /* \"zkp/Verifier.sol\":45219:45270  updateTranscript(mload(PROOF_STATE_POLYS_0_X_SLOT)) */\n      tag_75\n        /* \"zkp/Verifier.sol\":45242:45268  PROOF_STATE_POLYS_0_X_SLOT */\n      0x0740\n        /* \"zkp/Verifier.sol\":45236:45269  mload(PROOF_STATE_POLYS_0_X_SLOT) */\n      mload\n        /* \"zkp/Verifier.sol\":45219:45270  updateTranscript(mload(PROOF_STATE_POLYS_0_X_SLOT)) */\n      tag_26\n      jump\t// in\n    tag_75:\n        /* \"zkp/Verifier.sol\":45287:45338  updateTranscript(mload(PROOF_STATE_POLYS_0_Y_SLOT)) */\n      tag_76\n        /* \"zkp/Verifier.sol\":45310:45336  PROOF_STATE_POLYS_0_Y_SLOT */\n      0x0760\n        /* \"zkp/Verifier.sol\":45304:45337  mload(PROOF_STATE_POLYS_0_Y_SLOT) */\n      mload\n        /* \"zkp/Verifier.sol\":45287:45338  updateTranscript(mload(PROOF_STATE_POLYS_0_Y_SLOT)) */\n      tag_26\n      jump\t// in\n    tag_76:\n        /* \"zkp/Verifier.sol\":45355:45406  updateTranscript(mload(PROOF_STATE_POLYS_1_X_SLOT)) */\n      tag_77\n        /* \"zkp/Verifier.sol\":45378:45404  PROOF_STATE_POLYS_1_X_SLOT */\n      0x0780\n        /* \"zkp/Verifier.sol\":45372:45405  mload(PROOF_STATE_POLYS_1_X_SLOT) */\n      mload\n        /* \"zkp/Verifier.sol\":45355:45406  updateTranscript(mload(PROOF_STATE_POLYS_1_X_SLOT)) */\n      tag_26\n      jump\t// in\n    tag_77:\n        /* \"zkp/Verifier.sol\":45423:45474  updateTranscript(mload(PROOF_STATE_POLYS_1_Y_SLOT)) */\n      tag_78\n        /* \"zkp/Verifier.sol\":45446:45472  PROOF_STATE_POLYS_1_Y_SLOT */\n      0x07a0\n        /* \"zkp/Verifier.sol\":45440:45473  mload(PROOF_STATE_POLYS_1_Y_SLOT) */\n      mload\n        /* \"zkp/Verifier.sol\":45423:45474  updateTranscript(mload(PROOF_STATE_POLYS_1_Y_SLOT)) */\n      tag_26\n      jump\t// in\n    tag_78:\n        /* \"zkp/Verifier.sol\":45491:45542  updateTranscript(mload(PROOF_STATE_POLYS_2_X_SLOT)) */\n      tag_79\n        /* \"zkp/Verifier.sol\":45514:45540  PROOF_STATE_POLYS_2_X_SLOT */\n      0x07c0\n        /* \"zkp/Verifier.sol\":45508:45541  mload(PROOF_STATE_POLYS_2_X_SLOT) */\n      mload\n        /* \"zkp/Verifier.sol\":45491:45542  updateTranscript(mload(PROOF_STATE_POLYS_2_X_SLOT)) */\n      tag_26\n      jump\t// in\n    tag_79:\n        /* \"zkp/Verifier.sol\":45559:45610  updateTranscript(mload(PROOF_STATE_POLYS_2_Y_SLOT)) */\n      tag_80\n        /* \"zkp/Verifier.sol\":45582:45608  PROOF_STATE_POLYS_2_Y_SLOT */\n      0x07e0\n        /* \"zkp/Verifier.sol\":45576:45609  mload(PROOF_STATE_POLYS_2_Y_SLOT) */\n      mload\n        /* \"zkp/Verifier.sol\":45559:45610  updateTranscript(mload(PROOF_STATE_POLYS_2_Y_SLOT)) */\n      tag_26\n      jump\t// in\n    tag_80:\n        /* \"zkp/Verifier.sol\":45627:45678  updateTranscript(mload(PROOF_STATE_POLYS_3_X_SLOT)) */\n      tag_81\n        /* \"zkp/Verifier.sol\":45650:45676  PROOF_STATE_POLYS_3_X_SLOT */\n      0x0800\n        /* \"zkp/Verifier.sol\":45644:45677  mload(PROOF_STATE_POLYS_3_X_SLOT) */\n      mload\n        /* \"zkp/Verifier.sol\":45627:45678  updateTranscript(mload(PROOF_STATE_POLYS_3_X_SLOT)) */\n      tag_26\n      jump\t// in\n    tag_81:\n        /* \"zkp/Verifier.sol\":45695:45746  updateTranscript(mload(PROOF_STATE_POLYS_3_Y_SLOT)) */\n      tag_82\n        /* \"zkp/Verifier.sol\":45718:45744  PROOF_STATE_POLYS_3_Y_SLOT */\n      0x0820\n        /* \"zkp/Verifier.sol\":45712:45745  mload(PROOF_STATE_POLYS_3_Y_SLOT) */\n      mload\n        /* \"zkp/Verifier.sol\":45695:45746  updateTranscript(mload(PROOF_STATE_POLYS_3_Y_SLOT)) */\n      tag_26\n      jump\t// in\n    tag_82:\n        /* \"zkp/Verifier.sol\":45787:45812  getTranscriptChallenge(0) */\n      tag_83\n        /* \"zkp/Verifier.sol\":45810:45811  0 */\n      0x00\n        /* \"zkp/Verifier.sol\":45787:45812  getTranscriptChallenge(0) */\n      tag_27\n      jump\t// in\n    tag_83:\n        /* \"zkp/Verifier.sol\":45771:45785  STATE_ETA_SLOT */\n      0x0f00\n        /* \"zkp/Verifier.sol\":45764:45813  mstore(STATE_ETA_SLOT, getTranscriptChallenge(0)) */\n      mstore\n        /* \"zkp/Verifier.sol\":45860:45911  updateTranscript(mload(PROOF_LOOKUP_S_POLY_X_SLOT)) */\n      tag_84\n        /* \"zkp/Verifier.sol\":45883:45909  PROOF_LOOKUP_S_POLY_X_SLOT */\n      0x0880\n        /* \"zkp/Verifier.sol\":45877:45910  mload(PROOF_LOOKUP_S_POLY_X_SLOT) */\n      mload\n        /* \"zkp/Verifier.sol\":45860:45911  updateTranscript(mload(PROOF_LOOKUP_S_POLY_X_SLOT)) */\n      tag_26\n      jump\t// in\n    tag_84:\n        /* \"zkp/Verifier.sol\":45928:45979  updateTranscript(mload(PROOF_LOOKUP_S_POLY_Y_SLOT)) */\n      tag_85\n        /* \"zkp/Verifier.sol\":45951:45977  PROOF_LOOKUP_S_POLY_Y_SLOT */\n      0x08a0\n        /* \"zkp/Verifier.sol\":45945:45978  mload(PROOF_LOOKUP_S_POLY_Y_SLOT) */\n      mload\n        /* \"zkp/Verifier.sol\":45928:45979  updateTranscript(mload(PROOF_LOOKUP_S_POLY_Y_SLOT)) */\n      tag_26\n      jump\t// in\n    tag_85:\n        /* \"zkp/Verifier.sol\":46021:46046  getTranscriptChallenge(1) */\n      tag_86\n        /* \"zkp/Verifier.sol\":46044:46045  1 */\n      0x01\n        /* \"zkp/Verifier.sol\":46021:46046  getTranscriptChallenge(1) */\n      tag_27\n      jump\t// in\n    tag_86:\n        /* \"zkp/Verifier.sol\":46004:46019  STATE_BETA_SLOT */\n      0x0de0\n        /* \"zkp/Verifier.sol\":45997:46047  mstore(STATE_BETA_SLOT, getTranscriptChallenge(1)) */\n      mstore\n        /* \"zkp/Verifier.sol\":46089:46114  getTranscriptChallenge(2) */\n      tag_87\n        /* \"zkp/Verifier.sol\":46112:46113  2 */\n      0x02\n        /* \"zkp/Verifier.sol\":46089:46114  getTranscriptChallenge(2) */\n      tag_27\n      jump\t// in\n    tag_87:\n        /* \"zkp/Verifier.sol\":46071:46087  STATE_GAMMA_SLOT */\n      0x0e00\n        /* \"zkp/Verifier.sol\":46064:46115  mstore(STATE_GAMMA_SLOT, getTranscriptChallenge(2)) */\n      mstore\n        /* \"zkp/Verifier.sol\":46160:46228  updateTranscript(mload(PROOF_COPY_PERMUTATION_GRAND_PRODUCT_X_SLOT)) */\n      tag_88\n        /* \"zkp/Verifier.sol\":46183:46226  PROOF_COPY_PERMUTATION_GRAND_PRODUCT_X_SLOT */\n      0x0840\n        /* \"zkp/Verifier.sol\":46177:46227  mload(PROOF_COPY_PERMUTATION_GRAND_PRODUCT_X_SLOT) */\n      mload\n        /* \"zkp/Verifier.sol\":46160:46228  updateTranscript(mload(PROOF_COPY_PERMUTATION_GRAND_PRODUCT_X_SLOT)) */\n      tag_26\n      jump\t// in\n    tag_88:\n        /* \"zkp/Verifier.sol\":46245:46313  updateTranscript(mload(PROOF_COPY_PERMUTATION_GRAND_PRODUCT_Y_SLOT)) */\n      tag_89\n        /* \"zkp/Verifier.sol\":46268:46311  PROOF_COPY_PERMUTATION_GRAND_PRODUCT_Y_SLOT */\n      0x0860\n        /* \"zkp/Verifier.sol\":46262:46312  mload(PROOF_COPY_PERMUTATION_GRAND_PRODUCT_Y_SLOT) */\n      mload\n        /* \"zkp/Verifier.sol\":46245:46313  updateTranscript(mload(PROOF_COPY_PERMUTATION_GRAND_PRODUCT_Y_SLOT)) */\n      tag_26\n      jump\t// in\n    tag_89:\n        /* \"zkp/Verifier.sol\":46362:46387  getTranscriptChallenge(3) */\n      tag_90\n        /* \"zkp/Verifier.sol\":46385:46386  3 */\n      0x03\n        /* \"zkp/Verifier.sol\":46362:46387  getTranscriptChallenge(3) */\n      tag_27\n      jump\t// in\n    tag_90:\n        /* \"zkp/Verifier.sol\":46338:46360  STATE_BETA_LOOKUP_SLOT */\n      0x0f20\n        /* \"zkp/Verifier.sol\":46331:46388  mstore(STATE_BETA_LOOKUP_SLOT, getTranscriptChallenge(3)) */\n      mstore\n        /* \"zkp/Verifier.sol\":46437:46462  getTranscriptChallenge(4) */\n      tag_91\n        /* \"zkp/Verifier.sol\":46460:46461  4 */\n      0x04\n        /* \"zkp/Verifier.sol\":46437:46462  getTranscriptChallenge(4) */\n      tag_27\n      jump\t// in\n    tag_91:\n        /* \"zkp/Verifier.sol\":46412:46435  STATE_GAMMA_LOOKUP_SLOT */\n      0x0f40\n        /* \"zkp/Verifier.sol\":46405:46463  mstore(STATE_GAMMA_LOOKUP_SLOT, getTranscriptChallenge(4)) */\n      mstore\n        /* \"zkp/Verifier.sol\":46510:46568  updateTranscript(mload(PROOF_LOOKUP_GRAND_PRODUCT_X_SLOT)) */\n      tag_92\n        /* \"zkp/Verifier.sol\":46533:46566  PROOF_LOOKUP_GRAND_PRODUCT_X_SLOT */\n      0x08c0\n        /* \"zkp/Verifier.sol\":46527:46567  mload(PROOF_LOOKUP_GRAND_PRODUCT_X_SLOT) */\n      mload\n        /* \"zkp/Verifier.sol\":46510:46568  updateTranscript(mload(PROOF_LOOKUP_GRAND_PRODUCT_X_SLOT)) */\n      tag_26\n      jump\t// in\n    tag_92:\n        /* \"zkp/Verifier.sol\":46585:46643  updateTranscript(mload(PROOF_LOOKUP_GRAND_PRODUCT_Y_SLOT)) */\n      tag_93\n        /* \"zkp/Verifier.sol\":46608:46641  PROOF_LOOKUP_GRAND_PRODUCT_Y_SLOT */\n      0x08e0\n        /* \"zkp/Verifier.sol\":46602:46642  mload(PROOF_LOOKUP_GRAND_PRODUCT_Y_SLOT) */\n      mload\n        /* \"zkp/Verifier.sol\":46585:46643  updateTranscript(mload(PROOF_LOOKUP_GRAND_PRODUCT_Y_SLOT)) */\n      tag_26\n      jump\t// in\n    tag_93:\n        /* \"zkp/Verifier.sol\":46686:46711  getTranscriptChallenge(5) */\n      tag_94\n        /* \"zkp/Verifier.sol\":46709:46710  5 */\n      0x05\n        /* \"zkp/Verifier.sol\":46686:46711  getTranscriptChallenge(5) */\n      tag_27\n      jump\t// in\n    tag_94:\n        /* \"zkp/Verifier.sol\":46668:46684  STATE_ALPHA_SLOT */\n      0x0dc0\n        /* \"zkp/Verifier.sol\":46661:46712  mstore(STATE_ALPHA_SLOT, getTranscriptChallenge(5)) */\n      mstore\n        /* \"zkp/Verifier.sol\":46757:46816  updateTranscript(mload(PROOF_QUOTIENT_POLY_PARTS_0_X_SLOT)) */\n      tag_95\n        /* \"zkp/Verifier.sol\":46780:46814  PROOF_QUOTIENT_POLY_PARTS_0_X_SLOT */\n      0x0900\n        /* \"zkp/Verifier.sol\":46774:46815  mload(PROOF_QUOTIENT_POLY_PARTS_0_X_SLOT) */\n      mload\n        /* \"zkp/Verifier.sol\":46757:46816  updateTranscript(mload(PROOF_QUOTIENT_POLY_PARTS_0_X_SLOT)) */\n      tag_26\n      jump\t// in\n    tag_95:\n        /* \"zkp/Verifier.sol\":46833:46892  updateTranscript(mload(PROOF_QUOTIENT_POLY_PARTS_0_Y_SLOT)) */\n      tag_96\n        /* \"zkp/Verifier.sol\":46856:46890  PROOF_QUOTIENT_POLY_PARTS_0_Y_SLOT */\n      0x0920\n        /* \"zkp/Verifier.sol\":46850:46891  mload(PROOF_QUOTIENT_POLY_PARTS_0_Y_SLOT) */\n      mload\n        /* \"zkp/Verifier.sol\":46833:46892  updateTranscript(mload(PROOF_QUOTIENT_POLY_PARTS_0_Y_SLOT)) */\n      tag_26\n      jump\t// in\n    tag_96:\n        /* \"zkp/Verifier.sol\":46909:46968  updateTranscript(mload(PROOF_QUOTIENT_POLY_PARTS_1_X_SLOT)) */\n      tag_97\n        /* \"zkp/Verifier.sol\":46932:46966  PROOF_QUOTIENT_POLY_PARTS_1_X_SLOT */\n      0x0940\n        /* \"zkp/Verifier.sol\":46926:46967  mload(PROOF_QUOTIENT_POLY_PARTS_1_X_SLOT) */\n      mload\n        /* \"zkp/Verifier.sol\":46909:46968  updateTranscript(mload(PROOF_QUOTIENT_POLY_PARTS_1_X_SLOT)) */\n      tag_26\n      jump\t// in\n    tag_97:\n        /* \"zkp/Verifier.sol\":46985:47044  updateTranscript(mload(PROOF_QUOTIENT_POLY_PARTS_1_Y_SLOT)) */\n      tag_98\n        /* \"zkp/Verifier.sol\":47008:47042  PROOF_QUOTIENT_POLY_PARTS_1_Y_SLOT */\n      0x0960\n        /* \"zkp/Verifier.sol\":47002:47043  mload(PROOF_QUOTIENT_POLY_PARTS_1_Y_SLOT) */\n      mload\n        /* \"zkp/Verifier.sol\":46985:47044  updateTranscript(mload(PROOF_QUOTIENT_POLY_PARTS_1_Y_SLOT)) */\n      tag_26\n      jump\t// in\n    tag_98:\n        /* \"zkp/Verifier.sol\":47061:47120  updateTranscript(mload(PROOF_QUOTIENT_POLY_PARTS_2_X_SLOT)) */\n      tag_99\n        /* \"zkp/Verifier.sol\":47084:47118  PROOF_QUOTIENT_POLY_PARTS_2_X_SLOT */\n      0x0980\n        /* \"zkp/Verifier.sol\":47078:47119  mload(PROOF_QUOTIENT_POLY_PARTS_2_X_SLOT) */\n      mload\n        /* \"zkp/Verifier.sol\":47061:47120  updateTranscript(mload(PROOF_QUOTIENT_POLY_PARTS_2_X_SLOT)) */\n      tag_26\n      jump\t// in\n    tag_99:\n        /* \"zkp/Verifier.sol\":47137:47196  updateTranscript(mload(PROOF_QUOTIENT_POLY_PARTS_2_Y_SLOT)) */\n      tag_100\n        /* \"zkp/Verifier.sol\":47160:47194  PROOF_QUOTIENT_POLY_PARTS_2_Y_SLOT */\n      0x09a0\n        /* \"zkp/Verifier.sol\":47154:47195  mload(PROOF_QUOTIENT_POLY_PARTS_2_Y_SLOT) */\n      mload\n        /* \"zkp/Verifier.sol\":47137:47196  updateTranscript(mload(PROOF_QUOTIENT_POLY_PARTS_2_Y_SLOT)) */\n      tag_26\n      jump\t// in\n    tag_100:\n        /* \"zkp/Verifier.sol\":47213:47272  updateTranscript(mload(PROOF_QUOTIENT_POLY_PARTS_3_X_SLOT)) */\n      tag_101\n        /* \"zkp/Verifier.sol\":47236:47270  PROOF_QUOTIENT_POLY_PARTS_3_X_SLOT */\n      0x09c0\n        /* \"zkp/Verifier.sol\":47230:47271  mload(PROOF_QUOTIENT_POLY_PARTS_3_X_SLOT) */\n      mload\n        /* \"zkp/Verifier.sol\":47213:47272  updateTranscript(mload(PROOF_QUOTIENT_POLY_PARTS_3_X_SLOT)) */\n      tag_26\n      jump\t// in\n    tag_101:\n        /* \"zkp/Verifier.sol\":47289:47348  updateTranscript(mload(PROOF_QUOTIENT_POLY_PARTS_3_Y_SLOT)) */\n      tag_102\n        /* \"zkp/Verifier.sol\":47312:47346  PROOF_QUOTIENT_POLY_PARTS_3_Y_SLOT */\n      0x09e0\n        /* \"zkp/Verifier.sol\":47306:47347  mload(PROOF_QUOTIENT_POLY_PARTS_3_Y_SLOT) */\n      mload\n        /* \"zkp/Verifier.sol\":47289:47348  updateTranscript(mload(PROOF_QUOTIENT_POLY_PARTS_3_Y_SLOT)) */\n      tag_26\n      jump\t// in\n    tag_102:\n        /* \"zkp/Verifier.sol\":47397:47422  getTranscriptChallenge(6) */\n      tag_103\n        /* \"zkp/Verifier.sol\":47420:47421  6 */\n      0x06\n        /* \"zkp/Verifier.sol\":47397:47422  getTranscriptChallenge(6) */\n      tag_27\n      jump\t// in\n    tag_103:\n        /* \"zkp/Verifier.sol\":47465:47466  z */\n      dup1\n        /* \"zkp/Verifier.sol\":47451:47463  STATE_Z_SLOT */\n      0x0fe0\n        /* \"zkp/Verifier.sol\":47444:47467  mstore(STATE_Z_SLOT, z) */\n      mstore\n        /* \"zkp/Verifier.sol\":47519:47541  modexp(z, DOMAIN_SIZE) */\n      tag_104\n        /* \"zkp/Verifier.sol\":47529:47540  DOMAIN_SIZE */\n      0x04000000\n        /* \"zkp/Verifier.sol\":47526:47527  z */\n      dup3\n        /* \"zkp/Verifier.sol\":47519:47541  modexp(z, DOMAIN_SIZE) */\n      tag_19\n      jump\t// in\n    tag_104:\n        /* \"zkp/Verifier.sol\":47495:47517  STATE_Z_IN_DOMAIN_SIZE */\n      0x1060\n        /* \"zkp/Verifier.sol\":47488:47542  mstore(STATE_Z_IN_DOMAIN_SIZE, modexp(z, DOMAIN_SIZE)) */\n      mstore\n        /* \"zkp/Verifier.sol\":47366:47560  {... */\n      pop\n        /* \"zkp/Verifier.sol\":47605:47667  updateTranscript(mload(PROOF_QUOTIENT_POLY_OPENING_AT_Z_SLOT)) */\n      tag_105\n        /* \"zkp/Verifier.sol\":47628:47665  PROOF_QUOTIENT_POLY_OPENING_AT_Z_SLOT */\n      0x0c00\n        /* \"zkp/Verifier.sol\":47622:47666  mload(PROOF_QUOTIENT_POLY_OPENING_AT_Z_SLOT) */\n      mload\n        /* \"zkp/Verifier.sol\":47605:47667  updateTranscript(mload(PROOF_QUOTIENT_POLY_OPENING_AT_Z_SLOT)) */\n      tag_26\n      jump\t// in\n    tag_105:\n        /* \"zkp/Verifier.sol\":47685:47747  updateTranscript(mload(PROOF_STATE_POLYS_0_OPENING_AT_Z_SLOT)) */\n      tag_106\n        /* \"zkp/Verifier.sol\":47708:47745  PROOF_STATE_POLYS_0_OPENING_AT_Z_SLOT */\n      0x0a00\n        /* \"zkp/Verifier.sol\":47702:47746  mload(PROOF_STATE_POLYS_0_OPENING_AT_Z_SLOT) */\n      mload\n        /* \"zkp/Verifier.sol\":47685:47747  updateTranscript(mload(PROOF_STATE_POLYS_0_OPENING_AT_Z_SLOT)) */\n      tag_26\n      jump\t// in\n    tag_106:\n        /* \"zkp/Verifier.sol\":47764:47826  updateTranscript(mload(PROOF_STATE_POLYS_1_OPENING_AT_Z_SLOT)) */\n      tag_107\n        /* \"zkp/Verifier.sol\":47787:47824  PROOF_STATE_POLYS_1_OPENING_AT_Z_SLOT */\n      0x0a20\n        /* \"zkp/Verifier.sol\":47781:47825  mload(PROOF_STATE_POLYS_1_OPENING_AT_Z_SLOT) */\n      mload\n        /* \"zkp/Verifier.sol\":47764:47826  updateTranscript(mload(PROOF_STATE_POLYS_1_OPENING_AT_Z_SLOT)) */\n      tag_26\n      jump\t// in\n    tag_107:\n        /* \"zkp/Verifier.sol\":47843:47905  updateTranscript(mload(PROOF_STATE_POLYS_2_OPENING_AT_Z_SLOT)) */\n      tag_108\n        /* \"zkp/Verifier.sol\":47866:47903  PROOF_STATE_POLYS_2_OPENING_AT_Z_SLOT */\n      0x0a40\n        /* \"zkp/Verifier.sol\":47860:47904  mload(PROOF_STATE_POLYS_2_OPENING_AT_Z_SLOT) */\n      mload\n        /* \"zkp/Verifier.sol\":47843:47905  updateTranscript(mload(PROOF_STATE_POLYS_2_OPENING_AT_Z_SLOT)) */\n      tag_26\n      jump\t// in\n    tag_108:\n        /* \"zkp/Verifier.sol\":47922:47984  updateTranscript(mload(PROOF_STATE_POLYS_3_OPENING_AT_Z_SLOT)) */\n      tag_109\n        /* \"zkp/Verifier.sol\":47945:47982  PROOF_STATE_POLYS_3_OPENING_AT_Z_SLOT */\n      0x0a60\n        /* \"zkp/Verifier.sol\":47939:47983  mload(PROOF_STATE_POLYS_3_OPENING_AT_Z_SLOT) */\n      mload\n        /* \"zkp/Verifier.sol\":47922:47984  updateTranscript(mload(PROOF_STATE_POLYS_3_OPENING_AT_Z_SLOT)) */\n      tag_26\n      jump\t// in\n    tag_109:\n        /* \"zkp/Verifier.sol\":48002:48070  updateTranscript(mload(PROOF_STATE_POLYS_3_OPENING_AT_Z_OMEGA_SLOT)) */\n      tag_110\n        /* \"zkp/Verifier.sol\":48025:48068  PROOF_STATE_POLYS_3_OPENING_AT_Z_OMEGA_SLOT */\n      0x0a80\n        /* \"zkp/Verifier.sol\":48019:48069  mload(PROOF_STATE_POLYS_3_OPENING_AT_Z_OMEGA_SLOT) */\n      mload\n        /* \"zkp/Verifier.sol\":48002:48070  updateTranscript(mload(PROOF_STATE_POLYS_3_OPENING_AT_Z_OMEGA_SLOT)) */\n      tag_26\n      jump\t// in\n    tag_110:\n        /* \"zkp/Verifier.sol\":48087:48152  updateTranscript(mload(PROOF_GATE_SELECTORS_0_OPENING_AT_Z_SLOT)) */\n      tag_111\n        /* \"zkp/Verifier.sol\":48110:48150  PROOF_GATE_SELECTORS_0_OPENING_AT_Z_SLOT */\n      0x0aa0\n        /* \"zkp/Verifier.sol\":48104:48151  mload(PROOF_GATE_SELECTORS_0_OPENING_AT_Z_SLOT) */\n      mload\n        /* \"zkp/Verifier.sol\":48087:48152  updateTranscript(mload(PROOF_GATE_SELECTORS_0_OPENING_AT_Z_SLOT)) */\n      tag_26\n      jump\t// in\n    tag_111:\n        /* \"zkp/Verifier.sol\":48170:48243  updateTranscript(mload(PROOF_COPY_PERMUTATION_POLYS_0_OPENING_AT_Z_SLOT)) */\n      tag_112\n        /* \"zkp/Verifier.sol\":48193:48241  PROOF_COPY_PERMUTATION_POLYS_0_OPENING_AT_Z_SLOT */\n      0x0ac0\n        /* \"zkp/Verifier.sol\":48187:48242  mload(PROOF_COPY_PERMUTATION_POLYS_0_OPENING_AT_Z_SLOT) */\n      mload\n        /* \"zkp/Verifier.sol\":48170:48243  updateTranscript(mload(PROOF_COPY_PERMUTATION_POLYS_0_OPENING_AT_Z_SLOT)) */\n      tag_26\n      jump\t// in\n    tag_112:\n        /* \"zkp/Verifier.sol\":48260:48333  updateTranscript(mload(PROOF_COPY_PERMUTATION_POLYS_1_OPENING_AT_Z_SLOT)) */\n      tag_113\n        /* \"zkp/Verifier.sol\":48283:48331  PROOF_COPY_PERMUTATION_POLYS_1_OPENING_AT_Z_SLOT */\n      0x0ae0\n        /* \"zkp/Verifier.sol\":48277:48332  mload(PROOF_COPY_PERMUTATION_POLYS_1_OPENING_AT_Z_SLOT) */\n      mload\n        /* \"zkp/Verifier.sol\":48260:48333  updateTranscript(mload(PROOF_COPY_PERMUTATION_POLYS_1_OPENING_AT_Z_SLOT)) */\n      tag_26\n      jump\t// in\n    tag_113:\n        /* \"zkp/Verifier.sol\":48350:48423  updateTranscript(mload(PROOF_COPY_PERMUTATION_POLYS_2_OPENING_AT_Z_SLOT)) */\n      tag_114\n        /* \"zkp/Verifier.sol\":48373:48421  PROOF_COPY_PERMUTATION_POLYS_2_OPENING_AT_Z_SLOT */\n      0x0b00\n        /* \"zkp/Verifier.sol\":48367:48422  mload(PROOF_COPY_PERMUTATION_POLYS_2_OPENING_AT_Z_SLOT) */\n      mload\n        /* \"zkp/Verifier.sol\":48350:48423  updateTranscript(mload(PROOF_COPY_PERMUTATION_POLYS_2_OPENING_AT_Z_SLOT)) */\n      tag_26\n      jump\t// in\n    tag_114:\n        /* \"zkp/Verifier.sol\":48441:48526  updateTranscript(mload(PROOF_COPY_PERMUTATION_GRAND_PRODUCT_OPENING_AT_Z_OMEGA_SLOT)) */\n      tag_115\n        /* \"zkp/Verifier.sol\":48464:48524  PROOF_COPY_PERMUTATION_GRAND_PRODUCT_OPENING_AT_Z_OMEGA_SLOT */\n      0x0b20\n        /* \"zkp/Verifier.sol\":48458:48525  mload(PROOF_COPY_PERMUTATION_GRAND_PRODUCT_OPENING_AT_Z_OMEGA_SLOT) */\n      mload\n        /* \"zkp/Verifier.sol\":48441:48526  updateTranscript(mload(PROOF_COPY_PERMUTATION_GRAND_PRODUCT_OPENING_AT_Z_OMEGA_SLOT)) */\n      tag_26\n      jump\t// in\n    tag_115:\n        /* \"zkp/Verifier.sol\":48543:48605  updateTranscript(mload(PROOF_LOOKUP_T_POLY_OPENING_AT_Z_SLOT)) */\n      tag_116\n        /* \"zkp/Verifier.sol\":48566:48603  PROOF_LOOKUP_T_POLY_OPENING_AT_Z_SLOT */\n      0x0b80\n        /* \"zkp/Verifier.sol\":48560:48604  mload(PROOF_LOOKUP_T_POLY_OPENING_AT_Z_SLOT) */\n      mload\n        /* \"zkp/Verifier.sol\":48543:48605  updateTranscript(mload(PROOF_LOOKUP_T_POLY_OPENING_AT_Z_SLOT)) */\n      tag_26\n      jump\t// in\n    tag_116:\n        /* \"zkp/Verifier.sol\":48622:48691  updateTranscript(mload(PROOF_LOOKUP_SELECTOR_POLY_OPENING_AT_Z_SLOT)) */\n      tag_117\n        /* \"zkp/Verifier.sol\":48645:48689  PROOF_LOOKUP_SELECTOR_POLY_OPENING_AT_Z_SLOT */\n      0x0bc0\n        /* \"zkp/Verifier.sol\":48639:48690  mload(PROOF_LOOKUP_SELECTOR_POLY_OPENING_AT_Z_SLOT) */\n      mload\n        /* \"zkp/Verifier.sol\":48622:48691  updateTranscript(mload(PROOF_LOOKUP_SELECTOR_POLY_OPENING_AT_Z_SLOT)) */\n      tag_26\n      jump\t// in\n    tag_117:\n        /* \"zkp/Verifier.sol\":48708:48779  updateTranscript(mload(PROOF_LOOKUP_TABLE_TYPE_POLY_OPENING_AT_Z_SLOT)) */\n      tag_118\n        /* \"zkp/Verifier.sol\":48731:48777  PROOF_LOOKUP_TABLE_TYPE_POLY_OPENING_AT_Z_SLOT */\n      0x0be0\n        /* \"zkp/Verifier.sol\":48725:48778  mload(PROOF_LOOKUP_TABLE_TYPE_POLY_OPENING_AT_Z_SLOT) */\n      mload\n        /* \"zkp/Verifier.sol\":48708:48779  updateTranscript(mload(PROOF_LOOKUP_TABLE_TYPE_POLY_OPENING_AT_Z_SLOT)) */\n      tag_26\n      jump\t// in\n    tag_118:\n        /* \"zkp/Verifier.sol\":48796:48864  updateTranscript(mload(PROOF_LOOKUP_S_POLY_OPENING_AT_Z_OMEGA_SLOT)) */\n      tag_119\n        /* \"zkp/Verifier.sol\":48819:48862  PROOF_LOOKUP_S_POLY_OPENING_AT_Z_OMEGA_SLOT */\n      0x0b40\n        /* \"zkp/Verifier.sol\":48813:48863  mload(PROOF_LOOKUP_S_POLY_OPENING_AT_Z_OMEGA_SLOT) */\n      mload\n        /* \"zkp/Verifier.sol\":48796:48864  updateTranscript(mload(PROOF_LOOKUP_S_POLY_OPENING_AT_Z_OMEGA_SLOT)) */\n      tag_26\n      jump\t// in\n    tag_119:\n        /* \"zkp/Verifier.sol\":48881:48956  updateTranscript(mload(PROOF_LOOKUP_GRAND_PRODUCT_OPENING_AT_Z_OMEGA_SLOT)) */\n      tag_120\n        /* \"zkp/Verifier.sol\":48904:48954  PROOF_LOOKUP_GRAND_PRODUCT_OPENING_AT_Z_OMEGA_SLOT */\n      0x0b60\n        /* \"zkp/Verifier.sol\":48898:48955  mload(PROOF_LOOKUP_GRAND_PRODUCT_OPENING_AT_Z_OMEGA_SLOT) */\n      mload\n        /* \"zkp/Verifier.sol\":48881:48956  updateTranscript(mload(PROOF_LOOKUP_GRAND_PRODUCT_OPENING_AT_Z_OMEGA_SLOT)) */\n      tag_26\n      jump\t// in\n    tag_120:\n        /* \"zkp/Verifier.sol\":48973:49041  updateTranscript(mload(PROOF_LOOKUP_T_POLY_OPENING_AT_Z_OMEGA_SLOT)) */\n      tag_121\n        /* \"zkp/Verifier.sol\":48996:49039  PROOF_LOOKUP_T_POLY_OPENING_AT_Z_OMEGA_SLOT */\n      0x0ba0\n        /* \"zkp/Verifier.sol\":48990:49040  mload(PROOF_LOOKUP_T_POLY_OPENING_AT_Z_OMEGA_SLOT) */\n      mload\n        /* \"zkp/Verifier.sol\":48973:49041  updateTranscript(mload(PROOF_LOOKUP_T_POLY_OPENING_AT_Z_OMEGA_SLOT)) */\n      tag_26\n      jump\t// in\n    tag_121:\n        /* \"zkp/Verifier.sol\":49058:49125  updateTranscript(mload(PROOF_LINEARISATION_POLY_OPENING_AT_Z_SLOT)) */\n      tag_122\n        /* \"zkp/Verifier.sol\":49081:49123  PROOF_LINEARISATION_POLY_OPENING_AT_Z_SLOT */\n      0x0c20\n        /* \"zkp/Verifier.sol\":49075:49124  mload(PROOF_LINEARISATION_POLY_OPENING_AT_Z_SLOT) */\n      mload\n        /* \"zkp/Verifier.sol\":49058:49125  updateTranscript(mload(PROOF_LINEARISATION_POLY_OPENING_AT_Z_SLOT)) */\n      tag_26\n      jump\t// in\n    tag_122:\n        /* \"zkp/Verifier.sol\":49164:49189  getTranscriptChallenge(7) */\n      tag_123\n        /* \"zkp/Verifier.sol\":49187:49188  7 */\n      0x07\n        /* \"zkp/Verifier.sol\":49164:49189  getTranscriptChallenge(7) */\n      tag_27\n      jump\t// in\n    tag_123:\n        /* \"zkp/Verifier.sol\":49150:49162  STATE_V_SLOT */\n      0x0fa0\n        /* \"zkp/Verifier.sol\":49143:49190  mstore(STATE_V_SLOT, getTranscriptChallenge(7)) */\n      mstore\n        /* \"zkp/Verifier.sol\":49235:49291  updateTranscript(mload(PROOF_OPENING_PROOF_AT_Z_X_SLOT)) */\n      tag_124\n        /* \"zkp/Verifier.sol\":49258:49289  PROOF_OPENING_PROOF_AT_Z_X_SLOT */\n      0x0c40\n        /* \"zkp/Verifier.sol\":49252:49290  mload(PROOF_OPENING_PROOF_AT_Z_X_SLOT) */\n      mload\n        /* \"zkp/Verifier.sol\":49235:49291  updateTranscript(mload(PROOF_OPENING_PROOF_AT_Z_X_SLOT)) */\n      tag_26\n      jump\t// in\n    tag_124:\n        /* \"zkp/Verifier.sol\":49308:49364  updateTranscript(mload(PROOF_OPENING_PROOF_AT_Z_Y_SLOT)) */\n      tag_125\n        /* \"zkp/Verifier.sol\":49331:49362  PROOF_OPENING_PROOF_AT_Z_Y_SLOT */\n      0x0c60\n        /* \"zkp/Verifier.sol\":49325:49363  mload(PROOF_OPENING_PROOF_AT_Z_Y_SLOT) */\n      mload\n        /* \"zkp/Verifier.sol\":49308:49364  updateTranscript(mload(PROOF_OPENING_PROOF_AT_Z_Y_SLOT)) */\n      tag_26\n      jump\t// in\n    tag_125:\n        /* \"zkp/Verifier.sol\":49381:49443  updateTranscript(mload(PROOF_OPENING_PROOF_AT_Z_OMEGA_X_SLOT)) */\n      tag_126\n        /* \"zkp/Verifier.sol\":49404:49441  PROOF_OPENING_PROOF_AT_Z_OMEGA_X_SLOT */\n      0x0c80\n        /* \"zkp/Verifier.sol\":49398:49442  mload(PROOF_OPENING_PROOF_AT_Z_OMEGA_X_SLOT) */\n      mload\n        /* \"zkp/Verifier.sol\":49381:49443  updateTranscript(mload(PROOF_OPENING_PROOF_AT_Z_OMEGA_X_SLOT)) */\n      tag_26\n      jump\t// in\n    tag_126:\n        /* \"zkp/Verifier.sol\":49460:49522  updateTranscript(mload(PROOF_OPENING_PROOF_AT_Z_OMEGA_Y_SLOT)) */\n      tag_127\n        /* \"zkp/Verifier.sol\":49483:49520  PROOF_OPENING_PROOF_AT_Z_OMEGA_Y_SLOT */\n      0x0ca0\n        /* \"zkp/Verifier.sol\":49477:49521  mload(PROOF_OPENING_PROOF_AT_Z_OMEGA_Y_SLOT) */\n      mload\n        /* \"zkp/Verifier.sol\":49460:49522  updateTranscript(mload(PROOF_OPENING_PROOF_AT_Z_OMEGA_Y_SLOT)) */\n      tag_26\n      jump\t// in\n    tag_127:\n        /* \"zkp/Verifier.sol\":49561:49586  getTranscriptChallenge(8) */\n      tag_128\n        /* \"zkp/Verifier.sol\":49584:49585  8 */\n      0x08\n        /* \"zkp/Verifier.sol\":49561:49586  getTranscriptChallenge(8) */\n      tag_27\n      jump\t// in\n    tag_128:\n        /* \"zkp/Verifier.sol\":49547:49559  STATE_U_SLOT */\n      0x0fc0\n        /* \"zkp/Verifier.sol\":49540:49587  mstore(STATE_U_SLOT, getTranscriptChallenge(8)) */\n      mstore\n        /* \"zkp/Verifier.sol\":45082:49601  function initializeTranscript() {... */\n      jump\t// out\n        /* \"zkp/Verifier.sol\":51171:53702  function verifyQuotientEvaluation() {... */\n    tag_30:\n        /* \"zkp/Verifier.sol\":51308:51324  STATE_ALPHA_SLOT */\n      0x0dc0\n        /* \"zkp/Verifier.sol\":51302:51325  mload(STATE_ALPHA_SLOT) */\n      mload\n        /* \"zkp/Verifier.sol\":51387:51392  R_MOD */\n      0x30644e72e131a029b85045b68181585d2833e84879b9709143e1f593f0000001\n        /* \"zkp/Verifier.sol\":51380:51385  alpha */\n      dup2\n        /* \"zkp/Verifier.sol\":51373:51378  alpha */\n      dup3\n        /* \"zkp/Verifier.sol\":51366:51393  mulmod(alpha, alpha, R_MOD) */\n      mulmod\n        /* \"zkp/Verifier.sol\":51450:51462  currentAlpha */\n      dup1\n        /* \"zkp/Verifier.sol\":51421:51448  STATE_POWER_OF_ALPHA_2_SLOT */\n      0x0e20\n        /* \"zkp/Verifier.sol\":51414:51463  mstore(STATE_POWER_OF_ALPHA_2_SLOT, currentAlpha) */\n      mstore\n        /* \"zkp/Verifier.sol\":51528:51533  R_MOD */\n      0x30644e72e131a029b85045b68181585d2833e84879b9709143e1f593f0000001\n        /* \"zkp/Verifier.sol\":51521:51526  alpha */\n      dup3\n        /* \"zkp/Verifier.sol\":51507:51519  currentAlpha */\n      dup3\n        /* \"zkp/Verifier.sol\":51500:51534  mulmod(currentAlpha, alpha, R_MOD) */\n      mulmod\n        /* \"zkp/Verifier.sol\":51484:51534  currentAlpha := mulmod(currentAlpha, alpha, R_MOD) */\n      swap1\n      pop\n        /* \"zkp/Verifier.sol\":51591:51603  currentAlpha */\n      dup1\n        /* \"zkp/Verifier.sol\":51562:51589  STATE_POWER_OF_ALPHA_3_SLOT */\n      0x0e40\n        /* \"zkp/Verifier.sol\":51555:51604  mstore(STATE_POWER_OF_ALPHA_3_SLOT, currentAlpha) */\n      mstore\n        /* \"zkp/Verifier.sol\":51669:51674  R_MOD */\n      0x30644e72e131a029b85045b68181585d2833e84879b9709143e1f593f0000001\n        /* \"zkp/Verifier.sol\":51662:51667  alpha */\n      dup3\n        /* \"zkp/Verifier.sol\":51648:51660  currentAlpha */\n      dup3\n        /* \"zkp/Verifier.sol\":51641:51675  mulmod(currentAlpha, alpha, R_MOD) */\n      mulmod\n        /* \"zkp/Verifier.sol\":51625:51675  currentAlpha := mulmod(currentAlpha, alpha, R_MOD) */\n      swap1\n      pop\n        /* \"zkp/Verifier.sol\":51732:51744  currentAlpha */\n      dup1\n        /* \"zkp/Verifier.sol\":51703:51730  STATE_POWER_OF_ALPHA_4_SLOT */\n      0x0e60\n        /* \"zkp/Verifier.sol\":51696:51745  mstore(STATE_POWER_OF_ALPHA_4_SLOT, currentAlpha) */\n      mstore\n        /* \"zkp/Verifier.sol\":51810:51815  R_MOD */\n      0x30644e72e131a029b85045b68181585d2833e84879b9709143e1f593f0000001\n        /* \"zkp/Verifier.sol\":51803:51808  alpha */\n      dup3\n        /* \"zkp/Verifier.sol\":51789:51801  currentAlpha */\n      dup3\n        /* \"zkp/Verifier.sol\":51782:51816  mulmod(currentAlpha, alpha, R_MOD) */\n      mulmod\n        /* \"zkp/Verifier.sol\":51766:51816  currentAlpha := mulmod(currentAlpha, alpha, R_MOD) */\n      swap1\n      pop\n        /* \"zkp/Verifier.sol\":51873:51885  currentAlpha */\n      dup1\n        /* \"zkp/Verifier.sol\":51844:51871  STATE_POWER_OF_ALPHA_5_SLOT */\n      0x0e80\n        /* \"zkp/Verifier.sol\":51837:51886  mstore(STATE_POWER_OF_ALPHA_5_SLOT, currentAlpha) */\n      mstore\n        /* \"zkp/Verifier.sol\":51951:51956  R_MOD */\n      0x30644e72e131a029b85045b68181585d2833e84879b9709143e1f593f0000001\n        /* \"zkp/Verifier.sol\":51944:51949  alpha */\n      dup3\n        /* \"zkp/Verifier.sol\":51930:51942  currentAlpha */\n      dup3\n        /* \"zkp/Verifier.sol\":51923:51957  mulmod(currentAlpha, alpha, R_MOD) */\n      mulmod\n        /* \"zkp/Verifier.sol\":51907:51957  currentAlpha := mulmod(currentAlpha, alpha, R_MOD) */\n      swap1\n      pop\n        /* \"zkp/Verifier.sol\":52014:52026  currentAlpha */\n      dup1\n        /* \"zkp/Verifier.sol\":51985:52012  STATE_POWER_OF_ALPHA_6_SLOT */\n      0x0ea0\n        /* \"zkp/Verifier.sol\":51978:52027  mstore(STATE_POWER_OF_ALPHA_6_SLOT, currentAlpha) */\n      mstore\n        /* \"zkp/Verifier.sol\":52092:52097  R_MOD */\n      0x30644e72e131a029b85045b68181585d2833e84879b9709143e1f593f0000001\n        /* \"zkp/Verifier.sol\":52085:52090  alpha */\n      dup3\n        /* \"zkp/Verifier.sol\":52071:52083  currentAlpha */\n      dup3\n        /* \"zkp/Verifier.sol\":52064:52098  mulmod(currentAlpha, alpha, R_MOD) */\n      mulmod\n        /* \"zkp/Verifier.sol\":52048:52098  currentAlpha := mulmod(currentAlpha, alpha, R_MOD) */\n      swap1\n      pop\n        /* \"zkp/Verifier.sol\":52155:52167  currentAlpha */\n      dup1\n        /* \"zkp/Verifier.sol\":52126:52153  STATE_POWER_OF_ALPHA_7_SLOT */\n      0x0ec0\n        /* \"zkp/Verifier.sol\":52119:52168  mstore(STATE_POWER_OF_ALPHA_7_SLOT, currentAlpha) */\n      mstore\n        /* \"zkp/Verifier.sol\":52233:52238  R_MOD */\n      0x30644e72e131a029b85045b68181585d2833e84879b9709143e1f593f0000001\n        /* \"zkp/Verifier.sol\":52226:52231  alpha */\n      dup3\n        /* \"zkp/Verifier.sol\":52212:52224  currentAlpha */\n      dup3\n        /* \"zkp/Verifier.sol\":52205:52239  mulmod(currentAlpha, alpha, R_MOD) */\n      mulmod\n        /* \"zkp/Verifier.sol\":52189:52239  currentAlpha := mulmod(currentAlpha, alpha, R_MOD) */\n      swap1\n      pop\n        /* \"zkp/Verifier.sol\":52296:52308  currentAlpha */\n      dup1\n        /* \"zkp/Verifier.sol\":52267:52294  STATE_POWER_OF_ALPHA_8_SLOT */\n      0x0ee0\n        /* \"zkp/Verifier.sol\":52260:52309  mstore(STATE_POWER_OF_ALPHA_8_SLOT, currentAlpha) */\n      mstore\n        /* \"zkp/Verifier.sol\":51267:52327  {... */\n      pop\n      pop\n        /* \"zkp/Verifier.sol\":52386:52398  STATE_Z_SLOT */\n      0x0fe0\n        /* \"zkp/Verifier.sol\":52380:52399  mload(STATE_Z_SLOT) */\n      mload\n        /* \"zkp/Verifier.sol\":52470:52512  evaluateLagrangePolyOutOfDomain(0, stateZ) */\n      tag_130\n        /* \"zkp/Verifier.sol\":52505:52511  stateZ */\n      dup2\n        /* \"zkp/Verifier.sol\":52502:52503  0 */\n      0x00\n        /* \"zkp/Verifier.sol\":52470:52512  evaluateLagrangePolyOutOfDomain(0, stateZ) */\n      tag_31\n      jump\t// in\n    tag_130:\n        /* \"zkp/Verifier.sol\":52449:52468  STATE_L_0_AT_Z_SLOT */\n      0x1020\n        /* \"zkp/Verifier.sol\":52442:52513  mstore(STATE_L_0_AT_Z_SLOT, evaluateLagrangePolyOutOfDomain(0, stateZ)) */\n      mstore\n        /* \"zkp/Verifier.sol\":52598:52658  evaluateLagrangePolyOutOfDomain(sub(DOMAIN_SIZE, 1), stateZ) */\n      tag_131\n        /* \"zkp/Verifier.sol\":52651:52657  stateZ */\n      dup2\n        /* \"zkp/Verifier.sol\":52647:52648  1 */\n      0x01\n        /* \"zkp/Verifier.sol\":52634:52645  DOMAIN_SIZE */\n      0x04000000\n        /* \"zkp/Verifier.sol\":52630:52649  sub(DOMAIN_SIZE, 1) */\n      sub\n        /* \"zkp/Verifier.sol\":52598:52658  evaluateLagrangePolyOutOfDomain(sub(DOMAIN_SIZE, 1), stateZ) */\n      tag_31\n      jump\t// in\n    tag_131:\n        /* \"zkp/Verifier.sol\":52567:52596  STATE_L_N_MINUS_ONE_AT_Z_SLOT */\n      0x1040\n        /* \"zkp/Verifier.sol\":52560:52659  mstore(STATE_L_N_MINUS_ONE_AT_Z_SLOT, evaluateLagrangePolyOutOfDomain(sub(DOMAIN_SIZE, 1), stateZ)) */\n      mstore\n        /* \"zkp/Verifier.sol\":52783:52788  R_MOD */\n      0x30644e72e131a029b85045b68181585d2833e84879b9709143e1f593f0000001\n        /* \"zkp/Verifier.sol\":52762:52780  PROOF_PUBLIC_INPUT */\n      0x0720\n        /* \"zkp/Verifier.sol\":52756:52781  mload(PROOF_PUBLIC_INPUT) */\n      mload\n        /* \"zkp/Verifier.sol\":52734:52753  STATE_L_0_AT_Z_SLOT */\n      0x1020\n        /* \"zkp/Verifier.sol\":52728:52754  mload(STATE_L_0_AT_Z_SLOT) */\n      mload\n        /* \"zkp/Verifier.sol\":52721:52789  mulmod(mload(STATE_L_0_AT_Z_SLOT), mload(PROOF_PUBLIC_INPUT), R_MOD) */\n      mulmod\n        /* \"zkp/Verifier.sol\":52935:52940  R_MOD */\n      0x30644e72e131a029b85045b68181585d2833e84879b9709143e1f593f0000001\n        /* \"zkp/Verifier.sol\":52892:52932  PROOF_GATE_SELECTORS_0_OPENING_AT_Z_SLOT */\n      0x0aa0\n        /* \"zkp/Verifier.sol\":52886:52933  mload(PROOF_GATE_SELECTORS_0_OPENING_AT_Z_SLOT) */\n      mload\n        /* \"zkp/Verifier.sol\":52878:52884  stateT */\n      dup3\n        /* \"zkp/Verifier.sol\":52871:52941  mulmod(stateT, mload(PROOF_GATE_SELECTORS_0_OPENING_AT_Z_SLOT), R_MOD) */\n      mulmod\n        /* \"zkp/Verifier.sol\":53071:53076  R_MOD */\n      0x30644e72e131a029b85045b68181585d2833e84879b9709143e1f593f0000001\n        /* \"zkp/Verifier.sol\":53036:53069  permutationQuotientContribution() */\n      tag_132\n      tag_32\n      jump\t// in\n    tag_132:\n        /* \"zkp/Verifier.sol\":53028:53034  result */\n      dup3\n        /* \"zkp/Verifier.sol\":53021:53077  addmod(result, permutationQuotientContribution(), R_MOD) */\n      addmod\n        /* \"zkp/Verifier.sol\":53011:53077  result := addmod(result, permutationQuotientContribution(), R_MOD) */\n      swap1\n      pop\n        /* \"zkp/Verifier.sol\":53197:53202  R_MOD */\n      0x30644e72e131a029b85045b68181585d2833e84879b9709143e1f593f0000001\n        /* \"zkp/Verifier.sol\":53167:53195  lookupQuotientContribution() */\n      tag_133\n      tag_33\n      jump\t// in\n    tag_133:\n        /* \"zkp/Verifier.sol\":53159:53165  result */\n      dup3\n        /* \"zkp/Verifier.sol\":53152:53203  addmod(result, lookupQuotientContribution(), R_MOD) */\n      addmod\n        /* \"zkp/Verifier.sol\":53142:53203  result := addmod(result, lookupQuotientContribution(), R_MOD) */\n      swap1\n      pop\n        /* \"zkp/Verifier.sol\":53354:53359  R_MOD */\n      0x30644e72e131a029b85045b68181585d2833e84879b9709143e1f593f0000001\n        /* \"zkp/Verifier.sol\":53346:53352  result */\n      dup2\n        /* \"zkp/Verifier.sol\":53301:53343  PROOF_LINEARISATION_POLY_OPENING_AT_Z_SLOT */\n      0x0c20\n        /* \"zkp/Verifier.sol\":53295:53344  mload(PROOF_LINEARISATION_POLY_OPENING_AT_Z_SLOT) */\n      mload\n        /* \"zkp/Verifier.sol\":53288:53360  addmod(mload(PROOF_LINEARISATION_POLY_OPENING_AT_Z_SLOT), result, R_MOD) */\n      addmod\n        /* \"zkp/Verifier.sol\":53278:53360  result := addmod(mload(PROOF_LINEARISATION_POLY_OPENING_AT_Z_SLOT), result, R_MOD) */\n      swap1\n      pop\n        /* \"zkp/Verifier.sol\":53448:53453  R_MOD */\n      0x30644e72e131a029b85045b68181585d2833e84879b9709143e1f593f0000001\n        /* \"zkp/Verifier.sol\":53444:53445  1 */\n      0x01\n        /* \"zkp/Verifier.sol\":53437:53442  R_MOD */\n      0x30644e72e131a029b85045b68181585d2833e84879b9709143e1f593f0000001\n        /* \"zkp/Verifier.sol\":53433:53446  sub(R_MOD, 1) */\n      sub\n        /* \"zkp/Verifier.sol\":53408:53430  STATE_Z_IN_DOMAIN_SIZE */\n      0x1060\n        /* \"zkp/Verifier.sol\":53402:53431  mload(STATE_Z_IN_DOMAIN_SIZE) */\n      mload\n        /* \"zkp/Verifier.sol\":53395:53454  addmod(mload(STATE_Z_IN_DOMAIN_SIZE), sub(R_MOD, 1), R_MOD) */\n      addmod\n        /* \"zkp/Verifier.sol\":53546:53551  R_MOD */\n      0x30644e72e131a029b85045b68181585d2833e84879b9709143e1f593f0000001\n        /* \"zkp/Verifier.sol\":53535:53544  vanishing */\n      dup2\n        /* \"zkp/Verifier.sol\":53495:53532  PROOF_QUOTIENT_POLY_OPENING_AT_Z_SLOT */\n      0x0c00\n        /* \"zkp/Verifier.sol\":53489:53533  mload(PROOF_QUOTIENT_POLY_OPENING_AT_Z_SLOT) */\n      mload\n        /* \"zkp/Verifier.sol\":53482:53552  mulmod(mload(PROOF_QUOTIENT_POLY_OPENING_AT_Z_SLOT), vanishing, R_MOD) */\n      mulmod\n        /* \"zkp/Verifier.sol\":53587:53593  result */\n      dup3\n        /* \"zkp/Verifier.sol\":53582:53585  lhs */\n      dup2\n        /* \"zkp/Verifier.sol\":53579:53594  eq(lhs, result) */\n      eq\n        /* \"zkp/Verifier.sol\":53569:53688  if iszero(eq(lhs, result)) {... */\n      tag_134\n      jumpi\n        /* \"zkp/Verifier.sol\":53618:53670  revertWithMessage(27, \"invalid quotient evaluation\") */\n      tag_135\n        /* \"zkp/Verifier.sol\":53640:53669  \"invalid quotient evaluation\" */\n      0x696e76616c69642071756f7469656e74206576616c756174696f6e0000000000\n        /* \"zkp/Verifier.sol\":53636:53638  27 */\n      0x1b\n        /* \"zkp/Verifier.sol\":53618:53670  revertWithMessage(27, \"invalid quotient evaluation\") */\n      tag_18\n      jump\t// in\n    tag_135:\n        /* \"zkp/Verifier.sol\":53569:53688  if iszero(eq(lhs, result)) {... */\n    tag_134:\n        /* \"zkp/Verifier.sol\":51207:53702  {... */\n      pop\n      pop\n      pop\n      pop\n      pop\n        /* \"zkp/Verifier.sol\":51171:53702  function verifyQuotientEvaluation() {... */\n      jump\t// out\n        /* \"zkp/Verifier.sol\":53926:54739  function evaluateLagrangePolyOutOfDomain(polyNum, at) -> res {... */\n    tag_31:\n        /* \"zkp/Verifier.sol\":53983:53986  res */\n      0x00\n        /* \"zkp/Verifier.sol\":54023:54024  1 */\n      0x01\n        /* \"zkp/Verifier.sol\":54044:54051  polyNum */\n      dup3\n        /* \"zkp/Verifier.sol\":54041:54128  if polyNum {... */\n      iszero\n      tag_137\n      jumpi\n        /* \"zkp/Verifier.sol\":54088:54110  modexp(OMEGA, polyNum) */\n      tag_138\n        /* \"zkp/Verifier.sol\":54102:54109  polyNum */\n      dup4\n        /* \"zkp/Verifier.sol\":54095:54100  OMEGA */\n      0x1dba8b5bdd64ef6ce29a9039aca3c0e524395c43b9227b96c75090cc6cc7ec97\n        /* \"zkp/Verifier.sol\":54088:54110  modexp(OMEGA, polyNum) */\n      tag_19\n      jump\t// in\n    tag_138:\n        /* \"zkp/Verifier.sol\":54074:54110  omegaPower := modexp(OMEGA, polyNum) */\n      swap1\n      pop\n        /* \"zkp/Verifier.sol\":54041:54128  if polyNum {... */\n    tag_137:\n        /* \"zkp/Verifier.sol\":54200:54205  R_MOD */\n      0x30644e72e131a029b85045b68181585d2833e84879b9709143e1f593f0000001\n        /* \"zkp/Verifier.sol\":54196:54197  1 */\n      0x01\n        /* \"zkp/Verifier.sol\":54189:54194  R_MOD */\n      0x30644e72e131a029b85045b68181585d2833e84879b9709143e1f593f0000001\n        /* \"zkp/Verifier.sol\":54185:54198  sub(R_MOD, 1) */\n      sub\n        /* \"zkp/Verifier.sol\":54160:54183  modexp(at, DOMAIN_SIZE) */\n      tag_139\n        /* \"zkp/Verifier.sol\":54171:54182  DOMAIN_SIZE */\n      0x04000000\n        /* \"zkp/Verifier.sol\":54167:54169  at */\n      dup8\n        /* \"zkp/Verifier.sol\":54160:54183  modexp(at, DOMAIN_SIZE) */\n      tag_19\n      jump\t// in\n    tag_139:\n        /* \"zkp/Verifier.sol\":54153:54206  addmod(modexp(at, DOMAIN_SIZE), sub(R_MOD, 1), R_MOD) */\n      addmod\n        /* \"zkp/Verifier.sol\":54146:54206  res := addmod(modexp(at, DOMAIN_SIZE), sub(R_MOD, 1), R_MOD) */\n      swap2\n      pop\n        /* \"zkp/Verifier.sol\":54304:54307  res */\n      dup2\n        /* \"zkp/Verifier.sol\":54294:54402  if iszero(res) {... */\n      tag_140\n      jumpi\n        /* \"zkp/Verifier.sol\":54331:54384  revertWithMessage(28, \"invalid vanishing polynomial\") */\n      tag_141\n        /* \"zkp/Verifier.sol\":54353:54383  \"invalid vanishing polynomial\" */\n      0x696e76616c69642076616e697368696e6720706f6c796e6f6d69616c00000000\n        /* \"zkp/Verifier.sol\":54349:54351  28 */\n      0x1c\n        /* \"zkp/Verifier.sol\":54331:54384  revertWithMessage(28, \"invalid vanishing polynomial\") */\n      tag_18\n      jump\t// in\n    tag_141:\n        /* \"zkp/Verifier.sol\":54294:54402  if iszero(res) {... */\n    tag_140:\n        /* \"zkp/Verifier.sol\":54450:54455  R_MOD */\n      0x30644e72e131a029b85045b68181585d2833e84879b9709143e1f593f0000001\n        /* \"zkp/Verifier.sol\":54438:54448  omegaPower */\n      dup2\n        /* \"zkp/Verifier.sol\":54433:54436  res */\n      dup4\n        /* \"zkp/Verifier.sol\":54426:54456  mulmod(res, omegaPower, R_MOD) */\n      mulmod\n        /* \"zkp/Verifier.sol\":54419:54456  res := mulmod(res, omegaPower, R_MOD) */\n      swap2\n      pop\n        /* \"zkp/Verifier.sol\":54527:54532  R_MOD */\n      0x30644e72e131a029b85045b68181585d2833e84879b9709143e1f593f0000001\n        /* \"zkp/Verifier.sol\":54514:54524  omegaPower */\n      dup2\n        /* \"zkp/Verifier.sol\":54507:54512  R_MOD */\n      0x30644e72e131a029b85045b68181585d2833e84879b9709143e1f593f0000001\n        /* \"zkp/Verifier.sol\":54503:54525  sub(R_MOD, omegaPower) */\n      sub\n        /* \"zkp/Verifier.sol\":54499:54501  at */\n      dup6\n        /* \"zkp/Verifier.sol\":54492:54533  addmod(at, sub(R_MOD, omegaPower), R_MOD) */\n      addmod\n        /* \"zkp/Verifier.sol\":54598:54603  R_MOD */\n      0x30644e72e131a029b85045b68181585d2833e84879b9709143e1f593f0000001\n        /* \"zkp/Verifier.sol\":54585:54596  DOMAIN_SIZE */\n      0x04000000\n        /* \"zkp/Verifier.sol\":54572:54583  denominator */\n      dup3\n        /* \"zkp/Verifier.sol\":54565:54604  mulmod(denominator, DOMAIN_SIZE, R_MOD) */\n      mulmod\n        /* \"zkp/Verifier.sol\":54550:54604  denominator := mulmod(denominator, DOMAIN_SIZE, R_MOD) */\n      swap1\n      pop\n        /* \"zkp/Verifier.sol\":54636:54670  modexp(denominator, sub(R_MOD, 2)) */\n      tag_142\n        /* \"zkp/Verifier.sol\":54667:54668  2 */\n      0x02\n        /* \"zkp/Verifier.sol\":54660:54665  R_MOD */\n      0x30644e72e131a029b85045b68181585d2833e84879b9709143e1f593f0000001\n        /* \"zkp/Verifier.sol\":54656:54669  sub(R_MOD, 2) */\n      sub\n        /* \"zkp/Verifier.sol\":54643:54654  denominator */\n      dup3\n        /* \"zkp/Verifier.sol\":54636:54670  modexp(denominator, sub(R_MOD, 2)) */\n      tag_19\n      jump\t// in\n    tag_142:\n        /* \"zkp/Verifier.sol\":54621:54670  denominator := modexp(denominator, sub(R_MOD, 2)) */\n      swap1\n      pop\n        /* \"zkp/Verifier.sol\":54719:54724  R_MOD */\n      0x30644e72e131a029b85045b68181585d2833e84879b9709143e1f593f0000001\n        /* \"zkp/Verifier.sol\":54706:54717  denominator */\n      dup2\n        /* \"zkp/Verifier.sol\":54701:54704  res */\n      dup5\n        /* \"zkp/Verifier.sol\":54694:54725  mulmod(res, denominator, R_MOD) */\n      mulmod\n        /* \"zkp/Verifier.sol\":54687:54725  res := mulmod(res, denominator, R_MOD) */\n      swap3\n      pop\n        /* \"zkp/Verifier.sol\":53987:54739  {... */\n      pop\n      pop\n        /* \"zkp/Verifier.sol\":53926:54739  function evaluateLagrangePolyOutOfDomain(polyNum, at) -> res {... */\n      swap3\n      swap2\n      pop\n      pop\n      jump\t// out\n        /* \"zkp/Verifier.sol\":54854:57699  function permutationQuotientContribution() -> res {... */\n    tag_32:\n        /* \"zkp/Verifier.sol\":54900:54903  res */\n      0x00\n        /* \"zkp/Verifier.sol\":55153:55158  R_MOD */\n      0x30644e72e131a029b85045b68181585d2833e84879b9709143e1f593f0000001\n        /* \"zkp/Verifier.sol\":55070:55130  PROOF_COPY_PERMUTATION_GRAND_PRODUCT_OPENING_AT_Z_OMEGA_SLOT */\n      0x0b20\n        /* \"zkp/Verifier.sol\":55064:55131  mload(PROOF_COPY_PERMUTATION_GRAND_PRODUCT_OPENING_AT_Z_OMEGA_SLOT) */\n      mload\n        /* \"zkp/Verifier.sol\":55014:55041  STATE_POWER_OF_ALPHA_4_SLOT */\n      0x0e60\n        /* \"zkp/Verifier.sol\":55008:55042  mload(STATE_POWER_OF_ALPHA_4_SLOT) */\n      mload\n        /* \"zkp/Verifier.sol\":54980:55176  mulmod(... */\n      mulmod\n        /* \"zkp/Verifier.sol\":54973:55176  res := mulmod(... */\n      swap1\n      pop\n        /* \"zkp/Verifier.sol\":55235:55251  STATE_GAMMA_SLOT */\n      0x0e00\n        /* \"zkp/Verifier.sol\":55229:55252  mload(STATE_GAMMA_SLOT) */\n      mload\n        /* \"zkp/Verifier.sol\":55291:55306  STATE_BETA_SLOT */\n      0x0de0\n        /* \"zkp/Verifier.sol\":55285:55307  mload(STATE_BETA_SLOT) */\n      mload\n        /* \"zkp/Verifier.sol\":55329:55349  let factorMultiplier */\n      0x00\n        /* \"zkp/Verifier.sol\":55553:55558  R_MOD */\n      0x30644e72e131a029b85045b68181585d2833e84879b9709143e1f593f0000001\n        /* \"zkp/Verifier.sol\":55547:55551  beta */\n      dup3\n        /* \"zkp/Verifier.sol\":55496:55544  PROOF_COPY_PERMUTATION_POLYS_0_OPENING_AT_Z_SLOT */\n      0x0ac0\n        /* \"zkp/Verifier.sol\":55490:55545  mload(PROOF_COPY_PERMUTATION_POLYS_0_OPENING_AT_Z_SLOT) */\n      mload\n        /* \"zkp/Verifier.sol\":55483:55559  mulmod(mload(PROOF_COPY_PERMUTATION_POLYS_0_OPENING_AT_Z_SLOT), beta, R_MOD) */\n      mulmod\n        /* \"zkp/Verifier.sol\":55463:55559  factorMultiplier := mulmod(mload(PROOF_COPY_PERMUTATION_POLYS_0_OPENING_AT_Z_SLOT), beta, R_MOD) */\n      swap1\n      pop\n        /* \"zkp/Verifier.sol\":55636:55641  R_MOD */\n      0x30644e72e131a029b85045b68181585d2833e84879b9709143e1f593f0000001\n        /* \"zkp/Verifier.sol\":55629:55634  gamma */\n      dup4\n        /* \"zkp/Verifier.sol\":55611:55627  factorMultiplier */\n      dup3\n        /* \"zkp/Verifier.sol\":55604:55642  addmod(factorMultiplier, gamma, R_MOD) */\n      addmod\n        /* \"zkp/Verifier.sol\":55584:55642  factorMultiplier := addmod(factorMultiplier, gamma, R_MOD) */\n      swap1\n      pop\n        /* \"zkp/Verifier.sol\":55843:55848  R_MOD */\n      0x30644e72e131a029b85045b68181585d2833e84879b9709143e1f593f0000001\n        /* \"zkp/Verifier.sol\":55775:55812  PROOF_STATE_POLYS_0_OPENING_AT_Z_SLOT */\n      0x0a00\n        /* \"zkp/Verifier.sol\":55769:55813  mload(PROOF_STATE_POLYS_0_OPENING_AT_Z_SLOT) */\n      mload\n        /* \"zkp/Verifier.sol\":55723:55739  factorMultiplier */\n      dup3\n        /* \"zkp/Verifier.sol\":55687:55874  addmod(... */\n      addmod\n        /* \"zkp/Verifier.sol\":55667:55874  factorMultiplier := addmod(... */\n      swap1\n      pop\n        /* \"zkp/Verifier.sol\":55936:55941  R_MOD */\n      0x30644e72e131a029b85045b68181585d2833e84879b9709143e1f593f0000001\n        /* \"zkp/Verifier.sol\":55918:55934  factorMultiplier */\n      dup2\n        /* \"zkp/Verifier.sol\":55913:55916  res */\n      dup6\n        /* \"zkp/Verifier.sol\":55906:55942  mulmod(res, factorMultiplier, R_MOD) */\n      mulmod\n        /* \"zkp/Verifier.sol\":55899:55942  res := mulmod(res, factorMultiplier, R_MOD) */\n      swap4\n      pop\n        /* \"zkp/Verifier.sol\":56168:56173  R_MOD */\n      0x30644e72e131a029b85045b68181585d2833e84879b9709143e1f593f0000001\n        /* \"zkp/Verifier.sol\":56162:56166  beta */\n      dup3\n        /* \"zkp/Verifier.sol\":56111:56159  PROOF_COPY_PERMUTATION_POLYS_1_OPENING_AT_Z_SLOT */\n      0x0ae0\n        /* \"zkp/Verifier.sol\":56105:56160  mload(PROOF_COPY_PERMUTATION_POLYS_1_OPENING_AT_Z_SLOT) */\n      mload\n        /* \"zkp/Verifier.sol\":56098:56174  mulmod(mload(PROOF_COPY_PERMUTATION_POLYS_1_OPENING_AT_Z_SLOT), beta, R_MOD) */\n      mulmod\n        /* \"zkp/Verifier.sol\":56078:56174  factorMultiplier := mulmod(mload(PROOF_COPY_PERMUTATION_POLYS_1_OPENING_AT_Z_SLOT), beta, R_MOD) */\n      swap1\n      pop\n        /* \"zkp/Verifier.sol\":56251:56256  R_MOD */\n      0x30644e72e131a029b85045b68181585d2833e84879b9709143e1f593f0000001\n        /* \"zkp/Verifier.sol\":56244:56249  gamma */\n      dup4\n        /* \"zkp/Verifier.sol\":56226:56242  factorMultiplier */\n      dup3\n        /* \"zkp/Verifier.sol\":56219:56257  addmod(factorMultiplier, gamma, R_MOD) */\n      addmod\n        /* \"zkp/Verifier.sol\":56199:56257  factorMultiplier := addmod(factorMultiplier, gamma, R_MOD) */\n      swap1\n      pop\n        /* \"zkp/Verifier.sol\":56458:56463  R_MOD */\n      0x30644e72e131a029b85045b68181585d2833e84879b9709143e1f593f0000001\n        /* \"zkp/Verifier.sol\":56390:56427  PROOF_STATE_POLYS_1_OPENING_AT_Z_SLOT */\n      0x0a20\n        /* \"zkp/Verifier.sol\":56384:56428  mload(PROOF_STATE_POLYS_1_OPENING_AT_Z_SLOT) */\n      mload\n        /* \"zkp/Verifier.sol\":56338:56354  factorMultiplier */\n      dup3\n        /* \"zkp/Verifier.sol\":56302:56489  addmod(... */\n      addmod\n        /* \"zkp/Verifier.sol\":56282:56489  factorMultiplier := addmod(... */\n      swap1\n      pop\n        /* \"zkp/Verifier.sol\":56551:56556  R_MOD */\n      0x30644e72e131a029b85045b68181585d2833e84879b9709143e1f593f0000001\n        /* \"zkp/Verifier.sol\":56533:56549  factorMultiplier */\n      dup2\n        /* \"zkp/Verifier.sol\":56528:56531  res */\n      dup6\n        /* \"zkp/Verifier.sol\":56521:56557  mulmod(res, factorMultiplier, R_MOD) */\n      mulmod\n        /* \"zkp/Verifier.sol\":56514:56557  res := mulmod(res, factorMultiplier, R_MOD) */\n      swap4\n      pop\n        /* \"zkp/Verifier.sol\":56783:56788  R_MOD */\n      0x30644e72e131a029b85045b68181585d2833e84879b9709143e1f593f0000001\n        /* \"zkp/Verifier.sol\":56777:56781  beta */\n      dup3\n        /* \"zkp/Verifier.sol\":56726:56774  PROOF_COPY_PERMUTATION_POLYS_2_OPENING_AT_Z_SLOT */\n      0x0b00\n        /* \"zkp/Verifier.sol\":56720:56775  mload(PROOF_COPY_PERMUTATION_POLYS_2_OPENING_AT_Z_SLOT) */\n      mload\n        /* \"zkp/Verifier.sol\":56713:56789  mulmod(mload(PROOF_COPY_PERMUTATION_POLYS_2_OPENING_AT_Z_SLOT), beta, R_MOD) */\n      mulmod\n        /* \"zkp/Verifier.sol\":56693:56789  factorMultiplier := mulmod(mload(PROOF_COPY_PERMUTATION_POLYS_2_OPENING_AT_Z_SLOT), beta, R_MOD) */\n      swap1\n      pop\n        /* \"zkp/Verifier.sol\":56866:56871  R_MOD */\n      0x30644e72e131a029b85045b68181585d2833e84879b9709143e1f593f0000001\n        /* \"zkp/Verifier.sol\":56859:56864  gamma */\n      dup4\n        /* \"zkp/Verifier.sol\":56841:56857  factorMultiplier */\n      dup3\n        /* \"zkp/Verifier.sol\":56834:56872  addmod(factorMultiplier, gamma, R_MOD) */\n      addmod\n        /* \"zkp/Verifier.sol\":56814:56872  factorMultiplier := addmod(factorMultiplier, gamma, R_MOD) */\n      swap1\n      pop\n        /* \"zkp/Verifier.sol\":57073:57078  R_MOD */\n      0x30644e72e131a029b85045b68181585d2833e84879b9709143e1f593f0000001\n        /* \"zkp/Verifier.sol\":57005:57042  PROOF_STATE_POLYS_2_OPENING_AT_Z_SLOT */\n      0x0a40\n        /* \"zkp/Verifier.sol\":56999:57043  mload(PROOF_STATE_POLYS_2_OPENING_AT_Z_SLOT) */\n      mload\n        /* \"zkp/Verifier.sol\":56953:56969  factorMultiplier */\n      dup3\n        /* \"zkp/Verifier.sol\":56917:57104  addmod(... */\n      addmod\n        /* \"zkp/Verifier.sol\":56897:57104  factorMultiplier := addmod(... */\n      swap1\n      pop\n        /* \"zkp/Verifier.sol\":57166:57171  R_MOD */\n      0x30644e72e131a029b85045b68181585d2833e84879b9709143e1f593f0000001\n        /* \"zkp/Verifier.sol\":57148:57164  factorMultiplier */\n      dup2\n        /* \"zkp/Verifier.sol\":57143:57146  res */\n      dup6\n        /* \"zkp/Verifier.sol\":57136:57172  mulmod(res, factorMultiplier, R_MOD) */\n      mulmod\n        /* \"zkp/Verifier.sol\":57129:57172  res := mulmod(res, factorMultiplier, R_MOD) */\n      swap4\n      pop\n        /* \"zkp/Verifier.sol\":57352:57357  R_MOD */\n      0x30644e72e131a029b85045b68181585d2833e84879b9709143e1f593f0000001\n        /* \"zkp/Verifier.sol\":57344:57349  R_MOD */\n      dup1\n        /* \"zkp/Verifier.sol\":57337:57342  gamma */\n      dup5\n        /* \"zkp/Verifier.sol\":57297:57334  PROOF_STATE_POLYS_3_OPENING_AT_Z_SLOT */\n      0x0a60\n        /* \"zkp/Verifier.sol\":57291:57335  mload(PROOF_STATE_POLYS_3_OPENING_AT_Z_SLOT) */\n      mload\n        /* \"zkp/Verifier.sol\":57284:57350  addmod(mload(PROOF_STATE_POLYS_3_OPENING_AT_Z_SLOT), gamma, R_MOD) */\n      addmod\n        /* \"zkp/Verifier.sol\":57279:57282  res */\n      dup6\n        /* \"zkp/Verifier.sol\":57272:57358  mulmod(res, addmod(mload(PROOF_STATE_POLYS_3_OPENING_AT_Z_SLOT), gamma, R_MOD), R_MOD) */\n      mulmod\n        /* \"zkp/Verifier.sol\":57265:57358  res := mulmod(res, addmod(mload(PROOF_STATE_POLYS_3_OPENING_AT_Z_SLOT), gamma, R_MOD), R_MOD) */\n      swap4\n      pop\n        /* \"zkp/Verifier.sol\":55194:57376  {... */\n      pop\n      pop\n      pop\n        /* \"zkp/Verifier.sol\":57442:57445  res */\n      dup1\n        /* \"zkp/Verifier.sol\":57435:57440  R_MOD */\n      0x30644e72e131a029b85045b68181585d2833e84879b9709143e1f593f0000001\n        /* \"zkp/Verifier.sol\":57431:57446  sub(R_MOD, res) */\n      sub\n        /* \"zkp/Verifier.sol\":57424:57446  res := sub(R_MOD, res) */\n      swap1\n      pop\n        /* \"zkp/Verifier.sol\":57522:57541  STATE_L_0_AT_Z_SLOT */\n      0x1020\n        /* \"zkp/Verifier.sol\":57516:57542  mload(STATE_L_0_AT_Z_SLOT) */\n      mload\n        /* \"zkp/Verifier.sol\":57618:57623  R_MOD */\n      0x30644e72e131a029b85045b68181585d2833e84879b9709143e1f593f0000001\n        /* \"zkp/Verifier.sol\":57588:57615  STATE_POWER_OF_ALPHA_5_SLOT */\n      0x0e80\n        /* \"zkp/Verifier.sol\":57582:57616  mload(STATE_POWER_OF_ALPHA_5_SLOT) */\n      mload\n        /* \"zkp/Verifier.sol\":57575:57580  l0AtZ */\n      dup3\n        /* \"zkp/Verifier.sol\":57568:57624  mulmod(l0AtZ, mload(STATE_POWER_OF_ALPHA_5_SLOT), R_MOD) */\n      mulmod\n        /* \"zkp/Verifier.sol\":57559:57624  l0AtZ := mulmod(l0AtZ, mload(STATE_POWER_OF_ALPHA_5_SLOT), R_MOD) */\n      swap1\n      pop\n        /* \"zkp/Verifier.sol\":57679:57684  R_MOD */\n      0x30644e72e131a029b85045b68181585d2833e84879b9709143e1f593f0000001\n        /* \"zkp/Verifier.sol\":57671:57676  l0AtZ */\n      dup2\n        /* \"zkp/Verifier.sol\":57664:57669  R_MOD */\n      0x30644e72e131a029b85045b68181585d2833e84879b9709143e1f593f0000001\n        /* \"zkp/Verifier.sol\":57660:57677  sub(R_MOD, l0AtZ) */\n      sub\n        /* \"zkp/Verifier.sol\":57655:57658  res */\n      dup4\n        /* \"zkp/Verifier.sol\":57648:57685  addmod(res, sub(R_MOD, l0AtZ), R_MOD) */\n      addmod\n        /* \"zkp/Verifier.sol\":57641:57685  res := addmod(res, sub(R_MOD, l0AtZ), R_MOD) */\n      swap2\n      pop\n        /* \"zkp/Verifier.sol\":54904:57699  {... */\n      pop\n        /* \"zkp/Verifier.sol\":54854:57699  function permutationQuotientContribution() -> res {... */\n      swap1\n      jump\t// out\n        /* \"zkp/Verifier.sol\":57809:59997  function lookupQuotientContribution() -> res {... */\n    tag_33:\n        /* \"zkp/Verifier.sol\":57850:57853  res */\n      0x00\n        /* \"zkp/Verifier.sol\":57896:57918  STATE_BETA_LOOKUP_SLOT */\n      0x0f20\n        /* \"zkp/Verifier.sol\":57890:57919  mload(STATE_BETA_LOOKUP_SLOT) */\n      mload\n        /* \"zkp/Verifier.sol\":57961:57984  STATE_GAMMA_LOOKUP_SLOT */\n      0x0f40\n        /* \"zkp/Verifier.sol\":57955:57985  mload(STATE_GAMMA_LOOKUP_SLOT) */\n      mload\n        /* \"zkp/Verifier.sol\":58043:58048  R_MOD */\n      0x30644e72e131a029b85045b68181585d2833e84879b9709143e1f593f0000001\n        /* \"zkp/Verifier.sol\":58040:58041  1 */\n      0x01\n        /* \"zkp/Verifier.sol\":58028:58038  betaLookup */\n      dup4\n        /* \"zkp/Verifier.sol\":58021:58049  addmod(betaLookup, 1, R_MOD) */\n      addmod\n        /* \"zkp/Verifier.sol\":58116:58121  R_MOD */\n      0x30644e72e131a029b85045b68181585d2833e84879b9709143e1f593f0000001\n        /* \"zkp/Verifier.sol\":58103:58114  gammaLookup */\n      dup3\n        /* \"zkp/Verifier.sol\":58090:58101  betaPlusOne */\n      dup3\n        /* \"zkp/Verifier.sol\":58083:58122  mulmod(betaPlusOne, gammaLookup, R_MOD) */\n      mulmod\n        /* \"zkp/Verifier.sol\":58173:58184  betaPlusOne */\n      dup2\n        /* \"zkp/Verifier.sol\":58147:58171  STATE_BETA_PLUS_ONE_SLOT */\n      0x0f60\n        /* \"zkp/Verifier.sol\":58140:58185  mstore(STATE_BETA_PLUS_ONE_SLOT, betaPlusOne) */\n      mstore\n        /* \"zkp/Verifier.sol\":58243:58252  betaGamma */\n      dup1\n        /* \"zkp/Verifier.sol\":58209:58241  STATE_BETA_GAMMA_PLUS_GAMMA_SLOT */\n      0x0f80\n        /* \"zkp/Verifier.sol\":58202:58253  mstore(STATE_BETA_GAMMA_PLUS_GAMMA_SLOT, betaGamma) */\n      mstore\n        /* \"zkp/Verifier.sol\":58447:58452  R_MOD */\n      0x30644e72e131a029b85045b68181585d2833e84879b9709143e1f593f0000001\n        /* \"zkp/Verifier.sol\":58435:58445  betaLookup */\n      dup5\n        /* \"zkp/Verifier.sol\":58389:58432  PROOF_LOOKUP_S_POLY_OPENING_AT_Z_OMEGA_SLOT */\n      0x0b40\n        /* \"zkp/Verifier.sol\":58383:58433  mload(PROOF_LOOKUP_S_POLY_OPENING_AT_Z_OMEGA_SLOT) */\n      mload\n        /* \"zkp/Verifier.sol\":58376:58453  mulmod(mload(PROOF_LOOKUP_S_POLY_OPENING_AT_Z_OMEGA_SLOT), betaLookup, R_MOD) */\n      mulmod\n        /* \"zkp/Verifier.sol\":58369:58453  res := mulmod(mload(PROOF_LOOKUP_S_POLY_OPENING_AT_Z_OMEGA_SLOT), betaLookup, R_MOD) */\n      swap5\n      pop\n        /* \"zkp/Verifier.sol\":58500:58505  R_MOD */\n      0x30644e72e131a029b85045b68181585d2833e84879b9709143e1f593f0000001\n        /* \"zkp/Verifier.sol\":58489:58498  betaGamma */\n      dup2\n        /* \"zkp/Verifier.sol\":58484:58487  res */\n      dup7\n        /* \"zkp/Verifier.sol\":58477:58506  addmod(res, betaGamma, R_MOD) */\n      addmod\n        /* \"zkp/Verifier.sol\":58470:58506  res := addmod(res, betaGamma, R_MOD) */\n      swap5\n      pop\n        /* \"zkp/Verifier.sol\":58601:58606  R_MOD */\n      0x30644e72e131a029b85045b68181585d2833e84879b9709143e1f593f0000001\n        /* \"zkp/Verifier.sol\":58548:58598  PROOF_LOOKUP_GRAND_PRODUCT_OPENING_AT_Z_OMEGA_SLOT */\n      0x0b60\n        /* \"zkp/Verifier.sol\":58542:58599  mload(PROOF_LOOKUP_GRAND_PRODUCT_OPENING_AT_Z_OMEGA_SLOT) */\n      mload\n        /* \"zkp/Verifier.sol\":58537:58540  res */\n      dup7\n        /* \"zkp/Verifier.sol\":58530:58607  mulmod(res, mload(PROOF_LOOKUP_GRAND_PRODUCT_OPENING_AT_Z_OMEGA_SLOT), R_MOD) */\n      mulmod\n        /* \"zkp/Verifier.sol\":58523:58607  res := mulmod(res, mload(PROOF_LOOKUP_GRAND_PRODUCT_OPENING_AT_Z_OMEGA_SLOT), R_MOD) */\n      swap5\n      pop\n        /* \"zkp/Verifier.sol\":58679:58684  R_MOD */\n      0x30644e72e131a029b85045b68181585d2833e84879b9709143e1f593f0000001\n        /* \"zkp/Verifier.sol\":58649:58676  STATE_POWER_OF_ALPHA_6_SLOT */\n      0x0ea0\n        /* \"zkp/Verifier.sol\":58643:58677  mload(STATE_POWER_OF_ALPHA_6_SLOT) */\n      mload\n        /* \"zkp/Verifier.sol\":58638:58641  res */\n      dup7\n        /* \"zkp/Verifier.sol\":58631:58685  mulmod(res, mload(STATE_POWER_OF_ALPHA_6_SLOT), R_MOD) */\n      mulmod\n        /* \"zkp/Verifier.sol\":58624:58685  res := mulmod(res, mload(STATE_POWER_OF_ALPHA_6_SLOT), R_MOD) */\n      swap5\n      pop\n        /* \"zkp/Verifier.sol\":58784:58818  modexp(OMEGA, sub(DOMAIN_SIZE, 1)) */\n      tag_145\n        /* \"zkp/Verifier.sol\":58815:58816  1 */\n      0x01\n        /* \"zkp/Verifier.sol\":58802:58813  DOMAIN_SIZE */\n      0x04000000\n        /* \"zkp/Verifier.sol\":58798:58817  sub(DOMAIN_SIZE, 1) */\n      sub\n        /* \"zkp/Verifier.sol\":58791:58796  OMEGA */\n      0x1dba8b5bdd64ef6ce29a9039aca3c0e524395c43b9227b96c75090cc6cc7ec97\n        /* \"zkp/Verifier.sol\":58784:58818  modexp(OMEGA, sub(DOMAIN_SIZE, 1)) */\n      tag_19\n      jump\t// in\n    tag_145:\n        /* \"zkp/Verifier.sol\":58913:58918  R_MOD */\n      0x30644e72e131a029b85045b68181585d2833e84879b9709143e1f593f0000001\n        /* \"zkp/Verifier.sol\":58901:58910  lastOmega */\n      dup2\n        /* \"zkp/Verifier.sol\":58894:58899  R_MOD */\n      0x30644e72e131a029b85045b68181585d2833e84879b9709143e1f593f0000001\n        /* \"zkp/Verifier.sol\":58890:58911  sub(R_MOD, lastOmega) */\n      sub\n        /* \"zkp/Verifier.sol\":58875:58887  STATE_Z_SLOT */\n      0x0fe0\n        /* \"zkp/Verifier.sol\":58869:58888  mload(STATE_Z_SLOT) */\n      mload\n        /* \"zkp/Verifier.sol\":58862:58919  addmod(mload(STATE_Z_SLOT), sub(R_MOD, lastOmega), R_MOD) */\n      addmod\n        /* \"zkp/Verifier.sol\":58978:58993  zMinusLastOmega */\n      dup1\n        /* \"zkp/Verifier.sol\":58947:58976  STATE_Z_MINUS_LAST_OMEGA_SLOT */\n      0x1000\n        /* \"zkp/Verifier.sol\":58940:58994  mstore(STATE_Z_MINUS_LAST_OMEGA_SLOT, zMinusLastOmega) */\n      mstore\n        /* \"zkp/Verifier.sol\":59051:59056  R_MOD */\n      0x30644e72e131a029b85045b68181585d2833e84879b9709143e1f593f0000001\n        /* \"zkp/Verifier.sol\":59034:59049  zMinusLastOmega */\n      dup2\n        /* \"zkp/Verifier.sol\":59029:59032  res */\n      dup9\n        /* \"zkp/Verifier.sol\":59022:59057  mulmod(res, zMinusLastOmega, R_MOD) */\n      mulmod\n        /* \"zkp/Verifier.sol\":59015:59057  res := mulmod(res, zMinusLastOmega, R_MOD) */\n      swap7\n      pop\n        /* \"zkp/Verifier.sol\":58745:59075  {... */\n      pop\n      pop\n        /* \"zkp/Verifier.sol\":59329:59334  R_MOD */\n      0x30644e72e131a029b85045b68181585d2833e84879b9709143e1f593f0000001\n        /* \"zkp/Verifier.sol\":59275:59302  STATE_POWER_OF_ALPHA_7_SLOT */\n      0x0ec0\n        /* \"zkp/Verifier.sol\":59269:59303  mload(STATE_POWER_OF_ALPHA_7_SLOT) */\n      mload\n        /* \"zkp/Verifier.sol\":59223:59242  STATE_L_0_AT_Z_SLOT */\n      0x1020\n        /* \"zkp/Verifier.sol\":59217:59243  mload(STATE_L_0_AT_Z_SLOT) */\n      mload\n        /* \"zkp/Verifier.sol\":59185:59356  mulmod(... */\n      mulmod\n        /* \"zkp/Verifier.sol\":59427:59432  R_MOD */\n      0x30644e72e131a029b85045b68181585d2833e84879b9709143e1f593f0000001\n        /* \"zkp/Verifier.sol\":59407:59424  intermediateValue */\n      dup2\n        /* \"zkp/Verifier.sol\":59400:59405  R_MOD */\n      0x30644e72e131a029b85045b68181585d2833e84879b9709143e1f593f0000001\n        /* \"zkp/Verifier.sol\":59396:59425  sub(R_MOD, intermediateValue) */\n      sub\n        /* \"zkp/Verifier.sol\":59391:59394  res */\n      dup8\n        /* \"zkp/Verifier.sol\":59384:59433  addmod(res, sub(R_MOD, intermediateValue), R_MOD) */\n      addmod\n        /* \"zkp/Verifier.sol\":59377:59433  res := addmod(res, sub(R_MOD, intermediateValue), R_MOD) */\n      swap6\n      pop\n        /* \"zkp/Verifier.sol\":59138:59451  {... */\n      pop\n        /* \"zkp/Verifier.sol\":59594:59623  STATE_L_N_MINUS_ONE_AT_Z_SLOT */\n      0x1040\n        /* \"zkp/Verifier.sol\":59588:59624  mload(STATE_L_N_MINUS_ONE_AT_Z_SLOT) */\n      mload\n        /* \"zkp/Verifier.sol\":59669:59707  modexp(betaGamma, sub(DOMAIN_SIZE, 1)) */\n      tag_146\n        /* \"zkp/Verifier.sol\":59704:59705  1 */\n      0x01\n        /* \"zkp/Verifier.sol\":59691:59702  DOMAIN_SIZE */\n      0x04000000\n        /* \"zkp/Verifier.sol\":59687:59706  sub(DOMAIN_SIZE, 1) */\n      sub\n        /* \"zkp/Verifier.sol\":59676:59685  betaGamma */\n      dup4\n        /* \"zkp/Verifier.sol\":59669:59707  modexp(betaGamma, sub(DOMAIN_SIZE, 1)) */\n      tag_19\n      jump\t// in\n    tag_146:\n        /* \"zkp/Verifier.sol\":59753:59780  STATE_POWER_OF_ALPHA_8_SLOT */\n      0x0ee0\n        /* \"zkp/Verifier.sol\":59747:59781  mload(STATE_POWER_OF_ALPHA_8_SLOT) */\n      mload\n        /* \"zkp/Verifier.sol\":59889:59894  R_MOD */\n      0x30644e72e131a029b85045b68181585d2833e84879b9709143e1f593f0000001\n        /* \"zkp/Verifier.sol\":59876:59887  alphaPower8 */\n      dup2\n        /* \"zkp/Verifier.sol\":59868:59873  R_MOD */\n      0x30644e72e131a029b85045b68181585d2833e84879b9709143e1f593f0000001\n        /* \"zkp/Verifier.sol\":59850:59866  betaGammaPowered */\n      dup5\n        /* \"zkp/Verifier.sol\":59835:59848  lnMinusOneAtZ */\n      dup7\n        /* \"zkp/Verifier.sol\":59828:59874  mulmod(lnMinusOneAtZ, betaGammaPowered, R_MOD) */\n      mulmod\n        /* \"zkp/Verifier.sol\":59821:59895  mulmod(mulmod(lnMinusOneAtZ, betaGammaPowered, R_MOD), alphaPower8, R_MOD) */\n      mulmod\n        /* \"zkp/Verifier.sol\":59959:59964  R_MOD */\n      0x30644e72e131a029b85045b68181585d2833e84879b9709143e1f593f0000001\n        /* \"zkp/Verifier.sol\":59946:59956  subtrahend */\n      dup2\n        /* \"zkp/Verifier.sol\":59939:59944  R_MOD */\n      0x30644e72e131a029b85045b68181585d2833e84879b9709143e1f593f0000001\n        /* \"zkp/Verifier.sol\":59935:59957  sub(R_MOD, subtrahend) */\n      sub\n        /* \"zkp/Verifier.sol\":59930:59933  res */\n      dup11\n        /* \"zkp/Verifier.sol\":59923:59965  addmod(res, sub(R_MOD, subtrahend), R_MOD) */\n      addmod\n        /* \"zkp/Verifier.sol\":59916:59965  res := addmod(res, sub(R_MOD, subtrahend), R_MOD) */\n      swap9\n      pop\n        /* \"zkp/Verifier.sol\":59545:59983  {... */\n      pop\n      pop\n      pop\n      pop\n        /* \"zkp/Verifier.sol\":57854:59997  {... */\n      pop\n      pop\n      pop\n      pop\n        /* \"zkp/Verifier.sol\":57809:59997  function lookupQuotientContribution() -> res {... */\n      swap1\n      jump\t// out\n        /* \"zkp/Verifier.sol\":60121:61640  function mainGateLinearisationContributionWithV(... */\n    tag_34:\n        /* \"zkp/Verifier.sol\":60394:60458  pointMulIntoDest(VK_GATE_SETUP_0_X_SLOT, stateOpening0AtZ, dest) */\n      tag_148\n        /* \"zkp/Verifier.sol\":60453:60457  dest */\n      dup2\n        /* \"zkp/Verifier.sol\":60435:60451  stateOpening0AtZ */\n      dup4\n        /* \"zkp/Verifier.sol\":60411:60433  VK_GATE_SETUP_0_X_SLOT */\n      0x0200\n        /* \"zkp/Verifier.sol\":60394:60458  pointMulIntoDest(VK_GATE_SETUP_0_X_SLOT, stateOpening0AtZ, dest) */\n      tag_20\n      jump\t// in\n    tag_148:\n        /* \"zkp/Verifier.sol\":60510:60580  pointMulAndAddIntoDest(VK_GATE_SETUP_1_X_SLOT, stateOpening1AtZ, dest) */\n      tag_149\n        /* \"zkp/Verifier.sol\":60575:60579  dest */\n      dup2\n        /* \"zkp/Verifier.sol\":60557:60573  stateOpening1AtZ */\n      dup5\n        /* \"zkp/Verifier.sol\":60533:60555  VK_GATE_SETUP_1_X_SLOT */\n      0x0240\n        /* \"zkp/Verifier.sol\":60510:60580  pointMulAndAddIntoDest(VK_GATE_SETUP_1_X_SLOT, stateOpening1AtZ, dest) */\n      tag_24\n      jump\t// in\n    tag_149:\n        /* \"zkp/Verifier.sol\":60632:60702  pointMulAndAddIntoDest(VK_GATE_SETUP_2_X_SLOT, stateOpening2AtZ, dest) */\n      tag_150\n        /* \"zkp/Verifier.sol\":60697:60701  dest */\n      dup2\n        /* \"zkp/Verifier.sol\":60679:60695  stateOpening2AtZ */\n      dup6\n        /* \"zkp/Verifier.sol\":60655:60677  VK_GATE_SETUP_2_X_SLOT */\n      0x0280\n        /* \"zkp/Verifier.sol\":60632:60702  pointMulAndAddIntoDest(VK_GATE_SETUP_2_X_SLOT, stateOpening2AtZ, dest) */\n      tag_24\n      jump\t// in\n    tag_150:\n        /* \"zkp/Verifier.sol\":60754:60824  pointMulAndAddIntoDest(VK_GATE_SETUP_3_X_SLOT, stateOpening3AtZ, dest) */\n      tag_151\n        /* \"zkp/Verifier.sol\":60819:60823  dest */\n      dup2\n        /* \"zkp/Verifier.sol\":60801:60817  stateOpening3AtZ */\n      dup7\n        /* \"zkp/Verifier.sol\":60777:60799  VK_GATE_SETUP_3_X_SLOT */\n      0x02c0\n        /* \"zkp/Verifier.sol\":60754:60824  pointMulAndAddIntoDest(VK_GATE_SETUP_3_X_SLOT, stateOpening3AtZ, dest) */\n      tag_24\n      jump\t// in\n    tag_151:\n        /* \"zkp/Verifier.sol\":60884:60987  pointMulAndAddIntoDest(VK_GATE_SETUP_4_X_SLOT, mulmod(stateOpening0AtZ, stateOpening1AtZ, R_MOD), dest) */\n      tag_152\n        /* \"zkp/Verifier.sol\":60982:60986  dest */\n      dup2\n        /* \"zkp/Verifier.sol\":60974:60979  R_MOD */\n      0x30644e72e131a029b85045b68181585d2833e84879b9709143e1f593f0000001\n        /* \"zkp/Verifier.sol\":60956:60972  stateOpening1AtZ */\n      dup6\n        /* \"zkp/Verifier.sol\":60938:60954  stateOpening0AtZ */\n      dup6\n        /* \"zkp/Verifier.sol\":60931:60980  mulmod(stateOpening0AtZ, stateOpening1AtZ, R_MOD) */\n      mulmod\n        /* \"zkp/Verifier.sol\":60907:60929  VK_GATE_SETUP_4_X_SLOT */\n      0x0300\n        /* \"zkp/Verifier.sol\":60884:60987  pointMulAndAddIntoDest(VK_GATE_SETUP_4_X_SLOT, mulmod(stateOpening0AtZ, stateOpening1AtZ, R_MOD), dest) */\n      tag_24\n      jump\t// in\n    tag_152:\n        /* \"zkp/Verifier.sol\":61047:61150  pointMulAndAddIntoDest(VK_GATE_SETUP_5_X_SLOT, mulmod(stateOpening0AtZ, stateOpening2AtZ, R_MOD), dest) */\n      tag_153\n        /* \"zkp/Verifier.sol\":61145:61149  dest */\n      dup2\n        /* \"zkp/Verifier.sol\":61137:61142  R_MOD */\n      0x30644e72e131a029b85045b68181585d2833e84879b9709143e1f593f0000001\n        /* \"zkp/Verifier.sol\":61119:61135  stateOpening2AtZ */\n      dup7\n        /* \"zkp/Verifier.sol\":61101:61117  stateOpening0AtZ */\n      dup6\n        /* \"zkp/Verifier.sol\":61094:61143  mulmod(stateOpening0AtZ, stateOpening2AtZ, R_MOD) */\n      mulmod\n        /* \"zkp/Verifier.sol\":61070:61092  VK_GATE_SETUP_5_X_SLOT */\n      0x0340\n        /* \"zkp/Verifier.sol\":61047:61150  pointMulAndAddIntoDest(VK_GATE_SETUP_5_X_SLOT, mulmod(stateOpening0AtZ, stateOpening2AtZ, R_MOD), dest) */\n      tag_24\n      jump\t// in\n    tag_153:\n        /* \"zkp/Verifier.sol\":61199:61243  pointAddAssign(dest, VK_GATE_SETUP_6_X_SLOT) */\n      tag_154\n        /* \"zkp/Verifier.sol\":61220:61242  VK_GATE_SETUP_6_X_SLOT */\n      0x0380\n        /* \"zkp/Verifier.sol\":61214:61218  dest */\n      dup3\n        /* \"zkp/Verifier.sol\":61199:61243  pointAddAssign(dest, VK_GATE_SETUP_6_X_SLOT) */\n      tag_23\n      jump\t// in\n    tag_154:\n        /* \"zkp/Verifier.sol\":61308:61412  pointMulAndAddIntoDest(VK_GATE_SETUP_7_X_SLOT, mload(PROOF_STATE_POLYS_3_OPENING_AT_Z_OMEGA_SLOT), dest) */\n      tag_155\n        /* \"zkp/Verifier.sol\":61407:61411  dest */\n      dup2\n        /* \"zkp/Verifier.sol\":61361:61404  PROOF_STATE_POLYS_3_OPENING_AT_Z_OMEGA_SLOT */\n      0x0a80\n        /* \"zkp/Verifier.sol\":61355:61405  mload(PROOF_STATE_POLYS_3_OPENING_AT_Z_OMEGA_SLOT) */\n      mload\n        /* \"zkp/Verifier.sol\":61331:61353  VK_GATE_SETUP_7_X_SLOT */\n      0x03c0\n        /* \"zkp/Verifier.sol\":61308:61412  pointMulAndAddIntoDest(VK_GATE_SETUP_7_X_SLOT, mload(PROOF_STATE_POLYS_3_OPENING_AT_Z_OMEGA_SLOT), dest) */\n      tag_24\n      jump\t// in\n    tag_155:\n        /* \"zkp/Verifier.sol\":61568:61573  R_MOD */\n      0x30644e72e131a029b85045b68181585d2833e84879b9709143e1f593f0000001\n        /* \"zkp/Verifier.sol\":61553:61565  STATE_V_SLOT */\n      0x0fa0\n        /* \"zkp/Verifier.sol\":61547:61566  mload(STATE_V_SLOT) */\n      mload\n        /* \"zkp/Verifier.sol\":61504:61544  PROOF_GATE_SELECTORS_0_OPENING_AT_Z_SLOT */\n      0x0aa0\n        /* \"zkp/Verifier.sol\":61498:61545  mload(PROOF_GATE_SELECTORS_0_OPENING_AT_Z_SLOT) */\n      mload\n        /* \"zkp/Verifier.sol\":61491:61574  mulmod(mload(PROOF_GATE_SELECTORS_0_OPENING_AT_Z_SLOT), mload(STATE_V_SLOT), R_MOD) */\n      mulmod\n        /* \"zkp/Verifier.sol\":61591:61626  pointMulIntoDest(dest, coeff, dest) */\n      tag_156\n        /* \"zkp/Verifier.sol\":61621:61625  dest */\n      dup3\n        /* \"zkp/Verifier.sol\":61614:61619  coeff */\n      dup3\n        /* \"zkp/Verifier.sol\":61608:61612  dest */\n      dup5\n        /* \"zkp/Verifier.sol\":61591:61626  pointMulIntoDest(dest, coeff, dest) */\n      tag_20\n      jump\t// in\n    tag_156:\n        /* \"zkp/Verifier.sol\":60341:61640  {... */\n      pop\n        /* \"zkp/Verifier.sol\":60121:61640  function mainGateLinearisationContributionWithV(... */\n      pop\n      pop\n      pop\n      pop\n      pop\n      jump\t// out\n        /* \"zkp/Verifier.sol\":61766:63442  function addAssignRescueCustomGateLinearisationContributionWithV(... */\n    tag_35:\n        /* \"zkp/Verifier.sol\":62021:62036  let accumulator */\n      0x00\n        /* \"zkp/Verifier.sol\":62053:62074  let intermediateValue */\n      dup1\n        /* \"zkp/Verifier.sol\":62195:62200  R_MOD */\n      0x30644e72e131a029b85045b68181585d2833e84879b9709143e1f593f0000001\n        /* \"zkp/Verifier.sol\":62177:62193  stateOpening0AtZ */\n      dup5\n        /* \"zkp/Verifier.sol\":62159:62175  stateOpening0AtZ */\n      dup6\n        /* \"zkp/Verifier.sol\":62152:62201  mulmod(stateOpening0AtZ, stateOpening0AtZ, R_MOD) */\n      mulmod\n        /* \"zkp/Verifier.sol\":62137:62201  accumulator := mulmod(stateOpening0AtZ, stateOpening0AtZ, R_MOD) */\n      swap2\n      pop\n        /* \"zkp/Verifier.sol\":62283:62288  R_MOD */\n      0x30644e72e131a029b85045b68181585d2833e84879b9709143e1f593f0000001\n        /* \"zkp/Verifier.sol\":62264:62280  stateOpening1AtZ */\n      dup6\n        /* \"zkp/Verifier.sol\":62257:62262  R_MOD */\n      0x30644e72e131a029b85045b68181585d2833e84879b9709143e1f593f0000001\n        /* \"zkp/Verifier.sol\":62253:62281  sub(R_MOD, stateOpening1AtZ) */\n      sub\n        /* \"zkp/Verifier.sol\":62240:62251  accumulator */\n      dup4\n        /* \"zkp/Verifier.sol\":62233:62289  addmod(accumulator, sub(R_MOD, stateOpening1AtZ), R_MOD) */\n      addmod\n        /* \"zkp/Verifier.sol\":62218:62289  accumulator := addmod(accumulator, sub(R_MOD, stateOpening1AtZ), R_MOD) */\n      swap2\n      pop\n        /* \"zkp/Verifier.sol\":62366:62371  R_MOD */\n      0x30644e72e131a029b85045b68181585d2833e84879b9709143e1f593f0000001\n        /* \"zkp/Verifier.sol\":62347:62363  STATE_ALPHA_SLOT */\n      0x0dc0\n        /* \"zkp/Verifier.sol\":62341:62364  mload(STATE_ALPHA_SLOT) */\n      mload\n        /* \"zkp/Verifier.sol\":62328:62339  accumulator */\n      dup4\n        /* \"zkp/Verifier.sol\":62321:62372  mulmod(accumulator, mload(STATE_ALPHA_SLOT), R_MOD) */\n      mulmod\n        /* \"zkp/Verifier.sol\":62306:62372  accumulator := mulmod(accumulator, mload(STATE_ALPHA_SLOT), R_MOD) */\n      swap2\n      pop\n        /* \"zkp/Verifier.sol\":62501:62506  R_MOD */\n      0x30644e72e131a029b85045b68181585d2833e84879b9709143e1f593f0000001\n        /* \"zkp/Verifier.sol\":62483:62499  stateOpening1AtZ */\n      dup6\n        /* \"zkp/Verifier.sol\":62465:62481  stateOpening1AtZ */\n      dup7\n        /* \"zkp/Verifier.sol\":62458:62507  mulmod(stateOpening1AtZ, stateOpening1AtZ, R_MOD) */\n      mulmod\n        /* \"zkp/Verifier.sol\":62437:62507  intermediateValue := mulmod(stateOpening1AtZ, stateOpening1AtZ, R_MOD) */\n      swap1\n      pop\n        /* \"zkp/Verifier.sol\":62601:62606  R_MOD */\n      0x30644e72e131a029b85045b68181585d2833e84879b9709143e1f593f0000001\n        /* \"zkp/Verifier.sol\":62582:62598  stateOpening2AtZ */\n      dup7\n        /* \"zkp/Verifier.sol\":62575:62580  R_MOD */\n      0x30644e72e131a029b85045b68181585d2833e84879b9709143e1f593f0000001\n        /* \"zkp/Verifier.sol\":62571:62599  sub(R_MOD, stateOpening2AtZ) */\n      sub\n        /* \"zkp/Verifier.sol\":62552:62569  intermediateValue */\n      dup3\n        /* \"zkp/Verifier.sol\":62545:62607  addmod(intermediateValue, sub(R_MOD, stateOpening2AtZ), R_MOD) */\n      addmod\n        /* \"zkp/Verifier.sol\":62524:62607  intermediateValue := addmod(intermediateValue, sub(R_MOD, stateOpening2AtZ), R_MOD) */\n      swap1\n      pop\n        /* \"zkp/Verifier.sol\":62707:62712  R_MOD */\n      0x30644e72e131a029b85045b68181585d2833e84879b9709143e1f593f0000001\n        /* \"zkp/Verifier.sol\":62677:62704  STATE_POWER_OF_ALPHA_2_SLOT */\n      0x0e20\n        /* \"zkp/Verifier.sol\":62671:62705  mload(STATE_POWER_OF_ALPHA_2_SLOT) */\n      mload\n        /* \"zkp/Verifier.sol\":62652:62669  intermediateValue */\n      dup3\n        /* \"zkp/Verifier.sol\":62645:62713  mulmod(intermediateValue, mload(STATE_POWER_OF_ALPHA_2_SLOT), R_MOD) */\n      mulmod\n        /* \"zkp/Verifier.sol\":62624:62713  intermediateValue := mulmod(intermediateValue, mload(STATE_POWER_OF_ALPHA_2_SLOT), R_MOD) */\n      swap1\n      pop\n        /* \"zkp/Verifier.sol\":62784:62789  R_MOD */\n      0x30644e72e131a029b85045b68181585d2833e84879b9709143e1f593f0000001\n        /* \"zkp/Verifier.sol\":62765:62782  intermediateValue */\n      dup2\n        /* \"zkp/Verifier.sol\":62752:62763  accumulator */\n      dup4\n        /* \"zkp/Verifier.sol\":62745:62790  addmod(accumulator, intermediateValue, R_MOD) */\n      addmod\n        /* \"zkp/Verifier.sol\":62730:62790  accumulator := addmod(accumulator, intermediateValue, R_MOD) */\n      swap2\n      pop\n        /* \"zkp/Verifier.sol\":62924:62929  R_MOD */\n      0x30644e72e131a029b85045b68181585d2833e84879b9709143e1f593f0000001\n        /* \"zkp/Verifier.sol\":62906:62922  stateOpening0AtZ */\n      dup5\n        /* \"zkp/Verifier.sol\":62888:62904  stateOpening2AtZ */\n      dup8\n        /* \"zkp/Verifier.sol\":62881:62930  mulmod(stateOpening2AtZ, stateOpening0AtZ, R_MOD) */\n      mulmod\n        /* \"zkp/Verifier.sol\":62860:62930  intermediateValue := mulmod(stateOpening2AtZ, stateOpening0AtZ, R_MOD) */\n      swap1\n      pop\n        /* \"zkp/Verifier.sol\":63024:63029  R_MOD */\n      0x30644e72e131a029b85045b68181585d2833e84879b9709143e1f593f0000001\n        /* \"zkp/Verifier.sol\":63005:63021  stateOpening3AtZ */\n      dup8\n        /* \"zkp/Verifier.sol\":62998:63003  R_MOD */\n      0x30644e72e131a029b85045b68181585d2833e84879b9709143e1f593f0000001\n        /* \"zkp/Verifier.sol\":62994:63022  sub(R_MOD, stateOpening3AtZ) */\n      sub\n        /* \"zkp/Verifier.sol\":62975:62992  intermediateValue */\n      dup3\n        /* \"zkp/Verifier.sol\":62968:63030  addmod(intermediateValue, sub(R_MOD, stateOpening3AtZ), R_MOD) */\n      addmod\n        /* \"zkp/Verifier.sol\":62947:63030  intermediateValue := addmod(intermediateValue, sub(R_MOD, stateOpening3AtZ), R_MOD) */\n      swap1\n      pop\n        /* \"zkp/Verifier.sol\":63130:63135  R_MOD */\n      0x30644e72e131a029b85045b68181585d2833e84879b9709143e1f593f0000001\n        /* \"zkp/Verifier.sol\":63100:63127  STATE_POWER_OF_ALPHA_3_SLOT */\n      0x0e40\n        /* \"zkp/Verifier.sol\":63094:63128  mload(STATE_POWER_OF_ALPHA_3_SLOT) */\n      mload\n        /* \"zkp/Verifier.sol\":63075:63092  intermediateValue */\n      dup3\n        /* \"zkp/Verifier.sol\":63068:63136  mulmod(intermediateValue, mload(STATE_POWER_OF_ALPHA_3_SLOT), R_MOD) */\n      mulmod\n        /* \"zkp/Verifier.sol\":63047:63136  intermediateValue := mulmod(intermediateValue, mload(STATE_POWER_OF_ALPHA_3_SLOT), R_MOD) */\n      swap1\n      pop\n        /* \"zkp/Verifier.sol\":63207:63212  R_MOD */\n      0x30644e72e131a029b85045b68181585d2833e84879b9709143e1f593f0000001\n        /* \"zkp/Verifier.sol\":63188:63205  intermediateValue */\n      dup2\n        /* \"zkp/Verifier.sol\":63175:63186  accumulator */\n      dup4\n        /* \"zkp/Verifier.sol\":63168:63213  addmod(accumulator, intermediateValue, R_MOD) */\n      addmod\n        /* \"zkp/Verifier.sol\":63153:63213  accumulator := addmod(accumulator, intermediateValue, R_MOD) */\n      swap2\n      pop\n        /* \"zkp/Verifier.sol\":63336:63341  R_MOD */\n      0x30644e72e131a029b85045b68181585d2833e84879b9709143e1f593f0000001\n        /* \"zkp/Verifier.sol\":63321:63333  STATE_V_SLOT */\n      0x0fa0\n        /* \"zkp/Verifier.sol\":63315:63334  mload(STATE_V_SLOT) */\n      mload\n        /* \"zkp/Verifier.sol\":63302:63313  accumulator */\n      dup4\n        /* \"zkp/Verifier.sol\":63295:63342  mulmod(accumulator, mload(STATE_V_SLOT), R_MOD) */\n      mulmod\n        /* \"zkp/Verifier.sol\":63280:63342  accumulator := mulmod(accumulator, mload(STATE_V_SLOT), R_MOD) */\n      swap2\n      pop\n        /* \"zkp/Verifier.sol\":63359:63428  pointMulAndAddIntoDest(VK_GATE_SELECTORS_1_X_SLOT, accumulator, dest) */\n      tag_158\n        /* \"zkp/Verifier.sol\":63423:63427  dest */\n      dup4\n        /* \"zkp/Verifier.sol\":63410:63421  accumulator */\n      dup4\n        /* \"zkp/Verifier.sol\":63382:63408  VK_GATE_SELECTORS_1_X_SLOT */\n      0x0440\n        /* \"zkp/Verifier.sol\":63359:63428  pointMulAndAddIntoDest(VK_GATE_SELECTORS_1_X_SLOT, accumulator, dest) */\n      tag_24\n      jump\t// in\n    tag_158:\n        /* \"zkp/Verifier.sol\":62003:63442  {... */\n      pop\n      pop\n        /* \"zkp/Verifier.sol\":61766:63442  function addAssignRescueCustomGateLinearisationContributionWithV(... */\n      pop\n      pop\n      pop\n      pop\n      pop\n      jump\t// out\n        /* \"zkp/Verifier.sol\":63573:68269  function addAssignPermutationLinearisationContributionWithV(... */\n    tag_36:\n        /* \"zkp/Verifier.sol\":63870:63897  STATE_POWER_OF_ALPHA_4_SLOT */\n      0x0e60\n        /* \"zkp/Verifier.sol\":63864:63898  mload(STATE_POWER_OF_ALPHA_4_SLOT) */\n      mload\n        /* \"zkp/Verifier.sol\":64097:64102  R_MOD */\n      0x30644e72e131a029b85045b68181585d2833e84879b9709143e1f593f0000001\n        /* \"zkp/Verifier.sol\":64079:64094  STATE_BETA_SLOT */\n      0x0de0\n        /* \"zkp/Verifier.sol\":64073:64095  mload(STATE_BETA_SLOT) */\n      mload\n        /* \"zkp/Verifier.sol\":64058:64070  STATE_Z_SLOT */\n      0x0fe0\n        /* \"zkp/Verifier.sol\":64052:64071  mload(STATE_Z_SLOT) */\n      mload\n        /* \"zkp/Verifier.sol\":64045:64103  mulmod(mload(STATE_Z_SLOT), mload(STATE_BETA_SLOT), R_MOD) */\n      mulmod\n        /* \"zkp/Verifier.sol\":64143:64159  STATE_GAMMA_SLOT */\n      0x0e00\n        /* \"zkp/Verifier.sol\":64137:64160  mload(STATE_GAMMA_SLOT) */\n      mload\n        /* \"zkp/Verifier.sol\":64264:64269  R_MOD */\n      0x30644e72e131a029b85045b68181585d2833e84879b9709143e1f593f0000001\n        /* \"zkp/Verifier.sol\":64246:64262  stateOpening0AtZ */\n      dup6\n        /* \"zkp/Verifier.sol\":64238:64243  R_MOD */\n      0x30644e72e131a029b85045b68181585d2833e84879b9709143e1f593f0000001\n        /* \"zkp/Verifier.sol\":64231:64236  gamma */\n      dup4\n        /* \"zkp/Verifier.sol\":64221:64229  zMulBeta */\n      dup6\n        /* \"zkp/Verifier.sol\":64214:64244  addmod(zMulBeta, gamma, R_MOD) */\n      addmod\n        /* \"zkp/Verifier.sol\":64207:64270  addmod(addmod(zMulBeta, gamma, R_MOD), stateOpening0AtZ, R_MOD) */\n      addmod\n        /* \"zkp/Verifier.sol\":64335:64340  R_MOD */\n      0x30644e72e131a029b85045b68181585d2833e84879b9709143e1f593f0000001\n        /* \"zkp/Verifier.sol\":64316:64333  intermediateValue */\n      dup2\n        /* \"zkp/Verifier.sol\":64308:64314  factor */\n      dup6\n        /* \"zkp/Verifier.sol\":64301:64341  mulmod(factor, intermediateValue, R_MOD) */\n      mulmod\n        /* \"zkp/Verifier.sol\":64291:64341  factor := mulmod(factor, intermediateValue, R_MOD) */\n      swap4\n      pop\n        /* \"zkp/Verifier.sol\":64599:64604  R_MOD */\n      0x30644e72e131a029b85045b68181585d2833e84879b9709143e1f593f0000001\n        /* \"zkp/Verifier.sol\":64557:64573  stateOpening1AtZ */\n      dup8\n        /* \"zkp/Verifier.sol\":64525:64530  R_MOD */\n      0x30644e72e131a029b85045b68181585d2833e84879b9709143e1f593f0000001\n        /* \"zkp/Verifier.sol\":64518:64523  gamma */\n      dup5\n        /* \"zkp/Verifier.sol\":64510:64515  R_MOD */\n      0x30644e72e131a029b85045b68181585d2833e84879b9709143e1f593f0000001\n        /* \"zkp/Verifier.sol\":64494:64508  NON_RESIDUES_0 */\n      0x05\n        /* \"zkp/Verifier.sol\":64484:64492  zMulBeta */\n      dup9\n        /* \"zkp/Verifier.sol\":64477:64516  mulmod(zMulBeta, NON_RESIDUES_0, R_MOD) */\n      mulmod\n        /* \"zkp/Verifier.sol\":64470:64531  addmod(mulmod(zMulBeta, NON_RESIDUES_0, R_MOD), gamma, R_MOD) */\n      addmod\n        /* \"zkp/Verifier.sol\":64438:64626  addmod(... */\n      addmod\n        /* \"zkp/Verifier.sol\":64417:64626  intermediateValue := addmod(... */\n      swap1\n      pop\n        /* \"zkp/Verifier.sol\":64691:64696  R_MOD */\n      0x30644e72e131a029b85045b68181585d2833e84879b9709143e1f593f0000001\n        /* \"zkp/Verifier.sol\":64672:64689  intermediateValue */\n      dup2\n        /* \"zkp/Verifier.sol\":64664:64670  factor */\n      dup6\n        /* \"zkp/Verifier.sol\":64657:64697  mulmod(factor, intermediateValue, R_MOD) */\n      mulmod\n        /* \"zkp/Verifier.sol\":64647:64697  factor := mulmod(factor, intermediateValue, R_MOD) */\n      swap4\n      pop\n        /* \"zkp/Verifier.sol\":64955:64960  R_MOD */\n      0x30644e72e131a029b85045b68181585d2833e84879b9709143e1f593f0000001\n        /* \"zkp/Verifier.sol\":64913:64929  stateOpening2AtZ */\n      dup9\n        /* \"zkp/Verifier.sol\":64881:64886  R_MOD */\n      0x30644e72e131a029b85045b68181585d2833e84879b9709143e1f593f0000001\n        /* \"zkp/Verifier.sol\":64874:64879  gamma */\n      dup5\n        /* \"zkp/Verifier.sol\":64866:64871  R_MOD */\n      0x30644e72e131a029b85045b68181585d2833e84879b9709143e1f593f0000001\n        /* \"zkp/Verifier.sol\":64850:64864  NON_RESIDUES_1 */\n      0x07\n        /* \"zkp/Verifier.sol\":64840:64848  zMulBeta */\n      dup9\n        /* \"zkp/Verifier.sol\":64833:64872  mulmod(zMulBeta, NON_RESIDUES_1, R_MOD) */\n      mulmod\n        /* \"zkp/Verifier.sol\":64826:64887  addmod(mulmod(zMulBeta, NON_RESIDUES_1, R_MOD), gamma, R_MOD) */\n      addmod\n        /* \"zkp/Verifier.sol\":64794:64982  addmod(... */\n      addmod\n        /* \"zkp/Verifier.sol\":64773:64982  intermediateValue := addmod(... */\n      swap1\n      pop\n        /* \"zkp/Verifier.sol\":65047:65052  R_MOD */\n      0x30644e72e131a029b85045b68181585d2833e84879b9709143e1f593f0000001\n        /* \"zkp/Verifier.sol\":65028:65045  intermediateValue */\n      dup2\n        /* \"zkp/Verifier.sol\":65020:65026  factor */\n      dup6\n        /* \"zkp/Verifier.sol\":65013:65053  mulmod(factor, intermediateValue, R_MOD) */\n      mulmod\n        /* \"zkp/Verifier.sol\":65003:65053  factor := mulmod(factor, intermediateValue, R_MOD) */\n      swap4\n      pop\n        /* \"zkp/Verifier.sol\":65311:65316  R_MOD */\n      0x30644e72e131a029b85045b68181585d2833e84879b9709143e1f593f0000001\n        /* \"zkp/Verifier.sol\":65269:65285  stateOpening3AtZ */\n      dup10\n        /* \"zkp/Verifier.sol\":65237:65242  R_MOD */\n      0x30644e72e131a029b85045b68181585d2833e84879b9709143e1f593f0000001\n        /* \"zkp/Verifier.sol\":65230:65235  gamma */\n      dup5\n        /* \"zkp/Verifier.sol\":65222:65227  R_MOD */\n      0x30644e72e131a029b85045b68181585d2833e84879b9709143e1f593f0000001\n        /* \"zkp/Verifier.sol\":65206:65220  NON_RESIDUES_2 */\n      0x0a\n        /* \"zkp/Verifier.sol\":65196:65204  zMulBeta */\n      dup9\n        /* \"zkp/Verifier.sol\":65189:65228  mulmod(zMulBeta, NON_RESIDUES_2, R_MOD) */\n      mulmod\n        /* \"zkp/Verifier.sol\":65182:65243  addmod(mulmod(zMulBeta, NON_RESIDUES_2, R_MOD), gamma, R_MOD) */\n      addmod\n        /* \"zkp/Verifier.sol\":65150:65338  addmod(... */\n      addmod\n        /* \"zkp/Verifier.sol\":65129:65338  intermediateValue := addmod(... */\n      swap1\n      pop\n        /* \"zkp/Verifier.sol\":65403:65408  R_MOD */\n      0x30644e72e131a029b85045b68181585d2833e84879b9709143e1f593f0000001\n        /* \"zkp/Verifier.sol\":65384:65401  intermediateValue */\n      dup2\n        /* \"zkp/Verifier.sol\":65376:65382  factor */\n      dup6\n        /* \"zkp/Verifier.sol\":65369:65409  mulmod(factor, intermediateValue, R_MOD) */\n      mulmod\n        /* \"zkp/Verifier.sol\":65359:65409  factor := mulmod(factor, intermediateValue, R_MOD) */\n      swap4\n      pop\n        /* \"zkp/Verifier.sol\":63955:65427  {... */\n      pop\n      pop\n      pop\n        /* \"zkp/Verifier.sol\":65503:65522  STATE_L_0_AT_Z_SLOT */\n      0x1020\n        /* \"zkp/Verifier.sol\":65497:65523  mload(STATE_L_0_AT_Z_SLOT) */\n      mload\n        /* \"zkp/Verifier.sol\":65623:65628  R_MOD */\n      0x30644e72e131a029b85045b68181585d2833e84879b9709143e1f593f0000001\n        /* \"zkp/Verifier.sol\":65615:65620  R_MOD */\n      dup1\n        /* \"zkp/Verifier.sol\":65585:65612  STATE_POWER_OF_ALPHA_5_SLOT */\n      0x0e80\n        /* \"zkp/Verifier.sol\":65579:65613  mload(STATE_POWER_OF_ALPHA_5_SLOT) */\n      mload\n        /* \"zkp/Verifier.sol\":65572:65577  l0AtZ */\n      dup4\n        /* \"zkp/Verifier.sol\":65565:65621  mulmod(l0AtZ, mload(STATE_POWER_OF_ALPHA_5_SLOT), R_MOD) */\n      mulmod\n        /* \"zkp/Verifier.sol\":65557:65563  factor */\n      dup4\n        /* \"zkp/Verifier.sol\":65550:65629  addmod(factor, mulmod(l0AtZ, mload(STATE_POWER_OF_ALPHA_5_SLOT), R_MOD), R_MOD) */\n      addmod\n        /* \"zkp/Verifier.sol\":65540:65629  factor := addmod(factor, mulmod(l0AtZ, mload(STATE_POWER_OF_ALPHA_5_SLOT), R_MOD), R_MOD) */\n      swap2\n      pop\n        /* \"zkp/Verifier.sol\":65950:65955  R_MOD */\n      0x30644e72e131a029b85045b68181585d2833e84879b9709143e1f593f0000001\n        /* \"zkp/Verifier.sol\":65935:65947  STATE_V_SLOT */\n      0x0fa0\n        /* \"zkp/Verifier.sol\":65929:65948  mload(STATE_V_SLOT) */\n      mload\n        /* \"zkp/Verifier.sol\":65921:65927  factor */\n      dup4\n        /* \"zkp/Verifier.sol\":65914:65956  mulmod(factor, mload(STATE_V_SLOT), R_MOD) */\n      mulmod\n        /* \"zkp/Verifier.sol\":65904:65956  factor := mulmod(factor, mload(STATE_V_SLOT), R_MOD) */\n      swap2\n      pop\n        /* \"zkp/Verifier.sol\":66032:66038  factor */\n      dup2\n        /* \"zkp/Verifier.sol\":65980:66030  COPY_PERMUTATION_FIRST_AGGREGATED_COMMITMENT_COEFF */\n      0x1340\n        /* \"zkp/Verifier.sol\":65973:66039  mstore(COPY_PERMUTATION_FIRST_AGGREGATED_COMMITMENT_COEFF, factor) */\n      mstore\n        /* \"zkp/Verifier.sol\":66186:66191  R_MOD */\n      0x30644e72e131a029b85045b68181585d2833e84879b9709143e1f593f0000001\n        /* \"zkp/Verifier.sol\":66168:66183  STATE_BETA_SLOT */\n      0x0de0\n        /* \"zkp/Verifier.sol\":66162:66184  mload(STATE_BETA_SLOT) */\n      mload\n        /* \"zkp/Verifier.sol\":66132:66159  STATE_POWER_OF_ALPHA_4_SLOT */\n      0x0e60\n        /* \"zkp/Verifier.sol\":66126:66160  mload(STATE_POWER_OF_ALPHA_4_SLOT) */\n      mload\n        /* \"zkp/Verifier.sol\":66119:66192  mulmod(mload(STATE_POWER_OF_ALPHA_4_SLOT), mload(STATE_BETA_SLOT), R_MOD) */\n      mulmod\n        /* \"zkp/Verifier.sol\":66109:66192  factor := mulmod(mload(STATE_POWER_OF_ALPHA_4_SLOT), mload(STATE_BETA_SLOT), R_MOD) */\n      swap2\n      pop\n        /* \"zkp/Verifier.sol\":66303:66308  R_MOD */\n      0x30644e72e131a029b85045b68181585d2833e84879b9709143e1f593f0000001\n        /* \"zkp/Verifier.sol\":66240:66300  PROOF_COPY_PERMUTATION_GRAND_PRODUCT_OPENING_AT_Z_OMEGA_SLOT */\n      0x0b20\n        /* \"zkp/Verifier.sol\":66234:66301  mload(PROOF_COPY_PERMUTATION_GRAND_PRODUCT_OPENING_AT_Z_OMEGA_SLOT) */\n      mload\n        /* \"zkp/Verifier.sol\":66226:66232  factor */\n      dup4\n        /* \"zkp/Verifier.sol\":66219:66309  mulmod(factor, mload(PROOF_COPY_PERMUTATION_GRAND_PRODUCT_OPENING_AT_Z_OMEGA_SLOT), R_MOD) */\n      mulmod\n        /* \"zkp/Verifier.sol\":66209:66309  factor := mulmod(factor, mload(PROOF_COPY_PERMUTATION_GRAND_PRODUCT_OPENING_AT_Z_OMEGA_SLOT), R_MOD) */\n      swap2\n      pop\n        /* \"zkp/Verifier.sol\":66427:66442  STATE_BETA_SLOT */\n      0x0de0\n        /* \"zkp/Verifier.sol\":66421:66443  mload(STATE_BETA_SLOT) */\n      mload\n        /* \"zkp/Verifier.sol\":66483:66499  STATE_GAMMA_SLOT */\n      0x0e00\n        /* \"zkp/Verifier.sol\":66477:66500  mload(STATE_GAMMA_SLOT) */\n      mload\n        /* \"zkp/Verifier.sol\":66855:66860  R_MOD */\n      0x30644e72e131a029b85045b68181585d2833e84879b9709143e1f593f0000001\n        /* \"zkp/Verifier.sol\":66813:66829  stateOpening0AtZ */\n      dup7\n        /* \"zkp/Verifier.sol\":66756:66761  R_MOD */\n      0x30644e72e131a029b85045b68181585d2833e84879b9709143e1f593f0000001\n        /* \"zkp/Verifier.sol\":66721:66726  gamma */\n      dup4\n        /* \"zkp/Verifier.sol\":66685:66690  R_MOD */\n      0x30644e72e131a029b85045b68181585d2833e84879b9709143e1f593f0000001\n        /* \"zkp/Verifier.sol\":66679:66683  beta */\n      dup7\n        /* \"zkp/Verifier.sol\":66628:66676  PROOF_COPY_PERMUTATION_POLYS_0_OPENING_AT_Z_SLOT */\n      0x0ac0\n        /* \"zkp/Verifier.sol\":66622:66677  mload(PROOF_COPY_PERMUTATION_POLYS_0_OPENING_AT_Z_SLOT) */\n      mload\n        /* \"zkp/Verifier.sol\":66615:66691  mulmod(mload(PROOF_COPY_PERMUTATION_POLYS_0_OPENING_AT_Z_SLOT), beta, R_MOD) */\n      mulmod\n        /* \"zkp/Verifier.sol\":66579:66787  addmod(... */\n      addmod\n        /* \"zkp/Verifier.sol\":66547:66882  addmod(... */\n      addmod\n        /* \"zkp/Verifier.sol\":66947:66952  R_MOD */\n      0x30644e72e131a029b85045b68181585d2833e84879b9709143e1f593f0000001\n        /* \"zkp/Verifier.sol\":66928:66945  intermediateValue */\n      dup2\n        /* \"zkp/Verifier.sol\":66920:66926  factor */\n      dup7\n        /* \"zkp/Verifier.sol\":66913:66953  mulmod(factor, intermediateValue, R_MOD) */\n      mulmod\n        /* \"zkp/Verifier.sol\":66903:66953  factor := mulmod(factor, intermediateValue, R_MOD) */\n      swap5\n      pop\n        /* \"zkp/Verifier.sol\":67365:67370  R_MOD */\n      0x30644e72e131a029b85045b68181585d2833e84879b9709143e1f593f0000001\n        /* \"zkp/Verifier.sol\":67323:67339  stateOpening1AtZ */\n      dup9\n        /* \"zkp/Verifier.sol\":67266:67271  R_MOD */\n      0x30644e72e131a029b85045b68181585d2833e84879b9709143e1f593f0000001\n        /* \"zkp/Verifier.sol\":67231:67236  gamma */\n      dup5\n        /* \"zkp/Verifier.sol\":67195:67200  R_MOD */\n      0x30644e72e131a029b85045b68181585d2833e84879b9709143e1f593f0000001\n        /* \"zkp/Verifier.sol\":67189:67193  beta */\n      dup8\n        /* \"zkp/Verifier.sol\":67138:67186  PROOF_COPY_PERMUTATION_POLYS_1_OPENING_AT_Z_SLOT */\n      0x0ae0\n        /* \"zkp/Verifier.sol\":67132:67187  mload(PROOF_COPY_PERMUTATION_POLYS_1_OPENING_AT_Z_SLOT) */\n      mload\n        /* \"zkp/Verifier.sol\":67125:67201  mulmod(mload(PROOF_COPY_PERMUTATION_POLYS_1_OPENING_AT_Z_SLOT), beta, R_MOD) */\n      mulmod\n        /* \"zkp/Verifier.sol\":67089:67297  addmod(... */\n      addmod\n        /* \"zkp/Verifier.sol\":67057:67392  addmod(... */\n      addmod\n        /* \"zkp/Verifier.sol\":67036:67392  intermediateValue := addmod(... */\n      swap1\n      pop\n        /* \"zkp/Verifier.sol\":67457:67462  R_MOD */\n      0x30644e72e131a029b85045b68181585d2833e84879b9709143e1f593f0000001\n        /* \"zkp/Verifier.sol\":67438:67455  intermediateValue */\n      dup2\n        /* \"zkp/Verifier.sol\":67430:67436  factor */\n      dup7\n        /* \"zkp/Verifier.sol\":67423:67463  mulmod(factor, intermediateValue, R_MOD) */\n      mulmod\n        /* \"zkp/Verifier.sol\":67413:67463  factor := mulmod(factor, intermediateValue, R_MOD) */\n      swap5\n      pop\n        /* \"zkp/Verifier.sol\":67875:67880  R_MOD */\n      0x30644e72e131a029b85045b68181585d2833e84879b9709143e1f593f0000001\n        /* \"zkp/Verifier.sol\":67833:67849  stateOpening2AtZ */\n      dup10\n        /* \"zkp/Verifier.sol\":67776:67781  R_MOD */\n      0x30644e72e131a029b85045b68181585d2833e84879b9709143e1f593f0000001\n        /* \"zkp/Verifier.sol\":67741:67746  gamma */\n      dup5\n        /* \"zkp/Verifier.sol\":67705:67710  R_MOD */\n      0x30644e72e131a029b85045b68181585d2833e84879b9709143e1f593f0000001\n        /* \"zkp/Verifier.sol\":67699:67703  beta */\n      dup8\n        /* \"zkp/Verifier.sol\":67648:67696  PROOF_COPY_PERMUTATION_POLYS_2_OPENING_AT_Z_SLOT */\n      0x0b00\n        /* \"zkp/Verifier.sol\":67642:67697  mload(PROOF_COPY_PERMUTATION_POLYS_2_OPENING_AT_Z_SLOT) */\n      mload\n        /* \"zkp/Verifier.sol\":67635:67711  mulmod(mload(PROOF_COPY_PERMUTATION_POLYS_2_OPENING_AT_Z_SLOT), beta, R_MOD) */\n      mulmod\n        /* \"zkp/Verifier.sol\":67599:67807  addmod(... */\n      addmod\n        /* \"zkp/Verifier.sol\":67567:67902  addmod(... */\n      addmod\n        /* \"zkp/Verifier.sol\":67546:67902  intermediateValue := addmod(... */\n      swap1\n      pop\n        /* \"zkp/Verifier.sol\":67967:67972  R_MOD */\n      0x30644e72e131a029b85045b68181585d2833e84879b9709143e1f593f0000001\n        /* \"zkp/Verifier.sol\":67948:67965  intermediateValue */\n      dup2\n        /* \"zkp/Verifier.sol\":67940:67946  factor */\n      dup7\n        /* \"zkp/Verifier.sol\":67933:67973  mulmod(factor, intermediateValue, R_MOD) */\n      mulmod\n        /* \"zkp/Verifier.sol\":67923:67973  factor := mulmod(factor, intermediateValue, R_MOD) */\n      swap5\n      pop\n        /* \"zkp/Verifier.sol\":66326:67991  {... */\n      pop\n      pop\n      pop\n        /* \"zkp/Verifier.sol\":68091:68096  R_MOD */\n      0x30644e72e131a029b85045b68181585d2833e84879b9709143e1f593f0000001\n        /* \"zkp/Verifier.sol\":68076:68088  STATE_V_SLOT */\n      0x0fa0\n        /* \"zkp/Verifier.sol\":68070:68089  mload(STATE_V_SLOT) */\n      mload\n        /* \"zkp/Verifier.sol\":68062:68068  factor */\n      dup4\n        /* \"zkp/Verifier.sol\":68055:68097  mulmod(factor, mload(STATE_V_SLOT), R_MOD) */\n      mulmod\n        /* \"zkp/Verifier.sol\":68045:68097  factor := mulmod(factor, mload(STATE_V_SLOT), R_MOD) */\n      swap2\n      pop\n        /* \"zkp/Verifier.sol\":68114:68190  pointMulIntoDest(VK_PERMUTATION_3_X_SLOT, factor, QUERIES_BUFFER_POINT_SLOT) */\n      tag_160\n        /* \"zkp/Verifier.sol\":68164:68189  QUERIES_BUFFER_POINT_SLOT */\n      0x1080\n        /* \"zkp/Verifier.sol\":68156:68162  factor */\n      dup4\n        /* \"zkp/Verifier.sol\":68131:68154  VK_PERMUTATION_3_X_SLOT */\n      0x0540\n        /* \"zkp/Verifier.sol\":68114:68190  pointMulIntoDest(VK_PERMUTATION_3_X_SLOT, factor, QUERIES_BUFFER_POINT_SLOT) */\n      tag_20\n      jump\t// in\n    tag_160:\n        /* \"zkp/Verifier.sol\":68208:68255  pointSubAssign(dest, QUERIES_BUFFER_POINT_SLOT) */\n      tag_161\n        /* \"zkp/Verifier.sol\":68229:68254  QUERIES_BUFFER_POINT_SLOT */\n      0x1080\n        /* \"zkp/Verifier.sol\":68223:68227  dest */\n      dup5\n        /* \"zkp/Verifier.sol\":68208:68255  pointSubAssign(dest, QUERIES_BUFFER_POINT_SLOT) */\n      tag_22\n      jump\t// in\n    tag_161:\n        /* \"zkp/Verifier.sol\":63805:68269  {... */\n      pop\n      pop\n        /* \"zkp/Verifier.sol\":63573:68269  function addAssignPermutationLinearisationContributionWithV(... */\n      pop\n      pop\n      pop\n      pop\n      pop\n      jump\t// out\n        /* \"zkp/Verifier.sol\":68390:72381  function addAssignLookupLinearisationContributionWithV(... */\n    tag_37:\n        /* \"zkp/Verifier.sol\":68698:68748  PROOF_LOOKUP_GRAND_PRODUCT_OPENING_AT_Z_OMEGA_SLOT */\n      0x0b60\n        /* \"zkp/Verifier.sol\":68692:68749  mload(PROOF_LOOKUP_GRAND_PRODUCT_OPENING_AT_Z_OMEGA_SLOT) */\n      mload\n        /* \"zkp/Verifier.sol\":68827:68832  R_MOD */\n      0x30644e72e131a029b85045b68181585d2833e84879b9709143e1f593f0000001\n        /* \"zkp/Verifier.sol\":68797:68824  STATE_POWER_OF_ALPHA_6_SLOT */\n      0x0ea0\n        /* \"zkp/Verifier.sol\":68791:68825  mload(STATE_POWER_OF_ALPHA_6_SLOT) */\n      mload\n        /* \"zkp/Verifier.sol\":68783:68789  factor */\n      dup3\n        /* \"zkp/Verifier.sol\":68776:68833  mulmod(factor, mload(STATE_POWER_OF_ALPHA_6_SLOT), R_MOD) */\n      mulmod\n        /* \"zkp/Verifier.sol\":68766:68833  factor := mulmod(factor, mload(STATE_POWER_OF_ALPHA_6_SLOT), R_MOD) */\n      swap1\n      pop\n        /* \"zkp/Verifier.sol\":68913:68918  R_MOD */\n      0x30644e72e131a029b85045b68181585d2833e84879b9709143e1f593f0000001\n        /* \"zkp/Verifier.sol\":68881:68910  STATE_Z_MINUS_LAST_OMEGA_SLOT */\n      0x1000\n        /* \"zkp/Verifier.sol\":68875:68911  mload(STATE_Z_MINUS_LAST_OMEGA_SLOT) */\n      mload\n        /* \"zkp/Verifier.sol\":68867:68873  factor */\n      dup3\n        /* \"zkp/Verifier.sol\":68860:68919  mulmod(factor, mload(STATE_Z_MINUS_LAST_OMEGA_SLOT), R_MOD) */\n      mulmod\n        /* \"zkp/Verifier.sol\":68850:68919  factor := mulmod(factor, mload(STATE_Z_MINUS_LAST_OMEGA_SLOT), R_MOD) */\n      swap1\n      pop\n        /* \"zkp/Verifier.sol\":68982:68987  R_MOD */\n      0x30644e72e131a029b85045b68181585d2833e84879b9709143e1f593f0000001\n        /* \"zkp/Verifier.sol\":68967:68979  STATE_V_SLOT */\n      0x0fa0\n        /* \"zkp/Verifier.sol\":68961:68980  mload(STATE_V_SLOT) */\n      mload\n        /* \"zkp/Verifier.sol\":68953:68959  factor */\n      dup3\n        /* \"zkp/Verifier.sol\":68946:68988  mulmod(factor, mload(STATE_V_SLOT), R_MOD) */\n      mulmod\n        /* \"zkp/Verifier.sol\":68936:68988  factor := mulmod(factor, mload(STATE_V_SLOT), R_MOD) */\n      swap1\n      pop\n        /* \"zkp/Verifier.sol\":69304:69310  factor */\n      dup1\n        /* \"zkp/Verifier.sol\":69260:69302  LOOKUP_S_FIRST_AGGREGATED_COMMITMENT_COEFF */\n      0x1380\n        /* \"zkp/Verifier.sol\":69253:69311  mstore(LOOKUP_S_FIRST_AGGREGATED_COMMITMENT_COEFF, factor) */\n      mstore\n        /* \"zkp/Verifier.sol\":69407:69450  PROOF_LOOKUP_T_POLY_OPENING_AT_Z_OMEGA_SLOT */\n      0x0ba0\n        /* \"zkp/Verifier.sol\":69401:69451  mload(PROOF_LOOKUP_T_POLY_OPENING_AT_Z_OMEGA_SLOT) */\n      mload\n        /* \"zkp/Verifier.sol\":69391:69451  factor := mload(PROOF_LOOKUP_T_POLY_OPENING_AT_Z_OMEGA_SLOT) */\n      swap1\n      pop\n        /* \"zkp/Verifier.sol\":69524:69529  R_MOD */\n      0x30644e72e131a029b85045b68181585d2833e84879b9709143e1f593f0000001\n        /* \"zkp/Verifier.sol\":69499:69521  STATE_BETA_LOOKUP_SLOT */\n      0x0f20\n        /* \"zkp/Verifier.sol\":69493:69522  mload(STATE_BETA_LOOKUP_SLOT) */\n      mload\n        /* \"zkp/Verifier.sol\":69485:69491  factor */\n      dup3\n        /* \"zkp/Verifier.sol\":69478:69530  mulmod(factor, mload(STATE_BETA_LOOKUP_SLOT), R_MOD) */\n      mulmod\n        /* \"zkp/Verifier.sol\":69468:69530  factor := mulmod(factor, mload(STATE_BETA_LOOKUP_SLOT), R_MOD) */\n      swap1\n      pop\n        /* \"zkp/Verifier.sol\":69618:69623  R_MOD */\n      0x30644e72e131a029b85045b68181585d2833e84879b9709143e1f593f0000001\n        /* \"zkp/Verifier.sol\":69578:69615  PROOF_LOOKUP_T_POLY_OPENING_AT_Z_SLOT */\n      0x0b80\n        /* \"zkp/Verifier.sol\":69572:69616  mload(PROOF_LOOKUP_T_POLY_OPENING_AT_Z_SLOT) */\n      mload\n        /* \"zkp/Verifier.sol\":69564:69570  factor */\n      dup3\n        /* \"zkp/Verifier.sol\":69557:69624  addmod(factor, mload(PROOF_LOOKUP_T_POLY_OPENING_AT_Z_SLOT), R_MOD) */\n      addmod\n        /* \"zkp/Verifier.sol\":69547:69624  factor := addmod(factor, mload(PROOF_LOOKUP_T_POLY_OPENING_AT_Z_SLOT), R_MOD) */\n      swap1\n      pop\n        /* \"zkp/Verifier.sol\":69707:69712  R_MOD */\n      0x30644e72e131a029b85045b68181585d2833e84879b9709143e1f593f0000001\n        /* \"zkp/Verifier.sol\":69672:69704  STATE_BETA_GAMMA_PLUS_GAMMA_SLOT */\n      0x0f80\n        /* \"zkp/Verifier.sol\":69666:69705  mload(STATE_BETA_GAMMA_PLUS_GAMMA_SLOT) */\n      mload\n        /* \"zkp/Verifier.sol\":69658:69664  factor */\n      dup3\n        /* \"zkp/Verifier.sol\":69651:69713  addmod(factor, mload(STATE_BETA_GAMMA_PLUS_GAMMA_SLOT), R_MOD) */\n      addmod\n        /* \"zkp/Verifier.sol\":69641:69713  factor := addmod(factor, mload(STATE_BETA_GAMMA_PLUS_GAMMA_SLOT), R_MOD) */\n      swap1\n      pop\n        /* \"zkp/Verifier.sol\":69952:69970  let fReconstructed */\n      0x00\n        /* \"zkp/Verifier.sol\":70027:70043  stateOpening0AtZ */\n      dup4\n        /* \"zkp/Verifier.sol\":70009:70043  fReconstructed := stateOpening0AtZ */\n      swap1\n      pop\n        /* \"zkp/Verifier.sol\":70081:70095  STATE_ETA_SLOT */\n      0x0f00\n        /* \"zkp/Verifier.sol\":70075:70096  mload(STATE_ETA_SLOT) */\n      mload\n        /* \"zkp/Verifier.sol\":70135:70138  eta */\n      dup1\n        /* \"zkp/Verifier.sol\":70246:70251  R_MOD */\n      0x30644e72e131a029b85045b68181585d2833e84879b9709143e1f593f0000001\n        /* \"zkp/Verifier.sol\":70238:70243  R_MOD */\n      dup1\n        /* \"zkp/Verifier.sol\":70220:70236  stateOpening1AtZ */\n      dup9\n        /* \"zkp/Verifier.sol\":70208:70218  currentEta */\n      dup4\n        /* \"zkp/Verifier.sol\":70201:70244  mulmod(currentEta, stateOpening1AtZ, R_MOD) */\n      mulmod\n        /* \"zkp/Verifier.sol\":70185:70199  fReconstructed */\n      dup5\n        /* \"zkp/Verifier.sol\":70178:70252  addmod(fReconstructed, mulmod(currentEta, stateOpening1AtZ, R_MOD), R_MOD) */\n      addmod\n        /* \"zkp/Verifier.sol\":70160:70252  fReconstructed := addmod(fReconstructed, mulmod(currentEta, stateOpening1AtZ, R_MOD), R_MOD) */\n      swap3\n      pop\n        /* \"zkp/Verifier.sol\":70311:70316  R_MOD */\n      0x30644e72e131a029b85045b68181585d2833e84879b9709143e1f593f0000001\n        /* \"zkp/Verifier.sol\":70306:70309  eta */\n      dup3\n        /* \"zkp/Verifier.sol\":70294:70304  currentEta */\n      dup3\n        /* \"zkp/Verifier.sol\":70287:70317  mulmod(currentEta, eta, R_MOD) */\n      mulmod\n        /* \"zkp/Verifier.sol\":70273:70317  currentEta := mulmod(currentEta, eta, R_MOD) */\n      swap1\n      pop\n        /* \"zkp/Verifier.sol\":70424:70429  R_MOD */\n      0x30644e72e131a029b85045b68181585d2833e84879b9709143e1f593f0000001\n        /* \"zkp/Verifier.sol\":70416:70421  R_MOD */\n      dup1\n        /* \"zkp/Verifier.sol\":70398:70414  stateOpening2AtZ */\n      dup10\n        /* \"zkp/Verifier.sol\":70386:70396  currentEta */\n      dup4\n        /* \"zkp/Verifier.sol\":70379:70422  mulmod(currentEta, stateOpening2AtZ, R_MOD) */\n      mulmod\n        /* \"zkp/Verifier.sol\":70363:70377  fReconstructed */\n      dup5\n        /* \"zkp/Verifier.sol\":70356:70430  addmod(fReconstructed, mulmod(currentEta, stateOpening2AtZ, R_MOD), R_MOD) */\n      addmod\n        /* \"zkp/Verifier.sol\":70338:70430  fReconstructed := addmod(fReconstructed, mulmod(currentEta, stateOpening2AtZ, R_MOD), R_MOD) */\n      swap3\n      pop\n        /* \"zkp/Verifier.sol\":70489:70494  R_MOD */\n      0x30644e72e131a029b85045b68181585d2833e84879b9709143e1f593f0000001\n        /* \"zkp/Verifier.sol\":70484:70487  eta */\n      dup3\n        /* \"zkp/Verifier.sol\":70472:70482  currentEta */\n      dup3\n        /* \"zkp/Verifier.sol\":70465:70495  mulmod(currentEta, eta, R_MOD) */\n      mulmod\n        /* \"zkp/Verifier.sol\":70451:70495  currentEta := mulmod(currentEta, eta, R_MOD) */\n      swap1\n      pop\n        /* \"zkp/Verifier.sol\":70754:70759  R_MOD */\n      0x30644e72e131a029b85045b68181585d2833e84879b9709143e1f593f0000001\n        /* \"zkp/Verifier.sol\":70722:70727  R_MOD */\n      dup1\n        /* \"zkp/Verifier.sol\":70710:70720  currentEta */\n      dup3\n        /* \"zkp/Verifier.sol\":70661:70707  PROOF_LOOKUP_TABLE_TYPE_POLY_OPENING_AT_Z_SLOT */\n      0x0be0\n        /* \"zkp/Verifier.sol\":70655:70708  mload(PROOF_LOOKUP_TABLE_TYPE_POLY_OPENING_AT_Z_SLOT) */\n      mload\n        /* \"zkp/Verifier.sol\":70648:70728  mulmod(mload(PROOF_LOOKUP_TABLE_TYPE_POLY_OPENING_AT_Z_SLOT), currentEta, R_MOD) */\n      mulmod\n        /* \"zkp/Verifier.sol\":70608:70622  fReconstructed */\n      dup5\n        /* \"zkp/Verifier.sol\":70576:70781  addmod(... */\n      addmod\n        /* \"zkp/Verifier.sol\":70558:70781  fReconstructed := addmod(... */\n      swap3\n      pop\n        /* \"zkp/Verifier.sol\":70896:70901  R_MOD */\n      0x30644e72e131a029b85045b68181585d2833e84879b9709143e1f593f0000001\n        /* \"zkp/Verifier.sol\":70849:70893  PROOF_LOOKUP_SELECTOR_POLY_OPENING_AT_Z_SLOT */\n      0x0bc0\n        /* \"zkp/Verifier.sol\":70843:70894  mload(PROOF_LOOKUP_SELECTOR_POLY_OPENING_AT_Z_SLOT) */\n      mload\n        /* \"zkp/Verifier.sol\":70827:70841  fReconstructed */\n      dup5\n        /* \"zkp/Verifier.sol\":70820:70902  mulmod(fReconstructed, mload(PROOF_LOOKUP_SELECTOR_POLY_OPENING_AT_Z_SLOT), R_MOD) */\n      mulmod\n        /* \"zkp/Verifier.sol\":70802:70902  fReconstructed := mulmod(fReconstructed, mload(PROOF_LOOKUP_SELECTOR_POLY_OPENING_AT_Z_SLOT), R_MOD) */\n      swap3\n      pop\n        /* \"zkp/Verifier.sol\":70996:71001  R_MOD */\n      0x30644e72e131a029b85045b68181585d2833e84879b9709143e1f593f0000001\n        /* \"zkp/Verifier.sol\":70970:70993  STATE_GAMMA_LOOKUP_SLOT */\n      0x0f40\n        /* \"zkp/Verifier.sol\":70964:70994  mload(STATE_GAMMA_LOOKUP_SLOT) */\n      mload\n        /* \"zkp/Verifier.sol\":70948:70962  fReconstructed */\n      dup5\n        /* \"zkp/Verifier.sol\":70941:71002  addmod(fReconstructed, mload(STATE_GAMMA_LOOKUP_SLOT), R_MOD) */\n      addmod\n        /* \"zkp/Verifier.sol\":70923:71002  fReconstructed := addmod(fReconstructed, mload(STATE_GAMMA_LOOKUP_SLOT), R_MOD) */\n      swap3\n      pop\n        /* \"zkp/Verifier.sol\":69987:71020  {... */\n      pop\n      pop\n        /* \"zkp/Verifier.sol\":71142:71147  R_MOD */\n      0x30644e72e131a029b85045b68181585d2833e84879b9709143e1f593f0000001\n        /* \"zkp/Verifier.sol\":71126:71140  fReconstructed */\n      dup2\n        /* \"zkp/Verifier.sol\":71118:71124  factor */\n      dup4\n        /* \"zkp/Verifier.sol\":71111:71148  mulmod(factor, fReconstructed, R_MOD) */\n      mulmod\n        /* \"zkp/Verifier.sol\":71101:71148  factor := mulmod(factor, fReconstructed, R_MOD) */\n      swap2\n      pop\n        /* \"zkp/Verifier.sol\":71223:71228  R_MOD */\n      0x30644e72e131a029b85045b68181585d2833e84879b9709143e1f593f0000001\n        /* \"zkp/Verifier.sol\":71196:71220  STATE_BETA_PLUS_ONE_SLOT */\n      0x0f60\n        /* \"zkp/Verifier.sol\":71190:71221  mload(STATE_BETA_PLUS_ONE_SLOT) */\n      mload\n        /* \"zkp/Verifier.sol\":71182:71188  factor */\n      dup4\n        /* \"zkp/Verifier.sol\":71175:71229  mulmod(factor, mload(STATE_BETA_PLUS_ONE_SLOT), R_MOD) */\n      mulmod\n        /* \"zkp/Verifier.sol\":71165:71229  factor := mulmod(factor, mload(STATE_BETA_PLUS_ONE_SLOT), R_MOD) */\n      swap2\n      pop\n        /* \"zkp/Verifier.sol\":71267:71273  factor */\n      dup2\n        /* \"zkp/Verifier.sol\":71260:71265  R_MOD */\n      0x30644e72e131a029b85045b68181585d2833e84879b9709143e1f593f0000001\n        /* \"zkp/Verifier.sol\":71256:71274  sub(R_MOD, factor) */\n      sub\n        /* \"zkp/Verifier.sol\":71246:71274  factor := sub(R_MOD, factor) */\n      swap2\n      pop\n        /* \"zkp/Verifier.sol\":71352:71357  R_MOD */\n      0x30644e72e131a029b85045b68181585d2833e84879b9709143e1f593f0000001\n        /* \"zkp/Verifier.sol\":71322:71349  STATE_POWER_OF_ALPHA_6_SLOT */\n      0x0ea0\n        /* \"zkp/Verifier.sol\":71316:71350  mload(STATE_POWER_OF_ALPHA_6_SLOT) */\n      mload\n        /* \"zkp/Verifier.sol\":71308:71314  factor */\n      dup4\n        /* \"zkp/Verifier.sol\":71301:71358  mulmod(factor, mload(STATE_POWER_OF_ALPHA_6_SLOT), R_MOD) */\n      mulmod\n        /* \"zkp/Verifier.sol\":71291:71358  factor := mulmod(factor, mload(STATE_POWER_OF_ALPHA_6_SLOT), R_MOD) */\n      swap2\n      pop\n        /* \"zkp/Verifier.sol\":71439:71444  R_MOD */\n      0x30644e72e131a029b85045b68181585d2833e84879b9709143e1f593f0000001\n        /* \"zkp/Verifier.sol\":71407:71436  STATE_Z_MINUS_LAST_OMEGA_SLOT */\n      0x1000\n        /* \"zkp/Verifier.sol\":71401:71437  mload(STATE_Z_MINUS_LAST_OMEGA_SLOT) */\n      mload\n        /* \"zkp/Verifier.sol\":71393:71399  factor */\n      dup4\n        /* \"zkp/Verifier.sol\":71386:71445  mulmod(factor, mload(STATE_Z_MINUS_LAST_OMEGA_SLOT), R_MOD) */\n      mulmod\n        /* \"zkp/Verifier.sol\":71376:71445  factor := mulmod(factor, mload(STATE_Z_MINUS_LAST_OMEGA_SLOT), R_MOD) */\n      swap2\n      pop\n        /* \"zkp/Verifier.sol\":71667:71672  R_MOD */\n      0x30644e72e131a029b85045b68181585d2833e84879b9709143e1f593f0000001\n        /* \"zkp/Verifier.sol\":71639:71644  R_MOD */\n      dup1\n        /* \"zkp/Verifier.sol\":71609:71636  STATE_POWER_OF_ALPHA_7_SLOT */\n      0x0ec0\n        /* \"zkp/Verifier.sol\":71603:71637  mload(STATE_POWER_OF_ALPHA_7_SLOT) */\n      mload\n        /* \"zkp/Verifier.sol\":71581:71600  STATE_L_0_AT_Z_SLOT */\n      0x1020\n        /* \"zkp/Verifier.sol\":71575:71601  mload(STATE_L_0_AT_Z_SLOT) */\n      mload\n        /* \"zkp/Verifier.sol\":71568:71645  mulmod(mload(STATE_L_0_AT_Z_SLOT), mload(STATE_POWER_OF_ALPHA_7_SLOT), R_MOD) */\n      mulmod\n        /* \"zkp/Verifier.sol\":71540:71546  factor */\n      dup4\n        /* \"zkp/Verifier.sol\":71512:71690  addmod(... */\n      addmod\n        /* \"zkp/Verifier.sol\":71502:71690  factor := addmod(... */\n      swap2\n      pop\n        /* \"zkp/Verifier.sol\":71926:71931  R_MOD */\n      0x30644e72e131a029b85045b68181585d2833e84879b9709143e1f593f0000001\n        /* \"zkp/Verifier.sol\":71898:71903  R_MOD */\n      dup1\n        /* \"zkp/Verifier.sol\":71868:71895  STATE_POWER_OF_ALPHA_8_SLOT */\n      0x0ee0\n        /* \"zkp/Verifier.sol\":71862:71896  mload(STATE_POWER_OF_ALPHA_8_SLOT) */\n      mload\n        /* \"zkp/Verifier.sol\":71830:71859  STATE_L_N_MINUS_ONE_AT_Z_SLOT */\n      0x1040\n        /* \"zkp/Verifier.sol\":71824:71860  mload(STATE_L_N_MINUS_ONE_AT_Z_SLOT) */\n      mload\n        /* \"zkp/Verifier.sol\":71817:71904  mulmod(mload(STATE_L_N_MINUS_ONE_AT_Z_SLOT), mload(STATE_POWER_OF_ALPHA_8_SLOT), R_MOD) */\n      mulmod\n        /* \"zkp/Verifier.sol\":71789:71795  factor */\n      dup4\n        /* \"zkp/Verifier.sol\":71761:71949  addmod(... */\n      addmod\n        /* \"zkp/Verifier.sol\":71751:71949  factor := addmod(... */\n      swap2\n      pop\n        /* \"zkp/Verifier.sol\":72274:72279  R_MOD */\n      0x30644e72e131a029b85045b68181585d2833e84879b9709143e1f593f0000001\n        /* \"zkp/Verifier.sol\":72259:72271  STATE_V_SLOT */\n      0x0fa0\n        /* \"zkp/Verifier.sol\":72253:72272  mload(STATE_V_SLOT) */\n      mload\n        /* \"zkp/Verifier.sol\":72245:72251  factor */\n      dup4\n        /* \"zkp/Verifier.sol\":72238:72280  mulmod(factor, mload(STATE_V_SLOT), R_MOD) */\n      mulmod\n        /* \"zkp/Verifier.sol\":72228:72280  factor := mulmod(factor, mload(STATE_V_SLOT), R_MOD) */\n      swap2\n      pop\n        /* \"zkp/Verifier.sol\":72360:72366  factor */\n      dup2\n        /* \"zkp/Verifier.sol\":72304:72358  LOOKUP_GRAND_PRODUCT_FIRST_AGGREGATED_COMMITMENT_COEFF */\n      0x1360\n        /* \"zkp/Verifier.sol\":72297:72367  mstore(LOOKUP_GRAND_PRODUCT_FIRST_AGGREGATED_COMMITMENT_COEFF, factor) */\n      mstore\n        /* \"zkp/Verifier.sol\":68583:72381  {... */\n      pop\n      pop\n        /* \"zkp/Verifier.sol\":68390:72381  function addAssignLookupLinearisationContributionWithV(... */\n      pop\n      pop\n      pop\n      pop\n      jump\t// out\n        /* \"zkp/Verifier.sol\":75150:78762  function prepareQueries() {... */\n    tag_38:\n        /* \"zkp/Verifier.sol\":75277:75299  STATE_Z_IN_DOMAIN_SIZE */\n      0x1060\n        /* \"zkp/Verifier.sol\":75271:75300  mload(STATE_Z_IN_DOMAIN_SIZE) */\n      mload\n        /* \"zkp/Verifier.sol\":75337:75350  zInDomainSize */\n      dup1\n        /* \"zkp/Verifier.sol\":75408:75442  PROOF_QUOTIENT_POLY_PARTS_0_X_SLOT */\n      0x0900\n        /* \"zkp/Verifier.sol\":75402:75443  mload(PROOF_QUOTIENT_POLY_PARTS_0_X_SLOT) */\n      mload\n        /* \"zkp/Verifier.sol\":75379:75400  QUERIES_AT_Z_0_X_SLOT */\n      0x10c0\n        /* \"zkp/Verifier.sol\":75372:75444  mstore(QUERIES_AT_Z_0_X_SLOT, mload(PROOF_QUOTIENT_POLY_PARTS_0_X_SLOT)) */\n      mstore\n        /* \"zkp/Verifier.sol\":75501:75535  PROOF_QUOTIENT_POLY_PARTS_0_Y_SLOT */\n      0x0920\n        /* \"zkp/Verifier.sol\":75495:75536  mload(PROOF_QUOTIENT_POLY_PARTS_0_Y_SLOT) */\n      mload\n        /* \"zkp/Verifier.sol\":75472:75493  QUERIES_AT_Z_0_Y_SLOT */\n      0x10e0\n        /* \"zkp/Verifier.sol\":75465:75537  mstore(QUERIES_AT_Z_0_Y_SLOT, mload(PROOF_QUOTIENT_POLY_PARTS_0_Y_SLOT)) */\n      mstore\n        /* \"zkp/Verifier.sol\":75559:75650  pointMulAndAddIntoDest(PROOF_QUOTIENT_POLY_PARTS_1_X_SLOT, currentZ, QUERIES_AT_Z_0_X_SLOT) */\n      tag_164\n        /* \"zkp/Verifier.sol\":75628:75649  QUERIES_AT_Z_0_X_SLOT */\n      0x10c0\n        /* \"zkp/Verifier.sol\":75618:75626  currentZ */\n      dup3\n        /* \"zkp/Verifier.sol\":75582:75616  PROOF_QUOTIENT_POLY_PARTS_1_X_SLOT */\n      0x0940\n        /* \"zkp/Verifier.sol\":75559:75650  pointMulAndAddIntoDest(PROOF_QUOTIENT_POLY_PARTS_1_X_SLOT, currentZ, QUERIES_AT_Z_0_X_SLOT) */\n      tag_24\n      jump\t// in\n    tag_164:\n        /* \"zkp/Verifier.sol\":75715:75720  R_MOD */\n      0x30644e72e131a029b85045b68181585d2833e84879b9709143e1f593f0000001\n        /* \"zkp/Verifier.sol\":75700:75713  zInDomainSize */\n      dup3\n        /* \"zkp/Verifier.sol\":75690:75698  currentZ */\n      dup3\n        /* \"zkp/Verifier.sol\":75683:75721  mulmod(currentZ, zInDomainSize, R_MOD) */\n      mulmod\n        /* \"zkp/Verifier.sol\":75671:75721  currentZ := mulmod(currentZ, zInDomainSize, R_MOD) */\n      swap1\n      pop\n        /* \"zkp/Verifier.sol\":75743:75834  pointMulAndAddIntoDest(PROOF_QUOTIENT_POLY_PARTS_2_X_SLOT, currentZ, QUERIES_AT_Z_0_X_SLOT) */\n      tag_165\n        /* \"zkp/Verifier.sol\":75812:75833  QUERIES_AT_Z_0_X_SLOT */\n      0x10c0\n        /* \"zkp/Verifier.sol\":75802:75810  currentZ */\n      dup3\n        /* \"zkp/Verifier.sol\":75766:75800  PROOF_QUOTIENT_POLY_PARTS_2_X_SLOT */\n      0x0980\n        /* \"zkp/Verifier.sol\":75743:75834  pointMulAndAddIntoDest(PROOF_QUOTIENT_POLY_PARTS_2_X_SLOT, currentZ, QUERIES_AT_Z_0_X_SLOT) */\n      tag_24\n      jump\t// in\n    tag_165:\n        /* \"zkp/Verifier.sol\":75899:75904  R_MOD */\n      0x30644e72e131a029b85045b68181585d2833e84879b9709143e1f593f0000001\n        /* \"zkp/Verifier.sol\":75884:75897  zInDomainSize */\n      dup3\n        /* \"zkp/Verifier.sol\":75874:75882  currentZ */\n      dup3\n        /* \"zkp/Verifier.sol\":75867:75905  mulmod(currentZ, zInDomainSize, R_MOD) */\n      mulmod\n        /* \"zkp/Verifier.sol\":75855:75905  currentZ := mulmod(currentZ, zInDomainSize, R_MOD) */\n      swap1\n      pop\n        /* \"zkp/Verifier.sol\":75927:76018  pointMulAndAddIntoDest(PROOF_QUOTIENT_POLY_PARTS_3_X_SLOT, currentZ, QUERIES_AT_Z_0_X_SLOT) */\n      tag_166\n        /* \"zkp/Verifier.sol\":75996:76017  QUERIES_AT_Z_0_X_SLOT */\n      0x10c0\n        /* \"zkp/Verifier.sol\":75986:75994  currentZ */\n      dup3\n        /* \"zkp/Verifier.sol\":75950:75984  PROOF_QUOTIENT_POLY_PARTS_3_X_SLOT */\n      0x09c0\n        /* \"zkp/Verifier.sol\":75927:76018  pointMulAndAddIntoDest(PROOF_QUOTIENT_POLY_PARTS_3_X_SLOT, currentZ, QUERIES_AT_Z_0_X_SLOT) */\n      tag_24\n      jump\t// in\n    tag_166:\n        /* \"zkp/Verifier.sol\":75228:76036  {... */\n      pop\n      pop\n        /* \"zkp/Verifier.sol\":76295:76332  PROOF_STATE_POLYS_0_OPENING_AT_Z_SLOT */\n      0x0a00\n        /* \"zkp/Verifier.sol\":76289:76333  mload(PROOF_STATE_POLYS_0_OPENING_AT_Z_SLOT) */\n      mload\n        /* \"zkp/Verifier.sol\":76384:76421  PROOF_STATE_POLYS_1_OPENING_AT_Z_SLOT */\n      0x0a20\n        /* \"zkp/Verifier.sol\":76378:76422  mload(PROOF_STATE_POLYS_1_OPENING_AT_Z_SLOT) */\n      mload\n        /* \"zkp/Verifier.sol\":76473:76510  PROOF_STATE_POLYS_2_OPENING_AT_Z_SLOT */\n      0x0a40\n        /* \"zkp/Verifier.sol\":76467:76511  mload(PROOF_STATE_POLYS_2_OPENING_AT_Z_SLOT) */\n      mload\n        /* \"zkp/Verifier.sol\":76562:76599  PROOF_STATE_POLYS_3_OPENING_AT_Z_SLOT */\n      0x0a60\n        /* \"zkp/Verifier.sol\":76556:76600  mload(PROOF_STATE_POLYS_3_OPENING_AT_Z_SLOT) */\n      mload\n        /* \"zkp/Verifier.sol\":76622:76897  mainGateLinearisationContributionWithV(... */\n      tag_167\n        /* \"zkp/Verifier.sol\":76859:76875  stateOpening3AtZ */\n      dup2\n        /* \"zkp/Verifier.sol\":76817:76833  stateOpening2AtZ */\n      dup4\n        /* \"zkp/Verifier.sol\":76775:76791  stateOpening1AtZ */\n      dup6\n        /* \"zkp/Verifier.sol\":76733:76749  stateOpening0AtZ */\n      dup8\n        /* \"zkp/Verifier.sol\":76686:76707  QUERIES_AT_Z_1_X_SLOT */\n      0x1100\n        /* \"zkp/Verifier.sol\":76622:76897  mainGateLinearisationContributionWithV(... */\n      tag_34\n      jump\t// in\n    tag_167:\n        /* \"zkp/Verifier.sol\":76919:77211  addAssignRescueCustomGateLinearisationContributionWithV(... */\n      tag_168\n        /* \"zkp/Verifier.sol\":77173:77189  stateOpening3AtZ */\n      dup2\n        /* \"zkp/Verifier.sol\":77131:77147  stateOpening2AtZ */\n      dup4\n        /* \"zkp/Verifier.sol\":77089:77105  stateOpening1AtZ */\n      dup6\n        /* \"zkp/Verifier.sol\":77047:77063  stateOpening0AtZ */\n      dup8\n        /* \"zkp/Verifier.sol\":77000:77021  QUERIES_AT_Z_1_X_SLOT */\n      0x1100\n        /* \"zkp/Verifier.sol\":76919:77211  addAssignRescueCustomGateLinearisationContributionWithV(... */\n      tag_35\n      jump\t// in\n    tag_168:\n        /* \"zkp/Verifier.sol\":77233:77520  addAssignPermutationLinearisationContributionWithV(... */\n      tag_169\n        /* \"zkp/Verifier.sol\":77482:77498  stateOpening3AtZ */\n      dup2\n        /* \"zkp/Verifier.sol\":77440:77456  stateOpening2AtZ */\n      dup4\n        /* \"zkp/Verifier.sol\":77398:77414  stateOpening1AtZ */\n      dup6\n        /* \"zkp/Verifier.sol\":77356:77372  stateOpening0AtZ */\n      dup8\n        /* \"zkp/Verifier.sol\":77309:77330  QUERIES_AT_Z_1_X_SLOT */\n      0x1100\n        /* \"zkp/Verifier.sol\":77233:77520  addAssignPermutationLinearisationContributionWithV(... */\n      tag_36\n      jump\t// in\n    tag_169:\n        /* \"zkp/Verifier.sol\":77542:77782  addAssignLookupLinearisationContributionWithV(... */\n      tag_170\n        /* \"zkp/Verifier.sol\":77744:77760  stateOpening2AtZ */\n      dup3\n        /* \"zkp/Verifier.sol\":77702:77718  stateOpening1AtZ */\n      dup5\n        /* \"zkp/Verifier.sol\":77660:77676  stateOpening0AtZ */\n      dup7\n        /* \"zkp/Verifier.sol\":77613:77634  QUERIES_AT_Z_1_X_SLOT */\n      0x1100\n        /* \"zkp/Verifier.sol\":77542:77782  addAssignLookupLinearisationContributionWithV(... */\n      tag_37\n      jump\t// in\n    tag_170:\n        /* \"zkp/Verifier.sol\":76243:77800  {... */\n      pop\n      pop\n      pop\n      pop\n        /* \"zkp/Verifier.sol\":78036:78060  VK_LOOKUP_TABLE_0_X_SLOT */\n      0x05c0\n        /* \"zkp/Verifier.sol\":78030:78061  mload(VK_LOOKUP_TABLE_0_X_SLOT) */\n      mload\n        /* \"zkp/Verifier.sol\":77996:78028  QUERIES_T_POLY_AGGREGATED_X_SLOT */\n      0x1140\n        /* \"zkp/Verifier.sol\":77989:78062  mstore(QUERIES_T_POLY_AGGREGATED_X_SLOT, mload(VK_LOOKUP_TABLE_0_X_SLOT)) */\n      mstore\n        /* \"zkp/Verifier.sol\":78130:78154  VK_LOOKUP_TABLE_0_Y_SLOT */\n      0x05e0\n        /* \"zkp/Verifier.sol\":78124:78155  mload(VK_LOOKUP_TABLE_0_Y_SLOT) */\n      mload\n        /* \"zkp/Verifier.sol\":78090:78122  QUERIES_T_POLY_AGGREGATED_Y_SLOT */\n      0x1160\n        /* \"zkp/Verifier.sol\":78083:78156  mstore(QUERIES_T_POLY_AGGREGATED_Y_SLOT, mload(VK_LOOKUP_TABLE_0_Y_SLOT)) */\n      mstore\n        /* \"zkp/Verifier.sol\":78195:78209  STATE_ETA_SLOT */\n      0x0f00\n        /* \"zkp/Verifier.sol\":78189:78210  mload(STATE_ETA_SLOT) */\n      mload\n        /* \"zkp/Verifier.sol\":78249:78252  eta */\n      dup1\n        /* \"zkp/Verifier.sol\":78274:78368  pointMulAndAddIntoDest(VK_LOOKUP_TABLE_1_X_SLOT, currentEta, QUERIES_T_POLY_AGGREGATED_X_SLOT) */\n      tag_171\n        /* \"zkp/Verifier.sol\":78335:78367  QUERIES_T_POLY_AGGREGATED_X_SLOT */\n      0x1140\n        /* \"zkp/Verifier.sol\":78323:78333  currentEta */\n      dup3\n        /* \"zkp/Verifier.sol\":78297:78321  VK_LOOKUP_TABLE_1_X_SLOT */\n      0x0600\n        /* \"zkp/Verifier.sol\":78274:78368  pointMulAndAddIntoDest(VK_LOOKUP_TABLE_1_X_SLOT, currentEta, QUERIES_T_POLY_AGGREGATED_X_SLOT) */\n      tag_24\n      jump\t// in\n    tag_171:\n        /* \"zkp/Verifier.sol\":78427:78432  R_MOD */\n      0x30644e72e131a029b85045b68181585d2833e84879b9709143e1f593f0000001\n        /* \"zkp/Verifier.sol\":78422:78425  eta */\n      dup3\n        /* \"zkp/Verifier.sol\":78410:78420  currentEta */\n      dup3\n        /* \"zkp/Verifier.sol\":78403:78433  mulmod(currentEta, eta, R_MOD) */\n      mulmod\n        /* \"zkp/Verifier.sol\":78389:78433  currentEta := mulmod(currentEta, eta, R_MOD) */\n      swap1\n      pop\n        /* \"zkp/Verifier.sol\":78455:78549  pointMulAndAddIntoDest(VK_LOOKUP_TABLE_2_X_SLOT, currentEta, QUERIES_T_POLY_AGGREGATED_X_SLOT) */\n      tag_172\n        /* \"zkp/Verifier.sol\":78516:78548  QUERIES_T_POLY_AGGREGATED_X_SLOT */\n      0x1140\n        /* \"zkp/Verifier.sol\":78504:78514  currentEta */\n      dup3\n        /* \"zkp/Verifier.sol\":78478:78502  VK_LOOKUP_TABLE_2_X_SLOT */\n      0x0640\n        /* \"zkp/Verifier.sol\":78455:78549  pointMulAndAddIntoDest(VK_LOOKUP_TABLE_2_X_SLOT, currentEta, QUERIES_T_POLY_AGGREGATED_X_SLOT) */\n      tag_24\n      jump\t// in\n    tag_172:\n        /* \"zkp/Verifier.sol\":78608:78613  R_MOD */\n      0x30644e72e131a029b85045b68181585d2833e84879b9709143e1f593f0000001\n        /* \"zkp/Verifier.sol\":78603:78606  eta */\n      dup3\n        /* \"zkp/Verifier.sol\":78591:78601  currentEta */\n      dup3\n        /* \"zkp/Verifier.sol\":78584:78614  mulmod(currentEta, eta, R_MOD) */\n      mulmod\n        /* \"zkp/Verifier.sol\":78570:78614  currentEta := mulmod(currentEta, eta, R_MOD) */\n      swap1\n      pop\n        /* \"zkp/Verifier.sol\":78636:78730  pointMulAndAddIntoDest(VK_LOOKUP_TABLE_3_X_SLOT, currentEta, QUERIES_T_POLY_AGGREGATED_X_SLOT) */\n      tag_173\n        /* \"zkp/Verifier.sol\":78697:78729  QUERIES_T_POLY_AGGREGATED_X_SLOT */\n      0x1140\n        /* \"zkp/Verifier.sol\":78685:78695  currentEta */\n      dup3\n        /* \"zkp/Verifier.sol\":78659:78683  VK_LOOKUP_TABLE_3_X_SLOT */\n      0x0680\n        /* \"zkp/Verifier.sol\":78636:78730  pointMulAndAddIntoDest(VK_LOOKUP_TABLE_3_X_SLOT, currentEta, QUERIES_T_POLY_AGGREGATED_X_SLOT) */\n      tag_24\n      jump\t// in\n    tag_173:\n        /* \"zkp/Verifier.sol\":77967:78748  {... */\n      pop\n      pop\n        /* \"zkp/Verifier.sol\":75150:78762  function prepareQueries() {... */\n      jump\t// out\n        /* \"zkp/Verifier.sol\":80093:90888  function prepareAggregatedCommitment() {... */\n    tag_39:\n        /* \"zkp/Verifier.sol\":80255:80256  1 */\n      0x01\n        /* \"zkp/Verifier.sol\":80273:80288  let firstDCoeff */\n      0x00\n        /* \"zkp/Verifier.sol\":80305:80320  let firstTCoeff */\n      dup1\n        /* \"zkp/Verifier.sol\":80375:80396  QUERIES_AT_Z_0_X_SLOT */\n      0x10c0\n        /* \"zkp/Verifier.sol\":80369:80397  mload(QUERIES_AT_Z_0_X_SLOT) */\n      mload\n        /* \"zkp/Verifier.sol\":80345:80367  AGGREGATED_AT_Z_X_SLOT */\n      0x1180\n        /* \"zkp/Verifier.sol\":80338:80398  mstore(AGGREGATED_AT_Z_X_SLOT, mload(QUERIES_AT_Z_0_X_SLOT)) */\n      mstore\n        /* \"zkp/Verifier.sol\":80452:80473  QUERIES_AT_Z_0_Y_SLOT */\n      0x10e0\n        /* \"zkp/Verifier.sol\":80446:80474  mload(QUERIES_AT_Z_0_Y_SLOT) */\n      mload\n        /* \"zkp/Verifier.sol\":80422:80444  AGGREGATED_AT_Z_Y_SLOT */\n      0x11a0\n        /* \"zkp/Verifier.sol\":80415:80475  mstore(AGGREGATED_AT_Z_Y_SLOT, mload(QUERIES_AT_Z_0_Y_SLOT)) */\n      mstore\n        /* \"zkp/Verifier.sol\":80526:80563  PROOF_QUOTIENT_POLY_OPENING_AT_Z_SLOT */\n      0x0c00\n        /* \"zkp/Verifier.sol\":80520:80564  mload(PROOF_QUOTIENT_POLY_OPENING_AT_Z_SLOT) */\n      mload\n        /* \"zkp/Verifier.sol\":80603:81404  function updateAggregationChallenge(... */\n      jump(tag_176)\n    tag_175:\n        /* \"zkp/Verifier.sol\":80844:80867  newAggregationChallenge */\n      0x00\n        /* \"zkp/Verifier.sol\":80869:80892  newAggregatedOpeningAtZ */\n      dup1\n        /* \"zkp/Verifier.sol\":80999:81004  R_MOD */\n      0x30644e72e131a029b85045b68181585d2833e84879b9709143e1f593f0000001\n        /* \"zkp/Verifier.sol\":80984:80996  STATE_V_SLOT */\n      0x0fa0\n        /* \"zkp/Verifier.sol\":80978:80997  mload(STATE_V_SLOT) */\n      mload\n        /* \"zkp/Verifier.sol\":80953:80976  curAggregationChallenge */\n      dup7\n        /* \"zkp/Verifier.sol\":80946:81005  mulmod(curAggregationChallenge, mload(STATE_V_SLOT), R_MOD) */\n      mulmod\n        /* \"zkp/Verifier.sol\":80919:81005  newAggregationChallenge := mulmod(curAggregationChallenge, mload(STATE_V_SLOT), R_MOD) */\n      swap2\n      pop\n        /* \"zkp/Verifier.sol\":81030:81125  pointMulAndAddIntoDest(queriesCommitmentPoint, newAggregationChallenge, AGGREGATED_AT_Z_X_SLOT) */\n      tag_178\n        /* \"zkp/Verifier.sol\":81102:81124  AGGREGATED_AT_Z_X_SLOT */\n      0x1180\n        /* \"zkp/Verifier.sol\":81077:81100  newAggregationChallenge */\n      dup4\n        /* \"zkp/Verifier.sol\":81053:81075  queriesCommitmentPoint */\n      dup6\n        /* \"zkp/Verifier.sol\":81030:81125  pointMulAndAddIntoDest(queriesCommitmentPoint, newAggregationChallenge, AGGREGATED_AT_Z_X_SLOT) */\n      tag_24\n      jump\t// in\n    tag_178:\n        /* \"zkp/Verifier.sol\":81351:81356  R_MOD */\n      0x30644e72e131a029b85045b68181585d2833e84879b9709143e1f593f0000001\n        /* \"zkp/Verifier.sol\":81315:81320  R_MOD */\n      dup1\n        /* \"zkp/Verifier.sol\":81304:81312  valueAtZ */\n      dup6\n        /* \"zkp/Verifier.sol\":81298:81313  mload(valueAtZ) */\n      mload\n        /* \"zkp/Verifier.sol\":81273:81296  newAggregationChallenge */\n      dup5\n        /* \"zkp/Verifier.sol\":81266:81321  mulmod(newAggregationChallenge, mload(valueAtZ), R_MOD) */\n      mulmod\n        /* \"zkp/Verifier.sol\":81213:81236  curAggregatedOpeningAtZ */\n      dup8\n        /* \"zkp/Verifier.sol\":81177:81382  addmod(... */\n      addmod\n        /* \"zkp/Verifier.sol\":81150:81382  newAggregatedOpeningAtZ := addmod(... */\n      swap1\n      pop\n        /* \"zkp/Verifier.sol\":80603:81404  function updateAggregationChallenge(... */\n      swap5\n      pop\n      swap5\n      swap3\n      pop\n      pop\n      pop\n      jump\t// out\n    tag_176:\n        /* \"zkp/Verifier.sol\":81523:81610  pointAddIntoDest(AGGREGATED_AT_Z_X_SLOT, QUERIES_AT_Z_1_X_SLOT, AGGREGATED_AT_Z_X_SLOT) */\n      tag_179\n        /* \"zkp/Verifier.sol\":81587:81609  AGGREGATED_AT_Z_X_SLOT */\n      0x1180\n        /* \"zkp/Verifier.sol\":81564:81585  QUERIES_AT_Z_1_X_SLOT */\n      0x1100\n        /* \"zkp/Verifier.sol\":81540:81562  AGGREGATED_AT_Z_X_SLOT */\n      0x1180\n        /* \"zkp/Verifier.sol\":81523:81610  pointAddIntoDest(AGGREGATED_AT_Z_X_SLOT, QUERIES_AT_Z_1_X_SLOT, AGGREGATED_AT_Z_X_SLOT) */\n      tag_21\n      jump\t// in\n    tag_179:\n        /* \"zkp/Verifier.sol\":81705:81710  R_MOD */\n      0x30644e72e131a029b85045b68181585d2833e84879b9709143e1f593f0000001\n        /* \"zkp/Verifier.sol\":81690:81702  STATE_V_SLOT */\n      0x0fa0\n        /* \"zkp/Verifier.sol\":81684:81703  mload(STATE_V_SLOT) */\n      mload\n        /* \"zkp/Verifier.sol\":81662:81682  aggregationChallenge */\n      dup6\n        /* \"zkp/Verifier.sol\":81655:81711  mulmod(aggregationChallenge, mload(STATE_V_SLOT), R_MOD) */\n      mulmod\n        /* \"zkp/Verifier.sol\":81631:81711  aggregationChallenge := mulmod(aggregationChallenge, mload(STATE_V_SLOT), R_MOD) */\n      swap4\n      pop\n        /* \"zkp/Verifier.sol\":81946:81951  R_MOD */\n      0x30644e72e131a029b85045b68181585d2833e84879b9709143e1f593f0000001\n        /* \"zkp/Verifier.sol\":81914:81919  R_MOD */\n      dup1\n        /* \"zkp/Verifier.sol\":81869:81911  PROOF_LINEARISATION_POLY_OPENING_AT_Z_SLOT */\n      0x0c20\n        /* \"zkp/Verifier.sol\":81863:81912  mload(PROOF_LINEARISATION_POLY_OPENING_AT_Z_SLOT) */\n      mload\n        /* \"zkp/Verifier.sol\":81841:81861  aggregationChallenge */\n      dup7\n        /* \"zkp/Verifier.sol\":81834:81920  mulmod(aggregationChallenge, mload(PROOF_LINEARISATION_POLY_OPENING_AT_Z_SLOT), R_MOD) */\n      mulmod\n        /* \"zkp/Verifier.sol\":81788:81808  aggregatedOpeningAtZ */\n      dup3\n        /* \"zkp/Verifier.sol\":81756:81973  addmod(... */\n      addmod\n        /* \"zkp/Verifier.sol\":81732:81973  aggregatedOpeningAtZ := addmod(... */\n      swap1\n      pop\n        /* \"zkp/Verifier.sol\":82041:82296  updateAggregationChallenge(... */\n      tag_180\n        /* \"zkp/Verifier.sol\":82254:82274  aggregatedOpeningAtZ */\n      dup2\n        /* \"zkp/Verifier.sol\":82208:82228  aggregationChallenge */\n      dup6\n        /* \"zkp/Verifier.sol\":82145:82182  PROOF_STATE_POLYS_0_OPENING_AT_Z_SLOT */\n      0x0a00\n        /* \"zkp/Verifier.sol\":82093:82119  PROOF_STATE_POLYS_0_X_SLOT */\n      0x0740\n        /* \"zkp/Verifier.sol\":82041:82296  updateAggregationChallenge(... */\n      tag_175\n      jump\t// in\n    tag_180:\n        /* \"zkp/Verifier.sol\":81995:82296  aggregationChallenge, aggregatedOpeningAtZ := updateAggregationChallenge(... */\n      swap2\n      pop\n      swap4\n      pop\n        /* \"zkp/Verifier.sol\":82363:82618  updateAggregationChallenge(... */\n      tag_181\n        /* \"zkp/Verifier.sol\":82576:82596  aggregatedOpeningAtZ */\n      dup2\n        /* \"zkp/Verifier.sol\":82530:82550  aggregationChallenge */\n      dup6\n        /* \"zkp/Verifier.sol\":82467:82504  PROOF_STATE_POLYS_1_OPENING_AT_Z_SLOT */\n      0x0a20\n        /* \"zkp/Verifier.sol\":82415:82441  PROOF_STATE_POLYS_1_X_SLOT */\n      0x0780\n        /* \"zkp/Verifier.sol\":82363:82618  updateAggregationChallenge(... */\n      tag_175\n      jump\t// in\n    tag_181:\n        /* \"zkp/Verifier.sol\":82317:82618  aggregationChallenge, aggregatedOpeningAtZ := updateAggregationChallenge(... */\n      swap2\n      pop\n      swap4\n      pop\n        /* \"zkp/Verifier.sol\":82685:82940  updateAggregationChallenge(... */\n      tag_182\n        /* \"zkp/Verifier.sol\":82898:82918  aggregatedOpeningAtZ */\n      dup2\n        /* \"zkp/Verifier.sol\":82852:82872  aggregationChallenge */\n      dup6\n        /* \"zkp/Verifier.sol\":82789:82826  PROOF_STATE_POLYS_2_OPENING_AT_Z_SLOT */\n      0x0a40\n        /* \"zkp/Verifier.sol\":82737:82763  PROOF_STATE_POLYS_2_X_SLOT */\n      0x07c0\n        /* \"zkp/Verifier.sol\":82685:82940  updateAggregationChallenge(... */\n      tag_175\n      jump\t// in\n    tag_182:\n        /* \"zkp/Verifier.sol\":82639:82940  aggregationChallenge, aggregatedOpeningAtZ := updateAggregationChallenge(... */\n      swap2\n      pop\n      swap4\n      pop\n        /* \"zkp/Verifier.sol\":83251:83256  R_MOD */\n      0x30644e72e131a029b85045b68181585d2833e84879b9709143e1f593f0000001\n        /* \"zkp/Verifier.sol\":83236:83248  STATE_V_SLOT */\n      0x0fa0\n        /* \"zkp/Verifier.sol\":83230:83249  mload(STATE_V_SLOT) */\n      mload\n        /* \"zkp/Verifier.sol\":83208:83228  aggregationChallenge */\n      dup6\n        /* \"zkp/Verifier.sol\":83201:83257  mulmod(aggregationChallenge, mload(STATE_V_SLOT), R_MOD) */\n      mulmod\n        /* \"zkp/Verifier.sol\":83177:83257  aggregationChallenge := mulmod(aggregationChallenge, mload(STATE_V_SLOT), R_MOD) */\n      swap4\n      pop\n        /* \"zkp/Verifier.sol\":83293:83313  aggregationChallenge */\n      dup4\n        /* \"zkp/Verifier.sol\":83278:83313  firstDCoeff := aggregationChallenge */\n      swap3\n      pop\n        /* \"zkp/Verifier.sol\":83543:83548  R_MOD */\n      0x30644e72e131a029b85045b68181585d2833e84879b9709143e1f593f0000001\n        /* \"zkp/Verifier.sol\":83511:83516  R_MOD */\n      dup1\n        /* \"zkp/Verifier.sol\":83471:83508  PROOF_STATE_POLYS_3_OPENING_AT_Z_SLOT */\n      0x0a60\n        /* \"zkp/Verifier.sol\":83465:83509  mload(PROOF_STATE_POLYS_3_OPENING_AT_Z_SLOT) */\n      mload\n        /* \"zkp/Verifier.sol\":83443:83463  aggregationChallenge */\n      dup7\n        /* \"zkp/Verifier.sol\":83436:83517  mulmod(aggregationChallenge, mload(PROOF_STATE_POLYS_3_OPENING_AT_Z_SLOT), R_MOD) */\n      mulmod\n        /* \"zkp/Verifier.sol\":83390:83410  aggregatedOpeningAtZ */\n      dup3\n        /* \"zkp/Verifier.sol\":83358:83570  addmod(... */\n      addmod\n        /* \"zkp/Verifier.sol\":83334:83570  aggregatedOpeningAtZ := addmod(... */\n      swap1\n      pop\n        /* \"zkp/Verifier.sol\":83638:83896  updateAggregationChallenge(... */\n      tag_183\n        /* \"zkp/Verifier.sol\":83854:83874  aggregatedOpeningAtZ */\n      dup2\n        /* \"zkp/Verifier.sol\":83808:83828  aggregationChallenge */\n      dup6\n        /* \"zkp/Verifier.sol\":83742:83782  PROOF_GATE_SELECTORS_0_OPENING_AT_Z_SLOT */\n      0x0aa0\n        /* \"zkp/Verifier.sol\":83690:83716  VK_GATE_SELECTORS_0_X_SLOT */\n      0x0400\n        /* \"zkp/Verifier.sol\":83638:83896  updateAggregationChallenge(... */\n      tag_175\n      jump\t// in\n    tag_183:\n        /* \"zkp/Verifier.sol\":83592:83896  aggregationChallenge, aggregatedOpeningAtZ := updateAggregationChallenge(... */\n      swap2\n      pop\n      swap4\n      pop\n        /* \"zkp/Verifier.sol\":83963:84226  updateAggregationChallenge(... */\n      tag_184\n        /* \"zkp/Verifier.sol\":84184:84204  aggregatedOpeningAtZ */\n      dup2\n        /* \"zkp/Verifier.sol\":84138:84158  aggregationChallenge */\n      dup6\n        /* \"zkp/Verifier.sol\":84064:84112  PROOF_COPY_PERMUTATION_POLYS_0_OPENING_AT_Z_SLOT */\n      0x0ac0\n        /* \"zkp/Verifier.sol\":84015:84038  VK_PERMUTATION_0_X_SLOT */\n      0x0480\n        /* \"zkp/Verifier.sol\":83963:84226  updateAggregationChallenge(... */\n      tag_175\n      jump\t// in\n    tag_184:\n        /* \"zkp/Verifier.sol\":83917:84226  aggregationChallenge, aggregatedOpeningAtZ := updateAggregationChallenge(... */\n      swap2\n      pop\n      swap4\n      pop\n        /* \"zkp/Verifier.sol\":84293:84556  updateAggregationChallenge(... */\n      tag_185\n        /* \"zkp/Verifier.sol\":84514:84534  aggregatedOpeningAtZ */\n      dup2\n        /* \"zkp/Verifier.sol\":84468:84488  aggregationChallenge */\n      dup6\n        /* \"zkp/Verifier.sol\":84394:84442  PROOF_COPY_PERMUTATION_POLYS_1_OPENING_AT_Z_SLOT */\n      0x0ae0\n        /* \"zkp/Verifier.sol\":84345:84368  VK_PERMUTATION_1_X_SLOT */\n      0x04c0\n        /* \"zkp/Verifier.sol\":84293:84556  updateAggregationChallenge(... */\n      tag_175\n      jump\t// in\n    tag_185:\n        /* \"zkp/Verifier.sol\":84247:84556  aggregationChallenge, aggregatedOpeningAtZ := updateAggregationChallenge(... */\n      swap2\n      pop\n      swap4\n      pop\n        /* \"zkp/Verifier.sol\":84623:84886  updateAggregationChallenge(... */\n      tag_186\n        /* \"zkp/Verifier.sol\":84844:84864  aggregatedOpeningAtZ */\n      dup2\n        /* \"zkp/Verifier.sol\":84798:84818  aggregationChallenge */\n      dup6\n        /* \"zkp/Verifier.sol\":84724:84772  PROOF_COPY_PERMUTATION_POLYS_2_OPENING_AT_Z_SLOT */\n      0x0b00\n        /* \"zkp/Verifier.sol\":84675:84698  VK_PERMUTATION_2_X_SLOT */\n      0x0500\n        /* \"zkp/Verifier.sol\":84623:84886  updateAggregationChallenge(... */\n      tag_175\n      jump\t// in\n    tag_186:\n        /* \"zkp/Verifier.sol\":84577:84886  aggregationChallenge, aggregatedOpeningAtZ := updateAggregationChallenge(... */\n      swap2\n      pop\n      swap4\n      pop\n        /* \"zkp/Verifier.sol\":85197:85202  R_MOD */\n      0x30644e72e131a029b85045b68181585d2833e84879b9709143e1f593f0000001\n        /* \"zkp/Verifier.sol\":85182:85194  STATE_V_SLOT */\n      0x0fa0\n        /* \"zkp/Verifier.sol\":85176:85195  mload(STATE_V_SLOT) */\n      mload\n        /* \"zkp/Verifier.sol\":85154:85174  aggregationChallenge */\n      dup6\n        /* \"zkp/Verifier.sol\":85147:85203  mulmod(aggregationChallenge, mload(STATE_V_SLOT), R_MOD) */\n      mulmod\n        /* \"zkp/Verifier.sol\":85123:85203  aggregationChallenge := mulmod(aggregationChallenge, mload(STATE_V_SLOT), R_MOD) */\n      swap4\n      pop\n        /* \"zkp/Verifier.sol\":85239:85259  aggregationChallenge */\n      dup4\n        /* \"zkp/Verifier.sol\":85224:85259  firstTCoeff := aggregationChallenge */\n      swap2\n      pop\n        /* \"zkp/Verifier.sol\":85489:85494  R_MOD */\n      0x30644e72e131a029b85045b68181585d2833e84879b9709143e1f593f0000001\n        /* \"zkp/Verifier.sol\":85457:85462  R_MOD */\n      dup1\n        /* \"zkp/Verifier.sol\":85417:85454  PROOF_LOOKUP_T_POLY_OPENING_AT_Z_SLOT */\n      0x0b80\n        /* \"zkp/Verifier.sol\":85411:85455  mload(PROOF_LOOKUP_T_POLY_OPENING_AT_Z_SLOT) */\n      mload\n        /* \"zkp/Verifier.sol\":85389:85409  aggregationChallenge */\n      dup7\n        /* \"zkp/Verifier.sol\":85382:85463  mulmod(aggregationChallenge, mload(PROOF_LOOKUP_T_POLY_OPENING_AT_Z_SLOT), R_MOD) */\n      mulmod\n        /* \"zkp/Verifier.sol\":85336:85356  aggregatedOpeningAtZ */\n      dup3\n        /* \"zkp/Verifier.sol\":85304:85516  addmod(... */\n      addmod\n        /* \"zkp/Verifier.sol\":85280:85516  aggregatedOpeningAtZ := addmod(... */\n      swap1\n      pop\n        /* \"zkp/Verifier.sol\":85584:85845  updateAggregationChallenge(... */\n      tag_187\n        /* \"zkp/Verifier.sol\":85803:85823  aggregatedOpeningAtZ */\n      dup2\n        /* \"zkp/Verifier.sol\":85757:85777  aggregationChallenge */\n      dup6\n        /* \"zkp/Verifier.sol\":85687:85731  PROOF_LOOKUP_SELECTOR_POLY_OPENING_AT_Z_SLOT */\n      0x0bc0\n        /* \"zkp/Verifier.sol\":85636:85661  VK_LOOKUP_SELECTOR_X_SLOT */\n      0x0580\n        /* \"zkp/Verifier.sol\":85584:85845  updateAggregationChallenge(... */\n      tag_175\n      jump\t// in\n    tag_187:\n        /* \"zkp/Verifier.sol\":85538:85845  aggregationChallenge, aggregatedOpeningAtZ := updateAggregationChallenge(... */\n      swap2\n      pop\n      swap4\n      pop\n        /* \"zkp/Verifier.sol\":85912:86177  updateAggregationChallenge(... */\n      tag_188\n        /* \"zkp/Verifier.sol\":86135:86155  aggregatedOpeningAtZ */\n      dup2\n        /* \"zkp/Verifier.sol\":86089:86109  aggregationChallenge */\n      dup6\n        /* \"zkp/Verifier.sol\":86017:86063  PROOF_LOOKUP_TABLE_TYPE_POLY_OPENING_AT_Z_SLOT */\n      0x0be0\n        /* \"zkp/Verifier.sol\":85964:85991  VK_LOOKUP_TABLE_TYPE_X_SLOT */\n      0x06c0\n        /* \"zkp/Verifier.sol\":85912:86177  updateAggregationChallenge(... */\n      tag_175\n      jump\t// in\n    tag_188:\n        /* \"zkp/Verifier.sol\":85866:86177  aggregationChallenge, aggregatedOpeningAtZ := updateAggregationChallenge(... */\n      swap2\n      pop\n      swap4\n      pop\n        /* \"zkp/Verifier.sol\":86249:86269  aggregatedOpeningAtZ */\n      dup1\n        /* \"zkp/Verifier.sol\":86219:86247  AGGREGATED_OPENING_AT_Z_SLOT */\n      0x1200\n        /* \"zkp/Verifier.sol\":86212:86270  mstore(AGGREGATED_OPENING_AT_Z_SLOT, aggregatedOpeningAtZ) */\n      mstore\n        /* \"zkp/Verifier.sol\":86436:86441  R_MOD */\n      0x30644e72e131a029b85045b68181585d2833e84879b9709143e1f593f0000001\n        /* \"zkp/Verifier.sol\":86421:86433  STATE_V_SLOT */\n      0x0fa0\n        /* \"zkp/Verifier.sol\":86415:86434  mload(STATE_V_SLOT) */\n      mload\n        /* \"zkp/Verifier.sol\":86393:86413  aggregationChallenge */\n      dup6\n        /* \"zkp/Verifier.sol\":86386:86442  mulmod(aggregationChallenge, mload(STATE_V_SLOT), R_MOD) */\n      mulmod\n        /* \"zkp/Verifier.sol\":86362:86442  aggregationChallenge := mulmod(aggregationChallenge, mload(STATE_V_SLOT), R_MOD) */\n      swap4\n      pop\n        /* \"zkp/Verifier.sol\":86673:86678  R_MOD */\n      0x30644e72e131a029b85045b68181585d2833e84879b9709143e1f593f0000001\n        /* \"zkp/Verifier.sol\":86645:86650  R_MOD */\n      dup1\n        /* \"zkp/Verifier.sol\":86630:86642  STATE_U_SLOT */\n      0x0fc0\n        /* \"zkp/Verifier.sol\":86624:86643  mload(STATE_U_SLOT) */\n      mload\n        /* \"zkp/Verifier.sol\":86602:86622  aggregationChallenge */\n      dup7\n        /* \"zkp/Verifier.sol\":86595:86651  mulmod(aggregationChallenge, mload(STATE_U_SLOT), R_MOD) */\n      mulmod\n        /* \"zkp/Verifier.sol\":86522:86572  COPY_PERMUTATION_FIRST_AGGREGATED_COMMITMENT_COEFF */\n      0x1340\n        /* \"zkp/Verifier.sol\":86516:86573  mload(COPY_PERMUTATION_FIRST_AGGREGATED_COMMITMENT_COEFF) */\n      mload\n        /* \"zkp/Verifier.sol\":86488:86696  addmod(... */\n      addmod\n        /* \"zkp/Verifier.sol\":86714:86905  pointMulIntoDest(... */\n      tag_189\n        /* \"zkp/Verifier.sol\":86859:86887  AGGREGATED_AT_Z_OMEGA_X_SLOT */\n      0x11c0\n        /* \"zkp/Verifier.sol\":86817:86837  copyPermutationCoeff */\n      dup3\n        /* \"zkp/Verifier.sol\":86752:86795  PROOF_COPY_PERMUTATION_GRAND_PRODUCT_X_SLOT */\n      0x0840\n        /* \"zkp/Verifier.sol\":86714:86905  pointMulIntoDest(... */\n      tag_20\n      jump\t// in\n    tag_189:\n        /* \"zkp/Verifier.sol\":87114:87119  R_MOD */\n      0x30644e72e131a029b85045b68181585d2833e84879b9709143e1f593f0000001\n        /* \"zkp/Verifier.sol\":87072:87092  aggregationChallenge */\n      dup6\n        /* \"zkp/Verifier.sol\":86989:87049  PROOF_COPY_PERMUTATION_GRAND_PRODUCT_OPENING_AT_Z_OMEGA_SLOT */\n      0x0b20\n        /* \"zkp/Verifier.sol\":86983:87050  mload(PROOF_COPY_PERMUTATION_GRAND_PRODUCT_OPENING_AT_Z_OMEGA_SLOT) */\n      mload\n        /* \"zkp/Verifier.sol\":86955:87137  mulmod(... */\n      mulmod\n        /* \"zkp/Verifier.sol\":87177:88288  function updateAggregationChallenge(... */\n      jump(tag_191)\n    tag_190:\n        /* \"zkp/Verifier.sol\":87469:87492  newAggregationChallenge */\n      0x00\n        /* \"zkp/Verifier.sol\":87494:87523  newAggregatedOpeningAtZ_Omega */\n      dup1\n        /* \"zkp/Verifier.sol\":87630:87635  R_MOD */\n      0x30644e72e131a029b85045b68181585d2833e84879b9709143e1f593f0000001\n        /* \"zkp/Verifier.sol\":87615:87627  STATE_V_SLOT */\n      0x0fa0\n        /* \"zkp/Verifier.sol\":87609:87628  mload(STATE_V_SLOT) */\n      mload\n        /* \"zkp/Verifier.sol\":87584:87607  curAggregationChallenge */\n      dup8\n        /* \"zkp/Verifier.sol\":87577:87636  mulmod(curAggregationChallenge, mload(STATE_V_SLOT), R_MOD) */\n      mulmod\n        /* \"zkp/Verifier.sol\":87550:87636  newAggregationChallenge := mulmod(curAggregationChallenge, mload(STATE_V_SLOT), R_MOD) */\n      swap2\n      pop\n        /* \"zkp/Verifier.sol\":87847:87852  R_MOD */\n      0x30644e72e131a029b85045b68181585d2833e84879b9709143e1f593f0000001\n        /* \"zkp/Verifier.sol\":87811:87816  R_MOD */\n      dup1\n        /* \"zkp/Verifier.sol\":87796:87808  STATE_U_SLOT */\n      0x0fc0\n        /* \"zkp/Verifier.sol\":87790:87809  mload(STATE_U_SLOT) */\n      mload\n        /* \"zkp/Verifier.sol\":87765:87788  newAggregationChallenge */\n      dup5\n        /* \"zkp/Verifier.sol\":87758:87817  mulmod(newAggregationChallenge, mload(STATE_U_SLOT), R_MOD) */\n      mulmod\n        /* \"zkp/Verifier.sol\":87715:87728  previousCoeff */\n      dup7\n        /* \"zkp/Verifier.sol\":87679:87878  addmod(... */\n      addmod\n        /* \"zkp/Verifier.sol\":87903:87991  pointMulAndAddIntoDest(queriesCommitmentPoint, finalCoeff, AGGREGATED_AT_Z_OMEGA_X_SLOT) */\n      tag_193\n        /* \"zkp/Verifier.sol\":87962:87990  AGGREGATED_AT_Z_OMEGA_X_SLOT */\n      0x11c0\n        /* \"zkp/Verifier.sol\":87950:87960  finalCoeff */\n      dup3\n        /* \"zkp/Verifier.sol\":87926:87948  queriesCommitmentPoint */\n      dup7\n        /* \"zkp/Verifier.sol\":87903:87991  pointMulAndAddIntoDest(queriesCommitmentPoint, finalCoeff, AGGREGATED_AT_Z_OMEGA_X_SLOT) */\n      tag_24\n      jump\t// in\n    tag_193:\n        /* \"zkp/Verifier.sol\":88235:88240  R_MOD */\n      0x30644e72e131a029b85045b68181585d2833e84879b9709143e1f593f0000001\n        /* \"zkp/Verifier.sol\":88199:88204  R_MOD */\n      dup1\n        /* \"zkp/Verifier.sol\":88182:88196  valueAtZ_Omega */\n      dup7\n        /* \"zkp/Verifier.sol\":88176:88197  mload(valueAtZ_Omega) */\n      mload\n        /* \"zkp/Verifier.sol\":88151:88174  newAggregationChallenge */\n      dup6\n        /* \"zkp/Verifier.sol\":88144:88205  mulmod(newAggregationChallenge, mload(valueAtZ_Omega), R_MOD) */\n      mulmod\n        /* \"zkp/Verifier.sol\":88085:88114  curAggregatedOpeningAtZ_Omega */\n      dup10\n        /* \"zkp/Verifier.sol\":88049:88266  addmod(... */\n      addmod\n        /* \"zkp/Verifier.sol\":88016:88266  newAggregatedOpeningAtZ_Omega := addmod(... */\n      swap2\n      pop\n        /* \"zkp/Verifier.sol\":87524:88288  {... */\n      pop\n        /* \"zkp/Verifier.sol\":87177:88288  function updateAggregationChallenge(... */\n      swap6\n      pop\n      swap6\n      swap4\n      pop\n      pop\n      pop\n      pop\n      jump\t// out\n    tag_191:\n        /* \"zkp/Verifier.sol\":88361:88664  updateAggregationChallenge(... */\n      tag_194\n        /* \"zkp/Verifier.sol\":88617:88642  aggregatedOpeningAtZOmega */\n      dup2\n        /* \"zkp/Verifier.sol\":88571:88591  aggregationChallenge */\n      dup8\n        /* \"zkp/Verifier.sol\":88534:88545  firstDCoeff */\n      dup8\n        /* \"zkp/Verifier.sol\":88465:88508  PROOF_STATE_POLYS_3_OPENING_AT_Z_OMEGA_SLOT */\n      0x0a80\n        /* \"zkp/Verifier.sol\":88413:88439  PROOF_STATE_POLYS_3_X_SLOT */\n      0x0800\n        /* \"zkp/Verifier.sol\":88361:88664  updateAggregationChallenge(... */\n      tag_190\n      jump\t// in\n    tag_194:\n        /* \"zkp/Verifier.sol\":88310:88664  aggregationChallenge, aggregatedOpeningAtZOmega := updateAggregationChallenge(... */\n      swap2\n      pop\n      swap6\n      pop\n        /* \"zkp/Verifier.sol\":88736:89077  updateAggregationChallenge(... */\n      tag_195\n        /* \"zkp/Verifier.sol\":89030:89055  aggregatedOpeningAtZOmega */\n      dup2\n        /* \"zkp/Verifier.sol\":88984:89004  aggregationChallenge */\n      dup8\n        /* \"zkp/Verifier.sol\":88915:88957  LOOKUP_S_FIRST_AGGREGATED_COMMITMENT_COEFF */\n      0x1380\n        /* \"zkp/Verifier.sol\":88909:88958  mload(LOOKUP_S_FIRST_AGGREGATED_COMMITMENT_COEFF) */\n      mload\n        /* \"zkp/Verifier.sol\":88840:88883  PROOF_LOOKUP_S_POLY_OPENING_AT_Z_OMEGA_SLOT */\n      0x0b40\n        /* \"zkp/Verifier.sol\":88788:88814  PROOF_LOOKUP_S_POLY_X_SLOT */\n      0x0880\n        /* \"zkp/Verifier.sol\":88736:89077  updateAggregationChallenge(... */\n      tag_190\n      jump\t// in\n    tag_195:\n        /* \"zkp/Verifier.sol\":88685:89077  aggregationChallenge, aggregatedOpeningAtZOmega := updateAggregationChallenge(... */\n      swap2\n      pop\n      swap6\n      pop\n        /* \"zkp/Verifier.sol\":89149:89516  updateAggregationChallenge(... */\n      tag_196\n        /* \"zkp/Verifier.sol\":89469:89494  aggregatedOpeningAtZOmega */\n      dup2\n        /* \"zkp/Verifier.sol\":89423:89443  aggregationChallenge */\n      dup8\n        /* \"zkp/Verifier.sol\":89342:89396  LOOKUP_GRAND_PRODUCT_FIRST_AGGREGATED_COMMITMENT_COEFF */\n      0x1360\n        /* \"zkp/Verifier.sol\":89336:89397  mload(LOOKUP_GRAND_PRODUCT_FIRST_AGGREGATED_COMMITMENT_COEFF) */\n      mload\n        /* \"zkp/Verifier.sol\":89260:89310  PROOF_LOOKUP_GRAND_PRODUCT_OPENING_AT_Z_OMEGA_SLOT */\n      0x0b60\n        /* \"zkp/Verifier.sol\":89201:89234  PROOF_LOOKUP_GRAND_PRODUCT_X_SLOT */\n      0x08c0\n        /* \"zkp/Verifier.sol\":89149:89516  updateAggregationChallenge(... */\n      tag_190\n      jump\t// in\n    tag_196:\n        /* \"zkp/Verifier.sol\":89098:89516  aggregationChallenge, aggregatedOpeningAtZOmega := updateAggregationChallenge(... */\n      swap2\n      pop\n      swap6\n      pop\n        /* \"zkp/Verifier.sol\":89588:89897  updateAggregationChallenge(... */\n      tag_197\n        /* \"zkp/Verifier.sol\":89850:89875  aggregatedOpeningAtZOmega */\n      dup2\n        /* \"zkp/Verifier.sol\":89804:89824  aggregationChallenge */\n      dup8\n        /* \"zkp/Verifier.sol\":89767:89778  firstTCoeff */\n      dup7\n        /* \"zkp/Verifier.sol\":89698:89741  PROOF_LOOKUP_T_POLY_OPENING_AT_Z_OMEGA_SLOT */\n      0x0ba0\n        /* \"zkp/Verifier.sol\":89640:89672  QUERIES_T_POLY_AGGREGATED_X_SLOT */\n      0x1140\n        /* \"zkp/Verifier.sol\":89588:89897  updateAggregationChallenge(... */\n      tag_190\n      jump\t// in\n    tag_197:\n        /* \"zkp/Verifier.sol\":89537:89897  aggregationChallenge, aggregatedOpeningAtZOmega := updateAggregationChallenge(... */\n      swap2\n      pop\n      swap6\n      pop\n        /* \"zkp/Verifier.sol\":89975:90000  aggregatedOpeningAtZOmega */\n      dup1\n        /* \"zkp/Verifier.sol\":89939:89973  AGGREGATED_OPENING_AT_Z_OMEGA_SLOT */\n      0x1220\n        /* \"zkp/Verifier.sol\":89932:90001  mstore(AGGREGATED_OPENING_AT_Z_OMEGA_SLOT, aggregatedOpeningAtZOmega) */\n      mstore\n        /* \"zkp/Verifier.sol\":90101:90113  STATE_U_SLOT */\n      0x0fc0\n        /* \"zkp/Verifier.sol\":90095:90114  mload(STATE_U_SLOT) */\n      mload\n        /* \"zkp/Verifier.sol\":90155:90339  pointAddIntoDest(... */\n      tag_198\n        /* \"zkp/Verifier.sol\":90287:90321  PAIRING_PAIR_WITH_GENERATOR_X_SLOT */\n      0x1280\n        /* \"zkp/Verifier.sol\":90237:90265  AGGREGATED_AT_Z_OMEGA_X_SLOT */\n      0x11c0\n        /* \"zkp/Verifier.sol\":90193:90215  AGGREGATED_AT_Z_X_SLOT */\n      0x1180\n        /* \"zkp/Verifier.sol\":90155:90339  pointAddIntoDest(... */\n      tag_21\n      jump\t// in\n    tag_198:\n        /* \"zkp/Verifier.sol\":90632:90637  R_MOD */\n      0x30644e72e131a029b85045b68181585d2833e84879b9709143e1f593f0000001\n        /* \"zkp/Verifier.sol\":90581:90609  AGGREGATED_OPENING_AT_Z_SLOT */\n      0x1200\n        /* \"zkp/Verifier.sol\":90575:90610  mload(AGGREGATED_OPENING_AT_Z_SLOT) */\n      mload\n        /* \"zkp/Verifier.sol\":90547:90552  R_MOD */\n      0x30644e72e131a029b85045b68181585d2833e84879b9709143e1f593f0000001\n        /* \"zkp/Verifier.sol\":90544:90545  u */\n      dup4\n        /* \"zkp/Verifier.sol\":90507:90541  AGGREGATED_OPENING_AT_Z_OMEGA_SLOT */\n      0x1220\n        /* \"zkp/Verifier.sol\":90501:90542  mload(AGGREGATED_OPENING_AT_Z_OMEGA_SLOT) */\n      mload\n        /* \"zkp/Verifier.sol\":90494:90553  mulmod(mload(AGGREGATED_OPENING_AT_Z_OMEGA_SLOT), u, R_MOD) */\n      mulmod\n        /* \"zkp/Verifier.sol\":90466:90655  addmod(... */\n      addmod\n        /* \"zkp/Verifier.sol\":90709:90710  1 */\n      0x01\n        /* \"zkp/Verifier.sol\":90680:90707  PAIRING_BUFFER_POINT_X_SLOT */\n      0x1240\n        /* \"zkp/Verifier.sol\":90673:90711  mstore(PAIRING_BUFFER_POINT_X_SLOT, 1) */\n      mstore\n        /* \"zkp/Verifier.sol\":90764:90765  2 */\n      0x02\n        /* \"zkp/Verifier.sol\":90735:90762  PAIRING_BUFFER_POINT_Y_SLOT */\n      0x1260\n        /* \"zkp/Verifier.sol\":90728:90766  mstore(PAIRING_BUFFER_POINT_Y_SLOT, 2) */\n      mstore\n        /* \"zkp/Verifier.sol\":90783:90874  pointMulIntoDest(PAIRING_BUFFER_POINT_X_SLOT, aggregatedValue, PAIRING_BUFFER_POINT_X_SLOT) */\n      tag_199\n        /* \"zkp/Verifier.sol\":90846:90873  PAIRING_BUFFER_POINT_X_SLOT */\n      0x1240\n        /* \"zkp/Verifier.sol\":90829:90844  aggregatedValue */\n      dup3\n        /* \"zkp/Verifier.sol\":90800:90827  PAIRING_BUFFER_POINT_X_SLOT */\n      0x1240\n        /* \"zkp/Verifier.sol\":90783:90874  pointMulIntoDest(PAIRING_BUFFER_POINT_X_SLOT, aggregatedValue, PAIRING_BUFFER_POINT_X_SLOT) */\n      tag_20\n      jump\t// in\n    tag_199:\n        /* \"zkp/Verifier.sol\":80132:90888  {... */\n      pop\n      pop\n      pop\n      pop\n      pop\n      pop\n      pop\n      pop\n        /* \"zkp/Verifier.sol\":80093:90888  function prepareAggregatedCommitment() {... */\n      jump\t// out\n        /* \"zkp/Verifier.sol\":91941:94579  function finalPairing() {... */\n    tag_40:\n        /* \"zkp/Verifier.sol\":91998:92010  STATE_U_SLOT */\n      0x0fc0\n        /* \"zkp/Verifier.sol\":91992:92011  mload(STATE_U_SLOT) */\n      mload\n        /* \"zkp/Verifier.sol\":92043:92055  STATE_Z_SLOT */\n      0x0fe0\n        /* \"zkp/Verifier.sol\":92037:92056  mload(STATE_Z_SLOT) */\n      mload\n        /* \"zkp/Verifier.sol\":92122:92127  R_MOD */\n      0x30644e72e131a029b85045b68181585d2833e84879b9709143e1f593f0000001\n        /* \"zkp/Verifier.sol\":92115:92120  OMEGA */\n      0x1dba8b5bdd64ef6ce29a9039aca3c0e524395c43b9227b96c75090cc6cc7ec97\n        /* \"zkp/Verifier.sol\":92100:92112  STATE_Z_SLOT */\n      0x0fe0\n        /* \"zkp/Verifier.sol\":92094:92113  mload(STATE_Z_SLOT) */\n      mload\n        /* \"zkp/Verifier.sol\":92087:92128  mulmod(mload(STATE_Z_SLOT), OMEGA, R_MOD) */\n      mulmod\n        /* \"zkp/Verifier.sol\":92175:92254  pointSubAssign(PAIRING_PAIR_WITH_GENERATOR_X_SLOT, PAIRING_BUFFER_POINT_X_SLOT) */\n      tag_201\n        /* \"zkp/Verifier.sol\":92226:92253  PAIRING_BUFFER_POINT_X_SLOT */\n      0x1240\n        /* \"zkp/Verifier.sol\":92190:92224  PAIRING_PAIR_WITH_GENERATOR_X_SLOT */\n      0x1280\n        /* \"zkp/Verifier.sol\":92175:92254  pointSubAssign(PAIRING_PAIR_WITH_GENERATOR_X_SLOT, PAIRING_BUFFER_POINT_X_SLOT) */\n      tag_22\n      jump\t// in\n    tag_201:\n        /* \"zkp/Verifier.sol\":92323:92417  pointMulAndAddIntoDest(PROOF_OPENING_PROOF_AT_Z_X_SLOT, z, PAIRING_PAIR_WITH_GENERATOR_X_SLOT) */\n      tag_202\n        /* \"zkp/Verifier.sol\":92382:92416  PAIRING_PAIR_WITH_GENERATOR_X_SLOT */\n      0x1280\n        /* \"zkp/Verifier.sol\":92379:92380  z */\n      dup4\n        /* \"zkp/Verifier.sol\":92346:92377  PROOF_OPENING_PROOF_AT_Z_X_SLOT */\n      0x0c40\n        /* \"zkp/Verifier.sol\":92323:92417  pointMulAndAddIntoDest(PROOF_OPENING_PROOF_AT_Z_X_SLOT, z, PAIRING_PAIR_WITH_GENERATOR_X_SLOT) */\n      tag_24\n      jump\t// in\n    tag_202:\n        /* \"zkp/Verifier.sol\":92434:92635  pointMulAndAddIntoDest(... */\n      tag_203\n        /* \"zkp/Verifier.sol\":92583:92617  PAIRING_PAIR_WITH_GENERATOR_X_SLOT */\n      0x1280\n        /* \"zkp/Verifier.sol\":92555:92560  R_MOD */\n      0x30644e72e131a029b85045b68181585d2833e84879b9709143e1f593f0000001\n        /* \"zkp/Verifier.sol\":92552:92553  u */\n      dup6\n        /* \"zkp/Verifier.sol\":92544:92550  zOmega */\n      dup5\n        /* \"zkp/Verifier.sol\":92537:92561  mulmod(zOmega, u, R_MOD) */\n      mulmod\n        /* \"zkp/Verifier.sol\":92478:92515  PROOF_OPENING_PROOF_AT_Z_OMEGA_X_SLOT */\n      0x0c80\n        /* \"zkp/Verifier.sol\":92434:92635  pointMulAndAddIntoDest(... */\n      tag_24\n      jump\t// in\n    tag_203:\n        /* \"zkp/Verifier.sol\":92728:92759  PROOF_OPENING_PROOF_AT_Z_X_SLOT */\n      0x0c40\n        /* \"zkp/Verifier.sol\":92722:92760  mload(PROOF_OPENING_PROOF_AT_Z_X_SLOT) */\n      mload\n        /* \"zkp/Verifier.sol\":92694:92720  PAIRING_PAIR_WITH_X_X_SLOT */\n      0x1300\n        /* \"zkp/Verifier.sol\":92687:92761  mstore(PAIRING_PAIR_WITH_X_X_SLOT, mload(PROOF_OPENING_PROOF_AT_Z_X_SLOT)) */\n      mstore\n        /* \"zkp/Verifier.sol\":92819:92850  PROOF_OPENING_PROOF_AT_Z_Y_SLOT */\n      0x0c60\n        /* \"zkp/Verifier.sol\":92813:92851  mload(PROOF_OPENING_PROOF_AT_Z_Y_SLOT) */\n      mload\n        /* \"zkp/Verifier.sol\":92785:92811  PAIRING_PAIR_WITH_X_Y_SLOT */\n      0x1320\n        /* \"zkp/Verifier.sol\":92778:92852  mstore(PAIRING_PAIR_WITH_X_Y_SLOT, mload(PROOF_OPENING_PROOF_AT_Z_Y_SLOT)) */\n      mstore\n        /* \"zkp/Verifier.sol\":92869:92961  pointMulAndAddIntoDest(PROOF_OPENING_PROOF_AT_Z_OMEGA_X_SLOT, u, PAIRING_PAIR_WITH_X_X_SLOT) */\n      tag_204\n        /* \"zkp/Verifier.sol\":92934:92960  PAIRING_PAIR_WITH_X_X_SLOT */\n      0x1300\n        /* \"zkp/Verifier.sol\":92931:92932  u */\n      dup5\n        /* \"zkp/Verifier.sol\":92892:92929  PROOF_OPENING_PROOF_AT_Z_OMEGA_X_SLOT */\n      0x0c80\n        /* \"zkp/Verifier.sol\":92869:92961  pointMulAndAddIntoDest(PROOF_OPENING_PROOF_AT_Z_OMEGA_X_SLOT, u, PAIRING_PAIR_WITH_X_X_SLOT) */\n      tag_24\n      jump\t// in\n    tag_204:\n        /* \"zkp/Verifier.sol\":92978:93017  pointNegate(PAIRING_PAIR_WITH_X_X_SLOT) */\n      tag_205\n        /* \"zkp/Verifier.sol\":92990:93016  PAIRING_PAIR_WITH_X_X_SLOT */\n      0x1300\n        /* \"zkp/Verifier.sol\":92978:93017  pointNegate(PAIRING_PAIR_WITH_X_X_SLOT) */\n      tag_25\n      jump\t// in\n    tag_205:\n        /* \"zkp/Verifier.sol\":93098:93120  VK_RECURSIVE_FLAG_SLOT */\n      0x0700\n        /* \"zkp/Verifier.sol\":93092:93121  mload(VK_RECURSIVE_FLAG_SLOT) */\n      mload\n        /* \"zkp/Verifier.sol\":93089:93413  if mload(VK_RECURSIVE_FLAG_SLOT) {... */\n      iszero\n      tag_206\n      jumpi\n        /* \"zkp/Verifier.sol\":93167:93172  R_MOD */\n      0x30644e72e131a029b85045b68181585d2833e84879b9709143e1f593f0000001\n        /* \"zkp/Verifier.sol\":93164:93165  u */\n      dup4\n        /* \"zkp/Verifier.sol\":93161:93162  u */\n      dup5\n        /* \"zkp/Verifier.sol\":93154:93173  mulmod(u, u, R_MOD) */\n      mulmod\n        /* \"zkp/Verifier.sol\":93194:93288  pointMulAndAddIntoDest(PROOF_RECURSIVE_PART_P1_X_SLOT, uu, PAIRING_PAIR_WITH_GENERATOR_X_SLOT) */\n      tag_207\n        /* \"zkp/Verifier.sol\":93253:93287  PAIRING_PAIR_WITH_GENERATOR_X_SLOT */\n      0x1280\n        /* \"zkp/Verifier.sol\":93249:93251  uu */\n      dup3\n        /* \"zkp/Verifier.sol\":93217:93247  PROOF_RECURSIVE_PART_P1_X_SLOT */\n      0x0cc0\n        /* \"zkp/Verifier.sol\":93194:93288  pointMulAndAddIntoDest(PROOF_RECURSIVE_PART_P1_X_SLOT, uu, PAIRING_PAIR_WITH_GENERATOR_X_SLOT) */\n      tag_24\n      jump\t// in\n    tag_207:\n        /* \"zkp/Verifier.sol\":93309:93395  pointMulAndAddIntoDest(PROOF_RECURSIVE_PART_P2_X_SLOT, uu, PAIRING_PAIR_WITH_X_X_SLOT) */\n      tag_208\n        /* \"zkp/Verifier.sol\":93368:93394  PAIRING_PAIR_WITH_X_X_SLOT */\n      0x1300\n        /* \"zkp/Verifier.sol\":93364:93366  uu */\n      dup3\n        /* \"zkp/Verifier.sol\":93332:93362  PROOF_RECURSIVE_PART_P2_X_SLOT */\n      0x0d00\n        /* \"zkp/Verifier.sol\":93309:93395  pointMulAndAddIntoDest(PROOF_RECURSIVE_PART_P2_X_SLOT, uu, PAIRING_PAIR_WITH_X_X_SLOT) */\n      tag_24\n      jump\t// in\n    tag_208:\n        /* \"zkp/Verifier.sol\":93122:93413  {... */\n      pop\n        /* \"zkp/Verifier.sol\":93089:93413  if mload(VK_RECURSIVE_FLAG_SLOT) {... */\n    tag_206:\n        /* \"zkp/Verifier.sol\":93510:93544  PAIRING_PAIR_WITH_GENERATOR_X_SLOT */\n      0x1280\n        /* \"zkp/Verifier.sol\":93504:93545  mload(PAIRING_PAIR_WITH_GENERATOR_X_SLOT) */\n      mload\n        /* \"zkp/Verifier.sol\":93497:93502  0x000 */\n      0x00\n        /* \"zkp/Verifier.sol\":93490:93546  mstore(0x000, mload(PAIRING_PAIR_WITH_GENERATOR_X_SLOT)) */\n      mstore\n        /* \"zkp/Verifier.sol\":93587:93621  PAIRING_PAIR_WITH_GENERATOR_Y_SLOT */\n      0x12a0\n        /* \"zkp/Verifier.sol\":93581:93622  mload(PAIRING_PAIR_WITH_GENERATOR_Y_SLOT) */\n      mload\n        /* \"zkp/Verifier.sol\":93574:93579  0x020 */\n      0x20\n        /* \"zkp/Verifier.sol\":93567:93623  mstore(0x020, mload(PAIRING_PAIR_WITH_GENERATOR_Y_SLOT)) */\n      mstore\n        /* \"zkp/Verifier.sol\":93659:93675  G2_ELEMENTS_0_X1 */\n      0x198e9393920d483a7260bfb731fb5d25f1aa493335a9e71297e485b7aef312c2\n        /* \"zkp/Verifier.sol\":93652:93657  0x040 */\n      0x40\n        /* \"zkp/Verifier.sol\":93645:93676  mstore(0x040, G2_ELEMENTS_0_X1) */\n      mstore\n        /* \"zkp/Verifier.sol\":93711:93727  G2_ELEMENTS_0_X2 */\n      0x1800deef121f1e76426a00665e5c4479674322d4f75edadd46debd5cd992f6ed\n        /* \"zkp/Verifier.sol\":93704:93709  0x060 */\n      0x60\n        /* \"zkp/Verifier.sol\":93697:93728  mstore(0x060, G2_ELEMENTS_0_X2) */\n      mstore\n        /* \"zkp/Verifier.sol\":93763:93779  G2_ELEMENTS_0_Y1 */\n      0x090689d0585ff075ec9e99ad690c3395bc4b313370b38ef355acdadcd122975b\n        /* \"zkp/Verifier.sol\":93756:93761  0x080 */\n      0x80\n        /* \"zkp/Verifier.sol\":93749:93780  mstore(0x080, G2_ELEMENTS_0_Y1) */\n      mstore\n        /* \"zkp/Verifier.sol\":93815:93831  G2_ELEMENTS_0_Y2 */\n      0x12c85ea5db8c6deb4aab71808dcb408fe3d1e7690c43d37b4ce6cc0166fa7daa\n        /* \"zkp/Verifier.sol\":93808:93813  0x0a0 */\n      0xa0\n        /* \"zkp/Verifier.sol\":93801:93832  mstore(0x0a0, G2_ELEMENTS_0_Y2) */\n      mstore\n        /* \"zkp/Verifier.sol\":93874:93900  PAIRING_PAIR_WITH_X_X_SLOT */\n      0x1300\n        /* \"zkp/Verifier.sol\":93868:93901  mload(PAIRING_PAIR_WITH_X_X_SLOT) */\n      mload\n        /* \"zkp/Verifier.sol\":93861:93866  0x0c0 */\n      0xc0\n        /* \"zkp/Verifier.sol\":93854:93902  mstore(0x0c0, mload(PAIRING_PAIR_WITH_X_X_SLOT)) */\n      mstore\n        /* \"zkp/Verifier.sol\":93943:93969  PAIRING_PAIR_WITH_X_Y_SLOT */\n      0x1320\n        /* \"zkp/Verifier.sol\":93937:93970  mload(PAIRING_PAIR_WITH_X_Y_SLOT) */\n      mload\n        /* \"zkp/Verifier.sol\":93930:93935  0x0e0 */\n      0xe0\n        /* \"zkp/Verifier.sol\":93923:93971  mstore(0x0e0, mload(PAIRING_PAIR_WITH_X_Y_SLOT)) */\n      mstore\n        /* \"zkp/Verifier.sol\":94007:94023  G2_ELEMENTS_1_X1 */\n      0x260e01b251f6f1c7e7ff4e580791dee8ea51d87a358e038b4efe30fac09383c1\n        /* \"zkp/Verifier.sol\":94000:94005  0x100 */\n      0x0100\n        /* \"zkp/Verifier.sol\":93993:94024  mstore(0x100, G2_ELEMENTS_1_X1) */\n      mstore\n        /* \"zkp/Verifier.sol\":94059:94075  G2_ELEMENTS_1_X2 */\n      0x0118c4d5b837bcc2bc89b5b398b5974e9f5944073b32078b7e231fec938883b0\n        /* \"zkp/Verifier.sol\":94052:94057  0x120 */\n      0x0120\n        /* \"zkp/Verifier.sol\":94045:94076  mstore(0x120, G2_ELEMENTS_1_X2) */\n      mstore\n        /* \"zkp/Verifier.sol\":94111:94127  G2_ELEMENTS_1_Y1 */\n      0x04fc6369f7110fe3d25156c1bb9a72859cf2a04641f99ba4ee413c80da6a5fe4\n        /* \"zkp/Verifier.sol\":94104:94109  0x140 */\n      0x0140\n        /* \"zkp/Verifier.sol\":94097:94128  mstore(0x140, G2_ELEMENTS_1_Y1) */\n      mstore\n        /* \"zkp/Verifier.sol\":94163:94179  G2_ELEMENTS_1_Y2 */\n      0x22febda3c0c0632a56475b4214e5615e11e6dd3f96e6cea2854a87d4dacc5e55\n        /* \"zkp/Verifier.sol\":94156:94161  0x160 */\n      0x0160\n        /* \"zkp/Verifier.sol\":94149:94180  mstore(0x160, G2_ELEMENTS_1_Y2) */\n      mstore\n        /* \"zkp/Verifier.sol\":94254:94258  0x20 */\n      0x20\n        /* \"zkp/Verifier.sol\":94248:94252  0x00 */\n      0x00\n        /* \"zkp/Verifier.sol\":94241:94246  0x180 */\n      0x0180\n        /* \"zkp/Verifier.sol\":94238:94239  0 */\n      0x00\n        /* \"zkp/Verifier.sol\":94235:94236  8 */\n      0x08\n        /* \"zkp/Verifier.sol\":94228:94233  gas() */\n      gas\n        /* \"zkp/Verifier.sol\":94217:94259  staticcall(gas(), 8, 0, 0x180, 0x00, 0x20) */\n      staticcall\n        /* \"zkp/Verifier.sol\":94290:94297  success */\n      dup1\n        /* \"zkp/Verifier.sol\":94280:94404  if iszero(success) {... */\n      tag_209\n      jumpi\n        /* \"zkp/Verifier.sol\":94325:94382  revertWithMessage(32, \"finalPairing: precompile failure\") */\n      tag_210\n        /* \"zkp/Verifier.sol\":94347:94381  \"finalPairing: precompile failure\" */\n      0x66696e616c50616972696e673a20707265636f6d70696c65206661696c757265\n        /* \"zkp/Verifier.sol\":94343:94345  32 */\n      0x20\n        /* \"zkp/Verifier.sol\":94325:94382  revertWithMessage(32, \"finalPairing: precompile failure\") */\n      tag_18\n      jump\t// in\n    tag_210:\n        /* \"zkp/Verifier.sol\":94280:94404  if iszero(success) {... */\n    tag_209:\n        /* \"zkp/Verifier.sol\":94441:94442  0 */\n      0x00\n        /* \"zkp/Verifier.sol\":94435:94443  mload(0) */\n      mload\n        /* \"zkp/Verifier.sol\":94425:94547  if iszero(mload(0)) {... */\n      tag_211\n      jumpi\n        /* \"zkp/Verifier.sol\":94471:94525  revertWithMessage(29, \"finalPairing: pairing failure\") */\n      tag_212\n        /* \"zkp/Verifier.sol\":94493:94524  \"finalPairing: pairing failure\" */\n      0x66696e616c50616972696e673a2070616972696e67206661696c757265000000\n        /* \"zkp/Verifier.sol\":94489:94491  29 */\n      0x1d\n        /* \"zkp/Verifier.sol\":94471:94525  revertWithMessage(29, \"finalPairing: pairing failure\") */\n      tag_18\n      jump\t// in\n    tag_212:\n        /* \"zkp/Verifier.sol\":94425:94547  if iszero(mload(0)) {... */\n    tag_211:\n        /* \"zkp/Verifier.sol\":93468:94565  {... */\n      pop\n        /* \"zkp/Verifier.sol\":91965:94579  {... */\n      pop\n      pop\n      pop\n        /* \"zkp/Verifier.sol\":91941:94579  function finalPairing() {... */\n      jump\t// out\n    tag_41:\n        /* \"zkp/Verifier.sol\":94874:94885  loadProof() */\n      tag_213\n      tag_28\n      jump\t// in\n    tag_213:\n        /* \"zkp/Verifier.sol\":94971:94993  initializeTranscript() */\n      tag_214\n      tag_29\n      jump\t// in\n    tag_214:\n        /* \"zkp/Verifier.sol\":95058:95084  verifyQuotientEvaluation() */\n      tag_215\n      tag_30\n      jump\t// in\n    tag_215:\n        /* \"zkp/Verifier.sol\":95155:95171  prepareQueries() */\n      tag_216\n      tag_38\n      jump\t// in\n    tag_216:\n        /* \"zkp/Verifier.sol\":95228:95257  prepareAggregatedCommitment() */\n      tag_217\n      tag_39\n      jump\t// in\n    tag_217:\n        /* \"zkp/Verifier.sol\":95350:95364  finalPairing() */\n      tag_218\n      tag_40\n      jump\t// in\n    tag_218:\n        /* \"zkp/Verifier.sol\":95388:95392  true */\n      0x01\n        /* \"zkp/Verifier.sol\":95385:95386  0 */\n      0x00\n        /* \"zkp/Verifier.sol\":95378:95393  mstore(0, true) */\n      mstore\n        /* \"zkp/Verifier.sol\":95416:95418  32 */\n      0x20\n        /* \"zkp/Verifier.sol\":95413:95414  0 */\n      0x00\n        /* \"zkp/Verifier.sol\":95406:95419  return(0, 32) */\n      return\n        /* \"zkp/Verifier.sol\":17267:17601  function verificationKeyHash() external pure returns (bytes32 vkHash) {... */\n    tag_12:\n        /* \"zkp/Verifier.sol\":17321:17335  bytes32 vkHash */\n      0x00\n        /* \"zkp/Verifier.sol\":17347:17369  _loadVerificationKey() */\n      tag_220\n        /* \"zkp/Verifier.sol\":17347:17367  _loadVerificationKey */\n      tag_17\n        /* \"zkp/Verifier.sol\":17347:17369  _loadVerificationKey() */\n      jump\t// in\n    tag_220:\n        /* \"zkp/Verifier.sol\":17416:17438  VK_GATE_SETUP_0_X_SLOT */\n      0x0200\n        /* \"zkp/Verifier.sol\":17462:17484  VK_RECURSIVE_FLAG_SLOT */\n      0x0700\n        /* \"zkp/Verifier.sol\":17532:17536  0x20 */\n      0x20\n        /* \"zkp/Verifier.sol\":17524:17529  start */\n      dup3\n        /* \"zkp/Verifier.sol\":17519:17522  end */\n      dup3\n        /* \"zkp/Verifier.sol\":17515:17530  sub(end, start) */\n      sub\n        /* \"zkp/Verifier.sol\":17511:17537  add(sub(end, start), 0x20) */\n      add\n        /* \"zkp/Verifier.sol\":17578:17584  length */\n      dup1\n        /* \"zkp/Verifier.sol\":17571:17576  start */\n      dup4\n        /* \"zkp/Verifier.sol\":17561:17585  keccak256(start, length) */\n      keccak256\n        /* \"zkp/Verifier.sol\":17551:17585  vkHash := keccak256(start, length) */\n      swap4\n      pop\n        /* \"zkp/Verifier.sol\":17389:17595  {... */\n      pop\n      pop\n      pop\n        /* \"zkp/Verifier.sol\":17267:17601  function verificationKeyHash() external pure returns (bytes32 vkHash) {... */\n      swap1\n      jump\t// out\n        /* \"zkp/Verifier.sol\":18530:23452  function _loadVerificationKey() internal pure virtual {... */\n    tag_17:\n        /* \"zkp/Verifier.sol\":18686:18752  0x13598f50f1a62920416dd9f16d46032cbe810bb384da5b0ff42bdf6ab1e69662 */\n      0x13598f50f1a62920416dd9f16d46032cbe810bb384da5b0ff42bdf6ab1e69662\n        /* \"zkp/Verifier.sol\":18662:18684  VK_GATE_SETUP_0_X_SLOT */\n      0x0200\n        /* \"zkp/Verifier.sol\":18655:18753  mstore(VK_GATE_SETUP_0_X_SLOT, 0x13598f50f1a62920416dd9f16d46032cbe810bb384da5b0ff42bdf6ab1e69662) */\n      mstore\n        /* \"zkp/Verifier.sol\":18797:18863  0x19df99dfa60feb4bd15ddb271efac0179104c5b7a27078115a91079ca2826d51 */\n      0x19df99dfa60feb4bd15ddb271efac0179104c5b7a27078115a91079ca2826d51\n        /* \"zkp/Verifier.sol\":18773:18795  VK_GATE_SETUP_0_Y_SLOT */\n      0x0220\n        /* \"zkp/Verifier.sol\":18766:18864  mstore(VK_GATE_SETUP_0_Y_SLOT, 0x19df99dfa60feb4bd15ddb271efac0179104c5b7a27078115a91079ca2826d51) */\n      mstore\n        /* \"zkp/Verifier.sol\":18908:18974  0x2cf47b2a9e17ea94be18ecb13eec2e5706880527ed0d88fd5969ac069a8aac06 */\n      0x2cf47b2a9e17ea94be18ecb13eec2e5706880527ed0d88fd5969ac069a8aac06\n        /* \"zkp/Verifier.sol\":18884:18906  VK_GATE_SETUP_1_X_SLOT */\n      0x0240\n        /* \"zkp/Verifier.sol\":18877:18975  mstore(VK_GATE_SETUP_1_X_SLOT, 0x2cf47b2a9e17ea94be18ecb13eec2e5706880527ed0d88fd5969ac069a8aac06) */\n      mstore\n        /* \"zkp/Verifier.sol\":19019:19085  0x2e3294b57b45a03075ee2e89c9e7d2ab5f261b5e2408578112b6aa7bf12a2e5f */\n      0x2e3294b57b45a03075ee2e89c9e7d2ab5f261b5e2408578112b6aa7bf12a2e5f\n        /* \"zkp/Verifier.sol\":18995:19017  VK_GATE_SETUP_1_Y_SLOT */\n      0x0260\n        /* \"zkp/Verifier.sol\":18988:19086  mstore(VK_GATE_SETUP_1_Y_SLOT, 0x2e3294b57b45a03075ee2e89c9e7d2ab5f261b5e2408578112b6aa7bf12a2e5f) */\n      mstore\n        /* \"zkp/Verifier.sol\":19130:19196  0x0377df0615f3f859583ca885861a6c0f885778f0633d082b9883afcbcb186c6c */\n      0x0377df0615f3f859583ca885861a6c0f885778f0633d082b9883afcbcb186c6c\n        /* \"zkp/Verifier.sol\":19106:19128  VK_GATE_SETUP_2_X_SLOT */\n      0x0280\n        /* \"zkp/Verifier.sol\":19099:19197  mstore(VK_GATE_SETUP_2_X_SLOT, 0x0377df0615f3f859583ca885861a6c0f885778f0633d082b9883afcbcb186c6c) */\n      mstore\n        /* \"zkp/Verifier.sol\":19241:19307  0x0cde99a920bf69e9ff1d42b719e2895f0da6d6a334f2a2a4e135cc93bf515a4a */\n      0x0cde99a920bf69e9ff1d42b719e2895f0da6d6a334f2a2a4e135cc93bf515a4a\n        /* \"zkp/Verifier.sol\":19217:19239  VK_GATE_SETUP_2_Y_SLOT */\n      0x02a0\n        /* \"zkp/Verifier.sol\":19210:19308  mstore(VK_GATE_SETUP_2_Y_SLOT, 0x0cde99a920bf69e9ff1d42b719e2895f0da6d6a334f2a2a4e135cc93bf515a4a) */\n      mstore\n        /* \"zkp/Verifier.sol\":19352:19418  0x042222cc79ad515fdae98dddc09d8e78fc8af37a69baf36a04188ca54334c443 */\n      0x042222cc79ad515fdae98dddc09d8e78fc8af37a69baf36a04188ca54334c443\n        /* \"zkp/Verifier.sol\":19328:19350  VK_GATE_SETUP_3_X_SLOT */\n      0x02c0\n        /* \"zkp/Verifier.sol\":19321:19419  mstore(VK_GATE_SETUP_3_X_SLOT, 0x042222cc79ad515fdae98dddc09d8e78fc8af37a69baf36a04188ca54334c443) */\n      mstore\n        /* \"zkp/Verifier.sol\":19463:19529  0x0f0158e345c08da2021b703aac1b697d2f3553617fef778bf2c5fafc40324be1 */\n      0x0f0158e345c08da2021b703aac1b697d2f3553617fef778bf2c5fafc40324be1\n        /* \"zkp/Verifier.sol\":19439:19461  VK_GATE_SETUP_3_Y_SLOT */\n      0x02e0\n        /* \"zkp/Verifier.sol\":19432:19530  mstore(VK_GATE_SETUP_3_Y_SLOT, 0x0f0158e345c08da2021b703aac1b697d2f3553617fef778bf2c5fafc40324be1) */\n      mstore\n        /* \"zkp/Verifier.sol\":19574:19640  0x0102fab7a43b3ac26db87f53bd303cf44d6f7c963046681422c32dea20a526df */\n      0x0102fab7a43b3ac26db87f53bd303cf44d6f7c963046681422c32dea20a526df\n        /* \"zkp/Verifier.sol\":19550:19572  VK_GATE_SETUP_4_X_SLOT */\n      0x0300\n        /* \"zkp/Verifier.sol\":19543:19641  mstore(VK_GATE_SETUP_4_X_SLOT, 0x0102fab7a43b3ac26db87f53bd303cf44d6f7c963046681422c32dea20a526df) */\n      mstore\n        /* \"zkp/Verifier.sol\":19685:19751  0x221a29c1df2e5822d060261802073700a285082ebb1263e53814b017a8bfb14b */\n      0x221a29c1df2e5822d060261802073700a285082ebb1263e53814b017a8bfb14b\n        /* \"zkp/Verifier.sol\":19661:19683  VK_GATE_SETUP_4_Y_SLOT */\n      0x0320\n        /* \"zkp/Verifier.sol\":19654:19752  mstore(VK_GATE_SETUP_4_Y_SLOT, 0x221a29c1df2e5822d060261802073700a285082ebb1263e53814b017a8bfb14b) */\n      mstore\n        /* \"zkp/Verifier.sol\":19796:19862  0x269fbe8da379085e789a60720c12324ee4efc0f9215bfc30a65134ecbe875682 */\n      0x269fbe8da379085e789a60720c12324ee4efc0f9215bfc30a65134ecbe875682\n        /* \"zkp/Verifier.sol\":19772:19794  VK_GATE_SETUP_5_X_SLOT */\n      0x0340\n        /* \"zkp/Verifier.sol\":19765:19863  mstore(VK_GATE_SETUP_5_X_SLOT, 0x269fbe8da379085e789a60720c12324ee4efc0f9215bfc30a65134ecbe875682) */\n      mstore\n        /* \"zkp/Verifier.sol\":19907:19973  0x0134b14e94b7a719d213a0e7136547add67e71723ed82c87e8a0f8926fb002ac */\n      0x0134b14e94b7a719d213a0e7136547add67e71723ed82c87e8a0f8926fb002ac\n        /* \"zkp/Verifier.sol\":19883:19905  VK_GATE_SETUP_5_Y_SLOT */\n      0x0360\n        /* \"zkp/Verifier.sol\":19876:19974  mstore(VK_GATE_SETUP_5_Y_SLOT, 0x0134b14e94b7a719d213a0e7136547add67e71723ed82c87e8a0f8926fb002ac) */\n      mstore\n        /* \"zkp/Verifier.sol\":20018:20084  0x07d50d604f391c8f7331ce2df7115aa8a6db6bcc1ad246255b12da2e80f7d815 */\n      0x07d50d604f391c8f7331ce2df7115aa8a6db6bcc1ad246255b12da2e80f7d815\n        /* \"zkp/Verifier.sol\":19994:20016  VK_GATE_SETUP_6_X_SLOT */\n      0x0380\n        /* \"zkp/Verifier.sol\":19987:20085  mstore(VK_GATE_SETUP_6_X_SLOT, 0x07d50d604f391c8f7331ce2df7115aa8a6db6bcc1ad246255b12da2e80f7d815) */\n      mstore\n        /* \"zkp/Verifier.sol\":20129:20195  0x16f31ebefd077f85029a1af6136a2d63e8e92015ea44bac6386cb05fc7aca56e */\n      0x16f31ebefd077f85029a1af6136a2d63e8e92015ea44bac6386cb05fc7aca56e\n        /* \"zkp/Verifier.sol\":20105:20127  VK_GATE_SETUP_6_Y_SLOT */\n      0x03a0\n        /* \"zkp/Verifier.sol\":20098:20196  mstore(VK_GATE_SETUP_6_Y_SLOT, 0x16f31ebefd077f85029a1af6136a2d63e8e92015ea44bac6386cb05fc7aca56e) */\n      mstore\n        /* \"zkp/Verifier.sol\":20240:20306  0x1ceeda30b083c5b748a1dbbefc4b8324e35cb9830c630b8064ece3a7c30e5f4a */\n      0x1ceeda30b083c5b748a1dbbefc4b8324e35cb9830c630b8064ece3a7c30e5f4a\n        /* \"zkp/Verifier.sol\":20216:20238  VK_GATE_SETUP_7_X_SLOT */\n      0x03c0\n        /* \"zkp/Verifier.sol\":20209:20307  mstore(VK_GATE_SETUP_7_X_SLOT, 0x1ceeda30b083c5b748a1dbbefc4b8324e35cb9830c630b8064ece3a7c30e5f4a) */\n      mstore\n        /* \"zkp/Verifier.sol\":20351:20417  0x0037029b76eb626e15fefc39fb9c142499e9ee283063b2811afff7211b9a0b63 */\n      0x37029b76eb626e15fefc39fb9c142499e9ee283063b2811afff7211b9a0b63\n        /* \"zkp/Verifier.sol\":20327:20349  VK_GATE_SETUP_7_Y_SLOT */\n      0x03e0\n        /* \"zkp/Verifier.sol\":20320:20418  mstore(VK_GATE_SETUP_7_Y_SLOT, 0x0037029b76eb626e15fefc39fb9c142499e9ee283063b2811afff7211b9a0b63) */\n      mstore\n        /* \"zkp/Verifier.sol\":20509:20575  0x1885051503e3667eac61262e28b7cedd16a619d19e8820a522a269dc98262c69 */\n      0x1885051503e3667eac61262e28b7cedd16a619d19e8820a522a269dc98262c69\n        /* \"zkp/Verifier.sol\":20481:20507  VK_GATE_SELECTORS_0_X_SLOT */\n      0x0400\n        /* \"zkp/Verifier.sol\":20474:20576  mstore(VK_GATE_SELECTORS_0_X_SLOT, 0x1885051503e3667eac61262e28b7cedd16a619d19e8820a522a269dc98262c69) */\n      mstore\n        /* \"zkp/Verifier.sol\":20624:20690  0x0daf7bffe99c0357aefcd6ccaf363ce5096e48d105fc8583e649589cc149183d */\n      0x0daf7bffe99c0357aefcd6ccaf363ce5096e48d105fc8583e649589cc149183d\n        /* \"zkp/Verifier.sol\":20596:20622  VK_GATE_SELECTORS_0_Y_SLOT */\n      0x0420\n        /* \"zkp/Verifier.sol\":20589:20691  mstore(VK_GATE_SELECTORS_0_Y_SLOT, 0x0daf7bffe99c0357aefcd6ccaf363ce5096e48d105fc8583e649589cc149183d) */\n      mstore\n        /* \"zkp/Verifier.sol\":20739:20805  0x215a735844e0035f245a45154f19635bdc70d8f48eef46384c2c948002af0c81 */\n      0x215a735844e0035f245a45154f19635bdc70d8f48eef46384c2c948002af0c81\n        /* \"zkp/Verifier.sol\":20711:20737  VK_GATE_SELECTORS_1_X_SLOT */\n      0x0440\n        /* \"zkp/Verifier.sol\":20704:20806  mstore(VK_GATE_SELECTORS_1_X_SLOT, 0x215a735844e0035f245a45154f19635bdc70d8f48eef46384c2c948002af0c81) */\n      mstore\n        /* \"zkp/Verifier.sol\":20854:20920  0x1faecf6813ffbc0a2eeeb50ca035d4542ca557f15e2b82ffffb24024cf3df2d1 */\n      0x1faecf6813ffbc0a2eeeb50ca035d4542ca557f15e2b82ffffb24024cf3df2d1\n        /* \"zkp/Verifier.sol\":20826:20852  VK_GATE_SELECTORS_1_Y_SLOT */\n      0x0460\n        /* \"zkp/Verifier.sol\":20819:20921  mstore(VK_GATE_SELECTORS_1_Y_SLOT, 0x1faecf6813ffbc0a2eeeb50ca035d4542ca557f15e2b82ffffb24024cf3df2d1) */\n      mstore\n        /* \"zkp/Verifier.sol\":21006:21072  0x2f24b1ffdea08385d0ca89b32db8601b3b95b255903edceac52402dfece9eee4 */\n      0x2f24b1ffdea08385d0ca89b32db8601b3b95b255903edceac52402dfece9eee4\n        /* \"zkp/Verifier.sol\":20981:21004  VK_PERMUTATION_0_X_SLOT */\n      0x0480\n        /* \"zkp/Verifier.sol\":20974:21073  mstore(VK_PERMUTATION_0_X_SLOT, 0x2f24b1ffdea08385d0ca89b32db8601b3b95b255903edceac52402dfece9eee4) */\n      mstore\n        /* \"zkp/Verifier.sol\":21118:21184  0x1e90e41ecb35e8455c55bf4cfd41e80bb4e5dd845b65c6f77e2ac0821b09a883 */\n      0x1e90e41ecb35e8455c55bf4cfd41e80bb4e5dd845b65c6f77e2ac0821b09a883\n        /* \"zkp/Verifier.sol\":21093:21116  VK_PERMUTATION_0_Y_SLOT */\n      0x04a0\n        /* \"zkp/Verifier.sol\":21086:21185  mstore(VK_PERMUTATION_0_Y_SLOT, 0x1e90e41ecb35e8455c55bf4cfd41e80bb4e5dd845b65c6f77e2ac0821b09a883) */\n      mstore\n        /* \"zkp/Verifier.sol\":21230:21296  0x128d006b473b50bc85a1a2707c278e08186e4402010178bf930b7ea24e203ed0 */\n      0x128d006b473b50bc85a1a2707c278e08186e4402010178bf930b7ea24e203ed0\n        /* \"zkp/Verifier.sol\":21205:21228  VK_PERMUTATION_1_X_SLOT */\n      0x04c0\n        /* \"zkp/Verifier.sol\":21198:21297  mstore(VK_PERMUTATION_1_X_SLOT, 0x128d006b473b50bc85a1a2707c278e08186e4402010178bf930b7ea24e203ed0) */\n      mstore\n        /* \"zkp/Verifier.sol\":21342:21408  0x0fa100f35e66d3c2429f1c20be00fe21b79a65e9de665ba420ee388ee0b47b3c */\n      0x0fa100f35e66d3c2429f1c20be00fe21b79a65e9de665ba420ee388ee0b47b3c\n        /* \"zkp/Verifier.sol\":21317:21340  VK_PERMUTATION_1_Y_SLOT */\n      0x04e0\n        /* \"zkp/Verifier.sol\":21310:21409  mstore(VK_PERMUTATION_1_Y_SLOT, 0x0fa100f35e66d3c2429f1c20be00fe21b79a65e9de665ba420ee388ee0b47b3c) */\n      mstore\n        /* \"zkp/Verifier.sol\":21454:21520  0x3026de72fd5e47f96c7d0f4f0c15cfd5f50438991fdbb18d4c5d18561b0e87cd */\n      0x3026de72fd5e47f96c7d0f4f0c15cfd5f50438991fdbb18d4c5d18561b0e87cd\n        /* \"zkp/Verifier.sol\":21429:21452  VK_PERMUTATION_2_X_SLOT */\n      0x0500\n        /* \"zkp/Verifier.sol\":21422:21521  mstore(VK_PERMUTATION_2_X_SLOT, 0x3026de72fd5e47f96c7d0f4f0c15cfd5f50438991fdbb18d4c5d18561b0e87cd) */\n      mstore\n        /* \"zkp/Verifier.sol\":21566:21632  0x20162d33d551a2599be33cfba40358bdab4338891cfe7e028355e5a50442b5a4 */\n      0x20162d33d551a2599be33cfba40358bdab4338891cfe7e028355e5a50442b5a4\n        /* \"zkp/Verifier.sol\":21541:21564  VK_PERMUTATION_2_Y_SLOT */\n      0x0520\n        /* \"zkp/Verifier.sol\":21534:21633  mstore(VK_PERMUTATION_2_Y_SLOT, 0x20162d33d551a2599be33cfba40358bdab4338891cfe7e028355e5a50442b5a4) */\n      mstore\n        /* \"zkp/Verifier.sol\":21678:21744  0x0a811f316900d60021c0ef765bcfc2070cc3a8b38b09a3b4be04e37e292ebaf1 */\n      0x0a811f316900d60021c0ef765bcfc2070cc3a8b38b09a3b4be04e37e292ebaf1\n        /* \"zkp/Verifier.sol\":21653:21676  VK_PERMUTATION_3_X_SLOT */\n      0x0540\n        /* \"zkp/Verifier.sol\":21646:21745  mstore(VK_PERMUTATION_3_X_SLOT, 0x0a811f316900d60021c0ef765bcfc2070cc3a8b38b09a3b4be04e37e292ebaf1) */\n      mstore\n        /* \"zkp/Verifier.sol\":21790:21856  0x192c167388faa4266ced24b8e3687e81974aa8caaf1ac3e8a3fab3947c7b65d1 */\n      0x192c167388faa4266ced24b8e3687e81974aa8caaf1ac3e8a3fab3947c7b65d1\n        /* \"zkp/Verifier.sol\":21765:21788  VK_PERMUTATION_3_Y_SLOT */\n      0x0560\n        /* \"zkp/Verifier.sol\":21758:21857  mstore(VK_PERMUTATION_3_Y_SLOT, 0x192c167388faa4266ced24b8e3687e81974aa8caaf1ac3e8a3fab3947c7b65d1) */\n      mstore\n        /* \"zkp/Verifier.sol\":21945:22011  0x2c513ed74d9d57a5ec901e074032741036353a2c4513422e96e7b53b302d765b */\n      0x2c513ed74d9d57a5ec901e074032741036353a2c4513422e96e7b53b302d765b\n        /* \"zkp/Verifier.sol\":21919:21943  VK_LOOKUP_TABLE_0_X_SLOT */\n      0x05c0\n        /* \"zkp/Verifier.sol\":21912:22012  mstore(VK_LOOKUP_TABLE_0_X_SLOT, 0x2c513ed74d9d57a5ec901e074032741036353a2c4513422e96e7b53b302d765b) */\n      mstore\n        /* \"zkp/Verifier.sol\":22058:22124  0x04dd964427e430f16004076d708c0cb21e225056cc1d57418cfbd3d472981468 */\n      0x04dd964427e430f16004076d708c0cb21e225056cc1d57418cfbd3d472981468\n        /* \"zkp/Verifier.sol\":22032:22056  VK_LOOKUP_TABLE_0_Y_SLOT */\n      0x05e0\n        /* \"zkp/Verifier.sol\":22025:22125  mstore(VK_LOOKUP_TABLE_0_Y_SLOT, 0x04dd964427e430f16004076d708c0cb21e225056cc1d57418cfbd3d472981468) */\n      mstore\n        /* \"zkp/Verifier.sol\":22171:22237  0x1ea83e5e65c6f8068f4677e2911678cf329b28259642a32db1f14b8347828aac */\n      0x1ea83e5e65c6f8068f4677e2911678cf329b28259642a32db1f14b8347828aac\n        /* \"zkp/Verifier.sol\":22145:22169  VK_LOOKUP_TABLE_1_X_SLOT */\n      0x0600\n        /* \"zkp/Verifier.sol\":22138:22238  mstore(VK_LOOKUP_TABLE_1_X_SLOT, 0x1ea83e5e65c6f8068f4677e2911678cf329b28259642a32db1f14b8347828aac) */\n      mstore\n        /* \"zkp/Verifier.sol\":22284:22350  0x1d22bc884a2da4962a893ba8de13f57aaeb785ed52c5e686994839cab8f7475d */\n      0x1d22bc884a2da4962a893ba8de13f57aaeb785ed52c5e686994839cab8f7475d\n        /* \"zkp/Verifier.sol\":22258:22282  VK_LOOKUP_TABLE_1_Y_SLOT */\n      0x0620\n        /* \"zkp/Verifier.sol\":22251:22351  mstore(VK_LOOKUP_TABLE_1_Y_SLOT, 0x1d22bc884a2da4962a893ba8de13f57aaeb785ed52c5e686994839cab8f7475d) */\n      mstore\n        /* \"zkp/Verifier.sol\":22397:22463  0x0b2e7212d0d9cff26d0bdf3d79b2cac029a25dfeb1cafdf49e2349d7db348d89 */\n      0x0b2e7212d0d9cff26d0bdf3d79b2cac029a25dfeb1cafdf49e2349d7db348d89\n        /* \"zkp/Verifier.sol\":22371:22395  VK_LOOKUP_TABLE_2_X_SLOT */\n      0x0640\n        /* \"zkp/Verifier.sol\":22364:22464  mstore(VK_LOOKUP_TABLE_2_X_SLOT, 0x0b2e7212d0d9cff26d0bdf3d79b2cac029a25dfeb1cafdf49e2349d7db348d89) */\n      mstore\n        /* \"zkp/Verifier.sol\":22510:22576  0x1301f9b252419ea240eb67fda720ca0b16d92364027285f95e9b1349490fa283 */\n      0x1301f9b252419ea240eb67fda720ca0b16d92364027285f95e9b1349490fa283\n        /* \"zkp/Verifier.sol\":22484:22508  VK_LOOKUP_TABLE_2_Y_SLOT */\n      0x0660\n        /* \"zkp/Verifier.sol\":22477:22577  mstore(VK_LOOKUP_TABLE_2_Y_SLOT, 0x1301f9b252419ea240eb67fda720ca0b16d92364027285f95e9b1349490fa283) */\n      mstore\n        /* \"zkp/Verifier.sol\":22623:22689  0x02f7b99fdfa5b418548c2d777785820e02383cfc87e7085e280a375a358153bf */\n      0x02f7b99fdfa5b418548c2d777785820e02383cfc87e7085e280a375a358153bf\n        /* \"zkp/Verifier.sol\":22597:22621  VK_LOOKUP_TABLE_3_X_SLOT */\n      0x0680\n        /* \"zkp/Verifier.sol\":22590:22690  mstore(VK_LOOKUP_TABLE_3_X_SLOT, 0x02f7b99fdfa5b418548c2d777785820e02383cfc87e7085e280a375a358153bf) */\n      mstore\n        /* \"zkp/Verifier.sol\":22736:22802  0x09d004fe08dc4d19c382df36fad22ef676185663543703e6a4b40203e50fd8a6 */\n      0x09d004fe08dc4d19c382df36fad22ef676185663543703e6a4b40203e50fd8a6\n        /* \"zkp/Verifier.sol\":22710:22734  VK_LOOKUP_TABLE_3_Y_SLOT */\n      0x06a0\n        /* \"zkp/Verifier.sol\":22703:22803  mstore(VK_LOOKUP_TABLE_3_Y_SLOT, 0x09d004fe08dc4d19c382df36fad22ef676185663543703e6a4b40203e50fd8a6) */\n      mstore\n        /* \"zkp/Verifier.sol\":22893:22959  0x300223627d9e977c0b02a64b49cb1c6c7833b82e25bacb420ef6f48b6deeed06 */\n      0x300223627d9e977c0b02a64b49cb1c6c7833b82e25bacb420ef6f48b6deeed06\n        /* \"zkp/Verifier.sol\":22866:22891  VK_LOOKUP_SELECTOR_X_SLOT */\n      0x0580\n        /* \"zkp/Verifier.sol\":22859:22960  mstore(VK_LOOKUP_SELECTOR_X_SLOT, 0x300223627d9e977c0b02a64b49cb1c6c7833b82e25bacb420ef6f48b6deeed06) */\n      mstore\n        /* \"zkp/Verifier.sol\":23007:23073  0x2d0bd4b927912e6509088fb7167a30b85bd5d031e75b057b687e62fc6d779f91 */\n      0x2d0bd4b927912e6509088fb7167a30b85bd5d031e75b057b687e62fc6d779f91\n        /* \"zkp/Verifier.sol\":22980:23005  VK_LOOKUP_SELECTOR_Y_SLOT */\n      0x05a0\n        /* \"zkp/Verifier.sol\":22973:23074  mstore(VK_LOOKUP_SELECTOR_Y_SLOT, 0x2d0bd4b927912e6509088fb7167a30b85bd5d031e75b057b687e62fc6d779f91) */\n      mstore\n        /* \"zkp/Verifier.sol\":23161:23227  0x006f5f6969088413e15abe92418dd7668c6c5fa2dcca168e71a98d84a9fe39de */\n      0x6f5f6969088413e15abe92418dd7668c6c5fa2dcca168e71a98d84a9fe39de\n        /* \"zkp/Verifier.sol\":23132:23159  VK_LOOKUP_TABLE_TYPE_X_SLOT */\n      0x06c0\n        /* \"zkp/Verifier.sol\":23125:23228  mstore(VK_LOOKUP_TABLE_TYPE_X_SLOT, 0x006f5f6969088413e15abe92418dd7668c6c5fa2dcca168e71a98d84a9fe39de) */\n      mstore\n        /* \"zkp/Verifier.sol\":23277:23343  0x18550c804fadc55861b6a34d5341d594486833e62bd6137089f3335566ca40ee */\n      0x18550c804fadc55861b6a34d5341d594486833e62bd6137089f3335566ca40ee\n        /* \"zkp/Verifier.sol\":23248:23275  VK_LOOKUP_TABLE_TYPE_Y_SLOT */\n      0x06e0\n        /* \"zkp/Verifier.sol\":23241:23344  mstore(VK_LOOKUP_TABLE_TYPE_Y_SLOT, 0x18550c804fadc55861b6a34d5341d594486833e62bd6137089f3335566ca40ee) */\n      mstore\n        /* \"zkp/Verifier.sol\":23434:23435  0 */\n      0x00\n        /* \"zkp/Verifier.sol\":23410:23432  VK_RECURSIVE_FLAG_SLOT */\n      0x0700\n        /* \"zkp/Verifier.sol\":23403:23436  mstore(VK_RECURSIVE_FLAG_SLOT, 0) */\n      mstore\n        /* \"zkp/Verifier.sol\":18530:23452  function _loadVerificationKey() internal pure virtual {... */\n      jump\t// out\n        /* \"#utility.yul\":88:205   */\n    tag_223:\n        /* \"#utility.yul\":197:198   */\n      0x00\n        /* \"#utility.yul\":194:195   */\n      dup1\n        /* \"#utility.yul\":187:199   */\n      revert\n        /* \"#utility.yul\":211:328   */\n    tag_224:\n        /* \"#utility.yul\":320:321   */\n      0x00\n        /* \"#utility.yul\":317:318   */\n      dup1\n        /* \"#utility.yul\":310:322   */\n      revert\n        /* \"#utility.yul\":334:451   */\n    tag_225:\n        /* \"#utility.yul\":443:444   */\n      0x00\n        /* \"#utility.yul\":440:441   */\n      dup1\n        /* \"#utility.yul\":433:445   */\n      revert\n        /* \"#utility.yul\":457:574   */\n    tag_226:\n        /* \"#utility.yul\":566:567   */\n      0x00\n        /* \"#utility.yul\":563:564   */\n      dup1\n        /* \"#utility.yul\":556:568   */\n      revert\n        /* \"#utility.yul\":580:697   */\n    tag_227:\n        /* \"#utility.yul\":689:690   */\n      0x00\n        /* \"#utility.yul\":686:687   */\n      dup1\n        /* \"#utility.yul\":679:691   */\n      revert\n        /* \"#utility.yul\":720:1288   */\n    tag_228:\n        /* \"#utility.yul\":793:801   */\n      0x00\n        /* \"#utility.yul\":803:809   */\n      dup1\n        /* \"#utility.yul\":853:856   */\n      dup4\n        /* \"#utility.yul\":846:850   */\n      0x1f\n        /* \"#utility.yul\":838:844   */\n      dup5\n        /* \"#utility.yul\":834:851   */\n      add\n        /* \"#utility.yul\":830:857   */\n      slt\n        /* \"#utility.yul\":820:942   */\n      tag_241\n      jumpi\n        /* \"#utility.yul\":861:940   */\n      tag_242\n      tag_225\n      jump\t// in\n    tag_242:\n        /* \"#utility.yul\":820:942   */\n    tag_241:\n        /* \"#utility.yul\":974:980   */\n      dup3\n        /* \"#utility.yul\":961:981   */\n      calldataload\n        /* \"#utility.yul\":951:981   */\n      swap1\n      pop\n        /* \"#utility.yul\":1004:1022   */\n      0xffffffffffffffff\n        /* \"#utility.yul\":996:1002   */\n      dup2\n        /* \"#utility.yul\":993:1023   */\n      gt\n        /* \"#utility.yul\":990:1107   */\n      iszero\n      tag_243\n      jumpi\n        /* \"#utility.yul\":1026:1105   */\n      tag_244\n      tag_226\n      jump\t// in\n    tag_244:\n        /* \"#utility.yul\":990:1107   */\n    tag_243:\n        /* \"#utility.yul\":1140:1144   */\n      0x20\n        /* \"#utility.yul\":1132:1138   */\n      dup4\n        /* \"#utility.yul\":1128:1145   */\n      add\n        /* \"#utility.yul\":1116:1145   */\n      swap2\n      pop\n        /* \"#utility.yul\":1194:1197   */\n      dup4\n        /* \"#utility.yul\":1186:1190   */\n      0x20\n        /* \"#utility.yul\":1178:1184   */\n      dup3\n        /* \"#utility.yul\":1174:1191   */\n      mul\n        /* \"#utility.yul\":1164:1172   */\n      dup4\n        /* \"#utility.yul\":1160:1192   */\n      add\n        /* \"#utility.yul\":1157:1198   */\n      gt\n        /* \"#utility.yul\":1154:1282   */\n      iszero\n      tag_245\n      jumpi\n        /* \"#utility.yul\":1201:1280   */\n      tag_246\n      tag_227\n      jump\t// in\n    tag_246:\n        /* \"#utility.yul\":1154:1282   */\n    tag_245:\n        /* \"#utility.yul\":720:1288   */\n      swap3\n      pop\n      swap3\n      swap1\n      pop\n      jump\t// out\n        /* \"#utility.yul\":1294:2603   */\n    tag_7:\n        /* \"#utility.yul\":1452:1458   */\n      0x00\n        /* \"#utility.yul\":1460:1466   */\n      dup1\n        /* \"#utility.yul\":1468:1474   */\n      0x00\n        /* \"#utility.yul\":1476:1482   */\n      dup1\n        /* \"#utility.yul\":1484:1490   */\n      0x00\n        /* \"#utility.yul\":1492:1498   */\n      dup1\n        /* \"#utility.yul\":1541:1543   */\n      0x60\n        /* \"#utility.yul\":1529:1538   */\n      dup8\n        /* \"#utility.yul\":1520:1527   */\n      dup10\n        /* \"#utility.yul\":1516:1539   */\n      sub\n        /* \"#utility.yul\":1512:1544   */\n      slt\n        /* \"#utility.yul\":1509:1628   */\n      iszero\n      tag_248\n      jumpi\n        /* \"#utility.yul\":1547:1626   */\n      tag_249\n      tag_223\n      jump\t// in\n    tag_249:\n        /* \"#utility.yul\":1509:1628   */\n    tag_248:\n        /* \"#utility.yul\":1695:1696   */\n      0x00\n        /* \"#utility.yul\":1684:1693   */\n      dup8\n        /* \"#utility.yul\":1680:1697   */\n      add\n        /* \"#utility.yul\":1667:1698   */\n      calldataload\n        /* \"#utility.yul\":1725:1743   */\n      0xffffffffffffffff\n        /* \"#utility.yul\":1717:1723   */\n      dup2\n        /* \"#utility.yul\":1714:1744   */\n      gt\n        /* \"#utility.yul\":1711:1828   */\n      iszero\n      tag_250\n      jumpi\n        /* \"#utility.yul\":1747:1826   */\n      tag_251\n      tag_224\n      jump\t// in\n    tag_251:\n        /* \"#utility.yul\":1711:1828   */\n    tag_250:\n        /* \"#utility.yul\":1860:1940   */\n      tag_252\n        /* \"#utility.yul\":1932:1939   */\n      dup10\n        /* \"#utility.yul\":1923:1929   */\n      dup3\n        /* \"#utility.yul\":1912:1921   */\n      dup11\n        /* \"#utility.yul\":1908:1930   */\n      add\n        /* \"#utility.yul\":1860:1940   */\n      tag_228\n      jump\t// in\n    tag_252:\n        /* \"#utility.yul\":1842:1940   */\n      swap7\n      pop\n      swap7\n      pop\n        /* \"#utility.yul\":1638:1950   */\n      pop\n        /* \"#utility.yul\":2017:2019   */\n      0x20\n        /* \"#utility.yul\":2006:2015   */\n      dup8\n        /* \"#utility.yul\":2002:2020   */\n      add\n        /* \"#utility.yul\":1989:2021   */\n      calldataload\n        /* \"#utility.yul\":2048:2066   */\n      0xffffffffffffffff\n        /* \"#utility.yul\":2040:2046   */\n      dup2\n        /* \"#utility.yul\":2037:2067   */\n      gt\n        /* \"#utility.yul\":2034:2151   */\n      iszero\n      tag_253\n      jumpi\n        /* \"#utility.yul\":2070:2149   */\n      tag_254\n      tag_224\n      jump\t// in\n    tag_254:\n        /* \"#utility.yul\":2034:2151   */\n    tag_253:\n        /* \"#utility.yul\":2183:2263   */\n      tag_255\n        /* \"#utility.yul\":2255:2262   */\n      dup10\n        /* \"#utility.yul\":2246:2252   */\n      dup3\n        /* \"#utility.yul\":2235:2244   */\n      dup11\n        /* \"#utility.yul\":2231:2253   */\n      add\n        /* \"#utility.yul\":2183:2263   */\n      tag_228\n      jump\t// in\n    tag_255:\n        /* \"#utility.yul\":2165:2263   */\n      swap5\n      pop\n      swap5\n      pop\n        /* \"#utility.yul\":1960:2273   */\n      pop\n        /* \"#utility.yul\":2340:2342   */\n      0x40\n        /* \"#utility.yul\":2329:2338   */\n      dup8\n        /* \"#utility.yul\":2325:2343   */\n      add\n        /* \"#utility.yul\":2312:2344   */\n      calldataload\n        /* \"#utility.yul\":2371:2389   */\n      0xffffffffffffffff\n        /* \"#utility.yul\":2363:2369   */\n      dup2\n        /* \"#utility.yul\":2360:2390   */\n      gt\n        /* \"#utility.yul\":2357:2474   */\n      iszero\n      tag_256\n      jumpi\n        /* \"#utility.yul\":2393:2472   */\n      tag_257\n      tag_224\n      jump\t// in\n    tag_257:\n        /* \"#utility.yul\":2357:2474   */\n    tag_256:\n        /* \"#utility.yul\":2506:2586   */\n      tag_258\n        /* \"#utility.yul\":2578:2585   */\n      dup10\n        /* \"#utility.yul\":2569:2575   */\n      dup3\n        /* \"#utility.yul\":2558:2567   */\n      dup11\n        /* \"#utility.yul\":2554:2576   */\n      add\n        /* \"#utility.yul\":2506:2586   */\n      tag_228\n      jump\t// in\n    tag_258:\n        /* \"#utility.yul\":2488:2586   */\n      swap3\n      pop\n      swap3\n      pop\n        /* \"#utility.yul\":2283:2596   */\n      pop\n        /* \"#utility.yul\":1294:2603   */\n      swap3\n      swap6\n      pop\n      swap3\n      swap6\n      pop\n      swap3\n      swap6\n      jump\t// out\n        /* \"#utility.yul\":2609:2699   */\n    tag_229:\n        /* \"#utility.yul\":2643:2650   */\n      0x00\n        /* \"#utility.yul\":2686:2691   */\n      dup2\n        /* \"#utility.yul\":2679:2692   */\n      iszero\n        /* \"#utility.yul\":2672:2693   */\n      iszero\n        /* \"#utility.yul\":2661:2693   */\n      swap1\n      pop\n        /* \"#utility.yul\":2609:2699   */\n      swap2\n      swap1\n      pop\n      jump\t// out\n        /* \"#utility.yul\":2705:2814   */\n    tag_230:\n        /* \"#utility.yul\":2786:2807   */\n      tag_261\n        /* \"#utility.yul\":2801:2806   */\n      dup2\n        /* \"#utility.yul\":2786:2807   */\n      tag_229\n      jump\t// in\n    tag_261:\n        /* \"#utility.yul\":2781:2784   */\n      dup3\n        /* \"#utility.yul\":2774:2808   */\n      mstore\n        /* \"#utility.yul\":2705:2814   */\n      pop\n      pop\n      jump\t// out\n        /* \"#utility.yul\":2820:3030   */\n    tag_10:\n        /* \"#utility.yul\":2907:2911   */\n      0x00\n        /* \"#utility.yul\":2945:2947   */\n      0x20\n        /* \"#utility.yul\":2934:2943   */\n      dup3\n        /* \"#utility.yul\":2930:2948   */\n      add\n        /* \"#utility.yul\":2922:2948   */\n      swap1\n      pop\n        /* \"#utility.yul\":2958:3023   */\n      tag_263\n        /* \"#utility.yul\":3020:3021   */\n      0x00\n        /* \"#utility.yul\":3009:3018   */\n      dup4\n        /* \"#utility.yul\":3005:3022   */\n      add\n        /* \"#utility.yul\":2996:3002   */\n      dup5\n        /* \"#utility.yul\":2958:3023   */\n      tag_230\n      jump\t// in\n    tag_263:\n        /* \"#utility.yul\":2820:3030   */\n      swap3\n      swap2\n      pop\n      pop\n      jump\t// out\n        /* \"#utility.yul\":3036:3113   */\n    tag_231:\n        /* \"#utility.yul\":3073:3080   */\n      0x00\n        /* \"#utility.yul\":3102:3107   */\n      dup2\n        /* \"#utility.yul\":3091:3107   */\n      swap1\n      pop\n        /* \"#utility.yul\":3036:3113   */\n      swap2\n      swap1\n      pop\n      jump\t// out\n        /* \"#utility.yul\":3119:3237   */\n    tag_232:\n        /* \"#utility.yul\":3206:3230   */\n      tag_266\n        /* \"#utility.yul\":3224:3229   */\n      dup2\n        /* \"#utility.yul\":3206:3230   */\n      tag_231\n      jump\t// in\n    tag_266:\n        /* \"#utility.yul\":3201:3204   */\n      dup3\n        /* \"#utility.yul\":3194:3231   */\n      mstore\n        /* \"#utility.yul\":3119:3237   */\n      pop\n      pop\n      jump\t// out\n        /* \"#utility.yul\":3243:3465   */\n    tag_14:\n        /* \"#utility.yul\":3336:3340   */\n      0x00\n        /* \"#utility.yul\":3374:3376   */\n      0x20\n        /* \"#utility.yul\":3363:3372   */\n      dup3\n        /* \"#utility.yul\":3359:3377   */\n      add\n        /* \"#utility.yul\":3351:3377   */\n      swap1\n      pop\n        /* \"#utility.yul\":3387:3458   */\n      tag_268\n        /* \"#utility.yul\":3455:3456   */\n      0x00\n        /* \"#utility.yul\":3444:3453   */\n      dup4\n        /* \"#utility.yul\":3440:3457   */\n      add\n        /* \"#utility.yul\":3431:3437   */\n      dup5\n        /* \"#utility.yul\":3387:3458   */\n      tag_232\n      jump\t// in\n    tag_268:\n        /* \"#utility.yul\":3243:3465   */\n      swap3\n      swap2\n      pop\n      pop\n      jump\t// out\n\n    auxdata: 0xa2646970667358221220e4463e4b04cf1aeec667857ec7a81fd77ab5b940b270fb7983184fe282bd405864736f6c634300081a0033\n}\n",
				"bytecode": {
					"linkReferences": {},
					"object": "6080604052348015600e575f80fd5b50613f288061001c5f395ff3fe608060405234801561000f575f80fd5b5060043610610034575f3560e01c806387d9d023146100385780639e8945d214610068575b5f80fd5b610052600480360381019061004d9190613dde565b610086565b60405161005f9190613ea8565b60405180910390f35b610070613788565b60405161007d9190613ed9565b60405180910390f35b5f61008f6137a8565b61374f565b7f08c379a0000000000000000000000000000000000000000000000000000000005f526020600452806024528160445260645ffd5b5f60205f5260208052602060405281606052826080527f30644e72e131a029b85045b68181585d2833e84879b9709143e1f593f000000160a05260205f60c05f60055afa61013d5761013c7f6d6f6465787020707265636f6d70696c65206661696c656400000000000000006018610094565b5b5f51905092915050565b80515f5260208101516020528160405260408360605f60075afa610191576101907f706f696e744d756c496e746f446573743a2065634d756c206661696c65640000601e610094565b5b505050565b80515f5260208101516020528151604052602082015160605260408360805f60065afa6101e9576101e87f706f696e74416464496e746f446573743a206563416464206661696c65640000601e610094565b5b505050565b80515f526020810151602052815160405260208201517f30644e72e131a029b85045b68181585d97816a916871ca8d3c208c16d87cfd470360605260408160805f60065afa610263576102627f706f696e7453756241737369676e3a206563416464206661696c656400000000601c610094565b5b5050565b80515f5260208101516020528151604052602082015160605260408160805f60065afa6102ba576102b97f706f696e7441646441737369676e3a206563416464206661696c656400000000601c610094565b5b5050565b80515f5260208101516020528160405260405f60605f60075afa8351604052602084015160605260408460805f60065afa8116905080610324576103237f706f696e744d756c416e64416464496e746f44657374000000000000000000006016610094565b5b50505050565b6020810151805f811461036457817f30644e72e131a029b85045b68181585d97816a916871ca8d3c208c16d87cfd47036020840152610398565b825115610397576103967f706f696e744e65676174653a20696e76616c696420706f696e74000000000000601a610094565b5b5b505050565b5f610d435380610d84526064610d40206001610d43536064610d402080610d645281610d4452505050565b5f6002610d43538160e01b610d84527f1fffffffffffffffffffffffffffffffffffffffffffffffffffffffffffffff6048610d4020169050919050565b6004356004810135600181147f1fffffffffffffffffffffffffffffffffffffffffffffffffffffffffffffff602484013516610720526024359250600483013581602c82141691507f30644e72e131a029b85045b68181585d97816a916871ca8d3c208c16d87cfd476024850135067f30644e72e131a029b85045b68181585d97816a916871ca8d3c208c16d87cfd476044860135067f30644e72e131a029b85045b68181585d97816a916871ca8d3c208c16d87cfd47828309847f30644e72e131a029b85045b68181585d97816a916871ca8d3c208c16d87cfd4760037f30644e72e131a029b85045b68181585d97816a916871ca8d3c208c16d87cfd47848709087f30644e72e131a029b85045b68181585d97816a916871ca8d3c208c16d87cfd4784850914169450826107405281610760525050507f30644e72e131a029b85045b68181585d97816a916871ca8d3c208c16d87cfd476064850135067f30644e72e131a029b85045b68181585d97816a916871ca8d3c208c16d87cfd476084860135067f30644e72e131a029b85045b68181585d97816a916871ca8d3c208c16d87cfd47828309847f30644e72e131a029b85045b68181585d97816a916871ca8d3c208c16d87cfd4760037f30644e72e131a029b85045b68181585d97816a916871ca8d3c208c16d87cfd47848709087f30644e72e131a029b85045b68181585d97816a916871ca8d3c208c16d87cfd47848509141694508261078052816107a0525050507f30644e72e131a029b85045b68181585d97816a916871ca8d3c208c16d87cfd4760a4850135067f30644e72e131a029b85045b68181585d97816a916871ca8d3c208c16d87cfd4760c4860135067f30644e72e131a029b85045b68181585d97816a916871ca8d3c208c16d87cfd47828309847f30644e72e131a029b85045b68181585d97816a916871ca8d3c208c16d87cfd4760037f30644e72e131a029b85045b68181585d97816a916871ca8d3c208c16d87cfd47848709087f30644e72e131a029b85045b68181585d97816a916871ca8d3c208c16d87cfd4784850914169450826107c052816107e0525050507f30644e72e131a029b85045b68181585d97816a916871ca8d3c208c16d87cfd4760e4850135067f30644e72e131a029b85045b68181585d97816a916871ca8d3c208c16d87cfd47610104860135067f30644e72e131a029b85045b68181585d97816a916871ca8d3c208c16d87cfd47828309847f30644e72e131a029b85045b68181585d97816a916871ca8d3c208c16d87cfd4760037f30644e72e131a029b85045b68181585d97816a916871ca8d3c208c16d87cfd47848709087f30644e72e131a029b85045b68181585d97816a916871ca8d3c208c16d87cfd4784850914169450826108005281610820525050507f30644e72e131a029b85045b68181585d97816a916871ca8d3c208c16d87cfd47610124850135067f30644e72e131a029b85045b68181585d97816a916871ca8d3c208c16d87cfd47610144860135067f30644e72e131a029b85045b68181585d97816a916871ca8d3c208c16d87cfd47828309847f30644e72e131a029b85045b68181585d97816a916871ca8d3c208c16d87cfd4760037f30644e72e131a029b85045b68181585d97816a916871ca8d3c208c16d87cfd47848709087f30644e72e131a029b85045b68181585d97816a916871ca8d3c208c16d87cfd4784850914169450826108405281610860525050507f30644e72e131a029b85045b68181585d97816a916871ca8d3c208c16d87cfd47610164850135067f30644e72e131a029b85045b68181585d97816a916871ca8d3c208c16d87cfd47610184860135067f30644e72e131a029b85045b68181585d97816a916871ca8d3c208c16d87cfd47828309847f30644e72e131a029b85045b68181585d97816a916871ca8d3c208c16d87cfd4760037f30644e72e131a029b85045b68181585d97816a916871ca8d3c208c16d87cfd47848709087f30644e72e131a029b85045b68181585d97816a916871ca8d3c208c16d87cfd47848509141694508261088052816108a0525050507f30644e72e131a029b85045b68181585d97816a916871ca8d3c208c16d87cfd476101a4850135067f30644e72e131a029b85045b68181585d97816a916871ca8d3c208c16d87cfd476101c4860135067f30644e72e131a029b85045b68181585d97816a916871ca8d3c208c16d87cfd47828309847f30644e72e131a029b85045b68181585d97816a916871ca8d3c208c16d87cfd4760037f30644e72e131a029b85045b68181585d97816a916871ca8d3c208c16d87cfd47848709087f30644e72e131a029b85045b68181585d97816a916871ca8d3c208c16d87cfd4784850914169450826108c052816108e0525050507f30644e72e131a029b85045b68181585d97816a916871ca8d3c208c16d87cfd476101e4850135067f30644e72e131a029b85045b68181585d97816a916871ca8d3c208c16d87cfd47610204860135067f30644e72e131a029b85045b68181585d97816a916871ca8d3c208c16d87cfd47828309847f30644e72e131a029b85045b68181585d97816a916871ca8d3c208c16d87cfd4760037f30644e72e131a029b85045b68181585d97816a916871ca8d3c208c16d87cfd47848709087f30644e72e131a029b85045b68181585d97816a916871ca8d3c208c16d87cfd4784850914169450826109005281610920525050507f30644e72e131a029b85045b68181585d97816a916871ca8d3c208c16d87cfd47610224850135067f30644e72e131a029b85045b68181585d97816a916871ca8d3c208c16d87cfd47610244860135067f30644e72e131a029b85045b68181585d97816a916871ca8d3c208c16d87cfd47828309847f30644e72e131a029b85045b68181585d97816a916871ca8d3c208c16d87cfd4760037f30644e72e131a029b85045b68181585d97816a916871ca8d3c208c16d87cfd47848709087f30644e72e131a029b85045b68181585d97816a916871ca8d3c208c16d87cfd4784850914169450826109405281610960525050507f30644e72e131a029b85045b68181585d97816a916871ca8d3c208c16d87cfd47610264850135067f30644e72e131a029b85045b68181585d97816a916871ca8d3c208c16d87cfd47610284860135067f30644e72e131a029b85045b68181585d97816a916871ca8d3c208c16d87cfd47828309847f30644e72e131a029b85045b68181585d97816a916871ca8d3c208c16d87cfd4760037f30644e72e131a029b85045b68181585d97816a916871ca8d3c208c16d87cfd47848709087f30644e72e131a029b85045b68181585d97816a916871ca8d3c208c16d87cfd47848509141694508261098052816109a0525050507f30644e72e131a029b85045b68181585d97816a916871ca8d3c208c16d87cfd476102a4850135067f30644e72e131a029b85045b68181585d97816a916871ca8d3c208c16d87cfd476102c4860135067f30644e72e131a029b85045b68181585d97816a916871ca8d3c208c16d87cfd47828309847f30644e72e131a029b85045b68181585d97816a916871ca8d3c208c16d87cfd4760037f30644e72e131a029b85045b68181585d97816a916871ca8d3c208c16d87cfd47848709087f30644e72e131a029b85045b68181585d97816a916871ca8d3c208c16d87cfd4784850914169450826109c052816109e0525050507f30644e72e131a029b85045b68181585d2833e84879b9709143e1f593f00000016102e485013506610a00527f30644e72e131a029b85045b68181585d2833e84879b9709143e1f593f000000161030485013506610a20527f30644e72e131a029b85045b68181585d2833e84879b9709143e1f593f000000161032485013506610a40527f30644e72e131a029b85045b68181585d2833e84879b9709143e1f593f000000161034485013506610a60527f30644e72e131a029b85045b68181585d2833e84879b9709143e1f593f000000161036485013506610a80527f30644e72e131a029b85045b68181585d2833e84879b9709143e1f593f000000161038485013506610aa0527f30644e72e131a029b85045b68181585d2833e84879b9709143e1f593f00000016103a485013506610ac0527f30644e72e131a029b85045b68181585d2833e84879b9709143e1f593f00000016103c485013506610ae0527f30644e72e131a029b85045b68181585d2833e84879b9709143e1f593f00000016103e485013506610b00527f30644e72e131a029b85045b68181585d2833e84879b9709143e1f593f000000161040485013506610b20527f30644e72e131a029b85045b68181585d2833e84879b9709143e1f593f000000161042485013506610b40527f30644e72e131a029b85045b68181585d2833e84879b9709143e1f593f000000161044485013506610b60527f30644e72e131a029b85045b68181585d2833e84879b9709143e1f593f000000161046485013506610b80527f30644e72e131a029b85045b68181585d2833e84879b9709143e1f593f000000161048485013506610ba0527f30644e72e131a029b85045b68181585d2833e84879b9709143e1f593f00000016104a485013506610bc0527f30644e72e131a029b85045b68181585d2833e84879b9709143e1f593f00000016104c485013506610be0527f30644e72e131a029b85045b68181585d2833e84879b9709143e1f593f00000016104e485013506610c00527f30644e72e131a029b85045b68181585d2833e84879b9709143e1f593f000000161050485013506610c20527f30644e72e131a029b85045b68181585d97816a916871ca8d3c208c16d87cfd47610524850135067f30644e72e131a029b85045b68181585d97816a916871ca8d3c208c16d87cfd47610544860135067f30644e72e131a029b85045b68181585d97816a916871ca8d3c208c16d87cfd47828309847f30644e72e131a029b85045b68181585d97816a916871ca8d3c208c16d87cfd4760037f30644e72e131a029b85045b68181585d97816a916871ca8d3c208c16d87cfd47848709087f30644e72e131a029b85045b68181585d97816a916871ca8d3c208c16d87cfd478485091416945082610c405281610c60525050507f30644e72e131a029b85045b68181585d97816a916871ca8d3c208c16d87cfd47610564850135067f30644e72e131a029b85045b68181585d97816a916871ca8d3c208c16d87cfd47610584860135067f30644e72e131a029b85045b68181585d97816a916871ca8d3c208c16d87cfd47828309847f30644e72e131a029b85045b68181585d97816a916871ca8d3c208c16d87cfd4760037f30644e72e131a029b85045b68181585d97816a916871ca8d3c208c16d87cfd47848709087f30644e72e131a029b85045b68181585d97816a916871ca8d3c208c16d87cfd478485091416945082610c805281610ca05250505060443593506004840135610700515f81146115ac5783600483141693507f30644e72e131a029b85045b68181585d97816a916871ca8d3c208c16d87cfd476024870135067f30644e72e131a029b85045b68181585d97816a916871ca8d3c208c16d87cfd476044880135067f30644e72e131a029b85045b68181585d97816a916871ca8d3c208c16d87cfd47828309867f30644e72e131a029b85045b68181585d97816a916871ca8d3c208c16d87cfd4760037f30644e72e131a029b85045b68181585d97816a916871ca8d3c208c16d87cfd47848709087f30644e72e131a029b85045b68181585d97816a916871ca8d3c208c16d87cfd478485091416965082610cc05281610ce0525050507f30644e72e131a029b85045b68181585d97816a916871ca8d3c208c16d87cfd476064870135067f30644e72e131a029b85045b68181585d97816a916871ca8d3c208c16d87cfd476084880135067f30644e72e131a029b85045b68181585d97816a916871ca8d3c208c16d87cfd47828309867f30644e72e131a029b85045b68181585d97816a916871ca8d3c208c16d87cfd4760037f30644e72e131a029b85045b68181585d97816a916871ca8d3c208c16d87cfd47848709087f30644e72e131a029b85045b68181585d97816a916871ca8d3c208c16d87cfd478485091416965082610d005281610d20525050506115b3565b8382151693505b50826115e5576115e47f6c6f616450726f6f663a2050726f6f6620697320696e76616c69640000000000601b610094565b5b5050505050565b6115f86107205161039d565b6116046107405161039d565b6116106107605161039d565b61161c6107805161039d565b6116286107a05161039d565b6116346107c05161039d565b6116406107e05161039d565b61164c6108005161039d565b6116586108205161039d565b6116615f6103c8565b610f00526116716108805161039d565b61167d6108a05161039d565b61168760016103c8565b610de05261169560026103c8565b610e00526116a56108405161039d565b6116b16108605161039d565b6116bb60036103c8565b610f20526116c960046103c8565b610f40526116d96108c05161039d565b6116e56108e05161039d565b6116ef60056103c8565b610dc0526116ff6109005161039d565b61170b6109205161039d565b6117176109405161039d565b6117236109605161039d565b61172f6109805161039d565b61173b6109a05161039d565b6117476109c05161039d565b6117536109e05161039d565b61175d60066103c8565b80610fe0526117706304000000826100c9565b6110605250611781610c005161039d565b61178d610a005161039d565b611799610a205161039d565b6117a5610a405161039d565b6117b1610a605161039d565b6117bd610a805161039d565b6117c9610aa05161039d565b6117d5610ac05161039d565b6117e1610ae05161039d565b6117ed610b005161039d565b6117f9610b205161039d565b611805610b805161039d565b611811610bc05161039d565b61181d610be05161039d565b611829610b405161039d565b611835610b605161039d565b611841610ba05161039d565b61184d610c205161039d565b61185760076103c8565b610fa052611867610c405161039d565b611873610c605161039d565b61187f610c805161039d565b61188b610ca05161039d565b61189560086103c8565b610fc052565b610dc0517f30644e72e131a029b85045b68181585d2833e84879b9709143e1f593f000000181820980610e20527f30644e72e131a029b85045b68181585d2833e84879b9709143e1f593f0000001828209905080610e40527f30644e72e131a029b85045b68181585d2833e84879b9709143e1f593f0000001828209905080610e60527f30644e72e131a029b85045b68181585d2833e84879b9709143e1f593f0000001828209905080610e80527f30644e72e131a029b85045b68181585d2833e84879b9709143e1f593f0000001828209905080610ea0527f30644e72e131a029b85045b68181585d2833e84879b9709143e1f593f0000001828209905080610ec0527f30644e72e131a029b85045b68181585d2833e84879b9709143e1f593f0000001828209905080610ee0525050610fe0516119da815f611b72565b611020526119ef816001630400000003611b72565b611040527f30644e72e131a029b85045b68181585d2833e84879b9709143e1f593f00000016107205161102051097f30644e72e131a029b85045b68181585d2833e84879b9709143e1f593f0000001610aa05182097f30644e72e131a029b85045b68181585d2833e84879b9709143e1f593f0000001611a6d611d22565b820890507f30644e72e131a029b85045b68181585d2833e84879b9709143e1f593f0000001611a9a611fff565b820890507f30644e72e131a029b85045b68181585d2833e84879b9709143e1f593f000000181610c20510890507f30644e72e131a029b85045b68181585d2833e84879b9709143e1f593f000000160017f30644e72e131a029b85045b68181585d2833e84879b9709143e1f593f00000010361106051087f30644e72e131a029b85045b68181585d2833e84879b9709143e1f593f000000181610c005109828114611b6b57611b6a7f696e76616c69642071756f7469656e74206576616c756174696f6e0000000000601b610094565b5b5050505050565b5f60018215611ba857611ba5837f1dba8b5bdd64ef6ce29a9039aca3c0e524395c43b9227b96c75090cc6cc7ec976100c9565b90505b7f30644e72e131a029b85045b68181585d2833e84879b9709143e1f593f000000160017f30644e72e131a029b85045b68181585d2833e84879b9709143e1f593f000000103611bfb6304000000876100c9565b08915081611c2f57611c2e7f696e76616c69642076616e697368696e6720706f6c796e6f6d69616c00000000601c610094565b5b7f30644e72e131a029b85045b68181585d2833e84879b9709143e1f593f000000181830991507f30644e72e131a029b85045b68181585d2833e84879b9709143e1f593f0000001817f30644e72e131a029b85045b68181585d2833e84879b9709143e1f593f00000010385087f30644e72e131a029b85045b68181585d2833e84879b9709143e1f593f0000001630400000082099050611cf260027f30644e72e131a029b85045b68181585d2833e84879b9709143e1f593f000000103826100c9565b90507f30644e72e131a029b85045b68181585d2833e84879b9709143e1f593f00000018184099250505092915050565b5f7f30644e72e131a029b85045b68181585d2833e84879b9709143e1f593f0000001610b2051610e6051099050610e0051610de0515f7f30644e72e131a029b85045b68181585d2833e84879b9709143e1f593f000000182610ac0510990507f30644e72e131a029b85045b68181585d2833e84879b9709143e1f593f000000183820890507f30644e72e131a029b85045b68181585d2833e84879b9709143e1f593f0000001610a0051820890507f30644e72e131a029b85045b68181585d2833e84879b9709143e1f593f000000181850993507f30644e72e131a029b85045b68181585d2833e84879b9709143e1f593f000000182610ae0510990507f30644e72e131a029b85045b68181585d2833e84879b9709143e1f593f000000183820890507f30644e72e131a029b85045b68181585d2833e84879b9709143e1f593f0000001610a2051820890507f30644e72e131a029b85045b68181585d2833e84879b9709143e1f593f000000181850993507f30644e72e131a029b85045b68181585d2833e84879b9709143e1f593f000000182610b00510990507f30644e72e131a029b85045b68181585d2833e84879b9709143e1f593f000000183820890507f30644e72e131a029b85045b68181585d2833e84879b9709143e1f593f0000001610a4051820890507f30644e72e131a029b85045b68181585d2833e84879b9709143e1f593f000000181850993507f30644e72e131a029b85045b68181585d2833e84879b9709143e1f593f00000018084610a60510885099350505050807f30644e72e131a029b85045b68181585d2833e84879b9709143e1f593f0000001039050611020517f30644e72e131a029b85045b68181585d2833e84879b9709143e1f593f0000001610e8051820990507f30644e72e131a029b85045b68181585d2833e84879b9709143e1f593f0000001817f30644e72e131a029b85045b68181585d2833e84879b9709143e1f593f000000103830891505090565b5f610f2051610f40517f30644e72e131a029b85045b68181585d2833e84879b9709143e1f593f0000001600183087f30644e72e131a029b85045b68181585d2833e84879b9709143e1f593f000000182820981610f605280610f80527f30644e72e131a029b85045b68181585d2833e84879b9709143e1f593f000000184610b40510994507f30644e72e131a029b85045b68181585d2833e84879b9709143e1f593f000000181860894507f30644e72e131a029b85045b68181585d2833e84879b9709143e1f593f0000001610b6051860994507f30644e72e131a029b85045b68181585d2833e84879b9709143e1f593f0000001610ea0518609945061212d60016304000000037f1dba8b5bdd64ef6ce29a9039aca3c0e524395c43b9227b96c75090cc6cc7ec976100c9565b7f30644e72e131a029b85045b68181585d2833e84879b9709143e1f593f0000001817f30644e72e131a029b85045b68181585d2833e84879b9709143e1f593f000000103610fe0510880611000527f30644e72e131a029b85045b68181585d2833e84879b9709143e1f593f0000001818809965050507f30644e72e131a029b85045b68181585d2833e84879b9709143e1f593f0000001610ec05161102051097f30644e72e131a029b85045b68181585d2833e84879b9709143e1f593f0000001817f30644e72e131a029b85045b68181585d2833e84879b9709143e1f593f00000010387089550506110405161222b6001630400000003836100c9565b610ee0517f30644e72e131a029b85045b68181585d2833e84879b9709143e1f593f0000001817f30644e72e131a029b85045b68181585d2833e84879b9709143e1f593f0000001848609097f30644e72e131a029b85045b68181585d2833e84879b9709143e1f593f0000001817f30644e72e131a029b85045b68181585d2833e84879b9709143e1f593f0000001038a089850505050505050505090565b6122d68183610200610147565b6122e381846102406102be565b6122f081856102806102be565b6122fd81866102c06102be565b61232d817f30644e72e131a029b85045b68181585d2833e84879b9709143e1f593f00000018585096103006102be565b61235d817f30644e72e131a029b85045b68181585d2833e84879b9709143e1f593f00000018685096103406102be565b61236961038082610267565b61237981610a80516103c06102be565b7f30644e72e131a029b85045b68181585d2833e84879b9709143e1f593f0000001610fa051610aa051096123ae828284610147565b505050505050565b5f807f30644e72e131a029b85045b68181585d2833e84879b9709143e1f593f000000184850991507f30644e72e131a029b85045b68181585d2833e84879b9709143e1f593f0000001857f30644e72e131a029b85045b68181585d2833e84879b9709143e1f593f000000103830891507f30644e72e131a029b85045b68181585d2833e84879b9709143e1f593f0000001610dc051830991507f30644e72e131a029b85045b68181585d2833e84879b9709143e1f593f000000185860990507f30644e72e131a029b85045b68181585d2833e84879b9709143e1f593f0000001867f30644e72e131a029b85045b68181585d2833e84879b9709143e1f593f000000103820890507f30644e72e131a029b85045b68181585d2833e84879b9709143e1f593f0000001610e2051820990507f30644e72e131a029b85045b68181585d2833e84879b9709143e1f593f000000181830891507f30644e72e131a029b85045b68181585d2833e84879b9709143e1f593f000000184870990507f30644e72e131a029b85045b68181585d2833e84879b9709143e1f593f0000001877f30644e72e131a029b85045b68181585d2833e84879b9709143e1f593f000000103820890507f30644e72e131a029b85045b68181585d2833e84879b9709143e1f593f0000001610e4051820990507f30644e72e131a029b85045b68181585d2833e84879b9709143e1f593f000000181830891507f30644e72e131a029b85045b68181585d2833e84879b9709143e1f593f0000001610fa051830991506125ff83836104406102be565b50505050505050565b610e60517f30644e72e131a029b85045b68181585d2833e84879b9709143e1f593f0000001610de051610fe05109610e00517f30644e72e131a029b85045b68181585d2833e84879b9709143e1f593f0000001857f30644e72e131a029b85045b68181585d2833e84879b9709143e1f593f0000001838508087f30644e72e131a029b85045b68181585d2833e84879b9709143e1f593f000000181850993507f30644e72e131a029b85045b68181585d2833e84879b9709143e1f593f0000001877f30644e72e131a029b85045b68181585d2833e84879b9709143e1f593f0000001847f30644e72e131a029b85045b68181585d2833e84879b9709143e1f593f000000160058809080890507f30644e72e131a029b85045b68181585d2833e84879b9709143e1f593f000000181850993507f30644e72e131a029b85045b68181585d2833e84879b9709143e1f593f0000001887f30644e72e131a029b85045b68181585d2833e84879b9709143e1f593f0000001847f30644e72e131a029b85045b68181585d2833e84879b9709143e1f593f000000160078809080890507f30644e72e131a029b85045b68181585d2833e84879b9709143e1f593f000000181850993507f30644e72e131a029b85045b68181585d2833e84879b9709143e1f593f0000001897f30644e72e131a029b85045b68181585d2833e84879b9709143e1f593f0000001847f30644e72e131a029b85045b68181585d2833e84879b9709143e1f593f0000001600a8809080890507f30644e72e131a029b85045b68181585d2833e84879b9709143e1f593f00000018185099350505050611020517f30644e72e131a029b85045b68181585d2833e84879b9709143e1f593f000000180610e80518309830891507f30644e72e131a029b85045b68181585d2833e84879b9709143e1f593f0000001610fa0518309915081611340527f30644e72e131a029b85045b68181585d2833e84879b9709143e1f593f0000001610de051610e60510991507f30644e72e131a029b85045b68181585d2833e84879b9709143e1f593f0000001610b205183099150610de051610e00517f30644e72e131a029b85045b68181585d2833e84879b9709143e1f593f0000001867f30644e72e131a029b85045b68181585d2833e84879b9709143e1f593f0000001837f30644e72e131a029b85045b68181585d2833e84879b9709143e1f593f000000186610ac0510908087f30644e72e131a029b85045b68181585d2833e84879b9709143e1f593f000000181860994507f30644e72e131a029b85045b68181585d2833e84879b9709143e1f593f0000001887f30644e72e131a029b85045b68181585d2833e84879b9709143e1f593f0000001847f30644e72e131a029b85045b68181585d2833e84879b9709143e1f593f000000187610ae05109080890507f30644e72e131a029b85045b68181585d2833e84879b9709143e1f593f000000181860994507f30644e72e131a029b85045b68181585d2833e84879b9709143e1f593f0000001897f30644e72e131a029b85045b68181585d2833e84879b9709143e1f593f0000001847f30644e72e131a029b85045b68181585d2833e84879b9709143e1f593f000000187610b005109080890507f30644e72e131a029b85045b68181585d2833e84879b9709143e1f593f000000181860994505050507f30644e72e131a029b85045b68181585d2833e84879b9709143e1f593f0000001610fa05183099150612b1661108083610540610147565b612b22611080846101ee565b50505050505050565b610b60517f30644e72e131a029b85045b68181585d2833e84879b9709143e1f593f0000001610ea051820990507f30644e72e131a029b85045b68181585d2833e84879b9709143e1f593f000000161100051820990507f30644e72e131a029b85045b68181585d2833e84879b9709143e1f593f0000001610fa051820990508061138052610ba05190507f30644e72e131a029b85045b68181585d2833e84879b9709143e1f593f0000001610f2051820990507f30644e72e131a029b85045b68181585d2833e84879b9709143e1f593f0000001610b8051820890507f30644e72e131a029b85045b68181585d2833e84879b9709143e1f593f0000001610f8051820890505f839050610f0051807f30644e72e131a029b85045b68181585d2833e84879b9709143e1f593f000000180888309840892507f30644e72e131a029b85045b68181585d2833e84879b9709143e1f593f000000182820990507f30644e72e131a029b85045b68181585d2833e84879b9709143e1f593f000000180898309840892507f30644e72e131a029b85045b68181585d2833e84879b9709143e1f593f000000182820990507f30644e72e131a029b85045b68181585d2833e84879b9709143e1f593f00000018082610be05109840892507f30644e72e131a029b85045b68181585d2833e84879b9709143e1f593f0000001610bc051840992507f30644e72e131a029b85045b68181585d2833e84879b9709143e1f593f0000001610f40518408925050507f30644e72e131a029b85045b68181585d2833e84879b9709143e1f593f000000181830991507f30644e72e131a029b85045b68181585d2833e84879b9709143e1f593f0000001610f605183099150817f30644e72e131a029b85045b68181585d2833e84879b9709143e1f593f00000010391507f30644e72e131a029b85045b68181585d2833e84879b9709143e1f593f0000001610ea051830991507f30644e72e131a029b85045b68181585d2833e84879b9709143e1f593f000000161100051830991507f30644e72e131a029b85045b68181585d2833e84879b9709143e1f593f000000180610ec0516110205109830891507f30644e72e131a029b85045b68181585d2833e84879b9709143e1f593f000000180610ee0516110405109830891507f30644e72e131a029b85045b68181585d2833e84879b9709143e1f593f0000001610fa051830991508161136052505050505050565b6110605180610900516110c052610920516110e052612ed56110c0826109406102be565b7f30644e72e131a029b85045b68181585d2833e84879b9709143e1f593f00000018282099050612f0a6110c0826109806102be565b7f30644e72e131a029b85045b68181585d2833e84879b9709143e1f593f00000018282099050612f3f6110c0826109c06102be565b5050610a0051610a2051610a4051610a6051612f60818385876111006122c9565b612f6f818385876111006123b6565b612f7e81838587611100612608565b612f8c828486611100612b2b565b505050506105c051611140526105e05161116052610f005180612fb4611140826106006102be565b7f30644e72e131a029b85045b68181585d2833e84879b9709143e1f593f00000018282099050612fe9611140826106406102be565b7f30644e72e131a029b85045b68181585d2833e84879b9709143e1f593f0000001828209905061301e611140826106806102be565b5050565b60015f806110c051611180526110e0516111a052610c00516130aa565b5f807f30644e72e131a029b85045b68181585d2833e84879b9709143e1f593f0000001610fa0518609915061307761118083856102be565b7f30644e72e131a029b85045b68181585d2833e84879b9709143e1f593f000000180855184098708905094509492505050565b6130bb611180611100611180610196565b7f30644e72e131a029b85045b68181585d2833e84879b9709143e1f593f0000001610fa051850993507f30644e72e131a029b85045b68181585d2833e84879b9709143e1f593f000000180610c20518609820890506131208185610a0061074061303f565b915093506131348185610a2061078061303f565b915093506131488185610a406107c061303f565b915093507f30644e72e131a029b85045b68181585d2833e84879b9709143e1f593f0000001610fa051850993508392507f30644e72e131a029b85045b68181585d2833e84879b9709143e1f593f000000180610a60518609820890506131b48185610aa061040061303f565b915093506131c88185610ac061048061303f565b915093506131dc8185610ae06104c061303f565b915093506131f08185610b0061050061303f565b915093507f30644e72e131a029b85045b68181585d2833e84879b9709143e1f593f0000001610fa051850993508391507f30644e72e131a029b85045b68181585d2833e84879b9709143e1f593f000000180610b805186098208905061325c8185610bc061058061303f565b915093506132708185610be06106c061303f565b9150935080611200527f30644e72e131a029b85045b68181585d2833e84879b9709143e1f593f0000001610fa051850993507f30644e72e131a029b85045b68181585d2833e84879b9709143e1f593f000000180610fc051860961134051086132de6111c082610840610147565b7f30644e72e131a029b85045b68181585d2833e84879b9709143e1f593f000000185610b2051096133a1565b5f807f30644e72e131a029b85045b68181585d2833e84879b9709143e1f593f0000001610fa051870991507f30644e72e131a029b85045b68181585d2833e84879b9709143e1f593f000000180610fc0518409860861336c6111c082866102be565b7f30644e72e131a029b85045b68181585d2833e84879b9709143e1f593f0000001808651850989089150509550959350505050565b6133b2818787610a8061080061330a565b915095506133ca818761138051610b4061088061330a565b915095506133e2818761136051610b606108c061330a565b915095506133f7818786610ba061114061330a565b915095508061122052610fc0516134156112806111c0611180610196565b7f30644e72e131a029b85045b68181585d2833e84879b9709143e1f593f0000001611200517f30644e72e131a029b85045b68181585d2833e84879b9709143e1f593f00000018361122051090860016112405260026112605261347d61124082611240610147565b5050505050505050565b610fc051610fe0517f30644e72e131a029b85045b68181585d2833e84879b9709143e1f593f00000017f1dba8b5bdd64ef6ce29a9039aca3c0e524395c43b9227b96c75090cc6cc7ec97610fe051096134e46112406112806101ee565b6134f361128083610c406102be565b6135256112807f30644e72e131a029b85045b68181585d2833e84879b9709143e1f593f0000001858409610c806102be565b610c405161130052610c60516113205261354461130084610c806102be565b61354f61130061032a565b610700511561359c577f30644e72e131a029b85045b68181585d2833e84879b9709143e1f593f000000183840961358b61128082610cc06102be565b61359a61130082610d006102be565b505b611280515f526112a0516020527f198e9393920d483a7260bfb731fb5d25f1aa493335a9e71297e485b7aef312c26040527f1800deef121f1e76426a00665e5c4479674322d4f75edadd46debd5cd992f6ed6060527f090689d0585ff075ec9e99ad690c3395bc4b313370b38ef355acdadcd122975b6080527f12c85ea5db8c6deb4aab71808dcb408fe3d1e7690c43d37b4ce6cc0166fa7daa60a0526113005160c0526113205160e0527f260e01b251f6f1c7e7ff4e580791dee8ea51d87a358e038b4efe30fac09383c1610100527f0118c4d5b837bcc2bc89b5b398b5974e9f5944073b32078b7e231fec938883b0610120527f04fc6369f7110fe3d25156c1bb9a72859cf2a04641f99ba4ee413c80da6a5fe4610140527f22febda3c0c0632a56475b4214e5615e11e6dd3f96e6cea2854a87d4dacc5e556101605260205f6101805f60085afa80613717576137167f66696e616c50616972696e673a20707265636f6d70696c65206661696c7572656020610094565b5b5f51613749576137487f66696e616c50616972696e673a2070616972696e67206661696c757265000000601d610094565b5b50505050565b613757610406565b61375f6115ec565b61376761189b565b61376f612eb1565b613777613022565b61377f613487565b60015f5260205ff35b5f6137916137a8565b610200610700602082820301808320935050505090565b7f13598f50f1a62920416dd9f16d46032cbe810bb384da5b0ff42bdf6ab1e69662610200527f19df99dfa60feb4bd15ddb271efac0179104c5b7a27078115a91079ca2826d51610220527f2cf47b2a9e17ea94be18ecb13eec2e5706880527ed0d88fd5969ac069a8aac06610240527f2e3294b57b45a03075ee2e89c9e7d2ab5f261b5e2408578112b6aa7bf12a2e5f610260527f0377df0615f3f859583ca885861a6c0f885778f0633d082b9883afcbcb186c6c610280527f0cde99a920bf69e9ff1d42b719e2895f0da6d6a334f2a2a4e135cc93bf515a4a6102a0527f042222cc79ad515fdae98dddc09d8e78fc8af37a69baf36a04188ca54334c4436102c0527f0f0158e345c08da2021b703aac1b697d2f3553617fef778bf2c5fafc40324be16102e0527f0102fab7a43b3ac26db87f53bd303cf44d6f7c963046681422c32dea20a526df610300527f221a29c1df2e5822d060261802073700a285082ebb1263e53814b017a8bfb14b610320527f269fbe8da379085e789a60720c12324ee4efc0f9215bfc30a65134ecbe875682610340527f0134b14e94b7a719d213a0e7136547add67e71723ed82c87e8a0f8926fb002ac610360527f07d50d604f391c8f7331ce2df7115aa8a6db6bcc1ad246255b12da2e80f7d815610380527f16f31ebefd077f85029a1af6136a2d63e8e92015ea44bac6386cb05fc7aca56e6103a0527f1ceeda30b083c5b748a1dbbefc4b8324e35cb9830c630b8064ece3a7c30e5f4a6103c0527e37029b76eb626e15fefc39fb9c142499e9ee283063b2811afff7211b9a0b636103e0527f1885051503e3667eac61262e28b7cedd16a619d19e8820a522a269dc98262c69610400527f0daf7bffe99c0357aefcd6ccaf363ce5096e48d105fc8583e649589cc149183d610420527f215a735844e0035f245a45154f19635bdc70d8f48eef46384c2c948002af0c81610440527f1faecf6813ffbc0a2eeeb50ca035d4542ca557f15e2b82ffffb24024cf3df2d1610460527f2f24b1ffdea08385d0ca89b32db8601b3b95b255903edceac52402dfece9eee4610480527f1e90e41ecb35e8455c55bf4cfd41e80bb4e5dd845b65c6f77e2ac0821b09a8836104a0527f128d006b473b50bc85a1a2707c278e08186e4402010178bf930b7ea24e203ed06104c0527f0fa100f35e66d3c2429f1c20be00fe21b79a65e9de665ba420ee388ee0b47b3c6104e0527f3026de72fd5e47f96c7d0f4f0c15cfd5f50438991fdbb18d4c5d18561b0e87cd610500527f20162d33d551a2599be33cfba40358bdab4338891cfe7e028355e5a50442b5a4610520527f0a811f316900d60021c0ef765bcfc2070cc3a8b38b09a3b4be04e37e292ebaf1610540527f192c167388faa4266ced24b8e3687e81974aa8caaf1ac3e8a3fab3947c7b65d1610560527f2c513ed74d9d57a5ec901e074032741036353a2c4513422e96e7b53b302d765b6105c0527f04dd964427e430f16004076d708c0cb21e225056cc1d57418cfbd3d4729814686105e0527f1ea83e5e65c6f8068f4677e2911678cf329b28259642a32db1f14b8347828aac610600527f1d22bc884a2da4962a893ba8de13f57aaeb785ed52c5e686994839cab8f7475d610620527f0b2e7212d0d9cff26d0bdf3d79b2cac029a25dfeb1cafdf49e2349d7db348d89610640527f1301f9b252419ea240eb67fda720ca0b16d92364027285f95e9b1349490fa283610660527f02f7b99fdfa5b418548c2d777785820e02383cfc87e7085e280a375a358153bf610680527f09d004fe08dc4d19c382df36fad22ef676185663543703e6a4b40203e50fd8a66106a0527f300223627d9e977c0b02a64b49cb1c6c7833b82e25bacb420ef6f48b6deeed06610580527f2d0bd4b927912e6509088fb7167a30b85bd5d031e75b057b687e62fc6d779f916105a0527e6f5f6969088413e15abe92418dd7668c6c5fa2dcca168e71a98d84a9fe39de6106c0527f18550c804fadc55861b6a34d5341d594486833e62bd6137089f3335566ca40ee6106e0525f61070052565b5f80fd5b5f80fd5b5f80fd5b5f80fd5b5f80fd5b5f8083601f840112613d9e57613d9d613d7d565b5b8235905067ffffffffffffffff811115613dbb57613dba613d81565b5b602083019150836020820283011115613dd757613dd6613d85565b5b9250929050565b5f805f805f8060608789031215613df857613df7613d75565b5b5f87013567ffffffffffffffff811115613e1557613e14613d79565b5b613e2189828a01613d89565b9650965050602087013567ffffffffffffffff811115613e4457613e43613d79565b5b613e5089828a01613d89565b9450945050604087013567ffffffffffffffff811115613e7357613e72613d79565b5b613e7f89828a01613d89565b92509250509295509295509295565b5f8115159050919050565b613ea281613e8e565b82525050565b5f602082019050613ebb5f830184613e99565b92915050565b5f819050919050565b613ed381613ec1565b82525050565b5f602082019050613eec5f830184613eca565b9291505056fea2646970667358221220e4463e4b04cf1aeec667857ec7a81fd77ab5b940b270fb7983184fe282bd405864736f6c634300081a0033",
					"opcodes": "PUSH1 0x80 PUSH1 0x40 MSTORE CALLVALUE DUP1 ISZERO PUSH1 0xE JUMPI PUSH0 DUP1 REVERT JUMPDEST POP PUSH2 0x3F28 DUP1 PUSH2 0x1C PUSH0 CODECOPY PUSH0 RETURN INVALID PUSH1 0x80 PUSH1 0x40 MSTORE CALLVALUE DUP1 ISZERO PUSH2 0xF JUMPI PUSH0 DUP1 REVERT JUMPDEST POP PUSH1 0x4 CALLDATASIZE LT PUSH2 0x34 JUMPI PUSH0 CALLDATALOAD PUSH1 0xE0 SHR DUP1 PUSH4 0x87D9D023 EQ PUSH2 0x38 JUMPI DUP1 PUSH4 0x9E8945D2 EQ PUSH2 0x68 JUMPI JUMPDEST PUSH0 DUP1 REVERT JUMPDEST PUSH2 0x52 PUSH1 0x4 DUP1 CALLDATASIZE SUB DUP2 ADD SWAP1 PUSH2 0x4D SWAP2 SWAP1 PUSH2 0x3DDE JUMP JUMPDEST PUSH2 0x86 JUMP JUMPDEST PUSH1 0x40 MLOAD PUSH2 0x5F SWAP2 SWAP1 PUSH2 0x3EA8 JUMP JUMPDEST PUSH1 0x40 MLOAD DUP1 SWAP2 SUB SWAP1 RETURN JUMPDEST PUSH2 0x70 PUSH2 0x3788 JUMP JUMPDEST PUSH1 0x40 MLOAD PUSH2 0x7D SWAP2 SWAP1 PUSH2 0x3ED9 JUMP JUMPDEST PUSH1 0x40 MLOAD DUP1 SWAP2 SUB SWAP1 RETURN JUMPDEST PUSH0 PUSH2 0x8F PUSH2 0x37A8 JUMP JUMPDEST PUSH2 0x374F JUMP JUMPDEST PUSH32 0x8C379A000000000000000000000000000000000000000000000000000000000 PUSH0 MSTORE PUSH1 0x20 PUSH1 0x4 MSTORE DUP1 PUSH1 0x24 MSTORE DUP2 PUSH1 0x44 MSTORE PUSH1 0x64 PUSH0 REVERT JUMPDEST PUSH0 PUSH1 0x20 PUSH0 MSTORE PUSH1 0x20 DUP1 MSTORE PUSH1 0x20 PUSH1 0x40 MSTORE DUP2 PUSH1 0x60 MSTORE DUP3 PUSH1 0x80 MSTORE PUSH32 0x30644E72E131A029B85045B68181585D2833E84879B9709143E1F593F0000001 PUSH1 0xA0 MSTORE PUSH1 0x20 PUSH0 PUSH1 0xC0 PUSH0 PUSH1 0x5 GAS STATICCALL PUSH2 0x13D JUMPI PUSH2 0x13C PUSH32 0x6D6F6465787020707265636F6D70696C65206661696C65640000000000000000 PUSH1 0x18 PUSH2 0x94 JUMP JUMPDEST JUMPDEST PUSH0 MLOAD SWAP1 POP SWAP3 SWAP2 POP POP JUMP JUMPDEST DUP1 MLOAD PUSH0 MSTORE PUSH1 0x20 DUP2 ADD MLOAD PUSH1 0x20 MSTORE DUP2 PUSH1 0x40 MSTORE PUSH1 0x40 DUP4 PUSH1 0x60 PUSH0 PUSH1 0x7 GAS STATICCALL PUSH2 0x191 JUMPI PUSH2 0x190 PUSH32 0x706F696E744D756C496E746F446573743A2065634D756C206661696C65640000 PUSH1 0x1E PUSH2 0x94 JUMP JUMPDEST JUMPDEST POP POP POP JUMP JUMPDEST DUP1 MLOAD PUSH0 MSTORE PUSH1 0x20 DUP2 ADD MLOAD PUSH1 0x20 MSTORE DUP2 MLOAD PUSH1 0x40 MSTORE PUSH1 0x20 DUP3 ADD MLOAD PUSH1 0x60 MSTORE PUSH1 0x40 DUP4 PUSH1 0x80 PUSH0 PUSH1 0x6 GAS STATICCALL PUSH2 0x1E9 JUMPI PUSH2 0x1E8 PUSH32 0x706F696E74416464496E746F446573743A206563416464206661696C65640000 PUSH1 0x1E PUSH2 0x94 JUMP JUMPDEST JUMPDEST POP POP POP JUMP JUMPDEST DUP1 MLOAD PUSH0 MSTORE PUSH1 0x20 DUP2 ADD MLOAD PUSH1 0x20 MSTORE DUP2 MLOAD PUSH1 0x40 MSTORE PUSH1 0x20 DUP3 ADD MLOAD PUSH32 0x30644E72E131A029B85045B68181585D97816A916871CA8D3C208C16D87CFD47 SUB PUSH1 0x60 MSTORE PUSH1 0x40 DUP2 PUSH1 0x80 PUSH0 PUSH1 0x6 GAS STATICCALL PUSH2 0x263 JUMPI PUSH2 0x262 PUSH32 0x706F696E7453756241737369676E3A206563416464206661696C656400000000 PUSH1 0x1C PUSH2 0x94 JUMP JUMPDEST JUMPDEST POP POP JUMP JUMPDEST DUP1 MLOAD PUSH0 MSTORE PUSH1 0x20 DUP2 ADD MLOAD PUSH1 0x20 MSTORE DUP2 MLOAD PUSH1 0x40 MSTORE PUSH1 0x20 DUP3 ADD MLOAD PUSH1 0x60 MSTORE PUSH1 0x40 DUP2 PUSH1 0x80 PUSH0 PUSH1 0x6 GAS STATICCALL PUSH2 0x2BA JUMPI PUSH2 0x2B9 PUSH32 0x706F696E7441646441737369676E3A206563416464206661696C656400000000 PUSH1 0x1C PUSH2 0x94 JUMP JUMPDEST JUMPDEST POP POP JUMP JUMPDEST DUP1 MLOAD PUSH0 MSTORE PUSH1 0x20 DUP2 ADD MLOAD PUSH1 0x20 MSTORE DUP2 PUSH1 0x40 MSTORE PUSH1 0x40 PUSH0 PUSH1 0x60 PUSH0 PUSH1 0x7 GAS STATICCALL DUP4 MLOAD PUSH1 0x40 MSTORE PUSH1 0x20 DUP5 ADD MLOAD PUSH1 0x60 MSTORE PUSH1 0x40 DUP5 PUSH1 0x80 PUSH0 PUSH1 0x6 GAS STATICCALL DUP2 AND SWAP1 POP DUP1 PUSH2 0x324 JUMPI PUSH2 0x323 PUSH32 0x706F696E744D756C416E64416464496E746F4465737400000000000000000000 PUSH1 0x16 PUSH2 0x94 JUMP JUMPDEST JUMPDEST POP POP POP POP JUMP JUMPDEST PUSH1 0x20 DUP2 ADD MLOAD DUP1 PUSH0 DUP2 EQ PUSH2 0x364 JUMPI DUP2 PUSH32 0x30644E72E131A029B85045B68181585D97816A916871CA8D3C208C16D87CFD47 SUB PUSH1 0x20 DUP5 ADD MSTORE PUSH2 0x398 JUMP JUMPDEST DUP3 MLOAD ISZERO PUSH2 0x397 JUMPI PUSH2 0x396 PUSH32 0x706F696E744E65676174653A20696E76616C696420706F696E74000000000000 PUSH1 0x1A PUSH2 0x94 JUMP JUMPDEST JUMPDEST JUMPDEST POP POP POP JUMP JUMPDEST PUSH0 PUSH2 0xD43 MSTORE8 DUP1 PUSH2 0xD84 MSTORE PUSH1 0x64 PUSH2 0xD40 KECCAK256 PUSH1 0x1 PUSH2 0xD43 MSTORE8 PUSH1 0x64 PUSH2 0xD40 KECCAK256 DUP1 PUSH2 0xD64 MSTORE DUP2 PUSH2 0xD44 MSTORE POP POP POP JUMP JUMPDEST PUSH0 PUSH1 0x2 PUSH2 0xD43 MSTORE8 DUP2 PUSH1 0xE0 SHL PUSH2 0xD84 MSTORE PUSH32 0x1FFFFFFFFFFFFFFFFFFFFFFFFFFFFFFFFFFFFFFFFFFFFFFFFFFFFFFFFFFFFFFF PUSH1 0x48 PUSH2 0xD40 KECCAK256 AND SWAP1 POP SWAP2 SWAP1 POP JUMP JUMPDEST PUSH1 0x4 CALLDATALOAD PUSH1 0x4 DUP2 ADD CALLDATALOAD PUSH1 0x1 DUP2 EQ PUSH32 0x1FFFFFFFFFFFFFFFFFFFFFFFFFFFFFFFFFFFFFFFFFFFFFFFFFFFFFFFFFFFFFFF PUSH1 0x24 DUP5 ADD CALLDATALOAD AND PUSH2 0x720 MSTORE PUSH1 0x24 CALLDATALOAD SWAP3 POP PUSH1 0x4 DUP4 ADD CALLDATALOAD DUP2 PUSH1 0x2C DUP3 EQ AND SWAP2 POP PUSH32 0x30644E72E131A029B85045B68181585D97816A916871CA8D3C208C16D87CFD47 PUSH1 0x24 DUP6 ADD CALLDATALOAD MOD PUSH32 0x30644E72E131A029B85045B68181585D97816A916871CA8D3C208C16D87CFD47 PUSH1 0x44 DUP7 ADD CALLDATALOAD MOD PUSH32 0x30644E72E131A029B85045B68181585D97816A916871CA8D3C208C16D87CFD47 DUP3 DUP4 MULMOD DUP5 PUSH32 0x30644E72E131A029B85045B68181585D97816A916871CA8D3C208C16D87CFD47 PUSH1 0x3 PUSH32 0x30644E72E131A029B85045B68181585D97816A916871CA8D3C208C16D87CFD47 DUP5 DUP8 MULMOD ADDMOD PUSH32 0x30644E72E131A029B85045B68181585D97816A916871CA8D3C208C16D87CFD47 DUP5 DUP6 MULMOD EQ AND SWAP5 POP DUP3 PUSH2 0x740 MSTORE DUP2 PUSH2 0x760 MSTORE POP POP POP PUSH32 0x30644E72E131A029B85045B68181585D97816A916871CA8D3C208C16D87CFD47 PUSH1 0x64 DUP6 ADD CALLDATALOAD MOD PUSH32 0x30644E72E131A029B85045B68181585D97816A916871CA8D3C208C16D87CFD47 PUSH1 0x84 DUP7 ADD CALLDATALOAD MOD PUSH32 0x30644E72E131A029B85045B68181585D97816A916871CA8D3C208C16D87CFD47 DUP3 DUP4 MULMOD DUP5 PUSH32 0x30644E72E131A029B85045B68181585D97816A916871CA8D3C208C16D87CFD47 PUSH1 0x3 PUSH32 0x30644E72E131A029B85045B68181585D97816A916871CA8D3C208C16D87CFD47 DUP5 DUP8 MULMOD ADDMOD PUSH32 0x30644E72E131A029B85045B68181585D97816A916871CA8D3C208C16D87CFD47 DUP5 DUP6 MULMOD EQ AND SWAP5 POP DUP3 PUSH2 0x780 MSTORE DUP2 PUSH2 0x7A0 MSTORE POP POP POP PUSH32 0x30644E72E131A029B85045B68181585D97816A916871CA8D3C208C16D87CFD47 PUSH1 0xA4 DUP6 ADD CALLDATALOAD MOD PUSH32 0x30644E72E131A029B85045B68181585D97816A916871CA8D3C208C16D87CFD47 PUSH1 0xC4 DUP7 ADD CALLDATALOAD MOD PUSH32 0x30644E72E131A029B85045B68181585D97816A916871CA8D3C208C16D87CFD47 DUP3 DUP4 MULMOD DUP5 PUSH32 0x30644E72E131A029B85045B68181585D97816A916871CA8D3C208C16D87CFD47 PUSH1 0x3 PUSH32 0x30644E72E131A029B85045B68181585D97816A916871CA8D3C208C16D87CFD47 DUP5 DUP8 MULMOD ADDMOD PUSH32 0x30644E72E131A029B85045B68181585D97816A916871CA8D3C208C16D87CFD47 DUP5 DUP6 MULMOD EQ AND SWAP5 POP DUP3 PUSH2 0x7C0 MSTORE DUP2 PUSH2 0x7E0 MSTORE POP POP POP PUSH32 0x30644E72E131A029B85045B68181585D97816A916871CA8D3C208C16D87CFD47 PUSH1 0xE4 DUP6 ADD CALLDATALOAD MOD PUSH32 0x30644E72E131A029B85045B68181585D97816A916871CA8D3C208C16D87CFD47 PUSH2 0x104 DUP7 ADD CALLDATALOAD MOD PUSH32 0x30644E72E131A029B85045B68181585D97816A916871CA8D3C208C16D87CFD47 DUP3 DUP4 MULMOD DUP5 PUSH32 0x30644E72E131A029B85045B68181585D97816A916871CA8D3C208C16D87CFD47 PUSH1 0x3 PUSH32 0x30644E72E131A029B85045B68181585D97816A916871CA8D3C208C16D87CFD47 DUP5 DUP8 MULMOD ADDMOD PUSH32 0x30644E72E131A029B85045B68181585D97816A916871CA8D3C208C16D87CFD47 DUP5 DUP6 MULMOD EQ AND SWAP5 POP DUP3 PUSH2 0x800 MSTORE DUP2 PUSH2 0x820 MSTORE POP POP POP PUSH32 0x30644E72E131A029B85045B68181585D97816A916871CA8D3C208C16D87CFD47 PUSH2 0x124 DUP6 ADD CALLDATALOAD MOD PUSH32 0x30644E72E131A029B85045B68181585D97816A916871CA8D3C208C16D87CFD47 PUSH2 0x144 DUP7 ADD CALLDATALOAD MOD PUSH32 0x30644E72E131A029B85045B68181585D97816A916871CA8D3C208C16D87CFD47 DUP3 DUP4 MULMOD DUP5 PUSH32 0x30644E72E131A029B85045B68181585D97816A916871CA8D3C208C16D87CFD47 PUSH1 0x3 PUSH32 0x30644E72E131A029B85045B68181585D97816A916871CA8D3C208C16D87CFD47 DUP5 DUP8 MULMOD ADDMOD PUSH32 0x30644E72E131A029B85045B68181585D97816A916871CA8D3C208C16D87CFD47 DUP5 DUP6 MULMOD EQ AND SWAP5 POP DUP3 PUSH2 0x840 MSTORE DUP2 PUSH2 0x860 MSTORE POP POP POP PUSH32 0x30644E72E131A029B85045B68181585D97816A916871CA8D3C208C16D87CFD47 PUSH2 0x164 DUP6 ADD CALLDATALOAD MOD PUSH32 0x30644E72E131A029B85045B68181585D97816A916871CA8D3C208C16D87CFD47 PUSH2 0x184 DUP7 ADD CALLDATALOAD MOD PUSH32 0x30644E72E131A029B85045B68181585D97816A916871CA8D3C208C16D87CFD47 DUP3 DUP4 MULMOD DUP5 PUSH32 0x30644E72E131A029B85045B68181585D97816A916871CA8D3C208C16D87CFD47 PUSH1 0x3 PUSH32 0x30644E72E131A029B85045B68181585D97816A916871CA8D3C208C16D87CFD47 DUP5 DUP8 MULMOD ADDMOD PUSH32 0x30644E72E131A029B85045B68181585D97816A916871CA8D3C208C16D87CFD47 DUP5 DUP6 MULMOD EQ AND SWAP5 POP DUP3 PUSH2 0x880 MSTORE DUP2 PUSH2 0x8A0 MSTORE POP POP POP PUSH32 0x30644E72E131A029B85045B68181585D97816A916871CA8D3C208C16D87CFD47 PUSH2 0x1A4 DUP6 ADD CALLDATALOAD MOD PUSH32 0x30644E72E131A029B85045B68181585D97816A916871CA8D3C208C16D87CFD47 PUSH2 0x1C4 DUP7 ADD CALLDATALOAD MOD PUSH32 0x30644E72E131A029B85045B68181585D97816A916871CA8D3C208C16D87CFD47 DUP3 DUP4 MULMOD DUP5 PUSH32 0x30644E72E131A029B85045B68181585D97816A916871CA8D3C208C16D87CFD47 PUSH1 0x3 PUSH32 0x30644E72E131A029B85045B68181585D97816A916871CA8D3C208C16D87CFD47 DUP5 DUP8 MULMOD ADDMOD PUSH32 0x30644E72E131A029B85045B68181585D97816A916871CA8D3C208C16D87CFD47 DUP5 DUP6 MULMOD EQ AND SWAP5 POP DUP3 PUSH2 0x8C0 MSTORE DUP2 PUSH2 0x8E0 MSTORE POP POP POP PUSH32 0x30644E72E131A029B85045B68181585D97816A916871CA8D3C208C16D87CFD47 PUSH2 0x1E4 DUP6 ADD CALLDATALOAD MOD PUSH32 0x30644E72E131A029B85045B68181585D97816A916871CA8D3C208C16D87CFD47 PUSH2 0x204 DUP7 ADD CALLDATALOAD MOD PUSH32 0x30644E72E131A029B85045B68181585D97816A916871CA8D3C208C16D87CFD47 DUP3 DUP4 MULMOD DUP5 PUSH32 0x30644E72E131A029B85045B68181585D97816A916871CA8D3C208C16D87CFD47 PUSH1 0x3 PUSH32 0x30644E72E131A029B85045B68181585D97816A916871CA8D3C208C16D87CFD47 DUP5 DUP8 MULMOD ADDMOD PUSH32 0x30644E72E131A029B85045B68181585D97816A916871CA8D3C208C16D87CFD47 DUP5 DUP6 MULMOD EQ AND SWAP5 POP DUP3 PUSH2 0x900 MSTORE DUP2 PUSH2 0x920 MSTORE POP POP POP PUSH32 0x30644E72E131A029B85045B68181585D97816A916871CA8D3C208C16D87CFD47 PUSH2 0x224 DUP6 ADD CALLDATALOAD MOD PUSH32 0x30644E72E131A029B85045B68181585D97816A916871CA8D3C208C16D87CFD47 PUSH2 0x244 DUP7 ADD CALLDATALOAD MOD PUSH32 0x30644E72E131A029B85045B68181585D97816A916871CA8D3C208C16D87CFD47 DUP3 DUP4 MULMOD DUP5 PUSH32 0x30644E72E131A029B85045B68181585D97816A916871CA8D3C208C16D87CFD47 PUSH1 0x3 PUSH32 0x30644E72E131A029B85045B68181585D97816A916871CA8D3C208C16D87CFD47 DUP5 DUP8 MULMOD ADDMOD PUSH32 0x30644E72E131A029B85045B68181585D97816A916871CA8D3C208C16D87CFD47 DUP5 DUP6 MULMOD EQ AND SWAP5 POP DUP3 PUSH2 0x940 MSTORE DUP2 PUSH2 0x960 MSTORE POP POP POP PUSH32 0x30644E72E131A029B85045B68181585D97816A916871CA8D3C208C16D87CFD47 PUSH2 0x264 DUP6 ADD CALLDATALOAD MOD PUSH32 0x30644E72E131A029B85045B68181585D97816A916871CA8D3C208C16D87CFD47 PUSH2 0x284 DUP7 ADD CALLDATALOAD MOD PUSH32 0x30644E72E131A029B85045B68181585D97816A916871CA8D3C208C16D87CFD47 DUP3 DUP4 MULMOD DUP5 PUSH32 0x30644E72E131A029B85045B68181585D97816A916871CA8D3C208C16D87CFD47 PUSH1 0x3 PUSH32 0x30644E72E131A029B85045B68181585D97816A916871CA8D3C208C16D87CFD47 DUP5 DUP8 MULMOD ADDMOD PUSH32 0x30644E72E131A029B85045B68181585D97816A916871CA8D3C208C16D87CFD47 DUP5 DUP6 MULMOD EQ AND SWAP5 POP DUP3 PUSH2 0x980 MSTORE DUP2 PUSH2 0x9A0 MSTORE POP POP POP PUSH32 0x30644E72E131A029B85045B68181585D97816A916871CA8D3C208C16D87CFD47 PUSH2 0x2A4 DUP6 ADD CALLDATALOAD MOD PUSH32 0x30644E72E131A029B85045B68181585D97816A916871CA8D3C208C16D87CFD47 PUSH2 0x2C4 DUP7 ADD CALLDATALOAD MOD PUSH32 0x30644E72E131A029B85045B68181585D97816A916871CA8D3C208C16D87CFD47 DUP3 DUP4 MULMOD DUP5 PUSH32 0x30644E72E131A029B85045B68181585D97816A916871CA8D3C208C16D87CFD47 PUSH1 0x3 PUSH32 0x30644E72E131A029B85045B68181585D97816A916871CA8D3C208C16D87CFD47 DUP5 DUP8 MULMOD ADDMOD PUSH32 0x30644E72E131A029B85045B68181585D97816A916871CA8D3C208C16D87CFD47 DUP5 DUP6 MULMOD EQ AND SWAP5 POP DUP3 PUSH2 0x9C0 MSTORE DUP2 PUSH2 0x9E0 MSTORE POP POP POP PUSH32 0x30644E72E131A029B85045B68181585D2833E84879B9709143E1F593F0000001 PUSH2 0x2E4 DUP6 ADD CALLDATALOAD MOD PUSH2 0xA00 MSTORE PUSH32 0x30644E72E131A029B85045B68181585D2833E84879B9709143E1F593F0000001 PUSH2 0x304 DUP6 ADD CALLDATALOAD MOD PUSH2 0xA20 MSTORE PUSH32 0x30644E72E131A029B85045B68181585D2833E84879B9709143E1F593F0000001 PUSH2 0x324 DUP6 ADD CALLDATALOAD MOD PUSH2 0xA40 MSTORE PUSH32 0x30644E72E131A029B85045B68181585D2833E84879B9709143E1F593F0000001 PUSH2 0x344 DUP6 ADD CALLDATALOAD MOD PUSH2 0xA60 MSTORE PUSH32 0x30644E72E131A029B85045B68181585D2833E84879B9709143E1F593F0000001 PUSH2 0x364 DUP6 ADD CALLDATALOAD MOD PUSH2 0xA80 MSTORE PUSH32 0x30644E72E131A029B85045B68181585D2833E84879B9709143E1F593F0000001 PUSH2 0x384 DUP6 ADD CALLDATALOAD MOD PUSH2 0xAA0 MSTORE PUSH32 0x30644E72E131A029B85045B68181585D2833E84879B9709143E1F593F0000001 PUSH2 0x3A4 DUP6 ADD CALLDATALOAD MOD PUSH2 0xAC0 MSTORE PUSH32 0x30644E72E131A029B85045B68181585D2833E84879B9709143E1F593F0000001 PUSH2 0x3C4 DUP6 ADD CALLDATALOAD MOD PUSH2 0xAE0 MSTORE PUSH32 0x30644E72E131A029B85045B68181585D2833E84879B9709143E1F593F0000001 PUSH2 0x3E4 DUP6 ADD CALLDATALOAD MOD PUSH2 0xB00 MSTORE PUSH32 0x30644E72E131A029B85045B68181585D2833E84879B9709143E1F593F0000001 PUSH2 0x404 DUP6 ADD CALLDATALOAD MOD PUSH2 0xB20 MSTORE PUSH32 0x30644E72E131A029B85045B68181585D2833E84879B9709143E1F593F0000001 PUSH2 0x424 DUP6 ADD CALLDATALOAD MOD PUSH2 0xB40 MSTORE PUSH32 0x30644E72E131A029B85045B68181585D2833E84879B9709143E1F593F0000001 PUSH2 0x444 DUP6 ADD CALLDATALOAD MOD PUSH2 0xB60 MSTORE PUSH32 0x30644E72E131A029B85045B68181585D2833E84879B9709143E1F593F0000001 PUSH2 0x464 DUP6 ADD CALLDATALOAD MOD PUSH2 0xB80 MSTORE PUSH32 0x30644E72E131A029B85045B68181585D2833E84879B9709143E1F593F0000001 PUSH2 0x484 DUP6 ADD CALLDATALOAD MOD PUSH2 0xBA0 MSTORE PUSH32 0x30644E72E131A029B85045B68181585D2833E84879B9709143E1F593F0000001 PUSH2 0x4A4 DUP6 ADD CALLDATALOAD MOD PUSH2 0xBC0 MSTORE PUSH32 0x30644E72E131A029B85045B68181585D2833E84879B9709143E1F593F0000001 PUSH2 0x4C4 DUP6 ADD CALLDATALOAD MOD PUSH2 0xBE0 MSTORE PUSH32 0x30644E72E131A029B85045B68181585D2833E84879B9709143E1F593F0000001 PUSH2 0x4E4 DUP6 ADD CALLDATALOAD MOD PUSH2 0xC00 MSTORE PUSH32 0x30644E72E131A029B85045B68181585D2833E84879B9709143E1F593F0000001 PUSH2 0x504 DUP6 ADD CALLDATALOAD MOD PUSH2 0xC20 MSTORE PUSH32 0x30644E72E131A029B85045B68181585D97816A916871CA8D3C208C16D87CFD47 PUSH2 0x524 DUP6 ADD CALLDATALOAD MOD PUSH32 0x30644E72E131A029B85045B68181585D97816A916871CA8D3C208C16D87CFD47 PUSH2 0x544 DUP7 ADD CALLDATALOAD MOD PUSH32 0x30644E72E131A029B85045B68181585D97816A916871CA8D3C208C16D87CFD47 DUP3 DUP4 MULMOD DUP5 PUSH32 0x30644E72E131A029B85045B68181585D97816A916871CA8D3C208C16D87CFD47 PUSH1 0x3 PUSH32 0x30644E72E131A029B85045B68181585D97816A916871CA8D3C208C16D87CFD47 DUP5 DUP8 MULMOD ADDMOD PUSH32 0x30644E72E131A029B85045B68181585D97816A916871CA8D3C208C16D87CFD47 DUP5 DUP6 MULMOD EQ AND SWAP5 POP DUP3 PUSH2 0xC40 MSTORE DUP2 PUSH2 0xC60 MSTORE POP POP POP PUSH32 0x30644E72E131A029B85045B68181585D97816A916871CA8D3C208C16D87CFD47 PUSH2 0x564 DUP6 ADD CALLDATALOAD MOD PUSH32 0x30644E72E131A029B85045B68181585D97816A916871CA8D3C208C16D87CFD47 PUSH2 0x584 DUP7 ADD CALLDATALOAD MOD PUSH32 0x30644E72E131A029B85045B68181585D97816A916871CA8D3C208C16D87CFD47 DUP3 DUP4 MULMOD DUP5 PUSH32 0x30644E72E131A029B85045B68181585D97816A916871CA8D3C208C16D87CFD47 PUSH1 0x3 PUSH32 0x30644E72E131A029B85045B68181585D97816A916871CA8D3C208C16D87CFD47 DUP5 DUP8 MULMOD ADDMOD PUSH32 0x30644E72E131A029B85045B68181585D97816A916871CA8D3C208C16D87CFD47 DUP5 DUP6 MULMOD EQ AND SWAP5 POP DUP3 PUSH2 0xC80 MSTORE DUP2 PUSH2 0xCA0 MSTORE POP POP POP PUSH1 0x44 CALLDATALOAD SWAP4 POP PUSH1 0x4 DUP5 ADD CALLDATALOAD PUSH2 0x700 MLOAD PUSH0 DUP2 EQ PUSH2 0x15AC JUMPI DUP4 PUSH1 0x4 DUP4 EQ AND SWAP4 POP PUSH32 0x30644E72E131A029B85045B68181585D97816A916871CA8D3C208C16D87CFD47 PUSH1 0x24 DUP8 ADD CALLDATALOAD MOD PUSH32 0x30644E72E131A029B85045B68181585D97816A916871CA8D3C208C16D87CFD47 PUSH1 0x44 DUP9 ADD CALLDATALOAD MOD PUSH32 0x30644E72E131A029B85045B68181585D97816A916871CA8D3C208C16D87CFD47 DUP3 DUP4 MULMOD DUP7 PUSH32 0x30644E72E131A029B85045B68181585D97816A916871CA8D3C208C16D87CFD47 PUSH1 0x3 PUSH32 0x30644E72E131A029B85045B68181585D97816A916871CA8D3C208C16D87CFD47 DUP5 DUP8 MULMOD ADDMOD PUSH32 0x30644E72E131A029B85045B68181585D97816A916871CA8D3C208C16D87CFD47 DUP5 DUP6 MULMOD EQ AND SWAP7 POP DUP3 PUSH2 0xCC0 MSTORE DUP2 PUSH2 0xCE0 MSTORE POP POP POP PUSH32 0x30644E72E131A029B85045B68181585D97816A916871CA8D3C208C16D87CFD47 PUSH1 0x64 DUP8 ADD CALLDATALOAD MOD PUSH32 0x30644E72E131A029B85045B68181585D97816A916871CA8D3C208C16D87CFD47 PUSH1 0x84 DUP9 ADD CALLDATALOAD MOD PUSH32 0x30644E72E131A029B85045B68181585D97816A916871CA8D3C208C16D87CFD47 DUP3 DUP4 MULMOD DUP7 PUSH32 0x30644E72E131A029B85045B68181585D97816A916871CA8D3C208C16D87CFD47 PUSH1 0x3 PUSH32 0x30644E72E131A029B85045B68181585D97816A916871CA8D3C208C16D87CFD47 DUP5 DUP8 MULMOD ADDMOD PUSH32 0x30644E72E131A029B85045B68181585D97816A916871CA8D3C208C16D87CFD47 DUP5 DUP6 MULMOD EQ AND SWAP7 POP DUP3 PUSH2 0xD00 MSTORE DUP2 PUSH2 0xD20 MSTORE POP POP POP PUSH2 0x15B3 JUMP JUMPDEST DUP4 DUP3 ISZERO AND SWAP4 POP JUMPDEST POP DUP3 PUSH2 0x15E5 JUMPI PUSH2 0x15E4 PUSH32 0x6C6F616450726F6F663A2050726F6F6620697320696E76616C69640000000000 PUSH1 0x1B PUSH2 0x94 JUMP JUMPDEST JUMPDEST POP POP POP POP POP JUMP JUMPDEST PUSH2 0x15F8 PUSH2 0x720 MLOAD PUSH2 0x39D JUMP JUMPDEST PUSH2 0x1604 PUSH2 0x740 MLOAD PUSH2 0x39D JUMP JUMPDEST PUSH2 0x1610 PUSH2 0x760 MLOAD PUSH2 0x39D JUMP JUMPDEST PUSH2 0x161C PUSH2 0x780 MLOAD PUSH2 0x39D JUMP JUMPDEST PUSH2 0x1628 PUSH2 0x7A0 MLOAD PUSH2 0x39D JUMP JUMPDEST PUSH2 0x1634 PUSH2 0x7C0 MLOAD PUSH2 0x39D JUMP JUMPDEST PUSH2 0x1640 PUSH2 0x7E0 MLOAD PUSH2 0x39D JUMP JUMPDEST PUSH2 0x164C PUSH2 0x800 MLOAD PUSH2 0x39D JUMP JUMPDEST PUSH2 0x1658 PUSH2 0x820 MLOAD PUSH2 0x39D JUMP JUMPDEST PUSH2 0x1661 PUSH0 PUSH2 0x3C8 JUMP JUMPDEST PUSH2 0xF00 MSTORE PUSH2 0x1671 PUSH2 0x880 MLOAD PUSH2 0x39D JUMP JUMPDEST PUSH2 0x167D PUSH2 0x8A0 MLOAD PUSH2 0x39D JUMP JUMPDEST PUSH2 0x1687 PUSH1 0x1 PUSH2 0x3C8 JUMP JUMPDEST PUSH2 0xDE0 MSTORE PUSH2 0x1695 PUSH1 0x2 PUSH2 0x3C8 JUMP JUMPDEST PUSH2 0xE00 MSTORE PUSH2 0x16A5 PUSH2 0x840 MLOAD PUSH2 0x39D JUMP JUMPDEST PUSH2 0x16B1 PUSH2 0x860 MLOAD PUSH2 0x39D JUMP JUMPDEST PUSH2 0x16BB PUSH1 0x3 PUSH2 0x3C8 JUMP JUMPDEST PUSH2 0xF20 MSTORE PUSH2 0x16C9 PUSH1 0x4 PUSH2 0x3C8 JUMP JUMPDEST PUSH2 0xF40 MSTORE PUSH2 0x16D9 PUSH2 0x8C0 MLOAD PUSH2 0x39D JUMP JUMPDEST PUSH2 0x16E5 PUSH2 0x8E0 MLOAD PUSH2 0x39D JUMP JUMPDEST PUSH2 0x16EF PUSH1 0x5 PUSH2 0x3C8 JUMP JUMPDEST PUSH2 0xDC0 MSTORE PUSH2 0x16FF PUSH2 0x900 MLOAD PUSH2 0x39D JUMP JUMPDEST PUSH2 0x170B PUSH2 0x920 MLOAD PUSH2 0x39D JUMP JUMPDEST PUSH2 0x1717 PUSH2 0x940 MLOAD PUSH2 0x39D JUMP JUMPDEST PUSH2 0x1723 PUSH2 0x960 MLOAD PUSH2 0x39D JUMP JUMPDEST PUSH2 0x172F PUSH2 0x980 MLOAD PUSH2 0x39D JUMP JUMPDEST PUSH2 0x173B PUSH2 0x9A0 MLOAD PUSH2 0x39D JUMP JUMPDEST PUSH2 0x1747 PUSH2 0x9C0 MLOAD PUSH2 0x39D JUMP JUMPDEST PUSH2 0x1753 PUSH2 0x9E0 MLOAD PUSH2 0x39D JUMP JUMPDEST PUSH2 0x175D PUSH1 0x6 PUSH2 0x3C8 JUMP JUMPDEST DUP1 PUSH2 0xFE0 MSTORE PUSH2 0x1770 PUSH4 0x4000000 DUP3 PUSH2 0xC9 JUMP JUMPDEST PUSH2 0x1060 MSTORE POP PUSH2 0x1781 PUSH2 0xC00 MLOAD PUSH2 0x39D JUMP JUMPDEST PUSH2 0x178D PUSH2 0xA00 MLOAD PUSH2 0x39D JUMP JUMPDEST PUSH2 0x1799 PUSH2 0xA20 MLOAD PUSH2 0x39D JUMP JUMPDEST PUSH2 0x17A5 PUSH2 0xA40 MLOAD PUSH2 0x39D JUMP JUMPDEST PUSH2 0x17B1 PUSH2 0xA60 MLOAD PUSH2 0x39D JUMP JUMPDEST PUSH2 0x17BD PUSH2 0xA80 MLOAD PUSH2 0x39D JUMP JUMPDEST PUSH2 0x17C9 PUSH2 0xAA0 MLOAD PUSH2 0x39D JUMP JUMPDEST PUSH2 0x17D5 PUSH2 0xAC0 MLOAD PUSH2 0x39D JUMP JUMPDEST PUSH2 0x17E1 PUSH2 0xAE0 MLOAD PUSH2 0x39D JUMP JUMPDEST PUSH2 0x17ED PUSH2 0xB00 MLOAD PUSH2 0x39D JUMP JUMPDEST PUSH2 0x17F9 PUSH2 0xB20 MLOAD PUSH2 0x39D JUMP JUMPDEST PUSH2 0x1805 PUSH2 0xB80 MLOAD PUSH2 0x39D JUMP JUMPDEST PUSH2 0x1811 PUSH2 0xBC0 MLOAD PUSH2 0x39D JUMP JUMPDEST PUSH2 0x181D PUSH2 0xBE0 MLOAD PUSH2 0x39D JUMP JUMPDEST PUSH2 0x1829 PUSH2 0xB40 MLOAD PUSH2 0x39D JUMP JUMPDEST PUSH2 0x1835 PUSH2 0xB60 MLOAD PUSH2 0x39D JUMP JUMPDEST PUSH2 0x1841 PUSH2 0xBA0 MLOAD PUSH2 0x39D JUMP JUMPDEST PUSH2 0x184D PUSH2 0xC20 MLOAD PUSH2 0x39D JUMP JUMPDEST PUSH2 0x1857 PUSH1 0x7 PUSH2 0x3C8 JUMP JUMPDEST PUSH2 0xFA0 MSTORE PUSH2 0x1867 PUSH2 0xC40 MLOAD PUSH2 0x39D JUMP JUMPDEST PUSH2 0x1873 PUSH2 0xC60 MLOAD PUSH2 0x39D JUMP JUMPDEST PUSH2 0x187F PUSH2 0xC80 MLOAD PUSH2 0x39D JUMP JUMPDEST PUSH2 0x188B PUSH2 0xCA0 MLOAD PUSH2 0x39D JUMP JUMPDEST PUSH2 0x1895 PUSH1 0x8 PUSH2 0x3C8 JUMP JUMPDEST PUSH2 0xFC0 MSTORE JUMP JUMPDEST PUSH2 0xDC0 MLOAD PUSH32 0x30644E72E131A029B85045B68181585D2833E84879B9709143E1F593F0000001 DUP2 DUP3 MULMOD DUP1 PUSH2 0xE20 MSTORE PUSH32 0x30644E72E131A029B85045B68181585D2833E84879B9709143E1F593F0000001 DUP3 DUP3 MULMOD SWAP1 POP DUP1 PUSH2 0xE40 MSTORE PUSH32 0x30644E72E131A029B85045B68181585D2833E84879B9709143E1F593F0000001 DUP3 DUP3 MULMOD SWAP1 POP DUP1 PUSH2 0xE60 MSTORE PUSH32 0x30644E72E131A029B85045B68181585D2833E84879B9709143E1F593F0000001 DUP3 DUP3 MULMOD SWAP1 POP DUP1 PUSH2 0xE80 MSTORE PUSH32 0x30644E72E131A029B85045B68181585D2833E84879B9709143E1F593F0000001 DUP3 DUP3 MULMOD SWAP1 POP DUP1 PUSH2 0xEA0 MSTORE PUSH32 0x30644E72E131A029B85045B68181585D2833E84879B9709143E1F593F0000001 DUP3 DUP3 MULMOD SWAP1 POP DUP1 PUSH2 0xEC0 MSTORE PUSH32 0x30644E72E131A029B85045B68181585D2833E84879B9709143E1F593F0000001 DUP3 DUP3 MULMOD SWAP1 POP DUP1 PUSH2 0xEE0 MSTORE POP POP PUSH2 0xFE0 MLOAD PUSH2 0x19DA DUP2 PUSH0 PUSH2 0x1B72 JUMP JUMPDEST PUSH2 0x1020 MSTORE PUSH2 0x19EF DUP2 PUSH1 0x1 PUSH4 0x4000000 SUB PUSH2 0x1B72 JUMP JUMPDEST PUSH2 0x1040 MSTORE PUSH32 0x30644E72E131A029B85045B68181585D2833E84879B9709143E1F593F0000001 PUSH2 0x720 MLOAD PUSH2 0x1020 MLOAD MULMOD PUSH32 0x30644E72E131A029B85045B68181585D2833E84879B9709143E1F593F0000001 PUSH2 0xAA0 MLOAD DUP3 MULMOD PUSH32 0x30644E72E131A029B85045B68181585D2833E84879B9709143E1F593F0000001 PUSH2 0x1A6D PUSH2 0x1D22 JUMP JUMPDEST DUP3 ADDMOD SWAP1 POP PUSH32 0x30644E72E131A029B85045B68181585D2833E84879B9709143E1F593F0000001 PUSH2 0x1A9A PUSH2 0x1FFF JUMP JUMPDEST DUP3 ADDMOD SWAP1 POP PUSH32 0x30644E72E131A029B85045B68181585D2833E84879B9709143E1F593F0000001 DUP2 PUSH2 0xC20 MLOAD ADDMOD SWAP1 POP PUSH32 0x30644E72E131A029B85045B68181585D2833E84879B9709143E1F593F0000001 PUSH1 0x1 PUSH32 0x30644E72E131A029B85045B68181585D2833E84879B9709143E1F593F0000001 SUB PUSH2 0x1060 MLOAD ADDMOD PUSH32 0x30644E72E131A029B85045B68181585D2833E84879B9709143E1F593F0000001 DUP2 PUSH2 0xC00 MLOAD MULMOD DUP3 DUP2 EQ PUSH2 0x1B6B JUMPI PUSH2 0x1B6A PUSH32 0x696E76616C69642071756F7469656E74206576616C756174696F6E0000000000 PUSH1 0x1B PUSH2 0x94 JUMP JUMPDEST JUMPDEST POP POP POP POP POP JUMP JUMPDEST PUSH0 PUSH1 0x1 DUP3 ISZERO PUSH2 0x1BA8 JUMPI PUSH2 0x1BA5 DUP4 PUSH32 0x1DBA8B5BDD64EF6CE29A9039ACA3C0E524395C43B9227B96C75090CC6CC7EC97 PUSH2 0xC9 JUMP JUMPDEST SWAP1 POP JUMPDEST PUSH32 0x30644E72E131A029B85045B68181585D2833E84879B9709143E1F593F0000001 PUSH1 0x1 PUSH32 0x30644E72E131A029B85045B68181585D2833E84879B9709143E1F593F0000001 SUB PUSH2 0x1BFB PUSH4 0x4000000 DUP8 PUSH2 0xC9 JUMP JUMPDEST ADDMOD SWAP2 POP DUP2 PUSH2 0x1C2F JUMPI PUSH2 0x1C2E PUSH32 0x696E76616C69642076616E697368696E6720706F6C796E6F6D69616C00000000 PUSH1 0x1C PUSH2 0x94 JUMP JUMPDEST JUMPDEST PUSH32 0x30644E72E131A029B85045B68181585D2833E84879B9709143E1F593F0000001 DUP2 DUP4 MULMOD SWAP2 POP PUSH32 0x30644E72E131A029B85045B68181585D2833E84879B9709143E1F593F0000001 DUP2 PUSH32 0x30644E72E131A029B85045B68181585D2833E84879B9709143E1F593F0000001 SUB DUP6 ADDMOD PUSH32 0x30644E72E131A029B85045B68181585D2833E84879B9709143E1F593F0000001 PUSH4 0x4000000 DUP3 MULMOD SWAP1 POP PUSH2 0x1CF2 PUSH1 0x2 PUSH32 0x30644E72E131A029B85045B68181585D2833E84879B9709143E1F593F0000001 SUB DUP3 PUSH2 0xC9 JUMP JUMPDEST SWAP1 POP PUSH32 0x30644E72E131A029B85045B68181585D2833E84879B9709143E1F593F0000001 DUP2 DUP5 MULMOD SWAP3 POP POP POP SWAP3 SWAP2 POP POP JUMP JUMPDEST PUSH0 PUSH32 0x30644E72E131A029B85045B68181585D2833E84879B9709143E1F593F0000001 PUSH2 0xB20 MLOAD PUSH2 0xE60 MLOAD MULMOD SWAP1 POP PUSH2 0xE00 MLOAD PUSH2 0xDE0 MLOAD PUSH0 PUSH32 0x30644E72E131A029B85045B68181585D2833E84879B9709143E1F593F0000001 DUP3 PUSH2 0xAC0 MLOAD MULMOD SWAP1 POP PUSH32 0x30644E72E131A029B85045B68181585D2833E84879B9709143E1F593F0000001 DUP4 DUP3 ADDMOD SWAP1 POP PUSH32 0x30644E72E131A029B85045B68181585D2833E84879B9709143E1F593F0000001 PUSH2 0xA00 MLOAD DUP3 ADDMOD SWAP1 POP PUSH32 0x30644E72E131A029B85045B68181585D2833E84879B9709143E1F593F0000001 DUP2 DUP6 MULMOD SWAP4 POP PUSH32 0x30644E72E131A029B85045B68181585D2833E84879B9709143E1F593F0000001 DUP3 PUSH2 0xAE0 MLOAD MULMOD SWAP1 POP PUSH32 0x30644E72E131A029B85045B68181585D2833E84879B9709143E1F593F0000001 DUP4 DUP3 ADDMOD SWAP1 POP PUSH32 0x30644E72E131A029B85045B68181585D2833E84879B9709143E1F593F0000001 PUSH2 0xA20 MLOAD DUP3 ADDMOD SWAP1 POP PUSH32 0x30644E72E131A029B85045B68181585D2833E84879B9709143E1F593F0000001 DUP2 DUP6 MULMOD SWAP4 POP PUSH32 0x30644E72E131A029B85045B68181585D2833E84879B9709143E1F593F0000001 DUP3 PUSH2 0xB00 MLOAD MULMOD SWAP1 POP PUSH32 0x30644E72E131A029B85045B68181585D2833E84879B9709143E1F593F0000001 DUP4 DUP3 ADDMOD SWAP1 POP PUSH32 0x30644E72E131A029B85045B68181585D2833E84879B9709143E1F593F0000001 PUSH2 0xA40 MLOAD DUP3 ADDMOD SWAP1 POP PUSH32 0x30644E72E131A029B85045B68181585D2833E84879B9709143E1F593F0000001 DUP2 DUP6 MULMOD SWAP4 POP PUSH32 0x30644E72E131A029B85045B68181585D2833E84879B9709143E1F593F0000001 DUP1 DUP5 PUSH2 0xA60 MLOAD ADDMOD DUP6 MULMOD SWAP4 POP POP POP POP DUP1 PUSH32 0x30644E72E131A029B85045B68181585D2833E84879B9709143E1F593F0000001 SUB SWAP1 POP PUSH2 0x1020 MLOAD PUSH32 0x30644E72E131A029B85045B68181585D2833E84879B9709143E1F593F0000001 PUSH2 0xE80 MLOAD DUP3 MULMOD SWAP1 POP PUSH32 0x30644E72E131A029B85045B68181585D2833E84879B9709143E1F593F0000001 DUP2 PUSH32 0x30644E72E131A029B85045B68181585D2833E84879B9709143E1F593F0000001 SUB DUP4 ADDMOD SWAP2 POP POP SWAP1 JUMP JUMPDEST PUSH0 PUSH2 0xF20 MLOAD PUSH2 0xF40 MLOAD PUSH32 0x30644E72E131A029B85045B68181585D2833E84879B9709143E1F593F0000001 PUSH1 0x1 DUP4 ADDMOD PUSH32 0x30644E72E131A029B85045B68181585D2833E84879B9709143E1F593F0000001 DUP3 DUP3 MULMOD DUP2 PUSH2 0xF60 MSTORE DUP1 PUSH2 0xF80 MSTORE PUSH32 0x30644E72E131A029B85045B68181585D2833E84879B9709143E1F593F0000001 DUP5 PUSH2 0xB40 MLOAD MULMOD SWAP5 POP PUSH32 0x30644E72E131A029B85045B68181585D2833E84879B9709143E1F593F0000001 DUP2 DUP7 ADDMOD SWAP5 POP PUSH32 0x30644E72E131A029B85045B68181585D2833E84879B9709143E1F593F0000001 PUSH2 0xB60 MLOAD DUP7 MULMOD SWAP5 POP PUSH32 0x30644E72E131A029B85045B68181585D2833E84879B9709143E1F593F0000001 PUSH2 0xEA0 MLOAD DUP7 MULMOD SWAP5 POP PUSH2 0x212D PUSH1 0x1 PUSH4 0x4000000 SUB PUSH32 0x1DBA8B5BDD64EF6CE29A9039ACA3C0E524395C43B9227B96C75090CC6CC7EC97 PUSH2 0xC9 JUMP JUMPDEST PUSH32 0x30644E72E131A029B85045B68181585D2833E84879B9709143E1F593F0000001 DUP2 PUSH32 0x30644E72E131A029B85045B68181585D2833E84879B9709143E1F593F0000001 SUB PUSH2 0xFE0 MLOAD ADDMOD DUP1 PUSH2 0x1000 MSTORE PUSH32 0x30644E72E131A029B85045B68181585D2833E84879B9709143E1F593F0000001 DUP2 DUP9 MULMOD SWAP7 POP POP POP PUSH32 0x30644E72E131A029B85045B68181585D2833E84879B9709143E1F593F0000001 PUSH2 0xEC0 MLOAD PUSH2 0x1020 MLOAD MULMOD PUSH32 0x30644E72E131A029B85045B68181585D2833E84879B9709143E1F593F0000001 DUP2 PUSH32 0x30644E72E131A029B85045B68181585D2833E84879B9709143E1F593F0000001 SUB DUP8 ADDMOD SWAP6 POP POP PUSH2 0x1040 MLOAD PUSH2 0x222B PUSH1 0x1 PUSH4 0x4000000 SUB DUP4 PUSH2 0xC9 JUMP JUMPDEST PUSH2 0xEE0 MLOAD PUSH32 0x30644E72E131A029B85045B68181585D2833E84879B9709143E1F593F0000001 DUP2 PUSH32 0x30644E72E131A029B85045B68181585D2833E84879B9709143E1F593F0000001 DUP5 DUP7 MULMOD MULMOD PUSH32 0x30644E72E131A029B85045B68181585D2833E84879B9709143E1F593F0000001 DUP2 PUSH32 0x30644E72E131A029B85045B68181585D2833E84879B9709143E1F593F0000001 SUB DUP11 ADDMOD SWAP9 POP POP POP POP POP POP POP POP POP SWAP1 JUMP JUMPDEST PUSH2 0x22D6 DUP2 DUP4 PUSH2 0x200 PUSH2 0x147 JUMP JUMPDEST PUSH2 0x22E3 DUP2 DUP5 PUSH2 0x240 PUSH2 0x2BE JUMP JUMPDEST PUSH2 0x22F0 DUP2 DUP6 PUSH2 0x280 PUSH2 0x2BE JUMP JUMPDEST PUSH2 0x22FD DUP2 DUP7 PUSH2 0x2C0 PUSH2 0x2BE JUMP JUMPDEST PUSH2 0x232D DUP2 PUSH32 0x30644E72E131A029B85045B68181585D2833E84879B9709143E1F593F0000001 DUP6 DUP6 MULMOD PUSH2 0x300 PUSH2 0x2BE JUMP JUMPDEST PUSH2 0x235D DUP2 PUSH32 0x30644E72E131A029B85045B68181585D2833E84879B9709143E1F593F0000001 DUP7 DUP6 MULMOD PUSH2 0x340 PUSH2 0x2BE JUMP JUMPDEST PUSH2 0x2369 PUSH2 0x380 DUP3 PUSH2 0x267 JUMP JUMPDEST PUSH2 0x2379 DUP2 PUSH2 0xA80 MLOAD PUSH2 0x3C0 PUSH2 0x2BE JUMP JUMPDEST PUSH32 0x30644E72E131A029B85045B68181585D2833E84879B9709143E1F593F0000001 PUSH2 0xFA0 MLOAD PUSH2 0xAA0 MLOAD MULMOD PUSH2 0x23AE DUP3 DUP3 DUP5 PUSH2 0x147 JUMP JUMPDEST POP POP POP POP POP POP JUMP JUMPDEST PUSH0 DUP1 PUSH32 0x30644E72E131A029B85045B68181585D2833E84879B9709143E1F593F0000001 DUP5 DUP6 MULMOD SWAP2 POP PUSH32 0x30644E72E131A029B85045B68181585D2833E84879B9709143E1F593F0000001 DUP6 PUSH32 0x30644E72E131A029B85045B68181585D2833E84879B9709143E1F593F0000001 SUB DUP4 ADDMOD SWAP2 POP PUSH32 0x30644E72E131A029B85045B68181585D2833E84879B9709143E1F593F0000001 PUSH2 0xDC0 MLOAD DUP4 MULMOD SWAP2 POP PUSH32 0x30644E72E131A029B85045B68181585D2833E84879B9709143E1F593F0000001 DUP6 DUP7 MULMOD SWAP1 POP PUSH32 0x30644E72E131A029B85045B68181585D2833E84879B9709143E1F593F0000001 DUP7 PUSH32 0x30644E72E131A029B85045B68181585D2833E84879B9709143E1F593F0000001 SUB DUP3 ADDMOD SWAP1 POP PUSH32 0x30644E72E131A029B85045B68181585D2833E84879B9709143E1F593F0000001 PUSH2 0xE20 MLOAD DUP3 MULMOD SWAP1 POP PUSH32 0x30644E72E131A029B85045B68181585D2833E84879B9709143E1F593F0000001 DUP2 DUP4 ADDMOD SWAP2 POP PUSH32 0x30644E72E131A029B85045B68181585D2833E84879B9709143E1F593F0000001 DUP5 DUP8 MULMOD SWAP1 POP PUSH32 0x30644E72E131A029B85045B68181585D2833E84879B9709143E1F593F0000001 DUP8 PUSH32 0x30644E72E131A029B85045B68181585D2833E84879B9709143E1F593F0000001 SUB DUP3 ADDMOD SWAP1 POP PUSH32 0x30644E72E131A029B85045B68181585D2833E84879B9709143E1F593F0000001 PUSH2 0xE40 MLOAD DUP3 MULMOD SWAP1 POP PUSH32 0x30644E72E131A029B85045B68181585D2833E84879B9709143E1F593F0000001 DUP2 DUP4 ADDMOD SWAP2 POP PUSH32 0x30644E72E131A029B85045B68181585D2833E84879B9709143E1F593F0000001 PUSH2 0xFA0 MLOAD DUP4 MULMOD SWAP2 POP PUSH2 0x25FF DUP4 DUP4 PUSH2 0x440 PUSH2 0x2BE JUMP JUMPDEST POP POP POP POP POP POP POP JUMP JUMPDEST PUSH2 0xE60 MLOAD PUSH32 0x30644E72E131A029B85045B68181585D2833E84879B9709143E1F593F0000001 PUSH2 0xDE0 MLOAD PUSH2 0xFE0 MLOAD MULMOD PUSH2 0xE00 MLOAD PUSH32 0x30644E72E131A029B85045B68181585D2833E84879B9709143E1F593F0000001 DUP6 PUSH32 0x30644E72E131A029B85045B68181585D2833E84879B9709143E1F593F0000001 DUP4 DUP6 ADDMOD ADDMOD PUSH32 0x30644E72E131A029B85045B68181585D2833E84879B9709143E1F593F0000001 DUP2 DUP6 MULMOD SWAP4 POP PUSH32 0x30644E72E131A029B85045B68181585D2833E84879B9709143E1F593F0000001 DUP8 PUSH32 0x30644E72E131A029B85045B68181585D2833E84879B9709143E1F593F0000001 DUP5 PUSH32 0x30644E72E131A029B85045B68181585D2833E84879B9709143E1F593F0000001 PUSH1 0x5 DUP9 MULMOD ADDMOD ADDMOD SWAP1 POP PUSH32 0x30644E72E131A029B85045B68181585D2833E84879B9709143E1F593F0000001 DUP2 DUP6 MULMOD SWAP4 POP PUSH32 0x30644E72E131A029B85045B68181585D2833E84879B9709143E1F593F0000001 DUP9 PUSH32 0x30644E72E131A029B85045B68181585D2833E84879B9709143E1F593F0000001 DUP5 PUSH32 0x30644E72E131A029B85045B68181585D2833E84879B9709143E1F593F0000001 PUSH1 0x7 DUP9 MULMOD ADDMOD ADDMOD SWAP1 POP PUSH32 0x30644E72E131A029B85045B68181585D2833E84879B9709143E1F593F0000001 DUP2 DUP6 MULMOD SWAP4 POP PUSH32 0x30644E72E131A029B85045B68181585D2833E84879B9709143E1F593F0000001 DUP10 PUSH32 0x30644E72E131A029B85045B68181585D2833E84879B9709143E1F593F0000001 DUP5 PUSH32 0x30644E72E131A029B85045B68181585D2833E84879B9709143E1F593F0000001 PUSH1 0xA DUP9 MULMOD ADDMOD ADDMOD SWAP1 POP PUSH32 0x30644E72E131A029B85045B68181585D2833E84879B9709143E1F593F0000001 DUP2 DUP6 MULMOD SWAP4 POP POP POP POP PUSH2 0x1020 MLOAD PUSH32 0x30644E72E131A029B85045B68181585D2833E84879B9709143E1F593F0000001 DUP1 PUSH2 0xE80 MLOAD DUP4 MULMOD DUP4 ADDMOD SWAP2 POP PUSH32 0x30644E72E131A029B85045B68181585D2833E84879B9709143E1F593F0000001 PUSH2 0xFA0 MLOAD DUP4 MULMOD SWAP2 POP DUP2 PUSH2 0x1340 MSTORE PUSH32 0x30644E72E131A029B85045B68181585D2833E84879B9709143E1F593F0000001 PUSH2 0xDE0 MLOAD PUSH2 0xE60 MLOAD MULMOD SWAP2 POP PUSH32 0x30644E72E131A029B85045B68181585D2833E84879B9709143E1F593F0000001 PUSH2 0xB20 MLOAD DUP4 MULMOD SWAP2 POP PUSH2 0xDE0 MLOAD PUSH2 0xE00 MLOAD PUSH32 0x30644E72E131A029B85045B68181585D2833E84879B9709143E1F593F0000001 DUP7 PUSH32 0x30644E72E131A029B85045B68181585D2833E84879B9709143E1F593F0000001 DUP4 PUSH32 0x30644E72E131A029B85045B68181585D2833E84879B9709143E1F593F0000001 DUP7 PUSH2 0xAC0 MLOAD MULMOD ADDMOD ADDMOD PUSH32 0x30644E72E131A029B85045B68181585D2833E84879B9709143E1F593F0000001 DUP2 DUP7 MULMOD SWAP5 POP PUSH32 0x30644E72E131A029B85045B68181585D2833E84879B9709143E1F593F0000001 DUP9 PUSH32 0x30644E72E131A029B85045B68181585D2833E84879B9709143E1F593F0000001 DUP5 PUSH32 0x30644E72E131A029B85045B68181585D2833E84879B9709143E1F593F0000001 DUP8 PUSH2 0xAE0 MLOAD MULMOD ADDMOD ADDMOD SWAP1 POP PUSH32 0x30644E72E131A029B85045B68181585D2833E84879B9709143E1F593F0000001 DUP2 DUP7 MULMOD SWAP5 POP PUSH32 0x30644E72E131A029B85045B68181585D2833E84879B9709143E1F593F0000001 DUP10 PUSH32 0x30644E72E131A029B85045B68181585D2833E84879B9709143E1F593F0000001 DUP5 PUSH32 0x30644E72E131A029B85045B68181585D2833E84879B9709143E1F593F0000001 DUP8 PUSH2 0xB00 MLOAD MULMOD ADDMOD ADDMOD SWAP1 POP PUSH32 0x30644E72E131A029B85045B68181585D2833E84879B9709143E1F593F0000001 DUP2 DUP7 MULMOD SWAP5 POP POP POP POP PUSH32 0x30644E72E131A029B85045B68181585D2833E84879B9709143E1F593F0000001 PUSH2 0xFA0 MLOAD DUP4 MULMOD SWAP2 POP PUSH2 0x2B16 PUSH2 0x1080 DUP4 PUSH2 0x540 PUSH2 0x147 JUMP JUMPDEST PUSH2 0x2B22 PUSH2 0x1080 DUP5 PUSH2 0x1EE JUMP JUMPDEST POP POP POP POP POP POP POP JUMP JUMPDEST PUSH2 0xB60 MLOAD PUSH32 0x30644E72E131A029B85045B68181585D2833E84879B9709143E1F593F0000001 PUSH2 0xEA0 MLOAD DUP3 MULMOD SWAP1 POP PUSH32 0x30644E72E131A029B85045B68181585D2833E84879B9709143E1F593F0000001 PUSH2 0x1000 MLOAD DUP3 MULMOD SWAP1 POP PUSH32 0x30644E72E131A029B85045B68181585D2833E84879B9709143E1F593F0000001 PUSH2 0xFA0 MLOAD DUP3 MULMOD SWAP1 POP DUP1 PUSH2 0x1380 MSTORE PUSH2 0xBA0 MLOAD SWAP1 POP PUSH32 0x30644E72E131A029B85045B68181585D2833E84879B9709143E1F593F0000001 PUSH2 0xF20 MLOAD DUP3 MULMOD SWAP1 POP PUSH32 0x30644E72E131A029B85045B68181585D2833E84879B9709143E1F593F0000001 PUSH2 0xB80 MLOAD DUP3 ADDMOD SWAP1 POP PUSH32 0x30644E72E131A029B85045B68181585D2833E84879B9709143E1F593F0000001 PUSH2 0xF80 MLOAD DUP3 ADDMOD SWAP1 POP PUSH0 DUP4 SWAP1 POP PUSH2 0xF00 MLOAD DUP1 PUSH32 0x30644E72E131A029B85045B68181585D2833E84879B9709143E1F593F0000001 DUP1 DUP9 DUP4 MULMOD DUP5 ADDMOD SWAP3 POP PUSH32 0x30644E72E131A029B85045B68181585D2833E84879B9709143E1F593F0000001 DUP3 DUP3 MULMOD SWAP1 POP PUSH32 0x30644E72E131A029B85045B68181585D2833E84879B9709143E1F593F0000001 DUP1 DUP10 DUP4 MULMOD DUP5 ADDMOD SWAP3 POP PUSH32 0x30644E72E131A029B85045B68181585D2833E84879B9709143E1F593F0000001 DUP3 DUP3 MULMOD SWAP1 POP PUSH32 0x30644E72E131A029B85045B68181585D2833E84879B9709143E1F593F0000001 DUP1 DUP3 PUSH2 0xBE0 MLOAD MULMOD DUP5 ADDMOD SWAP3 POP PUSH32 0x30644E72E131A029B85045B68181585D2833E84879B9709143E1F593F0000001 PUSH2 0xBC0 MLOAD DUP5 MULMOD SWAP3 POP PUSH32 0x30644E72E131A029B85045B68181585D2833E84879B9709143E1F593F0000001 PUSH2 0xF40 MLOAD DUP5 ADDMOD SWAP3 POP POP POP PUSH32 0x30644E72E131A029B85045B68181585D2833E84879B9709143E1F593F0000001 DUP2 DUP4 MULMOD SWAP2 POP PUSH32 0x30644E72E131A029B85045B68181585D2833E84879B9709143E1F593F0000001 PUSH2 0xF60 MLOAD DUP4 MULMOD SWAP2 POP DUP2 PUSH32 0x30644E72E131A029B85045B68181585D2833E84879B9709143E1F593F0000001 SUB SWAP2 POP PUSH32 0x30644E72E131A029B85045B68181585D2833E84879B9709143E1F593F0000001 PUSH2 0xEA0 MLOAD DUP4 MULMOD SWAP2 POP PUSH32 0x30644E72E131A029B85045B68181585D2833E84879B9709143E1F593F0000001 PUSH2 0x1000 MLOAD DUP4 MULMOD SWAP2 POP PUSH32 0x30644E72E131A029B85045B68181585D2833E84879B9709143E1F593F0000001 DUP1 PUSH2 0xEC0 MLOAD PUSH2 0x1020 MLOAD MULMOD DUP4 ADDMOD SWAP2 POP PUSH32 0x30644E72E131A029B85045B68181585D2833E84879B9709143E1F593F0000001 DUP1 PUSH2 0xEE0 MLOAD PUSH2 0x1040 MLOAD MULMOD DUP4 ADDMOD SWAP2 POP PUSH32 0x30644E72E131A029B85045B68181585D2833E84879B9709143E1F593F0000001 PUSH2 0xFA0 MLOAD DUP4 MULMOD SWAP2 POP DUP2 PUSH2 0x1360 MSTORE POP POP POP POP POP POP JUMP JUMPDEST PUSH2 0x1060 MLOAD DUP1 PUSH2 0x900 MLOAD PUSH2 0x10C0 MSTORE PUSH2 0x920 MLOAD PUSH2 0x10E0 MSTORE PUSH2 0x2ED5 PUSH2 0x10C0 DUP3 PUSH2 0x940 PUSH2 0x2BE JUMP JUMPDEST PUSH32 0x30644E72E131A029B85045B68181585D2833E84879B9709143E1F593F0000001 DUP3 DUP3 MULMOD SWAP1 POP PUSH2 0x2F0A PUSH2 0x10C0 DUP3 PUSH2 0x980 PUSH2 0x2BE JUMP JUMPDEST PUSH32 0x30644E72E131A029B85045B68181585D2833E84879B9709143E1F593F0000001 DUP3 DUP3 MULMOD SWAP1 POP PUSH2 0x2F3F PUSH2 0x10C0 DUP3 PUSH2 0x9C0 PUSH2 0x2BE JUMP JUMPDEST POP POP PUSH2 0xA00 MLOAD PUSH2 0xA20 MLOAD PUSH2 0xA40 MLOAD PUSH2 0xA60 MLOAD PUSH2 0x2F60 DUP2 DUP4 DUP6 DUP8 PUSH2 0x1100 PUSH2 0x22C9 JUMP JUMPDEST PUSH2 0x2F6F DUP2 DUP4 DUP6 DUP8 PUSH2 0x1100 PUSH2 0x23B6 JUMP JUMPDEST PUSH2 0x2F7E DUP2 DUP4 DUP6 DUP8 PUSH2 0x1100 PUSH2 0x2608 JUMP JUMPDEST PUSH2 0x2F8C DUP3 DUP5 DUP7 PUSH2 0x1100 PUSH2 0x2B2B JUMP JUMPDEST POP POP POP POP PUSH2 0x5C0 MLOAD PUSH2 0x1140 MSTORE PUSH2 0x5E0 MLOAD PUSH2 0x1160 MSTORE PUSH2 0xF00 MLOAD DUP1 PUSH2 0x2FB4 PUSH2 0x1140 DUP3 PUSH2 0x600 PUSH2 0x2BE JUMP JUMPDEST PUSH32 0x30644E72E131A029B85045B68181585D2833E84879B9709143E1F593F0000001 DUP3 DUP3 MULMOD SWAP1 POP PUSH2 0x2FE9 PUSH2 0x1140 DUP3 PUSH2 0x640 PUSH2 0x2BE JUMP JUMPDEST PUSH32 0x30644E72E131A029B85045B68181585D2833E84879B9709143E1F593F0000001 DUP3 DUP3 MULMOD SWAP1 POP PUSH2 0x301E PUSH2 0x1140 DUP3 PUSH2 0x680 PUSH2 0x2BE JUMP JUMPDEST POP POP JUMP JUMPDEST PUSH1 0x1 PUSH0 DUP1 PUSH2 0x10C0 MLOAD PUSH2 0x1180 MSTORE PUSH2 0x10E0 MLOAD PUSH2 0x11A0 MSTORE PUSH2 0xC00 MLOAD PUSH2 0x30AA JUMP JUMPDEST PUSH0 DUP1 PUSH32 0x30644E72E131A029B85045B68181585D2833E84879B9709143E1F593F0000001 PUSH2 0xFA0 MLOAD DUP7 MULMOD SWAP2 POP PUSH2 0x3077 PUSH2 0x1180 DUP4 DUP6 PUSH2 0x2BE JUMP JUMPDEST PUSH32 0x30644E72E131A029B85045B68181585D2833E84879B9709143E1F593F0000001 DUP1 DUP6 MLOAD DUP5 MULMOD DUP8 ADDMOD SWAP1 POP SWAP5 POP SWAP5 SWAP3 POP POP POP JUMP JUMPDEST PUSH2 0x30BB PUSH2 0x1180 PUSH2 0x1100 PUSH2 0x1180 PUSH2 0x196 JUMP JUMPDEST PUSH32 0x30644E72E131A029B85045B68181585D2833E84879B9709143E1F593F0000001 PUSH2 0xFA0 MLOAD DUP6 MULMOD SWAP4 POP PUSH32 0x30644E72E131A029B85045B68181585D2833E84879B9709143E1F593F0000001 DUP1 PUSH2 0xC20 MLOAD DUP7 MULMOD DUP3 ADDMOD SWAP1 POP PUSH2 0x3120 DUP2 DUP6 PUSH2 0xA00 PUSH2 0x740 PUSH2 0x303F JUMP JUMPDEST SWAP2 POP SWAP4 POP PUSH2 0x3134 DUP2 DUP6 PUSH2 0xA20 PUSH2 0x780 PUSH2 0x303F JUMP JUMPDEST SWAP2 POP SWAP4 POP PUSH2 0x3148 DUP2 DUP6 PUSH2 0xA40 PUSH2 0x7C0 PUSH2 0x303F JUMP JUMPDEST SWAP2 POP SWAP4 POP PUSH32 0x30644E72E131A029B85045B68181585D2833E84879B9709143E1F593F0000001 PUSH2 0xFA0 MLOAD DUP6 MULMOD SWAP4 POP DUP4 SWAP3 POP PUSH32 0x30644E72E131A029B85045B68181585D2833E84879B9709143E1F593F0000001 DUP1 PUSH2 0xA60 MLOAD DUP7 MULMOD DUP3 ADDMOD SWAP1 POP PUSH2 0x31B4 DUP2 DUP6 PUSH2 0xAA0 PUSH2 0x400 PUSH2 0x303F JUMP JUMPDEST SWAP2 POP SWAP4 POP PUSH2 0x31C8 DUP2 DUP6 PUSH2 0xAC0 PUSH2 0x480 PUSH2 0x303F JUMP JUMPDEST SWAP2 POP SWAP4 POP PUSH2 0x31DC DUP2 DUP6 PUSH2 0xAE0 PUSH2 0x4C0 PUSH2 0x303F JUMP JUMPDEST SWAP2 POP SWAP4 POP PUSH2 0x31F0 DUP2 DUP6 PUSH2 0xB00 PUSH2 0x500 PUSH2 0x303F JUMP JUMPDEST SWAP2 POP SWAP4 POP PUSH32 0x30644E72E131A029B85045B68181585D2833E84879B9709143E1F593F0000001 PUSH2 0xFA0 MLOAD DUP6 MULMOD SWAP4 POP DUP4 SWAP2 POP PUSH32 0x30644E72E131A029B85045B68181585D2833E84879B9709143E1F593F0000001 DUP1 PUSH2 0xB80 MLOAD DUP7 MULMOD DUP3 ADDMOD SWAP1 POP PUSH2 0x325C DUP2 DUP6 PUSH2 0xBC0 PUSH2 0x580 PUSH2 0x303F JUMP JUMPDEST SWAP2 POP SWAP4 POP PUSH2 0x3270 DUP2 DUP6 PUSH2 0xBE0 PUSH2 0x6C0 PUSH2 0x303F JUMP JUMPDEST SWAP2 POP SWAP4 POP DUP1 PUSH2 0x1200 MSTORE PUSH32 0x30644E72E131A029B85045B68181585D2833E84879B9709143E1F593F0000001 PUSH2 0xFA0 MLOAD DUP6 MULMOD SWAP4 POP PUSH32 0x30644E72E131A029B85045B68181585D2833E84879B9709143E1F593F0000001 DUP1 PUSH2 0xFC0 MLOAD DUP7 MULMOD PUSH2 0x1340 MLOAD ADDMOD PUSH2 0x32DE PUSH2 0x11C0 DUP3 PUSH2 0x840 PUSH2 0x147 JUMP JUMPDEST PUSH32 0x30644E72E131A029B85045B68181585D2833E84879B9709143E1F593F0000001 DUP6 PUSH2 0xB20 MLOAD MULMOD PUSH2 0x33A1 JUMP JUMPDEST PUSH0 DUP1 PUSH32 0x30644E72E131A029B85045B68181585D2833E84879B9709143E1F593F0000001 PUSH2 0xFA0 MLOAD DUP8 MULMOD SWAP2 POP PUSH32 0x30644E72E131A029B85045B68181585D2833E84879B9709143E1F593F0000001 DUP1 PUSH2 0xFC0 MLOAD DUP5 MULMOD DUP7 ADDMOD PUSH2 0x336C PUSH2 0x11C0 DUP3 DUP7 PUSH2 0x2BE JUMP JUMPDEST PUSH32 0x30644E72E131A029B85045B68181585D2833E84879B9709143E1F593F0000001 DUP1 DUP7 MLOAD DUP6 MULMOD DUP10 ADDMOD SWAP2 POP POP SWAP6 POP SWAP6 SWAP4 POP POP POP POP JUMP JUMPDEST PUSH2 0x33B2 DUP2 DUP8 DUP8 PUSH2 0xA80 PUSH2 0x800 PUSH2 0x330A JUMP JUMPDEST SWAP2 POP SWAP6 POP PUSH2 0x33CA DUP2 DUP8 PUSH2 0x1380 MLOAD PUSH2 0xB40 PUSH2 0x880 PUSH2 0x330A JUMP JUMPDEST SWAP2 POP SWAP6 POP PUSH2 0x33E2 DUP2 DUP8 PUSH2 0x1360 MLOAD PUSH2 0xB60 PUSH2 0x8C0 PUSH2 0x330A JUMP JUMPDEST SWAP2 POP SWAP6 POP PUSH2 0x33F7 DUP2 DUP8 DUP7 PUSH2 0xBA0 PUSH2 0x1140 PUSH2 0x330A JUMP JUMPDEST SWAP2 POP SWAP6 POP DUP1 PUSH2 0x1220 MSTORE PUSH2 0xFC0 MLOAD PUSH2 0x3415 PUSH2 0x1280 PUSH2 0x11C0 PUSH2 0x1180 PUSH2 0x196 JUMP JUMPDEST PUSH32 0x30644E72E131A029B85045B68181585D2833E84879B9709143E1F593F0000001 PUSH2 0x1200 MLOAD PUSH32 0x30644E72E131A029B85045B68181585D2833E84879B9709143E1F593F0000001 DUP4 PUSH2 0x1220 MLOAD MULMOD ADDMOD PUSH1 0x1 PUSH2 0x1240 MSTORE PUSH1 0x2 PUSH2 0x1260 MSTORE PUSH2 0x347D PUSH2 0x1240 DUP3 PUSH2 0x1240 PUSH2 0x147 JUMP JUMPDEST POP POP POP POP POP POP POP POP JUMP JUMPDEST PUSH2 0xFC0 MLOAD PUSH2 0xFE0 MLOAD PUSH32 0x30644E72E131A029B85045B68181585D2833E84879B9709143E1F593F0000001 PUSH32 0x1DBA8B5BDD64EF6CE29A9039ACA3C0E524395C43B9227B96C75090CC6CC7EC97 PUSH2 0xFE0 MLOAD MULMOD PUSH2 0x34E4 PUSH2 0x1240 PUSH2 0x1280 PUSH2 0x1EE JUMP JUMPDEST PUSH2 0x34F3 PUSH2 0x1280 DUP4 PUSH2 0xC40 PUSH2 0x2BE JUMP JUMPDEST PUSH2 0x3525 PUSH2 0x1280 PUSH32 0x30644E72E131A029B85045B68181585D2833E84879B9709143E1F593F0000001 DUP6 DUP5 MULMOD PUSH2 0xC80 PUSH2 0x2BE JUMP JUMPDEST PUSH2 0xC40 MLOAD PUSH2 0x1300 MSTORE PUSH2 0xC60 MLOAD PUSH2 0x1320 MSTORE PUSH2 0x3544 PUSH2 0x1300 DUP5 PUSH2 0xC80 PUSH2 0x2BE JUMP JUMPDEST PUSH2 0x354F PUSH2 0x1300 PUSH2 0x32A JUMP JUMPDEST PUSH2 0x700 MLOAD ISZERO PUSH2 0x359C JUMPI PUSH32 0x30644E72E131A029B85045B68181585D2833E84879B9709143E1F593F0000001 DUP4 DUP5 MULMOD PUSH2 0x358B PUSH2 0x1280 DUP3 PUSH2 0xCC0 PUSH2 0x2BE JUMP JUMPDEST PUSH2 0x359A PUSH2 0x1300 DUP3 PUSH2 0xD00 PUSH2 0x2BE JUMP JUMPDEST POP JUMPDEST PUSH2 0x1280 MLOAD PUSH0 MSTORE PUSH2 0x12A0 MLOAD PUSH1 0x20 MSTORE PUSH32 0x198E9393920D483A7260BFB731FB5D25F1AA493335A9E71297E485B7AEF312C2 PUSH1 0x40 MSTORE PUSH32 0x1800DEEF121F1E76426A00665E5C4479674322D4F75EDADD46DEBD5CD992F6ED PUSH1 0x60 MSTORE PUSH32 0x90689D0585FF075EC9E99AD690C3395BC4B313370B38EF355ACDADCD122975B PUSH1 0x80 MSTORE PUSH32 0x12C85EA5DB8C6DEB4AAB71808DCB408FE3D1E7690C43D37B4CE6CC0166FA7DAA PUSH1 0xA0 MSTORE PUSH2 0x1300 MLOAD PUSH1 0xC0 MSTORE PUSH2 0x1320 MLOAD PUSH1 0xE0 MSTORE PUSH32 0x260E01B251F6F1C7E7FF4E580791DEE8EA51D87A358E038B4EFE30FAC09383C1 PUSH2 0x100 MSTORE PUSH32 0x118C4D5B837BCC2BC89B5B398B5974E9F5944073B32078B7E231FEC938883B0 PUSH2 0x120 MSTORE PUSH32 0x4FC6369F7110FE3D25156C1BB9A72859CF2A04641F99BA4EE413C80DA6A5FE4 PUSH2 0x140 MSTORE PUSH32 0x22FEBDA3C0C0632A56475B4214E5615E11E6DD3F96E6CEA2854A87D4DACC5E55 PUSH2 0x160 MSTORE PUSH1 0x20 PUSH0 PUSH2 0x180 PUSH0 PUSH1 0x8 GAS STATICCALL DUP1 PUSH2 0x3717 JUMPI PUSH2 0x3716 PUSH32 0x66696E616C50616972696E673A20707265636F6D70696C65206661696C757265 PUSH1 0x20 PUSH2 0x94 JUMP JUMPDEST JUMPDEST PUSH0 MLOAD PUSH2 0x3749 JUMPI PUSH2 0x3748 PUSH32 0x66696E616C50616972696E673A2070616972696E67206661696C757265000000 PUSH1 0x1D PUSH2 0x94 JUMP JUMPDEST JUMPDEST POP POP POP POP JUMP JUMPDEST PUSH2 0x3757 PUSH2 0x406 JUMP JUMPDEST PUSH2 0x375F PUSH2 0x15EC JUMP JUMPDEST PUSH2 0x3767 PUSH2 0x189B JUMP JUMPDEST PUSH2 0x376F PUSH2 0x2EB1 JUMP JUMPDEST PUSH2 0x3777 PUSH2 0x3022 JUMP JUMPDEST PUSH2 0x377F PUSH2 0x3487 JUMP JUMPDEST PUSH1 0x1 PUSH0 MSTORE PUSH1 0x20 PUSH0 RETURN JUMPDEST PUSH0 PUSH2 0x3791 PUSH2 0x37A8 JUMP JUMPDEST PUSH2 0x200 PUSH2 0x700 PUSH1 0x20 DUP3 DUP3 SUB ADD DUP1 DUP4 KECCAK256 SWAP4 POP POP POP POP SWAP1 JUMP JUMPDEST PUSH32 0x13598F50F1A62920416DD9F16D46032CBE810BB384DA5B0FF42BDF6AB1E69662 PUSH2 0x200 MSTORE PUSH32 0x19DF99DFA60FEB4BD15DDB271EFAC0179104C5B7A27078115A91079CA2826D51 PUSH2 0x220 MSTORE PUSH32 0x2CF47B2A9E17EA94BE18ECB13EEC2E5706880527ED0D88FD5969AC069A8AAC06 PUSH2 0x240 MSTORE PUSH32 0x2E3294B57B45A03075EE2E89C9E7D2AB5F261B5E2408578112B6AA7BF12A2E5F PUSH2 0x260 MSTORE PUSH32 0x377DF0615F3F859583CA885861A6C0F885778F0633D082B9883AFCBCB186C6C PUSH2 0x280 MSTORE PUSH32 0xCDE99A920BF69E9FF1D42B719E2895F0DA6D6A334F2A2A4E135CC93BF515A4A PUSH2 0x2A0 MSTORE PUSH32 0x42222CC79AD515FDAE98DDDC09D8E78FC8AF37A69BAF36A04188CA54334C443 PUSH2 0x2C0 MSTORE PUSH32 0xF0158E345C08DA2021B703AAC1B697D2F3553617FEF778BF2C5FAFC40324BE1 PUSH2 0x2E0 MSTORE PUSH32 0x102FAB7A43B3AC26DB87F53BD303CF44D6F7C963046681422C32DEA20A526DF PUSH2 0x300 MSTORE PUSH32 0x221A29C1DF2E5822D060261802073700A285082EBB1263E53814B017A8BFB14B PUSH2 0x320 MSTORE PUSH32 0x269FBE8DA379085E789A60720C12324EE4EFC0F9215BFC30A65134ECBE875682 PUSH2 0x340 MSTORE PUSH32 0x134B14E94B7A719D213A0E7136547ADD67E71723ED82C87E8A0F8926FB002AC PUSH2 0x360 MSTORE PUSH32 0x7D50D604F391C8F7331CE2DF7115AA8A6DB6BCC1AD246255B12DA2E80F7D815 PUSH2 0x380 MSTORE PUSH32 0x16F31EBEFD077F85029A1AF6136A2D63E8E92015EA44BAC6386CB05FC7ACA56E PUSH2 0x3A0 MSTORE PUSH32 0x1CEEDA30B083C5B748A1DBBEFC4B8324E35CB9830C630B8064ECE3A7C30E5F4A PUSH2 0x3C0 MSTORE PUSH31 0x37029B76EB626E15FEFC39FB9C142499E9EE283063B2811AFFF7211B9A0B63 PUSH2 0x3E0 MSTORE PUSH32 0x1885051503E3667EAC61262E28B7CEDD16A619D19E8820A522A269DC98262C69 PUSH2 0x400 MSTORE PUSH32 0xDAF7BFFE99C0357AEFCD6CCAF363CE5096E48D105FC8583E649589CC149183D PUSH2 0x420 MSTORE PUSH32 0x215A735844E0035F245A45154F19635BDC70D8F48EEF46384C2C948002AF0C81 PUSH2 0x440 MSTORE PUSH32 0x1FAECF6813FFBC0A2EEEB50CA035D4542CA557F15E2B82FFFFB24024CF3DF2D1 PUSH2 0x460 MSTORE PUSH32 0x2F24B1FFDEA08385D0CA89B32DB8601B3B95B255903EDCEAC52402DFECE9EEE4 PUSH2 0x480 MSTORE PUSH32 0x1E90E41ECB35E8455C55BF4CFD41E80BB4E5DD845B65C6F77E2AC0821B09A883 PUSH2 0x4A0 MSTORE PUSH32 0x128D006B473B50BC85A1A2707C278E08186E4402010178BF930B7EA24E203ED0 PUSH2 0x4C0 MSTORE PUSH32 0xFA100F35E66D3C2429F1C20BE00FE21B79A65E9DE665BA420EE388EE0B47B3C PUSH2 0x4E0 MSTORE PUSH32 0x3026DE72FD5E47F96C7D0F4F0C15CFD5F50438991FDBB18D4C5D18561B0E87CD PUSH2 0x500 MSTORE PUSH32 0x20162D33D551A2599BE33CFBA40358BDAB4338891CFE7E028355E5A50442B5A4 PUSH2 0x520 MSTORE PUSH32 0xA811F316900D60021C0EF765BCFC2070CC3A8B38B09A3B4BE04E37E292EBAF1 PUSH2 0x540 MSTORE PUSH32 0x192C167388FAA4266CED24B8E3687E81974AA8CAAF1AC3E8A3FAB3947C7B65D1 PUSH2 0x560 MSTORE PUSH32 0x2C513ED74D9D57A5EC901E074032741036353A2C4513422E96E7B53B302D765B PUSH2 0x5C0 MSTORE PUSH32 0x4DD964427E430F16004076D708C0CB21E225056CC1D57418CFBD3D472981468 PUSH2 0x5E0 MSTORE PUSH32 0x1EA83E5E65C6F8068F4677E2911678CF329B28259642A32DB1F14B8347828AAC PUSH2 0x600 MSTORE PUSH32 0x1D22BC884A2DA4962A893BA8DE13F57AAEB785ED52C5E686994839CAB8F7475D PUSH2 0x620 MSTORE PUSH32 0xB2E7212D0D9CFF26D0BDF3D79B2CAC029A25DFEB1CAFDF49E2349D7DB348D89 PUSH2 0x640 MSTORE PUSH32 0x1301F9B252419EA240EB67FDA720CA0B16D92364027285F95E9B1349490FA283 PUSH2 0x660 MSTORE PUSH32 0x2F7B99FDFA5B418548C2D777785820E02383CFC87E7085E280A375A358153BF PUSH2 0x680 MSTORE PUSH32 0x9D004FE08DC4D19C382DF36FAD22EF676185663543703E6A4B40203E50FD8A6 PUSH2 0x6A0 MSTORE PUSH32 0x300223627D9E977C0B02A64B49CB1C6C7833B82E25BACB420EF6F48B6DEEED06 PUSH2 0x580 MSTORE PUSH32 0x2D0BD4B927912E6509088FB7167A30B85BD5D031E75B057B687E62FC6D779F91 PUSH2 0x5A0 MSTORE PUSH31 0x6F5F6969088413E15ABE92418DD7668C6C5FA2DCCA168E71A98D84A9FE39DE PUSH2 0x6C0 MSTORE PUSH32 0x18550C804FADC55861B6A34D5341D594486833E62BD6137089F3335566CA40EE PUSH2 0x6E0 MSTORE PUSH0 PUSH2 0x700 MSTORE JUMP JUMPDEST PUSH0 DUP1 REVERT JUMPDEST PUSH0 DUP1 REVERT JUMPDEST PUSH0 DUP1 REVERT JUMPDEST PUSH0 DUP1 REVERT JUMPDEST PUSH0 DUP1 REVERT JUMPDEST PUSH0 DUP1 DUP4 PUSH1 0x1F DUP5 ADD SLT PUSH2 0x3D9E JUMPI PUSH2 0x3D9D PUSH2 0x3D7D JUMP JUMPDEST JUMPDEST DUP3 CALLDATALOAD SWAP1 POP PUSH8 0xFFFFFFFFFFFFFFFF DUP2 GT ISZERO PUSH2 0x3DBB JUMPI PUSH2 0x3DBA PUSH2 0x3D81 JUMP JUMPDEST JUMPDEST PUSH1 0x20 DUP4 ADD SWAP2 POP DUP4 PUSH1 0x20 DUP3 MUL DUP4 ADD GT ISZERO PUSH2 0x3DD7 JUMPI PUSH2 0x3DD6 PUSH2 0x3D85 JUMP JUMPDEST JUMPDEST SWAP3 POP SWAP3 SWAP1 POP JUMP JUMPDEST PUSH0 DUP1 PUSH0 DUP1 PUSH0 DUP1 PUSH1 0x60 DUP8 DUP10 SUB SLT ISZERO PUSH2 0x3DF8 JUMPI PUSH2 0x3DF7 PUSH2 0x3D75 JUMP JUMPDEST JUMPDEST PUSH0 DUP8 ADD CALLDATALOAD PUSH8 0xFFFFFFFFFFFFFFFF DUP2 GT ISZERO PUSH2 0x3E15 JUMPI PUSH2 0x3E14 PUSH2 0x3D79 JUMP JUMPDEST JUMPDEST PUSH2 0x3E21 DUP10 DUP3 DUP11 ADD PUSH2 0x3D89 JUMP JUMPDEST SWAP7 POP SWAP7 POP POP PUSH1 0x20 DUP8 ADD CALLDATALOAD PUSH8 0xFFFFFFFFFFFFFFFF DUP2 GT ISZERO PUSH2 0x3E44 JUMPI PUSH2 0x3E43 PUSH2 0x3D79 JUMP JUMPDEST JUMPDEST PUSH2 0x3E50 DUP10 DUP3 DUP11 ADD PUSH2 0x3D89 JUMP JUMPDEST SWAP5 POP SWAP5 POP POP PUSH1 0x40 DUP8 ADD CALLDATALOAD PUSH8 0xFFFFFFFFFFFFFFFF DUP2 GT ISZERO PUSH2 0x3E73 JUMPI PUSH2 0x3E72 PUSH2 0x3D79 JUMP JUMPDEST JUMPDEST PUSH2 0x3E7F DUP10 DUP3 DUP11 ADD PUSH2 0x3D89 JUMP JUMPDEST SWAP3 POP SWAP3 POP POP SWAP3 SWAP6 POP SWAP3 SWAP6 POP SWAP3 SWAP6 JUMP JUMPDEST PUSH0 DUP2 ISZERO ISZERO SWAP1 POP SWAP2 SWAP1 POP JUMP JUMPDEST PUSH2 0x3EA2 DUP2 PUSH2 0x3E8E JUMP JUMPDEST DUP3 MSTORE POP POP JUMP JUMPDEST PUSH0 PUSH1 0x20 DUP3 ADD SWAP1 POP PUSH2 0x3EBB PUSH0 DUP4 ADD DUP5 PUSH2 0x3E99 JUMP JUMPDEST SWAP3 SWAP2 POP POP JUMP JUMPDEST PUSH0 DUP2 SWAP1 POP SWAP2 SWAP1 POP JUMP JUMPDEST PUSH2 0x3ED3 DUP2 PUSH2 0x3EC1 JUMP JUMPDEST DUP3 MSTORE POP POP JUMP JUMPDEST PUSH0 PUSH1 0x20 DUP3 ADD SWAP1 POP PUSH2 0x3EEC PUSH0 DUP4 ADD DUP5 PUSH2 0x3ECA JUMP JUMPDEST SWAP3 SWAP2 POP POP JUMP INVALID LOG2 PUSH5 0x6970667358 0x22 SLT KECCAK256 0xE4 CHAINID RETURNDATACOPY 0x4B DIV 0xCF BYTE 0xEE 0xC6 PUSH8 0x857EC7A81FD77AB5 0xB9 BLOCKHASH 0xB2 PUSH17 0xFB7983184FE282BD405864736F6C634300 ADDMOD BYTE STOP CALLER "
				},
				"gasEstimates": {
					"creation": {
						"codeDepositCost": "3233600",
						"executionCost": "3585",
						"totalCost": "3237185"
					},
					"external": {
						"verificationKeyHash()": "1192",
						"verify(uint256[],uint256[],uint256[])": "infinite"
					},
					"internal": {
						"_loadVerificationKey()": "554"
					}
				},
				"methodIdentifiers": {
					"verificationKeyHash()": "9e8945d2",
					"verify(uint256[],uint256[],uint256[])": "87d9d023"
				}
			},
			"storageLayout": {
				"storage": [],
				"types": null
			},
			"userdoc": {
				"kind": "user",
				"methods": {
					"verificationKeyHash()": {
						"notice": "Calculates a keccak256 hash of the runtime loaded verification keys."
					}
				},
				"notice": "Modified version of the Permutations over Lagrange-bases for Oecumenical Noninteractive arguments of Knowledge (PLONK) verifier. Modifications have been made to optimize the proof system for zkSync Era circuits.",
				"version": 1
			}
		}
	}
}