{
	"token/TokenTransfer.sol": {
		"TokenTransfer": {
			"abi": [
				{
					"inputs": [],
					"stateMutability": "nonpayable",
					"type": "constructor"
				},
				{
					"inputs": [],
					"name": "AccessControlBadConfirmation",
					"type": "error"
				},
				{
					"inputs": [
						{
							"internalType": "address",
							"name": "account",
							"type": "address"
						},
						{
							"internalType": "bytes32",
							"name": "neededRole",
							"type": "bytes32"
						}
					],
					"name": "AccessControlUnauthorizedAccount",
					"type": "error"
				},
				{
					"inputs": [
						{
							"internalType": "address",
							"name": "owner",
							"type": "address"
						},
						{
							"internalType": "address",
							"name": "spender",
							"type": "address"
						},
						{
							"internalType": "address",
							"name": "token",
							"type": "address"
						},
						{
							"internalType": "uint256",
							"name": "requested",
							"type": "uint256"
						},
						{
							"internalType": "uint256",
							"name": "available",
							"type": "uint256"
						}
					],
					"name": "InsufficientAllowance",
					"type": "error"
				},
				{
					"inputs": [],
					"name": "InvalidArrayLengths",
					"type": "error"
				},
				{
					"inputs": [],
					"name": "ReentrancyGuardReentrantCall",
					"type": "error"
				},
				{
					"inputs": [
						{
							"internalType": "address",
							"name": "token",
							"type": "address"
						}
					],
					"name": "SafeERC20FailedOperation",
					"type": "error"
				},
				{
					"inputs": [],
					"name": "TransferFailed",
					"type": "error"
				},
				{
					"inputs": [
						{
							"internalType": "address",
							"name": "token",
							"type": "address"
						}
					],
					"name": "UnsupportedToken",
					"type": "error"
				},
				{
					"anonymous": false,
					"inputs": [
						{
							"indexed": true,
							"internalType": "address",
							"name": "owner",
							"type": "address"
						},
						{
							"indexed": true,
							"internalType": "address",
							"name": "spender",
							"type": "address"
						},
						{
							"indexed": true,
							"internalType": "address",
							"name": "token",
							"type": "address"
						},
						{
							"indexed": false,
							"internalType": "uint256",
							"name": "amount",
							"type": "uint256"
						}
					],
					"name": "AllowanceSet",
					"type": "event"
				},
				{
					"anonymous": false,
					"inputs": [
						{
							"indexed": true,
							"internalType": "address",
							"name": "from",
							"type": "address"
						},
						{
							"indexed": false,
							"internalType": "address[]",
							"name": "to",
							"type": "address[]"
						},
						{
							"indexed": true,
							"internalType": "address",
							"name": "token",
							"type": "address"
						},
						{
							"indexed": false,
							"internalType": "uint256[]",
							"name": "amounts",
							"type": "uint256[]"
						}
					],
					"name": "BatchTransferred",
					"type": "event"
				},
				{
					"anonymous": false,
					"inputs": [
						{
							"indexed": true,
							"internalType": "bytes32",
							"name": "role",
							"type": "bytes32"
						},
						{
							"indexed": true,
							"internalType": "bytes32",
							"name": "previousAdminRole",
							"type": "bytes32"
						},
						{
							"indexed": true,
							"internalType": "bytes32",
							"name": "newAdminRole",
							"type": "bytes32"
						}
					],
					"name": "RoleAdminChanged",
					"type": "event"
				},
				{
					"anonymous": false,
					"inputs": [
						{
							"indexed": true,
							"internalType": "bytes32",
							"name": "role",
							"type": "bytes32"
						},
						{
							"indexed": true,
							"internalType": "address",
							"name": "account",
							"type": "address"
						},
						{
							"indexed": true,
							"internalType": "address",
							"name": "sender",
							"type": "address"
						}
					],
					"name": "RoleGranted",
					"type": "event"
				},
				{
					"anonymous": false,
					"inputs": [
						{
							"indexed": true,
							"internalType": "bytes32",
							"name": "role",
							"type": "bytes32"
						},
						{
							"indexed": true,
							"internalType": "address",
							"name": "account",
							"type": "address"
						},
						{
							"indexed": true,
							"internalType": "address",
							"name": "sender",
							"type": "address"
						}
					],
					"name": "RoleRevoked",
					"type": "event"
				},
				{
					"anonymous": false,
					"inputs": [
						{
							"indexed": true,
							"internalType": "address",
							"name": "token",
							"type": "address"
						}
					],
					"name": "TokenAdded",
					"type": "event"
				},
				{
					"anonymous": false,
					"inputs": [
						{
							"indexed": true,
							"internalType": "address",
							"name": "token",
							"type": "address"
						}
					],
					"name": "TokenRemoved",
					"type": "event"
				},
				{
					"anonymous": false,
					"inputs": [
						{
							"indexed": true,
							"internalType": "address",
							"name": "from",
							"type": "address"
						},
						{
							"indexed": true,
							"internalType": "address",
							"name": "to",
							"type": "address"
						},
						{
							"indexed": true,
							"internalType": "address",
							"name": "token",
							"type": "address"
						},
						{
							"indexed": false,
							"internalType": "uint256",
							"name": "amount",
							"type": "uint256"
						}
					],
					"name": "TokenTransferred",
					"type": "event"
				},
				{
					"inputs": [],
					"name": "DEFAULT_ADMIN_ROLE",
					"outputs": [
						{
							"internalType": "bytes32",
							"name": "",
							"type": "bytes32"
						}
					],
					"stateMutability": "view",
					"type": "function"
				},
				{
					"inputs": [],
					"name": "TRANSFER_ADMIN_ROLE",
					"outputs": [
						{
							"internalType": "bytes32",
							"name": "",
							"type": "bytes32"
						}
					],
					"stateMutability": "view",
					"type": "function"
				},
				{
					"inputs": [
						{
							"internalType": "address",
							"name": "token",
							"type": "address"
						}
					],
					"name": "addSupportedToken",
					"outputs": [],
					"stateMutability": "nonpayable",
					"type": "function"
				},
				{
					"inputs": [
						{
							"internalType": "address",
							"name": "owner",
							"type": "address"
						},
						{
							"internalType": "address",
							"name": "spender",
							"type": "address"
						},
						{
							"internalType": "address",
							"name": "token",
							"type": "address"
						}
					],
					"name": "allowance",
					"outputs": [
						{
							"internalType": "uint256",
							"name": "",
							"type": "uint256"
						}
					],
					"stateMutability": "view",
					"type": "function"
				},
				{
					"inputs": [
						{
							"internalType": "address[]",
							"name": "to",
							"type": "address[]"
						},
						{
							"internalType": "address",
							"name": "token",
							"type": "address"
						},
						{
							"internalType": "uint256[]",
							"name": "amounts",
							"type": "uint256[]"
						}
					],
					"name": "batchTransferToken",
					"outputs": [],
					"stateMutability": "nonpayable",
					"type": "function"
				},
				{
					"inputs": [
						{
							"internalType": "bytes32",
							"name": "role",
							"type": "bytes32"
						}
					],
					"name": "getRoleAdmin",
					"outputs": [
						{
							"internalType": "bytes32",
							"name": "",
							"type": "bytes32"
						}
					],
					"stateMutability": "view",
					"type": "function"
				},
				{
					"inputs": [
						{
							"internalType": "bytes32",
							"name": "role",
							"type": "bytes32"
						},
						{
							"internalType": "address",
							"name": "account",
							"type": "address"
						}
					],
					"name": "grantRole",
					"outputs": [],
					"stateMutability": "nonpayable",
					"type": "function"
				},
				{
					"inputs": [
						{
							"internalType": "bytes32",
							"name": "role",
							"type": "bytes32"
						},
						{
							"internalType": "address",
							"name": "account",
							"type": "address"
						}
					],
					"name": "hasRole",
					"outputs": [
						{
							"internalType": "bool",
							"name": "",
							"type": "bool"
						}
					],
					"stateMutability": "view",
					"type": "function"
				},
				{
					"inputs": [
						{
							"internalType": "address",
							"name": "token",
							"type": "address"
						}
					],
					"name": "removeSupportedToken",
					"outputs": [],
					"stateMutability": "nonpayable",
					"type": "function"
				},
				{
					"inputs": [
						{
							"internalType": "bytes32",
							"name": "role",
							"type": "bytes32"
						},
						{
							"internalType": "address",
							"name": "callerConfirmation",
							"type": "address"
						}
					],
					"name": "renounceRole",
					"outputs": [],
					"stateMutability": "nonpayable",
					"type": "function"
				},
				{
					"inputs": [
						{
							"internalType": "bytes32",
							"name": "role",
							"type": "bytes32"
						},
						{
							"internalType": "address",
							"name": "account",
							"type": "address"
						}
					],
					"name": "revokeRole",
					"outputs": [],
					"stateMutability": "nonpayable",
					"type": "function"
				},
				{
					"inputs": [
						{
							"internalType": "address",
							"name": "spender",
							"type": "address"
						},
						{
							"internalType": "address",
							"name": "token",
							"type": "address"
						},
						{
							"internalType": "uint256",
							"name": "amount",
							"type": "uint256"
						}
					],
					"name": "setAllowance",
					"outputs": [],
					"stateMutability": "nonpayable",
					"type": "function"
				},
				{
					"inputs": [
						{
							"internalType": "address",
							"name": "",
							"type": "address"
						}
					],
					"name": "supportedTokens",
					"outputs": [
						{
							"internalType": "bool",
							"name": "",
							"type": "bool"
						}
					],
					"stateMutability": "view",
					"type": "function"
				},
				{
					"inputs": [
						{
							"internalType": "bytes4",
							"name": "interfaceId",
							"type": "bytes4"
						}
					],
					"name": "supportsInterface",
					"outputs": [
						{
							"internalType": "bool",
							"name": "",
							"type": "bool"
						}
					],
					"stateMutability": "view",
					"type": "function"
				},
				{
					"inputs": [
						{
							"internalType": "address",
							"name": "to",
							"type": "address"
						},
						{
							"internalType": "address",
							"name": "token",
							"type": "address"
						},
						{
							"internalType": "uint256",
							"name": "amount",
							"type": "uint256"
						}
					],
					"name": "transferToken",
					"outputs": [],
					"stateMutability": "nonpayable",
					"type": "function"
				},
				{
					"inputs": [
						{
							"internalType": "address",
							"name": "from",
							"type": "address"
						},
						{
							"internalType": "address",
							"name": "to",
							"type": "address"
						},
						{
							"internalType": "address",
							"name": "token",
							"type": "address"
						},
						{
							"internalType": "uint256",
							"name": "amount",
							"type": "uint256"
						}
					],
					"name": "transferTokenFrom",
					"outputs": [],
					"stateMutability": "nonpayable",
					"type": "function"
				}
			],
			"devdoc": {
				"details": "A contract for handling token transfers within the Cipher Zero Protocol",
				"errors": {
					"AccessControlBadConfirmation()": [
						{
							"details": "The caller of a function is not the expected one. NOTE: Don't confuse with {AccessControlUnauthorizedAccount}."
						}
					],
					"AccessControlUnauthorizedAccount(address,bytes32)": [
						{
							"details": "The `account` is missing a role."
						}
					],
					"ReentrancyGuardReentrantCall()": [
						{
							"details": "Unauthorized reentrant call."
						}
					],
					"SafeERC20FailedOperation(address)": [
						{
							"details": "An operation with an ERC-20 token failed."
						}
					]
				},
				"events": {
					"RoleAdminChanged(bytes32,bytes32,bytes32)": {
						"details": "Emitted when `newAdminRole` is set as ``role``'s admin role, replacing `previousAdminRole` `DEFAULT_ADMIN_ROLE` is the starting admin for all roles, despite {RoleAdminChanged} not being emitted signaling this."
					},
					"RoleGranted(bytes32,address,address)": {
						"details": "Emitted when `account` is granted `role`. `sender` is the account that originated the contract call. This account bears the admin role (for the granted role). Expected in cases where the role was granted using the internal {AccessControl-_grantRole}."
					},
					"RoleRevoked(bytes32,address,address)": {
						"details": "Emitted when `account` is revoked `role`. `sender` is the account that originated the contract call:   - if using `revokeRole`, it is the admin role bearer   - if using `renounceRole`, it is the role bearer (i.e. `account`)"
					}
				},
				"kind": "dev",
				"methods": {
					"addSupportedToken(address)": {
						"details": "Adds a supported token (only TRANSFER_ADMIN_ROLE)",
						"params": {
							"token": "Address of the token to add"
						}
					},
					"allowance(address,address,address)": {
						"details": "Returns the remaining allowance for a spender",
						"params": {
							"owner": "Address of the token owner",
							"spender": "Address of the spender",
							"token": "Address of the ERC20 token"
						},
						"returns": {
							"_0": "The remaining allowance"
						}
					},
					"batchTransferToken(address[],address,uint256[])": {
						"details": "Performs batch token transfers",
						"params": {
							"amounts": "Array of amounts to transfer",
							"to": "Array of recipient addresses",
							"token": "Address of the ERC20 token"
						}
					},
					"getRoleAdmin(bytes32)": {
						"details": "Returns the admin role that controls `role`. See {grantRole} and {revokeRole}. To change a role's admin, use {_setRoleAdmin}."
					},
					"grantRole(bytes32,address)": {
						"details": "Grants `role` to `account`. If `account` had not been already granted `role`, emits a {RoleGranted} event. Requirements: - the caller must have ``role``'s admin role. May emit a {RoleGranted} event."
					},
					"hasRole(bytes32,address)": {
						"details": "Returns `true` if `account` has been granted `role`."
					},
					"removeSupportedToken(address)": {
						"details": "Removes a supported token (only TRANSFER_ADMIN_ROLE)",
						"params": {
							"token": "Address of the token to remove"
						}
					},
					"renounceRole(bytes32,address)": {
						"details": "Revokes `role` from the calling account. Roles are often managed via {grantRole} and {revokeRole}: this function's purpose is to provide a mechanism for accounts to lose their privileges if they are compromised (such as when a trusted device is misplaced). If the calling account had been revoked `role`, emits a {RoleRevoked} event. Requirements: - the caller must be `callerConfirmation`. May emit a {RoleRevoked} event."
					},
					"revokeRole(bytes32,address)": {
						"details": "Revokes `role` from `account`. If `account` had been granted `role`, emits a {RoleRevoked} event. Requirements: - the caller must have ``role``'s admin role. May emit a {RoleRevoked} event."
					},
					"setAllowance(address,address,uint256)": {
						"details": "Sets allowance for a spender to transfer tokens on behalf of the owner",
						"params": {
							"amount": "Amount of tokens allowed to spend",
							"spender": "Address allowed to spend tokens",
							"token": "Address of the ERC20 token"
						}
					},
					"supportsInterface(bytes4)": {
						"details": "See {IERC165-supportsInterface}."
					},
					"transferToken(address,address,uint256)": {
						"details": "Transfers tokens from the sender to a recipient",
						"params": {
							"amount": "Amount of tokens to transfer",
							"to": "Recipient address",
							"token": "Address of the ERC20 token"
						}
					},
					"transferTokenFrom(address,address,address,uint256)": {
						"details": "Transfers tokens from one address to another, respecting allowances",
						"params": {
							"amount": "Amount of tokens to transfer",
							"from": "Sender address",
							"to": "Recipient address",
							"token": "Address of the ERC20 token"
						}
					}
				},
				"title": "TokenTransfer",
				"version": 1
			},
			"evm": {
				"assembly": "    /* \"token/TokenTransfer.sol\":466:5841  contract TokenTransfer is ReentrancyGuard, AccessControl {... */\n  mstore(0x40, 0x80)\n    /* \"token/TokenTransfer.sol\":1649:1775  constructor() {... */\n  callvalue\n  dup1\n  iszero\n  tag_1\n  jumpi\n  0x00\n  dup1\n  revert\ntag_1:\n  pop\n    /* \"@openzeppelin/contracts/utils/ReentrancyGuard.sol\":1857:1858  1 */\n  0x01\n    /* \"@openzeppelin/contracts/utils/ReentrancyGuard.sol\":2061:2068  _status */\n  0x00\n    /* \"@openzeppelin/contracts/utils/ReentrancyGuard.sol\":2061:2082  _status = NOT_ENTERED */\n  dup2\n  swap1\n  sstore\n  pop\n    /* \"token/TokenTransfer.sol\":1673:1715  _grantRole(DEFAULT_ADMIN_ROLE, msg.sender) */\n  tag_6\n    /* \"@openzeppelin/contracts/access/AccessControl.sol\":2232:2236  0x00 */\n  0x00\n    /* \"token/TokenTransfer.sol\":1684:1702  DEFAULT_ADMIN_ROLE */\n  dup1\n  shl\n    /* \"token/TokenTransfer.sol\":1704:1714  msg.sender */\n  caller\n    /* \"token/TokenTransfer.sol\":1673:1683  _grantRole */\n  shl(0x20, tag_7)\n    /* \"token/TokenTransfer.sol\":1673:1715  _grantRole(DEFAULT_ADMIN_ROLE, msg.sender) */\n  0x20\n  shr\n  jump\t// in\ntag_6:\n  pop\n    /* \"token/TokenTransfer.sol\":1725:1768  _grantRole(TRANSFER_ADMIN_ROLE, msg.sender) */\n  tag_8\n    /* \"token/TokenTransfer.sol\":647:679  keccak256(\"TRANSFER_ADMIN_ROLE\") */\n  0x915327d54f2c758ad33c35b031b5e89868657ea971cda2b8103c502dc672509c\n    /* \"token/TokenTransfer.sol\":1757:1767  msg.sender */\n  caller\n    /* \"token/TokenTransfer.sol\":1725:1735  _grantRole */\n  shl(0x20, tag_7)\n    /* \"token/TokenTransfer.sol\":1725:1768  _grantRole(TRANSFER_ADMIN_ROLE, msg.sender) */\n  0x20\n  shr\n  jump\t// in\ntag_8:\n  pop\n    /* \"token/TokenTransfer.sol\":466:5841  contract TokenTransfer is ReentrancyGuard, AccessControl {... */\n  jump(tag_9)\n    /* \"@openzeppelin/contracts/access/AccessControl.sol\":6179:6495  function _grantRole(bytes32 role, address account) internal virtual returns (bool) {... */\ntag_7:\n    /* \"@openzeppelin/contracts/access/AccessControl.sol\":6256:6260  bool */\n  0x00\n    /* \"@openzeppelin/contracts/access/AccessControl.sol\":6277:6299  hasRole(role, account) */\n  tag_11\n    /* \"@openzeppelin/contracts/access/AccessControl.sol\":6285:6289  role */\n  dup4\n    /* \"@openzeppelin/contracts/access/AccessControl.sol\":6291:6298  account */\n  dup4\n    /* \"@openzeppelin/contracts/access/AccessControl.sol\":6277:6284  hasRole */\n  shl(0x20, tag_12)\n    /* \"@openzeppelin/contracts/access/AccessControl.sol\":6277:6299  hasRole(role, account) */\n  0x20\n  shr\n  jump\t// in\ntag_11:\n    /* \"@openzeppelin/contracts/access/AccessControl.sol\":6272:6489  if (!hasRole(role, account)) {... */\n  tag_13\n  jumpi\n    /* \"@openzeppelin/contracts/access/AccessControl.sol\":6347:6351  true */\n  0x01\n    /* \"@openzeppelin/contracts/access/AccessControl.sol\":6315:6321  _roles */\n  dup1\n    /* \"@openzeppelin/contracts/access/AccessControl.sol\":6315:6327  _roles[role] */\n  0x00\n    /* \"@openzeppelin/contracts/access/AccessControl.sol\":6322:6326  role */\n  dup6\n    /* \"@openzeppelin/contracts/access/AccessControl.sol\":6315:6327  _roles[role] */\n  dup2\n  mstore\n  0x20\n  add\n  swap1\n  dup2\n  mstore\n  0x20\n  add\n  0x00\n  keccak256\n    /* \"@openzeppelin/contracts/access/AccessControl.sol\":6315:6335  _roles[role].hasRole */\n  0x00\n  add\n    /* \"@openzeppelin/contracts/access/AccessControl.sol\":6315:6344  _roles[role].hasRole[account] */\n  0x00\n    /* \"@openzeppelin/contracts/access/AccessControl.sol\":6336:6343  account */\n  dup5\n    /* \"@openzeppelin/contracts/access/AccessControl.sol\":6315:6344  _roles[role].hasRole[account] */\n  0xffffffffffffffffffffffffffffffffffffffff\n  and\n  0xffffffffffffffffffffffffffffffffffffffff\n  and\n  dup2\n  mstore\n  0x20\n  add\n  swap1\n  dup2\n  mstore\n  0x20\n  add\n  0x00\n  keccak256\n  0x00\n    /* \"@openzeppelin/contracts/access/AccessControl.sol\":6315:6351  _roles[role].hasRole[account] = true */\n  0x0100\n  exp\n  dup2\n  sload\n  dup2\n  0xff\n  mul\n  not\n  and\n  swap1\n  dup4\n  iszero\n  iszero\n  mul\n  or\n  swap1\n  sstore\n  pop\n    /* \"@openzeppelin/contracts/access/AccessControl.sol\":6397:6409  _msgSender() */\n  tag_14\n    /* \"@openzeppelin/contracts/access/AccessControl.sol\":6397:6407  _msgSender */\n  shl(0x20, tag_15)\n    /* \"@openzeppelin/contracts/access/AccessControl.sol\":6397:6409  _msgSender() */\n  0x20\n  shr\n  jump\t// in\ntag_14:\n    /* \"@openzeppelin/contracts/access/AccessControl.sol\":6370:6410  RoleGranted(role, account, _msgSender()) */\n  0xffffffffffffffffffffffffffffffffffffffff\n  and\n    /* \"@openzeppelin/contracts/access/AccessControl.sol\":6388:6395  account */\n  dup3\n    /* \"@openzeppelin/contracts/access/AccessControl.sol\":6370:6410  RoleGranted(role, account, _msgSender()) */\n  0xffffffffffffffffffffffffffffffffffffffff\n  and\n    /* \"@openzeppelin/contracts/access/AccessControl.sol\":6382:6386  role */\n  dup5\n    /* \"@openzeppelin/contracts/access/AccessControl.sol\":6370:6410  RoleGranted(role, account, _msgSender()) */\n  0x2f8788117e7eff1d82e926ec794901d17c78024a50270940304540a733656f0d\n  mload(0x40)\n  mload(0x40)\n  dup1\n  swap2\n  sub\n  swap1\n  log4\n    /* \"@openzeppelin/contracts/access/AccessControl.sol\":6431:6435  true */\n  0x01\n    /* \"@openzeppelin/contracts/access/AccessControl.sol\":6424:6435  return true */\n  swap1\n  pop\n  jump(tag_10)\n    /* \"@openzeppelin/contracts/access/AccessControl.sol\":6272:6489  if (!hasRole(role, account)) {... */\ntag_13:\n    /* \"@openzeppelin/contracts/access/AccessControl.sol\":6473:6478  false */\n  0x00\n    /* \"@openzeppelin/contracts/access/AccessControl.sol\":6466:6478  return false */\n  swap1\n  pop\n    /* \"@openzeppelin/contracts/access/AccessControl.sol\":6179:6495  function _grantRole(bytes32 role, address account) internal virtual returns (bool) {... */\ntag_10:\n  swap3\n  swap2\n  pop\n  pop\n  jump\t// out\n    /* \"@openzeppelin/contracts/access/AccessControl.sol\":2854:2990  function hasRole(bytes32 role, address account) public view virtual returns (bool) {... */\ntag_12:\n    /* \"@openzeppelin/contracts/access/AccessControl.sol\":2931:2935  bool */\n  0x00\n    /* \"@openzeppelin/contracts/access/AccessControl.sol\":2954:2960  _roles */\n  0x01\n    /* \"@openzeppelin/contracts/access/AccessControl.sol\":2954:2966  _roles[role] */\n  0x00\n    /* \"@openzeppelin/contracts/access/AccessControl.sol\":2961:2965  role */\n  dup5\n    /* \"@openzeppelin/contracts/access/AccessControl.sol\":2954:2966  _roles[role] */\n  dup2\n  mstore\n  0x20\n  add\n  swap1\n  dup2\n  mstore\n  0x20\n  add\n  0x00\n  keccak256\n    /* \"@openzeppelin/contracts/access/AccessControl.sol\":2954:2974  _roles[role].hasRole */\n  0x00\n  add\n    /* \"@openzeppelin/contracts/access/AccessControl.sol\":2954:2983  _roles[role].hasRole[account] */\n  0x00\n    /* \"@openzeppelin/contracts/access/AccessControl.sol\":2975:2982  account */\n  dup4\n    /* \"@openzeppelin/contracts/access/AccessControl.sol\":2954:2983  _roles[role].hasRole[account] */\n  0xffffffffffffffffffffffffffffffffffffffff\n  and\n  0xffffffffffffffffffffffffffffffffffffffff\n  and\n  dup2\n  mstore\n  0x20\n  add\n  swap1\n  dup2\n  mstore\n  0x20\n  add\n  0x00\n  keccak256\n  0x00\n  swap1\n  sload\n  swap1\n  0x0100\n  exp\n  swap1\n  div\n  0xff\n  and\n    /* \"@openzeppelin/contracts/access/AccessControl.sol\":2947:2983  return _roles[role].hasRole[account] */\n  swap1\n  pop\n    /* \"@openzeppelin/contracts/access/AccessControl.sol\":2854:2990  function hasRole(bytes32 role, address account) public view virtual returns (bool) {... */\n  swap3\n  swap2\n  pop\n  pop\n  jump\t// out\n    /* \"@openzeppelin/contracts/utils/Context.sol\":656:752  function _msgSender() internal view virtual returns (address) {... */\ntag_15:\n    /* \"@openzeppelin/contracts/utils/Context.sol\":709:716  address */\n  0x00\n    /* \"@openzeppelin/contracts/utils/Context.sol\":735:745  msg.sender */\n  caller\n    /* \"@openzeppelin/contracts/utils/Context.sol\":728:745  return msg.sender */\n  swap1\n  pop\n    /* \"@openzeppelin/contracts/utils/Context.sol\":656:752  function _msgSender() internal view virtual returns (address) {... */\n  swap1\n  jump\t// out\n    /* \"token/TokenTransfer.sol\":466:5841  contract TokenTransfer is ReentrancyGuard, AccessControl {... */\ntag_9:\n  dataSize(sub_0)\n  dup1\n  dataOffset(sub_0)\n  0x00\n  codecopy\n  0x00\n  return\nstop\n\nsub_0: assembly {\n        /* \"token/TokenTransfer.sol\":466:5841  contract TokenTransfer is ReentrancyGuard, AccessControl {... */\n      mstore(0x40, 0x80)\n      callvalue\n      dup1\n      iszero\n      tag_1\n      jumpi\n      0x00\n      dup1\n      revert\n    tag_1:\n      pop\n      jumpi(tag_2, lt(calldatasize, 0x04))\n      shr(0xe0, calldataload(0x00))\n      dup1\n      0x91d14854\n      gt\n      tag_19\n      jumpi\n      dup1\n      0xd547741f\n      gt\n      tag_20\n      jumpi\n      dup1\n      0xd547741f\n      eq\n      tag_15\n      jumpi\n      dup1\n      0xda46098c\n      eq\n      tag_16\n      jumpi\n      dup1\n      0xe5994905\n      eq\n      tag_17\n      jumpi\n      dup1\n      0xf5537ede\n      eq\n      tag_18\n      jumpi\n      jump(tag_2)\n    tag_20:\n      dup1\n      0x91d14854\n      eq\n      tag_11\n      jumpi\n      dup1\n      0x927da105\n      eq\n      tag_12\n      jumpi\n      dup1\n      0xa217fddf\n      eq\n      tag_13\n      jumpi\n      dup1\n      0xcdb33b81\n      eq\n      tag_14\n      jumpi\n      jump(tag_2)\n    tag_19:\n      dup1\n      0x68a37ae8\n      gt\n      tag_21\n      jumpi\n      dup1\n      0x68a37ae8\n      eq\n      tag_7\n      jumpi\n      dup1\n      0x68c4ac26\n      eq\n      tag_8\n      jumpi\n      dup1\n      0x6d69fcaf\n      eq\n      tag_9\n      jumpi\n      dup1\n      0x76319190\n      eq\n      tag_10\n      jumpi\n      jump(tag_2)\n    tag_21:\n      dup1\n      0x01ffc9a7\n      eq\n      tag_3\n      jumpi\n      dup1\n      0x248a9ca3\n      eq\n      tag_4\n      jumpi\n      dup1\n      0x2f2ff15d\n      eq\n      tag_5\n      jumpi\n      dup1\n      0x36568abe\n      eq\n      tag_6\n      jumpi\n    tag_2:\n      0x00\n      dup1\n      revert\n        /* \"@openzeppelin/contracts/access/AccessControl.sol\":2565:2767  function supportsInterface(bytes4 interfaceId) public view virtual override returns (bool) {... */\n    tag_3:\n      tag_22\n      0x04\n      dup1\n      calldatasize\n      sub\n      dup2\n      add\n      swap1\n      tag_23\n      swap2\n      swap1\n      tag_24\n      jump\t// in\n    tag_23:\n      tag_25\n      jump\t// in\n    tag_22:\n      mload(0x40)\n      tag_26\n      swap2\n      swap1\n      tag_27\n      jump\t// in\n    tag_26:\n      mload(0x40)\n      dup1\n      swap2\n      sub\n      swap1\n      return\n        /* \"@openzeppelin/contracts/access/AccessControl.sol\":3810:3930  function getRoleAdmin(bytes32 role) public view virtual returns (bytes32) {... */\n    tag_4:\n      tag_28\n      0x04\n      dup1\n      calldatasize\n      sub\n      dup2\n      add\n      swap1\n      tag_29\n      swap2\n      swap1\n      tag_30\n      jump\t// in\n    tag_29:\n      tag_31\n      jump\t// in\n    tag_28:\n      mload(0x40)\n      tag_32\n      swap2\n      swap1\n      tag_33\n      jump\t// in\n    tag_32:\n      mload(0x40)\n      dup1\n      swap2\n      sub\n      swap1\n      return\n        /* \"@openzeppelin/contracts/access/AccessControl.sol\":4226:4362  function grantRole(bytes32 role, address account) public virtual onlyRole(getRoleAdmin(role)) {... */\n    tag_5:\n      tag_34\n      0x04\n      dup1\n      calldatasize\n      sub\n      dup2\n      add\n      swap1\n      tag_35\n      swap2\n      swap1\n      tag_36\n      jump\t// in\n    tag_35:\n      tag_37\n      jump\t// in\n    tag_34:\n      stop\n        /* \"@openzeppelin/contracts/access/AccessControl.sol\":5328:5573  function renounceRole(bytes32 role, address callerConfirmation) public virtual {... */\n    tag_6:\n      tag_38\n      0x04\n      dup1\n      calldatasize\n      sub\n      dup2\n      add\n      swap1\n      tag_39\n      swap2\n      swap1\n      tag_36\n      jump\t// in\n    tag_39:\n      tag_40\n      jump\t// in\n    tag_38:\n      stop\n        /* \"token/TokenTransfer.sol\":601:679  bytes32 public constant TRANSFER_ADMIN_ROLE = keccak256(\"TRANSFER_ADMIN_ROLE\") */\n    tag_7:\n      tag_41\n      tag_42\n      jump\t// in\n    tag_41:\n      mload(0x40)\n      tag_43\n      swap2\n      swap1\n      tag_33\n      jump\t// in\n    tag_43:\n      mload(0x40)\n      dup1\n      swap2\n      sub\n      swap1\n      return\n        /* \"token/TokenTransfer.sol\":744:791  mapping(address => bool) public supportedTokens */\n    tag_8:\n      tag_44\n      0x04\n      dup1\n      calldatasize\n      sub\n      dup2\n      add\n      swap1\n      tag_45\n      swap2\n      swap1\n      tag_46\n      jump\t// in\n    tag_45:\n      tag_47\n      jump\t// in\n    tag_44:\n      mload(0x40)\n      tag_48\n      swap2\n      swap1\n      tag_27\n      jump\t// in\n    tag_48:\n      mload(0x40)\n      dup1\n      swap2\n      sub\n      swap1\n      return\n        /* \"token/TokenTransfer.sol\":4732:4891  function addSupportedToken(address token) external onlyRole(TRANSFER_ADMIN_ROLE) {... */\n    tag_9:\n      tag_49\n      0x04\n      dup1\n      calldatasize\n      sub\n      dup2\n      add\n      swap1\n      tag_50\n      swap2\n      swap1\n      tag_46\n      jump\t// in\n    tag_50:\n      tag_51\n      jump\t// in\n    tag_49:\n      stop\n        /* \"token/TokenTransfer.sol\":5029:5194  function removeSupportedToken(address token) external onlyRole(TRANSFER_ADMIN_ROLE) {... */\n    tag_10:\n      tag_52\n      0x04\n      dup1\n      calldatasize\n      sub\n      dup2\n      add\n      swap1\n      tag_53\n      swap2\n      swap1\n      tag_46\n      jump\t// in\n    tag_53:\n      tag_54\n      jump\t// in\n    tag_52:\n      stop\n        /* \"@openzeppelin/contracts/access/AccessControl.sol\":2854:2990  function hasRole(bytes32 role, address account) public view virtual returns (bool) {... */\n    tag_11:\n      tag_55\n      0x04\n      dup1\n      calldatasize\n      sub\n      dup2\n      add\n      swap1\n      tag_56\n      swap2\n      swap1\n      tag_36\n      jump\t// in\n    tag_56:\n      tag_57\n      jump\t// in\n    tag_55:\n      mload(0x40)\n      tag_58\n      swap2\n      swap1\n      tag_27\n      jump\t// in\n    tag_58:\n      mload(0x40)\n      dup1\n      swap2\n      sub\n      swap1\n      return\n        /* \"token/TokenTransfer.sol\":4444:4600  function allowance(address owner, address spender, address token) external view returns (uint256) {... */\n    tag_12:\n      tag_59\n      0x04\n      dup1\n      calldatasize\n      sub\n      dup2\n      add\n      swap1\n      tag_60\n      swap2\n      swap1\n      tag_61\n      jump\t// in\n    tag_60:\n      tag_62\n      jump\t// in\n    tag_59:\n      mload(0x40)\n      tag_63\n      swap2\n      swap1\n      tag_64\n      jump\t// in\n    tag_63:\n      mload(0x40)\n      dup1\n      swap2\n      sub\n      swap1\n      return\n        /* \"@openzeppelin/contracts/access/AccessControl.sol\":2187:2236  bytes32 public constant DEFAULT_ADMIN_ROLE = 0x00 */\n    tag_13:\n      tag_65\n      tag_66\n      jump\t// in\n    tag_65:\n      mload(0x40)\n      tag_67\n      swap2\n      swap1\n      tag_33\n      jump\t// in\n    tag_67:\n      mload(0x40)\n      dup1\n      swap2\n      sub\n      swap1\n      return\n        /* \"token/TokenTransfer.sol\":3103:3718  function batchTransferToken(address[] calldata to, address token, uint256[] calldata amounts) external nonReentrant {... */\n    tag_14:\n      tag_68\n      0x04\n      dup1\n      calldatasize\n      sub\n      dup2\n      add\n      swap1\n      tag_69\n      swap2\n      swap1\n      tag_70\n      jump\t// in\n    tag_69:\n      tag_71\n      jump\t// in\n    tag_68:\n      stop\n        /* \"@openzeppelin/contracts/access/AccessControl.sol\":4642:4780  function revokeRole(bytes32 role, address account) public virtual onlyRole(getRoleAdmin(role)) {... */\n    tag_15:\n      tag_72\n      0x04\n      dup1\n      calldatasize\n      sub\n      dup2\n      add\n      swap1\n      tag_73\n      swap2\n      swap1\n      tag_36\n      jump\t// in\n    tag_73:\n      tag_74\n      jump\t// in\n    tag_72:\n      stop\n        /* \"token/TokenTransfer.sol\":3979:4186  function setAllowance(address spender, address token, uint256 amount) external {... */\n    tag_16:\n      tag_75\n      0x04\n      dup1\n      calldatasize\n      sub\n      dup2\n      add\n      swap1\n      tag_76\n      swap2\n      swap1\n      tag_77\n      jump\t// in\n    tag_76:\n      tag_78\n      jump\t// in\n    tag_75:\n      stop\n        /* \"token/TokenTransfer.sol\":2407:2894  function transferTokenFrom(address from, address to, address token, uint256 amount) external nonReentrant {... */\n    tag_17:\n      tag_79\n      0x04\n      dup1\n      calldatasize\n      sub\n      dup2\n      add\n      swap1\n      tag_80\n      swap2\n      swap1\n      tag_81\n      jump\t// in\n    tag_80:\n      tag_82\n      jump\t// in\n    tag_79:\n      stop\n        /* \"token/TokenTransfer.sol\":1989:2139  function transferToken(address to, address token, uint256 amount) external nonReentrant {... */\n    tag_18:\n      tag_83\n      0x04\n      dup1\n      calldatasize\n      sub\n      dup2\n      add\n      swap1\n      tag_84\n      swap2\n      swap1\n      tag_77\n      jump\t// in\n    tag_84:\n      tag_85\n      jump\t// in\n    tag_83:\n      stop\n        /* \"@openzeppelin/contracts/access/AccessControl.sol\":2565:2767  function supportsInterface(bytes4 interfaceId) public view virtual override returns (bool) {... */\n    tag_25:\n        /* \"@openzeppelin/contracts/access/AccessControl.sol\":2650:2654  bool */\n      0x00\n        /* \"@openzeppelin/contracts/access/AccessControl.sol\":2688:2720  type(IAccessControl).interfaceId */\n      0x7965db0b00000000000000000000000000000000000000000000000000000000\n        /* \"@openzeppelin/contracts/access/AccessControl.sol\":2673:2720  interfaceId == type(IAccessControl).interfaceId */\n      not(0xffffffffffffffffffffffffffffffffffffffffffffffffffffffff)\n      and\n        /* \"@openzeppelin/contracts/access/AccessControl.sol\":2673:2684  interfaceId */\n      dup3\n        /* \"@openzeppelin/contracts/access/AccessControl.sol\":2673:2720  interfaceId == type(IAccessControl).interfaceId */\n      not(0xffffffffffffffffffffffffffffffffffffffffffffffffffffffff)\n      and\n      eq\n        /* \"@openzeppelin/contracts/access/AccessControl.sol\":2673:2760  interfaceId == type(IAccessControl).interfaceId || super.supportsInterface(interfaceId) */\n      dup1\n      tag_87\n      jumpi\n      pop\n        /* \"@openzeppelin/contracts/access/AccessControl.sol\":2724:2760  super.supportsInterface(interfaceId) */\n      tag_88\n        /* \"@openzeppelin/contracts/access/AccessControl.sol\":2748:2759  interfaceId */\n      dup3\n        /* \"@openzeppelin/contracts/access/AccessControl.sol\":2724:2747  super.supportsInterface */\n      tag_89\n        /* \"@openzeppelin/contracts/access/AccessControl.sol\":2724:2760  super.supportsInterface(interfaceId) */\n      jump\t// in\n    tag_88:\n        /* \"@openzeppelin/contracts/access/AccessControl.sol\":2673:2760  interfaceId == type(IAccessControl).interfaceId || super.supportsInterface(interfaceId) */\n    tag_87:\n        /* \"@openzeppelin/contracts/access/AccessControl.sol\":2666:2760  return interfaceId == type(IAccessControl).interfaceId || super.supportsInterface(interfaceId) */\n      swap1\n      pop\n        /* \"@openzeppelin/contracts/access/AccessControl.sol\":2565:2767  function supportsInterface(bytes4 interfaceId) public view virtual override returns (bool) {... */\n      swap2\n      swap1\n      pop\n      jump\t// out\n        /* \"@openzeppelin/contracts/access/AccessControl.sol\":3810:3930  function getRoleAdmin(bytes32 role) public view virtual returns (bytes32) {... */\n    tag_31:\n        /* \"@openzeppelin/contracts/access/AccessControl.sol\":3875:3882  bytes32 */\n      0x00\n        /* \"@openzeppelin/contracts/access/AccessControl.sol\":3901:3907  _roles */\n      0x01\n        /* \"@openzeppelin/contracts/access/AccessControl.sol\":3901:3913  _roles[role] */\n      0x00\n        /* \"@openzeppelin/contracts/access/AccessControl.sol\":3908:3912  role */\n      dup4\n        /* \"@openzeppelin/contracts/access/AccessControl.sol\":3901:3913  _roles[role] */\n      dup2\n      mstore\n      0x20\n      add\n      swap1\n      dup2\n      mstore\n      0x20\n      add\n      0x00\n      keccak256\n        /* \"@openzeppelin/contracts/access/AccessControl.sol\":3901:3923  _roles[role].adminRole */\n      0x01\n      add\n      sload\n        /* \"@openzeppelin/contracts/access/AccessControl.sol\":3894:3923  return _roles[role].adminRole */\n      swap1\n      pop\n        /* \"@openzeppelin/contracts/access/AccessControl.sol\":3810:3930  function getRoleAdmin(bytes32 role) public view virtual returns (bytes32) {... */\n      swap2\n      swap1\n      pop\n      jump\t// out\n        /* \"@openzeppelin/contracts/access/AccessControl.sol\":4226:4362  function grantRole(bytes32 role, address account) public virtual onlyRole(getRoleAdmin(role)) {... */\n    tag_37:\n        /* \"@openzeppelin/contracts/access/AccessControl.sol\":4300:4318  getRoleAdmin(role) */\n      tag_91\n        /* \"@openzeppelin/contracts/access/AccessControl.sol\":4313:4317  role */\n      dup3\n        /* \"@openzeppelin/contracts/access/AccessControl.sol\":4300:4312  getRoleAdmin */\n      tag_31\n        /* \"@openzeppelin/contracts/access/AccessControl.sol\":4300:4318  getRoleAdmin(role) */\n      jump\t// in\n    tag_91:\n        /* \"@openzeppelin/contracts/access/AccessControl.sol\":2464:2480  _checkRole(role) */\n      tag_93\n        /* \"@openzeppelin/contracts/access/AccessControl.sol\":2475:2479  role */\n      dup2\n        /* \"@openzeppelin/contracts/access/AccessControl.sol\":2464:2474  _checkRole */\n      tag_94\n        /* \"@openzeppelin/contracts/access/AccessControl.sol\":2464:2480  _checkRole(role) */\n      jump\t// in\n    tag_93:\n        /* \"@openzeppelin/contracts/access/AccessControl.sol\":4330:4355  _grantRole(role, account) */\n      tag_96\n        /* \"@openzeppelin/contracts/access/AccessControl.sol\":4341:4345  role */\n      dup4\n        /* \"@openzeppelin/contracts/access/AccessControl.sol\":4347:4354  account */\n      dup4\n        /* \"@openzeppelin/contracts/access/AccessControl.sol\":4330:4340  _grantRole */\n      tag_97\n        /* \"@openzeppelin/contracts/access/AccessControl.sol\":4330:4355  _grantRole(role, account) */\n      jump\t// in\n    tag_96:\n      pop\n        /* \"@openzeppelin/contracts/access/AccessControl.sol\":4226:4362  function grantRole(bytes32 role, address account) public virtual onlyRole(getRoleAdmin(role)) {... */\n      pop\n      pop\n      pop\n      jump\t// out\n        /* \"@openzeppelin/contracts/access/AccessControl.sol\":5328:5573  function renounceRole(bytes32 role, address callerConfirmation) public virtual {... */\n    tag_40:\n        /* \"@openzeppelin/contracts/access/AccessControl.sol\":5443:5455  _msgSender() */\n      tag_99\n        /* \"@openzeppelin/contracts/access/AccessControl.sol\":5443:5453  _msgSender */\n      tag_100\n        /* \"@openzeppelin/contracts/access/AccessControl.sol\":5443:5455  _msgSender() */\n      jump\t// in\n    tag_99:\n        /* \"@openzeppelin/contracts/access/AccessControl.sol\":5421:5455  callerConfirmation != _msgSender() */\n      0xffffffffffffffffffffffffffffffffffffffff\n      and\n        /* \"@openzeppelin/contracts/access/AccessControl.sol\":5421:5439  callerConfirmation */\n      dup2\n        /* \"@openzeppelin/contracts/access/AccessControl.sol\":5421:5455  callerConfirmation != _msgSender() */\n      0xffffffffffffffffffffffffffffffffffffffff\n      and\n      eq\n        /* \"@openzeppelin/contracts/access/AccessControl.sol\":5417:5519  if (callerConfirmation != _msgSender()) {... */\n      tag_101\n      jumpi\n        /* \"@openzeppelin/contracts/access/AccessControl.sol\":5478:5508  AccessControlBadConfirmation() */\n      mload(0x40)\n      0x6697b23200000000000000000000000000000000000000000000000000000000\n      dup2\n      mstore\n      0x04\n      add\n      mload(0x40)\n      dup1\n      swap2\n      sub\n      swap1\n      revert\n        /* \"@openzeppelin/contracts/access/AccessControl.sol\":5417:5519  if (callerConfirmation != _msgSender()) {... */\n    tag_101:\n        /* \"@openzeppelin/contracts/access/AccessControl.sol\":5529:5566  _revokeRole(role, callerConfirmation) */\n      tag_102\n        /* \"@openzeppelin/contracts/access/AccessControl.sol\":5541:5545  role */\n      dup3\n        /* \"@openzeppelin/contracts/access/AccessControl.sol\":5547:5565  callerConfirmation */\n      dup3\n        /* \"@openzeppelin/contracts/access/AccessControl.sol\":5529:5540  _revokeRole */\n      tag_103\n        /* \"@openzeppelin/contracts/access/AccessControl.sol\":5529:5566  _revokeRole(role, callerConfirmation) */\n      jump\t// in\n    tag_102:\n      pop\n        /* \"@openzeppelin/contracts/access/AccessControl.sol\":5328:5573  function renounceRole(bytes32 role, address callerConfirmation) public virtual {... */\n      pop\n      pop\n      jump\t// out\n        /* \"token/TokenTransfer.sol\":601:679  bytes32 public constant TRANSFER_ADMIN_ROLE = keccak256(\"TRANSFER_ADMIN_ROLE\") */\n    tag_42:\n        /* \"token/TokenTransfer.sol\":647:679  keccak256(\"TRANSFER_ADMIN_ROLE\") */\n      0x915327d54f2c758ad33c35b031b5e89868657ea971cda2b8103c502dc672509c\n        /* \"token/TokenTransfer.sol\":601:679  bytes32 public constant TRANSFER_ADMIN_ROLE = keccak256(\"TRANSFER_ADMIN_ROLE\") */\n      dup2\n      jump\t// out\n        /* \"token/TokenTransfer.sol\":744:791  mapping(address => bool) public supportedTokens */\n    tag_47:\n      mstore(0x20, 0x02)\n      dup1\n      0x00\n      mstore\n      keccak256(0x00, 0x40)\n      0x00\n      swap2\n      pop\n      sload\n      swap1\n      0x0100\n      exp\n      swap1\n      div\n      0xff\n      and\n      dup2\n      jump\t// out\n        /* \"token/TokenTransfer.sol\":4732:4891  function addSupportedToken(address token) external onlyRole(TRANSFER_ADMIN_ROLE) {... */\n    tag_51:\n        /* \"token/TokenTransfer.sol\":647:679  keccak256(\"TRANSFER_ADMIN_ROLE\") */\n      0x915327d54f2c758ad33c35b031b5e89868657ea971cda2b8103c502dc672509c\n        /* \"@openzeppelin/contracts/access/AccessControl.sol\":2464:2480  _checkRole(role) */\n      tag_105\n        /* \"@openzeppelin/contracts/access/AccessControl.sol\":2475:2479  role */\n      dup2\n        /* \"@openzeppelin/contracts/access/AccessControl.sol\":2464:2474  _checkRole */\n      tag_94\n        /* \"@openzeppelin/contracts/access/AccessControl.sol\":2464:2480  _checkRole(role) */\n      jump\t// in\n    tag_105:\n        /* \"token/TokenTransfer.sol\":4848:4852  true */\n      0x01\n        /* \"token/TokenTransfer.sol\":4823:4838  supportedTokens */\n      0x02\n        /* \"token/TokenTransfer.sol\":4823:4845  supportedTokens[token] */\n      0x00\n        /* \"token/TokenTransfer.sol\":4839:4844  token */\n      dup5\n        /* \"token/TokenTransfer.sol\":4823:4845  supportedTokens[token] */\n      0xffffffffffffffffffffffffffffffffffffffff\n      and\n      0xffffffffffffffffffffffffffffffffffffffff\n      and\n      dup2\n      mstore\n      0x20\n      add\n      swap1\n      dup2\n      mstore\n      0x20\n      add\n      0x00\n      keccak256\n      0x00\n        /* \"token/TokenTransfer.sol\":4823:4852  supportedTokens[token] = true */\n      0x0100\n      exp\n      dup2\n      sload\n      dup2\n      0xff\n      mul\n      not\n      and\n      swap1\n      dup4\n      iszero\n      iszero\n      mul\n      or\n      swap1\n      sstore\n      pop\n        /* \"token/TokenTransfer.sol\":4878:4883  token */\n      dup2\n        /* \"token/TokenTransfer.sol\":4867:4884  TokenAdded(token) */\n      0xffffffffffffffffffffffffffffffffffffffff\n      and\n      0x784c8f4dbf0ffedd6e72c76501c545a70f8b203b30a26ce542bf92ba87c248a4\n      mload(0x40)\n      mload(0x40)\n      dup1\n      swap2\n      sub\n      swap1\n      log2\n        /* \"token/TokenTransfer.sol\":4732:4891  function addSupportedToken(address token) external onlyRole(TRANSFER_ADMIN_ROLE) {... */\n      pop\n      pop\n      jump\t// out\n        /* \"token/TokenTransfer.sol\":5029:5194  function removeSupportedToken(address token) external onlyRole(TRANSFER_ADMIN_ROLE) {... */\n    tag_54:\n        /* \"token/TokenTransfer.sol\":647:679  keccak256(\"TRANSFER_ADMIN_ROLE\") */\n      0x915327d54f2c758ad33c35b031b5e89868657ea971cda2b8103c502dc672509c\n        /* \"@openzeppelin/contracts/access/AccessControl.sol\":2464:2480  _checkRole(role) */\n      tag_108\n        /* \"@openzeppelin/contracts/access/AccessControl.sol\":2475:2479  role */\n      dup2\n        /* \"@openzeppelin/contracts/access/AccessControl.sol\":2464:2474  _checkRole */\n      tag_94\n        /* \"@openzeppelin/contracts/access/AccessControl.sol\":2464:2480  _checkRole(role) */\n      jump\t// in\n    tag_108:\n        /* \"token/TokenTransfer.sol\":5148:5153  false */\n      0x00\n        /* \"token/TokenTransfer.sol\":5123:5138  supportedTokens */\n      0x02\n        /* \"token/TokenTransfer.sol\":5123:5145  supportedTokens[token] */\n      0x00\n        /* \"token/TokenTransfer.sol\":5139:5144  token */\n      dup5\n        /* \"token/TokenTransfer.sol\":5123:5145  supportedTokens[token] */\n      0xffffffffffffffffffffffffffffffffffffffff\n      and\n      0xffffffffffffffffffffffffffffffffffffffff\n      and\n      dup2\n      mstore\n      0x20\n      add\n      swap1\n      dup2\n      mstore\n      0x20\n      add\n      0x00\n      keccak256\n      0x00\n        /* \"token/TokenTransfer.sol\":5123:5153  supportedTokens[token] = false */\n      0x0100\n      exp\n      dup2\n      sload\n      dup2\n      0xff\n      mul\n      not\n      and\n      swap1\n      dup4\n      iszero\n      iszero\n      mul\n      or\n      swap1\n      sstore\n      pop\n        /* \"token/TokenTransfer.sol\":5181:5186  token */\n      dup2\n        /* \"token/TokenTransfer.sol\":5168:5187  TokenRemoved(token) */\n      0xffffffffffffffffffffffffffffffffffffffff\n      and\n      0x4c910b69fe65a61f7531b9c5042b2329ca7179c77290aa7e2eb3afa3c8511fd3\n      mload(0x40)\n      mload(0x40)\n      dup1\n      swap2\n      sub\n      swap1\n      log2\n        /* \"token/TokenTransfer.sol\":5029:5194  function removeSupportedToken(address token) external onlyRole(TRANSFER_ADMIN_ROLE) {... */\n      pop\n      pop\n      jump\t// out\n        /* \"@openzeppelin/contracts/access/AccessControl.sol\":2854:2990  function hasRole(bytes32 role, address account) public view virtual returns (bool) {... */\n    tag_57:\n        /* \"@openzeppelin/contracts/access/AccessControl.sol\":2931:2935  bool */\n      0x00\n        /* \"@openzeppelin/contracts/access/AccessControl.sol\":2954:2960  _roles */\n      0x01\n        /* \"@openzeppelin/contracts/access/AccessControl.sol\":2954:2966  _roles[role] */\n      0x00\n        /* \"@openzeppelin/contracts/access/AccessControl.sol\":2961:2965  role */\n      dup5\n        /* \"@openzeppelin/contracts/access/AccessControl.sol\":2954:2966  _roles[role] */\n      dup2\n      mstore\n      0x20\n      add\n      swap1\n      dup2\n      mstore\n      0x20\n      add\n      0x00\n      keccak256\n        /* \"@openzeppelin/contracts/access/AccessControl.sol\":2954:2974  _roles[role].hasRole */\n      0x00\n      add\n        /* \"@openzeppelin/contracts/access/AccessControl.sol\":2954:2983  _roles[role].hasRole[account] */\n      0x00\n        /* \"@openzeppelin/contracts/access/AccessControl.sol\":2975:2982  account */\n      dup4\n        /* \"@openzeppelin/contracts/access/AccessControl.sol\":2954:2983  _roles[role].hasRole[account] */\n      0xffffffffffffffffffffffffffffffffffffffff\n      and\n      0xffffffffffffffffffffffffffffffffffffffff\n      and\n      dup2\n      mstore\n      0x20\n      add\n      swap1\n      dup2\n      mstore\n      0x20\n      add\n      0x00\n      keccak256\n      0x00\n      swap1\n      sload\n      swap1\n      0x0100\n      exp\n      swap1\n      div\n      0xff\n      and\n        /* \"@openzeppelin/contracts/access/AccessControl.sol\":2947:2983  return _roles[role].hasRole[account] */\n      swap1\n      pop\n        /* \"@openzeppelin/contracts/access/AccessControl.sol\":2854:2990  function hasRole(bytes32 role, address account) public view virtual returns (bool) {... */\n      swap3\n      swap2\n      pop\n      pop\n      jump\t// out\n        /* \"token/TokenTransfer.sol\":4444:4600  function allowance(address owner, address spender, address token) external view returns (uint256) {... */\n    tag_62:\n        /* \"token/TokenTransfer.sol\":4533:4540  uint256 */\n      0x00\n        /* \"token/TokenTransfer.sol\":4559:4570  _allowances */\n      0x03\n        /* \"token/TokenTransfer.sol\":4559:4577  _allowances[owner] */\n      0x00\n        /* \"token/TokenTransfer.sol\":4571:4576  owner */\n      dup6\n        /* \"token/TokenTransfer.sol\":4559:4577  _allowances[owner] */\n      0xffffffffffffffffffffffffffffffffffffffff\n      and\n      0xffffffffffffffffffffffffffffffffffffffff\n      and\n      dup2\n      mstore\n      0x20\n      add\n      swap1\n      dup2\n      mstore\n      0x20\n      add\n      0x00\n      keccak256\n        /* \"token/TokenTransfer.sol\":4559:4584  _allowances[owner][token] */\n      0x00\n        /* \"token/TokenTransfer.sol\":4578:4583  token */\n      dup4\n        /* \"token/TokenTransfer.sol\":4559:4584  _allowances[owner][token] */\n      0xffffffffffffffffffffffffffffffffffffffff\n      and\n      0xffffffffffffffffffffffffffffffffffffffff\n      and\n      dup2\n      mstore\n      0x20\n      add\n      swap1\n      dup2\n      mstore\n      0x20\n      add\n      0x00\n      keccak256\n        /* \"token/TokenTransfer.sol\":4559:4593  _allowances[owner][token][spender] */\n      0x00\n        /* \"token/TokenTransfer.sol\":4585:4592  spender */\n      dup5\n        /* \"token/TokenTransfer.sol\":4559:4593  _allowances[owner][token][spender] */\n      0xffffffffffffffffffffffffffffffffffffffff\n      and\n      0xffffffffffffffffffffffffffffffffffffffff\n      and\n      dup2\n      mstore\n      0x20\n      add\n      swap1\n      dup2\n      mstore\n      0x20\n      add\n      0x00\n      keccak256\n      sload\n        /* \"token/TokenTransfer.sol\":4552:4593  return _allowances[owner][token][spender] */\n      swap1\n      pop\n        /* \"token/TokenTransfer.sol\":4444:4600  function allowance(address owner, address spender, address token) external view returns (uint256) {... */\n      swap4\n      swap3\n      pop\n      pop\n      pop\n      jump\t// out\n        /* \"@openzeppelin/contracts/access/AccessControl.sol\":2187:2236  bytes32 public constant DEFAULT_ADMIN_ROLE = 0x00 */\n    tag_66:\n        /* \"@openzeppelin/contracts/access/AccessControl.sol\":2232:2236  0x00 */\n      0x00\n        /* \"@openzeppelin/contracts/access/AccessControl.sol\":2187:2236  bytes32 public constant DEFAULT_ADMIN_ROLE = 0x00 */\n      dup1\n      shl\n      dup2\n      jump\t// out\n        /* \"token/TokenTransfer.sol\":3103:3718  function batchTransferToken(address[] calldata to, address token, uint256[] calldata amounts) external nonReentrant {... */\n    tag_71:\n        /* \"@openzeppelin/contracts/utils/ReentrancyGuard.sol\":2500:2521  _nonReentrantBefore() */\n      tag_113\n        /* \"@openzeppelin/contracts/utils/ReentrancyGuard.sol\":2500:2519  _nonReentrantBefore */\n      tag_114\n        /* \"@openzeppelin/contracts/utils/ReentrancyGuard.sol\":2500:2521  _nonReentrantBefore() */\n      jump\t// in\n    tag_113:\n        /* \"token/TokenTransfer.sol\":3246:3253  amounts */\n      dup2\n      dup2\n        /* \"token/TokenTransfer.sol\":3246:3260  amounts.length */\n      swap1\n      pop\n        /* \"token/TokenTransfer.sol\":3233:3235  to */\n      dup6\n      dup6\n        /* \"token/TokenTransfer.sol\":3233:3242  to.length */\n      swap1\n      pop\n        /* \"token/TokenTransfer.sol\":3233:3260  to.length != amounts.length */\n      eq\n        /* \"token/TokenTransfer.sol\":3229:3290  if (to.length != amounts.length) revert InvalidArrayLengths() */\n      tag_116\n      jumpi\n        /* \"token/TokenTransfer.sol\":3269:3290  InvalidArrayLengths() */\n      mload(0x40)\n      0xa9854bc900000000000000000000000000000000000000000000000000000000\n      dup2\n      mstore\n      0x04\n      add\n      mload(0x40)\n      dup1\n      swap2\n      sub\n      swap1\n      revert\n        /* \"token/TokenTransfer.sol\":3229:3290  if (to.length != amounts.length) revert InvalidArrayLengths() */\n    tag_116:\n        /* \"token/TokenTransfer.sol\":3309:3328  uint256 totalAmount */\n      0x00\n        /* \"token/TokenTransfer.sol\":3347:3356  uint256 i */\n      dup1\n        /* \"token/TokenTransfer.sol\":3342:3437  for (uint256 i = 0; i < amounts.length; i++) {... */\n    tag_117:\n        /* \"token/TokenTransfer.sol\":3366:3373  amounts */\n      dup4\n      dup4\n        /* \"token/TokenTransfer.sol\":3366:3380  amounts.length */\n      swap1\n      pop\n        /* \"token/TokenTransfer.sol\":3362:3363  i */\n      dup2\n        /* \"token/TokenTransfer.sol\":3362:3380  i < amounts.length */\n      lt\n        /* \"token/TokenTransfer.sol\":3342:3437  for (uint256 i = 0; i < amounts.length; i++) {... */\n      iszero\n      tag_118\n      jumpi\n        /* \"token/TokenTransfer.sol\":3416:3423  amounts */\n      dup4\n      dup4\n        /* \"token/TokenTransfer.sol\":3424:3425  i */\n      dup3\n        /* \"token/TokenTransfer.sol\":3416:3426  amounts[i] */\n      dup2\n      dup2\n      lt\n      tag_120\n      jumpi\n      tag_121\n      tag_122\n      jump\t// in\n    tag_121:\n    tag_120:\n      swap1\n      pop\n      0x20\n      mul\n      add\n      calldataload\n        /* \"token/TokenTransfer.sol\":3401:3426  totalAmount += amounts[i] */\n      dup3\n      tag_123\n      swap2\n      swap1\n      tag_124\n      jump\t// in\n    tag_123:\n      swap2\n      pop\n        /* \"token/TokenTransfer.sol\":3382:3385  i++ */\n      dup1\n      dup1\n      0x01\n      add\n      swap2\n      pop\n      pop\n        /* \"token/TokenTransfer.sol\":3342:3437  for (uint256 i = 0; i < amounts.length; i++) {... */\n      jump(tag_117)\n    tag_118:\n      pop\n        /* \"token/TokenTransfer.sol\":3447:3517  IERC20(token).safeTransferFrom(msg.sender, address(this), totalAmount) */\n      tag_125\n        /* \"token/TokenTransfer.sol\":3478:3488  msg.sender */\n      caller\n        /* \"token/TokenTransfer.sol\":3498:3502  this */\n      address\n        /* \"token/TokenTransfer.sol\":3505:3516  totalAmount */\n      dup4\n        /* \"token/TokenTransfer.sol\":3454:3459  token */\n      dup8\n        /* \"token/TokenTransfer.sol\":3447:3477  IERC20(token).safeTransferFrom */\n      0xffffffffffffffffffffffffffffffffffffffff\n      and\n      tag_126\n      swap1\n        /* \"token/TokenTransfer.sol\":3447:3517  IERC20(token).safeTransferFrom(msg.sender, address(this), totalAmount) */\n      swap4\n      swap3\n      swap2\n      swap1\n      0xffffffff\n      and\n      jump\t// in\n    tag_125:\n        /* \"token/TokenTransfer.sol\":3533:3542  uint256 i */\n      0x00\n        /* \"token/TokenTransfer.sol\":3528:3648  for (uint256 i = 0; i < to.length; i++) {... */\n    tag_127:\n        /* \"token/TokenTransfer.sol\":3552:3554  to */\n      dup7\n      dup7\n        /* \"token/TokenTransfer.sol\":3552:3561  to.length */\n      swap1\n      pop\n        /* \"token/TokenTransfer.sol\":3548:3549  i */\n      dup2\n        /* \"token/TokenTransfer.sol\":3548:3561  i < to.length */\n      lt\n        /* \"token/TokenTransfer.sol\":3528:3648  for (uint256 i = 0; i < to.length; i++) {... */\n      iszero\n      tag_128\n      jumpi\n        /* \"token/TokenTransfer.sol\":3582:3637  _transferToken(address(this), to[i], token, amounts[i]) */\n      tag_130\n        /* \"token/TokenTransfer.sol\":3605:3609  this */\n      address\n        /* \"token/TokenTransfer.sol\":3612:3614  to */\n      dup9\n      dup9\n        /* \"token/TokenTransfer.sol\":3615:3616  i */\n      dup5\n        /* \"token/TokenTransfer.sol\":3612:3617  to[i] */\n      dup2\n      dup2\n      lt\n      tag_131\n      jumpi\n      tag_132\n      tag_122\n      jump\t// in\n    tag_132:\n    tag_131:\n      swap1\n      pop\n      0x20\n      mul\n      add\n      0x20\n      dup2\n      add\n      swap1\n      tag_133\n      swap2\n      swap1\n      tag_46\n      jump\t// in\n    tag_133:\n        /* \"token/TokenTransfer.sol\":3619:3624  token */\n      dup8\n        /* \"token/TokenTransfer.sol\":3626:3633  amounts */\n      dup8\n      dup8\n        /* \"token/TokenTransfer.sol\":3634:3635  i */\n      dup7\n        /* \"token/TokenTransfer.sol\":3626:3636  amounts[i] */\n      dup2\n      dup2\n      lt\n      tag_134\n      jumpi\n      tag_135\n      tag_122\n      jump\t// in\n    tag_135:\n    tag_134:\n      swap1\n      pop\n      0x20\n      mul\n      add\n      calldataload\n        /* \"token/TokenTransfer.sol\":3582:3596  _transferToken */\n      tag_136\n        /* \"token/TokenTransfer.sol\":3582:3637  _transferToken(address(this), to[i], token, amounts[i]) */\n      jump\t// in\n    tag_130:\n        /* \"token/TokenTransfer.sol\":3563:3566  i++ */\n      dup1\n      dup1\n      0x01\n      add\n      swap2\n      pop\n      pop\n        /* \"token/TokenTransfer.sol\":3528:3648  for (uint256 i = 0; i < to.length; i++) {... */\n      jump(tag_127)\n    tag_128:\n      pop\n        /* \"token/TokenTransfer.sol\":3696:3701  token */\n      dup4\n        /* \"token/TokenTransfer.sol\":3663:3711  BatchTransferred(msg.sender, to, token, amounts) */\n      0xffffffffffffffffffffffffffffffffffffffff\n      and\n        /* \"token/TokenTransfer.sol\":3680:3690  msg.sender */\n      caller\n        /* \"token/TokenTransfer.sol\":3663:3711  BatchTransferred(msg.sender, to, token, amounts) */\n      0xffffffffffffffffffffffffffffffffffffffff\n      and\n      0x6f48f5cfe672b48c8d014ecf4ecb7cdd8a66519dc4e331f0c7e95f1f2183a810\n        /* \"token/TokenTransfer.sol\":3692:3694  to */\n      dup9\n      dup9\n        /* \"token/TokenTransfer.sol\":3703:3710  amounts */\n      dup8\n      dup8\n        /* \"token/TokenTransfer.sol\":3663:3711  BatchTransferred(msg.sender, to, token, amounts) */\n      mload(0x40)\n      tag_137\n      swap5\n      swap4\n      swap3\n      swap2\n      swap1\n      tag_138\n      jump\t// in\n    tag_137:\n      mload(0x40)\n      dup1\n      swap2\n      sub\n      swap1\n      log3\n        /* \"token/TokenTransfer.sol\":3219:3718  {... */\n      pop\n        /* \"@openzeppelin/contracts/utils/ReentrancyGuard.sol\":2542:2562  _nonReentrantAfter() */\n      tag_139\n        /* \"@openzeppelin/contracts/utils/ReentrancyGuard.sol\":2542:2560  _nonReentrantAfter */\n      tag_140\n        /* \"@openzeppelin/contracts/utils/ReentrancyGuard.sol\":2542:2562  _nonReentrantAfter() */\n      jump\t// in\n    tag_139:\n        /* \"token/TokenTransfer.sol\":3103:3718  function batchTransferToken(address[] calldata to, address token, uint256[] calldata amounts) external nonReentrant {... */\n      pop\n      pop\n      pop\n      pop\n      pop\n      jump\t// out\n        /* \"@openzeppelin/contracts/access/AccessControl.sol\":4642:4780  function revokeRole(bytes32 role, address account) public virtual onlyRole(getRoleAdmin(role)) {... */\n    tag_74:\n        /* \"@openzeppelin/contracts/access/AccessControl.sol\":4717:4735  getRoleAdmin(role) */\n      tag_141\n        /* \"@openzeppelin/contracts/access/AccessControl.sol\":4730:4734  role */\n      dup3\n        /* \"@openzeppelin/contracts/access/AccessControl.sol\":4717:4729  getRoleAdmin */\n      tag_31\n        /* \"@openzeppelin/contracts/access/AccessControl.sol\":4717:4735  getRoleAdmin(role) */\n      jump\t// in\n    tag_141:\n        /* \"@openzeppelin/contracts/access/AccessControl.sol\":2464:2480  _checkRole(role) */\n      tag_143\n        /* \"@openzeppelin/contracts/access/AccessControl.sol\":2475:2479  role */\n      dup2\n        /* \"@openzeppelin/contracts/access/AccessControl.sol\":2464:2474  _checkRole */\n      tag_94\n        /* \"@openzeppelin/contracts/access/AccessControl.sol\":2464:2480  _checkRole(role) */\n      jump\t// in\n    tag_143:\n        /* \"@openzeppelin/contracts/access/AccessControl.sol\":4747:4773  _revokeRole(role, account) */\n      tag_145\n        /* \"@openzeppelin/contracts/access/AccessControl.sol\":4759:4763  role */\n      dup4\n        /* \"@openzeppelin/contracts/access/AccessControl.sol\":4765:4772  account */\n      dup4\n        /* \"@openzeppelin/contracts/access/AccessControl.sol\":4747:4758  _revokeRole */\n      tag_103\n        /* \"@openzeppelin/contracts/access/AccessControl.sol\":4747:4773  _revokeRole(role, account) */\n      jump\t// in\n    tag_145:\n      pop\n        /* \"@openzeppelin/contracts/access/AccessControl.sol\":4642:4780  function revokeRole(bytes32 role, address account) public virtual onlyRole(getRoleAdmin(role)) {... */\n      pop\n      pop\n      pop\n      jump\t// out\n        /* \"token/TokenTransfer.sol\":3979:4186  function setAllowance(address spender, address token, uint256 amount) external {... */\n    tag_78:\n        /* \"token/TokenTransfer.sol\":4110:4116  amount */\n      dup1\n        /* \"token/TokenTransfer.sol\":4068:4079  _allowances */\n      0x03\n        /* \"token/TokenTransfer.sol\":4068:4091  _allowances[msg.sender] */\n      0x00\n        /* \"token/TokenTransfer.sol\":4080:4090  msg.sender */\n      caller\n        /* \"token/TokenTransfer.sol\":4068:4091  _allowances[msg.sender] */\n      0xffffffffffffffffffffffffffffffffffffffff\n      and\n      0xffffffffffffffffffffffffffffffffffffffff\n      and\n      dup2\n      mstore\n      0x20\n      add\n      swap1\n      dup2\n      mstore\n      0x20\n      add\n      0x00\n      keccak256\n        /* \"token/TokenTransfer.sol\":4068:4098  _allowances[msg.sender][token] */\n      0x00\n        /* \"token/TokenTransfer.sol\":4092:4097  token */\n      dup5\n        /* \"token/TokenTransfer.sol\":4068:4098  _allowances[msg.sender][token] */\n      0xffffffffffffffffffffffffffffffffffffffff\n      and\n      0xffffffffffffffffffffffffffffffffffffffff\n      and\n      dup2\n      mstore\n      0x20\n      add\n      swap1\n      dup2\n      mstore\n      0x20\n      add\n      0x00\n      keccak256\n        /* \"token/TokenTransfer.sol\":4068:4107  _allowances[msg.sender][token][spender] */\n      0x00\n        /* \"token/TokenTransfer.sol\":4099:4106  spender */\n      dup6\n        /* \"token/TokenTransfer.sol\":4068:4107  _allowances[msg.sender][token][spender] */\n      0xffffffffffffffffffffffffffffffffffffffff\n      and\n      0xffffffffffffffffffffffffffffffffffffffff\n      and\n      dup2\n      mstore\n      0x20\n      add\n      swap1\n      dup2\n      mstore\n      0x20\n      add\n      0x00\n      keccak256\n        /* \"token/TokenTransfer.sol\":4068:4116  _allowances[msg.sender][token][spender] = amount */\n      dup2\n      swap1\n      sstore\n      pop\n        /* \"token/TokenTransfer.sol\":4165:4170  token */\n      dup2\n        /* \"token/TokenTransfer.sol\":4131:4179  AllowanceSet(msg.sender, spender, token, amount) */\n      0xffffffffffffffffffffffffffffffffffffffff\n      and\n        /* \"token/TokenTransfer.sol\":4156:4163  spender */\n      dup4\n        /* \"token/TokenTransfer.sol\":4131:4179  AllowanceSet(msg.sender, spender, token, amount) */\n      0xffffffffffffffffffffffffffffffffffffffff\n      and\n        /* \"token/TokenTransfer.sol\":4144:4154  msg.sender */\n      caller\n        /* \"token/TokenTransfer.sol\":4131:4179  AllowanceSet(msg.sender, spender, token, amount) */\n      0xffffffffffffffffffffffffffffffffffffffff\n      and\n      0x8a35f50fa7149c607bf92648069a0d9593c88f1e12f1abd0a0481a4a959b0681\n        /* \"token/TokenTransfer.sol\":4172:4178  amount */\n      dup5\n        /* \"token/TokenTransfer.sol\":4131:4179  AllowanceSet(msg.sender, spender, token, amount) */\n      mload(0x40)\n      tag_147\n      swap2\n      swap1\n      tag_64\n      jump\t// in\n    tag_147:\n      mload(0x40)\n      dup1\n      swap2\n      sub\n      swap1\n      log4\n        /* \"token/TokenTransfer.sol\":3979:4186  function setAllowance(address spender, address token, uint256 amount) external {... */\n      pop\n      pop\n      pop\n      jump\t// out\n        /* \"token/TokenTransfer.sol\":2407:2894  function transferTokenFrom(address from, address to, address token, uint256 amount) external nonReentrant {... */\n    tag_82:\n        /* \"@openzeppelin/contracts/utils/ReentrancyGuard.sol\":2500:2521  _nonReentrantBefore() */\n      tag_149\n        /* \"@openzeppelin/contracts/utils/ReentrancyGuard.sol\":2500:2519  _nonReentrantBefore */\n      tag_114\n        /* \"@openzeppelin/contracts/utils/ReentrancyGuard.sol\":2500:2521  _nonReentrantBefore() */\n      jump\t// in\n    tag_149:\n        /* \"token/TokenTransfer.sol\":2523:2547  uint256 currentAllowance */\n      0x00\n        /* \"token/TokenTransfer.sol\":2550:2561  _allowances */\n      0x03\n        /* \"token/TokenTransfer.sol\":2550:2567  _allowances[from] */\n      0x00\n        /* \"token/TokenTransfer.sol\":2562:2566  from */\n      dup7\n        /* \"token/TokenTransfer.sol\":2550:2567  _allowances[from] */\n      0xffffffffffffffffffffffffffffffffffffffff\n      and\n      0xffffffffffffffffffffffffffffffffffffffff\n      and\n      dup2\n      mstore\n      0x20\n      add\n      swap1\n      dup2\n      mstore\n      0x20\n      add\n      0x00\n      keccak256\n        /* \"token/TokenTransfer.sol\":2550:2574  _allowances[from][token] */\n      0x00\n        /* \"token/TokenTransfer.sol\":2568:2573  token */\n      dup5\n        /* \"token/TokenTransfer.sol\":2550:2574  _allowances[from][token] */\n      0xffffffffffffffffffffffffffffffffffffffff\n      and\n      0xffffffffffffffffffffffffffffffffffffffff\n      and\n      dup2\n      mstore\n      0x20\n      add\n      swap1\n      dup2\n      mstore\n      0x20\n      add\n      0x00\n      keccak256\n        /* \"token/TokenTransfer.sol\":2550:2586  _allowances[from][token][msg.sender] */\n      0x00\n        /* \"token/TokenTransfer.sol\":2575:2585  msg.sender */\n      caller\n        /* \"token/TokenTransfer.sol\":2550:2586  _allowances[from][token][msg.sender] */\n      0xffffffffffffffffffffffffffffffffffffffff\n      and\n      0xffffffffffffffffffffffffffffffffffffffff\n      and\n      dup2\n      mstore\n      0x20\n      add\n      swap1\n      dup2\n      mstore\n      0x20\n      add\n      0x00\n      keccak256\n      sload\n        /* \"token/TokenTransfer.sol\":2523:2586  uint256 currentAllowance = _allowances[from][token][msg.sender] */\n      swap1\n      pop\n        /* \"token/TokenTransfer.sol\":2619:2625  amount */\n      dup2\n        /* \"token/TokenTransfer.sol\":2600:2616  currentAllowance */\n      dup2\n        /* \"token/TokenTransfer.sol\":2600:2625  currentAllowance < amount */\n      lt\n        /* \"token/TokenTransfer.sol\":2596:2731  if (currentAllowance < amount) {... */\n      iszero\n      tag_151\n      jumpi\n        /* \"token/TokenTransfer.sol\":2670:2674  from */\n      dup5\n        /* \"token/TokenTransfer.sol\":2676:2686  msg.sender */\n      caller\n        /* \"token/TokenTransfer.sol\":2688:2693  token */\n      dup5\n        /* \"token/TokenTransfer.sol\":2695:2701  amount */\n      dup5\n        /* \"token/TokenTransfer.sol\":2703:2719  currentAllowance */\n      dup5\n        /* \"token/TokenTransfer.sol\":2648:2720  InsufficientAllowance(from, msg.sender, token, amount, currentAllowance) */\n      mload(0x40)\n      0x51750bc700000000000000000000000000000000000000000000000000000000\n      dup2\n      mstore\n      0x04\n      add\n      tag_152\n      swap6\n      swap5\n      swap4\n      swap3\n      swap2\n      swap1\n      tag_153\n      jump\t// in\n    tag_152:\n      mload(0x40)\n      dup1\n      swap2\n      sub\n      swap1\n      revert\n        /* \"token/TokenTransfer.sol\":2596:2731  if (currentAllowance < amount) {... */\n    tag_151:\n        /* \"token/TokenTransfer.sol\":2822:2828  amount */\n      dup2\n        /* \"token/TokenTransfer.sol\":2803:2819  currentAllowance */\n      dup2\n        /* \"token/TokenTransfer.sol\":2803:2828  currentAllowance - amount */\n      sub\n        /* \"token/TokenTransfer.sol\":2764:2775  _allowances */\n      0x03\n        /* \"token/TokenTransfer.sol\":2764:2781  _allowances[from] */\n      0x00\n        /* \"token/TokenTransfer.sol\":2776:2780  from */\n      dup8\n        /* \"token/TokenTransfer.sol\":2764:2781  _allowances[from] */\n      0xffffffffffffffffffffffffffffffffffffffff\n      and\n      0xffffffffffffffffffffffffffffffffffffffff\n      and\n      dup2\n      mstore\n      0x20\n      add\n      swap1\n      dup2\n      mstore\n      0x20\n      add\n      0x00\n      keccak256\n        /* \"token/TokenTransfer.sol\":2764:2788  _allowances[from][token] */\n      0x00\n        /* \"token/TokenTransfer.sol\":2782:2787  token */\n      dup6\n        /* \"token/TokenTransfer.sol\":2764:2788  _allowances[from][token] */\n      0xffffffffffffffffffffffffffffffffffffffff\n      and\n      0xffffffffffffffffffffffffffffffffffffffff\n      and\n      dup2\n      mstore\n      0x20\n      add\n      swap1\n      dup2\n      mstore\n      0x20\n      add\n      0x00\n      keccak256\n        /* \"token/TokenTransfer.sol\":2764:2800  _allowances[from][token][msg.sender] */\n      0x00\n        /* \"token/TokenTransfer.sol\":2789:2799  msg.sender */\n      caller\n        /* \"token/TokenTransfer.sol\":2764:2800  _allowances[from][token][msg.sender] */\n      0xffffffffffffffffffffffffffffffffffffffff\n      and\n      0xffffffffffffffffffffffffffffffffffffffff\n      and\n      dup2\n      mstore\n      0x20\n      add\n      swap1\n      dup2\n      mstore\n      0x20\n      add\n      0x00\n      keccak256\n        /* \"token/TokenTransfer.sol\":2764:2828  _allowances[from][token][msg.sender] = currentAllowance - amount */\n      dup2\n      swap1\n      sstore\n      pop\n        /* \"token/TokenTransfer.sol\":2848:2887  _transferToken(from, to, token, amount) */\n      tag_154\n        /* \"token/TokenTransfer.sol\":2863:2867  from */\n      dup6\n        /* \"token/TokenTransfer.sol\":2869:2871  to */\n      dup6\n        /* \"token/TokenTransfer.sol\":2873:2878  token */\n      dup6\n        /* \"token/TokenTransfer.sol\":2880:2886  amount */\n      dup6\n        /* \"token/TokenTransfer.sol\":2848:2862  _transferToken */\n      tag_136\n        /* \"token/TokenTransfer.sol\":2848:2887  _transferToken(from, to, token, amount) */\n      jump\t// in\n    tag_154:\n        /* \"token/TokenTransfer.sol\":2513:2894  {... */\n      pop\n        /* \"@openzeppelin/contracts/utils/ReentrancyGuard.sol\":2542:2562  _nonReentrantAfter() */\n      tag_155\n        /* \"@openzeppelin/contracts/utils/ReentrancyGuard.sol\":2542:2560  _nonReentrantAfter */\n      tag_140\n        /* \"@openzeppelin/contracts/utils/ReentrancyGuard.sol\":2542:2562  _nonReentrantAfter() */\n      jump\t// in\n    tag_155:\n        /* \"token/TokenTransfer.sol\":2407:2894  function transferTokenFrom(address from, address to, address token, uint256 amount) external nonReentrant {... */\n      pop\n      pop\n      pop\n      pop\n      jump\t// out\n        /* \"token/TokenTransfer.sol\":1989:2139  function transferToken(address to, address token, uint256 amount) external nonReentrant {... */\n    tag_85:\n        /* \"@openzeppelin/contracts/utils/ReentrancyGuard.sol\":2500:2521  _nonReentrantBefore() */\n      tag_157\n        /* \"@openzeppelin/contracts/utils/ReentrancyGuard.sol\":2500:2519  _nonReentrantBefore */\n      tag_114\n        /* \"@openzeppelin/contracts/utils/ReentrancyGuard.sol\":2500:2521  _nonReentrantBefore() */\n      jump\t// in\n    tag_157:\n        /* \"token/TokenTransfer.sol\":2087:2132  _transferToken(msg.sender, to, token, amount) */\n      tag_159\n        /* \"token/TokenTransfer.sol\":2102:2112  msg.sender */\n      caller\n        /* \"token/TokenTransfer.sol\":2114:2116  to */\n      dup5\n        /* \"token/TokenTransfer.sol\":2118:2123  token */\n      dup5\n        /* \"token/TokenTransfer.sol\":2125:2131  amount */\n      dup5\n        /* \"token/TokenTransfer.sol\":2087:2101  _transferToken */\n      tag_136\n        /* \"token/TokenTransfer.sol\":2087:2132  _transferToken(msg.sender, to, token, amount) */\n      jump\t// in\n    tag_159:\n        /* \"@openzeppelin/contracts/utils/ReentrancyGuard.sol\":2542:2562  _nonReentrantAfter() */\n      tag_160\n        /* \"@openzeppelin/contracts/utils/ReentrancyGuard.sol\":2542:2560  _nonReentrantAfter */\n      tag_140\n        /* \"@openzeppelin/contracts/utils/ReentrancyGuard.sol\":2542:2562  _nonReentrantAfter() */\n      jump\t// in\n    tag_160:\n        /* \"token/TokenTransfer.sol\":1989:2139  function transferToken(address to, address token, uint256 amount) external nonReentrant {... */\n      pop\n      pop\n      pop\n      jump\t// out\n        /* \"@openzeppelin/contracts/utils/introspection/ERC165.sol\":763:909  function supportsInterface(bytes4 interfaceId) public view virtual returns (bool) {... */\n    tag_89:\n        /* \"@openzeppelin/contracts/utils/introspection/ERC165.sol\":839:843  bool */\n      0x00\n        /* \"@openzeppelin/contracts/utils/introspection/ERC165.sol\":877:902  type(IERC165).interfaceId */\n      0x01ffc9a700000000000000000000000000000000000000000000000000000000\n        /* \"@openzeppelin/contracts/utils/introspection/ERC165.sol\":862:902  interfaceId == type(IERC165).interfaceId */\n      not(0xffffffffffffffffffffffffffffffffffffffffffffffffffffffff)\n      and\n        /* \"@openzeppelin/contracts/utils/introspection/ERC165.sol\":862:873  interfaceId */\n      dup3\n        /* \"@openzeppelin/contracts/utils/introspection/ERC165.sol\":862:902  interfaceId == type(IERC165).interfaceId */\n      not(0xffffffffffffffffffffffffffffffffffffffffffffffffffffffff)\n      and\n      eq\n        /* \"@openzeppelin/contracts/utils/introspection/ERC165.sol\":855:902  return interfaceId == type(IERC165).interfaceId */\n      swap1\n      pop\n        /* \"@openzeppelin/contracts/utils/introspection/ERC165.sol\":763:909  function supportsInterface(bytes4 interfaceId) public view virtual returns (bool) {... */\n      swap2\n      swap1\n      pop\n      jump\t// out\n        /* \"@openzeppelin/contracts/access/AccessControl.sol\":3199:3302  function _checkRole(bytes32 role) internal view virtual {... */\n    tag_94:\n        /* \"@openzeppelin/contracts/access/AccessControl.sol\":3265:3295  _checkRole(role, _msgSender()) */\n      tag_163\n        /* \"@openzeppelin/contracts/access/AccessControl.sol\":3276:3280  role */\n      dup2\n        /* \"@openzeppelin/contracts/access/AccessControl.sol\":3282:3294  _msgSender() */\n      tag_164\n        /* \"@openzeppelin/contracts/access/AccessControl.sol\":3282:3292  _msgSender */\n      tag_100\n        /* \"@openzeppelin/contracts/access/AccessControl.sol\":3282:3294  _msgSender() */\n      jump\t// in\n    tag_164:\n        /* \"@openzeppelin/contracts/access/AccessControl.sol\":3265:3275  _checkRole */\n      tag_165\n        /* \"@openzeppelin/contracts/access/AccessControl.sol\":3265:3295  _checkRole(role, _msgSender()) */\n      jump\t// in\n    tag_163:\n        /* \"@openzeppelin/contracts/access/AccessControl.sol\":3199:3302  function _checkRole(bytes32 role) internal view virtual {... */\n      pop\n      jump\t// out\n        /* \"@openzeppelin/contracts/access/AccessControl.sol\":6179:6495  function _grantRole(bytes32 role, address account) internal virtual returns (bool) {... */\n    tag_97:\n        /* \"@openzeppelin/contracts/access/AccessControl.sol\":6256:6260  bool */\n      0x00\n        /* \"@openzeppelin/contracts/access/AccessControl.sol\":6277:6299  hasRole(role, account) */\n      tag_167\n        /* \"@openzeppelin/contracts/access/AccessControl.sol\":6285:6289  role */\n      dup4\n        /* \"@openzeppelin/contracts/access/AccessControl.sol\":6291:6298  account */\n      dup4\n        /* \"@openzeppelin/contracts/access/AccessControl.sol\":6277:6284  hasRole */\n      tag_57\n        /* \"@openzeppelin/contracts/access/AccessControl.sol\":6277:6299  hasRole(role, account) */\n      jump\t// in\n    tag_167:\n        /* \"@openzeppelin/contracts/access/AccessControl.sol\":6272:6489  if (!hasRole(role, account)) {... */\n      tag_168\n      jumpi\n        /* \"@openzeppelin/contracts/access/AccessControl.sol\":6347:6351  true */\n      0x01\n        /* \"@openzeppelin/contracts/access/AccessControl.sol\":6315:6321  _roles */\n      dup1\n        /* \"@openzeppelin/contracts/access/AccessControl.sol\":6315:6327  _roles[role] */\n      0x00\n        /* \"@openzeppelin/contracts/access/AccessControl.sol\":6322:6326  role */\n      dup6\n        /* \"@openzeppelin/contracts/access/AccessControl.sol\":6315:6327  _roles[role] */\n      dup2\n      mstore\n      0x20\n      add\n      swap1\n      dup2\n      mstore\n      0x20\n      add\n      0x00\n      keccak256\n        /* \"@openzeppelin/contracts/access/AccessControl.sol\":6315:6335  _roles[role].hasRole */\n      0x00\n      add\n        /* \"@openzeppelin/contracts/access/AccessControl.sol\":6315:6344  _roles[role].hasRole[account] */\n      0x00\n        /* \"@openzeppelin/contracts/access/AccessControl.sol\":6336:6343  account */\n      dup5\n        /* \"@openzeppelin/contracts/access/AccessControl.sol\":6315:6344  _roles[role].hasRole[account] */\n      0xffffffffffffffffffffffffffffffffffffffff\n      and\n      0xffffffffffffffffffffffffffffffffffffffff\n      and\n      dup2\n      mstore\n      0x20\n      add\n      swap1\n      dup2\n      mstore\n      0x20\n      add\n      0x00\n      keccak256\n      0x00\n        /* \"@openzeppelin/contracts/access/AccessControl.sol\":6315:6351  _roles[role].hasRole[account] = true */\n      0x0100\n      exp\n      dup2\n      sload\n      dup2\n      0xff\n      mul\n      not\n      and\n      swap1\n      dup4\n      iszero\n      iszero\n      mul\n      or\n      swap1\n      sstore\n      pop\n        /* \"@openzeppelin/contracts/access/AccessControl.sol\":6397:6409  _msgSender() */\n      tag_169\n        /* \"@openzeppelin/contracts/access/AccessControl.sol\":6397:6407  _msgSender */\n      tag_100\n        /* \"@openzeppelin/contracts/access/AccessControl.sol\":6397:6409  _msgSender() */\n      jump\t// in\n    tag_169:\n        /* \"@openzeppelin/contracts/access/AccessControl.sol\":6370:6410  RoleGranted(role, account, _msgSender()) */\n      0xffffffffffffffffffffffffffffffffffffffff\n      and\n        /* \"@openzeppelin/contracts/access/AccessControl.sol\":6388:6395  account */\n      dup3\n        /* \"@openzeppelin/contracts/access/AccessControl.sol\":6370:6410  RoleGranted(role, account, _msgSender()) */\n      0xffffffffffffffffffffffffffffffffffffffff\n      and\n        /* \"@openzeppelin/contracts/access/AccessControl.sol\":6382:6386  role */\n      dup5\n        /* \"@openzeppelin/contracts/access/AccessControl.sol\":6370:6410  RoleGranted(role, account, _msgSender()) */\n      0x2f8788117e7eff1d82e926ec794901d17c78024a50270940304540a733656f0d\n      mload(0x40)\n      mload(0x40)\n      dup1\n      swap2\n      sub\n      swap1\n      log4\n        /* \"@openzeppelin/contracts/access/AccessControl.sol\":6431:6435  true */\n      0x01\n        /* \"@openzeppelin/contracts/access/AccessControl.sol\":6424:6435  return true */\n      swap1\n      pop\n      jump(tag_166)\n        /* \"@openzeppelin/contracts/access/AccessControl.sol\":6272:6489  if (!hasRole(role, account)) {... */\n    tag_168:\n        /* \"@openzeppelin/contracts/access/AccessControl.sol\":6473:6478  false */\n      0x00\n        /* \"@openzeppelin/contracts/access/AccessControl.sol\":6466:6478  return false */\n      swap1\n      pop\n        /* \"@openzeppelin/contracts/access/AccessControl.sol\":6179:6495  function _grantRole(bytes32 role, address account) internal virtual returns (bool) {... */\n    tag_166:\n      swap3\n      swap2\n      pop\n      pop\n      jump\t// out\n        /* \"@openzeppelin/contracts/utils/Context.sol\":656:752  function _msgSender() internal view virtual returns (address) {... */\n    tag_100:\n        /* \"@openzeppelin/contracts/utils/Context.sol\":709:716  address */\n      0x00\n        /* \"@openzeppelin/contracts/utils/Context.sol\":735:745  msg.sender */\n      caller\n        /* \"@openzeppelin/contracts/utils/Context.sol\":728:745  return msg.sender */\n      swap1\n      pop\n        /* \"@openzeppelin/contracts/utils/Context.sol\":656:752  function _msgSender() internal view virtual returns (address) {... */\n      swap1\n      jump\t// out\n        /* \"@openzeppelin/contracts/access/AccessControl.sol\":6730:7047  function _revokeRole(bytes32 role, address account) internal virtual returns (bool) {... */\n    tag_103:\n        /* \"@openzeppelin/contracts/access/AccessControl.sol\":6808:6812  bool */\n      0x00\n        /* \"@openzeppelin/contracts/access/AccessControl.sol\":6828:6850  hasRole(role, account) */\n      tag_173\n        /* \"@openzeppelin/contracts/access/AccessControl.sol\":6836:6840  role */\n      dup4\n        /* \"@openzeppelin/contracts/access/AccessControl.sol\":6842:6849  account */\n      dup4\n        /* \"@openzeppelin/contracts/access/AccessControl.sol\":6828:6835  hasRole */\n      tag_57\n        /* \"@openzeppelin/contracts/access/AccessControl.sol\":6828:6850  hasRole(role, account) */\n      jump\t// in\n    tag_173:\n        /* \"@openzeppelin/contracts/access/AccessControl.sol\":6824:7041  if (hasRole(role, account)) {... */\n      iszero\n      tag_174\n      jumpi\n        /* \"@openzeppelin/contracts/access/AccessControl.sol\":6898:6903  false */\n      0x00\n        /* \"@openzeppelin/contracts/access/AccessControl.sol\":6866:6872  _roles */\n      0x01\n        /* \"@openzeppelin/contracts/access/AccessControl.sol\":6866:6878  _roles[role] */\n      0x00\n        /* \"@openzeppelin/contracts/access/AccessControl.sol\":6873:6877  role */\n      dup6\n        /* \"@openzeppelin/contracts/access/AccessControl.sol\":6866:6878  _roles[role] */\n      dup2\n      mstore\n      0x20\n      add\n      swap1\n      dup2\n      mstore\n      0x20\n      add\n      0x00\n      keccak256\n        /* \"@openzeppelin/contracts/access/AccessControl.sol\":6866:6886  _roles[role].hasRole */\n      0x00\n      add\n        /* \"@openzeppelin/contracts/access/AccessControl.sol\":6866:6895  _roles[role].hasRole[account] */\n      0x00\n        /* \"@openzeppelin/contracts/access/AccessControl.sol\":6887:6894  account */\n      dup5\n        /* \"@openzeppelin/contracts/access/AccessControl.sol\":6866:6895  _roles[role].hasRole[account] */\n      0xffffffffffffffffffffffffffffffffffffffff\n      and\n      0xffffffffffffffffffffffffffffffffffffffff\n      and\n      dup2\n      mstore\n      0x20\n      add\n      swap1\n      dup2\n      mstore\n      0x20\n      add\n      0x00\n      keccak256\n      0x00\n        /* \"@openzeppelin/contracts/access/AccessControl.sol\":6866:6903  _roles[role].hasRole[account] = false */\n      0x0100\n      exp\n      dup2\n      sload\n      dup2\n      0xff\n      mul\n      not\n      and\n      swap1\n      dup4\n      iszero\n      iszero\n      mul\n      or\n      swap1\n      sstore\n      pop\n        /* \"@openzeppelin/contracts/access/AccessControl.sol\":6949:6961  _msgSender() */\n      tag_175\n        /* \"@openzeppelin/contracts/access/AccessControl.sol\":6949:6959  _msgSender */\n      tag_100\n        /* \"@openzeppelin/contracts/access/AccessControl.sol\":6949:6961  _msgSender() */\n      jump\t// in\n    tag_175:\n        /* \"@openzeppelin/contracts/access/AccessControl.sol\":6922:6962  RoleRevoked(role, account, _msgSender()) */\n      0xffffffffffffffffffffffffffffffffffffffff\n      and\n        /* \"@openzeppelin/contracts/access/AccessControl.sol\":6940:6947  account */\n      dup3\n        /* \"@openzeppelin/contracts/access/AccessControl.sol\":6922:6962  RoleRevoked(role, account, _msgSender()) */\n      0xffffffffffffffffffffffffffffffffffffffff\n      and\n        /* \"@openzeppelin/contracts/access/AccessControl.sol\":6934:6938  role */\n      dup5\n        /* \"@openzeppelin/contracts/access/AccessControl.sol\":6922:6962  RoleRevoked(role, account, _msgSender()) */\n      0xf6391f5c32d9c69d2a47ea670b442974b53935d1edc7fd64eb21e047a839171b\n      mload(0x40)\n      mload(0x40)\n      dup1\n      swap2\n      sub\n      swap1\n      log4\n        /* \"@openzeppelin/contracts/access/AccessControl.sol\":6983:6987  true */\n      0x01\n        /* \"@openzeppelin/contracts/access/AccessControl.sol\":6976:6987  return true */\n      swap1\n      pop\n      jump(tag_172)\n        /* \"@openzeppelin/contracts/access/AccessControl.sol\":6824:7041  if (hasRole(role, account)) {... */\n    tag_174:\n        /* \"@openzeppelin/contracts/access/AccessControl.sol\":7025:7030  false */\n      0x00\n        /* \"@openzeppelin/contracts/access/AccessControl.sol\":7018:7030  return false */\n      swap1\n      pop\n        /* \"@openzeppelin/contracts/access/AccessControl.sol\":6730:7047  function _revokeRole(bytes32 role, address account) internal virtual returns (bool) {... */\n    tag_172:\n      swap3\n      swap2\n      pop\n      pop\n      jump\t// out\n        /* \"@openzeppelin/contracts/utils/ReentrancyGuard.sol\":2575:2882  function _nonReentrantBefore() private {... */\n    tag_114:\n        /* \"@openzeppelin/contracts/utils/ReentrancyGuard.sol\":1899:1900  2 */\n      0x02\n        /* \"@openzeppelin/contracts/utils/ReentrancyGuard.sol\":2702:2709  _status */\n      sload(0x00)\n        /* \"@openzeppelin/contracts/utils/ReentrancyGuard.sol\":2702:2720  _status == ENTERED */\n      sub\n        /* \"@openzeppelin/contracts/utils/ReentrancyGuard.sol\":2698:2784  if (_status == ENTERED) {... */\n      tag_178\n      jumpi\n        /* \"@openzeppelin/contracts/utils/ReentrancyGuard.sol\":2743:2773  ReentrancyGuardReentrantCall() */\n      mload(0x40)\n      0x3ee5aeb500000000000000000000000000000000000000000000000000000000\n      dup2\n      mstore\n      0x04\n      add\n      mload(0x40)\n      dup1\n      swap2\n      sub\n      swap1\n      revert\n        /* \"@openzeppelin/contracts/utils/ReentrancyGuard.sol\":2698:2784  if (_status == ENTERED) {... */\n    tag_178:\n        /* \"@openzeppelin/contracts/utils/ReentrancyGuard.sol\":1899:1900  2 */\n      0x02\n        /* \"@openzeppelin/contracts/utils/ReentrancyGuard.sol\":2858:2865  _status */\n      0x00\n        /* \"@openzeppelin/contracts/utils/ReentrancyGuard.sol\":2858:2875  _status = ENTERED */\n      dup2\n      swap1\n      sstore\n      pop\n        /* \"@openzeppelin/contracts/utils/ReentrancyGuard.sol\":2575:2882  function _nonReentrantBefore() private {... */\n      jump\t// out\n        /* \"@openzeppelin/contracts/token/ERC20/utils/SafeERC20.sol\":1670:1858  function safeTransferFrom(IERC20 token, address from, address to, uint256 value) internal {... */\n    tag_126:\n        /* \"@openzeppelin/contracts/token/ERC20/utils/SafeERC20.sol\":1770:1851  _callOptionalReturn(token, abi.encodeCall(token.transferFrom, (from, to, value))) */\n      tag_180\n        /* \"@openzeppelin/contracts/token/ERC20/utils/SafeERC20.sol\":1790:1795  token */\n      dup5\n        /* \"@openzeppelin/contracts/token/ERC20/utils/SafeERC20.sol\":1812:1817  token */\n      dup6\n        /* \"@openzeppelin/contracts/token/ERC20/utils/SafeERC20.sol\":1812:1830  token.transferFrom */\n      0xffffffffffffffffffffffffffffffffffffffff\n      and\n      0x23b872dd\n        /* \"@openzeppelin/contracts/token/ERC20/utils/SafeERC20.sol\":1833:1837  from */\n      dup7\n        /* \"@openzeppelin/contracts/token/ERC20/utils/SafeERC20.sol\":1839:1841  to */\n      dup7\n        /* \"@openzeppelin/contracts/token/ERC20/utils/SafeERC20.sol\":1843:1848  value */\n      dup7\n        /* \"@openzeppelin/contracts/token/ERC20/utils/SafeERC20.sol\":1797:1850  abi.encodeCall(token.transferFrom, (from, to, value)) */\n      add(0x24, mload(0x40))\n      tag_181\n      swap4\n      swap3\n      swap2\n      swap1\n      tag_182\n      jump\t// in\n    tag_181:\n      mload(0x40)\n      0x20\n      dup2\n      dup4\n      sub\n      sub\n      dup2\n      mstore\n      swap1\n      0x40\n      mstore\n      swap2\n      pop\n      0xe0\n      shl\n      0x20\n      dup3\n      add\n      dup1\n      mload\n      0xffffffffffffffffffffffffffffffffffffffffffffffffffffffff\n      dup4\n      dup2\n      dup4\n      and\n      or\n      dup4\n      mstore\n      pop\n      pop\n      pop\n      pop\n        /* \"@openzeppelin/contracts/token/ERC20/utils/SafeERC20.sol\":1770:1789  _callOptionalReturn */\n      tag_183\n        /* \"@openzeppelin/contracts/token/ERC20/utils/SafeERC20.sol\":1770:1851  _callOptionalReturn(token, abi.encodeCall(token.transferFrom, (from, to, value))) */\n      jump\t// in\n    tag_180:\n        /* \"@openzeppelin/contracts/token/ERC20/utils/SafeERC20.sol\":1670:1858  function safeTransferFrom(IERC20 token, address from, address to, uint256 value) internal {... */\n      pop\n      pop\n      pop\n      pop\n      jump\t// out\n        /* \"token/TokenTransfer.sol\":5438:5839  function _transferToken(address from, address to, address token, uint256 amount) private {... */\n    tag_136:\n        /* \"token/TokenTransfer.sol\":5542:5557  supportedTokens */\n      0x02\n        /* \"token/TokenTransfer.sol\":5542:5564  supportedTokens[token] */\n      0x00\n        /* \"token/TokenTransfer.sol\":5558:5563  token */\n      dup4\n        /* \"token/TokenTransfer.sol\":5542:5564  supportedTokens[token] */\n      0xffffffffffffffffffffffffffffffffffffffff\n      and\n      0xffffffffffffffffffffffffffffffffffffffff\n      and\n      dup2\n      mstore\n      0x20\n      add\n      swap1\n      dup2\n      mstore\n      0x20\n      add\n      0x00\n      keccak256\n      0x00\n      swap1\n      sload\n      swap1\n      0x0100\n      exp\n      swap1\n      div\n      0xff\n      and\n        /* \"token/TokenTransfer.sol\":5537:5596  if (!supportedTokens[token]) revert UnsupportedToken(token) */\n      tag_185\n      jumpi\n        /* \"token/TokenTransfer.sol\":5590:5595  token */\n      dup2\n        /* \"token/TokenTransfer.sol\":5573:5596  UnsupportedToken(token) */\n      mload(0x40)\n      0xbf16aab600000000000000000000000000000000000000000000000000000000\n      dup2\n      mstore\n      0x04\n      add\n      tag_186\n      swap2\n      swap1\n      tag_187\n      jump\t// in\n    tag_186:\n      mload(0x40)\n      dup1\n      swap2\n      sub\n      swap1\n      revert\n        /* \"token/TokenTransfer.sol\":5537:5596  if (!supportedTokens[token]) revert UnsupportedToken(token) */\n    tag_185:\n        /* \"token/TokenTransfer.sol\":5627:5631  this */\n      address\n        /* \"token/TokenTransfer.sol\":5611:5632  from == address(this) */\n      0xffffffffffffffffffffffffffffffffffffffff\n      and\n        /* \"token/TokenTransfer.sol\":5611:5615  from */\n      dup5\n        /* \"token/TokenTransfer.sol\":5611:5632  from == address(this) */\n      0xffffffffffffffffffffffffffffffffffffffff\n      and\n      sub\n        /* \"token/TokenTransfer.sol\":5607:5776  if (from == address(this)) {... */\n      tag_188\n      jumpi\n        /* \"token/TokenTransfer.sol\":5648:5686  IERC20(token).safeTransfer(to, amount) */\n      tag_189\n        /* \"token/TokenTransfer.sol\":5675:5677  to */\n      dup4\n        /* \"token/TokenTransfer.sol\":5679:5685  amount */\n      dup3\n        /* \"token/TokenTransfer.sol\":5655:5660  token */\n      dup5\n        /* \"token/TokenTransfer.sol\":5648:5674  IERC20(token).safeTransfer */\n      0xffffffffffffffffffffffffffffffffffffffff\n      and\n      tag_190\n      swap1\n        /* \"token/TokenTransfer.sol\":5648:5686  IERC20(token).safeTransfer(to, amount) */\n      swap3\n      swap2\n      swap1\n      0xffffffff\n      and\n      jump\t// in\n    tag_189:\n        /* \"token/TokenTransfer.sol\":5607:5776  if (from == address(this)) {... */\n      jump(tag_191)\n    tag_188:\n        /* \"token/TokenTransfer.sol\":5717:5765  IERC20(token).safeTransferFrom(from, to, amount) */\n      tag_192\n        /* \"token/TokenTransfer.sol\":5748:5752  from */\n      dup5\n        /* \"token/TokenTransfer.sol\":5754:5756  to */\n      dup5\n        /* \"token/TokenTransfer.sol\":5758:5764  amount */\n      dup4\n        /* \"token/TokenTransfer.sol\":5724:5729  token */\n      dup6\n        /* \"token/TokenTransfer.sol\":5717:5747  IERC20(token).safeTransferFrom */\n      0xffffffffffffffffffffffffffffffffffffffff\n      and\n      tag_126\n      swap1\n        /* \"token/TokenTransfer.sol\":5717:5765  IERC20(token).safeTransferFrom(from, to, amount) */\n      swap4\n      swap3\n      swap2\n      swap1\n      0xffffffff\n      and\n      jump\t// in\n    tag_192:\n        /* \"token/TokenTransfer.sol\":5607:5776  if (from == address(this)) {... */\n    tag_191:\n        /* \"token/TokenTransfer.sol\":5818:5823  token */\n      dup2\n        /* \"token/TokenTransfer.sol\":5791:5832  TokenTransferred(from, to, token, amount) */\n      0xffffffffffffffffffffffffffffffffffffffff\n      and\n        /* \"token/TokenTransfer.sol\":5814:5816  to */\n      dup4\n        /* \"token/TokenTransfer.sol\":5791:5832  TokenTransferred(from, to, token, amount) */\n      0xffffffffffffffffffffffffffffffffffffffff\n      and\n        /* \"token/TokenTransfer.sol\":5808:5812  from */\n      dup6\n        /* \"token/TokenTransfer.sol\":5791:5832  TokenTransferred(from, to, token, amount) */\n      0xffffffffffffffffffffffffffffffffffffffff\n      and\n      0x9af266b6ca4909f988dc948fb50ad15153abbe525351881bad4fa858be96515c\n        /* \"token/TokenTransfer.sol\":5825:5831  amount */\n      dup5\n        /* \"token/TokenTransfer.sol\":5791:5832  TokenTransferred(from, to, token, amount) */\n      mload(0x40)\n      tag_193\n      swap2\n      swap1\n      tag_64\n      jump\t// in\n    tag_193:\n      mload(0x40)\n      dup1\n      swap2\n      sub\n      swap1\n      log4\n        /* \"token/TokenTransfer.sol\":5438:5839  function _transferToken(address from, address to, address token, uint256 amount) private {... */\n      pop\n      pop\n      pop\n      pop\n      jump\t// out\n        /* \"@openzeppelin/contracts/utils/ReentrancyGuard.sol\":2888:3096  function _nonReentrantAfter() private {... */\n    tag_140:\n        /* \"@openzeppelin/contracts/utils/ReentrancyGuard.sol\":1857:1858  1 */\n      0x01\n        /* \"@openzeppelin/contracts/utils/ReentrancyGuard.sol\":3068:3075  _status */\n      0x00\n        /* \"@openzeppelin/contracts/utils/ReentrancyGuard.sol\":3068:3089  _status = NOT_ENTERED */\n      dup2\n      swap1\n      sstore\n      pop\n        /* \"@openzeppelin/contracts/utils/ReentrancyGuard.sol\":2888:3096  function _nonReentrantAfter() private {... */\n      jump\t// out\n        /* \"@openzeppelin/contracts/access/AccessControl.sol\":3432:3629  function _checkRole(bytes32 role, address account) internal view virtual {... */\n    tag_165:\n        /* \"@openzeppelin/contracts/access/AccessControl.sol\":3520:3542  hasRole(role, account) */\n      tag_196\n        /* \"@openzeppelin/contracts/access/AccessControl.sol\":3528:3532  role */\n      dup3\n        /* \"@openzeppelin/contracts/access/AccessControl.sol\":3534:3541  account */\n      dup3\n        /* \"@openzeppelin/contracts/access/AccessControl.sol\":3520:3527  hasRole */\n      tag_57\n        /* \"@openzeppelin/contracts/access/AccessControl.sol\":3520:3542  hasRole(role, account) */\n      jump\t// in\n    tag_196:\n        /* \"@openzeppelin/contracts/access/AccessControl.sol\":3515:3623  if (!hasRole(role, account)) {... */\n      tag_197\n      jumpi\n        /* \"@openzeppelin/contracts/access/AccessControl.sol\":3598:3605  account */\n      dup1\n        /* \"@openzeppelin/contracts/access/AccessControl.sol\":3607:3611  role */\n      dup3\n        /* \"@openzeppelin/contracts/access/AccessControl.sol\":3565:3612  AccessControlUnauthorizedAccount(account, role) */\n      mload(0x40)\n      0xe2517d3f00000000000000000000000000000000000000000000000000000000\n      dup2\n      mstore\n      0x04\n      add\n      tag_198\n      swap3\n      swap2\n      swap1\n      tag_199\n      jump\t// in\n    tag_198:\n      mload(0x40)\n      dup1\n      swap2\n      sub\n      swap1\n      revert\n        /* \"@openzeppelin/contracts/access/AccessControl.sol\":3515:3623  if (!hasRole(role, account)) {... */\n    tag_197:\n        /* \"@openzeppelin/contracts/access/AccessControl.sol\":3432:3629  function _checkRole(bytes32 role, address account) internal view virtual {... */\n      pop\n      pop\n      jump\t// out\n        /* \"@openzeppelin/contracts/token/ERC20/utils/SafeERC20.sol\":7738:8458  function _callOptionalReturn(IERC20 token, bytes memory data) private {... */\n    tag_183:\n        /* \"@openzeppelin/contracts/token/ERC20/utils/SafeERC20.sol\":7818:7836  uint256 returnSize */\n      0x00\n        /* \"@openzeppelin/contracts/token/ERC20/utils/SafeERC20.sol\":7846:7865  uint256 returnValue */\n      dup1\n        /* \"@openzeppelin/contracts/token/ERC20/utils/SafeERC20.sol\":7984:7988  0x20 */\n      0x20\n        /* \"@openzeppelin/contracts/token/ERC20/utils/SafeERC20.sol\":7981:7982  0 */\n      0x00\n        /* \"@openzeppelin/contracts/token/ERC20/utils/SafeERC20.sol\":7974:7978  data */\n      dup5\n        /* \"@openzeppelin/contracts/token/ERC20/utils/SafeERC20.sol\":7968:7979  mload(data) */\n      mload\n        /* \"@openzeppelin/contracts/token/ERC20/utils/SafeERC20.sol\":7961:7965  0x20 */\n      0x20\n        /* \"@openzeppelin/contracts/token/ERC20/utils/SafeERC20.sol\":7955:7959  data */\n      dup7\n        /* \"@openzeppelin/contracts/token/ERC20/utils/SafeERC20.sol\":7951:7966  add(data, 0x20) */\n      add\n        /* \"@openzeppelin/contracts/token/ERC20/utils/SafeERC20.sol\":7948:7949  0 */\n      0x00\n        /* \"@openzeppelin/contracts/token/ERC20/utils/SafeERC20.sol\":7941:7946  token */\n      dup9\n        /* \"@openzeppelin/contracts/token/ERC20/utils/SafeERC20.sol\":7934:7939  gas() */\n      gas\n        /* \"@openzeppelin/contracts/token/ERC20/utils/SafeERC20.sol\":7929:7989  call(gas(), token, 0, add(data, 0x20), mload(data), 0, 0x20) */\n      call\n        /* \"@openzeppelin/contracts/token/ERC20/utils/SafeERC20.sol\":8041:8048  success */\n      dup1\n        /* \"@openzeppelin/contracts/token/ERC20/utils/SafeERC20.sol\":8031:8207  if iszero(success) {... */\n      tag_201\n      jumpi\n        /* \"@openzeppelin/contracts/token/ERC20/utils/SafeERC20.sol\":8085:8089  0x40 */\n      0x40\n        /* \"@openzeppelin/contracts/token/ERC20/utils/SafeERC20.sol\":8079:8090  mload(0x40) */\n      mload\n        /* \"@openzeppelin/contracts/token/ERC20/utils/SafeERC20.sol\":8130:8146  returndatasize() */\n      returndatasize\n        /* \"@openzeppelin/contracts/token/ERC20/utils/SafeERC20.sol\":8127:8128  0 */\n      0x00\n        /* \"@openzeppelin/contracts/token/ERC20/utils/SafeERC20.sol\":8122:8125  ptr */\n      dup3\n        /* \"@openzeppelin/contracts/token/ERC20/utils/SafeERC20.sol\":8107:8147  returndatacopy(ptr, 0, returndatasize()) */\n      returndatacopy\n        /* \"@openzeppelin/contracts/token/ERC20/utils/SafeERC20.sol\":8176:8192  returndatasize() */\n      returndatasize\n        /* \"@openzeppelin/contracts/token/ERC20/utils/SafeERC20.sol\":8171:8174  ptr */\n      dup2\n        /* \"@openzeppelin/contracts/token/ERC20/utils/SafeERC20.sol\":8164:8193  revert(ptr, returndatasize()) */\n      revert\n        /* \"@openzeppelin/contracts/token/ERC20/utils/SafeERC20.sol\":8031:8207  if iszero(success) {... */\n    tag_201:\n        /* \"@openzeppelin/contracts/token/ERC20/utils/SafeERC20.sol\":8234:8250  returndatasize() */\n      returndatasize\n        /* \"@openzeppelin/contracts/token/ERC20/utils/SafeERC20.sol\":8220:8250  returnSize := returndatasize() */\n      swap3\n      pop\n        /* \"@openzeppelin/contracts/token/ERC20/utils/SafeERC20.sol\":8284:8285  0 */\n      0x00\n        /* \"@openzeppelin/contracts/token/ERC20/utils/SafeERC20.sol\":8278:8286  mload(0) */\n      mload\n        /* \"@openzeppelin/contracts/token/ERC20/utils/SafeERC20.sol\":8263:8286  returnValue := mload(0) */\n      swap2\n      pop\n        /* \"@openzeppelin/contracts/token/ERC20/utils/SafeERC20.sol\":7900:8296  {... */\n      pop\n        /* \"@openzeppelin/contracts/token/ERC20/utils/SafeERC20.sol\":8324:8325  0 */\n      0x00\n        /* \"@openzeppelin/contracts/token/ERC20/utils/SafeERC20.sol\":8310:8320  returnSize */\n      dup3\n        /* \"@openzeppelin/contracts/token/ERC20/utils/SafeERC20.sol\":8310:8325  returnSize == 0 */\n      eq\n        /* \"@openzeppelin/contracts/token/ERC20/utils/SafeERC20.sol\":8310:8378  returnSize == 0 ? address(token).code.length == 0 : returnValue != 1 */\n      tag_202\n      jumpi\n        /* \"@openzeppelin/contracts/token/ERC20/utils/SafeERC20.sol\":8377:8378  1 */\n      0x01\n        /* \"@openzeppelin/contracts/token/ERC20/utils/SafeERC20.sol\":8362:8373  returnValue */\n      dup2\n        /* \"@openzeppelin/contracts/token/ERC20/utils/SafeERC20.sol\":8362:8378  returnValue != 1 */\n      eq\n      iszero\n        /* \"@openzeppelin/contracts/token/ERC20/utils/SafeERC20.sol\":8310:8378  returnSize == 0 ? address(token).code.length == 0 : returnValue != 1 */\n      jump(tag_203)\n    tag_202:\n        /* \"@openzeppelin/contracts/token/ERC20/utils/SafeERC20.sol\":8358:8359  0 */\n      0x00\n        /* \"@openzeppelin/contracts/token/ERC20/utils/SafeERC20.sol\":8336:8341  token */\n      dup5\n        /* \"@openzeppelin/contracts/token/ERC20/utils/SafeERC20.sol\":8328:8354  address(token).code.length */\n      0xffffffffffffffffffffffffffffffffffffffff\n      and\n      extcodesize\n        /* \"@openzeppelin/contracts/token/ERC20/utils/SafeERC20.sol\":8328:8359  address(token).code.length == 0 */\n      eq\n        /* \"@openzeppelin/contracts/token/ERC20/utils/SafeERC20.sol\":8310:8378  returnSize == 0 ? address(token).code.length == 0 : returnValue != 1 */\n    tag_203:\n        /* \"@openzeppelin/contracts/token/ERC20/utils/SafeERC20.sol\":8306:8452  if (returnSize == 0 ? address(token).code.length == 0 : returnValue != 1) {... */\n      iszero\n      tag_204\n      jumpi\n        /* \"@openzeppelin/contracts/token/ERC20/utils/SafeERC20.sol\":8434:8439  token */\n      dup4\n        /* \"@openzeppelin/contracts/token/ERC20/utils/SafeERC20.sol\":8401:8441  SafeERC20FailedOperation(address(token)) */\n      mload(0x40)\n      0x5274afe700000000000000000000000000000000000000000000000000000000\n      dup2\n      mstore\n      0x04\n      add\n      tag_205\n      swap2\n      swap1\n      tag_187\n      jump\t// in\n    tag_205:\n      mload(0x40)\n      dup1\n      swap2\n      sub\n      swap1\n      revert\n        /* \"@openzeppelin/contracts/token/ERC20/utils/SafeERC20.sol\":8306:8452  if (returnSize == 0 ? address(token).code.length == 0 : returnValue != 1) {... */\n    tag_204:\n        /* \"@openzeppelin/contracts/token/ERC20/utils/SafeERC20.sol\":7808:8458  {... */\n      pop\n      pop\n        /* \"@openzeppelin/contracts/token/ERC20/utils/SafeERC20.sol\":7738:8458  function _callOptionalReturn(IERC20 token, bytes memory data) private {... */\n      pop\n      pop\n      jump\t// out\n        /* \"@openzeppelin/contracts/token/ERC20/utils/SafeERC20.sol\":1271:1431  function safeTransfer(IERC20 token, address to, uint256 value) internal {... */\n    tag_190:\n        /* \"@openzeppelin/contracts/token/ERC20/utils/SafeERC20.sol\":1353:1424  _callOptionalReturn(token, abi.encodeCall(token.transfer, (to, value))) */\n      tag_207\n        /* \"@openzeppelin/contracts/token/ERC20/utils/SafeERC20.sol\":1373:1378  token */\n      dup4\n        /* \"@openzeppelin/contracts/token/ERC20/utils/SafeERC20.sol\":1395:1400  token */\n      dup5\n        /* \"@openzeppelin/contracts/token/ERC20/utils/SafeERC20.sol\":1395:1409  token.transfer */\n      0xffffffffffffffffffffffffffffffffffffffff\n      and\n      0xa9059cbb\n        /* \"@openzeppelin/contracts/token/ERC20/utils/SafeERC20.sol\":1412:1414  to */\n      dup6\n        /* \"@openzeppelin/contracts/token/ERC20/utils/SafeERC20.sol\":1416:1421  value */\n      dup6\n        /* \"@openzeppelin/contracts/token/ERC20/utils/SafeERC20.sol\":1380:1423  abi.encodeCall(token.transfer, (to, value)) */\n      add(0x24, mload(0x40))\n      tag_208\n      swap3\n      swap2\n      swap1\n      tag_209\n      jump\t// in\n    tag_208:\n      mload(0x40)\n      0x20\n      dup2\n      dup4\n      sub\n      sub\n      dup2\n      mstore\n      swap1\n      0x40\n      mstore\n      swap2\n      pop\n      0xe0\n      shl\n      0x20\n      dup3\n      add\n      dup1\n      mload\n      0xffffffffffffffffffffffffffffffffffffffffffffffffffffffff\n      dup4\n      dup2\n      dup4\n      and\n      or\n      dup4\n      mstore\n      pop\n      pop\n      pop\n      pop\n        /* \"@openzeppelin/contracts/token/ERC20/utils/SafeERC20.sol\":1353:1372  _callOptionalReturn */\n      tag_183\n        /* \"@openzeppelin/contracts/token/ERC20/utils/SafeERC20.sol\":1353:1424  _callOptionalReturn(token, abi.encodeCall(token.transfer, (to, value))) */\n      jump\t// in\n    tag_207:\n        /* \"@openzeppelin/contracts/token/ERC20/utils/SafeERC20.sol\":1271:1431  function safeTransfer(IERC20 token, address to, uint256 value) internal {... */\n      pop\n      pop\n      pop\n      jump\t// out\n        /* \"#utility.yul\":88:205   */\n    tag_211:\n        /* \"#utility.yul\":197:198   */\n      0x00\n        /* \"#utility.yul\":194:195   */\n      dup1\n        /* \"#utility.yul\":187:199   */\n      revert\n        /* \"#utility.yul\":211:328   */\n    tag_212:\n        /* \"#utility.yul\":320:321   */\n      0x00\n        /* \"#utility.yul\":317:318   */\n      dup1\n        /* \"#utility.yul\":310:322   */\n      revert\n        /* \"#utility.yul\":334:483   */\n    tag_213:\n        /* \"#utility.yul\":370:377   */\n      0x00\n        /* \"#utility.yul\":410:476   */\n      0xffffffff00000000000000000000000000000000000000000000000000000000\n        /* \"#utility.yul\":403:408   */\n      dup3\n        /* \"#utility.yul\":399:477   */\n      and\n        /* \"#utility.yul\":388:477   */\n      swap1\n      pop\n        /* \"#utility.yul\":334:483   */\n      swap2\n      swap1\n      pop\n      jump\t// out\n        /* \"#utility.yul\":489:609   */\n    tag_214:\n        /* \"#utility.yul\":561:584   */\n      tag_254\n        /* \"#utility.yul\":578:583   */\n      dup2\n        /* \"#utility.yul\":561:584   */\n      tag_213\n      jump\t// in\n    tag_254:\n        /* \"#utility.yul\":554:559   */\n      dup2\n        /* \"#utility.yul\":551:585   */\n      eq\n        /* \"#utility.yul\":541:603   */\n      tag_255\n      jumpi\n        /* \"#utility.yul\":599:600   */\n      0x00\n        /* \"#utility.yul\":596:597   */\n      dup1\n        /* \"#utility.yul\":589:601   */\n      revert\n        /* \"#utility.yul\":541:603   */\n    tag_255:\n        /* \"#utility.yul\":489:609   */\n      pop\n      jump\t// out\n        /* \"#utility.yul\":615:752   */\n    tag_215:\n        /* \"#utility.yul\":660:665   */\n      0x00\n        /* \"#utility.yul\":698:704   */\n      dup2\n        /* \"#utility.yul\":685:705   */\n      calldataload\n        /* \"#utility.yul\":676:705   */\n      swap1\n      pop\n        /* \"#utility.yul\":714:746   */\n      tag_257\n        /* \"#utility.yul\":740:745   */\n      dup2\n        /* \"#utility.yul\":714:746   */\n      tag_214\n      jump\t// in\n    tag_257:\n        /* \"#utility.yul\":615:752   */\n      swap3\n      swap2\n      pop\n      pop\n      jump\t// out\n        /* \"#utility.yul\":758:1085   */\n    tag_24:\n        /* \"#utility.yul\":816:822   */\n      0x00\n        /* \"#utility.yul\":865:867   */\n      0x20\n        /* \"#utility.yul\":853:862   */\n      dup3\n        /* \"#utility.yul\":844:851   */\n      dup5\n        /* \"#utility.yul\":840:863   */\n      sub\n        /* \"#utility.yul\":836:868   */\n      slt\n        /* \"#utility.yul\":833:952   */\n      iszero\n      tag_259\n      jumpi\n        /* \"#utility.yul\":871:950   */\n      tag_260\n      tag_211\n      jump\t// in\n    tag_260:\n        /* \"#utility.yul\":833:952   */\n    tag_259:\n        /* \"#utility.yul\":991:992   */\n      0x00\n        /* \"#utility.yul\":1016:1068   */\n      tag_261\n        /* \"#utility.yul\":1060:1067   */\n      dup5\n        /* \"#utility.yul\":1051:1057   */\n      dup3\n        /* \"#utility.yul\":1040:1049   */\n      dup6\n        /* \"#utility.yul\":1036:1058   */\n      add\n        /* \"#utility.yul\":1016:1068   */\n      tag_215\n      jump\t// in\n    tag_261:\n        /* \"#utility.yul\":1006:1068   */\n      swap2\n      pop\n        /* \"#utility.yul\":962:1078   */\n      pop\n        /* \"#utility.yul\":758:1085   */\n      swap3\n      swap2\n      pop\n      pop\n      jump\t// out\n        /* \"#utility.yul\":1091:1181   */\n    tag_216:\n        /* \"#utility.yul\":1125:1132   */\n      0x00\n        /* \"#utility.yul\":1168:1173   */\n      dup2\n        /* \"#utility.yul\":1161:1174   */\n      iszero\n        /* \"#utility.yul\":1154:1175   */\n      iszero\n        /* \"#utility.yul\":1143:1175   */\n      swap1\n      pop\n        /* \"#utility.yul\":1091:1181   */\n      swap2\n      swap1\n      pop\n      jump\t// out\n        /* \"#utility.yul\":1187:1296   */\n    tag_217:\n        /* \"#utility.yul\":1268:1289   */\n      tag_264\n        /* \"#utility.yul\":1283:1288   */\n      dup2\n        /* \"#utility.yul\":1268:1289   */\n      tag_216\n      jump\t// in\n    tag_264:\n        /* \"#utility.yul\":1263:1266   */\n      dup3\n        /* \"#utility.yul\":1256:1290   */\n      mstore\n        /* \"#utility.yul\":1187:1296   */\n      pop\n      pop\n      jump\t// out\n        /* \"#utility.yul\":1302:1512   */\n    tag_27:\n        /* \"#utility.yul\":1389:1393   */\n      0x00\n        /* \"#utility.yul\":1427:1429   */\n      0x20\n        /* \"#utility.yul\":1416:1425   */\n      dup3\n        /* \"#utility.yul\":1412:1430   */\n      add\n        /* \"#utility.yul\":1404:1430   */\n      swap1\n      pop\n        /* \"#utility.yul\":1440:1505   */\n      tag_266\n        /* \"#utility.yul\":1502:1503   */\n      0x00\n        /* \"#utility.yul\":1491:1500   */\n      dup4\n        /* \"#utility.yul\":1487:1504   */\n      add\n        /* \"#utility.yul\":1478:1484   */\n      dup5\n        /* \"#utility.yul\":1440:1505   */\n      tag_217\n      jump\t// in\n    tag_266:\n        /* \"#utility.yul\":1302:1512   */\n      swap3\n      swap2\n      pop\n      pop\n      jump\t// out\n        /* \"#utility.yul\":1518:1595   */\n    tag_218:\n        /* \"#utility.yul\":1555:1562   */\n      0x00\n        /* \"#utility.yul\":1584:1589   */\n      dup2\n        /* \"#utility.yul\":1573:1589   */\n      swap1\n      pop\n        /* \"#utility.yul\":1518:1595   */\n      swap2\n      swap1\n      pop\n      jump\t// out\n        /* \"#utility.yul\":1601:1723   */\n    tag_219:\n        /* \"#utility.yul\":1674:1698   */\n      tag_269\n        /* \"#utility.yul\":1692:1697   */\n      dup2\n        /* \"#utility.yul\":1674:1698   */\n      tag_218\n      jump\t// in\n    tag_269:\n        /* \"#utility.yul\":1667:1672   */\n      dup2\n        /* \"#utility.yul\":1664:1699   */\n      eq\n        /* \"#utility.yul\":1654:1717   */\n      tag_270\n      jumpi\n        /* \"#utility.yul\":1713:1714   */\n      0x00\n        /* \"#utility.yul\":1710:1711   */\n      dup1\n        /* \"#utility.yul\":1703:1715   */\n      revert\n        /* \"#utility.yul\":1654:1717   */\n    tag_270:\n        /* \"#utility.yul\":1601:1723   */\n      pop\n      jump\t// out\n        /* \"#utility.yul\":1729:1868   */\n    tag_220:\n        /* \"#utility.yul\":1775:1780   */\n      0x00\n        /* \"#utility.yul\":1813:1819   */\n      dup2\n        /* \"#utility.yul\":1800:1820   */\n      calldataload\n        /* \"#utility.yul\":1791:1820   */\n      swap1\n      pop\n        /* \"#utility.yul\":1829:1862   */\n      tag_272\n        /* \"#utility.yul\":1856:1861   */\n      dup2\n        /* \"#utility.yul\":1829:1862   */\n      tag_219\n      jump\t// in\n    tag_272:\n        /* \"#utility.yul\":1729:1868   */\n      swap3\n      swap2\n      pop\n      pop\n      jump\t// out\n        /* \"#utility.yul\":1874:2203   */\n    tag_30:\n        /* \"#utility.yul\":1933:1939   */\n      0x00\n        /* \"#utility.yul\":1982:1984   */\n      0x20\n        /* \"#utility.yul\":1970:1979   */\n      dup3\n        /* \"#utility.yul\":1961:1968   */\n      dup5\n        /* \"#utility.yul\":1957:1980   */\n      sub\n        /* \"#utility.yul\":1953:1985   */\n      slt\n        /* \"#utility.yul\":1950:2069   */\n      iszero\n      tag_274\n      jumpi\n        /* \"#utility.yul\":1988:2067   */\n      tag_275\n      tag_211\n      jump\t// in\n    tag_275:\n        /* \"#utility.yul\":1950:2069   */\n    tag_274:\n        /* \"#utility.yul\":2108:2109   */\n      0x00\n        /* \"#utility.yul\":2133:2186   */\n      tag_276\n        /* \"#utility.yul\":2178:2185   */\n      dup5\n        /* \"#utility.yul\":2169:2175   */\n      dup3\n        /* \"#utility.yul\":2158:2167   */\n      dup6\n        /* \"#utility.yul\":2154:2176   */\n      add\n        /* \"#utility.yul\":2133:2186   */\n      tag_220\n      jump\t// in\n    tag_276:\n        /* \"#utility.yul\":2123:2186   */\n      swap2\n      pop\n        /* \"#utility.yul\":2079:2196   */\n      pop\n        /* \"#utility.yul\":1874:2203   */\n      swap3\n      swap2\n      pop\n      pop\n      jump\t// out\n        /* \"#utility.yul\":2209:2327   */\n    tag_221:\n        /* \"#utility.yul\":2296:2320   */\n      tag_278\n        /* \"#utility.yul\":2314:2319   */\n      dup2\n        /* \"#utility.yul\":2296:2320   */\n      tag_218\n      jump\t// in\n    tag_278:\n        /* \"#utility.yul\":2291:2294   */\n      dup3\n        /* \"#utility.yul\":2284:2321   */\n      mstore\n        /* \"#utility.yul\":2209:2327   */\n      pop\n      pop\n      jump\t// out\n        /* \"#utility.yul\":2333:2555   */\n    tag_33:\n        /* \"#utility.yul\":2426:2430   */\n      0x00\n        /* \"#utility.yul\":2464:2466   */\n      0x20\n        /* \"#utility.yul\":2453:2462   */\n      dup3\n        /* \"#utility.yul\":2449:2467   */\n      add\n        /* \"#utility.yul\":2441:2467   */\n      swap1\n      pop\n        /* \"#utility.yul\":2477:2548   */\n      tag_280\n        /* \"#utility.yul\":2545:2546   */\n      0x00\n        /* \"#utility.yul\":2534:2543   */\n      dup4\n        /* \"#utility.yul\":2530:2547   */\n      add\n        /* \"#utility.yul\":2521:2527   */\n      dup5\n        /* \"#utility.yul\":2477:2548   */\n      tag_221\n      jump\t// in\n    tag_280:\n        /* \"#utility.yul\":2333:2555   */\n      swap3\n      swap2\n      pop\n      pop\n      jump\t// out\n        /* \"#utility.yul\":2561:2687   */\n    tag_222:\n        /* \"#utility.yul\":2598:2605   */\n      0x00\n        /* \"#utility.yul\":2638:2680   */\n      0xffffffffffffffffffffffffffffffffffffffff\n        /* \"#utility.yul\":2631:2636   */\n      dup3\n        /* \"#utility.yul\":2627:2681   */\n      and\n        /* \"#utility.yul\":2616:2681   */\n      swap1\n      pop\n        /* \"#utility.yul\":2561:2687   */\n      swap2\n      swap1\n      pop\n      jump\t// out\n        /* \"#utility.yul\":2693:2789   */\n    tag_223:\n        /* \"#utility.yul\":2730:2737   */\n      0x00\n        /* \"#utility.yul\":2759:2783   */\n      tag_283\n        /* \"#utility.yul\":2777:2782   */\n      dup3\n        /* \"#utility.yul\":2759:2783   */\n      tag_222\n      jump\t// in\n    tag_283:\n        /* \"#utility.yul\":2748:2783   */\n      swap1\n      pop\n        /* \"#utility.yul\":2693:2789   */\n      swap2\n      swap1\n      pop\n      jump\t// out\n        /* \"#utility.yul\":2795:2917   */\n    tag_224:\n        /* \"#utility.yul\":2868:2892   */\n      tag_285\n        /* \"#utility.yul\":2886:2891   */\n      dup2\n        /* \"#utility.yul\":2868:2892   */\n      tag_223\n      jump\t// in\n    tag_285:\n        /* \"#utility.yul\":2861:2866   */\n      dup2\n        /* \"#utility.yul\":2858:2893   */\n      eq\n        /* \"#utility.yul\":2848:2911   */\n      tag_286\n      jumpi\n        /* \"#utility.yul\":2907:2908   */\n      0x00\n        /* \"#utility.yul\":2904:2905   */\n      dup1\n        /* \"#utility.yul\":2897:2909   */\n      revert\n        /* \"#utility.yul\":2848:2911   */\n    tag_286:\n        /* \"#utility.yul\":2795:2917   */\n      pop\n      jump\t// out\n        /* \"#utility.yul\":2923:3062   */\n    tag_225:\n        /* \"#utility.yul\":2969:2974   */\n      0x00\n        /* \"#utility.yul\":3007:3013   */\n      dup2\n        /* \"#utility.yul\":2994:3014   */\n      calldataload\n        /* \"#utility.yul\":2985:3014   */\n      swap1\n      pop\n        /* \"#utility.yul\":3023:3056   */\n      tag_288\n        /* \"#utility.yul\":3050:3055   */\n      dup2\n        /* \"#utility.yul\":3023:3056   */\n      tag_224\n      jump\t// in\n    tag_288:\n        /* \"#utility.yul\":2923:3062   */\n      swap3\n      swap2\n      pop\n      pop\n      jump\t// out\n        /* \"#utility.yul\":3068:3542   */\n    tag_36:\n        /* \"#utility.yul\":3136:3142   */\n      0x00\n        /* \"#utility.yul\":3144:3150   */\n      dup1\n        /* \"#utility.yul\":3193:3195   */\n      0x40\n        /* \"#utility.yul\":3181:3190   */\n      dup4\n        /* \"#utility.yul\":3172:3179   */\n      dup6\n        /* \"#utility.yul\":3168:3191   */\n      sub\n        /* \"#utility.yul\":3164:3196   */\n      slt\n        /* \"#utility.yul\":3161:3280   */\n      iszero\n      tag_290\n      jumpi\n        /* \"#utility.yul\":3199:3278   */\n      tag_291\n      tag_211\n      jump\t// in\n    tag_291:\n        /* \"#utility.yul\":3161:3280   */\n    tag_290:\n        /* \"#utility.yul\":3319:3320   */\n      0x00\n        /* \"#utility.yul\":3344:3397   */\n      tag_292\n        /* \"#utility.yul\":3389:3396   */\n      dup6\n        /* \"#utility.yul\":3380:3386   */\n      dup3\n        /* \"#utility.yul\":3369:3378   */\n      dup7\n        /* \"#utility.yul\":3365:3387   */\n      add\n        /* \"#utility.yul\":3344:3397   */\n      tag_220\n      jump\t// in\n    tag_292:\n        /* \"#utility.yul\":3334:3397   */\n      swap3\n      pop\n        /* \"#utility.yul\":3290:3407   */\n      pop\n        /* \"#utility.yul\":3446:3448   */\n      0x20\n        /* \"#utility.yul\":3472:3525   */\n      tag_293\n        /* \"#utility.yul\":3517:3524   */\n      dup6\n        /* \"#utility.yul\":3508:3514   */\n      dup3\n        /* \"#utility.yul\":3497:3506   */\n      dup7\n        /* \"#utility.yul\":3493:3515   */\n      add\n        /* \"#utility.yul\":3472:3525   */\n      tag_225\n      jump\t// in\n    tag_293:\n        /* \"#utility.yul\":3462:3525   */\n      swap2\n      pop\n        /* \"#utility.yul\":3417:3535   */\n      pop\n        /* \"#utility.yul\":3068:3542   */\n      swap3\n      pop\n      swap3\n      swap1\n      pop\n      jump\t// out\n        /* \"#utility.yul\":3548:3877   */\n    tag_46:\n        /* \"#utility.yul\":3607:3613   */\n      0x00\n        /* \"#utility.yul\":3656:3658   */\n      0x20\n        /* \"#utility.yul\":3644:3653   */\n      dup3\n        /* \"#utility.yul\":3635:3642   */\n      dup5\n        /* \"#utility.yul\":3631:3654   */\n      sub\n        /* \"#utility.yul\":3627:3659   */\n      slt\n        /* \"#utility.yul\":3624:3743   */\n      iszero\n      tag_295\n      jumpi\n        /* \"#utility.yul\":3662:3741   */\n      tag_296\n      tag_211\n      jump\t// in\n    tag_296:\n        /* \"#utility.yul\":3624:3743   */\n    tag_295:\n        /* \"#utility.yul\":3782:3783   */\n      0x00\n        /* \"#utility.yul\":3807:3860   */\n      tag_297\n        /* \"#utility.yul\":3852:3859   */\n      dup5\n        /* \"#utility.yul\":3843:3849   */\n      dup3\n        /* \"#utility.yul\":3832:3841   */\n      dup6\n        /* \"#utility.yul\":3828:3850   */\n      add\n        /* \"#utility.yul\":3807:3860   */\n      tag_225\n      jump\t// in\n    tag_297:\n        /* \"#utility.yul\":3797:3860   */\n      swap2\n      pop\n        /* \"#utility.yul\":3753:3870   */\n      pop\n        /* \"#utility.yul\":3548:3877   */\n      swap3\n      swap2\n      pop\n      pop\n      jump\t// out\n        /* \"#utility.yul\":3883:4502   */\n    tag_61:\n        /* \"#utility.yul\":3960:3966   */\n      0x00\n        /* \"#utility.yul\":3968:3974   */\n      dup1\n        /* \"#utility.yul\":3976:3982   */\n      0x00\n        /* \"#utility.yul\":4025:4027   */\n      0x60\n        /* \"#utility.yul\":4013:4022   */\n      dup5\n        /* \"#utility.yul\":4004:4011   */\n      dup7\n        /* \"#utility.yul\":4000:4023   */\n      sub\n        /* \"#utility.yul\":3996:4028   */\n      slt\n        /* \"#utility.yul\":3993:4112   */\n      iszero\n      tag_299\n      jumpi\n        /* \"#utility.yul\":4031:4110   */\n      tag_300\n      tag_211\n      jump\t// in\n    tag_300:\n        /* \"#utility.yul\":3993:4112   */\n    tag_299:\n        /* \"#utility.yul\":4151:4152   */\n      0x00\n        /* \"#utility.yul\":4176:4229   */\n      tag_301\n        /* \"#utility.yul\":4221:4228   */\n      dup7\n        /* \"#utility.yul\":4212:4218   */\n      dup3\n        /* \"#utility.yul\":4201:4210   */\n      dup8\n        /* \"#utility.yul\":4197:4219   */\n      add\n        /* \"#utility.yul\":4176:4229   */\n      tag_225\n      jump\t// in\n    tag_301:\n        /* \"#utility.yul\":4166:4229   */\n      swap4\n      pop\n        /* \"#utility.yul\":4122:4239   */\n      pop\n        /* \"#utility.yul\":4278:4280   */\n      0x20\n        /* \"#utility.yul\":4304:4357   */\n      tag_302\n        /* \"#utility.yul\":4349:4356   */\n      dup7\n        /* \"#utility.yul\":4340:4346   */\n      dup3\n        /* \"#utility.yul\":4329:4338   */\n      dup8\n        /* \"#utility.yul\":4325:4347   */\n      add\n        /* \"#utility.yul\":4304:4357   */\n      tag_225\n      jump\t// in\n    tag_302:\n        /* \"#utility.yul\":4294:4357   */\n      swap3\n      pop\n        /* \"#utility.yul\":4249:4367   */\n      pop\n        /* \"#utility.yul\":4406:4408   */\n      0x40\n        /* \"#utility.yul\":4432:4485   */\n      tag_303\n        /* \"#utility.yul\":4477:4484   */\n      dup7\n        /* \"#utility.yul\":4468:4474   */\n      dup3\n        /* \"#utility.yul\":4457:4466   */\n      dup8\n        /* \"#utility.yul\":4453:4475   */\n      add\n        /* \"#utility.yul\":4432:4485   */\n      tag_225\n      jump\t// in\n    tag_303:\n        /* \"#utility.yul\":4422:4485   */\n      swap2\n      pop\n        /* \"#utility.yul\":4377:4495   */\n      pop\n        /* \"#utility.yul\":3883:4502   */\n      swap3\n      pop\n      swap3\n      pop\n      swap3\n      jump\t// out\n        /* \"#utility.yul\":4508:4585   */\n    tag_226:\n        /* \"#utility.yul\":4545:4552   */\n      0x00\n        /* \"#utility.yul\":4574:4579   */\n      dup2\n        /* \"#utility.yul\":4563:4579   */\n      swap1\n      pop\n        /* \"#utility.yul\":4508:4585   */\n      swap2\n      swap1\n      pop\n      jump\t// out\n        /* \"#utility.yul\":4591:4709   */\n    tag_227:\n        /* \"#utility.yul\":4678:4702   */\n      tag_306\n        /* \"#utility.yul\":4696:4701   */\n      dup2\n        /* \"#utility.yul\":4678:4702   */\n      tag_226\n      jump\t// in\n    tag_306:\n        /* \"#utility.yul\":4673:4676   */\n      dup3\n        /* \"#utility.yul\":4666:4703   */\n      mstore\n        /* \"#utility.yul\":4591:4709   */\n      pop\n      pop\n      jump\t// out\n        /* \"#utility.yul\":4715:4937   */\n    tag_64:\n        /* \"#utility.yul\":4808:4812   */\n      0x00\n        /* \"#utility.yul\":4846:4848   */\n      0x20\n        /* \"#utility.yul\":4835:4844   */\n      dup3\n        /* \"#utility.yul\":4831:4849   */\n      add\n        /* \"#utility.yul\":4823:4849   */\n      swap1\n      pop\n        /* \"#utility.yul\":4859:4930   */\n      tag_308\n        /* \"#utility.yul\":4927:4928   */\n      0x00\n        /* \"#utility.yul\":4916:4925   */\n      dup4\n        /* \"#utility.yul\":4912:4929   */\n      add\n        /* \"#utility.yul\":4903:4909   */\n      dup5\n        /* \"#utility.yul\":4859:4930   */\n      tag_227\n      jump\t// in\n    tag_308:\n        /* \"#utility.yul\":4715:4937   */\n      swap3\n      swap2\n      pop\n      pop\n      jump\t// out\n        /* \"#utility.yul\":4943:5060   */\n    tag_228:\n        /* \"#utility.yul\":5052:5053   */\n      0x00\n        /* \"#utility.yul\":5049:5050   */\n      dup1\n        /* \"#utility.yul\":5042:5054   */\n      revert\n        /* \"#utility.yul\":5066:5183   */\n    tag_229:\n        /* \"#utility.yul\":5175:5176   */\n      0x00\n        /* \"#utility.yul\":5172:5173   */\n      dup1\n        /* \"#utility.yul\":5165:5177   */\n      revert\n        /* \"#utility.yul\":5189:5306   */\n    tag_230:\n        /* \"#utility.yul\":5298:5299   */\n      0x00\n        /* \"#utility.yul\":5295:5296   */\n      dup1\n        /* \"#utility.yul\":5288:5300   */\n      revert\n        /* \"#utility.yul\":5329:5897   */\n    tag_231:\n        /* \"#utility.yul\":5402:5410   */\n      0x00\n        /* \"#utility.yul\":5412:5418   */\n      dup1\n        /* \"#utility.yul\":5462:5465   */\n      dup4\n        /* \"#utility.yul\":5455:5459   */\n      0x1f\n        /* \"#utility.yul\":5447:5453   */\n      dup5\n        /* \"#utility.yul\":5443:5460   */\n      add\n        /* \"#utility.yul\":5439:5466   */\n      slt\n        /* \"#utility.yul\":5429:5551   */\n      tag_313\n      jumpi\n        /* \"#utility.yul\":5470:5549   */\n      tag_314\n      tag_228\n      jump\t// in\n    tag_314:\n        /* \"#utility.yul\":5429:5551   */\n    tag_313:\n        /* \"#utility.yul\":5583:5589   */\n      dup3\n        /* \"#utility.yul\":5570:5590   */\n      calldataload\n        /* \"#utility.yul\":5560:5590   */\n      swap1\n      pop\n        /* \"#utility.yul\":5613:5631   */\n      0xffffffffffffffff\n        /* \"#utility.yul\":5605:5611   */\n      dup2\n        /* \"#utility.yul\":5602:5632   */\n      gt\n        /* \"#utility.yul\":5599:5716   */\n      iszero\n      tag_315\n      jumpi\n        /* \"#utility.yul\":5635:5714   */\n      tag_316\n      tag_229\n      jump\t// in\n    tag_316:\n        /* \"#utility.yul\":5599:5716   */\n    tag_315:\n        /* \"#utility.yul\":5749:5753   */\n      0x20\n        /* \"#utility.yul\":5741:5747   */\n      dup4\n        /* \"#utility.yul\":5737:5754   */\n      add\n        /* \"#utility.yul\":5725:5754   */\n      swap2\n      pop\n        /* \"#utility.yul\":5803:5806   */\n      dup4\n        /* \"#utility.yul\":5795:5799   */\n      0x20\n        /* \"#utility.yul\":5787:5793   */\n      dup3\n        /* \"#utility.yul\":5783:5800   */\n      mul\n        /* \"#utility.yul\":5773:5781   */\n      dup4\n        /* \"#utility.yul\":5769:5801   */\n      add\n        /* \"#utility.yul\":5766:5807   */\n      gt\n        /* \"#utility.yul\":5763:5891   */\n      iszero\n      tag_317\n      jumpi\n        /* \"#utility.yul\":5810:5889   */\n      tag_318\n      tag_230\n      jump\t// in\n    tag_318:\n        /* \"#utility.yul\":5763:5891   */\n    tag_317:\n        /* \"#utility.yul\":5329:5897   */\n      swap3\n      pop\n      swap3\n      swap1\n      pop\n      jump\t// out\n        /* \"#utility.yul\":5920:6488   */\n    tag_232:\n        /* \"#utility.yul\":5993:6001   */\n      0x00\n        /* \"#utility.yul\":6003:6009   */\n      dup1\n        /* \"#utility.yul\":6053:6056   */\n      dup4\n        /* \"#utility.yul\":6046:6050   */\n      0x1f\n        /* \"#utility.yul\":6038:6044   */\n      dup5\n        /* \"#utility.yul\":6034:6051   */\n      add\n        /* \"#utility.yul\":6030:6057   */\n      slt\n        /* \"#utility.yul\":6020:6142   */\n      tag_320\n      jumpi\n        /* \"#utility.yul\":6061:6140   */\n      tag_321\n      tag_228\n      jump\t// in\n    tag_321:\n        /* \"#utility.yul\":6020:6142   */\n    tag_320:\n        /* \"#utility.yul\":6174:6180   */\n      dup3\n        /* \"#utility.yul\":6161:6181   */\n      calldataload\n        /* \"#utility.yul\":6151:6181   */\n      swap1\n      pop\n        /* \"#utility.yul\":6204:6222   */\n      0xffffffffffffffff\n        /* \"#utility.yul\":6196:6202   */\n      dup2\n        /* \"#utility.yul\":6193:6223   */\n      gt\n        /* \"#utility.yul\":6190:6307   */\n      iszero\n      tag_322\n      jumpi\n        /* \"#utility.yul\":6226:6305   */\n      tag_323\n      tag_229\n      jump\t// in\n    tag_323:\n        /* \"#utility.yul\":6190:6307   */\n    tag_322:\n        /* \"#utility.yul\":6340:6344   */\n      0x20\n        /* \"#utility.yul\":6332:6338   */\n      dup4\n        /* \"#utility.yul\":6328:6345   */\n      add\n        /* \"#utility.yul\":6316:6345   */\n      swap2\n      pop\n        /* \"#utility.yul\":6394:6397   */\n      dup4\n        /* \"#utility.yul\":6386:6390   */\n      0x20\n        /* \"#utility.yul\":6378:6384   */\n      dup3\n        /* \"#utility.yul\":6374:6391   */\n      mul\n        /* \"#utility.yul\":6364:6372   */\n      dup4\n        /* \"#utility.yul\":6360:6392   */\n      add\n        /* \"#utility.yul\":6357:6398   */\n      gt\n        /* \"#utility.yul\":6354:6482   */\n      iszero\n      tag_324\n      jumpi\n        /* \"#utility.yul\":6401:6480   */\n      tag_325\n      tag_230\n      jump\t// in\n    tag_325:\n        /* \"#utility.yul\":6354:6482   */\n    tag_324:\n        /* \"#utility.yul\":5920:6488   */\n      swap3\n      pop\n      swap3\n      swap1\n      pop\n      jump\t// out\n        /* \"#utility.yul\":6494:7573   */\n    tag_70:\n        /* \"#utility.yul\":6625:6631   */\n      0x00\n        /* \"#utility.yul\":6633:6639   */\n      dup1\n        /* \"#utility.yul\":6641:6647   */\n      0x00\n        /* \"#utility.yul\":6649:6655   */\n      dup1\n        /* \"#utility.yul\":6657:6663   */\n      0x00\n        /* \"#utility.yul\":6706:6708   */\n      0x60\n        /* \"#utility.yul\":6694:6703   */\n      dup7\n        /* \"#utility.yul\":6685:6692   */\n      dup9\n        /* \"#utility.yul\":6681:6704   */\n      sub\n        /* \"#utility.yul\":6677:6709   */\n      slt\n        /* \"#utility.yul\":6674:6793   */\n      iszero\n      tag_327\n      jumpi\n        /* \"#utility.yul\":6712:6791   */\n      tag_328\n      tag_211\n      jump\t// in\n    tag_328:\n        /* \"#utility.yul\":6674:6793   */\n    tag_327:\n        /* \"#utility.yul\":6860:6861   */\n      0x00\n        /* \"#utility.yul\":6849:6858   */\n      dup7\n        /* \"#utility.yul\":6845:6862   */\n      add\n        /* \"#utility.yul\":6832:6863   */\n      calldataload\n        /* \"#utility.yul\":6890:6908   */\n      0xffffffffffffffff\n        /* \"#utility.yul\":6882:6888   */\n      dup2\n        /* \"#utility.yul\":6879:6909   */\n      gt\n        /* \"#utility.yul\":6876:6993   */\n      iszero\n      tag_329\n      jumpi\n        /* \"#utility.yul\":6912:6991   */\n      tag_330\n      tag_212\n      jump\t// in\n    tag_330:\n        /* \"#utility.yul\":6876:6993   */\n    tag_329:\n        /* \"#utility.yul\":7025:7105   */\n      tag_331\n        /* \"#utility.yul\":7097:7104   */\n      dup9\n        /* \"#utility.yul\":7088:7094   */\n      dup3\n        /* \"#utility.yul\":7077:7086   */\n      dup10\n        /* \"#utility.yul\":7073:7095   */\n      add\n        /* \"#utility.yul\":7025:7105   */\n      tag_231\n      jump\t// in\n    tag_331:\n        /* \"#utility.yul\":7007:7105   */\n      swap6\n      pop\n      swap6\n      pop\n        /* \"#utility.yul\":6803:7115   */\n      pop\n        /* \"#utility.yul\":7154:7156   */\n      0x20\n        /* \"#utility.yul\":7180:7233   */\n      tag_332\n        /* \"#utility.yul\":7225:7232   */\n      dup9\n        /* \"#utility.yul\":7216:7222   */\n      dup3\n        /* \"#utility.yul\":7205:7214   */\n      dup10\n        /* \"#utility.yul\":7201:7223   */\n      add\n        /* \"#utility.yul\":7180:7233   */\n      tag_225\n      jump\t// in\n    tag_332:\n        /* \"#utility.yul\":7170:7233   */\n      swap4\n      pop\n        /* \"#utility.yul\":7125:7243   */\n      pop\n        /* \"#utility.yul\":7310:7312   */\n      0x40\n        /* \"#utility.yul\":7299:7308   */\n      dup7\n        /* \"#utility.yul\":7295:7313   */\n      add\n        /* \"#utility.yul\":7282:7314   */\n      calldataload\n        /* \"#utility.yul\":7341:7359   */\n      0xffffffffffffffff\n        /* \"#utility.yul\":7333:7339   */\n      dup2\n        /* \"#utility.yul\":7330:7360   */\n      gt\n        /* \"#utility.yul\":7327:7444   */\n      iszero\n      tag_333\n      jumpi\n        /* \"#utility.yul\":7363:7442   */\n      tag_334\n      tag_212\n      jump\t// in\n    tag_334:\n        /* \"#utility.yul\":7327:7444   */\n    tag_333:\n        /* \"#utility.yul\":7476:7556   */\n      tag_335\n        /* \"#utility.yul\":7548:7555   */\n      dup9\n        /* \"#utility.yul\":7539:7545   */\n      dup3\n        /* \"#utility.yul\":7528:7537   */\n      dup10\n        /* \"#utility.yul\":7524:7546   */\n      add\n        /* \"#utility.yul\":7476:7556   */\n      tag_232\n      jump\t// in\n    tag_335:\n        /* \"#utility.yul\":7458:7556   */\n      swap3\n      pop\n      swap3\n      pop\n        /* \"#utility.yul\":7253:7566   */\n      pop\n        /* \"#utility.yul\":6494:7573   */\n      swap3\n      swap6\n      pop\n      swap3\n      swap6\n      swap1\n      swap4\n      pop\n      jump\t// out\n        /* \"#utility.yul\":7579:7701   */\n    tag_233:\n        /* \"#utility.yul\":7652:7676   */\n      tag_337\n        /* \"#utility.yul\":7670:7675   */\n      dup2\n        /* \"#utility.yul\":7652:7676   */\n      tag_226\n      jump\t// in\n    tag_337:\n        /* \"#utility.yul\":7645:7650   */\n      dup2\n        /* \"#utility.yul\":7642:7677   */\n      eq\n        /* \"#utility.yul\":7632:7695   */\n      tag_338\n      jumpi\n        /* \"#utility.yul\":7691:7692   */\n      0x00\n        /* \"#utility.yul\":7688:7689   */\n      dup1\n        /* \"#utility.yul\":7681:7693   */\n      revert\n        /* \"#utility.yul\":7632:7695   */\n    tag_338:\n        /* \"#utility.yul\":7579:7701   */\n      pop\n      jump\t// out\n        /* \"#utility.yul\":7707:7846   */\n    tag_234:\n        /* \"#utility.yul\":7753:7758   */\n      0x00\n        /* \"#utility.yul\":7791:7797   */\n      dup2\n        /* \"#utility.yul\":7778:7798   */\n      calldataload\n        /* \"#utility.yul\":7769:7798   */\n      swap1\n      pop\n        /* \"#utility.yul\":7807:7840   */\n      tag_340\n        /* \"#utility.yul\":7834:7839   */\n      dup2\n        /* \"#utility.yul\":7807:7840   */\n      tag_233\n      jump\t// in\n    tag_340:\n        /* \"#utility.yul\":7707:7846   */\n      swap3\n      swap2\n      pop\n      pop\n      jump\t// out\n        /* \"#utility.yul\":7852:8471   */\n    tag_77:\n        /* \"#utility.yul\":7929:7935   */\n      0x00\n        /* \"#utility.yul\":7937:7943   */\n      dup1\n        /* \"#utility.yul\":7945:7951   */\n      0x00\n        /* \"#utility.yul\":7994:7996   */\n      0x60\n        /* \"#utility.yul\":7982:7991   */\n      dup5\n        /* \"#utility.yul\":7973:7980   */\n      dup7\n        /* \"#utility.yul\":7969:7992   */\n      sub\n        /* \"#utility.yul\":7965:7997   */\n      slt\n        /* \"#utility.yul\":7962:8081   */\n      iszero\n      tag_342\n      jumpi\n        /* \"#utility.yul\":8000:8079   */\n      tag_343\n      tag_211\n      jump\t// in\n    tag_343:\n        /* \"#utility.yul\":7962:8081   */\n    tag_342:\n        /* \"#utility.yul\":8120:8121   */\n      0x00\n        /* \"#utility.yul\":8145:8198   */\n      tag_344\n        /* \"#utility.yul\":8190:8197   */\n      dup7\n        /* \"#utility.yul\":8181:8187   */\n      dup3\n        /* \"#utility.yul\":8170:8179   */\n      dup8\n        /* \"#utility.yul\":8166:8188   */\n      add\n        /* \"#utility.yul\":8145:8198   */\n      tag_225\n      jump\t// in\n    tag_344:\n        /* \"#utility.yul\":8135:8198   */\n      swap4\n      pop\n        /* \"#utility.yul\":8091:8208   */\n      pop\n        /* \"#utility.yul\":8247:8249   */\n      0x20\n        /* \"#utility.yul\":8273:8326   */\n      tag_345\n        /* \"#utility.yul\":8318:8325   */\n      dup7\n        /* \"#utility.yul\":8309:8315   */\n      dup3\n        /* \"#utility.yul\":8298:8307   */\n      dup8\n        /* \"#utility.yul\":8294:8316   */\n      add\n        /* \"#utility.yul\":8273:8326   */\n      tag_225\n      jump\t// in\n    tag_345:\n        /* \"#utility.yul\":8263:8326   */\n      swap3\n      pop\n        /* \"#utility.yul\":8218:8336   */\n      pop\n        /* \"#utility.yul\":8375:8377   */\n      0x40\n        /* \"#utility.yul\":8401:8454   */\n      tag_346\n        /* \"#utility.yul\":8446:8453   */\n      dup7\n        /* \"#utility.yul\":8437:8443   */\n      dup3\n        /* \"#utility.yul\":8426:8435   */\n      dup8\n        /* \"#utility.yul\":8422:8444   */\n      add\n        /* \"#utility.yul\":8401:8454   */\n      tag_234\n      jump\t// in\n    tag_346:\n        /* \"#utility.yul\":8391:8454   */\n      swap2\n      pop\n        /* \"#utility.yul\":8346:8464   */\n      pop\n        /* \"#utility.yul\":7852:8471   */\n      swap3\n      pop\n      swap3\n      pop\n      swap3\n      jump\t// out\n        /* \"#utility.yul\":8477:9242   */\n    tag_81:\n        /* \"#utility.yul\":8563:8569   */\n      0x00\n        /* \"#utility.yul\":8571:8577   */\n      dup1\n        /* \"#utility.yul\":8579:8585   */\n      0x00\n        /* \"#utility.yul\":8587:8593   */\n      dup1\n        /* \"#utility.yul\":8636:8639   */\n      0x80\n        /* \"#utility.yul\":8624:8633   */\n      dup6\n        /* \"#utility.yul\":8615:8622   */\n      dup8\n        /* \"#utility.yul\":8611:8634   */\n      sub\n        /* \"#utility.yul\":8607:8640   */\n      slt\n        /* \"#utility.yul\":8604:8724   */\n      iszero\n      tag_348\n      jumpi\n        /* \"#utility.yul\":8643:8722   */\n      tag_349\n      tag_211\n      jump\t// in\n    tag_349:\n        /* \"#utility.yul\":8604:8724   */\n    tag_348:\n        /* \"#utility.yul\":8763:8764   */\n      0x00\n        /* \"#utility.yul\":8788:8841   */\n      tag_350\n        /* \"#utility.yul\":8833:8840   */\n      dup8\n        /* \"#utility.yul\":8824:8830   */\n      dup3\n        /* \"#utility.yul\":8813:8822   */\n      dup9\n        /* \"#utility.yul\":8809:8831   */\n      add\n        /* \"#utility.yul\":8788:8841   */\n      tag_225\n      jump\t// in\n    tag_350:\n        /* \"#utility.yul\":8778:8841   */\n      swap5\n      pop\n        /* \"#utility.yul\":8734:8851   */\n      pop\n        /* \"#utility.yul\":8890:8892   */\n      0x20\n        /* \"#utility.yul\":8916:8969   */\n      tag_351\n        /* \"#utility.yul\":8961:8968   */\n      dup8\n        /* \"#utility.yul\":8952:8958   */\n      dup3\n        /* \"#utility.yul\":8941:8950   */\n      dup9\n        /* \"#utility.yul\":8937:8959   */\n      add\n        /* \"#utility.yul\":8916:8969   */\n      tag_225\n      jump\t// in\n    tag_351:\n        /* \"#utility.yul\":8906:8969   */\n      swap4\n      pop\n        /* \"#utility.yul\":8861:8979   */\n      pop\n        /* \"#utility.yul\":9018:9020   */\n      0x40\n        /* \"#utility.yul\":9044:9097   */\n      tag_352\n        /* \"#utility.yul\":9089:9096   */\n      dup8\n        /* \"#utility.yul\":9080:9086   */\n      dup3\n        /* \"#utility.yul\":9069:9078   */\n      dup9\n        /* \"#utility.yul\":9065:9087   */\n      add\n        /* \"#utility.yul\":9044:9097   */\n      tag_225\n      jump\t// in\n    tag_352:\n        /* \"#utility.yul\":9034:9097   */\n      swap3\n      pop\n        /* \"#utility.yul\":8989:9107   */\n      pop\n        /* \"#utility.yul\":9146:9148   */\n      0x60\n        /* \"#utility.yul\":9172:9225   */\n      tag_353\n        /* \"#utility.yul\":9217:9224   */\n      dup8\n        /* \"#utility.yul\":9208:9214   */\n      dup3\n        /* \"#utility.yul\":9197:9206   */\n      dup9\n        /* \"#utility.yul\":9193:9215   */\n      add\n        /* \"#utility.yul\":9172:9225   */\n      tag_234\n      jump\t// in\n    tag_353:\n        /* \"#utility.yul\":9162:9225   */\n      swap2\n      pop\n        /* \"#utility.yul\":9117:9235   */\n      pop\n        /* \"#utility.yul\":8477:9242   */\n      swap3\n      swap6\n      swap2\n      swap5\n      pop\n      swap3\n      pop\n      jump\t// out\n        /* \"#utility.yul\":9248:9428   */\n    tag_122:\n        /* \"#utility.yul\":9296:9373   */\n      0x4e487b7100000000000000000000000000000000000000000000000000000000\n        /* \"#utility.yul\":9293:9294   */\n      0x00\n        /* \"#utility.yul\":9286:9374   */\n      mstore\n        /* \"#utility.yul\":9393:9397   */\n      0x32\n        /* \"#utility.yul\":9390:9391   */\n      0x04\n        /* \"#utility.yul\":9383:9398   */\n      mstore\n        /* \"#utility.yul\":9417:9421   */\n      0x24\n        /* \"#utility.yul\":9414:9415   */\n      0x00\n        /* \"#utility.yul\":9407:9422   */\n      revert\n        /* \"#utility.yul\":9434:9614   */\n    tag_235:\n        /* \"#utility.yul\":9482:9559   */\n      0x4e487b7100000000000000000000000000000000000000000000000000000000\n        /* \"#utility.yul\":9479:9480   */\n      0x00\n        /* \"#utility.yul\":9472:9560   */\n      mstore\n        /* \"#utility.yul\":9579:9583   */\n      0x11\n        /* \"#utility.yul\":9576:9577   */\n      0x04\n        /* \"#utility.yul\":9569:9584   */\n      mstore\n        /* \"#utility.yul\":9603:9607   */\n      0x24\n        /* \"#utility.yul\":9600:9601   */\n      0x00\n        /* \"#utility.yul\":9593:9608   */\n      revert\n        /* \"#utility.yul\":9620:9811   */\n    tag_124:\n        /* \"#utility.yul\":9660:9663   */\n      0x00\n        /* \"#utility.yul\":9679:9699   */\n      tag_357\n        /* \"#utility.yul\":9697:9698   */\n      dup3\n        /* \"#utility.yul\":9679:9699   */\n      tag_226\n      jump\t// in\n    tag_357:\n        /* \"#utility.yul\":9674:9699   */\n      swap2\n      pop\n        /* \"#utility.yul\":9713:9733   */\n      tag_358\n        /* \"#utility.yul\":9731:9732   */\n      dup4\n        /* \"#utility.yul\":9713:9733   */\n      tag_226\n      jump\t// in\n    tag_358:\n        /* \"#utility.yul\":9708:9733   */\n      swap3\n      pop\n        /* \"#utility.yul\":9756:9757   */\n      dup3\n        /* \"#utility.yul\":9753:9754   */\n      dup3\n        /* \"#utility.yul\":9749:9758   */\n      add\n        /* \"#utility.yul\":9742:9758   */\n      swap1\n      pop\n        /* \"#utility.yul\":9777:9780   */\n      dup1\n        /* \"#utility.yul\":9774:9775   */\n      dup3\n        /* \"#utility.yul\":9771:9781   */\n      gt\n        /* \"#utility.yul\":9768:9804   */\n      iszero\n      tag_359\n      jumpi\n        /* \"#utility.yul\":9784:9802   */\n      tag_360\n      tag_235\n      jump\t// in\n    tag_360:\n        /* \"#utility.yul\":9768:9804   */\n    tag_359:\n        /* \"#utility.yul\":9620:9811   */\n      swap3\n      swap2\n      pop\n      pop\n      jump\t// out\n        /* \"#utility.yul\":9817:10001   */\n    tag_236:\n        /* \"#utility.yul\":9916:9927   */\n      0x00\n        /* \"#utility.yul\":9950:9956   */\n      dup3\n        /* \"#utility.yul\":9945:9948   */\n      dup3\n        /* \"#utility.yul\":9938:9957   */\n      mstore\n        /* \"#utility.yul\":9990:9994   */\n      0x20\n        /* \"#utility.yul\":9985:9988   */\n      dup3\n        /* \"#utility.yul\":9981:9995   */\n      add\n        /* \"#utility.yul\":9966:9995   */\n      swap1\n      pop\n        /* \"#utility.yul\":9817:10001   */\n      swap3\n      swap2\n      pop\n      pop\n      jump\t// out\n        /* \"#utility.yul\":10007:10109   */\n    tag_237:\n        /* \"#utility.yul\":10076:10080   */\n      0x00\n        /* \"#utility.yul\":10099:10102   */\n      dup2\n        /* \"#utility.yul\":10091:10102   */\n      swap1\n      pop\n        /* \"#utility.yul\":10007:10109   */\n      swap2\n      swap1\n      pop\n      jump\t// out\n        /* \"#utility.yul\":10115:10223   */\n    tag_238:\n        /* \"#utility.yul\":10192:10216   */\n      tag_364\n        /* \"#utility.yul\":10210:10215   */\n      dup2\n        /* \"#utility.yul\":10192:10216   */\n      tag_223\n      jump\t// in\n    tag_364:\n        /* \"#utility.yul\":10187:10190   */\n      dup3\n        /* \"#utility.yul\":10180:10217   */\n      mstore\n        /* \"#utility.yul\":10115:10223   */\n      pop\n      pop\n      jump\t// out\n        /* \"#utility.yul\":10229:10408   */\n    tag_239:\n        /* \"#utility.yul\":10298:10308   */\n      0x00\n        /* \"#utility.yul\":10319:10365   */\n      tag_366\n        /* \"#utility.yul\":10361:10364   */\n      dup4\n        /* \"#utility.yul\":10353:10359   */\n      dup4\n        /* \"#utility.yul\":10319:10365   */\n      tag_238\n      jump\t// in\n    tag_366:\n        /* \"#utility.yul\":10397:10401   */\n      0x20\n        /* \"#utility.yul\":10392:10395   */\n      dup4\n        /* \"#utility.yul\":10388:10402   */\n      add\n        /* \"#utility.yul\":10374:10402   */\n      swap1\n      pop\n        /* \"#utility.yul\":10229:10408   */\n      swap3\n      swap2\n      pop\n      pop\n      jump\t// out\n        /* \"#utility.yul\":10414:10536   */\n    tag_240:\n        /* \"#utility.yul\":10466:10471   */\n      0x00\n        /* \"#utility.yul\":10491:10530   */\n      tag_368\n        /* \"#utility.yul\":10526:10528   */\n      0x20\n        /* \"#utility.yul\":10521:10524   */\n      dup5\n        /* \"#utility.yul\":10517:10529   */\n      add\n        /* \"#utility.yul\":10512:10515   */\n      dup5\n        /* \"#utility.yul\":10491:10530   */\n      tag_225\n      jump\t// in\n    tag_368:\n        /* \"#utility.yul\":10482:10530   */\n      swap1\n      pop\n        /* \"#utility.yul\":10414:10536   */\n      swap3\n      swap2\n      pop\n      pop\n      jump\t// out\n        /* \"#utility.yul\":10542:10657   */\n    tag_241:\n        /* \"#utility.yul\":10614:10618   */\n      0x00\n        /* \"#utility.yul\":10646:10650   */\n      0x20\n        /* \"#utility.yul\":10641:10644   */\n      dup3\n        /* \"#utility.yul\":10637:10651   */\n      add\n        /* \"#utility.yul\":10629:10651   */\n      swap1\n      pop\n        /* \"#utility.yul\":10542:10657   */\n      swap2\n      swap1\n      pop\n      jump\t// out\n        /* \"#utility.yul\":10693:11392   */\n    tag_242:\n        /* \"#utility.yul\":10822:10825   */\n      0x00\n        /* \"#utility.yul\":10845:10931   */\n      tag_371\n        /* \"#utility.yul\":10924:10930   */\n      dup4\n        /* \"#utility.yul\":10919:10922   */\n      dup6\n        /* \"#utility.yul\":10845:10931   */\n      tag_236\n      jump\t// in\n    tag_371:\n        /* \"#utility.yul\":10838:10931   */\n      swap4\n      pop\n        /* \"#utility.yul\":10955:11013   */\n      tag_372\n        /* \"#utility.yul\":11007:11012   */\n      dup3\n        /* \"#utility.yul\":10955:11013   */\n      tag_237\n      jump\t// in\n    tag_372:\n        /* \"#utility.yul\":11036:11043   */\n      dup1\n        /* \"#utility.yul\":11067:11068   */\n      0x00\n        /* \"#utility.yul\":11052:11367   */\n    tag_373:\n        /* \"#utility.yul\":11077:11083   */\n      dup6\n        /* \"#utility.yul\":11074:11075   */\n      dup2\n        /* \"#utility.yul\":11071:11084   */\n      lt\n        /* \"#utility.yul\":11052:11367   */\n      iszero\n      tag_375\n      jumpi\n        /* \"#utility.yul\":11147:11189   */\n      tag_376\n        /* \"#utility.yul\":11182:11188   */\n      dup3\n        /* \"#utility.yul\":11173:11180   */\n      dup5\n        /* \"#utility.yul\":11147:11189   */\n      tag_240\n      jump\t// in\n    tag_376:\n        /* \"#utility.yul\":11209:11272   */\n      tag_377\n        /* \"#utility.yul\":11268:11271   */\n      dup9\n        /* \"#utility.yul\":11253:11266   */\n      dup3\n        /* \"#utility.yul\":11209:11272   */\n      tag_239\n      jump\t// in\n    tag_377:\n        /* \"#utility.yul\":11202:11272   */\n      swap8\n      pop\n        /* \"#utility.yul\":11295:11357   */\n      tag_378\n        /* \"#utility.yul\":11350:11356   */\n      dup4\n        /* \"#utility.yul\":11295:11357   */\n      tag_241\n      jump\t// in\n    tag_378:\n        /* \"#utility.yul\":11285:11357   */\n      swap3\n      pop\n        /* \"#utility.yul\":11112:11367   */\n      pop\n        /* \"#utility.yul\":11099:11100   */\n      0x01\n        /* \"#utility.yul\":11096:11097   */\n      dup2\n        /* \"#utility.yul\":11092:11101   */\n      add\n        /* \"#utility.yul\":11087:11101   */\n      swap1\n      pop\n        /* \"#utility.yul\":11052:11367   */\n      jump(tag_373)\n    tag_375:\n        /* \"#utility.yul\":11056:11070   */\n      pop\n        /* \"#utility.yul\":11383:11386   */\n      dup6\n        /* \"#utility.yul\":11376:11386   */\n      swap3\n      pop\n        /* \"#utility.yul\":10827:11392   */\n      pop\n      pop\n        /* \"#utility.yul\":10693:11392   */\n      swap4\n      swap3\n      pop\n      pop\n      pop\n      jump\t// out\n        /* \"#utility.yul\":11398:11582   */\n    tag_243:\n        /* \"#utility.yul\":11497:11508   */\n      0x00\n        /* \"#utility.yul\":11531:11537   */\n      dup3\n        /* \"#utility.yul\":11526:11529   */\n      dup3\n        /* \"#utility.yul\":11519:11538   */\n      mstore\n        /* \"#utility.yul\":11571:11575   */\n      0x20\n        /* \"#utility.yul\":11566:11569   */\n      dup3\n        /* \"#utility.yul\":11562:11576   */\n      add\n        /* \"#utility.yul\":11547:11576   */\n      swap1\n      pop\n        /* \"#utility.yul\":11398:11582   */\n      swap3\n      swap2\n      pop\n      pop\n      jump\t// out\n        /* \"#utility.yul\":11588:11705   */\n    tag_244:\n        /* \"#utility.yul\":11697:11698   */\n      0x00\n        /* \"#utility.yul\":11694:11695   */\n      dup1\n        /* \"#utility.yul\":11687:11699   */\n      revert\n        /* \"#utility.yul\":11711:11810   */\n    tag_245:\n        /* \"#utility.yul\":11796:11802   */\n      dup3\n        /* \"#utility.yul\":11791:11794   */\n      dup2\n        /* \"#utility.yul\":11786:11789   */\n      dup4\n        /* \"#utility.yul\":11773:11803   */\n      calldatacopy\n        /* \"#utility.yul\":11711:11810   */\n      pop\n      pop\n      pop\n      jump\t// out\n        /* \"#utility.yul\":11846:12383   */\n    tag_246:\n        /* \"#utility.yul\":11974:11977   */\n      0x00\n        /* \"#utility.yul\":11995:12081   */\n      tag_383\n        /* \"#utility.yul\":12074:12080   */\n      dup4\n        /* \"#utility.yul\":12069:12072   */\n      dup6\n        /* \"#utility.yul\":11995:12081   */\n      tag_243\n      jump\t// in\n    tag_383:\n        /* \"#utility.yul\":11988:12081   */\n      swap4\n      pop\n        /* \"#utility.yul\":12105:12171   */\n      0x07ffffffffffffffffffffffffffffffffffffffffffffffffffffffffffffff\n        /* \"#utility.yul\":12097:12103   */\n      dup4\n        /* \"#utility.yul\":12094:12172   */\n      gt\n        /* \"#utility.yul\":12091:12256   */\n      iszero\n      tag_384\n      jumpi\n        /* \"#utility.yul\":12175:12254   */\n      tag_385\n      tag_244\n      jump\t// in\n    tag_385:\n        /* \"#utility.yul\":12091:12256   */\n    tag_384:\n        /* \"#utility.yul\":12287:12291   */\n      0x20\n        /* \"#utility.yul\":12279:12285   */\n      dup4\n        /* \"#utility.yul\":12275:12292   */\n      mul\n        /* \"#utility.yul\":12265:12292   */\n      swap3\n      pop\n        /* \"#utility.yul\":12302:12345   */\n      tag_386\n        /* \"#utility.yul\":12338:12344   */\n      dup4\n        /* \"#utility.yul\":12333:12336   */\n      dup6\n        /* \"#utility.yul\":12326:12331   */\n      dup5\n        /* \"#utility.yul\":12302:12345   */\n      tag_245\n      jump\t// in\n    tag_386:\n        /* \"#utility.yul\":12370:12376   */\n      dup3\n        /* \"#utility.yul\":12365:12368   */\n      dup5\n        /* \"#utility.yul\":12361:12377   */\n      add\n        /* \"#utility.yul\":12354:12377   */\n      swap1\n      pop\n        /* \"#utility.yul\":11846:12383   */\n      swap4\n      swap3\n      pop\n      pop\n      pop\n      jump\t// out\n        /* \"#utility.yul\":12389:13063   */\n    tag_138:\n        /* \"#utility.yul\":12630:12634   */\n      0x00\n        /* \"#utility.yul\":12668:12670   */\n      0x40\n        /* \"#utility.yul\":12657:12666   */\n      dup3\n        /* \"#utility.yul\":12653:12671   */\n      add\n        /* \"#utility.yul\":12645:12671   */\n      swap1\n      pop\n        /* \"#utility.yul\":12717:12726   */\n      dup2\n        /* \"#utility.yul\":12711:12715   */\n      dup2\n        /* \"#utility.yul\":12707:12727   */\n      sub\n        /* \"#utility.yul\":12703:12704   */\n      0x00\n        /* \"#utility.yul\":12692:12701   */\n      dup4\n        /* \"#utility.yul\":12688:12705   */\n      add\n        /* \"#utility.yul\":12681:12728   */\n      mstore\n        /* \"#utility.yul\":12745:12863   */\n      tag_388\n        /* \"#utility.yul\":12858:12862   */\n      dup2\n        /* \"#utility.yul\":12849:12855   */\n      dup7\n        /* \"#utility.yul\":12841:12847   */\n      dup9\n        /* \"#utility.yul\":12745:12863   */\n      tag_242\n      jump\t// in\n    tag_388:\n        /* \"#utility.yul\":12737:12863   */\n      swap1\n      pop\n        /* \"#utility.yul\":12910:12919   */\n      dup2\n        /* \"#utility.yul\":12904:12908   */\n      dup2\n        /* \"#utility.yul\":12900:12920   */\n      sub\n        /* \"#utility.yul\":12895:12897   */\n      0x20\n        /* \"#utility.yul\":12884:12893   */\n      dup4\n        /* \"#utility.yul\":12880:12898   */\n      add\n        /* \"#utility.yul\":12873:12921   */\n      mstore\n        /* \"#utility.yul\":12938:13056   */\n      tag_389\n        /* \"#utility.yul\":13051:13055   */\n      dup2\n        /* \"#utility.yul\":13042:13048   */\n      dup5\n        /* \"#utility.yul\":13034:13040   */\n      dup7\n        /* \"#utility.yul\":12938:13056   */\n      tag_246\n      jump\t// in\n    tag_389:\n        /* \"#utility.yul\":12930:13056   */\n      swap1\n      pop\n        /* \"#utility.yul\":12389:13063   */\n      swap6\n      swap5\n      pop\n      pop\n      pop\n      pop\n      pop\n      jump\t// out\n        /* \"#utility.yul\":13069:13187   */\n    tag_247:\n        /* \"#utility.yul\":13156:13180   */\n      tag_391\n        /* \"#utility.yul\":13174:13179   */\n      dup2\n        /* \"#utility.yul\":13156:13180   */\n      tag_223\n      jump\t// in\n    tag_391:\n        /* \"#utility.yul\":13151:13154   */\n      dup3\n        /* \"#utility.yul\":13144:13181   */\n      mstore\n        /* \"#utility.yul\":13069:13187   */\n      pop\n      pop\n      jump\t// out\n        /* \"#utility.yul\":13193:13857   */\n    tag_153:\n        /* \"#utility.yul\":13398:13402   */\n      0x00\n        /* \"#utility.yul\":13436:13439   */\n      0xa0\n        /* \"#utility.yul\":13425:13434   */\n      dup3\n        /* \"#utility.yul\":13421:13440   */\n      add\n        /* \"#utility.yul\":13413:13440   */\n      swap1\n      pop\n        /* \"#utility.yul\":13450:13521   */\n      tag_393\n        /* \"#utility.yul\":13518:13519   */\n      0x00\n        /* \"#utility.yul\":13507:13516   */\n      dup4\n        /* \"#utility.yul\":13503:13520   */\n      add\n        /* \"#utility.yul\":13494:13500   */\n      dup9\n        /* \"#utility.yul\":13450:13521   */\n      tag_247\n      jump\t// in\n    tag_393:\n        /* \"#utility.yul\":13531:13603   */\n      tag_394\n        /* \"#utility.yul\":13599:13601   */\n      0x20\n        /* \"#utility.yul\":13588:13597   */\n      dup4\n        /* \"#utility.yul\":13584:13602   */\n      add\n        /* \"#utility.yul\":13575:13581   */\n      dup8\n        /* \"#utility.yul\":13531:13603   */\n      tag_247\n      jump\t// in\n    tag_394:\n        /* \"#utility.yul\":13613:13685   */\n      tag_395\n        /* \"#utility.yul\":13681:13683   */\n      0x40\n        /* \"#utility.yul\":13670:13679   */\n      dup4\n        /* \"#utility.yul\":13666:13684   */\n      add\n        /* \"#utility.yul\":13657:13663   */\n      dup7\n        /* \"#utility.yul\":13613:13685   */\n      tag_247\n      jump\t// in\n    tag_395:\n        /* \"#utility.yul\":13695:13767   */\n      tag_396\n        /* \"#utility.yul\":13763:13765   */\n      0x60\n        /* \"#utility.yul\":13752:13761   */\n      dup4\n        /* \"#utility.yul\":13748:13766   */\n      add\n        /* \"#utility.yul\":13739:13745   */\n      dup6\n        /* \"#utility.yul\":13695:13767   */\n      tag_227\n      jump\t// in\n    tag_396:\n        /* \"#utility.yul\":13777:13850   */\n      tag_397\n        /* \"#utility.yul\":13845:13848   */\n      0x80\n        /* \"#utility.yul\":13834:13843   */\n      dup4\n        /* \"#utility.yul\":13830:13849   */\n      add\n        /* \"#utility.yul\":13821:13827   */\n      dup5\n        /* \"#utility.yul\":13777:13850   */\n      tag_227\n      jump\t// in\n    tag_397:\n        /* \"#utility.yul\":13193:13857   */\n      swap7\n      swap6\n      pop\n      pop\n      pop\n      pop\n      pop\n      pop\n      jump\t// out\n        /* \"#utility.yul\":13863:14305   */\n    tag_182:\n        /* \"#utility.yul\":14012:14016   */\n      0x00\n        /* \"#utility.yul\":14050:14052   */\n      0x60\n        /* \"#utility.yul\":14039:14048   */\n      dup3\n        /* \"#utility.yul\":14035:14053   */\n      add\n        /* \"#utility.yul\":14027:14053   */\n      swap1\n      pop\n        /* \"#utility.yul\":14063:14134   */\n      tag_399\n        /* \"#utility.yul\":14131:14132   */\n      0x00\n        /* \"#utility.yul\":14120:14129   */\n      dup4\n        /* \"#utility.yul\":14116:14133   */\n      add\n        /* \"#utility.yul\":14107:14113   */\n      dup7\n        /* \"#utility.yul\":14063:14134   */\n      tag_247\n      jump\t// in\n    tag_399:\n        /* \"#utility.yul\":14144:14216   */\n      tag_400\n        /* \"#utility.yul\":14212:14214   */\n      0x20\n        /* \"#utility.yul\":14201:14210   */\n      dup4\n        /* \"#utility.yul\":14197:14215   */\n      add\n        /* \"#utility.yul\":14188:14194   */\n      dup6\n        /* \"#utility.yul\":14144:14216   */\n      tag_247\n      jump\t// in\n    tag_400:\n        /* \"#utility.yul\":14226:14298   */\n      tag_401\n        /* \"#utility.yul\":14294:14296   */\n      0x40\n        /* \"#utility.yul\":14283:14292   */\n      dup4\n        /* \"#utility.yul\":14279:14297   */\n      add\n        /* \"#utility.yul\":14270:14276   */\n      dup5\n        /* \"#utility.yul\":14226:14298   */\n      tag_227\n      jump\t// in\n    tag_401:\n        /* \"#utility.yul\":13863:14305   */\n      swap5\n      swap4\n      pop\n      pop\n      pop\n      pop\n      jump\t// out\n        /* \"#utility.yul\":14311:14533   */\n    tag_187:\n        /* \"#utility.yul\":14404:14408   */\n      0x00\n        /* \"#utility.yul\":14442:14444   */\n      0x20\n        /* \"#utility.yul\":14431:14440   */\n      dup3\n        /* \"#utility.yul\":14427:14445   */\n      add\n        /* \"#utility.yul\":14419:14445   */\n      swap1\n      pop\n        /* \"#utility.yul\":14455:14526   */\n      tag_403\n        /* \"#utility.yul\":14523:14524   */\n      0x00\n        /* \"#utility.yul\":14512:14521   */\n      dup4\n        /* \"#utility.yul\":14508:14525   */\n      add\n        /* \"#utility.yul\":14499:14505   */\n      dup5\n        /* \"#utility.yul\":14455:14526   */\n      tag_247\n      jump\t// in\n    tag_403:\n        /* \"#utility.yul\":14311:14533   */\n      swap3\n      swap2\n      pop\n      pop\n      jump\t// out\n        /* \"#utility.yul\":14539:14871   */\n    tag_199:\n        /* \"#utility.yul\":14660:14664   */\n      0x00\n        /* \"#utility.yul\":14698:14700   */\n      0x40\n        /* \"#utility.yul\":14687:14696   */\n      dup3\n        /* \"#utility.yul\":14683:14701   */\n      add\n        /* \"#utility.yul\":14675:14701   */\n      swap1\n      pop\n        /* \"#utility.yul\":14711:14782   */\n      tag_405\n        /* \"#utility.yul\":14779:14780   */\n      0x00\n        /* \"#utility.yul\":14768:14777   */\n      dup4\n        /* \"#utility.yul\":14764:14781   */\n      add\n        /* \"#utility.yul\":14755:14761   */\n      dup6\n        /* \"#utility.yul\":14711:14782   */\n      tag_247\n      jump\t// in\n    tag_405:\n        /* \"#utility.yul\":14792:14864   */\n      tag_406\n        /* \"#utility.yul\":14860:14862   */\n      0x20\n        /* \"#utility.yul\":14849:14858   */\n      dup4\n        /* \"#utility.yul\":14845:14863   */\n      add\n        /* \"#utility.yul\":14836:14842   */\n      dup5\n        /* \"#utility.yul\":14792:14864   */\n      tag_221\n      jump\t// in\n    tag_406:\n        /* \"#utility.yul\":14539:14871   */\n      swap4\n      swap3\n      pop\n      pop\n      pop\n      jump\t// out\n        /* \"#utility.yul\":14877:15209   */\n    tag_209:\n        /* \"#utility.yul\":14998:15002   */\n      0x00\n        /* \"#utility.yul\":15036:15038   */\n      0x40\n        /* \"#utility.yul\":15025:15034   */\n      dup3\n        /* \"#utility.yul\":15021:15039   */\n      add\n        /* \"#utility.yul\":15013:15039   */\n      swap1\n      pop\n        /* \"#utility.yul\":15049:15120   */\n      tag_408\n        /* \"#utility.yul\":15117:15118   */\n      0x00\n        /* \"#utility.yul\":15106:15115   */\n      dup4\n        /* \"#utility.yul\":15102:15119   */\n      add\n        /* \"#utility.yul\":15093:15099   */\n      dup6\n        /* \"#utility.yul\":15049:15120   */\n      tag_247\n      jump\t// in\n    tag_408:\n        /* \"#utility.yul\":15130:15202   */\n      tag_409\n        /* \"#utility.yul\":15198:15200   */\n      0x20\n        /* \"#utility.yul\":15187:15196   */\n      dup4\n        /* \"#utility.yul\":15183:15201   */\n      add\n        /* \"#utility.yul\":15174:15180   */\n      dup5\n        /* \"#utility.yul\":15130:15202   */\n      tag_227\n      jump\t// in\n    tag_409:\n        /* \"#utility.yul\":14877:15209   */\n      swap4\n      swap3\n      pop\n      pop\n      pop\n      jump\t// out\n\n    auxdata: 0xa2646970667358221220d17d2d94125afbe2af4c737bc2e5c16883b0285dde3a9005d61cd1b342fe547064736f6c634300081a0033\n}\n",
				"bytecode": {
					"linkReferences": {},
					"object": "608060405234801561000f575f80fd5b5060015f819055506100295f801b3361006060201b60201c565b5061005a7f915327d54f2c758ad33c35b031b5e89868657ea971cda2b8103c502dc672509c3361006060201b60201c565b506101c0565b5f610071838361015560201b60201c565b61014b576001805f8581526020019081526020015f205f015f8473ffffffffffffffffffffffffffffffffffffffff1673ffffffffffffffffffffffffffffffffffffffff1681526020019081526020015f205f6101000a81548160ff0219169083151502179055506100e86101b960201b60201c565b73ffffffffffffffffffffffffffffffffffffffff168273ffffffffffffffffffffffffffffffffffffffff16847f2f8788117e7eff1d82e926ec794901d17c78024a50270940304540a733656f0d60405160405180910390a46001905061014f565b5f90505b92915050565b5f60015f8481526020019081526020015f205f015f8373ffffffffffffffffffffffffffffffffffffffff1673ffffffffffffffffffffffffffffffffffffffff1681526020019081526020015f205f9054906101000a900460ff16905092915050565b5f33905090565b611a4c806101cd5f395ff3fe608060405234801561000f575f80fd5b50600436106100fe575f3560e01c806391d1485411610095578063d547741f11610064578063d547741f146102ba578063da46098c146102d6578063e5994905146102f2578063f5537ede1461030e576100fe565b806391d1485414610220578063927da10514610250578063a217fddf14610280578063cdb33b811461029e576100fe565b806368a37ae8116100d157806368a37ae81461019a57806368c4ac26146101b85780636d69fcaf146101e85780637631919014610204576100fe565b806301ffc9a714610102578063248a9ca3146101325780632f2ff15d1461016257806336568abe1461017e575b5f80fd5b61011c600480360381019061011791906112d3565b61032a565b6040516101299190611318565b60405180910390f35b61014c60048036038101906101479190611364565b6103a3565b604051610159919061139e565b60405180910390f35b61017c60048036038101906101779190611411565b6103c0565b005b61019860048036038101906101939190611411565b6103e2565b005b6101a261045d565b6040516101af919061139e565b60405180910390f35b6101d260048036038101906101cd919061144f565b610481565b6040516101df9190611318565b60405180910390f35b61020260048036038101906101fd919061144f565b61049e565b005b61021e6004803603810190610219919061144f565b610564565b005b61023a60048036038101906102359190611411565b610629565b6040516102479190611318565b60405180910390f35b61026a6004803603810190610265919061147a565b61068d565b60405161027791906114e2565b60405180910390f35b61028861074b565b604051610295919061139e565b60405180910390f35b6102b860048036038101906102b391906115b1565b610751565b005b6102d460048036038101906102cf9190611411565b6108ea565b005b6102f060048036038101906102eb919061166c565b61090c565b005b61030c600480360381019061030791906116bc565b610a45565b005b6103286004803603810190610323919061166c565b610c26565b005b5f7f7965db0b000000000000000000000000000000000000000000000000000000007bffffffffffffffffffffffffffffffffffffffffffffffffffffffff1916827bffffffffffffffffffffffffffffffffffffffffffffffffffffffff1916148061039c575061039b82610c47565b5b9050919050565b5f60015f8381526020019081526020015f20600101549050919050565b6103c9826103a3565b6103d281610cb0565b6103dc8383610cc4565b50505050565b6103ea610dad565b73ffffffffffffffffffffffffffffffffffffffff168173ffffffffffffffffffffffffffffffffffffffff161461044e576040517f6697b23200000000000000000000000000000000000000000000000000000000815260040160405180910390fd5b6104588282610db4565b505050565b7f915327d54f2c758ad33c35b031b5e89868657ea971cda2b8103c502dc672509c81565b6002602052805f5260405f205f915054906101000a900460ff1681565b7f915327d54f2c758ad33c35b031b5e89868657ea971cda2b8103c502dc672509c6104c881610cb0565b600160025f8473ffffffffffffffffffffffffffffffffffffffff1673ffffffffffffffffffffffffffffffffffffffff1681526020019081526020015f205f6101000a81548160ff0219169083151502179055508173ffffffffffffffffffffffffffffffffffffffff167f784c8f4dbf0ffedd6e72c76501c545a70f8b203b30a26ce542bf92ba87c248a460405160405180910390a25050565b7f915327d54f2c758ad33c35b031b5e89868657ea971cda2b8103c502dc672509c61058e81610cb0565b5f60025f8473ffffffffffffffffffffffffffffffffffffffff1673ffffffffffffffffffffffffffffffffffffffff1681526020019081526020015f205f6101000a81548160ff0219169083151502179055508173ffffffffffffffffffffffffffffffffffffffff167f4c910b69fe65a61f7531b9c5042b2329ca7179c77290aa7e2eb3afa3c8511fd360405160405180910390a25050565b5f60015f8481526020019081526020015f205f015f8373ffffffffffffffffffffffffffffffffffffffff1673ffffffffffffffffffffffffffffffffffffffff1681526020019081526020015f205f9054906101000a900460ff16905092915050565b5f60035f8573ffffffffffffffffffffffffffffffffffffffff1673ffffffffffffffffffffffffffffffffffffffff1681526020019081526020015f205f8373ffffffffffffffffffffffffffffffffffffffff1673ffffffffffffffffffffffffffffffffffffffff1681526020019081526020015f205f8473ffffffffffffffffffffffffffffffffffffffff1673ffffffffffffffffffffffffffffffffffffffff1681526020019081526020015f205490509392505050565b5f801b81565b610759610e9e565b818190508585905014610798576040517fa9854bc900000000000000000000000000000000000000000000000000000000815260040160405180910390fd5b5f805b838390508110156107da578383828181106107b9576107b8611720565b5b90506020020135826107cb919061177a565b9150808060010191505061079b565b506108083330838773ffffffffffffffffffffffffffffffffffffffff16610ee2909392919063ffffffff16565b5f5b8686905081101561086e576108613088888481811061082c5761082b611720565b5b9050602002016020810190610841919061144f565b8787878681811061085557610854611720565b5b90506020020135610f64565b808060010191505061080a565b508373ffffffffffffffffffffffffffffffffffffffff163373ffffffffffffffffffffffffffffffffffffffff167f6f48f5cfe672b48c8d014ecf4ecb7cdd8a66519dc4e331f0c7e95f1f2183a810888887876040516108d294939291906118e1565b60405180910390a3506108e3611102565b5050505050565b6108f3826103a3565b6108fc81610cb0565b6109068383610db4565b50505050565b8060035f3373ffffffffffffffffffffffffffffffffffffffff1673ffffffffffffffffffffffffffffffffffffffff1681526020019081526020015f205f8473ffffffffffffffffffffffffffffffffffffffff1673ffffffffffffffffffffffffffffffffffffffff1681526020019081526020015f205f8573ffffffffffffffffffffffffffffffffffffffff1673ffffffffffffffffffffffffffffffffffffffff1681526020019081526020015f20819055508173ffffffffffffffffffffffffffffffffffffffff168373ffffffffffffffffffffffffffffffffffffffff163373ffffffffffffffffffffffffffffffffffffffff167f8a35f50fa7149c607bf92648069a0d9593c88f1e12f1abd0a0481a4a959b068184604051610a3891906114e2565b60405180910390a4505050565b610a4d610e9e565b5f60035f8673ffffffffffffffffffffffffffffffffffffffff1673ffffffffffffffffffffffffffffffffffffffff1681526020019081526020015f205f8473ffffffffffffffffffffffffffffffffffffffff1673ffffffffffffffffffffffffffffffffffffffff1681526020019081526020015f205f3373ffffffffffffffffffffffffffffffffffffffff1673ffffffffffffffffffffffffffffffffffffffff1681526020019081526020015f2054905081811015610b515784338484846040517f51750bc7000000000000000000000000000000000000000000000000000000008152600401610b48959493929190611929565b60405180910390fd5b81810360035f8773ffffffffffffffffffffffffffffffffffffffff1673ffffffffffffffffffffffffffffffffffffffff1681526020019081526020015f205f8573ffffffffffffffffffffffffffffffffffffffff1673ffffffffffffffffffffffffffffffffffffffff1681526020019081526020015f205f3373ffffffffffffffffffffffffffffffffffffffff1673ffffffffffffffffffffffffffffffffffffffff1681526020019081526020015f2081905550610c1785858585610f64565b50610c20611102565b50505050565b610c2e610e9e565b610c3a33848484610f64565b610c42611102565b505050565b5f7f01ffc9a7000000000000000000000000000000000000000000000000000000007bffffffffffffffffffffffffffffffffffffffffffffffffffffffff1916827bffffffffffffffffffffffffffffffffffffffffffffffffffffffff1916149050919050565b610cc181610cbc610dad565b61110b565b50565b5f610ccf8383610629565b610da3576001805f8581526020019081526020015f205f015f8473ffffffffffffffffffffffffffffffffffffffff1673ffffffffffffffffffffffffffffffffffffffff1681526020019081526020015f205f6101000a81548160ff021916908315150217905550610d40610dad565b73ffffffffffffffffffffffffffffffffffffffff168273ffffffffffffffffffffffffffffffffffffffff16847f2f8788117e7eff1d82e926ec794901d17c78024a50270940304540a733656f0d60405160405180910390a460019050610da7565b5f90505b92915050565b5f33905090565b5f610dbf8383610629565b15610e94575f60015f8581526020019081526020015f205f015f8473ffffffffffffffffffffffffffffffffffffffff1673ffffffffffffffffffffffffffffffffffffffff1681526020019081526020015f205f6101000a81548160ff021916908315150217905550610e31610dad565b73ffffffffffffffffffffffffffffffffffffffff168273ffffffffffffffffffffffffffffffffffffffff16847ff6391f5c32d9c69d2a47ea670b442974b53935d1edc7fd64eb21e047a839171b60405160405180910390a460019050610e98565b5f90505b92915050565b60025f5403610ed9576040517f3ee5aeb500000000000000000000000000000000000000000000000000000000815260040160405180910390fd5b60025f81905550565b610f5e848573ffffffffffffffffffffffffffffffffffffffff166323b872dd868686604051602401610f179392919061197a565b604051602081830303815290604052915060e01b6020820180517bffffffffffffffffffffffffffffffffffffffffffffffffffffffff838183161783525050505061115c565b50505050565b60025f8373ffffffffffffffffffffffffffffffffffffffff1673ffffffffffffffffffffffffffffffffffffffff1681526020019081526020015f205f9054906101000a900460ff16610fef57816040517fbf16aab6000000000000000000000000000000000000000000000000000000008152600401610fe691906119af565b60405180910390fd5b3073ffffffffffffffffffffffffffffffffffffffff168473ffffffffffffffffffffffffffffffffffffffff16036110525761104d83828473ffffffffffffffffffffffffffffffffffffffff166111f79092919063ffffffff16565b611080565b61107f8484838573ffffffffffffffffffffffffffffffffffffffff16610ee2909392919063ffffffff16565b5b8173ffffffffffffffffffffffffffffffffffffffff168373ffffffffffffffffffffffffffffffffffffffff168573ffffffffffffffffffffffffffffffffffffffff167f9af266b6ca4909f988dc948fb50ad15153abbe525351881bad4fa858be96515c846040516110f491906114e2565b60405180910390a450505050565b60015f81905550565b6111158282610629565b6111585780826040517fe2517d3f00000000000000000000000000000000000000000000000000000000815260040161114f9291906119c8565b60405180910390fd5b5050565b5f8060205f8451602086015f885af18061117b576040513d5f823e3d81fd5b3d92505f519150505f82146111945760018114156111af565b5f8473ffffffffffffffffffffffffffffffffffffffff163b145b156111f157836040517f5274afe70000000000000000000000000000000000000000000000000000000081526004016111e891906119af565b60405180910390fd5b50505050565b611271838473ffffffffffffffffffffffffffffffffffffffff1663a9059cbb858560405160240161122a9291906119ef565b604051602081830303815290604052915060e01b6020820180517bffffffffffffffffffffffffffffffffffffffffffffffffffffffff838183161783525050505061115c565b505050565b5f80fd5b5f80fd5b5f7fffffffff0000000000000000000000000000000000000000000000000000000082169050919050565b6112b28161127e565b81146112bc575f80fd5b50565b5f813590506112cd816112a9565b92915050565b5f602082840312156112e8576112e7611276565b5b5f6112f5848285016112bf565b91505092915050565b5f8115159050919050565b611312816112fe565b82525050565b5f60208201905061132b5f830184611309565b92915050565b5f819050919050565b61134381611331565b811461134d575f80fd5b50565b5f8135905061135e8161133a565b92915050565b5f6020828403121561137957611378611276565b5b5f61138684828501611350565b91505092915050565b61139881611331565b82525050565b5f6020820190506113b15f83018461138f565b92915050565b5f73ffffffffffffffffffffffffffffffffffffffff82169050919050565b5f6113e0826113b7565b9050919050565b6113f0816113d6565b81146113fa575f80fd5b50565b5f8135905061140b816113e7565b92915050565b5f806040838503121561142757611426611276565b5b5f61143485828601611350565b9250506020611445858286016113fd565b9150509250929050565b5f6020828403121561146457611463611276565b5b5f611471848285016113fd565b91505092915050565b5f805f6060848603121561149157611490611276565b5b5f61149e868287016113fd565b93505060206114af868287016113fd565b92505060406114c0868287016113fd565b9150509250925092565b5f819050919050565b6114dc816114ca565b82525050565b5f6020820190506114f55f8301846114d3565b92915050565b5f80fd5b5f80fd5b5f80fd5b5f8083601f84011261151c5761151b6114fb565b5b8235905067ffffffffffffffff811115611539576115386114ff565b5b60208301915083602082028301111561155557611554611503565b5b9250929050565b5f8083601f840112611571576115706114fb565b5b8235905067ffffffffffffffff81111561158e5761158d6114ff565b5b6020830191508360208202830111156115aa576115a9611503565b5b9250929050565b5f805f805f606086880312156115ca576115c9611276565b5b5f86013567ffffffffffffffff8111156115e7576115e661127a565b5b6115f388828901611507565b95509550506020611606888289016113fd565b935050604086013567ffffffffffffffff8111156116275761162661127a565b5b6116338882890161155c565b92509250509295509295909350565b61164b816114ca565b8114611655575f80fd5b50565b5f8135905061166681611642565b92915050565b5f805f6060848603121561168357611682611276565b5b5f611690868287016113fd565b93505060206116a1868287016113fd565b92505060406116b286828701611658565b9150509250925092565b5f805f80608085870312156116d4576116d3611276565b5b5f6116e1878288016113fd565b94505060206116f2878288016113fd565b9350506040611703878288016113fd565b925050606061171487828801611658565b91505092959194509250565b7f4e487b71000000000000000000000000000000000000000000000000000000005f52603260045260245ffd5b7f4e487b71000000000000000000000000000000000000000000000000000000005f52601160045260245ffd5b5f611784826114ca565b915061178f836114ca565b92508282019050808211156117a7576117a661174d565b5b92915050565b5f82825260208201905092915050565b5f819050919050565b6117cf816113d6565b82525050565b5f6117e083836117c6565b60208301905092915050565b5f6117fa60208401846113fd565b905092915050565b5f602082019050919050565b5f61181983856117ad565b9350611824826117bd565b805f5b8581101561185c5761183982846117ec565b61184388826117d5565b975061184e83611802565b925050600181019050611827565b5085925050509392505050565b5f82825260208201905092915050565b5f80fd5b82818337505050565b5f6118918385611869565b93507f07ffffffffffffffffffffffffffffffffffffffffffffffffffffffffffffff8311156118c4576118c3611879565b5b6020830292506118d583858461187d565b82840190509392505050565b5f6040820190508181035f8301526118fa81868861180e565b9050818103602083015261190f818486611886565b905095945050505050565b611923816113d6565b82525050565b5f60a08201905061193c5f83018861191a565b611949602083018761191a565b611956604083018661191a565b61196360608301856114d3565b61197060808301846114d3565b9695505050505050565b5f60608201905061198d5f83018661191a565b61199a602083018561191a565b6119a760408301846114d3565b949350505050565b5f6020820190506119c25f83018461191a565b92915050565b5f6040820190506119db5f83018561191a565b6119e8602083018461138f565b9392505050565b5f604082019050611a025f83018561191a565b611a0f60208301846114d3565b939250505056fea2646970667358221220d17d2d94125afbe2af4c737bc2e5c16883b0285dde3a9005d61cd1b342fe547064736f6c634300081a0033",
					"opcodes": "PUSH1 0x80 PUSH1 0x40 MSTORE CALLVALUE DUP1 ISZERO PUSH2 0xF JUMPI PUSH0 DUP1 REVERT JUMPDEST POP PUSH1 0x1 PUSH0 DUP2 SWAP1 SSTORE POP PUSH2 0x29 PUSH0 DUP1 SHL CALLER PUSH2 0x60 PUSH1 0x20 SHL PUSH1 0x20 SHR JUMP JUMPDEST POP PUSH2 0x5A PUSH32 0x915327D54F2C758AD33C35B031B5E89868657EA971CDA2B8103C502DC672509C CALLER PUSH2 0x60 PUSH1 0x20 SHL PUSH1 0x20 SHR JUMP JUMPDEST POP PUSH2 0x1C0 JUMP JUMPDEST PUSH0 PUSH2 0x71 DUP4 DUP4 PUSH2 0x155 PUSH1 0x20 SHL PUSH1 0x20 SHR JUMP JUMPDEST PUSH2 0x14B JUMPI PUSH1 0x1 DUP1 PUSH0 DUP6 DUP2 MSTORE PUSH1 0x20 ADD SWAP1 DUP2 MSTORE PUSH1 0x20 ADD PUSH0 KECCAK256 PUSH0 ADD PUSH0 DUP5 PUSH20 0xFFFFFFFFFFFFFFFFFFFFFFFFFFFFFFFFFFFFFFFF AND PUSH20 0xFFFFFFFFFFFFFFFFFFFFFFFFFFFFFFFFFFFFFFFF AND DUP2 MSTORE PUSH1 0x20 ADD SWAP1 DUP2 MSTORE PUSH1 0x20 ADD PUSH0 KECCAK256 PUSH0 PUSH2 0x100 EXP DUP2 SLOAD DUP2 PUSH1 0xFF MUL NOT AND SWAP1 DUP4 ISZERO ISZERO MUL OR SWAP1 SSTORE POP PUSH2 0xE8 PUSH2 0x1B9 PUSH1 0x20 SHL PUSH1 0x20 SHR JUMP JUMPDEST PUSH20 0xFFFFFFFFFFFFFFFFFFFFFFFFFFFFFFFFFFFFFFFF AND DUP3 PUSH20 0xFFFFFFFFFFFFFFFFFFFFFFFFFFFFFFFFFFFFFFFF AND DUP5 PUSH32 0x2F8788117E7EFF1D82E926EC794901D17C78024A50270940304540A733656F0D PUSH1 0x40 MLOAD PUSH1 0x40 MLOAD DUP1 SWAP2 SUB SWAP1 LOG4 PUSH1 0x1 SWAP1 POP PUSH2 0x14F JUMP JUMPDEST PUSH0 SWAP1 POP JUMPDEST SWAP3 SWAP2 POP POP JUMP JUMPDEST PUSH0 PUSH1 0x1 PUSH0 DUP5 DUP2 MSTORE PUSH1 0x20 ADD SWAP1 DUP2 MSTORE PUSH1 0x20 ADD PUSH0 KECCAK256 PUSH0 ADD PUSH0 DUP4 PUSH20 0xFFFFFFFFFFFFFFFFFFFFFFFFFFFFFFFFFFFFFFFF AND PUSH20 0xFFFFFFFFFFFFFFFFFFFFFFFFFFFFFFFFFFFFFFFF AND DUP2 MSTORE PUSH1 0x20 ADD SWAP1 DUP2 MSTORE PUSH1 0x20 ADD PUSH0 KECCAK256 PUSH0 SWAP1 SLOAD SWAP1 PUSH2 0x100 EXP SWAP1 DIV PUSH1 0xFF AND SWAP1 POP SWAP3 SWAP2 POP POP JUMP JUMPDEST PUSH0 CALLER SWAP1 POP SWAP1 JUMP JUMPDEST PUSH2 0x1A4C DUP1 PUSH2 0x1CD PUSH0 CODECOPY PUSH0 RETURN INVALID PUSH1 0x80 PUSH1 0x40 MSTORE CALLVALUE DUP1 ISZERO PUSH2 0xF JUMPI PUSH0 DUP1 REVERT JUMPDEST POP PUSH1 0x4 CALLDATASIZE LT PUSH2 0xFE JUMPI PUSH0 CALLDATALOAD PUSH1 0xE0 SHR DUP1 PUSH4 0x91D14854 GT PUSH2 0x95 JUMPI DUP1 PUSH4 0xD547741F GT PUSH2 0x64 JUMPI DUP1 PUSH4 0xD547741F EQ PUSH2 0x2BA JUMPI DUP1 PUSH4 0xDA46098C EQ PUSH2 0x2D6 JUMPI DUP1 PUSH4 0xE5994905 EQ PUSH2 0x2F2 JUMPI DUP1 PUSH4 0xF5537EDE EQ PUSH2 0x30E JUMPI PUSH2 0xFE JUMP JUMPDEST DUP1 PUSH4 0x91D14854 EQ PUSH2 0x220 JUMPI DUP1 PUSH4 0x927DA105 EQ PUSH2 0x250 JUMPI DUP1 PUSH4 0xA217FDDF EQ PUSH2 0x280 JUMPI DUP1 PUSH4 0xCDB33B81 EQ PUSH2 0x29E JUMPI PUSH2 0xFE JUMP JUMPDEST DUP1 PUSH4 0x68A37AE8 GT PUSH2 0xD1 JUMPI DUP1 PUSH4 0x68A37AE8 EQ PUSH2 0x19A JUMPI DUP1 PUSH4 0x68C4AC26 EQ PUSH2 0x1B8 JUMPI DUP1 PUSH4 0x6D69FCAF EQ PUSH2 0x1E8 JUMPI DUP1 PUSH4 0x76319190 EQ PUSH2 0x204 JUMPI PUSH2 0xFE JUMP JUMPDEST DUP1 PUSH4 0x1FFC9A7 EQ PUSH2 0x102 JUMPI DUP1 PUSH4 0x248A9CA3 EQ PUSH2 0x132 JUMPI DUP1 PUSH4 0x2F2FF15D EQ PUSH2 0x162 JUMPI DUP1 PUSH4 0x36568ABE EQ PUSH2 0x17E JUMPI JUMPDEST PUSH0 DUP1 REVERT JUMPDEST PUSH2 0x11C PUSH1 0x4 DUP1 CALLDATASIZE SUB DUP2 ADD SWAP1 PUSH2 0x117 SWAP2 SWAP1 PUSH2 0x12D3 JUMP JUMPDEST PUSH2 0x32A JUMP JUMPDEST PUSH1 0x40 MLOAD PUSH2 0x129 SWAP2 SWAP1 PUSH2 0x1318 JUMP JUMPDEST PUSH1 0x40 MLOAD DUP1 SWAP2 SUB SWAP1 RETURN JUMPDEST PUSH2 0x14C PUSH1 0x4 DUP1 CALLDATASIZE SUB DUP2 ADD SWAP1 PUSH2 0x147 SWAP2 SWAP1 PUSH2 0x1364 JUMP JUMPDEST PUSH2 0x3A3 JUMP JUMPDEST PUSH1 0x40 MLOAD PUSH2 0x159 SWAP2 SWAP1 PUSH2 0x139E JUMP JUMPDEST PUSH1 0x40 MLOAD DUP1 SWAP2 SUB SWAP1 RETURN JUMPDEST PUSH2 0x17C PUSH1 0x4 DUP1 CALLDATASIZE SUB DUP2 ADD SWAP1 PUSH2 0x177 SWAP2 SWAP1 PUSH2 0x1411 JUMP JUMPDEST PUSH2 0x3C0 JUMP JUMPDEST STOP JUMPDEST PUSH2 0x198 PUSH1 0x4 DUP1 CALLDATASIZE SUB DUP2 ADD SWAP1 PUSH2 0x193 SWAP2 SWAP1 PUSH2 0x1411 JUMP JUMPDEST PUSH2 0x3E2 JUMP JUMPDEST STOP JUMPDEST PUSH2 0x1A2 PUSH2 0x45D JUMP JUMPDEST PUSH1 0x40 MLOAD PUSH2 0x1AF SWAP2 SWAP1 PUSH2 0x139E JUMP JUMPDEST PUSH1 0x40 MLOAD DUP1 SWAP2 SUB SWAP1 RETURN JUMPDEST PUSH2 0x1D2 PUSH1 0x4 DUP1 CALLDATASIZE SUB DUP2 ADD SWAP1 PUSH2 0x1CD SWAP2 SWAP1 PUSH2 0x144F JUMP JUMPDEST PUSH2 0x481 JUMP JUMPDEST PUSH1 0x40 MLOAD PUSH2 0x1DF SWAP2 SWAP1 PUSH2 0x1318 JUMP JUMPDEST PUSH1 0x40 MLOAD DUP1 SWAP2 SUB SWAP1 RETURN JUMPDEST PUSH2 0x202 PUSH1 0x4 DUP1 CALLDATASIZE SUB DUP2 ADD SWAP1 PUSH2 0x1FD SWAP2 SWAP1 PUSH2 0x144F JUMP JUMPDEST PUSH2 0x49E JUMP JUMPDEST STOP JUMPDEST PUSH2 0x21E PUSH1 0x4 DUP1 CALLDATASIZE SUB DUP2 ADD SWAP1 PUSH2 0x219 SWAP2 SWAP1 PUSH2 0x144F JUMP JUMPDEST PUSH2 0x564 JUMP JUMPDEST STOP JUMPDEST PUSH2 0x23A PUSH1 0x4 DUP1 CALLDATASIZE SUB DUP2 ADD SWAP1 PUSH2 0x235 SWAP2 SWAP1 PUSH2 0x1411 JUMP JUMPDEST PUSH2 0x629 JUMP JUMPDEST PUSH1 0x40 MLOAD PUSH2 0x247 SWAP2 SWAP1 PUSH2 0x1318 JUMP JUMPDEST PUSH1 0x40 MLOAD DUP1 SWAP2 SUB SWAP1 RETURN JUMPDEST PUSH2 0x26A PUSH1 0x4 DUP1 CALLDATASIZE SUB DUP2 ADD SWAP1 PUSH2 0x265 SWAP2 SWAP1 PUSH2 0x147A JUMP JUMPDEST PUSH2 0x68D JUMP JUMPDEST PUSH1 0x40 MLOAD PUSH2 0x277 SWAP2 SWAP1 PUSH2 0x14E2 JUMP JUMPDEST PUSH1 0x40 MLOAD DUP1 SWAP2 SUB SWAP1 RETURN JUMPDEST PUSH2 0x288 PUSH2 0x74B JUMP JUMPDEST PUSH1 0x40 MLOAD PUSH2 0x295 SWAP2 SWAP1 PUSH2 0x139E JUMP JUMPDEST PUSH1 0x40 MLOAD DUP1 SWAP2 SUB SWAP1 RETURN JUMPDEST PUSH2 0x2B8 PUSH1 0x4 DUP1 CALLDATASIZE SUB DUP2 ADD SWAP1 PUSH2 0x2B3 SWAP2 SWAP1 PUSH2 0x15B1 JUMP JUMPDEST PUSH2 0x751 JUMP JUMPDEST STOP JUMPDEST PUSH2 0x2D4 PUSH1 0x4 DUP1 CALLDATASIZE SUB DUP2 ADD SWAP1 PUSH2 0x2CF SWAP2 SWAP1 PUSH2 0x1411 JUMP JUMPDEST PUSH2 0x8EA JUMP JUMPDEST STOP JUMPDEST PUSH2 0x2F0 PUSH1 0x4 DUP1 CALLDATASIZE SUB DUP2 ADD SWAP1 PUSH2 0x2EB SWAP2 SWAP1 PUSH2 0x166C JUMP JUMPDEST PUSH2 0x90C JUMP JUMPDEST STOP JUMPDEST PUSH2 0x30C PUSH1 0x4 DUP1 CALLDATASIZE SUB DUP2 ADD SWAP1 PUSH2 0x307 SWAP2 SWAP1 PUSH2 0x16BC JUMP JUMPDEST PUSH2 0xA45 JUMP JUMPDEST STOP JUMPDEST PUSH2 0x328 PUSH1 0x4 DUP1 CALLDATASIZE SUB DUP2 ADD SWAP1 PUSH2 0x323 SWAP2 SWAP1 PUSH2 0x166C JUMP JUMPDEST PUSH2 0xC26 JUMP JUMPDEST STOP JUMPDEST PUSH0 PUSH32 0x7965DB0B00000000000000000000000000000000000000000000000000000000 PUSH28 0xFFFFFFFFFFFFFFFFFFFFFFFFFFFFFFFFFFFFFFFFFFFFFFFFFFFFFFFF NOT AND DUP3 PUSH28 0xFFFFFFFFFFFFFFFFFFFFFFFFFFFFFFFFFFFFFFFFFFFFFFFFFFFFFFFF NOT AND EQ DUP1 PUSH2 0x39C JUMPI POP PUSH2 0x39B DUP3 PUSH2 0xC47 JUMP JUMPDEST JUMPDEST SWAP1 POP SWAP2 SWAP1 POP JUMP JUMPDEST PUSH0 PUSH1 0x1 PUSH0 DUP4 DUP2 MSTORE PUSH1 0x20 ADD SWAP1 DUP2 MSTORE PUSH1 0x20 ADD PUSH0 KECCAK256 PUSH1 0x1 ADD SLOAD SWAP1 POP SWAP2 SWAP1 POP JUMP JUMPDEST PUSH2 0x3C9 DUP3 PUSH2 0x3A3 JUMP JUMPDEST PUSH2 0x3D2 DUP2 PUSH2 0xCB0 JUMP JUMPDEST PUSH2 0x3DC DUP4 DUP4 PUSH2 0xCC4 JUMP JUMPDEST POP POP POP POP JUMP JUMPDEST PUSH2 0x3EA PUSH2 0xDAD JUMP JUMPDEST PUSH20 0xFFFFFFFFFFFFFFFFFFFFFFFFFFFFFFFFFFFFFFFF AND DUP2 PUSH20 0xFFFFFFFFFFFFFFFFFFFFFFFFFFFFFFFFFFFFFFFF AND EQ PUSH2 0x44E JUMPI PUSH1 0x40 MLOAD PUSH32 0x6697B23200000000000000000000000000000000000000000000000000000000 DUP2 MSTORE PUSH1 0x4 ADD PUSH1 0x40 MLOAD DUP1 SWAP2 SUB SWAP1 REVERT JUMPDEST PUSH2 0x458 DUP3 DUP3 PUSH2 0xDB4 JUMP JUMPDEST POP POP POP JUMP JUMPDEST PUSH32 0x915327D54F2C758AD33C35B031B5E89868657EA971CDA2B8103C502DC672509C DUP2 JUMP JUMPDEST PUSH1 0x2 PUSH1 0x20 MSTORE DUP1 PUSH0 MSTORE PUSH1 0x40 PUSH0 KECCAK256 PUSH0 SWAP2 POP SLOAD SWAP1 PUSH2 0x100 EXP SWAP1 DIV PUSH1 0xFF AND DUP2 JUMP JUMPDEST PUSH32 0x915327D54F2C758AD33C35B031B5E89868657EA971CDA2B8103C502DC672509C PUSH2 0x4C8 DUP2 PUSH2 0xCB0 JUMP JUMPDEST PUSH1 0x1 PUSH1 0x2 PUSH0 DUP5 PUSH20 0xFFFFFFFFFFFFFFFFFFFFFFFFFFFFFFFFFFFFFFFF AND PUSH20 0xFFFFFFFFFFFFFFFFFFFFFFFFFFFFFFFFFFFFFFFF AND DUP2 MSTORE PUSH1 0x20 ADD SWAP1 DUP2 MSTORE PUSH1 0x20 ADD PUSH0 KECCAK256 PUSH0 PUSH2 0x100 EXP DUP2 SLOAD DUP2 PUSH1 0xFF MUL NOT AND SWAP1 DUP4 ISZERO ISZERO MUL OR SWAP1 SSTORE POP DUP2 PUSH20 0xFFFFFFFFFFFFFFFFFFFFFFFFFFFFFFFFFFFFFFFF AND PUSH32 0x784C8F4DBF0FFEDD6E72C76501C545A70F8B203B30A26CE542BF92BA87C248A4 PUSH1 0x40 MLOAD PUSH1 0x40 MLOAD DUP1 SWAP2 SUB SWAP1 LOG2 POP POP JUMP JUMPDEST PUSH32 0x915327D54F2C758AD33C35B031B5E89868657EA971CDA2B8103C502DC672509C PUSH2 0x58E DUP2 PUSH2 0xCB0 JUMP JUMPDEST PUSH0 PUSH1 0x2 PUSH0 DUP5 PUSH20 0xFFFFFFFFFFFFFFFFFFFFFFFFFFFFFFFFFFFFFFFF AND PUSH20 0xFFFFFFFFFFFFFFFFFFFFFFFFFFFFFFFFFFFFFFFF AND DUP2 MSTORE PUSH1 0x20 ADD SWAP1 DUP2 MSTORE PUSH1 0x20 ADD PUSH0 KECCAK256 PUSH0 PUSH2 0x100 EXP DUP2 SLOAD DUP2 PUSH1 0xFF MUL NOT AND SWAP1 DUP4 ISZERO ISZERO MUL OR SWAP1 SSTORE POP DUP2 PUSH20 0xFFFFFFFFFFFFFFFFFFFFFFFFFFFFFFFFFFFFFFFF AND PUSH32 0x4C910B69FE65A61F7531B9C5042B2329CA7179C77290AA7E2EB3AFA3C8511FD3 PUSH1 0x40 MLOAD PUSH1 0x40 MLOAD DUP1 SWAP2 SUB SWAP1 LOG2 POP POP JUMP JUMPDEST PUSH0 PUSH1 0x1 PUSH0 DUP5 DUP2 MSTORE PUSH1 0x20 ADD SWAP1 DUP2 MSTORE PUSH1 0x20 ADD PUSH0 KECCAK256 PUSH0 ADD PUSH0 DUP4 PUSH20 0xFFFFFFFFFFFFFFFFFFFFFFFFFFFFFFFFFFFFFFFF AND PUSH20 0xFFFFFFFFFFFFFFFFFFFFFFFFFFFFFFFFFFFFFFFF AND DUP2 MSTORE PUSH1 0x20 ADD SWAP1 DUP2 MSTORE PUSH1 0x20 ADD PUSH0 KECCAK256 PUSH0 SWAP1 SLOAD SWAP1 PUSH2 0x100 EXP SWAP1 DIV PUSH1 0xFF AND SWAP1 POP SWAP3 SWAP2 POP POP JUMP JUMPDEST PUSH0 PUSH1 0x3 PUSH0 DUP6 PUSH20 0xFFFFFFFFFFFFFFFFFFFFFFFFFFFFFFFFFFFFFFFF AND PUSH20 0xFFFFFFFFFFFFFFFFFFFFFFFFFFFFFFFFFFFFFFFF AND DUP2 MSTORE PUSH1 0x20 ADD SWAP1 DUP2 MSTORE PUSH1 0x20 ADD PUSH0 KECCAK256 PUSH0 DUP4 PUSH20 0xFFFFFFFFFFFFFFFFFFFFFFFFFFFFFFFFFFFFFFFF AND PUSH20 0xFFFFFFFFFFFFFFFFFFFFFFFFFFFFFFFFFFFFFFFF AND DUP2 MSTORE PUSH1 0x20 ADD SWAP1 DUP2 MSTORE PUSH1 0x20 ADD PUSH0 KECCAK256 PUSH0 DUP5 PUSH20 0xFFFFFFFFFFFFFFFFFFFFFFFFFFFFFFFFFFFFFFFF AND PUSH20 0xFFFFFFFFFFFFFFFFFFFFFFFFFFFFFFFFFFFFFFFF AND DUP2 MSTORE PUSH1 0x20 ADD SWAP1 DUP2 MSTORE PUSH1 0x20 ADD PUSH0 KECCAK256 SLOAD SWAP1 POP SWAP4 SWAP3 POP POP POP JUMP JUMPDEST PUSH0 DUP1 SHL DUP2 JUMP JUMPDEST PUSH2 0x759 PUSH2 0xE9E JUMP JUMPDEST DUP2 DUP2 SWAP1 POP DUP6 DUP6 SWAP1 POP EQ PUSH2 0x798 JUMPI PUSH1 0x40 MLOAD PUSH32 0xA9854BC900000000000000000000000000000000000000000000000000000000 DUP2 MSTORE PUSH1 0x4 ADD PUSH1 0x40 MLOAD DUP1 SWAP2 SUB SWAP1 REVERT JUMPDEST PUSH0 DUP1 JUMPDEST DUP4 DUP4 SWAP1 POP DUP2 LT ISZERO PUSH2 0x7DA JUMPI DUP4 DUP4 DUP3 DUP2 DUP2 LT PUSH2 0x7B9 JUMPI PUSH2 0x7B8 PUSH2 0x1720 JUMP JUMPDEST JUMPDEST SWAP1 POP PUSH1 0x20 MUL ADD CALLDATALOAD DUP3 PUSH2 0x7CB SWAP2 SWAP1 PUSH2 0x177A JUMP JUMPDEST SWAP2 POP DUP1 DUP1 PUSH1 0x1 ADD SWAP2 POP POP PUSH2 0x79B JUMP JUMPDEST POP PUSH2 0x808 CALLER ADDRESS DUP4 DUP8 PUSH20 0xFFFFFFFFFFFFFFFFFFFFFFFFFFFFFFFFFFFFFFFF AND PUSH2 0xEE2 SWAP1 SWAP4 SWAP3 SWAP2 SWAP1 PUSH4 0xFFFFFFFF AND JUMP JUMPDEST PUSH0 JUMPDEST DUP7 DUP7 SWAP1 POP DUP2 LT ISZERO PUSH2 0x86E JUMPI PUSH2 0x861 ADDRESS DUP9 DUP9 DUP5 DUP2 DUP2 LT PUSH2 0x82C JUMPI PUSH2 0x82B PUSH2 0x1720 JUMP JUMPDEST JUMPDEST SWAP1 POP PUSH1 0x20 MUL ADD PUSH1 0x20 DUP2 ADD SWAP1 PUSH2 0x841 SWAP2 SWAP1 PUSH2 0x144F JUMP JUMPDEST DUP8 DUP8 DUP8 DUP7 DUP2 DUP2 LT PUSH2 0x855 JUMPI PUSH2 0x854 PUSH2 0x1720 JUMP JUMPDEST JUMPDEST SWAP1 POP PUSH1 0x20 MUL ADD CALLDATALOAD PUSH2 0xF64 JUMP JUMPDEST DUP1 DUP1 PUSH1 0x1 ADD SWAP2 POP POP PUSH2 0x80A JUMP JUMPDEST POP DUP4 PUSH20 0xFFFFFFFFFFFFFFFFFFFFFFFFFFFFFFFFFFFFFFFF AND CALLER PUSH20 0xFFFFFFFFFFFFFFFFFFFFFFFFFFFFFFFFFFFFFFFF AND PUSH32 0x6F48F5CFE672B48C8D014ECF4ECB7CDD8A66519DC4E331F0C7E95F1F2183A810 DUP9 DUP9 DUP8 DUP8 PUSH1 0x40 MLOAD PUSH2 0x8D2 SWAP5 SWAP4 SWAP3 SWAP2 SWAP1 PUSH2 0x18E1 JUMP JUMPDEST PUSH1 0x40 MLOAD DUP1 SWAP2 SUB SWAP1 LOG3 POP PUSH2 0x8E3 PUSH2 0x1102 JUMP JUMPDEST POP POP POP POP POP JUMP JUMPDEST PUSH2 0x8F3 DUP3 PUSH2 0x3A3 JUMP JUMPDEST PUSH2 0x8FC DUP2 PUSH2 0xCB0 JUMP JUMPDEST PUSH2 0x906 DUP4 DUP4 PUSH2 0xDB4 JUMP JUMPDEST POP POP POP POP JUMP JUMPDEST DUP1 PUSH1 0x3 PUSH0 CALLER PUSH20 0xFFFFFFFFFFFFFFFFFFFFFFFFFFFFFFFFFFFFFFFF AND PUSH20 0xFFFFFFFFFFFFFFFFFFFFFFFFFFFFFFFFFFFFFFFF AND DUP2 MSTORE PUSH1 0x20 ADD SWAP1 DUP2 MSTORE PUSH1 0x20 ADD PUSH0 KECCAK256 PUSH0 DUP5 PUSH20 0xFFFFFFFFFFFFFFFFFFFFFFFFFFFFFFFFFFFFFFFF AND PUSH20 0xFFFFFFFFFFFFFFFFFFFFFFFFFFFFFFFFFFFFFFFF AND DUP2 MSTORE PUSH1 0x20 ADD SWAP1 DUP2 MSTORE PUSH1 0x20 ADD PUSH0 KECCAK256 PUSH0 DUP6 PUSH20 0xFFFFFFFFFFFFFFFFFFFFFFFFFFFFFFFFFFFFFFFF AND PUSH20 0xFFFFFFFFFFFFFFFFFFFFFFFFFFFFFFFFFFFFFFFF AND DUP2 MSTORE PUSH1 0x20 ADD SWAP1 DUP2 MSTORE PUSH1 0x20 ADD PUSH0 KECCAK256 DUP2 SWAP1 SSTORE POP DUP2 PUSH20 0xFFFFFFFFFFFFFFFFFFFFFFFFFFFFFFFFFFFFFFFF AND DUP4 PUSH20 0xFFFFFFFFFFFFFFFFFFFFFFFFFFFFFFFFFFFFFFFF AND CALLER PUSH20 0xFFFFFFFFFFFFFFFFFFFFFFFFFFFFFFFFFFFFFFFF AND PUSH32 0x8A35F50FA7149C607BF92648069A0D9593C88F1E12F1ABD0A0481A4A959B0681 DUP5 PUSH1 0x40 MLOAD PUSH2 0xA38 SWAP2 SWAP1 PUSH2 0x14E2 JUMP JUMPDEST PUSH1 0x40 MLOAD DUP1 SWAP2 SUB SWAP1 LOG4 POP POP POP JUMP JUMPDEST PUSH2 0xA4D PUSH2 0xE9E JUMP JUMPDEST PUSH0 PUSH1 0x3 PUSH0 DUP7 PUSH20 0xFFFFFFFFFFFFFFFFFFFFFFFFFFFFFFFFFFFFFFFF AND PUSH20 0xFFFFFFFFFFFFFFFFFFFFFFFFFFFFFFFFFFFFFFFF AND DUP2 MSTORE PUSH1 0x20 ADD SWAP1 DUP2 MSTORE PUSH1 0x20 ADD PUSH0 KECCAK256 PUSH0 DUP5 PUSH20 0xFFFFFFFFFFFFFFFFFFFFFFFFFFFFFFFFFFFFFFFF AND PUSH20 0xFFFFFFFFFFFFFFFFFFFFFFFFFFFFFFFFFFFFFFFF AND DUP2 MSTORE PUSH1 0x20 ADD SWAP1 DUP2 MSTORE PUSH1 0x20 ADD PUSH0 KECCAK256 PUSH0 CALLER PUSH20 0xFFFFFFFFFFFFFFFFFFFFFFFFFFFFFFFFFFFFFFFF AND PUSH20 0xFFFFFFFFFFFFFFFFFFFFFFFFFFFFFFFFFFFFFFFF AND DUP2 MSTORE PUSH1 0x20 ADD SWAP1 DUP2 MSTORE PUSH1 0x20 ADD PUSH0 KECCAK256 SLOAD SWAP1 POP DUP2 DUP2 LT ISZERO PUSH2 0xB51 JUMPI DUP5 CALLER DUP5 DUP5 DUP5 PUSH1 0x40 MLOAD PUSH32 0x51750BC700000000000000000000000000000000000000000000000000000000 DUP2 MSTORE PUSH1 0x4 ADD PUSH2 0xB48 SWAP6 SWAP5 SWAP4 SWAP3 SWAP2 SWAP1 PUSH2 0x1929 JUMP JUMPDEST PUSH1 0x40 MLOAD DUP1 SWAP2 SUB SWAP1 REVERT JUMPDEST DUP2 DUP2 SUB PUSH1 0x3 PUSH0 DUP8 PUSH20 0xFFFFFFFFFFFFFFFFFFFFFFFFFFFFFFFFFFFFFFFF AND PUSH20 0xFFFFFFFFFFFFFFFFFFFFFFFFFFFFFFFFFFFFFFFF AND DUP2 MSTORE PUSH1 0x20 ADD SWAP1 DUP2 MSTORE PUSH1 0x20 ADD PUSH0 KECCAK256 PUSH0 DUP6 PUSH20 0xFFFFFFFFFFFFFFFFFFFFFFFFFFFFFFFFFFFFFFFF AND PUSH20 0xFFFFFFFFFFFFFFFFFFFFFFFFFFFFFFFFFFFFFFFF AND DUP2 MSTORE PUSH1 0x20 ADD SWAP1 DUP2 MSTORE PUSH1 0x20 ADD PUSH0 KECCAK256 PUSH0 CALLER PUSH20 0xFFFFFFFFFFFFFFFFFFFFFFFFFFFFFFFFFFFFFFFF AND PUSH20 0xFFFFFFFFFFFFFFFFFFFFFFFFFFFFFFFFFFFFFFFF AND DUP2 MSTORE PUSH1 0x20 ADD SWAP1 DUP2 MSTORE PUSH1 0x20 ADD PUSH0 KECCAK256 DUP2 SWAP1 SSTORE POP PUSH2 0xC17 DUP6 DUP6 DUP6 DUP6 PUSH2 0xF64 JUMP JUMPDEST POP PUSH2 0xC20 PUSH2 0x1102 JUMP JUMPDEST POP POP POP POP JUMP JUMPDEST PUSH2 0xC2E PUSH2 0xE9E JUMP JUMPDEST PUSH2 0xC3A CALLER DUP5 DUP5 DUP5 PUSH2 0xF64 JUMP JUMPDEST PUSH2 0xC42 PUSH2 0x1102 JUMP JUMPDEST POP POP POP JUMP JUMPDEST PUSH0 PUSH32 0x1FFC9A700000000000000000000000000000000000000000000000000000000 PUSH28 0xFFFFFFFFFFFFFFFFFFFFFFFFFFFFFFFFFFFFFFFFFFFFFFFFFFFFFFFF NOT AND DUP3 PUSH28 0xFFFFFFFFFFFFFFFFFFFFFFFFFFFFFFFFFFFFFFFFFFFFFFFFFFFFFFFF NOT AND EQ SWAP1 POP SWAP2 SWAP1 POP JUMP JUMPDEST PUSH2 0xCC1 DUP2 PUSH2 0xCBC PUSH2 0xDAD JUMP JUMPDEST PUSH2 0x110B JUMP JUMPDEST POP JUMP JUMPDEST PUSH0 PUSH2 0xCCF DUP4 DUP4 PUSH2 0x629 JUMP JUMPDEST PUSH2 0xDA3 JUMPI PUSH1 0x1 DUP1 PUSH0 DUP6 DUP2 MSTORE PUSH1 0x20 ADD SWAP1 DUP2 MSTORE PUSH1 0x20 ADD PUSH0 KECCAK256 PUSH0 ADD PUSH0 DUP5 PUSH20 0xFFFFFFFFFFFFFFFFFFFFFFFFFFFFFFFFFFFFFFFF AND PUSH20 0xFFFFFFFFFFFFFFFFFFFFFFFFFFFFFFFFFFFFFFFF AND DUP2 MSTORE PUSH1 0x20 ADD SWAP1 DUP2 MSTORE PUSH1 0x20 ADD PUSH0 KECCAK256 PUSH0 PUSH2 0x100 EXP DUP2 SLOAD DUP2 PUSH1 0xFF MUL NOT AND SWAP1 DUP4 ISZERO ISZERO MUL OR SWAP1 SSTORE POP PUSH2 0xD40 PUSH2 0xDAD JUMP JUMPDEST PUSH20 0xFFFFFFFFFFFFFFFFFFFFFFFFFFFFFFFFFFFFFFFF AND DUP3 PUSH20 0xFFFFFFFFFFFFFFFFFFFFFFFFFFFFFFFFFFFFFFFF AND DUP5 PUSH32 0x2F8788117E7EFF1D82E926EC794901D17C78024A50270940304540A733656F0D PUSH1 0x40 MLOAD PUSH1 0x40 MLOAD DUP1 SWAP2 SUB SWAP1 LOG4 PUSH1 0x1 SWAP1 POP PUSH2 0xDA7 JUMP JUMPDEST PUSH0 SWAP1 POP JUMPDEST SWAP3 SWAP2 POP POP JUMP JUMPDEST PUSH0 CALLER SWAP1 POP SWAP1 JUMP JUMPDEST PUSH0 PUSH2 0xDBF DUP4 DUP4 PUSH2 0x629 JUMP JUMPDEST ISZERO PUSH2 0xE94 JUMPI PUSH0 PUSH1 0x1 PUSH0 DUP6 DUP2 MSTORE PUSH1 0x20 ADD SWAP1 DUP2 MSTORE PUSH1 0x20 ADD PUSH0 KECCAK256 PUSH0 ADD PUSH0 DUP5 PUSH20 0xFFFFFFFFFFFFFFFFFFFFFFFFFFFFFFFFFFFFFFFF AND PUSH20 0xFFFFFFFFFFFFFFFFFFFFFFFFFFFFFFFFFFFFFFFF AND DUP2 MSTORE PUSH1 0x20 ADD SWAP1 DUP2 MSTORE PUSH1 0x20 ADD PUSH0 KECCAK256 PUSH0 PUSH2 0x100 EXP DUP2 SLOAD DUP2 PUSH1 0xFF MUL NOT AND SWAP1 DUP4 ISZERO ISZERO MUL OR SWAP1 SSTORE POP PUSH2 0xE31 PUSH2 0xDAD JUMP JUMPDEST PUSH20 0xFFFFFFFFFFFFFFFFFFFFFFFFFFFFFFFFFFFFFFFF AND DUP3 PUSH20 0xFFFFFFFFFFFFFFFFFFFFFFFFFFFFFFFFFFFFFFFF AND DUP5 PUSH32 0xF6391F5C32D9C69D2A47EA670B442974B53935D1EDC7FD64EB21E047A839171B PUSH1 0x40 MLOAD PUSH1 0x40 MLOAD DUP1 SWAP2 SUB SWAP1 LOG4 PUSH1 0x1 SWAP1 POP PUSH2 0xE98 JUMP JUMPDEST PUSH0 SWAP1 POP JUMPDEST SWAP3 SWAP2 POP POP JUMP JUMPDEST PUSH1 0x2 PUSH0 SLOAD SUB PUSH2 0xED9 JUMPI PUSH1 0x40 MLOAD PUSH32 0x3EE5AEB500000000000000000000000000000000000000000000000000000000 DUP2 MSTORE PUSH1 0x4 ADD PUSH1 0x40 MLOAD DUP1 SWAP2 SUB SWAP1 REVERT JUMPDEST PUSH1 0x2 PUSH0 DUP2 SWAP1 SSTORE POP JUMP JUMPDEST PUSH2 0xF5E DUP5 DUP6 PUSH20 0xFFFFFFFFFFFFFFFFFFFFFFFFFFFFFFFFFFFFFFFF AND PUSH4 0x23B872DD DUP7 DUP7 DUP7 PUSH1 0x40 MLOAD PUSH1 0x24 ADD PUSH2 0xF17 SWAP4 SWAP3 SWAP2 SWAP1 PUSH2 0x197A JUMP JUMPDEST PUSH1 0x40 MLOAD PUSH1 0x20 DUP2 DUP4 SUB SUB DUP2 MSTORE SWAP1 PUSH1 0x40 MSTORE SWAP2 POP PUSH1 0xE0 SHL PUSH1 0x20 DUP3 ADD DUP1 MLOAD PUSH28 0xFFFFFFFFFFFFFFFFFFFFFFFFFFFFFFFFFFFFFFFFFFFFFFFFFFFFFFFF DUP4 DUP2 DUP4 AND OR DUP4 MSTORE POP POP POP POP PUSH2 0x115C JUMP JUMPDEST POP POP POP POP JUMP JUMPDEST PUSH1 0x2 PUSH0 DUP4 PUSH20 0xFFFFFFFFFFFFFFFFFFFFFFFFFFFFFFFFFFFFFFFF AND PUSH20 0xFFFFFFFFFFFFFFFFFFFFFFFFFFFFFFFFFFFFFFFF AND DUP2 MSTORE PUSH1 0x20 ADD SWAP1 DUP2 MSTORE PUSH1 0x20 ADD PUSH0 KECCAK256 PUSH0 SWAP1 SLOAD SWAP1 PUSH2 0x100 EXP SWAP1 DIV PUSH1 0xFF AND PUSH2 0xFEF JUMPI DUP2 PUSH1 0x40 MLOAD PUSH32 0xBF16AAB600000000000000000000000000000000000000000000000000000000 DUP2 MSTORE PUSH1 0x4 ADD PUSH2 0xFE6 SWAP2 SWAP1 PUSH2 0x19AF JUMP JUMPDEST PUSH1 0x40 MLOAD DUP1 SWAP2 SUB SWAP1 REVERT JUMPDEST ADDRESS PUSH20 0xFFFFFFFFFFFFFFFFFFFFFFFFFFFFFFFFFFFFFFFF AND DUP5 PUSH20 0xFFFFFFFFFFFFFFFFFFFFFFFFFFFFFFFFFFFFFFFF AND SUB PUSH2 0x1052 JUMPI PUSH2 0x104D DUP4 DUP3 DUP5 PUSH20 0xFFFFFFFFFFFFFFFFFFFFFFFFFFFFFFFFFFFFFFFF AND PUSH2 0x11F7 SWAP1 SWAP3 SWAP2 SWAP1 PUSH4 0xFFFFFFFF AND JUMP JUMPDEST PUSH2 0x1080 JUMP JUMPDEST PUSH2 0x107F DUP5 DUP5 DUP4 DUP6 PUSH20 0xFFFFFFFFFFFFFFFFFFFFFFFFFFFFFFFFFFFFFFFF AND PUSH2 0xEE2 SWAP1 SWAP4 SWAP3 SWAP2 SWAP1 PUSH4 0xFFFFFFFF AND JUMP JUMPDEST JUMPDEST DUP2 PUSH20 0xFFFFFFFFFFFFFFFFFFFFFFFFFFFFFFFFFFFFFFFF AND DUP4 PUSH20 0xFFFFFFFFFFFFFFFFFFFFFFFFFFFFFFFFFFFFFFFF AND DUP6 PUSH20 0xFFFFFFFFFFFFFFFFFFFFFFFFFFFFFFFFFFFFFFFF AND PUSH32 0x9AF266B6CA4909F988DC948FB50AD15153ABBE525351881BAD4FA858BE96515C DUP5 PUSH1 0x40 MLOAD PUSH2 0x10F4 SWAP2 SWAP1 PUSH2 0x14E2 JUMP JUMPDEST PUSH1 0x40 MLOAD DUP1 SWAP2 SUB SWAP1 LOG4 POP POP POP POP JUMP JUMPDEST PUSH1 0x1 PUSH0 DUP2 SWAP1 SSTORE POP JUMP JUMPDEST PUSH2 0x1115 DUP3 DUP3 PUSH2 0x629 JUMP JUMPDEST PUSH2 0x1158 JUMPI DUP1 DUP3 PUSH1 0x40 MLOAD PUSH32 0xE2517D3F00000000000000000000000000000000000000000000000000000000 DUP2 MSTORE PUSH1 0x4 ADD PUSH2 0x114F SWAP3 SWAP2 SWAP1 PUSH2 0x19C8 JUMP JUMPDEST PUSH1 0x40 MLOAD DUP1 SWAP2 SUB SWAP1 REVERT JUMPDEST POP POP JUMP JUMPDEST PUSH0 DUP1 PUSH1 0x20 PUSH0 DUP5 MLOAD PUSH1 0x20 DUP7 ADD PUSH0 DUP9 GAS CALL DUP1 PUSH2 0x117B JUMPI PUSH1 0x40 MLOAD RETURNDATASIZE PUSH0 DUP3 RETURNDATACOPY RETURNDATASIZE DUP2 REVERT JUMPDEST RETURNDATASIZE SWAP3 POP PUSH0 MLOAD SWAP2 POP POP PUSH0 DUP3 EQ PUSH2 0x1194 JUMPI PUSH1 0x1 DUP2 EQ ISZERO PUSH2 0x11AF JUMP JUMPDEST PUSH0 DUP5 PUSH20 0xFFFFFFFFFFFFFFFFFFFFFFFFFFFFFFFFFFFFFFFF AND EXTCODESIZE EQ JUMPDEST ISZERO PUSH2 0x11F1 JUMPI DUP4 PUSH1 0x40 MLOAD PUSH32 0x5274AFE700000000000000000000000000000000000000000000000000000000 DUP2 MSTORE PUSH1 0x4 ADD PUSH2 0x11E8 SWAP2 SWAP1 PUSH2 0x19AF JUMP JUMPDEST PUSH1 0x40 MLOAD DUP1 SWAP2 SUB SWAP1 REVERT JUMPDEST POP POP POP POP JUMP JUMPDEST PUSH2 0x1271 DUP4 DUP5 PUSH20 0xFFFFFFFFFFFFFFFFFFFFFFFFFFFFFFFFFFFFFFFF AND PUSH4 0xA9059CBB DUP6 DUP6 PUSH1 0x40 MLOAD PUSH1 0x24 ADD PUSH2 0x122A SWAP3 SWAP2 SWAP1 PUSH2 0x19EF JUMP JUMPDEST PUSH1 0x40 MLOAD PUSH1 0x20 DUP2 DUP4 SUB SUB DUP2 MSTORE SWAP1 PUSH1 0x40 MSTORE SWAP2 POP PUSH1 0xE0 SHL PUSH1 0x20 DUP3 ADD DUP1 MLOAD PUSH28 0xFFFFFFFFFFFFFFFFFFFFFFFFFFFFFFFFFFFFFFFFFFFFFFFFFFFFFFFF DUP4 DUP2 DUP4 AND OR DUP4 MSTORE POP POP POP POP PUSH2 0x115C JUMP JUMPDEST POP POP POP JUMP JUMPDEST PUSH0 DUP1 REVERT JUMPDEST PUSH0 DUP1 REVERT JUMPDEST PUSH0 PUSH32 0xFFFFFFFF00000000000000000000000000000000000000000000000000000000 DUP3 AND SWAP1 POP SWAP2 SWAP1 POP JUMP JUMPDEST PUSH2 0x12B2 DUP2 PUSH2 0x127E JUMP JUMPDEST DUP2 EQ PUSH2 0x12BC JUMPI PUSH0 DUP1 REVERT JUMPDEST POP JUMP JUMPDEST PUSH0 DUP2 CALLDATALOAD SWAP1 POP PUSH2 0x12CD DUP2 PUSH2 0x12A9 JUMP JUMPDEST SWAP3 SWAP2 POP POP JUMP JUMPDEST PUSH0 PUSH1 0x20 DUP3 DUP5 SUB SLT ISZERO PUSH2 0x12E8 JUMPI PUSH2 0x12E7 PUSH2 0x1276 JUMP JUMPDEST JUMPDEST PUSH0 PUSH2 0x12F5 DUP5 DUP3 DUP6 ADD PUSH2 0x12BF JUMP JUMPDEST SWAP2 POP POP SWAP3 SWAP2 POP POP JUMP JUMPDEST PUSH0 DUP2 ISZERO ISZERO SWAP1 POP SWAP2 SWAP1 POP JUMP JUMPDEST PUSH2 0x1312 DUP2 PUSH2 0x12FE JUMP JUMPDEST DUP3 MSTORE POP POP JUMP JUMPDEST PUSH0 PUSH1 0x20 DUP3 ADD SWAP1 POP PUSH2 0x132B PUSH0 DUP4 ADD DUP5 PUSH2 0x1309 JUMP JUMPDEST SWAP3 SWAP2 POP POP JUMP JUMPDEST PUSH0 DUP2 SWAP1 POP SWAP2 SWAP1 POP JUMP JUMPDEST PUSH2 0x1343 DUP2 PUSH2 0x1331 JUMP JUMPDEST DUP2 EQ PUSH2 0x134D JUMPI PUSH0 DUP1 REVERT JUMPDEST POP JUMP JUMPDEST PUSH0 DUP2 CALLDATALOAD SWAP1 POP PUSH2 0x135E DUP2 PUSH2 0x133A JUMP JUMPDEST SWAP3 SWAP2 POP POP JUMP JUMPDEST PUSH0 PUSH1 0x20 DUP3 DUP5 SUB SLT ISZERO PUSH2 0x1379 JUMPI PUSH2 0x1378 PUSH2 0x1276 JUMP JUMPDEST JUMPDEST PUSH0 PUSH2 0x1386 DUP5 DUP3 DUP6 ADD PUSH2 0x1350 JUMP JUMPDEST SWAP2 POP POP SWAP3 SWAP2 POP POP JUMP JUMPDEST PUSH2 0x1398 DUP2 PUSH2 0x1331 JUMP JUMPDEST DUP3 MSTORE POP POP JUMP JUMPDEST PUSH0 PUSH1 0x20 DUP3 ADD SWAP1 POP PUSH2 0x13B1 PUSH0 DUP4 ADD DUP5 PUSH2 0x138F JUMP JUMPDEST SWAP3 SWAP2 POP POP JUMP JUMPDEST PUSH0 PUSH20 0xFFFFFFFFFFFFFFFFFFFFFFFFFFFFFFFFFFFFFFFF DUP3 AND SWAP1 POP SWAP2 SWAP1 POP JUMP JUMPDEST PUSH0 PUSH2 0x13E0 DUP3 PUSH2 0x13B7 JUMP JUMPDEST SWAP1 POP SWAP2 SWAP1 POP JUMP JUMPDEST PUSH2 0x13F0 DUP2 PUSH2 0x13D6 JUMP JUMPDEST DUP2 EQ PUSH2 0x13FA JUMPI PUSH0 DUP1 REVERT JUMPDEST POP JUMP JUMPDEST PUSH0 DUP2 CALLDATALOAD SWAP1 POP PUSH2 0x140B DUP2 PUSH2 0x13E7 JUMP JUMPDEST SWAP3 SWAP2 POP POP JUMP JUMPDEST PUSH0 DUP1 PUSH1 0x40 DUP4 DUP6 SUB SLT ISZERO PUSH2 0x1427 JUMPI PUSH2 0x1426 PUSH2 0x1276 JUMP JUMPDEST JUMPDEST PUSH0 PUSH2 0x1434 DUP6 DUP3 DUP7 ADD PUSH2 0x1350 JUMP JUMPDEST SWAP3 POP POP PUSH1 0x20 PUSH2 0x1445 DUP6 DUP3 DUP7 ADD PUSH2 0x13FD JUMP JUMPDEST SWAP2 POP POP SWAP3 POP SWAP3 SWAP1 POP JUMP JUMPDEST PUSH0 PUSH1 0x20 DUP3 DUP5 SUB SLT ISZERO PUSH2 0x1464 JUMPI PUSH2 0x1463 PUSH2 0x1276 JUMP JUMPDEST JUMPDEST PUSH0 PUSH2 0x1471 DUP5 DUP3 DUP6 ADD PUSH2 0x13FD JUMP JUMPDEST SWAP2 POP POP SWAP3 SWAP2 POP POP JUMP JUMPDEST PUSH0 DUP1 PUSH0 PUSH1 0x60 DUP5 DUP7 SUB SLT ISZERO PUSH2 0x1491 JUMPI PUSH2 0x1490 PUSH2 0x1276 JUMP JUMPDEST JUMPDEST PUSH0 PUSH2 0x149E DUP7 DUP3 DUP8 ADD PUSH2 0x13FD JUMP JUMPDEST SWAP4 POP POP PUSH1 0x20 PUSH2 0x14AF DUP7 DUP3 DUP8 ADD PUSH2 0x13FD JUMP JUMPDEST SWAP3 POP POP PUSH1 0x40 PUSH2 0x14C0 DUP7 DUP3 DUP8 ADD PUSH2 0x13FD JUMP JUMPDEST SWAP2 POP POP SWAP3 POP SWAP3 POP SWAP3 JUMP JUMPDEST PUSH0 DUP2 SWAP1 POP SWAP2 SWAP1 POP JUMP JUMPDEST PUSH2 0x14DC DUP2 PUSH2 0x14CA JUMP JUMPDEST DUP3 MSTORE POP POP JUMP JUMPDEST PUSH0 PUSH1 0x20 DUP3 ADD SWAP1 POP PUSH2 0x14F5 PUSH0 DUP4 ADD DUP5 PUSH2 0x14D3 JUMP JUMPDEST SWAP3 SWAP2 POP POP JUMP JUMPDEST PUSH0 DUP1 REVERT JUMPDEST PUSH0 DUP1 REVERT JUMPDEST PUSH0 DUP1 REVERT JUMPDEST PUSH0 DUP1 DUP4 PUSH1 0x1F DUP5 ADD SLT PUSH2 0x151C JUMPI PUSH2 0x151B PUSH2 0x14FB JUMP JUMPDEST JUMPDEST DUP3 CALLDATALOAD SWAP1 POP PUSH8 0xFFFFFFFFFFFFFFFF DUP2 GT ISZERO PUSH2 0x1539 JUMPI PUSH2 0x1538 PUSH2 0x14FF JUMP JUMPDEST JUMPDEST PUSH1 0x20 DUP4 ADD SWAP2 POP DUP4 PUSH1 0x20 DUP3 MUL DUP4 ADD GT ISZERO PUSH2 0x1555 JUMPI PUSH2 0x1554 PUSH2 0x1503 JUMP JUMPDEST JUMPDEST SWAP3 POP SWAP3 SWAP1 POP JUMP JUMPDEST PUSH0 DUP1 DUP4 PUSH1 0x1F DUP5 ADD SLT PUSH2 0x1571 JUMPI PUSH2 0x1570 PUSH2 0x14FB JUMP JUMPDEST JUMPDEST DUP3 CALLDATALOAD SWAP1 POP PUSH8 0xFFFFFFFFFFFFFFFF DUP2 GT ISZERO PUSH2 0x158E JUMPI PUSH2 0x158D PUSH2 0x14FF JUMP JUMPDEST JUMPDEST PUSH1 0x20 DUP4 ADD SWAP2 POP DUP4 PUSH1 0x20 DUP3 MUL DUP4 ADD GT ISZERO PUSH2 0x15AA JUMPI PUSH2 0x15A9 PUSH2 0x1503 JUMP JUMPDEST JUMPDEST SWAP3 POP SWAP3 SWAP1 POP JUMP JUMPDEST PUSH0 DUP1 PUSH0 DUP1 PUSH0 PUSH1 0x60 DUP7 DUP9 SUB SLT ISZERO PUSH2 0x15CA JUMPI PUSH2 0x15C9 PUSH2 0x1276 JUMP JUMPDEST JUMPDEST PUSH0 DUP7 ADD CALLDATALOAD PUSH8 0xFFFFFFFFFFFFFFFF DUP2 GT ISZERO PUSH2 0x15E7 JUMPI PUSH2 0x15E6 PUSH2 0x127A JUMP JUMPDEST JUMPDEST PUSH2 0x15F3 DUP9 DUP3 DUP10 ADD PUSH2 0x1507 JUMP JUMPDEST SWAP6 POP SWAP6 POP POP PUSH1 0x20 PUSH2 0x1606 DUP9 DUP3 DUP10 ADD PUSH2 0x13FD JUMP JUMPDEST SWAP4 POP POP PUSH1 0x40 DUP7 ADD CALLDATALOAD PUSH8 0xFFFFFFFFFFFFFFFF DUP2 GT ISZERO PUSH2 0x1627 JUMPI PUSH2 0x1626 PUSH2 0x127A JUMP JUMPDEST JUMPDEST PUSH2 0x1633 DUP9 DUP3 DUP10 ADD PUSH2 0x155C JUMP JUMPDEST SWAP3 POP SWAP3 POP POP SWAP3 SWAP6 POP SWAP3 SWAP6 SWAP1 SWAP4 POP JUMP JUMPDEST PUSH2 0x164B DUP2 PUSH2 0x14CA JUMP JUMPDEST DUP2 EQ PUSH2 0x1655 JUMPI PUSH0 DUP1 REVERT JUMPDEST POP JUMP JUMPDEST PUSH0 DUP2 CALLDATALOAD SWAP1 POP PUSH2 0x1666 DUP2 PUSH2 0x1642 JUMP JUMPDEST SWAP3 SWAP2 POP POP JUMP JUMPDEST PUSH0 DUP1 PUSH0 PUSH1 0x60 DUP5 DUP7 SUB SLT ISZERO PUSH2 0x1683 JUMPI PUSH2 0x1682 PUSH2 0x1276 JUMP JUMPDEST JUMPDEST PUSH0 PUSH2 0x1690 DUP7 DUP3 DUP8 ADD PUSH2 0x13FD JUMP JUMPDEST SWAP4 POP POP PUSH1 0x20 PUSH2 0x16A1 DUP7 DUP3 DUP8 ADD PUSH2 0x13FD JUMP JUMPDEST SWAP3 POP POP PUSH1 0x40 PUSH2 0x16B2 DUP7 DUP3 DUP8 ADD PUSH2 0x1658 JUMP JUMPDEST SWAP2 POP POP SWAP3 POP SWAP3 POP SWAP3 JUMP JUMPDEST PUSH0 DUP1 PUSH0 DUP1 PUSH1 0x80 DUP6 DUP8 SUB SLT ISZERO PUSH2 0x16D4 JUMPI PUSH2 0x16D3 PUSH2 0x1276 JUMP JUMPDEST JUMPDEST PUSH0 PUSH2 0x16E1 DUP8 DUP3 DUP9 ADD PUSH2 0x13FD JUMP JUMPDEST SWAP5 POP POP PUSH1 0x20 PUSH2 0x16F2 DUP8 DUP3 DUP9 ADD PUSH2 0x13FD JUMP JUMPDEST SWAP4 POP POP PUSH1 0x40 PUSH2 0x1703 DUP8 DUP3 DUP9 ADD PUSH2 0x13FD JUMP JUMPDEST SWAP3 POP POP PUSH1 0x60 PUSH2 0x1714 DUP8 DUP3 DUP9 ADD PUSH2 0x1658 JUMP JUMPDEST SWAP2 POP POP SWAP3 SWAP6 SWAP2 SWAP5 POP SWAP3 POP JUMP JUMPDEST PUSH32 0x4E487B7100000000000000000000000000000000000000000000000000000000 PUSH0 MSTORE PUSH1 0x32 PUSH1 0x4 MSTORE PUSH1 0x24 PUSH0 REVERT JUMPDEST PUSH32 0x4E487B7100000000000000000000000000000000000000000000000000000000 PUSH0 MSTORE PUSH1 0x11 PUSH1 0x4 MSTORE PUSH1 0x24 PUSH0 REVERT JUMPDEST PUSH0 PUSH2 0x1784 DUP3 PUSH2 0x14CA JUMP JUMPDEST SWAP2 POP PUSH2 0x178F DUP4 PUSH2 0x14CA JUMP JUMPDEST SWAP3 POP DUP3 DUP3 ADD SWAP1 POP DUP1 DUP3 GT ISZERO PUSH2 0x17A7 JUMPI PUSH2 0x17A6 PUSH2 0x174D JUMP JUMPDEST JUMPDEST SWAP3 SWAP2 POP POP JUMP JUMPDEST PUSH0 DUP3 DUP3 MSTORE PUSH1 0x20 DUP3 ADD SWAP1 POP SWAP3 SWAP2 POP POP JUMP JUMPDEST PUSH0 DUP2 SWAP1 POP SWAP2 SWAP1 POP JUMP JUMPDEST PUSH2 0x17CF DUP2 PUSH2 0x13D6 JUMP JUMPDEST DUP3 MSTORE POP POP JUMP JUMPDEST PUSH0 PUSH2 0x17E0 DUP4 DUP4 PUSH2 0x17C6 JUMP JUMPDEST PUSH1 0x20 DUP4 ADD SWAP1 POP SWAP3 SWAP2 POP POP JUMP JUMPDEST PUSH0 PUSH2 0x17FA PUSH1 0x20 DUP5 ADD DUP5 PUSH2 0x13FD JUMP JUMPDEST SWAP1 POP SWAP3 SWAP2 POP POP JUMP JUMPDEST PUSH0 PUSH1 0x20 DUP3 ADD SWAP1 POP SWAP2 SWAP1 POP JUMP JUMPDEST PUSH0 PUSH2 0x1819 DUP4 DUP6 PUSH2 0x17AD JUMP JUMPDEST SWAP4 POP PUSH2 0x1824 DUP3 PUSH2 0x17BD JUMP JUMPDEST DUP1 PUSH0 JUMPDEST DUP6 DUP2 LT ISZERO PUSH2 0x185C JUMPI PUSH2 0x1839 DUP3 DUP5 PUSH2 0x17EC JUMP JUMPDEST PUSH2 0x1843 DUP9 DUP3 PUSH2 0x17D5 JUMP JUMPDEST SWAP8 POP PUSH2 0x184E DUP4 PUSH2 0x1802 JUMP JUMPDEST SWAP3 POP POP PUSH1 0x1 DUP2 ADD SWAP1 POP PUSH2 0x1827 JUMP JUMPDEST POP DUP6 SWAP3 POP POP POP SWAP4 SWAP3 POP POP POP JUMP JUMPDEST PUSH0 DUP3 DUP3 MSTORE PUSH1 0x20 DUP3 ADD SWAP1 POP SWAP3 SWAP2 POP POP JUMP JUMPDEST PUSH0 DUP1 REVERT JUMPDEST DUP3 DUP2 DUP4 CALLDATACOPY POP POP POP JUMP JUMPDEST PUSH0 PUSH2 0x1891 DUP4 DUP6 PUSH2 0x1869 JUMP JUMPDEST SWAP4 POP PUSH32 0x7FFFFFFFFFFFFFFFFFFFFFFFFFFFFFFFFFFFFFFFFFFFFFFFFFFFFFFFFFFFFFF DUP4 GT ISZERO PUSH2 0x18C4 JUMPI PUSH2 0x18C3 PUSH2 0x1879 JUMP JUMPDEST JUMPDEST PUSH1 0x20 DUP4 MUL SWAP3 POP PUSH2 0x18D5 DUP4 DUP6 DUP5 PUSH2 0x187D JUMP JUMPDEST DUP3 DUP5 ADD SWAP1 POP SWAP4 SWAP3 POP POP POP JUMP JUMPDEST PUSH0 PUSH1 0x40 DUP3 ADD SWAP1 POP DUP2 DUP2 SUB PUSH0 DUP4 ADD MSTORE PUSH2 0x18FA DUP2 DUP7 DUP9 PUSH2 0x180E JUMP JUMPDEST SWAP1 POP DUP2 DUP2 SUB PUSH1 0x20 DUP4 ADD MSTORE PUSH2 0x190F DUP2 DUP5 DUP7 PUSH2 0x1886 JUMP JUMPDEST SWAP1 POP SWAP6 SWAP5 POP POP POP POP POP JUMP JUMPDEST PUSH2 0x1923 DUP2 PUSH2 0x13D6 JUMP JUMPDEST DUP3 MSTORE POP POP JUMP JUMPDEST PUSH0 PUSH1 0xA0 DUP3 ADD SWAP1 POP PUSH2 0x193C PUSH0 DUP4 ADD DUP9 PUSH2 0x191A JUMP JUMPDEST PUSH2 0x1949 PUSH1 0x20 DUP4 ADD DUP8 PUSH2 0x191A JUMP JUMPDEST PUSH2 0x1956 PUSH1 0x40 DUP4 ADD DUP7 PUSH2 0x191A JUMP JUMPDEST PUSH2 0x1963 PUSH1 0x60 DUP4 ADD DUP6 PUSH2 0x14D3 JUMP JUMPDEST PUSH2 0x1970 PUSH1 0x80 DUP4 ADD DUP5 PUSH2 0x14D3 JUMP JUMPDEST SWAP7 SWAP6 POP POP POP POP POP POP JUMP JUMPDEST PUSH0 PUSH1 0x60 DUP3 ADD SWAP1 POP PUSH2 0x198D PUSH0 DUP4 ADD DUP7 PUSH2 0x191A JUMP JUMPDEST PUSH2 0x199A PUSH1 0x20 DUP4 ADD DUP6 PUSH2 0x191A JUMP JUMPDEST PUSH2 0x19A7 PUSH1 0x40 DUP4 ADD DUP5 PUSH2 0x14D3 JUMP JUMPDEST SWAP5 SWAP4 POP POP POP POP JUMP JUMPDEST PUSH0 PUSH1 0x20 DUP3 ADD SWAP1 POP PUSH2 0x19C2 PUSH0 DUP4 ADD DUP5 PUSH2 0x191A JUMP JUMPDEST SWAP3 SWAP2 POP POP JUMP JUMPDEST PUSH0 PUSH1 0x40 DUP3 ADD SWAP1 POP PUSH2 0x19DB PUSH0 DUP4 ADD DUP6 PUSH2 0x191A JUMP JUMPDEST PUSH2 0x19E8 PUSH1 0x20 DUP4 ADD DUP5 PUSH2 0x138F JUMP JUMPDEST SWAP4 SWAP3 POP POP POP JUMP JUMPDEST PUSH0 PUSH1 0x40 DUP3 ADD SWAP1 POP PUSH2 0x1A02 PUSH0 DUP4 ADD DUP6 PUSH2 0x191A JUMP JUMPDEST PUSH2 0x1A0F PUSH1 0x20 DUP4 ADD DUP5 PUSH2 0x14D3 JUMP JUMPDEST SWAP4 SWAP3 POP POP POP JUMP INVALID LOG2 PUSH5 0x6970667358 0x22 SLT KECCAK256 0xD1 PUSH30 0x2D94125AFBE2AF4C737BC2E5C16883B0285DDE3A9005D61CD1B342FE5470 PUSH5 0x736F6C6343 STOP ADDMOD BYTE STOP CALLER "
				},
				"gasEstimates": {
					"creation": {
						"codeDepositCost": "1346400",
						"executionCost": "infinite",
						"totalCost": "infinite"
					},
					"external": {
						"DEFAULT_ADMIN_ROLE()": "397",
						"TRANSFER_ADMIN_ROLE()": "348",
						"addSupportedToken(address)": "infinite",
						"allowance(address,address,address)": "infinite",
						"batchTransferToken(address[],address,uint256[])": "infinite",
						"getRoleAdmin(bytes32)": "infinite",
						"grantRole(bytes32,address)": "infinite",
						"hasRole(bytes32,address)": "3145",
						"removeSupportedToken(address)": "infinite",
						"renounceRole(bytes32,address)": "infinite",
						"revokeRole(bytes32,address)": "infinite",
						"setAllowance(address,address,uint256)": "infinite",
						"supportedTokens(address)": "2878",
						"supportsInterface(bytes4)": "741",
						"transferToken(address,address,uint256)": "infinite",
						"transferTokenFrom(address,address,address,uint256)": "infinite"
					},
					"internal": {
						"_transferToken(address,address,address,uint256)": "infinite"
					}
				},
				"methodIdentifiers": {
					"DEFAULT_ADMIN_ROLE()": "a217fddf",
					"TRANSFER_ADMIN_ROLE()": "68a37ae8",
					"addSupportedToken(address)": "6d69fcaf",
					"allowance(address,address,address)": "927da105",
					"batchTransferToken(address[],address,uint256[])": "cdb33b81",
					"getRoleAdmin(bytes32)": "248a9ca3",
					"grantRole(bytes32,address)": "2f2ff15d",
					"hasRole(bytes32,address)": "91d14854",
					"removeSupportedToken(address)": "76319190",
					"renounceRole(bytes32,address)": "36568abe",
					"revokeRole(bytes32,address)": "d547741f",
					"setAllowance(address,address,uint256)": "da46098c",
					"supportedTokens(address)": "68c4ac26",
					"supportsInterface(bytes4)": "01ffc9a7",
					"transferToken(address,address,uint256)": "f5537ede",
					"transferTokenFrom(address,address,address,uint256)": "e5994905"
				}
			},
			"storageLayout": {
				"storage": [
					{
						"astId": 1279,
						"contract": "token/TokenTransfer.sol:TokenTransfer",
						"label": "_status",
						"offset": 0,
						"slot": "0",
						"type": "t_uint256"
					},
					{
						"astId": 26,
						"contract": "token/TokenTransfer.sol:TokenTransfer",
						"label": "_roles",
						"offset": 0,
						"slot": "1",
						"type": "t_mapping(t_bytes32,t_struct(RoleData)21_storage)"
					},
					{
						"astId": 1401,
						"contract": "token/TokenTransfer.sol:TokenTransfer",
						"label": "supportedTokens",
						"offset": 0,
						"slot": "2",
						"type": "t_mapping(t_address,t_bool)"
					},
					{
						"astId": 1409,
						"contract": "token/TokenTransfer.sol:TokenTransfer",
						"label": "_allowances",
						"offset": 0,
						"slot": "3",
						"type": "t_mapping(t_address,t_mapping(t_address,t_mapping(t_address,t_uint256)))"
					}
				],
				"types": {
					"t_address": {
						"encoding": "inplace",
						"label": "address",
						"numberOfBytes": "20"
					},
					"t_bool": {
						"encoding": "inplace",
						"label": "bool",
						"numberOfBytes": "1"
					},
					"t_bytes32": {
						"encoding": "inplace",
						"label": "bytes32",
						"numberOfBytes": "32"
					},
					"t_mapping(t_address,t_bool)": {
						"encoding": "mapping",
						"key": "t_address",
						"label": "mapping(address => bool)",
						"numberOfBytes": "32",
						"value": "t_bool"
					},
					"t_mapping(t_address,t_mapping(t_address,t_mapping(t_address,t_uint256)))": {
						"encoding": "mapping",
						"key": "t_address",
						"label": "mapping(address => mapping(address => mapping(address => uint256)))",
						"numberOfBytes": "32",
						"value": "t_mapping(t_address,t_mapping(t_address,t_uint256))"
					},
					"t_mapping(t_address,t_mapping(t_address,t_uint256))": {
						"encoding": "mapping",
						"key": "t_address",
						"label": "mapping(address => mapping(address => uint256))",
						"numberOfBytes": "32",
						"value": "t_mapping(t_address,t_uint256)"
					},
					"t_mapping(t_address,t_uint256)": {
						"encoding": "mapping",
						"key": "t_address",
						"label": "mapping(address => uint256)",
						"numberOfBytes": "32",
						"value": "t_uint256"
					},
					"t_mapping(t_bytes32,t_struct(RoleData)21_storage)": {
						"encoding": "mapping",
						"key": "t_bytes32",
						"label": "mapping(bytes32 => struct AccessControl.RoleData)",
						"numberOfBytes": "32",
						"value": "t_struct(RoleData)21_storage"
					},
					"t_struct(RoleData)21_storage": {
						"encoding": "inplace",
						"label": "struct AccessControl.RoleData",
						"members": [
							{
								"astId": 18,
								"contract": "token/TokenTransfer.sol:TokenTransfer",
								"label": "hasRole",
								"offset": 0,
								"slot": "0",
								"type": "t_mapping(t_address,t_bool)"
							},
							{
								"astId": 20,
								"contract": "token/TokenTransfer.sol:TokenTransfer",
								"label": "adminRole",
								"offset": 0,
								"slot": "1",
								"type": "t_bytes32"
							}
						],
						"numberOfBytes": "64"
					},
					"t_uint256": {
						"encoding": "inplace",
						"label": "uint256",
						"numberOfBytes": "32"
					}
				}
			},
			"userdoc": {
				"kind": "user",
				"methods": {},
				"version": 1
			}
		}
	}
}