{
	"token/TokenVesting.sol": {
		"TokenVesting": {
			"abi": [
				{
					"inputs": [
						{
							"internalType": "address",
							"name": "initialOwner",
							"type": "address"
						},
						{
							"internalType": "address",
							"name": "_token",
							"type": "address"
						},
						{
							"internalType": "address",
							"name": "_treasury",
							"type": "address"
						}
					],
					"stateMutability": "nonpayable",
					"type": "constructor"
				},
				{
					"inputs": [],
					"name": "EnforcedPause",
					"type": "error"
				},
				{
					"inputs": [],
					"name": "ExpectedPause",
					"type": "error"
				},
				{
					"inputs": [
						{
							"internalType": "address",
							"name": "owner",
							"type": "address"
						}
					],
					"name": "OwnableInvalidOwner",
					"type": "error"
				},
				{
					"inputs": [
						{
							"internalType": "address",
							"name": "account",
							"type": "address"
						}
					],
					"name": "OwnableUnauthorizedAccount",
					"type": "error"
				},
				{
					"inputs": [],
					"name": "ReentrancyGuardReentrantCall",
					"type": "error"
				},
				{
					"anonymous": false,
					"inputs": [
						{
							"indexed": true,
							"internalType": "address",
							"name": "previousOwner",
							"type": "address"
						},
						{
							"indexed": true,
							"internalType": "address",
							"name": "newOwner",
							"type": "address"
						}
					],
					"name": "OwnershipTransferred",
					"type": "event"
				},
				{
					"anonymous": false,
					"inputs": [
						{
							"indexed": false,
							"internalType": "address",
							"name": "account",
							"type": "address"
						}
					],
					"name": "Paused",
					"type": "event"
				},
				{
					"anonymous": false,
					"inputs": [
						{
							"indexed": true,
							"internalType": "address",
							"name": "beneficiary",
							"type": "address"
						},
						{
							"indexed": true,
							"internalType": "uint256",
							"name": "scheduleId",
							"type": "uint256"
						},
						{
							"indexed": false,
							"internalType": "uint256",
							"name": "amount",
							"type": "uint256"
						}
					],
					"name": "TokensReleased",
					"type": "event"
				},
				{
					"anonymous": false,
					"inputs": [
						{
							"indexed": true,
							"internalType": "address",
							"name": "oldTreasury",
							"type": "address"
						},
						{
							"indexed": true,
							"internalType": "address",
							"name": "newTreasury",
							"type": "address"
						}
					],
					"name": "TreasuryUpdated",
					"type": "event"
				},
				{
					"anonymous": false,
					"inputs": [
						{
							"indexed": false,
							"internalType": "address",
							"name": "account",
							"type": "address"
						}
					],
					"name": "Unpaused",
					"type": "event"
				},
				{
					"anonymous": false,
					"inputs": [
						{
							"indexed": true,
							"internalType": "address",
							"name": "beneficiary",
							"type": "address"
						},
						{
							"indexed": true,
							"internalType": "uint256",
							"name": "scheduleId",
							"type": "uint256"
						},
						{
							"indexed": false,
							"internalType": "enum TokenVesting.ScheduleType",
							"name": "scheduleType",
							"type": "uint8"
						},
						{
							"indexed": false,
							"internalType": "uint256",
							"name": "amount",
							"type": "uint256"
						}
					],
					"name": "VestingScheduleCreated",
					"type": "event"
				},
				{
					"anonymous": false,
					"inputs": [
						{
							"indexed": true,
							"internalType": "address",
							"name": "beneficiary",
							"type": "address"
						},
						{
							"indexed": true,
							"internalType": "uint256",
							"name": "scheduleId",
							"type": "uint256"
						},
						{
							"indexed": false,
							"internalType": "uint256",
							"name": "refundAmount",
							"type": "uint256"
						}
					],
					"name": "VestingScheduleRevoked",
					"type": "event"
				},
				{
					"inputs": [
						{
							"internalType": "address",
							"name": "beneficiary",
							"type": "address"
						},
						{
							"internalType": "uint256",
							"name": "scheduleId",
							"type": "uint256"
						}
					],
					"name": "computeReleasableAmount",
					"outputs": [
						{
							"internalType": "uint256",
							"name": "",
							"type": "uint256"
						}
					],
					"stateMutability": "view",
					"type": "function"
				},
				{
					"inputs": [
						{
							"internalType": "address",
							"name": "beneficiary",
							"type": "address"
						},
						{
							"internalType": "enum TokenVesting.ScheduleType",
							"name": "scheduleType",
							"type": "uint8"
						},
						{
							"internalType": "uint256",
							"name": "amount",
							"type": "uint256"
						},
						{
							"internalType": "uint256",
							"name": "startTime",
							"type": "uint256"
						},
						{
							"internalType": "uint256",
							"name": "duration",
							"type": "uint256"
						},
						{
							"internalType": "uint256",
							"name": "cliffDuration",
							"type": "uint256"
						},
						{
							"internalType": "uint256",
							"name": "slicePeriod",
							"type": "uint256"
						},
						{
							"internalType": "bool",
							"name": "revocable",
							"type": "bool"
						}
					],
					"name": "createVestingSchedule",
					"outputs": [],
					"stateMutability": "nonpayable",
					"type": "function"
				},
				{
					"inputs": [
						{
							"internalType": "address",
							"name": "beneficiary",
							"type": "address"
						},
						{
							"internalType": "uint256",
							"name": "scheduleId",
							"type": "uint256"
						}
					],
					"name": "getVestingSchedule",
					"outputs": [
						{
							"internalType": "uint256",
							"name": "totalAmount",
							"type": "uint256"
						},
						{
							"internalType": "uint256",
							"name": "releasedAmount",
							"type": "uint256"
						},
						{
							"internalType": "uint256",
							"name": "startTime",
							"type": "uint256"
						},
						{
							"internalType": "uint256",
							"name": "duration",
							"type": "uint256"
						},
						{
							"internalType": "uint256",
							"name": "cliffDuration",
							"type": "uint256"
						},
						{
							"internalType": "uint256",
							"name": "slicePeriod",
							"type": "uint256"
						},
						{
							"internalType": "bool",
							"name": "revocable",
							"type": "bool"
						},
						{
							"internalType": "bool",
							"name": "revoked",
							"type": "bool"
						}
					],
					"stateMutability": "view",
					"type": "function"
				},
				{
					"inputs": [
						{
							"internalType": "enum TokenVesting.ScheduleType",
							"name": "",
							"type": "uint8"
						}
					],
					"name": "maxVestingByType",
					"outputs": [
						{
							"internalType": "uint256",
							"name": "",
							"type": "uint256"
						}
					],
					"stateMutability": "view",
					"type": "function"
				},
				{
					"inputs": [],
					"name": "owner",
					"outputs": [
						{
							"internalType": "address",
							"name": "",
							"type": "address"
						}
					],
					"stateMutability": "view",
					"type": "function"
				},
				{
					"inputs": [],
					"name": "pause",
					"outputs": [],
					"stateMutability": "nonpayable",
					"type": "function"
				},
				{
					"inputs": [],
					"name": "paused",
					"outputs": [
						{
							"internalType": "bool",
							"name": "",
							"type": "bool"
						}
					],
					"stateMutability": "view",
					"type": "function"
				},
				{
					"inputs": [
						{
							"internalType": "uint256",
							"name": "scheduleId",
							"type": "uint256"
						}
					],
					"name": "release",
					"outputs": [],
					"stateMutability": "nonpayable",
					"type": "function"
				},
				{
					"inputs": [],
					"name": "renounceOwnership",
					"outputs": [],
					"stateMutability": "nonpayable",
					"type": "function"
				},
				{
					"inputs": [
						{
							"internalType": "address",
							"name": "beneficiary",
							"type": "address"
						},
						{
							"internalType": "uint256",
							"name": "scheduleId",
							"type": "uint256"
						}
					],
					"name": "revoke",
					"outputs": [],
					"stateMutability": "nonpayable",
					"type": "function"
				},
				{
					"inputs": [],
					"name": "token",
					"outputs": [
						{
							"internalType": "contract IERC20",
							"name": "",
							"type": "address"
						}
					],
					"stateMutability": "view",
					"type": "function"
				},
				{
					"inputs": [
						{
							"internalType": "enum TokenVesting.ScheduleType",
							"name": "",
							"type": "uint8"
						}
					],
					"name": "totalVestedByType",
					"outputs": [
						{
							"internalType": "uint256",
							"name": "",
							"type": "uint256"
						}
					],
					"stateMutability": "view",
					"type": "function"
				},
				{
					"inputs": [
						{
							"internalType": "address",
							"name": "newOwner",
							"type": "address"
						}
					],
					"name": "transferOwnership",
					"outputs": [],
					"stateMutability": "nonpayable",
					"type": "function"
				},
				{
					"inputs": [],
					"name": "treasury",
					"outputs": [
						{
							"internalType": "address",
							"name": "",
							"type": "address"
						}
					],
					"stateMutability": "view",
					"type": "function"
				},
				{
					"inputs": [],
					"name": "unpause",
					"outputs": [],
					"stateMutability": "nonpayable",
					"type": "function"
				},
				{
					"inputs": [
						{
							"internalType": "address",
							"name": "newTreasury",
							"type": "address"
						}
					],
					"name": "updateTreasury",
					"outputs": [],
					"stateMutability": "nonpayable",
					"type": "function"
				},
				{
					"inputs": [
						{
							"internalType": "address",
							"name": "",
							"type": "address"
						}
					],
					"name": "vestingScheduleCount",
					"outputs": [
						{
							"internalType": "uint256",
							"name": "",
							"type": "uint256"
						}
					],
					"stateMutability": "view",
					"type": "function"
				},
				{
					"inputs": [
						{
							"internalType": "address",
							"name": "",
							"type": "address"
						},
						{
							"internalType": "uint256",
							"name": "",
							"type": "uint256"
						}
					],
					"name": "vestingSchedules",
					"outputs": [
						{
							"internalType": "uint256",
							"name": "totalAmount",
							"type": "uint256"
						},
						{
							"internalType": "uint256",
							"name": "releasedAmount",
							"type": "uint256"
						},
						{
							"internalType": "uint256",
							"name": "startTime",
							"type": "uint256"
						},
						{
							"internalType": "uint256",
							"name": "duration",
							"type": "uint256"
						},
						{
							"internalType": "uint256",
							"name": "cliffDuration",
							"type": "uint256"
						},
						{
							"internalType": "uint256",
							"name": "slicePeriod",
							"type": "uint256"
						},
						{
							"internalType": "bool",
							"name": "revocable",
							"type": "bool"
						},
						{
							"internalType": "bool",
							"name": "revoked",
							"type": "bool"
						}
					],
					"stateMutability": "view",
					"type": "function"
				},
				{
					"inputs": [],
					"name": "vestingSchedulesCount",
					"outputs": [
						{
							"internalType": "uint256",
							"name": "",
							"type": "uint256"
						}
					],
					"stateMutability": "view",
					"type": "function"
				}
			],
			"devdoc": {
				"details": "Supports multiple beneficiaries with different vesting schedules",
				"errors": {
					"EnforcedPause()": [
						{
							"details": "The operation failed because the contract is paused."
						}
					],
					"ExpectedPause()": [
						{
							"details": "The operation failed because the contract is not paused."
						}
					],
					"OwnableInvalidOwner(address)": [
						{
							"details": "The owner is not a valid owner account. (eg. `address(0)`)"
						}
					],
					"OwnableUnauthorizedAccount(address)": [
						{
							"details": "The caller account is not authorized to perform an operation."
						}
					],
					"ReentrancyGuardReentrantCall()": [
						{
							"details": "Unauthorized reentrant call."
						}
					]
				},
				"events": {
					"Paused(address)": {
						"details": "Emitted when the pause is triggered by `account`."
					},
					"Unpaused(address)": {
						"details": "Emitted when the pause is lifted by `account`."
					}
				},
				"kind": "dev",
				"methods": {
					"constructor": {
						"params": {
							"_token": "CipherZeroToken address",
							"_treasury": "Treasury address",
							"initialOwner": "Initial owner address"
						}
					},
					"owner()": {
						"details": "Returns the address of the current owner."
					},
					"paused()": {
						"details": "Returns true if the contract is paused, and false otherwise."
					},
					"renounceOwnership()": {
						"details": "Leaves the contract without owner. It will not be possible to call `onlyOwner` functions. Can only be called by the current owner. NOTE: Renouncing ownership will leave the contract without an owner, thereby disabling any functionality that is only available to the owner."
					},
					"transferOwnership(address)": {
						"details": "Transfers ownership of the contract to a new account (`newOwner`). Can only be called by the current owner."
					}
				},
				"title": "TokenVesting",
				"version": 1
			},
			"evm": {
				"assembly": "    /* \"token/TokenVesting.sol\":503:9544  contract TokenVesting is Ownable, ReentrancyGuard, Pausable {... */\n  mstore(0x40, 0x80)\n    /* \"token/TokenVesting.sol\":2637:3432  constructor(... */\n  callvalue\n  dup1\n  iszero\n  tag_1\n  jumpi\n  0x00\n  dup1\n  revert\ntag_1:\n  pop\n  mload(0x40)\n  sub(codesize, bytecodeSize)\n  dup1\n  bytecodeSize\n  dup4\n  codecopy\n  dup2\n  dup2\n  add\n  0x40\n  mstore\n  dup2\n  add\n  swap1\n  tag_2\n  swap2\n  swap1\n  tag_3\n  jump\t// in\ntag_2:\n    /* \"token/TokenVesting.sol\":2744:2756  initialOwner */\n  dup3\n    /* \"@openzeppelin/contracts/access/Ownable.sol\":1297:1298  0 */\n  0x00\n    /* \"@openzeppelin/contracts/access/Ownable.sol\":1273:1299  initialOwner == address(0) */\n  0xffffffffffffffffffffffffffffffffffffffff\n  and\n    /* \"@openzeppelin/contracts/access/Ownable.sol\":1273:1285  initialOwner */\n  dup2\n    /* \"@openzeppelin/contracts/access/Ownable.sol\":1273:1299  initialOwner == address(0) */\n  0xffffffffffffffffffffffffffffffffffffffff\n  and\n  sub\n    /* \"@openzeppelin/contracts/access/Ownable.sol\":1269:1364  if (initialOwner == address(0)) {... */\n  tag_9\n  jumpi\n    /* \"@openzeppelin/contracts/access/Ownable.sol\":1350:1351  0 */\n  0x00\n    /* \"@openzeppelin/contracts/access/Ownable.sol\":1322:1353  OwnableInvalidOwner(address(0)) */\n  mload(0x40)\n  0x1e4fbdf700000000000000000000000000000000000000000000000000000000\n  dup2\n  mstore\n  0x04\n  add\n  tag_10\n  swap2\n  swap1\n  tag_11\n  jump\t// in\ntag_10:\n  mload(0x40)\n  dup1\n  swap2\n  sub\n  swap1\n  revert\n    /* \"@openzeppelin/contracts/access/Ownable.sol\":1269:1364  if (initialOwner == address(0)) {... */\ntag_9:\n    /* \"@openzeppelin/contracts/access/Ownable.sol\":1373:1405  _transferOwnership(initialOwner) */\n  tag_12\n    /* \"@openzeppelin/contracts/access/Ownable.sol\":1392:1404  initialOwner */\n  dup2\n    /* \"@openzeppelin/contracts/access/Ownable.sol\":1373:1391  _transferOwnership */\n  shl(0x20, tag_13)\n    /* \"@openzeppelin/contracts/access/Ownable.sol\":1373:1405  _transferOwnership(initialOwner) */\n  0x20\n  shr\n  jump\t// in\ntag_12:\n    /* \"@openzeppelin/contracts/access/Ownable.sol\":1225:1412  constructor(address initialOwner) {... */\n  pop\n    /* \"@openzeppelin/contracts/utils/ReentrancyGuard.sol\":1857:1858  1 */\n  0x01\n    /* \"@openzeppelin/contracts/utils/ReentrancyGuard.sol\":2061:2068  _status */\n  dup1\n    /* \"@openzeppelin/contracts/utils/ReentrancyGuard.sol\":2061:2082  _status = NOT_ENTERED */\n  dup2\n  swap1\n  sstore\n  pop\n    /* \"@openzeppelin/contracts/utils/Pausable.sol\":1241:1246  false */\n  0x00\n    /* \"@openzeppelin/contracts/utils/Pausable.sol\":1231:1238  _paused */\n  0x02\n  0x00\n    /* \"@openzeppelin/contracts/utils/Pausable.sol\":1231:1246  _paused = false */\n  0x0100\n  exp\n  dup2\n  sload\n  dup2\n  0xff\n  mul\n  not\n  and\n  swap1\n  dup4\n  iszero\n  iszero\n  mul\n  or\n  swap1\n  sstore\n  pop\n    /* \"token/TokenVesting.sol\":2794:2795  0 */\n  0x00\n    /* \"token/TokenVesting.sol\":2776:2796  _token != address(0) */\n  0xffffffffffffffffffffffffffffffffffffffff\n  and\n    /* \"token/TokenVesting.sol\":2776:2782  _token */\n  dup3\n    /* \"token/TokenVesting.sol\":2776:2796  _token != address(0) */\n  0xffffffffffffffffffffffffffffffffffffffff\n  and\n  sub\n    /* \"token/TokenVesting.sol\":2768:2822  require(_token != address(0), \"Invalid token address\") */\n  tag_17\n  jumpi\n  mload(0x40)\n  0x08c379a000000000000000000000000000000000000000000000000000000000\n  dup2\n  mstore\n  0x04\n  add\n  tag_18\n  swap1\n  tag_19\n  jump\t// in\ntag_18:\n  mload(0x40)\n  dup1\n  swap2\n  sub\n  swap1\n  revert\ntag_17:\n    /* \"token/TokenVesting.sol\":2861:2862  0 */\n  0x00\n    /* \"token/TokenVesting.sol\":2840:2863  _treasury != address(0) */\n  0xffffffffffffffffffffffffffffffffffffffff\n  and\n    /* \"token/TokenVesting.sol\":2840:2849  _treasury */\n  dup2\n    /* \"token/TokenVesting.sol\":2840:2863  _treasury != address(0) */\n  0xffffffffffffffffffffffffffffffffffffffff\n  and\n  sub\n    /* \"token/TokenVesting.sol\":2832:2892  require(_treasury != address(0), \"Invalid treasury address\") */\n  tag_20\n  jumpi\n  mload(0x40)\n  0x08c379a000000000000000000000000000000000000000000000000000000000\n  dup2\n  mstore\n  0x04\n  add\n  tag_21\n  swap1\n  tag_22\n  jump\t// in\ntag_21:\n  mload(0x40)\n  dup1\n  swap2\n  sub\n  swap1\n  revert\ntag_20:\n    /* \"token/TokenVesting.sol\":2926:2932  _token */\n  dup2\n    /* \"token/TokenVesting.sol\":2911:2916  token */\n  0x02\n  0x01\n    /* \"token/TokenVesting.sol\":2911:2933  token = IERC20(_token) */\n  0x0100\n  exp\n  dup2\n  sload\n  dup2\n  0xffffffffffffffffffffffffffffffffffffffff\n  mul\n  not\n  and\n  swap1\n  dup4\n  0xffffffffffffffffffffffffffffffffffffffff\n  and\n  mul\n  or\n  swap1\n  sstore\n  pop\n    /* \"token/TokenVesting.sol\":2954:2963  _treasury */\n  dup1\n    /* \"token/TokenVesting.sol\":2943:2951  treasury */\n  0x08\n  0x00\n    /* \"token/TokenVesting.sol\":2943:2963  treasury = _treasury */\n  0x0100\n  exp\n  dup2\n  sload\n  dup2\n  0xffffffffffffffffffffffffffffffffffffffff\n  mul\n  not\n  and\n  swap1\n  dup4\n  0xffffffffffffffffffffffffffffffffffffffff\n  and\n  mul\n  or\n  swap1\n  sstore\n  pop\n    /* \"token/TokenVesting.sol\":3062:3082  150_000_000 * 10**18 */\n  0x7c13bc4b2c133c56000000\n    /* \"token/TokenVesting.sol\":3024:3040  maxVestingByType */\n  0x06\n    /* \"token/TokenVesting.sol\":3024:3059  maxVestingByType[ScheduleType.TEAM] */\n  0x00\n    /* \"token/TokenVesting.sol\":3041:3058  ScheduleType.TEAM */\n  dup1\n    /* \"token/TokenVesting.sol\":3024:3059  maxVestingByType[ScheduleType.TEAM] */\n  0x04\n  dup2\n  gt\n  iszero\n  tag_23\n  jumpi\n  tag_24\n  tag_25\n  jump\t// in\ntag_24:\ntag_23:\n  0x04\n  dup2\n  gt\n  iszero\n  tag_26\n  jumpi\n  tag_27\n  tag_25\n  jump\t// in\ntag_27:\ntag_26:\n  dup2\n  mstore\n  0x20\n  add\n  swap1\n  dup2\n  mstore\n  0x20\n  add\n  0x00\n  keccak256\n    /* \"token/TokenVesting.sol\":3024:3082  maxVestingByType[ScheduleType.TEAM] = 150_000_000 * 10**18 */\n  dup2\n  swap1\n  sstore\n  pop\n    /* \"token/TokenVesting.sol\":3149:3169  250_000_000 * 10**18 */\n  0xcecb8f27f4200f3a000000\n    /* \"token/TokenVesting.sol\":3106:3122  maxVestingByType */\n  0x06\n    /* \"token/TokenVesting.sol\":3106:3146  maxVestingByType[ScheduleType.ECOSYSTEM] */\n  0x00\n    /* \"token/TokenVesting.sol\":3123:3145  ScheduleType.ECOSYSTEM */\n  0x01\n    /* \"token/TokenVesting.sol\":3106:3146  maxVestingByType[ScheduleType.ECOSYSTEM] */\n  0x04\n  dup2\n  gt\n  iszero\n  tag_28\n  jumpi\n  tag_29\n  tag_25\n  jump\t// in\ntag_29:\ntag_28:\n  0x04\n  dup2\n  gt\n  iszero\n  tag_30\n  jumpi\n  tag_31\n  tag_25\n  jump\t// in\ntag_31:\ntag_30:\n  dup2\n  mstore\n  0x20\n  add\n  swap1\n  dup2\n  mstore\n  0x20\n  add\n  0x00\n  keccak256\n    /* \"token/TokenVesting.sol\":3106:3169  maxVestingByType[ScheduleType.ECOSYSTEM] = 250_000_000 * 10**18 */\n  dup2\n  swap1\n  sstore\n  pop\n    /* \"token/TokenVesting.sol\":3231:3250  50_000_000 * 10**18 */\n  0x295be96e64066972000000\n    /* \"token/TokenVesting.sol\":3188:3204  maxVestingByType */\n  0x06\n    /* \"token/TokenVesting.sol\":3188:3228  maxVestingByType[ScheduleType.COMMUNITY] */\n  0x00\n    /* \"token/TokenVesting.sol\":3205:3227  ScheduleType.COMMUNITY */\n  0x02\n    /* \"token/TokenVesting.sol\":3188:3228  maxVestingByType[ScheduleType.COMMUNITY] */\n  0x04\n  dup2\n  gt\n  iszero\n  tag_32\n  jumpi\n  tag_33\n  tag_25\n  jump\t// in\ntag_33:\ntag_32:\n  0x04\n  dup2\n  gt\n  iszero\n  tag_34\n  jumpi\n  tag_35\n  tag_25\n  jump\t// in\ntag_35:\ntag_34:\n  dup2\n  mstore\n  0x20\n  add\n  swap1\n  dup2\n  mstore\n  0x20\n  add\n  0x00\n  keccak256\n    /* \"token/TokenVesting.sol\":3188:3250  maxVestingByType[ScheduleType.COMMUNITY] = 50_000_000 * 10**18 */\n  dup2\n  swap1\n  sstore\n  pop\n    /* \"token/TokenVesting.sol\":3315:3335  200_000_000 * 10**18 */\n  0xa56fa5b99019a5c8000000\n    /* \"token/TokenVesting.sol\":3269:3285  maxVestingByType */\n  0x06\n    /* \"token/TokenVesting.sol\":3269:3312  maxVestingByType[ScheduleType.PRIVATE_SALE] */\n  0x00\n    /* \"token/TokenVesting.sol\":3286:3311  ScheduleType.PRIVATE_SALE */\n  0x03\n    /* \"token/TokenVesting.sol\":3269:3312  maxVestingByType[ScheduleType.PRIVATE_SALE] */\n  0x04\n  dup2\n  gt\n  iszero\n  tag_36\n  jumpi\n  tag_37\n  tag_25\n  jump\t// in\ntag_37:\ntag_36:\n  0x04\n  dup2\n  gt\n  iszero\n  tag_38\n  jumpi\n  tag_39\n  tag_25\n  jump\t// in\ntag_39:\ntag_38:\n  dup2\n  mstore\n  0x20\n  add\n  swap1\n  dup2\n  mstore\n  0x20\n  add\n  0x00\n  keccak256\n    /* \"token/TokenVesting.sol\":3269:3335  maxVestingByType[ScheduleType.PRIVATE_SALE] = 200_000_000 * 10**18 */\n  dup2\n  swap1\n  sstore\n  pop\n    /* \"token/TokenVesting.sol\":3397:3417  200_000_000 * 10**18 */\n  0xa56fa5b99019a5c8000000\n    /* \"token/TokenVesting.sol\":3352:3368  maxVestingByType */\n  0x06\n    /* \"token/TokenVesting.sol\":3352:3394  maxVestingByType[ScheduleType.PUBLIC_SALE] */\n  0x00\n    /* \"token/TokenVesting.sol\":3369:3393  ScheduleType.PUBLIC_SALE */\n  0x04\n    /* \"token/TokenVesting.sol\":3352:3394  maxVestingByType[ScheduleType.PUBLIC_SALE] */\n  dup1\n  dup2\n  gt\n  iszero\n  tag_40\n  jumpi\n  tag_41\n  tag_25\n  jump\t// in\ntag_41:\ntag_40:\n  0x04\n  dup2\n  gt\n  iszero\n  tag_42\n  jumpi\n  tag_43\n  tag_25\n  jump\t// in\ntag_43:\ntag_42:\n  dup2\n  mstore\n  0x20\n  add\n  swap1\n  dup2\n  mstore\n  0x20\n  add\n  0x00\n  keccak256\n    /* \"token/TokenVesting.sol\":3352:3417  maxVestingByType[ScheduleType.PUBLIC_SALE] = 200_000_000 * 10**18 */\n  dup2\n  swap1\n  sstore\n  pop\n    /* \"token/TokenVesting.sol\":2637:3432  constructor(... */\n  pop\n  pop\n  pop\n    /* \"token/TokenVesting.sol\":503:9544  contract TokenVesting is Ownable, ReentrancyGuard, Pausable {... */\n  jump(tag_44)\n    /* \"@openzeppelin/contracts/access/Ownable.sol\":2912:3099  function _transferOwnership(address newOwner) internal virtual {... */\ntag_13:\n    /* \"@openzeppelin/contracts/access/Ownable.sol\":2985:3001  address oldOwner */\n  0x00\n    /* \"@openzeppelin/contracts/access/Ownable.sol\":3004:3010  _owner */\n  dup1\n  0x00\n  swap1\n  sload\n  swap1\n  0x0100\n  exp\n  swap1\n  div\n  0xffffffffffffffffffffffffffffffffffffffff\n  and\n    /* \"@openzeppelin/contracts/access/Ownable.sol\":2985:3010  address oldOwner = _owner */\n  swap1\n  pop\n    /* \"@openzeppelin/contracts/access/Ownable.sol\":3029:3037  newOwner */\n  dup2\n    /* \"@openzeppelin/contracts/access/Ownable.sol\":3020:3026  _owner */\n  0x00\n  dup1\n    /* \"@openzeppelin/contracts/access/Ownable.sol\":3020:3037  _owner = newOwner */\n  0x0100\n  exp\n  dup2\n  sload\n  dup2\n  0xffffffffffffffffffffffffffffffffffffffff\n  mul\n  not\n  and\n  swap1\n  dup4\n  0xffffffffffffffffffffffffffffffffffffffff\n  and\n  mul\n  or\n  swap1\n  sstore\n  pop\n    /* \"@openzeppelin/contracts/access/Ownable.sol\":3083:3091  newOwner */\n  dup2\n    /* \"@openzeppelin/contracts/access/Ownable.sol\":3052:3092  OwnershipTransferred(oldOwner, newOwner) */\n  0xffffffffffffffffffffffffffffffffffffffff\n  and\n    /* \"@openzeppelin/contracts/access/Ownable.sol\":3073:3081  oldOwner */\n  dup2\n    /* \"@openzeppelin/contracts/access/Ownable.sol\":3052:3092  OwnershipTransferred(oldOwner, newOwner) */\n  0xffffffffffffffffffffffffffffffffffffffff\n  and\n  0x8be0079c531659141344cd1fd0a4f28419497f9722a3daafe3b4186f6b6457e0\n  mload(0x40)\n  mload(0x40)\n  dup1\n  swap2\n  sub\n  swap1\n  log3\n    /* \"@openzeppelin/contracts/access/Ownable.sol\":2975:3099  {... */\n  pop\n    /* \"@openzeppelin/contracts/access/Ownable.sol\":2912:3099  function _transferOwnership(address newOwner) internal virtual {... */\n  pop\n  jump\t// out\n    /* \"#utility.yul\":88:205   */\ntag_47:\n    /* \"#utility.yul\":197:198   */\n  0x00\n    /* \"#utility.yul\":194:195   */\n  dup1\n    /* \"#utility.yul\":187:199   */\n  revert\n    /* \"#utility.yul\":334:460   */\ntag_49:\n    /* \"#utility.yul\":371:378   */\n  0x00\n    /* \"#utility.yul\":411:453   */\n  0xffffffffffffffffffffffffffffffffffffffff\n    /* \"#utility.yul\":404:409   */\n  dup3\n    /* \"#utility.yul\":400:454   */\n  and\n    /* \"#utility.yul\":389:454   */\n  swap1\n  pop\n    /* \"#utility.yul\":334:460   */\n  swap2\n  swap1\n  pop\n  jump\t// out\n    /* \"#utility.yul\":466:562   */\ntag_50:\n    /* \"#utility.yul\":503:510   */\n  0x00\n    /* \"#utility.yul\":532:556   */\n  tag_65\n    /* \"#utility.yul\":550:555   */\n  dup3\n    /* \"#utility.yul\":532:556   */\n  tag_49\n  jump\t// in\ntag_65:\n    /* \"#utility.yul\":521:556   */\n  swap1\n  pop\n    /* \"#utility.yul\":466:562   */\n  swap2\n  swap1\n  pop\n  jump\t// out\n    /* \"#utility.yul\":568:690   */\ntag_51:\n    /* \"#utility.yul\":641:665   */\n  tag_67\n    /* \"#utility.yul\":659:664   */\n  dup2\n    /* \"#utility.yul\":641:665   */\n  tag_50\n  jump\t// in\ntag_67:\n    /* \"#utility.yul\":634:639   */\n  dup2\n    /* \"#utility.yul\":631:666   */\n  eq\n    /* \"#utility.yul\":621:684   */\n  tag_68\n  jumpi\n    /* \"#utility.yul\":680:681   */\n  0x00\n    /* \"#utility.yul\":677:678   */\n  dup1\n    /* \"#utility.yul\":670:682   */\n  revert\n    /* \"#utility.yul\":621:684   */\ntag_68:\n    /* \"#utility.yul\":568:690   */\n  pop\n  jump\t// out\n    /* \"#utility.yul\":696:839   */\ntag_52:\n    /* \"#utility.yul\":753:758   */\n  0x00\n    /* \"#utility.yul\":784:790   */\n  dup2\n    /* \"#utility.yul\":778:791   */\n  mload\n    /* \"#utility.yul\":769:791   */\n  swap1\n  pop\n    /* \"#utility.yul\":800:833   */\n  tag_70\n    /* \"#utility.yul\":827:832   */\n  dup2\n    /* \"#utility.yul\":800:833   */\n  tag_51\n  jump\t// in\ntag_70:\n    /* \"#utility.yul\":696:839   */\n  swap3\n  swap2\n  pop\n  pop\n  jump\t// out\n    /* \"#utility.yul\":845:1508   */\ntag_3:\n    /* \"#utility.yul\":933:939   */\n  0x00\n    /* \"#utility.yul\":941:947   */\n  dup1\n    /* \"#utility.yul\":949:955   */\n  0x00\n    /* \"#utility.yul\":998:1000   */\n  0x60\n    /* \"#utility.yul\":986:995   */\n  dup5\n    /* \"#utility.yul\":977:984   */\n  dup7\n    /* \"#utility.yul\":973:996   */\n  sub\n    /* \"#utility.yul\":969:1001   */\n  slt\n    /* \"#utility.yul\":966:1085   */\n  iszero\n  tag_72\n  jumpi\n    /* \"#utility.yul\":1004:1083   */\n  tag_73\n  tag_47\n  jump\t// in\ntag_73:\n    /* \"#utility.yul\":966:1085   */\ntag_72:\n    /* \"#utility.yul\":1124:1125   */\n  0x00\n    /* \"#utility.yul\":1149:1213   */\n  tag_74\n    /* \"#utility.yul\":1205:1212   */\n  dup7\n    /* \"#utility.yul\":1196:1202   */\n  dup3\n    /* \"#utility.yul\":1185:1194   */\n  dup8\n    /* \"#utility.yul\":1181:1203   */\n  add\n    /* \"#utility.yul\":1149:1213   */\n  tag_52\n  jump\t// in\ntag_74:\n    /* \"#utility.yul\":1139:1213   */\n  swap4\n  pop\n    /* \"#utility.yul\":1095:1223   */\n  pop\n    /* \"#utility.yul\":1262:1264   */\n  0x20\n    /* \"#utility.yul\":1288:1352   */\n  tag_75\n    /* \"#utility.yul\":1344:1351   */\n  dup7\n    /* \"#utility.yul\":1335:1341   */\n  dup3\n    /* \"#utility.yul\":1324:1333   */\n  dup8\n    /* \"#utility.yul\":1320:1342   */\n  add\n    /* \"#utility.yul\":1288:1352   */\n  tag_52\n  jump\t// in\ntag_75:\n    /* \"#utility.yul\":1278:1352   */\n  swap3\n  pop\n    /* \"#utility.yul\":1233:1362   */\n  pop\n    /* \"#utility.yul\":1401:1403   */\n  0x40\n    /* \"#utility.yul\":1427:1491   */\n  tag_76\n    /* \"#utility.yul\":1483:1490   */\n  dup7\n    /* \"#utility.yul\":1474:1480   */\n  dup3\n    /* \"#utility.yul\":1463:1472   */\n  dup8\n    /* \"#utility.yul\":1459:1481   */\n  add\n    /* \"#utility.yul\":1427:1491   */\n  tag_52\n  jump\t// in\ntag_76:\n    /* \"#utility.yul\":1417:1491   */\n  swap2\n  pop\n    /* \"#utility.yul\":1372:1501   */\n  pop\n    /* \"#utility.yul\":845:1508   */\n  swap3\n  pop\n  swap3\n  pop\n  swap3\n  jump\t// out\n    /* \"#utility.yul\":1514:1632   */\ntag_53:\n    /* \"#utility.yul\":1601:1625   */\n  tag_78\n    /* \"#utility.yul\":1619:1624   */\n  dup2\n    /* \"#utility.yul\":1601:1625   */\n  tag_50\n  jump\t// in\ntag_78:\n    /* \"#utility.yul\":1596:1599   */\n  dup3\n    /* \"#utility.yul\":1589:1626   */\n  mstore\n    /* \"#utility.yul\":1514:1632   */\n  pop\n  pop\n  jump\t// out\n    /* \"#utility.yul\":1638:1860   */\ntag_11:\n    /* \"#utility.yul\":1731:1735   */\n  0x00\n    /* \"#utility.yul\":1769:1771   */\n  0x20\n    /* \"#utility.yul\":1758:1767   */\n  dup3\n    /* \"#utility.yul\":1754:1772   */\n  add\n    /* \"#utility.yul\":1746:1772   */\n  swap1\n  pop\n    /* \"#utility.yul\":1782:1853   */\n  tag_80\n    /* \"#utility.yul\":1850:1851   */\n  0x00\n    /* \"#utility.yul\":1839:1848   */\n  dup4\n    /* \"#utility.yul\":1835:1852   */\n  add\n    /* \"#utility.yul\":1826:1832   */\n  dup5\n    /* \"#utility.yul\":1782:1853   */\n  tag_53\n  jump\t// in\ntag_80:\n    /* \"#utility.yul\":1638:1860   */\n  swap3\n  swap2\n  pop\n  pop\n  jump\t// out\n    /* \"#utility.yul\":1866:2035   */\ntag_54:\n    /* \"#utility.yul\":1950:1961   */\n  0x00\n    /* \"#utility.yul\":1984:1990   */\n  dup3\n    /* \"#utility.yul\":1979:1982   */\n  dup3\n    /* \"#utility.yul\":1972:1991   */\n  mstore\n    /* \"#utility.yul\":2024:2028   */\n  0x20\n    /* \"#utility.yul\":2019:2022   */\n  dup3\n    /* \"#utility.yul\":2015:2029   */\n  add\n    /* \"#utility.yul\":2000:2029   */\n  swap1\n  pop\n    /* \"#utility.yul\":1866:2035   */\n  swap3\n  swap2\n  pop\n  pop\n  jump\t// out\n    /* \"#utility.yul\":2041:2212   */\ntag_55:\n    /* \"#utility.yul\":2181:2204   */\n  0x496e76616c696420746f6b656e20616464726573730000000000000000000000\n    /* \"#utility.yul\":2177:2178   */\n  0x00\n    /* \"#utility.yul\":2169:2175   */\n  dup3\n    /* \"#utility.yul\":2165:2179   */\n  add\n    /* \"#utility.yul\":2158:2205   */\n  mstore\n    /* \"#utility.yul\":2041:2212   */\n  pop\n  jump\t// out\n    /* \"#utility.yul\":2218:2584   */\ntag_56:\n    /* \"#utility.yul\":2360:2363   */\n  0x00\n    /* \"#utility.yul\":2381:2448   */\n  tag_84\n    /* \"#utility.yul\":2445:2447   */\n  0x15\n    /* \"#utility.yul\":2440:2443   */\n  dup4\n    /* \"#utility.yul\":2381:2448   */\n  tag_54\n  jump\t// in\ntag_84:\n    /* \"#utility.yul\":2374:2448   */\n  swap2\n  pop\n    /* \"#utility.yul\":2457:2550   */\n  tag_85\n    /* \"#utility.yul\":2546:2549   */\n  dup3\n    /* \"#utility.yul\":2457:2550   */\n  tag_55\n  jump\t// in\ntag_85:\n    /* \"#utility.yul\":2575:2577   */\n  0x20\n    /* \"#utility.yul\":2570:2573   */\n  dup3\n    /* \"#utility.yul\":2566:2578   */\n  add\n    /* \"#utility.yul\":2559:2578   */\n  swap1\n  pop\n    /* \"#utility.yul\":2218:2584   */\n  swap2\n  swap1\n  pop\n  jump\t// out\n    /* \"#utility.yul\":2590:3009   */\ntag_19:\n    /* \"#utility.yul\":2756:2760   */\n  0x00\n    /* \"#utility.yul\":2794:2796   */\n  0x20\n    /* \"#utility.yul\":2783:2792   */\n  dup3\n    /* \"#utility.yul\":2779:2797   */\n  add\n    /* \"#utility.yul\":2771:2797   */\n  swap1\n  pop\n    /* \"#utility.yul\":2843:2852   */\n  dup2\n    /* \"#utility.yul\":2837:2841   */\n  dup2\n    /* \"#utility.yul\":2833:2853   */\n  sub\n    /* \"#utility.yul\":2829:2830   */\n  0x00\n    /* \"#utility.yul\":2818:2827   */\n  dup4\n    /* \"#utility.yul\":2814:2831   */\n  add\n    /* \"#utility.yul\":2807:2854   */\n  mstore\n    /* \"#utility.yul\":2871:3002   */\n  tag_87\n    /* \"#utility.yul\":2997:3001   */\n  dup2\n    /* \"#utility.yul\":2871:3002   */\n  tag_56\n  jump\t// in\ntag_87:\n    /* \"#utility.yul\":2863:3002   */\n  swap1\n  pop\n    /* \"#utility.yul\":2590:3009   */\n  swap2\n  swap1\n  pop\n  jump\t// out\n    /* \"#utility.yul\":3015:3189   */\ntag_57:\n    /* \"#utility.yul\":3155:3181   */\n  0x496e76616c696420747265617375727920616464726573730000000000000000\n    /* \"#utility.yul\":3151:3152   */\n  0x00\n    /* \"#utility.yul\":3143:3149   */\n  dup3\n    /* \"#utility.yul\":3139:3153   */\n  add\n    /* \"#utility.yul\":3132:3182   */\n  mstore\n    /* \"#utility.yul\":3015:3189   */\n  pop\n  jump\t// out\n    /* \"#utility.yul\":3195:3561   */\ntag_58:\n    /* \"#utility.yul\":3337:3340   */\n  0x00\n    /* \"#utility.yul\":3358:3425   */\n  tag_90\n    /* \"#utility.yul\":3422:3424   */\n  0x18\n    /* \"#utility.yul\":3417:3420   */\n  dup4\n    /* \"#utility.yul\":3358:3425   */\n  tag_54\n  jump\t// in\ntag_90:\n    /* \"#utility.yul\":3351:3425   */\n  swap2\n  pop\n    /* \"#utility.yul\":3434:3527   */\n  tag_91\n    /* \"#utility.yul\":3523:3526   */\n  dup3\n    /* \"#utility.yul\":3434:3527   */\n  tag_57\n  jump\t// in\ntag_91:\n    /* \"#utility.yul\":3552:3554   */\n  0x20\n    /* \"#utility.yul\":3547:3550   */\n  dup3\n    /* \"#utility.yul\":3543:3555   */\n  add\n    /* \"#utility.yul\":3536:3555   */\n  swap1\n  pop\n    /* \"#utility.yul\":3195:3561   */\n  swap2\n  swap1\n  pop\n  jump\t// out\n    /* \"#utility.yul\":3567:3986   */\ntag_22:\n    /* \"#utility.yul\":3733:3737   */\n  0x00\n    /* \"#utility.yul\":3771:3773   */\n  0x20\n    /* \"#utility.yul\":3760:3769   */\n  dup3\n    /* \"#utility.yul\":3756:3774   */\n  add\n    /* \"#utility.yul\":3748:3774   */\n  swap1\n  pop\n    /* \"#utility.yul\":3820:3829   */\n  dup2\n    /* \"#utility.yul\":3814:3818   */\n  dup2\n    /* \"#utility.yul\":3810:3830   */\n  sub\n    /* \"#utility.yul\":3806:3807   */\n  0x00\n    /* \"#utility.yul\":3795:3804   */\n  dup4\n    /* \"#utility.yul\":3791:3808   */\n  add\n    /* \"#utility.yul\":3784:3831   */\n  mstore\n    /* \"#utility.yul\":3848:3979   */\n  tag_93\n    /* \"#utility.yul\":3974:3978   */\n  dup2\n    /* \"#utility.yul\":3848:3979   */\n  tag_58\n  jump\t// in\ntag_93:\n    /* \"#utility.yul\":3840:3979   */\n  swap1\n  pop\n    /* \"#utility.yul\":3567:3986   */\n  swap2\n  swap1\n  pop\n  jump\t// out\n    /* \"#utility.yul\":3992:4172   */\ntag_25:\n    /* \"#utility.yul\":4040:4117   */\n  0x4e487b7100000000000000000000000000000000000000000000000000000000\n    /* \"#utility.yul\":4037:4038   */\n  0x00\n    /* \"#utility.yul\":4030:4118   */\n  mstore\n    /* \"#utility.yul\":4137:4141   */\n  0x21\n    /* \"#utility.yul\":4134:4135   */\n  0x04\n    /* \"#utility.yul\":4127:4142   */\n  mstore\n    /* \"#utility.yul\":4161:4165   */\n  0x24\n    /* \"#utility.yul\":4158:4159   */\n  0x00\n    /* \"#utility.yul\":4151:4166   */\n  revert\n    /* \"token/TokenVesting.sol\":503:9544  contract TokenVesting is Ownable, ReentrancyGuard, Pausable {... */\ntag_44:\n  dataSize(sub_0)\n  dup1\n  dataOffset(sub_0)\n  0x00\n  codecopy\n  0x00\n  return\nstop\n\nsub_0: assembly {\n        /* \"token/TokenVesting.sol\":503:9544  contract TokenVesting is Ownable, ReentrancyGuard, Pausable {... */\n      mstore(0x40, 0x80)\n      callvalue\n      dup1\n      iszero\n      tag_1\n      jumpi\n      0x00\n      dup1\n      revert\n    tag_1:\n      pop\n      jumpi(tag_2, lt(calldatasize, 0x04))\n      shr(0xe0, calldataload(0x00))\n      dup1\n      0x7f51bb1f\n      gt\n      tag_22\n      jumpi\n      dup1\n      0xc741d92f\n      gt\n      tag_23\n      jumpi\n      dup1\n      0xc741d92f\n      eq\n      tag_17\n      jumpi\n      dup1\n      0xeac449d9\n      eq\n      tag_18\n      jumpi\n      dup1\n      0xf2fde38b\n      eq\n      tag_19\n      jumpi\n      dup1\n      0xfc0c546a\n      eq\n      tag_20\n      jumpi\n      dup1\n      0xfc76977f\n      eq\n      tag_21\n      jumpi\n      jump(tag_2)\n    tag_23:\n      dup1\n      0x7f51bb1f\n      eq\n      tag_12\n      jumpi\n      dup1\n      0x8456cb59\n      eq\n      tag_13\n      jumpi\n      dup1\n      0x8da5cb5b\n      eq\n      tag_14\n      jumpi\n      dup1\n      0xa9bb5c4c\n      eq\n      tag_15\n      jumpi\n      dup1\n      0xbed9757e\n      eq\n      tag_16\n      jumpi\n      jump(tag_2)\n    tag_22:\n      dup1\n      0x45626bd6\n      gt\n      tag_24\n      jumpi\n      dup1\n      0x45626bd6\n      eq\n      tag_7\n      jumpi\n      dup1\n      0x4f86f440\n      eq\n      tag_8\n      jumpi\n      dup1\n      0x5c975abb\n      eq\n      tag_9\n      jumpi\n      dup1\n      0x61d027b3\n      eq\n      tag_10\n      jumpi\n      dup1\n      0x715018a6\n      eq\n      tag_11\n      jumpi\n      jump(tag_2)\n    tag_24:\n      dup1\n      0x02f622d2\n      eq\n      tag_3\n      jumpi\n      dup1\n      0x37bdc99b\n      eq\n      tag_4\n      jumpi\n      dup1\n      0x3f4ba83a\n      eq\n      tag_5\n      jumpi\n      dup1\n      0x406a99af\n      eq\n      tag_6\n      jumpi\n    tag_2:\n      0x00\n      dup1\n      revert\n        /* \"token/TokenVesting.sol\":1688:1745  mapping(ScheduleType => uint256) public totalVestedByType */\n    tag_3:\n      tag_25\n      0x04\n      dup1\n      calldatasize\n      sub\n      dup2\n      add\n      swap1\n      tag_26\n      swap2\n      swap1\n      tag_27\n      jump\t// in\n    tag_26:\n      tag_28\n      jump\t// in\n    tag_25:\n      mload(0x40)\n      tag_29\n      swap2\n      swap1\n      tag_30\n      jump\t// in\n    tag_29:\n      mload(0x40)\n      dup1\n      swap2\n      sub\n      swap1\n      return\n        /* \"token/TokenVesting.sol\":5328:6129  function release(uint256 scheduleId) external nonReentrant {... */\n    tag_4:\n      tag_31\n      0x04\n      dup1\n      calldatasize\n      sub\n      dup2\n      add\n      swap1\n      tag_32\n      swap2\n      swap1\n      tag_33\n      jump\t// in\n    tag_32:\n      tag_34\n      jump\t// in\n    tag_31:\n      stop\n        /* \"token/TokenVesting.sol\":9477:9542  function unpause() external onlyOwner {... */\n    tag_5:\n      tag_35\n      tag_36\n      jump\t// in\n    tag_35:\n      stop\n        /* \"token/TokenVesting.sol\":1751:1807  mapping(ScheduleType => uint256) public maxVestingByType */\n    tag_6:\n      tag_37\n      0x04\n      dup1\n      calldatasize\n      sub\n      dup2\n      add\n      swap1\n      tag_38\n      swap2\n      swap1\n      tag_27\n      jump\t// in\n    tag_38:\n      tag_39\n      jump\t// in\n    tag_37:\n      mload(0x40)\n      tag_40\n      swap2\n      swap1\n      tag_30\n      jump\t// in\n    tag_40:\n      mload(0x40)\n      dup1\n      swap2\n      sub\n      swap1\n      return\n        /* \"token/TokenVesting.sol\":1560:1621  mapping(address => VestingSchedule[]) public vestingSchedules */\n    tag_7:\n      tag_41\n      0x04\n      dup1\n      calldatasize\n      sub\n      dup2\n      add\n      swap1\n      tag_42\n      swap2\n      swap1\n      tag_43\n      jump\t// in\n    tag_42:\n      tag_44\n      jump\t// in\n    tag_41:\n      mload(0x40)\n      tag_45\n      swap9\n      swap8\n      swap7\n      swap6\n      swap5\n      swap4\n      swap3\n      swap2\n      swap1\n      tag_46\n      jump\t// in\n    tag_45:\n      mload(0x40)\n      dup1\n      swap2\n      sub\n      swap1\n      return\n        /* \"token/TokenVesting.sol\":3499:5254  function createVestingSchedule(... */\n    tag_8:\n      tag_47\n      0x04\n      dup1\n      calldatasize\n      sub\n      dup2\n      add\n      swap1\n      tag_48\n      swap2\n      swap1\n      tag_49\n      jump\t// in\n    tag_48:\n      tag_50\n      jump\t// in\n    tag_47:\n      stop\n        /* \"@openzeppelin/contracts/utils/Pausable.sol\":1850:1934  function paused() public view virtual returns (bool) {... */\n    tag_9:\n      tag_51\n      tag_52\n      jump\t// in\n    tag_51:\n      mload(0x40)\n      tag_53\n      swap2\n      swap1\n      tag_54\n      jump\t// in\n    tag_53:\n      mload(0x40)\n      dup1\n      swap2\n      sub\n      swap1\n      return\n        /* \"token/TokenVesting.sol\":1860:1883  address public treasury */\n    tag_10:\n      tag_55\n      tag_56\n      jump\t// in\n    tag_55:\n      mload(0x40)\n      tag_57\n      swap2\n      swap1\n      tag_58\n      jump\t// in\n    tag_57:\n      mload(0x40)\n      dup1\n      swap2\n      sub\n      swap1\n      return\n        /* \"@openzeppelin/contracts/access/Ownable.sol\":2293:2394  function renounceOwnership() public virtual onlyOwner {... */\n    tag_11:\n      tag_59\n      tag_60\n      jump\t// in\n    tag_59:\n      stop\n        /* \"token/TokenVesting.sol\":9115:9377  function updateTreasury(address newTreasury) external onlyOwner {... */\n    tag_12:\n      tag_61\n      0x04\n      dup1\n      calldatasize\n      sub\n      dup2\n      add\n      swap1\n      tag_62\n      swap2\n      swap1\n      tag_63\n      jump\t// in\n    tag_62:\n      tag_64\n      jump\t// in\n    tag_61:\n      stop\n        /* \"token/TokenVesting.sol\":9410:9471  function pause() external onlyOwner {... */\n    tag_13:\n      tag_65\n      tag_66\n      jump\t// in\n    tag_65:\n      stop\n        /* \"@openzeppelin/contracts/access/Ownable.sol\":1638:1723  function owner() public view virtual returns (address) {... */\n    tag_14:\n      tag_67\n      tag_68\n      jump\t// in\n    tag_67:\n      mload(0x40)\n      tag_69\n      swap2\n      swap1\n      tag_58\n      jump\t// in\n    tag_69:\n      mload(0x40)\n      dup1\n      swap2\n      sub\n      swap1\n      return\n        /* \"token/TokenVesting.sol\":1627:1682  mapping(address => uint256) public vestingScheduleCount */\n    tag_15:\n      tag_70\n      0x04\n      dup1\n      calldatasize\n      sub\n      dup2\n      add\n      swap1\n      tag_71\n      swap2\n      swap1\n      tag_63\n      jump\t// in\n    tag_71:\n      tag_72\n      jump\t// in\n    tag_70:\n      mload(0x40)\n      tag_73\n      swap2\n      swap1\n      tag_30\n      jump\t// in\n    tag_73:\n      mload(0x40)\n      dup1\n      swap2\n      sub\n      swap1\n      return\n        /* \"token/TokenVesting.sol\":8030:8755  function getVestingSchedule(... */\n    tag_16:\n      tag_74\n      0x04\n      dup1\n      calldatasize\n      sub\n      dup2\n      add\n      swap1\n      tag_75\n      swap2\n      swap1\n      tag_43\n      jump\t// in\n    tag_75:\n      tag_76\n      jump\t// in\n    tag_74:\n      mload(0x40)\n      tag_77\n      swap9\n      swap8\n      swap7\n      swap6\n      swap5\n      swap4\n      swap3\n      swap2\n      swap1\n      tag_46\n      jump\t// in\n    tag_77:\n      mload(0x40)\n      dup1\n      swap2\n      sub\n      swap1\n      return\n        /* \"token/TokenVesting.sol\":1818:1854  uint256 public vestingSchedulesCount */\n    tag_17:\n      tag_78\n      tag_79\n      jump\t// in\n    tag_78:\n      mload(0x40)\n      tag_80\n      swap2\n      swap1\n      tag_30\n      jump\t// in\n    tag_80:\n      mload(0x40)\n      dup1\n      swap2\n      sub\n      swap1\n      return\n        /* \"token/TokenVesting.sol\":6192:7096  function revoke(... */\n    tag_18:\n      tag_81\n      0x04\n      dup1\n      calldatasize\n      sub\n      dup2\n      add\n      swap1\n      tag_82\n      swap2\n      swap1\n      tag_43\n      jump\t// in\n    tag_82:\n      tag_83\n      jump\t// in\n    tag_81:\n      stop\n        /* \"@openzeppelin/contracts/access/Ownable.sol\":2543:2758  function transferOwnership(address newOwner) public virtual onlyOwner {... */\n    tag_19:\n      tag_84\n      0x04\n      dup1\n      calldatasize\n      sub\n      dup2\n      add\n      swap1\n      tag_85\n      swap2\n      swap1\n      tag_63\n      jump\t// in\n    tag_85:\n      tag_86\n      jump\t// in\n    tag_84:\n      stop\n        /* \"token/TokenVesting.sol\":1530:1549  IERC20 public token */\n    tag_20:\n      tag_87\n      tag_88\n      jump\t// in\n    tag_87:\n      mload(0x40)\n      tag_89\n      swap2\n      swap1\n      tag_90\n      jump\t// in\n    tag_89:\n      mload(0x40)\n      dup1\n      swap2\n      sub\n      swap1\n      return\n        /* \"token/TokenVesting.sol\":8761:9054  function computeReleasableAmount(... */\n    tag_21:\n      tag_91\n      0x04\n      dup1\n      calldatasize\n      sub\n      dup2\n      add\n      swap1\n      tag_92\n      swap2\n      swap1\n      tag_43\n      jump\t// in\n    tag_92:\n      tag_93\n      jump\t// in\n    tag_91:\n      mload(0x40)\n      tag_94\n      swap2\n      swap1\n      tag_30\n      jump\t// in\n    tag_94:\n      mload(0x40)\n      dup1\n      swap2\n      sub\n      swap1\n      return\n        /* \"token/TokenVesting.sol\":1688:1745  mapping(ScheduleType => uint256) public totalVestedByType */\n    tag_28:\n      mstore(0x20, 0x05)\n      dup1\n      0x00\n      mstore\n      keccak256(0x00, 0x40)\n      0x00\n      swap2\n      pop\n      swap1\n      pop\n      sload\n      dup2\n      jump\t// out\n        /* \"token/TokenVesting.sol\":5328:6129  function release(uint256 scheduleId) external nonReentrant {... */\n    tag_34:\n        /* \"@openzeppelin/contracts/utils/ReentrancyGuard.sol\":2500:2521  _nonReentrantBefore() */\n      tag_96\n        /* \"@openzeppelin/contracts/utils/ReentrancyGuard.sol\":2500:2519  _nonReentrantBefore */\n      tag_97\n        /* \"@openzeppelin/contracts/utils/ReentrancyGuard.sol\":2500:2521  _nonReentrantBefore() */\n      jump\t// in\n    tag_96:\n        /* \"token/TokenVesting.sol\":5397:5429  VestingSchedule storage schedule */\n      0x00\n        /* \"token/TokenVesting.sol\":5432:5448  vestingSchedules */\n      0x03\n        /* \"token/TokenVesting.sol\":5432:5460  vestingSchedules[msg.sender] */\n      0x00\n        /* \"token/TokenVesting.sol\":5449:5459  msg.sender */\n      caller\n        /* \"token/TokenVesting.sol\":5432:5460  vestingSchedules[msg.sender] */\n      0xffffffffffffffffffffffffffffffffffffffff\n      and\n      0xffffffffffffffffffffffffffffffffffffffff\n      and\n      dup2\n      mstore\n      0x20\n      add\n      swap1\n      dup2\n      mstore\n      0x20\n      add\n      0x00\n      keccak256\n        /* \"token/TokenVesting.sol\":5461:5471  scheduleId */\n      dup3\n        /* \"token/TokenVesting.sol\":5432:5472  vestingSchedules[msg.sender][scheduleId] */\n      dup2\n      sload\n      dup2\n      lt\n      tag_99\n      jumpi\n      tag_100\n      tag_101\n      jump\t// in\n    tag_100:\n    tag_99:\n      swap1\n      0x00\n      mstore\n      keccak256(0x00, 0x20)\n      swap1\n      0x07\n      mul\n      add\n        /* \"token/TokenVesting.sol\":5397:5472  VestingSchedule storage schedule = vestingSchedules[msg.sender][scheduleId] */\n      swap1\n      pop\n        /* \"token/TokenVesting.sol\":5513:5514  0 */\n      0x00\n        /* \"token/TokenVesting.sol\":5490:5498  schedule */\n      dup2\n        /* \"token/TokenVesting.sol\":5490:5510  schedule.totalAmount */\n      0x00\n      add\n      sload\n        /* \"token/TokenVesting.sol\":5490:5514  schedule.totalAmount > 0 */\n      gt\n        /* \"token/TokenVesting.sol\":5482:5535  require(schedule.totalAmount > 0, \"No such schedule\") */\n      tag_103\n      jumpi\n      mload(0x40)\n      0x08c379a000000000000000000000000000000000000000000000000000000000\n      dup2\n      mstore\n      0x04\n      add\n      tag_104\n      swap1\n      tag_105\n      jump\t// in\n    tag_104:\n      mload(0x40)\n      dup1\n      swap2\n      sub\n      swap1\n      revert\n    tag_103:\n        /* \"token/TokenVesting.sol\":5554:5562  schedule */\n      dup1\n        /* \"token/TokenVesting.sol\":5554:5570  schedule.revoked */\n      0x06\n      add\n      0x01\n      swap1\n      sload\n      swap1\n      0x0100\n      exp\n      swap1\n      div\n      0xff\n      and\n        /* \"token/TokenVesting.sol\":5553:5570  !schedule.revoked */\n      iszero\n        /* \"token/TokenVesting.sol\":5545:5591  require(!schedule.revoked, \"Schedule revoked\") */\n      tag_106\n      jumpi\n      mload(0x40)\n      0x08c379a000000000000000000000000000000000000000000000000000000000\n      dup2\n      mstore\n      0x04\n      add\n      tag_107\n      swap1\n      tag_108\n      jump\t// in\n    tag_107:\n      mload(0x40)\n      dup1\n      swap2\n      sub\n      swap1\n      revert\n    tag_106:\n        /* \"token/TokenVesting.sol\":5602:5622  uint256 vestedAmount */\n      0x00\n        /* \"token/TokenVesting.sol\":5625:5655  _computeVestedAmount(schedule) */\n      tag_109\n        /* \"token/TokenVesting.sol\":5646:5654  schedule */\n      dup3\n        /* \"token/TokenVesting.sol\":5625:5655  _computeVestedAmount(schedule) */\n      mload(0x40)\n      dup1\n      0x0100\n      add\n      0x40\n      mstore\n      swap1\n      dup2\n      0x00\n      dup3\n      add\n      sload\n      dup2\n      mstore\n      0x20\n      add\n      0x01\n      dup3\n      add\n      sload\n      dup2\n      mstore\n      0x20\n      add\n      0x02\n      dup3\n      add\n      sload\n      dup2\n      mstore\n      0x20\n      add\n      0x03\n      dup3\n      add\n      sload\n      dup2\n      mstore\n      0x20\n      add\n      0x04\n      dup3\n      add\n      sload\n      dup2\n      mstore\n      0x20\n      add\n      0x05\n      dup3\n      add\n      sload\n      dup2\n      mstore\n      0x20\n      add\n      0x06\n      dup3\n      add\n      0x00\n      swap1\n      sload\n      swap1\n      0x0100\n      exp\n      swap1\n      div\n      0xff\n      and\n      iszero\n      iszero\n      iszero\n      iszero\n      dup2\n      mstore\n      0x20\n      add\n      0x06\n      dup3\n      add\n      0x01\n      swap1\n      sload\n      swap1\n      0x0100\n      exp\n      swap1\n      div\n      0xff\n      and\n      iszero\n      iszero\n      iszero\n      iszero\n      dup2\n      mstore\n      pop\n      pop\n        /* \"token/TokenVesting.sol\":5625:5645  _computeVestedAmount */\n      tag_110\n        /* \"token/TokenVesting.sol\":5625:5655  _computeVestedAmount(schedule) */\n      jump\t// in\n    tag_109:\n        /* \"token/TokenVesting.sol\":5602:5655  uint256 vestedAmount = _computeVestedAmount(schedule) */\n      swap1\n      pop\n        /* \"token/TokenVesting.sol\":5665:5689  uint256 releasableAmount */\n      0x00\n        /* \"token/TokenVesting.sol\":5707:5715  schedule */\n      dup3\n        /* \"token/TokenVesting.sol\":5707:5730  schedule.releasedAmount */\n      0x01\n      add\n      sload\n        /* \"token/TokenVesting.sol\":5692:5704  vestedAmount */\n      dup3\n        /* \"token/TokenVesting.sol\":5692:5730  vestedAmount - schedule.releasedAmount */\n      tag_111\n      swap2\n      swap1\n      tag_112\n      jump\t// in\n    tag_111:\n        /* \"token/TokenVesting.sol\":5665:5730  uint256 releasableAmount = vestedAmount - schedule.releasedAmount */\n      swap1\n      pop\n        /* \"token/TokenVesting.sol\":5767:5768  0 */\n      0x00\n        /* \"token/TokenVesting.sol\":5748:5764  releasableAmount */\n      dup2\n        /* \"token/TokenVesting.sol\":5748:5768  releasableAmount > 0 */\n      gt\n        /* \"token/TokenVesting.sol\":5740:5793  require(releasableAmount > 0, \"No tokens to release\") */\n      tag_113\n      jumpi\n      mload(0x40)\n      0x08c379a000000000000000000000000000000000000000000000000000000000\n      dup2\n      mstore\n      0x04\n      add\n      tag_114\n      swap1\n      tag_115\n      jump\t// in\n    tag_114:\n      mload(0x40)\n      dup1\n      swap2\n      sub\n      swap1\n      revert\n    tag_113:\n        /* \"token/TokenVesting.sol\":5890:5906  releasableAmount */\n      dup1\n        /* \"token/TokenVesting.sol\":5864:5872  schedule */\n      dup4\n        /* \"token/TokenVesting.sol\":5864:5887  schedule.releasedAmount */\n      0x01\n      add\n      sload\n        /* \"token/TokenVesting.sol\":5864:5906  schedule.releasedAmount + releasableAmount */\n      tag_116\n      swap2\n      swap1\n      tag_117\n      jump\t// in\n    tag_116:\n        /* \"token/TokenVesting.sol\":5838:5846  schedule */\n      dup4\n        /* \"token/TokenVesting.sol\":5838:5861  schedule.releasedAmount */\n      0x01\n      add\n        /* \"token/TokenVesting.sol\":5838:5906  schedule.releasedAmount = schedule.releasedAmount + releasableAmount */\n      dup2\n      swap1\n      sstore\n      pop\n        /* \"token/TokenVesting.sol\":5965:5970  token */\n      0x02\n      0x01\n      swap1\n      sload\n      swap1\n      0x0100\n      exp\n      swap1\n      div\n      0xffffffffffffffffffffffffffffffffffffffff\n      and\n        /* \"token/TokenVesting.sol\":5965:5979  token.transfer */\n      0xffffffffffffffffffffffffffffffffffffffff\n      and\n      0xa9059cbb\n        /* \"token/TokenVesting.sol\":5980:5990  msg.sender */\n      caller\n        /* \"token/TokenVesting.sol\":5992:6008  releasableAmount */\n      dup4\n        /* \"token/TokenVesting.sol\":5965:6009  token.transfer(msg.sender, releasableAmount) */\n      mload(0x40)\n      dup4\n      0xffffffff\n      and\n      0xe0\n      shl\n      dup2\n      mstore\n      0x04\n      add\n      tag_118\n      swap3\n      swap2\n      swap1\n      tag_119\n      jump\t// in\n    tag_118:\n      0x20\n      mload(0x40)\n      dup1\n      dup4\n      sub\n      dup2\n      0x00\n      dup8\n      gas\n      call\n      iszero\n      dup1\n      iszero\n      tag_121\n      jumpi\n      returndatasize\n      0x00\n      dup1\n      returndatacopy\n      revert(0x00, returndatasize)\n    tag_121:\n      pop\n      pop\n      pop\n      pop\n      mload(0x40)\n      returndatasize\n      not(0x1f)\n      0x1f\n      dup3\n      add\n      and\n      dup3\n      add\n      dup1\n      0x40\n      mstore\n      pop\n      dup2\n      add\n      swap1\n      tag_122\n      swap2\n      swap1\n      tag_123\n      jump\t// in\n    tag_122:\n        /* \"token/TokenVesting.sol\":5944:6050  require(... */\n      tag_124\n      jumpi\n      mload(0x40)\n      0x08c379a000000000000000000000000000000000000000000000000000000000\n      dup2\n      mstore\n      0x04\n      add\n      tag_125\n      swap1\n      tag_126\n      jump\t// in\n    tag_125:\n      mload(0x40)\n      dup1\n      swap2\n      sub\n      swap1\n      revert\n    tag_124:\n        /* \"token/TokenVesting.sol\":6093:6103  scheduleId */\n      dup4\n        /* \"token/TokenVesting.sol\":6081:6091  msg.sender */\n      caller\n        /* \"token/TokenVesting.sol\":6066:6122  TokensReleased(msg.sender, scheduleId, releasableAmount) */\n      0xffffffffffffffffffffffffffffffffffffffff\n      and\n      0xc5c52c2a9175470464d5ea4429889e7df2ea88630a3d32f4d0d3d2d448656210\n        /* \"token/TokenVesting.sol\":6105:6121  releasableAmount */\n      dup4\n        /* \"token/TokenVesting.sol\":6066:6122  TokensReleased(msg.sender, scheduleId, releasableAmount) */\n      mload(0x40)\n      tag_127\n      swap2\n      swap1\n      tag_30\n      jump\t// in\n    tag_127:\n      mload(0x40)\n      dup1\n      swap2\n      sub\n      swap1\n      log3\n        /* \"token/TokenVesting.sol\":5387:6129  {... */\n      pop\n      pop\n      pop\n        /* \"@openzeppelin/contracts/utils/ReentrancyGuard.sol\":2542:2562  _nonReentrantAfter() */\n      tag_128\n        /* \"@openzeppelin/contracts/utils/ReentrancyGuard.sol\":2542:2560  _nonReentrantAfter */\n      tag_129\n        /* \"@openzeppelin/contracts/utils/ReentrancyGuard.sol\":2542:2562  _nonReentrantAfter() */\n      jump\t// in\n    tag_128:\n        /* \"token/TokenVesting.sol\":5328:6129  function release(uint256 scheduleId) external nonReentrant {... */\n      pop\n      jump\t// out\n        /* \"token/TokenVesting.sol\":9477:9542  function unpause() external onlyOwner {... */\n    tag_36:\n        /* \"@openzeppelin/contracts/access/Ownable.sol\":1531:1544  _checkOwner() */\n      tag_131\n        /* \"@openzeppelin/contracts/access/Ownable.sol\":1531:1542  _checkOwner */\n      tag_132\n        /* \"@openzeppelin/contracts/access/Ownable.sol\":1531:1544  _checkOwner() */\n      jump\t// in\n    tag_131:\n        /* \"token/TokenVesting.sol\":9525:9535  _unpause() */\n      tag_134\n        /* \"token/TokenVesting.sol\":9525:9533  _unpause */\n      tag_135\n        /* \"token/TokenVesting.sol\":9525:9535  _unpause() */\n      jump\t// in\n    tag_134:\n        /* \"token/TokenVesting.sol\":9477:9542  function unpause() external onlyOwner {... */\n      jump\t// out\n        /* \"token/TokenVesting.sol\":1751:1807  mapping(ScheduleType => uint256) public maxVestingByType */\n    tag_39:\n      mstore(0x20, 0x06)\n      dup1\n      0x00\n      mstore\n      keccak256(0x00, 0x40)\n      0x00\n      swap2\n      pop\n      swap1\n      pop\n      sload\n      dup2\n      jump\t// out\n        /* \"token/TokenVesting.sol\":1560:1621  mapping(address => VestingSchedule[]) public vestingSchedules */\n    tag_44:\n      mstore(0x20, 0x03)\n      dup2\n      0x00\n      mstore\n      keccak256(0x00, 0x40)\n      dup2\n      dup2\n      sload\n      dup2\n      lt\n      tag_136\n      jumpi\n      0x00\n      dup1\n      revert\n    tag_136:\n      swap1\n      0x00\n      mstore\n      keccak256(0x00, 0x20)\n      swap1\n      0x07\n      mul\n      add\n      0x00\n      swap2\n      pop\n      swap2\n      pop\n      pop\n      dup1\n      0x00\n      add\n      sload\n      swap1\n      dup1\n      0x01\n      add\n      sload\n      swap1\n      dup1\n      0x02\n      add\n      sload\n      swap1\n      dup1\n      0x03\n      add\n      sload\n      swap1\n      dup1\n      0x04\n      add\n      sload\n      swap1\n      dup1\n      0x05\n      add\n      sload\n      swap1\n      dup1\n      0x06\n      add\n      0x00\n      swap1\n      sload\n      swap1\n      0x0100\n      exp\n      swap1\n      div\n      0xff\n      and\n      swap1\n      dup1\n      0x06\n      add\n      0x01\n      swap1\n      sload\n      swap1\n      0x0100\n      exp\n      swap1\n      div\n      0xff\n      and\n      swap1\n      pop\n      dup9\n      jump\t// out\n        /* \"token/TokenVesting.sol\":3499:5254  function createVestingSchedule(... */\n    tag_50:\n        /* \"@openzeppelin/contracts/access/Ownable.sol\":1531:1544  _checkOwner() */\n      tag_139\n        /* \"@openzeppelin/contracts/access/Ownable.sol\":1531:1542  _checkOwner */\n      tag_132\n        /* \"@openzeppelin/contracts/access/Ownable.sol\":1531:1544  _checkOwner() */\n      jump\t// in\n    tag_139:\n        /* \"token/TokenVesting.sol\":3821:3822  0 */\n      0x00\n        /* \"token/TokenVesting.sol\":3798:3823  beneficiary != address(0) */\n      0xffffffffffffffffffffffffffffffffffffffff\n      and\n        /* \"token/TokenVesting.sol\":3798:3809  beneficiary */\n      dup9\n        /* \"token/TokenVesting.sol\":3798:3823  beneficiary != address(0) */\n      0xffffffffffffffffffffffffffffffffffffffff\n      and\n      sub\n        /* \"token/TokenVesting.sol\":3790:3847  require(beneficiary != address(0), \"Invalid beneficiary\") */\n      tag_141\n      jumpi\n      mload(0x40)\n      0x08c379a000000000000000000000000000000000000000000000000000000000\n      dup2\n      mstore\n      0x04\n      add\n      tag_142\n      swap1\n      tag_143\n      jump\t// in\n    tag_142:\n      mload(0x40)\n      dup1\n      swap2\n      sub\n      swap1\n      revert\n    tag_141:\n        /* \"token/TokenVesting.sol\":3874:3875  0 */\n      0x00\n        /* \"token/TokenVesting.sol\":3865:3871  amount */\n      dup7\n        /* \"token/TokenVesting.sol\":3865:3875  amount > 0 */\n      gt\n        /* \"token/TokenVesting.sol\":3857:3898  require(amount > 0, \"Amount must be > 0\") */\n      tag_144\n      jumpi\n      mload(0x40)\n      0x08c379a000000000000000000000000000000000000000000000000000000000\n      dup2\n      mstore\n      0x04\n      add\n      tag_145\n      swap1\n      tag_146\n      jump\t// in\n    tag_145:\n      mload(0x40)\n      dup1\n      swap2\n      sub\n      swap1\n      revert\n    tag_144:\n        /* \"token/TokenVesting.sol\":3927:3928  0 */\n      0x00\n        /* \"token/TokenVesting.sol\":3916:3924  duration */\n      dup5\n        /* \"token/TokenVesting.sol\":3916:3928  duration > 0 */\n      gt\n        /* \"token/TokenVesting.sol\":3908:3953  require(duration > 0, \"Duration must be > 0\") */\n      tag_147\n      jumpi\n      mload(0x40)\n      0x08c379a000000000000000000000000000000000000000000000000000000000\n      dup2\n      mstore\n      0x04\n      add\n      tag_148\n      swap1\n      tag_149\n      jump\t// in\n    tag_148:\n      mload(0x40)\n      dup1\n      swap2\n      sub\n      swap1\n      revert\n    tag_147:\n        /* \"token/TokenVesting.sol\":3985:3986  0 */\n      0x00\n        /* \"token/TokenVesting.sol\":3971:3982  slicePeriod */\n      dup3\n        /* \"token/TokenVesting.sol\":3971:3986  slicePeriod > 0 */\n      gt\n        /* \"token/TokenVesting.sol\":3963:4015  require(slicePeriod > 0, \"Slice period must be > 0\") */\n      tag_150\n      jumpi\n      mload(0x40)\n      0x08c379a000000000000000000000000000000000000000000000000000000000\n      dup2\n      mstore\n      0x04\n      add\n      tag_151\n      swap1\n      tag_152\n      jump\t// in\n    tag_151:\n      mload(0x40)\n      dup1\n      swap2\n      sub\n      swap1\n      revert\n    tag_150:\n        /* \"token/TokenVesting.sol\":4045:4058  cliffDuration */\n      dup3\n        /* \"token/TokenVesting.sol\":4033:4041  duration */\n      dup5\n        /* \"token/TokenVesting.sol\":4033:4058  duration >= cliffDuration */\n      lt\n      iszero\n        /* \"token/TokenVesting.sol\":4025:4076  require(duration >= cliffDuration, \"Invalid cliff\") */\n      tag_153\n      jumpi\n      mload(0x40)\n      0x08c379a000000000000000000000000000000000000000000000000000000000\n      dup2\n      mstore\n      0x04\n      add\n      tag_154\n      swap1\n      tag_155\n      jump\t// in\n    tag_154:\n      mload(0x40)\n      dup1\n      swap2\n      sub\n      swap1\n      revert\n    tag_153:\n        /* \"token/TokenVesting.sol\":4107:4122  block.timestamp */\n      timestamp\n        /* \"token/TokenVesting.sol\":4094:4103  startTime */\n      dup6\n        /* \"token/TokenVesting.sol\":4094:4122  startTime >= block.timestamp */\n      lt\n      iszero\n        /* \"token/TokenVesting.sol\":4086:4143  require(startTime >= block.timestamp, \"Start time < now\") */\n      tag_156\n      jumpi\n      mload(0x40)\n      0x08c379a000000000000000000000000000000000000000000000000000000000\n      dup2\n      mstore\n      0x04\n      add\n      tag_157\n      swap1\n      tag_158\n      jump\t// in\n    tag_157:\n      mload(0x40)\n      dup1\n      swap2\n      sub\n      swap1\n      revert\n    tag_156:\n        /* \"token/TokenVesting.sol\":4274:4290  maxVestingByType */\n      0x06\n        /* \"token/TokenVesting.sol\":4274:4304  maxVestingByType[scheduleType] */\n      0x00\n        /* \"token/TokenVesting.sol\":4291:4303  scheduleType */\n      dup9\n        /* \"token/TokenVesting.sol\":4274:4304  maxVestingByType[scheduleType] */\n      0x04\n      dup2\n      gt\n      iszero\n      tag_159\n      jumpi\n      tag_160\n      tag_161\n      jump\t// in\n    tag_160:\n    tag_159:\n      0x04\n      dup2\n      gt\n      iszero\n      tag_162\n      jumpi\n      tag_163\n      tag_161\n      jump\t// in\n    tag_163:\n    tag_162:\n      dup2\n      mstore\n      0x20\n      add\n      swap1\n      dup2\n      mstore\n      0x20\n      add\n      0x00\n      keccak256\n      sload\n        /* \"token/TokenVesting.sol\":4264:4270  amount */\n      dup7\n        /* \"token/TokenVesting.sol\":4230:4247  totalVestedByType */\n      0x05\n        /* \"token/TokenVesting.sol\":4230:4261  totalVestedByType[scheduleType] */\n      0x00\n        /* \"token/TokenVesting.sol\":4248:4260  scheduleType */\n      dup11\n        /* \"token/TokenVesting.sol\":4230:4261  totalVestedByType[scheduleType] */\n      0x04\n      dup2\n      gt\n      iszero\n      tag_164\n      jumpi\n      tag_165\n      tag_161\n      jump\t// in\n    tag_165:\n    tag_164:\n      0x04\n      dup2\n      gt\n      iszero\n      tag_166\n      jumpi\n      tag_167\n      tag_161\n      jump\t// in\n    tag_167:\n    tag_166:\n      dup2\n      mstore\n      0x20\n      add\n      swap1\n      dup2\n      mstore\n      0x20\n      add\n      0x00\n      keccak256\n      sload\n        /* \"token/TokenVesting.sol\":4230:4270  totalVestedByType[scheduleType] + amount */\n      tag_168\n      swap2\n      swap1\n      tag_117\n      jump\t// in\n    tag_168:\n        /* \"token/TokenVesting.sol\":4230:4304  totalVestedByType[scheduleType] + amount <= maxVestingByType[scheduleType] */\n      gt\n      iszero\n        /* \"token/TokenVesting.sol\":4209:4349  require(... */\n      tag_169\n      jumpi\n      mload(0x40)\n      0x08c379a000000000000000000000000000000000000000000000000000000000\n      dup2\n      mstore\n      0x04\n      add\n      tag_170\n      swap1\n      tag_171\n      jump\t// in\n    tag_170:\n      mload(0x40)\n      dup1\n      swap2\n      sub\n      swap1\n      revert\n    tag_169:\n        /* \"token/TokenVesting.sol\":4420:4425  token */\n      0x02\n      0x01\n      swap1\n      sload\n      swap1\n      0x0100\n      exp\n      swap1\n      div\n      0xffffffffffffffffffffffffffffffffffffffff\n      and\n        /* \"token/TokenVesting.sol\":4420:4438  token.transferFrom */\n      0xffffffffffffffffffffffffffffffffffffffff\n      and\n      0x23b872dd\n        /* \"token/TokenVesting.sol\":4439:4449  msg.sender */\n      caller\n        /* \"token/TokenVesting.sol\":4459:4463  this */\n      address\n        /* \"token/TokenVesting.sol\":4466:4472  amount */\n      dup10\n        /* \"token/TokenVesting.sol\":4420:4473  token.transferFrom(msg.sender, address(this), amount) */\n      mload(0x40)\n      dup5\n      0xffffffff\n      and\n      0xe0\n      shl\n      dup2\n      mstore\n      0x04\n      add\n      tag_172\n      swap4\n      swap3\n      swap2\n      swap1\n      tag_173\n      jump\t// in\n    tag_172:\n      0x20\n      mload(0x40)\n      dup1\n      dup4\n      sub\n      dup2\n      0x00\n      dup8\n      gas\n      call\n      iszero\n      dup1\n      iszero\n      tag_175\n      jumpi\n      returndatasize\n      0x00\n      dup1\n      returndatacopy\n      revert(0x00, returndatasize)\n    tag_175:\n      pop\n      pop\n      pop\n      pop\n      mload(0x40)\n      returndatasize\n      not(0x1f)\n      0x1f\n      dup3\n      add\n      and\n      dup3\n      add\n      dup1\n      0x40\n      mstore\n      pop\n      dup2\n      add\n      swap1\n      tag_176\n      swap2\n      swap1\n      tag_123\n      jump\t// in\n    tag_176:\n        /* \"token/TokenVesting.sol\":4399:4514  require(... */\n      tag_177\n      jumpi\n      mload(0x40)\n      0x08c379a000000000000000000000000000000000000000000000000000000000\n      dup2\n      mstore\n      0x04\n      add\n      tag_178\n      swap1\n      tag_126\n      jump\t// in\n    tag_178:\n      mload(0x40)\n      dup1\n      swap2\n      sub\n      swap1\n      revert\n    tag_177:\n        /* \"token/TokenVesting.sol\":4552:4568  vestingSchedules */\n      0x03\n        /* \"token/TokenVesting.sol\":4552:4581  vestingSchedules[beneficiary] */\n      0x00\n        /* \"token/TokenVesting.sol\":4569:4580  beneficiary */\n      dup10\n        /* \"token/TokenVesting.sol\":4552:4581  vestingSchedules[beneficiary] */\n      0xffffffffffffffffffffffffffffffffffffffff\n      and\n      0xffffffffffffffffffffffffffffffffffffffff\n      and\n      dup2\n      mstore\n      0x20\n      add\n      swap1\n      dup2\n      mstore\n      0x20\n      add\n      0x00\n      keccak256\n        /* \"token/TokenVesting.sol\":4587:4886  VestingSchedule({... */\n      mload(0x40)\n      dup1\n      0x0100\n      add\n      0x40\n      mstore\n      dup1\n        /* \"token/TokenVesting.sol\":4630:4636  amount */\n      dup9\n        /* \"token/TokenVesting.sol\":4587:4886  VestingSchedule({... */\n      dup2\n      mstore\n      0x20\n      add\n        /* \"token/TokenVesting.sol\":4666:4667  0 */\n      0x00\n        /* \"token/TokenVesting.sol\":4587:4886  VestingSchedule({... */\n      dup2\n      mstore\n      0x20\n      add\n        /* \"token/TokenVesting.sol\":4692:4701  startTime */\n      dup8\n        /* \"token/TokenVesting.sol\":4587:4886  VestingSchedule({... */\n      dup2\n      mstore\n      0x20\n      add\n        /* \"token/TokenVesting.sol\":4725:4733  duration */\n      dup7\n        /* \"token/TokenVesting.sol\":4587:4886  VestingSchedule({... */\n      dup2\n      mstore\n      0x20\n      add\n        /* \"token/TokenVesting.sol\":4762:4775  cliffDuration */\n      dup6\n        /* \"token/TokenVesting.sol\":4587:4886  VestingSchedule({... */\n      dup2\n      mstore\n      0x20\n      add\n        /* \"token/TokenVesting.sol\":4802:4813  slicePeriod */\n      dup5\n        /* \"token/TokenVesting.sol\":4587:4886  VestingSchedule({... */\n      dup2\n      mstore\n      0x20\n      add\n        /* \"token/TokenVesting.sol\":4838:4847  revocable */\n      dup4\n        /* \"token/TokenVesting.sol\":4587:4886  VestingSchedule({... */\n      iszero\n      iszero\n      dup2\n      mstore\n      0x20\n      add\n        /* \"token/TokenVesting.sol\":4870:4875  false */\n      0x00\n        /* \"token/TokenVesting.sol\":4587:4886  VestingSchedule({... */\n      iszero\n      iszero\n      dup2\n      mstore\n      pop\n        /* \"token/TokenVesting.sol\":4552:4887  vestingSchedules[beneficiary].push(VestingSchedule({... */\n      swap1\n      dup1\n      0x01\n      dup2\n      sload\n      add\n      dup1\n      dup3\n      sstore\n      dup1\n      swap2\n      pop\n      pop\n      0x01\n      swap1\n      sub\n      swap1\n      0x00\n      mstore\n      keccak256(0x00, 0x20)\n      swap1\n      0x07\n      mul\n      add\n      0x00\n      swap1\n      swap2\n      swap1\n      swap2\n      swap1\n      swap2\n      pop\n      0x00\n      dup3\n      add\n      mload\n      dup2\n      0x00\n      add\n      sstore\n      0x20\n      dup3\n      add\n      mload\n      dup2\n      0x01\n      add\n      sstore\n      0x40\n      dup3\n      add\n      mload\n      dup2\n      0x02\n      add\n      sstore\n      0x60\n      dup3\n      add\n      mload\n      dup2\n      0x03\n      add\n      sstore\n      0x80\n      dup3\n      add\n      mload\n      dup2\n      0x04\n      add\n      sstore\n      0xa0\n      dup3\n      add\n      mload\n      dup2\n      0x05\n      add\n      sstore\n      0xc0\n      dup3\n      add\n      mload\n      dup2\n      0x06\n      add\n      exp(0x0100, 0x00)\n      dup2\n      sload\n      dup2\n      0xff\n      mul\n      not\n      and\n      swap1\n      dup4\n      iszero\n      iszero\n      mul\n      or\n      swap1\n      sstore\n      pop\n      0xe0\n      dup3\n      add\n      mload\n      dup2\n      0x06\n      add\n      exp(0x0100, 0x01)\n      dup2\n      sload\n      dup2\n      0xff\n      mul\n      not\n      and\n      swap1\n      dup4\n      iszero\n      iszero\n      mul\n      or\n      swap1\n      sstore\n      pop\n      pop\n      pop\n        /* \"token/TokenVesting.sol\":4925:4945  vestingScheduleCount */\n      0x04\n        /* \"token/TokenVesting.sol\":4925:4958  vestingScheduleCount[beneficiary] */\n      0x00\n        /* \"token/TokenVesting.sol\":4946:4957  beneficiary */\n      dup10\n        /* \"token/TokenVesting.sol\":4925:4958  vestingScheduleCount[beneficiary] */\n      0xffffffffffffffffffffffffffffffffffffffff\n      and\n      0xffffffffffffffffffffffffffffffffffffffff\n      and\n      dup2\n      mstore\n      0x20\n      add\n      swap1\n      dup2\n      mstore\n      0x20\n      add\n      0x00\n      keccak256\n      0x00\n        /* \"token/TokenVesting.sol\":4925:4960  vestingScheduleCount[beneficiary]++ */\n      dup2\n      sload\n      dup1\n      swap3\n      swap2\n      swap1\n      tag_180\n      swap1\n      tag_181\n      jump\t// in\n    tag_180:\n      swap2\n      swap1\n      pop\n      sstore\n      pop\n        /* \"token/TokenVesting.sol\":4970:4991  vestingSchedulesCount */\n      0x07\n      0x00\n        /* \"token/TokenVesting.sol\":4970:4993  vestingSchedulesCount++ */\n      dup2\n      sload\n      dup1\n      swap3\n      swap2\n      swap1\n      tag_182\n      swap1\n      tag_181\n      jump\t// in\n    tag_182:\n      swap2\n      swap1\n      pop\n      sstore\n      pop\n        /* \"token/TokenVesting.sol\":5071:5077  amount */\n      dup6\n        /* \"token/TokenVesting.sol\":5037:5054  totalVestedByType */\n      0x05\n        /* \"token/TokenVesting.sol\":5037:5068  totalVestedByType[scheduleType] */\n      0x00\n        /* \"token/TokenVesting.sol\":5055:5067  scheduleType */\n      dup10\n        /* \"token/TokenVesting.sol\":5037:5068  totalVestedByType[scheduleType] */\n      0x04\n      dup2\n      gt\n      iszero\n      tag_183\n      jumpi\n      tag_184\n      tag_161\n      jump\t// in\n    tag_184:\n    tag_183:\n      0x04\n      dup2\n      gt\n      iszero\n      tag_185\n      jumpi\n      tag_186\n      tag_161\n      jump\t// in\n    tag_186:\n    tag_185:\n      dup2\n      mstore\n      0x20\n      add\n      swap1\n      dup2\n      mstore\n      0x20\n      add\n      0x00\n      keccak256\n      sload\n        /* \"token/TokenVesting.sol\":5037:5077  totalVestedByType[scheduleType] + amount */\n      tag_187\n      swap2\n      swap1\n      tag_117\n      jump\t// in\n    tag_187:\n        /* \"token/TokenVesting.sol\":5003:5020  totalVestedByType */\n      0x05\n        /* \"token/TokenVesting.sol\":5003:5034  totalVestedByType[scheduleType] */\n      0x00\n        /* \"token/TokenVesting.sol\":5021:5033  scheduleType */\n      dup10\n        /* \"token/TokenVesting.sol\":5003:5034  totalVestedByType[scheduleType] */\n      0x04\n      dup2\n      gt\n      iszero\n      tag_188\n      jumpi\n      tag_189\n      tag_161\n      jump\t// in\n    tag_189:\n    tag_188:\n      0x04\n      dup2\n      gt\n      iszero\n      tag_190\n      jumpi\n      tag_191\n      tag_161\n      jump\t// in\n    tag_191:\n    tag_190:\n      dup2\n      mstore\n      0x20\n      add\n      swap1\n      dup2\n      mstore\n      0x20\n      add\n      0x00\n      keccak256\n        /* \"token/TokenVesting.sol\":5003:5077  totalVestedByType[scheduleType] = totalVestedByType[scheduleType] + amount */\n      dup2\n      swap1\n      sstore\n      pop\n        /* \"token/TokenVesting.sol\":5190:5191  1 */\n      0x01\n        /* \"token/TokenVesting.sol\":5154:5174  vestingScheduleCount */\n      0x04\n        /* \"token/TokenVesting.sol\":5154:5187  vestingScheduleCount[beneficiary] */\n      0x00\n        /* \"token/TokenVesting.sol\":5175:5186  beneficiary */\n      dup11\n        /* \"token/TokenVesting.sol\":5154:5187  vestingScheduleCount[beneficiary] */\n      0xffffffffffffffffffffffffffffffffffffffff\n      and\n      0xffffffffffffffffffffffffffffffffffffffff\n      and\n      dup2\n      mstore\n      0x20\n      add\n      swap1\n      dup2\n      mstore\n      0x20\n      add\n      0x00\n      keccak256\n      sload\n        /* \"token/TokenVesting.sol\":5154:5191  vestingScheduleCount[beneficiary] - 1 */\n      tag_192\n      swap2\n      swap1\n      tag_112\n      jump\t// in\n    tag_192:\n        /* \"token/TokenVesting.sol\":5129:5140  beneficiary */\n      dup9\n        /* \"token/TokenVesting.sol\":5093:5247  VestingScheduleCreated(... */\n      0xffffffffffffffffffffffffffffffffffffffff\n      and\n      0x95b841d5d108f82fdbc6acd22e5cc30bf7a7c9ddb0ddfb615d3ee5adc61b0967\n        /* \"token/TokenVesting.sol\":5205:5217  scheduleType */\n      dup10\n        /* \"token/TokenVesting.sol\":5231:5237  amount */\n      dup10\n        /* \"token/TokenVesting.sol\":5093:5247  VestingScheduleCreated(... */\n      mload(0x40)\n      tag_193\n      swap3\n      swap2\n      swap1\n      tag_194\n      jump\t// in\n    tag_193:\n      mload(0x40)\n      dup1\n      swap2\n      sub\n      swap1\n      log3\n        /* \"token/TokenVesting.sol\":3499:5254  function createVestingSchedule(... */\n      pop\n      pop\n      pop\n      pop\n      pop\n      pop\n      pop\n      pop\n      jump\t// out\n        /* \"@openzeppelin/contracts/utils/Pausable.sol\":1850:1934  function paused() public view virtual returns (bool) {... */\n    tag_52:\n        /* \"@openzeppelin/contracts/utils/Pausable.sol\":1897:1901  bool */\n      0x00\n        /* \"@openzeppelin/contracts/utils/Pausable.sol\":1920:1927  _paused */\n      0x02\n      0x00\n      swap1\n      sload\n      swap1\n      0x0100\n      exp\n      swap1\n      div\n      0xff\n      and\n        /* \"@openzeppelin/contracts/utils/Pausable.sol\":1913:1927  return _paused */\n      swap1\n      pop\n        /* \"@openzeppelin/contracts/utils/Pausable.sol\":1850:1934  function paused() public view virtual returns (bool) {... */\n      swap1\n      jump\t// out\n        /* \"token/TokenVesting.sol\":1860:1883  address public treasury */\n    tag_56:\n      0x08\n      0x00\n      swap1\n      sload\n      swap1\n      0x0100\n      exp\n      swap1\n      div\n      0xffffffffffffffffffffffffffffffffffffffff\n      and\n      dup2\n      jump\t// out\n        /* \"@openzeppelin/contracts/access/Ownable.sol\":2293:2394  function renounceOwnership() public virtual onlyOwner {... */\n    tag_60:\n        /* \"@openzeppelin/contracts/access/Ownable.sol\":1531:1544  _checkOwner() */\n      tag_197\n        /* \"@openzeppelin/contracts/access/Ownable.sol\":1531:1542  _checkOwner */\n      tag_132\n        /* \"@openzeppelin/contracts/access/Ownable.sol\":1531:1544  _checkOwner() */\n      jump\t// in\n    tag_197:\n        /* \"@openzeppelin/contracts/access/Ownable.sol\":2357:2387  _transferOwnership(address(0)) */\n      tag_199\n        /* \"@openzeppelin/contracts/access/Ownable.sol\":2384:2385  0 */\n      0x00\n        /* \"@openzeppelin/contracts/access/Ownable.sol\":2357:2375  _transferOwnership */\n      tag_200\n        /* \"@openzeppelin/contracts/access/Ownable.sol\":2357:2387  _transferOwnership(address(0)) */\n      jump\t// in\n    tag_199:\n        /* \"@openzeppelin/contracts/access/Ownable.sol\":2293:2394  function renounceOwnership() public virtual onlyOwner {... */\n      jump\t// out\n        /* \"token/TokenVesting.sol\":9115:9377  function updateTreasury(address newTreasury) external onlyOwner {... */\n    tag_64:\n        /* \"@openzeppelin/contracts/access/Ownable.sol\":1531:1544  _checkOwner() */\n      tag_202\n        /* \"@openzeppelin/contracts/access/Ownable.sol\":1531:1542  _checkOwner */\n      tag_132\n        /* \"@openzeppelin/contracts/access/Ownable.sol\":1531:1544  _checkOwner() */\n      jump\t// in\n    tag_202:\n        /* \"token/TokenVesting.sol\":9220:9221  0 */\n      0x00\n        /* \"token/TokenVesting.sol\":9197:9222  newTreasury != address(0) */\n      0xffffffffffffffffffffffffffffffffffffffff\n      and\n        /* \"token/TokenVesting.sol\":9197:9208  newTreasury */\n      dup2\n        /* \"token/TokenVesting.sol\":9197:9222  newTreasury != address(0) */\n      0xffffffffffffffffffffffffffffffffffffffff\n      and\n      sub\n        /* \"token/TokenVesting.sol\":9189:9242  require(newTreasury != address(0), \"Invalid address\") */\n      tag_204\n      jumpi\n      mload(0x40)\n      0x08c379a000000000000000000000000000000000000000000000000000000000\n      dup2\n      mstore\n      0x04\n      add\n      tag_205\n      swap1\n      tag_206\n      jump\t// in\n    tag_205:\n      mload(0x40)\n      dup1\n      swap2\n      sub\n      swap1\n      revert\n    tag_204:\n        /* \"token/TokenVesting.sol\":9252:9271  address oldTreasury */\n      0x00\n        /* \"token/TokenVesting.sol\":9274:9282  treasury */\n      0x08\n      0x00\n      swap1\n      sload\n      swap1\n      0x0100\n      exp\n      swap1\n      div\n      0xffffffffffffffffffffffffffffffffffffffff\n      and\n        /* \"token/TokenVesting.sol\":9252:9282  address oldTreasury = treasury */\n      swap1\n      pop\n        /* \"token/TokenVesting.sol\":9303:9314  newTreasury */\n      dup2\n        /* \"token/TokenVesting.sol\":9292:9300  treasury */\n      0x08\n      0x00\n        /* \"token/TokenVesting.sol\":9292:9314  treasury = newTreasury */\n      0x0100\n      exp\n      dup2\n      sload\n      dup2\n      0xffffffffffffffffffffffffffffffffffffffff\n      mul\n      not\n      and\n      swap1\n      dup4\n      0xffffffffffffffffffffffffffffffffffffffff\n      and\n      mul\n      or\n      swap1\n      sstore\n      pop\n        /* \"token/TokenVesting.sol\":9358:9369  newTreasury */\n      dup2\n        /* \"token/TokenVesting.sol\":9329:9370  TreasuryUpdated(oldTreasury, newTreasury) */\n      0xffffffffffffffffffffffffffffffffffffffff\n      and\n        /* \"token/TokenVesting.sol\":9345:9356  oldTreasury */\n      dup2\n        /* \"token/TokenVesting.sol\":9329:9370  TreasuryUpdated(oldTreasury, newTreasury) */\n      0xffffffffffffffffffffffffffffffffffffffff\n      and\n      0x4ab5be82436d353e61ca18726e984e561f5c1cc7c6d38b29d2553c790434705a\n      mload(0x40)\n      mload(0x40)\n      dup1\n      swap2\n      sub\n      swap1\n      log3\n        /* \"token/TokenVesting.sol\":9179:9377  {... */\n      pop\n        /* \"token/TokenVesting.sol\":9115:9377  function updateTreasury(address newTreasury) external onlyOwner {... */\n      pop\n      jump\t// out\n        /* \"token/TokenVesting.sol\":9410:9471  function pause() external onlyOwner {... */\n    tag_66:\n        /* \"@openzeppelin/contracts/access/Ownable.sol\":1531:1544  _checkOwner() */\n      tag_208\n        /* \"@openzeppelin/contracts/access/Ownable.sol\":1531:1542  _checkOwner */\n      tag_132\n        /* \"@openzeppelin/contracts/access/Ownable.sol\":1531:1544  _checkOwner() */\n      jump\t// in\n    tag_208:\n        /* \"token/TokenVesting.sol\":9456:9464  _pause() */\n      tag_210\n        /* \"token/TokenVesting.sol\":9456:9462  _pause */\n      tag_211\n        /* \"token/TokenVesting.sol\":9456:9464  _pause() */\n      jump\t// in\n    tag_210:\n        /* \"token/TokenVesting.sol\":9410:9471  function pause() external onlyOwner {... */\n      jump\t// out\n        /* \"@openzeppelin/contracts/access/Ownable.sol\":1638:1723  function owner() public view virtual returns (address) {... */\n    tag_68:\n        /* \"@openzeppelin/contracts/access/Ownable.sol\":1684:1691  address */\n      0x00\n        /* \"@openzeppelin/contracts/access/Ownable.sol\":1710:1716  _owner */\n      dup1\n      0x00\n      swap1\n      sload\n      swap1\n      0x0100\n      exp\n      swap1\n      div\n      0xffffffffffffffffffffffffffffffffffffffff\n      and\n        /* \"@openzeppelin/contracts/access/Ownable.sol\":1703:1716  return _owner */\n      swap1\n      pop\n        /* \"@openzeppelin/contracts/access/Ownable.sol\":1638:1723  function owner() public view virtual returns (address) {... */\n      swap1\n      jump\t// out\n        /* \"token/TokenVesting.sol\":1627:1682  mapping(address => uint256) public vestingScheduleCount */\n    tag_72:\n      mstore(0x20, 0x04)\n      dup1\n      0x00\n      mstore\n      keccak256(0x00, 0x40)\n      0x00\n      swap2\n      pop\n      swap1\n      pop\n      sload\n      dup2\n      jump\t// out\n        /* \"token/TokenVesting.sol\":8030:8755  function getVestingSchedule(... */\n    tag_76:\n        /* \"token/TokenVesting.sol\":8153:8172  uint256 totalAmount */\n      0x00\n        /* \"token/TokenVesting.sol\":8182:8204  uint256 releasedAmount */\n      dup1\n        /* \"token/TokenVesting.sol\":8214:8231  uint256 startTime */\n      0x00\n        /* \"token/TokenVesting.sol\":8241:8257  uint256 duration */\n      dup1\n        /* \"token/TokenVesting.sol\":8267:8288  uint256 cliffDuration */\n      0x00\n        /* \"token/TokenVesting.sol\":8298:8317  uint256 slicePeriod */\n      dup1\n        /* \"token/TokenVesting.sol\":8327:8341  bool revocable */\n      0x00\n        /* \"token/TokenVesting.sol\":8351:8363  bool revoked */\n      dup1\n        /* \"token/TokenVesting.sol\":8380:8411  VestingSchedule memory schedule */\n      0x00\n        /* \"token/TokenVesting.sol\":8414:8430  vestingSchedules */\n      0x03\n        /* \"token/TokenVesting.sol\":8414:8443  vestingSchedules[beneficiary] */\n      0x00\n        /* \"token/TokenVesting.sol\":8431:8442  beneficiary */\n      dup13\n        /* \"token/TokenVesting.sol\":8414:8443  vestingSchedules[beneficiary] */\n      0xffffffffffffffffffffffffffffffffffffffff\n      and\n      0xffffffffffffffffffffffffffffffffffffffff\n      and\n      dup2\n      mstore\n      0x20\n      add\n      swap1\n      dup2\n      mstore\n      0x20\n      add\n      0x00\n      keccak256\n        /* \"token/TokenVesting.sol\":8444:8454  scheduleId */\n      dup11\n        /* \"token/TokenVesting.sol\":8414:8455  vestingSchedules[beneficiary][scheduleId] */\n      dup2\n      sload\n      dup2\n      lt\n      tag_214\n      jumpi\n      tag_215\n      tag_101\n      jump\t// in\n    tag_215:\n    tag_214:\n      swap1\n      0x00\n      mstore\n      keccak256(0x00, 0x20)\n      swap1\n      0x07\n      mul\n      add\n        /* \"token/TokenVesting.sol\":8380:8455  VestingSchedule memory schedule = vestingSchedules[beneficiary][scheduleId] */\n      mload(0x40)\n      dup1\n      0x0100\n      add\n      0x40\n      mstore\n      swap1\n      dup2\n      0x00\n      dup3\n      add\n      sload\n      dup2\n      mstore\n      0x20\n      add\n      0x01\n      dup3\n      add\n      sload\n      dup2\n      mstore\n      0x20\n      add\n      0x02\n      dup3\n      add\n      sload\n      dup2\n      mstore\n      0x20\n      add\n      0x03\n      dup3\n      add\n      sload\n      dup2\n      mstore\n      0x20\n      add\n      0x04\n      dup3\n      add\n      sload\n      dup2\n      mstore\n      0x20\n      add\n      0x05\n      dup3\n      add\n      sload\n      dup2\n      mstore\n      0x20\n      add\n      0x06\n      dup3\n      add\n      0x00\n      swap1\n      sload\n      swap1\n      0x0100\n      exp\n      swap1\n      div\n      0xff\n      and\n      iszero\n      iszero\n      iszero\n      iszero\n      dup2\n      mstore\n      0x20\n      add\n      0x06\n      dup3\n      add\n      0x01\n      swap1\n      sload\n      swap1\n      0x0100\n      exp\n      swap1\n      div\n      0xff\n      and\n      iszero\n      iszero\n      iszero\n      iszero\n      dup2\n      mstore\n      pop\n      pop\n      swap1\n      pop\n        /* \"token/TokenVesting.sol\":8486:8494  schedule */\n      dup1\n        /* \"token/TokenVesting.sol\":8486:8506  schedule.totalAmount */\n      0x00\n      add\n      mload\n        /* \"token/TokenVesting.sol\":8520:8528  schedule */\n      dup2\n        /* \"token/TokenVesting.sol\":8520:8543  schedule.releasedAmount */\n      0x20\n      add\n      mload\n        /* \"token/TokenVesting.sol\":8557:8565  schedule */\n      dup3\n        /* \"token/TokenVesting.sol\":8557:8575  schedule.startTime */\n      0x40\n      add\n      mload\n        /* \"token/TokenVesting.sol\":8589:8597  schedule */\n      dup4\n        /* \"token/TokenVesting.sol\":8589:8606  schedule.duration */\n      0x60\n      add\n      mload\n        /* \"token/TokenVesting.sol\":8620:8628  schedule */\n      dup5\n        /* \"token/TokenVesting.sol\":8620:8642  schedule.cliffDuration */\n      0x80\n      add\n      mload\n        /* \"token/TokenVesting.sol\":8656:8664  schedule */\n      dup6\n        /* \"token/TokenVesting.sol\":8656:8676  schedule.slicePeriod */\n      0xa0\n      add\n      mload\n        /* \"token/TokenVesting.sol\":8690:8698  schedule */\n      dup7\n        /* \"token/TokenVesting.sol\":8690:8708  schedule.revocable */\n      0xc0\n      add\n      mload\n        /* \"token/TokenVesting.sol\":8722:8730  schedule */\n      dup8\n        /* \"token/TokenVesting.sol\":8722:8738  schedule.revoked */\n      0xe0\n      add\n      mload\n        /* \"token/TokenVesting.sol\":8465:8748  return (... */\n      swap9\n      pop\n      swap9\n      pop\n      swap9\n      pop\n      swap9\n      pop\n      swap9\n      pop\n      swap9\n      pop\n      swap9\n      pop\n      swap9\n      pop\n      pop\n        /* \"token/TokenVesting.sol\":8030:8755  function getVestingSchedule(... */\n      swap3\n      swap6\n      swap9\n      pop\n      swap3\n      swap6\n      swap9\n      swap1\n      swap4\n      swap7\n      pop\n      jump\t// out\n        /* \"token/TokenVesting.sol\":1818:1854  uint256 public vestingSchedulesCount */\n    tag_79:\n      sload(0x07)\n      dup2\n      jump\t// out\n        /* \"token/TokenVesting.sol\":6192:7096  function revoke(... */\n    tag_83:\n        /* \"@openzeppelin/contracts/access/Ownable.sol\":1531:1544  _checkOwner() */\n      tag_218\n        /* \"@openzeppelin/contracts/access/Ownable.sol\":1531:1542  _checkOwner */\n      tag_132\n        /* \"@openzeppelin/contracts/access/Ownable.sol\":1531:1544  _checkOwner() */\n      jump\t// in\n    tag_218:\n        /* \"token/TokenVesting.sol\":6300:6332  VestingSchedule storage schedule */\n      0x00\n        /* \"token/TokenVesting.sol\":6335:6351  vestingSchedules */\n      0x03\n        /* \"token/TokenVesting.sol\":6335:6364  vestingSchedules[beneficiary] */\n      0x00\n        /* \"token/TokenVesting.sol\":6352:6363  beneficiary */\n      dup5\n        /* \"token/TokenVesting.sol\":6335:6364  vestingSchedules[beneficiary] */\n      0xffffffffffffffffffffffffffffffffffffffff\n      and\n      0xffffffffffffffffffffffffffffffffffffffff\n      and\n      dup2\n      mstore\n      0x20\n      add\n      swap1\n      dup2\n      mstore\n      0x20\n      add\n      0x00\n      keccak256\n        /* \"token/TokenVesting.sol\":6365:6375  scheduleId */\n      dup3\n        /* \"token/TokenVesting.sol\":6335:6376  vestingSchedules[beneficiary][scheduleId] */\n      dup2\n      sload\n      dup2\n      lt\n      tag_220\n      jumpi\n      tag_221\n      tag_101\n      jump\t// in\n    tag_221:\n    tag_220:\n      swap1\n      0x00\n      mstore\n      keccak256(0x00, 0x20)\n      swap1\n      0x07\n      mul\n      add\n        /* \"token/TokenVesting.sol\":6300:6376  VestingSchedule storage schedule = vestingSchedules[beneficiary][scheduleId] */\n      swap1\n      pop\n        /* \"token/TokenVesting.sol\":6417:6418  0 */\n      0x00\n        /* \"token/TokenVesting.sol\":6394:6402  schedule */\n      dup2\n        /* \"token/TokenVesting.sol\":6394:6414  schedule.totalAmount */\n      0x00\n      add\n      sload\n        /* \"token/TokenVesting.sol\":6394:6418  schedule.totalAmount > 0 */\n      gt\n        /* \"token/TokenVesting.sol\":6386:6439  require(schedule.totalAmount > 0, \"No such schedule\") */\n      tag_223\n      jumpi\n      mload(0x40)\n      0x08c379a000000000000000000000000000000000000000000000000000000000\n      dup2\n      mstore\n      0x04\n      add\n      tag_224\n      swap1\n      tag_105\n      jump\t// in\n    tag_224:\n      mload(0x40)\n      dup1\n      swap2\n      sub\n      swap1\n      revert\n    tag_223:\n        /* \"token/TokenVesting.sol\":6457:6465  schedule */\n      dup1\n        /* \"token/TokenVesting.sol\":6457:6475  schedule.revocable */\n      0x06\n      add\n      0x00\n      swap1\n      sload\n      swap1\n      0x0100\n      exp\n      swap1\n      div\n      0xff\n      and\n        /* \"token/TokenVesting.sol\":6449:6493  require(schedule.revocable, \"Not revocable\") */\n      tag_225\n      jumpi\n      mload(0x40)\n      0x08c379a000000000000000000000000000000000000000000000000000000000\n      dup2\n      mstore\n      0x04\n      add\n      tag_226\n      swap1\n      tag_227\n      jump\t// in\n    tag_226:\n      mload(0x40)\n      dup1\n      swap2\n      sub\n      swap1\n      revert\n    tag_225:\n        /* \"token/TokenVesting.sol\":6512:6520  schedule */\n      dup1\n        /* \"token/TokenVesting.sol\":6512:6528  schedule.revoked */\n      0x06\n      add\n      0x01\n      swap1\n      sload\n      swap1\n      0x0100\n      exp\n      swap1\n      div\n      0xff\n      and\n        /* \"token/TokenVesting.sol\":6511:6528  !schedule.revoked */\n      iszero\n        /* \"token/TokenVesting.sol\":6503:6548  require(!schedule.revoked, \"Already revoked\") */\n      tag_228\n      jumpi\n      mload(0x40)\n      0x08c379a000000000000000000000000000000000000000000000000000000000\n      dup2\n      mstore\n      0x04\n      add\n      tag_229\n      swap1\n      tag_230\n      jump\t// in\n    tag_229:\n      mload(0x40)\n      dup1\n      swap2\n      sub\n      swap1\n      revert\n    tag_228:\n        /* \"token/TokenVesting.sol\":6612:6632  uint256 vestedAmount */\n      0x00\n        /* \"token/TokenVesting.sol\":6635:6665  _computeVestedAmount(schedule) */\n      tag_231\n        /* \"token/TokenVesting.sol\":6656:6664  schedule */\n      dup3\n        /* \"token/TokenVesting.sol\":6635:6665  _computeVestedAmount(schedule) */\n      mload(0x40)\n      dup1\n      0x0100\n      add\n      0x40\n      mstore\n      swap1\n      dup2\n      0x00\n      dup3\n      add\n      sload\n      dup2\n      mstore\n      0x20\n      add\n      0x01\n      dup3\n      add\n      sload\n      dup2\n      mstore\n      0x20\n      add\n      0x02\n      dup3\n      add\n      sload\n      dup2\n      mstore\n      0x20\n      add\n      0x03\n      dup3\n      add\n      sload\n      dup2\n      mstore\n      0x20\n      add\n      0x04\n      dup3\n      add\n      sload\n      dup2\n      mstore\n      0x20\n      add\n      0x05\n      dup3\n      add\n      sload\n      dup2\n      mstore\n      0x20\n      add\n      0x06\n      dup3\n      add\n      0x00\n      swap1\n      sload\n      swap1\n      0x0100\n      exp\n      swap1\n      div\n      0xff\n      and\n      iszero\n      iszero\n      iszero\n      iszero\n      dup2\n      mstore\n      0x20\n      add\n      0x06\n      dup3\n      add\n      0x01\n      swap1\n      sload\n      swap1\n      0x0100\n      exp\n      swap1\n      div\n      0xff\n      and\n      iszero\n      iszero\n      iszero\n      iszero\n      dup2\n      mstore\n      pop\n      pop\n        /* \"token/TokenVesting.sol\":6635:6655  _computeVestedAmount */\n      tag_110\n        /* \"token/TokenVesting.sol\":6635:6665  _computeVestedAmount(schedule) */\n      jump\t// in\n    tag_231:\n        /* \"token/TokenVesting.sol\":6612:6665  uint256 vestedAmount = _computeVestedAmount(schedule) */\n      swap1\n      pop\n        /* \"token/TokenVesting.sol\":6675:6695  uint256 refundAmount */\n      0x00\n        /* \"token/TokenVesting.sol\":6721:6733  vestedAmount */\n      dup2\n        /* \"token/TokenVesting.sol\":6698:6706  schedule */\n      dup4\n        /* \"token/TokenVesting.sol\":6698:6718  schedule.totalAmount */\n      0x00\n      add\n      sload\n        /* \"token/TokenVesting.sol\":6698:6733  schedule.totalAmount - vestedAmount */\n      tag_232\n      swap2\n      swap1\n      tag_112\n      jump\t// in\n    tag_232:\n        /* \"token/TokenVesting.sol\":6675:6733  uint256 refundAmount = schedule.totalAmount - vestedAmount */\n      swap1\n      pop\n        /* \"token/TokenVesting.sol\":6790:6794  true */\n      0x01\n        /* \"token/TokenVesting.sol\":6771:6779  schedule */\n      dup4\n        /* \"token/TokenVesting.sol\":6771:6787  schedule.revoked */\n      0x06\n      add\n      0x01\n        /* \"token/TokenVesting.sol\":6771:6794  schedule.revoked = true */\n      0x0100\n      exp\n      dup2\n      sload\n      dup2\n      0xff\n      mul\n      not\n      and\n      swap1\n      dup4\n      iszero\n      iszero\n      mul\n      or\n      swap1\n      sstore\n      pop\n        /* \"token/TokenVesting.sol\":6873:6874  0 */\n      0x00\n        /* \"token/TokenVesting.sol\":6858:6870  refundAmount */\n      dup2\n        /* \"token/TokenVesting.sol\":6858:6874  refundAmount > 0 */\n      gt\n        /* \"token/TokenVesting.sol\":6854:7013  if (refundAmount > 0) {... */\n      iszero\n      tag_233\n      jumpi\n        /* \"token/TokenVesting.sol\":6915:6920  token */\n      0x02\n      0x01\n      swap1\n      sload\n      swap1\n      0x0100\n      exp\n      swap1\n      div\n      0xffffffffffffffffffffffffffffffffffffffff\n      and\n        /* \"token/TokenVesting.sol\":6915:6929  token.transfer */\n      0xffffffffffffffffffffffffffffffffffffffff\n      and\n      0xa9059cbb\n        /* \"token/TokenVesting.sol\":6930:6938  treasury */\n      0x08\n      0x00\n      swap1\n      sload\n      swap1\n      0x0100\n      exp\n      swap1\n      div\n      0xffffffffffffffffffffffffffffffffffffffff\n      and\n        /* \"token/TokenVesting.sol\":6940:6952  refundAmount */\n      dup4\n        /* \"token/TokenVesting.sol\":6915:6953  token.transfer(treasury, refundAmount) */\n      mload(0x40)\n      dup4\n      0xffffffff\n      and\n      0xe0\n      shl\n      dup2\n      mstore\n      0x04\n      add\n      tag_234\n      swap3\n      swap2\n      swap1\n      tag_119\n      jump\t// in\n    tag_234:\n      0x20\n      mload(0x40)\n      dup1\n      dup4\n      sub\n      dup2\n      0x00\n      dup8\n      gas\n      call\n      iszero\n      dup1\n      iszero\n      tag_236\n      jumpi\n      returndatasize\n      0x00\n      dup1\n      returndatacopy\n      revert(0x00, returndatasize)\n    tag_236:\n      pop\n      pop\n      pop\n      pop\n      mload(0x40)\n      returndatasize\n      not(0x1f)\n      0x1f\n      dup3\n      add\n      and\n      dup3\n      add\n      dup1\n      0x40\n      mstore\n      pop\n      dup2\n      add\n      swap1\n      tag_237\n      swap2\n      swap1\n      tag_123\n      jump\t// in\n    tag_237:\n        /* \"token/TokenVesting.sol\":6890:7002  require(... */\n      tag_238\n      jumpi\n      mload(0x40)\n      0x08c379a000000000000000000000000000000000000000000000000000000000\n      dup2\n      mstore\n      0x04\n      add\n      tag_239\n      swap1\n      tag_126\n      jump\t// in\n    tag_239:\n      mload(0x40)\n      dup1\n      swap2\n      sub\n      swap1\n      revert\n    tag_238:\n        /* \"token/TokenVesting.sol\":6854:7013  if (refundAmount > 0) {... */\n    tag_233:\n        /* \"token/TokenVesting.sol\":7064:7074  scheduleId */\n      dup4\n        /* \"token/TokenVesting.sol\":7051:7062  beneficiary */\n      dup6\n        /* \"token/TokenVesting.sol\":7028:7089  VestingScheduleRevoked(beneficiary, scheduleId, refundAmount) */\n      0xffffffffffffffffffffffffffffffffffffffff\n      and\n      0x5369437781e041afe7013c48748bcb5985473926a60448846c64d514908aa8fc\n        /* \"token/TokenVesting.sol\":7076:7088  refundAmount */\n      dup4\n        /* \"token/TokenVesting.sol\":7028:7089  VestingScheduleRevoked(beneficiary, scheduleId, refundAmount) */\n      mload(0x40)\n      tag_240\n      swap2\n      swap1\n      tag_30\n      jump\t// in\n    tag_240:\n      mload(0x40)\n      dup1\n      swap2\n      sub\n      swap1\n      log3\n        /* \"token/TokenVesting.sol\":6290:7096  {... */\n      pop\n      pop\n      pop\n        /* \"token/TokenVesting.sol\":6192:7096  function revoke(... */\n      pop\n      pop\n      jump\t// out\n        /* \"@openzeppelin/contracts/access/Ownable.sol\":2543:2758  function transferOwnership(address newOwner) public virtual onlyOwner {... */\n    tag_86:\n        /* \"@openzeppelin/contracts/access/Ownable.sol\":1531:1544  _checkOwner() */\n      tag_242\n        /* \"@openzeppelin/contracts/access/Ownable.sol\":1531:1542  _checkOwner */\n      tag_132\n        /* \"@openzeppelin/contracts/access/Ownable.sol\":1531:1544  _checkOwner() */\n      jump\t// in\n    tag_242:\n        /* \"@openzeppelin/contracts/access/Ownable.sol\":2647:2648  0 */\n      0x00\n        /* \"@openzeppelin/contracts/access/Ownable.sol\":2627:2649  newOwner == address(0) */\n      0xffffffffffffffffffffffffffffffffffffffff\n      and\n        /* \"@openzeppelin/contracts/access/Ownable.sol\":2627:2635  newOwner */\n      dup2\n        /* \"@openzeppelin/contracts/access/Ownable.sol\":2627:2649  newOwner == address(0) */\n      0xffffffffffffffffffffffffffffffffffffffff\n      and\n      sub\n        /* \"@openzeppelin/contracts/access/Ownable.sol\":2623:2714  if (newOwner == address(0)) {... */\n      tag_244\n      jumpi\n        /* \"@openzeppelin/contracts/access/Ownable.sol\":2700:2701  0 */\n      0x00\n        /* \"@openzeppelin/contracts/access/Ownable.sol\":2672:2703  OwnableInvalidOwner(address(0)) */\n      mload(0x40)\n      0x1e4fbdf700000000000000000000000000000000000000000000000000000000\n      dup2\n      mstore\n      0x04\n      add\n      tag_245\n      swap2\n      swap1\n      tag_58\n      jump\t// in\n    tag_245:\n      mload(0x40)\n      dup1\n      swap2\n      sub\n      swap1\n      revert\n        /* \"@openzeppelin/contracts/access/Ownable.sol\":2623:2714  if (newOwner == address(0)) {... */\n    tag_244:\n        /* \"@openzeppelin/contracts/access/Ownable.sol\":2723:2751  _transferOwnership(newOwner) */\n      tag_246\n        /* \"@openzeppelin/contracts/access/Ownable.sol\":2742:2750  newOwner */\n      dup2\n        /* \"@openzeppelin/contracts/access/Ownable.sol\":2723:2741  _transferOwnership */\n      tag_200\n        /* \"@openzeppelin/contracts/access/Ownable.sol\":2723:2751  _transferOwnership(newOwner) */\n      jump\t// in\n    tag_246:\n        /* \"@openzeppelin/contracts/access/Ownable.sol\":2543:2758  function transferOwnership(address newOwner) public virtual onlyOwner {... */\n      pop\n      jump\t// out\n        /* \"token/TokenVesting.sol\":1530:1549  IERC20 public token */\n    tag_88:\n      0x02\n      0x01\n      swap1\n      sload\n      swap1\n      0x0100\n      exp\n      swap1\n      div\n      0xffffffffffffffffffffffffffffffffffffffff\n      and\n      dup2\n      jump\t// out\n        /* \"token/TokenVesting.sol\":8761:9054  function computeReleasableAmount(... */\n    tag_93:\n        /* \"token/TokenVesting.sol\":8880:8887  uint256 */\n      0x00\n        /* \"token/TokenVesting.sol\":8899:8930  VestingSchedule memory schedule */\n      dup1\n        /* \"token/TokenVesting.sol\":8933:8949  vestingSchedules */\n      0x03\n        /* \"token/TokenVesting.sol\":8933:8962  vestingSchedules[beneficiary] */\n      0x00\n        /* \"token/TokenVesting.sol\":8950:8961  beneficiary */\n      dup6\n        /* \"token/TokenVesting.sol\":8933:8962  vestingSchedules[beneficiary] */\n      0xffffffffffffffffffffffffffffffffffffffff\n      and\n      0xffffffffffffffffffffffffffffffffffffffff\n      and\n      dup2\n      mstore\n      0x20\n      add\n      swap1\n      dup2\n      mstore\n      0x20\n      add\n      0x00\n      keccak256\n        /* \"token/TokenVesting.sol\":8963:8973  scheduleId */\n      dup4\n        /* \"token/TokenVesting.sol\":8933:8974  vestingSchedules[beneficiary][scheduleId] */\n      dup2\n      sload\n      dup2\n      lt\n      tag_248\n      jumpi\n      tag_249\n      tag_101\n      jump\t// in\n    tag_249:\n    tag_248:\n      swap1\n      0x00\n      mstore\n      keccak256(0x00, 0x20)\n      swap1\n      0x07\n      mul\n      add\n        /* \"token/TokenVesting.sol\":8899:8974  VestingSchedule memory schedule = vestingSchedules[beneficiary][scheduleId] */\n      mload(0x40)\n      dup1\n      0x0100\n      add\n      0x40\n      mstore\n      swap1\n      dup2\n      0x00\n      dup3\n      add\n      sload\n      dup2\n      mstore\n      0x20\n      add\n      0x01\n      dup3\n      add\n      sload\n      dup2\n      mstore\n      0x20\n      add\n      0x02\n      dup3\n      add\n      sload\n      dup2\n      mstore\n      0x20\n      add\n      0x03\n      dup3\n      add\n      sload\n      dup2\n      mstore\n      0x20\n      add\n      0x04\n      dup3\n      add\n      sload\n      dup2\n      mstore\n      0x20\n      add\n      0x05\n      dup3\n      add\n      sload\n      dup2\n      mstore\n      0x20\n      add\n      0x06\n      dup3\n      add\n      0x00\n      swap1\n      sload\n      swap1\n      0x0100\n      exp\n      swap1\n      div\n      0xff\n      and\n      iszero\n      iszero\n      iszero\n      iszero\n      dup2\n      mstore\n      0x20\n      add\n      0x06\n      dup3\n      add\n      0x01\n      swap1\n      sload\n      swap1\n      0x0100\n      exp\n      swap1\n      div\n      0xff\n      and\n      iszero\n      iszero\n      iszero\n      iszero\n      dup2\n      mstore\n      pop\n      pop\n      swap1\n      pop\n        /* \"token/TokenVesting.sol\":9024:9032  schedule */\n      dup1\n        /* \"token/TokenVesting.sol\":9024:9047  schedule.releasedAmount */\n      0x20\n      add\n      mload\n        /* \"token/TokenVesting.sol\":8991:9021  _computeVestedAmount(schedule) */\n      tag_251\n        /* \"token/TokenVesting.sol\":9012:9020  schedule */\n      dup3\n        /* \"token/TokenVesting.sol\":8991:9011  _computeVestedAmount */\n      tag_110\n        /* \"token/TokenVesting.sol\":8991:9021  _computeVestedAmount(schedule) */\n      jump\t// in\n    tag_251:\n        /* \"token/TokenVesting.sol\":8991:9047  _computeVestedAmount(schedule) - schedule.releasedAmount */\n      tag_252\n      swap2\n      swap1\n      tag_112\n      jump\t// in\n    tag_252:\n        /* \"token/TokenVesting.sol\":8984:9047  return _computeVestedAmount(schedule) - schedule.releasedAmount */\n      swap2\n      pop\n      pop\n        /* \"token/TokenVesting.sol\":8761:9054  function computeReleasableAmount(... */\n      swap3\n      swap2\n      pop\n      pop\n      jump\t// out\n        /* \"@openzeppelin/contracts/utils/ReentrancyGuard.sol\":2575:2882  function _nonReentrantBefore() private {... */\n    tag_97:\n        /* \"@openzeppelin/contracts/utils/ReentrancyGuard.sol\":1899:1900  2 */\n      0x02\n        /* \"@openzeppelin/contracts/utils/ReentrancyGuard.sol\":2702:2709  _status */\n      sload(0x01)\n        /* \"@openzeppelin/contracts/utils/ReentrancyGuard.sol\":2702:2720  _status == ENTERED */\n      sub\n        /* \"@openzeppelin/contracts/utils/ReentrancyGuard.sol\":2698:2784  if (_status == ENTERED) {... */\n      tag_254\n      jumpi\n        /* \"@openzeppelin/contracts/utils/ReentrancyGuard.sol\":2743:2773  ReentrancyGuardReentrantCall() */\n      mload(0x40)\n      0x3ee5aeb500000000000000000000000000000000000000000000000000000000\n      dup2\n      mstore\n      0x04\n      add\n      mload(0x40)\n      dup1\n      swap2\n      sub\n      swap1\n      revert\n        /* \"@openzeppelin/contracts/utils/ReentrancyGuard.sol\":2698:2784  if (_status == ENTERED) {... */\n    tag_254:\n        /* \"@openzeppelin/contracts/utils/ReentrancyGuard.sol\":1899:1900  2 */\n      0x02\n        /* \"@openzeppelin/contracts/utils/ReentrancyGuard.sol\":2858:2865  _status */\n      0x01\n        /* \"@openzeppelin/contracts/utils/ReentrancyGuard.sol\":2858:2875  _status = ENTERED */\n      dup2\n      swap1\n      sstore\n      pop\n        /* \"@openzeppelin/contracts/utils/ReentrancyGuard.sol\":2575:2882  function _nonReentrantBefore() private {... */\n      jump\t// out\n        /* \"token/TokenVesting.sol\":7170:7982  function _computeVestedAmount(... */\n    tag_110:\n        /* \"token/TokenVesting.sol\":7270:7277  uint256 */\n      0x00\n        /* \"token/TokenVesting.sol\":7311:7319  schedule */\n      dup2\n        /* \"token/TokenVesting.sol\":7311:7329  schedule.startTime */\n      0x40\n      add\n      mload\n        /* \"token/TokenVesting.sol\":7293:7308  block.timestamp */\n      timestamp\n        /* \"token/TokenVesting.sol\":7293:7329  block.timestamp < schedule.startTime */\n      lt\n        /* \"token/TokenVesting.sol\":7289:7364  if (block.timestamp < schedule.startTime) {... */\n      iszero\n      tag_256\n      jumpi\n        /* \"token/TokenVesting.sol\":7352:7353  0 */\n      0x00\n        /* \"token/TokenVesting.sol\":7345:7353  return 0 */\n      swap1\n      pop\n      jump(tag_255)\n        /* \"token/TokenVesting.sol\":7289:7364  if (block.timestamp < schedule.startTime) {... */\n    tag_256:\n        /* \"token/TokenVesting.sol\":7417:7425  schedule */\n      dup2\n        /* \"token/TokenVesting.sol\":7417:7439  schedule.cliffDuration */\n      0x80\n      add\n      mload\n        /* \"token/TokenVesting.sol\":7396:7404  schedule */\n      dup3\n        /* \"token/TokenVesting.sol\":7396:7414  schedule.startTime */\n      0x40\n      add\n      mload\n        /* \"token/TokenVesting.sol\":7396:7439  schedule.startTime + schedule.cliffDuration */\n      tag_257\n      swap2\n      swap1\n      tag_117\n      jump\t// in\n    tag_257:\n        /* \"token/TokenVesting.sol\":7378:7393  block.timestamp */\n      timestamp\n        /* \"token/TokenVesting.sol\":7378:7439  block.timestamp < schedule.startTime + schedule.cliffDuration */\n      lt\n        /* \"token/TokenVesting.sol\":7374:7474  if (block.timestamp < schedule.startTime + schedule.cliffDuration) {... */\n      iszero\n      tag_258\n      jumpi\n        /* \"token/TokenVesting.sol\":7462:7463  0 */\n      0x00\n        /* \"token/TokenVesting.sol\":7455:7463  return 0 */\n      swap1\n      pop\n      jump(tag_255)\n        /* \"token/TokenVesting.sol\":7374:7474  if (block.timestamp < schedule.startTime + schedule.cliffDuration) {... */\n    tag_258:\n        /* \"token/TokenVesting.sol\":7528:7536  schedule */\n      dup2\n        /* \"token/TokenVesting.sol\":7528:7545  schedule.duration */\n      0x60\n      add\n      mload\n        /* \"token/TokenVesting.sol\":7507:7515  schedule */\n      dup3\n        /* \"token/TokenVesting.sol\":7507:7525  schedule.startTime */\n      0x40\n      add\n      mload\n        /* \"token/TokenVesting.sol\":7507:7545  schedule.startTime + schedule.duration */\n      tag_259\n      swap2\n      swap1\n      tag_117\n      jump\t// in\n    tag_259:\n        /* \"token/TokenVesting.sol\":7488:7503  block.timestamp */\n      timestamp\n        /* \"token/TokenVesting.sol\":7488:7545  block.timestamp >= schedule.startTime + schedule.duration */\n      lt\n        /* \"token/TokenVesting.sol\":7484:7599  if (block.timestamp >= schedule.startTime + schedule.duration) {... */\n      tag_260\n      jumpi\n        /* \"token/TokenVesting.sol\":7568:7576  schedule */\n      dup2\n        /* \"token/TokenVesting.sol\":7568:7588  schedule.totalAmount */\n      0x00\n      add\n      mload\n        /* \"token/TokenVesting.sol\":7561:7588  return schedule.totalAmount */\n      swap1\n      pop\n      jump(tag_255)\n        /* \"token/TokenVesting.sol\":7484:7599  if (block.timestamp >= schedule.startTime + schedule.duration) {... */\n    tag_260:\n        /* \"token/TokenVesting.sol\":7609:7630  uint256 timeFromStart */\n      0x00\n        /* \"token/TokenVesting.sol\":7651:7659  schedule */\n      dup3\n        /* \"token/TokenVesting.sol\":7651:7669  schedule.startTime */\n      0x40\n      add\n      mload\n        /* \"token/TokenVesting.sol\":7633:7648  block.timestamp */\n      timestamp\n        /* \"token/TokenVesting.sol\":7633:7669  block.timestamp - schedule.startTime */\n      tag_261\n      swap2\n      swap1\n      tag_112\n      jump\t// in\n    tag_261:\n        /* \"token/TokenVesting.sol\":7609:7669  uint256 timeFromStart = block.timestamp - schedule.startTime */\n      swap1\n      pop\n        /* \"token/TokenVesting.sol\":7679:7702  uint256 secondsPerSlice */\n      0x00\n        /* \"token/TokenVesting.sol\":7705:7713  schedule */\n      dup4\n        /* \"token/TokenVesting.sol\":7705:7725  schedule.slicePeriod */\n      0xa0\n      add\n      mload\n        /* \"token/TokenVesting.sol\":7679:7725  uint256 secondsPerSlice = schedule.slicePeriod */\n      swap1\n      pop\n        /* \"token/TokenVesting.sol\":7735:7755  uint256 vestedSlices */\n      0x00\n        /* \"token/TokenVesting.sol\":7774:7789  secondsPerSlice */\n      dup2\n        /* \"token/TokenVesting.sol\":7758:7771  timeFromStart */\n      dup4\n        /* \"token/TokenVesting.sol\":7758:7789  timeFromStart / secondsPerSlice */\n      tag_262\n      swap2\n      swap1\n      tag_263\n      jump\t// in\n    tag_262:\n        /* \"token/TokenVesting.sol\":7735:7789  uint256 vestedSlices = timeFromStart / secondsPerSlice */\n      swap1\n      pop\n        /* \"token/TokenVesting.sol\":7799:7820  uint256 vestedSeconds */\n      0x00\n        /* \"token/TokenVesting.sol\":7838:7853  secondsPerSlice */\n      dup3\n        /* \"token/TokenVesting.sol\":7823:7835  vestedSlices */\n      dup3\n        /* \"token/TokenVesting.sol\":7823:7853  vestedSlices * secondsPerSlice */\n      tag_264\n      swap2\n      swap1\n      tag_265\n      jump\t// in\n    tag_264:\n        /* \"token/TokenVesting.sol\":7799:7853  uint256 vestedSeconds = vestedSlices * secondsPerSlice */\n      swap1\n      pop\n        /* \"token/TokenVesting.sol\":7864:7884  uint256 vestedAmount */\n      0x00\n        /* \"token/TokenVesting.sol\":7928:7936  schedule */\n      dup7\n        /* \"token/TokenVesting.sol\":7928:7945  schedule.duration */\n      0x60\n      add\n      mload\n        /* \"token/TokenVesting.sol\":7911:7924  vestedSeconds */\n      dup3\n        /* \"token/TokenVesting.sol\":7888:7896  schedule */\n      dup9\n        /* \"token/TokenVesting.sol\":7888:7908  schedule.totalAmount */\n      0x00\n      add\n      mload\n        /* \"token/TokenVesting.sol\":7888:7924  schedule.totalAmount * vestedSeconds */\n      tag_266\n      swap2\n      swap1\n      tag_265\n      jump\t// in\n    tag_266:\n        /* \"token/TokenVesting.sol\":7887:7945  (schedule.totalAmount * vestedSeconds) / schedule.duration */\n      tag_267\n      swap2\n      swap1\n      tag_263\n      jump\t// in\n    tag_267:\n        /* \"token/TokenVesting.sol\":7864:7945  uint256 vestedAmount = (schedule.totalAmount * vestedSeconds) / schedule.duration */\n      swap1\n      pop\n        /* \"token/TokenVesting.sol\":7963:7975  vestedAmount */\n      dup1\n        /* \"token/TokenVesting.sol\":7956:7975  return vestedAmount */\n      swap6\n      pop\n      pop\n      pop\n      pop\n      pop\n      pop\n        /* \"token/TokenVesting.sol\":7170:7982  function _computeVestedAmount(... */\n    tag_255:\n      swap2\n      swap1\n      pop\n      jump\t// out\n        /* \"@openzeppelin/contracts/utils/ReentrancyGuard.sol\":2888:3096  function _nonReentrantAfter() private {... */\n    tag_129:\n        /* \"@openzeppelin/contracts/utils/ReentrancyGuard.sol\":1857:1858  1 */\n      0x01\n        /* \"@openzeppelin/contracts/utils/ReentrancyGuard.sol\":3068:3075  _status */\n      dup1\n        /* \"@openzeppelin/contracts/utils/ReentrancyGuard.sol\":3068:3089  _status = NOT_ENTERED */\n      dup2\n      swap1\n      sstore\n      pop\n        /* \"@openzeppelin/contracts/utils/ReentrancyGuard.sol\":2888:3096  function _nonReentrantAfter() private {... */\n      jump\t// out\n        /* \"@openzeppelin/contracts/access/Ownable.sol\":1796:1958  function _checkOwner() internal view virtual {... */\n    tag_132:\n        /* \"@openzeppelin/contracts/access/Ownable.sol\":1866:1878  _msgSender() */\n      tag_270\n        /* \"@openzeppelin/contracts/access/Ownable.sol\":1866:1876  _msgSender */\n      tag_271\n        /* \"@openzeppelin/contracts/access/Ownable.sol\":1866:1878  _msgSender() */\n      jump\t// in\n    tag_270:\n        /* \"@openzeppelin/contracts/access/Ownable.sol\":1855:1878  owner() != _msgSender() */\n      0xffffffffffffffffffffffffffffffffffffffff\n      and\n        /* \"@openzeppelin/contracts/access/Ownable.sol\":1855:1862  owner() */\n      tag_272\n        /* \"@openzeppelin/contracts/access/Ownable.sol\":1855:1860  owner */\n      tag_68\n        /* \"@openzeppelin/contracts/access/Ownable.sol\":1855:1862  owner() */\n      jump\t// in\n    tag_272:\n        /* \"@openzeppelin/contracts/access/Ownable.sol\":1855:1878  owner() != _msgSender() */\n      0xffffffffffffffffffffffffffffffffffffffff\n      and\n      eq\n        /* \"@openzeppelin/contracts/access/Ownable.sol\":1851:1952  if (owner() != _msgSender()) {... */\n      tag_273\n      jumpi\n        /* \"@openzeppelin/contracts/access/Ownable.sol\":1928:1940  _msgSender() */\n      tag_274\n        /* \"@openzeppelin/contracts/access/Ownable.sol\":1928:1938  _msgSender */\n      tag_271\n        /* \"@openzeppelin/contracts/access/Ownable.sol\":1928:1940  _msgSender() */\n      jump\t// in\n    tag_274:\n        /* \"@openzeppelin/contracts/access/Ownable.sol\":1901:1941  OwnableUnauthorizedAccount(_msgSender()) */\n      mload(0x40)\n      0x118cdaa700000000000000000000000000000000000000000000000000000000\n      dup2\n      mstore\n      0x04\n      add\n      tag_275\n      swap2\n      swap1\n      tag_58\n      jump\t// in\n    tag_275:\n      mload(0x40)\n      dup1\n      swap2\n      sub\n      swap1\n      revert\n        /* \"@openzeppelin/contracts/access/Ownable.sol\":1851:1952  if (owner() != _msgSender()) {... */\n    tag_273:\n        /* \"@openzeppelin/contracts/access/Ownable.sol\":1796:1958  function _checkOwner() internal view virtual {... */\n      jump\t// out\n        /* \"@openzeppelin/contracts/utils/Pausable.sol\":2710:2827  function _unpause() internal virtual whenPaused {... */\n    tag_135:\n        /* \"@openzeppelin/contracts/utils/Pausable.sol\":1721:1737  _requirePaused() */\n      tag_277\n        /* \"@openzeppelin/contracts/utils/Pausable.sol\":1721:1735  _requirePaused */\n      tag_278\n        /* \"@openzeppelin/contracts/utils/Pausable.sol\":1721:1737  _requirePaused() */\n      jump\t// in\n    tag_277:\n        /* \"@openzeppelin/contracts/utils/Pausable.sol\":2778:2783  false */\n      0x00\n        /* \"@openzeppelin/contracts/utils/Pausable.sol\":2768:2775  _paused */\n      0x02\n      0x00\n        /* \"@openzeppelin/contracts/utils/Pausable.sol\":2768:2783  _paused = false */\n      0x0100\n      exp\n      dup2\n      sload\n      dup2\n      0xff\n      mul\n      not\n      and\n      swap1\n      dup4\n      iszero\n      iszero\n      mul\n      or\n      swap1\n      sstore\n      pop\n        /* \"@openzeppelin/contracts/utils/Pausable.sol\":2798:2820  Unpaused(_msgSender()) */\n      0x5db9ee0a495bf2e6ff9c91a7834c1ba4fdd244a5e8aa4e537bd38aeae4b073aa\n        /* \"@openzeppelin/contracts/utils/Pausable.sol\":2807:2819  _msgSender() */\n      tag_280\n        /* \"@openzeppelin/contracts/utils/Pausable.sol\":2807:2817  _msgSender */\n      tag_271\n        /* \"@openzeppelin/contracts/utils/Pausable.sol\":2807:2819  _msgSender() */\n      jump\t// in\n    tag_280:\n        /* \"@openzeppelin/contracts/utils/Pausable.sol\":2798:2820  Unpaused(_msgSender()) */\n      mload(0x40)\n      tag_281\n      swap2\n      swap1\n      tag_58\n      jump\t// in\n    tag_281:\n      mload(0x40)\n      dup1\n      swap2\n      sub\n      swap1\n      log1\n        /* \"@openzeppelin/contracts/utils/Pausable.sol\":2710:2827  function _unpause() internal virtual whenPaused {... */\n      jump\t// out\n        /* \"@openzeppelin/contracts/access/Ownable.sol\":2912:3099  function _transferOwnership(address newOwner) internal virtual {... */\n    tag_200:\n        /* \"@openzeppelin/contracts/access/Ownable.sol\":2985:3001  address oldOwner */\n      0x00\n        /* \"@openzeppelin/contracts/access/Ownable.sol\":3004:3010  _owner */\n      dup1\n      0x00\n      swap1\n      sload\n      swap1\n      0x0100\n      exp\n      swap1\n      div\n      0xffffffffffffffffffffffffffffffffffffffff\n      and\n        /* \"@openzeppelin/contracts/access/Ownable.sol\":2985:3010  address oldOwner = _owner */\n      swap1\n      pop\n        /* \"@openzeppelin/contracts/access/Ownable.sol\":3029:3037  newOwner */\n      dup2\n        /* \"@openzeppelin/contracts/access/Ownable.sol\":3020:3026  _owner */\n      0x00\n      dup1\n        /* \"@openzeppelin/contracts/access/Ownable.sol\":3020:3037  _owner = newOwner */\n      0x0100\n      exp\n      dup2\n      sload\n      dup2\n      0xffffffffffffffffffffffffffffffffffffffff\n      mul\n      not\n      and\n      swap1\n      dup4\n      0xffffffffffffffffffffffffffffffffffffffff\n      and\n      mul\n      or\n      swap1\n      sstore\n      pop\n        /* \"@openzeppelin/contracts/access/Ownable.sol\":3083:3091  newOwner */\n      dup2\n        /* \"@openzeppelin/contracts/access/Ownable.sol\":3052:3092  OwnershipTransferred(oldOwner, newOwner) */\n      0xffffffffffffffffffffffffffffffffffffffff\n      and\n        /* \"@openzeppelin/contracts/access/Ownable.sol\":3073:3081  oldOwner */\n      dup2\n        /* \"@openzeppelin/contracts/access/Ownable.sol\":3052:3092  OwnershipTransferred(oldOwner, newOwner) */\n      0xffffffffffffffffffffffffffffffffffffffff\n      and\n      0x8be0079c531659141344cd1fd0a4f28419497f9722a3daafe3b4186f6b6457e0\n      mload(0x40)\n      mload(0x40)\n      dup1\n      swap2\n      sub\n      swap1\n      log3\n        /* \"@openzeppelin/contracts/access/Ownable.sol\":2975:3099  {... */\n      pop\n        /* \"@openzeppelin/contracts/access/Ownable.sol\":2912:3099  function _transferOwnership(address newOwner) internal virtual {... */\n      pop\n      jump\t// out\n        /* \"@openzeppelin/contracts/utils/Pausable.sol\":2463:2578  function _pause() internal virtual whenNotPaused {... */\n    tag_211:\n        /* \"@openzeppelin/contracts/utils/Pausable.sol\":1474:1493  _requireNotPaused() */\n      tag_284\n        /* \"@openzeppelin/contracts/utils/Pausable.sol\":1474:1491  _requireNotPaused */\n      tag_285\n        /* \"@openzeppelin/contracts/utils/Pausable.sol\":1474:1493  _requireNotPaused() */\n      jump\t// in\n    tag_284:\n        /* \"@openzeppelin/contracts/utils/Pausable.sol\":2532:2536  true */\n      0x01\n        /* \"@openzeppelin/contracts/utils/Pausable.sol\":2522:2529  _paused */\n      0x02\n      0x00\n        /* \"@openzeppelin/contracts/utils/Pausable.sol\":2522:2536  _paused = true */\n      0x0100\n      exp\n      dup2\n      sload\n      dup2\n      0xff\n      mul\n      not\n      and\n      swap1\n      dup4\n      iszero\n      iszero\n      mul\n      or\n      swap1\n      sstore\n      pop\n        /* \"@openzeppelin/contracts/utils/Pausable.sol\":2551:2571  Paused(_msgSender()) */\n      0x62e78cea01bee320cd4e420270b5ea74000d11b0c9f74754ebdbfc544b05a258\n        /* \"@openzeppelin/contracts/utils/Pausable.sol\":2558:2570  _msgSender() */\n      tag_287\n        /* \"@openzeppelin/contracts/utils/Pausable.sol\":2558:2568  _msgSender */\n      tag_271\n        /* \"@openzeppelin/contracts/utils/Pausable.sol\":2558:2570  _msgSender() */\n      jump\t// in\n    tag_287:\n        /* \"@openzeppelin/contracts/utils/Pausable.sol\":2551:2571  Paused(_msgSender()) */\n      mload(0x40)\n      tag_288\n      swap2\n      swap1\n      tag_58\n      jump\t// in\n    tag_288:\n      mload(0x40)\n      dup1\n      swap2\n      sub\n      swap1\n      log1\n        /* \"@openzeppelin/contracts/utils/Pausable.sol\":2463:2578  function _pause() internal virtual whenNotPaused {... */\n      jump\t// out\n        /* \"@openzeppelin/contracts/utils/Context.sol\":656:752  function _msgSender() internal view virtual returns (address) {... */\n    tag_271:\n        /* \"@openzeppelin/contracts/utils/Context.sol\":709:716  address */\n      0x00\n        /* \"@openzeppelin/contracts/utils/Context.sol\":735:745  msg.sender */\n      caller\n        /* \"@openzeppelin/contracts/utils/Context.sol\":728:745  return msg.sender */\n      swap1\n      pop\n        /* \"@openzeppelin/contracts/utils/Context.sol\":656:752  function _msgSender() internal view virtual returns (address) {... */\n      swap1\n      jump\t// out\n        /* \"@openzeppelin/contracts/utils/Pausable.sol\":2202:2328  function _requirePaused() internal view virtual {... */\n    tag_278:\n        /* \"@openzeppelin/contracts/utils/Pausable.sol\":2265:2273  paused() */\n      tag_291\n        /* \"@openzeppelin/contracts/utils/Pausable.sol\":2265:2271  paused */\n      tag_52\n        /* \"@openzeppelin/contracts/utils/Pausable.sol\":2265:2273  paused() */\n      jump\t// in\n    tag_291:\n        /* \"@openzeppelin/contracts/utils/Pausable.sol\":2260:2322  if (!paused()) {... */\n      tag_292\n      jumpi\n        /* \"@openzeppelin/contracts/utils/Pausable.sol\":2296:2311  ExpectedPause() */\n      mload(0x40)\n      0x8dfc202b00000000000000000000000000000000000000000000000000000000\n      dup2\n      mstore\n      0x04\n      add\n      mload(0x40)\n      dup1\n      swap2\n      sub\n      swap1\n      revert\n        /* \"@openzeppelin/contracts/utils/Pausable.sol\":2260:2322  if (!paused()) {... */\n    tag_292:\n        /* \"@openzeppelin/contracts/utils/Pausable.sol\":2202:2328  function _requirePaused() internal view virtual {... */\n      jump\t// out\n        /* \"@openzeppelin/contracts/utils/Pausable.sol\":2002:2130  function _requireNotPaused() internal view virtual {... */\n    tag_285:\n        /* \"@openzeppelin/contracts/utils/Pausable.sol\":2067:2075  paused() */\n      tag_294\n        /* \"@openzeppelin/contracts/utils/Pausable.sol\":2067:2073  paused */\n      tag_52\n        /* \"@openzeppelin/contracts/utils/Pausable.sol\":2067:2075  paused() */\n      jump\t// in\n    tag_294:\n        /* \"@openzeppelin/contracts/utils/Pausable.sol\":2063:2124  if (paused()) {... */\n      iszero\n      tag_295\n      jumpi\n        /* \"@openzeppelin/contracts/utils/Pausable.sol\":2098:2113  EnforcedPause() */\n      mload(0x40)\n      0xd93c066500000000000000000000000000000000000000000000000000000000\n      dup2\n      mstore\n      0x04\n      add\n      mload(0x40)\n      dup1\n      swap2\n      sub\n      swap1\n      revert\n        /* \"@openzeppelin/contracts/utils/Pausable.sol\":2063:2124  if (paused()) {... */\n    tag_295:\n        /* \"@openzeppelin/contracts/utils/Pausable.sol\":2002:2130  function _requireNotPaused() internal view virtual {... */\n      jump\t// out\n        /* \"#utility.yul\":88:205   */\n    tag_297:\n        /* \"#utility.yul\":197:198   */\n      0x00\n        /* \"#utility.yul\":194:195   */\n      dup1\n        /* \"#utility.yul\":187:199   */\n      revert\n        /* \"#utility.yul\":334:450   */\n    tag_299:\n        /* \"#utility.yul\":424:425   */\n      0x05\n        /* \"#utility.yul\":417:422   */\n      dup2\n        /* \"#utility.yul\":414:426   */\n      lt\n        /* \"#utility.yul\":404:444   */\n      tag_360\n      jumpi\n        /* \"#utility.yul\":440:441   */\n      0x00\n        /* \"#utility.yul\":437:438   */\n      dup1\n        /* \"#utility.yul\":430:442   */\n      revert\n        /* \"#utility.yul\":404:444   */\n    tag_360:\n        /* \"#utility.yul\":334:450   */\n      pop\n      jump\t// out\n        /* \"#utility.yul\":456:629   */\n    tag_300:\n        /* \"#utility.yul\":519:524   */\n      0x00\n        /* \"#utility.yul\":557:563   */\n      dup2\n        /* \"#utility.yul\":544:564   */\n      calldataload\n        /* \"#utility.yul\":535:564   */\n      swap1\n      pop\n        /* \"#utility.yul\":573:623   */\n      tag_362\n        /* \"#utility.yul\":617:622   */\n      dup2\n        /* \"#utility.yul\":573:623   */\n      tag_299\n      jump\t// in\n    tag_362:\n        /* \"#utility.yul\":456:629   */\n      swap3\n      swap2\n      pop\n      pop\n      jump\t// out\n        /* \"#utility.yul\":635:998   */\n    tag_27:\n        /* \"#utility.yul\":711:717   */\n      0x00\n        /* \"#utility.yul\":760:762   */\n      0x20\n        /* \"#utility.yul\":748:757   */\n      dup3\n        /* \"#utility.yul\":739:746   */\n      dup5\n        /* \"#utility.yul\":735:758   */\n      sub\n        /* \"#utility.yul\":731:763   */\n      slt\n        /* \"#utility.yul\":728:847   */\n      iszero\n      tag_364\n      jumpi\n        /* \"#utility.yul\":766:845   */\n      tag_365\n      tag_297\n      jump\t// in\n    tag_365:\n        /* \"#utility.yul\":728:847   */\n    tag_364:\n        /* \"#utility.yul\":886:887   */\n      0x00\n        /* \"#utility.yul\":911:981   */\n      tag_366\n        /* \"#utility.yul\":973:980   */\n      dup5\n        /* \"#utility.yul\":964:970   */\n      dup3\n        /* \"#utility.yul\":953:962   */\n      dup6\n        /* \"#utility.yul\":949:971   */\n      add\n        /* \"#utility.yul\":911:981   */\n      tag_300\n      jump\t// in\n    tag_366:\n        /* \"#utility.yul\":901:981   */\n      swap2\n      pop\n        /* \"#utility.yul\":857:991   */\n      pop\n        /* \"#utility.yul\":635:998   */\n      swap3\n      swap2\n      pop\n      pop\n      jump\t// out\n        /* \"#utility.yul\":1004:1081   */\n    tag_301:\n        /* \"#utility.yul\":1041:1048   */\n      0x00\n        /* \"#utility.yul\":1070:1075   */\n      dup2\n        /* \"#utility.yul\":1059:1075   */\n      swap1\n      pop\n        /* \"#utility.yul\":1004:1081   */\n      swap2\n      swap1\n      pop\n      jump\t// out\n        /* \"#utility.yul\":1087:1205   */\n    tag_302:\n        /* \"#utility.yul\":1174:1198   */\n      tag_369\n        /* \"#utility.yul\":1192:1197   */\n      dup2\n        /* \"#utility.yul\":1174:1198   */\n      tag_301\n      jump\t// in\n    tag_369:\n        /* \"#utility.yul\":1169:1172   */\n      dup3\n        /* \"#utility.yul\":1162:1199   */\n      mstore\n        /* \"#utility.yul\":1087:1205   */\n      pop\n      pop\n      jump\t// out\n        /* \"#utility.yul\":1211:1433   */\n    tag_30:\n        /* \"#utility.yul\":1304:1308   */\n      0x00\n        /* \"#utility.yul\":1342:1344   */\n      0x20\n        /* \"#utility.yul\":1331:1340   */\n      dup3\n        /* \"#utility.yul\":1327:1345   */\n      add\n        /* \"#utility.yul\":1319:1345   */\n      swap1\n      pop\n        /* \"#utility.yul\":1355:1426   */\n      tag_371\n        /* \"#utility.yul\":1423:1424   */\n      0x00\n        /* \"#utility.yul\":1412:1421   */\n      dup4\n        /* \"#utility.yul\":1408:1425   */\n      add\n        /* \"#utility.yul\":1399:1405   */\n      dup5\n        /* \"#utility.yul\":1355:1426   */\n      tag_302\n      jump\t// in\n    tag_371:\n        /* \"#utility.yul\":1211:1433   */\n      swap3\n      swap2\n      pop\n      pop\n      jump\t// out\n        /* \"#utility.yul\":1439:1561   */\n    tag_303:\n        /* \"#utility.yul\":1512:1536   */\n      tag_373\n        /* \"#utility.yul\":1530:1535   */\n      dup2\n        /* \"#utility.yul\":1512:1536   */\n      tag_301\n      jump\t// in\n    tag_373:\n        /* \"#utility.yul\":1505:1510   */\n      dup2\n        /* \"#utility.yul\":1502:1537   */\n      eq\n        /* \"#utility.yul\":1492:1555   */\n      tag_374\n      jumpi\n        /* \"#utility.yul\":1551:1552   */\n      0x00\n        /* \"#utility.yul\":1548:1549   */\n      dup1\n        /* \"#utility.yul\":1541:1553   */\n      revert\n        /* \"#utility.yul\":1492:1555   */\n    tag_374:\n        /* \"#utility.yul\":1439:1561   */\n      pop\n      jump\t// out\n        /* \"#utility.yul\":1567:1706   */\n    tag_304:\n        /* \"#utility.yul\":1613:1618   */\n      0x00\n        /* \"#utility.yul\":1651:1657   */\n      dup2\n        /* \"#utility.yul\":1638:1658   */\n      calldataload\n        /* \"#utility.yul\":1629:1658   */\n      swap1\n      pop\n        /* \"#utility.yul\":1667:1700   */\n      tag_376\n        /* \"#utility.yul\":1694:1699   */\n      dup2\n        /* \"#utility.yul\":1667:1700   */\n      tag_303\n      jump\t// in\n    tag_376:\n        /* \"#utility.yul\":1567:1706   */\n      swap3\n      swap2\n      pop\n      pop\n      jump\t// out\n        /* \"#utility.yul\":1712:2041   */\n    tag_33:\n        /* \"#utility.yul\":1771:1777   */\n      0x00\n        /* \"#utility.yul\":1820:1822   */\n      0x20\n        /* \"#utility.yul\":1808:1817   */\n      dup3\n        /* \"#utility.yul\":1799:1806   */\n      dup5\n        /* \"#utility.yul\":1795:1818   */\n      sub\n        /* \"#utility.yul\":1791:1823   */\n      slt\n        /* \"#utility.yul\":1788:1907   */\n      iszero\n      tag_378\n      jumpi\n        /* \"#utility.yul\":1826:1905   */\n      tag_379\n      tag_297\n      jump\t// in\n    tag_379:\n        /* \"#utility.yul\":1788:1907   */\n    tag_378:\n        /* \"#utility.yul\":1946:1947   */\n      0x00\n        /* \"#utility.yul\":1971:2024   */\n      tag_380\n        /* \"#utility.yul\":2016:2023   */\n      dup5\n        /* \"#utility.yul\":2007:2013   */\n      dup3\n        /* \"#utility.yul\":1996:2005   */\n      dup6\n        /* \"#utility.yul\":1992:2014   */\n      add\n        /* \"#utility.yul\":1971:2024   */\n      tag_304\n      jump\t// in\n    tag_380:\n        /* \"#utility.yul\":1961:2024   */\n      swap2\n      pop\n        /* \"#utility.yul\":1917:2034   */\n      pop\n        /* \"#utility.yul\":1712:2041   */\n      swap3\n      swap2\n      pop\n      pop\n      jump\t// out\n        /* \"#utility.yul\":2047:2173   */\n    tag_305:\n        /* \"#utility.yul\":2084:2091   */\n      0x00\n        /* \"#utility.yul\":2124:2166   */\n      0xffffffffffffffffffffffffffffffffffffffff\n        /* \"#utility.yul\":2117:2122   */\n      dup3\n        /* \"#utility.yul\":2113:2167   */\n      and\n        /* \"#utility.yul\":2102:2167   */\n      swap1\n      pop\n        /* \"#utility.yul\":2047:2173   */\n      swap2\n      swap1\n      pop\n      jump\t// out\n        /* \"#utility.yul\":2179:2275   */\n    tag_306:\n        /* \"#utility.yul\":2216:2223   */\n      0x00\n        /* \"#utility.yul\":2245:2269   */\n      tag_383\n        /* \"#utility.yul\":2263:2268   */\n      dup3\n        /* \"#utility.yul\":2245:2269   */\n      tag_305\n      jump\t// in\n    tag_383:\n        /* \"#utility.yul\":2234:2269   */\n      swap1\n      pop\n        /* \"#utility.yul\":2179:2275   */\n      swap2\n      swap1\n      pop\n      jump\t// out\n        /* \"#utility.yul\":2281:2403   */\n    tag_307:\n        /* \"#utility.yul\":2354:2378   */\n      tag_385\n        /* \"#utility.yul\":2372:2377   */\n      dup2\n        /* \"#utility.yul\":2354:2378   */\n      tag_306\n      jump\t// in\n    tag_385:\n        /* \"#utility.yul\":2347:2352   */\n      dup2\n        /* \"#utility.yul\":2344:2379   */\n      eq\n        /* \"#utility.yul\":2334:2397   */\n      tag_386\n      jumpi\n        /* \"#utility.yul\":2393:2394   */\n      0x00\n        /* \"#utility.yul\":2390:2391   */\n      dup1\n        /* \"#utility.yul\":2383:2395   */\n      revert\n        /* \"#utility.yul\":2334:2397   */\n    tag_386:\n        /* \"#utility.yul\":2281:2403   */\n      pop\n      jump\t// out\n        /* \"#utility.yul\":2409:2548   */\n    tag_308:\n        /* \"#utility.yul\":2455:2460   */\n      0x00\n        /* \"#utility.yul\":2493:2499   */\n      dup2\n        /* \"#utility.yul\":2480:2500   */\n      calldataload\n        /* \"#utility.yul\":2471:2500   */\n      swap1\n      pop\n        /* \"#utility.yul\":2509:2542   */\n      tag_388\n        /* \"#utility.yul\":2536:2541   */\n      dup2\n        /* \"#utility.yul\":2509:2542   */\n      tag_307\n      jump\t// in\n    tag_388:\n        /* \"#utility.yul\":2409:2548   */\n      swap3\n      swap2\n      pop\n      pop\n      jump\t// out\n        /* \"#utility.yul\":2554:3028   */\n    tag_43:\n        /* \"#utility.yul\":2622:2628   */\n      0x00\n        /* \"#utility.yul\":2630:2636   */\n      dup1\n        /* \"#utility.yul\":2679:2681   */\n      0x40\n        /* \"#utility.yul\":2667:2676   */\n      dup4\n        /* \"#utility.yul\":2658:2665   */\n      dup6\n        /* \"#utility.yul\":2654:2677   */\n      sub\n        /* \"#utility.yul\":2650:2682   */\n      slt\n        /* \"#utility.yul\":2647:2766   */\n      iszero\n      tag_390\n      jumpi\n        /* \"#utility.yul\":2685:2764   */\n      tag_391\n      tag_297\n      jump\t// in\n    tag_391:\n        /* \"#utility.yul\":2647:2766   */\n    tag_390:\n        /* \"#utility.yul\":2805:2806   */\n      0x00\n        /* \"#utility.yul\":2830:2883   */\n      tag_392\n        /* \"#utility.yul\":2875:2882   */\n      dup6\n        /* \"#utility.yul\":2866:2872   */\n      dup3\n        /* \"#utility.yul\":2855:2864   */\n      dup7\n        /* \"#utility.yul\":2851:2873   */\n      add\n        /* \"#utility.yul\":2830:2883   */\n      tag_308\n      jump\t// in\n    tag_392:\n        /* \"#utility.yul\":2820:2883   */\n      swap3\n      pop\n        /* \"#utility.yul\":2776:2893   */\n      pop\n        /* \"#utility.yul\":2932:2934   */\n      0x20\n        /* \"#utility.yul\":2958:3011   */\n      tag_393\n        /* \"#utility.yul\":3003:3010   */\n      dup6\n        /* \"#utility.yul\":2994:3000   */\n      dup3\n        /* \"#utility.yul\":2983:2992   */\n      dup7\n        /* \"#utility.yul\":2979:3001   */\n      add\n        /* \"#utility.yul\":2958:3011   */\n      tag_304\n      jump\t// in\n    tag_393:\n        /* \"#utility.yul\":2948:3011   */\n      swap2\n      pop\n        /* \"#utility.yul\":2903:3021   */\n      pop\n        /* \"#utility.yul\":2554:3028   */\n      swap3\n      pop\n      swap3\n      swap1\n      pop\n      jump\t// out\n        /* \"#utility.yul\":3034:3124   */\n    tag_309:\n        /* \"#utility.yul\":3068:3075   */\n      0x00\n        /* \"#utility.yul\":3111:3116   */\n      dup2\n        /* \"#utility.yul\":3104:3117   */\n      iszero\n        /* \"#utility.yul\":3097:3118   */\n      iszero\n        /* \"#utility.yul\":3086:3118   */\n      swap1\n      pop\n        /* \"#utility.yul\":3034:3124   */\n      swap2\n      swap1\n      pop\n      jump\t// out\n        /* \"#utility.yul\":3130:3239   */\n    tag_310:\n        /* \"#utility.yul\":3211:3232   */\n      tag_396\n        /* \"#utility.yul\":3226:3231   */\n      dup2\n        /* \"#utility.yul\":3211:3232   */\n      tag_309\n      jump\t// in\n    tag_396:\n        /* \"#utility.yul\":3206:3209   */\n      dup3\n        /* \"#utility.yul\":3199:3233   */\n      mstore\n        /* \"#utility.yul\":3130:3239   */\n      pop\n      pop\n      jump\t// out\n        /* \"#utility.yul\":3245:4218   */\n    tag_46:\n        /* \"#utility.yul\":3522:3526   */\n      0x00\n        /* \"#utility.yul\":3560:3563   */\n      0x0100\n        /* \"#utility.yul\":3549:3558   */\n      dup3\n        /* \"#utility.yul\":3545:3564   */\n      add\n        /* \"#utility.yul\":3537:3564   */\n      swap1\n      pop\n        /* \"#utility.yul\":3574:3645   */\n      tag_398\n        /* \"#utility.yul\":3642:3643   */\n      0x00\n        /* \"#utility.yul\":3631:3640   */\n      dup4\n        /* \"#utility.yul\":3627:3644   */\n      add\n        /* \"#utility.yul\":3618:3624   */\n      dup12\n        /* \"#utility.yul\":3574:3645   */\n      tag_302\n      jump\t// in\n    tag_398:\n        /* \"#utility.yul\":3655:3727   */\n      tag_399\n        /* \"#utility.yul\":3723:3725   */\n      0x20\n        /* \"#utility.yul\":3712:3721   */\n      dup4\n        /* \"#utility.yul\":3708:3726   */\n      add\n        /* \"#utility.yul\":3699:3705   */\n      dup11\n        /* \"#utility.yul\":3655:3727   */\n      tag_302\n      jump\t// in\n    tag_399:\n        /* \"#utility.yul\":3737:3809   */\n      tag_400\n        /* \"#utility.yul\":3805:3807   */\n      0x40\n        /* \"#utility.yul\":3794:3803   */\n      dup4\n        /* \"#utility.yul\":3790:3808   */\n      add\n        /* \"#utility.yul\":3781:3787   */\n      dup10\n        /* \"#utility.yul\":3737:3809   */\n      tag_302\n      jump\t// in\n    tag_400:\n        /* \"#utility.yul\":3819:3891   */\n      tag_401\n        /* \"#utility.yul\":3887:3889   */\n      0x60\n        /* \"#utility.yul\":3876:3885   */\n      dup4\n        /* \"#utility.yul\":3872:3890   */\n      add\n        /* \"#utility.yul\":3863:3869   */\n      dup9\n        /* \"#utility.yul\":3819:3891   */\n      tag_302\n      jump\t// in\n    tag_401:\n        /* \"#utility.yul\":3901:3974   */\n      tag_402\n        /* \"#utility.yul\":3969:3972   */\n      0x80\n        /* \"#utility.yul\":3958:3967   */\n      dup4\n        /* \"#utility.yul\":3954:3973   */\n      add\n        /* \"#utility.yul\":3945:3951   */\n      dup8\n        /* \"#utility.yul\":3901:3974   */\n      tag_302\n      jump\t// in\n    tag_402:\n        /* \"#utility.yul\":3984:4057   */\n      tag_403\n        /* \"#utility.yul\":4052:4055   */\n      0xa0\n        /* \"#utility.yul\":4041:4050   */\n      dup4\n        /* \"#utility.yul\":4037:4056   */\n      add\n        /* \"#utility.yul\":4028:4034   */\n      dup7\n        /* \"#utility.yul\":3984:4057   */\n      tag_302\n      jump\t// in\n    tag_403:\n        /* \"#utility.yul\":4067:4134   */\n      tag_404\n        /* \"#utility.yul\":4129:4132   */\n      0xc0\n        /* \"#utility.yul\":4118:4127   */\n      dup4\n        /* \"#utility.yul\":4114:4133   */\n      add\n        /* \"#utility.yul\":4105:4111   */\n      dup6\n        /* \"#utility.yul\":4067:4134   */\n      tag_310\n      jump\t// in\n    tag_404:\n        /* \"#utility.yul\":4144:4211   */\n      tag_405\n        /* \"#utility.yul\":4206:4209   */\n      0xe0\n        /* \"#utility.yul\":4195:4204   */\n      dup4\n        /* \"#utility.yul\":4191:4210   */\n      add\n        /* \"#utility.yul\":4182:4188   */\n      dup5\n        /* \"#utility.yul\":4144:4211   */\n      tag_310\n      jump\t// in\n    tag_405:\n        /* \"#utility.yul\":3245:4218   */\n      swap10\n      swap9\n      pop\n      pop\n      pop\n      pop\n      pop\n      pop\n      pop\n      pop\n      pop\n      jump\t// out\n        /* \"#utility.yul\":4224:4340   */\n    tag_311:\n        /* \"#utility.yul\":4294:4315   */\n      tag_407\n        /* \"#utility.yul\":4309:4314   */\n      dup2\n        /* \"#utility.yul\":4294:4315   */\n      tag_309\n      jump\t// in\n    tag_407:\n        /* \"#utility.yul\":4287:4292   */\n      dup2\n        /* \"#utility.yul\":4284:4316   */\n      eq\n        /* \"#utility.yul\":4274:4334   */\n      tag_408\n      jumpi\n        /* \"#utility.yul\":4330:4331   */\n      0x00\n        /* \"#utility.yul\":4327:4328   */\n      dup1\n        /* \"#utility.yul\":4320:4332   */\n      revert\n        /* \"#utility.yul\":4274:4334   */\n    tag_408:\n        /* \"#utility.yul\":4224:4340   */\n      pop\n      jump\t// out\n        /* \"#utility.yul\":4346:4479   */\n    tag_312:\n        /* \"#utility.yul\":4389:4394   */\n      0x00\n        /* \"#utility.yul\":4427:4433   */\n      dup2\n        /* \"#utility.yul\":4414:4434   */\n      calldataload\n        /* \"#utility.yul\":4405:4434   */\n      swap1\n      pop\n        /* \"#utility.yul\":4443:4473   */\n      tag_410\n        /* \"#utility.yul\":4467:4472   */\n      dup2\n        /* \"#utility.yul\":4443:4473   */\n      tag_311\n      jump\t// in\n    tag_410:\n        /* \"#utility.yul\":4346:4479   */\n      swap3\n      swap2\n      pop\n      pop\n      jump\t// out\n        /* \"#utility.yul\":4485:5862   */\n    tag_49:\n        /* \"#utility.yul\":4621:4627   */\n      0x00\n        /* \"#utility.yul\":4629:4635   */\n      dup1\n        /* \"#utility.yul\":4637:4643   */\n      0x00\n        /* \"#utility.yul\":4645:4651   */\n      dup1\n        /* \"#utility.yul\":4653:4659   */\n      0x00\n        /* \"#utility.yul\":4661:4667   */\n      dup1\n        /* \"#utility.yul\":4669:4675   */\n      0x00\n        /* \"#utility.yul\":4677:4683   */\n      dup1\n        /* \"#utility.yul\":4726:4729   */\n      0x0100\n        /* \"#utility.yul\":4714:4723   */\n      dup10\n        /* \"#utility.yul\":4705:4712   */\n      dup12\n        /* \"#utility.yul\":4701:4724   */\n      sub\n        /* \"#utility.yul\":4697:4730   */\n      slt\n        /* \"#utility.yul\":4694:4814   */\n      iszero\n      tag_412\n      jumpi\n        /* \"#utility.yul\":4733:4812   */\n      tag_413\n      tag_297\n      jump\t// in\n    tag_413:\n        /* \"#utility.yul\":4694:4814   */\n    tag_412:\n        /* \"#utility.yul\":4853:4854   */\n      0x00\n        /* \"#utility.yul\":4878:4931   */\n      tag_414\n        /* \"#utility.yul\":4923:4930   */\n      dup12\n        /* \"#utility.yul\":4914:4920   */\n      dup3\n        /* \"#utility.yul\":4903:4912   */\n      dup13\n        /* \"#utility.yul\":4899:4921   */\n      add\n        /* \"#utility.yul\":4878:4931   */\n      tag_308\n      jump\t// in\n    tag_414:\n        /* \"#utility.yul\":4868:4931   */\n      swap9\n      pop\n        /* \"#utility.yul\":4824:4941   */\n      pop\n        /* \"#utility.yul\":4980:4982   */\n      0x20\n        /* \"#utility.yul\":5006:5076   */\n      tag_415\n        /* \"#utility.yul\":5068:5075   */\n      dup12\n        /* \"#utility.yul\":5059:5065   */\n      dup3\n        /* \"#utility.yul\":5048:5057   */\n      dup13\n        /* \"#utility.yul\":5044:5066   */\n      add\n        /* \"#utility.yul\":5006:5076   */\n      tag_300\n      jump\t// in\n    tag_415:\n        /* \"#utility.yul\":4996:5076   */\n      swap8\n      pop\n        /* \"#utility.yul\":4951:5086   */\n      pop\n        /* \"#utility.yul\":5125:5127   */\n      0x40\n        /* \"#utility.yul\":5151:5204   */\n      tag_416\n        /* \"#utility.yul\":5196:5203   */\n      dup12\n        /* \"#utility.yul\":5187:5193   */\n      dup3\n        /* \"#utility.yul\":5176:5185   */\n      dup13\n        /* \"#utility.yul\":5172:5194   */\n      add\n        /* \"#utility.yul\":5151:5204   */\n      tag_304\n      jump\t// in\n    tag_416:\n        /* \"#utility.yul\":5141:5204   */\n      swap7\n      pop\n        /* \"#utility.yul\":5096:5214   */\n      pop\n        /* \"#utility.yul\":5253:5255   */\n      0x60\n        /* \"#utility.yul\":5279:5332   */\n      tag_417\n        /* \"#utility.yul\":5324:5331   */\n      dup12\n        /* \"#utility.yul\":5315:5321   */\n      dup3\n        /* \"#utility.yul\":5304:5313   */\n      dup13\n        /* \"#utility.yul\":5300:5322   */\n      add\n        /* \"#utility.yul\":5279:5332   */\n      tag_304\n      jump\t// in\n    tag_417:\n        /* \"#utility.yul\":5269:5332   */\n      swap6\n      pop\n        /* \"#utility.yul\":5224:5342   */\n      pop\n        /* \"#utility.yul\":5381:5384   */\n      0x80\n        /* \"#utility.yul\":5408:5461   */\n      tag_418\n        /* \"#utility.yul\":5453:5460   */\n      dup12\n        /* \"#utility.yul\":5444:5450   */\n      dup3\n        /* \"#utility.yul\":5433:5442   */\n      dup13\n        /* \"#utility.yul\":5429:5451   */\n      add\n        /* \"#utility.yul\":5408:5461   */\n      tag_304\n      jump\t// in\n    tag_418:\n        /* \"#utility.yul\":5398:5461   */\n      swap5\n      pop\n        /* \"#utility.yul\":5352:5471   */\n      pop\n        /* \"#utility.yul\":5510:5513   */\n      0xa0\n        /* \"#utility.yul\":5537:5590   */\n      tag_419\n        /* \"#utility.yul\":5582:5589   */\n      dup12\n        /* \"#utility.yul\":5573:5579   */\n      dup3\n        /* \"#utility.yul\":5562:5571   */\n      dup13\n        /* \"#utility.yul\":5558:5580   */\n      add\n        /* \"#utility.yul\":5537:5590   */\n      tag_304\n      jump\t// in\n    tag_419:\n        /* \"#utility.yul\":5527:5590   */\n      swap4\n      pop\n        /* \"#utility.yul\":5481:5600   */\n      pop\n        /* \"#utility.yul\":5639:5642   */\n      0xc0\n        /* \"#utility.yul\":5666:5719   */\n      tag_420\n        /* \"#utility.yul\":5711:5718   */\n      dup12\n        /* \"#utility.yul\":5702:5708   */\n      dup3\n        /* \"#utility.yul\":5691:5700   */\n      dup13\n        /* \"#utility.yul\":5687:5709   */\n      add\n        /* \"#utility.yul\":5666:5719   */\n      tag_304\n      jump\t// in\n    tag_420:\n        /* \"#utility.yul\":5656:5719   */\n      swap3\n      pop\n        /* \"#utility.yul\":5610:5729   */\n      pop\n        /* \"#utility.yul\":5768:5771   */\n      0xe0\n        /* \"#utility.yul\":5795:5845   */\n      tag_421\n        /* \"#utility.yul\":5837:5844   */\n      dup12\n        /* \"#utility.yul\":5828:5834   */\n      dup3\n        /* \"#utility.yul\":5817:5826   */\n      dup13\n        /* \"#utility.yul\":5813:5835   */\n      add\n        /* \"#utility.yul\":5795:5845   */\n      tag_312\n      jump\t// in\n    tag_421:\n        /* \"#utility.yul\":5785:5845   */\n      swap2\n      pop\n        /* \"#utility.yul\":5739:5855   */\n      pop\n        /* \"#utility.yul\":4485:5862   */\n      swap3\n      swap6\n      swap9\n      pop\n      swap3\n      swap6\n      swap9\n      swap1\n      swap4\n      swap7\n      pop\n      jump\t// out\n        /* \"#utility.yul\":5868:6078   */\n    tag_54:\n        /* \"#utility.yul\":5955:5959   */\n      0x00\n        /* \"#utility.yul\":5993:5995   */\n      0x20\n        /* \"#utility.yul\":5982:5991   */\n      dup3\n        /* \"#utility.yul\":5978:5996   */\n      add\n        /* \"#utility.yul\":5970:5996   */\n      swap1\n      pop\n        /* \"#utility.yul\":6006:6071   */\n      tag_423\n        /* \"#utility.yul\":6068:6069   */\n      0x00\n        /* \"#utility.yul\":6057:6066   */\n      dup4\n        /* \"#utility.yul\":6053:6070   */\n      add\n        /* \"#utility.yul\":6044:6050   */\n      dup5\n        /* \"#utility.yul\":6006:6071   */\n      tag_310\n      jump\t// in\n    tag_423:\n        /* \"#utility.yul\":5868:6078   */\n      swap3\n      swap2\n      pop\n      pop\n      jump\t// out\n        /* \"#utility.yul\":6084:6202   */\n    tag_313:\n        /* \"#utility.yul\":6171:6195   */\n      tag_425\n        /* \"#utility.yul\":6189:6194   */\n      dup2\n        /* \"#utility.yul\":6171:6195   */\n      tag_306\n      jump\t// in\n    tag_425:\n        /* \"#utility.yul\":6166:6169   */\n      dup3\n        /* \"#utility.yul\":6159:6196   */\n      mstore\n        /* \"#utility.yul\":6084:6202   */\n      pop\n      pop\n      jump\t// out\n        /* \"#utility.yul\":6208:6430   */\n    tag_58:\n        /* \"#utility.yul\":6301:6305   */\n      0x00\n        /* \"#utility.yul\":6339:6341   */\n      0x20\n        /* \"#utility.yul\":6328:6337   */\n      dup3\n        /* \"#utility.yul\":6324:6342   */\n      add\n        /* \"#utility.yul\":6316:6342   */\n      swap1\n      pop\n        /* \"#utility.yul\":6352:6423   */\n      tag_427\n        /* \"#utility.yul\":6420:6421   */\n      0x00\n        /* \"#utility.yul\":6409:6418   */\n      dup4\n        /* \"#utility.yul\":6405:6422   */\n      add\n        /* \"#utility.yul\":6396:6402   */\n      dup5\n        /* \"#utility.yul\":6352:6423   */\n      tag_313\n      jump\t// in\n    tag_427:\n        /* \"#utility.yul\":6208:6430   */\n      swap3\n      swap2\n      pop\n      pop\n      jump\t// out\n        /* \"#utility.yul\":6436:6765   */\n    tag_63:\n        /* \"#utility.yul\":6495:6501   */\n      0x00\n        /* \"#utility.yul\":6544:6546   */\n      0x20\n        /* \"#utility.yul\":6532:6541   */\n      dup3\n        /* \"#utility.yul\":6523:6530   */\n      dup5\n        /* \"#utility.yul\":6519:6542   */\n      sub\n        /* \"#utility.yul\":6515:6547   */\n      slt\n        /* \"#utility.yul\":6512:6631   */\n      iszero\n      tag_429\n      jumpi\n        /* \"#utility.yul\":6550:6629   */\n      tag_430\n      tag_297\n      jump\t// in\n    tag_430:\n        /* \"#utility.yul\":6512:6631   */\n    tag_429:\n        /* \"#utility.yul\":6670:6671   */\n      0x00\n        /* \"#utility.yul\":6695:6748   */\n      tag_431\n        /* \"#utility.yul\":6740:6747   */\n      dup5\n        /* \"#utility.yul\":6731:6737   */\n      dup3\n        /* \"#utility.yul\":6720:6729   */\n      dup6\n        /* \"#utility.yul\":6716:6738   */\n      add\n        /* \"#utility.yul\":6695:6748   */\n      tag_308\n      jump\t// in\n    tag_431:\n        /* \"#utility.yul\":6685:6748   */\n      swap2\n      pop\n        /* \"#utility.yul\":6641:6758   */\n      pop\n        /* \"#utility.yul\":6436:6765   */\n      swap3\n      swap2\n      pop\n      pop\n      jump\t// out\n        /* \"#utility.yul\":6771:6831   */\n    tag_314:\n        /* \"#utility.yul\":6799:6802   */\n      0x00\n        /* \"#utility.yul\":6820:6825   */\n      dup2\n        /* \"#utility.yul\":6813:6825   */\n      swap1\n      pop\n        /* \"#utility.yul\":6771:6831   */\n      swap2\n      swap1\n      pop\n      jump\t// out\n        /* \"#utility.yul\":6837:6979   */\n    tag_315:\n        /* \"#utility.yul\":6887:6896   */\n      0x00\n        /* \"#utility.yul\":6920:6973   */\n      tag_434\n        /* \"#utility.yul\":6938:6972   */\n      tag_435\n        /* \"#utility.yul\":6947:6971   */\n      tag_436\n        /* \"#utility.yul\":6965:6970   */\n      dup5\n        /* \"#utility.yul\":6947:6971   */\n      tag_305\n      jump\t// in\n    tag_436:\n        /* \"#utility.yul\":6938:6972   */\n      tag_314\n      jump\t// in\n    tag_435:\n        /* \"#utility.yul\":6920:6973   */\n      tag_305\n      jump\t// in\n    tag_434:\n        /* \"#utility.yul\":6907:6973   */\n      swap1\n      pop\n        /* \"#utility.yul\":6837:6979   */\n      swap2\n      swap1\n      pop\n      jump\t// out\n        /* \"#utility.yul\":6985:7111   */\n    tag_316:\n        /* \"#utility.yul\":7035:7044   */\n      0x00\n        /* \"#utility.yul\":7068:7105   */\n      tag_438\n        /* \"#utility.yul\":7099:7104   */\n      dup3\n        /* \"#utility.yul\":7068:7105   */\n      tag_315\n      jump\t// in\n    tag_438:\n        /* \"#utility.yul\":7055:7105   */\n      swap1\n      pop\n        /* \"#utility.yul\":6985:7111   */\n      swap2\n      swap1\n      pop\n      jump\t// out\n        /* \"#utility.yul\":7117:7257   */\n    tag_317:\n        /* \"#utility.yul\":7181:7190   */\n      0x00\n        /* \"#utility.yul\":7214:7251   */\n      tag_440\n        /* \"#utility.yul\":7245:7250   */\n      dup3\n        /* \"#utility.yul\":7214:7251   */\n      tag_316\n      jump\t// in\n    tag_440:\n        /* \"#utility.yul\":7201:7251   */\n      swap1\n      pop\n        /* \"#utility.yul\":7117:7257   */\n      swap2\n      swap1\n      pop\n      jump\t// out\n        /* \"#utility.yul\":7263:7422   */\n    tag_318:\n        /* \"#utility.yul\":7364:7415   */\n      tag_442\n        /* \"#utility.yul\":7409:7414   */\n      dup2\n        /* \"#utility.yul\":7364:7415   */\n      tag_317\n      jump\t// in\n    tag_442:\n        /* \"#utility.yul\":7359:7362   */\n      dup3\n        /* \"#utility.yul\":7352:7416   */\n      mstore\n        /* \"#utility.yul\":7263:7422   */\n      pop\n      pop\n      jump\t// out\n        /* \"#utility.yul\":7428:7678   */\n    tag_90:\n        /* \"#utility.yul\":7535:7539   */\n      0x00\n        /* \"#utility.yul\":7573:7575   */\n      0x20\n        /* \"#utility.yul\":7562:7571   */\n      dup3\n        /* \"#utility.yul\":7558:7576   */\n      add\n        /* \"#utility.yul\":7550:7576   */\n      swap1\n      pop\n        /* \"#utility.yul\":7586:7671   */\n      tag_444\n        /* \"#utility.yul\":7668:7669   */\n      0x00\n        /* \"#utility.yul\":7657:7666   */\n      dup4\n        /* \"#utility.yul\":7653:7670   */\n      add\n        /* \"#utility.yul\":7644:7650   */\n      dup5\n        /* \"#utility.yul\":7586:7671   */\n      tag_318\n      jump\t// in\n    tag_444:\n        /* \"#utility.yul\":7428:7678   */\n      swap3\n      swap2\n      pop\n      pop\n      jump\t// out\n        /* \"#utility.yul\":7684:7864   */\n    tag_101:\n        /* \"#utility.yul\":7732:7809   */\n      0x4e487b7100000000000000000000000000000000000000000000000000000000\n        /* \"#utility.yul\":7729:7730   */\n      0x00\n        /* \"#utility.yul\":7722:7810   */\n      mstore\n        /* \"#utility.yul\":7829:7833   */\n      0x32\n        /* \"#utility.yul\":7826:7827   */\n      0x04\n        /* \"#utility.yul\":7819:7834   */\n      mstore\n        /* \"#utility.yul\":7853:7857   */\n      0x24\n        /* \"#utility.yul\":7850:7851   */\n      0x00\n        /* \"#utility.yul\":7843:7858   */\n      revert\n        /* \"#utility.yul\":7870:8039   */\n    tag_319:\n        /* \"#utility.yul\":7954:7965   */\n      0x00\n        /* \"#utility.yul\":7988:7994   */\n      dup3\n        /* \"#utility.yul\":7983:7986   */\n      dup3\n        /* \"#utility.yul\":7976:7995   */\n      mstore\n        /* \"#utility.yul\":8028:8032   */\n      0x20\n        /* \"#utility.yul\":8023:8026   */\n      dup3\n        /* \"#utility.yul\":8019:8033   */\n      add\n        /* \"#utility.yul\":8004:8033   */\n      swap1\n      pop\n        /* \"#utility.yul\":7870:8039   */\n      swap3\n      swap2\n      pop\n      pop\n      jump\t// out\n        /* \"#utility.yul\":8045:8211   */\n    tag_320:\n        /* \"#utility.yul\":8185:8203   */\n      0x4e6f2073756368207363686564756c6500000000000000000000000000000000\n        /* \"#utility.yul\":8181:8182   */\n      0x00\n        /* \"#utility.yul\":8173:8179   */\n      dup3\n        /* \"#utility.yul\":8169:8183   */\n      add\n        /* \"#utility.yul\":8162:8204   */\n      mstore\n        /* \"#utility.yul\":8045:8211   */\n      pop\n      jump\t// out\n        /* \"#utility.yul\":8217:8583   */\n    tag_321:\n        /* \"#utility.yul\":8359:8362   */\n      0x00\n        /* \"#utility.yul\":8380:8447   */\n      tag_449\n        /* \"#utility.yul\":8444:8446   */\n      0x10\n        /* \"#utility.yul\":8439:8442   */\n      dup4\n        /* \"#utility.yul\":8380:8447   */\n      tag_319\n      jump\t// in\n    tag_449:\n        /* \"#utility.yul\":8373:8447   */\n      swap2\n      pop\n        /* \"#utility.yul\":8456:8549   */\n      tag_450\n        /* \"#utility.yul\":8545:8548   */\n      dup3\n        /* \"#utility.yul\":8456:8549   */\n      tag_320\n      jump\t// in\n    tag_450:\n        /* \"#utility.yul\":8574:8576   */\n      0x20\n        /* \"#utility.yul\":8569:8572   */\n      dup3\n        /* \"#utility.yul\":8565:8577   */\n      add\n        /* \"#utility.yul\":8558:8577   */\n      swap1\n      pop\n        /* \"#utility.yul\":8217:8583   */\n      swap2\n      swap1\n      pop\n      jump\t// out\n        /* \"#utility.yul\":8589:9008   */\n    tag_105:\n        /* \"#utility.yul\":8755:8759   */\n      0x00\n        /* \"#utility.yul\":8793:8795   */\n      0x20\n        /* \"#utility.yul\":8782:8791   */\n      dup3\n        /* \"#utility.yul\":8778:8796   */\n      add\n        /* \"#utility.yul\":8770:8796   */\n      swap1\n      pop\n        /* \"#utility.yul\":8842:8851   */\n      dup2\n        /* \"#utility.yul\":8836:8840   */\n      dup2\n        /* \"#utility.yul\":8832:8852   */\n      sub\n        /* \"#utility.yul\":8828:8829   */\n      0x00\n        /* \"#utility.yul\":8817:8826   */\n      dup4\n        /* \"#utility.yul\":8813:8830   */\n      add\n        /* \"#utility.yul\":8806:8853   */\n      mstore\n        /* \"#utility.yul\":8870:9001   */\n      tag_452\n        /* \"#utility.yul\":8996:9000   */\n      dup2\n        /* \"#utility.yul\":8870:9001   */\n      tag_321\n      jump\t// in\n    tag_452:\n        /* \"#utility.yul\":8862:9001   */\n      swap1\n      pop\n        /* \"#utility.yul\":8589:9008   */\n      swap2\n      swap1\n      pop\n      jump\t// out\n        /* \"#utility.yul\":9014:9180   */\n    tag_322:\n        /* \"#utility.yul\":9154:9172   */\n      0x5363686564756c65207265766f6b656400000000000000000000000000000000\n        /* \"#utility.yul\":9150:9151   */\n      0x00\n        /* \"#utility.yul\":9142:9148   */\n      dup3\n        /* \"#utility.yul\":9138:9152   */\n      add\n        /* \"#utility.yul\":9131:9173   */\n      mstore\n        /* \"#utility.yul\":9014:9180   */\n      pop\n      jump\t// out\n        /* \"#utility.yul\":9186:9552   */\n    tag_323:\n        /* \"#utility.yul\":9328:9331   */\n      0x00\n        /* \"#utility.yul\":9349:9416   */\n      tag_455\n        /* \"#utility.yul\":9413:9415   */\n      0x10\n        /* \"#utility.yul\":9408:9411   */\n      dup4\n        /* \"#utility.yul\":9349:9416   */\n      tag_319\n      jump\t// in\n    tag_455:\n        /* \"#utility.yul\":9342:9416   */\n      swap2\n      pop\n        /* \"#utility.yul\":9425:9518   */\n      tag_456\n        /* \"#utility.yul\":9514:9517   */\n      dup3\n        /* \"#utility.yul\":9425:9518   */\n      tag_322\n      jump\t// in\n    tag_456:\n        /* \"#utility.yul\":9543:9545   */\n      0x20\n        /* \"#utility.yul\":9538:9541   */\n      dup3\n        /* \"#utility.yul\":9534:9546   */\n      add\n        /* \"#utility.yul\":9527:9546   */\n      swap1\n      pop\n        /* \"#utility.yul\":9186:9552   */\n      swap2\n      swap1\n      pop\n      jump\t// out\n        /* \"#utility.yul\":9558:9977   */\n    tag_108:\n        /* \"#utility.yul\":9724:9728   */\n      0x00\n        /* \"#utility.yul\":9762:9764   */\n      0x20\n        /* \"#utility.yul\":9751:9760   */\n      dup3\n        /* \"#utility.yul\":9747:9765   */\n      add\n        /* \"#utility.yul\":9739:9765   */\n      swap1\n      pop\n        /* \"#utility.yul\":9811:9820   */\n      dup2\n        /* \"#utility.yul\":9805:9809   */\n      dup2\n        /* \"#utility.yul\":9801:9821   */\n      sub\n        /* \"#utility.yul\":9797:9798   */\n      0x00\n        /* \"#utility.yul\":9786:9795   */\n      dup4\n        /* \"#utility.yul\":9782:9799   */\n      add\n        /* \"#utility.yul\":9775:9822   */\n      mstore\n        /* \"#utility.yul\":9839:9970   */\n      tag_458\n        /* \"#utility.yul\":9965:9969   */\n      dup2\n        /* \"#utility.yul\":9839:9970   */\n      tag_323\n      jump\t// in\n    tag_458:\n        /* \"#utility.yul\":9831:9970   */\n      swap1\n      pop\n        /* \"#utility.yul\":9558:9977   */\n      swap2\n      swap1\n      pop\n      jump\t// out\n        /* \"#utility.yul\":9983:10163   */\n    tag_324:\n        /* \"#utility.yul\":10031:10108   */\n      0x4e487b7100000000000000000000000000000000000000000000000000000000\n        /* \"#utility.yul\":10028:10029   */\n      0x00\n        /* \"#utility.yul\":10021:10109   */\n      mstore\n        /* \"#utility.yul\":10128:10132   */\n      0x11\n        /* \"#utility.yul\":10125:10126   */\n      0x04\n        /* \"#utility.yul\":10118:10133   */\n      mstore\n        /* \"#utility.yul\":10152:10156   */\n      0x24\n        /* \"#utility.yul\":10149:10150   */\n      0x00\n        /* \"#utility.yul\":10142:10157   */\n      revert\n        /* \"#utility.yul\":10169:10363   */\n    tag_112:\n        /* \"#utility.yul\":10209:10213   */\n      0x00\n        /* \"#utility.yul\":10229:10249   */\n      tag_461\n        /* \"#utility.yul\":10247:10248   */\n      dup3\n        /* \"#utility.yul\":10229:10249   */\n      tag_301\n      jump\t// in\n    tag_461:\n        /* \"#utility.yul\":10224:10249   */\n      swap2\n      pop\n        /* \"#utility.yul\":10263:10283   */\n      tag_462\n        /* \"#utility.yul\":10281:10282   */\n      dup4\n        /* \"#utility.yul\":10263:10283   */\n      tag_301\n      jump\t// in\n    tag_462:\n        /* \"#utility.yul\":10258:10283   */\n      swap3\n      pop\n        /* \"#utility.yul\":10307:10308   */\n      dup3\n        /* \"#utility.yul\":10304:10305   */\n      dup3\n        /* \"#utility.yul\":10300:10309   */\n      sub\n        /* \"#utility.yul\":10292:10309   */\n      swap1\n      pop\n        /* \"#utility.yul\":10331:10332   */\n      dup2\n        /* \"#utility.yul\":10325:10329   */\n      dup2\n        /* \"#utility.yul\":10322:10333   */\n      gt\n        /* \"#utility.yul\":10319:10356   */\n      iszero\n      tag_463\n      jumpi\n        /* \"#utility.yul\":10336:10354   */\n      tag_464\n      tag_324\n      jump\t// in\n    tag_464:\n        /* \"#utility.yul\":10319:10356   */\n    tag_463:\n        /* \"#utility.yul\":10169:10363   */\n      swap3\n      swap2\n      pop\n      pop\n      jump\t// out\n        /* \"#utility.yul\":10369:10539   */\n    tag_325:\n        /* \"#utility.yul\":10509:10531   */\n      0x4e6f20746f6b656e7320746f2072656c65617365000000000000000000000000\n        /* \"#utility.yul\":10505:10506   */\n      0x00\n        /* \"#utility.yul\":10497:10503   */\n      dup3\n        /* \"#utility.yul\":10493:10507   */\n      add\n        /* \"#utility.yul\":10486:10532   */\n      mstore\n        /* \"#utility.yul\":10369:10539   */\n      pop\n      jump\t// out\n        /* \"#utility.yul\":10545:10911   */\n    tag_326:\n        /* \"#utility.yul\":10687:10690   */\n      0x00\n        /* \"#utility.yul\":10708:10775   */\n      tag_467\n        /* \"#utility.yul\":10772:10774   */\n      0x14\n        /* \"#utility.yul\":10767:10770   */\n      dup4\n        /* \"#utility.yul\":10708:10775   */\n      tag_319\n      jump\t// in\n    tag_467:\n        /* \"#utility.yul\":10701:10775   */\n      swap2\n      pop\n        /* \"#utility.yul\":10784:10877   */\n      tag_468\n        /* \"#utility.yul\":10873:10876   */\n      dup3\n        /* \"#utility.yul\":10784:10877   */\n      tag_325\n      jump\t// in\n    tag_468:\n        /* \"#utility.yul\":10902:10904   */\n      0x20\n        /* \"#utility.yul\":10897:10900   */\n      dup3\n        /* \"#utility.yul\":10893:10905   */\n      add\n        /* \"#utility.yul\":10886:10905   */\n      swap1\n      pop\n        /* \"#utility.yul\":10545:10911   */\n      swap2\n      swap1\n      pop\n      jump\t// out\n        /* \"#utility.yul\":10917:11336   */\n    tag_115:\n        /* \"#utility.yul\":11083:11087   */\n      0x00\n        /* \"#utility.yul\":11121:11123   */\n      0x20\n        /* \"#utility.yul\":11110:11119   */\n      dup3\n        /* \"#utility.yul\":11106:11124   */\n      add\n        /* \"#utility.yul\":11098:11124   */\n      swap1\n      pop\n        /* \"#utility.yul\":11170:11179   */\n      dup2\n        /* \"#utility.yul\":11164:11168   */\n      dup2\n        /* \"#utility.yul\":11160:11180   */\n      sub\n        /* \"#utility.yul\":11156:11157   */\n      0x00\n        /* \"#utility.yul\":11145:11154   */\n      dup4\n        /* \"#utility.yul\":11141:11158   */\n      add\n        /* \"#utility.yul\":11134:11181   */\n      mstore\n        /* \"#utility.yul\":11198:11329   */\n      tag_470\n        /* \"#utility.yul\":11324:11328   */\n      dup2\n        /* \"#utility.yul\":11198:11329   */\n      tag_326\n      jump\t// in\n    tag_470:\n        /* \"#utility.yul\":11190:11329   */\n      swap1\n      pop\n        /* \"#utility.yul\":10917:11336   */\n      swap2\n      swap1\n      pop\n      jump\t// out\n        /* \"#utility.yul\":11342:11533   */\n    tag_117:\n        /* \"#utility.yul\":11382:11385   */\n      0x00\n        /* \"#utility.yul\":11401:11421   */\n      tag_472\n        /* \"#utility.yul\":11419:11420   */\n      dup3\n        /* \"#utility.yul\":11401:11421   */\n      tag_301\n      jump\t// in\n    tag_472:\n        /* \"#utility.yul\":11396:11421   */\n      swap2\n      pop\n        /* \"#utility.yul\":11435:11455   */\n      tag_473\n        /* \"#utility.yul\":11453:11454   */\n      dup4\n        /* \"#utility.yul\":11435:11455   */\n      tag_301\n      jump\t// in\n    tag_473:\n        /* \"#utility.yul\":11430:11455   */\n      swap3\n      pop\n        /* \"#utility.yul\":11478:11479   */\n      dup3\n        /* \"#utility.yul\":11475:11476   */\n      dup3\n        /* \"#utility.yul\":11471:11480   */\n      add\n        /* \"#utility.yul\":11464:11480   */\n      swap1\n      pop\n        /* \"#utility.yul\":11499:11502   */\n      dup1\n        /* \"#utility.yul\":11496:11497   */\n      dup3\n        /* \"#utility.yul\":11493:11503   */\n      gt\n        /* \"#utility.yul\":11490:11526   */\n      iszero\n      tag_474\n      jumpi\n        /* \"#utility.yul\":11506:11524   */\n      tag_475\n      tag_324\n      jump\t// in\n    tag_475:\n        /* \"#utility.yul\":11490:11526   */\n    tag_474:\n        /* \"#utility.yul\":11342:11533   */\n      swap3\n      swap2\n      pop\n      pop\n      jump\t// out\n        /* \"#utility.yul\":11539:11871   */\n    tag_119:\n        /* \"#utility.yul\":11660:11664   */\n      0x00\n        /* \"#utility.yul\":11698:11700   */\n      0x40\n        /* \"#utility.yul\":11687:11696   */\n      dup3\n        /* \"#utility.yul\":11683:11701   */\n      add\n        /* \"#utility.yul\":11675:11701   */\n      swap1\n      pop\n        /* \"#utility.yul\":11711:11782   */\n      tag_477\n        /* \"#utility.yul\":11779:11780   */\n      0x00\n        /* \"#utility.yul\":11768:11777   */\n      dup4\n        /* \"#utility.yul\":11764:11781   */\n      add\n        /* \"#utility.yul\":11755:11761   */\n      dup6\n        /* \"#utility.yul\":11711:11782   */\n      tag_313\n      jump\t// in\n    tag_477:\n        /* \"#utility.yul\":11792:11864   */\n      tag_478\n        /* \"#utility.yul\":11860:11862   */\n      0x20\n        /* \"#utility.yul\":11849:11858   */\n      dup4\n        /* \"#utility.yul\":11845:11863   */\n      add\n        /* \"#utility.yul\":11836:11842   */\n      dup5\n        /* \"#utility.yul\":11792:11864   */\n      tag_302\n      jump\t// in\n    tag_478:\n        /* \"#utility.yul\":11539:11871   */\n      swap4\n      swap3\n      pop\n      pop\n      pop\n      jump\t// out\n        /* \"#utility.yul\":11877:12014   */\n    tag_327:\n        /* \"#utility.yul\":11931:11936   */\n      0x00\n        /* \"#utility.yul\":11962:11968   */\n      dup2\n        /* \"#utility.yul\":11956:11969   */\n      mload\n        /* \"#utility.yul\":11947:11969   */\n      swap1\n      pop\n        /* \"#utility.yul\":11978:12008   */\n      tag_480\n        /* \"#utility.yul\":12002:12007   */\n      dup2\n        /* \"#utility.yul\":11978:12008   */\n      tag_311\n      jump\t// in\n    tag_480:\n        /* \"#utility.yul\":11877:12014   */\n      swap3\n      swap2\n      pop\n      pop\n      jump\t// out\n        /* \"#utility.yul\":12020:12365   */\n    tag_123:\n        /* \"#utility.yul\":12087:12093   */\n      0x00\n        /* \"#utility.yul\":12136:12138   */\n      0x20\n        /* \"#utility.yul\":12124:12133   */\n      dup3\n        /* \"#utility.yul\":12115:12122   */\n      dup5\n        /* \"#utility.yul\":12111:12134   */\n      sub\n        /* \"#utility.yul\":12107:12139   */\n      slt\n        /* \"#utility.yul\":12104:12223   */\n      iszero\n      tag_482\n      jumpi\n        /* \"#utility.yul\":12142:12221   */\n      tag_483\n      tag_297\n      jump\t// in\n    tag_483:\n        /* \"#utility.yul\":12104:12223   */\n    tag_482:\n        /* \"#utility.yul\":12262:12263   */\n      0x00\n        /* \"#utility.yul\":12287:12348   */\n      tag_484\n        /* \"#utility.yul\":12340:12347   */\n      dup5\n        /* \"#utility.yul\":12331:12337   */\n      dup3\n        /* \"#utility.yul\":12320:12329   */\n      dup6\n        /* \"#utility.yul\":12316:12338   */\n      add\n        /* \"#utility.yul\":12287:12348   */\n      tag_327\n      jump\t// in\n    tag_484:\n        /* \"#utility.yul\":12277:12348   */\n      swap2\n      pop\n        /* \"#utility.yul\":12233:12358   */\n      pop\n        /* \"#utility.yul\":12020:12365   */\n      swap3\n      swap2\n      pop\n      pop\n      jump\t// out\n        /* \"#utility.yul\":12371:12536   */\n    tag_328:\n        /* \"#utility.yul\":12511:12528   */\n      0x5472616e73666572206661696c65640000000000000000000000000000000000\n        /* \"#utility.yul\":12507:12508   */\n      0x00\n        /* \"#utility.yul\":12499:12505   */\n      dup3\n        /* \"#utility.yul\":12495:12509   */\n      add\n        /* \"#utility.yul\":12488:12529   */\n      mstore\n        /* \"#utility.yul\":12371:12536   */\n      pop\n      jump\t// out\n        /* \"#utility.yul\":12542:12908   */\n    tag_329:\n        /* \"#utility.yul\":12684:12687   */\n      0x00\n        /* \"#utility.yul\":12705:12772   */\n      tag_487\n        /* \"#utility.yul\":12769:12771   */\n      0x0f\n        /* \"#utility.yul\":12764:12767   */\n      dup4\n        /* \"#utility.yul\":12705:12772   */\n      tag_319\n      jump\t// in\n    tag_487:\n        /* \"#utility.yul\":12698:12772   */\n      swap2\n      pop\n        /* \"#utility.yul\":12781:12874   */\n      tag_488\n        /* \"#utility.yul\":12870:12873   */\n      dup3\n        /* \"#utility.yul\":12781:12874   */\n      tag_328\n      jump\t// in\n    tag_488:\n        /* \"#utility.yul\":12899:12901   */\n      0x20\n        /* \"#utility.yul\":12894:12897   */\n      dup3\n        /* \"#utility.yul\":12890:12902   */\n      add\n        /* \"#utility.yul\":12883:12902   */\n      swap1\n      pop\n        /* \"#utility.yul\":12542:12908   */\n      swap2\n      swap1\n      pop\n      jump\t// out\n        /* \"#utility.yul\":12914:13333   */\n    tag_126:\n        /* \"#utility.yul\":13080:13084   */\n      0x00\n        /* \"#utility.yul\":13118:13120   */\n      0x20\n        /* \"#utility.yul\":13107:13116   */\n      dup3\n        /* \"#utility.yul\":13103:13121   */\n      add\n        /* \"#utility.yul\":13095:13121   */\n      swap1\n      pop\n        /* \"#utility.yul\":13167:13176   */\n      dup2\n        /* \"#utility.yul\":13161:13165   */\n      dup2\n        /* \"#utility.yul\":13157:13177   */\n      sub\n        /* \"#utility.yul\":13153:13154   */\n      0x00\n        /* \"#utility.yul\":13142:13151   */\n      dup4\n        /* \"#utility.yul\":13138:13155   */\n      add\n        /* \"#utility.yul\":13131:13178   */\n      mstore\n        /* \"#utility.yul\":13195:13326   */\n      tag_490\n        /* \"#utility.yul\":13321:13325   */\n      dup2\n        /* \"#utility.yul\":13195:13326   */\n      tag_329\n      jump\t// in\n    tag_490:\n        /* \"#utility.yul\":13187:13326   */\n      swap1\n      pop\n        /* \"#utility.yul\":12914:13333   */\n      swap2\n      swap1\n      pop\n      jump\t// out\n        /* \"#utility.yul\":13339:13508   */\n    tag_330:\n        /* \"#utility.yul\":13479:13500   */\n      0x496e76616c69642062656e656669636961727900000000000000000000000000\n        /* \"#utility.yul\":13475:13476   */\n      0x00\n        /* \"#utility.yul\":13467:13473   */\n      dup3\n        /* \"#utility.yul\":13463:13477   */\n      add\n        /* \"#utility.yul\":13456:13501   */\n      mstore\n        /* \"#utility.yul\":13339:13508   */\n      pop\n      jump\t// out\n        /* \"#utility.yul\":13514:13880   */\n    tag_331:\n        /* \"#utility.yul\":13656:13659   */\n      0x00\n        /* \"#utility.yul\":13677:13744   */\n      tag_493\n        /* \"#utility.yul\":13741:13743   */\n      0x13\n        /* \"#utility.yul\":13736:13739   */\n      dup4\n        /* \"#utility.yul\":13677:13744   */\n      tag_319\n      jump\t// in\n    tag_493:\n        /* \"#utility.yul\":13670:13744   */\n      swap2\n      pop\n        /* \"#utility.yul\":13753:13846   */\n      tag_494\n        /* \"#utility.yul\":13842:13845   */\n      dup3\n        /* \"#utility.yul\":13753:13846   */\n      tag_330\n      jump\t// in\n    tag_494:\n        /* \"#utility.yul\":13871:13873   */\n      0x20\n        /* \"#utility.yul\":13866:13869   */\n      dup3\n        /* \"#utility.yul\":13862:13874   */\n      add\n        /* \"#utility.yul\":13855:13874   */\n      swap1\n      pop\n        /* \"#utility.yul\":13514:13880   */\n      swap2\n      swap1\n      pop\n      jump\t// out\n        /* \"#utility.yul\":13886:14305   */\n    tag_143:\n        /* \"#utility.yul\":14052:14056   */\n      0x00\n        /* \"#utility.yul\":14090:14092   */\n      0x20\n        /* \"#utility.yul\":14079:14088   */\n      dup3\n        /* \"#utility.yul\":14075:14093   */\n      add\n        /* \"#utility.yul\":14067:14093   */\n      swap1\n      pop\n        /* \"#utility.yul\":14139:14148   */\n      dup2\n        /* \"#utility.yul\":14133:14137   */\n      dup2\n        /* \"#utility.yul\":14129:14149   */\n      sub\n        /* \"#utility.yul\":14125:14126   */\n      0x00\n        /* \"#utility.yul\":14114:14123   */\n      dup4\n        /* \"#utility.yul\":14110:14127   */\n      add\n        /* \"#utility.yul\":14103:14150   */\n      mstore\n        /* \"#utility.yul\":14167:14298   */\n      tag_496\n        /* \"#utility.yul\":14293:14297   */\n      dup2\n        /* \"#utility.yul\":14167:14298   */\n      tag_331\n      jump\t// in\n    tag_496:\n        /* \"#utility.yul\":14159:14298   */\n      swap1\n      pop\n        /* \"#utility.yul\":13886:14305   */\n      swap2\n      swap1\n      pop\n      jump\t// out\n        /* \"#utility.yul\":14311:14479   */\n    tag_332:\n        /* \"#utility.yul\":14451:14471   */\n      0x416d6f756e74206d757374206265203e20300000000000000000000000000000\n        /* \"#utility.yul\":14447:14448   */\n      0x00\n        /* \"#utility.yul\":14439:14445   */\n      dup3\n        /* \"#utility.yul\":14435:14449   */\n      add\n        /* \"#utility.yul\":14428:14472   */\n      mstore\n        /* \"#utility.yul\":14311:14479   */\n      pop\n      jump\t// out\n        /* \"#utility.yul\":14485:14851   */\n    tag_333:\n        /* \"#utility.yul\":14627:14630   */\n      0x00\n        /* \"#utility.yul\":14648:14715   */\n      tag_499\n        /* \"#utility.yul\":14712:14714   */\n      0x12\n        /* \"#utility.yul\":14707:14710   */\n      dup4\n        /* \"#utility.yul\":14648:14715   */\n      tag_319\n      jump\t// in\n    tag_499:\n        /* \"#utility.yul\":14641:14715   */\n      swap2\n      pop\n        /* \"#utility.yul\":14724:14817   */\n      tag_500\n        /* \"#utility.yul\":14813:14816   */\n      dup3\n        /* \"#utility.yul\":14724:14817   */\n      tag_332\n      jump\t// in\n    tag_500:\n        /* \"#utility.yul\":14842:14844   */\n      0x20\n        /* \"#utility.yul\":14837:14840   */\n      dup3\n        /* \"#utility.yul\":14833:14845   */\n      add\n        /* \"#utility.yul\":14826:14845   */\n      swap1\n      pop\n        /* \"#utility.yul\":14485:14851   */\n      swap2\n      swap1\n      pop\n      jump\t// out\n        /* \"#utility.yul\":14857:15276   */\n    tag_146:\n        /* \"#utility.yul\":15023:15027   */\n      0x00\n        /* \"#utility.yul\":15061:15063   */\n      0x20\n        /* \"#utility.yul\":15050:15059   */\n      dup3\n        /* \"#utility.yul\":15046:15064   */\n      add\n        /* \"#utility.yul\":15038:15064   */\n      swap1\n      pop\n        /* \"#utility.yul\":15110:15119   */\n      dup2\n        /* \"#utility.yul\":15104:15108   */\n      dup2\n        /* \"#utility.yul\":15100:15120   */\n      sub\n        /* \"#utility.yul\":15096:15097   */\n      0x00\n        /* \"#utility.yul\":15085:15094   */\n      dup4\n        /* \"#utility.yul\":15081:15098   */\n      add\n        /* \"#utility.yul\":15074:15121   */\n      mstore\n        /* \"#utility.yul\":15138:15269   */\n      tag_502\n        /* \"#utility.yul\":15264:15268   */\n      dup2\n        /* \"#utility.yul\":15138:15269   */\n      tag_333\n      jump\t// in\n    tag_502:\n        /* \"#utility.yul\":15130:15269   */\n      swap1\n      pop\n        /* \"#utility.yul\":14857:15276   */\n      swap2\n      swap1\n      pop\n      jump\t// out\n        /* \"#utility.yul\":15282:15452   */\n    tag_334:\n        /* \"#utility.yul\":15422:15444   */\n      0x4475726174696f6e206d757374206265203e2030000000000000000000000000\n        /* \"#utility.yul\":15418:15419   */\n      0x00\n        /* \"#utility.yul\":15410:15416   */\n      dup3\n        /* \"#utility.yul\":15406:15420   */\n      add\n        /* \"#utility.yul\":15399:15445   */\n      mstore\n        /* \"#utility.yul\":15282:15452   */\n      pop\n      jump\t// out\n        /* \"#utility.yul\":15458:15824   */\n    tag_335:\n        /* \"#utility.yul\":15600:15603   */\n      0x00\n        /* \"#utility.yul\":15621:15688   */\n      tag_505\n        /* \"#utility.yul\":15685:15687   */\n      0x14\n        /* \"#utility.yul\":15680:15683   */\n      dup4\n        /* \"#utility.yul\":15621:15688   */\n      tag_319\n      jump\t// in\n    tag_505:\n        /* \"#utility.yul\":15614:15688   */\n      swap2\n      pop\n        /* \"#utility.yul\":15697:15790   */\n      tag_506\n        /* \"#utility.yul\":15786:15789   */\n      dup3\n        /* \"#utility.yul\":15697:15790   */\n      tag_334\n      jump\t// in\n    tag_506:\n        /* \"#utility.yul\":15815:15817   */\n      0x20\n        /* \"#utility.yul\":15810:15813   */\n      dup3\n        /* \"#utility.yul\":15806:15818   */\n      add\n        /* \"#utility.yul\":15799:15818   */\n      swap1\n      pop\n        /* \"#utility.yul\":15458:15824   */\n      swap2\n      swap1\n      pop\n      jump\t// out\n        /* \"#utility.yul\":15830:16249   */\n    tag_149:\n        /* \"#utility.yul\":15996:16000   */\n      0x00\n        /* \"#utility.yul\":16034:16036   */\n      0x20\n        /* \"#utility.yul\":16023:16032   */\n      dup3\n        /* \"#utility.yul\":16019:16037   */\n      add\n        /* \"#utility.yul\":16011:16037   */\n      swap1\n      pop\n        /* \"#utility.yul\":16083:16092   */\n      dup2\n        /* \"#utility.yul\":16077:16081   */\n      dup2\n        /* \"#utility.yul\":16073:16093   */\n      sub\n        /* \"#utility.yul\":16069:16070   */\n      0x00\n        /* \"#utility.yul\":16058:16067   */\n      dup4\n        /* \"#utility.yul\":16054:16071   */\n      add\n        /* \"#utility.yul\":16047:16094   */\n      mstore\n        /* \"#utility.yul\":16111:16242   */\n      tag_508\n        /* \"#utility.yul\":16237:16241   */\n      dup2\n        /* \"#utility.yul\":16111:16242   */\n      tag_335\n      jump\t// in\n    tag_508:\n        /* \"#utility.yul\":16103:16242   */\n      swap1\n      pop\n        /* \"#utility.yul\":15830:16249   */\n      swap2\n      swap1\n      pop\n      jump\t// out\n        /* \"#utility.yul\":16255:16429   */\n    tag_336:\n        /* \"#utility.yul\":16395:16421   */\n      0x536c69636520706572696f64206d757374206265203e20300000000000000000\n        /* \"#utility.yul\":16391:16392   */\n      0x00\n        /* \"#utility.yul\":16383:16389   */\n      dup3\n        /* \"#utility.yul\":16379:16393   */\n      add\n        /* \"#utility.yul\":16372:16422   */\n      mstore\n        /* \"#utility.yul\":16255:16429   */\n      pop\n      jump\t// out\n        /* \"#utility.yul\":16435:16801   */\n    tag_337:\n        /* \"#utility.yul\":16577:16580   */\n      0x00\n        /* \"#utility.yul\":16598:16665   */\n      tag_511\n        /* \"#utility.yul\":16662:16664   */\n      0x18\n        /* \"#utility.yul\":16657:16660   */\n      dup4\n        /* \"#utility.yul\":16598:16665   */\n      tag_319\n      jump\t// in\n    tag_511:\n        /* \"#utility.yul\":16591:16665   */\n      swap2\n      pop\n        /* \"#utility.yul\":16674:16767   */\n      tag_512\n        /* \"#utility.yul\":16763:16766   */\n      dup3\n        /* \"#utility.yul\":16674:16767   */\n      tag_336\n      jump\t// in\n    tag_512:\n        /* \"#utility.yul\":16792:16794   */\n      0x20\n        /* \"#utility.yul\":16787:16790   */\n      dup3\n        /* \"#utility.yul\":16783:16795   */\n      add\n        /* \"#utility.yul\":16776:16795   */\n      swap1\n      pop\n        /* \"#utility.yul\":16435:16801   */\n      swap2\n      swap1\n      pop\n      jump\t// out\n        /* \"#utility.yul\":16807:17226   */\n    tag_152:\n        /* \"#utility.yul\":16973:16977   */\n      0x00\n        /* \"#utility.yul\":17011:17013   */\n      0x20\n        /* \"#utility.yul\":17000:17009   */\n      dup3\n        /* \"#utility.yul\":16996:17014   */\n      add\n        /* \"#utility.yul\":16988:17014   */\n      swap1\n      pop\n        /* \"#utility.yul\":17060:17069   */\n      dup2\n        /* \"#utility.yul\":17054:17058   */\n      dup2\n        /* \"#utility.yul\":17050:17070   */\n      sub\n        /* \"#utility.yul\":17046:17047   */\n      0x00\n        /* \"#utility.yul\":17035:17044   */\n      dup4\n        /* \"#utility.yul\":17031:17048   */\n      add\n        /* \"#utility.yul\":17024:17071   */\n      mstore\n        /* \"#utility.yul\":17088:17219   */\n      tag_514\n        /* \"#utility.yul\":17214:17218   */\n      dup2\n        /* \"#utility.yul\":17088:17219   */\n      tag_337\n      jump\t// in\n    tag_514:\n        /* \"#utility.yul\":17080:17219   */\n      swap1\n      pop\n        /* \"#utility.yul\":16807:17226   */\n      swap2\n      swap1\n      pop\n      jump\t// out\n        /* \"#utility.yul\":17232:17395   */\n    tag_338:\n        /* \"#utility.yul\":17372:17387   */\n      0x496e76616c696420636c69666600000000000000000000000000000000000000\n        /* \"#utility.yul\":17368:17369   */\n      0x00\n        /* \"#utility.yul\":17360:17366   */\n      dup3\n        /* \"#utility.yul\":17356:17370   */\n      add\n        /* \"#utility.yul\":17349:17388   */\n      mstore\n        /* \"#utility.yul\":17232:17395   */\n      pop\n      jump\t// out\n        /* \"#utility.yul\":17401:17767   */\n    tag_339:\n        /* \"#utility.yul\":17543:17546   */\n      0x00\n        /* \"#utility.yul\":17564:17631   */\n      tag_517\n        /* \"#utility.yul\":17628:17630   */\n      0x0d\n        /* \"#utility.yul\":17623:17626   */\n      dup4\n        /* \"#utility.yul\":17564:17631   */\n      tag_319\n      jump\t// in\n    tag_517:\n        /* \"#utility.yul\":17557:17631   */\n      swap2\n      pop\n        /* \"#utility.yul\":17640:17733   */\n      tag_518\n        /* \"#utility.yul\":17729:17732   */\n      dup3\n        /* \"#utility.yul\":17640:17733   */\n      tag_338\n      jump\t// in\n    tag_518:\n        /* \"#utility.yul\":17758:17760   */\n      0x20\n        /* \"#utility.yul\":17753:17756   */\n      dup3\n        /* \"#utility.yul\":17749:17761   */\n      add\n        /* \"#utility.yul\":17742:17761   */\n      swap1\n      pop\n        /* \"#utility.yul\":17401:17767   */\n      swap2\n      swap1\n      pop\n      jump\t// out\n        /* \"#utility.yul\":17773:18192   */\n    tag_155:\n        /* \"#utility.yul\":17939:17943   */\n      0x00\n        /* \"#utility.yul\":17977:17979   */\n      0x20\n        /* \"#utility.yul\":17966:17975   */\n      dup3\n        /* \"#utility.yul\":17962:17980   */\n      add\n        /* \"#utility.yul\":17954:17980   */\n      swap1\n      pop\n        /* \"#utility.yul\":18026:18035   */\n      dup2\n        /* \"#utility.yul\":18020:18024   */\n      dup2\n        /* \"#utility.yul\":18016:18036   */\n      sub\n        /* \"#utility.yul\":18012:18013   */\n      0x00\n        /* \"#utility.yul\":18001:18010   */\n      dup4\n        /* \"#utility.yul\":17997:18014   */\n      add\n        /* \"#utility.yul\":17990:18037   */\n      mstore\n        /* \"#utility.yul\":18054:18185   */\n      tag_520\n        /* \"#utility.yul\":18180:18184   */\n      dup2\n        /* \"#utility.yul\":18054:18185   */\n      tag_339\n      jump\t// in\n    tag_520:\n        /* \"#utility.yul\":18046:18185   */\n      swap1\n      pop\n        /* \"#utility.yul\":17773:18192   */\n      swap2\n      swap1\n      pop\n      jump\t// out\n        /* \"#utility.yul\":18198:18364   */\n    tag_340:\n        /* \"#utility.yul\":18338:18356   */\n      0x53746172742074696d65203c206e6f7700000000000000000000000000000000\n        /* \"#utility.yul\":18334:18335   */\n      0x00\n        /* \"#utility.yul\":18326:18332   */\n      dup3\n        /* \"#utility.yul\":18322:18336   */\n      add\n        /* \"#utility.yul\":18315:18357   */\n      mstore\n        /* \"#utility.yul\":18198:18364   */\n      pop\n      jump\t// out\n        /* \"#utility.yul\":18370:18736   */\n    tag_341:\n        /* \"#utility.yul\":18512:18515   */\n      0x00\n        /* \"#utility.yul\":18533:18600   */\n      tag_523\n        /* \"#utility.yul\":18597:18599   */\n      0x10\n        /* \"#utility.yul\":18592:18595   */\n      dup4\n        /* \"#utility.yul\":18533:18600   */\n      tag_319\n      jump\t// in\n    tag_523:\n        /* \"#utility.yul\":18526:18600   */\n      swap2\n      pop\n        /* \"#utility.yul\":18609:18702   */\n      tag_524\n        /* \"#utility.yul\":18698:18701   */\n      dup3\n        /* \"#utility.yul\":18609:18702   */\n      tag_340\n      jump\t// in\n    tag_524:\n        /* \"#utility.yul\":18727:18729   */\n      0x20\n        /* \"#utility.yul\":18722:18725   */\n      dup3\n        /* \"#utility.yul\":18718:18730   */\n      add\n        /* \"#utility.yul\":18711:18730   */\n      swap1\n      pop\n        /* \"#utility.yul\":18370:18736   */\n      swap2\n      swap1\n      pop\n      jump\t// out\n        /* \"#utility.yul\":18742:19161   */\n    tag_158:\n        /* \"#utility.yul\":18908:18912   */\n      0x00\n        /* \"#utility.yul\":18946:18948   */\n      0x20\n        /* \"#utility.yul\":18935:18944   */\n      dup3\n        /* \"#utility.yul\":18931:18949   */\n      add\n        /* \"#utility.yul\":18923:18949   */\n      swap1\n      pop\n        /* \"#utility.yul\":18995:19004   */\n      dup2\n        /* \"#utility.yul\":18989:18993   */\n      dup2\n        /* \"#utility.yul\":18985:19005   */\n      sub\n        /* \"#utility.yul\":18981:18982   */\n      0x00\n        /* \"#utility.yul\":18970:18979   */\n      dup4\n        /* \"#utility.yul\":18966:18983   */\n      add\n        /* \"#utility.yul\":18959:19006   */\n      mstore\n        /* \"#utility.yul\":19023:19154   */\n      tag_526\n        /* \"#utility.yul\":19149:19153   */\n      dup2\n        /* \"#utility.yul\":19023:19154   */\n      tag_341\n      jump\t// in\n    tag_526:\n        /* \"#utility.yul\":19015:19154   */\n      swap1\n      pop\n        /* \"#utility.yul\":18742:19161   */\n      swap2\n      swap1\n      pop\n      jump\t// out\n        /* \"#utility.yul\":19167:19347   */\n    tag_161:\n        /* \"#utility.yul\":19215:19292   */\n      0x4e487b7100000000000000000000000000000000000000000000000000000000\n        /* \"#utility.yul\":19212:19213   */\n      0x00\n        /* \"#utility.yul\":19205:19293   */\n      mstore\n        /* \"#utility.yul\":19312:19316   */\n      0x21\n        /* \"#utility.yul\":19309:19310   */\n      0x04\n        /* \"#utility.yul\":19302:19317   */\n      mstore\n        /* \"#utility.yul\":19336:19340   */\n      0x24\n        /* \"#utility.yul\":19333:19334   */\n      0x00\n        /* \"#utility.yul\":19326:19341   */\n      revert\n        /* \"#utility.yul\":19353:19522   */\n    tag_342:\n        /* \"#utility.yul\":19493:19514   */\n      0x45786365656473206d61782076657374696e6700000000000000000000000000\n        /* \"#utility.yul\":19489:19490   */\n      0x00\n        /* \"#utility.yul\":19481:19487   */\n      dup3\n        /* \"#utility.yul\":19477:19491   */\n      add\n        /* \"#utility.yul\":19470:19515   */\n      mstore\n        /* \"#utility.yul\":19353:19522   */\n      pop\n      jump\t// out\n        /* \"#utility.yul\":19528:19894   */\n    tag_343:\n        /* \"#utility.yul\":19670:19673   */\n      0x00\n        /* \"#utility.yul\":19691:19758   */\n      tag_530\n        /* \"#utility.yul\":19755:19757   */\n      0x13\n        /* \"#utility.yul\":19750:19753   */\n      dup4\n        /* \"#utility.yul\":19691:19758   */\n      tag_319\n      jump\t// in\n    tag_530:\n        /* \"#utility.yul\":19684:19758   */\n      swap2\n      pop\n        /* \"#utility.yul\":19767:19860   */\n      tag_531\n        /* \"#utility.yul\":19856:19859   */\n      dup3\n        /* \"#utility.yul\":19767:19860   */\n      tag_342\n      jump\t// in\n    tag_531:\n        /* \"#utility.yul\":19885:19887   */\n      0x20\n        /* \"#utility.yul\":19880:19883   */\n      dup3\n        /* \"#utility.yul\":19876:19888   */\n      add\n        /* \"#utility.yul\":19869:19888   */\n      swap1\n      pop\n        /* \"#utility.yul\":19528:19894   */\n      swap2\n      swap1\n      pop\n      jump\t// out\n        /* \"#utility.yul\":19900:20319   */\n    tag_171:\n        /* \"#utility.yul\":20066:20070   */\n      0x00\n        /* \"#utility.yul\":20104:20106   */\n      0x20\n        /* \"#utility.yul\":20093:20102   */\n      dup3\n        /* \"#utility.yul\":20089:20107   */\n      add\n        /* \"#utility.yul\":20081:20107   */\n      swap1\n      pop\n        /* \"#utility.yul\":20153:20162   */\n      dup2\n        /* \"#utility.yul\":20147:20151   */\n      dup2\n        /* \"#utility.yul\":20143:20163   */\n      sub\n        /* \"#utility.yul\":20139:20140   */\n      0x00\n        /* \"#utility.yul\":20128:20137   */\n      dup4\n        /* \"#utility.yul\":20124:20141   */\n      add\n        /* \"#utility.yul\":20117:20164   */\n      mstore\n        /* \"#utility.yul\":20181:20312   */\n      tag_533\n        /* \"#utility.yul\":20307:20311   */\n      dup2\n        /* \"#utility.yul\":20181:20312   */\n      tag_343\n      jump\t// in\n    tag_533:\n        /* \"#utility.yul\":20173:20312   */\n      swap1\n      pop\n        /* \"#utility.yul\":19900:20319   */\n      swap2\n      swap1\n      pop\n      jump\t// out\n        /* \"#utility.yul\":20325:20767   */\n    tag_173:\n        /* \"#utility.yul\":20474:20478   */\n      0x00\n        /* \"#utility.yul\":20512:20514   */\n      0x60\n        /* \"#utility.yul\":20501:20510   */\n      dup3\n        /* \"#utility.yul\":20497:20515   */\n      add\n        /* \"#utility.yul\":20489:20515   */\n      swap1\n      pop\n        /* \"#utility.yul\":20525:20596   */\n      tag_535\n        /* \"#utility.yul\":20593:20594   */\n      0x00\n        /* \"#utility.yul\":20582:20591   */\n      dup4\n        /* \"#utility.yul\":20578:20595   */\n      add\n        /* \"#utility.yul\":20569:20575   */\n      dup7\n        /* \"#utility.yul\":20525:20596   */\n      tag_313\n      jump\t// in\n    tag_535:\n        /* \"#utility.yul\":20606:20678   */\n      tag_536\n        /* \"#utility.yul\":20674:20676   */\n      0x20\n        /* \"#utility.yul\":20663:20672   */\n      dup4\n        /* \"#utility.yul\":20659:20677   */\n      add\n        /* \"#utility.yul\":20650:20656   */\n      dup6\n        /* \"#utility.yul\":20606:20678   */\n      tag_313\n      jump\t// in\n    tag_536:\n        /* \"#utility.yul\":20688:20760   */\n      tag_537\n        /* \"#utility.yul\":20756:20758   */\n      0x40\n        /* \"#utility.yul\":20745:20754   */\n      dup4\n        /* \"#utility.yul\":20741:20759   */\n      add\n        /* \"#utility.yul\":20732:20738   */\n      dup5\n        /* \"#utility.yul\":20688:20760   */\n      tag_302\n      jump\t// in\n    tag_537:\n        /* \"#utility.yul\":20325:20767   */\n      swap5\n      swap4\n      pop\n      pop\n      pop\n      pop\n      jump\t// out\n        /* \"#utility.yul\":20773:21006   */\n    tag_181:\n        /* \"#utility.yul\":20812:20815   */\n      0x00\n        /* \"#utility.yul\":20835:20859   */\n      tag_539\n        /* \"#utility.yul\":20853:20858   */\n      dup3\n        /* \"#utility.yul\":20835:20859   */\n      tag_301\n      jump\t// in\n    tag_539:\n        /* \"#utility.yul\":20826:20859   */\n      swap2\n      pop\n        /* \"#utility.yul\":20881:20947   */\n      0xffffffffffffffffffffffffffffffffffffffffffffffffffffffffffffffff\n        /* \"#utility.yul\":20874:20879   */\n      dup3\n        /* \"#utility.yul\":20871:20948   */\n      sub\n        /* \"#utility.yul\":20868:20971   */\n      tag_540\n      jumpi\n        /* \"#utility.yul\":20951:20969   */\n      tag_541\n      tag_324\n      jump\t// in\n    tag_541:\n        /* \"#utility.yul\":20868:20971   */\n    tag_540:\n        /* \"#utility.yul\":20998:20999   */\n      0x01\n        /* \"#utility.yul\":20991:20996   */\n      dup3\n        /* \"#utility.yul\":20987:21000   */\n      add\n        /* \"#utility.yul\":20980:21000   */\n      swap1\n      pop\n        /* \"#utility.yul\":20773:21006   */\n      swap2\n      swap1\n      pop\n      jump\t// out\n        /* \"#utility.yul\":21012:21134   */\n    tag_344:\n        /* \"#utility.yul\":21102:21103   */\n      0x05\n        /* \"#utility.yul\":21095:21100   */\n      dup2\n        /* \"#utility.yul\":21092:21104   */\n      lt\n        /* \"#utility.yul\":21082:21128   */\n      tag_543\n      jumpi\n        /* \"#utility.yul\":21108:21126   */\n      tag_544\n      tag_161\n      jump\t// in\n    tag_544:\n        /* \"#utility.yul\":21082:21128   */\n    tag_543:\n        /* \"#utility.yul\":21012:21134   */\n      pop\n      jump\t// out\n        /* \"#utility.yul\":21140:21285   */\n    tag_345:\n        /* \"#utility.yul\":21194:21201   */\n      0x00\n        /* \"#utility.yul\":21223:21228   */\n      dup2\n        /* \"#utility.yul\":21212:21228   */\n      swap1\n      pop\n        /* \"#utility.yul\":21229:21279   */\n      tag_546\n        /* \"#utility.yul\":21273:21278   */\n      dup3\n        /* \"#utility.yul\":21229:21279   */\n      tag_344\n      jump\t// in\n    tag_546:\n        /* \"#utility.yul\":21140:21285   */\n      swap2\n      swap1\n      pop\n      jump\t// out\n        /* \"#utility.yul\":21291:21436   */\n    tag_346:\n        /* \"#utility.yul\":21356:21365   */\n      0x00\n        /* \"#utility.yul\":21389:21430   */\n      tag_548\n        /* \"#utility.yul\":21424:21429   */\n      dup3\n        /* \"#utility.yul\":21389:21430   */\n      tag_345\n      jump\t// in\n    tag_548:\n        /* \"#utility.yul\":21376:21430   */\n      swap1\n      pop\n        /* \"#utility.yul\":21291:21436   */\n      swap2\n      swap1\n      pop\n      jump\t// out\n        /* \"#utility.yul\":21442:21603   */\n    tag_347:\n        /* \"#utility.yul\":21544:21596   */\n      tag_550\n        /* \"#utility.yul\":21590:21595   */\n      dup2\n        /* \"#utility.yul\":21544:21596   */\n      tag_346\n      jump\t// in\n    tag_550:\n        /* \"#utility.yul\":21539:21542   */\n      dup3\n        /* \"#utility.yul\":21532:21597   */\n      mstore\n        /* \"#utility.yul\":21442:21603   */\n      pop\n      pop\n      jump\t// out\n        /* \"#utility.yul\":21609:21971   */\n    tag_194:\n        /* \"#utility.yul\":21745:21749   */\n      0x00\n        /* \"#utility.yul\":21783:21785   */\n      0x40\n        /* \"#utility.yul\":21772:21781   */\n      dup3\n        /* \"#utility.yul\":21768:21786   */\n      add\n        /* \"#utility.yul\":21760:21786   */\n      swap1\n      pop\n        /* \"#utility.yul\":21796:21882   */\n      tag_552\n        /* \"#utility.yul\":21879:21880   */\n      0x00\n        /* \"#utility.yul\":21868:21877   */\n      dup4\n        /* \"#utility.yul\":21864:21881   */\n      add\n        /* \"#utility.yul\":21855:21861   */\n      dup6\n        /* \"#utility.yul\":21796:21882   */\n      tag_347\n      jump\t// in\n    tag_552:\n        /* \"#utility.yul\":21892:21964   */\n      tag_553\n        /* \"#utility.yul\":21960:21962   */\n      0x20\n        /* \"#utility.yul\":21949:21958   */\n      dup4\n        /* \"#utility.yul\":21945:21963   */\n      add\n        /* \"#utility.yul\":21936:21942   */\n      dup5\n        /* \"#utility.yul\":21892:21964   */\n      tag_302\n      jump\t// in\n    tag_553:\n        /* \"#utility.yul\":21609:21971   */\n      swap4\n      swap3\n      pop\n      pop\n      pop\n      jump\t// out\n        /* \"#utility.yul\":21977:22142   */\n    tag_348:\n        /* \"#utility.yul\":22117:22134   */\n      0x496e76616c696420616464726573730000000000000000000000000000000000\n        /* \"#utility.yul\":22113:22114   */\n      0x00\n        /* \"#utility.yul\":22105:22111   */\n      dup3\n        /* \"#utility.yul\":22101:22115   */\n      add\n        /* \"#utility.yul\":22094:22135   */\n      mstore\n        /* \"#utility.yul\":21977:22142   */\n      pop\n      jump\t// out\n        /* \"#utility.yul\":22148:22514   */\n    tag_349:\n        /* \"#utility.yul\":22290:22293   */\n      0x00\n        /* \"#utility.yul\":22311:22378   */\n      tag_556\n        /* \"#utility.yul\":22375:22377   */\n      0x0f\n        /* \"#utility.yul\":22370:22373   */\n      dup4\n        /* \"#utility.yul\":22311:22378   */\n      tag_319\n      jump\t// in\n    tag_556:\n        /* \"#utility.yul\":22304:22378   */\n      swap2\n      pop\n        /* \"#utility.yul\":22387:22480   */\n      tag_557\n        /* \"#utility.yul\":22476:22479   */\n      dup3\n        /* \"#utility.yul\":22387:22480   */\n      tag_348\n      jump\t// in\n    tag_557:\n        /* \"#utility.yul\":22505:22507   */\n      0x20\n        /* \"#utility.yul\":22500:22503   */\n      dup3\n        /* \"#utility.yul\":22496:22508   */\n      add\n        /* \"#utility.yul\":22489:22508   */\n      swap1\n      pop\n        /* \"#utility.yul\":22148:22514   */\n      swap2\n      swap1\n      pop\n      jump\t// out\n        /* \"#utility.yul\":22520:22939   */\n    tag_206:\n        /* \"#utility.yul\":22686:22690   */\n      0x00\n        /* \"#utility.yul\":22724:22726   */\n      0x20\n        /* \"#utility.yul\":22713:22722   */\n      dup3\n        /* \"#utility.yul\":22709:22727   */\n      add\n        /* \"#utility.yul\":22701:22727   */\n      swap1\n      pop\n        /* \"#utility.yul\":22773:22782   */\n      dup2\n        /* \"#utility.yul\":22767:22771   */\n      dup2\n        /* \"#utility.yul\":22763:22783   */\n      sub\n        /* \"#utility.yul\":22759:22760   */\n      0x00\n        /* \"#utility.yul\":22748:22757   */\n      dup4\n        /* \"#utility.yul\":22744:22761   */\n      add\n        /* \"#utility.yul\":22737:22784   */\n      mstore\n        /* \"#utility.yul\":22801:22932   */\n      tag_559\n        /* \"#utility.yul\":22927:22931   */\n      dup2\n        /* \"#utility.yul\":22801:22932   */\n      tag_349\n      jump\t// in\n    tag_559:\n        /* \"#utility.yul\":22793:22932   */\n      swap1\n      pop\n        /* \"#utility.yul\":22520:22939   */\n      swap2\n      swap1\n      pop\n      jump\t// out\n        /* \"#utility.yul\":22945:23108   */\n    tag_350:\n        /* \"#utility.yul\":23085:23100   */\n      0x4e6f74207265766f6361626c6500000000000000000000000000000000000000\n        /* \"#utility.yul\":23081:23082   */\n      0x00\n        /* \"#utility.yul\":23073:23079   */\n      dup3\n        /* \"#utility.yul\":23069:23083   */\n      add\n        /* \"#utility.yul\":23062:23101   */\n      mstore\n        /* \"#utility.yul\":22945:23108   */\n      pop\n      jump\t// out\n        /* \"#utility.yul\":23114:23480   */\n    tag_351:\n        /* \"#utility.yul\":23256:23259   */\n      0x00\n        /* \"#utility.yul\":23277:23344   */\n      tag_562\n        /* \"#utility.yul\":23341:23343   */\n      0x0d\n        /* \"#utility.yul\":23336:23339   */\n      dup4\n        /* \"#utility.yul\":23277:23344   */\n      tag_319\n      jump\t// in\n    tag_562:\n        /* \"#utility.yul\":23270:23344   */\n      swap2\n      pop\n        /* \"#utility.yul\":23353:23446   */\n      tag_563\n        /* \"#utility.yul\":23442:23445   */\n      dup3\n        /* \"#utility.yul\":23353:23446   */\n      tag_350\n      jump\t// in\n    tag_563:\n        /* \"#utility.yul\":23471:23473   */\n      0x20\n        /* \"#utility.yul\":23466:23469   */\n      dup3\n        /* \"#utility.yul\":23462:23474   */\n      add\n        /* \"#utility.yul\":23455:23474   */\n      swap1\n      pop\n        /* \"#utility.yul\":23114:23480   */\n      swap2\n      swap1\n      pop\n      jump\t// out\n        /* \"#utility.yul\":23486:23905   */\n    tag_227:\n        /* \"#utility.yul\":23652:23656   */\n      0x00\n        /* \"#utility.yul\":23690:23692   */\n      0x20\n        /* \"#utility.yul\":23679:23688   */\n      dup3\n        /* \"#utility.yul\":23675:23693   */\n      add\n        /* \"#utility.yul\":23667:23693   */\n      swap1\n      pop\n        /* \"#utility.yul\":23739:23748   */\n      dup2\n        /* \"#utility.yul\":23733:23737   */\n      dup2\n        /* \"#utility.yul\":23729:23749   */\n      sub\n        /* \"#utility.yul\":23725:23726   */\n      0x00\n        /* \"#utility.yul\":23714:23723   */\n      dup4\n        /* \"#utility.yul\":23710:23727   */\n      add\n        /* \"#utility.yul\":23703:23750   */\n      mstore\n        /* \"#utility.yul\":23767:23898   */\n      tag_565\n        /* \"#utility.yul\":23893:23897   */\n      dup2\n        /* \"#utility.yul\":23767:23898   */\n      tag_351\n      jump\t// in\n    tag_565:\n        /* \"#utility.yul\":23759:23898   */\n      swap1\n      pop\n        /* \"#utility.yul\":23486:23905   */\n      swap2\n      swap1\n      pop\n      jump\t// out\n        /* \"#utility.yul\":23911:24076   */\n    tag_352:\n        /* \"#utility.yul\":24051:24068   */\n      0x416c7265616479207265766f6b65640000000000000000000000000000000000\n        /* \"#utility.yul\":24047:24048   */\n      0x00\n        /* \"#utility.yul\":24039:24045   */\n      dup3\n        /* \"#utility.yul\":24035:24049   */\n      add\n        /* \"#utility.yul\":24028:24069   */\n      mstore\n        /* \"#utility.yul\":23911:24076   */\n      pop\n      jump\t// out\n        /* \"#utility.yul\":24082:24448   */\n    tag_353:\n        /* \"#utility.yul\":24224:24227   */\n      0x00\n        /* \"#utility.yul\":24245:24312   */\n      tag_568\n        /* \"#utility.yul\":24309:24311   */\n      0x0f\n        /* \"#utility.yul\":24304:24307   */\n      dup4\n        /* \"#utility.yul\":24245:24312   */\n      tag_319\n      jump\t// in\n    tag_568:\n        /* \"#utility.yul\":24238:24312   */\n      swap2\n      pop\n        /* \"#utility.yul\":24321:24414   */\n      tag_569\n        /* \"#utility.yul\":24410:24413   */\n      dup3\n        /* \"#utility.yul\":24321:24414   */\n      tag_352\n      jump\t// in\n    tag_569:\n        /* \"#utility.yul\":24439:24441   */\n      0x20\n        /* \"#utility.yul\":24434:24437   */\n      dup3\n        /* \"#utility.yul\":24430:24442   */\n      add\n        /* \"#utility.yul\":24423:24442   */\n      swap1\n      pop\n        /* \"#utility.yul\":24082:24448   */\n      swap2\n      swap1\n      pop\n      jump\t// out\n        /* \"#utility.yul\":24454:24873   */\n    tag_230:\n        /* \"#utility.yul\":24620:24624   */\n      0x00\n        /* \"#utility.yul\":24658:24660   */\n      0x20\n        /* \"#utility.yul\":24647:24656   */\n      dup3\n        /* \"#utility.yul\":24643:24661   */\n      add\n        /* \"#utility.yul\":24635:24661   */\n      swap1\n      pop\n        /* \"#utility.yul\":24707:24716   */\n      dup2\n        /* \"#utility.yul\":24701:24705   */\n      dup2\n        /* \"#utility.yul\":24697:24717   */\n      sub\n        /* \"#utility.yul\":24693:24694   */\n      0x00\n        /* \"#utility.yul\":24682:24691   */\n      dup4\n        /* \"#utility.yul\":24678:24695   */\n      add\n        /* \"#utility.yul\":24671:24718   */\n      mstore\n        /* \"#utility.yul\":24735:24866   */\n      tag_571\n        /* \"#utility.yul\":24861:24865   */\n      dup2\n        /* \"#utility.yul\":24735:24866   */\n      tag_353\n      jump\t// in\n    tag_571:\n        /* \"#utility.yul\":24727:24866   */\n      swap1\n      pop\n        /* \"#utility.yul\":24454:24873   */\n      swap2\n      swap1\n      pop\n      jump\t// out\n        /* \"#utility.yul\":24879:25059   */\n    tag_354:\n        /* \"#utility.yul\":24927:25004   */\n      0x4e487b7100000000000000000000000000000000000000000000000000000000\n        /* \"#utility.yul\":24924:24925   */\n      0x00\n        /* \"#utility.yul\":24917:25005   */\n      mstore\n        /* \"#utility.yul\":25024:25028   */\n      0x12\n        /* \"#utility.yul\":25021:25022   */\n      0x04\n        /* \"#utility.yul\":25014:25029   */\n      mstore\n        /* \"#utility.yul\":25048:25052   */\n      0x24\n        /* \"#utility.yul\":25045:25046   */\n      0x00\n        /* \"#utility.yul\":25038:25053   */\n      revert\n        /* \"#utility.yul\":25065:25250   */\n    tag_263:\n        /* \"#utility.yul\":25105:25106   */\n      0x00\n        /* \"#utility.yul\":25122:25142   */\n      tag_574\n        /* \"#utility.yul\":25140:25141   */\n      dup3\n        /* \"#utility.yul\":25122:25142   */\n      tag_301\n      jump\t// in\n    tag_574:\n        /* \"#utility.yul\":25117:25142   */\n      swap2\n      pop\n        /* \"#utility.yul\":25156:25176   */\n      tag_575\n        /* \"#utility.yul\":25174:25175   */\n      dup4\n        /* \"#utility.yul\":25156:25176   */\n      tag_301\n      jump\t// in\n    tag_575:\n        /* \"#utility.yul\":25151:25176   */\n      swap3\n      pop\n        /* \"#utility.yul\":25195:25196   */\n      dup3\n        /* \"#utility.yul\":25185:25220   */\n      tag_576\n      jumpi\n        /* \"#utility.yul\":25200:25218   */\n      tag_577\n      tag_354\n      jump\t// in\n    tag_577:\n        /* \"#utility.yul\":25185:25220   */\n    tag_576:\n        /* \"#utility.yul\":25242:25243   */\n      dup3\n        /* \"#utility.yul\":25239:25240   */\n      dup3\n        /* \"#utility.yul\":25235:25244   */\n      div\n        /* \"#utility.yul\":25230:25244   */\n      swap1\n      pop\n        /* \"#utility.yul\":25065:25250   */\n      swap3\n      swap2\n      pop\n      pop\n      jump\t// out\n        /* \"#utility.yul\":25256:25666   */\n    tag_265:\n        /* \"#utility.yul\":25296:25303   */\n      0x00\n        /* \"#utility.yul\":25319:25339   */\n      tag_579\n        /* \"#utility.yul\":25337:25338   */\n      dup3\n        /* \"#utility.yul\":25319:25339   */\n      tag_301\n      jump\t// in\n    tag_579:\n        /* \"#utility.yul\":25314:25339   */\n      swap2\n      pop\n        /* \"#utility.yul\":25353:25373   */\n      tag_580\n        /* \"#utility.yul\":25371:25372   */\n      dup4\n        /* \"#utility.yul\":25353:25373   */\n      tag_301\n      jump\t// in\n    tag_580:\n        /* \"#utility.yul\":25348:25373   */\n      swap3\n      pop\n        /* \"#utility.yul\":25408:25409   */\n      dup3\n        /* \"#utility.yul\":25405:25406   */\n      dup3\n        /* \"#utility.yul\":25401:25410   */\n      mul\n        /* \"#utility.yul\":25430:25460   */\n      tag_581\n        /* \"#utility.yul\":25448:25459   */\n      dup2\n        /* \"#utility.yul\":25430:25460   */\n      tag_301\n      jump\t// in\n    tag_581:\n        /* \"#utility.yul\":25419:25460   */\n      swap2\n      pop\n        /* \"#utility.yul\":25609:25610   */\n      dup3\n        /* \"#utility.yul\":25600:25607   */\n      dup3\n        /* \"#utility.yul\":25596:25611   */\n      div\n        /* \"#utility.yul\":25593:25594   */\n      dup5\n        /* \"#utility.yul\":25590:25612   */\n      eq\n        /* \"#utility.yul\":25570:25571   */\n      dup4\n        /* \"#utility.yul\":25563:25572   */\n      iszero\n        /* \"#utility.yul\":25543:25626   */\n      or\n        /* \"#utility.yul\":25520:25659   */\n      tag_582\n      jumpi\n        /* \"#utility.yul\":25639:25657   */\n      tag_583\n      tag_324\n      jump\t// in\n    tag_583:\n        /* \"#utility.yul\":25520:25659   */\n    tag_582:\n        /* \"#utility.yul\":25304:25666   */\n      pop\n        /* \"#utility.yul\":25256:25666   */\n      swap3\n      swap2\n      pop\n      pop\n      jump\t// out\n\n    auxdata: 0xa2646970667358221220a1bc69375d4019d8e9697e4eb7089a62746138c0abf55022d0c54d3997eda08264736f6c634300081a0033\n}\n",
				"bytecode": {
					"linkReferences": {},
					"object": "608060405234801561000f575f80fd5b50604051612bed380380612bed833981810160405281019061003191906104b2565b825f73ffffffffffffffffffffffffffffffffffffffff168173ffffffffffffffffffffffffffffffffffffffff16036100a2575f6040517f1e4fbdf70000000000000000000000000000000000000000000000000000000081526004016100999190610511565b60405180910390fd5b6100b18161039360201b60201c565b50600180819055505f60025f6101000a81548160ff0219169083151502179055505f73ffffffffffffffffffffffffffffffffffffffff168273ffffffffffffffffffffffffffffffffffffffff1603610140576040517f08c379a000000000000000000000000000000000000000000000000000000000815260040161013790610584565b60405180910390fd5b5f73ffffffffffffffffffffffffffffffffffffffff168173ffffffffffffffffffffffffffffffffffffffff16036101ae576040517f08c379a00000000000000000000000000000000000000000000000000000000081526004016101a5906105ec565b60405180910390fd5b81600260016101000a81548173ffffffffffffffffffffffffffffffffffffffff021916908373ffffffffffffffffffffffffffffffffffffffff1602179055508060085f6101000a81548173ffffffffffffffffffffffffffffffffffffffff021916908373ffffffffffffffffffffffffffffffffffffffff1602179055506a7c13bc4b2c133c5600000060065f8060048111156102515761025061060a565b5b60048111156102635761026261060a565b5b81526020019081526020015f20819055506acecb8f27f4200f3a00000060065f600160048111156102975761029661060a565b5b60048111156102a9576102a861060a565b5b81526020019081526020015f20819055506a295be96e6406697200000060065f600260048111156102dd576102dc61060a565b5b60048111156102ef576102ee61060a565b5b81526020019081526020015f20819055506aa56fa5b99019a5c800000060065f600360048111156103235761032261060a565b5b60048111156103355761033461060a565b5b81526020019081526020015f20819055506aa56fa5b99019a5c800000060065f6004808111156103685761036761060a565b5b600481111561037a5761037961060a565b5b81526020019081526020015f2081905550505050610637565b5f805f9054906101000a900473ffffffffffffffffffffffffffffffffffffffff169050815f806101000a81548173ffffffffffffffffffffffffffffffffffffffff021916908373ffffffffffffffffffffffffffffffffffffffff1602179055508173ffffffffffffffffffffffffffffffffffffffff168173ffffffffffffffffffffffffffffffffffffffff167f8be0079c531659141344cd1fd0a4f28419497f9722a3daafe3b4186f6b6457e060405160405180910390a35050565b5f80fd5b5f73ffffffffffffffffffffffffffffffffffffffff82169050919050565b5f61048182610458565b9050919050565b61049181610477565b811461049b575f80fd5b50565b5f815190506104ac81610488565b92915050565b5f805f606084860312156104c9576104c8610454565b5b5f6104d68682870161049e565b93505060206104e78682870161049e565b92505060406104f88682870161049e565b9150509250925092565b61050b81610477565b82525050565b5f6020820190506105245f830184610502565b92915050565b5f82825260208201905092915050565b7f496e76616c696420746f6b656e206164647265737300000000000000000000005f82015250565b5f61056e60158361052a565b91506105798261053a565b602082019050919050565b5f6020820190508181035f83015261059b81610562565b9050919050565b7f496e76616c6964207472656173757279206164647265737300000000000000005f82015250565b5f6105d660188361052a565b91506105e1826105a2565b602082019050919050565b5f6020820190508181035f830152610603816105ca565b9050919050565b7f4e487b71000000000000000000000000000000000000000000000000000000005f52602160045260245ffd5b6125a9806106445f395ff3fe608060405234801561000f575f80fd5b506004361061011f575f3560e01c80637f51bb1f116100ab578063c741d92f1161006f578063c741d92f146102ed578063eac449d91461030b578063f2fde38b14610327578063fc0c546a14610343578063fc76977f146103615761011f565b80637f51bb1f146102425780638456cb591461025e5780638da5cb5b14610268578063a9bb5c4c14610286578063bed9757e146102b65761011f565b806345626bd6116100f257806345626bd6146101a95780634f86f440146101e05780635c975abb146101fc57806361d027b31461021a578063715018a6146102385761011f565b806302f622d21461012357806337bdc99b146101535780633f4ba83a1461016f578063406a99af14610179575b5f80fd5b61013d6004803603810190610138919061193f565b610391565b60405161014a9190611982565b60405180910390f35b61016d600480360381019061016891906119c5565b6103a6565b005b6101776106d1565b005b610193600480360381019061018e919061193f565b6106e3565b6040516101a09190611982565b60405180910390f35b6101c360048036038101906101be9190611a4a565b6106f8565b6040516101d7989796959493929190611aa2565b60405180910390f35b6101fa60048036038101906101f59190611b48565b61076f565b005b610204610d6a565b6040516102119190611bf9565b60405180910390f35b610222610d7f565b60405161022f9190611c21565b60405180910390f35b610240610da4565b005b61025c60048036038101906102579190611c3a565b610db7565b005b610266610ef0565b005b610270610f02565b60405161027d9190611c21565b60405180910390f35b6102a0600480360381019061029b9190611c3a565b610f29565b6040516102ad9190611982565b60405180910390f35b6102d060048036038101906102cb9190611a4a565b610f3e565b6040516102e4989796959493929190611aa2565b60405180910390f35b6102f5611065565b6040516103029190611982565b60405180910390f35b61032560048036038101906103209190611a4a565b61106b565b005b610341600480360381019061033c9190611c3a565b6113cb565b005b61034b61144f565b6040516103589190611cc0565b60405180910390f35b61037b60048036038101906103769190611a4a565b611475565b6040516103889190611982565b60405180910390f35b6005602052805f5260405f205f915090505481565b6103ae611571565b5f60035f3373ffffffffffffffffffffffffffffffffffffffff1673ffffffffffffffffffffffffffffffffffffffff1681526020019081526020015f2082815481106103fe576103fd611cd9565b5b905f5260205f20906007020190505f815f015411610451576040517f08c379a000000000000000000000000000000000000000000000000000000000815260040161044890611d60565b60405180910390fd5b8060060160019054906101000a900460ff16156104a3576040517f08c379a000000000000000000000000000000000000000000000000000000000815260040161049a90611dc8565b60405180910390fd5b5f61052982604051806101000160405290815f82015481526020016001820154815260200160028201548152602001600382015481526020016004820154815260200160058201548152602001600682015f9054906101000a900460ff161515151581526020016006820160019054906101000a900460ff1615151515815250506115b7565b90505f82600101548261053c9190611e13565b90505f8111610580576040517f08c379a000000000000000000000000000000000000000000000000000000000815260040161057790611e90565b60405180910390fd5b8083600101546105909190611eae565b8360010181905550600260019054906101000a900473ffffffffffffffffffffffffffffffffffffffff1673ffffffffffffffffffffffffffffffffffffffff1663a9059cbb33836040518363ffffffff1660e01b81526004016105f5929190611ee1565b6020604051808303815f875af1158015610611573d5f803e3d5ffd5b505050506040513d601f19601f820116820180604052508101906106359190611f1c565b610674576040517f08c379a000000000000000000000000000000000000000000000000000000000815260040161066b90611f91565b60405180910390fd5b833373ffffffffffffffffffffffffffffffffffffffff167fc5c52c2a9175470464d5ea4429889e7df2ea88630a3d32f4d0d3d2d448656210836040516106bb9190611982565b60405180910390a35050506106ce61167c565b50565b6106d9611685565b6106e161170c565b565b6006602052805f5260405f205f915090505481565b6003602052815f5260405f208181548110610711575f80fd5b905f5260205f2090600702015f9150915050805f015490806001015490806002015490806003015490806004015490806005015490806006015f9054906101000a900460ff16908060060160019054906101000a900460ff16905088565b610777611685565b5f73ffffffffffffffffffffffffffffffffffffffff168873ffffffffffffffffffffffffffffffffffffffff16036107e5576040517f08c379a00000000000000000000000000000000000000000000000000000000081526004016107dc90611ff9565b60405180910390fd5b5f8611610827576040517f08c379a000000000000000000000000000000000000000000000000000000000815260040161081e90612061565b60405180910390fd5b5f8411610869576040517f08c379a0000000000000000000000000000000000000000000000000000000008152600401610860906120c9565b60405180910390fd5b5f82116108ab576040517f08c379a00000000000000000000000000000000000000000000000000000000081526004016108a290612131565b60405180910390fd5b828410156108ee576040517f08c379a00000000000000000000000000000000000000000000000000000000081526004016108e590612199565b60405180910390fd5b42851015610931576040517f08c379a000000000000000000000000000000000000000000000000000000000815260040161092890612201565b60405180910390fd5b60065f8860048111156109475761094661221f565b5b60048111156109595761095861221f565b5b81526020019081526020015f20548660055f8a600481111561097e5761097d61221f565b5b60048111156109905761098f61221f565b5b81526020019081526020015f20546109a89190611eae565b11156109e9576040517f08c379a00000000000000000000000000000000000000000000000000000000081526004016109e090612296565b60405180910390fd5b600260019054906101000a900473ffffffffffffffffffffffffffffffffffffffff1673ffffffffffffffffffffffffffffffffffffffff166323b872dd3330896040518463ffffffff1660e01b8152600401610a48939291906122b4565b6020604051808303815f875af1158015610a64573d5f803e3d5ffd5b505050506040513d601f19601f82011682018060405250810190610a889190611f1c565b610ac7576040517f08c379a0000000000000000000000000000000000000000000000000000000008152600401610abe90611f91565b60405180910390fd5b60035f8973ffffffffffffffffffffffffffffffffffffffff1673ffffffffffffffffffffffffffffffffffffffff1681526020019081526020015f206040518061010001604052808881526020015f815260200187815260200186815260200185815260200184815260200183151581526020015f1515815250908060018154018082558091505060019003905f5260205f2090600702015f909190919091505f820151815f01556020820151816001015560408201518160020155606082015181600301556080820151816004015560a0820151816005015560c0820151816006015f6101000a81548160ff02191690831515021790555060e08201518160060160016101000a81548160ff021916908315150217905550505060045f8973ffffffffffffffffffffffffffffffffffffffff1673ffffffffffffffffffffffffffffffffffffffff1681526020019081526020015f205f815480929190610c30906122e9565b919050555060075f815480929190610c47906122e9565b91905055508560055f896004811115610c6357610c6261221f565b5b6004811115610c7557610c7461221f565b5b81526020019081526020015f2054610c8d9190611eae565b60055f896004811115610ca357610ca261221f565b5b6004811115610cb557610cb461221f565b5b81526020019081526020015f2081905550600160045f8a73ffffffffffffffffffffffffffffffffffffffff1673ffffffffffffffffffffffffffffffffffffffff1681526020019081526020015f2054610d109190611e13565b8873ffffffffffffffffffffffffffffffffffffffff167f95b841d5d108f82fdbc6acd22e5cc30bf7a7c9ddb0ddfb615d3ee5adc61b09678989604051610d58929190612376565b60405180910390a35050505050505050565b5f60025f9054906101000a900460ff16905090565b60085f9054906101000a900473ffffffffffffffffffffffffffffffffffffffff1681565b610dac611685565b610db55f61176d565b565b610dbf611685565b5f73ffffffffffffffffffffffffffffffffffffffff168173ffffffffffffffffffffffffffffffffffffffff1603610e2d576040517f08c379a0000000000000000000000000000000000000000000000000000000008152600401610e24906123e7565b60405180910390fd5b5f60085f9054906101000a900473ffffffffffffffffffffffffffffffffffffffff1690508160085f6101000a81548173ffffffffffffffffffffffffffffffffffffffff021916908373ffffffffffffffffffffffffffffffffffffffff1602179055508173ffffffffffffffffffffffffffffffffffffffff168173ffffffffffffffffffffffffffffffffffffffff167f4ab5be82436d353e61ca18726e984e561f5c1cc7c6d38b29d2553c790434705a60405160405180910390a35050565b610ef8611685565b610f0061182e565b565b5f805f9054906101000a900473ffffffffffffffffffffffffffffffffffffffff16905090565b6004602052805f5260405f205f915090505481565b5f805f805f805f805f60035f8c73ffffffffffffffffffffffffffffffffffffffff1673ffffffffffffffffffffffffffffffffffffffff1681526020019081526020015f208a81548110610f9657610f95611cd9565b5b905f5260205f209060070201604051806101000160405290815f82015481526020016001820154815260200160028201548152602001600382015481526020016004820154815260200160058201548152602001600682015f9054906101000a900460ff161515151581526020016006820160019054906101000a900460ff1615151515815250509050805f015181602001518260400151836060015184608001518560a001518660c001518760e0015198509850985098509850985098509850509295985092959890939650565b60075481565b611073611685565b5f60035f8473ffffffffffffffffffffffffffffffffffffffff1673ffffffffffffffffffffffffffffffffffffffff1681526020019081526020015f2082815481106110c3576110c2611cd9565b5b905f5260205f20906007020190505f815f015411611116576040517f08c379a000000000000000000000000000000000000000000000000000000000815260040161110d90611d60565b60405180910390fd5b806006015f9054906101000a900460ff16611166576040517f08c379a000000000000000000000000000000000000000000000000000000000815260040161115d9061244f565b60405180910390fd5b8060060160019054906101000a900460ff16156111b8576040517f08c379a00000000000000000000000000000000000000000000000000000000081526004016111af906124b7565b60405180910390fd5b5f61123e82604051806101000160405290815f82015481526020016001820154815260200160028201548152602001600382015481526020016004820154815260200160058201548152602001600682015f9054906101000a900460ff161515151581526020016006820160019054906101000a900460ff1615151515815250506115b7565b90505f81835f01546112509190611e13565b905060018360060160016101000a81548160ff0219169083151502179055505f81111561137557600260019054906101000a900473ffffffffffffffffffffffffffffffffffffffff1673ffffffffffffffffffffffffffffffffffffffff1663a9059cbb60085f9054906101000a900473ffffffffffffffffffffffffffffffffffffffff16836040518363ffffffff1660e01b81526004016112f5929190611ee1565b6020604051808303815f875af1158015611311573d5f803e3d5ffd5b505050506040513d601f19601f820116820180604052508101906113359190611f1c565b611374576040517f08c379a000000000000000000000000000000000000000000000000000000000815260040161136b90611f91565b60405180910390fd5b5b838573ffffffffffffffffffffffffffffffffffffffff167f5369437781e041afe7013c48748bcb5985473926a60448846c64d514908aa8fc836040516113bc9190611982565b60405180910390a35050505050565b6113d3611685565b5f73ffffffffffffffffffffffffffffffffffffffff168173ffffffffffffffffffffffffffffffffffffffff1603611443575f6040517f1e4fbdf700000000000000000000000000000000000000000000000000000000815260040161143a9190611c21565b60405180910390fd5b61144c8161176d565b50565b600260019054906101000a900473ffffffffffffffffffffffffffffffffffffffff1681565b5f8060035f8573ffffffffffffffffffffffffffffffffffffffff1673ffffffffffffffffffffffffffffffffffffffff1681526020019081526020015f2083815481106114c6576114c5611cd9565b5b905f5260205f209060070201604051806101000160405290815f82015481526020016001820154815260200160028201548152602001600382015481526020016004820154815260200160058201548152602001600682015f9054906101000a900460ff161515151581526020016006820160019054906101000a900460ff1615151515815250509050806020015161155e826115b7565b6115689190611e13565b91505092915050565b6002600154036115ad576040517f3ee5aeb500000000000000000000000000000000000000000000000000000000815260040160405180910390fd5b6002600181905550565b5f81604001514210156115cc575f9050611677565b816080015182604001516115e09190611eae565b4210156115ef575f9050611677565b816060015182604001516116039190611eae565b421061161457815f01519050611677565b5f8260400151426116259190611e13565b90505f8360a0015190505f818361163c9190612502565b90505f828261164b9190612532565b90505f866060015182885f01516116629190612532565b61166c9190612502565b905080955050505050505b919050565b60018081905550565b61168d611890565b73ffffffffffffffffffffffffffffffffffffffff166116ab610f02565b73ffffffffffffffffffffffffffffffffffffffff161461170a576116ce611890565b6040517f118cdaa70000000000000000000000000000000000000000000000000000000081526004016117019190611c21565b60405180910390fd5b565b611714611897565b5f60025f6101000a81548160ff0219169083151502179055507f5db9ee0a495bf2e6ff9c91a7834c1ba4fdd244a5e8aa4e537bd38aeae4b073aa611756611890565b6040516117639190611c21565b60405180910390a1565b5f805f9054906101000a900473ffffffffffffffffffffffffffffffffffffffff169050815f806101000a81548173ffffffffffffffffffffffffffffffffffffffff021916908373ffffffffffffffffffffffffffffffffffffffff1602179055508173ffffffffffffffffffffffffffffffffffffffff168173ffffffffffffffffffffffffffffffffffffffff167f8be0079c531659141344cd1fd0a4f28419497f9722a3daafe3b4186f6b6457e060405160405180910390a35050565b6118366118d7565b600160025f6101000a81548160ff0219169083151502179055507f62e78cea01bee320cd4e420270b5ea74000d11b0c9f74754ebdbfc544b05a258611879611890565b6040516118869190611c21565b60405180910390a1565b5f33905090565b61189f610d6a565b6118d5576040517f8dfc202b00000000000000000000000000000000000000000000000000000000815260040160405180910390fd5b565b6118df610d6a565b15611916576040517fd93c066500000000000000000000000000000000000000000000000000000000815260040160405180910390fd5b565b5f80fd5b60058110611928575f80fd5b50565b5f813590506119398161191c565b92915050565b5f6020828403121561195457611953611918565b5b5f6119618482850161192b565b91505092915050565b5f819050919050565b61197c8161196a565b82525050565b5f6020820190506119955f830184611973565b92915050565b6119a48161196a565b81146119ae575f80fd5b50565b5f813590506119bf8161199b565b92915050565b5f602082840312156119da576119d9611918565b5b5f6119e7848285016119b1565b91505092915050565b5f73ffffffffffffffffffffffffffffffffffffffff82169050919050565b5f611a19826119f0565b9050919050565b611a2981611a0f565b8114611a33575f80fd5b50565b5f81359050611a4481611a20565b92915050565b5f8060408385031215611a6057611a5f611918565b5b5f611a6d85828601611a36565b9250506020611a7e858286016119b1565b9150509250929050565b5f8115159050919050565b611a9c81611a88565b82525050565b5f61010082019050611ab65f83018b611973565b611ac3602083018a611973565b611ad06040830189611973565b611add6060830188611973565b611aea6080830187611973565b611af760a0830186611973565b611b0460c0830185611a93565b611b1160e0830184611a93565b9998505050505050505050565b611b2781611a88565b8114611b31575f80fd5b50565b5f81359050611b4281611b1e565b92915050565b5f805f805f805f80610100898b031215611b6557611b64611918565b5b5f611b728b828c01611a36565b9850506020611b838b828c0161192b565b9750506040611b948b828c016119b1565b9650506060611ba58b828c016119b1565b9550506080611bb68b828c016119b1565b94505060a0611bc78b828c016119b1565b93505060c0611bd88b828c016119b1565b92505060e0611be98b828c01611b34565b9150509295985092959890939650565b5f602082019050611c0c5f830184611a93565b92915050565b611c1b81611a0f565b82525050565b5f602082019050611c345f830184611c12565b92915050565b5f60208284031215611c4f57611c4e611918565b5b5f611c5c84828501611a36565b91505092915050565b5f819050919050565b5f611c88611c83611c7e846119f0565b611c65565b6119f0565b9050919050565b5f611c9982611c6e565b9050919050565b5f611caa82611c8f565b9050919050565b611cba81611ca0565b82525050565b5f602082019050611cd35f830184611cb1565b92915050565b7f4e487b71000000000000000000000000000000000000000000000000000000005f52603260045260245ffd5b5f82825260208201905092915050565b7f4e6f2073756368207363686564756c65000000000000000000000000000000005f82015250565b5f611d4a601083611d06565b9150611d5582611d16565b602082019050919050565b5f6020820190508181035f830152611d7781611d3e565b9050919050565b7f5363686564756c65207265766f6b6564000000000000000000000000000000005f82015250565b5f611db2601083611d06565b9150611dbd82611d7e565b602082019050919050565b5f6020820190508181035f830152611ddf81611da6565b9050919050565b7f4e487b71000000000000000000000000000000000000000000000000000000005f52601160045260245ffd5b5f611e1d8261196a565b9150611e288361196a565b9250828203905081811115611e4057611e3f611de6565b5b92915050565b7f4e6f20746f6b656e7320746f2072656c656173650000000000000000000000005f82015250565b5f611e7a601483611d06565b9150611e8582611e46565b602082019050919050565b5f6020820190508181035f830152611ea781611e6e565b9050919050565b5f611eb88261196a565b9150611ec38361196a565b9250828201905080821115611edb57611eda611de6565b5b92915050565b5f604082019050611ef45f830185611c12565b611f016020830184611973565b9392505050565b5f81519050611f1681611b1e565b92915050565b5f60208284031215611f3157611f30611918565b5b5f611f3e84828501611f08565b91505092915050565b7f5472616e73666572206661696c656400000000000000000000000000000000005f82015250565b5f611f7b600f83611d06565b9150611f8682611f47565b602082019050919050565b5f6020820190508181035f830152611fa881611f6f565b9050919050565b7f496e76616c69642062656e6566696369617279000000000000000000000000005f82015250565b5f611fe3601383611d06565b9150611fee82611faf565b602082019050919050565b5f6020820190508181035f83015261201081611fd7565b9050919050565b7f416d6f756e74206d757374206265203e203000000000000000000000000000005f82015250565b5f61204b601283611d06565b915061205682612017565b602082019050919050565b5f6020820190508181035f8301526120788161203f565b9050919050565b7f4475726174696f6e206d757374206265203e20300000000000000000000000005f82015250565b5f6120b3601483611d06565b91506120be8261207f565b602082019050919050565b5f6020820190508181035f8301526120e0816120a7565b9050919050565b7f536c69636520706572696f64206d757374206265203e203000000000000000005f82015250565b5f61211b601883611d06565b9150612126826120e7565b602082019050919050565b5f6020820190508181035f8301526121488161210f565b9050919050565b7f496e76616c696420636c696666000000000000000000000000000000000000005f82015250565b5f612183600d83611d06565b915061218e8261214f565b602082019050919050565b5f6020820190508181035f8301526121b081612177565b9050919050565b7f53746172742074696d65203c206e6f77000000000000000000000000000000005f82015250565b5f6121eb601083611d06565b91506121f6826121b7565b602082019050919050565b5f6020820190508181035f830152612218816121df565b9050919050565b7f4e487b71000000000000000000000000000000000000000000000000000000005f52602160045260245ffd5b7f45786365656473206d61782076657374696e67000000000000000000000000005f82015250565b5f612280601383611d06565b915061228b8261224c565b602082019050919050565b5f6020820190508181035f8301526122ad81612274565b9050919050565b5f6060820190506122c75f830186611c12565b6122d46020830185611c12565b6122e16040830184611973565b949350505050565b5f6122f38261196a565b91507fffffffffffffffffffffffffffffffffffffffffffffffffffffffffffffffff820361232557612324611de6565b5b600182019050919050565b600581106123415761234061221f565b5b50565b5f81905061235182612330565b919050565b5f61236082612344565b9050919050565b61237081612356565b82525050565b5f6040820190506123895f830185612367565b6123966020830184611973565b9392505050565b7f496e76616c6964206164647265737300000000000000000000000000000000005f82015250565b5f6123d1600f83611d06565b91506123dc8261239d565b602082019050919050565b5f6020820190508181035f8301526123fe816123c5565b9050919050565b7f4e6f74207265766f6361626c65000000000000000000000000000000000000005f82015250565b5f612439600d83611d06565b915061244482612405565b602082019050919050565b5f6020820190508181035f8301526124668161242d565b9050919050565b7f416c7265616479207265766f6b656400000000000000000000000000000000005f82015250565b5f6124a1600f83611d06565b91506124ac8261246d565b602082019050919050565b5f6020820190508181035f8301526124ce81612495565b9050919050565b7f4e487b71000000000000000000000000000000000000000000000000000000005f52601260045260245ffd5b5f61250c8261196a565b91506125178361196a565b925082612527576125266124d5565b5b828204905092915050565b5f61253c8261196a565b91506125478361196a565b92508282026125558161196a565b9150828204841483151761256c5761256b611de6565b5b509291505056fea2646970667358221220a1bc69375d4019d8e9697e4eb7089a62746138c0abf55022d0c54d3997eda08264736f6c634300081a0033",
					"opcodes": "PUSH1 0x80 PUSH1 0x40 MSTORE CALLVALUE DUP1 ISZERO PUSH2 0xF JUMPI PUSH0 DUP1 REVERT JUMPDEST POP PUSH1 0x40 MLOAD PUSH2 0x2BED CODESIZE SUB DUP1 PUSH2 0x2BED DUP4 CODECOPY DUP2 DUP2 ADD PUSH1 0x40 MSTORE DUP2 ADD SWAP1 PUSH2 0x31 SWAP2 SWAP1 PUSH2 0x4B2 JUMP JUMPDEST DUP3 PUSH0 PUSH20 0xFFFFFFFFFFFFFFFFFFFFFFFFFFFFFFFFFFFFFFFF AND DUP2 PUSH20 0xFFFFFFFFFFFFFFFFFFFFFFFFFFFFFFFFFFFFFFFF AND SUB PUSH2 0xA2 JUMPI PUSH0 PUSH1 0x40 MLOAD PUSH32 0x1E4FBDF700000000000000000000000000000000000000000000000000000000 DUP2 MSTORE PUSH1 0x4 ADD PUSH2 0x99 SWAP2 SWAP1 PUSH2 0x511 JUMP JUMPDEST PUSH1 0x40 MLOAD DUP1 SWAP2 SUB SWAP1 REVERT JUMPDEST PUSH2 0xB1 DUP2 PUSH2 0x393 PUSH1 0x20 SHL PUSH1 0x20 SHR JUMP JUMPDEST POP PUSH1 0x1 DUP1 DUP2 SWAP1 SSTORE POP PUSH0 PUSH1 0x2 PUSH0 PUSH2 0x100 EXP DUP2 SLOAD DUP2 PUSH1 0xFF MUL NOT AND SWAP1 DUP4 ISZERO ISZERO MUL OR SWAP1 SSTORE POP PUSH0 PUSH20 0xFFFFFFFFFFFFFFFFFFFFFFFFFFFFFFFFFFFFFFFF AND DUP3 PUSH20 0xFFFFFFFFFFFFFFFFFFFFFFFFFFFFFFFFFFFFFFFF AND SUB PUSH2 0x140 JUMPI PUSH1 0x40 MLOAD PUSH32 0x8C379A000000000000000000000000000000000000000000000000000000000 DUP2 MSTORE PUSH1 0x4 ADD PUSH2 0x137 SWAP1 PUSH2 0x584 JUMP JUMPDEST PUSH1 0x40 MLOAD DUP1 SWAP2 SUB SWAP1 REVERT JUMPDEST PUSH0 PUSH20 0xFFFFFFFFFFFFFFFFFFFFFFFFFFFFFFFFFFFFFFFF AND DUP2 PUSH20 0xFFFFFFFFFFFFFFFFFFFFFFFFFFFFFFFFFFFFFFFF AND SUB PUSH2 0x1AE JUMPI PUSH1 0x40 MLOAD PUSH32 0x8C379A000000000000000000000000000000000000000000000000000000000 DUP2 MSTORE PUSH1 0x4 ADD PUSH2 0x1A5 SWAP1 PUSH2 0x5EC JUMP JUMPDEST PUSH1 0x40 MLOAD DUP1 SWAP2 SUB SWAP1 REVERT JUMPDEST DUP2 PUSH1 0x2 PUSH1 0x1 PUSH2 0x100 EXP DUP2 SLOAD DUP2 PUSH20 0xFFFFFFFFFFFFFFFFFFFFFFFFFFFFFFFFFFFFFFFF MUL NOT AND SWAP1 DUP4 PUSH20 0xFFFFFFFFFFFFFFFFFFFFFFFFFFFFFFFFFFFFFFFF AND MUL OR SWAP1 SSTORE POP DUP1 PUSH1 0x8 PUSH0 PUSH2 0x100 EXP DUP2 SLOAD DUP2 PUSH20 0xFFFFFFFFFFFFFFFFFFFFFFFFFFFFFFFFFFFFFFFF MUL NOT AND SWAP1 DUP4 PUSH20 0xFFFFFFFFFFFFFFFFFFFFFFFFFFFFFFFFFFFFFFFF AND MUL OR SWAP1 SSTORE POP PUSH11 0x7C13BC4B2C133C56000000 PUSH1 0x6 PUSH0 DUP1 PUSH1 0x4 DUP2 GT ISZERO PUSH2 0x251 JUMPI PUSH2 0x250 PUSH2 0x60A JUMP JUMPDEST JUMPDEST PUSH1 0x4 DUP2 GT ISZERO PUSH2 0x263 JUMPI PUSH2 0x262 PUSH2 0x60A JUMP JUMPDEST JUMPDEST DUP2 MSTORE PUSH1 0x20 ADD SWAP1 DUP2 MSTORE PUSH1 0x20 ADD PUSH0 KECCAK256 DUP2 SWAP1 SSTORE POP PUSH11 0xCECB8F27F4200F3A000000 PUSH1 0x6 PUSH0 PUSH1 0x1 PUSH1 0x4 DUP2 GT ISZERO PUSH2 0x297 JUMPI PUSH2 0x296 PUSH2 0x60A JUMP JUMPDEST JUMPDEST PUSH1 0x4 DUP2 GT ISZERO PUSH2 0x2A9 JUMPI PUSH2 0x2A8 PUSH2 0x60A JUMP JUMPDEST JUMPDEST DUP2 MSTORE PUSH1 0x20 ADD SWAP1 DUP2 MSTORE PUSH1 0x20 ADD PUSH0 KECCAK256 DUP2 SWAP1 SSTORE POP PUSH11 0x295BE96E64066972000000 PUSH1 0x6 PUSH0 PUSH1 0x2 PUSH1 0x4 DUP2 GT ISZERO PUSH2 0x2DD JUMPI PUSH2 0x2DC PUSH2 0x60A JUMP JUMPDEST JUMPDEST PUSH1 0x4 DUP2 GT ISZERO PUSH2 0x2EF JUMPI PUSH2 0x2EE PUSH2 0x60A JUMP JUMPDEST JUMPDEST DUP2 MSTORE PUSH1 0x20 ADD SWAP1 DUP2 MSTORE PUSH1 0x20 ADD PUSH0 KECCAK256 DUP2 SWAP1 SSTORE POP PUSH11 0xA56FA5B99019A5C8000000 PUSH1 0x6 PUSH0 PUSH1 0x3 PUSH1 0x4 DUP2 GT ISZERO PUSH2 0x323 JUMPI PUSH2 0x322 PUSH2 0x60A JUMP JUMPDEST JUMPDEST PUSH1 0x4 DUP2 GT ISZERO PUSH2 0x335 JUMPI PUSH2 0x334 PUSH2 0x60A JUMP JUMPDEST JUMPDEST DUP2 MSTORE PUSH1 0x20 ADD SWAP1 DUP2 MSTORE PUSH1 0x20 ADD PUSH0 KECCAK256 DUP2 SWAP1 SSTORE POP PUSH11 0xA56FA5B99019A5C8000000 PUSH1 0x6 PUSH0 PUSH1 0x4 DUP1 DUP2 GT ISZERO PUSH2 0x368 JUMPI PUSH2 0x367 PUSH2 0x60A JUMP JUMPDEST JUMPDEST PUSH1 0x4 DUP2 GT ISZERO PUSH2 0x37A JUMPI PUSH2 0x379 PUSH2 0x60A JUMP JUMPDEST JUMPDEST DUP2 MSTORE PUSH1 0x20 ADD SWAP1 DUP2 MSTORE PUSH1 0x20 ADD PUSH0 KECCAK256 DUP2 SWAP1 SSTORE POP POP POP POP PUSH2 0x637 JUMP JUMPDEST PUSH0 DUP1 PUSH0 SWAP1 SLOAD SWAP1 PUSH2 0x100 EXP SWAP1 DIV PUSH20 0xFFFFFFFFFFFFFFFFFFFFFFFFFFFFFFFFFFFFFFFF AND SWAP1 POP DUP2 PUSH0 DUP1 PUSH2 0x100 EXP DUP2 SLOAD DUP2 PUSH20 0xFFFFFFFFFFFFFFFFFFFFFFFFFFFFFFFFFFFFFFFF MUL NOT AND SWAP1 DUP4 PUSH20 0xFFFFFFFFFFFFFFFFFFFFFFFFFFFFFFFFFFFFFFFF AND MUL OR SWAP1 SSTORE POP DUP2 PUSH20 0xFFFFFFFFFFFFFFFFFFFFFFFFFFFFFFFFFFFFFFFF AND DUP2 PUSH20 0xFFFFFFFFFFFFFFFFFFFFFFFFFFFFFFFFFFFFFFFF AND PUSH32 0x8BE0079C531659141344CD1FD0A4F28419497F9722A3DAAFE3B4186F6B6457E0 PUSH1 0x40 MLOAD PUSH1 0x40 MLOAD DUP1 SWAP2 SUB SWAP1 LOG3 POP POP JUMP JUMPDEST PUSH0 DUP1 REVERT JUMPDEST PUSH0 PUSH20 0xFFFFFFFFFFFFFFFFFFFFFFFFFFFFFFFFFFFFFFFF DUP3 AND SWAP1 POP SWAP2 SWAP1 POP JUMP JUMPDEST PUSH0 PUSH2 0x481 DUP3 PUSH2 0x458 JUMP JUMPDEST SWAP1 POP SWAP2 SWAP1 POP JUMP JUMPDEST PUSH2 0x491 DUP2 PUSH2 0x477 JUMP JUMPDEST DUP2 EQ PUSH2 0x49B JUMPI PUSH0 DUP1 REVERT JUMPDEST POP JUMP JUMPDEST PUSH0 DUP2 MLOAD SWAP1 POP PUSH2 0x4AC DUP2 PUSH2 0x488 JUMP JUMPDEST SWAP3 SWAP2 POP POP JUMP JUMPDEST PUSH0 DUP1 PUSH0 PUSH1 0x60 DUP5 DUP7 SUB SLT ISZERO PUSH2 0x4C9 JUMPI PUSH2 0x4C8 PUSH2 0x454 JUMP JUMPDEST JUMPDEST PUSH0 PUSH2 0x4D6 DUP7 DUP3 DUP8 ADD PUSH2 0x49E JUMP JUMPDEST SWAP4 POP POP PUSH1 0x20 PUSH2 0x4E7 DUP7 DUP3 DUP8 ADD PUSH2 0x49E JUMP JUMPDEST SWAP3 POP POP PUSH1 0x40 PUSH2 0x4F8 DUP7 DUP3 DUP8 ADD PUSH2 0x49E JUMP JUMPDEST SWAP2 POP POP SWAP3 POP SWAP3 POP SWAP3 JUMP JUMPDEST PUSH2 0x50B DUP2 PUSH2 0x477 JUMP JUMPDEST DUP3 MSTORE POP POP JUMP JUMPDEST PUSH0 PUSH1 0x20 DUP3 ADD SWAP1 POP PUSH2 0x524 PUSH0 DUP4 ADD DUP5 PUSH2 0x502 JUMP JUMPDEST SWAP3 SWAP2 POP POP JUMP JUMPDEST PUSH0 DUP3 DUP3 MSTORE PUSH1 0x20 DUP3 ADD SWAP1 POP SWAP3 SWAP2 POP POP JUMP JUMPDEST PUSH32 0x496E76616C696420746F6B656E20616464726573730000000000000000000000 PUSH0 DUP3 ADD MSTORE POP JUMP JUMPDEST PUSH0 PUSH2 0x56E PUSH1 0x15 DUP4 PUSH2 0x52A JUMP JUMPDEST SWAP2 POP PUSH2 0x579 DUP3 PUSH2 0x53A JUMP JUMPDEST PUSH1 0x20 DUP3 ADD SWAP1 POP SWAP2 SWAP1 POP JUMP JUMPDEST PUSH0 PUSH1 0x20 DUP3 ADD SWAP1 POP DUP2 DUP2 SUB PUSH0 DUP4 ADD MSTORE PUSH2 0x59B DUP2 PUSH2 0x562 JUMP JUMPDEST SWAP1 POP SWAP2 SWAP1 POP JUMP JUMPDEST PUSH32 0x496E76616C696420747265617375727920616464726573730000000000000000 PUSH0 DUP3 ADD MSTORE POP JUMP JUMPDEST PUSH0 PUSH2 0x5D6 PUSH1 0x18 DUP4 PUSH2 0x52A JUMP JUMPDEST SWAP2 POP PUSH2 0x5E1 DUP3 PUSH2 0x5A2 JUMP JUMPDEST PUSH1 0x20 DUP3 ADD SWAP1 POP SWAP2 SWAP1 POP JUMP JUMPDEST PUSH0 PUSH1 0x20 DUP3 ADD SWAP1 POP DUP2 DUP2 SUB PUSH0 DUP4 ADD MSTORE PUSH2 0x603 DUP2 PUSH2 0x5CA JUMP JUMPDEST SWAP1 POP SWAP2 SWAP1 POP JUMP JUMPDEST PUSH32 0x4E487B7100000000000000000000000000000000000000000000000000000000 PUSH0 MSTORE PUSH1 0x21 PUSH1 0x4 MSTORE PUSH1 0x24 PUSH0 REVERT JUMPDEST PUSH2 0x25A9 DUP1 PUSH2 0x644 PUSH0 CODECOPY PUSH0 RETURN INVALID PUSH1 0x80 PUSH1 0x40 MSTORE CALLVALUE DUP1 ISZERO PUSH2 0xF JUMPI PUSH0 DUP1 REVERT JUMPDEST POP PUSH1 0x4 CALLDATASIZE LT PUSH2 0x11F JUMPI PUSH0 CALLDATALOAD PUSH1 0xE0 SHR DUP1 PUSH4 0x7F51BB1F GT PUSH2 0xAB JUMPI DUP1 PUSH4 0xC741D92F GT PUSH2 0x6F JUMPI DUP1 PUSH4 0xC741D92F EQ PUSH2 0x2ED JUMPI DUP1 PUSH4 0xEAC449D9 EQ PUSH2 0x30B JUMPI DUP1 PUSH4 0xF2FDE38B EQ PUSH2 0x327 JUMPI DUP1 PUSH4 0xFC0C546A EQ PUSH2 0x343 JUMPI DUP1 PUSH4 0xFC76977F EQ PUSH2 0x361 JUMPI PUSH2 0x11F JUMP JUMPDEST DUP1 PUSH4 0x7F51BB1F EQ PUSH2 0x242 JUMPI DUP1 PUSH4 0x8456CB59 EQ PUSH2 0x25E JUMPI DUP1 PUSH4 0x8DA5CB5B EQ PUSH2 0x268 JUMPI DUP1 PUSH4 0xA9BB5C4C EQ PUSH2 0x286 JUMPI DUP1 PUSH4 0xBED9757E EQ PUSH2 0x2B6 JUMPI PUSH2 0x11F JUMP JUMPDEST DUP1 PUSH4 0x45626BD6 GT PUSH2 0xF2 JUMPI DUP1 PUSH4 0x45626BD6 EQ PUSH2 0x1A9 JUMPI DUP1 PUSH4 0x4F86F440 EQ PUSH2 0x1E0 JUMPI DUP1 PUSH4 0x5C975ABB EQ PUSH2 0x1FC JUMPI DUP1 PUSH4 0x61D027B3 EQ PUSH2 0x21A JUMPI DUP1 PUSH4 0x715018A6 EQ PUSH2 0x238 JUMPI PUSH2 0x11F JUMP JUMPDEST DUP1 PUSH4 0x2F622D2 EQ PUSH2 0x123 JUMPI DUP1 PUSH4 0x37BDC99B EQ PUSH2 0x153 JUMPI DUP1 PUSH4 0x3F4BA83A EQ PUSH2 0x16F JUMPI DUP1 PUSH4 0x406A99AF EQ PUSH2 0x179 JUMPI JUMPDEST PUSH0 DUP1 REVERT JUMPDEST PUSH2 0x13D PUSH1 0x4 DUP1 CALLDATASIZE SUB DUP2 ADD SWAP1 PUSH2 0x138 SWAP2 SWAP1 PUSH2 0x193F JUMP JUMPDEST PUSH2 0x391 JUMP JUMPDEST PUSH1 0x40 MLOAD PUSH2 0x14A SWAP2 SWAP1 PUSH2 0x1982 JUMP JUMPDEST PUSH1 0x40 MLOAD DUP1 SWAP2 SUB SWAP1 RETURN JUMPDEST PUSH2 0x16D PUSH1 0x4 DUP1 CALLDATASIZE SUB DUP2 ADD SWAP1 PUSH2 0x168 SWAP2 SWAP1 PUSH2 0x19C5 JUMP JUMPDEST PUSH2 0x3A6 JUMP JUMPDEST STOP JUMPDEST PUSH2 0x177 PUSH2 0x6D1 JUMP JUMPDEST STOP JUMPDEST PUSH2 0x193 PUSH1 0x4 DUP1 CALLDATASIZE SUB DUP2 ADD SWAP1 PUSH2 0x18E SWAP2 SWAP1 PUSH2 0x193F JUMP JUMPDEST PUSH2 0x6E3 JUMP JUMPDEST PUSH1 0x40 MLOAD PUSH2 0x1A0 SWAP2 SWAP1 PUSH2 0x1982 JUMP JUMPDEST PUSH1 0x40 MLOAD DUP1 SWAP2 SUB SWAP1 RETURN JUMPDEST PUSH2 0x1C3 PUSH1 0x4 DUP1 CALLDATASIZE SUB DUP2 ADD SWAP1 PUSH2 0x1BE SWAP2 SWAP1 PUSH2 0x1A4A JUMP JUMPDEST PUSH2 0x6F8 JUMP JUMPDEST PUSH1 0x40 MLOAD PUSH2 0x1D7 SWAP9 SWAP8 SWAP7 SWAP6 SWAP5 SWAP4 SWAP3 SWAP2 SWAP1 PUSH2 0x1AA2 JUMP JUMPDEST PUSH1 0x40 MLOAD DUP1 SWAP2 SUB SWAP1 RETURN JUMPDEST PUSH2 0x1FA PUSH1 0x4 DUP1 CALLDATASIZE SUB DUP2 ADD SWAP1 PUSH2 0x1F5 SWAP2 SWAP1 PUSH2 0x1B48 JUMP JUMPDEST PUSH2 0x76F JUMP JUMPDEST STOP JUMPDEST PUSH2 0x204 PUSH2 0xD6A JUMP JUMPDEST PUSH1 0x40 MLOAD PUSH2 0x211 SWAP2 SWAP1 PUSH2 0x1BF9 JUMP JUMPDEST PUSH1 0x40 MLOAD DUP1 SWAP2 SUB SWAP1 RETURN JUMPDEST PUSH2 0x222 PUSH2 0xD7F JUMP JUMPDEST PUSH1 0x40 MLOAD PUSH2 0x22F SWAP2 SWAP1 PUSH2 0x1C21 JUMP JUMPDEST PUSH1 0x40 MLOAD DUP1 SWAP2 SUB SWAP1 RETURN JUMPDEST PUSH2 0x240 PUSH2 0xDA4 JUMP JUMPDEST STOP JUMPDEST PUSH2 0x25C PUSH1 0x4 DUP1 CALLDATASIZE SUB DUP2 ADD SWAP1 PUSH2 0x257 SWAP2 SWAP1 PUSH2 0x1C3A JUMP JUMPDEST PUSH2 0xDB7 JUMP JUMPDEST STOP JUMPDEST PUSH2 0x266 PUSH2 0xEF0 JUMP JUMPDEST STOP JUMPDEST PUSH2 0x270 PUSH2 0xF02 JUMP JUMPDEST PUSH1 0x40 MLOAD PUSH2 0x27D SWAP2 SWAP1 PUSH2 0x1C21 JUMP JUMPDEST PUSH1 0x40 MLOAD DUP1 SWAP2 SUB SWAP1 RETURN JUMPDEST PUSH2 0x2A0 PUSH1 0x4 DUP1 CALLDATASIZE SUB DUP2 ADD SWAP1 PUSH2 0x29B SWAP2 SWAP1 PUSH2 0x1C3A JUMP JUMPDEST PUSH2 0xF29 JUMP JUMPDEST PUSH1 0x40 MLOAD PUSH2 0x2AD SWAP2 SWAP1 PUSH2 0x1982 JUMP JUMPDEST PUSH1 0x40 MLOAD DUP1 SWAP2 SUB SWAP1 RETURN JUMPDEST PUSH2 0x2D0 PUSH1 0x4 DUP1 CALLDATASIZE SUB DUP2 ADD SWAP1 PUSH2 0x2CB SWAP2 SWAP1 PUSH2 0x1A4A JUMP JUMPDEST PUSH2 0xF3E JUMP JUMPDEST PUSH1 0x40 MLOAD PUSH2 0x2E4 SWAP9 SWAP8 SWAP7 SWAP6 SWAP5 SWAP4 SWAP3 SWAP2 SWAP1 PUSH2 0x1AA2 JUMP JUMPDEST PUSH1 0x40 MLOAD DUP1 SWAP2 SUB SWAP1 RETURN JUMPDEST PUSH2 0x2F5 PUSH2 0x1065 JUMP JUMPDEST PUSH1 0x40 MLOAD PUSH2 0x302 SWAP2 SWAP1 PUSH2 0x1982 JUMP JUMPDEST PUSH1 0x40 MLOAD DUP1 SWAP2 SUB SWAP1 RETURN JUMPDEST PUSH2 0x325 PUSH1 0x4 DUP1 CALLDATASIZE SUB DUP2 ADD SWAP1 PUSH2 0x320 SWAP2 SWAP1 PUSH2 0x1A4A JUMP JUMPDEST PUSH2 0x106B JUMP JUMPDEST STOP JUMPDEST PUSH2 0x341 PUSH1 0x4 DUP1 CALLDATASIZE SUB DUP2 ADD SWAP1 PUSH2 0x33C SWAP2 SWAP1 PUSH2 0x1C3A JUMP JUMPDEST PUSH2 0x13CB JUMP JUMPDEST STOP JUMPDEST PUSH2 0x34B PUSH2 0x144F JUMP JUMPDEST PUSH1 0x40 MLOAD PUSH2 0x358 SWAP2 SWAP1 PUSH2 0x1CC0 JUMP JUMPDEST PUSH1 0x40 MLOAD DUP1 SWAP2 SUB SWAP1 RETURN JUMPDEST PUSH2 0x37B PUSH1 0x4 DUP1 CALLDATASIZE SUB DUP2 ADD SWAP1 PUSH2 0x376 SWAP2 SWAP1 PUSH2 0x1A4A JUMP JUMPDEST PUSH2 0x1475 JUMP JUMPDEST PUSH1 0x40 MLOAD PUSH2 0x388 SWAP2 SWAP1 PUSH2 0x1982 JUMP JUMPDEST PUSH1 0x40 MLOAD DUP1 SWAP2 SUB SWAP1 RETURN JUMPDEST PUSH1 0x5 PUSH1 0x20 MSTORE DUP1 PUSH0 MSTORE PUSH1 0x40 PUSH0 KECCAK256 PUSH0 SWAP2 POP SWAP1 POP SLOAD DUP2 JUMP JUMPDEST PUSH2 0x3AE PUSH2 0x1571 JUMP JUMPDEST PUSH0 PUSH1 0x3 PUSH0 CALLER PUSH20 0xFFFFFFFFFFFFFFFFFFFFFFFFFFFFFFFFFFFFFFFF AND PUSH20 0xFFFFFFFFFFFFFFFFFFFFFFFFFFFFFFFFFFFFFFFF AND DUP2 MSTORE PUSH1 0x20 ADD SWAP1 DUP2 MSTORE PUSH1 0x20 ADD PUSH0 KECCAK256 DUP3 DUP2 SLOAD DUP2 LT PUSH2 0x3FE JUMPI PUSH2 0x3FD PUSH2 0x1CD9 JUMP JUMPDEST JUMPDEST SWAP1 PUSH0 MSTORE PUSH1 0x20 PUSH0 KECCAK256 SWAP1 PUSH1 0x7 MUL ADD SWAP1 POP PUSH0 DUP2 PUSH0 ADD SLOAD GT PUSH2 0x451 JUMPI PUSH1 0x40 MLOAD PUSH32 0x8C379A000000000000000000000000000000000000000000000000000000000 DUP2 MSTORE PUSH1 0x4 ADD PUSH2 0x448 SWAP1 PUSH2 0x1D60 JUMP JUMPDEST PUSH1 0x40 MLOAD DUP1 SWAP2 SUB SWAP1 REVERT JUMPDEST DUP1 PUSH1 0x6 ADD PUSH1 0x1 SWAP1 SLOAD SWAP1 PUSH2 0x100 EXP SWAP1 DIV PUSH1 0xFF AND ISZERO PUSH2 0x4A3 JUMPI PUSH1 0x40 MLOAD PUSH32 0x8C379A000000000000000000000000000000000000000000000000000000000 DUP2 MSTORE PUSH1 0x4 ADD PUSH2 0x49A SWAP1 PUSH2 0x1DC8 JUMP JUMPDEST PUSH1 0x40 MLOAD DUP1 SWAP2 SUB SWAP1 REVERT JUMPDEST PUSH0 PUSH2 0x529 DUP3 PUSH1 0x40 MLOAD DUP1 PUSH2 0x100 ADD PUSH1 0x40 MSTORE SWAP1 DUP2 PUSH0 DUP3 ADD SLOAD DUP2 MSTORE PUSH1 0x20 ADD PUSH1 0x1 DUP3 ADD SLOAD DUP2 MSTORE PUSH1 0x20 ADD PUSH1 0x2 DUP3 ADD SLOAD DUP2 MSTORE PUSH1 0x20 ADD PUSH1 0x3 DUP3 ADD SLOAD DUP2 MSTORE PUSH1 0x20 ADD PUSH1 0x4 DUP3 ADD SLOAD DUP2 MSTORE PUSH1 0x20 ADD PUSH1 0x5 DUP3 ADD SLOAD DUP2 MSTORE PUSH1 0x20 ADD PUSH1 0x6 DUP3 ADD PUSH0 SWAP1 SLOAD SWAP1 PUSH2 0x100 EXP SWAP1 DIV PUSH1 0xFF AND ISZERO ISZERO ISZERO ISZERO DUP2 MSTORE PUSH1 0x20 ADD PUSH1 0x6 DUP3 ADD PUSH1 0x1 SWAP1 SLOAD SWAP1 PUSH2 0x100 EXP SWAP1 DIV PUSH1 0xFF AND ISZERO ISZERO ISZERO ISZERO DUP2 MSTORE POP POP PUSH2 0x15B7 JUMP JUMPDEST SWAP1 POP PUSH0 DUP3 PUSH1 0x1 ADD SLOAD DUP3 PUSH2 0x53C SWAP2 SWAP1 PUSH2 0x1E13 JUMP JUMPDEST SWAP1 POP PUSH0 DUP2 GT PUSH2 0x580 JUMPI PUSH1 0x40 MLOAD PUSH32 0x8C379A000000000000000000000000000000000000000000000000000000000 DUP2 MSTORE PUSH1 0x4 ADD PUSH2 0x577 SWAP1 PUSH2 0x1E90 JUMP JUMPDEST PUSH1 0x40 MLOAD DUP1 SWAP2 SUB SWAP1 REVERT JUMPDEST DUP1 DUP4 PUSH1 0x1 ADD SLOAD PUSH2 0x590 SWAP2 SWAP1 PUSH2 0x1EAE JUMP JUMPDEST DUP4 PUSH1 0x1 ADD DUP2 SWAP1 SSTORE POP PUSH1 0x2 PUSH1 0x1 SWAP1 SLOAD SWAP1 PUSH2 0x100 EXP SWAP1 DIV PUSH20 0xFFFFFFFFFFFFFFFFFFFFFFFFFFFFFFFFFFFFFFFF AND PUSH20 0xFFFFFFFFFFFFFFFFFFFFFFFFFFFFFFFFFFFFFFFF AND PUSH4 0xA9059CBB CALLER DUP4 PUSH1 0x40 MLOAD DUP4 PUSH4 0xFFFFFFFF AND PUSH1 0xE0 SHL DUP2 MSTORE PUSH1 0x4 ADD PUSH2 0x5F5 SWAP3 SWAP2 SWAP1 PUSH2 0x1EE1 JUMP JUMPDEST PUSH1 0x20 PUSH1 0x40 MLOAD DUP1 DUP4 SUB DUP2 PUSH0 DUP8 GAS CALL ISZERO DUP1 ISZERO PUSH2 0x611 JUMPI RETURNDATASIZE PUSH0 DUP1 RETURNDATACOPY RETURNDATASIZE PUSH0 REVERT JUMPDEST POP POP POP POP PUSH1 0x40 MLOAD RETURNDATASIZE PUSH1 0x1F NOT PUSH1 0x1F DUP3 ADD AND DUP3 ADD DUP1 PUSH1 0x40 MSTORE POP DUP2 ADD SWAP1 PUSH2 0x635 SWAP2 SWAP1 PUSH2 0x1F1C JUMP JUMPDEST PUSH2 0x674 JUMPI PUSH1 0x40 MLOAD PUSH32 0x8C379A000000000000000000000000000000000000000000000000000000000 DUP2 MSTORE PUSH1 0x4 ADD PUSH2 0x66B SWAP1 PUSH2 0x1F91 JUMP JUMPDEST PUSH1 0x40 MLOAD DUP1 SWAP2 SUB SWAP1 REVERT JUMPDEST DUP4 CALLER PUSH20 0xFFFFFFFFFFFFFFFFFFFFFFFFFFFFFFFFFFFFFFFF AND PUSH32 0xC5C52C2A9175470464D5EA4429889E7DF2EA88630A3D32F4D0D3D2D448656210 DUP4 PUSH1 0x40 MLOAD PUSH2 0x6BB SWAP2 SWAP1 PUSH2 0x1982 JUMP JUMPDEST PUSH1 0x40 MLOAD DUP1 SWAP2 SUB SWAP1 LOG3 POP POP POP PUSH2 0x6CE PUSH2 0x167C JUMP JUMPDEST POP JUMP JUMPDEST PUSH2 0x6D9 PUSH2 0x1685 JUMP JUMPDEST PUSH2 0x6E1 PUSH2 0x170C JUMP JUMPDEST JUMP JUMPDEST PUSH1 0x6 PUSH1 0x20 MSTORE DUP1 PUSH0 MSTORE PUSH1 0x40 PUSH0 KECCAK256 PUSH0 SWAP2 POP SWAP1 POP SLOAD DUP2 JUMP JUMPDEST PUSH1 0x3 PUSH1 0x20 MSTORE DUP2 PUSH0 MSTORE PUSH1 0x40 PUSH0 KECCAK256 DUP2 DUP2 SLOAD DUP2 LT PUSH2 0x711 JUMPI PUSH0 DUP1 REVERT JUMPDEST SWAP1 PUSH0 MSTORE PUSH1 0x20 PUSH0 KECCAK256 SWAP1 PUSH1 0x7 MUL ADD PUSH0 SWAP2 POP SWAP2 POP POP DUP1 PUSH0 ADD SLOAD SWAP1 DUP1 PUSH1 0x1 ADD SLOAD SWAP1 DUP1 PUSH1 0x2 ADD SLOAD SWAP1 DUP1 PUSH1 0x3 ADD SLOAD SWAP1 DUP1 PUSH1 0x4 ADD SLOAD SWAP1 DUP1 PUSH1 0x5 ADD SLOAD SWAP1 DUP1 PUSH1 0x6 ADD PUSH0 SWAP1 SLOAD SWAP1 PUSH2 0x100 EXP SWAP1 DIV PUSH1 0xFF AND SWAP1 DUP1 PUSH1 0x6 ADD PUSH1 0x1 SWAP1 SLOAD SWAP1 PUSH2 0x100 EXP SWAP1 DIV PUSH1 0xFF AND SWAP1 POP DUP9 JUMP JUMPDEST PUSH2 0x777 PUSH2 0x1685 JUMP JUMPDEST PUSH0 PUSH20 0xFFFFFFFFFFFFFFFFFFFFFFFFFFFFFFFFFFFFFFFF AND DUP9 PUSH20 0xFFFFFFFFFFFFFFFFFFFFFFFFFFFFFFFFFFFFFFFF AND SUB PUSH2 0x7E5 JUMPI PUSH1 0x40 MLOAD PUSH32 0x8C379A000000000000000000000000000000000000000000000000000000000 DUP2 MSTORE PUSH1 0x4 ADD PUSH2 0x7DC SWAP1 PUSH2 0x1FF9 JUMP JUMPDEST PUSH1 0x40 MLOAD DUP1 SWAP2 SUB SWAP1 REVERT JUMPDEST PUSH0 DUP7 GT PUSH2 0x827 JUMPI PUSH1 0x40 MLOAD PUSH32 0x8C379A000000000000000000000000000000000000000000000000000000000 DUP2 MSTORE PUSH1 0x4 ADD PUSH2 0x81E SWAP1 PUSH2 0x2061 JUMP JUMPDEST PUSH1 0x40 MLOAD DUP1 SWAP2 SUB SWAP1 REVERT JUMPDEST PUSH0 DUP5 GT PUSH2 0x869 JUMPI PUSH1 0x40 MLOAD PUSH32 0x8C379A000000000000000000000000000000000000000000000000000000000 DUP2 MSTORE PUSH1 0x4 ADD PUSH2 0x860 SWAP1 PUSH2 0x20C9 JUMP JUMPDEST PUSH1 0x40 MLOAD DUP1 SWAP2 SUB SWAP1 REVERT JUMPDEST PUSH0 DUP3 GT PUSH2 0x8AB JUMPI PUSH1 0x40 MLOAD PUSH32 0x8C379A000000000000000000000000000000000000000000000000000000000 DUP2 MSTORE PUSH1 0x4 ADD PUSH2 0x8A2 SWAP1 PUSH2 0x2131 JUMP JUMPDEST PUSH1 0x40 MLOAD DUP1 SWAP2 SUB SWAP1 REVERT JUMPDEST DUP3 DUP5 LT ISZERO PUSH2 0x8EE JUMPI PUSH1 0x40 MLOAD PUSH32 0x8C379A000000000000000000000000000000000000000000000000000000000 DUP2 MSTORE PUSH1 0x4 ADD PUSH2 0x8E5 SWAP1 PUSH2 0x2199 JUMP JUMPDEST PUSH1 0x40 MLOAD DUP1 SWAP2 SUB SWAP1 REVERT JUMPDEST TIMESTAMP DUP6 LT ISZERO PUSH2 0x931 JUMPI PUSH1 0x40 MLOAD PUSH32 0x8C379A000000000000000000000000000000000000000000000000000000000 DUP2 MSTORE PUSH1 0x4 ADD PUSH2 0x928 SWAP1 PUSH2 0x2201 JUMP JUMPDEST PUSH1 0x40 MLOAD DUP1 SWAP2 SUB SWAP1 REVERT JUMPDEST PUSH1 0x6 PUSH0 DUP9 PUSH1 0x4 DUP2 GT ISZERO PUSH2 0x947 JUMPI PUSH2 0x946 PUSH2 0x221F JUMP JUMPDEST JUMPDEST PUSH1 0x4 DUP2 GT ISZERO PUSH2 0x959 JUMPI PUSH2 0x958 PUSH2 0x221F JUMP JUMPDEST JUMPDEST DUP2 MSTORE PUSH1 0x20 ADD SWAP1 DUP2 MSTORE PUSH1 0x20 ADD PUSH0 KECCAK256 SLOAD DUP7 PUSH1 0x5 PUSH0 DUP11 PUSH1 0x4 DUP2 GT ISZERO PUSH2 0x97E JUMPI PUSH2 0x97D PUSH2 0x221F JUMP JUMPDEST JUMPDEST PUSH1 0x4 DUP2 GT ISZERO PUSH2 0x990 JUMPI PUSH2 0x98F PUSH2 0x221F JUMP JUMPDEST JUMPDEST DUP2 MSTORE PUSH1 0x20 ADD SWAP1 DUP2 MSTORE PUSH1 0x20 ADD PUSH0 KECCAK256 SLOAD PUSH2 0x9A8 SWAP2 SWAP1 PUSH2 0x1EAE JUMP JUMPDEST GT ISZERO PUSH2 0x9E9 JUMPI PUSH1 0x40 MLOAD PUSH32 0x8C379A000000000000000000000000000000000000000000000000000000000 DUP2 MSTORE PUSH1 0x4 ADD PUSH2 0x9E0 SWAP1 PUSH2 0x2296 JUMP JUMPDEST PUSH1 0x40 MLOAD DUP1 SWAP2 SUB SWAP1 REVERT JUMPDEST PUSH1 0x2 PUSH1 0x1 SWAP1 SLOAD SWAP1 PUSH2 0x100 EXP SWAP1 DIV PUSH20 0xFFFFFFFFFFFFFFFFFFFFFFFFFFFFFFFFFFFFFFFF AND PUSH20 0xFFFFFFFFFFFFFFFFFFFFFFFFFFFFFFFFFFFFFFFF AND PUSH4 0x23B872DD CALLER ADDRESS DUP10 PUSH1 0x40 MLOAD DUP5 PUSH4 0xFFFFFFFF AND PUSH1 0xE0 SHL DUP2 MSTORE PUSH1 0x4 ADD PUSH2 0xA48 SWAP4 SWAP3 SWAP2 SWAP1 PUSH2 0x22B4 JUMP JUMPDEST PUSH1 0x20 PUSH1 0x40 MLOAD DUP1 DUP4 SUB DUP2 PUSH0 DUP8 GAS CALL ISZERO DUP1 ISZERO PUSH2 0xA64 JUMPI RETURNDATASIZE PUSH0 DUP1 RETURNDATACOPY RETURNDATASIZE PUSH0 REVERT JUMPDEST POP POP POP POP PUSH1 0x40 MLOAD RETURNDATASIZE PUSH1 0x1F NOT PUSH1 0x1F DUP3 ADD AND DUP3 ADD DUP1 PUSH1 0x40 MSTORE POP DUP2 ADD SWAP1 PUSH2 0xA88 SWAP2 SWAP1 PUSH2 0x1F1C JUMP JUMPDEST PUSH2 0xAC7 JUMPI PUSH1 0x40 MLOAD PUSH32 0x8C379A000000000000000000000000000000000000000000000000000000000 DUP2 MSTORE PUSH1 0x4 ADD PUSH2 0xABE SWAP1 PUSH2 0x1F91 JUMP JUMPDEST PUSH1 0x40 MLOAD DUP1 SWAP2 SUB SWAP1 REVERT JUMPDEST PUSH1 0x3 PUSH0 DUP10 PUSH20 0xFFFFFFFFFFFFFFFFFFFFFFFFFFFFFFFFFFFFFFFF AND PUSH20 0xFFFFFFFFFFFFFFFFFFFFFFFFFFFFFFFFFFFFFFFF AND DUP2 MSTORE PUSH1 0x20 ADD SWAP1 DUP2 MSTORE PUSH1 0x20 ADD PUSH0 KECCAK256 PUSH1 0x40 MLOAD DUP1 PUSH2 0x100 ADD PUSH1 0x40 MSTORE DUP1 DUP9 DUP2 MSTORE PUSH1 0x20 ADD PUSH0 DUP2 MSTORE PUSH1 0x20 ADD DUP8 DUP2 MSTORE PUSH1 0x20 ADD DUP7 DUP2 MSTORE PUSH1 0x20 ADD DUP6 DUP2 MSTORE PUSH1 0x20 ADD DUP5 DUP2 MSTORE PUSH1 0x20 ADD DUP4 ISZERO ISZERO DUP2 MSTORE PUSH1 0x20 ADD PUSH0 ISZERO ISZERO DUP2 MSTORE POP SWAP1 DUP1 PUSH1 0x1 DUP2 SLOAD ADD DUP1 DUP3 SSTORE DUP1 SWAP2 POP POP PUSH1 0x1 SWAP1 SUB SWAP1 PUSH0 MSTORE PUSH1 0x20 PUSH0 KECCAK256 SWAP1 PUSH1 0x7 MUL ADD PUSH0 SWAP1 SWAP2 SWAP1 SWAP2 SWAP1 SWAP2 POP PUSH0 DUP3 ADD MLOAD DUP2 PUSH0 ADD SSTORE PUSH1 0x20 DUP3 ADD MLOAD DUP2 PUSH1 0x1 ADD SSTORE PUSH1 0x40 DUP3 ADD MLOAD DUP2 PUSH1 0x2 ADD SSTORE PUSH1 0x60 DUP3 ADD MLOAD DUP2 PUSH1 0x3 ADD SSTORE PUSH1 0x80 DUP3 ADD MLOAD DUP2 PUSH1 0x4 ADD SSTORE PUSH1 0xA0 DUP3 ADD MLOAD DUP2 PUSH1 0x5 ADD SSTORE PUSH1 0xC0 DUP3 ADD MLOAD DUP2 PUSH1 0x6 ADD PUSH0 PUSH2 0x100 EXP DUP2 SLOAD DUP2 PUSH1 0xFF MUL NOT AND SWAP1 DUP4 ISZERO ISZERO MUL OR SWAP1 SSTORE POP PUSH1 0xE0 DUP3 ADD MLOAD DUP2 PUSH1 0x6 ADD PUSH1 0x1 PUSH2 0x100 EXP DUP2 SLOAD DUP2 PUSH1 0xFF MUL NOT AND SWAP1 DUP4 ISZERO ISZERO MUL OR SWAP1 SSTORE POP POP POP PUSH1 0x4 PUSH0 DUP10 PUSH20 0xFFFFFFFFFFFFFFFFFFFFFFFFFFFFFFFFFFFFFFFF AND PUSH20 0xFFFFFFFFFFFFFFFFFFFFFFFFFFFFFFFFFFFFFFFF AND DUP2 MSTORE PUSH1 0x20 ADD SWAP1 DUP2 MSTORE PUSH1 0x20 ADD PUSH0 KECCAK256 PUSH0 DUP2 SLOAD DUP1 SWAP3 SWAP2 SWAP1 PUSH2 0xC30 SWAP1 PUSH2 0x22E9 JUMP JUMPDEST SWAP2 SWAP1 POP SSTORE POP PUSH1 0x7 PUSH0 DUP2 SLOAD DUP1 SWAP3 SWAP2 SWAP1 PUSH2 0xC47 SWAP1 PUSH2 0x22E9 JUMP JUMPDEST SWAP2 SWAP1 POP SSTORE POP DUP6 PUSH1 0x5 PUSH0 DUP10 PUSH1 0x4 DUP2 GT ISZERO PUSH2 0xC63 JUMPI PUSH2 0xC62 PUSH2 0x221F JUMP JUMPDEST JUMPDEST PUSH1 0x4 DUP2 GT ISZERO PUSH2 0xC75 JUMPI PUSH2 0xC74 PUSH2 0x221F JUMP JUMPDEST JUMPDEST DUP2 MSTORE PUSH1 0x20 ADD SWAP1 DUP2 MSTORE PUSH1 0x20 ADD PUSH0 KECCAK256 SLOAD PUSH2 0xC8D SWAP2 SWAP1 PUSH2 0x1EAE JUMP JUMPDEST PUSH1 0x5 PUSH0 DUP10 PUSH1 0x4 DUP2 GT ISZERO PUSH2 0xCA3 JUMPI PUSH2 0xCA2 PUSH2 0x221F JUMP JUMPDEST JUMPDEST PUSH1 0x4 DUP2 GT ISZERO PUSH2 0xCB5 JUMPI PUSH2 0xCB4 PUSH2 0x221F JUMP JUMPDEST JUMPDEST DUP2 MSTORE PUSH1 0x20 ADD SWAP1 DUP2 MSTORE PUSH1 0x20 ADD PUSH0 KECCAK256 DUP2 SWAP1 SSTORE POP PUSH1 0x1 PUSH1 0x4 PUSH0 DUP11 PUSH20 0xFFFFFFFFFFFFFFFFFFFFFFFFFFFFFFFFFFFFFFFF AND PUSH20 0xFFFFFFFFFFFFFFFFFFFFFFFFFFFFFFFFFFFFFFFF AND DUP2 MSTORE PUSH1 0x20 ADD SWAP1 DUP2 MSTORE PUSH1 0x20 ADD PUSH0 KECCAK256 SLOAD PUSH2 0xD10 SWAP2 SWAP1 PUSH2 0x1E13 JUMP JUMPDEST DUP9 PUSH20 0xFFFFFFFFFFFFFFFFFFFFFFFFFFFFFFFFFFFFFFFF AND PUSH32 0x95B841D5D108F82FDBC6ACD22E5CC30BF7A7C9DDB0DDFB615D3EE5ADC61B0967 DUP10 DUP10 PUSH1 0x40 MLOAD PUSH2 0xD58 SWAP3 SWAP2 SWAP1 PUSH2 0x2376 JUMP JUMPDEST PUSH1 0x40 MLOAD DUP1 SWAP2 SUB SWAP1 LOG3 POP POP POP POP POP POP POP POP JUMP JUMPDEST PUSH0 PUSH1 0x2 PUSH0 SWAP1 SLOAD SWAP1 PUSH2 0x100 EXP SWAP1 DIV PUSH1 0xFF AND SWAP1 POP SWAP1 JUMP JUMPDEST PUSH1 0x8 PUSH0 SWAP1 SLOAD SWAP1 PUSH2 0x100 EXP SWAP1 DIV PUSH20 0xFFFFFFFFFFFFFFFFFFFFFFFFFFFFFFFFFFFFFFFF AND DUP2 JUMP JUMPDEST PUSH2 0xDAC PUSH2 0x1685 JUMP JUMPDEST PUSH2 0xDB5 PUSH0 PUSH2 0x176D JUMP JUMPDEST JUMP JUMPDEST PUSH2 0xDBF PUSH2 0x1685 JUMP JUMPDEST PUSH0 PUSH20 0xFFFFFFFFFFFFFFFFFFFFFFFFFFFFFFFFFFFFFFFF AND DUP2 PUSH20 0xFFFFFFFFFFFFFFFFFFFFFFFFFFFFFFFFFFFFFFFF AND SUB PUSH2 0xE2D JUMPI PUSH1 0x40 MLOAD PUSH32 0x8C379A000000000000000000000000000000000000000000000000000000000 DUP2 MSTORE PUSH1 0x4 ADD PUSH2 0xE24 SWAP1 PUSH2 0x23E7 JUMP JUMPDEST PUSH1 0x40 MLOAD DUP1 SWAP2 SUB SWAP1 REVERT JUMPDEST PUSH0 PUSH1 0x8 PUSH0 SWAP1 SLOAD SWAP1 PUSH2 0x100 EXP SWAP1 DIV PUSH20 0xFFFFFFFFFFFFFFFFFFFFFFFFFFFFFFFFFFFFFFFF AND SWAP1 POP DUP2 PUSH1 0x8 PUSH0 PUSH2 0x100 EXP DUP2 SLOAD DUP2 PUSH20 0xFFFFFFFFFFFFFFFFFFFFFFFFFFFFFFFFFFFFFFFF MUL NOT AND SWAP1 DUP4 PUSH20 0xFFFFFFFFFFFFFFFFFFFFFFFFFFFFFFFFFFFFFFFF AND MUL OR SWAP1 SSTORE POP DUP2 PUSH20 0xFFFFFFFFFFFFFFFFFFFFFFFFFFFFFFFFFFFFFFFF AND DUP2 PUSH20 0xFFFFFFFFFFFFFFFFFFFFFFFFFFFFFFFFFFFFFFFF AND PUSH32 0x4AB5BE82436D353E61CA18726E984E561F5C1CC7C6D38B29D2553C790434705A PUSH1 0x40 MLOAD PUSH1 0x40 MLOAD DUP1 SWAP2 SUB SWAP1 LOG3 POP POP JUMP JUMPDEST PUSH2 0xEF8 PUSH2 0x1685 JUMP JUMPDEST PUSH2 0xF00 PUSH2 0x182E JUMP JUMPDEST JUMP JUMPDEST PUSH0 DUP1 PUSH0 SWAP1 SLOAD SWAP1 PUSH2 0x100 EXP SWAP1 DIV PUSH20 0xFFFFFFFFFFFFFFFFFFFFFFFFFFFFFFFFFFFFFFFF AND SWAP1 POP SWAP1 JUMP JUMPDEST PUSH1 0x4 PUSH1 0x20 MSTORE DUP1 PUSH0 MSTORE PUSH1 0x40 PUSH0 KECCAK256 PUSH0 SWAP2 POP SWAP1 POP SLOAD DUP2 JUMP JUMPDEST PUSH0 DUP1 PUSH0 DUP1 PUSH0 DUP1 PUSH0 DUP1 PUSH0 PUSH1 0x3 PUSH0 DUP13 PUSH20 0xFFFFFFFFFFFFFFFFFFFFFFFFFFFFFFFFFFFFFFFF AND PUSH20 0xFFFFFFFFFFFFFFFFFFFFFFFFFFFFFFFFFFFFFFFF AND DUP2 MSTORE PUSH1 0x20 ADD SWAP1 DUP2 MSTORE PUSH1 0x20 ADD PUSH0 KECCAK256 DUP11 DUP2 SLOAD DUP2 LT PUSH2 0xF96 JUMPI PUSH2 0xF95 PUSH2 0x1CD9 JUMP JUMPDEST JUMPDEST SWAP1 PUSH0 MSTORE PUSH1 0x20 PUSH0 KECCAK256 SWAP1 PUSH1 0x7 MUL ADD PUSH1 0x40 MLOAD DUP1 PUSH2 0x100 ADD PUSH1 0x40 MSTORE SWAP1 DUP2 PUSH0 DUP3 ADD SLOAD DUP2 MSTORE PUSH1 0x20 ADD PUSH1 0x1 DUP3 ADD SLOAD DUP2 MSTORE PUSH1 0x20 ADD PUSH1 0x2 DUP3 ADD SLOAD DUP2 MSTORE PUSH1 0x20 ADD PUSH1 0x3 DUP3 ADD SLOAD DUP2 MSTORE PUSH1 0x20 ADD PUSH1 0x4 DUP3 ADD SLOAD DUP2 MSTORE PUSH1 0x20 ADD PUSH1 0x5 DUP3 ADD SLOAD DUP2 MSTORE PUSH1 0x20 ADD PUSH1 0x6 DUP3 ADD PUSH0 SWAP1 SLOAD SWAP1 PUSH2 0x100 EXP SWAP1 DIV PUSH1 0xFF AND ISZERO ISZERO ISZERO ISZERO DUP2 MSTORE PUSH1 0x20 ADD PUSH1 0x6 DUP3 ADD PUSH1 0x1 SWAP1 SLOAD SWAP1 PUSH2 0x100 EXP SWAP1 DIV PUSH1 0xFF AND ISZERO ISZERO ISZERO ISZERO DUP2 MSTORE POP POP SWAP1 POP DUP1 PUSH0 ADD MLOAD DUP2 PUSH1 0x20 ADD MLOAD DUP3 PUSH1 0x40 ADD MLOAD DUP4 PUSH1 0x60 ADD MLOAD DUP5 PUSH1 0x80 ADD MLOAD DUP6 PUSH1 0xA0 ADD MLOAD DUP7 PUSH1 0xC0 ADD MLOAD DUP8 PUSH1 0xE0 ADD MLOAD SWAP9 POP SWAP9 POP SWAP9 POP SWAP9 POP SWAP9 POP SWAP9 POP SWAP9 POP SWAP9 POP POP SWAP3 SWAP6 SWAP9 POP SWAP3 SWAP6 SWAP9 SWAP1 SWAP4 SWAP7 POP JUMP JUMPDEST PUSH1 0x7 SLOAD DUP2 JUMP JUMPDEST PUSH2 0x1073 PUSH2 0x1685 JUMP JUMPDEST PUSH0 PUSH1 0x3 PUSH0 DUP5 PUSH20 0xFFFFFFFFFFFFFFFFFFFFFFFFFFFFFFFFFFFFFFFF AND PUSH20 0xFFFFFFFFFFFFFFFFFFFFFFFFFFFFFFFFFFFFFFFF AND DUP2 MSTORE PUSH1 0x20 ADD SWAP1 DUP2 MSTORE PUSH1 0x20 ADD PUSH0 KECCAK256 DUP3 DUP2 SLOAD DUP2 LT PUSH2 0x10C3 JUMPI PUSH2 0x10C2 PUSH2 0x1CD9 JUMP JUMPDEST JUMPDEST SWAP1 PUSH0 MSTORE PUSH1 0x20 PUSH0 KECCAK256 SWAP1 PUSH1 0x7 MUL ADD SWAP1 POP PUSH0 DUP2 PUSH0 ADD SLOAD GT PUSH2 0x1116 JUMPI PUSH1 0x40 MLOAD PUSH32 0x8C379A000000000000000000000000000000000000000000000000000000000 DUP2 MSTORE PUSH1 0x4 ADD PUSH2 0x110D SWAP1 PUSH2 0x1D60 JUMP JUMPDEST PUSH1 0x40 MLOAD DUP1 SWAP2 SUB SWAP1 REVERT JUMPDEST DUP1 PUSH1 0x6 ADD PUSH0 SWAP1 SLOAD SWAP1 PUSH2 0x100 EXP SWAP1 DIV PUSH1 0xFF AND PUSH2 0x1166 JUMPI PUSH1 0x40 MLOAD PUSH32 0x8C379A000000000000000000000000000000000000000000000000000000000 DUP2 MSTORE PUSH1 0x4 ADD PUSH2 0x115D SWAP1 PUSH2 0x244F JUMP JUMPDEST PUSH1 0x40 MLOAD DUP1 SWAP2 SUB SWAP1 REVERT JUMPDEST DUP1 PUSH1 0x6 ADD PUSH1 0x1 SWAP1 SLOAD SWAP1 PUSH2 0x100 EXP SWAP1 DIV PUSH1 0xFF AND ISZERO PUSH2 0x11B8 JUMPI PUSH1 0x40 MLOAD PUSH32 0x8C379A000000000000000000000000000000000000000000000000000000000 DUP2 MSTORE PUSH1 0x4 ADD PUSH2 0x11AF SWAP1 PUSH2 0x24B7 JUMP JUMPDEST PUSH1 0x40 MLOAD DUP1 SWAP2 SUB SWAP1 REVERT JUMPDEST PUSH0 PUSH2 0x123E DUP3 PUSH1 0x40 MLOAD DUP1 PUSH2 0x100 ADD PUSH1 0x40 MSTORE SWAP1 DUP2 PUSH0 DUP3 ADD SLOAD DUP2 MSTORE PUSH1 0x20 ADD PUSH1 0x1 DUP3 ADD SLOAD DUP2 MSTORE PUSH1 0x20 ADD PUSH1 0x2 DUP3 ADD SLOAD DUP2 MSTORE PUSH1 0x20 ADD PUSH1 0x3 DUP3 ADD SLOAD DUP2 MSTORE PUSH1 0x20 ADD PUSH1 0x4 DUP3 ADD SLOAD DUP2 MSTORE PUSH1 0x20 ADD PUSH1 0x5 DUP3 ADD SLOAD DUP2 MSTORE PUSH1 0x20 ADD PUSH1 0x6 DUP3 ADD PUSH0 SWAP1 SLOAD SWAP1 PUSH2 0x100 EXP SWAP1 DIV PUSH1 0xFF AND ISZERO ISZERO ISZERO ISZERO DUP2 MSTORE PUSH1 0x20 ADD PUSH1 0x6 DUP3 ADD PUSH1 0x1 SWAP1 SLOAD SWAP1 PUSH2 0x100 EXP SWAP1 DIV PUSH1 0xFF AND ISZERO ISZERO ISZERO ISZERO DUP2 MSTORE POP POP PUSH2 0x15B7 JUMP JUMPDEST SWAP1 POP PUSH0 DUP2 DUP4 PUSH0 ADD SLOAD PUSH2 0x1250 SWAP2 SWAP1 PUSH2 0x1E13 JUMP JUMPDEST SWAP1 POP PUSH1 0x1 DUP4 PUSH1 0x6 ADD PUSH1 0x1 PUSH2 0x100 EXP DUP2 SLOAD DUP2 PUSH1 0xFF MUL NOT AND SWAP1 DUP4 ISZERO ISZERO MUL OR SWAP1 SSTORE POP PUSH0 DUP2 GT ISZERO PUSH2 0x1375 JUMPI PUSH1 0x2 PUSH1 0x1 SWAP1 SLOAD SWAP1 PUSH2 0x100 EXP SWAP1 DIV PUSH20 0xFFFFFFFFFFFFFFFFFFFFFFFFFFFFFFFFFFFFFFFF AND PUSH20 0xFFFFFFFFFFFFFFFFFFFFFFFFFFFFFFFFFFFFFFFF AND PUSH4 0xA9059CBB PUSH1 0x8 PUSH0 SWAP1 SLOAD SWAP1 PUSH2 0x100 EXP SWAP1 DIV PUSH20 0xFFFFFFFFFFFFFFFFFFFFFFFFFFFFFFFFFFFFFFFF AND DUP4 PUSH1 0x40 MLOAD DUP4 PUSH4 0xFFFFFFFF AND PUSH1 0xE0 SHL DUP2 MSTORE PUSH1 0x4 ADD PUSH2 0x12F5 SWAP3 SWAP2 SWAP1 PUSH2 0x1EE1 JUMP JUMPDEST PUSH1 0x20 PUSH1 0x40 MLOAD DUP1 DUP4 SUB DUP2 PUSH0 DUP8 GAS CALL ISZERO DUP1 ISZERO PUSH2 0x1311 JUMPI RETURNDATASIZE PUSH0 DUP1 RETURNDATACOPY RETURNDATASIZE PUSH0 REVERT JUMPDEST POP POP POP POP PUSH1 0x40 MLOAD RETURNDATASIZE PUSH1 0x1F NOT PUSH1 0x1F DUP3 ADD AND DUP3 ADD DUP1 PUSH1 0x40 MSTORE POP DUP2 ADD SWAP1 PUSH2 0x1335 SWAP2 SWAP1 PUSH2 0x1F1C JUMP JUMPDEST PUSH2 0x1374 JUMPI PUSH1 0x40 MLOAD PUSH32 0x8C379A000000000000000000000000000000000000000000000000000000000 DUP2 MSTORE PUSH1 0x4 ADD PUSH2 0x136B SWAP1 PUSH2 0x1F91 JUMP JUMPDEST PUSH1 0x40 MLOAD DUP1 SWAP2 SUB SWAP1 REVERT JUMPDEST JUMPDEST DUP4 DUP6 PUSH20 0xFFFFFFFFFFFFFFFFFFFFFFFFFFFFFFFFFFFFFFFF AND PUSH32 0x5369437781E041AFE7013C48748BCB5985473926A60448846C64D514908AA8FC DUP4 PUSH1 0x40 MLOAD PUSH2 0x13BC SWAP2 SWAP1 PUSH2 0x1982 JUMP JUMPDEST PUSH1 0x40 MLOAD DUP1 SWAP2 SUB SWAP1 LOG3 POP POP POP POP POP JUMP JUMPDEST PUSH2 0x13D3 PUSH2 0x1685 JUMP JUMPDEST PUSH0 PUSH20 0xFFFFFFFFFFFFFFFFFFFFFFFFFFFFFFFFFFFFFFFF AND DUP2 PUSH20 0xFFFFFFFFFFFFFFFFFFFFFFFFFFFFFFFFFFFFFFFF AND SUB PUSH2 0x1443 JUMPI PUSH0 PUSH1 0x40 MLOAD PUSH32 0x1E4FBDF700000000000000000000000000000000000000000000000000000000 DUP2 MSTORE PUSH1 0x4 ADD PUSH2 0x143A SWAP2 SWAP1 PUSH2 0x1C21 JUMP JUMPDEST PUSH1 0x40 MLOAD DUP1 SWAP2 SUB SWAP1 REVERT JUMPDEST PUSH2 0x144C DUP2 PUSH2 0x176D JUMP JUMPDEST POP JUMP JUMPDEST PUSH1 0x2 PUSH1 0x1 SWAP1 SLOAD SWAP1 PUSH2 0x100 EXP SWAP1 DIV PUSH20 0xFFFFFFFFFFFFFFFFFFFFFFFFFFFFFFFFFFFFFFFF AND DUP2 JUMP JUMPDEST PUSH0 DUP1 PUSH1 0x3 PUSH0 DUP6 PUSH20 0xFFFFFFFFFFFFFFFFFFFFFFFFFFFFFFFFFFFFFFFF AND PUSH20 0xFFFFFFFFFFFFFFFFFFFFFFFFFFFFFFFFFFFFFFFF AND DUP2 MSTORE PUSH1 0x20 ADD SWAP1 DUP2 MSTORE PUSH1 0x20 ADD PUSH0 KECCAK256 DUP4 DUP2 SLOAD DUP2 LT PUSH2 0x14C6 JUMPI PUSH2 0x14C5 PUSH2 0x1CD9 JUMP JUMPDEST JUMPDEST SWAP1 PUSH0 MSTORE PUSH1 0x20 PUSH0 KECCAK256 SWAP1 PUSH1 0x7 MUL ADD PUSH1 0x40 MLOAD DUP1 PUSH2 0x100 ADD PUSH1 0x40 MSTORE SWAP1 DUP2 PUSH0 DUP3 ADD SLOAD DUP2 MSTORE PUSH1 0x20 ADD PUSH1 0x1 DUP3 ADD SLOAD DUP2 MSTORE PUSH1 0x20 ADD PUSH1 0x2 DUP3 ADD SLOAD DUP2 MSTORE PUSH1 0x20 ADD PUSH1 0x3 DUP3 ADD SLOAD DUP2 MSTORE PUSH1 0x20 ADD PUSH1 0x4 DUP3 ADD SLOAD DUP2 MSTORE PUSH1 0x20 ADD PUSH1 0x5 DUP3 ADD SLOAD DUP2 MSTORE PUSH1 0x20 ADD PUSH1 0x6 DUP3 ADD PUSH0 SWAP1 SLOAD SWAP1 PUSH2 0x100 EXP SWAP1 DIV PUSH1 0xFF AND ISZERO ISZERO ISZERO ISZERO DUP2 MSTORE PUSH1 0x20 ADD PUSH1 0x6 DUP3 ADD PUSH1 0x1 SWAP1 SLOAD SWAP1 PUSH2 0x100 EXP SWAP1 DIV PUSH1 0xFF AND ISZERO ISZERO ISZERO ISZERO DUP2 MSTORE POP POP SWAP1 POP DUP1 PUSH1 0x20 ADD MLOAD PUSH2 0x155E DUP3 PUSH2 0x15B7 JUMP JUMPDEST PUSH2 0x1568 SWAP2 SWAP1 PUSH2 0x1E13 JUMP JUMPDEST SWAP2 POP POP SWAP3 SWAP2 POP POP JUMP JUMPDEST PUSH1 0x2 PUSH1 0x1 SLOAD SUB PUSH2 0x15AD JUMPI PUSH1 0x40 MLOAD PUSH32 0x3EE5AEB500000000000000000000000000000000000000000000000000000000 DUP2 MSTORE PUSH1 0x4 ADD PUSH1 0x40 MLOAD DUP1 SWAP2 SUB SWAP1 REVERT JUMPDEST PUSH1 0x2 PUSH1 0x1 DUP2 SWAP1 SSTORE POP JUMP JUMPDEST PUSH0 DUP2 PUSH1 0x40 ADD MLOAD TIMESTAMP LT ISZERO PUSH2 0x15CC JUMPI PUSH0 SWAP1 POP PUSH2 0x1677 JUMP JUMPDEST DUP2 PUSH1 0x80 ADD MLOAD DUP3 PUSH1 0x40 ADD MLOAD PUSH2 0x15E0 SWAP2 SWAP1 PUSH2 0x1EAE JUMP JUMPDEST TIMESTAMP LT ISZERO PUSH2 0x15EF JUMPI PUSH0 SWAP1 POP PUSH2 0x1677 JUMP JUMPDEST DUP2 PUSH1 0x60 ADD MLOAD DUP3 PUSH1 0x40 ADD MLOAD PUSH2 0x1603 SWAP2 SWAP1 PUSH2 0x1EAE JUMP JUMPDEST TIMESTAMP LT PUSH2 0x1614 JUMPI DUP2 PUSH0 ADD MLOAD SWAP1 POP PUSH2 0x1677 JUMP JUMPDEST PUSH0 DUP3 PUSH1 0x40 ADD MLOAD TIMESTAMP PUSH2 0x1625 SWAP2 SWAP1 PUSH2 0x1E13 JUMP JUMPDEST SWAP1 POP PUSH0 DUP4 PUSH1 0xA0 ADD MLOAD SWAP1 POP PUSH0 DUP2 DUP4 PUSH2 0x163C SWAP2 SWAP1 PUSH2 0x2502 JUMP JUMPDEST SWAP1 POP PUSH0 DUP3 DUP3 PUSH2 0x164B SWAP2 SWAP1 PUSH2 0x2532 JUMP JUMPDEST SWAP1 POP PUSH0 DUP7 PUSH1 0x60 ADD MLOAD DUP3 DUP9 PUSH0 ADD MLOAD PUSH2 0x1662 SWAP2 SWAP1 PUSH2 0x2532 JUMP JUMPDEST PUSH2 0x166C SWAP2 SWAP1 PUSH2 0x2502 JUMP JUMPDEST SWAP1 POP DUP1 SWAP6 POP POP POP POP POP POP JUMPDEST SWAP2 SWAP1 POP JUMP JUMPDEST PUSH1 0x1 DUP1 DUP2 SWAP1 SSTORE POP JUMP JUMPDEST PUSH2 0x168D PUSH2 0x1890 JUMP JUMPDEST PUSH20 0xFFFFFFFFFFFFFFFFFFFFFFFFFFFFFFFFFFFFFFFF AND PUSH2 0x16AB PUSH2 0xF02 JUMP JUMPDEST PUSH20 0xFFFFFFFFFFFFFFFFFFFFFFFFFFFFFFFFFFFFFFFF AND EQ PUSH2 0x170A JUMPI PUSH2 0x16CE PUSH2 0x1890 JUMP JUMPDEST PUSH1 0x40 MLOAD PUSH32 0x118CDAA700000000000000000000000000000000000000000000000000000000 DUP2 MSTORE PUSH1 0x4 ADD PUSH2 0x1701 SWAP2 SWAP1 PUSH2 0x1C21 JUMP JUMPDEST PUSH1 0x40 MLOAD DUP1 SWAP2 SUB SWAP1 REVERT JUMPDEST JUMP JUMPDEST PUSH2 0x1714 PUSH2 0x1897 JUMP JUMPDEST PUSH0 PUSH1 0x2 PUSH0 PUSH2 0x100 EXP DUP2 SLOAD DUP2 PUSH1 0xFF MUL NOT AND SWAP1 DUP4 ISZERO ISZERO MUL OR SWAP1 SSTORE POP PUSH32 0x5DB9EE0A495BF2E6FF9C91A7834C1BA4FDD244A5E8AA4E537BD38AEAE4B073AA PUSH2 0x1756 PUSH2 0x1890 JUMP JUMPDEST PUSH1 0x40 MLOAD PUSH2 0x1763 SWAP2 SWAP1 PUSH2 0x1C21 JUMP JUMPDEST PUSH1 0x40 MLOAD DUP1 SWAP2 SUB SWAP1 LOG1 JUMP JUMPDEST PUSH0 DUP1 PUSH0 SWAP1 SLOAD SWAP1 PUSH2 0x100 EXP SWAP1 DIV PUSH20 0xFFFFFFFFFFFFFFFFFFFFFFFFFFFFFFFFFFFFFFFF AND SWAP1 POP DUP2 PUSH0 DUP1 PUSH2 0x100 EXP DUP2 SLOAD DUP2 PUSH20 0xFFFFFFFFFFFFFFFFFFFFFFFFFFFFFFFFFFFFFFFF MUL NOT AND SWAP1 DUP4 PUSH20 0xFFFFFFFFFFFFFFFFFFFFFFFFFFFFFFFFFFFFFFFF AND MUL OR SWAP1 SSTORE POP DUP2 PUSH20 0xFFFFFFFFFFFFFFFFFFFFFFFFFFFFFFFFFFFFFFFF AND DUP2 PUSH20 0xFFFFFFFFFFFFFFFFFFFFFFFFFFFFFFFFFFFFFFFF AND PUSH32 0x8BE0079C531659141344CD1FD0A4F28419497F9722A3DAAFE3B4186F6B6457E0 PUSH1 0x40 MLOAD PUSH1 0x40 MLOAD DUP1 SWAP2 SUB SWAP1 LOG3 POP POP JUMP JUMPDEST PUSH2 0x1836 PUSH2 0x18D7 JUMP JUMPDEST PUSH1 0x1 PUSH1 0x2 PUSH0 PUSH2 0x100 EXP DUP2 SLOAD DUP2 PUSH1 0xFF MUL NOT AND SWAP1 DUP4 ISZERO ISZERO MUL OR SWAP1 SSTORE POP PUSH32 0x62E78CEA01BEE320CD4E420270B5EA74000D11B0C9F74754EBDBFC544B05A258 PUSH2 0x1879 PUSH2 0x1890 JUMP JUMPDEST PUSH1 0x40 MLOAD PUSH2 0x1886 SWAP2 SWAP1 PUSH2 0x1C21 JUMP JUMPDEST PUSH1 0x40 MLOAD DUP1 SWAP2 SUB SWAP1 LOG1 JUMP JUMPDEST PUSH0 CALLER SWAP1 POP SWAP1 JUMP JUMPDEST PUSH2 0x189F PUSH2 0xD6A JUMP JUMPDEST PUSH2 0x18D5 JUMPI PUSH1 0x40 MLOAD PUSH32 0x8DFC202B00000000000000000000000000000000000000000000000000000000 DUP2 MSTORE PUSH1 0x4 ADD PUSH1 0x40 MLOAD DUP1 SWAP2 SUB SWAP1 REVERT JUMPDEST JUMP JUMPDEST PUSH2 0x18DF PUSH2 0xD6A JUMP JUMPDEST ISZERO PUSH2 0x1916 JUMPI PUSH1 0x40 MLOAD PUSH32 0xD93C066500000000000000000000000000000000000000000000000000000000 DUP2 MSTORE PUSH1 0x4 ADD PUSH1 0x40 MLOAD DUP1 SWAP2 SUB SWAP1 REVERT JUMPDEST JUMP JUMPDEST PUSH0 DUP1 REVERT JUMPDEST PUSH1 0x5 DUP2 LT PUSH2 0x1928 JUMPI PUSH0 DUP1 REVERT JUMPDEST POP JUMP JUMPDEST PUSH0 DUP2 CALLDATALOAD SWAP1 POP PUSH2 0x1939 DUP2 PUSH2 0x191C JUMP JUMPDEST SWAP3 SWAP2 POP POP JUMP JUMPDEST PUSH0 PUSH1 0x20 DUP3 DUP5 SUB SLT ISZERO PUSH2 0x1954 JUMPI PUSH2 0x1953 PUSH2 0x1918 JUMP JUMPDEST JUMPDEST PUSH0 PUSH2 0x1961 DUP5 DUP3 DUP6 ADD PUSH2 0x192B JUMP JUMPDEST SWAP2 POP POP SWAP3 SWAP2 POP POP JUMP JUMPDEST PUSH0 DUP2 SWAP1 POP SWAP2 SWAP1 POP JUMP JUMPDEST PUSH2 0x197C DUP2 PUSH2 0x196A JUMP JUMPDEST DUP3 MSTORE POP POP JUMP JUMPDEST PUSH0 PUSH1 0x20 DUP3 ADD SWAP1 POP PUSH2 0x1995 PUSH0 DUP4 ADD DUP5 PUSH2 0x1973 JUMP JUMPDEST SWAP3 SWAP2 POP POP JUMP JUMPDEST PUSH2 0x19A4 DUP2 PUSH2 0x196A JUMP JUMPDEST DUP2 EQ PUSH2 0x19AE JUMPI PUSH0 DUP1 REVERT JUMPDEST POP JUMP JUMPDEST PUSH0 DUP2 CALLDATALOAD SWAP1 POP PUSH2 0x19BF DUP2 PUSH2 0x199B JUMP JUMPDEST SWAP3 SWAP2 POP POP JUMP JUMPDEST PUSH0 PUSH1 0x20 DUP3 DUP5 SUB SLT ISZERO PUSH2 0x19DA JUMPI PUSH2 0x19D9 PUSH2 0x1918 JUMP JUMPDEST JUMPDEST PUSH0 PUSH2 0x19E7 DUP5 DUP3 DUP6 ADD PUSH2 0x19B1 JUMP JUMPDEST SWAP2 POP POP SWAP3 SWAP2 POP POP JUMP JUMPDEST PUSH0 PUSH20 0xFFFFFFFFFFFFFFFFFFFFFFFFFFFFFFFFFFFFFFFF DUP3 AND SWAP1 POP SWAP2 SWAP1 POP JUMP JUMPDEST PUSH0 PUSH2 0x1A19 DUP3 PUSH2 0x19F0 JUMP JUMPDEST SWAP1 POP SWAP2 SWAP1 POP JUMP JUMPDEST PUSH2 0x1A29 DUP2 PUSH2 0x1A0F JUMP JUMPDEST DUP2 EQ PUSH2 0x1A33 JUMPI PUSH0 DUP1 REVERT JUMPDEST POP JUMP JUMPDEST PUSH0 DUP2 CALLDATALOAD SWAP1 POP PUSH2 0x1A44 DUP2 PUSH2 0x1A20 JUMP JUMPDEST SWAP3 SWAP2 POP POP JUMP JUMPDEST PUSH0 DUP1 PUSH1 0x40 DUP4 DUP6 SUB SLT ISZERO PUSH2 0x1A60 JUMPI PUSH2 0x1A5F PUSH2 0x1918 JUMP JUMPDEST JUMPDEST PUSH0 PUSH2 0x1A6D DUP6 DUP3 DUP7 ADD PUSH2 0x1A36 JUMP JUMPDEST SWAP3 POP POP PUSH1 0x20 PUSH2 0x1A7E DUP6 DUP3 DUP7 ADD PUSH2 0x19B1 JUMP JUMPDEST SWAP2 POP POP SWAP3 POP SWAP3 SWAP1 POP JUMP JUMPDEST PUSH0 DUP2 ISZERO ISZERO SWAP1 POP SWAP2 SWAP1 POP JUMP JUMPDEST PUSH2 0x1A9C DUP2 PUSH2 0x1A88 JUMP JUMPDEST DUP3 MSTORE POP POP JUMP JUMPDEST PUSH0 PUSH2 0x100 DUP3 ADD SWAP1 POP PUSH2 0x1AB6 PUSH0 DUP4 ADD DUP12 PUSH2 0x1973 JUMP JUMPDEST PUSH2 0x1AC3 PUSH1 0x20 DUP4 ADD DUP11 PUSH2 0x1973 JUMP JUMPDEST PUSH2 0x1AD0 PUSH1 0x40 DUP4 ADD DUP10 PUSH2 0x1973 JUMP JUMPDEST PUSH2 0x1ADD PUSH1 0x60 DUP4 ADD DUP9 PUSH2 0x1973 JUMP JUMPDEST PUSH2 0x1AEA PUSH1 0x80 DUP4 ADD DUP8 PUSH2 0x1973 JUMP JUMPDEST PUSH2 0x1AF7 PUSH1 0xA0 DUP4 ADD DUP7 PUSH2 0x1973 JUMP JUMPDEST PUSH2 0x1B04 PUSH1 0xC0 DUP4 ADD DUP6 PUSH2 0x1A93 JUMP JUMPDEST PUSH2 0x1B11 PUSH1 0xE0 DUP4 ADD DUP5 PUSH2 0x1A93 JUMP JUMPDEST SWAP10 SWAP9 POP POP POP POP POP POP POP POP POP JUMP JUMPDEST PUSH2 0x1B27 DUP2 PUSH2 0x1A88 JUMP JUMPDEST DUP2 EQ PUSH2 0x1B31 JUMPI PUSH0 DUP1 REVERT JUMPDEST POP JUMP JUMPDEST PUSH0 DUP2 CALLDATALOAD SWAP1 POP PUSH2 0x1B42 DUP2 PUSH2 0x1B1E JUMP JUMPDEST SWAP3 SWAP2 POP POP JUMP JUMPDEST PUSH0 DUP1 PUSH0 DUP1 PUSH0 DUP1 PUSH0 DUP1 PUSH2 0x100 DUP10 DUP12 SUB SLT ISZERO PUSH2 0x1B65 JUMPI PUSH2 0x1B64 PUSH2 0x1918 JUMP JUMPDEST JUMPDEST PUSH0 PUSH2 0x1B72 DUP12 DUP3 DUP13 ADD PUSH2 0x1A36 JUMP JUMPDEST SWAP9 POP POP PUSH1 0x20 PUSH2 0x1B83 DUP12 DUP3 DUP13 ADD PUSH2 0x192B JUMP JUMPDEST SWAP8 POP POP PUSH1 0x40 PUSH2 0x1B94 DUP12 DUP3 DUP13 ADD PUSH2 0x19B1 JUMP JUMPDEST SWAP7 POP POP PUSH1 0x60 PUSH2 0x1BA5 DUP12 DUP3 DUP13 ADD PUSH2 0x19B1 JUMP JUMPDEST SWAP6 POP POP PUSH1 0x80 PUSH2 0x1BB6 DUP12 DUP3 DUP13 ADD PUSH2 0x19B1 JUMP JUMPDEST SWAP5 POP POP PUSH1 0xA0 PUSH2 0x1BC7 DUP12 DUP3 DUP13 ADD PUSH2 0x19B1 JUMP JUMPDEST SWAP4 POP POP PUSH1 0xC0 PUSH2 0x1BD8 DUP12 DUP3 DUP13 ADD PUSH2 0x19B1 JUMP JUMPDEST SWAP3 POP POP PUSH1 0xE0 PUSH2 0x1BE9 DUP12 DUP3 DUP13 ADD PUSH2 0x1B34 JUMP JUMPDEST SWAP2 POP POP SWAP3 SWAP6 SWAP9 POP SWAP3 SWAP6 SWAP9 SWAP1 SWAP4 SWAP7 POP JUMP JUMPDEST PUSH0 PUSH1 0x20 DUP3 ADD SWAP1 POP PUSH2 0x1C0C PUSH0 DUP4 ADD DUP5 PUSH2 0x1A93 JUMP JUMPDEST SWAP3 SWAP2 POP POP JUMP JUMPDEST PUSH2 0x1C1B DUP2 PUSH2 0x1A0F JUMP JUMPDEST DUP3 MSTORE POP POP JUMP JUMPDEST PUSH0 PUSH1 0x20 DUP3 ADD SWAP1 POP PUSH2 0x1C34 PUSH0 DUP4 ADD DUP5 PUSH2 0x1C12 JUMP JUMPDEST SWAP3 SWAP2 POP POP JUMP JUMPDEST PUSH0 PUSH1 0x20 DUP3 DUP5 SUB SLT ISZERO PUSH2 0x1C4F JUMPI PUSH2 0x1C4E PUSH2 0x1918 JUMP JUMPDEST JUMPDEST PUSH0 PUSH2 0x1C5C DUP5 DUP3 DUP6 ADD PUSH2 0x1A36 JUMP JUMPDEST SWAP2 POP POP SWAP3 SWAP2 POP POP JUMP JUMPDEST PUSH0 DUP2 SWAP1 POP SWAP2 SWAP1 POP JUMP JUMPDEST PUSH0 PUSH2 0x1C88 PUSH2 0x1C83 PUSH2 0x1C7E DUP5 PUSH2 0x19F0 JUMP JUMPDEST PUSH2 0x1C65 JUMP JUMPDEST PUSH2 0x19F0 JUMP JUMPDEST SWAP1 POP SWAP2 SWAP1 POP JUMP JUMPDEST PUSH0 PUSH2 0x1C99 DUP3 PUSH2 0x1C6E JUMP JUMPDEST SWAP1 POP SWAP2 SWAP1 POP JUMP JUMPDEST PUSH0 PUSH2 0x1CAA DUP3 PUSH2 0x1C8F JUMP JUMPDEST SWAP1 POP SWAP2 SWAP1 POP JUMP JUMPDEST PUSH2 0x1CBA DUP2 PUSH2 0x1CA0 JUMP JUMPDEST DUP3 MSTORE POP POP JUMP JUMPDEST PUSH0 PUSH1 0x20 DUP3 ADD SWAP1 POP PUSH2 0x1CD3 PUSH0 DUP4 ADD DUP5 PUSH2 0x1CB1 JUMP JUMPDEST SWAP3 SWAP2 POP POP JUMP JUMPDEST PUSH32 0x4E487B7100000000000000000000000000000000000000000000000000000000 PUSH0 MSTORE PUSH1 0x32 PUSH1 0x4 MSTORE PUSH1 0x24 PUSH0 REVERT JUMPDEST PUSH0 DUP3 DUP3 MSTORE PUSH1 0x20 DUP3 ADD SWAP1 POP SWAP3 SWAP2 POP POP JUMP JUMPDEST PUSH32 0x4E6F2073756368207363686564756C6500000000000000000000000000000000 PUSH0 DUP3 ADD MSTORE POP JUMP JUMPDEST PUSH0 PUSH2 0x1D4A PUSH1 0x10 DUP4 PUSH2 0x1D06 JUMP JUMPDEST SWAP2 POP PUSH2 0x1D55 DUP3 PUSH2 0x1D16 JUMP JUMPDEST PUSH1 0x20 DUP3 ADD SWAP1 POP SWAP2 SWAP1 POP JUMP JUMPDEST PUSH0 PUSH1 0x20 DUP3 ADD SWAP1 POP DUP2 DUP2 SUB PUSH0 DUP4 ADD MSTORE PUSH2 0x1D77 DUP2 PUSH2 0x1D3E JUMP JUMPDEST SWAP1 POP SWAP2 SWAP1 POP JUMP JUMPDEST PUSH32 0x5363686564756C65207265766F6B656400000000000000000000000000000000 PUSH0 DUP3 ADD MSTORE POP JUMP JUMPDEST PUSH0 PUSH2 0x1DB2 PUSH1 0x10 DUP4 PUSH2 0x1D06 JUMP JUMPDEST SWAP2 POP PUSH2 0x1DBD DUP3 PUSH2 0x1D7E JUMP JUMPDEST PUSH1 0x20 DUP3 ADD SWAP1 POP SWAP2 SWAP1 POP JUMP JUMPDEST PUSH0 PUSH1 0x20 DUP3 ADD SWAP1 POP DUP2 DUP2 SUB PUSH0 DUP4 ADD MSTORE PUSH2 0x1DDF DUP2 PUSH2 0x1DA6 JUMP JUMPDEST SWAP1 POP SWAP2 SWAP1 POP JUMP JUMPDEST PUSH32 0x4E487B7100000000000000000000000000000000000000000000000000000000 PUSH0 MSTORE PUSH1 0x11 PUSH1 0x4 MSTORE PUSH1 0x24 PUSH0 REVERT JUMPDEST PUSH0 PUSH2 0x1E1D DUP3 PUSH2 0x196A JUMP JUMPDEST SWAP2 POP PUSH2 0x1E28 DUP4 PUSH2 0x196A JUMP JUMPDEST SWAP3 POP DUP3 DUP3 SUB SWAP1 POP DUP2 DUP2 GT ISZERO PUSH2 0x1E40 JUMPI PUSH2 0x1E3F PUSH2 0x1DE6 JUMP JUMPDEST JUMPDEST SWAP3 SWAP2 POP POP JUMP JUMPDEST PUSH32 0x4E6F20746F6B656E7320746F2072656C65617365000000000000000000000000 PUSH0 DUP3 ADD MSTORE POP JUMP JUMPDEST PUSH0 PUSH2 0x1E7A PUSH1 0x14 DUP4 PUSH2 0x1D06 JUMP JUMPDEST SWAP2 POP PUSH2 0x1E85 DUP3 PUSH2 0x1E46 JUMP JUMPDEST PUSH1 0x20 DUP3 ADD SWAP1 POP SWAP2 SWAP1 POP JUMP JUMPDEST PUSH0 PUSH1 0x20 DUP3 ADD SWAP1 POP DUP2 DUP2 SUB PUSH0 DUP4 ADD MSTORE PUSH2 0x1EA7 DUP2 PUSH2 0x1E6E JUMP JUMPDEST SWAP1 POP SWAP2 SWAP1 POP JUMP JUMPDEST PUSH0 PUSH2 0x1EB8 DUP3 PUSH2 0x196A JUMP JUMPDEST SWAP2 POP PUSH2 0x1EC3 DUP4 PUSH2 0x196A JUMP JUMPDEST SWAP3 POP DUP3 DUP3 ADD SWAP1 POP DUP1 DUP3 GT ISZERO PUSH2 0x1EDB JUMPI PUSH2 0x1EDA PUSH2 0x1DE6 JUMP JUMPDEST JUMPDEST SWAP3 SWAP2 POP POP JUMP JUMPDEST PUSH0 PUSH1 0x40 DUP3 ADD SWAP1 POP PUSH2 0x1EF4 PUSH0 DUP4 ADD DUP6 PUSH2 0x1C12 JUMP JUMPDEST PUSH2 0x1F01 PUSH1 0x20 DUP4 ADD DUP5 PUSH2 0x1973 JUMP JUMPDEST SWAP4 SWAP3 POP POP POP JUMP JUMPDEST PUSH0 DUP2 MLOAD SWAP1 POP PUSH2 0x1F16 DUP2 PUSH2 0x1B1E JUMP JUMPDEST SWAP3 SWAP2 POP POP JUMP JUMPDEST PUSH0 PUSH1 0x20 DUP3 DUP5 SUB SLT ISZERO PUSH2 0x1F31 JUMPI PUSH2 0x1F30 PUSH2 0x1918 JUMP JUMPDEST JUMPDEST PUSH0 PUSH2 0x1F3E DUP5 DUP3 DUP6 ADD PUSH2 0x1F08 JUMP JUMPDEST SWAP2 POP POP SWAP3 SWAP2 POP POP JUMP JUMPDEST PUSH32 0x5472616E73666572206661696C65640000000000000000000000000000000000 PUSH0 DUP3 ADD MSTORE POP JUMP JUMPDEST PUSH0 PUSH2 0x1F7B PUSH1 0xF DUP4 PUSH2 0x1D06 JUMP JUMPDEST SWAP2 POP PUSH2 0x1F86 DUP3 PUSH2 0x1F47 JUMP JUMPDEST PUSH1 0x20 DUP3 ADD SWAP1 POP SWAP2 SWAP1 POP JUMP JUMPDEST PUSH0 PUSH1 0x20 DUP3 ADD SWAP1 POP DUP2 DUP2 SUB PUSH0 DUP4 ADD MSTORE PUSH2 0x1FA8 DUP2 PUSH2 0x1F6F JUMP JUMPDEST SWAP1 POP SWAP2 SWAP1 POP JUMP JUMPDEST PUSH32 0x496E76616C69642062656E656669636961727900000000000000000000000000 PUSH0 DUP3 ADD MSTORE POP JUMP JUMPDEST PUSH0 PUSH2 0x1FE3 PUSH1 0x13 DUP4 PUSH2 0x1D06 JUMP JUMPDEST SWAP2 POP PUSH2 0x1FEE DUP3 PUSH2 0x1FAF JUMP JUMPDEST PUSH1 0x20 DUP3 ADD SWAP1 POP SWAP2 SWAP1 POP JUMP JUMPDEST PUSH0 PUSH1 0x20 DUP3 ADD SWAP1 POP DUP2 DUP2 SUB PUSH0 DUP4 ADD MSTORE PUSH2 0x2010 DUP2 PUSH2 0x1FD7 JUMP JUMPDEST SWAP1 POP SWAP2 SWAP1 POP JUMP JUMPDEST PUSH32 0x416D6F756E74206D757374206265203E20300000000000000000000000000000 PUSH0 DUP3 ADD MSTORE POP JUMP JUMPDEST PUSH0 PUSH2 0x204B PUSH1 0x12 DUP4 PUSH2 0x1D06 JUMP JUMPDEST SWAP2 POP PUSH2 0x2056 DUP3 PUSH2 0x2017 JUMP JUMPDEST PUSH1 0x20 DUP3 ADD SWAP1 POP SWAP2 SWAP1 POP JUMP JUMPDEST PUSH0 PUSH1 0x20 DUP3 ADD SWAP1 POP DUP2 DUP2 SUB PUSH0 DUP4 ADD MSTORE PUSH2 0x2078 DUP2 PUSH2 0x203F JUMP JUMPDEST SWAP1 POP SWAP2 SWAP1 POP JUMP JUMPDEST PUSH32 0x4475726174696F6E206D757374206265203E2030000000000000000000000000 PUSH0 DUP3 ADD MSTORE POP JUMP JUMPDEST PUSH0 PUSH2 0x20B3 PUSH1 0x14 DUP4 PUSH2 0x1D06 JUMP JUMPDEST SWAP2 POP PUSH2 0x20BE DUP3 PUSH2 0x207F JUMP JUMPDEST PUSH1 0x20 DUP3 ADD SWAP1 POP SWAP2 SWAP1 POP JUMP JUMPDEST PUSH0 PUSH1 0x20 DUP3 ADD SWAP1 POP DUP2 DUP2 SUB PUSH0 DUP4 ADD MSTORE PUSH2 0x20E0 DUP2 PUSH2 0x20A7 JUMP JUMPDEST SWAP1 POP SWAP2 SWAP1 POP JUMP JUMPDEST PUSH32 0x536C69636520706572696F64206D757374206265203E20300000000000000000 PUSH0 DUP3 ADD MSTORE POP JUMP JUMPDEST PUSH0 PUSH2 0x211B PUSH1 0x18 DUP4 PUSH2 0x1D06 JUMP JUMPDEST SWAP2 POP PUSH2 0x2126 DUP3 PUSH2 0x20E7 JUMP JUMPDEST PUSH1 0x20 DUP3 ADD SWAP1 POP SWAP2 SWAP1 POP JUMP JUMPDEST PUSH0 PUSH1 0x20 DUP3 ADD SWAP1 POP DUP2 DUP2 SUB PUSH0 DUP4 ADD MSTORE PUSH2 0x2148 DUP2 PUSH2 0x210F JUMP JUMPDEST SWAP1 POP SWAP2 SWAP1 POP JUMP JUMPDEST PUSH32 0x496E76616C696420636C69666600000000000000000000000000000000000000 PUSH0 DUP3 ADD MSTORE POP JUMP JUMPDEST PUSH0 PUSH2 0x2183 PUSH1 0xD DUP4 PUSH2 0x1D06 JUMP JUMPDEST SWAP2 POP PUSH2 0x218E DUP3 PUSH2 0x214F JUMP JUMPDEST PUSH1 0x20 DUP3 ADD SWAP1 POP SWAP2 SWAP1 POP JUMP JUMPDEST PUSH0 PUSH1 0x20 DUP3 ADD SWAP1 POP DUP2 DUP2 SUB PUSH0 DUP4 ADD MSTORE PUSH2 0x21B0 DUP2 PUSH2 0x2177 JUMP JUMPDEST SWAP1 POP SWAP2 SWAP1 POP JUMP JUMPDEST PUSH32 0x53746172742074696D65203C206E6F7700000000000000000000000000000000 PUSH0 DUP3 ADD MSTORE POP JUMP JUMPDEST PUSH0 PUSH2 0x21EB PUSH1 0x10 DUP4 PUSH2 0x1D06 JUMP JUMPDEST SWAP2 POP PUSH2 0x21F6 DUP3 PUSH2 0x21B7 JUMP JUMPDEST PUSH1 0x20 DUP3 ADD SWAP1 POP SWAP2 SWAP1 POP JUMP JUMPDEST PUSH0 PUSH1 0x20 DUP3 ADD SWAP1 POP DUP2 DUP2 SUB PUSH0 DUP4 ADD MSTORE PUSH2 0x2218 DUP2 PUSH2 0x21DF JUMP JUMPDEST SWAP1 POP SWAP2 SWAP1 POP JUMP JUMPDEST PUSH32 0x4E487B7100000000000000000000000000000000000000000000000000000000 PUSH0 MSTORE PUSH1 0x21 PUSH1 0x4 MSTORE PUSH1 0x24 PUSH0 REVERT JUMPDEST PUSH32 0x45786365656473206D61782076657374696E6700000000000000000000000000 PUSH0 DUP3 ADD MSTORE POP JUMP JUMPDEST PUSH0 PUSH2 0x2280 PUSH1 0x13 DUP4 PUSH2 0x1D06 JUMP JUMPDEST SWAP2 POP PUSH2 0x228B DUP3 PUSH2 0x224C JUMP JUMPDEST PUSH1 0x20 DUP3 ADD SWAP1 POP SWAP2 SWAP1 POP JUMP JUMPDEST PUSH0 PUSH1 0x20 DUP3 ADD SWAP1 POP DUP2 DUP2 SUB PUSH0 DUP4 ADD MSTORE PUSH2 0x22AD DUP2 PUSH2 0x2274 JUMP JUMPDEST SWAP1 POP SWAP2 SWAP1 POP JUMP JUMPDEST PUSH0 PUSH1 0x60 DUP3 ADD SWAP1 POP PUSH2 0x22C7 PUSH0 DUP4 ADD DUP7 PUSH2 0x1C12 JUMP JUMPDEST PUSH2 0x22D4 PUSH1 0x20 DUP4 ADD DUP6 PUSH2 0x1C12 JUMP JUMPDEST PUSH2 0x22E1 PUSH1 0x40 DUP4 ADD DUP5 PUSH2 0x1973 JUMP JUMPDEST SWAP5 SWAP4 POP POP POP POP JUMP JUMPDEST PUSH0 PUSH2 0x22F3 DUP3 PUSH2 0x196A JUMP JUMPDEST SWAP2 POP PUSH32 0xFFFFFFFFFFFFFFFFFFFFFFFFFFFFFFFFFFFFFFFFFFFFFFFFFFFFFFFFFFFFFFFF DUP3 SUB PUSH2 0x2325 JUMPI PUSH2 0x2324 PUSH2 0x1DE6 JUMP JUMPDEST JUMPDEST PUSH1 0x1 DUP3 ADD SWAP1 POP SWAP2 SWAP1 POP JUMP JUMPDEST PUSH1 0x5 DUP2 LT PUSH2 0x2341 JUMPI PUSH2 0x2340 PUSH2 0x221F JUMP JUMPDEST JUMPDEST POP JUMP JUMPDEST PUSH0 DUP2 SWAP1 POP PUSH2 0x2351 DUP3 PUSH2 0x2330 JUMP JUMPDEST SWAP2 SWAP1 POP JUMP JUMPDEST PUSH0 PUSH2 0x2360 DUP3 PUSH2 0x2344 JUMP JUMPDEST SWAP1 POP SWAP2 SWAP1 POP JUMP JUMPDEST PUSH2 0x2370 DUP2 PUSH2 0x2356 JUMP JUMPDEST DUP3 MSTORE POP POP JUMP JUMPDEST PUSH0 PUSH1 0x40 DUP3 ADD SWAP1 POP PUSH2 0x2389 PUSH0 DUP4 ADD DUP6 PUSH2 0x2367 JUMP JUMPDEST PUSH2 0x2396 PUSH1 0x20 DUP4 ADD DUP5 PUSH2 0x1973 JUMP JUMPDEST SWAP4 SWAP3 POP POP POP JUMP JUMPDEST PUSH32 0x496E76616C696420616464726573730000000000000000000000000000000000 PUSH0 DUP3 ADD MSTORE POP JUMP JUMPDEST PUSH0 PUSH2 0x23D1 PUSH1 0xF DUP4 PUSH2 0x1D06 JUMP JUMPDEST SWAP2 POP PUSH2 0x23DC DUP3 PUSH2 0x239D JUMP JUMPDEST PUSH1 0x20 DUP3 ADD SWAP1 POP SWAP2 SWAP1 POP JUMP JUMPDEST PUSH0 PUSH1 0x20 DUP3 ADD SWAP1 POP DUP2 DUP2 SUB PUSH0 DUP4 ADD MSTORE PUSH2 0x23FE DUP2 PUSH2 0x23C5 JUMP JUMPDEST SWAP1 POP SWAP2 SWAP1 POP JUMP JUMPDEST PUSH32 0x4E6F74207265766F6361626C6500000000000000000000000000000000000000 PUSH0 DUP3 ADD MSTORE POP JUMP JUMPDEST PUSH0 PUSH2 0x2439 PUSH1 0xD DUP4 PUSH2 0x1D06 JUMP JUMPDEST SWAP2 POP PUSH2 0x2444 DUP3 PUSH2 0x2405 JUMP JUMPDEST PUSH1 0x20 DUP3 ADD SWAP1 POP SWAP2 SWAP1 POP JUMP JUMPDEST PUSH0 PUSH1 0x20 DUP3 ADD SWAP1 POP DUP2 DUP2 SUB PUSH0 DUP4 ADD MSTORE PUSH2 0x2466 DUP2 PUSH2 0x242D JUMP JUMPDEST SWAP1 POP SWAP2 SWAP1 POP JUMP JUMPDEST PUSH32 0x416C7265616479207265766F6B65640000000000000000000000000000000000 PUSH0 DUP3 ADD MSTORE POP JUMP JUMPDEST PUSH0 PUSH2 0x24A1 PUSH1 0xF DUP4 PUSH2 0x1D06 JUMP JUMPDEST SWAP2 POP PUSH2 0x24AC DUP3 PUSH2 0x246D JUMP JUMPDEST PUSH1 0x20 DUP3 ADD SWAP1 POP SWAP2 SWAP1 POP JUMP JUMPDEST PUSH0 PUSH1 0x20 DUP3 ADD SWAP1 POP DUP2 DUP2 SUB PUSH0 DUP4 ADD MSTORE PUSH2 0x24CE DUP2 PUSH2 0x2495 JUMP JUMPDEST SWAP1 POP SWAP2 SWAP1 POP JUMP JUMPDEST PUSH32 0x4E487B7100000000000000000000000000000000000000000000000000000000 PUSH0 MSTORE PUSH1 0x12 PUSH1 0x4 MSTORE PUSH1 0x24 PUSH0 REVERT JUMPDEST PUSH0 PUSH2 0x250C DUP3 PUSH2 0x196A JUMP JUMPDEST SWAP2 POP PUSH2 0x2517 DUP4 PUSH2 0x196A JUMP JUMPDEST SWAP3 POP DUP3 PUSH2 0x2527 JUMPI PUSH2 0x2526 PUSH2 0x24D5 JUMP JUMPDEST JUMPDEST DUP3 DUP3 DIV SWAP1 POP SWAP3 SWAP2 POP POP JUMP JUMPDEST PUSH0 PUSH2 0x253C DUP3 PUSH2 0x196A JUMP JUMPDEST SWAP2 POP PUSH2 0x2547 DUP4 PUSH2 0x196A JUMP JUMPDEST SWAP3 POP DUP3 DUP3 MUL PUSH2 0x2555 DUP2 PUSH2 0x196A JUMP JUMPDEST SWAP2 POP DUP3 DUP3 DIV DUP5 EQ DUP4 ISZERO OR PUSH2 0x256C JUMPI PUSH2 0x256B PUSH2 0x1DE6 JUMP JUMPDEST JUMPDEST POP SWAP3 SWAP2 POP POP JUMP INVALID LOG2 PUSH5 0x6970667358 0x22 SLT KECCAK256 LOG1 0xBC PUSH10 0x375D4019D8E9697E4EB7 ADDMOD SWAP11 PUSH3 0x746138 0xC0 0xAB CREATE2 POP 0x22 0xD0 0xC5 0x4D CODECOPY SWAP8 0xED LOG0 DUP3 PUSH5 0x736F6C6343 STOP ADDMOD BYTE STOP CALLER "
				},
				"gasEstimates": {
					"creation": {
						"codeDepositCost": "1928200",
						"executionCost": "infinite",
						"totalCost": "infinite"
					},
					"external": {
						"computeReleasableAmount(address,uint256)": "infinite",
						"createVestingSchedule(address,uint8,uint256,uint256,uint256,uint256,uint256,bool)": "infinite",
						"getVestingSchedule(address,uint256)": "infinite",
						"maxVestingByType(uint8)": "2802",
						"owner()": "2582",
						"pause()": "infinite",
						"paused()": "2540",
						"release(uint256)": "infinite",
						"renounceOwnership()": "infinite",
						"revoke(address,uint256)": "infinite",
						"token()": "infinite",
						"totalVestedByType(uint8)": "2736",
						"transferOwnership(address)": "infinite",
						"treasury()": "2597",
						"unpause()": "infinite",
						"updateTreasury(address)": "infinite",
						"vestingScheduleCount(address)": "2891",
						"vestingSchedules(address,uint256)": "infinite",
						"vestingSchedulesCount()": "2447"
					},
					"internal": {
						"_computeVestedAmount(struct TokenVesting.VestingSchedule memory)": "infinite"
					}
				},
				"methodIdentifiers": {
					"computeReleasableAmount(address,uint256)": "fc76977f",
					"createVestingSchedule(address,uint8,uint256,uint256,uint256,uint256,uint256,bool)": "4f86f440",
					"getVestingSchedule(address,uint256)": "bed9757e",
					"maxVestingByType(uint8)": "406a99af",
					"owner()": "8da5cb5b",
					"pause()": "8456cb59",
					"paused()": "5c975abb",
					"release(uint256)": "37bdc99b",
					"renounceOwnership()": "715018a6",
					"revoke(address,uint256)": "eac449d9",
					"token()": "fc0c546a",
					"totalVestedByType(uint8)": "02f622d2",
					"transferOwnership(address)": "f2fde38b",
					"treasury()": "61d027b3",
					"unpause()": "3f4ba83a",
					"updateTreasury(address)": "7f51bb1f",
					"vestingScheduleCount(address)": "a9bb5c4c",
					"vestingSchedules(address,uint256)": "45626bd6",
					"vestingSchedulesCount()": "c741d92f"
				}
			},
			"storageLayout": {
				"storage": [
					{
						"astId": 8,
						"contract": "token/TokenVesting.sol:TokenVesting",
						"label": "_owner",
						"offset": 0,
						"slot": "0",
						"type": "t_address"
					},
					{
						"astId": 435,
						"contract": "token/TokenVesting.sol:TokenVesting",
						"label": "_status",
						"offset": 0,
						"slot": "1",
						"type": "t_uint256"
					},
					{
						"astId": 316,
						"contract": "token/TokenVesting.sol:TokenVesting",
						"label": "_paused",
						"offset": 0,
						"slot": "2",
						"type": "t_bool"
					},
					{
						"astId": 3907,
						"contract": "token/TokenVesting.sol:TokenVesting",
						"label": "token",
						"offset": 1,
						"slot": "2",
						"type": "t_contract(IERC20)225"
					},
					{
						"astId": 3913,
						"contract": "token/TokenVesting.sol:TokenVesting",
						"label": "vestingSchedules",
						"offset": 0,
						"slot": "3",
						"type": "t_mapping(t_address,t_array(t_struct(VestingSchedule)3898_storage)dyn_storage)"
					},
					{
						"astId": 3917,
						"contract": "token/TokenVesting.sol:TokenVesting",
						"label": "vestingScheduleCount",
						"offset": 0,
						"slot": "4",
						"type": "t_mapping(t_address,t_uint256)"
					},
					{
						"astId": 3922,
						"contract": "token/TokenVesting.sol:TokenVesting",
						"label": "totalVestedByType",
						"offset": 0,
						"slot": "5",
						"type": "t_mapping(t_enum(ScheduleType)3904,t_uint256)"
					},
					{
						"astId": 3927,
						"contract": "token/TokenVesting.sol:TokenVesting",
						"label": "maxVestingByType",
						"offset": 0,
						"slot": "6",
						"type": "t_mapping(t_enum(ScheduleType)3904,t_uint256)"
					},
					{
						"astId": 3929,
						"contract": "token/TokenVesting.sol:TokenVesting",
						"label": "vestingSchedulesCount",
						"offset": 0,
						"slot": "7",
						"type": "t_uint256"
					},
					{
						"astId": 3931,
						"contract": "token/TokenVesting.sol:TokenVesting",
						"label": "treasury",
						"offset": 0,
						"slot": "8",
						"type": "t_address"
					}
				],
				"types": {
					"t_address": {
						"encoding": "inplace",
						"label": "address",
						"numberOfBytes": "20"
					},
					"t_array(t_struct(VestingSchedule)3898_storage)dyn_storage": {
						"base": "t_struct(VestingSchedule)3898_storage",
						"encoding": "dynamic_array",
						"label": "struct TokenVesting.VestingSchedule[]",
						"numberOfBytes": "32"
					},
					"t_bool": {
						"encoding": "inplace",
						"label": "bool",
						"numberOfBytes": "1"
					},
					"t_contract(IERC20)225": {
						"encoding": "inplace",
						"label": "contract IERC20",
						"numberOfBytes": "20"
					},
					"t_enum(ScheduleType)3904": {
						"encoding": "inplace",
						"label": "enum TokenVesting.ScheduleType",
						"numberOfBytes": "1"
					},
					"t_mapping(t_address,t_array(t_struct(VestingSchedule)3898_storage)dyn_storage)": {
						"encoding": "mapping",
						"key": "t_address",
						"label": "mapping(address => struct TokenVesting.VestingSchedule[])",
						"numberOfBytes": "32",
						"value": "t_array(t_struct(VestingSchedule)3898_storage)dyn_storage"
					},
					"t_mapping(t_address,t_uint256)": {
						"encoding": "mapping",
						"key": "t_address",
						"label": "mapping(address => uint256)",
						"numberOfBytes": "32",
						"value": "t_uint256"
					},
					"t_mapping(t_enum(ScheduleType)3904,t_uint256)": {
						"encoding": "mapping",
						"key": "t_enum(ScheduleType)3904",
						"label": "mapping(enum TokenVesting.ScheduleType => uint256)",
						"numberOfBytes": "32",
						"value": "t_uint256"
					},
					"t_struct(VestingSchedule)3898_storage": {
						"encoding": "inplace",
						"label": "struct TokenVesting.VestingSchedule",
						"members": [
							{
								"astId": 3883,
								"contract": "token/TokenVesting.sol:TokenVesting",
								"label": "totalAmount",
								"offset": 0,
								"slot": "0",
								"type": "t_uint256"
							},
							{
								"astId": 3885,
								"contract": "token/TokenVesting.sol:TokenVesting",
								"label": "releasedAmount",
								"offset": 0,
								"slot": "1",
								"type": "t_uint256"
							},
							{
								"astId": 3887,
								"contract": "token/TokenVesting.sol:TokenVesting",
								"label": "startTime",
								"offset": 0,
								"slot": "2",
								"type": "t_uint256"
							},
							{
								"astId": 3889,
								"contract": "token/TokenVesting.sol:TokenVesting",
								"label": "duration",
								"offset": 0,
								"slot": "3",
								"type": "t_uint256"
							},
							{
								"astId": 3891,
								"contract": "token/TokenVesting.sol:TokenVesting",
								"label": "cliffDuration",
								"offset": 0,
								"slot": "4",
								"type": "t_uint256"
							},
							{
								"astId": 3893,
								"contract": "token/TokenVesting.sol:TokenVesting",
								"label": "slicePeriod",
								"offset": 0,
								"slot": "5",
								"type": "t_uint256"
							},
							{
								"astId": 3895,
								"contract": "token/TokenVesting.sol:TokenVesting",
								"label": "revocable",
								"offset": 0,
								"slot": "6",
								"type": "t_bool"
							},
							{
								"astId": 3897,
								"contract": "token/TokenVesting.sol:TokenVesting",
								"label": "revoked",
								"offset": 1,
								"slot": "6",
								"type": "t_bool"
							}
						],
						"numberOfBytes": "224"
					},
					"t_uint256": {
						"encoding": "inplace",
						"label": "uint256",
						"numberOfBytes": "32"
					}
				}
			},
			"userdoc": {
				"kind": "user",
				"methods": {
					"constructor": {
						"notice": "Constructor"
					},
					"createVestingSchedule(address,uint8,uint256,uint256,uint256,uint256,uint256,bool)": {
						"notice": "Create a new vesting schedule"
					},
					"release(uint256)": {
						"notice": "Release vested tokens for a schedule"
					},
					"revoke(address,uint256)": {
						"notice": "Revoke a vesting schedule"
					},
					"updateTreasury(address)": {
						"notice": "Update treasury address"
					}
				},
				"notice": "Manages token vesting schedules for CipherZeroToken",
				"version": 1
			}
		}
	}
}