{
	"data": {
		"bytecode": {
			"linkReferences": {},
			"object": "60806040526001600960156101000a81548160ff0219169083151502179055506969e10de76676d0800000600d5569d3c21bcecceda1000000600e5569d3c21bcecceda1000000600f556040518060a0016040528060028152602001600281526020016002815260200160028152602001600281525060105f820151815f01556020820151816001015560408201518160020155606082015181600301556080820151816004015550506040518060a0016040528060038152602001600381526020016003815260200160018152602001600381525060155f820151815f01556020820151816001015560408201518160020155606082015181600301556080820151816004015550506008601a55600a601b5534801561011e575f80fd5b5060405161f19e38038061f19e83398181016040528101906101409190610c6e565b6040518060400160405280600a81526020017f4369706865725a65726f000000000000000000000000000000000000000000008152506040518060400160405280600381526020017f435a54000000000000000000000000000000000000000000000000000000000081525081600390816101bb9190610f0c565b5080600490816101cb9190610f0c565b5050505f6101dd61065160201b60201c565b90508060055f6101000a81548173ffffffffffffffffffffffffffffffffffffffff021916908373ffffffffffffffffffffffffffffffffffffffff1602179055508073ffffffffffffffffffffffffffffffffffffffff165f73ffffffffffffffffffffffffffffffffffffffff167f8be0079c531659141344cd1fd0a4f28419497f9722a3daafe3b4186f6b6457e060405160405180910390a3508360085f6101000a81548173ffffffffffffffffffffffffffffffffffffffff021916908373ffffffffffffffffffffffffffffffffffffffff16021790555081600a5f6101000a81548173ffffffffffffffffffffffffffffffffffffffff021916908373ffffffffffffffffffffffffffffffffffffffff16021790555080600b5f6101000a81548173ffffffffffffffffffffffffffffffffffffffff021916908373ffffffffffffffffffffffffffffffffffffffff16021790555060405161034690610c03565b604051809103905ff08015801561035f573d5f803e3d5ffd5b5060095f6101000a81548173ffffffffffffffffffffffffffffffffffffffff021916908373ffffffffffffffffffffffffffffffffffffffff1602179055505f8390505f8173ffffffffffffffffffffffffffffffffffffffff1663c45a01556040518163ffffffff1660e01b8152600401602060405180830381865afa1580156103ed573d5f803e3d5ffd5b505050506040513d601f19601f820116820180604052508101906104119190610fdb565b73ffffffffffffffffffffffffffffffffffffffff1663c9c65396308473ffffffffffffffffffffffffffffffffffffffff1663ad5c46486040518163ffffffff1660e01b8152600401602060405180830381865afa158015610476573d5f803e3d5ffd5b505050506040513d601f19601f8201168201806040525081019061049a9190610fdb565b6040518363ffffffff1660e01b81526004016104b7929190611015565b6020604051808303815f875af11580156104d3573d5f803e3d5ffd5b505050506040513d601f19601f820116820180604052508101906104f79190610fdb565b90508160065f6101000a81548173ffffffffffffffffffffffffffffffffffffffff021916908373ffffffffffffffffffffffffffffffffffffffff1602179055508060075f6101000a81548173ffffffffffffffffffffffffffffffffffffffff021916908373ffffffffffffffffffffffffffffffffffffffff16021790555061058a81600161065860201b60201c565b6105a861059b61081660201b60201c565b600161083e60201b60201c565b6105b930600161083e60201b60201c565b6105eb600a5f9054906101000a900473ffffffffffffffffffffffffffffffffffffffff16600161083e60201b60201c565b61061d600b5f9054906101000a900473ffffffffffffffffffffffffffffffffffffffff16600161083e60201b60201c565b61064661062e61081660201b60201c565b6b033b2e3c9fd0803ce8000000610a0f60201b60201c565b505050505050611382565b5f33905090565b801515601f5f8473ffffffffffffffffffffffffffffffffffffffff1673ffffffffffffffffffffffffffffffffffffffff1681526020019081526020015f205f9054906101000a900460ff161515036106e7576040517f08c379a00000000000000000000000000000000000000000000000000000000081526004016106de906110bc565b60405180910390fd5b80601f5f8473ffffffffffffffffffffffffffffffffffffffff1673ffffffffffffffffffffffffffffffffffffffff1681526020019081526020015f205f6101000a81548160ff02191690831515021790555080156107cc5760095f9054906101000a900473ffffffffffffffffffffffffffffffffffffffff1673ffffffffffffffffffffffffffffffffffffffff16630483f7a08360016040518363ffffffff1660e01b815260040161079e9291906110f4565b5f604051808303815f87803b1580156107b5575f80fd5b505af11580156107c7573d5f803e3d5ffd5b505050505b8015158273ffffffffffffffffffffffffffffffffffffffff167fffa9187bf1f18bf477bd0ea1bcbb64e93b6a98132473929edfce215cd9b16fab60405160405180910390a35050565b5f60055f9054906101000a900473ffffffffffffffffffffffffffffffffffffffff16905090565b61084c61065160201b60201c565b73ffffffffffffffffffffffffffffffffffffffff1660055f9054906101000a900473ffffffffffffffffffffffffffffffffffffffff1673ffffffffffffffffffffffffffffffffffffffff16146108da576040517f08c379a00000000000000000000000000000000000000000000000000000000081526004016108d190611165565b60405180910390fd5b801515601e5f8473ffffffffffffffffffffffffffffffffffffffff1673ffffffffffffffffffffffffffffffffffffffff1681526020019081526020015f205f9054906101000a900460ff16151503610969576040517f08c379a0000000000000000000000000000000000000000000000000000000008152600401610960906111f3565b60405180910390fd5b80601e5f8473ffffffffffffffffffffffffffffffffffffffff1673ffffffffffffffffffffffffffffffffffffffff1681526020019081526020015f205f6101000a81548160ff0219169083151502179055508173ffffffffffffffffffffffffffffffffffffffff167f9d8f7706ea1113d1a167b526eca956215946dd36cc7df39eb16180222d8b5df782604051610a039190611211565b60405180910390a25050565b5f73ffffffffffffffffffffffffffffffffffffffff168273ffffffffffffffffffffffffffffffffffffffff1603610a7d576040517f08c379a0000000000000000000000000000000000000000000000000000000008152600401610a7490611274565b60405180910390fd5b610a8e5f8383610ba160201b60201c565b610aa381600254610ba660201b90919060201c565b600281905550610af8815f808573ffffffffffffffffffffffffffffffffffffffff1673ffffffffffffffffffffffffffffffffffffffff1681526020019081526020015f2054610ba660201b90919060201c565b5f808473ffffffffffffffffffffffffffffffffffffffff1673ffffffffffffffffffffffffffffffffffffffff1681526020019081526020015f20819055508173ffffffffffffffffffffffffffffffffffffffff165f73ffffffffffffffffffffffffffffffffffffffff167fddf252ad1be2c89b69c2b068fc378daa952ba7f163c4a11628f55a4df523b3ef83604051610b9591906112a1565b60405180910390a35050565b505050565b5f808284610bb491906112e7565b905083811015610bf9576040517f08c379a0000000000000000000000000000000000000000000000000000000008152600401610bf090611364565b60405180910390fd5b8091505092915050565b6141e48061afba83390190565b5f80fd5b5f73ffffffffffffffffffffffffffffffffffffffff82169050919050565b5f610c3d82610c14565b9050919050565b610c4d81610c33565b8114610c57575f80fd5b50565b5f81519050610c6881610c44565b92915050565b5f805f8060808587031215610c8657610c85610c10565b5b5f610c9387828801610c5a565b9450506020610ca487828801610c5a565b9350506040610cb587828801610c5a565b9250506060610cc687828801610c5a565b91505092959194509250565b5f81519050919050565b7f4e487b71000000000000000000000000000000000000000000000000000000005f52604160045260245ffd5b7f4e487b71000000000000000000000000000000000000000000000000000000005f52602260045260245ffd5b5f6002820490506001821680610d4d57607f821691505b602082108103610d6057610d5f610d09565b5b50919050565b5f819050815f5260205f209050919050565b5f6020601f8301049050919050565b5f82821b905092915050565b5f60088302610dc27fffffffffffffffffffffffffffffffffffffffffffffffffffffffffffffffff82610d87565b610dcc8683610d87565b95508019841693508086168417925050509392505050565b5f819050919050565b5f819050919050565b5f610e10610e0b610e0684610de4565b610ded565b610de4565b9050919050565b5f819050919050565b610e2983610df6565b610e3d610e3582610e17565b848454610d93565b825550505050565b5f90565b610e51610e45565b610e5c818484610e20565b505050565b5b81811015610e7f57610e745f82610e49565b600181019050610e62565b5050565b601f821115610ec457610e9581610d66565b610e9e84610d78565b81016020851015610ead578190505b610ec1610eb985610d78565b830182610e61565b50505b505050565b5f82821c905092915050565b5f610ee45f1984600802610ec9565b1980831691505092915050565b5f610efc8383610ed5565b9150826002028217905092915050565b610f1582610cd2565b67ffffffffffffffff811115610f2e57610f2d610cdc565b5b610f388254610d36565b610f43828285610e83565b5f60209050601f831160018114610f74575f8415610f62578287015190505b610f6c8582610ef1565b865550610fd3565b601f198416610f8286610d66565b5f5b82811015610fa957848901518255600182019150602085019450602081019050610f84565b86831015610fc65784890151610fc2601f891682610ed5565b8355505b6001600288020188555050505b505050505050565b5f60208284031215610ff057610fef610c10565b5b5f610ffd84828501610c5a565b91505092915050565b61100f81610c33565b82525050565b5f6040820190506110285f830185611006565b6110356020830184611006565b9392505050565b5f82825260208201905092915050565b7f564952414c3a204175746f6d61746564206d61726b6574206d616b65722070615f8201527f697220697320616c72656164792073657420746f20746861742076616c756500602082015250565b5f6110a6603f8361103c565b91506110b18261104c565b604082019050919050565b5f6020820190508181035f8301526110d38161109a565b9050919050565b5f8115159050919050565b6110ee816110da565b82525050565b5f6040820190506111075f830185611006565b61111460208301846110e5565b9392505050565b7f4f776e61626c653a2063616c6c6572206973206e6f7420746865206f776e65725f82015250565b5f61114f60208361103c565b915061115a8261111b565b602082019050919050565b5f6020820190508181035f83015261117c81611143565b9050919050565b7f564952414c3a204163636f756e7420697320616c7265616479207468652076615f8201527f6c7565206f6620276578636c7564656427000000000000000000000000000000602082015250565b5f6111dd60318361103c565b91506111e882611183565b604082019050919050565b5f6020820190508181035f83015261120a816111d1565b9050919050565b5f6020820190506112245f8301846110e5565b92915050565b7f45524332303a206d696e7420746f20746865207a65726f2061646472657373005f82015250565b5f61125e601f8361103c565b91506112698261122a565b602082019050919050565b5f6020820190508181035f83015261128b81611252565b9050919050565b61129b81610de4565b82525050565b5f6020820190506112b45f830184611292565b92915050565b7f4e487b71000000000000000000000000000000000000000000000000000000005f52601160045260245ffd5b5f6112f182610de4565b91506112fc83610de4565b9250828201905080821115611314576113136112ba565b5b92915050565b7f536166654d6174683a206164646974696f6e206f766572666c6f7700000000005f82015250565b5f61134e601b8361103c565b91506113598261131a565b602082019050919050565b5f6020820190508181035f83015261137b81611342565b9050919050565b619c2b8061138f5f395ff3fe6080604052600436106104d9575f3560e01c806379b447bd11610280578063abb8105211610159578063cb865d20116100cb578063e11c336811610084578063e11c3368146113b1578063e2f45605146113c7578063ede6ad9c146113f1578063f2fde38b14611419578063f66895a314611441578063f887ea401461146f576104e0565b8063cb865d2014611283578063d4320f9c146112bf578063d6df096d146112e7578063d77d63ed14611311578063dd62ed3e1461134d578063e01af92c14611389576104e0565b8063b83b297f1161011d578063b83b297f1461117f578063c0246668146111a7578063c30a0f25146111cf578063c492f0461461120b578063c791fc5414611233578063c851cc321461125b576104e0565b8063abb8105214611079578063af1271ef146110b5578063afa4f3b2146110f1578063afc5738714611119578063b62496f514611143576104e0565b806395d89b41116101f2578063a83f89e4116101b6578063a83f89e414610f4b578063a8602fea14610f73578063a8aa1b3114610f9b578063a8b9d24014610fc5578063a9059cbb14611001578063aafd847a1461103d576104e0565b806395d89b4114610e565780639a7a23d614610e805780639a9ffbca14610ea8578063a23bb65d14610ee7578063a457c2d714610f0f576104e0565b806388bdd9be1161024457806388bdd9be14610d6057806388e765ff14610d885780638c9684f914610db25780638da5cb5b14610dda5780638ea5220f14610e0457806392929a0914610e2e576104e0565b806379b447bd14610c68578063807ab4f714610c9057806385a6b3ae14610ccc57806386384be614610cf6578063864701a514610d32576104e0565b80633495acca116103b25780634e7b827f116103245780636a474002116102e85780636a47400214610b865780636a678a9c14610b9c5780636ddd171314610bc4578063706f693714610bee57806370a0823114610c16578063715018a614610c52576104e0565b80634e7b827f14610a7e5780634fbee19314610aba5780635fcbd28514610af657806366d602ae14610b205780636843cd8414610b4a576104e0565b806344b6bd9e1161037657806344b6bd9e1461099a5780634626402b146109c257806346469afb146109ec5780634ab5392b14610a165780634ada218b14610a3e5780634e71d92d14610a68576104e0565b80633495acca146108a857806339509351146108d05780633a984bc51461090c578063400cee7a1461093657806340ac48d314610972576104e0565b80631f53ac021161044b5780632866ed211161040f5780632866ed21146107ae5780632c1f5216146107d8578063303e715f1461080257806330bb4cff1461082c578063313ce56714610856578063342aa8b514610880576104e0565b80631f53ac0214610696578063206137aa146106be578063226cfa3d146106fa57806323b872dd1461073657806327ce014714610772576104e0565b80630bd05b691161049d5780630bd05b69146105c25780631162c4b6146105d857806312b77e8a1461060257806318160ddd146106185780631bff7898146106425780631ecc12d41461066c576104e0565b806301d38886146104e45780630483f7a01461050c57806306fdde0314610534578063095ea7b31461055e5780630a78097d1461059a576104e0565b366104e057005b5f80fd5b3480156104ef575f80fd5b5061050a6004803603810190610505919061733e565b611499565b005b348015610517575f80fd5b50610532600480360381019061052d919061739e565b6115e0565b005b34801561053f575f80fd5b50610548611703565b604051610555919061744c565b60405180910390f35b348015610569575f80fd5b50610584600480360381019061057f919061749f565b611793565b60405161059191906174ec565b60405180910390f35b3480156105a5575f80fd5b506105c060048036038101906105bb919061733e565b6117b0565b005b3480156105cd575f80fd5b506105d6611b18565b005b3480156105e3575f80fd5b506105ec611c1b565b6040516105f99190617514565b60405180910390f35b34801561060d575f80fd5b50610616611c40565b005b348015610623575f80fd5b5061062c611e0e565b604051610639919061753c565b60405180910390f35b34801561064d575f80fd5b50610656611e17565b604051610663919061753c565b60405180910390f35b348015610677575f80fd5b50610680611e1d565b60405161068d919061753c565b60405180910390f35b3480156106a1575f80fd5b506106bc60048036038101906106b7919061733e565b611e23565b005b3480156106c9575f80fd5b506106e460048036038101906106df9190617588565b611efc565b6040516106f191906174ec565b60405180910390f35b348015610705575f80fd5b50610720600480360381019061071b919061733e565b611f19565b60405161072d919061753c565b60405180910390f35b348015610741575f80fd5b5061075c600480360381019061075791906175b3565b611f2e565b60405161076991906174ec565b60405180910390f35b34801561077d575f80fd5b506107986004803603810190610793919061733e565b612002565b6040516107a5919061753c565b60405180910390f35b3480156107b9575f80fd5b506107c2612084565b6040516107cf91906174ec565b60405180910390f35b3480156107e3575f80fd5b506107ec612096565b6040516107f9919061765e565b60405180910390f35b34801561080d575f80fd5b506108166120bb565b60405161082391906174ec565b60405180910390f35b348015610837575f80fd5b506108406120ce565b60405161084d919061753c565b60405180910390f35b348015610861575f80fd5b5061086a612162565b6040516108779190617692565b60405180910390f35b34801561088b575f80fd5b506108a660048036038101906108a1919061739e565b61216a565b005b3480156108b3575f80fd5b506108ce60048036038101906108c991906176ab565b6122b0565b005b3480156108db575f80fd5b506108f660048036038101906108f1919061749f565b612363565b60405161090391906174ec565b60405180910390f35b348015610917575f80fd5b50610920612411565b60405161092d919061753c565b60405180910390f35b348015610941575f80fd5b5061095c6004803603810190610957919061733e565b612416565b60405161096991906174ec565b60405180910390f35b34801561097d575f80fd5b50610998600480360381019061099391906176d6565b612433565b005b3480156109a5575f80fd5b506109c060048036038101906109bb919061733e565b6125cf565b005b3480156109cd575f80fd5b506109d66126a8565b6040516109e39190617514565b60405180910390f35b3480156109f7575f80fd5b50610a006126cd565b604051610a0d919061753c565b60405180910390f35b348015610a21575f80fd5b50610a3c6004803603810190610a37919061776f565b6126d3565b005b348015610a49575f80fd5b50610a52612917565b604051610a5f91906174ec565b60405180910390f35b348015610a73575f80fd5b50610a7c61292a565b005b348015610a89575f80fd5b50610aa46004803603810190610a9f919061733e565b612b7a565b604051610ab191906174ec565b60405180910390f35b348015610ac5575f80fd5b50610ae06004803603810190610adb919061733e565b612b97565b604051610aed91906174ec565b60405180910390f35b348015610b01575f80fd5b50610b0a612be9565b604051610b179190617514565b60405180910390f35b348015610b2b575f80fd5b50610b34612c0e565b604051610b41919061753c565b60405180910390f35b348015610b55575f80fd5b50610b706004803603810190610b6b919061733e565b612c14565b604051610b7d919061753c565b60405180910390f35b348015610b91575f80fd5b50610b9a612cb5565b005b348015610ba7575f80fd5b50610bc26004803603810190610bbd919061733e565b612d5d565b005b348015610bcf575f80fd5b50610bd8612f24565b604051610be591906174ec565b60405180910390f35b348015610bf9575f80fd5b50610c146004803603810190610c0f91906179b6565b612f37565b005b348015610c21575f80fd5b50610c3c6004803603810190610c37919061733e565b61306d565b604051610c49919061753c565b60405180910390f35b348015610c5d575f80fd5b50610c666130b2565b005b348015610c73575f80fd5b50610c8e6004803603810190610c899190617a2c565b613205565b005b348015610c9b575f80fd5b50610cb66004803603810190610cb19190617aa5565b6132d3565b604051610cc391906174ec565b60405180910390f35b348015610cd7575f80fd5b50610ce0613568565b604051610ced919061753c565b60405180910390f35b348015610d01575f80fd5b50610d1c6004803603810190610d17919061733e565b61356e565b604051610d2991906174ec565b60405180910390f35b348015610d3d575f80fd5b50610d466136bd565b604051610d57959493929190617ad0565b60405180910390f35b348015610d6b575f80fd5b50610d866004803603810190610d81919061733e565b6136e0565b005b348015610d93575f80fd5b50610d9c613b07565b604051610da9919061753c565b60405180910390f35b348015610dbd575f80fd5b50610dd86004803603810190610dd3919061733e565b613b0d565b005b348015610de5575f80fd5b50610dee613cc5565b604051610dfb9190617514565b60405180910390f35b348015610e0f575f80fd5b50610e18613ced565b604051610e259190617514565b60405180910390f35b348015610e39575f80fd5b50610e546004803603810190610e4f91906176ab565b613d12565b005b348015610e61575f80fd5b50610e6a613dc4565b604051610e77919061744c565b60405180910390f35b348015610e8b575f80fd5b50610ea66004803603810190610ea1919061739e565b613e54565b005b348015610eb3575f80fd5b50610ece6004803603810190610ec99190617b21565b613ef8565b604051610ede9493929190617b5b565b60405180910390f35b348015610ef2575f80fd5b50610f0d6004803603810190610f089190617bf7565b613f23565b005b348015610f1a575f80fd5b50610f356004803603810190610f30919061749f565b61418a565b604051610f4291906174ec565b60405180910390f35b348015610f56575f80fd5b50610f716004803603810190610f6c9190617c54565b614252565b005b348015610f7e575f80fd5b50610f996004803603810190610f94919061733e565b6144aa565b005b348015610fa6575f80fd5b50610faf614583565b604051610fbc9190617514565b60405180910390f35b348015610fd0575f80fd5b50610feb6004803603810190610fe6919061733e565b6145a8565b604051610ff8919061753c565b60405180910390f35b34801561100c575f80fd5b506110276004803603810190611022919061749f565b614649565b60405161103491906174ec565b60405180910390f35b348015611048575f80fd5b50611063600480360381019061105e919061733e565b614666565b604051611070919061753c565b60405180910390f35b348015611084575f80fd5b5061109f600480360381019061109a919061733e565b6146ac565b6040516110ac91906174ec565b60405180910390f35b3480156110c0575f80fd5b506110db60048036038101906110d69190617cc5565b6146c9565b6040516110e891906174ec565b60405180910390f35b3480156110fc575f80fd5b5061111760048036038101906111129190617b21565b6146f3565b005b348015611124575f80fd5b5061112d6147a6565b60405161113a919061753c565b60405180910390f35b34801561114e575f80fd5b506111696004803603810190611164919061733e565b6147b3565b60405161117691906174ec565b60405180910390f35b34801561118a575f80fd5b506111a560048036038101906111a09190617d03565b6147d0565b005b3480156111b2575f80fd5b506111cd60048036038101906111c8919061739e565b6148f1565b005b3480156111da575f80fd5b506111f560048036038101906111f09190617588565b614abc565b60405161120291906174ec565b60405180910390f35b348015611216575f80fd5b50611231600480360381019061122c9190617db2565b614ad9565b005b34801561123e575f80fd5b50611259600480360381019061125491906176d6565b614c45565b005b348015611266575f80fd5b50611281600480360381019061127c919061733e565b614de1565b005b34801561128e575f80fd5b506112a960048036038101906112a49190617cc5565b614ffa565b6040516112b691906174ec565b60405180910390f35b3480156112ca575f80fd5b506112e560048036038101906112e09190617e64565b615024565b005b3480156112f2575f80fd5b506112fb615230565b6040516113089190617ecf565b60405180910390f35b34801561131c575f80fd5b5061133760048036038101906113329190617b21565b615255565b604051611344919061753c565b60405180910390f35b348015611358575f80fd5b50611373600480360381019061136e9190617ee8565b615275565b604051611380919061753c565b60405180910390f35b348015611394575f80fd5b506113af60048036038101906113aa91906176ab565b6152f7565b005b3480156113bc575f80fd5b506113c56153aa565b005b3480156113d2575f80fd5b506113db6154d0565b6040516113e8919061753c565b60405180910390f35b3480156113fc575f80fd5b5061141760048036038101906114129190617b21565b6154d6565b005b348015611424575f80fd5b5061143f600480360381019061143a919061733e565b615557565b005b34801561144c575f80fd5b50611455615719565b604051611466959493929190617ad0565b60405180910390f35b34801561147a575f80fd5b5061148361573c565b6040516114909190617f46565b60405180910390f35b6114a1615761565b73ffffffffffffffffffffffffffffffffffffffff1660055f9054906101000a900473ffffffffffffffffffffffffffffffffffffffff1673ffffffffffffffffffffffffffffffffffffffff161461152f576040517f08c379a000000000000000000000000000000000000000000000000000000000815260040161152690617fa9565b60405180910390fd5b5f73ffffffffffffffffffffffffffffffffffffffff168173ffffffffffffffffffffffffffffffffffffffff160361159d576040517f08c379a000000000000000000000000000000000000000000000000000000000815260040161159490618011565b60405180910390fd5b8060085f6101000a81548173ffffffffffffffffffffffffffffffffffffffff021916908373ffffffffffffffffffffffffffffffffffffffff16021790555050565b6115e8615761565b73ffffffffffffffffffffffffffffffffffffffff1660055f9054906101000a900473ffffffffffffffffffffffffffffffffffffffff1673ffffffffffffffffffffffffffffffffffffffff1614611676576040517f08c379a000000000000000000000000000000000000000000000000000000000815260040161166d90617fa9565b60405180910390fd5b60095f9054906101000a900473ffffffffffffffffffffffffffffffffffffffff1673ffffffffffffffffffffffffffffffffffffffff16630483f7a083836040518363ffffffff1660e01b81526004016116d292919061802f565b5f604051808303815f87803b1580156116e9575f80fd5b505af11580156116fb573d5f803e3d5ffd5b505050505050565b60606003805461171290618083565b80601f016020809104026020016040519081016040528092919081815260200182805461173e90618083565b80156117895780601f1061176057610100808354040283529160200191611789565b820191905f5260205f20905b81548152906001019060200180831161176c57829003601f168201915b5050505050905090565b5f6117a661179f615761565b8484615768565b6001905092915050565b6117b8615761565b73ffffffffffffffffffffffffffffffffffffffff1660055f9054906101000a900473ffffffffffffffffffffffffffffffffffffffff1673ffffffffffffffffffffffffffffffffffffffff1614611846576040517f08c379a000000000000000000000000000000000000000000000000000000000815260040161183d90617fa9565b60405180910390fd5b3073ffffffffffffffffffffffffffffffffffffffff168173ffffffffffffffffffffffffffffffffffffffff16036118b4576040517f08c379a00000000000000000000000000000000000000000000000000000000081526004016118ab906180fd565b60405180910390fd5b60095f9054906101000a900473ffffffffffffffffffffffffffffffffffffffff1673ffffffffffffffffffffffffffffffffffffffff168173ffffffffffffffffffffffffffffffffffffffff1603611943576040517f08c379a000000000000000000000000000000000000000000000000000000000815260040161193a90618165565b60405180910390fd5b5f8190505f8173ffffffffffffffffffffffffffffffffffffffff166370a08231306040518263ffffffff1660e01b81526004016119819190617514565b602060405180830381865afa15801561199c573d5f803e3d5ffd5b505050506040513d601f19601f820116820180604052508101906119c09190618197565b90505f8111611a04576040517f08c379a00000000000000000000000000000000000000000000000000000000081526004016119fb9061820c565b60405180910390fd5b8173ffffffffffffffffffffffffffffffffffffffff1663a9059cbb611a28613cc5565b836040518363ffffffff1660e01b8152600401611a4692919061822a565b6020604051808303815f875af1158015611a62573d5f803e3d5ffd5b505050506040513d601f19601f82011682018060405250810190611a869190618265565b611ac5576040517f08c379a0000000000000000000000000000000000000000000000000000000008152600401611abc906182da565b60405180910390fd5b8273ffffffffffffffffffffffffffffffffffffffff167f68f67de89e96b13a3ea058af5fd44cc125efceb528482d539c7b43db2faa066e82604051611b0b919061753c565b60405180910390a2505050565b611b20615761565b73ffffffffffffffffffffffffffffffffffffffff1660055f9054906101000a900473ffffffffffffffffffffffffffffffffffffffff1673ffffffffffffffffffffffffffffffffffffffff1614611bae576040517f08c379a0000000000000000000000000000000000000000000000000000000008152600401611ba590617fa9565b60405180910390fd5b600960179054906101000a900460ff1615611bfe576040517f08c379a0000000000000000000000000000000000000000000000000000000008152600401611bf590618342565b60405180910390fd5b6001600960176101000a81548160ff021916908315150217905550565b60275f9054906101000a900473ffffffffffffffffffffffffffffffffffffffff1681565b611c48613cc5565b73ffffffffffffffffffffffffffffffffffffffff163373ffffffffffffffffffffffffffffffffffffffff161480611ccd5750600a5f9054906101000a900473ffffffffffffffffffffffffffffffffffffffff1673ffffffffffffffffffffffffffffffffffffffff163373ffffffffffffffffffffffffffffffffffffffff16145b611d0c576040517f08c379a0000000000000000000000000000000000000000000000000000000008152600401611d03906183aa565b60405180910390fd5b5f4711611d4e576040517f08c379a0000000000000000000000000000000000000000000000000000000008152600401611d4590618412565b60405180910390fd5b5f479050611d9c81600a5f9054906101000a900473ffffffffffffffffffffffffffffffffffffffff1673ffffffffffffffffffffffffffffffffffffffff1661592b90919063ffffffff16565b600a5f9054906101000a900473ffffffffffffffffffffffffffffffffffffffff1673ffffffffffffffffffffffffffffffffffffffff167f05af21d7340bf49fde03a32c3bcc785015c94acd83531fc6dfbfb93a24c364ca82604051611e03919061753c565b60405180910390a250565b5f600254905090565b601b5481565b610e1081565b611e2b615761565b73ffffffffffffffffffffffffffffffffffffffff1660055f9054906101000a900473ffffffffffffffffffffffffffffffffffffffff1673ffffffffffffffffffffffffffffffffffffffff1614611eb9576040517f08c379a0000000000000000000000000000000000000000000000000000000008152600401611eb090617fa9565b60405180910390fd5b80600b5f6101000a81548173ffffffffffffffffffffffffffffffffffffffff021916908373ffffffffffffffffffffffffffffffffffffffff16021790555050565b601c602052805f5260405f205f915054906101000a900460ff1681565b602d602052805f5260405f205f915090505481565b5f611f3a848484615a1b565b611ff784611f46615761565b611ff285604051806060016040528060288152602001619ba96028913960015f8b73ffffffffffffffffffffffffffffffffffffffff1673ffffffffffffffffffffffffffffffffffffffff1681526020019081526020015f205f611fa9615761565b73ffffffffffffffffffffffffffffffffffffffff1673ffffffffffffffffffffffffffffffffffffffff1681526020019081526020015f20546163429092919063ffffffff16565b615768565b600190509392505050565b5f70010000000000000000000000000000000060295f8473ffffffffffffffffffffffffffffffffffffffff1673ffffffffffffffffffffffffffffffffffffffff1681526020019081526020015f205461205c8461306d565b602854612069919061845d565b61207391906184a7565b61207d9190618515565b9050919050565b60255f9054906101000a900460ff1681565b60095f9054906101000a900473ffffffffffffffffffffffffffffffffffffffff1681565b600960169054906101000a900460ff1681565b5f60095f9054906101000a900473ffffffffffffffffffffffffffffffffffffffff1673ffffffffffffffffffffffffffffffffffffffff166385a6b3ae6040518163ffffffff1660e01b8152600401602060405180830381865afa158015612139573d5f803e3d5ffd5b505050506040513d601f19601f8201168201806040525081019061215d9190618197565b905090565b5f6012905090565b612172615761565b73ffffffffffffffffffffffffffffffffffffffff1660055f9054906101000a900473ffffffffffffffffffffffffffffffffffffffff1673ffffffffffffffffffffffffffffffffffffffff1614612200576040517f08c379a00000000000000000000000000000000000000000000000000000000081526004016121f790617fa9565b60405180910390fd5b80151560265f8473ffffffffffffffffffffffffffffffffffffffff1673ffffffffffffffffffffffffffffffffffffffff1681526020019081526020015f205f9054906101000a900460ff16151503612258575f80fd5b8060265f8473ffffffffffffffffffffffffffffffffffffffff1673ffffffffffffffffffffffffffffffffffffffff1681526020019081526020015f205f6101000a81548160ff0219169083151502179055505050565b6122b8615761565b73ffffffffffffffffffffffffffffffffffffffff1660055f9054906101000a900473ffffffffffffffffffffffffffffffffffffffff1673ffffffffffffffffffffffffffffffffffffffff1614612346576040517f08c379a000000000000000000000000000000000000000000000000000000000815260040161233d90617fa9565b60405180910390fd5b80600960166101000a81548160ff02191690831515021790555050565b5f61240761236f615761565b846124028560015f61237f615761565b73ffffffffffffffffffffffffffffffffffffffff1673ffffffffffffffffffffffffffffffffffffffff1681526020019081526020015f205f8973ffffffffffffffffffffffffffffffffffffffff1673ffffffffffffffffffffffffffffffffffffffff1681526020019081526020015f20546163a490919063ffffffff16565b615768565b6001905092915050565b600381565b601d602052805f5260405f205f915054906101000a900460ff1681565b61243b615761565b73ffffffffffffffffffffffffffffffffffffffff1660055f9054906101000a900473ffffffffffffffffffffffffffffffffffffffff1673ffffffffffffffffffffffffffffffffffffffff16146124c9576040517f08c379a00000000000000000000000000000000000000000000000000000000081526004016124c090617fa9565b60405180910390fd5b601481838587896124da9190618545565b6124e49190618545565b6124ee9190618545565b6124f89190618545565b1115612539576040517f08c379a0000000000000000000000000000000000000000000000000000000008152600401612530906185c2565b60405180910390fd5b6040518060a001604052808681526020018581526020018481526020018381526020018281525060105f820151815f01556020820151816001015560408201518160020155606082015181600301556080820151816004015590505080828486886125a49190618545565b6125ae9190618545565b6125b89190618545565b6125c29190618545565b601a819055505050505050565b6125d7615761565b73ffffffffffffffffffffffffffffffffffffffff1660055f9054906101000a900473ffffffffffffffffffffffffffffffffffffffff1673ffffffffffffffffffffffffffffffffffffffff1614612665576040517f08c379a000000000000000000000000000000000000000000000000000000000815260040161265c90617fa9565b60405180910390fd5b8060275f6101000a81548173ffffffffffffffffffffffffffffffffffffffff021916908373ffffffffffffffffffffffffffffffffffffffff16021790555050565b600a5f9054906101000a900473ffffffffffffffffffffffffffffffffffffffff1681565b601a5481565b600960169054906101000a900460ff16612722576040517f08c379a00000000000000000000000000000000000000000000000000000000081526004016127199061862a565b60405180910390fd5b601c5f825f013581526020019081526020015f205f9054906101000a900460ff1615612783576040517f08c379a000000000000000000000000000000000000000000000000000000000815260040161277a90618692565b60405180910390fd5b60085f9054906101000a900473ffffffffffffffffffffffffffffffffffffffff1673ffffffffffffffffffffffffffffffffffffffff16630e03f596825f013583602001358460800135338660600160208101906127e2919061733e565b8780604001906127f291906186bc565b6040518863ffffffff1660e01b81526004016128149796959493929190618768565b602060405180830381865afa15801561282f573d5f803e3d5ffd5b505050506040513d601f19601f820116820180604052508101906128539190618265565b612892576040517f08c379a00000000000000000000000000000000000000000000000000000000081526004016128899061881a565b60405180910390fd5b6001601c5f835f013581526020019081526020015f205f6101000a81548160ff0219169083151502179055506128df338260600160208101906128d5919061733e565b8360800135615a1b565b8060200135815f01357fd2be5e1af978a60ae9cef2f81d49f263e289dcc7026ebb9ddf427cdd00e6cac960405160405180910390a350565b600960179054906101000a900460ff1681565b60255f9054906101000a900460ff16612978576040517f08c379a000000000000000000000000000000000000000000000000000000000815260040161296f90618882565b60405180910390fd5b600960149054906101000a900460ff16156129c8576040517f08c379a00000000000000000000000000000000000000000000000000000000081526004016129bf906188ea565b60405180910390fd5b601f5f60075f9054906101000a900473ffffffffffffffffffffffffffffffffffffffff1673ffffffffffffffffffffffffffffffffffffffff1673ffffffffffffffffffffffffffffffffffffffff1681526020019081526020015f205f9054906101000a900460ff16612a72576040517f08c379a0000000000000000000000000000000000000000000000000000000008152600401612a6990618952565b60405180910390fd5b601e5f3373ffffffffffffffffffffffffffffffffffffffff1673ffffffffffffffffffffffffffffffffffffffff1681526020019081526020015f205f9054906101000a900460ff1615612afc576040517f08c379a0000000000000000000000000000000000000000000000000000000008152600401612af3906189ba565b60405180910390fd5b60095f9054906101000a900473ffffffffffffffffffffffffffffffffffffffff1673ffffffffffffffffffffffffffffffffffffffff16636a4740026040518163ffffffff1660e01b81526004015f604051808303815f87803b158015612b62575f80fd5b505af1158015612b74573d5f803e3d5ffd5b50505050565b602c602052805f5260405f205f915054906101000a900460ff1681565b5f601e5f8373ffffffffffffffffffffffffffffffffffffffff1673ffffffffffffffffffffffffffffffffffffffff1681526020019081526020015f205f9054906101000a900460ff169050919050565b600c5f9054906101000a900473ffffffffffffffffffffffffffffffffffffffff1681565b600f5481565b5f60095f9054906101000a900473ffffffffffffffffffffffffffffffffffffffff1673ffffffffffffffffffffffffffffffffffffffff166370a08231836040518263ffffffff1660e01b8152600401612c6f9190617514565b602060405180830381865afa158015612c8a573d5f803e3d5ffd5b505050506040513d601f19601f82011682018060405250810190612cae9190618197565b9050919050565b5f612cbf33616401565b90505f811115612d5a5742602d5f3373ffffffffffffffffffffffffffffffffffffffff1673ffffffffffffffffffffffffffffffffffffffff1681526020019081526020015f20819055503373ffffffffffffffffffffffffffffffffffffffff167f47cee97cb7acd717b3c0aa1435d004cd5b3c8c57d70dbceb4e4458bbd60e39d482604051612d51919061753c565b60405180910390a25b50565b612d65615761565b73ffffffffffffffffffffffffffffffffffffffff1660055f9054906101000a900473ffffffffffffffffffffffffffffffffffffffff1673ffffffffffffffffffffffffffffffffffffffff1614612df3576040517f08c379a0000000000000000000000000000000000000000000000000000000008152600401612dea90617fa9565b60405180910390fd5b5f73ffffffffffffffffffffffffffffffffffffffff168173ffffffffffffffffffffffffffffffffffffffff1603612e61576040517f08c379a0000000000000000000000000000000000000000000000000000000008152600401612e5890618a22565b60405180910390fd5b5f600c5f9054906101000a900473ffffffffffffffffffffffffffffffffffffffff16905081600c5f6101000a81548173ffffffffffffffffffffffffffffffffffffffff021916908373ffffffffffffffffffffffffffffffffffffffff1602179055508173ffffffffffffffffffffffffffffffffffffffff168173ffffffffffffffffffffffffffffffffffffffff167f412e366d3d7a7438fac75038e9f3bcc5edf4e8fa4b761fbee9ac5324ccb4b3ba60405160405180910390a35050565b600960159054906101000a900460ff1681565b612f3f615761565b73ffffffffffffffffffffffffffffffffffffffff1660055f9054906101000a900473ffffffffffffffffffffffffffffffffffffffff1673ffffffffffffffffffffffffffffffffffffffff1614612fcd576040517f08c379a0000000000000000000000000000000000000000000000000000000008152600401612fc490617fa9565b60405180910390fd5b8051825114613011576040517f08c379a000000000000000000000000000000000000000000000000000000000815260040161300890618a8a565b60405180910390fd5b5f5b82518110156130685761305b3384838151811061303357613032618aa8565b5b602002602001015184848151811061304e5761304d618aa8565b5b6020026020010151616603565b8080600101915050613013565b505050565b5f805f8373ffffffffffffffffffffffffffffffffffffffff1673ffffffffffffffffffffffffffffffffffffffff1681526020019081526020015f20549050919050565b6130ba615761565b73ffffffffffffffffffffffffffffffffffffffff1660055f9054906101000a900473ffffffffffffffffffffffffffffffffffffffff1673ffffffffffffffffffffffffffffffffffffffff1614613148576040517f08c379a000000000000000000000000000000000000000000000000000000000815260040161313f90617fa9565b60405180910390fd5b5f73ffffffffffffffffffffffffffffffffffffffff1660055f9054906101000a900473ffffffffffffffffffffffffffffffffffffffff1673ffffffffffffffffffffffffffffffffffffffff167f8be0079c531659141344cd1fd0a4f28419497f9722a3daafe3b4186f6b6457e060405160405180910390a35f60055f6101000a81548173ffffffffffffffffffffffffffffffffffffffff021916908373ffffffffffffffffffffffffffffffffffffffff160217905550565b61320d615761565b73ffffffffffffffffffffffffffffffffffffffff1660055f9054906101000a900473ffffffffffffffffffffffffffffffffffffffff1673ffffffffffffffffffffffffffffffffffffffff161461329b576040517f08c379a000000000000000000000000000000000000000000000000000000000815260040161329290617fa9565b60405180910390fd5b670de0b6b3a7640000826132af919061845d565b600e81905550670de0b6b3a7640000816132c9919061845d565b600f819055505050565b5f6132dc615761565b73ffffffffffffffffffffffffffffffffffffffff1660055f9054906101000a900473ffffffffffffffffffffffffffffffffffffffff1673ffffffffffffffffffffffffffffffffffffffff161461336a576040517f08c379a000000000000000000000000000000000000000000000000000000000815260040161336190617fa9565b60405180910390fd5b5f73ffffffffffffffffffffffffffffffffffffffff168273ffffffffffffffffffffffffffffffffffffffff16036133d8576040517f08c379a00000000000000000000000000000000000000000000000000000000081526004016133cf90618b1f565b60405180910390fd5b602c5f8373ffffffffffffffffffffffffffffffffffffffff1673ffffffffffffffffffffffffffffffffffffffff1681526020019081526020015f205f9054906101000a900460ff1615613462576040517f08c379a000000000000000000000000000000000000000000000000000000000815260040161345990618b87565b60405180910390fd5b5f61346c83616401565b90505f81111561355e5742602d5f8573ffffffffffffffffffffffffffffffffffffffff1673ffffffffffffffffffffffffffffffffffffffff1681526020019081526020015f20819055508273ffffffffffffffffffffffffffffffffffffffff167f47cee97cb7acd717b3c0aa1435d004cd5b3c8c57d70dbceb4e4458bbd60e39d4826040516134fe919061753c565b60405180910390a28273ffffffffffffffffffffffffffffffffffffffff167f6dc3229b225e3910b3249ad879803a4ecc9cb8622975b0e34b367c36bf92b01a8260405161354c919061753c565b60405180910390a26001915050613563565b5f9150505b919050565b602b5481565b5f613577615761565b73ffffffffffffffffffffffffffffffffffffffff1660055f9054906101000a900473ffffffffffffffffffffffffffffffffffffffff1673ffffffffffffffffffffffffffffffffffffffff1614613605576040517f08c379a00000000000000000000000000000000000000000000000000000000081526004016135fc90617fa9565b60405180910390fd5b5f61360f83616401565b90505f8111156136b35742602d5f8573ffffffffffffffffffffffffffffffffffffffff1673ffffffffffffffffffffffffffffffffffffffff1681526020019081526020015f20819055508273ffffffffffffffffffffffffffffffffffffffff167f47cee97cb7acd717b3c0aa1435d004cd5b3c8c57d70dbceb4e4458bbd60e39d4826040516136a1919061753c565b60405180910390a260019150506136b8565b5f9150505b919050565b6010805f0154908060010154908060020154908060030154908060040154905085565b6136e8615761565b73ffffffffffffffffffffffffffffffffffffffff1660055f9054906101000a900473ffffffffffffffffffffffffffffffffffffffff1673ffffffffffffffffffffffffffffffffffffffff1614613776576040517f08c379a000000000000000000000000000000000000000000000000000000000815260040161376d90617fa9565b60405180910390fd5b5f73ffffffffffffffffffffffffffffffffffffffff168173ffffffffffffffffffffffffffffffffffffffff16036137e4576040517f08c379a00000000000000000000000000000000000000000000000000000000081526004016137db90618a22565b60405180910390fd5b60095f9054906101000a900473ffffffffffffffffffffffffffffffffffffffff1673ffffffffffffffffffffffffffffffffffffffff168173ffffffffffffffffffffffffffffffffffffffff1603613873576040517f08c379a000000000000000000000000000000000000000000000000000000000815260040161386a90618bef565b60405180910390fd5b5f8190508073ffffffffffffffffffffffffffffffffffffffff16630483f7a08260016040518363ffffffff1660e01b81526004016138b392919061802f565b5f604051808303815f87803b1580156138ca575f80fd5b505af11580156138dc573d5f803e3d5ffd5b505050508073ffffffffffffffffffffffffffffffffffffffff16630483f7a03060016040518363ffffffff1660e01b815260040161391c92919061802f565b5f604051808303815f87803b158015613933575f80fd5b505af1158015613945573d5f803e3d5ffd5b505050508073ffffffffffffffffffffffffffffffffffffffff16630483f7a061396d613cc5565b60016040518363ffffffff1660e01b815260040161398c92919061802f565b5f604051808303815f87803b1580156139a3575f80fd5b505af11580156139b5573d5f803e3d5ffd5b505050508073ffffffffffffffffffffffffffffffffffffffff16630483f7a060065f9054906101000a900473ffffffffffffffffffffffffffffffffffffffff1660016040518363ffffffff1660e01b8152600401613a1692919061802f565b5f604051808303815f87803b158015613a2d575f80fd5b505af1158015613a3f573d5f803e3d5ffd5b505050505f60095f9054906101000a900473ffffffffffffffffffffffffffffffffffffffff1690508160095f6101000a81548173ffffffffffffffffffffffffffffffffffffffff021916908373ffffffffffffffffffffffffffffffffffffffff1602179055508273ffffffffffffffffffffffffffffffffffffffff168173ffffffffffffffffffffffffffffffffffffffff167fdab7e227381106009c2eb953811a49c7e30de8e9eb12e2aedb79b25c22f474b960405160405180910390a3505050565b600e5481565b613b15615761565b73ffffffffffffffffffffffffffffffffffffffff1660055f9054906101000a900473ffffffffffffffffffffffffffffffffffffffff1673ffffffffffffffffffffffffffffffffffffffff1614613ba3576040517f08c379a0000000000000000000000000000000000000000000000000000000008152600401613b9a90617fa9565b60405180910390fd5b60095f9054906101000a900473ffffffffffffffffffffffffffffffffffffffff1673ffffffffffffffffffffffffffffffffffffffff168173ffffffffffffffffffffffffffffffffffffffff1603613c32576040517f08c379a0000000000000000000000000000000000000000000000000000000008152600401613c2990618165565b60405180910390fd5b60095f9054906101000a900473ffffffffffffffffffffffffffffffffffffffff1673ffffffffffffffffffffffffffffffffffffffff1663497ec823613c77613cc5565b836040518363ffffffff1660e01b8152600401613c95929190618c0d565b5f604051808303815f87803b158015613cac575f80fd5b505af1158015613cbe573d5f803e3d5ffd5b5050505050565b5f60055f9054906101000a900473ffffffffffffffffffffffffffffffffffffffff16905090565b600b5f9054906101000a900473ffffffffffffffffffffffffffffffffffffffff1681565b613d1a615761565b73ffffffffffffffffffffffffffffffffffffffff1660055f9054906101000a900473ffffffffffffffffffffffffffffffffffffffff1673ffffffffffffffffffffffffffffffffffffffff1614613da8576040517f08c379a0000000000000000000000000000000000000000000000000000000008152600401613d9f90617fa9565b60405180910390fd5b8060255f6101000a81548160ff02191690831515021790555050565b606060048054613dd390618083565b80601f0160208091040260200160405190810160405280929190818152602001828054613dff90618083565b8015613e4a5780601f10613e2157610100808354040283529160200191613e4a565b820191905f5260205f20905b815481529060010190602001808311613e2d57829003601f168201915b5050505050905090565b613e5c615761565b73ffffffffffffffffffffffffffffffffffffffff1660055f9054906101000a900473ffffffffffffffffffffffffffffffffffffffff1673ffffffffffffffffffffffffffffffffffffffff1614613eea576040517f08c379a0000000000000000000000000000000000000000000000000000000008152600401613ee190617fa9565b60405180910390fd5b613ef4828261688c565b5050565b60208052805f5260405f205f91509050805f0154908060010154908060020154908060030154905084565b683635c9adc5dea00000831015613f6f576040517f08c379a0000000000000000000000000000000000000000000000000000000008152600401613f6690618c7e565b60405180910390fd5b601d5f3373ffffffffffffffffffffffffffffffffffffffff1673ffffffffffffffffffffffffffffffffffffffff1681526020019081526020015f205f9054906101000a900460ff1615613ff9576040517f08c379a0000000000000000000000000000000000000000000000000000000008152600401613ff090618ce6565b60405180910390fd5b60085f9054906101000a900473ffffffffffffffffffffffffffffffffffffffff1673ffffffffffffffffffffffffffffffffffffffff16637c2a810d843385856040518563ffffffff1660e01b81526004016140599493929190618d04565b602060405180830381865afa158015614074573d5f803e3d5ffd5b505050506040513d601f19601f820116820180604052508101906140989190618265565b6140d7576040517f08c379a00000000000000000000000000000000000000000000000000000000081526004016140ce90618d8c565b60405180910390fd5b6001601d5f3373ffffffffffffffffffffffffffffffffffffffff1673ffffffffffffffffffffffffffffffffffffffff1681526020019081526020015f205f6101000a81548160ff021916908315150217905550614137333085615a1b565b3373ffffffffffffffffffffffffffffffffffffffff167f04df062aab8277b8e784bca8eb041d3e1937cb6f58f03964ece7dc1b33e2869c8460405161417d919061753c565b60405180910390a2505050565b5f614248614196615761565b8461424385604051806060016040528060258152602001619bd16025913960015f6141bf615761565b73ffffffffffffffffffffffffffffffffffffffff1673ffffffffffffffffffffffffffffffffffffffff1681526020019081526020015f205f8a73ffffffffffffffffffffffffffffffffffffffff1673ffffffffffffffffffffffffffffffffffffffff1681526020019081526020015f20546163429092919063ffffffff16565b615768565b6001905092915050565b5f60205f8681526020019081526020015f2090505f60235f8781526020019081526020015f2080549050116142bc576040517f08c379a00000000000000000000000000000000000000000000000000000000081526004016142b390618df4565b60405180910390fd5b60225f8681526020019081526020015f205f8581526020019081526020015f205f9054906101000a900460ff1615614329576040517f08c379a000000000000000000000000000000000000000000000000000000000815260040161432090618e5c565b60405180910390fd5b60085f9054906101000a900473ffffffffffffffffffffffffffffffffffffffff1673ffffffffffffffffffffffffffffffffffffffff16637d4cf5c884848785600301548a336040518763ffffffff1660e01b815260040161439196959493929190618e7a565b602060405180830381865afa1580156143ac573d5f803e3d5ffd5b505050506040513d601f19601f820116820180604052508101906143d09190618265565b61440f576040517f08c379a000000000000000000000000000000000000000000000000000000000815260040161440690618f1e565b60405180910390fd5b600160225f8781526020019081526020015f205f8681526020019081526020015f205f6101000a81548160ff02191690831515021790555084815f015f8282546144599190618f3c565b9250508190555061446b303387615a1b565b847f3346bcee7e32b3102c1a31ffcdf51cde8cbeb24b8ef41c6facddd3e6af7248d68560405161449b9190618f6f565b60405180910390a25050505050565b6144b2615761565b73ffffffffffffffffffffffffffffffffffffffff1660055f9054906101000a900473ffffffffffffffffffffffffffffffffffffffff1673ffffffffffffffffffffffffffffffffffffffff1614614540576040517f08c379a000000000000000000000000000000000000000000000000000000000815260040161453790617fa9565b60405180910390fd5b80600a5f6101000a81548173ffffffffffffffffffffffffffffffffffffffff021916908373ffffffffffffffffffffffffffffffffffffffff16021790555050565b60075f9054906101000a900473ffffffffffffffffffffffffffffffffffffffff1681565b5f60095f9054906101000a900473ffffffffffffffffffffffffffffffffffffffff1673ffffffffffffffffffffffffffffffffffffffff1663a8b9d240836040518263ffffffff1660e01b81526004016146039190617514565b602060405180830381865afa15801561461e573d5f803e3d5ffd5b505050506040513d601f19601f820116820180604052508101906146429190618197565b9050919050565b5f61465c614655615761565b8484615a1b565b6001905092915050565b5f602a5f8373ffffffffffffffffffffffffffffffffffffffff1673ffffffffffffffffffffffffffffffffffffffff1681526020019081526020015f20549050919050565b6026602052805f5260405f205f915054906101000a900460ff1681565b6022602052815f5260405f20602052805f5260405f205f915091509054906101000a900460ff1681565b6146fb615761565b73ffffffffffffffffffffffffffffffffffffffff1660055f9054906101000a900473ffffffffffffffffffffffffffffffffffffffff1673ffffffffffffffffffffffffffffffffffffffff1614614789576040517f08c379a000000000000000000000000000000000000000000000000000000000815260040161478090617fa9565b60405180910390fd5b670de0b6b3a76400008161479d919061845d565b600d8190555050565b683635c9adc5dea0000081565b601f602052805f5260405f205f915054906101000a900460ff1681565b6147d8615761565b73ffffffffffffffffffffffffffffffffffffffff1660055f9054906101000a900473ffffffffffffffffffffffffffffffffffffffff1673ffffffffffffffffffffffffffffffffffffffff1614614866576040517f08c379a000000000000000000000000000000000000000000000000000000000815260040161485d90617fa9565b60405180910390fd5b5f5b82518110156148ec578160265f85848151811061488857614887618aa8565b5b602002602001015173ffffffffffffffffffffffffffffffffffffffff1673ffffffffffffffffffffffffffffffffffffffff1681526020019081526020015f205f6101000a81548160ff0219169083151502179055508080600101915050614868565b505050565b6148f9615761565b73ffffffffffffffffffffffffffffffffffffffff1660055f9054906101000a900473ffffffffffffffffffffffffffffffffffffffff1673ffffffffffffffffffffffffffffffffffffffff1614614987576040517f08c379a000000000000000000000000000000000000000000000000000000000815260040161497e90617fa9565b60405180910390fd5b801515601e5f8473ffffffffffffffffffffffffffffffffffffffff1673ffffffffffffffffffffffffffffffffffffffff1681526020019081526020015f205f9054906101000a900460ff16151503614a16576040517f08c379a0000000000000000000000000000000000000000000000000000000008152600401614a0d90618ff8565b60405180910390fd5b80601e5f8473ffffffffffffffffffffffffffffffffffffffff1673ffffffffffffffffffffffffffffffffffffffff1681526020019081526020015f205f6101000a81548160ff0219169083151502179055508173ffffffffffffffffffffffffffffffffffffffff167f9d8f7706ea1113d1a167b526eca956215946dd36cc7df39eb16180222d8b5df782604051614ab091906174ec565b60405180910390a25050565b602e602052805f5260405f205f915054906101000a900460ff1681565b614ae1615761565b73ffffffffffffffffffffffffffffffffffffffff1660055f9054906101000a900473ffffffffffffffffffffffffffffffffffffffff1673ffffffffffffffffffffffffffffffffffffffff1614614b6f576040517f08c379a0000000000000000000000000000000000000000000000000000000008152600401614b6690617fa9565b60405180910390fd5b5f5b83839050811015614c045781601e5f868685818110614b9357614b92618aa8565b5b9050602002016020810190614ba8919061733e565b73ffffffffffffffffffffffffffffffffffffffff1673ffffffffffffffffffffffffffffffffffffffff1681526020019081526020015f205f6101000a81548160ff0219169083151502179055508080600101915050614b71565b507f7fdaf542373fa84f4ee8d662c642f44e4c2276a217d7d29e548b6eb29a233b35838383604051614c38939291906190d2565b60405180910390a1505050565b614c4d615761565b73ffffffffffffffffffffffffffffffffffffffff1660055f9054906101000a900473ffffffffffffffffffffffffffffffffffffffff1673ffffffffffffffffffffffffffffffffffffffff1614614cdb576040517f08c379a0000000000000000000000000000000000000000000000000000000008152600401614cd290617fa9565b60405180910390fd5b60148183858789614cec9190618545565b614cf69190618545565b614d009190618545565b614d0a9190618545565b1115614d4b576040517f08c379a0000000000000000000000000000000000000000000000000000000008152600401614d42906185c2565b60405180910390fd5b6040518060a001604052808681526020018581526020018481526020018381526020018281525060155f820151815f0155602082015181600101556040820151816002015560608201518160030155608082015181600401559050508082848688614db69190618545565b614dc09190618545565b614dca9190618545565b614dd49190618545565b601b819055505050505050565b614de9615761565b73ffffffffffffffffffffffffffffffffffffffff1660055f9054906101000a900473ffffffffffffffffffffffffffffffffffffffff1673ffffffffffffffffffffffffffffffffffffffff1614614e77576040517f08c379a0000000000000000000000000000000000000000000000000000000008152600401614e6e90617fa9565b60405180910390fd5b5f73ffffffffffffffffffffffffffffffffffffffff168173ffffffffffffffffffffffffffffffffffffffff1603614ee5576040517f08c379a0000000000000000000000000000000000000000000000000000000008152600401614edc90618a22565b60405180910390fd5b60065f9054906101000a900473ffffffffffffffffffffffffffffffffffffffff1673ffffffffffffffffffffffffffffffffffffffff168173ffffffffffffffffffffffffffffffffffffffff1603614f74576040517f08c379a0000000000000000000000000000000000000000000000000000000008152600401614f6b90618bef565b60405180910390fd5b8060065f6101000a81548173ffffffffffffffffffffffffffffffffffffffff021916908373ffffffffffffffffffffffffffffffffffffffff1602179055508073ffffffffffffffffffffffffffffffffffffffff167f7aed1d3e8155a07ccf395e44ea3109a0e2d6c9b29bbbe9f142d9790596f4dc8060405160405180910390a250565b6021602052815f5260405f20602052805f5260405f205f915091509054906101000a900460ff1681565b61502c615761565b73ffffffffffffffffffffffffffffffffffffffff1660055f9054906101000a900473ffffffffffffffffffffffffffffffffffffffff1673ffffffffffffffffffffffffffffffffffffffff16146150ba576040517f08c379a00000000000000000000000000000000000000000000000000000000081526004016150b190617fa9565b60405180910390fd5b5f60248054905014615101576040517f08c379a00000000000000000000000000000000000000000000000000000000081526004016150f89061914c565b60405180910390fd5b5f5b8282905081101561522b575f83838381811061512257615121618aa8565b5b9050602002013511615169576040517f08c379a0000000000000000000000000000000000000000000000000000000008152600401615160906191b4565b60405180910390fd5b602483838381811061517e5761517d618aa8565b5b90506020020135908060018154018082558091505060019003905f5260205f20015f909190919091505560405180608001604052805f81526020015f81526020015f81526020015f801b81525060205f8585858181106151e1576151e0618aa8565b5b9050602002013581526020019081526020015f205f820151815f01556020820151816001015560408201518160020155606082015181600301559050508080600101915050615103565b505050565b60085f9054906101000a900473ffffffffffffffffffffffffffffffffffffffff1681565b60248181548110615264575f80fd5b905f5260205f20015f915090505481565b5f60015f8473ffffffffffffffffffffffffffffffffffffffff1673ffffffffffffffffffffffffffffffffffffffff1681526020019081526020015f205f8373ffffffffffffffffffffffffffffffffffffffff1673ffffffffffffffffffffffffffffffffffffffff1681526020019081526020015f2054905092915050565b6152ff615761565b73ffffffffffffffffffffffffffffffffffffffff1660055f9054906101000a900473ffffffffffffffffffffffffffffffffffffffff1673ffffffffffffffffffffffffffffffffffffffff161461538d576040517f08c379a000000000000000000000000000000000000000000000000000000000815260040161538490617fa9565b60405180910390fd5b80600960156101000a81548160ff02191690831515021790555050565b6153b2615761565b73ffffffffffffffffffffffffffffffffffffffff1660055f9054906101000a900473ffffffffffffffffffffffffffffffffffffffff1673ffffffffffffffffffffffffffffffffffffffff1614615440576040517f08c379a000000000000000000000000000000000000000000000000000000000815260040161543790617fa9565b60405180910390fd5b60095f9054906101000a900473ffffffffffffffffffffffffffffffffffffffff1673ffffffffffffffffffffffffffffffffffffffff16633b36a1d7615485613cc5565b6040518263ffffffff1660e01b81526004016154a19190617514565b5f604051808303815f87803b1580156154b8575f80fd5b505af11580156154ca573d5f803e3d5ffd5b50505050565b600d5481565b6154de613cc5565b73ffffffffffffffffffffffffffffffffffffffff163373ffffffffffffffffffffffffffffffffffffffff161461554b576040517f08c379a00000000000000000000000000000000000000000000000000000000081526004016155429061921c565b60405180910390fd5b61555481616a4a565b50565b61555f615761565b73ffffffffffffffffffffffffffffffffffffffff1660055f9054906101000a900473ffffffffffffffffffffffffffffffffffffffff1673ffffffffffffffffffffffffffffffffffffffff16146155ed576040517f08c379a00000000000000000000000000000000000000000000000000000000081526004016155e490617fa9565b60405180910390fd5b5f73ffffffffffffffffffffffffffffffffffffffff168173ffffffffffffffffffffffffffffffffffffffff160361565b576040517f08c379a0000000000000000000000000000000000000000000000000000000008152600401615652906192aa565b60405180910390fd5b8073ffffffffffffffffffffffffffffffffffffffff1660055f9054906101000a900473ffffffffffffffffffffffffffffffffffffffff1673ffffffffffffffffffffffffffffffffffffffff167f8be0079c531659141344cd1fd0a4f28419497f9722a3daafe3b4186f6b6457e060405160405180910390a38060055f6101000a81548173ffffffffffffffffffffffffffffffffffffffff021916908373ffffffffffffffffffffffffffffffffffffffff16021790555050565b6015805f0154908060010154908060020154908060030154908060040154905085565b60065f9054906101000a900473ffffffffffffffffffffffffffffffffffffffff1681565b5f33905090565b5f73ffffffffffffffffffffffffffffffffffffffff168373ffffffffffffffffffffffffffffffffffffffff16036157d6576040517f08c379a00000000000000000000000000000000000000000000000000000000081526004016157cd90619338565b60405180910390fd5b5f73ffffffffffffffffffffffffffffffffffffffff168273ffffffffffffffffffffffffffffffffffffffff1603615844576040517f08c379a000000000000000000000000000000000000000000000000000000000815260040161583b906193c6565b60405180910390fd5b8060015f8573ffffffffffffffffffffffffffffffffffffffff1673ffffffffffffffffffffffffffffffffffffffff1681526020019081526020015f205f8473ffffffffffffffffffffffffffffffffffffffff1673ffffffffffffffffffffffffffffffffffffffff1681526020019081526020015f20819055508173ffffffffffffffffffffffffffffffffffffffff168373ffffffffffffffffffffffffffffffffffffffff167f8c5be1e5ebec7d5bd14f71427d1e84f3dd0314c0f7b2291e5b200ac8c7c3b9258360405161591e919061753c565b60405180910390a3505050565b8047101561596e576040517f08c379a00000000000000000000000000000000000000000000000000000000081526004016159659061942e565b60405180910390fd5b5f8273ffffffffffffffffffffffffffffffffffffffff168260405161599390619479565b5f6040518083038185875af1925050503d805f81146159cd576040519150601f19603f3d011682016040523d82523d5f602084013e6159d2565b606091505b5050905080615a16576040517f08c379a0000000000000000000000000000000000000000000000000000000008152600401615a0d906194fd565b60405180910390fd5b505050565b5f73ffffffffffffffffffffffffffffffffffffffff168373ffffffffffffffffffffffffffffffffffffffff1603615a89576040517f08c379a0000000000000000000000000000000000000000000000000000000008152600401615a809061958b565b60405180910390fd5b5f73ffffffffffffffffffffffffffffffffffffffff168273ffffffffffffffffffffffffffffffffffffffff1603615af7576040517f08c379a0000000000000000000000000000000000000000000000000000000008152600401615aee90619619565b60405180910390fd5b601e5f8473ffffffffffffffffffffffffffffffffffffffff1673ffffffffffffffffffffffffffffffffffffffff1681526020019081526020015f205f9054906101000a900460ff16158015615b955750601e5f8373ffffffffffffffffffffffffffffffffffffffff1673ffffffffffffffffffffffffffffffffffffffff1681526020019081526020015f205f9054906101000a900460ff16155b8015615bae5750600960149054906101000a900460ff16155b15615e0f57600960179054906101000a900460ff16615c02576040517f08c379a0000000000000000000000000000000000000000000000000000000008152600401615bf990619681565b60405180910390fd5b60265f8473ffffffffffffffffffffffffffffffffffffffff1673ffffffffffffffffffffffffffffffffffffffff1681526020019081526020015f205f9054906101000a900460ff16158015615ca0575060265f8373ffffffffffffffffffffffffffffffffffffffff1673ffffffffffffffffffffffffffffffffffffffff1681526020019081526020015f205f9054906101000a900460ff16155b615cdf576040517f08c379a0000000000000000000000000000000000000000000000000000000008152600401615cd6906196e9565b60405180910390fd5b601f5f8373ffffffffffffffffffffffffffffffffffffffff1673ffffffffffffffffffffffffffffffffffffffff1681526020019081526020015f205f9054906101000a900460ff1615615d7857600f54811115615d73576040517f08c379a0000000000000000000000000000000000000000000000000000000008152600401615d6a90619751565b60405180910390fd5b615e0e565b601f5f8473ffffffffffffffffffffffffffffffffffffffff1673ffffffffffffffffffffffffffffffffffffffff1681526020019081526020015f205f9054906101000a900460ff1615615e0d57600e54811115615e0c576040517f08c379a0000000000000000000000000000000000000000000000000000000008152600401615e03906197b9565b60405180910390fd5b5b5b5b5f8103615e2657615e2183835f616603565b61633d565b5f615e303061306d565b90505f600d548210159050808015615e555750600960149054906101000a900460ff16155b8015615e6d5750600960159054906101000a900460ff165b8015615ebf5750601f5f8573ffffffffffffffffffffffffffffffffffffffff1673ffffffffffffffffffffffffffffffffffffffff1681526020019081526020015f205f9054906101000a900460ff165b8015615f125750601e5f8673ffffffffffffffffffffffffffffffffffffffff1673ffffffffffffffffffffffffffffffffffffffff1681526020019081526020015f205f9054906101000a900460ff16155b8015615f655750601e5f8573ffffffffffffffffffffffffffffffffffffffff1673ffffffffffffffffffffffffffffffffffffffff1681526020019081526020015f205f9054906101000a900460ff16155b15615fb6576001600960146101000a81548160ff0219169083151502179055505f601b541115615f9b57615f9a600d54616b43565b5b5f600960146101000a81548160ff0219169083151502179055505b5f600960149054906101000a900460ff16159050601e5f8773ffffffffffffffffffffffffffffffffffffffff1673ffffffffffffffffffffffffffffffffffffffff1681526020019081526020015f205f9054906101000a900460ff16806160655750601e5f8673ffffffffffffffffffffffffffffffffffffffff1673ffffffffffffffffffffffffffffffffffffffff1681526020019081526020015f205f9054906101000a900460ff165b1561606e575f90505b601f5f8673ffffffffffffffffffffffffffffffffffffffff1673ffffffffffffffffffffffffffffffffffffffff1681526020019081526020015f205f9054906101000a900460ff1615801561610c5750601f5f8773ffffffffffffffffffffffffffffffffffffffff1673ffffffffffffffffffffffffffffffffffffffff1681526020019081526020015f205f9054906101000a900460ff16155b15616115575f90505b8015616214575f601f5f8773ffffffffffffffffffffffffffffffffffffffff1673ffffffffffffffffffffffffffffffffffffffff1681526020019081526020015f205f9054906101000a900460ff161561618c576064601b548661617b919061845d565b6161859190618515565b90506161f9565b601f5f8873ffffffffffffffffffffffffffffffffffffffff1673ffffffffffffffffffffffffffffffffffffffff1681526020019081526020015f205f9054906101000a900460ff16156161f8576064601a54866161eb919061845d565b6161f59190618515565b90505b5b80856162059190618f3c565b9450616212873083616603565b505b61621f868686616603565b60095f9054906101000a900473ffffffffffffffffffffffffffffffffffffffff1673ffffffffffffffffffffffffffffffffffffffff1663e30443bc876162668961306d565b6040518363ffffffff1660e01b815260040161628392919061822a565b5f604051808303815f87803b15801561629a575f80fd5b505af19250505080156162ab575060015b5060095f9054906101000a900473ffffffffffffffffffffffffffffffffffffffff1673ffffffffffffffffffffffffffffffffffffffff1663e30443bc866162f38861306d565b6040518363ffffffff1660e01b815260040161631092919061822a565b5f604051808303815f87803b158015616327575f80fd5b505af1925050508015616338575060015b505050505b505050565b5f838311158290616389576040517f08c379a0000000000000000000000000000000000000000000000000000000008152600401616380919061744c565b60405180910390fd5b505f83856163979190618f3c565b9050809150509392505050565b5f8082846163b29190618545565b9050838110156163f7576040517f08c379a00000000000000000000000000000000000000000000000000000000081526004016163ee90619821565b60405180910390fd5b8091505092915050565b5f8061640c836145a8565b90505f8111156165f95780602a5f8573ffffffffffffffffffffffffffffffffffffffff1673ffffffffffffffffffffffffffffffffffffffff1681526020019081526020015f205461645f9190618545565b602a5f8573ffffffffffffffffffffffffffffffffffffffff1673ffffffffffffffffffffffffffffffffffffffff1681526020019081526020015f20819055508273ffffffffffffffffffffffffffffffffffffffff167fee503bee2bb6a87e57bc57db795f98137327401a0e7b7ce42e37926cc1a9ca4d826040516164e6919061753c565b60405180910390a25f8373ffffffffffffffffffffffffffffffffffffffff168260405161651390619479565b5f6040518083038185875af1925050503d805f811461654d576040519150601f19603f3d011682016040523d82523d5f602084013e616552565b606091505b50509050806165ef5781602a5f8673ffffffffffffffffffffffffffffffffffffffff1673ffffffffffffffffffffffffffffffffffffffff1681526020019081526020015f20546165a49190618f3c565b602a5f8673ffffffffffffffffffffffffffffffffffffffff1673ffffffffffffffffffffffffffffffffffffffff1681526020019081526020015f20819055505f925050506165fe565b81925050506165fe565b5f9150505b919050565b5f73ffffffffffffffffffffffffffffffffffffffff168373ffffffffffffffffffffffffffffffffffffffff1603616671576040517f08c379a00000000000000000000000000000000000000000000000000000000081526004016166689061958b565b60405180910390fd5b5f73ffffffffffffffffffffffffffffffffffffffff168273ffffffffffffffffffffffffffffffffffffffff16036166df576040517f08c379a00000000000000000000000000000000000000000000000000000000081526004016166d690619619565b60405180910390fd5b6166ea838383616fbf565b61675381604051806060016040528060268152602001619b83602691395f808773ffffffffffffffffffffffffffffffffffffffff1673ffffffffffffffffffffffffffffffffffffffff1681526020019081526020015f20546163429092919063ffffffff16565b5f808573ffffffffffffffffffffffffffffffffffffffff1673ffffffffffffffffffffffffffffffffffffffff1681526020019081526020015f20819055506167e2815f808573ffffffffffffffffffffffffffffffffffffffff1673ffffffffffffffffffffffffffffffffffffffff1681526020019081526020015f20546163a490919063ffffffff16565b5f808473ffffffffffffffffffffffffffffffffffffffff1673ffffffffffffffffffffffffffffffffffffffff1681526020019081526020015f20819055508173ffffffffffffffffffffffffffffffffffffffff168373ffffffffffffffffffffffffffffffffffffffff167fddf252ad1be2c89b69c2b068fc378daa952ba7f163c4a11628f55a4df523b3ef8360405161687f919061753c565b60405180910390a3505050565b801515601f5f8473ffffffffffffffffffffffffffffffffffffffff1673ffffffffffffffffffffffffffffffffffffffff1681526020019081526020015f205f9054906101000a900460ff1615150361691b576040517f08c379a0000000000000000000000000000000000000000000000000000000008152600401616912906198af565b60405180910390fd5b80601f5f8473ffffffffffffffffffffffffffffffffffffffff1673ffffffffffffffffffffffffffffffffffffffff1681526020019081526020015f205f6101000a81548160ff0219169083151502179055508015616a005760095f9054906101000a900473ffffffffffffffffffffffffffffffffffffffff1673ffffffffffffffffffffffffffffffffffffffff16630483f7a08360016040518363ffffffff1660e01b81526004016169d292919061802f565b5f604051808303815f87803b1580156169e9575f80fd5b505af11580156169fb573d5f803e3d5ffd5b505050505b8015158273ffffffffffffffffffffffffffffffffffffffff167fffa9187bf1f18bf477bd0ea1bcbb64e93b6a98132473929edfce215cd9b16fab60405160405180910390a35050565b5f616a53611e0e565b11616a93576040517f08c379a0000000000000000000000000000000000000000000000000000000008152600401616a8a9061993d565b60405180910390fd5b5f811115616b4057616aa3611e0e565b70010000000000000000000000000000000082616ac0919061845d565b616aca9190618515565b602854616ad79190618545565b6028819055503373ffffffffffffffffffffffffffffffffffffffff167fa493a9229478c3fcd73f66d2cdeb7f94fd0f341da924d1054236d7845411651182604051616b23919061753c565b60405180910390a280602b54616b399190618545565b602b819055505b50565b5f600282616b519190618515565b90505f8183616b609190618f3c565b90505f479050616b6f82616fc4565b5f8147616b7c9190618f3c565b90505f811115616b9157616b9084826171fa565b5b5f60075f9054906101000a900473ffffffffffffffffffffffffffffffffffffffff1673ffffffffffffffffffffffffffffffffffffffff166370a08231306040518263ffffffff1660e01b8152600401616bec9190617514565b602060405180830381865afa158015616c07573d5f803e3d5ffd5b505050506040513d601f19601f82011682018060405250810190616c2b9190618197565b90505f601560040154601b54616c419190618f3c565b90505f8160156001015484616c56919061845d565b616c609190618515565b90505f811115616d295760075f9054906101000a900473ffffffffffffffffffffffffffffffffffffffff1673ffffffffffffffffffffffffffffffffffffffff1663a9059cbb600a5f9054906101000a900473ffffffffffffffffffffffffffffffffffffffff16836040518363ffffffff1660e01b8152600401616ce792919061822a565b6020604051808303815f875af1158015616d03573d5f803e3d5ffd5b505050506040513d601f19601f82011682018060405250810190616d279190618265565b505b5f8260156003015485616d3c919061845d565b616d469190618515565b90505f811115616e0f5760075f9054906101000a900473ffffffffffffffffffffffffffffffffffffffff1673ffffffffffffffffffffffffffffffffffffffff1663a9059cbb600b5f9054906101000a900473ffffffffffffffffffffffffffffffffffffffff16836040518363ffffffff1660e01b8152600401616dcd92919061822a565b6020604051808303815f875af1158015616de9573d5f803e3d5ffd5b505050506040513d601f19601f82011682018060405250810190616e0d9190618265565b505b5f8360155f015486616e21919061845d565b616e2b9190618515565b90505f811115616fb3575f60075f9054906101000a900473ffffffffffffffffffffffffffffffffffffffff1673ffffffffffffffffffffffffffffffffffffffff1663a9059cbb60095f9054906101000a900473ffffffffffffffffffffffffffffffffffffffff16846040518363ffffffff1660e01b8152600401616eb392919061822a565b6020604051808303815f875af1158015616ecf573d5f803e3d5ffd5b505050506040513d601f19601f82011682018060405250810190616ef39190618265565b90508015616fb15760095f9054906101000a900473ffffffffffffffffffffffffffffffffffffffff1673ffffffffffffffffffffffffffffffffffffffff16636a4740026040518163ffffffff1660e01b81526004015f604051808303815f87803b158015616f61575f80fd5b505af1158015616f73573d5f803e3d5ffd5b505050507f80195cc573b02cc48460cbca6e6e4cc85ddb91959d946e1c3025ea3d87942dc38b83604051616fa892919061995b565b60405180910390a15b505b50505050505050505050565b505050565b5f600267ffffffffffffffff811115616fe057616fdf6177ba565b5b60405190808252806020026020018201604052801561700e5781602001602082028036833780820191505090505b50905030815f8151811061702557617024618aa8565b5b602002602001019073ffffffffffffffffffffffffffffffffffffffff16908173ffffffffffffffffffffffffffffffffffffffff168152505060065f9054906101000a900473ffffffffffffffffffffffffffffffffffffffff1673ffffffffffffffffffffffffffffffffffffffff1663ad5c46486040518163ffffffff1660e01b8152600401602060405180830381865afa1580156170c9573d5f803e3d5ffd5b505050506040513d601f19601f820116820180604052508101906170ed9190619996565b8160018151811061710157617100618aa8565b5b602002602001019073ffffffffffffffffffffffffffffffffffffffff16908173ffffffffffffffffffffffffffffffffffffffff16815250506171673060065f9054906101000a900473ffffffffffffffffffffffffffffffffffffffff1684615768565b60065f9054906101000a900473ffffffffffffffffffffffffffffffffffffffff1673ffffffffffffffffffffffffffffffffffffffff1663791ac947835f8430426040518663ffffffff1660e01b81526004016171c9959493929190619a7b565b5f604051808303815f87803b1580156171e0575f80fd5b505af11580156171f2573d5f803e3d5ffd5b505050505050565b6172263060065f9054906101000a900473ffffffffffffffffffffffffffffffffffffffff1684615768565b60065f9054906101000a900473ffffffffffffffffffffffffffffffffffffffff1673ffffffffffffffffffffffffffffffffffffffff1663f305d7198230855f8030426040518863ffffffff1660e01b815260040161728b96959493929190619ad3565b60606040518083038185885af11580156172a7573d5f803e3d5ffd5b50505050506040513d601f19601f820116820180604052508101906172cc9190619b32565b5050505050565b5f604051905090565b5f80fd5b5f80fd5b5f73ffffffffffffffffffffffffffffffffffffffff82169050919050565b5f61730d826172e4565b9050919050565b61731d81617303565b8114617327575f80fd5b50565b5f8135905061733881617314565b92915050565b5f60208284031215617353576173526172dc565b5b5f6173608482850161732a565b91505092915050565b5f8115159050919050565b61737d81617369565b8114617387575f80fd5b50565b5f8135905061739881617374565b92915050565b5f80604083850312156173b4576173b36172dc565b5b5f6173c18582860161732a565b92505060206173d28582860161738a565b9150509250929050565b5f81519050919050565b5f82825260208201905092915050565b8281835e5f83830152505050565b5f601f19601f8301169050919050565b5f61741e826173dc565b61742881856173e6565b93506174388185602086016173f6565b61744181617404565b840191505092915050565b5f6020820190508181035f8301526174648184617414565b905092915050565b5f819050919050565b61747e8161746c565b8114617488575f80fd5b50565b5f8135905061749981617475565b92915050565b5f80604083850312156174b5576174b46172dc565b5b5f6174c28582860161732a565b92505060206174d38582860161748b565b9150509250929050565b6174e681617369565b82525050565b5f6020820190506174ff5f8301846174dd565b92915050565b61750e81617303565b82525050565b5f6020820190506175275f830184617505565b92915050565b6175368161746c565b82525050565b5f60208201905061754f5f83018461752d565b92915050565b5f819050919050565b61756781617555565b8114617571575f80fd5b50565b5f813590506175828161755e565b92915050565b5f6020828403121561759d5761759c6172dc565b5b5f6175aa84828501617574565b91505092915050565b5f805f606084860312156175ca576175c96172dc565b5b5f6175d78682870161732a565b93505060206175e88682870161732a565b92505060406175f98682870161748b565b9150509250925092565b5f819050919050565b5f61762661762161761c846172e4565b617603565b6172e4565b9050919050565b5f6176378261760c565b9050919050565b5f6176488261762d565b9050919050565b6176588161763e565b82525050565b5f6020820190506176715f83018461764f565b92915050565b5f60ff82169050919050565b61768c81617677565b82525050565b5f6020820190506176a55f830184617683565b92915050565b5f602082840312156176c0576176bf6172dc565b5b5f6176cd8482850161738a565b91505092915050565b5f805f805f60a086880312156176ef576176ee6172dc565b5b5f6176fc8882890161748b565b955050602061770d8882890161748b565b945050604061771e8882890161748b565b935050606061772f8882890161748b565b92505060806177408882890161748b565b9150509295509295909350565b5f80fd5b5f60a082840312156177665761776561774d565b5b81905092915050565b5f60208284031215617784576177836172dc565b5b5f82013567ffffffffffffffff8111156177a1576177a06172e0565b5b6177ad84828501617751565b91505092915050565b5f80fd5b7f4e487b71000000000000000000000000000000000000000000000000000000005f52604160045260245ffd5b6177f082617404565b810181811067ffffffffffffffff8211171561780f5761780e6177ba565b5b80604052505050565b5f6178216172d3565b905061782d82826177e7565b919050565b5f67ffffffffffffffff82111561784c5761784b6177ba565b5b602082029050602081019050919050565b5f80fd5b5f61787361786e84617832565b617818565b905080838252602082019050602084028301858111156178965761789561785d565b5b835b818110156178bf57806178ab888261732a565b845260208401935050602081019050617898565b5050509392505050565b5f82601f8301126178dd576178dc6177b6565b5b81356178ed848260208601617861565b91505092915050565b5f67ffffffffffffffff8211156179105761790f6177ba565b5b602082029050602081019050919050565b5f61793361792e846178f6565b617818565b905080838252602082019050602084028301858111156179565761795561785d565b5b835b8181101561797f578061796b888261748b565b845260208401935050602081019050617958565b5050509392505050565b5f82601f83011261799d5761799c6177b6565b5b81356179ad848260208601617921565b91505092915050565b5f80604083850312156179cc576179cb6172dc565b5b5f83013567ffffffffffffffff8111156179e9576179e86172e0565b5b6179f5858286016178c9565b925050602083013567ffffffffffffffff811115617a1657617a156172e0565b5b617a2285828601617989565b9150509250929050565b5f8060408385031215617a4257617a416172dc565b5b5f617a4f8582860161748b565b9250506020617a608582860161748b565b9150509250929050565b5f617a74826172e4565b9050919050565b617a8481617a6a565b8114617a8e575f80fd5b50565b5f81359050617a9f81617a7b565b92915050565b5f60208284031215617aba57617ab96172dc565b5b5f617ac784828501617a91565b91505092915050565b5f60a082019050617ae35f83018861752d565b617af0602083018761752d565b617afd604083018661752d565b617b0a606083018561752d565b617b17608083018461752d565b9695505050505050565b5f60208284031215617b3657617b356172dc565b5b5f617b438482850161748b565b91505092915050565b617b5581617555565b82525050565b5f608082019050617b6e5f83018761752d565b617b7b602083018661752d565b617b88604083018561752d565b617b956060830184617b4c565b95945050505050565b5f80fd5b5f8083601f840112617bb757617bb66177b6565b5b8235905067ffffffffffffffff811115617bd457617bd3617b9e565b5b602083019150836001820283011115617bf057617bef61785d565b5b9250929050565b5f805f60408486031215617c0e57617c0d6172dc565b5b5f617c1b8682870161748b565b935050602084013567ffffffffffffffff811115617c3c57617c3b6172e0565b5b617c4886828701617ba2565b92509250509250925092565b5f805f8060608587031215617c6c57617c6b6172dc565b5b5f617c798782880161748b565b9450506020617c8a87828801617574565b935050604085013567ffffffffffffffff811115617cab57617caa6172e0565b5b617cb787828801617ba2565b925092505092959194509250565b5f8060408385031215617cdb57617cda6172dc565b5b5f617ce88582860161748b565b9250506020617cf985828601617574565b9150509250929050565b5f8060408385031215617d1957617d186172dc565b5b5f83013567ffffffffffffffff811115617d3657617d356172e0565b5b617d42858286016178c9565b9250506020617d538582860161738a565b9150509250929050565b5f8083601f840112617d7257617d716177b6565b5b8235905067ffffffffffffffff811115617d8f57617d8e617b9e565b5b602083019150836020820283011115617dab57617daa61785d565b5b9250929050565b5f805f60408486031215617dc957617dc86172dc565b5b5f84013567ffffffffffffffff811115617de657617de56172e0565b5b617df286828701617d5d565b93509350506020617e058682870161738a565b9150509250925092565b5f8083601f840112617e2457617e236177b6565b5b8235905067ffffffffffffffff811115617e4157617e40617b9e565b5b602083019150836020820283011115617e5d57617e5c61785d565b5b9250929050565b5f8060208385031215617e7a57617e796172dc565b5b5f83013567ffffffffffffffff811115617e9757617e966172e0565b5b617ea385828601617e0f565b92509250509250929050565b5f617eb98261762d565b9050919050565b617ec981617eaf565b82525050565b5f602082019050617ee25f830184617ec0565b92915050565b5f8060408385031215617efe57617efd6172dc565b5b5f617f0b8582860161732a565b9250506020617f1c8582860161732a565b9150509250929050565b5f617f308261762d565b9050919050565b617f4081617f26565b82525050565b5f602082019050617f595f830184617f37565b92915050565b7f4f776e61626c653a2063616c6c6572206973206e6f7420746865206f776e65725f82015250565b5f617f936020836173e6565b9150617f9e82617f5f565b602082019050919050565b5f6020820190508181035f830152617fc081617f87565b9050919050565b7f496e76616c6964207665726966696572000000000000000000000000000000005f82015250565b5f617ffb6010836173e6565b915061800682617fc7565b602082019050919050565b5f6020820190508181035f83015261802881617fef565b9050919050565b5f6040820190506180425f830185617505565b61804f60208301846174dd565b9392505050565b7f4e487b71000000000000000000000000000000000000000000000000000000005f52602260045260245ffd5b5f600282049050600182168061809a57607f821691505b6020821081036180ad576180ac618056565b5b50919050565b7f43616e6e6f742072657363756520636f726520746f6b656e00000000000000005f82015250565b5f6180e76018836173e6565b91506180f2826180b3565b602082019050919050565b5f6020820190508181035f830152618114816180db565b9050919050565b7f43616e6e6f742072657363756520747261636b657220746f6b656e00000000005f82015250565b5f61814f601b836173e6565b915061815a8261811b565b602082019050919050565b5f6020820190508181035f83015261817c81618143565b9050919050565b5f8151905061819181617475565b92915050565b5f602082840312156181ac576181ab6172dc565b5b5f6181b984828501618183565b91505092915050565b7f4e6f7468696e6720746f207265736375650000000000000000000000000000005f82015250565b5f6181f66011836173e6565b9150618201826181c2565b602082019050919050565b5f6020820190508181035f830152618223816181ea565b9050919050565b5f60408201905061823d5f830185617505565b61824a602083018461752d565b9392505050565b5f8151905061825f81617374565b92915050565b5f6020828403121561827a576182796172dc565b5b5f61828784828501618251565b91505092915050565b7f5472616e73666572206661696c656400000000000000000000000000000000005f82015250565b5f6182c4600f836173e6565b91506182cf82618290565b602082019050919050565b5f6020820190508181035f8301526182f1816182b8565b9050919050565b7f54726164696e6720616c726561647920656e61626c65640000000000000000005f82015250565b5f61832c6017836173e6565b9150618337826182f8565b602082019050919050565b5f6020820190508181035f83015261835981618320565b9050919050565b7f556e617574686f72697a656400000000000000000000000000000000000000005f82015250565b5f618394600c836173e6565b915061839f82618360565b602082019050919050565b5f6020820190508181035f8301526183c181618388565b9050919050565b7f4e6f2045544820746f2073656e640000000000000000000000000000000000005f82015250565b5f6183fc600e836173e6565b9150618407826183c8565b602082019050919050565b5f6020820190508181035f830152618429816183f0565b9050919050565b7f4e487b71000000000000000000000000000000000000000000000000000000005f52601160045260245ffd5b5f6184678261746c565b91506184728361746c565b92508282026184808161746c565b9150828204841483151761849757618496618430565b5b5092915050565b5f819050919050565b5f6184b18261849e565b91506184bc8361849e565b92508282019050828112155f8312168382125f8412151617156184e2576184e1618430565b5b92915050565b7f4e487b71000000000000000000000000000000000000000000000000000000005f52601260045260245ffd5b5f61851f8261746c565b915061852a8361746c565b92508261853a576185396184e8565b5b828204905092915050565b5f61854f8261746c565b915061855a8361746c565b925082820190508082111561857257618571618430565b5b92915050565b7f466565206d757374206265203c3d2032302500000000000000000000000000005f82015250565b5f6185ac6012836173e6565b91506185b782618578565b602082019050919050565b5f6020820190508181035f8301526185d9816185a0565b9050919050565b7f50726976616379206665617475726573206e6f7420656e61626c6564000000005f82015250565b5f618614601c836173e6565b915061861f826185e0565b602082019050919050565b5f6020820190508181035f83015261864181618608565b9050919050565b7f4e756c6c696669657220616c72656164792075736564000000000000000000005f82015250565b5f61867c6016836173e6565b915061868782618648565b602082019050919050565b5f6020820190508181035f8301526186a981618670565b9050919050565b5f80fd5b5f80fd5b5f80fd5b5f80833560016020038436030381126186d8576186d76186b0565b5b80840192508235915067ffffffffffffffff8211156186fa576186f96186b4565b5b602083019250600182023603831315618716576187156186b8565b5b509250929050565b5f82825260208201905092915050565b828183375f83830152505050565b5f618747838561871e565b935061875483858461872e565b61875d83617404565b840190509392505050565b5f60c08201905061877b5f83018a617b4c565b6187886020830189617b4c565b618795604083018861752d565b6187a26060830187617505565b6187af6080830186617505565b81810360a08301526187c281848661873c565b905098975050505050505050565b7f496e76616c6964205a4b2070726f6f66000000000000000000000000000000005f82015250565b5f6188046010836173e6565b915061880f826187d0565b602082019050919050565b5f6020820190508181035f830152618831816187f8565b9050919050565b7f436c61696d73206e6f7420656e61626c656400000000000000000000000000005f82015250565b5f61886c6012836173e6565b915061887782618838565b602082019050919050565b5f6020820190508181035f83015261889981618860565b9050919050565b7f5377617070696e6720696e2070726f67726573730000000000000000000000005f82015250565b5f6188d46014836173e6565b91506188df826188a0565b602082019050919050565b5f6020820190508181035f830152618901816188c8565b9050919050565b7f496e76616c6964207061697200000000000000000000000000000000000000005f82015250565b5f61893c600c836173e6565b915061894782618908565b602082019050919050565b5f6020820190508181035f83015261896981618930565b9050919050565b7f4578636c756465642066726f6d206469766964656e64730000000000000000005f82015250565b5f6189a46017836173e6565b91506189af82618970565b602082019050919050565b5f6020820190508181035f8301526189d181618998565b9050919050565b7f5a65726f206164647265737300000000000000000000000000000000000000005f82015250565b5f618a0c600c836173e6565b9150618a17826189d8565b602082019050919050565b5f6020820190508181035f830152618a3981618a00565b9050919050565b7f417272617973206d75737420686176652073616d652073697a650000000000005f82015250565b5f618a74601a836173e6565b9150618a7f82618a40565b602082019050919050565b5f6020820190508181035f830152618aa181618a68565b9050919050565b7f4e487b71000000000000000000000000000000000000000000000000000000005f52603260045260245ffd5b7f496e76616c6964206164647265737300000000000000000000000000000000005f82015250565b5f618b09600f836173e6565b9150618b1482618ad5565b602082019050919050565b5f6020820190508181035f830152618b3681618afd565b9050919050565b7f4163636f756e74206578636c756465642066726f6d206469766964656e6473005f82015250565b5f618b71601f836173e6565b9150618b7c82618b3d565b602082019050919050565b5f6020820190508181035f830152618b9e81618b65565b9050919050565b7f53616d65206164647265737300000000000000000000000000000000000000005f82015250565b5f618bd9600c836173e6565b9150618be482618ba5565b602082019050919050565b5f6020820190508181035f830152618c0681618bcd565b9050919050565b5f604082019050618c205f830185617505565b618c2d6020830184617505565b9392505050565b7f42656c6f77206d696e696d756d20706f6f6c20616d6f756e74000000000000005f82015250565b5f618c686019836173e6565b9150618c7382618c34565b602082019050919050565b5f6020820190508181035f830152618c9581618c5c565b9050919050565b7f416c72656164792061207072697661637920706f6f6c000000000000000000005f82015250565b5f618cd06016836173e6565b9150618cdb82618c9c565b602082019050919050565b5f6020820190508181035f830152618cfd81618cc4565b9050919050565b5f606082019050618d175f83018761752d565b618d246020830186617505565b8181036040830152618d3781848661873c565b905095945050505050565b7f496e76616c696420706f6f6c2070726f6f6600000000000000000000000000005f82015250565b5f618d766012836173e6565b9150618d8182618d42565b602082019050919050565b5f6020820190508181035f830152618da381618d6a565b9050919050565b7f456d70747920706f6f6c000000000000000000000000000000000000000000005f82015250565b5f618dde600a836173e6565b9150618de982618daa565b602082019050919050565b5f6020820190508181035f830152618e0b81618dd2565b9050919050565b7f4e756c6c696669657220757365640000000000000000000000000000000000005f82015250565b5f618e46600e836173e6565b9150618e5182618e12565b602082019050919050565b5f6020820190508181035f830152618e7381618e3a565b9050919050565b5f60a0820190508181035f830152618e9381888a61873c565b9050618ea26020830187617b4c565b618eaf6040830186617b4c565b618ebc606083018561752d565b618ec96080830184617505565b979650505050505050565b7f496e76616c6964207769746864726177616c2070726f6f6600000000000000005f82015250565b5f618f086018836173e6565b9150618f1382618ed4565b602082019050919050565b5f6020820190508181035f830152618f3581618efc565b9050919050565b5f618f468261746c565b9150618f518361746c565b9250828203905081811115618f6957618f68618430565b5b92915050565b5f602082019050618f825f830184617b4c565b92915050565b7f564952414c3a204163636f756e7420697320616c7265616479207468652076615f8201527f6c7565206f6620276578636c7564656427000000000000000000000000000000602082015250565b5f618fe26031836173e6565b9150618fed82618f88565b604082019050919050565b5f6020820190508181035f83015261900f81618fd6565b9050919050565b5f82825260208201905092915050565b5f819050919050565b61903881617303565b82525050565b5f619049838361902f565b60208301905092915050565b5f619063602084018461732a565b905092915050565b5f602082019050919050565b5f6190828385619016565b935061908d82619026565b805f5b858110156190c5576190a28284619055565b6190ac888261903e565b97506190b78361906b565b925050600181019050619090565b5085925050509392505050565b5f6040820190508181035f8301526190eb818587619077565b90506190fa60208301846174dd565b949350505050565b7f416c726561647920696e697469616c697a6564000000000000000000000000005f82015250565b5f6191366013836173e6565b915061914182619102565b602082019050919050565b5f6020820190508181035f8301526191638161912a565b9050919050565b7f496e76616c69642064656e6f6d696e6174696f6e0000000000000000000000005f82015250565b5f61919e6014836173e6565b91506191a98261916a565b602082019050919050565b5f6020820190508181035f8301526191cb81619192565b9050919050565b7f4f6e6c79206f776e6572000000000000000000000000000000000000000000005f82015250565b5f619206600a836173e6565b9150619211826191d2565b602082019050919050565b5f6020820190508181035f830152619233816191fa565b9050919050565b7f4f776e61626c653a206e6577206f776e657220697320746865207a65726f20615f8201527f6464726573730000000000000000000000000000000000000000000000000000602082015250565b5f6192946026836173e6565b915061929f8261923a565b604082019050919050565b5f6020820190508181035f8301526192c181619288565b9050919050565b7f45524332303a20617070726f76652066726f6d20746865207a65726f206164645f8201527f7265737300000000000000000000000000000000000000000000000000000000602082015250565b5f6193226024836173e6565b915061932d826192c8565b604082019050919050565b5f6020820190508181035f83015261934f81619316565b9050919050565b7f45524332303a20617070726f766520746f20746865207a65726f2061646472655f8201527f7373000000000000000000000000000000000000000000000000000000000000602082015250565b5f6193b06022836173e6565b91506193bb82619356565b604082019050919050565b5f6020820190508181035f8301526193dd816193a4565b9050919050565b7f416464726573733a20696e73756666696369656e742062616c616e63650000005f82015250565b5f619418601d836173e6565b9150619423826193e4565b602082019050919050565b5f6020820190508181035f8301526194458161940c565b9050919050565b5f81905092915050565b50565b5f6194645f8361944c565b915061946f82619456565b5f82019050919050565b5f61948382619459565b9150819050919050565b7f416464726573733a20756e61626c6520746f2073656e642076616c75652c20725f8201527f6563697069656e74206d61792068617665207265766572746564000000000000602082015250565b5f6194e7603a836173e6565b91506194f28261948d565b604082019050919050565b5f6020820190508181035f830152619514816194db565b9050919050565b7f45524332303a207472616e736665722066726f6d20746865207a65726f2061645f8201527f6472657373000000000000000000000000000000000000000000000000000000602082015250565b5f6195756025836173e6565b91506195808261951b565b604082019050919050565b5f6020820190508181035f8301526195a281619569565b9050919050565b7f45524332303a207472616e7366657220746f20746865207a65726f20616464725f8201527f6573730000000000000000000000000000000000000000000000000000000000602082015250565b5f6196036023836173e6565b915061960e826195a9565b604082019050919050565b5f6020820190508181035f830152619630816195f7565b9050919050565b7f54726164696e67206e6f742061637469766500000000000000000000000000005f82015250565b5f61966b6012836173e6565b915061967682619637565b602082019050919050565b5f6020820190508181035f8301526196988161965f565b9050919050565b7f4279652042796520426f740000000000000000000000000000000000000000005f82015250565b5f6196d3600b836173e6565b91506196de8261969f565b602082019050919050565b5f6020820190508181035f830152619700816196c7565b9050919050565b7f596f752061726520657863656564696e67206d617853656c6c416d6f756e74005f82015250565b5f61973b601f836173e6565b915061974682619707565b602082019050919050565b5f6020820190508181035f8301526197688161972f565b9050919050565b7f596f752061726520657863656564696e67206d6178427579416d6f756e7400005f82015250565b5f6197a3601e836173e6565b91506197ae8261976f565b602082019050919050565b5f6020820190508181035f8301526197d081619797565b9050919050565b7f536166654d6174683a206164646974696f6e206f766572666c6f7700000000005f82015250565b5f61980b601b836173e6565b9150619816826197d7565b602082019050919050565b5f6020820190508181035f830152619838816197ff565b9050919050565b7f564952414c3a204175746f6d61746564206d61726b6574206d616b65722070615f8201527f697220697320616c72656164792073657420746f20746861742076616c756500602082015250565b5f619899603f836173e6565b91506198a48261983f565b604082019050919050565b5f6020820190508181035f8301526198c68161988d565b9050919050565b7f4e6f20737570706c7920666f72206469766964656e64206469737472696275745f8201527f696f6e0000000000000000000000000000000000000000000000000000000000602082015250565b5f6199276023836173e6565b9150619932826198cd565b604082019050919050565b5f6020820190508181035f8301526199548161991b565b9050919050565b5f60408201905061996e5f83018561752d565b61997b602083018461752d565b9392505050565b5f8151905061999081617314565b92915050565b5f602082840312156199ab576199aa6172dc565b5b5f6199b884828501619982565b91505092915050565b5f819050919050565b5f6199e46199df6199da846199c1565b617603565b61746c565b9050919050565b6199f4816199ca565b82525050565b5f81519050919050565b5f819050602082019050919050565b5f602082019050919050565b5f619a29826199fa565b619a338185619016565b9350619a3e83619a04565b805f5b83811015619a6e578151619a55888261903e565b9750619a6083619a13565b925050600181019050619a41565b5085935050505092915050565b5f60a082019050619a8e5f83018861752d565b619a9b60208301876199eb565b8181036040830152619aad8186619a1f565b9050619abc6060830185617505565b619ac9608083018461752d565b9695505050505050565b5f60c082019050619ae65f830189617505565b619af3602083018861752d565b619b0060408301876199eb565b619b0d60608301866199eb565b619b1a6080830185617505565b619b2760a083018461752d565b979650505050505050565b5f805f60608486031215619b4957619b486172dc565b5b5f619b5686828701618183565b9350506020619b6786828701618183565b9250506040619b7886828701618183565b915050925092509256fe45524332303a207472616e7366657220616d6f756e7420657863656564732062616c616e636545524332303a207472616e7366657220616d6f756e74206578636565647320616c6c6f77616e636545524332303a2064656372656173656420616c6c6f77616e63652062656c6f77207a65726fa2646970667358221220a455fc4e6c81691942121aaaad0bf9805c708b76f3ce8748913268cdd25ba98c64736f6c634300081a0033608060405234801561000f575f80fd5b506040518060400160405280601781526020017f4369706865725f4469766964656e645f547261636b65720000000000000000008152506040518060400160405280600381526020017f43445400000000000000000000000000000000000000000000000000000000008152505f61008b61014e60201b60201c565b9050805f806101000a81548173ffffffffffffffffffffffffffffffffffffffff021916908373ffffffffffffffffffffffffffffffffffffffff1602179055508073ffffffffffffffffffffffffffffffffffffffff165f73ffffffffffffffffffffffffffffffffffffffff167f8be0079c531659141344cd1fd0a4f28419497f9722a3daafe3b4186f6b6457e060405160405180910390a3508160049081610136919061038f565b508060059081610146919061038f565b50505061045e565b5f33905090565b5f81519050919050565b7f4e487b71000000000000000000000000000000000000000000000000000000005f52604160045260245ffd5b7f4e487b71000000000000000000000000000000000000000000000000000000005f52602260045260245ffd5b5f60028204905060018216806101d057607f821691505b6020821081036101e3576101e261018c565b5b50919050565b5f819050815f5260205f209050919050565b5f6020601f8301049050919050565b5f82821b905092915050565b5f600883026102457fffffffffffffffffffffffffffffffffffffffffffffffffffffffffffffffff8261020a565b61024f868361020a565b95508019841693508086168417925050509392505050565b5f819050919050565b5f819050919050565b5f61029361028e61028984610267565b610270565b610267565b9050919050565b5f819050919050565b6102ac83610279565b6102c06102b88261029a565b848454610216565b825550505050565b5f90565b6102d46102c8565b6102df8184846102a3565b505050565b5b81811015610302576102f75f826102cc565b6001810190506102e5565b5050565b601f82111561034757610318816101e9565b610321846101fb565b81016020851015610330578190505b61034461033c856101fb565b8301826102e4565b50505b505050565b5f82821c905092915050565b5f6103675f198460080261034c565b1980831691505092915050565b5f61037f8383610358565b9150826002028217905092915050565b61039882610155565b67ffffffffffffffff8111156103b1576103b061015f565b5b6103bb82546101b9565b6103c6828285610306565b5f60209050601f8311600181146103f7575f84156103e5578287015190505b6103ef8582610374565b865550610456565b601f198416610405866101e9565b5f5b8281101561042c57848901518255600182019150602085019450602081019050610407565b868310156104495784890151610445601f891682610358565b8355505b6001600288020188555050505b505050505050565b613d798061046b5f395ff3fe60806040526004361061020d575f3560e01c8063715018a611610117578063a457c2d71161009f578063bf3506c11161006e578063bf3506c1146107af578063c30a0f25146107eb578063dd62ed3e14610827578063e30443bc14610863578063f2fde38b1461088b5761020d565b8063a457c2d7146106bf578063a8b9d240146106fb578063a9059cbb14610737578063aafd847a146107735761020d565b80638da5cb5b116100e65780638da5cb5b146105db57806391b89fba1461060557806395d89b41146106415780639e1e06611461066b578063a39185d7146106955761020d565b8063715018a61461053157806371f971f9146105475780637b510fe81461057157806385a6b3ae146105b15761020d565b806327ce01471161019a578063497ec82311610169578063497ec823146104535780634e7b827f1461047b57806368f4d735146104b75780636a474002146104df57806370a08231146104f55761020d565b806327ce014714610389578063313ce567146103c557806339509351146103ef5780633b36a1d71461042b5761020d565b8063095ea7b3116101e1578063095ea7b31461029557806318160ddd146102d157806320800a00146102fb578063226cfa3d1461031157806323b872dd1461034d5761020d565b8062ae3bf81461021157806303c83302146102395780630483f7a01461024357806306fdde031461026b575b5f80fd5b34801561021c575f80fd5b5061023760048036038101906102329190612baa565b6108b3565b005b610241610ab7565b005b34801561024e575f80fd5b5061026960048036038101906102649190612c0a565b610c15565b005b348015610276575f80fd5b5061027f610e06565b60405161028c9190612cb8565b60405180910390f35b3480156102a0575f80fd5b506102bb60048036038101906102b69190612d0b565b610e96565b6040516102c89190612d58565b60405180910390f35b3480156102dc575f80fd5b506102e5610eb3565b6040516102f29190612d80565b60405180910390f35b348015610306575f80fd5b5061030f610ebc565b005b34801561031c575f80fd5b5061033760048036038101906103329190612baa565b610f87565b6040516103449190612d80565b60405180910390f35b348015610358575f80fd5b50610373600480360381019061036e9190612d99565b610f9c565b6040516103809190612d58565b60405180910390f35b348015610394575f80fd5b506103af60048036038101906103aa9190612baa565b611070565b6040516103bc9190612d80565b60405180910390f35b3480156103d0575f80fd5b506103d96110f9565b6040516103e69190612e04565b60405180910390f35b3480156103fa575f80fd5b5061041560048036038101906104109190612d0b565b611101565b6040516104229190612d58565b60405180910390f35b348015610436575f80fd5b50610451600480360381019061044c9190612baa565b6111af565b005b34801561045e575f80fd5b5061047960048036038101906104749190612e1d565b6112e2565b005b348015610486575f80fd5b506104a1600480360381019061049c9190612baa565b6114e0565b6040516104ae9190612d58565b60405180910390f35b3480156104c2575f80fd5b506104dd60048036038101906104d89190612ebc565b6114fd565b005b3480156104ea575f80fd5b506104f36116ee565b005b348015610500575f80fd5b5061051b60048036038101906105169190612baa565b6117ea565b6040516105289190612d80565b60405180910390f35b34801561053c575f80fd5b50610545611830565b005b348015610552575f80fd5b5061055b61197e565b6040516105689190612d80565b60405180910390f35b34801561057c575f80fd5b5061059760048036038101906105929190612baa565b61198a565b6040516105a8959493929190612f16565b60405180910390f35b3480156105bc575f80fd5b506105c56119f6565b6040516105d29190612d80565b60405180910390f35b3480156105e6575f80fd5b506105ef6119fc565b6040516105fc9190612f67565b60405180910390f35b348015610610575f80fd5b5061062b60048036038101906106269190612baa565b611a23565b6040516106389190612d80565b60405180910390f35b34801561064c575f80fd5b50610655611a34565b6040516106629190612cb8565b60405180910390f35b348015610676575f80fd5b5061067f611ac4565b60405161068c9190612d80565b60405180910390f35b3480156106a0575f80fd5b506106a9611aca565b6040516106b69190612d80565b60405180910390f35b3480156106ca575f80fd5b506106e560048036038101906106e09190612d0b565b611ad0565b6040516106f29190612d58565b60405180910390f35b348015610706575f80fd5b50610721600480360381019061071c9190612baa565b611b98565b60405161072e9190612d80565b60405180910390f35b348015610742575f80fd5b5061075d60048036038101906107589190612d0b565b611bf8565b60405161076a9190612d58565b60405180910390f35b34801561077e575f80fd5b5061079960048036038101906107949190612baa565b611c15565b6040516107a69190612d80565b60405180910390f35b3480156107ba575f80fd5b506107d560048036038101906107d09190612baa565b611c5b565b6040516107e29190612d58565b60405180910390f35b3480156107f6575f80fd5b50610811600480360381019061080c9190612fb3565b611cb1565b60405161081e9190612d58565b60405180910390f35b348015610832575f80fd5b5061084d60048036038101906108489190612e1d565b611cce565b60405161085a9190612d80565b60405180910390f35b34801561086e575f80fd5b5061088960048036038101906108849190612d0b565b611d50565b005b348015610896575f80fd5b506108b160048036038101906108ac9190612baa565b611ebe565b005b6108bb61207b565b73ffffffffffffffffffffffffffffffffffffffff165f8054906101000a900473ffffffffffffffffffffffffffffffffffffffff1673ffffffffffffffffffffffffffffffffffffffff1614610947576040517f08c379a000000000000000000000000000000000000000000000000000000000815260040161093e90613028565b60405180910390fd5b3073ffffffffffffffffffffffffffffffffffffffff168173ffffffffffffffffffffffffffffffffffffffff16036109b5576040517f08c379a00000000000000000000000000000000000000000000000000000000081526004016109ac90613090565b60405180910390fd5b5f8173ffffffffffffffffffffffffffffffffffffffff166370a08231306040518263ffffffff1660e01b81526004016109ef9190612f67565b602060405180830381865afa158015610a0a573d5f803e3d5ffd5b505050506040513d601f19601f82011682018060405250810190610a2e91906130c2565b90508173ffffffffffffffffffffffffffffffffffffffff1663a9059cbb610a546119fc565b836040518363ffffffff1660e01b8152600401610a729291906130ed565b6020604051808303815f875af1158015610a8e573d5f803e3d5ffd5b505050506040513d601f19601f82011682018060405250810190610ab29190613128565b505050565b610abf61207b565b73ffffffffffffffffffffffffffffffffffffffff165f8054906101000a900473ffffffffffffffffffffffffffffffffffffffff1673ffffffffffffffffffffffffffffffffffffffff1614610b4b576040517f08c379a0000000000000000000000000000000000000000000000000000000008152600401610b4290613028565b60405180910390fd5b5f3411610b8d576040517f08c379a0000000000000000000000000000000000000000000000000000000008152600401610b849061319d565b60405180910390fd5b5f344244604051602001610ba3939291906131db565b604051602081830303815290604052805190602001209050610bc434612082565b3073ffffffffffffffffffffffffffffffffffffffff167f1b965cb42b9e88623034282dfc0625466bad745b5e23c4526e96e6913ffcaa4082604051610c0a9190613226565b60405180910390a250565b610c1d61207b565b73ffffffffffffffffffffffffffffffffffffffff165f8054906101000a900473ffffffffffffffffffffffffffffffffffffffff1673ffffffffffffffffffffffffffffffffffffffff1614610ca9576040517f08c379a0000000000000000000000000000000000000000000000000000000008152600401610ca090613028565b60405180910390fd5b801515600a5f8473ffffffffffffffffffffffffffffffffffffffff1673ffffffffffffffffffffffffffffffffffffffff1681526020019081526020015f205f9054906101000a900460ff16151503610d38576040517f08c379a0000000000000000000000000000000000000000000000000000000008152600401610d2f90613289565b60405180910390fd5b80600a5f8473ffffffffffffffffffffffffffffffffffffffff1673ffffffffffffffffffffffffffffffffffffffff1681526020019081526020015f205f6101000a81548160ff0219169083151502179055508015610da157610d9c825f612190565b610db4565b610db382610dae846117ea565b612190565b5b8173ffffffffffffffffffffffffffffffffffffffff167fa3c7c11b2e12c4144b09a7813f3393ba646392788638998c97be8da908cf04be82604051610dfa9190612d58565b60405180910390a25050565b606060048054610e15906132d4565b80601f0160208091040260200160405190810160405280929190818152602001828054610e41906132d4565b8015610e8c5780601f10610e6357610100808354040283529160200191610e8c565b820191905f5260205f20905b815481529060010190602001808311610e6f57829003601f168201915b5050505050905090565b5f610ea9610ea261207b565b8484612255565b6001905092915050565b5f600354905090565b610ec461207b565b73ffffffffffffffffffffffffffffffffffffffff165f8054906101000a900473ffffffffffffffffffffffffffffffffffffffff1673ffffffffffffffffffffffffffffffffffffffff1614610f50576040517f08c379a0000000000000000000000000000000000000000000000000000000008152600401610f4790613028565b60405180910390fd5b5f479050610f8481610f606119fc565b73ffffffffffffffffffffffffffffffffffffffff1661241890919063ffffffff16565b50565b600b602052805f5260405f205f915090505481565b5f610fa8848484612508565b61106584610fb461207b565b61106085604051806060016040528060288152602001613cf76028913960025f8b73ffffffffffffffffffffffffffffffffffffffff1673ffffffffffffffffffffffffffffffffffffffff1681526020019081526020015f205f61101761207b565b73ffffffffffffffffffffffffffffffffffffffff1673ffffffffffffffffffffffffffffffffffffffff1681526020019081526020015f20546125439092919063ffffffff16565b612255565b600190509392505050565b5f70010000000000000000000000000000000060085f8473ffffffffffffffffffffffffffffffffffffffff1673ffffffffffffffffffffffffffffffffffffffff1681526020019081526020015f20546110de6110cd856117ea565b6006546125a590919063ffffffff16565b6110e8919061333a565b6110f291906133a8565b9050919050565b5f6012905090565b5f6111a561110d61207b565b846111a08560025f61111d61207b565b73ffffffffffffffffffffffffffffffffffffffff1673ffffffffffffffffffffffffffffffffffffffff1681526020019081526020015f205f8973ffffffffffffffffffffffffffffffffffffffff1673ffffffffffffffffffffffffffffffffffffffff1681526020019081526020015f205461261c90919063ffffffff16565b612255565b6001905092915050565b6111b761207b565b73ffffffffffffffffffffffffffffffffffffffff165f8054906101000a900473ffffffffffffffffffffffffffffffffffffffff1673ffffffffffffffffffffffffffffffffffffffff1614611243576040517f08c379a000000000000000000000000000000000000000000000000000000000815260040161123a90613028565b60405180910390fd5b5f73ffffffffffffffffffffffffffffffffffffffff168173ffffffffffffffffffffffffffffffffffffffff16036112b1576040517f08c379a00000000000000000000000000000000000000000000000000000000081526004016112a890613422565b60405180910390fd5b5f4790506112de818373ffffffffffffffffffffffffffffffffffffffff1661241890919063ffffffff16565b5050565b6112ea61207b565b73ffffffffffffffffffffffffffffffffffffffff165f8054906101000a900473ffffffffffffffffffffffffffffffffffffffff1673ffffffffffffffffffffffffffffffffffffffff1614611376576040517f08c379a000000000000000000000000000000000000000000000000000000000815260040161136d90613028565b60405180910390fd5b3073ffffffffffffffffffffffffffffffffffffffff168173ffffffffffffffffffffffffffffffffffffffff16036113e4576040517f08c379a00000000000000000000000000000000000000000000000000000000081526004016113db90613090565b60405180910390fd5b5f8173ffffffffffffffffffffffffffffffffffffffff166370a08231306040518263ffffffff1660e01b815260040161141e9190612f67565b602060405180830381865afa158015611439573d5f803e3d5ffd5b505050506040513d601f19601f8201168201806040525081019061145d91906130c2565b90508173ffffffffffffffffffffffffffffffffffffffff1663a9059cbb84836040518363ffffffff1660e01b815260040161149a9291906130ed565b6020604051808303815f875af11580156114b6573d5f803e3d5ffd5b505050506040513d601f19601f820116820180604052508101906114da9190613128565b50505050565b600a602052805f5260405f205f915054906101000a900460ff1681565b61150633611c5b565b611545576040517f08c379a000000000000000000000000000000000000000000000000000000000815260040161153c9061348a565b60405180910390fd5b5f82826040516115569291906134e4565b60405180910390209050600c5f8281526020019081526020015f205f9054906101000a900460ff16156115be576040517f08c379a00000000000000000000000000000000000000000000000000000000081526004016115b590613546565b60405180910390fd5b5f6115c833612679565b9050670de0b6b3a7640000811015611615576040517f08c379a000000000000000000000000000000000000000000000000000000000815260040161160c906135ae565b60405180910390fd5b6001600c5f8481526020019081526020015f205f6101000a81548160ff02191690831515021790555080600d5f82825461164f91906135cc565b9250508190555042600b5f3373ffffffffffffffffffffffffffffffffffffffff1673ffffffffffffffffffffffffffffffffffffffff1681526020019081526020015f20819055503373ffffffffffffffffffffffffffffffffffffffff167f4804104ccbc53649f5b8b29ecf858272a4a6ed6b9949f0d30237c7a147e8467182846040516116e09291906135ff565b60405180910390a250505050565b6116f733611c5b565b611736576040517f08c379a000000000000000000000000000000000000000000000000000000000815260040161172d9061348a565b60405180910390fd5b5f61174033612679565b9050670de0b6b3a764000081101561178d576040517f08c379a0000000000000000000000000000000000000000000000000000000008152600401611784906135ae565b60405180910390fd5b80600d5f82825461179e91906135cc565b9250508190555042600b5f3373ffffffffffffffffffffffffffffffffffffffff1673ffffffffffffffffffffffffffffffffffffffff1681526020019081526020015f208190555050565b5f60015f8373ffffffffffffffffffffffffffffffffffffffff1673ffffffffffffffffffffffffffffffffffffffff1681526020019081526020015f20549050919050565b61183861207b565b73ffffffffffffffffffffffffffffffffffffffff165f8054906101000a900473ffffffffffffffffffffffffffffffffffffffff1673ffffffffffffffffffffffffffffffffffffffff16146118c4576040517f08c379a00000000000000000000000000000000000000000000000000000000081526004016118bb90613028565b60405180910390fd5b5f73ffffffffffffffffffffffffffffffffffffffff165f8054906101000a900473ffffffffffffffffffffffffffffffffffffffff1673ffffffffffffffffffffffffffffffffffffffff167f8be0079c531659141344cd1fd0a4f28419497f9722a3daafe3b4186f6b6457e060405160405180910390a35f805f6101000a81548173ffffffffffffffffffffffffffffffffffffffff021916908373ffffffffffffffffffffffffffffffffffffffff160217905550565b670de0b6b3a764000081565b5f805f805f8561199987611b98565b6119a288611070565b600b5f8a73ffffffffffffffffffffffffffffffffffffffff1673ffffffffffffffffffffffffffffffffffffffff1681526020019081526020015f2054600d549450945094509450945091939590929450565b60075481565b5f805f9054906101000a900473ffffffffffffffffffffffffffffffffffffffff16905090565b5f611a2d82611b98565b9050919050565b606060058054611a43906132d4565b80601f0160208091040260200160405190810160405280929190818152602001828054611a6f906132d4565b8015611aba5780601f10611a9157610100808354040283529160200191611aba565b820191905f5260205f20905b815481529060010190602001808311611a9d57829003601f168201915b5050505050905090565b600d5481565b610e1081565b5f611b8e611adc61207b565b84611b8985604051806060016040528060258152602001613d1f6025913960025f611b0561207b565b73ffffffffffffffffffffffffffffffffffffffff1673ffffffffffffffffffffffffffffffffffffffff1681526020019081526020015f205f8a73ffffffffffffffffffffffffffffffffffffffff1673ffffffffffffffffffffffffffffffffffffffff1681526020019081526020015f20546125439092919063ffffffff16565b612255565b6001905092915050565b5f611bf160095f8473ffffffffffffffffffffffffffffffffffffffff1673ffffffffffffffffffffffffffffffffffffffff1681526020019081526020015f2054611be384611070565b6127c490919063ffffffff16565b9050919050565b5f611c0b611c0461207b565b8484612508565b6001905092915050565b5f60095f8373ffffffffffffffffffffffffffffffffffffffff1673ffffffffffffffffffffffffffffffffffffffff1681526020019081526020015f20549050919050565b5f610e10600b5f8473ffffffffffffffffffffffffffffffffffffffff1673ffffffffffffffffffffffffffffffffffffffff1681526020019081526020015f2054611ca791906135cc565b4210159050919050565b600c602052805f5260405f205f915054906101000a900460ff1681565b5f60025f8473ffffffffffffffffffffffffffffffffffffffff1673ffffffffffffffffffffffffffffffffffffffff1681526020019081526020015f205f8373ffffffffffffffffffffffffffffffffffffffff1673ffffffffffffffffffffffffffffffffffffffff1681526020019081526020015f2054905092915050565b611d5861207b565b73ffffffffffffffffffffffffffffffffffffffff165f8054906101000a900473ffffffffffffffffffffffffffffffffffffffff1673ffffffffffffffffffffffffffffffffffffffff1614611de4576040517f08c379a0000000000000000000000000000000000000000000000000000000008152600401611ddb90613028565b60405180910390fd5b600a5f8373ffffffffffffffffffffffffffffffffffffffff1673ffffffffffffffffffffffffffffffffffffffff1681526020019081526020015f205f9054906101000a900460ff16611eba57611e3c8282612190565b5f828242604051602001611e529392919061366b565b6040516020818303038152906040528051906020012090508273ffffffffffffffffffffffffffffffffffffffff167f1b965cb42b9e88623034282dfc0625466bad745b5e23c4526e96e6913ffcaa4082604051611eb09190613226565b60405180910390a2505b5050565b611ec661207b565b73ffffffffffffffffffffffffffffffffffffffff165f8054906101000a900473ffffffffffffffffffffffffffffffffffffffff1673ffffffffffffffffffffffffffffffffffffffff1614611f52576040517f08c379a0000000000000000000000000000000000000000000000000000000008152600401611f4990613028565b60405180910390fd5b5f73ffffffffffffffffffffffffffffffffffffffff168173ffffffffffffffffffffffffffffffffffffffff1603611fc0576040517f08c379a0000000000000000000000000000000000000000000000000000000008152600401611fb790613717565b60405180910390fd5b8073ffffffffffffffffffffffffffffffffffffffff165f8054906101000a900473ffffffffffffffffffffffffffffffffffffffff1673ffffffffffffffffffffffffffffffffffffffff167f8be0079c531659141344cd1fd0a4f28419497f9722a3daafe3b4186f6b6457e060405160405180910390a3805f806101000a81548173ffffffffffffffffffffffffffffffffffffffff021916908373ffffffffffffffffffffffffffffffffffffffff16021790555050565b5f33905090565b5f61208b610eb3565b116120cb576040517f08c379a00000000000000000000000000000000000000000000000000000000081526004016120c29061377f565b60405180910390fd5b5f81111561218d5761211d6120de610eb3565b612102700100000000000000000000000000000000846125a590919063ffffffff16565b61210c91906133a8565b60065461261c90919063ffffffff16565b6006819055506121388160075461261c90919063ffffffff16565b6007819055503373ffffffffffffffffffffffffffffffffffffffff167fa493a9229478c3fcd73f66d2cdeb7f94fd0f341da924d1054236d78454116511826040516121849190612d80565b60405180910390a25b50565b5f61219a836117ea565b9050808211156121ca575f6121b882846127c490919063ffffffff16565b90506121c4848261280d565b506121f5565b808210156121f4575f6121e683836127c490919063ffffffff16565b90506121f2848261299b565b505b5b5f61220b836006546125a590919063ffffffff16565b90508060085f8673ffffffffffffffffffffffffffffffffffffffff1673ffffffffffffffffffffffffffffffffffffffff1681526020019081526020015f208190555050505050565b5f73ffffffffffffffffffffffffffffffffffffffff168373ffffffffffffffffffffffffffffffffffffffff16036122c3576040517f08c379a00000000000000000000000000000000000000000000000000000000081526004016122ba9061380d565b60405180910390fd5b5f73ffffffffffffffffffffffffffffffffffffffff168273ffffffffffffffffffffffffffffffffffffffff1603612331576040517f08c379a00000000000000000000000000000000000000000000000000000000081526004016123289061389b565b60405180910390fd5b8060025f8573ffffffffffffffffffffffffffffffffffffffff1673ffffffffffffffffffffffffffffffffffffffff1681526020019081526020015f205f8473ffffffffffffffffffffffffffffffffffffffff1673ffffffffffffffffffffffffffffffffffffffff1681526020019081526020015f20819055508173ffffffffffffffffffffffffffffffffffffffff168373ffffffffffffffffffffffffffffffffffffffff167f8c5be1e5ebec7d5bd14f71427d1e84f3dd0314c0f7b2291e5b200ac8c7c3b9258360405161240b9190612d80565b60405180910390a3505050565b8047101561245b576040517f08c379a000000000000000000000000000000000000000000000000000000000815260040161245290613903565b60405180910390fd5b5f8273ffffffffffffffffffffffffffffffffffffffff168260405161248090613944565b5f6040518083038185875af1925050503d805f81146124ba576040519150601f19603f3d011682016040523d82523d5f602084013e6124bf565b606091505b5050905080612503576040517f08c379a00000000000000000000000000000000000000000000000000000000081526004016124fa906139c8565b60405180910390fd5b505050565b6040517f08c379a000000000000000000000000000000000000000000000000000000000815260040161253a90613a56565b60405180910390fd5b5f83831115829061258a576040517f08c379a00000000000000000000000000000000000000000000000000000000081526004016125819190612cb8565b60405180910390fd5b505f83856125989190613a74565b9050809150509392505050565b5f8083036125b5575f9050612616565b5f82846125c29190613aa7565b90508284826125d191906133a8565b14612611576040517f08c379a000000000000000000000000000000000000000000000000000000000815260040161260890613b58565b60405180910390fd5b809150505b92915050565b5f80828461262a91906135cc565b90508381101561266f576040517f08c379a000000000000000000000000000000000000000000000000000000000815260040161266690613bc0565b60405180910390fd5b8091505092915050565b5f8061268483611b98565b90505f8111156127ba576126de8160095f8673ffffffffffffffffffffffffffffffffffffffff1673ffffffffffffffffffffffffffffffffffffffff1681526020019081526020015f205461261c90919063ffffffff16565b60095f8573ffffffffffffffffffffffffffffffffffffffff1673ffffffffffffffffffffffffffffffffffffffff1681526020019081526020015f20819055508273ffffffffffffffffffffffffffffffffffffffff167fee503bee2bb6a87e57bc57db795f98137327401a0e7b7ce42e37926cc1a9ca4d826040516127659190612d80565b60405180910390a28273ffffffffffffffffffffffffffffffffffffffff166108fc8290811502906040515f60405180830381858888f193505050501580156127b0573d5f803e3d5ffd5b50809150506127bf565b5f9150505b919050565b5f61280583836040518060400160405280601e81526020017f536166654d6174683a207375627472616374696f6e206f766572666c6f770000815250612543565b905092915050565b5f73ffffffffffffffffffffffffffffffffffffffff168273ffffffffffffffffffffffffffffffffffffffff160361287b576040517f08c379a000000000000000000000000000000000000000000000000000000000815260040161287290613c28565b60405180910390fd5b6128865f8383612b43565b61289b8160035461261c90919063ffffffff16565b6003819055506128f18160015f8573ffffffffffffffffffffffffffffffffffffffff1673ffffffffffffffffffffffffffffffffffffffff1681526020019081526020015f205461261c90919063ffffffff16565b60015f8473ffffffffffffffffffffffffffffffffffffffff1673ffffffffffffffffffffffffffffffffffffffff1681526020019081526020015f20819055508173ffffffffffffffffffffffffffffffffffffffff165f73ffffffffffffffffffffffffffffffffffffffff167fddf252ad1be2c89b69c2b068fc378daa952ba7f163c4a11628f55a4df523b3ef8360405161298f9190612d80565b60405180910390a35050565b5f73ffffffffffffffffffffffffffffffffffffffff168273ffffffffffffffffffffffffffffffffffffffff1603612a09576040517f08c379a0000000000000000000000000000000000000000000000000000000008152600401612a0090613cb6565b60405180910390fd5b612a14825f83612b43565b612a7e81604051806060016040528060228152602001613cd56022913960015f8673ffffffffffffffffffffffffffffffffffffffff1673ffffffffffffffffffffffffffffffffffffffff1681526020019081526020015f20546125439092919063ffffffff16565b60015f8473ffffffffffffffffffffffffffffffffffffffff1673ffffffffffffffffffffffffffffffffffffffff1681526020019081526020015f2081905550612ad4816003546127c490919063ffffffff16565b6003819055505f73ffffffffffffffffffffffffffffffffffffffff168273ffffffffffffffffffffffffffffffffffffffff167fddf252ad1be2c89b69c2b068fc378daa952ba7f163c4a11628f55a4df523b3ef83604051612b379190612d80565b60405180910390a35050565b505050565b5f80fd5b5f80fd5b5f73ffffffffffffffffffffffffffffffffffffffff82169050919050565b5f612b7982612b50565b9050919050565b612b8981612b6f565b8114612b93575f80fd5b50565b5f81359050612ba481612b80565b92915050565b5f60208284031215612bbf57612bbe612b48565b5b5f612bcc84828501612b96565b91505092915050565b5f8115159050919050565b612be981612bd5565b8114612bf3575f80fd5b50565b5f81359050612c0481612be0565b92915050565b5f8060408385031215612c2057612c1f612b48565b5b5f612c2d85828601612b96565b9250506020612c3e85828601612bf6565b9150509250929050565b5f81519050919050565b5f82825260208201905092915050565b8281835e5f83830152505050565b5f601f19601f8301169050919050565b5f612c8a82612c48565b612c948185612c52565b9350612ca4818560208601612c62565b612cad81612c70565b840191505092915050565b5f6020820190508181035f830152612cd08184612c80565b905092915050565b5f819050919050565b612cea81612cd8565b8114612cf4575f80fd5b50565b5f81359050612d0581612ce1565b92915050565b5f8060408385031215612d2157612d20612b48565b5b5f612d2e85828601612b96565b9250506020612d3f85828601612cf7565b9150509250929050565b612d5281612bd5565b82525050565b5f602082019050612d6b5f830184612d49565b92915050565b612d7a81612cd8565b82525050565b5f602082019050612d935f830184612d71565b92915050565b5f805f60608486031215612db057612daf612b48565b5b5f612dbd86828701612b96565b9350506020612dce86828701612b96565b9250506040612ddf86828701612cf7565b9150509250925092565b5f60ff82169050919050565b612dfe81612de9565b82525050565b5f602082019050612e175f830184612df5565b92915050565b5f8060408385031215612e3357612e32612b48565b5b5f612e4085828601612b96565b9250506020612e5185828601612b96565b9150509250929050565b5f80fd5b5f80fd5b5f80fd5b5f8083601f840112612e7c57612e7b612e5b565b5b8235905067ffffffffffffffff811115612e9957612e98612e5f565b5b602083019150836001820283011115612eb557612eb4612e63565b5b9250929050565b5f8060208385031215612ed257612ed1612b48565b5b5f83013567ffffffffffffffff811115612eef57612eee612b4c565b5b612efb85828601612e67565b92509250509250929050565b612f1081612b6f565b82525050565b5f60a082019050612f295f830188612f07565b612f366020830187612d71565b612f436040830186612d71565b612f506060830185612d71565b612f5d6080830184612d71565b9695505050505050565b5f602082019050612f7a5f830184612f07565b92915050565b5f819050919050565b612f9281612f80565b8114612f9c575f80fd5b50565b5f81359050612fad81612f89565b92915050565b5f60208284031215612fc857612fc7612b48565b5b5f612fd584828501612f9f565b91505092915050565b7f4f776e61626c653a2063616c6c6572206973206e6f7420746865206f776e65725f82015250565b5f613012602083612c52565b915061301d82612fde565b602082019050919050565b5f6020820190508181035f83015261303f81613006565b9050919050565b7f43616e6e6f7420776974686472617720747261636b657220746f6b656e7300005f82015250565b5f61307a601e83612c52565b915061308582613046565b602082019050919050565b5f6020820190508181035f8301526130a78161306e565b9050919050565b5f815190506130bc81612ce1565b92915050565b5f602082840312156130d7576130d6612b48565b5b5f6130e4848285016130ae565b91505092915050565b5f6040820190506131005f830185612f07565b61310d6020830184612d71565b9392505050565b5f8151905061312281612be0565b92915050565b5f6020828403121561313d5761313c612b48565b5b5f61314a84828501613114565b91505092915050565b7f4e6f206469766964656e647320746f20646973747269627574650000000000005f82015250565b5f613187601a83612c52565b915061319282613153565b602082019050919050565b5f6020820190508181035f8301526131b48161317b565b9050919050565b5f819050919050565b6131d56131d082612cd8565b6131bb565b82525050565b5f6131e682866131c4565b6020820191506131f682856131c4565b60208201915061320682846131c4565b602082019150819050949350505050565b61322081612f80565b82525050565b5f6020820190506132395f830184613217565b92915050565b7f537461747573206e6f74206368616e67656400000000000000000000000000005f82015250565b5f613273601283612c52565b915061327e8261323f565b602082019050919050565b5f6020820190508181035f8301526132a081613267565b9050919050565b7f4e487b71000000000000000000000000000000000000000000000000000000005f52602260045260245ffd5b5f60028204905060018216806132eb57607f821691505b6020821081036132fe576132fd6132a7565b5b50919050565b5f819050919050565b7f4e487b71000000000000000000000000000000000000000000000000000000005f52601160045260245ffd5b5f61334482613304565b915061334f83613304565b92508282019050828112155f8312168382125f8412151617156133755761337461330d565b5b92915050565b7f4e487b71000000000000000000000000000000000000000000000000000000005f52601260045260245ffd5b5f6133b282612cd8565b91506133bd83612cd8565b9250826133cd576133cc61337b565b5b828204905092915050565b7f496e76616c696420726563697069656e740000000000000000000000000000005f82015250565b5f61340c601183612c52565b9150613417826133d8565b602082019050919050565b5f6020820190508181035f83015261343981613400565b9050919050565b7f4d7573742077616974206265666f726520636c61696d696e67000000000000005f82015250565b5f613474601983612c52565b915061347f82613440565b602082019050919050565b5f6020820190508181035f8301526134a181613468565b9050919050565b5f81905092915050565b828183375f83830152505050565b5f6134cb83856134a8565b93506134d88385846134b2565b82840190509392505050565b5f6134f08284866134c0565b91508190509392505050565b7f50726f6f6620616c7265616479207573656400000000000000000000000000005f82015250565b5f613530601283612c52565b915061353b826134fc565b602082019050919050565b5f6020820190508181035f83015261355d81613524565b9050919050565b7f42656c6f77206d696e696d756d20636c61696d000000000000000000000000005f82015250565b5f613598601383612c52565b91506135a382613564565b602082019050919050565b5f6020820190508181035f8301526135c58161358c565b9050919050565b5f6135d682612cd8565b91506135e183612cd8565b92508282019050808211156135f9576135f861330d565b5b92915050565b5f6040820190506136125f830185612d71565b61361f6020830184613217565b9392505050565b5f8160601b9050919050565b5f61363c82613626565b9050919050565b5f61364d82613632565b9050919050565b61366561366082612b6f565b613643565b82525050565b5f6136768286613654565b60148201915061368682856131c4565b60208201915061369682846131c4565b602082019150819050949350505050565b7f4f776e61626c653a206e6577206f776e657220697320746865207a65726f20615f8201527f6464726573730000000000000000000000000000000000000000000000000000602082015250565b5f613701602683612c52565b915061370c826136a7565b604082019050919050565b5f6020820190508181035f83015261372e816136f5565b9050919050565b7f4e6f20737570706c7900000000000000000000000000000000000000000000005f82015250565b5f613769600983612c52565b915061377482613735565b602082019050919050565b5f6020820190508181035f8301526137968161375d565b9050919050565b7f45524332303a20617070726f76652066726f6d20746865207a65726f206164645f8201527f7265737300000000000000000000000000000000000000000000000000000000602082015250565b5f6137f7602483612c52565b91506138028261379d565b604082019050919050565b5f6020820190508181035f830152613824816137eb565b9050919050565b7f45524332303a20617070726f766520746f20746865207a65726f2061646472655f8201527f7373000000000000000000000000000000000000000000000000000000000000602082015250565b5f613885602283612c52565b91506138908261382b565b604082019050919050565b5f6020820190508181035f8301526138b281613879565b9050919050565b7f416464726573733a20696e73756666696369656e742062616c616e63650000005f82015250565b5f6138ed601d83612c52565b91506138f8826138b9565b602082019050919050565b5f6020820190508181035f83015261391a816138e1565b9050919050565b50565b5f61392f5f836134a8565b915061393a82613921565b5f82019050919050565b5f61394e82613924565b9150819050919050565b7f416464726573733a20756e61626c6520746f2073656e642076616c75652c20725f8201527f6563697069656e74206d61792068617665207265766572746564000000000000602082015250565b5f6139b2603a83612c52565b91506139bd82613958565b604082019050919050565b5f6020820190508181035f8301526139df816139a6565b9050919050565b7f4469766964656e6420747261636b65723a204e6f207472616e736665727320615f8201527f6c6c6f7765640000000000000000000000000000000000000000000000000000602082015250565b5f613a40602683612c52565b9150613a4b826139e6565b604082019050919050565b5f6020820190508181035f830152613a6d81613a34565b9050919050565b5f613a7e82612cd8565b9150613a8983612cd8565b9250828203905081811115613aa157613aa061330d565b5b92915050565b5f613ab182612cd8565b9150613abc83612cd8565b9250828202613aca81612cd8565b91508282048414831517613ae157613ae061330d565b5b5092915050565b7f536166654d6174683a206d756c7469706c69636174696f6e206f766572666c6f5f8201527f7700000000000000000000000000000000000000000000000000000000000000602082015250565b5f613b42602183612c52565b9150613b4d82613ae8565b604082019050919050565b5f6020820190508181035f830152613b6f81613b36565b9050919050565b7f536166654d6174683a206164646974696f6e206f766572666c6f7700000000005f82015250565b5f613baa601b83612c52565b9150613bb582613b76565b602082019050919050565b5f6020820190508181035f830152613bd781613b9e565b9050919050565b7f45524332303a206d696e7420746f20746865207a65726f2061646472657373005f82015250565b5f613c12601f83612c52565b9150613c1d82613bde565b602082019050919050565b5f6020820190508181035f830152613c3f81613c06565b9050919050565b7f45524332303a206275726e2066726f6d20746865207a65726f206164647265735f8201527f7300000000000000000000000000000000000000000000000000000000000000602082015250565b5f613ca0602183612c52565b9150613cab82613c46565b604082019050919050565b5f6020820190508181035f830152613ccd81613c94565b905091905056fe45524332303a206275726e20616d6f756e7420657863656564732062616c616e636545524332303a207472616e7366657220616d6f756e74206578636565647320616c6c6f77616e636545524332303a2064656372656173656420616c6c6f77616e63652062656c6f77207a65726fa2646970667358221220c28dadce9d4fd52543351550054c4eb7c2f1b3dd224c8f2429c9f01ae14c308264736f6c634300081a0033",
			"opcodes": "PUSH1 0x80 PUSH1 0x40 MSTORE PUSH1 0x1 PUSH1 0x9 PUSH1 0x15 PUSH2 0x100 EXP DUP2 SLOAD DUP2 PUSH1 0xFF MUL NOT AND SWAP1 DUP4 ISZERO ISZERO MUL OR SWAP1 SSTORE POP PUSH10 0x69E10DE76676D0800000 PUSH1 0xD SSTORE PUSH10 0xD3C21BCECCEDA1000000 PUSH1 0xE SSTORE PUSH10 0xD3C21BCECCEDA1000000 PUSH1 0xF SSTORE PUSH1 0x40 MLOAD DUP1 PUSH1 0xA0 ADD PUSH1 0x40 MSTORE DUP1 PUSH1 0x2 DUP2 MSTORE PUSH1 0x20 ADD PUSH1 0x2 DUP2 MSTORE PUSH1 0x20 ADD PUSH1 0x2 DUP2 MSTORE PUSH1 0x20 ADD PUSH1 0x2 DUP2 MSTORE PUSH1 0x20 ADD PUSH1 0x2 DUP2 MSTORE POP PUSH1 0x10 PUSH0 DUP3 ADD MLOAD DUP2 PUSH0 ADD SSTORE PUSH1 0x20 DUP3 ADD MLOAD DUP2 PUSH1 0x1 ADD SSTORE PUSH1 0x40 DUP3 ADD MLOAD DUP2 PUSH1 0x2 ADD SSTORE PUSH1 0x60 DUP3 ADD MLOAD DUP2 PUSH1 0x3 ADD SSTORE PUSH1 0x80 DUP3 ADD MLOAD DUP2 PUSH1 0x4 ADD SSTORE POP POP PUSH1 0x40 MLOAD DUP1 PUSH1 0xA0 ADD PUSH1 0x40 MSTORE DUP1 PUSH1 0x3 DUP2 MSTORE PUSH1 0x20 ADD PUSH1 0x3 DUP2 MSTORE PUSH1 0x20 ADD PUSH1 0x3 DUP2 MSTORE PUSH1 0x20 ADD PUSH1 0x1 DUP2 MSTORE PUSH1 0x20 ADD PUSH1 0x3 DUP2 MSTORE POP PUSH1 0x15 PUSH0 DUP3 ADD MLOAD DUP2 PUSH0 ADD SSTORE PUSH1 0x20 DUP3 ADD MLOAD DUP2 PUSH1 0x1 ADD SSTORE PUSH1 0x40 DUP3 ADD MLOAD DUP2 PUSH1 0x2 ADD SSTORE PUSH1 0x60 DUP3 ADD MLOAD DUP2 PUSH1 0x3 ADD SSTORE PUSH1 0x80 DUP3 ADD MLOAD DUP2 PUSH1 0x4 ADD SSTORE POP POP PUSH1 0x8 PUSH1 0x1A SSTORE PUSH1 0xA PUSH1 0x1B SSTORE CALLVALUE DUP1 ISZERO PUSH2 0x11E JUMPI PUSH0 DUP1 REVERT JUMPDEST POP PUSH1 0x40 MLOAD PUSH2 0xF19E CODESIZE SUB DUP1 PUSH2 0xF19E DUP4 CODECOPY DUP2 DUP2 ADD PUSH1 0x40 MSTORE DUP2 ADD SWAP1 PUSH2 0x140 SWAP2 SWAP1 PUSH2 0xC6E JUMP JUMPDEST PUSH1 0x40 MLOAD DUP1 PUSH1 0x40 ADD PUSH1 0x40 MSTORE DUP1 PUSH1 0xA DUP2 MSTORE PUSH1 0x20 ADD PUSH32 0x4369706865725A65726F00000000000000000000000000000000000000000000 DUP2 MSTORE POP PUSH1 0x40 MLOAD DUP1 PUSH1 0x40 ADD PUSH1 0x40 MSTORE DUP1 PUSH1 0x3 DUP2 MSTORE PUSH1 0x20 ADD PUSH32 0x435A540000000000000000000000000000000000000000000000000000000000 DUP2 MSTORE POP DUP2 PUSH1 0x3 SWAP1 DUP2 PUSH2 0x1BB SWAP2 SWAP1 PUSH2 0xF0C JUMP JUMPDEST POP DUP1 PUSH1 0x4 SWAP1 DUP2 PUSH2 0x1CB SWAP2 SWAP1 PUSH2 0xF0C JUMP JUMPDEST POP POP POP PUSH0 PUSH2 0x1DD PUSH2 0x651 PUSH1 0x20 SHL PUSH1 0x20 SHR JUMP JUMPDEST SWAP1 POP DUP1 PUSH1 0x5 PUSH0 PUSH2 0x100 EXP DUP2 SLOAD DUP2 PUSH20 0xFFFFFFFFFFFFFFFFFFFFFFFFFFFFFFFFFFFFFFFF MUL NOT AND SWAP1 DUP4 PUSH20 0xFFFFFFFFFFFFFFFFFFFFFFFFFFFFFFFFFFFFFFFF AND MUL OR SWAP1 SSTORE POP DUP1 PUSH20 0xFFFFFFFFFFFFFFFFFFFFFFFFFFFFFFFFFFFFFFFF AND PUSH0 PUSH20 0xFFFFFFFFFFFFFFFFFFFFFFFFFFFFFFFFFFFFFFFF AND PUSH32 0x8BE0079C531659141344CD1FD0A4F28419497F9722A3DAAFE3B4186F6B6457E0 PUSH1 0x40 MLOAD PUSH1 0x40 MLOAD DUP1 SWAP2 SUB SWAP1 LOG3 POP DUP4 PUSH1 0x8 PUSH0 PUSH2 0x100 EXP DUP2 SLOAD DUP2 PUSH20 0xFFFFFFFFFFFFFFFFFFFFFFFFFFFFFFFFFFFFFFFF MUL NOT AND SWAP1 DUP4 PUSH20 0xFFFFFFFFFFFFFFFFFFFFFFFFFFFFFFFFFFFFFFFF AND MUL OR SWAP1 SSTORE POP DUP2 PUSH1 0xA PUSH0 PUSH2 0x100 EXP DUP2 SLOAD DUP2 PUSH20 0xFFFFFFFFFFFFFFFFFFFFFFFFFFFFFFFFFFFFFFFF MUL NOT AND SWAP1 DUP4 PUSH20 0xFFFFFFFFFFFFFFFFFFFFFFFFFFFFFFFFFFFFFFFF AND MUL OR SWAP1 SSTORE POP DUP1 PUSH1 0xB PUSH0 PUSH2 0x100 EXP DUP2 SLOAD DUP2 PUSH20 0xFFFFFFFFFFFFFFFFFFFFFFFFFFFFFFFFFFFFFFFF MUL NOT AND SWAP1 DUP4 PUSH20 0xFFFFFFFFFFFFFFFFFFFFFFFFFFFFFFFFFFFFFFFF AND MUL OR SWAP1 SSTORE POP PUSH1 0x40 MLOAD PUSH2 0x346 SWAP1 PUSH2 0xC03 JUMP JUMPDEST PUSH1 0x40 MLOAD DUP1 SWAP2 SUB SWAP1 PUSH0 CREATE DUP1 ISZERO DUP1 ISZERO PUSH2 0x35F JUMPI RETURNDATASIZE PUSH0 DUP1 RETURNDATACOPY RETURNDATASIZE PUSH0 REVERT JUMPDEST POP PUSH1 0x9 PUSH0 PUSH2 0x100 EXP DUP2 SLOAD DUP2 PUSH20 0xFFFFFFFFFFFFFFFFFFFFFFFFFFFFFFFFFFFFFFFF MUL NOT AND SWAP1 DUP4 PUSH20 0xFFFFFFFFFFFFFFFFFFFFFFFFFFFFFFFFFFFFFFFF AND MUL OR SWAP1 SSTORE POP PUSH0 DUP4 SWAP1 POP PUSH0 DUP2 PUSH20 0xFFFFFFFFFFFFFFFFFFFFFFFFFFFFFFFFFFFFFFFF AND PUSH4 0xC45A0155 PUSH1 0x40 MLOAD DUP2 PUSH4 0xFFFFFFFF AND PUSH1 0xE0 SHL DUP2 MSTORE PUSH1 0x4 ADD PUSH1 0x20 PUSH1 0x40 MLOAD DUP1 DUP4 SUB DUP2 DUP7 GAS STATICCALL ISZERO DUP1 ISZERO PUSH2 0x3ED JUMPI RETURNDATASIZE PUSH0 DUP1 RETURNDATACOPY RETURNDATASIZE PUSH0 REVERT JUMPDEST POP POP POP POP PUSH1 0x40 MLOAD RETURNDATASIZE PUSH1 0x1F NOT PUSH1 0x1F DUP3 ADD AND DUP3 ADD DUP1 PUSH1 0x40 MSTORE POP DUP2 ADD SWAP1 PUSH2 0x411 SWAP2 SWAP1 PUSH2 0xFDB JUMP JUMPDEST PUSH20 0xFFFFFFFFFFFFFFFFFFFFFFFFFFFFFFFFFFFFFFFF AND PUSH4 0xC9C65396 ADDRESS DUP5 PUSH20 0xFFFFFFFFFFFFFFFFFFFFFFFFFFFFFFFFFFFFFFFF AND PUSH4 0xAD5C4648 PUSH1 0x40 MLOAD DUP2 PUSH4 0xFFFFFFFF AND PUSH1 0xE0 SHL DUP2 MSTORE PUSH1 0x4 ADD PUSH1 0x20 PUSH1 0x40 MLOAD DUP1 DUP4 SUB DUP2 DUP7 GAS STATICCALL ISZERO DUP1 ISZERO PUSH2 0x476 JUMPI RETURNDATASIZE PUSH0 DUP1 RETURNDATACOPY RETURNDATASIZE PUSH0 REVERT JUMPDEST POP POP POP POP PUSH1 0x40 MLOAD RETURNDATASIZE PUSH1 0x1F NOT PUSH1 0x1F DUP3 ADD AND DUP3 ADD DUP1 PUSH1 0x40 MSTORE POP DUP2 ADD SWAP1 PUSH2 0x49A SWAP2 SWAP1 PUSH2 0xFDB JUMP JUMPDEST PUSH1 0x40 MLOAD DUP4 PUSH4 0xFFFFFFFF AND PUSH1 0xE0 SHL DUP2 MSTORE PUSH1 0x4 ADD PUSH2 0x4B7 SWAP3 SWAP2 SWAP1 PUSH2 0x1015 JUMP JUMPDEST PUSH1 0x20 PUSH1 0x40 MLOAD DUP1 DUP4 SUB DUP2 PUSH0 DUP8 GAS CALL ISZERO DUP1 ISZERO PUSH2 0x4D3 JUMPI RETURNDATASIZE PUSH0 DUP1 RETURNDATACOPY RETURNDATASIZE PUSH0 REVERT JUMPDEST POP POP POP POP PUSH1 0x40 MLOAD RETURNDATASIZE PUSH1 0x1F NOT PUSH1 0x1F DUP3 ADD AND DUP3 ADD DUP1 PUSH1 0x40 MSTORE POP DUP2 ADD SWAP1 PUSH2 0x4F7 SWAP2 SWAP1 PUSH2 0xFDB JUMP JUMPDEST SWAP1 POP DUP2 PUSH1 0x6 PUSH0 PUSH2 0x100 EXP DUP2 SLOAD DUP2 PUSH20 0xFFFFFFFFFFFFFFFFFFFFFFFFFFFFFFFFFFFFFFFF MUL NOT AND SWAP1 DUP4 PUSH20 0xFFFFFFFFFFFFFFFFFFFFFFFFFFFFFFFFFFFFFFFF AND MUL OR SWAP1 SSTORE POP DUP1 PUSH1 0x7 PUSH0 PUSH2 0x100 EXP DUP2 SLOAD DUP2 PUSH20 0xFFFFFFFFFFFFFFFFFFFFFFFFFFFFFFFFFFFFFFFF MUL NOT AND SWAP1 DUP4 PUSH20 0xFFFFFFFFFFFFFFFFFFFFFFFFFFFFFFFFFFFFFFFF AND MUL OR SWAP1 SSTORE POP PUSH2 0x58A DUP2 PUSH1 0x1 PUSH2 0x658 PUSH1 0x20 SHL PUSH1 0x20 SHR JUMP JUMPDEST PUSH2 0x5A8 PUSH2 0x59B PUSH2 0x816 PUSH1 0x20 SHL PUSH1 0x20 SHR JUMP JUMPDEST PUSH1 0x1 PUSH2 0x83E PUSH1 0x20 SHL PUSH1 0x20 SHR JUMP JUMPDEST PUSH2 0x5B9 ADDRESS PUSH1 0x1 PUSH2 0x83E PUSH1 0x20 SHL PUSH1 0x20 SHR JUMP JUMPDEST PUSH2 0x5EB PUSH1 0xA PUSH0 SWAP1 SLOAD SWAP1 PUSH2 0x100 EXP SWAP1 DIV PUSH20 0xFFFFFFFFFFFFFFFFFFFFFFFFFFFFFFFFFFFFFFFF AND PUSH1 0x1 PUSH2 0x83E PUSH1 0x20 SHL PUSH1 0x20 SHR JUMP JUMPDEST PUSH2 0x61D PUSH1 0xB PUSH0 SWAP1 SLOAD SWAP1 PUSH2 0x100 EXP SWAP1 DIV PUSH20 0xFFFFFFFFFFFFFFFFFFFFFFFFFFFFFFFFFFFFFFFF AND PUSH1 0x1 PUSH2 0x83E PUSH1 0x20 SHL PUSH1 0x20 SHR JUMP JUMPDEST PUSH2 0x646 PUSH2 0x62E PUSH2 0x816 PUSH1 0x20 SHL PUSH1 0x20 SHR JUMP JUMPDEST PUSH12 0x33B2E3C9FD0803CE8000000 PUSH2 0xA0F PUSH1 0x20 SHL PUSH1 0x20 SHR JUMP JUMPDEST POP POP POP POP POP POP PUSH2 0x1382 JUMP JUMPDEST PUSH0 CALLER SWAP1 POP SWAP1 JUMP JUMPDEST DUP1 ISZERO ISZERO PUSH1 0x1F PUSH0 DUP5 PUSH20 0xFFFFFFFFFFFFFFFFFFFFFFFFFFFFFFFFFFFFFFFF AND PUSH20 0xFFFFFFFFFFFFFFFFFFFFFFFFFFFFFFFFFFFFFFFF AND DUP2 MSTORE PUSH1 0x20 ADD SWAP1 DUP2 MSTORE PUSH1 0x20 ADD PUSH0 KECCAK256 PUSH0 SWAP1 SLOAD SWAP1 PUSH2 0x100 EXP SWAP1 DIV PUSH1 0xFF AND ISZERO ISZERO SUB PUSH2 0x6E7 JUMPI PUSH1 0x40 MLOAD PUSH32 0x8C379A000000000000000000000000000000000000000000000000000000000 DUP2 MSTORE PUSH1 0x4 ADD PUSH2 0x6DE SWAP1 PUSH2 0x10BC JUMP JUMPDEST PUSH1 0x40 MLOAD DUP1 SWAP2 SUB SWAP1 REVERT JUMPDEST DUP1 PUSH1 0x1F PUSH0 DUP5 PUSH20 0xFFFFFFFFFFFFFFFFFFFFFFFFFFFFFFFFFFFFFFFF AND PUSH20 0xFFFFFFFFFFFFFFFFFFFFFFFFFFFFFFFFFFFFFFFF AND DUP2 MSTORE PUSH1 0x20 ADD SWAP1 DUP2 MSTORE PUSH1 0x20 ADD PUSH0 KECCAK256 PUSH0 PUSH2 0x100 EXP DUP2 SLOAD DUP2 PUSH1 0xFF MUL NOT AND SWAP1 DUP4 ISZERO ISZERO MUL OR SWAP1 SSTORE POP DUP1 ISZERO PUSH2 0x7CC JUMPI PUSH1 0x9 PUSH0 SWAP1 SLOAD SWAP1 PUSH2 0x100 EXP SWAP1 DIV PUSH20 0xFFFFFFFFFFFFFFFFFFFFFFFFFFFFFFFFFFFFFFFF AND PUSH20 0xFFFFFFFFFFFFFFFFFFFFFFFFFFFFFFFFFFFFFFFF AND PUSH4 0x483F7A0 DUP4 PUSH1 0x1 PUSH1 0x40 MLOAD DUP4 PUSH4 0xFFFFFFFF AND PUSH1 0xE0 SHL DUP2 MSTORE PUSH1 0x4 ADD PUSH2 0x79E SWAP3 SWAP2 SWAP1 PUSH2 0x10F4 JUMP JUMPDEST PUSH0 PUSH1 0x40 MLOAD DUP1 DUP4 SUB DUP2 PUSH0 DUP8 DUP1 EXTCODESIZE ISZERO DUP1 ISZERO PUSH2 0x7B5 JUMPI PUSH0 DUP1 REVERT JUMPDEST POP GAS CALL ISZERO DUP1 ISZERO PUSH2 0x7C7 JUMPI RETURNDATASIZE PUSH0 DUP1 RETURNDATACOPY RETURNDATASIZE PUSH0 REVERT JUMPDEST POP POP POP POP JUMPDEST DUP1 ISZERO ISZERO DUP3 PUSH20 0xFFFFFFFFFFFFFFFFFFFFFFFFFFFFFFFFFFFFFFFF AND PUSH32 0xFFA9187BF1F18BF477BD0EA1BCBB64E93B6A98132473929EDFCE215CD9B16FAB PUSH1 0x40 MLOAD PUSH1 0x40 MLOAD DUP1 SWAP2 SUB SWAP1 LOG3 POP POP JUMP JUMPDEST PUSH0 PUSH1 0x5 PUSH0 SWAP1 SLOAD SWAP1 PUSH2 0x100 EXP SWAP1 DIV PUSH20 0xFFFFFFFFFFFFFFFFFFFFFFFFFFFFFFFFFFFFFFFF AND SWAP1 POP SWAP1 JUMP JUMPDEST PUSH2 0x84C PUSH2 0x651 PUSH1 0x20 SHL PUSH1 0x20 SHR JUMP JUMPDEST PUSH20 0xFFFFFFFFFFFFFFFFFFFFFFFFFFFFFFFFFFFFFFFF AND PUSH1 0x5 PUSH0 SWAP1 SLOAD SWAP1 PUSH2 0x100 EXP SWAP1 DIV PUSH20 0xFFFFFFFFFFFFFFFFFFFFFFFFFFFFFFFFFFFFFFFF AND PUSH20 0xFFFFFFFFFFFFFFFFFFFFFFFFFFFFFFFFFFFFFFFF AND EQ PUSH2 0x8DA JUMPI PUSH1 0x40 MLOAD PUSH32 0x8C379A000000000000000000000000000000000000000000000000000000000 DUP2 MSTORE PUSH1 0x4 ADD PUSH2 0x8D1 SWAP1 PUSH2 0x1165 JUMP JUMPDEST PUSH1 0x40 MLOAD DUP1 SWAP2 SUB SWAP1 REVERT JUMPDEST DUP1 ISZERO ISZERO PUSH1 0x1E PUSH0 DUP5 PUSH20 0xFFFFFFFFFFFFFFFFFFFFFFFFFFFFFFFFFFFFFFFF AND PUSH20 0xFFFFFFFFFFFFFFFFFFFFFFFFFFFFFFFFFFFFFFFF AND DUP2 MSTORE PUSH1 0x20 ADD SWAP1 DUP2 MSTORE PUSH1 0x20 ADD PUSH0 KECCAK256 PUSH0 SWAP1 SLOAD SWAP1 PUSH2 0x100 EXP SWAP1 DIV PUSH1 0xFF AND ISZERO ISZERO SUB PUSH2 0x969 JUMPI PUSH1 0x40 MLOAD PUSH32 0x8C379A000000000000000000000000000000000000000000000000000000000 DUP2 MSTORE PUSH1 0x4 ADD PUSH2 0x960 SWAP1 PUSH2 0x11F3 JUMP JUMPDEST PUSH1 0x40 MLOAD DUP1 SWAP2 SUB SWAP1 REVERT JUMPDEST DUP1 PUSH1 0x1E PUSH0 DUP5 PUSH20 0xFFFFFFFFFFFFFFFFFFFFFFFFFFFFFFFFFFFFFFFF AND PUSH20 0xFFFFFFFFFFFFFFFFFFFFFFFFFFFFFFFFFFFFFFFF AND DUP2 MSTORE PUSH1 0x20 ADD SWAP1 DUP2 MSTORE PUSH1 0x20 ADD PUSH0 KECCAK256 PUSH0 PUSH2 0x100 EXP DUP2 SLOAD DUP2 PUSH1 0xFF MUL NOT AND SWAP1 DUP4 ISZERO ISZERO MUL OR SWAP1 SSTORE POP DUP2 PUSH20 0xFFFFFFFFFFFFFFFFFFFFFFFFFFFFFFFFFFFFFFFF AND PUSH32 0x9D8F7706EA1113D1A167B526ECA956215946DD36CC7DF39EB16180222D8B5DF7 DUP3 PUSH1 0x40 MLOAD PUSH2 0xA03 SWAP2 SWAP1 PUSH2 0x1211 JUMP JUMPDEST PUSH1 0x40 MLOAD DUP1 SWAP2 SUB SWAP1 LOG2 POP POP JUMP JUMPDEST PUSH0 PUSH20 0xFFFFFFFFFFFFFFFFFFFFFFFFFFFFFFFFFFFFFFFF AND DUP3 PUSH20 0xFFFFFFFFFFFFFFFFFFFFFFFFFFFFFFFFFFFFFFFF AND SUB PUSH2 0xA7D JUMPI PUSH1 0x40 MLOAD PUSH32 0x8C379A000000000000000000000000000000000000000000000000000000000 DUP2 MSTORE PUSH1 0x4 ADD PUSH2 0xA74 SWAP1 PUSH2 0x1274 JUMP JUMPDEST PUSH1 0x40 MLOAD DUP1 SWAP2 SUB SWAP1 REVERT JUMPDEST PUSH2 0xA8E PUSH0 DUP4 DUP4 PUSH2 0xBA1 PUSH1 0x20 SHL PUSH1 0x20 SHR JUMP JUMPDEST PUSH2 0xAA3 DUP2 PUSH1 0x2 SLOAD PUSH2 0xBA6 PUSH1 0x20 SHL SWAP1 SWAP2 SWAP1 PUSH1 0x20 SHR JUMP JUMPDEST PUSH1 0x2 DUP2 SWAP1 SSTORE POP PUSH2 0xAF8 DUP2 PUSH0 DUP1 DUP6 PUSH20 0xFFFFFFFFFFFFFFFFFFFFFFFFFFFFFFFFFFFFFFFF AND PUSH20 0xFFFFFFFFFFFFFFFFFFFFFFFFFFFFFFFFFFFFFFFF AND DUP2 MSTORE PUSH1 0x20 ADD SWAP1 DUP2 MSTORE PUSH1 0x20 ADD PUSH0 KECCAK256 SLOAD PUSH2 0xBA6 PUSH1 0x20 SHL SWAP1 SWAP2 SWAP1 PUSH1 0x20 SHR JUMP JUMPDEST PUSH0 DUP1 DUP5 PUSH20 0xFFFFFFFFFFFFFFFFFFFFFFFFFFFFFFFFFFFFFFFF AND PUSH20 0xFFFFFFFFFFFFFFFFFFFFFFFFFFFFFFFFFFFFFFFF AND DUP2 MSTORE PUSH1 0x20 ADD SWAP1 DUP2 MSTORE PUSH1 0x20 ADD PUSH0 KECCAK256 DUP2 SWAP1 SSTORE POP DUP2 PUSH20 0xFFFFFFFFFFFFFFFFFFFFFFFFFFFFFFFFFFFFFFFF AND PUSH0 PUSH20 0xFFFFFFFFFFFFFFFFFFFFFFFFFFFFFFFFFFFFFFFF AND PUSH32 0xDDF252AD1BE2C89B69C2B068FC378DAA952BA7F163C4A11628F55A4DF523B3EF DUP4 PUSH1 0x40 MLOAD PUSH2 0xB95 SWAP2 SWAP1 PUSH2 0x12A1 JUMP JUMPDEST PUSH1 0x40 MLOAD DUP1 SWAP2 SUB SWAP1 LOG3 POP POP JUMP JUMPDEST POP POP POP JUMP JUMPDEST PUSH0 DUP1 DUP3 DUP5 PUSH2 0xBB4 SWAP2 SWAP1 PUSH2 0x12E7 JUMP JUMPDEST SWAP1 POP DUP4 DUP2 LT ISZERO PUSH2 0xBF9 JUMPI PUSH1 0x40 MLOAD PUSH32 0x8C379A000000000000000000000000000000000000000000000000000000000 DUP2 MSTORE PUSH1 0x4 ADD PUSH2 0xBF0 SWAP1 PUSH2 0x1364 JUMP JUMPDEST PUSH1 0x40 MLOAD DUP1 SWAP2 SUB SWAP1 REVERT JUMPDEST DUP1 SWAP2 POP POP SWAP3 SWAP2 POP POP JUMP JUMPDEST PUSH2 0x41E4 DUP1 PUSH2 0xAFBA DUP4 CODECOPY ADD SWAP1 JUMP JUMPDEST PUSH0 DUP1 REVERT JUMPDEST PUSH0 PUSH20 0xFFFFFFFFFFFFFFFFFFFFFFFFFFFFFFFFFFFFFFFF DUP3 AND SWAP1 POP SWAP2 SWAP1 POP JUMP JUMPDEST PUSH0 PUSH2 0xC3D DUP3 PUSH2 0xC14 JUMP JUMPDEST SWAP1 POP SWAP2 SWAP1 POP JUMP JUMPDEST PUSH2 0xC4D DUP2 PUSH2 0xC33 JUMP JUMPDEST DUP2 EQ PUSH2 0xC57 JUMPI PUSH0 DUP1 REVERT JUMPDEST POP JUMP JUMPDEST PUSH0 DUP2 MLOAD SWAP1 POP PUSH2 0xC68 DUP2 PUSH2 0xC44 JUMP JUMPDEST SWAP3 SWAP2 POP POP JUMP JUMPDEST PUSH0 DUP1 PUSH0 DUP1 PUSH1 0x80 DUP6 DUP8 SUB SLT ISZERO PUSH2 0xC86 JUMPI PUSH2 0xC85 PUSH2 0xC10 JUMP JUMPDEST JUMPDEST PUSH0 PUSH2 0xC93 DUP8 DUP3 DUP9 ADD PUSH2 0xC5A JUMP JUMPDEST SWAP5 POP POP PUSH1 0x20 PUSH2 0xCA4 DUP8 DUP3 DUP9 ADD PUSH2 0xC5A JUMP JUMPDEST SWAP4 POP POP PUSH1 0x40 PUSH2 0xCB5 DUP8 DUP3 DUP9 ADD PUSH2 0xC5A JUMP JUMPDEST SWAP3 POP POP PUSH1 0x60 PUSH2 0xCC6 DUP8 DUP3 DUP9 ADD PUSH2 0xC5A JUMP JUMPDEST SWAP2 POP POP SWAP3 SWAP6 SWAP2 SWAP5 POP SWAP3 POP JUMP JUMPDEST PUSH0 DUP2 MLOAD SWAP1 POP SWAP2 SWAP1 POP JUMP JUMPDEST PUSH32 0x4E487B7100000000000000000000000000000000000000000000000000000000 PUSH0 MSTORE PUSH1 0x41 PUSH1 0x4 MSTORE PUSH1 0x24 PUSH0 REVERT JUMPDEST PUSH32 0x4E487B7100000000000000000000000000000000000000000000000000000000 PUSH0 MSTORE PUSH1 0x22 PUSH1 0x4 MSTORE PUSH1 0x24 PUSH0 REVERT JUMPDEST PUSH0 PUSH1 0x2 DUP3 DIV SWAP1 POP PUSH1 0x1 DUP3 AND DUP1 PUSH2 0xD4D JUMPI PUSH1 0x7F DUP3 AND SWAP2 POP JUMPDEST PUSH1 0x20 DUP3 LT DUP2 SUB PUSH2 0xD60 JUMPI PUSH2 0xD5F PUSH2 0xD09 JUMP JUMPDEST JUMPDEST POP SWAP2 SWAP1 POP JUMP JUMPDEST PUSH0 DUP2 SWAP1 POP DUP2 PUSH0 MSTORE PUSH1 0x20 PUSH0 KECCAK256 SWAP1 POP SWAP2 SWAP1 POP JUMP JUMPDEST PUSH0 PUSH1 0x20 PUSH1 0x1F DUP4 ADD DIV SWAP1 POP SWAP2 SWAP1 POP JUMP JUMPDEST PUSH0 DUP3 DUP3 SHL SWAP1 POP SWAP3 SWAP2 POP POP JUMP JUMPDEST PUSH0 PUSH1 0x8 DUP4 MUL PUSH2 0xDC2 PUSH32 0xFFFFFFFFFFFFFFFFFFFFFFFFFFFFFFFFFFFFFFFFFFFFFFFFFFFFFFFFFFFFFFFF DUP3 PUSH2 0xD87 JUMP JUMPDEST PUSH2 0xDCC DUP7 DUP4 PUSH2 0xD87 JUMP JUMPDEST SWAP6 POP DUP1 NOT DUP5 AND SWAP4 POP DUP1 DUP7 AND DUP5 OR SWAP3 POP POP POP SWAP4 SWAP3 POP POP POP JUMP JUMPDEST PUSH0 DUP2 SWAP1 POP SWAP2 SWAP1 POP JUMP JUMPDEST PUSH0 DUP2 SWAP1 POP SWAP2 SWAP1 POP JUMP JUMPDEST PUSH0 PUSH2 0xE10 PUSH2 0xE0B PUSH2 0xE06 DUP5 PUSH2 0xDE4 JUMP JUMPDEST PUSH2 0xDED JUMP JUMPDEST PUSH2 0xDE4 JUMP JUMPDEST SWAP1 POP SWAP2 SWAP1 POP JUMP JUMPDEST PUSH0 DUP2 SWAP1 POP SWAP2 SWAP1 POP JUMP JUMPDEST PUSH2 0xE29 DUP4 PUSH2 0xDF6 JUMP JUMPDEST PUSH2 0xE3D PUSH2 0xE35 DUP3 PUSH2 0xE17 JUMP JUMPDEST DUP5 DUP5 SLOAD PUSH2 0xD93 JUMP JUMPDEST DUP3 SSTORE POP POP POP POP JUMP JUMPDEST PUSH0 SWAP1 JUMP JUMPDEST PUSH2 0xE51 PUSH2 0xE45 JUMP JUMPDEST PUSH2 0xE5C DUP2 DUP5 DUP5 PUSH2 0xE20 JUMP JUMPDEST POP POP POP JUMP JUMPDEST JUMPDEST DUP2 DUP2 LT ISZERO PUSH2 0xE7F JUMPI PUSH2 0xE74 PUSH0 DUP3 PUSH2 0xE49 JUMP JUMPDEST PUSH1 0x1 DUP2 ADD SWAP1 POP PUSH2 0xE62 JUMP JUMPDEST POP POP JUMP JUMPDEST PUSH1 0x1F DUP3 GT ISZERO PUSH2 0xEC4 JUMPI PUSH2 0xE95 DUP2 PUSH2 0xD66 JUMP JUMPDEST PUSH2 0xE9E DUP5 PUSH2 0xD78 JUMP JUMPDEST DUP2 ADD PUSH1 0x20 DUP6 LT ISZERO PUSH2 0xEAD JUMPI DUP2 SWAP1 POP JUMPDEST PUSH2 0xEC1 PUSH2 0xEB9 DUP6 PUSH2 0xD78 JUMP JUMPDEST DUP4 ADD DUP3 PUSH2 0xE61 JUMP JUMPDEST POP POP JUMPDEST POP POP POP JUMP JUMPDEST PUSH0 DUP3 DUP3 SHR SWAP1 POP SWAP3 SWAP2 POP POP JUMP JUMPDEST PUSH0 PUSH2 0xEE4 PUSH0 NOT DUP5 PUSH1 0x8 MUL PUSH2 0xEC9 JUMP JUMPDEST NOT DUP1 DUP4 AND SWAP2 POP POP SWAP3 SWAP2 POP POP JUMP JUMPDEST PUSH0 PUSH2 0xEFC DUP4 DUP4 PUSH2 0xED5 JUMP JUMPDEST SWAP2 POP DUP3 PUSH1 0x2 MUL DUP3 OR SWAP1 POP SWAP3 SWAP2 POP POP JUMP JUMPDEST PUSH2 0xF15 DUP3 PUSH2 0xCD2 JUMP JUMPDEST PUSH8 0xFFFFFFFFFFFFFFFF DUP2 GT ISZERO PUSH2 0xF2E JUMPI PUSH2 0xF2D PUSH2 0xCDC JUMP JUMPDEST JUMPDEST PUSH2 0xF38 DUP3 SLOAD PUSH2 0xD36 JUMP JUMPDEST PUSH2 0xF43 DUP3 DUP3 DUP6 PUSH2 0xE83 JUMP JUMPDEST PUSH0 PUSH1 0x20 SWAP1 POP PUSH1 0x1F DUP4 GT PUSH1 0x1 DUP2 EQ PUSH2 0xF74 JUMPI PUSH0 DUP5 ISZERO PUSH2 0xF62 JUMPI DUP3 DUP8 ADD MLOAD SWAP1 POP JUMPDEST PUSH2 0xF6C DUP6 DUP3 PUSH2 0xEF1 JUMP JUMPDEST DUP7 SSTORE POP PUSH2 0xFD3 JUMP JUMPDEST PUSH1 0x1F NOT DUP5 AND PUSH2 0xF82 DUP7 PUSH2 0xD66 JUMP JUMPDEST PUSH0 JUMPDEST DUP3 DUP2 LT ISZERO PUSH2 0xFA9 JUMPI DUP5 DUP10 ADD MLOAD DUP3 SSTORE PUSH1 0x1 DUP3 ADD SWAP2 POP PUSH1 0x20 DUP6 ADD SWAP5 POP PUSH1 0x20 DUP2 ADD SWAP1 POP PUSH2 0xF84 JUMP JUMPDEST DUP7 DUP4 LT ISZERO PUSH2 0xFC6 JUMPI DUP5 DUP10 ADD MLOAD PUSH2 0xFC2 PUSH1 0x1F DUP10 AND DUP3 PUSH2 0xED5 JUMP JUMPDEST DUP4 SSTORE POP JUMPDEST PUSH1 0x1 PUSH1 0x2 DUP9 MUL ADD DUP9 SSTORE POP POP POP JUMPDEST POP POP POP POP POP POP JUMP JUMPDEST PUSH0 PUSH1 0x20 DUP3 DUP5 SUB SLT ISZERO PUSH2 0xFF0 JUMPI PUSH2 0xFEF PUSH2 0xC10 JUMP JUMPDEST JUMPDEST PUSH0 PUSH2 0xFFD DUP5 DUP3 DUP6 ADD PUSH2 0xC5A JUMP JUMPDEST SWAP2 POP POP SWAP3 SWAP2 POP POP JUMP JUMPDEST PUSH2 0x100F DUP2 PUSH2 0xC33 JUMP JUMPDEST DUP3 MSTORE POP POP JUMP JUMPDEST PUSH0 PUSH1 0x40 DUP3 ADD SWAP1 POP PUSH2 0x1028 PUSH0 DUP4 ADD DUP6 PUSH2 0x1006 JUMP JUMPDEST PUSH2 0x1035 PUSH1 0x20 DUP4 ADD DUP5 PUSH2 0x1006 JUMP JUMPDEST SWAP4 SWAP3 POP POP POP JUMP JUMPDEST PUSH0 DUP3 DUP3 MSTORE PUSH1 0x20 DUP3 ADD SWAP1 POP SWAP3 SWAP2 POP POP JUMP JUMPDEST PUSH32 0x564952414C3A204175746F6D61746564206D61726B6574206D616B6572207061 PUSH0 DUP3 ADD MSTORE PUSH32 0x697220697320616C72656164792073657420746F20746861742076616C756500 PUSH1 0x20 DUP3 ADD MSTORE POP JUMP JUMPDEST PUSH0 PUSH2 0x10A6 PUSH1 0x3F DUP4 PUSH2 0x103C JUMP JUMPDEST SWAP2 POP PUSH2 0x10B1 DUP3 PUSH2 0x104C JUMP JUMPDEST PUSH1 0x40 DUP3 ADD SWAP1 POP SWAP2 SWAP1 POP JUMP JUMPDEST PUSH0 PUSH1 0x20 DUP3 ADD SWAP1 POP DUP2 DUP2 SUB PUSH0 DUP4 ADD MSTORE PUSH2 0x10D3 DUP2 PUSH2 0x109A JUMP JUMPDEST SWAP1 POP SWAP2 SWAP1 POP JUMP JUMPDEST PUSH0 DUP2 ISZERO ISZERO SWAP1 POP SWAP2 SWAP1 POP JUMP JUMPDEST PUSH2 0x10EE DUP2 PUSH2 0x10DA JUMP JUMPDEST DUP3 MSTORE POP POP JUMP JUMPDEST PUSH0 PUSH1 0x40 DUP3 ADD SWAP1 POP PUSH2 0x1107 PUSH0 DUP4 ADD DUP6 PUSH2 0x1006 JUMP JUMPDEST PUSH2 0x1114 PUSH1 0x20 DUP4 ADD DUP5 PUSH2 0x10E5 JUMP JUMPDEST SWAP4 SWAP3 POP POP POP JUMP JUMPDEST PUSH32 0x4F776E61626C653A2063616C6C6572206973206E6F7420746865206F776E6572 PUSH0 DUP3 ADD MSTORE POP JUMP JUMPDEST PUSH0 PUSH2 0x114F PUSH1 0x20 DUP4 PUSH2 0x103C JUMP JUMPDEST SWAP2 POP PUSH2 0x115A DUP3 PUSH2 0x111B JUMP JUMPDEST PUSH1 0x20 DUP3 ADD SWAP1 POP SWAP2 SWAP1 POP JUMP JUMPDEST PUSH0 PUSH1 0x20 DUP3 ADD SWAP1 POP DUP2 DUP2 SUB PUSH0 DUP4 ADD MSTORE PUSH2 0x117C DUP2 PUSH2 0x1143 JUMP JUMPDEST SWAP1 POP SWAP2 SWAP1 POP JUMP JUMPDEST PUSH32 0x564952414C3A204163636F756E7420697320616C726561647920746865207661 PUSH0 DUP3 ADD MSTORE PUSH32 0x6C7565206F6620276578636C7564656427000000000000000000000000000000 PUSH1 0x20 DUP3 ADD MSTORE POP JUMP JUMPDEST PUSH0 PUSH2 0x11DD PUSH1 0x31 DUP4 PUSH2 0x103C JUMP JUMPDEST SWAP2 POP PUSH2 0x11E8 DUP3 PUSH2 0x1183 JUMP JUMPDEST PUSH1 0x40 DUP3 ADD SWAP1 POP SWAP2 SWAP1 POP JUMP JUMPDEST PUSH0 PUSH1 0x20 DUP3 ADD SWAP1 POP DUP2 DUP2 SUB PUSH0 DUP4 ADD MSTORE PUSH2 0x120A DUP2 PUSH2 0x11D1 JUMP JUMPDEST SWAP1 POP SWAP2 SWAP1 POP JUMP JUMPDEST PUSH0 PUSH1 0x20 DUP3 ADD SWAP1 POP PUSH2 0x1224 PUSH0 DUP4 ADD DUP5 PUSH2 0x10E5 JUMP JUMPDEST SWAP3 SWAP2 POP POP JUMP JUMPDEST PUSH32 0x45524332303A206D696E7420746F20746865207A65726F206164647265737300 PUSH0 DUP3 ADD MSTORE POP JUMP JUMPDEST PUSH0 PUSH2 0x125E PUSH1 0x1F DUP4 PUSH2 0x103C JUMP JUMPDEST SWAP2 POP PUSH2 0x1269 DUP3 PUSH2 0x122A JUMP JUMPDEST PUSH1 0x20 DUP3 ADD SWAP1 POP SWAP2 SWAP1 POP JUMP JUMPDEST PUSH0 PUSH1 0x20 DUP3 ADD SWAP1 POP DUP2 DUP2 SUB PUSH0 DUP4 ADD MSTORE PUSH2 0x128B DUP2 PUSH2 0x1252 JUMP JUMPDEST SWAP1 POP SWAP2 SWAP1 POP JUMP JUMPDEST PUSH2 0x129B DUP2 PUSH2 0xDE4 JUMP JUMPDEST DUP3 MSTORE POP POP JUMP JUMPDEST PUSH0 PUSH1 0x20 DUP3 ADD SWAP1 POP PUSH2 0x12B4 PUSH0 DUP4 ADD DUP5 PUSH2 0x1292 JUMP JUMPDEST SWAP3 SWAP2 POP POP JUMP JUMPDEST PUSH32 0x4E487B7100000000000000000000000000000000000000000000000000000000 PUSH0 MSTORE PUSH1 0x11 PUSH1 0x4 MSTORE PUSH1 0x24 PUSH0 REVERT JUMPDEST PUSH0 PUSH2 0x12F1 DUP3 PUSH2 0xDE4 JUMP JUMPDEST SWAP2 POP PUSH2 0x12FC DUP4 PUSH2 0xDE4 JUMP JUMPDEST SWAP3 POP DUP3 DUP3 ADD SWAP1 POP DUP1 DUP3 GT ISZERO PUSH2 0x1314 JUMPI PUSH2 0x1313 PUSH2 0x12BA JUMP JUMPDEST JUMPDEST SWAP3 SWAP2 POP POP JUMP JUMPDEST PUSH32 0x536166654D6174683A206164646974696F6E206F766572666C6F770000000000 PUSH0 DUP3 ADD MSTORE POP JUMP JUMPDEST PUSH0 PUSH2 0x134E PUSH1 0x1B DUP4 PUSH2 0x103C JUMP JUMPDEST SWAP2 POP PUSH2 0x1359 DUP3 PUSH2 0x131A JUMP JUMPDEST PUSH1 0x20 DUP3 ADD SWAP1 POP SWAP2 SWAP1 POP JUMP JUMPDEST PUSH0 PUSH1 0x20 DUP3 ADD SWAP1 POP DUP2 DUP2 SUB PUSH0 DUP4 ADD MSTORE PUSH2 0x137B DUP2 PUSH2 0x1342 JUMP JUMPDEST SWAP1 POP SWAP2 SWAP1 POP JUMP JUMPDEST PUSH2 0x9C2B DUP1 PUSH2 0x138F PUSH0 CODECOPY PUSH0 RETURN INVALID PUSH1 0x80 PUSH1 0x40 MSTORE PUSH1 0x4 CALLDATASIZE LT PUSH2 0x4D9 JUMPI PUSH0 CALLDATALOAD PUSH1 0xE0 SHR DUP1 PUSH4 0x79B447BD GT PUSH2 0x280 JUMPI DUP1 PUSH4 0xABB81052 GT PUSH2 0x159 JUMPI DUP1 PUSH4 0xCB865D20 GT PUSH2 0xCB JUMPI DUP1 PUSH4 0xE11C3368 GT PUSH2 0x84 JUMPI DUP1 PUSH4 0xE11C3368 EQ PUSH2 0x13B1 JUMPI DUP1 PUSH4 0xE2F45605 EQ PUSH2 0x13C7 JUMPI DUP1 PUSH4 0xEDE6AD9C EQ PUSH2 0x13F1 JUMPI DUP1 PUSH4 0xF2FDE38B EQ PUSH2 0x1419 JUMPI DUP1 PUSH4 0xF66895A3 EQ PUSH2 0x1441 JUMPI DUP1 PUSH4 0xF887EA40 EQ PUSH2 0x146F JUMPI PUSH2 0x4E0 JUMP JUMPDEST DUP1 PUSH4 0xCB865D20 EQ PUSH2 0x1283 JUMPI DUP1 PUSH4 0xD4320F9C EQ PUSH2 0x12BF JUMPI DUP1 PUSH4 0xD6DF096D EQ PUSH2 0x12E7 JUMPI DUP1 PUSH4 0xD77D63ED EQ PUSH2 0x1311 JUMPI DUP1 PUSH4 0xDD62ED3E EQ PUSH2 0x134D JUMPI DUP1 PUSH4 0xE01AF92C EQ PUSH2 0x1389 JUMPI PUSH2 0x4E0 JUMP JUMPDEST DUP1 PUSH4 0xB83B297F GT PUSH2 0x11D JUMPI DUP1 PUSH4 0xB83B297F EQ PUSH2 0x117F JUMPI DUP1 PUSH4 0xC0246668 EQ PUSH2 0x11A7 JUMPI DUP1 PUSH4 0xC30A0F25 EQ PUSH2 0x11CF JUMPI DUP1 PUSH4 0xC492F046 EQ PUSH2 0x120B JUMPI DUP1 PUSH4 0xC791FC54 EQ PUSH2 0x1233 JUMPI DUP1 PUSH4 0xC851CC32 EQ PUSH2 0x125B JUMPI PUSH2 0x4E0 JUMP JUMPDEST DUP1 PUSH4 0xABB81052 EQ PUSH2 0x1079 JUMPI DUP1 PUSH4 0xAF1271EF EQ PUSH2 0x10B5 JUMPI DUP1 PUSH4 0xAFA4F3B2 EQ PUSH2 0x10F1 JUMPI DUP1 PUSH4 0xAFC57387 EQ PUSH2 0x1119 JUMPI DUP1 PUSH4 0xB62496F5 EQ PUSH2 0x1143 JUMPI PUSH2 0x4E0 JUMP JUMPDEST DUP1 PUSH4 0x95D89B41 GT PUSH2 0x1F2 JUMPI DUP1 PUSH4 0xA83F89E4 GT PUSH2 0x1B6 JUMPI DUP1 PUSH4 0xA83F89E4 EQ PUSH2 0xF4B JUMPI DUP1 PUSH4 0xA8602FEA EQ PUSH2 0xF73 JUMPI DUP1 PUSH4 0xA8AA1B31 EQ PUSH2 0xF9B JUMPI DUP1 PUSH4 0xA8B9D240 EQ PUSH2 0xFC5 JUMPI DUP1 PUSH4 0xA9059CBB EQ PUSH2 0x1001 JUMPI DUP1 PUSH4 0xAAFD847A EQ PUSH2 0x103D JUMPI PUSH2 0x4E0 JUMP JUMPDEST DUP1 PUSH4 0x95D89B41 EQ PUSH2 0xE56 JUMPI DUP1 PUSH4 0x9A7A23D6 EQ PUSH2 0xE80 JUMPI DUP1 PUSH4 0x9A9FFBCA EQ PUSH2 0xEA8 JUMPI DUP1 PUSH4 0xA23BB65D EQ PUSH2 0xEE7 JUMPI DUP1 PUSH4 0xA457C2D7 EQ PUSH2 0xF0F JUMPI PUSH2 0x4E0 JUMP JUMPDEST DUP1 PUSH4 0x88BDD9BE GT PUSH2 0x244 JUMPI DUP1 PUSH4 0x88BDD9BE EQ PUSH2 0xD60 JUMPI DUP1 PUSH4 0x88E765FF EQ PUSH2 0xD88 JUMPI DUP1 PUSH4 0x8C9684F9 EQ PUSH2 0xDB2 JUMPI DUP1 PUSH4 0x8DA5CB5B EQ PUSH2 0xDDA JUMPI DUP1 PUSH4 0x8EA5220F EQ PUSH2 0xE04 JUMPI DUP1 PUSH4 0x92929A09 EQ PUSH2 0xE2E JUMPI PUSH2 0x4E0 JUMP JUMPDEST DUP1 PUSH4 0x79B447BD EQ PUSH2 0xC68 JUMPI DUP1 PUSH4 0x807AB4F7 EQ PUSH2 0xC90 JUMPI DUP1 PUSH4 0x85A6B3AE EQ PUSH2 0xCCC JUMPI DUP1 PUSH4 0x86384BE6 EQ PUSH2 0xCF6 JUMPI DUP1 PUSH4 0x864701A5 EQ PUSH2 0xD32 JUMPI PUSH2 0x4E0 JUMP JUMPDEST DUP1 PUSH4 0x3495ACCA GT PUSH2 0x3B2 JUMPI DUP1 PUSH4 0x4E7B827F GT PUSH2 0x324 JUMPI DUP1 PUSH4 0x6A474002 GT PUSH2 0x2E8 JUMPI DUP1 PUSH4 0x6A474002 EQ PUSH2 0xB86 JUMPI DUP1 PUSH4 0x6A678A9C EQ PUSH2 0xB9C JUMPI DUP1 PUSH4 0x6DDD1713 EQ PUSH2 0xBC4 JUMPI DUP1 PUSH4 0x706F6937 EQ PUSH2 0xBEE JUMPI DUP1 PUSH4 0x70A08231 EQ PUSH2 0xC16 JUMPI DUP1 PUSH4 0x715018A6 EQ PUSH2 0xC52 JUMPI PUSH2 0x4E0 JUMP JUMPDEST DUP1 PUSH4 0x4E7B827F EQ PUSH2 0xA7E JUMPI DUP1 PUSH4 0x4FBEE193 EQ PUSH2 0xABA JUMPI DUP1 PUSH4 0x5FCBD285 EQ PUSH2 0xAF6 JUMPI DUP1 PUSH4 0x66D602AE EQ PUSH2 0xB20 JUMPI DUP1 PUSH4 0x6843CD84 EQ PUSH2 0xB4A JUMPI PUSH2 0x4E0 JUMP JUMPDEST DUP1 PUSH4 0x44B6BD9E GT PUSH2 0x376 JUMPI DUP1 PUSH4 0x44B6BD9E EQ PUSH2 0x99A JUMPI DUP1 PUSH4 0x4626402B EQ PUSH2 0x9C2 JUMPI DUP1 PUSH4 0x46469AFB EQ PUSH2 0x9EC JUMPI DUP1 PUSH4 0x4AB5392B EQ PUSH2 0xA16 JUMPI DUP1 PUSH4 0x4ADA218B EQ PUSH2 0xA3E JUMPI DUP1 PUSH4 0x4E71D92D EQ PUSH2 0xA68 JUMPI PUSH2 0x4E0 JUMP JUMPDEST DUP1 PUSH4 0x3495ACCA EQ PUSH2 0x8A8 JUMPI DUP1 PUSH4 0x39509351 EQ PUSH2 0x8D0 JUMPI DUP1 PUSH4 0x3A984BC5 EQ PUSH2 0x90C JUMPI DUP1 PUSH4 0x400CEE7A EQ PUSH2 0x936 JUMPI DUP1 PUSH4 0x40AC48D3 EQ PUSH2 0x972 JUMPI PUSH2 0x4E0 JUMP JUMPDEST DUP1 PUSH4 0x1F53AC02 GT PUSH2 0x44B JUMPI DUP1 PUSH4 0x2866ED21 GT PUSH2 0x40F JUMPI DUP1 PUSH4 0x2866ED21 EQ PUSH2 0x7AE JUMPI DUP1 PUSH4 0x2C1F5216 EQ PUSH2 0x7D8 JUMPI DUP1 PUSH4 0x303E715F EQ PUSH2 0x802 JUMPI DUP1 PUSH4 0x30BB4CFF EQ PUSH2 0x82C JUMPI DUP1 PUSH4 0x313CE567 EQ PUSH2 0x856 JUMPI DUP1 PUSH4 0x342AA8B5 EQ PUSH2 0x880 JUMPI PUSH2 0x4E0 JUMP JUMPDEST DUP1 PUSH4 0x1F53AC02 EQ PUSH2 0x696 JUMPI DUP1 PUSH4 0x206137AA EQ PUSH2 0x6BE JUMPI DUP1 PUSH4 0x226CFA3D EQ PUSH2 0x6FA JUMPI DUP1 PUSH4 0x23B872DD EQ PUSH2 0x736 JUMPI DUP1 PUSH4 0x27CE0147 EQ PUSH2 0x772 JUMPI PUSH2 0x4E0 JUMP JUMPDEST DUP1 PUSH4 0xBD05B69 GT PUSH2 0x49D JUMPI DUP1 PUSH4 0xBD05B69 EQ PUSH2 0x5C2 JUMPI DUP1 PUSH4 0x1162C4B6 EQ PUSH2 0x5D8 JUMPI DUP1 PUSH4 0x12B77E8A EQ PUSH2 0x602 JUMPI DUP1 PUSH4 0x18160DDD EQ PUSH2 0x618 JUMPI DUP1 PUSH4 0x1BFF7898 EQ PUSH2 0x642 JUMPI DUP1 PUSH4 0x1ECC12D4 EQ PUSH2 0x66C JUMPI PUSH2 0x4E0 JUMP JUMPDEST DUP1 PUSH4 0x1D38886 EQ PUSH2 0x4E4 JUMPI DUP1 PUSH4 0x483F7A0 EQ PUSH2 0x50C JUMPI DUP1 PUSH4 0x6FDDE03 EQ PUSH2 0x534 JUMPI DUP1 PUSH4 0x95EA7B3 EQ PUSH2 0x55E JUMPI DUP1 PUSH4 0xA78097D EQ PUSH2 0x59A JUMPI PUSH2 0x4E0 JUMP JUMPDEST CALLDATASIZE PUSH2 0x4E0 JUMPI STOP JUMPDEST PUSH0 DUP1 REVERT JUMPDEST CALLVALUE DUP1 ISZERO PUSH2 0x4EF JUMPI PUSH0 DUP1 REVERT JUMPDEST POP PUSH2 0x50A PUSH1 0x4 DUP1 CALLDATASIZE SUB DUP2 ADD SWAP1 PUSH2 0x505 SWAP2 SWAP1 PUSH2 0x733E JUMP JUMPDEST PUSH2 0x1499 JUMP JUMPDEST STOP JUMPDEST CALLVALUE DUP1 ISZERO PUSH2 0x517 JUMPI PUSH0 DUP1 REVERT JUMPDEST POP PUSH2 0x532 PUSH1 0x4 DUP1 CALLDATASIZE SUB DUP2 ADD SWAP1 PUSH2 0x52D SWAP2 SWAP1 PUSH2 0x739E JUMP JUMPDEST PUSH2 0x15E0 JUMP JUMPDEST STOP JUMPDEST CALLVALUE DUP1 ISZERO PUSH2 0x53F JUMPI PUSH0 DUP1 REVERT JUMPDEST POP PUSH2 0x548 PUSH2 0x1703 JUMP JUMPDEST PUSH1 0x40 MLOAD PUSH2 0x555 SWAP2 SWAP1 PUSH2 0x744C JUMP JUMPDEST PUSH1 0x40 MLOAD DUP1 SWAP2 SUB SWAP1 RETURN JUMPDEST CALLVALUE DUP1 ISZERO PUSH2 0x569 JUMPI PUSH0 DUP1 REVERT JUMPDEST POP PUSH2 0x584 PUSH1 0x4 DUP1 CALLDATASIZE SUB DUP2 ADD SWAP1 PUSH2 0x57F SWAP2 SWAP1 PUSH2 0x749F JUMP JUMPDEST PUSH2 0x1793 JUMP JUMPDEST PUSH1 0x40 MLOAD PUSH2 0x591 SWAP2 SWAP1 PUSH2 0x74EC JUMP JUMPDEST PUSH1 0x40 MLOAD DUP1 SWAP2 SUB SWAP1 RETURN JUMPDEST CALLVALUE DUP1 ISZERO PUSH2 0x5A5 JUMPI PUSH0 DUP1 REVERT JUMPDEST POP PUSH2 0x5C0 PUSH1 0x4 DUP1 CALLDATASIZE SUB DUP2 ADD SWAP1 PUSH2 0x5BB SWAP2 SWAP1 PUSH2 0x733E JUMP JUMPDEST PUSH2 0x17B0 JUMP JUMPDEST STOP JUMPDEST CALLVALUE DUP1 ISZERO PUSH2 0x5CD JUMPI PUSH0 DUP1 REVERT JUMPDEST POP PUSH2 0x5D6 PUSH2 0x1B18 JUMP JUMPDEST STOP JUMPDEST CALLVALUE DUP1 ISZERO PUSH2 0x5E3 JUMPI PUSH0 DUP1 REVERT JUMPDEST POP PUSH2 0x5EC PUSH2 0x1C1B JUMP JUMPDEST PUSH1 0x40 MLOAD PUSH2 0x5F9 SWAP2 SWAP1 PUSH2 0x7514 JUMP JUMPDEST PUSH1 0x40 MLOAD DUP1 SWAP2 SUB SWAP1 RETURN JUMPDEST CALLVALUE DUP1 ISZERO PUSH2 0x60D JUMPI PUSH0 DUP1 REVERT JUMPDEST POP PUSH2 0x616 PUSH2 0x1C40 JUMP JUMPDEST STOP JUMPDEST CALLVALUE DUP1 ISZERO PUSH2 0x623 JUMPI PUSH0 DUP1 REVERT JUMPDEST POP PUSH2 0x62C PUSH2 0x1E0E JUMP JUMPDEST PUSH1 0x40 MLOAD PUSH2 0x639 SWAP2 SWAP1 PUSH2 0x753C JUMP JUMPDEST PUSH1 0x40 MLOAD DUP1 SWAP2 SUB SWAP1 RETURN JUMPDEST CALLVALUE DUP1 ISZERO PUSH2 0x64D JUMPI PUSH0 DUP1 REVERT JUMPDEST POP PUSH2 0x656 PUSH2 0x1E17 JUMP JUMPDEST PUSH1 0x40 MLOAD PUSH2 0x663 SWAP2 SWAP1 PUSH2 0x753C JUMP JUMPDEST PUSH1 0x40 MLOAD DUP1 SWAP2 SUB SWAP1 RETURN JUMPDEST CALLVALUE DUP1 ISZERO PUSH2 0x677 JUMPI PUSH0 DUP1 REVERT JUMPDEST POP PUSH2 0x680 PUSH2 0x1E1D JUMP JUMPDEST PUSH1 0x40 MLOAD PUSH2 0x68D SWAP2 SWAP1 PUSH2 0x753C JUMP JUMPDEST PUSH1 0x40 MLOAD DUP1 SWAP2 SUB SWAP1 RETURN JUMPDEST CALLVALUE DUP1 ISZERO PUSH2 0x6A1 JUMPI PUSH0 DUP1 REVERT JUMPDEST POP PUSH2 0x6BC PUSH1 0x4 DUP1 CALLDATASIZE SUB DUP2 ADD SWAP1 PUSH2 0x6B7 SWAP2 SWAP1 PUSH2 0x733E JUMP JUMPDEST PUSH2 0x1E23 JUMP JUMPDEST STOP JUMPDEST CALLVALUE DUP1 ISZERO PUSH2 0x6C9 JUMPI PUSH0 DUP1 REVERT JUMPDEST POP PUSH2 0x6E4 PUSH1 0x4 DUP1 CALLDATASIZE SUB DUP2 ADD SWAP1 PUSH2 0x6DF SWAP2 SWAP1 PUSH2 0x7588 JUMP JUMPDEST PUSH2 0x1EFC JUMP JUMPDEST PUSH1 0x40 MLOAD PUSH2 0x6F1 SWAP2 SWAP1 PUSH2 0x74EC JUMP JUMPDEST PUSH1 0x40 MLOAD DUP1 SWAP2 SUB SWAP1 RETURN JUMPDEST CALLVALUE DUP1 ISZERO PUSH2 0x705 JUMPI PUSH0 DUP1 REVERT JUMPDEST POP PUSH2 0x720 PUSH1 0x4 DUP1 CALLDATASIZE SUB DUP2 ADD SWAP1 PUSH2 0x71B SWAP2 SWAP1 PUSH2 0x733E JUMP JUMPDEST PUSH2 0x1F19 JUMP JUMPDEST PUSH1 0x40 MLOAD PUSH2 0x72D SWAP2 SWAP1 PUSH2 0x753C JUMP JUMPDEST PUSH1 0x40 MLOAD DUP1 SWAP2 SUB SWAP1 RETURN JUMPDEST CALLVALUE DUP1 ISZERO PUSH2 0x741 JUMPI PUSH0 DUP1 REVERT JUMPDEST POP PUSH2 0x75C PUSH1 0x4 DUP1 CALLDATASIZE SUB DUP2 ADD SWAP1 PUSH2 0x757 SWAP2 SWAP1 PUSH2 0x75B3 JUMP JUMPDEST PUSH2 0x1F2E JUMP JUMPDEST PUSH1 0x40 MLOAD PUSH2 0x769 SWAP2 SWAP1 PUSH2 0x74EC JUMP JUMPDEST PUSH1 0x40 MLOAD DUP1 SWAP2 SUB SWAP1 RETURN JUMPDEST CALLVALUE DUP1 ISZERO PUSH2 0x77D JUMPI PUSH0 DUP1 REVERT JUMPDEST POP PUSH2 0x798 PUSH1 0x4 DUP1 CALLDATASIZE SUB DUP2 ADD SWAP1 PUSH2 0x793 SWAP2 SWAP1 PUSH2 0x733E JUMP JUMPDEST PUSH2 0x2002 JUMP JUMPDEST PUSH1 0x40 MLOAD PUSH2 0x7A5 SWAP2 SWAP1 PUSH2 0x753C JUMP JUMPDEST PUSH1 0x40 MLOAD DUP1 SWAP2 SUB SWAP1 RETURN JUMPDEST CALLVALUE DUP1 ISZERO PUSH2 0x7B9 JUMPI PUSH0 DUP1 REVERT JUMPDEST POP PUSH2 0x7C2 PUSH2 0x2084 JUMP JUMPDEST PUSH1 0x40 MLOAD PUSH2 0x7CF SWAP2 SWAP1 PUSH2 0x74EC JUMP JUMPDEST PUSH1 0x40 MLOAD DUP1 SWAP2 SUB SWAP1 RETURN JUMPDEST CALLVALUE DUP1 ISZERO PUSH2 0x7E3 JUMPI PUSH0 DUP1 REVERT JUMPDEST POP PUSH2 0x7EC PUSH2 0x2096 JUMP JUMPDEST PUSH1 0x40 MLOAD PUSH2 0x7F9 SWAP2 SWAP1 PUSH2 0x765E JUMP JUMPDEST PUSH1 0x40 MLOAD DUP1 SWAP2 SUB SWAP1 RETURN JUMPDEST CALLVALUE DUP1 ISZERO PUSH2 0x80D JUMPI PUSH0 DUP1 REVERT JUMPDEST POP PUSH2 0x816 PUSH2 0x20BB JUMP JUMPDEST PUSH1 0x40 MLOAD PUSH2 0x823 SWAP2 SWAP1 PUSH2 0x74EC JUMP JUMPDEST PUSH1 0x40 MLOAD DUP1 SWAP2 SUB SWAP1 RETURN JUMPDEST CALLVALUE DUP1 ISZERO PUSH2 0x837 JUMPI PUSH0 DUP1 REVERT JUMPDEST POP PUSH2 0x840 PUSH2 0x20CE JUMP JUMPDEST PUSH1 0x40 MLOAD PUSH2 0x84D SWAP2 SWAP1 PUSH2 0x753C JUMP JUMPDEST PUSH1 0x40 MLOAD DUP1 SWAP2 SUB SWAP1 RETURN JUMPDEST CALLVALUE DUP1 ISZERO PUSH2 0x861 JUMPI PUSH0 DUP1 REVERT JUMPDEST POP PUSH2 0x86A PUSH2 0x2162 JUMP JUMPDEST PUSH1 0x40 MLOAD PUSH2 0x877 SWAP2 SWAP1 PUSH2 0x7692 JUMP JUMPDEST PUSH1 0x40 MLOAD DUP1 SWAP2 SUB SWAP1 RETURN JUMPDEST CALLVALUE DUP1 ISZERO PUSH2 0x88B JUMPI PUSH0 DUP1 REVERT JUMPDEST POP PUSH2 0x8A6 PUSH1 0x4 DUP1 CALLDATASIZE SUB DUP2 ADD SWAP1 PUSH2 0x8A1 SWAP2 SWAP1 PUSH2 0x739E JUMP JUMPDEST PUSH2 0x216A JUMP JUMPDEST STOP JUMPDEST CALLVALUE DUP1 ISZERO PUSH2 0x8B3 JUMPI PUSH0 DUP1 REVERT JUMPDEST POP PUSH2 0x8CE PUSH1 0x4 DUP1 CALLDATASIZE SUB DUP2 ADD SWAP1 PUSH2 0x8C9 SWAP2 SWAP1 PUSH2 0x76AB JUMP JUMPDEST PUSH2 0x22B0 JUMP JUMPDEST STOP JUMPDEST CALLVALUE DUP1 ISZERO PUSH2 0x8DB JUMPI PUSH0 DUP1 REVERT JUMPDEST POP PUSH2 0x8F6 PUSH1 0x4 DUP1 CALLDATASIZE SUB DUP2 ADD SWAP1 PUSH2 0x8F1 SWAP2 SWAP1 PUSH2 0x749F JUMP JUMPDEST PUSH2 0x2363 JUMP JUMPDEST PUSH1 0x40 MLOAD PUSH2 0x903 SWAP2 SWAP1 PUSH2 0x74EC JUMP JUMPDEST PUSH1 0x40 MLOAD DUP1 SWAP2 SUB SWAP1 RETURN JUMPDEST CALLVALUE DUP1 ISZERO PUSH2 0x917 JUMPI PUSH0 DUP1 REVERT JUMPDEST POP PUSH2 0x920 PUSH2 0x2411 JUMP JUMPDEST PUSH1 0x40 MLOAD PUSH2 0x92D SWAP2 SWAP1 PUSH2 0x753C JUMP JUMPDEST PUSH1 0x40 MLOAD DUP1 SWAP2 SUB SWAP1 RETURN JUMPDEST CALLVALUE DUP1 ISZERO PUSH2 0x941 JUMPI PUSH0 DUP1 REVERT JUMPDEST POP PUSH2 0x95C PUSH1 0x4 DUP1 CALLDATASIZE SUB DUP2 ADD SWAP1 PUSH2 0x957 SWAP2 SWAP1 PUSH2 0x733E JUMP JUMPDEST PUSH2 0x2416 JUMP JUMPDEST PUSH1 0x40 MLOAD PUSH2 0x969 SWAP2 SWAP1 PUSH2 0x74EC JUMP JUMPDEST PUSH1 0x40 MLOAD DUP1 SWAP2 SUB SWAP1 RETURN JUMPDEST CALLVALUE DUP1 ISZERO PUSH2 0x97D JUMPI PUSH0 DUP1 REVERT JUMPDEST POP PUSH2 0x998 PUSH1 0x4 DUP1 CALLDATASIZE SUB DUP2 ADD SWAP1 PUSH2 0x993 SWAP2 SWAP1 PUSH2 0x76D6 JUMP JUMPDEST PUSH2 0x2433 JUMP JUMPDEST STOP JUMPDEST CALLVALUE DUP1 ISZERO PUSH2 0x9A5 JUMPI PUSH0 DUP1 REVERT JUMPDEST POP PUSH2 0x9C0 PUSH1 0x4 DUP1 CALLDATASIZE SUB DUP2 ADD SWAP1 PUSH2 0x9BB SWAP2 SWAP1 PUSH2 0x733E JUMP JUMPDEST PUSH2 0x25CF JUMP JUMPDEST STOP JUMPDEST CALLVALUE DUP1 ISZERO PUSH2 0x9CD JUMPI PUSH0 DUP1 REVERT JUMPDEST POP PUSH2 0x9D6 PUSH2 0x26A8 JUMP JUMPDEST PUSH1 0x40 MLOAD PUSH2 0x9E3 SWAP2 SWAP1 PUSH2 0x7514 JUMP JUMPDEST PUSH1 0x40 MLOAD DUP1 SWAP2 SUB SWAP1 RETURN JUMPDEST CALLVALUE DUP1 ISZERO PUSH2 0x9F7 JUMPI PUSH0 DUP1 REVERT JUMPDEST POP PUSH2 0xA00 PUSH2 0x26CD JUMP JUMPDEST PUSH1 0x40 MLOAD PUSH2 0xA0D SWAP2 SWAP1 PUSH2 0x753C JUMP JUMPDEST PUSH1 0x40 MLOAD DUP1 SWAP2 SUB SWAP1 RETURN JUMPDEST CALLVALUE DUP1 ISZERO PUSH2 0xA21 JUMPI PUSH0 DUP1 REVERT JUMPDEST POP PUSH2 0xA3C PUSH1 0x4 DUP1 CALLDATASIZE SUB DUP2 ADD SWAP1 PUSH2 0xA37 SWAP2 SWAP1 PUSH2 0x776F JUMP JUMPDEST PUSH2 0x26D3 JUMP JUMPDEST STOP JUMPDEST CALLVALUE DUP1 ISZERO PUSH2 0xA49 JUMPI PUSH0 DUP1 REVERT JUMPDEST POP PUSH2 0xA52 PUSH2 0x2917 JUMP JUMPDEST PUSH1 0x40 MLOAD PUSH2 0xA5F SWAP2 SWAP1 PUSH2 0x74EC JUMP JUMPDEST PUSH1 0x40 MLOAD DUP1 SWAP2 SUB SWAP1 RETURN JUMPDEST CALLVALUE DUP1 ISZERO PUSH2 0xA73 JUMPI PUSH0 DUP1 REVERT JUMPDEST POP PUSH2 0xA7C PUSH2 0x292A JUMP JUMPDEST STOP JUMPDEST CALLVALUE DUP1 ISZERO PUSH2 0xA89 JUMPI PUSH0 DUP1 REVERT JUMPDEST POP PUSH2 0xAA4 PUSH1 0x4 DUP1 CALLDATASIZE SUB DUP2 ADD SWAP1 PUSH2 0xA9F SWAP2 SWAP1 PUSH2 0x733E JUMP JUMPDEST PUSH2 0x2B7A JUMP JUMPDEST PUSH1 0x40 MLOAD PUSH2 0xAB1 SWAP2 SWAP1 PUSH2 0x74EC JUMP JUMPDEST PUSH1 0x40 MLOAD DUP1 SWAP2 SUB SWAP1 RETURN JUMPDEST CALLVALUE DUP1 ISZERO PUSH2 0xAC5 JUMPI PUSH0 DUP1 REVERT JUMPDEST POP PUSH2 0xAE0 PUSH1 0x4 DUP1 CALLDATASIZE SUB DUP2 ADD SWAP1 PUSH2 0xADB SWAP2 SWAP1 PUSH2 0x733E JUMP JUMPDEST PUSH2 0x2B97 JUMP JUMPDEST PUSH1 0x40 MLOAD PUSH2 0xAED SWAP2 SWAP1 PUSH2 0x74EC JUMP JUMPDEST PUSH1 0x40 MLOAD DUP1 SWAP2 SUB SWAP1 RETURN JUMPDEST CALLVALUE DUP1 ISZERO PUSH2 0xB01 JUMPI PUSH0 DUP1 REVERT JUMPDEST POP PUSH2 0xB0A PUSH2 0x2BE9 JUMP JUMPDEST PUSH1 0x40 MLOAD PUSH2 0xB17 SWAP2 SWAP1 PUSH2 0x7514 JUMP JUMPDEST PUSH1 0x40 MLOAD DUP1 SWAP2 SUB SWAP1 RETURN JUMPDEST CALLVALUE DUP1 ISZERO PUSH2 0xB2B JUMPI PUSH0 DUP1 REVERT JUMPDEST POP PUSH2 0xB34 PUSH2 0x2C0E JUMP JUMPDEST PUSH1 0x40 MLOAD PUSH2 0xB41 SWAP2 SWAP1 PUSH2 0x753C JUMP JUMPDEST PUSH1 0x40 MLOAD DUP1 SWAP2 SUB SWAP1 RETURN JUMPDEST CALLVALUE DUP1 ISZERO PUSH2 0xB55 JUMPI PUSH0 DUP1 REVERT JUMPDEST POP PUSH2 0xB70 PUSH1 0x4 DUP1 CALLDATASIZE SUB DUP2 ADD SWAP1 PUSH2 0xB6B SWAP2 SWAP1 PUSH2 0x733E JUMP JUMPDEST PUSH2 0x2C14 JUMP JUMPDEST PUSH1 0x40 MLOAD PUSH2 0xB7D SWAP2 SWAP1 PUSH2 0x753C JUMP JUMPDEST PUSH1 0x40 MLOAD DUP1 SWAP2 SUB SWAP1 RETURN JUMPDEST CALLVALUE DUP1 ISZERO PUSH2 0xB91 JUMPI PUSH0 DUP1 REVERT JUMPDEST POP PUSH2 0xB9A PUSH2 0x2CB5 JUMP JUMPDEST STOP JUMPDEST CALLVALUE DUP1 ISZERO PUSH2 0xBA7 JUMPI PUSH0 DUP1 REVERT JUMPDEST POP PUSH2 0xBC2 PUSH1 0x4 DUP1 CALLDATASIZE SUB DUP2 ADD SWAP1 PUSH2 0xBBD SWAP2 SWAP1 PUSH2 0x733E JUMP JUMPDEST PUSH2 0x2D5D JUMP JUMPDEST STOP JUMPDEST CALLVALUE DUP1 ISZERO PUSH2 0xBCF JUMPI PUSH0 DUP1 REVERT JUMPDEST POP PUSH2 0xBD8 PUSH2 0x2F24 JUMP JUMPDEST PUSH1 0x40 MLOAD PUSH2 0xBE5 SWAP2 SWAP1 PUSH2 0x74EC JUMP JUMPDEST PUSH1 0x40 MLOAD DUP1 SWAP2 SUB SWAP1 RETURN JUMPDEST CALLVALUE DUP1 ISZERO PUSH2 0xBF9 JUMPI PUSH0 DUP1 REVERT JUMPDEST POP PUSH2 0xC14 PUSH1 0x4 DUP1 CALLDATASIZE SUB DUP2 ADD SWAP1 PUSH2 0xC0F SWAP2 SWAP1 PUSH2 0x79B6 JUMP JUMPDEST PUSH2 0x2F37 JUMP JUMPDEST STOP JUMPDEST CALLVALUE DUP1 ISZERO PUSH2 0xC21 JUMPI PUSH0 DUP1 REVERT JUMPDEST POP PUSH2 0xC3C PUSH1 0x4 DUP1 CALLDATASIZE SUB DUP2 ADD SWAP1 PUSH2 0xC37 SWAP2 SWAP1 PUSH2 0x733E JUMP JUMPDEST PUSH2 0x306D JUMP JUMPDEST PUSH1 0x40 MLOAD PUSH2 0xC49 SWAP2 SWAP1 PUSH2 0x753C JUMP JUMPDEST PUSH1 0x40 MLOAD DUP1 SWAP2 SUB SWAP1 RETURN JUMPDEST CALLVALUE DUP1 ISZERO PUSH2 0xC5D JUMPI PUSH0 DUP1 REVERT JUMPDEST POP PUSH2 0xC66 PUSH2 0x30B2 JUMP JUMPDEST STOP JUMPDEST CALLVALUE DUP1 ISZERO PUSH2 0xC73 JUMPI PUSH0 DUP1 REVERT JUMPDEST POP PUSH2 0xC8E PUSH1 0x4 DUP1 CALLDATASIZE SUB DUP2 ADD SWAP1 PUSH2 0xC89 SWAP2 SWAP1 PUSH2 0x7A2C JUMP JUMPDEST PUSH2 0x3205 JUMP JUMPDEST STOP JUMPDEST CALLVALUE DUP1 ISZERO PUSH2 0xC9B JUMPI PUSH0 DUP1 REVERT JUMPDEST POP PUSH2 0xCB6 PUSH1 0x4 DUP1 CALLDATASIZE SUB DUP2 ADD SWAP1 PUSH2 0xCB1 SWAP2 SWAP1 PUSH2 0x7AA5 JUMP JUMPDEST PUSH2 0x32D3 JUMP JUMPDEST PUSH1 0x40 MLOAD PUSH2 0xCC3 SWAP2 SWAP1 PUSH2 0x74EC JUMP JUMPDEST PUSH1 0x40 MLOAD DUP1 SWAP2 SUB SWAP1 RETURN JUMPDEST CALLVALUE DUP1 ISZERO PUSH2 0xCD7 JUMPI PUSH0 DUP1 REVERT JUMPDEST POP PUSH2 0xCE0 PUSH2 0x3568 JUMP JUMPDEST PUSH1 0x40 MLOAD PUSH2 0xCED SWAP2 SWAP1 PUSH2 0x753C JUMP JUMPDEST PUSH1 0x40 MLOAD DUP1 SWAP2 SUB SWAP1 RETURN JUMPDEST CALLVALUE DUP1 ISZERO PUSH2 0xD01 JUMPI PUSH0 DUP1 REVERT JUMPDEST POP PUSH2 0xD1C PUSH1 0x4 DUP1 CALLDATASIZE SUB DUP2 ADD SWAP1 PUSH2 0xD17 SWAP2 SWAP1 PUSH2 0x733E JUMP JUMPDEST PUSH2 0x356E JUMP JUMPDEST PUSH1 0x40 MLOAD PUSH2 0xD29 SWAP2 SWAP1 PUSH2 0x74EC JUMP JUMPDEST PUSH1 0x40 MLOAD DUP1 SWAP2 SUB SWAP1 RETURN JUMPDEST CALLVALUE DUP1 ISZERO PUSH2 0xD3D JUMPI PUSH0 DUP1 REVERT JUMPDEST POP PUSH2 0xD46 PUSH2 0x36BD JUMP JUMPDEST PUSH1 0x40 MLOAD PUSH2 0xD57 SWAP6 SWAP5 SWAP4 SWAP3 SWAP2 SWAP1 PUSH2 0x7AD0 JUMP JUMPDEST PUSH1 0x40 MLOAD DUP1 SWAP2 SUB SWAP1 RETURN JUMPDEST CALLVALUE DUP1 ISZERO PUSH2 0xD6B JUMPI PUSH0 DUP1 REVERT JUMPDEST POP PUSH2 0xD86 PUSH1 0x4 DUP1 CALLDATASIZE SUB DUP2 ADD SWAP1 PUSH2 0xD81 SWAP2 SWAP1 PUSH2 0x733E JUMP JUMPDEST PUSH2 0x36E0 JUMP JUMPDEST STOP JUMPDEST CALLVALUE DUP1 ISZERO PUSH2 0xD93 JUMPI PUSH0 DUP1 REVERT JUMPDEST POP PUSH2 0xD9C PUSH2 0x3B07 JUMP JUMPDEST PUSH1 0x40 MLOAD PUSH2 0xDA9 SWAP2 SWAP1 PUSH2 0x753C JUMP JUMPDEST PUSH1 0x40 MLOAD DUP1 SWAP2 SUB SWAP1 RETURN JUMPDEST CALLVALUE DUP1 ISZERO PUSH2 0xDBD JUMPI PUSH0 DUP1 REVERT JUMPDEST POP PUSH2 0xDD8 PUSH1 0x4 DUP1 CALLDATASIZE SUB DUP2 ADD SWAP1 PUSH2 0xDD3 SWAP2 SWAP1 PUSH2 0x733E JUMP JUMPDEST PUSH2 0x3B0D JUMP JUMPDEST STOP JUMPDEST CALLVALUE DUP1 ISZERO PUSH2 0xDE5 JUMPI PUSH0 DUP1 REVERT JUMPDEST POP PUSH2 0xDEE PUSH2 0x3CC5 JUMP JUMPDEST PUSH1 0x40 MLOAD PUSH2 0xDFB SWAP2 SWAP1 PUSH2 0x7514 JUMP JUMPDEST PUSH1 0x40 MLOAD DUP1 SWAP2 SUB SWAP1 RETURN JUMPDEST CALLVALUE DUP1 ISZERO PUSH2 0xE0F JUMPI PUSH0 DUP1 REVERT JUMPDEST POP PUSH2 0xE18 PUSH2 0x3CED JUMP JUMPDEST PUSH1 0x40 MLOAD PUSH2 0xE25 SWAP2 SWAP1 PUSH2 0x7514 JUMP JUMPDEST PUSH1 0x40 MLOAD DUP1 SWAP2 SUB SWAP1 RETURN JUMPDEST CALLVALUE DUP1 ISZERO PUSH2 0xE39 JUMPI PUSH0 DUP1 REVERT JUMPDEST POP PUSH2 0xE54 PUSH1 0x4 DUP1 CALLDATASIZE SUB DUP2 ADD SWAP1 PUSH2 0xE4F SWAP2 SWAP1 PUSH2 0x76AB JUMP JUMPDEST PUSH2 0x3D12 JUMP JUMPDEST STOP JUMPDEST CALLVALUE DUP1 ISZERO PUSH2 0xE61 JUMPI PUSH0 DUP1 REVERT JUMPDEST POP PUSH2 0xE6A PUSH2 0x3DC4 JUMP JUMPDEST PUSH1 0x40 MLOAD PUSH2 0xE77 SWAP2 SWAP1 PUSH2 0x744C JUMP JUMPDEST PUSH1 0x40 MLOAD DUP1 SWAP2 SUB SWAP1 RETURN JUMPDEST CALLVALUE DUP1 ISZERO PUSH2 0xE8B JUMPI PUSH0 DUP1 REVERT JUMPDEST POP PUSH2 0xEA6 PUSH1 0x4 DUP1 CALLDATASIZE SUB DUP2 ADD SWAP1 PUSH2 0xEA1 SWAP2 SWAP1 PUSH2 0x739E JUMP JUMPDEST PUSH2 0x3E54 JUMP JUMPDEST STOP JUMPDEST CALLVALUE DUP1 ISZERO PUSH2 0xEB3 JUMPI PUSH0 DUP1 REVERT JUMPDEST POP PUSH2 0xECE PUSH1 0x4 DUP1 CALLDATASIZE SUB DUP2 ADD SWAP1 PUSH2 0xEC9 SWAP2 SWAP1 PUSH2 0x7B21 JUMP JUMPDEST PUSH2 0x3EF8 JUMP JUMPDEST PUSH1 0x40 MLOAD PUSH2 0xEDE SWAP5 SWAP4 SWAP3 SWAP2 SWAP1 PUSH2 0x7B5B JUMP JUMPDEST PUSH1 0x40 MLOAD DUP1 SWAP2 SUB SWAP1 RETURN JUMPDEST CALLVALUE DUP1 ISZERO PUSH2 0xEF2 JUMPI PUSH0 DUP1 REVERT JUMPDEST POP PUSH2 0xF0D PUSH1 0x4 DUP1 CALLDATASIZE SUB DUP2 ADD SWAP1 PUSH2 0xF08 SWAP2 SWAP1 PUSH2 0x7BF7 JUMP JUMPDEST PUSH2 0x3F23 JUMP JUMPDEST STOP JUMPDEST CALLVALUE DUP1 ISZERO PUSH2 0xF1A JUMPI PUSH0 DUP1 REVERT JUMPDEST POP PUSH2 0xF35 PUSH1 0x4 DUP1 CALLDATASIZE SUB DUP2 ADD SWAP1 PUSH2 0xF30 SWAP2 SWAP1 PUSH2 0x749F JUMP JUMPDEST PUSH2 0x418A JUMP JUMPDEST PUSH1 0x40 MLOAD PUSH2 0xF42 SWAP2 SWAP1 PUSH2 0x74EC JUMP JUMPDEST PUSH1 0x40 MLOAD DUP1 SWAP2 SUB SWAP1 RETURN JUMPDEST CALLVALUE DUP1 ISZERO PUSH2 0xF56 JUMPI PUSH0 DUP1 REVERT JUMPDEST POP PUSH2 0xF71 PUSH1 0x4 DUP1 CALLDATASIZE SUB DUP2 ADD SWAP1 PUSH2 0xF6C SWAP2 SWAP1 PUSH2 0x7C54 JUMP JUMPDEST PUSH2 0x4252 JUMP JUMPDEST STOP JUMPDEST CALLVALUE DUP1 ISZERO PUSH2 0xF7E JUMPI PUSH0 DUP1 REVERT JUMPDEST POP PUSH2 0xF99 PUSH1 0x4 DUP1 CALLDATASIZE SUB DUP2 ADD SWAP1 PUSH2 0xF94 SWAP2 SWAP1 PUSH2 0x733E JUMP JUMPDEST PUSH2 0x44AA JUMP JUMPDEST STOP JUMPDEST CALLVALUE DUP1 ISZERO PUSH2 0xFA6 JUMPI PUSH0 DUP1 REVERT JUMPDEST POP PUSH2 0xFAF PUSH2 0x4583 JUMP JUMPDEST PUSH1 0x40 MLOAD PUSH2 0xFBC SWAP2 SWAP1 PUSH2 0x7514 JUMP JUMPDEST PUSH1 0x40 MLOAD DUP1 SWAP2 SUB SWAP1 RETURN JUMPDEST CALLVALUE DUP1 ISZERO PUSH2 0xFD0 JUMPI PUSH0 DUP1 REVERT JUMPDEST POP PUSH2 0xFEB PUSH1 0x4 DUP1 CALLDATASIZE SUB DUP2 ADD SWAP1 PUSH2 0xFE6 SWAP2 SWAP1 PUSH2 0x733E JUMP JUMPDEST PUSH2 0x45A8 JUMP JUMPDEST PUSH1 0x40 MLOAD PUSH2 0xFF8 SWAP2 SWAP1 PUSH2 0x753C JUMP JUMPDEST PUSH1 0x40 MLOAD DUP1 SWAP2 SUB SWAP1 RETURN JUMPDEST CALLVALUE DUP1 ISZERO PUSH2 0x100C JUMPI PUSH0 DUP1 REVERT JUMPDEST POP PUSH2 0x1027 PUSH1 0x4 DUP1 CALLDATASIZE SUB DUP2 ADD SWAP1 PUSH2 0x1022 SWAP2 SWAP1 PUSH2 0x749F JUMP JUMPDEST PUSH2 0x4649 JUMP JUMPDEST PUSH1 0x40 MLOAD PUSH2 0x1034 SWAP2 SWAP1 PUSH2 0x74EC JUMP JUMPDEST PUSH1 0x40 MLOAD DUP1 SWAP2 SUB SWAP1 RETURN JUMPDEST CALLVALUE DUP1 ISZERO PUSH2 0x1048 JUMPI PUSH0 DUP1 REVERT JUMPDEST POP PUSH2 0x1063 PUSH1 0x4 DUP1 CALLDATASIZE SUB DUP2 ADD SWAP1 PUSH2 0x105E SWAP2 SWAP1 PUSH2 0x733E JUMP JUMPDEST PUSH2 0x4666 JUMP JUMPDEST PUSH1 0x40 MLOAD PUSH2 0x1070 SWAP2 SWAP1 PUSH2 0x753C JUMP JUMPDEST PUSH1 0x40 MLOAD DUP1 SWAP2 SUB SWAP1 RETURN JUMPDEST CALLVALUE DUP1 ISZERO PUSH2 0x1084 JUMPI PUSH0 DUP1 REVERT JUMPDEST POP PUSH2 0x109F PUSH1 0x4 DUP1 CALLDATASIZE SUB DUP2 ADD SWAP1 PUSH2 0x109A SWAP2 SWAP1 PUSH2 0x733E JUMP JUMPDEST PUSH2 0x46AC JUMP JUMPDEST PUSH1 0x40 MLOAD PUSH2 0x10AC SWAP2 SWAP1 PUSH2 0x74EC JUMP JUMPDEST PUSH1 0x40 MLOAD DUP1 SWAP2 SUB SWAP1 RETURN JUMPDEST CALLVALUE DUP1 ISZERO PUSH2 0x10C0 JUMPI PUSH0 DUP1 REVERT JUMPDEST POP PUSH2 0x10DB PUSH1 0x4 DUP1 CALLDATASIZE SUB DUP2 ADD SWAP1 PUSH2 0x10D6 SWAP2 SWAP1 PUSH2 0x7CC5 JUMP JUMPDEST PUSH2 0x46C9 JUMP JUMPDEST PUSH1 0x40 MLOAD PUSH2 0x10E8 SWAP2 SWAP1 PUSH2 0x74EC JUMP JUMPDEST PUSH1 0x40 MLOAD DUP1 SWAP2 SUB SWAP1 RETURN JUMPDEST CALLVALUE DUP1 ISZERO PUSH2 0x10FC JUMPI PUSH0 DUP1 REVERT JUMPDEST POP PUSH2 0x1117 PUSH1 0x4 DUP1 CALLDATASIZE SUB DUP2 ADD SWAP1 PUSH2 0x1112 SWAP2 SWAP1 PUSH2 0x7B21 JUMP JUMPDEST PUSH2 0x46F3 JUMP JUMPDEST STOP JUMPDEST CALLVALUE DUP1 ISZERO PUSH2 0x1124 JUMPI PUSH0 DUP1 REVERT JUMPDEST POP PUSH2 0x112D PUSH2 0x47A6 JUMP JUMPDEST PUSH1 0x40 MLOAD PUSH2 0x113A SWAP2 SWAP1 PUSH2 0x753C JUMP JUMPDEST PUSH1 0x40 MLOAD DUP1 SWAP2 SUB SWAP1 RETURN JUMPDEST CALLVALUE DUP1 ISZERO PUSH2 0x114E JUMPI PUSH0 DUP1 REVERT JUMPDEST POP PUSH2 0x1169 PUSH1 0x4 DUP1 CALLDATASIZE SUB DUP2 ADD SWAP1 PUSH2 0x1164 SWAP2 SWAP1 PUSH2 0x733E JUMP JUMPDEST PUSH2 0x47B3 JUMP JUMPDEST PUSH1 0x40 MLOAD PUSH2 0x1176 SWAP2 SWAP1 PUSH2 0x74EC JUMP JUMPDEST PUSH1 0x40 MLOAD DUP1 SWAP2 SUB SWAP1 RETURN JUMPDEST CALLVALUE DUP1 ISZERO PUSH2 0x118A JUMPI PUSH0 DUP1 REVERT JUMPDEST POP PUSH2 0x11A5 PUSH1 0x4 DUP1 CALLDATASIZE SUB DUP2 ADD SWAP1 PUSH2 0x11A0 SWAP2 SWAP1 PUSH2 0x7D03 JUMP JUMPDEST PUSH2 0x47D0 JUMP JUMPDEST STOP JUMPDEST CALLVALUE DUP1 ISZERO PUSH2 0x11B2 JUMPI PUSH0 DUP1 REVERT JUMPDEST POP PUSH2 0x11CD PUSH1 0x4 DUP1 CALLDATASIZE SUB DUP2 ADD SWAP1 PUSH2 0x11C8 SWAP2 SWAP1 PUSH2 0x739E JUMP JUMPDEST PUSH2 0x48F1 JUMP JUMPDEST STOP JUMPDEST CALLVALUE DUP1 ISZERO PUSH2 0x11DA JUMPI PUSH0 DUP1 REVERT JUMPDEST POP PUSH2 0x11F5 PUSH1 0x4 DUP1 CALLDATASIZE SUB DUP2 ADD SWAP1 PUSH2 0x11F0 SWAP2 SWAP1 PUSH2 0x7588 JUMP JUMPDEST PUSH2 0x4ABC JUMP JUMPDEST PUSH1 0x40 MLOAD PUSH2 0x1202 SWAP2 SWAP1 PUSH2 0x74EC JUMP JUMPDEST PUSH1 0x40 MLOAD DUP1 SWAP2 SUB SWAP1 RETURN JUMPDEST CALLVALUE DUP1 ISZERO PUSH2 0x1216 JUMPI PUSH0 DUP1 REVERT JUMPDEST POP PUSH2 0x1231 PUSH1 0x4 DUP1 CALLDATASIZE SUB DUP2 ADD SWAP1 PUSH2 0x122C SWAP2 SWAP1 PUSH2 0x7DB2 JUMP JUMPDEST PUSH2 0x4AD9 JUMP JUMPDEST STOP JUMPDEST CALLVALUE DUP1 ISZERO PUSH2 0x123E JUMPI PUSH0 DUP1 REVERT JUMPDEST POP PUSH2 0x1259 PUSH1 0x4 DUP1 CALLDATASIZE SUB DUP2 ADD SWAP1 PUSH2 0x1254 SWAP2 SWAP1 PUSH2 0x76D6 JUMP JUMPDEST PUSH2 0x4C45 JUMP JUMPDEST STOP JUMPDEST CALLVALUE DUP1 ISZERO PUSH2 0x1266 JUMPI PUSH0 DUP1 REVERT JUMPDEST POP PUSH2 0x1281 PUSH1 0x4 DUP1 CALLDATASIZE SUB DUP2 ADD SWAP1 PUSH2 0x127C SWAP2 SWAP1 PUSH2 0x733E JUMP JUMPDEST PUSH2 0x4DE1 JUMP JUMPDEST STOP JUMPDEST CALLVALUE DUP1 ISZERO PUSH2 0x128E JUMPI PUSH0 DUP1 REVERT JUMPDEST POP PUSH2 0x12A9 PUSH1 0x4 DUP1 CALLDATASIZE SUB DUP2 ADD SWAP1 PUSH2 0x12A4 SWAP2 SWAP1 PUSH2 0x7CC5 JUMP JUMPDEST PUSH2 0x4FFA JUMP JUMPDEST PUSH1 0x40 MLOAD PUSH2 0x12B6 SWAP2 SWAP1 PUSH2 0x74EC JUMP JUMPDEST PUSH1 0x40 MLOAD DUP1 SWAP2 SUB SWAP1 RETURN JUMPDEST CALLVALUE DUP1 ISZERO PUSH2 0x12CA JUMPI PUSH0 DUP1 REVERT JUMPDEST POP PUSH2 0x12E5 PUSH1 0x4 DUP1 CALLDATASIZE SUB DUP2 ADD SWAP1 PUSH2 0x12E0 SWAP2 SWAP1 PUSH2 0x7E64 JUMP JUMPDEST PUSH2 0x5024 JUMP JUMPDEST STOP JUMPDEST CALLVALUE DUP1 ISZERO PUSH2 0x12F2 JUMPI PUSH0 DUP1 REVERT JUMPDEST POP PUSH2 0x12FB PUSH2 0x5230 JUMP JUMPDEST PUSH1 0x40 MLOAD PUSH2 0x1308 SWAP2 SWAP1 PUSH2 0x7ECF JUMP JUMPDEST PUSH1 0x40 MLOAD DUP1 SWAP2 SUB SWAP1 RETURN JUMPDEST CALLVALUE DUP1 ISZERO PUSH2 0x131C JUMPI PUSH0 DUP1 REVERT JUMPDEST POP PUSH2 0x1337 PUSH1 0x4 DUP1 CALLDATASIZE SUB DUP2 ADD SWAP1 PUSH2 0x1332 SWAP2 SWAP1 PUSH2 0x7B21 JUMP JUMPDEST PUSH2 0x5255 JUMP JUMPDEST PUSH1 0x40 MLOAD PUSH2 0x1344 SWAP2 SWAP1 PUSH2 0x753C JUMP JUMPDEST PUSH1 0x40 MLOAD DUP1 SWAP2 SUB SWAP1 RETURN JUMPDEST CALLVALUE DUP1 ISZERO PUSH2 0x1358 JUMPI PUSH0 DUP1 REVERT JUMPDEST POP PUSH2 0x1373 PUSH1 0x4 DUP1 CALLDATASIZE SUB DUP2 ADD SWAP1 PUSH2 0x136E SWAP2 SWAP1 PUSH2 0x7EE8 JUMP JUMPDEST PUSH2 0x5275 JUMP JUMPDEST PUSH1 0x40 MLOAD PUSH2 0x1380 SWAP2 SWAP1 PUSH2 0x753C JUMP JUMPDEST PUSH1 0x40 MLOAD DUP1 SWAP2 SUB SWAP1 RETURN JUMPDEST CALLVALUE DUP1 ISZERO PUSH2 0x1394 JUMPI PUSH0 DUP1 REVERT JUMPDEST POP PUSH2 0x13AF PUSH1 0x4 DUP1 CALLDATASIZE SUB DUP2 ADD SWAP1 PUSH2 0x13AA SWAP2 SWAP1 PUSH2 0x76AB JUMP JUMPDEST PUSH2 0x52F7 JUMP JUMPDEST STOP JUMPDEST CALLVALUE DUP1 ISZERO PUSH2 0x13BC JUMPI PUSH0 DUP1 REVERT JUMPDEST POP PUSH2 0x13C5 PUSH2 0x53AA JUMP JUMPDEST STOP JUMPDEST CALLVALUE DUP1 ISZERO PUSH2 0x13D2 JUMPI PUSH0 DUP1 REVERT JUMPDEST POP PUSH2 0x13DB PUSH2 0x54D0 JUMP JUMPDEST PUSH1 0x40 MLOAD PUSH2 0x13E8 SWAP2 SWAP1 PUSH2 0x753C JUMP JUMPDEST PUSH1 0x40 MLOAD DUP1 SWAP2 SUB SWAP1 RETURN JUMPDEST CALLVALUE DUP1 ISZERO PUSH2 0x13FC JUMPI PUSH0 DUP1 REVERT JUMPDEST POP PUSH2 0x1417 PUSH1 0x4 DUP1 CALLDATASIZE SUB DUP2 ADD SWAP1 PUSH2 0x1412 SWAP2 SWAP1 PUSH2 0x7B21 JUMP JUMPDEST PUSH2 0x54D6 JUMP JUMPDEST STOP JUMPDEST CALLVALUE DUP1 ISZERO PUSH2 0x1424 JUMPI PUSH0 DUP1 REVERT JUMPDEST POP PUSH2 0x143F PUSH1 0x4 DUP1 CALLDATASIZE SUB DUP2 ADD SWAP1 PUSH2 0x143A SWAP2 SWAP1 PUSH2 0x733E JUMP JUMPDEST PUSH2 0x5557 JUMP JUMPDEST STOP JUMPDEST CALLVALUE DUP1 ISZERO PUSH2 0x144C JUMPI PUSH0 DUP1 REVERT JUMPDEST POP PUSH2 0x1455 PUSH2 0x5719 JUMP JUMPDEST PUSH1 0x40 MLOAD PUSH2 0x1466 SWAP6 SWAP5 SWAP4 SWAP3 SWAP2 SWAP1 PUSH2 0x7AD0 JUMP JUMPDEST PUSH1 0x40 MLOAD DUP1 SWAP2 SUB SWAP1 RETURN JUMPDEST CALLVALUE DUP1 ISZERO PUSH2 0x147A JUMPI PUSH0 DUP1 REVERT JUMPDEST POP PUSH2 0x1483 PUSH2 0x573C JUMP JUMPDEST PUSH1 0x40 MLOAD PUSH2 0x1490 SWAP2 SWAP1 PUSH2 0x7F46 JUMP JUMPDEST PUSH1 0x40 MLOAD DUP1 SWAP2 SUB SWAP1 RETURN JUMPDEST PUSH2 0x14A1 PUSH2 0x5761 JUMP JUMPDEST PUSH20 0xFFFFFFFFFFFFFFFFFFFFFFFFFFFFFFFFFFFFFFFF AND PUSH1 0x5 PUSH0 SWAP1 SLOAD SWAP1 PUSH2 0x100 EXP SWAP1 DIV PUSH20 0xFFFFFFFFFFFFFFFFFFFFFFFFFFFFFFFFFFFFFFFF AND PUSH20 0xFFFFFFFFFFFFFFFFFFFFFFFFFFFFFFFFFFFFFFFF AND EQ PUSH2 0x152F JUMPI PUSH1 0x40 MLOAD PUSH32 0x8C379A000000000000000000000000000000000000000000000000000000000 DUP2 MSTORE PUSH1 0x4 ADD PUSH2 0x1526 SWAP1 PUSH2 0x7FA9 JUMP JUMPDEST PUSH1 0x40 MLOAD DUP1 SWAP2 SUB SWAP1 REVERT JUMPDEST PUSH0 PUSH20 0xFFFFFFFFFFFFFFFFFFFFFFFFFFFFFFFFFFFFFFFF AND DUP2 PUSH20 0xFFFFFFFFFFFFFFFFFFFFFFFFFFFFFFFFFFFFFFFF AND SUB PUSH2 0x159D JUMPI PUSH1 0x40 MLOAD PUSH32 0x8C379A000000000000000000000000000000000000000000000000000000000 DUP2 MSTORE PUSH1 0x4 ADD PUSH2 0x1594 SWAP1 PUSH2 0x8011 JUMP JUMPDEST PUSH1 0x40 MLOAD DUP1 SWAP2 SUB SWAP1 REVERT JUMPDEST DUP1 PUSH1 0x8 PUSH0 PUSH2 0x100 EXP DUP2 SLOAD DUP2 PUSH20 0xFFFFFFFFFFFFFFFFFFFFFFFFFFFFFFFFFFFFFFFF MUL NOT AND SWAP1 DUP4 PUSH20 0xFFFFFFFFFFFFFFFFFFFFFFFFFFFFFFFFFFFFFFFF AND MUL OR SWAP1 SSTORE POP POP JUMP JUMPDEST PUSH2 0x15E8 PUSH2 0x5761 JUMP JUMPDEST PUSH20 0xFFFFFFFFFFFFFFFFFFFFFFFFFFFFFFFFFFFFFFFF AND PUSH1 0x5 PUSH0 SWAP1 SLOAD SWAP1 PUSH2 0x100 EXP SWAP1 DIV PUSH20 0xFFFFFFFFFFFFFFFFFFFFFFFFFFFFFFFFFFFFFFFF AND PUSH20 0xFFFFFFFFFFFFFFFFFFFFFFFFFFFFFFFFFFFFFFFF AND EQ PUSH2 0x1676 JUMPI PUSH1 0x40 MLOAD PUSH32 0x8C379A000000000000000000000000000000000000000000000000000000000 DUP2 MSTORE PUSH1 0x4 ADD PUSH2 0x166D SWAP1 PUSH2 0x7FA9 JUMP JUMPDEST PUSH1 0x40 MLOAD DUP1 SWAP2 SUB SWAP1 REVERT JUMPDEST PUSH1 0x9 PUSH0 SWAP1 SLOAD SWAP1 PUSH2 0x100 EXP SWAP1 DIV PUSH20 0xFFFFFFFFFFFFFFFFFFFFFFFFFFFFFFFFFFFFFFFF AND PUSH20 0xFFFFFFFFFFFFFFFFFFFFFFFFFFFFFFFFFFFFFFFF AND PUSH4 0x483F7A0 DUP4 DUP4 PUSH1 0x40 MLOAD DUP4 PUSH4 0xFFFFFFFF AND PUSH1 0xE0 SHL DUP2 MSTORE PUSH1 0x4 ADD PUSH2 0x16D2 SWAP3 SWAP2 SWAP1 PUSH2 0x802F JUMP JUMPDEST PUSH0 PUSH1 0x40 MLOAD DUP1 DUP4 SUB DUP2 PUSH0 DUP8 DUP1 EXTCODESIZE ISZERO DUP1 ISZERO PUSH2 0x16E9 JUMPI PUSH0 DUP1 REVERT JUMPDEST POP GAS CALL ISZERO DUP1 ISZERO PUSH2 0x16FB JUMPI RETURNDATASIZE PUSH0 DUP1 RETURNDATACOPY RETURNDATASIZE PUSH0 REVERT JUMPDEST POP POP POP POP POP POP JUMP JUMPDEST PUSH1 0x60 PUSH1 0x3 DUP1 SLOAD PUSH2 0x1712 SWAP1 PUSH2 0x8083 JUMP JUMPDEST DUP1 PUSH1 0x1F ADD PUSH1 0x20 DUP1 SWAP2 DIV MUL PUSH1 0x20 ADD PUSH1 0x40 MLOAD SWAP1 DUP2 ADD PUSH1 0x40 MSTORE DUP1 SWAP3 SWAP2 SWAP1 DUP2 DUP2 MSTORE PUSH1 0x20 ADD DUP3 DUP1 SLOAD PUSH2 0x173E SWAP1 PUSH2 0x8083 JUMP JUMPDEST DUP1 ISZERO PUSH2 0x1789 JUMPI DUP1 PUSH1 0x1F LT PUSH2 0x1760 JUMPI PUSH2 0x100 DUP1 DUP4 SLOAD DIV MUL DUP4 MSTORE SWAP2 PUSH1 0x20 ADD SWAP2 PUSH2 0x1789 JUMP JUMPDEST DUP3 ADD SWAP2 SWAP1 PUSH0 MSTORE PUSH1 0x20 PUSH0 KECCAK256 SWAP1 JUMPDEST DUP2 SLOAD DUP2 MSTORE SWAP1 PUSH1 0x1 ADD SWAP1 PUSH1 0x20 ADD DUP1 DUP4 GT PUSH2 0x176C JUMPI DUP3 SWAP1 SUB PUSH1 0x1F AND DUP3 ADD SWAP2 JUMPDEST POP POP POP POP POP SWAP1 POP SWAP1 JUMP JUMPDEST PUSH0 PUSH2 0x17A6 PUSH2 0x179F PUSH2 0x5761 JUMP JUMPDEST DUP5 DUP5 PUSH2 0x5768 JUMP JUMPDEST PUSH1 0x1 SWAP1 POP SWAP3 SWAP2 POP POP JUMP JUMPDEST PUSH2 0x17B8 PUSH2 0x5761 JUMP JUMPDEST PUSH20 0xFFFFFFFFFFFFFFFFFFFFFFFFFFFFFFFFFFFFFFFF AND PUSH1 0x5 PUSH0 SWAP1 SLOAD SWAP1 PUSH2 0x100 EXP SWAP1 DIV PUSH20 0xFFFFFFFFFFFFFFFFFFFFFFFFFFFFFFFFFFFFFFFF AND PUSH20 0xFFFFFFFFFFFFFFFFFFFFFFFFFFFFFFFFFFFFFFFF AND EQ PUSH2 0x1846 JUMPI PUSH1 0x40 MLOAD PUSH32 0x8C379A000000000000000000000000000000000000000000000000000000000 DUP2 MSTORE PUSH1 0x4 ADD PUSH2 0x183D SWAP1 PUSH2 0x7FA9 JUMP JUMPDEST PUSH1 0x40 MLOAD DUP1 SWAP2 SUB SWAP1 REVERT JUMPDEST ADDRESS PUSH20 0xFFFFFFFFFFFFFFFFFFFFFFFFFFFFFFFFFFFFFFFF AND DUP2 PUSH20 0xFFFFFFFFFFFFFFFFFFFFFFFFFFFFFFFFFFFFFFFF AND SUB PUSH2 0x18B4 JUMPI PUSH1 0x40 MLOAD PUSH32 0x8C379A000000000000000000000000000000000000000000000000000000000 DUP2 MSTORE PUSH1 0x4 ADD PUSH2 0x18AB SWAP1 PUSH2 0x80FD JUMP JUMPDEST PUSH1 0x40 MLOAD DUP1 SWAP2 SUB SWAP1 REVERT JUMPDEST PUSH1 0x9 PUSH0 SWAP1 SLOAD SWAP1 PUSH2 0x100 EXP SWAP1 DIV PUSH20 0xFFFFFFFFFFFFFFFFFFFFFFFFFFFFFFFFFFFFFFFF AND PUSH20 0xFFFFFFFFFFFFFFFFFFFFFFFFFFFFFFFFFFFFFFFF AND DUP2 PUSH20 0xFFFFFFFFFFFFFFFFFFFFFFFFFFFFFFFFFFFFFFFF AND SUB PUSH2 0x1943 JUMPI PUSH1 0x40 MLOAD PUSH32 0x8C379A000000000000000000000000000000000000000000000000000000000 DUP2 MSTORE PUSH1 0x4 ADD PUSH2 0x193A SWAP1 PUSH2 0x8165 JUMP JUMPDEST PUSH1 0x40 MLOAD DUP1 SWAP2 SUB SWAP1 REVERT JUMPDEST PUSH0 DUP2 SWAP1 POP PUSH0 DUP2 PUSH20 0xFFFFFFFFFFFFFFFFFFFFFFFFFFFFFFFFFFFFFFFF AND PUSH4 0x70A08231 ADDRESS PUSH1 0x40 MLOAD DUP3 PUSH4 0xFFFFFFFF AND PUSH1 0xE0 SHL DUP2 MSTORE PUSH1 0x4 ADD PUSH2 0x1981 SWAP2 SWAP1 PUSH2 0x7514 JUMP JUMPDEST PUSH1 0x20 PUSH1 0x40 MLOAD DUP1 DUP4 SUB DUP2 DUP7 GAS STATICCALL ISZERO DUP1 ISZERO PUSH2 0x199C JUMPI RETURNDATASIZE PUSH0 DUP1 RETURNDATACOPY RETURNDATASIZE PUSH0 REVERT JUMPDEST POP POP POP POP PUSH1 0x40 MLOAD RETURNDATASIZE PUSH1 0x1F NOT PUSH1 0x1F DUP3 ADD AND DUP3 ADD DUP1 PUSH1 0x40 MSTORE POP DUP2 ADD SWAP1 PUSH2 0x19C0 SWAP2 SWAP1 PUSH2 0x8197 JUMP JUMPDEST SWAP1 POP PUSH0 DUP2 GT PUSH2 0x1A04 JUMPI PUSH1 0x40 MLOAD PUSH32 0x8C379A000000000000000000000000000000000000000000000000000000000 DUP2 MSTORE PUSH1 0x4 ADD PUSH2 0x19FB SWAP1 PUSH2 0x820C JUMP JUMPDEST PUSH1 0x40 MLOAD DUP1 SWAP2 SUB SWAP1 REVERT JUMPDEST DUP2 PUSH20 0xFFFFFFFFFFFFFFFFFFFFFFFFFFFFFFFFFFFFFFFF AND PUSH4 0xA9059CBB PUSH2 0x1A28 PUSH2 0x3CC5 JUMP JUMPDEST DUP4 PUSH1 0x40 MLOAD DUP4 PUSH4 0xFFFFFFFF AND PUSH1 0xE0 SHL DUP2 MSTORE PUSH1 0x4 ADD PUSH2 0x1A46 SWAP3 SWAP2 SWAP1 PUSH2 0x822A JUMP JUMPDEST PUSH1 0x20 PUSH1 0x40 MLOAD DUP1 DUP4 SUB DUP2 PUSH0 DUP8 GAS CALL ISZERO DUP1 ISZERO PUSH2 0x1A62 JUMPI RETURNDATASIZE PUSH0 DUP1 RETURNDATACOPY RETURNDATASIZE PUSH0 REVERT JUMPDEST POP POP POP POP PUSH1 0x40 MLOAD RETURNDATASIZE PUSH1 0x1F NOT PUSH1 0x1F DUP3 ADD AND DUP3 ADD DUP1 PUSH1 0x40 MSTORE POP DUP2 ADD SWAP1 PUSH2 0x1A86 SWAP2 SWAP1 PUSH2 0x8265 JUMP JUMPDEST PUSH2 0x1AC5 JUMPI PUSH1 0x40 MLOAD PUSH32 0x8C379A000000000000000000000000000000000000000000000000000000000 DUP2 MSTORE PUSH1 0x4 ADD PUSH2 0x1ABC SWAP1 PUSH2 0x82DA JUMP JUMPDEST PUSH1 0x40 MLOAD DUP1 SWAP2 SUB SWAP1 REVERT JUMPDEST DUP3 PUSH20 0xFFFFFFFFFFFFFFFFFFFFFFFFFFFFFFFFFFFFFFFF AND PUSH32 0x68F67DE89E96B13A3EA058AF5FD44CC125EFCEB528482D539C7B43DB2FAA066E DUP3 PUSH1 0x40 MLOAD PUSH2 0x1B0B SWAP2 SWAP1 PUSH2 0x753C JUMP JUMPDEST PUSH1 0x40 MLOAD DUP1 SWAP2 SUB SWAP1 LOG2 POP POP POP JUMP JUMPDEST PUSH2 0x1B20 PUSH2 0x5761 JUMP JUMPDEST PUSH20 0xFFFFFFFFFFFFFFFFFFFFFFFFFFFFFFFFFFFFFFFF AND PUSH1 0x5 PUSH0 SWAP1 SLOAD SWAP1 PUSH2 0x100 EXP SWAP1 DIV PUSH20 0xFFFFFFFFFFFFFFFFFFFFFFFFFFFFFFFFFFFFFFFF AND PUSH20 0xFFFFFFFFFFFFFFFFFFFFFFFFFFFFFFFFFFFFFFFF AND EQ PUSH2 0x1BAE JUMPI PUSH1 0x40 MLOAD PUSH32 0x8C379A000000000000000000000000000000000000000000000000000000000 DUP2 MSTORE PUSH1 0x4 ADD PUSH2 0x1BA5 SWAP1 PUSH2 0x7FA9 JUMP JUMPDEST PUSH1 0x40 MLOAD DUP1 SWAP2 SUB SWAP1 REVERT JUMPDEST PUSH1 0x9 PUSH1 0x17 SWAP1 SLOAD SWAP1 PUSH2 0x100 EXP SWAP1 DIV PUSH1 0xFF AND ISZERO PUSH2 0x1BFE JUMPI PUSH1 0x40 MLOAD PUSH32 0x8C379A000000000000000000000000000000000000000000000000000000000 DUP2 MSTORE PUSH1 0x4 ADD PUSH2 0x1BF5 SWAP1 PUSH2 0x8342 JUMP JUMPDEST PUSH1 0x40 MLOAD DUP1 SWAP2 SUB SWAP1 REVERT JUMPDEST PUSH1 0x1 PUSH1 0x9 PUSH1 0x17 PUSH2 0x100 EXP DUP2 SLOAD DUP2 PUSH1 0xFF MUL NOT AND SWAP1 DUP4 ISZERO ISZERO MUL OR SWAP1 SSTORE POP JUMP JUMPDEST PUSH1 0x27 PUSH0 SWAP1 SLOAD SWAP1 PUSH2 0x100 EXP SWAP1 DIV PUSH20 0xFFFFFFFFFFFFFFFFFFFFFFFFFFFFFFFFFFFFFFFF AND DUP2 JUMP JUMPDEST PUSH2 0x1C48 PUSH2 0x3CC5 JUMP JUMPDEST PUSH20 0xFFFFFFFFFFFFFFFFFFFFFFFFFFFFFFFFFFFFFFFF AND CALLER PUSH20 0xFFFFFFFFFFFFFFFFFFFFFFFFFFFFFFFFFFFFFFFF AND EQ DUP1 PUSH2 0x1CCD JUMPI POP PUSH1 0xA PUSH0 SWAP1 SLOAD SWAP1 PUSH2 0x100 EXP SWAP1 DIV PUSH20 0xFFFFFFFFFFFFFFFFFFFFFFFFFFFFFFFFFFFFFFFF AND PUSH20 0xFFFFFFFFFFFFFFFFFFFFFFFFFFFFFFFFFFFFFFFF AND CALLER PUSH20 0xFFFFFFFFFFFFFFFFFFFFFFFFFFFFFFFFFFFFFFFF AND EQ JUMPDEST PUSH2 0x1D0C JUMPI PUSH1 0x40 MLOAD PUSH32 0x8C379A000000000000000000000000000000000000000000000000000000000 DUP2 MSTORE PUSH1 0x4 ADD PUSH2 0x1D03 SWAP1 PUSH2 0x83AA JUMP JUMPDEST PUSH1 0x40 MLOAD DUP1 SWAP2 SUB SWAP1 REVERT JUMPDEST PUSH0 SELFBALANCE GT PUSH2 0x1D4E JUMPI PUSH1 0x40 MLOAD PUSH32 0x8C379A000000000000000000000000000000000000000000000000000000000 DUP2 MSTORE PUSH1 0x4 ADD PUSH2 0x1D45 SWAP1 PUSH2 0x8412 JUMP JUMPDEST PUSH1 0x40 MLOAD DUP1 SWAP2 SUB SWAP1 REVERT JUMPDEST PUSH0 SELFBALANCE SWAP1 POP PUSH2 0x1D9C DUP2 PUSH1 0xA PUSH0 SWAP1 SLOAD SWAP1 PUSH2 0x100 EXP SWAP1 DIV PUSH20 0xFFFFFFFFFFFFFFFFFFFFFFFFFFFFFFFFFFFFFFFF AND PUSH20 0xFFFFFFFFFFFFFFFFFFFFFFFFFFFFFFFFFFFFFFFF AND PUSH2 0x592B SWAP1 SWAP2 SWAP1 PUSH4 0xFFFFFFFF AND JUMP JUMPDEST PUSH1 0xA PUSH0 SWAP1 SLOAD SWAP1 PUSH2 0x100 EXP SWAP1 DIV PUSH20 0xFFFFFFFFFFFFFFFFFFFFFFFFFFFFFFFFFFFFFFFF AND PUSH20 0xFFFFFFFFFFFFFFFFFFFFFFFFFFFFFFFFFFFFFFFF AND PUSH32 0x5AF21D7340BF49FDE03A32C3BCC785015C94ACD83531FC6DFBFB93A24C364CA DUP3 PUSH1 0x40 MLOAD PUSH2 0x1E03 SWAP2 SWAP1 PUSH2 0x753C JUMP JUMPDEST PUSH1 0x40 MLOAD DUP1 SWAP2 SUB SWAP1 LOG2 POP JUMP JUMPDEST PUSH0 PUSH1 0x2 SLOAD SWAP1 POP SWAP1 JUMP JUMPDEST PUSH1 0x1B SLOAD DUP2 JUMP JUMPDEST PUSH2 0xE10 DUP2 JUMP JUMPDEST PUSH2 0x1E2B PUSH2 0x5761 JUMP JUMPDEST PUSH20 0xFFFFFFFFFFFFFFFFFFFFFFFFFFFFFFFFFFFFFFFF AND PUSH1 0x5 PUSH0 SWAP1 SLOAD SWAP1 PUSH2 0x100 EXP SWAP1 DIV PUSH20 0xFFFFFFFFFFFFFFFFFFFFFFFFFFFFFFFFFFFFFFFF AND PUSH20 0xFFFFFFFFFFFFFFFFFFFFFFFFFFFFFFFFFFFFFFFF AND EQ PUSH2 0x1EB9 JUMPI PUSH1 0x40 MLOAD PUSH32 0x8C379A000000000000000000000000000000000000000000000000000000000 DUP2 MSTORE PUSH1 0x4 ADD PUSH2 0x1EB0 SWAP1 PUSH2 0x7FA9 JUMP JUMPDEST PUSH1 0x40 MLOAD DUP1 SWAP2 SUB SWAP1 REVERT JUMPDEST DUP1 PUSH1 0xB PUSH0 PUSH2 0x100 EXP DUP2 SLOAD DUP2 PUSH20 0xFFFFFFFFFFFFFFFFFFFFFFFFFFFFFFFFFFFFFFFF MUL NOT AND SWAP1 DUP4 PUSH20 0xFFFFFFFFFFFFFFFFFFFFFFFFFFFFFFFFFFFFFFFF AND MUL OR SWAP1 SSTORE POP POP JUMP JUMPDEST PUSH1 0x1C PUSH1 0x20 MSTORE DUP1 PUSH0 MSTORE PUSH1 0x40 PUSH0 KECCAK256 PUSH0 SWAP2 POP SLOAD SWAP1 PUSH2 0x100 EXP SWAP1 DIV PUSH1 0xFF AND DUP2 JUMP JUMPDEST PUSH1 0x2D PUSH1 0x20 MSTORE DUP1 PUSH0 MSTORE PUSH1 0x40 PUSH0 KECCAK256 PUSH0 SWAP2 POP SWAP1 POP SLOAD DUP2 JUMP JUMPDEST PUSH0 PUSH2 0x1F3A DUP5 DUP5 DUP5 PUSH2 0x5A1B JUMP JUMPDEST PUSH2 0x1FF7 DUP5 PUSH2 0x1F46 PUSH2 0x5761 JUMP JUMPDEST PUSH2 0x1FF2 DUP6 PUSH1 0x40 MLOAD DUP1 PUSH1 0x60 ADD PUSH1 0x40 MSTORE DUP1 PUSH1 0x28 DUP2 MSTORE PUSH1 0x20 ADD PUSH2 0x9BA9 PUSH1 0x28 SWAP2 CODECOPY PUSH1 0x1 PUSH0 DUP12 PUSH20 0xFFFFFFFFFFFFFFFFFFFFFFFFFFFFFFFFFFFFFFFF AND PUSH20 0xFFFFFFFFFFFFFFFFFFFFFFFFFFFFFFFFFFFFFFFF AND DUP2 MSTORE PUSH1 0x20 ADD SWAP1 DUP2 MSTORE PUSH1 0x20 ADD PUSH0 KECCAK256 PUSH0 PUSH2 0x1FA9 PUSH2 0x5761 JUMP JUMPDEST PUSH20 0xFFFFFFFFFFFFFFFFFFFFFFFFFFFFFFFFFFFFFFFF AND PUSH20 0xFFFFFFFFFFFFFFFFFFFFFFFFFFFFFFFFFFFFFFFF AND DUP2 MSTORE PUSH1 0x20 ADD SWAP1 DUP2 MSTORE PUSH1 0x20 ADD PUSH0 KECCAK256 SLOAD PUSH2 0x6342 SWAP1 SWAP3 SWAP2 SWAP1 PUSH4 0xFFFFFFFF AND JUMP JUMPDEST PUSH2 0x5768 JUMP JUMPDEST PUSH1 0x1 SWAP1 POP SWAP4 SWAP3 POP POP POP JUMP JUMPDEST PUSH0 PUSH17 0x100000000000000000000000000000000 PUSH1 0x29 PUSH0 DUP5 PUSH20 0xFFFFFFFFFFFFFFFFFFFFFFFFFFFFFFFFFFFFFFFF AND PUSH20 0xFFFFFFFFFFFFFFFFFFFFFFFFFFFFFFFFFFFFFFFF AND DUP2 MSTORE PUSH1 0x20 ADD SWAP1 DUP2 MSTORE PUSH1 0x20 ADD PUSH0 KECCAK256 SLOAD PUSH2 0x205C DUP5 PUSH2 0x306D JUMP JUMPDEST PUSH1 0x28 SLOAD PUSH2 0x2069 SWAP2 SWAP1 PUSH2 0x845D JUMP JUMPDEST PUSH2 0x2073 SWAP2 SWAP1 PUSH2 0x84A7 JUMP JUMPDEST PUSH2 0x207D SWAP2 SWAP1 PUSH2 0x8515 JUMP JUMPDEST SWAP1 POP SWAP2 SWAP1 POP JUMP JUMPDEST PUSH1 0x25 PUSH0 SWAP1 SLOAD SWAP1 PUSH2 0x100 EXP SWAP1 DIV PUSH1 0xFF AND DUP2 JUMP JUMPDEST PUSH1 0x9 PUSH0 SWAP1 SLOAD SWAP1 PUSH2 0x100 EXP SWAP1 DIV PUSH20 0xFFFFFFFFFFFFFFFFFFFFFFFFFFFFFFFFFFFFFFFF AND DUP2 JUMP JUMPDEST PUSH1 0x9 PUSH1 0x16 SWAP1 SLOAD SWAP1 PUSH2 0x100 EXP SWAP1 DIV PUSH1 0xFF AND DUP2 JUMP JUMPDEST PUSH0 PUSH1 0x9 PUSH0 SWAP1 SLOAD SWAP1 PUSH2 0x100 EXP SWAP1 DIV PUSH20 0xFFFFFFFFFFFFFFFFFFFFFFFFFFFFFFFFFFFFFFFF AND PUSH20 0xFFFFFFFFFFFFFFFFFFFFFFFFFFFFFFFFFFFFFFFF AND PUSH4 0x85A6B3AE PUSH1 0x40 MLOAD DUP2 PUSH4 0xFFFFFFFF AND PUSH1 0xE0 SHL DUP2 MSTORE PUSH1 0x4 ADD PUSH1 0x20 PUSH1 0x40 MLOAD DUP1 DUP4 SUB DUP2 DUP7 GAS STATICCALL ISZERO DUP1 ISZERO PUSH2 0x2139 JUMPI RETURNDATASIZE PUSH0 DUP1 RETURNDATACOPY RETURNDATASIZE PUSH0 REVERT JUMPDEST POP POP POP POP PUSH1 0x40 MLOAD RETURNDATASIZE PUSH1 0x1F NOT PUSH1 0x1F DUP3 ADD AND DUP3 ADD DUP1 PUSH1 0x40 MSTORE POP DUP2 ADD SWAP1 PUSH2 0x215D SWAP2 SWAP1 PUSH2 0x8197 JUMP JUMPDEST SWAP1 POP SWAP1 JUMP JUMPDEST PUSH0 PUSH1 0x12 SWAP1 POP SWAP1 JUMP JUMPDEST PUSH2 0x2172 PUSH2 0x5761 JUMP JUMPDEST PUSH20 0xFFFFFFFFFFFFFFFFFFFFFFFFFFFFFFFFFFFFFFFF AND PUSH1 0x5 PUSH0 SWAP1 SLOAD SWAP1 PUSH2 0x100 EXP SWAP1 DIV PUSH20 0xFFFFFFFFFFFFFFFFFFFFFFFFFFFFFFFFFFFFFFFF AND PUSH20 0xFFFFFFFFFFFFFFFFFFFFFFFFFFFFFFFFFFFFFFFF AND EQ PUSH2 0x2200 JUMPI PUSH1 0x40 MLOAD PUSH32 0x8C379A000000000000000000000000000000000000000000000000000000000 DUP2 MSTORE PUSH1 0x4 ADD PUSH2 0x21F7 SWAP1 PUSH2 0x7FA9 JUMP JUMPDEST PUSH1 0x40 MLOAD DUP1 SWAP2 SUB SWAP1 REVERT JUMPDEST DUP1 ISZERO ISZERO PUSH1 0x26 PUSH0 DUP5 PUSH20 0xFFFFFFFFFFFFFFFFFFFFFFFFFFFFFFFFFFFFFFFF AND PUSH20 0xFFFFFFFFFFFFFFFFFFFFFFFFFFFFFFFFFFFFFFFF AND DUP2 MSTORE PUSH1 0x20 ADD SWAP1 DUP2 MSTORE PUSH1 0x20 ADD PUSH0 KECCAK256 PUSH0 SWAP1 SLOAD SWAP1 PUSH2 0x100 EXP SWAP1 DIV PUSH1 0xFF AND ISZERO ISZERO SUB PUSH2 0x2258 JUMPI PUSH0 DUP1 REVERT JUMPDEST DUP1 PUSH1 0x26 PUSH0 DUP5 PUSH20 0xFFFFFFFFFFFFFFFFFFFFFFFFFFFFFFFFFFFFFFFF AND PUSH20 0xFFFFFFFFFFFFFFFFFFFFFFFFFFFFFFFFFFFFFFFF AND DUP2 MSTORE PUSH1 0x20 ADD SWAP1 DUP2 MSTORE PUSH1 0x20 ADD PUSH0 KECCAK256 PUSH0 PUSH2 0x100 EXP DUP2 SLOAD DUP2 PUSH1 0xFF MUL NOT AND SWAP1 DUP4 ISZERO ISZERO MUL OR SWAP1 SSTORE POP POP POP JUMP JUMPDEST PUSH2 0x22B8 PUSH2 0x5761 JUMP JUMPDEST PUSH20 0xFFFFFFFFFFFFFFFFFFFFFFFFFFFFFFFFFFFFFFFF AND PUSH1 0x5 PUSH0 SWAP1 SLOAD SWAP1 PUSH2 0x100 EXP SWAP1 DIV PUSH20 0xFFFFFFFFFFFFFFFFFFFFFFFFFFFFFFFFFFFFFFFF AND PUSH20 0xFFFFFFFFFFFFFFFFFFFFFFFFFFFFFFFFFFFFFFFF AND EQ PUSH2 0x2346 JUMPI PUSH1 0x40 MLOAD PUSH32 0x8C379A000000000000000000000000000000000000000000000000000000000 DUP2 MSTORE PUSH1 0x4 ADD PUSH2 0x233D SWAP1 PUSH2 0x7FA9 JUMP JUMPDEST PUSH1 0x40 MLOAD DUP1 SWAP2 SUB SWAP1 REVERT JUMPDEST DUP1 PUSH1 0x9 PUSH1 0x16 PUSH2 0x100 EXP DUP2 SLOAD DUP2 PUSH1 0xFF MUL NOT AND SWAP1 DUP4 ISZERO ISZERO MUL OR SWAP1 SSTORE POP POP JUMP JUMPDEST PUSH0 PUSH2 0x2407 PUSH2 0x236F PUSH2 0x5761 JUMP JUMPDEST DUP5 PUSH2 0x2402 DUP6 PUSH1 0x1 PUSH0 PUSH2 0x237F PUSH2 0x5761 JUMP JUMPDEST PUSH20 0xFFFFFFFFFFFFFFFFFFFFFFFFFFFFFFFFFFFFFFFF AND PUSH20 0xFFFFFFFFFFFFFFFFFFFFFFFFFFFFFFFFFFFFFFFF AND DUP2 MSTORE PUSH1 0x20 ADD SWAP1 DUP2 MSTORE PUSH1 0x20 ADD PUSH0 KECCAK256 PUSH0 DUP10 PUSH20 0xFFFFFFFFFFFFFFFFFFFFFFFFFFFFFFFFFFFFFFFF AND PUSH20 0xFFFFFFFFFFFFFFFFFFFFFFFFFFFFFFFFFFFFFFFF AND DUP2 MSTORE PUSH1 0x20 ADD SWAP1 DUP2 MSTORE PUSH1 0x20 ADD PUSH0 KECCAK256 SLOAD PUSH2 0x63A4 SWAP1 SWAP2 SWAP1 PUSH4 0xFFFFFFFF AND JUMP JUMPDEST PUSH2 0x5768 JUMP JUMPDEST PUSH1 0x1 SWAP1 POP SWAP3 SWAP2 POP POP JUMP JUMPDEST PUSH1 0x3 DUP2 JUMP JUMPDEST PUSH1 0x1D PUSH1 0x20 MSTORE DUP1 PUSH0 MSTORE PUSH1 0x40 PUSH0 KECCAK256 PUSH0 SWAP2 POP SLOAD SWAP1 PUSH2 0x100 EXP SWAP1 DIV PUSH1 0xFF AND DUP2 JUMP JUMPDEST PUSH2 0x243B PUSH2 0x5761 JUMP JUMPDEST PUSH20 0xFFFFFFFFFFFFFFFFFFFFFFFFFFFFFFFFFFFFFFFF AND PUSH1 0x5 PUSH0 SWAP1 SLOAD SWAP1 PUSH2 0x100 EXP SWAP1 DIV PUSH20 0xFFFFFFFFFFFFFFFFFFFFFFFFFFFFFFFFFFFFFFFF AND PUSH20 0xFFFFFFFFFFFFFFFFFFFFFFFFFFFFFFFFFFFFFFFF AND EQ PUSH2 0x24C9 JUMPI PUSH1 0x40 MLOAD PUSH32 0x8C379A000000000000000000000000000000000000000000000000000000000 DUP2 MSTORE PUSH1 0x4 ADD PUSH2 0x24C0 SWAP1 PUSH2 0x7FA9 JUMP JUMPDEST PUSH1 0x40 MLOAD DUP1 SWAP2 SUB SWAP1 REVERT JUMPDEST PUSH1 0x14 DUP2 DUP4 DUP6 DUP8 DUP10 PUSH2 0x24DA SWAP2 SWAP1 PUSH2 0x8545 JUMP JUMPDEST PUSH2 0x24E4 SWAP2 SWAP1 PUSH2 0x8545 JUMP JUMPDEST PUSH2 0x24EE SWAP2 SWAP1 PUSH2 0x8545 JUMP JUMPDEST PUSH2 0x24F8 SWAP2 SWAP1 PUSH2 0x8545 JUMP JUMPDEST GT ISZERO PUSH2 0x2539 JUMPI PUSH1 0x40 MLOAD PUSH32 0x8C379A000000000000000000000000000000000000000000000000000000000 DUP2 MSTORE PUSH1 0x4 ADD PUSH2 0x2530 SWAP1 PUSH2 0x85C2 JUMP JUMPDEST PUSH1 0x40 MLOAD DUP1 SWAP2 SUB SWAP1 REVERT JUMPDEST PUSH1 0x40 MLOAD DUP1 PUSH1 0xA0 ADD PUSH1 0x40 MSTORE DUP1 DUP7 DUP2 MSTORE PUSH1 0x20 ADD DUP6 DUP2 MSTORE PUSH1 0x20 ADD DUP5 DUP2 MSTORE PUSH1 0x20 ADD DUP4 DUP2 MSTORE PUSH1 0x20 ADD DUP3 DUP2 MSTORE POP PUSH1 0x10 PUSH0 DUP3 ADD MLOAD DUP2 PUSH0 ADD SSTORE PUSH1 0x20 DUP3 ADD MLOAD DUP2 PUSH1 0x1 ADD SSTORE PUSH1 0x40 DUP3 ADD MLOAD DUP2 PUSH1 0x2 ADD SSTORE PUSH1 0x60 DUP3 ADD MLOAD DUP2 PUSH1 0x3 ADD SSTORE PUSH1 0x80 DUP3 ADD MLOAD DUP2 PUSH1 0x4 ADD SSTORE SWAP1 POP POP DUP1 DUP3 DUP5 DUP7 DUP9 PUSH2 0x25A4 SWAP2 SWAP1 PUSH2 0x8545 JUMP JUMPDEST PUSH2 0x25AE SWAP2 SWAP1 PUSH2 0x8545 JUMP JUMPDEST PUSH2 0x25B8 SWAP2 SWAP1 PUSH2 0x8545 JUMP JUMPDEST PUSH2 0x25C2 SWAP2 SWAP1 PUSH2 0x8545 JUMP JUMPDEST PUSH1 0x1A DUP2 SWAP1 SSTORE POP POP POP POP POP POP JUMP JUMPDEST PUSH2 0x25D7 PUSH2 0x5761 JUMP JUMPDEST PUSH20 0xFFFFFFFFFFFFFFFFFFFFFFFFFFFFFFFFFFFFFFFF AND PUSH1 0x5 PUSH0 SWAP1 SLOAD SWAP1 PUSH2 0x100 EXP SWAP1 DIV PUSH20 0xFFFFFFFFFFFFFFFFFFFFFFFFFFFFFFFFFFFFFFFF AND PUSH20 0xFFFFFFFFFFFFFFFFFFFFFFFFFFFFFFFFFFFFFFFF AND EQ PUSH2 0x2665 JUMPI PUSH1 0x40 MLOAD PUSH32 0x8C379A000000000000000000000000000000000000000000000000000000000 DUP2 MSTORE PUSH1 0x4 ADD PUSH2 0x265C SWAP1 PUSH2 0x7FA9 JUMP JUMPDEST PUSH1 0x40 MLOAD DUP1 SWAP2 SUB SWAP1 REVERT JUMPDEST DUP1 PUSH1 0x27 PUSH0 PUSH2 0x100 EXP DUP2 SLOAD DUP2 PUSH20 0xFFFFFFFFFFFFFFFFFFFFFFFFFFFFFFFFFFFFFFFF MUL NOT AND SWAP1 DUP4 PUSH20 0xFFFFFFFFFFFFFFFFFFFFFFFFFFFFFFFFFFFFFFFF AND MUL OR SWAP1 SSTORE POP POP JUMP JUMPDEST PUSH1 0xA PUSH0 SWAP1 SLOAD SWAP1 PUSH2 0x100 EXP SWAP1 DIV PUSH20 0xFFFFFFFFFFFFFFFFFFFFFFFFFFFFFFFFFFFFFFFF AND DUP2 JUMP JUMPDEST PUSH1 0x1A SLOAD DUP2 JUMP JUMPDEST PUSH1 0x9 PUSH1 0x16 SWAP1 SLOAD SWAP1 PUSH2 0x100 EXP SWAP1 DIV PUSH1 0xFF AND PUSH2 0x2722 JUMPI PUSH1 0x40 MLOAD PUSH32 0x8C379A000000000000000000000000000000000000000000000000000000000 DUP2 MSTORE PUSH1 0x4 ADD PUSH2 0x2719 SWAP1 PUSH2 0x862A JUMP JUMPDEST PUSH1 0x40 MLOAD DUP1 SWAP2 SUB SWAP1 REVERT JUMPDEST PUSH1 0x1C PUSH0 DUP3 PUSH0 ADD CALLDATALOAD DUP2 MSTORE PUSH1 0x20 ADD SWAP1 DUP2 MSTORE PUSH1 0x20 ADD PUSH0 KECCAK256 PUSH0 SWAP1 SLOAD SWAP1 PUSH2 0x100 EXP SWAP1 DIV PUSH1 0xFF AND ISZERO PUSH2 0x2783 JUMPI PUSH1 0x40 MLOAD PUSH32 0x8C379A000000000000000000000000000000000000000000000000000000000 DUP2 MSTORE PUSH1 0x4 ADD PUSH2 0x277A SWAP1 PUSH2 0x8692 JUMP JUMPDEST PUSH1 0x40 MLOAD DUP1 SWAP2 SUB SWAP1 REVERT JUMPDEST PUSH1 0x8 PUSH0 SWAP1 SLOAD SWAP1 PUSH2 0x100 EXP SWAP1 DIV PUSH20 0xFFFFFFFFFFFFFFFFFFFFFFFFFFFFFFFFFFFFFFFF AND PUSH20 0xFFFFFFFFFFFFFFFFFFFFFFFFFFFFFFFFFFFFFFFF AND PUSH4 0xE03F596 DUP3 PUSH0 ADD CALLDATALOAD DUP4 PUSH1 0x20 ADD CALLDATALOAD DUP5 PUSH1 0x80 ADD CALLDATALOAD CALLER DUP7 PUSH1 0x60 ADD PUSH1 0x20 DUP2 ADD SWAP1 PUSH2 0x27E2 SWAP2 SWAP1 PUSH2 0x733E JUMP JUMPDEST DUP8 DUP1 PUSH1 0x40 ADD SWAP1 PUSH2 0x27F2 SWAP2 SWAP1 PUSH2 0x86BC JUMP JUMPDEST PUSH1 0x40 MLOAD DUP9 PUSH4 0xFFFFFFFF AND PUSH1 0xE0 SHL DUP2 MSTORE PUSH1 0x4 ADD PUSH2 0x2814 SWAP8 SWAP7 SWAP6 SWAP5 SWAP4 SWAP3 SWAP2 SWAP1 PUSH2 0x8768 JUMP JUMPDEST PUSH1 0x20 PUSH1 0x40 MLOAD DUP1 DUP4 SUB DUP2 DUP7 GAS STATICCALL ISZERO DUP1 ISZERO PUSH2 0x282F JUMPI RETURNDATASIZE PUSH0 DUP1 RETURNDATACOPY RETURNDATASIZE PUSH0 REVERT JUMPDEST POP POP POP POP PUSH1 0x40 MLOAD RETURNDATASIZE PUSH1 0x1F NOT PUSH1 0x1F DUP3 ADD AND DUP3 ADD DUP1 PUSH1 0x40 MSTORE POP DUP2 ADD SWAP1 PUSH2 0x2853 SWAP2 SWAP1 PUSH2 0x8265 JUMP JUMPDEST PUSH2 0x2892 JUMPI PUSH1 0x40 MLOAD PUSH32 0x8C379A000000000000000000000000000000000000000000000000000000000 DUP2 MSTORE PUSH1 0x4 ADD PUSH2 0x2889 SWAP1 PUSH2 0x881A JUMP JUMPDEST PUSH1 0x40 MLOAD DUP1 SWAP2 SUB SWAP1 REVERT JUMPDEST PUSH1 0x1 PUSH1 0x1C PUSH0 DUP4 PUSH0 ADD CALLDATALOAD DUP2 MSTORE PUSH1 0x20 ADD SWAP1 DUP2 MSTORE PUSH1 0x20 ADD PUSH0 KECCAK256 PUSH0 PUSH2 0x100 EXP DUP2 SLOAD DUP2 PUSH1 0xFF MUL NOT AND SWAP1 DUP4 ISZERO ISZERO MUL OR SWAP1 SSTORE POP PUSH2 0x28DF CALLER DUP3 PUSH1 0x60 ADD PUSH1 0x20 DUP2 ADD SWAP1 PUSH2 0x28D5 SWAP2 SWAP1 PUSH2 0x733E JUMP JUMPDEST DUP4 PUSH1 0x80 ADD CALLDATALOAD PUSH2 0x5A1B JUMP JUMPDEST DUP1 PUSH1 0x20 ADD CALLDATALOAD DUP2 PUSH0 ADD CALLDATALOAD PUSH32 0xD2BE5E1AF978A60AE9CEF2F81D49F263E289DCC7026EBB9DDF427CDD00E6CAC9 PUSH1 0x40 MLOAD PUSH1 0x40 MLOAD DUP1 SWAP2 SUB SWAP1 LOG3 POP JUMP JUMPDEST PUSH1 0x9 PUSH1 0x17 SWAP1 SLOAD SWAP1 PUSH2 0x100 EXP SWAP1 DIV PUSH1 0xFF AND DUP2 JUMP JUMPDEST PUSH1 0x25 PUSH0 SWAP1 SLOAD SWAP1 PUSH2 0x100 EXP SWAP1 DIV PUSH1 0xFF AND PUSH2 0x2978 JUMPI PUSH1 0x40 MLOAD PUSH32 0x8C379A000000000000000000000000000000000000000000000000000000000 DUP2 MSTORE PUSH1 0x4 ADD PUSH2 0x296F SWAP1 PUSH2 0x8882 JUMP JUMPDEST PUSH1 0x40 MLOAD DUP1 SWAP2 SUB SWAP1 REVERT JUMPDEST PUSH1 0x9 PUSH1 0x14 SWAP1 SLOAD SWAP1 PUSH2 0x100 EXP SWAP1 DIV PUSH1 0xFF AND ISZERO PUSH2 0x29C8 JUMPI PUSH1 0x40 MLOAD PUSH32 0x8C379A000000000000000000000000000000000000000000000000000000000 DUP2 MSTORE PUSH1 0x4 ADD PUSH2 0x29BF SWAP1 PUSH2 0x88EA JUMP JUMPDEST PUSH1 0x40 MLOAD DUP1 SWAP2 SUB SWAP1 REVERT JUMPDEST PUSH1 0x1F PUSH0 PUSH1 0x7 PUSH0 SWAP1 SLOAD SWAP1 PUSH2 0x100 EXP SWAP1 DIV PUSH20 0xFFFFFFFFFFFFFFFFFFFFFFFFFFFFFFFFFFFFFFFF AND PUSH20 0xFFFFFFFFFFFFFFFFFFFFFFFFFFFFFFFFFFFFFFFF AND PUSH20 0xFFFFFFFFFFFFFFFFFFFFFFFFFFFFFFFFFFFFFFFF AND DUP2 MSTORE PUSH1 0x20 ADD SWAP1 DUP2 MSTORE PUSH1 0x20 ADD PUSH0 KECCAK256 PUSH0 SWAP1 SLOAD SWAP1 PUSH2 0x100 EXP SWAP1 DIV PUSH1 0xFF AND PUSH2 0x2A72 JUMPI PUSH1 0x40 MLOAD PUSH32 0x8C379A000000000000000000000000000000000000000000000000000000000 DUP2 MSTORE PUSH1 0x4 ADD PUSH2 0x2A69 SWAP1 PUSH2 0x8952 JUMP JUMPDEST PUSH1 0x40 MLOAD DUP1 SWAP2 SUB SWAP1 REVERT JUMPDEST PUSH1 0x1E PUSH0 CALLER PUSH20 0xFFFFFFFFFFFFFFFFFFFFFFFFFFFFFFFFFFFFFFFF AND PUSH20 0xFFFFFFFFFFFFFFFFFFFFFFFFFFFFFFFFFFFFFFFF AND DUP2 MSTORE PUSH1 0x20 ADD SWAP1 DUP2 MSTORE PUSH1 0x20 ADD PUSH0 KECCAK256 PUSH0 SWAP1 SLOAD SWAP1 PUSH2 0x100 EXP SWAP1 DIV PUSH1 0xFF AND ISZERO PUSH2 0x2AFC JUMPI PUSH1 0x40 MLOAD PUSH32 0x8C379A000000000000000000000000000000000000000000000000000000000 DUP2 MSTORE PUSH1 0x4 ADD PUSH2 0x2AF3 SWAP1 PUSH2 0x89BA JUMP JUMPDEST PUSH1 0x40 MLOAD DUP1 SWAP2 SUB SWAP1 REVERT JUMPDEST PUSH1 0x9 PUSH0 SWAP1 SLOAD SWAP1 PUSH2 0x100 EXP SWAP1 DIV PUSH20 0xFFFFFFFFFFFFFFFFFFFFFFFFFFFFFFFFFFFFFFFF AND PUSH20 0xFFFFFFFFFFFFFFFFFFFFFFFFFFFFFFFFFFFFFFFF AND PUSH4 0x6A474002 PUSH1 0x40 MLOAD DUP2 PUSH4 0xFFFFFFFF AND PUSH1 0xE0 SHL DUP2 MSTORE PUSH1 0x4 ADD PUSH0 PUSH1 0x40 MLOAD DUP1 DUP4 SUB DUP2 PUSH0 DUP8 DUP1 EXTCODESIZE ISZERO DUP1 ISZERO PUSH2 0x2B62 JUMPI PUSH0 DUP1 REVERT JUMPDEST POP GAS CALL ISZERO DUP1 ISZERO PUSH2 0x2B74 JUMPI RETURNDATASIZE PUSH0 DUP1 RETURNDATACOPY RETURNDATASIZE PUSH0 REVERT JUMPDEST POP POP POP POP JUMP JUMPDEST PUSH1 0x2C PUSH1 0x20 MSTORE DUP1 PUSH0 MSTORE PUSH1 0x40 PUSH0 KECCAK256 PUSH0 SWAP2 POP SLOAD SWAP1 PUSH2 0x100 EXP SWAP1 DIV PUSH1 0xFF AND DUP2 JUMP JUMPDEST PUSH0 PUSH1 0x1E PUSH0 DUP4 PUSH20 0xFFFFFFFFFFFFFFFFFFFFFFFFFFFFFFFFFFFFFFFF AND PUSH20 0xFFFFFFFFFFFFFFFFFFFFFFFFFFFFFFFFFFFFFFFF AND DUP2 MSTORE PUSH1 0x20 ADD SWAP1 DUP2 MSTORE PUSH1 0x20 ADD PUSH0 KECCAK256 PUSH0 SWAP1 SLOAD SWAP1 PUSH2 0x100 EXP SWAP1 DIV PUSH1 0xFF AND SWAP1 POP SWAP2 SWAP1 POP JUMP JUMPDEST PUSH1 0xC PUSH0 SWAP1 SLOAD SWAP1 PUSH2 0x100 EXP SWAP1 DIV PUSH20 0xFFFFFFFFFFFFFFFFFFFFFFFFFFFFFFFFFFFFFFFF AND DUP2 JUMP JUMPDEST PUSH1 0xF SLOAD DUP2 JUMP JUMPDEST PUSH0 PUSH1 0x9 PUSH0 SWAP1 SLOAD SWAP1 PUSH2 0x100 EXP SWAP1 DIV PUSH20 0xFFFFFFFFFFFFFFFFFFFFFFFFFFFFFFFFFFFFFFFF AND PUSH20 0xFFFFFFFFFFFFFFFFFFFFFFFFFFFFFFFFFFFFFFFF AND PUSH4 0x70A08231 DUP4 PUSH1 0x40 MLOAD DUP3 PUSH4 0xFFFFFFFF AND PUSH1 0xE0 SHL DUP2 MSTORE PUSH1 0x4 ADD PUSH2 0x2C6F SWAP2 SWAP1 PUSH2 0x7514 JUMP JUMPDEST PUSH1 0x20 PUSH1 0x40 MLOAD DUP1 DUP4 SUB DUP2 DUP7 GAS STATICCALL ISZERO DUP1 ISZERO PUSH2 0x2C8A JUMPI RETURNDATASIZE PUSH0 DUP1 RETURNDATACOPY RETURNDATASIZE PUSH0 REVERT JUMPDEST POP POP POP POP PUSH1 0x40 MLOAD RETURNDATASIZE PUSH1 0x1F NOT PUSH1 0x1F DUP3 ADD AND DUP3 ADD DUP1 PUSH1 0x40 MSTORE POP DUP2 ADD SWAP1 PUSH2 0x2CAE SWAP2 SWAP1 PUSH2 0x8197 JUMP JUMPDEST SWAP1 POP SWAP2 SWAP1 POP JUMP JUMPDEST PUSH0 PUSH2 0x2CBF CALLER PUSH2 0x6401 JUMP JUMPDEST SWAP1 POP PUSH0 DUP2 GT ISZERO PUSH2 0x2D5A JUMPI TIMESTAMP PUSH1 0x2D PUSH0 CALLER PUSH20 0xFFFFFFFFFFFFFFFFFFFFFFFFFFFFFFFFFFFFFFFF AND PUSH20 0xFFFFFFFFFFFFFFFFFFFFFFFFFFFFFFFFFFFFFFFF AND DUP2 MSTORE PUSH1 0x20 ADD SWAP1 DUP2 MSTORE PUSH1 0x20 ADD PUSH0 KECCAK256 DUP2 SWAP1 SSTORE POP CALLER PUSH20 0xFFFFFFFFFFFFFFFFFFFFFFFFFFFFFFFFFFFFFFFF AND PUSH32 0x47CEE97CB7ACD717B3C0AA1435D004CD5B3C8C57D70DBCEB4E4458BBD60E39D4 DUP3 PUSH1 0x40 MLOAD PUSH2 0x2D51 SWAP2 SWAP1 PUSH2 0x753C JUMP JUMPDEST PUSH1 0x40 MLOAD DUP1 SWAP2 SUB SWAP1 LOG2 JUMPDEST POP JUMP JUMPDEST PUSH2 0x2D65 PUSH2 0x5761 JUMP JUMPDEST PUSH20 0xFFFFFFFFFFFFFFFFFFFFFFFFFFFFFFFFFFFFFFFF AND PUSH1 0x5 PUSH0 SWAP1 SLOAD SWAP1 PUSH2 0x100 EXP SWAP1 DIV PUSH20 0xFFFFFFFFFFFFFFFFFFFFFFFFFFFFFFFFFFFFFFFF AND PUSH20 0xFFFFFFFFFFFFFFFFFFFFFFFFFFFFFFFFFFFFFFFF AND EQ PUSH2 0x2DF3 JUMPI PUSH1 0x40 MLOAD PUSH32 0x8C379A000000000000000000000000000000000000000000000000000000000 DUP2 MSTORE PUSH1 0x4 ADD PUSH2 0x2DEA SWAP1 PUSH2 0x7FA9 JUMP JUMPDEST PUSH1 0x40 MLOAD DUP1 SWAP2 SUB SWAP1 REVERT JUMPDEST PUSH0 PUSH20 0xFFFFFFFFFFFFFFFFFFFFFFFFFFFFFFFFFFFFFFFF AND DUP2 PUSH20 0xFFFFFFFFFFFFFFFFFFFFFFFFFFFFFFFFFFFFFFFF AND SUB PUSH2 0x2E61 JUMPI PUSH1 0x40 MLOAD PUSH32 0x8C379A000000000000000000000000000000000000000000000000000000000 DUP2 MSTORE PUSH1 0x4 ADD PUSH2 0x2E58 SWAP1 PUSH2 0x8A22 JUMP JUMPDEST PUSH1 0x40 MLOAD DUP1 SWAP2 SUB SWAP1 REVERT JUMPDEST PUSH0 PUSH1 0xC PUSH0 SWAP1 SLOAD SWAP1 PUSH2 0x100 EXP SWAP1 DIV PUSH20 0xFFFFFFFFFFFFFFFFFFFFFFFFFFFFFFFFFFFFFFFF AND SWAP1 POP DUP2 PUSH1 0xC PUSH0 PUSH2 0x100 EXP DUP2 SLOAD DUP2 PUSH20 0xFFFFFFFFFFFFFFFFFFFFFFFFFFFFFFFFFFFFFFFF MUL NOT AND SWAP1 DUP4 PUSH20 0xFFFFFFFFFFFFFFFFFFFFFFFFFFFFFFFFFFFFFFFF AND MUL OR SWAP1 SSTORE POP DUP2 PUSH20 0xFFFFFFFFFFFFFFFFFFFFFFFFFFFFFFFFFFFFFFFF AND DUP2 PUSH20 0xFFFFFFFFFFFFFFFFFFFFFFFFFFFFFFFFFFFFFFFF AND PUSH32 0x412E366D3D7A7438FAC75038E9F3BCC5EDF4E8FA4B761FBEE9AC5324CCB4B3BA PUSH1 0x40 MLOAD PUSH1 0x40 MLOAD DUP1 SWAP2 SUB SWAP1 LOG3 POP POP JUMP JUMPDEST PUSH1 0x9 PUSH1 0x15 SWAP1 SLOAD SWAP1 PUSH2 0x100 EXP SWAP1 DIV PUSH1 0xFF AND DUP2 JUMP JUMPDEST PUSH2 0x2F3F PUSH2 0x5761 JUMP JUMPDEST PUSH20 0xFFFFFFFFFFFFFFFFFFFFFFFFFFFFFFFFFFFFFFFF AND PUSH1 0x5 PUSH0 SWAP1 SLOAD SWAP1 PUSH2 0x100 EXP SWAP1 DIV PUSH20 0xFFFFFFFFFFFFFFFFFFFFFFFFFFFFFFFFFFFFFFFF AND PUSH20 0xFFFFFFFFFFFFFFFFFFFFFFFFFFFFFFFFFFFFFFFF AND EQ PUSH2 0x2FCD JUMPI PUSH1 0x40 MLOAD PUSH32 0x8C379A000000000000000000000000000000000000000000000000000000000 DUP2 MSTORE PUSH1 0x4 ADD PUSH2 0x2FC4 SWAP1 PUSH2 0x7FA9 JUMP JUMPDEST PUSH1 0x40 MLOAD DUP1 SWAP2 SUB SWAP1 REVERT JUMPDEST DUP1 MLOAD DUP3 MLOAD EQ PUSH2 0x3011 JUMPI PUSH1 0x40 MLOAD PUSH32 0x8C379A000000000000000000000000000000000000000000000000000000000 DUP2 MSTORE PUSH1 0x4 ADD PUSH2 0x3008 SWAP1 PUSH2 0x8A8A JUMP JUMPDEST PUSH1 0x40 MLOAD DUP1 SWAP2 SUB SWAP1 REVERT JUMPDEST PUSH0 JUMPDEST DUP3 MLOAD DUP2 LT ISZERO PUSH2 0x3068 JUMPI PUSH2 0x305B CALLER DUP5 DUP4 DUP2 MLOAD DUP2 LT PUSH2 0x3033 JUMPI PUSH2 0x3032 PUSH2 0x8AA8 JUMP JUMPDEST JUMPDEST PUSH1 0x20 MUL PUSH1 0x20 ADD ADD MLOAD DUP5 DUP5 DUP2 MLOAD DUP2 LT PUSH2 0x304E JUMPI PUSH2 0x304D PUSH2 0x8AA8 JUMP JUMPDEST JUMPDEST PUSH1 0x20 MUL PUSH1 0x20 ADD ADD MLOAD PUSH2 0x6603 JUMP JUMPDEST DUP1 DUP1 PUSH1 0x1 ADD SWAP2 POP POP PUSH2 0x3013 JUMP JUMPDEST POP POP POP JUMP JUMPDEST PUSH0 DUP1 PUSH0 DUP4 PUSH20 0xFFFFFFFFFFFFFFFFFFFFFFFFFFFFFFFFFFFFFFFF AND PUSH20 0xFFFFFFFFFFFFFFFFFFFFFFFFFFFFFFFFFFFFFFFF AND DUP2 MSTORE PUSH1 0x20 ADD SWAP1 DUP2 MSTORE PUSH1 0x20 ADD PUSH0 KECCAK256 SLOAD SWAP1 POP SWAP2 SWAP1 POP JUMP JUMPDEST PUSH2 0x30BA PUSH2 0x5761 JUMP JUMPDEST PUSH20 0xFFFFFFFFFFFFFFFFFFFFFFFFFFFFFFFFFFFFFFFF AND PUSH1 0x5 PUSH0 SWAP1 SLOAD SWAP1 PUSH2 0x100 EXP SWAP1 DIV PUSH20 0xFFFFFFFFFFFFFFFFFFFFFFFFFFFFFFFFFFFFFFFF AND PUSH20 0xFFFFFFFFFFFFFFFFFFFFFFFFFFFFFFFFFFFFFFFF AND EQ PUSH2 0x3148 JUMPI PUSH1 0x40 MLOAD PUSH32 0x8C379A000000000000000000000000000000000000000000000000000000000 DUP2 MSTORE PUSH1 0x4 ADD PUSH2 0x313F SWAP1 PUSH2 0x7FA9 JUMP JUMPDEST PUSH1 0x40 MLOAD DUP1 SWAP2 SUB SWAP1 REVERT JUMPDEST PUSH0 PUSH20 0xFFFFFFFFFFFFFFFFFFFFFFFFFFFFFFFFFFFFFFFF AND PUSH1 0x5 PUSH0 SWAP1 SLOAD SWAP1 PUSH2 0x100 EXP SWAP1 DIV PUSH20 0xFFFFFFFFFFFFFFFFFFFFFFFFFFFFFFFFFFFFFFFF AND PUSH20 0xFFFFFFFFFFFFFFFFFFFFFFFFFFFFFFFFFFFFFFFF AND PUSH32 0x8BE0079C531659141344CD1FD0A4F28419497F9722A3DAAFE3B4186F6B6457E0 PUSH1 0x40 MLOAD PUSH1 0x40 MLOAD DUP1 SWAP2 SUB SWAP1 LOG3 PUSH0 PUSH1 0x5 PUSH0 PUSH2 0x100 EXP DUP2 SLOAD DUP2 PUSH20 0xFFFFFFFFFFFFFFFFFFFFFFFFFFFFFFFFFFFFFFFF MUL NOT AND SWAP1 DUP4 PUSH20 0xFFFFFFFFFFFFFFFFFFFFFFFFFFFFFFFFFFFFFFFF AND MUL OR SWAP1 SSTORE POP JUMP JUMPDEST PUSH2 0x320D PUSH2 0x5761 JUMP JUMPDEST PUSH20 0xFFFFFFFFFFFFFFFFFFFFFFFFFFFFFFFFFFFFFFFF AND PUSH1 0x5 PUSH0 SWAP1 SLOAD SWAP1 PUSH2 0x100 EXP SWAP1 DIV PUSH20 0xFFFFFFFFFFFFFFFFFFFFFFFFFFFFFFFFFFFFFFFF AND PUSH20 0xFFFFFFFFFFFFFFFFFFFFFFFFFFFFFFFFFFFFFFFF AND EQ PUSH2 0x329B JUMPI PUSH1 0x40 MLOAD PUSH32 0x8C379A000000000000000000000000000000000000000000000000000000000 DUP2 MSTORE PUSH1 0x4 ADD PUSH2 0x3292 SWAP1 PUSH2 0x7FA9 JUMP JUMPDEST PUSH1 0x40 MLOAD DUP1 SWAP2 SUB SWAP1 REVERT JUMPDEST PUSH8 0xDE0B6B3A7640000 DUP3 PUSH2 0x32AF SWAP2 SWAP1 PUSH2 0x845D JUMP JUMPDEST PUSH1 0xE DUP2 SWAP1 SSTORE POP PUSH8 0xDE0B6B3A7640000 DUP2 PUSH2 0x32C9 SWAP2 SWAP1 PUSH2 0x845D JUMP JUMPDEST PUSH1 0xF DUP2 SWAP1 SSTORE POP POP POP JUMP JUMPDEST PUSH0 PUSH2 0x32DC PUSH2 0x5761 JUMP JUMPDEST PUSH20 0xFFFFFFFFFFFFFFFFFFFFFFFFFFFFFFFFFFFFFFFF AND PUSH1 0x5 PUSH0 SWAP1 SLOAD SWAP1 PUSH2 0x100 EXP SWAP1 DIV PUSH20 0xFFFFFFFFFFFFFFFFFFFFFFFFFFFFFFFFFFFFFFFF AND PUSH20 0xFFFFFFFFFFFFFFFFFFFFFFFFFFFFFFFFFFFFFFFF AND EQ PUSH2 0x336A JUMPI PUSH1 0x40 MLOAD PUSH32 0x8C379A000000000000000000000000000000000000000000000000000000000 DUP2 MSTORE PUSH1 0x4 ADD PUSH2 0x3361 SWAP1 PUSH2 0x7FA9 JUMP JUMPDEST PUSH1 0x40 MLOAD DUP1 SWAP2 SUB SWAP1 REVERT JUMPDEST PUSH0 PUSH20 0xFFFFFFFFFFFFFFFFFFFFFFFFFFFFFFFFFFFFFFFF AND DUP3 PUSH20 0xFFFFFFFFFFFFFFFFFFFFFFFFFFFFFFFFFFFFFFFF AND SUB PUSH2 0x33D8 JUMPI PUSH1 0x40 MLOAD PUSH32 0x8C379A000000000000000000000000000000000000000000000000000000000 DUP2 MSTORE PUSH1 0x4 ADD PUSH2 0x33CF SWAP1 PUSH2 0x8B1F JUMP JUMPDEST PUSH1 0x40 MLOAD DUP1 SWAP2 SUB SWAP1 REVERT JUMPDEST PUSH1 0x2C PUSH0 DUP4 PUSH20 0xFFFFFFFFFFFFFFFFFFFFFFFFFFFFFFFFFFFFFFFF AND PUSH20 0xFFFFFFFFFFFFFFFFFFFFFFFFFFFFFFFFFFFFFFFF AND DUP2 MSTORE PUSH1 0x20 ADD SWAP1 DUP2 MSTORE PUSH1 0x20 ADD PUSH0 KECCAK256 PUSH0 SWAP1 SLOAD SWAP1 PUSH2 0x100 EXP SWAP1 DIV PUSH1 0xFF AND ISZERO PUSH2 0x3462 JUMPI PUSH1 0x40 MLOAD PUSH32 0x8C379A000000000000000000000000000000000000000000000000000000000 DUP2 MSTORE PUSH1 0x4 ADD PUSH2 0x3459 SWAP1 PUSH2 0x8B87 JUMP JUMPDEST PUSH1 0x40 MLOAD DUP1 SWAP2 SUB SWAP1 REVERT JUMPDEST PUSH0 PUSH2 0x346C DUP4 PUSH2 0x6401 JUMP JUMPDEST SWAP1 POP PUSH0 DUP2 GT ISZERO PUSH2 0x355E JUMPI TIMESTAMP PUSH1 0x2D PUSH0 DUP6 PUSH20 0xFFFFFFFFFFFFFFFFFFFFFFFFFFFFFFFFFFFFFFFF AND PUSH20 0xFFFFFFFFFFFFFFFFFFFFFFFFFFFFFFFFFFFFFFFF AND DUP2 MSTORE PUSH1 0x20 ADD SWAP1 DUP2 MSTORE PUSH1 0x20 ADD PUSH0 KECCAK256 DUP2 SWAP1 SSTORE POP DUP3 PUSH20 0xFFFFFFFFFFFFFFFFFFFFFFFFFFFFFFFFFFFFFFFF AND PUSH32 0x47CEE97CB7ACD717B3C0AA1435D004CD5B3C8C57D70DBCEB4E4458BBD60E39D4 DUP3 PUSH1 0x40 MLOAD PUSH2 0x34FE SWAP2 SWAP1 PUSH2 0x753C JUMP JUMPDEST PUSH1 0x40 MLOAD DUP1 SWAP2 SUB SWAP1 LOG2 DUP3 PUSH20 0xFFFFFFFFFFFFFFFFFFFFFFFFFFFFFFFFFFFFFFFF AND PUSH32 0x6DC3229B225E3910B3249AD879803A4ECC9CB8622975B0E34B367C36BF92B01A DUP3 PUSH1 0x40 MLOAD PUSH2 0x354C SWAP2 SWAP1 PUSH2 0x753C JUMP JUMPDEST PUSH1 0x40 MLOAD DUP1 SWAP2 SUB SWAP1 LOG2 PUSH1 0x1 SWAP2 POP POP PUSH2 0x3563 JUMP JUMPDEST PUSH0 SWAP2 POP POP JUMPDEST SWAP2 SWAP1 POP JUMP JUMPDEST PUSH1 0x2B SLOAD DUP2 JUMP JUMPDEST PUSH0 PUSH2 0x3577 PUSH2 0x5761 JUMP JUMPDEST PUSH20 0xFFFFFFFFFFFFFFFFFFFFFFFFFFFFFFFFFFFFFFFF AND PUSH1 0x5 PUSH0 SWAP1 SLOAD SWAP1 PUSH2 0x100 EXP SWAP1 DIV PUSH20 0xFFFFFFFFFFFFFFFFFFFFFFFFFFFFFFFFFFFFFFFF AND PUSH20 0xFFFFFFFFFFFFFFFFFFFFFFFFFFFFFFFFFFFFFFFF AND EQ PUSH2 0x3605 JUMPI PUSH1 0x40 MLOAD PUSH32 0x8C379A000000000000000000000000000000000000000000000000000000000 DUP2 MSTORE PUSH1 0x4 ADD PUSH2 0x35FC SWAP1 PUSH2 0x7FA9 JUMP JUMPDEST PUSH1 0x40 MLOAD DUP1 SWAP2 SUB SWAP1 REVERT JUMPDEST PUSH0 PUSH2 0x360F DUP4 PUSH2 0x6401 JUMP JUMPDEST SWAP1 POP PUSH0 DUP2 GT ISZERO PUSH2 0x36B3 JUMPI TIMESTAMP PUSH1 0x2D PUSH0 DUP6 PUSH20 0xFFFFFFFFFFFFFFFFFFFFFFFFFFFFFFFFFFFFFFFF AND PUSH20 0xFFFFFFFFFFFFFFFFFFFFFFFFFFFFFFFFFFFFFFFF AND DUP2 MSTORE PUSH1 0x20 ADD SWAP1 DUP2 MSTORE PUSH1 0x20 ADD PUSH0 KECCAK256 DUP2 SWAP1 SSTORE POP DUP3 PUSH20 0xFFFFFFFFFFFFFFFFFFFFFFFFFFFFFFFFFFFFFFFF AND PUSH32 0x47CEE97CB7ACD717B3C0AA1435D004CD5B3C8C57D70DBCEB4E4458BBD60E39D4 DUP3 PUSH1 0x40 MLOAD PUSH2 0x36A1 SWAP2 SWAP1 PUSH2 0x753C JUMP JUMPDEST PUSH1 0x40 MLOAD DUP1 SWAP2 SUB SWAP1 LOG2 PUSH1 0x1 SWAP2 POP POP PUSH2 0x36B8 JUMP JUMPDEST PUSH0 SWAP2 POP POP JUMPDEST SWAP2 SWAP1 POP JUMP JUMPDEST PUSH1 0x10 DUP1 PUSH0 ADD SLOAD SWAP1 DUP1 PUSH1 0x1 ADD SLOAD SWAP1 DUP1 PUSH1 0x2 ADD SLOAD SWAP1 DUP1 PUSH1 0x3 ADD SLOAD SWAP1 DUP1 PUSH1 0x4 ADD SLOAD SWAP1 POP DUP6 JUMP JUMPDEST PUSH2 0x36E8 PUSH2 0x5761 JUMP JUMPDEST PUSH20 0xFFFFFFFFFFFFFFFFFFFFFFFFFFFFFFFFFFFFFFFF AND PUSH1 0x5 PUSH0 SWAP1 SLOAD SWAP1 PUSH2 0x100 EXP SWAP1 DIV PUSH20 0xFFFFFFFFFFFFFFFFFFFFFFFFFFFFFFFFFFFFFFFF AND PUSH20 0xFFFFFFFFFFFFFFFFFFFFFFFFFFFFFFFFFFFFFFFF AND EQ PUSH2 0x3776 JUMPI PUSH1 0x40 MLOAD PUSH32 0x8C379A000000000000000000000000000000000000000000000000000000000 DUP2 MSTORE PUSH1 0x4 ADD PUSH2 0x376D SWAP1 PUSH2 0x7FA9 JUMP JUMPDEST PUSH1 0x40 MLOAD DUP1 SWAP2 SUB SWAP1 REVERT JUMPDEST PUSH0 PUSH20 0xFFFFFFFFFFFFFFFFFFFFFFFFFFFFFFFFFFFFFFFF AND DUP2 PUSH20 0xFFFFFFFFFFFFFFFFFFFFFFFFFFFFFFFFFFFFFFFF AND SUB PUSH2 0x37E4 JUMPI PUSH1 0x40 MLOAD PUSH32 0x8C379A000000000000000000000000000000000000000000000000000000000 DUP2 MSTORE PUSH1 0x4 ADD PUSH2 0x37DB SWAP1 PUSH2 0x8A22 JUMP JUMPDEST PUSH1 0x40 MLOAD DUP1 SWAP2 SUB SWAP1 REVERT JUMPDEST PUSH1 0x9 PUSH0 SWAP1 SLOAD SWAP1 PUSH2 0x100 EXP SWAP1 DIV PUSH20 0xFFFFFFFFFFFFFFFFFFFFFFFFFFFFFFFFFFFFFFFF AND PUSH20 0xFFFFFFFFFFFFFFFFFFFFFFFFFFFFFFFFFFFFFFFF AND DUP2 PUSH20 0xFFFFFFFFFFFFFFFFFFFFFFFFFFFFFFFFFFFFFFFF AND SUB PUSH2 0x3873 JUMPI PUSH1 0x40 MLOAD PUSH32 0x8C379A000000000000000000000000000000000000000000000000000000000 DUP2 MSTORE PUSH1 0x4 ADD PUSH2 0x386A SWAP1 PUSH2 0x8BEF JUMP JUMPDEST PUSH1 0x40 MLOAD DUP1 SWAP2 SUB SWAP1 REVERT JUMPDEST PUSH0 DUP2 SWAP1 POP DUP1 PUSH20 0xFFFFFFFFFFFFFFFFFFFFFFFFFFFFFFFFFFFFFFFF AND PUSH4 0x483F7A0 DUP3 PUSH1 0x1 PUSH1 0x40 MLOAD DUP4 PUSH4 0xFFFFFFFF AND PUSH1 0xE0 SHL DUP2 MSTORE PUSH1 0x4 ADD PUSH2 0x38B3 SWAP3 SWAP2 SWAP1 PUSH2 0x802F JUMP JUMPDEST PUSH0 PUSH1 0x40 MLOAD DUP1 DUP4 SUB DUP2 PUSH0 DUP8 DUP1 EXTCODESIZE ISZERO DUP1 ISZERO PUSH2 0x38CA JUMPI PUSH0 DUP1 REVERT JUMPDEST POP GAS CALL ISZERO DUP1 ISZERO PUSH2 0x38DC JUMPI RETURNDATASIZE PUSH0 DUP1 RETURNDATACOPY RETURNDATASIZE PUSH0 REVERT JUMPDEST POP POP POP POP DUP1 PUSH20 0xFFFFFFFFFFFFFFFFFFFFFFFFFFFFFFFFFFFFFFFF AND PUSH4 0x483F7A0 ADDRESS PUSH1 0x1 PUSH1 0x40 MLOAD DUP4 PUSH4 0xFFFFFFFF AND PUSH1 0xE0 SHL DUP2 MSTORE PUSH1 0x4 ADD PUSH2 0x391C SWAP3 SWAP2 SWAP1 PUSH2 0x802F JUMP JUMPDEST PUSH0 PUSH1 0x40 MLOAD DUP1 DUP4 SUB DUP2 PUSH0 DUP8 DUP1 EXTCODESIZE ISZERO DUP1 ISZERO PUSH2 0x3933 JUMPI PUSH0 DUP1 REVERT JUMPDEST POP GAS CALL ISZERO DUP1 ISZERO PUSH2 0x3945 JUMPI RETURNDATASIZE PUSH0 DUP1 RETURNDATACOPY RETURNDATASIZE PUSH0 REVERT JUMPDEST POP POP POP POP DUP1 PUSH20 0xFFFFFFFFFFFFFFFFFFFFFFFFFFFFFFFFFFFFFFFF AND PUSH4 0x483F7A0 PUSH2 0x396D PUSH2 0x3CC5 JUMP JUMPDEST PUSH1 0x1 PUSH1 0x40 MLOAD DUP4 PUSH4 0xFFFFFFFF AND PUSH1 0xE0 SHL DUP2 MSTORE PUSH1 0x4 ADD PUSH2 0x398C SWAP3 SWAP2 SWAP1 PUSH2 0x802F JUMP JUMPDEST PUSH0 PUSH1 0x40 MLOAD DUP1 DUP4 SUB DUP2 PUSH0 DUP8 DUP1 EXTCODESIZE ISZERO DUP1 ISZERO PUSH2 0x39A3 JUMPI PUSH0 DUP1 REVERT JUMPDEST POP GAS CALL ISZERO DUP1 ISZERO PUSH2 0x39B5 JUMPI RETURNDATASIZE PUSH0 DUP1 RETURNDATACOPY RETURNDATASIZE PUSH0 REVERT JUMPDEST POP POP POP POP DUP1 PUSH20 0xFFFFFFFFFFFFFFFFFFFFFFFFFFFFFFFFFFFFFFFF AND PUSH4 0x483F7A0 PUSH1 0x6 PUSH0 SWAP1 SLOAD SWAP1 PUSH2 0x100 EXP SWAP1 DIV PUSH20 0xFFFFFFFFFFFFFFFFFFFFFFFFFFFFFFFFFFFFFFFF AND PUSH1 0x1 PUSH1 0x40 MLOAD DUP4 PUSH4 0xFFFFFFFF AND PUSH1 0xE0 SHL DUP2 MSTORE PUSH1 0x4 ADD PUSH2 0x3A16 SWAP3 SWAP2 SWAP1 PUSH2 0x802F JUMP JUMPDEST PUSH0 PUSH1 0x40 MLOAD DUP1 DUP4 SUB DUP2 PUSH0 DUP8 DUP1 EXTCODESIZE ISZERO DUP1 ISZERO PUSH2 0x3A2D JUMPI PUSH0 DUP1 REVERT JUMPDEST POP GAS CALL ISZERO DUP1 ISZERO PUSH2 0x3A3F JUMPI RETURNDATASIZE PUSH0 DUP1 RETURNDATACOPY RETURNDATASIZE PUSH0 REVERT JUMPDEST POP POP POP POP PUSH0 PUSH1 0x9 PUSH0 SWAP1 SLOAD SWAP1 PUSH2 0x100 EXP SWAP1 DIV PUSH20 0xFFFFFFFFFFFFFFFFFFFFFFFFFFFFFFFFFFFFFFFF AND SWAP1 POP DUP2 PUSH1 0x9 PUSH0 PUSH2 0x100 EXP DUP2 SLOAD DUP2 PUSH20 0xFFFFFFFFFFFFFFFFFFFFFFFFFFFFFFFFFFFFFFFF MUL NOT AND SWAP1 DUP4 PUSH20 0xFFFFFFFFFFFFFFFFFFFFFFFFFFFFFFFFFFFFFFFF AND MUL OR SWAP1 SSTORE POP DUP3 PUSH20 0xFFFFFFFFFFFFFFFFFFFFFFFFFFFFFFFFFFFFFFFF AND DUP2 PUSH20 0xFFFFFFFFFFFFFFFFFFFFFFFFFFFFFFFFFFFFFFFF AND PUSH32 0xDAB7E227381106009C2EB953811A49C7E30DE8E9EB12E2AEDB79B25C22F474B9 PUSH1 0x40 MLOAD PUSH1 0x40 MLOAD DUP1 SWAP2 SUB SWAP1 LOG3 POP POP POP JUMP JUMPDEST PUSH1 0xE SLOAD DUP2 JUMP JUMPDEST PUSH2 0x3B15 PUSH2 0x5761 JUMP JUMPDEST PUSH20 0xFFFFFFFFFFFFFFFFFFFFFFFFFFFFFFFFFFFFFFFF AND PUSH1 0x5 PUSH0 SWAP1 SLOAD SWAP1 PUSH2 0x100 EXP SWAP1 DIV PUSH20 0xFFFFFFFFFFFFFFFFFFFFFFFFFFFFFFFFFFFFFFFF AND PUSH20 0xFFFFFFFFFFFFFFFFFFFFFFFFFFFFFFFFFFFFFFFF AND EQ PUSH2 0x3BA3 JUMPI PUSH1 0x40 MLOAD PUSH32 0x8C379A000000000000000000000000000000000000000000000000000000000 DUP2 MSTORE PUSH1 0x4 ADD PUSH2 0x3B9A SWAP1 PUSH2 0x7FA9 JUMP JUMPDEST PUSH1 0x40 MLOAD DUP1 SWAP2 SUB SWAP1 REVERT JUMPDEST PUSH1 0x9 PUSH0 SWAP1 SLOAD SWAP1 PUSH2 0x100 EXP SWAP1 DIV PUSH20 0xFFFFFFFFFFFFFFFFFFFFFFFFFFFFFFFFFFFFFFFF AND PUSH20 0xFFFFFFFFFFFFFFFFFFFFFFFFFFFFFFFFFFFFFFFF AND DUP2 PUSH20 0xFFFFFFFFFFFFFFFFFFFFFFFFFFFFFFFFFFFFFFFF AND SUB PUSH2 0x3C32 JUMPI PUSH1 0x40 MLOAD PUSH32 0x8C379A000000000000000000000000000000000000000000000000000000000 DUP2 MSTORE PUSH1 0x4 ADD PUSH2 0x3C29 SWAP1 PUSH2 0x8165 JUMP JUMPDEST PUSH1 0x40 MLOAD DUP1 SWAP2 SUB SWAP1 REVERT JUMPDEST PUSH1 0x9 PUSH0 SWAP1 SLOAD SWAP1 PUSH2 0x100 EXP SWAP1 DIV PUSH20 0xFFFFFFFFFFFFFFFFFFFFFFFFFFFFFFFFFFFFFFFF AND PUSH20 0xFFFFFFFFFFFFFFFFFFFFFFFFFFFFFFFFFFFFFFFF AND PUSH4 0x497EC823 PUSH2 0x3C77 PUSH2 0x3CC5 JUMP JUMPDEST DUP4 PUSH1 0x40 MLOAD DUP4 PUSH4 0xFFFFFFFF AND PUSH1 0xE0 SHL DUP2 MSTORE PUSH1 0x4 ADD PUSH2 0x3C95 SWAP3 SWAP2 SWAP1 PUSH2 0x8C0D JUMP JUMPDEST PUSH0 PUSH1 0x40 MLOAD DUP1 DUP4 SUB DUP2 PUSH0 DUP8 DUP1 EXTCODESIZE ISZERO DUP1 ISZERO PUSH2 0x3CAC JUMPI PUSH0 DUP1 REVERT JUMPDEST POP GAS CALL ISZERO DUP1 ISZERO PUSH2 0x3CBE JUMPI RETURNDATASIZE PUSH0 DUP1 RETURNDATACOPY RETURNDATASIZE PUSH0 REVERT JUMPDEST POP POP POP POP POP JUMP JUMPDEST PUSH0 PUSH1 0x5 PUSH0 SWAP1 SLOAD SWAP1 PUSH2 0x100 EXP SWAP1 DIV PUSH20 0xFFFFFFFFFFFFFFFFFFFFFFFFFFFFFFFFFFFFFFFF AND SWAP1 POP SWAP1 JUMP JUMPDEST PUSH1 0xB PUSH0 SWAP1 SLOAD SWAP1 PUSH2 0x100 EXP SWAP1 DIV PUSH20 0xFFFFFFFFFFFFFFFFFFFFFFFFFFFFFFFFFFFFFFFF AND DUP2 JUMP JUMPDEST PUSH2 0x3D1A PUSH2 0x5761 JUMP JUMPDEST PUSH20 0xFFFFFFFFFFFFFFFFFFFFFFFFFFFFFFFFFFFFFFFF AND PUSH1 0x5 PUSH0 SWAP1 SLOAD SWAP1 PUSH2 0x100 EXP SWAP1 DIV PUSH20 0xFFFFFFFFFFFFFFFFFFFFFFFFFFFFFFFFFFFFFFFF AND PUSH20 0xFFFFFFFFFFFFFFFFFFFFFFFFFFFFFFFFFFFFFFFF AND EQ PUSH2 0x3DA8 JUMPI PUSH1 0x40 MLOAD PUSH32 0x8C379A000000000000000000000000000000000000000000000000000000000 DUP2 MSTORE PUSH1 0x4 ADD PUSH2 0x3D9F SWAP1 PUSH2 0x7FA9 JUMP JUMPDEST PUSH1 0x40 MLOAD DUP1 SWAP2 SUB SWAP1 REVERT JUMPDEST DUP1 PUSH1 0x25 PUSH0 PUSH2 0x100 EXP DUP2 SLOAD DUP2 PUSH1 0xFF MUL NOT AND SWAP1 DUP4 ISZERO ISZERO MUL OR SWAP1 SSTORE POP POP JUMP JUMPDEST PUSH1 0x60 PUSH1 0x4 DUP1 SLOAD PUSH2 0x3DD3 SWAP1 PUSH2 0x8083 JUMP JUMPDEST DUP1 PUSH1 0x1F ADD PUSH1 0x20 DUP1 SWAP2 DIV MUL PUSH1 0x20 ADD PUSH1 0x40 MLOAD SWAP1 DUP2 ADD PUSH1 0x40 MSTORE DUP1 SWAP3 SWAP2 SWAP1 DUP2 DUP2 MSTORE PUSH1 0x20 ADD DUP3 DUP1 SLOAD PUSH2 0x3DFF SWAP1 PUSH2 0x8083 JUMP JUMPDEST DUP1 ISZERO PUSH2 0x3E4A JUMPI DUP1 PUSH1 0x1F LT PUSH2 0x3E21 JUMPI PUSH2 0x100 DUP1 DUP4 SLOAD DIV MUL DUP4 MSTORE SWAP2 PUSH1 0x20 ADD SWAP2 PUSH2 0x3E4A JUMP JUMPDEST DUP3 ADD SWAP2 SWAP1 PUSH0 MSTORE PUSH1 0x20 PUSH0 KECCAK256 SWAP1 JUMPDEST DUP2 SLOAD DUP2 MSTORE SWAP1 PUSH1 0x1 ADD SWAP1 PUSH1 0x20 ADD DUP1 DUP4 GT PUSH2 0x3E2D JUMPI DUP3 SWAP1 SUB PUSH1 0x1F AND DUP3 ADD SWAP2 JUMPDEST POP POP POP POP POP SWAP1 POP SWAP1 JUMP JUMPDEST PUSH2 0x3E5C PUSH2 0x5761 JUMP JUMPDEST PUSH20 0xFFFFFFFFFFFFFFFFFFFFFFFFFFFFFFFFFFFFFFFF AND PUSH1 0x5 PUSH0 SWAP1 SLOAD SWAP1 PUSH2 0x100 EXP SWAP1 DIV PUSH20 0xFFFFFFFFFFFFFFFFFFFFFFFFFFFFFFFFFFFFFFFF AND PUSH20 0xFFFFFFFFFFFFFFFFFFFFFFFFFFFFFFFFFFFFFFFF AND EQ PUSH2 0x3EEA JUMPI PUSH1 0x40 MLOAD PUSH32 0x8C379A000000000000000000000000000000000000000000000000000000000 DUP2 MSTORE PUSH1 0x4 ADD PUSH2 0x3EE1 SWAP1 PUSH2 0x7FA9 JUMP JUMPDEST PUSH1 0x40 MLOAD DUP1 SWAP2 SUB SWAP1 REVERT JUMPDEST PUSH2 0x3EF4 DUP3 DUP3 PUSH2 0x688C JUMP JUMPDEST POP POP JUMP JUMPDEST PUSH1 0x20 DUP1 MSTORE DUP1 PUSH0 MSTORE PUSH1 0x40 PUSH0 KECCAK256 PUSH0 SWAP2 POP SWAP1 POP DUP1 PUSH0 ADD SLOAD SWAP1 DUP1 PUSH1 0x1 ADD SLOAD SWAP1 DUP1 PUSH1 0x2 ADD SLOAD SWAP1 DUP1 PUSH1 0x3 ADD SLOAD SWAP1 POP DUP5 JUMP JUMPDEST PUSH9 0x3635C9ADC5DEA00000 DUP4 LT ISZERO PUSH2 0x3F6F JUMPI PUSH1 0x40 MLOAD PUSH32 0x8C379A000000000000000000000000000000000000000000000000000000000 DUP2 MSTORE PUSH1 0x4 ADD PUSH2 0x3F66 SWAP1 PUSH2 0x8C7E JUMP JUMPDEST PUSH1 0x40 MLOAD DUP1 SWAP2 SUB SWAP1 REVERT JUMPDEST PUSH1 0x1D PUSH0 CALLER PUSH20 0xFFFFFFFFFFFFFFFFFFFFFFFFFFFFFFFFFFFFFFFF AND PUSH20 0xFFFFFFFFFFFFFFFFFFFFFFFFFFFFFFFFFFFFFFFF AND DUP2 MSTORE PUSH1 0x20 ADD SWAP1 DUP2 MSTORE PUSH1 0x20 ADD PUSH0 KECCAK256 PUSH0 SWAP1 SLOAD SWAP1 PUSH2 0x100 EXP SWAP1 DIV PUSH1 0xFF AND ISZERO PUSH2 0x3FF9 JUMPI PUSH1 0x40 MLOAD PUSH32 0x8C379A000000000000000000000000000000000000000000000000000000000 DUP2 MSTORE PUSH1 0x4 ADD PUSH2 0x3FF0 SWAP1 PUSH2 0x8CE6 JUMP JUMPDEST PUSH1 0x40 MLOAD DUP1 SWAP2 SUB SWAP1 REVERT JUMPDEST PUSH1 0x8 PUSH0 SWAP1 SLOAD SWAP1 PUSH2 0x100 EXP SWAP1 DIV PUSH20 0xFFFFFFFFFFFFFFFFFFFFFFFFFFFFFFFFFFFFFFFF AND PUSH20 0xFFFFFFFFFFFFFFFFFFFFFFFFFFFFFFFFFFFFFFFF AND PUSH4 0x7C2A810D DUP5 CALLER DUP6 DUP6 PUSH1 0x40 MLOAD DUP6 PUSH4 0xFFFFFFFF AND PUSH1 0xE0 SHL DUP2 MSTORE PUSH1 0x4 ADD PUSH2 0x4059 SWAP5 SWAP4 SWAP3 SWAP2 SWAP1 PUSH2 0x8D04 JUMP JUMPDEST PUSH1 0x20 PUSH1 0x40 MLOAD DUP1 DUP4 SUB DUP2 DUP7 GAS STATICCALL ISZERO DUP1 ISZERO PUSH2 0x4074 JUMPI RETURNDATASIZE PUSH0 DUP1 RETURNDATACOPY RETURNDATASIZE PUSH0 REVERT JUMPDEST POP POP POP POP PUSH1 0x40 MLOAD RETURNDATASIZE PUSH1 0x1F NOT PUSH1 0x1F DUP3 ADD AND DUP3 ADD DUP1 PUSH1 0x40 MSTORE POP DUP2 ADD SWAP1 PUSH2 0x4098 SWAP2 SWAP1 PUSH2 0x8265 JUMP JUMPDEST PUSH2 0x40D7 JUMPI PUSH1 0x40 MLOAD PUSH32 0x8C379A000000000000000000000000000000000000000000000000000000000 DUP2 MSTORE PUSH1 0x4 ADD PUSH2 0x40CE SWAP1 PUSH2 0x8D8C JUMP JUMPDEST PUSH1 0x40 MLOAD DUP1 SWAP2 SUB SWAP1 REVERT JUMPDEST PUSH1 0x1 PUSH1 0x1D PUSH0 CALLER PUSH20 0xFFFFFFFFFFFFFFFFFFFFFFFFFFFFFFFFFFFFFFFF AND PUSH20 0xFFFFFFFFFFFFFFFFFFFFFFFFFFFFFFFFFFFFFFFF AND DUP2 MSTORE PUSH1 0x20 ADD SWAP1 DUP2 MSTORE PUSH1 0x20 ADD PUSH0 KECCAK256 PUSH0 PUSH2 0x100 EXP DUP2 SLOAD DUP2 PUSH1 0xFF MUL NOT AND SWAP1 DUP4 ISZERO ISZERO MUL OR SWAP1 SSTORE POP PUSH2 0x4137 CALLER ADDRESS DUP6 PUSH2 0x5A1B JUMP JUMPDEST CALLER PUSH20 0xFFFFFFFFFFFFFFFFFFFFFFFFFFFFFFFFFFFFFFFF AND PUSH32 0x4DF062AAB8277B8E784BCA8EB041D3E1937CB6F58F03964ECE7DC1B33E2869C DUP5 PUSH1 0x40 MLOAD PUSH2 0x417D SWAP2 SWAP1 PUSH2 0x753C JUMP JUMPDEST PUSH1 0x40 MLOAD DUP1 SWAP2 SUB SWAP1 LOG2 POP POP POP JUMP JUMPDEST PUSH0 PUSH2 0x4248 PUSH2 0x4196 PUSH2 0x5761 JUMP JUMPDEST DUP5 PUSH2 0x4243 DUP6 PUSH1 0x40 MLOAD DUP1 PUSH1 0x60 ADD PUSH1 0x40 MSTORE DUP1 PUSH1 0x25 DUP2 MSTORE PUSH1 0x20 ADD PUSH2 0x9BD1 PUSH1 0x25 SWAP2 CODECOPY PUSH1 0x1 PUSH0 PUSH2 0x41BF PUSH2 0x5761 JUMP JUMPDEST PUSH20 0xFFFFFFFFFFFFFFFFFFFFFFFFFFFFFFFFFFFFFFFF AND PUSH20 0xFFFFFFFFFFFFFFFFFFFFFFFFFFFFFFFFFFFFFFFF AND DUP2 MSTORE PUSH1 0x20 ADD SWAP1 DUP2 MSTORE PUSH1 0x20 ADD PUSH0 KECCAK256 PUSH0 DUP11 PUSH20 0xFFFFFFFFFFFFFFFFFFFFFFFFFFFFFFFFFFFFFFFF AND PUSH20 0xFFFFFFFFFFFFFFFFFFFFFFFFFFFFFFFFFFFFFFFF AND DUP2 MSTORE PUSH1 0x20 ADD SWAP1 DUP2 MSTORE PUSH1 0x20 ADD PUSH0 KECCAK256 SLOAD PUSH2 0x6342 SWAP1 SWAP3 SWAP2 SWAP1 PUSH4 0xFFFFFFFF AND JUMP JUMPDEST PUSH2 0x5768 JUMP JUMPDEST PUSH1 0x1 SWAP1 POP SWAP3 SWAP2 POP POP JUMP JUMPDEST PUSH0 PUSH1 0x20 PUSH0 DUP7 DUP2 MSTORE PUSH1 0x20 ADD SWAP1 DUP2 MSTORE PUSH1 0x20 ADD PUSH0 KECCAK256 SWAP1 POP PUSH0 PUSH1 0x23 PUSH0 DUP8 DUP2 MSTORE PUSH1 0x20 ADD SWAP1 DUP2 MSTORE PUSH1 0x20 ADD PUSH0 KECCAK256 DUP1 SLOAD SWAP1 POP GT PUSH2 0x42BC JUMPI PUSH1 0x40 MLOAD PUSH32 0x8C379A000000000000000000000000000000000000000000000000000000000 DUP2 MSTORE PUSH1 0x4 ADD PUSH2 0x42B3 SWAP1 PUSH2 0x8DF4 JUMP JUMPDEST PUSH1 0x40 MLOAD DUP1 SWAP2 SUB SWAP1 REVERT JUMPDEST PUSH1 0x22 PUSH0 DUP7 DUP2 MSTORE PUSH1 0x20 ADD SWAP1 DUP2 MSTORE PUSH1 0x20 ADD PUSH0 KECCAK256 PUSH0 DUP6 DUP2 MSTORE PUSH1 0x20 ADD SWAP1 DUP2 MSTORE PUSH1 0x20 ADD PUSH0 KECCAK256 PUSH0 SWAP1 SLOAD SWAP1 PUSH2 0x100 EXP SWAP1 DIV PUSH1 0xFF AND ISZERO PUSH2 0x4329 JUMPI PUSH1 0x40 MLOAD PUSH32 0x8C379A000000000000000000000000000000000000000000000000000000000 DUP2 MSTORE PUSH1 0x4 ADD PUSH2 0x4320 SWAP1 PUSH2 0x8E5C JUMP JUMPDEST PUSH1 0x40 MLOAD DUP1 SWAP2 SUB SWAP1 REVERT JUMPDEST PUSH1 0x8 PUSH0 SWAP1 SLOAD SWAP1 PUSH2 0x100 EXP SWAP1 DIV PUSH20 0xFFFFFFFFFFFFFFFFFFFFFFFFFFFFFFFFFFFFFFFF AND PUSH20 0xFFFFFFFFFFFFFFFFFFFFFFFFFFFFFFFFFFFFFFFF AND PUSH4 0x7D4CF5C8 DUP5 DUP5 DUP8 DUP6 PUSH1 0x3 ADD SLOAD DUP11 CALLER PUSH1 0x40 MLOAD DUP8 PUSH4 0xFFFFFFFF AND PUSH1 0xE0 SHL DUP2 MSTORE PUSH1 0x4 ADD PUSH2 0x4391 SWAP7 SWAP6 SWAP5 SWAP4 SWAP3 SWAP2 SWAP1 PUSH2 0x8E7A JUMP JUMPDEST PUSH1 0x20 PUSH1 0x40 MLOAD DUP1 DUP4 SUB DUP2 DUP7 GAS STATICCALL ISZERO DUP1 ISZERO PUSH2 0x43AC JUMPI RETURNDATASIZE PUSH0 DUP1 RETURNDATACOPY RETURNDATASIZE PUSH0 REVERT JUMPDEST POP POP POP POP PUSH1 0x40 MLOAD RETURNDATASIZE PUSH1 0x1F NOT PUSH1 0x1F DUP3 ADD AND DUP3 ADD DUP1 PUSH1 0x40 MSTORE POP DUP2 ADD SWAP1 PUSH2 0x43D0 SWAP2 SWAP1 PUSH2 0x8265 JUMP JUMPDEST PUSH2 0x440F JUMPI PUSH1 0x40 MLOAD PUSH32 0x8C379A000000000000000000000000000000000000000000000000000000000 DUP2 MSTORE PUSH1 0x4 ADD PUSH2 0x4406 SWAP1 PUSH2 0x8F1E JUMP JUMPDEST PUSH1 0x40 MLOAD DUP1 SWAP2 SUB SWAP1 REVERT JUMPDEST PUSH1 0x1 PUSH1 0x22 PUSH0 DUP8 DUP2 MSTORE PUSH1 0x20 ADD SWAP1 DUP2 MSTORE PUSH1 0x20 ADD PUSH0 KECCAK256 PUSH0 DUP7 DUP2 MSTORE PUSH1 0x20 ADD SWAP1 DUP2 MSTORE PUSH1 0x20 ADD PUSH0 KECCAK256 PUSH0 PUSH2 0x100 EXP DUP2 SLOAD DUP2 PUSH1 0xFF MUL NOT AND SWAP1 DUP4 ISZERO ISZERO MUL OR SWAP1 SSTORE POP DUP5 DUP2 PUSH0 ADD PUSH0 DUP3 DUP3 SLOAD PUSH2 0x4459 SWAP2 SWAP1 PUSH2 0x8F3C JUMP JUMPDEST SWAP3 POP POP DUP2 SWAP1 SSTORE POP PUSH2 0x446B ADDRESS CALLER DUP8 PUSH2 0x5A1B JUMP JUMPDEST DUP5 PUSH32 0x3346BCEE7E32B3102C1A31FFCDF51CDE8CBEB24B8EF41C6FACDDD3E6AF7248D6 DUP6 PUSH1 0x40 MLOAD PUSH2 0x449B SWAP2 SWAP1 PUSH2 0x8F6F JUMP JUMPDEST PUSH1 0x40 MLOAD DUP1 SWAP2 SUB SWAP1 LOG2 POP POP POP POP POP JUMP JUMPDEST PUSH2 0x44B2 PUSH2 0x5761 JUMP JUMPDEST PUSH20 0xFFFFFFFFFFFFFFFFFFFFFFFFFFFFFFFFFFFFFFFF AND PUSH1 0x5 PUSH0 SWAP1 SLOAD SWAP1 PUSH2 0x100 EXP SWAP1 DIV PUSH20 0xFFFFFFFFFFFFFFFFFFFFFFFFFFFFFFFFFFFFFFFF AND PUSH20 0xFFFFFFFFFFFFFFFFFFFFFFFFFFFFFFFFFFFFFFFF AND EQ PUSH2 0x4540 JUMPI PUSH1 0x40 MLOAD PUSH32 0x8C379A000000000000000000000000000000000000000000000000000000000 DUP2 MSTORE PUSH1 0x4 ADD PUSH2 0x4537 SWAP1 PUSH2 0x7FA9 JUMP JUMPDEST PUSH1 0x40 MLOAD DUP1 SWAP2 SUB SWAP1 REVERT JUMPDEST DUP1 PUSH1 0xA PUSH0 PUSH2 0x100 EXP DUP2 SLOAD DUP2 PUSH20 0xFFFFFFFFFFFFFFFFFFFFFFFFFFFFFFFFFFFFFFFF MUL NOT AND SWAP1 DUP4 PUSH20 0xFFFFFFFFFFFFFFFFFFFFFFFFFFFFFFFFFFFFFFFF AND MUL OR SWAP1 SSTORE POP POP JUMP JUMPDEST PUSH1 0x7 PUSH0 SWAP1 SLOAD SWAP1 PUSH2 0x100 EXP SWAP1 DIV PUSH20 0xFFFFFFFFFFFFFFFFFFFFFFFFFFFFFFFFFFFFFFFF AND DUP2 JUMP JUMPDEST PUSH0 PUSH1 0x9 PUSH0 SWAP1 SLOAD SWAP1 PUSH2 0x100 EXP SWAP1 DIV PUSH20 0xFFFFFFFFFFFFFFFFFFFFFFFFFFFFFFFFFFFFFFFF AND PUSH20 0xFFFFFFFFFFFFFFFFFFFFFFFFFFFFFFFFFFFFFFFF AND PUSH4 0xA8B9D240 DUP4 PUSH1 0x40 MLOAD DUP3 PUSH4 0xFFFFFFFF AND PUSH1 0xE0 SHL DUP2 MSTORE PUSH1 0x4 ADD PUSH2 0x4603 SWAP2 SWAP1 PUSH2 0x7514 JUMP JUMPDEST PUSH1 0x20 PUSH1 0x40 MLOAD DUP1 DUP4 SUB DUP2 DUP7 GAS STATICCALL ISZERO DUP1 ISZERO PUSH2 0x461E JUMPI RETURNDATASIZE PUSH0 DUP1 RETURNDATACOPY RETURNDATASIZE PUSH0 REVERT JUMPDEST POP POP POP POP PUSH1 0x40 MLOAD RETURNDATASIZE PUSH1 0x1F NOT PUSH1 0x1F DUP3 ADD AND DUP3 ADD DUP1 PUSH1 0x40 MSTORE POP DUP2 ADD SWAP1 PUSH2 0x4642 SWAP2 SWAP1 PUSH2 0x8197 JUMP JUMPDEST SWAP1 POP SWAP2 SWAP1 POP JUMP JUMPDEST PUSH0 PUSH2 0x465C PUSH2 0x4655 PUSH2 0x5761 JUMP JUMPDEST DUP5 DUP5 PUSH2 0x5A1B JUMP JUMPDEST PUSH1 0x1 SWAP1 POP SWAP3 SWAP2 POP POP JUMP JUMPDEST PUSH0 PUSH1 0x2A PUSH0 DUP4 PUSH20 0xFFFFFFFFFFFFFFFFFFFFFFFFFFFFFFFFFFFFFFFF AND PUSH20 0xFFFFFFFFFFFFFFFFFFFFFFFFFFFFFFFFFFFFFFFF AND DUP2 MSTORE PUSH1 0x20 ADD SWAP1 DUP2 MSTORE PUSH1 0x20 ADD PUSH0 KECCAK256 SLOAD SWAP1 POP SWAP2 SWAP1 POP JUMP JUMPDEST PUSH1 0x26 PUSH1 0x20 MSTORE DUP1 PUSH0 MSTORE PUSH1 0x40 PUSH0 KECCAK256 PUSH0 SWAP2 POP SLOAD SWAP1 PUSH2 0x100 EXP SWAP1 DIV PUSH1 0xFF AND DUP2 JUMP JUMPDEST PUSH1 0x22 PUSH1 0x20 MSTORE DUP2 PUSH0 MSTORE PUSH1 0x40 PUSH0 KECCAK256 PUSH1 0x20 MSTORE DUP1 PUSH0 MSTORE PUSH1 0x40 PUSH0 KECCAK256 PUSH0 SWAP2 POP SWAP2 POP SWAP1 SLOAD SWAP1 PUSH2 0x100 EXP SWAP1 DIV PUSH1 0xFF AND DUP2 JUMP JUMPDEST PUSH2 0x46FB PUSH2 0x5761 JUMP JUMPDEST PUSH20 0xFFFFFFFFFFFFFFFFFFFFFFFFFFFFFFFFFFFFFFFF AND PUSH1 0x5 PUSH0 SWAP1 SLOAD SWAP1 PUSH2 0x100 EXP SWAP1 DIV PUSH20 0xFFFFFFFFFFFFFFFFFFFFFFFFFFFFFFFFFFFFFFFF AND PUSH20 0xFFFFFFFFFFFFFFFFFFFFFFFFFFFFFFFFFFFFFFFF AND EQ PUSH2 0x4789 JUMPI PUSH1 0x40 MLOAD PUSH32 0x8C379A000000000000000000000000000000000000000000000000000000000 DUP2 MSTORE PUSH1 0x4 ADD PUSH2 0x4780 SWAP1 PUSH2 0x7FA9 JUMP JUMPDEST PUSH1 0x40 MLOAD DUP1 SWAP2 SUB SWAP1 REVERT JUMPDEST PUSH8 0xDE0B6B3A7640000 DUP2 PUSH2 0x479D SWAP2 SWAP1 PUSH2 0x845D JUMP JUMPDEST PUSH1 0xD DUP2 SWAP1 SSTORE POP POP JUMP JUMPDEST PUSH9 0x3635C9ADC5DEA00000 DUP2 JUMP JUMPDEST PUSH1 0x1F PUSH1 0x20 MSTORE DUP1 PUSH0 MSTORE PUSH1 0x40 PUSH0 KECCAK256 PUSH0 SWAP2 POP SLOAD SWAP1 PUSH2 0x100 EXP SWAP1 DIV PUSH1 0xFF AND DUP2 JUMP JUMPDEST PUSH2 0x47D8 PUSH2 0x5761 JUMP JUMPDEST PUSH20 0xFFFFFFFFFFFFFFFFFFFFFFFFFFFFFFFFFFFFFFFF AND PUSH1 0x5 PUSH0 SWAP1 SLOAD SWAP1 PUSH2 0x100 EXP SWAP1 DIV PUSH20 0xFFFFFFFFFFFFFFFFFFFFFFFFFFFFFFFFFFFFFFFF AND PUSH20 0xFFFFFFFFFFFFFFFFFFFFFFFFFFFFFFFFFFFFFFFF AND EQ PUSH2 0x4866 JUMPI PUSH1 0x40 MLOAD PUSH32 0x8C379A000000000000000000000000000000000000000000000000000000000 DUP2 MSTORE PUSH1 0x4 ADD PUSH2 0x485D SWAP1 PUSH2 0x7FA9 JUMP JUMPDEST PUSH1 0x40 MLOAD DUP1 SWAP2 SUB SWAP1 REVERT JUMPDEST PUSH0 JUMPDEST DUP3 MLOAD DUP2 LT ISZERO PUSH2 0x48EC JUMPI DUP2 PUSH1 0x26 PUSH0 DUP6 DUP5 DUP2 MLOAD DUP2 LT PUSH2 0x4888 JUMPI PUSH2 0x4887 PUSH2 0x8AA8 JUMP JUMPDEST JUMPDEST PUSH1 0x20 MUL PUSH1 0x20 ADD ADD MLOAD PUSH20 0xFFFFFFFFFFFFFFFFFFFFFFFFFFFFFFFFFFFFFFFF AND PUSH20 0xFFFFFFFFFFFFFFFFFFFFFFFFFFFFFFFFFFFFFFFF AND DUP2 MSTORE PUSH1 0x20 ADD SWAP1 DUP2 MSTORE PUSH1 0x20 ADD PUSH0 KECCAK256 PUSH0 PUSH2 0x100 EXP DUP2 SLOAD DUP2 PUSH1 0xFF MUL NOT AND SWAP1 DUP4 ISZERO ISZERO MUL OR SWAP1 SSTORE POP DUP1 DUP1 PUSH1 0x1 ADD SWAP2 POP POP PUSH2 0x4868 JUMP JUMPDEST POP POP POP JUMP JUMPDEST PUSH2 0x48F9 PUSH2 0x5761 JUMP JUMPDEST PUSH20 0xFFFFFFFFFFFFFFFFFFFFFFFFFFFFFFFFFFFFFFFF AND PUSH1 0x5 PUSH0 SWAP1 SLOAD SWAP1 PUSH2 0x100 EXP SWAP1 DIV PUSH20 0xFFFFFFFFFFFFFFFFFFFFFFFFFFFFFFFFFFFFFFFF AND PUSH20 0xFFFFFFFFFFFFFFFFFFFFFFFFFFFFFFFFFFFFFFFF AND EQ PUSH2 0x4987 JUMPI PUSH1 0x40 MLOAD PUSH32 0x8C379A000000000000000000000000000000000000000000000000000000000 DUP2 MSTORE PUSH1 0x4 ADD PUSH2 0x497E SWAP1 PUSH2 0x7FA9 JUMP JUMPDEST PUSH1 0x40 MLOAD DUP1 SWAP2 SUB SWAP1 REVERT JUMPDEST DUP1 ISZERO ISZERO PUSH1 0x1E PUSH0 DUP5 PUSH20 0xFFFFFFFFFFFFFFFFFFFFFFFFFFFFFFFFFFFFFFFF AND PUSH20 0xFFFFFFFFFFFFFFFFFFFFFFFFFFFFFFFFFFFFFFFF AND DUP2 MSTORE PUSH1 0x20 ADD SWAP1 DUP2 MSTORE PUSH1 0x20 ADD PUSH0 KECCAK256 PUSH0 SWAP1 SLOAD SWAP1 PUSH2 0x100 EXP SWAP1 DIV PUSH1 0xFF AND ISZERO ISZERO SUB PUSH2 0x4A16 JUMPI PUSH1 0x40 MLOAD PUSH32 0x8C379A000000000000000000000000000000000000000000000000000000000 DUP2 MSTORE PUSH1 0x4 ADD PUSH2 0x4A0D SWAP1 PUSH2 0x8FF8 JUMP JUMPDEST PUSH1 0x40 MLOAD DUP1 SWAP2 SUB SWAP1 REVERT JUMPDEST DUP1 PUSH1 0x1E PUSH0 DUP5 PUSH20 0xFFFFFFFFFFFFFFFFFFFFFFFFFFFFFFFFFFFFFFFF AND PUSH20 0xFFFFFFFFFFFFFFFFFFFFFFFFFFFFFFFFFFFFFFFF AND DUP2 MSTORE PUSH1 0x20 ADD SWAP1 DUP2 MSTORE PUSH1 0x20 ADD PUSH0 KECCAK256 PUSH0 PUSH2 0x100 EXP DUP2 SLOAD DUP2 PUSH1 0xFF MUL NOT AND SWAP1 DUP4 ISZERO ISZERO MUL OR SWAP1 SSTORE POP DUP2 PUSH20 0xFFFFFFFFFFFFFFFFFFFFFFFFFFFFFFFFFFFFFFFF AND PUSH32 0x9D8F7706EA1113D1A167B526ECA956215946DD36CC7DF39EB16180222D8B5DF7 DUP3 PUSH1 0x40 MLOAD PUSH2 0x4AB0 SWAP2 SWAP1 PUSH2 0x74EC JUMP JUMPDEST PUSH1 0x40 MLOAD DUP1 SWAP2 SUB SWAP1 LOG2 POP POP JUMP JUMPDEST PUSH1 0x2E PUSH1 0x20 MSTORE DUP1 PUSH0 MSTORE PUSH1 0x40 PUSH0 KECCAK256 PUSH0 SWAP2 POP SLOAD SWAP1 PUSH2 0x100 EXP SWAP1 DIV PUSH1 0xFF AND DUP2 JUMP JUMPDEST PUSH2 0x4AE1 PUSH2 0x5761 JUMP JUMPDEST PUSH20 0xFFFFFFFFFFFFFFFFFFFFFFFFFFFFFFFFFFFFFFFF AND PUSH1 0x5 PUSH0 SWAP1 SLOAD SWAP1 PUSH2 0x100 EXP SWAP1 DIV PUSH20 0xFFFFFFFFFFFFFFFFFFFFFFFFFFFFFFFFFFFFFFFF AND PUSH20 0xFFFFFFFFFFFFFFFFFFFFFFFFFFFFFFFFFFFFFFFF AND EQ PUSH2 0x4B6F JUMPI PUSH1 0x40 MLOAD PUSH32 0x8C379A000000000000000000000000000000000000000000000000000000000 DUP2 MSTORE PUSH1 0x4 ADD PUSH2 0x4B66 SWAP1 PUSH2 0x7FA9 JUMP JUMPDEST PUSH1 0x40 MLOAD DUP1 SWAP2 SUB SWAP1 REVERT JUMPDEST PUSH0 JUMPDEST DUP4 DUP4 SWAP1 POP DUP2 LT ISZERO PUSH2 0x4C04 JUMPI DUP2 PUSH1 0x1E PUSH0 DUP7 DUP7 DUP6 DUP2 DUP2 LT PUSH2 0x4B93 JUMPI PUSH2 0x4B92 PUSH2 0x8AA8 JUMP JUMPDEST JUMPDEST SWAP1 POP PUSH1 0x20 MUL ADD PUSH1 0x20 DUP2 ADD SWAP1 PUSH2 0x4BA8 SWAP2 SWAP1 PUSH2 0x733E JUMP JUMPDEST PUSH20 0xFFFFFFFFFFFFFFFFFFFFFFFFFFFFFFFFFFFFFFFF AND PUSH20 0xFFFFFFFFFFFFFFFFFFFFFFFFFFFFFFFFFFFFFFFF AND DUP2 MSTORE PUSH1 0x20 ADD SWAP1 DUP2 MSTORE PUSH1 0x20 ADD PUSH0 KECCAK256 PUSH0 PUSH2 0x100 EXP DUP2 SLOAD DUP2 PUSH1 0xFF MUL NOT AND SWAP1 DUP4 ISZERO ISZERO MUL OR SWAP1 SSTORE POP DUP1 DUP1 PUSH1 0x1 ADD SWAP2 POP POP PUSH2 0x4B71 JUMP JUMPDEST POP PUSH32 0x7FDAF542373FA84F4EE8D662C642F44E4C2276A217D7D29E548B6EB29A233B35 DUP4 DUP4 DUP4 PUSH1 0x40 MLOAD PUSH2 0x4C38 SWAP4 SWAP3 SWAP2 SWAP1 PUSH2 0x90D2 JUMP JUMPDEST PUSH1 0x40 MLOAD DUP1 SWAP2 SUB SWAP1 LOG1 POP POP POP JUMP JUMPDEST PUSH2 0x4C4D PUSH2 0x5761 JUMP JUMPDEST PUSH20 0xFFFFFFFFFFFFFFFFFFFFFFFFFFFFFFFFFFFFFFFF AND PUSH1 0x5 PUSH0 SWAP1 SLOAD SWAP1 PUSH2 0x100 EXP SWAP1 DIV PUSH20 0xFFFFFFFFFFFFFFFFFFFFFFFFFFFFFFFFFFFFFFFF AND PUSH20 0xFFFFFFFFFFFFFFFFFFFFFFFFFFFFFFFFFFFFFFFF AND EQ PUSH2 0x4CDB JUMPI PUSH1 0x40 MLOAD PUSH32 0x8C379A000000000000000000000000000000000000000000000000000000000 DUP2 MSTORE PUSH1 0x4 ADD PUSH2 0x4CD2 SWAP1 PUSH2 0x7FA9 JUMP JUMPDEST PUSH1 0x40 MLOAD DUP1 SWAP2 SUB SWAP1 REVERT JUMPDEST PUSH1 0x14 DUP2 DUP4 DUP6 DUP8 DUP10 PUSH2 0x4CEC SWAP2 SWAP1 PUSH2 0x8545 JUMP JUMPDEST PUSH2 0x4CF6 SWAP2 SWAP1 PUSH2 0x8545 JUMP JUMPDEST PUSH2 0x4D00 SWAP2 SWAP1 PUSH2 0x8545 JUMP JUMPDEST PUSH2 0x4D0A SWAP2 SWAP1 PUSH2 0x8545 JUMP JUMPDEST GT ISZERO PUSH2 0x4D4B JUMPI PUSH1 0x40 MLOAD PUSH32 0x8C379A000000000000000000000000000000000000000000000000000000000 DUP2 MSTORE PUSH1 0x4 ADD PUSH2 0x4D42 SWAP1 PUSH2 0x85C2 JUMP JUMPDEST PUSH1 0x40 MLOAD DUP1 SWAP2 SUB SWAP1 REVERT JUMPDEST PUSH1 0x40 MLOAD DUP1 PUSH1 0xA0 ADD PUSH1 0x40 MSTORE DUP1 DUP7 DUP2 MSTORE PUSH1 0x20 ADD DUP6 DUP2 MSTORE PUSH1 0x20 ADD DUP5 DUP2 MSTORE PUSH1 0x20 ADD DUP4 DUP2 MSTORE PUSH1 0x20 ADD DUP3 DUP2 MSTORE POP PUSH1 0x15 PUSH0 DUP3 ADD MLOAD DUP2 PUSH0 ADD SSTORE PUSH1 0x20 DUP3 ADD MLOAD DUP2 PUSH1 0x1 ADD SSTORE PUSH1 0x40 DUP3 ADD MLOAD DUP2 PUSH1 0x2 ADD SSTORE PUSH1 0x60 DUP3 ADD MLOAD DUP2 PUSH1 0x3 ADD SSTORE PUSH1 0x80 DUP3 ADD MLOAD DUP2 PUSH1 0x4 ADD SSTORE SWAP1 POP POP DUP1 DUP3 DUP5 DUP7 DUP9 PUSH2 0x4DB6 SWAP2 SWAP1 PUSH2 0x8545 JUMP JUMPDEST PUSH2 0x4DC0 SWAP2 SWAP1 PUSH2 0x8545 JUMP JUMPDEST PUSH2 0x4DCA SWAP2 SWAP1 PUSH2 0x8545 JUMP JUMPDEST PUSH2 0x4DD4 SWAP2 SWAP1 PUSH2 0x8545 JUMP JUMPDEST PUSH1 0x1B DUP2 SWAP1 SSTORE POP POP POP POP POP POP JUMP JUMPDEST PUSH2 0x4DE9 PUSH2 0x5761 JUMP JUMPDEST PUSH20 0xFFFFFFFFFFFFFFFFFFFFFFFFFFFFFFFFFFFFFFFF AND PUSH1 0x5 PUSH0 SWAP1 SLOAD SWAP1 PUSH2 0x100 EXP SWAP1 DIV PUSH20 0xFFFFFFFFFFFFFFFFFFFFFFFFFFFFFFFFFFFFFFFF AND PUSH20 0xFFFFFFFFFFFFFFFFFFFFFFFFFFFFFFFFFFFFFFFF AND EQ PUSH2 0x4E77 JUMPI PUSH1 0x40 MLOAD PUSH32 0x8C379A000000000000000000000000000000000000000000000000000000000 DUP2 MSTORE PUSH1 0x4 ADD PUSH2 0x4E6E SWAP1 PUSH2 0x7FA9 JUMP JUMPDEST PUSH1 0x40 MLOAD DUP1 SWAP2 SUB SWAP1 REVERT JUMPDEST PUSH0 PUSH20 0xFFFFFFFFFFFFFFFFFFFFFFFFFFFFFFFFFFFFFFFF AND DUP2 PUSH20 0xFFFFFFFFFFFFFFFFFFFFFFFFFFFFFFFFFFFFFFFF AND SUB PUSH2 0x4EE5 JUMPI PUSH1 0x40 MLOAD PUSH32 0x8C379A000000000000000000000000000000000000000000000000000000000 DUP2 MSTORE PUSH1 0x4 ADD PUSH2 0x4EDC SWAP1 PUSH2 0x8A22 JUMP JUMPDEST PUSH1 0x40 MLOAD DUP1 SWAP2 SUB SWAP1 REVERT JUMPDEST PUSH1 0x6 PUSH0 SWAP1 SLOAD SWAP1 PUSH2 0x100 EXP SWAP1 DIV PUSH20 0xFFFFFFFFFFFFFFFFFFFFFFFFFFFFFFFFFFFFFFFF AND PUSH20 0xFFFFFFFFFFFFFFFFFFFFFFFFFFFFFFFFFFFFFFFF AND DUP2 PUSH20 0xFFFFFFFFFFFFFFFFFFFFFFFFFFFFFFFFFFFFFFFF AND SUB PUSH2 0x4F74 JUMPI PUSH1 0x40 MLOAD PUSH32 0x8C379A000000000000000000000000000000000000000000000000000000000 DUP2 MSTORE PUSH1 0x4 ADD PUSH2 0x4F6B SWAP1 PUSH2 0x8BEF JUMP JUMPDEST PUSH1 0x40 MLOAD DUP1 SWAP2 SUB SWAP1 REVERT JUMPDEST DUP1 PUSH1 0x6 PUSH0 PUSH2 0x100 EXP DUP2 SLOAD DUP2 PUSH20 0xFFFFFFFFFFFFFFFFFFFFFFFFFFFFFFFFFFFFFFFF MUL NOT AND SWAP1 DUP4 PUSH20 0xFFFFFFFFFFFFFFFFFFFFFFFFFFFFFFFFFFFFFFFF AND MUL OR SWAP1 SSTORE POP DUP1 PUSH20 0xFFFFFFFFFFFFFFFFFFFFFFFFFFFFFFFFFFFFFFFF AND PUSH32 0x7AED1D3E8155A07CCF395E44EA3109A0E2D6C9B29BBBE9F142D9790596F4DC80 PUSH1 0x40 MLOAD PUSH1 0x40 MLOAD DUP1 SWAP2 SUB SWAP1 LOG2 POP JUMP JUMPDEST PUSH1 0x21 PUSH1 0x20 MSTORE DUP2 PUSH0 MSTORE PUSH1 0x40 PUSH0 KECCAK256 PUSH1 0x20 MSTORE DUP1 PUSH0 MSTORE PUSH1 0x40 PUSH0 KECCAK256 PUSH0 SWAP2 POP SWAP2 POP SWAP1 SLOAD SWAP1 PUSH2 0x100 EXP SWAP1 DIV PUSH1 0xFF AND DUP2 JUMP JUMPDEST PUSH2 0x502C PUSH2 0x5761 JUMP JUMPDEST PUSH20 0xFFFFFFFFFFFFFFFFFFFFFFFFFFFFFFFFFFFFFFFF AND PUSH1 0x5 PUSH0 SWAP1 SLOAD SWAP1 PUSH2 0x100 EXP SWAP1 DIV PUSH20 0xFFFFFFFFFFFFFFFFFFFFFFFFFFFFFFFFFFFFFFFF AND PUSH20 0xFFFFFFFFFFFFFFFFFFFFFFFFFFFFFFFFFFFFFFFF AND EQ PUSH2 0x50BA JUMPI PUSH1 0x40 MLOAD PUSH32 0x8C379A000000000000000000000000000000000000000000000000000000000 DUP2 MSTORE PUSH1 0x4 ADD PUSH2 0x50B1 SWAP1 PUSH2 0x7FA9 JUMP JUMPDEST PUSH1 0x40 MLOAD DUP1 SWAP2 SUB SWAP1 REVERT JUMPDEST PUSH0 PUSH1 0x24 DUP1 SLOAD SWAP1 POP EQ PUSH2 0x5101 JUMPI PUSH1 0x40 MLOAD PUSH32 0x8C379A000000000000000000000000000000000000000000000000000000000 DUP2 MSTORE PUSH1 0x4 ADD PUSH2 0x50F8 SWAP1 PUSH2 0x914C JUMP JUMPDEST PUSH1 0x40 MLOAD DUP1 SWAP2 SUB SWAP1 REVERT JUMPDEST PUSH0 JUMPDEST DUP3 DUP3 SWAP1 POP DUP2 LT ISZERO PUSH2 0x522B JUMPI PUSH0 DUP4 DUP4 DUP4 DUP2 DUP2 LT PUSH2 0x5122 JUMPI PUSH2 0x5121 PUSH2 0x8AA8 JUMP JUMPDEST JUMPDEST SWAP1 POP PUSH1 0x20 MUL ADD CALLDATALOAD GT PUSH2 0x5169 JUMPI PUSH1 0x40 MLOAD PUSH32 0x8C379A000000000000000000000000000000000000000000000000000000000 DUP2 MSTORE PUSH1 0x4 ADD PUSH2 0x5160 SWAP1 PUSH2 0x91B4 JUMP JUMPDEST PUSH1 0x40 MLOAD DUP1 SWAP2 SUB SWAP1 REVERT JUMPDEST PUSH1 0x24 DUP4 DUP4 DUP4 DUP2 DUP2 LT PUSH2 0x517E JUMPI PUSH2 0x517D PUSH2 0x8AA8 JUMP JUMPDEST JUMPDEST SWAP1 POP PUSH1 0x20 MUL ADD CALLDATALOAD SWAP1 DUP1 PUSH1 0x1 DUP2 SLOAD ADD DUP1 DUP3 SSTORE DUP1 SWAP2 POP POP PUSH1 0x1 SWAP1 SUB SWAP1 PUSH0 MSTORE PUSH1 0x20 PUSH0 KECCAK256 ADD PUSH0 SWAP1 SWAP2 SWAP1 SWAP2 SWAP1 SWAP2 POP SSTORE PUSH1 0x40 MLOAD DUP1 PUSH1 0x80 ADD PUSH1 0x40 MSTORE DUP1 PUSH0 DUP2 MSTORE PUSH1 0x20 ADD PUSH0 DUP2 MSTORE PUSH1 0x20 ADD PUSH0 DUP2 MSTORE PUSH1 0x20 ADD PUSH0 DUP1 SHL DUP2 MSTORE POP PUSH1 0x20 PUSH0 DUP6 DUP6 DUP6 DUP2 DUP2 LT PUSH2 0x51E1 JUMPI PUSH2 0x51E0 PUSH2 0x8AA8 JUMP JUMPDEST JUMPDEST SWAP1 POP PUSH1 0x20 MUL ADD CALLDATALOAD DUP2 MSTORE PUSH1 0x20 ADD SWAP1 DUP2 MSTORE PUSH1 0x20 ADD PUSH0 KECCAK256 PUSH0 DUP3 ADD MLOAD DUP2 PUSH0 ADD SSTORE PUSH1 0x20 DUP3 ADD MLOAD DUP2 PUSH1 0x1 ADD SSTORE PUSH1 0x40 DUP3 ADD MLOAD DUP2 PUSH1 0x2 ADD SSTORE PUSH1 0x60 DUP3 ADD MLOAD DUP2 PUSH1 0x3 ADD SSTORE SWAP1 POP POP DUP1 DUP1 PUSH1 0x1 ADD SWAP2 POP POP PUSH2 0x5103 JUMP JUMPDEST POP POP POP JUMP JUMPDEST PUSH1 0x8 PUSH0 SWAP1 SLOAD SWAP1 PUSH2 0x100 EXP SWAP1 DIV PUSH20 0xFFFFFFFFFFFFFFFFFFFFFFFFFFFFFFFFFFFFFFFF AND DUP2 JUMP JUMPDEST PUSH1 0x24 DUP2 DUP2 SLOAD DUP2 LT PUSH2 0x5264 JUMPI PUSH0 DUP1 REVERT JUMPDEST SWAP1 PUSH0 MSTORE PUSH1 0x20 PUSH0 KECCAK256 ADD PUSH0 SWAP2 POP SWAP1 POP SLOAD DUP2 JUMP JUMPDEST PUSH0 PUSH1 0x1 PUSH0 DUP5 PUSH20 0xFFFFFFFFFFFFFFFFFFFFFFFFFFFFFFFFFFFFFFFF AND PUSH20 0xFFFFFFFFFFFFFFFFFFFFFFFFFFFFFFFFFFFFFFFF AND DUP2 MSTORE PUSH1 0x20 ADD SWAP1 DUP2 MSTORE PUSH1 0x20 ADD PUSH0 KECCAK256 PUSH0 DUP4 PUSH20 0xFFFFFFFFFFFFFFFFFFFFFFFFFFFFFFFFFFFFFFFF AND PUSH20 0xFFFFFFFFFFFFFFFFFFFFFFFFFFFFFFFFFFFFFFFF AND DUP2 MSTORE PUSH1 0x20 ADD SWAP1 DUP2 MSTORE PUSH1 0x20 ADD PUSH0 KECCAK256 SLOAD SWAP1 POP SWAP3 SWAP2 POP POP JUMP JUMPDEST PUSH2 0x52FF PUSH2 0x5761 JUMP JUMPDEST PUSH20 0xFFFFFFFFFFFFFFFFFFFFFFFFFFFFFFFFFFFFFFFF AND PUSH1 0x5 PUSH0 SWAP1 SLOAD SWAP1 PUSH2 0x100 EXP SWAP1 DIV PUSH20 0xFFFFFFFFFFFFFFFFFFFFFFFFFFFFFFFFFFFFFFFF AND PUSH20 0xFFFFFFFFFFFFFFFFFFFFFFFFFFFFFFFFFFFFFFFF AND EQ PUSH2 0x538D JUMPI PUSH1 0x40 MLOAD PUSH32 0x8C379A000000000000000000000000000000000000000000000000000000000 DUP2 MSTORE PUSH1 0x4 ADD PUSH2 0x5384 SWAP1 PUSH2 0x7FA9 JUMP JUMPDEST PUSH1 0x40 MLOAD DUP1 SWAP2 SUB SWAP1 REVERT JUMPDEST DUP1 PUSH1 0x9 PUSH1 0x15 PUSH2 0x100 EXP DUP2 SLOAD DUP2 PUSH1 0xFF MUL NOT AND SWAP1 DUP4 ISZERO ISZERO MUL OR SWAP1 SSTORE POP POP JUMP JUMPDEST PUSH2 0x53B2 PUSH2 0x5761 JUMP JUMPDEST PUSH20 0xFFFFFFFFFFFFFFFFFFFFFFFFFFFFFFFFFFFFFFFF AND PUSH1 0x5 PUSH0 SWAP1 SLOAD SWAP1 PUSH2 0x100 EXP SWAP1 DIV PUSH20 0xFFFFFFFFFFFFFFFFFFFFFFFFFFFFFFFFFFFFFFFF AND PUSH20 0xFFFFFFFFFFFFFFFFFFFFFFFFFFFFFFFFFFFFFFFF AND EQ PUSH2 0x5440 JUMPI PUSH1 0x40 MLOAD PUSH32 0x8C379A000000000000000000000000000000000000000000000000000000000 DUP2 MSTORE PUSH1 0x4 ADD PUSH2 0x5437 SWAP1 PUSH2 0x7FA9 JUMP JUMPDEST PUSH1 0x40 MLOAD DUP1 SWAP2 SUB SWAP1 REVERT JUMPDEST PUSH1 0x9 PUSH0 SWAP1 SLOAD SWAP1 PUSH2 0x100 EXP SWAP1 DIV PUSH20 0xFFFFFFFFFFFFFFFFFFFFFFFFFFFFFFFFFFFFFFFF AND PUSH20 0xFFFFFFFFFFFFFFFFFFFFFFFFFFFFFFFFFFFFFFFF AND PUSH4 0x3B36A1D7 PUSH2 0x5485 PUSH2 0x3CC5 JUMP JUMPDEST PUSH1 0x40 MLOAD DUP3 PUSH4 0xFFFFFFFF AND PUSH1 0xE0 SHL DUP2 MSTORE PUSH1 0x4 ADD PUSH2 0x54A1 SWAP2 SWAP1 PUSH2 0x7514 JUMP JUMPDEST PUSH0 PUSH1 0x40 MLOAD DUP1 DUP4 SUB DUP2 PUSH0 DUP8 DUP1 EXTCODESIZE ISZERO DUP1 ISZERO PUSH2 0x54B8 JUMPI PUSH0 DUP1 REVERT JUMPDEST POP GAS CALL ISZERO DUP1 ISZERO PUSH2 0x54CA JUMPI RETURNDATASIZE PUSH0 DUP1 RETURNDATACOPY RETURNDATASIZE PUSH0 REVERT JUMPDEST POP POP POP POP JUMP JUMPDEST PUSH1 0xD SLOAD DUP2 JUMP JUMPDEST PUSH2 0x54DE PUSH2 0x3CC5 JUMP JUMPDEST PUSH20 0xFFFFFFFFFFFFFFFFFFFFFFFFFFFFFFFFFFFFFFFF AND CALLER PUSH20 0xFFFFFFFFFFFFFFFFFFFFFFFFFFFFFFFFFFFFFFFF AND EQ PUSH2 0x554B JUMPI PUSH1 0x40 MLOAD PUSH32 0x8C379A000000000000000000000000000000000000000000000000000000000 DUP2 MSTORE PUSH1 0x4 ADD PUSH2 0x5542 SWAP1 PUSH2 0x921C JUMP JUMPDEST PUSH1 0x40 MLOAD DUP1 SWAP2 SUB SWAP1 REVERT JUMPDEST PUSH2 0x5554 DUP2 PUSH2 0x6A4A JUMP JUMPDEST POP JUMP JUMPDEST PUSH2 0x555F PUSH2 0x5761 JUMP JUMPDEST PUSH20 0xFFFFFFFFFFFFFFFFFFFFFFFFFFFFFFFFFFFFFFFF AND PUSH1 0x5 PUSH0 SWAP1 SLOAD SWAP1 PUSH2 0x100 EXP SWAP1 DIV PUSH20 0xFFFFFFFFFFFFFFFFFFFFFFFFFFFFFFFFFFFFFFFF AND PUSH20 0xFFFFFFFFFFFFFFFFFFFFFFFFFFFFFFFFFFFFFFFF AND EQ PUSH2 0x55ED JUMPI PUSH1 0x40 MLOAD PUSH32 0x8C379A000000000000000000000000000000000000000000000000000000000 DUP2 MSTORE PUSH1 0x4 ADD PUSH2 0x55E4 SWAP1 PUSH2 0x7FA9 JUMP JUMPDEST PUSH1 0x40 MLOAD DUP1 SWAP2 SUB SWAP1 REVERT JUMPDEST PUSH0 PUSH20 0xFFFFFFFFFFFFFFFFFFFFFFFFFFFFFFFFFFFFFFFF AND DUP2 PUSH20 0xFFFFFFFFFFFFFFFFFFFFFFFFFFFFFFFFFFFFFFFF AND SUB PUSH2 0x565B JUMPI PUSH1 0x40 MLOAD PUSH32 0x8C379A000000000000000000000000000000000000000000000000000000000 DUP2 MSTORE PUSH1 0x4 ADD PUSH2 0x5652 SWAP1 PUSH2 0x92AA JUMP JUMPDEST PUSH1 0x40 MLOAD DUP1 SWAP2 SUB SWAP1 REVERT JUMPDEST DUP1 PUSH20 0xFFFFFFFFFFFFFFFFFFFFFFFFFFFFFFFFFFFFFFFF AND PUSH1 0x5 PUSH0 SWAP1 SLOAD SWAP1 PUSH2 0x100 EXP SWAP1 DIV PUSH20 0xFFFFFFFFFFFFFFFFFFFFFFFFFFFFFFFFFFFFFFFF AND PUSH20 0xFFFFFFFFFFFFFFFFFFFFFFFFFFFFFFFFFFFFFFFF AND PUSH32 0x8BE0079C531659141344CD1FD0A4F28419497F9722A3DAAFE3B4186F6B6457E0 PUSH1 0x40 MLOAD PUSH1 0x40 MLOAD DUP1 SWAP2 SUB SWAP1 LOG3 DUP1 PUSH1 0x5 PUSH0 PUSH2 0x100 EXP DUP2 SLOAD DUP2 PUSH20 0xFFFFFFFFFFFFFFFFFFFFFFFFFFFFFFFFFFFFFFFF MUL NOT AND SWAP1 DUP4 PUSH20 0xFFFFFFFFFFFFFFFFFFFFFFFFFFFFFFFFFFFFFFFF AND MUL OR SWAP1 SSTORE POP POP JUMP JUMPDEST PUSH1 0x15 DUP1 PUSH0 ADD SLOAD SWAP1 DUP1 PUSH1 0x1 ADD SLOAD SWAP1 DUP1 PUSH1 0x2 ADD SLOAD SWAP1 DUP1 PUSH1 0x3 ADD SLOAD SWAP1 DUP1 PUSH1 0x4 ADD SLOAD SWAP1 POP DUP6 JUMP JUMPDEST PUSH1 0x6 PUSH0 SWAP1 SLOAD SWAP1 PUSH2 0x100 EXP SWAP1 DIV PUSH20 0xFFFFFFFFFFFFFFFFFFFFFFFFFFFFFFFFFFFFFFFF AND DUP2 JUMP JUMPDEST PUSH0 CALLER SWAP1 POP SWAP1 JUMP JUMPDEST PUSH0 PUSH20 0xFFFFFFFFFFFFFFFFFFFFFFFFFFFFFFFFFFFFFFFF AND DUP4 PUSH20 0xFFFFFFFFFFFFFFFFFFFFFFFFFFFFFFFFFFFFFFFF AND SUB PUSH2 0x57D6 JUMPI PUSH1 0x40 MLOAD PUSH32 0x8C379A000000000000000000000000000000000000000000000000000000000 DUP2 MSTORE PUSH1 0x4 ADD PUSH2 0x57CD SWAP1 PUSH2 0x9338 JUMP JUMPDEST PUSH1 0x40 MLOAD DUP1 SWAP2 SUB SWAP1 REVERT JUMPDEST PUSH0 PUSH20 0xFFFFFFFFFFFFFFFFFFFFFFFFFFFFFFFFFFFFFFFF AND DUP3 PUSH20 0xFFFFFFFFFFFFFFFFFFFFFFFFFFFFFFFFFFFFFFFF AND SUB PUSH2 0x5844 JUMPI PUSH1 0x40 MLOAD PUSH32 0x8C379A000000000000000000000000000000000000000000000000000000000 DUP2 MSTORE PUSH1 0x4 ADD PUSH2 0x583B SWAP1 PUSH2 0x93C6 JUMP JUMPDEST PUSH1 0x40 MLOAD DUP1 SWAP2 SUB SWAP1 REVERT JUMPDEST DUP1 PUSH1 0x1 PUSH0 DUP6 PUSH20 0xFFFFFFFFFFFFFFFFFFFFFFFFFFFFFFFFFFFFFFFF AND PUSH20 0xFFFFFFFFFFFFFFFFFFFFFFFFFFFFFFFFFFFFFFFF AND DUP2 MSTORE PUSH1 0x20 ADD SWAP1 DUP2 MSTORE PUSH1 0x20 ADD PUSH0 KECCAK256 PUSH0 DUP5 PUSH20 0xFFFFFFFFFFFFFFFFFFFFFFFFFFFFFFFFFFFFFFFF AND PUSH20 0xFFFFFFFFFFFFFFFFFFFFFFFFFFFFFFFFFFFFFFFF AND DUP2 MSTORE PUSH1 0x20 ADD SWAP1 DUP2 MSTORE PUSH1 0x20 ADD PUSH0 KECCAK256 DUP2 SWAP1 SSTORE POP DUP2 PUSH20 0xFFFFFFFFFFFFFFFFFFFFFFFFFFFFFFFFFFFFFFFF AND DUP4 PUSH20 0xFFFFFFFFFFFFFFFFFFFFFFFFFFFFFFFFFFFFFFFF AND PUSH32 0x8C5BE1E5EBEC7D5BD14F71427D1E84F3DD0314C0F7B2291E5B200AC8C7C3B925 DUP4 PUSH1 0x40 MLOAD PUSH2 0x591E SWAP2 SWAP1 PUSH2 0x753C JUMP JUMPDEST PUSH1 0x40 MLOAD DUP1 SWAP2 SUB SWAP1 LOG3 POP POP POP JUMP JUMPDEST DUP1 SELFBALANCE LT ISZERO PUSH2 0x596E JUMPI PUSH1 0x40 MLOAD PUSH32 0x8C379A000000000000000000000000000000000000000000000000000000000 DUP2 MSTORE PUSH1 0x4 ADD PUSH2 0x5965 SWAP1 PUSH2 0x942E JUMP JUMPDEST PUSH1 0x40 MLOAD DUP1 SWAP2 SUB SWAP1 REVERT JUMPDEST PUSH0 DUP3 PUSH20 0xFFFFFFFFFFFFFFFFFFFFFFFFFFFFFFFFFFFFFFFF AND DUP3 PUSH1 0x40 MLOAD PUSH2 0x5993 SWAP1 PUSH2 0x9479 JUMP JUMPDEST PUSH0 PUSH1 0x40 MLOAD DUP1 DUP4 SUB DUP2 DUP6 DUP8 GAS CALL SWAP3 POP POP POP RETURNDATASIZE DUP1 PUSH0 DUP2 EQ PUSH2 0x59CD JUMPI PUSH1 0x40 MLOAD SWAP2 POP PUSH1 0x1F NOT PUSH1 0x3F RETURNDATASIZE ADD AND DUP3 ADD PUSH1 0x40 MSTORE RETURNDATASIZE DUP3 MSTORE RETURNDATASIZE PUSH0 PUSH1 0x20 DUP5 ADD RETURNDATACOPY PUSH2 0x59D2 JUMP JUMPDEST PUSH1 0x60 SWAP2 POP JUMPDEST POP POP SWAP1 POP DUP1 PUSH2 0x5A16 JUMPI PUSH1 0x40 MLOAD PUSH32 0x8C379A000000000000000000000000000000000000000000000000000000000 DUP2 MSTORE PUSH1 0x4 ADD PUSH2 0x5A0D SWAP1 PUSH2 0x94FD JUMP JUMPDEST PUSH1 0x40 MLOAD DUP1 SWAP2 SUB SWAP1 REVERT JUMPDEST POP POP POP JUMP JUMPDEST PUSH0 PUSH20 0xFFFFFFFFFFFFFFFFFFFFFFFFFFFFFFFFFFFFFFFF AND DUP4 PUSH20 0xFFFFFFFFFFFFFFFFFFFFFFFFFFFFFFFFFFFFFFFF AND SUB PUSH2 0x5A89 JUMPI PUSH1 0x40 MLOAD PUSH32 0x8C379A000000000000000000000000000000000000000000000000000000000 DUP2 MSTORE PUSH1 0x4 ADD PUSH2 0x5A80 SWAP1 PUSH2 0x958B JUMP JUMPDEST PUSH1 0x40 MLOAD DUP1 SWAP2 SUB SWAP1 REVERT JUMPDEST PUSH0 PUSH20 0xFFFFFFFFFFFFFFFFFFFFFFFFFFFFFFFFFFFFFFFF AND DUP3 PUSH20 0xFFFFFFFFFFFFFFFFFFFFFFFFFFFFFFFFFFFFFFFF AND SUB PUSH2 0x5AF7 JUMPI PUSH1 0x40 MLOAD PUSH32 0x8C379A000000000000000000000000000000000000000000000000000000000 DUP2 MSTORE PUSH1 0x4 ADD PUSH2 0x5AEE SWAP1 PUSH2 0x9619 JUMP JUMPDEST PUSH1 0x40 MLOAD DUP1 SWAP2 SUB SWAP1 REVERT JUMPDEST PUSH1 0x1E PUSH0 DUP5 PUSH20 0xFFFFFFFFFFFFFFFFFFFFFFFFFFFFFFFFFFFFFFFF AND PUSH20 0xFFFFFFFFFFFFFFFFFFFFFFFFFFFFFFFFFFFFFFFF AND DUP2 MSTORE PUSH1 0x20 ADD SWAP1 DUP2 MSTORE PUSH1 0x20 ADD PUSH0 KECCAK256 PUSH0 SWAP1 SLOAD SWAP1 PUSH2 0x100 EXP SWAP1 DIV PUSH1 0xFF AND ISZERO DUP1 ISZERO PUSH2 0x5B95 JUMPI POP PUSH1 0x1E PUSH0 DUP4 PUSH20 0xFFFFFFFFFFFFFFFFFFFFFFFFFFFFFFFFFFFFFFFF AND PUSH20 0xFFFFFFFFFFFFFFFFFFFFFFFFFFFFFFFFFFFFFFFF AND DUP2 MSTORE PUSH1 0x20 ADD SWAP1 DUP2 MSTORE PUSH1 0x20 ADD PUSH0 KECCAK256 PUSH0 SWAP1 SLOAD SWAP1 PUSH2 0x100 EXP SWAP1 DIV PUSH1 0xFF AND ISZERO JUMPDEST DUP1 ISZERO PUSH2 0x5BAE JUMPI POP PUSH1 0x9 PUSH1 0x14 SWAP1 SLOAD SWAP1 PUSH2 0x100 EXP SWAP1 DIV PUSH1 0xFF AND ISZERO JUMPDEST ISZERO PUSH2 0x5E0F JUMPI PUSH1 0x9 PUSH1 0x17 SWAP1 SLOAD SWAP1 PUSH2 0x100 EXP SWAP1 DIV PUSH1 0xFF AND PUSH2 0x5C02 JUMPI PUSH1 0x40 MLOAD PUSH32 0x8C379A000000000000000000000000000000000000000000000000000000000 DUP2 MSTORE PUSH1 0x4 ADD PUSH2 0x5BF9 SWAP1 PUSH2 0x9681 JUMP JUMPDEST PUSH1 0x40 MLOAD DUP1 SWAP2 SUB SWAP1 REVERT JUMPDEST PUSH1 0x26 PUSH0 DUP5 PUSH20 0xFFFFFFFFFFFFFFFFFFFFFFFFFFFFFFFFFFFFFFFF AND PUSH20 0xFFFFFFFFFFFFFFFFFFFFFFFFFFFFFFFFFFFFFFFF AND DUP2 MSTORE PUSH1 0x20 ADD SWAP1 DUP2 MSTORE PUSH1 0x20 ADD PUSH0 KECCAK256 PUSH0 SWAP1 SLOAD SWAP1 PUSH2 0x100 EXP SWAP1 DIV PUSH1 0xFF AND ISZERO DUP1 ISZERO PUSH2 0x5CA0 JUMPI POP PUSH1 0x26 PUSH0 DUP4 PUSH20 0xFFFFFFFFFFFFFFFFFFFFFFFFFFFFFFFFFFFFFFFF AND PUSH20 0xFFFFFFFFFFFFFFFFFFFFFFFFFFFFFFFFFFFFFFFF AND DUP2 MSTORE PUSH1 0x20 ADD SWAP1 DUP2 MSTORE PUSH1 0x20 ADD PUSH0 KECCAK256 PUSH0 SWAP1 SLOAD SWAP1 PUSH2 0x100 EXP SWAP1 DIV PUSH1 0xFF AND ISZERO JUMPDEST PUSH2 0x5CDF JUMPI PUSH1 0x40 MLOAD PUSH32 0x8C379A000000000000000000000000000000000000000000000000000000000 DUP2 MSTORE PUSH1 0x4 ADD PUSH2 0x5CD6 SWAP1 PUSH2 0x96E9 JUMP JUMPDEST PUSH1 0x40 MLOAD DUP1 SWAP2 SUB SWAP1 REVERT JUMPDEST PUSH1 0x1F PUSH0 DUP4 PUSH20 0xFFFFFFFFFFFFFFFFFFFFFFFFFFFFFFFFFFFFFFFF AND PUSH20 0xFFFFFFFFFFFFFFFFFFFFFFFFFFFFFFFFFFFFFFFF AND DUP2 MSTORE PUSH1 0x20 ADD SWAP1 DUP2 MSTORE PUSH1 0x20 ADD PUSH0 KECCAK256 PUSH0 SWAP1 SLOAD SWAP1 PUSH2 0x100 EXP SWAP1 DIV PUSH1 0xFF AND ISZERO PUSH2 0x5D78 JUMPI PUSH1 0xF SLOAD DUP2 GT ISZERO PUSH2 0x5D73 JUMPI PUSH1 0x40 MLOAD PUSH32 0x8C379A000000000000000000000000000000000000000000000000000000000 DUP2 MSTORE PUSH1 0x4 ADD PUSH2 0x5D6A SWAP1 PUSH2 0x9751 JUMP JUMPDEST PUSH1 0x40 MLOAD DUP1 SWAP2 SUB SWAP1 REVERT JUMPDEST PUSH2 0x5E0E JUMP JUMPDEST PUSH1 0x1F PUSH0 DUP5 PUSH20 0xFFFFFFFFFFFFFFFFFFFFFFFFFFFFFFFFFFFFFFFF AND PUSH20 0xFFFFFFFFFFFFFFFFFFFFFFFFFFFFFFFFFFFFFFFF AND DUP2 MSTORE PUSH1 0x20 ADD SWAP1 DUP2 MSTORE PUSH1 0x20 ADD PUSH0 KECCAK256 PUSH0 SWAP1 SLOAD SWAP1 PUSH2 0x100 EXP SWAP1 DIV PUSH1 0xFF AND ISZERO PUSH2 0x5E0D JUMPI PUSH1 0xE SLOAD DUP2 GT ISZERO PUSH2 0x5E0C JUMPI PUSH1 0x40 MLOAD PUSH32 0x8C379A000000000000000000000000000000000000000000000000000000000 DUP2 MSTORE PUSH1 0x4 ADD PUSH2 0x5E03 SWAP1 PUSH2 0x97B9 JUMP JUMPDEST PUSH1 0x40 MLOAD DUP1 SWAP2 SUB SWAP1 REVERT JUMPDEST JUMPDEST JUMPDEST JUMPDEST PUSH0 DUP2 SUB PUSH2 0x5E26 JUMPI PUSH2 0x5E21 DUP4 DUP4 PUSH0 PUSH2 0x6603 JUMP JUMPDEST PUSH2 0x633D JUMP JUMPDEST PUSH0 PUSH2 0x5E30 ADDRESS PUSH2 0x306D JUMP JUMPDEST SWAP1 POP PUSH0 PUSH1 0xD SLOAD DUP3 LT ISZERO SWAP1 POP DUP1 DUP1 ISZERO PUSH2 0x5E55 JUMPI POP PUSH1 0x9 PUSH1 0x14 SWAP1 SLOAD SWAP1 PUSH2 0x100 EXP SWAP1 DIV PUSH1 0xFF AND ISZERO JUMPDEST DUP1 ISZERO PUSH2 0x5E6D JUMPI POP PUSH1 0x9 PUSH1 0x15 SWAP1 SLOAD SWAP1 PUSH2 0x100 EXP SWAP1 DIV PUSH1 0xFF AND JUMPDEST DUP1 ISZERO PUSH2 0x5EBF JUMPI POP PUSH1 0x1F PUSH0 DUP6 PUSH20 0xFFFFFFFFFFFFFFFFFFFFFFFFFFFFFFFFFFFFFFFF AND PUSH20 0xFFFFFFFFFFFFFFFFFFFFFFFFFFFFFFFFFFFFFFFF AND DUP2 MSTORE PUSH1 0x20 ADD SWAP1 DUP2 MSTORE PUSH1 0x20 ADD PUSH0 KECCAK256 PUSH0 SWAP1 SLOAD SWAP1 PUSH2 0x100 EXP SWAP1 DIV PUSH1 0xFF AND JUMPDEST DUP1 ISZERO PUSH2 0x5F12 JUMPI POP PUSH1 0x1E PUSH0 DUP7 PUSH20 0xFFFFFFFFFFFFFFFFFFFFFFFFFFFFFFFFFFFFFFFF AND PUSH20 0xFFFFFFFFFFFFFFFFFFFFFFFFFFFFFFFFFFFFFFFF AND DUP2 MSTORE PUSH1 0x20 ADD SWAP1 DUP2 MSTORE PUSH1 0x20 ADD PUSH0 KECCAK256 PUSH0 SWAP1 SLOAD SWAP1 PUSH2 0x100 EXP SWAP1 DIV PUSH1 0xFF AND ISZERO JUMPDEST DUP1 ISZERO PUSH2 0x5F65 JUMPI POP PUSH1 0x1E PUSH0 DUP6 PUSH20 0xFFFFFFFFFFFFFFFFFFFFFFFFFFFFFFFFFFFFFFFF AND PUSH20 0xFFFFFFFFFFFFFFFFFFFFFFFFFFFFFFFFFFFFFFFF AND DUP2 MSTORE PUSH1 0x20 ADD SWAP1 DUP2 MSTORE PUSH1 0x20 ADD PUSH0 KECCAK256 PUSH0 SWAP1 SLOAD SWAP1 PUSH2 0x100 EXP SWAP1 DIV PUSH1 0xFF AND ISZERO JUMPDEST ISZERO PUSH2 0x5FB6 JUMPI PUSH1 0x1 PUSH1 0x9 PUSH1 0x14 PUSH2 0x100 EXP DUP2 SLOAD DUP2 PUSH1 0xFF MUL NOT AND SWAP1 DUP4 ISZERO ISZERO MUL OR SWAP1 SSTORE POP PUSH0 PUSH1 0x1B SLOAD GT ISZERO PUSH2 0x5F9B JUMPI PUSH2 0x5F9A PUSH1 0xD SLOAD PUSH2 0x6B43 JUMP JUMPDEST JUMPDEST PUSH0 PUSH1 0x9 PUSH1 0x14 PUSH2 0x100 EXP DUP2 SLOAD DUP2 PUSH1 0xFF MUL NOT AND SWAP1 DUP4 ISZERO ISZERO MUL OR SWAP1 SSTORE POP JUMPDEST PUSH0 PUSH1 0x9 PUSH1 0x14 SWAP1 SLOAD SWAP1 PUSH2 0x100 EXP SWAP1 DIV PUSH1 0xFF AND ISZERO SWAP1 POP PUSH1 0x1E PUSH0 DUP8 PUSH20 0xFFFFFFFFFFFFFFFFFFFFFFFFFFFFFFFFFFFFFFFF AND PUSH20 0xFFFFFFFFFFFFFFFFFFFFFFFFFFFFFFFFFFFFFFFF AND DUP2 MSTORE PUSH1 0x20 ADD SWAP1 DUP2 MSTORE PUSH1 0x20 ADD PUSH0 KECCAK256 PUSH0 SWAP1 SLOAD SWAP1 PUSH2 0x100 EXP SWAP1 DIV PUSH1 0xFF AND DUP1 PUSH2 0x6065 JUMPI POP PUSH1 0x1E PUSH0 DUP7 PUSH20 0xFFFFFFFFFFFFFFFFFFFFFFFFFFFFFFFFFFFFFFFF AND PUSH20 0xFFFFFFFFFFFFFFFFFFFFFFFFFFFFFFFFFFFFFFFF AND DUP2 MSTORE PUSH1 0x20 ADD SWAP1 DUP2 MSTORE PUSH1 0x20 ADD PUSH0 KECCAK256 PUSH0 SWAP1 SLOAD SWAP1 PUSH2 0x100 EXP SWAP1 DIV PUSH1 0xFF AND JUMPDEST ISZERO PUSH2 0x606E JUMPI PUSH0 SWAP1 POP JUMPDEST PUSH1 0x1F PUSH0 DUP7 PUSH20 0xFFFFFFFFFFFFFFFFFFFFFFFFFFFFFFFFFFFFFFFF AND PUSH20 0xFFFFFFFFFFFFFFFFFFFFFFFFFFFFFFFFFFFFFFFF AND DUP2 MSTORE PUSH1 0x20 ADD SWAP1 DUP2 MSTORE PUSH1 0x20 ADD PUSH0 KECCAK256 PUSH0 SWAP1 SLOAD SWAP1 PUSH2 0x100 EXP SWAP1 DIV PUSH1 0xFF AND ISZERO DUP1 ISZERO PUSH2 0x610C JUMPI POP PUSH1 0x1F PUSH0 DUP8 PUSH20 0xFFFFFFFFFFFFFFFFFFFFFFFFFFFFFFFFFFFFFFFF AND PUSH20 0xFFFFFFFFFFFFFFFFFFFFFFFFFFFFFFFFFFFFFFFF AND DUP2 MSTORE PUSH1 0x20 ADD SWAP1 DUP2 MSTORE PUSH1 0x20 ADD PUSH0 KECCAK256 PUSH0 SWAP1 SLOAD SWAP1 PUSH2 0x100 EXP SWAP1 DIV PUSH1 0xFF AND ISZERO JUMPDEST ISZERO PUSH2 0x6115 JUMPI PUSH0 SWAP1 POP JUMPDEST DUP1 ISZERO PUSH2 0x6214 JUMPI PUSH0 PUSH1 0x1F PUSH0 DUP8 PUSH20 0xFFFFFFFFFFFFFFFFFFFFFFFFFFFFFFFFFFFFFFFF AND PUSH20 0xFFFFFFFFFFFFFFFFFFFFFFFFFFFFFFFFFFFFFFFF AND DUP2 MSTORE PUSH1 0x20 ADD SWAP1 DUP2 MSTORE PUSH1 0x20 ADD PUSH0 KECCAK256 PUSH0 SWAP1 SLOAD SWAP1 PUSH2 0x100 EXP SWAP1 DIV PUSH1 0xFF AND ISZERO PUSH2 0x618C JUMPI PUSH1 0x64 PUSH1 0x1B SLOAD DUP7 PUSH2 0x617B SWAP2 SWAP1 PUSH2 0x845D JUMP JUMPDEST PUSH2 0x6185 SWAP2 SWAP1 PUSH2 0x8515 JUMP JUMPDEST SWAP1 POP PUSH2 0x61F9 JUMP JUMPDEST PUSH1 0x1F PUSH0 DUP9 PUSH20 0xFFFFFFFFFFFFFFFFFFFFFFFFFFFFFFFFFFFFFFFF AND PUSH20 0xFFFFFFFFFFFFFFFFFFFFFFFFFFFFFFFFFFFFFFFF AND DUP2 MSTORE PUSH1 0x20 ADD SWAP1 DUP2 MSTORE PUSH1 0x20 ADD PUSH0 KECCAK256 PUSH0 SWAP1 SLOAD SWAP1 PUSH2 0x100 EXP SWAP1 DIV PUSH1 0xFF AND ISZERO PUSH2 0x61F8 JUMPI PUSH1 0x64 PUSH1 0x1A SLOAD DUP7 PUSH2 0x61EB SWAP2 SWAP1 PUSH2 0x845D JUMP JUMPDEST PUSH2 0x61F5 SWAP2 SWAP1 PUSH2 0x8515 JUMP JUMPDEST SWAP1 POP JUMPDEST JUMPDEST DUP1 DUP6 PUSH2 0x6205 SWAP2 SWAP1 PUSH2 0x8F3C JUMP JUMPDEST SWAP5 POP PUSH2 0x6212 DUP8 ADDRESS DUP4 PUSH2 0x6603 JUMP JUMPDEST POP JUMPDEST PUSH2 0x621F DUP7 DUP7 DUP7 PUSH2 0x6603 JUMP JUMPDEST PUSH1 0x9 PUSH0 SWAP1 SLOAD SWAP1 PUSH2 0x100 EXP SWAP1 DIV PUSH20 0xFFFFFFFFFFFFFFFFFFFFFFFFFFFFFFFFFFFFFFFF AND PUSH20 0xFFFFFFFFFFFFFFFFFFFFFFFFFFFFFFFFFFFFFFFF AND PUSH4 0xE30443BC DUP8 PUSH2 0x6266 DUP10 PUSH2 0x306D JUMP JUMPDEST PUSH1 0x40 MLOAD DUP4 PUSH4 0xFFFFFFFF AND PUSH1 0xE0 SHL DUP2 MSTORE PUSH1 0x4 ADD PUSH2 0x6283 SWAP3 SWAP2 SWAP1 PUSH2 0x822A JUMP JUMPDEST PUSH0 PUSH1 0x40 MLOAD DUP1 DUP4 SUB DUP2 PUSH0 DUP8 DUP1 EXTCODESIZE ISZERO DUP1 ISZERO PUSH2 0x629A JUMPI PUSH0 DUP1 REVERT JUMPDEST POP GAS CALL SWAP3 POP POP POP DUP1 ISZERO PUSH2 0x62AB JUMPI POP PUSH1 0x1 JUMPDEST POP PUSH1 0x9 PUSH0 SWAP1 SLOAD SWAP1 PUSH2 0x100 EXP SWAP1 DIV PUSH20 0xFFFFFFFFFFFFFFFFFFFFFFFFFFFFFFFFFFFFFFFF AND PUSH20 0xFFFFFFFFFFFFFFFFFFFFFFFFFFFFFFFFFFFFFFFF AND PUSH4 0xE30443BC DUP7 PUSH2 0x62F3 DUP9 PUSH2 0x306D JUMP JUMPDEST PUSH1 0x40 MLOAD DUP4 PUSH4 0xFFFFFFFF AND PUSH1 0xE0 SHL DUP2 MSTORE PUSH1 0x4 ADD PUSH2 0x6310 SWAP3 SWAP2 SWAP1 PUSH2 0x822A JUMP JUMPDEST PUSH0 PUSH1 0x40 MLOAD DUP1 DUP4 SUB DUP2 PUSH0 DUP8 DUP1 EXTCODESIZE ISZERO DUP1 ISZERO PUSH2 0x6327 JUMPI PUSH0 DUP1 REVERT JUMPDEST POP GAS CALL SWAP3 POP POP POP DUP1 ISZERO PUSH2 0x6338 JUMPI POP PUSH1 0x1 JUMPDEST POP POP POP POP JUMPDEST POP POP POP JUMP JUMPDEST PUSH0 DUP4 DUP4 GT ISZERO DUP3 SWAP1 PUSH2 0x6389 JUMPI PUSH1 0x40 MLOAD PUSH32 0x8C379A000000000000000000000000000000000000000000000000000000000 DUP2 MSTORE PUSH1 0x4 ADD PUSH2 0x6380 SWAP2 SWAP1 PUSH2 0x744C JUMP JUMPDEST PUSH1 0x40 MLOAD DUP1 SWAP2 SUB SWAP1 REVERT JUMPDEST POP PUSH0 DUP4 DUP6 PUSH2 0x6397 SWAP2 SWAP1 PUSH2 0x8F3C JUMP JUMPDEST SWAP1 POP DUP1 SWAP2 POP POP SWAP4 SWAP3 POP POP POP JUMP JUMPDEST PUSH0 DUP1 DUP3 DUP5 PUSH2 0x63B2 SWAP2 SWAP1 PUSH2 0x8545 JUMP JUMPDEST SWAP1 POP DUP4 DUP2 LT ISZERO PUSH2 0x63F7 JUMPI PUSH1 0x40 MLOAD PUSH32 0x8C379A000000000000000000000000000000000000000000000000000000000 DUP2 MSTORE PUSH1 0x4 ADD PUSH2 0x63EE SWAP1 PUSH2 0x9821 JUMP JUMPDEST PUSH1 0x40 MLOAD DUP1 SWAP2 SUB SWAP1 REVERT JUMPDEST DUP1 SWAP2 POP POP SWAP3 SWAP2 POP POP JUMP JUMPDEST PUSH0 DUP1 PUSH2 0x640C DUP4 PUSH2 0x45A8 JUMP JUMPDEST SWAP1 POP PUSH0 DUP2 GT ISZERO PUSH2 0x65F9 JUMPI DUP1 PUSH1 0x2A PUSH0 DUP6 PUSH20 0xFFFFFFFFFFFFFFFFFFFFFFFFFFFFFFFFFFFFFFFF AND PUSH20 0xFFFFFFFFFFFFFFFFFFFFFFFFFFFFFFFFFFFFFFFF AND DUP2 MSTORE PUSH1 0x20 ADD SWAP1 DUP2 MSTORE PUSH1 0x20 ADD PUSH0 KECCAK256 SLOAD PUSH2 0x645F SWAP2 SWAP1 PUSH2 0x8545 JUMP JUMPDEST PUSH1 0x2A PUSH0 DUP6 PUSH20 0xFFFFFFFFFFFFFFFFFFFFFFFFFFFFFFFFFFFFFFFF AND PUSH20 0xFFFFFFFFFFFFFFFFFFFFFFFFFFFFFFFFFFFFFFFF AND DUP2 MSTORE PUSH1 0x20 ADD SWAP1 DUP2 MSTORE PUSH1 0x20 ADD PUSH0 KECCAK256 DUP2 SWAP1 SSTORE POP DUP3 PUSH20 0xFFFFFFFFFFFFFFFFFFFFFFFFFFFFFFFFFFFFFFFF AND PUSH32 0xEE503BEE2BB6A87E57BC57DB795F98137327401A0E7B7CE42E37926CC1A9CA4D DUP3 PUSH1 0x40 MLOAD PUSH2 0x64E6 SWAP2 SWAP1 PUSH2 0x753C JUMP JUMPDEST PUSH1 0x40 MLOAD DUP1 SWAP2 SUB SWAP1 LOG2 PUSH0 DUP4 PUSH20 0xFFFFFFFFFFFFFFFFFFFFFFFFFFFFFFFFFFFFFFFF AND DUP3 PUSH1 0x40 MLOAD PUSH2 0x6513 SWAP1 PUSH2 0x9479 JUMP JUMPDEST PUSH0 PUSH1 0x40 MLOAD DUP1 DUP4 SUB DUP2 DUP6 DUP8 GAS CALL SWAP3 POP POP POP RETURNDATASIZE DUP1 PUSH0 DUP2 EQ PUSH2 0x654D JUMPI PUSH1 0x40 MLOAD SWAP2 POP PUSH1 0x1F NOT PUSH1 0x3F RETURNDATASIZE ADD AND DUP3 ADD PUSH1 0x40 MSTORE RETURNDATASIZE DUP3 MSTORE RETURNDATASIZE PUSH0 PUSH1 0x20 DUP5 ADD RETURNDATACOPY PUSH2 0x6552 JUMP JUMPDEST PUSH1 0x60 SWAP2 POP JUMPDEST POP POP SWAP1 POP DUP1 PUSH2 0x65EF JUMPI DUP2 PUSH1 0x2A PUSH0 DUP7 PUSH20 0xFFFFFFFFFFFFFFFFFFFFFFFFFFFFFFFFFFFFFFFF AND PUSH20 0xFFFFFFFFFFFFFFFFFFFFFFFFFFFFFFFFFFFFFFFF AND DUP2 MSTORE PUSH1 0x20 ADD SWAP1 DUP2 MSTORE PUSH1 0x20 ADD PUSH0 KECCAK256 SLOAD PUSH2 0x65A4 SWAP2 SWAP1 PUSH2 0x8F3C JUMP JUMPDEST PUSH1 0x2A PUSH0 DUP7 PUSH20 0xFFFFFFFFFFFFFFFFFFFFFFFFFFFFFFFFFFFFFFFF AND PUSH20 0xFFFFFFFFFFFFFFFFFFFFFFFFFFFFFFFFFFFFFFFF AND DUP2 MSTORE PUSH1 0x20 ADD SWAP1 DUP2 MSTORE PUSH1 0x20 ADD PUSH0 KECCAK256 DUP2 SWAP1 SSTORE POP PUSH0 SWAP3 POP POP POP PUSH2 0x65FE JUMP JUMPDEST DUP2 SWAP3 POP POP POP PUSH2 0x65FE JUMP JUMPDEST PUSH0 SWAP2 POP POP JUMPDEST SWAP2 SWAP1 POP JUMP JUMPDEST PUSH0 PUSH20 0xFFFFFFFFFFFFFFFFFFFFFFFFFFFFFFFFFFFFFFFF AND DUP4 PUSH20 0xFFFFFFFFFFFFFFFFFFFFFFFFFFFFFFFFFFFFFFFF AND SUB PUSH2 0x6671 JUMPI PUSH1 0x40 MLOAD PUSH32 0x8C379A000000000000000000000000000000000000000000000000000000000 DUP2 MSTORE PUSH1 0x4 ADD PUSH2 0x6668 SWAP1 PUSH2 0x958B JUMP JUMPDEST PUSH1 0x40 MLOAD DUP1 SWAP2 SUB SWAP1 REVERT JUMPDEST PUSH0 PUSH20 0xFFFFFFFFFFFFFFFFFFFFFFFFFFFFFFFFFFFFFFFF AND DUP3 PUSH20 0xFFFFFFFFFFFFFFFFFFFFFFFFFFFFFFFFFFFFFFFF AND SUB PUSH2 0x66DF JUMPI PUSH1 0x40 MLOAD PUSH32 0x8C379A000000000000000000000000000000000000000000000000000000000 DUP2 MSTORE PUSH1 0x4 ADD PUSH2 0x66D6 SWAP1 PUSH2 0x9619 JUMP JUMPDEST PUSH1 0x40 MLOAD DUP1 SWAP2 SUB SWAP1 REVERT JUMPDEST PUSH2 0x66EA DUP4 DUP4 DUP4 PUSH2 0x6FBF JUMP JUMPDEST PUSH2 0x6753 DUP2 PUSH1 0x40 MLOAD DUP1 PUSH1 0x60 ADD PUSH1 0x40 MSTORE DUP1 PUSH1 0x26 DUP2 MSTORE PUSH1 0x20 ADD PUSH2 0x9B83 PUSH1 0x26 SWAP2 CODECOPY PUSH0 DUP1 DUP8 PUSH20 0xFFFFFFFFFFFFFFFFFFFFFFFFFFFFFFFFFFFFFFFF AND PUSH20 0xFFFFFFFFFFFFFFFFFFFFFFFFFFFFFFFFFFFFFFFF AND DUP2 MSTORE PUSH1 0x20 ADD SWAP1 DUP2 MSTORE PUSH1 0x20 ADD PUSH0 KECCAK256 SLOAD PUSH2 0x6342 SWAP1 SWAP3 SWAP2 SWAP1 PUSH4 0xFFFFFFFF AND JUMP JUMPDEST PUSH0 DUP1 DUP6 PUSH20 0xFFFFFFFFFFFFFFFFFFFFFFFFFFFFFFFFFFFFFFFF AND PUSH20 0xFFFFFFFFFFFFFFFFFFFFFFFFFFFFFFFFFFFFFFFF AND DUP2 MSTORE PUSH1 0x20 ADD SWAP1 DUP2 MSTORE PUSH1 0x20 ADD PUSH0 KECCAK256 DUP2 SWAP1 SSTORE POP PUSH2 0x67E2 DUP2 PUSH0 DUP1 DUP6 PUSH20 0xFFFFFFFFFFFFFFFFFFFFFFFFFFFFFFFFFFFFFFFF AND PUSH20 0xFFFFFFFFFFFFFFFFFFFFFFFFFFFFFFFFFFFFFFFF AND DUP2 MSTORE PUSH1 0x20 ADD SWAP1 DUP2 MSTORE PUSH1 0x20 ADD PUSH0 KECCAK256 SLOAD PUSH2 0x63A4 SWAP1 SWAP2 SWAP1 PUSH4 0xFFFFFFFF AND JUMP JUMPDEST PUSH0 DUP1 DUP5 PUSH20 0xFFFFFFFFFFFFFFFFFFFFFFFFFFFFFFFFFFFFFFFF AND PUSH20 0xFFFFFFFFFFFFFFFFFFFFFFFFFFFFFFFFFFFFFFFF AND DUP2 MSTORE PUSH1 0x20 ADD SWAP1 DUP2 MSTORE PUSH1 0x20 ADD PUSH0 KECCAK256 DUP2 SWAP1 SSTORE POP DUP2 PUSH20 0xFFFFFFFFFFFFFFFFFFFFFFFFFFFFFFFFFFFFFFFF AND DUP4 PUSH20 0xFFFFFFFFFFFFFFFFFFFFFFFFFFFFFFFFFFFFFFFF AND PUSH32 0xDDF252AD1BE2C89B69C2B068FC378DAA952BA7F163C4A11628F55A4DF523B3EF DUP4 PUSH1 0x40 MLOAD PUSH2 0x687F SWAP2 SWAP1 PUSH2 0x753C JUMP JUMPDEST PUSH1 0x40 MLOAD DUP1 SWAP2 SUB SWAP1 LOG3 POP POP POP JUMP JUMPDEST DUP1 ISZERO ISZERO PUSH1 0x1F PUSH0 DUP5 PUSH20 0xFFFFFFFFFFFFFFFFFFFFFFFFFFFFFFFFFFFFFFFF AND PUSH20 0xFFFFFFFFFFFFFFFFFFFFFFFFFFFFFFFFFFFFFFFF AND DUP2 MSTORE PUSH1 0x20 ADD SWAP1 DUP2 MSTORE PUSH1 0x20 ADD PUSH0 KECCAK256 PUSH0 SWAP1 SLOAD SWAP1 PUSH2 0x100 EXP SWAP1 DIV PUSH1 0xFF AND ISZERO ISZERO SUB PUSH2 0x691B JUMPI PUSH1 0x40 MLOAD PUSH32 0x8C379A000000000000000000000000000000000000000000000000000000000 DUP2 MSTORE PUSH1 0x4 ADD PUSH2 0x6912 SWAP1 PUSH2 0x98AF JUMP JUMPDEST PUSH1 0x40 MLOAD DUP1 SWAP2 SUB SWAP1 REVERT JUMPDEST DUP1 PUSH1 0x1F PUSH0 DUP5 PUSH20 0xFFFFFFFFFFFFFFFFFFFFFFFFFFFFFFFFFFFFFFFF AND PUSH20 0xFFFFFFFFFFFFFFFFFFFFFFFFFFFFFFFFFFFFFFFF AND DUP2 MSTORE PUSH1 0x20 ADD SWAP1 DUP2 MSTORE PUSH1 0x20 ADD PUSH0 KECCAK256 PUSH0 PUSH2 0x100 EXP DUP2 SLOAD DUP2 PUSH1 0xFF MUL NOT AND SWAP1 DUP4 ISZERO ISZERO MUL OR SWAP1 SSTORE POP DUP1 ISZERO PUSH2 0x6A00 JUMPI PUSH1 0x9 PUSH0 SWAP1 SLOAD SWAP1 PUSH2 0x100 EXP SWAP1 DIV PUSH20 0xFFFFFFFFFFFFFFFFFFFFFFFFFFFFFFFFFFFFFFFF AND PUSH20 0xFFFFFFFFFFFFFFFFFFFFFFFFFFFFFFFFFFFFFFFF AND PUSH4 0x483F7A0 DUP4 PUSH1 0x1 PUSH1 0x40 MLOAD DUP4 PUSH4 0xFFFFFFFF AND PUSH1 0xE0 SHL DUP2 MSTORE PUSH1 0x4 ADD PUSH2 0x69D2 SWAP3 SWAP2 SWAP1 PUSH2 0x802F JUMP JUMPDEST PUSH0 PUSH1 0x40 MLOAD DUP1 DUP4 SUB DUP2 PUSH0 DUP8 DUP1 EXTCODESIZE ISZERO DUP1 ISZERO PUSH2 0x69E9 JUMPI PUSH0 DUP1 REVERT JUMPDEST POP GAS CALL ISZERO DUP1 ISZERO PUSH2 0x69FB JUMPI RETURNDATASIZE PUSH0 DUP1 RETURNDATACOPY RETURNDATASIZE PUSH0 REVERT JUMPDEST POP POP POP POP JUMPDEST DUP1 ISZERO ISZERO DUP3 PUSH20 0xFFFFFFFFFFFFFFFFFFFFFFFFFFFFFFFFFFFFFFFF AND PUSH32 0xFFA9187BF1F18BF477BD0EA1BCBB64E93B6A98132473929EDFCE215CD9B16FAB PUSH1 0x40 MLOAD PUSH1 0x40 MLOAD DUP1 SWAP2 SUB SWAP1 LOG3 POP POP JUMP JUMPDEST PUSH0 PUSH2 0x6A53 PUSH2 0x1E0E JUMP JUMPDEST GT PUSH2 0x6A93 JUMPI PUSH1 0x40 MLOAD PUSH32 0x8C379A000000000000000000000000000000000000000000000000000000000 DUP2 MSTORE PUSH1 0x4 ADD PUSH2 0x6A8A SWAP1 PUSH2 0x993D JUMP JUMPDEST PUSH1 0x40 MLOAD DUP1 SWAP2 SUB SWAP1 REVERT JUMPDEST PUSH0 DUP2 GT ISZERO PUSH2 0x6B40 JUMPI PUSH2 0x6AA3 PUSH2 0x1E0E JUMP JUMPDEST PUSH17 0x100000000000000000000000000000000 DUP3 PUSH2 0x6AC0 SWAP2 SWAP1 PUSH2 0x845D JUMP JUMPDEST PUSH2 0x6ACA SWAP2 SWAP1 PUSH2 0x8515 JUMP JUMPDEST PUSH1 0x28 SLOAD PUSH2 0x6AD7 SWAP2 SWAP1 PUSH2 0x8545 JUMP JUMPDEST PUSH1 0x28 DUP2 SWAP1 SSTORE POP CALLER PUSH20 0xFFFFFFFFFFFFFFFFFFFFFFFFFFFFFFFFFFFFFFFF AND PUSH32 0xA493A9229478C3FCD73F66D2CDEB7F94FD0F341DA924D1054236D78454116511 DUP3 PUSH1 0x40 MLOAD PUSH2 0x6B23 SWAP2 SWAP1 PUSH2 0x753C JUMP JUMPDEST PUSH1 0x40 MLOAD DUP1 SWAP2 SUB SWAP1 LOG2 DUP1 PUSH1 0x2B SLOAD PUSH2 0x6B39 SWAP2 SWAP1 PUSH2 0x8545 JUMP JUMPDEST PUSH1 0x2B DUP2 SWAP1 SSTORE POP JUMPDEST POP JUMP JUMPDEST PUSH0 PUSH1 0x2 DUP3 PUSH2 0x6B51 SWAP2 SWAP1 PUSH2 0x8515 JUMP JUMPDEST SWAP1 POP PUSH0 DUP2 DUP4 PUSH2 0x6B60 SWAP2 SWAP1 PUSH2 0x8F3C JUMP JUMPDEST SWAP1 POP PUSH0 SELFBALANCE SWAP1 POP PUSH2 0x6B6F DUP3 PUSH2 0x6FC4 JUMP JUMPDEST PUSH0 DUP2 SELFBALANCE PUSH2 0x6B7C SWAP2 SWAP1 PUSH2 0x8F3C JUMP JUMPDEST SWAP1 POP PUSH0 DUP2 GT ISZERO PUSH2 0x6B91 JUMPI PUSH2 0x6B90 DUP5 DUP3 PUSH2 0x71FA JUMP JUMPDEST JUMPDEST PUSH0 PUSH1 0x7 PUSH0 SWAP1 SLOAD SWAP1 PUSH2 0x100 EXP SWAP1 DIV PUSH20 0xFFFFFFFFFFFFFFFFFFFFFFFFFFFFFFFFFFFFFFFF AND PUSH20 0xFFFFFFFFFFFFFFFFFFFFFFFFFFFFFFFFFFFFFFFF AND PUSH4 0x70A08231 ADDRESS PUSH1 0x40 MLOAD DUP3 PUSH4 0xFFFFFFFF AND PUSH1 0xE0 SHL DUP2 MSTORE PUSH1 0x4 ADD PUSH2 0x6BEC SWAP2 SWAP1 PUSH2 0x7514 JUMP JUMPDEST PUSH1 0x20 PUSH1 0x40 MLOAD DUP1 DUP4 SUB DUP2 DUP7 GAS STATICCALL ISZERO DUP1 ISZERO PUSH2 0x6C07 JUMPI RETURNDATASIZE PUSH0 DUP1 RETURNDATACOPY RETURNDATASIZE PUSH0 REVERT JUMPDEST POP POP POP POP PUSH1 0x40 MLOAD RETURNDATASIZE PUSH1 0x1F NOT PUSH1 0x1F DUP3 ADD AND DUP3 ADD DUP1 PUSH1 0x40 MSTORE POP DUP2 ADD SWAP1 PUSH2 0x6C2B SWAP2 SWAP1 PUSH2 0x8197 JUMP JUMPDEST SWAP1 POP PUSH0 PUSH1 0x15 PUSH1 0x4 ADD SLOAD PUSH1 0x1B SLOAD PUSH2 0x6C41 SWAP2 SWAP1 PUSH2 0x8F3C JUMP JUMPDEST SWAP1 POP PUSH0 DUP2 PUSH1 0x15 PUSH1 0x1 ADD SLOAD DUP5 PUSH2 0x6C56 SWAP2 SWAP1 PUSH2 0x845D JUMP JUMPDEST PUSH2 0x6C60 SWAP2 SWAP1 PUSH2 0x8515 JUMP JUMPDEST SWAP1 POP PUSH0 DUP2 GT ISZERO PUSH2 0x6D29 JUMPI PUSH1 0x7 PUSH0 SWAP1 SLOAD SWAP1 PUSH2 0x100 EXP SWAP1 DIV PUSH20 0xFFFFFFFFFFFFFFFFFFFFFFFFFFFFFFFFFFFFFFFF AND PUSH20 0xFFFFFFFFFFFFFFFFFFFFFFFFFFFFFFFFFFFFFFFF AND PUSH4 0xA9059CBB PUSH1 0xA PUSH0 SWAP1 SLOAD SWAP1 PUSH2 0x100 EXP SWAP1 DIV PUSH20 0xFFFFFFFFFFFFFFFFFFFFFFFFFFFFFFFFFFFFFFFF AND DUP4 PUSH1 0x40 MLOAD DUP4 PUSH4 0xFFFFFFFF AND PUSH1 0xE0 SHL DUP2 MSTORE PUSH1 0x4 ADD PUSH2 0x6CE7 SWAP3 SWAP2 SWAP1 PUSH2 0x822A JUMP JUMPDEST PUSH1 0x20 PUSH1 0x40 MLOAD DUP1 DUP4 SUB DUP2 PUSH0 DUP8 GAS CALL ISZERO DUP1 ISZERO PUSH2 0x6D03 JUMPI RETURNDATASIZE PUSH0 DUP1 RETURNDATACOPY RETURNDATASIZE PUSH0 REVERT JUMPDEST POP POP POP POP PUSH1 0x40 MLOAD RETURNDATASIZE PUSH1 0x1F NOT PUSH1 0x1F DUP3 ADD AND DUP3 ADD DUP1 PUSH1 0x40 MSTORE POP DUP2 ADD SWAP1 PUSH2 0x6D27 SWAP2 SWAP1 PUSH2 0x8265 JUMP JUMPDEST POP JUMPDEST PUSH0 DUP3 PUSH1 0x15 PUSH1 0x3 ADD SLOAD DUP6 PUSH2 0x6D3C SWAP2 SWAP1 PUSH2 0x845D JUMP JUMPDEST PUSH2 0x6D46 SWAP2 SWAP1 PUSH2 0x8515 JUMP JUMPDEST SWAP1 POP PUSH0 DUP2 GT ISZERO PUSH2 0x6E0F JUMPI PUSH1 0x7 PUSH0 SWAP1 SLOAD SWAP1 PUSH2 0x100 EXP SWAP1 DIV PUSH20 0xFFFFFFFFFFFFFFFFFFFFFFFFFFFFFFFFFFFFFFFF AND PUSH20 0xFFFFFFFFFFFFFFFFFFFFFFFFFFFFFFFFFFFFFFFF AND PUSH4 0xA9059CBB PUSH1 0xB PUSH0 SWAP1 SLOAD SWAP1 PUSH2 0x100 EXP SWAP1 DIV PUSH20 0xFFFFFFFFFFFFFFFFFFFFFFFFFFFFFFFFFFFFFFFF AND DUP4 PUSH1 0x40 MLOAD DUP4 PUSH4 0xFFFFFFFF AND PUSH1 0xE0 SHL DUP2 MSTORE PUSH1 0x4 ADD PUSH2 0x6DCD SWAP3 SWAP2 SWAP1 PUSH2 0x822A JUMP JUMPDEST PUSH1 0x20 PUSH1 0x40 MLOAD DUP1 DUP4 SUB DUP2 PUSH0 DUP8 GAS CALL ISZERO DUP1 ISZERO PUSH2 0x6DE9 JUMPI RETURNDATASIZE PUSH0 DUP1 RETURNDATACOPY RETURNDATASIZE PUSH0 REVERT JUMPDEST POP POP POP POP PUSH1 0x40 MLOAD RETURNDATASIZE PUSH1 0x1F NOT PUSH1 0x1F DUP3 ADD AND DUP3 ADD DUP1 PUSH1 0x40 MSTORE POP DUP2 ADD SWAP1 PUSH2 0x6E0D SWAP2 SWAP1 PUSH2 0x8265 JUMP JUMPDEST POP JUMPDEST PUSH0 DUP4 PUSH1 0x15 PUSH0 ADD SLOAD DUP7 PUSH2 0x6E21 SWAP2 SWAP1 PUSH2 0x845D JUMP JUMPDEST PUSH2 0x6E2B SWAP2 SWAP1 PUSH2 0x8515 JUMP JUMPDEST SWAP1 POP PUSH0 DUP2 GT ISZERO PUSH2 0x6FB3 JUMPI PUSH0 PUSH1 0x7 PUSH0 SWAP1 SLOAD SWAP1 PUSH2 0x100 EXP SWAP1 DIV PUSH20 0xFFFFFFFFFFFFFFFFFFFFFFFFFFFFFFFFFFFFFFFF AND PUSH20 0xFFFFFFFFFFFFFFFFFFFFFFFFFFFFFFFFFFFFFFFF AND PUSH4 0xA9059CBB PUSH1 0x9 PUSH0 SWAP1 SLOAD SWAP1 PUSH2 0x100 EXP SWAP1 DIV PUSH20 0xFFFFFFFFFFFFFFFFFFFFFFFFFFFFFFFFFFFFFFFF AND DUP5 PUSH1 0x40 MLOAD DUP4 PUSH4 0xFFFFFFFF AND PUSH1 0xE0 SHL DUP2 MSTORE PUSH1 0x4 ADD PUSH2 0x6EB3 SWAP3 SWAP2 SWAP1 PUSH2 0x822A JUMP JUMPDEST PUSH1 0x20 PUSH1 0x40 MLOAD DUP1 DUP4 SUB DUP2 PUSH0 DUP8 GAS CALL ISZERO DUP1 ISZERO PUSH2 0x6ECF JUMPI RETURNDATASIZE PUSH0 DUP1 RETURNDATACOPY RETURNDATASIZE PUSH0 REVERT JUMPDEST POP POP POP POP PUSH1 0x40 MLOAD RETURNDATASIZE PUSH1 0x1F NOT PUSH1 0x1F DUP3 ADD AND DUP3 ADD DUP1 PUSH1 0x40 MSTORE POP DUP2 ADD SWAP1 PUSH2 0x6EF3 SWAP2 SWAP1 PUSH2 0x8265 JUMP JUMPDEST SWAP1 POP DUP1 ISZERO PUSH2 0x6FB1 JUMPI PUSH1 0x9 PUSH0 SWAP1 SLOAD SWAP1 PUSH2 0x100 EXP SWAP1 DIV PUSH20 0xFFFFFFFFFFFFFFFFFFFFFFFFFFFFFFFFFFFFFFFF AND PUSH20 0xFFFFFFFFFFFFFFFFFFFFFFFFFFFFFFFFFFFFFFFF AND PUSH4 0x6A474002 PUSH1 0x40 MLOAD DUP2 PUSH4 0xFFFFFFFF AND PUSH1 0xE0 SHL DUP2 MSTORE PUSH1 0x4 ADD PUSH0 PUSH1 0x40 MLOAD DUP1 DUP4 SUB DUP2 PUSH0 DUP8 DUP1 EXTCODESIZE ISZERO DUP1 ISZERO PUSH2 0x6F61 JUMPI PUSH0 DUP1 REVERT JUMPDEST POP GAS CALL ISZERO DUP1 ISZERO PUSH2 0x6F73 JUMPI RETURNDATASIZE PUSH0 DUP1 RETURNDATACOPY RETURNDATASIZE PUSH0 REVERT JUMPDEST POP POP POP POP PUSH32 0x80195CC573B02CC48460CBCA6E6E4CC85DDB91959D946E1C3025EA3D87942DC3 DUP12 DUP4 PUSH1 0x40 MLOAD PUSH2 0x6FA8 SWAP3 SWAP2 SWAP1 PUSH2 0x995B JUMP JUMPDEST PUSH1 0x40 MLOAD DUP1 SWAP2 SUB SWAP1 LOG1 JUMPDEST POP JUMPDEST POP POP POP POP POP POP POP POP POP POP JUMP JUMPDEST POP POP POP JUMP JUMPDEST PUSH0 PUSH1 0x2 PUSH8 0xFFFFFFFFFFFFFFFF DUP2 GT ISZERO PUSH2 0x6FE0 JUMPI PUSH2 0x6FDF PUSH2 0x77BA JUMP JUMPDEST JUMPDEST PUSH1 0x40 MLOAD SWAP1 DUP1 DUP3 MSTORE DUP1 PUSH1 0x20 MUL PUSH1 0x20 ADD DUP3 ADD PUSH1 0x40 MSTORE DUP1 ISZERO PUSH2 0x700E JUMPI DUP2 PUSH1 0x20 ADD PUSH1 0x20 DUP3 MUL DUP1 CALLDATASIZE DUP4 CALLDATACOPY DUP1 DUP3 ADD SWAP2 POP POP SWAP1 POP JUMPDEST POP SWAP1 POP ADDRESS DUP2 PUSH0 DUP2 MLOAD DUP2 LT PUSH2 0x7025 JUMPI PUSH2 0x7024 PUSH2 0x8AA8 JUMP JUMPDEST JUMPDEST PUSH1 0x20 MUL PUSH1 0x20 ADD ADD SWAP1 PUSH20 0xFFFFFFFFFFFFFFFFFFFFFFFFFFFFFFFFFFFFFFFF AND SWAP1 DUP2 PUSH20 0xFFFFFFFFFFFFFFFFFFFFFFFFFFFFFFFFFFFFFFFF AND DUP2 MSTORE POP POP PUSH1 0x6 PUSH0 SWAP1 SLOAD SWAP1 PUSH2 0x100 EXP SWAP1 DIV PUSH20 0xFFFFFFFFFFFFFFFFFFFFFFFFFFFFFFFFFFFFFFFF AND PUSH20 0xFFFFFFFFFFFFFFFFFFFFFFFFFFFFFFFFFFFFFFFF AND PUSH4 0xAD5C4648 PUSH1 0x40 MLOAD DUP2 PUSH4 0xFFFFFFFF AND PUSH1 0xE0 SHL DUP2 MSTORE PUSH1 0x4 ADD PUSH1 0x20 PUSH1 0x40 MLOAD DUP1 DUP4 SUB DUP2 DUP7 GAS STATICCALL ISZERO DUP1 ISZERO PUSH2 0x70C9 JUMPI RETURNDATASIZE PUSH0 DUP1 RETURNDATACOPY RETURNDATASIZE PUSH0 REVERT JUMPDEST POP POP POP POP PUSH1 0x40 MLOAD RETURNDATASIZE PUSH1 0x1F NOT PUSH1 0x1F DUP3 ADD AND DUP3 ADD DUP1 PUSH1 0x40 MSTORE POP DUP2 ADD SWAP1 PUSH2 0x70ED SWAP2 SWAP1 PUSH2 0x9996 JUMP JUMPDEST DUP2 PUSH1 0x1 DUP2 MLOAD DUP2 LT PUSH2 0x7101 JUMPI PUSH2 0x7100 PUSH2 0x8AA8 JUMP JUMPDEST JUMPDEST PUSH1 0x20 MUL PUSH1 0x20 ADD ADD SWAP1 PUSH20 0xFFFFFFFFFFFFFFFFFFFFFFFFFFFFFFFFFFFFFFFF AND SWAP1 DUP2 PUSH20 0xFFFFFFFFFFFFFFFFFFFFFFFFFFFFFFFFFFFFFFFF AND DUP2 MSTORE POP POP PUSH2 0x7167 ADDRESS PUSH1 0x6 PUSH0 SWAP1 SLOAD SWAP1 PUSH2 0x100 EXP SWAP1 DIV PUSH20 0xFFFFFFFFFFFFFFFFFFFFFFFFFFFFFFFFFFFFFFFF AND DUP5 PUSH2 0x5768 JUMP JUMPDEST PUSH1 0x6 PUSH0 SWAP1 SLOAD SWAP1 PUSH2 0x100 EXP SWAP1 DIV PUSH20 0xFFFFFFFFFFFFFFFFFFFFFFFFFFFFFFFFFFFFFFFF AND PUSH20 0xFFFFFFFFFFFFFFFFFFFFFFFFFFFFFFFFFFFFFFFF AND PUSH4 0x791AC947 DUP4 PUSH0 DUP5 ADDRESS TIMESTAMP PUSH1 0x40 MLOAD DUP7 PUSH4 0xFFFFFFFF AND PUSH1 0xE0 SHL DUP2 MSTORE PUSH1 0x4 ADD PUSH2 0x71C9 SWAP6 SWAP5 SWAP4 SWAP3 SWAP2 SWAP1 PUSH2 0x9A7B JUMP JUMPDEST PUSH0 PUSH1 0x40 MLOAD DUP1 DUP4 SUB DUP2 PUSH0 DUP8 DUP1 EXTCODESIZE ISZERO DUP1 ISZERO PUSH2 0x71E0 JUMPI PUSH0 DUP1 REVERT JUMPDEST POP GAS CALL ISZERO DUP1 ISZERO PUSH2 0x71F2 JUMPI RETURNDATASIZE PUSH0 DUP1 RETURNDATACOPY RETURNDATASIZE PUSH0 REVERT JUMPDEST POP POP POP POP POP POP JUMP JUMPDEST PUSH2 0x7226 ADDRESS PUSH1 0x6 PUSH0 SWAP1 SLOAD SWAP1 PUSH2 0x100 EXP SWAP1 DIV PUSH20 0xFFFFFFFFFFFFFFFFFFFFFFFFFFFFFFFFFFFFFFFF AND DUP5 PUSH2 0x5768 JUMP JUMPDEST PUSH1 0x6 PUSH0 SWAP1 SLOAD SWAP1 PUSH2 0x100 EXP SWAP1 DIV PUSH20 0xFFFFFFFFFFFFFFFFFFFFFFFFFFFFFFFFFFFFFFFF AND PUSH20 0xFFFFFFFFFFFFFFFFFFFFFFFFFFFFFFFFFFFFFFFF AND PUSH4 0xF305D719 DUP3 ADDRESS DUP6 PUSH0 DUP1 ADDRESS TIMESTAMP PUSH1 0x40 MLOAD DUP9 PUSH4 0xFFFFFFFF AND PUSH1 0xE0 SHL DUP2 MSTORE PUSH1 0x4 ADD PUSH2 0x728B SWAP7 SWAP6 SWAP5 SWAP4 SWAP3 SWAP2 SWAP1 PUSH2 0x9AD3 JUMP JUMPDEST PUSH1 0x60 PUSH1 0x40 MLOAD DUP1 DUP4 SUB DUP2 DUP6 DUP9 GAS CALL ISZERO DUP1 ISZERO PUSH2 0x72A7 JUMPI RETURNDATASIZE PUSH0 DUP1 RETURNDATACOPY RETURNDATASIZE PUSH0 REVERT JUMPDEST POP POP POP POP POP PUSH1 0x40 MLOAD RETURNDATASIZE PUSH1 0x1F NOT PUSH1 0x1F DUP3 ADD AND DUP3 ADD DUP1 PUSH1 0x40 MSTORE POP DUP2 ADD SWAP1 PUSH2 0x72CC SWAP2 SWAP1 PUSH2 0x9B32 JUMP JUMPDEST POP POP POP POP POP JUMP JUMPDEST PUSH0 PUSH1 0x40 MLOAD SWAP1 POP SWAP1 JUMP JUMPDEST PUSH0 DUP1 REVERT JUMPDEST PUSH0 DUP1 REVERT JUMPDEST PUSH0 PUSH20 0xFFFFFFFFFFFFFFFFFFFFFFFFFFFFFFFFFFFFFFFF DUP3 AND SWAP1 POP SWAP2 SWAP1 POP JUMP JUMPDEST PUSH0 PUSH2 0x730D DUP3 PUSH2 0x72E4 JUMP JUMPDEST SWAP1 POP SWAP2 SWAP1 POP JUMP JUMPDEST PUSH2 0x731D DUP2 PUSH2 0x7303 JUMP JUMPDEST DUP2 EQ PUSH2 0x7327 JUMPI PUSH0 DUP1 REVERT JUMPDEST POP JUMP JUMPDEST PUSH0 DUP2 CALLDATALOAD SWAP1 POP PUSH2 0x7338 DUP2 PUSH2 0x7314 JUMP JUMPDEST SWAP3 SWAP2 POP POP JUMP JUMPDEST PUSH0 PUSH1 0x20 DUP3 DUP5 SUB SLT ISZERO PUSH2 0x7353 JUMPI PUSH2 0x7352 PUSH2 0x72DC JUMP JUMPDEST JUMPDEST PUSH0 PUSH2 0x7360 DUP5 DUP3 DUP6 ADD PUSH2 0x732A JUMP JUMPDEST SWAP2 POP POP SWAP3 SWAP2 POP POP JUMP JUMPDEST PUSH0 DUP2 ISZERO ISZERO SWAP1 POP SWAP2 SWAP1 POP JUMP JUMPDEST PUSH2 0x737D DUP2 PUSH2 0x7369 JUMP JUMPDEST DUP2 EQ PUSH2 0x7387 JUMPI PUSH0 DUP1 REVERT JUMPDEST POP JUMP JUMPDEST PUSH0 DUP2 CALLDATALOAD SWAP1 POP PUSH2 0x7398 DUP2 PUSH2 0x7374 JUMP JUMPDEST SWAP3 SWAP2 POP POP JUMP JUMPDEST PUSH0 DUP1 PUSH1 0x40 DUP4 DUP6 SUB SLT ISZERO PUSH2 0x73B4 JUMPI PUSH2 0x73B3 PUSH2 0x72DC JUMP JUMPDEST JUMPDEST PUSH0 PUSH2 0x73C1 DUP6 DUP3 DUP7 ADD PUSH2 0x732A JUMP JUMPDEST SWAP3 POP POP PUSH1 0x20 PUSH2 0x73D2 DUP6 DUP3 DUP7 ADD PUSH2 0x738A JUMP JUMPDEST SWAP2 POP POP SWAP3 POP SWAP3 SWAP1 POP JUMP JUMPDEST PUSH0 DUP2 MLOAD SWAP1 POP SWAP2 SWAP1 POP JUMP JUMPDEST PUSH0 DUP3 DUP3 MSTORE PUSH1 0x20 DUP3 ADD SWAP1 POP SWAP3 SWAP2 POP POP JUMP JUMPDEST DUP3 DUP2 DUP4 MCOPY PUSH0 DUP4 DUP4 ADD MSTORE POP POP POP JUMP JUMPDEST PUSH0 PUSH1 0x1F NOT PUSH1 0x1F DUP4 ADD AND SWAP1 POP SWAP2 SWAP1 POP JUMP JUMPDEST PUSH0 PUSH2 0x741E DUP3 PUSH2 0x73DC JUMP JUMPDEST PUSH2 0x7428 DUP2 DUP6 PUSH2 0x73E6 JUMP JUMPDEST SWAP4 POP PUSH2 0x7438 DUP2 DUP6 PUSH1 0x20 DUP7 ADD PUSH2 0x73F6 JUMP JUMPDEST PUSH2 0x7441 DUP2 PUSH2 0x7404 JUMP JUMPDEST DUP5 ADD SWAP2 POP POP SWAP3 SWAP2 POP POP JUMP JUMPDEST PUSH0 PUSH1 0x20 DUP3 ADD SWAP1 POP DUP2 DUP2 SUB PUSH0 DUP4 ADD MSTORE PUSH2 0x7464 DUP2 DUP5 PUSH2 0x7414 JUMP JUMPDEST SWAP1 POP SWAP3 SWAP2 POP POP JUMP JUMPDEST PUSH0 DUP2 SWAP1 POP SWAP2 SWAP1 POP JUMP JUMPDEST PUSH2 0x747E DUP2 PUSH2 0x746C JUMP JUMPDEST DUP2 EQ PUSH2 0x7488 JUMPI PUSH0 DUP1 REVERT JUMPDEST POP JUMP JUMPDEST PUSH0 DUP2 CALLDATALOAD SWAP1 POP PUSH2 0x7499 DUP2 PUSH2 0x7475 JUMP JUMPDEST SWAP3 SWAP2 POP POP JUMP JUMPDEST PUSH0 DUP1 PUSH1 0x40 DUP4 DUP6 SUB SLT ISZERO PUSH2 0x74B5 JUMPI PUSH2 0x74B4 PUSH2 0x72DC JUMP JUMPDEST JUMPDEST PUSH0 PUSH2 0x74C2 DUP6 DUP3 DUP7 ADD PUSH2 0x732A JUMP JUMPDEST SWAP3 POP POP PUSH1 0x20 PUSH2 0x74D3 DUP6 DUP3 DUP7 ADD PUSH2 0x748B JUMP JUMPDEST SWAP2 POP POP SWAP3 POP SWAP3 SWAP1 POP JUMP JUMPDEST PUSH2 0x74E6 DUP2 PUSH2 0x7369 JUMP JUMPDEST DUP3 MSTORE POP POP JUMP JUMPDEST PUSH0 PUSH1 0x20 DUP3 ADD SWAP1 POP PUSH2 0x74FF PUSH0 DUP4 ADD DUP5 PUSH2 0x74DD JUMP JUMPDEST SWAP3 SWAP2 POP POP JUMP JUMPDEST PUSH2 0x750E DUP2 PUSH2 0x7303 JUMP JUMPDEST DUP3 MSTORE POP POP JUMP JUMPDEST PUSH0 PUSH1 0x20 DUP3 ADD SWAP1 POP PUSH2 0x7527 PUSH0 DUP4 ADD DUP5 PUSH2 0x7505 JUMP JUMPDEST SWAP3 SWAP2 POP POP JUMP JUMPDEST PUSH2 0x7536 DUP2 PUSH2 0x746C JUMP JUMPDEST DUP3 MSTORE POP POP JUMP JUMPDEST PUSH0 PUSH1 0x20 DUP3 ADD SWAP1 POP PUSH2 0x754F PUSH0 DUP4 ADD DUP5 PUSH2 0x752D JUMP JUMPDEST SWAP3 SWAP2 POP POP JUMP JUMPDEST PUSH0 DUP2 SWAP1 POP SWAP2 SWAP1 POP JUMP JUMPDEST PUSH2 0x7567 DUP2 PUSH2 0x7555 JUMP JUMPDEST DUP2 EQ PUSH2 0x7571 JUMPI PUSH0 DUP1 REVERT JUMPDEST POP JUMP JUMPDEST PUSH0 DUP2 CALLDATALOAD SWAP1 POP PUSH2 0x7582 DUP2 PUSH2 0x755E JUMP JUMPDEST SWAP3 SWAP2 POP POP JUMP JUMPDEST PUSH0 PUSH1 0x20 DUP3 DUP5 SUB SLT ISZERO PUSH2 0x759D JUMPI PUSH2 0x759C PUSH2 0x72DC JUMP JUMPDEST JUMPDEST PUSH0 PUSH2 0x75AA DUP5 DUP3 DUP6 ADD PUSH2 0x7574 JUMP JUMPDEST SWAP2 POP POP SWAP3 SWAP2 POP POP JUMP JUMPDEST PUSH0 DUP1 PUSH0 PUSH1 0x60 DUP5 DUP7 SUB SLT ISZERO PUSH2 0x75CA JUMPI PUSH2 0x75C9 PUSH2 0x72DC JUMP JUMPDEST JUMPDEST PUSH0 PUSH2 0x75D7 DUP7 DUP3 DUP8 ADD PUSH2 0x732A JUMP JUMPDEST SWAP4 POP POP PUSH1 0x20 PUSH2 0x75E8 DUP7 DUP3 DUP8 ADD PUSH2 0x732A JUMP JUMPDEST SWAP3 POP POP PUSH1 0x40 PUSH2 0x75F9 DUP7 DUP3 DUP8 ADD PUSH2 0x748B JUMP JUMPDEST SWAP2 POP POP SWAP3 POP SWAP3 POP SWAP3 JUMP JUMPDEST PUSH0 DUP2 SWAP1 POP SWAP2 SWAP1 POP JUMP JUMPDEST PUSH0 PUSH2 0x7626 PUSH2 0x7621 PUSH2 0x761C DUP5 PUSH2 0x72E4 JUMP JUMPDEST PUSH2 0x7603 JUMP JUMPDEST PUSH2 0x72E4 JUMP JUMPDEST SWAP1 POP SWAP2 SWAP1 POP JUMP JUMPDEST PUSH0 PUSH2 0x7637 DUP3 PUSH2 0x760C JUMP JUMPDEST SWAP1 POP SWAP2 SWAP1 POP JUMP JUMPDEST PUSH0 PUSH2 0x7648 DUP3 PUSH2 0x762D JUMP JUMPDEST SWAP1 POP SWAP2 SWAP1 POP JUMP JUMPDEST PUSH2 0x7658 DUP2 PUSH2 0x763E JUMP JUMPDEST DUP3 MSTORE POP POP JUMP JUMPDEST PUSH0 PUSH1 0x20 DUP3 ADD SWAP1 POP PUSH2 0x7671 PUSH0 DUP4 ADD DUP5 PUSH2 0x764F JUMP JUMPDEST SWAP3 SWAP2 POP POP JUMP JUMPDEST PUSH0 PUSH1 0xFF DUP3 AND SWAP1 POP SWAP2 SWAP1 POP JUMP JUMPDEST PUSH2 0x768C DUP2 PUSH2 0x7677 JUMP JUMPDEST DUP3 MSTORE POP POP JUMP JUMPDEST PUSH0 PUSH1 0x20 DUP3 ADD SWAP1 POP PUSH2 0x76A5 PUSH0 DUP4 ADD DUP5 PUSH2 0x7683 JUMP JUMPDEST SWAP3 SWAP2 POP POP JUMP JUMPDEST PUSH0 PUSH1 0x20 DUP3 DUP5 SUB SLT ISZERO PUSH2 0x76C0 JUMPI PUSH2 0x76BF PUSH2 0x72DC JUMP JUMPDEST JUMPDEST PUSH0 PUSH2 0x76CD DUP5 DUP3 DUP6 ADD PUSH2 0x738A JUMP JUMPDEST SWAP2 POP POP SWAP3 SWAP2 POP POP JUMP JUMPDEST PUSH0 DUP1 PUSH0 DUP1 PUSH0 PUSH1 0xA0 DUP7 DUP9 SUB SLT ISZERO PUSH2 0x76EF JUMPI PUSH2 0x76EE PUSH2 0x72DC JUMP JUMPDEST JUMPDEST PUSH0 PUSH2 0x76FC DUP9 DUP3 DUP10 ADD PUSH2 0x748B JUMP JUMPDEST SWAP6 POP POP PUSH1 0x20 PUSH2 0x770D DUP9 DUP3 DUP10 ADD PUSH2 0x748B JUMP JUMPDEST SWAP5 POP POP PUSH1 0x40 PUSH2 0x771E DUP9 DUP3 DUP10 ADD PUSH2 0x748B JUMP JUMPDEST SWAP4 POP POP PUSH1 0x60 PUSH2 0x772F DUP9 DUP3 DUP10 ADD PUSH2 0x748B JUMP JUMPDEST SWAP3 POP POP PUSH1 0x80 PUSH2 0x7740 DUP9 DUP3 DUP10 ADD PUSH2 0x748B JUMP JUMPDEST SWAP2 POP POP SWAP3 SWAP6 POP SWAP3 SWAP6 SWAP1 SWAP4 POP JUMP JUMPDEST PUSH0 DUP1 REVERT JUMPDEST PUSH0 PUSH1 0xA0 DUP3 DUP5 SUB SLT ISZERO PUSH2 0x7766 JUMPI PUSH2 0x7765 PUSH2 0x774D JUMP JUMPDEST JUMPDEST DUP2 SWAP1 POP SWAP3 SWAP2 POP POP JUMP JUMPDEST PUSH0 PUSH1 0x20 DUP3 DUP5 SUB SLT ISZERO PUSH2 0x7784 JUMPI PUSH2 0x7783 PUSH2 0x72DC JUMP JUMPDEST JUMPDEST PUSH0 DUP3 ADD CALLDATALOAD PUSH8 0xFFFFFFFFFFFFFFFF DUP2 GT ISZERO PUSH2 0x77A1 JUMPI PUSH2 0x77A0 PUSH2 0x72E0 JUMP JUMPDEST JUMPDEST PUSH2 0x77AD DUP5 DUP3 DUP6 ADD PUSH2 0x7751 JUMP JUMPDEST SWAP2 POP POP SWAP3 SWAP2 POP POP JUMP JUMPDEST PUSH0 DUP1 REVERT JUMPDEST PUSH32 0x4E487B7100000000000000000000000000000000000000000000000000000000 PUSH0 MSTORE PUSH1 0x41 PUSH1 0x4 MSTORE PUSH1 0x24 PUSH0 REVERT JUMPDEST PUSH2 0x77F0 DUP3 PUSH2 0x7404 JUMP JUMPDEST DUP2 ADD DUP2 DUP2 LT PUSH8 0xFFFFFFFFFFFFFFFF DUP3 GT OR ISZERO PUSH2 0x780F JUMPI PUSH2 0x780E PUSH2 0x77BA JUMP JUMPDEST JUMPDEST DUP1 PUSH1 0x40 MSTORE POP POP POP JUMP JUMPDEST PUSH0 PUSH2 0x7821 PUSH2 0x72D3 JUMP JUMPDEST SWAP1 POP PUSH2 0x782D DUP3 DUP3 PUSH2 0x77E7 JUMP JUMPDEST SWAP2 SWAP1 POP JUMP JUMPDEST PUSH0 PUSH8 0xFFFFFFFFFFFFFFFF DUP3 GT ISZERO PUSH2 0x784C JUMPI PUSH2 0x784B PUSH2 0x77BA JUMP JUMPDEST JUMPDEST PUSH1 0x20 DUP3 MUL SWAP1 POP PUSH1 0x20 DUP2 ADD SWAP1 POP SWAP2 SWAP1 POP JUMP JUMPDEST PUSH0 DUP1 REVERT JUMPDEST PUSH0 PUSH2 0x7873 PUSH2 0x786E DUP5 PUSH2 0x7832 JUMP JUMPDEST PUSH2 0x7818 JUMP JUMPDEST SWAP1 POP DUP1 DUP4 DUP3 MSTORE PUSH1 0x20 DUP3 ADD SWAP1 POP PUSH1 0x20 DUP5 MUL DUP4 ADD DUP6 DUP2 GT ISZERO PUSH2 0x7896 JUMPI PUSH2 0x7895 PUSH2 0x785D JUMP JUMPDEST JUMPDEST DUP4 JUMPDEST DUP2 DUP2 LT ISZERO PUSH2 0x78BF JUMPI DUP1 PUSH2 0x78AB DUP9 DUP3 PUSH2 0x732A JUMP JUMPDEST DUP5 MSTORE PUSH1 0x20 DUP5 ADD SWAP4 POP POP PUSH1 0x20 DUP2 ADD SWAP1 POP PUSH2 0x7898 JUMP JUMPDEST POP POP POP SWAP4 SWAP3 POP POP POP JUMP JUMPDEST PUSH0 DUP3 PUSH1 0x1F DUP4 ADD SLT PUSH2 0x78DD JUMPI PUSH2 0x78DC PUSH2 0x77B6 JUMP JUMPDEST JUMPDEST DUP2 CALLDATALOAD PUSH2 0x78ED DUP5 DUP3 PUSH1 0x20 DUP7 ADD PUSH2 0x7861 JUMP JUMPDEST SWAP2 POP POP SWAP3 SWAP2 POP POP JUMP JUMPDEST PUSH0 PUSH8 0xFFFFFFFFFFFFFFFF DUP3 GT ISZERO PUSH2 0x7910 JUMPI PUSH2 0x790F PUSH2 0x77BA JUMP JUMPDEST JUMPDEST PUSH1 0x20 DUP3 MUL SWAP1 POP PUSH1 0x20 DUP2 ADD SWAP1 POP SWAP2 SWAP1 POP JUMP JUMPDEST PUSH0 PUSH2 0x7933 PUSH2 0x792E DUP5 PUSH2 0x78F6 JUMP JUMPDEST PUSH2 0x7818 JUMP JUMPDEST SWAP1 POP DUP1 DUP4 DUP3 MSTORE PUSH1 0x20 DUP3 ADD SWAP1 POP PUSH1 0x20 DUP5 MUL DUP4 ADD DUP6 DUP2 GT ISZERO PUSH2 0x7956 JUMPI PUSH2 0x7955 PUSH2 0x785D JUMP JUMPDEST JUMPDEST DUP4 JUMPDEST DUP2 DUP2 LT ISZERO PUSH2 0x797F JUMPI DUP1 PUSH2 0x796B DUP9 DUP3 PUSH2 0x748B JUMP JUMPDEST DUP5 MSTORE PUSH1 0x20 DUP5 ADD SWAP4 POP POP PUSH1 0x20 DUP2 ADD SWAP1 POP PUSH2 0x7958 JUMP JUMPDEST POP POP POP SWAP4 SWAP3 POP POP POP JUMP JUMPDEST PUSH0 DUP3 PUSH1 0x1F DUP4 ADD SLT PUSH2 0x799D JUMPI PUSH2 0x799C PUSH2 0x77B6 JUMP JUMPDEST JUMPDEST DUP2 CALLDATALOAD PUSH2 0x79AD DUP5 DUP3 PUSH1 0x20 DUP7 ADD PUSH2 0x7921 JUMP JUMPDEST SWAP2 POP POP SWAP3 SWAP2 POP POP JUMP JUMPDEST PUSH0 DUP1 PUSH1 0x40 DUP4 DUP6 SUB SLT ISZERO PUSH2 0x79CC JUMPI PUSH2 0x79CB PUSH2 0x72DC JUMP JUMPDEST JUMPDEST PUSH0 DUP4 ADD CALLDATALOAD PUSH8 0xFFFFFFFFFFFFFFFF DUP2 GT ISZERO PUSH2 0x79E9 JUMPI PUSH2 0x79E8 PUSH2 0x72E0 JUMP JUMPDEST JUMPDEST PUSH2 0x79F5 DUP6 DUP3 DUP7 ADD PUSH2 0x78C9 JUMP JUMPDEST SWAP3 POP POP PUSH1 0x20 DUP4 ADD CALLDATALOAD PUSH8 0xFFFFFFFFFFFFFFFF DUP2 GT ISZERO PUSH2 0x7A16 JUMPI PUSH2 0x7A15 PUSH2 0x72E0 JUMP JUMPDEST JUMPDEST PUSH2 0x7A22 DUP6 DUP3 DUP7 ADD PUSH2 0x7989 JUMP JUMPDEST SWAP2 POP POP SWAP3 POP SWAP3 SWAP1 POP JUMP JUMPDEST PUSH0 DUP1 PUSH1 0x40 DUP4 DUP6 SUB SLT ISZERO PUSH2 0x7A42 JUMPI PUSH2 0x7A41 PUSH2 0x72DC JUMP JUMPDEST JUMPDEST PUSH0 PUSH2 0x7A4F DUP6 DUP3 DUP7 ADD PUSH2 0x748B JUMP JUMPDEST SWAP3 POP POP PUSH1 0x20 PUSH2 0x7A60 DUP6 DUP3 DUP7 ADD PUSH2 0x748B JUMP JUMPDEST SWAP2 POP POP SWAP3 POP SWAP3 SWAP1 POP JUMP JUMPDEST PUSH0 PUSH2 0x7A74 DUP3 PUSH2 0x72E4 JUMP JUMPDEST SWAP1 POP SWAP2 SWAP1 POP JUMP JUMPDEST PUSH2 0x7A84 DUP2 PUSH2 0x7A6A JUMP JUMPDEST DUP2 EQ PUSH2 0x7A8E JUMPI PUSH0 DUP1 REVERT JUMPDEST POP JUMP JUMPDEST PUSH0 DUP2 CALLDATALOAD SWAP1 POP PUSH2 0x7A9F DUP2 PUSH2 0x7A7B JUMP JUMPDEST SWAP3 SWAP2 POP POP JUMP JUMPDEST PUSH0 PUSH1 0x20 DUP3 DUP5 SUB SLT ISZERO PUSH2 0x7ABA JUMPI PUSH2 0x7AB9 PUSH2 0x72DC JUMP JUMPDEST JUMPDEST PUSH0 PUSH2 0x7AC7 DUP5 DUP3 DUP6 ADD PUSH2 0x7A91 JUMP JUMPDEST SWAP2 POP POP SWAP3 SWAP2 POP POP JUMP JUMPDEST PUSH0 PUSH1 0xA0 DUP3 ADD SWAP1 POP PUSH2 0x7AE3 PUSH0 DUP4 ADD DUP9 PUSH2 0x752D JUMP JUMPDEST PUSH2 0x7AF0 PUSH1 0x20 DUP4 ADD DUP8 PUSH2 0x752D JUMP JUMPDEST PUSH2 0x7AFD PUSH1 0x40 DUP4 ADD DUP7 PUSH2 0x752D JUMP JUMPDEST PUSH2 0x7B0A PUSH1 0x60 DUP4 ADD DUP6 PUSH2 0x752D JUMP JUMPDEST PUSH2 0x7B17 PUSH1 0x80 DUP4 ADD DUP5 PUSH2 0x752D JUMP JUMPDEST SWAP7 SWAP6 POP POP POP POP POP POP JUMP JUMPDEST PUSH0 PUSH1 0x20 DUP3 DUP5 SUB SLT ISZERO PUSH2 0x7B36 JUMPI PUSH2 0x7B35 PUSH2 0x72DC JUMP JUMPDEST JUMPDEST PUSH0 PUSH2 0x7B43 DUP5 DUP3 DUP6 ADD PUSH2 0x748B JUMP JUMPDEST SWAP2 POP POP SWAP3 SWAP2 POP POP JUMP JUMPDEST PUSH2 0x7B55 DUP2 PUSH2 0x7555 JUMP JUMPDEST DUP3 MSTORE POP POP JUMP JUMPDEST PUSH0 PUSH1 0x80 DUP3 ADD SWAP1 POP PUSH2 0x7B6E PUSH0 DUP4 ADD DUP8 PUSH2 0x752D JUMP JUMPDEST PUSH2 0x7B7B PUSH1 0x20 DUP4 ADD DUP7 PUSH2 0x752D JUMP JUMPDEST PUSH2 0x7B88 PUSH1 0x40 DUP4 ADD DUP6 PUSH2 0x752D JUMP JUMPDEST PUSH2 0x7B95 PUSH1 0x60 DUP4 ADD DUP5 PUSH2 0x7B4C JUMP JUMPDEST SWAP6 SWAP5 POP POP POP POP POP JUMP JUMPDEST PUSH0 DUP1 REVERT JUMPDEST PUSH0 DUP1 DUP4 PUSH1 0x1F DUP5 ADD SLT PUSH2 0x7BB7 JUMPI PUSH2 0x7BB6 PUSH2 0x77B6 JUMP JUMPDEST JUMPDEST DUP3 CALLDATALOAD SWAP1 POP PUSH8 0xFFFFFFFFFFFFFFFF DUP2 GT ISZERO PUSH2 0x7BD4 JUMPI PUSH2 0x7BD3 PUSH2 0x7B9E JUMP JUMPDEST JUMPDEST PUSH1 0x20 DUP4 ADD SWAP2 POP DUP4 PUSH1 0x1 DUP3 MUL DUP4 ADD GT ISZERO PUSH2 0x7BF0 JUMPI PUSH2 0x7BEF PUSH2 0x785D JUMP JUMPDEST JUMPDEST SWAP3 POP SWAP3 SWAP1 POP JUMP JUMPDEST PUSH0 DUP1 PUSH0 PUSH1 0x40 DUP5 DUP7 SUB SLT ISZERO PUSH2 0x7C0E JUMPI PUSH2 0x7C0D PUSH2 0x72DC JUMP JUMPDEST JUMPDEST PUSH0 PUSH2 0x7C1B DUP7 DUP3 DUP8 ADD PUSH2 0x748B JUMP JUMPDEST SWAP4 POP POP PUSH1 0x20 DUP5 ADD CALLDATALOAD PUSH8 0xFFFFFFFFFFFFFFFF DUP2 GT ISZERO PUSH2 0x7C3C JUMPI PUSH2 0x7C3B PUSH2 0x72E0 JUMP JUMPDEST JUMPDEST PUSH2 0x7C48 DUP7 DUP3 DUP8 ADD PUSH2 0x7BA2 JUMP JUMPDEST SWAP3 POP SWAP3 POP POP SWAP3 POP SWAP3 POP SWAP3 JUMP JUMPDEST PUSH0 DUP1 PUSH0 DUP1 PUSH1 0x60 DUP6 DUP8 SUB SLT ISZERO PUSH2 0x7C6C JUMPI PUSH2 0x7C6B PUSH2 0x72DC JUMP JUMPDEST JUMPDEST PUSH0 PUSH2 0x7C79 DUP8 DUP3 DUP9 ADD PUSH2 0x748B JUMP JUMPDEST SWAP5 POP POP PUSH1 0x20 PUSH2 0x7C8A DUP8 DUP3 DUP9 ADD PUSH2 0x7574 JUMP JUMPDEST SWAP4 POP POP PUSH1 0x40 DUP6 ADD CALLDATALOAD PUSH8 0xFFFFFFFFFFFFFFFF DUP2 GT ISZERO PUSH2 0x7CAB JUMPI PUSH2 0x7CAA PUSH2 0x72E0 JUMP JUMPDEST JUMPDEST PUSH2 0x7CB7 DUP8 DUP3 DUP9 ADD PUSH2 0x7BA2 JUMP JUMPDEST SWAP3 POP SWAP3 POP POP SWAP3 SWAP6 SWAP2 SWAP5 POP SWAP3 POP JUMP JUMPDEST PUSH0 DUP1 PUSH1 0x40 DUP4 DUP6 SUB SLT ISZERO PUSH2 0x7CDB JUMPI PUSH2 0x7CDA PUSH2 0x72DC JUMP JUMPDEST JUMPDEST PUSH0 PUSH2 0x7CE8 DUP6 DUP3 DUP7 ADD PUSH2 0x748B JUMP JUMPDEST SWAP3 POP POP PUSH1 0x20 PUSH2 0x7CF9 DUP6 DUP3 DUP7 ADD PUSH2 0x7574 JUMP JUMPDEST SWAP2 POP POP SWAP3 POP SWAP3 SWAP1 POP JUMP JUMPDEST PUSH0 DUP1 PUSH1 0x40 DUP4 DUP6 SUB SLT ISZERO PUSH2 0x7D19 JUMPI PUSH2 0x7D18 PUSH2 0x72DC JUMP JUMPDEST JUMPDEST PUSH0 DUP4 ADD CALLDATALOAD PUSH8 0xFFFFFFFFFFFFFFFF DUP2 GT ISZERO PUSH2 0x7D36 JUMPI PUSH2 0x7D35 PUSH2 0x72E0 JUMP JUMPDEST JUMPDEST PUSH2 0x7D42 DUP6 DUP3 DUP7 ADD PUSH2 0x78C9 JUMP JUMPDEST SWAP3 POP POP PUSH1 0x20 PUSH2 0x7D53 DUP6 DUP3 DUP7 ADD PUSH2 0x738A JUMP JUMPDEST SWAP2 POP POP SWAP3 POP SWAP3 SWAP1 POP JUMP JUMPDEST PUSH0 DUP1 DUP4 PUSH1 0x1F DUP5 ADD SLT PUSH2 0x7D72 JUMPI PUSH2 0x7D71 PUSH2 0x77B6 JUMP JUMPDEST JUMPDEST DUP3 CALLDATALOAD SWAP1 POP PUSH8 0xFFFFFFFFFFFFFFFF DUP2 GT ISZERO PUSH2 0x7D8F JUMPI PUSH2 0x7D8E PUSH2 0x7B9E JUMP JUMPDEST JUMPDEST PUSH1 0x20 DUP4 ADD SWAP2 POP DUP4 PUSH1 0x20 DUP3 MUL DUP4 ADD GT ISZERO PUSH2 0x7DAB JUMPI PUSH2 0x7DAA PUSH2 0x785D JUMP JUMPDEST JUMPDEST SWAP3 POP SWAP3 SWAP1 POP JUMP JUMPDEST PUSH0 DUP1 PUSH0 PUSH1 0x40 DUP5 DUP7 SUB SLT ISZERO PUSH2 0x7DC9 JUMPI PUSH2 0x7DC8 PUSH2 0x72DC JUMP JUMPDEST JUMPDEST PUSH0 DUP5 ADD CALLDATALOAD PUSH8 0xFFFFFFFFFFFFFFFF DUP2 GT ISZERO PUSH2 0x7DE6 JUMPI PUSH2 0x7DE5 PUSH2 0x72E0 JUMP JUMPDEST JUMPDEST PUSH2 0x7DF2 DUP7 DUP3 DUP8 ADD PUSH2 0x7D5D JUMP JUMPDEST SWAP4 POP SWAP4 POP POP PUSH1 0x20 PUSH2 0x7E05 DUP7 DUP3 DUP8 ADD PUSH2 0x738A JUMP JUMPDEST SWAP2 POP POP SWAP3 POP SWAP3 POP SWAP3 JUMP JUMPDEST PUSH0 DUP1 DUP4 PUSH1 0x1F DUP5 ADD SLT PUSH2 0x7E24 JUMPI PUSH2 0x7E23 PUSH2 0x77B6 JUMP JUMPDEST JUMPDEST DUP3 CALLDATALOAD SWAP1 POP PUSH8 0xFFFFFFFFFFFFFFFF DUP2 GT ISZERO PUSH2 0x7E41 JUMPI PUSH2 0x7E40 PUSH2 0x7B9E JUMP JUMPDEST JUMPDEST PUSH1 0x20 DUP4 ADD SWAP2 POP DUP4 PUSH1 0x20 DUP3 MUL DUP4 ADD GT ISZERO PUSH2 0x7E5D JUMPI PUSH2 0x7E5C PUSH2 0x785D JUMP JUMPDEST JUMPDEST SWAP3 POP SWAP3 SWAP1 POP JUMP JUMPDEST PUSH0 DUP1 PUSH1 0x20 DUP4 DUP6 SUB SLT ISZERO PUSH2 0x7E7A JUMPI PUSH2 0x7E79 PUSH2 0x72DC JUMP JUMPDEST JUMPDEST PUSH0 DUP4 ADD CALLDATALOAD PUSH8 0xFFFFFFFFFFFFFFFF DUP2 GT ISZERO PUSH2 0x7E97 JUMPI PUSH2 0x7E96 PUSH2 0x72E0 JUMP JUMPDEST JUMPDEST PUSH2 0x7EA3 DUP6 DUP3 DUP7 ADD PUSH2 0x7E0F JUMP JUMPDEST SWAP3 POP SWAP3 POP POP SWAP3 POP SWAP3 SWAP1 POP JUMP JUMPDEST PUSH0 PUSH2 0x7EB9 DUP3 PUSH2 0x762D JUMP JUMPDEST SWAP1 POP SWAP2 SWAP1 POP JUMP JUMPDEST PUSH2 0x7EC9 DUP2 PUSH2 0x7EAF JUMP JUMPDEST DUP3 MSTORE POP POP JUMP JUMPDEST PUSH0 PUSH1 0x20 DUP3 ADD SWAP1 POP PUSH2 0x7EE2 PUSH0 DUP4 ADD DUP5 PUSH2 0x7EC0 JUMP JUMPDEST SWAP3 SWAP2 POP POP JUMP JUMPDEST PUSH0 DUP1 PUSH1 0x40 DUP4 DUP6 SUB SLT ISZERO PUSH2 0x7EFE JUMPI PUSH2 0x7EFD PUSH2 0x72DC JUMP JUMPDEST JUMPDEST PUSH0 PUSH2 0x7F0B DUP6 DUP3 DUP7 ADD PUSH2 0x732A JUMP JUMPDEST SWAP3 POP POP PUSH1 0x20 PUSH2 0x7F1C DUP6 DUP3 DUP7 ADD PUSH2 0x732A JUMP JUMPDEST SWAP2 POP POP SWAP3 POP SWAP3 SWAP1 POP JUMP JUMPDEST PUSH0 PUSH2 0x7F30 DUP3 PUSH2 0x762D JUMP JUMPDEST SWAP1 POP SWAP2 SWAP1 POP JUMP JUMPDEST PUSH2 0x7F40 DUP2 PUSH2 0x7F26 JUMP JUMPDEST DUP3 MSTORE POP POP JUMP JUMPDEST PUSH0 PUSH1 0x20 DUP3 ADD SWAP1 POP PUSH2 0x7F59 PUSH0 DUP4 ADD DUP5 PUSH2 0x7F37 JUMP JUMPDEST SWAP3 SWAP2 POP POP JUMP JUMPDEST PUSH32 0x4F776E61626C653A2063616C6C6572206973206E6F7420746865206F776E6572 PUSH0 DUP3 ADD MSTORE POP JUMP JUMPDEST PUSH0 PUSH2 0x7F93 PUSH1 0x20 DUP4 PUSH2 0x73E6 JUMP JUMPDEST SWAP2 POP PUSH2 0x7F9E DUP3 PUSH2 0x7F5F JUMP JUMPDEST PUSH1 0x20 DUP3 ADD SWAP1 POP SWAP2 SWAP1 POP JUMP JUMPDEST PUSH0 PUSH1 0x20 DUP3 ADD SWAP1 POP DUP2 DUP2 SUB PUSH0 DUP4 ADD MSTORE PUSH2 0x7FC0 DUP2 PUSH2 0x7F87 JUMP JUMPDEST SWAP1 POP SWAP2 SWAP1 POP JUMP JUMPDEST PUSH32 0x496E76616C696420766572696669657200000000000000000000000000000000 PUSH0 DUP3 ADD MSTORE POP JUMP JUMPDEST PUSH0 PUSH2 0x7FFB PUSH1 0x10 DUP4 PUSH2 0x73E6 JUMP JUMPDEST SWAP2 POP PUSH2 0x8006 DUP3 PUSH2 0x7FC7 JUMP JUMPDEST PUSH1 0x20 DUP3 ADD SWAP1 POP SWAP2 SWAP1 POP JUMP JUMPDEST PUSH0 PUSH1 0x20 DUP3 ADD SWAP1 POP DUP2 DUP2 SUB PUSH0 DUP4 ADD MSTORE PUSH2 0x8028 DUP2 PUSH2 0x7FEF JUMP JUMPDEST SWAP1 POP SWAP2 SWAP1 POP JUMP JUMPDEST PUSH0 PUSH1 0x40 DUP3 ADD SWAP1 POP PUSH2 0x8042 PUSH0 DUP4 ADD DUP6 PUSH2 0x7505 JUMP JUMPDEST PUSH2 0x804F PUSH1 0x20 DUP4 ADD DUP5 PUSH2 0x74DD JUMP JUMPDEST SWAP4 SWAP3 POP POP POP JUMP JUMPDEST PUSH32 0x4E487B7100000000000000000000000000000000000000000000000000000000 PUSH0 MSTORE PUSH1 0x22 PUSH1 0x4 MSTORE PUSH1 0x24 PUSH0 REVERT JUMPDEST PUSH0 PUSH1 0x2 DUP3 DIV SWAP1 POP PUSH1 0x1 DUP3 AND DUP1 PUSH2 0x809A JUMPI PUSH1 0x7F DUP3 AND SWAP2 POP JUMPDEST PUSH1 0x20 DUP3 LT DUP2 SUB PUSH2 0x80AD JUMPI PUSH2 0x80AC PUSH2 0x8056 JUMP JUMPDEST JUMPDEST POP SWAP2 SWAP1 POP JUMP JUMPDEST PUSH32 0x43616E6E6F742072657363756520636F726520746F6B656E0000000000000000 PUSH0 DUP3 ADD MSTORE POP JUMP JUMPDEST PUSH0 PUSH2 0x80E7 PUSH1 0x18 DUP4 PUSH2 0x73E6 JUMP JUMPDEST SWAP2 POP PUSH2 0x80F2 DUP3 PUSH2 0x80B3 JUMP JUMPDEST PUSH1 0x20 DUP3 ADD SWAP1 POP SWAP2 SWAP1 POP JUMP JUMPDEST PUSH0 PUSH1 0x20 DUP3 ADD SWAP1 POP DUP2 DUP2 SUB PUSH0 DUP4 ADD MSTORE PUSH2 0x8114 DUP2 PUSH2 0x80DB JUMP JUMPDEST SWAP1 POP SWAP2 SWAP1 POP JUMP JUMPDEST PUSH32 0x43616E6E6F742072657363756520747261636B657220746F6B656E0000000000 PUSH0 DUP3 ADD MSTORE POP JUMP JUMPDEST PUSH0 PUSH2 0x814F PUSH1 0x1B DUP4 PUSH2 0x73E6 JUMP JUMPDEST SWAP2 POP PUSH2 0x815A DUP3 PUSH2 0x811B JUMP JUMPDEST PUSH1 0x20 DUP3 ADD SWAP1 POP SWAP2 SWAP1 POP JUMP JUMPDEST PUSH0 PUSH1 0x20 DUP3 ADD SWAP1 POP DUP2 DUP2 SUB PUSH0 DUP4 ADD MSTORE PUSH2 0x817C DUP2 PUSH2 0x8143 JUMP JUMPDEST SWAP1 POP SWAP2 SWAP1 POP JUMP JUMPDEST PUSH0 DUP2 MLOAD SWAP1 POP PUSH2 0x8191 DUP2 PUSH2 0x7475 JUMP JUMPDEST SWAP3 SWAP2 POP POP JUMP JUMPDEST PUSH0 PUSH1 0x20 DUP3 DUP5 SUB SLT ISZERO PUSH2 0x81AC JUMPI PUSH2 0x81AB PUSH2 0x72DC JUMP JUMPDEST JUMPDEST PUSH0 PUSH2 0x81B9 DUP5 DUP3 DUP6 ADD PUSH2 0x8183 JUMP JUMPDEST SWAP2 POP POP SWAP3 SWAP2 POP POP JUMP JUMPDEST PUSH32 0x4E6F7468696E6720746F20726573637565000000000000000000000000000000 PUSH0 DUP3 ADD MSTORE POP JUMP JUMPDEST PUSH0 PUSH2 0x81F6 PUSH1 0x11 DUP4 PUSH2 0x73E6 JUMP JUMPDEST SWAP2 POP PUSH2 0x8201 DUP3 PUSH2 0x81C2 JUMP JUMPDEST PUSH1 0x20 DUP3 ADD SWAP1 POP SWAP2 SWAP1 POP JUMP JUMPDEST PUSH0 PUSH1 0x20 DUP3 ADD SWAP1 POP DUP2 DUP2 SUB PUSH0 DUP4 ADD MSTORE PUSH2 0x8223 DUP2 PUSH2 0x81EA JUMP JUMPDEST SWAP1 POP SWAP2 SWAP1 POP JUMP JUMPDEST PUSH0 PUSH1 0x40 DUP3 ADD SWAP1 POP PUSH2 0x823D PUSH0 DUP4 ADD DUP6 PUSH2 0x7505 JUMP JUMPDEST PUSH2 0x824A PUSH1 0x20 DUP4 ADD DUP5 PUSH2 0x752D JUMP JUMPDEST SWAP4 SWAP3 POP POP POP JUMP JUMPDEST PUSH0 DUP2 MLOAD SWAP1 POP PUSH2 0x825F DUP2 PUSH2 0x7374 JUMP JUMPDEST SWAP3 SWAP2 POP POP JUMP JUMPDEST PUSH0 PUSH1 0x20 DUP3 DUP5 SUB SLT ISZERO PUSH2 0x827A JUMPI PUSH2 0x8279 PUSH2 0x72DC JUMP JUMPDEST JUMPDEST PUSH0 PUSH2 0x8287 DUP5 DUP3 DUP6 ADD PUSH2 0x8251 JUMP JUMPDEST SWAP2 POP POP SWAP3 SWAP2 POP POP JUMP JUMPDEST PUSH32 0x5472616E73666572206661696C65640000000000000000000000000000000000 PUSH0 DUP3 ADD MSTORE POP JUMP JUMPDEST PUSH0 PUSH2 0x82C4 PUSH1 0xF DUP4 PUSH2 0x73E6 JUMP JUMPDEST SWAP2 POP PUSH2 0x82CF DUP3 PUSH2 0x8290 JUMP JUMPDEST PUSH1 0x20 DUP3 ADD SWAP1 POP SWAP2 SWAP1 POP JUMP JUMPDEST PUSH0 PUSH1 0x20 DUP3 ADD SWAP1 POP DUP2 DUP2 SUB PUSH0 DUP4 ADD MSTORE PUSH2 0x82F1 DUP2 PUSH2 0x82B8 JUMP JUMPDEST SWAP1 POP SWAP2 SWAP1 POP JUMP JUMPDEST PUSH32 0x54726164696E6720616C726561647920656E61626C6564000000000000000000 PUSH0 DUP3 ADD MSTORE POP JUMP JUMPDEST PUSH0 PUSH2 0x832C PUSH1 0x17 DUP4 PUSH2 0x73E6 JUMP JUMPDEST SWAP2 POP PUSH2 0x8337 DUP3 PUSH2 0x82F8 JUMP JUMPDEST PUSH1 0x20 DUP3 ADD SWAP1 POP SWAP2 SWAP1 POP JUMP JUMPDEST PUSH0 PUSH1 0x20 DUP3 ADD SWAP1 POP DUP2 DUP2 SUB PUSH0 DUP4 ADD MSTORE PUSH2 0x8359 DUP2 PUSH2 0x8320 JUMP JUMPDEST SWAP1 POP SWAP2 SWAP1 POP JUMP JUMPDEST PUSH32 0x556E617574686F72697A65640000000000000000000000000000000000000000 PUSH0 DUP3 ADD MSTORE POP JUMP JUMPDEST PUSH0 PUSH2 0x8394 PUSH1 0xC DUP4 PUSH2 0x73E6 JUMP JUMPDEST SWAP2 POP PUSH2 0x839F DUP3 PUSH2 0x8360 JUMP JUMPDEST PUSH1 0x20 DUP3 ADD SWAP1 POP SWAP2 SWAP1 POP JUMP JUMPDEST PUSH0 PUSH1 0x20 DUP3 ADD SWAP1 POP DUP2 DUP2 SUB PUSH0 DUP4 ADD MSTORE PUSH2 0x83C1 DUP2 PUSH2 0x8388 JUMP JUMPDEST SWAP1 POP SWAP2 SWAP1 POP JUMP JUMPDEST PUSH32 0x4E6F2045544820746F2073656E64000000000000000000000000000000000000 PUSH0 DUP3 ADD MSTORE POP JUMP JUMPDEST PUSH0 PUSH2 0x83FC PUSH1 0xE DUP4 PUSH2 0x73E6 JUMP JUMPDEST SWAP2 POP PUSH2 0x8407 DUP3 PUSH2 0x83C8 JUMP JUMPDEST PUSH1 0x20 DUP3 ADD SWAP1 POP SWAP2 SWAP1 POP JUMP JUMPDEST PUSH0 PUSH1 0x20 DUP3 ADD SWAP1 POP DUP2 DUP2 SUB PUSH0 DUP4 ADD MSTORE PUSH2 0x8429 DUP2 PUSH2 0x83F0 JUMP JUMPDEST SWAP1 POP SWAP2 SWAP1 POP JUMP JUMPDEST PUSH32 0x4E487B7100000000000000000000000000000000000000000000000000000000 PUSH0 MSTORE PUSH1 0x11 PUSH1 0x4 MSTORE PUSH1 0x24 PUSH0 REVERT JUMPDEST PUSH0 PUSH2 0x8467 DUP3 PUSH2 0x746C JUMP JUMPDEST SWAP2 POP PUSH2 0x8472 DUP4 PUSH2 0x746C JUMP JUMPDEST SWAP3 POP DUP3 DUP3 MUL PUSH2 0x8480 DUP2 PUSH2 0x746C JUMP JUMPDEST SWAP2 POP DUP3 DUP3 DIV DUP5 EQ DUP4 ISZERO OR PUSH2 0x8497 JUMPI PUSH2 0x8496 PUSH2 0x8430 JUMP JUMPDEST JUMPDEST POP SWAP3 SWAP2 POP POP JUMP JUMPDEST PUSH0 DUP2 SWAP1 POP SWAP2 SWAP1 POP JUMP JUMPDEST PUSH0 PUSH2 0x84B1 DUP3 PUSH2 0x849E JUMP JUMPDEST SWAP2 POP PUSH2 0x84BC DUP4 PUSH2 0x849E JUMP JUMPDEST SWAP3 POP DUP3 DUP3 ADD SWAP1 POP DUP3 DUP2 SLT ISZERO PUSH0 DUP4 SLT AND DUP4 DUP3 SLT PUSH0 DUP5 SLT ISZERO AND OR ISZERO PUSH2 0x84E2 JUMPI PUSH2 0x84E1 PUSH2 0x8430 JUMP JUMPDEST JUMPDEST SWAP3 SWAP2 POP POP JUMP JUMPDEST PUSH32 0x4E487B7100000000000000000000000000000000000000000000000000000000 PUSH0 MSTORE PUSH1 0x12 PUSH1 0x4 MSTORE PUSH1 0x24 PUSH0 REVERT JUMPDEST PUSH0 PUSH2 0x851F DUP3 PUSH2 0x746C JUMP JUMPDEST SWAP2 POP PUSH2 0x852A DUP4 PUSH2 0x746C JUMP JUMPDEST SWAP3 POP DUP3 PUSH2 0x853A JUMPI PUSH2 0x8539 PUSH2 0x84E8 JUMP JUMPDEST JUMPDEST DUP3 DUP3 DIV SWAP1 POP SWAP3 SWAP2 POP POP JUMP JUMPDEST PUSH0 PUSH2 0x854F DUP3 PUSH2 0x746C JUMP JUMPDEST SWAP2 POP PUSH2 0x855A DUP4 PUSH2 0x746C JUMP JUMPDEST SWAP3 POP DUP3 DUP3 ADD SWAP1 POP DUP1 DUP3 GT ISZERO PUSH2 0x8572 JUMPI PUSH2 0x8571 PUSH2 0x8430 JUMP JUMPDEST JUMPDEST SWAP3 SWAP2 POP POP JUMP JUMPDEST PUSH32 0x466565206D757374206265203C3D203230250000000000000000000000000000 PUSH0 DUP3 ADD MSTORE POP JUMP JUMPDEST PUSH0 PUSH2 0x85AC PUSH1 0x12 DUP4 PUSH2 0x73E6 JUMP JUMPDEST SWAP2 POP PUSH2 0x85B7 DUP3 PUSH2 0x8578 JUMP JUMPDEST PUSH1 0x20 DUP3 ADD SWAP1 POP SWAP2 SWAP1 POP JUMP JUMPDEST PUSH0 PUSH1 0x20 DUP3 ADD SWAP1 POP DUP2 DUP2 SUB PUSH0 DUP4 ADD MSTORE PUSH2 0x85D9 DUP2 PUSH2 0x85A0 JUMP JUMPDEST SWAP1 POP SWAP2 SWAP1 POP JUMP JUMPDEST PUSH32 0x50726976616379206665617475726573206E6F7420656E61626C656400000000 PUSH0 DUP3 ADD MSTORE POP JUMP JUMPDEST PUSH0 PUSH2 0x8614 PUSH1 0x1C DUP4 PUSH2 0x73E6 JUMP JUMPDEST SWAP2 POP PUSH2 0x861F DUP3 PUSH2 0x85E0 JUMP JUMPDEST PUSH1 0x20 DUP3 ADD SWAP1 POP SWAP2 SWAP1 POP JUMP JUMPDEST PUSH0 PUSH1 0x20 DUP3 ADD SWAP1 POP DUP2 DUP2 SUB PUSH0 DUP4 ADD MSTORE PUSH2 0x8641 DUP2 PUSH2 0x8608 JUMP JUMPDEST SWAP1 POP SWAP2 SWAP1 POP JUMP JUMPDEST PUSH32 0x4E756C6C696669657220616C7265616479207573656400000000000000000000 PUSH0 DUP3 ADD MSTORE POP JUMP JUMPDEST PUSH0 PUSH2 0x867C PUSH1 0x16 DUP4 PUSH2 0x73E6 JUMP JUMPDEST SWAP2 POP PUSH2 0x8687 DUP3 PUSH2 0x8648 JUMP JUMPDEST PUSH1 0x20 DUP3 ADD SWAP1 POP SWAP2 SWAP1 POP JUMP JUMPDEST PUSH0 PUSH1 0x20 DUP3 ADD SWAP1 POP DUP2 DUP2 SUB PUSH0 DUP4 ADD MSTORE PUSH2 0x86A9 DUP2 PUSH2 0x8670 JUMP JUMPDEST SWAP1 POP SWAP2 SWAP1 POP JUMP JUMPDEST PUSH0 DUP1 REVERT JUMPDEST PUSH0 DUP1 REVERT JUMPDEST PUSH0 DUP1 REVERT JUMPDEST PUSH0 DUP1 DUP4 CALLDATALOAD PUSH1 0x1 PUSH1 0x20 SUB DUP5 CALLDATASIZE SUB SUB DUP2 SLT PUSH2 0x86D8 JUMPI PUSH2 0x86D7 PUSH2 0x86B0 JUMP JUMPDEST JUMPDEST DUP1 DUP5 ADD SWAP3 POP DUP3 CALLDATALOAD SWAP2 POP PUSH8 0xFFFFFFFFFFFFFFFF DUP3 GT ISZERO PUSH2 0x86FA JUMPI PUSH2 0x86F9 PUSH2 0x86B4 JUMP JUMPDEST JUMPDEST PUSH1 0x20 DUP4 ADD SWAP3 POP PUSH1 0x1 DUP3 MUL CALLDATASIZE SUB DUP4 SGT ISZERO PUSH2 0x8716 JUMPI PUSH2 0x8715 PUSH2 0x86B8 JUMP JUMPDEST JUMPDEST POP SWAP3 POP SWAP3 SWAP1 POP JUMP JUMPDEST PUSH0 DUP3 DUP3 MSTORE PUSH1 0x20 DUP3 ADD SWAP1 POP SWAP3 SWAP2 POP POP JUMP JUMPDEST DUP3 DUP2 DUP4 CALLDATACOPY PUSH0 DUP4 DUP4 ADD MSTORE POP POP POP JUMP JUMPDEST PUSH0 PUSH2 0x8747 DUP4 DUP6 PUSH2 0x871E JUMP JUMPDEST SWAP4 POP PUSH2 0x8754 DUP4 DUP6 DUP5 PUSH2 0x872E JUMP JUMPDEST PUSH2 0x875D DUP4 PUSH2 0x7404 JUMP JUMPDEST DUP5 ADD SWAP1 POP SWAP4 SWAP3 POP POP POP JUMP JUMPDEST PUSH0 PUSH1 0xC0 DUP3 ADD SWAP1 POP PUSH2 0x877B PUSH0 DUP4 ADD DUP11 PUSH2 0x7B4C JUMP JUMPDEST PUSH2 0x8788 PUSH1 0x20 DUP4 ADD DUP10 PUSH2 0x7B4C JUMP JUMPDEST PUSH2 0x8795 PUSH1 0x40 DUP4 ADD DUP9 PUSH2 0x752D JUMP JUMPDEST PUSH2 0x87A2 PUSH1 0x60 DUP4 ADD DUP8 PUSH2 0x7505 JUMP JUMPDEST PUSH2 0x87AF PUSH1 0x80 DUP4 ADD DUP7 PUSH2 0x7505 JUMP JUMPDEST DUP2 DUP2 SUB PUSH1 0xA0 DUP4 ADD MSTORE PUSH2 0x87C2 DUP2 DUP5 DUP7 PUSH2 0x873C JUMP JUMPDEST SWAP1 POP SWAP9 SWAP8 POP POP POP POP POP POP POP POP JUMP JUMPDEST PUSH32 0x496E76616C6964205A4B2070726F6F6600000000000000000000000000000000 PUSH0 DUP3 ADD MSTORE POP JUMP JUMPDEST PUSH0 PUSH2 0x8804 PUSH1 0x10 DUP4 PUSH2 0x73E6 JUMP JUMPDEST SWAP2 POP PUSH2 0x880F DUP3 PUSH2 0x87D0 JUMP JUMPDEST PUSH1 0x20 DUP3 ADD SWAP1 POP SWAP2 SWAP1 POP JUMP JUMPDEST PUSH0 PUSH1 0x20 DUP3 ADD SWAP1 POP DUP2 DUP2 SUB PUSH0 DUP4 ADD MSTORE PUSH2 0x8831 DUP2 PUSH2 0x87F8 JUMP JUMPDEST SWAP1 POP SWAP2 SWAP1 POP JUMP JUMPDEST PUSH32 0x436C61696D73206E6F7420656E61626C65640000000000000000000000000000 PUSH0 DUP3 ADD MSTORE POP JUMP JUMPDEST PUSH0 PUSH2 0x886C PUSH1 0x12 DUP4 PUSH2 0x73E6 JUMP JUMPDEST SWAP2 POP PUSH2 0x8877 DUP3 PUSH2 0x8838 JUMP JUMPDEST PUSH1 0x20 DUP3 ADD SWAP1 POP SWAP2 SWAP1 POP JUMP JUMPDEST PUSH0 PUSH1 0x20 DUP3 ADD SWAP1 POP DUP2 DUP2 SUB PUSH0 DUP4 ADD MSTORE PUSH2 0x8899 DUP2 PUSH2 0x8860 JUMP JUMPDEST SWAP1 POP SWAP2 SWAP1 POP JUMP JUMPDEST PUSH32 0x5377617070696E6720696E2070726F6772657373000000000000000000000000 PUSH0 DUP3 ADD MSTORE POP JUMP JUMPDEST PUSH0 PUSH2 0x88D4 PUSH1 0x14 DUP4 PUSH2 0x73E6 JUMP JUMPDEST SWAP2 POP PUSH2 0x88DF DUP3 PUSH2 0x88A0 JUMP JUMPDEST PUSH1 0x20 DUP3 ADD SWAP1 POP SWAP2 SWAP1 POP JUMP JUMPDEST PUSH0 PUSH1 0x20 DUP3 ADD SWAP1 POP DUP2 DUP2 SUB PUSH0 DUP4 ADD MSTORE PUSH2 0x8901 DUP2 PUSH2 0x88C8 JUMP JUMPDEST SWAP1 POP SWAP2 SWAP1 POP JUMP JUMPDEST PUSH32 0x496E76616C696420706169720000000000000000000000000000000000000000 PUSH0 DUP3 ADD MSTORE POP JUMP JUMPDEST PUSH0 PUSH2 0x893C PUSH1 0xC DUP4 PUSH2 0x73E6 JUMP JUMPDEST SWAP2 POP PUSH2 0x8947 DUP3 PUSH2 0x8908 JUMP JUMPDEST PUSH1 0x20 DUP3 ADD SWAP1 POP SWAP2 SWAP1 POP JUMP JUMPDEST PUSH0 PUSH1 0x20 DUP3 ADD SWAP1 POP DUP2 DUP2 SUB PUSH0 DUP4 ADD MSTORE PUSH2 0x8969 DUP2 PUSH2 0x8930 JUMP JUMPDEST SWAP1 POP SWAP2 SWAP1 POP JUMP JUMPDEST PUSH32 0x4578636C756465642066726F6D206469766964656E6473000000000000000000 PUSH0 DUP3 ADD MSTORE POP JUMP JUMPDEST PUSH0 PUSH2 0x89A4 PUSH1 0x17 DUP4 PUSH2 0x73E6 JUMP JUMPDEST SWAP2 POP PUSH2 0x89AF DUP3 PUSH2 0x8970 JUMP JUMPDEST PUSH1 0x20 DUP3 ADD SWAP1 POP SWAP2 SWAP1 POP JUMP JUMPDEST PUSH0 PUSH1 0x20 DUP3 ADD SWAP1 POP DUP2 DUP2 SUB PUSH0 DUP4 ADD MSTORE PUSH2 0x89D1 DUP2 PUSH2 0x8998 JUMP JUMPDEST SWAP1 POP SWAP2 SWAP1 POP JUMP JUMPDEST PUSH32 0x5A65726F20616464726573730000000000000000000000000000000000000000 PUSH0 DUP3 ADD MSTORE POP JUMP JUMPDEST PUSH0 PUSH2 0x8A0C PUSH1 0xC DUP4 PUSH2 0x73E6 JUMP JUMPDEST SWAP2 POP PUSH2 0x8A17 DUP3 PUSH2 0x89D8 JUMP JUMPDEST PUSH1 0x20 DUP3 ADD SWAP1 POP SWAP2 SWAP1 POP JUMP JUMPDEST PUSH0 PUSH1 0x20 DUP3 ADD SWAP1 POP DUP2 DUP2 SUB PUSH0 DUP4 ADD MSTORE PUSH2 0x8A39 DUP2 PUSH2 0x8A00 JUMP JUMPDEST SWAP1 POP SWAP2 SWAP1 POP JUMP JUMPDEST PUSH32 0x417272617973206D75737420686176652073616D652073697A65000000000000 PUSH0 DUP3 ADD MSTORE POP JUMP JUMPDEST PUSH0 PUSH2 0x8A74 PUSH1 0x1A DUP4 PUSH2 0x73E6 JUMP JUMPDEST SWAP2 POP PUSH2 0x8A7F DUP3 PUSH2 0x8A40 JUMP JUMPDEST PUSH1 0x20 DUP3 ADD SWAP1 POP SWAP2 SWAP1 POP JUMP JUMPDEST PUSH0 PUSH1 0x20 DUP3 ADD SWAP1 POP DUP2 DUP2 SUB PUSH0 DUP4 ADD MSTORE PUSH2 0x8AA1 DUP2 PUSH2 0x8A68 JUMP JUMPDEST SWAP1 POP SWAP2 SWAP1 POP JUMP JUMPDEST PUSH32 0x4E487B7100000000000000000000000000000000000000000000000000000000 PUSH0 MSTORE PUSH1 0x32 PUSH1 0x4 MSTORE PUSH1 0x24 PUSH0 REVERT JUMPDEST PUSH32 0x496E76616C696420616464726573730000000000000000000000000000000000 PUSH0 DUP3 ADD MSTORE POP JUMP JUMPDEST PUSH0 PUSH2 0x8B09 PUSH1 0xF DUP4 PUSH2 0x73E6 JUMP JUMPDEST SWAP2 POP PUSH2 0x8B14 DUP3 PUSH2 0x8AD5 JUMP JUMPDEST PUSH1 0x20 DUP3 ADD SWAP1 POP SWAP2 SWAP1 POP JUMP JUMPDEST PUSH0 PUSH1 0x20 DUP3 ADD SWAP1 POP DUP2 DUP2 SUB PUSH0 DUP4 ADD MSTORE PUSH2 0x8B36 DUP2 PUSH2 0x8AFD JUMP JUMPDEST SWAP1 POP SWAP2 SWAP1 POP JUMP JUMPDEST PUSH32 0x4163636F756E74206578636C756465642066726F6D206469766964656E647300 PUSH0 DUP3 ADD MSTORE POP JUMP JUMPDEST PUSH0 PUSH2 0x8B71 PUSH1 0x1F DUP4 PUSH2 0x73E6 JUMP JUMPDEST SWAP2 POP PUSH2 0x8B7C DUP3 PUSH2 0x8B3D JUMP JUMPDEST PUSH1 0x20 DUP3 ADD SWAP1 POP SWAP2 SWAP1 POP JUMP JUMPDEST PUSH0 PUSH1 0x20 DUP3 ADD SWAP1 POP DUP2 DUP2 SUB PUSH0 DUP4 ADD MSTORE PUSH2 0x8B9E DUP2 PUSH2 0x8B65 JUMP JUMPDEST SWAP1 POP SWAP2 SWAP1 POP JUMP JUMPDEST PUSH32 0x53616D6520616464726573730000000000000000000000000000000000000000 PUSH0 DUP3 ADD MSTORE POP JUMP JUMPDEST PUSH0 PUSH2 0x8BD9 PUSH1 0xC DUP4 PUSH2 0x73E6 JUMP JUMPDEST SWAP2 POP PUSH2 0x8BE4 DUP3 PUSH2 0x8BA5 JUMP JUMPDEST PUSH1 0x20 DUP3 ADD SWAP1 POP SWAP2 SWAP1 POP JUMP JUMPDEST PUSH0 PUSH1 0x20 DUP3 ADD SWAP1 POP DUP2 DUP2 SUB PUSH0 DUP4 ADD MSTORE PUSH2 0x8C06 DUP2 PUSH2 0x8BCD JUMP JUMPDEST SWAP1 POP SWAP2 SWAP1 POP JUMP JUMPDEST PUSH0 PUSH1 0x40 DUP3 ADD SWAP1 POP PUSH2 0x8C20 PUSH0 DUP4 ADD DUP6 PUSH2 0x7505 JUMP JUMPDEST PUSH2 0x8C2D PUSH1 0x20 DUP4 ADD DUP5 PUSH2 0x7505 JUMP JUMPDEST SWAP4 SWAP3 POP POP POP JUMP JUMPDEST PUSH32 0x42656C6F77206D696E696D756D20706F6F6C20616D6F756E7400000000000000 PUSH0 DUP3 ADD MSTORE POP JUMP JUMPDEST PUSH0 PUSH2 0x8C68 PUSH1 0x19 DUP4 PUSH2 0x73E6 JUMP JUMPDEST SWAP2 POP PUSH2 0x8C73 DUP3 PUSH2 0x8C34 JUMP JUMPDEST PUSH1 0x20 DUP3 ADD SWAP1 POP SWAP2 SWAP1 POP JUMP JUMPDEST PUSH0 PUSH1 0x20 DUP3 ADD SWAP1 POP DUP2 DUP2 SUB PUSH0 DUP4 ADD MSTORE PUSH2 0x8C95 DUP2 PUSH2 0x8C5C JUMP JUMPDEST SWAP1 POP SWAP2 SWAP1 POP JUMP JUMPDEST PUSH32 0x416C72656164792061207072697661637920706F6F6C00000000000000000000 PUSH0 DUP3 ADD MSTORE POP JUMP JUMPDEST PUSH0 PUSH2 0x8CD0 PUSH1 0x16 DUP4 PUSH2 0x73E6 JUMP JUMPDEST SWAP2 POP PUSH2 0x8CDB DUP3 PUSH2 0x8C9C JUMP JUMPDEST PUSH1 0x20 DUP3 ADD SWAP1 POP SWAP2 SWAP1 POP JUMP JUMPDEST PUSH0 PUSH1 0x20 DUP3 ADD SWAP1 POP DUP2 DUP2 SUB PUSH0 DUP4 ADD MSTORE PUSH2 0x8CFD DUP2 PUSH2 0x8CC4 JUMP JUMPDEST SWAP1 POP SWAP2 SWAP1 POP JUMP JUMPDEST PUSH0 PUSH1 0x60 DUP3 ADD SWAP1 POP PUSH2 0x8D17 PUSH0 DUP4 ADD DUP8 PUSH2 0x752D JUMP JUMPDEST PUSH2 0x8D24 PUSH1 0x20 DUP4 ADD DUP7 PUSH2 0x7505 JUMP JUMPDEST DUP2 DUP2 SUB PUSH1 0x40 DUP4 ADD MSTORE PUSH2 0x8D37 DUP2 DUP5 DUP7 PUSH2 0x873C JUMP JUMPDEST SWAP1 POP SWAP6 SWAP5 POP POP POP POP POP JUMP JUMPDEST PUSH32 0x496E76616C696420706F6F6C2070726F6F660000000000000000000000000000 PUSH0 DUP3 ADD MSTORE POP JUMP JUMPDEST PUSH0 PUSH2 0x8D76 PUSH1 0x12 DUP4 PUSH2 0x73E6 JUMP JUMPDEST SWAP2 POP PUSH2 0x8D81 DUP3 PUSH2 0x8D42 JUMP JUMPDEST PUSH1 0x20 DUP3 ADD SWAP1 POP SWAP2 SWAP1 POP JUMP JUMPDEST PUSH0 PUSH1 0x20 DUP3 ADD SWAP1 POP DUP2 DUP2 SUB PUSH0 DUP4 ADD MSTORE PUSH2 0x8DA3 DUP2 PUSH2 0x8D6A JUMP JUMPDEST SWAP1 POP SWAP2 SWAP1 POP JUMP JUMPDEST PUSH32 0x456D70747920706F6F6C00000000000000000000000000000000000000000000 PUSH0 DUP3 ADD MSTORE POP JUMP JUMPDEST PUSH0 PUSH2 0x8DDE PUSH1 0xA DUP4 PUSH2 0x73E6 JUMP JUMPDEST SWAP2 POP PUSH2 0x8DE9 DUP3 PUSH2 0x8DAA JUMP JUMPDEST PUSH1 0x20 DUP3 ADD SWAP1 POP SWAP2 SWAP1 POP JUMP JUMPDEST PUSH0 PUSH1 0x20 DUP3 ADD SWAP1 POP DUP2 DUP2 SUB PUSH0 DUP4 ADD MSTORE PUSH2 0x8E0B DUP2 PUSH2 0x8DD2 JUMP JUMPDEST SWAP1 POP SWAP2 SWAP1 POP JUMP JUMPDEST PUSH32 0x4E756C6C69666965722075736564000000000000000000000000000000000000 PUSH0 DUP3 ADD MSTORE POP JUMP JUMPDEST PUSH0 PUSH2 0x8E46 PUSH1 0xE DUP4 PUSH2 0x73E6 JUMP JUMPDEST SWAP2 POP PUSH2 0x8E51 DUP3 PUSH2 0x8E12 JUMP JUMPDEST PUSH1 0x20 DUP3 ADD SWAP1 POP SWAP2 SWAP1 POP JUMP JUMPDEST PUSH0 PUSH1 0x20 DUP3 ADD SWAP1 POP DUP2 DUP2 SUB PUSH0 DUP4 ADD MSTORE PUSH2 0x8E73 DUP2 PUSH2 0x8E3A JUMP JUMPDEST SWAP1 POP SWAP2 SWAP1 POP JUMP JUMPDEST PUSH0 PUSH1 0xA0 DUP3 ADD SWAP1 POP DUP2 DUP2 SUB PUSH0 DUP4 ADD MSTORE PUSH2 0x8E93 DUP2 DUP9 DUP11 PUSH2 0x873C JUMP JUMPDEST SWAP1 POP PUSH2 0x8EA2 PUSH1 0x20 DUP4 ADD DUP8 PUSH2 0x7B4C JUMP JUMPDEST PUSH2 0x8EAF PUSH1 0x40 DUP4 ADD DUP7 PUSH2 0x7B4C JUMP JUMPDEST PUSH2 0x8EBC PUSH1 0x60 DUP4 ADD DUP6 PUSH2 0x752D JUMP JUMPDEST PUSH2 0x8EC9 PUSH1 0x80 DUP4 ADD DUP5 PUSH2 0x7505 JUMP JUMPDEST SWAP8 SWAP7 POP POP POP POP POP POP POP JUMP JUMPDEST PUSH32 0x496E76616C6964207769746864726177616C2070726F6F660000000000000000 PUSH0 DUP3 ADD MSTORE POP JUMP JUMPDEST PUSH0 PUSH2 0x8F08 PUSH1 0x18 DUP4 PUSH2 0x73E6 JUMP JUMPDEST SWAP2 POP PUSH2 0x8F13 DUP3 PUSH2 0x8ED4 JUMP JUMPDEST PUSH1 0x20 DUP3 ADD SWAP1 POP SWAP2 SWAP1 POP JUMP JUMPDEST PUSH0 PUSH1 0x20 DUP3 ADD SWAP1 POP DUP2 DUP2 SUB PUSH0 DUP4 ADD MSTORE PUSH2 0x8F35 DUP2 PUSH2 0x8EFC JUMP JUMPDEST SWAP1 POP SWAP2 SWAP1 POP JUMP JUMPDEST PUSH0 PUSH2 0x8F46 DUP3 PUSH2 0x746C JUMP JUMPDEST SWAP2 POP PUSH2 0x8F51 DUP4 PUSH2 0x746C JUMP JUMPDEST SWAP3 POP DUP3 DUP3 SUB SWAP1 POP DUP2 DUP2 GT ISZERO PUSH2 0x8F69 JUMPI PUSH2 0x8F68 PUSH2 0x8430 JUMP JUMPDEST JUMPDEST SWAP3 SWAP2 POP POP JUMP JUMPDEST PUSH0 PUSH1 0x20 DUP3 ADD SWAP1 POP PUSH2 0x8F82 PUSH0 DUP4 ADD DUP5 PUSH2 0x7B4C JUMP JUMPDEST SWAP3 SWAP2 POP POP JUMP JUMPDEST PUSH32 0x564952414C3A204163636F756E7420697320616C726561647920746865207661 PUSH0 DUP3 ADD MSTORE PUSH32 0x6C7565206F6620276578636C7564656427000000000000000000000000000000 PUSH1 0x20 DUP3 ADD MSTORE POP JUMP JUMPDEST PUSH0 PUSH2 0x8FE2 PUSH1 0x31 DUP4 PUSH2 0x73E6 JUMP JUMPDEST SWAP2 POP PUSH2 0x8FED DUP3 PUSH2 0x8F88 JUMP JUMPDEST PUSH1 0x40 DUP3 ADD SWAP1 POP SWAP2 SWAP1 POP JUMP JUMPDEST PUSH0 PUSH1 0x20 DUP3 ADD SWAP1 POP DUP2 DUP2 SUB PUSH0 DUP4 ADD MSTORE PUSH2 0x900F DUP2 PUSH2 0x8FD6 JUMP JUMPDEST SWAP1 POP SWAP2 SWAP1 POP JUMP JUMPDEST PUSH0 DUP3 DUP3 MSTORE PUSH1 0x20 DUP3 ADD SWAP1 POP SWAP3 SWAP2 POP POP JUMP JUMPDEST PUSH0 DUP2 SWAP1 POP SWAP2 SWAP1 POP JUMP JUMPDEST PUSH2 0x9038 DUP2 PUSH2 0x7303 JUMP JUMPDEST DUP3 MSTORE POP POP JUMP JUMPDEST PUSH0 PUSH2 0x9049 DUP4 DUP4 PUSH2 0x902F JUMP JUMPDEST PUSH1 0x20 DUP4 ADD SWAP1 POP SWAP3 SWAP2 POP POP JUMP JUMPDEST PUSH0 PUSH2 0x9063 PUSH1 0x20 DUP5 ADD DUP5 PUSH2 0x732A JUMP JUMPDEST SWAP1 POP SWAP3 SWAP2 POP POP JUMP JUMPDEST PUSH0 PUSH1 0x20 DUP3 ADD SWAP1 POP SWAP2 SWAP1 POP JUMP JUMPDEST PUSH0 PUSH2 0x9082 DUP4 DUP6 PUSH2 0x9016 JUMP JUMPDEST SWAP4 POP PUSH2 0x908D DUP3 PUSH2 0x9026 JUMP JUMPDEST DUP1 PUSH0 JUMPDEST DUP6 DUP2 LT ISZERO PUSH2 0x90C5 JUMPI PUSH2 0x90A2 DUP3 DUP5 PUSH2 0x9055 JUMP JUMPDEST PUSH2 0x90AC DUP9 DUP3 PUSH2 0x903E JUMP JUMPDEST SWAP8 POP PUSH2 0x90B7 DUP4 PUSH2 0x906B JUMP JUMPDEST SWAP3 POP POP PUSH1 0x1 DUP2 ADD SWAP1 POP PUSH2 0x9090 JUMP JUMPDEST POP DUP6 SWAP3 POP POP POP SWAP4 SWAP3 POP POP POP JUMP JUMPDEST PUSH0 PUSH1 0x40 DUP3 ADD SWAP1 POP DUP2 DUP2 SUB PUSH0 DUP4 ADD MSTORE PUSH2 0x90EB DUP2 DUP6 DUP8 PUSH2 0x9077 JUMP JUMPDEST SWAP1 POP PUSH2 0x90FA PUSH1 0x20 DUP4 ADD DUP5 PUSH2 0x74DD JUMP JUMPDEST SWAP5 SWAP4 POP POP POP POP JUMP JUMPDEST PUSH32 0x416C726561647920696E697469616C697A656400000000000000000000000000 PUSH0 DUP3 ADD MSTORE POP JUMP JUMPDEST PUSH0 PUSH2 0x9136 PUSH1 0x13 DUP4 PUSH2 0x73E6 JUMP JUMPDEST SWAP2 POP PUSH2 0x9141 DUP3 PUSH2 0x9102 JUMP JUMPDEST PUSH1 0x20 DUP3 ADD SWAP1 POP SWAP2 SWAP1 POP JUMP JUMPDEST PUSH0 PUSH1 0x20 DUP3 ADD SWAP1 POP DUP2 DUP2 SUB PUSH0 DUP4 ADD MSTORE PUSH2 0x9163 DUP2 PUSH2 0x912A JUMP JUMPDEST SWAP1 POP SWAP2 SWAP1 POP JUMP JUMPDEST PUSH32 0x496E76616C69642064656E6F6D696E6174696F6E000000000000000000000000 PUSH0 DUP3 ADD MSTORE POP JUMP JUMPDEST PUSH0 PUSH2 0x919E PUSH1 0x14 DUP4 PUSH2 0x73E6 JUMP JUMPDEST SWAP2 POP PUSH2 0x91A9 DUP3 PUSH2 0x916A JUMP JUMPDEST PUSH1 0x20 DUP3 ADD SWAP1 POP SWAP2 SWAP1 POP JUMP JUMPDEST PUSH0 PUSH1 0x20 DUP3 ADD SWAP1 POP DUP2 DUP2 SUB PUSH0 DUP4 ADD MSTORE PUSH2 0x91CB DUP2 PUSH2 0x9192 JUMP JUMPDEST SWAP1 POP SWAP2 SWAP1 POP JUMP JUMPDEST PUSH32 0x4F6E6C79206F776E657200000000000000000000000000000000000000000000 PUSH0 DUP3 ADD MSTORE POP JUMP JUMPDEST PUSH0 PUSH2 0x9206 PUSH1 0xA DUP4 PUSH2 0x73E6 JUMP JUMPDEST SWAP2 POP PUSH2 0x9211 DUP3 PUSH2 0x91D2 JUMP JUMPDEST PUSH1 0x20 DUP3 ADD SWAP1 POP SWAP2 SWAP1 POP JUMP JUMPDEST PUSH0 PUSH1 0x20 DUP3 ADD SWAP1 POP DUP2 DUP2 SUB PUSH0 DUP4 ADD MSTORE PUSH2 0x9233 DUP2 PUSH2 0x91FA JUMP JUMPDEST SWAP1 POP SWAP2 SWAP1 POP JUMP JUMPDEST PUSH32 0x4F776E61626C653A206E6577206F776E657220697320746865207A65726F2061 PUSH0 DUP3 ADD MSTORE PUSH32 0x6464726573730000000000000000000000000000000000000000000000000000 PUSH1 0x20 DUP3 ADD MSTORE POP JUMP JUMPDEST PUSH0 PUSH2 0x9294 PUSH1 0x26 DUP4 PUSH2 0x73E6 JUMP JUMPDEST SWAP2 POP PUSH2 0x929F DUP3 PUSH2 0x923A JUMP JUMPDEST PUSH1 0x40 DUP3 ADD SWAP1 POP SWAP2 SWAP1 POP JUMP JUMPDEST PUSH0 PUSH1 0x20 DUP3 ADD SWAP1 POP DUP2 DUP2 SUB PUSH0 DUP4 ADD MSTORE PUSH2 0x92C1 DUP2 PUSH2 0x9288 JUMP JUMPDEST SWAP1 POP SWAP2 SWAP1 POP JUMP JUMPDEST PUSH32 0x45524332303A20617070726F76652066726F6D20746865207A65726F20616464 PUSH0 DUP3 ADD MSTORE PUSH32 0x7265737300000000000000000000000000000000000000000000000000000000 PUSH1 0x20 DUP3 ADD MSTORE POP JUMP JUMPDEST PUSH0 PUSH2 0x9322 PUSH1 0x24 DUP4 PUSH2 0x73E6 JUMP JUMPDEST SWAP2 POP PUSH2 0x932D DUP3 PUSH2 0x92C8 JUMP JUMPDEST PUSH1 0x40 DUP3 ADD SWAP1 POP SWAP2 SWAP1 POP JUMP JUMPDEST PUSH0 PUSH1 0x20 DUP3 ADD SWAP1 POP DUP2 DUP2 SUB PUSH0 DUP4 ADD MSTORE PUSH2 0x934F DUP2 PUSH2 0x9316 JUMP JUMPDEST SWAP1 POP SWAP2 SWAP1 POP JUMP JUMPDEST PUSH32 0x45524332303A20617070726F766520746F20746865207A65726F206164647265 PUSH0 DUP3 ADD MSTORE PUSH32 0x7373000000000000000000000000000000000000000000000000000000000000 PUSH1 0x20 DUP3 ADD MSTORE POP JUMP JUMPDEST PUSH0 PUSH2 0x93B0 PUSH1 0x22 DUP4 PUSH2 0x73E6 JUMP JUMPDEST SWAP2 POP PUSH2 0x93BB DUP3 PUSH2 0x9356 JUMP JUMPDEST PUSH1 0x40 DUP3 ADD SWAP1 POP SWAP2 SWAP1 POP JUMP JUMPDEST PUSH0 PUSH1 0x20 DUP3 ADD SWAP1 POP DUP2 DUP2 SUB PUSH0 DUP4 ADD MSTORE PUSH2 0x93DD DUP2 PUSH2 0x93A4 JUMP JUMPDEST SWAP1 POP SWAP2 SWAP1 POP JUMP JUMPDEST PUSH32 0x416464726573733A20696E73756666696369656E742062616C616E6365000000 PUSH0 DUP3 ADD MSTORE POP JUMP JUMPDEST PUSH0 PUSH2 0x9418 PUSH1 0x1D DUP4 PUSH2 0x73E6 JUMP JUMPDEST SWAP2 POP PUSH2 0x9423 DUP3 PUSH2 0x93E4 JUMP JUMPDEST PUSH1 0x20 DUP3 ADD SWAP1 POP SWAP2 SWAP1 POP JUMP JUMPDEST PUSH0 PUSH1 0x20 DUP3 ADD SWAP1 POP DUP2 DUP2 SUB PUSH0 DUP4 ADD MSTORE PUSH2 0x9445 DUP2 PUSH2 0x940C JUMP JUMPDEST SWAP1 POP SWAP2 SWAP1 POP JUMP JUMPDEST PUSH0 DUP2 SWAP1 POP SWAP3 SWAP2 POP POP JUMP JUMPDEST POP JUMP JUMPDEST PUSH0 PUSH2 0x9464 PUSH0 DUP4 PUSH2 0x944C JUMP JUMPDEST SWAP2 POP PUSH2 0x946F DUP3 PUSH2 0x9456 JUMP JUMPDEST PUSH0 DUP3 ADD SWAP1 POP SWAP2 SWAP1 POP JUMP JUMPDEST PUSH0 PUSH2 0x9483 DUP3 PUSH2 0x9459 JUMP JUMPDEST SWAP2 POP DUP2 SWAP1 POP SWAP2 SWAP1 POP JUMP JUMPDEST PUSH32 0x416464726573733A20756E61626C6520746F2073656E642076616C75652C2072 PUSH0 DUP3 ADD MSTORE PUSH32 0x6563697069656E74206D61792068617665207265766572746564000000000000 PUSH1 0x20 DUP3 ADD MSTORE POP JUMP JUMPDEST PUSH0 PUSH2 0x94E7 PUSH1 0x3A DUP4 PUSH2 0x73E6 JUMP JUMPDEST SWAP2 POP PUSH2 0x94F2 DUP3 PUSH2 0x948D JUMP JUMPDEST PUSH1 0x40 DUP3 ADD SWAP1 POP SWAP2 SWAP1 POP JUMP JUMPDEST PUSH0 PUSH1 0x20 DUP3 ADD SWAP1 POP DUP2 DUP2 SUB PUSH0 DUP4 ADD MSTORE PUSH2 0x9514 DUP2 PUSH2 0x94DB JUMP JUMPDEST SWAP1 POP SWAP2 SWAP1 POP JUMP JUMPDEST PUSH32 0x45524332303A207472616E736665722066726F6D20746865207A65726F206164 PUSH0 DUP3 ADD MSTORE PUSH32 0x6472657373000000000000000000000000000000000000000000000000000000 PUSH1 0x20 DUP3 ADD MSTORE POP JUMP JUMPDEST PUSH0 PUSH2 0x9575 PUSH1 0x25 DUP4 PUSH2 0x73E6 JUMP JUMPDEST SWAP2 POP PUSH2 0x9580 DUP3 PUSH2 0x951B JUMP JUMPDEST PUSH1 0x40 DUP3 ADD SWAP1 POP SWAP2 SWAP1 POP JUMP JUMPDEST PUSH0 PUSH1 0x20 DUP3 ADD SWAP1 POP DUP2 DUP2 SUB PUSH0 DUP4 ADD MSTORE PUSH2 0x95A2 DUP2 PUSH2 0x9569 JUMP JUMPDEST SWAP1 POP SWAP2 SWAP1 POP JUMP JUMPDEST PUSH32 0x45524332303A207472616E7366657220746F20746865207A65726F2061646472 PUSH0 DUP3 ADD MSTORE PUSH32 0x6573730000000000000000000000000000000000000000000000000000000000 PUSH1 0x20 DUP3 ADD MSTORE POP JUMP JUMPDEST PUSH0 PUSH2 0x9603 PUSH1 0x23 DUP4 PUSH2 0x73E6 JUMP JUMPDEST SWAP2 POP PUSH2 0x960E DUP3 PUSH2 0x95A9 JUMP JUMPDEST PUSH1 0x40 DUP3 ADD SWAP1 POP SWAP2 SWAP1 POP JUMP JUMPDEST PUSH0 PUSH1 0x20 DUP3 ADD SWAP1 POP DUP2 DUP2 SUB PUSH0 DUP4 ADD MSTORE PUSH2 0x9630 DUP2 PUSH2 0x95F7 JUMP JUMPDEST SWAP1 POP SWAP2 SWAP1 POP JUMP JUMPDEST PUSH32 0x54726164696E67206E6F74206163746976650000000000000000000000000000 PUSH0 DUP3 ADD MSTORE POP JUMP JUMPDEST PUSH0 PUSH2 0x966B PUSH1 0x12 DUP4 PUSH2 0x73E6 JUMP JUMPDEST SWAP2 POP PUSH2 0x9676 DUP3 PUSH2 0x9637 JUMP JUMPDEST PUSH1 0x20 DUP3 ADD SWAP1 POP SWAP2 SWAP1 POP JUMP JUMPDEST PUSH0 PUSH1 0x20 DUP3 ADD SWAP1 POP DUP2 DUP2 SUB PUSH0 DUP4 ADD MSTORE PUSH2 0x9698 DUP2 PUSH2 0x965F JUMP JUMPDEST SWAP1 POP SWAP2 SWAP1 POP JUMP JUMPDEST PUSH32 0x4279652042796520426F74000000000000000000000000000000000000000000 PUSH0 DUP3 ADD MSTORE POP JUMP JUMPDEST PUSH0 PUSH2 0x96D3 PUSH1 0xB DUP4 PUSH2 0x73E6 JUMP JUMPDEST SWAP2 POP PUSH2 0x96DE DUP3 PUSH2 0x969F JUMP JUMPDEST PUSH1 0x20 DUP3 ADD SWAP1 POP SWAP2 SWAP1 POP JUMP JUMPDEST PUSH0 PUSH1 0x20 DUP3 ADD SWAP1 POP DUP2 DUP2 SUB PUSH0 DUP4 ADD MSTORE PUSH2 0x9700 DUP2 PUSH2 0x96C7 JUMP JUMPDEST SWAP1 POP SWAP2 SWAP1 POP JUMP JUMPDEST PUSH32 0x596F752061726520657863656564696E67206D617853656C6C416D6F756E7400 PUSH0 DUP3 ADD MSTORE POP JUMP JUMPDEST PUSH0 PUSH2 0x973B PUSH1 0x1F DUP4 PUSH2 0x73E6 JUMP JUMPDEST SWAP2 POP PUSH2 0x9746 DUP3 PUSH2 0x9707 JUMP JUMPDEST PUSH1 0x20 DUP3 ADD SWAP1 POP SWAP2 SWAP1 POP JUMP JUMPDEST PUSH0 PUSH1 0x20 DUP3 ADD SWAP1 POP DUP2 DUP2 SUB PUSH0 DUP4 ADD MSTORE PUSH2 0x9768 DUP2 PUSH2 0x972F JUMP JUMPDEST SWAP1 POP SWAP2 SWAP1 POP JUMP JUMPDEST PUSH32 0x596F752061726520657863656564696E67206D6178427579416D6F756E740000 PUSH0 DUP3 ADD MSTORE POP JUMP JUMPDEST PUSH0 PUSH2 0x97A3 PUSH1 0x1E DUP4 PUSH2 0x73E6 JUMP JUMPDEST SWAP2 POP PUSH2 0x97AE DUP3 PUSH2 0x976F JUMP JUMPDEST PUSH1 0x20 DUP3 ADD SWAP1 POP SWAP2 SWAP1 POP JUMP JUMPDEST PUSH0 PUSH1 0x20 DUP3 ADD SWAP1 POP DUP2 DUP2 SUB PUSH0 DUP4 ADD MSTORE PUSH2 0x97D0 DUP2 PUSH2 0x9797 JUMP JUMPDEST SWAP1 POP SWAP2 SWAP1 POP JUMP JUMPDEST PUSH32 0x536166654D6174683A206164646974696F6E206F766572666C6F770000000000 PUSH0 DUP3 ADD MSTORE POP JUMP JUMPDEST PUSH0 PUSH2 0x980B PUSH1 0x1B DUP4 PUSH2 0x73E6 JUMP JUMPDEST SWAP2 POP PUSH2 0x9816 DUP3 PUSH2 0x97D7 JUMP JUMPDEST PUSH1 0x20 DUP3 ADD SWAP1 POP SWAP2 SWAP1 POP JUMP JUMPDEST PUSH0 PUSH1 0x20 DUP3 ADD SWAP1 POP DUP2 DUP2 SUB PUSH0 DUP4 ADD MSTORE PUSH2 0x9838 DUP2 PUSH2 0x97FF JUMP JUMPDEST SWAP1 POP SWAP2 SWAP1 POP JUMP JUMPDEST PUSH32 0x564952414C3A204175746F6D61746564206D61726B6574206D616B6572207061 PUSH0 DUP3 ADD MSTORE PUSH32 0x697220697320616C72656164792073657420746F20746861742076616C756500 PUSH1 0x20 DUP3 ADD MSTORE POP JUMP JUMPDEST PUSH0 PUSH2 0x9899 PUSH1 0x3F DUP4 PUSH2 0x73E6 JUMP JUMPDEST SWAP2 POP PUSH2 0x98A4 DUP3 PUSH2 0x983F JUMP JUMPDEST PUSH1 0x40 DUP3 ADD SWAP1 POP SWAP2 SWAP1 POP JUMP JUMPDEST PUSH0 PUSH1 0x20 DUP3 ADD SWAP1 POP DUP2 DUP2 SUB PUSH0 DUP4 ADD MSTORE PUSH2 0x98C6 DUP2 PUSH2 0x988D JUMP JUMPDEST SWAP1 POP SWAP2 SWAP1 POP JUMP JUMPDEST PUSH32 0x4E6F20737570706C7920666F72206469766964656E6420646973747269627574 PUSH0 DUP3 ADD MSTORE PUSH32 0x696F6E0000000000000000000000000000000000000000000000000000000000 PUSH1 0x20 DUP3 ADD MSTORE POP JUMP JUMPDEST PUSH0 PUSH2 0x9927 PUSH1 0x23 DUP4 PUSH2 0x73E6 JUMP JUMPDEST SWAP2 POP PUSH2 0x9932 DUP3 PUSH2 0x98CD JUMP JUMPDEST PUSH1 0x40 DUP3 ADD SWAP1 POP SWAP2 SWAP1 POP JUMP JUMPDEST PUSH0 PUSH1 0x20 DUP3 ADD SWAP1 POP DUP2 DUP2 SUB PUSH0 DUP4 ADD MSTORE PUSH2 0x9954 DUP2 PUSH2 0x991B JUMP JUMPDEST SWAP1 POP SWAP2 SWAP1 POP JUMP JUMPDEST PUSH0 PUSH1 0x40 DUP3 ADD SWAP1 POP PUSH2 0x996E PUSH0 DUP4 ADD DUP6 PUSH2 0x752D JUMP JUMPDEST PUSH2 0x997B PUSH1 0x20 DUP4 ADD DUP5 PUSH2 0x752D JUMP JUMPDEST SWAP4 SWAP3 POP POP POP JUMP JUMPDEST PUSH0 DUP2 MLOAD SWAP1 POP PUSH2 0x9990 DUP2 PUSH2 0x7314 JUMP JUMPDEST SWAP3 SWAP2 POP POP JUMP JUMPDEST PUSH0 PUSH1 0x20 DUP3 DUP5 SUB SLT ISZERO PUSH2 0x99AB JUMPI PUSH2 0x99AA PUSH2 0x72DC JUMP JUMPDEST JUMPDEST PUSH0 PUSH2 0x99B8 DUP5 DUP3 DUP6 ADD PUSH2 0x9982 JUMP JUMPDEST SWAP2 POP POP SWAP3 SWAP2 POP POP JUMP JUMPDEST PUSH0 DUP2 SWAP1 POP SWAP2 SWAP1 POP JUMP JUMPDEST PUSH0 PUSH2 0x99E4 PUSH2 0x99DF PUSH2 0x99DA DUP5 PUSH2 0x99C1 JUMP JUMPDEST PUSH2 0x7603 JUMP JUMPDEST PUSH2 0x746C JUMP JUMPDEST SWAP1 POP SWAP2 SWAP1 POP JUMP JUMPDEST PUSH2 0x99F4 DUP2 PUSH2 0x99CA JUMP JUMPDEST DUP3 MSTORE POP POP JUMP JUMPDEST PUSH0 DUP2 MLOAD SWAP1 POP SWAP2 SWAP1 POP JUMP JUMPDEST PUSH0 DUP2 SWAP1 POP PUSH1 0x20 DUP3 ADD SWAP1 POP SWAP2 SWAP1 POP JUMP JUMPDEST PUSH0 PUSH1 0x20 DUP3 ADD SWAP1 POP SWAP2 SWAP1 POP JUMP JUMPDEST PUSH0 PUSH2 0x9A29 DUP3 PUSH2 0x99FA JUMP JUMPDEST PUSH2 0x9A33 DUP2 DUP6 PUSH2 0x9016 JUMP JUMPDEST SWAP4 POP PUSH2 0x9A3E DUP4 PUSH2 0x9A04 JUMP JUMPDEST DUP1 PUSH0 JUMPDEST DUP4 DUP2 LT ISZERO PUSH2 0x9A6E JUMPI DUP2 MLOAD PUSH2 0x9A55 DUP9 DUP3 PUSH2 0x903E JUMP JUMPDEST SWAP8 POP PUSH2 0x9A60 DUP4 PUSH2 0x9A13 JUMP JUMPDEST SWAP3 POP POP PUSH1 0x1 DUP2 ADD SWAP1 POP PUSH2 0x9A41 JUMP JUMPDEST POP DUP6 SWAP4 POP POP POP POP SWAP3 SWAP2 POP POP JUMP JUMPDEST PUSH0 PUSH1 0xA0 DUP3 ADD SWAP1 POP PUSH2 0x9A8E PUSH0 DUP4 ADD DUP9 PUSH2 0x752D JUMP JUMPDEST PUSH2 0x9A9B PUSH1 0x20 DUP4 ADD DUP8 PUSH2 0x99EB JUMP JUMPDEST DUP2 DUP2 SUB PUSH1 0x40 DUP4 ADD MSTORE PUSH2 0x9AAD DUP2 DUP7 PUSH2 0x9A1F JUMP JUMPDEST SWAP1 POP PUSH2 0x9ABC PUSH1 0x60 DUP4 ADD DUP6 PUSH2 0x7505 JUMP JUMPDEST PUSH2 0x9AC9 PUSH1 0x80 DUP4 ADD DUP5 PUSH2 0x752D JUMP JUMPDEST SWAP7 SWAP6 POP POP POP POP POP POP JUMP JUMPDEST PUSH0 PUSH1 0xC0 DUP3 ADD SWAP1 POP PUSH2 0x9AE6 PUSH0 DUP4 ADD DUP10 PUSH2 0x7505 JUMP JUMPDEST PUSH2 0x9AF3 PUSH1 0x20 DUP4 ADD DUP9 PUSH2 0x752D JUMP JUMPDEST PUSH2 0x9B00 PUSH1 0x40 DUP4 ADD DUP8 PUSH2 0x99EB JUMP JUMPDEST PUSH2 0x9B0D PUSH1 0x60 DUP4 ADD DUP7 PUSH2 0x99EB JUMP JUMPDEST PUSH2 0x9B1A PUSH1 0x80 DUP4 ADD DUP6 PUSH2 0x7505 JUMP JUMPDEST PUSH2 0x9B27 PUSH1 0xA0 DUP4 ADD DUP5 PUSH2 0x752D JUMP JUMPDEST SWAP8 SWAP7 POP POP POP POP POP POP POP JUMP JUMPDEST PUSH0 DUP1 PUSH0 PUSH1 0x60 DUP5 DUP7 SUB SLT ISZERO PUSH2 0x9B49 JUMPI PUSH2 0x9B48 PUSH2 0x72DC JUMP JUMPDEST JUMPDEST PUSH0 PUSH2 0x9B56 DUP7 DUP3 DUP8 ADD PUSH2 0x8183 JUMP JUMPDEST SWAP4 POP POP PUSH1 0x20 PUSH2 0x9B67 DUP7 DUP3 DUP8 ADD PUSH2 0x8183 JUMP JUMPDEST SWAP3 POP POP PUSH1 0x40 PUSH2 0x9B78 DUP7 DUP3 DUP8 ADD PUSH2 0x8183 JUMP JUMPDEST SWAP2 POP POP SWAP3 POP SWAP3 POP SWAP3 JUMP INVALID GASLIMIT MSTORE NUMBER ORIGIN ADDRESS GASPRICE KECCAK256 PUSH21 0x72616E7366657220616D6F756E7420657863656564 PUSH20 0x2062616C616E636545524332303A207472616E73 PUSH7 0x657220616D6F75 PUSH15 0x74206578636565647320616C6C6F77 PUSH2 0x6E63 PUSH6 0x45524332303A KECCAK256 PUSH5 0x6563726561 PUSH20 0x656420616C6C6F77616E63652062656C6F77207A PUSH6 0x726FA2646970 PUSH7 0x7358221220A455 0xFC 0x4E PUSH13 0x81691942121AAAAD0BF9805C70 DUP12 PUSH23 0xF3CE8748913268CDD25BA98C64736F6C634300081A0033 PUSH1 0x80 PUSH1 0x40 MSTORE CALLVALUE DUP1 ISZERO PUSH2 0xF JUMPI PUSH0 DUP1 REVERT JUMPDEST POP PUSH1 0x40 MLOAD DUP1 PUSH1 0x40 ADD PUSH1 0x40 MSTORE DUP1 PUSH1 0x17 DUP2 MSTORE PUSH1 0x20 ADD PUSH32 0x4369706865725F4469766964656E645F547261636B6572000000000000000000 DUP2 MSTORE POP PUSH1 0x40 MLOAD DUP1 PUSH1 0x40 ADD PUSH1 0x40 MSTORE DUP1 PUSH1 0x3 DUP2 MSTORE PUSH1 0x20 ADD PUSH32 0x4344540000000000000000000000000000000000000000000000000000000000 DUP2 MSTORE POP PUSH0 PUSH2 0x8B PUSH2 0x14E PUSH1 0x20 SHL PUSH1 0x20 SHR JUMP JUMPDEST SWAP1 POP DUP1 PUSH0 DUP1 PUSH2 0x100 EXP DUP2 SLOAD DUP2 PUSH20 0xFFFFFFFFFFFFFFFFFFFFFFFFFFFFFFFFFFFFFFFF MUL NOT AND SWAP1 DUP4 PUSH20 0xFFFFFFFFFFFFFFFFFFFFFFFFFFFFFFFFFFFFFFFF AND MUL OR SWAP1 SSTORE POP DUP1 PUSH20 0xFFFFFFFFFFFFFFFFFFFFFFFFFFFFFFFFFFFFFFFF AND PUSH0 PUSH20 0xFFFFFFFFFFFFFFFFFFFFFFFFFFFFFFFFFFFFFFFF AND PUSH32 0x8BE0079C531659141344CD1FD0A4F28419497F9722A3DAAFE3B4186F6B6457E0 PUSH1 0x40 MLOAD PUSH1 0x40 MLOAD DUP1 SWAP2 SUB SWAP1 LOG3 POP DUP2 PUSH1 0x4 SWAP1 DUP2 PUSH2 0x136 SWAP2 SWAP1 PUSH2 0x38F JUMP JUMPDEST POP DUP1 PUSH1 0x5 SWAP1 DUP2 PUSH2 0x146 SWAP2 SWAP1 PUSH2 0x38F JUMP JUMPDEST POP POP POP PUSH2 0x45E JUMP JUMPDEST PUSH0 CALLER SWAP1 POP SWAP1 JUMP JUMPDEST PUSH0 DUP2 MLOAD SWAP1 POP SWAP2 SWAP1 POP JUMP JUMPDEST PUSH32 0x4E487B7100000000000000000000000000000000000000000000000000000000 PUSH0 MSTORE PUSH1 0x41 PUSH1 0x4 MSTORE PUSH1 0x24 PUSH0 REVERT JUMPDEST PUSH32 0x4E487B7100000000000000000000000000000000000000000000000000000000 PUSH0 MSTORE PUSH1 0x22 PUSH1 0x4 MSTORE PUSH1 0x24 PUSH0 REVERT JUMPDEST PUSH0 PUSH1 0x2 DUP3 DIV SWAP1 POP PUSH1 0x1 DUP3 AND DUP1 PUSH2 0x1D0 JUMPI PUSH1 0x7F DUP3 AND SWAP2 POP JUMPDEST PUSH1 0x20 DUP3 LT DUP2 SUB PUSH2 0x1E3 JUMPI PUSH2 0x1E2 PUSH2 0x18C JUMP JUMPDEST JUMPDEST POP SWAP2 SWAP1 POP JUMP JUMPDEST PUSH0 DUP2 SWAP1 POP DUP2 PUSH0 MSTORE PUSH1 0x20 PUSH0 KECCAK256 SWAP1 POP SWAP2 SWAP1 POP JUMP JUMPDEST PUSH0 PUSH1 0x20 PUSH1 0x1F DUP4 ADD DIV SWAP1 POP SWAP2 SWAP1 POP JUMP JUMPDEST PUSH0 DUP3 DUP3 SHL SWAP1 POP SWAP3 SWAP2 POP POP JUMP JUMPDEST PUSH0 PUSH1 0x8 DUP4 MUL PUSH2 0x245 PUSH32 0xFFFFFFFFFFFFFFFFFFFFFFFFFFFFFFFFFFFFFFFFFFFFFFFFFFFFFFFFFFFFFFFF DUP3 PUSH2 0x20A JUMP JUMPDEST PUSH2 0x24F DUP7 DUP4 PUSH2 0x20A JUMP JUMPDEST SWAP6 POP DUP1 NOT DUP5 AND SWAP4 POP DUP1 DUP7 AND DUP5 OR SWAP3 POP POP POP SWAP4 SWAP3 POP POP POP JUMP JUMPDEST PUSH0 DUP2 SWAP1 POP SWAP2 SWAP1 POP JUMP JUMPDEST PUSH0 DUP2 SWAP1 POP SWAP2 SWAP1 POP JUMP JUMPDEST PUSH0 PUSH2 0x293 PUSH2 0x28E PUSH2 0x289 DUP5 PUSH2 0x267 JUMP JUMPDEST PUSH2 0x270 JUMP JUMPDEST PUSH2 0x267 JUMP JUMPDEST SWAP1 POP SWAP2 SWAP1 POP JUMP JUMPDEST PUSH0 DUP2 SWAP1 POP SWAP2 SWAP1 POP JUMP JUMPDEST PUSH2 0x2AC DUP4 PUSH2 0x279 JUMP JUMPDEST PUSH2 0x2C0 PUSH2 0x2B8 DUP3 PUSH2 0x29A JUMP JUMPDEST DUP5 DUP5 SLOAD PUSH2 0x216 JUMP JUMPDEST DUP3 SSTORE POP POP POP POP JUMP JUMPDEST PUSH0 SWAP1 JUMP JUMPDEST PUSH2 0x2D4 PUSH2 0x2C8 JUMP JUMPDEST PUSH2 0x2DF DUP2 DUP5 DUP5 PUSH2 0x2A3 JUMP JUMPDEST POP POP POP JUMP JUMPDEST JUMPDEST DUP2 DUP2 LT ISZERO PUSH2 0x302 JUMPI PUSH2 0x2F7 PUSH0 DUP3 PUSH2 0x2CC JUMP JUMPDEST PUSH1 0x1 DUP2 ADD SWAP1 POP PUSH2 0x2E5 JUMP JUMPDEST POP POP JUMP JUMPDEST PUSH1 0x1F DUP3 GT ISZERO PUSH2 0x347 JUMPI PUSH2 0x318 DUP2 PUSH2 0x1E9 JUMP JUMPDEST PUSH2 0x321 DUP5 PUSH2 0x1FB JUMP JUMPDEST DUP2 ADD PUSH1 0x20 DUP6 LT ISZERO PUSH2 0x330 JUMPI DUP2 SWAP1 POP JUMPDEST PUSH2 0x344 PUSH2 0x33C DUP6 PUSH2 0x1FB JUMP JUMPDEST DUP4 ADD DUP3 PUSH2 0x2E4 JUMP JUMPDEST POP POP JUMPDEST POP POP POP JUMP JUMPDEST PUSH0 DUP3 DUP3 SHR SWAP1 POP SWAP3 SWAP2 POP POP JUMP JUMPDEST PUSH0 PUSH2 0x367 PUSH0 NOT DUP5 PUSH1 0x8 MUL PUSH2 0x34C JUMP JUMPDEST NOT DUP1 DUP4 AND SWAP2 POP POP SWAP3 SWAP2 POP POP JUMP JUMPDEST PUSH0 PUSH2 0x37F DUP4 DUP4 PUSH2 0x358 JUMP JUMPDEST SWAP2 POP DUP3 PUSH1 0x2 MUL DUP3 OR SWAP1 POP SWAP3 SWAP2 POP POP JUMP JUMPDEST PUSH2 0x398 DUP3 PUSH2 0x155 JUMP JUMPDEST PUSH8 0xFFFFFFFFFFFFFFFF DUP2 GT ISZERO PUSH2 0x3B1 JUMPI PUSH2 0x3B0 PUSH2 0x15F JUMP JUMPDEST JUMPDEST PUSH2 0x3BB DUP3 SLOAD PUSH2 0x1B9 JUMP JUMPDEST PUSH2 0x3C6 DUP3 DUP3 DUP6 PUSH2 0x306 JUMP JUMPDEST PUSH0 PUSH1 0x20 SWAP1 POP PUSH1 0x1F DUP4 GT PUSH1 0x1 DUP2 EQ PUSH2 0x3F7 JUMPI PUSH0 DUP5 ISZERO PUSH2 0x3E5 JUMPI DUP3 DUP8 ADD MLOAD SWAP1 POP JUMPDEST PUSH2 0x3EF DUP6 DUP3 PUSH2 0x374 JUMP JUMPDEST DUP7 SSTORE POP PUSH2 0x456 JUMP JUMPDEST PUSH1 0x1F NOT DUP5 AND PUSH2 0x405 DUP7 PUSH2 0x1E9 JUMP JUMPDEST PUSH0 JUMPDEST DUP3 DUP2 LT ISZERO PUSH2 0x42C JUMPI DUP5 DUP10 ADD MLOAD DUP3 SSTORE PUSH1 0x1 DUP3 ADD SWAP2 POP PUSH1 0x20 DUP6 ADD SWAP5 POP PUSH1 0x20 DUP2 ADD SWAP1 POP PUSH2 0x407 JUMP JUMPDEST DUP7 DUP4 LT ISZERO PUSH2 0x449 JUMPI DUP5 DUP10 ADD MLOAD PUSH2 0x445 PUSH1 0x1F DUP10 AND DUP3 PUSH2 0x358 JUMP JUMPDEST DUP4 SSTORE POP JUMPDEST PUSH1 0x1 PUSH1 0x2 DUP9 MUL ADD DUP9 SSTORE POP POP POP JUMPDEST POP POP POP POP POP POP JUMP JUMPDEST PUSH2 0x3D79 DUP1 PUSH2 0x46B PUSH0 CODECOPY PUSH0 RETURN INVALID PUSH1 0x80 PUSH1 0x40 MSTORE PUSH1 0x4 CALLDATASIZE LT PUSH2 0x20D JUMPI PUSH0 CALLDATALOAD PUSH1 0xE0 SHR DUP1 PUSH4 0x715018A6 GT PUSH2 0x117 JUMPI DUP1 PUSH4 0xA457C2D7 GT PUSH2 0x9F JUMPI DUP1 PUSH4 0xBF3506C1 GT PUSH2 0x6E JUMPI DUP1 PUSH4 0xBF3506C1 EQ PUSH2 0x7AF JUMPI DUP1 PUSH4 0xC30A0F25 EQ PUSH2 0x7EB JUMPI DUP1 PUSH4 0xDD62ED3E EQ PUSH2 0x827 JUMPI DUP1 PUSH4 0xE30443BC EQ PUSH2 0x863 JUMPI DUP1 PUSH4 0xF2FDE38B EQ PUSH2 0x88B JUMPI PUSH2 0x20D JUMP JUMPDEST DUP1 PUSH4 0xA457C2D7 EQ PUSH2 0x6BF JUMPI DUP1 PUSH4 0xA8B9D240 EQ PUSH2 0x6FB JUMPI DUP1 PUSH4 0xA9059CBB EQ PUSH2 0x737 JUMPI DUP1 PUSH4 0xAAFD847A EQ PUSH2 0x773 JUMPI PUSH2 0x20D JUMP JUMPDEST DUP1 PUSH4 0x8DA5CB5B GT PUSH2 0xE6 JUMPI DUP1 PUSH4 0x8DA5CB5B EQ PUSH2 0x5DB JUMPI DUP1 PUSH4 0x91B89FBA EQ PUSH2 0x605 JUMPI DUP1 PUSH4 0x95D89B41 EQ PUSH2 0x641 JUMPI DUP1 PUSH4 0x9E1E0661 EQ PUSH2 0x66B JUMPI DUP1 PUSH4 0xA39185D7 EQ PUSH2 0x695 JUMPI PUSH2 0x20D JUMP JUMPDEST DUP1 PUSH4 0x715018A6 EQ PUSH2 0x531 JUMPI DUP1 PUSH4 0x71F971F9 EQ PUSH2 0x547 JUMPI DUP1 PUSH4 0x7B510FE8 EQ PUSH2 0x571 JUMPI DUP1 PUSH4 0x85A6B3AE EQ PUSH2 0x5B1 JUMPI PUSH2 0x20D JUMP JUMPDEST DUP1 PUSH4 0x27CE0147 GT PUSH2 0x19A JUMPI DUP1 PUSH4 0x497EC823 GT PUSH2 0x169 JUMPI DUP1 PUSH4 0x497EC823 EQ PUSH2 0x453 JUMPI DUP1 PUSH4 0x4E7B827F EQ PUSH2 0x47B JUMPI DUP1 PUSH4 0x68F4D735 EQ PUSH2 0x4B7 JUMPI DUP1 PUSH4 0x6A474002 EQ PUSH2 0x4DF JUMPI DUP1 PUSH4 0x70A08231 EQ PUSH2 0x4F5 JUMPI PUSH2 0x20D JUMP JUMPDEST DUP1 PUSH4 0x27CE0147 EQ PUSH2 0x389 JUMPI DUP1 PUSH4 0x313CE567 EQ PUSH2 0x3C5 JUMPI DUP1 PUSH4 0x39509351 EQ PUSH2 0x3EF JUMPI DUP1 PUSH4 0x3B36A1D7 EQ PUSH2 0x42B JUMPI PUSH2 0x20D JUMP JUMPDEST DUP1 PUSH4 0x95EA7B3 GT PUSH2 0x1E1 JUMPI DUP1 PUSH4 0x95EA7B3 EQ PUSH2 0x295 JUMPI DUP1 PUSH4 0x18160DDD EQ PUSH2 0x2D1 JUMPI DUP1 PUSH4 0x20800A00 EQ PUSH2 0x2FB JUMPI DUP1 PUSH4 0x226CFA3D EQ PUSH2 0x311 JUMPI DUP1 PUSH4 0x23B872DD EQ PUSH2 0x34D JUMPI PUSH2 0x20D JUMP JUMPDEST DUP1 PUSH3 0xAE3BF8 EQ PUSH2 0x211 JUMPI DUP1 PUSH4 0x3C83302 EQ PUSH2 0x239 JUMPI DUP1 PUSH4 0x483F7A0 EQ PUSH2 0x243 JUMPI DUP1 PUSH4 0x6FDDE03 EQ PUSH2 0x26B JUMPI JUMPDEST PUSH0 DUP1 REVERT JUMPDEST CALLVALUE DUP1 ISZERO PUSH2 0x21C JUMPI PUSH0 DUP1 REVERT JUMPDEST POP PUSH2 0x237 PUSH1 0x4 DUP1 CALLDATASIZE SUB DUP2 ADD SWAP1 PUSH2 0x232 SWAP2 SWAP1 PUSH2 0x2BAA JUMP JUMPDEST PUSH2 0x8B3 JUMP JUMPDEST STOP JUMPDEST PUSH2 0x241 PUSH2 0xAB7 JUMP JUMPDEST STOP JUMPDEST CALLVALUE DUP1 ISZERO PUSH2 0x24E JUMPI PUSH0 DUP1 REVERT JUMPDEST POP PUSH2 0x269 PUSH1 0x4 DUP1 CALLDATASIZE SUB DUP2 ADD SWAP1 PUSH2 0x264 SWAP2 SWAP1 PUSH2 0x2C0A JUMP JUMPDEST PUSH2 0xC15 JUMP JUMPDEST STOP JUMPDEST CALLVALUE DUP1 ISZERO PUSH2 0x276 JUMPI PUSH0 DUP1 REVERT JUMPDEST POP PUSH2 0x27F PUSH2 0xE06 JUMP JUMPDEST PUSH1 0x40 MLOAD PUSH2 0x28C SWAP2 SWAP1 PUSH2 0x2CB8 JUMP JUMPDEST PUSH1 0x40 MLOAD DUP1 SWAP2 SUB SWAP1 RETURN JUMPDEST CALLVALUE DUP1 ISZERO PUSH2 0x2A0 JUMPI PUSH0 DUP1 REVERT JUMPDEST POP PUSH2 0x2BB PUSH1 0x4 DUP1 CALLDATASIZE SUB DUP2 ADD SWAP1 PUSH2 0x2B6 SWAP2 SWAP1 PUSH2 0x2D0B JUMP JUMPDEST PUSH2 0xE96 JUMP JUMPDEST PUSH1 0x40 MLOAD PUSH2 0x2C8 SWAP2 SWAP1 PUSH2 0x2D58 JUMP JUMPDEST PUSH1 0x40 MLOAD DUP1 SWAP2 SUB SWAP1 RETURN JUMPDEST CALLVALUE DUP1 ISZERO PUSH2 0x2DC JUMPI PUSH0 DUP1 REVERT JUMPDEST POP PUSH2 0x2E5 PUSH2 0xEB3 JUMP JUMPDEST PUSH1 0x40 MLOAD PUSH2 0x2F2 SWAP2 SWAP1 PUSH2 0x2D80 JUMP JUMPDEST PUSH1 0x40 MLOAD DUP1 SWAP2 SUB SWAP1 RETURN JUMPDEST CALLVALUE DUP1 ISZERO PUSH2 0x306 JUMPI PUSH0 DUP1 REVERT JUMPDEST POP PUSH2 0x30F PUSH2 0xEBC JUMP JUMPDEST STOP JUMPDEST CALLVALUE DUP1 ISZERO PUSH2 0x31C JUMPI PUSH0 DUP1 REVERT JUMPDEST POP PUSH2 0x337 PUSH1 0x4 DUP1 CALLDATASIZE SUB DUP2 ADD SWAP1 PUSH2 0x332 SWAP2 SWAP1 PUSH2 0x2BAA JUMP JUMPDEST PUSH2 0xF87 JUMP JUMPDEST PUSH1 0x40 MLOAD PUSH2 0x344 SWAP2 SWAP1 PUSH2 0x2D80 JUMP JUMPDEST PUSH1 0x40 MLOAD DUP1 SWAP2 SUB SWAP1 RETURN JUMPDEST CALLVALUE DUP1 ISZERO PUSH2 0x358 JUMPI PUSH0 DUP1 REVERT JUMPDEST POP PUSH2 0x373 PUSH1 0x4 DUP1 CALLDATASIZE SUB DUP2 ADD SWAP1 PUSH2 0x36E SWAP2 SWAP1 PUSH2 0x2D99 JUMP JUMPDEST PUSH2 0xF9C JUMP JUMPDEST PUSH1 0x40 MLOAD PUSH2 0x380 SWAP2 SWAP1 PUSH2 0x2D58 JUMP JUMPDEST PUSH1 0x40 MLOAD DUP1 SWAP2 SUB SWAP1 RETURN JUMPDEST CALLVALUE DUP1 ISZERO PUSH2 0x394 JUMPI PUSH0 DUP1 REVERT JUMPDEST POP PUSH2 0x3AF PUSH1 0x4 DUP1 CALLDATASIZE SUB DUP2 ADD SWAP1 PUSH2 0x3AA SWAP2 SWAP1 PUSH2 0x2BAA JUMP JUMPDEST PUSH2 0x1070 JUMP JUMPDEST PUSH1 0x40 MLOAD PUSH2 0x3BC SWAP2 SWAP1 PUSH2 0x2D80 JUMP JUMPDEST PUSH1 0x40 MLOAD DUP1 SWAP2 SUB SWAP1 RETURN JUMPDEST CALLVALUE DUP1 ISZERO PUSH2 0x3D0 JUMPI PUSH0 DUP1 REVERT JUMPDEST POP PUSH2 0x3D9 PUSH2 0x10F9 JUMP JUMPDEST PUSH1 0x40 MLOAD PUSH2 0x3E6 SWAP2 SWAP1 PUSH2 0x2E04 JUMP JUMPDEST PUSH1 0x40 MLOAD DUP1 SWAP2 SUB SWAP1 RETURN JUMPDEST CALLVALUE DUP1 ISZERO PUSH2 0x3FA JUMPI PUSH0 DUP1 REVERT JUMPDEST POP PUSH2 0x415 PUSH1 0x4 DUP1 CALLDATASIZE SUB DUP2 ADD SWAP1 PUSH2 0x410 SWAP2 SWAP1 PUSH2 0x2D0B JUMP JUMPDEST PUSH2 0x1101 JUMP JUMPDEST PUSH1 0x40 MLOAD PUSH2 0x422 SWAP2 SWAP1 PUSH2 0x2D58 JUMP JUMPDEST PUSH1 0x40 MLOAD DUP1 SWAP2 SUB SWAP1 RETURN JUMPDEST CALLVALUE DUP1 ISZERO PUSH2 0x436 JUMPI PUSH0 DUP1 REVERT JUMPDEST POP PUSH2 0x451 PUSH1 0x4 DUP1 CALLDATASIZE SUB DUP2 ADD SWAP1 PUSH2 0x44C SWAP2 SWAP1 PUSH2 0x2BAA JUMP JUMPDEST PUSH2 0x11AF JUMP JUMPDEST STOP JUMPDEST CALLVALUE DUP1 ISZERO PUSH2 0x45E JUMPI PUSH0 DUP1 REVERT JUMPDEST POP PUSH2 0x479 PUSH1 0x4 DUP1 CALLDATASIZE SUB DUP2 ADD SWAP1 PUSH2 0x474 SWAP2 SWAP1 PUSH2 0x2E1D JUMP JUMPDEST PUSH2 0x12E2 JUMP JUMPDEST STOP JUMPDEST CALLVALUE DUP1 ISZERO PUSH2 0x486 JUMPI PUSH0 DUP1 REVERT JUMPDEST POP PUSH2 0x4A1 PUSH1 0x4 DUP1 CALLDATASIZE SUB DUP2 ADD SWAP1 PUSH2 0x49C SWAP2 SWAP1 PUSH2 0x2BAA JUMP JUMPDEST PUSH2 0x14E0 JUMP JUMPDEST PUSH1 0x40 MLOAD PUSH2 0x4AE SWAP2 SWAP1 PUSH2 0x2D58 JUMP JUMPDEST PUSH1 0x40 MLOAD DUP1 SWAP2 SUB SWAP1 RETURN JUMPDEST CALLVALUE DUP1 ISZERO PUSH2 0x4C2 JUMPI PUSH0 DUP1 REVERT JUMPDEST POP PUSH2 0x4DD PUSH1 0x4 DUP1 CALLDATASIZE SUB DUP2 ADD SWAP1 PUSH2 0x4D8 SWAP2 SWAP1 PUSH2 0x2EBC JUMP JUMPDEST PUSH2 0x14FD JUMP JUMPDEST STOP JUMPDEST CALLVALUE DUP1 ISZERO PUSH2 0x4EA JUMPI PUSH0 DUP1 REVERT JUMPDEST POP PUSH2 0x4F3 PUSH2 0x16EE JUMP JUMPDEST STOP JUMPDEST CALLVALUE DUP1 ISZERO PUSH2 0x500 JUMPI PUSH0 DUP1 REVERT JUMPDEST POP PUSH2 0x51B PUSH1 0x4 DUP1 CALLDATASIZE SUB DUP2 ADD SWAP1 PUSH2 0x516 SWAP2 SWAP1 PUSH2 0x2BAA JUMP JUMPDEST PUSH2 0x17EA JUMP JUMPDEST PUSH1 0x40 MLOAD PUSH2 0x528 SWAP2 SWAP1 PUSH2 0x2D80 JUMP JUMPDEST PUSH1 0x40 MLOAD DUP1 SWAP2 SUB SWAP1 RETURN JUMPDEST CALLVALUE DUP1 ISZERO PUSH2 0x53C JUMPI PUSH0 DUP1 REVERT JUMPDEST POP PUSH2 0x545 PUSH2 0x1830 JUMP JUMPDEST STOP JUMPDEST CALLVALUE DUP1 ISZERO PUSH2 0x552 JUMPI PUSH0 DUP1 REVERT JUMPDEST POP PUSH2 0x55B PUSH2 0x197E JUMP JUMPDEST PUSH1 0x40 MLOAD PUSH2 0x568 SWAP2 SWAP1 PUSH2 0x2D80 JUMP JUMPDEST PUSH1 0x40 MLOAD DUP1 SWAP2 SUB SWAP1 RETURN JUMPDEST CALLVALUE DUP1 ISZERO PUSH2 0x57C JUMPI PUSH0 DUP1 REVERT JUMPDEST POP PUSH2 0x597 PUSH1 0x4 DUP1 CALLDATASIZE SUB DUP2 ADD SWAP1 PUSH2 0x592 SWAP2 SWAP1 PUSH2 0x2BAA JUMP JUMPDEST PUSH2 0x198A JUMP JUMPDEST PUSH1 0x40 MLOAD PUSH2 0x5A8 SWAP6 SWAP5 SWAP4 SWAP3 SWAP2 SWAP1 PUSH2 0x2F16 JUMP JUMPDEST PUSH1 0x40 MLOAD DUP1 SWAP2 SUB SWAP1 RETURN JUMPDEST CALLVALUE DUP1 ISZERO PUSH2 0x5BC JUMPI PUSH0 DUP1 REVERT JUMPDEST POP PUSH2 0x5C5 PUSH2 0x19F6 JUMP JUMPDEST PUSH1 0x40 MLOAD PUSH2 0x5D2 SWAP2 SWAP1 PUSH2 0x2D80 JUMP JUMPDEST PUSH1 0x40 MLOAD DUP1 SWAP2 SUB SWAP1 RETURN JUMPDEST CALLVALUE DUP1 ISZERO PUSH2 0x5E6 JUMPI PUSH0 DUP1 REVERT JUMPDEST POP PUSH2 0x5EF PUSH2 0x19FC JUMP JUMPDEST PUSH1 0x40 MLOAD PUSH2 0x5FC SWAP2 SWAP1 PUSH2 0x2F67 JUMP JUMPDEST PUSH1 0x40 MLOAD DUP1 SWAP2 SUB SWAP1 RETURN JUMPDEST CALLVALUE DUP1 ISZERO PUSH2 0x610 JUMPI PUSH0 DUP1 REVERT JUMPDEST POP PUSH2 0x62B PUSH1 0x4 DUP1 CALLDATASIZE SUB DUP2 ADD SWAP1 PUSH2 0x626 SWAP2 SWAP1 PUSH2 0x2BAA JUMP JUMPDEST PUSH2 0x1A23 JUMP JUMPDEST PUSH1 0x40 MLOAD PUSH2 0x638 SWAP2 SWAP1 PUSH2 0x2D80 JUMP JUMPDEST PUSH1 0x40 MLOAD DUP1 SWAP2 SUB SWAP1 RETURN JUMPDEST CALLVALUE DUP1 ISZERO PUSH2 0x64C JUMPI PUSH0 DUP1 REVERT JUMPDEST POP PUSH2 0x655 PUSH2 0x1A34 JUMP JUMPDEST PUSH1 0x40 MLOAD PUSH2 0x662 SWAP2 SWAP1 PUSH2 0x2CB8 JUMP JUMPDEST PUSH1 0x40 MLOAD DUP1 SWAP2 SUB SWAP1 RETURN JUMPDEST CALLVALUE DUP1 ISZERO PUSH2 0x676 JUMPI PUSH0 DUP1 REVERT JUMPDEST POP PUSH2 0x67F PUSH2 0x1AC4 JUMP JUMPDEST PUSH1 0x40 MLOAD PUSH2 0x68C SWAP2 SWAP1 PUSH2 0x2D80 JUMP JUMPDEST PUSH1 0x40 MLOAD DUP1 SWAP2 SUB SWAP1 RETURN JUMPDEST CALLVALUE DUP1 ISZERO PUSH2 0x6A0 JUMPI PUSH0 DUP1 REVERT JUMPDEST POP PUSH2 0x6A9 PUSH2 0x1ACA JUMP JUMPDEST PUSH1 0x40 MLOAD PUSH2 0x6B6 SWAP2 SWAP1 PUSH2 0x2D80 JUMP JUMPDEST PUSH1 0x40 MLOAD DUP1 SWAP2 SUB SWAP1 RETURN JUMPDEST CALLVALUE DUP1 ISZERO PUSH2 0x6CA JUMPI PUSH0 DUP1 REVERT JUMPDEST POP PUSH2 0x6E5 PUSH1 0x4 DUP1 CALLDATASIZE SUB DUP2 ADD SWAP1 PUSH2 0x6E0 SWAP2 SWAP1 PUSH2 0x2D0B JUMP JUMPDEST PUSH2 0x1AD0 JUMP JUMPDEST PUSH1 0x40 MLOAD PUSH2 0x6F2 SWAP2 SWAP1 PUSH2 0x2D58 JUMP JUMPDEST PUSH1 0x40 MLOAD DUP1 SWAP2 SUB SWAP1 RETURN JUMPDEST CALLVALUE DUP1 ISZERO PUSH2 0x706 JUMPI PUSH0 DUP1 REVERT JUMPDEST POP PUSH2 0x721 PUSH1 0x4 DUP1 CALLDATASIZE SUB DUP2 ADD SWAP1 PUSH2 0x71C SWAP2 SWAP1 PUSH2 0x2BAA JUMP JUMPDEST PUSH2 0x1B98 JUMP JUMPDEST PUSH1 0x40 MLOAD PUSH2 0x72E SWAP2 SWAP1 PUSH2 0x2D80 JUMP JUMPDEST PUSH1 0x40 MLOAD DUP1 SWAP2 SUB SWAP1 RETURN JUMPDEST CALLVALUE DUP1 ISZERO PUSH2 0x742 JUMPI PUSH0 DUP1 REVERT JUMPDEST POP PUSH2 0x75D PUSH1 0x4 DUP1 CALLDATASIZE SUB DUP2 ADD SWAP1 PUSH2 0x758 SWAP2 SWAP1 PUSH2 0x2D0B JUMP JUMPDEST PUSH2 0x1BF8 JUMP JUMPDEST PUSH1 0x40 MLOAD PUSH2 0x76A SWAP2 SWAP1 PUSH2 0x2D58 JUMP JUMPDEST PUSH1 0x40 MLOAD DUP1 SWAP2 SUB SWAP1 RETURN JUMPDEST CALLVALUE DUP1 ISZERO PUSH2 0x77E JUMPI PUSH0 DUP1 REVERT JUMPDEST POP PUSH2 0x799 PUSH1 0x4 DUP1 CALLDATASIZE SUB DUP2 ADD SWAP1 PUSH2 0x794 SWAP2 SWAP1 PUSH2 0x2BAA JUMP JUMPDEST PUSH2 0x1C15 JUMP JUMPDEST PUSH1 0x40 MLOAD PUSH2 0x7A6 SWAP2 SWAP1 PUSH2 0x2D80 JUMP JUMPDEST PUSH1 0x40 MLOAD DUP1 SWAP2 SUB SWAP1 RETURN JUMPDEST CALLVALUE DUP1 ISZERO PUSH2 0x7BA JUMPI PUSH0 DUP1 REVERT JUMPDEST POP PUSH2 0x7D5 PUSH1 0x4 DUP1 CALLDATASIZE SUB DUP2 ADD SWAP1 PUSH2 0x7D0 SWAP2 SWAP1 PUSH2 0x2BAA JUMP JUMPDEST PUSH2 0x1C5B JUMP JUMPDEST PUSH1 0x40 MLOAD PUSH2 0x7E2 SWAP2 SWAP1 PUSH2 0x2D58 JUMP JUMPDEST PUSH1 0x40 MLOAD DUP1 SWAP2 SUB SWAP1 RETURN JUMPDEST CALLVALUE DUP1 ISZERO PUSH2 0x7F6 JUMPI PUSH0 DUP1 REVERT JUMPDEST POP PUSH2 0x811 PUSH1 0x4 DUP1 CALLDATASIZE SUB DUP2 ADD SWAP1 PUSH2 0x80C SWAP2 SWAP1 PUSH2 0x2FB3 JUMP JUMPDEST PUSH2 0x1CB1 JUMP JUMPDEST PUSH1 0x40 MLOAD PUSH2 0x81E SWAP2 SWAP1 PUSH2 0x2D58 JUMP JUMPDEST PUSH1 0x40 MLOAD DUP1 SWAP2 SUB SWAP1 RETURN JUMPDEST CALLVALUE DUP1 ISZERO PUSH2 0x832 JUMPI PUSH0 DUP1 REVERT JUMPDEST POP PUSH2 0x84D PUSH1 0x4 DUP1 CALLDATASIZE SUB DUP2 ADD SWAP1 PUSH2 0x848 SWAP2 SWAP1 PUSH2 0x2E1D JUMP JUMPDEST PUSH2 0x1CCE JUMP JUMPDEST PUSH1 0x40 MLOAD PUSH2 0x85A SWAP2 SWAP1 PUSH2 0x2D80 JUMP JUMPDEST PUSH1 0x40 MLOAD DUP1 SWAP2 SUB SWAP1 RETURN JUMPDEST CALLVALUE DUP1 ISZERO PUSH2 0x86E JUMPI PUSH0 DUP1 REVERT JUMPDEST POP PUSH2 0x889 PUSH1 0x4 DUP1 CALLDATASIZE SUB DUP2 ADD SWAP1 PUSH2 0x884 SWAP2 SWAP1 PUSH2 0x2D0B JUMP JUMPDEST PUSH2 0x1D50 JUMP JUMPDEST STOP JUMPDEST CALLVALUE DUP1 ISZERO PUSH2 0x896 JUMPI PUSH0 DUP1 REVERT JUMPDEST POP PUSH2 0x8B1 PUSH1 0x4 DUP1 CALLDATASIZE SUB DUP2 ADD SWAP1 PUSH2 0x8AC SWAP2 SWAP1 PUSH2 0x2BAA JUMP JUMPDEST PUSH2 0x1EBE JUMP JUMPDEST STOP JUMPDEST PUSH2 0x8BB PUSH2 0x207B JUMP JUMPDEST PUSH20 0xFFFFFFFFFFFFFFFFFFFFFFFFFFFFFFFFFFFFFFFF AND PUSH0 DUP1 SLOAD SWAP1 PUSH2 0x100 EXP SWAP1 DIV PUSH20 0xFFFFFFFFFFFFFFFFFFFFFFFFFFFFFFFFFFFFFFFF AND PUSH20 0xFFFFFFFFFFFFFFFFFFFFFFFFFFFFFFFFFFFFFFFF AND EQ PUSH2 0x947 JUMPI PUSH1 0x40 MLOAD PUSH32 0x8C379A000000000000000000000000000000000000000000000000000000000 DUP2 MSTORE PUSH1 0x4 ADD PUSH2 0x93E SWAP1 PUSH2 0x3028 JUMP JUMPDEST PUSH1 0x40 MLOAD DUP1 SWAP2 SUB SWAP1 REVERT JUMPDEST ADDRESS PUSH20 0xFFFFFFFFFFFFFFFFFFFFFFFFFFFFFFFFFFFFFFFF AND DUP2 PUSH20 0xFFFFFFFFFFFFFFFFFFFFFFFFFFFFFFFFFFFFFFFF AND SUB PUSH2 0x9B5 JUMPI PUSH1 0x40 MLOAD PUSH32 0x8C379A000000000000000000000000000000000000000000000000000000000 DUP2 MSTORE PUSH1 0x4 ADD PUSH2 0x9AC SWAP1 PUSH2 0x3090 JUMP JUMPDEST PUSH1 0x40 MLOAD DUP1 SWAP2 SUB SWAP1 REVERT JUMPDEST PUSH0 DUP2 PUSH20 0xFFFFFFFFFFFFFFFFFFFFFFFFFFFFFFFFFFFFFFFF AND PUSH4 0x70A08231 ADDRESS PUSH1 0x40 MLOAD DUP3 PUSH4 0xFFFFFFFF AND PUSH1 0xE0 SHL DUP2 MSTORE PUSH1 0x4 ADD PUSH2 0x9EF SWAP2 SWAP1 PUSH2 0x2F67 JUMP JUMPDEST PUSH1 0x20 PUSH1 0x40 MLOAD DUP1 DUP4 SUB DUP2 DUP7 GAS STATICCALL ISZERO DUP1 ISZERO PUSH2 0xA0A JUMPI RETURNDATASIZE PUSH0 DUP1 RETURNDATACOPY RETURNDATASIZE PUSH0 REVERT JUMPDEST POP POP POP POP PUSH1 0x40 MLOAD RETURNDATASIZE PUSH1 0x1F NOT PUSH1 0x1F DUP3 ADD AND DUP3 ADD DUP1 PUSH1 0x40 MSTORE POP DUP2 ADD SWAP1 PUSH2 0xA2E SWAP2 SWAP1 PUSH2 0x30C2 JUMP JUMPDEST SWAP1 POP DUP2 PUSH20 0xFFFFFFFFFFFFFFFFFFFFFFFFFFFFFFFFFFFFFFFF AND PUSH4 0xA9059CBB PUSH2 0xA54 PUSH2 0x19FC JUMP JUMPDEST DUP4 PUSH1 0x40 MLOAD DUP4 PUSH4 0xFFFFFFFF AND PUSH1 0xE0 SHL DUP2 MSTORE PUSH1 0x4 ADD PUSH2 0xA72 SWAP3 SWAP2 SWAP1 PUSH2 0x30ED JUMP JUMPDEST PUSH1 0x20 PUSH1 0x40 MLOAD DUP1 DUP4 SUB DUP2 PUSH0 DUP8 GAS CALL ISZERO DUP1 ISZERO PUSH2 0xA8E JUMPI RETURNDATASIZE PUSH0 DUP1 RETURNDATACOPY RETURNDATASIZE PUSH0 REVERT JUMPDEST POP POP POP POP PUSH1 0x40 MLOAD RETURNDATASIZE PUSH1 0x1F NOT PUSH1 0x1F DUP3 ADD AND DUP3 ADD DUP1 PUSH1 0x40 MSTORE POP DUP2 ADD SWAP1 PUSH2 0xAB2 SWAP2 SWAP1 PUSH2 0x3128 JUMP JUMPDEST POP POP POP JUMP JUMPDEST PUSH2 0xABF PUSH2 0x207B JUMP JUMPDEST PUSH20 0xFFFFFFFFFFFFFFFFFFFFFFFFFFFFFFFFFFFFFFFF AND PUSH0 DUP1 SLOAD SWAP1 PUSH2 0x100 EXP SWAP1 DIV PUSH20 0xFFFFFFFFFFFFFFFFFFFFFFFFFFFFFFFFFFFFFFFF AND PUSH20 0xFFFFFFFFFFFFFFFFFFFFFFFFFFFFFFFFFFFFFFFF AND EQ PUSH2 0xB4B JUMPI PUSH1 0x40 MLOAD PUSH32 0x8C379A000000000000000000000000000000000000000000000000000000000 DUP2 MSTORE PUSH1 0x4 ADD PUSH2 0xB42 SWAP1 PUSH2 0x3028 JUMP JUMPDEST PUSH1 0x40 MLOAD DUP1 SWAP2 SUB SWAP1 REVERT JUMPDEST PUSH0 CALLVALUE GT PUSH2 0xB8D JUMPI PUSH1 0x40 MLOAD PUSH32 0x8C379A000000000000000000000000000000000000000000000000000000000 DUP2 MSTORE PUSH1 0x4 ADD PUSH2 0xB84 SWAP1 PUSH2 0x319D JUMP JUMPDEST PUSH1 0x40 MLOAD DUP1 SWAP2 SUB SWAP1 REVERT JUMPDEST PUSH0 CALLVALUE TIMESTAMP PREVRANDAO PUSH1 0x40 MLOAD PUSH1 0x20 ADD PUSH2 0xBA3 SWAP4 SWAP3 SWAP2 SWAP1 PUSH2 0x31DB JUMP JUMPDEST PUSH1 0x40 MLOAD PUSH1 0x20 DUP2 DUP4 SUB SUB DUP2 MSTORE SWAP1 PUSH1 0x40 MSTORE DUP1 MLOAD SWAP1 PUSH1 0x20 ADD KECCAK256 SWAP1 POP PUSH2 0xBC4 CALLVALUE PUSH2 0x2082 JUMP JUMPDEST ADDRESS PUSH20 0xFFFFFFFFFFFFFFFFFFFFFFFFFFFFFFFFFFFFFFFF AND PUSH32 0x1B965CB42B9E88623034282DFC0625466BAD745B5E23C4526E96E6913FFCAA40 DUP3 PUSH1 0x40 MLOAD PUSH2 0xC0A SWAP2 SWAP1 PUSH2 0x3226 JUMP JUMPDEST PUSH1 0x40 MLOAD DUP1 SWAP2 SUB SWAP1 LOG2 POP JUMP JUMPDEST PUSH2 0xC1D PUSH2 0x207B JUMP JUMPDEST PUSH20 0xFFFFFFFFFFFFFFFFFFFFFFFFFFFFFFFFFFFFFFFF AND PUSH0 DUP1 SLOAD SWAP1 PUSH2 0x100 EXP SWAP1 DIV PUSH20 0xFFFFFFFFFFFFFFFFFFFFFFFFFFFFFFFFFFFFFFFF AND PUSH20 0xFFFFFFFFFFFFFFFFFFFFFFFFFFFFFFFFFFFFFFFF AND EQ PUSH2 0xCA9 JUMPI PUSH1 0x40 MLOAD PUSH32 0x8C379A000000000000000000000000000000000000000000000000000000000 DUP2 MSTORE PUSH1 0x4 ADD PUSH2 0xCA0 SWAP1 PUSH2 0x3028 JUMP JUMPDEST PUSH1 0x40 MLOAD DUP1 SWAP2 SUB SWAP1 REVERT JUMPDEST DUP1 ISZERO ISZERO PUSH1 0xA PUSH0 DUP5 PUSH20 0xFFFFFFFFFFFFFFFFFFFFFFFFFFFFFFFFFFFFFFFF AND PUSH20 0xFFFFFFFFFFFFFFFFFFFFFFFFFFFFFFFFFFFFFFFF AND DUP2 MSTORE PUSH1 0x20 ADD SWAP1 DUP2 MSTORE PUSH1 0x20 ADD PUSH0 KECCAK256 PUSH0 SWAP1 SLOAD SWAP1 PUSH2 0x100 EXP SWAP1 DIV PUSH1 0xFF AND ISZERO ISZERO SUB PUSH2 0xD38 JUMPI PUSH1 0x40 MLOAD PUSH32 0x8C379A000000000000000000000000000000000000000000000000000000000 DUP2 MSTORE PUSH1 0x4 ADD PUSH2 0xD2F SWAP1 PUSH2 0x3289 JUMP JUMPDEST PUSH1 0x40 MLOAD DUP1 SWAP2 SUB SWAP1 REVERT JUMPDEST DUP1 PUSH1 0xA PUSH0 DUP5 PUSH20 0xFFFFFFFFFFFFFFFFFFFFFFFFFFFFFFFFFFFFFFFF AND PUSH20 0xFFFFFFFFFFFFFFFFFFFFFFFFFFFFFFFFFFFFFFFF AND DUP2 MSTORE PUSH1 0x20 ADD SWAP1 DUP2 MSTORE PUSH1 0x20 ADD PUSH0 KECCAK256 PUSH0 PUSH2 0x100 EXP DUP2 SLOAD DUP2 PUSH1 0xFF MUL NOT AND SWAP1 DUP4 ISZERO ISZERO MUL OR SWAP1 SSTORE POP DUP1 ISZERO PUSH2 0xDA1 JUMPI PUSH2 0xD9C DUP3 PUSH0 PUSH2 0x2190 JUMP JUMPDEST PUSH2 0xDB4 JUMP JUMPDEST PUSH2 0xDB3 DUP3 PUSH2 0xDAE DUP5 PUSH2 0x17EA JUMP JUMPDEST PUSH2 0x2190 JUMP JUMPDEST JUMPDEST DUP2 PUSH20 0xFFFFFFFFFFFFFFFFFFFFFFFFFFFFFFFFFFFFFFFF AND PUSH32 0xA3C7C11B2E12C4144B09A7813F3393BA646392788638998C97BE8DA908CF04BE DUP3 PUSH1 0x40 MLOAD PUSH2 0xDFA SWAP2 SWAP1 PUSH2 0x2D58 JUMP JUMPDEST PUSH1 0x40 MLOAD DUP1 SWAP2 SUB SWAP1 LOG2 POP POP JUMP JUMPDEST PUSH1 0x60 PUSH1 0x4 DUP1 SLOAD PUSH2 0xE15 SWAP1 PUSH2 0x32D4 JUMP JUMPDEST DUP1 PUSH1 0x1F ADD PUSH1 0x20 DUP1 SWAP2 DIV MUL PUSH1 0x20 ADD PUSH1 0x40 MLOAD SWAP1 DUP2 ADD PUSH1 0x40 MSTORE DUP1 SWAP3 SWAP2 SWAP1 DUP2 DUP2 MSTORE PUSH1 0x20 ADD DUP3 DUP1 SLOAD PUSH2 0xE41 SWAP1 PUSH2 0x32D4 JUMP JUMPDEST DUP1 ISZERO PUSH2 0xE8C JUMPI DUP1 PUSH1 0x1F LT PUSH2 0xE63 JUMPI PUSH2 0x100 DUP1 DUP4 SLOAD DIV MUL DUP4 MSTORE SWAP2 PUSH1 0x20 ADD SWAP2 PUSH2 0xE8C JUMP JUMPDEST DUP3 ADD SWAP2 SWAP1 PUSH0 MSTORE PUSH1 0x20 PUSH0 KECCAK256 SWAP1 JUMPDEST DUP2 SLOAD DUP2 MSTORE SWAP1 PUSH1 0x1 ADD SWAP1 PUSH1 0x20 ADD DUP1 DUP4 GT PUSH2 0xE6F JUMPI DUP3 SWAP1 SUB PUSH1 0x1F AND DUP3 ADD SWAP2 JUMPDEST POP POP POP POP POP SWAP1 POP SWAP1 JUMP JUMPDEST PUSH0 PUSH2 0xEA9 PUSH2 0xEA2 PUSH2 0x207B JUMP JUMPDEST DUP5 DUP5 PUSH2 0x2255 JUMP JUMPDEST PUSH1 0x1 SWAP1 POP SWAP3 SWAP2 POP POP JUMP JUMPDEST PUSH0 PUSH1 0x3 SLOAD SWAP1 POP SWAP1 JUMP JUMPDEST PUSH2 0xEC4 PUSH2 0x207B JUMP JUMPDEST PUSH20 0xFFFFFFFFFFFFFFFFFFFFFFFFFFFFFFFFFFFFFFFF AND PUSH0 DUP1 SLOAD SWAP1 PUSH2 0x100 EXP SWAP1 DIV PUSH20 0xFFFFFFFFFFFFFFFFFFFFFFFFFFFFFFFFFFFFFFFF AND PUSH20 0xFFFFFFFFFFFFFFFFFFFFFFFFFFFFFFFFFFFFFFFF AND EQ PUSH2 0xF50 JUMPI PUSH1 0x40 MLOAD PUSH32 0x8C379A000000000000000000000000000000000000000000000000000000000 DUP2 MSTORE PUSH1 0x4 ADD PUSH2 0xF47 SWAP1 PUSH2 0x3028 JUMP JUMPDEST PUSH1 0x40 MLOAD DUP1 SWAP2 SUB SWAP1 REVERT JUMPDEST PUSH0 SELFBALANCE SWAP1 POP PUSH2 0xF84 DUP2 PUSH2 0xF60 PUSH2 0x19FC JUMP JUMPDEST PUSH20 0xFFFFFFFFFFFFFFFFFFFFFFFFFFFFFFFFFFFFFFFF AND PUSH2 0x2418 SWAP1 SWAP2 SWAP1 PUSH4 0xFFFFFFFF AND JUMP JUMPDEST POP JUMP JUMPDEST PUSH1 0xB PUSH1 0x20 MSTORE DUP1 PUSH0 MSTORE PUSH1 0x40 PUSH0 KECCAK256 PUSH0 SWAP2 POP SWAP1 POP SLOAD DUP2 JUMP JUMPDEST PUSH0 PUSH2 0xFA8 DUP5 DUP5 DUP5 PUSH2 0x2508 JUMP JUMPDEST PUSH2 0x1065 DUP5 PUSH2 0xFB4 PUSH2 0x207B JUMP JUMPDEST PUSH2 0x1060 DUP6 PUSH1 0x40 MLOAD DUP1 PUSH1 0x60 ADD PUSH1 0x40 MSTORE DUP1 PUSH1 0x28 DUP2 MSTORE PUSH1 0x20 ADD PUSH2 0x3CF7 PUSH1 0x28 SWAP2 CODECOPY PUSH1 0x2 PUSH0 DUP12 PUSH20 0xFFFFFFFFFFFFFFFFFFFFFFFFFFFFFFFFFFFFFFFF AND PUSH20 0xFFFFFFFFFFFFFFFFFFFFFFFFFFFFFFFFFFFFFFFF AND DUP2 MSTORE PUSH1 0x20 ADD SWAP1 DUP2 MSTORE PUSH1 0x20 ADD PUSH0 KECCAK256 PUSH0 PUSH2 0x1017 PUSH2 0x207B JUMP JUMPDEST PUSH20 0xFFFFFFFFFFFFFFFFFFFFFFFFFFFFFFFFFFFFFFFF AND PUSH20 0xFFFFFFFFFFFFFFFFFFFFFFFFFFFFFFFFFFFFFFFF AND DUP2 MSTORE PUSH1 0x20 ADD SWAP1 DUP2 MSTORE PUSH1 0x20 ADD PUSH0 KECCAK256 SLOAD PUSH2 0x2543 SWAP1 SWAP3 SWAP2 SWAP1 PUSH4 0xFFFFFFFF AND JUMP JUMPDEST PUSH2 0x2255 JUMP JUMPDEST PUSH1 0x1 SWAP1 POP SWAP4 SWAP3 POP POP POP JUMP JUMPDEST PUSH0 PUSH17 0x100000000000000000000000000000000 PUSH1 0x8 PUSH0 DUP5 PUSH20 0xFFFFFFFFFFFFFFFFFFFFFFFFFFFFFFFFFFFFFFFF AND PUSH20 0xFFFFFFFFFFFFFFFFFFFFFFFFFFFFFFFFFFFFFFFF AND DUP2 MSTORE PUSH1 0x20 ADD SWAP1 DUP2 MSTORE PUSH1 0x20 ADD PUSH0 KECCAK256 SLOAD PUSH2 0x10DE PUSH2 0x10CD DUP6 PUSH2 0x17EA JUMP JUMPDEST PUSH1 0x6 SLOAD PUSH2 0x25A5 SWAP1 SWAP2 SWAP1 PUSH4 0xFFFFFFFF AND JUMP JUMPDEST PUSH2 0x10E8 SWAP2 SWAP1 PUSH2 0x333A JUMP JUMPDEST PUSH2 0x10F2 SWAP2 SWAP1 PUSH2 0x33A8 JUMP JUMPDEST SWAP1 POP SWAP2 SWAP1 POP JUMP JUMPDEST PUSH0 PUSH1 0x12 SWAP1 POP SWAP1 JUMP JUMPDEST PUSH0 PUSH2 0x11A5 PUSH2 0x110D PUSH2 0x207B JUMP JUMPDEST DUP5 PUSH2 0x11A0 DUP6 PUSH1 0x2 PUSH0 PUSH2 0x111D PUSH2 0x207B JUMP JUMPDEST PUSH20 0xFFFFFFFFFFFFFFFFFFFFFFFFFFFFFFFFFFFFFFFF AND PUSH20 0xFFFFFFFFFFFFFFFFFFFFFFFFFFFFFFFFFFFFFFFF AND DUP2 MSTORE PUSH1 0x20 ADD SWAP1 DUP2 MSTORE PUSH1 0x20 ADD PUSH0 KECCAK256 PUSH0 DUP10 PUSH20 0xFFFFFFFFFFFFFFFFFFFFFFFFFFFFFFFFFFFFFFFF AND PUSH20 0xFFFFFFFFFFFFFFFFFFFFFFFFFFFFFFFFFFFFFFFF AND DUP2 MSTORE PUSH1 0x20 ADD SWAP1 DUP2 MSTORE PUSH1 0x20 ADD PUSH0 KECCAK256 SLOAD PUSH2 0x261C SWAP1 SWAP2 SWAP1 PUSH4 0xFFFFFFFF AND JUMP JUMPDEST PUSH2 0x2255 JUMP JUMPDEST PUSH1 0x1 SWAP1 POP SWAP3 SWAP2 POP POP JUMP JUMPDEST PUSH2 0x11B7 PUSH2 0x207B JUMP JUMPDEST PUSH20 0xFFFFFFFFFFFFFFFFFFFFFFFFFFFFFFFFFFFFFFFF AND PUSH0 DUP1 SLOAD SWAP1 PUSH2 0x100 EXP SWAP1 DIV PUSH20 0xFFFFFFFFFFFFFFFFFFFFFFFFFFFFFFFFFFFFFFFF AND PUSH20 0xFFFFFFFFFFFFFFFFFFFFFFFFFFFFFFFFFFFFFFFF AND EQ PUSH2 0x1243 JUMPI PUSH1 0x40 MLOAD PUSH32 0x8C379A000000000000000000000000000000000000000000000000000000000 DUP2 MSTORE PUSH1 0x4 ADD PUSH2 0x123A SWAP1 PUSH2 0x3028 JUMP JUMPDEST PUSH1 0x40 MLOAD DUP1 SWAP2 SUB SWAP1 REVERT JUMPDEST PUSH0 PUSH20 0xFFFFFFFFFFFFFFFFFFFFFFFFFFFFFFFFFFFFFFFF AND DUP2 PUSH20 0xFFFFFFFFFFFFFFFFFFFFFFFFFFFFFFFFFFFFFFFF AND SUB PUSH2 0x12B1 JUMPI PUSH1 0x40 MLOAD PUSH32 0x8C379A000000000000000000000000000000000000000000000000000000000 DUP2 MSTORE PUSH1 0x4 ADD PUSH2 0x12A8 SWAP1 PUSH2 0x3422 JUMP JUMPDEST PUSH1 0x40 MLOAD DUP1 SWAP2 SUB SWAP1 REVERT JUMPDEST PUSH0 SELFBALANCE SWAP1 POP PUSH2 0x12DE DUP2 DUP4 PUSH20 0xFFFFFFFFFFFFFFFFFFFFFFFFFFFFFFFFFFFFFFFF AND PUSH2 0x2418 SWAP1 SWAP2 SWAP1 PUSH4 0xFFFFFFFF AND JUMP JUMPDEST POP POP JUMP JUMPDEST PUSH2 0x12EA PUSH2 0x207B JUMP JUMPDEST PUSH20 0xFFFFFFFFFFFFFFFFFFFFFFFFFFFFFFFFFFFFFFFF AND PUSH0 DUP1 SLOAD SWAP1 PUSH2 0x100 EXP SWAP1 DIV PUSH20 0xFFFFFFFFFFFFFFFFFFFFFFFFFFFFFFFFFFFFFFFF AND PUSH20 0xFFFFFFFFFFFFFFFFFFFFFFFFFFFFFFFFFFFFFFFF AND EQ PUSH2 0x1376 JUMPI PUSH1 0x40 MLOAD PUSH32 0x8C379A000000000000000000000000000000000000000000000000000000000 DUP2 MSTORE PUSH1 0x4 ADD PUSH2 0x136D SWAP1 PUSH2 0x3028 JUMP JUMPDEST PUSH1 0x40 MLOAD DUP1 SWAP2 SUB SWAP1 REVERT JUMPDEST ADDRESS PUSH20 0xFFFFFFFFFFFFFFFFFFFFFFFFFFFFFFFFFFFFFFFF AND DUP2 PUSH20 0xFFFFFFFFFFFFFFFFFFFFFFFFFFFFFFFFFFFFFFFF AND SUB PUSH2 0x13E4 JUMPI PUSH1 0x40 MLOAD PUSH32 0x8C379A000000000000000000000000000000000000000000000000000000000 DUP2 MSTORE PUSH1 0x4 ADD PUSH2 0x13DB SWAP1 PUSH2 0x3090 JUMP JUMPDEST PUSH1 0x40 MLOAD DUP1 SWAP2 SUB SWAP1 REVERT JUMPDEST PUSH0 DUP2 PUSH20 0xFFFFFFFFFFFFFFFFFFFFFFFFFFFFFFFFFFFFFFFF AND PUSH4 0x70A08231 ADDRESS PUSH1 0x40 MLOAD DUP3 PUSH4 0xFFFFFFFF AND PUSH1 0xE0 SHL DUP2 MSTORE PUSH1 0x4 ADD PUSH2 0x141E SWAP2 SWAP1 PUSH2 0x2F67 JUMP JUMPDEST PUSH1 0x20 PUSH1 0x40 MLOAD DUP1 DUP4 SUB DUP2 DUP7 GAS STATICCALL ISZERO DUP1 ISZERO PUSH2 0x1439 JUMPI RETURNDATASIZE PUSH0 DUP1 RETURNDATACOPY RETURNDATASIZE PUSH0 REVERT JUMPDEST POP POP POP POP PUSH1 0x40 MLOAD RETURNDATASIZE PUSH1 0x1F NOT PUSH1 0x1F DUP3 ADD AND DUP3 ADD DUP1 PUSH1 0x40 MSTORE POP DUP2 ADD SWAP1 PUSH2 0x145D SWAP2 SWAP1 PUSH2 0x30C2 JUMP JUMPDEST SWAP1 POP DUP2 PUSH20 0xFFFFFFFFFFFFFFFFFFFFFFFFFFFFFFFFFFFFFFFF AND PUSH4 0xA9059CBB DUP5 DUP4 PUSH1 0x40 MLOAD DUP4 PUSH4 0xFFFFFFFF AND PUSH1 0xE0 SHL DUP2 MSTORE PUSH1 0x4 ADD PUSH2 0x149A SWAP3 SWAP2 SWAP1 PUSH2 0x30ED JUMP JUMPDEST PUSH1 0x20 PUSH1 0x40 MLOAD DUP1 DUP4 SUB DUP2 PUSH0 DUP8 GAS CALL ISZERO DUP1 ISZERO PUSH2 0x14B6 JUMPI RETURNDATASIZE PUSH0 DUP1 RETURNDATACOPY RETURNDATASIZE PUSH0 REVERT JUMPDEST POP POP POP POP PUSH1 0x40 MLOAD RETURNDATASIZE PUSH1 0x1F NOT PUSH1 0x1F DUP3 ADD AND DUP3 ADD DUP1 PUSH1 0x40 MSTORE POP DUP2 ADD SWAP1 PUSH2 0x14DA SWAP2 SWAP1 PUSH2 0x3128 JUMP JUMPDEST POP POP POP POP JUMP JUMPDEST PUSH1 0xA PUSH1 0x20 MSTORE DUP1 PUSH0 MSTORE PUSH1 0x40 PUSH0 KECCAK256 PUSH0 SWAP2 POP SLOAD SWAP1 PUSH2 0x100 EXP SWAP1 DIV PUSH1 0xFF AND DUP2 JUMP JUMPDEST PUSH2 0x1506 CALLER PUSH2 0x1C5B JUMP JUMPDEST PUSH2 0x1545 JUMPI PUSH1 0x40 MLOAD PUSH32 0x8C379A000000000000000000000000000000000000000000000000000000000 DUP2 MSTORE PUSH1 0x4 ADD PUSH2 0x153C SWAP1 PUSH2 0x348A JUMP JUMPDEST PUSH1 0x40 MLOAD DUP1 SWAP2 SUB SWAP1 REVERT JUMPDEST PUSH0 DUP3 DUP3 PUSH1 0x40 MLOAD PUSH2 0x1556 SWAP3 SWAP2 SWAP1 PUSH2 0x34E4 JUMP JUMPDEST PUSH1 0x40 MLOAD DUP1 SWAP2 SUB SWAP1 KECCAK256 SWAP1 POP PUSH1 0xC PUSH0 DUP3 DUP2 MSTORE PUSH1 0x20 ADD SWAP1 DUP2 MSTORE PUSH1 0x20 ADD PUSH0 KECCAK256 PUSH0 SWAP1 SLOAD SWAP1 PUSH2 0x100 EXP SWAP1 DIV PUSH1 0xFF AND ISZERO PUSH2 0x15BE JUMPI PUSH1 0x40 MLOAD PUSH32 0x8C379A000000000000000000000000000000000000000000000000000000000 DUP2 MSTORE PUSH1 0x4 ADD PUSH2 0x15B5 SWAP1 PUSH2 0x3546 JUMP JUMPDEST PUSH1 0x40 MLOAD DUP1 SWAP2 SUB SWAP1 REVERT JUMPDEST PUSH0 PUSH2 0x15C8 CALLER PUSH2 0x2679 JUMP JUMPDEST SWAP1 POP PUSH8 0xDE0B6B3A7640000 DUP2 LT ISZERO PUSH2 0x1615 JUMPI PUSH1 0x40 MLOAD PUSH32 0x8C379A000000000000000000000000000000000000000000000000000000000 DUP2 MSTORE PUSH1 0x4 ADD PUSH2 0x160C SWAP1 PUSH2 0x35AE JUMP JUMPDEST PUSH1 0x40 MLOAD DUP1 SWAP2 SUB SWAP1 REVERT JUMPDEST PUSH1 0x1 PUSH1 0xC PUSH0 DUP5 DUP2 MSTORE PUSH1 0x20 ADD SWAP1 DUP2 MSTORE PUSH1 0x20 ADD PUSH0 KECCAK256 PUSH0 PUSH2 0x100 EXP DUP2 SLOAD DUP2 PUSH1 0xFF MUL NOT AND SWAP1 DUP4 ISZERO ISZERO MUL OR SWAP1 SSTORE POP DUP1 PUSH1 0xD PUSH0 DUP3 DUP3 SLOAD PUSH2 0x164F SWAP2 SWAP1 PUSH2 0x35CC JUMP JUMPDEST SWAP3 POP POP DUP2 SWAP1 SSTORE POP TIMESTAMP PUSH1 0xB PUSH0 CALLER PUSH20 0xFFFFFFFFFFFFFFFFFFFFFFFFFFFFFFFFFFFFFFFF AND PUSH20 0xFFFFFFFFFFFFFFFFFFFFFFFFFFFFFFFFFFFFFFFF AND DUP2 MSTORE PUSH1 0x20 ADD SWAP1 DUP2 MSTORE PUSH1 0x20 ADD PUSH0 KECCAK256 DUP2 SWAP1 SSTORE POP CALLER PUSH20 0xFFFFFFFFFFFFFFFFFFFFFFFFFFFFFFFFFFFFFFFF AND PUSH32 0x4804104CCBC53649F5B8B29ECF858272A4A6ED6B9949F0D30237C7A147E84671 DUP3 DUP5 PUSH1 0x40 MLOAD PUSH2 0x16E0 SWAP3 SWAP2 SWAP1 PUSH2 0x35FF JUMP JUMPDEST PUSH1 0x40 MLOAD DUP1 SWAP2 SUB SWAP1 LOG2 POP POP POP POP JUMP JUMPDEST PUSH2 0x16F7 CALLER PUSH2 0x1C5B JUMP JUMPDEST PUSH2 0x1736 JUMPI PUSH1 0x40 MLOAD PUSH32 0x8C379A000000000000000000000000000000000000000000000000000000000 DUP2 MSTORE PUSH1 0x4 ADD PUSH2 0x172D SWAP1 PUSH2 0x348A JUMP JUMPDEST PUSH1 0x40 MLOAD DUP1 SWAP2 SUB SWAP1 REVERT JUMPDEST PUSH0 PUSH2 0x1740 CALLER PUSH2 0x2679 JUMP JUMPDEST SWAP1 POP PUSH8 0xDE0B6B3A7640000 DUP2 LT ISZERO PUSH2 0x178D JUMPI PUSH1 0x40 MLOAD PUSH32 0x8C379A000000000000000000000000000000000000000000000000000000000 DUP2 MSTORE PUSH1 0x4 ADD PUSH2 0x1784 SWAP1 PUSH2 0x35AE JUMP JUMPDEST PUSH1 0x40 MLOAD DUP1 SWAP2 SUB SWAP1 REVERT JUMPDEST DUP1 PUSH1 0xD PUSH0 DUP3 DUP3 SLOAD PUSH2 0x179E SWAP2 SWAP1 PUSH2 0x35CC JUMP JUMPDEST SWAP3 POP POP DUP2 SWAP1 SSTORE POP TIMESTAMP PUSH1 0xB PUSH0 CALLER PUSH20 0xFFFFFFFFFFFFFFFFFFFFFFFFFFFFFFFFFFFFFFFF AND PUSH20 0xFFFFFFFFFFFFFFFFFFFFFFFFFFFFFFFFFFFFFFFF AND DUP2 MSTORE PUSH1 0x20 ADD SWAP1 DUP2 MSTORE PUSH1 0x20 ADD PUSH0 KECCAK256 DUP2 SWAP1 SSTORE POP POP JUMP JUMPDEST PUSH0 PUSH1 0x1 PUSH0 DUP4 PUSH20 0xFFFFFFFFFFFFFFFFFFFFFFFFFFFFFFFFFFFFFFFF AND PUSH20 0xFFFFFFFFFFFFFFFFFFFFFFFFFFFFFFFFFFFFFFFF AND DUP2 MSTORE PUSH1 0x20 ADD SWAP1 DUP2 MSTORE PUSH1 0x20 ADD PUSH0 KECCAK256 SLOAD SWAP1 POP SWAP2 SWAP1 POP JUMP JUMPDEST PUSH2 0x1838 PUSH2 0x207B JUMP JUMPDEST PUSH20 0xFFFFFFFFFFFFFFFFFFFFFFFFFFFFFFFFFFFFFFFF AND PUSH0 DUP1 SLOAD SWAP1 PUSH2 0x100 EXP SWAP1 DIV PUSH20 0xFFFFFFFFFFFFFFFFFFFFFFFFFFFFFFFFFFFFFFFF AND PUSH20 0xFFFFFFFFFFFFFFFFFFFFFFFFFFFFFFFFFFFFFFFF AND EQ PUSH2 0x18C4 JUMPI PUSH1 0x40 MLOAD PUSH32 0x8C379A000000000000000000000000000000000000000000000000000000000 DUP2 MSTORE PUSH1 0x4 ADD PUSH2 0x18BB SWAP1 PUSH2 0x3028 JUMP JUMPDEST PUSH1 0x40 MLOAD DUP1 SWAP2 SUB SWAP1 REVERT JUMPDEST PUSH0 PUSH20 0xFFFFFFFFFFFFFFFFFFFFFFFFFFFFFFFFFFFFFFFF AND PUSH0 DUP1 SLOAD SWAP1 PUSH2 0x100 EXP SWAP1 DIV PUSH20 0xFFFFFFFFFFFFFFFFFFFFFFFFFFFFFFFFFFFFFFFF AND PUSH20 0xFFFFFFFFFFFFFFFFFFFFFFFFFFFFFFFFFFFFFFFF AND PUSH32 0x8BE0079C531659141344CD1FD0A4F28419497F9722A3DAAFE3B4186F6B6457E0 PUSH1 0x40 MLOAD PUSH1 0x40 MLOAD DUP1 SWAP2 SUB SWAP1 LOG3 PUSH0 DUP1 PUSH0 PUSH2 0x100 EXP DUP2 SLOAD DUP2 PUSH20 0xFFFFFFFFFFFFFFFFFFFFFFFFFFFFFFFFFFFFFFFF MUL NOT AND SWAP1 DUP4 PUSH20 0xFFFFFFFFFFFFFFFFFFFFFFFFFFFFFFFFFFFFFFFF AND MUL OR SWAP1 SSTORE POP JUMP JUMPDEST PUSH8 0xDE0B6B3A7640000 DUP2 JUMP JUMPDEST PUSH0 DUP1 PUSH0 DUP1 PUSH0 DUP6 PUSH2 0x1999 DUP8 PUSH2 0x1B98 JUMP JUMPDEST PUSH2 0x19A2 DUP9 PUSH2 0x1070 JUMP JUMPDEST PUSH1 0xB PUSH0 DUP11 PUSH20 0xFFFFFFFFFFFFFFFFFFFFFFFFFFFFFFFFFFFFFFFF AND PUSH20 0xFFFFFFFFFFFFFFFFFFFFFFFFFFFFFFFFFFFFFFFF AND DUP2 MSTORE PUSH1 0x20 ADD SWAP1 DUP2 MSTORE PUSH1 0x20 ADD PUSH0 KECCAK256 SLOAD PUSH1 0xD SLOAD SWAP5 POP SWAP5 POP SWAP5 POP SWAP5 POP SWAP5 POP SWAP2 SWAP4 SWAP6 SWAP1 SWAP3 SWAP5 POP JUMP JUMPDEST PUSH1 0x7 SLOAD DUP2 JUMP JUMPDEST PUSH0 DUP1 PUSH0 SWAP1 SLOAD SWAP1 PUSH2 0x100 EXP SWAP1 DIV PUSH20 0xFFFFFFFFFFFFFFFFFFFFFFFFFFFFFFFFFFFFFFFF AND SWAP1 POP SWAP1 JUMP JUMPDEST PUSH0 PUSH2 0x1A2D DUP3 PUSH2 0x1B98 JUMP JUMPDEST SWAP1 POP SWAP2 SWAP1 POP JUMP JUMPDEST PUSH1 0x60 PUSH1 0x5 DUP1 SLOAD PUSH2 0x1A43 SWAP1 PUSH2 0x32D4 JUMP JUMPDEST DUP1 PUSH1 0x1F ADD PUSH1 0x20 DUP1 SWAP2 DIV MUL PUSH1 0x20 ADD PUSH1 0x40 MLOAD SWAP1 DUP2 ADD PUSH1 0x40 MSTORE DUP1 SWAP3 SWAP2 SWAP1 DUP2 DUP2 MSTORE PUSH1 0x20 ADD DUP3 DUP1 SLOAD PUSH2 0x1A6F SWAP1 PUSH2 0x32D4 JUMP JUMPDEST DUP1 ISZERO PUSH2 0x1ABA JUMPI DUP1 PUSH1 0x1F LT PUSH2 0x1A91 JUMPI PUSH2 0x100 DUP1 DUP4 SLOAD DIV MUL DUP4 MSTORE SWAP2 PUSH1 0x20 ADD SWAP2 PUSH2 0x1ABA JUMP JUMPDEST DUP3 ADD SWAP2 SWAP1 PUSH0 MSTORE PUSH1 0x20 PUSH0 KECCAK256 SWAP1 JUMPDEST DUP2 SLOAD DUP2 MSTORE SWAP1 PUSH1 0x1 ADD SWAP1 PUSH1 0x20 ADD DUP1 DUP4 GT PUSH2 0x1A9D JUMPI DUP3 SWAP1 SUB PUSH1 0x1F AND DUP3 ADD SWAP2 JUMPDEST POP POP POP POP POP SWAP1 POP SWAP1 JUMP JUMPDEST PUSH1 0xD SLOAD DUP2 JUMP JUMPDEST PUSH2 0xE10 DUP2 JUMP JUMPDEST PUSH0 PUSH2 0x1B8E PUSH2 0x1ADC PUSH2 0x207B JUMP JUMPDEST DUP5 PUSH2 0x1B89 DUP6 PUSH1 0x40 MLOAD DUP1 PUSH1 0x60 ADD PUSH1 0x40 MSTORE DUP1 PUSH1 0x25 DUP2 MSTORE PUSH1 0x20 ADD PUSH2 0x3D1F PUSH1 0x25 SWAP2 CODECOPY PUSH1 0x2 PUSH0 PUSH2 0x1B05 PUSH2 0x207B JUMP JUMPDEST PUSH20 0xFFFFFFFFFFFFFFFFFFFFFFFFFFFFFFFFFFFFFFFF AND PUSH20 0xFFFFFFFFFFFFFFFFFFFFFFFFFFFFFFFFFFFFFFFF AND DUP2 MSTORE PUSH1 0x20 ADD SWAP1 DUP2 MSTORE PUSH1 0x20 ADD PUSH0 KECCAK256 PUSH0 DUP11 PUSH20 0xFFFFFFFFFFFFFFFFFFFFFFFFFFFFFFFFFFFFFFFF AND PUSH20 0xFFFFFFFFFFFFFFFFFFFFFFFFFFFFFFFFFFFFFFFF AND DUP2 MSTORE PUSH1 0x20 ADD SWAP1 DUP2 MSTORE PUSH1 0x20 ADD PUSH0 KECCAK256 SLOAD PUSH2 0x2543 SWAP1 SWAP3 SWAP2 SWAP1 PUSH4 0xFFFFFFFF AND JUMP JUMPDEST PUSH2 0x2255 JUMP JUMPDEST PUSH1 0x1 SWAP1 POP SWAP3 SWAP2 POP POP JUMP JUMPDEST PUSH0 PUSH2 0x1BF1 PUSH1 0x9 PUSH0 DUP5 PUSH20 0xFFFFFFFFFFFFFFFFFFFFFFFFFFFFFFFFFFFFFFFF AND PUSH20 0xFFFFFFFFFFFFFFFFFFFFFFFFFFFFFFFFFFFFFFFF AND DUP2 MSTORE PUSH1 0x20 ADD SWAP1 DUP2 MSTORE PUSH1 0x20 ADD PUSH0 KECCAK256 SLOAD PUSH2 0x1BE3 DUP5 PUSH2 0x1070 JUMP JUMPDEST PUSH2 0x27C4 SWAP1 SWAP2 SWAP1 PUSH4 0xFFFFFFFF AND JUMP JUMPDEST SWAP1 POP SWAP2 SWAP1 POP JUMP JUMPDEST PUSH0 PUSH2 0x1C0B PUSH2 0x1C04 PUSH2 0x207B JUMP JUMPDEST DUP5 DUP5 PUSH2 0x2508 JUMP JUMPDEST PUSH1 0x1 SWAP1 POP SWAP3 SWAP2 POP POP JUMP JUMPDEST PUSH0 PUSH1 0x9 PUSH0 DUP4 PUSH20 0xFFFFFFFFFFFFFFFFFFFFFFFFFFFFFFFFFFFFFFFF AND PUSH20 0xFFFFFFFFFFFFFFFFFFFFFFFFFFFFFFFFFFFFFFFF AND DUP2 MSTORE PUSH1 0x20 ADD SWAP1 DUP2 MSTORE PUSH1 0x20 ADD PUSH0 KECCAK256 SLOAD SWAP1 POP SWAP2 SWAP1 POP JUMP JUMPDEST PUSH0 PUSH2 0xE10 PUSH1 0xB PUSH0 DUP5 PUSH20 0xFFFFFFFFFFFFFFFFFFFFFFFFFFFFFFFFFFFFFFFF AND PUSH20 0xFFFFFFFFFFFFFFFFFFFFFFFFFFFFFFFFFFFFFFFF AND DUP2 MSTORE PUSH1 0x20 ADD SWAP1 DUP2 MSTORE PUSH1 0x20 ADD PUSH0 KECCAK256 SLOAD PUSH2 0x1CA7 SWAP2 SWAP1 PUSH2 0x35CC JUMP JUMPDEST TIMESTAMP LT ISZERO SWAP1 POP SWAP2 SWAP1 POP JUMP JUMPDEST PUSH1 0xC PUSH1 0x20 MSTORE DUP1 PUSH0 MSTORE PUSH1 0x40 PUSH0 KECCAK256 PUSH0 SWAP2 POP SLOAD SWAP1 PUSH2 0x100 EXP SWAP1 DIV PUSH1 0xFF AND DUP2 JUMP JUMPDEST PUSH0 PUSH1 0x2 PUSH0 DUP5 PUSH20 0xFFFFFFFFFFFFFFFFFFFFFFFFFFFFFFFFFFFFFFFF AND PUSH20 0xFFFFFFFFFFFFFFFFFFFFFFFFFFFFFFFFFFFFFFFF AND DUP2 MSTORE PUSH1 0x20 ADD SWAP1 DUP2 MSTORE PUSH1 0x20 ADD PUSH0 KECCAK256 PUSH0 DUP4 PUSH20 0xFFFFFFFFFFFFFFFFFFFFFFFFFFFFFFFFFFFFFFFF AND PUSH20 0xFFFFFFFFFFFFFFFFFFFFFFFFFFFFFFFFFFFFFFFF AND DUP2 MSTORE PUSH1 0x20 ADD SWAP1 DUP2 MSTORE PUSH1 0x20 ADD PUSH0 KECCAK256 SLOAD SWAP1 POP SWAP3 SWAP2 POP POP JUMP JUMPDEST PUSH2 0x1D58 PUSH2 0x207B JUMP JUMPDEST PUSH20 0xFFFFFFFFFFFFFFFFFFFFFFFFFFFFFFFFFFFFFFFF AND PUSH0 DUP1 SLOAD SWAP1 PUSH2 0x100 EXP SWAP1 DIV PUSH20 0xFFFFFFFFFFFFFFFFFFFFFFFFFFFFFFFFFFFFFFFF AND PUSH20 0xFFFFFFFFFFFFFFFFFFFFFFFFFFFFFFFFFFFFFFFF AND EQ PUSH2 0x1DE4 JUMPI PUSH1 0x40 MLOAD PUSH32 0x8C379A000000000000000000000000000000000000000000000000000000000 DUP2 MSTORE PUSH1 0x4 ADD PUSH2 0x1DDB SWAP1 PUSH2 0x3028 JUMP JUMPDEST PUSH1 0x40 MLOAD DUP1 SWAP2 SUB SWAP1 REVERT JUMPDEST PUSH1 0xA PUSH0 DUP4 PUSH20 0xFFFFFFFFFFFFFFFFFFFFFFFFFFFFFFFFFFFFFFFF AND PUSH20 0xFFFFFFFFFFFFFFFFFFFFFFFFFFFFFFFFFFFFFFFF AND DUP2 MSTORE PUSH1 0x20 ADD SWAP1 DUP2 MSTORE PUSH1 0x20 ADD PUSH0 KECCAK256 PUSH0 SWAP1 SLOAD SWAP1 PUSH2 0x100 EXP SWAP1 DIV PUSH1 0xFF AND PUSH2 0x1EBA JUMPI PUSH2 0x1E3C DUP3 DUP3 PUSH2 0x2190 JUMP JUMPDEST PUSH0 DUP3 DUP3 TIMESTAMP PUSH1 0x40 MLOAD PUSH1 0x20 ADD PUSH2 0x1E52 SWAP4 SWAP3 SWAP2 SWAP1 PUSH2 0x366B JUMP JUMPDEST PUSH1 0x40 MLOAD PUSH1 0x20 DUP2 DUP4 SUB SUB DUP2 MSTORE SWAP1 PUSH1 0x40 MSTORE DUP1 MLOAD SWAP1 PUSH1 0x20 ADD KECCAK256 SWAP1 POP DUP3 PUSH20 0xFFFFFFFFFFFFFFFFFFFFFFFFFFFFFFFFFFFFFFFF AND PUSH32 0x1B965CB42B9E88623034282DFC0625466BAD745B5E23C4526E96E6913FFCAA40 DUP3 PUSH1 0x40 MLOAD PUSH2 0x1EB0 SWAP2 SWAP1 PUSH2 0x3226 JUMP JUMPDEST PUSH1 0x40 MLOAD DUP1 SWAP2 SUB SWAP1 LOG2 POP JUMPDEST POP POP JUMP JUMPDEST PUSH2 0x1EC6 PUSH2 0x207B JUMP JUMPDEST PUSH20 0xFFFFFFFFFFFFFFFFFFFFFFFFFFFFFFFFFFFFFFFF AND PUSH0 DUP1 SLOAD SWAP1 PUSH2 0x100 EXP SWAP1 DIV PUSH20 0xFFFFFFFFFFFFFFFFFFFFFFFFFFFFFFFFFFFFFFFF AND PUSH20 0xFFFFFFFFFFFFFFFFFFFFFFFFFFFFFFFFFFFFFFFF AND EQ PUSH2 0x1F52 JUMPI PUSH1 0x40 MLOAD PUSH32 0x8C379A000000000000000000000000000000000000000000000000000000000 DUP2 MSTORE PUSH1 0x4 ADD PUSH2 0x1F49 SWAP1 PUSH2 0x3028 JUMP JUMPDEST PUSH1 0x40 MLOAD DUP1 SWAP2 SUB SWAP1 REVERT JUMPDEST PUSH0 PUSH20 0xFFFFFFFFFFFFFFFFFFFFFFFFFFFFFFFFFFFFFFFF AND DUP2 PUSH20 0xFFFFFFFFFFFFFFFFFFFFFFFFFFFFFFFFFFFFFFFF AND SUB PUSH2 0x1FC0 JUMPI PUSH1 0x40 MLOAD PUSH32 0x8C379A000000000000000000000000000000000000000000000000000000000 DUP2 MSTORE PUSH1 0x4 ADD PUSH2 0x1FB7 SWAP1 PUSH2 0x3717 JUMP JUMPDEST PUSH1 0x40 MLOAD DUP1 SWAP2 SUB SWAP1 REVERT JUMPDEST DUP1 PUSH20 0xFFFFFFFFFFFFFFFFFFFFFFFFFFFFFFFFFFFFFFFF AND PUSH0 DUP1 SLOAD SWAP1 PUSH2 0x100 EXP SWAP1 DIV PUSH20 0xFFFFFFFFFFFFFFFFFFFFFFFFFFFFFFFFFFFFFFFF AND PUSH20 0xFFFFFFFFFFFFFFFFFFFFFFFFFFFFFFFFFFFFFFFF AND PUSH32 0x8BE0079C531659141344CD1FD0A4F28419497F9722A3DAAFE3B4186F6B6457E0 PUSH1 0x40 MLOAD PUSH1 0x40 MLOAD DUP1 SWAP2 SUB SWAP1 LOG3 DUP1 PUSH0 DUP1 PUSH2 0x100 EXP DUP2 SLOAD DUP2 PUSH20 0xFFFFFFFFFFFFFFFFFFFFFFFFFFFFFFFFFFFFFFFF MUL NOT AND SWAP1 DUP4 PUSH20 0xFFFFFFFFFFFFFFFFFFFFFFFFFFFFFFFFFFFFFFFF AND MUL OR SWAP1 SSTORE POP POP JUMP JUMPDEST PUSH0 CALLER SWAP1 POP SWAP1 JUMP JUMPDEST PUSH0 PUSH2 0x208B PUSH2 0xEB3 JUMP JUMPDEST GT PUSH2 0x20CB JUMPI PUSH1 0x40 MLOAD PUSH32 0x8C379A000000000000000000000000000000000000000000000000000000000 DUP2 MSTORE PUSH1 0x4 ADD PUSH2 0x20C2 SWAP1 PUSH2 0x377F JUMP JUMPDEST PUSH1 0x40 MLOAD DUP1 SWAP2 SUB SWAP1 REVERT JUMPDEST PUSH0 DUP2 GT ISZERO PUSH2 0x218D JUMPI PUSH2 0x211D PUSH2 0x20DE PUSH2 0xEB3 JUMP JUMPDEST PUSH2 0x2102 PUSH17 0x100000000000000000000000000000000 DUP5 PUSH2 0x25A5 SWAP1 SWAP2 SWAP1 PUSH4 0xFFFFFFFF AND JUMP JUMPDEST PUSH2 0x210C SWAP2 SWAP1 PUSH2 0x33A8 JUMP JUMPDEST PUSH1 0x6 SLOAD PUSH2 0x261C SWAP1 SWAP2 SWAP1 PUSH4 0xFFFFFFFF AND JUMP JUMPDEST PUSH1 0x6 DUP2 SWAP1 SSTORE POP PUSH2 0x2138 DUP2 PUSH1 0x7 SLOAD PUSH2 0x261C SWAP1 SWAP2 SWAP1 PUSH4 0xFFFFFFFF AND JUMP JUMPDEST PUSH1 0x7 DUP2 SWAP1 SSTORE POP CALLER PUSH20 0xFFFFFFFFFFFFFFFFFFFFFFFFFFFFFFFFFFFFFFFF AND PUSH32 0xA493A9229478C3FCD73F66D2CDEB7F94FD0F341DA924D1054236D78454116511 DUP3 PUSH1 0x40 MLOAD PUSH2 0x2184 SWAP2 SWAP1 PUSH2 0x2D80 JUMP JUMPDEST PUSH1 0x40 MLOAD DUP1 SWAP2 SUB SWAP1 LOG2 JUMPDEST POP JUMP JUMPDEST PUSH0 PUSH2 0x219A DUP4 PUSH2 0x17EA JUMP JUMPDEST SWAP1 POP DUP1 DUP3 GT ISZERO PUSH2 0x21CA JUMPI PUSH0 PUSH2 0x21B8 DUP3 DUP5 PUSH2 0x27C4 SWAP1 SWAP2 SWAP1 PUSH4 0xFFFFFFFF AND JUMP JUMPDEST SWAP1 POP PUSH2 0x21C4 DUP5 DUP3 PUSH2 0x280D JUMP JUMPDEST POP PUSH2 0x21F5 JUMP JUMPDEST DUP1 DUP3 LT ISZERO PUSH2 0x21F4 JUMPI PUSH0 PUSH2 0x21E6 DUP4 DUP4 PUSH2 0x27C4 SWAP1 SWAP2 SWAP1 PUSH4 0xFFFFFFFF AND JUMP JUMPDEST SWAP1 POP PUSH2 0x21F2 DUP5 DUP3 PUSH2 0x299B JUMP JUMPDEST POP JUMPDEST JUMPDEST PUSH0 PUSH2 0x220B DUP4 PUSH1 0x6 SLOAD PUSH2 0x25A5 SWAP1 SWAP2 SWAP1 PUSH4 0xFFFFFFFF AND JUMP JUMPDEST SWAP1 POP DUP1 PUSH1 0x8 PUSH0 DUP7 PUSH20 0xFFFFFFFFFFFFFFFFFFFFFFFFFFFFFFFFFFFFFFFF AND PUSH20 0xFFFFFFFFFFFFFFFFFFFFFFFFFFFFFFFFFFFFFFFF AND DUP2 MSTORE PUSH1 0x20 ADD SWAP1 DUP2 MSTORE PUSH1 0x20 ADD PUSH0 KECCAK256 DUP2 SWAP1 SSTORE POP POP POP POP POP JUMP JUMPDEST PUSH0 PUSH20 0xFFFFFFFFFFFFFFFFFFFFFFFFFFFFFFFFFFFFFFFF AND DUP4 PUSH20 0xFFFFFFFFFFFFFFFFFFFFFFFFFFFFFFFFFFFFFFFF AND SUB PUSH2 0x22C3 JUMPI PUSH1 0x40 MLOAD PUSH32 0x8C379A000000000000000000000000000000000000000000000000000000000 DUP2 MSTORE PUSH1 0x4 ADD PUSH2 0x22BA SWAP1 PUSH2 0x380D JUMP JUMPDEST PUSH1 0x40 MLOAD DUP1 SWAP2 SUB SWAP1 REVERT JUMPDEST PUSH0 PUSH20 0xFFFFFFFFFFFFFFFFFFFFFFFFFFFFFFFFFFFFFFFF AND DUP3 PUSH20 0xFFFFFFFFFFFFFFFFFFFFFFFFFFFFFFFFFFFFFFFF AND SUB PUSH2 0x2331 JUMPI PUSH1 0x40 MLOAD PUSH32 0x8C379A000000000000000000000000000000000000000000000000000000000 DUP2 MSTORE PUSH1 0x4 ADD PUSH2 0x2328 SWAP1 PUSH2 0x389B JUMP JUMPDEST PUSH1 0x40 MLOAD DUP1 SWAP2 SUB SWAP1 REVERT JUMPDEST DUP1 PUSH1 0x2 PUSH0 DUP6 PUSH20 0xFFFFFFFFFFFFFFFFFFFFFFFFFFFFFFFFFFFFFFFF AND PUSH20 0xFFFFFFFFFFFFFFFFFFFFFFFFFFFFFFFFFFFFFFFF AND DUP2 MSTORE PUSH1 0x20 ADD SWAP1 DUP2 MSTORE PUSH1 0x20 ADD PUSH0 KECCAK256 PUSH0 DUP5 PUSH20 0xFFFFFFFFFFFFFFFFFFFFFFFFFFFFFFFFFFFFFFFF AND PUSH20 0xFFFFFFFFFFFFFFFFFFFFFFFFFFFFFFFFFFFFFFFF AND DUP2 MSTORE PUSH1 0x20 ADD SWAP1 DUP2 MSTORE PUSH1 0x20 ADD PUSH0 KECCAK256 DUP2 SWAP1 SSTORE POP DUP2 PUSH20 0xFFFFFFFFFFFFFFFFFFFFFFFFFFFFFFFFFFFFFFFF AND DUP4 PUSH20 0xFFFFFFFFFFFFFFFFFFFFFFFFFFFFFFFFFFFFFFFF AND PUSH32 0x8C5BE1E5EBEC7D5BD14F71427D1E84F3DD0314C0F7B2291E5B200AC8C7C3B925 DUP4 PUSH1 0x40 MLOAD PUSH2 0x240B SWAP2 SWAP1 PUSH2 0x2D80 JUMP JUMPDEST PUSH1 0x40 MLOAD DUP1 SWAP2 SUB SWAP1 LOG3 POP POP POP JUMP JUMPDEST DUP1 SELFBALANCE LT ISZERO PUSH2 0x245B JUMPI PUSH1 0x40 MLOAD PUSH32 0x8C379A000000000000000000000000000000000000000000000000000000000 DUP2 MSTORE PUSH1 0x4 ADD PUSH2 0x2452 SWAP1 PUSH2 0x3903 JUMP JUMPDEST PUSH1 0x40 MLOAD DUP1 SWAP2 SUB SWAP1 REVERT JUMPDEST PUSH0 DUP3 PUSH20 0xFFFFFFFFFFFFFFFFFFFFFFFFFFFFFFFFFFFFFFFF AND DUP3 PUSH1 0x40 MLOAD PUSH2 0x2480 SWAP1 PUSH2 0x3944 JUMP JUMPDEST PUSH0 PUSH1 0x40 MLOAD DUP1 DUP4 SUB DUP2 DUP6 DUP8 GAS CALL SWAP3 POP POP POP RETURNDATASIZE DUP1 PUSH0 DUP2 EQ PUSH2 0x24BA JUMPI PUSH1 0x40 MLOAD SWAP2 POP PUSH1 0x1F NOT PUSH1 0x3F RETURNDATASIZE ADD AND DUP3 ADD PUSH1 0x40 MSTORE RETURNDATASIZE DUP3 MSTORE RETURNDATASIZE PUSH0 PUSH1 0x20 DUP5 ADD RETURNDATACOPY PUSH2 0x24BF JUMP JUMPDEST PUSH1 0x60 SWAP2 POP JUMPDEST POP POP SWAP1 POP DUP1 PUSH2 0x2503 JUMPI PUSH1 0x40 MLOAD PUSH32 0x8C379A000000000000000000000000000000000000000000000000000000000 DUP2 MSTORE PUSH1 0x4 ADD PUSH2 0x24FA SWAP1 PUSH2 0x39C8 JUMP JUMPDEST PUSH1 0x40 MLOAD DUP1 SWAP2 SUB SWAP1 REVERT JUMPDEST POP POP POP JUMP JUMPDEST PUSH1 0x40 MLOAD PUSH32 0x8C379A000000000000000000000000000000000000000000000000000000000 DUP2 MSTORE PUSH1 0x4 ADD PUSH2 0x253A SWAP1 PUSH2 0x3A56 JUMP JUMPDEST PUSH1 0x40 MLOAD DUP1 SWAP2 SUB SWAP1 REVERT JUMPDEST PUSH0 DUP4 DUP4 GT ISZERO DUP3 SWAP1 PUSH2 0x258A JUMPI PUSH1 0x40 MLOAD PUSH32 0x8C379A000000000000000000000000000000000000000000000000000000000 DUP2 MSTORE PUSH1 0x4 ADD PUSH2 0x2581 SWAP2 SWAP1 PUSH2 0x2CB8 JUMP JUMPDEST PUSH1 0x40 MLOAD DUP1 SWAP2 SUB SWAP1 REVERT JUMPDEST POP PUSH0 DUP4 DUP6 PUSH2 0x2598 SWAP2 SWAP1 PUSH2 0x3A74 JUMP JUMPDEST SWAP1 POP DUP1 SWAP2 POP POP SWAP4 SWAP3 POP POP POP JUMP JUMPDEST PUSH0 DUP1 DUP4 SUB PUSH2 0x25B5 JUMPI PUSH0 SWAP1 POP PUSH2 0x2616 JUMP JUMPDEST PUSH0 DUP3 DUP5 PUSH2 0x25C2 SWAP2 SWAP1 PUSH2 0x3AA7 JUMP JUMPDEST SWAP1 POP DUP3 DUP5 DUP3 PUSH2 0x25D1 SWAP2 SWAP1 PUSH2 0x33A8 JUMP JUMPDEST EQ PUSH2 0x2611 JUMPI PUSH1 0x40 MLOAD PUSH32 0x8C379A000000000000000000000000000000000000000000000000000000000 DUP2 MSTORE PUSH1 0x4 ADD PUSH2 0x2608 SWAP1 PUSH2 0x3B58 JUMP JUMPDEST PUSH1 0x40 MLOAD DUP1 SWAP2 SUB SWAP1 REVERT JUMPDEST DUP1 SWAP2 POP POP JUMPDEST SWAP3 SWAP2 POP POP JUMP JUMPDEST PUSH0 DUP1 DUP3 DUP5 PUSH2 0x262A SWAP2 SWAP1 PUSH2 0x35CC JUMP JUMPDEST SWAP1 POP DUP4 DUP2 LT ISZERO PUSH2 0x266F JUMPI PUSH1 0x40 MLOAD PUSH32 0x8C379A000000000000000000000000000000000000000000000000000000000 DUP2 MSTORE PUSH1 0x4 ADD PUSH2 0x2666 SWAP1 PUSH2 0x3BC0 JUMP JUMPDEST PUSH1 0x40 MLOAD DUP1 SWAP2 SUB SWAP1 REVERT JUMPDEST DUP1 SWAP2 POP POP SWAP3 SWAP2 POP POP JUMP JUMPDEST PUSH0 DUP1 PUSH2 0x2684 DUP4 PUSH2 0x1B98 JUMP JUMPDEST SWAP1 POP PUSH0 DUP2 GT ISZERO PUSH2 0x27BA JUMPI PUSH2 0x26DE DUP2 PUSH1 0x9 PUSH0 DUP7 PUSH20 0xFFFFFFFFFFFFFFFFFFFFFFFFFFFFFFFFFFFFFFFF AND PUSH20 0xFFFFFFFFFFFFFFFFFFFFFFFFFFFFFFFFFFFFFFFF AND DUP2 MSTORE PUSH1 0x20 ADD SWAP1 DUP2 MSTORE PUSH1 0x20 ADD PUSH0 KECCAK256 SLOAD PUSH2 0x261C SWAP1 SWAP2 SWAP1 PUSH4 0xFFFFFFFF AND JUMP JUMPDEST PUSH1 0x9 PUSH0 DUP6 PUSH20 0xFFFFFFFFFFFFFFFFFFFFFFFFFFFFFFFFFFFFFFFF AND PUSH20 0xFFFFFFFFFFFFFFFFFFFFFFFFFFFFFFFFFFFFFFFF AND DUP2 MSTORE PUSH1 0x20 ADD SWAP1 DUP2 MSTORE PUSH1 0x20 ADD PUSH0 KECCAK256 DUP2 SWAP1 SSTORE POP DUP3 PUSH20 0xFFFFFFFFFFFFFFFFFFFFFFFFFFFFFFFFFFFFFFFF AND PUSH32 0xEE503BEE2BB6A87E57BC57DB795F98137327401A0E7B7CE42E37926CC1A9CA4D DUP3 PUSH1 0x40 MLOAD PUSH2 0x2765 SWAP2 SWAP1 PUSH2 0x2D80 JUMP JUMPDEST PUSH1 0x40 MLOAD DUP1 SWAP2 SUB SWAP1 LOG2 DUP3 PUSH20 0xFFFFFFFFFFFFFFFFFFFFFFFFFFFFFFFFFFFFFFFF AND PUSH2 0x8FC DUP3 SWAP1 DUP2 ISZERO MUL SWAP1 PUSH1 0x40 MLOAD PUSH0 PUSH1 0x40 MLOAD DUP1 DUP4 SUB DUP2 DUP6 DUP9 DUP9 CALL SWAP4 POP POP POP POP ISZERO DUP1 ISZERO PUSH2 0x27B0 JUMPI RETURNDATASIZE PUSH0 DUP1 RETURNDATACOPY RETURNDATASIZE PUSH0 REVERT JUMPDEST POP DUP1 SWAP2 POP POP PUSH2 0x27BF JUMP JUMPDEST PUSH0 SWAP2 POP POP JUMPDEST SWAP2 SWAP1 POP JUMP JUMPDEST PUSH0 PUSH2 0x2805 DUP4 DUP4 PUSH1 0x40 MLOAD DUP1 PUSH1 0x40 ADD PUSH1 0x40 MSTORE DUP1 PUSH1 0x1E DUP2 MSTORE PUSH1 0x20 ADD PUSH32 0x536166654D6174683A207375627472616374696F6E206F766572666C6F770000 DUP2 MSTORE POP PUSH2 0x2543 JUMP JUMPDEST SWAP1 POP SWAP3 SWAP2 POP POP JUMP JUMPDEST PUSH0 PUSH20 0xFFFFFFFFFFFFFFFFFFFFFFFFFFFFFFFFFFFFFFFF AND DUP3 PUSH20 0xFFFFFFFFFFFFFFFFFFFFFFFFFFFFFFFFFFFFFFFF AND SUB PUSH2 0x287B JUMPI PUSH1 0x40 MLOAD PUSH32 0x8C379A000000000000000000000000000000000000000000000000000000000 DUP2 MSTORE PUSH1 0x4 ADD PUSH2 0x2872 SWAP1 PUSH2 0x3C28 JUMP JUMPDEST PUSH1 0x40 MLOAD DUP1 SWAP2 SUB SWAP1 REVERT JUMPDEST PUSH2 0x2886 PUSH0 DUP4 DUP4 PUSH2 0x2B43 JUMP JUMPDEST PUSH2 0x289B DUP2 PUSH1 0x3 SLOAD PUSH2 0x261C SWAP1 SWAP2 SWAP1 PUSH4 0xFFFFFFFF AND JUMP JUMPDEST PUSH1 0x3 DUP2 SWAP1 SSTORE POP PUSH2 0x28F1 DUP2 PUSH1 0x1 PUSH0 DUP6 PUSH20 0xFFFFFFFFFFFFFFFFFFFFFFFFFFFFFFFFFFFFFFFF AND PUSH20 0xFFFFFFFFFFFFFFFFFFFFFFFFFFFFFFFFFFFFFFFF AND DUP2 MSTORE PUSH1 0x20 ADD SWAP1 DUP2 MSTORE PUSH1 0x20 ADD PUSH0 KECCAK256 SLOAD PUSH2 0x261C SWAP1 SWAP2 SWAP1 PUSH4 0xFFFFFFFF AND JUMP JUMPDEST PUSH1 0x1 PUSH0 DUP5 PUSH20 0xFFFFFFFFFFFFFFFFFFFFFFFFFFFFFFFFFFFFFFFF AND PUSH20 0xFFFFFFFFFFFFFFFFFFFFFFFFFFFFFFFFFFFFFFFF AND DUP2 MSTORE PUSH1 0x20 ADD SWAP1 DUP2 MSTORE PUSH1 0x20 ADD PUSH0 KECCAK256 DUP2 SWAP1 SSTORE POP DUP2 PUSH20 0xFFFFFFFFFFFFFFFFFFFFFFFFFFFFFFFFFFFFFFFF AND PUSH0 PUSH20 0xFFFFFFFFFFFFFFFFFFFFFFFFFFFFFFFFFFFFFFFF AND PUSH32 0xDDF252AD1BE2C89B69C2B068FC378DAA952BA7F163C4A11628F55A4DF523B3EF DUP4 PUSH1 0x40 MLOAD PUSH2 0x298F SWAP2 SWAP1 PUSH2 0x2D80 JUMP JUMPDEST PUSH1 0x40 MLOAD DUP1 SWAP2 SUB SWAP1 LOG3 POP POP JUMP JUMPDEST PUSH0 PUSH20 0xFFFFFFFFFFFFFFFFFFFFFFFFFFFFFFFFFFFFFFFF AND DUP3 PUSH20 0xFFFFFFFFFFFFFFFFFFFFFFFFFFFFFFFFFFFFFFFF AND SUB PUSH2 0x2A09 JUMPI PUSH1 0x40 MLOAD PUSH32 0x8C379A000000000000000000000000000000000000000000000000000000000 DUP2 MSTORE PUSH1 0x4 ADD PUSH2 0x2A00 SWAP1 PUSH2 0x3CB6 JUMP JUMPDEST PUSH1 0x40 MLOAD DUP1 SWAP2 SUB SWAP1 REVERT JUMPDEST PUSH2 0x2A14 DUP3 PUSH0 DUP4 PUSH2 0x2B43 JUMP JUMPDEST PUSH2 0x2A7E DUP2 PUSH1 0x40 MLOAD DUP1 PUSH1 0x60 ADD PUSH1 0x40 MSTORE DUP1 PUSH1 0x22 DUP2 MSTORE PUSH1 0x20 ADD PUSH2 0x3CD5 PUSH1 0x22 SWAP2 CODECOPY PUSH1 0x1 PUSH0 DUP7 PUSH20 0xFFFFFFFFFFFFFFFFFFFFFFFFFFFFFFFFFFFFFFFF AND PUSH20 0xFFFFFFFFFFFFFFFFFFFFFFFFFFFFFFFFFFFFFFFF AND DUP2 MSTORE PUSH1 0x20 ADD SWAP1 DUP2 MSTORE PUSH1 0x20 ADD PUSH0 KECCAK256 SLOAD PUSH2 0x2543 SWAP1 SWAP3 SWAP2 SWAP1 PUSH4 0xFFFFFFFF AND JUMP JUMPDEST PUSH1 0x1 PUSH0 DUP5 PUSH20 0xFFFFFFFFFFFFFFFFFFFFFFFFFFFFFFFFFFFFFFFF AND PUSH20 0xFFFFFFFFFFFFFFFFFFFFFFFFFFFFFFFFFFFFFFFF AND DUP2 MSTORE PUSH1 0x20 ADD SWAP1 DUP2 MSTORE PUSH1 0x20 ADD PUSH0 KECCAK256 DUP2 SWAP1 SSTORE POP PUSH2 0x2AD4 DUP2 PUSH1 0x3 SLOAD PUSH2 0x27C4 SWAP1 SWAP2 SWAP1 PUSH4 0xFFFFFFFF AND JUMP JUMPDEST PUSH1 0x3 DUP2 SWAP1 SSTORE POP PUSH0 PUSH20 0xFFFFFFFFFFFFFFFFFFFFFFFFFFFFFFFFFFFFFFFF AND DUP3 PUSH20 0xFFFFFFFFFFFFFFFFFFFFFFFFFFFFFFFFFFFFFFFF AND PUSH32 0xDDF252AD1BE2C89B69C2B068FC378DAA952BA7F163C4A11628F55A4DF523B3EF DUP4 PUSH1 0x40 MLOAD PUSH2 0x2B37 SWAP2 SWAP1 PUSH2 0x2D80 JUMP JUMPDEST PUSH1 0x40 MLOAD DUP1 SWAP2 SUB SWAP1 LOG3 POP POP JUMP JUMPDEST POP POP POP JUMP JUMPDEST PUSH0 DUP1 REVERT JUMPDEST PUSH0 DUP1 REVERT JUMPDEST PUSH0 PUSH20 0xFFFFFFFFFFFFFFFFFFFFFFFFFFFFFFFFFFFFFFFF DUP3 AND SWAP1 POP SWAP2 SWAP1 POP JUMP JUMPDEST PUSH0 PUSH2 0x2B79 DUP3 PUSH2 0x2B50 JUMP JUMPDEST SWAP1 POP SWAP2 SWAP1 POP JUMP JUMPDEST PUSH2 0x2B89 DUP2 PUSH2 0x2B6F JUMP JUMPDEST DUP2 EQ PUSH2 0x2B93 JUMPI PUSH0 DUP1 REVERT JUMPDEST POP JUMP JUMPDEST PUSH0 DUP2 CALLDATALOAD SWAP1 POP PUSH2 0x2BA4 DUP2 PUSH2 0x2B80 JUMP JUMPDEST SWAP3 SWAP2 POP POP JUMP JUMPDEST PUSH0 PUSH1 0x20 DUP3 DUP5 SUB SLT ISZERO PUSH2 0x2BBF JUMPI PUSH2 0x2BBE PUSH2 0x2B48 JUMP JUMPDEST JUMPDEST PUSH0 PUSH2 0x2BCC DUP5 DUP3 DUP6 ADD PUSH2 0x2B96 JUMP JUMPDEST SWAP2 POP POP SWAP3 SWAP2 POP POP JUMP JUMPDEST PUSH0 DUP2 ISZERO ISZERO SWAP1 POP SWAP2 SWAP1 POP JUMP JUMPDEST PUSH2 0x2BE9 DUP2 PUSH2 0x2BD5 JUMP JUMPDEST DUP2 EQ PUSH2 0x2BF3 JUMPI PUSH0 DUP1 REVERT JUMPDEST POP JUMP JUMPDEST PUSH0 DUP2 CALLDATALOAD SWAP1 POP PUSH2 0x2C04 DUP2 PUSH2 0x2BE0 JUMP JUMPDEST SWAP3 SWAP2 POP POP JUMP JUMPDEST PUSH0 DUP1 PUSH1 0x40 DUP4 DUP6 SUB SLT ISZERO PUSH2 0x2C20 JUMPI PUSH2 0x2C1F PUSH2 0x2B48 JUMP JUMPDEST JUMPDEST PUSH0 PUSH2 0x2C2D DUP6 DUP3 DUP7 ADD PUSH2 0x2B96 JUMP JUMPDEST SWAP3 POP POP PUSH1 0x20 PUSH2 0x2C3E DUP6 DUP3 DUP7 ADD PUSH2 0x2BF6 JUMP JUMPDEST SWAP2 POP POP SWAP3 POP SWAP3 SWAP1 POP JUMP JUMPDEST PUSH0 DUP2 MLOAD SWAP1 POP SWAP2 SWAP1 POP JUMP JUMPDEST PUSH0 DUP3 DUP3 MSTORE PUSH1 0x20 DUP3 ADD SWAP1 POP SWAP3 SWAP2 POP POP JUMP JUMPDEST DUP3 DUP2 DUP4 MCOPY PUSH0 DUP4 DUP4 ADD MSTORE POP POP POP JUMP JUMPDEST PUSH0 PUSH1 0x1F NOT PUSH1 0x1F DUP4 ADD AND SWAP1 POP SWAP2 SWAP1 POP JUMP JUMPDEST PUSH0 PUSH2 0x2C8A DUP3 PUSH2 0x2C48 JUMP JUMPDEST PUSH2 0x2C94 DUP2 DUP6 PUSH2 0x2C52 JUMP JUMPDEST SWAP4 POP PUSH2 0x2CA4 DUP2 DUP6 PUSH1 0x20 DUP7 ADD PUSH2 0x2C62 JUMP JUMPDEST PUSH2 0x2CAD DUP2 PUSH2 0x2C70 JUMP JUMPDEST DUP5 ADD SWAP2 POP POP SWAP3 SWAP2 POP POP JUMP JUMPDEST PUSH0 PUSH1 0x20 DUP3 ADD SWAP1 POP DUP2 DUP2 SUB PUSH0 DUP4 ADD MSTORE PUSH2 0x2CD0 DUP2 DUP5 PUSH2 0x2C80 JUMP JUMPDEST SWAP1 POP SWAP3 SWAP2 POP POP JUMP JUMPDEST PUSH0 DUP2 SWAP1 POP SWAP2 SWAP1 POP JUMP JUMPDEST PUSH2 0x2CEA DUP2 PUSH2 0x2CD8 JUMP JUMPDEST DUP2 EQ PUSH2 0x2CF4 JUMPI PUSH0 DUP1 REVERT JUMPDEST POP JUMP JUMPDEST PUSH0 DUP2 CALLDATALOAD SWAP1 POP PUSH2 0x2D05 DUP2 PUSH2 0x2CE1 JUMP JUMPDEST SWAP3 SWAP2 POP POP JUMP JUMPDEST PUSH0 DUP1 PUSH1 0x40 DUP4 DUP6 SUB SLT ISZERO PUSH2 0x2D21 JUMPI PUSH2 0x2D20 PUSH2 0x2B48 JUMP JUMPDEST JUMPDEST PUSH0 PUSH2 0x2D2E DUP6 DUP3 DUP7 ADD PUSH2 0x2B96 JUMP JUMPDEST SWAP3 POP POP PUSH1 0x20 PUSH2 0x2D3F DUP6 DUP3 DUP7 ADD PUSH2 0x2CF7 JUMP JUMPDEST SWAP2 POP POP SWAP3 POP SWAP3 SWAP1 POP JUMP JUMPDEST PUSH2 0x2D52 DUP2 PUSH2 0x2BD5 JUMP JUMPDEST DUP3 MSTORE POP POP JUMP JUMPDEST PUSH0 PUSH1 0x20 DUP3 ADD SWAP1 POP PUSH2 0x2D6B PUSH0 DUP4 ADD DUP5 PUSH2 0x2D49 JUMP JUMPDEST SWAP3 SWAP2 POP POP JUMP JUMPDEST PUSH2 0x2D7A DUP2 PUSH2 0x2CD8 JUMP JUMPDEST DUP3 MSTORE POP POP JUMP JUMPDEST PUSH0 PUSH1 0x20 DUP3 ADD SWAP1 POP PUSH2 0x2D93 PUSH0 DUP4 ADD DUP5 PUSH2 0x2D71 JUMP JUMPDEST SWAP3 SWAP2 POP POP JUMP JUMPDEST PUSH0 DUP1 PUSH0 PUSH1 0x60 DUP5 DUP7 SUB SLT ISZERO PUSH2 0x2DB0 JUMPI PUSH2 0x2DAF PUSH2 0x2B48 JUMP JUMPDEST JUMPDEST PUSH0 PUSH2 0x2DBD DUP7 DUP3 DUP8 ADD PUSH2 0x2B96 JUMP JUMPDEST SWAP4 POP POP PUSH1 0x20 PUSH2 0x2DCE DUP7 DUP3 DUP8 ADD PUSH2 0x2B96 JUMP JUMPDEST SWAP3 POP POP PUSH1 0x40 PUSH2 0x2DDF DUP7 DUP3 DUP8 ADD PUSH2 0x2CF7 JUMP JUMPDEST SWAP2 POP POP SWAP3 POP SWAP3 POP SWAP3 JUMP JUMPDEST PUSH0 PUSH1 0xFF DUP3 AND SWAP1 POP SWAP2 SWAP1 POP JUMP JUMPDEST PUSH2 0x2DFE DUP2 PUSH2 0x2DE9 JUMP JUMPDEST DUP3 MSTORE POP POP JUMP JUMPDEST PUSH0 PUSH1 0x20 DUP3 ADD SWAP1 POP PUSH2 0x2E17 PUSH0 DUP4 ADD DUP5 PUSH2 0x2DF5 JUMP JUMPDEST SWAP3 SWAP2 POP POP JUMP JUMPDEST PUSH0 DUP1 PUSH1 0x40 DUP4 DUP6 SUB SLT ISZERO PUSH2 0x2E33 JUMPI PUSH2 0x2E32 PUSH2 0x2B48 JUMP JUMPDEST JUMPDEST PUSH0 PUSH2 0x2E40 DUP6 DUP3 DUP7 ADD PUSH2 0x2B96 JUMP JUMPDEST SWAP3 POP POP PUSH1 0x20 PUSH2 0x2E51 DUP6 DUP3 DUP7 ADD PUSH2 0x2B96 JUMP JUMPDEST SWAP2 POP POP SWAP3 POP SWAP3 SWAP1 POP JUMP JUMPDEST PUSH0 DUP1 REVERT JUMPDEST PUSH0 DUP1 REVERT JUMPDEST PUSH0 DUP1 REVERT JUMPDEST PUSH0 DUP1 DUP4 PUSH1 0x1F DUP5 ADD SLT PUSH2 0x2E7C JUMPI PUSH2 0x2E7B PUSH2 0x2E5B JUMP JUMPDEST JUMPDEST DUP3 CALLDATALOAD SWAP1 POP PUSH8 0xFFFFFFFFFFFFFFFF DUP2 GT ISZERO PUSH2 0x2E99 JUMPI PUSH2 0x2E98 PUSH2 0x2E5F JUMP JUMPDEST JUMPDEST PUSH1 0x20 DUP4 ADD SWAP2 POP DUP4 PUSH1 0x1 DUP3 MUL DUP4 ADD GT ISZERO PUSH2 0x2EB5 JUMPI PUSH2 0x2EB4 PUSH2 0x2E63 JUMP JUMPDEST JUMPDEST SWAP3 POP SWAP3 SWAP1 POP JUMP JUMPDEST PUSH0 DUP1 PUSH1 0x20 DUP4 DUP6 SUB SLT ISZERO PUSH2 0x2ED2 JUMPI PUSH2 0x2ED1 PUSH2 0x2B48 JUMP JUMPDEST JUMPDEST PUSH0 DUP4 ADD CALLDATALOAD PUSH8 0xFFFFFFFFFFFFFFFF DUP2 GT ISZERO PUSH2 0x2EEF JUMPI PUSH2 0x2EEE PUSH2 0x2B4C JUMP JUMPDEST JUMPDEST PUSH2 0x2EFB DUP6 DUP3 DUP7 ADD PUSH2 0x2E67 JUMP JUMPDEST SWAP3 POP SWAP3 POP POP SWAP3 POP SWAP3 SWAP1 POP JUMP JUMPDEST PUSH2 0x2F10 DUP2 PUSH2 0x2B6F JUMP JUMPDEST DUP3 MSTORE POP POP JUMP JUMPDEST PUSH0 PUSH1 0xA0 DUP3 ADD SWAP1 POP PUSH2 0x2F29 PUSH0 DUP4 ADD DUP9 PUSH2 0x2F07 JUMP JUMPDEST PUSH2 0x2F36 PUSH1 0x20 DUP4 ADD DUP8 PUSH2 0x2D71 JUMP JUMPDEST PUSH2 0x2F43 PUSH1 0x40 DUP4 ADD DUP7 PUSH2 0x2D71 JUMP JUMPDEST PUSH2 0x2F50 PUSH1 0x60 DUP4 ADD DUP6 PUSH2 0x2D71 JUMP JUMPDEST PUSH2 0x2F5D PUSH1 0x80 DUP4 ADD DUP5 PUSH2 0x2D71 JUMP JUMPDEST SWAP7 SWAP6 POP POP POP POP POP POP JUMP JUMPDEST PUSH0 PUSH1 0x20 DUP3 ADD SWAP1 POP PUSH2 0x2F7A PUSH0 DUP4 ADD DUP5 PUSH2 0x2F07 JUMP JUMPDEST SWAP3 SWAP2 POP POP JUMP JUMPDEST PUSH0 DUP2 SWAP1 POP SWAP2 SWAP1 POP JUMP JUMPDEST PUSH2 0x2F92 DUP2 PUSH2 0x2F80 JUMP JUMPDEST DUP2 EQ PUSH2 0x2F9C JUMPI PUSH0 DUP1 REVERT JUMPDEST POP JUMP JUMPDEST PUSH0 DUP2 CALLDATALOAD SWAP1 POP PUSH2 0x2FAD DUP2 PUSH2 0x2F89 JUMP JUMPDEST SWAP3 SWAP2 POP POP JUMP JUMPDEST PUSH0 PUSH1 0x20 DUP3 DUP5 SUB SLT ISZERO PUSH2 0x2FC8 JUMPI PUSH2 0x2FC7 PUSH2 0x2B48 JUMP JUMPDEST JUMPDEST PUSH0 PUSH2 0x2FD5 DUP5 DUP3 DUP6 ADD PUSH2 0x2F9F JUMP JUMPDEST SWAP2 POP POP SWAP3 SWAP2 POP POP JUMP JUMPDEST PUSH32 0x4F776E61626C653A2063616C6C6572206973206E6F7420746865206F776E6572 PUSH0 DUP3 ADD MSTORE POP JUMP JUMPDEST PUSH0 PUSH2 0x3012 PUSH1 0x20 DUP4 PUSH2 0x2C52 JUMP JUMPDEST SWAP2 POP PUSH2 0x301D DUP3 PUSH2 0x2FDE JUMP JUMPDEST PUSH1 0x20 DUP3 ADD SWAP1 POP SWAP2 SWAP1 POP JUMP JUMPDEST PUSH0 PUSH1 0x20 DUP3 ADD SWAP1 POP DUP2 DUP2 SUB PUSH0 DUP4 ADD MSTORE PUSH2 0x303F DUP2 PUSH2 0x3006 JUMP JUMPDEST SWAP1 POP SWAP2 SWAP1 POP JUMP JUMPDEST PUSH32 0x43616E6E6F7420776974686472617720747261636B657220746F6B656E730000 PUSH0 DUP3 ADD MSTORE POP JUMP JUMPDEST PUSH0 PUSH2 0x307A PUSH1 0x1E DUP4 PUSH2 0x2C52 JUMP JUMPDEST SWAP2 POP PUSH2 0x3085 DUP3 PUSH2 0x3046 JUMP JUMPDEST PUSH1 0x20 DUP3 ADD SWAP1 POP SWAP2 SWAP1 POP JUMP JUMPDEST PUSH0 PUSH1 0x20 DUP3 ADD SWAP1 POP DUP2 DUP2 SUB PUSH0 DUP4 ADD MSTORE PUSH2 0x30A7 DUP2 PUSH2 0x306E JUMP JUMPDEST SWAP1 POP SWAP2 SWAP1 POP JUMP JUMPDEST PUSH0 DUP2 MLOAD SWAP1 POP PUSH2 0x30BC DUP2 PUSH2 0x2CE1 JUMP JUMPDEST SWAP3 SWAP2 POP POP JUMP JUMPDEST PUSH0 PUSH1 0x20 DUP3 DUP5 SUB SLT ISZERO PUSH2 0x30D7 JUMPI PUSH2 0x30D6 PUSH2 0x2B48 JUMP JUMPDEST JUMPDEST PUSH0 PUSH2 0x30E4 DUP5 DUP3 DUP6 ADD PUSH2 0x30AE JUMP JUMPDEST SWAP2 POP POP SWAP3 SWAP2 POP POP JUMP JUMPDEST PUSH0 PUSH1 0x40 DUP3 ADD SWAP1 POP PUSH2 0x3100 PUSH0 DUP4 ADD DUP6 PUSH2 0x2F07 JUMP JUMPDEST PUSH2 0x310D PUSH1 0x20 DUP4 ADD DUP5 PUSH2 0x2D71 JUMP JUMPDEST SWAP4 SWAP3 POP POP POP JUMP JUMPDEST PUSH0 DUP2 MLOAD SWAP1 POP PUSH2 0x3122 DUP2 PUSH2 0x2BE0 JUMP JUMPDEST SWAP3 SWAP2 POP POP JUMP JUMPDEST PUSH0 PUSH1 0x20 DUP3 DUP5 SUB SLT ISZERO PUSH2 0x313D JUMPI PUSH2 0x313C PUSH2 0x2B48 JUMP JUMPDEST JUMPDEST PUSH0 PUSH2 0x314A DUP5 DUP3 DUP6 ADD PUSH2 0x3114 JUMP JUMPDEST SWAP2 POP POP SWAP3 SWAP2 POP POP JUMP JUMPDEST PUSH32 0x4E6F206469766964656E647320746F2064697374726962757465000000000000 PUSH0 DUP3 ADD MSTORE POP JUMP JUMPDEST PUSH0 PUSH2 0x3187 PUSH1 0x1A DUP4 PUSH2 0x2C52 JUMP JUMPDEST SWAP2 POP PUSH2 0x3192 DUP3 PUSH2 0x3153 JUMP JUMPDEST PUSH1 0x20 DUP3 ADD SWAP1 POP SWAP2 SWAP1 POP JUMP JUMPDEST PUSH0 PUSH1 0x20 DUP3 ADD SWAP1 POP DUP2 DUP2 SUB PUSH0 DUP4 ADD MSTORE PUSH2 0x31B4 DUP2 PUSH2 0x317B JUMP JUMPDEST SWAP1 POP SWAP2 SWAP1 POP JUMP JUMPDEST PUSH0 DUP2 SWAP1 POP SWAP2 SWAP1 POP JUMP JUMPDEST PUSH2 0x31D5 PUSH2 0x31D0 DUP3 PUSH2 0x2CD8 JUMP JUMPDEST PUSH2 0x31BB JUMP JUMPDEST DUP3 MSTORE POP POP JUMP JUMPDEST PUSH0 PUSH2 0x31E6 DUP3 DUP7 PUSH2 0x31C4 JUMP JUMPDEST PUSH1 0x20 DUP3 ADD SWAP2 POP PUSH2 0x31F6 DUP3 DUP6 PUSH2 0x31C4 JUMP JUMPDEST PUSH1 0x20 DUP3 ADD SWAP2 POP PUSH2 0x3206 DUP3 DUP5 PUSH2 0x31C4 JUMP JUMPDEST PUSH1 0x20 DUP3 ADD SWAP2 POP DUP2 SWAP1 POP SWAP5 SWAP4 POP POP POP POP JUMP JUMPDEST PUSH2 0x3220 DUP2 PUSH2 0x2F80 JUMP JUMPDEST DUP3 MSTORE POP POP JUMP JUMPDEST PUSH0 PUSH1 0x20 DUP3 ADD SWAP1 POP PUSH2 0x3239 PUSH0 DUP4 ADD DUP5 PUSH2 0x3217 JUMP JUMPDEST SWAP3 SWAP2 POP POP JUMP JUMPDEST PUSH32 0x537461747573206E6F74206368616E6765640000000000000000000000000000 PUSH0 DUP3 ADD MSTORE POP JUMP JUMPDEST PUSH0 PUSH2 0x3273 PUSH1 0x12 DUP4 PUSH2 0x2C52 JUMP JUMPDEST SWAP2 POP PUSH2 0x327E DUP3 PUSH2 0x323F JUMP JUMPDEST PUSH1 0x20 DUP3 ADD SWAP1 POP SWAP2 SWAP1 POP JUMP JUMPDEST PUSH0 PUSH1 0x20 DUP3 ADD SWAP1 POP DUP2 DUP2 SUB PUSH0 DUP4 ADD MSTORE PUSH2 0x32A0 DUP2 PUSH2 0x3267 JUMP JUMPDEST SWAP1 POP SWAP2 SWAP1 POP JUMP JUMPDEST PUSH32 0x4E487B7100000000000000000000000000000000000000000000000000000000 PUSH0 MSTORE PUSH1 0x22 PUSH1 0x4 MSTORE PUSH1 0x24 PUSH0 REVERT JUMPDEST PUSH0 PUSH1 0x2 DUP3 DIV SWAP1 POP PUSH1 0x1 DUP3 AND DUP1 PUSH2 0x32EB JUMPI PUSH1 0x7F DUP3 AND SWAP2 POP JUMPDEST PUSH1 0x20 DUP3 LT DUP2 SUB PUSH2 0x32FE JUMPI PUSH2 0x32FD PUSH2 0x32A7 JUMP JUMPDEST JUMPDEST POP SWAP2 SWAP1 POP JUMP JUMPDEST PUSH0 DUP2 SWAP1 POP SWAP2 SWAP1 POP JUMP JUMPDEST PUSH32 0x4E487B7100000000000000000000000000000000000000000000000000000000 PUSH0 MSTORE PUSH1 0x11 PUSH1 0x4 MSTORE PUSH1 0x24 PUSH0 REVERT JUMPDEST PUSH0 PUSH2 0x3344 DUP3 PUSH2 0x3304 JUMP JUMPDEST SWAP2 POP PUSH2 0x334F DUP4 PUSH2 0x3304 JUMP JUMPDEST SWAP3 POP DUP3 DUP3 ADD SWAP1 POP DUP3 DUP2 SLT ISZERO PUSH0 DUP4 SLT AND DUP4 DUP3 SLT PUSH0 DUP5 SLT ISZERO AND OR ISZERO PUSH2 0x3375 JUMPI PUSH2 0x3374 PUSH2 0x330D JUMP JUMPDEST JUMPDEST SWAP3 SWAP2 POP POP JUMP JUMPDEST PUSH32 0x4E487B7100000000000000000000000000000000000000000000000000000000 PUSH0 MSTORE PUSH1 0x12 PUSH1 0x4 MSTORE PUSH1 0x24 PUSH0 REVERT JUMPDEST PUSH0 PUSH2 0x33B2 DUP3 PUSH2 0x2CD8 JUMP JUMPDEST SWAP2 POP PUSH2 0x33BD DUP4 PUSH2 0x2CD8 JUMP JUMPDEST SWAP3 POP DUP3 PUSH2 0x33CD JUMPI PUSH2 0x33CC PUSH2 0x337B JUMP JUMPDEST JUMPDEST DUP3 DUP3 DIV SWAP1 POP SWAP3 SWAP2 POP POP JUMP JUMPDEST PUSH32 0x496E76616C696420726563697069656E74000000000000000000000000000000 PUSH0 DUP3 ADD MSTORE POP JUMP JUMPDEST PUSH0 PUSH2 0x340C PUSH1 0x11 DUP4 PUSH2 0x2C52 JUMP JUMPDEST SWAP2 POP PUSH2 0x3417 DUP3 PUSH2 0x33D8 JUMP JUMPDEST PUSH1 0x20 DUP3 ADD SWAP1 POP SWAP2 SWAP1 POP JUMP JUMPDEST PUSH0 PUSH1 0x20 DUP3 ADD SWAP1 POP DUP2 DUP2 SUB PUSH0 DUP4 ADD MSTORE PUSH2 0x3439 DUP2 PUSH2 0x3400 JUMP JUMPDEST SWAP1 POP SWAP2 SWAP1 POP JUMP JUMPDEST PUSH32 0x4D7573742077616974206265666F726520636C61696D696E6700000000000000 PUSH0 DUP3 ADD MSTORE POP JUMP JUMPDEST PUSH0 PUSH2 0x3474 PUSH1 0x19 DUP4 PUSH2 0x2C52 JUMP JUMPDEST SWAP2 POP PUSH2 0x347F DUP3 PUSH2 0x3440 JUMP JUMPDEST PUSH1 0x20 DUP3 ADD SWAP1 POP SWAP2 SWAP1 POP JUMP JUMPDEST PUSH0 PUSH1 0x20 DUP3 ADD SWAP1 POP DUP2 DUP2 SUB PUSH0 DUP4 ADD MSTORE PUSH2 0x34A1 DUP2 PUSH2 0x3468 JUMP JUMPDEST SWAP1 POP SWAP2 SWAP1 POP JUMP JUMPDEST PUSH0 DUP2 SWAP1 POP SWAP3 SWAP2 POP POP JUMP JUMPDEST DUP3 DUP2 DUP4 CALLDATACOPY PUSH0 DUP4 DUP4 ADD MSTORE POP POP POP JUMP JUMPDEST PUSH0 PUSH2 0x34CB DUP4 DUP6 PUSH2 0x34A8 JUMP JUMPDEST SWAP4 POP PUSH2 0x34D8 DUP4 DUP6 DUP5 PUSH2 0x34B2 JUMP JUMPDEST DUP3 DUP5 ADD SWAP1 POP SWAP4 SWAP3 POP POP POP JUMP JUMPDEST PUSH0 PUSH2 0x34F0 DUP3 DUP5 DUP7 PUSH2 0x34C0 JUMP JUMPDEST SWAP2 POP DUP2 SWAP1 POP SWAP4 SWAP3 POP POP POP JUMP JUMPDEST PUSH32 0x50726F6F6620616C726561647920757365640000000000000000000000000000 PUSH0 DUP3 ADD MSTORE POP JUMP JUMPDEST PUSH0 PUSH2 0x3530 PUSH1 0x12 DUP4 PUSH2 0x2C52 JUMP JUMPDEST SWAP2 POP PUSH2 0x353B DUP3 PUSH2 0x34FC JUMP JUMPDEST PUSH1 0x20 DUP3 ADD SWAP1 POP SWAP2 SWAP1 POP JUMP JUMPDEST PUSH0 PUSH1 0x20 DUP3 ADD SWAP1 POP DUP2 DUP2 SUB PUSH0 DUP4 ADD MSTORE PUSH2 0x355D DUP2 PUSH2 0x3524 JUMP JUMPDEST SWAP1 POP SWAP2 SWAP1 POP JUMP JUMPDEST PUSH32 0x42656C6F77206D696E696D756D20636C61696D00000000000000000000000000 PUSH0 DUP3 ADD MSTORE POP JUMP JUMPDEST PUSH0 PUSH2 0x3598 PUSH1 0x13 DUP4 PUSH2 0x2C52 JUMP JUMPDEST SWAP2 POP PUSH2 0x35A3 DUP3 PUSH2 0x3564 JUMP JUMPDEST PUSH1 0x20 DUP3 ADD SWAP1 POP SWAP2 SWAP1 POP JUMP JUMPDEST PUSH0 PUSH1 0x20 DUP3 ADD SWAP1 POP DUP2 DUP2 SUB PUSH0 DUP4 ADD MSTORE PUSH2 0x35C5 DUP2 PUSH2 0x358C JUMP JUMPDEST SWAP1 POP SWAP2 SWAP1 POP JUMP JUMPDEST PUSH0 PUSH2 0x35D6 DUP3 PUSH2 0x2CD8 JUMP JUMPDEST SWAP2 POP PUSH2 0x35E1 DUP4 PUSH2 0x2CD8 JUMP JUMPDEST SWAP3 POP DUP3 DUP3 ADD SWAP1 POP DUP1 DUP3 GT ISZERO PUSH2 0x35F9 JUMPI PUSH2 0x35F8 PUSH2 0x330D JUMP JUMPDEST JUMPDEST SWAP3 SWAP2 POP POP JUMP JUMPDEST PUSH0 PUSH1 0x40 DUP3 ADD SWAP1 POP PUSH2 0x3612 PUSH0 DUP4 ADD DUP6 PUSH2 0x2D71 JUMP JUMPDEST PUSH2 0x361F PUSH1 0x20 DUP4 ADD DUP5 PUSH2 0x3217 JUMP JUMPDEST SWAP4 SWAP3 POP POP POP JUMP JUMPDEST PUSH0 DUP2 PUSH1 0x60 SHL SWAP1 POP SWAP2 SWAP1 POP JUMP JUMPDEST PUSH0 PUSH2 0x363C DUP3 PUSH2 0x3626 JUMP JUMPDEST SWAP1 POP SWAP2 SWAP1 POP JUMP JUMPDEST PUSH0 PUSH2 0x364D DUP3 PUSH2 0x3632 JUMP JUMPDEST SWAP1 POP SWAP2 SWAP1 POP JUMP JUMPDEST PUSH2 0x3665 PUSH2 0x3660 DUP3 PUSH2 0x2B6F JUMP JUMPDEST PUSH2 0x3643 JUMP JUMPDEST DUP3 MSTORE POP POP JUMP JUMPDEST PUSH0 PUSH2 0x3676 DUP3 DUP7 PUSH2 0x3654 JUMP JUMPDEST PUSH1 0x14 DUP3 ADD SWAP2 POP PUSH2 0x3686 DUP3 DUP6 PUSH2 0x31C4 JUMP JUMPDEST PUSH1 0x20 DUP3 ADD SWAP2 POP PUSH2 0x3696 DUP3 DUP5 PUSH2 0x31C4 JUMP JUMPDEST PUSH1 0x20 DUP3 ADD SWAP2 POP DUP2 SWAP1 POP SWAP5 SWAP4 POP POP POP POP JUMP JUMPDEST PUSH32 0x4F776E61626C653A206E6577206F776E657220697320746865207A65726F2061 PUSH0 DUP3 ADD MSTORE PUSH32 0x6464726573730000000000000000000000000000000000000000000000000000 PUSH1 0x20 DUP3 ADD MSTORE POP JUMP JUMPDEST PUSH0 PUSH2 0x3701 PUSH1 0x26 DUP4 PUSH2 0x2C52 JUMP JUMPDEST SWAP2 POP PUSH2 0x370C DUP3 PUSH2 0x36A7 JUMP JUMPDEST PUSH1 0x40 DUP3 ADD SWAP1 POP SWAP2 SWAP1 POP JUMP JUMPDEST PUSH0 PUSH1 0x20 DUP3 ADD SWAP1 POP DUP2 DUP2 SUB PUSH0 DUP4 ADD MSTORE PUSH2 0x372E DUP2 PUSH2 0x36F5 JUMP JUMPDEST SWAP1 POP SWAP2 SWAP1 POP JUMP JUMPDEST PUSH32 0x4E6F20737570706C790000000000000000000000000000000000000000000000 PUSH0 DUP3 ADD MSTORE POP JUMP JUMPDEST PUSH0 PUSH2 0x3769 PUSH1 0x9 DUP4 PUSH2 0x2C52 JUMP JUMPDEST SWAP2 POP PUSH2 0x3774 DUP3 PUSH2 0x3735 JUMP JUMPDEST PUSH1 0x20 DUP3 ADD SWAP1 POP SWAP2 SWAP1 POP JUMP JUMPDEST PUSH0 PUSH1 0x20 DUP3 ADD SWAP1 POP DUP2 DUP2 SUB PUSH0 DUP4 ADD MSTORE PUSH2 0x3796 DUP2 PUSH2 0x375D JUMP JUMPDEST SWAP1 POP SWAP2 SWAP1 POP JUMP JUMPDEST PUSH32 0x45524332303A20617070726F76652066726F6D20746865207A65726F20616464 PUSH0 DUP3 ADD MSTORE PUSH32 0x7265737300000000000000000000000000000000000000000000000000000000 PUSH1 0x20 DUP3 ADD MSTORE POP JUMP JUMPDEST PUSH0 PUSH2 0x37F7 PUSH1 0x24 DUP4 PUSH2 0x2C52 JUMP JUMPDEST SWAP2 POP PUSH2 0x3802 DUP3 PUSH2 0x379D JUMP JUMPDEST PUSH1 0x40 DUP3 ADD SWAP1 POP SWAP2 SWAP1 POP JUMP JUMPDEST PUSH0 PUSH1 0x20 DUP3 ADD SWAP1 POP DUP2 DUP2 SUB PUSH0 DUP4 ADD MSTORE PUSH2 0x3824 DUP2 PUSH2 0x37EB JUMP JUMPDEST SWAP1 POP SWAP2 SWAP1 POP JUMP JUMPDEST PUSH32 0x45524332303A20617070726F766520746F20746865207A65726F206164647265 PUSH0 DUP3 ADD MSTORE PUSH32 0x7373000000000000000000000000000000000000000000000000000000000000 PUSH1 0x20 DUP3 ADD MSTORE POP JUMP JUMPDEST PUSH0 PUSH2 0x3885 PUSH1 0x22 DUP4 PUSH2 0x2C52 JUMP JUMPDEST SWAP2 POP PUSH2 0x3890 DUP3 PUSH2 0x382B JUMP JUMPDEST PUSH1 0x40 DUP3 ADD SWAP1 POP SWAP2 SWAP1 POP JUMP JUMPDEST PUSH0 PUSH1 0x20 DUP3 ADD SWAP1 POP DUP2 DUP2 SUB PUSH0 DUP4 ADD MSTORE PUSH2 0x38B2 DUP2 PUSH2 0x3879 JUMP JUMPDEST SWAP1 POP SWAP2 SWAP1 POP JUMP JUMPDEST PUSH32 0x416464726573733A20696E73756666696369656E742062616C616E6365000000 PUSH0 DUP3 ADD MSTORE POP JUMP JUMPDEST PUSH0 PUSH2 0x38ED PUSH1 0x1D DUP4 PUSH2 0x2C52 JUMP JUMPDEST SWAP2 POP PUSH2 0x38F8 DUP3 PUSH2 0x38B9 JUMP JUMPDEST PUSH1 0x20 DUP3 ADD SWAP1 POP SWAP2 SWAP1 POP JUMP JUMPDEST PUSH0 PUSH1 0x20 DUP3 ADD SWAP1 POP DUP2 DUP2 SUB PUSH0 DUP4 ADD MSTORE PUSH2 0x391A DUP2 PUSH2 0x38E1 JUMP JUMPDEST SWAP1 POP SWAP2 SWAP1 POP JUMP JUMPDEST POP JUMP JUMPDEST PUSH0 PUSH2 0x392F PUSH0 DUP4 PUSH2 0x34A8 JUMP JUMPDEST SWAP2 POP PUSH2 0x393A DUP3 PUSH2 0x3921 JUMP JUMPDEST PUSH0 DUP3 ADD SWAP1 POP SWAP2 SWAP1 POP JUMP JUMPDEST PUSH0 PUSH2 0x394E DUP3 PUSH2 0x3924 JUMP JUMPDEST SWAP2 POP DUP2 SWAP1 POP SWAP2 SWAP1 POP JUMP JUMPDEST PUSH32 0x416464726573733A20756E61626C6520746F2073656E642076616C75652C2072 PUSH0 DUP3 ADD MSTORE PUSH32 0x6563697069656E74206D61792068617665207265766572746564000000000000 PUSH1 0x20 DUP3 ADD MSTORE POP JUMP JUMPDEST PUSH0 PUSH2 0x39B2 PUSH1 0x3A DUP4 PUSH2 0x2C52 JUMP JUMPDEST SWAP2 POP PUSH2 0x39BD DUP3 PUSH2 0x3958 JUMP JUMPDEST PUSH1 0x40 DUP3 ADD SWAP1 POP SWAP2 SWAP1 POP JUMP JUMPDEST PUSH0 PUSH1 0x20 DUP3 ADD SWAP1 POP DUP2 DUP2 SUB PUSH0 DUP4 ADD MSTORE PUSH2 0x39DF DUP2 PUSH2 0x39A6 JUMP JUMPDEST SWAP1 POP SWAP2 SWAP1 POP JUMP JUMPDEST PUSH32 0x4469766964656E6420747261636B65723A204E6F207472616E73666572732061 PUSH0 DUP3 ADD MSTORE PUSH32 0x6C6C6F7765640000000000000000000000000000000000000000000000000000 PUSH1 0x20 DUP3 ADD MSTORE POP JUMP JUMPDEST PUSH0 PUSH2 0x3A40 PUSH1 0x26 DUP4 PUSH2 0x2C52 JUMP JUMPDEST SWAP2 POP PUSH2 0x3A4B DUP3 PUSH2 0x39E6 JUMP JUMPDEST PUSH1 0x40 DUP3 ADD SWAP1 POP SWAP2 SWAP1 POP JUMP JUMPDEST PUSH0 PUSH1 0x20 DUP3 ADD SWAP1 POP DUP2 DUP2 SUB PUSH0 DUP4 ADD MSTORE PUSH2 0x3A6D DUP2 PUSH2 0x3A34 JUMP JUMPDEST SWAP1 POP SWAP2 SWAP1 POP JUMP JUMPDEST PUSH0 PUSH2 0x3A7E DUP3 PUSH2 0x2CD8 JUMP JUMPDEST SWAP2 POP PUSH2 0x3A89 DUP4 PUSH2 0x2CD8 JUMP JUMPDEST SWAP3 POP DUP3 DUP3 SUB SWAP1 POP DUP2 DUP2 GT ISZERO PUSH2 0x3AA1 JUMPI PUSH2 0x3AA0 PUSH2 0x330D JUMP JUMPDEST JUMPDEST SWAP3 SWAP2 POP POP JUMP JUMPDEST PUSH0 PUSH2 0x3AB1 DUP3 PUSH2 0x2CD8 JUMP JUMPDEST SWAP2 POP PUSH2 0x3ABC DUP4 PUSH2 0x2CD8 JUMP JUMPDEST SWAP3 POP DUP3 DUP3 MUL PUSH2 0x3ACA DUP2 PUSH2 0x2CD8 JUMP JUMPDEST SWAP2 POP DUP3 DUP3 DIV DUP5 EQ DUP4 ISZERO OR PUSH2 0x3AE1 JUMPI PUSH2 0x3AE0 PUSH2 0x330D JUMP JUMPDEST JUMPDEST POP SWAP3 SWAP2 POP POP JUMP JUMPDEST PUSH32 0x536166654D6174683A206D756C7469706C69636174696F6E206F766572666C6F PUSH0 DUP3 ADD MSTORE PUSH32 0x7700000000000000000000000000000000000000000000000000000000000000 PUSH1 0x20 DUP3 ADD MSTORE POP JUMP JUMPDEST PUSH0 PUSH2 0x3B42 PUSH1 0x21 DUP4 PUSH2 0x2C52 JUMP JUMPDEST SWAP2 POP PUSH2 0x3B4D DUP3 PUSH2 0x3AE8 JUMP JUMPDEST PUSH1 0x40 DUP3 ADD SWAP1 POP SWAP2 SWAP1 POP JUMP JUMPDEST PUSH0 PUSH1 0x20 DUP3 ADD SWAP1 POP DUP2 DUP2 SUB PUSH0 DUP4 ADD MSTORE PUSH2 0x3B6F DUP2 PUSH2 0x3B36 JUMP JUMPDEST SWAP1 POP SWAP2 SWAP1 POP JUMP JUMPDEST PUSH32 0x536166654D6174683A206164646974696F6E206F766572666C6F770000000000 PUSH0 DUP3 ADD MSTORE POP JUMP JUMPDEST PUSH0 PUSH2 0x3BAA PUSH1 0x1B DUP4 PUSH2 0x2C52 JUMP JUMPDEST SWAP2 POP PUSH2 0x3BB5 DUP3 PUSH2 0x3B76 JUMP JUMPDEST PUSH1 0x20 DUP3 ADD SWAP1 POP SWAP2 SWAP1 POP JUMP JUMPDEST PUSH0 PUSH1 0x20 DUP3 ADD SWAP1 POP DUP2 DUP2 SUB PUSH0 DUP4 ADD MSTORE PUSH2 0x3BD7 DUP2 PUSH2 0x3B9E JUMP JUMPDEST SWAP1 POP SWAP2 SWAP1 POP JUMP JUMPDEST PUSH32 0x45524332303A206D696E7420746F20746865207A65726F206164647265737300 PUSH0 DUP3 ADD MSTORE POP JUMP JUMPDEST PUSH0 PUSH2 0x3C12 PUSH1 0x1F DUP4 PUSH2 0x2C52 JUMP JUMPDEST SWAP2 POP PUSH2 0x3C1D DUP3 PUSH2 0x3BDE JUMP JUMPDEST PUSH1 0x20 DUP3 ADD SWAP1 POP SWAP2 SWAP1 POP JUMP JUMPDEST PUSH0 PUSH1 0x20 DUP3 ADD SWAP1 POP DUP2 DUP2 SUB PUSH0 DUP4 ADD MSTORE PUSH2 0x3C3F DUP2 PUSH2 0x3C06 JUMP JUMPDEST SWAP1 POP SWAP2 SWAP1 POP JUMP JUMPDEST PUSH32 0x45524332303A206275726E2066726F6D20746865207A65726F20616464726573 PUSH0 DUP3 ADD MSTORE PUSH32 0x7300000000000000000000000000000000000000000000000000000000000000 PUSH1 0x20 DUP3 ADD MSTORE POP JUMP JUMPDEST PUSH0 PUSH2 0x3CA0 PUSH1 0x21 DUP4 PUSH2 0x2C52 JUMP JUMPDEST SWAP2 POP PUSH2 0x3CAB DUP3 PUSH2 0x3C46 JUMP JUMPDEST PUSH1 0x40 DUP3 ADD SWAP1 POP SWAP2 SWAP1 POP JUMP JUMPDEST PUSH0 PUSH1 0x20 DUP3 ADD SWAP1 POP DUP2 DUP2 SUB PUSH0 DUP4 ADD MSTORE PUSH2 0x3CCD DUP2 PUSH2 0x3C94 JUMP JUMPDEST SWAP1 POP SWAP2 SWAP1 POP JUMP INVALID GASLIMIT MSTORE NUMBER ORIGIN ADDRESS GASPRICE KECCAK256 PUSH3 0x75726E KECCAK256 PUSH2 0x6D6F PUSH22 0x6E7420657863656564732062616C616E636545524332 ADDRESS GASPRICE KECCAK256 PUSH21 0x72616E7366657220616D6F756E7420657863656564 PUSH20 0x20616C6C6F77616E636545524332303A20646563 PUSH19 0x656173656420616C6C6F77616E63652062656C PUSH16 0x77207A65726FA2646970667358221220 0xC2 DUP14 0xAD 0xCE SWAP14 0x4F 0xD5 0x25 NUMBER CALLDATALOAD ISZERO POP SDIV 0x4C 0x4E 0xB7 0xC2 CALL 0xB3 0xDD 0x22 0x4C DUP16 0x24 0x29 0xC9 CREATE BYTE 0xE1 0x4C ADDRESS DUP3 PUSH5 0x736F6C6343 STOP ADDMOD BYTE STOP CALLER "
		},
		"gasEstimates": {
			"creation": {
				"codeDepositCost": "7995800",
				"executionCost": "infinite",
				"totalCost": "infinite"
			},
			"external": {
				"LP_Token()": "2599",
				"MIN_PARTICIPANTS()": "438",
				"MIX_COOLDOWN()": "504",
				"PRIVACY_POOL_MIN()": "459",
				"_isBot(address)": "2901",
				"accumulativeDividendOf(address)": "infinite",
				"activateTrading()": "28938",
				"airdropTokens(address[],uint256[])": "infinite",
				"allowance(address,address)": "infinite",
				"approve(address,uint256)": "infinite",
				"automatedMarketMakerPairs(address)": "2989",
				"balanceOf(address)": "2984",
				"buyTaxes()": "infinite",
				"claim()": "infinite",
				"claimEnabled()": "2534",
				"createPrivacyPool(uint256,bytes)": "infinite",
				"decimals()": "494",
				"decreaseAllowance(address,uint256)": "infinite",
				"devWallet()": "2664",
				"distributeLPDividends(uint256)": "infinite",
				"dividendTokenBalanceOf(address)": "infinite",
				"dividendTracker()": "infinite",
				"excludeFromDividends(address,bool)": "infinite",
				"excludeFromFees(address,bool)": "infinite",
				"excludeMultipleAccountsFromFees(address[],bool)": "infinite",
				"excludedFromDividends(address)": "2901",
				"forceSend()": "infinite",
				"getTotalDividendsDistributed()": "infinite",
				"increaseAllowance(address,uint256)": "infinite",
				"initializePrivacyPools(uint256[])": "infinite",
				"isExcludedFromFees(address)": "2960",
				"isPrivacyPool(address)": "2968",
				"lastClaimTimes(address)": "2915",
				"lpToken()": "2620",
				"maxBuyAmount()": "2515",
				"maxSellAmount()": "2559",
				"name()": "infinite",
				"owner()": "2649",
				"pair()": "2619",
				"poolCommitments(uint256,bytes32)": "3090",
				"poolNullifiers(uint256,bytes32)": "3113",
				"privacyEnabled()": "2629",
				"privacyPools(uint256)": "infinite",
				"privateTransfer((bytes32,bytes32,bytes,address,uint256))": "infinite",
				"processAccount(address)": "infinite",
				"processAccountDividends(address)": "infinite",
				"renounceOwnership()": "30467",
				"rescueETH20Tokens(address)": "infinite",
				"router()": "infinite",
				"sellTaxes()": "infinite",
				"setAutomatedMarketMakerPair(address,bool)": "infinite",
				"setBot(address,bool)": "29619",
				"setBulkBot(address[],bool)": "infinite",
				"setBuyTaxes(uint256,uint256,uint256,uint256,uint256)": "infinite",
				"setClaimEnabled(bool)": "27054",
				"setDevWallet(address)": "26987",
				"setLPToken(address)": "30733",
				"setMaxBuyAndSell(uint256,uint256)": "infinite",
				"setPrivacyEnabled(bool)": "26996",
				"setSellTaxes(uint256,uint256,uint256,uint256,uint256)": "infinite",
				"setSwapEnabled(bool)": "27104",
				"setSwapTokensAtAmount(uint256)": "infinite",
				"setTreasuryWallet(address)": "27007",
				"supportedDenominations(uint256)": "infinite",
				"swapEnabled()": "2628",
				"swapTokensAtAmount()": "2513",
				"symbol()": "infinite",
				"totalBuyTax()": "2537",
				"totalDividendsDistributed()": "2538",
				"totalSellTax()": "2582",
				"totalSupply()": "2567",
				"trackerForceSend()": "infinite",
				"trackerRescueETH20Tokens(address)": "infinite",
				"tradingEnabled()": "2673",
				"transfer(address,uint256)": "infinite",
				"transferFrom(address,address,uint256)": "infinite",
				"transferOwnership(address)": "30764",
				"treasuryWallet()": "2598",
				"updateDividendTracker(address)": "infinite",
				"updateLP_Token(address)": "26986",
				"updateRouter(address)": "30460",
				"updateZKVerifier(address)": "27022",
				"usedNullifiers(bytes32)": "2876",
				"usedProofs(bytes32)": "2896",
				"withdrawDividend()": "infinite",
				"withdrawFromPrivacyPool(uint256,bytes32,bytes)": "infinite",
				"withdrawableDividendOf(address)": "infinite",
				"withdrawnDividendOf(address)": "3006",
				"zkVerifier()": "infinite"
			},
			"internal": {
				"_distributeDividends(uint256)": "infinite",
				"_setAutomatedMarketMakerPair(address,bool)": "infinite",
				"_transfer(address,address,uint256)": "infinite",
				"_updateDividendCorrections(address,address,uint256)": "infinite",
				"_withdrawDividendOfUser(address payable)": "infinite",
				"addLiquidity(uint256,uint256)": "infinite",
				"addToPrivacyPool(uint256)": "infinite",
				"appendElement(bytes32[] memory,bytes32)": "infinite",
				"calculateMerkleRoot(bytes32[] memory)": "infinite",
				"findPoolDenomination(uint256)": "infinite",
				"generateCommitment(uint256,address,uint256)": "infinite",
				"getMerkleElements(struct CipherZeroToken.PrivacyPool storage pointer)": "infinite",
				"isContract(address)": "infinite",
				"mixPool(uint256)": "infinite",
				"shouldMixPool(struct CipherZeroToken.PrivacyPool storage pointer)": "infinite",
				"swapAndDistribute(uint256)": "infinite",
				"swapAndLiquify(uint256)": "infinite",
				"swapTokensForETH(uint256)": "infinite",
				"updateMerkleTree(struct CipherZeroToken.PrivacyPool storage pointer,bytes32)": "infinite",
				"updateMerkleTree(uint256,bytes32)": "infinite"
			}
		},
		"methodIdentifiers": {
			"LP_Token()": "1162c4b6",
			"MIN_PARTICIPANTS()": "3a984bc5",
			"MIX_COOLDOWN()": "1ecc12d4",
			"PRIVACY_POOL_MIN()": "afc57387",
			"_isBot(address)": "abb81052",
			"accumulativeDividendOf(address)": "27ce0147",
			"activateTrading()": "0bd05b69",
			"airdropTokens(address[],uint256[])": "706f6937",
			"allowance(address,address)": "dd62ed3e",
			"approve(address,uint256)": "095ea7b3",
			"automatedMarketMakerPairs(address)": "b62496f5",
			"balanceOf(address)": "70a08231",
			"buyTaxes()": "864701a5",
			"claim()": "4e71d92d",
			"claimEnabled()": "2866ed21",
			"createPrivacyPool(uint256,bytes)": "a23bb65d",
			"decimals()": "313ce567",
			"decreaseAllowance(address,uint256)": "a457c2d7",
			"devWallet()": "8ea5220f",
			"distributeLPDividends(uint256)": "ede6ad9c",
			"dividendTokenBalanceOf(address)": "6843cd84",
			"dividendTracker()": "2c1f5216",
			"excludeFromDividends(address,bool)": "0483f7a0",
			"excludeFromFees(address,bool)": "c0246668",
			"excludeMultipleAccountsFromFees(address[],bool)": "c492f046",
			"excludedFromDividends(address)": "4e7b827f",
			"forceSend()": "12b77e8a",
			"getTotalDividendsDistributed()": "30bb4cff",
			"increaseAllowance(address,uint256)": "39509351",
			"initializePrivacyPools(uint256[])": "d4320f9c",
			"isExcludedFromFees(address)": "4fbee193",
			"isPrivacyPool(address)": "400cee7a",
			"lastClaimTimes(address)": "226cfa3d",
			"lpToken()": "5fcbd285",
			"maxBuyAmount()": "88e765ff",
			"maxSellAmount()": "66d602ae",
			"name()": "06fdde03",
			"owner()": "8da5cb5b",
			"pair()": "a8aa1b31",
			"poolCommitments(uint256,bytes32)": "cb865d20",
			"poolNullifiers(uint256,bytes32)": "af1271ef",
			"privacyEnabled()": "303e715f",
			"privacyPools(uint256)": "9a9ffbca",
			"privateTransfer((bytes32,bytes32,bytes,address,uint256))": "4ab5392b",
			"processAccount(address)": "807ab4f7",
			"processAccountDividends(address)": "86384be6",
			"renounceOwnership()": "715018a6",
			"rescueETH20Tokens(address)": "0a78097d",
			"router()": "f887ea40",
			"sellTaxes()": "f66895a3",
			"setAutomatedMarketMakerPair(address,bool)": "9a7a23d6",
			"setBot(address,bool)": "342aa8b5",
			"setBulkBot(address[],bool)": "b83b297f",
			"setBuyTaxes(uint256,uint256,uint256,uint256,uint256)": "40ac48d3",
			"setClaimEnabled(bool)": "92929a09",
			"setDevWallet(address)": "1f53ac02",
			"setLPToken(address)": "6a678a9c",
			"setMaxBuyAndSell(uint256,uint256)": "79b447bd",
			"setPrivacyEnabled(bool)": "3495acca",
			"setSellTaxes(uint256,uint256,uint256,uint256,uint256)": "c791fc54",
			"setSwapEnabled(bool)": "e01af92c",
			"setSwapTokensAtAmount(uint256)": "afa4f3b2",
			"setTreasuryWallet(address)": "a8602fea",
			"supportedDenominations(uint256)": "d77d63ed",
			"swapEnabled()": "6ddd1713",
			"swapTokensAtAmount()": "e2f45605",
			"symbol()": "95d89b41",
			"totalBuyTax()": "46469afb",
			"totalDividendsDistributed()": "85a6b3ae",
			"totalSellTax()": "1bff7898",
			"totalSupply()": "18160ddd",
			"trackerForceSend()": "e11c3368",
			"trackerRescueETH20Tokens(address)": "8c9684f9",
			"tradingEnabled()": "4ada218b",
			"transfer(address,uint256)": "a9059cbb",
			"transferFrom(address,address,uint256)": "23b872dd",
			"transferOwnership(address)": "f2fde38b",
			"treasuryWallet()": "4626402b",
			"updateDividendTracker(address)": "88bdd9be",
			"updateLP_Token(address)": "44b6bd9e",
			"updateRouter(address)": "c851cc32",
			"updateZKVerifier(address)": "01d38886",
			"usedNullifiers(bytes32)": "206137aa",
			"usedProofs(bytes32)": "c30a0f25",
			"withdrawDividend()": "6a474002",
			"withdrawFromPrivacyPool(uint256,bytes32,bytes)": "a83f89e4",
			"withdrawableDividendOf(address)": "a8b9d240",
			"withdrawnDividendOf(address)": "aafd847a",
			"zkVerifier()": "d6df096d"
		}
	},
	"abi": [
		{
			"inputs": [
				{
					"internalType": "address",
					"name": "_zkVerifier",
					"type": "address"
				},
				{
					"internalType": "address",
					"name": "_router",
					"type": "address"
				},
				{
					"internalType": "address",
					"name": "_treasury",
					"type": "address"
				},
				{
					"internalType": "address",
					"name": "_dev",
					"type": "address"
				}
			],
			"stateMutability": "nonpayable",
			"type": "constructor"
		},
		{
			"anonymous": false,
			"inputs": [
				{
					"indexed": true,
					"internalType": "address",
					"name": "owner",
					"type": "address"
				},
				{
					"indexed": true,
					"internalType": "address",
					"name": "spender",
					"type": "address"
				},
				{
					"indexed": false,
					"internalType": "uint256",
					"name": "value",
					"type": "uint256"
				}
			],
			"name": "Approval",
			"type": "event"
		},
		{
			"anonymous": false,
			"inputs": [
				{
					"indexed": true,
					"internalType": "address",
					"name": "account",
					"type": "address"
				},
				{
					"indexed": false,
					"internalType": "uint256",
					"name": "amount",
					"type": "uint256"
				}
			],
			"name": "Claim",
			"type": "event"
		},
		{
			"anonymous": false,
			"inputs": [
				{
					"indexed": true,
					"internalType": "address",
					"name": "from",
					"type": "address"
				},
				{
					"indexed": false,
					"internalType": "uint256",
					"name": "amount",
					"type": "uint256"
				}
			],
			"name": "DividendDistributed",
			"type": "event"
		},
		{
			"anonymous": false,
			"inputs": [
				{
					"indexed": true,
					"internalType": "address",
					"name": "account",
					"type": "address"
				},
				{
					"indexed": false,
					"internalType": "uint256",
					"name": "amount",
					"type": "uint256"
				}
			],
			"name": "DividendProcessed",
			"type": "event"
		},
		{
			"anonymous": false,
			"inputs": [
				{
					"indexed": true,
					"internalType": "address",
					"name": "oldTracker",
					"type": "address"
				},
				{
					"indexed": true,
					"internalType": "address",
					"name": "newTracker",
					"type": "address"
				}
			],
			"name": "DividendTrackerUpdated",
			"type": "event"
		},
		{
			"anonymous": false,
			"inputs": [
				{
					"indexed": true,
					"internalType": "address",
					"name": "to",
					"type": "address"
				},
				{
					"indexed": false,
					"internalType": "uint256",
					"name": "amount",
					"type": "uint256"
				}
			],
			"name": "DividendWithdrawn",
			"type": "event"
		},
		{
			"anonymous": false,
			"inputs": [
				{
					"indexed": true,
					"internalType": "address",
					"name": "from",
					"type": "address"
				},
				{
					"indexed": false,
					"internalType": "uint256",
					"name": "amount",
					"type": "uint256"
				}
			],
			"name": "DividendsDistributed",
			"type": "event"
		},
		{
			"anonymous": false,
			"inputs": [
				{
					"indexed": true,
					"internalType": "address",
					"name": "recipient",
					"type": "address"
				},
				{
					"indexed": false,
					"internalType": "uint256",
					"name": "amount",
					"type": "uint256"
				}
			],
			"name": "ETHRecovered",
			"type": "event"
		},
		{
			"anonymous": false,
			"inputs": [
				{
					"indexed": true,
					"internalType": "address",
					"name": "account",
					"type": "address"
				},
				{
					"indexed": false,
					"internalType": "bool",
					"name": "value",
					"type": "bool"
				}
			],
			"name": "ExcludeFromDividends",
			"type": "event"
		},
		{
			"anonymous": false,
			"inputs": [
				{
					"indexed": true,
					"internalType": "address",
					"name": "account",
					"type": "address"
				},
				{
					"indexed": false,
					"internalType": "bool",
					"name": "isExcluded",
					"type": "bool"
				}
			],
			"name": "ExcludeFromFees",
			"type": "event"
		},
		{
			"anonymous": false,
			"inputs": [
				{
					"indexed": false,
					"internalType": "address[]",
					"name": "accounts",
					"type": "address[]"
				},
				{
					"indexed": false,
					"internalType": "bool",
					"name": "excluded",
					"type": "bool"
				}
			],
			"name": "ExcludeMultipleAccountsFromFees",
			"type": "event"
		},
		{
			"anonymous": false,
			"inputs": [
				{
					"indexed": true,
					"internalType": "address",
					"name": "oldLPToken",
					"type": "address"
				},
				{
					"indexed": true,
					"internalType": "address",
					"name": "newLPToken",
					"type": "address"
				}
			],
			"name": "LPTokenUpdated",
			"type": "event"
		},
		{
			"anonymous": false,
			"inputs": [
				{
					"indexed": true,
					"internalType": "address",
					"name": "previousOwner",
					"type": "address"
				},
				{
					"indexed": true,
					"internalType": "address",
					"name": "newOwner",
					"type": "address"
				}
			],
			"name": "OwnershipTransferred",
			"type": "event"
		},
		{
			"anonymous": false,
			"inputs": [
				{
					"indexed": true,
					"internalType": "address",
					"name": "pool",
					"type": "address"
				}
			],
			"name": "PrivacyPoolClosed",
			"type": "event"
		},
		{
			"anonymous": false,
			"inputs": [
				{
					"indexed": true,
					"internalType": "address",
					"name": "creator",
					"type": "address"
				},
				{
					"indexed": false,
					"internalType": "uint256",
					"name": "amount",
					"type": "uint256"
				}
			],
			"name": "PrivacyPoolCreated",
			"type": "event"
		},
		{
			"anonymous": false,
			"inputs": [
				{
					"indexed": false,
					"internalType": "uint256",
					"name": "denomination",
					"type": "uint256"
				}
			],
			"name": "PrivacyPoolCreated",
			"type": "event"
		},
		{
			"anonymous": false,
			"inputs": [
				{
					"indexed": true,
					"internalType": "uint256",
					"name": "denomination",
					"type": "uint256"
				},
				{
					"indexed": false,
					"internalType": "bytes32",
					"name": "commitment",
					"type": "bytes32"
				}
			],
			"name": "PrivacyPoolDeposit",
			"type": "event"
		},
		{
			"anonymous": false,
			"inputs": [
				{
					"indexed": true,
					"internalType": "uint256",
					"name": "denomination",
					"type": "uint256"
				},
				{
					"indexed": false,
					"internalType": "bytes32",
					"name": "merkleRoot",
					"type": "bytes32"
				}
			],
			"name": "PrivacyPoolMix",
			"type": "event"
		},
		{
			"anonymous": false,
			"inputs": [
				{
					"indexed": true,
					"internalType": "uint256",
					"name": "denomination",
					"type": "uint256"
				},
				{
					"indexed": false,
					"internalType": "bytes32",
					"name": "nullifier",
					"type": "bytes32"
				}
			],
			"name": "PrivacyPoolWithdraw",
			"type": "event"
		},
		{
			"anonymous": false,
			"inputs": [
				{
					"indexed": true,
					"internalType": "bytes32",
					"name": "nullifier",
					"type": "bytes32"
				},
				{
					"indexed": true,
					"internalType": "bytes32",
					"name": "commitment",
					"type": "bytes32"
				}
			],
			"name": "PrivateTransfer",
			"type": "event"
		},
		{
			"anonymous": false,
			"inputs": [
				{
					"indexed": true,
					"internalType": "address",
					"name": "newRouter",
					"type": "address"
				}
			],
			"name": "RouterUpdated",
			"type": "event"
		},
		{
			"anonymous": false,
			"inputs": [
				{
					"indexed": false,
					"internalType": "uint256",
					"name": "tokensSwapped",
					"type": "uint256"
				},
				{
					"indexed": false,
					"internalType": "uint256",
					"name": "amount",
					"type": "uint256"
				}
			],
			"name": "SendDividends",
			"type": "event"
		},
		{
			"anonymous": false,
			"inputs": [
				{
					"indexed": true,
					"internalType": "address",
					"name": "pair",
					"type": "address"
				},
				{
					"indexed": true,
					"internalType": "bool",
					"name": "value",
					"type": "bool"
				}
			],
			"name": "SetAutomatedMarketMakerPair",
			"type": "event"
		},
		{
			"anonymous": false,
			"inputs": [
				{
					"indexed": true,
					"internalType": "address",
					"name": "token",
					"type": "address"
				},
				{
					"indexed": false,
					"internalType": "uint256",
					"name": "amount",
					"type": "uint256"
				}
			],
			"name": "TokensRescued",
			"type": "event"
		},
		{
			"anonymous": false,
			"inputs": [
				{
					"indexed": true,
					"internalType": "address",
					"name": "from",
					"type": "address"
				},
				{
					"indexed": true,
					"internalType": "address",
					"name": "to",
					"type": "address"
				},
				{
					"indexed": false,
					"internalType": "uint256",
					"name": "value",
					"type": "uint256"
				}
			],
			"name": "Transfer",
			"type": "event"
		},
		{
			"inputs": [],
			"name": "LP_Token",
			"outputs": [
				{
					"internalType": "address",
					"name": "",
					"type": "address"
				}
			],
			"stateMutability": "view",
			"type": "function"
		},
		{
			"inputs": [],
			"name": "MIN_PARTICIPANTS",
			"outputs": [
				{
					"internalType": "uint256",
					"name": "",
					"type": "uint256"
				}
			],
			"stateMutability": "view",
			"type": "function"
		},
		{
			"inputs": [],
			"name": "MIX_COOLDOWN",
			"outputs": [
				{
					"internalType": "uint256",
					"name": "",
					"type": "uint256"
				}
			],
			"stateMutability": "view",
			"type": "function"
		},
		{
			"inputs": [],
			"name": "PRIVACY_POOL_MIN",
			"outputs": [
				{
					"internalType": "uint256",
					"name": "",
					"type": "uint256"
				}
			],
			"stateMutability": "view",
			"type": "function"
		},
		{
			"inputs": [
				{
					"internalType": "address",
					"name": "",
					"type": "address"
				}
			],
			"name": "_isBot",
			"outputs": [
				{
					"internalType": "bool",
					"name": "",
					"type": "bool"
				}
			],
			"stateMutability": "view",
			"type": "function"
		},
		{
			"inputs": [
				{
					"internalType": "address",
					"name": "account",
					"type": "address"
				}
			],
			"name": "accumulativeDividendOf",
			"outputs": [
				{
					"internalType": "uint256",
					"name": "",
					"type": "uint256"
				}
			],
			"stateMutability": "view",
			"type": "function"
		},
		{
			"inputs": [],
			"name": "activateTrading",
			"outputs": [],
			"stateMutability": "nonpayable",
			"type": "function"
		},
		{
			"inputs": [
				{
					"internalType": "address[]",
					"name": "accounts",
					"type": "address[]"
				},
				{
					"internalType": "uint256[]",
					"name": "amounts",
					"type": "uint256[]"
				}
			],
			"name": "airdropTokens",
			"outputs": [],
			"stateMutability": "nonpayable",
			"type": "function"
		},
		{
			"inputs": [
				{
					"internalType": "address",
					"name": "owner",
					"type": "address"
				},
				{
					"internalType": "address",
					"name": "spender",
					"type": "address"
				}
			],
			"name": "allowance",
			"outputs": [
				{
					"internalType": "uint256",
					"name": "",
					"type": "uint256"
				}
			],
			"stateMutability": "view",
			"type": "function"
		},
		{
			"inputs": [
				{
					"internalType": "address",
					"name": "spender",
					"type": "address"
				},
				{
					"internalType": "uint256",
					"name": "amount",
					"type": "uint256"
				}
			],
			"name": "approve",
			"outputs": [
				{
					"internalType": "bool",
					"name": "",
					"type": "bool"
				}
			],
			"stateMutability": "nonpayable",
			"type": "function"
		},
		{
			"inputs": [
				{
					"internalType": "address",
					"name": "",
					"type": "address"
				}
			],
			"name": "automatedMarketMakerPairs",
			"outputs": [
				{
					"internalType": "bool",
					"name": "",
					"type": "bool"
				}
			],
			"stateMutability": "view",
			"type": "function"
		},
		{
			"inputs": [
				{
					"internalType": "address",
					"name": "account",
					"type": "address"
				}
			],
			"name": "balanceOf",
			"outputs": [
				{
					"internalType": "uint256",
					"name": "",
					"type": "uint256"
				}
			],
			"stateMutability": "view",
			"type": "function"
		},
		{
			"inputs": [],
			"name": "buyTaxes",
			"outputs": [
				{
					"internalType": "uint256",
					"name": "rewards",
					"type": "uint256"
				},
				{
					"internalType": "uint256",
					"name": "treasury",
					"type": "uint256"
				},
				{
					"internalType": "uint256",
					"name": "privacy",
					"type": "uint256"
				},
				{
					"internalType": "uint256",
					"name": "dev",
					"type": "uint256"
				},
				{
					"internalType": "uint256",
					"name": "liquidity",
					"type": "uint256"
				}
			],
			"stateMutability": "view",
			"type": "function"
		},
		{
			"inputs": [],
			"name": "claim",
			"outputs": [],
			"stateMutability": "nonpayable",
			"type": "function"
		},
		{
			"inputs": [],
			"name": "claimEnabled",
			"outputs": [
				{
					"internalType": "bool",
					"name": "",
					"type": "bool"
				}
			],
			"stateMutability": "view",
			"type": "function"
		},
		{
			"inputs": [
				{
					"internalType": "uint256",
					"name": "amount",
					"type": "uint256"
				},
				{
					"internalType": "bytes",
					"name": "proof",
					"type": "bytes"
				}
			],
			"name": "createPrivacyPool",
			"outputs": [],
			"stateMutability": "nonpayable",
			"type": "function"
		},
		{
			"inputs": [],
			"name": "decimals",
			"outputs": [
				{
					"internalType": "uint8",
					"name": "",
					"type": "uint8"
				}
			],
			"stateMutability": "view",
			"type": "function"
		},
		{
			"inputs": [
				{
					"internalType": "address",
					"name": "spender",
					"type": "address"
				},
				{
					"internalType": "uint256",
					"name": "subtractedValue",
					"type": "uint256"
				}
			],
			"name": "decreaseAllowance",
			"outputs": [
				{
					"internalType": "bool",
					"name": "",
					"type": "bool"
				}
			],
			"stateMutability": "nonpayable",
			"type": "function"
		},
		{
			"inputs": [],
			"name": "devWallet",
			"outputs": [
				{
					"internalType": "address",
					"name": "",
					"type": "address"
				}
			],
			"stateMutability": "view",
			"type": "function"
		},
		{
			"inputs": [
				{
					"internalType": "uint256",
					"name": "amount",
					"type": "uint256"
				}
			],
			"name": "distributeLPDividends",
			"outputs": [],
			"stateMutability": "nonpayable",
			"type": "function"
		},
		{
			"inputs": [
				{
					"internalType": "address",
					"name": "account",
					"type": "address"
				}
			],
			"name": "dividendTokenBalanceOf",
			"outputs": [
				{
					"internalType": "uint256",
					"name": "",
					"type": "uint256"
				}
			],
			"stateMutability": "view",
			"type": "function"
		},
		{
			"inputs": [],
			"name": "dividendTracker",
			"outputs": [
				{
					"internalType": "contract CipherDividendTracker",
					"name": "",
					"type": "address"
				}
			],
			"stateMutability": "view",
			"type": "function"
		},
		{
			"inputs": [
				{
					"internalType": "address",
					"name": "account",
					"type": "address"
				},
				{
					"internalType": "bool",
					"name": "value",
					"type": "bool"
				}
			],
			"name": "excludeFromDividends",
			"outputs": [],
			"stateMutability": "nonpayable",
			"type": "function"
		},
		{
			"inputs": [
				{
					"internalType": "address",
					"name": "account",
					"type": "address"
				},
				{
					"internalType": "bool",
					"name": "excluded",
					"type": "bool"
				}
			],
			"name": "excludeFromFees",
			"outputs": [],
			"stateMutability": "nonpayable",
			"type": "function"
		},
		{
			"inputs": [
				{
					"internalType": "address[]",
					"name": "accounts",
					"type": "address[]"
				},
				{
					"internalType": "bool",
					"name": "excluded",
					"type": "bool"
				}
			],
			"name": "excludeMultipleAccountsFromFees",
			"outputs": [],
			"stateMutability": "nonpayable",
			"type": "function"
		},
		{
			"inputs": [
				{
					"internalType": "address",
					"name": "",
					"type": "address"
				}
			],
			"name": "excludedFromDividends",
			"outputs": [
				{
					"internalType": "bool",
					"name": "",
					"type": "bool"
				}
			],
			"stateMutability": "view",
			"type": "function"
		},
		{
			"inputs": [],
			"name": "forceSend",
			"outputs": [],
			"stateMutability": "nonpayable",
			"type": "function"
		},
		{
			"inputs": [],
			"name": "getTotalDividendsDistributed",
			"outputs": [
				{
					"internalType": "uint256",
					"name": "",
					"type": "uint256"
				}
			],
			"stateMutability": "view",
			"type": "function"
		},
		{
			"inputs": [
				{
					"internalType": "address",
					"name": "spender",
					"type": "address"
				},
				{
					"internalType": "uint256",
					"name": "addedValue",
					"type": "uint256"
				}
			],
			"name": "increaseAllowance",
			"outputs": [
				{
					"internalType": "bool",
					"name": "",
					"type": "bool"
				}
			],
			"stateMutability": "nonpayable",
			"type": "function"
		},
		{
			"inputs": [
				{
					"internalType": "uint256[]",
					"name": "denominations",
					"type": "uint256[]"
				}
			],
			"name": "initializePrivacyPools",
			"outputs": [],
			"stateMutability": "nonpayable",
			"type": "function"
		},
		{
			"inputs": [
				{
					"internalType": "address",
					"name": "account",
					"type": "address"
				}
			],
			"name": "isExcludedFromFees",
			"outputs": [
				{
					"internalType": "bool",
					"name": "",
					"type": "bool"
				}
			],
			"stateMutability": "view",
			"type": "function"
		},
		{
			"inputs": [
				{
					"internalType": "address",
					"name": "",
					"type": "address"
				}
			],
			"name": "isPrivacyPool",
			"outputs": [
				{
					"internalType": "bool",
					"name": "",
					"type": "bool"
				}
			],
			"stateMutability": "view",
			"type": "function"
		},
		{
			"inputs": [
				{
					"internalType": "address",
					"name": "",
					"type": "address"
				}
			],
			"name": "lastClaimTimes",
			"outputs": [
				{
					"internalType": "uint256",
					"name": "",
					"type": "uint256"
				}
			],
			"stateMutability": "view",
			"type": "function"
		},
		{
			"inputs": [],
			"name": "lpToken",
			"outputs": [
				{
					"internalType": "address",
					"name": "",
					"type": "address"
				}
			],
			"stateMutability": "view",
			"type": "function"
		},
		{
			"inputs": [],
			"name": "maxBuyAmount",
			"outputs": [
				{
					"internalType": "uint256",
					"name": "",
					"type": "uint256"
				}
			],
			"stateMutability": "view",
			"type": "function"
		},
		{
			"inputs": [],
			"name": "maxSellAmount",
			"outputs": [
				{
					"internalType": "uint256",
					"name": "",
					"type": "uint256"
				}
			],
			"stateMutability": "view",
			"type": "function"
		},
		{
			"inputs": [],
			"name": "name",
			"outputs": [
				{
					"internalType": "string",
					"name": "",
					"type": "string"
				}
			],
			"stateMutability": "view",
			"type": "function"
		},
		{
			"inputs": [],
			"name": "owner",
			"outputs": [
				{
					"internalType": "address",
					"name": "",
					"type": "address"
				}
			],
			"stateMutability": "view",
			"type": "function"
		},
		{
			"inputs": [],
			"name": "pair",
			"outputs": [
				{
					"internalType": "address",
					"name": "",
					"type": "address"
				}
			],
			"stateMutability": "view",
			"type": "function"
		},
		{
			"inputs": [
				{
					"internalType": "uint256",
					"name": "",
					"type": "uint256"
				},
				{
					"internalType": "bytes32",
					"name": "",
					"type": "bytes32"
				}
			],
			"name": "poolCommitments",
			"outputs": [
				{
					"internalType": "bool",
					"name": "",
					"type": "bool"
				}
			],
			"stateMutability": "view",
			"type": "function"
		},
		{
			"inputs": [
				{
					"internalType": "uint256",
					"name": "",
					"type": "uint256"
				},
				{
					"internalType": "bytes32",
					"name": "",
					"type": "bytes32"
				}
			],
			"name": "poolNullifiers",
			"outputs": [
				{
					"internalType": "bool",
					"name": "",
					"type": "bool"
				}
			],
			"stateMutability": "view",
			"type": "function"
		},
		{
			"inputs": [],
			"name": "privacyEnabled",
			"outputs": [
				{
					"internalType": "bool",
					"name": "",
					"type": "bool"
				}
			],
			"stateMutability": "view",
			"type": "function"
		},
		{
			"inputs": [
				{
					"internalType": "uint256",
					"name": "",
					"type": "uint256"
				}
			],
			"name": "privacyPools",
			"outputs": [
				{
					"internalType": "uint256",
					"name": "balance",
					"type": "uint256"
				},
				{
					"internalType": "uint256",
					"name": "lastMixTime",
					"type": "uint256"
				},
				{
					"internalType": "uint256",
					"name": "participantCount",
					"type": "uint256"
				},
				{
					"internalType": "bytes32",
					"name": "merkleRoot",
					"type": "bytes32"
				}
			],
			"stateMutability": "view",
			"type": "function"
		},
		{
			"inputs": [
				{
					"components": [
						{
							"internalType": "bytes32",
							"name": "nullifier",
							"type": "bytes32"
						},
						{
							"internalType": "bytes32",
							"name": "commitment",
							"type": "bytes32"
						},
						{
							"internalType": "bytes",
							"name": "proof",
							"type": "bytes"
						},
						{
							"internalType": "address",
							"name": "recipient",
							"type": "address"
						},
						{
							"internalType": "uint256",
							"name": "amount",
							"type": "uint256"
						}
					],
					"internalType": "struct CipherZeroToken.PrivateTransferData",
					"name": "data",
					"type": "tuple"
				}
			],
			"name": "privateTransfer",
			"outputs": [],
			"stateMutability": "nonpayable",
			"type": "function"
		},
		{
			"inputs": [
				{
					"internalType": "address payable",
					"name": "account",
					"type": "address"
				}
			],
			"name": "processAccount",
			"outputs": [
				{
					"internalType": "bool",
					"name": "",
					"type": "bool"
				}
			],
			"stateMutability": "nonpayable",
			"type": "function"
		},
		{
			"inputs": [
				{
					"internalType": "address",
					"name": "account",
					"type": "address"
				}
			],
			"name": "processAccountDividends",
			"outputs": [
				{
					"internalType": "bool",
					"name": "",
					"type": "bool"
				}
			],
			"stateMutability": "nonpayable",
			"type": "function"
		},
		{
			"inputs": [],
			"name": "renounceOwnership",
			"outputs": [],
			"stateMutability": "nonpayable",
			"type": "function"
		},
		{
			"inputs": [
				{
					"internalType": "address",
					"name": "tokenAddress",
					"type": "address"
				}
			],
			"name": "rescueETH20Tokens",
			"outputs": [],
			"stateMutability": "nonpayable",
			"type": "function"
		},
		{
			"inputs": [],
			"name": "router",
			"outputs": [
				{
					"internalType": "contract IRouter",
					"name": "",
					"type": "address"
				}
			],
			"stateMutability": "view",
			"type": "function"
		},
		{
			"inputs": [],
			"name": "sellTaxes",
			"outputs": [
				{
					"internalType": "uint256",
					"name": "rewards",
					"type": "uint256"
				},
				{
					"internalType": "uint256",
					"name": "treasury",
					"type": "uint256"
				},
				{
					"internalType": "uint256",
					"name": "privacy",
					"type": "uint256"
				},
				{
					"internalType": "uint256",
					"name": "dev",
					"type": "uint256"
				},
				{
					"internalType": "uint256",
					"name": "liquidity",
					"type": "uint256"
				}
			],
			"stateMutability": "view",
			"type": "function"
		},
		{
			"inputs": [
				{
					"internalType": "address",
					"name": "newPair",
					"type": "address"
				},
				{
					"internalType": "bool",
					"name": "value",
					"type": "bool"
				}
			],
			"name": "setAutomatedMarketMakerPair",
			"outputs": [],
			"stateMutability": "nonpayable",
			"type": "function"
		},
		{
			"inputs": [
				{
					"internalType": "address",
					"name": "bot",
					"type": "address"
				},
				{
					"internalType": "bool",
					"name": "value",
					"type": "bool"
				}
			],
			"name": "setBot",
			"outputs": [],
			"stateMutability": "nonpayable",
			"type": "function"
		},
		{
			"inputs": [
				{
					"internalType": "address[]",
					"name": "bots",
					"type": "address[]"
				},
				{
					"internalType": "bool",
					"name": "value",
					"type": "bool"
				}
			],
			"name": "setBulkBot",
			"outputs": [],
			"stateMutability": "nonpayable",
			"type": "function"
		},
		{
			"inputs": [
				{
					"internalType": "uint256",
					"name": "_rewards",
					"type": "uint256"
				},
				{
					"internalType": "uint256",
					"name": "_treasury",
					"type": "uint256"
				},
				{
					"internalType": "uint256",
					"name": "_privacy",
					"type": "uint256"
				},
				{
					"internalType": "uint256",
					"name": "_dev",
					"type": "uint256"
				},
				{
					"internalType": "uint256",
					"name": "_liquidity",
					"type": "uint256"
				}
			],
			"name": "setBuyTaxes",
			"outputs": [],
			"stateMutability": "nonpayable",
			"type": "function"
		},
		{
			"inputs": [
				{
					"internalType": "bool",
					"name": "state",
					"type": "bool"
				}
			],
			"name": "setClaimEnabled",
			"outputs": [],
			"stateMutability": "nonpayable",
			"type": "function"
		},
		{
			"inputs": [
				{
					"internalType": "address",
					"name": "newWallet",
					"type": "address"
				}
			],
			"name": "setDevWallet",
			"outputs": [],
			"stateMutability": "nonpayable",
			"type": "function"
		},
		{
			"inputs": [
				{
					"internalType": "address",
					"name": "newLPToken",
					"type": "address"
				}
			],
			"name": "setLPToken",
			"outputs": [],
			"stateMutability": "nonpayable",
			"type": "function"
		},
		{
			"inputs": [
				{
					"internalType": "uint256",
					"name": "maxBuy",
					"type": "uint256"
				},
				{
					"internalType": "uint256",
					"name": "maxSell",
					"type": "uint256"
				}
			],
			"name": "setMaxBuyAndSell",
			"outputs": [],
			"stateMutability": "nonpayable",
			"type": "function"
		},
		{
			"inputs": [
				{
					"internalType": "bool",
					"name": "enabled",
					"type": "bool"
				}
			],
			"name": "setPrivacyEnabled",
			"outputs": [],
			"stateMutability": "nonpayable",
			"type": "function"
		},
		{
			"inputs": [
				{
					"internalType": "uint256",
					"name": "_rewards",
					"type": "uint256"
				},
				{
					"internalType": "uint256",
					"name": "_treasury",
					"type": "uint256"
				},
				{
					"internalType": "uint256",
					"name": "_privacy",
					"type": "uint256"
				},
				{
					"internalType": "uint256",
					"name": "_dev",
					"type": "uint256"
				},
				{
					"internalType": "uint256",
					"name": "_liquidity",
					"type": "uint256"
				}
			],
			"name": "setSellTaxes",
			"outputs": [],
			"stateMutability": "nonpayable",
			"type": "function"
		},
		{
			"inputs": [
				{
					"internalType": "bool",
					"name": "_enabled",
					"type": "bool"
				}
			],
			"name": "setSwapEnabled",
			"outputs": [],
			"stateMutability": "nonpayable",
			"type": "function"
		},
		{
			"inputs": [
				{
					"internalType": "uint256",
					"name": "amount",
					"type": "uint256"
				}
			],
			"name": "setSwapTokensAtAmount",
			"outputs": [],
			"stateMutability": "nonpayable",
			"type": "function"
		},
		{
			"inputs": [
				{
					"internalType": "address",
					"name": "newWallet",
					"type": "address"
				}
			],
			"name": "setTreasuryWallet",
			"outputs": [],
			"stateMutability": "nonpayable",
			"type": "function"
		},
		{
			"inputs": [
				{
					"internalType": "uint256",
					"name": "",
					"type": "uint256"
				}
			],
			"name": "supportedDenominations",
			"outputs": [
				{
					"internalType": "uint256",
					"name": "",
					"type": "uint256"
				}
			],
			"stateMutability": "view",
			"type": "function"
		},
		{
			"inputs": [],
			"name": "swapEnabled",
			"outputs": [
				{
					"internalType": "bool",
					"name": "",
					"type": "bool"
				}
			],
			"stateMutability": "view",
			"type": "function"
		},
		{
			"inputs": [],
			"name": "swapTokensAtAmount",
			"outputs": [
				{
					"internalType": "uint256",
					"name": "",
					"type": "uint256"
				}
			],
			"stateMutability": "view",
			"type": "function"
		},
		{
			"inputs": [],
			"name": "symbol",
			"outputs": [
				{
					"internalType": "string",
					"name": "",
					"type": "string"
				}
			],
			"stateMutability": "view",
			"type": "function"
		},
		{
			"inputs": [],
			"name": "totalBuyTax",
			"outputs": [
				{
					"internalType": "uint256",
					"name": "",
					"type": "uint256"
				}
			],
			"stateMutability": "view",
			"type": "function"
		},
		{
			"inputs": [],
			"name": "totalDividendsDistributed",
			"outputs": [
				{
					"internalType": "uint256",
					"name": "",
					"type": "uint256"
				}
			],
			"stateMutability": "view",
			"type": "function"
		},
		{
			"inputs": [],
			"name": "totalSellTax",
			"outputs": [
				{
					"internalType": "uint256",
					"name": "",
					"type": "uint256"
				}
			],
			"stateMutability": "view",
			"type": "function"
		},
		{
			"inputs": [],
			"name": "totalSupply",
			"outputs": [
				{
					"internalType": "uint256",
					"name": "",
					"type": "uint256"
				}
			],
			"stateMutability": "view",
			"type": "function"
		},
		{
			"inputs": [],
			"name": "trackerForceSend",
			"outputs": [],
			"stateMutability": "nonpayable",
			"type": "function"
		},
		{
			"inputs": [
				{
					"internalType": "address",
					"name": "tokenAddress",
					"type": "address"
				}
			],
			"name": "trackerRescueETH20Tokens",
			"outputs": [],
			"stateMutability": "nonpayable",
			"type": "function"
		},
		{
			"inputs": [],
			"name": "tradingEnabled",
			"outputs": [
				{
					"internalType": "bool",
					"name": "",
					"type": "bool"
				}
			],
			"stateMutability": "view",
			"type": "function"
		},
		{
			"inputs": [
				{
					"internalType": "address",
					"name": "recipient",
					"type": "address"
				},
				{
					"internalType": "uint256",
					"name": "amount",
					"type": "uint256"
				}
			],
			"name": "transfer",
			"outputs": [
				{
					"internalType": "bool",
					"name": "",
					"type": "bool"
				}
			],
			"stateMutability": "nonpayable",
			"type": "function"
		},
		{
			"inputs": [
				{
					"internalType": "address",
					"name": "sender",
					"type": "address"
				},
				{
					"internalType": "address",
					"name": "recipient",
					"type": "address"
				},
				{
					"internalType": "uint256",
					"name": "amount",
					"type": "uint256"
				}
			],
			"name": "transferFrom",
			"outputs": [
				{
					"internalType": "bool",
					"name": "",
					"type": "bool"
				}
			],
			"stateMutability": "nonpayable",
			"type": "function"
		},
		{
			"inputs": [
				{
					"internalType": "address",
					"name": "newOwner",
					"type": "address"
				}
			],
			"name": "transferOwnership",
			"outputs": [],
			"stateMutability": "nonpayable",
			"type": "function"
		},
		{
			"inputs": [],
			"name": "treasuryWallet",
			"outputs": [
				{
					"internalType": "address",
					"name": "",
					"type": "address"
				}
			],
			"stateMutability": "view",
			"type": "function"
		},
		{
			"inputs": [
				{
					"internalType": "address",
					"name": "newAddress",
					"type": "address"
				}
			],
			"name": "updateDividendTracker",
			"outputs": [],
			"stateMutability": "nonpayable",
			"type": "function"
		},
		{
			"inputs": [
				{
					"internalType": "address",
					"name": "_lpToken",
					"type": "address"
				}
			],
			"name": "updateLP_Token",
			"outputs": [],
			"stateMutability": "nonpayable",
			"type": "function"
		},
		{
			"inputs": [
				{
					"internalType": "address",
					"name": "newRouter",
					"type": "address"
				}
			],
			"name": "updateRouter",
			"outputs": [],
			"stateMutability": "nonpayable",
			"type": "function"
		},
		{
			"inputs": [
				{
					"internalType": "address",
					"name": "newVerifier",
					"type": "address"
				}
			],
			"name": "updateZKVerifier",
			"outputs": [],
			"stateMutability": "nonpayable",
			"type": "function"
		},
		{
			"inputs": [
				{
					"internalType": "bytes32",
					"name": "",
					"type": "bytes32"
				}
			],
			"name": "usedNullifiers",
			"outputs": [
				{
					"internalType": "bool",
					"name": "",
					"type": "bool"
				}
			],
			"stateMutability": "view",
			"type": "function"
		},
		{
			"inputs": [
				{
					"internalType": "bytes32",
					"name": "",
					"type": "bytes32"
				}
			],
			"name": "usedProofs",
			"outputs": [
				{
					"internalType": "bool",
					"name": "",
					"type": "bool"
				}
			],
			"stateMutability": "view",
			"type": "function"
		},
		{
			"inputs": [],
			"name": "withdrawDividend",
			"outputs": [],
			"stateMutability": "nonpayable",
			"type": "function"
		},
		{
			"inputs": [
				{
					"internalType": "uint256",
					"name": "denomination",
					"type": "uint256"
				},
				{
					"internalType": "bytes32",
					"name": "nullifier",
					"type": "bytes32"
				},
				{
					"internalType": "bytes",
					"name": "proof",
					"type": "bytes"
				}
			],
			"name": "withdrawFromPrivacyPool",
			"outputs": [],
			"stateMutability": "nonpayable",
			"type": "function"
		},
		{
			"inputs": [
				{
					"internalType": "address",
					"name": "account",
					"type": "address"
				}
			],
			"name": "withdrawableDividendOf",
			"outputs": [
				{
					"internalType": "uint256",
					"name": "",
					"type": "uint256"
				}
			],
			"stateMutability": "view",
			"type": "function"
		},
		{
			"inputs": [
				{
					"internalType": "address",
					"name": "account",
					"type": "address"
				}
			],
			"name": "withdrawnDividendOf",
			"outputs": [
				{
					"internalType": "uint256",
					"name": "",
					"type": "uint256"
				}
			],
			"stateMutability": "view",
			"type": "function"
		},
		{
			"inputs": [],
			"name": "zkVerifier",
			"outputs": [
				{
					"internalType": "contract IZKVerifier",
					"name": "",
					"type": "address"
				}
			],
			"stateMutability": "view",
			"type": "function"
		},
		{
			"stateMutability": "payable",
			"type": "receive"
		}
	]
}