{
	"data": {
		"bytecode": {
			"linkReferences": {},
			"object": "608060405234801561000f575f80fd5b506040518060400160405280601781526020017f4369706865725f4469766964656e645f547261636b65720000000000000000008152506040518060400160405280600381526020017f43445400000000000000000000000000000000000000000000000000000000008152505f61008b61014e60201b60201c565b9050805f806101000a81548173ffffffffffffffffffffffffffffffffffffffff021916908373ffffffffffffffffffffffffffffffffffffffff1602179055508073ffffffffffffffffffffffffffffffffffffffff165f73ffffffffffffffffffffffffffffffffffffffff167f8be0079c531659141344cd1fd0a4f28419497f9722a3daafe3b4186f6b6457e060405160405180910390a3508160049081610136919061038f565b508060059081610146919061038f565b50505061045e565b5f33905090565b5f81519050919050565b7f4e487b71000000000000000000000000000000000000000000000000000000005f52604160045260245ffd5b7f4e487b71000000000000000000000000000000000000000000000000000000005f52602260045260245ffd5b5f60028204905060018216806101d057607f821691505b6020821081036101e3576101e261018c565b5b50919050565b5f819050815f5260205f209050919050565b5f6020601f8301049050919050565b5f82821b905092915050565b5f600883026102457fffffffffffffffffffffffffffffffffffffffffffffffffffffffffffffffff8261020a565b61024f868361020a565b95508019841693508086168417925050509392505050565b5f819050919050565b5f819050919050565b5f61029361028e61028984610267565b610270565b610267565b9050919050565b5f819050919050565b6102ac83610279565b6102c06102b88261029a565b848454610216565b825550505050565b5f90565b6102d46102c8565b6102df8184846102a3565b505050565b5b81811015610302576102f75f826102cc565b6001810190506102e5565b5050565b601f82111561034757610318816101e9565b610321846101fb565b81016020851015610330578190505b61034461033c856101fb565b8301826102e4565b50505b505050565b5f82821c905092915050565b5f6103675f198460080261034c565b1980831691505092915050565b5f61037f8383610358565b9150826002028217905092915050565b61039882610155565b67ffffffffffffffff8111156103b1576103b061015f565b5b6103bb82546101b9565b6103c6828285610306565b5f60209050601f8311600181146103f7575f84156103e5578287015190505b6103ef8582610374565b865550610456565b601f198416610405866101e9565b5f5b8281101561042c57848901518255600182019150602085019450602081019050610407565b868310156104495784890151610445601f891682610358565b8355505b6001600288020188555050505b505050505050565b61397a8061046b5f395ff3fe6080604052600436106101f7575f3560e01c806371f971f91161010c578063a457c2d71161009f578063bf3506c11161006e578063bf3506c114610749578063c30a0f2514610785578063dd62ed3e146107c1578063e30443bc146107fd578063f2fde38b14610825576101f7565b8063a457c2d714610659578063a8b9d24014610695578063a9059cbb146106d1578063aafd847a1461070d576101f7565b806391b89fba116100db57806391b89fba1461059f57806395d89b41146105db5780639e1e066114610605578063a39185d71461062f576101f7565b806371f971f9146104e15780637b510fe81461050b57806385a6b3ae1461054b5780638da5cb5b14610575576101f7565b806323b872dd1161018f5780634e7b827f1161015e5780634e7b827f1461041557806368f4d735146104515780636a4740021461047957806370a082311461048f578063715018a6146104cb576101f7565b806323b872dd1461033757806327ce014714610373578063313ce567146103af57806339509351146103d9576101f7565b8063095ea7b3116101cb578063095ea7b31461027f57806318160ddd146102bb57806320800a00146102e5578063226cfa3d146102fb576101f7565b8062ae3bf8146101fb57806303c83302146102235780630483f7a01461022d57806306fdde0314610255575b5f80fd5b348015610206575f80fd5b50610221600480360381019061021c9190612813565b61084d565b005b61022b610a51565b005b348015610238575f80fd5b50610253600480360381019061024e9190612873565b610baf565b005b348015610260575f80fd5b50610269610da0565b6040516102769190612921565b60405180910390f35b34801561028a575f80fd5b506102a560048036038101906102a09190612974565b610e30565b6040516102b291906129c1565b60405180910390f35b3480156102c6575f80fd5b506102cf610e4d565b6040516102dc91906129e9565b60405180910390f35b3480156102f0575f80fd5b506102f9610e56565b005b348015610306575f80fd5b50610321600480360381019061031c9190612813565b610f21565b60405161032e91906129e9565b60405180910390f35b348015610342575f80fd5b5061035d60048036038101906103589190612a02565b610f36565b60405161036a91906129c1565b60405180910390f35b34801561037e575f80fd5b5061039960048036038101906103949190612813565b61100a565b6040516103a691906129e9565b60405180910390f35b3480156103ba575f80fd5b506103c3611093565b6040516103d09190612a6d565b60405180910390f35b3480156103e4575f80fd5b506103ff60048036038101906103fa9190612974565b61109b565b60405161040c91906129c1565b60405180910390f35b348015610420575f80fd5b5061043b60048036038101906104369190612813565b611149565b60405161044891906129c1565b60405180910390f35b34801561045c575f80fd5b5061047760048036038101906104729190612ae7565b611166565b005b348015610484575f80fd5b5061048d611357565b005b34801561049a575f80fd5b506104b560048036038101906104b09190612813565b611453565b6040516104c291906129e9565b60405180910390f35b3480156104d6575f80fd5b506104df611499565b005b3480156104ec575f80fd5b506104f56115e7565b60405161050291906129e9565b60405180910390f35b348015610516575f80fd5b50610531600480360381019061052c9190612813565b6115f3565b604051610542959493929190612b41565b60405180910390f35b348015610556575f80fd5b5061055f61165f565b60405161056c91906129e9565b60405180910390f35b348015610580575f80fd5b50610589611665565b6040516105969190612b92565b60405180910390f35b3480156105aa575f80fd5b506105c560048036038101906105c09190612813565b61168c565b6040516105d291906129e9565b60405180910390f35b3480156105e6575f80fd5b506105ef61169d565b6040516105fc9190612921565b60405180910390f35b348015610610575f80fd5b5061061961172d565b60405161062691906129e9565b60405180910390f35b34801561063a575f80fd5b50610643611733565b60405161065091906129e9565b60405180910390f35b348015610664575f80fd5b5061067f600480360381019061067a9190612974565b611739565b60405161068c91906129c1565b60405180910390f35b3480156106a0575f80fd5b506106bb60048036038101906106b69190612813565b611801565b6040516106c891906129e9565b60405180910390f35b3480156106dc575f80fd5b506106f760048036038101906106f29190612974565b611861565b60405161070491906129c1565b60405180910390f35b348015610718575f80fd5b50610733600480360381019061072e9190612813565b61187e565b60405161074091906129e9565b60405180910390f35b348015610754575f80fd5b5061076f600480360381019061076a9190612813565b6118c4565b60405161077c91906129c1565b60405180910390f35b348015610790575f80fd5b506107ab60048036038101906107a69190612bde565b61191a565b6040516107b891906129c1565b60405180910390f35b3480156107cc575f80fd5b506107e760048036038101906107e29190612c09565b611937565b6040516107f491906129e9565b60405180910390f35b348015610808575f80fd5b50610823600480360381019061081e9190612974565b6119b9565b005b348015610830575f80fd5b5061084b60048036038101906108469190612813565b611b27565b005b610855611ce4565b73ffffffffffffffffffffffffffffffffffffffff165f8054906101000a900473ffffffffffffffffffffffffffffffffffffffff1673ffffffffffffffffffffffffffffffffffffffff16146108e1576040517f08c379a00000000000000000000000000000000000000000000000000000000081526004016108d890612c91565b60405180910390fd5b3073ffffffffffffffffffffffffffffffffffffffff168173ffffffffffffffffffffffffffffffffffffffff160361094f576040517f08c379a000000000000000000000000000000000000000000000000000000000815260040161094690612cf9565b60405180910390fd5b5f8173ffffffffffffffffffffffffffffffffffffffff166370a08231306040518263ffffffff1660e01b81526004016109899190612b92565b602060405180830381865afa1580156109a4573d5f803e3d5ffd5b505050506040513d601f19601f820116820180604052508101906109c89190612d2b565b90508173ffffffffffffffffffffffffffffffffffffffff1663a9059cbb6109ee611665565b836040518363ffffffff1660e01b8152600401610a0c929190612d56565b6020604051808303815f875af1158015610a28573d5f803e3d5ffd5b505050506040513d601f19601f82011682018060405250810190610a4c9190612d91565b505050565b610a59611ce4565b73ffffffffffffffffffffffffffffffffffffffff165f8054906101000a900473ffffffffffffffffffffffffffffffffffffffff1673ffffffffffffffffffffffffffffffffffffffff1614610ae5576040517f08c379a0000000000000000000000000000000000000000000000000000000008152600401610adc90612c91565b60405180910390fd5b5f3411610b27576040517f08c379a0000000000000000000000000000000000000000000000000000000008152600401610b1e90612e06565b60405180910390fd5b5f344244604051602001610b3d93929190612e44565b604051602081830303815290604052805190602001209050610b5e34611ceb565b3073ffffffffffffffffffffffffffffffffffffffff167f1b965cb42b9e88623034282dfc0625466bad745b5e23c4526e96e6913ffcaa4082604051610ba49190612e8f565b60405180910390a250565b610bb7611ce4565b73ffffffffffffffffffffffffffffffffffffffff165f8054906101000a900473ffffffffffffffffffffffffffffffffffffffff1673ffffffffffffffffffffffffffffffffffffffff1614610c43576040517f08c379a0000000000000000000000000000000000000000000000000000000008152600401610c3a90612c91565b60405180910390fd5b801515600a5f8473ffffffffffffffffffffffffffffffffffffffff1673ffffffffffffffffffffffffffffffffffffffff1681526020019081526020015f205f9054906101000a900460ff16151503610cd2576040517f08c379a0000000000000000000000000000000000000000000000000000000008152600401610cc990612ef2565b60405180910390fd5b80600a5f8473ffffffffffffffffffffffffffffffffffffffff1673ffffffffffffffffffffffffffffffffffffffff1681526020019081526020015f205f6101000a81548160ff0219169083151502179055508015610d3b57610d36825f611df9565b610d4e565b610d4d82610d4884611453565b611df9565b5b8173ffffffffffffffffffffffffffffffffffffffff167fa3c7c11b2e12c4144b09a7813f3393ba646392788638998c97be8da908cf04be82604051610d9491906129c1565b60405180910390a25050565b606060048054610daf90612f3d565b80601f0160208091040260200160405190810160405280929190818152602001828054610ddb90612f3d565b8015610e265780601f10610dfd57610100808354040283529160200191610e26565b820191905f5260205f20905b815481529060010190602001808311610e0957829003601f168201915b5050505050905090565b5f610e43610e3c611ce4565b8484611ebe565b6001905092915050565b5f600354905090565b610e5e611ce4565b73ffffffffffffffffffffffffffffffffffffffff165f8054906101000a900473ffffffffffffffffffffffffffffffffffffffff1673ffffffffffffffffffffffffffffffffffffffff1614610eea576040517f08c379a0000000000000000000000000000000000000000000000000000000008152600401610ee190612c91565b60405180910390fd5b5f479050610f1e81610efa611665565b73ffffffffffffffffffffffffffffffffffffffff1661208190919063ffffffff16565b50565b600b602052805f5260405f205f915090505481565b5f610f42848484612171565b610fff84610f4e611ce4565b610ffa856040518060600160405280602881526020016138f86028913960025f8b73ffffffffffffffffffffffffffffffffffffffff1673ffffffffffffffffffffffffffffffffffffffff1681526020019081526020015f205f610fb1611ce4565b73ffffffffffffffffffffffffffffffffffffffff1673ffffffffffffffffffffffffffffffffffffffff1681526020019081526020015f20546121ac9092919063ffffffff16565b611ebe565b600190509392505050565b5f70010000000000000000000000000000000060085f8473ffffffffffffffffffffffffffffffffffffffff1673ffffffffffffffffffffffffffffffffffffffff1681526020019081526020015f205461107861106785611453565b60065461220e90919063ffffffff16565b6110829190612fa3565b61108c9190613011565b9050919050565b5f6012905090565b5f61113f6110a7611ce4565b8461113a8560025f6110b7611ce4565b73ffffffffffffffffffffffffffffffffffffffff1673ffffffffffffffffffffffffffffffffffffffff1681526020019081526020015f205f8973ffffffffffffffffffffffffffffffffffffffff1673ffffffffffffffffffffffffffffffffffffffff1681526020019081526020015f205461228590919063ffffffff16565b611ebe565b6001905092915050565b600a602052805f5260405f205f915054906101000a900460ff1681565b61116f336118c4565b6111ae576040517f08c379a00000000000000000000000000000000000000000000000000000000081526004016111a59061308b565b60405180910390fd5b5f82826040516111bf9291906130e5565b60405180910390209050600c5f8281526020019081526020015f205f9054906101000a900460ff1615611227576040517f08c379a000000000000000000000000000000000000000000000000000000000815260040161121e90613147565b60405180910390fd5b5f611231336122e2565b9050670de0b6b3a764000081101561127e576040517f08c379a0000000000000000000000000000000000000000000000000000000008152600401611275906131af565b60405180910390fd5b6001600c5f8481526020019081526020015f205f6101000a81548160ff02191690831515021790555080600d5f8282546112b891906131cd565b9250508190555042600b5f3373ffffffffffffffffffffffffffffffffffffffff1673ffffffffffffffffffffffffffffffffffffffff1681526020019081526020015f20819055503373ffffffffffffffffffffffffffffffffffffffff167f4804104ccbc53649f5b8b29ecf858272a4a6ed6b9949f0d30237c7a147e846718284604051611349929190613200565b60405180910390a250505050565b611360336118c4565b61139f576040517f08c379a00000000000000000000000000000000000000000000000000000000081526004016113969061308b565b60405180910390fd5b5f6113a9336122e2565b9050670de0b6b3a76400008110156113f6576040517f08c379a00000000000000000000000000000000000000000000000000000000081526004016113ed906131af565b60405180910390fd5b80600d5f82825461140791906131cd565b9250508190555042600b5f3373ffffffffffffffffffffffffffffffffffffffff1673ffffffffffffffffffffffffffffffffffffffff1681526020019081526020015f208190555050565b5f60015f8373ffffffffffffffffffffffffffffffffffffffff1673ffffffffffffffffffffffffffffffffffffffff1681526020019081526020015f20549050919050565b6114a1611ce4565b73ffffffffffffffffffffffffffffffffffffffff165f8054906101000a900473ffffffffffffffffffffffffffffffffffffffff1673ffffffffffffffffffffffffffffffffffffffff161461152d576040517f08c379a000000000000000000000000000000000000000000000000000000000815260040161152490612c91565b60405180910390fd5b5f73ffffffffffffffffffffffffffffffffffffffff165f8054906101000a900473ffffffffffffffffffffffffffffffffffffffff1673ffffffffffffffffffffffffffffffffffffffff167f8be0079c531659141344cd1fd0a4f28419497f9722a3daafe3b4186f6b6457e060405160405180910390a35f805f6101000a81548173ffffffffffffffffffffffffffffffffffffffff021916908373ffffffffffffffffffffffffffffffffffffffff160217905550565b670de0b6b3a764000081565b5f805f805f8561160287611801565b61160b8861100a565b600b5f8a73ffffffffffffffffffffffffffffffffffffffff1673ffffffffffffffffffffffffffffffffffffffff1681526020019081526020015f2054600d549450945094509450945091939590929450565b60075481565b5f805f9054906101000a900473ffffffffffffffffffffffffffffffffffffffff16905090565b5f61169682611801565b9050919050565b6060600580546116ac90612f3d565b80601f01602080910402602001604051908101604052809291908181526020018280546116d890612f3d565b80156117235780601f106116fa57610100808354040283529160200191611723565b820191905f5260205f20905b81548152906001019060200180831161170657829003601f168201915b5050505050905090565b600d5481565b610e1081565b5f6117f7611745611ce4565b846117f2856040518060600160405280602581526020016139206025913960025f61176e611ce4565b73ffffffffffffffffffffffffffffffffffffffff1673ffffffffffffffffffffffffffffffffffffffff1681526020019081526020015f205f8a73ffffffffffffffffffffffffffffffffffffffff1673ffffffffffffffffffffffffffffffffffffffff1681526020019081526020015f20546121ac9092919063ffffffff16565b611ebe565b6001905092915050565b5f61185a60095f8473ffffffffffffffffffffffffffffffffffffffff1673ffffffffffffffffffffffffffffffffffffffff1681526020019081526020015f205461184c8461100a565b61242d90919063ffffffff16565b9050919050565b5f61187461186d611ce4565b8484612171565b6001905092915050565b5f60095f8373ffffffffffffffffffffffffffffffffffffffff1673ffffffffffffffffffffffffffffffffffffffff1681526020019081526020015f20549050919050565b5f610e10600b5f8473ffffffffffffffffffffffffffffffffffffffff1673ffffffffffffffffffffffffffffffffffffffff1681526020019081526020015f205461191091906131cd565b4210159050919050565b600c602052805f5260405f205f915054906101000a900460ff1681565b5f60025f8473ffffffffffffffffffffffffffffffffffffffff1673ffffffffffffffffffffffffffffffffffffffff1681526020019081526020015f205f8373ffffffffffffffffffffffffffffffffffffffff1673ffffffffffffffffffffffffffffffffffffffff1681526020019081526020015f2054905092915050565b6119c1611ce4565b73ffffffffffffffffffffffffffffffffffffffff165f8054906101000a900473ffffffffffffffffffffffffffffffffffffffff1673ffffffffffffffffffffffffffffffffffffffff1614611a4d576040517f08c379a0000000000000000000000000000000000000000000000000000000008152600401611a4490612c91565b60405180910390fd5b600a5f8373ffffffffffffffffffffffffffffffffffffffff1673ffffffffffffffffffffffffffffffffffffffff1681526020019081526020015f205f9054906101000a900460ff16611b2357611aa58282611df9565b5f828242604051602001611abb9392919061326c565b6040516020818303038152906040528051906020012090508273ffffffffffffffffffffffffffffffffffffffff167f1b965cb42b9e88623034282dfc0625466bad745b5e23c4526e96e6913ffcaa4082604051611b199190612e8f565b60405180910390a2505b5050565b611b2f611ce4565b73ffffffffffffffffffffffffffffffffffffffff165f8054906101000a900473ffffffffffffffffffffffffffffffffffffffff1673ffffffffffffffffffffffffffffffffffffffff1614611bbb576040517f08c379a0000000000000000000000000000000000000000000000000000000008152600401611bb290612c91565b60405180910390fd5b5f73ffffffffffffffffffffffffffffffffffffffff168173ffffffffffffffffffffffffffffffffffffffff1603611c29576040517f08c379a0000000000000000000000000000000000000000000000000000000008152600401611c2090613318565b60405180910390fd5b8073ffffffffffffffffffffffffffffffffffffffff165f8054906101000a900473ffffffffffffffffffffffffffffffffffffffff1673ffffffffffffffffffffffffffffffffffffffff167f8be0079c531659141344cd1fd0a4f28419497f9722a3daafe3b4186f6b6457e060405160405180910390a3805f806101000a81548173ffffffffffffffffffffffffffffffffffffffff021916908373ffffffffffffffffffffffffffffffffffffffff16021790555050565b5f33905090565b5f611cf4610e4d565b11611d34576040517f08c379a0000000000000000000000000000000000000000000000000000000008152600401611d2b90613380565b60405180910390fd5b5f811115611df657611d86611d47610e4d565b611d6b7001000000000000000000000000000000008461220e90919063ffffffff16565b611d759190613011565b60065461228590919063ffffffff16565b600681905550611da18160075461228590919063ffffffff16565b6007819055503373ffffffffffffffffffffffffffffffffffffffff167fa493a9229478c3fcd73f66d2cdeb7f94fd0f341da924d1054236d7845411651182604051611ded91906129e9565b60405180910390a25b50565b5f611e0383611453565b905080821115611e33575f611e21828461242d90919063ffffffff16565b9050611e2d8482612476565b50611e5e565b80821015611e5d575f611e4f838361242d90919063ffffffff16565b9050611e5b8482612604565b505b5b5f611e748360065461220e90919063ffffffff16565b90508060085f8673ffffffffffffffffffffffffffffffffffffffff1673ffffffffffffffffffffffffffffffffffffffff1681526020019081526020015f208190555050505050565b5f73ffffffffffffffffffffffffffffffffffffffff168373ffffffffffffffffffffffffffffffffffffffff1603611f2c576040517f08c379a0000000000000000000000000000000000000000000000000000000008152600401611f239061340e565b60405180910390fd5b5f73ffffffffffffffffffffffffffffffffffffffff168273ffffffffffffffffffffffffffffffffffffffff1603611f9a576040517f08c379a0000000000000000000000000000000000000000000000000000000008152600401611f919061349c565b60405180910390fd5b8060025f8573ffffffffffffffffffffffffffffffffffffffff1673ffffffffffffffffffffffffffffffffffffffff1681526020019081526020015f205f8473ffffffffffffffffffffffffffffffffffffffff1673ffffffffffffffffffffffffffffffffffffffff1681526020019081526020015f20819055508173ffffffffffffffffffffffffffffffffffffffff168373ffffffffffffffffffffffffffffffffffffffff167f8c5be1e5ebec7d5bd14f71427d1e84f3dd0314c0f7b2291e5b200ac8c7c3b9258360405161207491906129e9565b60405180910390a3505050565b804710156120c4576040517f08c379a00000000000000000000000000000000000000000000000000000000081526004016120bb90613504565b60405180910390fd5b5f8273ffffffffffffffffffffffffffffffffffffffff16826040516120e990613545565b5f6040518083038185875af1925050503d805f8114612123576040519150601f19603f3d011682016040523d82523d5f602084013e612128565b606091505b505090508061216c576040517f08c379a0000000000000000000000000000000000000000000000000000000008152600401612163906135c9565b60405180910390fd5b505050565b6040517f08c379a00000000000000000000000000000000000000000000000000000000081526004016121a390613657565b60405180910390fd5b5f8383111582906121f3576040517f08c379a00000000000000000000000000000000000000000000000000000000081526004016121ea9190612921565b60405180910390fd5b505f83856122019190613675565b9050809150509392505050565b5f80830361221e575f905061227f565b5f828461222b91906136a8565b905082848261223a9190613011565b1461227a576040517f08c379a000000000000000000000000000000000000000000000000000000000815260040161227190613759565b60405180910390fd5b809150505b92915050565b5f80828461229391906131cd565b9050838110156122d8576040517f08c379a00000000000000000000000000000000000000000000000000000000081526004016122cf906137c1565b60405180910390fd5b8091505092915050565b5f806122ed83611801565b90505f811115612423576123478160095f8673ffffffffffffffffffffffffffffffffffffffff1673ffffffffffffffffffffffffffffffffffffffff1681526020019081526020015f205461228590919063ffffffff16565b60095f8573ffffffffffffffffffffffffffffffffffffffff1673ffffffffffffffffffffffffffffffffffffffff1681526020019081526020015f20819055508273ffffffffffffffffffffffffffffffffffffffff167fee503bee2bb6a87e57bc57db795f98137327401a0e7b7ce42e37926cc1a9ca4d826040516123ce91906129e9565b60405180910390a28273ffffffffffffffffffffffffffffffffffffffff166108fc8290811502906040515f60405180830381858888f19350505050158015612419573d5f803e3d5ffd5b5080915050612428565b5f9150505b919050565b5f61246e83836040518060400160405280601e81526020017f536166654d6174683a207375627472616374696f6e206f766572666c6f7700008152506121ac565b905092915050565b5f73ffffffffffffffffffffffffffffffffffffffff168273ffffffffffffffffffffffffffffffffffffffff16036124e4576040517f08c379a00000000000000000000000000000000000000000000000000000000081526004016124db90613829565b60405180910390fd5b6124ef5f83836127ac565b6125048160035461228590919063ffffffff16565b60038190555061255a8160015f8573ffffffffffffffffffffffffffffffffffffffff1673ffffffffffffffffffffffffffffffffffffffff1681526020019081526020015f205461228590919063ffffffff16565b60015f8473ffffffffffffffffffffffffffffffffffffffff1673ffffffffffffffffffffffffffffffffffffffff1681526020019081526020015f20819055508173ffffffffffffffffffffffffffffffffffffffff165f73ffffffffffffffffffffffffffffffffffffffff167fddf252ad1be2c89b69c2b068fc378daa952ba7f163c4a11628f55a4df523b3ef836040516125f891906129e9565b60405180910390a35050565b5f73ffffffffffffffffffffffffffffffffffffffff168273ffffffffffffffffffffffffffffffffffffffff1603612672576040517f08c379a0000000000000000000000000000000000000000000000000000000008152600401612669906138b7565b60405180910390fd5b61267d825f836127ac565b6126e7816040518060600160405280602281526020016138d66022913960015f8673ffffffffffffffffffffffffffffffffffffffff1673ffffffffffffffffffffffffffffffffffffffff1681526020019081526020015f20546121ac9092919063ffffffff16565b60015f8473ffffffffffffffffffffffffffffffffffffffff1673ffffffffffffffffffffffffffffffffffffffff1681526020019081526020015f208190555061273d8160035461242d90919063ffffffff16565b6003819055505f73ffffffffffffffffffffffffffffffffffffffff168273ffffffffffffffffffffffffffffffffffffffff167fddf252ad1be2c89b69c2b068fc378daa952ba7f163c4a11628f55a4df523b3ef836040516127a091906129e9565b60405180910390a35050565b505050565b5f80fd5b5f80fd5b5f73ffffffffffffffffffffffffffffffffffffffff82169050919050565b5f6127e2826127b9565b9050919050565b6127f2816127d8565b81146127fc575f80fd5b50565b5f8135905061280d816127e9565b92915050565b5f60208284031215612828576128276127b1565b5b5f612835848285016127ff565b91505092915050565b5f8115159050919050565b6128528161283e565b811461285c575f80fd5b50565b5f8135905061286d81612849565b92915050565b5f8060408385031215612889576128886127b1565b5b5f612896858286016127ff565b92505060206128a78582860161285f565b9150509250929050565b5f81519050919050565b5f82825260208201905092915050565b8281835e5f83830152505050565b5f601f19601f8301169050919050565b5f6128f3826128b1565b6128fd81856128bb565b935061290d8185602086016128cb565b612916816128d9565b840191505092915050565b5f6020820190508181035f83015261293981846128e9565b905092915050565b5f819050919050565b61295381612941565b811461295d575f80fd5b50565b5f8135905061296e8161294a565b92915050565b5f806040838503121561298a576129896127b1565b5b5f612997858286016127ff565b92505060206129a885828601612960565b9150509250929050565b6129bb8161283e565b82525050565b5f6020820190506129d45f8301846129b2565b92915050565b6129e381612941565b82525050565b5f6020820190506129fc5f8301846129da565b92915050565b5f805f60608486031215612a1957612a186127b1565b5b5f612a26868287016127ff565b9350506020612a37868287016127ff565b9250506040612a4886828701612960565b9150509250925092565b5f60ff82169050919050565b612a6781612a52565b82525050565b5f602082019050612a805f830184612a5e565b92915050565b5f80fd5b5f80fd5b5f80fd5b5f8083601f840112612aa757612aa6612a86565b5b8235905067ffffffffffffffff811115612ac457612ac3612a8a565b5b602083019150836001820283011115612ae057612adf612a8e565b5b9250929050565b5f8060208385031215612afd57612afc6127b1565b5b5f83013567ffffffffffffffff811115612b1a57612b196127b5565b5b612b2685828601612a92565b92509250509250929050565b612b3b816127d8565b82525050565b5f60a082019050612b545f830188612b32565b612b6160208301876129da565b612b6e60408301866129da565b612b7b60608301856129da565b612b8860808301846129da565b9695505050505050565b5f602082019050612ba55f830184612b32565b92915050565b5f819050919050565b612bbd81612bab565b8114612bc7575f80fd5b50565b5f81359050612bd881612bb4565b92915050565b5f60208284031215612bf357612bf26127b1565b5b5f612c0084828501612bca565b91505092915050565b5f8060408385031215612c1f57612c1e6127b1565b5b5f612c2c858286016127ff565b9250506020612c3d858286016127ff565b9150509250929050565b7f4f776e61626c653a2063616c6c6572206973206e6f7420746865206f776e65725f82015250565b5f612c7b6020836128bb565b9150612c8682612c47565b602082019050919050565b5f6020820190508181035f830152612ca881612c6f565b9050919050565b7f43616e6e6f7420776974686472617720747261636b657220746f6b656e7300005f82015250565b5f612ce3601e836128bb565b9150612cee82612caf565b602082019050919050565b5f6020820190508181035f830152612d1081612cd7565b9050919050565b5f81519050612d258161294a565b92915050565b5f60208284031215612d4057612d3f6127b1565b5b5f612d4d84828501612d17565b91505092915050565b5f604082019050612d695f830185612b32565b612d7660208301846129da565b9392505050565b5f81519050612d8b81612849565b92915050565b5f60208284031215612da657612da56127b1565b5b5f612db384828501612d7d565b91505092915050565b7f4e6f206469766964656e647320746f20646973747269627574650000000000005f82015250565b5f612df0601a836128bb565b9150612dfb82612dbc565b602082019050919050565b5f6020820190508181035f830152612e1d81612de4565b9050919050565b5f819050919050565b612e3e612e3982612941565b612e24565b82525050565b5f612e4f8286612e2d565b602082019150612e5f8285612e2d565b602082019150612e6f8284612e2d565b602082019150819050949350505050565b612e8981612bab565b82525050565b5f602082019050612ea25f830184612e80565b92915050565b7f537461747573206e6f74206368616e67656400000000000000000000000000005f82015250565b5f612edc6012836128bb565b9150612ee782612ea8565b602082019050919050565b5f6020820190508181035f830152612f0981612ed0565b9050919050565b7f4e487b71000000000000000000000000000000000000000000000000000000005f52602260045260245ffd5b5f6002820490506001821680612f5457607f821691505b602082108103612f6757612f66612f10565b5b50919050565b5f819050919050565b7f4e487b71000000000000000000000000000000000000000000000000000000005f52601160045260245ffd5b5f612fad82612f6d565b9150612fb883612f6d565b92508282019050828112155f8312168382125f841215161715612fde57612fdd612f76565b5b92915050565b7f4e487b71000000000000000000000000000000000000000000000000000000005f52601260045260245ffd5b5f61301b82612941565b915061302683612941565b92508261303657613035612fe4565b5b828204905092915050565b7f4d7573742077616974206265666f726520636c61696d696e67000000000000005f82015250565b5f6130756019836128bb565b915061308082613041565b602082019050919050565b5f6020820190508181035f8301526130a281613069565b9050919050565b5f81905092915050565b828183375f83830152505050565b5f6130cc83856130a9565b93506130d98385846130b3565b82840190509392505050565b5f6130f18284866130c1565b91508190509392505050565b7f50726f6f6620616c7265616479207573656400000000000000000000000000005f82015250565b5f6131316012836128bb565b915061313c826130fd565b602082019050919050565b5f6020820190508181035f83015261315e81613125565b9050919050565b7f42656c6f77206d696e696d756d20636c61696d000000000000000000000000005f82015250565b5f6131996013836128bb565b91506131a482613165565b602082019050919050565b5f6020820190508181035f8301526131c68161318d565b9050919050565b5f6131d782612941565b91506131e283612941565b92508282019050808211156131fa576131f9612f76565b5b92915050565b5f6040820190506132135f8301856129da565b6132206020830184612e80565b9392505050565b5f8160601b9050919050565b5f61323d82613227565b9050919050565b5f61324e82613233565b9050919050565b613266613261826127d8565b613244565b82525050565b5f6132778286613255565b6014820191506132878285612e2d565b6020820191506132978284612e2d565b602082019150819050949350505050565b7f4f776e61626c653a206e6577206f776e657220697320746865207a65726f20615f8201527f6464726573730000000000000000000000000000000000000000000000000000602082015250565b5f6133026026836128bb565b915061330d826132a8565b604082019050919050565b5f6020820190508181035f83015261332f816132f6565b9050919050565b7f4e6f20737570706c7900000000000000000000000000000000000000000000005f82015250565b5f61336a6009836128bb565b915061337582613336565b602082019050919050565b5f6020820190508181035f8301526133978161335e565b9050919050565b7f45524332303a20617070726f76652066726f6d20746865207a65726f206164645f8201527f7265737300000000000000000000000000000000000000000000000000000000602082015250565b5f6133f86024836128bb565b91506134038261339e565b604082019050919050565b5f6020820190508181035f830152613425816133ec565b9050919050565b7f45524332303a20617070726f766520746f20746865207a65726f2061646472655f8201527f7373000000000000000000000000000000000000000000000000000000000000602082015250565b5f6134866022836128bb565b91506134918261342c565b604082019050919050565b5f6020820190508181035f8301526134b38161347a565b9050919050565b7f416464726573733a20696e73756666696369656e742062616c616e63650000005f82015250565b5f6134ee601d836128bb565b91506134f9826134ba565b602082019050919050565b5f6020820190508181035f83015261351b816134e2565b9050919050565b50565b5f6135305f836130a9565b915061353b82613522565b5f82019050919050565b5f61354f82613525565b9150819050919050565b7f416464726573733a20756e61626c6520746f2073656e642076616c75652c20725f8201527f6563697069656e74206d61792068617665207265766572746564000000000000602082015250565b5f6135b3603a836128bb565b91506135be82613559565b604082019050919050565b5f6020820190508181035f8301526135e0816135a7565b9050919050565b7f4469766964656e6420747261636b65723a204e6f207472616e736665727320615f8201527f6c6c6f7765640000000000000000000000000000000000000000000000000000602082015250565b5f6136416026836128bb565b915061364c826135e7565b604082019050919050565b5f6020820190508181035f83015261366e81613635565b9050919050565b5f61367f82612941565b915061368a83612941565b92508282039050818111156136a2576136a1612f76565b5b92915050565b5f6136b282612941565b91506136bd83612941565b92508282026136cb81612941565b915082820484148315176136e2576136e1612f76565b5b5092915050565b7f536166654d6174683a206d756c7469706c69636174696f6e206f766572666c6f5f8201527f7700000000000000000000000000000000000000000000000000000000000000602082015250565b5f6137436021836128bb565b915061374e826136e9565b604082019050919050565b5f6020820190508181035f83015261377081613737565b9050919050565b7f536166654d6174683a206164646974696f6e206f766572666c6f7700000000005f82015250565b5f6137ab601b836128bb565b91506137b682613777565b602082019050919050565b5f6020820190508181035f8301526137d88161379f565b9050919050565b7f45524332303a206d696e7420746f20746865207a65726f2061646472657373005f82015250565b5f613813601f836128bb565b915061381e826137df565b602082019050919050565b5f6020820190508181035f83015261384081613807565b9050919050565b7f45524332303a206275726e2066726f6d20746865207a65726f206164647265735f8201527f7300000000000000000000000000000000000000000000000000000000000000602082015250565b5f6138a16021836128bb565b91506138ac82613847565b604082019050919050565b5f6020820190508181035f8301526138ce81613895565b905091905056fe45524332303a206275726e20616d6f756e7420657863656564732062616c616e636545524332303a207472616e7366657220616d6f756e74206578636565647320616c6c6f77616e636545524332303a2064656372656173656420616c6c6f77616e63652062656c6f77207a65726fa26469706673582212200a7ce0ebbef49be8136d6601a316b68263b1644f70095d7c83cd2cf8471e53d664736f6c634300081a0033",
			"opcodes": "PUSH1 0x80 PUSH1 0x40 MSTORE CALLVALUE DUP1 ISZERO PUSH2 0xF JUMPI PUSH0 DUP1 REVERT JUMPDEST POP PUSH1 0x40 MLOAD DUP1 PUSH1 0x40 ADD PUSH1 0x40 MSTORE DUP1 PUSH1 0x17 DUP2 MSTORE PUSH1 0x20 ADD PUSH32 0x4369706865725F4469766964656E645F547261636B6572000000000000000000 DUP2 MSTORE POP PUSH1 0x40 MLOAD DUP1 PUSH1 0x40 ADD PUSH1 0x40 MSTORE DUP1 PUSH1 0x3 DUP2 MSTORE PUSH1 0x20 ADD PUSH32 0x4344540000000000000000000000000000000000000000000000000000000000 DUP2 MSTORE POP PUSH0 PUSH2 0x8B PUSH2 0x14E PUSH1 0x20 SHL PUSH1 0x20 SHR JUMP JUMPDEST SWAP1 POP DUP1 PUSH0 DUP1 PUSH2 0x100 EXP DUP2 SLOAD DUP2 PUSH20 0xFFFFFFFFFFFFFFFFFFFFFFFFFFFFFFFFFFFFFFFF MUL NOT AND SWAP1 DUP4 PUSH20 0xFFFFFFFFFFFFFFFFFFFFFFFFFFFFFFFFFFFFFFFF AND MUL OR SWAP1 SSTORE POP DUP1 PUSH20 0xFFFFFFFFFFFFFFFFFFFFFFFFFFFFFFFFFFFFFFFF AND PUSH0 PUSH20 0xFFFFFFFFFFFFFFFFFFFFFFFFFFFFFFFFFFFFFFFF AND PUSH32 0x8BE0079C531659141344CD1FD0A4F28419497F9722A3DAAFE3B4186F6B6457E0 PUSH1 0x40 MLOAD PUSH1 0x40 MLOAD DUP1 SWAP2 SUB SWAP1 LOG3 POP DUP2 PUSH1 0x4 SWAP1 DUP2 PUSH2 0x136 SWAP2 SWAP1 PUSH2 0x38F JUMP JUMPDEST POP DUP1 PUSH1 0x5 SWAP1 DUP2 PUSH2 0x146 SWAP2 SWAP1 PUSH2 0x38F JUMP JUMPDEST POP POP POP PUSH2 0x45E JUMP JUMPDEST PUSH0 CALLER SWAP1 POP SWAP1 JUMP JUMPDEST PUSH0 DUP2 MLOAD SWAP1 POP SWAP2 SWAP1 POP JUMP JUMPDEST PUSH32 0x4E487B7100000000000000000000000000000000000000000000000000000000 PUSH0 MSTORE PUSH1 0x41 PUSH1 0x4 MSTORE PUSH1 0x24 PUSH0 REVERT JUMPDEST PUSH32 0x4E487B7100000000000000000000000000000000000000000000000000000000 PUSH0 MSTORE PUSH1 0x22 PUSH1 0x4 MSTORE PUSH1 0x24 PUSH0 REVERT JUMPDEST PUSH0 PUSH1 0x2 DUP3 DIV SWAP1 POP PUSH1 0x1 DUP3 AND DUP1 PUSH2 0x1D0 JUMPI PUSH1 0x7F DUP3 AND SWAP2 POP JUMPDEST PUSH1 0x20 DUP3 LT DUP2 SUB PUSH2 0x1E3 JUMPI PUSH2 0x1E2 PUSH2 0x18C JUMP JUMPDEST JUMPDEST POP SWAP2 SWAP1 POP JUMP JUMPDEST PUSH0 DUP2 SWAP1 POP DUP2 PUSH0 MSTORE PUSH1 0x20 PUSH0 KECCAK256 SWAP1 POP SWAP2 SWAP1 POP JUMP JUMPDEST PUSH0 PUSH1 0x20 PUSH1 0x1F DUP4 ADD DIV SWAP1 POP SWAP2 SWAP1 POP JUMP JUMPDEST PUSH0 DUP3 DUP3 SHL SWAP1 POP SWAP3 SWAP2 POP POP JUMP JUMPDEST PUSH0 PUSH1 0x8 DUP4 MUL PUSH2 0x245 PUSH32 0xFFFFFFFFFFFFFFFFFFFFFFFFFFFFFFFFFFFFFFFFFFFFFFFFFFFFFFFFFFFFFFFF DUP3 PUSH2 0x20A JUMP JUMPDEST PUSH2 0x24F DUP7 DUP4 PUSH2 0x20A JUMP JUMPDEST SWAP6 POP DUP1 NOT DUP5 AND SWAP4 POP DUP1 DUP7 AND DUP5 OR SWAP3 POP POP POP SWAP4 SWAP3 POP POP POP JUMP JUMPDEST PUSH0 DUP2 SWAP1 POP SWAP2 SWAP1 POP JUMP JUMPDEST PUSH0 DUP2 SWAP1 POP SWAP2 SWAP1 POP JUMP JUMPDEST PUSH0 PUSH2 0x293 PUSH2 0x28E PUSH2 0x289 DUP5 PUSH2 0x267 JUMP JUMPDEST PUSH2 0x270 JUMP JUMPDEST PUSH2 0x267 JUMP JUMPDEST SWAP1 POP SWAP2 SWAP1 POP JUMP JUMPDEST PUSH0 DUP2 SWAP1 POP SWAP2 SWAP1 POP JUMP JUMPDEST PUSH2 0x2AC DUP4 PUSH2 0x279 JUMP JUMPDEST PUSH2 0x2C0 PUSH2 0x2B8 DUP3 PUSH2 0x29A JUMP JUMPDEST DUP5 DUP5 SLOAD PUSH2 0x216 JUMP JUMPDEST DUP3 SSTORE POP POP POP POP JUMP JUMPDEST PUSH0 SWAP1 JUMP JUMPDEST PUSH2 0x2D4 PUSH2 0x2C8 JUMP JUMPDEST PUSH2 0x2DF DUP2 DUP5 DUP5 PUSH2 0x2A3 JUMP JUMPDEST POP POP POP JUMP JUMPDEST JUMPDEST DUP2 DUP2 LT ISZERO PUSH2 0x302 JUMPI PUSH2 0x2F7 PUSH0 DUP3 PUSH2 0x2CC JUMP JUMPDEST PUSH1 0x1 DUP2 ADD SWAP1 POP PUSH2 0x2E5 JUMP JUMPDEST POP POP JUMP JUMPDEST PUSH1 0x1F DUP3 GT ISZERO PUSH2 0x347 JUMPI PUSH2 0x318 DUP2 PUSH2 0x1E9 JUMP JUMPDEST PUSH2 0x321 DUP5 PUSH2 0x1FB JUMP JUMPDEST DUP2 ADD PUSH1 0x20 DUP6 LT ISZERO PUSH2 0x330 JUMPI DUP2 SWAP1 POP JUMPDEST PUSH2 0x344 PUSH2 0x33C DUP6 PUSH2 0x1FB JUMP JUMPDEST DUP4 ADD DUP3 PUSH2 0x2E4 JUMP JUMPDEST POP POP JUMPDEST POP POP POP JUMP JUMPDEST PUSH0 DUP3 DUP3 SHR SWAP1 POP SWAP3 SWAP2 POP POP JUMP JUMPDEST PUSH0 PUSH2 0x367 PUSH0 NOT DUP5 PUSH1 0x8 MUL PUSH2 0x34C JUMP JUMPDEST NOT DUP1 DUP4 AND SWAP2 POP POP SWAP3 SWAP2 POP POP JUMP JUMPDEST PUSH0 PUSH2 0x37F DUP4 DUP4 PUSH2 0x358 JUMP JUMPDEST SWAP2 POP DUP3 PUSH1 0x2 MUL DUP3 OR SWAP1 POP SWAP3 SWAP2 POP POP JUMP JUMPDEST PUSH2 0x398 DUP3 PUSH2 0x155 JUMP JUMPDEST PUSH8 0xFFFFFFFFFFFFFFFF DUP2 GT ISZERO PUSH2 0x3B1 JUMPI PUSH2 0x3B0 PUSH2 0x15F JUMP JUMPDEST JUMPDEST PUSH2 0x3BB DUP3 SLOAD PUSH2 0x1B9 JUMP JUMPDEST PUSH2 0x3C6 DUP3 DUP3 DUP6 PUSH2 0x306 JUMP JUMPDEST PUSH0 PUSH1 0x20 SWAP1 POP PUSH1 0x1F DUP4 GT PUSH1 0x1 DUP2 EQ PUSH2 0x3F7 JUMPI PUSH0 DUP5 ISZERO PUSH2 0x3E5 JUMPI DUP3 DUP8 ADD MLOAD SWAP1 POP JUMPDEST PUSH2 0x3EF DUP6 DUP3 PUSH2 0x374 JUMP JUMPDEST DUP7 SSTORE POP PUSH2 0x456 JUMP JUMPDEST PUSH1 0x1F NOT DUP5 AND PUSH2 0x405 DUP7 PUSH2 0x1E9 JUMP JUMPDEST PUSH0 JUMPDEST DUP3 DUP2 LT ISZERO PUSH2 0x42C JUMPI DUP5 DUP10 ADD MLOAD DUP3 SSTORE PUSH1 0x1 DUP3 ADD SWAP2 POP PUSH1 0x20 DUP6 ADD SWAP5 POP PUSH1 0x20 DUP2 ADD SWAP1 POP PUSH2 0x407 JUMP JUMPDEST DUP7 DUP4 LT ISZERO PUSH2 0x449 JUMPI DUP5 DUP10 ADD MLOAD PUSH2 0x445 PUSH1 0x1F DUP10 AND DUP3 PUSH2 0x358 JUMP JUMPDEST DUP4 SSTORE POP JUMPDEST PUSH1 0x1 PUSH1 0x2 DUP9 MUL ADD DUP9 SSTORE POP POP POP JUMPDEST POP POP POP POP POP POP JUMP JUMPDEST PUSH2 0x397A DUP1 PUSH2 0x46B PUSH0 CODECOPY PUSH0 RETURN INVALID PUSH1 0x80 PUSH1 0x40 MSTORE PUSH1 0x4 CALLDATASIZE LT PUSH2 0x1F7 JUMPI PUSH0 CALLDATALOAD PUSH1 0xE0 SHR DUP1 PUSH4 0x71F971F9 GT PUSH2 0x10C JUMPI DUP1 PUSH4 0xA457C2D7 GT PUSH2 0x9F JUMPI DUP1 PUSH4 0xBF3506C1 GT PUSH2 0x6E JUMPI DUP1 PUSH4 0xBF3506C1 EQ PUSH2 0x749 JUMPI DUP1 PUSH4 0xC30A0F25 EQ PUSH2 0x785 JUMPI DUP1 PUSH4 0xDD62ED3E EQ PUSH2 0x7C1 JUMPI DUP1 PUSH4 0xE30443BC EQ PUSH2 0x7FD JUMPI DUP1 PUSH4 0xF2FDE38B EQ PUSH2 0x825 JUMPI PUSH2 0x1F7 JUMP JUMPDEST DUP1 PUSH4 0xA457C2D7 EQ PUSH2 0x659 JUMPI DUP1 PUSH4 0xA8B9D240 EQ PUSH2 0x695 JUMPI DUP1 PUSH4 0xA9059CBB EQ PUSH2 0x6D1 JUMPI DUP1 PUSH4 0xAAFD847A EQ PUSH2 0x70D JUMPI PUSH2 0x1F7 JUMP JUMPDEST DUP1 PUSH4 0x91B89FBA GT PUSH2 0xDB JUMPI DUP1 PUSH4 0x91B89FBA EQ PUSH2 0x59F JUMPI DUP1 PUSH4 0x95D89B41 EQ PUSH2 0x5DB JUMPI DUP1 PUSH4 0x9E1E0661 EQ PUSH2 0x605 JUMPI DUP1 PUSH4 0xA39185D7 EQ PUSH2 0x62F JUMPI PUSH2 0x1F7 JUMP JUMPDEST DUP1 PUSH4 0x71F971F9 EQ PUSH2 0x4E1 JUMPI DUP1 PUSH4 0x7B510FE8 EQ PUSH2 0x50B JUMPI DUP1 PUSH4 0x85A6B3AE EQ PUSH2 0x54B JUMPI DUP1 PUSH4 0x8DA5CB5B EQ PUSH2 0x575 JUMPI PUSH2 0x1F7 JUMP JUMPDEST DUP1 PUSH4 0x23B872DD GT PUSH2 0x18F JUMPI DUP1 PUSH4 0x4E7B827F GT PUSH2 0x15E JUMPI DUP1 PUSH4 0x4E7B827F EQ PUSH2 0x415 JUMPI DUP1 PUSH4 0x68F4D735 EQ PUSH2 0x451 JUMPI DUP1 PUSH4 0x6A474002 EQ PUSH2 0x479 JUMPI DUP1 PUSH4 0x70A08231 EQ PUSH2 0x48F JUMPI DUP1 PUSH4 0x715018A6 EQ PUSH2 0x4CB JUMPI PUSH2 0x1F7 JUMP JUMPDEST DUP1 PUSH4 0x23B872DD EQ PUSH2 0x337 JUMPI DUP1 PUSH4 0x27CE0147 EQ PUSH2 0x373 JUMPI DUP1 PUSH4 0x313CE567 EQ PUSH2 0x3AF JUMPI DUP1 PUSH4 0x39509351 EQ PUSH2 0x3D9 JUMPI PUSH2 0x1F7 JUMP JUMPDEST DUP1 PUSH4 0x95EA7B3 GT PUSH2 0x1CB JUMPI DUP1 PUSH4 0x95EA7B3 EQ PUSH2 0x27F JUMPI DUP1 PUSH4 0x18160DDD EQ PUSH2 0x2BB JUMPI DUP1 PUSH4 0x20800A00 EQ PUSH2 0x2E5 JUMPI DUP1 PUSH4 0x226CFA3D EQ PUSH2 0x2FB JUMPI PUSH2 0x1F7 JUMP JUMPDEST DUP1 PUSH3 0xAE3BF8 EQ PUSH2 0x1FB JUMPI DUP1 PUSH4 0x3C83302 EQ PUSH2 0x223 JUMPI DUP1 PUSH4 0x483F7A0 EQ PUSH2 0x22D JUMPI DUP1 PUSH4 0x6FDDE03 EQ PUSH2 0x255 JUMPI JUMPDEST PUSH0 DUP1 REVERT JUMPDEST CALLVALUE DUP1 ISZERO PUSH2 0x206 JUMPI PUSH0 DUP1 REVERT JUMPDEST POP PUSH2 0x221 PUSH1 0x4 DUP1 CALLDATASIZE SUB DUP2 ADD SWAP1 PUSH2 0x21C SWAP2 SWAP1 PUSH2 0x2813 JUMP JUMPDEST PUSH2 0x84D JUMP JUMPDEST STOP JUMPDEST PUSH2 0x22B PUSH2 0xA51 JUMP JUMPDEST STOP JUMPDEST CALLVALUE DUP1 ISZERO PUSH2 0x238 JUMPI PUSH0 DUP1 REVERT JUMPDEST POP PUSH2 0x253 PUSH1 0x4 DUP1 CALLDATASIZE SUB DUP2 ADD SWAP1 PUSH2 0x24E SWAP2 SWAP1 PUSH2 0x2873 JUMP JUMPDEST PUSH2 0xBAF JUMP JUMPDEST STOP JUMPDEST CALLVALUE DUP1 ISZERO PUSH2 0x260 JUMPI PUSH0 DUP1 REVERT JUMPDEST POP PUSH2 0x269 PUSH2 0xDA0 JUMP JUMPDEST PUSH1 0x40 MLOAD PUSH2 0x276 SWAP2 SWAP1 PUSH2 0x2921 JUMP JUMPDEST PUSH1 0x40 MLOAD DUP1 SWAP2 SUB SWAP1 RETURN JUMPDEST CALLVALUE DUP1 ISZERO PUSH2 0x28A JUMPI PUSH0 DUP1 REVERT JUMPDEST POP PUSH2 0x2A5 PUSH1 0x4 DUP1 CALLDATASIZE SUB DUP2 ADD SWAP1 PUSH2 0x2A0 SWAP2 SWAP1 PUSH2 0x2974 JUMP JUMPDEST PUSH2 0xE30 JUMP JUMPDEST PUSH1 0x40 MLOAD PUSH2 0x2B2 SWAP2 SWAP1 PUSH2 0x29C1 JUMP JUMPDEST PUSH1 0x40 MLOAD DUP1 SWAP2 SUB SWAP1 RETURN JUMPDEST CALLVALUE DUP1 ISZERO PUSH2 0x2C6 JUMPI PUSH0 DUP1 REVERT JUMPDEST POP PUSH2 0x2CF PUSH2 0xE4D JUMP JUMPDEST PUSH1 0x40 MLOAD PUSH2 0x2DC SWAP2 SWAP1 PUSH2 0x29E9 JUMP JUMPDEST PUSH1 0x40 MLOAD DUP1 SWAP2 SUB SWAP1 RETURN JUMPDEST CALLVALUE DUP1 ISZERO PUSH2 0x2F0 JUMPI PUSH0 DUP1 REVERT JUMPDEST POP PUSH2 0x2F9 PUSH2 0xE56 JUMP JUMPDEST STOP JUMPDEST CALLVALUE DUP1 ISZERO PUSH2 0x306 JUMPI PUSH0 DUP1 REVERT JUMPDEST POP PUSH2 0x321 PUSH1 0x4 DUP1 CALLDATASIZE SUB DUP2 ADD SWAP1 PUSH2 0x31C SWAP2 SWAP1 PUSH2 0x2813 JUMP JUMPDEST PUSH2 0xF21 JUMP JUMPDEST PUSH1 0x40 MLOAD PUSH2 0x32E SWAP2 SWAP1 PUSH2 0x29E9 JUMP JUMPDEST PUSH1 0x40 MLOAD DUP1 SWAP2 SUB SWAP1 RETURN JUMPDEST CALLVALUE DUP1 ISZERO PUSH2 0x342 JUMPI PUSH0 DUP1 REVERT JUMPDEST POP PUSH2 0x35D PUSH1 0x4 DUP1 CALLDATASIZE SUB DUP2 ADD SWAP1 PUSH2 0x358 SWAP2 SWAP1 PUSH2 0x2A02 JUMP JUMPDEST PUSH2 0xF36 JUMP JUMPDEST PUSH1 0x40 MLOAD PUSH2 0x36A SWAP2 SWAP1 PUSH2 0x29C1 JUMP JUMPDEST PUSH1 0x40 MLOAD DUP1 SWAP2 SUB SWAP1 RETURN JUMPDEST CALLVALUE DUP1 ISZERO PUSH2 0x37E JUMPI PUSH0 DUP1 REVERT JUMPDEST POP PUSH2 0x399 PUSH1 0x4 DUP1 CALLDATASIZE SUB DUP2 ADD SWAP1 PUSH2 0x394 SWAP2 SWAP1 PUSH2 0x2813 JUMP JUMPDEST PUSH2 0x100A JUMP JUMPDEST PUSH1 0x40 MLOAD PUSH2 0x3A6 SWAP2 SWAP1 PUSH2 0x29E9 JUMP JUMPDEST PUSH1 0x40 MLOAD DUP1 SWAP2 SUB SWAP1 RETURN JUMPDEST CALLVALUE DUP1 ISZERO PUSH2 0x3BA JUMPI PUSH0 DUP1 REVERT JUMPDEST POP PUSH2 0x3C3 PUSH2 0x1093 JUMP JUMPDEST PUSH1 0x40 MLOAD PUSH2 0x3D0 SWAP2 SWAP1 PUSH2 0x2A6D JUMP JUMPDEST PUSH1 0x40 MLOAD DUP1 SWAP2 SUB SWAP1 RETURN JUMPDEST CALLVALUE DUP1 ISZERO PUSH2 0x3E4 JUMPI PUSH0 DUP1 REVERT JUMPDEST POP PUSH2 0x3FF PUSH1 0x4 DUP1 CALLDATASIZE SUB DUP2 ADD SWAP1 PUSH2 0x3FA SWAP2 SWAP1 PUSH2 0x2974 JUMP JUMPDEST PUSH2 0x109B JUMP JUMPDEST PUSH1 0x40 MLOAD PUSH2 0x40C SWAP2 SWAP1 PUSH2 0x29C1 JUMP JUMPDEST PUSH1 0x40 MLOAD DUP1 SWAP2 SUB SWAP1 RETURN JUMPDEST CALLVALUE DUP1 ISZERO PUSH2 0x420 JUMPI PUSH0 DUP1 REVERT JUMPDEST POP PUSH2 0x43B PUSH1 0x4 DUP1 CALLDATASIZE SUB DUP2 ADD SWAP1 PUSH2 0x436 SWAP2 SWAP1 PUSH2 0x2813 JUMP JUMPDEST PUSH2 0x1149 JUMP JUMPDEST PUSH1 0x40 MLOAD PUSH2 0x448 SWAP2 SWAP1 PUSH2 0x29C1 JUMP JUMPDEST PUSH1 0x40 MLOAD DUP1 SWAP2 SUB SWAP1 RETURN JUMPDEST CALLVALUE DUP1 ISZERO PUSH2 0x45C JUMPI PUSH0 DUP1 REVERT JUMPDEST POP PUSH2 0x477 PUSH1 0x4 DUP1 CALLDATASIZE SUB DUP2 ADD SWAP1 PUSH2 0x472 SWAP2 SWAP1 PUSH2 0x2AE7 JUMP JUMPDEST PUSH2 0x1166 JUMP JUMPDEST STOP JUMPDEST CALLVALUE DUP1 ISZERO PUSH2 0x484 JUMPI PUSH0 DUP1 REVERT JUMPDEST POP PUSH2 0x48D PUSH2 0x1357 JUMP JUMPDEST STOP JUMPDEST CALLVALUE DUP1 ISZERO PUSH2 0x49A JUMPI PUSH0 DUP1 REVERT JUMPDEST POP PUSH2 0x4B5 PUSH1 0x4 DUP1 CALLDATASIZE SUB DUP2 ADD SWAP1 PUSH2 0x4B0 SWAP2 SWAP1 PUSH2 0x2813 JUMP JUMPDEST PUSH2 0x1453 JUMP JUMPDEST PUSH1 0x40 MLOAD PUSH2 0x4C2 SWAP2 SWAP1 PUSH2 0x29E9 JUMP JUMPDEST PUSH1 0x40 MLOAD DUP1 SWAP2 SUB SWAP1 RETURN JUMPDEST CALLVALUE DUP1 ISZERO PUSH2 0x4D6 JUMPI PUSH0 DUP1 REVERT JUMPDEST POP PUSH2 0x4DF PUSH2 0x1499 JUMP JUMPDEST STOP JUMPDEST CALLVALUE DUP1 ISZERO PUSH2 0x4EC JUMPI PUSH0 DUP1 REVERT JUMPDEST POP PUSH2 0x4F5 PUSH2 0x15E7 JUMP JUMPDEST PUSH1 0x40 MLOAD PUSH2 0x502 SWAP2 SWAP1 PUSH2 0x29E9 JUMP JUMPDEST PUSH1 0x40 MLOAD DUP1 SWAP2 SUB SWAP1 RETURN JUMPDEST CALLVALUE DUP1 ISZERO PUSH2 0x516 JUMPI PUSH0 DUP1 REVERT JUMPDEST POP PUSH2 0x531 PUSH1 0x4 DUP1 CALLDATASIZE SUB DUP2 ADD SWAP1 PUSH2 0x52C SWAP2 SWAP1 PUSH2 0x2813 JUMP JUMPDEST PUSH2 0x15F3 JUMP JUMPDEST PUSH1 0x40 MLOAD PUSH2 0x542 SWAP6 SWAP5 SWAP4 SWAP3 SWAP2 SWAP1 PUSH2 0x2B41 JUMP JUMPDEST PUSH1 0x40 MLOAD DUP1 SWAP2 SUB SWAP1 RETURN JUMPDEST CALLVALUE DUP1 ISZERO PUSH2 0x556 JUMPI PUSH0 DUP1 REVERT JUMPDEST POP PUSH2 0x55F PUSH2 0x165F JUMP JUMPDEST PUSH1 0x40 MLOAD PUSH2 0x56C SWAP2 SWAP1 PUSH2 0x29E9 JUMP JUMPDEST PUSH1 0x40 MLOAD DUP1 SWAP2 SUB SWAP1 RETURN JUMPDEST CALLVALUE DUP1 ISZERO PUSH2 0x580 JUMPI PUSH0 DUP1 REVERT JUMPDEST POP PUSH2 0x589 PUSH2 0x1665 JUMP JUMPDEST PUSH1 0x40 MLOAD PUSH2 0x596 SWAP2 SWAP1 PUSH2 0x2B92 JUMP JUMPDEST PUSH1 0x40 MLOAD DUP1 SWAP2 SUB SWAP1 RETURN JUMPDEST CALLVALUE DUP1 ISZERO PUSH2 0x5AA JUMPI PUSH0 DUP1 REVERT JUMPDEST POP PUSH2 0x5C5 PUSH1 0x4 DUP1 CALLDATASIZE SUB DUP2 ADD SWAP1 PUSH2 0x5C0 SWAP2 SWAP1 PUSH2 0x2813 JUMP JUMPDEST PUSH2 0x168C JUMP JUMPDEST PUSH1 0x40 MLOAD PUSH2 0x5D2 SWAP2 SWAP1 PUSH2 0x29E9 JUMP JUMPDEST PUSH1 0x40 MLOAD DUP1 SWAP2 SUB SWAP1 RETURN JUMPDEST CALLVALUE DUP1 ISZERO PUSH2 0x5E6 JUMPI PUSH0 DUP1 REVERT JUMPDEST POP PUSH2 0x5EF PUSH2 0x169D JUMP JUMPDEST PUSH1 0x40 MLOAD PUSH2 0x5FC SWAP2 SWAP1 PUSH2 0x2921 JUMP JUMPDEST PUSH1 0x40 MLOAD DUP1 SWAP2 SUB SWAP1 RETURN JUMPDEST CALLVALUE DUP1 ISZERO PUSH2 0x610 JUMPI PUSH0 DUP1 REVERT JUMPDEST POP PUSH2 0x619 PUSH2 0x172D JUMP JUMPDEST PUSH1 0x40 MLOAD PUSH2 0x626 SWAP2 SWAP1 PUSH2 0x29E9 JUMP JUMPDEST PUSH1 0x40 MLOAD DUP1 SWAP2 SUB SWAP1 RETURN JUMPDEST CALLVALUE DUP1 ISZERO PUSH2 0x63A JUMPI PUSH0 DUP1 REVERT JUMPDEST POP PUSH2 0x643 PUSH2 0x1733 JUMP JUMPDEST PUSH1 0x40 MLOAD PUSH2 0x650 SWAP2 SWAP1 PUSH2 0x29E9 JUMP JUMPDEST PUSH1 0x40 MLOAD DUP1 SWAP2 SUB SWAP1 RETURN JUMPDEST CALLVALUE DUP1 ISZERO PUSH2 0x664 JUMPI PUSH0 DUP1 REVERT JUMPDEST POP PUSH2 0x67F PUSH1 0x4 DUP1 CALLDATASIZE SUB DUP2 ADD SWAP1 PUSH2 0x67A SWAP2 SWAP1 PUSH2 0x2974 JUMP JUMPDEST PUSH2 0x1739 JUMP JUMPDEST PUSH1 0x40 MLOAD PUSH2 0x68C SWAP2 SWAP1 PUSH2 0x29C1 JUMP JUMPDEST PUSH1 0x40 MLOAD DUP1 SWAP2 SUB SWAP1 RETURN JUMPDEST CALLVALUE DUP1 ISZERO PUSH2 0x6A0 JUMPI PUSH0 DUP1 REVERT JUMPDEST POP PUSH2 0x6BB PUSH1 0x4 DUP1 CALLDATASIZE SUB DUP2 ADD SWAP1 PUSH2 0x6B6 SWAP2 SWAP1 PUSH2 0x2813 JUMP JUMPDEST PUSH2 0x1801 JUMP JUMPDEST PUSH1 0x40 MLOAD PUSH2 0x6C8 SWAP2 SWAP1 PUSH2 0x29E9 JUMP JUMPDEST PUSH1 0x40 MLOAD DUP1 SWAP2 SUB SWAP1 RETURN JUMPDEST CALLVALUE DUP1 ISZERO PUSH2 0x6DC JUMPI PUSH0 DUP1 REVERT JUMPDEST POP PUSH2 0x6F7 PUSH1 0x4 DUP1 CALLDATASIZE SUB DUP2 ADD SWAP1 PUSH2 0x6F2 SWAP2 SWAP1 PUSH2 0x2974 JUMP JUMPDEST PUSH2 0x1861 JUMP JUMPDEST PUSH1 0x40 MLOAD PUSH2 0x704 SWAP2 SWAP1 PUSH2 0x29C1 JUMP JUMPDEST PUSH1 0x40 MLOAD DUP1 SWAP2 SUB SWAP1 RETURN JUMPDEST CALLVALUE DUP1 ISZERO PUSH2 0x718 JUMPI PUSH0 DUP1 REVERT JUMPDEST POP PUSH2 0x733 PUSH1 0x4 DUP1 CALLDATASIZE SUB DUP2 ADD SWAP1 PUSH2 0x72E SWAP2 SWAP1 PUSH2 0x2813 JUMP JUMPDEST PUSH2 0x187E JUMP JUMPDEST PUSH1 0x40 MLOAD PUSH2 0x740 SWAP2 SWAP1 PUSH2 0x29E9 JUMP JUMPDEST PUSH1 0x40 MLOAD DUP1 SWAP2 SUB SWAP1 RETURN JUMPDEST CALLVALUE DUP1 ISZERO PUSH2 0x754 JUMPI PUSH0 DUP1 REVERT JUMPDEST POP PUSH2 0x76F PUSH1 0x4 DUP1 CALLDATASIZE SUB DUP2 ADD SWAP1 PUSH2 0x76A SWAP2 SWAP1 PUSH2 0x2813 JUMP JUMPDEST PUSH2 0x18C4 JUMP JUMPDEST PUSH1 0x40 MLOAD PUSH2 0x77C SWAP2 SWAP1 PUSH2 0x29C1 JUMP JUMPDEST PUSH1 0x40 MLOAD DUP1 SWAP2 SUB SWAP1 RETURN JUMPDEST CALLVALUE DUP1 ISZERO PUSH2 0x790 JUMPI PUSH0 DUP1 REVERT JUMPDEST POP PUSH2 0x7AB PUSH1 0x4 DUP1 CALLDATASIZE SUB DUP2 ADD SWAP1 PUSH2 0x7A6 SWAP2 SWAP1 PUSH2 0x2BDE JUMP JUMPDEST PUSH2 0x191A JUMP JUMPDEST PUSH1 0x40 MLOAD PUSH2 0x7B8 SWAP2 SWAP1 PUSH2 0x29C1 JUMP JUMPDEST PUSH1 0x40 MLOAD DUP1 SWAP2 SUB SWAP1 RETURN JUMPDEST CALLVALUE DUP1 ISZERO PUSH2 0x7CC JUMPI PUSH0 DUP1 REVERT JUMPDEST POP PUSH2 0x7E7 PUSH1 0x4 DUP1 CALLDATASIZE SUB DUP2 ADD SWAP1 PUSH2 0x7E2 SWAP2 SWAP1 PUSH2 0x2C09 JUMP JUMPDEST PUSH2 0x1937 JUMP JUMPDEST PUSH1 0x40 MLOAD PUSH2 0x7F4 SWAP2 SWAP1 PUSH2 0x29E9 JUMP JUMPDEST PUSH1 0x40 MLOAD DUP1 SWAP2 SUB SWAP1 RETURN JUMPDEST CALLVALUE DUP1 ISZERO PUSH2 0x808 JUMPI PUSH0 DUP1 REVERT JUMPDEST POP PUSH2 0x823 PUSH1 0x4 DUP1 CALLDATASIZE SUB DUP2 ADD SWAP1 PUSH2 0x81E SWAP2 SWAP1 PUSH2 0x2974 JUMP JUMPDEST PUSH2 0x19B9 JUMP JUMPDEST STOP JUMPDEST CALLVALUE DUP1 ISZERO PUSH2 0x830 JUMPI PUSH0 DUP1 REVERT JUMPDEST POP PUSH2 0x84B PUSH1 0x4 DUP1 CALLDATASIZE SUB DUP2 ADD SWAP1 PUSH2 0x846 SWAP2 SWAP1 PUSH2 0x2813 JUMP JUMPDEST PUSH2 0x1B27 JUMP JUMPDEST STOP JUMPDEST PUSH2 0x855 PUSH2 0x1CE4 JUMP JUMPDEST PUSH20 0xFFFFFFFFFFFFFFFFFFFFFFFFFFFFFFFFFFFFFFFF AND PUSH0 DUP1 SLOAD SWAP1 PUSH2 0x100 EXP SWAP1 DIV PUSH20 0xFFFFFFFFFFFFFFFFFFFFFFFFFFFFFFFFFFFFFFFF AND PUSH20 0xFFFFFFFFFFFFFFFFFFFFFFFFFFFFFFFFFFFFFFFF AND EQ PUSH2 0x8E1 JUMPI PUSH1 0x40 MLOAD PUSH32 0x8C379A000000000000000000000000000000000000000000000000000000000 DUP2 MSTORE PUSH1 0x4 ADD PUSH2 0x8D8 SWAP1 PUSH2 0x2C91 JUMP JUMPDEST PUSH1 0x40 MLOAD DUP1 SWAP2 SUB SWAP1 REVERT JUMPDEST ADDRESS PUSH20 0xFFFFFFFFFFFFFFFFFFFFFFFFFFFFFFFFFFFFFFFF AND DUP2 PUSH20 0xFFFFFFFFFFFFFFFFFFFFFFFFFFFFFFFFFFFFFFFF AND SUB PUSH2 0x94F JUMPI PUSH1 0x40 MLOAD PUSH32 0x8C379A000000000000000000000000000000000000000000000000000000000 DUP2 MSTORE PUSH1 0x4 ADD PUSH2 0x946 SWAP1 PUSH2 0x2CF9 JUMP JUMPDEST PUSH1 0x40 MLOAD DUP1 SWAP2 SUB SWAP1 REVERT JUMPDEST PUSH0 DUP2 PUSH20 0xFFFFFFFFFFFFFFFFFFFFFFFFFFFFFFFFFFFFFFFF AND PUSH4 0x70A08231 ADDRESS PUSH1 0x40 MLOAD DUP3 PUSH4 0xFFFFFFFF AND PUSH1 0xE0 SHL DUP2 MSTORE PUSH1 0x4 ADD PUSH2 0x989 SWAP2 SWAP1 PUSH2 0x2B92 JUMP JUMPDEST PUSH1 0x20 PUSH1 0x40 MLOAD DUP1 DUP4 SUB DUP2 DUP7 GAS STATICCALL ISZERO DUP1 ISZERO PUSH2 0x9A4 JUMPI RETURNDATASIZE PUSH0 DUP1 RETURNDATACOPY RETURNDATASIZE PUSH0 REVERT JUMPDEST POP POP POP POP PUSH1 0x40 MLOAD RETURNDATASIZE PUSH1 0x1F NOT PUSH1 0x1F DUP3 ADD AND DUP3 ADD DUP1 PUSH1 0x40 MSTORE POP DUP2 ADD SWAP1 PUSH2 0x9C8 SWAP2 SWAP1 PUSH2 0x2D2B JUMP JUMPDEST SWAP1 POP DUP2 PUSH20 0xFFFFFFFFFFFFFFFFFFFFFFFFFFFFFFFFFFFFFFFF AND PUSH4 0xA9059CBB PUSH2 0x9EE PUSH2 0x1665 JUMP JUMPDEST DUP4 PUSH1 0x40 MLOAD DUP4 PUSH4 0xFFFFFFFF AND PUSH1 0xE0 SHL DUP2 MSTORE PUSH1 0x4 ADD PUSH2 0xA0C SWAP3 SWAP2 SWAP1 PUSH2 0x2D56 JUMP JUMPDEST PUSH1 0x20 PUSH1 0x40 MLOAD DUP1 DUP4 SUB DUP2 PUSH0 DUP8 GAS CALL ISZERO DUP1 ISZERO PUSH2 0xA28 JUMPI RETURNDATASIZE PUSH0 DUP1 RETURNDATACOPY RETURNDATASIZE PUSH0 REVERT JUMPDEST POP POP POP POP PUSH1 0x40 MLOAD RETURNDATASIZE PUSH1 0x1F NOT PUSH1 0x1F DUP3 ADD AND DUP3 ADD DUP1 PUSH1 0x40 MSTORE POP DUP2 ADD SWAP1 PUSH2 0xA4C SWAP2 SWAP1 PUSH2 0x2D91 JUMP JUMPDEST POP POP POP JUMP JUMPDEST PUSH2 0xA59 PUSH2 0x1CE4 JUMP JUMPDEST PUSH20 0xFFFFFFFFFFFFFFFFFFFFFFFFFFFFFFFFFFFFFFFF AND PUSH0 DUP1 SLOAD SWAP1 PUSH2 0x100 EXP SWAP1 DIV PUSH20 0xFFFFFFFFFFFFFFFFFFFFFFFFFFFFFFFFFFFFFFFF AND PUSH20 0xFFFFFFFFFFFFFFFFFFFFFFFFFFFFFFFFFFFFFFFF AND EQ PUSH2 0xAE5 JUMPI PUSH1 0x40 MLOAD PUSH32 0x8C379A000000000000000000000000000000000000000000000000000000000 DUP2 MSTORE PUSH1 0x4 ADD PUSH2 0xADC SWAP1 PUSH2 0x2C91 JUMP JUMPDEST PUSH1 0x40 MLOAD DUP1 SWAP2 SUB SWAP1 REVERT JUMPDEST PUSH0 CALLVALUE GT PUSH2 0xB27 JUMPI PUSH1 0x40 MLOAD PUSH32 0x8C379A000000000000000000000000000000000000000000000000000000000 DUP2 MSTORE PUSH1 0x4 ADD PUSH2 0xB1E SWAP1 PUSH2 0x2E06 JUMP JUMPDEST PUSH1 0x40 MLOAD DUP1 SWAP2 SUB SWAP1 REVERT JUMPDEST PUSH0 CALLVALUE TIMESTAMP PREVRANDAO PUSH1 0x40 MLOAD PUSH1 0x20 ADD PUSH2 0xB3D SWAP4 SWAP3 SWAP2 SWAP1 PUSH2 0x2E44 JUMP JUMPDEST PUSH1 0x40 MLOAD PUSH1 0x20 DUP2 DUP4 SUB SUB DUP2 MSTORE SWAP1 PUSH1 0x40 MSTORE DUP1 MLOAD SWAP1 PUSH1 0x20 ADD KECCAK256 SWAP1 POP PUSH2 0xB5E CALLVALUE PUSH2 0x1CEB JUMP JUMPDEST ADDRESS PUSH20 0xFFFFFFFFFFFFFFFFFFFFFFFFFFFFFFFFFFFFFFFF AND PUSH32 0x1B965CB42B9E88623034282DFC0625466BAD745B5E23C4526E96E6913FFCAA40 DUP3 PUSH1 0x40 MLOAD PUSH2 0xBA4 SWAP2 SWAP1 PUSH2 0x2E8F JUMP JUMPDEST PUSH1 0x40 MLOAD DUP1 SWAP2 SUB SWAP1 LOG2 POP JUMP JUMPDEST PUSH2 0xBB7 PUSH2 0x1CE4 JUMP JUMPDEST PUSH20 0xFFFFFFFFFFFFFFFFFFFFFFFFFFFFFFFFFFFFFFFF AND PUSH0 DUP1 SLOAD SWAP1 PUSH2 0x100 EXP SWAP1 DIV PUSH20 0xFFFFFFFFFFFFFFFFFFFFFFFFFFFFFFFFFFFFFFFF AND PUSH20 0xFFFFFFFFFFFFFFFFFFFFFFFFFFFFFFFFFFFFFFFF AND EQ PUSH2 0xC43 JUMPI PUSH1 0x40 MLOAD PUSH32 0x8C379A000000000000000000000000000000000000000000000000000000000 DUP2 MSTORE PUSH1 0x4 ADD PUSH2 0xC3A SWAP1 PUSH2 0x2C91 JUMP JUMPDEST PUSH1 0x40 MLOAD DUP1 SWAP2 SUB SWAP1 REVERT JUMPDEST DUP1 ISZERO ISZERO PUSH1 0xA PUSH0 DUP5 PUSH20 0xFFFFFFFFFFFFFFFFFFFFFFFFFFFFFFFFFFFFFFFF AND PUSH20 0xFFFFFFFFFFFFFFFFFFFFFFFFFFFFFFFFFFFFFFFF AND DUP2 MSTORE PUSH1 0x20 ADD SWAP1 DUP2 MSTORE PUSH1 0x20 ADD PUSH0 KECCAK256 PUSH0 SWAP1 SLOAD SWAP1 PUSH2 0x100 EXP SWAP1 DIV PUSH1 0xFF AND ISZERO ISZERO SUB PUSH2 0xCD2 JUMPI PUSH1 0x40 MLOAD PUSH32 0x8C379A000000000000000000000000000000000000000000000000000000000 DUP2 MSTORE PUSH1 0x4 ADD PUSH2 0xCC9 SWAP1 PUSH2 0x2EF2 JUMP JUMPDEST PUSH1 0x40 MLOAD DUP1 SWAP2 SUB SWAP1 REVERT JUMPDEST DUP1 PUSH1 0xA PUSH0 DUP5 PUSH20 0xFFFFFFFFFFFFFFFFFFFFFFFFFFFFFFFFFFFFFFFF AND PUSH20 0xFFFFFFFFFFFFFFFFFFFFFFFFFFFFFFFFFFFFFFFF AND DUP2 MSTORE PUSH1 0x20 ADD SWAP1 DUP2 MSTORE PUSH1 0x20 ADD PUSH0 KECCAK256 PUSH0 PUSH2 0x100 EXP DUP2 SLOAD DUP2 PUSH1 0xFF MUL NOT AND SWAP1 DUP4 ISZERO ISZERO MUL OR SWAP1 SSTORE POP DUP1 ISZERO PUSH2 0xD3B JUMPI PUSH2 0xD36 DUP3 PUSH0 PUSH2 0x1DF9 JUMP JUMPDEST PUSH2 0xD4E JUMP JUMPDEST PUSH2 0xD4D DUP3 PUSH2 0xD48 DUP5 PUSH2 0x1453 JUMP JUMPDEST PUSH2 0x1DF9 JUMP JUMPDEST JUMPDEST DUP2 PUSH20 0xFFFFFFFFFFFFFFFFFFFFFFFFFFFFFFFFFFFFFFFF AND PUSH32 0xA3C7C11B2E12C4144B09A7813F3393BA646392788638998C97BE8DA908CF04BE DUP3 PUSH1 0x40 MLOAD PUSH2 0xD94 SWAP2 SWAP1 PUSH2 0x29C1 JUMP JUMPDEST PUSH1 0x40 MLOAD DUP1 SWAP2 SUB SWAP1 LOG2 POP POP JUMP JUMPDEST PUSH1 0x60 PUSH1 0x4 DUP1 SLOAD PUSH2 0xDAF SWAP1 PUSH2 0x2F3D JUMP JUMPDEST DUP1 PUSH1 0x1F ADD PUSH1 0x20 DUP1 SWAP2 DIV MUL PUSH1 0x20 ADD PUSH1 0x40 MLOAD SWAP1 DUP2 ADD PUSH1 0x40 MSTORE DUP1 SWAP3 SWAP2 SWAP1 DUP2 DUP2 MSTORE PUSH1 0x20 ADD DUP3 DUP1 SLOAD PUSH2 0xDDB SWAP1 PUSH2 0x2F3D JUMP JUMPDEST DUP1 ISZERO PUSH2 0xE26 JUMPI DUP1 PUSH1 0x1F LT PUSH2 0xDFD JUMPI PUSH2 0x100 DUP1 DUP4 SLOAD DIV MUL DUP4 MSTORE SWAP2 PUSH1 0x20 ADD SWAP2 PUSH2 0xE26 JUMP JUMPDEST DUP3 ADD SWAP2 SWAP1 PUSH0 MSTORE PUSH1 0x20 PUSH0 KECCAK256 SWAP1 JUMPDEST DUP2 SLOAD DUP2 MSTORE SWAP1 PUSH1 0x1 ADD SWAP1 PUSH1 0x20 ADD DUP1 DUP4 GT PUSH2 0xE09 JUMPI DUP3 SWAP1 SUB PUSH1 0x1F AND DUP3 ADD SWAP2 JUMPDEST POP POP POP POP POP SWAP1 POP SWAP1 JUMP JUMPDEST PUSH0 PUSH2 0xE43 PUSH2 0xE3C PUSH2 0x1CE4 JUMP JUMPDEST DUP5 DUP5 PUSH2 0x1EBE JUMP JUMPDEST PUSH1 0x1 SWAP1 POP SWAP3 SWAP2 POP POP JUMP JUMPDEST PUSH0 PUSH1 0x3 SLOAD SWAP1 POP SWAP1 JUMP JUMPDEST PUSH2 0xE5E PUSH2 0x1CE4 JUMP JUMPDEST PUSH20 0xFFFFFFFFFFFFFFFFFFFFFFFFFFFFFFFFFFFFFFFF AND PUSH0 DUP1 SLOAD SWAP1 PUSH2 0x100 EXP SWAP1 DIV PUSH20 0xFFFFFFFFFFFFFFFFFFFFFFFFFFFFFFFFFFFFFFFF AND PUSH20 0xFFFFFFFFFFFFFFFFFFFFFFFFFFFFFFFFFFFFFFFF AND EQ PUSH2 0xEEA JUMPI PUSH1 0x40 MLOAD PUSH32 0x8C379A000000000000000000000000000000000000000000000000000000000 DUP2 MSTORE PUSH1 0x4 ADD PUSH2 0xEE1 SWAP1 PUSH2 0x2C91 JUMP JUMPDEST PUSH1 0x40 MLOAD DUP1 SWAP2 SUB SWAP1 REVERT JUMPDEST PUSH0 SELFBALANCE SWAP1 POP PUSH2 0xF1E DUP2 PUSH2 0xEFA PUSH2 0x1665 JUMP JUMPDEST PUSH20 0xFFFFFFFFFFFFFFFFFFFFFFFFFFFFFFFFFFFFFFFF AND PUSH2 0x2081 SWAP1 SWAP2 SWAP1 PUSH4 0xFFFFFFFF AND JUMP JUMPDEST POP JUMP JUMPDEST PUSH1 0xB PUSH1 0x20 MSTORE DUP1 PUSH0 MSTORE PUSH1 0x40 PUSH0 KECCAK256 PUSH0 SWAP2 POP SWAP1 POP SLOAD DUP2 JUMP JUMPDEST PUSH0 PUSH2 0xF42 DUP5 DUP5 DUP5 PUSH2 0x2171 JUMP JUMPDEST PUSH2 0xFFF DUP5 PUSH2 0xF4E PUSH2 0x1CE4 JUMP JUMPDEST PUSH2 0xFFA DUP6 PUSH1 0x40 MLOAD DUP1 PUSH1 0x60 ADD PUSH1 0x40 MSTORE DUP1 PUSH1 0x28 DUP2 MSTORE PUSH1 0x20 ADD PUSH2 0x38F8 PUSH1 0x28 SWAP2 CODECOPY PUSH1 0x2 PUSH0 DUP12 PUSH20 0xFFFFFFFFFFFFFFFFFFFFFFFFFFFFFFFFFFFFFFFF AND PUSH20 0xFFFFFFFFFFFFFFFFFFFFFFFFFFFFFFFFFFFFFFFF AND DUP2 MSTORE PUSH1 0x20 ADD SWAP1 DUP2 MSTORE PUSH1 0x20 ADD PUSH0 KECCAK256 PUSH0 PUSH2 0xFB1 PUSH2 0x1CE4 JUMP JUMPDEST PUSH20 0xFFFFFFFFFFFFFFFFFFFFFFFFFFFFFFFFFFFFFFFF AND PUSH20 0xFFFFFFFFFFFFFFFFFFFFFFFFFFFFFFFFFFFFFFFF AND DUP2 MSTORE PUSH1 0x20 ADD SWAP1 DUP2 MSTORE PUSH1 0x20 ADD PUSH0 KECCAK256 SLOAD PUSH2 0x21AC SWAP1 SWAP3 SWAP2 SWAP1 PUSH4 0xFFFFFFFF AND JUMP JUMPDEST PUSH2 0x1EBE JUMP JUMPDEST PUSH1 0x1 SWAP1 POP SWAP4 SWAP3 POP POP POP JUMP JUMPDEST PUSH0 PUSH17 0x100000000000000000000000000000000 PUSH1 0x8 PUSH0 DUP5 PUSH20 0xFFFFFFFFFFFFFFFFFFFFFFFFFFFFFFFFFFFFFFFF AND PUSH20 0xFFFFFFFFFFFFFFFFFFFFFFFFFFFFFFFFFFFFFFFF AND DUP2 MSTORE PUSH1 0x20 ADD SWAP1 DUP2 MSTORE PUSH1 0x20 ADD PUSH0 KECCAK256 SLOAD PUSH2 0x1078 PUSH2 0x1067 DUP6 PUSH2 0x1453 JUMP JUMPDEST PUSH1 0x6 SLOAD PUSH2 0x220E SWAP1 SWAP2 SWAP1 PUSH4 0xFFFFFFFF AND JUMP JUMPDEST PUSH2 0x1082 SWAP2 SWAP1 PUSH2 0x2FA3 JUMP JUMPDEST PUSH2 0x108C SWAP2 SWAP1 PUSH2 0x3011 JUMP JUMPDEST SWAP1 POP SWAP2 SWAP1 POP JUMP JUMPDEST PUSH0 PUSH1 0x12 SWAP1 POP SWAP1 JUMP JUMPDEST PUSH0 PUSH2 0x113F PUSH2 0x10A7 PUSH2 0x1CE4 JUMP JUMPDEST DUP5 PUSH2 0x113A DUP6 PUSH1 0x2 PUSH0 PUSH2 0x10B7 PUSH2 0x1CE4 JUMP JUMPDEST PUSH20 0xFFFFFFFFFFFFFFFFFFFFFFFFFFFFFFFFFFFFFFFF AND PUSH20 0xFFFFFFFFFFFFFFFFFFFFFFFFFFFFFFFFFFFFFFFF AND DUP2 MSTORE PUSH1 0x20 ADD SWAP1 DUP2 MSTORE PUSH1 0x20 ADD PUSH0 KECCAK256 PUSH0 DUP10 PUSH20 0xFFFFFFFFFFFFFFFFFFFFFFFFFFFFFFFFFFFFFFFF AND PUSH20 0xFFFFFFFFFFFFFFFFFFFFFFFFFFFFFFFFFFFFFFFF AND DUP2 MSTORE PUSH1 0x20 ADD SWAP1 DUP2 MSTORE PUSH1 0x20 ADD PUSH0 KECCAK256 SLOAD PUSH2 0x2285 SWAP1 SWAP2 SWAP1 PUSH4 0xFFFFFFFF AND JUMP JUMPDEST PUSH2 0x1EBE JUMP JUMPDEST PUSH1 0x1 SWAP1 POP SWAP3 SWAP2 POP POP JUMP JUMPDEST PUSH1 0xA PUSH1 0x20 MSTORE DUP1 PUSH0 MSTORE PUSH1 0x40 PUSH0 KECCAK256 PUSH0 SWAP2 POP SLOAD SWAP1 PUSH2 0x100 EXP SWAP1 DIV PUSH1 0xFF AND DUP2 JUMP JUMPDEST PUSH2 0x116F CALLER PUSH2 0x18C4 JUMP JUMPDEST PUSH2 0x11AE JUMPI PUSH1 0x40 MLOAD PUSH32 0x8C379A000000000000000000000000000000000000000000000000000000000 DUP2 MSTORE PUSH1 0x4 ADD PUSH2 0x11A5 SWAP1 PUSH2 0x308B JUMP JUMPDEST PUSH1 0x40 MLOAD DUP1 SWAP2 SUB SWAP1 REVERT JUMPDEST PUSH0 DUP3 DUP3 PUSH1 0x40 MLOAD PUSH2 0x11BF SWAP3 SWAP2 SWAP1 PUSH2 0x30E5 JUMP JUMPDEST PUSH1 0x40 MLOAD DUP1 SWAP2 SUB SWAP1 KECCAK256 SWAP1 POP PUSH1 0xC PUSH0 DUP3 DUP2 MSTORE PUSH1 0x20 ADD SWAP1 DUP2 MSTORE PUSH1 0x20 ADD PUSH0 KECCAK256 PUSH0 SWAP1 SLOAD SWAP1 PUSH2 0x100 EXP SWAP1 DIV PUSH1 0xFF AND ISZERO PUSH2 0x1227 JUMPI PUSH1 0x40 MLOAD PUSH32 0x8C379A000000000000000000000000000000000000000000000000000000000 DUP2 MSTORE PUSH1 0x4 ADD PUSH2 0x121E SWAP1 PUSH2 0x3147 JUMP JUMPDEST PUSH1 0x40 MLOAD DUP1 SWAP2 SUB SWAP1 REVERT JUMPDEST PUSH0 PUSH2 0x1231 CALLER PUSH2 0x22E2 JUMP JUMPDEST SWAP1 POP PUSH8 0xDE0B6B3A7640000 DUP2 LT ISZERO PUSH2 0x127E JUMPI PUSH1 0x40 MLOAD PUSH32 0x8C379A000000000000000000000000000000000000000000000000000000000 DUP2 MSTORE PUSH1 0x4 ADD PUSH2 0x1275 SWAP1 PUSH2 0x31AF JUMP JUMPDEST PUSH1 0x40 MLOAD DUP1 SWAP2 SUB SWAP1 REVERT JUMPDEST PUSH1 0x1 PUSH1 0xC PUSH0 DUP5 DUP2 MSTORE PUSH1 0x20 ADD SWAP1 DUP2 MSTORE PUSH1 0x20 ADD PUSH0 KECCAK256 PUSH0 PUSH2 0x100 EXP DUP2 SLOAD DUP2 PUSH1 0xFF MUL NOT AND SWAP1 DUP4 ISZERO ISZERO MUL OR SWAP1 SSTORE POP DUP1 PUSH1 0xD PUSH0 DUP3 DUP3 SLOAD PUSH2 0x12B8 SWAP2 SWAP1 PUSH2 0x31CD JUMP JUMPDEST SWAP3 POP POP DUP2 SWAP1 SSTORE POP TIMESTAMP PUSH1 0xB PUSH0 CALLER PUSH20 0xFFFFFFFFFFFFFFFFFFFFFFFFFFFFFFFFFFFFFFFF AND PUSH20 0xFFFFFFFFFFFFFFFFFFFFFFFFFFFFFFFFFFFFFFFF AND DUP2 MSTORE PUSH1 0x20 ADD SWAP1 DUP2 MSTORE PUSH1 0x20 ADD PUSH0 KECCAK256 DUP2 SWAP1 SSTORE POP CALLER PUSH20 0xFFFFFFFFFFFFFFFFFFFFFFFFFFFFFFFFFFFFFFFF AND PUSH32 0x4804104CCBC53649F5B8B29ECF858272A4A6ED6B9949F0D30237C7A147E84671 DUP3 DUP5 PUSH1 0x40 MLOAD PUSH2 0x1349 SWAP3 SWAP2 SWAP1 PUSH2 0x3200 JUMP JUMPDEST PUSH1 0x40 MLOAD DUP1 SWAP2 SUB SWAP1 LOG2 POP POP POP POP JUMP JUMPDEST PUSH2 0x1360 CALLER PUSH2 0x18C4 JUMP JUMPDEST PUSH2 0x139F JUMPI PUSH1 0x40 MLOAD PUSH32 0x8C379A000000000000000000000000000000000000000000000000000000000 DUP2 MSTORE PUSH1 0x4 ADD PUSH2 0x1396 SWAP1 PUSH2 0x308B JUMP JUMPDEST PUSH1 0x40 MLOAD DUP1 SWAP2 SUB SWAP1 REVERT JUMPDEST PUSH0 PUSH2 0x13A9 CALLER PUSH2 0x22E2 JUMP JUMPDEST SWAP1 POP PUSH8 0xDE0B6B3A7640000 DUP2 LT ISZERO PUSH2 0x13F6 JUMPI PUSH1 0x40 MLOAD PUSH32 0x8C379A000000000000000000000000000000000000000000000000000000000 DUP2 MSTORE PUSH1 0x4 ADD PUSH2 0x13ED SWAP1 PUSH2 0x31AF JUMP JUMPDEST PUSH1 0x40 MLOAD DUP1 SWAP2 SUB SWAP1 REVERT JUMPDEST DUP1 PUSH1 0xD PUSH0 DUP3 DUP3 SLOAD PUSH2 0x1407 SWAP2 SWAP1 PUSH2 0x31CD JUMP JUMPDEST SWAP3 POP POP DUP2 SWAP1 SSTORE POP TIMESTAMP PUSH1 0xB PUSH0 CALLER PUSH20 0xFFFFFFFFFFFFFFFFFFFFFFFFFFFFFFFFFFFFFFFF AND PUSH20 0xFFFFFFFFFFFFFFFFFFFFFFFFFFFFFFFFFFFFFFFF AND DUP2 MSTORE PUSH1 0x20 ADD SWAP1 DUP2 MSTORE PUSH1 0x20 ADD PUSH0 KECCAK256 DUP2 SWAP1 SSTORE POP POP JUMP JUMPDEST PUSH0 PUSH1 0x1 PUSH0 DUP4 PUSH20 0xFFFFFFFFFFFFFFFFFFFFFFFFFFFFFFFFFFFFFFFF AND PUSH20 0xFFFFFFFFFFFFFFFFFFFFFFFFFFFFFFFFFFFFFFFF AND DUP2 MSTORE PUSH1 0x20 ADD SWAP1 DUP2 MSTORE PUSH1 0x20 ADD PUSH0 KECCAK256 SLOAD SWAP1 POP SWAP2 SWAP1 POP JUMP JUMPDEST PUSH2 0x14A1 PUSH2 0x1CE4 JUMP JUMPDEST PUSH20 0xFFFFFFFFFFFFFFFFFFFFFFFFFFFFFFFFFFFFFFFF AND PUSH0 DUP1 SLOAD SWAP1 PUSH2 0x100 EXP SWAP1 DIV PUSH20 0xFFFFFFFFFFFFFFFFFFFFFFFFFFFFFFFFFFFFFFFF AND PUSH20 0xFFFFFFFFFFFFFFFFFFFFFFFFFFFFFFFFFFFFFFFF AND EQ PUSH2 0x152D JUMPI PUSH1 0x40 MLOAD PUSH32 0x8C379A000000000000000000000000000000000000000000000000000000000 DUP2 MSTORE PUSH1 0x4 ADD PUSH2 0x1524 SWAP1 PUSH2 0x2C91 JUMP JUMPDEST PUSH1 0x40 MLOAD DUP1 SWAP2 SUB SWAP1 REVERT JUMPDEST PUSH0 PUSH20 0xFFFFFFFFFFFFFFFFFFFFFFFFFFFFFFFFFFFFFFFF AND PUSH0 DUP1 SLOAD SWAP1 PUSH2 0x100 EXP SWAP1 DIV PUSH20 0xFFFFFFFFFFFFFFFFFFFFFFFFFFFFFFFFFFFFFFFF AND PUSH20 0xFFFFFFFFFFFFFFFFFFFFFFFFFFFFFFFFFFFFFFFF AND PUSH32 0x8BE0079C531659141344CD1FD0A4F28419497F9722A3DAAFE3B4186F6B6457E0 PUSH1 0x40 MLOAD PUSH1 0x40 MLOAD DUP1 SWAP2 SUB SWAP1 LOG3 PUSH0 DUP1 PUSH0 PUSH2 0x100 EXP DUP2 SLOAD DUP2 PUSH20 0xFFFFFFFFFFFFFFFFFFFFFFFFFFFFFFFFFFFFFFFF MUL NOT AND SWAP1 DUP4 PUSH20 0xFFFFFFFFFFFFFFFFFFFFFFFFFFFFFFFFFFFFFFFF AND MUL OR SWAP1 SSTORE POP JUMP JUMPDEST PUSH8 0xDE0B6B3A7640000 DUP2 JUMP JUMPDEST PUSH0 DUP1 PUSH0 DUP1 PUSH0 DUP6 PUSH2 0x1602 DUP8 PUSH2 0x1801 JUMP JUMPDEST PUSH2 0x160B DUP9 PUSH2 0x100A JUMP JUMPDEST PUSH1 0xB PUSH0 DUP11 PUSH20 0xFFFFFFFFFFFFFFFFFFFFFFFFFFFFFFFFFFFFFFFF AND PUSH20 0xFFFFFFFFFFFFFFFFFFFFFFFFFFFFFFFFFFFFFFFF AND DUP2 MSTORE PUSH1 0x20 ADD SWAP1 DUP2 MSTORE PUSH1 0x20 ADD PUSH0 KECCAK256 SLOAD PUSH1 0xD SLOAD SWAP5 POP SWAP5 POP SWAP5 POP SWAP5 POP SWAP5 POP SWAP2 SWAP4 SWAP6 SWAP1 SWAP3 SWAP5 POP JUMP JUMPDEST PUSH1 0x7 SLOAD DUP2 JUMP JUMPDEST PUSH0 DUP1 PUSH0 SWAP1 SLOAD SWAP1 PUSH2 0x100 EXP SWAP1 DIV PUSH20 0xFFFFFFFFFFFFFFFFFFFFFFFFFFFFFFFFFFFFFFFF AND SWAP1 POP SWAP1 JUMP JUMPDEST PUSH0 PUSH2 0x1696 DUP3 PUSH2 0x1801 JUMP JUMPDEST SWAP1 POP SWAP2 SWAP1 POP JUMP JUMPDEST PUSH1 0x60 PUSH1 0x5 DUP1 SLOAD PUSH2 0x16AC SWAP1 PUSH2 0x2F3D JUMP JUMPDEST DUP1 PUSH1 0x1F ADD PUSH1 0x20 DUP1 SWAP2 DIV MUL PUSH1 0x20 ADD PUSH1 0x40 MLOAD SWAP1 DUP2 ADD PUSH1 0x40 MSTORE DUP1 SWAP3 SWAP2 SWAP1 DUP2 DUP2 MSTORE PUSH1 0x20 ADD DUP3 DUP1 SLOAD PUSH2 0x16D8 SWAP1 PUSH2 0x2F3D JUMP JUMPDEST DUP1 ISZERO PUSH2 0x1723 JUMPI DUP1 PUSH1 0x1F LT PUSH2 0x16FA JUMPI PUSH2 0x100 DUP1 DUP4 SLOAD DIV MUL DUP4 MSTORE SWAP2 PUSH1 0x20 ADD SWAP2 PUSH2 0x1723 JUMP JUMPDEST DUP3 ADD SWAP2 SWAP1 PUSH0 MSTORE PUSH1 0x20 PUSH0 KECCAK256 SWAP1 JUMPDEST DUP2 SLOAD DUP2 MSTORE SWAP1 PUSH1 0x1 ADD SWAP1 PUSH1 0x20 ADD DUP1 DUP4 GT PUSH2 0x1706 JUMPI DUP3 SWAP1 SUB PUSH1 0x1F AND DUP3 ADD SWAP2 JUMPDEST POP POP POP POP POP SWAP1 POP SWAP1 JUMP JUMPDEST PUSH1 0xD SLOAD DUP2 JUMP JUMPDEST PUSH2 0xE10 DUP2 JUMP JUMPDEST PUSH0 PUSH2 0x17F7 PUSH2 0x1745 PUSH2 0x1CE4 JUMP JUMPDEST DUP5 PUSH2 0x17F2 DUP6 PUSH1 0x40 MLOAD DUP1 PUSH1 0x60 ADD PUSH1 0x40 MSTORE DUP1 PUSH1 0x25 DUP2 MSTORE PUSH1 0x20 ADD PUSH2 0x3920 PUSH1 0x25 SWAP2 CODECOPY PUSH1 0x2 PUSH0 PUSH2 0x176E PUSH2 0x1CE4 JUMP JUMPDEST PUSH20 0xFFFFFFFFFFFFFFFFFFFFFFFFFFFFFFFFFFFFFFFF AND PUSH20 0xFFFFFFFFFFFFFFFFFFFFFFFFFFFFFFFFFFFFFFFF AND DUP2 MSTORE PUSH1 0x20 ADD SWAP1 DUP2 MSTORE PUSH1 0x20 ADD PUSH0 KECCAK256 PUSH0 DUP11 PUSH20 0xFFFFFFFFFFFFFFFFFFFFFFFFFFFFFFFFFFFFFFFF AND PUSH20 0xFFFFFFFFFFFFFFFFFFFFFFFFFFFFFFFFFFFFFFFF AND DUP2 MSTORE PUSH1 0x20 ADD SWAP1 DUP2 MSTORE PUSH1 0x20 ADD PUSH0 KECCAK256 SLOAD PUSH2 0x21AC SWAP1 SWAP3 SWAP2 SWAP1 PUSH4 0xFFFFFFFF AND JUMP JUMPDEST PUSH2 0x1EBE JUMP JUMPDEST PUSH1 0x1 SWAP1 POP SWAP3 SWAP2 POP POP JUMP JUMPDEST PUSH0 PUSH2 0x185A PUSH1 0x9 PUSH0 DUP5 PUSH20 0xFFFFFFFFFFFFFFFFFFFFFFFFFFFFFFFFFFFFFFFF AND PUSH20 0xFFFFFFFFFFFFFFFFFFFFFFFFFFFFFFFFFFFFFFFF AND DUP2 MSTORE PUSH1 0x20 ADD SWAP1 DUP2 MSTORE PUSH1 0x20 ADD PUSH0 KECCAK256 SLOAD PUSH2 0x184C DUP5 PUSH2 0x100A JUMP JUMPDEST PUSH2 0x242D SWAP1 SWAP2 SWAP1 PUSH4 0xFFFFFFFF AND JUMP JUMPDEST SWAP1 POP SWAP2 SWAP1 POP JUMP JUMPDEST PUSH0 PUSH2 0x1874 PUSH2 0x186D PUSH2 0x1CE4 JUMP JUMPDEST DUP5 DUP5 PUSH2 0x2171 JUMP JUMPDEST PUSH1 0x1 SWAP1 POP SWAP3 SWAP2 POP POP JUMP JUMPDEST PUSH0 PUSH1 0x9 PUSH0 DUP4 PUSH20 0xFFFFFFFFFFFFFFFFFFFFFFFFFFFFFFFFFFFFFFFF AND PUSH20 0xFFFFFFFFFFFFFFFFFFFFFFFFFFFFFFFFFFFFFFFF AND DUP2 MSTORE PUSH1 0x20 ADD SWAP1 DUP2 MSTORE PUSH1 0x20 ADD PUSH0 KECCAK256 SLOAD SWAP1 POP SWAP2 SWAP1 POP JUMP JUMPDEST PUSH0 PUSH2 0xE10 PUSH1 0xB PUSH0 DUP5 PUSH20 0xFFFFFFFFFFFFFFFFFFFFFFFFFFFFFFFFFFFFFFFF AND PUSH20 0xFFFFFFFFFFFFFFFFFFFFFFFFFFFFFFFFFFFFFFFF AND DUP2 MSTORE PUSH1 0x20 ADD SWAP1 DUP2 MSTORE PUSH1 0x20 ADD PUSH0 KECCAK256 SLOAD PUSH2 0x1910 SWAP2 SWAP1 PUSH2 0x31CD JUMP JUMPDEST TIMESTAMP LT ISZERO SWAP1 POP SWAP2 SWAP1 POP JUMP JUMPDEST PUSH1 0xC PUSH1 0x20 MSTORE DUP1 PUSH0 MSTORE PUSH1 0x40 PUSH0 KECCAK256 PUSH0 SWAP2 POP SLOAD SWAP1 PUSH2 0x100 EXP SWAP1 DIV PUSH1 0xFF AND DUP2 JUMP JUMPDEST PUSH0 PUSH1 0x2 PUSH0 DUP5 PUSH20 0xFFFFFFFFFFFFFFFFFFFFFFFFFFFFFFFFFFFFFFFF AND PUSH20 0xFFFFFFFFFFFFFFFFFFFFFFFFFFFFFFFFFFFFFFFF AND DUP2 MSTORE PUSH1 0x20 ADD SWAP1 DUP2 MSTORE PUSH1 0x20 ADD PUSH0 KECCAK256 PUSH0 DUP4 PUSH20 0xFFFFFFFFFFFFFFFFFFFFFFFFFFFFFFFFFFFFFFFF AND PUSH20 0xFFFFFFFFFFFFFFFFFFFFFFFFFFFFFFFFFFFFFFFF AND DUP2 MSTORE PUSH1 0x20 ADD SWAP1 DUP2 MSTORE PUSH1 0x20 ADD PUSH0 KECCAK256 SLOAD SWAP1 POP SWAP3 SWAP2 POP POP JUMP JUMPDEST PUSH2 0x19C1 PUSH2 0x1CE4 JUMP JUMPDEST PUSH20 0xFFFFFFFFFFFFFFFFFFFFFFFFFFFFFFFFFFFFFFFF AND PUSH0 DUP1 SLOAD SWAP1 PUSH2 0x100 EXP SWAP1 DIV PUSH20 0xFFFFFFFFFFFFFFFFFFFFFFFFFFFFFFFFFFFFFFFF AND PUSH20 0xFFFFFFFFFFFFFFFFFFFFFFFFFFFFFFFFFFFFFFFF AND EQ PUSH2 0x1A4D JUMPI PUSH1 0x40 MLOAD PUSH32 0x8C379A000000000000000000000000000000000000000000000000000000000 DUP2 MSTORE PUSH1 0x4 ADD PUSH2 0x1A44 SWAP1 PUSH2 0x2C91 JUMP JUMPDEST PUSH1 0x40 MLOAD DUP1 SWAP2 SUB SWAP1 REVERT JUMPDEST PUSH1 0xA PUSH0 DUP4 PUSH20 0xFFFFFFFFFFFFFFFFFFFFFFFFFFFFFFFFFFFFFFFF AND PUSH20 0xFFFFFFFFFFFFFFFFFFFFFFFFFFFFFFFFFFFFFFFF AND DUP2 MSTORE PUSH1 0x20 ADD SWAP1 DUP2 MSTORE PUSH1 0x20 ADD PUSH0 KECCAK256 PUSH0 SWAP1 SLOAD SWAP1 PUSH2 0x100 EXP SWAP1 DIV PUSH1 0xFF AND PUSH2 0x1B23 JUMPI PUSH2 0x1AA5 DUP3 DUP3 PUSH2 0x1DF9 JUMP JUMPDEST PUSH0 DUP3 DUP3 TIMESTAMP PUSH1 0x40 MLOAD PUSH1 0x20 ADD PUSH2 0x1ABB SWAP4 SWAP3 SWAP2 SWAP1 PUSH2 0x326C JUMP JUMPDEST PUSH1 0x40 MLOAD PUSH1 0x20 DUP2 DUP4 SUB SUB DUP2 MSTORE SWAP1 PUSH1 0x40 MSTORE DUP1 MLOAD SWAP1 PUSH1 0x20 ADD KECCAK256 SWAP1 POP DUP3 PUSH20 0xFFFFFFFFFFFFFFFFFFFFFFFFFFFFFFFFFFFFFFFF AND PUSH32 0x1B965CB42B9E88623034282DFC0625466BAD745B5E23C4526E96E6913FFCAA40 DUP3 PUSH1 0x40 MLOAD PUSH2 0x1B19 SWAP2 SWAP1 PUSH2 0x2E8F JUMP JUMPDEST PUSH1 0x40 MLOAD DUP1 SWAP2 SUB SWAP1 LOG2 POP JUMPDEST POP POP JUMP JUMPDEST PUSH2 0x1B2F PUSH2 0x1CE4 JUMP JUMPDEST PUSH20 0xFFFFFFFFFFFFFFFFFFFFFFFFFFFFFFFFFFFFFFFF AND PUSH0 DUP1 SLOAD SWAP1 PUSH2 0x100 EXP SWAP1 DIV PUSH20 0xFFFFFFFFFFFFFFFFFFFFFFFFFFFFFFFFFFFFFFFF AND PUSH20 0xFFFFFFFFFFFFFFFFFFFFFFFFFFFFFFFFFFFFFFFF AND EQ PUSH2 0x1BBB JUMPI PUSH1 0x40 MLOAD PUSH32 0x8C379A000000000000000000000000000000000000000000000000000000000 DUP2 MSTORE PUSH1 0x4 ADD PUSH2 0x1BB2 SWAP1 PUSH2 0x2C91 JUMP JUMPDEST PUSH1 0x40 MLOAD DUP1 SWAP2 SUB SWAP1 REVERT JUMPDEST PUSH0 PUSH20 0xFFFFFFFFFFFFFFFFFFFFFFFFFFFFFFFFFFFFFFFF AND DUP2 PUSH20 0xFFFFFFFFFFFFFFFFFFFFFFFFFFFFFFFFFFFFFFFF AND SUB PUSH2 0x1C29 JUMPI PUSH1 0x40 MLOAD PUSH32 0x8C379A000000000000000000000000000000000000000000000000000000000 DUP2 MSTORE PUSH1 0x4 ADD PUSH2 0x1C20 SWAP1 PUSH2 0x3318 JUMP JUMPDEST PUSH1 0x40 MLOAD DUP1 SWAP2 SUB SWAP1 REVERT JUMPDEST DUP1 PUSH20 0xFFFFFFFFFFFFFFFFFFFFFFFFFFFFFFFFFFFFFFFF AND PUSH0 DUP1 SLOAD SWAP1 PUSH2 0x100 EXP SWAP1 DIV PUSH20 0xFFFFFFFFFFFFFFFFFFFFFFFFFFFFFFFFFFFFFFFF AND PUSH20 0xFFFFFFFFFFFFFFFFFFFFFFFFFFFFFFFFFFFFFFFF AND PUSH32 0x8BE0079C531659141344CD1FD0A4F28419497F9722A3DAAFE3B4186F6B6457E0 PUSH1 0x40 MLOAD PUSH1 0x40 MLOAD DUP1 SWAP2 SUB SWAP1 LOG3 DUP1 PUSH0 DUP1 PUSH2 0x100 EXP DUP2 SLOAD DUP2 PUSH20 0xFFFFFFFFFFFFFFFFFFFFFFFFFFFFFFFFFFFFFFFF MUL NOT AND SWAP1 DUP4 PUSH20 0xFFFFFFFFFFFFFFFFFFFFFFFFFFFFFFFFFFFFFFFF AND MUL OR SWAP1 SSTORE POP POP JUMP JUMPDEST PUSH0 CALLER SWAP1 POP SWAP1 JUMP JUMPDEST PUSH0 PUSH2 0x1CF4 PUSH2 0xE4D JUMP JUMPDEST GT PUSH2 0x1D34 JUMPI PUSH1 0x40 MLOAD PUSH32 0x8C379A000000000000000000000000000000000000000000000000000000000 DUP2 MSTORE PUSH1 0x4 ADD PUSH2 0x1D2B SWAP1 PUSH2 0x3380 JUMP JUMPDEST PUSH1 0x40 MLOAD DUP1 SWAP2 SUB SWAP1 REVERT JUMPDEST PUSH0 DUP2 GT ISZERO PUSH2 0x1DF6 JUMPI PUSH2 0x1D86 PUSH2 0x1D47 PUSH2 0xE4D JUMP JUMPDEST PUSH2 0x1D6B PUSH17 0x100000000000000000000000000000000 DUP5 PUSH2 0x220E SWAP1 SWAP2 SWAP1 PUSH4 0xFFFFFFFF AND JUMP JUMPDEST PUSH2 0x1D75 SWAP2 SWAP1 PUSH2 0x3011 JUMP JUMPDEST PUSH1 0x6 SLOAD PUSH2 0x2285 SWAP1 SWAP2 SWAP1 PUSH4 0xFFFFFFFF AND JUMP JUMPDEST PUSH1 0x6 DUP2 SWAP1 SSTORE POP PUSH2 0x1DA1 DUP2 PUSH1 0x7 SLOAD PUSH2 0x2285 SWAP1 SWAP2 SWAP1 PUSH4 0xFFFFFFFF AND JUMP JUMPDEST PUSH1 0x7 DUP2 SWAP1 SSTORE POP CALLER PUSH20 0xFFFFFFFFFFFFFFFFFFFFFFFFFFFFFFFFFFFFFFFF AND PUSH32 0xA493A9229478C3FCD73F66D2CDEB7F94FD0F341DA924D1054236D78454116511 DUP3 PUSH1 0x40 MLOAD PUSH2 0x1DED SWAP2 SWAP1 PUSH2 0x29E9 JUMP JUMPDEST PUSH1 0x40 MLOAD DUP1 SWAP2 SUB SWAP1 LOG2 JUMPDEST POP JUMP JUMPDEST PUSH0 PUSH2 0x1E03 DUP4 PUSH2 0x1453 JUMP JUMPDEST SWAP1 POP DUP1 DUP3 GT ISZERO PUSH2 0x1E33 JUMPI PUSH0 PUSH2 0x1E21 DUP3 DUP5 PUSH2 0x242D SWAP1 SWAP2 SWAP1 PUSH4 0xFFFFFFFF AND JUMP JUMPDEST SWAP1 POP PUSH2 0x1E2D DUP5 DUP3 PUSH2 0x2476 JUMP JUMPDEST POP PUSH2 0x1E5E JUMP JUMPDEST DUP1 DUP3 LT ISZERO PUSH2 0x1E5D JUMPI PUSH0 PUSH2 0x1E4F DUP4 DUP4 PUSH2 0x242D SWAP1 SWAP2 SWAP1 PUSH4 0xFFFFFFFF AND JUMP JUMPDEST SWAP1 POP PUSH2 0x1E5B DUP5 DUP3 PUSH2 0x2604 JUMP JUMPDEST POP JUMPDEST JUMPDEST PUSH0 PUSH2 0x1E74 DUP4 PUSH1 0x6 SLOAD PUSH2 0x220E SWAP1 SWAP2 SWAP1 PUSH4 0xFFFFFFFF AND JUMP JUMPDEST SWAP1 POP DUP1 PUSH1 0x8 PUSH0 DUP7 PUSH20 0xFFFFFFFFFFFFFFFFFFFFFFFFFFFFFFFFFFFFFFFF AND PUSH20 0xFFFFFFFFFFFFFFFFFFFFFFFFFFFFFFFFFFFFFFFF AND DUP2 MSTORE PUSH1 0x20 ADD SWAP1 DUP2 MSTORE PUSH1 0x20 ADD PUSH0 KECCAK256 DUP2 SWAP1 SSTORE POP POP POP POP POP JUMP JUMPDEST PUSH0 PUSH20 0xFFFFFFFFFFFFFFFFFFFFFFFFFFFFFFFFFFFFFFFF AND DUP4 PUSH20 0xFFFFFFFFFFFFFFFFFFFFFFFFFFFFFFFFFFFFFFFF AND SUB PUSH2 0x1F2C JUMPI PUSH1 0x40 MLOAD PUSH32 0x8C379A000000000000000000000000000000000000000000000000000000000 DUP2 MSTORE PUSH1 0x4 ADD PUSH2 0x1F23 SWAP1 PUSH2 0x340E JUMP JUMPDEST PUSH1 0x40 MLOAD DUP1 SWAP2 SUB SWAP1 REVERT JUMPDEST PUSH0 PUSH20 0xFFFFFFFFFFFFFFFFFFFFFFFFFFFFFFFFFFFFFFFF AND DUP3 PUSH20 0xFFFFFFFFFFFFFFFFFFFFFFFFFFFFFFFFFFFFFFFF AND SUB PUSH2 0x1F9A JUMPI PUSH1 0x40 MLOAD PUSH32 0x8C379A000000000000000000000000000000000000000000000000000000000 DUP2 MSTORE PUSH1 0x4 ADD PUSH2 0x1F91 SWAP1 PUSH2 0x349C JUMP JUMPDEST PUSH1 0x40 MLOAD DUP1 SWAP2 SUB SWAP1 REVERT JUMPDEST DUP1 PUSH1 0x2 PUSH0 DUP6 PUSH20 0xFFFFFFFFFFFFFFFFFFFFFFFFFFFFFFFFFFFFFFFF AND PUSH20 0xFFFFFFFFFFFFFFFFFFFFFFFFFFFFFFFFFFFFFFFF AND DUP2 MSTORE PUSH1 0x20 ADD SWAP1 DUP2 MSTORE PUSH1 0x20 ADD PUSH0 KECCAK256 PUSH0 DUP5 PUSH20 0xFFFFFFFFFFFFFFFFFFFFFFFFFFFFFFFFFFFFFFFF AND PUSH20 0xFFFFFFFFFFFFFFFFFFFFFFFFFFFFFFFFFFFFFFFF AND DUP2 MSTORE PUSH1 0x20 ADD SWAP1 DUP2 MSTORE PUSH1 0x20 ADD PUSH0 KECCAK256 DUP2 SWAP1 SSTORE POP DUP2 PUSH20 0xFFFFFFFFFFFFFFFFFFFFFFFFFFFFFFFFFFFFFFFF AND DUP4 PUSH20 0xFFFFFFFFFFFFFFFFFFFFFFFFFFFFFFFFFFFFFFFF AND PUSH32 0x8C5BE1E5EBEC7D5BD14F71427D1E84F3DD0314C0F7B2291E5B200AC8C7C3B925 DUP4 PUSH1 0x40 MLOAD PUSH2 0x2074 SWAP2 SWAP1 PUSH2 0x29E9 JUMP JUMPDEST PUSH1 0x40 MLOAD DUP1 SWAP2 SUB SWAP1 LOG3 POP POP POP JUMP JUMPDEST DUP1 SELFBALANCE LT ISZERO PUSH2 0x20C4 JUMPI PUSH1 0x40 MLOAD PUSH32 0x8C379A000000000000000000000000000000000000000000000000000000000 DUP2 MSTORE PUSH1 0x4 ADD PUSH2 0x20BB SWAP1 PUSH2 0x3504 JUMP JUMPDEST PUSH1 0x40 MLOAD DUP1 SWAP2 SUB SWAP1 REVERT JUMPDEST PUSH0 DUP3 PUSH20 0xFFFFFFFFFFFFFFFFFFFFFFFFFFFFFFFFFFFFFFFF AND DUP3 PUSH1 0x40 MLOAD PUSH2 0x20E9 SWAP1 PUSH2 0x3545 JUMP JUMPDEST PUSH0 PUSH1 0x40 MLOAD DUP1 DUP4 SUB DUP2 DUP6 DUP8 GAS CALL SWAP3 POP POP POP RETURNDATASIZE DUP1 PUSH0 DUP2 EQ PUSH2 0x2123 JUMPI PUSH1 0x40 MLOAD SWAP2 POP PUSH1 0x1F NOT PUSH1 0x3F RETURNDATASIZE ADD AND DUP3 ADD PUSH1 0x40 MSTORE RETURNDATASIZE DUP3 MSTORE RETURNDATASIZE PUSH0 PUSH1 0x20 DUP5 ADD RETURNDATACOPY PUSH2 0x2128 JUMP JUMPDEST PUSH1 0x60 SWAP2 POP JUMPDEST POP POP SWAP1 POP DUP1 PUSH2 0x216C JUMPI PUSH1 0x40 MLOAD PUSH32 0x8C379A000000000000000000000000000000000000000000000000000000000 DUP2 MSTORE PUSH1 0x4 ADD PUSH2 0x2163 SWAP1 PUSH2 0x35C9 JUMP JUMPDEST PUSH1 0x40 MLOAD DUP1 SWAP2 SUB SWAP1 REVERT JUMPDEST POP POP POP JUMP JUMPDEST PUSH1 0x40 MLOAD PUSH32 0x8C379A000000000000000000000000000000000000000000000000000000000 DUP2 MSTORE PUSH1 0x4 ADD PUSH2 0x21A3 SWAP1 PUSH2 0x3657 JUMP JUMPDEST PUSH1 0x40 MLOAD DUP1 SWAP2 SUB SWAP1 REVERT JUMPDEST PUSH0 DUP4 DUP4 GT ISZERO DUP3 SWAP1 PUSH2 0x21F3 JUMPI PUSH1 0x40 MLOAD PUSH32 0x8C379A000000000000000000000000000000000000000000000000000000000 DUP2 MSTORE PUSH1 0x4 ADD PUSH2 0x21EA SWAP2 SWAP1 PUSH2 0x2921 JUMP JUMPDEST PUSH1 0x40 MLOAD DUP1 SWAP2 SUB SWAP1 REVERT JUMPDEST POP PUSH0 DUP4 DUP6 PUSH2 0x2201 SWAP2 SWAP1 PUSH2 0x3675 JUMP JUMPDEST SWAP1 POP DUP1 SWAP2 POP POP SWAP4 SWAP3 POP POP POP JUMP JUMPDEST PUSH0 DUP1 DUP4 SUB PUSH2 0x221E JUMPI PUSH0 SWAP1 POP PUSH2 0x227F JUMP JUMPDEST PUSH0 DUP3 DUP5 PUSH2 0x222B SWAP2 SWAP1 PUSH2 0x36A8 JUMP JUMPDEST SWAP1 POP DUP3 DUP5 DUP3 PUSH2 0x223A SWAP2 SWAP1 PUSH2 0x3011 JUMP JUMPDEST EQ PUSH2 0x227A JUMPI PUSH1 0x40 MLOAD PUSH32 0x8C379A000000000000000000000000000000000000000000000000000000000 DUP2 MSTORE PUSH1 0x4 ADD PUSH2 0x2271 SWAP1 PUSH2 0x3759 JUMP JUMPDEST PUSH1 0x40 MLOAD DUP1 SWAP2 SUB SWAP1 REVERT JUMPDEST DUP1 SWAP2 POP POP JUMPDEST SWAP3 SWAP2 POP POP JUMP JUMPDEST PUSH0 DUP1 DUP3 DUP5 PUSH2 0x2293 SWAP2 SWAP1 PUSH2 0x31CD JUMP JUMPDEST SWAP1 POP DUP4 DUP2 LT ISZERO PUSH2 0x22D8 JUMPI PUSH1 0x40 MLOAD PUSH32 0x8C379A000000000000000000000000000000000000000000000000000000000 DUP2 MSTORE PUSH1 0x4 ADD PUSH2 0x22CF SWAP1 PUSH2 0x37C1 JUMP JUMPDEST PUSH1 0x40 MLOAD DUP1 SWAP2 SUB SWAP1 REVERT JUMPDEST DUP1 SWAP2 POP POP SWAP3 SWAP2 POP POP JUMP JUMPDEST PUSH0 DUP1 PUSH2 0x22ED DUP4 PUSH2 0x1801 JUMP JUMPDEST SWAP1 POP PUSH0 DUP2 GT ISZERO PUSH2 0x2423 JUMPI PUSH2 0x2347 DUP2 PUSH1 0x9 PUSH0 DUP7 PUSH20 0xFFFFFFFFFFFFFFFFFFFFFFFFFFFFFFFFFFFFFFFF AND PUSH20 0xFFFFFFFFFFFFFFFFFFFFFFFFFFFFFFFFFFFFFFFF AND DUP2 MSTORE PUSH1 0x20 ADD SWAP1 DUP2 MSTORE PUSH1 0x20 ADD PUSH0 KECCAK256 SLOAD PUSH2 0x2285 SWAP1 SWAP2 SWAP1 PUSH4 0xFFFFFFFF AND JUMP JUMPDEST PUSH1 0x9 PUSH0 DUP6 PUSH20 0xFFFFFFFFFFFFFFFFFFFFFFFFFFFFFFFFFFFFFFFF AND PUSH20 0xFFFFFFFFFFFFFFFFFFFFFFFFFFFFFFFFFFFFFFFF AND DUP2 MSTORE PUSH1 0x20 ADD SWAP1 DUP2 MSTORE PUSH1 0x20 ADD PUSH0 KECCAK256 DUP2 SWAP1 SSTORE POP DUP3 PUSH20 0xFFFFFFFFFFFFFFFFFFFFFFFFFFFFFFFFFFFFFFFF AND PUSH32 0xEE503BEE2BB6A87E57BC57DB795F98137327401A0E7B7CE42E37926CC1A9CA4D DUP3 PUSH1 0x40 MLOAD PUSH2 0x23CE SWAP2 SWAP1 PUSH2 0x29E9 JUMP JUMPDEST PUSH1 0x40 MLOAD DUP1 SWAP2 SUB SWAP1 LOG2 DUP3 PUSH20 0xFFFFFFFFFFFFFFFFFFFFFFFFFFFFFFFFFFFFFFFF AND PUSH2 0x8FC DUP3 SWAP1 DUP2 ISZERO MUL SWAP1 PUSH1 0x40 MLOAD PUSH0 PUSH1 0x40 MLOAD DUP1 DUP4 SUB DUP2 DUP6 DUP9 DUP9 CALL SWAP4 POP POP POP POP ISZERO DUP1 ISZERO PUSH2 0x2419 JUMPI RETURNDATASIZE PUSH0 DUP1 RETURNDATACOPY RETURNDATASIZE PUSH0 REVERT JUMPDEST POP DUP1 SWAP2 POP POP PUSH2 0x2428 JUMP JUMPDEST PUSH0 SWAP2 POP POP JUMPDEST SWAP2 SWAP1 POP JUMP JUMPDEST PUSH0 PUSH2 0x246E DUP4 DUP4 PUSH1 0x40 MLOAD DUP1 PUSH1 0x40 ADD PUSH1 0x40 MSTORE DUP1 PUSH1 0x1E DUP2 MSTORE PUSH1 0x20 ADD PUSH32 0x536166654D6174683A207375627472616374696F6E206F766572666C6F770000 DUP2 MSTORE POP PUSH2 0x21AC JUMP JUMPDEST SWAP1 POP SWAP3 SWAP2 POP POP JUMP JUMPDEST PUSH0 PUSH20 0xFFFFFFFFFFFFFFFFFFFFFFFFFFFFFFFFFFFFFFFF AND DUP3 PUSH20 0xFFFFFFFFFFFFFFFFFFFFFFFFFFFFFFFFFFFFFFFF AND SUB PUSH2 0x24E4 JUMPI PUSH1 0x40 MLOAD PUSH32 0x8C379A000000000000000000000000000000000000000000000000000000000 DUP2 MSTORE PUSH1 0x4 ADD PUSH2 0x24DB SWAP1 PUSH2 0x3829 JUMP JUMPDEST PUSH1 0x40 MLOAD DUP1 SWAP2 SUB SWAP1 REVERT JUMPDEST PUSH2 0x24EF PUSH0 DUP4 DUP4 PUSH2 0x27AC JUMP JUMPDEST PUSH2 0x2504 DUP2 PUSH1 0x3 SLOAD PUSH2 0x2285 SWAP1 SWAP2 SWAP1 PUSH4 0xFFFFFFFF AND JUMP JUMPDEST PUSH1 0x3 DUP2 SWAP1 SSTORE POP PUSH2 0x255A DUP2 PUSH1 0x1 PUSH0 DUP6 PUSH20 0xFFFFFFFFFFFFFFFFFFFFFFFFFFFFFFFFFFFFFFFF AND PUSH20 0xFFFFFFFFFFFFFFFFFFFFFFFFFFFFFFFFFFFFFFFF AND DUP2 MSTORE PUSH1 0x20 ADD SWAP1 DUP2 MSTORE PUSH1 0x20 ADD PUSH0 KECCAK256 SLOAD PUSH2 0x2285 SWAP1 SWAP2 SWAP1 PUSH4 0xFFFFFFFF AND JUMP JUMPDEST PUSH1 0x1 PUSH0 DUP5 PUSH20 0xFFFFFFFFFFFFFFFFFFFFFFFFFFFFFFFFFFFFFFFF AND PUSH20 0xFFFFFFFFFFFFFFFFFFFFFFFFFFFFFFFFFFFFFFFF AND DUP2 MSTORE PUSH1 0x20 ADD SWAP1 DUP2 MSTORE PUSH1 0x20 ADD PUSH0 KECCAK256 DUP2 SWAP1 SSTORE POP DUP2 PUSH20 0xFFFFFFFFFFFFFFFFFFFFFFFFFFFFFFFFFFFFFFFF AND PUSH0 PUSH20 0xFFFFFFFFFFFFFFFFFFFFFFFFFFFFFFFFFFFFFFFF AND PUSH32 0xDDF252AD1BE2C89B69C2B068FC378DAA952BA7F163C4A11628F55A4DF523B3EF DUP4 PUSH1 0x40 MLOAD PUSH2 0x25F8 SWAP2 SWAP1 PUSH2 0x29E9 JUMP JUMPDEST PUSH1 0x40 MLOAD DUP1 SWAP2 SUB SWAP1 LOG3 POP POP JUMP JUMPDEST PUSH0 PUSH20 0xFFFFFFFFFFFFFFFFFFFFFFFFFFFFFFFFFFFFFFFF AND DUP3 PUSH20 0xFFFFFFFFFFFFFFFFFFFFFFFFFFFFFFFFFFFFFFFF AND SUB PUSH2 0x2672 JUMPI PUSH1 0x40 MLOAD PUSH32 0x8C379A000000000000000000000000000000000000000000000000000000000 DUP2 MSTORE PUSH1 0x4 ADD PUSH2 0x2669 SWAP1 PUSH2 0x38B7 JUMP JUMPDEST PUSH1 0x40 MLOAD DUP1 SWAP2 SUB SWAP1 REVERT JUMPDEST PUSH2 0x267D DUP3 PUSH0 DUP4 PUSH2 0x27AC JUMP JUMPDEST PUSH2 0x26E7 DUP2 PUSH1 0x40 MLOAD DUP1 PUSH1 0x60 ADD PUSH1 0x40 MSTORE DUP1 PUSH1 0x22 DUP2 MSTORE PUSH1 0x20 ADD PUSH2 0x38D6 PUSH1 0x22 SWAP2 CODECOPY PUSH1 0x1 PUSH0 DUP7 PUSH20 0xFFFFFFFFFFFFFFFFFFFFFFFFFFFFFFFFFFFFFFFF AND PUSH20 0xFFFFFFFFFFFFFFFFFFFFFFFFFFFFFFFFFFFFFFFF AND DUP2 MSTORE PUSH1 0x20 ADD SWAP1 DUP2 MSTORE PUSH1 0x20 ADD PUSH0 KECCAK256 SLOAD PUSH2 0x21AC SWAP1 SWAP3 SWAP2 SWAP1 PUSH4 0xFFFFFFFF AND JUMP JUMPDEST PUSH1 0x1 PUSH0 DUP5 PUSH20 0xFFFFFFFFFFFFFFFFFFFFFFFFFFFFFFFFFFFFFFFF AND PUSH20 0xFFFFFFFFFFFFFFFFFFFFFFFFFFFFFFFFFFFFFFFF AND DUP2 MSTORE PUSH1 0x20 ADD SWAP1 DUP2 MSTORE PUSH1 0x20 ADD PUSH0 KECCAK256 DUP2 SWAP1 SSTORE POP PUSH2 0x273D DUP2 PUSH1 0x3 SLOAD PUSH2 0x242D SWAP1 SWAP2 SWAP1 PUSH4 0xFFFFFFFF AND JUMP JUMPDEST PUSH1 0x3 DUP2 SWAP1 SSTORE POP PUSH0 PUSH20 0xFFFFFFFFFFFFFFFFFFFFFFFFFFFFFFFFFFFFFFFF AND DUP3 PUSH20 0xFFFFFFFFFFFFFFFFFFFFFFFFFFFFFFFFFFFFFFFF AND PUSH32 0xDDF252AD1BE2C89B69C2B068FC378DAA952BA7F163C4A11628F55A4DF523B3EF DUP4 PUSH1 0x40 MLOAD PUSH2 0x27A0 SWAP2 SWAP1 PUSH2 0x29E9 JUMP JUMPDEST PUSH1 0x40 MLOAD DUP1 SWAP2 SUB SWAP1 LOG3 POP POP JUMP JUMPDEST POP POP POP JUMP JUMPDEST PUSH0 DUP1 REVERT JUMPDEST PUSH0 DUP1 REVERT JUMPDEST PUSH0 PUSH20 0xFFFFFFFFFFFFFFFFFFFFFFFFFFFFFFFFFFFFFFFF DUP3 AND SWAP1 POP SWAP2 SWAP1 POP JUMP JUMPDEST PUSH0 PUSH2 0x27E2 DUP3 PUSH2 0x27B9 JUMP JUMPDEST SWAP1 POP SWAP2 SWAP1 POP JUMP JUMPDEST PUSH2 0x27F2 DUP2 PUSH2 0x27D8 JUMP JUMPDEST DUP2 EQ PUSH2 0x27FC JUMPI PUSH0 DUP1 REVERT JUMPDEST POP JUMP JUMPDEST PUSH0 DUP2 CALLDATALOAD SWAP1 POP PUSH2 0x280D DUP2 PUSH2 0x27E9 JUMP JUMPDEST SWAP3 SWAP2 POP POP JUMP JUMPDEST PUSH0 PUSH1 0x20 DUP3 DUP5 SUB SLT ISZERO PUSH2 0x2828 JUMPI PUSH2 0x2827 PUSH2 0x27B1 JUMP JUMPDEST JUMPDEST PUSH0 PUSH2 0x2835 DUP5 DUP3 DUP6 ADD PUSH2 0x27FF JUMP JUMPDEST SWAP2 POP POP SWAP3 SWAP2 POP POP JUMP JUMPDEST PUSH0 DUP2 ISZERO ISZERO SWAP1 POP SWAP2 SWAP1 POP JUMP JUMPDEST PUSH2 0x2852 DUP2 PUSH2 0x283E JUMP JUMPDEST DUP2 EQ PUSH2 0x285C JUMPI PUSH0 DUP1 REVERT JUMPDEST POP JUMP JUMPDEST PUSH0 DUP2 CALLDATALOAD SWAP1 POP PUSH2 0x286D DUP2 PUSH2 0x2849 JUMP JUMPDEST SWAP3 SWAP2 POP POP JUMP JUMPDEST PUSH0 DUP1 PUSH1 0x40 DUP4 DUP6 SUB SLT ISZERO PUSH2 0x2889 JUMPI PUSH2 0x2888 PUSH2 0x27B1 JUMP JUMPDEST JUMPDEST PUSH0 PUSH2 0x2896 DUP6 DUP3 DUP7 ADD PUSH2 0x27FF JUMP JUMPDEST SWAP3 POP POP PUSH1 0x20 PUSH2 0x28A7 DUP6 DUP3 DUP7 ADD PUSH2 0x285F JUMP JUMPDEST SWAP2 POP POP SWAP3 POP SWAP3 SWAP1 POP JUMP JUMPDEST PUSH0 DUP2 MLOAD SWAP1 POP SWAP2 SWAP1 POP JUMP JUMPDEST PUSH0 DUP3 DUP3 MSTORE PUSH1 0x20 DUP3 ADD SWAP1 POP SWAP3 SWAP2 POP POP JUMP JUMPDEST DUP3 DUP2 DUP4 MCOPY PUSH0 DUP4 DUP4 ADD MSTORE POP POP POP JUMP JUMPDEST PUSH0 PUSH1 0x1F NOT PUSH1 0x1F DUP4 ADD AND SWAP1 POP SWAP2 SWAP1 POP JUMP JUMPDEST PUSH0 PUSH2 0x28F3 DUP3 PUSH2 0x28B1 JUMP JUMPDEST PUSH2 0x28FD DUP2 DUP6 PUSH2 0x28BB JUMP JUMPDEST SWAP4 POP PUSH2 0x290D DUP2 DUP6 PUSH1 0x20 DUP7 ADD PUSH2 0x28CB JUMP JUMPDEST PUSH2 0x2916 DUP2 PUSH2 0x28D9 JUMP JUMPDEST DUP5 ADD SWAP2 POP POP SWAP3 SWAP2 POP POP JUMP JUMPDEST PUSH0 PUSH1 0x20 DUP3 ADD SWAP1 POP DUP2 DUP2 SUB PUSH0 DUP4 ADD MSTORE PUSH2 0x2939 DUP2 DUP5 PUSH2 0x28E9 JUMP JUMPDEST SWAP1 POP SWAP3 SWAP2 POP POP JUMP JUMPDEST PUSH0 DUP2 SWAP1 POP SWAP2 SWAP1 POP JUMP JUMPDEST PUSH2 0x2953 DUP2 PUSH2 0x2941 JUMP JUMPDEST DUP2 EQ PUSH2 0x295D JUMPI PUSH0 DUP1 REVERT JUMPDEST POP JUMP JUMPDEST PUSH0 DUP2 CALLDATALOAD SWAP1 POP PUSH2 0x296E DUP2 PUSH2 0x294A JUMP JUMPDEST SWAP3 SWAP2 POP POP JUMP JUMPDEST PUSH0 DUP1 PUSH1 0x40 DUP4 DUP6 SUB SLT ISZERO PUSH2 0x298A JUMPI PUSH2 0x2989 PUSH2 0x27B1 JUMP JUMPDEST JUMPDEST PUSH0 PUSH2 0x2997 DUP6 DUP3 DUP7 ADD PUSH2 0x27FF JUMP JUMPDEST SWAP3 POP POP PUSH1 0x20 PUSH2 0x29A8 DUP6 DUP3 DUP7 ADD PUSH2 0x2960 JUMP JUMPDEST SWAP2 POP POP SWAP3 POP SWAP3 SWAP1 POP JUMP JUMPDEST PUSH2 0x29BB DUP2 PUSH2 0x283E JUMP JUMPDEST DUP3 MSTORE POP POP JUMP JUMPDEST PUSH0 PUSH1 0x20 DUP3 ADD SWAP1 POP PUSH2 0x29D4 PUSH0 DUP4 ADD DUP5 PUSH2 0x29B2 JUMP JUMPDEST SWAP3 SWAP2 POP POP JUMP JUMPDEST PUSH2 0x29E3 DUP2 PUSH2 0x2941 JUMP JUMPDEST DUP3 MSTORE POP POP JUMP JUMPDEST PUSH0 PUSH1 0x20 DUP3 ADD SWAP1 POP PUSH2 0x29FC PUSH0 DUP4 ADD DUP5 PUSH2 0x29DA JUMP JUMPDEST SWAP3 SWAP2 POP POP JUMP JUMPDEST PUSH0 DUP1 PUSH0 PUSH1 0x60 DUP5 DUP7 SUB SLT ISZERO PUSH2 0x2A19 JUMPI PUSH2 0x2A18 PUSH2 0x27B1 JUMP JUMPDEST JUMPDEST PUSH0 PUSH2 0x2A26 DUP7 DUP3 DUP8 ADD PUSH2 0x27FF JUMP JUMPDEST SWAP4 POP POP PUSH1 0x20 PUSH2 0x2A37 DUP7 DUP3 DUP8 ADD PUSH2 0x27FF JUMP JUMPDEST SWAP3 POP POP PUSH1 0x40 PUSH2 0x2A48 DUP7 DUP3 DUP8 ADD PUSH2 0x2960 JUMP JUMPDEST SWAP2 POP POP SWAP3 POP SWAP3 POP SWAP3 JUMP JUMPDEST PUSH0 PUSH1 0xFF DUP3 AND SWAP1 POP SWAP2 SWAP1 POP JUMP JUMPDEST PUSH2 0x2A67 DUP2 PUSH2 0x2A52 JUMP JUMPDEST DUP3 MSTORE POP POP JUMP JUMPDEST PUSH0 PUSH1 0x20 DUP3 ADD SWAP1 POP PUSH2 0x2A80 PUSH0 DUP4 ADD DUP5 PUSH2 0x2A5E JUMP JUMPDEST SWAP3 SWAP2 POP POP JUMP JUMPDEST PUSH0 DUP1 REVERT JUMPDEST PUSH0 DUP1 REVERT JUMPDEST PUSH0 DUP1 REVERT JUMPDEST PUSH0 DUP1 DUP4 PUSH1 0x1F DUP5 ADD SLT PUSH2 0x2AA7 JUMPI PUSH2 0x2AA6 PUSH2 0x2A86 JUMP JUMPDEST JUMPDEST DUP3 CALLDATALOAD SWAP1 POP PUSH8 0xFFFFFFFFFFFFFFFF DUP2 GT ISZERO PUSH2 0x2AC4 JUMPI PUSH2 0x2AC3 PUSH2 0x2A8A JUMP JUMPDEST JUMPDEST PUSH1 0x20 DUP4 ADD SWAP2 POP DUP4 PUSH1 0x1 DUP3 MUL DUP4 ADD GT ISZERO PUSH2 0x2AE0 JUMPI PUSH2 0x2ADF PUSH2 0x2A8E JUMP JUMPDEST JUMPDEST SWAP3 POP SWAP3 SWAP1 POP JUMP JUMPDEST PUSH0 DUP1 PUSH1 0x20 DUP4 DUP6 SUB SLT ISZERO PUSH2 0x2AFD JUMPI PUSH2 0x2AFC PUSH2 0x27B1 JUMP JUMPDEST JUMPDEST PUSH0 DUP4 ADD CALLDATALOAD PUSH8 0xFFFFFFFFFFFFFFFF DUP2 GT ISZERO PUSH2 0x2B1A JUMPI PUSH2 0x2B19 PUSH2 0x27B5 JUMP JUMPDEST JUMPDEST PUSH2 0x2B26 DUP6 DUP3 DUP7 ADD PUSH2 0x2A92 JUMP JUMPDEST SWAP3 POP SWAP3 POP POP SWAP3 POP SWAP3 SWAP1 POP JUMP JUMPDEST PUSH2 0x2B3B DUP2 PUSH2 0x27D8 JUMP JUMPDEST DUP3 MSTORE POP POP JUMP JUMPDEST PUSH0 PUSH1 0xA0 DUP3 ADD SWAP1 POP PUSH2 0x2B54 PUSH0 DUP4 ADD DUP9 PUSH2 0x2B32 JUMP JUMPDEST PUSH2 0x2B61 PUSH1 0x20 DUP4 ADD DUP8 PUSH2 0x29DA JUMP JUMPDEST PUSH2 0x2B6E PUSH1 0x40 DUP4 ADD DUP7 PUSH2 0x29DA JUMP JUMPDEST PUSH2 0x2B7B PUSH1 0x60 DUP4 ADD DUP6 PUSH2 0x29DA JUMP JUMPDEST PUSH2 0x2B88 PUSH1 0x80 DUP4 ADD DUP5 PUSH2 0x29DA JUMP JUMPDEST SWAP7 SWAP6 POP POP POP POP POP POP JUMP JUMPDEST PUSH0 PUSH1 0x20 DUP3 ADD SWAP1 POP PUSH2 0x2BA5 PUSH0 DUP4 ADD DUP5 PUSH2 0x2B32 JUMP JUMPDEST SWAP3 SWAP2 POP POP JUMP JUMPDEST PUSH0 DUP2 SWAP1 POP SWAP2 SWAP1 POP JUMP JUMPDEST PUSH2 0x2BBD DUP2 PUSH2 0x2BAB JUMP JUMPDEST DUP2 EQ PUSH2 0x2BC7 JUMPI PUSH0 DUP1 REVERT JUMPDEST POP JUMP JUMPDEST PUSH0 DUP2 CALLDATALOAD SWAP1 POP PUSH2 0x2BD8 DUP2 PUSH2 0x2BB4 JUMP JUMPDEST SWAP3 SWAP2 POP POP JUMP JUMPDEST PUSH0 PUSH1 0x20 DUP3 DUP5 SUB SLT ISZERO PUSH2 0x2BF3 JUMPI PUSH2 0x2BF2 PUSH2 0x27B1 JUMP JUMPDEST JUMPDEST PUSH0 PUSH2 0x2C00 DUP5 DUP3 DUP6 ADD PUSH2 0x2BCA JUMP JUMPDEST SWAP2 POP POP SWAP3 SWAP2 POP POP JUMP JUMPDEST PUSH0 DUP1 PUSH1 0x40 DUP4 DUP6 SUB SLT ISZERO PUSH2 0x2C1F JUMPI PUSH2 0x2C1E PUSH2 0x27B1 JUMP JUMPDEST JUMPDEST PUSH0 PUSH2 0x2C2C DUP6 DUP3 DUP7 ADD PUSH2 0x27FF JUMP JUMPDEST SWAP3 POP POP PUSH1 0x20 PUSH2 0x2C3D DUP6 DUP3 DUP7 ADD PUSH2 0x27FF JUMP JUMPDEST SWAP2 POP POP SWAP3 POP SWAP3 SWAP1 POP JUMP JUMPDEST PUSH32 0x4F776E61626C653A2063616C6C6572206973206E6F7420746865206F776E6572 PUSH0 DUP3 ADD MSTORE POP JUMP JUMPDEST PUSH0 PUSH2 0x2C7B PUSH1 0x20 DUP4 PUSH2 0x28BB JUMP JUMPDEST SWAP2 POP PUSH2 0x2C86 DUP3 PUSH2 0x2C47 JUMP JUMPDEST PUSH1 0x20 DUP3 ADD SWAP1 POP SWAP2 SWAP1 POP JUMP JUMPDEST PUSH0 PUSH1 0x20 DUP3 ADD SWAP1 POP DUP2 DUP2 SUB PUSH0 DUP4 ADD MSTORE PUSH2 0x2CA8 DUP2 PUSH2 0x2C6F JUMP JUMPDEST SWAP1 POP SWAP2 SWAP1 POP JUMP JUMPDEST PUSH32 0x43616E6E6F7420776974686472617720747261636B657220746F6B656E730000 PUSH0 DUP3 ADD MSTORE POP JUMP JUMPDEST PUSH0 PUSH2 0x2CE3 PUSH1 0x1E DUP4 PUSH2 0x28BB JUMP JUMPDEST SWAP2 POP PUSH2 0x2CEE DUP3 PUSH2 0x2CAF JUMP JUMPDEST PUSH1 0x20 DUP3 ADD SWAP1 POP SWAP2 SWAP1 POP JUMP JUMPDEST PUSH0 PUSH1 0x20 DUP3 ADD SWAP1 POP DUP2 DUP2 SUB PUSH0 DUP4 ADD MSTORE PUSH2 0x2D10 DUP2 PUSH2 0x2CD7 JUMP JUMPDEST SWAP1 POP SWAP2 SWAP1 POP JUMP JUMPDEST PUSH0 DUP2 MLOAD SWAP1 POP PUSH2 0x2D25 DUP2 PUSH2 0x294A JUMP JUMPDEST SWAP3 SWAP2 POP POP JUMP JUMPDEST PUSH0 PUSH1 0x20 DUP3 DUP5 SUB SLT ISZERO PUSH2 0x2D40 JUMPI PUSH2 0x2D3F PUSH2 0x27B1 JUMP JUMPDEST JUMPDEST PUSH0 PUSH2 0x2D4D DUP5 DUP3 DUP6 ADD PUSH2 0x2D17 JUMP JUMPDEST SWAP2 POP POP SWAP3 SWAP2 POP POP JUMP JUMPDEST PUSH0 PUSH1 0x40 DUP3 ADD SWAP1 POP PUSH2 0x2D69 PUSH0 DUP4 ADD DUP6 PUSH2 0x2B32 JUMP JUMPDEST PUSH2 0x2D76 PUSH1 0x20 DUP4 ADD DUP5 PUSH2 0x29DA JUMP JUMPDEST SWAP4 SWAP3 POP POP POP JUMP JUMPDEST PUSH0 DUP2 MLOAD SWAP1 POP PUSH2 0x2D8B DUP2 PUSH2 0x2849 JUMP JUMPDEST SWAP3 SWAP2 POP POP JUMP JUMPDEST PUSH0 PUSH1 0x20 DUP3 DUP5 SUB SLT ISZERO PUSH2 0x2DA6 JUMPI PUSH2 0x2DA5 PUSH2 0x27B1 JUMP JUMPDEST JUMPDEST PUSH0 PUSH2 0x2DB3 DUP5 DUP3 DUP6 ADD PUSH2 0x2D7D JUMP JUMPDEST SWAP2 POP POP SWAP3 SWAP2 POP POP JUMP JUMPDEST PUSH32 0x4E6F206469766964656E647320746F2064697374726962757465000000000000 PUSH0 DUP3 ADD MSTORE POP JUMP JUMPDEST PUSH0 PUSH2 0x2DF0 PUSH1 0x1A DUP4 PUSH2 0x28BB JUMP JUMPDEST SWAP2 POP PUSH2 0x2DFB DUP3 PUSH2 0x2DBC JUMP JUMPDEST PUSH1 0x20 DUP3 ADD SWAP1 POP SWAP2 SWAP1 POP JUMP JUMPDEST PUSH0 PUSH1 0x20 DUP3 ADD SWAP1 POP DUP2 DUP2 SUB PUSH0 DUP4 ADD MSTORE PUSH2 0x2E1D DUP2 PUSH2 0x2DE4 JUMP JUMPDEST SWAP1 POP SWAP2 SWAP1 POP JUMP JUMPDEST PUSH0 DUP2 SWAP1 POP SWAP2 SWAP1 POP JUMP JUMPDEST PUSH2 0x2E3E PUSH2 0x2E39 DUP3 PUSH2 0x2941 JUMP JUMPDEST PUSH2 0x2E24 JUMP JUMPDEST DUP3 MSTORE POP POP JUMP JUMPDEST PUSH0 PUSH2 0x2E4F DUP3 DUP7 PUSH2 0x2E2D JUMP JUMPDEST PUSH1 0x20 DUP3 ADD SWAP2 POP PUSH2 0x2E5F DUP3 DUP6 PUSH2 0x2E2D JUMP JUMPDEST PUSH1 0x20 DUP3 ADD SWAP2 POP PUSH2 0x2E6F DUP3 DUP5 PUSH2 0x2E2D JUMP JUMPDEST PUSH1 0x20 DUP3 ADD SWAP2 POP DUP2 SWAP1 POP SWAP5 SWAP4 POP POP POP POP JUMP JUMPDEST PUSH2 0x2E89 DUP2 PUSH2 0x2BAB JUMP JUMPDEST DUP3 MSTORE POP POP JUMP JUMPDEST PUSH0 PUSH1 0x20 DUP3 ADD SWAP1 POP PUSH2 0x2EA2 PUSH0 DUP4 ADD DUP5 PUSH2 0x2E80 JUMP JUMPDEST SWAP3 SWAP2 POP POP JUMP JUMPDEST PUSH32 0x537461747573206E6F74206368616E6765640000000000000000000000000000 PUSH0 DUP3 ADD MSTORE POP JUMP JUMPDEST PUSH0 PUSH2 0x2EDC PUSH1 0x12 DUP4 PUSH2 0x28BB JUMP JUMPDEST SWAP2 POP PUSH2 0x2EE7 DUP3 PUSH2 0x2EA8 JUMP JUMPDEST PUSH1 0x20 DUP3 ADD SWAP1 POP SWAP2 SWAP1 POP JUMP JUMPDEST PUSH0 PUSH1 0x20 DUP3 ADD SWAP1 POP DUP2 DUP2 SUB PUSH0 DUP4 ADD MSTORE PUSH2 0x2F09 DUP2 PUSH2 0x2ED0 JUMP JUMPDEST SWAP1 POP SWAP2 SWAP1 POP JUMP JUMPDEST PUSH32 0x4E487B7100000000000000000000000000000000000000000000000000000000 PUSH0 MSTORE PUSH1 0x22 PUSH1 0x4 MSTORE PUSH1 0x24 PUSH0 REVERT JUMPDEST PUSH0 PUSH1 0x2 DUP3 DIV SWAP1 POP PUSH1 0x1 DUP3 AND DUP1 PUSH2 0x2F54 JUMPI PUSH1 0x7F DUP3 AND SWAP2 POP JUMPDEST PUSH1 0x20 DUP3 LT DUP2 SUB PUSH2 0x2F67 JUMPI PUSH2 0x2F66 PUSH2 0x2F10 JUMP JUMPDEST JUMPDEST POP SWAP2 SWAP1 POP JUMP JUMPDEST PUSH0 DUP2 SWAP1 POP SWAP2 SWAP1 POP JUMP JUMPDEST PUSH32 0x4E487B7100000000000000000000000000000000000000000000000000000000 PUSH0 MSTORE PUSH1 0x11 PUSH1 0x4 MSTORE PUSH1 0x24 PUSH0 REVERT JUMPDEST PUSH0 PUSH2 0x2FAD DUP3 PUSH2 0x2F6D JUMP JUMPDEST SWAP2 POP PUSH2 0x2FB8 DUP4 PUSH2 0x2F6D JUMP JUMPDEST SWAP3 POP DUP3 DUP3 ADD SWAP1 POP DUP3 DUP2 SLT ISZERO PUSH0 DUP4 SLT AND DUP4 DUP3 SLT PUSH0 DUP5 SLT ISZERO AND OR ISZERO PUSH2 0x2FDE JUMPI PUSH2 0x2FDD PUSH2 0x2F76 JUMP JUMPDEST JUMPDEST SWAP3 SWAP2 POP POP JUMP JUMPDEST PUSH32 0x4E487B7100000000000000000000000000000000000000000000000000000000 PUSH0 MSTORE PUSH1 0x12 PUSH1 0x4 MSTORE PUSH1 0x24 PUSH0 REVERT JUMPDEST PUSH0 PUSH2 0x301B DUP3 PUSH2 0x2941 JUMP JUMPDEST SWAP2 POP PUSH2 0x3026 DUP4 PUSH2 0x2941 JUMP JUMPDEST SWAP3 POP DUP3 PUSH2 0x3036 JUMPI PUSH2 0x3035 PUSH2 0x2FE4 JUMP JUMPDEST JUMPDEST DUP3 DUP3 DIV SWAP1 POP SWAP3 SWAP2 POP POP JUMP JUMPDEST PUSH32 0x4D7573742077616974206265666F726520636C61696D696E6700000000000000 PUSH0 DUP3 ADD MSTORE POP JUMP JUMPDEST PUSH0 PUSH2 0x3075 PUSH1 0x19 DUP4 PUSH2 0x28BB JUMP JUMPDEST SWAP2 POP PUSH2 0x3080 DUP3 PUSH2 0x3041 JUMP JUMPDEST PUSH1 0x20 DUP3 ADD SWAP1 POP SWAP2 SWAP1 POP JUMP JUMPDEST PUSH0 PUSH1 0x20 DUP3 ADD SWAP1 POP DUP2 DUP2 SUB PUSH0 DUP4 ADD MSTORE PUSH2 0x30A2 DUP2 PUSH2 0x3069 JUMP JUMPDEST SWAP1 POP SWAP2 SWAP1 POP JUMP JUMPDEST PUSH0 DUP2 SWAP1 POP SWAP3 SWAP2 POP POP JUMP JUMPDEST DUP3 DUP2 DUP4 CALLDATACOPY PUSH0 DUP4 DUP4 ADD MSTORE POP POP POP JUMP JUMPDEST PUSH0 PUSH2 0x30CC DUP4 DUP6 PUSH2 0x30A9 JUMP JUMPDEST SWAP4 POP PUSH2 0x30D9 DUP4 DUP6 DUP5 PUSH2 0x30B3 JUMP JUMPDEST DUP3 DUP5 ADD SWAP1 POP SWAP4 SWAP3 POP POP POP JUMP JUMPDEST PUSH0 PUSH2 0x30F1 DUP3 DUP5 DUP7 PUSH2 0x30C1 JUMP JUMPDEST SWAP2 POP DUP2 SWAP1 POP SWAP4 SWAP3 POP POP POP JUMP JUMPDEST PUSH32 0x50726F6F6620616C726561647920757365640000000000000000000000000000 PUSH0 DUP3 ADD MSTORE POP JUMP JUMPDEST PUSH0 PUSH2 0x3131 PUSH1 0x12 DUP4 PUSH2 0x28BB JUMP JUMPDEST SWAP2 POP PUSH2 0x313C DUP3 PUSH2 0x30FD JUMP JUMPDEST PUSH1 0x20 DUP3 ADD SWAP1 POP SWAP2 SWAP1 POP JUMP JUMPDEST PUSH0 PUSH1 0x20 DUP3 ADD SWAP1 POP DUP2 DUP2 SUB PUSH0 DUP4 ADD MSTORE PUSH2 0x315E DUP2 PUSH2 0x3125 JUMP JUMPDEST SWAP1 POP SWAP2 SWAP1 POP JUMP JUMPDEST PUSH32 0x42656C6F77206D696E696D756D20636C61696D00000000000000000000000000 PUSH0 DUP3 ADD MSTORE POP JUMP JUMPDEST PUSH0 PUSH2 0x3199 PUSH1 0x13 DUP4 PUSH2 0x28BB JUMP JUMPDEST SWAP2 POP PUSH2 0x31A4 DUP3 PUSH2 0x3165 JUMP JUMPDEST PUSH1 0x20 DUP3 ADD SWAP1 POP SWAP2 SWAP1 POP JUMP JUMPDEST PUSH0 PUSH1 0x20 DUP3 ADD SWAP1 POP DUP2 DUP2 SUB PUSH0 DUP4 ADD MSTORE PUSH2 0x31C6 DUP2 PUSH2 0x318D JUMP JUMPDEST SWAP1 POP SWAP2 SWAP1 POP JUMP JUMPDEST PUSH0 PUSH2 0x31D7 DUP3 PUSH2 0x2941 JUMP JUMPDEST SWAP2 POP PUSH2 0x31E2 DUP4 PUSH2 0x2941 JUMP JUMPDEST SWAP3 POP DUP3 DUP3 ADD SWAP1 POP DUP1 DUP3 GT ISZERO PUSH2 0x31FA JUMPI PUSH2 0x31F9 PUSH2 0x2F76 JUMP JUMPDEST JUMPDEST SWAP3 SWAP2 POP POP JUMP JUMPDEST PUSH0 PUSH1 0x40 DUP3 ADD SWAP1 POP PUSH2 0x3213 PUSH0 DUP4 ADD DUP6 PUSH2 0x29DA JUMP JUMPDEST PUSH2 0x3220 PUSH1 0x20 DUP4 ADD DUP5 PUSH2 0x2E80 JUMP JUMPDEST SWAP4 SWAP3 POP POP POP JUMP JUMPDEST PUSH0 DUP2 PUSH1 0x60 SHL SWAP1 POP SWAP2 SWAP1 POP JUMP JUMPDEST PUSH0 PUSH2 0x323D DUP3 PUSH2 0x3227 JUMP JUMPDEST SWAP1 POP SWAP2 SWAP1 POP JUMP JUMPDEST PUSH0 PUSH2 0x324E DUP3 PUSH2 0x3233 JUMP JUMPDEST SWAP1 POP SWAP2 SWAP1 POP JUMP JUMPDEST PUSH2 0x3266 PUSH2 0x3261 DUP3 PUSH2 0x27D8 JUMP JUMPDEST PUSH2 0x3244 JUMP JUMPDEST DUP3 MSTORE POP POP JUMP JUMPDEST PUSH0 PUSH2 0x3277 DUP3 DUP7 PUSH2 0x3255 JUMP JUMPDEST PUSH1 0x14 DUP3 ADD SWAP2 POP PUSH2 0x3287 DUP3 DUP6 PUSH2 0x2E2D JUMP JUMPDEST PUSH1 0x20 DUP3 ADD SWAP2 POP PUSH2 0x3297 DUP3 DUP5 PUSH2 0x2E2D JUMP JUMPDEST PUSH1 0x20 DUP3 ADD SWAP2 POP DUP2 SWAP1 POP SWAP5 SWAP4 POP POP POP POP JUMP JUMPDEST PUSH32 0x4F776E61626C653A206E6577206F776E657220697320746865207A65726F2061 PUSH0 DUP3 ADD MSTORE PUSH32 0x6464726573730000000000000000000000000000000000000000000000000000 PUSH1 0x20 DUP3 ADD MSTORE POP JUMP JUMPDEST PUSH0 PUSH2 0x3302 PUSH1 0x26 DUP4 PUSH2 0x28BB JUMP JUMPDEST SWAP2 POP PUSH2 0x330D DUP3 PUSH2 0x32A8 JUMP JUMPDEST PUSH1 0x40 DUP3 ADD SWAP1 POP SWAP2 SWAP1 POP JUMP JUMPDEST PUSH0 PUSH1 0x20 DUP3 ADD SWAP1 POP DUP2 DUP2 SUB PUSH0 DUP4 ADD MSTORE PUSH2 0x332F DUP2 PUSH2 0x32F6 JUMP JUMPDEST SWAP1 POP SWAP2 SWAP1 POP JUMP JUMPDEST PUSH32 0x4E6F20737570706C790000000000000000000000000000000000000000000000 PUSH0 DUP3 ADD MSTORE POP JUMP JUMPDEST PUSH0 PUSH2 0x336A PUSH1 0x9 DUP4 PUSH2 0x28BB JUMP JUMPDEST SWAP2 POP PUSH2 0x3375 DUP3 PUSH2 0x3336 JUMP JUMPDEST PUSH1 0x20 DUP3 ADD SWAP1 POP SWAP2 SWAP1 POP JUMP JUMPDEST PUSH0 PUSH1 0x20 DUP3 ADD SWAP1 POP DUP2 DUP2 SUB PUSH0 DUP4 ADD MSTORE PUSH2 0x3397 DUP2 PUSH2 0x335E JUMP JUMPDEST SWAP1 POP SWAP2 SWAP1 POP JUMP JUMPDEST PUSH32 0x45524332303A20617070726F76652066726F6D20746865207A65726F20616464 PUSH0 DUP3 ADD MSTORE PUSH32 0x7265737300000000000000000000000000000000000000000000000000000000 PUSH1 0x20 DUP3 ADD MSTORE POP JUMP JUMPDEST PUSH0 PUSH2 0x33F8 PUSH1 0x24 DUP4 PUSH2 0x28BB JUMP JUMPDEST SWAP2 POP PUSH2 0x3403 DUP3 PUSH2 0x339E JUMP JUMPDEST PUSH1 0x40 DUP3 ADD SWAP1 POP SWAP2 SWAP1 POP JUMP JUMPDEST PUSH0 PUSH1 0x20 DUP3 ADD SWAP1 POP DUP2 DUP2 SUB PUSH0 DUP4 ADD MSTORE PUSH2 0x3425 DUP2 PUSH2 0x33EC JUMP JUMPDEST SWAP1 POP SWAP2 SWAP1 POP JUMP JUMPDEST PUSH32 0x45524332303A20617070726F766520746F20746865207A65726F206164647265 PUSH0 DUP3 ADD MSTORE PUSH32 0x7373000000000000000000000000000000000000000000000000000000000000 PUSH1 0x20 DUP3 ADD MSTORE POP JUMP JUMPDEST PUSH0 PUSH2 0x3486 PUSH1 0x22 DUP4 PUSH2 0x28BB JUMP JUMPDEST SWAP2 POP PUSH2 0x3491 DUP3 PUSH2 0x342C JUMP JUMPDEST PUSH1 0x40 DUP3 ADD SWAP1 POP SWAP2 SWAP1 POP JUMP JUMPDEST PUSH0 PUSH1 0x20 DUP3 ADD SWAP1 POP DUP2 DUP2 SUB PUSH0 DUP4 ADD MSTORE PUSH2 0x34B3 DUP2 PUSH2 0x347A JUMP JUMPDEST SWAP1 POP SWAP2 SWAP1 POP JUMP JUMPDEST PUSH32 0x416464726573733A20696E73756666696369656E742062616C616E6365000000 PUSH0 DUP3 ADD MSTORE POP JUMP JUMPDEST PUSH0 PUSH2 0x34EE PUSH1 0x1D DUP4 PUSH2 0x28BB JUMP JUMPDEST SWAP2 POP PUSH2 0x34F9 DUP3 PUSH2 0x34BA JUMP JUMPDEST PUSH1 0x20 DUP3 ADD SWAP1 POP SWAP2 SWAP1 POP JUMP JUMPDEST PUSH0 PUSH1 0x20 DUP3 ADD SWAP1 POP DUP2 DUP2 SUB PUSH0 DUP4 ADD MSTORE PUSH2 0x351B DUP2 PUSH2 0x34E2 JUMP JUMPDEST SWAP1 POP SWAP2 SWAP1 POP JUMP JUMPDEST POP JUMP JUMPDEST PUSH0 PUSH2 0x3530 PUSH0 DUP4 PUSH2 0x30A9 JUMP JUMPDEST SWAP2 POP PUSH2 0x353B DUP3 PUSH2 0x3522 JUMP JUMPDEST PUSH0 DUP3 ADD SWAP1 POP SWAP2 SWAP1 POP JUMP JUMPDEST PUSH0 PUSH2 0x354F DUP3 PUSH2 0x3525 JUMP JUMPDEST SWAP2 POP DUP2 SWAP1 POP SWAP2 SWAP1 POP JUMP JUMPDEST PUSH32 0x416464726573733A20756E61626C6520746F2073656E642076616C75652C2072 PUSH0 DUP3 ADD MSTORE PUSH32 0x6563697069656E74206D61792068617665207265766572746564000000000000 PUSH1 0x20 DUP3 ADD MSTORE POP JUMP JUMPDEST PUSH0 PUSH2 0x35B3 PUSH1 0x3A DUP4 PUSH2 0x28BB JUMP JUMPDEST SWAP2 POP PUSH2 0x35BE DUP3 PUSH2 0x3559 JUMP JUMPDEST PUSH1 0x40 DUP3 ADD SWAP1 POP SWAP2 SWAP1 POP JUMP JUMPDEST PUSH0 PUSH1 0x20 DUP3 ADD SWAP1 POP DUP2 DUP2 SUB PUSH0 DUP4 ADD MSTORE PUSH2 0x35E0 DUP2 PUSH2 0x35A7 JUMP JUMPDEST SWAP1 POP SWAP2 SWAP1 POP JUMP JUMPDEST PUSH32 0x4469766964656E6420747261636B65723A204E6F207472616E73666572732061 PUSH0 DUP3 ADD MSTORE PUSH32 0x6C6C6F7765640000000000000000000000000000000000000000000000000000 PUSH1 0x20 DUP3 ADD MSTORE POP JUMP JUMPDEST PUSH0 PUSH2 0x3641 PUSH1 0x26 DUP4 PUSH2 0x28BB JUMP JUMPDEST SWAP2 POP PUSH2 0x364C DUP3 PUSH2 0x35E7 JUMP JUMPDEST PUSH1 0x40 DUP3 ADD SWAP1 POP SWAP2 SWAP1 POP JUMP JUMPDEST PUSH0 PUSH1 0x20 DUP3 ADD SWAP1 POP DUP2 DUP2 SUB PUSH0 DUP4 ADD MSTORE PUSH2 0x366E DUP2 PUSH2 0x3635 JUMP JUMPDEST SWAP1 POP SWAP2 SWAP1 POP JUMP JUMPDEST PUSH0 PUSH2 0x367F DUP3 PUSH2 0x2941 JUMP JUMPDEST SWAP2 POP PUSH2 0x368A DUP4 PUSH2 0x2941 JUMP JUMPDEST SWAP3 POP DUP3 DUP3 SUB SWAP1 POP DUP2 DUP2 GT ISZERO PUSH2 0x36A2 JUMPI PUSH2 0x36A1 PUSH2 0x2F76 JUMP JUMPDEST JUMPDEST SWAP3 SWAP2 POP POP JUMP JUMPDEST PUSH0 PUSH2 0x36B2 DUP3 PUSH2 0x2941 JUMP JUMPDEST SWAP2 POP PUSH2 0x36BD DUP4 PUSH2 0x2941 JUMP JUMPDEST SWAP3 POP DUP3 DUP3 MUL PUSH2 0x36CB DUP2 PUSH2 0x2941 JUMP JUMPDEST SWAP2 POP DUP3 DUP3 DIV DUP5 EQ DUP4 ISZERO OR PUSH2 0x36E2 JUMPI PUSH2 0x36E1 PUSH2 0x2F76 JUMP JUMPDEST JUMPDEST POP SWAP3 SWAP2 POP POP JUMP JUMPDEST PUSH32 0x536166654D6174683A206D756C7469706C69636174696F6E206F766572666C6F PUSH0 DUP3 ADD MSTORE PUSH32 0x7700000000000000000000000000000000000000000000000000000000000000 PUSH1 0x20 DUP3 ADD MSTORE POP JUMP JUMPDEST PUSH0 PUSH2 0x3743 PUSH1 0x21 DUP4 PUSH2 0x28BB JUMP JUMPDEST SWAP2 POP PUSH2 0x374E DUP3 PUSH2 0x36E9 JUMP JUMPDEST PUSH1 0x40 DUP3 ADD SWAP1 POP SWAP2 SWAP1 POP JUMP JUMPDEST PUSH0 PUSH1 0x20 DUP3 ADD SWAP1 POP DUP2 DUP2 SUB PUSH0 DUP4 ADD MSTORE PUSH2 0x3770 DUP2 PUSH2 0x3737 JUMP JUMPDEST SWAP1 POP SWAP2 SWAP1 POP JUMP JUMPDEST PUSH32 0x536166654D6174683A206164646974696F6E206F766572666C6F770000000000 PUSH0 DUP3 ADD MSTORE POP JUMP JUMPDEST PUSH0 PUSH2 0x37AB PUSH1 0x1B DUP4 PUSH2 0x28BB JUMP JUMPDEST SWAP2 POP PUSH2 0x37B6 DUP3 PUSH2 0x3777 JUMP JUMPDEST PUSH1 0x20 DUP3 ADD SWAP1 POP SWAP2 SWAP1 POP JUMP JUMPDEST PUSH0 PUSH1 0x20 DUP3 ADD SWAP1 POP DUP2 DUP2 SUB PUSH0 DUP4 ADD MSTORE PUSH2 0x37D8 DUP2 PUSH2 0x379F JUMP JUMPDEST SWAP1 POP SWAP2 SWAP1 POP JUMP JUMPDEST PUSH32 0x45524332303A206D696E7420746F20746865207A65726F206164647265737300 PUSH0 DUP3 ADD MSTORE POP JUMP JUMPDEST PUSH0 PUSH2 0x3813 PUSH1 0x1F DUP4 PUSH2 0x28BB JUMP JUMPDEST SWAP2 POP PUSH2 0x381E DUP3 PUSH2 0x37DF JUMP JUMPDEST PUSH1 0x20 DUP3 ADD SWAP1 POP SWAP2 SWAP1 POP JUMP JUMPDEST PUSH0 PUSH1 0x20 DUP3 ADD SWAP1 POP DUP2 DUP2 SUB PUSH0 DUP4 ADD MSTORE PUSH2 0x3840 DUP2 PUSH2 0x3807 JUMP JUMPDEST SWAP1 POP SWAP2 SWAP1 POP JUMP JUMPDEST PUSH32 0x45524332303A206275726E2066726F6D20746865207A65726F20616464726573 PUSH0 DUP3 ADD MSTORE PUSH32 0x7300000000000000000000000000000000000000000000000000000000000000 PUSH1 0x20 DUP3 ADD MSTORE POP JUMP JUMPDEST PUSH0 PUSH2 0x38A1 PUSH1 0x21 DUP4 PUSH2 0x28BB JUMP JUMPDEST SWAP2 POP PUSH2 0x38AC DUP3 PUSH2 0x3847 JUMP JUMPDEST PUSH1 0x40 DUP3 ADD SWAP1 POP SWAP2 SWAP1 POP JUMP JUMPDEST PUSH0 PUSH1 0x20 DUP3 ADD SWAP1 POP DUP2 DUP2 SUB PUSH0 DUP4 ADD MSTORE PUSH2 0x38CE DUP2 PUSH2 0x3895 JUMP JUMPDEST SWAP1 POP SWAP2 SWAP1 POP JUMP INVALID GASLIMIT MSTORE NUMBER ORIGIN ADDRESS GASPRICE KECCAK256 PUSH3 0x75726E KECCAK256 PUSH2 0x6D6F PUSH22 0x6E7420657863656564732062616C616E636545524332 ADDRESS GASPRICE KECCAK256 PUSH21 0x72616E7366657220616D6F756E7420657863656564 PUSH20 0x20616C6C6F77616E636545524332303A20646563 PUSH19 0x656173656420616C6C6F77616E63652062656C PUSH16 0x77207A65726FA2646970667358221220 EXP PUSH29 0xE0EBBEF49BE8136D6601A316B68263B1644F70095D7C83CD2CF8471E53 0xD6 PUSH5 0x736F6C6343 STOP ADDMOD BYTE STOP CALLER "
		},
		"gasEstimates": {
			"creation": {
				"codeDepositCost": "2942800",
				"executionCost": "infinite",
				"totalCost": "infinite"
			},
			"external": {
				"CLAIM_WAIT_TIME()": "436",
				"MINIMUM_CLAIM_AMOUNT()": "371",
				"accumulativeDividendOf(address)": "infinite",
				"allowance(address,address)": "infinite",
				"approve(address,uint256)": "infinite",
				"balanceOf(address)": "2940",
				"canClaim(address)": "infinite",
				"claimDividend(bytes)": "infinite",
				"decimals()": "428",
				"decreaseAllowance(address,uint256)": "infinite",
				"distributeDividends()": "infinite",
				"dividendOf(address)": "infinite",
				"excludeFromDividends(address,bool)": "infinite",
				"excludedFromDividends(address)": "2878",
				"getAccountInfo(address)": "infinite",
				"increaseAllowance(address,uint256)": "infinite",
				"lastClaimTimes(address)": "2914",
				"name()": "infinite",
				"owner()": "2627",
				"renounceOwnership()": "30417",
				"rescueETH()": "infinite",
				"rescueTokens(address)": "infinite",
				"setBalance(address,uint256)": "infinite",
				"symbol()": "infinite",
				"totalDividendsDistributed()": "2515",
				"totalDividendsWithdrawn()": "2514",
				"totalSupply()": "2500",
				"transfer(address,uint256)": "1067",
				"transferFrom(address,address,uint256)": "infinite",
				"transferOwnership(address)": "30758",
				"usedProofs(bytes32)": "2851",
				"withdrawDividend()": "infinite",
				"withdrawableDividendOf(address)": "infinite",
				"withdrawnDividendOf(address)": "2940"
			},
			"internal": {
				"_transfer(address,address,uint256)": "infinite"
			}
		},
		"methodIdentifiers": {
			"CLAIM_WAIT_TIME()": "a39185d7",
			"MINIMUM_CLAIM_AMOUNT()": "71f971f9",
			"accumulativeDividendOf(address)": "27ce0147",
			"allowance(address,address)": "dd62ed3e",
			"approve(address,uint256)": "095ea7b3",
			"balanceOf(address)": "70a08231",
			"canClaim(address)": "bf3506c1",
			"claimDividend(bytes)": "68f4d735",
			"decimals()": "313ce567",
			"decreaseAllowance(address,uint256)": "a457c2d7",
			"distributeDividends()": "03c83302",
			"dividendOf(address)": "91b89fba",
			"excludeFromDividends(address,bool)": "0483f7a0",
			"excludedFromDividends(address)": "4e7b827f",
			"getAccountInfo(address)": "7b510fe8",
			"increaseAllowance(address,uint256)": "39509351",
			"lastClaimTimes(address)": "226cfa3d",
			"name()": "06fdde03",
			"owner()": "8da5cb5b",
			"renounceOwnership()": "715018a6",
			"rescueETH()": "20800a00",
			"rescueTokens(address)": "00ae3bf8",
			"setBalance(address,uint256)": "e30443bc",
			"symbol()": "95d89b41",
			"totalDividendsDistributed()": "85a6b3ae",
			"totalDividendsWithdrawn()": "9e1e0661",
			"totalSupply()": "18160ddd",
			"transfer(address,uint256)": "a9059cbb",
			"transferFrom(address,address,uint256)": "23b872dd",
			"transferOwnership(address)": "f2fde38b",
			"usedProofs(bytes32)": "c30a0f25",
			"withdrawDividend()": "6a474002",
			"withdrawableDividendOf(address)": "a8b9d240",
			"withdrawnDividendOf(address)": "aafd847a"
		}
	},
	"abi": [
		{
			"inputs": [],
			"stateMutability": "nonpayable",
			"type": "constructor"
		},
		{
			"anonymous": false,
			"inputs": [
				{
					"indexed": true,
					"internalType": "address",
					"name": "owner",
					"type": "address"
				},
				{
					"indexed": true,
					"internalType": "address",
					"name": "spender",
					"type": "address"
				},
				{
					"indexed": false,
					"internalType": "uint256",
					"name": "value",
					"type": "uint256"
				}
			],
			"name": "Approval",
			"type": "event"
		},
		{
			"anonymous": false,
			"inputs": [
				{
					"indexed": true,
					"internalType": "address",
					"name": "account",
					"type": "address"
				},
				{
					"indexed": false,
					"internalType": "uint256",
					"name": "amount",
					"type": "uint256"
				},
				{
					"indexed": false,
					"internalType": "bytes32",
					"name": "zkProof",
					"type": "bytes32"
				}
			],
			"name": "Claim",
			"type": "event"
		},
		{
			"anonymous": false,
			"inputs": [
				{
					"indexed": true,
					"internalType": "address",
					"name": "to",
					"type": "address"
				},
				{
					"indexed": false,
					"internalType": "uint256",
					"name": "weiAmount",
					"type": "uint256"
				}
			],
			"name": "DividendWithdrawn",
			"type": "event"
		},
		{
			"anonymous": false,
			"inputs": [
				{
					"indexed": true,
					"internalType": "address",
					"name": "from",
					"type": "address"
				},
				{
					"indexed": false,
					"internalType": "uint256",
					"name": "weiAmount",
					"type": "uint256"
				}
			],
			"name": "DividendsDistributed",
			"type": "event"
		},
		{
			"anonymous": false,
			"inputs": [
				{
					"indexed": true,
					"internalType": "address",
					"name": "account",
					"type": "address"
				},
				{
					"indexed": false,
					"internalType": "bool",
					"name": "value",
					"type": "bool"
				}
			],
			"name": "ExcludeFromDividends",
			"type": "event"
		},
		{
			"anonymous": false,
			"inputs": [
				{
					"indexed": true,
					"internalType": "address",
					"name": "previousOwner",
					"type": "address"
				},
				{
					"indexed": true,
					"internalType": "address",
					"name": "newOwner",
					"type": "address"
				}
			],
			"name": "OwnershipTransferred",
			"type": "event"
		},
		{
			"anonymous": false,
			"inputs": [
				{
					"indexed": true,
					"internalType": "address",
					"name": "account",
					"type": "address"
				},
				{
					"indexed": false,
					"internalType": "bytes32",
					"name": "commitment",
					"type": "bytes32"
				}
			],
			"name": "PrivateUpdateBalance",
			"type": "event"
		},
		{
			"anonymous": false,
			"inputs": [
				{
					"indexed": true,
					"internalType": "address",
					"name": "from",
					"type": "address"
				},
				{
					"indexed": true,
					"internalType": "address",
					"name": "to",
					"type": "address"
				},
				{
					"indexed": false,
					"internalType": "uint256",
					"name": "value",
					"type": "uint256"
				}
			],
			"name": "Transfer",
			"type": "event"
		},
		{
			"inputs": [],
			"name": "CLAIM_WAIT_TIME",
			"outputs": [
				{
					"internalType": "uint256",
					"name": "",
					"type": "uint256"
				}
			],
			"stateMutability": "view",
			"type": "function"
		},
		{
			"inputs": [],
			"name": "MINIMUM_CLAIM_AMOUNT",
			"outputs": [
				{
					"internalType": "uint256",
					"name": "",
					"type": "uint256"
				}
			],
			"stateMutability": "view",
			"type": "function"
		},
		{
			"inputs": [
				{
					"internalType": "address",
					"name": "account",
					"type": "address"
				}
			],
			"name": "accumulativeDividendOf",
			"outputs": [
				{
					"internalType": "uint256",
					"name": "",
					"type": "uint256"
				}
			],
			"stateMutability": "view",
			"type": "function"
		},
		{
			"inputs": [
				{
					"internalType": "address",
					"name": "owner",
					"type": "address"
				},
				{
					"internalType": "address",
					"name": "spender",
					"type": "address"
				}
			],
			"name": "allowance",
			"outputs": [
				{
					"internalType": "uint256",
					"name": "",
					"type": "uint256"
				}
			],
			"stateMutability": "view",
			"type": "function"
		},
		{
			"inputs": [
				{
					"internalType": "address",
					"name": "spender",
					"type": "address"
				},
				{
					"internalType": "uint256",
					"name": "amount",
					"type": "uint256"
				}
			],
			"name": "approve",
			"outputs": [
				{
					"internalType": "bool",
					"name": "",
					"type": "bool"
				}
			],
			"stateMutability": "nonpayable",
			"type": "function"
		},
		{
			"inputs": [
				{
					"internalType": "address",
					"name": "account",
					"type": "address"
				}
			],
			"name": "balanceOf",
			"outputs": [
				{
					"internalType": "uint256",
					"name": "",
					"type": "uint256"
				}
			],
			"stateMutability": "view",
			"type": "function"
		},
		{
			"inputs": [
				{
					"internalType": "address",
					"name": "account",
					"type": "address"
				}
			],
			"name": "canClaim",
			"outputs": [
				{
					"internalType": "bool",
					"name": "",
					"type": "bool"
				}
			],
			"stateMutability": "view",
			"type": "function"
		},
		{
			"inputs": [
				{
					"internalType": "bytes",
					"name": "proof",
					"type": "bytes"
				}
			],
			"name": "claimDividend",
			"outputs": [],
			"stateMutability": "nonpayable",
			"type": "function"
		},
		{
			"inputs": [],
			"name": "decimals",
			"outputs": [
				{
					"internalType": "uint8",
					"name": "",
					"type": "uint8"
				}
			],
			"stateMutability": "view",
			"type": "function"
		},
		{
			"inputs": [
				{
					"internalType": "address",
					"name": "spender",
					"type": "address"
				},
				{
					"internalType": "uint256",
					"name": "subtractedValue",
					"type": "uint256"
				}
			],
			"name": "decreaseAllowance",
			"outputs": [
				{
					"internalType": "bool",
					"name": "",
					"type": "bool"
				}
			],
			"stateMutability": "nonpayable",
			"type": "function"
		},
		{
			"inputs": [],
			"name": "distributeDividends",
			"outputs": [],
			"stateMutability": "payable",
			"type": "function"
		},
		{
			"inputs": [
				{
					"internalType": "address",
					"name": "account",
					"type": "address"
				}
			],
			"name": "dividendOf",
			"outputs": [
				{
					"internalType": "uint256",
					"name": "",
					"type": "uint256"
				}
			],
			"stateMutability": "view",
			"type": "function"
		},
		{
			"inputs": [
				{
					"internalType": "address",
					"name": "account",
					"type": "address"
				},
				{
					"internalType": "bool",
					"name": "exclude",
					"type": "bool"
				}
			],
			"name": "excludeFromDividends",
			"outputs": [],
			"stateMutability": "nonpayable",
			"type": "function"
		},
		{
			"inputs": [
				{
					"internalType": "address",
					"name": "",
					"type": "address"
				}
			],
			"name": "excludedFromDividends",
			"outputs": [
				{
					"internalType": "bool",
					"name": "",
					"type": "bool"
				}
			],
			"stateMutability": "view",
			"type": "function"
		},
		{
			"inputs": [
				{
					"internalType": "address",
					"name": "account",
					"type": "address"
				}
			],
			"name": "getAccountInfo",
			"outputs": [
				{
					"internalType": "address",
					"name": "",
					"type": "address"
				},
				{
					"internalType": "uint256",
					"name": "",
					"type": "uint256"
				},
				{
					"internalType": "uint256",
					"name": "",
					"type": "uint256"
				},
				{
					"internalType": "uint256",
					"name": "",
					"type": "uint256"
				},
				{
					"internalType": "uint256",
					"name": "",
					"type": "uint256"
				}
			],
			"stateMutability": "view",
			"type": "function"
		},
		{
			"inputs": [
				{
					"internalType": "address",
					"name": "spender",
					"type": "address"
				},
				{
					"internalType": "uint256",
					"name": "addedValue",
					"type": "uint256"
				}
			],
			"name": "increaseAllowance",
			"outputs": [
				{
					"internalType": "bool",
					"name": "",
					"type": "bool"
				}
			],
			"stateMutability": "nonpayable",
			"type": "function"
		},
		{
			"inputs": [
				{
					"internalType": "address",
					"name": "",
					"type": "address"
				}
			],
			"name": "lastClaimTimes",
			"outputs": [
				{
					"internalType": "uint256",
					"name": "",
					"type": "uint256"
				}
			],
			"stateMutability": "view",
			"type": "function"
		},
		{
			"inputs": [],
			"name": "name",
			"outputs": [
				{
					"internalType": "string",
					"name": "",
					"type": "string"
				}
			],
			"stateMutability": "view",
			"type": "function"
		},
		{
			"inputs": [],
			"name": "owner",
			"outputs": [
				{
					"internalType": "address",
					"name": "",
					"type": "address"
				}
			],
			"stateMutability": "view",
			"type": "function"
		},
		{
			"inputs": [],
			"name": "renounceOwnership",
			"outputs": [],
			"stateMutability": "nonpayable",
			"type": "function"
		},
		{
			"inputs": [],
			"name": "rescueETH",
			"outputs": [],
			"stateMutability": "nonpayable",
			"type": "function"
		},
		{
			"inputs": [
				{
					"internalType": "address",
					"name": "token",
					"type": "address"
				}
			],
			"name": "rescueTokens",
			"outputs": [],
			"stateMutability": "nonpayable",
			"type": "function"
		},
		{
			"inputs": [
				{
					"internalType": "address",
					"name": "account",
					"type": "address"
				},
				{
					"internalType": "uint256",
					"name": "newBalance",
					"type": "uint256"
				}
			],
			"name": "setBalance",
			"outputs": [],
			"stateMutability": "nonpayable",
			"type": "function"
		},
		{
			"inputs": [],
			"name": "symbol",
			"outputs": [
				{
					"internalType": "string",
					"name": "",
					"type": "string"
				}
			],
			"stateMutability": "view",
			"type": "function"
		},
		{
			"inputs": [],
			"name": "totalDividendsDistributed",
			"outputs": [
				{
					"internalType": "uint256",
					"name": "",
					"type": "uint256"
				}
			],
			"stateMutability": "view",
			"type": "function"
		},
		{
			"inputs": [],
			"name": "totalDividendsWithdrawn",
			"outputs": [
				{
					"internalType": "uint256",
					"name": "",
					"type": "uint256"
				}
			],
			"stateMutability": "view",
			"type": "function"
		},
		{
			"inputs": [],
			"name": "totalSupply",
			"outputs": [
				{
					"internalType": "uint256",
					"name": "",
					"type": "uint256"
				}
			],
			"stateMutability": "view",
			"type": "function"
		},
		{
			"inputs": [
				{
					"internalType": "address",
					"name": "recipient",
					"type": "address"
				},
				{
					"internalType": "uint256",
					"name": "amount",
					"type": "uint256"
				}
			],
			"name": "transfer",
			"outputs": [
				{
					"internalType": "bool",
					"name": "",
					"type": "bool"
				}
			],
			"stateMutability": "nonpayable",
			"type": "function"
		},
		{
			"inputs": [
				{
					"internalType": "address",
					"name": "sender",
					"type": "address"
				},
				{
					"internalType": "address",
					"name": "recipient",
					"type": "address"
				},
				{
					"internalType": "uint256",
					"name": "amount",
					"type": "uint256"
				}
			],
			"name": "transferFrom",
			"outputs": [
				{
					"internalType": "bool",
					"name": "",
					"type": "bool"
				}
			],
			"stateMutability": "nonpayable",
			"type": "function"
		},
		{
			"inputs": [
				{
					"internalType": "address",
					"name": "newOwner",
					"type": "address"
				}
			],
			"name": "transferOwnership",
			"outputs": [],
			"stateMutability": "nonpayable",
			"type": "function"
		},
		{
			"inputs": [
				{
					"internalType": "bytes32",
					"name": "",
					"type": "bytes32"
				}
			],
			"name": "usedProofs",
			"outputs": [
				{
					"internalType": "bool",
					"name": "",
					"type": "bool"
				}
			],
			"stateMutability": "view",
			"type": "function"
		},
		{
			"inputs": [],
			"name": "withdrawDividend",
			"outputs": [],
			"stateMutability": "nonpayable",
			"type": "function"
		},
		{
			"inputs": [
				{
					"internalType": "address",
					"name": "account",
					"type": "address"
				}
			],
			"name": "withdrawableDividendOf",
			"outputs": [
				{
					"internalType": "uint256",
					"name": "",
					"type": "uint256"
				}
			],
			"stateMutability": "view",
			"type": "function"
		},
		{
			"inputs": [
				{
					"internalType": "address",
					"name": "account",
					"type": "address"
				}
			],
			"name": "withdrawnDividendOf",
			"outputs": [
				{
					"internalType": "uint256",
					"name": "",
					"type": "uint256"
				}
			],
			"stateMutability": "view",
			"type": "function"
		}
	]
}