{
	"data": {
		"bytecode": {
			"linkReferences": {},
			"object": "60806040526001600760156101000a81548160ff0219169083151502179055507373fa5ddf2ab78d92bb723d92ab98af7a0a4fde8f60095f6101000a81548173ffffffffffffffffffffffffffffffffffffffff021916908373ffffffffffffffffffffffffffffffffffffffff1602179055507316023072c6a88555736b654629fc807d623617a5600a5f6101000a81548173ffffffffffffffffffffffffffffffffffffffff021916908373ffffffffffffffffffffffffffffffffffffffff1602179055506969e10de76676d0800000600b5569d3c21bcecceda1000000600c5569d3c21bcecceda1000000600d5560405180608001604052805f81526020015f81526020015f81526020016002815250600e5f820151815f01556020820151816001015560408201518160020155606082015181600301555050604051806080016040528060058152602001600a815260200160038152602001600281525060125f820151815f01556020820151816001015560408201518160020155606082015181600301555050600260165560146017553480156101a1575f80fd5b506040518060400160405280600581526020017f564952414c0000000000000000000000000000000000000000000000000000008152506040518060400160405280600581526020017f564952414c000000000000000000000000000000000000000000000000000000815250816003908161021d9190611186565b50806004908161022d9190611186565b5050505f61023f61098d60201b60201c565b90508060055f6101000a81548173ffffffffffffffffffffffffffffffffffffffff021916908373ffffffffffffffffffffffffffffffffffffffff1602179055508073ffffffffffffffffffffffffffffffffffffffff165f73ffffffffffffffffffffffffffffffffffffffff167f8be0079c531659141344cd1fd0a4f28419497f9722a3daafe3b4186f6b6457e060405160405180910390a3506040516102e890610f3f565b604051809103905ff080158015610301573d5f803e3d5ffd5b5060085f6101000a81548173ffffffffffffffffffffffffffffffffffffffff021916908373ffffffffffffffffffffffffffffffffffffffff1602179055505f737a250d5630b4cf539739df2c5dacb4c659f2488d90505f8173ffffffffffffffffffffffffffffffffffffffff1663c45a01556040518163ffffffff1660e01b8152600401602060405180830381865afa1580156103a3573d5f803e3d5ffd5b505050506040513d601f19601f820116820180604052508101906103c791906112b3565b73ffffffffffffffffffffffffffffffffffffffff1663c9c65396308473ffffffffffffffffffffffffffffffffffffffff1663ad5c46486040518163ffffffff1660e01b8152600401602060405180830381865afa15801561042c573d5f803e3d5ffd5b505050506040513d601f19601f8201168201806040525081019061045091906112b3565b6040518363ffffffff1660e01b815260040161046d9291906112ed565b6020604051808303815f875af1158015610489573d5f803e3d5ffd5b505050506040513d601f19601f820116820180604052508101906104ad91906112b3565b90508160065f6101000a81548173ffffffffffffffffffffffffffffffffffffffff021916908373ffffffffffffffffffffffffffffffffffffffff1602179055508060075f6101000a81548173ffffffffffffffffffffffffffffffffffffffff021916908373ffffffffffffffffffffffffffffffffffffffff16021790555061054081600161099460201b60201c565b60085f9054906101000a900473ffffffffffffffffffffffffffffffffffffffff1673ffffffffffffffffffffffffffffffffffffffff166344b6bd9e60075f9054906101000a900473ffffffffffffffffffffffffffffffffffffffff166040518263ffffffff1660e01b81526004016105bb9190611314565b5f604051808303815f87803b1580156105d2575f80fd5b505af11580156105e4573d5f803e3d5ffd5b5050505060085f9054906101000a900473ffffffffffffffffffffffffffffffffffffffff1673ffffffffffffffffffffffffffffffffffffffff16630483f7a060085f9054906101000a900473ffffffffffffffffffffffffffffffffffffffff1660016040518363ffffffff1660e01b8152600401610666929190611347565b5f604051808303815f87803b15801561067d575f80fd5b505af115801561068f573d5f803e3d5ffd5b5050505060085f9054906101000a900473ffffffffffffffffffffffffffffffffffffffff1673ffffffffffffffffffffffffffffffffffffffff16630483f7a03060016040518363ffffffff1660e01b81526004016106f0929190611347565b5f604051808303815f87803b158015610707575f80fd5b505af1158015610719573d5f803e3d5ffd5b5050505060085f9054906101000a900473ffffffffffffffffffffffffffffffffffffffff1673ffffffffffffffffffffffffffffffffffffffff16630483f7a0610768610b5260201b60201c565b60016040518363ffffffff1660e01b8152600401610787929190611347565b5f604051808303815f87803b15801561079e575f80fd5b505af11580156107b0573d5f803e3d5ffd5b5050505060085f9054906101000a900473ffffffffffffffffffffffffffffffffffffffff1673ffffffffffffffffffffffffffffffffffffffff16630483f7a061dead60016040518363ffffffff1660e01b8152600401610813929190611347565b5f604051808303815f87803b15801561082a575f80fd5b505af115801561083c573d5f803e3d5ffd5b5050505060085f9054906101000a900473ffffffffffffffffffffffffffffffffffffffff1673ffffffffffffffffffffffffffffffffffffffff16630483f7a08360016040518363ffffffff1660e01b815260040161089d929190611347565b5f604051808303815f87803b1580156108b4575f80fd5b505af11580156108c6573d5f803e3d5ffd5b505050506108e86108db610b5260201b60201c565b6001610b7a60201b60201c565b6108f9306001610b7a60201b60201c565b61092b60095f9054906101000a900473ffffffffffffffffffffffffffffffffffffffff166001610b7a60201b60201c565b61095d600a5f9054906101000a900473ffffffffffffffffffffffffffffffffffffffff166001610b7a60201b60201c565b61098661096e610b5260201b60201c565b6b204fce5e3e25026110000000610d4b60201b60201c565b5050611673565b5f33905090565b801515601a5f8473ffffffffffffffffffffffffffffffffffffffff1673ffffffffffffffffffffffffffffffffffffffff1681526020019081526020015f205f9054906101000a900460ff16151503610a23576040517f08c379a0000000000000000000000000000000000000000000000000000000008152600401610a1a906113ee565b60405180910390fd5b80601a5f8473ffffffffffffffffffffffffffffffffffffffff1673ffffffffffffffffffffffffffffffffffffffff1681526020019081526020015f205f6101000a81548160ff0219169083151502179055508015610b085760085f9054906101000a900473ffffffffffffffffffffffffffffffffffffffff1673ffffffffffffffffffffffffffffffffffffffff16630483f7a08360016040518363ffffffff1660e01b8152600401610ada929190611347565b5f604051808303815f87803b158015610af1575f80fd5b505af1158015610b03573d5f803e3d5ffd5b505050505b8015158273ffffffffffffffffffffffffffffffffffffffff167fffa9187bf1f18bf477bd0ea1bcbb64e93b6a98132473929edfce215cd9b16fab60405160405180910390a35050565b5f60055f9054906101000a900473ffffffffffffffffffffffffffffffffffffffff16905090565b610b8861098d60201b60201c565b73ffffffffffffffffffffffffffffffffffffffff1660055f9054906101000a900473ffffffffffffffffffffffffffffffffffffffff1673ffffffffffffffffffffffffffffffffffffffff1614610c16576040517f08c379a0000000000000000000000000000000000000000000000000000000008152600401610c0d90611456565b60405180910390fd5b80151560195f8473ffffffffffffffffffffffffffffffffffffffff1673ffffffffffffffffffffffffffffffffffffffff1681526020019081526020015f205f9054906101000a900460ff16151503610ca5576040517f08c379a0000000000000000000000000000000000000000000000000000000008152600401610c9c906114e4565b60405180910390fd5b8060195f8473ffffffffffffffffffffffffffffffffffffffff1673ffffffffffffffffffffffffffffffffffffffff1681526020019081526020015f205f6101000a81548160ff0219169083151502179055508173ffffffffffffffffffffffffffffffffffffffff167f9d8f7706ea1113d1a167b526eca956215946dd36cc7df39eb16180222d8b5df782604051610d3f9190611502565b60405180910390a25050565b5f73ffffffffffffffffffffffffffffffffffffffff168273ffffffffffffffffffffffffffffffffffffffff1603610db9576040517f08c379a0000000000000000000000000000000000000000000000000000000008152600401610db090611565565b60405180910390fd5b610dca5f8383610edd60201b60201c565b610ddf81600254610ee260201b90919060201c565b600281905550610e34815f808573ffffffffffffffffffffffffffffffffffffffff1673ffffffffffffffffffffffffffffffffffffffff1681526020019081526020015f2054610ee260201b90919060201c565b5f808473ffffffffffffffffffffffffffffffffffffffff1673ffffffffffffffffffffffffffffffffffffffff1681526020019081526020015f20819055508173ffffffffffffffffffffffffffffffffffffffff165f73ffffffffffffffffffffffffffffffffffffffff167fddf252ad1be2c89b69c2b068fc378daa952ba7f163c4a11628f55a4df523b3ef83604051610ed19190611592565b60405180910390a35050565b505050565b5f808284610ef091906115d8565b905083811015610f35576040517f08c379a0000000000000000000000000000000000000000000000000000000008152600401610f2c90611655565b60405180910390fd5b8091505092915050565b6138b780617d2483390190565b5f81519050919050565b7f4e487b71000000000000000000000000000000000000000000000000000000005f52604160045260245ffd5b7f4e487b71000000000000000000000000000000000000000000000000000000005f52602260045260245ffd5b5f6002820490506001821680610fc757607f821691505b602082108103610fda57610fd9610f83565b5b50919050565b5f819050815f5260205f209050919050565b5f6020601f8301049050919050565b5f82821b905092915050565b5f6008830261103c7fffffffffffffffffffffffffffffffffffffffffffffffffffffffffffffffff82611001565b6110468683611001565b95508019841693508086168417925050509392505050565b5f819050919050565b5f819050919050565b5f61108a6110856110808461105e565b611067565b61105e565b9050919050565b5f819050919050565b6110a383611070565b6110b76110af82611091565b84845461100d565b825550505050565b5f90565b6110cb6110bf565b6110d681848461109a565b505050565b5b818110156110f9576110ee5f826110c3565b6001810190506110dc565b5050565b601f82111561113e5761110f81610fe0565b61111884610ff2565b81016020851015611127578190505b61113b61113385610ff2565b8301826110db565b50505b505050565b5f82821c905092915050565b5f61115e5f1984600802611143565b1980831691505092915050565b5f611176838361114f565b9150826002028217905092915050565b61118f82610f4c565b67ffffffffffffffff8111156111a8576111a7610f56565b5b6111b28254610fb0565b6111bd8282856110fd565b5f60209050601f8311600181146111ee575f84156111dc578287015190505b6111e6858261116b565b86555061124d565b601f1984166111fc86610fe0565b5f5b82811015611223578489015182556001820191506020850194506020810190506111fe565b86831015611240578489015161123c601f89168261114f565b8355505b6001600288020188555050505b505050505050565b5f80fd5b5f73ffffffffffffffffffffffffffffffffffffffff82169050919050565b5f61128282611259565b9050919050565b61129281611278565b811461129c575f80fd5b50565b5f815190506112ad81611289565b92915050565b5f602082840312156112c8576112c7611255565b5b5f6112d58482850161129f565b91505092915050565b6112e781611278565b82525050565b5f6040820190506113005f8301856112de565b61130d60208301846112de565b9392505050565b5f6020820190506113275f8301846112de565b92915050565b5f8115159050919050565b6113418161132d565b82525050565b5f60408201905061135a5f8301856112de565b6113676020830184611338565b9392505050565b5f82825260208201905092915050565b7f564952414c3a204175746f6d61746564206d61726b6574206d616b65722070615f8201527f697220697320616c72656164792073657420746f20746861742076616c756500602082015250565b5f6113d8603f8361136e565b91506113e38261137e565b604082019050919050565b5f6020820190508181035f830152611405816113cc565b9050919050565b7f4f776e61626c653a2063616c6c6572206973206e6f7420746865206f776e65725f82015250565b5f61144060208361136e565b915061144b8261140c565b602082019050919050565b5f6020820190508181035f83015261146d81611434565b9050919050565b7f564952414c3a204163636f756e7420697320616c7265616479207468652076615f8201527f6c7565206f6620276578636c7564656427000000000000000000000000000000602082015250565b5f6114ce60318361136e565b91506114d982611474565b604082019050919050565b5f6020820190508181035f8301526114fb816114c2565b9050919050565b5f6020820190506115155f830184611338565b92915050565b7f45524332303a206d696e7420746f20746865207a65726f2061646472657373005f82015250565b5f61154f601f8361136e565b915061155a8261151b565b602082019050919050565b5f6020820190508181035f83015261157c81611543565b9050919050565b61158c8161105e565b82525050565b5f6020820190506115a55f830184611583565b92915050565b7f4e487b71000000000000000000000000000000000000000000000000000000005f52601160045260245ffd5b5f6115e28261105e565b91506115ed8361105e565b9250828201905080821115611605576116046115ab565b5b92915050565b7f536166654d6174683a206164646974696f6e206f766572666c6f7700000000005f82015250565b5f61163f601b8361136e565b915061164a8261160b565b602082019050919050565b5f6020820190508181035f83015261166c81611633565b9050919050565b6166a4806116805f395ff3fe60806040526004361061039a575f3560e01c8063864701a5116101db578063afa4f3b211610101578063e01af92c1161009f578063f2fde38b1161006e578063f2fde38b14610d3c578063f480fec214610d64578063f66895a314610d8c578063f887ea4014610db9576103a1565b8063e01af92c14610cac578063e11c336814610cd4578063e2f4560514610cea578063e4bf1bed14610d14576103a1565b8063c0246668116100db578063c024666814610bf8578063c492f04614610c20578063c851cc3214610c48578063dd62ed3e14610c70576103a1565b8063afa4f3b214610b6c578063b62496f514610b94578063b83b297f14610bd0576103a1565b806395d89b4111610179578063a8aa1b3111610148578063a8aa1b3114610a8e578063a8b9d24014610ab8578063a9059cbb14610af4578063abb8105214610b30576103a1565b806395d89b41146109d85780639a7a23d614610a02578063a457c2d714610a2a578063a8602fea14610a66576103a1565b80638c9684f9116101b55780638c9684f9146109345780638da5cb5b1461095c5780638ea5220f1461098657806392929a09146109b0576103a1565b8063864701a5146108b557806388bdd9be146108e257806388e765ff1461090a576103a1565b8063342aa8b5116102c057806366d602ae1161025e57806370a082311161022d57806370a08231146107fb578063715018a61461083757806379b447bd1461084d5780637b510fe814610875576103a1565b806366d602ae146107435780636843cd841461076d5780636ddd1713146107a9578063706f6937146107d3576103a1565b806346469afb1161029a57806346469afb1461069d5780634ada218b146106c75780634e71d92d146106f15780634fbee19314610707576103a1565b8063342aa8b51461060f57806339509351146106375780634626402b14610673576103a1565b80631bff7898116103385780632c1f5216116103075780632c1f5216146105695780632e1ab9041461059357806330bb4cff146105bb578063313ce567146105e5576103a1565b80631bff7898146104b15780631f53ac02146104db57806323b872dd146105035780632866ed211461053f576103a1565b80630a78097d116103745780630a78097d146104335780630bd05b691461045b57806312b77e8a1461047157806318160ddd14610487576103a1565b80630483f7a0146103a557806306fdde03146103cd578063095ea7b3146103f7576103a1565b366103a157005b5f80fd5b3480156103b0575f80fd5b506103cb60048036038101906103c69190614dfe565b610de3565b005b3480156103d8575f80fd5b506103e1610f06565b6040516103ee9190614eac565b60405180910390f35b348015610402575f80fd5b5061041d60048036038101906104189190614eff565b610f96565b60405161042a9190614f4c565b60405180910390f35b34801561043e575f80fd5b5061045960048036038101906104549190614f65565b610fb3565b005b348015610466575f80fd5b5061046f611146565b005b34801561047c575f80fd5b50610485611249565b005b348015610492575f80fd5b5061049b61129a565b6040516104a89190614f9f565b60405180910390f35b3480156104bc575f80fd5b506104c56112a3565b6040516104d29190614f9f565b60405180910390f35b3480156104e6575f80fd5b5061050160048036038101906104fc9190614f65565b6112a9565b005b34801561050e575f80fd5b5061052960048036038101906105249190614fb8565b611382565b6040516105369190614f4c565b60405180910390f35b34801561054a575f80fd5b50610553611456565b6040516105609190614f4c565b60405180910390f35b348015610574575f80fd5b5061057d611469565b60405161058a9190615063565b60405180910390f35b34801561059e575f80fd5b506105b960048036038101906105b49190614f65565b61148e565b005b3480156105c6575f80fd5b506105cf6115ae565b6040516105dc9190614f9f565b60405180910390f35b3480156105f0575f80fd5b506105f9611642565b6040516106069190615097565b60405180910390f35b34801561061a575f80fd5b5061063560048036038101906106309190614dfe565b61164a565b005b348015610642575f80fd5b5061065d60048036038101906106589190614eff565b611790565b60405161066a9190614f4c565b60405180910390f35b34801561067e575f80fd5b5061068761183e565b60405161069491906150bf565b60405180910390f35b3480156106a8575f80fd5b506106b1611863565b6040516106be9190614f9f565b60405180910390f35b3480156106d2575f80fd5b506106db611869565b6040516106e89190614f4c565b60405180910390f35b3480156106fc575f80fd5b5061070561187c565b005b348015610712575f80fd5b5061072d60048036038101906107289190614f65565b611968565b60405161073a9190614f4c565b60405180910390f35b34801561074e575f80fd5b506107576119ba565b6040516107649190614f9f565b60405180910390f35b348015610778575f80fd5b50610793600480360381019061078e9190614f65565b6119c0565b6040516107a09190614f9f565b60405180910390f35b3480156107b4575f80fd5b506107bd611a61565b6040516107ca9190614f4c565b60405180910390f35b3480156107de575f80fd5b506107f960048036038101906107f491906152d8565b611a74565b005b348015610806575f80fd5b50610821600480360381019061081c9190614f65565b611baa565b60405161082e9190614f9f565b60405180910390f35b348015610842575f80fd5b5061084b611bef565b005b348015610858575f80fd5b50610873600480360381019061086e919061534e565b611d42565b005b348015610880575f80fd5b5061089b60048036038101906108969190614f65565b611e10565b6040516108ac95949392919061538c565b60405180910390f35b3480156108c0575f80fd5b506108c9611ec1565b6040516108d994939291906153dd565b60405180910390f35b3480156108ed575f80fd5b5061090860048036038101906109039190614f65565b611ede565b005b348015610915575f80fd5b5061091e612188565b60405161092b9190614f9f565b60405180910390f35b34801561093f575f80fd5b5061095a60048036038101906109559190614f65565b61218e565b005b348015610967575f80fd5b506109706122b7565b60405161097d91906150bf565b60405180910390f35b348015610991575f80fd5b5061099a6122df565b6040516109a791906150bf565b60405180910390f35b3480156109bb575f80fd5b506109d660048036038101906109d19190615420565b612304565b005b3480156109e3575f80fd5b506109ec6123b7565b6040516109f99190614eac565b60405180910390f35b348015610a0d575f80fd5b50610a286004803603810190610a239190614dfe565b612447565b005b348015610a35575f80fd5b50610a506004803603810190610a4b9190614eff565b6124eb565b604051610a5d9190614f4c565b60405180910390f35b348015610a71575f80fd5b50610a8c6004803603810190610a879190614f65565b6125b3565b005b348015610a99575f80fd5b50610aa261268c565b604051610aaf91906150bf565b60405180910390f35b348015610ac3575f80fd5b50610ade6004803603810190610ad99190614f65565b6126b1565b604051610aeb9190614f9f565b60405180910390f35b348015610aff575f80fd5b50610b1a6004803603810190610b159190614eff565b612752565b604051610b279190614f4c565b60405180910390f35b348015610b3b575f80fd5b50610b566004803603810190610b519190614f65565b61276f565b604051610b639190614f4c565b60405180910390f35b348015610b77575f80fd5b50610b926004803603810190610b8d919061544b565b61278c565b005b348015610b9f575f80fd5b50610bba6004803603810190610bb59190614f65565b61283f565b604051610bc79190614f4c565b60405180910390f35b348015610bdb575f80fd5b50610bf66004803603810190610bf19190615476565b61285c565b005b348015610c03575f80fd5b50610c1e6004803603810190610c199190614dfe565b61297d565b005b348015610c2b575f80fd5b50610c466004803603810190610c419190615529565b612b48565b005b348015610c53575f80fd5b50610c6e6004803603810190610c699190614f65565b612cb4565b005b348015610c7b575f80fd5b50610c966004803603810190610c919190615586565b612d8d565b604051610ca39190614f9f565b60405180910390f35b348015610cb7575f80fd5b50610cd26004803603810190610ccd9190615420565b612e0f565b005b348015610cdf575f80fd5b50610ce8612ec2565b005b348015610cf5575f80fd5b50610cfe612fe8565b604051610d0b9190614f9f565b60405180910390f35b348015610d1f575f80fd5b50610d3a6004803603810190610d3591906155c4565b612fee565b005b348015610d47575f80fd5b50610d626004803603810190610d5d9190614f65565b613163565b005b348015610d6f575f80fd5b50610d8a6004803603810190610d8591906155c4565b613325565b005b348015610d97575f80fd5b50610da061349a565b604051610db094939291906153dd565b60405180910390f35b348015610dc4575f80fd5b50610dcd6134b7565b604051610dda9190615648565b60405180910390f35b610deb6134dc565b73ffffffffffffffffffffffffffffffffffffffff1660055f9054906101000a900473ffffffffffffffffffffffffffffffffffffffff1673ffffffffffffffffffffffffffffffffffffffff1614610e79576040517f08c379a0000000000000000000000000000000000000000000000000000000008152600401610e70906156ab565b60405180910390fd5b60085f9054906101000a900473ffffffffffffffffffffffffffffffffffffffff1673ffffffffffffffffffffffffffffffffffffffff16630483f7a083836040518363ffffffff1660e01b8152600401610ed59291906156c9565b5f604051808303815f87803b158015610eec575f80fd5b505af1158015610efe573d5f803e3d5ffd5b505050505050565b606060038054610f159061571d565b80601f0160208091040260200160405190810160405280929190818152602001828054610f419061571d565b8015610f8c5780601f10610f6357610100808354040283529160200191610f8c565b820191905f5260205f20905b815481529060010190602001808311610f6f57829003601f168201915b5050505050905090565b5f610fa9610fa26134dc565b84846134e3565b6001905092915050565b610fbb6134dc565b73ffffffffffffffffffffffffffffffffffffffff1660055f9054906101000a900473ffffffffffffffffffffffffffffffffffffffff1673ffffffffffffffffffffffffffffffffffffffff1614611049576040517f08c379a0000000000000000000000000000000000000000000000000000000008152600401611040906156ab565b60405180910390fd5b8073ffffffffffffffffffffffffffffffffffffffff1663a9059cbb61106d6122b7565b8373ffffffffffffffffffffffffffffffffffffffff166370a08231306040518263ffffffff1660e01b81526004016110a691906150bf565b602060405180830381865afa1580156110c1573d5f803e3d5ffd5b505050506040513d601f19601f820116820180604052508101906110e59190615761565b6040518363ffffffff1660e01b815260040161110292919061578c565b6020604051808303815f875af115801561111e573d5f803e3d5ffd5b505050506040513d601f19601f8201168201806040525081019061114291906157c7565b5050565b61114e6134dc565b73ffffffffffffffffffffffffffffffffffffffff1660055f9054906101000a900473ffffffffffffffffffffffffffffffffffffffff1673ffffffffffffffffffffffffffffffffffffffff16146111dc576040517f08c379a00000000000000000000000000000000000000000000000000000000081526004016111d3906156ab565b60405180910390fd5b600760179054906101000a900460ff161561122c576040517f08c379a00000000000000000000000000000000000000000000000000000000081526004016112239061583c565b60405180910390fd5b6001600760176101000a81548160ff021916908315150217905550565b5f4790506112978160095f9054906101000a900473ffffffffffffffffffffffffffffffffffffffff1673ffffffffffffffffffffffffffffffffffffffff166136a690919063ffffffff16565b50565b5f600254905090565b60175481565b6112b16134dc565b73ffffffffffffffffffffffffffffffffffffffff1660055f9054906101000a900473ffffffffffffffffffffffffffffffffffffffff1673ffffffffffffffffffffffffffffffffffffffff161461133f576040517f08c379a0000000000000000000000000000000000000000000000000000000008152600401611336906156ab565b60405180910390fd5b80600a5f6101000a81548173ffffffffffffffffffffffffffffffffffffffff021916908373ffffffffffffffffffffffffffffffffffffffff16021790555050565b5f61138e848484613796565b61144b8461139a6134dc565b611446856040518060600160405280602881526020016166226028913960015f8b73ffffffffffffffffffffffffffffffffffffffff1673ffffffffffffffffffffffffffffffffffffffff1681526020019081526020015f205f6113fd6134dc565b73ffffffffffffffffffffffffffffffffffffffff1673ffffffffffffffffffffffffffffffffffffffff1681526020019081526020015f20546140bd9092919063ffffffff16565b6134e3565b600190509392505050565b600760169054906101000a900460ff1681565b60085f9054906101000a900473ffffffffffffffffffffffffffffffffffffffff1681565b6114966134dc565b73ffffffffffffffffffffffffffffffffffffffff1660055f9054906101000a900473ffffffffffffffffffffffffffffffffffffffff1673ffffffffffffffffffffffffffffffffffffffff1614611524576040517f08c379a000000000000000000000000000000000000000000000000000000000815260040161151b906156ab565b60405180910390fd5b60085f9054906101000a900473ffffffffffffffffffffffffffffffffffffffff1673ffffffffffffffffffffffffffffffffffffffff166344b6bd9e826040518263ffffffff1660e01b815260040161157e91906150bf565b5f604051808303815f87803b158015611595575f80fd5b505af11580156115a7573d5f803e3d5ffd5b5050505050565b5f60085f9054906101000a900473ffffffffffffffffffffffffffffffffffffffff1673ffffffffffffffffffffffffffffffffffffffff166385a6b3ae6040518163ffffffff1660e01b8152600401602060405180830381865afa158015611619573d5f803e3d5ffd5b505050506040513d601f19601f8201168201806040525081019061163d9190615761565b905090565b5f6012905090565b6116526134dc565b73ffffffffffffffffffffffffffffffffffffffff1660055f9054906101000a900473ffffffffffffffffffffffffffffffffffffffff1673ffffffffffffffffffffffffffffffffffffffff16146116e0576040517f08c379a00000000000000000000000000000000000000000000000000000000081526004016116d7906156ab565b60405180910390fd5b80151560185f8473ffffffffffffffffffffffffffffffffffffffff1673ffffffffffffffffffffffffffffffffffffffff1681526020019081526020015f205f9054906101000a900460ff16151503611738575f80fd5b8060185f8473ffffffffffffffffffffffffffffffffffffffff1673ffffffffffffffffffffffffffffffffffffffff1681526020019081526020015f205f6101000a81548160ff0219169083151502179055505050565b5f61183461179c6134dc565b8461182f8560015f6117ac6134dc565b73ffffffffffffffffffffffffffffffffffffffff1673ffffffffffffffffffffffffffffffffffffffff1681526020019081526020015f205f8973ffffffffffffffffffffffffffffffffffffffff1673ffffffffffffffffffffffffffffffffffffffff1681526020019081526020015f205461411f90919063ffffffff16565b6134e3565b6001905092915050565b60095f9054906101000a900473ffffffffffffffffffffffffffffffffffffffff1681565b60165481565b600760179054906101000a900460ff1681565b600760169054906101000a900460ff166118cb576040517f08c379a00000000000000000000000000000000000000000000000000000000081526004016118c2906158a4565b60405180910390fd5b60085f9054906101000a900473ffffffffffffffffffffffffffffffffffffffff1673ffffffffffffffffffffffffffffffffffffffff1663807ab4f7336040518263ffffffff1660e01b815260040161192591906158e2565b6020604051808303815f875af1158015611941573d5f803e3d5ffd5b505050506040513d601f19601f8201168201806040525081019061196591906157c7565b50565b5f60195f8373ffffffffffffffffffffffffffffffffffffffff1673ffffffffffffffffffffffffffffffffffffffff1681526020019081526020015f205f9054906101000a900460ff169050919050565b600d5481565b5f60085f9054906101000a900473ffffffffffffffffffffffffffffffffffffffff1673ffffffffffffffffffffffffffffffffffffffff166370a08231836040518263ffffffff1660e01b8152600401611a1b91906150bf565b602060405180830381865afa158015611a36573d5f803e3d5ffd5b505050506040513d601f19601f82011682018060405250810190611a5a9190615761565b9050919050565b600760159054906101000a900460ff1681565b611a7c6134dc565b73ffffffffffffffffffffffffffffffffffffffff1660055f9054906101000a900473ffffffffffffffffffffffffffffffffffffffff1673ffffffffffffffffffffffffffffffffffffffff1614611b0a576040517f08c379a0000000000000000000000000000000000000000000000000000000008152600401611b01906156ab565b60405180910390fd5b8051825114611b4e576040517f08c379a0000000000000000000000000000000000000000000000000000000008152600401611b4590615945565b60405180910390fd5b5f5b8251811015611ba557611b9833848381518110611b7057611b6f615963565b5b6020026020010151848481518110611b8b57611b8a615963565b5b602002602001015161417c565b8080600101915050611b50565b505050565b5f805f8373ffffffffffffffffffffffffffffffffffffffff1673ffffffffffffffffffffffffffffffffffffffff1681526020019081526020015f20549050919050565b611bf76134dc565b73ffffffffffffffffffffffffffffffffffffffff1660055f9054906101000a900473ffffffffffffffffffffffffffffffffffffffff1673ffffffffffffffffffffffffffffffffffffffff1614611c85576040517f08c379a0000000000000000000000000000000000000000000000000000000008152600401611c7c906156ab565b60405180910390fd5b5f73ffffffffffffffffffffffffffffffffffffffff1660055f9054906101000a900473ffffffffffffffffffffffffffffffffffffffff1673ffffffffffffffffffffffffffffffffffffffff167f8be0079c531659141344cd1fd0a4f28419497f9722a3daafe3b4186f6b6457e060405160405180910390a35f60055f6101000a81548173ffffffffffffffffffffffffffffffffffffffff021916908373ffffffffffffffffffffffffffffffffffffffff160217905550565b611d4a6134dc565b73ffffffffffffffffffffffffffffffffffffffff1660055f9054906101000a900473ffffffffffffffffffffffffffffffffffffffff1673ffffffffffffffffffffffffffffffffffffffff1614611dd8576040517f08c379a0000000000000000000000000000000000000000000000000000000008152600401611dcf906156ab565b60405180910390fd5b670de0b6b3a764000082611dec91906159bd565b600c81905550670de0b6b3a764000081611e0691906159bd565b600d819055505050565b5f805f805f60085f9054906101000a900473ffffffffffffffffffffffffffffffffffffffff1673ffffffffffffffffffffffffffffffffffffffff1663fbcbc0f1876040518263ffffffff1660e01b8152600401611e6f91906150bf565b60a060405180830381865afa158015611e8a573d5f803e3d5ffd5b505050506040513d601f19601f82011682018060405250810190611eae9190615a12565b9450945094509450945091939590929450565b600e805f0154908060010154908060020154908060030154905084565b611ee66134dc565b73ffffffffffffffffffffffffffffffffffffffff1660055f9054906101000a900473ffffffffffffffffffffffffffffffffffffffff1673ffffffffffffffffffffffffffffffffffffffff1614611f74576040517f08c379a0000000000000000000000000000000000000000000000000000000008152600401611f6b906156ab565b60405180910390fd5b5f8190508073ffffffffffffffffffffffffffffffffffffffff16630483f7a08260016040518363ffffffff1660e01b8152600401611fb49291906156c9565b5f604051808303815f87803b158015611fcb575f80fd5b505af1158015611fdd573d5f803e3d5ffd5b505050508073ffffffffffffffffffffffffffffffffffffffff16630483f7a03060016040518363ffffffff1660e01b815260040161201d9291906156c9565b5f604051808303815f87803b158015612034575f80fd5b505af1158015612046573d5f803e3d5ffd5b505050508073ffffffffffffffffffffffffffffffffffffffff16630483f7a061206e6122b7565b60016040518363ffffffff1660e01b815260040161208d9291906156c9565b5f604051808303815f87803b1580156120a4575f80fd5b505af11580156120b6573d5f803e3d5ffd5b505050508073ffffffffffffffffffffffffffffffffffffffff16630483f7a060065f9054906101000a900473ffffffffffffffffffffffffffffffffffffffff1660016040518363ffffffff1660e01b81526004016121179291906156c9565b5f604051808303815f87803b15801561212e575f80fd5b505af1158015612140573d5f803e3d5ffd5b505050508060085f6101000a81548173ffffffffffffffffffffffffffffffffffffffff021916908373ffffffffffffffffffffffffffffffffffffffff1602179055505050565b600c5481565b6121966134dc565b73ffffffffffffffffffffffffffffffffffffffff1660055f9054906101000a900473ffffffffffffffffffffffffffffffffffffffff1673ffffffffffffffffffffffffffffffffffffffff1614612224576040517f08c379a000000000000000000000000000000000000000000000000000000000815260040161221b906156ab565b60405180910390fd5b60085f9054906101000a900473ffffffffffffffffffffffffffffffffffffffff1673ffffffffffffffffffffffffffffffffffffffff1663497ec8236122696122b7565b836040518363ffffffff1660e01b8152600401612287929190615a89565b5f604051808303815f87803b15801561229e575f80fd5b505af11580156122b0573d5f803e3d5ffd5b5050505050565b5f60055f9054906101000a900473ffffffffffffffffffffffffffffffffffffffff16905090565b600a5f9054906101000a900473ffffffffffffffffffffffffffffffffffffffff1681565b61230c6134dc565b73ffffffffffffffffffffffffffffffffffffffff1660055f9054906101000a900473ffffffffffffffffffffffffffffffffffffffff1673ffffffffffffffffffffffffffffffffffffffff161461239a576040517f08c379a0000000000000000000000000000000000000000000000000000000008152600401612391906156ab565b60405180910390fd5b80600760166101000a81548160ff02191690831515021790555050565b6060600480546123c69061571d565b80601f01602080910402602001604051908101604052809291908181526020018280546123f29061571d565b801561243d5780601f106124145761010080835404028352916020019161243d565b820191905f5260205f20905b81548152906001019060200180831161242057829003601f168201915b5050505050905090565b61244f6134dc565b73ffffffffffffffffffffffffffffffffffffffff1660055f9054906101000a900473ffffffffffffffffffffffffffffffffffffffff1673ffffffffffffffffffffffffffffffffffffffff16146124dd576040517f08c379a00000000000000000000000000000000000000000000000000000000081526004016124d4906156ab565b60405180910390fd5b6124e78282614405565b5050565b5f6125a96124f76134dc565b846125a48560405180606001604052806025815260200161664a6025913960015f6125206134dc565b73ffffffffffffffffffffffffffffffffffffffff1673ffffffffffffffffffffffffffffffffffffffff1681526020019081526020015f205f8a73ffffffffffffffffffffffffffffffffffffffff1673ffffffffffffffffffffffffffffffffffffffff1681526020019081526020015f20546140bd9092919063ffffffff16565b6134e3565b6001905092915050565b6125bb6134dc565b73ffffffffffffffffffffffffffffffffffffffff1660055f9054906101000a900473ffffffffffffffffffffffffffffffffffffffff1673ffffffffffffffffffffffffffffffffffffffff1614612649576040517f08c379a0000000000000000000000000000000000000000000000000000000008152600401612640906156ab565b60405180910390fd5b8060095f6101000a81548173ffffffffffffffffffffffffffffffffffffffff021916908373ffffffffffffffffffffffffffffffffffffffff16021790555050565b60075f9054906101000a900473ffffffffffffffffffffffffffffffffffffffff1681565b5f60085f9054906101000a900473ffffffffffffffffffffffffffffffffffffffff1673ffffffffffffffffffffffffffffffffffffffff1663a8b9d240836040518263ffffffff1660e01b815260040161270c91906150bf565b602060405180830381865afa158015612727573d5f803e3d5ffd5b505050506040513d601f19601f8201168201806040525081019061274b9190615761565b9050919050565b5f61276561275e6134dc565b8484613796565b6001905092915050565b6018602052805f5260405f205f915054906101000a900460ff1681565b6127946134dc565b73ffffffffffffffffffffffffffffffffffffffff1660055f9054906101000a900473ffffffffffffffffffffffffffffffffffffffff1673ffffffffffffffffffffffffffffffffffffffff1614612822576040517f08c379a0000000000000000000000000000000000000000000000000000000008152600401612819906156ab565b60405180910390fd5b670de0b6b3a76400008161283691906159bd565b600b8190555050565b601a602052805f5260405f205f915054906101000a900460ff1681565b6128646134dc565b73ffffffffffffffffffffffffffffffffffffffff1660055f9054906101000a900473ffffffffffffffffffffffffffffffffffffffff1673ffffffffffffffffffffffffffffffffffffffff16146128f2576040517f08c379a00000000000000000000000000000000000000000000000000000000081526004016128e9906156ab565b60405180910390fd5b5f5b8251811015612978578160185f85848151811061291457612913615963565b5b602002602001015173ffffffffffffffffffffffffffffffffffffffff1673ffffffffffffffffffffffffffffffffffffffff1681526020019081526020015f205f6101000a81548160ff02191690831515021790555080806001019150506128f4565b505050565b6129856134dc565b73ffffffffffffffffffffffffffffffffffffffff1660055f9054906101000a900473ffffffffffffffffffffffffffffffffffffffff1673ffffffffffffffffffffffffffffffffffffffff1614612a13576040517f08c379a0000000000000000000000000000000000000000000000000000000008152600401612a0a906156ab565b60405180910390fd5b80151560195f8473ffffffffffffffffffffffffffffffffffffffff1673ffffffffffffffffffffffffffffffffffffffff1681526020019081526020015f205f9054906101000a900460ff16151503612aa2576040517f08c379a0000000000000000000000000000000000000000000000000000000008152600401612a9990615b20565b60405180910390fd5b8060195f8473ffffffffffffffffffffffffffffffffffffffff1673ffffffffffffffffffffffffffffffffffffffff1681526020019081526020015f205f6101000a81548160ff0219169083151502179055508173ffffffffffffffffffffffffffffffffffffffff167f9d8f7706ea1113d1a167b526eca956215946dd36cc7df39eb16180222d8b5df782604051612b3c9190614f4c565b60405180910390a25050565b612b506134dc565b73ffffffffffffffffffffffffffffffffffffffff1660055f9054906101000a900473ffffffffffffffffffffffffffffffffffffffff1673ffffffffffffffffffffffffffffffffffffffff1614612bde576040517f08c379a0000000000000000000000000000000000000000000000000000000008152600401612bd5906156ab565b60405180910390fd5b5f5b83839050811015612c73578160195f868685818110612c0257612c01615963565b5b9050602002016020810190612c179190614f65565b73ffffffffffffffffffffffffffffffffffffffff1673ffffffffffffffffffffffffffffffffffffffff1681526020019081526020015f205f6101000a81548160ff0219169083151502179055508080600101915050612be0565b507f7fdaf542373fa84f4ee8d662c642f44e4c2276a217d7d29e548b6eb29a233b35838383604051612ca793929190615bfa565b60405180910390a1505050565b612cbc6134dc565b73ffffffffffffffffffffffffffffffffffffffff1660055f9054906101000a900473ffffffffffffffffffffffffffffffffffffffff1673ffffffffffffffffffffffffffffffffffffffff1614612d4a576040517f08c379a0000000000000000000000000000000000000000000000000000000008152600401612d41906156ab565b60405180910390fd5b8060065f6101000a81548173ffffffffffffffffffffffffffffffffffffffff021916908373ffffffffffffffffffffffffffffffffffffffff16021790555050565b5f60015f8473ffffffffffffffffffffffffffffffffffffffff1673ffffffffffffffffffffffffffffffffffffffff1681526020019081526020015f205f8373ffffffffffffffffffffffffffffffffffffffff1673ffffffffffffffffffffffffffffffffffffffff1681526020019081526020015f2054905092915050565b612e176134dc565b73ffffffffffffffffffffffffffffffffffffffff1660055f9054906101000a900473ffffffffffffffffffffffffffffffffffffffff1673ffffffffffffffffffffffffffffffffffffffff1614612ea5576040517f08c379a0000000000000000000000000000000000000000000000000000000008152600401612e9c906156ab565b60405180910390fd5b80600760156101000a81548160ff02191690831515021790555050565b612eca6134dc565b73ffffffffffffffffffffffffffffffffffffffff1660055f9054906101000a900473ffffffffffffffffffffffffffffffffffffffff1673ffffffffffffffffffffffffffffffffffffffff1614612f58576040517f08c379a0000000000000000000000000000000000000000000000000000000008152600401612f4f906156ab565b60405180910390fd5b60085f9054906101000a900473ffffffffffffffffffffffffffffffffffffffff1673ffffffffffffffffffffffffffffffffffffffff16633b36a1d7612f9d6122b7565b6040518263ffffffff1660e01b8152600401612fb991906150bf565b5f604051808303815f87803b158015612fd0575f80fd5b505af1158015612fe2573d5f803e3d5ffd5b50505050565b600b5481565b612ff66134dc565b73ffffffffffffffffffffffffffffffffffffffff1660055f9054906101000a900473ffffffffffffffffffffffffffffffffffffffff1673ffffffffffffffffffffffffffffffffffffffff1614613084576040517f08c379a000000000000000000000000000000000000000000000000000000000815260040161307b906156ab565b60405180910390fd5b6014818385876130949190615c2a565b61309e9190615c2a565b6130a89190615c2a565b11156130e9576040517f08c379a00000000000000000000000000000000000000000000000000000000081526004016130e090615ca7565b60405180910390fd5b604051806080016040528085815260200184815260200183815260200182815250600e5f820151815f0155602082015181600101556040820151816002015560608201518160030155905050808284866131439190615c2a565b61314d9190615c2a565b6131579190615c2a565b60168190555050505050565b61316b6134dc565b73ffffffffffffffffffffffffffffffffffffffff1660055f9054906101000a900473ffffffffffffffffffffffffffffffffffffffff1673ffffffffffffffffffffffffffffffffffffffff16146131f9576040517f08c379a00000000000000000000000000000000000000000000000000000000081526004016131f0906156ab565b60405180910390fd5b5f73ffffffffffffffffffffffffffffffffffffffff168173ffffffffffffffffffffffffffffffffffffffff1603613267576040517f08c379a000000000000000000000000000000000000000000000000000000000815260040161325e90615d35565b60405180910390fd5b8073ffffffffffffffffffffffffffffffffffffffff1660055f9054906101000a900473ffffffffffffffffffffffffffffffffffffffff1673ffffffffffffffffffffffffffffffffffffffff167f8be0079c531659141344cd1fd0a4f28419497f9722a3daafe3b4186f6b6457e060405160405180910390a38060055f6101000a81548173ffffffffffffffffffffffffffffffffffffffff021916908373ffffffffffffffffffffffffffffffffffffffff16021790555050565b61332d6134dc565b73ffffffffffffffffffffffffffffffffffffffff1660055f9054906101000a900473ffffffffffffffffffffffffffffffffffffffff1673ffffffffffffffffffffffffffffffffffffffff16146133bb576040517f08c379a00000000000000000000000000000000000000000000000000000000081526004016133b2906156ab565b60405180910390fd5b6014818385876133cb9190615c2a565b6133d59190615c2a565b6133df9190615c2a565b1115613420576040517f08c379a000000000000000000000000000000000000000000000000000000000815260040161341790615ca7565b60405180910390fd5b60405180608001604052808581526020018481526020018381526020018281525060125f820151815f01556020820151816001015560408201518160020155606082015181600301559050508082848661347a9190615c2a565b6134849190615c2a565b61348e9190615c2a565b60178190555050505050565b6012805f0154908060010154908060020154908060030154905084565b60065f9054906101000a900473ffffffffffffffffffffffffffffffffffffffff1681565b5f33905090565b5f73ffffffffffffffffffffffffffffffffffffffff168373ffffffffffffffffffffffffffffffffffffffff1603613551576040517f08c379a000000000000000000000000000000000000000000000000000000000815260040161354890615dc3565b60405180910390fd5b5f73ffffffffffffffffffffffffffffffffffffffff168273ffffffffffffffffffffffffffffffffffffffff16036135bf576040517f08c379a00000000000000000000000000000000000000000000000000000000081526004016135b690615e51565b60405180910390fd5b8060015f8573ffffffffffffffffffffffffffffffffffffffff1673ffffffffffffffffffffffffffffffffffffffff1681526020019081526020015f205f8473ffffffffffffffffffffffffffffffffffffffff1673ffffffffffffffffffffffffffffffffffffffff1681526020019081526020015f20819055508173ffffffffffffffffffffffffffffffffffffffff168373ffffffffffffffffffffffffffffffffffffffff167f8c5be1e5ebec7d5bd14f71427d1e84f3dd0314c0f7b2291e5b200ac8c7c3b925836040516136999190614f9f565b60405180910390a3505050565b804710156136e9576040517f08c379a00000000000000000000000000000000000000000000000000000000081526004016136e090615eb9565b60405180910390fd5b5f8273ffffffffffffffffffffffffffffffffffffffff168260405161370e90615f04565b5f6040518083038185875af1925050503d805f8114613748576040519150601f19603f3d011682016040523d82523d5f602084013e61374d565b606091505b5050905080613791576040517f08c379a000000000000000000000000000000000000000000000000000000000815260040161378890615f88565b60405180910390fd5b505050565b5f73ffffffffffffffffffffffffffffffffffffffff168373ffffffffffffffffffffffffffffffffffffffff1603613804576040517f08c379a00000000000000000000000000000000000000000000000000000000081526004016137fb90616016565b60405180910390fd5b5f73ffffffffffffffffffffffffffffffffffffffff168273ffffffffffffffffffffffffffffffffffffffff1603613872576040517f08c379a0000000000000000000000000000000000000000000000000000000008152600401613869906160a4565b60405180910390fd5b60195f8473ffffffffffffffffffffffffffffffffffffffff1673ffffffffffffffffffffffffffffffffffffffff1681526020019081526020015f205f9054906101000a900460ff16158015613910575060195f8373ffffffffffffffffffffffffffffffffffffffff1673ffffffffffffffffffffffffffffffffffffffff1681526020019081526020015f205f9054906101000a900460ff16155b80156139295750600760149054906101000a900460ff16155b15613b8a57600760179054906101000a900460ff1661397d576040517f08c379a00000000000000000000000000000000000000000000000000000000081526004016139749061610c565b60405180910390fd5b60185f8473ffffffffffffffffffffffffffffffffffffffff1673ffffffffffffffffffffffffffffffffffffffff1681526020019081526020015f205f9054906101000a900460ff16158015613a1b575060185f8373ffffffffffffffffffffffffffffffffffffffff1673ffffffffffffffffffffffffffffffffffffffff1681526020019081526020015f205f9054906101000a900460ff16155b613a5a576040517f08c379a0000000000000000000000000000000000000000000000000000000008152600401613a5190616174565b60405180910390fd5b601a5f8373ffffffffffffffffffffffffffffffffffffffff1673ffffffffffffffffffffffffffffffffffffffff1681526020019081526020015f205f9054906101000a900460ff1615613af357600d54811115613aee576040517f08c379a0000000000000000000000000000000000000000000000000000000008152600401613ae5906161dc565b60405180910390fd5b613b89565b601a5f8473ffffffffffffffffffffffffffffffffffffffff1673ffffffffffffffffffffffffffffffffffffffff1681526020019081526020015f205f9054906101000a900460ff1615613b8857600c54811115613b87576040517f08c379a0000000000000000000000000000000000000000000000000000000008152600401613b7e90616244565b60405180910390fd5b5b5b5b5f8103613ba157613b9c83835f61417c565b6140b8565b5f613bab30611baa565b90505f600b548210159050808015613bd05750600760149054906101000a900460ff16155b8015613be85750600760159054906101000a900460ff165b8015613c3a5750601a5f8573ffffffffffffffffffffffffffffffffffffffff1673ffffffffffffffffffffffffffffffffffffffff1681526020019081526020015f205f9054906101000a900460ff165b8015613c8d575060195f8673ffffffffffffffffffffffffffffffffffffffff1673ffffffffffffffffffffffffffffffffffffffff1681526020019081526020015f205f9054906101000a900460ff16155b8015613ce0575060195f8573ffffffffffffffffffffffffffffffffffffffff1673ffffffffffffffffffffffffffffffffffffffff1681526020019081526020015f205f9054906101000a900460ff16155b15613d31576001600760146101000a81548160ff0219169083151502179055505f6017541115613d1657613d15600b546145c3565b5b5f600760146101000a81548160ff0219169083151502179055505b5f600760149054906101000a900460ff1615905060195f8773ffffffffffffffffffffffffffffffffffffffff1673ffffffffffffffffffffffffffffffffffffffff1681526020019081526020015f205f9054906101000a900460ff1680613de0575060195f8673ffffffffffffffffffffffffffffffffffffffff1673ffffffffffffffffffffffffffffffffffffffff1681526020019081526020015f205f9054906101000a900460ff165b15613de9575f90505b601a5f8673ffffffffffffffffffffffffffffffffffffffff1673ffffffffffffffffffffffffffffffffffffffff1681526020019081526020015f205f9054906101000a900460ff16158015613e875750601a5f8773ffffffffffffffffffffffffffffffffffffffff1673ffffffffffffffffffffffffffffffffffffffff1681526020019081526020015f205f9054906101000a900460ff16155b15613e90575f90505b8015613f8f575f601a5f8773ffffffffffffffffffffffffffffffffffffffff1673ffffffffffffffffffffffffffffffffffffffff1681526020019081526020015f205f9054906101000a900460ff1615613f0757606460175486613ef691906159bd565b613f00919061628f565b9050613f74565b601a5f8873ffffffffffffffffffffffffffffffffffffffff1673ffffffffffffffffffffffffffffffffffffffff1681526020019081526020015f205f9054906101000a900460ff1615613f7357606460165486613f6691906159bd565b613f70919061628f565b90505b5b8085613f8091906162bf565b9450613f8d87308361417c565b505b613f9a86868661417c565b60085f9054906101000a900473ffffffffffffffffffffffffffffffffffffffff1673ffffffffffffffffffffffffffffffffffffffff1663e30443bc87613fe189611baa565b6040518363ffffffff1660e01b8152600401613ffe92919061578c565b5f604051808303815f87803b158015614015575f80fd5b505af1925050508015614026575060015b5060085f9054906101000a900473ffffffffffffffffffffffffffffffffffffffff1673ffffffffffffffffffffffffffffffffffffffff1663e30443bc8661406e88611baa565b6040518363ffffffff1660e01b815260040161408b92919061578c565b5f604051808303815f87803b1580156140a2575f80fd5b505af19250505080156140b3575060015b505050505b505050565b5f838311158290614104576040517f08c379a00000000000000000000000000000000000000000000000000000000081526004016140fb9190614eac565b60405180910390fd5b505f838561411291906162bf565b9050809150509392505050565b5f80828461412d9190615c2a565b905083811015614172576040517f08c379a00000000000000000000000000000000000000000000000000000000081526004016141699061633c565b60405180910390fd5b8091505092915050565b5f73ffffffffffffffffffffffffffffffffffffffff168373ffffffffffffffffffffffffffffffffffffffff16036141ea576040517f08c379a00000000000000000000000000000000000000000000000000000000081526004016141e190616016565b60405180910390fd5b5f73ffffffffffffffffffffffffffffffffffffffff168273ffffffffffffffffffffffffffffffffffffffff1603614258576040517f08c379a000000000000000000000000000000000000000000000000000000000815260040161424f906160a4565b60405180910390fd5b614263838383614a4a565b6142cc816040518060600160405280602681526020016165fc602691395f808773ffffffffffffffffffffffffffffffffffffffff1673ffffffffffffffffffffffffffffffffffffffff1681526020019081526020015f20546140bd9092919063ffffffff16565b5f808573ffffffffffffffffffffffffffffffffffffffff1673ffffffffffffffffffffffffffffffffffffffff1681526020019081526020015f208190555061435b815f808573ffffffffffffffffffffffffffffffffffffffff1673ffffffffffffffffffffffffffffffffffffffff1681526020019081526020015f205461411f90919063ffffffff16565b5f808473ffffffffffffffffffffffffffffffffffffffff1673ffffffffffffffffffffffffffffffffffffffff1681526020019081526020015f20819055508173ffffffffffffffffffffffffffffffffffffffff168373ffffffffffffffffffffffffffffffffffffffff167fddf252ad1be2c89b69c2b068fc378daa952ba7f163c4a11628f55a4df523b3ef836040516143f89190614f9f565b60405180910390a3505050565b801515601a5f8473ffffffffffffffffffffffffffffffffffffffff1673ffffffffffffffffffffffffffffffffffffffff1681526020019081526020015f205f9054906101000a900460ff16151503614494576040517f08c379a000000000000000000000000000000000000000000000000000000000815260040161448b906163ca565b60405180910390fd5b80601a5f8473ffffffffffffffffffffffffffffffffffffffff1673ffffffffffffffffffffffffffffffffffffffff1681526020019081526020015f205f6101000a81548160ff02191690831515021790555080156145795760085f9054906101000a900473ffffffffffffffffffffffffffffffffffffffff1673ffffffffffffffffffffffffffffffffffffffff16630483f7a08360016040518363ffffffff1660e01b815260040161454b9291906156c9565b5f604051808303815f87803b158015614562575f80fd5b505af1158015614574573d5f803e3d5ffd5b505050505b8015158273ffffffffffffffffffffffffffffffffffffffff167fffa9187bf1f18bf477bd0ea1bcbb64e93b6a98132473929edfce215cd9b16fab60405160405180910390a35050565b5f6002826145d1919061628f565b90505f81836145e091906162bf565b90505f4790506145ef82614a4f565b5f81476145fc91906162bf565b90505f811115614611576146108482614c85565b5b5f60075f9054906101000a900473ffffffffffffffffffffffffffffffffffffffff1673ffffffffffffffffffffffffffffffffffffffff166370a08231306040518263ffffffff1660e01b815260040161466c91906150bf565b602060405180830381865afa158015614687573d5f803e3d5ffd5b505050506040513d601f19601f820116820180604052508101906146ab9190615761565b90505f6012600201546017546146c191906162bf565b90505f81601260010154846146d691906159bd565b6146e0919061628f565b90505f8111156147a95760075f9054906101000a900473ffffffffffffffffffffffffffffffffffffffff1673ffffffffffffffffffffffffffffffffffffffff1663a9059cbb60095f9054906101000a900473ffffffffffffffffffffffffffffffffffffffff16836040518363ffffffff1660e01b815260040161476792919061578c565b6020604051808303815f875af1158015614783573d5f803e3d5ffd5b505050506040513d601f19601f820116820180604052508101906147a791906157c7565b505b5f82601260030154856147bc91906159bd565b6147c6919061628f565b90505f81111561488f5760075f9054906101000a900473ffffffffffffffffffffffffffffffffffffffff1673ffffffffffffffffffffffffffffffffffffffff1663a9059cbb600a5f9054906101000a900473ffffffffffffffffffffffffffffffffffffffff16836040518363ffffffff1660e01b815260040161484d92919061578c565b6020604051808303815f875af1158015614869573d5f803e3d5ffd5b505050506040513d601f19601f8201168201806040525081019061488d91906157c7565b505b5f8360125f0154866148a191906159bd565b6148ab919061628f565b90505f811115614a3e575f60075f9054906101000a900473ffffffffffffffffffffffffffffffffffffffff1673ffffffffffffffffffffffffffffffffffffffff1663a9059cbb60085f9054906101000a900473ffffffffffffffffffffffffffffffffffffffff16846040518363ffffffff1660e01b815260040161493392919061578c565b6020604051808303815f875af115801561494f573d5f803e3d5ffd5b505050506040513d601f19601f8201168201806040525081019061497391906157c7565b90508015614a3c5760085f9054906101000a900473ffffffffffffffffffffffffffffffffffffffff1673ffffffffffffffffffffffffffffffffffffffff1663ede6ad9c836040518263ffffffff1660e01b81526004016149d59190614f9f565b5f604051808303815f87803b1580156149ec575f80fd5b505af11580156149fe573d5f803e3d5ffd5b505050507f80195cc573b02cc48460cbca6e6e4cc85ddb91959d946e1c3025ea3d87942dc38b83604051614a339291906163e8565b60405180910390a15b505b50505050505050505050565b505050565b5f600267ffffffffffffffff811115614a6b57614a6a6150dc565b5b604051908082528060200260200182016040528015614a995781602001602082028036833780820191505090505b50905030815f81518110614ab057614aaf615963565b5b602002602001019073ffffffffffffffffffffffffffffffffffffffff16908173ffffffffffffffffffffffffffffffffffffffff168152505060065f9054906101000a900473ffffffffffffffffffffffffffffffffffffffff1673ffffffffffffffffffffffffffffffffffffffff1663ad5c46486040518163ffffffff1660e01b8152600401602060405180830381865afa158015614b54573d5f803e3d5ffd5b505050506040513d601f19601f82011682018060405250810190614b78919061640f565b81600181518110614b8c57614b8b615963565b5b602002602001019073ffffffffffffffffffffffffffffffffffffffff16908173ffffffffffffffffffffffffffffffffffffffff1681525050614bf23060065f9054906101000a900473ffffffffffffffffffffffffffffffffffffffff16846134e3565b60065f9054906101000a900473ffffffffffffffffffffffffffffffffffffffff1673ffffffffffffffffffffffffffffffffffffffff1663791ac947835f8430426040518663ffffffff1660e01b8152600401614c549594939291906164f4565b5f604051808303815f87803b158015614c6b575f80fd5b505af1158015614c7d573d5f803e3d5ffd5b505050505050565b614cb13060065f9054906101000a900473ffffffffffffffffffffffffffffffffffffffff16846134e3565b60065f9054906101000a900473ffffffffffffffffffffffffffffffffffffffff1673ffffffffffffffffffffffffffffffffffffffff1663f305d7198230855f8030426040518863ffffffff1660e01b8152600401614d169695949392919061654c565b60606040518083038185885af1158015614d32573d5f803e3d5ffd5b50505050506040513d601f19601f82011682018060405250810190614d5791906165ab565b5050505050565b5f604051905090565b5f80fd5b5f80fd5b5f73ffffffffffffffffffffffffffffffffffffffff82169050919050565b5f614d9882614d6f565b9050919050565b614da881614d8e565b8114614db2575f80fd5b50565b5f81359050614dc381614d9f565b92915050565b5f8115159050919050565b614ddd81614dc9565b8114614de7575f80fd5b50565b5f81359050614df881614dd4565b92915050565b5f8060408385031215614e1457614e13614d67565b5b5f614e2185828601614db5565b9250506020614e3285828601614dea565b9150509250929050565b5f81519050919050565b5f82825260208201905092915050565b8281835e5f83830152505050565b5f601f19601f8301169050919050565b5f614e7e82614e3c565b614e888185614e46565b9350614e98818560208601614e56565b614ea181614e64565b840191505092915050565b5f6020820190508181035f830152614ec48184614e74565b905092915050565b5f819050919050565b614ede81614ecc565b8114614ee8575f80fd5b50565b5f81359050614ef981614ed5565b92915050565b5f8060408385031215614f1557614f14614d67565b5b5f614f2285828601614db5565b9250506020614f3385828601614eeb565b9150509250929050565b614f4681614dc9565b82525050565b5f602082019050614f5f5f830184614f3d565b92915050565b5f60208284031215614f7a57614f79614d67565b5b5f614f8784828501614db5565b91505092915050565b614f9981614ecc565b82525050565b5f602082019050614fb25f830184614f90565b92915050565b5f805f60608486031215614fcf57614fce614d67565b5b5f614fdc86828701614db5565b9350506020614fed86828701614db5565b9250506040614ffe86828701614eeb565b9150509250925092565b5f819050919050565b5f61502b61502661502184614d6f565b615008565b614d6f565b9050919050565b5f61503c82615011565b9050919050565b5f61504d82615032565b9050919050565b61505d81615043565b82525050565b5f6020820190506150765f830184615054565b92915050565b5f60ff82169050919050565b6150918161507c565b82525050565b5f6020820190506150aa5f830184615088565b92915050565b6150b981614d8e565b82525050565b5f6020820190506150d25f8301846150b0565b92915050565b5f80fd5b7f4e487b71000000000000000000000000000000000000000000000000000000005f52604160045260245ffd5b61511282614e64565b810181811067ffffffffffffffff82111715615131576151306150dc565b5b80604052505050565b5f615143614d5e565b905061514f8282615109565b919050565b5f67ffffffffffffffff82111561516e5761516d6150dc565b5b602082029050602081019050919050565b5f80fd5b5f61519561519084615154565b61513a565b905080838252602082019050602084028301858111156151b8576151b761517f565b5b835b818110156151e157806151cd8882614db5565b8452602084019350506020810190506151ba565b5050509392505050565b5f82601f8301126151ff576151fe6150d8565b5b813561520f848260208601615183565b91505092915050565b5f67ffffffffffffffff821115615232576152316150dc565b5b602082029050602081019050919050565b5f61525561525084615218565b61513a565b905080838252602082019050602084028301858111156152785761527761517f565b5b835b818110156152a1578061528d8882614eeb565b84526020840193505060208101905061527a565b5050509392505050565b5f82601f8301126152bf576152be6150d8565b5b81356152cf848260208601615243565b91505092915050565b5f80604083850312156152ee576152ed614d67565b5b5f83013567ffffffffffffffff81111561530b5761530a614d6b565b5b615317858286016151eb565b925050602083013567ffffffffffffffff81111561533857615337614d6b565b5b615344858286016152ab565b9150509250929050565b5f806040838503121561536457615363614d67565b5b5f61537185828601614eeb565b925050602061538285828601614eeb565b9150509250929050565b5f60a08201905061539f5f8301886150b0565b6153ac6020830187614f90565b6153b96040830186614f90565b6153c66060830185614f90565b6153d36080830184614f90565b9695505050505050565b5f6080820190506153f05f830187614f90565b6153fd6020830186614f90565b61540a6040830185614f90565b6154176060830184614f90565b95945050505050565b5f6020828403121561543557615434614d67565b5b5f61544284828501614dea565b91505092915050565b5f602082840312156154605761545f614d67565b5b5f61546d84828501614eeb565b91505092915050565b5f806040838503121561548c5761548b614d67565b5b5f83013567ffffffffffffffff8111156154a9576154a8614d6b565b5b6154b5858286016151eb565b92505060206154c685828601614dea565b9150509250929050565b5f80fd5b5f8083601f8401126154e9576154e86150d8565b5b8235905067ffffffffffffffff811115615506576155056154d0565b5b6020830191508360208202830111156155225761552161517f565b5b9250929050565b5f805f604084860312156155405761553f614d67565b5b5f84013567ffffffffffffffff81111561555d5761555c614d6b565b5b615569868287016154d4565b9350935050602061557c86828701614dea565b9150509250925092565b5f806040838503121561559c5761559b614d67565b5b5f6155a985828601614db5565b92505060206155ba85828601614db5565b9150509250929050565b5f805f80608085870312156155dc576155db614d67565b5b5f6155e987828801614eeb565b94505060206155fa87828801614eeb565b935050604061560b87828801614eeb565b925050606061561c87828801614eeb565b91505092959194509250565b5f61563282615032565b9050919050565b61564281615628565b82525050565b5f60208201905061565b5f830184615639565b92915050565b7f4f776e61626c653a2063616c6c6572206973206e6f7420746865206f776e65725f82015250565b5f615695602083614e46565b91506156a082615661565b602082019050919050565b5f6020820190508181035f8301526156c281615689565b9050919050565b5f6040820190506156dc5f8301856150b0565b6156e96020830184614f3d565b9392505050565b7f4e487b71000000000000000000000000000000000000000000000000000000005f52602260045260245ffd5b5f600282049050600182168061573457607f821691505b602082108103615747576157466156f0565b5b50919050565b5f8151905061575b81614ed5565b92915050565b5f6020828403121561577657615775614d67565b5b5f6157838482850161574d565b91505092915050565b5f60408201905061579f5f8301856150b0565b6157ac6020830184614f90565b9392505050565b5f815190506157c181614dd4565b92915050565b5f602082840312156157dc576157db614d67565b5b5f6157e9848285016157b3565b91505092915050565b7f54726164696e6720616c726561647920656e61626c65640000000000000000005f82015250565b5f615826601783614e46565b9150615831826157f2565b602082019050919050565b5f6020820190508181035f8301526158538161581a565b9050919050565b7f436c61696d206e6f7420656e61626c65640000000000000000000000000000005f82015250565b5f61588e601183614e46565b91506158998261585a565b602082019050919050565b5f6020820190508181035f8301526158bb81615882565b9050919050565b5f6158cc82614d6f565b9050919050565b6158dc816158c2565b82525050565b5f6020820190506158f55f8301846158d3565b92915050565b7f417272617973206d75737420686176652073616d652073697a650000000000005f82015250565b5f61592f601a83614e46565b915061593a826158fb565b602082019050919050565b5f6020820190508181035f83015261595c81615923565b9050919050565b7f4e487b71000000000000000000000000000000000000000000000000000000005f52603260045260245ffd5b7f4e487b71000000000000000000000000000000000000000000000000000000005f52601160045260245ffd5b5f6159c782614ecc565b91506159d283614ecc565b92508282026159e081614ecc565b915082820484148315176159f7576159f6615990565b5b5092915050565b5f81519050615a0c81614d9f565b92915050565b5f805f805f60a08688031215615a2b57615a2a614d67565b5b5f615a38888289016159fe565b9550506020615a498882890161574d565b9450506040615a5a8882890161574d565b9350506060615a6b8882890161574d565b9250506080615a7c8882890161574d565b9150509295509295909350565b5f604082019050615a9c5f8301856150b0565b615aa960208301846150b0565b9392505050565b7f564952414c3a204163636f756e7420697320616c7265616479207468652076615f8201527f6c7565206f6620276578636c7564656427000000000000000000000000000000602082015250565b5f615b0a603183614e46565b9150615b1582615ab0565b604082019050919050565b5f6020820190508181035f830152615b3781615afe565b9050919050565b5f82825260208201905092915050565b5f819050919050565b615b6081614d8e565b82525050565b5f615b718383615b57565b60208301905092915050565b5f615b8b6020840184614db5565b905092915050565b5f602082019050919050565b5f615baa8385615b3e565b9350615bb582615b4e565b805f5b85811015615bed57615bca8284615b7d565b615bd48882615b66565b9750615bdf83615b93565b925050600181019050615bb8565b5085925050509392505050565b5f6040820190508181035f830152615c13818587615b9f565b9050615c226020830184614f3d565b949350505050565b5f615c3482614ecc565b9150615c3f83614ecc565b9250828201905080821115615c5757615c56615990565b5b92915050565b7f466565206d757374206265203c3d2032302500000000000000000000000000005f82015250565b5f615c91601283614e46565b9150615c9c82615c5d565b602082019050919050565b5f6020820190508181035f830152615cbe81615c85565b9050919050565b7f4f776e61626c653a206e6577206f776e657220697320746865207a65726f20615f8201527f6464726573730000000000000000000000000000000000000000000000000000602082015250565b5f615d1f602683614e46565b9150615d2a82615cc5565b604082019050919050565b5f6020820190508181035f830152615d4c81615d13565b9050919050565b7f45524332303a20617070726f76652066726f6d20746865207a65726f206164645f8201527f7265737300000000000000000000000000000000000000000000000000000000602082015250565b5f615dad602483614e46565b9150615db882615d53565b604082019050919050565b5f6020820190508181035f830152615dda81615da1565b9050919050565b7f45524332303a20617070726f766520746f20746865207a65726f2061646472655f8201527f7373000000000000000000000000000000000000000000000000000000000000602082015250565b5f615e3b602283614e46565b9150615e4682615de1565b604082019050919050565b5f6020820190508181035f830152615e6881615e2f565b9050919050565b7f416464726573733a20696e73756666696369656e742062616c616e63650000005f82015250565b5f615ea3601d83614e46565b9150615eae82615e6f565b602082019050919050565b5f6020820190508181035f830152615ed081615e97565b9050919050565b5f81905092915050565b50565b5f615eef5f83615ed7565b9150615efa82615ee1565b5f82019050919050565b5f615f0e82615ee4565b9150819050919050565b7f416464726573733a20756e61626c6520746f2073656e642076616c75652c20725f8201527f6563697069656e74206d61792068617665207265766572746564000000000000602082015250565b5f615f72603a83614e46565b9150615f7d82615f18565b604082019050919050565b5f6020820190508181035f830152615f9f81615f66565b9050919050565b7f45524332303a207472616e736665722066726f6d20746865207a65726f2061645f8201527f6472657373000000000000000000000000000000000000000000000000000000602082015250565b5f616000602583614e46565b915061600b82615fa6565b604082019050919050565b5f6020820190508181035f83015261602d81615ff4565b9050919050565b7f45524332303a207472616e7366657220746f20746865207a65726f20616464725f8201527f6573730000000000000000000000000000000000000000000000000000000000602082015250565b5f61608e602383614e46565b915061609982616034565b604082019050919050565b5f6020820190508181035f8301526160bb81616082565b9050919050565b7f54726164696e67206e6f742061637469766500000000000000000000000000005f82015250565b5f6160f6601283614e46565b9150616101826160c2565b602082019050919050565b5f6020820190508181035f830152616123816160ea565b9050919050565b7f4279652042796520426f740000000000000000000000000000000000000000005f82015250565b5f61615e600b83614e46565b91506161698261612a565b602082019050919050565b5f6020820190508181035f83015261618b81616152565b9050919050565b7f596f752061726520657863656564696e67206d617853656c6c416d6f756e74005f82015250565b5f6161c6601f83614e46565b91506161d182616192565b602082019050919050565b5f6020820190508181035f8301526161f3816161ba565b9050919050565b7f596f752061726520657863656564696e67206d6178427579416d6f756e7400005f82015250565b5f61622e601e83614e46565b9150616239826161fa565b602082019050919050565b5f6020820190508181035f83015261625b81616222565b9050919050565b7f4e487b71000000000000000000000000000000000000000000000000000000005f52601260045260245ffd5b5f61629982614ecc565b91506162a483614ecc565b9250826162b4576162b3616262565b5b828204905092915050565b5f6162c982614ecc565b91506162d483614ecc565b92508282039050818111156162ec576162eb615990565b5b92915050565b7f536166654d6174683a206164646974696f6e206f766572666c6f7700000000005f82015250565b5f616326601b83614e46565b9150616331826162f2565b602082019050919050565b5f6020820190508181035f8301526163538161631a565b9050919050565b7f564952414c3a204175746f6d61746564206d61726b6574206d616b65722070615f8201527f697220697320616c72656164792073657420746f20746861742076616c756500602082015250565b5f6163b4603f83614e46565b91506163bf8261635a565b604082019050919050565b5f6020820190508181035f8301526163e1816163a8565b9050919050565b5f6040820190506163fb5f830185614f90565b6164086020830184614f90565b9392505050565b5f6020828403121561642457616423614d67565b5b5f616431848285016159fe565b91505092915050565b5f819050919050565b5f61645d6164586164538461643a565b615008565b614ecc565b9050919050565b61646d81616443565b82525050565b5f81519050919050565b5f819050602082019050919050565b5f602082019050919050565b5f6164a282616473565b6164ac8185615b3e565b93506164b78361647d565b805f5b838110156164e75781516164ce8882615b66565b97506164d98361648c565b9250506001810190506164ba565b5085935050505092915050565b5f60a0820190506165075f830188614f90565b6165146020830187616464565b81810360408301526165268186616498565b905061653560608301856150b0565b6165426080830184614f90565b9695505050505050565b5f60c08201905061655f5f8301896150b0565b61656c6020830188614f90565b6165796040830187616464565b6165866060830186616464565b61659360808301856150b0565b6165a060a0830184614f90565b979650505050505050565b5f805f606084860312156165c2576165c1614d67565b5b5f6165cf8682870161574d565b93505060206165e08682870161574d565b92505060406165f18682870161574d565b915050925092509256fe45524332303a207472616e7366657220616d6f756e7420657863656564732062616c616e636545524332303a207472616e7366657220616d6f756e74206578636565647320616c6c6f77616e636545524332303a2064656372656173656420616c6c6f77616e63652062656c6f77207a65726fa2646970667358221220cb3d790715ca2566a5af4b22849ee784c575525d57280a40d74a08ddedcbf06064736f6c634300081a0033608060405234801561000f575f80fd5b506040518060400160405280601581526020017f564952414c5f4469766964656e5f547261636b657200000000000000000000008152506040518060400160405280601681526020017f564952414c5f4469766964656e645f547261636b6572000000000000000000008152508181816003908161008d9190610394565b50806004908161009d9190610394565b5050505f6100af61015360201b60201c565b90508060055f6101000a81548173ffffffffffffffffffffffffffffffffffffffff021916908373ffffffffffffffffffffffffffffffffffffffff1602179055508073ffffffffffffffffffffffffffffffffffffffff165f73ffffffffffffffffffffffffffffffffffffffff167f8be0079c531659141344cd1fd0a4f28419497f9722a3daafe3b4186f6b6457e060405160405180910390a3505050610463565b5f33905090565b5f81519050919050565b7f4e487b71000000000000000000000000000000000000000000000000000000005f52604160045260245ffd5b7f4e487b71000000000000000000000000000000000000000000000000000000005f52602260045260245ffd5b5f60028204905060018216806101d557607f821691505b6020821081036101e8576101e7610191565b5b50919050565b5f819050815f5260205f209050919050565b5f6020601f8301049050919050565b5f82821b905092915050565b5f6008830261024a7fffffffffffffffffffffffffffffffffffffffffffffffffffffffffffffffff8261020f565b610254868361020f565b95508019841693508086168417925050509392505050565b5f819050919050565b5f819050919050565b5f61029861029361028e8461026c565b610275565b61026c565b9050919050565b5f819050919050565b6102b18361027e565b6102c56102bd8261029f565b84845461021b565b825550505050565b5f90565b6102d96102cd565b6102e48184846102a8565b505050565b5b81811015610307576102fc5f826102d1565b6001810190506102ea565b5050565b601f82111561034c5761031d816101ee565b61032684610200565b81016020851015610335578190505b61034961034185610200565b8301826102e9565b50505b505050565b5f82821c905092915050565b5f61036c5f1984600802610351565b1980831691505092915050565b5f610384838361035d565b9150826002028217905092915050565b61039d8261015a565b67ffffffffffffffff8111156103b6576103b5610164565b5b6103c082546101be565b6103cb82828561030b565b5f60209050601f8311600181146103fc575f84156103ea578287015190505b6103f48582610379565b86555061045b565b601f19841661040a866101ee565b5f5b828110156104315784890151825560018201915060208501945060208101905061040c565b8683101561044e578489015161044a601f89168261035d565b8355505b6001600288020188555050505b505050505050565b613447806104705f395ff3fe608060405234801561000f575f80fd5b50600436106101ee575f3560e01c8063715018a61161010d578063a8b9d240116100a0578063e30443bc1161006f578063e30443bc14610606578063ede6ad9c14610622578063f2fde38b1461063e578063fbcbc0f11461065a576101ee565b8063a8b9d24014610546578063a9059cbb14610576578063aafd847a146105a6578063dd62ed3e146105d6576101ee565b806391b89fba116100dc57806391b89fba146104aa57806395d89b41146104da5780639e1e0661146104f8578063a457c2d714610516576101ee565b8063715018a614610434578063807ab4f71461043e57806385a6b3ae1461046e5780638da5cb5b1461048c576101ee565b8063313ce56711610185578063497ec82311610154578063497ec823146103ae5780634e7b827f146103ca5780636a474002146103fa57806370a0823114610404576101ee565b8063313ce5671461032857806339509351146103465780633b36a1d71461037657806344b6bd9e14610392576101ee565b806318160ddd116101c157806318160ddd1461027a578063226cfa3d1461029857806323b872dd146102c857806327ce0147146102f8576101ee565b80630483f7a0146101f257806306fdde031461020e578063095ea7b31461022c5780631162c4b61461025c575b5f80fd5b61020c6004803603810190610207919061271a565b61068e565b005b610216610850565b60405161022391906127c8565b60405180910390f35b6102466004803603810190610241919061281b565b6108e0565b6040516102539190612868565b60405180910390f35b6102646108fd565b6040516102719190612890565b60405180910390f35b610282610922565b60405161028f91906128b8565b60405180910390f35b6102b260048036038101906102ad91906128d1565b61092b565b6040516102bf91906128b8565b60405180910390f35b6102e260048036038101906102dd91906128fc565b610940565b6040516102ef9190612868565b60405180910390f35b610312600480360381019061030d91906128d1565b610a14565b60405161031f91906128b8565b60405180910390f35b610330610ab4565b60405161033d9190612967565b60405180910390f35b610360600480360381019061035b919061281b565b610abc565b60405161036d9190612868565b60405180910390f35b610390600480360381019061038b91906128d1565b610b6a565b005b6103ac60048036038101906103a791906128d1565b610c31565b005b6103c860048036038101906103c39190612980565b610d0a565b005b6103e460048036038101906103df91906128d1565b610e97565b6040516103f19190612868565b60405180910390f35b610402610eb4565b005b61041e600480360381019061041991906128d1565b610ec0565b60405161042b91906128b8565b60405180910390f35b61043c610f05565b005b610458600480360381019061045391906129f9565b611058565b6040516104659190612868565b60405180910390f35b6104766111a7565b60405161048391906128b8565b60405180910390f35b6104946111ad565b6040516104a19190612890565b60405180910390f35b6104c460048036038101906104bf91906128d1565b6111d5565b6040516104d191906128b8565b60405180910390f35b6104e26111e6565b6040516104ef91906127c8565b60405180910390f35b610500611276565b60405161050d91906128b8565b60405180910390f35b610530600480360381019061052b919061281b565b61127c565b60405161053d9190612868565b60405180910390f35b610560600480360381019061055b91906128d1565b611344565b60405161056d91906128b8565b60405180910390f35b610590600480360381019061058b919061281b565b6113a4565b60405161059d9190612868565b60405180910390f35b6105c060048036038101906105bb91906128d1565b6113c1565b6040516105cd91906128b8565b60405180910390f35b6105f060048036038101906105eb9190612980565b611407565b6040516105fd91906128b8565b60405180910390f35b610620600480360381019061061b919061281b565b611489565b005b61063c60048036038101906106379190612a24565b61157c565b005b610658600480360381019061065391906128d1565b6116e9565b005b610674600480360381019061066f91906128d1565b6118ab565b604051610685959493929190612a4f565b60405180910390f35b610696611984565b73ffffffffffffffffffffffffffffffffffffffff1660055f9054906101000a900473ffffffffffffffffffffffffffffffffffffffff1673ffffffffffffffffffffffffffffffffffffffff1614610724576040517f08c379a000000000000000000000000000000000000000000000000000000000815260040161071b90612aea565b60405180910390fd5b801515600c5f8473ffffffffffffffffffffffffffffffffffffffff1673ffffffffffffffffffffffffffffffffffffffff1681526020019081526020015f205f9054906101000a900460ff1615150361077c575f80fd5b80600c5f8473ffffffffffffffffffffffffffffffffffffffff1673ffffffffffffffffffffffffffffffffffffffff1681526020019081526020015f205f6101000a81548160ff02191690831515021790555060011515811515036107eb576107e6825f61198b565b6107fe565b6107fd826107f884610ec0565b61198b565b5b8173ffffffffffffffffffffffffffffffffffffffff167fa3c7c11b2e12c4144b09a7813f3393ba646392788638998c97be8da908cf04be826040516108449190612868565b60405180910390a25050565b60606003805461085f90612b35565b80601f016020809104026020016040519081016040528092919081815260200182805461088b90612b35565b80156108d65780601f106108ad576101008083540402835291602001916108d6565b820191905f5260205f20905b8154815290600101906020018083116108b957829003601f168201915b5050505050905090565b5f6108f36108ec611984565b84846119f5565b6001905092915050565b60065f9054906101000a900473ffffffffffffffffffffffffffffffffffffffff1681565b5f600254905090565b600d602052805f5260405f205f915090505481565b5f61094c848484611bb8565b610a0984610958611984565b610a04856040518060600160405280602881526020016133c56028913960015f8b73ffffffffffffffffffffffffffffffffffffffff1673ffffffffffffffffffffffffffffffffffffffff1681526020019081526020015f205f6109bb611984565b73ffffffffffffffffffffffffffffffffffffffff1673ffffffffffffffffffffffffffffffffffffffff1681526020019081526020015f2054611bfd9092919063ffffffff16565b6119f5565b600190509392505050565b5f700100000000000000000000000000000000610aa3610a9e60085f8673ffffffffffffffffffffffffffffffffffffffff1673ffffffffffffffffffffffffffffffffffffffff1681526020019081526020015f2054610a90610a8b610a7a88610ec0565b600754611c5f90919063ffffffff16565b611cd6565b611cf090919063ffffffff16565b611d37565b610aad9190612bbf565b9050919050565b5f6012905090565b5f610b60610ac8611984565b84610b5b8560015f610ad8611984565b73ffffffffffffffffffffffffffffffffffffffff1673ffffffffffffffffffffffffffffffffffffffff1681526020019081526020015f205f8973ffffffffffffffffffffffffffffffffffffffff1673ffffffffffffffffffffffffffffffffffffffff1681526020019081526020015f2054611d4c90919063ffffffff16565b6119f5565b6001905092915050565b610b72611984565b73ffffffffffffffffffffffffffffffffffffffff1660055f9054906101000a900473ffffffffffffffffffffffffffffffffffffffff1673ffffffffffffffffffffffffffffffffffffffff1614610c00576040517f08c379a0000000000000000000000000000000000000000000000000000000008152600401610bf790612aea565b60405180910390fd5b5f479050610c2d818373ffffffffffffffffffffffffffffffffffffffff16611da990919063ffffffff16565b5050565b610c39611984565b73ffffffffffffffffffffffffffffffffffffffff1660055f9054906101000a900473ffffffffffffffffffffffffffffffffffffffff1673ffffffffffffffffffffffffffffffffffffffff1614610cc7576040517f08c379a0000000000000000000000000000000000000000000000000000000008152600401610cbe90612aea565b60405180910390fd5b8060065f6101000a81548173ffffffffffffffffffffffffffffffffffffffff021916908373ffffffffffffffffffffffffffffffffffffffff16021790555050565b610d12611984565b73ffffffffffffffffffffffffffffffffffffffff1660055f9054906101000a900473ffffffffffffffffffffffffffffffffffffffff1673ffffffffffffffffffffffffffffffffffffffff1614610da0576040517f08c379a0000000000000000000000000000000000000000000000000000000008152600401610d9790612aea565b60405180910390fd5b8073ffffffffffffffffffffffffffffffffffffffff1663a9059cbb838373ffffffffffffffffffffffffffffffffffffffff166370a08231306040518263ffffffff1660e01b8152600401610df69190612890565b602060405180830381865afa158015610e11573d5f803e3d5ffd5b505050506040513d601f19601f82011682018060405250810190610e359190612c03565b6040518363ffffffff1660e01b8152600401610e52929190612c2e565b6020604051808303815f875af1158015610e6e573d5f803e3d5ffd5b505050506040513d601f19601f82011682018060405250810190610e929190612c69565b505050565b600c602052805f5260405f205f915054906101000a900460ff1681565b610ebd33611e99565b50565b5f805f8373ffffffffffffffffffffffffffffffffffffffff1673ffffffffffffffffffffffffffffffffffffffff1681526020019081526020015f20549050919050565b610f0d611984565b73ffffffffffffffffffffffffffffffffffffffff1660055f9054906101000a900473ffffffffffffffffffffffffffffffffffffffff1673ffffffffffffffffffffffffffffffffffffffff1614610f9b576040517f08c379a0000000000000000000000000000000000000000000000000000000008152600401610f9290612aea565b60405180910390fd5b5f73ffffffffffffffffffffffffffffffffffffffff1660055f9054906101000a900473ffffffffffffffffffffffffffffffffffffffff1673ffffffffffffffffffffffffffffffffffffffff167f8be0079c531659141344cd1fd0a4f28419497f9722a3daafe3b4186f6b6457e060405160405180910390a35f60055f6101000a81548173ffffffffffffffffffffffffffffffffffffffff021916908373ffffffffffffffffffffffffffffffffffffffff160217905550565b5f611061611984565b73ffffffffffffffffffffffffffffffffffffffff1660055f9054906101000a900473ffffffffffffffffffffffffffffffffffffffff1673ffffffffffffffffffffffffffffffffffffffff16146110ef576040517f08c379a00000000000000000000000000000000000000000000000000000000081526004016110e690612aea565b60405180910390fd5b5f6110f983611e99565b90505f81111561119d5742600d5f8573ffffffffffffffffffffffffffffffffffffffff1673ffffffffffffffffffffffffffffffffffffffff1681526020019081526020015f20819055508273ffffffffffffffffffffffffffffffffffffffff167f47cee97cb7acd717b3c0aa1435d004cd5b3c8c57d70dbceb4e4458bbd60e39d48260405161118b91906128b8565b60405180910390a260019150506111a2565b5f9150505b919050565b600a5481565b5f60055f9054906101000a900473ffffffffffffffffffffffffffffffffffffffff16905090565b5f6111df82611344565b9050919050565b6060600480546111f590612b35565b80601f016020809104026020016040519081016040528092919081815260200182805461122190612b35565b801561126c5780601f106112435761010080835404028352916020019161126c565b820191905f5260205f20905b81548152906001019060200180831161124f57829003601f168201915b5050505050905090565b600b5481565b5f61133a611288611984565b84611335856040518060600160405280602581526020016133ed6025913960015f6112b1611984565b73ffffffffffffffffffffffffffffffffffffffff1673ffffffffffffffffffffffffffffffffffffffff1681526020019081526020015f205f8a73ffffffffffffffffffffffffffffffffffffffff1673ffffffffffffffffffffffffffffffffffffffff1681526020019081526020015f2054611bfd9092919063ffffffff16565b6119f5565b6001905092915050565b5f61139d60095f8473ffffffffffffffffffffffffffffffffffffffff1673ffffffffffffffffffffffffffffffffffffffff1681526020019081526020015f205461138f84610a14565b61211090919063ffffffff16565b9050919050565b5f6113b76113b0611984565b8484611bb8565b6001905092915050565b5f60095f8373ffffffffffffffffffffffffffffffffffffffff1673ffffffffffffffffffffffffffffffffffffffff1681526020019081526020015f20549050919050565b5f60015f8473ffffffffffffffffffffffffffffffffffffffff1673ffffffffffffffffffffffffffffffffffffffff1681526020019081526020015f205f8373ffffffffffffffffffffffffffffffffffffffff1673ffffffffffffffffffffffffffffffffffffffff1681526020019081526020015f2054905092915050565b611491611984565b73ffffffffffffffffffffffffffffffffffffffff1660055f9054906101000a900473ffffffffffffffffffffffffffffffffffffffff1673ffffffffffffffffffffffffffffffffffffffff161461151f576040517f08c379a000000000000000000000000000000000000000000000000000000000815260040161151690612aea565b60405180910390fd5b600c5f8373ffffffffffffffffffffffffffffffffffffffff1673ffffffffffffffffffffffffffffffffffffffff1681526020019081526020015f205f9054906101000a900460ff1661157857611577828261198b565b5b5050565b611584611984565b73ffffffffffffffffffffffffffffffffffffffff1660055f9054906101000a900473ffffffffffffffffffffffffffffffffffffffff1673ffffffffffffffffffffffffffffffffffffffff1614611612576040517f08c379a000000000000000000000000000000000000000000000000000000000815260040161160990612aea565b60405180910390fd5b5f61161b610922565b11611624575f80fd5b5f8111156116e657611676611637610922565b61165b70010000000000000000000000000000000084611c5f90919063ffffffff16565b6116659190612bbf565b600754611d4c90919063ffffffff16565b6007819055503373ffffffffffffffffffffffffffffffffffffffff167fa493a9229478c3fcd73f66d2cdeb7f94fd0f341da924d1054236d78454116511826040516116c291906128b8565b60405180910390a26116df81600a54611d4c90919063ffffffff16565b600a819055505b50565b6116f1611984565b73ffffffffffffffffffffffffffffffffffffffff1660055f9054906101000a900473ffffffffffffffffffffffffffffffffffffffff1673ffffffffffffffffffffffffffffffffffffffff161461177f576040517f08c379a000000000000000000000000000000000000000000000000000000000815260040161177690612aea565b60405180910390fd5b5f73ffffffffffffffffffffffffffffffffffffffff168173ffffffffffffffffffffffffffffffffffffffff16036117ed576040517f08c379a00000000000000000000000000000000000000000000000000000000081526004016117e490612d04565b60405180910390fd5b8073ffffffffffffffffffffffffffffffffffffffff1660055f9054906101000a900473ffffffffffffffffffffffffffffffffffffffff1673ffffffffffffffffffffffffffffffffffffffff167f8be0079c531659141344cd1fd0a4f28419497f9722a3daafe3b4186f6b6457e060405160405180910390a38060055f6101000a81548173ffffffffffffffffffffffffffffffffffffffff021916908373ffffffffffffffffffffffffffffffffffffffff16021790555050565b5f805f805f6118b861264d565b86815f019073ffffffffffffffffffffffffffffffffffffffff16908173ffffffffffffffffffffffffffffffffffffffff16815250506118f887611344565b81602001818152505061190a87610a14565b816040018181525050600d5f8873ffffffffffffffffffffffffffffffffffffffff1673ffffffffffffffffffffffffffffffffffffffff1681526020019081526020015f2054816060018181525050805f0151816020015182604001518360600151600b54955095509550955095505091939590929450565b5f33905090565b5f61199583610ec0565b9050808211156119c5575f6119b3828461211090919063ffffffff16565b90506119bf8482612159565b506119f0565b808210156119ef575f6119e1838361211090919063ffffffff16565b90506119ed8482612214565b505b5b505050565b5f73ffffffffffffffffffffffffffffffffffffffff168373ffffffffffffffffffffffffffffffffffffffff1603611a63576040517f08c379a0000000000000000000000000000000000000000000000000000000008152600401611a5a90612d92565b60405180910390fd5b5f73ffffffffffffffffffffffffffffffffffffffff168273ffffffffffffffffffffffffffffffffffffffff1603611ad1576040517f08c379a0000000000000000000000000000000000000000000000000000000008152600401611ac890612e20565b60405180910390fd5b8060015f8573ffffffffffffffffffffffffffffffffffffffff1673ffffffffffffffffffffffffffffffffffffffff1681526020019081526020015f205f8473ffffffffffffffffffffffffffffffffffffffff1673ffffffffffffffffffffffffffffffffffffffff1681526020019081526020015f20819055508173ffffffffffffffffffffffffffffffffffffffff168373ffffffffffffffffffffffffffffffffffffffff167f8c5be1e5ebec7d5bd14f71427d1e84f3dd0314c0f7b2291e5b200ac8c7c3b92583604051611bab91906128b8565b60405180910390a3505050565b5f611bf8576040517f08c379a0000000000000000000000000000000000000000000000000000000008152600401611bef90612eae565b60405180910390fd5b505050565b5f838311158290611c44576040517f08c379a0000000000000000000000000000000000000000000000000000000008152600401611c3b91906127c8565b60405180910390fd5b505f8385611c529190612ecc565b9050809150509392505050565b5f808303611c6f575f9050611cd0565b5f8284611c7c9190612eff565b9050828482611c8b9190612bbf565b14611ccb576040517f08c379a0000000000000000000000000000000000000000000000000000000008152600401611cc290612fb0565b60405180910390fd5b809150505b92915050565b5f808290505f811215611ce7575f80fd5b80915050919050565b5f808284611cfe9190612fd7565b90505f8312158015611d105750838112155b80611d2557505f83128015611d2457508381125b5b611d2d575f80fd5b8091505092915050565b5f80821215611d44575f80fd5b819050919050565b5f808284611d5a9190613018565b905083811015611d9f576040517f08c379a0000000000000000000000000000000000000000000000000000000008152600401611d9690613095565b60405180910390fd5b8091505092915050565b80471015611dec576040517f08c379a0000000000000000000000000000000000000000000000000000000008152600401611de3906130fd565b60405180910390fd5b5f8273ffffffffffffffffffffffffffffffffffffffff1682604051611e1190613148565b5f6040518083038185875af1925050503d805f8114611e4b576040519150601f19603f3d011682016040523d82523d5f602084013e611e50565b606091505b5050905080611e94576040517f08c379a0000000000000000000000000000000000000000000000000000000008152600401611e8b906131cc565b60405180910390fd5b505050565b5f80611ea483611344565b90505f81111561210657611efe8160095f8673ffffffffffffffffffffffffffffffffffffffff1673ffffffffffffffffffffffffffffffffffffffff1681526020019081526020015f2054611d4c90919063ffffffff16565b60095f8573ffffffffffffffffffffffffffffffffffffffff1673ffffffffffffffffffffffffffffffffffffffff1681526020019081526020015f208190555080600b5f828254611f509190613018565b925050819055508273ffffffffffffffffffffffffffffffffffffffff167fee503bee2bb6a87e57bc57db795f98137327401a0e7b7ce42e37926cc1a9ca4d82604051611f9d91906128b8565b60405180910390a25f60065f9054906101000a900473ffffffffffffffffffffffffffffffffffffffff1673ffffffffffffffffffffffffffffffffffffffff1663a9059cbb85846040518363ffffffff1660e01b8152600401612002929190613245565b6020604051808303815f875af115801561201e573d5f803e3d5ffd5b505050506040513d601f19601f820116820180604052508101906120429190612c69565b9050806120fc576120998260095f8773ffffffffffffffffffffffffffffffffffffffff1673ffffffffffffffffffffffffffffffffffffffff1681526020019081526020015f205461211090919063ffffffff16565b60095f8673ffffffffffffffffffffffffffffffffffffffff1673ffffffffffffffffffffffffffffffffffffffff1681526020019081526020015f208190555081600b5f8282546120eb9190612ecc565b925050819055505f9250505061210b565b819250505061210b565b5f9150505b919050565b5f61215183836040518060400160405280601e81526020017f536166654d6174683a207375627472616374696f6e206f766572666c6f770000815250611bfd565b905092915050565b61216382826122cf565b6121cf61218361217e83600754611c5f90919063ffffffff16565b611cd6565b60085f8573ffffffffffffffffffffffffffffffffffffffff1673ffffffffffffffffffffffffffffffffffffffff1681526020019081526020015f205461245b90919063ffffffff16565b60085f8473ffffffffffffffffffffffffffffffffffffffff1673ffffffffffffffffffffffffffffffffffffffff1681526020019081526020015f20819055505050565b61221e82826124a2565b61228a61223e61223983600754611c5f90919063ffffffff16565b611cd6565b60085f8573ffffffffffffffffffffffffffffffffffffffff1673ffffffffffffffffffffffffffffffffffffffff1681526020019081526020015f2054611cf090919063ffffffff16565b60085f8473ffffffffffffffffffffffffffffffffffffffff1673ffffffffffffffffffffffffffffffffffffffff1681526020019081526020015f20819055505050565b5f73ffffffffffffffffffffffffffffffffffffffff168273ffffffffffffffffffffffffffffffffffffffff160361233d576040517f08c379a0000000000000000000000000000000000000000000000000000000008152600401612334906132b6565b60405180910390fd5b6123485f8383612648565b61235d81600254611d4c90919063ffffffff16565b6002819055506123b2815f808573ffffffffffffffffffffffffffffffffffffffff1673ffffffffffffffffffffffffffffffffffffffff1681526020019081526020015f2054611d4c90919063ffffffff16565b5f808473ffffffffffffffffffffffffffffffffffffffff1673ffffffffffffffffffffffffffffffffffffffff1681526020019081526020015f20819055508173ffffffffffffffffffffffffffffffffffffffff165f73ffffffffffffffffffffffffffffffffffffffff167fddf252ad1be2c89b69c2b068fc378daa952ba7f163c4a11628f55a4df523b3ef8360405161244f91906128b8565b60405180910390a35050565b5f80828461246991906132d4565b90505f831215801561247b5750838113155b8061249057505f8312801561248f57508381135b5b612498575f80fd5b8091505092915050565b5f73ffffffffffffffffffffffffffffffffffffffff168273ffffffffffffffffffffffffffffffffffffffff1603612510576040517f08c379a000000000000000000000000000000000000000000000000000000000815260040161250790613384565b60405180910390fd5b61251b825f83612648565b612584816040518060600160405280602281526020016133a3602291395f808673ffffffffffffffffffffffffffffffffffffffff1673ffffffffffffffffffffffffffffffffffffffff1681526020019081526020015f2054611bfd9092919063ffffffff16565b5f808473ffffffffffffffffffffffffffffffffffffffff1673ffffffffffffffffffffffffffffffffffffffff1681526020019081526020015f20819055506125d98160025461211090919063ffffffff16565b6002819055505f73ffffffffffffffffffffffffffffffffffffffff168273ffffffffffffffffffffffffffffffffffffffff167fddf252ad1be2c89b69c2b068fc378daa952ba7f163c4a11628f55a4df523b3ef8360405161263c91906128b8565b60405180910390a35050565b505050565b60405180608001604052805f73ffffffffffffffffffffffffffffffffffffffff1681526020015f81526020015f81526020015f81525090565b5f80fd5b5f73ffffffffffffffffffffffffffffffffffffffff82169050919050565b5f6126b48261268b565b9050919050565b6126c4816126aa565b81146126ce575f80fd5b50565b5f813590506126df816126bb565b92915050565b5f8115159050919050565b6126f9816126e5565b8114612703575f80fd5b50565b5f81359050612714816126f0565b92915050565b5f80604083850312156127305761272f612687565b5b5f61273d858286016126d1565b925050602061274e85828601612706565b9150509250929050565b5f81519050919050565b5f82825260208201905092915050565b8281835e5f83830152505050565b5f601f19601f8301169050919050565b5f61279a82612758565b6127a48185612762565b93506127b4818560208601612772565b6127bd81612780565b840191505092915050565b5f6020820190508181035f8301526127e08184612790565b905092915050565b5f819050919050565b6127fa816127e8565b8114612804575f80fd5b50565b5f81359050612815816127f1565b92915050565b5f806040838503121561283157612830612687565b5b5f61283e858286016126d1565b925050602061284f85828601612807565b9150509250929050565b612862816126e5565b82525050565b5f60208201905061287b5f830184612859565b92915050565b61288a816126aa565b82525050565b5f6020820190506128a35f830184612881565b92915050565b6128b2816127e8565b82525050565b5f6020820190506128cb5f8301846128a9565b92915050565b5f602082840312156128e6576128e5612687565b5b5f6128f3848285016126d1565b91505092915050565b5f805f6060848603121561291357612912612687565b5b5f612920868287016126d1565b9350506020612931868287016126d1565b925050604061294286828701612807565b9150509250925092565b5f60ff82169050919050565b6129618161294c565b82525050565b5f60208201905061297a5f830184612958565b92915050565b5f806040838503121561299657612995612687565b5b5f6129a3858286016126d1565b92505060206129b4858286016126d1565b9150509250929050565b5f6129c88261268b565b9050919050565b6129d8816129be565b81146129e2575f80fd5b50565b5f813590506129f3816129cf565b92915050565b5f60208284031215612a0e57612a0d612687565b5b5f612a1b848285016129e5565b91505092915050565b5f60208284031215612a3957612a38612687565b5b5f612a4684828501612807565b91505092915050565b5f60a082019050612a625f830188612881565b612a6f60208301876128a9565b612a7c60408301866128a9565b612a8960608301856128a9565b612a9660808301846128a9565b9695505050505050565b7f4f776e61626c653a2063616c6c6572206973206e6f7420746865206f776e65725f82015250565b5f612ad4602083612762565b9150612adf82612aa0565b602082019050919050565b5f6020820190508181035f830152612b0181612ac8565b9050919050565b7f4e487b71000000000000000000000000000000000000000000000000000000005f52602260045260245ffd5b5f6002820490506001821680612b4c57607f821691505b602082108103612b5f57612b5e612b08565b5b50919050565b7f4e487b71000000000000000000000000000000000000000000000000000000005f52601260045260245ffd5b7f4e487b71000000000000000000000000000000000000000000000000000000005f52601160045260245ffd5b5f612bc9826127e8565b9150612bd4836127e8565b925082612be457612be3612b65565b5b828204905092915050565b5f81519050612bfd816127f1565b92915050565b5f60208284031215612c1857612c17612687565b5b5f612c2584828501612bef565b91505092915050565b5f604082019050612c415f830185612881565b612c4e60208301846128a9565b9392505050565b5f81519050612c63816126f0565b92915050565b5f60208284031215612c7e57612c7d612687565b5b5f612c8b84828501612c55565b91505092915050565b7f4f776e61626c653a206e6577206f776e657220697320746865207a65726f20615f8201527f6464726573730000000000000000000000000000000000000000000000000000602082015250565b5f612cee602683612762565b9150612cf982612c94565b604082019050919050565b5f6020820190508181035f830152612d1b81612ce2565b9050919050565b7f45524332303a20617070726f76652066726f6d20746865207a65726f206164645f8201527f7265737300000000000000000000000000000000000000000000000000000000602082015250565b5f612d7c602483612762565b9150612d8782612d22565b604082019050919050565b5f6020820190508181035f830152612da981612d70565b9050919050565b7f45524332303a20617070726f766520746f20746865207a65726f2061646472655f8201527f7373000000000000000000000000000000000000000000000000000000000000602082015250565b5f612e0a602283612762565b9150612e1582612db0565b604082019050919050565b5f6020820190508181035f830152612e3781612dfe565b9050919050565b7f564952414c5f4469766964656e645f547261636b65723a204e6f207472616e735f8201527f6665727320616c6c6f7765640000000000000000000000000000000000000000602082015250565b5f612e98602c83612762565b9150612ea382612e3e565b604082019050919050565b5f6020820190508181035f830152612ec581612e8c565b9050919050565b5f612ed6826127e8565b9150612ee1836127e8565b9250828203905081811115612ef957612ef8612b92565b5b92915050565b5f612f09826127e8565b9150612f14836127e8565b9250828202612f22816127e8565b91508282048414831517612f3957612f38612b92565b5b5092915050565b7f536166654d6174683a206d756c7469706c69636174696f6e206f766572666c6f5f8201527f7700000000000000000000000000000000000000000000000000000000000000602082015250565b5f612f9a602183612762565b9150612fa582612f40565b604082019050919050565b5f6020820190508181035f830152612fc781612f8e565b9050919050565b5f819050919050565b5f612fe182612fce565b9150612fec83612fce565b92508282019050828112155f8312168382125f84121516171561301257613011612b92565b5b92915050565b5f613022826127e8565b915061302d836127e8565b925082820190508082111561304557613044612b92565b5b92915050565b7f536166654d6174683a206164646974696f6e206f766572666c6f7700000000005f82015250565b5f61307f601b83612762565b915061308a8261304b565b602082019050919050565b5f6020820190508181035f8301526130ac81613073565b9050919050565b7f416464726573733a20696e73756666696369656e742062616c616e63650000005f82015250565b5f6130e7601d83612762565b91506130f2826130b3565b602082019050919050565b5f6020820190508181035f830152613114816130db565b9050919050565b5f81905092915050565b50565b5f6131335f8361311b565b915061313e82613125565b5f82019050919050565b5f61315282613128565b9150819050919050565b7f416464726573733a20756e61626c6520746f2073656e642076616c75652c20725f8201527f6563697069656e74206d61792068617665207265766572746564000000000000602082015250565b5f6131b6603a83612762565b91506131c18261315c565b604082019050919050565b5f6020820190508181035f8301526131e3816131aa565b9050919050565b5f819050919050565b5f61320d6132086132038461268b565b6131ea565b61268b565b9050919050565b5f61321e826131f3565b9050919050565b5f61322f82613214565b9050919050565b61323f81613225565b82525050565b5f6040820190506132585f830185613236565b61326560208301846128a9565b9392505050565b7f45524332303a206d696e7420746f20746865207a65726f2061646472657373005f82015250565b5f6132a0601f83612762565b91506132ab8261326c565b602082019050919050565b5f6020820190508181035f8301526132cd81613294565b9050919050565b5f6132de82612fce565b91506132e983612fce565b925082820390508181125f8412168282135f85121516171561330e5761330d612b92565b5b92915050565b7f45524332303a206275726e2066726f6d20746865207a65726f206164647265735f8201527f7300000000000000000000000000000000000000000000000000000000000000602082015250565b5f61336e602183612762565b915061337982613314565b604082019050919050565b5f6020820190508181035f83015261339b81613362565b905091905056fe45524332303a206275726e20616d6f756e7420657863656564732062616c616e636545524332303a207472616e7366657220616d6f756e74206578636565647320616c6c6f77616e636545524332303a2064656372656173656420616c6c6f77616e63652062656c6f77207a65726fa2646970667358221220f2f79d190d442a44144f010b7cb984fb42e8cf758b08440c44dfbf150c71855464736f6c634300081a0033",
			"opcodes": "PUSH1 0x80 PUSH1 0x40 MSTORE PUSH1 0x1 PUSH1 0x7 PUSH1 0x15 PUSH2 0x100 EXP DUP2 SLOAD DUP2 PUSH1 0xFF MUL NOT AND SWAP1 DUP4 ISZERO ISZERO MUL OR SWAP1 SSTORE POP PUSH20 0x73FA5DDF2AB78D92BB723D92AB98AF7A0A4FDE8F PUSH1 0x9 PUSH0 PUSH2 0x100 EXP DUP2 SLOAD DUP2 PUSH20 0xFFFFFFFFFFFFFFFFFFFFFFFFFFFFFFFFFFFFFFFF MUL NOT AND SWAP1 DUP4 PUSH20 0xFFFFFFFFFFFFFFFFFFFFFFFFFFFFFFFFFFFFFFFF AND MUL OR SWAP1 SSTORE POP PUSH20 0x16023072C6A88555736B654629FC807D623617A5 PUSH1 0xA PUSH0 PUSH2 0x100 EXP DUP2 SLOAD DUP2 PUSH20 0xFFFFFFFFFFFFFFFFFFFFFFFFFFFFFFFFFFFFFFFF MUL NOT AND SWAP1 DUP4 PUSH20 0xFFFFFFFFFFFFFFFFFFFFFFFFFFFFFFFFFFFFFFFF AND MUL OR SWAP1 SSTORE POP PUSH10 0x69E10DE76676D0800000 PUSH1 0xB SSTORE PUSH10 0xD3C21BCECCEDA1000000 PUSH1 0xC SSTORE PUSH10 0xD3C21BCECCEDA1000000 PUSH1 0xD SSTORE PUSH1 0x40 MLOAD DUP1 PUSH1 0x80 ADD PUSH1 0x40 MSTORE DUP1 PUSH0 DUP2 MSTORE PUSH1 0x20 ADD PUSH0 DUP2 MSTORE PUSH1 0x20 ADD PUSH0 DUP2 MSTORE PUSH1 0x20 ADD PUSH1 0x2 DUP2 MSTORE POP PUSH1 0xE PUSH0 DUP3 ADD MLOAD DUP2 PUSH0 ADD SSTORE PUSH1 0x20 DUP3 ADD MLOAD DUP2 PUSH1 0x1 ADD SSTORE PUSH1 0x40 DUP3 ADD MLOAD DUP2 PUSH1 0x2 ADD SSTORE PUSH1 0x60 DUP3 ADD MLOAD DUP2 PUSH1 0x3 ADD SSTORE POP POP PUSH1 0x40 MLOAD DUP1 PUSH1 0x80 ADD PUSH1 0x40 MSTORE DUP1 PUSH1 0x5 DUP2 MSTORE PUSH1 0x20 ADD PUSH1 0xA DUP2 MSTORE PUSH1 0x20 ADD PUSH1 0x3 DUP2 MSTORE PUSH1 0x20 ADD PUSH1 0x2 DUP2 MSTORE POP PUSH1 0x12 PUSH0 DUP3 ADD MLOAD DUP2 PUSH0 ADD SSTORE PUSH1 0x20 DUP3 ADD MLOAD DUP2 PUSH1 0x1 ADD SSTORE PUSH1 0x40 DUP3 ADD MLOAD DUP2 PUSH1 0x2 ADD SSTORE PUSH1 0x60 DUP3 ADD MLOAD DUP2 PUSH1 0x3 ADD SSTORE POP POP PUSH1 0x2 PUSH1 0x16 SSTORE PUSH1 0x14 PUSH1 0x17 SSTORE CALLVALUE DUP1 ISZERO PUSH2 0x1A1 JUMPI PUSH0 DUP1 REVERT JUMPDEST POP PUSH1 0x40 MLOAD DUP1 PUSH1 0x40 ADD PUSH1 0x40 MSTORE DUP1 PUSH1 0x5 DUP2 MSTORE PUSH1 0x20 ADD PUSH32 0x564952414C000000000000000000000000000000000000000000000000000000 DUP2 MSTORE POP PUSH1 0x40 MLOAD DUP1 PUSH1 0x40 ADD PUSH1 0x40 MSTORE DUP1 PUSH1 0x5 DUP2 MSTORE PUSH1 0x20 ADD PUSH32 0x564952414C000000000000000000000000000000000000000000000000000000 DUP2 MSTORE POP DUP2 PUSH1 0x3 SWAP1 DUP2 PUSH2 0x21D SWAP2 SWAP1 PUSH2 0x1186 JUMP JUMPDEST POP DUP1 PUSH1 0x4 SWAP1 DUP2 PUSH2 0x22D SWAP2 SWAP1 PUSH2 0x1186 JUMP JUMPDEST POP POP POP PUSH0 PUSH2 0x23F PUSH2 0x98D PUSH1 0x20 SHL PUSH1 0x20 SHR JUMP JUMPDEST SWAP1 POP DUP1 PUSH1 0x5 PUSH0 PUSH2 0x100 EXP DUP2 SLOAD DUP2 PUSH20 0xFFFFFFFFFFFFFFFFFFFFFFFFFFFFFFFFFFFFFFFF MUL NOT AND SWAP1 DUP4 PUSH20 0xFFFFFFFFFFFFFFFFFFFFFFFFFFFFFFFFFFFFFFFF AND MUL OR SWAP1 SSTORE POP DUP1 PUSH20 0xFFFFFFFFFFFFFFFFFFFFFFFFFFFFFFFFFFFFFFFF AND PUSH0 PUSH20 0xFFFFFFFFFFFFFFFFFFFFFFFFFFFFFFFFFFFFFFFF AND PUSH32 0x8BE0079C531659141344CD1FD0A4F28419497F9722A3DAAFE3B4186F6B6457E0 PUSH1 0x40 MLOAD PUSH1 0x40 MLOAD DUP1 SWAP2 SUB SWAP1 LOG3 POP PUSH1 0x40 MLOAD PUSH2 0x2E8 SWAP1 PUSH2 0xF3F JUMP JUMPDEST PUSH1 0x40 MLOAD DUP1 SWAP2 SUB SWAP1 PUSH0 CREATE DUP1 ISZERO DUP1 ISZERO PUSH2 0x301 JUMPI RETURNDATASIZE PUSH0 DUP1 RETURNDATACOPY RETURNDATASIZE PUSH0 REVERT JUMPDEST POP PUSH1 0x8 PUSH0 PUSH2 0x100 EXP DUP2 SLOAD DUP2 PUSH20 0xFFFFFFFFFFFFFFFFFFFFFFFFFFFFFFFFFFFFFFFF MUL NOT AND SWAP1 DUP4 PUSH20 0xFFFFFFFFFFFFFFFFFFFFFFFFFFFFFFFFFFFFFFFF AND MUL OR SWAP1 SSTORE POP PUSH0 PUSH20 0x7A250D5630B4CF539739DF2C5DACB4C659F2488D SWAP1 POP PUSH0 DUP2 PUSH20 0xFFFFFFFFFFFFFFFFFFFFFFFFFFFFFFFFFFFFFFFF AND PUSH4 0xC45A0155 PUSH1 0x40 MLOAD DUP2 PUSH4 0xFFFFFFFF AND PUSH1 0xE0 SHL DUP2 MSTORE PUSH1 0x4 ADD PUSH1 0x20 PUSH1 0x40 MLOAD DUP1 DUP4 SUB DUP2 DUP7 GAS STATICCALL ISZERO DUP1 ISZERO PUSH2 0x3A3 JUMPI RETURNDATASIZE PUSH0 DUP1 RETURNDATACOPY RETURNDATASIZE PUSH0 REVERT JUMPDEST POP POP POP POP PUSH1 0x40 MLOAD RETURNDATASIZE PUSH1 0x1F NOT PUSH1 0x1F DUP3 ADD AND DUP3 ADD DUP1 PUSH1 0x40 MSTORE POP DUP2 ADD SWAP1 PUSH2 0x3C7 SWAP2 SWAP1 PUSH2 0x12B3 JUMP JUMPDEST PUSH20 0xFFFFFFFFFFFFFFFFFFFFFFFFFFFFFFFFFFFFFFFF AND PUSH4 0xC9C65396 ADDRESS DUP5 PUSH20 0xFFFFFFFFFFFFFFFFFFFFFFFFFFFFFFFFFFFFFFFF AND PUSH4 0xAD5C4648 PUSH1 0x40 MLOAD DUP2 PUSH4 0xFFFFFFFF AND PUSH1 0xE0 SHL DUP2 MSTORE PUSH1 0x4 ADD PUSH1 0x20 PUSH1 0x40 MLOAD DUP1 DUP4 SUB DUP2 DUP7 GAS STATICCALL ISZERO DUP1 ISZERO PUSH2 0x42C JUMPI RETURNDATASIZE PUSH0 DUP1 RETURNDATACOPY RETURNDATASIZE PUSH0 REVERT JUMPDEST POP POP POP POP PUSH1 0x40 MLOAD RETURNDATASIZE PUSH1 0x1F NOT PUSH1 0x1F DUP3 ADD AND DUP3 ADD DUP1 PUSH1 0x40 MSTORE POP DUP2 ADD SWAP1 PUSH2 0x450 SWAP2 SWAP1 PUSH2 0x12B3 JUMP JUMPDEST PUSH1 0x40 MLOAD DUP4 PUSH4 0xFFFFFFFF AND PUSH1 0xE0 SHL DUP2 MSTORE PUSH1 0x4 ADD PUSH2 0x46D SWAP3 SWAP2 SWAP1 PUSH2 0x12ED JUMP JUMPDEST PUSH1 0x20 PUSH1 0x40 MLOAD DUP1 DUP4 SUB DUP2 PUSH0 DUP8 GAS CALL ISZERO DUP1 ISZERO PUSH2 0x489 JUMPI RETURNDATASIZE PUSH0 DUP1 RETURNDATACOPY RETURNDATASIZE PUSH0 REVERT JUMPDEST POP POP POP POP PUSH1 0x40 MLOAD RETURNDATASIZE PUSH1 0x1F NOT PUSH1 0x1F DUP3 ADD AND DUP3 ADD DUP1 PUSH1 0x40 MSTORE POP DUP2 ADD SWAP1 PUSH2 0x4AD SWAP2 SWAP1 PUSH2 0x12B3 JUMP JUMPDEST SWAP1 POP DUP2 PUSH1 0x6 PUSH0 PUSH2 0x100 EXP DUP2 SLOAD DUP2 PUSH20 0xFFFFFFFFFFFFFFFFFFFFFFFFFFFFFFFFFFFFFFFF MUL NOT AND SWAP1 DUP4 PUSH20 0xFFFFFFFFFFFFFFFFFFFFFFFFFFFFFFFFFFFFFFFF AND MUL OR SWAP1 SSTORE POP DUP1 PUSH1 0x7 PUSH0 PUSH2 0x100 EXP DUP2 SLOAD DUP2 PUSH20 0xFFFFFFFFFFFFFFFFFFFFFFFFFFFFFFFFFFFFFFFF MUL NOT AND SWAP1 DUP4 PUSH20 0xFFFFFFFFFFFFFFFFFFFFFFFFFFFFFFFFFFFFFFFF AND MUL OR SWAP1 SSTORE POP PUSH2 0x540 DUP2 PUSH1 0x1 PUSH2 0x994 PUSH1 0x20 SHL PUSH1 0x20 SHR JUMP JUMPDEST PUSH1 0x8 PUSH0 SWAP1 SLOAD SWAP1 PUSH2 0x100 EXP SWAP1 DIV PUSH20 0xFFFFFFFFFFFFFFFFFFFFFFFFFFFFFFFFFFFFFFFF AND PUSH20 0xFFFFFFFFFFFFFFFFFFFFFFFFFFFFFFFFFFFFFFFF AND PUSH4 0x44B6BD9E PUSH1 0x7 PUSH0 SWAP1 SLOAD SWAP1 PUSH2 0x100 EXP SWAP1 DIV PUSH20 0xFFFFFFFFFFFFFFFFFFFFFFFFFFFFFFFFFFFFFFFF AND PUSH1 0x40 MLOAD DUP3 PUSH4 0xFFFFFFFF AND PUSH1 0xE0 SHL DUP2 MSTORE PUSH1 0x4 ADD PUSH2 0x5BB SWAP2 SWAP1 PUSH2 0x1314 JUMP JUMPDEST PUSH0 PUSH1 0x40 MLOAD DUP1 DUP4 SUB DUP2 PUSH0 DUP8 DUP1 EXTCODESIZE ISZERO DUP1 ISZERO PUSH2 0x5D2 JUMPI PUSH0 DUP1 REVERT JUMPDEST POP GAS CALL ISZERO DUP1 ISZERO PUSH2 0x5E4 JUMPI RETURNDATASIZE PUSH0 DUP1 RETURNDATACOPY RETURNDATASIZE PUSH0 REVERT JUMPDEST POP POP POP POP PUSH1 0x8 PUSH0 SWAP1 SLOAD SWAP1 PUSH2 0x100 EXP SWAP1 DIV PUSH20 0xFFFFFFFFFFFFFFFFFFFFFFFFFFFFFFFFFFFFFFFF AND PUSH20 0xFFFFFFFFFFFFFFFFFFFFFFFFFFFFFFFFFFFFFFFF AND PUSH4 0x483F7A0 PUSH1 0x8 PUSH0 SWAP1 SLOAD SWAP1 PUSH2 0x100 EXP SWAP1 DIV PUSH20 0xFFFFFFFFFFFFFFFFFFFFFFFFFFFFFFFFFFFFFFFF AND PUSH1 0x1 PUSH1 0x40 MLOAD DUP4 PUSH4 0xFFFFFFFF AND PUSH1 0xE0 SHL DUP2 MSTORE PUSH1 0x4 ADD PUSH2 0x666 SWAP3 SWAP2 SWAP1 PUSH2 0x1347 JUMP JUMPDEST PUSH0 PUSH1 0x40 MLOAD DUP1 DUP4 SUB DUP2 PUSH0 DUP8 DUP1 EXTCODESIZE ISZERO DUP1 ISZERO PUSH2 0x67D JUMPI PUSH0 DUP1 REVERT JUMPDEST POP GAS CALL ISZERO DUP1 ISZERO PUSH2 0x68F JUMPI RETURNDATASIZE PUSH0 DUP1 RETURNDATACOPY RETURNDATASIZE PUSH0 REVERT JUMPDEST POP POP POP POP PUSH1 0x8 PUSH0 SWAP1 SLOAD SWAP1 PUSH2 0x100 EXP SWAP1 DIV PUSH20 0xFFFFFFFFFFFFFFFFFFFFFFFFFFFFFFFFFFFFFFFF AND PUSH20 0xFFFFFFFFFFFFFFFFFFFFFFFFFFFFFFFFFFFFFFFF AND PUSH4 0x483F7A0 ADDRESS PUSH1 0x1 PUSH1 0x40 MLOAD DUP4 PUSH4 0xFFFFFFFF AND PUSH1 0xE0 SHL DUP2 MSTORE PUSH1 0x4 ADD PUSH2 0x6F0 SWAP3 SWAP2 SWAP1 PUSH2 0x1347 JUMP JUMPDEST PUSH0 PUSH1 0x40 MLOAD DUP1 DUP4 SUB DUP2 PUSH0 DUP8 DUP1 EXTCODESIZE ISZERO DUP1 ISZERO PUSH2 0x707 JUMPI PUSH0 DUP1 REVERT JUMPDEST POP GAS CALL ISZERO DUP1 ISZERO PUSH2 0x719 JUMPI RETURNDATASIZE PUSH0 DUP1 RETURNDATACOPY RETURNDATASIZE PUSH0 REVERT JUMPDEST POP POP POP POP PUSH1 0x8 PUSH0 SWAP1 SLOAD SWAP1 PUSH2 0x100 EXP SWAP1 DIV PUSH20 0xFFFFFFFFFFFFFFFFFFFFFFFFFFFFFFFFFFFFFFFF AND PUSH20 0xFFFFFFFFFFFFFFFFFFFFFFFFFFFFFFFFFFFFFFFF AND PUSH4 0x483F7A0 PUSH2 0x768 PUSH2 0xB52 PUSH1 0x20 SHL PUSH1 0x20 SHR JUMP JUMPDEST PUSH1 0x1 PUSH1 0x40 MLOAD DUP4 PUSH4 0xFFFFFFFF AND PUSH1 0xE0 SHL DUP2 MSTORE PUSH1 0x4 ADD PUSH2 0x787 SWAP3 SWAP2 SWAP1 PUSH2 0x1347 JUMP JUMPDEST PUSH0 PUSH1 0x40 MLOAD DUP1 DUP4 SUB DUP2 PUSH0 DUP8 DUP1 EXTCODESIZE ISZERO DUP1 ISZERO PUSH2 0x79E JUMPI PUSH0 DUP1 REVERT JUMPDEST POP GAS CALL ISZERO DUP1 ISZERO PUSH2 0x7B0 JUMPI RETURNDATASIZE PUSH0 DUP1 RETURNDATACOPY RETURNDATASIZE PUSH0 REVERT JUMPDEST POP POP POP POP PUSH1 0x8 PUSH0 SWAP1 SLOAD SWAP1 PUSH2 0x100 EXP SWAP1 DIV PUSH20 0xFFFFFFFFFFFFFFFFFFFFFFFFFFFFFFFFFFFFFFFF AND PUSH20 0xFFFFFFFFFFFFFFFFFFFFFFFFFFFFFFFFFFFFFFFF AND PUSH4 0x483F7A0 PUSH2 0xDEAD PUSH1 0x1 PUSH1 0x40 MLOAD DUP4 PUSH4 0xFFFFFFFF AND PUSH1 0xE0 SHL DUP2 MSTORE PUSH1 0x4 ADD PUSH2 0x813 SWAP3 SWAP2 SWAP1 PUSH2 0x1347 JUMP JUMPDEST PUSH0 PUSH1 0x40 MLOAD DUP1 DUP4 SUB DUP2 PUSH0 DUP8 DUP1 EXTCODESIZE ISZERO DUP1 ISZERO PUSH2 0x82A JUMPI PUSH0 DUP1 REVERT JUMPDEST POP GAS CALL ISZERO DUP1 ISZERO PUSH2 0x83C JUMPI RETURNDATASIZE PUSH0 DUP1 RETURNDATACOPY RETURNDATASIZE PUSH0 REVERT JUMPDEST POP POP POP POP PUSH1 0x8 PUSH0 SWAP1 SLOAD SWAP1 PUSH2 0x100 EXP SWAP1 DIV PUSH20 0xFFFFFFFFFFFFFFFFFFFFFFFFFFFFFFFFFFFFFFFF AND PUSH20 0xFFFFFFFFFFFFFFFFFFFFFFFFFFFFFFFFFFFFFFFF AND PUSH4 0x483F7A0 DUP4 PUSH1 0x1 PUSH1 0x40 MLOAD DUP4 PUSH4 0xFFFFFFFF AND PUSH1 0xE0 SHL DUP2 MSTORE PUSH1 0x4 ADD PUSH2 0x89D SWAP3 SWAP2 SWAP1 PUSH2 0x1347 JUMP JUMPDEST PUSH0 PUSH1 0x40 MLOAD DUP1 DUP4 SUB DUP2 PUSH0 DUP8 DUP1 EXTCODESIZE ISZERO DUP1 ISZERO PUSH2 0x8B4 JUMPI PUSH0 DUP1 REVERT JUMPDEST POP GAS CALL ISZERO DUP1 ISZERO PUSH2 0x8C6 JUMPI RETURNDATASIZE PUSH0 DUP1 RETURNDATACOPY RETURNDATASIZE PUSH0 REVERT JUMPDEST POP POP POP POP PUSH2 0x8E8 PUSH2 0x8DB PUSH2 0xB52 PUSH1 0x20 SHL PUSH1 0x20 SHR JUMP JUMPDEST PUSH1 0x1 PUSH2 0xB7A PUSH1 0x20 SHL PUSH1 0x20 SHR JUMP JUMPDEST PUSH2 0x8F9 ADDRESS PUSH1 0x1 PUSH2 0xB7A PUSH1 0x20 SHL PUSH1 0x20 SHR JUMP JUMPDEST PUSH2 0x92B PUSH1 0x9 PUSH0 SWAP1 SLOAD SWAP1 PUSH2 0x100 EXP SWAP1 DIV PUSH20 0xFFFFFFFFFFFFFFFFFFFFFFFFFFFFFFFFFFFFFFFF AND PUSH1 0x1 PUSH2 0xB7A PUSH1 0x20 SHL PUSH1 0x20 SHR JUMP JUMPDEST PUSH2 0x95D PUSH1 0xA PUSH0 SWAP1 SLOAD SWAP1 PUSH2 0x100 EXP SWAP1 DIV PUSH20 0xFFFFFFFFFFFFFFFFFFFFFFFFFFFFFFFFFFFFFFFF AND PUSH1 0x1 PUSH2 0xB7A PUSH1 0x20 SHL PUSH1 0x20 SHR JUMP JUMPDEST PUSH2 0x986 PUSH2 0x96E PUSH2 0xB52 PUSH1 0x20 SHL PUSH1 0x20 SHR JUMP JUMPDEST PUSH12 0x204FCE5E3E25026110000000 PUSH2 0xD4B PUSH1 0x20 SHL PUSH1 0x20 SHR JUMP JUMPDEST POP POP PUSH2 0x1673 JUMP JUMPDEST PUSH0 CALLER SWAP1 POP SWAP1 JUMP JUMPDEST DUP1 ISZERO ISZERO PUSH1 0x1A PUSH0 DUP5 PUSH20 0xFFFFFFFFFFFFFFFFFFFFFFFFFFFFFFFFFFFFFFFF AND PUSH20 0xFFFFFFFFFFFFFFFFFFFFFFFFFFFFFFFFFFFFFFFF AND DUP2 MSTORE PUSH1 0x20 ADD SWAP1 DUP2 MSTORE PUSH1 0x20 ADD PUSH0 KECCAK256 PUSH0 SWAP1 SLOAD SWAP1 PUSH2 0x100 EXP SWAP1 DIV PUSH1 0xFF AND ISZERO ISZERO SUB PUSH2 0xA23 JUMPI PUSH1 0x40 MLOAD PUSH32 0x8C379A000000000000000000000000000000000000000000000000000000000 DUP2 MSTORE PUSH1 0x4 ADD PUSH2 0xA1A SWAP1 PUSH2 0x13EE JUMP JUMPDEST PUSH1 0x40 MLOAD DUP1 SWAP2 SUB SWAP1 REVERT JUMPDEST DUP1 PUSH1 0x1A PUSH0 DUP5 PUSH20 0xFFFFFFFFFFFFFFFFFFFFFFFFFFFFFFFFFFFFFFFF AND PUSH20 0xFFFFFFFFFFFFFFFFFFFFFFFFFFFFFFFFFFFFFFFF AND DUP2 MSTORE PUSH1 0x20 ADD SWAP1 DUP2 MSTORE PUSH1 0x20 ADD PUSH0 KECCAK256 PUSH0 PUSH2 0x100 EXP DUP2 SLOAD DUP2 PUSH1 0xFF MUL NOT AND SWAP1 DUP4 ISZERO ISZERO MUL OR SWAP1 SSTORE POP DUP1 ISZERO PUSH2 0xB08 JUMPI PUSH1 0x8 PUSH0 SWAP1 SLOAD SWAP1 PUSH2 0x100 EXP SWAP1 DIV PUSH20 0xFFFFFFFFFFFFFFFFFFFFFFFFFFFFFFFFFFFFFFFF AND PUSH20 0xFFFFFFFFFFFFFFFFFFFFFFFFFFFFFFFFFFFFFFFF AND PUSH4 0x483F7A0 DUP4 PUSH1 0x1 PUSH1 0x40 MLOAD DUP4 PUSH4 0xFFFFFFFF AND PUSH1 0xE0 SHL DUP2 MSTORE PUSH1 0x4 ADD PUSH2 0xADA SWAP3 SWAP2 SWAP1 PUSH2 0x1347 JUMP JUMPDEST PUSH0 PUSH1 0x40 MLOAD DUP1 DUP4 SUB DUP2 PUSH0 DUP8 DUP1 EXTCODESIZE ISZERO DUP1 ISZERO PUSH2 0xAF1 JUMPI PUSH0 DUP1 REVERT JUMPDEST POP GAS CALL ISZERO DUP1 ISZERO PUSH2 0xB03 JUMPI RETURNDATASIZE PUSH0 DUP1 RETURNDATACOPY RETURNDATASIZE PUSH0 REVERT JUMPDEST POP POP POP POP JUMPDEST DUP1 ISZERO ISZERO DUP3 PUSH20 0xFFFFFFFFFFFFFFFFFFFFFFFFFFFFFFFFFFFFFFFF AND PUSH32 0xFFA9187BF1F18BF477BD0EA1BCBB64E93B6A98132473929EDFCE215CD9B16FAB PUSH1 0x40 MLOAD PUSH1 0x40 MLOAD DUP1 SWAP2 SUB SWAP1 LOG3 POP POP JUMP JUMPDEST PUSH0 PUSH1 0x5 PUSH0 SWAP1 SLOAD SWAP1 PUSH2 0x100 EXP SWAP1 DIV PUSH20 0xFFFFFFFFFFFFFFFFFFFFFFFFFFFFFFFFFFFFFFFF AND SWAP1 POP SWAP1 JUMP JUMPDEST PUSH2 0xB88 PUSH2 0x98D PUSH1 0x20 SHL PUSH1 0x20 SHR JUMP JUMPDEST PUSH20 0xFFFFFFFFFFFFFFFFFFFFFFFFFFFFFFFFFFFFFFFF AND PUSH1 0x5 PUSH0 SWAP1 SLOAD SWAP1 PUSH2 0x100 EXP SWAP1 DIV PUSH20 0xFFFFFFFFFFFFFFFFFFFFFFFFFFFFFFFFFFFFFFFF AND PUSH20 0xFFFFFFFFFFFFFFFFFFFFFFFFFFFFFFFFFFFFFFFF AND EQ PUSH2 0xC16 JUMPI PUSH1 0x40 MLOAD PUSH32 0x8C379A000000000000000000000000000000000000000000000000000000000 DUP2 MSTORE PUSH1 0x4 ADD PUSH2 0xC0D SWAP1 PUSH2 0x1456 JUMP JUMPDEST PUSH1 0x40 MLOAD DUP1 SWAP2 SUB SWAP1 REVERT JUMPDEST DUP1 ISZERO ISZERO PUSH1 0x19 PUSH0 DUP5 PUSH20 0xFFFFFFFFFFFFFFFFFFFFFFFFFFFFFFFFFFFFFFFF AND PUSH20 0xFFFFFFFFFFFFFFFFFFFFFFFFFFFFFFFFFFFFFFFF AND DUP2 MSTORE PUSH1 0x20 ADD SWAP1 DUP2 MSTORE PUSH1 0x20 ADD PUSH0 KECCAK256 PUSH0 SWAP1 SLOAD SWAP1 PUSH2 0x100 EXP SWAP1 DIV PUSH1 0xFF AND ISZERO ISZERO SUB PUSH2 0xCA5 JUMPI PUSH1 0x40 MLOAD PUSH32 0x8C379A000000000000000000000000000000000000000000000000000000000 DUP2 MSTORE PUSH1 0x4 ADD PUSH2 0xC9C SWAP1 PUSH2 0x14E4 JUMP JUMPDEST PUSH1 0x40 MLOAD DUP1 SWAP2 SUB SWAP1 REVERT JUMPDEST DUP1 PUSH1 0x19 PUSH0 DUP5 PUSH20 0xFFFFFFFFFFFFFFFFFFFFFFFFFFFFFFFFFFFFFFFF AND PUSH20 0xFFFFFFFFFFFFFFFFFFFFFFFFFFFFFFFFFFFFFFFF AND DUP2 MSTORE PUSH1 0x20 ADD SWAP1 DUP2 MSTORE PUSH1 0x20 ADD PUSH0 KECCAK256 PUSH0 PUSH2 0x100 EXP DUP2 SLOAD DUP2 PUSH1 0xFF MUL NOT AND SWAP1 DUP4 ISZERO ISZERO MUL OR SWAP1 SSTORE POP DUP2 PUSH20 0xFFFFFFFFFFFFFFFFFFFFFFFFFFFFFFFFFFFFFFFF AND PUSH32 0x9D8F7706EA1113D1A167B526ECA956215946DD36CC7DF39EB16180222D8B5DF7 DUP3 PUSH1 0x40 MLOAD PUSH2 0xD3F SWAP2 SWAP1 PUSH2 0x1502 JUMP JUMPDEST PUSH1 0x40 MLOAD DUP1 SWAP2 SUB SWAP1 LOG2 POP POP JUMP JUMPDEST PUSH0 PUSH20 0xFFFFFFFFFFFFFFFFFFFFFFFFFFFFFFFFFFFFFFFF AND DUP3 PUSH20 0xFFFFFFFFFFFFFFFFFFFFFFFFFFFFFFFFFFFFFFFF AND SUB PUSH2 0xDB9 JUMPI PUSH1 0x40 MLOAD PUSH32 0x8C379A000000000000000000000000000000000000000000000000000000000 DUP2 MSTORE PUSH1 0x4 ADD PUSH2 0xDB0 SWAP1 PUSH2 0x1565 JUMP JUMPDEST PUSH1 0x40 MLOAD DUP1 SWAP2 SUB SWAP1 REVERT JUMPDEST PUSH2 0xDCA PUSH0 DUP4 DUP4 PUSH2 0xEDD PUSH1 0x20 SHL PUSH1 0x20 SHR JUMP JUMPDEST PUSH2 0xDDF DUP2 PUSH1 0x2 SLOAD PUSH2 0xEE2 PUSH1 0x20 SHL SWAP1 SWAP2 SWAP1 PUSH1 0x20 SHR JUMP JUMPDEST PUSH1 0x2 DUP2 SWAP1 SSTORE POP PUSH2 0xE34 DUP2 PUSH0 DUP1 DUP6 PUSH20 0xFFFFFFFFFFFFFFFFFFFFFFFFFFFFFFFFFFFFFFFF AND PUSH20 0xFFFFFFFFFFFFFFFFFFFFFFFFFFFFFFFFFFFFFFFF AND DUP2 MSTORE PUSH1 0x20 ADD SWAP1 DUP2 MSTORE PUSH1 0x20 ADD PUSH0 KECCAK256 SLOAD PUSH2 0xEE2 PUSH1 0x20 SHL SWAP1 SWAP2 SWAP1 PUSH1 0x20 SHR JUMP JUMPDEST PUSH0 DUP1 DUP5 PUSH20 0xFFFFFFFFFFFFFFFFFFFFFFFFFFFFFFFFFFFFFFFF AND PUSH20 0xFFFFFFFFFFFFFFFFFFFFFFFFFFFFFFFFFFFFFFFF AND DUP2 MSTORE PUSH1 0x20 ADD SWAP1 DUP2 MSTORE PUSH1 0x20 ADD PUSH0 KECCAK256 DUP2 SWAP1 SSTORE POP DUP2 PUSH20 0xFFFFFFFFFFFFFFFFFFFFFFFFFFFFFFFFFFFFFFFF AND PUSH0 PUSH20 0xFFFFFFFFFFFFFFFFFFFFFFFFFFFFFFFFFFFFFFFF AND PUSH32 0xDDF252AD1BE2C89B69C2B068FC378DAA952BA7F163C4A11628F55A4DF523B3EF DUP4 PUSH1 0x40 MLOAD PUSH2 0xED1 SWAP2 SWAP1 PUSH2 0x1592 JUMP JUMPDEST PUSH1 0x40 MLOAD DUP1 SWAP2 SUB SWAP1 LOG3 POP POP JUMP JUMPDEST POP POP POP JUMP JUMPDEST PUSH0 DUP1 DUP3 DUP5 PUSH2 0xEF0 SWAP2 SWAP1 PUSH2 0x15D8 JUMP JUMPDEST SWAP1 POP DUP4 DUP2 LT ISZERO PUSH2 0xF35 JUMPI PUSH1 0x40 MLOAD PUSH32 0x8C379A000000000000000000000000000000000000000000000000000000000 DUP2 MSTORE PUSH1 0x4 ADD PUSH2 0xF2C SWAP1 PUSH2 0x1655 JUMP JUMPDEST PUSH1 0x40 MLOAD DUP1 SWAP2 SUB SWAP1 REVERT JUMPDEST DUP1 SWAP2 POP POP SWAP3 SWAP2 POP POP JUMP JUMPDEST PUSH2 0x38B7 DUP1 PUSH2 0x7D24 DUP4 CODECOPY ADD SWAP1 JUMP JUMPDEST PUSH0 DUP2 MLOAD SWAP1 POP SWAP2 SWAP1 POP JUMP JUMPDEST PUSH32 0x4E487B7100000000000000000000000000000000000000000000000000000000 PUSH0 MSTORE PUSH1 0x41 PUSH1 0x4 MSTORE PUSH1 0x24 PUSH0 REVERT JUMPDEST PUSH32 0x4E487B7100000000000000000000000000000000000000000000000000000000 PUSH0 MSTORE PUSH1 0x22 PUSH1 0x4 MSTORE PUSH1 0x24 PUSH0 REVERT JUMPDEST PUSH0 PUSH1 0x2 DUP3 DIV SWAP1 POP PUSH1 0x1 DUP3 AND DUP1 PUSH2 0xFC7 JUMPI PUSH1 0x7F DUP3 AND SWAP2 POP JUMPDEST PUSH1 0x20 DUP3 LT DUP2 SUB PUSH2 0xFDA JUMPI PUSH2 0xFD9 PUSH2 0xF83 JUMP JUMPDEST JUMPDEST POP SWAP2 SWAP1 POP JUMP JUMPDEST PUSH0 DUP2 SWAP1 POP DUP2 PUSH0 MSTORE PUSH1 0x20 PUSH0 KECCAK256 SWAP1 POP SWAP2 SWAP1 POP JUMP JUMPDEST PUSH0 PUSH1 0x20 PUSH1 0x1F DUP4 ADD DIV SWAP1 POP SWAP2 SWAP1 POP JUMP JUMPDEST PUSH0 DUP3 DUP3 SHL SWAP1 POP SWAP3 SWAP2 POP POP JUMP JUMPDEST PUSH0 PUSH1 0x8 DUP4 MUL PUSH2 0x103C PUSH32 0xFFFFFFFFFFFFFFFFFFFFFFFFFFFFFFFFFFFFFFFFFFFFFFFFFFFFFFFFFFFFFFFF DUP3 PUSH2 0x1001 JUMP JUMPDEST PUSH2 0x1046 DUP7 DUP4 PUSH2 0x1001 JUMP JUMPDEST SWAP6 POP DUP1 NOT DUP5 AND SWAP4 POP DUP1 DUP7 AND DUP5 OR SWAP3 POP POP POP SWAP4 SWAP3 POP POP POP JUMP JUMPDEST PUSH0 DUP2 SWAP1 POP SWAP2 SWAP1 POP JUMP JUMPDEST PUSH0 DUP2 SWAP1 POP SWAP2 SWAP1 POP JUMP JUMPDEST PUSH0 PUSH2 0x108A PUSH2 0x1085 PUSH2 0x1080 DUP5 PUSH2 0x105E JUMP JUMPDEST PUSH2 0x1067 JUMP JUMPDEST PUSH2 0x105E JUMP JUMPDEST SWAP1 POP SWAP2 SWAP1 POP JUMP JUMPDEST PUSH0 DUP2 SWAP1 POP SWAP2 SWAP1 POP JUMP JUMPDEST PUSH2 0x10A3 DUP4 PUSH2 0x1070 JUMP JUMPDEST PUSH2 0x10B7 PUSH2 0x10AF DUP3 PUSH2 0x1091 JUMP JUMPDEST DUP5 DUP5 SLOAD PUSH2 0x100D JUMP JUMPDEST DUP3 SSTORE POP POP POP POP JUMP JUMPDEST PUSH0 SWAP1 JUMP JUMPDEST PUSH2 0x10CB PUSH2 0x10BF JUMP JUMPDEST PUSH2 0x10D6 DUP2 DUP5 DUP5 PUSH2 0x109A JUMP JUMPDEST POP POP POP JUMP JUMPDEST JUMPDEST DUP2 DUP2 LT ISZERO PUSH2 0x10F9 JUMPI PUSH2 0x10EE PUSH0 DUP3 PUSH2 0x10C3 JUMP JUMPDEST PUSH1 0x1 DUP2 ADD SWAP1 POP PUSH2 0x10DC JUMP JUMPDEST POP POP JUMP JUMPDEST PUSH1 0x1F DUP3 GT ISZERO PUSH2 0x113E JUMPI PUSH2 0x110F DUP2 PUSH2 0xFE0 JUMP JUMPDEST PUSH2 0x1118 DUP5 PUSH2 0xFF2 JUMP JUMPDEST DUP2 ADD PUSH1 0x20 DUP6 LT ISZERO PUSH2 0x1127 JUMPI DUP2 SWAP1 POP JUMPDEST PUSH2 0x113B PUSH2 0x1133 DUP6 PUSH2 0xFF2 JUMP JUMPDEST DUP4 ADD DUP3 PUSH2 0x10DB JUMP JUMPDEST POP POP JUMPDEST POP POP POP JUMP JUMPDEST PUSH0 DUP3 DUP3 SHR SWAP1 POP SWAP3 SWAP2 POP POP JUMP JUMPDEST PUSH0 PUSH2 0x115E PUSH0 NOT DUP5 PUSH1 0x8 MUL PUSH2 0x1143 JUMP JUMPDEST NOT DUP1 DUP4 AND SWAP2 POP POP SWAP3 SWAP2 POP POP JUMP JUMPDEST PUSH0 PUSH2 0x1176 DUP4 DUP4 PUSH2 0x114F JUMP JUMPDEST SWAP2 POP DUP3 PUSH1 0x2 MUL DUP3 OR SWAP1 POP SWAP3 SWAP2 POP POP JUMP JUMPDEST PUSH2 0x118F DUP3 PUSH2 0xF4C JUMP JUMPDEST PUSH8 0xFFFFFFFFFFFFFFFF DUP2 GT ISZERO PUSH2 0x11A8 JUMPI PUSH2 0x11A7 PUSH2 0xF56 JUMP JUMPDEST JUMPDEST PUSH2 0x11B2 DUP3 SLOAD PUSH2 0xFB0 JUMP JUMPDEST PUSH2 0x11BD DUP3 DUP3 DUP6 PUSH2 0x10FD JUMP JUMPDEST PUSH0 PUSH1 0x20 SWAP1 POP PUSH1 0x1F DUP4 GT PUSH1 0x1 DUP2 EQ PUSH2 0x11EE JUMPI PUSH0 DUP5 ISZERO PUSH2 0x11DC JUMPI DUP3 DUP8 ADD MLOAD SWAP1 POP JUMPDEST PUSH2 0x11E6 DUP6 DUP3 PUSH2 0x116B JUMP JUMPDEST DUP7 SSTORE POP PUSH2 0x124D JUMP JUMPDEST PUSH1 0x1F NOT DUP5 AND PUSH2 0x11FC DUP7 PUSH2 0xFE0 JUMP JUMPDEST PUSH0 JUMPDEST DUP3 DUP2 LT ISZERO PUSH2 0x1223 JUMPI DUP5 DUP10 ADD MLOAD DUP3 SSTORE PUSH1 0x1 DUP3 ADD SWAP2 POP PUSH1 0x20 DUP6 ADD SWAP5 POP PUSH1 0x20 DUP2 ADD SWAP1 POP PUSH2 0x11FE JUMP JUMPDEST DUP7 DUP4 LT ISZERO PUSH2 0x1240 JUMPI DUP5 DUP10 ADD MLOAD PUSH2 0x123C PUSH1 0x1F DUP10 AND DUP3 PUSH2 0x114F JUMP JUMPDEST DUP4 SSTORE POP JUMPDEST PUSH1 0x1 PUSH1 0x2 DUP9 MUL ADD DUP9 SSTORE POP POP POP JUMPDEST POP POP POP POP POP POP JUMP JUMPDEST PUSH0 DUP1 REVERT JUMPDEST PUSH0 PUSH20 0xFFFFFFFFFFFFFFFFFFFFFFFFFFFFFFFFFFFFFFFF DUP3 AND SWAP1 POP SWAP2 SWAP1 POP JUMP JUMPDEST PUSH0 PUSH2 0x1282 DUP3 PUSH2 0x1259 JUMP JUMPDEST SWAP1 POP SWAP2 SWAP1 POP JUMP JUMPDEST PUSH2 0x1292 DUP2 PUSH2 0x1278 JUMP JUMPDEST DUP2 EQ PUSH2 0x129C JUMPI PUSH0 DUP1 REVERT JUMPDEST POP JUMP JUMPDEST PUSH0 DUP2 MLOAD SWAP1 POP PUSH2 0x12AD DUP2 PUSH2 0x1289 JUMP JUMPDEST SWAP3 SWAP2 POP POP JUMP JUMPDEST PUSH0 PUSH1 0x20 DUP3 DUP5 SUB SLT ISZERO PUSH2 0x12C8 JUMPI PUSH2 0x12C7 PUSH2 0x1255 JUMP JUMPDEST JUMPDEST PUSH0 PUSH2 0x12D5 DUP5 DUP3 DUP6 ADD PUSH2 0x129F JUMP JUMPDEST SWAP2 POP POP SWAP3 SWAP2 POP POP JUMP JUMPDEST PUSH2 0x12E7 DUP2 PUSH2 0x1278 JUMP JUMPDEST DUP3 MSTORE POP POP JUMP JUMPDEST PUSH0 PUSH1 0x40 DUP3 ADD SWAP1 POP PUSH2 0x1300 PUSH0 DUP4 ADD DUP6 PUSH2 0x12DE JUMP JUMPDEST PUSH2 0x130D PUSH1 0x20 DUP4 ADD DUP5 PUSH2 0x12DE JUMP JUMPDEST SWAP4 SWAP3 POP POP POP JUMP JUMPDEST PUSH0 PUSH1 0x20 DUP3 ADD SWAP1 POP PUSH2 0x1327 PUSH0 DUP4 ADD DUP5 PUSH2 0x12DE JUMP JUMPDEST SWAP3 SWAP2 POP POP JUMP JUMPDEST PUSH0 DUP2 ISZERO ISZERO SWAP1 POP SWAP2 SWAP1 POP JUMP JUMPDEST PUSH2 0x1341 DUP2 PUSH2 0x132D JUMP JUMPDEST DUP3 MSTORE POP POP JUMP JUMPDEST PUSH0 PUSH1 0x40 DUP3 ADD SWAP1 POP PUSH2 0x135A PUSH0 DUP4 ADD DUP6 PUSH2 0x12DE JUMP JUMPDEST PUSH2 0x1367 PUSH1 0x20 DUP4 ADD DUP5 PUSH2 0x1338 JUMP JUMPDEST SWAP4 SWAP3 POP POP POP JUMP JUMPDEST PUSH0 DUP3 DUP3 MSTORE PUSH1 0x20 DUP3 ADD SWAP1 POP SWAP3 SWAP2 POP POP JUMP JUMPDEST PUSH32 0x564952414C3A204175746F6D61746564206D61726B6574206D616B6572207061 PUSH0 DUP3 ADD MSTORE PUSH32 0x697220697320616C72656164792073657420746F20746861742076616C756500 PUSH1 0x20 DUP3 ADD MSTORE POP JUMP JUMPDEST PUSH0 PUSH2 0x13D8 PUSH1 0x3F DUP4 PUSH2 0x136E JUMP JUMPDEST SWAP2 POP PUSH2 0x13E3 DUP3 PUSH2 0x137E JUMP JUMPDEST PUSH1 0x40 DUP3 ADD SWAP1 POP SWAP2 SWAP1 POP JUMP JUMPDEST PUSH0 PUSH1 0x20 DUP3 ADD SWAP1 POP DUP2 DUP2 SUB PUSH0 DUP4 ADD MSTORE PUSH2 0x1405 DUP2 PUSH2 0x13CC JUMP JUMPDEST SWAP1 POP SWAP2 SWAP1 POP JUMP JUMPDEST PUSH32 0x4F776E61626C653A2063616C6C6572206973206E6F7420746865206F776E6572 PUSH0 DUP3 ADD MSTORE POP JUMP JUMPDEST PUSH0 PUSH2 0x1440 PUSH1 0x20 DUP4 PUSH2 0x136E JUMP JUMPDEST SWAP2 POP PUSH2 0x144B DUP3 PUSH2 0x140C JUMP JUMPDEST PUSH1 0x20 DUP3 ADD SWAP1 POP SWAP2 SWAP1 POP JUMP JUMPDEST PUSH0 PUSH1 0x20 DUP3 ADD SWAP1 POP DUP2 DUP2 SUB PUSH0 DUP4 ADD MSTORE PUSH2 0x146D DUP2 PUSH2 0x1434 JUMP JUMPDEST SWAP1 POP SWAP2 SWAP1 POP JUMP JUMPDEST PUSH32 0x564952414C3A204163636F756E7420697320616C726561647920746865207661 PUSH0 DUP3 ADD MSTORE PUSH32 0x6C7565206F6620276578636C7564656427000000000000000000000000000000 PUSH1 0x20 DUP3 ADD MSTORE POP JUMP JUMPDEST PUSH0 PUSH2 0x14CE PUSH1 0x31 DUP4 PUSH2 0x136E JUMP JUMPDEST SWAP2 POP PUSH2 0x14D9 DUP3 PUSH2 0x1474 JUMP JUMPDEST PUSH1 0x40 DUP3 ADD SWAP1 POP SWAP2 SWAP1 POP JUMP JUMPDEST PUSH0 PUSH1 0x20 DUP3 ADD SWAP1 POP DUP2 DUP2 SUB PUSH0 DUP4 ADD MSTORE PUSH2 0x14FB DUP2 PUSH2 0x14C2 JUMP JUMPDEST SWAP1 POP SWAP2 SWAP1 POP JUMP JUMPDEST PUSH0 PUSH1 0x20 DUP3 ADD SWAP1 POP PUSH2 0x1515 PUSH0 DUP4 ADD DUP5 PUSH2 0x1338 JUMP JUMPDEST SWAP3 SWAP2 POP POP JUMP JUMPDEST PUSH32 0x45524332303A206D696E7420746F20746865207A65726F206164647265737300 PUSH0 DUP3 ADD MSTORE POP JUMP JUMPDEST PUSH0 PUSH2 0x154F PUSH1 0x1F DUP4 PUSH2 0x136E JUMP JUMPDEST SWAP2 POP PUSH2 0x155A DUP3 PUSH2 0x151B JUMP JUMPDEST PUSH1 0x20 DUP3 ADD SWAP1 POP SWAP2 SWAP1 POP JUMP JUMPDEST PUSH0 PUSH1 0x20 DUP3 ADD SWAP1 POP DUP2 DUP2 SUB PUSH0 DUP4 ADD MSTORE PUSH2 0x157C DUP2 PUSH2 0x1543 JUMP JUMPDEST SWAP1 POP SWAP2 SWAP1 POP JUMP JUMPDEST PUSH2 0x158C DUP2 PUSH2 0x105E JUMP JUMPDEST DUP3 MSTORE POP POP JUMP JUMPDEST PUSH0 PUSH1 0x20 DUP3 ADD SWAP1 POP PUSH2 0x15A5 PUSH0 DUP4 ADD DUP5 PUSH2 0x1583 JUMP JUMPDEST SWAP3 SWAP2 POP POP JUMP JUMPDEST PUSH32 0x4E487B7100000000000000000000000000000000000000000000000000000000 PUSH0 MSTORE PUSH1 0x11 PUSH1 0x4 MSTORE PUSH1 0x24 PUSH0 REVERT JUMPDEST PUSH0 PUSH2 0x15E2 DUP3 PUSH2 0x105E JUMP JUMPDEST SWAP2 POP PUSH2 0x15ED DUP4 PUSH2 0x105E JUMP JUMPDEST SWAP3 POP DUP3 DUP3 ADD SWAP1 POP DUP1 DUP3 GT ISZERO PUSH2 0x1605 JUMPI PUSH2 0x1604 PUSH2 0x15AB JUMP JUMPDEST JUMPDEST SWAP3 SWAP2 POP POP JUMP JUMPDEST PUSH32 0x536166654D6174683A206164646974696F6E206F766572666C6F770000000000 PUSH0 DUP3 ADD MSTORE POP JUMP JUMPDEST PUSH0 PUSH2 0x163F PUSH1 0x1B DUP4 PUSH2 0x136E JUMP JUMPDEST SWAP2 POP PUSH2 0x164A DUP3 PUSH2 0x160B JUMP JUMPDEST PUSH1 0x20 DUP3 ADD SWAP1 POP SWAP2 SWAP1 POP JUMP JUMPDEST PUSH0 PUSH1 0x20 DUP3 ADD SWAP1 POP DUP2 DUP2 SUB PUSH0 DUP4 ADD MSTORE PUSH2 0x166C DUP2 PUSH2 0x1633 JUMP JUMPDEST SWAP1 POP SWAP2 SWAP1 POP JUMP JUMPDEST PUSH2 0x66A4 DUP1 PUSH2 0x1680 PUSH0 CODECOPY PUSH0 RETURN INVALID PUSH1 0x80 PUSH1 0x40 MSTORE PUSH1 0x4 CALLDATASIZE LT PUSH2 0x39A JUMPI PUSH0 CALLDATALOAD PUSH1 0xE0 SHR DUP1 PUSH4 0x864701A5 GT PUSH2 0x1DB JUMPI DUP1 PUSH4 0xAFA4F3B2 GT PUSH2 0x101 JUMPI DUP1 PUSH4 0xE01AF92C GT PUSH2 0x9F JUMPI DUP1 PUSH4 0xF2FDE38B GT PUSH2 0x6E JUMPI DUP1 PUSH4 0xF2FDE38B EQ PUSH2 0xD3C JUMPI DUP1 PUSH4 0xF480FEC2 EQ PUSH2 0xD64 JUMPI DUP1 PUSH4 0xF66895A3 EQ PUSH2 0xD8C JUMPI DUP1 PUSH4 0xF887EA40 EQ PUSH2 0xDB9 JUMPI PUSH2 0x3A1 JUMP JUMPDEST DUP1 PUSH4 0xE01AF92C EQ PUSH2 0xCAC JUMPI DUP1 PUSH4 0xE11C3368 EQ PUSH2 0xCD4 JUMPI DUP1 PUSH4 0xE2F45605 EQ PUSH2 0xCEA JUMPI DUP1 PUSH4 0xE4BF1BED EQ PUSH2 0xD14 JUMPI PUSH2 0x3A1 JUMP JUMPDEST DUP1 PUSH4 0xC0246668 GT PUSH2 0xDB JUMPI DUP1 PUSH4 0xC0246668 EQ PUSH2 0xBF8 JUMPI DUP1 PUSH4 0xC492F046 EQ PUSH2 0xC20 JUMPI DUP1 PUSH4 0xC851CC32 EQ PUSH2 0xC48 JUMPI DUP1 PUSH4 0xDD62ED3E EQ PUSH2 0xC70 JUMPI PUSH2 0x3A1 JUMP JUMPDEST DUP1 PUSH4 0xAFA4F3B2 EQ PUSH2 0xB6C JUMPI DUP1 PUSH4 0xB62496F5 EQ PUSH2 0xB94 JUMPI DUP1 PUSH4 0xB83B297F EQ PUSH2 0xBD0 JUMPI PUSH2 0x3A1 JUMP JUMPDEST DUP1 PUSH4 0x95D89B41 GT PUSH2 0x179 JUMPI DUP1 PUSH4 0xA8AA1B31 GT PUSH2 0x148 JUMPI DUP1 PUSH4 0xA8AA1B31 EQ PUSH2 0xA8E JUMPI DUP1 PUSH4 0xA8B9D240 EQ PUSH2 0xAB8 JUMPI DUP1 PUSH4 0xA9059CBB EQ PUSH2 0xAF4 JUMPI DUP1 PUSH4 0xABB81052 EQ PUSH2 0xB30 JUMPI PUSH2 0x3A1 JUMP JUMPDEST DUP1 PUSH4 0x95D89B41 EQ PUSH2 0x9D8 JUMPI DUP1 PUSH4 0x9A7A23D6 EQ PUSH2 0xA02 JUMPI DUP1 PUSH4 0xA457C2D7 EQ PUSH2 0xA2A JUMPI DUP1 PUSH4 0xA8602FEA EQ PUSH2 0xA66 JUMPI PUSH2 0x3A1 JUMP JUMPDEST DUP1 PUSH4 0x8C9684F9 GT PUSH2 0x1B5 JUMPI DUP1 PUSH4 0x8C9684F9 EQ PUSH2 0x934 JUMPI DUP1 PUSH4 0x8DA5CB5B EQ PUSH2 0x95C JUMPI DUP1 PUSH4 0x8EA5220F EQ PUSH2 0x986 JUMPI DUP1 PUSH4 0x92929A09 EQ PUSH2 0x9B0 JUMPI PUSH2 0x3A1 JUMP JUMPDEST DUP1 PUSH4 0x864701A5 EQ PUSH2 0x8B5 JUMPI DUP1 PUSH4 0x88BDD9BE EQ PUSH2 0x8E2 JUMPI DUP1 PUSH4 0x88E765FF EQ PUSH2 0x90A JUMPI PUSH2 0x3A1 JUMP JUMPDEST DUP1 PUSH4 0x342AA8B5 GT PUSH2 0x2C0 JUMPI DUP1 PUSH4 0x66D602AE GT PUSH2 0x25E JUMPI DUP1 PUSH4 0x70A08231 GT PUSH2 0x22D JUMPI DUP1 PUSH4 0x70A08231 EQ PUSH2 0x7FB JUMPI DUP1 PUSH4 0x715018A6 EQ PUSH2 0x837 JUMPI DUP1 PUSH4 0x79B447BD EQ PUSH2 0x84D JUMPI DUP1 PUSH4 0x7B510FE8 EQ PUSH2 0x875 JUMPI PUSH2 0x3A1 JUMP JUMPDEST DUP1 PUSH4 0x66D602AE EQ PUSH2 0x743 JUMPI DUP1 PUSH4 0x6843CD84 EQ PUSH2 0x76D JUMPI DUP1 PUSH4 0x6DDD1713 EQ PUSH2 0x7A9 JUMPI DUP1 PUSH4 0x706F6937 EQ PUSH2 0x7D3 JUMPI PUSH2 0x3A1 JUMP JUMPDEST DUP1 PUSH4 0x46469AFB GT PUSH2 0x29A JUMPI DUP1 PUSH4 0x46469AFB EQ PUSH2 0x69D JUMPI DUP1 PUSH4 0x4ADA218B EQ PUSH2 0x6C7 JUMPI DUP1 PUSH4 0x4E71D92D EQ PUSH2 0x6F1 JUMPI DUP1 PUSH4 0x4FBEE193 EQ PUSH2 0x707 JUMPI PUSH2 0x3A1 JUMP JUMPDEST DUP1 PUSH4 0x342AA8B5 EQ PUSH2 0x60F JUMPI DUP1 PUSH4 0x39509351 EQ PUSH2 0x637 JUMPI DUP1 PUSH4 0x4626402B EQ PUSH2 0x673 JUMPI PUSH2 0x3A1 JUMP JUMPDEST DUP1 PUSH4 0x1BFF7898 GT PUSH2 0x338 JUMPI DUP1 PUSH4 0x2C1F5216 GT PUSH2 0x307 JUMPI DUP1 PUSH4 0x2C1F5216 EQ PUSH2 0x569 JUMPI DUP1 PUSH4 0x2E1AB904 EQ PUSH2 0x593 JUMPI DUP1 PUSH4 0x30BB4CFF EQ PUSH2 0x5BB JUMPI DUP1 PUSH4 0x313CE567 EQ PUSH2 0x5E5 JUMPI PUSH2 0x3A1 JUMP JUMPDEST DUP1 PUSH4 0x1BFF7898 EQ PUSH2 0x4B1 JUMPI DUP1 PUSH4 0x1F53AC02 EQ PUSH2 0x4DB JUMPI DUP1 PUSH4 0x23B872DD EQ PUSH2 0x503 JUMPI DUP1 PUSH4 0x2866ED21 EQ PUSH2 0x53F JUMPI PUSH2 0x3A1 JUMP JUMPDEST DUP1 PUSH4 0xA78097D GT PUSH2 0x374 JUMPI DUP1 PUSH4 0xA78097D EQ PUSH2 0x433 JUMPI DUP1 PUSH4 0xBD05B69 EQ PUSH2 0x45B JUMPI DUP1 PUSH4 0x12B77E8A EQ PUSH2 0x471 JUMPI DUP1 PUSH4 0x18160DDD EQ PUSH2 0x487 JUMPI PUSH2 0x3A1 JUMP JUMPDEST DUP1 PUSH4 0x483F7A0 EQ PUSH2 0x3A5 JUMPI DUP1 PUSH4 0x6FDDE03 EQ PUSH2 0x3CD JUMPI DUP1 PUSH4 0x95EA7B3 EQ PUSH2 0x3F7 JUMPI PUSH2 0x3A1 JUMP JUMPDEST CALLDATASIZE PUSH2 0x3A1 JUMPI STOP JUMPDEST PUSH0 DUP1 REVERT JUMPDEST CALLVALUE DUP1 ISZERO PUSH2 0x3B0 JUMPI PUSH0 DUP1 REVERT JUMPDEST POP PUSH2 0x3CB PUSH1 0x4 DUP1 CALLDATASIZE SUB DUP2 ADD SWAP1 PUSH2 0x3C6 SWAP2 SWAP1 PUSH2 0x4DFE JUMP JUMPDEST PUSH2 0xDE3 JUMP JUMPDEST STOP JUMPDEST CALLVALUE DUP1 ISZERO PUSH2 0x3D8 JUMPI PUSH0 DUP1 REVERT JUMPDEST POP PUSH2 0x3E1 PUSH2 0xF06 JUMP JUMPDEST PUSH1 0x40 MLOAD PUSH2 0x3EE SWAP2 SWAP1 PUSH2 0x4EAC JUMP JUMPDEST PUSH1 0x40 MLOAD DUP1 SWAP2 SUB SWAP1 RETURN JUMPDEST CALLVALUE DUP1 ISZERO PUSH2 0x402 JUMPI PUSH0 DUP1 REVERT JUMPDEST POP PUSH2 0x41D PUSH1 0x4 DUP1 CALLDATASIZE SUB DUP2 ADD SWAP1 PUSH2 0x418 SWAP2 SWAP1 PUSH2 0x4EFF JUMP JUMPDEST PUSH2 0xF96 JUMP JUMPDEST PUSH1 0x40 MLOAD PUSH2 0x42A SWAP2 SWAP1 PUSH2 0x4F4C JUMP JUMPDEST PUSH1 0x40 MLOAD DUP1 SWAP2 SUB SWAP1 RETURN JUMPDEST CALLVALUE DUP1 ISZERO PUSH2 0x43E JUMPI PUSH0 DUP1 REVERT JUMPDEST POP PUSH2 0x459 PUSH1 0x4 DUP1 CALLDATASIZE SUB DUP2 ADD SWAP1 PUSH2 0x454 SWAP2 SWAP1 PUSH2 0x4F65 JUMP JUMPDEST PUSH2 0xFB3 JUMP JUMPDEST STOP JUMPDEST CALLVALUE DUP1 ISZERO PUSH2 0x466 JUMPI PUSH0 DUP1 REVERT JUMPDEST POP PUSH2 0x46F PUSH2 0x1146 JUMP JUMPDEST STOP JUMPDEST CALLVALUE DUP1 ISZERO PUSH2 0x47C JUMPI PUSH0 DUP1 REVERT JUMPDEST POP PUSH2 0x485 PUSH2 0x1249 JUMP JUMPDEST STOP JUMPDEST CALLVALUE DUP1 ISZERO PUSH2 0x492 JUMPI PUSH0 DUP1 REVERT JUMPDEST POP PUSH2 0x49B PUSH2 0x129A JUMP JUMPDEST PUSH1 0x40 MLOAD PUSH2 0x4A8 SWAP2 SWAP1 PUSH2 0x4F9F JUMP JUMPDEST PUSH1 0x40 MLOAD DUP1 SWAP2 SUB SWAP1 RETURN JUMPDEST CALLVALUE DUP1 ISZERO PUSH2 0x4BC JUMPI PUSH0 DUP1 REVERT JUMPDEST POP PUSH2 0x4C5 PUSH2 0x12A3 JUMP JUMPDEST PUSH1 0x40 MLOAD PUSH2 0x4D2 SWAP2 SWAP1 PUSH2 0x4F9F JUMP JUMPDEST PUSH1 0x40 MLOAD DUP1 SWAP2 SUB SWAP1 RETURN JUMPDEST CALLVALUE DUP1 ISZERO PUSH2 0x4E6 JUMPI PUSH0 DUP1 REVERT JUMPDEST POP PUSH2 0x501 PUSH1 0x4 DUP1 CALLDATASIZE SUB DUP2 ADD SWAP1 PUSH2 0x4FC SWAP2 SWAP1 PUSH2 0x4F65 JUMP JUMPDEST PUSH2 0x12A9 JUMP JUMPDEST STOP JUMPDEST CALLVALUE DUP1 ISZERO PUSH2 0x50E JUMPI PUSH0 DUP1 REVERT JUMPDEST POP PUSH2 0x529 PUSH1 0x4 DUP1 CALLDATASIZE SUB DUP2 ADD SWAP1 PUSH2 0x524 SWAP2 SWAP1 PUSH2 0x4FB8 JUMP JUMPDEST PUSH2 0x1382 JUMP JUMPDEST PUSH1 0x40 MLOAD PUSH2 0x536 SWAP2 SWAP1 PUSH2 0x4F4C JUMP JUMPDEST PUSH1 0x40 MLOAD DUP1 SWAP2 SUB SWAP1 RETURN JUMPDEST CALLVALUE DUP1 ISZERO PUSH2 0x54A JUMPI PUSH0 DUP1 REVERT JUMPDEST POP PUSH2 0x553 PUSH2 0x1456 JUMP JUMPDEST PUSH1 0x40 MLOAD PUSH2 0x560 SWAP2 SWAP1 PUSH2 0x4F4C JUMP JUMPDEST PUSH1 0x40 MLOAD DUP1 SWAP2 SUB SWAP1 RETURN JUMPDEST CALLVALUE DUP1 ISZERO PUSH2 0x574 JUMPI PUSH0 DUP1 REVERT JUMPDEST POP PUSH2 0x57D PUSH2 0x1469 JUMP JUMPDEST PUSH1 0x40 MLOAD PUSH2 0x58A SWAP2 SWAP1 PUSH2 0x5063 JUMP JUMPDEST PUSH1 0x40 MLOAD DUP1 SWAP2 SUB SWAP1 RETURN JUMPDEST CALLVALUE DUP1 ISZERO PUSH2 0x59E JUMPI PUSH0 DUP1 REVERT JUMPDEST POP PUSH2 0x5B9 PUSH1 0x4 DUP1 CALLDATASIZE SUB DUP2 ADD SWAP1 PUSH2 0x5B4 SWAP2 SWAP1 PUSH2 0x4F65 JUMP JUMPDEST PUSH2 0x148E JUMP JUMPDEST STOP JUMPDEST CALLVALUE DUP1 ISZERO PUSH2 0x5C6 JUMPI PUSH0 DUP1 REVERT JUMPDEST POP PUSH2 0x5CF PUSH2 0x15AE JUMP JUMPDEST PUSH1 0x40 MLOAD PUSH2 0x5DC SWAP2 SWAP1 PUSH2 0x4F9F JUMP JUMPDEST PUSH1 0x40 MLOAD DUP1 SWAP2 SUB SWAP1 RETURN JUMPDEST CALLVALUE DUP1 ISZERO PUSH2 0x5F0 JUMPI PUSH0 DUP1 REVERT JUMPDEST POP PUSH2 0x5F9 PUSH2 0x1642 JUMP JUMPDEST PUSH1 0x40 MLOAD PUSH2 0x606 SWAP2 SWAP1 PUSH2 0x5097 JUMP JUMPDEST PUSH1 0x40 MLOAD DUP1 SWAP2 SUB SWAP1 RETURN JUMPDEST CALLVALUE DUP1 ISZERO PUSH2 0x61A JUMPI PUSH0 DUP1 REVERT JUMPDEST POP PUSH2 0x635 PUSH1 0x4 DUP1 CALLDATASIZE SUB DUP2 ADD SWAP1 PUSH2 0x630 SWAP2 SWAP1 PUSH2 0x4DFE JUMP JUMPDEST PUSH2 0x164A JUMP JUMPDEST STOP JUMPDEST CALLVALUE DUP1 ISZERO PUSH2 0x642 JUMPI PUSH0 DUP1 REVERT JUMPDEST POP PUSH2 0x65D PUSH1 0x4 DUP1 CALLDATASIZE SUB DUP2 ADD SWAP1 PUSH2 0x658 SWAP2 SWAP1 PUSH2 0x4EFF JUMP JUMPDEST PUSH2 0x1790 JUMP JUMPDEST PUSH1 0x40 MLOAD PUSH2 0x66A SWAP2 SWAP1 PUSH2 0x4F4C JUMP JUMPDEST PUSH1 0x40 MLOAD DUP1 SWAP2 SUB SWAP1 RETURN JUMPDEST CALLVALUE DUP1 ISZERO PUSH2 0x67E JUMPI PUSH0 DUP1 REVERT JUMPDEST POP PUSH2 0x687 PUSH2 0x183E JUMP JUMPDEST PUSH1 0x40 MLOAD PUSH2 0x694 SWAP2 SWAP1 PUSH2 0x50BF JUMP JUMPDEST PUSH1 0x40 MLOAD DUP1 SWAP2 SUB SWAP1 RETURN JUMPDEST CALLVALUE DUP1 ISZERO PUSH2 0x6A8 JUMPI PUSH0 DUP1 REVERT JUMPDEST POP PUSH2 0x6B1 PUSH2 0x1863 JUMP JUMPDEST PUSH1 0x40 MLOAD PUSH2 0x6BE SWAP2 SWAP1 PUSH2 0x4F9F JUMP JUMPDEST PUSH1 0x40 MLOAD DUP1 SWAP2 SUB SWAP1 RETURN JUMPDEST CALLVALUE DUP1 ISZERO PUSH2 0x6D2 JUMPI PUSH0 DUP1 REVERT JUMPDEST POP PUSH2 0x6DB PUSH2 0x1869 JUMP JUMPDEST PUSH1 0x40 MLOAD PUSH2 0x6E8 SWAP2 SWAP1 PUSH2 0x4F4C JUMP JUMPDEST PUSH1 0x40 MLOAD DUP1 SWAP2 SUB SWAP1 RETURN JUMPDEST CALLVALUE DUP1 ISZERO PUSH2 0x6FC JUMPI PUSH0 DUP1 REVERT JUMPDEST POP PUSH2 0x705 PUSH2 0x187C JUMP JUMPDEST STOP JUMPDEST CALLVALUE DUP1 ISZERO PUSH2 0x712 JUMPI PUSH0 DUP1 REVERT JUMPDEST POP PUSH2 0x72D PUSH1 0x4 DUP1 CALLDATASIZE SUB DUP2 ADD SWAP1 PUSH2 0x728 SWAP2 SWAP1 PUSH2 0x4F65 JUMP JUMPDEST PUSH2 0x1968 JUMP JUMPDEST PUSH1 0x40 MLOAD PUSH2 0x73A SWAP2 SWAP1 PUSH2 0x4F4C JUMP JUMPDEST PUSH1 0x40 MLOAD DUP1 SWAP2 SUB SWAP1 RETURN JUMPDEST CALLVALUE DUP1 ISZERO PUSH2 0x74E JUMPI PUSH0 DUP1 REVERT JUMPDEST POP PUSH2 0x757 PUSH2 0x19BA JUMP JUMPDEST PUSH1 0x40 MLOAD PUSH2 0x764 SWAP2 SWAP1 PUSH2 0x4F9F JUMP JUMPDEST PUSH1 0x40 MLOAD DUP1 SWAP2 SUB SWAP1 RETURN JUMPDEST CALLVALUE DUP1 ISZERO PUSH2 0x778 JUMPI PUSH0 DUP1 REVERT JUMPDEST POP PUSH2 0x793 PUSH1 0x4 DUP1 CALLDATASIZE SUB DUP2 ADD SWAP1 PUSH2 0x78E SWAP2 SWAP1 PUSH2 0x4F65 JUMP JUMPDEST PUSH2 0x19C0 JUMP JUMPDEST PUSH1 0x40 MLOAD PUSH2 0x7A0 SWAP2 SWAP1 PUSH2 0x4F9F JUMP JUMPDEST PUSH1 0x40 MLOAD DUP1 SWAP2 SUB SWAP1 RETURN JUMPDEST CALLVALUE DUP1 ISZERO PUSH2 0x7B4 JUMPI PUSH0 DUP1 REVERT JUMPDEST POP PUSH2 0x7BD PUSH2 0x1A61 JUMP JUMPDEST PUSH1 0x40 MLOAD PUSH2 0x7CA SWAP2 SWAP1 PUSH2 0x4F4C JUMP JUMPDEST PUSH1 0x40 MLOAD DUP1 SWAP2 SUB SWAP1 RETURN JUMPDEST CALLVALUE DUP1 ISZERO PUSH2 0x7DE JUMPI PUSH0 DUP1 REVERT JUMPDEST POP PUSH2 0x7F9 PUSH1 0x4 DUP1 CALLDATASIZE SUB DUP2 ADD SWAP1 PUSH2 0x7F4 SWAP2 SWAP1 PUSH2 0x52D8 JUMP JUMPDEST PUSH2 0x1A74 JUMP JUMPDEST STOP JUMPDEST CALLVALUE DUP1 ISZERO PUSH2 0x806 JUMPI PUSH0 DUP1 REVERT JUMPDEST POP PUSH2 0x821 PUSH1 0x4 DUP1 CALLDATASIZE SUB DUP2 ADD SWAP1 PUSH2 0x81C SWAP2 SWAP1 PUSH2 0x4F65 JUMP JUMPDEST PUSH2 0x1BAA JUMP JUMPDEST PUSH1 0x40 MLOAD PUSH2 0x82E SWAP2 SWAP1 PUSH2 0x4F9F JUMP JUMPDEST PUSH1 0x40 MLOAD DUP1 SWAP2 SUB SWAP1 RETURN JUMPDEST CALLVALUE DUP1 ISZERO PUSH2 0x842 JUMPI PUSH0 DUP1 REVERT JUMPDEST POP PUSH2 0x84B PUSH2 0x1BEF JUMP JUMPDEST STOP JUMPDEST CALLVALUE DUP1 ISZERO PUSH2 0x858 JUMPI PUSH0 DUP1 REVERT JUMPDEST POP PUSH2 0x873 PUSH1 0x4 DUP1 CALLDATASIZE SUB DUP2 ADD SWAP1 PUSH2 0x86E SWAP2 SWAP1 PUSH2 0x534E JUMP JUMPDEST PUSH2 0x1D42 JUMP JUMPDEST STOP JUMPDEST CALLVALUE DUP1 ISZERO PUSH2 0x880 JUMPI PUSH0 DUP1 REVERT JUMPDEST POP PUSH2 0x89B PUSH1 0x4 DUP1 CALLDATASIZE SUB DUP2 ADD SWAP1 PUSH2 0x896 SWAP2 SWAP1 PUSH2 0x4F65 JUMP JUMPDEST PUSH2 0x1E10 JUMP JUMPDEST PUSH1 0x40 MLOAD PUSH2 0x8AC SWAP6 SWAP5 SWAP4 SWAP3 SWAP2 SWAP1 PUSH2 0x538C JUMP JUMPDEST PUSH1 0x40 MLOAD DUP1 SWAP2 SUB SWAP1 RETURN JUMPDEST CALLVALUE DUP1 ISZERO PUSH2 0x8C0 JUMPI PUSH0 DUP1 REVERT JUMPDEST POP PUSH2 0x8C9 PUSH2 0x1EC1 JUMP JUMPDEST PUSH1 0x40 MLOAD PUSH2 0x8D9 SWAP5 SWAP4 SWAP3 SWAP2 SWAP1 PUSH2 0x53DD JUMP JUMPDEST PUSH1 0x40 MLOAD DUP1 SWAP2 SUB SWAP1 RETURN JUMPDEST CALLVALUE DUP1 ISZERO PUSH2 0x8ED JUMPI PUSH0 DUP1 REVERT JUMPDEST POP PUSH2 0x908 PUSH1 0x4 DUP1 CALLDATASIZE SUB DUP2 ADD SWAP1 PUSH2 0x903 SWAP2 SWAP1 PUSH2 0x4F65 JUMP JUMPDEST PUSH2 0x1EDE JUMP JUMPDEST STOP JUMPDEST CALLVALUE DUP1 ISZERO PUSH2 0x915 JUMPI PUSH0 DUP1 REVERT JUMPDEST POP PUSH2 0x91E PUSH2 0x2188 JUMP JUMPDEST PUSH1 0x40 MLOAD PUSH2 0x92B SWAP2 SWAP1 PUSH2 0x4F9F JUMP JUMPDEST PUSH1 0x40 MLOAD DUP1 SWAP2 SUB SWAP1 RETURN JUMPDEST CALLVALUE DUP1 ISZERO PUSH2 0x93F JUMPI PUSH0 DUP1 REVERT JUMPDEST POP PUSH2 0x95A PUSH1 0x4 DUP1 CALLDATASIZE SUB DUP2 ADD SWAP1 PUSH2 0x955 SWAP2 SWAP1 PUSH2 0x4F65 JUMP JUMPDEST PUSH2 0x218E JUMP JUMPDEST STOP JUMPDEST CALLVALUE DUP1 ISZERO PUSH2 0x967 JUMPI PUSH0 DUP1 REVERT JUMPDEST POP PUSH2 0x970 PUSH2 0x22B7 JUMP JUMPDEST PUSH1 0x40 MLOAD PUSH2 0x97D SWAP2 SWAP1 PUSH2 0x50BF JUMP JUMPDEST PUSH1 0x40 MLOAD DUP1 SWAP2 SUB SWAP1 RETURN JUMPDEST CALLVALUE DUP1 ISZERO PUSH2 0x991 JUMPI PUSH0 DUP1 REVERT JUMPDEST POP PUSH2 0x99A PUSH2 0x22DF JUMP JUMPDEST PUSH1 0x40 MLOAD PUSH2 0x9A7 SWAP2 SWAP1 PUSH2 0x50BF JUMP JUMPDEST PUSH1 0x40 MLOAD DUP1 SWAP2 SUB SWAP1 RETURN JUMPDEST CALLVALUE DUP1 ISZERO PUSH2 0x9BB JUMPI PUSH0 DUP1 REVERT JUMPDEST POP PUSH2 0x9D6 PUSH1 0x4 DUP1 CALLDATASIZE SUB DUP2 ADD SWAP1 PUSH2 0x9D1 SWAP2 SWAP1 PUSH2 0x5420 JUMP JUMPDEST PUSH2 0x2304 JUMP JUMPDEST STOP JUMPDEST CALLVALUE DUP1 ISZERO PUSH2 0x9E3 JUMPI PUSH0 DUP1 REVERT JUMPDEST POP PUSH2 0x9EC PUSH2 0x23B7 JUMP JUMPDEST PUSH1 0x40 MLOAD PUSH2 0x9F9 SWAP2 SWAP1 PUSH2 0x4EAC JUMP JUMPDEST PUSH1 0x40 MLOAD DUP1 SWAP2 SUB SWAP1 RETURN JUMPDEST CALLVALUE DUP1 ISZERO PUSH2 0xA0D JUMPI PUSH0 DUP1 REVERT JUMPDEST POP PUSH2 0xA28 PUSH1 0x4 DUP1 CALLDATASIZE SUB DUP2 ADD SWAP1 PUSH2 0xA23 SWAP2 SWAP1 PUSH2 0x4DFE JUMP JUMPDEST PUSH2 0x2447 JUMP JUMPDEST STOP JUMPDEST CALLVALUE DUP1 ISZERO PUSH2 0xA35 JUMPI PUSH0 DUP1 REVERT JUMPDEST POP PUSH2 0xA50 PUSH1 0x4 DUP1 CALLDATASIZE SUB DUP2 ADD SWAP1 PUSH2 0xA4B SWAP2 SWAP1 PUSH2 0x4EFF JUMP JUMPDEST PUSH2 0x24EB JUMP JUMPDEST PUSH1 0x40 MLOAD PUSH2 0xA5D SWAP2 SWAP1 PUSH2 0x4F4C JUMP JUMPDEST PUSH1 0x40 MLOAD DUP1 SWAP2 SUB SWAP1 RETURN JUMPDEST CALLVALUE DUP1 ISZERO PUSH2 0xA71 JUMPI PUSH0 DUP1 REVERT JUMPDEST POP PUSH2 0xA8C PUSH1 0x4 DUP1 CALLDATASIZE SUB DUP2 ADD SWAP1 PUSH2 0xA87 SWAP2 SWAP1 PUSH2 0x4F65 JUMP JUMPDEST PUSH2 0x25B3 JUMP JUMPDEST STOP JUMPDEST CALLVALUE DUP1 ISZERO PUSH2 0xA99 JUMPI PUSH0 DUP1 REVERT JUMPDEST POP PUSH2 0xAA2 PUSH2 0x268C JUMP JUMPDEST PUSH1 0x40 MLOAD PUSH2 0xAAF SWAP2 SWAP1 PUSH2 0x50BF JUMP JUMPDEST PUSH1 0x40 MLOAD DUP1 SWAP2 SUB SWAP1 RETURN JUMPDEST CALLVALUE DUP1 ISZERO PUSH2 0xAC3 JUMPI PUSH0 DUP1 REVERT JUMPDEST POP PUSH2 0xADE PUSH1 0x4 DUP1 CALLDATASIZE SUB DUP2 ADD SWAP1 PUSH2 0xAD9 SWAP2 SWAP1 PUSH2 0x4F65 JUMP JUMPDEST PUSH2 0x26B1 JUMP JUMPDEST PUSH1 0x40 MLOAD PUSH2 0xAEB SWAP2 SWAP1 PUSH2 0x4F9F JUMP JUMPDEST PUSH1 0x40 MLOAD DUP1 SWAP2 SUB SWAP1 RETURN JUMPDEST CALLVALUE DUP1 ISZERO PUSH2 0xAFF JUMPI PUSH0 DUP1 REVERT JUMPDEST POP PUSH2 0xB1A PUSH1 0x4 DUP1 CALLDATASIZE SUB DUP2 ADD SWAP1 PUSH2 0xB15 SWAP2 SWAP1 PUSH2 0x4EFF JUMP JUMPDEST PUSH2 0x2752 JUMP JUMPDEST PUSH1 0x40 MLOAD PUSH2 0xB27 SWAP2 SWAP1 PUSH2 0x4F4C JUMP JUMPDEST PUSH1 0x40 MLOAD DUP1 SWAP2 SUB SWAP1 RETURN JUMPDEST CALLVALUE DUP1 ISZERO PUSH2 0xB3B JUMPI PUSH0 DUP1 REVERT JUMPDEST POP PUSH2 0xB56 PUSH1 0x4 DUP1 CALLDATASIZE SUB DUP2 ADD SWAP1 PUSH2 0xB51 SWAP2 SWAP1 PUSH2 0x4F65 JUMP JUMPDEST PUSH2 0x276F JUMP JUMPDEST PUSH1 0x40 MLOAD PUSH2 0xB63 SWAP2 SWAP1 PUSH2 0x4F4C JUMP JUMPDEST PUSH1 0x40 MLOAD DUP1 SWAP2 SUB SWAP1 RETURN JUMPDEST CALLVALUE DUP1 ISZERO PUSH2 0xB77 JUMPI PUSH0 DUP1 REVERT JUMPDEST POP PUSH2 0xB92 PUSH1 0x4 DUP1 CALLDATASIZE SUB DUP2 ADD SWAP1 PUSH2 0xB8D SWAP2 SWAP1 PUSH2 0x544B JUMP JUMPDEST PUSH2 0x278C JUMP JUMPDEST STOP JUMPDEST CALLVALUE DUP1 ISZERO PUSH2 0xB9F JUMPI PUSH0 DUP1 REVERT JUMPDEST POP PUSH2 0xBBA PUSH1 0x4 DUP1 CALLDATASIZE SUB DUP2 ADD SWAP1 PUSH2 0xBB5 SWAP2 SWAP1 PUSH2 0x4F65 JUMP JUMPDEST PUSH2 0x283F JUMP JUMPDEST PUSH1 0x40 MLOAD PUSH2 0xBC7 SWAP2 SWAP1 PUSH2 0x4F4C JUMP JUMPDEST PUSH1 0x40 MLOAD DUP1 SWAP2 SUB SWAP1 RETURN JUMPDEST CALLVALUE DUP1 ISZERO PUSH2 0xBDB JUMPI PUSH0 DUP1 REVERT JUMPDEST POP PUSH2 0xBF6 PUSH1 0x4 DUP1 CALLDATASIZE SUB DUP2 ADD SWAP1 PUSH2 0xBF1 SWAP2 SWAP1 PUSH2 0x5476 JUMP JUMPDEST PUSH2 0x285C JUMP JUMPDEST STOP JUMPDEST CALLVALUE DUP1 ISZERO PUSH2 0xC03 JUMPI PUSH0 DUP1 REVERT JUMPDEST POP PUSH2 0xC1E PUSH1 0x4 DUP1 CALLDATASIZE SUB DUP2 ADD SWAP1 PUSH2 0xC19 SWAP2 SWAP1 PUSH2 0x4DFE JUMP JUMPDEST PUSH2 0x297D JUMP JUMPDEST STOP JUMPDEST CALLVALUE DUP1 ISZERO PUSH2 0xC2B JUMPI PUSH0 DUP1 REVERT JUMPDEST POP PUSH2 0xC46 PUSH1 0x4 DUP1 CALLDATASIZE SUB DUP2 ADD SWAP1 PUSH2 0xC41 SWAP2 SWAP1 PUSH2 0x5529 JUMP JUMPDEST PUSH2 0x2B48 JUMP JUMPDEST STOP JUMPDEST CALLVALUE DUP1 ISZERO PUSH2 0xC53 JUMPI PUSH0 DUP1 REVERT JUMPDEST POP PUSH2 0xC6E PUSH1 0x4 DUP1 CALLDATASIZE SUB DUP2 ADD SWAP1 PUSH2 0xC69 SWAP2 SWAP1 PUSH2 0x4F65 JUMP JUMPDEST PUSH2 0x2CB4 JUMP JUMPDEST STOP JUMPDEST CALLVALUE DUP1 ISZERO PUSH2 0xC7B JUMPI PUSH0 DUP1 REVERT JUMPDEST POP PUSH2 0xC96 PUSH1 0x4 DUP1 CALLDATASIZE SUB DUP2 ADD SWAP1 PUSH2 0xC91 SWAP2 SWAP1 PUSH2 0x5586 JUMP JUMPDEST PUSH2 0x2D8D JUMP JUMPDEST PUSH1 0x40 MLOAD PUSH2 0xCA3 SWAP2 SWAP1 PUSH2 0x4F9F JUMP JUMPDEST PUSH1 0x40 MLOAD DUP1 SWAP2 SUB SWAP1 RETURN JUMPDEST CALLVALUE DUP1 ISZERO PUSH2 0xCB7 JUMPI PUSH0 DUP1 REVERT JUMPDEST POP PUSH2 0xCD2 PUSH1 0x4 DUP1 CALLDATASIZE SUB DUP2 ADD SWAP1 PUSH2 0xCCD SWAP2 SWAP1 PUSH2 0x5420 JUMP JUMPDEST PUSH2 0x2E0F JUMP JUMPDEST STOP JUMPDEST CALLVALUE DUP1 ISZERO PUSH2 0xCDF JUMPI PUSH0 DUP1 REVERT JUMPDEST POP PUSH2 0xCE8 PUSH2 0x2EC2 JUMP JUMPDEST STOP JUMPDEST CALLVALUE DUP1 ISZERO PUSH2 0xCF5 JUMPI PUSH0 DUP1 REVERT JUMPDEST POP PUSH2 0xCFE PUSH2 0x2FE8 JUMP JUMPDEST PUSH1 0x40 MLOAD PUSH2 0xD0B SWAP2 SWAP1 PUSH2 0x4F9F JUMP JUMPDEST PUSH1 0x40 MLOAD DUP1 SWAP2 SUB SWAP1 RETURN JUMPDEST CALLVALUE DUP1 ISZERO PUSH2 0xD1F JUMPI PUSH0 DUP1 REVERT JUMPDEST POP PUSH2 0xD3A PUSH1 0x4 DUP1 CALLDATASIZE SUB DUP2 ADD SWAP1 PUSH2 0xD35 SWAP2 SWAP1 PUSH2 0x55C4 JUMP JUMPDEST PUSH2 0x2FEE JUMP JUMPDEST STOP JUMPDEST CALLVALUE DUP1 ISZERO PUSH2 0xD47 JUMPI PUSH0 DUP1 REVERT JUMPDEST POP PUSH2 0xD62 PUSH1 0x4 DUP1 CALLDATASIZE SUB DUP2 ADD SWAP1 PUSH2 0xD5D SWAP2 SWAP1 PUSH2 0x4F65 JUMP JUMPDEST PUSH2 0x3163 JUMP JUMPDEST STOP JUMPDEST CALLVALUE DUP1 ISZERO PUSH2 0xD6F JUMPI PUSH0 DUP1 REVERT JUMPDEST POP PUSH2 0xD8A PUSH1 0x4 DUP1 CALLDATASIZE SUB DUP2 ADD SWAP1 PUSH2 0xD85 SWAP2 SWAP1 PUSH2 0x55C4 JUMP JUMPDEST PUSH2 0x3325 JUMP JUMPDEST STOP JUMPDEST CALLVALUE DUP1 ISZERO PUSH2 0xD97 JUMPI PUSH0 DUP1 REVERT JUMPDEST POP PUSH2 0xDA0 PUSH2 0x349A JUMP JUMPDEST PUSH1 0x40 MLOAD PUSH2 0xDB0 SWAP5 SWAP4 SWAP3 SWAP2 SWAP1 PUSH2 0x53DD JUMP JUMPDEST PUSH1 0x40 MLOAD DUP1 SWAP2 SUB SWAP1 RETURN JUMPDEST CALLVALUE DUP1 ISZERO PUSH2 0xDC4 JUMPI PUSH0 DUP1 REVERT JUMPDEST POP PUSH2 0xDCD PUSH2 0x34B7 JUMP JUMPDEST PUSH1 0x40 MLOAD PUSH2 0xDDA SWAP2 SWAP1 PUSH2 0x5648 JUMP JUMPDEST PUSH1 0x40 MLOAD DUP1 SWAP2 SUB SWAP1 RETURN JUMPDEST PUSH2 0xDEB PUSH2 0x34DC JUMP JUMPDEST PUSH20 0xFFFFFFFFFFFFFFFFFFFFFFFFFFFFFFFFFFFFFFFF AND PUSH1 0x5 PUSH0 SWAP1 SLOAD SWAP1 PUSH2 0x100 EXP SWAP1 DIV PUSH20 0xFFFFFFFFFFFFFFFFFFFFFFFFFFFFFFFFFFFFFFFF AND PUSH20 0xFFFFFFFFFFFFFFFFFFFFFFFFFFFFFFFFFFFFFFFF AND EQ PUSH2 0xE79 JUMPI PUSH1 0x40 MLOAD PUSH32 0x8C379A000000000000000000000000000000000000000000000000000000000 DUP2 MSTORE PUSH1 0x4 ADD PUSH2 0xE70 SWAP1 PUSH2 0x56AB JUMP JUMPDEST PUSH1 0x40 MLOAD DUP1 SWAP2 SUB SWAP1 REVERT JUMPDEST PUSH1 0x8 PUSH0 SWAP1 SLOAD SWAP1 PUSH2 0x100 EXP SWAP1 DIV PUSH20 0xFFFFFFFFFFFFFFFFFFFFFFFFFFFFFFFFFFFFFFFF AND PUSH20 0xFFFFFFFFFFFFFFFFFFFFFFFFFFFFFFFFFFFFFFFF AND PUSH4 0x483F7A0 DUP4 DUP4 PUSH1 0x40 MLOAD DUP4 PUSH4 0xFFFFFFFF AND PUSH1 0xE0 SHL DUP2 MSTORE PUSH1 0x4 ADD PUSH2 0xED5 SWAP3 SWAP2 SWAP1 PUSH2 0x56C9 JUMP JUMPDEST PUSH0 PUSH1 0x40 MLOAD DUP1 DUP4 SUB DUP2 PUSH0 DUP8 DUP1 EXTCODESIZE ISZERO DUP1 ISZERO PUSH2 0xEEC JUMPI PUSH0 DUP1 REVERT JUMPDEST POP GAS CALL ISZERO DUP1 ISZERO PUSH2 0xEFE JUMPI RETURNDATASIZE PUSH0 DUP1 RETURNDATACOPY RETURNDATASIZE PUSH0 REVERT JUMPDEST POP POP POP POP POP POP JUMP JUMPDEST PUSH1 0x60 PUSH1 0x3 DUP1 SLOAD PUSH2 0xF15 SWAP1 PUSH2 0x571D JUMP JUMPDEST DUP1 PUSH1 0x1F ADD PUSH1 0x20 DUP1 SWAP2 DIV MUL PUSH1 0x20 ADD PUSH1 0x40 MLOAD SWAP1 DUP2 ADD PUSH1 0x40 MSTORE DUP1 SWAP3 SWAP2 SWAP1 DUP2 DUP2 MSTORE PUSH1 0x20 ADD DUP3 DUP1 SLOAD PUSH2 0xF41 SWAP1 PUSH2 0x571D JUMP JUMPDEST DUP1 ISZERO PUSH2 0xF8C JUMPI DUP1 PUSH1 0x1F LT PUSH2 0xF63 JUMPI PUSH2 0x100 DUP1 DUP4 SLOAD DIV MUL DUP4 MSTORE SWAP2 PUSH1 0x20 ADD SWAP2 PUSH2 0xF8C JUMP JUMPDEST DUP3 ADD SWAP2 SWAP1 PUSH0 MSTORE PUSH1 0x20 PUSH0 KECCAK256 SWAP1 JUMPDEST DUP2 SLOAD DUP2 MSTORE SWAP1 PUSH1 0x1 ADD SWAP1 PUSH1 0x20 ADD DUP1 DUP4 GT PUSH2 0xF6F JUMPI DUP3 SWAP1 SUB PUSH1 0x1F AND DUP3 ADD SWAP2 JUMPDEST POP POP POP POP POP SWAP1 POP SWAP1 JUMP JUMPDEST PUSH0 PUSH2 0xFA9 PUSH2 0xFA2 PUSH2 0x34DC JUMP JUMPDEST DUP5 DUP5 PUSH2 0x34E3 JUMP JUMPDEST PUSH1 0x1 SWAP1 POP SWAP3 SWAP2 POP POP JUMP JUMPDEST PUSH2 0xFBB PUSH2 0x34DC JUMP JUMPDEST PUSH20 0xFFFFFFFFFFFFFFFFFFFFFFFFFFFFFFFFFFFFFFFF AND PUSH1 0x5 PUSH0 SWAP1 SLOAD SWAP1 PUSH2 0x100 EXP SWAP1 DIV PUSH20 0xFFFFFFFFFFFFFFFFFFFFFFFFFFFFFFFFFFFFFFFF AND PUSH20 0xFFFFFFFFFFFFFFFFFFFFFFFFFFFFFFFFFFFFFFFF AND EQ PUSH2 0x1049 JUMPI PUSH1 0x40 MLOAD PUSH32 0x8C379A000000000000000000000000000000000000000000000000000000000 DUP2 MSTORE PUSH1 0x4 ADD PUSH2 0x1040 SWAP1 PUSH2 0x56AB JUMP JUMPDEST PUSH1 0x40 MLOAD DUP1 SWAP2 SUB SWAP1 REVERT JUMPDEST DUP1 PUSH20 0xFFFFFFFFFFFFFFFFFFFFFFFFFFFFFFFFFFFFFFFF AND PUSH4 0xA9059CBB PUSH2 0x106D PUSH2 0x22B7 JUMP JUMPDEST DUP4 PUSH20 0xFFFFFFFFFFFFFFFFFFFFFFFFFFFFFFFFFFFFFFFF AND PUSH4 0x70A08231 ADDRESS PUSH1 0x40 MLOAD DUP3 PUSH4 0xFFFFFFFF AND PUSH1 0xE0 SHL DUP2 MSTORE PUSH1 0x4 ADD PUSH2 0x10A6 SWAP2 SWAP1 PUSH2 0x50BF JUMP JUMPDEST PUSH1 0x20 PUSH1 0x40 MLOAD DUP1 DUP4 SUB DUP2 DUP7 GAS STATICCALL ISZERO DUP1 ISZERO PUSH2 0x10C1 JUMPI RETURNDATASIZE PUSH0 DUP1 RETURNDATACOPY RETURNDATASIZE PUSH0 REVERT JUMPDEST POP POP POP POP PUSH1 0x40 MLOAD RETURNDATASIZE PUSH1 0x1F NOT PUSH1 0x1F DUP3 ADD AND DUP3 ADD DUP1 PUSH1 0x40 MSTORE POP DUP2 ADD SWAP1 PUSH2 0x10E5 SWAP2 SWAP1 PUSH2 0x5761 JUMP JUMPDEST PUSH1 0x40 MLOAD DUP4 PUSH4 0xFFFFFFFF AND PUSH1 0xE0 SHL DUP2 MSTORE PUSH1 0x4 ADD PUSH2 0x1102 SWAP3 SWAP2 SWAP1 PUSH2 0x578C JUMP JUMPDEST PUSH1 0x20 PUSH1 0x40 MLOAD DUP1 DUP4 SUB DUP2 PUSH0 DUP8 GAS CALL ISZERO DUP1 ISZERO PUSH2 0x111E JUMPI RETURNDATASIZE PUSH0 DUP1 RETURNDATACOPY RETURNDATASIZE PUSH0 REVERT JUMPDEST POP POP POP POP PUSH1 0x40 MLOAD RETURNDATASIZE PUSH1 0x1F NOT PUSH1 0x1F DUP3 ADD AND DUP3 ADD DUP1 PUSH1 0x40 MSTORE POP DUP2 ADD SWAP1 PUSH2 0x1142 SWAP2 SWAP1 PUSH2 0x57C7 JUMP JUMPDEST POP POP JUMP JUMPDEST PUSH2 0x114E PUSH2 0x34DC JUMP JUMPDEST PUSH20 0xFFFFFFFFFFFFFFFFFFFFFFFFFFFFFFFFFFFFFFFF AND PUSH1 0x5 PUSH0 SWAP1 SLOAD SWAP1 PUSH2 0x100 EXP SWAP1 DIV PUSH20 0xFFFFFFFFFFFFFFFFFFFFFFFFFFFFFFFFFFFFFFFF AND PUSH20 0xFFFFFFFFFFFFFFFFFFFFFFFFFFFFFFFFFFFFFFFF AND EQ PUSH2 0x11DC JUMPI PUSH1 0x40 MLOAD PUSH32 0x8C379A000000000000000000000000000000000000000000000000000000000 DUP2 MSTORE PUSH1 0x4 ADD PUSH2 0x11D3 SWAP1 PUSH2 0x56AB JUMP JUMPDEST PUSH1 0x40 MLOAD DUP1 SWAP2 SUB SWAP1 REVERT JUMPDEST PUSH1 0x7 PUSH1 0x17 SWAP1 SLOAD SWAP1 PUSH2 0x100 EXP SWAP1 DIV PUSH1 0xFF AND ISZERO PUSH2 0x122C JUMPI PUSH1 0x40 MLOAD PUSH32 0x8C379A000000000000000000000000000000000000000000000000000000000 DUP2 MSTORE PUSH1 0x4 ADD PUSH2 0x1223 SWAP1 PUSH2 0x583C JUMP JUMPDEST PUSH1 0x40 MLOAD DUP1 SWAP2 SUB SWAP1 REVERT JUMPDEST PUSH1 0x1 PUSH1 0x7 PUSH1 0x17 PUSH2 0x100 EXP DUP2 SLOAD DUP2 PUSH1 0xFF MUL NOT AND SWAP1 DUP4 ISZERO ISZERO MUL OR SWAP1 SSTORE POP JUMP JUMPDEST PUSH0 SELFBALANCE SWAP1 POP PUSH2 0x1297 DUP2 PUSH1 0x9 PUSH0 SWAP1 SLOAD SWAP1 PUSH2 0x100 EXP SWAP1 DIV PUSH20 0xFFFFFFFFFFFFFFFFFFFFFFFFFFFFFFFFFFFFFFFF AND PUSH20 0xFFFFFFFFFFFFFFFFFFFFFFFFFFFFFFFFFFFFFFFF AND PUSH2 0x36A6 SWAP1 SWAP2 SWAP1 PUSH4 0xFFFFFFFF AND JUMP JUMPDEST POP JUMP JUMPDEST PUSH0 PUSH1 0x2 SLOAD SWAP1 POP SWAP1 JUMP JUMPDEST PUSH1 0x17 SLOAD DUP2 JUMP JUMPDEST PUSH2 0x12B1 PUSH2 0x34DC JUMP JUMPDEST PUSH20 0xFFFFFFFFFFFFFFFFFFFFFFFFFFFFFFFFFFFFFFFF AND PUSH1 0x5 PUSH0 SWAP1 SLOAD SWAP1 PUSH2 0x100 EXP SWAP1 DIV PUSH20 0xFFFFFFFFFFFFFFFFFFFFFFFFFFFFFFFFFFFFFFFF AND PUSH20 0xFFFFFFFFFFFFFFFFFFFFFFFFFFFFFFFFFFFFFFFF AND EQ PUSH2 0x133F JUMPI PUSH1 0x40 MLOAD PUSH32 0x8C379A000000000000000000000000000000000000000000000000000000000 DUP2 MSTORE PUSH1 0x4 ADD PUSH2 0x1336 SWAP1 PUSH2 0x56AB JUMP JUMPDEST PUSH1 0x40 MLOAD DUP1 SWAP2 SUB SWAP1 REVERT JUMPDEST DUP1 PUSH1 0xA PUSH0 PUSH2 0x100 EXP DUP2 SLOAD DUP2 PUSH20 0xFFFFFFFFFFFFFFFFFFFFFFFFFFFFFFFFFFFFFFFF MUL NOT AND SWAP1 DUP4 PUSH20 0xFFFFFFFFFFFFFFFFFFFFFFFFFFFFFFFFFFFFFFFF AND MUL OR SWAP1 SSTORE POP POP JUMP JUMPDEST PUSH0 PUSH2 0x138E DUP5 DUP5 DUP5 PUSH2 0x3796 JUMP JUMPDEST PUSH2 0x144B DUP5 PUSH2 0x139A PUSH2 0x34DC JUMP JUMPDEST PUSH2 0x1446 DUP6 PUSH1 0x40 MLOAD DUP1 PUSH1 0x60 ADD PUSH1 0x40 MSTORE DUP1 PUSH1 0x28 DUP2 MSTORE PUSH1 0x20 ADD PUSH2 0x6622 PUSH1 0x28 SWAP2 CODECOPY PUSH1 0x1 PUSH0 DUP12 PUSH20 0xFFFFFFFFFFFFFFFFFFFFFFFFFFFFFFFFFFFFFFFF AND PUSH20 0xFFFFFFFFFFFFFFFFFFFFFFFFFFFFFFFFFFFFFFFF AND DUP2 MSTORE PUSH1 0x20 ADD SWAP1 DUP2 MSTORE PUSH1 0x20 ADD PUSH0 KECCAK256 PUSH0 PUSH2 0x13FD PUSH2 0x34DC JUMP JUMPDEST PUSH20 0xFFFFFFFFFFFFFFFFFFFFFFFFFFFFFFFFFFFFFFFF AND PUSH20 0xFFFFFFFFFFFFFFFFFFFFFFFFFFFFFFFFFFFFFFFF AND DUP2 MSTORE PUSH1 0x20 ADD SWAP1 DUP2 MSTORE PUSH1 0x20 ADD PUSH0 KECCAK256 SLOAD PUSH2 0x40BD SWAP1 SWAP3 SWAP2 SWAP1 PUSH4 0xFFFFFFFF AND JUMP JUMPDEST PUSH2 0x34E3 JUMP JUMPDEST PUSH1 0x1 SWAP1 POP SWAP4 SWAP3 POP POP POP JUMP JUMPDEST PUSH1 0x7 PUSH1 0x16 SWAP1 SLOAD SWAP1 PUSH2 0x100 EXP SWAP1 DIV PUSH1 0xFF AND DUP2 JUMP JUMPDEST PUSH1 0x8 PUSH0 SWAP1 SLOAD SWAP1 PUSH2 0x100 EXP SWAP1 DIV PUSH20 0xFFFFFFFFFFFFFFFFFFFFFFFFFFFFFFFFFFFFFFFF AND DUP2 JUMP JUMPDEST PUSH2 0x1496 PUSH2 0x34DC JUMP JUMPDEST PUSH20 0xFFFFFFFFFFFFFFFFFFFFFFFFFFFFFFFFFFFFFFFF AND PUSH1 0x5 PUSH0 SWAP1 SLOAD SWAP1 PUSH2 0x100 EXP SWAP1 DIV PUSH20 0xFFFFFFFFFFFFFFFFFFFFFFFFFFFFFFFFFFFFFFFF AND PUSH20 0xFFFFFFFFFFFFFFFFFFFFFFFFFFFFFFFFFFFFFFFF AND EQ PUSH2 0x1524 JUMPI PUSH1 0x40 MLOAD PUSH32 0x8C379A000000000000000000000000000000000000000000000000000000000 DUP2 MSTORE PUSH1 0x4 ADD PUSH2 0x151B SWAP1 PUSH2 0x56AB JUMP JUMPDEST PUSH1 0x40 MLOAD DUP1 SWAP2 SUB SWAP1 REVERT JUMPDEST PUSH1 0x8 PUSH0 SWAP1 SLOAD SWAP1 PUSH2 0x100 EXP SWAP1 DIV PUSH20 0xFFFFFFFFFFFFFFFFFFFFFFFFFFFFFFFFFFFFFFFF AND PUSH20 0xFFFFFFFFFFFFFFFFFFFFFFFFFFFFFFFFFFFFFFFF AND PUSH4 0x44B6BD9E DUP3 PUSH1 0x40 MLOAD DUP3 PUSH4 0xFFFFFFFF AND PUSH1 0xE0 SHL DUP2 MSTORE PUSH1 0x4 ADD PUSH2 0x157E SWAP2 SWAP1 PUSH2 0x50BF JUMP JUMPDEST PUSH0 PUSH1 0x40 MLOAD DUP1 DUP4 SUB DUP2 PUSH0 DUP8 DUP1 EXTCODESIZE ISZERO DUP1 ISZERO PUSH2 0x1595 JUMPI PUSH0 DUP1 REVERT JUMPDEST POP GAS CALL ISZERO DUP1 ISZERO PUSH2 0x15A7 JUMPI RETURNDATASIZE PUSH0 DUP1 RETURNDATACOPY RETURNDATASIZE PUSH0 REVERT JUMPDEST POP POP POP POP POP JUMP JUMPDEST PUSH0 PUSH1 0x8 PUSH0 SWAP1 SLOAD SWAP1 PUSH2 0x100 EXP SWAP1 DIV PUSH20 0xFFFFFFFFFFFFFFFFFFFFFFFFFFFFFFFFFFFFFFFF AND PUSH20 0xFFFFFFFFFFFFFFFFFFFFFFFFFFFFFFFFFFFFFFFF AND PUSH4 0x85A6B3AE PUSH1 0x40 MLOAD DUP2 PUSH4 0xFFFFFFFF AND PUSH1 0xE0 SHL DUP2 MSTORE PUSH1 0x4 ADD PUSH1 0x20 PUSH1 0x40 MLOAD DUP1 DUP4 SUB DUP2 DUP7 GAS STATICCALL ISZERO DUP1 ISZERO PUSH2 0x1619 JUMPI RETURNDATASIZE PUSH0 DUP1 RETURNDATACOPY RETURNDATASIZE PUSH0 REVERT JUMPDEST POP POP POP POP PUSH1 0x40 MLOAD RETURNDATASIZE PUSH1 0x1F NOT PUSH1 0x1F DUP3 ADD AND DUP3 ADD DUP1 PUSH1 0x40 MSTORE POP DUP2 ADD SWAP1 PUSH2 0x163D SWAP2 SWAP1 PUSH2 0x5761 JUMP JUMPDEST SWAP1 POP SWAP1 JUMP JUMPDEST PUSH0 PUSH1 0x12 SWAP1 POP SWAP1 JUMP JUMPDEST PUSH2 0x1652 PUSH2 0x34DC JUMP JUMPDEST PUSH20 0xFFFFFFFFFFFFFFFFFFFFFFFFFFFFFFFFFFFFFFFF AND PUSH1 0x5 PUSH0 SWAP1 SLOAD SWAP1 PUSH2 0x100 EXP SWAP1 DIV PUSH20 0xFFFFFFFFFFFFFFFFFFFFFFFFFFFFFFFFFFFFFFFF AND PUSH20 0xFFFFFFFFFFFFFFFFFFFFFFFFFFFFFFFFFFFFFFFF AND EQ PUSH2 0x16E0 JUMPI PUSH1 0x40 MLOAD PUSH32 0x8C379A000000000000000000000000000000000000000000000000000000000 DUP2 MSTORE PUSH1 0x4 ADD PUSH2 0x16D7 SWAP1 PUSH2 0x56AB JUMP JUMPDEST PUSH1 0x40 MLOAD DUP1 SWAP2 SUB SWAP1 REVERT JUMPDEST DUP1 ISZERO ISZERO PUSH1 0x18 PUSH0 DUP5 PUSH20 0xFFFFFFFFFFFFFFFFFFFFFFFFFFFFFFFFFFFFFFFF AND PUSH20 0xFFFFFFFFFFFFFFFFFFFFFFFFFFFFFFFFFFFFFFFF AND DUP2 MSTORE PUSH1 0x20 ADD SWAP1 DUP2 MSTORE PUSH1 0x20 ADD PUSH0 KECCAK256 PUSH0 SWAP1 SLOAD SWAP1 PUSH2 0x100 EXP SWAP1 DIV PUSH1 0xFF AND ISZERO ISZERO SUB PUSH2 0x1738 JUMPI PUSH0 DUP1 REVERT JUMPDEST DUP1 PUSH1 0x18 PUSH0 DUP5 PUSH20 0xFFFFFFFFFFFFFFFFFFFFFFFFFFFFFFFFFFFFFFFF AND PUSH20 0xFFFFFFFFFFFFFFFFFFFFFFFFFFFFFFFFFFFFFFFF AND DUP2 MSTORE PUSH1 0x20 ADD SWAP1 DUP2 MSTORE PUSH1 0x20 ADD PUSH0 KECCAK256 PUSH0 PUSH2 0x100 EXP DUP2 SLOAD DUP2 PUSH1 0xFF MUL NOT AND SWAP1 DUP4 ISZERO ISZERO MUL OR SWAP1 SSTORE POP POP POP JUMP JUMPDEST PUSH0 PUSH2 0x1834 PUSH2 0x179C PUSH2 0x34DC JUMP JUMPDEST DUP5 PUSH2 0x182F DUP6 PUSH1 0x1 PUSH0 PUSH2 0x17AC PUSH2 0x34DC JUMP JUMPDEST PUSH20 0xFFFFFFFFFFFFFFFFFFFFFFFFFFFFFFFFFFFFFFFF AND PUSH20 0xFFFFFFFFFFFFFFFFFFFFFFFFFFFFFFFFFFFFFFFF AND DUP2 MSTORE PUSH1 0x20 ADD SWAP1 DUP2 MSTORE PUSH1 0x20 ADD PUSH0 KECCAK256 PUSH0 DUP10 PUSH20 0xFFFFFFFFFFFFFFFFFFFFFFFFFFFFFFFFFFFFFFFF AND PUSH20 0xFFFFFFFFFFFFFFFFFFFFFFFFFFFFFFFFFFFFFFFF AND DUP2 MSTORE PUSH1 0x20 ADD SWAP1 DUP2 MSTORE PUSH1 0x20 ADD PUSH0 KECCAK256 SLOAD PUSH2 0x411F SWAP1 SWAP2 SWAP1 PUSH4 0xFFFFFFFF AND JUMP JUMPDEST PUSH2 0x34E3 JUMP JUMPDEST PUSH1 0x1 SWAP1 POP SWAP3 SWAP2 POP POP JUMP JUMPDEST PUSH1 0x9 PUSH0 SWAP1 SLOAD SWAP1 PUSH2 0x100 EXP SWAP1 DIV PUSH20 0xFFFFFFFFFFFFFFFFFFFFFFFFFFFFFFFFFFFFFFFF AND DUP2 JUMP JUMPDEST PUSH1 0x16 SLOAD DUP2 JUMP JUMPDEST PUSH1 0x7 PUSH1 0x17 SWAP1 SLOAD SWAP1 PUSH2 0x100 EXP SWAP1 DIV PUSH1 0xFF AND DUP2 JUMP JUMPDEST PUSH1 0x7 PUSH1 0x16 SWAP1 SLOAD SWAP1 PUSH2 0x100 EXP SWAP1 DIV PUSH1 0xFF AND PUSH2 0x18CB JUMPI PUSH1 0x40 MLOAD PUSH32 0x8C379A000000000000000000000000000000000000000000000000000000000 DUP2 MSTORE PUSH1 0x4 ADD PUSH2 0x18C2 SWAP1 PUSH2 0x58A4 JUMP JUMPDEST PUSH1 0x40 MLOAD DUP1 SWAP2 SUB SWAP1 REVERT JUMPDEST PUSH1 0x8 PUSH0 SWAP1 SLOAD SWAP1 PUSH2 0x100 EXP SWAP1 DIV PUSH20 0xFFFFFFFFFFFFFFFFFFFFFFFFFFFFFFFFFFFFFFFF AND PUSH20 0xFFFFFFFFFFFFFFFFFFFFFFFFFFFFFFFFFFFFFFFF AND PUSH4 0x807AB4F7 CALLER PUSH1 0x40 MLOAD DUP3 PUSH4 0xFFFFFFFF AND PUSH1 0xE0 SHL DUP2 MSTORE PUSH1 0x4 ADD PUSH2 0x1925 SWAP2 SWAP1 PUSH2 0x58E2 JUMP JUMPDEST PUSH1 0x20 PUSH1 0x40 MLOAD DUP1 DUP4 SUB DUP2 PUSH0 DUP8 GAS CALL ISZERO DUP1 ISZERO PUSH2 0x1941 JUMPI RETURNDATASIZE PUSH0 DUP1 RETURNDATACOPY RETURNDATASIZE PUSH0 REVERT JUMPDEST POP POP POP POP PUSH1 0x40 MLOAD RETURNDATASIZE PUSH1 0x1F NOT PUSH1 0x1F DUP3 ADD AND DUP3 ADD DUP1 PUSH1 0x40 MSTORE POP DUP2 ADD SWAP1 PUSH2 0x1965 SWAP2 SWAP1 PUSH2 0x57C7 JUMP JUMPDEST POP JUMP JUMPDEST PUSH0 PUSH1 0x19 PUSH0 DUP4 PUSH20 0xFFFFFFFFFFFFFFFFFFFFFFFFFFFFFFFFFFFFFFFF AND PUSH20 0xFFFFFFFFFFFFFFFFFFFFFFFFFFFFFFFFFFFFFFFF AND DUP2 MSTORE PUSH1 0x20 ADD SWAP1 DUP2 MSTORE PUSH1 0x20 ADD PUSH0 KECCAK256 PUSH0 SWAP1 SLOAD SWAP1 PUSH2 0x100 EXP SWAP1 DIV PUSH1 0xFF AND SWAP1 POP SWAP2 SWAP1 POP JUMP JUMPDEST PUSH1 0xD SLOAD DUP2 JUMP JUMPDEST PUSH0 PUSH1 0x8 PUSH0 SWAP1 SLOAD SWAP1 PUSH2 0x100 EXP SWAP1 DIV PUSH20 0xFFFFFFFFFFFFFFFFFFFFFFFFFFFFFFFFFFFFFFFF AND PUSH20 0xFFFFFFFFFFFFFFFFFFFFFFFFFFFFFFFFFFFFFFFF AND PUSH4 0x70A08231 DUP4 PUSH1 0x40 MLOAD DUP3 PUSH4 0xFFFFFFFF AND PUSH1 0xE0 SHL DUP2 MSTORE PUSH1 0x4 ADD PUSH2 0x1A1B SWAP2 SWAP1 PUSH2 0x50BF JUMP JUMPDEST PUSH1 0x20 PUSH1 0x40 MLOAD DUP1 DUP4 SUB DUP2 DUP7 GAS STATICCALL ISZERO DUP1 ISZERO PUSH2 0x1A36 JUMPI RETURNDATASIZE PUSH0 DUP1 RETURNDATACOPY RETURNDATASIZE PUSH0 REVERT JUMPDEST POP POP POP POP PUSH1 0x40 MLOAD RETURNDATASIZE PUSH1 0x1F NOT PUSH1 0x1F DUP3 ADD AND DUP3 ADD DUP1 PUSH1 0x40 MSTORE POP DUP2 ADD SWAP1 PUSH2 0x1A5A SWAP2 SWAP1 PUSH2 0x5761 JUMP JUMPDEST SWAP1 POP SWAP2 SWAP1 POP JUMP JUMPDEST PUSH1 0x7 PUSH1 0x15 SWAP1 SLOAD SWAP1 PUSH2 0x100 EXP SWAP1 DIV PUSH1 0xFF AND DUP2 JUMP JUMPDEST PUSH2 0x1A7C PUSH2 0x34DC JUMP JUMPDEST PUSH20 0xFFFFFFFFFFFFFFFFFFFFFFFFFFFFFFFFFFFFFFFF AND PUSH1 0x5 PUSH0 SWAP1 SLOAD SWAP1 PUSH2 0x100 EXP SWAP1 DIV PUSH20 0xFFFFFFFFFFFFFFFFFFFFFFFFFFFFFFFFFFFFFFFF AND PUSH20 0xFFFFFFFFFFFFFFFFFFFFFFFFFFFFFFFFFFFFFFFF AND EQ PUSH2 0x1B0A JUMPI PUSH1 0x40 MLOAD PUSH32 0x8C379A000000000000000000000000000000000000000000000000000000000 DUP2 MSTORE PUSH1 0x4 ADD PUSH2 0x1B01 SWAP1 PUSH2 0x56AB JUMP JUMPDEST PUSH1 0x40 MLOAD DUP1 SWAP2 SUB SWAP1 REVERT JUMPDEST DUP1 MLOAD DUP3 MLOAD EQ PUSH2 0x1B4E JUMPI PUSH1 0x40 MLOAD PUSH32 0x8C379A000000000000000000000000000000000000000000000000000000000 DUP2 MSTORE PUSH1 0x4 ADD PUSH2 0x1B45 SWAP1 PUSH2 0x5945 JUMP JUMPDEST PUSH1 0x40 MLOAD DUP1 SWAP2 SUB SWAP1 REVERT JUMPDEST PUSH0 JUMPDEST DUP3 MLOAD DUP2 LT ISZERO PUSH2 0x1BA5 JUMPI PUSH2 0x1B98 CALLER DUP5 DUP4 DUP2 MLOAD DUP2 LT PUSH2 0x1B70 JUMPI PUSH2 0x1B6F PUSH2 0x5963 JUMP JUMPDEST JUMPDEST PUSH1 0x20 MUL PUSH1 0x20 ADD ADD MLOAD DUP5 DUP5 DUP2 MLOAD DUP2 LT PUSH2 0x1B8B JUMPI PUSH2 0x1B8A PUSH2 0x5963 JUMP JUMPDEST JUMPDEST PUSH1 0x20 MUL PUSH1 0x20 ADD ADD MLOAD PUSH2 0x417C JUMP JUMPDEST DUP1 DUP1 PUSH1 0x1 ADD SWAP2 POP POP PUSH2 0x1B50 JUMP JUMPDEST POP POP POP JUMP JUMPDEST PUSH0 DUP1 PUSH0 DUP4 PUSH20 0xFFFFFFFFFFFFFFFFFFFFFFFFFFFFFFFFFFFFFFFF AND PUSH20 0xFFFFFFFFFFFFFFFFFFFFFFFFFFFFFFFFFFFFFFFF AND DUP2 MSTORE PUSH1 0x20 ADD SWAP1 DUP2 MSTORE PUSH1 0x20 ADD PUSH0 KECCAK256 SLOAD SWAP1 POP SWAP2 SWAP1 POP JUMP JUMPDEST PUSH2 0x1BF7 PUSH2 0x34DC JUMP JUMPDEST PUSH20 0xFFFFFFFFFFFFFFFFFFFFFFFFFFFFFFFFFFFFFFFF AND PUSH1 0x5 PUSH0 SWAP1 SLOAD SWAP1 PUSH2 0x100 EXP SWAP1 DIV PUSH20 0xFFFFFFFFFFFFFFFFFFFFFFFFFFFFFFFFFFFFFFFF AND PUSH20 0xFFFFFFFFFFFFFFFFFFFFFFFFFFFFFFFFFFFFFFFF AND EQ PUSH2 0x1C85 JUMPI PUSH1 0x40 MLOAD PUSH32 0x8C379A000000000000000000000000000000000000000000000000000000000 DUP2 MSTORE PUSH1 0x4 ADD PUSH2 0x1C7C SWAP1 PUSH2 0x56AB JUMP JUMPDEST PUSH1 0x40 MLOAD DUP1 SWAP2 SUB SWAP1 REVERT JUMPDEST PUSH0 PUSH20 0xFFFFFFFFFFFFFFFFFFFFFFFFFFFFFFFFFFFFFFFF AND PUSH1 0x5 PUSH0 SWAP1 SLOAD SWAP1 PUSH2 0x100 EXP SWAP1 DIV PUSH20 0xFFFFFFFFFFFFFFFFFFFFFFFFFFFFFFFFFFFFFFFF AND PUSH20 0xFFFFFFFFFFFFFFFFFFFFFFFFFFFFFFFFFFFFFFFF AND PUSH32 0x8BE0079C531659141344CD1FD0A4F28419497F9722A3DAAFE3B4186F6B6457E0 PUSH1 0x40 MLOAD PUSH1 0x40 MLOAD DUP1 SWAP2 SUB SWAP1 LOG3 PUSH0 PUSH1 0x5 PUSH0 PUSH2 0x100 EXP DUP2 SLOAD DUP2 PUSH20 0xFFFFFFFFFFFFFFFFFFFFFFFFFFFFFFFFFFFFFFFF MUL NOT AND SWAP1 DUP4 PUSH20 0xFFFFFFFFFFFFFFFFFFFFFFFFFFFFFFFFFFFFFFFF AND MUL OR SWAP1 SSTORE POP JUMP JUMPDEST PUSH2 0x1D4A PUSH2 0x34DC JUMP JUMPDEST PUSH20 0xFFFFFFFFFFFFFFFFFFFFFFFFFFFFFFFFFFFFFFFF AND PUSH1 0x5 PUSH0 SWAP1 SLOAD SWAP1 PUSH2 0x100 EXP SWAP1 DIV PUSH20 0xFFFFFFFFFFFFFFFFFFFFFFFFFFFFFFFFFFFFFFFF AND PUSH20 0xFFFFFFFFFFFFFFFFFFFFFFFFFFFFFFFFFFFFFFFF AND EQ PUSH2 0x1DD8 JUMPI PUSH1 0x40 MLOAD PUSH32 0x8C379A000000000000000000000000000000000000000000000000000000000 DUP2 MSTORE PUSH1 0x4 ADD PUSH2 0x1DCF SWAP1 PUSH2 0x56AB JUMP JUMPDEST PUSH1 0x40 MLOAD DUP1 SWAP2 SUB SWAP1 REVERT JUMPDEST PUSH8 0xDE0B6B3A7640000 DUP3 PUSH2 0x1DEC SWAP2 SWAP1 PUSH2 0x59BD JUMP JUMPDEST PUSH1 0xC DUP2 SWAP1 SSTORE POP PUSH8 0xDE0B6B3A7640000 DUP2 PUSH2 0x1E06 SWAP2 SWAP1 PUSH2 0x59BD JUMP JUMPDEST PUSH1 0xD DUP2 SWAP1 SSTORE POP POP POP JUMP JUMPDEST PUSH0 DUP1 PUSH0 DUP1 PUSH0 PUSH1 0x8 PUSH0 SWAP1 SLOAD SWAP1 PUSH2 0x100 EXP SWAP1 DIV PUSH20 0xFFFFFFFFFFFFFFFFFFFFFFFFFFFFFFFFFFFFFFFF AND PUSH20 0xFFFFFFFFFFFFFFFFFFFFFFFFFFFFFFFFFFFFFFFF AND PUSH4 0xFBCBC0F1 DUP8 PUSH1 0x40 MLOAD DUP3 PUSH4 0xFFFFFFFF AND PUSH1 0xE0 SHL DUP2 MSTORE PUSH1 0x4 ADD PUSH2 0x1E6F SWAP2 SWAP1 PUSH2 0x50BF JUMP JUMPDEST PUSH1 0xA0 PUSH1 0x40 MLOAD DUP1 DUP4 SUB DUP2 DUP7 GAS STATICCALL ISZERO DUP1 ISZERO PUSH2 0x1E8A JUMPI RETURNDATASIZE PUSH0 DUP1 RETURNDATACOPY RETURNDATASIZE PUSH0 REVERT JUMPDEST POP POP POP POP PUSH1 0x40 MLOAD RETURNDATASIZE PUSH1 0x1F NOT PUSH1 0x1F DUP3 ADD AND DUP3 ADD DUP1 PUSH1 0x40 MSTORE POP DUP2 ADD SWAP1 PUSH2 0x1EAE SWAP2 SWAP1 PUSH2 0x5A12 JUMP JUMPDEST SWAP5 POP SWAP5 POP SWAP5 POP SWAP5 POP SWAP5 POP SWAP2 SWAP4 SWAP6 SWAP1 SWAP3 SWAP5 POP JUMP JUMPDEST PUSH1 0xE DUP1 PUSH0 ADD SLOAD SWAP1 DUP1 PUSH1 0x1 ADD SLOAD SWAP1 DUP1 PUSH1 0x2 ADD SLOAD SWAP1 DUP1 PUSH1 0x3 ADD SLOAD SWAP1 POP DUP5 JUMP JUMPDEST PUSH2 0x1EE6 PUSH2 0x34DC JUMP JUMPDEST PUSH20 0xFFFFFFFFFFFFFFFFFFFFFFFFFFFFFFFFFFFFFFFF AND PUSH1 0x5 PUSH0 SWAP1 SLOAD SWAP1 PUSH2 0x100 EXP SWAP1 DIV PUSH20 0xFFFFFFFFFFFFFFFFFFFFFFFFFFFFFFFFFFFFFFFF AND PUSH20 0xFFFFFFFFFFFFFFFFFFFFFFFFFFFFFFFFFFFFFFFF AND EQ PUSH2 0x1F74 JUMPI PUSH1 0x40 MLOAD PUSH32 0x8C379A000000000000000000000000000000000000000000000000000000000 DUP2 MSTORE PUSH1 0x4 ADD PUSH2 0x1F6B SWAP1 PUSH2 0x56AB JUMP JUMPDEST PUSH1 0x40 MLOAD DUP1 SWAP2 SUB SWAP1 REVERT JUMPDEST PUSH0 DUP2 SWAP1 POP DUP1 PUSH20 0xFFFFFFFFFFFFFFFFFFFFFFFFFFFFFFFFFFFFFFFF AND PUSH4 0x483F7A0 DUP3 PUSH1 0x1 PUSH1 0x40 MLOAD DUP4 PUSH4 0xFFFFFFFF AND PUSH1 0xE0 SHL DUP2 MSTORE PUSH1 0x4 ADD PUSH2 0x1FB4 SWAP3 SWAP2 SWAP1 PUSH2 0x56C9 JUMP JUMPDEST PUSH0 PUSH1 0x40 MLOAD DUP1 DUP4 SUB DUP2 PUSH0 DUP8 DUP1 EXTCODESIZE ISZERO DUP1 ISZERO PUSH2 0x1FCB JUMPI PUSH0 DUP1 REVERT JUMPDEST POP GAS CALL ISZERO DUP1 ISZERO PUSH2 0x1FDD JUMPI RETURNDATASIZE PUSH0 DUP1 RETURNDATACOPY RETURNDATASIZE PUSH0 REVERT JUMPDEST POP POP POP POP DUP1 PUSH20 0xFFFFFFFFFFFFFFFFFFFFFFFFFFFFFFFFFFFFFFFF AND PUSH4 0x483F7A0 ADDRESS PUSH1 0x1 PUSH1 0x40 MLOAD DUP4 PUSH4 0xFFFFFFFF AND PUSH1 0xE0 SHL DUP2 MSTORE PUSH1 0x4 ADD PUSH2 0x201D SWAP3 SWAP2 SWAP1 PUSH2 0x56C9 JUMP JUMPDEST PUSH0 PUSH1 0x40 MLOAD DUP1 DUP4 SUB DUP2 PUSH0 DUP8 DUP1 EXTCODESIZE ISZERO DUP1 ISZERO PUSH2 0x2034 JUMPI PUSH0 DUP1 REVERT JUMPDEST POP GAS CALL ISZERO DUP1 ISZERO PUSH2 0x2046 JUMPI RETURNDATASIZE PUSH0 DUP1 RETURNDATACOPY RETURNDATASIZE PUSH0 REVERT JUMPDEST POP POP POP POP DUP1 PUSH20 0xFFFFFFFFFFFFFFFFFFFFFFFFFFFFFFFFFFFFFFFF AND PUSH4 0x483F7A0 PUSH2 0x206E PUSH2 0x22B7 JUMP JUMPDEST PUSH1 0x1 PUSH1 0x40 MLOAD DUP4 PUSH4 0xFFFFFFFF AND PUSH1 0xE0 SHL DUP2 MSTORE PUSH1 0x4 ADD PUSH2 0x208D SWAP3 SWAP2 SWAP1 PUSH2 0x56C9 JUMP JUMPDEST PUSH0 PUSH1 0x40 MLOAD DUP1 DUP4 SUB DUP2 PUSH0 DUP8 DUP1 EXTCODESIZE ISZERO DUP1 ISZERO PUSH2 0x20A4 JUMPI PUSH0 DUP1 REVERT JUMPDEST POP GAS CALL ISZERO DUP1 ISZERO PUSH2 0x20B6 JUMPI RETURNDATASIZE PUSH0 DUP1 RETURNDATACOPY RETURNDATASIZE PUSH0 REVERT JUMPDEST POP POP POP POP DUP1 PUSH20 0xFFFFFFFFFFFFFFFFFFFFFFFFFFFFFFFFFFFFFFFF AND PUSH4 0x483F7A0 PUSH1 0x6 PUSH0 SWAP1 SLOAD SWAP1 PUSH2 0x100 EXP SWAP1 DIV PUSH20 0xFFFFFFFFFFFFFFFFFFFFFFFFFFFFFFFFFFFFFFFF AND PUSH1 0x1 PUSH1 0x40 MLOAD DUP4 PUSH4 0xFFFFFFFF AND PUSH1 0xE0 SHL DUP2 MSTORE PUSH1 0x4 ADD PUSH2 0x2117 SWAP3 SWAP2 SWAP1 PUSH2 0x56C9 JUMP JUMPDEST PUSH0 PUSH1 0x40 MLOAD DUP1 DUP4 SUB DUP2 PUSH0 DUP8 DUP1 EXTCODESIZE ISZERO DUP1 ISZERO PUSH2 0x212E JUMPI PUSH0 DUP1 REVERT JUMPDEST POP GAS CALL ISZERO DUP1 ISZERO PUSH2 0x2140 JUMPI RETURNDATASIZE PUSH0 DUP1 RETURNDATACOPY RETURNDATASIZE PUSH0 REVERT JUMPDEST POP POP POP POP DUP1 PUSH1 0x8 PUSH0 PUSH2 0x100 EXP DUP2 SLOAD DUP2 PUSH20 0xFFFFFFFFFFFFFFFFFFFFFFFFFFFFFFFFFFFFFFFF MUL NOT AND SWAP1 DUP4 PUSH20 0xFFFFFFFFFFFFFFFFFFFFFFFFFFFFFFFFFFFFFFFF AND MUL OR SWAP1 SSTORE POP POP POP JUMP JUMPDEST PUSH1 0xC SLOAD DUP2 JUMP JUMPDEST PUSH2 0x2196 PUSH2 0x34DC JUMP JUMPDEST PUSH20 0xFFFFFFFFFFFFFFFFFFFFFFFFFFFFFFFFFFFFFFFF AND PUSH1 0x5 PUSH0 SWAP1 SLOAD SWAP1 PUSH2 0x100 EXP SWAP1 DIV PUSH20 0xFFFFFFFFFFFFFFFFFFFFFFFFFFFFFFFFFFFFFFFF AND PUSH20 0xFFFFFFFFFFFFFFFFFFFFFFFFFFFFFFFFFFFFFFFF AND EQ PUSH2 0x2224 JUMPI PUSH1 0x40 MLOAD PUSH32 0x8C379A000000000000000000000000000000000000000000000000000000000 DUP2 MSTORE PUSH1 0x4 ADD PUSH2 0x221B SWAP1 PUSH2 0x56AB JUMP JUMPDEST PUSH1 0x40 MLOAD DUP1 SWAP2 SUB SWAP1 REVERT JUMPDEST PUSH1 0x8 PUSH0 SWAP1 SLOAD SWAP1 PUSH2 0x100 EXP SWAP1 DIV PUSH20 0xFFFFFFFFFFFFFFFFFFFFFFFFFFFFFFFFFFFFFFFF AND PUSH20 0xFFFFFFFFFFFFFFFFFFFFFFFFFFFFFFFFFFFFFFFF AND PUSH4 0x497EC823 PUSH2 0x2269 PUSH2 0x22B7 JUMP JUMPDEST DUP4 PUSH1 0x40 MLOAD DUP4 PUSH4 0xFFFFFFFF AND PUSH1 0xE0 SHL DUP2 MSTORE PUSH1 0x4 ADD PUSH2 0x2287 SWAP3 SWAP2 SWAP1 PUSH2 0x5A89 JUMP JUMPDEST PUSH0 PUSH1 0x40 MLOAD DUP1 DUP4 SUB DUP2 PUSH0 DUP8 DUP1 EXTCODESIZE ISZERO DUP1 ISZERO PUSH2 0x229E JUMPI PUSH0 DUP1 REVERT JUMPDEST POP GAS CALL ISZERO DUP1 ISZERO PUSH2 0x22B0 JUMPI RETURNDATASIZE PUSH0 DUP1 RETURNDATACOPY RETURNDATASIZE PUSH0 REVERT JUMPDEST POP POP POP POP POP JUMP JUMPDEST PUSH0 PUSH1 0x5 PUSH0 SWAP1 SLOAD SWAP1 PUSH2 0x100 EXP SWAP1 DIV PUSH20 0xFFFFFFFFFFFFFFFFFFFFFFFFFFFFFFFFFFFFFFFF AND SWAP1 POP SWAP1 JUMP JUMPDEST PUSH1 0xA PUSH0 SWAP1 SLOAD SWAP1 PUSH2 0x100 EXP SWAP1 DIV PUSH20 0xFFFFFFFFFFFFFFFFFFFFFFFFFFFFFFFFFFFFFFFF AND DUP2 JUMP JUMPDEST PUSH2 0x230C PUSH2 0x34DC JUMP JUMPDEST PUSH20 0xFFFFFFFFFFFFFFFFFFFFFFFFFFFFFFFFFFFFFFFF AND PUSH1 0x5 PUSH0 SWAP1 SLOAD SWAP1 PUSH2 0x100 EXP SWAP1 DIV PUSH20 0xFFFFFFFFFFFFFFFFFFFFFFFFFFFFFFFFFFFFFFFF AND PUSH20 0xFFFFFFFFFFFFFFFFFFFFFFFFFFFFFFFFFFFFFFFF AND EQ PUSH2 0x239A JUMPI PUSH1 0x40 MLOAD PUSH32 0x8C379A000000000000000000000000000000000000000000000000000000000 DUP2 MSTORE PUSH1 0x4 ADD PUSH2 0x2391 SWAP1 PUSH2 0x56AB JUMP JUMPDEST PUSH1 0x40 MLOAD DUP1 SWAP2 SUB SWAP1 REVERT JUMPDEST DUP1 PUSH1 0x7 PUSH1 0x16 PUSH2 0x100 EXP DUP2 SLOAD DUP2 PUSH1 0xFF MUL NOT AND SWAP1 DUP4 ISZERO ISZERO MUL OR SWAP1 SSTORE POP POP JUMP JUMPDEST PUSH1 0x60 PUSH1 0x4 DUP1 SLOAD PUSH2 0x23C6 SWAP1 PUSH2 0x571D JUMP JUMPDEST DUP1 PUSH1 0x1F ADD PUSH1 0x20 DUP1 SWAP2 DIV MUL PUSH1 0x20 ADD PUSH1 0x40 MLOAD SWAP1 DUP2 ADD PUSH1 0x40 MSTORE DUP1 SWAP3 SWAP2 SWAP1 DUP2 DUP2 MSTORE PUSH1 0x20 ADD DUP3 DUP1 SLOAD PUSH2 0x23F2 SWAP1 PUSH2 0x571D JUMP JUMPDEST DUP1 ISZERO PUSH2 0x243D JUMPI DUP1 PUSH1 0x1F LT PUSH2 0x2414 JUMPI PUSH2 0x100 DUP1 DUP4 SLOAD DIV MUL DUP4 MSTORE SWAP2 PUSH1 0x20 ADD SWAP2 PUSH2 0x243D JUMP JUMPDEST DUP3 ADD SWAP2 SWAP1 PUSH0 MSTORE PUSH1 0x20 PUSH0 KECCAK256 SWAP1 JUMPDEST DUP2 SLOAD DUP2 MSTORE SWAP1 PUSH1 0x1 ADD SWAP1 PUSH1 0x20 ADD DUP1 DUP4 GT PUSH2 0x2420 JUMPI DUP3 SWAP1 SUB PUSH1 0x1F AND DUP3 ADD SWAP2 JUMPDEST POP POP POP POP POP SWAP1 POP SWAP1 JUMP JUMPDEST PUSH2 0x244F PUSH2 0x34DC JUMP JUMPDEST PUSH20 0xFFFFFFFFFFFFFFFFFFFFFFFFFFFFFFFFFFFFFFFF AND PUSH1 0x5 PUSH0 SWAP1 SLOAD SWAP1 PUSH2 0x100 EXP SWAP1 DIV PUSH20 0xFFFFFFFFFFFFFFFFFFFFFFFFFFFFFFFFFFFFFFFF AND PUSH20 0xFFFFFFFFFFFFFFFFFFFFFFFFFFFFFFFFFFFFFFFF AND EQ PUSH2 0x24DD JUMPI PUSH1 0x40 MLOAD PUSH32 0x8C379A000000000000000000000000000000000000000000000000000000000 DUP2 MSTORE PUSH1 0x4 ADD PUSH2 0x24D4 SWAP1 PUSH2 0x56AB JUMP JUMPDEST PUSH1 0x40 MLOAD DUP1 SWAP2 SUB SWAP1 REVERT JUMPDEST PUSH2 0x24E7 DUP3 DUP3 PUSH2 0x4405 JUMP JUMPDEST POP POP JUMP JUMPDEST PUSH0 PUSH2 0x25A9 PUSH2 0x24F7 PUSH2 0x34DC JUMP JUMPDEST DUP5 PUSH2 0x25A4 DUP6 PUSH1 0x40 MLOAD DUP1 PUSH1 0x60 ADD PUSH1 0x40 MSTORE DUP1 PUSH1 0x25 DUP2 MSTORE PUSH1 0x20 ADD PUSH2 0x664A PUSH1 0x25 SWAP2 CODECOPY PUSH1 0x1 PUSH0 PUSH2 0x2520 PUSH2 0x34DC JUMP JUMPDEST PUSH20 0xFFFFFFFFFFFFFFFFFFFFFFFFFFFFFFFFFFFFFFFF AND PUSH20 0xFFFFFFFFFFFFFFFFFFFFFFFFFFFFFFFFFFFFFFFF AND DUP2 MSTORE PUSH1 0x20 ADD SWAP1 DUP2 MSTORE PUSH1 0x20 ADD PUSH0 KECCAK256 PUSH0 DUP11 PUSH20 0xFFFFFFFFFFFFFFFFFFFFFFFFFFFFFFFFFFFFFFFF AND PUSH20 0xFFFFFFFFFFFFFFFFFFFFFFFFFFFFFFFFFFFFFFFF AND DUP2 MSTORE PUSH1 0x20 ADD SWAP1 DUP2 MSTORE PUSH1 0x20 ADD PUSH0 KECCAK256 SLOAD PUSH2 0x40BD SWAP1 SWAP3 SWAP2 SWAP1 PUSH4 0xFFFFFFFF AND JUMP JUMPDEST PUSH2 0x34E3 JUMP JUMPDEST PUSH1 0x1 SWAP1 POP SWAP3 SWAP2 POP POP JUMP JUMPDEST PUSH2 0x25BB PUSH2 0x34DC JUMP JUMPDEST PUSH20 0xFFFFFFFFFFFFFFFFFFFFFFFFFFFFFFFFFFFFFFFF AND PUSH1 0x5 PUSH0 SWAP1 SLOAD SWAP1 PUSH2 0x100 EXP SWAP1 DIV PUSH20 0xFFFFFFFFFFFFFFFFFFFFFFFFFFFFFFFFFFFFFFFF AND PUSH20 0xFFFFFFFFFFFFFFFFFFFFFFFFFFFFFFFFFFFFFFFF AND EQ PUSH2 0x2649 JUMPI PUSH1 0x40 MLOAD PUSH32 0x8C379A000000000000000000000000000000000000000000000000000000000 DUP2 MSTORE PUSH1 0x4 ADD PUSH2 0x2640 SWAP1 PUSH2 0x56AB JUMP JUMPDEST PUSH1 0x40 MLOAD DUP1 SWAP2 SUB SWAP1 REVERT JUMPDEST DUP1 PUSH1 0x9 PUSH0 PUSH2 0x100 EXP DUP2 SLOAD DUP2 PUSH20 0xFFFFFFFFFFFFFFFFFFFFFFFFFFFFFFFFFFFFFFFF MUL NOT AND SWAP1 DUP4 PUSH20 0xFFFFFFFFFFFFFFFFFFFFFFFFFFFFFFFFFFFFFFFF AND MUL OR SWAP1 SSTORE POP POP JUMP JUMPDEST PUSH1 0x7 PUSH0 SWAP1 SLOAD SWAP1 PUSH2 0x100 EXP SWAP1 DIV PUSH20 0xFFFFFFFFFFFFFFFFFFFFFFFFFFFFFFFFFFFFFFFF AND DUP2 JUMP JUMPDEST PUSH0 PUSH1 0x8 PUSH0 SWAP1 SLOAD SWAP1 PUSH2 0x100 EXP SWAP1 DIV PUSH20 0xFFFFFFFFFFFFFFFFFFFFFFFFFFFFFFFFFFFFFFFF AND PUSH20 0xFFFFFFFFFFFFFFFFFFFFFFFFFFFFFFFFFFFFFFFF AND PUSH4 0xA8B9D240 DUP4 PUSH1 0x40 MLOAD DUP3 PUSH4 0xFFFFFFFF AND PUSH1 0xE0 SHL DUP2 MSTORE PUSH1 0x4 ADD PUSH2 0x270C SWAP2 SWAP1 PUSH2 0x50BF JUMP JUMPDEST PUSH1 0x20 PUSH1 0x40 MLOAD DUP1 DUP4 SUB DUP2 DUP7 GAS STATICCALL ISZERO DUP1 ISZERO PUSH2 0x2727 JUMPI RETURNDATASIZE PUSH0 DUP1 RETURNDATACOPY RETURNDATASIZE PUSH0 REVERT JUMPDEST POP POP POP POP PUSH1 0x40 MLOAD RETURNDATASIZE PUSH1 0x1F NOT PUSH1 0x1F DUP3 ADD AND DUP3 ADD DUP1 PUSH1 0x40 MSTORE POP DUP2 ADD SWAP1 PUSH2 0x274B SWAP2 SWAP1 PUSH2 0x5761 JUMP JUMPDEST SWAP1 POP SWAP2 SWAP1 POP JUMP JUMPDEST PUSH0 PUSH2 0x2765 PUSH2 0x275E PUSH2 0x34DC JUMP JUMPDEST DUP5 DUP5 PUSH2 0x3796 JUMP JUMPDEST PUSH1 0x1 SWAP1 POP SWAP3 SWAP2 POP POP JUMP JUMPDEST PUSH1 0x18 PUSH1 0x20 MSTORE DUP1 PUSH0 MSTORE PUSH1 0x40 PUSH0 KECCAK256 PUSH0 SWAP2 POP SLOAD SWAP1 PUSH2 0x100 EXP SWAP1 DIV PUSH1 0xFF AND DUP2 JUMP JUMPDEST PUSH2 0x2794 PUSH2 0x34DC JUMP JUMPDEST PUSH20 0xFFFFFFFFFFFFFFFFFFFFFFFFFFFFFFFFFFFFFFFF AND PUSH1 0x5 PUSH0 SWAP1 SLOAD SWAP1 PUSH2 0x100 EXP SWAP1 DIV PUSH20 0xFFFFFFFFFFFFFFFFFFFFFFFFFFFFFFFFFFFFFFFF AND PUSH20 0xFFFFFFFFFFFFFFFFFFFFFFFFFFFFFFFFFFFFFFFF AND EQ PUSH2 0x2822 JUMPI PUSH1 0x40 MLOAD PUSH32 0x8C379A000000000000000000000000000000000000000000000000000000000 DUP2 MSTORE PUSH1 0x4 ADD PUSH2 0x2819 SWAP1 PUSH2 0x56AB JUMP JUMPDEST PUSH1 0x40 MLOAD DUP1 SWAP2 SUB SWAP1 REVERT JUMPDEST PUSH8 0xDE0B6B3A7640000 DUP2 PUSH2 0x2836 SWAP2 SWAP1 PUSH2 0x59BD JUMP JUMPDEST PUSH1 0xB DUP2 SWAP1 SSTORE POP POP JUMP JUMPDEST PUSH1 0x1A PUSH1 0x20 MSTORE DUP1 PUSH0 MSTORE PUSH1 0x40 PUSH0 KECCAK256 PUSH0 SWAP2 POP SLOAD SWAP1 PUSH2 0x100 EXP SWAP1 DIV PUSH1 0xFF AND DUP2 JUMP JUMPDEST PUSH2 0x2864 PUSH2 0x34DC JUMP JUMPDEST PUSH20 0xFFFFFFFFFFFFFFFFFFFFFFFFFFFFFFFFFFFFFFFF AND PUSH1 0x5 PUSH0 SWAP1 SLOAD SWAP1 PUSH2 0x100 EXP SWAP1 DIV PUSH20 0xFFFFFFFFFFFFFFFFFFFFFFFFFFFFFFFFFFFFFFFF AND PUSH20 0xFFFFFFFFFFFFFFFFFFFFFFFFFFFFFFFFFFFFFFFF AND EQ PUSH2 0x28F2 JUMPI PUSH1 0x40 MLOAD PUSH32 0x8C379A000000000000000000000000000000000000000000000000000000000 DUP2 MSTORE PUSH1 0x4 ADD PUSH2 0x28E9 SWAP1 PUSH2 0x56AB JUMP JUMPDEST PUSH1 0x40 MLOAD DUP1 SWAP2 SUB SWAP1 REVERT JUMPDEST PUSH0 JUMPDEST DUP3 MLOAD DUP2 LT ISZERO PUSH2 0x2978 JUMPI DUP2 PUSH1 0x18 PUSH0 DUP6 DUP5 DUP2 MLOAD DUP2 LT PUSH2 0x2914 JUMPI PUSH2 0x2913 PUSH2 0x5963 JUMP JUMPDEST JUMPDEST PUSH1 0x20 MUL PUSH1 0x20 ADD ADD MLOAD PUSH20 0xFFFFFFFFFFFFFFFFFFFFFFFFFFFFFFFFFFFFFFFF AND PUSH20 0xFFFFFFFFFFFFFFFFFFFFFFFFFFFFFFFFFFFFFFFF AND DUP2 MSTORE PUSH1 0x20 ADD SWAP1 DUP2 MSTORE PUSH1 0x20 ADD PUSH0 KECCAK256 PUSH0 PUSH2 0x100 EXP DUP2 SLOAD DUP2 PUSH1 0xFF MUL NOT AND SWAP1 DUP4 ISZERO ISZERO MUL OR SWAP1 SSTORE POP DUP1 DUP1 PUSH1 0x1 ADD SWAP2 POP POP PUSH2 0x28F4 JUMP JUMPDEST POP POP POP JUMP JUMPDEST PUSH2 0x2985 PUSH2 0x34DC JUMP JUMPDEST PUSH20 0xFFFFFFFFFFFFFFFFFFFFFFFFFFFFFFFFFFFFFFFF AND PUSH1 0x5 PUSH0 SWAP1 SLOAD SWAP1 PUSH2 0x100 EXP SWAP1 DIV PUSH20 0xFFFFFFFFFFFFFFFFFFFFFFFFFFFFFFFFFFFFFFFF AND PUSH20 0xFFFFFFFFFFFFFFFFFFFFFFFFFFFFFFFFFFFFFFFF AND EQ PUSH2 0x2A13 JUMPI PUSH1 0x40 MLOAD PUSH32 0x8C379A000000000000000000000000000000000000000000000000000000000 DUP2 MSTORE PUSH1 0x4 ADD PUSH2 0x2A0A SWAP1 PUSH2 0x56AB JUMP JUMPDEST PUSH1 0x40 MLOAD DUP1 SWAP2 SUB SWAP1 REVERT JUMPDEST DUP1 ISZERO ISZERO PUSH1 0x19 PUSH0 DUP5 PUSH20 0xFFFFFFFFFFFFFFFFFFFFFFFFFFFFFFFFFFFFFFFF AND PUSH20 0xFFFFFFFFFFFFFFFFFFFFFFFFFFFFFFFFFFFFFFFF AND DUP2 MSTORE PUSH1 0x20 ADD SWAP1 DUP2 MSTORE PUSH1 0x20 ADD PUSH0 KECCAK256 PUSH0 SWAP1 SLOAD SWAP1 PUSH2 0x100 EXP SWAP1 DIV PUSH1 0xFF AND ISZERO ISZERO SUB PUSH2 0x2AA2 JUMPI PUSH1 0x40 MLOAD PUSH32 0x8C379A000000000000000000000000000000000000000000000000000000000 DUP2 MSTORE PUSH1 0x4 ADD PUSH2 0x2A99 SWAP1 PUSH2 0x5B20 JUMP JUMPDEST PUSH1 0x40 MLOAD DUP1 SWAP2 SUB SWAP1 REVERT JUMPDEST DUP1 PUSH1 0x19 PUSH0 DUP5 PUSH20 0xFFFFFFFFFFFFFFFFFFFFFFFFFFFFFFFFFFFFFFFF AND PUSH20 0xFFFFFFFFFFFFFFFFFFFFFFFFFFFFFFFFFFFFFFFF AND DUP2 MSTORE PUSH1 0x20 ADD SWAP1 DUP2 MSTORE PUSH1 0x20 ADD PUSH0 KECCAK256 PUSH0 PUSH2 0x100 EXP DUP2 SLOAD DUP2 PUSH1 0xFF MUL NOT AND SWAP1 DUP4 ISZERO ISZERO MUL OR SWAP1 SSTORE POP DUP2 PUSH20 0xFFFFFFFFFFFFFFFFFFFFFFFFFFFFFFFFFFFFFFFF AND PUSH32 0x9D8F7706EA1113D1A167B526ECA956215946DD36CC7DF39EB16180222D8B5DF7 DUP3 PUSH1 0x40 MLOAD PUSH2 0x2B3C SWAP2 SWAP1 PUSH2 0x4F4C JUMP JUMPDEST PUSH1 0x40 MLOAD DUP1 SWAP2 SUB SWAP1 LOG2 POP POP JUMP JUMPDEST PUSH2 0x2B50 PUSH2 0x34DC JUMP JUMPDEST PUSH20 0xFFFFFFFFFFFFFFFFFFFFFFFFFFFFFFFFFFFFFFFF AND PUSH1 0x5 PUSH0 SWAP1 SLOAD SWAP1 PUSH2 0x100 EXP SWAP1 DIV PUSH20 0xFFFFFFFFFFFFFFFFFFFFFFFFFFFFFFFFFFFFFFFF AND PUSH20 0xFFFFFFFFFFFFFFFFFFFFFFFFFFFFFFFFFFFFFFFF AND EQ PUSH2 0x2BDE JUMPI PUSH1 0x40 MLOAD PUSH32 0x8C379A000000000000000000000000000000000000000000000000000000000 DUP2 MSTORE PUSH1 0x4 ADD PUSH2 0x2BD5 SWAP1 PUSH2 0x56AB JUMP JUMPDEST PUSH1 0x40 MLOAD DUP1 SWAP2 SUB SWAP1 REVERT JUMPDEST PUSH0 JUMPDEST DUP4 DUP4 SWAP1 POP DUP2 LT ISZERO PUSH2 0x2C73 JUMPI DUP2 PUSH1 0x19 PUSH0 DUP7 DUP7 DUP6 DUP2 DUP2 LT PUSH2 0x2C02 JUMPI PUSH2 0x2C01 PUSH2 0x5963 JUMP JUMPDEST JUMPDEST SWAP1 POP PUSH1 0x20 MUL ADD PUSH1 0x20 DUP2 ADD SWAP1 PUSH2 0x2C17 SWAP2 SWAP1 PUSH2 0x4F65 JUMP JUMPDEST PUSH20 0xFFFFFFFFFFFFFFFFFFFFFFFFFFFFFFFFFFFFFFFF AND PUSH20 0xFFFFFFFFFFFFFFFFFFFFFFFFFFFFFFFFFFFFFFFF AND DUP2 MSTORE PUSH1 0x20 ADD SWAP1 DUP2 MSTORE PUSH1 0x20 ADD PUSH0 KECCAK256 PUSH0 PUSH2 0x100 EXP DUP2 SLOAD DUP2 PUSH1 0xFF MUL NOT AND SWAP1 DUP4 ISZERO ISZERO MUL OR SWAP1 SSTORE POP DUP1 DUP1 PUSH1 0x1 ADD SWAP2 POP POP PUSH2 0x2BE0 JUMP JUMPDEST POP PUSH32 0x7FDAF542373FA84F4EE8D662C642F44E4C2276A217D7D29E548B6EB29A233B35 DUP4 DUP4 DUP4 PUSH1 0x40 MLOAD PUSH2 0x2CA7 SWAP4 SWAP3 SWAP2 SWAP1 PUSH2 0x5BFA JUMP JUMPDEST PUSH1 0x40 MLOAD DUP1 SWAP2 SUB SWAP1 LOG1 POP POP POP JUMP JUMPDEST PUSH2 0x2CBC PUSH2 0x34DC JUMP JUMPDEST PUSH20 0xFFFFFFFFFFFFFFFFFFFFFFFFFFFFFFFFFFFFFFFF AND PUSH1 0x5 PUSH0 SWAP1 SLOAD SWAP1 PUSH2 0x100 EXP SWAP1 DIV PUSH20 0xFFFFFFFFFFFFFFFFFFFFFFFFFFFFFFFFFFFFFFFF AND PUSH20 0xFFFFFFFFFFFFFFFFFFFFFFFFFFFFFFFFFFFFFFFF AND EQ PUSH2 0x2D4A JUMPI PUSH1 0x40 MLOAD PUSH32 0x8C379A000000000000000000000000000000000000000000000000000000000 DUP2 MSTORE PUSH1 0x4 ADD PUSH2 0x2D41 SWAP1 PUSH2 0x56AB JUMP JUMPDEST PUSH1 0x40 MLOAD DUP1 SWAP2 SUB SWAP1 REVERT JUMPDEST DUP1 PUSH1 0x6 PUSH0 PUSH2 0x100 EXP DUP2 SLOAD DUP2 PUSH20 0xFFFFFFFFFFFFFFFFFFFFFFFFFFFFFFFFFFFFFFFF MUL NOT AND SWAP1 DUP4 PUSH20 0xFFFFFFFFFFFFFFFFFFFFFFFFFFFFFFFFFFFFFFFF AND MUL OR SWAP1 SSTORE POP POP JUMP JUMPDEST PUSH0 PUSH1 0x1 PUSH0 DUP5 PUSH20 0xFFFFFFFFFFFFFFFFFFFFFFFFFFFFFFFFFFFFFFFF AND PUSH20 0xFFFFFFFFFFFFFFFFFFFFFFFFFFFFFFFFFFFFFFFF AND DUP2 MSTORE PUSH1 0x20 ADD SWAP1 DUP2 MSTORE PUSH1 0x20 ADD PUSH0 KECCAK256 PUSH0 DUP4 PUSH20 0xFFFFFFFFFFFFFFFFFFFFFFFFFFFFFFFFFFFFFFFF AND PUSH20 0xFFFFFFFFFFFFFFFFFFFFFFFFFFFFFFFFFFFFFFFF AND DUP2 MSTORE PUSH1 0x20 ADD SWAP1 DUP2 MSTORE PUSH1 0x20 ADD PUSH0 KECCAK256 SLOAD SWAP1 POP SWAP3 SWAP2 POP POP JUMP JUMPDEST PUSH2 0x2E17 PUSH2 0x34DC JUMP JUMPDEST PUSH20 0xFFFFFFFFFFFFFFFFFFFFFFFFFFFFFFFFFFFFFFFF AND PUSH1 0x5 PUSH0 SWAP1 SLOAD SWAP1 PUSH2 0x100 EXP SWAP1 DIV PUSH20 0xFFFFFFFFFFFFFFFFFFFFFFFFFFFFFFFFFFFFFFFF AND PUSH20 0xFFFFFFFFFFFFFFFFFFFFFFFFFFFFFFFFFFFFFFFF AND EQ PUSH2 0x2EA5 JUMPI PUSH1 0x40 MLOAD PUSH32 0x8C379A000000000000000000000000000000000000000000000000000000000 DUP2 MSTORE PUSH1 0x4 ADD PUSH2 0x2E9C SWAP1 PUSH2 0x56AB JUMP JUMPDEST PUSH1 0x40 MLOAD DUP1 SWAP2 SUB SWAP1 REVERT JUMPDEST DUP1 PUSH1 0x7 PUSH1 0x15 PUSH2 0x100 EXP DUP2 SLOAD DUP2 PUSH1 0xFF MUL NOT AND SWAP1 DUP4 ISZERO ISZERO MUL OR SWAP1 SSTORE POP POP JUMP JUMPDEST PUSH2 0x2ECA PUSH2 0x34DC JUMP JUMPDEST PUSH20 0xFFFFFFFFFFFFFFFFFFFFFFFFFFFFFFFFFFFFFFFF AND PUSH1 0x5 PUSH0 SWAP1 SLOAD SWAP1 PUSH2 0x100 EXP SWAP1 DIV PUSH20 0xFFFFFFFFFFFFFFFFFFFFFFFFFFFFFFFFFFFFFFFF AND PUSH20 0xFFFFFFFFFFFFFFFFFFFFFFFFFFFFFFFFFFFFFFFF AND EQ PUSH2 0x2F58 JUMPI PUSH1 0x40 MLOAD PUSH32 0x8C379A000000000000000000000000000000000000000000000000000000000 DUP2 MSTORE PUSH1 0x4 ADD PUSH2 0x2F4F SWAP1 PUSH2 0x56AB JUMP JUMPDEST PUSH1 0x40 MLOAD DUP1 SWAP2 SUB SWAP1 REVERT JUMPDEST PUSH1 0x8 PUSH0 SWAP1 SLOAD SWAP1 PUSH2 0x100 EXP SWAP1 DIV PUSH20 0xFFFFFFFFFFFFFFFFFFFFFFFFFFFFFFFFFFFFFFFF AND PUSH20 0xFFFFFFFFFFFFFFFFFFFFFFFFFFFFFFFFFFFFFFFF AND PUSH4 0x3B36A1D7 PUSH2 0x2F9D PUSH2 0x22B7 JUMP JUMPDEST PUSH1 0x40 MLOAD DUP3 PUSH4 0xFFFFFFFF AND PUSH1 0xE0 SHL DUP2 MSTORE PUSH1 0x4 ADD PUSH2 0x2FB9 SWAP2 SWAP1 PUSH2 0x50BF JUMP JUMPDEST PUSH0 PUSH1 0x40 MLOAD DUP1 DUP4 SUB DUP2 PUSH0 DUP8 DUP1 EXTCODESIZE ISZERO DUP1 ISZERO PUSH2 0x2FD0 JUMPI PUSH0 DUP1 REVERT JUMPDEST POP GAS CALL ISZERO DUP1 ISZERO PUSH2 0x2FE2 JUMPI RETURNDATASIZE PUSH0 DUP1 RETURNDATACOPY RETURNDATASIZE PUSH0 REVERT JUMPDEST POP POP POP POP JUMP JUMPDEST PUSH1 0xB SLOAD DUP2 JUMP JUMPDEST PUSH2 0x2FF6 PUSH2 0x34DC JUMP JUMPDEST PUSH20 0xFFFFFFFFFFFFFFFFFFFFFFFFFFFFFFFFFFFFFFFF AND PUSH1 0x5 PUSH0 SWAP1 SLOAD SWAP1 PUSH2 0x100 EXP SWAP1 DIV PUSH20 0xFFFFFFFFFFFFFFFFFFFFFFFFFFFFFFFFFFFFFFFF AND PUSH20 0xFFFFFFFFFFFFFFFFFFFFFFFFFFFFFFFFFFFFFFFF AND EQ PUSH2 0x3084 JUMPI PUSH1 0x40 MLOAD PUSH32 0x8C379A000000000000000000000000000000000000000000000000000000000 DUP2 MSTORE PUSH1 0x4 ADD PUSH2 0x307B SWAP1 PUSH2 0x56AB JUMP JUMPDEST PUSH1 0x40 MLOAD DUP1 SWAP2 SUB SWAP1 REVERT JUMPDEST PUSH1 0x14 DUP2 DUP4 DUP6 DUP8 PUSH2 0x3094 SWAP2 SWAP1 PUSH2 0x5C2A JUMP JUMPDEST PUSH2 0x309E SWAP2 SWAP1 PUSH2 0x5C2A JUMP JUMPDEST PUSH2 0x30A8 SWAP2 SWAP1 PUSH2 0x5C2A JUMP JUMPDEST GT ISZERO PUSH2 0x30E9 JUMPI PUSH1 0x40 MLOAD PUSH32 0x8C379A000000000000000000000000000000000000000000000000000000000 DUP2 MSTORE PUSH1 0x4 ADD PUSH2 0x30E0 SWAP1 PUSH2 0x5CA7 JUMP JUMPDEST PUSH1 0x40 MLOAD DUP1 SWAP2 SUB SWAP1 REVERT JUMPDEST PUSH1 0x40 MLOAD DUP1 PUSH1 0x80 ADD PUSH1 0x40 MSTORE DUP1 DUP6 DUP2 MSTORE PUSH1 0x20 ADD DUP5 DUP2 MSTORE PUSH1 0x20 ADD DUP4 DUP2 MSTORE PUSH1 0x20 ADD DUP3 DUP2 MSTORE POP PUSH1 0xE PUSH0 DUP3 ADD MLOAD DUP2 PUSH0 ADD SSTORE PUSH1 0x20 DUP3 ADD MLOAD DUP2 PUSH1 0x1 ADD SSTORE PUSH1 0x40 DUP3 ADD MLOAD DUP2 PUSH1 0x2 ADD SSTORE PUSH1 0x60 DUP3 ADD MLOAD DUP2 PUSH1 0x3 ADD SSTORE SWAP1 POP POP DUP1 DUP3 DUP5 DUP7 PUSH2 0x3143 SWAP2 SWAP1 PUSH2 0x5C2A JUMP JUMPDEST PUSH2 0x314D SWAP2 SWAP1 PUSH2 0x5C2A JUMP JUMPDEST PUSH2 0x3157 SWAP2 SWAP1 PUSH2 0x5C2A JUMP JUMPDEST PUSH1 0x16 DUP2 SWAP1 SSTORE POP POP POP POP POP JUMP JUMPDEST PUSH2 0x316B PUSH2 0x34DC JUMP JUMPDEST PUSH20 0xFFFFFFFFFFFFFFFFFFFFFFFFFFFFFFFFFFFFFFFF AND PUSH1 0x5 PUSH0 SWAP1 SLOAD SWAP1 PUSH2 0x100 EXP SWAP1 DIV PUSH20 0xFFFFFFFFFFFFFFFFFFFFFFFFFFFFFFFFFFFFFFFF AND PUSH20 0xFFFFFFFFFFFFFFFFFFFFFFFFFFFFFFFFFFFFFFFF AND EQ PUSH2 0x31F9 JUMPI PUSH1 0x40 MLOAD PUSH32 0x8C379A000000000000000000000000000000000000000000000000000000000 DUP2 MSTORE PUSH1 0x4 ADD PUSH2 0x31F0 SWAP1 PUSH2 0x56AB JUMP JUMPDEST PUSH1 0x40 MLOAD DUP1 SWAP2 SUB SWAP1 REVERT JUMPDEST PUSH0 PUSH20 0xFFFFFFFFFFFFFFFFFFFFFFFFFFFFFFFFFFFFFFFF AND DUP2 PUSH20 0xFFFFFFFFFFFFFFFFFFFFFFFFFFFFFFFFFFFFFFFF AND SUB PUSH2 0x3267 JUMPI PUSH1 0x40 MLOAD PUSH32 0x8C379A000000000000000000000000000000000000000000000000000000000 DUP2 MSTORE PUSH1 0x4 ADD PUSH2 0x325E SWAP1 PUSH2 0x5D35 JUMP JUMPDEST PUSH1 0x40 MLOAD DUP1 SWAP2 SUB SWAP1 REVERT JUMPDEST DUP1 PUSH20 0xFFFFFFFFFFFFFFFFFFFFFFFFFFFFFFFFFFFFFFFF AND PUSH1 0x5 PUSH0 SWAP1 SLOAD SWAP1 PUSH2 0x100 EXP SWAP1 DIV PUSH20 0xFFFFFFFFFFFFFFFFFFFFFFFFFFFFFFFFFFFFFFFF AND PUSH20 0xFFFFFFFFFFFFFFFFFFFFFFFFFFFFFFFFFFFFFFFF AND PUSH32 0x8BE0079C531659141344CD1FD0A4F28419497F9722A3DAAFE3B4186F6B6457E0 PUSH1 0x40 MLOAD PUSH1 0x40 MLOAD DUP1 SWAP2 SUB SWAP1 LOG3 DUP1 PUSH1 0x5 PUSH0 PUSH2 0x100 EXP DUP2 SLOAD DUP2 PUSH20 0xFFFFFFFFFFFFFFFFFFFFFFFFFFFFFFFFFFFFFFFF MUL NOT AND SWAP1 DUP4 PUSH20 0xFFFFFFFFFFFFFFFFFFFFFFFFFFFFFFFFFFFFFFFF AND MUL OR SWAP1 SSTORE POP POP JUMP JUMPDEST PUSH2 0x332D PUSH2 0x34DC JUMP JUMPDEST PUSH20 0xFFFFFFFFFFFFFFFFFFFFFFFFFFFFFFFFFFFFFFFF AND PUSH1 0x5 PUSH0 SWAP1 SLOAD SWAP1 PUSH2 0x100 EXP SWAP1 DIV PUSH20 0xFFFFFFFFFFFFFFFFFFFFFFFFFFFFFFFFFFFFFFFF AND PUSH20 0xFFFFFFFFFFFFFFFFFFFFFFFFFFFFFFFFFFFFFFFF AND EQ PUSH2 0x33BB JUMPI PUSH1 0x40 MLOAD PUSH32 0x8C379A000000000000000000000000000000000000000000000000000000000 DUP2 MSTORE PUSH1 0x4 ADD PUSH2 0x33B2 SWAP1 PUSH2 0x56AB JUMP JUMPDEST PUSH1 0x40 MLOAD DUP1 SWAP2 SUB SWAP1 REVERT JUMPDEST PUSH1 0x14 DUP2 DUP4 DUP6 DUP8 PUSH2 0x33CB SWAP2 SWAP1 PUSH2 0x5C2A JUMP JUMPDEST PUSH2 0x33D5 SWAP2 SWAP1 PUSH2 0x5C2A JUMP JUMPDEST PUSH2 0x33DF SWAP2 SWAP1 PUSH2 0x5C2A JUMP JUMPDEST GT ISZERO PUSH2 0x3420 JUMPI PUSH1 0x40 MLOAD PUSH32 0x8C379A000000000000000000000000000000000000000000000000000000000 DUP2 MSTORE PUSH1 0x4 ADD PUSH2 0x3417 SWAP1 PUSH2 0x5CA7 JUMP JUMPDEST PUSH1 0x40 MLOAD DUP1 SWAP2 SUB SWAP1 REVERT JUMPDEST PUSH1 0x40 MLOAD DUP1 PUSH1 0x80 ADD PUSH1 0x40 MSTORE DUP1 DUP6 DUP2 MSTORE PUSH1 0x20 ADD DUP5 DUP2 MSTORE PUSH1 0x20 ADD DUP4 DUP2 MSTORE PUSH1 0x20 ADD DUP3 DUP2 MSTORE POP PUSH1 0x12 PUSH0 DUP3 ADD MLOAD DUP2 PUSH0 ADD SSTORE PUSH1 0x20 DUP3 ADD MLOAD DUP2 PUSH1 0x1 ADD SSTORE PUSH1 0x40 DUP3 ADD MLOAD DUP2 PUSH1 0x2 ADD SSTORE PUSH1 0x60 DUP3 ADD MLOAD DUP2 PUSH1 0x3 ADD SSTORE SWAP1 POP POP DUP1 DUP3 DUP5 DUP7 PUSH2 0x347A SWAP2 SWAP1 PUSH2 0x5C2A JUMP JUMPDEST PUSH2 0x3484 SWAP2 SWAP1 PUSH2 0x5C2A JUMP JUMPDEST PUSH2 0x348E SWAP2 SWAP1 PUSH2 0x5C2A JUMP JUMPDEST PUSH1 0x17 DUP2 SWAP1 SSTORE POP POP POP POP POP JUMP JUMPDEST PUSH1 0x12 DUP1 PUSH0 ADD SLOAD SWAP1 DUP1 PUSH1 0x1 ADD SLOAD SWAP1 DUP1 PUSH1 0x2 ADD SLOAD SWAP1 DUP1 PUSH1 0x3 ADD SLOAD SWAP1 POP DUP5 JUMP JUMPDEST PUSH1 0x6 PUSH0 SWAP1 SLOAD SWAP1 PUSH2 0x100 EXP SWAP1 DIV PUSH20 0xFFFFFFFFFFFFFFFFFFFFFFFFFFFFFFFFFFFFFFFF AND DUP2 JUMP JUMPDEST PUSH0 CALLER SWAP1 POP SWAP1 JUMP JUMPDEST PUSH0 PUSH20 0xFFFFFFFFFFFFFFFFFFFFFFFFFFFFFFFFFFFFFFFF AND DUP4 PUSH20 0xFFFFFFFFFFFFFFFFFFFFFFFFFFFFFFFFFFFFFFFF AND SUB PUSH2 0x3551 JUMPI PUSH1 0x40 MLOAD PUSH32 0x8C379A000000000000000000000000000000000000000000000000000000000 DUP2 MSTORE PUSH1 0x4 ADD PUSH2 0x3548 SWAP1 PUSH2 0x5DC3 JUMP JUMPDEST PUSH1 0x40 MLOAD DUP1 SWAP2 SUB SWAP1 REVERT JUMPDEST PUSH0 PUSH20 0xFFFFFFFFFFFFFFFFFFFFFFFFFFFFFFFFFFFFFFFF AND DUP3 PUSH20 0xFFFFFFFFFFFFFFFFFFFFFFFFFFFFFFFFFFFFFFFF AND SUB PUSH2 0x35BF JUMPI PUSH1 0x40 MLOAD PUSH32 0x8C379A000000000000000000000000000000000000000000000000000000000 DUP2 MSTORE PUSH1 0x4 ADD PUSH2 0x35B6 SWAP1 PUSH2 0x5E51 JUMP JUMPDEST PUSH1 0x40 MLOAD DUP1 SWAP2 SUB SWAP1 REVERT JUMPDEST DUP1 PUSH1 0x1 PUSH0 DUP6 PUSH20 0xFFFFFFFFFFFFFFFFFFFFFFFFFFFFFFFFFFFFFFFF AND PUSH20 0xFFFFFFFFFFFFFFFFFFFFFFFFFFFFFFFFFFFFFFFF AND DUP2 MSTORE PUSH1 0x20 ADD SWAP1 DUP2 MSTORE PUSH1 0x20 ADD PUSH0 KECCAK256 PUSH0 DUP5 PUSH20 0xFFFFFFFFFFFFFFFFFFFFFFFFFFFFFFFFFFFFFFFF AND PUSH20 0xFFFFFFFFFFFFFFFFFFFFFFFFFFFFFFFFFFFFFFFF AND DUP2 MSTORE PUSH1 0x20 ADD SWAP1 DUP2 MSTORE PUSH1 0x20 ADD PUSH0 KECCAK256 DUP2 SWAP1 SSTORE POP DUP2 PUSH20 0xFFFFFFFFFFFFFFFFFFFFFFFFFFFFFFFFFFFFFFFF AND DUP4 PUSH20 0xFFFFFFFFFFFFFFFFFFFFFFFFFFFFFFFFFFFFFFFF AND PUSH32 0x8C5BE1E5EBEC7D5BD14F71427D1E84F3DD0314C0F7B2291E5B200AC8C7C3B925 DUP4 PUSH1 0x40 MLOAD PUSH2 0x3699 SWAP2 SWAP1 PUSH2 0x4F9F JUMP JUMPDEST PUSH1 0x40 MLOAD DUP1 SWAP2 SUB SWAP1 LOG3 POP POP POP JUMP JUMPDEST DUP1 SELFBALANCE LT ISZERO PUSH2 0x36E9 JUMPI PUSH1 0x40 MLOAD PUSH32 0x8C379A000000000000000000000000000000000000000000000000000000000 DUP2 MSTORE PUSH1 0x4 ADD PUSH2 0x36E0 SWAP1 PUSH2 0x5EB9 JUMP JUMPDEST PUSH1 0x40 MLOAD DUP1 SWAP2 SUB SWAP1 REVERT JUMPDEST PUSH0 DUP3 PUSH20 0xFFFFFFFFFFFFFFFFFFFFFFFFFFFFFFFFFFFFFFFF AND DUP3 PUSH1 0x40 MLOAD PUSH2 0x370E SWAP1 PUSH2 0x5F04 JUMP JUMPDEST PUSH0 PUSH1 0x40 MLOAD DUP1 DUP4 SUB DUP2 DUP6 DUP8 GAS CALL SWAP3 POP POP POP RETURNDATASIZE DUP1 PUSH0 DUP2 EQ PUSH2 0x3748 JUMPI PUSH1 0x40 MLOAD SWAP2 POP PUSH1 0x1F NOT PUSH1 0x3F RETURNDATASIZE ADD AND DUP3 ADD PUSH1 0x40 MSTORE RETURNDATASIZE DUP3 MSTORE RETURNDATASIZE PUSH0 PUSH1 0x20 DUP5 ADD RETURNDATACOPY PUSH2 0x374D JUMP JUMPDEST PUSH1 0x60 SWAP2 POP JUMPDEST POP POP SWAP1 POP DUP1 PUSH2 0x3791 JUMPI PUSH1 0x40 MLOAD PUSH32 0x8C379A000000000000000000000000000000000000000000000000000000000 DUP2 MSTORE PUSH1 0x4 ADD PUSH2 0x3788 SWAP1 PUSH2 0x5F88 JUMP JUMPDEST PUSH1 0x40 MLOAD DUP1 SWAP2 SUB SWAP1 REVERT JUMPDEST POP POP POP JUMP JUMPDEST PUSH0 PUSH20 0xFFFFFFFFFFFFFFFFFFFFFFFFFFFFFFFFFFFFFFFF AND DUP4 PUSH20 0xFFFFFFFFFFFFFFFFFFFFFFFFFFFFFFFFFFFFFFFF AND SUB PUSH2 0x3804 JUMPI PUSH1 0x40 MLOAD PUSH32 0x8C379A000000000000000000000000000000000000000000000000000000000 DUP2 MSTORE PUSH1 0x4 ADD PUSH2 0x37FB SWAP1 PUSH2 0x6016 JUMP JUMPDEST PUSH1 0x40 MLOAD DUP1 SWAP2 SUB SWAP1 REVERT JUMPDEST PUSH0 PUSH20 0xFFFFFFFFFFFFFFFFFFFFFFFFFFFFFFFFFFFFFFFF AND DUP3 PUSH20 0xFFFFFFFFFFFFFFFFFFFFFFFFFFFFFFFFFFFFFFFF AND SUB PUSH2 0x3872 JUMPI PUSH1 0x40 MLOAD PUSH32 0x8C379A000000000000000000000000000000000000000000000000000000000 DUP2 MSTORE PUSH1 0x4 ADD PUSH2 0x3869 SWAP1 PUSH2 0x60A4 JUMP JUMPDEST PUSH1 0x40 MLOAD DUP1 SWAP2 SUB SWAP1 REVERT JUMPDEST PUSH1 0x19 PUSH0 DUP5 PUSH20 0xFFFFFFFFFFFFFFFFFFFFFFFFFFFFFFFFFFFFFFFF AND PUSH20 0xFFFFFFFFFFFFFFFFFFFFFFFFFFFFFFFFFFFFFFFF AND DUP2 MSTORE PUSH1 0x20 ADD SWAP1 DUP2 MSTORE PUSH1 0x20 ADD PUSH0 KECCAK256 PUSH0 SWAP1 SLOAD SWAP1 PUSH2 0x100 EXP SWAP1 DIV PUSH1 0xFF AND ISZERO DUP1 ISZERO PUSH2 0x3910 JUMPI POP PUSH1 0x19 PUSH0 DUP4 PUSH20 0xFFFFFFFFFFFFFFFFFFFFFFFFFFFFFFFFFFFFFFFF AND PUSH20 0xFFFFFFFFFFFFFFFFFFFFFFFFFFFFFFFFFFFFFFFF AND DUP2 MSTORE PUSH1 0x20 ADD SWAP1 DUP2 MSTORE PUSH1 0x20 ADD PUSH0 KECCAK256 PUSH0 SWAP1 SLOAD SWAP1 PUSH2 0x100 EXP SWAP1 DIV PUSH1 0xFF AND ISZERO JUMPDEST DUP1 ISZERO PUSH2 0x3929 JUMPI POP PUSH1 0x7 PUSH1 0x14 SWAP1 SLOAD SWAP1 PUSH2 0x100 EXP SWAP1 DIV PUSH1 0xFF AND ISZERO JUMPDEST ISZERO PUSH2 0x3B8A JUMPI PUSH1 0x7 PUSH1 0x17 SWAP1 SLOAD SWAP1 PUSH2 0x100 EXP SWAP1 DIV PUSH1 0xFF AND PUSH2 0x397D JUMPI PUSH1 0x40 MLOAD PUSH32 0x8C379A000000000000000000000000000000000000000000000000000000000 DUP2 MSTORE PUSH1 0x4 ADD PUSH2 0x3974 SWAP1 PUSH2 0x610C JUMP JUMPDEST PUSH1 0x40 MLOAD DUP1 SWAP2 SUB SWAP1 REVERT JUMPDEST PUSH1 0x18 PUSH0 DUP5 PUSH20 0xFFFFFFFFFFFFFFFFFFFFFFFFFFFFFFFFFFFFFFFF AND PUSH20 0xFFFFFFFFFFFFFFFFFFFFFFFFFFFFFFFFFFFFFFFF AND DUP2 MSTORE PUSH1 0x20 ADD SWAP1 DUP2 MSTORE PUSH1 0x20 ADD PUSH0 KECCAK256 PUSH0 SWAP1 SLOAD SWAP1 PUSH2 0x100 EXP SWAP1 DIV PUSH1 0xFF AND ISZERO DUP1 ISZERO PUSH2 0x3A1B JUMPI POP PUSH1 0x18 PUSH0 DUP4 PUSH20 0xFFFFFFFFFFFFFFFFFFFFFFFFFFFFFFFFFFFFFFFF AND PUSH20 0xFFFFFFFFFFFFFFFFFFFFFFFFFFFFFFFFFFFFFFFF AND DUP2 MSTORE PUSH1 0x20 ADD SWAP1 DUP2 MSTORE PUSH1 0x20 ADD PUSH0 KECCAK256 PUSH0 SWAP1 SLOAD SWAP1 PUSH2 0x100 EXP SWAP1 DIV PUSH1 0xFF AND ISZERO JUMPDEST PUSH2 0x3A5A JUMPI PUSH1 0x40 MLOAD PUSH32 0x8C379A000000000000000000000000000000000000000000000000000000000 DUP2 MSTORE PUSH1 0x4 ADD PUSH2 0x3A51 SWAP1 PUSH2 0x6174 JUMP JUMPDEST PUSH1 0x40 MLOAD DUP1 SWAP2 SUB SWAP1 REVERT JUMPDEST PUSH1 0x1A PUSH0 DUP4 PUSH20 0xFFFFFFFFFFFFFFFFFFFFFFFFFFFFFFFFFFFFFFFF AND PUSH20 0xFFFFFFFFFFFFFFFFFFFFFFFFFFFFFFFFFFFFFFFF AND DUP2 MSTORE PUSH1 0x20 ADD SWAP1 DUP2 MSTORE PUSH1 0x20 ADD PUSH0 KECCAK256 PUSH0 SWAP1 SLOAD SWAP1 PUSH2 0x100 EXP SWAP1 DIV PUSH1 0xFF AND ISZERO PUSH2 0x3AF3 JUMPI PUSH1 0xD SLOAD DUP2 GT ISZERO PUSH2 0x3AEE JUMPI PUSH1 0x40 MLOAD PUSH32 0x8C379A000000000000000000000000000000000000000000000000000000000 DUP2 MSTORE PUSH1 0x4 ADD PUSH2 0x3AE5 SWAP1 PUSH2 0x61DC JUMP JUMPDEST PUSH1 0x40 MLOAD DUP1 SWAP2 SUB SWAP1 REVERT JUMPDEST PUSH2 0x3B89 JUMP JUMPDEST PUSH1 0x1A PUSH0 DUP5 PUSH20 0xFFFFFFFFFFFFFFFFFFFFFFFFFFFFFFFFFFFFFFFF AND PUSH20 0xFFFFFFFFFFFFFFFFFFFFFFFFFFFFFFFFFFFFFFFF AND DUP2 MSTORE PUSH1 0x20 ADD SWAP1 DUP2 MSTORE PUSH1 0x20 ADD PUSH0 KECCAK256 PUSH0 SWAP1 SLOAD SWAP1 PUSH2 0x100 EXP SWAP1 DIV PUSH1 0xFF AND ISZERO PUSH2 0x3B88 JUMPI PUSH1 0xC SLOAD DUP2 GT ISZERO PUSH2 0x3B87 JUMPI PUSH1 0x40 MLOAD PUSH32 0x8C379A000000000000000000000000000000000000000000000000000000000 DUP2 MSTORE PUSH1 0x4 ADD PUSH2 0x3B7E SWAP1 PUSH2 0x6244 JUMP JUMPDEST PUSH1 0x40 MLOAD DUP1 SWAP2 SUB SWAP1 REVERT JUMPDEST JUMPDEST JUMPDEST JUMPDEST PUSH0 DUP2 SUB PUSH2 0x3BA1 JUMPI PUSH2 0x3B9C DUP4 DUP4 PUSH0 PUSH2 0x417C JUMP JUMPDEST PUSH2 0x40B8 JUMP JUMPDEST PUSH0 PUSH2 0x3BAB ADDRESS PUSH2 0x1BAA JUMP JUMPDEST SWAP1 POP PUSH0 PUSH1 0xB SLOAD DUP3 LT ISZERO SWAP1 POP DUP1 DUP1 ISZERO PUSH2 0x3BD0 JUMPI POP PUSH1 0x7 PUSH1 0x14 SWAP1 SLOAD SWAP1 PUSH2 0x100 EXP SWAP1 DIV PUSH1 0xFF AND ISZERO JUMPDEST DUP1 ISZERO PUSH2 0x3BE8 JUMPI POP PUSH1 0x7 PUSH1 0x15 SWAP1 SLOAD SWAP1 PUSH2 0x100 EXP SWAP1 DIV PUSH1 0xFF AND JUMPDEST DUP1 ISZERO PUSH2 0x3C3A JUMPI POP PUSH1 0x1A PUSH0 DUP6 PUSH20 0xFFFFFFFFFFFFFFFFFFFFFFFFFFFFFFFFFFFFFFFF AND PUSH20 0xFFFFFFFFFFFFFFFFFFFFFFFFFFFFFFFFFFFFFFFF AND DUP2 MSTORE PUSH1 0x20 ADD SWAP1 DUP2 MSTORE PUSH1 0x20 ADD PUSH0 KECCAK256 PUSH0 SWAP1 SLOAD SWAP1 PUSH2 0x100 EXP SWAP1 DIV PUSH1 0xFF AND JUMPDEST DUP1 ISZERO PUSH2 0x3C8D JUMPI POP PUSH1 0x19 PUSH0 DUP7 PUSH20 0xFFFFFFFFFFFFFFFFFFFFFFFFFFFFFFFFFFFFFFFF AND PUSH20 0xFFFFFFFFFFFFFFFFFFFFFFFFFFFFFFFFFFFFFFFF AND DUP2 MSTORE PUSH1 0x20 ADD SWAP1 DUP2 MSTORE PUSH1 0x20 ADD PUSH0 KECCAK256 PUSH0 SWAP1 SLOAD SWAP1 PUSH2 0x100 EXP SWAP1 DIV PUSH1 0xFF AND ISZERO JUMPDEST DUP1 ISZERO PUSH2 0x3CE0 JUMPI POP PUSH1 0x19 PUSH0 DUP6 PUSH20 0xFFFFFFFFFFFFFFFFFFFFFFFFFFFFFFFFFFFFFFFF AND PUSH20 0xFFFFFFFFFFFFFFFFFFFFFFFFFFFFFFFFFFFFFFFF AND DUP2 MSTORE PUSH1 0x20 ADD SWAP1 DUP2 MSTORE PUSH1 0x20 ADD PUSH0 KECCAK256 PUSH0 SWAP1 SLOAD SWAP1 PUSH2 0x100 EXP SWAP1 DIV PUSH1 0xFF AND ISZERO JUMPDEST ISZERO PUSH2 0x3D31 JUMPI PUSH1 0x1 PUSH1 0x7 PUSH1 0x14 PUSH2 0x100 EXP DUP2 SLOAD DUP2 PUSH1 0xFF MUL NOT AND SWAP1 DUP4 ISZERO ISZERO MUL OR SWAP1 SSTORE POP PUSH0 PUSH1 0x17 SLOAD GT ISZERO PUSH2 0x3D16 JUMPI PUSH2 0x3D15 PUSH1 0xB SLOAD PUSH2 0x45C3 JUMP JUMPDEST JUMPDEST PUSH0 PUSH1 0x7 PUSH1 0x14 PUSH2 0x100 EXP DUP2 SLOAD DUP2 PUSH1 0xFF MUL NOT AND SWAP1 DUP4 ISZERO ISZERO MUL OR SWAP1 SSTORE POP JUMPDEST PUSH0 PUSH1 0x7 PUSH1 0x14 SWAP1 SLOAD SWAP1 PUSH2 0x100 EXP SWAP1 DIV PUSH1 0xFF AND ISZERO SWAP1 POP PUSH1 0x19 PUSH0 DUP8 PUSH20 0xFFFFFFFFFFFFFFFFFFFFFFFFFFFFFFFFFFFFFFFF AND PUSH20 0xFFFFFFFFFFFFFFFFFFFFFFFFFFFFFFFFFFFFFFFF AND DUP2 MSTORE PUSH1 0x20 ADD SWAP1 DUP2 MSTORE PUSH1 0x20 ADD PUSH0 KECCAK256 PUSH0 SWAP1 SLOAD SWAP1 PUSH2 0x100 EXP SWAP1 DIV PUSH1 0xFF AND DUP1 PUSH2 0x3DE0 JUMPI POP PUSH1 0x19 PUSH0 DUP7 PUSH20 0xFFFFFFFFFFFFFFFFFFFFFFFFFFFFFFFFFFFFFFFF AND PUSH20 0xFFFFFFFFFFFFFFFFFFFFFFFFFFFFFFFFFFFFFFFF AND DUP2 MSTORE PUSH1 0x20 ADD SWAP1 DUP2 MSTORE PUSH1 0x20 ADD PUSH0 KECCAK256 PUSH0 SWAP1 SLOAD SWAP1 PUSH2 0x100 EXP SWAP1 DIV PUSH1 0xFF AND JUMPDEST ISZERO PUSH2 0x3DE9 JUMPI PUSH0 SWAP1 POP JUMPDEST PUSH1 0x1A PUSH0 DUP7 PUSH20 0xFFFFFFFFFFFFFFFFFFFFFFFFFFFFFFFFFFFFFFFF AND PUSH20 0xFFFFFFFFFFFFFFFFFFFFFFFFFFFFFFFFFFFFFFFF AND DUP2 MSTORE PUSH1 0x20 ADD SWAP1 DUP2 MSTORE PUSH1 0x20 ADD PUSH0 KECCAK256 PUSH0 SWAP1 SLOAD SWAP1 PUSH2 0x100 EXP SWAP1 DIV PUSH1 0xFF AND ISZERO DUP1 ISZERO PUSH2 0x3E87 JUMPI POP PUSH1 0x1A PUSH0 DUP8 PUSH20 0xFFFFFFFFFFFFFFFFFFFFFFFFFFFFFFFFFFFFFFFF AND PUSH20 0xFFFFFFFFFFFFFFFFFFFFFFFFFFFFFFFFFFFFFFFF AND DUP2 MSTORE PUSH1 0x20 ADD SWAP1 DUP2 MSTORE PUSH1 0x20 ADD PUSH0 KECCAK256 PUSH0 SWAP1 SLOAD SWAP1 PUSH2 0x100 EXP SWAP1 DIV PUSH1 0xFF AND ISZERO JUMPDEST ISZERO PUSH2 0x3E90 JUMPI PUSH0 SWAP1 POP JUMPDEST DUP1 ISZERO PUSH2 0x3F8F JUMPI PUSH0 PUSH1 0x1A PUSH0 DUP8 PUSH20 0xFFFFFFFFFFFFFFFFFFFFFFFFFFFFFFFFFFFFFFFF AND PUSH20 0xFFFFFFFFFFFFFFFFFFFFFFFFFFFFFFFFFFFFFFFF AND DUP2 MSTORE PUSH1 0x20 ADD SWAP1 DUP2 MSTORE PUSH1 0x20 ADD PUSH0 KECCAK256 PUSH0 SWAP1 SLOAD SWAP1 PUSH2 0x100 EXP SWAP1 DIV PUSH1 0xFF AND ISZERO PUSH2 0x3F07 JUMPI PUSH1 0x64 PUSH1 0x17 SLOAD DUP7 PUSH2 0x3EF6 SWAP2 SWAP1 PUSH2 0x59BD JUMP JUMPDEST PUSH2 0x3F00 SWAP2 SWAP1 PUSH2 0x628F JUMP JUMPDEST SWAP1 POP PUSH2 0x3F74 JUMP JUMPDEST PUSH1 0x1A PUSH0 DUP9 PUSH20 0xFFFFFFFFFFFFFFFFFFFFFFFFFFFFFFFFFFFFFFFF AND PUSH20 0xFFFFFFFFFFFFFFFFFFFFFFFFFFFFFFFFFFFFFFFF AND DUP2 MSTORE PUSH1 0x20 ADD SWAP1 DUP2 MSTORE PUSH1 0x20 ADD PUSH0 KECCAK256 PUSH0 SWAP1 SLOAD SWAP1 PUSH2 0x100 EXP SWAP1 DIV PUSH1 0xFF AND ISZERO PUSH2 0x3F73 JUMPI PUSH1 0x64 PUSH1 0x16 SLOAD DUP7 PUSH2 0x3F66 SWAP2 SWAP1 PUSH2 0x59BD JUMP JUMPDEST PUSH2 0x3F70 SWAP2 SWAP1 PUSH2 0x628F JUMP JUMPDEST SWAP1 POP JUMPDEST JUMPDEST DUP1 DUP6 PUSH2 0x3F80 SWAP2 SWAP1 PUSH2 0x62BF JUMP JUMPDEST SWAP5 POP PUSH2 0x3F8D DUP8 ADDRESS DUP4 PUSH2 0x417C JUMP JUMPDEST POP JUMPDEST PUSH2 0x3F9A DUP7 DUP7 DUP7 PUSH2 0x417C JUMP JUMPDEST PUSH1 0x8 PUSH0 SWAP1 SLOAD SWAP1 PUSH2 0x100 EXP SWAP1 DIV PUSH20 0xFFFFFFFFFFFFFFFFFFFFFFFFFFFFFFFFFFFFFFFF AND PUSH20 0xFFFFFFFFFFFFFFFFFFFFFFFFFFFFFFFFFFFFFFFF AND PUSH4 0xE30443BC DUP8 PUSH2 0x3FE1 DUP10 PUSH2 0x1BAA JUMP JUMPDEST PUSH1 0x40 MLOAD DUP4 PUSH4 0xFFFFFFFF AND PUSH1 0xE0 SHL DUP2 MSTORE PUSH1 0x4 ADD PUSH2 0x3FFE SWAP3 SWAP2 SWAP1 PUSH2 0x578C JUMP JUMPDEST PUSH0 PUSH1 0x40 MLOAD DUP1 DUP4 SUB DUP2 PUSH0 DUP8 DUP1 EXTCODESIZE ISZERO DUP1 ISZERO PUSH2 0x4015 JUMPI PUSH0 DUP1 REVERT JUMPDEST POP GAS CALL SWAP3 POP POP POP DUP1 ISZERO PUSH2 0x4026 JUMPI POP PUSH1 0x1 JUMPDEST POP PUSH1 0x8 PUSH0 SWAP1 SLOAD SWAP1 PUSH2 0x100 EXP SWAP1 DIV PUSH20 0xFFFFFFFFFFFFFFFFFFFFFFFFFFFFFFFFFFFFFFFF AND PUSH20 0xFFFFFFFFFFFFFFFFFFFFFFFFFFFFFFFFFFFFFFFF AND PUSH4 0xE30443BC DUP7 PUSH2 0x406E DUP9 PUSH2 0x1BAA JUMP JUMPDEST PUSH1 0x40 MLOAD DUP4 PUSH4 0xFFFFFFFF AND PUSH1 0xE0 SHL DUP2 MSTORE PUSH1 0x4 ADD PUSH2 0x408B SWAP3 SWAP2 SWAP1 PUSH2 0x578C JUMP JUMPDEST PUSH0 PUSH1 0x40 MLOAD DUP1 DUP4 SUB DUP2 PUSH0 DUP8 DUP1 EXTCODESIZE ISZERO DUP1 ISZERO PUSH2 0x40A2 JUMPI PUSH0 DUP1 REVERT JUMPDEST POP GAS CALL SWAP3 POP POP POP DUP1 ISZERO PUSH2 0x40B3 JUMPI POP PUSH1 0x1 JUMPDEST POP POP POP POP JUMPDEST POP POP POP JUMP JUMPDEST PUSH0 DUP4 DUP4 GT ISZERO DUP3 SWAP1 PUSH2 0x4104 JUMPI PUSH1 0x40 MLOAD PUSH32 0x8C379A000000000000000000000000000000000000000000000000000000000 DUP2 MSTORE PUSH1 0x4 ADD PUSH2 0x40FB SWAP2 SWAP1 PUSH2 0x4EAC JUMP JUMPDEST PUSH1 0x40 MLOAD DUP1 SWAP2 SUB SWAP1 REVERT JUMPDEST POP PUSH0 DUP4 DUP6 PUSH2 0x4112 SWAP2 SWAP1 PUSH2 0x62BF JUMP JUMPDEST SWAP1 POP DUP1 SWAP2 POP POP SWAP4 SWAP3 POP POP POP JUMP JUMPDEST PUSH0 DUP1 DUP3 DUP5 PUSH2 0x412D SWAP2 SWAP1 PUSH2 0x5C2A JUMP JUMPDEST SWAP1 POP DUP4 DUP2 LT ISZERO PUSH2 0x4172 JUMPI PUSH1 0x40 MLOAD PUSH32 0x8C379A000000000000000000000000000000000000000000000000000000000 DUP2 MSTORE PUSH1 0x4 ADD PUSH2 0x4169 SWAP1 PUSH2 0x633C JUMP JUMPDEST PUSH1 0x40 MLOAD DUP1 SWAP2 SUB SWAP1 REVERT JUMPDEST DUP1 SWAP2 POP POP SWAP3 SWAP2 POP POP JUMP JUMPDEST PUSH0 PUSH20 0xFFFFFFFFFFFFFFFFFFFFFFFFFFFFFFFFFFFFFFFF AND DUP4 PUSH20 0xFFFFFFFFFFFFFFFFFFFFFFFFFFFFFFFFFFFFFFFF AND SUB PUSH2 0x41EA JUMPI PUSH1 0x40 MLOAD PUSH32 0x8C379A000000000000000000000000000000000000000000000000000000000 DUP2 MSTORE PUSH1 0x4 ADD PUSH2 0x41E1 SWAP1 PUSH2 0x6016 JUMP JUMPDEST PUSH1 0x40 MLOAD DUP1 SWAP2 SUB SWAP1 REVERT JUMPDEST PUSH0 PUSH20 0xFFFFFFFFFFFFFFFFFFFFFFFFFFFFFFFFFFFFFFFF AND DUP3 PUSH20 0xFFFFFFFFFFFFFFFFFFFFFFFFFFFFFFFFFFFFFFFF AND SUB PUSH2 0x4258 JUMPI PUSH1 0x40 MLOAD PUSH32 0x8C379A000000000000000000000000000000000000000000000000000000000 DUP2 MSTORE PUSH1 0x4 ADD PUSH2 0x424F SWAP1 PUSH2 0x60A4 JUMP JUMPDEST PUSH1 0x40 MLOAD DUP1 SWAP2 SUB SWAP1 REVERT JUMPDEST PUSH2 0x4263 DUP4 DUP4 DUP4 PUSH2 0x4A4A JUMP JUMPDEST PUSH2 0x42CC DUP2 PUSH1 0x40 MLOAD DUP1 PUSH1 0x60 ADD PUSH1 0x40 MSTORE DUP1 PUSH1 0x26 DUP2 MSTORE PUSH1 0x20 ADD PUSH2 0x65FC PUSH1 0x26 SWAP2 CODECOPY PUSH0 DUP1 DUP8 PUSH20 0xFFFFFFFFFFFFFFFFFFFFFFFFFFFFFFFFFFFFFFFF AND PUSH20 0xFFFFFFFFFFFFFFFFFFFFFFFFFFFFFFFFFFFFFFFF AND DUP2 MSTORE PUSH1 0x20 ADD SWAP1 DUP2 MSTORE PUSH1 0x20 ADD PUSH0 KECCAK256 SLOAD PUSH2 0x40BD SWAP1 SWAP3 SWAP2 SWAP1 PUSH4 0xFFFFFFFF AND JUMP JUMPDEST PUSH0 DUP1 DUP6 PUSH20 0xFFFFFFFFFFFFFFFFFFFFFFFFFFFFFFFFFFFFFFFF AND PUSH20 0xFFFFFFFFFFFFFFFFFFFFFFFFFFFFFFFFFFFFFFFF AND DUP2 MSTORE PUSH1 0x20 ADD SWAP1 DUP2 MSTORE PUSH1 0x20 ADD PUSH0 KECCAK256 DUP2 SWAP1 SSTORE POP PUSH2 0x435B DUP2 PUSH0 DUP1 DUP6 PUSH20 0xFFFFFFFFFFFFFFFFFFFFFFFFFFFFFFFFFFFFFFFF AND PUSH20 0xFFFFFFFFFFFFFFFFFFFFFFFFFFFFFFFFFFFFFFFF AND DUP2 MSTORE PUSH1 0x20 ADD SWAP1 DUP2 MSTORE PUSH1 0x20 ADD PUSH0 KECCAK256 SLOAD PUSH2 0x411F SWAP1 SWAP2 SWAP1 PUSH4 0xFFFFFFFF AND JUMP JUMPDEST PUSH0 DUP1 DUP5 PUSH20 0xFFFFFFFFFFFFFFFFFFFFFFFFFFFFFFFFFFFFFFFF AND PUSH20 0xFFFFFFFFFFFFFFFFFFFFFFFFFFFFFFFFFFFFFFFF AND DUP2 MSTORE PUSH1 0x20 ADD SWAP1 DUP2 MSTORE PUSH1 0x20 ADD PUSH0 KECCAK256 DUP2 SWAP1 SSTORE POP DUP2 PUSH20 0xFFFFFFFFFFFFFFFFFFFFFFFFFFFFFFFFFFFFFFFF AND DUP4 PUSH20 0xFFFFFFFFFFFFFFFFFFFFFFFFFFFFFFFFFFFFFFFF AND PUSH32 0xDDF252AD1BE2C89B69C2B068FC378DAA952BA7F163C4A11628F55A4DF523B3EF DUP4 PUSH1 0x40 MLOAD PUSH2 0x43F8 SWAP2 SWAP1 PUSH2 0x4F9F JUMP JUMPDEST PUSH1 0x40 MLOAD DUP1 SWAP2 SUB SWAP1 LOG3 POP POP POP JUMP JUMPDEST DUP1 ISZERO ISZERO PUSH1 0x1A PUSH0 DUP5 PUSH20 0xFFFFFFFFFFFFFFFFFFFFFFFFFFFFFFFFFFFFFFFF AND PUSH20 0xFFFFFFFFFFFFFFFFFFFFFFFFFFFFFFFFFFFFFFFF AND DUP2 MSTORE PUSH1 0x20 ADD SWAP1 DUP2 MSTORE PUSH1 0x20 ADD PUSH0 KECCAK256 PUSH0 SWAP1 SLOAD SWAP1 PUSH2 0x100 EXP SWAP1 DIV PUSH1 0xFF AND ISZERO ISZERO SUB PUSH2 0x4494 JUMPI PUSH1 0x40 MLOAD PUSH32 0x8C379A000000000000000000000000000000000000000000000000000000000 DUP2 MSTORE PUSH1 0x4 ADD PUSH2 0x448B SWAP1 PUSH2 0x63CA JUMP JUMPDEST PUSH1 0x40 MLOAD DUP1 SWAP2 SUB SWAP1 REVERT JUMPDEST DUP1 PUSH1 0x1A PUSH0 DUP5 PUSH20 0xFFFFFFFFFFFFFFFFFFFFFFFFFFFFFFFFFFFFFFFF AND PUSH20 0xFFFFFFFFFFFFFFFFFFFFFFFFFFFFFFFFFFFFFFFF AND DUP2 MSTORE PUSH1 0x20 ADD SWAP1 DUP2 MSTORE PUSH1 0x20 ADD PUSH0 KECCAK256 PUSH0 PUSH2 0x100 EXP DUP2 SLOAD DUP2 PUSH1 0xFF MUL NOT AND SWAP1 DUP4 ISZERO ISZERO MUL OR SWAP1 SSTORE POP DUP1 ISZERO PUSH2 0x4579 JUMPI PUSH1 0x8 PUSH0 SWAP1 SLOAD SWAP1 PUSH2 0x100 EXP SWAP1 DIV PUSH20 0xFFFFFFFFFFFFFFFFFFFFFFFFFFFFFFFFFFFFFFFF AND PUSH20 0xFFFFFFFFFFFFFFFFFFFFFFFFFFFFFFFFFFFFFFFF AND PUSH4 0x483F7A0 DUP4 PUSH1 0x1 PUSH1 0x40 MLOAD DUP4 PUSH4 0xFFFFFFFF AND PUSH1 0xE0 SHL DUP2 MSTORE PUSH1 0x4 ADD PUSH2 0x454B SWAP3 SWAP2 SWAP1 PUSH2 0x56C9 JUMP JUMPDEST PUSH0 PUSH1 0x40 MLOAD DUP1 DUP4 SUB DUP2 PUSH0 DUP8 DUP1 EXTCODESIZE ISZERO DUP1 ISZERO PUSH2 0x4562 JUMPI PUSH0 DUP1 REVERT JUMPDEST POP GAS CALL ISZERO DUP1 ISZERO PUSH2 0x4574 JUMPI RETURNDATASIZE PUSH0 DUP1 RETURNDATACOPY RETURNDATASIZE PUSH0 REVERT JUMPDEST POP POP POP POP JUMPDEST DUP1 ISZERO ISZERO DUP3 PUSH20 0xFFFFFFFFFFFFFFFFFFFFFFFFFFFFFFFFFFFFFFFF AND PUSH32 0xFFA9187BF1F18BF477BD0EA1BCBB64E93B6A98132473929EDFCE215CD9B16FAB PUSH1 0x40 MLOAD PUSH1 0x40 MLOAD DUP1 SWAP2 SUB SWAP1 LOG3 POP POP JUMP JUMPDEST PUSH0 PUSH1 0x2 DUP3 PUSH2 0x45D1 SWAP2 SWAP1 PUSH2 0x628F JUMP JUMPDEST SWAP1 POP PUSH0 DUP2 DUP4 PUSH2 0x45E0 SWAP2 SWAP1 PUSH2 0x62BF JUMP JUMPDEST SWAP1 POP PUSH0 SELFBALANCE SWAP1 POP PUSH2 0x45EF DUP3 PUSH2 0x4A4F JUMP JUMPDEST PUSH0 DUP2 SELFBALANCE PUSH2 0x45FC SWAP2 SWAP1 PUSH2 0x62BF JUMP JUMPDEST SWAP1 POP PUSH0 DUP2 GT ISZERO PUSH2 0x4611 JUMPI PUSH2 0x4610 DUP5 DUP3 PUSH2 0x4C85 JUMP JUMPDEST JUMPDEST PUSH0 PUSH1 0x7 PUSH0 SWAP1 SLOAD SWAP1 PUSH2 0x100 EXP SWAP1 DIV PUSH20 0xFFFFFFFFFFFFFFFFFFFFFFFFFFFFFFFFFFFFFFFF AND PUSH20 0xFFFFFFFFFFFFFFFFFFFFFFFFFFFFFFFFFFFFFFFF AND PUSH4 0x70A08231 ADDRESS PUSH1 0x40 MLOAD DUP3 PUSH4 0xFFFFFFFF AND PUSH1 0xE0 SHL DUP2 MSTORE PUSH1 0x4 ADD PUSH2 0x466C SWAP2 SWAP1 PUSH2 0x50BF JUMP JUMPDEST PUSH1 0x20 PUSH1 0x40 MLOAD DUP1 DUP4 SUB DUP2 DUP7 GAS STATICCALL ISZERO DUP1 ISZERO PUSH2 0x4687 JUMPI RETURNDATASIZE PUSH0 DUP1 RETURNDATACOPY RETURNDATASIZE PUSH0 REVERT JUMPDEST POP POP POP POP PUSH1 0x40 MLOAD RETURNDATASIZE PUSH1 0x1F NOT PUSH1 0x1F DUP3 ADD AND DUP3 ADD DUP1 PUSH1 0x40 MSTORE POP DUP2 ADD SWAP1 PUSH2 0x46AB SWAP2 SWAP1 PUSH2 0x5761 JUMP JUMPDEST SWAP1 POP PUSH0 PUSH1 0x12 PUSH1 0x2 ADD SLOAD PUSH1 0x17 SLOAD PUSH2 0x46C1 SWAP2 SWAP1 PUSH2 0x62BF JUMP JUMPDEST SWAP1 POP PUSH0 DUP2 PUSH1 0x12 PUSH1 0x1 ADD SLOAD DUP5 PUSH2 0x46D6 SWAP2 SWAP1 PUSH2 0x59BD JUMP JUMPDEST PUSH2 0x46E0 SWAP2 SWAP1 PUSH2 0x628F JUMP JUMPDEST SWAP1 POP PUSH0 DUP2 GT ISZERO PUSH2 0x47A9 JUMPI PUSH1 0x7 PUSH0 SWAP1 SLOAD SWAP1 PUSH2 0x100 EXP SWAP1 DIV PUSH20 0xFFFFFFFFFFFFFFFFFFFFFFFFFFFFFFFFFFFFFFFF AND PUSH20 0xFFFFFFFFFFFFFFFFFFFFFFFFFFFFFFFFFFFFFFFF AND PUSH4 0xA9059CBB PUSH1 0x9 PUSH0 SWAP1 SLOAD SWAP1 PUSH2 0x100 EXP SWAP1 DIV PUSH20 0xFFFFFFFFFFFFFFFFFFFFFFFFFFFFFFFFFFFFFFFF AND DUP4 PUSH1 0x40 MLOAD DUP4 PUSH4 0xFFFFFFFF AND PUSH1 0xE0 SHL DUP2 MSTORE PUSH1 0x4 ADD PUSH2 0x4767 SWAP3 SWAP2 SWAP1 PUSH2 0x578C JUMP JUMPDEST PUSH1 0x20 PUSH1 0x40 MLOAD DUP1 DUP4 SUB DUP2 PUSH0 DUP8 GAS CALL ISZERO DUP1 ISZERO PUSH2 0x4783 JUMPI RETURNDATASIZE PUSH0 DUP1 RETURNDATACOPY RETURNDATASIZE PUSH0 REVERT JUMPDEST POP POP POP POP PUSH1 0x40 MLOAD RETURNDATASIZE PUSH1 0x1F NOT PUSH1 0x1F DUP3 ADD AND DUP3 ADD DUP1 PUSH1 0x40 MSTORE POP DUP2 ADD SWAP1 PUSH2 0x47A7 SWAP2 SWAP1 PUSH2 0x57C7 JUMP JUMPDEST POP JUMPDEST PUSH0 DUP3 PUSH1 0x12 PUSH1 0x3 ADD SLOAD DUP6 PUSH2 0x47BC SWAP2 SWAP1 PUSH2 0x59BD JUMP JUMPDEST PUSH2 0x47C6 SWAP2 SWAP1 PUSH2 0x628F JUMP JUMPDEST SWAP1 POP PUSH0 DUP2 GT ISZERO PUSH2 0x488F JUMPI PUSH1 0x7 PUSH0 SWAP1 SLOAD SWAP1 PUSH2 0x100 EXP SWAP1 DIV PUSH20 0xFFFFFFFFFFFFFFFFFFFFFFFFFFFFFFFFFFFFFFFF AND PUSH20 0xFFFFFFFFFFFFFFFFFFFFFFFFFFFFFFFFFFFFFFFF AND PUSH4 0xA9059CBB PUSH1 0xA PUSH0 SWAP1 SLOAD SWAP1 PUSH2 0x100 EXP SWAP1 DIV PUSH20 0xFFFFFFFFFFFFFFFFFFFFFFFFFFFFFFFFFFFFFFFF AND DUP4 PUSH1 0x40 MLOAD DUP4 PUSH4 0xFFFFFFFF AND PUSH1 0xE0 SHL DUP2 MSTORE PUSH1 0x4 ADD PUSH2 0x484D SWAP3 SWAP2 SWAP1 PUSH2 0x578C JUMP JUMPDEST PUSH1 0x20 PUSH1 0x40 MLOAD DUP1 DUP4 SUB DUP2 PUSH0 DUP8 GAS CALL ISZERO DUP1 ISZERO PUSH2 0x4869 JUMPI RETURNDATASIZE PUSH0 DUP1 RETURNDATACOPY RETURNDATASIZE PUSH0 REVERT JUMPDEST POP POP POP POP PUSH1 0x40 MLOAD RETURNDATASIZE PUSH1 0x1F NOT PUSH1 0x1F DUP3 ADD AND DUP3 ADD DUP1 PUSH1 0x40 MSTORE POP DUP2 ADD SWAP1 PUSH2 0x488D SWAP2 SWAP1 PUSH2 0x57C7 JUMP JUMPDEST POP JUMPDEST PUSH0 DUP4 PUSH1 0x12 PUSH0 ADD SLOAD DUP7 PUSH2 0x48A1 SWAP2 SWAP1 PUSH2 0x59BD JUMP JUMPDEST PUSH2 0x48AB SWAP2 SWAP1 PUSH2 0x628F JUMP JUMPDEST SWAP1 POP PUSH0 DUP2 GT ISZERO PUSH2 0x4A3E JUMPI PUSH0 PUSH1 0x7 PUSH0 SWAP1 SLOAD SWAP1 PUSH2 0x100 EXP SWAP1 DIV PUSH20 0xFFFFFFFFFFFFFFFFFFFFFFFFFFFFFFFFFFFFFFFF AND PUSH20 0xFFFFFFFFFFFFFFFFFFFFFFFFFFFFFFFFFFFFFFFF AND PUSH4 0xA9059CBB PUSH1 0x8 PUSH0 SWAP1 SLOAD SWAP1 PUSH2 0x100 EXP SWAP1 DIV PUSH20 0xFFFFFFFFFFFFFFFFFFFFFFFFFFFFFFFFFFFFFFFF AND DUP5 PUSH1 0x40 MLOAD DUP4 PUSH4 0xFFFFFFFF AND PUSH1 0xE0 SHL DUP2 MSTORE PUSH1 0x4 ADD PUSH2 0x4933 SWAP3 SWAP2 SWAP1 PUSH2 0x578C JUMP JUMPDEST PUSH1 0x20 PUSH1 0x40 MLOAD DUP1 DUP4 SUB DUP2 PUSH0 DUP8 GAS CALL ISZERO DUP1 ISZERO PUSH2 0x494F JUMPI RETURNDATASIZE PUSH0 DUP1 RETURNDATACOPY RETURNDATASIZE PUSH0 REVERT JUMPDEST POP POP POP POP PUSH1 0x40 MLOAD RETURNDATASIZE PUSH1 0x1F NOT PUSH1 0x1F DUP3 ADD AND DUP3 ADD DUP1 PUSH1 0x40 MSTORE POP DUP2 ADD SWAP1 PUSH2 0x4973 SWAP2 SWAP1 PUSH2 0x57C7 JUMP JUMPDEST SWAP1 POP DUP1 ISZERO PUSH2 0x4A3C JUMPI PUSH1 0x8 PUSH0 SWAP1 SLOAD SWAP1 PUSH2 0x100 EXP SWAP1 DIV PUSH20 0xFFFFFFFFFFFFFFFFFFFFFFFFFFFFFFFFFFFFFFFF AND PUSH20 0xFFFFFFFFFFFFFFFFFFFFFFFFFFFFFFFFFFFFFFFF AND PUSH4 0xEDE6AD9C DUP4 PUSH1 0x40 MLOAD DUP3 PUSH4 0xFFFFFFFF AND PUSH1 0xE0 SHL DUP2 MSTORE PUSH1 0x4 ADD PUSH2 0x49D5 SWAP2 SWAP1 PUSH2 0x4F9F JUMP JUMPDEST PUSH0 PUSH1 0x40 MLOAD DUP1 DUP4 SUB DUP2 PUSH0 DUP8 DUP1 EXTCODESIZE ISZERO DUP1 ISZERO PUSH2 0x49EC JUMPI PUSH0 DUP1 REVERT JUMPDEST POP GAS CALL ISZERO DUP1 ISZERO PUSH2 0x49FE JUMPI RETURNDATASIZE PUSH0 DUP1 RETURNDATACOPY RETURNDATASIZE PUSH0 REVERT JUMPDEST POP POP POP POP PUSH32 0x80195CC573B02CC48460CBCA6E6E4CC85DDB91959D946E1C3025EA3D87942DC3 DUP12 DUP4 PUSH1 0x40 MLOAD PUSH2 0x4A33 SWAP3 SWAP2 SWAP1 PUSH2 0x63E8 JUMP JUMPDEST PUSH1 0x40 MLOAD DUP1 SWAP2 SUB SWAP1 LOG1 JUMPDEST POP JUMPDEST POP POP POP POP POP POP POP POP POP POP JUMP JUMPDEST POP POP POP JUMP JUMPDEST PUSH0 PUSH1 0x2 PUSH8 0xFFFFFFFFFFFFFFFF DUP2 GT ISZERO PUSH2 0x4A6B JUMPI PUSH2 0x4A6A PUSH2 0x50DC JUMP JUMPDEST JUMPDEST PUSH1 0x40 MLOAD SWAP1 DUP1 DUP3 MSTORE DUP1 PUSH1 0x20 MUL PUSH1 0x20 ADD DUP3 ADD PUSH1 0x40 MSTORE DUP1 ISZERO PUSH2 0x4A99 JUMPI DUP2 PUSH1 0x20 ADD PUSH1 0x20 DUP3 MUL DUP1 CALLDATASIZE DUP4 CALLDATACOPY DUP1 DUP3 ADD SWAP2 POP POP SWAP1 POP JUMPDEST POP SWAP1 POP ADDRESS DUP2 PUSH0 DUP2 MLOAD DUP2 LT PUSH2 0x4AB0 JUMPI PUSH2 0x4AAF PUSH2 0x5963 JUMP JUMPDEST JUMPDEST PUSH1 0x20 MUL PUSH1 0x20 ADD ADD SWAP1 PUSH20 0xFFFFFFFFFFFFFFFFFFFFFFFFFFFFFFFFFFFFFFFF AND SWAP1 DUP2 PUSH20 0xFFFFFFFFFFFFFFFFFFFFFFFFFFFFFFFFFFFFFFFF AND DUP2 MSTORE POP POP PUSH1 0x6 PUSH0 SWAP1 SLOAD SWAP1 PUSH2 0x100 EXP SWAP1 DIV PUSH20 0xFFFFFFFFFFFFFFFFFFFFFFFFFFFFFFFFFFFFFFFF AND PUSH20 0xFFFFFFFFFFFFFFFFFFFFFFFFFFFFFFFFFFFFFFFF AND PUSH4 0xAD5C4648 PUSH1 0x40 MLOAD DUP2 PUSH4 0xFFFFFFFF AND PUSH1 0xE0 SHL DUP2 MSTORE PUSH1 0x4 ADD PUSH1 0x20 PUSH1 0x40 MLOAD DUP1 DUP4 SUB DUP2 DUP7 GAS STATICCALL ISZERO DUP1 ISZERO PUSH2 0x4B54 JUMPI RETURNDATASIZE PUSH0 DUP1 RETURNDATACOPY RETURNDATASIZE PUSH0 REVERT JUMPDEST POP POP POP POP PUSH1 0x40 MLOAD RETURNDATASIZE PUSH1 0x1F NOT PUSH1 0x1F DUP3 ADD AND DUP3 ADD DUP1 PUSH1 0x40 MSTORE POP DUP2 ADD SWAP1 PUSH2 0x4B78 SWAP2 SWAP1 PUSH2 0x640F JUMP JUMPDEST DUP2 PUSH1 0x1 DUP2 MLOAD DUP2 LT PUSH2 0x4B8C JUMPI PUSH2 0x4B8B PUSH2 0x5963 JUMP JUMPDEST JUMPDEST PUSH1 0x20 MUL PUSH1 0x20 ADD ADD SWAP1 PUSH20 0xFFFFFFFFFFFFFFFFFFFFFFFFFFFFFFFFFFFFFFFF AND SWAP1 DUP2 PUSH20 0xFFFFFFFFFFFFFFFFFFFFFFFFFFFFFFFFFFFFFFFF AND DUP2 MSTORE POP POP PUSH2 0x4BF2 ADDRESS PUSH1 0x6 PUSH0 SWAP1 SLOAD SWAP1 PUSH2 0x100 EXP SWAP1 DIV PUSH20 0xFFFFFFFFFFFFFFFFFFFFFFFFFFFFFFFFFFFFFFFF AND DUP5 PUSH2 0x34E3 JUMP JUMPDEST PUSH1 0x6 PUSH0 SWAP1 SLOAD SWAP1 PUSH2 0x100 EXP SWAP1 DIV PUSH20 0xFFFFFFFFFFFFFFFFFFFFFFFFFFFFFFFFFFFFFFFF AND PUSH20 0xFFFFFFFFFFFFFFFFFFFFFFFFFFFFFFFFFFFFFFFF AND PUSH4 0x791AC947 DUP4 PUSH0 DUP5 ADDRESS TIMESTAMP PUSH1 0x40 MLOAD DUP7 PUSH4 0xFFFFFFFF AND PUSH1 0xE0 SHL DUP2 MSTORE PUSH1 0x4 ADD PUSH2 0x4C54 SWAP6 SWAP5 SWAP4 SWAP3 SWAP2 SWAP1 PUSH2 0x64F4 JUMP JUMPDEST PUSH0 PUSH1 0x40 MLOAD DUP1 DUP4 SUB DUP2 PUSH0 DUP8 DUP1 EXTCODESIZE ISZERO DUP1 ISZERO PUSH2 0x4C6B JUMPI PUSH0 DUP1 REVERT JUMPDEST POP GAS CALL ISZERO DUP1 ISZERO PUSH2 0x4C7D JUMPI RETURNDATASIZE PUSH0 DUP1 RETURNDATACOPY RETURNDATASIZE PUSH0 REVERT JUMPDEST POP POP POP POP POP POP JUMP JUMPDEST PUSH2 0x4CB1 ADDRESS PUSH1 0x6 PUSH0 SWAP1 SLOAD SWAP1 PUSH2 0x100 EXP SWAP1 DIV PUSH20 0xFFFFFFFFFFFFFFFFFFFFFFFFFFFFFFFFFFFFFFFF AND DUP5 PUSH2 0x34E3 JUMP JUMPDEST PUSH1 0x6 PUSH0 SWAP1 SLOAD SWAP1 PUSH2 0x100 EXP SWAP1 DIV PUSH20 0xFFFFFFFFFFFFFFFFFFFFFFFFFFFFFFFFFFFFFFFF AND PUSH20 0xFFFFFFFFFFFFFFFFFFFFFFFFFFFFFFFFFFFFFFFF AND PUSH4 0xF305D719 DUP3 ADDRESS DUP6 PUSH0 DUP1 ADDRESS TIMESTAMP PUSH1 0x40 MLOAD DUP9 PUSH4 0xFFFFFFFF AND PUSH1 0xE0 SHL DUP2 MSTORE PUSH1 0x4 ADD PUSH2 0x4D16 SWAP7 SWAP6 SWAP5 SWAP4 SWAP3 SWAP2 SWAP1 PUSH2 0x654C JUMP JUMPDEST PUSH1 0x60 PUSH1 0x40 MLOAD DUP1 DUP4 SUB DUP2 DUP6 DUP9 GAS CALL ISZERO DUP1 ISZERO PUSH2 0x4D32 JUMPI RETURNDATASIZE PUSH0 DUP1 RETURNDATACOPY RETURNDATASIZE PUSH0 REVERT JUMPDEST POP POP POP POP POP PUSH1 0x40 MLOAD RETURNDATASIZE PUSH1 0x1F NOT PUSH1 0x1F DUP3 ADD AND DUP3 ADD DUP1 PUSH1 0x40 MSTORE POP DUP2 ADD SWAP1 PUSH2 0x4D57 SWAP2 SWAP1 PUSH2 0x65AB JUMP JUMPDEST POP POP POP POP POP JUMP JUMPDEST PUSH0 PUSH1 0x40 MLOAD SWAP1 POP SWAP1 JUMP JUMPDEST PUSH0 DUP1 REVERT JUMPDEST PUSH0 DUP1 REVERT JUMPDEST PUSH0 PUSH20 0xFFFFFFFFFFFFFFFFFFFFFFFFFFFFFFFFFFFFFFFF DUP3 AND SWAP1 POP SWAP2 SWAP1 POP JUMP JUMPDEST PUSH0 PUSH2 0x4D98 DUP3 PUSH2 0x4D6F JUMP JUMPDEST SWAP1 POP SWAP2 SWAP1 POP JUMP JUMPDEST PUSH2 0x4DA8 DUP2 PUSH2 0x4D8E JUMP JUMPDEST DUP2 EQ PUSH2 0x4DB2 JUMPI PUSH0 DUP1 REVERT JUMPDEST POP JUMP JUMPDEST PUSH0 DUP2 CALLDATALOAD SWAP1 POP PUSH2 0x4DC3 DUP2 PUSH2 0x4D9F JUMP JUMPDEST SWAP3 SWAP2 POP POP JUMP JUMPDEST PUSH0 DUP2 ISZERO ISZERO SWAP1 POP SWAP2 SWAP1 POP JUMP JUMPDEST PUSH2 0x4DDD DUP2 PUSH2 0x4DC9 JUMP JUMPDEST DUP2 EQ PUSH2 0x4DE7 JUMPI PUSH0 DUP1 REVERT JUMPDEST POP JUMP JUMPDEST PUSH0 DUP2 CALLDATALOAD SWAP1 POP PUSH2 0x4DF8 DUP2 PUSH2 0x4DD4 JUMP JUMPDEST SWAP3 SWAP2 POP POP JUMP JUMPDEST PUSH0 DUP1 PUSH1 0x40 DUP4 DUP6 SUB SLT ISZERO PUSH2 0x4E14 JUMPI PUSH2 0x4E13 PUSH2 0x4D67 JUMP JUMPDEST JUMPDEST PUSH0 PUSH2 0x4E21 DUP6 DUP3 DUP7 ADD PUSH2 0x4DB5 JUMP JUMPDEST SWAP3 POP POP PUSH1 0x20 PUSH2 0x4E32 DUP6 DUP3 DUP7 ADD PUSH2 0x4DEA JUMP JUMPDEST SWAP2 POP POP SWAP3 POP SWAP3 SWAP1 POP JUMP JUMPDEST PUSH0 DUP2 MLOAD SWAP1 POP SWAP2 SWAP1 POP JUMP JUMPDEST PUSH0 DUP3 DUP3 MSTORE PUSH1 0x20 DUP3 ADD SWAP1 POP SWAP3 SWAP2 POP POP JUMP JUMPDEST DUP3 DUP2 DUP4 MCOPY PUSH0 DUP4 DUP4 ADD MSTORE POP POP POP JUMP JUMPDEST PUSH0 PUSH1 0x1F NOT PUSH1 0x1F DUP4 ADD AND SWAP1 POP SWAP2 SWAP1 POP JUMP JUMPDEST PUSH0 PUSH2 0x4E7E DUP3 PUSH2 0x4E3C JUMP JUMPDEST PUSH2 0x4E88 DUP2 DUP6 PUSH2 0x4E46 JUMP JUMPDEST SWAP4 POP PUSH2 0x4E98 DUP2 DUP6 PUSH1 0x20 DUP7 ADD PUSH2 0x4E56 JUMP JUMPDEST PUSH2 0x4EA1 DUP2 PUSH2 0x4E64 JUMP JUMPDEST DUP5 ADD SWAP2 POP POP SWAP3 SWAP2 POP POP JUMP JUMPDEST PUSH0 PUSH1 0x20 DUP3 ADD SWAP1 POP DUP2 DUP2 SUB PUSH0 DUP4 ADD MSTORE PUSH2 0x4EC4 DUP2 DUP5 PUSH2 0x4E74 JUMP JUMPDEST SWAP1 POP SWAP3 SWAP2 POP POP JUMP JUMPDEST PUSH0 DUP2 SWAP1 POP SWAP2 SWAP1 POP JUMP JUMPDEST PUSH2 0x4EDE DUP2 PUSH2 0x4ECC JUMP JUMPDEST DUP2 EQ PUSH2 0x4EE8 JUMPI PUSH0 DUP1 REVERT JUMPDEST POP JUMP JUMPDEST PUSH0 DUP2 CALLDATALOAD SWAP1 POP PUSH2 0x4EF9 DUP2 PUSH2 0x4ED5 JUMP JUMPDEST SWAP3 SWAP2 POP POP JUMP JUMPDEST PUSH0 DUP1 PUSH1 0x40 DUP4 DUP6 SUB SLT ISZERO PUSH2 0x4F15 JUMPI PUSH2 0x4F14 PUSH2 0x4D67 JUMP JUMPDEST JUMPDEST PUSH0 PUSH2 0x4F22 DUP6 DUP3 DUP7 ADD PUSH2 0x4DB5 JUMP JUMPDEST SWAP3 POP POP PUSH1 0x20 PUSH2 0x4F33 DUP6 DUP3 DUP7 ADD PUSH2 0x4EEB JUMP JUMPDEST SWAP2 POP POP SWAP3 POP SWAP3 SWAP1 POP JUMP JUMPDEST PUSH2 0x4F46 DUP2 PUSH2 0x4DC9 JUMP JUMPDEST DUP3 MSTORE POP POP JUMP JUMPDEST PUSH0 PUSH1 0x20 DUP3 ADD SWAP1 POP PUSH2 0x4F5F PUSH0 DUP4 ADD DUP5 PUSH2 0x4F3D JUMP JUMPDEST SWAP3 SWAP2 POP POP JUMP JUMPDEST PUSH0 PUSH1 0x20 DUP3 DUP5 SUB SLT ISZERO PUSH2 0x4F7A JUMPI PUSH2 0x4F79 PUSH2 0x4D67 JUMP JUMPDEST JUMPDEST PUSH0 PUSH2 0x4F87 DUP5 DUP3 DUP6 ADD PUSH2 0x4DB5 JUMP JUMPDEST SWAP2 POP POP SWAP3 SWAP2 POP POP JUMP JUMPDEST PUSH2 0x4F99 DUP2 PUSH2 0x4ECC JUMP JUMPDEST DUP3 MSTORE POP POP JUMP JUMPDEST PUSH0 PUSH1 0x20 DUP3 ADD SWAP1 POP PUSH2 0x4FB2 PUSH0 DUP4 ADD DUP5 PUSH2 0x4F90 JUMP JUMPDEST SWAP3 SWAP2 POP POP JUMP JUMPDEST PUSH0 DUP1 PUSH0 PUSH1 0x60 DUP5 DUP7 SUB SLT ISZERO PUSH2 0x4FCF JUMPI PUSH2 0x4FCE PUSH2 0x4D67 JUMP JUMPDEST JUMPDEST PUSH0 PUSH2 0x4FDC DUP7 DUP3 DUP8 ADD PUSH2 0x4DB5 JUMP JUMPDEST SWAP4 POP POP PUSH1 0x20 PUSH2 0x4FED DUP7 DUP3 DUP8 ADD PUSH2 0x4DB5 JUMP JUMPDEST SWAP3 POP POP PUSH1 0x40 PUSH2 0x4FFE DUP7 DUP3 DUP8 ADD PUSH2 0x4EEB JUMP JUMPDEST SWAP2 POP POP SWAP3 POP SWAP3 POP SWAP3 JUMP JUMPDEST PUSH0 DUP2 SWAP1 POP SWAP2 SWAP1 POP JUMP JUMPDEST PUSH0 PUSH2 0x502B PUSH2 0x5026 PUSH2 0x5021 DUP5 PUSH2 0x4D6F JUMP JUMPDEST PUSH2 0x5008 JUMP JUMPDEST PUSH2 0x4D6F JUMP JUMPDEST SWAP1 POP SWAP2 SWAP1 POP JUMP JUMPDEST PUSH0 PUSH2 0x503C DUP3 PUSH2 0x5011 JUMP JUMPDEST SWAP1 POP SWAP2 SWAP1 POP JUMP JUMPDEST PUSH0 PUSH2 0x504D DUP3 PUSH2 0x5032 JUMP JUMPDEST SWAP1 POP SWAP2 SWAP1 POP JUMP JUMPDEST PUSH2 0x505D DUP2 PUSH2 0x5043 JUMP JUMPDEST DUP3 MSTORE POP POP JUMP JUMPDEST PUSH0 PUSH1 0x20 DUP3 ADD SWAP1 POP PUSH2 0x5076 PUSH0 DUP4 ADD DUP5 PUSH2 0x5054 JUMP JUMPDEST SWAP3 SWAP2 POP POP JUMP JUMPDEST PUSH0 PUSH1 0xFF DUP3 AND SWAP1 POP SWAP2 SWAP1 POP JUMP JUMPDEST PUSH2 0x5091 DUP2 PUSH2 0x507C JUMP JUMPDEST DUP3 MSTORE POP POP JUMP JUMPDEST PUSH0 PUSH1 0x20 DUP3 ADD SWAP1 POP PUSH2 0x50AA PUSH0 DUP4 ADD DUP5 PUSH2 0x5088 JUMP JUMPDEST SWAP3 SWAP2 POP POP JUMP JUMPDEST PUSH2 0x50B9 DUP2 PUSH2 0x4D8E JUMP JUMPDEST DUP3 MSTORE POP POP JUMP JUMPDEST PUSH0 PUSH1 0x20 DUP3 ADD SWAP1 POP PUSH2 0x50D2 PUSH0 DUP4 ADD DUP5 PUSH2 0x50B0 JUMP JUMPDEST SWAP3 SWAP2 POP POP JUMP JUMPDEST PUSH0 DUP1 REVERT JUMPDEST PUSH32 0x4E487B7100000000000000000000000000000000000000000000000000000000 PUSH0 MSTORE PUSH1 0x41 PUSH1 0x4 MSTORE PUSH1 0x24 PUSH0 REVERT JUMPDEST PUSH2 0x5112 DUP3 PUSH2 0x4E64 JUMP JUMPDEST DUP2 ADD DUP2 DUP2 LT PUSH8 0xFFFFFFFFFFFFFFFF DUP3 GT OR ISZERO PUSH2 0x5131 JUMPI PUSH2 0x5130 PUSH2 0x50DC JUMP JUMPDEST JUMPDEST DUP1 PUSH1 0x40 MSTORE POP POP POP JUMP JUMPDEST PUSH0 PUSH2 0x5143 PUSH2 0x4D5E JUMP JUMPDEST SWAP1 POP PUSH2 0x514F DUP3 DUP3 PUSH2 0x5109 JUMP JUMPDEST SWAP2 SWAP1 POP JUMP JUMPDEST PUSH0 PUSH8 0xFFFFFFFFFFFFFFFF DUP3 GT ISZERO PUSH2 0x516E JUMPI PUSH2 0x516D PUSH2 0x50DC JUMP JUMPDEST JUMPDEST PUSH1 0x20 DUP3 MUL SWAP1 POP PUSH1 0x20 DUP2 ADD SWAP1 POP SWAP2 SWAP1 POP JUMP JUMPDEST PUSH0 DUP1 REVERT JUMPDEST PUSH0 PUSH2 0x5195 PUSH2 0x5190 DUP5 PUSH2 0x5154 JUMP JUMPDEST PUSH2 0x513A JUMP JUMPDEST SWAP1 POP DUP1 DUP4 DUP3 MSTORE PUSH1 0x20 DUP3 ADD SWAP1 POP PUSH1 0x20 DUP5 MUL DUP4 ADD DUP6 DUP2 GT ISZERO PUSH2 0x51B8 JUMPI PUSH2 0x51B7 PUSH2 0x517F JUMP JUMPDEST JUMPDEST DUP4 JUMPDEST DUP2 DUP2 LT ISZERO PUSH2 0x51E1 JUMPI DUP1 PUSH2 0x51CD DUP9 DUP3 PUSH2 0x4DB5 JUMP JUMPDEST DUP5 MSTORE PUSH1 0x20 DUP5 ADD SWAP4 POP POP PUSH1 0x20 DUP2 ADD SWAP1 POP PUSH2 0x51BA JUMP JUMPDEST POP POP POP SWAP4 SWAP3 POP POP POP JUMP JUMPDEST PUSH0 DUP3 PUSH1 0x1F DUP4 ADD SLT PUSH2 0x51FF JUMPI PUSH2 0x51FE PUSH2 0x50D8 JUMP JUMPDEST JUMPDEST DUP2 CALLDATALOAD PUSH2 0x520F DUP5 DUP3 PUSH1 0x20 DUP7 ADD PUSH2 0x5183 JUMP JUMPDEST SWAP2 POP POP SWAP3 SWAP2 POP POP JUMP JUMPDEST PUSH0 PUSH8 0xFFFFFFFFFFFFFFFF DUP3 GT ISZERO PUSH2 0x5232 JUMPI PUSH2 0x5231 PUSH2 0x50DC JUMP JUMPDEST JUMPDEST PUSH1 0x20 DUP3 MUL SWAP1 POP PUSH1 0x20 DUP2 ADD SWAP1 POP SWAP2 SWAP1 POP JUMP JUMPDEST PUSH0 PUSH2 0x5255 PUSH2 0x5250 DUP5 PUSH2 0x5218 JUMP JUMPDEST PUSH2 0x513A JUMP JUMPDEST SWAP1 POP DUP1 DUP4 DUP3 MSTORE PUSH1 0x20 DUP3 ADD SWAP1 POP PUSH1 0x20 DUP5 MUL DUP4 ADD DUP6 DUP2 GT ISZERO PUSH2 0x5278 JUMPI PUSH2 0x5277 PUSH2 0x517F JUMP JUMPDEST JUMPDEST DUP4 JUMPDEST DUP2 DUP2 LT ISZERO PUSH2 0x52A1 JUMPI DUP1 PUSH2 0x528D DUP9 DUP3 PUSH2 0x4EEB JUMP JUMPDEST DUP5 MSTORE PUSH1 0x20 DUP5 ADD SWAP4 POP POP PUSH1 0x20 DUP2 ADD SWAP1 POP PUSH2 0x527A JUMP JUMPDEST POP POP POP SWAP4 SWAP3 POP POP POP JUMP JUMPDEST PUSH0 DUP3 PUSH1 0x1F DUP4 ADD SLT PUSH2 0x52BF JUMPI PUSH2 0x52BE PUSH2 0x50D8 JUMP JUMPDEST JUMPDEST DUP2 CALLDATALOAD PUSH2 0x52CF DUP5 DUP3 PUSH1 0x20 DUP7 ADD PUSH2 0x5243 JUMP JUMPDEST SWAP2 POP POP SWAP3 SWAP2 POP POP JUMP JUMPDEST PUSH0 DUP1 PUSH1 0x40 DUP4 DUP6 SUB SLT ISZERO PUSH2 0x52EE JUMPI PUSH2 0x52ED PUSH2 0x4D67 JUMP JUMPDEST JUMPDEST PUSH0 DUP4 ADD CALLDATALOAD PUSH8 0xFFFFFFFFFFFFFFFF DUP2 GT ISZERO PUSH2 0x530B JUMPI PUSH2 0x530A PUSH2 0x4D6B JUMP JUMPDEST JUMPDEST PUSH2 0x5317 DUP6 DUP3 DUP7 ADD PUSH2 0x51EB JUMP JUMPDEST SWAP3 POP POP PUSH1 0x20 DUP4 ADD CALLDATALOAD PUSH8 0xFFFFFFFFFFFFFFFF DUP2 GT ISZERO PUSH2 0x5338 JUMPI PUSH2 0x5337 PUSH2 0x4D6B JUMP JUMPDEST JUMPDEST PUSH2 0x5344 DUP6 DUP3 DUP7 ADD PUSH2 0x52AB JUMP JUMPDEST SWAP2 POP POP SWAP3 POP SWAP3 SWAP1 POP JUMP JUMPDEST PUSH0 DUP1 PUSH1 0x40 DUP4 DUP6 SUB SLT ISZERO PUSH2 0x5364 JUMPI PUSH2 0x5363 PUSH2 0x4D67 JUMP JUMPDEST JUMPDEST PUSH0 PUSH2 0x5371 DUP6 DUP3 DUP7 ADD PUSH2 0x4EEB JUMP JUMPDEST SWAP3 POP POP PUSH1 0x20 PUSH2 0x5382 DUP6 DUP3 DUP7 ADD PUSH2 0x4EEB JUMP JUMPDEST SWAP2 POP POP SWAP3 POP SWAP3 SWAP1 POP JUMP JUMPDEST PUSH0 PUSH1 0xA0 DUP3 ADD SWAP1 POP PUSH2 0x539F PUSH0 DUP4 ADD DUP9 PUSH2 0x50B0 JUMP JUMPDEST PUSH2 0x53AC PUSH1 0x20 DUP4 ADD DUP8 PUSH2 0x4F90 JUMP JUMPDEST PUSH2 0x53B9 PUSH1 0x40 DUP4 ADD DUP7 PUSH2 0x4F90 JUMP JUMPDEST PUSH2 0x53C6 PUSH1 0x60 DUP4 ADD DUP6 PUSH2 0x4F90 JUMP JUMPDEST PUSH2 0x53D3 PUSH1 0x80 DUP4 ADD DUP5 PUSH2 0x4F90 JUMP JUMPDEST SWAP7 SWAP6 POP POP POP POP POP POP JUMP JUMPDEST PUSH0 PUSH1 0x80 DUP3 ADD SWAP1 POP PUSH2 0x53F0 PUSH0 DUP4 ADD DUP8 PUSH2 0x4F90 JUMP JUMPDEST PUSH2 0x53FD PUSH1 0x20 DUP4 ADD DUP7 PUSH2 0x4F90 JUMP JUMPDEST PUSH2 0x540A PUSH1 0x40 DUP4 ADD DUP6 PUSH2 0x4F90 JUMP JUMPDEST PUSH2 0x5417 PUSH1 0x60 DUP4 ADD DUP5 PUSH2 0x4F90 JUMP JUMPDEST SWAP6 SWAP5 POP POP POP POP POP JUMP JUMPDEST PUSH0 PUSH1 0x20 DUP3 DUP5 SUB SLT ISZERO PUSH2 0x5435 JUMPI PUSH2 0x5434 PUSH2 0x4D67 JUMP JUMPDEST JUMPDEST PUSH0 PUSH2 0x5442 DUP5 DUP3 DUP6 ADD PUSH2 0x4DEA JUMP JUMPDEST SWAP2 POP POP SWAP3 SWAP2 POP POP JUMP JUMPDEST PUSH0 PUSH1 0x20 DUP3 DUP5 SUB SLT ISZERO PUSH2 0x5460 JUMPI PUSH2 0x545F PUSH2 0x4D67 JUMP JUMPDEST JUMPDEST PUSH0 PUSH2 0x546D DUP5 DUP3 DUP6 ADD PUSH2 0x4EEB JUMP JUMPDEST SWAP2 POP POP SWAP3 SWAP2 POP POP JUMP JUMPDEST PUSH0 DUP1 PUSH1 0x40 DUP4 DUP6 SUB SLT ISZERO PUSH2 0x548C JUMPI PUSH2 0x548B PUSH2 0x4D67 JUMP JUMPDEST JUMPDEST PUSH0 DUP4 ADD CALLDATALOAD PUSH8 0xFFFFFFFFFFFFFFFF DUP2 GT ISZERO PUSH2 0x54A9 JUMPI PUSH2 0x54A8 PUSH2 0x4D6B JUMP JUMPDEST JUMPDEST PUSH2 0x54B5 DUP6 DUP3 DUP7 ADD PUSH2 0x51EB JUMP JUMPDEST SWAP3 POP POP PUSH1 0x20 PUSH2 0x54C6 DUP6 DUP3 DUP7 ADD PUSH2 0x4DEA JUMP JUMPDEST SWAP2 POP POP SWAP3 POP SWAP3 SWAP1 POP JUMP JUMPDEST PUSH0 DUP1 REVERT JUMPDEST PUSH0 DUP1 DUP4 PUSH1 0x1F DUP5 ADD SLT PUSH2 0x54E9 JUMPI PUSH2 0x54E8 PUSH2 0x50D8 JUMP JUMPDEST JUMPDEST DUP3 CALLDATALOAD SWAP1 POP PUSH8 0xFFFFFFFFFFFFFFFF DUP2 GT ISZERO PUSH2 0x5506 JUMPI PUSH2 0x5505 PUSH2 0x54D0 JUMP JUMPDEST JUMPDEST PUSH1 0x20 DUP4 ADD SWAP2 POP DUP4 PUSH1 0x20 DUP3 MUL DUP4 ADD GT ISZERO PUSH2 0x5522 JUMPI PUSH2 0x5521 PUSH2 0x517F JUMP JUMPDEST JUMPDEST SWAP3 POP SWAP3 SWAP1 POP JUMP JUMPDEST PUSH0 DUP1 PUSH0 PUSH1 0x40 DUP5 DUP7 SUB SLT ISZERO PUSH2 0x5540 JUMPI PUSH2 0x553F PUSH2 0x4D67 JUMP JUMPDEST JUMPDEST PUSH0 DUP5 ADD CALLDATALOAD PUSH8 0xFFFFFFFFFFFFFFFF DUP2 GT ISZERO PUSH2 0x555D JUMPI PUSH2 0x555C PUSH2 0x4D6B JUMP JUMPDEST JUMPDEST PUSH2 0x5569 DUP7 DUP3 DUP8 ADD PUSH2 0x54D4 JUMP JUMPDEST SWAP4 POP SWAP4 POP POP PUSH1 0x20 PUSH2 0x557C DUP7 DUP3 DUP8 ADD PUSH2 0x4DEA JUMP JUMPDEST SWAP2 POP POP SWAP3 POP SWAP3 POP SWAP3 JUMP JUMPDEST PUSH0 DUP1 PUSH1 0x40 DUP4 DUP6 SUB SLT ISZERO PUSH2 0x559C JUMPI PUSH2 0x559B PUSH2 0x4D67 JUMP JUMPDEST JUMPDEST PUSH0 PUSH2 0x55A9 DUP6 DUP3 DUP7 ADD PUSH2 0x4DB5 JUMP JUMPDEST SWAP3 POP POP PUSH1 0x20 PUSH2 0x55BA DUP6 DUP3 DUP7 ADD PUSH2 0x4DB5 JUMP JUMPDEST SWAP2 POP POP SWAP3 POP SWAP3 SWAP1 POP JUMP JUMPDEST PUSH0 DUP1 PUSH0 DUP1 PUSH1 0x80 DUP6 DUP8 SUB SLT ISZERO PUSH2 0x55DC JUMPI PUSH2 0x55DB PUSH2 0x4D67 JUMP JUMPDEST JUMPDEST PUSH0 PUSH2 0x55E9 DUP8 DUP3 DUP9 ADD PUSH2 0x4EEB JUMP JUMPDEST SWAP5 POP POP PUSH1 0x20 PUSH2 0x55FA DUP8 DUP3 DUP9 ADD PUSH2 0x4EEB JUMP JUMPDEST SWAP4 POP POP PUSH1 0x40 PUSH2 0x560B DUP8 DUP3 DUP9 ADD PUSH2 0x4EEB JUMP JUMPDEST SWAP3 POP POP PUSH1 0x60 PUSH2 0x561C DUP8 DUP3 DUP9 ADD PUSH2 0x4EEB JUMP JUMPDEST SWAP2 POP POP SWAP3 SWAP6 SWAP2 SWAP5 POP SWAP3 POP JUMP JUMPDEST PUSH0 PUSH2 0x5632 DUP3 PUSH2 0x5032 JUMP JUMPDEST SWAP1 POP SWAP2 SWAP1 POP JUMP JUMPDEST PUSH2 0x5642 DUP2 PUSH2 0x5628 JUMP JUMPDEST DUP3 MSTORE POP POP JUMP JUMPDEST PUSH0 PUSH1 0x20 DUP3 ADD SWAP1 POP PUSH2 0x565B PUSH0 DUP4 ADD DUP5 PUSH2 0x5639 JUMP JUMPDEST SWAP3 SWAP2 POP POP JUMP JUMPDEST PUSH32 0x4F776E61626C653A2063616C6C6572206973206E6F7420746865206F776E6572 PUSH0 DUP3 ADD MSTORE POP JUMP JUMPDEST PUSH0 PUSH2 0x5695 PUSH1 0x20 DUP4 PUSH2 0x4E46 JUMP JUMPDEST SWAP2 POP PUSH2 0x56A0 DUP3 PUSH2 0x5661 JUMP JUMPDEST PUSH1 0x20 DUP3 ADD SWAP1 POP SWAP2 SWAP1 POP JUMP JUMPDEST PUSH0 PUSH1 0x20 DUP3 ADD SWAP1 POP DUP2 DUP2 SUB PUSH0 DUP4 ADD MSTORE PUSH2 0x56C2 DUP2 PUSH2 0x5689 JUMP JUMPDEST SWAP1 POP SWAP2 SWAP1 POP JUMP JUMPDEST PUSH0 PUSH1 0x40 DUP3 ADD SWAP1 POP PUSH2 0x56DC PUSH0 DUP4 ADD DUP6 PUSH2 0x50B0 JUMP JUMPDEST PUSH2 0x56E9 PUSH1 0x20 DUP4 ADD DUP5 PUSH2 0x4F3D JUMP JUMPDEST SWAP4 SWAP3 POP POP POP JUMP JUMPDEST PUSH32 0x4E487B7100000000000000000000000000000000000000000000000000000000 PUSH0 MSTORE PUSH1 0x22 PUSH1 0x4 MSTORE PUSH1 0x24 PUSH0 REVERT JUMPDEST PUSH0 PUSH1 0x2 DUP3 DIV SWAP1 POP PUSH1 0x1 DUP3 AND DUP1 PUSH2 0x5734 JUMPI PUSH1 0x7F DUP3 AND SWAP2 POP JUMPDEST PUSH1 0x20 DUP3 LT DUP2 SUB PUSH2 0x5747 JUMPI PUSH2 0x5746 PUSH2 0x56F0 JUMP JUMPDEST JUMPDEST POP SWAP2 SWAP1 POP JUMP JUMPDEST PUSH0 DUP2 MLOAD SWAP1 POP PUSH2 0x575B DUP2 PUSH2 0x4ED5 JUMP JUMPDEST SWAP3 SWAP2 POP POP JUMP JUMPDEST PUSH0 PUSH1 0x20 DUP3 DUP5 SUB SLT ISZERO PUSH2 0x5776 JUMPI PUSH2 0x5775 PUSH2 0x4D67 JUMP JUMPDEST JUMPDEST PUSH0 PUSH2 0x5783 DUP5 DUP3 DUP6 ADD PUSH2 0x574D JUMP JUMPDEST SWAP2 POP POP SWAP3 SWAP2 POP POP JUMP JUMPDEST PUSH0 PUSH1 0x40 DUP3 ADD SWAP1 POP PUSH2 0x579F PUSH0 DUP4 ADD DUP6 PUSH2 0x50B0 JUMP JUMPDEST PUSH2 0x57AC PUSH1 0x20 DUP4 ADD DUP5 PUSH2 0x4F90 JUMP JUMPDEST SWAP4 SWAP3 POP POP POP JUMP JUMPDEST PUSH0 DUP2 MLOAD SWAP1 POP PUSH2 0x57C1 DUP2 PUSH2 0x4DD4 JUMP JUMPDEST SWAP3 SWAP2 POP POP JUMP JUMPDEST PUSH0 PUSH1 0x20 DUP3 DUP5 SUB SLT ISZERO PUSH2 0x57DC JUMPI PUSH2 0x57DB PUSH2 0x4D67 JUMP JUMPDEST JUMPDEST PUSH0 PUSH2 0x57E9 DUP5 DUP3 DUP6 ADD PUSH2 0x57B3 JUMP JUMPDEST SWAP2 POP POP SWAP3 SWAP2 POP POP JUMP JUMPDEST PUSH32 0x54726164696E6720616C726561647920656E61626C6564000000000000000000 PUSH0 DUP3 ADD MSTORE POP JUMP JUMPDEST PUSH0 PUSH2 0x5826 PUSH1 0x17 DUP4 PUSH2 0x4E46 JUMP JUMPDEST SWAP2 POP PUSH2 0x5831 DUP3 PUSH2 0x57F2 JUMP JUMPDEST PUSH1 0x20 DUP3 ADD SWAP1 POP SWAP2 SWAP1 POP JUMP JUMPDEST PUSH0 PUSH1 0x20 DUP3 ADD SWAP1 POP DUP2 DUP2 SUB PUSH0 DUP4 ADD MSTORE PUSH2 0x5853 DUP2 PUSH2 0x581A JUMP JUMPDEST SWAP1 POP SWAP2 SWAP1 POP JUMP JUMPDEST PUSH32 0x436C61696D206E6F7420656E61626C6564000000000000000000000000000000 PUSH0 DUP3 ADD MSTORE POP JUMP JUMPDEST PUSH0 PUSH2 0x588E PUSH1 0x11 DUP4 PUSH2 0x4E46 JUMP JUMPDEST SWAP2 POP PUSH2 0x5899 DUP3 PUSH2 0x585A JUMP JUMPDEST PUSH1 0x20 DUP3 ADD SWAP1 POP SWAP2 SWAP1 POP JUMP JUMPDEST PUSH0 PUSH1 0x20 DUP3 ADD SWAP1 POP DUP2 DUP2 SUB PUSH0 DUP4 ADD MSTORE PUSH2 0x58BB DUP2 PUSH2 0x5882 JUMP JUMPDEST SWAP1 POP SWAP2 SWAP1 POP JUMP JUMPDEST PUSH0 PUSH2 0x58CC DUP3 PUSH2 0x4D6F JUMP JUMPDEST SWAP1 POP SWAP2 SWAP1 POP JUMP JUMPDEST PUSH2 0x58DC DUP2 PUSH2 0x58C2 JUMP JUMPDEST DUP3 MSTORE POP POP JUMP JUMPDEST PUSH0 PUSH1 0x20 DUP3 ADD SWAP1 POP PUSH2 0x58F5 PUSH0 DUP4 ADD DUP5 PUSH2 0x58D3 JUMP JUMPDEST SWAP3 SWAP2 POP POP JUMP JUMPDEST PUSH32 0x417272617973206D75737420686176652073616D652073697A65000000000000 PUSH0 DUP3 ADD MSTORE POP JUMP JUMPDEST PUSH0 PUSH2 0x592F PUSH1 0x1A DUP4 PUSH2 0x4E46 JUMP JUMPDEST SWAP2 POP PUSH2 0x593A DUP3 PUSH2 0x58FB JUMP JUMPDEST PUSH1 0x20 DUP3 ADD SWAP1 POP SWAP2 SWAP1 POP JUMP JUMPDEST PUSH0 PUSH1 0x20 DUP3 ADD SWAP1 POP DUP2 DUP2 SUB PUSH0 DUP4 ADD MSTORE PUSH2 0x595C DUP2 PUSH2 0x5923 JUMP JUMPDEST SWAP1 POP SWAP2 SWAP1 POP JUMP JUMPDEST PUSH32 0x4E487B7100000000000000000000000000000000000000000000000000000000 PUSH0 MSTORE PUSH1 0x32 PUSH1 0x4 MSTORE PUSH1 0x24 PUSH0 REVERT JUMPDEST PUSH32 0x4E487B7100000000000000000000000000000000000000000000000000000000 PUSH0 MSTORE PUSH1 0x11 PUSH1 0x4 MSTORE PUSH1 0x24 PUSH0 REVERT JUMPDEST PUSH0 PUSH2 0x59C7 DUP3 PUSH2 0x4ECC JUMP JUMPDEST SWAP2 POP PUSH2 0x59D2 DUP4 PUSH2 0x4ECC JUMP JUMPDEST SWAP3 POP DUP3 DUP3 MUL PUSH2 0x59E0 DUP2 PUSH2 0x4ECC JUMP JUMPDEST SWAP2 POP DUP3 DUP3 DIV DUP5 EQ DUP4 ISZERO OR PUSH2 0x59F7 JUMPI PUSH2 0x59F6 PUSH2 0x5990 JUMP JUMPDEST JUMPDEST POP SWAP3 SWAP2 POP POP JUMP JUMPDEST PUSH0 DUP2 MLOAD SWAP1 POP PUSH2 0x5A0C DUP2 PUSH2 0x4D9F JUMP JUMPDEST SWAP3 SWAP2 POP POP JUMP JUMPDEST PUSH0 DUP1 PUSH0 DUP1 PUSH0 PUSH1 0xA0 DUP7 DUP9 SUB SLT ISZERO PUSH2 0x5A2B JUMPI PUSH2 0x5A2A PUSH2 0x4D67 JUMP JUMPDEST JUMPDEST PUSH0 PUSH2 0x5A38 DUP9 DUP3 DUP10 ADD PUSH2 0x59FE JUMP JUMPDEST SWAP6 POP POP PUSH1 0x20 PUSH2 0x5A49 DUP9 DUP3 DUP10 ADD PUSH2 0x574D JUMP JUMPDEST SWAP5 POP POP PUSH1 0x40 PUSH2 0x5A5A DUP9 DUP3 DUP10 ADD PUSH2 0x574D JUMP JUMPDEST SWAP4 POP POP PUSH1 0x60 PUSH2 0x5A6B DUP9 DUP3 DUP10 ADD PUSH2 0x574D JUMP JUMPDEST SWAP3 POP POP PUSH1 0x80 PUSH2 0x5A7C DUP9 DUP3 DUP10 ADD PUSH2 0x574D JUMP JUMPDEST SWAP2 POP POP SWAP3 SWAP6 POP SWAP3 SWAP6 SWAP1 SWAP4 POP JUMP JUMPDEST PUSH0 PUSH1 0x40 DUP3 ADD SWAP1 POP PUSH2 0x5A9C PUSH0 DUP4 ADD DUP6 PUSH2 0x50B0 JUMP JUMPDEST PUSH2 0x5AA9 PUSH1 0x20 DUP4 ADD DUP5 PUSH2 0x50B0 JUMP JUMPDEST SWAP4 SWAP3 POP POP POP JUMP JUMPDEST PUSH32 0x564952414C3A204163636F756E7420697320616C726561647920746865207661 PUSH0 DUP3 ADD MSTORE PUSH32 0x6C7565206F6620276578636C7564656427000000000000000000000000000000 PUSH1 0x20 DUP3 ADD MSTORE POP JUMP JUMPDEST PUSH0 PUSH2 0x5B0A PUSH1 0x31 DUP4 PUSH2 0x4E46 JUMP JUMPDEST SWAP2 POP PUSH2 0x5B15 DUP3 PUSH2 0x5AB0 JUMP JUMPDEST PUSH1 0x40 DUP3 ADD SWAP1 POP SWAP2 SWAP1 POP JUMP JUMPDEST PUSH0 PUSH1 0x20 DUP3 ADD SWAP1 POP DUP2 DUP2 SUB PUSH0 DUP4 ADD MSTORE PUSH2 0x5B37 DUP2 PUSH2 0x5AFE JUMP JUMPDEST SWAP1 POP SWAP2 SWAP1 POP JUMP JUMPDEST PUSH0 DUP3 DUP3 MSTORE PUSH1 0x20 DUP3 ADD SWAP1 POP SWAP3 SWAP2 POP POP JUMP JUMPDEST PUSH0 DUP2 SWAP1 POP SWAP2 SWAP1 POP JUMP JUMPDEST PUSH2 0x5B60 DUP2 PUSH2 0x4D8E JUMP JUMPDEST DUP3 MSTORE POP POP JUMP JUMPDEST PUSH0 PUSH2 0x5B71 DUP4 DUP4 PUSH2 0x5B57 JUMP JUMPDEST PUSH1 0x20 DUP4 ADD SWAP1 POP SWAP3 SWAP2 POP POP JUMP JUMPDEST PUSH0 PUSH2 0x5B8B PUSH1 0x20 DUP5 ADD DUP5 PUSH2 0x4DB5 JUMP JUMPDEST SWAP1 POP SWAP3 SWAP2 POP POP JUMP JUMPDEST PUSH0 PUSH1 0x20 DUP3 ADD SWAP1 POP SWAP2 SWAP1 POP JUMP JUMPDEST PUSH0 PUSH2 0x5BAA DUP4 DUP6 PUSH2 0x5B3E JUMP JUMPDEST SWAP4 POP PUSH2 0x5BB5 DUP3 PUSH2 0x5B4E JUMP JUMPDEST DUP1 PUSH0 JUMPDEST DUP6 DUP2 LT ISZERO PUSH2 0x5BED JUMPI PUSH2 0x5BCA DUP3 DUP5 PUSH2 0x5B7D JUMP JUMPDEST PUSH2 0x5BD4 DUP9 DUP3 PUSH2 0x5B66 JUMP JUMPDEST SWAP8 POP PUSH2 0x5BDF DUP4 PUSH2 0x5B93 JUMP JUMPDEST SWAP3 POP POP PUSH1 0x1 DUP2 ADD SWAP1 POP PUSH2 0x5BB8 JUMP JUMPDEST POP DUP6 SWAP3 POP POP POP SWAP4 SWAP3 POP POP POP JUMP JUMPDEST PUSH0 PUSH1 0x40 DUP3 ADD SWAP1 POP DUP2 DUP2 SUB PUSH0 DUP4 ADD MSTORE PUSH2 0x5C13 DUP2 DUP6 DUP8 PUSH2 0x5B9F JUMP JUMPDEST SWAP1 POP PUSH2 0x5C22 PUSH1 0x20 DUP4 ADD DUP5 PUSH2 0x4F3D JUMP JUMPDEST SWAP5 SWAP4 POP POP POP POP JUMP JUMPDEST PUSH0 PUSH2 0x5C34 DUP3 PUSH2 0x4ECC JUMP JUMPDEST SWAP2 POP PUSH2 0x5C3F DUP4 PUSH2 0x4ECC JUMP JUMPDEST SWAP3 POP DUP3 DUP3 ADD SWAP1 POP DUP1 DUP3 GT ISZERO PUSH2 0x5C57 JUMPI PUSH2 0x5C56 PUSH2 0x5990 JUMP JUMPDEST JUMPDEST SWAP3 SWAP2 POP POP JUMP JUMPDEST PUSH32 0x466565206D757374206265203C3D203230250000000000000000000000000000 PUSH0 DUP3 ADD MSTORE POP JUMP JUMPDEST PUSH0 PUSH2 0x5C91 PUSH1 0x12 DUP4 PUSH2 0x4E46 JUMP JUMPDEST SWAP2 POP PUSH2 0x5C9C DUP3 PUSH2 0x5C5D JUMP JUMPDEST PUSH1 0x20 DUP3 ADD SWAP1 POP SWAP2 SWAP1 POP JUMP JUMPDEST PUSH0 PUSH1 0x20 DUP3 ADD SWAP1 POP DUP2 DUP2 SUB PUSH0 DUP4 ADD MSTORE PUSH2 0x5CBE DUP2 PUSH2 0x5C85 JUMP JUMPDEST SWAP1 POP SWAP2 SWAP1 POP JUMP JUMPDEST PUSH32 0x4F776E61626C653A206E6577206F776E657220697320746865207A65726F2061 PUSH0 DUP3 ADD MSTORE PUSH32 0x6464726573730000000000000000000000000000000000000000000000000000 PUSH1 0x20 DUP3 ADD MSTORE POP JUMP JUMPDEST PUSH0 PUSH2 0x5D1F PUSH1 0x26 DUP4 PUSH2 0x4E46 JUMP JUMPDEST SWAP2 POP PUSH2 0x5D2A DUP3 PUSH2 0x5CC5 JUMP JUMPDEST PUSH1 0x40 DUP3 ADD SWAP1 POP SWAP2 SWAP1 POP JUMP JUMPDEST PUSH0 PUSH1 0x20 DUP3 ADD SWAP1 POP DUP2 DUP2 SUB PUSH0 DUP4 ADD MSTORE PUSH2 0x5D4C DUP2 PUSH2 0x5D13 JUMP JUMPDEST SWAP1 POP SWAP2 SWAP1 POP JUMP JUMPDEST PUSH32 0x45524332303A20617070726F76652066726F6D20746865207A65726F20616464 PUSH0 DUP3 ADD MSTORE PUSH32 0x7265737300000000000000000000000000000000000000000000000000000000 PUSH1 0x20 DUP3 ADD MSTORE POP JUMP JUMPDEST PUSH0 PUSH2 0x5DAD PUSH1 0x24 DUP4 PUSH2 0x4E46 JUMP JUMPDEST SWAP2 POP PUSH2 0x5DB8 DUP3 PUSH2 0x5D53 JUMP JUMPDEST PUSH1 0x40 DUP3 ADD SWAP1 POP SWAP2 SWAP1 POP JUMP JUMPDEST PUSH0 PUSH1 0x20 DUP3 ADD SWAP1 POP DUP2 DUP2 SUB PUSH0 DUP4 ADD MSTORE PUSH2 0x5DDA DUP2 PUSH2 0x5DA1 JUMP JUMPDEST SWAP1 POP SWAP2 SWAP1 POP JUMP JUMPDEST PUSH32 0x45524332303A20617070726F766520746F20746865207A65726F206164647265 PUSH0 DUP3 ADD MSTORE PUSH32 0x7373000000000000000000000000000000000000000000000000000000000000 PUSH1 0x20 DUP3 ADD MSTORE POP JUMP JUMPDEST PUSH0 PUSH2 0x5E3B PUSH1 0x22 DUP4 PUSH2 0x4E46 JUMP JUMPDEST SWAP2 POP PUSH2 0x5E46 DUP3 PUSH2 0x5DE1 JUMP JUMPDEST PUSH1 0x40 DUP3 ADD SWAP1 POP SWAP2 SWAP1 POP JUMP JUMPDEST PUSH0 PUSH1 0x20 DUP3 ADD SWAP1 POP DUP2 DUP2 SUB PUSH0 DUP4 ADD MSTORE PUSH2 0x5E68 DUP2 PUSH2 0x5E2F JUMP JUMPDEST SWAP1 POP SWAP2 SWAP1 POP JUMP JUMPDEST PUSH32 0x416464726573733A20696E73756666696369656E742062616C616E6365000000 PUSH0 DUP3 ADD MSTORE POP JUMP JUMPDEST PUSH0 PUSH2 0x5EA3 PUSH1 0x1D DUP4 PUSH2 0x4E46 JUMP JUMPDEST SWAP2 POP PUSH2 0x5EAE DUP3 PUSH2 0x5E6F JUMP JUMPDEST PUSH1 0x20 DUP3 ADD SWAP1 POP SWAP2 SWAP1 POP JUMP JUMPDEST PUSH0 PUSH1 0x20 DUP3 ADD SWAP1 POP DUP2 DUP2 SUB PUSH0 DUP4 ADD MSTORE PUSH2 0x5ED0 DUP2 PUSH2 0x5E97 JUMP JUMPDEST SWAP1 POP SWAP2 SWAP1 POP JUMP JUMPDEST PUSH0 DUP2 SWAP1 POP SWAP3 SWAP2 POP POP JUMP JUMPDEST POP JUMP JUMPDEST PUSH0 PUSH2 0x5EEF PUSH0 DUP4 PUSH2 0x5ED7 JUMP JUMPDEST SWAP2 POP PUSH2 0x5EFA DUP3 PUSH2 0x5EE1 JUMP JUMPDEST PUSH0 DUP3 ADD SWAP1 POP SWAP2 SWAP1 POP JUMP JUMPDEST PUSH0 PUSH2 0x5F0E DUP3 PUSH2 0x5EE4 JUMP JUMPDEST SWAP2 POP DUP2 SWAP1 POP SWAP2 SWAP1 POP JUMP JUMPDEST PUSH32 0x416464726573733A20756E61626C6520746F2073656E642076616C75652C2072 PUSH0 DUP3 ADD MSTORE PUSH32 0x6563697069656E74206D61792068617665207265766572746564000000000000 PUSH1 0x20 DUP3 ADD MSTORE POP JUMP JUMPDEST PUSH0 PUSH2 0x5F72 PUSH1 0x3A DUP4 PUSH2 0x4E46 JUMP JUMPDEST SWAP2 POP PUSH2 0x5F7D DUP3 PUSH2 0x5F18 JUMP JUMPDEST PUSH1 0x40 DUP3 ADD SWAP1 POP SWAP2 SWAP1 POP JUMP JUMPDEST PUSH0 PUSH1 0x20 DUP3 ADD SWAP1 POP DUP2 DUP2 SUB PUSH0 DUP4 ADD MSTORE PUSH2 0x5F9F DUP2 PUSH2 0x5F66 JUMP JUMPDEST SWAP1 POP SWAP2 SWAP1 POP JUMP JUMPDEST PUSH32 0x45524332303A207472616E736665722066726F6D20746865207A65726F206164 PUSH0 DUP3 ADD MSTORE PUSH32 0x6472657373000000000000000000000000000000000000000000000000000000 PUSH1 0x20 DUP3 ADD MSTORE POP JUMP JUMPDEST PUSH0 PUSH2 0x6000 PUSH1 0x25 DUP4 PUSH2 0x4E46 JUMP JUMPDEST SWAP2 POP PUSH2 0x600B DUP3 PUSH2 0x5FA6 JUMP JUMPDEST PUSH1 0x40 DUP3 ADD SWAP1 POP SWAP2 SWAP1 POP JUMP JUMPDEST PUSH0 PUSH1 0x20 DUP3 ADD SWAP1 POP DUP2 DUP2 SUB PUSH0 DUP4 ADD MSTORE PUSH2 0x602D DUP2 PUSH2 0x5FF4 JUMP JUMPDEST SWAP1 POP SWAP2 SWAP1 POP JUMP JUMPDEST PUSH32 0x45524332303A207472616E7366657220746F20746865207A65726F2061646472 PUSH0 DUP3 ADD MSTORE PUSH32 0x6573730000000000000000000000000000000000000000000000000000000000 PUSH1 0x20 DUP3 ADD MSTORE POP JUMP JUMPDEST PUSH0 PUSH2 0x608E PUSH1 0x23 DUP4 PUSH2 0x4E46 JUMP JUMPDEST SWAP2 POP PUSH2 0x6099 DUP3 PUSH2 0x6034 JUMP JUMPDEST PUSH1 0x40 DUP3 ADD SWAP1 POP SWAP2 SWAP1 POP JUMP JUMPDEST PUSH0 PUSH1 0x20 DUP3 ADD SWAP1 POP DUP2 DUP2 SUB PUSH0 DUP4 ADD MSTORE PUSH2 0x60BB DUP2 PUSH2 0x6082 JUMP JUMPDEST SWAP1 POP SWAP2 SWAP1 POP JUMP JUMPDEST PUSH32 0x54726164696E67206E6F74206163746976650000000000000000000000000000 PUSH0 DUP3 ADD MSTORE POP JUMP JUMPDEST PUSH0 PUSH2 0x60F6 PUSH1 0x12 DUP4 PUSH2 0x4E46 JUMP JUMPDEST SWAP2 POP PUSH2 0x6101 DUP3 PUSH2 0x60C2 JUMP JUMPDEST PUSH1 0x20 DUP3 ADD SWAP1 POP SWAP2 SWAP1 POP JUMP JUMPDEST PUSH0 PUSH1 0x20 DUP3 ADD SWAP1 POP DUP2 DUP2 SUB PUSH0 DUP4 ADD MSTORE PUSH2 0x6123 DUP2 PUSH2 0x60EA JUMP JUMPDEST SWAP1 POP SWAP2 SWAP1 POP JUMP JUMPDEST PUSH32 0x4279652042796520426F74000000000000000000000000000000000000000000 PUSH0 DUP3 ADD MSTORE POP JUMP JUMPDEST PUSH0 PUSH2 0x615E PUSH1 0xB DUP4 PUSH2 0x4E46 JUMP JUMPDEST SWAP2 POP PUSH2 0x6169 DUP3 PUSH2 0x612A JUMP JUMPDEST PUSH1 0x20 DUP3 ADD SWAP1 POP SWAP2 SWAP1 POP JUMP JUMPDEST PUSH0 PUSH1 0x20 DUP3 ADD SWAP1 POP DUP2 DUP2 SUB PUSH0 DUP4 ADD MSTORE PUSH2 0x618B DUP2 PUSH2 0x6152 JUMP JUMPDEST SWAP1 POP SWAP2 SWAP1 POP JUMP JUMPDEST PUSH32 0x596F752061726520657863656564696E67206D617853656C6C416D6F756E7400 PUSH0 DUP3 ADD MSTORE POP JUMP JUMPDEST PUSH0 PUSH2 0x61C6 PUSH1 0x1F DUP4 PUSH2 0x4E46 JUMP JUMPDEST SWAP2 POP PUSH2 0x61D1 DUP3 PUSH2 0x6192 JUMP JUMPDEST PUSH1 0x20 DUP3 ADD SWAP1 POP SWAP2 SWAP1 POP JUMP JUMPDEST PUSH0 PUSH1 0x20 DUP3 ADD SWAP1 POP DUP2 DUP2 SUB PUSH0 DUP4 ADD MSTORE PUSH2 0x61F3 DUP2 PUSH2 0x61BA JUMP JUMPDEST SWAP1 POP SWAP2 SWAP1 POP JUMP JUMPDEST PUSH32 0x596F752061726520657863656564696E67206D6178427579416D6F756E740000 PUSH0 DUP3 ADD MSTORE POP JUMP JUMPDEST PUSH0 PUSH2 0x622E PUSH1 0x1E DUP4 PUSH2 0x4E46 JUMP JUMPDEST SWAP2 POP PUSH2 0x6239 DUP3 PUSH2 0x61FA JUMP JUMPDEST PUSH1 0x20 DUP3 ADD SWAP1 POP SWAP2 SWAP1 POP JUMP JUMPDEST PUSH0 PUSH1 0x20 DUP3 ADD SWAP1 POP DUP2 DUP2 SUB PUSH0 DUP4 ADD MSTORE PUSH2 0x625B DUP2 PUSH2 0x6222 JUMP JUMPDEST SWAP1 POP SWAP2 SWAP1 POP JUMP JUMPDEST PUSH32 0x4E487B7100000000000000000000000000000000000000000000000000000000 PUSH0 MSTORE PUSH1 0x12 PUSH1 0x4 MSTORE PUSH1 0x24 PUSH0 REVERT JUMPDEST PUSH0 PUSH2 0x6299 DUP3 PUSH2 0x4ECC JUMP JUMPDEST SWAP2 POP PUSH2 0x62A4 DUP4 PUSH2 0x4ECC JUMP JUMPDEST SWAP3 POP DUP3 PUSH2 0x62B4 JUMPI PUSH2 0x62B3 PUSH2 0x6262 JUMP JUMPDEST JUMPDEST DUP3 DUP3 DIV SWAP1 POP SWAP3 SWAP2 POP POP JUMP JUMPDEST PUSH0 PUSH2 0x62C9 DUP3 PUSH2 0x4ECC JUMP JUMPDEST SWAP2 POP PUSH2 0x62D4 DUP4 PUSH2 0x4ECC JUMP JUMPDEST SWAP3 POP DUP3 DUP3 SUB SWAP1 POP DUP2 DUP2 GT ISZERO PUSH2 0x62EC JUMPI PUSH2 0x62EB PUSH2 0x5990 JUMP JUMPDEST JUMPDEST SWAP3 SWAP2 POP POP JUMP JUMPDEST PUSH32 0x536166654D6174683A206164646974696F6E206F766572666C6F770000000000 PUSH0 DUP3 ADD MSTORE POP JUMP JUMPDEST PUSH0 PUSH2 0x6326 PUSH1 0x1B DUP4 PUSH2 0x4E46 JUMP JUMPDEST SWAP2 POP PUSH2 0x6331 DUP3 PUSH2 0x62F2 JUMP JUMPDEST PUSH1 0x20 DUP3 ADD SWAP1 POP SWAP2 SWAP1 POP JUMP JUMPDEST PUSH0 PUSH1 0x20 DUP3 ADD SWAP1 POP DUP2 DUP2 SUB PUSH0 DUP4 ADD MSTORE PUSH2 0x6353 DUP2 PUSH2 0x631A JUMP JUMPDEST SWAP1 POP SWAP2 SWAP1 POP JUMP JUMPDEST PUSH32 0x564952414C3A204175746F6D61746564206D61726B6574206D616B6572207061 PUSH0 DUP3 ADD MSTORE PUSH32 0x697220697320616C72656164792073657420746F20746861742076616C756500 PUSH1 0x20 DUP3 ADD MSTORE POP JUMP JUMPDEST PUSH0 PUSH2 0x63B4 PUSH1 0x3F DUP4 PUSH2 0x4E46 JUMP JUMPDEST SWAP2 POP PUSH2 0x63BF DUP3 PUSH2 0x635A JUMP JUMPDEST PUSH1 0x40 DUP3 ADD SWAP1 POP SWAP2 SWAP1 POP JUMP JUMPDEST PUSH0 PUSH1 0x20 DUP3 ADD SWAP1 POP DUP2 DUP2 SUB PUSH0 DUP4 ADD MSTORE PUSH2 0x63E1 DUP2 PUSH2 0x63A8 JUMP JUMPDEST SWAP1 POP SWAP2 SWAP1 POP JUMP JUMPDEST PUSH0 PUSH1 0x40 DUP3 ADD SWAP1 POP PUSH2 0x63FB PUSH0 DUP4 ADD DUP6 PUSH2 0x4F90 JUMP JUMPDEST PUSH2 0x6408 PUSH1 0x20 DUP4 ADD DUP5 PUSH2 0x4F90 JUMP JUMPDEST SWAP4 SWAP3 POP POP POP JUMP JUMPDEST PUSH0 PUSH1 0x20 DUP3 DUP5 SUB SLT ISZERO PUSH2 0x6424 JUMPI PUSH2 0x6423 PUSH2 0x4D67 JUMP JUMPDEST JUMPDEST PUSH0 PUSH2 0x6431 DUP5 DUP3 DUP6 ADD PUSH2 0x59FE JUMP JUMPDEST SWAP2 POP POP SWAP3 SWAP2 POP POP JUMP JUMPDEST PUSH0 DUP2 SWAP1 POP SWAP2 SWAP1 POP JUMP JUMPDEST PUSH0 PUSH2 0x645D PUSH2 0x6458 PUSH2 0x6453 DUP5 PUSH2 0x643A JUMP JUMPDEST PUSH2 0x5008 JUMP JUMPDEST PUSH2 0x4ECC JUMP JUMPDEST SWAP1 POP SWAP2 SWAP1 POP JUMP JUMPDEST PUSH2 0x646D DUP2 PUSH2 0x6443 JUMP JUMPDEST DUP3 MSTORE POP POP JUMP JUMPDEST PUSH0 DUP2 MLOAD SWAP1 POP SWAP2 SWAP1 POP JUMP JUMPDEST PUSH0 DUP2 SWAP1 POP PUSH1 0x20 DUP3 ADD SWAP1 POP SWAP2 SWAP1 POP JUMP JUMPDEST PUSH0 PUSH1 0x20 DUP3 ADD SWAP1 POP SWAP2 SWAP1 POP JUMP JUMPDEST PUSH0 PUSH2 0x64A2 DUP3 PUSH2 0x6473 JUMP JUMPDEST PUSH2 0x64AC DUP2 DUP6 PUSH2 0x5B3E JUMP JUMPDEST SWAP4 POP PUSH2 0x64B7 DUP4 PUSH2 0x647D JUMP JUMPDEST DUP1 PUSH0 JUMPDEST DUP4 DUP2 LT ISZERO PUSH2 0x64E7 JUMPI DUP2 MLOAD PUSH2 0x64CE DUP9 DUP3 PUSH2 0x5B66 JUMP JUMPDEST SWAP8 POP PUSH2 0x64D9 DUP4 PUSH2 0x648C JUMP JUMPDEST SWAP3 POP POP PUSH1 0x1 DUP2 ADD SWAP1 POP PUSH2 0x64BA JUMP JUMPDEST POP DUP6 SWAP4 POP POP POP POP SWAP3 SWAP2 POP POP JUMP JUMPDEST PUSH0 PUSH1 0xA0 DUP3 ADD SWAP1 POP PUSH2 0x6507 PUSH0 DUP4 ADD DUP9 PUSH2 0x4F90 JUMP JUMPDEST PUSH2 0x6514 PUSH1 0x20 DUP4 ADD DUP8 PUSH2 0x6464 JUMP JUMPDEST DUP2 DUP2 SUB PUSH1 0x40 DUP4 ADD MSTORE PUSH2 0x6526 DUP2 DUP7 PUSH2 0x6498 JUMP JUMPDEST SWAP1 POP PUSH2 0x6535 PUSH1 0x60 DUP4 ADD DUP6 PUSH2 0x50B0 JUMP JUMPDEST PUSH2 0x6542 PUSH1 0x80 DUP4 ADD DUP5 PUSH2 0x4F90 JUMP JUMPDEST SWAP7 SWAP6 POP POP POP POP POP POP JUMP JUMPDEST PUSH0 PUSH1 0xC0 DUP3 ADD SWAP1 POP PUSH2 0x655F PUSH0 DUP4 ADD DUP10 PUSH2 0x50B0 JUMP JUMPDEST PUSH2 0x656C PUSH1 0x20 DUP4 ADD DUP9 PUSH2 0x4F90 JUMP JUMPDEST PUSH2 0x6579 PUSH1 0x40 DUP4 ADD DUP8 PUSH2 0x6464 JUMP JUMPDEST PUSH2 0x6586 PUSH1 0x60 DUP4 ADD DUP7 PUSH2 0x6464 JUMP JUMPDEST PUSH2 0x6593 PUSH1 0x80 DUP4 ADD DUP6 PUSH2 0x50B0 JUMP JUMPDEST PUSH2 0x65A0 PUSH1 0xA0 DUP4 ADD DUP5 PUSH2 0x4F90 JUMP JUMPDEST SWAP8 SWAP7 POP POP POP POP POP POP POP JUMP JUMPDEST PUSH0 DUP1 PUSH0 PUSH1 0x60 DUP5 DUP7 SUB SLT ISZERO PUSH2 0x65C2 JUMPI PUSH2 0x65C1 PUSH2 0x4D67 JUMP JUMPDEST JUMPDEST PUSH0 PUSH2 0x65CF DUP7 DUP3 DUP8 ADD PUSH2 0x574D JUMP JUMPDEST SWAP4 POP POP PUSH1 0x20 PUSH2 0x65E0 DUP7 DUP3 DUP8 ADD PUSH2 0x574D JUMP JUMPDEST SWAP3 POP POP PUSH1 0x40 PUSH2 0x65F1 DUP7 DUP3 DUP8 ADD PUSH2 0x574D JUMP JUMPDEST SWAP2 POP POP SWAP3 POP SWAP3 POP SWAP3 JUMP INVALID GASLIMIT MSTORE NUMBER ORIGIN ADDRESS GASPRICE KECCAK256 PUSH21 0x72616E7366657220616D6F756E7420657863656564 PUSH20 0x2062616C616E636545524332303A207472616E73 PUSH7 0x657220616D6F75 PUSH15 0x74206578636565647320616C6C6F77 PUSH2 0x6E63 PUSH6 0x45524332303A KECCAK256 PUSH5 0x6563726561 PUSH20 0x656420616C6C6F77616E63652062656C6F77207A PUSH6 0x726FA2646970 PUSH7 0x7358221220CB3D PUSH26 0x715CA2566A5AF4B22849EE784C575525D57280A40D74A08DDED 0xCB CREATE PUSH1 0x64 PUSH20 0x6F6C634300081A0033608060405234801561000F JUMPI PUSH0 DUP1 REVERT JUMPDEST POP PUSH1 0x40 MLOAD DUP1 PUSH1 0x40 ADD PUSH1 0x40 MSTORE DUP1 PUSH1 0x15 DUP2 MSTORE PUSH1 0x20 ADD PUSH32 0x564952414C5F4469766964656E5F547261636B65720000000000000000000000 DUP2 MSTORE POP PUSH1 0x40 MLOAD DUP1 PUSH1 0x40 ADD PUSH1 0x40 MSTORE DUP1 PUSH1 0x16 DUP2 MSTORE PUSH1 0x20 ADD PUSH32 0x564952414C5F4469766964656E645F547261636B657200000000000000000000 DUP2 MSTORE POP DUP2 DUP2 DUP2 PUSH1 0x3 SWAP1 DUP2 PUSH2 0x8D SWAP2 SWAP1 PUSH2 0x394 JUMP JUMPDEST POP DUP1 PUSH1 0x4 SWAP1 DUP2 PUSH2 0x9D SWAP2 SWAP1 PUSH2 0x394 JUMP JUMPDEST POP POP POP PUSH0 PUSH2 0xAF PUSH2 0x153 PUSH1 0x20 SHL PUSH1 0x20 SHR JUMP JUMPDEST SWAP1 POP DUP1 PUSH1 0x5 PUSH0 PUSH2 0x100 EXP DUP2 SLOAD DUP2 PUSH20 0xFFFFFFFFFFFFFFFFFFFFFFFFFFFFFFFFFFFFFFFF MUL NOT AND SWAP1 DUP4 PUSH20 0xFFFFFFFFFFFFFFFFFFFFFFFFFFFFFFFFFFFFFFFF AND MUL OR SWAP1 SSTORE POP DUP1 PUSH20 0xFFFFFFFFFFFFFFFFFFFFFFFFFFFFFFFFFFFFFFFF AND PUSH0 PUSH20 0xFFFFFFFFFFFFFFFFFFFFFFFFFFFFFFFFFFFFFFFF AND PUSH32 0x8BE0079C531659141344CD1FD0A4F28419497F9722A3DAAFE3B4186F6B6457E0 PUSH1 0x40 MLOAD PUSH1 0x40 MLOAD DUP1 SWAP2 SUB SWAP1 LOG3 POP POP POP PUSH2 0x463 JUMP JUMPDEST PUSH0 CALLER SWAP1 POP SWAP1 JUMP JUMPDEST PUSH0 DUP2 MLOAD SWAP1 POP SWAP2 SWAP1 POP JUMP JUMPDEST PUSH32 0x4E487B7100000000000000000000000000000000000000000000000000000000 PUSH0 MSTORE PUSH1 0x41 PUSH1 0x4 MSTORE PUSH1 0x24 PUSH0 REVERT JUMPDEST PUSH32 0x4E487B7100000000000000000000000000000000000000000000000000000000 PUSH0 MSTORE PUSH1 0x22 PUSH1 0x4 MSTORE PUSH1 0x24 PUSH0 REVERT JUMPDEST PUSH0 PUSH1 0x2 DUP3 DIV SWAP1 POP PUSH1 0x1 DUP3 AND DUP1 PUSH2 0x1D5 JUMPI PUSH1 0x7F DUP3 AND SWAP2 POP JUMPDEST PUSH1 0x20 DUP3 LT DUP2 SUB PUSH2 0x1E8 JUMPI PUSH2 0x1E7 PUSH2 0x191 JUMP JUMPDEST JUMPDEST POP SWAP2 SWAP1 POP JUMP JUMPDEST PUSH0 DUP2 SWAP1 POP DUP2 PUSH0 MSTORE PUSH1 0x20 PUSH0 KECCAK256 SWAP1 POP SWAP2 SWAP1 POP JUMP JUMPDEST PUSH0 PUSH1 0x20 PUSH1 0x1F DUP4 ADD DIV SWAP1 POP SWAP2 SWAP1 POP JUMP JUMPDEST PUSH0 DUP3 DUP3 SHL SWAP1 POP SWAP3 SWAP2 POP POP JUMP JUMPDEST PUSH0 PUSH1 0x8 DUP4 MUL PUSH2 0x24A PUSH32 0xFFFFFFFFFFFFFFFFFFFFFFFFFFFFFFFFFFFFFFFFFFFFFFFFFFFFFFFFFFFFFFFF DUP3 PUSH2 0x20F JUMP JUMPDEST PUSH2 0x254 DUP7 DUP4 PUSH2 0x20F JUMP JUMPDEST SWAP6 POP DUP1 NOT DUP5 AND SWAP4 POP DUP1 DUP7 AND DUP5 OR SWAP3 POP POP POP SWAP4 SWAP3 POP POP POP JUMP JUMPDEST PUSH0 DUP2 SWAP1 POP SWAP2 SWAP1 POP JUMP JUMPDEST PUSH0 DUP2 SWAP1 POP SWAP2 SWAP1 POP JUMP JUMPDEST PUSH0 PUSH2 0x298 PUSH2 0x293 PUSH2 0x28E DUP5 PUSH2 0x26C JUMP JUMPDEST PUSH2 0x275 JUMP JUMPDEST PUSH2 0x26C JUMP JUMPDEST SWAP1 POP SWAP2 SWAP1 POP JUMP JUMPDEST PUSH0 DUP2 SWAP1 POP SWAP2 SWAP1 POP JUMP JUMPDEST PUSH2 0x2B1 DUP4 PUSH2 0x27E JUMP JUMPDEST PUSH2 0x2C5 PUSH2 0x2BD DUP3 PUSH2 0x29F JUMP JUMPDEST DUP5 DUP5 SLOAD PUSH2 0x21B JUMP JUMPDEST DUP3 SSTORE POP POP POP POP JUMP JUMPDEST PUSH0 SWAP1 JUMP JUMPDEST PUSH2 0x2D9 PUSH2 0x2CD JUMP JUMPDEST PUSH2 0x2E4 DUP2 DUP5 DUP5 PUSH2 0x2A8 JUMP JUMPDEST POP POP POP JUMP JUMPDEST JUMPDEST DUP2 DUP2 LT ISZERO PUSH2 0x307 JUMPI PUSH2 0x2FC PUSH0 DUP3 PUSH2 0x2D1 JUMP JUMPDEST PUSH1 0x1 DUP2 ADD SWAP1 POP PUSH2 0x2EA JUMP JUMPDEST POP POP JUMP JUMPDEST PUSH1 0x1F DUP3 GT ISZERO PUSH2 0x34C JUMPI PUSH2 0x31D DUP2 PUSH2 0x1EE JUMP JUMPDEST PUSH2 0x326 DUP5 PUSH2 0x200 JUMP JUMPDEST DUP2 ADD PUSH1 0x20 DUP6 LT ISZERO PUSH2 0x335 JUMPI DUP2 SWAP1 POP JUMPDEST PUSH2 0x349 PUSH2 0x341 DUP6 PUSH2 0x200 JUMP JUMPDEST DUP4 ADD DUP3 PUSH2 0x2E9 JUMP JUMPDEST POP POP JUMPDEST POP POP POP JUMP JUMPDEST PUSH0 DUP3 DUP3 SHR SWAP1 POP SWAP3 SWAP2 POP POP JUMP JUMPDEST PUSH0 PUSH2 0x36C PUSH0 NOT DUP5 PUSH1 0x8 MUL PUSH2 0x351 JUMP JUMPDEST NOT DUP1 DUP4 AND SWAP2 POP POP SWAP3 SWAP2 POP POP JUMP JUMPDEST PUSH0 PUSH2 0x384 DUP4 DUP4 PUSH2 0x35D JUMP JUMPDEST SWAP2 POP DUP3 PUSH1 0x2 MUL DUP3 OR SWAP1 POP SWAP3 SWAP2 POP POP JUMP JUMPDEST PUSH2 0x39D DUP3 PUSH2 0x15A JUMP JUMPDEST PUSH8 0xFFFFFFFFFFFFFFFF DUP2 GT ISZERO PUSH2 0x3B6 JUMPI PUSH2 0x3B5 PUSH2 0x164 JUMP JUMPDEST JUMPDEST PUSH2 0x3C0 DUP3 SLOAD PUSH2 0x1BE JUMP JUMPDEST PUSH2 0x3CB DUP3 DUP3 DUP6 PUSH2 0x30B JUMP JUMPDEST PUSH0 PUSH1 0x20 SWAP1 POP PUSH1 0x1F DUP4 GT PUSH1 0x1 DUP2 EQ PUSH2 0x3FC JUMPI PUSH0 DUP5 ISZERO PUSH2 0x3EA JUMPI DUP3 DUP8 ADD MLOAD SWAP1 POP JUMPDEST PUSH2 0x3F4 DUP6 DUP3 PUSH2 0x379 JUMP JUMPDEST DUP7 SSTORE POP PUSH2 0x45B JUMP JUMPDEST PUSH1 0x1F NOT DUP5 AND PUSH2 0x40A DUP7 PUSH2 0x1EE JUMP JUMPDEST PUSH0 JUMPDEST DUP3 DUP2 LT ISZERO PUSH2 0x431 JUMPI DUP5 DUP10 ADD MLOAD DUP3 SSTORE PUSH1 0x1 DUP3 ADD SWAP2 POP PUSH1 0x20 DUP6 ADD SWAP5 POP PUSH1 0x20 DUP2 ADD SWAP1 POP PUSH2 0x40C JUMP JUMPDEST DUP7 DUP4 LT ISZERO PUSH2 0x44E JUMPI DUP5 DUP10 ADD MLOAD PUSH2 0x44A PUSH1 0x1F DUP10 AND DUP3 PUSH2 0x35D JUMP JUMPDEST DUP4 SSTORE POP JUMPDEST PUSH1 0x1 PUSH1 0x2 DUP9 MUL ADD DUP9 SSTORE POP POP POP JUMPDEST POP POP POP POP POP POP JUMP JUMPDEST PUSH2 0x3447 DUP1 PUSH2 0x470 PUSH0 CODECOPY PUSH0 RETURN INVALID PUSH1 0x80 PUSH1 0x40 MSTORE CALLVALUE DUP1 ISZERO PUSH2 0xF JUMPI PUSH0 DUP1 REVERT JUMPDEST POP PUSH1 0x4 CALLDATASIZE LT PUSH2 0x1EE JUMPI PUSH0 CALLDATALOAD PUSH1 0xE0 SHR DUP1 PUSH4 0x715018A6 GT PUSH2 0x10D JUMPI DUP1 PUSH4 0xA8B9D240 GT PUSH2 0xA0 JUMPI DUP1 PUSH4 0xE30443BC GT PUSH2 0x6F JUMPI DUP1 PUSH4 0xE30443BC EQ PUSH2 0x606 JUMPI DUP1 PUSH4 0xEDE6AD9C EQ PUSH2 0x622 JUMPI DUP1 PUSH4 0xF2FDE38B EQ PUSH2 0x63E JUMPI DUP1 PUSH4 0xFBCBC0F1 EQ PUSH2 0x65A JUMPI PUSH2 0x1EE JUMP JUMPDEST DUP1 PUSH4 0xA8B9D240 EQ PUSH2 0x546 JUMPI DUP1 PUSH4 0xA9059CBB EQ PUSH2 0x576 JUMPI DUP1 PUSH4 0xAAFD847A EQ PUSH2 0x5A6 JUMPI DUP1 PUSH4 0xDD62ED3E EQ PUSH2 0x5D6 JUMPI PUSH2 0x1EE JUMP JUMPDEST DUP1 PUSH4 0x91B89FBA GT PUSH2 0xDC JUMPI DUP1 PUSH4 0x91B89FBA EQ PUSH2 0x4AA JUMPI DUP1 PUSH4 0x95D89B41 EQ PUSH2 0x4DA JUMPI DUP1 PUSH4 0x9E1E0661 EQ PUSH2 0x4F8 JUMPI DUP1 PUSH4 0xA457C2D7 EQ PUSH2 0x516 JUMPI PUSH2 0x1EE JUMP JUMPDEST DUP1 PUSH4 0x715018A6 EQ PUSH2 0x434 JUMPI DUP1 PUSH4 0x807AB4F7 EQ PUSH2 0x43E JUMPI DUP1 PUSH4 0x85A6B3AE EQ PUSH2 0x46E JUMPI DUP1 PUSH4 0x8DA5CB5B EQ PUSH2 0x48C JUMPI PUSH2 0x1EE JUMP JUMPDEST DUP1 PUSH4 0x313CE567 GT PUSH2 0x185 JUMPI DUP1 PUSH4 0x497EC823 GT PUSH2 0x154 JUMPI DUP1 PUSH4 0x497EC823 EQ PUSH2 0x3AE JUMPI DUP1 PUSH4 0x4E7B827F EQ PUSH2 0x3CA JUMPI DUP1 PUSH4 0x6A474002 EQ PUSH2 0x3FA JUMPI DUP1 PUSH4 0x70A08231 EQ PUSH2 0x404 JUMPI PUSH2 0x1EE JUMP JUMPDEST DUP1 PUSH4 0x313CE567 EQ PUSH2 0x328 JUMPI DUP1 PUSH4 0x39509351 EQ PUSH2 0x346 JUMPI DUP1 PUSH4 0x3B36A1D7 EQ PUSH2 0x376 JUMPI DUP1 PUSH4 0x44B6BD9E EQ PUSH2 0x392 JUMPI PUSH2 0x1EE JUMP JUMPDEST DUP1 PUSH4 0x18160DDD GT PUSH2 0x1C1 JUMPI DUP1 PUSH4 0x18160DDD EQ PUSH2 0x27A JUMPI DUP1 PUSH4 0x226CFA3D EQ PUSH2 0x298 JUMPI DUP1 PUSH4 0x23B872DD EQ PUSH2 0x2C8 JUMPI DUP1 PUSH4 0x27CE0147 EQ PUSH2 0x2F8 JUMPI PUSH2 0x1EE JUMP JUMPDEST DUP1 PUSH4 0x483F7A0 EQ PUSH2 0x1F2 JUMPI DUP1 PUSH4 0x6FDDE03 EQ PUSH2 0x20E JUMPI DUP1 PUSH4 0x95EA7B3 EQ PUSH2 0x22C JUMPI DUP1 PUSH4 0x1162C4B6 EQ PUSH2 0x25C JUMPI JUMPDEST PUSH0 DUP1 REVERT JUMPDEST PUSH2 0x20C PUSH1 0x4 DUP1 CALLDATASIZE SUB DUP2 ADD SWAP1 PUSH2 0x207 SWAP2 SWAP1 PUSH2 0x271A JUMP JUMPDEST PUSH2 0x68E JUMP JUMPDEST STOP JUMPDEST PUSH2 0x216 PUSH2 0x850 JUMP JUMPDEST PUSH1 0x40 MLOAD PUSH2 0x223 SWAP2 SWAP1 PUSH2 0x27C8 JUMP JUMPDEST PUSH1 0x40 MLOAD DUP1 SWAP2 SUB SWAP1 RETURN JUMPDEST PUSH2 0x246 PUSH1 0x4 DUP1 CALLDATASIZE SUB DUP2 ADD SWAP1 PUSH2 0x241 SWAP2 SWAP1 PUSH2 0x281B JUMP JUMPDEST PUSH2 0x8E0 JUMP JUMPDEST PUSH1 0x40 MLOAD PUSH2 0x253 SWAP2 SWAP1 PUSH2 0x2868 JUMP JUMPDEST PUSH1 0x40 MLOAD DUP1 SWAP2 SUB SWAP1 RETURN JUMPDEST PUSH2 0x264 PUSH2 0x8FD JUMP JUMPDEST PUSH1 0x40 MLOAD PUSH2 0x271 SWAP2 SWAP1 PUSH2 0x2890 JUMP JUMPDEST PUSH1 0x40 MLOAD DUP1 SWAP2 SUB SWAP1 RETURN JUMPDEST PUSH2 0x282 PUSH2 0x922 JUMP JUMPDEST PUSH1 0x40 MLOAD PUSH2 0x28F SWAP2 SWAP1 PUSH2 0x28B8 JUMP JUMPDEST PUSH1 0x40 MLOAD DUP1 SWAP2 SUB SWAP1 RETURN JUMPDEST PUSH2 0x2B2 PUSH1 0x4 DUP1 CALLDATASIZE SUB DUP2 ADD SWAP1 PUSH2 0x2AD SWAP2 SWAP1 PUSH2 0x28D1 JUMP JUMPDEST PUSH2 0x92B JUMP JUMPDEST PUSH1 0x40 MLOAD PUSH2 0x2BF SWAP2 SWAP1 PUSH2 0x28B8 JUMP JUMPDEST PUSH1 0x40 MLOAD DUP1 SWAP2 SUB SWAP1 RETURN JUMPDEST PUSH2 0x2E2 PUSH1 0x4 DUP1 CALLDATASIZE SUB DUP2 ADD SWAP1 PUSH2 0x2DD SWAP2 SWAP1 PUSH2 0x28FC JUMP JUMPDEST PUSH2 0x940 JUMP JUMPDEST PUSH1 0x40 MLOAD PUSH2 0x2EF SWAP2 SWAP1 PUSH2 0x2868 JUMP JUMPDEST PUSH1 0x40 MLOAD DUP1 SWAP2 SUB SWAP1 RETURN JUMPDEST PUSH2 0x312 PUSH1 0x4 DUP1 CALLDATASIZE SUB DUP2 ADD SWAP1 PUSH2 0x30D SWAP2 SWAP1 PUSH2 0x28D1 JUMP JUMPDEST PUSH2 0xA14 JUMP JUMPDEST PUSH1 0x40 MLOAD PUSH2 0x31F SWAP2 SWAP1 PUSH2 0x28B8 JUMP JUMPDEST PUSH1 0x40 MLOAD DUP1 SWAP2 SUB SWAP1 RETURN JUMPDEST PUSH2 0x330 PUSH2 0xAB4 JUMP JUMPDEST PUSH1 0x40 MLOAD PUSH2 0x33D SWAP2 SWAP1 PUSH2 0x2967 JUMP JUMPDEST PUSH1 0x40 MLOAD DUP1 SWAP2 SUB SWAP1 RETURN JUMPDEST PUSH2 0x360 PUSH1 0x4 DUP1 CALLDATASIZE SUB DUP2 ADD SWAP1 PUSH2 0x35B SWAP2 SWAP1 PUSH2 0x281B JUMP JUMPDEST PUSH2 0xABC JUMP JUMPDEST PUSH1 0x40 MLOAD PUSH2 0x36D SWAP2 SWAP1 PUSH2 0x2868 JUMP JUMPDEST PUSH1 0x40 MLOAD DUP1 SWAP2 SUB SWAP1 RETURN JUMPDEST PUSH2 0x390 PUSH1 0x4 DUP1 CALLDATASIZE SUB DUP2 ADD SWAP1 PUSH2 0x38B SWAP2 SWAP1 PUSH2 0x28D1 JUMP JUMPDEST PUSH2 0xB6A JUMP JUMPDEST STOP JUMPDEST PUSH2 0x3AC PUSH1 0x4 DUP1 CALLDATASIZE SUB DUP2 ADD SWAP1 PUSH2 0x3A7 SWAP2 SWAP1 PUSH2 0x28D1 JUMP JUMPDEST PUSH2 0xC31 JUMP JUMPDEST STOP JUMPDEST PUSH2 0x3C8 PUSH1 0x4 DUP1 CALLDATASIZE SUB DUP2 ADD SWAP1 PUSH2 0x3C3 SWAP2 SWAP1 PUSH2 0x2980 JUMP JUMPDEST PUSH2 0xD0A JUMP JUMPDEST STOP JUMPDEST PUSH2 0x3E4 PUSH1 0x4 DUP1 CALLDATASIZE SUB DUP2 ADD SWAP1 PUSH2 0x3DF SWAP2 SWAP1 PUSH2 0x28D1 JUMP JUMPDEST PUSH2 0xE97 JUMP JUMPDEST PUSH1 0x40 MLOAD PUSH2 0x3F1 SWAP2 SWAP1 PUSH2 0x2868 JUMP JUMPDEST PUSH1 0x40 MLOAD DUP1 SWAP2 SUB SWAP1 RETURN JUMPDEST PUSH2 0x402 PUSH2 0xEB4 JUMP JUMPDEST STOP JUMPDEST PUSH2 0x41E PUSH1 0x4 DUP1 CALLDATASIZE SUB DUP2 ADD SWAP1 PUSH2 0x419 SWAP2 SWAP1 PUSH2 0x28D1 JUMP JUMPDEST PUSH2 0xEC0 JUMP JUMPDEST PUSH1 0x40 MLOAD PUSH2 0x42B SWAP2 SWAP1 PUSH2 0x28B8 JUMP JUMPDEST PUSH1 0x40 MLOAD DUP1 SWAP2 SUB SWAP1 RETURN JUMPDEST PUSH2 0x43C PUSH2 0xF05 JUMP JUMPDEST STOP JUMPDEST PUSH2 0x458 PUSH1 0x4 DUP1 CALLDATASIZE SUB DUP2 ADD SWAP1 PUSH2 0x453 SWAP2 SWAP1 PUSH2 0x29F9 JUMP JUMPDEST PUSH2 0x1058 JUMP JUMPDEST PUSH1 0x40 MLOAD PUSH2 0x465 SWAP2 SWAP1 PUSH2 0x2868 JUMP JUMPDEST PUSH1 0x40 MLOAD DUP1 SWAP2 SUB SWAP1 RETURN JUMPDEST PUSH2 0x476 PUSH2 0x11A7 JUMP JUMPDEST PUSH1 0x40 MLOAD PUSH2 0x483 SWAP2 SWAP1 PUSH2 0x28B8 JUMP JUMPDEST PUSH1 0x40 MLOAD DUP1 SWAP2 SUB SWAP1 RETURN JUMPDEST PUSH2 0x494 PUSH2 0x11AD JUMP JUMPDEST PUSH1 0x40 MLOAD PUSH2 0x4A1 SWAP2 SWAP1 PUSH2 0x2890 JUMP JUMPDEST PUSH1 0x40 MLOAD DUP1 SWAP2 SUB SWAP1 RETURN JUMPDEST PUSH2 0x4C4 PUSH1 0x4 DUP1 CALLDATASIZE SUB DUP2 ADD SWAP1 PUSH2 0x4BF SWAP2 SWAP1 PUSH2 0x28D1 JUMP JUMPDEST PUSH2 0x11D5 JUMP JUMPDEST PUSH1 0x40 MLOAD PUSH2 0x4D1 SWAP2 SWAP1 PUSH2 0x28B8 JUMP JUMPDEST PUSH1 0x40 MLOAD DUP1 SWAP2 SUB SWAP1 RETURN JUMPDEST PUSH2 0x4E2 PUSH2 0x11E6 JUMP JUMPDEST PUSH1 0x40 MLOAD PUSH2 0x4EF SWAP2 SWAP1 PUSH2 0x27C8 JUMP JUMPDEST PUSH1 0x40 MLOAD DUP1 SWAP2 SUB SWAP1 RETURN JUMPDEST PUSH2 0x500 PUSH2 0x1276 JUMP JUMPDEST PUSH1 0x40 MLOAD PUSH2 0x50D SWAP2 SWAP1 PUSH2 0x28B8 JUMP JUMPDEST PUSH1 0x40 MLOAD DUP1 SWAP2 SUB SWAP1 RETURN JUMPDEST PUSH2 0x530 PUSH1 0x4 DUP1 CALLDATASIZE SUB DUP2 ADD SWAP1 PUSH2 0x52B SWAP2 SWAP1 PUSH2 0x281B JUMP JUMPDEST PUSH2 0x127C JUMP JUMPDEST PUSH1 0x40 MLOAD PUSH2 0x53D SWAP2 SWAP1 PUSH2 0x2868 JUMP JUMPDEST PUSH1 0x40 MLOAD DUP1 SWAP2 SUB SWAP1 RETURN JUMPDEST PUSH2 0x560 PUSH1 0x4 DUP1 CALLDATASIZE SUB DUP2 ADD SWAP1 PUSH2 0x55B SWAP2 SWAP1 PUSH2 0x28D1 JUMP JUMPDEST PUSH2 0x1344 JUMP JUMPDEST PUSH1 0x40 MLOAD PUSH2 0x56D SWAP2 SWAP1 PUSH2 0x28B8 JUMP JUMPDEST PUSH1 0x40 MLOAD DUP1 SWAP2 SUB SWAP1 RETURN JUMPDEST PUSH2 0x590 PUSH1 0x4 DUP1 CALLDATASIZE SUB DUP2 ADD SWAP1 PUSH2 0x58B SWAP2 SWAP1 PUSH2 0x281B JUMP JUMPDEST PUSH2 0x13A4 JUMP JUMPDEST PUSH1 0x40 MLOAD PUSH2 0x59D SWAP2 SWAP1 PUSH2 0x2868 JUMP JUMPDEST PUSH1 0x40 MLOAD DUP1 SWAP2 SUB SWAP1 RETURN JUMPDEST PUSH2 0x5C0 PUSH1 0x4 DUP1 CALLDATASIZE SUB DUP2 ADD SWAP1 PUSH2 0x5BB SWAP2 SWAP1 PUSH2 0x28D1 JUMP JUMPDEST PUSH2 0x13C1 JUMP JUMPDEST PUSH1 0x40 MLOAD PUSH2 0x5CD SWAP2 SWAP1 PUSH2 0x28B8 JUMP JUMPDEST PUSH1 0x40 MLOAD DUP1 SWAP2 SUB SWAP1 RETURN JUMPDEST PUSH2 0x5F0 PUSH1 0x4 DUP1 CALLDATASIZE SUB DUP2 ADD SWAP1 PUSH2 0x5EB SWAP2 SWAP1 PUSH2 0x2980 JUMP JUMPDEST PUSH2 0x1407 JUMP JUMPDEST PUSH1 0x40 MLOAD PUSH2 0x5FD SWAP2 SWAP1 PUSH2 0x28B8 JUMP JUMPDEST PUSH1 0x40 MLOAD DUP1 SWAP2 SUB SWAP1 RETURN JUMPDEST PUSH2 0x620 PUSH1 0x4 DUP1 CALLDATASIZE SUB DUP2 ADD SWAP1 PUSH2 0x61B SWAP2 SWAP1 PUSH2 0x281B JUMP JUMPDEST PUSH2 0x1489 JUMP JUMPDEST STOP JUMPDEST PUSH2 0x63C PUSH1 0x4 DUP1 CALLDATASIZE SUB DUP2 ADD SWAP1 PUSH2 0x637 SWAP2 SWAP1 PUSH2 0x2A24 JUMP JUMPDEST PUSH2 0x157C JUMP JUMPDEST STOP JUMPDEST PUSH2 0x658 PUSH1 0x4 DUP1 CALLDATASIZE SUB DUP2 ADD SWAP1 PUSH2 0x653 SWAP2 SWAP1 PUSH2 0x28D1 JUMP JUMPDEST PUSH2 0x16E9 JUMP JUMPDEST STOP JUMPDEST PUSH2 0x674 PUSH1 0x4 DUP1 CALLDATASIZE SUB DUP2 ADD SWAP1 PUSH2 0x66F SWAP2 SWAP1 PUSH2 0x28D1 JUMP JUMPDEST PUSH2 0x18AB JUMP JUMPDEST PUSH1 0x40 MLOAD PUSH2 0x685 SWAP6 SWAP5 SWAP4 SWAP3 SWAP2 SWAP1 PUSH2 0x2A4F JUMP JUMPDEST PUSH1 0x40 MLOAD DUP1 SWAP2 SUB SWAP1 RETURN JUMPDEST PUSH2 0x696 PUSH2 0x1984 JUMP JUMPDEST PUSH20 0xFFFFFFFFFFFFFFFFFFFFFFFFFFFFFFFFFFFFFFFF AND PUSH1 0x5 PUSH0 SWAP1 SLOAD SWAP1 PUSH2 0x100 EXP SWAP1 DIV PUSH20 0xFFFFFFFFFFFFFFFFFFFFFFFFFFFFFFFFFFFFFFFF AND PUSH20 0xFFFFFFFFFFFFFFFFFFFFFFFFFFFFFFFFFFFFFFFF AND EQ PUSH2 0x724 JUMPI PUSH1 0x40 MLOAD PUSH32 0x8C379A000000000000000000000000000000000000000000000000000000000 DUP2 MSTORE PUSH1 0x4 ADD PUSH2 0x71B SWAP1 PUSH2 0x2AEA JUMP JUMPDEST PUSH1 0x40 MLOAD DUP1 SWAP2 SUB SWAP1 REVERT JUMPDEST DUP1 ISZERO ISZERO PUSH1 0xC PUSH0 DUP5 PUSH20 0xFFFFFFFFFFFFFFFFFFFFFFFFFFFFFFFFFFFFFFFF AND PUSH20 0xFFFFFFFFFFFFFFFFFFFFFFFFFFFFFFFFFFFFFFFF AND DUP2 MSTORE PUSH1 0x20 ADD SWAP1 DUP2 MSTORE PUSH1 0x20 ADD PUSH0 KECCAK256 PUSH0 SWAP1 SLOAD SWAP1 PUSH2 0x100 EXP SWAP1 DIV PUSH1 0xFF AND ISZERO ISZERO SUB PUSH2 0x77C JUMPI PUSH0 DUP1 REVERT JUMPDEST DUP1 PUSH1 0xC PUSH0 DUP5 PUSH20 0xFFFFFFFFFFFFFFFFFFFFFFFFFFFFFFFFFFFFFFFF AND PUSH20 0xFFFFFFFFFFFFFFFFFFFFFFFFFFFFFFFFFFFFFFFF AND DUP2 MSTORE PUSH1 0x20 ADD SWAP1 DUP2 MSTORE PUSH1 0x20 ADD PUSH0 KECCAK256 PUSH0 PUSH2 0x100 EXP DUP2 SLOAD DUP2 PUSH1 0xFF MUL NOT AND SWAP1 DUP4 ISZERO ISZERO MUL OR SWAP1 SSTORE POP PUSH1 0x1 ISZERO ISZERO DUP2 ISZERO ISZERO SUB PUSH2 0x7EB JUMPI PUSH2 0x7E6 DUP3 PUSH0 PUSH2 0x198B JUMP JUMPDEST PUSH2 0x7FE JUMP JUMPDEST PUSH2 0x7FD DUP3 PUSH2 0x7F8 DUP5 PUSH2 0xEC0 JUMP JUMPDEST PUSH2 0x198B JUMP JUMPDEST JUMPDEST DUP2 PUSH20 0xFFFFFFFFFFFFFFFFFFFFFFFFFFFFFFFFFFFFFFFF AND PUSH32 0xA3C7C11B2E12C4144B09A7813F3393BA646392788638998C97BE8DA908CF04BE DUP3 PUSH1 0x40 MLOAD PUSH2 0x844 SWAP2 SWAP1 PUSH2 0x2868 JUMP JUMPDEST PUSH1 0x40 MLOAD DUP1 SWAP2 SUB SWAP1 LOG2 POP POP JUMP JUMPDEST PUSH1 0x60 PUSH1 0x3 DUP1 SLOAD PUSH2 0x85F SWAP1 PUSH2 0x2B35 JUMP JUMPDEST DUP1 PUSH1 0x1F ADD PUSH1 0x20 DUP1 SWAP2 DIV MUL PUSH1 0x20 ADD PUSH1 0x40 MLOAD SWAP1 DUP2 ADD PUSH1 0x40 MSTORE DUP1 SWAP3 SWAP2 SWAP1 DUP2 DUP2 MSTORE PUSH1 0x20 ADD DUP3 DUP1 SLOAD PUSH2 0x88B SWAP1 PUSH2 0x2B35 JUMP JUMPDEST DUP1 ISZERO PUSH2 0x8D6 JUMPI DUP1 PUSH1 0x1F LT PUSH2 0x8AD JUMPI PUSH2 0x100 DUP1 DUP4 SLOAD DIV MUL DUP4 MSTORE SWAP2 PUSH1 0x20 ADD SWAP2 PUSH2 0x8D6 JUMP JUMPDEST DUP3 ADD SWAP2 SWAP1 PUSH0 MSTORE PUSH1 0x20 PUSH0 KECCAK256 SWAP1 JUMPDEST DUP2 SLOAD DUP2 MSTORE SWAP1 PUSH1 0x1 ADD SWAP1 PUSH1 0x20 ADD DUP1 DUP4 GT PUSH2 0x8B9 JUMPI DUP3 SWAP1 SUB PUSH1 0x1F AND DUP3 ADD SWAP2 JUMPDEST POP POP POP POP POP SWAP1 POP SWAP1 JUMP JUMPDEST PUSH0 PUSH2 0x8F3 PUSH2 0x8EC PUSH2 0x1984 JUMP JUMPDEST DUP5 DUP5 PUSH2 0x19F5 JUMP JUMPDEST PUSH1 0x1 SWAP1 POP SWAP3 SWAP2 POP POP JUMP JUMPDEST PUSH1 0x6 PUSH0 SWAP1 SLOAD SWAP1 PUSH2 0x100 EXP SWAP1 DIV PUSH20 0xFFFFFFFFFFFFFFFFFFFFFFFFFFFFFFFFFFFFFFFF AND DUP2 JUMP JUMPDEST PUSH0 PUSH1 0x2 SLOAD SWAP1 POP SWAP1 JUMP JUMPDEST PUSH1 0xD PUSH1 0x20 MSTORE DUP1 PUSH0 MSTORE PUSH1 0x40 PUSH0 KECCAK256 PUSH0 SWAP2 POP SWAP1 POP SLOAD DUP2 JUMP JUMPDEST PUSH0 PUSH2 0x94C DUP5 DUP5 DUP5 PUSH2 0x1BB8 JUMP JUMPDEST PUSH2 0xA09 DUP5 PUSH2 0x958 PUSH2 0x1984 JUMP JUMPDEST PUSH2 0xA04 DUP6 PUSH1 0x40 MLOAD DUP1 PUSH1 0x60 ADD PUSH1 0x40 MSTORE DUP1 PUSH1 0x28 DUP2 MSTORE PUSH1 0x20 ADD PUSH2 0x33C5 PUSH1 0x28 SWAP2 CODECOPY PUSH1 0x1 PUSH0 DUP12 PUSH20 0xFFFFFFFFFFFFFFFFFFFFFFFFFFFFFFFFFFFFFFFF AND PUSH20 0xFFFFFFFFFFFFFFFFFFFFFFFFFFFFFFFFFFFFFFFF AND DUP2 MSTORE PUSH1 0x20 ADD SWAP1 DUP2 MSTORE PUSH1 0x20 ADD PUSH0 KECCAK256 PUSH0 PUSH2 0x9BB PUSH2 0x1984 JUMP JUMPDEST PUSH20 0xFFFFFFFFFFFFFFFFFFFFFFFFFFFFFFFFFFFFFFFF AND PUSH20 0xFFFFFFFFFFFFFFFFFFFFFFFFFFFFFFFFFFFFFFFF AND DUP2 MSTORE PUSH1 0x20 ADD SWAP1 DUP2 MSTORE PUSH1 0x20 ADD PUSH0 KECCAK256 SLOAD PUSH2 0x1BFD SWAP1 SWAP3 SWAP2 SWAP1 PUSH4 0xFFFFFFFF AND JUMP JUMPDEST PUSH2 0x19F5 JUMP JUMPDEST PUSH1 0x1 SWAP1 POP SWAP4 SWAP3 POP POP POP JUMP JUMPDEST PUSH0 PUSH17 0x100000000000000000000000000000000 PUSH2 0xAA3 PUSH2 0xA9E PUSH1 0x8 PUSH0 DUP7 PUSH20 0xFFFFFFFFFFFFFFFFFFFFFFFFFFFFFFFFFFFFFFFF AND PUSH20 0xFFFFFFFFFFFFFFFFFFFFFFFFFFFFFFFFFFFFFFFF AND DUP2 MSTORE PUSH1 0x20 ADD SWAP1 DUP2 MSTORE PUSH1 0x20 ADD PUSH0 KECCAK256 SLOAD PUSH2 0xA90 PUSH2 0xA8B PUSH2 0xA7A DUP9 PUSH2 0xEC0 JUMP JUMPDEST PUSH1 0x7 SLOAD PUSH2 0x1C5F SWAP1 SWAP2 SWAP1 PUSH4 0xFFFFFFFF AND JUMP JUMPDEST PUSH2 0x1CD6 JUMP JUMPDEST PUSH2 0x1CF0 SWAP1 SWAP2 SWAP1 PUSH4 0xFFFFFFFF AND JUMP JUMPDEST PUSH2 0x1D37 JUMP JUMPDEST PUSH2 0xAAD SWAP2 SWAP1 PUSH2 0x2BBF JUMP JUMPDEST SWAP1 POP SWAP2 SWAP1 POP JUMP JUMPDEST PUSH0 PUSH1 0x12 SWAP1 POP SWAP1 JUMP JUMPDEST PUSH0 PUSH2 0xB60 PUSH2 0xAC8 PUSH2 0x1984 JUMP JUMPDEST DUP5 PUSH2 0xB5B DUP6 PUSH1 0x1 PUSH0 PUSH2 0xAD8 PUSH2 0x1984 JUMP JUMPDEST PUSH20 0xFFFFFFFFFFFFFFFFFFFFFFFFFFFFFFFFFFFFFFFF AND PUSH20 0xFFFFFFFFFFFFFFFFFFFFFFFFFFFFFFFFFFFFFFFF AND DUP2 MSTORE PUSH1 0x20 ADD SWAP1 DUP2 MSTORE PUSH1 0x20 ADD PUSH0 KECCAK256 PUSH0 DUP10 PUSH20 0xFFFFFFFFFFFFFFFFFFFFFFFFFFFFFFFFFFFFFFFF AND PUSH20 0xFFFFFFFFFFFFFFFFFFFFFFFFFFFFFFFFFFFFFFFF AND DUP2 MSTORE PUSH1 0x20 ADD SWAP1 DUP2 MSTORE PUSH1 0x20 ADD PUSH0 KECCAK256 SLOAD PUSH2 0x1D4C SWAP1 SWAP2 SWAP1 PUSH4 0xFFFFFFFF AND JUMP JUMPDEST PUSH2 0x19F5 JUMP JUMPDEST PUSH1 0x1 SWAP1 POP SWAP3 SWAP2 POP POP JUMP JUMPDEST PUSH2 0xB72 PUSH2 0x1984 JUMP JUMPDEST PUSH20 0xFFFFFFFFFFFFFFFFFFFFFFFFFFFFFFFFFFFFFFFF AND PUSH1 0x5 PUSH0 SWAP1 SLOAD SWAP1 PUSH2 0x100 EXP SWAP1 DIV PUSH20 0xFFFFFFFFFFFFFFFFFFFFFFFFFFFFFFFFFFFFFFFF AND PUSH20 0xFFFFFFFFFFFFFFFFFFFFFFFFFFFFFFFFFFFFFFFF AND EQ PUSH2 0xC00 JUMPI PUSH1 0x40 MLOAD PUSH32 0x8C379A000000000000000000000000000000000000000000000000000000000 DUP2 MSTORE PUSH1 0x4 ADD PUSH2 0xBF7 SWAP1 PUSH2 0x2AEA JUMP JUMPDEST PUSH1 0x40 MLOAD DUP1 SWAP2 SUB SWAP1 REVERT JUMPDEST PUSH0 SELFBALANCE SWAP1 POP PUSH2 0xC2D DUP2 DUP4 PUSH20 0xFFFFFFFFFFFFFFFFFFFFFFFFFFFFFFFFFFFFFFFF AND PUSH2 0x1DA9 SWAP1 SWAP2 SWAP1 PUSH4 0xFFFFFFFF AND JUMP JUMPDEST POP POP JUMP JUMPDEST PUSH2 0xC39 PUSH2 0x1984 JUMP JUMPDEST PUSH20 0xFFFFFFFFFFFFFFFFFFFFFFFFFFFFFFFFFFFFFFFF AND PUSH1 0x5 PUSH0 SWAP1 SLOAD SWAP1 PUSH2 0x100 EXP SWAP1 DIV PUSH20 0xFFFFFFFFFFFFFFFFFFFFFFFFFFFFFFFFFFFFFFFF AND PUSH20 0xFFFFFFFFFFFFFFFFFFFFFFFFFFFFFFFFFFFFFFFF AND EQ PUSH2 0xCC7 JUMPI PUSH1 0x40 MLOAD PUSH32 0x8C379A000000000000000000000000000000000000000000000000000000000 DUP2 MSTORE PUSH1 0x4 ADD PUSH2 0xCBE SWAP1 PUSH2 0x2AEA JUMP JUMPDEST PUSH1 0x40 MLOAD DUP1 SWAP2 SUB SWAP1 REVERT JUMPDEST DUP1 PUSH1 0x6 PUSH0 PUSH2 0x100 EXP DUP2 SLOAD DUP2 PUSH20 0xFFFFFFFFFFFFFFFFFFFFFFFFFFFFFFFFFFFFFFFF MUL NOT AND SWAP1 DUP4 PUSH20 0xFFFFFFFFFFFFFFFFFFFFFFFFFFFFFFFFFFFFFFFF AND MUL OR SWAP1 SSTORE POP POP JUMP JUMPDEST PUSH2 0xD12 PUSH2 0x1984 JUMP JUMPDEST PUSH20 0xFFFFFFFFFFFFFFFFFFFFFFFFFFFFFFFFFFFFFFFF AND PUSH1 0x5 PUSH0 SWAP1 SLOAD SWAP1 PUSH2 0x100 EXP SWAP1 DIV PUSH20 0xFFFFFFFFFFFFFFFFFFFFFFFFFFFFFFFFFFFFFFFF AND PUSH20 0xFFFFFFFFFFFFFFFFFFFFFFFFFFFFFFFFFFFFFFFF AND EQ PUSH2 0xDA0 JUMPI PUSH1 0x40 MLOAD PUSH32 0x8C379A000000000000000000000000000000000000000000000000000000000 DUP2 MSTORE PUSH1 0x4 ADD PUSH2 0xD97 SWAP1 PUSH2 0x2AEA JUMP JUMPDEST PUSH1 0x40 MLOAD DUP1 SWAP2 SUB SWAP1 REVERT JUMPDEST DUP1 PUSH20 0xFFFFFFFFFFFFFFFFFFFFFFFFFFFFFFFFFFFFFFFF AND PUSH4 0xA9059CBB DUP4 DUP4 PUSH20 0xFFFFFFFFFFFFFFFFFFFFFFFFFFFFFFFFFFFFFFFF AND PUSH4 0x70A08231 ADDRESS PUSH1 0x40 MLOAD DUP3 PUSH4 0xFFFFFFFF AND PUSH1 0xE0 SHL DUP2 MSTORE PUSH1 0x4 ADD PUSH2 0xDF6 SWAP2 SWAP1 PUSH2 0x2890 JUMP JUMPDEST PUSH1 0x20 PUSH1 0x40 MLOAD DUP1 DUP4 SUB DUP2 DUP7 GAS STATICCALL ISZERO DUP1 ISZERO PUSH2 0xE11 JUMPI RETURNDATASIZE PUSH0 DUP1 RETURNDATACOPY RETURNDATASIZE PUSH0 REVERT JUMPDEST POP POP POP POP PUSH1 0x40 MLOAD RETURNDATASIZE PUSH1 0x1F NOT PUSH1 0x1F DUP3 ADD AND DUP3 ADD DUP1 PUSH1 0x40 MSTORE POP DUP2 ADD SWAP1 PUSH2 0xE35 SWAP2 SWAP1 PUSH2 0x2C03 JUMP JUMPDEST PUSH1 0x40 MLOAD DUP4 PUSH4 0xFFFFFFFF AND PUSH1 0xE0 SHL DUP2 MSTORE PUSH1 0x4 ADD PUSH2 0xE52 SWAP3 SWAP2 SWAP1 PUSH2 0x2C2E JUMP JUMPDEST PUSH1 0x20 PUSH1 0x40 MLOAD DUP1 DUP4 SUB DUP2 PUSH0 DUP8 GAS CALL ISZERO DUP1 ISZERO PUSH2 0xE6E JUMPI RETURNDATASIZE PUSH0 DUP1 RETURNDATACOPY RETURNDATASIZE PUSH0 REVERT JUMPDEST POP POP POP POP PUSH1 0x40 MLOAD RETURNDATASIZE PUSH1 0x1F NOT PUSH1 0x1F DUP3 ADD AND DUP3 ADD DUP1 PUSH1 0x40 MSTORE POP DUP2 ADD SWAP1 PUSH2 0xE92 SWAP2 SWAP1 PUSH2 0x2C69 JUMP JUMPDEST POP POP POP JUMP JUMPDEST PUSH1 0xC PUSH1 0x20 MSTORE DUP1 PUSH0 MSTORE PUSH1 0x40 PUSH0 KECCAK256 PUSH0 SWAP2 POP SLOAD SWAP1 PUSH2 0x100 EXP SWAP1 DIV PUSH1 0xFF AND DUP2 JUMP JUMPDEST PUSH2 0xEBD CALLER PUSH2 0x1E99 JUMP JUMPDEST POP JUMP JUMPDEST PUSH0 DUP1 PUSH0 DUP4 PUSH20 0xFFFFFFFFFFFFFFFFFFFFFFFFFFFFFFFFFFFFFFFF AND PUSH20 0xFFFFFFFFFFFFFFFFFFFFFFFFFFFFFFFFFFFFFFFF AND DUP2 MSTORE PUSH1 0x20 ADD SWAP1 DUP2 MSTORE PUSH1 0x20 ADD PUSH0 KECCAK256 SLOAD SWAP1 POP SWAP2 SWAP1 POP JUMP JUMPDEST PUSH2 0xF0D PUSH2 0x1984 JUMP JUMPDEST PUSH20 0xFFFFFFFFFFFFFFFFFFFFFFFFFFFFFFFFFFFFFFFF AND PUSH1 0x5 PUSH0 SWAP1 SLOAD SWAP1 PUSH2 0x100 EXP SWAP1 DIV PUSH20 0xFFFFFFFFFFFFFFFFFFFFFFFFFFFFFFFFFFFFFFFF AND PUSH20 0xFFFFFFFFFFFFFFFFFFFFFFFFFFFFFFFFFFFFFFFF AND EQ PUSH2 0xF9B JUMPI PUSH1 0x40 MLOAD PUSH32 0x8C379A000000000000000000000000000000000000000000000000000000000 DUP2 MSTORE PUSH1 0x4 ADD PUSH2 0xF92 SWAP1 PUSH2 0x2AEA JUMP JUMPDEST PUSH1 0x40 MLOAD DUP1 SWAP2 SUB SWAP1 REVERT JUMPDEST PUSH0 PUSH20 0xFFFFFFFFFFFFFFFFFFFFFFFFFFFFFFFFFFFFFFFF AND PUSH1 0x5 PUSH0 SWAP1 SLOAD SWAP1 PUSH2 0x100 EXP SWAP1 DIV PUSH20 0xFFFFFFFFFFFFFFFFFFFFFFFFFFFFFFFFFFFFFFFF AND PUSH20 0xFFFFFFFFFFFFFFFFFFFFFFFFFFFFFFFFFFFFFFFF AND PUSH32 0x8BE0079C531659141344CD1FD0A4F28419497F9722A3DAAFE3B4186F6B6457E0 PUSH1 0x40 MLOAD PUSH1 0x40 MLOAD DUP1 SWAP2 SUB SWAP1 LOG3 PUSH0 PUSH1 0x5 PUSH0 PUSH2 0x100 EXP DUP2 SLOAD DUP2 PUSH20 0xFFFFFFFFFFFFFFFFFFFFFFFFFFFFFFFFFFFFFFFF MUL NOT AND SWAP1 DUP4 PUSH20 0xFFFFFFFFFFFFFFFFFFFFFFFFFFFFFFFFFFFFFFFF AND MUL OR SWAP1 SSTORE POP JUMP JUMPDEST PUSH0 PUSH2 0x1061 PUSH2 0x1984 JUMP JUMPDEST PUSH20 0xFFFFFFFFFFFFFFFFFFFFFFFFFFFFFFFFFFFFFFFF AND PUSH1 0x5 PUSH0 SWAP1 SLOAD SWAP1 PUSH2 0x100 EXP SWAP1 DIV PUSH20 0xFFFFFFFFFFFFFFFFFFFFFFFFFFFFFFFFFFFFFFFF AND PUSH20 0xFFFFFFFFFFFFFFFFFFFFFFFFFFFFFFFFFFFFFFFF AND EQ PUSH2 0x10EF JUMPI PUSH1 0x40 MLOAD PUSH32 0x8C379A000000000000000000000000000000000000000000000000000000000 DUP2 MSTORE PUSH1 0x4 ADD PUSH2 0x10E6 SWAP1 PUSH2 0x2AEA JUMP JUMPDEST PUSH1 0x40 MLOAD DUP1 SWAP2 SUB SWAP1 REVERT JUMPDEST PUSH0 PUSH2 0x10F9 DUP4 PUSH2 0x1E99 JUMP JUMPDEST SWAP1 POP PUSH0 DUP2 GT ISZERO PUSH2 0x119D JUMPI TIMESTAMP PUSH1 0xD PUSH0 DUP6 PUSH20 0xFFFFFFFFFFFFFFFFFFFFFFFFFFFFFFFFFFFFFFFF AND PUSH20 0xFFFFFFFFFFFFFFFFFFFFFFFFFFFFFFFFFFFFFFFF AND DUP2 MSTORE PUSH1 0x20 ADD SWAP1 DUP2 MSTORE PUSH1 0x20 ADD PUSH0 KECCAK256 DUP2 SWAP1 SSTORE POP DUP3 PUSH20 0xFFFFFFFFFFFFFFFFFFFFFFFFFFFFFFFFFFFFFFFF AND PUSH32 0x47CEE97CB7ACD717B3C0AA1435D004CD5B3C8C57D70DBCEB4E4458BBD60E39D4 DUP3 PUSH1 0x40 MLOAD PUSH2 0x118B SWAP2 SWAP1 PUSH2 0x28B8 JUMP JUMPDEST PUSH1 0x40 MLOAD DUP1 SWAP2 SUB SWAP1 LOG2 PUSH1 0x1 SWAP2 POP POP PUSH2 0x11A2 JUMP JUMPDEST PUSH0 SWAP2 POP POP JUMPDEST SWAP2 SWAP1 POP JUMP JUMPDEST PUSH1 0xA SLOAD DUP2 JUMP JUMPDEST PUSH0 PUSH1 0x5 PUSH0 SWAP1 SLOAD SWAP1 PUSH2 0x100 EXP SWAP1 DIV PUSH20 0xFFFFFFFFFFFFFFFFFFFFFFFFFFFFFFFFFFFFFFFF AND SWAP1 POP SWAP1 JUMP JUMPDEST PUSH0 PUSH2 0x11DF DUP3 PUSH2 0x1344 JUMP JUMPDEST SWAP1 POP SWAP2 SWAP1 POP JUMP JUMPDEST PUSH1 0x60 PUSH1 0x4 DUP1 SLOAD PUSH2 0x11F5 SWAP1 PUSH2 0x2B35 JUMP JUMPDEST DUP1 PUSH1 0x1F ADD PUSH1 0x20 DUP1 SWAP2 DIV MUL PUSH1 0x20 ADD PUSH1 0x40 MLOAD SWAP1 DUP2 ADD PUSH1 0x40 MSTORE DUP1 SWAP3 SWAP2 SWAP1 DUP2 DUP2 MSTORE PUSH1 0x20 ADD DUP3 DUP1 SLOAD PUSH2 0x1221 SWAP1 PUSH2 0x2B35 JUMP JUMPDEST DUP1 ISZERO PUSH2 0x126C JUMPI DUP1 PUSH1 0x1F LT PUSH2 0x1243 JUMPI PUSH2 0x100 DUP1 DUP4 SLOAD DIV MUL DUP4 MSTORE SWAP2 PUSH1 0x20 ADD SWAP2 PUSH2 0x126C JUMP JUMPDEST DUP3 ADD SWAP2 SWAP1 PUSH0 MSTORE PUSH1 0x20 PUSH0 KECCAK256 SWAP1 JUMPDEST DUP2 SLOAD DUP2 MSTORE SWAP1 PUSH1 0x1 ADD SWAP1 PUSH1 0x20 ADD DUP1 DUP4 GT PUSH2 0x124F JUMPI DUP3 SWAP1 SUB PUSH1 0x1F AND DUP3 ADD SWAP2 JUMPDEST POP POP POP POP POP SWAP1 POP SWAP1 JUMP JUMPDEST PUSH1 0xB SLOAD DUP2 JUMP JUMPDEST PUSH0 PUSH2 0x133A PUSH2 0x1288 PUSH2 0x1984 JUMP JUMPDEST DUP5 PUSH2 0x1335 DUP6 PUSH1 0x40 MLOAD DUP1 PUSH1 0x60 ADD PUSH1 0x40 MSTORE DUP1 PUSH1 0x25 DUP2 MSTORE PUSH1 0x20 ADD PUSH2 0x33ED PUSH1 0x25 SWAP2 CODECOPY PUSH1 0x1 PUSH0 PUSH2 0x12B1 PUSH2 0x1984 JUMP JUMPDEST PUSH20 0xFFFFFFFFFFFFFFFFFFFFFFFFFFFFFFFFFFFFFFFF AND PUSH20 0xFFFFFFFFFFFFFFFFFFFFFFFFFFFFFFFFFFFFFFFF AND DUP2 MSTORE PUSH1 0x20 ADD SWAP1 DUP2 MSTORE PUSH1 0x20 ADD PUSH0 KECCAK256 PUSH0 DUP11 PUSH20 0xFFFFFFFFFFFFFFFFFFFFFFFFFFFFFFFFFFFFFFFF AND PUSH20 0xFFFFFFFFFFFFFFFFFFFFFFFFFFFFFFFFFFFFFFFF AND DUP2 MSTORE PUSH1 0x20 ADD SWAP1 DUP2 MSTORE PUSH1 0x20 ADD PUSH0 KECCAK256 SLOAD PUSH2 0x1BFD SWAP1 SWAP3 SWAP2 SWAP1 PUSH4 0xFFFFFFFF AND JUMP JUMPDEST PUSH2 0x19F5 JUMP JUMPDEST PUSH1 0x1 SWAP1 POP SWAP3 SWAP2 POP POP JUMP JUMPDEST PUSH0 PUSH2 0x139D PUSH1 0x9 PUSH0 DUP5 PUSH20 0xFFFFFFFFFFFFFFFFFFFFFFFFFFFFFFFFFFFFFFFF AND PUSH20 0xFFFFFFFFFFFFFFFFFFFFFFFFFFFFFFFFFFFFFFFF AND DUP2 MSTORE PUSH1 0x20 ADD SWAP1 DUP2 MSTORE PUSH1 0x20 ADD PUSH0 KECCAK256 SLOAD PUSH2 0x138F DUP5 PUSH2 0xA14 JUMP JUMPDEST PUSH2 0x2110 SWAP1 SWAP2 SWAP1 PUSH4 0xFFFFFFFF AND JUMP JUMPDEST SWAP1 POP SWAP2 SWAP1 POP JUMP JUMPDEST PUSH0 PUSH2 0x13B7 PUSH2 0x13B0 PUSH2 0x1984 JUMP JUMPDEST DUP5 DUP5 PUSH2 0x1BB8 JUMP JUMPDEST PUSH1 0x1 SWAP1 POP SWAP3 SWAP2 POP POP JUMP JUMPDEST PUSH0 PUSH1 0x9 PUSH0 DUP4 PUSH20 0xFFFFFFFFFFFFFFFFFFFFFFFFFFFFFFFFFFFFFFFF AND PUSH20 0xFFFFFFFFFFFFFFFFFFFFFFFFFFFFFFFFFFFFFFFF AND DUP2 MSTORE PUSH1 0x20 ADD SWAP1 DUP2 MSTORE PUSH1 0x20 ADD PUSH0 KECCAK256 SLOAD SWAP1 POP SWAP2 SWAP1 POP JUMP JUMPDEST PUSH0 PUSH1 0x1 PUSH0 DUP5 PUSH20 0xFFFFFFFFFFFFFFFFFFFFFFFFFFFFFFFFFFFFFFFF AND PUSH20 0xFFFFFFFFFFFFFFFFFFFFFFFFFFFFFFFFFFFFFFFF AND DUP2 MSTORE PUSH1 0x20 ADD SWAP1 DUP2 MSTORE PUSH1 0x20 ADD PUSH0 KECCAK256 PUSH0 DUP4 PUSH20 0xFFFFFFFFFFFFFFFFFFFFFFFFFFFFFFFFFFFFFFFF AND PUSH20 0xFFFFFFFFFFFFFFFFFFFFFFFFFFFFFFFFFFFFFFFF AND DUP2 MSTORE PUSH1 0x20 ADD SWAP1 DUP2 MSTORE PUSH1 0x20 ADD PUSH0 KECCAK256 SLOAD SWAP1 POP SWAP3 SWAP2 POP POP JUMP JUMPDEST PUSH2 0x1491 PUSH2 0x1984 JUMP JUMPDEST PUSH20 0xFFFFFFFFFFFFFFFFFFFFFFFFFFFFFFFFFFFFFFFF AND PUSH1 0x5 PUSH0 SWAP1 SLOAD SWAP1 PUSH2 0x100 EXP SWAP1 DIV PUSH20 0xFFFFFFFFFFFFFFFFFFFFFFFFFFFFFFFFFFFFFFFF AND PUSH20 0xFFFFFFFFFFFFFFFFFFFFFFFFFFFFFFFFFFFFFFFF AND EQ PUSH2 0x151F JUMPI PUSH1 0x40 MLOAD PUSH32 0x8C379A000000000000000000000000000000000000000000000000000000000 DUP2 MSTORE PUSH1 0x4 ADD PUSH2 0x1516 SWAP1 PUSH2 0x2AEA JUMP JUMPDEST PUSH1 0x40 MLOAD DUP1 SWAP2 SUB SWAP1 REVERT JUMPDEST PUSH1 0xC PUSH0 DUP4 PUSH20 0xFFFFFFFFFFFFFFFFFFFFFFFFFFFFFFFFFFFFFFFF AND PUSH20 0xFFFFFFFFFFFFFFFFFFFFFFFFFFFFFFFFFFFFFFFF AND DUP2 MSTORE PUSH1 0x20 ADD SWAP1 DUP2 MSTORE PUSH1 0x20 ADD PUSH0 KECCAK256 PUSH0 SWAP1 SLOAD SWAP1 PUSH2 0x100 EXP SWAP1 DIV PUSH1 0xFF AND PUSH2 0x1578 JUMPI PUSH2 0x1577 DUP3 DUP3 PUSH2 0x198B JUMP JUMPDEST JUMPDEST POP POP JUMP JUMPDEST PUSH2 0x1584 PUSH2 0x1984 JUMP JUMPDEST PUSH20 0xFFFFFFFFFFFFFFFFFFFFFFFFFFFFFFFFFFFFFFFF AND PUSH1 0x5 PUSH0 SWAP1 SLOAD SWAP1 PUSH2 0x100 EXP SWAP1 DIV PUSH20 0xFFFFFFFFFFFFFFFFFFFFFFFFFFFFFFFFFFFFFFFF AND PUSH20 0xFFFFFFFFFFFFFFFFFFFFFFFFFFFFFFFFFFFFFFFF AND EQ PUSH2 0x1612 JUMPI PUSH1 0x40 MLOAD PUSH32 0x8C379A000000000000000000000000000000000000000000000000000000000 DUP2 MSTORE PUSH1 0x4 ADD PUSH2 0x1609 SWAP1 PUSH2 0x2AEA JUMP JUMPDEST PUSH1 0x40 MLOAD DUP1 SWAP2 SUB SWAP1 REVERT JUMPDEST PUSH0 PUSH2 0x161B PUSH2 0x922 JUMP JUMPDEST GT PUSH2 0x1624 JUMPI PUSH0 DUP1 REVERT JUMPDEST PUSH0 DUP2 GT ISZERO PUSH2 0x16E6 JUMPI PUSH2 0x1676 PUSH2 0x1637 PUSH2 0x922 JUMP JUMPDEST PUSH2 0x165B PUSH17 0x100000000000000000000000000000000 DUP5 PUSH2 0x1C5F SWAP1 SWAP2 SWAP1 PUSH4 0xFFFFFFFF AND JUMP JUMPDEST PUSH2 0x1665 SWAP2 SWAP1 PUSH2 0x2BBF JUMP JUMPDEST PUSH1 0x7 SLOAD PUSH2 0x1D4C SWAP1 SWAP2 SWAP1 PUSH4 0xFFFFFFFF AND JUMP JUMPDEST PUSH1 0x7 DUP2 SWAP1 SSTORE POP CALLER PUSH20 0xFFFFFFFFFFFFFFFFFFFFFFFFFFFFFFFFFFFFFFFF AND PUSH32 0xA493A9229478C3FCD73F66D2CDEB7F94FD0F341DA924D1054236D78454116511 DUP3 PUSH1 0x40 MLOAD PUSH2 0x16C2 SWAP2 SWAP1 PUSH2 0x28B8 JUMP JUMPDEST PUSH1 0x40 MLOAD DUP1 SWAP2 SUB SWAP1 LOG2 PUSH2 0x16DF DUP2 PUSH1 0xA SLOAD PUSH2 0x1D4C SWAP1 SWAP2 SWAP1 PUSH4 0xFFFFFFFF AND JUMP JUMPDEST PUSH1 0xA DUP2 SWAP1 SSTORE POP JUMPDEST POP JUMP JUMPDEST PUSH2 0x16F1 PUSH2 0x1984 JUMP JUMPDEST PUSH20 0xFFFFFFFFFFFFFFFFFFFFFFFFFFFFFFFFFFFFFFFF AND PUSH1 0x5 PUSH0 SWAP1 SLOAD SWAP1 PUSH2 0x100 EXP SWAP1 DIV PUSH20 0xFFFFFFFFFFFFFFFFFFFFFFFFFFFFFFFFFFFFFFFF AND PUSH20 0xFFFFFFFFFFFFFFFFFFFFFFFFFFFFFFFFFFFFFFFF AND EQ PUSH2 0x177F JUMPI PUSH1 0x40 MLOAD PUSH32 0x8C379A000000000000000000000000000000000000000000000000000000000 DUP2 MSTORE PUSH1 0x4 ADD PUSH2 0x1776 SWAP1 PUSH2 0x2AEA JUMP JUMPDEST PUSH1 0x40 MLOAD DUP1 SWAP2 SUB SWAP1 REVERT JUMPDEST PUSH0 PUSH20 0xFFFFFFFFFFFFFFFFFFFFFFFFFFFFFFFFFFFFFFFF AND DUP2 PUSH20 0xFFFFFFFFFFFFFFFFFFFFFFFFFFFFFFFFFFFFFFFF AND SUB PUSH2 0x17ED JUMPI PUSH1 0x40 MLOAD PUSH32 0x8C379A000000000000000000000000000000000000000000000000000000000 DUP2 MSTORE PUSH1 0x4 ADD PUSH2 0x17E4 SWAP1 PUSH2 0x2D04 JUMP JUMPDEST PUSH1 0x40 MLOAD DUP1 SWAP2 SUB SWAP1 REVERT JUMPDEST DUP1 PUSH20 0xFFFFFFFFFFFFFFFFFFFFFFFFFFFFFFFFFFFFFFFF AND PUSH1 0x5 PUSH0 SWAP1 SLOAD SWAP1 PUSH2 0x100 EXP SWAP1 DIV PUSH20 0xFFFFFFFFFFFFFFFFFFFFFFFFFFFFFFFFFFFFFFFF AND PUSH20 0xFFFFFFFFFFFFFFFFFFFFFFFFFFFFFFFFFFFFFFFF AND PUSH32 0x8BE0079C531659141344CD1FD0A4F28419497F9722A3DAAFE3B4186F6B6457E0 PUSH1 0x40 MLOAD PUSH1 0x40 MLOAD DUP1 SWAP2 SUB SWAP1 LOG3 DUP1 PUSH1 0x5 PUSH0 PUSH2 0x100 EXP DUP2 SLOAD DUP2 PUSH20 0xFFFFFFFFFFFFFFFFFFFFFFFFFFFFFFFFFFFFFFFF MUL NOT AND SWAP1 DUP4 PUSH20 0xFFFFFFFFFFFFFFFFFFFFFFFFFFFFFFFFFFFFFFFF AND MUL OR SWAP1 SSTORE POP POP JUMP JUMPDEST PUSH0 DUP1 PUSH0 DUP1 PUSH0 PUSH2 0x18B8 PUSH2 0x264D JUMP JUMPDEST DUP7 DUP2 PUSH0 ADD SWAP1 PUSH20 0xFFFFFFFFFFFFFFFFFFFFFFFFFFFFFFFFFFFFFFFF AND SWAP1 DUP2 PUSH20 0xFFFFFFFFFFFFFFFFFFFFFFFFFFFFFFFFFFFFFFFF AND DUP2 MSTORE POP POP PUSH2 0x18F8 DUP8 PUSH2 0x1344 JUMP JUMPDEST DUP2 PUSH1 0x20 ADD DUP2 DUP2 MSTORE POP POP PUSH2 0x190A DUP8 PUSH2 0xA14 JUMP JUMPDEST DUP2 PUSH1 0x40 ADD DUP2 DUP2 MSTORE POP POP PUSH1 0xD PUSH0 DUP9 PUSH20 0xFFFFFFFFFFFFFFFFFFFFFFFFFFFFFFFFFFFFFFFF AND PUSH20 0xFFFFFFFFFFFFFFFFFFFFFFFFFFFFFFFFFFFFFFFF AND DUP2 MSTORE PUSH1 0x20 ADD SWAP1 DUP2 MSTORE PUSH1 0x20 ADD PUSH0 KECCAK256 SLOAD DUP2 PUSH1 0x60 ADD DUP2 DUP2 MSTORE POP POP DUP1 PUSH0 ADD MLOAD DUP2 PUSH1 0x20 ADD MLOAD DUP3 PUSH1 0x40 ADD MLOAD DUP4 PUSH1 0x60 ADD MLOAD PUSH1 0xB SLOAD SWAP6 POP SWAP6 POP SWAP6 POP SWAP6 POP SWAP6 POP POP SWAP2 SWAP4 SWAP6 SWAP1 SWAP3 SWAP5 POP JUMP JUMPDEST PUSH0 CALLER SWAP1 POP SWAP1 JUMP JUMPDEST PUSH0 PUSH2 0x1995 DUP4 PUSH2 0xEC0 JUMP JUMPDEST SWAP1 POP DUP1 DUP3 GT ISZERO PUSH2 0x19C5 JUMPI PUSH0 PUSH2 0x19B3 DUP3 DUP5 PUSH2 0x2110 SWAP1 SWAP2 SWAP1 PUSH4 0xFFFFFFFF AND JUMP JUMPDEST SWAP1 POP PUSH2 0x19BF DUP5 DUP3 PUSH2 0x2159 JUMP JUMPDEST POP PUSH2 0x19F0 JUMP JUMPDEST DUP1 DUP3 LT ISZERO PUSH2 0x19EF JUMPI PUSH0 PUSH2 0x19E1 DUP4 DUP4 PUSH2 0x2110 SWAP1 SWAP2 SWAP1 PUSH4 0xFFFFFFFF AND JUMP JUMPDEST SWAP1 POP PUSH2 0x19ED DUP5 DUP3 PUSH2 0x2214 JUMP JUMPDEST POP JUMPDEST JUMPDEST POP POP POP JUMP JUMPDEST PUSH0 PUSH20 0xFFFFFFFFFFFFFFFFFFFFFFFFFFFFFFFFFFFFFFFF AND DUP4 PUSH20 0xFFFFFFFFFFFFFFFFFFFFFFFFFFFFFFFFFFFFFFFF AND SUB PUSH2 0x1A63 JUMPI PUSH1 0x40 MLOAD PUSH32 0x8C379A000000000000000000000000000000000000000000000000000000000 DUP2 MSTORE PUSH1 0x4 ADD PUSH2 0x1A5A SWAP1 PUSH2 0x2D92 JUMP JUMPDEST PUSH1 0x40 MLOAD DUP1 SWAP2 SUB SWAP1 REVERT JUMPDEST PUSH0 PUSH20 0xFFFFFFFFFFFFFFFFFFFFFFFFFFFFFFFFFFFFFFFF AND DUP3 PUSH20 0xFFFFFFFFFFFFFFFFFFFFFFFFFFFFFFFFFFFFFFFF AND SUB PUSH2 0x1AD1 JUMPI PUSH1 0x40 MLOAD PUSH32 0x8C379A000000000000000000000000000000000000000000000000000000000 DUP2 MSTORE PUSH1 0x4 ADD PUSH2 0x1AC8 SWAP1 PUSH2 0x2E20 JUMP JUMPDEST PUSH1 0x40 MLOAD DUP1 SWAP2 SUB SWAP1 REVERT JUMPDEST DUP1 PUSH1 0x1 PUSH0 DUP6 PUSH20 0xFFFFFFFFFFFFFFFFFFFFFFFFFFFFFFFFFFFFFFFF AND PUSH20 0xFFFFFFFFFFFFFFFFFFFFFFFFFFFFFFFFFFFFFFFF AND DUP2 MSTORE PUSH1 0x20 ADD SWAP1 DUP2 MSTORE PUSH1 0x20 ADD PUSH0 KECCAK256 PUSH0 DUP5 PUSH20 0xFFFFFFFFFFFFFFFFFFFFFFFFFFFFFFFFFFFFFFFF AND PUSH20 0xFFFFFFFFFFFFFFFFFFFFFFFFFFFFFFFFFFFFFFFF AND DUP2 MSTORE PUSH1 0x20 ADD SWAP1 DUP2 MSTORE PUSH1 0x20 ADD PUSH0 KECCAK256 DUP2 SWAP1 SSTORE POP DUP2 PUSH20 0xFFFFFFFFFFFFFFFFFFFFFFFFFFFFFFFFFFFFFFFF AND DUP4 PUSH20 0xFFFFFFFFFFFFFFFFFFFFFFFFFFFFFFFFFFFFFFFF AND PUSH32 0x8C5BE1E5EBEC7D5BD14F71427D1E84F3DD0314C0F7B2291E5B200AC8C7C3B925 DUP4 PUSH1 0x40 MLOAD PUSH2 0x1BAB SWAP2 SWAP1 PUSH2 0x28B8 JUMP JUMPDEST PUSH1 0x40 MLOAD DUP1 SWAP2 SUB SWAP1 LOG3 POP POP POP JUMP JUMPDEST PUSH0 PUSH2 0x1BF8 JUMPI PUSH1 0x40 MLOAD PUSH32 0x8C379A000000000000000000000000000000000000000000000000000000000 DUP2 MSTORE PUSH1 0x4 ADD PUSH2 0x1BEF SWAP1 PUSH2 0x2EAE JUMP JUMPDEST PUSH1 0x40 MLOAD DUP1 SWAP2 SUB SWAP1 REVERT JUMPDEST POP POP POP JUMP JUMPDEST PUSH0 DUP4 DUP4 GT ISZERO DUP3 SWAP1 PUSH2 0x1C44 JUMPI PUSH1 0x40 MLOAD PUSH32 0x8C379A000000000000000000000000000000000000000000000000000000000 DUP2 MSTORE PUSH1 0x4 ADD PUSH2 0x1C3B SWAP2 SWAP1 PUSH2 0x27C8 JUMP JUMPDEST PUSH1 0x40 MLOAD DUP1 SWAP2 SUB SWAP1 REVERT JUMPDEST POP PUSH0 DUP4 DUP6 PUSH2 0x1C52 SWAP2 SWAP1 PUSH2 0x2ECC JUMP JUMPDEST SWAP1 POP DUP1 SWAP2 POP POP SWAP4 SWAP3 POP POP POP JUMP JUMPDEST PUSH0 DUP1 DUP4 SUB PUSH2 0x1C6F JUMPI PUSH0 SWAP1 POP PUSH2 0x1CD0 JUMP JUMPDEST PUSH0 DUP3 DUP5 PUSH2 0x1C7C SWAP2 SWAP1 PUSH2 0x2EFF JUMP JUMPDEST SWAP1 POP DUP3 DUP5 DUP3 PUSH2 0x1C8B SWAP2 SWAP1 PUSH2 0x2BBF JUMP JUMPDEST EQ PUSH2 0x1CCB JUMPI PUSH1 0x40 MLOAD PUSH32 0x8C379A000000000000000000000000000000000000000000000000000000000 DUP2 MSTORE PUSH1 0x4 ADD PUSH2 0x1CC2 SWAP1 PUSH2 0x2FB0 JUMP JUMPDEST PUSH1 0x40 MLOAD DUP1 SWAP2 SUB SWAP1 REVERT JUMPDEST DUP1 SWAP2 POP POP JUMPDEST SWAP3 SWAP2 POP POP JUMP JUMPDEST PUSH0 DUP1 DUP3 SWAP1 POP PUSH0 DUP2 SLT ISZERO PUSH2 0x1CE7 JUMPI PUSH0 DUP1 REVERT JUMPDEST DUP1 SWAP2 POP POP SWAP2 SWAP1 POP JUMP JUMPDEST PUSH0 DUP1 DUP3 DUP5 PUSH2 0x1CFE SWAP2 SWAP1 PUSH2 0x2FD7 JUMP JUMPDEST SWAP1 POP PUSH0 DUP4 SLT ISZERO DUP1 ISZERO PUSH2 0x1D10 JUMPI POP DUP4 DUP2 SLT ISZERO JUMPDEST DUP1 PUSH2 0x1D25 JUMPI POP PUSH0 DUP4 SLT DUP1 ISZERO PUSH2 0x1D24 JUMPI POP DUP4 DUP2 SLT JUMPDEST JUMPDEST PUSH2 0x1D2D JUMPI PUSH0 DUP1 REVERT JUMPDEST DUP1 SWAP2 POP POP SWAP3 SWAP2 POP POP JUMP JUMPDEST PUSH0 DUP1 DUP3 SLT ISZERO PUSH2 0x1D44 JUMPI PUSH0 DUP1 REVERT JUMPDEST DUP2 SWAP1 POP SWAP2 SWAP1 POP JUMP JUMPDEST PUSH0 DUP1 DUP3 DUP5 PUSH2 0x1D5A SWAP2 SWAP1 PUSH2 0x3018 JUMP JUMPDEST SWAP1 POP DUP4 DUP2 LT ISZERO PUSH2 0x1D9F JUMPI PUSH1 0x40 MLOAD PUSH32 0x8C379A000000000000000000000000000000000000000000000000000000000 DUP2 MSTORE PUSH1 0x4 ADD PUSH2 0x1D96 SWAP1 PUSH2 0x3095 JUMP JUMPDEST PUSH1 0x40 MLOAD DUP1 SWAP2 SUB SWAP1 REVERT JUMPDEST DUP1 SWAP2 POP POP SWAP3 SWAP2 POP POP JUMP JUMPDEST DUP1 SELFBALANCE LT ISZERO PUSH2 0x1DEC JUMPI PUSH1 0x40 MLOAD PUSH32 0x8C379A000000000000000000000000000000000000000000000000000000000 DUP2 MSTORE PUSH1 0x4 ADD PUSH2 0x1DE3 SWAP1 PUSH2 0x30FD JUMP JUMPDEST PUSH1 0x40 MLOAD DUP1 SWAP2 SUB SWAP1 REVERT JUMPDEST PUSH0 DUP3 PUSH20 0xFFFFFFFFFFFFFFFFFFFFFFFFFFFFFFFFFFFFFFFF AND DUP3 PUSH1 0x40 MLOAD PUSH2 0x1E11 SWAP1 PUSH2 0x3148 JUMP JUMPDEST PUSH0 PUSH1 0x40 MLOAD DUP1 DUP4 SUB DUP2 DUP6 DUP8 GAS CALL SWAP3 POP POP POP RETURNDATASIZE DUP1 PUSH0 DUP2 EQ PUSH2 0x1E4B JUMPI PUSH1 0x40 MLOAD SWAP2 POP PUSH1 0x1F NOT PUSH1 0x3F RETURNDATASIZE ADD AND DUP3 ADD PUSH1 0x40 MSTORE RETURNDATASIZE DUP3 MSTORE RETURNDATASIZE PUSH0 PUSH1 0x20 DUP5 ADD RETURNDATACOPY PUSH2 0x1E50 JUMP JUMPDEST PUSH1 0x60 SWAP2 POP JUMPDEST POP POP SWAP1 POP DUP1 PUSH2 0x1E94 JUMPI PUSH1 0x40 MLOAD PUSH32 0x8C379A000000000000000000000000000000000000000000000000000000000 DUP2 MSTORE PUSH1 0x4 ADD PUSH2 0x1E8B SWAP1 PUSH2 0x31CC JUMP JUMPDEST PUSH1 0x40 MLOAD DUP1 SWAP2 SUB SWAP1 REVERT JUMPDEST POP POP POP JUMP JUMPDEST PUSH0 DUP1 PUSH2 0x1EA4 DUP4 PUSH2 0x1344 JUMP JUMPDEST SWAP1 POP PUSH0 DUP2 GT ISZERO PUSH2 0x2106 JUMPI PUSH2 0x1EFE DUP2 PUSH1 0x9 PUSH0 DUP7 PUSH20 0xFFFFFFFFFFFFFFFFFFFFFFFFFFFFFFFFFFFFFFFF AND PUSH20 0xFFFFFFFFFFFFFFFFFFFFFFFFFFFFFFFFFFFFFFFF AND DUP2 MSTORE PUSH1 0x20 ADD SWAP1 DUP2 MSTORE PUSH1 0x20 ADD PUSH0 KECCAK256 SLOAD PUSH2 0x1D4C SWAP1 SWAP2 SWAP1 PUSH4 0xFFFFFFFF AND JUMP JUMPDEST PUSH1 0x9 PUSH0 DUP6 PUSH20 0xFFFFFFFFFFFFFFFFFFFFFFFFFFFFFFFFFFFFFFFF AND PUSH20 0xFFFFFFFFFFFFFFFFFFFFFFFFFFFFFFFFFFFFFFFF AND DUP2 MSTORE PUSH1 0x20 ADD SWAP1 DUP2 MSTORE PUSH1 0x20 ADD PUSH0 KECCAK256 DUP2 SWAP1 SSTORE POP DUP1 PUSH1 0xB PUSH0 DUP3 DUP3 SLOAD PUSH2 0x1F50 SWAP2 SWAP1 PUSH2 0x3018 JUMP JUMPDEST SWAP3 POP POP DUP2 SWAP1 SSTORE POP DUP3 PUSH20 0xFFFFFFFFFFFFFFFFFFFFFFFFFFFFFFFFFFFFFFFF AND PUSH32 0xEE503BEE2BB6A87E57BC57DB795F98137327401A0E7B7CE42E37926CC1A9CA4D DUP3 PUSH1 0x40 MLOAD PUSH2 0x1F9D SWAP2 SWAP1 PUSH2 0x28B8 JUMP JUMPDEST PUSH1 0x40 MLOAD DUP1 SWAP2 SUB SWAP1 LOG2 PUSH0 PUSH1 0x6 PUSH0 SWAP1 SLOAD SWAP1 PUSH2 0x100 EXP SWAP1 DIV PUSH20 0xFFFFFFFFFFFFFFFFFFFFFFFFFFFFFFFFFFFFFFFF AND PUSH20 0xFFFFFFFFFFFFFFFFFFFFFFFFFFFFFFFFFFFFFFFF AND PUSH4 0xA9059CBB DUP6 DUP5 PUSH1 0x40 MLOAD DUP4 PUSH4 0xFFFFFFFF AND PUSH1 0xE0 SHL DUP2 MSTORE PUSH1 0x4 ADD PUSH2 0x2002 SWAP3 SWAP2 SWAP1 PUSH2 0x3245 JUMP JUMPDEST PUSH1 0x20 PUSH1 0x40 MLOAD DUP1 DUP4 SUB DUP2 PUSH0 DUP8 GAS CALL ISZERO DUP1 ISZERO PUSH2 0x201E JUMPI RETURNDATASIZE PUSH0 DUP1 RETURNDATACOPY RETURNDATASIZE PUSH0 REVERT JUMPDEST POP POP POP POP PUSH1 0x40 MLOAD RETURNDATASIZE PUSH1 0x1F NOT PUSH1 0x1F DUP3 ADD AND DUP3 ADD DUP1 PUSH1 0x40 MSTORE POP DUP2 ADD SWAP1 PUSH2 0x2042 SWAP2 SWAP1 PUSH2 0x2C69 JUMP JUMPDEST SWAP1 POP DUP1 PUSH2 0x20FC JUMPI PUSH2 0x2099 DUP3 PUSH1 0x9 PUSH0 DUP8 PUSH20 0xFFFFFFFFFFFFFFFFFFFFFFFFFFFFFFFFFFFFFFFF AND PUSH20 0xFFFFFFFFFFFFFFFFFFFFFFFFFFFFFFFFFFFFFFFF AND DUP2 MSTORE PUSH1 0x20 ADD SWAP1 DUP2 MSTORE PUSH1 0x20 ADD PUSH0 KECCAK256 SLOAD PUSH2 0x2110 SWAP1 SWAP2 SWAP1 PUSH4 0xFFFFFFFF AND JUMP JUMPDEST PUSH1 0x9 PUSH0 DUP7 PUSH20 0xFFFFFFFFFFFFFFFFFFFFFFFFFFFFFFFFFFFFFFFF AND PUSH20 0xFFFFFFFFFFFFFFFFFFFFFFFFFFFFFFFFFFFFFFFF AND DUP2 MSTORE PUSH1 0x20 ADD SWAP1 DUP2 MSTORE PUSH1 0x20 ADD PUSH0 KECCAK256 DUP2 SWAP1 SSTORE POP DUP2 PUSH1 0xB PUSH0 DUP3 DUP3 SLOAD PUSH2 0x20EB SWAP2 SWAP1 PUSH2 0x2ECC JUMP JUMPDEST SWAP3 POP POP DUP2 SWAP1 SSTORE POP PUSH0 SWAP3 POP POP POP PUSH2 0x210B JUMP JUMPDEST DUP2 SWAP3 POP POP POP PUSH2 0x210B JUMP JUMPDEST PUSH0 SWAP2 POP POP JUMPDEST SWAP2 SWAP1 POP JUMP JUMPDEST PUSH0 PUSH2 0x2151 DUP4 DUP4 PUSH1 0x40 MLOAD DUP1 PUSH1 0x40 ADD PUSH1 0x40 MSTORE DUP1 PUSH1 0x1E DUP2 MSTORE PUSH1 0x20 ADD PUSH32 0x536166654D6174683A207375627472616374696F6E206F766572666C6F770000 DUP2 MSTORE POP PUSH2 0x1BFD JUMP JUMPDEST SWAP1 POP SWAP3 SWAP2 POP POP JUMP JUMPDEST PUSH2 0x2163 DUP3 DUP3 PUSH2 0x22CF JUMP JUMPDEST PUSH2 0x21CF PUSH2 0x2183 PUSH2 0x217E DUP4 PUSH1 0x7 SLOAD PUSH2 0x1C5F SWAP1 SWAP2 SWAP1 PUSH4 0xFFFFFFFF AND JUMP JUMPDEST PUSH2 0x1CD6 JUMP JUMPDEST PUSH1 0x8 PUSH0 DUP6 PUSH20 0xFFFFFFFFFFFFFFFFFFFFFFFFFFFFFFFFFFFFFFFF AND PUSH20 0xFFFFFFFFFFFFFFFFFFFFFFFFFFFFFFFFFFFFFFFF AND DUP2 MSTORE PUSH1 0x20 ADD SWAP1 DUP2 MSTORE PUSH1 0x20 ADD PUSH0 KECCAK256 SLOAD PUSH2 0x245B SWAP1 SWAP2 SWAP1 PUSH4 0xFFFFFFFF AND JUMP JUMPDEST PUSH1 0x8 PUSH0 DUP5 PUSH20 0xFFFFFFFFFFFFFFFFFFFFFFFFFFFFFFFFFFFFFFFF AND PUSH20 0xFFFFFFFFFFFFFFFFFFFFFFFFFFFFFFFFFFFFFFFF AND DUP2 MSTORE PUSH1 0x20 ADD SWAP1 DUP2 MSTORE PUSH1 0x20 ADD PUSH0 KECCAK256 DUP2 SWAP1 SSTORE POP POP POP JUMP JUMPDEST PUSH2 0x221E DUP3 DUP3 PUSH2 0x24A2 JUMP JUMPDEST PUSH2 0x228A PUSH2 0x223E PUSH2 0x2239 DUP4 PUSH1 0x7 SLOAD PUSH2 0x1C5F SWAP1 SWAP2 SWAP1 PUSH4 0xFFFFFFFF AND JUMP JUMPDEST PUSH2 0x1CD6 JUMP JUMPDEST PUSH1 0x8 PUSH0 DUP6 PUSH20 0xFFFFFFFFFFFFFFFFFFFFFFFFFFFFFFFFFFFFFFFF AND PUSH20 0xFFFFFFFFFFFFFFFFFFFFFFFFFFFFFFFFFFFFFFFF AND DUP2 MSTORE PUSH1 0x20 ADD SWAP1 DUP2 MSTORE PUSH1 0x20 ADD PUSH0 KECCAK256 SLOAD PUSH2 0x1CF0 SWAP1 SWAP2 SWAP1 PUSH4 0xFFFFFFFF AND JUMP JUMPDEST PUSH1 0x8 PUSH0 DUP5 PUSH20 0xFFFFFFFFFFFFFFFFFFFFFFFFFFFFFFFFFFFFFFFF AND PUSH20 0xFFFFFFFFFFFFFFFFFFFFFFFFFFFFFFFFFFFFFFFF AND DUP2 MSTORE PUSH1 0x20 ADD SWAP1 DUP2 MSTORE PUSH1 0x20 ADD PUSH0 KECCAK256 DUP2 SWAP1 SSTORE POP POP POP JUMP JUMPDEST PUSH0 PUSH20 0xFFFFFFFFFFFFFFFFFFFFFFFFFFFFFFFFFFFFFFFF AND DUP3 PUSH20 0xFFFFFFFFFFFFFFFFFFFFFFFFFFFFFFFFFFFFFFFF AND SUB PUSH2 0x233D JUMPI PUSH1 0x40 MLOAD PUSH32 0x8C379A000000000000000000000000000000000000000000000000000000000 DUP2 MSTORE PUSH1 0x4 ADD PUSH2 0x2334 SWAP1 PUSH2 0x32B6 JUMP JUMPDEST PUSH1 0x40 MLOAD DUP1 SWAP2 SUB SWAP1 REVERT JUMPDEST PUSH2 0x2348 PUSH0 DUP4 DUP4 PUSH2 0x2648 JUMP JUMPDEST PUSH2 0x235D DUP2 PUSH1 0x2 SLOAD PUSH2 0x1D4C SWAP1 SWAP2 SWAP1 PUSH4 0xFFFFFFFF AND JUMP JUMPDEST PUSH1 0x2 DUP2 SWAP1 SSTORE POP PUSH2 0x23B2 DUP2 PUSH0 DUP1 DUP6 PUSH20 0xFFFFFFFFFFFFFFFFFFFFFFFFFFFFFFFFFFFFFFFF AND PUSH20 0xFFFFFFFFFFFFFFFFFFFFFFFFFFFFFFFFFFFFFFFF AND DUP2 MSTORE PUSH1 0x20 ADD SWAP1 DUP2 MSTORE PUSH1 0x20 ADD PUSH0 KECCAK256 SLOAD PUSH2 0x1D4C SWAP1 SWAP2 SWAP1 PUSH4 0xFFFFFFFF AND JUMP JUMPDEST PUSH0 DUP1 DUP5 PUSH20 0xFFFFFFFFFFFFFFFFFFFFFFFFFFFFFFFFFFFFFFFF AND PUSH20 0xFFFFFFFFFFFFFFFFFFFFFFFFFFFFFFFFFFFFFFFF AND DUP2 MSTORE PUSH1 0x20 ADD SWAP1 DUP2 MSTORE PUSH1 0x20 ADD PUSH0 KECCAK256 DUP2 SWAP1 SSTORE POP DUP2 PUSH20 0xFFFFFFFFFFFFFFFFFFFFFFFFFFFFFFFFFFFFFFFF AND PUSH0 PUSH20 0xFFFFFFFFFFFFFFFFFFFFFFFFFFFFFFFFFFFFFFFF AND PUSH32 0xDDF252AD1BE2C89B69C2B068FC378DAA952BA7F163C4A11628F55A4DF523B3EF DUP4 PUSH1 0x40 MLOAD PUSH2 0x244F SWAP2 SWAP1 PUSH2 0x28B8 JUMP JUMPDEST PUSH1 0x40 MLOAD DUP1 SWAP2 SUB SWAP1 LOG3 POP POP JUMP JUMPDEST PUSH0 DUP1 DUP3 DUP5 PUSH2 0x2469 SWAP2 SWAP1 PUSH2 0x32D4 JUMP JUMPDEST SWAP1 POP PUSH0 DUP4 SLT ISZERO DUP1 ISZERO PUSH2 0x247B JUMPI POP DUP4 DUP2 SGT ISZERO JUMPDEST DUP1 PUSH2 0x2490 JUMPI POP PUSH0 DUP4 SLT DUP1 ISZERO PUSH2 0x248F JUMPI POP DUP4 DUP2 SGT JUMPDEST JUMPDEST PUSH2 0x2498 JUMPI PUSH0 DUP1 REVERT JUMPDEST DUP1 SWAP2 POP POP SWAP3 SWAP2 POP POP JUMP JUMPDEST PUSH0 PUSH20 0xFFFFFFFFFFFFFFFFFFFFFFFFFFFFFFFFFFFFFFFF AND DUP3 PUSH20 0xFFFFFFFFFFFFFFFFFFFFFFFFFFFFFFFFFFFFFFFF AND SUB PUSH2 0x2510 JUMPI PUSH1 0x40 MLOAD PUSH32 0x8C379A000000000000000000000000000000000000000000000000000000000 DUP2 MSTORE PUSH1 0x4 ADD PUSH2 0x2507 SWAP1 PUSH2 0x3384 JUMP JUMPDEST PUSH1 0x40 MLOAD DUP1 SWAP2 SUB SWAP1 REVERT JUMPDEST PUSH2 0x251B DUP3 PUSH0 DUP4 PUSH2 0x2648 JUMP JUMPDEST PUSH2 0x2584 DUP2 PUSH1 0x40 MLOAD DUP1 PUSH1 0x60 ADD PUSH1 0x40 MSTORE DUP1 PUSH1 0x22 DUP2 MSTORE PUSH1 0x20 ADD PUSH2 0x33A3 PUSH1 0x22 SWAP2 CODECOPY PUSH0 DUP1 DUP7 PUSH20 0xFFFFFFFFFFFFFFFFFFFFFFFFFFFFFFFFFFFFFFFF AND PUSH20 0xFFFFFFFFFFFFFFFFFFFFFFFFFFFFFFFFFFFFFFFF AND DUP2 MSTORE PUSH1 0x20 ADD SWAP1 DUP2 MSTORE PUSH1 0x20 ADD PUSH0 KECCAK256 SLOAD PUSH2 0x1BFD SWAP1 SWAP3 SWAP2 SWAP1 PUSH4 0xFFFFFFFF AND JUMP JUMPDEST PUSH0 DUP1 DUP5 PUSH20 0xFFFFFFFFFFFFFFFFFFFFFFFFFFFFFFFFFFFFFFFF AND PUSH20 0xFFFFFFFFFFFFFFFFFFFFFFFFFFFFFFFFFFFFFFFF AND DUP2 MSTORE PUSH1 0x20 ADD SWAP1 DUP2 MSTORE PUSH1 0x20 ADD PUSH0 KECCAK256 DUP2 SWAP1 SSTORE POP PUSH2 0x25D9 DUP2 PUSH1 0x2 SLOAD PUSH2 0x2110 SWAP1 SWAP2 SWAP1 PUSH4 0xFFFFFFFF AND JUMP JUMPDEST PUSH1 0x2 DUP2 SWAP1 SSTORE POP PUSH0 PUSH20 0xFFFFFFFFFFFFFFFFFFFFFFFFFFFFFFFFFFFFFFFF AND DUP3 PUSH20 0xFFFFFFFFFFFFFFFFFFFFFFFFFFFFFFFFFFFFFFFF AND PUSH32 0xDDF252AD1BE2C89B69C2B068FC378DAA952BA7F163C4A11628F55A4DF523B3EF DUP4 PUSH1 0x40 MLOAD PUSH2 0x263C SWAP2 SWAP1 PUSH2 0x28B8 JUMP JUMPDEST PUSH1 0x40 MLOAD DUP1 SWAP2 SUB SWAP1 LOG3 POP POP JUMP JUMPDEST POP POP POP JUMP JUMPDEST PUSH1 0x40 MLOAD DUP1 PUSH1 0x80 ADD PUSH1 0x40 MSTORE DUP1 PUSH0 PUSH20 0xFFFFFFFFFFFFFFFFFFFFFFFFFFFFFFFFFFFFFFFF AND DUP2 MSTORE PUSH1 0x20 ADD PUSH0 DUP2 MSTORE PUSH1 0x20 ADD PUSH0 DUP2 MSTORE PUSH1 0x20 ADD PUSH0 DUP2 MSTORE POP SWAP1 JUMP JUMPDEST PUSH0 DUP1 REVERT JUMPDEST PUSH0 PUSH20 0xFFFFFFFFFFFFFFFFFFFFFFFFFFFFFFFFFFFFFFFF DUP3 AND SWAP1 POP SWAP2 SWAP1 POP JUMP JUMPDEST PUSH0 PUSH2 0x26B4 DUP3 PUSH2 0x268B JUMP JUMPDEST SWAP1 POP SWAP2 SWAP1 POP JUMP JUMPDEST PUSH2 0x26C4 DUP2 PUSH2 0x26AA JUMP JUMPDEST DUP2 EQ PUSH2 0x26CE JUMPI PUSH0 DUP1 REVERT JUMPDEST POP JUMP JUMPDEST PUSH0 DUP2 CALLDATALOAD SWAP1 POP PUSH2 0x26DF DUP2 PUSH2 0x26BB JUMP JUMPDEST SWAP3 SWAP2 POP POP JUMP JUMPDEST PUSH0 DUP2 ISZERO ISZERO SWAP1 POP SWAP2 SWAP1 POP JUMP JUMPDEST PUSH2 0x26F9 DUP2 PUSH2 0x26E5 JUMP JUMPDEST DUP2 EQ PUSH2 0x2703 JUMPI PUSH0 DUP1 REVERT JUMPDEST POP JUMP JUMPDEST PUSH0 DUP2 CALLDATALOAD SWAP1 POP PUSH2 0x2714 DUP2 PUSH2 0x26F0 JUMP JUMPDEST SWAP3 SWAP2 POP POP JUMP JUMPDEST PUSH0 DUP1 PUSH1 0x40 DUP4 DUP6 SUB SLT ISZERO PUSH2 0x2730 JUMPI PUSH2 0x272F PUSH2 0x2687 JUMP JUMPDEST JUMPDEST PUSH0 PUSH2 0x273D DUP6 DUP3 DUP7 ADD PUSH2 0x26D1 JUMP JUMPDEST SWAP3 POP POP PUSH1 0x20 PUSH2 0x274E DUP6 DUP3 DUP7 ADD PUSH2 0x2706 JUMP JUMPDEST SWAP2 POP POP SWAP3 POP SWAP3 SWAP1 POP JUMP JUMPDEST PUSH0 DUP2 MLOAD SWAP1 POP SWAP2 SWAP1 POP JUMP JUMPDEST PUSH0 DUP3 DUP3 MSTORE PUSH1 0x20 DUP3 ADD SWAP1 POP SWAP3 SWAP2 POP POP JUMP JUMPDEST DUP3 DUP2 DUP4 MCOPY PUSH0 DUP4 DUP4 ADD MSTORE POP POP POP JUMP JUMPDEST PUSH0 PUSH1 0x1F NOT PUSH1 0x1F DUP4 ADD AND SWAP1 POP SWAP2 SWAP1 POP JUMP JUMPDEST PUSH0 PUSH2 0x279A DUP3 PUSH2 0x2758 JUMP JUMPDEST PUSH2 0x27A4 DUP2 DUP6 PUSH2 0x2762 JUMP JUMPDEST SWAP4 POP PUSH2 0x27B4 DUP2 DUP6 PUSH1 0x20 DUP7 ADD PUSH2 0x2772 JUMP JUMPDEST PUSH2 0x27BD DUP2 PUSH2 0x2780 JUMP JUMPDEST DUP5 ADD SWAP2 POP POP SWAP3 SWAP2 POP POP JUMP JUMPDEST PUSH0 PUSH1 0x20 DUP3 ADD SWAP1 POP DUP2 DUP2 SUB PUSH0 DUP4 ADD MSTORE PUSH2 0x27E0 DUP2 DUP5 PUSH2 0x2790 JUMP JUMPDEST SWAP1 POP SWAP3 SWAP2 POP POP JUMP JUMPDEST PUSH0 DUP2 SWAP1 POP SWAP2 SWAP1 POP JUMP JUMPDEST PUSH2 0x27FA DUP2 PUSH2 0x27E8 JUMP JUMPDEST DUP2 EQ PUSH2 0x2804 JUMPI PUSH0 DUP1 REVERT JUMPDEST POP JUMP JUMPDEST PUSH0 DUP2 CALLDATALOAD SWAP1 POP PUSH2 0x2815 DUP2 PUSH2 0x27F1 JUMP JUMPDEST SWAP3 SWAP2 POP POP JUMP JUMPDEST PUSH0 DUP1 PUSH1 0x40 DUP4 DUP6 SUB SLT ISZERO PUSH2 0x2831 JUMPI PUSH2 0x2830 PUSH2 0x2687 JUMP JUMPDEST JUMPDEST PUSH0 PUSH2 0x283E DUP6 DUP3 DUP7 ADD PUSH2 0x26D1 JUMP JUMPDEST SWAP3 POP POP PUSH1 0x20 PUSH2 0x284F DUP6 DUP3 DUP7 ADD PUSH2 0x2807 JUMP JUMPDEST SWAP2 POP POP SWAP3 POP SWAP3 SWAP1 POP JUMP JUMPDEST PUSH2 0x2862 DUP2 PUSH2 0x26E5 JUMP JUMPDEST DUP3 MSTORE POP POP JUMP JUMPDEST PUSH0 PUSH1 0x20 DUP3 ADD SWAP1 POP PUSH2 0x287B PUSH0 DUP4 ADD DUP5 PUSH2 0x2859 JUMP JUMPDEST SWAP3 SWAP2 POP POP JUMP JUMPDEST PUSH2 0x288A DUP2 PUSH2 0x26AA JUMP JUMPDEST DUP3 MSTORE POP POP JUMP JUMPDEST PUSH0 PUSH1 0x20 DUP3 ADD SWAP1 POP PUSH2 0x28A3 PUSH0 DUP4 ADD DUP5 PUSH2 0x2881 JUMP JUMPDEST SWAP3 SWAP2 POP POP JUMP JUMPDEST PUSH2 0x28B2 DUP2 PUSH2 0x27E8 JUMP JUMPDEST DUP3 MSTORE POP POP JUMP JUMPDEST PUSH0 PUSH1 0x20 DUP3 ADD SWAP1 POP PUSH2 0x28CB PUSH0 DUP4 ADD DUP5 PUSH2 0x28A9 JUMP JUMPDEST SWAP3 SWAP2 POP POP JUMP JUMPDEST PUSH0 PUSH1 0x20 DUP3 DUP5 SUB SLT ISZERO PUSH2 0x28E6 JUMPI PUSH2 0x28E5 PUSH2 0x2687 JUMP JUMPDEST JUMPDEST PUSH0 PUSH2 0x28F3 DUP5 DUP3 DUP6 ADD PUSH2 0x26D1 JUMP JUMPDEST SWAP2 POP POP SWAP3 SWAP2 POP POP JUMP JUMPDEST PUSH0 DUP1 PUSH0 PUSH1 0x60 DUP5 DUP7 SUB SLT ISZERO PUSH2 0x2913 JUMPI PUSH2 0x2912 PUSH2 0x2687 JUMP JUMPDEST JUMPDEST PUSH0 PUSH2 0x2920 DUP7 DUP3 DUP8 ADD PUSH2 0x26D1 JUMP JUMPDEST SWAP4 POP POP PUSH1 0x20 PUSH2 0x2931 DUP7 DUP3 DUP8 ADD PUSH2 0x26D1 JUMP JUMPDEST SWAP3 POP POP PUSH1 0x40 PUSH2 0x2942 DUP7 DUP3 DUP8 ADD PUSH2 0x2807 JUMP JUMPDEST SWAP2 POP POP SWAP3 POP SWAP3 POP SWAP3 JUMP JUMPDEST PUSH0 PUSH1 0xFF DUP3 AND SWAP1 POP SWAP2 SWAP1 POP JUMP JUMPDEST PUSH2 0x2961 DUP2 PUSH2 0x294C JUMP JUMPDEST DUP3 MSTORE POP POP JUMP JUMPDEST PUSH0 PUSH1 0x20 DUP3 ADD SWAP1 POP PUSH2 0x297A PUSH0 DUP4 ADD DUP5 PUSH2 0x2958 JUMP JUMPDEST SWAP3 SWAP2 POP POP JUMP JUMPDEST PUSH0 DUP1 PUSH1 0x40 DUP4 DUP6 SUB SLT ISZERO PUSH2 0x2996 JUMPI PUSH2 0x2995 PUSH2 0x2687 JUMP JUMPDEST JUMPDEST PUSH0 PUSH2 0x29A3 DUP6 DUP3 DUP7 ADD PUSH2 0x26D1 JUMP JUMPDEST SWAP3 POP POP PUSH1 0x20 PUSH2 0x29B4 DUP6 DUP3 DUP7 ADD PUSH2 0x26D1 JUMP JUMPDEST SWAP2 POP POP SWAP3 POP SWAP3 SWAP1 POP JUMP JUMPDEST PUSH0 PUSH2 0x29C8 DUP3 PUSH2 0x268B JUMP JUMPDEST SWAP1 POP SWAP2 SWAP1 POP JUMP JUMPDEST PUSH2 0x29D8 DUP2 PUSH2 0x29BE JUMP JUMPDEST DUP2 EQ PUSH2 0x29E2 JUMPI PUSH0 DUP1 REVERT JUMPDEST POP JUMP JUMPDEST PUSH0 DUP2 CALLDATALOAD SWAP1 POP PUSH2 0x29F3 DUP2 PUSH2 0x29CF JUMP JUMPDEST SWAP3 SWAP2 POP POP JUMP JUMPDEST PUSH0 PUSH1 0x20 DUP3 DUP5 SUB SLT ISZERO PUSH2 0x2A0E JUMPI PUSH2 0x2A0D PUSH2 0x2687 JUMP JUMPDEST JUMPDEST PUSH0 PUSH2 0x2A1B DUP5 DUP3 DUP6 ADD PUSH2 0x29E5 JUMP JUMPDEST SWAP2 POP POP SWAP3 SWAP2 POP POP JUMP JUMPDEST PUSH0 PUSH1 0x20 DUP3 DUP5 SUB SLT ISZERO PUSH2 0x2A39 JUMPI PUSH2 0x2A38 PUSH2 0x2687 JUMP JUMPDEST JUMPDEST PUSH0 PUSH2 0x2A46 DUP5 DUP3 DUP6 ADD PUSH2 0x2807 JUMP JUMPDEST SWAP2 POP POP SWAP3 SWAP2 POP POP JUMP JUMPDEST PUSH0 PUSH1 0xA0 DUP3 ADD SWAP1 POP PUSH2 0x2A62 PUSH0 DUP4 ADD DUP9 PUSH2 0x2881 JUMP JUMPDEST PUSH2 0x2A6F PUSH1 0x20 DUP4 ADD DUP8 PUSH2 0x28A9 JUMP JUMPDEST PUSH2 0x2A7C PUSH1 0x40 DUP4 ADD DUP7 PUSH2 0x28A9 JUMP JUMPDEST PUSH2 0x2A89 PUSH1 0x60 DUP4 ADD DUP6 PUSH2 0x28A9 JUMP JUMPDEST PUSH2 0x2A96 PUSH1 0x80 DUP4 ADD DUP5 PUSH2 0x28A9 JUMP JUMPDEST SWAP7 SWAP6 POP POP POP POP POP POP JUMP JUMPDEST PUSH32 0x4F776E61626C653A2063616C6C6572206973206E6F7420746865206F776E6572 PUSH0 DUP3 ADD MSTORE POP JUMP JUMPDEST PUSH0 PUSH2 0x2AD4 PUSH1 0x20 DUP4 PUSH2 0x2762 JUMP JUMPDEST SWAP2 POP PUSH2 0x2ADF DUP3 PUSH2 0x2AA0 JUMP JUMPDEST PUSH1 0x20 DUP3 ADD SWAP1 POP SWAP2 SWAP1 POP JUMP JUMPDEST PUSH0 PUSH1 0x20 DUP3 ADD SWAP1 POP DUP2 DUP2 SUB PUSH0 DUP4 ADD MSTORE PUSH2 0x2B01 DUP2 PUSH2 0x2AC8 JUMP JUMPDEST SWAP1 POP SWAP2 SWAP1 POP JUMP JUMPDEST PUSH32 0x4E487B7100000000000000000000000000000000000000000000000000000000 PUSH0 MSTORE PUSH1 0x22 PUSH1 0x4 MSTORE PUSH1 0x24 PUSH0 REVERT JUMPDEST PUSH0 PUSH1 0x2 DUP3 DIV SWAP1 POP PUSH1 0x1 DUP3 AND DUP1 PUSH2 0x2B4C JUMPI PUSH1 0x7F DUP3 AND SWAP2 POP JUMPDEST PUSH1 0x20 DUP3 LT DUP2 SUB PUSH2 0x2B5F JUMPI PUSH2 0x2B5E PUSH2 0x2B08 JUMP JUMPDEST JUMPDEST POP SWAP2 SWAP1 POP JUMP JUMPDEST PUSH32 0x4E487B7100000000000000000000000000000000000000000000000000000000 PUSH0 MSTORE PUSH1 0x12 PUSH1 0x4 MSTORE PUSH1 0x24 PUSH0 REVERT JUMPDEST PUSH32 0x4E487B7100000000000000000000000000000000000000000000000000000000 PUSH0 MSTORE PUSH1 0x11 PUSH1 0x4 MSTORE PUSH1 0x24 PUSH0 REVERT JUMPDEST PUSH0 PUSH2 0x2BC9 DUP3 PUSH2 0x27E8 JUMP JUMPDEST SWAP2 POP PUSH2 0x2BD4 DUP4 PUSH2 0x27E8 JUMP JUMPDEST SWAP3 POP DUP3 PUSH2 0x2BE4 JUMPI PUSH2 0x2BE3 PUSH2 0x2B65 JUMP JUMPDEST JUMPDEST DUP3 DUP3 DIV SWAP1 POP SWAP3 SWAP2 POP POP JUMP JUMPDEST PUSH0 DUP2 MLOAD SWAP1 POP PUSH2 0x2BFD DUP2 PUSH2 0x27F1 JUMP JUMPDEST SWAP3 SWAP2 POP POP JUMP JUMPDEST PUSH0 PUSH1 0x20 DUP3 DUP5 SUB SLT ISZERO PUSH2 0x2C18 JUMPI PUSH2 0x2C17 PUSH2 0x2687 JUMP JUMPDEST JUMPDEST PUSH0 PUSH2 0x2C25 DUP5 DUP3 DUP6 ADD PUSH2 0x2BEF JUMP JUMPDEST SWAP2 POP POP SWAP3 SWAP2 POP POP JUMP JUMPDEST PUSH0 PUSH1 0x40 DUP3 ADD SWAP1 POP PUSH2 0x2C41 PUSH0 DUP4 ADD DUP6 PUSH2 0x2881 JUMP JUMPDEST PUSH2 0x2C4E PUSH1 0x20 DUP4 ADD DUP5 PUSH2 0x28A9 JUMP JUMPDEST SWAP4 SWAP3 POP POP POP JUMP JUMPDEST PUSH0 DUP2 MLOAD SWAP1 POP PUSH2 0x2C63 DUP2 PUSH2 0x26F0 JUMP JUMPDEST SWAP3 SWAP2 POP POP JUMP JUMPDEST PUSH0 PUSH1 0x20 DUP3 DUP5 SUB SLT ISZERO PUSH2 0x2C7E JUMPI PUSH2 0x2C7D PUSH2 0x2687 JUMP JUMPDEST JUMPDEST PUSH0 PUSH2 0x2C8B DUP5 DUP3 DUP6 ADD PUSH2 0x2C55 JUMP JUMPDEST SWAP2 POP POP SWAP3 SWAP2 POP POP JUMP JUMPDEST PUSH32 0x4F776E61626C653A206E6577206F776E657220697320746865207A65726F2061 PUSH0 DUP3 ADD MSTORE PUSH32 0x6464726573730000000000000000000000000000000000000000000000000000 PUSH1 0x20 DUP3 ADD MSTORE POP JUMP JUMPDEST PUSH0 PUSH2 0x2CEE PUSH1 0x26 DUP4 PUSH2 0x2762 JUMP JUMPDEST SWAP2 POP PUSH2 0x2CF9 DUP3 PUSH2 0x2C94 JUMP JUMPDEST PUSH1 0x40 DUP3 ADD SWAP1 POP SWAP2 SWAP1 POP JUMP JUMPDEST PUSH0 PUSH1 0x20 DUP3 ADD SWAP1 POP DUP2 DUP2 SUB PUSH0 DUP4 ADD MSTORE PUSH2 0x2D1B DUP2 PUSH2 0x2CE2 JUMP JUMPDEST SWAP1 POP SWAP2 SWAP1 POP JUMP JUMPDEST PUSH32 0x45524332303A20617070726F76652066726F6D20746865207A65726F20616464 PUSH0 DUP3 ADD MSTORE PUSH32 0x7265737300000000000000000000000000000000000000000000000000000000 PUSH1 0x20 DUP3 ADD MSTORE POP JUMP JUMPDEST PUSH0 PUSH2 0x2D7C PUSH1 0x24 DUP4 PUSH2 0x2762 JUMP JUMPDEST SWAP2 POP PUSH2 0x2D87 DUP3 PUSH2 0x2D22 JUMP JUMPDEST PUSH1 0x40 DUP3 ADD SWAP1 POP SWAP2 SWAP1 POP JUMP JUMPDEST PUSH0 PUSH1 0x20 DUP3 ADD SWAP1 POP DUP2 DUP2 SUB PUSH0 DUP4 ADD MSTORE PUSH2 0x2DA9 DUP2 PUSH2 0x2D70 JUMP JUMPDEST SWAP1 POP SWAP2 SWAP1 POP JUMP JUMPDEST PUSH32 0x45524332303A20617070726F766520746F20746865207A65726F206164647265 PUSH0 DUP3 ADD MSTORE PUSH32 0x7373000000000000000000000000000000000000000000000000000000000000 PUSH1 0x20 DUP3 ADD MSTORE POP JUMP JUMPDEST PUSH0 PUSH2 0x2E0A PUSH1 0x22 DUP4 PUSH2 0x2762 JUMP JUMPDEST SWAP2 POP PUSH2 0x2E15 DUP3 PUSH2 0x2DB0 JUMP JUMPDEST PUSH1 0x40 DUP3 ADD SWAP1 POP SWAP2 SWAP1 POP JUMP JUMPDEST PUSH0 PUSH1 0x20 DUP3 ADD SWAP1 POP DUP2 DUP2 SUB PUSH0 DUP4 ADD MSTORE PUSH2 0x2E37 DUP2 PUSH2 0x2DFE JUMP JUMPDEST SWAP1 POP SWAP2 SWAP1 POP JUMP JUMPDEST PUSH32 0x564952414C5F4469766964656E645F547261636B65723A204E6F207472616E73 PUSH0 DUP3 ADD MSTORE PUSH32 0x6665727320616C6C6F7765640000000000000000000000000000000000000000 PUSH1 0x20 DUP3 ADD MSTORE POP JUMP JUMPDEST PUSH0 PUSH2 0x2E98 PUSH1 0x2C DUP4 PUSH2 0x2762 JUMP JUMPDEST SWAP2 POP PUSH2 0x2EA3 DUP3 PUSH2 0x2E3E JUMP JUMPDEST PUSH1 0x40 DUP3 ADD SWAP1 POP SWAP2 SWAP1 POP JUMP JUMPDEST PUSH0 PUSH1 0x20 DUP3 ADD SWAP1 POP DUP2 DUP2 SUB PUSH0 DUP4 ADD MSTORE PUSH2 0x2EC5 DUP2 PUSH2 0x2E8C JUMP JUMPDEST SWAP1 POP SWAP2 SWAP1 POP JUMP JUMPDEST PUSH0 PUSH2 0x2ED6 DUP3 PUSH2 0x27E8 JUMP JUMPDEST SWAP2 POP PUSH2 0x2EE1 DUP4 PUSH2 0x27E8 JUMP JUMPDEST SWAP3 POP DUP3 DUP3 SUB SWAP1 POP DUP2 DUP2 GT ISZERO PUSH2 0x2EF9 JUMPI PUSH2 0x2EF8 PUSH2 0x2B92 JUMP JUMPDEST JUMPDEST SWAP3 SWAP2 POP POP JUMP JUMPDEST PUSH0 PUSH2 0x2F09 DUP3 PUSH2 0x27E8 JUMP JUMPDEST SWAP2 POP PUSH2 0x2F14 DUP4 PUSH2 0x27E8 JUMP JUMPDEST SWAP3 POP DUP3 DUP3 MUL PUSH2 0x2F22 DUP2 PUSH2 0x27E8 JUMP JUMPDEST SWAP2 POP DUP3 DUP3 DIV DUP5 EQ DUP4 ISZERO OR PUSH2 0x2F39 JUMPI PUSH2 0x2F38 PUSH2 0x2B92 JUMP JUMPDEST JUMPDEST POP SWAP3 SWAP2 POP POP JUMP JUMPDEST PUSH32 0x536166654D6174683A206D756C7469706C69636174696F6E206F766572666C6F PUSH0 DUP3 ADD MSTORE PUSH32 0x7700000000000000000000000000000000000000000000000000000000000000 PUSH1 0x20 DUP3 ADD MSTORE POP JUMP JUMPDEST PUSH0 PUSH2 0x2F9A PUSH1 0x21 DUP4 PUSH2 0x2762 JUMP JUMPDEST SWAP2 POP PUSH2 0x2FA5 DUP3 PUSH2 0x2F40 JUMP JUMPDEST PUSH1 0x40 DUP3 ADD SWAP1 POP SWAP2 SWAP1 POP JUMP JUMPDEST PUSH0 PUSH1 0x20 DUP3 ADD SWAP1 POP DUP2 DUP2 SUB PUSH0 DUP4 ADD MSTORE PUSH2 0x2FC7 DUP2 PUSH2 0x2F8E JUMP JUMPDEST SWAP1 POP SWAP2 SWAP1 POP JUMP JUMPDEST PUSH0 DUP2 SWAP1 POP SWAP2 SWAP1 POP JUMP JUMPDEST PUSH0 PUSH2 0x2FE1 DUP3 PUSH2 0x2FCE JUMP JUMPDEST SWAP2 POP PUSH2 0x2FEC DUP4 PUSH2 0x2FCE JUMP JUMPDEST SWAP3 POP DUP3 DUP3 ADD SWAP1 POP DUP3 DUP2 SLT ISZERO PUSH0 DUP4 SLT AND DUP4 DUP3 SLT PUSH0 DUP5 SLT ISZERO AND OR ISZERO PUSH2 0x3012 JUMPI PUSH2 0x3011 PUSH2 0x2B92 JUMP JUMPDEST JUMPDEST SWAP3 SWAP2 POP POP JUMP JUMPDEST PUSH0 PUSH2 0x3022 DUP3 PUSH2 0x27E8 JUMP JUMPDEST SWAP2 POP PUSH2 0x302D DUP4 PUSH2 0x27E8 JUMP JUMPDEST SWAP3 POP DUP3 DUP3 ADD SWAP1 POP DUP1 DUP3 GT ISZERO PUSH2 0x3045 JUMPI PUSH2 0x3044 PUSH2 0x2B92 JUMP JUMPDEST JUMPDEST SWAP3 SWAP2 POP POP JUMP JUMPDEST PUSH32 0x536166654D6174683A206164646974696F6E206F766572666C6F770000000000 PUSH0 DUP3 ADD MSTORE POP JUMP JUMPDEST PUSH0 PUSH2 0x307F PUSH1 0x1B DUP4 PUSH2 0x2762 JUMP JUMPDEST SWAP2 POP PUSH2 0x308A DUP3 PUSH2 0x304B JUMP JUMPDEST PUSH1 0x20 DUP3 ADD SWAP1 POP SWAP2 SWAP1 POP JUMP JUMPDEST PUSH0 PUSH1 0x20 DUP3 ADD SWAP1 POP DUP2 DUP2 SUB PUSH0 DUP4 ADD MSTORE PUSH2 0x30AC DUP2 PUSH2 0x3073 JUMP JUMPDEST SWAP1 POP SWAP2 SWAP1 POP JUMP JUMPDEST PUSH32 0x416464726573733A20696E73756666696369656E742062616C616E6365000000 PUSH0 DUP3 ADD MSTORE POP JUMP JUMPDEST PUSH0 PUSH2 0x30E7 PUSH1 0x1D DUP4 PUSH2 0x2762 JUMP JUMPDEST SWAP2 POP PUSH2 0x30F2 DUP3 PUSH2 0x30B3 JUMP JUMPDEST PUSH1 0x20 DUP3 ADD SWAP1 POP SWAP2 SWAP1 POP JUMP JUMPDEST PUSH0 PUSH1 0x20 DUP3 ADD SWAP1 POP DUP2 DUP2 SUB PUSH0 DUP4 ADD MSTORE PUSH2 0x3114 DUP2 PUSH2 0x30DB JUMP JUMPDEST SWAP1 POP SWAP2 SWAP1 POP JUMP JUMPDEST PUSH0 DUP2 SWAP1 POP SWAP3 SWAP2 POP POP JUMP JUMPDEST POP JUMP JUMPDEST PUSH0 PUSH2 0x3133 PUSH0 DUP4 PUSH2 0x311B JUMP JUMPDEST SWAP2 POP PUSH2 0x313E DUP3 PUSH2 0x3125 JUMP JUMPDEST PUSH0 DUP3 ADD SWAP1 POP SWAP2 SWAP1 POP JUMP JUMPDEST PUSH0 PUSH2 0x3152 DUP3 PUSH2 0x3128 JUMP JUMPDEST SWAP2 POP DUP2 SWAP1 POP SWAP2 SWAP1 POP JUMP JUMPDEST PUSH32 0x416464726573733A20756E61626C6520746F2073656E642076616C75652C2072 PUSH0 DUP3 ADD MSTORE PUSH32 0x6563697069656E74206D61792068617665207265766572746564000000000000 PUSH1 0x20 DUP3 ADD MSTORE POP JUMP JUMPDEST PUSH0 PUSH2 0x31B6 PUSH1 0x3A DUP4 PUSH2 0x2762 JUMP JUMPDEST SWAP2 POP PUSH2 0x31C1 DUP3 PUSH2 0x315C JUMP JUMPDEST PUSH1 0x40 DUP3 ADD SWAP1 POP SWAP2 SWAP1 POP JUMP JUMPDEST PUSH0 PUSH1 0x20 DUP3 ADD SWAP1 POP DUP2 DUP2 SUB PUSH0 DUP4 ADD MSTORE PUSH2 0x31E3 DUP2 PUSH2 0x31AA JUMP JUMPDEST SWAP1 POP SWAP2 SWAP1 POP JUMP JUMPDEST PUSH0 DUP2 SWAP1 POP SWAP2 SWAP1 POP JUMP JUMPDEST PUSH0 PUSH2 0x320D PUSH2 0x3208 PUSH2 0x3203 DUP5 PUSH2 0x268B JUMP JUMPDEST PUSH2 0x31EA JUMP JUMPDEST PUSH2 0x268B JUMP JUMPDEST SWAP1 POP SWAP2 SWAP1 POP JUMP JUMPDEST PUSH0 PUSH2 0x321E DUP3 PUSH2 0x31F3 JUMP JUMPDEST SWAP1 POP SWAP2 SWAP1 POP JUMP JUMPDEST PUSH0 PUSH2 0x322F DUP3 PUSH2 0x3214 JUMP JUMPDEST SWAP1 POP SWAP2 SWAP1 POP JUMP JUMPDEST PUSH2 0x323F DUP2 PUSH2 0x3225 JUMP JUMPDEST DUP3 MSTORE POP POP JUMP JUMPDEST PUSH0 PUSH1 0x40 DUP3 ADD SWAP1 POP PUSH2 0x3258 PUSH0 DUP4 ADD DUP6 PUSH2 0x3236 JUMP JUMPDEST PUSH2 0x3265 PUSH1 0x20 DUP4 ADD DUP5 PUSH2 0x28A9 JUMP JUMPDEST SWAP4 SWAP3 POP POP POP JUMP JUMPDEST PUSH32 0x45524332303A206D696E7420746F20746865207A65726F206164647265737300 PUSH0 DUP3 ADD MSTORE POP JUMP JUMPDEST PUSH0 PUSH2 0x32A0 PUSH1 0x1F DUP4 PUSH2 0x2762 JUMP JUMPDEST SWAP2 POP PUSH2 0x32AB DUP3 PUSH2 0x326C JUMP JUMPDEST PUSH1 0x20 DUP3 ADD SWAP1 POP SWAP2 SWAP1 POP JUMP JUMPDEST PUSH0 PUSH1 0x20 DUP3 ADD SWAP1 POP DUP2 DUP2 SUB PUSH0 DUP4 ADD MSTORE PUSH2 0x32CD DUP2 PUSH2 0x3294 JUMP JUMPDEST SWAP1 POP SWAP2 SWAP1 POP JUMP JUMPDEST PUSH0 PUSH2 0x32DE DUP3 PUSH2 0x2FCE JUMP JUMPDEST SWAP2 POP PUSH2 0x32E9 DUP4 PUSH2 0x2FCE JUMP JUMPDEST SWAP3 POP DUP3 DUP3 SUB SWAP1 POP DUP2 DUP2 SLT PUSH0 DUP5 SLT AND DUP3 DUP3 SGT PUSH0 DUP6 SLT ISZERO AND OR ISZERO PUSH2 0x330E JUMPI PUSH2 0x330D PUSH2 0x2B92 JUMP JUMPDEST JUMPDEST SWAP3 SWAP2 POP POP JUMP JUMPDEST PUSH32 0x45524332303A206275726E2066726F6D20746865207A65726F20616464726573 PUSH0 DUP3 ADD MSTORE PUSH32 0x7300000000000000000000000000000000000000000000000000000000000000 PUSH1 0x20 DUP3 ADD MSTORE POP JUMP JUMPDEST PUSH0 PUSH2 0x336E PUSH1 0x21 DUP4 PUSH2 0x2762 JUMP JUMPDEST SWAP2 POP PUSH2 0x3379 DUP3 PUSH2 0x3314 JUMP JUMPDEST PUSH1 0x40 DUP3 ADD SWAP1 POP SWAP2 SWAP1 POP JUMP JUMPDEST PUSH0 PUSH1 0x20 DUP3 ADD SWAP1 POP DUP2 DUP2 SUB PUSH0 DUP4 ADD MSTORE PUSH2 0x339B DUP2 PUSH2 0x3362 JUMP JUMPDEST SWAP1 POP SWAP2 SWAP1 POP JUMP INVALID GASLIMIT MSTORE NUMBER ORIGIN ADDRESS GASPRICE KECCAK256 PUSH3 0x75726E KECCAK256 PUSH2 0x6D6F PUSH22 0x6E7420657863656564732062616C616E636545524332 ADDRESS GASPRICE KECCAK256 PUSH21 0x72616E7366657220616D6F756E7420657863656564 PUSH20 0x20616C6C6F77616E636545524332303A20646563 PUSH19 0x656173656420616C6C6F77616E63652062656C PUSH16 0x77207A65726FA2646970667358221220 CALLCODE 0xF7 SWAP14 NOT 0xD PREVRANDAO 0x2A PREVRANDAO EQ 0x4F ADD SIGNEXTEND PUSH29 0xB984FB42E8CF758B08440C44DFBF150C71855464736F6C634300081A00 CALLER "
		},
		"gasEstimates": {
			"creation": {
				"codeDepositCost": "5255200",
				"executionCost": "infinite",
				"totalCost": "infinite"
			},
			"external": {
				"_isBot(address)": "2966",
				"activateTrading()": "28960",
				"airdropTokens(address[],uint256[])": "infinite",
				"allowance(address,address)": "infinite",
				"approve(address,uint256)": "infinite",
				"automatedMarketMakerPairs(address)": "2923",
				"balanceOf(address)": "2896",
				"buyTaxes()": "infinite",
				"claim()": "infinite",
				"claimEnabled()": "2652",
				"decimals()": "472",
				"decreaseAllowance(address,uint256)": "infinite",
				"devWallet()": "2620",
				"dividendTokenBalanceOf(address)": "infinite",
				"dividendTracker()": "infinite",
				"excludeFromDividends(address,bool)": "infinite",
				"excludeFromFees(address,bool)": "infinite",
				"excludeMultipleAccountsFromFees(address[],bool)": "infinite",
				"forceSend()": "infinite",
				"getAccountInfo(address)": "infinite",
				"getTotalDividendsDistributed()": "infinite",
				"increaseAllowance(address,uint256)": "infinite",
				"isExcludedFromFees(address)": "3004",
				"maxBuyAmount()": "2538",
				"maxSellAmount()": "2493",
				"name()": "infinite",
				"owner()": "2605",
				"pair()": "2575",
				"renounceOwnership()": "30379",
				"rescueETH20Tokens(address)": "infinite",
				"router()": "infinite",
				"sellTaxes()": "infinite",
				"setAutomatedMarketMakerPair(address,bool)": "infinite",
				"setBot(address,bool)": "29510",
				"setBulkBot(address[],bool)": "infinite",
				"setBuyTaxes(uint256,uint256,uint256,uint256)": "infinite",
				"setClaimEnabled(bool)": "27061",
				"setDevWallet(address)": "27009",
				"setLP_Token(address)": "infinite",
				"setMaxBuyAndSell(uint256,uint256)": "infinite",
				"setSellTaxes(uint256,uint256,uint256,uint256)": "infinite",
				"setSwapEnabled(bool)": "26994",
				"setSwapTokensAtAmount(uint256)": "infinite",
				"setTreasuryWallet(address)": "27052",
				"swapEnabled()": "2629",
				"swapTokensAtAmount()": "2536",
				"symbol()": "infinite",
				"totalBuyTax()": "2493",
				"totalSellTax()": "2494",
				"totalSupply()": "2567",
				"trackerForceSend()": "infinite",
				"trackerRescueETH20Tokens(address)": "infinite",
				"tradingEnabled()": "2607",
				"transfer(address,uint256)": "infinite",
				"transferFrom(address,address,uint256)": "infinite",
				"transferOwnership(address)": "30698",
				"treasuryWallet()": "2621",
				"updateDividendTracker(address)": "infinite",
				"updateRouter(address)": "27029",
				"withdrawableDividendOf(address)": "infinite"
			},
			"internal": {
				"_setAutomatedMarketMakerPair(address,bool)": "infinite",
				"_transfer(address,address,uint256)": "infinite",
				"addLiquidity(uint256,uint256)": "infinite",
				"swapAndLiquify(uint256)": "infinite",
				"swapTokensForETH(uint256)": "infinite"
			}
		},
		"methodIdentifiers": {
			"_isBot(address)": "abb81052",
			"activateTrading()": "0bd05b69",
			"airdropTokens(address[],uint256[])": "706f6937",
			"allowance(address,address)": "dd62ed3e",
			"approve(address,uint256)": "095ea7b3",
			"automatedMarketMakerPairs(address)": "b62496f5",
			"balanceOf(address)": "70a08231",
			"buyTaxes()": "864701a5",
			"claim()": "4e71d92d",
			"claimEnabled()": "2866ed21",
			"decimals()": "313ce567",
			"decreaseAllowance(address,uint256)": "a457c2d7",
			"devWallet()": "8ea5220f",
			"dividendTokenBalanceOf(address)": "6843cd84",
			"dividendTracker()": "2c1f5216",
			"excludeFromDividends(address,bool)": "0483f7a0",
			"excludeFromFees(address,bool)": "c0246668",
			"excludeMultipleAccountsFromFees(address[],bool)": "c492f046",
			"forceSend()": "12b77e8a",
			"getAccountInfo(address)": "7b510fe8",
			"getTotalDividendsDistributed()": "30bb4cff",
			"increaseAllowance(address,uint256)": "39509351",
			"isExcludedFromFees(address)": "4fbee193",
			"maxBuyAmount()": "88e765ff",
			"maxSellAmount()": "66d602ae",
			"name()": "06fdde03",
			"owner()": "8da5cb5b",
			"pair()": "a8aa1b31",
			"renounceOwnership()": "715018a6",
			"rescueETH20Tokens(address)": "0a78097d",
			"router()": "f887ea40",
			"sellTaxes()": "f66895a3",
			"setAutomatedMarketMakerPair(address,bool)": "9a7a23d6",
			"setBot(address,bool)": "342aa8b5",
			"setBulkBot(address[],bool)": "b83b297f",
			"setBuyTaxes(uint256,uint256,uint256,uint256)": "e4bf1bed",
			"setClaimEnabled(bool)": "92929a09",
			"setDevWallet(address)": "1f53ac02",
			"setLP_Token(address)": "2e1ab904",
			"setMaxBuyAndSell(uint256,uint256)": "79b447bd",
			"setSellTaxes(uint256,uint256,uint256,uint256)": "f480fec2",
			"setSwapEnabled(bool)": "e01af92c",
			"setSwapTokensAtAmount(uint256)": "afa4f3b2",
			"setTreasuryWallet(address)": "a8602fea",
			"swapEnabled()": "6ddd1713",
			"swapTokensAtAmount()": "e2f45605",
			"symbol()": "95d89b41",
			"totalBuyTax()": "46469afb",
			"totalSellTax()": "1bff7898",
			"totalSupply()": "18160ddd",
			"trackerForceSend()": "e11c3368",
			"trackerRescueETH20Tokens(address)": "8c9684f9",
			"tradingEnabled()": "4ada218b",
			"transfer(address,uint256)": "a9059cbb",
			"transferFrom(address,address,uint256)": "23b872dd",
			"transferOwnership(address)": "f2fde38b",
			"treasuryWallet()": "4626402b",
			"updateDividendTracker(address)": "88bdd9be",
			"updateRouter(address)": "c851cc32",
			"withdrawableDividendOf(address)": "a8b9d240"
		}
	},
	"abi": [
		{
			"inputs": [],
			"stateMutability": "nonpayable",
			"type": "constructor"
		},
		{
			"anonymous": false,
			"inputs": [
				{
					"indexed": true,
					"internalType": "address",
					"name": "owner",
					"type": "address"
				},
				{
					"indexed": true,
					"internalType": "address",
					"name": "spender",
					"type": "address"
				},
				{
					"indexed": false,
					"internalType": "uint256",
					"name": "value",
					"type": "uint256"
				}
			],
			"name": "Approval",
			"type": "event"
		},
		{
			"anonymous": false,
			"inputs": [
				{
					"indexed": true,
					"internalType": "address",
					"name": "account",
					"type": "address"
				},
				{
					"indexed": false,
					"internalType": "bool",
					"name": "isExcluded",
					"type": "bool"
				}
			],
			"name": "ExcludeFromFees",
			"type": "event"
		},
		{
			"anonymous": false,
			"inputs": [
				{
					"indexed": false,
					"internalType": "address[]",
					"name": "accounts",
					"type": "address[]"
				},
				{
					"indexed": false,
					"internalType": "bool",
					"name": "isExcluded",
					"type": "bool"
				}
			],
			"name": "ExcludeMultipleAccountsFromFees",
			"type": "event"
		},
		{
			"anonymous": false,
			"inputs": [
				{
					"indexed": true,
					"internalType": "uint256",
					"name": "newValue",
					"type": "uint256"
				},
				{
					"indexed": true,
					"internalType": "uint256",
					"name": "oldValue",
					"type": "uint256"
				}
			],
			"name": "GasForProcessingUpdated",
			"type": "event"
		},
		{
			"anonymous": false,
			"inputs": [
				{
					"indexed": true,
					"internalType": "address",
					"name": "previousOwner",
					"type": "address"
				},
				{
					"indexed": true,
					"internalType": "address",
					"name": "newOwner",
					"type": "address"
				}
			],
			"name": "OwnershipTransferred",
			"type": "event"
		},
		{
			"anonymous": false,
			"inputs": [
				{
					"indexed": false,
					"internalType": "uint256",
					"name": "iterations",
					"type": "uint256"
				},
				{
					"indexed": false,
					"internalType": "uint256",
					"name": "claims",
					"type": "uint256"
				},
				{
					"indexed": false,
					"internalType": "uint256",
					"name": "lastProcessedIndex",
					"type": "uint256"
				},
				{
					"indexed": true,
					"internalType": "bool",
					"name": "automatic",
					"type": "bool"
				},
				{
					"indexed": false,
					"internalType": "uint256",
					"name": "gas",
					"type": "uint256"
				},
				{
					"indexed": true,
					"internalType": "address",
					"name": "processor",
					"type": "address"
				}
			],
			"name": "ProcessedDividendTracker",
			"type": "event"
		},
		{
			"anonymous": false,
			"inputs": [
				{
					"indexed": false,
					"internalType": "uint256",
					"name": "tokensSwapped",
					"type": "uint256"
				},
				{
					"indexed": false,
					"internalType": "uint256",
					"name": "amount",
					"type": "uint256"
				}
			],
			"name": "SendDividends",
			"type": "event"
		},
		{
			"anonymous": false,
			"inputs": [
				{
					"indexed": true,
					"internalType": "address",
					"name": "pair",
					"type": "address"
				},
				{
					"indexed": true,
					"internalType": "bool",
					"name": "value",
					"type": "bool"
				}
			],
			"name": "SetAutomatedMarketMakerPair",
			"type": "event"
		},
		{
			"anonymous": false,
			"inputs": [
				{
					"indexed": true,
					"internalType": "address",
					"name": "from",
					"type": "address"
				},
				{
					"indexed": true,
					"internalType": "address",
					"name": "to",
					"type": "address"
				},
				{
					"indexed": false,
					"internalType": "uint256",
					"name": "value",
					"type": "uint256"
				}
			],
			"name": "Transfer",
			"type": "event"
		},
		{
			"inputs": [
				{
					"internalType": "address",
					"name": "",
					"type": "address"
				}
			],
			"name": "_isBot",
			"outputs": [
				{
					"internalType": "bool",
					"name": "",
					"type": "bool"
				}
			],
			"stateMutability": "view",
			"type": "function"
		},
		{
			"inputs": [],
			"name": "activateTrading",
			"outputs": [],
			"stateMutability": "nonpayable",
			"type": "function"
		},
		{
			"inputs": [
				{
					"internalType": "address[]",
					"name": "accounts",
					"type": "address[]"
				},
				{
					"internalType": "uint256[]",
					"name": "amounts",
					"type": "uint256[]"
				}
			],
			"name": "airdropTokens",
			"outputs": [],
			"stateMutability": "nonpayable",
			"type": "function"
		},
		{
			"inputs": [
				{
					"internalType": "address",
					"name": "owner",
					"type": "address"
				},
				{
					"internalType": "address",
					"name": "spender",
					"type": "address"
				}
			],
			"name": "allowance",
			"outputs": [
				{
					"internalType": "uint256",
					"name": "",
					"type": "uint256"
				}
			],
			"stateMutability": "view",
			"type": "function"
		},
		{
			"inputs": [
				{
					"internalType": "address",
					"name": "spender",
					"type": "address"
				},
				{
					"internalType": "uint256",
					"name": "amount",
					"type": "uint256"
				}
			],
			"name": "approve",
			"outputs": [
				{
					"internalType": "bool",
					"name": "",
					"type": "bool"
				}
			],
			"stateMutability": "nonpayable",
			"type": "function"
		},
		{
			"inputs": [
				{
					"internalType": "address",
					"name": "",
					"type": "address"
				}
			],
			"name": "automatedMarketMakerPairs",
			"outputs": [
				{
					"internalType": "bool",
					"name": "",
					"type": "bool"
				}
			],
			"stateMutability": "view",
			"type": "function"
		},
		{
			"inputs": [
				{
					"internalType": "address",
					"name": "account",
					"type": "address"
				}
			],
			"name": "balanceOf",
			"outputs": [
				{
					"internalType": "uint256",
					"name": "",
					"type": "uint256"
				}
			],
			"stateMutability": "view",
			"type": "function"
		},
		{
			"inputs": [],
			"name": "buyTaxes",
			"outputs": [
				{
					"internalType": "uint256",
					"name": "rewards",
					"type": "uint256"
				},
				{
					"internalType": "uint256",
					"name": "treasury",
					"type": "uint256"
				},
				{
					"internalType": "uint256",
					"name": "liquidity",
					"type": "uint256"
				},
				{
					"internalType": "uint256",
					"name": "dev",
					"type": "uint256"
				}
			],
			"stateMutability": "view",
			"type": "function"
		},
		{
			"inputs": [],
			"name": "claim",
			"outputs": [],
			"stateMutability": "nonpayable",
			"type": "function"
		},
		{
			"inputs": [],
			"name": "claimEnabled",
			"outputs": [
				{
					"internalType": "bool",
					"name": "",
					"type": "bool"
				}
			],
			"stateMutability": "view",
			"type": "function"
		},
		{
			"inputs": [],
			"name": "decimals",
			"outputs": [
				{
					"internalType": "uint8",
					"name": "",
					"type": "uint8"
				}
			],
			"stateMutability": "view",
			"type": "function"
		},
		{
			"inputs": [
				{
					"internalType": "address",
					"name": "spender",
					"type": "address"
				},
				{
					"internalType": "uint256",
					"name": "subtractedValue",
					"type": "uint256"
				}
			],
			"name": "decreaseAllowance",
			"outputs": [
				{
					"internalType": "bool",
					"name": "",
					"type": "bool"
				}
			],
			"stateMutability": "nonpayable",
			"type": "function"
		},
		{
			"inputs": [],
			"name": "devWallet",
			"outputs": [
				{
					"internalType": "address",
					"name": "",
					"type": "address"
				}
			],
			"stateMutability": "view",
			"type": "function"
		},
		{
			"inputs": [
				{
					"internalType": "address",
					"name": "account",
					"type": "address"
				}
			],
			"name": "dividendTokenBalanceOf",
			"outputs": [
				{
					"internalType": "uint256",
					"name": "",
					"type": "uint256"
				}
			],
			"stateMutability": "view",
			"type": "function"
		},
		{
			"inputs": [],
			"name": "dividendTracker",
			"outputs": [
				{
					"internalType": "contract VIRALDividendTracker",
					"name": "",
					"type": "address"
				}
			],
			"stateMutability": "view",
			"type": "function"
		},
		{
			"inputs": [
				{
					"internalType": "address",
					"name": "account",
					"type": "address"
				},
				{
					"internalType": "bool",
					"name": "value",
					"type": "bool"
				}
			],
			"name": "excludeFromDividends",
			"outputs": [],
			"stateMutability": "nonpayable",
			"type": "function"
		},
		{
			"inputs": [
				{
					"internalType": "address",
					"name": "account",
					"type": "address"
				},
				{
					"internalType": "bool",
					"name": "excluded",
					"type": "bool"
				}
			],
			"name": "excludeFromFees",
			"outputs": [],
			"stateMutability": "nonpayable",
			"type": "function"
		},
		{
			"inputs": [
				{
					"internalType": "address[]",
					"name": "accounts",
					"type": "address[]"
				},
				{
					"internalType": "bool",
					"name": "excluded",
					"type": "bool"
				}
			],
			"name": "excludeMultipleAccountsFromFees",
			"outputs": [],
			"stateMutability": "nonpayable",
			"type": "function"
		},
		{
			"inputs": [],
			"name": "forceSend",
			"outputs": [],
			"stateMutability": "nonpayable",
			"type": "function"
		},
		{
			"inputs": [
				{
					"internalType": "address",
					"name": "account",
					"type": "address"
				}
			],
			"name": "getAccountInfo",
			"outputs": [
				{
					"internalType": "address",
					"name": "",
					"type": "address"
				},
				{
					"internalType": "uint256",
					"name": "",
					"type": "uint256"
				},
				{
					"internalType": "uint256",
					"name": "",
					"type": "uint256"
				},
				{
					"internalType": "uint256",
					"name": "",
					"type": "uint256"
				},
				{
					"internalType": "uint256",
					"name": "",
					"type": "uint256"
				}
			],
			"stateMutability": "view",
			"type": "function"
		},
		{
			"inputs": [],
			"name": "getTotalDividendsDistributed",
			"outputs": [
				{
					"internalType": "uint256",
					"name": "",
					"type": "uint256"
				}
			],
			"stateMutability": "view",
			"type": "function"
		},
		{
			"inputs": [
				{
					"internalType": "address",
					"name": "spender",
					"type": "address"
				},
				{
					"internalType": "uint256",
					"name": "addedValue",
					"type": "uint256"
				}
			],
			"name": "increaseAllowance",
			"outputs": [
				{
					"internalType": "bool",
					"name": "",
					"type": "bool"
				}
			],
			"stateMutability": "nonpayable",
			"type": "function"
		},
		{
			"inputs": [
				{
					"internalType": "address",
					"name": "account",
					"type": "address"
				}
			],
			"name": "isExcludedFromFees",
			"outputs": [
				{
					"internalType": "bool",
					"name": "",
					"type": "bool"
				}
			],
			"stateMutability": "view",
			"type": "function"
		},
		{
			"inputs": [],
			"name": "maxBuyAmount",
			"outputs": [
				{
					"internalType": "uint256",
					"name": "",
					"type": "uint256"
				}
			],
			"stateMutability": "view",
			"type": "function"
		},
		{
			"inputs": [],
			"name": "maxSellAmount",
			"outputs": [
				{
					"internalType": "uint256",
					"name": "",
					"type": "uint256"
				}
			],
			"stateMutability": "view",
			"type": "function"
		},
		{
			"inputs": [],
			"name": "name",
			"outputs": [
				{
					"internalType": "string",
					"name": "",
					"type": "string"
				}
			],
			"stateMutability": "view",
			"type": "function"
		},
		{
			"inputs": [],
			"name": "owner",
			"outputs": [
				{
					"internalType": "address",
					"name": "",
					"type": "address"
				}
			],
			"stateMutability": "view",
			"type": "function"
		},
		{
			"inputs": [],
			"name": "pair",
			"outputs": [
				{
					"internalType": "address",
					"name": "",
					"type": "address"
				}
			],
			"stateMutability": "view",
			"type": "function"
		},
		{
			"inputs": [],
			"name": "renounceOwnership",
			"outputs": [],
			"stateMutability": "nonpayable",
			"type": "function"
		},
		{
			"inputs": [
				{
					"internalType": "address",
					"name": "tokenAddress",
					"type": "address"
				}
			],
			"name": "rescueETH20Tokens",
			"outputs": [],
			"stateMutability": "nonpayable",
			"type": "function"
		},
		{
			"inputs": [],
			"name": "router",
			"outputs": [
				{
					"internalType": "contract IRouter",
					"name": "",
					"type": "address"
				}
			],
			"stateMutability": "view",
			"type": "function"
		},
		{
			"inputs": [],
			"name": "sellTaxes",
			"outputs": [
				{
					"internalType": "uint256",
					"name": "rewards",
					"type": "uint256"
				},
				{
					"internalType": "uint256",
					"name": "treasury",
					"type": "uint256"
				},
				{
					"internalType": "uint256",
					"name": "liquidity",
					"type": "uint256"
				},
				{
					"internalType": "uint256",
					"name": "dev",
					"type": "uint256"
				}
			],
			"stateMutability": "view",
			"type": "function"
		},
		{
			"inputs": [
				{
					"internalType": "address",
					"name": "newPair",
					"type": "address"
				},
				{
					"internalType": "bool",
					"name": "value",
					"type": "bool"
				}
			],
			"name": "setAutomatedMarketMakerPair",
			"outputs": [],
			"stateMutability": "nonpayable",
			"type": "function"
		},
		{
			"inputs": [
				{
					"internalType": "address",
					"name": "bot",
					"type": "address"
				},
				{
					"internalType": "bool",
					"name": "value",
					"type": "bool"
				}
			],
			"name": "setBot",
			"outputs": [],
			"stateMutability": "nonpayable",
			"type": "function"
		},
		{
			"inputs": [
				{
					"internalType": "address[]",
					"name": "bots",
					"type": "address[]"
				},
				{
					"internalType": "bool",
					"name": "value",
					"type": "bool"
				}
			],
			"name": "setBulkBot",
			"outputs": [],
			"stateMutability": "nonpayable",
			"type": "function"
		},
		{
			"inputs": [
				{
					"internalType": "uint256",
					"name": "_rewards",
					"type": "uint256"
				},
				{
					"internalType": "uint256",
					"name": "_treasury",
					"type": "uint256"
				},
				{
					"internalType": "uint256",
					"name": "_liquidity",
					"type": "uint256"
				},
				{
					"internalType": "uint256",
					"name": "_dev",
					"type": "uint256"
				}
			],
			"name": "setBuyTaxes",
			"outputs": [],
			"stateMutability": "nonpayable",
			"type": "function"
		},
		{
			"inputs": [
				{
					"internalType": "bool",
					"name": "state",
					"type": "bool"
				}
			],
			"name": "setClaimEnabled",
			"outputs": [],
			"stateMutability": "nonpayable",
			"type": "function"
		},
		{
			"inputs": [
				{
					"internalType": "address",
					"name": "newWallet",
					"type": "address"
				}
			],
			"name": "setDevWallet",
			"outputs": [],
			"stateMutability": "nonpayable",
			"type": "function"
		},
		{
			"inputs": [
				{
					"internalType": "address",
					"name": "_lpToken",
					"type": "address"
				}
			],
			"name": "setLP_Token",
			"outputs": [],
			"stateMutability": "nonpayable",
			"type": "function"
		},
		{
			"inputs": [
				{
					"internalType": "uint256",
					"name": "maxBuy",
					"type": "uint256"
				},
				{
					"internalType": "uint256",
					"name": "maxSell",
					"type": "uint256"
				}
			],
			"name": "setMaxBuyAndSell",
			"outputs": [],
			"stateMutability": "nonpayable",
			"type": "function"
		},
		{
			"inputs": [
				{
					"internalType": "uint256",
					"name": "_rewards",
					"type": "uint256"
				},
				{
					"internalType": "uint256",
					"name": "_treasury",
					"type": "uint256"
				},
				{
					"internalType": "uint256",
					"name": "_liquidity",
					"type": "uint256"
				},
				{
					"internalType": "uint256",
					"name": "_dev",
					"type": "uint256"
				}
			],
			"name": "setSellTaxes",
			"outputs": [],
			"stateMutability": "nonpayable",
			"type": "function"
		},
		{
			"inputs": [
				{
					"internalType": "bool",
					"name": "_enabled",
					"type": "bool"
				}
			],
			"name": "setSwapEnabled",
			"outputs": [],
			"stateMutability": "nonpayable",
			"type": "function"
		},
		{
			"inputs": [
				{
					"internalType": "uint256",
					"name": "amount",
					"type": "uint256"
				}
			],
			"name": "setSwapTokensAtAmount",
			"outputs": [],
			"stateMutability": "nonpayable",
			"type": "function"
		},
		{
			"inputs": [
				{
					"internalType": "address",
					"name": "newWallet",
					"type": "address"
				}
			],
			"name": "setTreasuryWallet",
			"outputs": [],
			"stateMutability": "nonpayable",
			"type": "function"
		},
		{
			"inputs": [],
			"name": "swapEnabled",
			"outputs": [
				{
					"internalType": "bool",
					"name": "",
					"type": "bool"
				}
			],
			"stateMutability": "view",
			"type": "function"
		},
		{
			"inputs": [],
			"name": "swapTokensAtAmount",
			"outputs": [
				{
					"internalType": "uint256",
					"name": "",
					"type": "uint256"
				}
			],
			"stateMutability": "view",
			"type": "function"
		},
		{
			"inputs": [],
			"name": "symbol",
			"outputs": [
				{
					"internalType": "string",
					"name": "",
					"type": "string"
				}
			],
			"stateMutability": "view",
			"type": "function"
		},
		{
			"inputs": [],
			"name": "totalBuyTax",
			"outputs": [
				{
					"internalType": "uint256",
					"name": "",
					"type": "uint256"
				}
			],
			"stateMutability": "view",
			"type": "function"
		},
		{
			"inputs": [],
			"name": "totalSellTax",
			"outputs": [
				{
					"internalType": "uint256",
					"name": "",
					"type": "uint256"
				}
			],
			"stateMutability": "view",
			"type": "function"
		},
		{
			"inputs": [],
			"name": "totalSupply",
			"outputs": [
				{
					"internalType": "uint256",
					"name": "",
					"type": "uint256"
				}
			],
			"stateMutability": "view",
			"type": "function"
		},
		{
			"inputs": [],
			"name": "trackerForceSend",
			"outputs": [],
			"stateMutability": "nonpayable",
			"type": "function"
		},
		{
			"inputs": [
				{
					"internalType": "address",
					"name": "tokenAddress",
					"type": "address"
				}
			],
			"name": "trackerRescueETH20Tokens",
			"outputs": [],
			"stateMutability": "nonpayable",
			"type": "function"
		},
		{
			"inputs": [],
			"name": "tradingEnabled",
			"outputs": [
				{
					"internalType": "bool",
					"name": "",
					"type": "bool"
				}
			],
			"stateMutability": "view",
			"type": "function"
		},
		{
			"inputs": [
				{
					"internalType": "address",
					"name": "recipient",
					"type": "address"
				},
				{
					"internalType": "uint256",
					"name": "amount",
					"type": "uint256"
				}
			],
			"name": "transfer",
			"outputs": [
				{
					"internalType": "bool",
					"name": "",
					"type": "bool"
				}
			],
			"stateMutability": "nonpayable",
			"type": "function"
		},
		{
			"inputs": [
				{
					"internalType": "address",
					"name": "sender",
					"type": "address"
				},
				{
					"internalType": "address",
					"name": "recipient",
					"type": "address"
				},
				{
					"internalType": "uint256",
					"name": "amount",
					"type": "uint256"
				}
			],
			"name": "transferFrom",
			"outputs": [
				{
					"internalType": "bool",
					"name": "",
					"type": "bool"
				}
			],
			"stateMutability": "nonpayable",
			"type": "function"
		},
		{
			"inputs": [
				{
					"internalType": "address",
					"name": "newOwner",
					"type": "address"
				}
			],
			"name": "transferOwnership",
			"outputs": [],
			"stateMutability": "nonpayable",
			"type": "function"
		},
		{
			"inputs": [],
			"name": "treasuryWallet",
			"outputs": [
				{
					"internalType": "address",
					"name": "",
					"type": "address"
				}
			],
			"stateMutability": "view",
			"type": "function"
		},
		{
			"inputs": [
				{
					"internalType": "address",
					"name": "newAddress",
					"type": "address"
				}
			],
			"name": "updateDividendTracker",
			"outputs": [],
			"stateMutability": "nonpayable",
			"type": "function"
		},
		{
			"inputs": [
				{
					"internalType": "address",
					"name": "newRouter",
					"type": "address"
				}
			],
			"name": "updateRouter",
			"outputs": [],
			"stateMutability": "nonpayable",
			"type": "function"
		},
		{
			"inputs": [
				{
					"internalType": "address",
					"name": "account",
					"type": "address"
				}
			],
			"name": "withdrawableDividendOf",
			"outputs": [
				{
					"internalType": "uint256",
					"name": "",
					"type": "uint256"
				}
			],
			"stateMutability": "view",
			"type": "function"
		},
		{
			"stateMutability": "payable",
			"type": "receive"
		}
	]
}