{
	"data": {
		"bytecode": {
			"linkReferences": {},
			"object": "608060405234801561000f575f80fd5b50604051612d36380380612d3683398181016040528101906100319190610284565b825f73ffffffffffffffffffffffffffffffffffffffff168173ffffffffffffffffffffffffffffffffffffffff16036100a2575f6040517f1e4fbdf700000000000000000000000000000000000000000000000000000000815260040161009991906102e3565b60405180910390fd5b6100b18161016560201b60201c565b50600180819055505f60025f6101000a81548160ff02191690831515021790555081600260016101000a81548173ffffffffffffffffffffffffffffffffffffffff021916908373ffffffffffffffffffffffffffffffffffffffff1602179055508060035f6101000a81548173ffffffffffffffffffffffffffffffffffffffff021916908373ffffffffffffffffffffffffffffffffffffffff1602179055505f6007600101819055505050506102fc565b5f805f9054906101000a900473ffffffffffffffffffffffffffffffffffffffff169050815f806101000a81548173ffffffffffffffffffffffffffffffffffffffff021916908373ffffffffffffffffffffffffffffffffffffffff1602179055508173ffffffffffffffffffffffffffffffffffffffff168173ffffffffffffffffffffffffffffffffffffffff167f8be0079c531659141344cd1fd0a4f28419497f9722a3daafe3b4186f6b6457e060405160405180910390a35050565b5f80fd5b5f73ffffffffffffffffffffffffffffffffffffffff82169050919050565b5f6102538261022a565b9050919050565b61026381610249565b811461026d575f80fd5b50565b5f8151905061027e8161025a565b92915050565b5f805f6060848603121561029b5761029a610226565b5b5f6102a886828701610270565b93505060206102b986828701610270565b92505060406102ca86828701610270565b9150509250925092565b6102dd81610249565b82525050565b5f6020820190506102f65f8301846102d4565b92915050565b612a2d806103095f395ff3fe608060405234801561000f575f80fd5b5060043610610140575f3560e01c806385de26b7116100b6578063e17650731161007a578063e176507314610308578063e754b9c614610338578063f2fde38b14610356578063f3ce61ad14610372578063fc0c546a146103a4578063fcc0be6b146103c257610140565b806385de26b71461026057806386cf6de4146102935780638da5cb5b146102af578063bb7df052146102cd578063cc2ed697146102ec57610140565b80635c975abb116101085780635c975abb146101d65780635ca1e165146101f4578063666ee8541461021257806367d817401461022e578063715018a61461024c5780638456cb591461025657610140565b806317cc915c146101445780631acc8486146101745780632b7ac3f3146101905780633f4ba83a146101ae578063595ba3ed146101b8575b5f80fd5b61015e600480360381019061015991906117b8565b6103e0565b60405161016b91906117fd565b60405180910390f35b61018e600480360381019061018991906118aa565b6103fd565b005b6101986106ac565b6040516101a59190611995565b60405180910390f35b6101b66106d1565b005b6101c06106e3565b6040516101cd91906119bd565b60405180910390f35b6101de6106e9565b6040516101eb91906117fd565b60405180910390f35b6101fc6106fe565b60405161020991906119e5565b60405180910390f35b61022c600480360381019061022791906119fe565b61070a565b005b6102366107ee565b60405161024391906119bd565b60405180910390f35b6102546107f3565b005b61025e610806565b005b61027a600480360381019061027591906117b8565b610818565b60405161028a9493929190611ab7565b60405180910390f35b6102ad60048036038101906102a89190611b5d565b6108d9565b005b6102b7610dbe565b6040516102c49190611bfb565b60405180910390f35b6102d5610de5565b6040516102e3929190611c14565b60405180910390f35b610306600480360381019061030191906119fe565b610df7565b005b610322600480360381019061031d91906119fe565b610f56565b60405161032f9190611cf2565b60405180910390f35b61034061109e565b60405161034d91906119bd565b60405180910390f35b610370600480360381019061036b9190611d12565b6110af565b005b61038c600480360381019061038791906119fe565b611133565b60405161039b93929190611d3d565b60405180910390f35b6103ac611165565b6040516103b99190611d92565b60405180910390f35b6103ca61118b565b6040516103d791906119bd565b60405180910390f35b6004602052805f5260405f205f915054906101000a900460ff1681565b610405611190565b61040d6111d6565b60055f8481526020019081526020015f206002015f9054906101000a900460ff1661046d576040517f08c379a000000000000000000000000000000000000000000000000000000000815260040161046490611e05565b60405180910390fd5b6014600261047b9190611f7f565b600760010154106104c1576040517f08c379a00000000000000000000000000000000000000000000000000000000081526004016104b890612013565b60405180910390fd5b600260019054906101000a900473ffffffffffffffffffffffffffffffffffffffff1673ffffffffffffffffffffffffffffffffffffffff166323b872dd3330866040518463ffffffff1660e01b815260040161052093929190612031565b6020604051808303815f875af115801561053c573d5f803e3d5ffd5b505050506040513d601f19601f820116820180604052508101906105609190612090565b5060405180608001604052808581526020014263ffffffff16815260200184815260200183838080601f0160208091040260200160405190810160405280939291908181526020018383808284375f81840152601f19601f8201169050808301925050505050505081525060065f8681526020019081526020015f205f820151815f01556020820151816001015f6101000a81548163ffffffff021916908363ffffffff16021790555060408201518160020155606082015181600301908161062991906122d9565b509050505f61063785611217565b905060055f8581526020019081526020015f206001015f81548092919061065d906123a8565b919050555083857fce80217ac10251ba83b6b6ce91da12bdd096aa99c37336c00bb01815ff8e77c183426040516106959291906123ef565b60405180910390a3506106a6611482565b50505050565b60035f9054906101000a900473ffffffffffffffffffffffffffffffffffffffff1681565b6106d961148b565b6106e1611512565b565b600b5481565b5f60025f9054906101000a900460ff16905090565b5f600760020154905090565b61071261148b565b60055f8281526020019081526020015f206002015f9054906101000a900460ff16610772576040517f08c379a000000000000000000000000000000000000000000000000000000000815260040161076990612460565b60405180910390fd5b5f60055f8381526020019081526020015f206002015f6101000a81548160ff021916908315150217905550600b5f8154809291906107af9061247e565b91905055507f92d6cd445c3824b8ee6f49f30e8df9c4676634c4e177fadc616918ee2af3ea64816040516107e391906119bd565b60405180910390a150565b600281565b6107fb61148b565b6108045f611573565b565b61080e61148b565b610816611634565b565b6006602052805f5260405f205f91509050805f015490806001015f9054906101000a900463ffffffff169080600201549080600301805461085890612115565b80601f016020809104026020016040519081016040528092919081815260200182805461088490612115565b80156108cf5780601f106108a6576101008083540402835291602001916108cf565b820191905f5260205f20905b8154815290600101906020018083116108b257829003601f168201915b5050505050905084565b6108e1611190565b6108e96111d6565b60646002826108f891906124a5565b6109029190612513565b821115610944576040517f08c379a000000000000000000000000000000000000000000000000000000000815260040161093b9061258d565b60405180910390fd5b60045f8681526020019081526020015f205f9054906101000a900460ff16156109a2576040517f08c379a0000000000000000000000000000000000000000000000000000000008152600401610999906125f5565b60405180910390fd5b60055f8281526020019081526020015f206002015f9054906101000a900460ff16610a02576040517f08c379a00000000000000000000000000000000000000000000000000000000081526004016109f990611e05565b60405180910390fd5b610a0a61175b565b817f010000000000000000000000000000000000000000000000000000000000000084610a3791906124a5565b7a0100000000000000000000000000000000000000000000000000008673ffffffffffffffffffffffffffffffffffffffff16610a7491906124a5565b740100000000000000000000000000000000000000008873ffffffffffffffffffffffffffffffffffffffff16610aab91906124a5565b895f1c610ab89190612613565b610ac29190612613565b610acc9190612613565b610ad69190612613565b815f60018110610ae957610ae8612646565b5b60200201818152505060035f9054906101000a900473ffffffffffffffffffffffffffffffffffffffff1673ffffffffffffffffffffffffffffffffffffffff16631b81f82988836040518363ffffffff1660e01b8152600401610b4e929190612732565b602060405180830381865afa158015610b69573d5f803e3d5ffd5b505050506040513d601f19601f82011682018060405250810190610b8d9190612090565b610bcc576040517f08c379a0000000000000000000000000000000000000000000000000000000008152600401610bc3906127a5565b60405180910390fd5b600160045f8881526020019081526020015f205f6101000a81548160ff0219169083151502179055505f831115610c9c57600260019054906101000a900473ffffffffffffffffffffffffffffffffffffffff1673ffffffffffffffffffffffffffffffffffffffff1663a9059cbb85856040518363ffffffff1660e01b8152600401610c5a9291906127c3565b6020604051808303815f875af1158015610c76573d5f803e3d5ffd5b505050506040513d601f19601f82011682018060405250810190610c9a9190612090565b505b600260019054906101000a900473ffffffffffffffffffffffffffffffffffffffff1673ffffffffffffffffffffffffffffffffffffffff1663a9059cbb868585610ce791906127ea565b6040518363ffffffff1660e01b8152600401610d049291906127c3565b6020604051808303815f875af1158015610d20573d5f803e3d5ffd5b505050506040513d601f19601f82011682018060405250810190610d449190612090565b508373ffffffffffffffffffffffffffffffffffffffff16868673ffffffffffffffffffffffffffffffffffffffff167f6d7aac54bd3d1c91db3b1fd7b8d6cb45324ad6b5e373c0f0ea4d7b2606c4c2c88587604051610da592919061281d565b60405180910390a450610db6611482565b505050505050565b5f805f9054906101000a900473ffffffffffffffffffffffffffffffffffffffff16905090565b60078060010154908060020154905082565b610dff61148b565b5f8111610e41576040517f08c379a0000000000000000000000000000000000000000000000000000000008152600401610e389061288e565b60405180910390fd5b60055f8281526020019081526020015f206002015f9054906101000a900460ff1615610ea2576040517f08c379a0000000000000000000000000000000000000000000000000000000008152600401610e99906128f6565b60405180910390fd5b60405180606001604052808281526020015f81526020016001151581525060055f8381526020019081526020015f205f820151815f0155602082015181600101556040820151816002015f6101000a81548160ff021916908315150217905550905050600b5f815480929190610f17906123a8565b91905055507f8a5735e0baf05ee5a04a6dd24654f14b2f442d7fc7321c0dc098b8e338bc040881604051610f4b91906119bd565b60405180910390a150565b60606007600101548210610f9f576040517f08c379a0000000000000000000000000000000000000000000000000000000008152600401610f969061295e565b60405180910390fd5b5f601467ffffffffffffffff811115610fbb57610fba6120bb565b5b604051908082528060200260200182016040528015610fe95781602001602082028036833780820191505090505b5090505f8390505f5b6014811015611093575f8060028461100a919061297c565b036110235760018361101c9190612613565b9050611033565b60018361103091906127ea565b90505b60076003015f8281526020019081526020015f205f8381526020019081526020015f205484838151811061106a57611069612646565b5b6020026020010181815250506002836110839190612513565b9250508080600101915050610ff2565b508192505050919050565b601460026110ac9190611f7f565b81565b6110b761148b565b5f73ffffffffffffffffffffffffffffffffffffffff168173ffffffffffffffffffffffffffffffffffffffff1603611127575f6040517f1e4fbdf700000000000000000000000000000000000000000000000000000000815260040161111e9190611bfb565b60405180910390fd5b61113081611573565b50565b6005602052805f5260405f205f91509050805f015490806001015490806002015f9054906101000a900460ff16905083565b600260019054906101000a900473ffffffffffffffffffffffffffffffffffffffff1681565b601481565b6002600154036111cc576040517f3ee5aeb500000000000000000000000000000000000000000000000000000000815260040160405180910390fd5b6002600181905550565b6111de6106e9565b15611215576040517fd93c066500000000000000000000000000000000000000000000000000000000815260040160405180910390fd5b565b5f8060076001015490506014600261122f9190611f7f565b8163ffffffff1610611276576040517f08c379a000000000000000000000000000000000000000000000000000000000815260040161126d90612013565b60405180910390fd5b60075f0183908060018154018082558091505060019003905f5260205f20015f90919091909150558260076003015f8363ffffffff1681526020019081526020015f205f8081526020019081526020015f20819055505f808263ffffffff1690505f805b601484101561142d575f6002846112f1919061297c565b036113695760076003015f8481526020019081526020015f205f8581526020019081526020015f2054915061132584611696565b905061133182826116e2565b60076003015f8581526020019081526020015f205f6001876113539190612613565b81526020019081526020015f208190555061140b565b60076003015f60018561137c91906127ea565b81526020019081526020015f205f8581526020019081526020015f2054915060076003015f8481526020019081526020015f205f8581526020019081526020015f205490506113cb82826116e2565b60076003015f6001866113de91906127ea565b81526020019081526020015f205f6001876113f99190612613565b81526020019081526020015f20819055505b6002836114189190612513565b92508380611425906123a8565b9450506112da565b60076003015f8081526020019081526020015f205f601481526020019081526020015f205460076002018190555060076001015f815480929190611470906123a8565b91905055508495505050505050919050565b60018081905550565b611493611714565b73ffffffffffffffffffffffffffffffffffffffff166114b1610dbe565b73ffffffffffffffffffffffffffffffffffffffff1614611510576114d4611714565b6040517f118cdaa70000000000000000000000000000000000000000000000000000000081526004016115079190611bfb565b60405180910390fd5b565b61151a61171b565b5f60025f6101000a81548160ff0219169083151502179055507f5db9ee0a495bf2e6ff9c91a7834c1ba4fdd244a5e8aa4e537bd38aeae4b073aa61155c611714565b6040516115699190611bfb565b60405180910390a1565b5f805f9054906101000a900473ffffffffffffffffffffffffffffffffffffffff169050815f806101000a81548173ffffffffffffffffffffffffffffffffffffffff021916908373ffffffffffffffffffffffffffffffffffffffff1602179055508173ffffffffffffffffffffffffffffffffffffffff168173ffffffffffffffffffffffffffffffffffffffff167f8be0079c531659141344cd1fd0a4f28419497f9722a3daafe3b4186f6b6457e060405160405180910390a35050565b61163c6111d6565b600160025f6101000a81548160ff0219169083151502179055507f62e78cea01bee320cd4e420270b5ea74000d11b0c9f74754ebdbfc544b05a25861167f611714565b60405161168c9190611bfb565b60405180910390a1565b5f8082036116a8575f801b90506116dd565b6116da6116c06001846116bb91906127ea565b611696565b6116d56001856116d091906127ea565b611696565b6116e2565b90505b919050565b5f82826040516020016116f69291906129cc565b60405160208183030381529060405280519060200120905092915050565b5f33905090565b6117236106e9565b611759576040517f8dfc202b00000000000000000000000000000000000000000000000000000000815260040160405180910390fd5b565b6040518060200160405280600190602082028036833780820191505090505090565b5f80fd5b5f80fd5b5f819050919050565b61179781611785565b81146117a1575f80fd5b50565b5f813590506117b28161178e565b92915050565b5f602082840312156117cd576117cc61177d565b5b5f6117da848285016117a4565b91505092915050565b5f8115159050919050565b6117f7816117e3565b82525050565b5f6020820190506118105f8301846117ee565b92915050565b5f819050919050565b61182881611816565b8114611832575f80fd5b50565b5f813590506118438161181f565b92915050565b5f80fd5b5f80fd5b5f80fd5b5f8083601f84011261186a57611869611849565b5b8235905067ffffffffffffffff8111156118875761188661184d565b5b6020830191508360018202830111156118a3576118a2611851565b5b9250929050565b5f805f80606085870312156118c2576118c161177d565b5b5f6118cf878288016117a4565b94505060206118e087828801611835565b935050604085013567ffffffffffffffff81111561190157611900611781565b5b61190d87828801611855565b925092505092959194509250565b5f73ffffffffffffffffffffffffffffffffffffffff82169050919050565b5f819050919050565b5f61195d6119586119538461191b565b61193a565b61191b565b9050919050565b5f61196e82611943565b9050919050565b5f61197f82611964565b9050919050565b61198f81611975565b82525050565b5f6020820190506119a85f830184611986565b92915050565b6119b781611816565b82525050565b5f6020820190506119d05f8301846119ae565b92915050565b6119df81611785565b82525050565b5f6020820190506119f85f8301846119d6565b92915050565b5f60208284031215611a1357611a1261177d565b5b5f611a2084828501611835565b91505092915050565b5f63ffffffff82169050919050565b611a4181611a29565b82525050565b5f81519050919050565b5f82825260208201905092915050565b8281835e5f83830152505050565b5f601f19601f8301169050919050565b5f611a8982611a47565b611a938185611a51565b9350611aa3818560208601611a61565b611aac81611a6f565b840191505092915050565b5f608082019050611aca5f8301876119d6565b611ad76020830186611a38565b611ae460408301856119ae565b8181036060830152611af68184611a7f565b905095945050505050565b5f81905082602060080282011115611b1c57611b1b611851565b5b92915050565b5f611b2c8261191b565b9050919050565b611b3c81611b22565b8114611b46575f80fd5b50565b5f81359050611b5781611b33565b92915050565b5f805f805f806101a08789031215611b7857611b7761177d565b5b5f611b8589828a01611b01565b965050610100611b9789828a016117a4565b955050610120611ba989828a01611b49565b945050610140611bbb89828a01611b49565b935050610160611bcd89828a01611835565b925050610180611bdf89828a01611835565b9150509295509295509295565b611bf581611b22565b82525050565b5f602082019050611c0e5f830184611bec565b92915050565b5f604082019050611c275f8301856119ae565b611c3460208301846119d6565b9392505050565b5f81519050919050565b5f82825260208201905092915050565b5f819050602082019050919050565b611c6d81611785565b82525050565b5f611c7e8383611c64565b60208301905092915050565b5f602082019050919050565b5f611ca082611c3b565b611caa8185611c45565b9350611cb583611c55565b805f5b83811015611ce5578151611ccc8882611c73565b9750611cd783611c8a565b925050600181019050611cb8565b5085935050505092915050565b5f6020820190508181035f830152611d0a8184611c96565b905092915050565b5f60208284031215611d2757611d2661177d565b5b5f611d3484828501611b49565b91505092915050565b5f606082019050611d505f8301866119ae565b611d5d60208301856119ae565b611d6a60408301846117ee565b949350505050565b5f611d7c82611964565b9050919050565b611d8c81611d72565b82525050565b5f602082019050611da55f830184611d83565b92915050565b5f82825260208201905092915050565b7f496e76616c69642064656e6f6d696e6174696f6e0000000000000000000000005f82015250565b5f611def601483611dab565b9150611dfa82611dbb565b602082019050919050565b5f6020820190508181035f830152611e1c81611de3565b9050919050565b7f4e487b71000000000000000000000000000000000000000000000000000000005f52601160045260245ffd5b5f8160011c9050919050565b5f808291508390505b6001851115611ea557808604811115611e8157611e80611e23565b5b6001851615611e905780820291505b8081029050611e9e85611e50565b9450611e65565b94509492505050565b5f82611ebd5760019050611f78565b81611eca575f9050611f78565b8160018114611ee05760028114611eea57611f19565b6001915050611f78565b60ff841115611efc57611efb611e23565b5b8360020a915084821115611f1357611f12611e23565b5b50611f78565b5060208310610133831016604e8410600b8410161715611f4e5782820a905083811115611f4957611f48611e23565b5b611f78565b611f5b8484846001611e5c565b92509050818404811115611f7257611f71611e23565b5b81810290505b9392505050565b5f611f8982611816565b9150611f9483611816565b9250611fc17fffffffffffffffffffffffffffffffffffffffffffffffffffffffffffffffff8484611eae565b905092915050565b7f547265652066756c6c00000000000000000000000000000000000000000000005f82015250565b5f611ffd600983611dab565b915061200882611fc9565b602082019050919050565b5f6020820190508181035f83015261202a81611ff1565b9050919050565b5f6060820190506120445f830186611bec565b6120516020830185611bec565b61205e60408301846119ae565b949350505050565b61206f816117e3565b8114612079575f80fd5b50565b5f8151905061208a81612066565b92915050565b5f602082840312156120a5576120a461177d565b5b5f6120b28482850161207c565b91505092915050565b7f4e487b71000000000000000000000000000000000000000000000000000000005f52604160045260245ffd5b7f4e487b71000000000000000000000000000000000000000000000000000000005f52602260045260245ffd5b5f600282049050600182168061212c57607f821691505b60208210810361213f5761213e6120e8565b5b50919050565b5f819050815f5260205f209050919050565b5f6020601f8301049050919050565b5f82821b905092915050565b5f600883026121a17fffffffffffffffffffffffffffffffffffffffffffffffffffffffffffffffff82612166565b6121ab8683612166565b95508019841693508086168417925050509392505050565b5f6121dd6121d86121d384611816565b61193a565b611816565b9050919050565b5f819050919050565b6121f6836121c3565b61220a612202826121e4565b848454612172565b825550505050565b5f90565b61221e612212565b6122298184846121ed565b505050565b5b8181101561224c576122415f82612216565b60018101905061222f565b5050565b601f8211156122915761226281612145565b61226b84612157565b8101602085101561227a578190505b61228e61228685612157565b83018261222e565b50505b505050565b5f82821c905092915050565b5f6122b15f1984600802612296565b1980831691505092915050565b5f6122c983836122a2565b9150826002028217905092915050565b6122e282611a47565b67ffffffffffffffff8111156122fb576122fa6120bb565b5b6123058254612115565b612310828285612250565b5f60209050601f831160018114612341575f841561232f578287015190505b61233985826122be565b8655506123a0565b601f19841661234f86612145565b5f5b8281101561237657848901518255600182019150602085019450602081019050612351565b86831015612393578489015161238f601f8916826122a2565b8355505b6001600288020188555050505b505050505050565b5f6123b282611816565b91507fffffffffffffffffffffffffffffffffffffffffffffffffffffffffffffffff82036123e4576123e3611e23565b5b600182019050919050565b5f6040820190506124025f830185611a38565b61240f60208301846119ae565b9392505050565b7f44656e6f6d696e6174696f6e206e6f7420656e61626c656400000000000000005f82015250565b5f61244a601883611dab565b915061245582612416565b602082019050919050565b5f6020820190508181035f8301526124778161243e565b9050919050565b5f61248882611816565b91505f820361249a57612499611e23565b5b600182039050919050565b5f6124af82611816565b91506124ba83611816565b92508282026124c881611816565b915082820484148315176124df576124de611e23565b5b5092915050565b7f4e487b71000000000000000000000000000000000000000000000000000000005f52601260045260245ffd5b5f61251d82611816565b915061252883611816565b925082612538576125376124e6565b5b828204905092915050565b7f46656520746f6f206869676800000000000000000000000000000000000000005f82015250565b5f612577600c83611dab565b915061258282612543565b602082019050919050565b5f6020820190508181035f8301526125a48161256b565b9050919050565b7f4e6f746520616c7265616479207370656e7400000000000000000000000000005f82015250565b5f6125df601283611dab565b91506125ea826125ab565b602082019050919050565b5f6020820190508181035f83015261260c816125d3565b9050919050565b5f61261d82611816565b915061262883611816565b92508282019050808211156126405761263f611e23565b5b92915050565b7f4e487b71000000000000000000000000000000000000000000000000000000005f52603260045260245ffd5b82818337505050565b6126896101008383612673565b5050565b5f60019050919050565b5f81905092915050565b5f819050919050565b6126b381611816565b82525050565b5f6126c483836126aa565b60208301905092915050565b5f602082019050919050565b6126e58161268d565b6126ef8184612697565b92506126fa826126a1565b805f5b8381101561272a57815161271187826126b9565b965061271c836126d0565b9250506001810190506126fd565b505050505050565b5f610120820190506127465f83018561267c565b6127546101008301846126dc565b9392505050565b7f496e76616c69642070726f6f66000000000000000000000000000000000000005f82015250565b5f61278f600d83611dab565b915061279a8261275b565b602082019050919050565b5f6020820190508181035f8301526127bc81612783565b9050919050565b5f6040820190506127d65f830185611bec565b6127e360208301846119ae565b9392505050565b5f6127f482611816565b91506127ff83611816565b925082820390508181111561281757612816611e23565b5b92915050565b5f6040820190506128305f8301856119ae565b61283d60208301846119ae565b9392505050565b7f496e76616c696420616d6f756e740000000000000000000000000000000000005f82015250565b5f612878600e83611dab565b915061288382612844565b602082019050919050565b5f6020820190508181035f8301526128a58161286c565b9050919050565b7f44656e6f6d696e6174696f6e20657869737473000000000000000000000000005f82015250565b5f6128e0601383611dab565b91506128eb826128ac565b602082019050919050565b5f6020820190508181035f83015261290d816128d4565b9050919050565b7f496e646578206f7574206f6620626f756e6473000000000000000000000000005f82015250565b5f612948601383611dab565b915061295382612914565b602082019050919050565b5f6020820190508181035f8301526129758161293c565b9050919050565b5f61298682611816565b915061299183611816565b9250826129a1576129a06124e6565b5b828206905092915050565b5f819050919050565b6129c66129c182611785565b6129ac565b82525050565b5f6129d782856129b5565b6020820191506129e782846129b5565b602082019150819050939250505056fea264697066735822122069e24e512f184a8541e999023b789f7bced51e13d9b44c508ad3f8aafafc7de964736f6c634300081a0033",
			"opcodes": "PUSH1 0x80 PUSH1 0x40 MSTORE CALLVALUE DUP1 ISZERO PUSH2 0xF JUMPI PUSH0 DUP1 REVERT JUMPDEST POP PUSH1 0x40 MLOAD PUSH2 0x2D36 CODESIZE SUB DUP1 PUSH2 0x2D36 DUP4 CODECOPY DUP2 DUP2 ADD PUSH1 0x40 MSTORE DUP2 ADD SWAP1 PUSH2 0x31 SWAP2 SWAP1 PUSH2 0x284 JUMP JUMPDEST DUP3 PUSH0 PUSH20 0xFFFFFFFFFFFFFFFFFFFFFFFFFFFFFFFFFFFFFFFF AND DUP2 PUSH20 0xFFFFFFFFFFFFFFFFFFFFFFFFFFFFFFFFFFFFFFFF AND SUB PUSH2 0xA2 JUMPI PUSH0 PUSH1 0x40 MLOAD PUSH32 0x1E4FBDF700000000000000000000000000000000000000000000000000000000 DUP2 MSTORE PUSH1 0x4 ADD PUSH2 0x99 SWAP2 SWAP1 PUSH2 0x2E3 JUMP JUMPDEST PUSH1 0x40 MLOAD DUP1 SWAP2 SUB SWAP1 REVERT JUMPDEST PUSH2 0xB1 DUP2 PUSH2 0x165 PUSH1 0x20 SHL PUSH1 0x20 SHR JUMP JUMPDEST POP PUSH1 0x1 DUP1 DUP2 SWAP1 SSTORE POP PUSH0 PUSH1 0x2 PUSH0 PUSH2 0x100 EXP DUP2 SLOAD DUP2 PUSH1 0xFF MUL NOT AND SWAP1 DUP4 ISZERO ISZERO MUL OR SWAP1 SSTORE POP DUP2 PUSH1 0x2 PUSH1 0x1 PUSH2 0x100 EXP DUP2 SLOAD DUP2 PUSH20 0xFFFFFFFFFFFFFFFFFFFFFFFFFFFFFFFFFFFFFFFF MUL NOT AND SWAP1 DUP4 PUSH20 0xFFFFFFFFFFFFFFFFFFFFFFFFFFFFFFFFFFFFFFFF AND MUL OR SWAP1 SSTORE POP DUP1 PUSH1 0x3 PUSH0 PUSH2 0x100 EXP DUP2 SLOAD DUP2 PUSH20 0xFFFFFFFFFFFFFFFFFFFFFFFFFFFFFFFFFFFFFFFF MUL NOT AND SWAP1 DUP4 PUSH20 0xFFFFFFFFFFFFFFFFFFFFFFFFFFFFFFFFFFFFFFFF AND MUL OR SWAP1 SSTORE POP PUSH0 PUSH1 0x7 PUSH1 0x1 ADD DUP2 SWAP1 SSTORE POP POP POP POP PUSH2 0x2FC JUMP JUMPDEST PUSH0 DUP1 PUSH0 SWAP1 SLOAD SWAP1 PUSH2 0x100 EXP SWAP1 DIV PUSH20 0xFFFFFFFFFFFFFFFFFFFFFFFFFFFFFFFFFFFFFFFF AND SWAP1 POP DUP2 PUSH0 DUP1 PUSH2 0x100 EXP DUP2 SLOAD DUP2 PUSH20 0xFFFFFFFFFFFFFFFFFFFFFFFFFFFFFFFFFFFFFFFF MUL NOT AND SWAP1 DUP4 PUSH20 0xFFFFFFFFFFFFFFFFFFFFFFFFFFFFFFFFFFFFFFFF AND MUL OR SWAP1 SSTORE POP DUP2 PUSH20 0xFFFFFFFFFFFFFFFFFFFFFFFFFFFFFFFFFFFFFFFF AND DUP2 PUSH20 0xFFFFFFFFFFFFFFFFFFFFFFFFFFFFFFFFFFFFFFFF AND PUSH32 0x8BE0079C531659141344CD1FD0A4F28419497F9722A3DAAFE3B4186F6B6457E0 PUSH1 0x40 MLOAD PUSH1 0x40 MLOAD DUP1 SWAP2 SUB SWAP1 LOG3 POP POP JUMP JUMPDEST PUSH0 DUP1 REVERT JUMPDEST PUSH0 PUSH20 0xFFFFFFFFFFFFFFFFFFFFFFFFFFFFFFFFFFFFFFFF DUP3 AND SWAP1 POP SWAP2 SWAP1 POP JUMP JUMPDEST PUSH0 PUSH2 0x253 DUP3 PUSH2 0x22A JUMP JUMPDEST SWAP1 POP SWAP2 SWAP1 POP JUMP JUMPDEST PUSH2 0x263 DUP2 PUSH2 0x249 JUMP JUMPDEST DUP2 EQ PUSH2 0x26D JUMPI PUSH0 DUP1 REVERT JUMPDEST POP JUMP JUMPDEST PUSH0 DUP2 MLOAD SWAP1 POP PUSH2 0x27E DUP2 PUSH2 0x25A JUMP JUMPDEST SWAP3 SWAP2 POP POP JUMP JUMPDEST PUSH0 DUP1 PUSH0 PUSH1 0x60 DUP5 DUP7 SUB SLT ISZERO PUSH2 0x29B JUMPI PUSH2 0x29A PUSH2 0x226 JUMP JUMPDEST JUMPDEST PUSH0 PUSH2 0x2A8 DUP7 DUP3 DUP8 ADD PUSH2 0x270 JUMP JUMPDEST SWAP4 POP POP PUSH1 0x20 PUSH2 0x2B9 DUP7 DUP3 DUP8 ADD PUSH2 0x270 JUMP JUMPDEST SWAP3 POP POP PUSH1 0x40 PUSH2 0x2CA DUP7 DUP3 DUP8 ADD PUSH2 0x270 JUMP JUMPDEST SWAP2 POP POP SWAP3 POP SWAP3 POP SWAP3 JUMP JUMPDEST PUSH2 0x2DD DUP2 PUSH2 0x249 JUMP JUMPDEST DUP3 MSTORE POP POP JUMP JUMPDEST PUSH0 PUSH1 0x20 DUP3 ADD SWAP1 POP PUSH2 0x2F6 PUSH0 DUP4 ADD DUP5 PUSH2 0x2D4 JUMP JUMPDEST SWAP3 SWAP2 POP POP JUMP JUMPDEST PUSH2 0x2A2D DUP1 PUSH2 0x309 PUSH0 CODECOPY PUSH0 RETURN INVALID PUSH1 0x80 PUSH1 0x40 MSTORE CALLVALUE DUP1 ISZERO PUSH2 0xF JUMPI PUSH0 DUP1 REVERT JUMPDEST POP PUSH1 0x4 CALLDATASIZE LT PUSH2 0x140 JUMPI PUSH0 CALLDATALOAD PUSH1 0xE0 SHR DUP1 PUSH4 0x85DE26B7 GT PUSH2 0xB6 JUMPI DUP1 PUSH4 0xE1765073 GT PUSH2 0x7A JUMPI DUP1 PUSH4 0xE1765073 EQ PUSH2 0x308 JUMPI DUP1 PUSH4 0xE754B9C6 EQ PUSH2 0x338 JUMPI DUP1 PUSH4 0xF2FDE38B EQ PUSH2 0x356 JUMPI DUP1 PUSH4 0xF3CE61AD EQ PUSH2 0x372 JUMPI DUP1 PUSH4 0xFC0C546A EQ PUSH2 0x3A4 JUMPI DUP1 PUSH4 0xFCC0BE6B EQ PUSH2 0x3C2 JUMPI PUSH2 0x140 JUMP JUMPDEST DUP1 PUSH4 0x85DE26B7 EQ PUSH2 0x260 JUMPI DUP1 PUSH4 0x86CF6DE4 EQ PUSH2 0x293 JUMPI DUP1 PUSH4 0x8DA5CB5B EQ PUSH2 0x2AF JUMPI DUP1 PUSH4 0xBB7DF052 EQ PUSH2 0x2CD JUMPI DUP1 PUSH4 0xCC2ED697 EQ PUSH2 0x2EC JUMPI PUSH2 0x140 JUMP JUMPDEST DUP1 PUSH4 0x5C975ABB GT PUSH2 0x108 JUMPI DUP1 PUSH4 0x5C975ABB EQ PUSH2 0x1D6 JUMPI DUP1 PUSH4 0x5CA1E165 EQ PUSH2 0x1F4 JUMPI DUP1 PUSH4 0x666EE854 EQ PUSH2 0x212 JUMPI DUP1 PUSH4 0x67D81740 EQ PUSH2 0x22E JUMPI DUP1 PUSH4 0x715018A6 EQ PUSH2 0x24C JUMPI DUP1 PUSH4 0x8456CB59 EQ PUSH2 0x256 JUMPI PUSH2 0x140 JUMP JUMPDEST DUP1 PUSH4 0x17CC915C EQ PUSH2 0x144 JUMPI DUP1 PUSH4 0x1ACC8486 EQ PUSH2 0x174 JUMPI DUP1 PUSH4 0x2B7AC3F3 EQ PUSH2 0x190 JUMPI DUP1 PUSH4 0x3F4BA83A EQ PUSH2 0x1AE JUMPI DUP1 PUSH4 0x595BA3ED EQ PUSH2 0x1B8 JUMPI JUMPDEST PUSH0 DUP1 REVERT JUMPDEST PUSH2 0x15E PUSH1 0x4 DUP1 CALLDATASIZE SUB DUP2 ADD SWAP1 PUSH2 0x159 SWAP2 SWAP1 PUSH2 0x17B8 JUMP JUMPDEST PUSH2 0x3E0 JUMP JUMPDEST PUSH1 0x40 MLOAD PUSH2 0x16B SWAP2 SWAP1 PUSH2 0x17FD JUMP JUMPDEST PUSH1 0x40 MLOAD DUP1 SWAP2 SUB SWAP1 RETURN JUMPDEST PUSH2 0x18E PUSH1 0x4 DUP1 CALLDATASIZE SUB DUP2 ADD SWAP1 PUSH2 0x189 SWAP2 SWAP1 PUSH2 0x18AA JUMP JUMPDEST PUSH2 0x3FD JUMP JUMPDEST STOP JUMPDEST PUSH2 0x198 PUSH2 0x6AC JUMP JUMPDEST PUSH1 0x40 MLOAD PUSH2 0x1A5 SWAP2 SWAP1 PUSH2 0x1995 JUMP JUMPDEST PUSH1 0x40 MLOAD DUP1 SWAP2 SUB SWAP1 RETURN JUMPDEST PUSH2 0x1B6 PUSH2 0x6D1 JUMP JUMPDEST STOP JUMPDEST PUSH2 0x1C0 PUSH2 0x6E3 JUMP JUMPDEST PUSH1 0x40 MLOAD PUSH2 0x1CD SWAP2 SWAP1 PUSH2 0x19BD JUMP JUMPDEST PUSH1 0x40 MLOAD DUP1 SWAP2 SUB SWAP1 RETURN JUMPDEST PUSH2 0x1DE PUSH2 0x6E9 JUMP JUMPDEST PUSH1 0x40 MLOAD PUSH2 0x1EB SWAP2 SWAP1 PUSH2 0x17FD JUMP JUMPDEST PUSH1 0x40 MLOAD DUP1 SWAP2 SUB SWAP1 RETURN JUMPDEST PUSH2 0x1FC PUSH2 0x6FE JUMP JUMPDEST PUSH1 0x40 MLOAD PUSH2 0x209 SWAP2 SWAP1 PUSH2 0x19E5 JUMP JUMPDEST PUSH1 0x40 MLOAD DUP1 SWAP2 SUB SWAP1 RETURN JUMPDEST PUSH2 0x22C PUSH1 0x4 DUP1 CALLDATASIZE SUB DUP2 ADD SWAP1 PUSH2 0x227 SWAP2 SWAP1 PUSH2 0x19FE JUMP JUMPDEST PUSH2 0x70A JUMP JUMPDEST STOP JUMPDEST PUSH2 0x236 PUSH2 0x7EE JUMP JUMPDEST PUSH1 0x40 MLOAD PUSH2 0x243 SWAP2 SWAP1 PUSH2 0x19BD JUMP JUMPDEST PUSH1 0x40 MLOAD DUP1 SWAP2 SUB SWAP1 RETURN JUMPDEST PUSH2 0x254 PUSH2 0x7F3 JUMP JUMPDEST STOP JUMPDEST PUSH2 0x25E PUSH2 0x806 JUMP JUMPDEST STOP JUMPDEST PUSH2 0x27A PUSH1 0x4 DUP1 CALLDATASIZE SUB DUP2 ADD SWAP1 PUSH2 0x275 SWAP2 SWAP1 PUSH2 0x17B8 JUMP JUMPDEST PUSH2 0x818 JUMP JUMPDEST PUSH1 0x40 MLOAD PUSH2 0x28A SWAP5 SWAP4 SWAP3 SWAP2 SWAP1 PUSH2 0x1AB7 JUMP JUMPDEST PUSH1 0x40 MLOAD DUP1 SWAP2 SUB SWAP1 RETURN JUMPDEST PUSH2 0x2AD PUSH1 0x4 DUP1 CALLDATASIZE SUB DUP2 ADD SWAP1 PUSH2 0x2A8 SWAP2 SWAP1 PUSH2 0x1B5D JUMP JUMPDEST PUSH2 0x8D9 JUMP JUMPDEST STOP JUMPDEST PUSH2 0x2B7 PUSH2 0xDBE JUMP JUMPDEST PUSH1 0x40 MLOAD PUSH2 0x2C4 SWAP2 SWAP1 PUSH2 0x1BFB JUMP JUMPDEST PUSH1 0x40 MLOAD DUP1 SWAP2 SUB SWAP1 RETURN JUMPDEST PUSH2 0x2D5 PUSH2 0xDE5 JUMP JUMPDEST PUSH1 0x40 MLOAD PUSH2 0x2E3 SWAP3 SWAP2 SWAP1 PUSH2 0x1C14 JUMP JUMPDEST PUSH1 0x40 MLOAD DUP1 SWAP2 SUB SWAP1 RETURN JUMPDEST PUSH2 0x306 PUSH1 0x4 DUP1 CALLDATASIZE SUB DUP2 ADD SWAP1 PUSH2 0x301 SWAP2 SWAP1 PUSH2 0x19FE JUMP JUMPDEST PUSH2 0xDF7 JUMP JUMPDEST STOP JUMPDEST PUSH2 0x322 PUSH1 0x4 DUP1 CALLDATASIZE SUB DUP2 ADD SWAP1 PUSH2 0x31D SWAP2 SWAP1 PUSH2 0x19FE JUMP JUMPDEST PUSH2 0xF56 JUMP JUMPDEST PUSH1 0x40 MLOAD PUSH2 0x32F SWAP2 SWAP1 PUSH2 0x1CF2 JUMP JUMPDEST PUSH1 0x40 MLOAD DUP1 SWAP2 SUB SWAP1 RETURN JUMPDEST PUSH2 0x340 PUSH2 0x109E JUMP JUMPDEST PUSH1 0x40 MLOAD PUSH2 0x34D SWAP2 SWAP1 PUSH2 0x19BD JUMP JUMPDEST PUSH1 0x40 MLOAD DUP1 SWAP2 SUB SWAP1 RETURN JUMPDEST PUSH2 0x370 PUSH1 0x4 DUP1 CALLDATASIZE SUB DUP2 ADD SWAP1 PUSH2 0x36B SWAP2 SWAP1 PUSH2 0x1D12 JUMP JUMPDEST PUSH2 0x10AF JUMP JUMPDEST STOP JUMPDEST PUSH2 0x38C PUSH1 0x4 DUP1 CALLDATASIZE SUB DUP2 ADD SWAP1 PUSH2 0x387 SWAP2 SWAP1 PUSH2 0x19FE JUMP JUMPDEST PUSH2 0x1133 JUMP JUMPDEST PUSH1 0x40 MLOAD PUSH2 0x39B SWAP4 SWAP3 SWAP2 SWAP1 PUSH2 0x1D3D JUMP JUMPDEST PUSH1 0x40 MLOAD DUP1 SWAP2 SUB SWAP1 RETURN JUMPDEST PUSH2 0x3AC PUSH2 0x1165 JUMP JUMPDEST PUSH1 0x40 MLOAD PUSH2 0x3B9 SWAP2 SWAP1 PUSH2 0x1D92 JUMP JUMPDEST PUSH1 0x40 MLOAD DUP1 SWAP2 SUB SWAP1 RETURN JUMPDEST PUSH2 0x3CA PUSH2 0x118B JUMP JUMPDEST PUSH1 0x40 MLOAD PUSH2 0x3D7 SWAP2 SWAP1 PUSH2 0x19BD JUMP JUMPDEST PUSH1 0x40 MLOAD DUP1 SWAP2 SUB SWAP1 RETURN JUMPDEST PUSH1 0x4 PUSH1 0x20 MSTORE DUP1 PUSH0 MSTORE PUSH1 0x40 PUSH0 KECCAK256 PUSH0 SWAP2 POP SLOAD SWAP1 PUSH2 0x100 EXP SWAP1 DIV PUSH1 0xFF AND DUP2 JUMP JUMPDEST PUSH2 0x405 PUSH2 0x1190 JUMP JUMPDEST PUSH2 0x40D PUSH2 0x11D6 JUMP JUMPDEST PUSH1 0x5 PUSH0 DUP5 DUP2 MSTORE PUSH1 0x20 ADD SWAP1 DUP2 MSTORE PUSH1 0x20 ADD PUSH0 KECCAK256 PUSH1 0x2 ADD PUSH0 SWAP1 SLOAD SWAP1 PUSH2 0x100 EXP SWAP1 DIV PUSH1 0xFF AND PUSH2 0x46D JUMPI PUSH1 0x40 MLOAD PUSH32 0x8C379A000000000000000000000000000000000000000000000000000000000 DUP2 MSTORE PUSH1 0x4 ADD PUSH2 0x464 SWAP1 PUSH2 0x1E05 JUMP JUMPDEST PUSH1 0x40 MLOAD DUP1 SWAP2 SUB SWAP1 REVERT JUMPDEST PUSH1 0x14 PUSH1 0x2 PUSH2 0x47B SWAP2 SWAP1 PUSH2 0x1F7F JUMP JUMPDEST PUSH1 0x7 PUSH1 0x1 ADD SLOAD LT PUSH2 0x4C1 JUMPI PUSH1 0x40 MLOAD PUSH32 0x8C379A000000000000000000000000000000000000000000000000000000000 DUP2 MSTORE PUSH1 0x4 ADD PUSH2 0x4B8 SWAP1 PUSH2 0x2013 JUMP JUMPDEST PUSH1 0x40 MLOAD DUP1 SWAP2 SUB SWAP1 REVERT JUMPDEST PUSH1 0x2 PUSH1 0x1 SWAP1 SLOAD SWAP1 PUSH2 0x100 EXP SWAP1 DIV PUSH20 0xFFFFFFFFFFFFFFFFFFFFFFFFFFFFFFFFFFFFFFFF AND PUSH20 0xFFFFFFFFFFFFFFFFFFFFFFFFFFFFFFFFFFFFFFFF AND PUSH4 0x23B872DD CALLER ADDRESS DUP7 PUSH1 0x40 MLOAD DUP5 PUSH4 0xFFFFFFFF AND PUSH1 0xE0 SHL DUP2 MSTORE PUSH1 0x4 ADD PUSH2 0x520 SWAP4 SWAP3 SWAP2 SWAP1 PUSH2 0x2031 JUMP JUMPDEST PUSH1 0x20 PUSH1 0x40 MLOAD DUP1 DUP4 SUB DUP2 PUSH0 DUP8 GAS CALL ISZERO DUP1 ISZERO PUSH2 0x53C JUMPI RETURNDATASIZE PUSH0 DUP1 RETURNDATACOPY RETURNDATASIZE PUSH0 REVERT JUMPDEST POP POP POP POP PUSH1 0x40 MLOAD RETURNDATASIZE PUSH1 0x1F NOT PUSH1 0x1F DUP3 ADD AND DUP3 ADD DUP1 PUSH1 0x40 MSTORE POP DUP2 ADD SWAP1 PUSH2 0x560 SWAP2 SWAP1 PUSH2 0x2090 JUMP JUMPDEST POP PUSH1 0x40 MLOAD DUP1 PUSH1 0x80 ADD PUSH1 0x40 MSTORE DUP1 DUP6 DUP2 MSTORE PUSH1 0x20 ADD TIMESTAMP PUSH4 0xFFFFFFFF AND DUP2 MSTORE PUSH1 0x20 ADD DUP5 DUP2 MSTORE PUSH1 0x20 ADD DUP4 DUP4 DUP1 DUP1 PUSH1 0x1F ADD PUSH1 0x20 DUP1 SWAP2 DIV MUL PUSH1 0x20 ADD PUSH1 0x40 MLOAD SWAP1 DUP2 ADD PUSH1 0x40 MSTORE DUP1 SWAP4 SWAP3 SWAP2 SWAP1 DUP2 DUP2 MSTORE PUSH1 0x20 ADD DUP4 DUP4 DUP1 DUP3 DUP5 CALLDATACOPY PUSH0 DUP2 DUP5 ADD MSTORE PUSH1 0x1F NOT PUSH1 0x1F DUP3 ADD AND SWAP1 POP DUP1 DUP4 ADD SWAP3 POP POP POP POP POP POP POP DUP2 MSTORE POP PUSH1 0x6 PUSH0 DUP7 DUP2 MSTORE PUSH1 0x20 ADD SWAP1 DUP2 MSTORE PUSH1 0x20 ADD PUSH0 KECCAK256 PUSH0 DUP3 ADD MLOAD DUP2 PUSH0 ADD SSTORE PUSH1 0x20 DUP3 ADD MLOAD DUP2 PUSH1 0x1 ADD PUSH0 PUSH2 0x100 EXP DUP2 SLOAD DUP2 PUSH4 0xFFFFFFFF MUL NOT AND SWAP1 DUP4 PUSH4 0xFFFFFFFF AND MUL OR SWAP1 SSTORE POP PUSH1 0x40 DUP3 ADD MLOAD DUP2 PUSH1 0x2 ADD SSTORE PUSH1 0x60 DUP3 ADD MLOAD DUP2 PUSH1 0x3 ADD SWAP1 DUP2 PUSH2 0x629 SWAP2 SWAP1 PUSH2 0x22D9 JUMP JUMPDEST POP SWAP1 POP POP PUSH0 PUSH2 0x637 DUP6 PUSH2 0x1217 JUMP JUMPDEST SWAP1 POP PUSH1 0x5 PUSH0 DUP6 DUP2 MSTORE PUSH1 0x20 ADD SWAP1 DUP2 MSTORE PUSH1 0x20 ADD PUSH0 KECCAK256 PUSH1 0x1 ADD PUSH0 DUP2 SLOAD DUP1 SWAP3 SWAP2 SWAP1 PUSH2 0x65D SWAP1 PUSH2 0x23A8 JUMP JUMPDEST SWAP2 SWAP1 POP SSTORE POP DUP4 DUP6 PUSH32 0xCE80217AC10251BA83B6B6CE91DA12BDD096AA99C37336C00BB01815FF8E77C1 DUP4 TIMESTAMP PUSH1 0x40 MLOAD PUSH2 0x695 SWAP3 SWAP2 SWAP1 PUSH2 0x23EF JUMP JUMPDEST PUSH1 0x40 MLOAD DUP1 SWAP2 SUB SWAP1 LOG3 POP PUSH2 0x6A6 PUSH2 0x1482 JUMP JUMPDEST POP POP POP POP JUMP JUMPDEST PUSH1 0x3 PUSH0 SWAP1 SLOAD SWAP1 PUSH2 0x100 EXP SWAP1 DIV PUSH20 0xFFFFFFFFFFFFFFFFFFFFFFFFFFFFFFFFFFFFFFFF AND DUP2 JUMP JUMPDEST PUSH2 0x6D9 PUSH2 0x148B JUMP JUMPDEST PUSH2 0x6E1 PUSH2 0x1512 JUMP JUMPDEST JUMP JUMPDEST PUSH1 0xB SLOAD DUP2 JUMP JUMPDEST PUSH0 PUSH1 0x2 PUSH0 SWAP1 SLOAD SWAP1 PUSH2 0x100 EXP SWAP1 DIV PUSH1 0xFF AND SWAP1 POP SWAP1 JUMP JUMPDEST PUSH0 PUSH1 0x7 PUSH1 0x2 ADD SLOAD SWAP1 POP SWAP1 JUMP JUMPDEST PUSH2 0x712 PUSH2 0x148B JUMP JUMPDEST PUSH1 0x5 PUSH0 DUP3 DUP2 MSTORE PUSH1 0x20 ADD SWAP1 DUP2 MSTORE PUSH1 0x20 ADD PUSH0 KECCAK256 PUSH1 0x2 ADD PUSH0 SWAP1 SLOAD SWAP1 PUSH2 0x100 EXP SWAP1 DIV PUSH1 0xFF AND PUSH2 0x772 JUMPI PUSH1 0x40 MLOAD PUSH32 0x8C379A000000000000000000000000000000000000000000000000000000000 DUP2 MSTORE PUSH1 0x4 ADD PUSH2 0x769 SWAP1 PUSH2 0x2460 JUMP JUMPDEST PUSH1 0x40 MLOAD DUP1 SWAP2 SUB SWAP1 REVERT JUMPDEST PUSH0 PUSH1 0x5 PUSH0 DUP4 DUP2 MSTORE PUSH1 0x20 ADD SWAP1 DUP2 MSTORE PUSH1 0x20 ADD PUSH0 KECCAK256 PUSH1 0x2 ADD PUSH0 PUSH2 0x100 EXP DUP2 SLOAD DUP2 PUSH1 0xFF MUL NOT AND SWAP1 DUP4 ISZERO ISZERO MUL OR SWAP1 SSTORE POP PUSH1 0xB PUSH0 DUP2 SLOAD DUP1 SWAP3 SWAP2 SWAP1 PUSH2 0x7AF SWAP1 PUSH2 0x247E JUMP JUMPDEST SWAP2 SWAP1 POP SSTORE POP PUSH32 0x92D6CD445C3824B8EE6F49F30E8DF9C4676634C4E177FADC616918EE2AF3EA64 DUP2 PUSH1 0x40 MLOAD PUSH2 0x7E3 SWAP2 SWAP1 PUSH2 0x19BD JUMP JUMPDEST PUSH1 0x40 MLOAD DUP1 SWAP2 SUB SWAP1 LOG1 POP JUMP JUMPDEST PUSH1 0x2 DUP2 JUMP JUMPDEST PUSH2 0x7FB PUSH2 0x148B JUMP JUMPDEST PUSH2 0x804 PUSH0 PUSH2 0x1573 JUMP JUMPDEST JUMP JUMPDEST PUSH2 0x80E PUSH2 0x148B JUMP JUMPDEST PUSH2 0x816 PUSH2 0x1634 JUMP JUMPDEST JUMP JUMPDEST PUSH1 0x6 PUSH1 0x20 MSTORE DUP1 PUSH0 MSTORE PUSH1 0x40 PUSH0 KECCAK256 PUSH0 SWAP2 POP SWAP1 POP DUP1 PUSH0 ADD SLOAD SWAP1 DUP1 PUSH1 0x1 ADD PUSH0 SWAP1 SLOAD SWAP1 PUSH2 0x100 EXP SWAP1 DIV PUSH4 0xFFFFFFFF AND SWAP1 DUP1 PUSH1 0x2 ADD SLOAD SWAP1 DUP1 PUSH1 0x3 ADD DUP1 SLOAD PUSH2 0x858 SWAP1 PUSH2 0x2115 JUMP JUMPDEST DUP1 PUSH1 0x1F ADD PUSH1 0x20 DUP1 SWAP2 DIV MUL PUSH1 0x20 ADD PUSH1 0x40 MLOAD SWAP1 DUP2 ADD PUSH1 0x40 MSTORE DUP1 SWAP3 SWAP2 SWAP1 DUP2 DUP2 MSTORE PUSH1 0x20 ADD DUP3 DUP1 SLOAD PUSH2 0x884 SWAP1 PUSH2 0x2115 JUMP JUMPDEST DUP1 ISZERO PUSH2 0x8CF JUMPI DUP1 PUSH1 0x1F LT PUSH2 0x8A6 JUMPI PUSH2 0x100 DUP1 DUP4 SLOAD DIV MUL DUP4 MSTORE SWAP2 PUSH1 0x20 ADD SWAP2 PUSH2 0x8CF JUMP JUMPDEST DUP3 ADD SWAP2 SWAP1 PUSH0 MSTORE PUSH1 0x20 PUSH0 KECCAK256 SWAP1 JUMPDEST DUP2 SLOAD DUP2 MSTORE SWAP1 PUSH1 0x1 ADD SWAP1 PUSH1 0x20 ADD DUP1 DUP4 GT PUSH2 0x8B2 JUMPI DUP3 SWAP1 SUB PUSH1 0x1F AND DUP3 ADD SWAP2 JUMPDEST POP POP POP POP POP SWAP1 POP DUP5 JUMP JUMPDEST PUSH2 0x8E1 PUSH2 0x1190 JUMP JUMPDEST PUSH2 0x8E9 PUSH2 0x11D6 JUMP JUMPDEST PUSH1 0x64 PUSH1 0x2 DUP3 PUSH2 0x8F8 SWAP2 SWAP1 PUSH2 0x24A5 JUMP JUMPDEST PUSH2 0x902 SWAP2 SWAP1 PUSH2 0x2513 JUMP JUMPDEST DUP3 GT ISZERO PUSH2 0x944 JUMPI PUSH1 0x40 MLOAD PUSH32 0x8C379A000000000000000000000000000000000000000000000000000000000 DUP2 MSTORE PUSH1 0x4 ADD PUSH2 0x93B SWAP1 PUSH2 0x258D JUMP JUMPDEST PUSH1 0x40 MLOAD DUP1 SWAP2 SUB SWAP1 REVERT JUMPDEST PUSH1 0x4 PUSH0 DUP7 DUP2 MSTORE PUSH1 0x20 ADD SWAP1 DUP2 MSTORE PUSH1 0x20 ADD PUSH0 KECCAK256 PUSH0 SWAP1 SLOAD SWAP1 PUSH2 0x100 EXP SWAP1 DIV PUSH1 0xFF AND ISZERO PUSH2 0x9A2 JUMPI PUSH1 0x40 MLOAD PUSH32 0x8C379A000000000000000000000000000000000000000000000000000000000 DUP2 MSTORE PUSH1 0x4 ADD PUSH2 0x999 SWAP1 PUSH2 0x25F5 JUMP JUMPDEST PUSH1 0x40 MLOAD DUP1 SWAP2 SUB SWAP1 REVERT JUMPDEST PUSH1 0x5 PUSH0 DUP3 DUP2 MSTORE PUSH1 0x20 ADD SWAP1 DUP2 MSTORE PUSH1 0x20 ADD PUSH0 KECCAK256 PUSH1 0x2 ADD PUSH0 SWAP1 SLOAD SWAP1 PUSH2 0x100 EXP SWAP1 DIV PUSH1 0xFF AND PUSH2 0xA02 JUMPI PUSH1 0x40 MLOAD PUSH32 0x8C379A000000000000000000000000000000000000000000000000000000000 DUP2 MSTORE PUSH1 0x4 ADD PUSH2 0x9F9 SWAP1 PUSH2 0x1E05 JUMP JUMPDEST PUSH1 0x40 MLOAD DUP1 SWAP2 SUB SWAP1 REVERT JUMPDEST PUSH2 0xA0A PUSH2 0x175B JUMP JUMPDEST DUP2 PUSH32 0x100000000000000000000000000000000000000000000000000000000000000 DUP5 PUSH2 0xA37 SWAP2 SWAP1 PUSH2 0x24A5 JUMP JUMPDEST PUSH27 0x10000000000000000000000000000000000000000000000000000 DUP7 PUSH20 0xFFFFFFFFFFFFFFFFFFFFFFFFFFFFFFFFFFFFFFFF AND PUSH2 0xA74 SWAP2 SWAP1 PUSH2 0x24A5 JUMP JUMPDEST PUSH21 0x10000000000000000000000000000000000000000 DUP9 PUSH20 0xFFFFFFFFFFFFFFFFFFFFFFFFFFFFFFFFFFFFFFFF AND PUSH2 0xAAB SWAP2 SWAP1 PUSH2 0x24A5 JUMP JUMPDEST DUP10 PUSH0 SHR PUSH2 0xAB8 SWAP2 SWAP1 PUSH2 0x2613 JUMP JUMPDEST PUSH2 0xAC2 SWAP2 SWAP1 PUSH2 0x2613 JUMP JUMPDEST PUSH2 0xACC SWAP2 SWAP1 PUSH2 0x2613 JUMP JUMPDEST PUSH2 0xAD6 SWAP2 SWAP1 PUSH2 0x2613 JUMP JUMPDEST DUP2 PUSH0 PUSH1 0x1 DUP2 LT PUSH2 0xAE9 JUMPI PUSH2 0xAE8 PUSH2 0x2646 JUMP JUMPDEST JUMPDEST PUSH1 0x20 MUL ADD DUP2 DUP2 MSTORE POP POP PUSH1 0x3 PUSH0 SWAP1 SLOAD SWAP1 PUSH2 0x100 EXP SWAP1 DIV PUSH20 0xFFFFFFFFFFFFFFFFFFFFFFFFFFFFFFFFFFFFFFFF AND PUSH20 0xFFFFFFFFFFFFFFFFFFFFFFFFFFFFFFFFFFFFFFFF AND PUSH4 0x1B81F829 DUP9 DUP4 PUSH1 0x40 MLOAD DUP4 PUSH4 0xFFFFFFFF AND PUSH1 0xE0 SHL DUP2 MSTORE PUSH1 0x4 ADD PUSH2 0xB4E SWAP3 SWAP2 SWAP1 PUSH2 0x2732 JUMP JUMPDEST PUSH1 0x20 PUSH1 0x40 MLOAD DUP1 DUP4 SUB DUP2 DUP7 GAS STATICCALL ISZERO DUP1 ISZERO PUSH2 0xB69 JUMPI RETURNDATASIZE PUSH0 DUP1 RETURNDATACOPY RETURNDATASIZE PUSH0 REVERT JUMPDEST POP POP POP POP PUSH1 0x40 MLOAD RETURNDATASIZE PUSH1 0x1F NOT PUSH1 0x1F DUP3 ADD AND DUP3 ADD DUP1 PUSH1 0x40 MSTORE POP DUP2 ADD SWAP1 PUSH2 0xB8D SWAP2 SWAP1 PUSH2 0x2090 JUMP JUMPDEST PUSH2 0xBCC JUMPI PUSH1 0x40 MLOAD PUSH32 0x8C379A000000000000000000000000000000000000000000000000000000000 DUP2 MSTORE PUSH1 0x4 ADD PUSH2 0xBC3 SWAP1 PUSH2 0x27A5 JUMP JUMPDEST PUSH1 0x40 MLOAD DUP1 SWAP2 SUB SWAP1 REVERT JUMPDEST PUSH1 0x1 PUSH1 0x4 PUSH0 DUP9 DUP2 MSTORE PUSH1 0x20 ADD SWAP1 DUP2 MSTORE PUSH1 0x20 ADD PUSH0 KECCAK256 PUSH0 PUSH2 0x100 EXP DUP2 SLOAD DUP2 PUSH1 0xFF MUL NOT AND SWAP1 DUP4 ISZERO ISZERO MUL OR SWAP1 SSTORE POP PUSH0 DUP4 GT ISZERO PUSH2 0xC9C JUMPI PUSH1 0x2 PUSH1 0x1 SWAP1 SLOAD SWAP1 PUSH2 0x100 EXP SWAP1 DIV PUSH20 0xFFFFFFFFFFFFFFFFFFFFFFFFFFFFFFFFFFFFFFFF AND PUSH20 0xFFFFFFFFFFFFFFFFFFFFFFFFFFFFFFFFFFFFFFFF AND PUSH4 0xA9059CBB DUP6 DUP6 PUSH1 0x40 MLOAD DUP4 PUSH4 0xFFFFFFFF AND PUSH1 0xE0 SHL DUP2 MSTORE PUSH1 0x4 ADD PUSH2 0xC5A SWAP3 SWAP2 SWAP1 PUSH2 0x27C3 JUMP JUMPDEST PUSH1 0x20 PUSH1 0x40 MLOAD DUP1 DUP4 SUB DUP2 PUSH0 DUP8 GAS CALL ISZERO DUP1 ISZERO PUSH2 0xC76 JUMPI RETURNDATASIZE PUSH0 DUP1 RETURNDATACOPY RETURNDATASIZE PUSH0 REVERT JUMPDEST POP POP POP POP PUSH1 0x40 MLOAD RETURNDATASIZE PUSH1 0x1F NOT PUSH1 0x1F DUP3 ADD AND DUP3 ADD DUP1 PUSH1 0x40 MSTORE POP DUP2 ADD SWAP1 PUSH2 0xC9A SWAP2 SWAP1 PUSH2 0x2090 JUMP JUMPDEST POP JUMPDEST PUSH1 0x2 PUSH1 0x1 SWAP1 SLOAD SWAP1 PUSH2 0x100 EXP SWAP1 DIV PUSH20 0xFFFFFFFFFFFFFFFFFFFFFFFFFFFFFFFFFFFFFFFF AND PUSH20 0xFFFFFFFFFFFFFFFFFFFFFFFFFFFFFFFFFFFFFFFF AND PUSH4 0xA9059CBB DUP7 DUP6 DUP6 PUSH2 0xCE7 SWAP2 SWAP1 PUSH2 0x27EA JUMP JUMPDEST PUSH1 0x40 MLOAD DUP4 PUSH4 0xFFFFFFFF AND PUSH1 0xE0 SHL DUP2 MSTORE PUSH1 0x4 ADD PUSH2 0xD04 SWAP3 SWAP2 SWAP1 PUSH2 0x27C3 JUMP JUMPDEST PUSH1 0x20 PUSH1 0x40 MLOAD DUP1 DUP4 SUB DUP2 PUSH0 DUP8 GAS CALL ISZERO DUP1 ISZERO PUSH2 0xD20 JUMPI RETURNDATASIZE PUSH0 DUP1 RETURNDATACOPY RETURNDATASIZE PUSH0 REVERT JUMPDEST POP POP POP POP PUSH1 0x40 MLOAD RETURNDATASIZE PUSH1 0x1F NOT PUSH1 0x1F DUP3 ADD AND DUP3 ADD DUP1 PUSH1 0x40 MSTORE POP DUP2 ADD SWAP1 PUSH2 0xD44 SWAP2 SWAP1 PUSH2 0x2090 JUMP JUMPDEST POP DUP4 PUSH20 0xFFFFFFFFFFFFFFFFFFFFFFFFFFFFFFFFFFFFFFFF AND DUP7 DUP7 PUSH20 0xFFFFFFFFFFFFFFFFFFFFFFFFFFFFFFFFFFFFFFFF AND PUSH32 0x6D7AAC54BD3D1C91DB3B1FD7B8D6CB45324AD6B5E373C0F0EA4D7B2606C4C2C8 DUP6 DUP8 PUSH1 0x40 MLOAD PUSH2 0xDA5 SWAP3 SWAP2 SWAP1 PUSH2 0x281D JUMP JUMPDEST PUSH1 0x40 MLOAD DUP1 SWAP2 SUB SWAP1 LOG4 POP PUSH2 0xDB6 PUSH2 0x1482 JUMP JUMPDEST POP POP POP POP POP POP JUMP JUMPDEST PUSH0 DUP1 PUSH0 SWAP1 SLOAD SWAP1 PUSH2 0x100 EXP SWAP1 DIV PUSH20 0xFFFFFFFFFFFFFFFFFFFFFFFFFFFFFFFFFFFFFFFF AND SWAP1 POP SWAP1 JUMP JUMPDEST PUSH1 0x7 DUP1 PUSH1 0x1 ADD SLOAD SWAP1 DUP1 PUSH1 0x2 ADD SLOAD SWAP1 POP DUP3 JUMP JUMPDEST PUSH2 0xDFF PUSH2 0x148B JUMP JUMPDEST PUSH0 DUP2 GT PUSH2 0xE41 JUMPI PUSH1 0x40 MLOAD PUSH32 0x8C379A000000000000000000000000000000000000000000000000000000000 DUP2 MSTORE PUSH1 0x4 ADD PUSH2 0xE38 SWAP1 PUSH2 0x288E JUMP JUMPDEST PUSH1 0x40 MLOAD DUP1 SWAP2 SUB SWAP1 REVERT JUMPDEST PUSH1 0x5 PUSH0 DUP3 DUP2 MSTORE PUSH1 0x20 ADD SWAP1 DUP2 MSTORE PUSH1 0x20 ADD PUSH0 KECCAK256 PUSH1 0x2 ADD PUSH0 SWAP1 SLOAD SWAP1 PUSH2 0x100 EXP SWAP1 DIV PUSH1 0xFF AND ISZERO PUSH2 0xEA2 JUMPI PUSH1 0x40 MLOAD PUSH32 0x8C379A000000000000000000000000000000000000000000000000000000000 DUP2 MSTORE PUSH1 0x4 ADD PUSH2 0xE99 SWAP1 PUSH2 0x28F6 JUMP JUMPDEST PUSH1 0x40 MLOAD DUP1 SWAP2 SUB SWAP1 REVERT JUMPDEST PUSH1 0x40 MLOAD DUP1 PUSH1 0x60 ADD PUSH1 0x40 MSTORE DUP1 DUP3 DUP2 MSTORE PUSH1 0x20 ADD PUSH0 DUP2 MSTORE PUSH1 0x20 ADD PUSH1 0x1 ISZERO ISZERO DUP2 MSTORE POP PUSH1 0x5 PUSH0 DUP4 DUP2 MSTORE PUSH1 0x20 ADD SWAP1 DUP2 MSTORE PUSH1 0x20 ADD PUSH0 KECCAK256 PUSH0 DUP3 ADD MLOAD DUP2 PUSH0 ADD SSTORE PUSH1 0x20 DUP3 ADD MLOAD DUP2 PUSH1 0x1 ADD SSTORE PUSH1 0x40 DUP3 ADD MLOAD DUP2 PUSH1 0x2 ADD PUSH0 PUSH2 0x100 EXP DUP2 SLOAD DUP2 PUSH1 0xFF MUL NOT AND SWAP1 DUP4 ISZERO ISZERO MUL OR SWAP1 SSTORE POP SWAP1 POP POP PUSH1 0xB PUSH0 DUP2 SLOAD DUP1 SWAP3 SWAP2 SWAP1 PUSH2 0xF17 SWAP1 PUSH2 0x23A8 JUMP JUMPDEST SWAP2 SWAP1 POP SSTORE POP PUSH32 0x8A5735E0BAF05EE5A04A6DD24654F14B2F442D7FC7321C0DC098B8E338BC0408 DUP2 PUSH1 0x40 MLOAD PUSH2 0xF4B SWAP2 SWAP1 PUSH2 0x19BD JUMP JUMPDEST PUSH1 0x40 MLOAD DUP1 SWAP2 SUB SWAP1 LOG1 POP JUMP JUMPDEST PUSH1 0x60 PUSH1 0x7 PUSH1 0x1 ADD SLOAD DUP3 LT PUSH2 0xF9F JUMPI PUSH1 0x40 MLOAD PUSH32 0x8C379A000000000000000000000000000000000000000000000000000000000 DUP2 MSTORE PUSH1 0x4 ADD PUSH2 0xF96 SWAP1 PUSH2 0x295E JUMP JUMPDEST PUSH1 0x40 MLOAD DUP1 SWAP2 SUB SWAP1 REVERT JUMPDEST PUSH0 PUSH1 0x14 PUSH8 0xFFFFFFFFFFFFFFFF DUP2 GT ISZERO PUSH2 0xFBB JUMPI PUSH2 0xFBA PUSH2 0x20BB JUMP JUMPDEST JUMPDEST PUSH1 0x40 MLOAD SWAP1 DUP1 DUP3 MSTORE DUP1 PUSH1 0x20 MUL PUSH1 0x20 ADD DUP3 ADD PUSH1 0x40 MSTORE DUP1 ISZERO PUSH2 0xFE9 JUMPI DUP2 PUSH1 0x20 ADD PUSH1 0x20 DUP3 MUL DUP1 CALLDATASIZE DUP4 CALLDATACOPY DUP1 DUP3 ADD SWAP2 POP POP SWAP1 POP JUMPDEST POP SWAP1 POP PUSH0 DUP4 SWAP1 POP PUSH0 JUMPDEST PUSH1 0x14 DUP2 LT ISZERO PUSH2 0x1093 JUMPI PUSH0 DUP1 PUSH1 0x2 DUP5 PUSH2 0x100A SWAP2 SWAP1 PUSH2 0x297C JUMP JUMPDEST SUB PUSH2 0x1023 JUMPI PUSH1 0x1 DUP4 PUSH2 0x101C SWAP2 SWAP1 PUSH2 0x2613 JUMP JUMPDEST SWAP1 POP PUSH2 0x1033 JUMP JUMPDEST PUSH1 0x1 DUP4 PUSH2 0x1030 SWAP2 SWAP1 PUSH2 0x27EA JUMP JUMPDEST SWAP1 POP JUMPDEST PUSH1 0x7 PUSH1 0x3 ADD PUSH0 DUP3 DUP2 MSTORE PUSH1 0x20 ADD SWAP1 DUP2 MSTORE PUSH1 0x20 ADD PUSH0 KECCAK256 PUSH0 DUP4 DUP2 MSTORE PUSH1 0x20 ADD SWAP1 DUP2 MSTORE PUSH1 0x20 ADD PUSH0 KECCAK256 SLOAD DUP5 DUP4 DUP2 MLOAD DUP2 LT PUSH2 0x106A JUMPI PUSH2 0x1069 PUSH2 0x2646 JUMP JUMPDEST JUMPDEST PUSH1 0x20 MUL PUSH1 0x20 ADD ADD DUP2 DUP2 MSTORE POP POP PUSH1 0x2 DUP4 PUSH2 0x1083 SWAP2 SWAP1 PUSH2 0x2513 JUMP JUMPDEST SWAP3 POP POP DUP1 DUP1 PUSH1 0x1 ADD SWAP2 POP POP PUSH2 0xFF2 JUMP JUMPDEST POP DUP2 SWAP3 POP POP POP SWAP2 SWAP1 POP JUMP JUMPDEST PUSH1 0x14 PUSH1 0x2 PUSH2 0x10AC SWAP2 SWAP1 PUSH2 0x1F7F JUMP JUMPDEST DUP2 JUMP JUMPDEST PUSH2 0x10B7 PUSH2 0x148B JUMP JUMPDEST PUSH0 PUSH20 0xFFFFFFFFFFFFFFFFFFFFFFFFFFFFFFFFFFFFFFFF AND DUP2 PUSH20 0xFFFFFFFFFFFFFFFFFFFFFFFFFFFFFFFFFFFFFFFF AND SUB PUSH2 0x1127 JUMPI PUSH0 PUSH1 0x40 MLOAD PUSH32 0x1E4FBDF700000000000000000000000000000000000000000000000000000000 DUP2 MSTORE PUSH1 0x4 ADD PUSH2 0x111E SWAP2 SWAP1 PUSH2 0x1BFB JUMP JUMPDEST PUSH1 0x40 MLOAD DUP1 SWAP2 SUB SWAP1 REVERT JUMPDEST PUSH2 0x1130 DUP2 PUSH2 0x1573 JUMP JUMPDEST POP JUMP JUMPDEST PUSH1 0x5 PUSH1 0x20 MSTORE DUP1 PUSH0 MSTORE PUSH1 0x40 PUSH0 KECCAK256 PUSH0 SWAP2 POP SWAP1 POP DUP1 PUSH0 ADD SLOAD SWAP1 DUP1 PUSH1 0x1 ADD SLOAD SWAP1 DUP1 PUSH1 0x2 ADD PUSH0 SWAP1 SLOAD SWAP1 PUSH2 0x100 EXP SWAP1 DIV PUSH1 0xFF AND SWAP1 POP DUP4 JUMP JUMPDEST PUSH1 0x2 PUSH1 0x1 SWAP1 SLOAD SWAP1 PUSH2 0x100 EXP SWAP1 DIV PUSH20 0xFFFFFFFFFFFFFFFFFFFFFFFFFFFFFFFFFFFFFFFF AND DUP2 JUMP JUMPDEST PUSH1 0x14 DUP2 JUMP JUMPDEST PUSH1 0x2 PUSH1 0x1 SLOAD SUB PUSH2 0x11CC JUMPI PUSH1 0x40 MLOAD PUSH32 0x3EE5AEB500000000000000000000000000000000000000000000000000000000 DUP2 MSTORE PUSH1 0x4 ADD PUSH1 0x40 MLOAD DUP1 SWAP2 SUB SWAP1 REVERT JUMPDEST PUSH1 0x2 PUSH1 0x1 DUP2 SWAP1 SSTORE POP JUMP JUMPDEST PUSH2 0x11DE PUSH2 0x6E9 JUMP JUMPDEST ISZERO PUSH2 0x1215 JUMPI PUSH1 0x40 MLOAD PUSH32 0xD93C066500000000000000000000000000000000000000000000000000000000 DUP2 MSTORE PUSH1 0x4 ADD PUSH1 0x40 MLOAD DUP1 SWAP2 SUB SWAP1 REVERT JUMPDEST JUMP JUMPDEST PUSH0 DUP1 PUSH1 0x7 PUSH1 0x1 ADD SLOAD SWAP1 POP PUSH1 0x14 PUSH1 0x2 PUSH2 0x122F SWAP2 SWAP1 PUSH2 0x1F7F JUMP JUMPDEST DUP2 PUSH4 0xFFFFFFFF AND LT PUSH2 0x1276 JUMPI PUSH1 0x40 MLOAD PUSH32 0x8C379A000000000000000000000000000000000000000000000000000000000 DUP2 MSTORE PUSH1 0x4 ADD PUSH2 0x126D SWAP1 PUSH2 0x2013 JUMP JUMPDEST PUSH1 0x40 MLOAD DUP1 SWAP2 SUB SWAP1 REVERT JUMPDEST PUSH1 0x7 PUSH0 ADD DUP4 SWAP1 DUP1 PUSH1 0x1 DUP2 SLOAD ADD DUP1 DUP3 SSTORE DUP1 SWAP2 POP POP PUSH1 0x1 SWAP1 SUB SWAP1 PUSH0 MSTORE PUSH1 0x20 PUSH0 KECCAK256 ADD PUSH0 SWAP1 SWAP2 SWAP1 SWAP2 SWAP1 SWAP2 POP SSTORE DUP3 PUSH1 0x7 PUSH1 0x3 ADD PUSH0 DUP4 PUSH4 0xFFFFFFFF AND DUP2 MSTORE PUSH1 0x20 ADD SWAP1 DUP2 MSTORE PUSH1 0x20 ADD PUSH0 KECCAK256 PUSH0 DUP1 DUP2 MSTORE PUSH1 0x20 ADD SWAP1 DUP2 MSTORE PUSH1 0x20 ADD PUSH0 KECCAK256 DUP2 SWAP1 SSTORE POP PUSH0 DUP1 DUP3 PUSH4 0xFFFFFFFF AND SWAP1 POP PUSH0 DUP1 JUMPDEST PUSH1 0x14 DUP5 LT ISZERO PUSH2 0x142D JUMPI PUSH0 PUSH1 0x2 DUP5 PUSH2 0x12F1 SWAP2 SWAP1 PUSH2 0x297C JUMP JUMPDEST SUB PUSH2 0x1369 JUMPI PUSH1 0x7 PUSH1 0x3 ADD PUSH0 DUP5 DUP2 MSTORE PUSH1 0x20 ADD SWAP1 DUP2 MSTORE PUSH1 0x20 ADD PUSH0 KECCAK256 PUSH0 DUP6 DUP2 MSTORE PUSH1 0x20 ADD SWAP1 DUP2 MSTORE PUSH1 0x20 ADD PUSH0 KECCAK256 SLOAD SWAP2 POP PUSH2 0x1325 DUP5 PUSH2 0x1696 JUMP JUMPDEST SWAP1 POP PUSH2 0x1331 DUP3 DUP3 PUSH2 0x16E2 JUMP JUMPDEST PUSH1 0x7 PUSH1 0x3 ADD PUSH0 DUP6 DUP2 MSTORE PUSH1 0x20 ADD SWAP1 DUP2 MSTORE PUSH1 0x20 ADD PUSH0 KECCAK256 PUSH0 PUSH1 0x1 DUP8 PUSH2 0x1353 SWAP2 SWAP1 PUSH2 0x2613 JUMP JUMPDEST DUP2 MSTORE PUSH1 0x20 ADD SWAP1 DUP2 MSTORE PUSH1 0x20 ADD PUSH0 KECCAK256 DUP2 SWAP1 SSTORE POP PUSH2 0x140B JUMP JUMPDEST PUSH1 0x7 PUSH1 0x3 ADD PUSH0 PUSH1 0x1 DUP6 PUSH2 0x137C SWAP2 SWAP1 PUSH2 0x27EA JUMP JUMPDEST DUP2 MSTORE PUSH1 0x20 ADD SWAP1 DUP2 MSTORE PUSH1 0x20 ADD PUSH0 KECCAK256 PUSH0 DUP6 DUP2 MSTORE PUSH1 0x20 ADD SWAP1 DUP2 MSTORE PUSH1 0x20 ADD PUSH0 KECCAK256 SLOAD SWAP2 POP PUSH1 0x7 PUSH1 0x3 ADD PUSH0 DUP5 DUP2 MSTORE PUSH1 0x20 ADD SWAP1 DUP2 MSTORE PUSH1 0x20 ADD PUSH0 KECCAK256 PUSH0 DUP6 DUP2 MSTORE PUSH1 0x20 ADD SWAP1 DUP2 MSTORE PUSH1 0x20 ADD PUSH0 KECCAK256 SLOAD SWAP1 POP PUSH2 0x13CB DUP3 DUP3 PUSH2 0x16E2 JUMP JUMPDEST PUSH1 0x7 PUSH1 0x3 ADD PUSH0 PUSH1 0x1 DUP7 PUSH2 0x13DE SWAP2 SWAP1 PUSH2 0x27EA JUMP JUMPDEST DUP2 MSTORE PUSH1 0x20 ADD SWAP1 DUP2 MSTORE PUSH1 0x20 ADD PUSH0 KECCAK256 PUSH0 PUSH1 0x1 DUP8 PUSH2 0x13F9 SWAP2 SWAP1 PUSH2 0x2613 JUMP JUMPDEST DUP2 MSTORE PUSH1 0x20 ADD SWAP1 DUP2 MSTORE PUSH1 0x20 ADD PUSH0 KECCAK256 DUP2 SWAP1 SSTORE POP JUMPDEST PUSH1 0x2 DUP4 PUSH2 0x1418 SWAP2 SWAP1 PUSH2 0x2513 JUMP JUMPDEST SWAP3 POP DUP4 DUP1 PUSH2 0x1425 SWAP1 PUSH2 0x23A8 JUMP JUMPDEST SWAP5 POP POP PUSH2 0x12DA JUMP JUMPDEST PUSH1 0x7 PUSH1 0x3 ADD PUSH0 DUP1 DUP2 MSTORE PUSH1 0x20 ADD SWAP1 DUP2 MSTORE PUSH1 0x20 ADD PUSH0 KECCAK256 PUSH0 PUSH1 0x14 DUP2 MSTORE PUSH1 0x20 ADD SWAP1 DUP2 MSTORE PUSH1 0x20 ADD PUSH0 KECCAK256 SLOAD PUSH1 0x7 PUSH1 0x2 ADD DUP2 SWAP1 SSTORE POP PUSH1 0x7 PUSH1 0x1 ADD PUSH0 DUP2 SLOAD DUP1 SWAP3 SWAP2 SWAP1 PUSH2 0x1470 SWAP1 PUSH2 0x23A8 JUMP JUMPDEST SWAP2 SWAP1 POP SSTORE POP DUP5 SWAP6 POP POP POP POP POP POP SWAP2 SWAP1 POP JUMP JUMPDEST PUSH1 0x1 DUP1 DUP2 SWAP1 SSTORE POP JUMP JUMPDEST PUSH2 0x1493 PUSH2 0x1714 JUMP JUMPDEST PUSH20 0xFFFFFFFFFFFFFFFFFFFFFFFFFFFFFFFFFFFFFFFF AND PUSH2 0x14B1 PUSH2 0xDBE JUMP JUMPDEST PUSH20 0xFFFFFFFFFFFFFFFFFFFFFFFFFFFFFFFFFFFFFFFF AND EQ PUSH2 0x1510 JUMPI PUSH2 0x14D4 PUSH2 0x1714 JUMP JUMPDEST PUSH1 0x40 MLOAD PUSH32 0x118CDAA700000000000000000000000000000000000000000000000000000000 DUP2 MSTORE PUSH1 0x4 ADD PUSH2 0x1507 SWAP2 SWAP1 PUSH2 0x1BFB JUMP JUMPDEST PUSH1 0x40 MLOAD DUP1 SWAP2 SUB SWAP1 REVERT JUMPDEST JUMP JUMPDEST PUSH2 0x151A PUSH2 0x171B JUMP JUMPDEST PUSH0 PUSH1 0x2 PUSH0 PUSH2 0x100 EXP DUP2 SLOAD DUP2 PUSH1 0xFF MUL NOT AND SWAP1 DUP4 ISZERO ISZERO MUL OR SWAP1 SSTORE POP PUSH32 0x5DB9EE0A495BF2E6FF9C91A7834C1BA4FDD244A5E8AA4E537BD38AEAE4B073AA PUSH2 0x155C PUSH2 0x1714 JUMP JUMPDEST PUSH1 0x40 MLOAD PUSH2 0x1569 SWAP2 SWAP1 PUSH2 0x1BFB JUMP JUMPDEST PUSH1 0x40 MLOAD DUP1 SWAP2 SUB SWAP1 LOG1 JUMP JUMPDEST PUSH0 DUP1 PUSH0 SWAP1 SLOAD SWAP1 PUSH2 0x100 EXP SWAP1 DIV PUSH20 0xFFFFFFFFFFFFFFFFFFFFFFFFFFFFFFFFFFFFFFFF AND SWAP1 POP DUP2 PUSH0 DUP1 PUSH2 0x100 EXP DUP2 SLOAD DUP2 PUSH20 0xFFFFFFFFFFFFFFFFFFFFFFFFFFFFFFFFFFFFFFFF MUL NOT AND SWAP1 DUP4 PUSH20 0xFFFFFFFFFFFFFFFFFFFFFFFFFFFFFFFFFFFFFFFF AND MUL OR SWAP1 SSTORE POP DUP2 PUSH20 0xFFFFFFFFFFFFFFFFFFFFFFFFFFFFFFFFFFFFFFFF AND DUP2 PUSH20 0xFFFFFFFFFFFFFFFFFFFFFFFFFFFFFFFFFFFFFFFF AND PUSH32 0x8BE0079C531659141344CD1FD0A4F28419497F9722A3DAAFE3B4186F6B6457E0 PUSH1 0x40 MLOAD PUSH1 0x40 MLOAD DUP1 SWAP2 SUB SWAP1 LOG3 POP POP JUMP JUMPDEST PUSH2 0x163C PUSH2 0x11D6 JUMP JUMPDEST PUSH1 0x1 PUSH1 0x2 PUSH0 PUSH2 0x100 EXP DUP2 SLOAD DUP2 PUSH1 0xFF MUL NOT AND SWAP1 DUP4 ISZERO ISZERO MUL OR SWAP1 SSTORE POP PUSH32 0x62E78CEA01BEE320CD4E420270B5EA74000D11B0C9F74754EBDBFC544B05A258 PUSH2 0x167F PUSH2 0x1714 JUMP JUMPDEST PUSH1 0x40 MLOAD PUSH2 0x168C SWAP2 SWAP1 PUSH2 0x1BFB JUMP JUMPDEST PUSH1 0x40 MLOAD DUP1 SWAP2 SUB SWAP1 LOG1 JUMP JUMPDEST PUSH0 DUP1 DUP3 SUB PUSH2 0x16A8 JUMPI PUSH0 DUP1 SHL SWAP1 POP PUSH2 0x16DD JUMP JUMPDEST PUSH2 0x16DA PUSH2 0x16C0 PUSH1 0x1 DUP5 PUSH2 0x16BB SWAP2 SWAP1 PUSH2 0x27EA JUMP JUMPDEST PUSH2 0x1696 JUMP JUMPDEST PUSH2 0x16D5 PUSH1 0x1 DUP6 PUSH2 0x16D0 SWAP2 SWAP1 PUSH2 0x27EA JUMP JUMPDEST PUSH2 0x1696 JUMP JUMPDEST PUSH2 0x16E2 JUMP JUMPDEST SWAP1 POP JUMPDEST SWAP2 SWAP1 POP JUMP JUMPDEST PUSH0 DUP3 DUP3 PUSH1 0x40 MLOAD PUSH1 0x20 ADD PUSH2 0x16F6 SWAP3 SWAP2 SWAP1 PUSH2 0x29CC JUMP JUMPDEST PUSH1 0x40 MLOAD PUSH1 0x20 DUP2 DUP4 SUB SUB DUP2 MSTORE SWAP1 PUSH1 0x40 MSTORE DUP1 MLOAD SWAP1 PUSH1 0x20 ADD KECCAK256 SWAP1 POP SWAP3 SWAP2 POP POP JUMP JUMPDEST PUSH0 CALLER SWAP1 POP SWAP1 JUMP JUMPDEST PUSH2 0x1723 PUSH2 0x6E9 JUMP JUMPDEST PUSH2 0x1759 JUMPI PUSH1 0x40 MLOAD PUSH32 0x8DFC202B00000000000000000000000000000000000000000000000000000000 DUP2 MSTORE PUSH1 0x4 ADD PUSH1 0x40 MLOAD DUP1 SWAP2 SUB SWAP1 REVERT JUMPDEST JUMP JUMPDEST PUSH1 0x40 MLOAD DUP1 PUSH1 0x20 ADD PUSH1 0x40 MSTORE DUP1 PUSH1 0x1 SWAP1 PUSH1 0x20 DUP3 MUL DUP1 CALLDATASIZE DUP4 CALLDATACOPY DUP1 DUP3 ADD SWAP2 POP POP SWAP1 POP POP SWAP1 JUMP JUMPDEST PUSH0 DUP1 REVERT JUMPDEST PUSH0 DUP1 REVERT JUMPDEST PUSH0 DUP2 SWAP1 POP SWAP2 SWAP1 POP JUMP JUMPDEST PUSH2 0x1797 DUP2 PUSH2 0x1785 JUMP JUMPDEST DUP2 EQ PUSH2 0x17A1 JUMPI PUSH0 DUP1 REVERT JUMPDEST POP JUMP JUMPDEST PUSH0 DUP2 CALLDATALOAD SWAP1 POP PUSH2 0x17B2 DUP2 PUSH2 0x178E JUMP JUMPDEST SWAP3 SWAP2 POP POP JUMP JUMPDEST PUSH0 PUSH1 0x20 DUP3 DUP5 SUB SLT ISZERO PUSH2 0x17CD JUMPI PUSH2 0x17CC PUSH2 0x177D JUMP JUMPDEST JUMPDEST PUSH0 PUSH2 0x17DA DUP5 DUP3 DUP6 ADD PUSH2 0x17A4 JUMP JUMPDEST SWAP2 POP POP SWAP3 SWAP2 POP POP JUMP JUMPDEST PUSH0 DUP2 ISZERO ISZERO SWAP1 POP SWAP2 SWAP1 POP JUMP JUMPDEST PUSH2 0x17F7 DUP2 PUSH2 0x17E3 JUMP JUMPDEST DUP3 MSTORE POP POP JUMP JUMPDEST PUSH0 PUSH1 0x20 DUP3 ADD SWAP1 POP PUSH2 0x1810 PUSH0 DUP4 ADD DUP5 PUSH2 0x17EE JUMP JUMPDEST SWAP3 SWAP2 POP POP JUMP JUMPDEST PUSH0 DUP2 SWAP1 POP SWAP2 SWAP1 POP JUMP JUMPDEST PUSH2 0x1828 DUP2 PUSH2 0x1816 JUMP JUMPDEST DUP2 EQ PUSH2 0x1832 JUMPI PUSH0 DUP1 REVERT JUMPDEST POP JUMP JUMPDEST PUSH0 DUP2 CALLDATALOAD SWAP1 POP PUSH2 0x1843 DUP2 PUSH2 0x181F JUMP JUMPDEST SWAP3 SWAP2 POP POP JUMP JUMPDEST PUSH0 DUP1 REVERT JUMPDEST PUSH0 DUP1 REVERT JUMPDEST PUSH0 DUP1 REVERT JUMPDEST PUSH0 DUP1 DUP4 PUSH1 0x1F DUP5 ADD SLT PUSH2 0x186A JUMPI PUSH2 0x1869 PUSH2 0x1849 JUMP JUMPDEST JUMPDEST DUP3 CALLDATALOAD SWAP1 POP PUSH8 0xFFFFFFFFFFFFFFFF DUP2 GT ISZERO PUSH2 0x1887 JUMPI PUSH2 0x1886 PUSH2 0x184D JUMP JUMPDEST JUMPDEST PUSH1 0x20 DUP4 ADD SWAP2 POP DUP4 PUSH1 0x1 DUP3 MUL DUP4 ADD GT ISZERO PUSH2 0x18A3 JUMPI PUSH2 0x18A2 PUSH2 0x1851 JUMP JUMPDEST JUMPDEST SWAP3 POP SWAP3 SWAP1 POP JUMP JUMPDEST PUSH0 DUP1 PUSH0 DUP1 PUSH1 0x60 DUP6 DUP8 SUB SLT ISZERO PUSH2 0x18C2 JUMPI PUSH2 0x18C1 PUSH2 0x177D JUMP JUMPDEST JUMPDEST PUSH0 PUSH2 0x18CF DUP8 DUP3 DUP9 ADD PUSH2 0x17A4 JUMP JUMPDEST SWAP5 POP POP PUSH1 0x20 PUSH2 0x18E0 DUP8 DUP3 DUP9 ADD PUSH2 0x1835 JUMP JUMPDEST SWAP4 POP POP PUSH1 0x40 DUP6 ADD CALLDATALOAD PUSH8 0xFFFFFFFFFFFFFFFF DUP2 GT ISZERO PUSH2 0x1901 JUMPI PUSH2 0x1900 PUSH2 0x1781 JUMP JUMPDEST JUMPDEST PUSH2 0x190D DUP8 DUP3 DUP9 ADD PUSH2 0x1855 JUMP JUMPDEST SWAP3 POP SWAP3 POP POP SWAP3 SWAP6 SWAP2 SWAP5 POP SWAP3 POP JUMP JUMPDEST PUSH0 PUSH20 0xFFFFFFFFFFFFFFFFFFFFFFFFFFFFFFFFFFFFFFFF DUP3 AND SWAP1 POP SWAP2 SWAP1 POP JUMP JUMPDEST PUSH0 DUP2 SWAP1 POP SWAP2 SWAP1 POP JUMP JUMPDEST PUSH0 PUSH2 0x195D PUSH2 0x1958 PUSH2 0x1953 DUP5 PUSH2 0x191B JUMP JUMPDEST PUSH2 0x193A JUMP JUMPDEST PUSH2 0x191B JUMP JUMPDEST SWAP1 POP SWAP2 SWAP1 POP JUMP JUMPDEST PUSH0 PUSH2 0x196E DUP3 PUSH2 0x1943 JUMP JUMPDEST SWAP1 POP SWAP2 SWAP1 POP JUMP JUMPDEST PUSH0 PUSH2 0x197F DUP3 PUSH2 0x1964 JUMP JUMPDEST SWAP1 POP SWAP2 SWAP1 POP JUMP JUMPDEST PUSH2 0x198F DUP2 PUSH2 0x1975 JUMP JUMPDEST DUP3 MSTORE POP POP JUMP JUMPDEST PUSH0 PUSH1 0x20 DUP3 ADD SWAP1 POP PUSH2 0x19A8 PUSH0 DUP4 ADD DUP5 PUSH2 0x1986 JUMP JUMPDEST SWAP3 SWAP2 POP POP JUMP JUMPDEST PUSH2 0x19B7 DUP2 PUSH2 0x1816 JUMP JUMPDEST DUP3 MSTORE POP POP JUMP JUMPDEST PUSH0 PUSH1 0x20 DUP3 ADD SWAP1 POP PUSH2 0x19D0 PUSH0 DUP4 ADD DUP5 PUSH2 0x19AE JUMP JUMPDEST SWAP3 SWAP2 POP POP JUMP JUMPDEST PUSH2 0x19DF DUP2 PUSH2 0x1785 JUMP JUMPDEST DUP3 MSTORE POP POP JUMP JUMPDEST PUSH0 PUSH1 0x20 DUP3 ADD SWAP1 POP PUSH2 0x19F8 PUSH0 DUP4 ADD DUP5 PUSH2 0x19D6 JUMP JUMPDEST SWAP3 SWAP2 POP POP JUMP JUMPDEST PUSH0 PUSH1 0x20 DUP3 DUP5 SUB SLT ISZERO PUSH2 0x1A13 JUMPI PUSH2 0x1A12 PUSH2 0x177D JUMP JUMPDEST JUMPDEST PUSH0 PUSH2 0x1A20 DUP5 DUP3 DUP6 ADD PUSH2 0x1835 JUMP JUMPDEST SWAP2 POP POP SWAP3 SWAP2 POP POP JUMP JUMPDEST PUSH0 PUSH4 0xFFFFFFFF DUP3 AND SWAP1 POP SWAP2 SWAP1 POP JUMP JUMPDEST PUSH2 0x1A41 DUP2 PUSH2 0x1A29 JUMP JUMPDEST DUP3 MSTORE POP POP JUMP JUMPDEST PUSH0 DUP2 MLOAD SWAP1 POP SWAP2 SWAP1 POP JUMP JUMPDEST PUSH0 DUP3 DUP3 MSTORE PUSH1 0x20 DUP3 ADD SWAP1 POP SWAP3 SWAP2 POP POP JUMP JUMPDEST DUP3 DUP2 DUP4 MCOPY PUSH0 DUP4 DUP4 ADD MSTORE POP POP POP JUMP JUMPDEST PUSH0 PUSH1 0x1F NOT PUSH1 0x1F DUP4 ADD AND SWAP1 POP SWAP2 SWAP1 POP JUMP JUMPDEST PUSH0 PUSH2 0x1A89 DUP3 PUSH2 0x1A47 JUMP JUMPDEST PUSH2 0x1A93 DUP2 DUP6 PUSH2 0x1A51 JUMP JUMPDEST SWAP4 POP PUSH2 0x1AA3 DUP2 DUP6 PUSH1 0x20 DUP7 ADD PUSH2 0x1A61 JUMP JUMPDEST PUSH2 0x1AAC DUP2 PUSH2 0x1A6F JUMP JUMPDEST DUP5 ADD SWAP2 POP POP SWAP3 SWAP2 POP POP JUMP JUMPDEST PUSH0 PUSH1 0x80 DUP3 ADD SWAP1 POP PUSH2 0x1ACA PUSH0 DUP4 ADD DUP8 PUSH2 0x19D6 JUMP JUMPDEST PUSH2 0x1AD7 PUSH1 0x20 DUP4 ADD DUP7 PUSH2 0x1A38 JUMP JUMPDEST PUSH2 0x1AE4 PUSH1 0x40 DUP4 ADD DUP6 PUSH2 0x19AE JUMP JUMPDEST DUP2 DUP2 SUB PUSH1 0x60 DUP4 ADD MSTORE PUSH2 0x1AF6 DUP2 DUP5 PUSH2 0x1A7F JUMP JUMPDEST SWAP1 POP SWAP6 SWAP5 POP POP POP POP POP JUMP JUMPDEST PUSH0 DUP2 SWAP1 POP DUP3 PUSH1 0x20 PUSH1 0x8 MUL DUP3 ADD GT ISZERO PUSH2 0x1B1C JUMPI PUSH2 0x1B1B PUSH2 0x1851 JUMP JUMPDEST JUMPDEST SWAP3 SWAP2 POP POP JUMP JUMPDEST PUSH0 PUSH2 0x1B2C DUP3 PUSH2 0x191B JUMP JUMPDEST SWAP1 POP SWAP2 SWAP1 POP JUMP JUMPDEST PUSH2 0x1B3C DUP2 PUSH2 0x1B22 JUMP JUMPDEST DUP2 EQ PUSH2 0x1B46 JUMPI PUSH0 DUP1 REVERT JUMPDEST POP JUMP JUMPDEST PUSH0 DUP2 CALLDATALOAD SWAP1 POP PUSH2 0x1B57 DUP2 PUSH2 0x1B33 JUMP JUMPDEST SWAP3 SWAP2 POP POP JUMP JUMPDEST PUSH0 DUP1 PUSH0 DUP1 PUSH0 DUP1 PUSH2 0x1A0 DUP8 DUP10 SUB SLT ISZERO PUSH2 0x1B78 JUMPI PUSH2 0x1B77 PUSH2 0x177D JUMP JUMPDEST JUMPDEST PUSH0 PUSH2 0x1B85 DUP10 DUP3 DUP11 ADD PUSH2 0x1B01 JUMP JUMPDEST SWAP7 POP POP PUSH2 0x100 PUSH2 0x1B97 DUP10 DUP3 DUP11 ADD PUSH2 0x17A4 JUMP JUMPDEST SWAP6 POP POP PUSH2 0x120 PUSH2 0x1BA9 DUP10 DUP3 DUP11 ADD PUSH2 0x1B49 JUMP JUMPDEST SWAP5 POP POP PUSH2 0x140 PUSH2 0x1BBB DUP10 DUP3 DUP11 ADD PUSH2 0x1B49 JUMP JUMPDEST SWAP4 POP POP PUSH2 0x160 PUSH2 0x1BCD DUP10 DUP3 DUP11 ADD PUSH2 0x1835 JUMP JUMPDEST SWAP3 POP POP PUSH2 0x180 PUSH2 0x1BDF DUP10 DUP3 DUP11 ADD PUSH2 0x1835 JUMP JUMPDEST SWAP2 POP POP SWAP3 SWAP6 POP SWAP3 SWAP6 POP SWAP3 SWAP6 JUMP JUMPDEST PUSH2 0x1BF5 DUP2 PUSH2 0x1B22 JUMP JUMPDEST DUP3 MSTORE POP POP JUMP JUMPDEST PUSH0 PUSH1 0x20 DUP3 ADD SWAP1 POP PUSH2 0x1C0E PUSH0 DUP4 ADD DUP5 PUSH2 0x1BEC JUMP JUMPDEST SWAP3 SWAP2 POP POP JUMP JUMPDEST PUSH0 PUSH1 0x40 DUP3 ADD SWAP1 POP PUSH2 0x1C27 PUSH0 DUP4 ADD DUP6 PUSH2 0x19AE JUMP JUMPDEST PUSH2 0x1C34 PUSH1 0x20 DUP4 ADD DUP5 PUSH2 0x19D6 JUMP JUMPDEST SWAP4 SWAP3 POP POP POP JUMP JUMPDEST PUSH0 DUP2 MLOAD SWAP1 POP SWAP2 SWAP1 POP JUMP JUMPDEST PUSH0 DUP3 DUP3 MSTORE PUSH1 0x20 DUP3 ADD SWAP1 POP SWAP3 SWAP2 POP POP JUMP JUMPDEST PUSH0 DUP2 SWAP1 POP PUSH1 0x20 DUP3 ADD SWAP1 POP SWAP2 SWAP1 POP JUMP JUMPDEST PUSH2 0x1C6D DUP2 PUSH2 0x1785 JUMP JUMPDEST DUP3 MSTORE POP POP JUMP JUMPDEST PUSH0 PUSH2 0x1C7E DUP4 DUP4 PUSH2 0x1C64 JUMP JUMPDEST PUSH1 0x20 DUP4 ADD SWAP1 POP SWAP3 SWAP2 POP POP JUMP JUMPDEST PUSH0 PUSH1 0x20 DUP3 ADD SWAP1 POP SWAP2 SWAP1 POP JUMP JUMPDEST PUSH0 PUSH2 0x1CA0 DUP3 PUSH2 0x1C3B JUMP JUMPDEST PUSH2 0x1CAA DUP2 DUP6 PUSH2 0x1C45 JUMP JUMPDEST SWAP4 POP PUSH2 0x1CB5 DUP4 PUSH2 0x1C55 JUMP JUMPDEST DUP1 PUSH0 JUMPDEST DUP4 DUP2 LT ISZERO PUSH2 0x1CE5 JUMPI DUP2 MLOAD PUSH2 0x1CCC DUP9 DUP3 PUSH2 0x1C73 JUMP JUMPDEST SWAP8 POP PUSH2 0x1CD7 DUP4 PUSH2 0x1C8A JUMP JUMPDEST SWAP3 POP POP PUSH1 0x1 DUP2 ADD SWAP1 POP PUSH2 0x1CB8 JUMP JUMPDEST POP DUP6 SWAP4 POP POP POP POP SWAP3 SWAP2 POP POP JUMP JUMPDEST PUSH0 PUSH1 0x20 DUP3 ADD SWAP1 POP DUP2 DUP2 SUB PUSH0 DUP4 ADD MSTORE PUSH2 0x1D0A DUP2 DUP5 PUSH2 0x1C96 JUMP JUMPDEST SWAP1 POP SWAP3 SWAP2 POP POP JUMP JUMPDEST PUSH0 PUSH1 0x20 DUP3 DUP5 SUB SLT ISZERO PUSH2 0x1D27 JUMPI PUSH2 0x1D26 PUSH2 0x177D JUMP JUMPDEST JUMPDEST PUSH0 PUSH2 0x1D34 DUP5 DUP3 DUP6 ADD PUSH2 0x1B49 JUMP JUMPDEST SWAP2 POP POP SWAP3 SWAP2 POP POP JUMP JUMPDEST PUSH0 PUSH1 0x60 DUP3 ADD SWAP1 POP PUSH2 0x1D50 PUSH0 DUP4 ADD DUP7 PUSH2 0x19AE JUMP JUMPDEST PUSH2 0x1D5D PUSH1 0x20 DUP4 ADD DUP6 PUSH2 0x19AE JUMP JUMPDEST PUSH2 0x1D6A PUSH1 0x40 DUP4 ADD DUP5 PUSH2 0x17EE JUMP JUMPDEST SWAP5 SWAP4 POP POP POP POP JUMP JUMPDEST PUSH0 PUSH2 0x1D7C DUP3 PUSH2 0x1964 JUMP JUMPDEST SWAP1 POP SWAP2 SWAP1 POP JUMP JUMPDEST PUSH2 0x1D8C DUP2 PUSH2 0x1D72 JUMP JUMPDEST DUP3 MSTORE POP POP JUMP JUMPDEST PUSH0 PUSH1 0x20 DUP3 ADD SWAP1 POP PUSH2 0x1DA5 PUSH0 DUP4 ADD DUP5 PUSH2 0x1D83 JUMP JUMPDEST SWAP3 SWAP2 POP POP JUMP JUMPDEST PUSH0 DUP3 DUP3 MSTORE PUSH1 0x20 DUP3 ADD SWAP1 POP SWAP3 SWAP2 POP POP JUMP JUMPDEST PUSH32 0x496E76616C69642064656E6F6D696E6174696F6E000000000000000000000000 PUSH0 DUP3 ADD MSTORE POP JUMP JUMPDEST PUSH0 PUSH2 0x1DEF PUSH1 0x14 DUP4 PUSH2 0x1DAB JUMP JUMPDEST SWAP2 POP PUSH2 0x1DFA DUP3 PUSH2 0x1DBB JUMP JUMPDEST PUSH1 0x20 DUP3 ADD SWAP1 POP SWAP2 SWAP1 POP JUMP JUMPDEST PUSH0 PUSH1 0x20 DUP3 ADD SWAP1 POP DUP2 DUP2 SUB PUSH0 DUP4 ADD MSTORE PUSH2 0x1E1C DUP2 PUSH2 0x1DE3 JUMP JUMPDEST SWAP1 POP SWAP2 SWAP1 POP JUMP JUMPDEST PUSH32 0x4E487B7100000000000000000000000000000000000000000000000000000000 PUSH0 MSTORE PUSH1 0x11 PUSH1 0x4 MSTORE PUSH1 0x24 PUSH0 REVERT JUMPDEST PUSH0 DUP2 PUSH1 0x1 SHR SWAP1 POP SWAP2 SWAP1 POP JUMP JUMPDEST PUSH0 DUP1 DUP3 SWAP2 POP DUP4 SWAP1 POP JUMPDEST PUSH1 0x1 DUP6 GT ISZERO PUSH2 0x1EA5 JUMPI DUP1 DUP7 DIV DUP2 GT ISZERO PUSH2 0x1E81 JUMPI PUSH2 0x1E80 PUSH2 0x1E23 JUMP JUMPDEST JUMPDEST PUSH1 0x1 DUP6 AND ISZERO PUSH2 0x1E90 JUMPI DUP1 DUP3 MUL SWAP2 POP JUMPDEST DUP1 DUP2 MUL SWAP1 POP PUSH2 0x1E9E DUP6 PUSH2 0x1E50 JUMP JUMPDEST SWAP5 POP PUSH2 0x1E65 JUMP JUMPDEST SWAP5 POP SWAP5 SWAP3 POP POP POP JUMP JUMPDEST PUSH0 DUP3 PUSH2 0x1EBD JUMPI PUSH1 0x1 SWAP1 POP PUSH2 0x1F78 JUMP JUMPDEST DUP2 PUSH2 0x1ECA JUMPI PUSH0 SWAP1 POP PUSH2 0x1F78 JUMP JUMPDEST DUP2 PUSH1 0x1 DUP2 EQ PUSH2 0x1EE0 JUMPI PUSH1 0x2 DUP2 EQ PUSH2 0x1EEA JUMPI PUSH2 0x1F19 JUMP JUMPDEST PUSH1 0x1 SWAP2 POP POP PUSH2 0x1F78 JUMP JUMPDEST PUSH1 0xFF DUP5 GT ISZERO PUSH2 0x1EFC JUMPI PUSH2 0x1EFB PUSH2 0x1E23 JUMP JUMPDEST JUMPDEST DUP4 PUSH1 0x2 EXP SWAP2 POP DUP5 DUP3 GT ISZERO PUSH2 0x1F13 JUMPI PUSH2 0x1F12 PUSH2 0x1E23 JUMP JUMPDEST JUMPDEST POP PUSH2 0x1F78 JUMP JUMPDEST POP PUSH1 0x20 DUP4 LT PUSH2 0x133 DUP4 LT AND PUSH1 0x4E DUP5 LT PUSH1 0xB DUP5 LT AND OR ISZERO PUSH2 0x1F4E JUMPI DUP3 DUP3 EXP SWAP1 POP DUP4 DUP2 GT ISZERO PUSH2 0x1F49 JUMPI PUSH2 0x1F48 PUSH2 0x1E23 JUMP JUMPDEST JUMPDEST PUSH2 0x1F78 JUMP JUMPDEST PUSH2 0x1F5B DUP5 DUP5 DUP5 PUSH1 0x1 PUSH2 0x1E5C JUMP JUMPDEST SWAP3 POP SWAP1 POP DUP2 DUP5 DIV DUP2 GT ISZERO PUSH2 0x1F72 JUMPI PUSH2 0x1F71 PUSH2 0x1E23 JUMP JUMPDEST JUMPDEST DUP2 DUP2 MUL SWAP1 POP JUMPDEST SWAP4 SWAP3 POP POP POP JUMP JUMPDEST PUSH0 PUSH2 0x1F89 DUP3 PUSH2 0x1816 JUMP JUMPDEST SWAP2 POP PUSH2 0x1F94 DUP4 PUSH2 0x1816 JUMP JUMPDEST SWAP3 POP PUSH2 0x1FC1 PUSH32 0xFFFFFFFFFFFFFFFFFFFFFFFFFFFFFFFFFFFFFFFFFFFFFFFFFFFFFFFFFFFFFFFF DUP5 DUP5 PUSH2 0x1EAE JUMP JUMPDEST SWAP1 POP SWAP3 SWAP2 POP POP JUMP JUMPDEST PUSH32 0x547265652066756C6C0000000000000000000000000000000000000000000000 PUSH0 DUP3 ADD MSTORE POP JUMP JUMPDEST PUSH0 PUSH2 0x1FFD PUSH1 0x9 DUP4 PUSH2 0x1DAB JUMP JUMPDEST SWAP2 POP PUSH2 0x2008 DUP3 PUSH2 0x1FC9 JUMP JUMPDEST PUSH1 0x20 DUP3 ADD SWAP1 POP SWAP2 SWAP1 POP JUMP JUMPDEST PUSH0 PUSH1 0x20 DUP3 ADD SWAP1 POP DUP2 DUP2 SUB PUSH0 DUP4 ADD MSTORE PUSH2 0x202A DUP2 PUSH2 0x1FF1 JUMP JUMPDEST SWAP1 POP SWAP2 SWAP1 POP JUMP JUMPDEST PUSH0 PUSH1 0x60 DUP3 ADD SWAP1 POP PUSH2 0x2044 PUSH0 DUP4 ADD DUP7 PUSH2 0x1BEC JUMP JUMPDEST PUSH2 0x2051 PUSH1 0x20 DUP4 ADD DUP6 PUSH2 0x1BEC JUMP JUMPDEST PUSH2 0x205E PUSH1 0x40 DUP4 ADD DUP5 PUSH2 0x19AE JUMP JUMPDEST SWAP5 SWAP4 POP POP POP POP JUMP JUMPDEST PUSH2 0x206F DUP2 PUSH2 0x17E3 JUMP JUMPDEST DUP2 EQ PUSH2 0x2079 JUMPI PUSH0 DUP1 REVERT JUMPDEST POP JUMP JUMPDEST PUSH0 DUP2 MLOAD SWAP1 POP PUSH2 0x208A DUP2 PUSH2 0x2066 JUMP JUMPDEST SWAP3 SWAP2 POP POP JUMP JUMPDEST PUSH0 PUSH1 0x20 DUP3 DUP5 SUB SLT ISZERO PUSH2 0x20A5 JUMPI PUSH2 0x20A4 PUSH2 0x177D JUMP JUMPDEST JUMPDEST PUSH0 PUSH2 0x20B2 DUP5 DUP3 DUP6 ADD PUSH2 0x207C JUMP JUMPDEST SWAP2 POP POP SWAP3 SWAP2 POP POP JUMP JUMPDEST PUSH32 0x4E487B7100000000000000000000000000000000000000000000000000000000 PUSH0 MSTORE PUSH1 0x41 PUSH1 0x4 MSTORE PUSH1 0x24 PUSH0 REVERT JUMPDEST PUSH32 0x4E487B7100000000000000000000000000000000000000000000000000000000 PUSH0 MSTORE PUSH1 0x22 PUSH1 0x4 MSTORE PUSH1 0x24 PUSH0 REVERT JUMPDEST PUSH0 PUSH1 0x2 DUP3 DIV SWAP1 POP PUSH1 0x1 DUP3 AND DUP1 PUSH2 0x212C JUMPI PUSH1 0x7F DUP3 AND SWAP2 POP JUMPDEST PUSH1 0x20 DUP3 LT DUP2 SUB PUSH2 0x213F JUMPI PUSH2 0x213E PUSH2 0x20E8 JUMP JUMPDEST JUMPDEST POP SWAP2 SWAP1 POP JUMP JUMPDEST PUSH0 DUP2 SWAP1 POP DUP2 PUSH0 MSTORE PUSH1 0x20 PUSH0 KECCAK256 SWAP1 POP SWAP2 SWAP1 POP JUMP JUMPDEST PUSH0 PUSH1 0x20 PUSH1 0x1F DUP4 ADD DIV SWAP1 POP SWAP2 SWAP1 POP JUMP JUMPDEST PUSH0 DUP3 DUP3 SHL SWAP1 POP SWAP3 SWAP2 POP POP JUMP JUMPDEST PUSH0 PUSH1 0x8 DUP4 MUL PUSH2 0x21A1 PUSH32 0xFFFFFFFFFFFFFFFFFFFFFFFFFFFFFFFFFFFFFFFFFFFFFFFFFFFFFFFFFFFFFFFF DUP3 PUSH2 0x2166 JUMP JUMPDEST PUSH2 0x21AB DUP7 DUP4 PUSH2 0x2166 JUMP JUMPDEST SWAP6 POP DUP1 NOT DUP5 AND SWAP4 POP DUP1 DUP7 AND DUP5 OR SWAP3 POP POP POP SWAP4 SWAP3 POP POP POP JUMP JUMPDEST PUSH0 PUSH2 0x21DD PUSH2 0x21D8 PUSH2 0x21D3 DUP5 PUSH2 0x1816 JUMP JUMPDEST PUSH2 0x193A JUMP JUMPDEST PUSH2 0x1816 JUMP JUMPDEST SWAP1 POP SWAP2 SWAP1 POP JUMP JUMPDEST PUSH0 DUP2 SWAP1 POP SWAP2 SWAP1 POP JUMP JUMPDEST PUSH2 0x21F6 DUP4 PUSH2 0x21C3 JUMP JUMPDEST PUSH2 0x220A PUSH2 0x2202 DUP3 PUSH2 0x21E4 JUMP JUMPDEST DUP5 DUP5 SLOAD PUSH2 0x2172 JUMP JUMPDEST DUP3 SSTORE POP POP POP POP JUMP JUMPDEST PUSH0 SWAP1 JUMP JUMPDEST PUSH2 0x221E PUSH2 0x2212 JUMP JUMPDEST PUSH2 0x2229 DUP2 DUP5 DUP5 PUSH2 0x21ED JUMP JUMPDEST POP POP POP JUMP JUMPDEST JUMPDEST DUP2 DUP2 LT ISZERO PUSH2 0x224C JUMPI PUSH2 0x2241 PUSH0 DUP3 PUSH2 0x2216 JUMP JUMPDEST PUSH1 0x1 DUP2 ADD SWAP1 POP PUSH2 0x222F JUMP JUMPDEST POP POP JUMP JUMPDEST PUSH1 0x1F DUP3 GT ISZERO PUSH2 0x2291 JUMPI PUSH2 0x2262 DUP2 PUSH2 0x2145 JUMP JUMPDEST PUSH2 0x226B DUP5 PUSH2 0x2157 JUMP JUMPDEST DUP2 ADD PUSH1 0x20 DUP6 LT ISZERO PUSH2 0x227A JUMPI DUP2 SWAP1 POP JUMPDEST PUSH2 0x228E PUSH2 0x2286 DUP6 PUSH2 0x2157 JUMP JUMPDEST DUP4 ADD DUP3 PUSH2 0x222E JUMP JUMPDEST POP POP JUMPDEST POP POP POP JUMP JUMPDEST PUSH0 DUP3 DUP3 SHR SWAP1 POP SWAP3 SWAP2 POP POP JUMP JUMPDEST PUSH0 PUSH2 0x22B1 PUSH0 NOT DUP5 PUSH1 0x8 MUL PUSH2 0x2296 JUMP JUMPDEST NOT DUP1 DUP4 AND SWAP2 POP POP SWAP3 SWAP2 POP POP JUMP JUMPDEST PUSH0 PUSH2 0x22C9 DUP4 DUP4 PUSH2 0x22A2 JUMP JUMPDEST SWAP2 POP DUP3 PUSH1 0x2 MUL DUP3 OR SWAP1 POP SWAP3 SWAP2 POP POP JUMP JUMPDEST PUSH2 0x22E2 DUP3 PUSH2 0x1A47 JUMP JUMPDEST PUSH8 0xFFFFFFFFFFFFFFFF DUP2 GT ISZERO PUSH2 0x22FB JUMPI PUSH2 0x22FA PUSH2 0x20BB JUMP JUMPDEST JUMPDEST PUSH2 0x2305 DUP3 SLOAD PUSH2 0x2115 JUMP JUMPDEST PUSH2 0x2310 DUP3 DUP3 DUP6 PUSH2 0x2250 JUMP JUMPDEST PUSH0 PUSH1 0x20 SWAP1 POP PUSH1 0x1F DUP4 GT PUSH1 0x1 DUP2 EQ PUSH2 0x2341 JUMPI PUSH0 DUP5 ISZERO PUSH2 0x232F JUMPI DUP3 DUP8 ADD MLOAD SWAP1 POP JUMPDEST PUSH2 0x2339 DUP6 DUP3 PUSH2 0x22BE JUMP JUMPDEST DUP7 SSTORE POP PUSH2 0x23A0 JUMP JUMPDEST PUSH1 0x1F NOT DUP5 AND PUSH2 0x234F DUP7 PUSH2 0x2145 JUMP JUMPDEST PUSH0 JUMPDEST DUP3 DUP2 LT ISZERO PUSH2 0x2376 JUMPI DUP5 DUP10 ADD MLOAD DUP3 SSTORE PUSH1 0x1 DUP3 ADD SWAP2 POP PUSH1 0x20 DUP6 ADD SWAP5 POP PUSH1 0x20 DUP2 ADD SWAP1 POP PUSH2 0x2351 JUMP JUMPDEST DUP7 DUP4 LT ISZERO PUSH2 0x2393 JUMPI DUP5 DUP10 ADD MLOAD PUSH2 0x238F PUSH1 0x1F DUP10 AND DUP3 PUSH2 0x22A2 JUMP JUMPDEST DUP4 SSTORE POP JUMPDEST PUSH1 0x1 PUSH1 0x2 DUP9 MUL ADD DUP9 SSTORE POP POP POP JUMPDEST POP POP POP POP POP POP JUMP JUMPDEST PUSH0 PUSH2 0x23B2 DUP3 PUSH2 0x1816 JUMP JUMPDEST SWAP2 POP PUSH32 0xFFFFFFFFFFFFFFFFFFFFFFFFFFFFFFFFFFFFFFFFFFFFFFFFFFFFFFFFFFFFFFFF DUP3 SUB PUSH2 0x23E4 JUMPI PUSH2 0x23E3 PUSH2 0x1E23 JUMP JUMPDEST JUMPDEST PUSH1 0x1 DUP3 ADD SWAP1 POP SWAP2 SWAP1 POP JUMP JUMPDEST PUSH0 PUSH1 0x40 DUP3 ADD SWAP1 POP PUSH2 0x2402 PUSH0 DUP4 ADD DUP6 PUSH2 0x1A38 JUMP JUMPDEST PUSH2 0x240F PUSH1 0x20 DUP4 ADD DUP5 PUSH2 0x19AE JUMP JUMPDEST SWAP4 SWAP3 POP POP POP JUMP JUMPDEST PUSH32 0x44656E6F6D696E6174696F6E206E6F7420656E61626C65640000000000000000 PUSH0 DUP3 ADD MSTORE POP JUMP JUMPDEST PUSH0 PUSH2 0x244A PUSH1 0x18 DUP4 PUSH2 0x1DAB JUMP JUMPDEST SWAP2 POP PUSH2 0x2455 DUP3 PUSH2 0x2416 JUMP JUMPDEST PUSH1 0x20 DUP3 ADD SWAP1 POP SWAP2 SWAP1 POP JUMP JUMPDEST PUSH0 PUSH1 0x20 DUP3 ADD SWAP1 POP DUP2 DUP2 SUB PUSH0 DUP4 ADD MSTORE PUSH2 0x2477 DUP2 PUSH2 0x243E JUMP JUMPDEST SWAP1 POP SWAP2 SWAP1 POP JUMP JUMPDEST PUSH0 PUSH2 0x2488 DUP3 PUSH2 0x1816 JUMP JUMPDEST SWAP2 POP PUSH0 DUP3 SUB PUSH2 0x249A JUMPI PUSH2 0x2499 PUSH2 0x1E23 JUMP JUMPDEST JUMPDEST PUSH1 0x1 DUP3 SUB SWAP1 POP SWAP2 SWAP1 POP JUMP JUMPDEST PUSH0 PUSH2 0x24AF DUP3 PUSH2 0x1816 JUMP JUMPDEST SWAP2 POP PUSH2 0x24BA DUP4 PUSH2 0x1816 JUMP JUMPDEST SWAP3 POP DUP3 DUP3 MUL PUSH2 0x24C8 DUP2 PUSH2 0x1816 JUMP JUMPDEST SWAP2 POP DUP3 DUP3 DIV DUP5 EQ DUP4 ISZERO OR PUSH2 0x24DF JUMPI PUSH2 0x24DE PUSH2 0x1E23 JUMP JUMPDEST JUMPDEST POP SWAP3 SWAP2 POP POP JUMP JUMPDEST PUSH32 0x4E487B7100000000000000000000000000000000000000000000000000000000 PUSH0 MSTORE PUSH1 0x12 PUSH1 0x4 MSTORE PUSH1 0x24 PUSH0 REVERT JUMPDEST PUSH0 PUSH2 0x251D DUP3 PUSH2 0x1816 JUMP JUMPDEST SWAP2 POP PUSH2 0x2528 DUP4 PUSH2 0x1816 JUMP JUMPDEST SWAP3 POP DUP3 PUSH2 0x2538 JUMPI PUSH2 0x2537 PUSH2 0x24E6 JUMP JUMPDEST JUMPDEST DUP3 DUP3 DIV SWAP1 POP SWAP3 SWAP2 POP POP JUMP JUMPDEST PUSH32 0x46656520746F6F20686967680000000000000000000000000000000000000000 PUSH0 DUP3 ADD MSTORE POP JUMP JUMPDEST PUSH0 PUSH2 0x2577 PUSH1 0xC DUP4 PUSH2 0x1DAB JUMP JUMPDEST SWAP2 POP PUSH2 0x2582 DUP3 PUSH2 0x2543 JUMP JUMPDEST PUSH1 0x20 DUP3 ADD SWAP1 POP SWAP2 SWAP1 POP JUMP JUMPDEST PUSH0 PUSH1 0x20 DUP3 ADD SWAP1 POP DUP2 DUP2 SUB PUSH0 DUP4 ADD MSTORE PUSH2 0x25A4 DUP2 PUSH2 0x256B JUMP JUMPDEST SWAP1 POP SWAP2 SWAP1 POP JUMP JUMPDEST PUSH32 0x4E6F746520616C7265616479207370656E740000000000000000000000000000 PUSH0 DUP3 ADD MSTORE POP JUMP JUMPDEST PUSH0 PUSH2 0x25DF PUSH1 0x12 DUP4 PUSH2 0x1DAB JUMP JUMPDEST SWAP2 POP PUSH2 0x25EA DUP3 PUSH2 0x25AB JUMP JUMPDEST PUSH1 0x20 DUP3 ADD SWAP1 POP SWAP2 SWAP1 POP JUMP JUMPDEST PUSH0 PUSH1 0x20 DUP3 ADD SWAP1 POP DUP2 DUP2 SUB PUSH0 DUP4 ADD MSTORE PUSH2 0x260C DUP2 PUSH2 0x25D3 JUMP JUMPDEST SWAP1 POP SWAP2 SWAP1 POP JUMP JUMPDEST PUSH0 PUSH2 0x261D DUP3 PUSH2 0x1816 JUMP JUMPDEST SWAP2 POP PUSH2 0x2628 DUP4 PUSH2 0x1816 JUMP JUMPDEST SWAP3 POP DUP3 DUP3 ADD SWAP1 POP DUP1 DUP3 GT ISZERO PUSH2 0x2640 JUMPI PUSH2 0x263F PUSH2 0x1E23 JUMP JUMPDEST JUMPDEST SWAP3 SWAP2 POP POP JUMP JUMPDEST PUSH32 0x4E487B7100000000000000000000000000000000000000000000000000000000 PUSH0 MSTORE PUSH1 0x32 PUSH1 0x4 MSTORE PUSH1 0x24 PUSH0 REVERT JUMPDEST DUP3 DUP2 DUP4 CALLDATACOPY POP POP POP JUMP JUMPDEST PUSH2 0x2689 PUSH2 0x100 DUP4 DUP4 PUSH2 0x2673 JUMP JUMPDEST POP POP JUMP JUMPDEST PUSH0 PUSH1 0x1 SWAP1 POP SWAP2 SWAP1 POP JUMP JUMPDEST PUSH0 DUP2 SWAP1 POP SWAP3 SWAP2 POP POP JUMP JUMPDEST PUSH0 DUP2 SWAP1 POP SWAP2 SWAP1 POP JUMP JUMPDEST PUSH2 0x26B3 DUP2 PUSH2 0x1816 JUMP JUMPDEST DUP3 MSTORE POP POP JUMP JUMPDEST PUSH0 PUSH2 0x26C4 DUP4 DUP4 PUSH2 0x26AA JUMP JUMPDEST PUSH1 0x20 DUP4 ADD SWAP1 POP SWAP3 SWAP2 POP POP JUMP JUMPDEST PUSH0 PUSH1 0x20 DUP3 ADD SWAP1 POP SWAP2 SWAP1 POP JUMP JUMPDEST PUSH2 0x26E5 DUP2 PUSH2 0x268D JUMP JUMPDEST PUSH2 0x26EF DUP2 DUP5 PUSH2 0x2697 JUMP JUMPDEST SWAP3 POP PUSH2 0x26FA DUP3 PUSH2 0x26A1 JUMP JUMPDEST DUP1 PUSH0 JUMPDEST DUP4 DUP2 LT ISZERO PUSH2 0x272A JUMPI DUP2 MLOAD PUSH2 0x2711 DUP8 DUP3 PUSH2 0x26B9 JUMP JUMPDEST SWAP7 POP PUSH2 0x271C DUP4 PUSH2 0x26D0 JUMP JUMPDEST SWAP3 POP POP PUSH1 0x1 DUP2 ADD SWAP1 POP PUSH2 0x26FD JUMP JUMPDEST POP POP POP POP POP POP JUMP JUMPDEST PUSH0 PUSH2 0x120 DUP3 ADD SWAP1 POP PUSH2 0x2746 PUSH0 DUP4 ADD DUP6 PUSH2 0x267C JUMP JUMPDEST PUSH2 0x2754 PUSH2 0x100 DUP4 ADD DUP5 PUSH2 0x26DC JUMP JUMPDEST SWAP4 SWAP3 POP POP POP JUMP JUMPDEST PUSH32 0x496E76616C69642070726F6F6600000000000000000000000000000000000000 PUSH0 DUP3 ADD MSTORE POP JUMP JUMPDEST PUSH0 PUSH2 0x278F PUSH1 0xD DUP4 PUSH2 0x1DAB JUMP JUMPDEST SWAP2 POP PUSH2 0x279A DUP3 PUSH2 0x275B JUMP JUMPDEST PUSH1 0x20 DUP3 ADD SWAP1 POP SWAP2 SWAP1 POP JUMP JUMPDEST PUSH0 PUSH1 0x20 DUP3 ADD SWAP1 POP DUP2 DUP2 SUB PUSH0 DUP4 ADD MSTORE PUSH2 0x27BC DUP2 PUSH2 0x2783 JUMP JUMPDEST SWAP1 POP SWAP2 SWAP1 POP JUMP JUMPDEST PUSH0 PUSH1 0x40 DUP3 ADD SWAP1 POP PUSH2 0x27D6 PUSH0 DUP4 ADD DUP6 PUSH2 0x1BEC JUMP JUMPDEST PUSH2 0x27E3 PUSH1 0x20 DUP4 ADD DUP5 PUSH2 0x19AE JUMP JUMPDEST SWAP4 SWAP3 POP POP POP JUMP JUMPDEST PUSH0 PUSH2 0x27F4 DUP3 PUSH2 0x1816 JUMP JUMPDEST SWAP2 POP PUSH2 0x27FF DUP4 PUSH2 0x1816 JUMP JUMPDEST SWAP3 POP DUP3 DUP3 SUB SWAP1 POP DUP2 DUP2 GT ISZERO PUSH2 0x2817 JUMPI PUSH2 0x2816 PUSH2 0x1E23 JUMP JUMPDEST JUMPDEST SWAP3 SWAP2 POP POP JUMP JUMPDEST PUSH0 PUSH1 0x40 DUP3 ADD SWAP1 POP PUSH2 0x2830 PUSH0 DUP4 ADD DUP6 PUSH2 0x19AE JUMP JUMPDEST PUSH2 0x283D PUSH1 0x20 DUP4 ADD DUP5 PUSH2 0x19AE JUMP JUMPDEST SWAP4 SWAP3 POP POP POP JUMP JUMPDEST PUSH32 0x496E76616C696420616D6F756E74000000000000000000000000000000000000 PUSH0 DUP3 ADD MSTORE POP JUMP JUMPDEST PUSH0 PUSH2 0x2878 PUSH1 0xE DUP4 PUSH2 0x1DAB JUMP JUMPDEST SWAP2 POP PUSH2 0x2883 DUP3 PUSH2 0x2844 JUMP JUMPDEST PUSH1 0x20 DUP3 ADD SWAP1 POP SWAP2 SWAP1 POP JUMP JUMPDEST PUSH0 PUSH1 0x20 DUP3 ADD SWAP1 POP DUP2 DUP2 SUB PUSH0 DUP4 ADD MSTORE PUSH2 0x28A5 DUP2 PUSH2 0x286C JUMP JUMPDEST SWAP1 POP SWAP2 SWAP1 POP JUMP JUMPDEST PUSH32 0x44656E6F6D696E6174696F6E2065786973747300000000000000000000000000 PUSH0 DUP3 ADD MSTORE POP JUMP JUMPDEST PUSH0 PUSH2 0x28E0 PUSH1 0x13 DUP4 PUSH2 0x1DAB JUMP JUMPDEST SWAP2 POP PUSH2 0x28EB DUP3 PUSH2 0x28AC JUMP JUMPDEST PUSH1 0x20 DUP3 ADD SWAP1 POP SWAP2 SWAP1 POP JUMP JUMPDEST PUSH0 PUSH1 0x20 DUP3 ADD SWAP1 POP DUP2 DUP2 SUB PUSH0 DUP4 ADD MSTORE PUSH2 0x290D DUP2 PUSH2 0x28D4 JUMP JUMPDEST SWAP1 POP SWAP2 SWAP1 POP JUMP JUMPDEST PUSH32 0x496E646578206F7574206F6620626F756E647300000000000000000000000000 PUSH0 DUP3 ADD MSTORE POP JUMP JUMPDEST PUSH0 PUSH2 0x2948 PUSH1 0x13 DUP4 PUSH2 0x1DAB JUMP JUMPDEST SWAP2 POP PUSH2 0x2953 DUP3 PUSH2 0x2914 JUMP JUMPDEST PUSH1 0x20 DUP3 ADD SWAP1 POP SWAP2 SWAP1 POP JUMP JUMPDEST PUSH0 PUSH1 0x20 DUP3 ADD SWAP1 POP DUP2 DUP2 SUB PUSH0 DUP4 ADD MSTORE PUSH2 0x2975 DUP2 PUSH2 0x293C JUMP JUMPDEST SWAP1 POP SWAP2 SWAP1 POP JUMP JUMPDEST PUSH0 PUSH2 0x2986 DUP3 PUSH2 0x1816 JUMP JUMPDEST SWAP2 POP PUSH2 0x2991 DUP4 PUSH2 0x1816 JUMP JUMPDEST SWAP3 POP DUP3 PUSH2 0x29A1 JUMPI PUSH2 0x29A0 PUSH2 0x24E6 JUMP JUMPDEST JUMPDEST DUP3 DUP3 MOD SWAP1 POP SWAP3 SWAP2 POP POP JUMP JUMPDEST PUSH0 DUP2 SWAP1 POP SWAP2 SWAP1 POP JUMP JUMPDEST PUSH2 0x29C6 PUSH2 0x29C1 DUP3 PUSH2 0x1785 JUMP JUMPDEST PUSH2 0x29AC JUMP JUMPDEST DUP3 MSTORE POP POP JUMP JUMPDEST PUSH0 PUSH2 0x29D7 DUP3 DUP6 PUSH2 0x29B5 JUMP JUMPDEST PUSH1 0x20 DUP3 ADD SWAP2 POP PUSH2 0x29E7 DUP3 DUP5 PUSH2 0x29B5 JUMP JUMPDEST PUSH1 0x20 DUP3 ADD SWAP2 POP DUP2 SWAP1 POP SWAP4 SWAP3 POP POP POP JUMP INVALID LOG2 PUSH5 0x6970667358 0x22 SLT KECCAK256 PUSH10 0xE24E512F184A8541E999 MUL EXTCODESIZE PUSH25 0x9F7BCED51E13D9B44C508AD3F8AAFAFC7DE964736F6C634300 ADDMOD BYTE STOP CALLER "
		},
		"gasEstimates": {
			"creation": {
				"codeDepositCost": "2159400",
				"executionCost": "infinite",
				"totalCost": "infinite"
			},
			"external": {
				"MAX_DEPOSIT_COUNT()": "infinite",
				"MAX_FEE_PERCENT()": "414",
				"MERKLE_TREE_HEIGHT()": "457",
				"addDenomination(uint256)": "infinite",
				"denominationCount()": "2537",
				"denominations(uint256)": "infinite",
				"deposit(bytes32,uint256,bytes)": "infinite",
				"disableDenomination(uint256)": "infinite",
				"getPath(uint256)": "infinite",
				"getRoot()": "2483",
				"merkleTree()": "4739",
				"notes(bytes32)": "infinite",
				"nullifierHashes(bytes32)": "2809",
				"owner()": "2582",
				"pause()": "infinite",
				"paused()": "2496",
				"renounceOwnership()": "infinite",
				"token()": "infinite",
				"transferOwnership(address)": "infinite",
				"unpause()": "infinite",
				"verifier()": "infinite",
				"withdraw(uint256[8],bytes32,address,address,uint256,uint256)": "infinite"
			},
			"internal": {
				"_insert(bytes32)": "infinite",
				"hashLeftRight(bytes32,bytes32)": "infinite",
				"zeros(uint256)": "infinite"
			}
		},
		"methodIdentifiers": {
			"MAX_DEPOSIT_COUNT()": "e754b9c6",
			"MAX_FEE_PERCENT()": "67d81740",
			"MERKLE_TREE_HEIGHT()": "fcc0be6b",
			"addDenomination(uint256)": "cc2ed697",
			"denominationCount()": "595ba3ed",
			"denominations(uint256)": "f3ce61ad",
			"deposit(bytes32,uint256,bytes)": "1acc8486",
			"disableDenomination(uint256)": "666ee854",
			"getPath(uint256)": "e1765073",
			"getRoot()": "5ca1e165",
			"merkleTree()": "bb7df052",
			"notes(bytes32)": "85de26b7",
			"nullifierHashes(bytes32)": "17cc915c",
			"owner()": "8da5cb5b",
			"pause()": "8456cb59",
			"paused()": "5c975abb",
			"renounceOwnership()": "715018a6",
			"token()": "fc0c546a",
			"transferOwnership(address)": "f2fde38b",
			"unpause()": "3f4ba83a",
			"verifier()": "2b7ac3f3",
			"withdraw(uint256[8],bytes32,address,address,uint256,uint256)": "86cf6de4"
		}
	},
	"abi": [
		{
			"inputs": [
				{
					"internalType": "address",
					"name": "initialOwner",
					"type": "address"
				},
				{
					"internalType": "address",
					"name": "_token",
					"type": "address"
				},
				{
					"internalType": "address",
					"name": "_verifier",
					"type": "address"
				}
			],
			"stateMutability": "nonpayable",
			"type": "constructor"
		},
		{
			"inputs": [],
			"name": "EnforcedPause",
			"type": "error"
		},
		{
			"inputs": [],
			"name": "ExpectedPause",
			"type": "error"
		},
		{
			"inputs": [
				{
					"internalType": "address",
					"name": "owner",
					"type": "address"
				}
			],
			"name": "OwnableInvalidOwner",
			"type": "error"
		},
		{
			"inputs": [
				{
					"internalType": "address",
					"name": "account",
					"type": "address"
				}
			],
			"name": "OwnableUnauthorizedAccount",
			"type": "error"
		},
		{
			"inputs": [],
			"name": "ReentrancyGuardReentrantCall",
			"type": "error"
		},
		{
			"anonymous": false,
			"inputs": [
				{
					"indexed": false,
					"internalType": "uint256",
					"name": "denomination",
					"type": "uint256"
				}
			],
			"name": "DenominationDisabled",
			"type": "event"
		},
		{
			"anonymous": false,
			"inputs": [
				{
					"indexed": false,
					"internalType": "uint256",
					"name": "denomination",
					"type": "uint256"
				}
			],
			"name": "DenominationEnabled",
			"type": "event"
		},
		{
			"anonymous": false,
			"inputs": [
				{
					"indexed": true,
					"internalType": "bytes32",
					"name": "commitment",
					"type": "bytes32"
				},
				{
					"indexed": true,
					"internalType": "uint256",
					"name": "denomination",
					"type": "uint256"
				},
				{
					"indexed": false,
					"internalType": "uint32",
					"name": "leafIndex",
					"type": "uint32"
				},
				{
					"indexed": false,
					"internalType": "uint256",
					"name": "timestamp",
					"type": "uint256"
				}
			],
			"name": "Deposit",
			"type": "event"
		},
		{
			"anonymous": false,
			"inputs": [
				{
					"indexed": true,
					"internalType": "address",
					"name": "previousOwner",
					"type": "address"
				},
				{
					"indexed": true,
					"internalType": "address",
					"name": "newOwner",
					"type": "address"
				}
			],
			"name": "OwnershipTransferred",
			"type": "event"
		},
		{
			"anonymous": false,
			"inputs": [
				{
					"indexed": false,
					"internalType": "address",
					"name": "account",
					"type": "address"
				}
			],
			"name": "Paused",
			"type": "event"
		},
		{
			"anonymous": false,
			"inputs": [
				{
					"indexed": false,
					"internalType": "address",
					"name": "account",
					"type": "address"
				}
			],
			"name": "Unpaused",
			"type": "event"
		},
		{
			"anonymous": false,
			"inputs": [
				{
					"indexed": true,
					"internalType": "address",
					"name": "recipient",
					"type": "address"
				},
				{
					"indexed": true,
					"internalType": "bytes32",
					"name": "nullifier",
					"type": "bytes32"
				},
				{
					"indexed": true,
					"internalType": "address",
					"name": "relayer",
					"type": "address"
				},
				{
					"indexed": false,
					"internalType": "uint256",
					"name": "denomination",
					"type": "uint256"
				},
				{
					"indexed": false,
					"internalType": "uint256",
					"name": "fee",
					"type": "uint256"
				}
			],
			"name": "Withdrawal",
			"type": "event"
		},
		{
			"inputs": [],
			"name": "MAX_DEPOSIT_COUNT",
			"outputs": [
				{
					"internalType": "uint256",
					"name": "",
					"type": "uint256"
				}
			],
			"stateMutability": "view",
			"type": "function"
		},
		{
			"inputs": [],
			"name": "MAX_FEE_PERCENT",
			"outputs": [
				{
					"internalType": "uint256",
					"name": "",
					"type": "uint256"
				}
			],
			"stateMutability": "view",
			"type": "function"
		},
		{
			"inputs": [],
			"name": "MERKLE_TREE_HEIGHT",
			"outputs": [
				{
					"internalType": "uint256",
					"name": "",
					"type": "uint256"
				}
			],
			"stateMutability": "view",
			"type": "function"
		},
		{
			"inputs": [
				{
					"internalType": "uint256",
					"name": "amount",
					"type": "uint256"
				}
			],
			"name": "addDenomination",
			"outputs": [],
			"stateMutability": "nonpayable",
			"type": "function"
		},
		{
			"inputs": [],
			"name": "denominationCount",
			"outputs": [
				{
					"internalType": "uint256",
					"name": "",
					"type": "uint256"
				}
			],
			"stateMutability": "view",
			"type": "function"
		},
		{
			"inputs": [
				{
					"internalType": "uint256",
					"name": "",
					"type": "uint256"
				}
			],
			"name": "denominations",
			"outputs": [
				{
					"internalType": "uint256",
					"name": "amount",
					"type": "uint256"
				},
				{
					"internalType": "uint256",
					"name": "depositsCount",
					"type": "uint256"
				},
				{
					"internalType": "bool",
					"name": "enabled",
					"type": "bool"
				}
			],
			"stateMutability": "view",
			"type": "function"
		},
		{
			"inputs": [
				{
					"internalType": "bytes32",
					"name": "commitment",
					"type": "bytes32"
				},
				{
					"internalType": "uint256",
					"name": "denomination",
					"type": "uint256"
				},
				{
					"internalType": "bytes",
					"name": "encryptedNote",
					"type": "bytes"
				}
			],
			"name": "deposit",
			"outputs": [],
			"stateMutability": "nonpayable",
			"type": "function"
		},
		{
			"inputs": [
				{
					"internalType": "uint256",
					"name": "amount",
					"type": "uint256"
				}
			],
			"name": "disableDenomination",
			"outputs": [],
			"stateMutability": "nonpayable",
			"type": "function"
		},
		{
			"inputs": [
				{
					"internalType": "uint256",
					"name": "index",
					"type": "uint256"
				}
			],
			"name": "getPath",
			"outputs": [
				{
					"internalType": "bytes32[]",
					"name": "",
					"type": "bytes32[]"
				}
			],
			"stateMutability": "view",
			"type": "function"
		},
		{
			"inputs": [],
			"name": "getRoot",
			"outputs": [
				{
					"internalType": "bytes32",
					"name": "",
					"type": "bytes32"
				}
			],
			"stateMutability": "view",
			"type": "function"
		},
		{
			"inputs": [],
			"name": "merkleTree",
			"outputs": [
				{
					"internalType": "uint256",
					"name": "nextIndex",
					"type": "uint256"
				},
				{
					"internalType": "bytes32",
					"name": "root",
					"type": "bytes32"
				}
			],
			"stateMutability": "view",
			"type": "function"
		},
		{
			"inputs": [
				{
					"internalType": "bytes32",
					"name": "",
					"type": "bytes32"
				}
			],
			"name": "notes",
			"outputs": [
				{
					"internalType": "bytes32",
					"name": "commitment",
					"type": "bytes32"
				},
				{
					"internalType": "uint32",
					"name": "timestamp",
					"type": "uint32"
				},
				{
					"internalType": "uint256",
					"name": "denomination",
					"type": "uint256"
				},
				{
					"internalType": "bytes",
					"name": "encryptedNote",
					"type": "bytes"
				}
			],
			"stateMutability": "view",
			"type": "function"
		},
		{
			"inputs": [
				{
					"internalType": "bytes32",
					"name": "",
					"type": "bytes32"
				}
			],
			"name": "nullifierHashes",
			"outputs": [
				{
					"internalType": "bool",
					"name": "",
					"type": "bool"
				}
			],
			"stateMutability": "view",
			"type": "function"
		},
		{
			"inputs": [],
			"name": "owner",
			"outputs": [
				{
					"internalType": "address",
					"name": "",
					"type": "address"
				}
			],
			"stateMutability": "view",
			"type": "function"
		},
		{
			"inputs": [],
			"name": "pause",
			"outputs": [],
			"stateMutability": "nonpayable",
			"type": "function"
		},
		{
			"inputs": [],
			"name": "paused",
			"outputs": [
				{
					"internalType": "bool",
					"name": "",
					"type": "bool"
				}
			],
			"stateMutability": "view",
			"type": "function"
		},
		{
			"inputs": [],
			"name": "renounceOwnership",
			"outputs": [],
			"stateMutability": "nonpayable",
			"type": "function"
		},
		{
			"inputs": [],
			"name": "token",
			"outputs": [
				{
					"internalType": "contract IERC20",
					"name": "",
					"type": "address"
				}
			],
			"stateMutability": "view",
			"type": "function"
		},
		{
			"inputs": [
				{
					"internalType": "address",
					"name": "newOwner",
					"type": "address"
				}
			],
			"name": "transferOwnership",
			"outputs": [],
			"stateMutability": "nonpayable",
			"type": "function"
		},
		{
			"inputs": [],
			"name": "unpause",
			"outputs": [],
			"stateMutability": "nonpayable",
			"type": "function"
		},
		{
			"inputs": [],
			"name": "verifier",
			"outputs": [
				{
					"internalType": "contract IMixerVerifier",
					"name": "",
					"type": "address"
				}
			],
			"stateMutability": "view",
			"type": "function"
		},
		{
			"inputs": [
				{
					"internalType": "uint256[8]",
					"name": "proof",
					"type": "uint256[8]"
				},
				{
					"internalType": "bytes32",
					"name": "nullifierHash",
					"type": "bytes32"
				},
				{
					"internalType": "address",
					"name": "recipient",
					"type": "address"
				},
				{
					"internalType": "address",
					"name": "relayer",
					"type": "address"
				},
				{
					"internalType": "uint256",
					"name": "fee",
					"type": "uint256"
				},
				{
					"internalType": "uint256",
					"name": "denomination",
					"type": "uint256"
				}
			],
			"name": "withdraw",
			"outputs": [],
			"stateMutability": "nonpayable",
			"type": "function"
		}
	]
}