{
	"p2p/PeerRegistry.sol": {
		"PeerRegistry": {
			"abi": [
				{
					"inputs": [
						{
							"internalType": "address",
							"name": "initialOwner",
							"type": "address"
						},
						{
							"internalType": "address",
							"name": "_verifier",
							"type": "address"
						}
					],
					"stateMutability": "nonpayable",
					"type": "constructor"
				},
				{
					"inputs": [],
					"name": "EnforcedPause",
					"type": "error"
				},
				{
					"inputs": [],
					"name": "ExpectedPause",
					"type": "error"
				},
				{
					"inputs": [
						{
							"internalType": "address",
							"name": "owner",
							"type": "address"
						}
					],
					"name": "OwnableInvalidOwner",
					"type": "error"
				},
				{
					"inputs": [
						{
							"internalType": "address",
							"name": "account",
							"type": "address"
						}
					],
					"name": "OwnableUnauthorizedAccount",
					"type": "error"
				},
				{
					"inputs": [],
					"name": "ReentrancyGuardReentrantCall",
					"type": "error"
				},
				{
					"anonymous": false,
					"inputs": [
						{
							"indexed": true,
							"internalType": "bytes32",
							"name": "peerId",
							"type": "bytes32"
						},
						{
							"indexed": false,
							"internalType": "uint256",
							"name": "timestamp",
							"type": "uint256"
						}
					],
					"name": "BanAppealed",
					"type": "event"
				},
				{
					"anonymous": false,
					"inputs": [
						{
							"indexed": true,
							"internalType": "bytes32",
							"name": "peerId",
							"type": "bytes32"
						},
						{
							"indexed": true,
							"internalType": "bytes32",
							"name": "sessionId",
							"type": "bytes32"
						},
						{
							"indexed": false,
							"internalType": "uint256",
							"name": "timestamp",
							"type": "uint256"
						}
					],
					"name": "MixingSessionJoined",
					"type": "event"
				},
				{
					"anonymous": false,
					"inputs": [
						{
							"indexed": true,
							"internalType": "address",
							"name": "previousOwner",
							"type": "address"
						},
						{
							"indexed": true,
							"internalType": "address",
							"name": "newOwner",
							"type": "address"
						}
					],
					"name": "OwnershipTransferred",
					"type": "event"
				},
				{
					"anonymous": false,
					"inputs": [
						{
							"indexed": false,
							"internalType": "address",
							"name": "account",
							"type": "address"
						}
					],
					"name": "Paused",
					"type": "event"
				},
				{
					"anonymous": false,
					"inputs": [
						{
							"indexed": true,
							"internalType": "bytes32",
							"name": "peerId",
							"type": "bytes32"
						},
						{
							"indexed": false,
							"internalType": "string",
							"name": "reason",
							"type": "string"
						},
						{
							"indexed": false,
							"internalType": "uint256",
							"name": "timestamp",
							"type": "uint256"
						}
					],
					"name": "PeerBanned",
					"type": "event"
				},
				{
					"anonymous": false,
					"inputs": [
						{
							"indexed": true,
							"internalType": "bytes32",
							"name": "peerId",
							"type": "bytes32"
						},
						{
							"indexed": false,
							"internalType": "uint256",
							"name": "timestamp",
							"type": "uint256"
						}
					],
					"name": "PeerDeactivated",
					"type": "event"
				},
				{
					"anonymous": false,
					"inputs": [
						{
							"indexed": true,
							"internalType": "bytes32",
							"name": "peerId",
							"type": "bytes32"
						},
						{
							"indexed": true,
							"internalType": "bytes32",
							"name": "commitment",
							"type": "bytes32"
						},
						{
							"indexed": false,
							"internalType": "uint256",
							"name": "stakingAmount",
							"type": "uint256"
						},
						{
							"indexed": false,
							"internalType": "uint256",
							"name": "timestamp",
							"type": "uint256"
						}
					],
					"name": "PeerRegistered",
					"type": "event"
				},
				{
					"anonymous": false,
					"inputs": [
						{
							"indexed": true,
							"internalType": "bytes32",
							"name": "peerId",
							"type": "bytes32"
						},
						{
							"indexed": false,
							"internalType": "bool",
							"name": "isActive",
							"type": "bool"
						},
						{
							"indexed": false,
							"internalType": "uint256",
							"name": "timestamp",
							"type": "uint256"
						}
					],
					"name": "PeerStatusUpdated",
					"type": "event"
				},
				{
					"anonymous": false,
					"inputs": [
						{
							"indexed": false,
							"internalType": "uint8",
							"name": "newThreshold",
							"type": "uint8"
						}
					],
					"name": "ReputationThresholdUpdated",
					"type": "event"
				},
				{
					"anonymous": false,
					"inputs": [
						{
							"indexed": true,
							"internalType": "bytes32",
							"name": "peerId",
							"type": "bytes32"
						},
						{
							"indexed": false,
							"internalType": "uint256",
							"name": "oldReputation",
							"type": "uint256"
						},
						{
							"indexed": false,
							"internalType": "uint256",
							"name": "newReputation",
							"type": "uint256"
						},
						{
							"indexed": false,
							"internalType": "uint256",
							"name": "timestamp",
							"type": "uint256"
						}
					],
					"name": "ReputationUpdated",
					"type": "event"
				},
				{
					"anonymous": false,
					"inputs": [
						{
							"indexed": false,
							"internalType": "address",
							"name": "account",
							"type": "address"
						}
					],
					"name": "Unpaused",
					"type": "event"
				},
				{
					"anonymous": false,
					"inputs": [
						{
							"indexed": true,
							"internalType": "address",
							"name": "newVerifier",
							"type": "address"
						}
					],
					"name": "VerifierUpdated",
					"type": "event"
				},
				{
					"inputs": [],
					"name": "ACTIVITY_TIMEOUT",
					"outputs": [
						{
							"internalType": "uint256",
							"name": "",
							"type": "uint256"
						}
					],
					"stateMutability": "view",
					"type": "function"
				},
				{
					"inputs": [],
					"name": "INITIAL_REPUTATION",
					"outputs": [
						{
							"internalType": "uint256",
							"name": "",
							"type": "uint256"
						}
					],
					"stateMutability": "view",
					"type": "function"
				},
				{
					"inputs": [],
					"name": "MAX_REPUTATION",
					"outputs": [
						{
							"internalType": "uint256",
							"name": "",
							"type": "uint256"
						}
					],
					"stateMutability": "view",
					"type": "function"
				},
				{
					"inputs": [],
					"name": "MAX_TRUSTED_PEERS",
					"outputs": [
						{
							"internalType": "uint256",
							"name": "",
							"type": "uint256"
						}
					],
					"stateMutability": "view",
					"type": "function"
				},
				{
					"inputs": [],
					"name": "MIN_STAKE",
					"outputs": [
						{
							"internalType": "uint256",
							"name": "",
							"type": "uint256"
						}
					],
					"stateMutability": "view",
					"type": "function"
				},
				{
					"inputs": [],
					"name": "REPORT_THRESHOLD",
					"outputs": [
						{
							"internalType": "uint256",
							"name": "",
							"type": "uint256"
						}
					],
					"stateMutability": "view",
					"type": "function"
				},
				{
					"inputs": [],
					"name": "activePeers",
					"outputs": [
						{
							"internalType": "uint256",
							"name": "",
							"type": "uint256"
						}
					],
					"stateMutability": "view",
					"type": "function"
				},
				{
					"inputs": [
						{
							"internalType": "address",
							"name": "",
							"type": "address"
						}
					],
					"name": "addressToPeerId",
					"outputs": [
						{
							"internalType": "bytes32",
							"name": "",
							"type": "bytes32"
						}
					],
					"stateMutability": "view",
					"type": "function"
				},
				{
					"inputs": [
						{
							"internalType": "bytes32",
							"name": "commitment",
							"type": "bytes32"
						},
						{
							"internalType": "bytes32",
							"name": "appealProof",
							"type": "bytes32"
						}
					],
					"name": "appealBan",
					"outputs": [],
					"stateMutability": "nonpayable",
					"type": "function"
				},
				{
					"inputs": [
						{
							"internalType": "bytes32",
							"name": "commitment",
							"type": "bytes32"
						},
						{
							"internalType": "string",
							"name": "reason",
							"type": "string"
						},
						{
							"internalType": "bytes32",
							"name": "proof",
							"type": "bytes32"
						}
					],
					"name": "banPeer",
					"outputs": [],
					"stateMutability": "nonpayable",
					"type": "function"
				},
				{
					"inputs": [],
					"name": "getActivePeers",
					"outputs": [
						{
							"internalType": "uint256",
							"name": "",
							"type": "uint256"
						}
					],
					"stateMutability": "view",
					"type": "function"
				},
				{
					"inputs": [
						{
							"internalType": "bytes32",
							"name": "commitment",
							"type": "bytes32"
						}
					],
					"name": "getPeerInfo",
					"outputs": [
						{
							"internalType": "address",
							"name": "peerAddress",
							"type": "address"
						},
						{
							"internalType": "bool",
							"name": "isActive",
							"type": "bool"
						},
						{
							"internalType": "uint256",
							"name": "stakingAmount",
							"type": "uint256"
						},
						{
							"internalType": "uint256",
							"name": "lastActivity",
							"type": "uint256"
						},
						{
							"internalType": "uint256",
							"name": "reputation",
							"type": "uint256"
						}
					],
					"stateMutability": "view",
					"type": "function"
				},
				{
					"inputs": [
						{
							"internalType": "bytes32",
							"name": "peerId",
							"type": "bytes32"
						}
					],
					"name": "getPeerReports",
					"outputs": [
						{
							"components": [
								{
									"internalType": "bytes32",
									"name": "reporterId",
									"type": "bytes32"
								},
								{
									"internalType": "bytes32",
									"name": "reportedId",
									"type": "bytes32"
								},
								{
									"internalType": "string",
									"name": "reason",
									"type": "string"
								},
								{
									"internalType": "uint256",
									"name": "timestamp",
									"type": "uint256"
								},
								{
									"internalType": "bool",
									"name": "resolved",
									"type": "bool"
								}
							],
							"internalType": "struct PeerRegistry.Report[]",
							"name": "",
							"type": "tuple[]"
						}
					],
					"stateMutability": "view",
					"type": "function"
				},
				{
					"inputs": [
						{
							"internalType": "bytes32",
							"name": "commitment",
							"type": "bytes32"
						}
					],
					"name": "getPeerStats",
					"outputs": [
						{
							"internalType": "uint256",
							"name": "uploadCount",
							"type": "uint256"
						},
						{
							"internalType": "uint256",
							"name": "downloadCount",
							"type": "uint256"
						},
						{
							"internalType": "uint256",
							"name": "reputation",
							"type": "uint256"
						},
						{
							"internalType": "uint256",
							"name": "reportCount",
							"type": "uint256"
						}
					],
					"stateMutability": "view",
					"type": "function"
				},
				{
					"inputs": [
						{
							"internalType": "bytes32",
							"name": "peerId",
							"type": "bytes32"
						},
						{
							"internalType": "uint256",
							"name": "reportIndex",
							"type": "uint256"
						}
					],
					"name": "getReport",
					"outputs": [
						{
							"internalType": "bytes32",
							"name": "reporterId",
							"type": "bytes32"
						},
						{
							"internalType": "bytes32",
							"name": "reportedId",
							"type": "bytes32"
						},
						{
							"internalType": "string",
							"name": "reason",
							"type": "string"
						},
						{
							"internalType": "uint256",
							"name": "timestamp",
							"type": "uint256"
						},
						{
							"internalType": "bool",
							"name": "resolved",
							"type": "bool"
						}
					],
					"stateMutability": "view",
					"type": "function"
				},
				{
					"inputs": [],
					"name": "getTotalPeers",
					"outputs": [
						{
							"internalType": "uint256",
							"name": "",
							"type": "uint256"
						}
					],
					"stateMutability": "view",
					"type": "function"
				},
				{
					"inputs": [
						{
							"internalType": "bytes32",
							"name": "commitment",
							"type": "bytes32"
						}
					],
					"name": "isBanned",
					"outputs": [
						{
							"internalType": "bool",
							"name": "",
							"type": "bool"
						}
					],
					"stateMutability": "view",
					"type": "function"
				},
				{
					"inputs": [
						{
							"internalType": "bytes32",
							"name": "sessionId",
							"type": "bytes32"
						},
						{
							"internalType": "bytes32",
							"name": "proof",
							"type": "bytes32"
						}
					],
					"name": "joinMixingSession",
					"outputs": [],
					"stateMutability": "nonpayable",
					"type": "function"
				},
				{
					"inputs": [],
					"name": "owner",
					"outputs": [
						{
							"internalType": "address",
							"name": "",
							"type": "address"
						}
					],
					"stateMutability": "view",
					"type": "function"
				},
				{
					"inputs": [],
					"name": "pause",
					"outputs": [],
					"stateMutability": "nonpayable",
					"type": "function"
				},
				{
					"inputs": [],
					"name": "paused",
					"outputs": [
						{
							"internalType": "bool",
							"name": "",
							"type": "bool"
						}
					],
					"stateMutability": "view",
					"type": "function"
				},
				{
					"inputs": [
						{
							"internalType": "bytes32",
							"name": "",
							"type": "bytes32"
						}
					],
					"name": "peers",
					"outputs": [
						{
							"internalType": "bytes32",
							"name": "peerId",
							"type": "bytes32"
						},
						{
							"internalType": "uint256",
							"name": "reputation",
							"type": "uint256"
						},
						{
							"internalType": "uint256",
							"name": "stakingAmount",
							"type": "uint256"
						},
						{
							"internalType": "uint256",
							"name": "uploadCount",
							"type": "uint256"
						},
						{
							"internalType": "uint256",
							"name": "downloadCount",
							"type": "uint256"
						},
						{
							"internalType": "uint256",
							"name": "reportCount",
							"type": "uint256"
						},
						{
							"internalType": "uint256",
							"name": "lastActivity",
							"type": "uint256"
						},
						{
							"internalType": "bool",
							"name": "isActive",
							"type": "bool"
						},
						{
							"internalType": "bytes32",
							"name": "commitment",
							"type": "bytes32"
						}
					],
					"stateMutability": "view",
					"type": "function"
				},
				{
					"inputs": [
						{
							"internalType": "bytes32",
							"name": "",
							"type": "bytes32"
						},
						{
							"internalType": "uint256",
							"name": "",
							"type": "uint256"
						}
					],
					"name": "proofHistory",
					"outputs": [
						{
							"internalType": "bytes32",
							"name": "",
							"type": "bytes32"
						}
					],
					"stateMutability": "view",
					"type": "function"
				},
				{
					"inputs": [
						{
							"internalType": "bytes32",
							"name": "commitment",
							"type": "bytes32"
						},
						{
							"internalType": "bytes32",
							"name": "proof",
							"type": "bytes32"
						},
						{
							"internalType": "uint256",
							"name": "stake",
							"type": "uint256"
						}
					],
					"name": "registerPeer",
					"outputs": [],
					"stateMutability": "payable",
					"type": "function"
				},
				{
					"inputs": [],
					"name": "renounceOwnership",
					"outputs": [],
					"stateMutability": "nonpayable",
					"type": "function"
				},
				{
					"inputs": [],
					"name": "totalPeers",
					"outputs": [
						{
							"internalType": "uint256",
							"name": "",
							"type": "uint256"
						}
					],
					"stateMutability": "view",
					"type": "function"
				},
				{
					"inputs": [
						{
							"internalType": "address",
							"name": "newOwner",
							"type": "address"
						}
					],
					"name": "transferOwnership",
					"outputs": [],
					"stateMutability": "nonpayable",
					"type": "function"
				},
				{
					"inputs": [
						{
							"internalType": "bytes32",
							"name": "",
							"type": "bytes32"
						},
						{
							"internalType": "bytes32",
							"name": "",
							"type": "bytes32"
						}
					],
					"name": "trustedPeerPairs",
					"outputs": [
						{
							"internalType": "bool",
							"name": "",
							"type": "bool"
						}
					],
					"stateMutability": "view",
					"type": "function"
				},
				{
					"inputs": [],
					"name": "unpause",
					"outputs": [],
					"stateMutability": "nonpayable",
					"type": "function"
				},
				{
					"inputs": [
						{
							"internalType": "bytes32",
							"name": "commitment",
							"type": "bytes32"
						},
						{
							"internalType": "bool",
							"name": "isActive",
							"type": "bool"
						},
						{
							"internalType": "bytes32",
							"name": "proof",
							"type": "bytes32"
						}
					],
					"name": "updatePeerStatus",
					"outputs": [],
					"stateMutability": "nonpayable",
					"type": "function"
				},
				{
					"inputs": [
						{
							"internalType": "bytes32",
							"name": "commitment",
							"type": "bytes32"
						},
						{
							"internalType": "uint256",
							"name": "change",
							"type": "uint256"
						},
						{
							"internalType": "bool",
							"name": "increase",
							"type": "bool"
						},
						{
							"internalType": "bytes32",
							"name": "proof",
							"type": "bytes32"
						}
					],
					"name": "updateReputation",
					"outputs": [],
					"stateMutability": "nonpayable",
					"type": "function"
				},
				{
					"inputs": [
						{
							"internalType": "uint8",
							"name": "newThreshold",
							"type": "uint8"
						}
					],
					"name": "updateReputationThreshold",
					"outputs": [],
					"stateMutability": "nonpayable",
					"type": "function"
				},
				{
					"inputs": [
						{
							"internalType": "address",
							"name": "newVerifier",
							"type": "address"
						}
					],
					"name": "updateVerifier",
					"outputs": [],
					"stateMutability": "nonpayable",
					"type": "function"
				},
				{
					"inputs": [],
					"name": "verifier",
					"outputs": [
						{
							"internalType": "contract IVerifier",
							"name": "",
							"type": "address"
						}
					],
					"stateMutability": "view",
					"type": "function"
				},
				{
					"inputs": [
						{
							"internalType": "bytes32",
							"name": "sessionId",
							"type": "bytes32"
						},
						{
							"internalType": "bytes32",
							"name": "proof",
							"type": "bytes32"
						}
					],
					"name": "verifyMixingProof",
					"outputs": [
						{
							"internalType": "bool",
							"name": "",
							"type": "bool"
						}
					],
					"stateMutability": "view",
					"type": "function"
				}
			],
			"devdoc": {
				"errors": {
					"EnforcedPause()": [
						{
							"details": "The operation failed because the contract is paused."
						}
					],
					"ExpectedPause()": [
						{
							"details": "The operation failed because the contract is not paused."
						}
					],
					"OwnableInvalidOwner(address)": [
						{
							"details": "The owner is not a valid owner account. (eg. `address(0)`)"
						}
					],
					"OwnableUnauthorizedAccount(address)": [
						{
							"details": "The caller account is not authorized to perform an operation."
						}
					],
					"ReentrancyGuardReentrantCall()": [
						{
							"details": "Unauthorized reentrant call."
						}
					]
				},
				"events": {
					"Paused(address)": {
						"details": "Emitted when the pause is triggered by `account`."
					},
					"Unpaused(address)": {
						"details": "Emitted when the pause is lifted by `account`."
					}
				},
				"kind": "dev",
				"methods": {
					"appealBan(bytes32,bytes32)": {
						"params": {
							"appealProof": "Proof to verify appeal",
							"commitment": "Peer commitment"
						}
					},
					"getPeerReports(bytes32)": {
						"params": {
							"peerId": "Peer ID to get reports for"
						},
						"returns": {
							"_0": "Array of reports for the peer"
						}
					},
					"owner()": {
						"details": "Returns the address of the current owner."
					},
					"paused()": {
						"details": "Returns true if the contract is paused, and false otherwise."
					},
					"renounceOwnership()": {
						"details": "Leaves the contract without owner. It will not be possible to call `onlyOwner` functions. Can only be called by the current owner. NOTE: Renouncing ownership will leave the contract without an owner, thereby disabling any functionality that is only available to the owner."
					},
					"transferOwnership(address)": {
						"details": "Transfers ownership of the contract to a new account (`newOwner`). Can only be called by the current owner."
					}
				},
				"version": 1
			},
			"evm": {
				"assembly": "    /* \"p2p/PeerRegistry.sol\":305:10275  contract PeerRegistry is IPeerRegistry, Ownable, ReentrancyGuard, Pausable {... */\n  mstore(0x40, 0x80)\n    /* \"p2p/PeerRegistry.sol\":2248:2393  constructor(... */\n  callvalue\n  dup1\n  iszero\n  tag_1\n  jumpi\n  0x00\n  dup1\n  revert\ntag_1:\n  pop\n  mload(0x40)\n  sub(codesize, bytecodeSize)\n  dup1\n  bytecodeSize\n  dup4\n  codecopy\n  dup2\n  dup2\n  add\n  0x40\n  mstore\n  dup2\n  add\n  swap1\n  tag_2\n  swap2\n  swap1\n  tag_3\n  jump\t// in\ntag_2:\n    /* \"p2p/PeerRegistry.sol\":2331:2343  initialOwner */\n  dup2\n    /* \"@openzeppelin/contracts/access/Ownable.sol\":1297:1298  0 */\n  0x00\n    /* \"@openzeppelin/contracts/access/Ownable.sol\":1273:1299  initialOwner == address(0) */\n  0xffffffffffffffffffffffffffffffffffffffff\n  and\n    /* \"@openzeppelin/contracts/access/Ownable.sol\":1273:1285  initialOwner */\n  dup2\n    /* \"@openzeppelin/contracts/access/Ownable.sol\":1273:1299  initialOwner == address(0) */\n  0xffffffffffffffffffffffffffffffffffffffff\n  and\n  sub\n    /* \"@openzeppelin/contracts/access/Ownable.sol\":1269:1364  if (initialOwner == address(0)) {... */\n  tag_9\n  jumpi\n    /* \"@openzeppelin/contracts/access/Ownable.sol\":1350:1351  0 */\n  0x00\n    /* \"@openzeppelin/contracts/access/Ownable.sol\":1322:1353  OwnableInvalidOwner(address(0)) */\n  mload(0x40)\n  0x1e4fbdf700000000000000000000000000000000000000000000000000000000\n  dup2\n  mstore\n  0x04\n  add\n  tag_10\n  swap2\n  swap1\n  tag_11\n  jump\t// in\ntag_10:\n  mload(0x40)\n  dup1\n  swap2\n  sub\n  swap1\n  revert\n    /* \"@openzeppelin/contracts/access/Ownable.sol\":1269:1364  if (initialOwner == address(0)) {... */\ntag_9:\n    /* \"@openzeppelin/contracts/access/Ownable.sol\":1373:1405  _transferOwnership(initialOwner) */\n  tag_12\n    /* \"@openzeppelin/contracts/access/Ownable.sol\":1392:1404  initialOwner */\n  dup2\n    /* \"@openzeppelin/contracts/access/Ownable.sol\":1373:1391  _transferOwnership */\n  shl(0x20, tag_13)\n    /* \"@openzeppelin/contracts/access/Ownable.sol\":1373:1405  _transferOwnership(initialOwner) */\n  0x20\n  shr\n  jump\t// in\ntag_12:\n    /* \"@openzeppelin/contracts/access/Ownable.sol\":1225:1412  constructor(address initialOwner) {... */\n  pop\n    /* \"@openzeppelin/contracts/utils/ReentrancyGuard.sol\":1857:1858  1 */\n  0x01\n    /* \"@openzeppelin/contracts/utils/ReentrancyGuard.sol\":2061:2068  _status */\n  dup1\n    /* \"@openzeppelin/contracts/utils/ReentrancyGuard.sol\":2061:2082  _status = NOT_ENTERED */\n  dup2\n  swap1\n  sstore\n  pop\n    /* \"@openzeppelin/contracts/utils/Pausable.sol\":1241:1246  false */\n  0x00\n    /* \"@openzeppelin/contracts/utils/Pausable.sol\":1231:1238  _paused */\n  0x02\n  0x00\n    /* \"@openzeppelin/contracts/utils/Pausable.sol\":1231:1246  _paused = false */\n  0x0100\n  exp\n  dup2\n  sload\n  dup2\n  0xff\n  mul\n  not\n  and\n  swap1\n  dup4\n  iszero\n  iszero\n  mul\n  or\n  swap1\n  sstore\n  pop\n    /* \"p2p/PeerRegistry.sol\":2376:2385  _verifier */\n  dup1\n    /* \"p2p/PeerRegistry.sol\":2355:2363  verifier */\n  0x0a\n  0x00\n    /* \"p2p/PeerRegistry.sol\":2355:2386  verifier = IVerifier(_verifier) */\n  0x0100\n  exp\n  dup2\n  sload\n  dup2\n  0xffffffffffffffffffffffffffffffffffffffff\n  mul\n  not\n  and\n  swap1\n  dup4\n  0xffffffffffffffffffffffffffffffffffffffff\n  and\n  mul\n  or\n  swap1\n  sstore\n  pop\n    /* \"p2p/PeerRegistry.sol\":2248:2393  constructor(... */\n  pop\n  pop\n    /* \"p2p/PeerRegistry.sol\":305:10275  contract PeerRegistry is IPeerRegistry, Ownable, ReentrancyGuard, Pausable {... */\n  jump(tag_17)\n    /* \"@openzeppelin/contracts/access/Ownable.sol\":2912:3099  function _transferOwnership(address newOwner) internal virtual {... */\ntag_13:\n    /* \"@openzeppelin/contracts/access/Ownable.sol\":2985:3001  address oldOwner */\n  0x00\n    /* \"@openzeppelin/contracts/access/Ownable.sol\":3004:3010  _owner */\n  dup1\n  0x00\n  swap1\n  sload\n  swap1\n  0x0100\n  exp\n  swap1\n  div\n  0xffffffffffffffffffffffffffffffffffffffff\n  and\n    /* \"@openzeppelin/contracts/access/Ownable.sol\":2985:3010  address oldOwner = _owner */\n  swap1\n  pop\n    /* \"@openzeppelin/contracts/access/Ownable.sol\":3029:3037  newOwner */\n  dup2\n    /* \"@openzeppelin/contracts/access/Ownable.sol\":3020:3026  _owner */\n  0x00\n  dup1\n    /* \"@openzeppelin/contracts/access/Ownable.sol\":3020:3037  _owner = newOwner */\n  0x0100\n  exp\n  dup2\n  sload\n  dup2\n  0xffffffffffffffffffffffffffffffffffffffff\n  mul\n  not\n  and\n  swap1\n  dup4\n  0xffffffffffffffffffffffffffffffffffffffff\n  and\n  mul\n  or\n  swap1\n  sstore\n  pop\n    /* \"@openzeppelin/contracts/access/Ownable.sol\":3083:3091  newOwner */\n  dup2\n    /* \"@openzeppelin/contracts/access/Ownable.sol\":3052:3092  OwnershipTransferred(oldOwner, newOwner) */\n  0xffffffffffffffffffffffffffffffffffffffff\n  and\n    /* \"@openzeppelin/contracts/access/Ownable.sol\":3073:3081  oldOwner */\n  dup2\n    /* \"@openzeppelin/contracts/access/Ownable.sol\":3052:3092  OwnershipTransferred(oldOwner, newOwner) */\n  0xffffffffffffffffffffffffffffffffffffffff\n  and\n  0x8be0079c531659141344cd1fd0a4f28419497f9722a3daafe3b4186f6b6457e0\n  mload(0x40)\n  mload(0x40)\n  dup1\n  swap2\n  sub\n  swap1\n  log3\n    /* \"@openzeppelin/contracts/access/Ownable.sol\":2975:3099  {... */\n  pop\n    /* \"@openzeppelin/contracts/access/Ownable.sol\":2912:3099  function _transferOwnership(address newOwner) internal virtual {... */\n  pop\n  jump\t// out\n    /* \"#utility.yul\":88:205   */\ntag_20:\n    /* \"#utility.yul\":197:198   */\n  0x00\n    /* \"#utility.yul\":194:195   */\n  dup1\n    /* \"#utility.yul\":187:199   */\n  revert\n    /* \"#utility.yul\":334:460   */\ntag_22:\n    /* \"#utility.yul\":371:378   */\n  0x00\n    /* \"#utility.yul\":411:453   */\n  0xffffffffffffffffffffffffffffffffffffffff\n    /* \"#utility.yul\":404:409   */\n  dup3\n    /* \"#utility.yul\":400:454   */\n  and\n    /* \"#utility.yul\":389:454   */\n  swap1\n  pop\n    /* \"#utility.yul\":334:460   */\n  swap2\n  swap1\n  pop\n  jump\t// out\n    /* \"#utility.yul\":466:562   */\ntag_23:\n    /* \"#utility.yul\":503:510   */\n  0x00\n    /* \"#utility.yul\":532:556   */\n  tag_33\n    /* \"#utility.yul\":550:555   */\n  dup3\n    /* \"#utility.yul\":532:556   */\n  tag_22\n  jump\t// in\ntag_33:\n    /* \"#utility.yul\":521:556   */\n  swap1\n  pop\n    /* \"#utility.yul\":466:562   */\n  swap2\n  swap1\n  pop\n  jump\t// out\n    /* \"#utility.yul\":568:690   */\ntag_24:\n    /* \"#utility.yul\":641:665   */\n  tag_35\n    /* \"#utility.yul\":659:664   */\n  dup2\n    /* \"#utility.yul\":641:665   */\n  tag_23\n  jump\t// in\ntag_35:\n    /* \"#utility.yul\":634:639   */\n  dup2\n    /* \"#utility.yul\":631:666   */\n  eq\n    /* \"#utility.yul\":621:684   */\n  tag_36\n  jumpi\n    /* \"#utility.yul\":680:681   */\n  0x00\n    /* \"#utility.yul\":677:678   */\n  dup1\n    /* \"#utility.yul\":670:682   */\n  revert\n    /* \"#utility.yul\":621:684   */\ntag_36:\n    /* \"#utility.yul\":568:690   */\n  pop\n  jump\t// out\n    /* \"#utility.yul\":696:839   */\ntag_25:\n    /* \"#utility.yul\":753:758   */\n  0x00\n    /* \"#utility.yul\":784:790   */\n  dup2\n    /* \"#utility.yul\":778:791   */\n  mload\n    /* \"#utility.yul\":769:791   */\n  swap1\n  pop\n    /* \"#utility.yul\":800:833   */\n  tag_38\n    /* \"#utility.yul\":827:832   */\n  dup2\n    /* \"#utility.yul\":800:833   */\n  tag_24\n  jump\t// in\ntag_38:\n    /* \"#utility.yul\":696:839   */\n  swap3\n  swap2\n  pop\n  pop\n  jump\t// out\n    /* \"#utility.yul\":845:1352   */\ntag_3:\n    /* \"#utility.yul\":924:930   */\n  0x00\n    /* \"#utility.yul\":932:938   */\n  dup1\n    /* \"#utility.yul\":981:983   */\n  0x40\n    /* \"#utility.yul\":969:978   */\n  dup4\n    /* \"#utility.yul\":960:967   */\n  dup6\n    /* \"#utility.yul\":956:979   */\n  sub\n    /* \"#utility.yul\":952:984   */\n  slt\n    /* \"#utility.yul\":949:1068   */\n  iszero\n  tag_40\n  jumpi\n    /* \"#utility.yul\":987:1066   */\n  tag_41\n  tag_20\n  jump\t// in\ntag_41:\n    /* \"#utility.yul\":949:1068   */\ntag_40:\n    /* \"#utility.yul\":1107:1108   */\n  0x00\n    /* \"#utility.yul\":1132:1196   */\n  tag_42\n    /* \"#utility.yul\":1188:1195   */\n  dup6\n    /* \"#utility.yul\":1179:1185   */\n  dup3\n    /* \"#utility.yul\":1168:1177   */\n  dup7\n    /* \"#utility.yul\":1164:1186   */\n  add\n    /* \"#utility.yul\":1132:1196   */\n  tag_25\n  jump\t// in\ntag_42:\n    /* \"#utility.yul\":1122:1196   */\n  swap3\n  pop\n    /* \"#utility.yul\":1078:1206   */\n  pop\n    /* \"#utility.yul\":1245:1247   */\n  0x20\n    /* \"#utility.yul\":1271:1335   */\n  tag_43\n    /* \"#utility.yul\":1327:1334   */\n  dup6\n    /* \"#utility.yul\":1318:1324   */\n  dup3\n    /* \"#utility.yul\":1307:1316   */\n  dup7\n    /* \"#utility.yul\":1303:1325   */\n  add\n    /* \"#utility.yul\":1271:1335   */\n  tag_25\n  jump\t// in\ntag_43:\n    /* \"#utility.yul\":1261:1335   */\n  swap2\n  pop\n    /* \"#utility.yul\":1216:1345   */\n  pop\n    /* \"#utility.yul\":845:1352   */\n  swap3\n  pop\n  swap3\n  swap1\n  pop\n  jump\t// out\n    /* \"#utility.yul\":1358:1476   */\ntag_26:\n    /* \"#utility.yul\":1445:1469   */\n  tag_45\n    /* \"#utility.yul\":1463:1468   */\n  dup2\n    /* \"#utility.yul\":1445:1469   */\n  tag_23\n  jump\t// in\ntag_45:\n    /* \"#utility.yul\":1440:1443   */\n  dup3\n    /* \"#utility.yul\":1433:1470   */\n  mstore\n    /* \"#utility.yul\":1358:1476   */\n  pop\n  pop\n  jump\t// out\n    /* \"#utility.yul\":1482:1704   */\ntag_11:\n    /* \"#utility.yul\":1575:1579   */\n  0x00\n    /* \"#utility.yul\":1613:1615   */\n  0x20\n    /* \"#utility.yul\":1602:1611   */\n  dup3\n    /* \"#utility.yul\":1598:1616   */\n  add\n    /* \"#utility.yul\":1590:1616   */\n  swap1\n  pop\n    /* \"#utility.yul\":1626:1697   */\n  tag_47\n    /* \"#utility.yul\":1694:1695   */\n  0x00\n    /* \"#utility.yul\":1683:1692   */\n  dup4\n    /* \"#utility.yul\":1679:1696   */\n  add\n    /* \"#utility.yul\":1670:1676   */\n  dup5\n    /* \"#utility.yul\":1626:1697   */\n  tag_26\n  jump\t// in\ntag_47:\n    /* \"#utility.yul\":1482:1704   */\n  swap3\n  swap2\n  pop\n  pop\n  jump\t// out\n    /* \"p2p/PeerRegistry.sol\":305:10275  contract PeerRegistry is IPeerRegistry, Ownable, ReentrancyGuard, Pausable {... */\ntag_17:\n  dataSize(sub_0)\n  dup1\n  dataOffset(sub_0)\n  0x00\n  codecopy\n  0x00\n  return\nstop\n\nsub_0: assembly {\n        /* \"p2p/PeerRegistry.sol\":305:10275  contract PeerRegistry is IPeerRegistry, Ownable, ReentrancyGuard, Pausable {... */\n      mstore(0x40, 0x80)\n      jumpi(tag_1, lt(calldatasize, 0x04))\n      shr(0xe0, calldataload(0x00))\n      dup1\n      0x81aa8067\n      gt\n      tag_37\n      jumpi\n      dup1\n      0xcb1c2b5c\n      gt\n      tag_38\n      jumpi\n      dup1\n      0xe13ecb1d\n      gt\n      tag_39\n      jumpi\n      dup1\n      0xe13ecb1d\n      eq\n      tag_32\n      jumpi\n      dup1\n      0xe5a99abb\n      eq\n      tag_33\n      jumpi\n      dup1\n      0xe6962ad5\n      eq\n      tag_34\n      jumpi\n      dup1\n      0xf28b7851\n      eq\n      tag_35\n      jumpi\n      dup1\n      0xf2fde38b\n      eq\n      tag_36\n      jumpi\n      jump(tag_1)\n    tag_39:\n      dup1\n      0xcb1c2b5c\n      eq\n      tag_28\n      jumpi\n      dup1\n      0xd213c0f2\n      eq\n      tag_29\n      jumpi\n      dup1\n      0xdf3e1f97\n      eq\n      tag_30\n      jumpi\n      dup1\n      0xe123bb0e\n      eq\n      tag_31\n      jumpi\n      jump(tag_1)\n    tag_38:\n      dup1\n      0x97fc007c\n      gt\n      tag_40\n      jumpi\n      dup1\n      0x97fc007c\n      eq\n      tag_23\n      jumpi\n      dup1\n      0x9976e569\n      eq\n      tag_24\n      jumpi\n      dup1\n      0xb2a93e7c\n      eq\n      tag_25\n      jumpi\n      dup1\n      0xbbcfaf05\n      eq\n      tag_26\n      jumpi\n      dup1\n      0xbe830f42\n      eq\n      tag_27\n      jumpi\n      jump(tag_1)\n    tag_40:\n      dup1\n      0x81aa8067\n      eq\n      tag_19\n      jumpi\n      dup1\n      0x8456cb59\n      eq\n      tag_20\n      jumpi\n      dup1\n      0x852ac836\n      eq\n      tag_21\n      jumpi\n      dup1\n      0x8da5cb5b\n      eq\n      tag_22\n      jumpi\n      jump(tag_1)\n    tag_37:\n      dup1\n      0x5933752f\n      gt\n      tag_41\n      jumpi\n      dup1\n      0x6dc08264\n      gt\n      tag_42\n      jumpi\n      dup1\n      0x6dc08264\n      eq\n      tag_14\n      jumpi\n      dup1\n      0x715018a6\n      eq\n      tag_15\n      jumpi\n      dup1\n      0x7b057258\n      eq\n      tag_16\n      jumpi\n      dup1\n      0x7ba6c9d8\n      eq\n      tag_17\n      jumpi\n      dup1\n      0x8030b496\n      eq\n      tag_18\n      jumpi\n      jump(tag_1)\n    tag_42:\n      dup1\n      0x5933752f\n      eq\n      tag_10\n      jumpi\n      dup1\n      0x5c975abb\n      eq\n      tag_11\n      jumpi\n      dup1\n      0x6133b146\n      eq\n      tag_12\n      jumpi\n      dup1\n      0x614fc7bc\n      eq\n      tag_13\n      jumpi\n      jump(tag_1)\n    tag_41:\n      dup1\n      0x4a8cd9c8\n      gt\n      tag_43\n      jumpi\n      dup1\n      0x4a8cd9c8\n      eq\n      tag_6\n      jumpi\n      dup1\n      0x4aa06447\n      eq\n      tag_7\n      jumpi\n      dup1\n      0x50236a2c\n      eq\n      tag_8\n      jumpi\n      dup1\n      0x52b79f26\n      eq\n      tag_9\n      jumpi\n      jump(tag_1)\n    tag_43:\n      dup1\n      0x21565342\n      eq\n      tag_2\n      jumpi\n      dup1\n      0x2b7ac3f3\n      eq\n      tag_3\n      jumpi\n      dup1\n      0x3f4ba83a\n      eq\n      tag_4\n      jumpi\n      dup1\n      0x48e55a8f\n      eq\n      tag_5\n      jumpi\n    tag_1:\n      0x00\n      dup1\n      revert\n        /* \"p2p/PeerRegistry.sol\":7109:7572  function getPeerStats(... */\n    tag_2:\n      callvalue\n      dup1\n      iszero\n      tag_44\n      jumpi\n      0x00\n      dup1\n      revert\n    tag_44:\n      pop\n      tag_45\n      0x04\n      dup1\n      calldatasize\n      sub\n      dup2\n      add\n      swap1\n      tag_46\n      swap2\n      swap1\n      tag_47\n      jump\t// in\n    tag_46:\n      tag_48\n      jump\t// in\n    tag_45:\n      mload(0x40)\n      tag_49\n      swap5\n      swap4\n      swap3\n      swap2\n      swap1\n      tag_50\n      jump\t// in\n    tag_49:\n      mload(0x40)\n      dup1\n      swap2\n      sub\n      swap1\n      return\n        /* \"p2p/PeerRegistry.sol\":2216:2241  IVerifier public verifier */\n    tag_3:\n      callvalue\n      dup1\n      iszero\n      tag_51\n      jumpi\n      0x00\n      dup1\n      revert\n    tag_51:\n      pop\n      tag_52\n      tag_53\n      jump\t// in\n    tag_52:\n      mload(0x40)\n      tag_54\n      swap2\n      swap1\n      tag_55\n      jump\t// in\n    tag_54:\n      mload(0x40)\n      dup1\n      swap2\n      sub\n      swap1\n      return\n        /* \"p2p/PeerRegistry.sol\":9676:9741  function unpause() external onlyOwner {... */\n    tag_4:\n      callvalue\n      dup1\n      iszero\n      tag_56\n      jumpi\n      0x00\n      dup1\n      revert\n    tag_56:\n      pop\n      tag_57\n      tag_58\n      jump\t// in\n    tag_57:\n      stop\n        /* \"p2p/PeerRegistry.sol\":2184:2210  uint256 public activePeers */\n    tag_5:\n      callvalue\n      dup1\n      iszero\n      tag_59\n      jumpi\n      0x00\n      dup1\n      revert\n    tag_59:\n      pop\n      tag_60\n      tag_61\n      jump\t// in\n    tag_60:\n      mload(0x40)\n      tag_62\n      swap2\n      swap1\n      tag_63\n      jump\t// in\n    tag_62:\n      mload(0x40)\n      dup1\n      swap2\n      sub\n      swap1\n      return\n        /* \"p2p/PeerRegistry.sol\":3504:4553  function updateReputation(... */\n    tag_6:\n      callvalue\n      dup1\n      iszero\n      tag_64\n      jumpi\n      0x00\n      dup1\n      revert\n    tag_64:\n      pop\n      tag_65\n      0x04\n      dup1\n      calldatasize\n      sub\n      dup2\n      add\n      swap1\n      tag_66\n      swap2\n      swap1\n      tag_67\n      jump\t// in\n    tag_66:\n      tag_68\n      jump\t// in\n    tag_65:\n      stop\n        /* \"p2p/PeerRegistry.sol\":1686:1730  uint256 public constant REPORT_THRESHOLD = 3 */\n    tag_7:\n      callvalue\n      dup1\n      iszero\n      tag_69\n      jumpi\n      0x00\n      dup1\n      revert\n    tag_69:\n      pop\n      tag_70\n      tag_71\n      jump\t// in\n    tag_70:\n      mload(0x40)\n      tag_72\n      swap2\n      swap1\n      tag_63\n      jump\t// in\n    tag_72:\n      mload(0x40)\n      dup1\n      swap2\n      sub\n      swap1\n      return\n        /* \"p2p/PeerRegistry.sol\":4555:5027  function banPeer(... */\n    tag_8:\n      callvalue\n      dup1\n      iszero\n      tag_73\n      jumpi\n      0x00\n      dup1\n      revert\n    tag_73:\n      pop\n      tag_74\n      0x04\n      dup1\n      calldatasize\n      sub\n      dup2\n      add\n      swap1\n      tag_75\n      swap2\n      swap1\n      tag_76\n      jump\t// in\n    tag_75:\n      tag_77\n      jump\t// in\n    tag_74:\n      stop\n        /* \"p2p/PeerRegistry.sol\":7792:7969  function isBanned(bytes32 commitment) external view override returns (bool) {... */\n    tag_9:\n      callvalue\n      dup1\n      iszero\n      tag_78\n      jumpi\n      0x00\n      dup1\n      revert\n    tag_78:\n      pop\n      tag_79\n      0x04\n      dup1\n      calldatasize\n      sub\n      dup2\n      add\n      swap1\n      tag_80\n      swap2\n      swap1\n      tag_47\n      jump\t// in\n    tag_80:\n      tag_81\n      jump\t// in\n    tag_79:\n      mload(0x40)\n      tag_82\n      swap2\n      swap1\n      tag_83\n      jump\t// in\n    tag_82:\n      mload(0x40)\n      dup1\n      swap2\n      sub\n      swap1\n      return\n        /* \"p2p/PeerRegistry.sol\":2399:2948  function registerPeer(... */\n    tag_10:\n      tag_84\n      0x04\n      dup1\n      calldatasize\n      sub\n      dup2\n      add\n      swap1\n      tag_85\n      swap2\n      swap1\n      tag_86\n      jump\t// in\n    tag_85:\n      tag_87\n      jump\t// in\n    tag_84:\n      stop\n        /* \"@openzeppelin/contracts/utils/Pausable.sol\":1850:1934  function paused() public view virtual returns (bool) {... */\n    tag_11:\n      callvalue\n      dup1\n      iszero\n      tag_88\n      jumpi\n      0x00\n      dup1\n      revert\n    tag_88:\n      pop\n      tag_89\n      tag_90\n      jump\t// in\n    tag_89:\n      mload(0x40)\n      tag_91\n      swap2\n      swap1\n      tag_83\n      jump\t// in\n    tag_91:\n      mload(0x40)\n      dup1\n      swap2\n      sub\n      swap1\n      return\n        /* \"p2p/PeerRegistry.sol\":1890:1940  mapping(address => bytes32) public addressToPeerId */\n    tag_12:\n      callvalue\n      dup1\n      iszero\n      tag_92\n      jumpi\n      0x00\n      dup1\n      revert\n    tag_92:\n      pop\n      tag_93\n      0x04\n      dup1\n      calldatasize\n      sub\n      dup2\n      add\n      swap1\n      tag_94\n      swap2\n      swap1\n      tag_95\n      jump\t// in\n    tag_94:\n      tag_96\n      jump\t// in\n    tag_93:\n      mload(0x40)\n      tag_97\n      swap2\n      swap1\n      tag_98\n      jump\t// in\n    tag_97:\n      mload(0x40)\n      dup1\n      swap2\n      sub\n      swap1\n      return\n        /* \"p2p/PeerRegistry.sol\":7684:7786  function getActivePeers() external view override returns (uint256) {... */\n    tag_13:\n      callvalue\n      dup1\n      iszero\n      tag_99\n      jumpi\n      0x00\n      dup1\n      revert\n    tag_99:\n      pop\n      tag_100\n      tag_101\n      jump\t// in\n    tag_100:\n      mload(0x40)\n      tag_102\n      swap2\n      swap1\n      tag_63\n      jump\t// in\n    tag_102:\n      mload(0x40)\n      dup1\n      swap2\n      sub\n      swap1\n      return\n        /* \"p2p/PeerRegistry.sol\":9002:9576  function getReport(... */\n    tag_14:\n      callvalue\n      dup1\n      iszero\n      tag_103\n      jumpi\n      0x00\n      dup1\n      revert\n    tag_103:\n      pop\n      tag_104\n      0x04\n      dup1\n      calldatasize\n      sub\n      dup2\n      add\n      swap1\n      tag_105\n      swap2\n      swap1\n      tag_106\n      jump\t// in\n    tag_105:\n      tag_107\n      jump\t// in\n    tag_104:\n      mload(0x40)\n      tag_108\n      swap6\n      swap5\n      swap4\n      swap3\n      swap2\n      swap1\n      tag_109\n      jump\t// in\n    tag_108:\n      mload(0x40)\n      dup1\n      swap2\n      sub\n      swap1\n      return\n        /* \"@openzeppelin/contracts/access/Ownable.sol\":2293:2394  function renounceOwnership() public virtual onlyOwner {... */\n    tag_15:\n      callvalue\n      dup1\n      iszero\n      tag_110\n      jumpi\n      0x00\n      dup1\n      revert\n    tag_110:\n      pop\n      tag_111\n      tag_112\n      jump\t// in\n    tag_111:\n      stop\n        /* \"p2p/PeerRegistry.sol\":1559:1608  uint256 public constant INITIAL_REPUTATION = 5000 */\n    tag_16:\n      callvalue\n      dup1\n      iszero\n      tag_113\n      jumpi\n      0x00\n      dup1\n      revert\n    tag_113:\n      pop\n      tag_114\n      tag_115\n      jump\t// in\n    tag_114:\n      mload(0x40)\n      tag_116\n      swap2\n      swap1\n      tag_63\n      jump\t// in\n    tag_116:\n      mload(0x40)\n      dup1\n      swap2\n      sub\n      swap1\n      return\n        /* \"p2p/PeerRegistry.sol\":9746:10050  function updateReputationThreshold(uint8 newThreshold) external override onlyOwner {... */\n    tag_17:\n      callvalue\n      dup1\n      iszero\n      tag_117\n      jumpi\n      0x00\n      dup1\n      revert\n    tag_117:\n      pop\n      tag_118\n      0x04\n      dup1\n      calldatasize\n      sub\n      dup2\n      add\n      swap1\n      tag_119\n      swap2\n      swap1\n      tag_120\n      jump\t// in\n    tag_119:\n      tag_121\n      jump\t// in\n    tag_118:\n      stop\n        /* \"p2p/PeerRegistry.sol\":1847:1884  mapping(bytes32 => Peer) public peers */\n    tag_18:\n      callvalue\n      dup1\n      iszero\n      tag_122\n      jumpi\n      0x00\n      dup1\n      revert\n    tag_122:\n      pop\n      tag_123\n      0x04\n      dup1\n      calldatasize\n      sub\n      dup2\n      add\n      swap1\n      tag_124\n      swap2\n      swap1\n      tag_47\n      jump\t// in\n    tag_124:\n      tag_125\n      jump\t// in\n    tag_123:\n      mload(0x40)\n      tag_126\n      swap10\n      swap9\n      swap8\n      swap7\n      swap6\n      swap5\n      swap4\n      swap3\n      swap2\n      swap1\n      tag_127\n      jump\t// in\n    tag_126:\n      mload(0x40)\n      dup1\n      swap2\n      sub\n      swap1\n      return\n        /* \"p2p/PeerRegistry.sol\":8852:8989  function getPeerReports(... */\n    tag_19:\n      callvalue\n      dup1\n      iszero\n      tag_128\n      jumpi\n      0x00\n      dup1\n      revert\n    tag_128:\n      pop\n      tag_129\n      0x04\n      dup1\n      calldatasize\n      sub\n      dup2\n      add\n      swap1\n      tag_130\n      swap2\n      swap1\n      tag_47\n      jump\t// in\n    tag_130:\n      tag_131\n      jump\t// in\n    tag_129:\n      mload(0x40)\n      tag_132\n      swap2\n      swap1\n      tag_133\n      jump\t// in\n    tag_132:\n      mload(0x40)\n      dup1\n      swap2\n      sub\n      swap1\n      return\n        /* \"p2p/PeerRegistry.sol\":9609:9670  function pause() external onlyOwner {... */\n    tag_20:\n      callvalue\n      dup1\n      iszero\n      tag_134\n      jumpi\n      0x00\n      dup1\n      revert\n    tag_134:\n      pop\n      tag_135\n      tag_136\n      jump\t// in\n    tag_135:\n      stop\n        /* \"p2p/PeerRegistry.sol\":6549:7103  function getPeerInfo(bytes32 commitment)... */\n    tag_21:\n      callvalue\n      dup1\n      iszero\n      tag_137\n      jumpi\n      0x00\n      dup1\n      revert\n    tag_137:\n      pop\n      tag_138\n      0x04\n      dup1\n      calldatasize\n      sub\n      dup2\n      add\n      swap1\n      tag_139\n      swap2\n      swap1\n      tag_47\n      jump\t// in\n    tag_139:\n      tag_140\n      jump\t// in\n    tag_138:\n      mload(0x40)\n      tag_141\n      swap6\n      swap5\n      swap4\n      swap3\n      swap2\n      swap1\n      tag_142\n      jump\t// in\n    tag_141:\n      mload(0x40)\n      dup1\n      swap2\n      sub\n      swap1\n      return\n        /* \"@openzeppelin/contracts/access/Ownable.sol\":1638:1723  function owner() public view virtual returns (address) {... */\n    tag_22:\n      callvalue\n      dup1\n      iszero\n      tag_143\n      jumpi\n      0x00\n      dup1\n      revert\n    tag_143:\n      pop\n      tag_144\n      tag_145\n      jump\t// in\n    tag_144:\n      mload(0x40)\n      tag_146\n      swap2\n      swap1\n      tag_147\n      jump\t// in\n    tag_146:\n      mload(0x40)\n      dup1\n      swap2\n      sub\n      swap1\n      return\n        /* \"p2p/PeerRegistry.sol\":10052:10274  function updateVerifier(address newVerifier) external override onlyOwner {... */\n    tag_23:\n      callvalue\n      dup1\n      iszero\n      tag_148\n      jumpi\n      0x00\n      dup1\n      revert\n    tag_148:\n      pop\n      tag_149\n      0x04\n      dup1\n      calldatasize\n      sub\n      dup2\n      add\n      swap1\n      tag_150\n      swap2\n      swap1\n      tag_95\n      jump\t// in\n    tag_150:\n      tag_151\n      jump\t// in\n    tag_149:\n      stop\n        /* \"p2p/PeerRegistry.sol\":1946:2014  mapping(bytes32 => mapping(bytes32 => bool)) public trustedPeerPairs */\n    tag_24:\n      callvalue\n      dup1\n      iszero\n      tag_152\n      jumpi\n      0x00\n      dup1\n      revert\n    tag_152:\n      pop\n      tag_153\n      0x04\n      dup1\n      calldatasize\n      sub\n      dup2\n      add\n      swap1\n      tag_154\n      swap2\n      swap1\n      tag_155\n      jump\t// in\n    tag_154:\n      tag_156\n      jump\t// in\n    tag_153:\n      mload(0x40)\n      tag_157\n      swap2\n      swap1\n      tag_83\n      jump\t// in\n    tag_157:\n      mload(0x40)\n      dup1\n      swap2\n      sub\n      swap1\n      return\n        /* \"p2p/PeerRegistry.sol\":6331:6543  function verifyMixingProof(... */\n    tag_25:\n      callvalue\n      dup1\n      iszero\n      tag_158\n      jumpi\n      0x00\n      dup1\n      revert\n    tag_158:\n      pop\n      tag_159\n      0x04\n      dup1\n      calldatasize\n      sub\n      dup2\n      add\n      swap1\n      tag_160\n      swap2\n      swap1\n      tag_155\n      jump\t// in\n    tag_160:\n      tag_161\n      jump\t// in\n    tag_159:\n      mload(0x40)\n      tag_162\n      swap2\n      swap1\n      tag_83\n      jump\t// in\n    tag_162:\n      mload(0x40)\n      dup1\n      swap2\n      sub\n      swap1\n      return\n        /* \"p2p/PeerRegistry.sol\":5862:6329  function joinMixingSession(... */\n    tag_26:\n      callvalue\n      dup1\n      iszero\n      tag_163\n      jumpi\n      0x00\n      dup1\n      revert\n    tag_163:\n      pop\n      tag_164\n      0x04\n      dup1\n      calldatasize\n      sub\n      dup2\n      add\n      swap1\n      tag_165\n      swap2\n      swap1\n      tag_155\n      jump\t// in\n    tag_165:\n      tag_166\n      jump\t// in\n    tag_164:\n      stop\n        /* \"p2p/PeerRegistry.sol\":7578:7678  function getTotalPeers() external view override returns (uint256) {... */\n    tag_27:\n      callvalue\n      dup1\n      iszero\n      tag_167\n      jumpi\n      0x00\n      dup1\n      revert\n    tag_167:\n      pop\n      tag_168\n      tag_169\n      jump\t// in\n    tag_168:\n      mload(0x40)\n      tag_170\n      swap2\n      swap1\n      tag_63\n      jump\t// in\n    tag_170:\n      mload(0x40)\n      dup1\n      swap2\n      sub\n      swap1\n      return\n        /* \"p2p/PeerRegistry.sol\":1436:1485  uint256 public constant MIN_STAKE = 1000 * 10**18 */\n    tag_28:\n      callvalue\n      dup1\n      iszero\n      tag_171\n      jumpi\n      0x00\n      dup1\n      revert\n    tag_171:\n      pop\n      tag_172\n      tag_173\n      jump\t// in\n    tag_172:\n      mload(0x40)\n      tag_174\n      swap2\n      swap1\n      tag_63\n      jump\t// in\n    tag_174:\n      mload(0x40)\n      dup1\n      swap2\n      sub\n      swap1\n      return\n        /* \"p2p/PeerRegistry.sol\":1622:1668  uint256 public constant MAX_REPUTATION = 10000 */\n    tag_29:\n      callvalue\n      dup1\n      iszero\n      tag_175\n      jumpi\n      0x00\n      dup1\n      revert\n    tag_175:\n      pop\n      tag_176\n      tag_177\n      jump\t// in\n    tag_176:\n      mload(0x40)\n      tag_178\n      swap2\n      swap1\n      tag_63\n      jump\t// in\n    tag_178:\n      mload(0x40)\n      dup1\n      swap2\n      sub\n      swap1\n      return\n        /* \"p2p/PeerRegistry.sol\":5154:5860  function appealBan(... */\n    tag_30:\n      callvalue\n      dup1\n      iszero\n      tag_179\n      jumpi\n      0x00\n      dup1\n      revert\n    tag_179:\n      pop\n      tag_180\n      0x04\n      dup1\n      calldatasize\n      sub\n      dup2\n      add\n      swap1\n      tag_181\n      swap2\n      swap1\n      tag_155\n      jump\t// in\n    tag_181:\n      tag_182\n      jump\t// in\n    tag_180:\n      stop\n        /* \"p2p/PeerRegistry.sol\":2075:2142  mapping(bytes32 => mapping(uint256 => bytes32)) public proofHistory */\n    tag_31:\n      callvalue\n      dup1\n      iszero\n      tag_183\n      jumpi\n      0x00\n      dup1\n      revert\n    tag_183:\n      pop\n      tag_184\n      0x04\n      dup1\n      calldatasize\n      sub\n      dup2\n      add\n      swap1\n      tag_185\n      swap2\n      swap1\n      tag_106\n      jump\t// in\n    tag_185:\n      tag_186\n      jump\t// in\n    tag_184:\n      mload(0x40)\n      tag_187\n      swap2\n      swap1\n      tag_98\n      jump\t// in\n    tag_187:\n      mload(0x40)\n      dup1\n      swap2\n      sub\n      swap1\n      return\n        /* \"p2p/PeerRegistry.sol\":2950:3502  function updatePeerStatus(... */\n    tag_32:\n      callvalue\n      dup1\n      iszero\n      tag_188\n      jumpi\n      0x00\n      dup1\n      revert\n    tag_188:\n      pop\n      tag_189\n      0x04\n      dup1\n      calldatasize\n      sub\n      dup2\n      add\n      swap1\n      tag_190\n      swap2\n      swap1\n      tag_191\n      jump\t// in\n    tag_190:\n      tag_192\n      jump\t// in\n    tag_189:\n      stop\n        /* \"p2p/PeerRegistry.sol\":2153:2178  uint256 public totalPeers */\n    tag_33:\n      callvalue\n      dup1\n      iszero\n      tag_193\n      jumpi\n      0x00\n      dup1\n      revert\n    tag_193:\n      pop\n      tag_194\n      tag_195\n      jump\t// in\n    tag_194:\n      mload(0x40)\n      tag_196\n      swap2\n      swap1\n      tag_63\n      jump\t// in\n    tag_196:\n      mload(0x40)\n      dup1\n      swap2\n      sub\n      swap1\n      return\n        /* \"p2p/PeerRegistry.sol\":1507:1553  uint256 public constant MAX_TRUSTED_PEERS = 10 */\n    tag_34:\n      callvalue\n      dup1\n      iszero\n      tag_197\n      jumpi\n      0x00\n      dup1\n      revert\n    tag_197:\n      pop\n      tag_198\n      tag_199\n      jump\t// in\n    tag_198:\n      mload(0x40)\n      tag_200\n      swap2\n      swap1\n      tag_63\n      jump\t// in\n    tag_200:\n      mload(0x40)\n      dup1\n      swap2\n      sub\n      swap1\n      return\n        /* \"p2p/PeerRegistry.sol\":1768:1817  uint256 public constant ACTIVITY_TIMEOUT = 7 days */\n    tag_35:\n      callvalue\n      dup1\n      iszero\n      tag_201\n      jumpi\n      0x00\n      dup1\n      revert\n    tag_201:\n      pop\n      tag_202\n      tag_203\n      jump\t// in\n    tag_202:\n      mload(0x40)\n      tag_204\n      swap2\n      swap1\n      tag_63\n      jump\t// in\n    tag_204:\n      mload(0x40)\n      dup1\n      swap2\n      sub\n      swap1\n      return\n        /* \"@openzeppelin/contracts/access/Ownable.sol\":2543:2758  function transferOwnership(address newOwner) public virtual onlyOwner {... */\n    tag_36:\n      callvalue\n      dup1\n      iszero\n      tag_205\n      jumpi\n      0x00\n      dup1\n      revert\n    tag_205:\n      pop\n      tag_206\n      0x04\n      dup1\n      calldatasize\n      sub\n      dup2\n      add\n      swap1\n      tag_207\n      swap2\n      swap1\n      tag_95\n      jump\t// in\n    tag_207:\n      tag_208\n      jump\t// in\n    tag_206:\n      stop\n        /* \"p2p/PeerRegistry.sol\":7109:7572  function getPeerStats(... */\n    tag_48:\n        /* \"p2p/PeerRegistry.sol\":7206:7225  uint256 uploadCount */\n      0x00\n        /* \"p2p/PeerRegistry.sol\":7235:7256  uint256 downloadCount */\n      dup1\n        /* \"p2p/PeerRegistry.sol\":7266:7284  uint256 reputation */\n      0x00\n        /* \"p2p/PeerRegistry.sol\":7294:7313  uint256 reportCount */\n      dup1\n        /* \"p2p/PeerRegistry.sol\":7330:7344  bytes32 peerId */\n      0x00\n        /* \"p2p/PeerRegistry.sol\":7347:7362  addressToPeerId */\n      0x05\n        /* \"p2p/PeerRegistry.sol\":7347:7374  addressToPeerId[msg.sender] */\n      0x00\n        /* \"p2p/PeerRegistry.sol\":7363:7373  msg.sender */\n      caller\n        /* \"p2p/PeerRegistry.sol\":7347:7374  addressToPeerId[msg.sender] */\n      0xffffffffffffffffffffffffffffffffffffffff\n      and\n      0xffffffffffffffffffffffffffffffffffffffff\n      and\n      dup2\n      mstore\n      0x20\n      add\n      swap1\n      dup2\n      mstore\n      0x20\n      add\n      0x00\n      keccak256\n      sload\n        /* \"p2p/PeerRegistry.sol\":7330:7374  bytes32 peerId = addressToPeerId[msg.sender] */\n      swap1\n      pop\n        /* \"p2p/PeerRegistry.sol\":7384:7401  Peer storage peer */\n      0x00\n        /* \"p2p/PeerRegistry.sol\":7404:7409  peers */\n      0x04\n        /* \"p2p/PeerRegistry.sol\":7404:7417  peers[peerId] */\n      0x00\n        /* \"p2p/PeerRegistry.sol\":7410:7416  peerId */\n      dup4\n        /* \"p2p/PeerRegistry.sol\":7404:7417  peers[peerId] */\n      dup2\n      mstore\n      0x20\n      add\n      swap1\n      dup2\n      mstore\n      0x20\n      add\n      0x00\n      keccak256\n        /* \"p2p/PeerRegistry.sol\":7384:7417  Peer storage peer = peers[peerId] */\n      swap1\n      pop\n        /* \"p2p/PeerRegistry.sol\":7448:7452  peer */\n      dup1\n        /* \"p2p/PeerRegistry.sol\":7448:7464  peer.uploadCount */\n      0x03\n      add\n      sload\n        /* \"p2p/PeerRegistry.sol\":7478:7482  peer */\n      dup2\n        /* \"p2p/PeerRegistry.sol\":7478:7496  peer.downloadCount */\n      0x04\n      add\n      sload\n        /* \"p2p/PeerRegistry.sol\":7510:7514  peer */\n      dup3\n        /* \"p2p/PeerRegistry.sol\":7510:7525  peer.reputation */\n      0x01\n      add\n      sload\n        /* \"p2p/PeerRegistry.sol\":7539:7543  peer */\n      dup4\n        /* \"p2p/PeerRegistry.sol\":7539:7555  peer.reportCount */\n      0x05\n      add\n      sload\n        /* \"p2p/PeerRegistry.sol\":7427:7565  return (... */\n      swap6\n      pop\n      swap6\n      pop\n      swap6\n      pop\n      swap6\n      pop\n      pop\n      pop\n        /* \"p2p/PeerRegistry.sol\":7109:7572  function getPeerStats(... */\n      swap2\n      swap4\n      pop\n      swap2\n      swap4\n      jump\t// out\n        /* \"p2p/PeerRegistry.sol\":2216:2241  IVerifier public verifier */\n    tag_53:\n      0x0a\n      0x00\n      swap1\n      sload\n      swap1\n      0x0100\n      exp\n      swap1\n      div\n      0xffffffffffffffffffffffffffffffffffffffff\n      and\n      dup2\n      jump\t// out\n        /* \"p2p/PeerRegistry.sol\":9676:9741  function unpause() external onlyOwner {... */\n    tag_58:\n        /* \"@openzeppelin/contracts/access/Ownable.sol\":1531:1544  _checkOwner() */\n      tag_211\n        /* \"@openzeppelin/contracts/access/Ownable.sol\":1531:1542  _checkOwner */\n      tag_212\n        /* \"@openzeppelin/contracts/access/Ownable.sol\":1531:1544  _checkOwner() */\n      jump\t// in\n    tag_211:\n        /* \"p2p/PeerRegistry.sol\":9724:9734  _unpause() */\n      tag_214\n        /* \"p2p/PeerRegistry.sol\":9724:9732  _unpause */\n      tag_215\n        /* \"p2p/PeerRegistry.sol\":9724:9734  _unpause() */\n      jump\t// in\n    tag_214:\n        /* \"p2p/PeerRegistry.sol\":9676:9741  function unpause() external onlyOwner {... */\n      jump\t// out\n        /* \"p2p/PeerRegistry.sol\":2184:2210  uint256 public activePeers */\n    tag_61:\n      sload(0x09)\n      dup2\n      jump\t// out\n        /* \"p2p/PeerRegistry.sol\":3504:4553  function updateReputation(... */\n    tag_68:\n        /* \"@openzeppelin/contracts/access/Ownable.sol\":1531:1544  _checkOwner() */\n      tag_217\n        /* \"@openzeppelin/contracts/access/Ownable.sol\":1531:1542  _checkOwner */\n      tag_212\n        /* \"@openzeppelin/contracts/access/Ownable.sol\":1531:1544  _checkOwner() */\n      jump\t// in\n    tag_217:\n        /* \"p2p/PeerRegistry.sol\":3690:3704  bytes32 peerId */\n      0x00\n        /* \"p2p/PeerRegistry.sol\":3707:3722  addressToPeerId */\n      0x05\n        /* \"p2p/PeerRegistry.sol\":3707:3734  addressToPeerId[msg.sender] */\n      0x00\n        /* \"p2p/PeerRegistry.sol\":3723:3733  msg.sender */\n      caller\n        /* \"p2p/PeerRegistry.sol\":3707:3734  addressToPeerId[msg.sender] */\n      0xffffffffffffffffffffffffffffffffffffffff\n      and\n      0xffffffffffffffffffffffffffffffffffffffff\n      and\n      dup2\n      mstore\n      0x20\n      add\n      swap1\n      dup2\n      mstore\n      0x20\n      add\n      0x00\n      keccak256\n      sload\n        /* \"p2p/PeerRegistry.sol\":3690:3734  bytes32 peerId = addressToPeerId[msg.sender] */\n      swap1\n      pop\n        /* \"p2p/PeerRegistry.sol\":3748:3753  peers */\n      0x04\n        /* \"p2p/PeerRegistry.sol\":3748:3761  peers[peerId] */\n      0x00\n        /* \"p2p/PeerRegistry.sol\":3754:3760  peerId */\n      dup3\n        /* \"p2p/PeerRegistry.sol\":3748:3761  peers[peerId] */\n      dup2\n      mstore\n      0x20\n      add\n      swap1\n      dup2\n      mstore\n      0x20\n      add\n      0x00\n      keccak256\n        /* \"p2p/PeerRegistry.sol\":3748:3770  peers[peerId].isActive */\n      0x07\n      add\n      0x00\n      swap1\n      sload\n      swap1\n      0x0100\n      exp\n      swap1\n      div\n      0xff\n      and\n        /* \"p2p/PeerRegistry.sol\":3740:3790  require(peers[peerId].isActive, \"Peer not active\") */\n      tag_219\n      jumpi\n      mload(0x40)\n      0x08c379a000000000000000000000000000000000000000000000000000000000\n      dup2\n      mstore\n      0x04\n      add\n      tag_220\n      swap1\n      tag_221\n      jump\t// in\n    tag_220:\n      mload(0x40)\n      dup1\n      swap2\n      sub\n      swap1\n      revert\n    tag_219:\n        /* \"p2p/PeerRegistry.sol\":3814:3818  1000 */\n      0x03e8\n        /* \"p2p/PeerRegistry.sol\":3804:3810  change */\n      dup5\n        /* \"p2p/PeerRegistry.sol\":3804:3818  change <= 1000 */\n      gt\n      iszero\n        /* \"p2p/PeerRegistry.sol\":3796:3844  require(change <= 1000, \"Invalid change amount\") */\n      tag_222\n      jumpi\n      mload(0x40)\n      0x08c379a000000000000000000000000000000000000000000000000000000000\n      dup2\n      mstore\n      0x04\n      add\n      tag_223\n      swap1\n      tag_224\n      jump\t// in\n    tag_223:\n      mload(0x40)\n      dup1\n      swap2\n      sub\n      swap1\n      revert\n    tag_222:\n        /* \"p2p/PeerRegistry.sol\":3868:3876  verifier */\n      0x0a\n      0x00\n      swap1\n      sload\n      swap1\n      0x0100\n      exp\n      swap1\n      div\n      0xffffffffffffffffffffffffffffffffffffffff\n      and\n        /* \"p2p/PeerRegistry.sol\":3868:3898  verifier.verifyReputationProof */\n      0xffffffffffffffffffffffffffffffffffffffff\n      and\n      0xbcca19c2\n        /* \"p2p/PeerRegistry.sol\":3899:3909  commitment */\n      dup7\n        /* \"p2p/PeerRegistry.sol\":3911:3916  proof */\n      dup5\n        /* \"p2p/PeerRegistry.sol\":3868:3917  verifier.verifyReputationProof(commitment, proof) */\n      mload(0x40)\n      dup4\n      0xffffffff\n      and\n      0xe0\n      shl\n      dup2\n      mstore\n      0x04\n      add\n      tag_225\n      swap3\n      swap2\n      swap1\n      tag_226\n      jump\t// in\n    tag_225:\n      0x20\n      mload(0x40)\n      dup1\n      dup4\n      sub\n      dup2\n      dup7\n      gas\n      staticcall\n      iszero\n      dup1\n      iszero\n      tag_228\n      jumpi\n      returndatasize\n      0x00\n      dup1\n      returndatacopy\n      revert(0x00, returndatasize)\n    tag_228:\n      pop\n      pop\n      pop\n      pop\n      mload(0x40)\n      returndatasize\n      not(0x1f)\n      0x1f\n      dup3\n      add\n      and\n      dup3\n      add\n      dup1\n      0x40\n      mstore\n      pop\n      dup2\n      add\n      swap1\n      tag_229\n      swap2\n      swap1\n      tag_230\n      jump\t// in\n    tag_229:\n        /* \"p2p/PeerRegistry.sol\":3851:3959  require(... */\n      tag_231\n      jumpi\n      mload(0x40)\n      0x08c379a000000000000000000000000000000000000000000000000000000000\n      dup2\n      mstore\n      0x04\n      add\n      tag_232\n      swap1\n      tag_233\n      jump\t// in\n    tag_232:\n      mload(0x40)\n      dup1\n      swap2\n      sub\n      swap1\n      revert\n    tag_231:\n        /* \"p2p/PeerRegistry.sol\":3966:3983  Peer storage peer */\n      0x00\n        /* \"p2p/PeerRegistry.sol\":3986:3991  peers */\n      0x04\n        /* \"p2p/PeerRegistry.sol\":3986:3999  peers[peerId] */\n      0x00\n        /* \"p2p/PeerRegistry.sol\":3992:3998  peerId */\n      dup4\n        /* \"p2p/PeerRegistry.sol\":3986:3999  peers[peerId] */\n      dup2\n      mstore\n      0x20\n      add\n      swap1\n      dup2\n      mstore\n      0x20\n      add\n      0x00\n      keccak256\n        /* \"p2p/PeerRegistry.sol\":3966:3999  Peer storage peer = peers[peerId] */\n      swap1\n      pop\n        /* \"p2p/PeerRegistry.sol\":4005:4026  uint256 oldReputation */\n      0x00\n        /* \"p2p/PeerRegistry.sol\":4029:4033  peer */\n      dup2\n        /* \"p2p/PeerRegistry.sol\":4029:4044  peer.reputation */\n      0x01\n      add\n      sload\n        /* \"p2p/PeerRegistry.sol\":4005:4044  uint256 oldReputation = peer.reputation */\n      swap1\n      pop\n        /* \"p2p/PeerRegistry.sol\":4050:4071  uint256 newReputation */\n      0x00\n        /* \"p2p/PeerRegistry.sol\":4082:4090  increase */\n      dup6\n        /* \"p2p/PeerRegistry.sol\":4078:4350  if (increase) {... */\n      iszero\n      tag_234\n      jumpi\n        /* \"p2p/PeerRegistry.sol\":4134:4140  change */\n      dup7\n        /* \"p2p/PeerRegistry.sol\":4118:4131  oldReputation */\n      dup3\n        /* \"p2p/PeerRegistry.sol\":4118:4140  oldReputation + change */\n      tag_235\n      swap2\n      swap1\n      tag_236\n      jump\t// in\n    tag_235:\n        /* \"p2p/PeerRegistry.sol\":4102:4140  newReputation = oldReputation + change */\n      swap1\n      pop\n        /* \"p2p/PeerRegistry.sol\":1663:1668  10000 */\n      0x2710\n        /* \"p2p/PeerRegistry.sol\":4154:4167  newReputation */\n      dup2\n        /* \"p2p/PeerRegistry.sol\":4154:4184  newReputation > MAX_REPUTATION */\n      gt\n        /* \"p2p/PeerRegistry.sol\":4150:4241  if (newReputation > MAX_REPUTATION) {... */\n      iszero\n      tag_237\n      jumpi\n        /* \"p2p/PeerRegistry.sol\":1663:1668  10000 */\n      0x2710\n        /* \"p2p/PeerRegistry.sol\":4200:4230  newReputation = MAX_REPUTATION */\n      swap1\n      pop\n        /* \"p2p/PeerRegistry.sol\":4150:4241  if (newReputation > MAX_REPUTATION) {... */\n    tag_237:\n        /* \"p2p/PeerRegistry.sol\":4078:4350  if (increase) {... */\n      jump(tag_238)\n    tag_234:\n        /* \"p2p/PeerRegistry.sol\":4295:4301  change */\n      dup7\n        /* \"p2p/PeerRegistry.sol\":4279:4292  oldReputation */\n      dup3\n        /* \"p2p/PeerRegistry.sol\":4279:4301  oldReputation > change */\n      gt\n        /* \"p2p/PeerRegistry.sol\":4279:4343  oldReputation > change ? ... */\n      tag_239\n      jumpi\n        /* \"p2p/PeerRegistry.sol\":4342:4343  0 */\n      0x00\n        /* \"p2p/PeerRegistry.sol\":4279:4343  oldReputation > change ? ... */\n      jump(tag_240)\n    tag_239:\n        /* \"p2p/PeerRegistry.sol\":4333:4339  change */\n      dup7\n        /* \"p2p/PeerRegistry.sol\":4317:4330  oldReputation */\n      dup3\n        /* \"p2p/PeerRegistry.sol\":4317:4339  oldReputation - change */\n      tag_241\n      swap2\n      swap1\n      tag_242\n      jump\t// in\n    tag_241:\n        /* \"p2p/PeerRegistry.sol\":4279:4343  oldReputation > change ? ... */\n    tag_240:\n        /* \"p2p/PeerRegistry.sol\":4263:4343  newReputation = oldReputation > change ? ... */\n      swap1\n      pop\n        /* \"p2p/PeerRegistry.sol\":4078:4350  if (increase) {... */\n    tag_238:\n        /* \"p2p/PeerRegistry.sol\":4374:4387  newReputation */\n      dup1\n        /* \"p2p/PeerRegistry.sol\":4356:4360  peer */\n      dup4\n        /* \"p2p/PeerRegistry.sol\":4356:4371  peer.reputation */\n      0x01\n      add\n        /* \"p2p/PeerRegistry.sol\":4356:4387  peer.reputation = newReputation */\n      dup2\n      swap1\n      sstore\n      pop\n        /* \"p2p/PeerRegistry.sol\":4413:4428  block.timestamp */\n      timestamp\n        /* \"p2p/PeerRegistry.sol\":4393:4397  peer */\n      dup4\n        /* \"p2p/PeerRegistry.sol\":4393:4410  peer.lastActivity */\n      0x06\n      add\n        /* \"p2p/PeerRegistry.sol\":4393:4428  peer.lastActivity = block.timestamp */\n      dup2\n      swap1\n      sstore\n      pop\n        /* \"p2p/PeerRegistry.sol\":4467:4473  peerId */\n      dup4\n        /* \"p2p/PeerRegistry.sol\":4440:4550  ReputationUpdated(... */\n      0x3e8d5485985d0b5b604b4c06c1794b1fd4e769466efd730318fbb21f1a73fecc\n        /* \"p2p/PeerRegistry.sol\":4483:4496  oldReputation */\n      dup4\n        /* \"p2p/PeerRegistry.sol\":4506:4519  newReputation */\n      dup4\n        /* \"p2p/PeerRegistry.sol\":4529:4544  block.timestamp */\n      timestamp\n        /* \"p2p/PeerRegistry.sol\":4440:4550  ReputationUpdated(... */\n      mload(0x40)\n      tag_243\n      swap4\n      swap3\n      swap2\n      swap1\n      tag_244\n      jump\t// in\n    tag_243:\n      mload(0x40)\n      dup1\n      swap2\n      sub\n      swap1\n      log2\n        /* \"p2p/PeerRegistry.sol\":3684:4553  {... */\n      pop\n      pop\n      pop\n      pop\n        /* \"p2p/PeerRegistry.sol\":3504:4553  function updateReputation(... */\n      pop\n      pop\n      pop\n      pop\n      jump\t// out\n        /* \"p2p/PeerRegistry.sol\":1686:1730  uint256 public constant REPORT_THRESHOLD = 3 */\n    tag_71:\n        /* \"p2p/PeerRegistry.sol\":1729:1730  3 */\n      0x03\n        /* \"p2p/PeerRegistry.sol\":1686:1730  uint256 public constant REPORT_THRESHOLD = 3 */\n      dup2\n      jump\t// out\n        /* \"p2p/PeerRegistry.sol\":4555:5027  function banPeer(... */\n    tag_77:\n        /* \"@openzeppelin/contracts/access/Ownable.sol\":1531:1544  _checkOwner() */\n      tag_246\n        /* \"@openzeppelin/contracts/access/Ownable.sol\":1531:1542  _checkOwner */\n      tag_212\n        /* \"@openzeppelin/contracts/access/Ownable.sol\":1531:1544  _checkOwner() */\n      jump\t// in\n    tag_246:\n        /* \"p2p/PeerRegistry.sol\":4707:4721  bytes32 peerId */\n      0x00\n        /* \"p2p/PeerRegistry.sol\":4724:4739  addressToPeerId */\n      0x05\n        /* \"p2p/PeerRegistry.sol\":4724:4751  addressToPeerId[msg.sender] */\n      0x00\n        /* \"p2p/PeerRegistry.sol\":4740:4750  msg.sender */\n      caller\n        /* \"p2p/PeerRegistry.sol\":4724:4751  addressToPeerId[msg.sender] */\n      0xffffffffffffffffffffffffffffffffffffffff\n      and\n      0xffffffffffffffffffffffffffffffffffffffff\n      and\n      dup2\n      mstore\n      0x20\n      add\n      swap1\n      dup2\n      mstore\n      0x20\n      add\n      0x00\n      keccak256\n      sload\n        /* \"p2p/PeerRegistry.sol\":4707:4751  bytes32 peerId = addressToPeerId[msg.sender] */\n      swap1\n      pop\n        /* \"p2p/PeerRegistry.sol\":4783:4784  0 */\n      0x00\n        /* \"p2p/PeerRegistry.sol\":4775:4785  bytes32(0) */\n      dup1\n      shl\n        /* \"p2p/PeerRegistry.sol\":4765:4771  peerId */\n      dup2\n        /* \"p2p/PeerRegistry.sol\":4765:4785  peerId != bytes32(0) */\n      sub\n        /* \"p2p/PeerRegistry.sol\":4757:4804  require(peerId != bytes32(0), \"Not registered\") */\n      tag_248\n      jumpi\n      mload(0x40)\n      0x08c379a000000000000000000000000000000000000000000000000000000000\n      dup2\n      mstore\n      0x04\n      add\n      tag_249\n      swap1\n      tag_250\n      jump\t// in\n    tag_249:\n      mload(0x40)\n      dup1\n      swap2\n      sub\n      swap1\n      revert\n    tag_248:\n        /* \"p2p/PeerRegistry.sol\":4832:4840  verifier */\n      0x0a\n      0x00\n      swap1\n      sload\n      swap1\n      0x0100\n      exp\n      swap1\n      div\n      0xffffffffffffffffffffffffffffffffffffffff\n      and\n        /* \"p2p/PeerRegistry.sol\":4832:4855  verifier.verifyBanProof */\n      0xffffffffffffffffffffffffffffffffffffffff\n      and\n      0xefb4269b\n        /* \"p2p/PeerRegistry.sol\":4856:4866  commitment */\n      dup7\n        /* \"p2p/PeerRegistry.sol\":4868:4873  proof */\n      dup5\n        /* \"p2p/PeerRegistry.sol\":4832:4874  verifier.verifyBanProof(commitment, proof) */\n      mload(0x40)\n      dup4\n      0xffffffff\n      and\n      0xe0\n      shl\n      dup2\n      mstore\n      0x04\n      add\n      tag_251\n      swap3\n      swap2\n      swap1\n      tag_226\n      jump\t// in\n    tag_251:\n      0x20\n      mload(0x40)\n      dup1\n      dup4\n      sub\n      dup2\n      dup7\n      gas\n      staticcall\n      iszero\n      dup1\n      iszero\n      tag_253\n      jumpi\n      returndatasize\n      0x00\n      dup1\n      returndatacopy\n      revert(0x00, returndatasize)\n    tag_253:\n      pop\n      pop\n      pop\n      pop\n      mload(0x40)\n      returndatasize\n      not(0x1f)\n      0x1f\n      dup3\n      add\n      and\n      dup3\n      add\n      dup1\n      0x40\n      mstore\n      pop\n      dup2\n      add\n      swap1\n      tag_254\n      swap2\n      swap1\n      tag_230\n      jump\t// in\n    tag_254:\n        /* \"p2p/PeerRegistry.sol\":4815:4909  require(... */\n      tag_255\n      jumpi\n      mload(0x40)\n      0x08c379a000000000000000000000000000000000000000000000000000000000\n      dup2\n      mstore\n      0x04\n      add\n      tag_256\n      swap1\n      tag_257\n      jump\t// in\n    tag_256:\n      mload(0x40)\n      dup1\n      swap2\n      sub\n      swap1\n      revert\n    tag_255:\n        /* \"p2p/PeerRegistry.sol\":4941:4946  false */\n      0x00\n        /* \"p2p/PeerRegistry.sol\":4916:4921  peers */\n      0x04\n        /* \"p2p/PeerRegistry.sol\":4916:4929  peers[peerId] */\n      0x00\n        /* \"p2p/PeerRegistry.sol\":4922:4928  peerId */\n      dup4\n        /* \"p2p/PeerRegistry.sol\":4916:4929  peers[peerId] */\n      dup2\n      mstore\n      0x20\n      add\n      swap1\n      dup2\n      mstore\n      0x20\n      add\n      0x00\n      keccak256\n        /* \"p2p/PeerRegistry.sol\":4916:4938  peers[peerId].isActive */\n      0x07\n      add\n      0x00\n        /* \"p2p/PeerRegistry.sol\":4916:4946  peers[peerId].isActive = false */\n      0x0100\n      exp\n      dup2\n      sload\n      dup2\n      0xff\n      mul\n      not\n      and\n      swap1\n      dup4\n      iszero\n      iszero\n      mul\n      or\n      swap1\n      sstore\n      pop\n        /* \"p2p/PeerRegistry.sol\":4952:4963  activePeers */\n      0x09\n      0x00\n        /* \"p2p/PeerRegistry.sol\":4952:4965  activePeers-- */\n      dup2\n      sload\n      dup1\n      swap3\n      swap2\n      swap1\n      tag_258\n      swap1\n      tag_259\n      jump\t// in\n    tag_258:\n      swap2\n      swap1\n      pop\n      sstore\n      pop\n        /* \"p2p/PeerRegistry.sol\":4992:4998  peerId */\n      dup1\n        /* \"p2p/PeerRegistry.sol\":4981:5024  PeerBanned(peerId, reason, block.timestamp) */\n      0xd26f6b25dd880d701fc40a72cd7d2916f01a08ffde8def5fbad62d936a8726f2\n        /* \"p2p/PeerRegistry.sol\":5000:5006  reason */\n      dup6\n      dup6\n        /* \"p2p/PeerRegistry.sol\":5008:5023  block.timestamp */\n      timestamp\n        /* \"p2p/PeerRegistry.sol\":4981:5024  PeerBanned(peerId, reason, block.timestamp) */\n      mload(0x40)\n      tag_260\n      swap4\n      swap3\n      swap2\n      swap1\n      tag_261\n      jump\t// in\n    tag_260:\n      mload(0x40)\n      dup1\n      swap2\n      sub\n      swap1\n      log2\n        /* \"p2p/PeerRegistry.sol\":4701:5027  {... */\n      pop\n        /* \"p2p/PeerRegistry.sol\":4555:5027  function banPeer(... */\n      pop\n      pop\n      pop\n      pop\n      jump\t// out\n        /* \"p2p/PeerRegistry.sol\":7792:7969  function isBanned(bytes32 commitment) external view override returns (bool) {... */\n    tag_81:\n        /* \"p2p/PeerRegistry.sol\":7862:7866  bool */\n      0x00\n        /* \"p2p/PeerRegistry.sol\":7878:7892  bytes32 peerId */\n      dup1\n        /* \"p2p/PeerRegistry.sol\":7895:7910  addressToPeerId */\n      0x05\n        /* \"p2p/PeerRegistry.sol\":7895:7922  addressToPeerId[msg.sender] */\n      0x00\n        /* \"p2p/PeerRegistry.sol\":7911:7921  msg.sender */\n      caller\n        /* \"p2p/PeerRegistry.sol\":7895:7922  addressToPeerId[msg.sender] */\n      0xffffffffffffffffffffffffffffffffffffffff\n      and\n      0xffffffffffffffffffffffffffffffffffffffff\n      and\n      dup2\n      mstore\n      0x20\n      add\n      swap1\n      dup2\n      mstore\n      0x20\n      add\n      0x00\n      keccak256\n      sload\n        /* \"p2p/PeerRegistry.sol\":7878:7922  bytes32 peerId = addressToPeerId[msg.sender] */\n      swap1\n      pop\n        /* \"p2p/PeerRegistry.sol\":7940:7945  peers */\n      0x04\n        /* \"p2p/PeerRegistry.sol\":7940:7953  peers[peerId] */\n      0x00\n        /* \"p2p/PeerRegistry.sol\":7946:7952  peerId */\n      dup3\n        /* \"p2p/PeerRegistry.sol\":7940:7953  peers[peerId] */\n      dup2\n      mstore\n      0x20\n      add\n      swap1\n      dup2\n      mstore\n      0x20\n      add\n      0x00\n      keccak256\n        /* \"p2p/PeerRegistry.sol\":7940:7962  peers[peerId].isActive */\n      0x07\n      add\n      0x00\n      swap1\n      sload\n      swap1\n      0x0100\n      exp\n      swap1\n      div\n      0xff\n      and\n        /* \"p2p/PeerRegistry.sol\":7939:7962  !peers[peerId].isActive */\n      iszero\n        /* \"p2p/PeerRegistry.sol\":7932:7962  return !peers[peerId].isActive */\n      swap2\n      pop\n      pop\n        /* \"p2p/PeerRegistry.sol\":7792:7969  function isBanned(bytes32 commitment) external view override returns (bool) {... */\n      swap2\n      swap1\n      pop\n      jump\t// out\n        /* \"p2p/PeerRegistry.sol\":2399:2948  function registerPeer(... */\n    tag_87:\n        /* \"p2p/PeerRegistry.sol\":2581:2586  stake */\n      dup1\n        /* \"p2p/PeerRegistry.sol\":2568:2577  msg.value */\n      callvalue\n        /* \"p2p/PeerRegistry.sol\":2568:2586  msg.value == stake */\n      eq\n        /* \"p2p/PeerRegistry.sol\":2560:2613  require(msg.value == stake, \"Incorrect stake amount\") */\n      tag_264\n      jumpi\n      mload(0x40)\n      0x08c379a000000000000000000000000000000000000000000000000000000000\n      dup2\n      mstore\n      0x04\n      add\n      tag_265\n      swap1\n      tag_266\n      jump\t// in\n    tag_265:\n      mload(0x40)\n      dup1\n      swap2\n      sub\n      swap1\n      revert\n    tag_264:\n        /* \"p2p/PeerRegistry.sol\":1472:1485  1000 * 10**18 */\n      0x3635c9adc5dea00000\n        /* \"p2p/PeerRegistry.sol\":2627:2636  msg.value */\n      callvalue\n        /* \"p2p/PeerRegistry.sol\":2627:2649  msg.value >= MIN_STAKE */\n      lt\n      iszero\n        /* \"p2p/PeerRegistry.sol\":2619:2672  require(msg.value >= MIN_STAKE, \"Insufficient stake\") */\n      tag_267\n      jumpi\n      mload(0x40)\n      0x08c379a000000000000000000000000000000000000000000000000000000000\n      dup2\n      mstore\n      0x04\n      add\n      tag_268\n      swap1\n      tag_269\n      jump\t// in\n    tag_268:\n      mload(0x40)\n      dup1\n      swap2\n      sub\n      swap1\n      revert\n    tag_267:\n        /* \"p2p/PeerRegistry.sol\":2725:2726  0 */\n      0x00\n        /* \"p2p/PeerRegistry.sol\":2717:2727  bytes32(0) */\n      dup1\n      shl\n        /* \"p2p/PeerRegistry.sol\":2686:2701  addressToPeerId */\n      0x05\n        /* \"p2p/PeerRegistry.sol\":2686:2713  addressToPeerId[msg.sender] */\n      0x00\n        /* \"p2p/PeerRegistry.sol\":2702:2712  msg.sender */\n      caller\n        /* \"p2p/PeerRegistry.sol\":2686:2713  addressToPeerId[msg.sender] */\n      0xffffffffffffffffffffffffffffffffffffffff\n      and\n      0xffffffffffffffffffffffffffffffffffffffff\n      and\n      dup2\n      mstore\n      0x20\n      add\n      swap1\n      dup2\n      mstore\n      0x20\n      add\n      0x00\n      keccak256\n      sload\n        /* \"p2p/PeerRegistry.sol\":2686:2727  addressToPeerId[msg.sender] == bytes32(0) */\n      eq\n        /* \"p2p/PeerRegistry.sol\":2678:2750  require(addressToPeerId[msg.sender] == bytes32(0), \"Already registered\") */\n      tag_270\n      jumpi\n      mload(0x40)\n      0x08c379a000000000000000000000000000000000000000000000000000000000\n      dup2\n      mstore\n      0x04\n      add\n      tag_271\n      swap1\n      tag_272\n      jump\t// in\n    tag_271:\n      mload(0x40)\n      dup1\n      swap2\n      sub\n      swap1\n      revert\n    tag_270:\n        /* \"p2p/PeerRegistry.sol\":2803:2811  verifier */\n      0x0a\n      0x00\n      swap1\n      sload\n      swap1\n      0x0100\n      exp\n      swap1\n      div\n      0xffffffffffffffffffffffffffffffffffffffff\n      and\n        /* \"p2p/PeerRegistry.sol\":2803:2831  verifier.verifyIdentityProof */\n      0xffffffffffffffffffffffffffffffffffffffff\n      and\n      0xd95115bc\n        /* \"p2p/PeerRegistry.sol\":2832:2842  commitment */\n      dup5\n        /* \"p2p/PeerRegistry.sol\":2844:2849  proof */\n      dup5\n        /* \"p2p/PeerRegistry.sol\":2803:2850  verifier.verifyIdentityProof(commitment, proof) */\n      mload(0x40)\n      dup4\n      0xffffffff\n      and\n      0xe0\n      shl\n      dup2\n      mstore\n      0x04\n      add\n      tag_273\n      swap3\n      swap2\n      swap1\n      tag_226\n      jump\t// in\n    tag_273:\n      0x20\n      mload(0x40)\n      dup1\n      dup4\n      sub\n      dup2\n      dup7\n      gas\n      staticcall\n      iszero\n      dup1\n      iszero\n      tag_275\n      jumpi\n      returndatasize\n      0x00\n      dup1\n      returndatacopy\n      revert(0x00, returndatasize)\n    tag_275:\n      pop\n      pop\n      pop\n      pop\n      mload(0x40)\n      returndatasize\n      not(0x1f)\n      0x1f\n      dup3\n      add\n      and\n      dup3\n      add\n      dup1\n      0x40\n      mstore\n      pop\n      dup2\n      add\n      swap1\n      tag_276\n      swap2\n      swap1\n      tag_230\n      jump\t// in\n    tag_276:\n        /* \"p2p/PeerRegistry.sol\":2786:2890  require(... */\n      tag_277\n      jumpi\n      mload(0x40)\n      0x08c379a000000000000000000000000000000000000000000000000000000000\n      dup2\n      mstore\n      0x04\n      add\n      tag_278\n      swap1\n      tag_279\n      jump\t// in\n    tag_278:\n      mload(0x40)\n      dup1\n      swap2\n      sub\n      swap1\n      revert\n    tag_277:\n        /* \"p2p/PeerRegistry.sol\":2399:2948  function registerPeer(... */\n      pop\n      pop\n      pop\n      jump\t// out\n        /* \"@openzeppelin/contracts/utils/Pausable.sol\":1850:1934  function paused() public view virtual returns (bool) {... */\n    tag_90:\n        /* \"@openzeppelin/contracts/utils/Pausable.sol\":1897:1901  bool */\n      0x00\n        /* \"@openzeppelin/contracts/utils/Pausable.sol\":1920:1927  _paused */\n      0x02\n      0x00\n      swap1\n      sload\n      swap1\n      0x0100\n      exp\n      swap1\n      div\n      0xff\n      and\n        /* \"@openzeppelin/contracts/utils/Pausable.sol\":1913:1927  return _paused */\n      swap1\n      pop\n        /* \"@openzeppelin/contracts/utils/Pausable.sol\":1850:1934  function paused() public view virtual returns (bool) {... */\n      swap1\n      jump\t// out\n        /* \"p2p/PeerRegistry.sol\":1890:1940  mapping(address => bytes32) public addressToPeerId */\n    tag_96:\n      mstore(0x20, 0x05)\n      dup1\n      0x00\n      mstore\n      keccak256(0x00, 0x40)\n      0x00\n      swap2\n      pop\n      swap1\n      pop\n      sload\n      dup2\n      jump\t// out\n        /* \"p2p/PeerRegistry.sol\":7684:7786  function getActivePeers() external view override returns (uint256) {... */\n    tag_101:\n        /* \"p2p/PeerRegistry.sol\":7742:7749  uint256 */\n      0x00\n        /* \"p2p/PeerRegistry.sol\":7768:7779  activePeers */\n      sload(0x09)\n        /* \"p2p/PeerRegistry.sol\":7761:7779  return activePeers */\n      swap1\n      pop\n        /* \"p2p/PeerRegistry.sol\":7684:7786  function getActivePeers() external view override returns (uint256) {... */\n      swap1\n      jump\t// out\n        /* \"p2p/PeerRegistry.sol\":9002:9576  function getReport(... */\n    tag_107:\n        /* \"p2p/PeerRegistry.sol\":9112:9130  bytes32 reporterId */\n      0x00\n        /* \"p2p/PeerRegistry.sol\":9140:9158  bytes32 reportedId */\n      dup1\n        /* \"p2p/PeerRegistry.sol\":9168:9188  string memory reason */\n      0x60\n        /* \"p2p/PeerRegistry.sol\":9198:9215  uint256 timestamp */\n      0x00\n        /* \"p2p/PeerRegistry.sol\":9225:9238  bool resolved */\n      dup1\n        /* \"p2p/PeerRegistry.sol\":9277:9288  peerReports */\n      0x03\n        /* \"p2p/PeerRegistry.sol\":9277:9296  peerReports[peerId] */\n      0x00\n        /* \"p2p/PeerRegistry.sol\":9289:9295  peerId */\n      dup9\n        /* \"p2p/PeerRegistry.sol\":9277:9296  peerReports[peerId] */\n      dup2\n      mstore\n      0x20\n      add\n      swap1\n      dup2\n      mstore\n      0x20\n      add\n      0x00\n      keccak256\n        /* \"p2p/PeerRegistry.sol\":9277:9303  peerReports[peerId].length */\n      dup1\n      sload\n      swap1\n      pop\n        /* \"p2p/PeerRegistry.sol\":9263:9274  reportIndex */\n      dup7\n        /* \"p2p/PeerRegistry.sol\":9263:9303  reportIndex < peerReports[peerId].length */\n      lt\n        /* \"p2p/PeerRegistry.sol\":9255:9328  require(reportIndex < peerReports[peerId].length, \"Invalid report index\") */\n      tag_283\n      jumpi\n      mload(0x40)\n      0x08c379a000000000000000000000000000000000000000000000000000000000\n      dup2\n      mstore\n      0x04\n      add\n      tag_284\n      swap1\n      tag_285\n      jump\t// in\n    tag_284:\n      mload(0x40)\n      dup1\n      swap2\n      sub\n      swap1\n      revert\n    tag_283:\n        /* \"p2p/PeerRegistry.sol\":9338:9359  Report storage report */\n      0x00\n        /* \"p2p/PeerRegistry.sol\":9362:9373  peerReports */\n      0x03\n        /* \"p2p/PeerRegistry.sol\":9362:9381  peerReports[peerId] */\n      0x00\n        /* \"p2p/PeerRegistry.sol\":9374:9380  peerId */\n      dup10\n        /* \"p2p/PeerRegistry.sol\":9362:9381  peerReports[peerId] */\n      dup2\n      mstore\n      0x20\n      add\n      swap1\n      dup2\n      mstore\n      0x20\n      add\n      0x00\n      keccak256\n        /* \"p2p/PeerRegistry.sol\":9382:9393  reportIndex */\n      dup8\n        /* \"p2p/PeerRegistry.sol\":9362:9394  peerReports[peerId][reportIndex] */\n      dup2\n      sload\n      dup2\n      lt\n      tag_286\n      jumpi\n      tag_287\n      tag_288\n      jump\t// in\n    tag_287:\n    tag_286:\n      swap1\n      0x00\n      mstore\n      keccak256(0x00, 0x20)\n      swap1\n      0x05\n      mul\n      add\n        /* \"p2p/PeerRegistry.sol\":9338:9394  Report storage report = peerReports[peerId][reportIndex] */\n      swap1\n      pop\n        /* \"p2p/PeerRegistry.sol\":9425:9431  report */\n      dup1\n        /* \"p2p/PeerRegistry.sol\":9425:9442  report.reporterId */\n      0x00\n      add\n      sload\n        /* \"p2p/PeerRegistry.sol\":9456:9462  report */\n      dup2\n        /* \"p2p/PeerRegistry.sol\":9456:9473  report.reportedId */\n      0x01\n      add\n      sload\n        /* \"p2p/PeerRegistry.sol\":9487:9493  report */\n      dup3\n        /* \"p2p/PeerRegistry.sol\":9487:9500  report.reason */\n      0x02\n      add\n        /* \"p2p/PeerRegistry.sol\":9514:9520  report */\n      dup4\n        /* \"p2p/PeerRegistry.sol\":9514:9530  report.timestamp */\n      0x03\n      add\n      sload\n        /* \"p2p/PeerRegistry.sol\":9544:9550  report */\n      dup5\n        /* \"p2p/PeerRegistry.sol\":9544:9559  report.resolved */\n      0x04\n      add\n      0x00\n      swap1\n      sload\n      swap1\n      0x0100\n      exp\n      swap1\n      div\n      0xff\n      and\n        /* \"p2p/PeerRegistry.sol\":9404:9569  return (... */\n      dup3\n      dup1\n      sload\n      tag_290\n      swap1\n      tag_291\n      jump\t// in\n    tag_290:\n      dup1\n      0x1f\n      add\n      0x20\n      dup1\n      swap2\n      div\n      mul\n      0x20\n      add\n      mload(0x40)\n      swap1\n      dup2\n      add\n      0x40\n      mstore\n      dup1\n      swap3\n      swap2\n      swap1\n      dup2\n      dup2\n      mstore\n      0x20\n      add\n      dup3\n      dup1\n      sload\n      tag_292\n      swap1\n      tag_291\n      jump\t// in\n    tag_292:\n      dup1\n      iszero\n      tag_293\n      jumpi\n      dup1\n      0x1f\n      lt\n      tag_294\n      jumpi\n      0x0100\n      dup1\n      dup4\n      sload\n      div\n      mul\n      dup4\n      mstore\n      swap2\n      0x20\n      add\n      swap2\n      jump(tag_293)\n    tag_294:\n      dup3\n      add\n      swap2\n      swap1\n      0x00\n      mstore\n      keccak256(0x00, 0x20)\n      swap1\n    tag_295:\n      dup2\n      sload\n      dup2\n      mstore\n      swap1\n      0x01\n      add\n      swap1\n      0x20\n      add\n      dup1\n      dup4\n      gt\n      tag_295\n      jumpi\n      dup3\n      swap1\n      sub\n      0x1f\n      and\n      dup3\n      add\n      swap2\n    tag_293:\n      pop\n      pop\n      pop\n      pop\n      pop\n      swap3\n      pop\n      swap6\n      pop\n      swap6\n      pop\n      swap6\n      pop\n      swap6\n      pop\n      swap6\n      pop\n      pop\n        /* \"p2p/PeerRegistry.sol\":9002:9576  function getReport(... */\n      swap3\n      swap6\n      pop\n      swap3\n      swap6\n      swap1\n      swap4\n      pop\n      jump\t// out\n        /* \"@openzeppelin/contracts/access/Ownable.sol\":2293:2394  function renounceOwnership() public virtual onlyOwner {... */\n    tag_112:\n        /* \"@openzeppelin/contracts/access/Ownable.sol\":1531:1544  _checkOwner() */\n      tag_297\n        /* \"@openzeppelin/contracts/access/Ownable.sol\":1531:1542  _checkOwner */\n      tag_212\n        /* \"@openzeppelin/contracts/access/Ownable.sol\":1531:1544  _checkOwner() */\n      jump\t// in\n    tag_297:\n        /* \"@openzeppelin/contracts/access/Ownable.sol\":2357:2387  _transferOwnership(address(0)) */\n      tag_299\n        /* \"@openzeppelin/contracts/access/Ownable.sol\":2384:2385  0 */\n      0x00\n        /* \"@openzeppelin/contracts/access/Ownable.sol\":2357:2375  _transferOwnership */\n      tag_300\n        /* \"@openzeppelin/contracts/access/Ownable.sol\":2357:2387  _transferOwnership(address(0)) */\n      jump\t// in\n    tag_299:\n        /* \"@openzeppelin/contracts/access/Ownable.sol\":2293:2394  function renounceOwnership() public virtual onlyOwner {... */\n      jump\t// out\n        /* \"p2p/PeerRegistry.sol\":1559:1608  uint256 public constant INITIAL_REPUTATION = 5000 */\n    tag_115:\n        /* \"p2p/PeerRegistry.sol\":1604:1608  5000 */\n      0x1388\n        /* \"p2p/PeerRegistry.sol\":1559:1608  uint256 public constant INITIAL_REPUTATION = 5000 */\n      dup2\n      jump\t// out\n        /* \"p2p/PeerRegistry.sol\":9746:10050  function updateReputationThreshold(uint8 newThreshold) external override onlyOwner {... */\n    tag_121:\n        /* \"@openzeppelin/contracts/access/Ownable.sol\":1531:1544  _checkOwner() */\n      tag_302\n        /* \"@openzeppelin/contracts/access/Ownable.sol\":1531:1542  _checkOwner */\n      tag_212\n        /* \"@openzeppelin/contracts/access/Ownable.sol\":1531:1544  _checkOwner() */\n      jump\t// in\n    tag_302:\n        /* \"p2p/PeerRegistry.sol\":9903:9904  0 */\n      0x00\n        /* \"p2p/PeerRegistry.sol\":9888:9900  newThreshold */\n      dup2\n        /* \"p2p/PeerRegistry.sol\":9888:9904  newThreshold > 0 */\n      0xff\n      and\n      gt\n        /* \"p2p/PeerRegistry.sol\":9888:9927  newThreshold > 0 && newThreshold <= 100 */\n      dup1\n      iszero\n      tag_304\n      jumpi\n      pop\n        /* \"p2p/PeerRegistry.sol\":9924:9927  100 */\n      0x64\n        /* \"p2p/PeerRegistry.sol\":9908:9920  newThreshold */\n      dup2\n        /* \"p2p/PeerRegistry.sol\":9908:9927  newThreshold <= 100 */\n      0xff\n      and\n      gt\n      iszero\n        /* \"p2p/PeerRegistry.sol\":9888:9927  newThreshold > 0 && newThreshold <= 100 */\n    tag_304:\n        /* \"p2p/PeerRegistry.sol\":9880:9949  require(newThreshold > 0 && newThreshold <= 100, \"Invalid threshold\") */\n      tag_305\n      jumpi\n      mload(0x40)\n      0x08c379a000000000000000000000000000000000000000000000000000000000\n      dup2\n      mstore\n      0x04\n      add\n      tag_306\n      swap1\n      tag_307\n      jump\t// in\n    tag_306:\n      mload(0x40)\n      dup1\n      swap2\n      sub\n      swap1\n      revert\n    tag_305:\n        /* \"p2p/PeerRegistry.sol\":10007:10047  ReputationThresholdUpdated(newThreshold) */\n      0xb0e4dffcc6b4ff3923e304eb9279d517bf22b24e1bf0509d4e58604eab32d292\n        /* \"p2p/PeerRegistry.sol\":10034:10046  newThreshold */\n      dup2\n        /* \"p2p/PeerRegistry.sol\":10007:10047  ReputationThresholdUpdated(newThreshold) */\n      mload(0x40)\n      tag_308\n      swap2\n      swap1\n      tag_309\n      jump\t// in\n    tag_308:\n      mload(0x40)\n      dup1\n      swap2\n      sub\n      swap1\n      log1\n        /* \"p2p/PeerRegistry.sol\":9746:10050  function updateReputationThreshold(uint8 newThreshold) external override onlyOwner {... */\n      pop\n      jump\t// out\n        /* \"p2p/PeerRegistry.sol\":1847:1884  mapping(bytes32 => Peer) public peers */\n    tag_125:\n      mstore(0x20, 0x04)\n      dup1\n      0x00\n      mstore\n      keccak256(0x00, 0x40)\n      0x00\n      swap2\n      pop\n      swap1\n      pop\n      dup1\n      0x00\n      add\n      sload\n      swap1\n      dup1\n      0x01\n      add\n      sload\n      swap1\n      dup1\n      0x02\n      add\n      sload\n      swap1\n      dup1\n      0x03\n      add\n      sload\n      swap1\n      dup1\n      0x04\n      add\n      sload\n      swap1\n      dup1\n      0x05\n      add\n      sload\n      swap1\n      dup1\n      0x06\n      add\n      sload\n      swap1\n      dup1\n      0x07\n      add\n      0x00\n      swap1\n      sload\n      swap1\n      0x0100\n      exp\n      swap1\n      div\n      0xff\n      and\n      swap1\n      dup1\n      0x08\n      add\n      sload\n      swap1\n      pop\n      dup10\n      jump\t// out\n        /* \"p2p/PeerRegistry.sol\":8852:8989  function getPeerReports(... */\n    tag_131:\n        /* \"p2p/PeerRegistry.sol\":8929:8944  Report[] memory */\n      0x60\n        /* \"p2p/PeerRegistry.sol\":8963:8974  peerReports */\n      0x03\n        /* \"p2p/PeerRegistry.sol\":8963:8982  peerReports[peerId] */\n      0x00\n        /* \"p2p/PeerRegistry.sol\":8975:8981  peerId */\n      dup4\n        /* \"p2p/PeerRegistry.sol\":8963:8982  peerReports[peerId] */\n      dup2\n      mstore\n      0x20\n      add\n      swap1\n      dup2\n      mstore\n      0x20\n      add\n      0x00\n      keccak256\n        /* \"p2p/PeerRegistry.sol\":8956:8982  return peerReports[peerId] */\n      dup1\n      sload\n      dup1\n      0x20\n      mul\n      0x20\n      add\n      mload(0x40)\n      swap1\n      dup2\n      add\n      0x40\n      mstore\n      dup1\n      swap3\n      swap2\n      swap1\n      dup2\n      dup2\n      mstore\n      0x20\n      add\n      0x00\n      swap1\n    tag_311:\n      dup3\n      dup3\n      lt\n      iszero\n      tag_312\n      jumpi\n      dup4\n      dup3\n      swap1\n      0x00\n      mstore\n      keccak256(0x00, 0x20)\n      swap1\n      0x05\n      mul\n      add\n      mload(0x40)\n      dup1\n      0xa0\n      add\n      0x40\n      mstore\n      swap1\n      dup2\n      0x00\n      dup3\n      add\n      sload\n      dup2\n      mstore\n      0x20\n      add\n      0x01\n      dup3\n      add\n      sload\n      dup2\n      mstore\n      0x20\n      add\n      0x02\n      dup3\n      add\n      dup1\n      sload\n      tag_314\n      swap1\n      tag_291\n      jump\t// in\n    tag_314:\n      dup1\n      0x1f\n      add\n      0x20\n      dup1\n      swap2\n      div\n      mul\n      0x20\n      add\n      mload(0x40)\n      swap1\n      dup2\n      add\n      0x40\n      mstore\n      dup1\n      swap3\n      swap2\n      swap1\n      dup2\n      dup2\n      mstore\n      0x20\n      add\n      dup3\n      dup1\n      sload\n      tag_315\n      swap1\n      tag_291\n      jump\t// in\n    tag_315:\n      dup1\n      iszero\n      tag_316\n      jumpi\n      dup1\n      0x1f\n      lt\n      tag_317\n      jumpi\n      0x0100\n      dup1\n      dup4\n      sload\n      div\n      mul\n      dup4\n      mstore\n      swap2\n      0x20\n      add\n      swap2\n      jump(tag_316)\n    tag_317:\n      dup3\n      add\n      swap2\n      swap1\n      0x00\n      mstore\n      keccak256(0x00, 0x20)\n      swap1\n    tag_318:\n      dup2\n      sload\n      dup2\n      mstore\n      swap1\n      0x01\n      add\n      swap1\n      0x20\n      add\n      dup1\n      dup4\n      gt\n      tag_318\n      jumpi\n      dup3\n      swap1\n      sub\n      0x1f\n      and\n      dup3\n      add\n      swap2\n    tag_316:\n      pop\n      pop\n      pop\n      pop\n      pop\n      dup2\n      mstore\n      0x20\n      add\n      0x03\n      dup3\n      add\n      sload\n      dup2\n      mstore\n      0x20\n      add\n      0x04\n      dup3\n      add\n      0x00\n      swap1\n      sload\n      swap1\n      0x0100\n      exp\n      swap1\n      div\n      0xff\n      and\n      iszero\n      iszero\n      iszero\n      iszero\n      dup2\n      mstore\n      pop\n      pop\n      dup2\n      mstore\n      0x20\n      add\n      swap1\n      0x01\n      add\n      swap1\n      jump(tag_311)\n    tag_312:\n      pop\n      pop\n      pop\n      pop\n      swap1\n      pop\n        /* \"p2p/PeerRegistry.sol\":8852:8989  function getPeerReports(... */\n      swap2\n      swap1\n      pop\n      jump\t// out\n        /* \"p2p/PeerRegistry.sol\":9609:9670  function pause() external onlyOwner {... */\n    tag_136:\n        /* \"@openzeppelin/contracts/access/Ownable.sol\":1531:1544  _checkOwner() */\n      tag_320\n        /* \"@openzeppelin/contracts/access/Ownable.sol\":1531:1542  _checkOwner */\n      tag_212\n        /* \"@openzeppelin/contracts/access/Ownable.sol\":1531:1544  _checkOwner() */\n      jump\t// in\n    tag_320:\n        /* \"p2p/PeerRegistry.sol\":9655:9663  _pause() */\n      tag_322\n        /* \"p2p/PeerRegistry.sol\":9655:9661  _pause */\n      tag_323\n        /* \"p2p/PeerRegistry.sol\":9655:9663  _pause() */\n      jump\t// in\n    tag_322:\n        /* \"p2p/PeerRegistry.sol\":9609:9670  function pause() external onlyOwner {... */\n      jump\t// out\n        /* \"p2p/PeerRegistry.sol\":6549:7103  function getPeerInfo(bytes32 commitment)... */\n    tag_140:\n        /* \"p2p/PeerRegistry.sol\":6667:6686  address peerAddress */\n      0x00\n        /* \"p2p/PeerRegistry.sol\":6700:6713  bool isActive */\n      dup1\n        /* \"p2p/PeerRegistry.sol\":6727:6748  uint256 stakingAmount */\n      0x00\n        /* \"p2p/PeerRegistry.sol\":6762:6782  uint256 lastActivity */\n      dup1\n        /* \"p2p/PeerRegistry.sol\":6796:6814  uint256 reputation */\n      0x00\n        /* \"p2p/PeerRegistry.sol\":6839:6853  bytes32 peerId */\n      dup1\n        /* \"p2p/PeerRegistry.sol\":6856:6871  addressToPeerId */\n      0x05\n        /* \"p2p/PeerRegistry.sol\":6856:6883  addressToPeerId[msg.sender] */\n      0x00\n        /* \"p2p/PeerRegistry.sol\":6872:6882  msg.sender */\n      caller\n        /* \"p2p/PeerRegistry.sol\":6856:6883  addressToPeerId[msg.sender] */\n      0xffffffffffffffffffffffffffffffffffffffff\n      and\n      0xffffffffffffffffffffffffffffffffffffffff\n      and\n      dup2\n      mstore\n      0x20\n      add\n      swap1\n      dup2\n      mstore\n      0x20\n      add\n      0x00\n      keccak256\n      sload\n        /* \"p2p/PeerRegistry.sol\":6839:6883  bytes32 peerId = addressToPeerId[msg.sender] */\n      swap1\n      pop\n        /* \"p2p/PeerRegistry.sol\":6893:6910  Peer storage peer */\n      0x00\n        /* \"p2p/PeerRegistry.sol\":6913:6918  peers */\n      0x04\n        /* \"p2p/PeerRegistry.sol\":6913:6926  peers[peerId] */\n      0x00\n        /* \"p2p/PeerRegistry.sol\":6919:6925  peerId */\n      dup4\n        /* \"p2p/PeerRegistry.sol\":6913:6926  peers[peerId] */\n      dup2\n      mstore\n      0x20\n      add\n      swap1\n      dup2\n      mstore\n      0x20\n      add\n      0x00\n      keccak256\n        /* \"p2p/PeerRegistry.sol\":6893:6926  Peer storage peer = peers[peerId] */\n      swap1\n      pop\n        /* \"p2p/PeerRegistry.sol\":6957:6967  msg.sender */\n      caller\n        /* \"p2p/PeerRegistry.sol\":6981:6985  peer */\n      dup2\n        /* \"p2p/PeerRegistry.sol\":6981:6994  peer.isActive */\n      0x07\n      add\n      0x00\n      swap1\n      sload\n      swap1\n      0x0100\n      exp\n      swap1\n      div\n      0xff\n      and\n        /* \"p2p/PeerRegistry.sol\":7008:7012  peer */\n      dup3\n        /* \"p2p/PeerRegistry.sol\":7008:7026  peer.stakingAmount */\n      0x02\n      add\n      sload\n        /* \"p2p/PeerRegistry.sol\":7040:7044  peer */\n      dup4\n        /* \"p2p/PeerRegistry.sol\":7040:7057  peer.lastActivity */\n      0x06\n      add\n      sload\n        /* \"p2p/PeerRegistry.sol\":7071:7075  peer */\n      dup5\n        /* \"p2p/PeerRegistry.sol\":7071:7086  peer.reputation */\n      0x01\n      add\n      sload\n        /* \"p2p/PeerRegistry.sol\":6936:7096  return (... */\n      swap7\n      pop\n      swap7\n      pop\n      swap7\n      pop\n      swap7\n      pop\n      swap7\n      pop\n      pop\n      pop\n        /* \"p2p/PeerRegistry.sol\":6549:7103  function getPeerInfo(bytes32 commitment)... */\n      swap2\n      swap4\n      swap6\n      swap1\n      swap3\n      swap5\n      pop\n      jump\t// out\n        /* \"@openzeppelin/contracts/access/Ownable.sol\":1638:1723  function owner() public view virtual returns (address) {... */\n    tag_145:\n        /* \"@openzeppelin/contracts/access/Ownable.sol\":1684:1691  address */\n      0x00\n        /* \"@openzeppelin/contracts/access/Ownable.sol\":1710:1716  _owner */\n      dup1\n      0x00\n      swap1\n      sload\n      swap1\n      0x0100\n      exp\n      swap1\n      div\n      0xffffffffffffffffffffffffffffffffffffffff\n      and\n        /* \"@openzeppelin/contracts/access/Ownable.sol\":1703:1716  return _owner */\n      swap1\n      pop\n        /* \"@openzeppelin/contracts/access/Ownable.sol\":1638:1723  function owner() public view virtual returns (address) {... */\n      swap1\n      jump\t// out\n        /* \"p2p/PeerRegistry.sol\":10052:10274  function updateVerifier(address newVerifier) external override onlyOwner {... */\n    tag_151:\n        /* \"@openzeppelin/contracts/access/Ownable.sol\":1531:1544  _checkOwner() */\n      tag_327\n        /* \"@openzeppelin/contracts/access/Ownable.sol\":1531:1542  _checkOwner */\n      tag_212\n        /* \"@openzeppelin/contracts/access/Ownable.sol\":1531:1544  _checkOwner() */\n      jump\t// in\n    tag_327:\n        /* \"p2p/PeerRegistry.sol\":10162:10163  0 */\n      0x00\n        /* \"p2p/PeerRegistry.sol\":10139:10164  newVerifier != address(0) */\n      0xffffffffffffffffffffffffffffffffffffffff\n      and\n        /* \"p2p/PeerRegistry.sol\":10139:10150  newVerifier */\n      dup2\n        /* \"p2p/PeerRegistry.sol\":10139:10164  newVerifier != address(0) */\n      0xffffffffffffffffffffffffffffffffffffffff\n      and\n      sub\n        /* \"p2p/PeerRegistry.sol\":10131:10193  require(newVerifier != address(0), \"Invalid verifier address\") */\n      tag_329\n      jumpi\n      mload(0x40)\n      0x08c379a000000000000000000000000000000000000000000000000000000000\n      dup2\n      mstore\n      0x04\n      add\n      tag_330\n      swap1\n      tag_331\n      jump\t// in\n    tag_330:\n      mload(0x40)\n      dup1\n      swap2\n      sub\n      swap1\n      revert\n    tag_329:\n        /* \"p2p/PeerRegistry.sol\":10220:10231  newVerifier */\n      dup1\n        /* \"p2p/PeerRegistry.sol\":10199:10207  verifier */\n      0x0a\n      0x00\n        /* \"p2p/PeerRegistry.sol\":10199:10232  verifier = IVerifier(newVerifier) */\n      0x0100\n      exp\n      dup2\n      sload\n      dup2\n      0xffffffffffffffffffffffffffffffffffffffff\n      mul\n      not\n      and\n      swap1\n      dup4\n      0xffffffffffffffffffffffffffffffffffffffff\n      and\n      mul\n      or\n      swap1\n      sstore\n      pop\n        /* \"p2p/PeerRegistry.sol\":10259:10270  newVerifier */\n      dup1\n        /* \"p2p/PeerRegistry.sol\":10243:10271  VerifierUpdated(newVerifier) */\n      0xffffffffffffffffffffffffffffffffffffffff\n      and\n      0xd24015cc99cc1700cafca3042840a1d8ac1e3964fd2e0e37ea29c654056ee327\n      mload(0x40)\n      mload(0x40)\n      dup1\n      swap2\n      sub\n      swap1\n      log2\n        /* \"p2p/PeerRegistry.sol\":10052:10274  function updateVerifier(address newVerifier) external override onlyOwner {... */\n      pop\n      jump\t// out\n        /* \"p2p/PeerRegistry.sol\":1946:2014  mapping(bytes32 => mapping(bytes32 => bool)) public trustedPeerPairs */\n    tag_156:\n      mstore(0x20, 0x06)\n      dup2\n      0x00\n      mstore\n      mstore(0x20, keccak256(0x00, 0x40))\n      dup1\n      0x00\n      mstore\n      keccak256(0x00, 0x40)\n      0x00\n      swap2\n      pop\n      swap2\n      pop\n      swap1\n      sload\n      swap1\n      0x0100\n      exp\n      swap1\n      div\n      0xff\n      and\n      dup2\n      jump\t// out\n        /* \"p2p/PeerRegistry.sol\":6331:6543  function verifyMixingProof(... */\n    tag_161:\n        /* \"p2p/PeerRegistry.sol\":6477:6481  bool */\n      0x00\n        /* \"p2p/PeerRegistry.sol\":6496:6504  verifier */\n      0x0a\n      0x00\n      swap1\n      sload\n      swap1\n      0x0100\n      exp\n      swap1\n      div\n      0xffffffffffffffffffffffffffffffffffffffff\n      and\n        /* \"p2p/PeerRegistry.sol\":6496:6522  verifier.verifyMixingProof */\n      0xffffffffffffffffffffffffffffffffffffffff\n      and\n      0xb2a93e7c\n        /* \"p2p/PeerRegistry.sol\":6523:6532  sessionId */\n      dup5\n        /* \"p2p/PeerRegistry.sol\":6534:6539  proof */\n      dup5\n        /* \"p2p/PeerRegistry.sol\":6496:6540  verifier.verifyMixingProof(sessionId, proof) */\n      mload(0x40)\n      dup4\n      0xffffffff\n      and\n      0xe0\n      shl\n      dup2\n      mstore\n      0x04\n      add\n      tag_333\n      swap3\n      swap2\n      swap1\n      tag_226\n      jump\t// in\n    tag_333:\n      0x20\n      mload(0x40)\n      dup1\n      dup4\n      sub\n      dup2\n      dup7\n      gas\n      staticcall\n      iszero\n      dup1\n      iszero\n      tag_335\n      jumpi\n      returndatasize\n      0x00\n      dup1\n      returndatacopy\n      revert(0x00, returndatasize)\n    tag_335:\n      pop\n      pop\n      pop\n      pop\n      mload(0x40)\n      returndatasize\n      not(0x1f)\n      0x1f\n      dup3\n      add\n      and\n      dup3\n      add\n      dup1\n      0x40\n      mstore\n      pop\n      dup2\n      add\n      swap1\n      tag_336\n      swap2\n      swap1\n      tag_230\n      jump\t// in\n    tag_336:\n        /* \"p2p/PeerRegistry.sol\":6489:6540  return verifier.verifyMixingProof(sessionId, proof) */\n      swap1\n      pop\n        /* \"p2p/PeerRegistry.sol\":6331:6543  function verifyMixingProof(... */\n      swap3\n      swap2\n      pop\n      pop\n      jump\t// out\n        /* \"p2p/PeerRegistry.sol\":5862:6329  function joinMixingSession(... */\n    tag_166:\n        /* \"p2p/PeerRegistry.sol\":6000:6014  bytes32 peerId */\n      0x00\n        /* \"p2p/PeerRegistry.sol\":6017:6032  addressToPeerId */\n      0x05\n        /* \"p2p/PeerRegistry.sol\":6017:6044  addressToPeerId[msg.sender] */\n      0x00\n        /* \"p2p/PeerRegistry.sol\":6033:6043  msg.sender */\n      caller\n        /* \"p2p/PeerRegistry.sol\":6017:6044  addressToPeerId[msg.sender] */\n      0xffffffffffffffffffffffffffffffffffffffff\n      and\n      0xffffffffffffffffffffffffffffffffffffffff\n      and\n      dup2\n      mstore\n      0x20\n      add\n      swap1\n      dup2\n      mstore\n      0x20\n      add\n      0x00\n      keccak256\n      sload\n        /* \"p2p/PeerRegistry.sol\":6000:6044  bytes32 peerId = addressToPeerId[msg.sender] */\n      swap1\n      pop\n        /* \"p2p/PeerRegistry.sol\":6076:6077  0 */\n      0x00\n        /* \"p2p/PeerRegistry.sol\":6068:6078  bytes32(0) */\n      dup1\n      shl\n        /* \"p2p/PeerRegistry.sol\":6058:6064  peerId */\n      dup2\n        /* \"p2p/PeerRegistry.sol\":6058:6078  peerId != bytes32(0) */\n      sub\n        /* \"p2p/PeerRegistry.sol\":6050:6097  require(peerId != bytes32(0), \"Not registered\") */\n      tag_338\n      jumpi\n      mload(0x40)\n      0x08c379a000000000000000000000000000000000000000000000000000000000\n      dup2\n      mstore\n      0x04\n      add\n      tag_339\n      swap1\n      tag_250\n      jump\t// in\n    tag_339:\n      mload(0x40)\n      dup1\n      swap2\n      sub\n      swap1\n      revert\n    tag_338:\n        /* \"p2p/PeerRegistry.sol\":6111:6116  peers */\n      0x04\n        /* \"p2p/PeerRegistry.sol\":6111:6124  peers[peerId] */\n      0x00\n        /* \"p2p/PeerRegistry.sol\":6117:6123  peerId */\n      dup3\n        /* \"p2p/PeerRegistry.sol\":6111:6124  peers[peerId] */\n      dup2\n      mstore\n      0x20\n      add\n      swap1\n      dup2\n      mstore\n      0x20\n      add\n      0x00\n      keccak256\n        /* \"p2p/PeerRegistry.sol\":6111:6133  peers[peerId].isActive */\n      0x07\n      add\n      0x00\n      swap1\n      sload\n      swap1\n      0x0100\n      exp\n      swap1\n      div\n      0xff\n      and\n        /* \"p2p/PeerRegistry.sol\":6103:6153  require(peers[peerId].isActive, \"Peer not active\") */\n      tag_340\n      jumpi\n      mload(0x40)\n      0x08c379a000000000000000000000000000000000000000000000000000000000\n      dup2\n      mstore\n      0x04\n      add\n      tag_341\n      swap1\n      tag_221\n      jump\t// in\n    tag_341:\n      mload(0x40)\n      dup1\n      swap2\n      sub\n      swap1\n      revert\n    tag_340:\n        /* \"p2p/PeerRegistry.sol\":6177:6185  verifier */\n      0x0a\n      0x00\n      swap1\n      sload\n      swap1\n      0x0100\n      exp\n      swap1\n      div\n      0xffffffffffffffffffffffffffffffffffffffff\n      and\n        /* \"p2p/PeerRegistry.sol\":6177:6203  verifier.verifyMixingProof */\n      0xffffffffffffffffffffffffffffffffffffffff\n      and\n      0xb2a93e7c\n        /* \"p2p/PeerRegistry.sol\":6204:6213  sessionId */\n      dup5\n        /* \"p2p/PeerRegistry.sol\":6215:6220  proof */\n      dup5\n        /* \"p2p/PeerRegistry.sol\":6177:6221  verifier.verifyMixingProof(sessionId, proof) */\n      mload(0x40)\n      dup4\n      0xffffffff\n      and\n      0xe0\n      shl\n      dup2\n      mstore\n      0x04\n      add\n      tag_342\n      swap3\n      swap2\n      swap1\n      tag_226\n      jump\t// in\n    tag_342:\n      0x20\n      mload(0x40)\n      dup1\n      dup4\n      sub\n      dup2\n      dup7\n      gas\n      staticcall\n      iszero\n      dup1\n      iszero\n      tag_344\n      jumpi\n      returndatasize\n      0x00\n      dup1\n      returndatacopy\n      revert(0x00, returndatasize)\n    tag_344:\n      pop\n      pop\n      pop\n      pop\n      mload(0x40)\n      returndatasize\n      not(0x1f)\n      0x1f\n      dup3\n      add\n      and\n      dup3\n      add\n      dup1\n      0x40\n      mstore\n      pop\n      dup2\n      add\n      swap1\n      tag_345\n      swap2\n      swap1\n      tag_230\n      jump\t// in\n    tag_345:\n        /* \"p2p/PeerRegistry.sol\":6160:6259  require(... */\n      tag_346\n      jumpi\n      mload(0x40)\n      0x08c379a000000000000000000000000000000000000000000000000000000000\n      dup2\n      mstore\n      0x04\n      add\n      tag_347\n      swap1\n      tag_348\n      jump\t// in\n    tag_347:\n      mload(0x40)\n      dup1\n      swap2\n      sub\n      swap1\n      revert\n    tag_346:\n        /* \"p2p/PeerRegistry.sol\":6299:6308  sessionId */\n      dup3\n        /* \"p2p/PeerRegistry.sol\":6291:6297  peerId */\n      dup2\n        /* \"p2p/PeerRegistry.sol\":6271:6326  MixingSessionJoined(peerId, sessionId, block.timestamp) */\n      0x516e577143c56da8a9a22a288231bdfc3a2528c47888ec00e2936e9aec240231\n        /* \"p2p/PeerRegistry.sol\":6310:6325  block.timestamp */\n      timestamp\n        /* \"p2p/PeerRegistry.sol\":6271:6326  MixingSessionJoined(peerId, sessionId, block.timestamp) */\n      mload(0x40)\n      tag_349\n      swap2\n      swap1\n      tag_63\n      jump\t// in\n    tag_349:\n      mload(0x40)\n      dup1\n      swap2\n      sub\n      swap1\n      log3\n        /* \"p2p/PeerRegistry.sol\":5994:6329  {... */\n      pop\n        /* \"p2p/PeerRegistry.sol\":5862:6329  function joinMixingSession(... */\n      pop\n      pop\n      jump\t// out\n        /* \"p2p/PeerRegistry.sol\":7578:7678  function getTotalPeers() external view override returns (uint256) {... */\n    tag_169:\n        /* \"p2p/PeerRegistry.sol\":7635:7642  uint256 */\n      0x00\n        /* \"p2p/PeerRegistry.sol\":7661:7671  totalPeers */\n      sload(0x08)\n        /* \"p2p/PeerRegistry.sol\":7654:7671  return totalPeers */\n      swap1\n      pop\n        /* \"p2p/PeerRegistry.sol\":7578:7678  function getTotalPeers() external view override returns (uint256) {... */\n      swap1\n      jump\t// out\n        /* \"p2p/PeerRegistry.sol\":1436:1485  uint256 public constant MIN_STAKE = 1000 * 10**18 */\n    tag_173:\n        /* \"p2p/PeerRegistry.sol\":1472:1485  1000 * 10**18 */\n      0x3635c9adc5dea00000\n        /* \"p2p/PeerRegistry.sol\":1436:1485  uint256 public constant MIN_STAKE = 1000 * 10**18 */\n      dup2\n      jump\t// out\n        /* \"p2p/PeerRegistry.sol\":1622:1668  uint256 public constant MAX_REPUTATION = 10000 */\n    tag_177:\n        /* \"p2p/PeerRegistry.sol\":1663:1668  10000 */\n      0x2710\n        /* \"p2p/PeerRegistry.sol\":1622:1668  uint256 public constant MAX_REPUTATION = 10000 */\n      dup2\n      jump\t// out\n        /* \"p2p/PeerRegistry.sol\":5154:5860  function appealBan(... */\n    tag_182:\n        /* \"p2p/PeerRegistry.sol\":5248:5262  bytes32 peerId */\n      0x00\n        /* \"p2p/PeerRegistry.sol\":5265:5280  addressToPeerId */\n      0x05\n        /* \"p2p/PeerRegistry.sol\":5265:5292  addressToPeerId[msg.sender] */\n      0x00\n        /* \"p2p/PeerRegistry.sol\":5281:5291  msg.sender */\n      caller\n        /* \"p2p/PeerRegistry.sol\":5265:5292  addressToPeerId[msg.sender] */\n      0xffffffffffffffffffffffffffffffffffffffff\n      and\n      0xffffffffffffffffffffffffffffffffffffffff\n      and\n      dup2\n      mstore\n      0x20\n      add\n      swap1\n      dup2\n      mstore\n      0x20\n      add\n      0x00\n      keccak256\n      sload\n        /* \"p2p/PeerRegistry.sol\":5248:5292  bytes32 peerId = addressToPeerId[msg.sender] */\n      swap1\n      pop\n        /* \"p2p/PeerRegistry.sol\":5324:5325  0 */\n      0x00\n        /* \"p2p/PeerRegistry.sol\":5316:5326  bytes32(0) */\n      dup1\n      shl\n        /* \"p2p/PeerRegistry.sol\":5306:5312  peerId */\n      dup2\n        /* \"p2p/PeerRegistry.sol\":5306:5326  peerId != bytes32(0) */\n      sub\n        /* \"p2p/PeerRegistry.sol\":5298:5345  require(peerId != bytes32(0), \"Not registered\") */\n      tag_352\n      jumpi\n      mload(0x40)\n      0x08c379a000000000000000000000000000000000000000000000000000000000\n      dup2\n      mstore\n      0x04\n      add\n      tag_353\n      swap1\n      tag_250\n      jump\t// in\n    tag_353:\n      mload(0x40)\n      dup1\n      swap2\n      sub\n      swap1\n      revert\n    tag_352:\n        /* \"p2p/PeerRegistry.sol\":5360:5365  peers */\n      0x04\n        /* \"p2p/PeerRegistry.sol\":5360:5373  peers[peerId] */\n      0x00\n        /* \"p2p/PeerRegistry.sol\":5366:5372  peerId */\n      dup3\n        /* \"p2p/PeerRegistry.sol\":5360:5373  peers[peerId] */\n      dup2\n      mstore\n      0x20\n      add\n      swap1\n      dup2\n      mstore\n      0x20\n      add\n      0x00\n      keccak256\n        /* \"p2p/PeerRegistry.sol\":5360:5382  peers[peerId].isActive */\n      0x07\n      add\n      0x00\n      swap1\n      sload\n      swap1\n      0x0100\n      exp\n      swap1\n      div\n      0xff\n      and\n        /* \"p2p/PeerRegistry.sol\":5359:5382  !peers[peerId].isActive */\n      iszero\n        /* \"p2p/PeerRegistry.sol\":5351:5402  require(!peers[peerId].isActive, \"Peer not banned\") */\n      tag_354\n      jumpi\n      mload(0x40)\n      0x08c379a000000000000000000000000000000000000000000000000000000000\n      dup2\n      mstore\n      0x04\n      add\n      tag_355\n      swap1\n      tag_356\n      jump\t// in\n    tag_355:\n      mload(0x40)\n      dup1\n      swap2\n      sub\n      swap1\n      revert\n    tag_354:\n        /* \"p2p/PeerRegistry.sol\":5444:5454  commitment */\n      dup3\n        /* \"p2p/PeerRegistry.sol\":5416:5421  peers */\n      0x04\n        /* \"p2p/PeerRegistry.sol\":5416:5429  peers[peerId] */\n      0x00\n        /* \"p2p/PeerRegistry.sol\":5422:5428  peerId */\n      dup4\n        /* \"p2p/PeerRegistry.sol\":5416:5429  peers[peerId] */\n      dup2\n      mstore\n      0x20\n      add\n      swap1\n      dup2\n      mstore\n      0x20\n      add\n      0x00\n      keccak256\n        /* \"p2p/PeerRegistry.sol\":5416:5440  peers[peerId].commitment */\n      0x08\n      add\n      sload\n        /* \"p2p/PeerRegistry.sol\":5416:5454  peers[peerId].commitment == commitment */\n      eq\n        /* \"p2p/PeerRegistry.sol\":5408:5477  require(peers[peerId].commitment == commitment, \"Invalid commitment\") */\n      tag_357\n      jumpi\n      mload(0x40)\n      0x08c379a000000000000000000000000000000000000000000000000000000000\n      dup2\n      mstore\n      0x04\n      add\n      tag_358\n      swap1\n      tag_359\n      jump\t// in\n    tag_358:\n      mload(0x40)\n      dup1\n      swap2\n      sub\n      swap1\n      revert\n    tag_357:\n        /* \"p2p/PeerRegistry.sol\":5533:5556  bytes memory proofBytes */\n      0x00\n        /* \"p2p/PeerRegistry.sol\":5576:5587  appealProof */\n      dup3\n        /* \"p2p/PeerRegistry.sol\":5559:5588  abi.encodePacked(appealProof) */\n      add(0x20, mload(0x40))\n      tag_360\n      swap2\n      swap1\n      tag_361\n      jump\t// in\n    tag_360:\n      mload(0x40)\n      0x20\n      dup2\n      dup4\n      sub\n      sub\n      dup2\n      mstore\n      swap1\n      0x40\n      mstore\n        /* \"p2p/PeerRegistry.sol\":5533:5588  bytes memory proofBytes = abi.encodePacked(appealProof) */\n      swap1\n      pop\n        /* \"p2p/PeerRegistry.sol\":5639:5647  verifier */\n      0x0a\n      0x00\n      swap1\n      sload\n      swap1\n      0x0100\n      exp\n      swap1\n      div\n      0xffffffffffffffffffffffffffffffffffffffff\n      and\n        /* \"p2p/PeerRegistry.sol\":5639:5665  verifier.verifyAppealProof */\n      0xffffffffffffffffffffffffffffffffffffffff\n      and\n      0x4e6c6feb\n        /* \"p2p/PeerRegistry.sol\":5666:5676  commitment */\n      dup6\n        /* \"p2p/PeerRegistry.sol\":5678:5688  proofBytes */\n      dup4\n        /* \"p2p/PeerRegistry.sol\":5639:5689  verifier.verifyAppealProof(commitment, proofBytes) */\n      mload(0x40)\n      dup4\n      0xffffffff\n      and\n      0xe0\n      shl\n      dup2\n      mstore\n      0x04\n      add\n      tag_362\n      swap3\n      swap2\n      swap1\n      tag_363\n      jump\t// in\n    tag_362:\n      0x20\n      mload(0x40)\n      dup1\n      dup4\n      sub\n      dup2\n      dup7\n      gas\n      staticcall\n      iszero\n      dup1\n      iszero\n      tag_365\n      jumpi\n      returndatasize\n      0x00\n      dup1\n      returndatacopy\n      revert(0x00, returndatasize)\n    tag_365:\n      pop\n      pop\n      pop\n      pop\n      mload(0x40)\n      returndatasize\n      not(0x1f)\n      0x1f\n      dup3\n      add\n      and\n      dup3\n      add\n      dup1\n      0x40\n      mstore\n      pop\n      dup2\n      add\n      swap1\n      tag_366\n      swap2\n      swap1\n      tag_230\n      jump\t// in\n    tag_366:\n        /* \"p2p/PeerRegistry.sol\":5622:5727  require(... */\n      tag_367\n      jumpi\n      mload(0x40)\n      0x08c379a000000000000000000000000000000000000000000000000000000000\n      dup2\n      mstore\n      0x04\n      add\n      tag_368\n      swap1\n      tag_369\n      jump\t// in\n    tag_368:\n      mload(0x40)\n      dup1\n      swap2\n      sub\n      swap1\n      revert\n    tag_367:\n        /* \"p2p/PeerRegistry.sol\":5786:5790  true */\n      0x01\n        /* \"p2p/PeerRegistry.sol\":5761:5766  peers */\n      0x04\n        /* \"p2p/PeerRegistry.sol\":5761:5774  peers[peerId] */\n      0x00\n        /* \"p2p/PeerRegistry.sol\":5767:5773  peerId */\n      dup5\n        /* \"p2p/PeerRegistry.sol\":5761:5774  peers[peerId] */\n      dup2\n      mstore\n      0x20\n      add\n      swap1\n      dup2\n      mstore\n      0x20\n      add\n      0x00\n      keccak256\n        /* \"p2p/PeerRegistry.sol\":5761:5783  peers[peerId].isActive */\n      0x07\n      add\n      0x00\n        /* \"p2p/PeerRegistry.sol\":5761:5790  peers[peerId].isActive = true */\n      0x0100\n      exp\n      dup2\n      sload\n      dup2\n      0xff\n      mul\n      not\n      and\n      swap1\n      dup4\n      iszero\n      iszero\n      mul\n      or\n      swap1\n      sstore\n      pop\n        /* \"p2p/PeerRegistry.sol\":5796:5807  activePeers */\n      0x09\n      0x00\n        /* \"p2p/PeerRegistry.sol\":5796:5809  activePeers++ */\n      dup2\n      sload\n      dup1\n      swap3\n      swap2\n      swap1\n      tag_370\n      swap1\n      tag_371\n      jump\t// in\n    tag_370:\n      swap2\n      swap1\n      pop\n      sstore\n      pop\n        /* \"p2p/PeerRegistry.sol\":5833:5839  peerId */\n      dup2\n        /* \"p2p/PeerRegistry.sol\":5821:5857  BanAppealed(peerId, block.timestamp) */\n      0x941ee4b40b62fac42025f4a918ffb407f9a0a435bfacddfef438d146f4a06f5c\n        /* \"p2p/PeerRegistry.sol\":5841:5856  block.timestamp */\n      timestamp\n        /* \"p2p/PeerRegistry.sol\":5821:5857  BanAppealed(peerId, block.timestamp) */\n      mload(0x40)\n      tag_372\n      swap2\n      swap1\n      tag_63\n      jump\t// in\n    tag_372:\n      mload(0x40)\n      dup1\n      swap2\n      sub\n      swap1\n      log2\n        /* \"p2p/PeerRegistry.sol\":5242:5860  {... */\n      pop\n      pop\n        /* \"p2p/PeerRegistry.sol\":5154:5860  function appealBan(... */\n      pop\n      pop\n      jump\t// out\n        /* \"p2p/PeerRegistry.sol\":2075:2142  mapping(bytes32 => mapping(uint256 => bytes32)) public proofHistory */\n    tag_186:\n      mstore(0x20, 0x07)\n      dup2\n      0x00\n      mstore\n      mstore(0x20, keccak256(0x00, 0x40))\n      dup1\n      0x00\n      mstore\n      keccak256(0x00, 0x40)\n      0x00\n      swap2\n      pop\n      swap2\n      pop\n      pop\n      sload\n      dup2\n      jump\t// out\n        /* \"p2p/PeerRegistry.sol\":2950:3502  function updatePeerStatus(... */\n    tag_192:\n        /* \"@openzeppelin/contracts/access/Ownable.sol\":1531:1544  _checkOwner() */\n      tag_374\n        /* \"@openzeppelin/contracts/access/Ownable.sol\":1531:1542  _checkOwner */\n      tag_212\n        /* \"@openzeppelin/contracts/access/Ownable.sol\":1531:1544  _checkOwner() */\n      jump\t// in\n    tag_374:\n        /* \"p2p/PeerRegistry.sol\":3102:3116  bytes32 peerId */\n      0x00\n        /* \"p2p/PeerRegistry.sol\":3119:3134  addressToPeerId */\n      0x05\n        /* \"p2p/PeerRegistry.sol\":3119:3146  addressToPeerId[msg.sender] */\n      0x00\n        /* \"p2p/PeerRegistry.sol\":3135:3145  msg.sender */\n      caller\n        /* \"p2p/PeerRegistry.sol\":3119:3146  addressToPeerId[msg.sender] */\n      0xffffffffffffffffffffffffffffffffffffffff\n      and\n      0xffffffffffffffffffffffffffffffffffffffff\n      and\n      dup2\n      mstore\n      0x20\n      add\n      swap1\n      dup2\n      mstore\n      0x20\n      add\n      0x00\n      keccak256\n      sload\n        /* \"p2p/PeerRegistry.sol\":3102:3146  bytes32 peerId = addressToPeerId[msg.sender] */\n      swap1\n      pop\n        /* \"p2p/PeerRegistry.sol\":3178:3179  0 */\n      0x00\n        /* \"p2p/PeerRegistry.sol\":3170:3180  bytes32(0) */\n      dup1\n      shl\n        /* \"p2p/PeerRegistry.sol\":3160:3166  peerId */\n      dup2\n        /* \"p2p/PeerRegistry.sol\":3160:3180  peerId != bytes32(0) */\n      sub\n        /* \"p2p/PeerRegistry.sol\":3152:3199  require(peerId != bytes32(0), \"Not registered\") */\n      tag_376\n      jumpi\n      mload(0x40)\n      0x08c379a000000000000000000000000000000000000000000000000000000000\n      dup2\n      mstore\n      0x04\n      add\n      tag_377\n      swap1\n      tag_250\n      jump\t// in\n    tag_377:\n      mload(0x40)\n      dup1\n      swap2\n      sub\n      swap1\n      revert\n    tag_376:\n        /* \"p2p/PeerRegistry.sol\":3227:3235  verifier */\n      0x0a\n      0x00\n      swap1\n      sload\n      swap1\n      0x0100\n      exp\n      swap1\n      div\n      0xffffffffffffffffffffffffffffffffffffffff\n      and\n        /* \"p2p/PeerRegistry.sol\":3227:3253  verifier.verifyStatusProof */\n      0xffffffffffffffffffffffffffffffffffffffff\n      and\n      0x1e083247\n        /* \"p2p/PeerRegistry.sol\":3254:3264  commitment */\n      dup6\n        /* \"p2p/PeerRegistry.sol\":3266:3271  proof */\n      dup5\n        /* \"p2p/PeerRegistry.sol\":3227:3272  verifier.verifyStatusProof(commitment, proof) */\n      mload(0x40)\n      dup4\n      0xffffffff\n      and\n      0xe0\n      shl\n      dup2\n      mstore\n      0x04\n      add\n      tag_378\n      swap3\n      swap2\n      swap1\n      tag_226\n      jump\t// in\n    tag_378:\n      0x20\n      mload(0x40)\n      dup1\n      dup4\n      sub\n      dup2\n      dup7\n      gas\n      staticcall\n      iszero\n      dup1\n      iszero\n      tag_380\n      jumpi\n      returndatasize\n      0x00\n      dup1\n      returndatacopy\n      revert(0x00, returndatasize)\n    tag_380:\n      pop\n      pop\n      pop\n      pop\n      mload(0x40)\n      returndatasize\n      not(0x1f)\n      0x1f\n      dup3\n      add\n      and\n      dup3\n      add\n      dup1\n      0x40\n      mstore\n      pop\n      dup2\n      add\n      swap1\n      tag_381\n      swap2\n      swap1\n      tag_230\n      jump\t// in\n    tag_381:\n        /* \"p2p/PeerRegistry.sol\":3210:3310  require(... */\n      tag_382\n      jumpi\n      mload(0x40)\n      0x08c379a000000000000000000000000000000000000000000000000000000000\n      dup2\n      mstore\n      0x04\n      add\n      tag_383\n      swap1\n      tag_384\n      jump\t// in\n    tag_383:\n      mload(0x40)\n      dup1\n      swap2\n      sub\n      swap1\n      revert\n    tag_382:\n        /* \"p2p/PeerRegistry.sol\":3342:3350  isActive */\n      dup3\n        /* \"p2p/PeerRegistry.sol\":3317:3322  peers */\n      0x04\n        /* \"p2p/PeerRegistry.sol\":3317:3330  peers[peerId] */\n      0x00\n        /* \"p2p/PeerRegistry.sol\":3323:3329  peerId */\n      dup4\n        /* \"p2p/PeerRegistry.sol\":3317:3330  peers[peerId] */\n      dup2\n      mstore\n      0x20\n      add\n      swap1\n      dup2\n      mstore\n      0x20\n      add\n      0x00\n      keccak256\n        /* \"p2p/PeerRegistry.sol\":3317:3339  peers[peerId].isActive */\n      0x07\n      add\n      0x00\n        /* \"p2p/PeerRegistry.sol\":3317:3350  peers[peerId].isActive = isActive */\n      0x0100\n      exp\n      dup2\n      sload\n      dup2\n      0xff\n      mul\n      not\n      and\n      swap1\n      dup4\n      iszero\n      iszero\n      mul\n      or\n      swap1\n      sstore\n      pop\n        /* \"p2p/PeerRegistry.sol\":3360:3368  isActive */\n      dup3\n        /* \"p2p/PeerRegistry.sol\":3356:3436  if (isActive) {... */\n      iszero\n      tag_385\n      jumpi\n        /* \"p2p/PeerRegistry.sol\":3380:3391  activePeers */\n      0x09\n      0x00\n        /* \"p2p/PeerRegistry.sol\":3380:3393  activePeers++ */\n      dup2\n      sload\n      dup1\n      swap3\n      swap2\n      swap1\n      tag_386\n      swap1\n      tag_371\n      jump\t// in\n    tag_386:\n      swap2\n      swap1\n      pop\n      sstore\n      pop\n        /* \"p2p/PeerRegistry.sol\":3356:3436  if (isActive) {... */\n      jump(tag_387)\n    tag_385:\n        /* \"p2p/PeerRegistry.sol\":3416:3427  activePeers */\n      0x09\n      0x00\n        /* \"p2p/PeerRegistry.sol\":3416:3429  activePeers-- */\n      dup2\n      sload\n      dup1\n      swap3\n      swap2\n      swap1\n      tag_388\n      swap1\n      tag_259\n      jump\t// in\n    tag_388:\n      swap2\n      swap1\n      pop\n      sstore\n      pop\n        /* \"p2p/PeerRegistry.sol\":3356:3436  if (isActive) {... */\n    tag_387:\n        /* \"p2p/PeerRegistry.sol\":3465:3471  peerId */\n      dup1\n        /* \"p2p/PeerRegistry.sol\":3447:3499  PeerStatusUpdated(peerId, isActive, block.timestamp) */\n      0x80df6f94561e528575515c9d1ffb2120a96e261d93dc24dcea7cfc7496471243\n        /* \"p2p/PeerRegistry.sol\":3473:3481  isActive */\n      dup5\n        /* \"p2p/PeerRegistry.sol\":3483:3498  block.timestamp */\n      timestamp\n        /* \"p2p/PeerRegistry.sol\":3447:3499  PeerStatusUpdated(peerId, isActive, block.timestamp) */\n      mload(0x40)\n      tag_389\n      swap3\n      swap2\n      swap1\n      tag_390\n      jump\t// in\n    tag_389:\n      mload(0x40)\n      dup1\n      swap2\n      sub\n      swap1\n      log2\n        /* \"p2p/PeerRegistry.sol\":3096:3502  {... */\n      pop\n        /* \"p2p/PeerRegistry.sol\":2950:3502  function updatePeerStatus(... */\n      pop\n      pop\n      pop\n      jump\t// out\n        /* \"p2p/PeerRegistry.sol\":2153:2178  uint256 public totalPeers */\n    tag_195:\n      sload(0x08)\n      dup2\n      jump\t// out\n        /* \"p2p/PeerRegistry.sol\":1507:1553  uint256 public constant MAX_TRUSTED_PEERS = 10 */\n    tag_199:\n        /* \"p2p/PeerRegistry.sol\":1551:1553  10 */\n      0x0a\n        /* \"p2p/PeerRegistry.sol\":1507:1553  uint256 public constant MAX_TRUSTED_PEERS = 10 */\n      dup2\n      jump\t// out\n        /* \"p2p/PeerRegistry.sol\":1768:1817  uint256 public constant ACTIVITY_TIMEOUT = 7 days */\n    tag_203:\n        /* \"p2p/PeerRegistry.sol\":1811:1817  7 days */\n      0x093a80\n        /* \"p2p/PeerRegistry.sol\":1768:1817  uint256 public constant ACTIVITY_TIMEOUT = 7 days */\n      dup2\n      jump\t// out\n        /* \"@openzeppelin/contracts/access/Ownable.sol\":2543:2758  function transferOwnership(address newOwner) public virtual onlyOwner {... */\n    tag_208:\n        /* \"@openzeppelin/contracts/access/Ownable.sol\":1531:1544  _checkOwner() */\n      tag_392\n        /* \"@openzeppelin/contracts/access/Ownable.sol\":1531:1542  _checkOwner */\n      tag_212\n        /* \"@openzeppelin/contracts/access/Ownable.sol\":1531:1544  _checkOwner() */\n      jump\t// in\n    tag_392:\n        /* \"@openzeppelin/contracts/access/Ownable.sol\":2647:2648  0 */\n      0x00\n        /* \"@openzeppelin/contracts/access/Ownable.sol\":2627:2649  newOwner == address(0) */\n      0xffffffffffffffffffffffffffffffffffffffff\n      and\n        /* \"@openzeppelin/contracts/access/Ownable.sol\":2627:2635  newOwner */\n      dup2\n        /* \"@openzeppelin/contracts/access/Ownable.sol\":2627:2649  newOwner == address(0) */\n      0xffffffffffffffffffffffffffffffffffffffff\n      and\n      sub\n        /* \"@openzeppelin/contracts/access/Ownable.sol\":2623:2714  if (newOwner == address(0)) {... */\n      tag_394\n      jumpi\n        /* \"@openzeppelin/contracts/access/Ownable.sol\":2700:2701  0 */\n      0x00\n        /* \"@openzeppelin/contracts/access/Ownable.sol\":2672:2703  OwnableInvalidOwner(address(0)) */\n      mload(0x40)\n      0x1e4fbdf700000000000000000000000000000000000000000000000000000000\n      dup2\n      mstore\n      0x04\n      add\n      tag_395\n      swap2\n      swap1\n      tag_147\n      jump\t// in\n    tag_395:\n      mload(0x40)\n      dup1\n      swap2\n      sub\n      swap1\n      revert\n        /* \"@openzeppelin/contracts/access/Ownable.sol\":2623:2714  if (newOwner == address(0)) {... */\n    tag_394:\n        /* \"@openzeppelin/contracts/access/Ownable.sol\":2723:2751  _transferOwnership(newOwner) */\n      tag_396\n        /* \"@openzeppelin/contracts/access/Ownable.sol\":2742:2750  newOwner */\n      dup2\n        /* \"@openzeppelin/contracts/access/Ownable.sol\":2723:2741  _transferOwnership */\n      tag_300\n        /* \"@openzeppelin/contracts/access/Ownable.sol\":2723:2751  _transferOwnership(newOwner) */\n      jump\t// in\n    tag_396:\n        /* \"@openzeppelin/contracts/access/Ownable.sol\":2543:2758  function transferOwnership(address newOwner) public virtual onlyOwner {... */\n      pop\n      jump\t// out\n        /* \"@openzeppelin/contracts/access/Ownable.sol\":1796:1958  function _checkOwner() internal view virtual {... */\n    tag_212:\n        /* \"@openzeppelin/contracts/access/Ownable.sol\":1866:1878  _msgSender() */\n      tag_398\n        /* \"@openzeppelin/contracts/access/Ownable.sol\":1866:1876  _msgSender */\n      tag_399\n        /* \"@openzeppelin/contracts/access/Ownable.sol\":1866:1878  _msgSender() */\n      jump\t// in\n    tag_398:\n        /* \"@openzeppelin/contracts/access/Ownable.sol\":1855:1878  owner() != _msgSender() */\n      0xffffffffffffffffffffffffffffffffffffffff\n      and\n        /* \"@openzeppelin/contracts/access/Ownable.sol\":1855:1862  owner() */\n      tag_400\n        /* \"@openzeppelin/contracts/access/Ownable.sol\":1855:1860  owner */\n      tag_145\n        /* \"@openzeppelin/contracts/access/Ownable.sol\":1855:1862  owner() */\n      jump\t// in\n    tag_400:\n        /* \"@openzeppelin/contracts/access/Ownable.sol\":1855:1878  owner() != _msgSender() */\n      0xffffffffffffffffffffffffffffffffffffffff\n      and\n      eq\n        /* \"@openzeppelin/contracts/access/Ownable.sol\":1851:1952  if (owner() != _msgSender()) {... */\n      tag_401\n      jumpi\n        /* \"@openzeppelin/contracts/access/Ownable.sol\":1928:1940  _msgSender() */\n      tag_402\n        /* \"@openzeppelin/contracts/access/Ownable.sol\":1928:1938  _msgSender */\n      tag_399\n        /* \"@openzeppelin/contracts/access/Ownable.sol\":1928:1940  _msgSender() */\n      jump\t// in\n    tag_402:\n        /* \"@openzeppelin/contracts/access/Ownable.sol\":1901:1941  OwnableUnauthorizedAccount(_msgSender()) */\n      mload(0x40)\n      0x118cdaa700000000000000000000000000000000000000000000000000000000\n      dup2\n      mstore\n      0x04\n      add\n      tag_403\n      swap2\n      swap1\n      tag_147\n      jump\t// in\n    tag_403:\n      mload(0x40)\n      dup1\n      swap2\n      sub\n      swap1\n      revert\n        /* \"@openzeppelin/contracts/access/Ownable.sol\":1851:1952  if (owner() != _msgSender()) {... */\n    tag_401:\n        /* \"@openzeppelin/contracts/access/Ownable.sol\":1796:1958  function _checkOwner() internal view virtual {... */\n      jump\t// out\n        /* \"@openzeppelin/contracts/utils/Pausable.sol\":2710:2827  function _unpause() internal virtual whenPaused {... */\n    tag_215:\n        /* \"@openzeppelin/contracts/utils/Pausable.sol\":1721:1737  _requirePaused() */\n      tag_405\n        /* \"@openzeppelin/contracts/utils/Pausable.sol\":1721:1735  _requirePaused */\n      tag_406\n        /* \"@openzeppelin/contracts/utils/Pausable.sol\":1721:1737  _requirePaused() */\n      jump\t// in\n    tag_405:\n        /* \"@openzeppelin/contracts/utils/Pausable.sol\":2778:2783  false */\n      0x00\n        /* \"@openzeppelin/contracts/utils/Pausable.sol\":2768:2775  _paused */\n      0x02\n      0x00\n        /* \"@openzeppelin/contracts/utils/Pausable.sol\":2768:2783  _paused = false */\n      0x0100\n      exp\n      dup2\n      sload\n      dup2\n      0xff\n      mul\n      not\n      and\n      swap1\n      dup4\n      iszero\n      iszero\n      mul\n      or\n      swap1\n      sstore\n      pop\n        /* \"@openzeppelin/contracts/utils/Pausable.sol\":2798:2820  Unpaused(_msgSender()) */\n      0x5db9ee0a495bf2e6ff9c91a7834c1ba4fdd244a5e8aa4e537bd38aeae4b073aa\n        /* \"@openzeppelin/contracts/utils/Pausable.sol\":2807:2819  _msgSender() */\n      tag_408\n        /* \"@openzeppelin/contracts/utils/Pausable.sol\":2807:2817  _msgSender */\n      tag_399\n        /* \"@openzeppelin/contracts/utils/Pausable.sol\":2807:2819  _msgSender() */\n      jump\t// in\n    tag_408:\n        /* \"@openzeppelin/contracts/utils/Pausable.sol\":2798:2820  Unpaused(_msgSender()) */\n      mload(0x40)\n      tag_409\n      swap2\n      swap1\n      tag_147\n      jump\t// in\n    tag_409:\n      mload(0x40)\n      dup1\n      swap2\n      sub\n      swap1\n      log1\n        /* \"@openzeppelin/contracts/utils/Pausable.sol\":2710:2827  function _unpause() internal virtual whenPaused {... */\n      jump\t// out\n        /* \"@openzeppelin/contracts/access/Ownable.sol\":2912:3099  function _transferOwnership(address newOwner) internal virtual {... */\n    tag_300:\n        /* \"@openzeppelin/contracts/access/Ownable.sol\":2985:3001  address oldOwner */\n      0x00\n        /* \"@openzeppelin/contracts/access/Ownable.sol\":3004:3010  _owner */\n      dup1\n      0x00\n      swap1\n      sload\n      swap1\n      0x0100\n      exp\n      swap1\n      div\n      0xffffffffffffffffffffffffffffffffffffffff\n      and\n        /* \"@openzeppelin/contracts/access/Ownable.sol\":2985:3010  address oldOwner = _owner */\n      swap1\n      pop\n        /* \"@openzeppelin/contracts/access/Ownable.sol\":3029:3037  newOwner */\n      dup2\n        /* \"@openzeppelin/contracts/access/Ownable.sol\":3020:3026  _owner */\n      0x00\n      dup1\n        /* \"@openzeppelin/contracts/access/Ownable.sol\":3020:3037  _owner = newOwner */\n      0x0100\n      exp\n      dup2\n      sload\n      dup2\n      0xffffffffffffffffffffffffffffffffffffffff\n      mul\n      not\n      and\n      swap1\n      dup4\n      0xffffffffffffffffffffffffffffffffffffffff\n      and\n      mul\n      or\n      swap1\n      sstore\n      pop\n        /* \"@openzeppelin/contracts/access/Ownable.sol\":3083:3091  newOwner */\n      dup2\n        /* \"@openzeppelin/contracts/access/Ownable.sol\":3052:3092  OwnershipTransferred(oldOwner, newOwner) */\n      0xffffffffffffffffffffffffffffffffffffffff\n      and\n        /* \"@openzeppelin/contracts/access/Ownable.sol\":3073:3081  oldOwner */\n      dup2\n        /* \"@openzeppelin/contracts/access/Ownable.sol\":3052:3092  OwnershipTransferred(oldOwner, newOwner) */\n      0xffffffffffffffffffffffffffffffffffffffff\n      and\n      0x8be0079c531659141344cd1fd0a4f28419497f9722a3daafe3b4186f6b6457e0\n      mload(0x40)\n      mload(0x40)\n      dup1\n      swap2\n      sub\n      swap1\n      log3\n        /* \"@openzeppelin/contracts/access/Ownable.sol\":2975:3099  {... */\n      pop\n        /* \"@openzeppelin/contracts/access/Ownable.sol\":2912:3099  function _transferOwnership(address newOwner) internal virtual {... */\n      pop\n      jump\t// out\n        /* \"@openzeppelin/contracts/utils/Pausable.sol\":2463:2578  function _pause() internal virtual whenNotPaused {... */\n    tag_323:\n        /* \"@openzeppelin/contracts/utils/Pausable.sol\":1474:1493  _requireNotPaused() */\n      tag_412\n        /* \"@openzeppelin/contracts/utils/Pausable.sol\":1474:1491  _requireNotPaused */\n      tag_413\n        /* \"@openzeppelin/contracts/utils/Pausable.sol\":1474:1493  _requireNotPaused() */\n      jump\t// in\n    tag_412:\n        /* \"@openzeppelin/contracts/utils/Pausable.sol\":2532:2536  true */\n      0x01\n        /* \"@openzeppelin/contracts/utils/Pausable.sol\":2522:2529  _paused */\n      0x02\n      0x00\n        /* \"@openzeppelin/contracts/utils/Pausable.sol\":2522:2536  _paused = true */\n      0x0100\n      exp\n      dup2\n      sload\n      dup2\n      0xff\n      mul\n      not\n      and\n      swap1\n      dup4\n      iszero\n      iszero\n      mul\n      or\n      swap1\n      sstore\n      pop\n        /* \"@openzeppelin/contracts/utils/Pausable.sol\":2551:2571  Paused(_msgSender()) */\n      0x62e78cea01bee320cd4e420270b5ea74000d11b0c9f74754ebdbfc544b05a258\n        /* \"@openzeppelin/contracts/utils/Pausable.sol\":2558:2570  _msgSender() */\n      tag_415\n        /* \"@openzeppelin/contracts/utils/Pausable.sol\":2558:2568  _msgSender */\n      tag_399\n        /* \"@openzeppelin/contracts/utils/Pausable.sol\":2558:2570  _msgSender() */\n      jump\t// in\n    tag_415:\n        /* \"@openzeppelin/contracts/utils/Pausable.sol\":2551:2571  Paused(_msgSender()) */\n      mload(0x40)\n      tag_416\n      swap2\n      swap1\n      tag_147\n      jump\t// in\n    tag_416:\n      mload(0x40)\n      dup1\n      swap2\n      sub\n      swap1\n      log1\n        /* \"@openzeppelin/contracts/utils/Pausable.sol\":2463:2578  function _pause() internal virtual whenNotPaused {... */\n      jump\t// out\n        /* \"@openzeppelin/contracts/utils/Context.sol\":656:752  function _msgSender() internal view virtual returns (address) {... */\n    tag_399:\n        /* \"@openzeppelin/contracts/utils/Context.sol\":709:716  address */\n      0x00\n        /* \"@openzeppelin/contracts/utils/Context.sol\":735:745  msg.sender */\n      caller\n        /* \"@openzeppelin/contracts/utils/Context.sol\":728:745  return msg.sender */\n      swap1\n      pop\n        /* \"@openzeppelin/contracts/utils/Context.sol\":656:752  function _msgSender() internal view virtual returns (address) {... */\n      swap1\n      jump\t// out\n        /* \"@openzeppelin/contracts/utils/Pausable.sol\":2202:2328  function _requirePaused() internal view virtual {... */\n    tag_406:\n        /* \"@openzeppelin/contracts/utils/Pausable.sol\":2265:2273  paused() */\n      tag_419\n        /* \"@openzeppelin/contracts/utils/Pausable.sol\":2265:2271  paused */\n      tag_90\n        /* \"@openzeppelin/contracts/utils/Pausable.sol\":2265:2273  paused() */\n      jump\t// in\n    tag_419:\n        /* \"@openzeppelin/contracts/utils/Pausable.sol\":2260:2322  if (!paused()) {... */\n      tag_420\n      jumpi\n        /* \"@openzeppelin/contracts/utils/Pausable.sol\":2296:2311  ExpectedPause() */\n      mload(0x40)\n      0x8dfc202b00000000000000000000000000000000000000000000000000000000\n      dup2\n      mstore\n      0x04\n      add\n      mload(0x40)\n      dup1\n      swap2\n      sub\n      swap1\n      revert\n        /* \"@openzeppelin/contracts/utils/Pausable.sol\":2260:2322  if (!paused()) {... */\n    tag_420:\n        /* \"@openzeppelin/contracts/utils/Pausable.sol\":2202:2328  function _requirePaused() internal view virtual {... */\n      jump\t// out\n        /* \"@openzeppelin/contracts/utils/Pausable.sol\":2002:2130  function _requireNotPaused() internal view virtual {... */\n    tag_413:\n        /* \"@openzeppelin/contracts/utils/Pausable.sol\":2067:2075  paused() */\n      tag_422\n        /* \"@openzeppelin/contracts/utils/Pausable.sol\":2067:2073  paused */\n      tag_90\n        /* \"@openzeppelin/contracts/utils/Pausable.sol\":2067:2075  paused() */\n      jump\t// in\n    tag_422:\n        /* \"@openzeppelin/contracts/utils/Pausable.sol\":2063:2124  if (paused()) {... */\n      iszero\n      tag_423\n      jumpi\n        /* \"@openzeppelin/contracts/utils/Pausable.sol\":2098:2113  EnforcedPause() */\n      mload(0x40)\n      0xd93c066500000000000000000000000000000000000000000000000000000000\n      dup2\n      mstore\n      0x04\n      add\n      mload(0x40)\n      dup1\n      swap2\n      sub\n      swap1\n      revert\n        /* \"@openzeppelin/contracts/utils/Pausable.sol\":2063:2124  if (paused()) {... */\n    tag_423:\n        /* \"@openzeppelin/contracts/utils/Pausable.sol\":2002:2130  function _requireNotPaused() internal view virtual {... */\n      jump\t// out\n        /* \"#utility.yul\":88:205   */\n    tag_425:\n        /* \"#utility.yul\":197:198   */\n      0x00\n        /* \"#utility.yul\":194:195   */\n      dup1\n        /* \"#utility.yul\":187:199   */\n      revert\n        /* \"#utility.yul\":211:328   */\n    tag_426:\n        /* \"#utility.yul\":320:321   */\n      0x00\n        /* \"#utility.yul\":317:318   */\n      dup1\n        /* \"#utility.yul\":310:322   */\n      revert\n        /* \"#utility.yul\":334:411   */\n    tag_427:\n        /* \"#utility.yul\":371:378   */\n      0x00\n        /* \"#utility.yul\":400:405   */\n      dup2\n        /* \"#utility.yul\":389:405   */\n      swap1\n      pop\n        /* \"#utility.yul\":334:411   */\n      swap2\n      swap1\n      pop\n      jump\t// out\n        /* \"#utility.yul\":417:539   */\n    tag_428:\n        /* \"#utility.yul\":490:514   */\n      tag_524\n        /* \"#utility.yul\":508:513   */\n      dup2\n        /* \"#utility.yul\":490:514   */\n      tag_427\n      jump\t// in\n    tag_524:\n        /* \"#utility.yul\":483:488   */\n      dup2\n        /* \"#utility.yul\":480:515   */\n      eq\n        /* \"#utility.yul\":470:533   */\n      tag_525\n      jumpi\n        /* \"#utility.yul\":529:530   */\n      0x00\n        /* \"#utility.yul\":526:527   */\n      dup1\n        /* \"#utility.yul\":519:531   */\n      revert\n        /* \"#utility.yul\":470:533   */\n    tag_525:\n        /* \"#utility.yul\":417:539   */\n      pop\n      jump\t// out\n        /* \"#utility.yul\":545:684   */\n    tag_429:\n        /* \"#utility.yul\":591:596   */\n      0x00\n        /* \"#utility.yul\":629:635   */\n      dup2\n        /* \"#utility.yul\":616:636   */\n      calldataload\n        /* \"#utility.yul\":607:636   */\n      swap1\n      pop\n        /* \"#utility.yul\":645:678   */\n      tag_527\n        /* \"#utility.yul\":672:677   */\n      dup2\n        /* \"#utility.yul\":645:678   */\n      tag_428\n      jump\t// in\n    tag_527:\n        /* \"#utility.yul\":545:684   */\n      swap3\n      swap2\n      pop\n      pop\n      jump\t// out\n        /* \"#utility.yul\":690:1019   */\n    tag_47:\n        /* \"#utility.yul\":749:755   */\n      0x00\n        /* \"#utility.yul\":798:800   */\n      0x20\n        /* \"#utility.yul\":786:795   */\n      dup3\n        /* \"#utility.yul\":777:784   */\n      dup5\n        /* \"#utility.yul\":773:796   */\n      sub\n        /* \"#utility.yul\":769:801   */\n      slt\n        /* \"#utility.yul\":766:885   */\n      iszero\n      tag_529\n      jumpi\n        /* \"#utility.yul\":804:883   */\n      tag_530\n      tag_425\n      jump\t// in\n    tag_530:\n        /* \"#utility.yul\":766:885   */\n    tag_529:\n        /* \"#utility.yul\":924:925   */\n      0x00\n        /* \"#utility.yul\":949:1002   */\n      tag_531\n        /* \"#utility.yul\":994:1001   */\n      dup5\n        /* \"#utility.yul\":985:991   */\n      dup3\n        /* \"#utility.yul\":974:983   */\n      dup6\n        /* \"#utility.yul\":970:992   */\n      add\n        /* \"#utility.yul\":949:1002   */\n      tag_429\n      jump\t// in\n    tag_531:\n        /* \"#utility.yul\":939:1002   */\n      swap2\n      pop\n        /* \"#utility.yul\":895:1012   */\n      pop\n        /* \"#utility.yul\":690:1019   */\n      swap3\n      swap2\n      pop\n      pop\n      jump\t// out\n        /* \"#utility.yul\":1025:1102   */\n    tag_430:\n        /* \"#utility.yul\":1062:1069   */\n      0x00\n        /* \"#utility.yul\":1091:1096   */\n      dup2\n        /* \"#utility.yul\":1080:1096   */\n      swap1\n      pop\n        /* \"#utility.yul\":1025:1102   */\n      swap2\n      swap1\n      pop\n      jump\t// out\n        /* \"#utility.yul\":1108:1226   */\n    tag_431:\n        /* \"#utility.yul\":1195:1219   */\n      tag_534\n        /* \"#utility.yul\":1213:1218   */\n      dup2\n        /* \"#utility.yul\":1195:1219   */\n      tag_430\n      jump\t// in\n    tag_534:\n        /* \"#utility.yul\":1190:1193   */\n      dup3\n        /* \"#utility.yul\":1183:1220   */\n      mstore\n        /* \"#utility.yul\":1108:1226   */\n      pop\n      pop\n      jump\t// out\n        /* \"#utility.yul\":1232:1785   */\n    tag_50:\n        /* \"#utility.yul\":1409:1413   */\n      0x00\n        /* \"#utility.yul\":1447:1450   */\n      0x80\n        /* \"#utility.yul\":1436:1445   */\n      dup3\n        /* \"#utility.yul\":1432:1451   */\n      add\n        /* \"#utility.yul\":1424:1451   */\n      swap1\n      pop\n        /* \"#utility.yul\":1461:1532   */\n      tag_536\n        /* \"#utility.yul\":1529:1530   */\n      0x00\n        /* \"#utility.yul\":1518:1527   */\n      dup4\n        /* \"#utility.yul\":1514:1531   */\n      add\n        /* \"#utility.yul\":1505:1511   */\n      dup8\n        /* \"#utility.yul\":1461:1532   */\n      tag_431\n      jump\t// in\n    tag_536:\n        /* \"#utility.yul\":1542:1614   */\n      tag_537\n        /* \"#utility.yul\":1610:1612   */\n      0x20\n        /* \"#utility.yul\":1599:1608   */\n      dup4\n        /* \"#utility.yul\":1595:1613   */\n      add\n        /* \"#utility.yul\":1586:1592   */\n      dup7\n        /* \"#utility.yul\":1542:1614   */\n      tag_431\n      jump\t// in\n    tag_537:\n        /* \"#utility.yul\":1624:1696   */\n      tag_538\n        /* \"#utility.yul\":1692:1694   */\n      0x40\n        /* \"#utility.yul\":1681:1690   */\n      dup4\n        /* \"#utility.yul\":1677:1695   */\n      add\n        /* \"#utility.yul\":1668:1674   */\n      dup6\n        /* \"#utility.yul\":1624:1696   */\n      tag_431\n      jump\t// in\n    tag_538:\n        /* \"#utility.yul\":1706:1778   */\n      tag_539\n        /* \"#utility.yul\":1774:1776   */\n      0x60\n        /* \"#utility.yul\":1763:1772   */\n      dup4\n        /* \"#utility.yul\":1759:1777   */\n      add\n        /* \"#utility.yul\":1750:1756   */\n      dup5\n        /* \"#utility.yul\":1706:1778   */\n      tag_431\n      jump\t// in\n    tag_539:\n        /* \"#utility.yul\":1232:1785   */\n      swap6\n      swap5\n      pop\n      pop\n      pop\n      pop\n      pop\n      jump\t// out\n        /* \"#utility.yul\":1791:1917   */\n    tag_432:\n        /* \"#utility.yul\":1828:1835   */\n      0x00\n        /* \"#utility.yul\":1868:1910   */\n      0xffffffffffffffffffffffffffffffffffffffff\n        /* \"#utility.yul\":1861:1866   */\n      dup3\n        /* \"#utility.yul\":1857:1911   */\n      and\n        /* \"#utility.yul\":1846:1911   */\n      swap1\n      pop\n        /* \"#utility.yul\":1791:1917   */\n      swap2\n      swap1\n      pop\n      jump\t// out\n        /* \"#utility.yul\":1923:1983   */\n    tag_433:\n        /* \"#utility.yul\":1951:1954   */\n      0x00\n        /* \"#utility.yul\":1972:1977   */\n      dup2\n        /* \"#utility.yul\":1965:1977   */\n      swap1\n      pop\n        /* \"#utility.yul\":1923:1983   */\n      swap2\n      swap1\n      pop\n      jump\t// out\n        /* \"#utility.yul\":1989:2131   */\n    tag_434:\n        /* \"#utility.yul\":2039:2048   */\n      0x00\n        /* \"#utility.yul\":2072:2125   */\n      tag_543\n        /* \"#utility.yul\":2090:2124   */\n      tag_544\n        /* \"#utility.yul\":2099:2123   */\n      tag_545\n        /* \"#utility.yul\":2117:2122   */\n      dup5\n        /* \"#utility.yul\":2099:2123   */\n      tag_432\n      jump\t// in\n    tag_545:\n        /* \"#utility.yul\":2090:2124   */\n      tag_433\n      jump\t// in\n    tag_544:\n        /* \"#utility.yul\":2072:2125   */\n      tag_432\n      jump\t// in\n    tag_543:\n        /* \"#utility.yul\":2059:2125   */\n      swap1\n      pop\n        /* \"#utility.yul\":1989:2131   */\n      swap2\n      swap1\n      pop\n      jump\t// out\n        /* \"#utility.yul\":2137:2263   */\n    tag_435:\n        /* \"#utility.yul\":2187:2196   */\n      0x00\n        /* \"#utility.yul\":2220:2257   */\n      tag_547\n        /* \"#utility.yul\":2251:2256   */\n      dup3\n        /* \"#utility.yul\":2220:2257   */\n      tag_434\n      jump\t// in\n    tag_547:\n        /* \"#utility.yul\":2207:2257   */\n      swap1\n      pop\n        /* \"#utility.yul\":2137:2263   */\n      swap2\n      swap1\n      pop\n      jump\t// out\n        /* \"#utility.yul\":2269:2412   */\n    tag_436:\n        /* \"#utility.yul\":2336:2345   */\n      0x00\n        /* \"#utility.yul\":2369:2406   */\n      tag_549\n        /* \"#utility.yul\":2400:2405   */\n      dup3\n        /* \"#utility.yul\":2369:2406   */\n      tag_435\n      jump\t// in\n    tag_549:\n        /* \"#utility.yul\":2356:2406   */\n      swap1\n      pop\n        /* \"#utility.yul\":2269:2412   */\n      swap2\n      swap1\n      pop\n      jump\t// out\n        /* \"#utility.yul\":2418:2583   */\n    tag_437:\n        /* \"#utility.yul\":2522:2576   */\n      tag_551\n        /* \"#utility.yul\":2570:2575   */\n      dup2\n        /* \"#utility.yul\":2522:2576   */\n      tag_436\n      jump\t// in\n    tag_551:\n        /* \"#utility.yul\":2517:2520   */\n      dup3\n        /* \"#utility.yul\":2510:2577   */\n      mstore\n        /* \"#utility.yul\":2418:2583   */\n      pop\n      pop\n      jump\t// out\n        /* \"#utility.yul\":2589:2845   */\n    tag_55:\n        /* \"#utility.yul\":2699:2703   */\n      0x00\n        /* \"#utility.yul\":2737:2739   */\n      0x20\n        /* \"#utility.yul\":2726:2735   */\n      dup3\n        /* \"#utility.yul\":2722:2740   */\n      add\n        /* \"#utility.yul\":2714:2740   */\n      swap1\n      pop\n        /* \"#utility.yul\":2750:2838   */\n      tag_553\n        /* \"#utility.yul\":2835:2836   */\n      0x00\n        /* \"#utility.yul\":2824:2833   */\n      dup4\n        /* \"#utility.yul\":2820:2837   */\n      add\n        /* \"#utility.yul\":2811:2817   */\n      dup5\n        /* \"#utility.yul\":2750:2838   */\n      tag_437\n      jump\t// in\n    tag_553:\n        /* \"#utility.yul\":2589:2845   */\n      swap3\n      swap2\n      pop\n      pop\n      jump\t// out\n        /* \"#utility.yul\":2851:3073   */\n    tag_63:\n        /* \"#utility.yul\":2944:2948   */\n      0x00\n        /* \"#utility.yul\":2982:2984   */\n      0x20\n        /* \"#utility.yul\":2971:2980   */\n      dup3\n        /* \"#utility.yul\":2967:2985   */\n      add\n        /* \"#utility.yul\":2959:2985   */\n      swap1\n      pop\n        /* \"#utility.yul\":2995:3066   */\n      tag_555\n        /* \"#utility.yul\":3063:3064   */\n      0x00\n        /* \"#utility.yul\":3052:3061   */\n      dup4\n        /* \"#utility.yul\":3048:3065   */\n      add\n        /* \"#utility.yul\":3039:3045   */\n      dup5\n        /* \"#utility.yul\":2995:3066   */\n      tag_431\n      jump\t// in\n    tag_555:\n        /* \"#utility.yul\":2851:3073   */\n      swap3\n      swap2\n      pop\n      pop\n      jump\t// out\n        /* \"#utility.yul\":3079:3201   */\n    tag_438:\n        /* \"#utility.yul\":3152:3176   */\n      tag_557\n        /* \"#utility.yul\":3170:3175   */\n      dup2\n        /* \"#utility.yul\":3152:3176   */\n      tag_430\n      jump\t// in\n    tag_557:\n        /* \"#utility.yul\":3145:3150   */\n      dup2\n        /* \"#utility.yul\":3142:3177   */\n      eq\n        /* \"#utility.yul\":3132:3195   */\n      tag_558\n      jumpi\n        /* \"#utility.yul\":3191:3192   */\n      0x00\n        /* \"#utility.yul\":3188:3189   */\n      dup1\n        /* \"#utility.yul\":3181:3193   */\n      revert\n        /* \"#utility.yul\":3132:3195   */\n    tag_558:\n        /* \"#utility.yul\":3079:3201   */\n      pop\n      jump\t// out\n        /* \"#utility.yul\":3207:3346   */\n    tag_439:\n        /* \"#utility.yul\":3253:3258   */\n      0x00\n        /* \"#utility.yul\":3291:3297   */\n      dup2\n        /* \"#utility.yul\":3278:3298   */\n      calldataload\n        /* \"#utility.yul\":3269:3298   */\n      swap1\n      pop\n        /* \"#utility.yul\":3307:3340   */\n      tag_560\n        /* \"#utility.yul\":3334:3339   */\n      dup2\n        /* \"#utility.yul\":3307:3340   */\n      tag_438\n      jump\t// in\n    tag_560:\n        /* \"#utility.yul\":3207:3346   */\n      swap3\n      swap2\n      pop\n      pop\n      jump\t// out\n        /* \"#utility.yul\":3352:3442   */\n    tag_440:\n        /* \"#utility.yul\":3386:3393   */\n      0x00\n        /* \"#utility.yul\":3429:3434   */\n      dup2\n        /* \"#utility.yul\":3422:3435   */\n      iszero\n        /* \"#utility.yul\":3415:3436   */\n      iszero\n        /* \"#utility.yul\":3404:3436   */\n      swap1\n      pop\n        /* \"#utility.yul\":3352:3442   */\n      swap2\n      swap1\n      pop\n      jump\t// out\n        /* \"#utility.yul\":3448:3564   */\n    tag_441:\n        /* \"#utility.yul\":3518:3539   */\n      tag_563\n        /* \"#utility.yul\":3533:3538   */\n      dup2\n        /* \"#utility.yul\":3518:3539   */\n      tag_440\n      jump\t// in\n    tag_563:\n        /* \"#utility.yul\":3511:3516   */\n      dup2\n        /* \"#utility.yul\":3508:3540   */\n      eq\n        /* \"#utility.yul\":3498:3558   */\n      tag_564\n      jumpi\n        /* \"#utility.yul\":3554:3555   */\n      0x00\n        /* \"#utility.yul\":3551:3552   */\n      dup1\n        /* \"#utility.yul\":3544:3556   */\n      revert\n        /* \"#utility.yul\":3498:3558   */\n    tag_564:\n        /* \"#utility.yul\":3448:3564   */\n      pop\n      jump\t// out\n        /* \"#utility.yul\":3570:3703   */\n    tag_442:\n        /* \"#utility.yul\":3613:3618   */\n      0x00\n        /* \"#utility.yul\":3651:3657   */\n      dup2\n        /* \"#utility.yul\":3638:3658   */\n      calldataload\n        /* \"#utility.yul\":3629:3658   */\n      swap1\n      pop\n        /* \"#utility.yul\":3667:3697   */\n      tag_566\n        /* \"#utility.yul\":3691:3696   */\n      dup2\n        /* \"#utility.yul\":3667:3697   */\n      tag_441\n      jump\t// in\n    tag_566:\n        /* \"#utility.yul\":3570:3703   */\n      swap3\n      swap2\n      pop\n      pop\n      jump\t// out\n        /* \"#utility.yul\":3709:4468   */\n    tag_67:\n        /* \"#utility.yul\":3792:3798   */\n      0x00\n        /* \"#utility.yul\":3800:3806   */\n      dup1\n        /* \"#utility.yul\":3808:3814   */\n      0x00\n        /* \"#utility.yul\":3816:3822   */\n      dup1\n        /* \"#utility.yul\":3865:3868   */\n      0x80\n        /* \"#utility.yul\":3853:3862   */\n      dup6\n        /* \"#utility.yul\":3844:3851   */\n      dup8\n        /* \"#utility.yul\":3840:3863   */\n      sub\n        /* \"#utility.yul\":3836:3869   */\n      slt\n        /* \"#utility.yul\":3833:3953   */\n      iszero\n      tag_568\n      jumpi\n        /* \"#utility.yul\":3872:3951   */\n      tag_569\n      tag_425\n      jump\t// in\n    tag_569:\n        /* \"#utility.yul\":3833:3953   */\n    tag_568:\n        /* \"#utility.yul\":3992:3993   */\n      0x00\n        /* \"#utility.yul\":4017:4070   */\n      tag_570\n        /* \"#utility.yul\":4062:4069   */\n      dup8\n        /* \"#utility.yul\":4053:4059   */\n      dup3\n        /* \"#utility.yul\":4042:4051   */\n      dup9\n        /* \"#utility.yul\":4038:4060   */\n      add\n        /* \"#utility.yul\":4017:4070   */\n      tag_429\n      jump\t// in\n    tag_570:\n        /* \"#utility.yul\":4007:4070   */\n      swap5\n      pop\n        /* \"#utility.yul\":3963:4080   */\n      pop\n        /* \"#utility.yul\":4119:4121   */\n      0x20\n        /* \"#utility.yul\":4145:4198   */\n      tag_571\n        /* \"#utility.yul\":4190:4197   */\n      dup8\n        /* \"#utility.yul\":4181:4187   */\n      dup3\n        /* \"#utility.yul\":4170:4179   */\n      dup9\n        /* \"#utility.yul\":4166:4188   */\n      add\n        /* \"#utility.yul\":4145:4198   */\n      tag_439\n      jump\t// in\n    tag_571:\n        /* \"#utility.yul\":4135:4198   */\n      swap4\n      pop\n        /* \"#utility.yul\":4090:4208   */\n      pop\n        /* \"#utility.yul\":4247:4249   */\n      0x40\n        /* \"#utility.yul\":4273:4323   */\n      tag_572\n        /* \"#utility.yul\":4315:4322   */\n      dup8\n        /* \"#utility.yul\":4306:4312   */\n      dup3\n        /* \"#utility.yul\":4295:4304   */\n      dup9\n        /* \"#utility.yul\":4291:4313   */\n      add\n        /* \"#utility.yul\":4273:4323   */\n      tag_442\n      jump\t// in\n    tag_572:\n        /* \"#utility.yul\":4263:4323   */\n      swap3\n      pop\n        /* \"#utility.yul\":4218:4333   */\n      pop\n        /* \"#utility.yul\":4372:4374   */\n      0x60\n        /* \"#utility.yul\":4398:4451   */\n      tag_573\n        /* \"#utility.yul\":4443:4450   */\n      dup8\n        /* \"#utility.yul\":4434:4440   */\n      dup3\n        /* \"#utility.yul\":4423:4432   */\n      dup9\n        /* \"#utility.yul\":4419:4441   */\n      add\n        /* \"#utility.yul\":4398:4451   */\n      tag_429\n      jump\t// in\n    tag_573:\n        /* \"#utility.yul\":4388:4451   */\n      swap2\n      pop\n        /* \"#utility.yul\":4343:4461   */\n      pop\n        /* \"#utility.yul\":3709:4468   */\n      swap3\n      swap6\n      swap2\n      swap5\n      pop\n      swap3\n      pop\n      jump\t// out\n        /* \"#utility.yul\":4474:4591   */\n    tag_443:\n        /* \"#utility.yul\":4583:4584   */\n      0x00\n        /* \"#utility.yul\":4580:4581   */\n      dup1\n        /* \"#utility.yul\":4573:4585   */\n      revert\n        /* \"#utility.yul\":4597:4714   */\n    tag_444:\n        /* \"#utility.yul\":4706:4707   */\n      0x00\n        /* \"#utility.yul\":4703:4704   */\n      dup1\n        /* \"#utility.yul\":4696:4708   */\n      revert\n        /* \"#utility.yul\":4720:4837   */\n    tag_445:\n        /* \"#utility.yul\":4829:4830   */\n      0x00\n        /* \"#utility.yul\":4826:4827   */\n      dup1\n        /* \"#utility.yul\":4819:4831   */\n      revert\n        /* \"#utility.yul\":4857:5410   */\n    tag_446:\n        /* \"#utility.yul\":4915:4923   */\n      0x00\n        /* \"#utility.yul\":4925:4931   */\n      dup1\n        /* \"#utility.yul\":4975:4978   */\n      dup4\n        /* \"#utility.yul\":4968:4972   */\n      0x1f\n        /* \"#utility.yul\":4960:4966   */\n      dup5\n        /* \"#utility.yul\":4956:4973   */\n      add\n        /* \"#utility.yul\":4952:4979   */\n      slt\n        /* \"#utility.yul\":4942:5064   */\n      tag_578\n      jumpi\n        /* \"#utility.yul\":4983:5062   */\n      tag_579\n      tag_443\n      jump\t// in\n    tag_579:\n        /* \"#utility.yul\":4942:5064   */\n    tag_578:\n        /* \"#utility.yul\":5096:5102   */\n      dup3\n        /* \"#utility.yul\":5083:5103   */\n      calldataload\n        /* \"#utility.yul\":5073:5103   */\n      swap1\n      pop\n        /* \"#utility.yul\":5126:5144   */\n      0xffffffffffffffff\n        /* \"#utility.yul\":5118:5124   */\n      dup2\n        /* \"#utility.yul\":5115:5145   */\n      gt\n        /* \"#utility.yul\":5112:5229   */\n      iszero\n      tag_580\n      jumpi\n        /* \"#utility.yul\":5148:5227   */\n      tag_581\n      tag_444\n      jump\t// in\n    tag_581:\n        /* \"#utility.yul\":5112:5229   */\n    tag_580:\n        /* \"#utility.yul\":5262:5266   */\n      0x20\n        /* \"#utility.yul\":5254:5260   */\n      dup4\n        /* \"#utility.yul\":5250:5267   */\n      add\n        /* \"#utility.yul\":5238:5267   */\n      swap2\n      pop\n        /* \"#utility.yul\":5316:5319   */\n      dup4\n        /* \"#utility.yul\":5308:5312   */\n      0x01\n        /* \"#utility.yul\":5300:5306   */\n      dup3\n        /* \"#utility.yul\":5296:5313   */\n      mul\n        /* \"#utility.yul\":5286:5294   */\n      dup4\n        /* \"#utility.yul\":5282:5314   */\n      add\n        /* \"#utility.yul\":5279:5320   */\n      gt\n        /* \"#utility.yul\":5276:5404   */\n      iszero\n      tag_582\n      jumpi\n        /* \"#utility.yul\":5323:5402   */\n      tag_583\n      tag_445\n      jump\t// in\n    tag_583:\n        /* \"#utility.yul\":5276:5404   */\n    tag_582:\n        /* \"#utility.yul\":4857:5410   */\n      swap3\n      pop\n      swap3\n      swap1\n      pop\n      jump\t// out\n        /* \"#utility.yul\":5416:6235   */\n    tag_76:\n        /* \"#utility.yul\":5505:5511   */\n      0x00\n        /* \"#utility.yul\":5513:5519   */\n      dup1\n        /* \"#utility.yul\":5521:5527   */\n      0x00\n        /* \"#utility.yul\":5529:5535   */\n      dup1\n        /* \"#utility.yul\":5578:5580   */\n      0x60\n        /* \"#utility.yul\":5566:5575   */\n      dup6\n        /* \"#utility.yul\":5557:5564   */\n      dup8\n        /* \"#utility.yul\":5553:5576   */\n      sub\n        /* \"#utility.yul\":5549:5581   */\n      slt\n        /* \"#utility.yul\":5546:5665   */\n      iszero\n      tag_585\n      jumpi\n        /* \"#utility.yul\":5584:5663   */\n      tag_586\n      tag_425\n      jump\t// in\n    tag_586:\n        /* \"#utility.yul\":5546:5665   */\n    tag_585:\n        /* \"#utility.yul\":5704:5705   */\n      0x00\n        /* \"#utility.yul\":5729:5782   */\n      tag_587\n        /* \"#utility.yul\":5774:5781   */\n      dup8\n        /* \"#utility.yul\":5765:5771   */\n      dup3\n        /* \"#utility.yul\":5754:5763   */\n      dup9\n        /* \"#utility.yul\":5750:5772   */\n      add\n        /* \"#utility.yul\":5729:5782   */\n      tag_429\n      jump\t// in\n    tag_587:\n        /* \"#utility.yul\":5719:5782   */\n      swap5\n      pop\n        /* \"#utility.yul\":5675:5792   */\n      pop\n        /* \"#utility.yul\":5859:5861   */\n      0x20\n        /* \"#utility.yul\":5848:5857   */\n      dup6\n        /* \"#utility.yul\":5844:5862   */\n      add\n        /* \"#utility.yul\":5831:5863   */\n      calldataload\n        /* \"#utility.yul\":5890:5908   */\n      0xffffffffffffffff\n        /* \"#utility.yul\":5882:5888   */\n      dup2\n        /* \"#utility.yul\":5879:5909   */\n      gt\n        /* \"#utility.yul\":5876:5993   */\n      iszero\n      tag_588\n      jumpi\n        /* \"#utility.yul\":5912:5991   */\n      tag_589\n      tag_426\n      jump\t// in\n    tag_589:\n        /* \"#utility.yul\":5876:5993   */\n    tag_588:\n        /* \"#utility.yul\":6025:6090   */\n      tag_590\n        /* \"#utility.yul\":6082:6089   */\n      dup8\n        /* \"#utility.yul\":6073:6079   */\n      dup3\n        /* \"#utility.yul\":6062:6071   */\n      dup9\n        /* \"#utility.yul\":6058:6080   */\n      add\n        /* \"#utility.yul\":6025:6090   */\n      tag_446\n      jump\t// in\n    tag_590:\n        /* \"#utility.yul\":6007:6090   */\n      swap4\n      pop\n      swap4\n      pop\n        /* \"#utility.yul\":5802:6100   */\n      pop\n        /* \"#utility.yul\":6139:6141   */\n      0x40\n        /* \"#utility.yul\":6165:6218   */\n      tag_591\n        /* \"#utility.yul\":6210:6217   */\n      dup8\n        /* \"#utility.yul\":6201:6207   */\n      dup3\n        /* \"#utility.yul\":6190:6199   */\n      dup9\n        /* \"#utility.yul\":6186:6208   */\n      add\n        /* \"#utility.yul\":6165:6218   */\n      tag_429\n      jump\t// in\n    tag_591:\n        /* \"#utility.yul\":6155:6218   */\n      swap2\n      pop\n        /* \"#utility.yul\":6110:6228   */\n      pop\n        /* \"#utility.yul\":5416:6235   */\n      swap3\n      swap6\n      swap2\n      swap5\n      pop\n      swap3\n      pop\n      jump\t// out\n        /* \"#utility.yul\":6241:6350   */\n    tag_447:\n        /* \"#utility.yul\":6322:6343   */\n      tag_593\n        /* \"#utility.yul\":6337:6342   */\n      dup2\n        /* \"#utility.yul\":6322:6343   */\n      tag_440\n      jump\t// in\n    tag_593:\n        /* \"#utility.yul\":6317:6320   */\n      dup3\n        /* \"#utility.yul\":6310:6344   */\n      mstore\n        /* \"#utility.yul\":6241:6350   */\n      pop\n      pop\n      jump\t// out\n        /* \"#utility.yul\":6356:6566   */\n    tag_83:\n        /* \"#utility.yul\":6443:6447   */\n      0x00\n        /* \"#utility.yul\":6481:6483   */\n      0x20\n        /* \"#utility.yul\":6470:6479   */\n      dup3\n        /* \"#utility.yul\":6466:6484   */\n      add\n        /* \"#utility.yul\":6458:6484   */\n      swap1\n      pop\n        /* \"#utility.yul\":6494:6559   */\n      tag_595\n        /* \"#utility.yul\":6556:6557   */\n      0x00\n        /* \"#utility.yul\":6545:6554   */\n      dup4\n        /* \"#utility.yul\":6541:6558   */\n      add\n        /* \"#utility.yul\":6532:6538   */\n      dup5\n        /* \"#utility.yul\":6494:6559   */\n      tag_447\n      jump\t// in\n    tag_595:\n        /* \"#utility.yul\":6356:6566   */\n      swap3\n      swap2\n      pop\n      pop\n      jump\t// out\n        /* \"#utility.yul\":6572:7191   */\n    tag_86:\n        /* \"#utility.yul\":6649:6655   */\n      0x00\n        /* \"#utility.yul\":6657:6663   */\n      dup1\n        /* \"#utility.yul\":6665:6671   */\n      0x00\n        /* \"#utility.yul\":6714:6716   */\n      0x60\n        /* \"#utility.yul\":6702:6711   */\n      dup5\n        /* \"#utility.yul\":6693:6700   */\n      dup7\n        /* \"#utility.yul\":6689:6712   */\n      sub\n        /* \"#utility.yul\":6685:6717   */\n      slt\n        /* \"#utility.yul\":6682:6801   */\n      iszero\n      tag_597\n      jumpi\n        /* \"#utility.yul\":6720:6799   */\n      tag_598\n      tag_425\n      jump\t// in\n    tag_598:\n        /* \"#utility.yul\":6682:6801   */\n    tag_597:\n        /* \"#utility.yul\":6840:6841   */\n      0x00\n        /* \"#utility.yul\":6865:6918   */\n      tag_599\n        /* \"#utility.yul\":6910:6917   */\n      dup7\n        /* \"#utility.yul\":6901:6907   */\n      dup3\n        /* \"#utility.yul\":6890:6899   */\n      dup8\n        /* \"#utility.yul\":6886:6908   */\n      add\n        /* \"#utility.yul\":6865:6918   */\n      tag_429\n      jump\t// in\n    tag_599:\n        /* \"#utility.yul\":6855:6918   */\n      swap4\n      pop\n        /* \"#utility.yul\":6811:6928   */\n      pop\n        /* \"#utility.yul\":6967:6969   */\n      0x20\n        /* \"#utility.yul\":6993:7046   */\n      tag_600\n        /* \"#utility.yul\":7038:7045   */\n      dup7\n        /* \"#utility.yul\":7029:7035   */\n      dup3\n        /* \"#utility.yul\":7018:7027   */\n      dup8\n        /* \"#utility.yul\":7014:7036   */\n      add\n        /* \"#utility.yul\":6993:7046   */\n      tag_429\n      jump\t// in\n    tag_600:\n        /* \"#utility.yul\":6983:7046   */\n      swap3\n      pop\n        /* \"#utility.yul\":6938:7056   */\n      pop\n        /* \"#utility.yul\":7095:7097   */\n      0x40\n        /* \"#utility.yul\":7121:7174   */\n      tag_601\n        /* \"#utility.yul\":7166:7173   */\n      dup7\n        /* \"#utility.yul\":7157:7163   */\n      dup3\n        /* \"#utility.yul\":7146:7155   */\n      dup8\n        /* \"#utility.yul\":7142:7164   */\n      add\n        /* \"#utility.yul\":7121:7174   */\n      tag_439\n      jump\t// in\n    tag_601:\n        /* \"#utility.yul\":7111:7174   */\n      swap2\n      pop\n        /* \"#utility.yul\":7066:7184   */\n      pop\n        /* \"#utility.yul\":6572:7191   */\n      swap3\n      pop\n      swap3\n      pop\n      swap3\n      jump\t// out\n        /* \"#utility.yul\":7197:7293   */\n    tag_448:\n        /* \"#utility.yul\":7234:7241   */\n      0x00\n        /* \"#utility.yul\":7263:7287   */\n      tag_603\n        /* \"#utility.yul\":7281:7286   */\n      dup3\n        /* \"#utility.yul\":7263:7287   */\n      tag_432\n      jump\t// in\n    tag_603:\n        /* \"#utility.yul\":7252:7287   */\n      swap1\n      pop\n        /* \"#utility.yul\":7197:7293   */\n      swap2\n      swap1\n      pop\n      jump\t// out\n        /* \"#utility.yul\":7299:7421   */\n    tag_449:\n        /* \"#utility.yul\":7372:7396   */\n      tag_605\n        /* \"#utility.yul\":7390:7395   */\n      dup2\n        /* \"#utility.yul\":7372:7396   */\n      tag_448\n      jump\t// in\n    tag_605:\n        /* \"#utility.yul\":7365:7370   */\n      dup2\n        /* \"#utility.yul\":7362:7397   */\n      eq\n        /* \"#utility.yul\":7352:7415   */\n      tag_606\n      jumpi\n        /* \"#utility.yul\":7411:7412   */\n      0x00\n        /* \"#utility.yul\":7408:7409   */\n      dup1\n        /* \"#utility.yul\":7401:7413   */\n      revert\n        /* \"#utility.yul\":7352:7415   */\n    tag_606:\n        /* \"#utility.yul\":7299:7421   */\n      pop\n      jump\t// out\n        /* \"#utility.yul\":7427:7566   */\n    tag_450:\n        /* \"#utility.yul\":7473:7478   */\n      0x00\n        /* \"#utility.yul\":7511:7517   */\n      dup2\n        /* \"#utility.yul\":7498:7518   */\n      calldataload\n        /* \"#utility.yul\":7489:7518   */\n      swap1\n      pop\n        /* \"#utility.yul\":7527:7560   */\n      tag_608\n        /* \"#utility.yul\":7554:7559   */\n      dup2\n        /* \"#utility.yul\":7527:7560   */\n      tag_449\n      jump\t// in\n    tag_608:\n        /* \"#utility.yul\":7427:7566   */\n      swap3\n      swap2\n      pop\n      pop\n      jump\t// out\n        /* \"#utility.yul\":7572:7901   */\n    tag_95:\n        /* \"#utility.yul\":7631:7637   */\n      0x00\n        /* \"#utility.yul\":7680:7682   */\n      0x20\n        /* \"#utility.yul\":7668:7677   */\n      dup3\n        /* \"#utility.yul\":7659:7666   */\n      dup5\n        /* \"#utility.yul\":7655:7678   */\n      sub\n        /* \"#utility.yul\":7651:7683   */\n      slt\n        /* \"#utility.yul\":7648:7767   */\n      iszero\n      tag_610\n      jumpi\n        /* \"#utility.yul\":7686:7765   */\n      tag_611\n      tag_425\n      jump\t// in\n    tag_611:\n        /* \"#utility.yul\":7648:7767   */\n    tag_610:\n        /* \"#utility.yul\":7806:7807   */\n      0x00\n        /* \"#utility.yul\":7831:7884   */\n      tag_612\n        /* \"#utility.yul\":7876:7883   */\n      dup5\n        /* \"#utility.yul\":7867:7873   */\n      dup3\n        /* \"#utility.yul\":7856:7865   */\n      dup6\n        /* \"#utility.yul\":7852:7874   */\n      add\n        /* \"#utility.yul\":7831:7884   */\n      tag_450\n      jump\t// in\n    tag_612:\n        /* \"#utility.yul\":7821:7884   */\n      swap2\n      pop\n        /* \"#utility.yul\":7777:7894   */\n      pop\n        /* \"#utility.yul\":7572:7901   */\n      swap3\n      swap2\n      pop\n      pop\n      jump\t// out\n        /* \"#utility.yul\":7907:8025   */\n    tag_451:\n        /* \"#utility.yul\":7994:8018   */\n      tag_614\n        /* \"#utility.yul\":8012:8017   */\n      dup2\n        /* \"#utility.yul\":7994:8018   */\n      tag_427\n      jump\t// in\n    tag_614:\n        /* \"#utility.yul\":7989:7992   */\n      dup3\n        /* \"#utility.yul\":7982:8019   */\n      mstore\n        /* \"#utility.yul\":7907:8025   */\n      pop\n      pop\n      jump\t// out\n        /* \"#utility.yul\":8031:8253   */\n    tag_98:\n        /* \"#utility.yul\":8124:8128   */\n      0x00\n        /* \"#utility.yul\":8162:8164   */\n      0x20\n        /* \"#utility.yul\":8151:8160   */\n      dup3\n        /* \"#utility.yul\":8147:8165   */\n      add\n        /* \"#utility.yul\":8139:8165   */\n      swap1\n      pop\n        /* \"#utility.yul\":8175:8246   */\n      tag_616\n        /* \"#utility.yul\":8243:8244   */\n      0x00\n        /* \"#utility.yul\":8232:8241   */\n      dup4\n        /* \"#utility.yul\":8228:8245   */\n      add\n        /* \"#utility.yul\":8219:8225   */\n      dup5\n        /* \"#utility.yul\":8175:8246   */\n      tag_451\n      jump\t// in\n    tag_616:\n        /* \"#utility.yul\":8031:8253   */\n      swap3\n      swap2\n      pop\n      pop\n      jump\t// out\n        /* \"#utility.yul\":8259:8733   */\n    tag_106:\n        /* \"#utility.yul\":8327:8333   */\n      0x00\n        /* \"#utility.yul\":8335:8341   */\n      dup1\n        /* \"#utility.yul\":8384:8386   */\n      0x40\n        /* \"#utility.yul\":8372:8381   */\n      dup4\n        /* \"#utility.yul\":8363:8370   */\n      dup6\n        /* \"#utility.yul\":8359:8382   */\n      sub\n        /* \"#utility.yul\":8355:8387   */\n      slt\n        /* \"#utility.yul\":8352:8471   */\n      iszero\n      tag_618\n      jumpi\n        /* \"#utility.yul\":8390:8469   */\n      tag_619\n      tag_425\n      jump\t// in\n    tag_619:\n        /* \"#utility.yul\":8352:8471   */\n    tag_618:\n        /* \"#utility.yul\":8510:8511   */\n      0x00\n        /* \"#utility.yul\":8535:8588   */\n      tag_620\n        /* \"#utility.yul\":8580:8587   */\n      dup6\n        /* \"#utility.yul\":8571:8577   */\n      dup3\n        /* \"#utility.yul\":8560:8569   */\n      dup7\n        /* \"#utility.yul\":8556:8578   */\n      add\n        /* \"#utility.yul\":8535:8588   */\n      tag_429\n      jump\t// in\n    tag_620:\n        /* \"#utility.yul\":8525:8588   */\n      swap3\n      pop\n        /* \"#utility.yul\":8481:8598   */\n      pop\n        /* \"#utility.yul\":8637:8639   */\n      0x20\n        /* \"#utility.yul\":8663:8716   */\n      tag_621\n        /* \"#utility.yul\":8708:8715   */\n      dup6\n        /* \"#utility.yul\":8699:8705   */\n      dup3\n        /* \"#utility.yul\":8688:8697   */\n      dup7\n        /* \"#utility.yul\":8684:8706   */\n      add\n        /* \"#utility.yul\":8663:8716   */\n      tag_439\n      jump\t// in\n    tag_621:\n        /* \"#utility.yul\":8653:8716   */\n      swap2\n      pop\n        /* \"#utility.yul\":8608:8726   */\n      pop\n        /* \"#utility.yul\":8259:8733   */\n      swap3\n      pop\n      swap3\n      swap1\n      pop\n      jump\t// out\n        /* \"#utility.yul\":8739:8838   */\n    tag_452:\n        /* \"#utility.yul\":8791:8797   */\n      0x00\n        /* \"#utility.yul\":8825:8830   */\n      dup2\n        /* \"#utility.yul\":8819:8831   */\n      mload\n        /* \"#utility.yul\":8809:8831   */\n      swap1\n      pop\n        /* \"#utility.yul\":8739:8838   */\n      swap2\n      swap1\n      pop\n      jump\t// out\n        /* \"#utility.yul\":8844:9013   */\n    tag_453:\n        /* \"#utility.yul\":8928:8939   */\n      0x00\n        /* \"#utility.yul\":8962:8968   */\n      dup3\n        /* \"#utility.yul\":8957:8960   */\n      dup3\n        /* \"#utility.yul\":8950:8969   */\n      mstore\n        /* \"#utility.yul\":9002:9006   */\n      0x20\n        /* \"#utility.yul\":8997:9000   */\n      dup3\n        /* \"#utility.yul\":8993:9007   */\n      add\n        /* \"#utility.yul\":8978:9007   */\n      swap1\n      pop\n        /* \"#utility.yul\":8844:9013   */\n      swap3\n      swap2\n      pop\n      pop\n      jump\t// out\n        /* \"#utility.yul\":9019:9158   */\n    tag_454:\n        /* \"#utility.yul\":9108:9114   */\n      dup3\n        /* \"#utility.yul\":9103:9106   */\n      dup2\n        /* \"#utility.yul\":9098:9101   */\n      dup4\n        /* \"#utility.yul\":9092:9115   */\n      mcopy\n        /* \"#utility.yul\":9149:9150   */\n      0x00\n        /* \"#utility.yul\":9140:9146   */\n      dup4\n        /* \"#utility.yul\":9135:9138   */\n      dup4\n        /* \"#utility.yul\":9131:9147   */\n      add\n        /* \"#utility.yul\":9124:9151   */\n      mstore\n        /* \"#utility.yul\":9019:9158   */\n      pop\n      pop\n      pop\n      jump\t// out\n        /* \"#utility.yul\":9164:9266   */\n    tag_455:\n        /* \"#utility.yul\":9205:9211   */\n      0x00\n        /* \"#utility.yul\":9256:9258   */\n      0x1f\n        /* \"#utility.yul\":9252:9259   */\n      not\n        /* \"#utility.yul\":9247:9249   */\n      0x1f\n        /* \"#utility.yul\":9240:9245   */\n      dup4\n        /* \"#utility.yul\":9236:9250   */\n      add\n        /* \"#utility.yul\":9232:9260   */\n      and\n        /* \"#utility.yul\":9222:9260   */\n      swap1\n      pop\n        /* \"#utility.yul\":9164:9266   */\n      swap2\n      swap1\n      pop\n      jump\t// out\n        /* \"#utility.yul\":9272:9649   */\n    tag_456:\n        /* \"#utility.yul\":9360:9363   */\n      0x00\n        /* \"#utility.yul\":9388:9427   */\n      tag_627\n        /* \"#utility.yul\":9421:9426   */\n      dup3\n        /* \"#utility.yul\":9388:9427   */\n      tag_452\n      jump\t// in\n    tag_627:\n        /* \"#utility.yul\":9443:9514   */\n      tag_628\n        /* \"#utility.yul\":9507:9513   */\n      dup2\n        /* \"#utility.yul\":9502:9505   */\n      dup6\n        /* \"#utility.yul\":9443:9514   */\n      tag_453\n      jump\t// in\n    tag_628:\n        /* \"#utility.yul\":9436:9514   */\n      swap4\n      pop\n        /* \"#utility.yul\":9523:9588   */\n      tag_629\n        /* \"#utility.yul\":9581:9587   */\n      dup2\n        /* \"#utility.yul\":9576:9579   */\n      dup6\n        /* \"#utility.yul\":9569:9573   */\n      0x20\n        /* \"#utility.yul\":9562:9567   */\n      dup7\n        /* \"#utility.yul\":9558:9574   */\n      add\n        /* \"#utility.yul\":9523:9588   */\n      tag_454\n      jump\t// in\n    tag_629:\n        /* \"#utility.yul\":9613:9642   */\n      tag_630\n        /* \"#utility.yul\":9635:9641   */\n      dup2\n        /* \"#utility.yul\":9613:9642   */\n      tag_455\n      jump\t// in\n    tag_630:\n        /* \"#utility.yul\":9608:9611   */\n      dup5\n        /* \"#utility.yul\":9604:9643   */\n      add\n        /* \"#utility.yul\":9597:9643   */\n      swap2\n      pop\n        /* \"#utility.yul\":9364:9649   */\n      pop\n        /* \"#utility.yul\":9272:9649   */\n      swap3\n      swap2\n      pop\n      pop\n      jump\t// out\n        /* \"#utility.yul\":9655:10398   */\n    tag_109:\n        /* \"#utility.yul\":9874:9878   */\n      0x00\n        /* \"#utility.yul\":9912:9915   */\n      0xa0\n        /* \"#utility.yul\":9901:9910   */\n      dup3\n        /* \"#utility.yul\":9897:9916   */\n      add\n        /* \"#utility.yul\":9889:9916   */\n      swap1\n      pop\n        /* \"#utility.yul\":9926:9997   */\n      tag_632\n        /* \"#utility.yul\":9994:9995   */\n      0x00\n        /* \"#utility.yul\":9983:9992   */\n      dup4\n        /* \"#utility.yul\":9979:9996   */\n      add\n        /* \"#utility.yul\":9970:9976   */\n      dup9\n        /* \"#utility.yul\":9926:9997   */\n      tag_451\n      jump\t// in\n    tag_632:\n        /* \"#utility.yul\":10007:10079   */\n      tag_633\n        /* \"#utility.yul\":10075:10077   */\n      0x20\n        /* \"#utility.yul\":10064:10073   */\n      dup4\n        /* \"#utility.yul\":10060:10078   */\n      add\n        /* \"#utility.yul\":10051:10057   */\n      dup8\n        /* \"#utility.yul\":10007:10079   */\n      tag_451\n      jump\t// in\n    tag_633:\n        /* \"#utility.yul\":10126:10135   */\n      dup2\n        /* \"#utility.yul\":10120:10124   */\n      dup2\n        /* \"#utility.yul\":10116:10136   */\n      sub\n        /* \"#utility.yul\":10111:10113   */\n      0x40\n        /* \"#utility.yul\":10100:10109   */\n      dup4\n        /* \"#utility.yul\":10096:10114   */\n      add\n        /* \"#utility.yul\":10089:10137   */\n      mstore\n        /* \"#utility.yul\":10154:10232   */\n      tag_634\n        /* \"#utility.yul\":10227:10231   */\n      dup2\n        /* \"#utility.yul\":10218:10224   */\n      dup7\n        /* \"#utility.yul\":10154:10232   */\n      tag_456\n      jump\t// in\n    tag_634:\n        /* \"#utility.yul\":10146:10232   */\n      swap1\n      pop\n        /* \"#utility.yul\":10242:10314   */\n      tag_635\n        /* \"#utility.yul\":10310:10312   */\n      0x60\n        /* \"#utility.yul\":10299:10308   */\n      dup4\n        /* \"#utility.yul\":10295:10313   */\n      add\n        /* \"#utility.yul\":10286:10292   */\n      dup6\n        /* \"#utility.yul\":10242:10314   */\n      tag_431\n      jump\t// in\n    tag_635:\n        /* \"#utility.yul\":10324:10391   */\n      tag_636\n        /* \"#utility.yul\":10386:10389   */\n      0x80\n        /* \"#utility.yul\":10375:10384   */\n      dup4\n        /* \"#utility.yul\":10371:10390   */\n      add\n        /* \"#utility.yul\":10362:10368   */\n      dup5\n        /* \"#utility.yul\":10324:10391   */\n      tag_447\n      jump\t// in\n    tag_636:\n        /* \"#utility.yul\":9655:10398   */\n      swap7\n      swap6\n      pop\n      pop\n      pop\n      pop\n      pop\n      pop\n      jump\t// out\n        /* \"#utility.yul\":10404:10490   */\n    tag_457:\n        /* \"#utility.yul\":10439:10446   */\n      0x00\n        /* \"#utility.yul\":10479:10483   */\n      0xff\n        /* \"#utility.yul\":10472:10477   */\n      dup3\n        /* \"#utility.yul\":10468:10484   */\n      and\n        /* \"#utility.yul\":10457:10484   */\n      swap1\n      pop\n        /* \"#utility.yul\":10404:10490   */\n      swap2\n      swap1\n      pop\n      jump\t// out\n        /* \"#utility.yul\":10496:10614   */\n    tag_458:\n        /* \"#utility.yul\":10567:10589   */\n      tag_639\n        /* \"#utility.yul\":10583:10588   */\n      dup2\n        /* \"#utility.yul\":10567:10589   */\n      tag_457\n      jump\t// in\n    tag_639:\n        /* \"#utility.yul\":10560:10565   */\n      dup2\n        /* \"#utility.yul\":10557:10590   */\n      eq\n        /* \"#utility.yul\":10547:10608   */\n      tag_640\n      jumpi\n        /* \"#utility.yul\":10604:10605   */\n      0x00\n        /* \"#utility.yul\":10601:10602   */\n      dup1\n        /* \"#utility.yul\":10594:10606   */\n      revert\n        /* \"#utility.yul\":10547:10608   */\n    tag_640:\n        /* \"#utility.yul\":10496:10614   */\n      pop\n      jump\t// out\n        /* \"#utility.yul\":10620:10755   */\n    tag_459:\n        /* \"#utility.yul\":10664:10669   */\n      0x00\n        /* \"#utility.yul\":10702:10708   */\n      dup2\n        /* \"#utility.yul\":10689:10709   */\n      calldataload\n        /* \"#utility.yul\":10680:10709   */\n      swap1\n      pop\n        /* \"#utility.yul\":10718:10749   */\n      tag_642\n        /* \"#utility.yul\":10743:10748   */\n      dup2\n        /* \"#utility.yul\":10718:10749   */\n      tag_458\n      jump\t// in\n    tag_642:\n        /* \"#utility.yul\":10620:10755   */\n      swap3\n      swap2\n      pop\n      pop\n      jump\t// out\n        /* \"#utility.yul\":10761:11086   */\n    tag_120:\n        /* \"#utility.yul\":10818:10824   */\n      0x00\n        /* \"#utility.yul\":10867:10869   */\n      0x20\n        /* \"#utility.yul\":10855:10864   */\n      dup3\n        /* \"#utility.yul\":10846:10853   */\n      dup5\n        /* \"#utility.yul\":10842:10865   */\n      sub\n        /* \"#utility.yul\":10838:10870   */\n      slt\n        /* \"#utility.yul\":10835:10954   */\n      iszero\n      tag_644\n      jumpi\n        /* \"#utility.yul\":10873:10952   */\n      tag_645\n      tag_425\n      jump\t// in\n    tag_645:\n        /* \"#utility.yul\":10835:10954   */\n    tag_644:\n        /* \"#utility.yul\":10993:10994   */\n      0x00\n        /* \"#utility.yul\":11018:11069   */\n      tag_646\n        /* \"#utility.yul\":11061:11068   */\n      dup5\n        /* \"#utility.yul\":11052:11058   */\n      dup3\n        /* \"#utility.yul\":11041:11050   */\n      dup6\n        /* \"#utility.yul\":11037:11059   */\n      add\n        /* \"#utility.yul\":11018:11069   */\n      tag_459\n      jump\t// in\n    tag_646:\n        /* \"#utility.yul\":11008:11069   */\n      swap2\n      pop\n        /* \"#utility.yul\":10964:11079   */\n      pop\n        /* \"#utility.yul\":10761:11086   */\n      swap3\n      swap2\n      pop\n      pop\n      jump\t// out\n        /* \"#utility.yul\":11092:12188   */\n    tag_127:\n        /* \"#utility.yul\":11403:11407   */\n      0x00\n        /* \"#utility.yul\":11441:11444   */\n      0x0120\n        /* \"#utility.yul\":11430:11439   */\n      dup3\n        /* \"#utility.yul\":11426:11445   */\n      add\n        /* \"#utility.yul\":11418:11445   */\n      swap1\n      pop\n        /* \"#utility.yul\":11455:11526   */\n      tag_648\n        /* \"#utility.yul\":11523:11524   */\n      0x00\n        /* \"#utility.yul\":11512:11521   */\n      dup4\n        /* \"#utility.yul\":11508:11525   */\n      add\n        /* \"#utility.yul\":11499:11505   */\n      dup13\n        /* \"#utility.yul\":11455:11526   */\n      tag_451\n      jump\t// in\n    tag_648:\n        /* \"#utility.yul\":11536:11608   */\n      tag_649\n        /* \"#utility.yul\":11604:11606   */\n      0x20\n        /* \"#utility.yul\":11593:11602   */\n      dup4\n        /* \"#utility.yul\":11589:11607   */\n      add\n        /* \"#utility.yul\":11580:11586   */\n      dup12\n        /* \"#utility.yul\":11536:11608   */\n      tag_431\n      jump\t// in\n    tag_649:\n        /* \"#utility.yul\":11618:11690   */\n      tag_650\n        /* \"#utility.yul\":11686:11688   */\n      0x40\n        /* \"#utility.yul\":11675:11684   */\n      dup4\n        /* \"#utility.yul\":11671:11689   */\n      add\n        /* \"#utility.yul\":11662:11668   */\n      dup11\n        /* \"#utility.yul\":11618:11690   */\n      tag_431\n      jump\t// in\n    tag_650:\n        /* \"#utility.yul\":11700:11772   */\n      tag_651\n        /* \"#utility.yul\":11768:11770   */\n      0x60\n        /* \"#utility.yul\":11757:11766   */\n      dup4\n        /* \"#utility.yul\":11753:11771   */\n      add\n        /* \"#utility.yul\":11744:11750   */\n      dup10\n        /* \"#utility.yul\":11700:11772   */\n      tag_431\n      jump\t// in\n    tag_651:\n        /* \"#utility.yul\":11782:11855   */\n      tag_652\n        /* \"#utility.yul\":11850:11853   */\n      0x80\n        /* \"#utility.yul\":11839:11848   */\n      dup4\n        /* \"#utility.yul\":11835:11854   */\n      add\n        /* \"#utility.yul\":11826:11832   */\n      dup9\n        /* \"#utility.yul\":11782:11855   */\n      tag_431\n      jump\t// in\n    tag_652:\n        /* \"#utility.yul\":11865:11938   */\n      tag_653\n        /* \"#utility.yul\":11933:11936   */\n      0xa0\n        /* \"#utility.yul\":11922:11931   */\n      dup4\n        /* \"#utility.yul\":11918:11937   */\n      add\n        /* \"#utility.yul\":11909:11915   */\n      dup8\n        /* \"#utility.yul\":11865:11938   */\n      tag_431\n      jump\t// in\n    tag_653:\n        /* \"#utility.yul\":11948:12021   */\n      tag_654\n        /* \"#utility.yul\":12016:12019   */\n      0xc0\n        /* \"#utility.yul\":12005:12014   */\n      dup4\n        /* \"#utility.yul\":12001:12020   */\n      add\n        /* \"#utility.yul\":11992:11998   */\n      dup7\n        /* \"#utility.yul\":11948:12021   */\n      tag_431\n      jump\t// in\n    tag_654:\n        /* \"#utility.yul\":12031:12098   */\n      tag_655\n        /* \"#utility.yul\":12093:12096   */\n      0xe0\n        /* \"#utility.yul\":12082:12091   */\n      dup4\n        /* \"#utility.yul\":12078:12097   */\n      add\n        /* \"#utility.yul\":12069:12075   */\n      dup6\n        /* \"#utility.yul\":12031:12098   */\n      tag_447\n      jump\t// in\n    tag_655:\n        /* \"#utility.yul\":12108:12181   */\n      tag_656\n        /* \"#utility.yul\":12176:12179   */\n      0x0100\n        /* \"#utility.yul\":12165:12174   */\n      dup4\n        /* \"#utility.yul\":12161:12180   */\n      add\n        /* \"#utility.yul\":12152:12158   */\n      dup5\n        /* \"#utility.yul\":12108:12181   */\n      tag_451\n      jump\t// in\n    tag_656:\n        /* \"#utility.yul\":11092:12188   */\n      swap11\n      swap10\n      pop\n      pop\n      pop\n      pop\n      pop\n      pop\n      pop\n      pop\n      pop\n      pop\n      jump\t// out\n        /* \"#utility.yul\":12194:12331   */\n    tag_460:\n        /* \"#utility.yul\":12284:12290   */\n      0x00\n        /* \"#utility.yul\":12318:12323   */\n      dup2\n        /* \"#utility.yul\":12312:12324   */\n      mload\n        /* \"#utility.yul\":12302:12324   */\n      swap1\n      pop\n        /* \"#utility.yul\":12194:12331   */\n      swap2\n      swap1\n      pop\n      jump\t// out\n        /* \"#utility.yul\":12337:12544   */\n    tag_461:\n        /* \"#utility.yul\":12459:12470   */\n      0x00\n        /* \"#utility.yul\":12493:12499   */\n      dup3\n        /* \"#utility.yul\":12488:12491   */\n      dup3\n        /* \"#utility.yul\":12481:12500   */\n      mstore\n        /* \"#utility.yul\":12533:12537   */\n      0x20\n        /* \"#utility.yul\":12528:12531   */\n      dup3\n        /* \"#utility.yul\":12524:12538   */\n      add\n        /* \"#utility.yul\":12509:12538   */\n      swap1\n      pop\n        /* \"#utility.yul\":12337:12544   */\n      swap3\n      swap2\n      pop\n      pop\n      jump\t// out\n        /* \"#utility.yul\":12550:12705   */\n    tag_462:\n        /* \"#utility.yul\":12640:12644   */\n      0x00\n        /* \"#utility.yul\":12663:12666   */\n      dup2\n        /* \"#utility.yul\":12655:12666   */\n      swap1\n      pop\n        /* \"#utility.yul\":12693:12697   */\n      0x20\n        /* \"#utility.yul\":12688:12691   */\n      dup3\n        /* \"#utility.yul\":12684:12698   */\n      add\n        /* \"#utility.yul\":12676:12698   */\n      swap1\n      pop\n        /* \"#utility.yul\":12550:12705   */\n      swap2\n      swap1\n      pop\n      jump\t// out\n        /* \"#utility.yul\":12711:12819   */\n    tag_463:\n        /* \"#utility.yul\":12788:12812   */\n      tag_661\n        /* \"#utility.yul\":12806:12811   */\n      dup2\n        /* \"#utility.yul\":12788:12812   */\n      tag_427\n      jump\t// in\n    tag_661:\n        /* \"#utility.yul\":12783:12786   */\n      dup3\n        /* \"#utility.yul\":12776:12813   */\n      mstore\n        /* \"#utility.yul\":12711:12819   */\n      pop\n      pop\n      jump\t// out\n        /* \"#utility.yul\":12825:12984   */\n    tag_464:\n        /* \"#utility.yul\":12899:12910   */\n      0x00\n        /* \"#utility.yul\":12933:12939   */\n      dup3\n        /* \"#utility.yul\":12928:12931   */\n      dup3\n        /* \"#utility.yul\":12921:12940   */\n      mstore\n        /* \"#utility.yul\":12973:12977   */\n      0x20\n        /* \"#utility.yul\":12968:12971   */\n      dup3\n        /* \"#utility.yul\":12964:12978   */\n      add\n        /* \"#utility.yul\":12949:12978   */\n      swap1\n      pop\n        /* \"#utility.yul\":12825:12984   */\n      swap3\n      swap2\n      pop\n      pop\n      jump\t// out\n        /* \"#utility.yul\":12990:13347   */\n    tag_465:\n        /* \"#utility.yul\":13068:13071   */\n      0x00\n        /* \"#utility.yul\":13096:13135   */\n      tag_664\n        /* \"#utility.yul\":13129:13134   */\n      dup3\n        /* \"#utility.yul\":13096:13135   */\n      tag_452\n      jump\t// in\n    tag_664:\n        /* \"#utility.yul\":13151:13212   */\n      tag_665\n        /* \"#utility.yul\":13205:13211   */\n      dup2\n        /* \"#utility.yul\":13200:13203   */\n      dup6\n        /* \"#utility.yul\":13151:13212   */\n      tag_464\n      jump\t// in\n    tag_665:\n        /* \"#utility.yul\":13144:13212   */\n      swap4\n      pop\n        /* \"#utility.yul\":13221:13286   */\n      tag_666\n        /* \"#utility.yul\":13279:13285   */\n      dup2\n        /* \"#utility.yul\":13274:13277   */\n      dup6\n        /* \"#utility.yul\":13267:13271   */\n      0x20\n        /* \"#utility.yul\":13260:13265   */\n      dup7\n        /* \"#utility.yul\":13256:13272   */\n      add\n        /* \"#utility.yul\":13221:13286   */\n      tag_454\n      jump\t// in\n    tag_666:\n        /* \"#utility.yul\":13311:13340   */\n      tag_667\n        /* \"#utility.yul\":13333:13339   */\n      dup2\n        /* \"#utility.yul\":13311:13340   */\n      tag_455\n      jump\t// in\n    tag_667:\n        /* \"#utility.yul\":13306:13309   */\n      dup5\n        /* \"#utility.yul\":13302:13341   */\n      add\n        /* \"#utility.yul\":13295:13341   */\n      swap2\n      pop\n        /* \"#utility.yul\":13072:13347   */\n      pop\n        /* \"#utility.yul\":12990:13347   */\n      swap3\n      swap2\n      pop\n      pop\n      jump\t// out\n        /* \"#utility.yul\":13353:13461   */\n    tag_466:\n        /* \"#utility.yul\":13430:13454   */\n      tag_669\n        /* \"#utility.yul\":13448:13453   */\n      dup2\n        /* \"#utility.yul\":13430:13454   */\n      tag_430\n      jump\t// in\n    tag_669:\n        /* \"#utility.yul\":13425:13428   */\n      dup3\n        /* \"#utility.yul\":13418:13455   */\n      mstore\n        /* \"#utility.yul\":13353:13461   */\n      pop\n      pop\n      jump\t// out\n        /* \"#utility.yul\":13467:13566   */\n    tag_467:\n        /* \"#utility.yul\":13538:13559   */\n      tag_671\n        /* \"#utility.yul\":13553:13558   */\n      dup2\n        /* \"#utility.yul\":13538:13559   */\n      tag_440\n      jump\t// in\n    tag_671:\n        /* \"#utility.yul\":13533:13536   */\n      dup3\n        /* \"#utility.yul\":13526:13560   */\n      mstore\n        /* \"#utility.yul\":13467:13566   */\n      pop\n      pop\n      jump\t// out\n        /* \"#utility.yul\":13636:14767   */\n    tag_468:\n        /* \"#utility.yul\":13741:13744   */\n      0x00\n        /* \"#utility.yul\":13777:13781   */\n      0xa0\n        /* \"#utility.yul\":13772:13775   */\n      dup4\n        /* \"#utility.yul\":13768:13782   */\n      add\n        /* \"#utility.yul\":13870:13874   */\n      0x00\n        /* \"#utility.yul\":13863:13868   */\n      dup4\n        /* \"#utility.yul\":13859:13875   */\n      add\n        /* \"#utility.yul\":13853:13876   */\n      mload\n        /* \"#utility.yul\":13889:13952   */\n      tag_673\n        /* \"#utility.yul\":13946:13950   */\n      0x00\n        /* \"#utility.yul\":13941:13944   */\n      dup7\n        /* \"#utility.yul\":13937:13951   */\n      add\n        /* \"#utility.yul\":13923:13935   */\n      dup3\n        /* \"#utility.yul\":13889:13952   */\n      tag_463\n      jump\t// in\n    tag_673:\n        /* \"#utility.yul\":13792:13962   */\n      pop\n        /* \"#utility.yul\":14050:14054   */\n      0x20\n        /* \"#utility.yul\":14043:14048   */\n      dup4\n        /* \"#utility.yul\":14039:14055   */\n      add\n        /* \"#utility.yul\":14033:14056   */\n      mload\n        /* \"#utility.yul\":14069:14132   */\n      tag_674\n        /* \"#utility.yul\":14126:14130   */\n      0x20\n        /* \"#utility.yul\":14121:14124   */\n      dup7\n        /* \"#utility.yul\":14117:14131   */\n      add\n        /* \"#utility.yul\":14103:14115   */\n      dup3\n        /* \"#utility.yul\":14069:14132   */\n      tag_463\n      jump\t// in\n    tag_674:\n        /* \"#utility.yul\":13972:14142   */\n      pop\n        /* \"#utility.yul\":14226:14230   */\n      0x40\n        /* \"#utility.yul\":14219:14224   */\n      dup4\n        /* \"#utility.yul\":14215:14231   */\n      add\n        /* \"#utility.yul\":14209:14232   */\n      mload\n        /* \"#utility.yul\":14279:14282   */\n      dup5\n        /* \"#utility.yul\":14273:14277   */\n      dup3\n        /* \"#utility.yul\":14269:14283   */\n      sub\n        /* \"#utility.yul\":14262:14266   */\n      0x40\n        /* \"#utility.yul\":14257:14260   */\n      dup7\n        /* \"#utility.yul\":14253:14267   */\n      add\n        /* \"#utility.yul\":14246:14284   */\n      mstore\n        /* \"#utility.yul\":14305:14378   */\n      tag_675\n        /* \"#utility.yul\":14373:14377   */\n      dup3\n        /* \"#utility.yul\":14359:14371   */\n      dup3\n        /* \"#utility.yul\":14305:14378   */\n      tag_465\n      jump\t// in\n    tag_675:\n        /* \"#utility.yul\":14297:14378   */\n      swap2\n      pop\n        /* \"#utility.yul\":14152:14389   */\n      pop\n        /* \"#utility.yul\":14476:14480   */\n      0x60\n        /* \"#utility.yul\":14469:14474   */\n      dup4\n        /* \"#utility.yul\":14465:14481   */\n      add\n        /* \"#utility.yul\":14459:14482   */\n      mload\n        /* \"#utility.yul\":14495:14558   */\n      tag_676\n        /* \"#utility.yul\":14552:14556   */\n      0x60\n        /* \"#utility.yul\":14547:14550   */\n      dup7\n        /* \"#utility.yul\":14543:14557   */\n      add\n        /* \"#utility.yul\":14529:14541   */\n      dup3\n        /* \"#utility.yul\":14495:14558   */\n      tag_466\n      jump\t// in\n    tag_676:\n        /* \"#utility.yul\":14399:14568   */\n      pop\n        /* \"#utility.yul\":14654:14658   */\n      0x80\n        /* \"#utility.yul\":14647:14652   */\n      dup4\n        /* \"#utility.yul\":14643:14659   */\n      add\n        /* \"#utility.yul\":14637:14660   */\n      mload\n        /* \"#utility.yul\":14673:14730   */\n      tag_677\n        /* \"#utility.yul\":14724:14728   */\n      0x80\n        /* \"#utility.yul\":14719:14722   */\n      dup7\n        /* \"#utility.yul\":14715:14729   */\n      add\n        /* \"#utility.yul\":14701:14713   */\n      dup3\n        /* \"#utility.yul\":14673:14730   */\n      tag_467\n      jump\t// in\n    tag_677:\n        /* \"#utility.yul\":14578:14740   */\n      pop\n        /* \"#utility.yul\":14757:14761   */\n      dup1\n        /* \"#utility.yul\":14750:14761   */\n      swap2\n      pop\n        /* \"#utility.yul\":13746:14767   */\n      pop\n        /* \"#utility.yul\":13636:14767   */\n      swap3\n      swap2\n      pop\n      pop\n      jump\t// out\n        /* \"#utility.yul\":14773:15021   */\n    tag_469:\n        /* \"#utility.yul\":14888:14898   */\n      0x00\n        /* \"#utility.yul\":14923:15015   */\n      tag_679\n        /* \"#utility.yul\":15011:15014   */\n      dup4\n        /* \"#utility.yul\":15003:15009   */\n      dup4\n        /* \"#utility.yul\":14923:15015   */\n      tag_468\n      jump\t// in\n    tag_679:\n        /* \"#utility.yul\":14909:15015   */\n      swap1\n      pop\n        /* \"#utility.yul\":14773:15021   */\n      swap3\n      swap2\n      pop\n      pop\n      jump\t// out\n        /* \"#utility.yul\":15027:15163   */\n    tag_470:\n        /* \"#utility.yul\":15120:15124   */\n      0x00\n        /* \"#utility.yul\":15152:15156   */\n      0x20\n        /* \"#utility.yul\":15147:15150   */\n      dup3\n        /* \"#utility.yul\":15143:15157   */\n      add\n        /* \"#utility.yul\":15135:15157   */\n      swap1\n      pop\n        /* \"#utility.yul\":15027:15163   */\n      swap2\n      swap1\n      pop\n      jump\t// out\n        /* \"#utility.yul\":15237:16332   */\n    tag_471:\n        /* \"#utility.yul\":15402:15405   */\n      0x00\n        /* \"#utility.yul\":15431:15508   */\n      tag_682\n        /* \"#utility.yul\":15502:15507   */\n      dup3\n        /* \"#utility.yul\":15431:15508   */\n      tag_460\n      jump\t// in\n    tag_682:\n        /* \"#utility.yul\":15524:15633   */\n      tag_683\n        /* \"#utility.yul\":15626:15632   */\n      dup2\n        /* \"#utility.yul\":15621:15624   */\n      dup6\n        /* \"#utility.yul\":15524:15633   */\n      tag_461\n      jump\t// in\n    tag_683:\n        /* \"#utility.yul\":15517:15633   */\n      swap4\n      pop\n        /* \"#utility.yul\":15659:15662   */\n      dup4\n        /* \"#utility.yul\":15704:15708   */\n      0x20\n        /* \"#utility.yul\":15696:15702   */\n      dup3\n        /* \"#utility.yul\":15692:15709   */\n      mul\n        /* \"#utility.yul\":15687:15690   */\n      dup6\n        /* \"#utility.yul\":15683:15710   */\n      add\n        /* \"#utility.yul\":15734:15813   */\n      tag_684\n        /* \"#utility.yul\":15807:15812   */\n      dup6\n        /* \"#utility.yul\":15734:15813   */\n      tag_462\n      jump\t// in\n    tag_684:\n        /* \"#utility.yul\":15836:15843   */\n      dup1\n        /* \"#utility.yul\":15867:15868   */\n      0x00\n        /* \"#utility.yul\":15852:16287   */\n    tag_685:\n        /* \"#utility.yul\":15877:15883   */\n      dup6\n        /* \"#utility.yul\":15874:15875   */\n      dup2\n        /* \"#utility.yul\":15871:15884   */\n      lt\n        /* \"#utility.yul\":15852:16287   */\n      iszero\n      tag_687\n      jumpi\n        /* \"#utility.yul\":15948:15957   */\n      dup5\n        /* \"#utility.yul\":15942:15946   */\n      dup5\n        /* \"#utility.yul\":15938:15958   */\n      sub\n        /* \"#utility.yul\":15933:15936   */\n      dup10\n        /* \"#utility.yul\":15926:15959   */\n      mstore\n        /* \"#utility.yul\":15999:16005   */\n      dup2\n        /* \"#utility.yul\":15993:16006   */\n      mload\n        /* \"#utility.yul\":16027:16137   */\n      tag_688\n        /* \"#utility.yul\":16132:16136   */\n      dup6\n        /* \"#utility.yul\":16117:16130   */\n      dup3\n        /* \"#utility.yul\":16027:16137   */\n      tag_469\n      jump\t// in\n    tag_688:\n        /* \"#utility.yul\":16019:16137   */\n      swap5\n      pop\n        /* \"#utility.yul\":16160:16243   */\n      tag_689\n        /* \"#utility.yul\":16236:16242   */\n      dup4\n        /* \"#utility.yul\":16160:16243   */\n      tag_470\n      jump\t// in\n    tag_689:\n        /* \"#utility.yul\":16150:16243   */\n      swap3\n      pop\n        /* \"#utility.yul\":16272:16276   */\n      0x20\n        /* \"#utility.yul\":16267:16270   */\n      dup11\n        /* \"#utility.yul\":16263:16277   */\n      add\n        /* \"#utility.yul\":16256:16277   */\n      swap10\n      pop\n        /* \"#utility.yul\":15912:16287   */\n      pop\n        /* \"#utility.yul\":15899:15900   */\n      0x01\n        /* \"#utility.yul\":15896:15897   */\n      dup2\n        /* \"#utility.yul\":15892:15901   */\n      add\n        /* \"#utility.yul\":15887:15901   */\n      swap1\n      pop\n        /* \"#utility.yul\":15852:16287   */\n      jump(tag_685)\n    tag_687:\n        /* \"#utility.yul\":15856:15870   */\n      pop\n        /* \"#utility.yul\":16303:16307   */\n      dup3\n        /* \"#utility.yul\":16296:16307   */\n      swap8\n      pop\n        /* \"#utility.yul\":16323:16326   */\n      dup8\n        /* \"#utility.yul\":16316:16326   */\n      swap6\n      pop\n        /* \"#utility.yul\":15407:16332   */\n      pop\n      pop\n      pop\n      pop\n      pop\n        /* \"#utility.yul\":15237:16332   */\n      swap3\n      swap2\n      pop\n      pop\n      jump\t// out\n        /* \"#utility.yul\":16338:16803   */\n    tag_133:\n        /* \"#utility.yul\":16527:16531   */\n      0x00\n        /* \"#utility.yul\":16565:16567   */\n      0x20\n        /* \"#utility.yul\":16554:16563   */\n      dup3\n        /* \"#utility.yul\":16550:16568   */\n      add\n        /* \"#utility.yul\":16542:16568   */\n      swap1\n      pop\n        /* \"#utility.yul\":16614:16623   */\n      dup2\n        /* \"#utility.yul\":16608:16612   */\n      dup2\n        /* \"#utility.yul\":16604:16624   */\n      sub\n        /* \"#utility.yul\":16600:16601   */\n      0x00\n        /* \"#utility.yul\":16589:16598   */\n      dup4\n        /* \"#utility.yul\":16585:16602   */\n      add\n        /* \"#utility.yul\":16578:16625   */\n      mstore\n        /* \"#utility.yul\":16642:16796   */\n      tag_691\n        /* \"#utility.yul\":16791:16795   */\n      dup2\n        /* \"#utility.yul\":16782:16788   */\n      dup5\n        /* \"#utility.yul\":16642:16796   */\n      tag_471\n      jump\t// in\n    tag_691:\n        /* \"#utility.yul\":16634:16796   */\n      swap1\n      pop\n        /* \"#utility.yul\":16338:16803   */\n      swap3\n      swap2\n      pop\n      pop\n      jump\t// out\n        /* \"#utility.yul\":16809:16927   */\n    tag_472:\n        /* \"#utility.yul\":16896:16920   */\n      tag_693\n        /* \"#utility.yul\":16914:16919   */\n      dup2\n        /* \"#utility.yul\":16896:16920   */\n      tag_448\n      jump\t// in\n    tag_693:\n        /* \"#utility.yul\":16891:16894   */\n      dup3\n        /* \"#utility.yul\":16884:16921   */\n      mstore\n        /* \"#utility.yul\":16809:16927   */\n      pop\n      pop\n      jump\t// out\n        /* \"#utility.yul\":16933:17585   */\n    tag_142:\n        /* \"#utility.yul\":17132:17136   */\n      0x00\n        /* \"#utility.yul\":17170:17173   */\n      0xa0\n        /* \"#utility.yul\":17159:17168   */\n      dup3\n        /* \"#utility.yul\":17155:17174   */\n      add\n        /* \"#utility.yul\":17147:17174   */\n      swap1\n      pop\n        /* \"#utility.yul\":17184:17255   */\n      tag_695\n        /* \"#utility.yul\":17252:17253   */\n      0x00\n        /* \"#utility.yul\":17241:17250   */\n      dup4\n        /* \"#utility.yul\":17237:17254   */\n      add\n        /* \"#utility.yul\":17228:17234   */\n      dup9\n        /* \"#utility.yul\":17184:17255   */\n      tag_472\n      jump\t// in\n    tag_695:\n        /* \"#utility.yul\":17265:17331   */\n      tag_696\n        /* \"#utility.yul\":17327:17329   */\n      0x20\n        /* \"#utility.yul\":17316:17325   */\n      dup4\n        /* \"#utility.yul\":17312:17330   */\n      add\n        /* \"#utility.yul\":17303:17309   */\n      dup8\n        /* \"#utility.yul\":17265:17331   */\n      tag_447\n      jump\t// in\n    tag_696:\n        /* \"#utility.yul\":17341:17413   */\n      tag_697\n        /* \"#utility.yul\":17409:17411   */\n      0x40\n        /* \"#utility.yul\":17398:17407   */\n      dup4\n        /* \"#utility.yul\":17394:17412   */\n      add\n        /* \"#utility.yul\":17385:17391   */\n      dup7\n        /* \"#utility.yul\":17341:17413   */\n      tag_431\n      jump\t// in\n    tag_697:\n        /* \"#utility.yul\":17423:17495   */\n      tag_698\n        /* \"#utility.yul\":17491:17493   */\n      0x60\n        /* \"#utility.yul\":17480:17489   */\n      dup4\n        /* \"#utility.yul\":17476:17494   */\n      add\n        /* \"#utility.yul\":17467:17473   */\n      dup6\n        /* \"#utility.yul\":17423:17495   */\n      tag_431\n      jump\t// in\n    tag_698:\n        /* \"#utility.yul\":17505:17578   */\n      tag_699\n        /* \"#utility.yul\":17573:17576   */\n      0x80\n        /* \"#utility.yul\":17562:17571   */\n      dup4\n        /* \"#utility.yul\":17558:17577   */\n      add\n        /* \"#utility.yul\":17549:17555   */\n      dup5\n        /* \"#utility.yul\":17505:17578   */\n      tag_431\n      jump\t// in\n    tag_699:\n        /* \"#utility.yul\":16933:17585   */\n      swap7\n      swap6\n      pop\n      pop\n      pop\n      pop\n      pop\n      pop\n      jump\t// out\n        /* \"#utility.yul\":17591:17813   */\n    tag_147:\n        /* \"#utility.yul\":17684:17688   */\n      0x00\n        /* \"#utility.yul\":17722:17724   */\n      0x20\n        /* \"#utility.yul\":17711:17720   */\n      dup3\n        /* \"#utility.yul\":17707:17725   */\n      add\n        /* \"#utility.yul\":17699:17725   */\n      swap1\n      pop\n        /* \"#utility.yul\":17735:17806   */\n      tag_701\n        /* \"#utility.yul\":17803:17804   */\n      0x00\n        /* \"#utility.yul\":17792:17801   */\n      dup4\n        /* \"#utility.yul\":17788:17805   */\n      add\n        /* \"#utility.yul\":17779:17785   */\n      dup5\n        /* \"#utility.yul\":17735:17806   */\n      tag_472\n      jump\t// in\n    tag_701:\n        /* \"#utility.yul\":17591:17813   */\n      swap3\n      swap2\n      pop\n      pop\n      jump\t// out\n        /* \"#utility.yul\":17819:18293   */\n    tag_155:\n        /* \"#utility.yul\":17887:17893   */\n      0x00\n        /* \"#utility.yul\":17895:17901   */\n      dup1\n        /* \"#utility.yul\":17944:17946   */\n      0x40\n        /* \"#utility.yul\":17932:17941   */\n      dup4\n        /* \"#utility.yul\":17923:17930   */\n      dup6\n        /* \"#utility.yul\":17919:17942   */\n      sub\n        /* \"#utility.yul\":17915:17947   */\n      slt\n        /* \"#utility.yul\":17912:18031   */\n      iszero\n      tag_703\n      jumpi\n        /* \"#utility.yul\":17950:18029   */\n      tag_704\n      tag_425\n      jump\t// in\n    tag_704:\n        /* \"#utility.yul\":17912:18031   */\n    tag_703:\n        /* \"#utility.yul\":18070:18071   */\n      0x00\n        /* \"#utility.yul\":18095:18148   */\n      tag_705\n        /* \"#utility.yul\":18140:18147   */\n      dup6\n        /* \"#utility.yul\":18131:18137   */\n      dup3\n        /* \"#utility.yul\":18120:18129   */\n      dup7\n        /* \"#utility.yul\":18116:18138   */\n      add\n        /* \"#utility.yul\":18095:18148   */\n      tag_429\n      jump\t// in\n    tag_705:\n        /* \"#utility.yul\":18085:18148   */\n      swap3\n      pop\n        /* \"#utility.yul\":18041:18158   */\n      pop\n        /* \"#utility.yul\":18197:18199   */\n      0x20\n        /* \"#utility.yul\":18223:18276   */\n      tag_706\n        /* \"#utility.yul\":18268:18275   */\n      dup6\n        /* \"#utility.yul\":18259:18265   */\n      dup3\n        /* \"#utility.yul\":18248:18257   */\n      dup7\n        /* \"#utility.yul\":18244:18266   */\n      add\n        /* \"#utility.yul\":18223:18276   */\n      tag_429\n      jump\t// in\n    tag_706:\n        /* \"#utility.yul\":18213:18276   */\n      swap2\n      pop\n        /* \"#utility.yul\":18168:18286   */\n      pop\n        /* \"#utility.yul\":17819:18293   */\n      swap3\n      pop\n      swap3\n      swap1\n      pop\n      jump\t// out\n        /* \"#utility.yul\":18299:18912   */\n    tag_191:\n        /* \"#utility.yul\":18373:18379   */\n      0x00\n        /* \"#utility.yul\":18381:18387   */\n      dup1\n        /* \"#utility.yul\":18389:18395   */\n      0x00\n        /* \"#utility.yul\":18438:18440   */\n      0x60\n        /* \"#utility.yul\":18426:18435   */\n      dup5\n        /* \"#utility.yul\":18417:18424   */\n      dup7\n        /* \"#utility.yul\":18413:18436   */\n      sub\n        /* \"#utility.yul\":18409:18441   */\n      slt\n        /* \"#utility.yul\":18406:18525   */\n      iszero\n      tag_708\n      jumpi\n        /* \"#utility.yul\":18444:18523   */\n      tag_709\n      tag_425\n      jump\t// in\n    tag_709:\n        /* \"#utility.yul\":18406:18525   */\n    tag_708:\n        /* \"#utility.yul\":18564:18565   */\n      0x00\n        /* \"#utility.yul\":18589:18642   */\n      tag_710\n        /* \"#utility.yul\":18634:18641   */\n      dup7\n        /* \"#utility.yul\":18625:18631   */\n      dup3\n        /* \"#utility.yul\":18614:18623   */\n      dup8\n        /* \"#utility.yul\":18610:18632   */\n      add\n        /* \"#utility.yul\":18589:18642   */\n      tag_429\n      jump\t// in\n    tag_710:\n        /* \"#utility.yul\":18579:18642   */\n      swap4\n      pop\n        /* \"#utility.yul\":18535:18652   */\n      pop\n        /* \"#utility.yul\":18691:18693   */\n      0x20\n        /* \"#utility.yul\":18717:18767   */\n      tag_711\n        /* \"#utility.yul\":18759:18766   */\n      dup7\n        /* \"#utility.yul\":18750:18756   */\n      dup3\n        /* \"#utility.yul\":18739:18748   */\n      dup8\n        /* \"#utility.yul\":18735:18757   */\n      add\n        /* \"#utility.yul\":18717:18767   */\n      tag_442\n      jump\t// in\n    tag_711:\n        /* \"#utility.yul\":18707:18767   */\n      swap3\n      pop\n        /* \"#utility.yul\":18662:18777   */\n      pop\n        /* \"#utility.yul\":18816:18818   */\n      0x40\n        /* \"#utility.yul\":18842:18895   */\n      tag_712\n        /* \"#utility.yul\":18887:18894   */\n      dup7\n        /* \"#utility.yul\":18878:18884   */\n      dup3\n        /* \"#utility.yul\":18867:18876   */\n      dup8\n        /* \"#utility.yul\":18863:18885   */\n      add\n        /* \"#utility.yul\":18842:18895   */\n      tag_429\n      jump\t// in\n    tag_712:\n        /* \"#utility.yul\":18832:18895   */\n      swap2\n      pop\n        /* \"#utility.yul\":18787:18905   */\n      pop\n        /* \"#utility.yul\":18299:18912   */\n      swap3\n      pop\n      swap3\n      pop\n      swap3\n      jump\t// out\n        /* \"#utility.yul\":18918:19083   */\n    tag_473:\n        /* \"#utility.yul\":19058:19075   */\n      0x50656572206e6f74206163746976650000000000000000000000000000000000\n        /* \"#utility.yul\":19054:19055   */\n      0x00\n        /* \"#utility.yul\":19046:19052   */\n      dup3\n        /* \"#utility.yul\":19042:19056   */\n      add\n        /* \"#utility.yul\":19035:19076   */\n      mstore\n        /* \"#utility.yul\":18918:19083   */\n      pop\n      jump\t// out\n        /* \"#utility.yul\":19089:19455   */\n    tag_474:\n        /* \"#utility.yul\":19231:19234   */\n      0x00\n        /* \"#utility.yul\":19252:19319   */\n      tag_715\n        /* \"#utility.yul\":19316:19318   */\n      0x0f\n        /* \"#utility.yul\":19311:19314   */\n      dup4\n        /* \"#utility.yul\":19252:19319   */\n      tag_453\n      jump\t// in\n    tag_715:\n        /* \"#utility.yul\":19245:19319   */\n      swap2\n      pop\n        /* \"#utility.yul\":19328:19421   */\n      tag_716\n        /* \"#utility.yul\":19417:19420   */\n      dup3\n        /* \"#utility.yul\":19328:19421   */\n      tag_473\n      jump\t// in\n    tag_716:\n        /* \"#utility.yul\":19446:19448   */\n      0x20\n        /* \"#utility.yul\":19441:19444   */\n      dup3\n        /* \"#utility.yul\":19437:19449   */\n      add\n        /* \"#utility.yul\":19430:19449   */\n      swap1\n      pop\n        /* \"#utility.yul\":19089:19455   */\n      swap2\n      swap1\n      pop\n      jump\t// out\n        /* \"#utility.yul\":19461:19880   */\n    tag_221:\n        /* \"#utility.yul\":19627:19631   */\n      0x00\n        /* \"#utility.yul\":19665:19667   */\n      0x20\n        /* \"#utility.yul\":19654:19663   */\n      dup3\n        /* \"#utility.yul\":19650:19668   */\n      add\n        /* \"#utility.yul\":19642:19668   */\n      swap1\n      pop\n        /* \"#utility.yul\":19714:19723   */\n      dup2\n        /* \"#utility.yul\":19708:19712   */\n      dup2\n        /* \"#utility.yul\":19704:19724   */\n      sub\n        /* \"#utility.yul\":19700:19701   */\n      0x00\n        /* \"#utility.yul\":19689:19698   */\n      dup4\n        /* \"#utility.yul\":19685:19702   */\n      add\n        /* \"#utility.yul\":19678:19725   */\n      mstore\n        /* \"#utility.yul\":19742:19873   */\n      tag_718\n        /* \"#utility.yul\":19868:19872   */\n      dup2\n        /* \"#utility.yul\":19742:19873   */\n      tag_474\n      jump\t// in\n    tag_718:\n        /* \"#utility.yul\":19734:19873   */\n      swap1\n      pop\n        /* \"#utility.yul\":19461:19880   */\n      swap2\n      swap1\n      pop\n      jump\t// out\n        /* \"#utility.yul\":19886:20057   */\n    tag_475:\n        /* \"#utility.yul\":20026:20049   */\n      0x496e76616c6964206368616e676520616d6f756e740000000000000000000000\n        /* \"#utility.yul\":20022:20023   */\n      0x00\n        /* \"#utility.yul\":20014:20020   */\n      dup3\n        /* \"#utility.yul\":20010:20024   */\n      add\n        /* \"#utility.yul\":20003:20050   */\n      mstore\n        /* \"#utility.yul\":19886:20057   */\n      pop\n      jump\t// out\n        /* \"#utility.yul\":20063:20429   */\n    tag_476:\n        /* \"#utility.yul\":20205:20208   */\n      0x00\n        /* \"#utility.yul\":20226:20293   */\n      tag_721\n        /* \"#utility.yul\":20290:20292   */\n      0x15\n        /* \"#utility.yul\":20285:20288   */\n      dup4\n        /* \"#utility.yul\":20226:20293   */\n      tag_453\n      jump\t// in\n    tag_721:\n        /* \"#utility.yul\":20219:20293   */\n      swap2\n      pop\n        /* \"#utility.yul\":20302:20395   */\n      tag_722\n        /* \"#utility.yul\":20391:20394   */\n      dup3\n        /* \"#utility.yul\":20302:20395   */\n      tag_475\n      jump\t// in\n    tag_722:\n        /* \"#utility.yul\":20420:20422   */\n      0x20\n        /* \"#utility.yul\":20415:20418   */\n      dup3\n        /* \"#utility.yul\":20411:20423   */\n      add\n        /* \"#utility.yul\":20404:20423   */\n      swap1\n      pop\n        /* \"#utility.yul\":20063:20429   */\n      swap2\n      swap1\n      pop\n      jump\t// out\n        /* \"#utility.yul\":20435:20854   */\n    tag_224:\n        /* \"#utility.yul\":20601:20605   */\n      0x00\n        /* \"#utility.yul\":20639:20641   */\n      0x20\n        /* \"#utility.yul\":20628:20637   */\n      dup3\n        /* \"#utility.yul\":20624:20642   */\n      add\n        /* \"#utility.yul\":20616:20642   */\n      swap1\n      pop\n        /* \"#utility.yul\":20688:20697   */\n      dup2\n        /* \"#utility.yul\":20682:20686   */\n      dup2\n        /* \"#utility.yul\":20678:20698   */\n      sub\n        /* \"#utility.yul\":20674:20675   */\n      0x00\n        /* \"#utility.yul\":20663:20672   */\n      dup4\n        /* \"#utility.yul\":20659:20676   */\n      add\n        /* \"#utility.yul\":20652:20699   */\n      mstore\n        /* \"#utility.yul\":20716:20847   */\n      tag_724\n        /* \"#utility.yul\":20842:20846   */\n      dup2\n        /* \"#utility.yul\":20716:20847   */\n      tag_476\n      jump\t// in\n    tag_724:\n        /* \"#utility.yul\":20708:20847   */\n      swap1\n      pop\n        /* \"#utility.yul\":20435:20854   */\n      swap2\n      swap1\n      pop\n      jump\t// out\n        /* \"#utility.yul\":20860:21192   */\n    tag_226:\n        /* \"#utility.yul\":20981:20985   */\n      0x00\n        /* \"#utility.yul\":21019:21021   */\n      0x40\n        /* \"#utility.yul\":21008:21017   */\n      dup3\n        /* \"#utility.yul\":21004:21022   */\n      add\n        /* \"#utility.yul\":20996:21022   */\n      swap1\n      pop\n        /* \"#utility.yul\":21032:21103   */\n      tag_726\n        /* \"#utility.yul\":21100:21101   */\n      0x00\n        /* \"#utility.yul\":21089:21098   */\n      dup4\n        /* \"#utility.yul\":21085:21102   */\n      add\n        /* \"#utility.yul\":21076:21082   */\n      dup6\n        /* \"#utility.yul\":21032:21103   */\n      tag_451\n      jump\t// in\n    tag_726:\n        /* \"#utility.yul\":21113:21185   */\n      tag_727\n        /* \"#utility.yul\":21181:21183   */\n      0x20\n        /* \"#utility.yul\":21170:21179   */\n      dup4\n        /* \"#utility.yul\":21166:21184   */\n      add\n        /* \"#utility.yul\":21157:21163   */\n      dup5\n        /* \"#utility.yul\":21113:21185   */\n      tag_451\n      jump\t// in\n    tag_727:\n        /* \"#utility.yul\":20860:21192   */\n      swap4\n      swap3\n      pop\n      pop\n      pop\n      jump\t// out\n        /* \"#utility.yul\":21198:21335   */\n    tag_477:\n        /* \"#utility.yul\":21252:21257   */\n      0x00\n        /* \"#utility.yul\":21283:21289   */\n      dup2\n        /* \"#utility.yul\":21277:21290   */\n      mload\n        /* \"#utility.yul\":21268:21290   */\n      swap1\n      pop\n        /* \"#utility.yul\":21299:21329   */\n      tag_729\n        /* \"#utility.yul\":21323:21328   */\n      dup2\n        /* \"#utility.yul\":21299:21329   */\n      tag_441\n      jump\t// in\n    tag_729:\n        /* \"#utility.yul\":21198:21335   */\n      swap3\n      swap2\n      pop\n      pop\n      jump\t// out\n        /* \"#utility.yul\":21341:21686   */\n    tag_230:\n        /* \"#utility.yul\":21408:21414   */\n      0x00\n        /* \"#utility.yul\":21457:21459   */\n      0x20\n        /* \"#utility.yul\":21445:21454   */\n      dup3\n        /* \"#utility.yul\":21436:21443   */\n      dup5\n        /* \"#utility.yul\":21432:21455   */\n      sub\n        /* \"#utility.yul\":21428:21460   */\n      slt\n        /* \"#utility.yul\":21425:21544   */\n      iszero\n      tag_731\n      jumpi\n        /* \"#utility.yul\":21463:21542   */\n      tag_732\n      tag_425\n      jump\t// in\n    tag_732:\n        /* \"#utility.yul\":21425:21544   */\n    tag_731:\n        /* \"#utility.yul\":21583:21584   */\n      0x00\n        /* \"#utility.yul\":21608:21669   */\n      tag_733\n        /* \"#utility.yul\":21661:21668   */\n      dup5\n        /* \"#utility.yul\":21652:21658   */\n      dup3\n        /* \"#utility.yul\":21641:21650   */\n      dup6\n        /* \"#utility.yul\":21637:21659   */\n      add\n        /* \"#utility.yul\":21608:21669   */\n      tag_477\n      jump\t// in\n    tag_733:\n        /* \"#utility.yul\":21598:21669   */\n      swap2\n      pop\n        /* \"#utility.yul\":21554:21679   */\n      pop\n        /* \"#utility.yul\":21341:21686   */\n      swap3\n      swap2\n      pop\n      pop\n      jump\t// out\n        /* \"#utility.yul\":21692:21866   */\n    tag_478:\n        /* \"#utility.yul\":21832:21858   */\n      0x496e76616c69642072657075746174696f6e2070726f6f660000000000000000\n        /* \"#utility.yul\":21828:21829   */\n      0x00\n        /* \"#utility.yul\":21820:21826   */\n      dup3\n        /* \"#utility.yul\":21816:21830   */\n      add\n        /* \"#utility.yul\":21809:21859   */\n      mstore\n        /* \"#utility.yul\":21692:21866   */\n      pop\n      jump\t// out\n        /* \"#utility.yul\":21872:22238   */\n    tag_479:\n        /* \"#utility.yul\":22014:22017   */\n      0x00\n        /* \"#utility.yul\":22035:22102   */\n      tag_736\n        /* \"#utility.yul\":22099:22101   */\n      0x18\n        /* \"#utility.yul\":22094:22097   */\n      dup4\n        /* \"#utility.yul\":22035:22102   */\n      tag_453\n      jump\t// in\n    tag_736:\n        /* \"#utility.yul\":22028:22102   */\n      swap2\n      pop\n        /* \"#utility.yul\":22111:22204   */\n      tag_737\n        /* \"#utility.yul\":22200:22203   */\n      dup3\n        /* \"#utility.yul\":22111:22204   */\n      tag_478\n      jump\t// in\n    tag_737:\n        /* \"#utility.yul\":22229:22231   */\n      0x20\n        /* \"#utility.yul\":22224:22227   */\n      dup3\n        /* \"#utility.yul\":22220:22232   */\n      add\n        /* \"#utility.yul\":22213:22232   */\n      swap1\n      pop\n        /* \"#utility.yul\":21872:22238   */\n      swap2\n      swap1\n      pop\n      jump\t// out\n        /* \"#utility.yul\":22244:22663   */\n    tag_233:\n        /* \"#utility.yul\":22410:22414   */\n      0x00\n        /* \"#utility.yul\":22448:22450   */\n      0x20\n        /* \"#utility.yul\":22437:22446   */\n      dup3\n        /* \"#utility.yul\":22433:22451   */\n      add\n        /* \"#utility.yul\":22425:22451   */\n      swap1\n      pop\n        /* \"#utility.yul\":22497:22506   */\n      dup2\n        /* \"#utility.yul\":22491:22495   */\n      dup2\n        /* \"#utility.yul\":22487:22507   */\n      sub\n        /* \"#utility.yul\":22483:22484   */\n      0x00\n        /* \"#utility.yul\":22472:22481   */\n      dup4\n        /* \"#utility.yul\":22468:22485   */\n      add\n        /* \"#utility.yul\":22461:22508   */\n      mstore\n        /* \"#utility.yul\":22525:22656   */\n      tag_739\n        /* \"#utility.yul\":22651:22655   */\n      dup2\n        /* \"#utility.yul\":22525:22656   */\n      tag_479\n      jump\t// in\n    tag_739:\n        /* \"#utility.yul\":22517:22656   */\n      swap1\n      pop\n        /* \"#utility.yul\":22244:22663   */\n      swap2\n      swap1\n      pop\n      jump\t// out\n        /* \"#utility.yul\":22669:22849   */\n    tag_480:\n        /* \"#utility.yul\":22717:22794   */\n      0x4e487b7100000000000000000000000000000000000000000000000000000000\n        /* \"#utility.yul\":22714:22715   */\n      0x00\n        /* \"#utility.yul\":22707:22795   */\n      mstore\n        /* \"#utility.yul\":22814:22818   */\n      0x11\n        /* \"#utility.yul\":22811:22812   */\n      0x04\n        /* \"#utility.yul\":22804:22819   */\n      mstore\n        /* \"#utility.yul\":22838:22842   */\n      0x24\n        /* \"#utility.yul\":22835:22836   */\n      0x00\n        /* \"#utility.yul\":22828:22843   */\n      revert\n        /* \"#utility.yul\":22855:23046   */\n    tag_236:\n        /* \"#utility.yul\":22895:22898   */\n      0x00\n        /* \"#utility.yul\":22914:22934   */\n      tag_742\n        /* \"#utility.yul\":22932:22933   */\n      dup3\n        /* \"#utility.yul\":22914:22934   */\n      tag_430\n      jump\t// in\n    tag_742:\n        /* \"#utility.yul\":22909:22934   */\n      swap2\n      pop\n        /* \"#utility.yul\":22948:22968   */\n      tag_743\n        /* \"#utility.yul\":22966:22967   */\n      dup4\n        /* \"#utility.yul\":22948:22968   */\n      tag_430\n      jump\t// in\n    tag_743:\n        /* \"#utility.yul\":22943:22968   */\n      swap3\n      pop\n        /* \"#utility.yul\":22991:22992   */\n      dup3\n        /* \"#utility.yul\":22988:22989   */\n      dup3\n        /* \"#utility.yul\":22984:22993   */\n      add\n        /* \"#utility.yul\":22977:22993   */\n      swap1\n      pop\n        /* \"#utility.yul\":23012:23015   */\n      dup1\n        /* \"#utility.yul\":23009:23010   */\n      dup3\n        /* \"#utility.yul\":23006:23016   */\n      gt\n        /* \"#utility.yul\":23003:23039   */\n      iszero\n      tag_744\n      jumpi\n        /* \"#utility.yul\":23019:23037   */\n      tag_745\n      tag_480\n      jump\t// in\n    tag_745:\n        /* \"#utility.yul\":23003:23039   */\n    tag_744:\n        /* \"#utility.yul\":22855:23046   */\n      swap3\n      swap2\n      pop\n      pop\n      jump\t// out\n        /* \"#utility.yul\":23052:23246   */\n    tag_242:\n        /* \"#utility.yul\":23092:23096   */\n      0x00\n        /* \"#utility.yul\":23112:23132   */\n      tag_747\n        /* \"#utility.yul\":23130:23131   */\n      dup3\n        /* \"#utility.yul\":23112:23132   */\n      tag_430\n      jump\t// in\n    tag_747:\n        /* \"#utility.yul\":23107:23132   */\n      swap2\n      pop\n        /* \"#utility.yul\":23146:23166   */\n      tag_748\n        /* \"#utility.yul\":23164:23165   */\n      dup4\n        /* \"#utility.yul\":23146:23166   */\n      tag_430\n      jump\t// in\n    tag_748:\n        /* \"#utility.yul\":23141:23166   */\n      swap3\n      pop\n        /* \"#utility.yul\":23190:23191   */\n      dup3\n        /* \"#utility.yul\":23187:23188   */\n      dup3\n        /* \"#utility.yul\":23183:23192   */\n      sub\n        /* \"#utility.yul\":23175:23192   */\n      swap1\n      pop\n        /* \"#utility.yul\":23214:23215   */\n      dup2\n        /* \"#utility.yul\":23208:23212   */\n      dup2\n        /* \"#utility.yul\":23205:23216   */\n      gt\n        /* \"#utility.yul\":23202:23239   */\n      iszero\n      tag_749\n      jumpi\n        /* \"#utility.yul\":23219:23237   */\n      tag_750\n      tag_480\n      jump\t// in\n    tag_750:\n        /* \"#utility.yul\":23202:23239   */\n    tag_749:\n        /* \"#utility.yul\":23052:23246   */\n      swap3\n      swap2\n      pop\n      pop\n      jump\t// out\n        /* \"#utility.yul\":23252:23694   */\n    tag_244:\n        /* \"#utility.yul\":23401:23405   */\n      0x00\n        /* \"#utility.yul\":23439:23441   */\n      0x60\n        /* \"#utility.yul\":23428:23437   */\n      dup3\n        /* \"#utility.yul\":23424:23442   */\n      add\n        /* \"#utility.yul\":23416:23442   */\n      swap1\n      pop\n        /* \"#utility.yul\":23452:23523   */\n      tag_752\n        /* \"#utility.yul\":23520:23521   */\n      0x00\n        /* \"#utility.yul\":23509:23518   */\n      dup4\n        /* \"#utility.yul\":23505:23522   */\n      add\n        /* \"#utility.yul\":23496:23502   */\n      dup7\n        /* \"#utility.yul\":23452:23523   */\n      tag_431\n      jump\t// in\n    tag_752:\n        /* \"#utility.yul\":23533:23605   */\n      tag_753\n        /* \"#utility.yul\":23601:23603   */\n      0x20\n        /* \"#utility.yul\":23590:23599   */\n      dup4\n        /* \"#utility.yul\":23586:23604   */\n      add\n        /* \"#utility.yul\":23577:23583   */\n      dup6\n        /* \"#utility.yul\":23533:23605   */\n      tag_431\n      jump\t// in\n    tag_753:\n        /* \"#utility.yul\":23615:23687   */\n      tag_754\n        /* \"#utility.yul\":23683:23685   */\n      0x40\n        /* \"#utility.yul\":23672:23681   */\n      dup4\n        /* \"#utility.yul\":23668:23686   */\n      add\n        /* \"#utility.yul\":23659:23665   */\n      dup5\n        /* \"#utility.yul\":23615:23687   */\n      tag_431\n      jump\t// in\n    tag_754:\n        /* \"#utility.yul\":23252:23694   */\n      swap5\n      swap4\n      pop\n      pop\n      pop\n      pop\n      jump\t// out\n        /* \"#utility.yul\":23700:23864   */\n    tag_481:\n        /* \"#utility.yul\":23840:23856   */\n      0x4e6f742072656769737465726564000000000000000000000000000000000000\n        /* \"#utility.yul\":23836:23837   */\n      0x00\n        /* \"#utility.yul\":23828:23834   */\n      dup3\n        /* \"#utility.yul\":23824:23838   */\n      add\n        /* \"#utility.yul\":23817:23857   */\n      mstore\n        /* \"#utility.yul\":23700:23864   */\n      pop\n      jump\t// out\n        /* \"#utility.yul\":23870:24236   */\n    tag_482:\n        /* \"#utility.yul\":24012:24015   */\n      0x00\n        /* \"#utility.yul\":24033:24100   */\n      tag_757\n        /* \"#utility.yul\":24097:24099   */\n      0x0e\n        /* \"#utility.yul\":24092:24095   */\n      dup4\n        /* \"#utility.yul\":24033:24100   */\n      tag_453\n      jump\t// in\n    tag_757:\n        /* \"#utility.yul\":24026:24100   */\n      swap2\n      pop\n        /* \"#utility.yul\":24109:24202   */\n      tag_758\n        /* \"#utility.yul\":24198:24201   */\n      dup3\n        /* \"#utility.yul\":24109:24202   */\n      tag_481\n      jump\t// in\n    tag_758:\n        /* \"#utility.yul\":24227:24229   */\n      0x20\n        /* \"#utility.yul\":24222:24225   */\n      dup3\n        /* \"#utility.yul\":24218:24230   */\n      add\n        /* \"#utility.yul\":24211:24230   */\n      swap1\n      pop\n        /* \"#utility.yul\":23870:24236   */\n      swap2\n      swap1\n      pop\n      jump\t// out\n        /* \"#utility.yul\":24242:24661   */\n    tag_250:\n        /* \"#utility.yul\":24408:24412   */\n      0x00\n        /* \"#utility.yul\":24446:24448   */\n      0x20\n        /* \"#utility.yul\":24435:24444   */\n      dup3\n        /* \"#utility.yul\":24431:24449   */\n      add\n        /* \"#utility.yul\":24423:24449   */\n      swap1\n      pop\n        /* \"#utility.yul\":24495:24504   */\n      dup2\n        /* \"#utility.yul\":24489:24493   */\n      dup2\n        /* \"#utility.yul\":24485:24505   */\n      sub\n        /* \"#utility.yul\":24481:24482   */\n      0x00\n        /* \"#utility.yul\":24470:24479   */\n      dup4\n        /* \"#utility.yul\":24466:24483   */\n      add\n        /* \"#utility.yul\":24459:24506   */\n      mstore\n        /* \"#utility.yul\":24523:24654   */\n      tag_760\n        /* \"#utility.yul\":24649:24653   */\n      dup2\n        /* \"#utility.yul\":24523:24654   */\n      tag_482\n      jump\t// in\n    tag_760:\n        /* \"#utility.yul\":24515:24654   */\n      swap1\n      pop\n        /* \"#utility.yul\":24242:24661   */\n      swap2\n      swap1\n      pop\n      jump\t// out\n        /* \"#utility.yul\":24667:24834   */\n    tag_483:\n        /* \"#utility.yul\":24807:24826   */\n      0x496e76616c69642062616e2070726f6f66000000000000000000000000000000\n        /* \"#utility.yul\":24803:24804   */\n      0x00\n        /* \"#utility.yul\":24795:24801   */\n      dup3\n        /* \"#utility.yul\":24791:24805   */\n      add\n        /* \"#utility.yul\":24784:24827   */\n      mstore\n        /* \"#utility.yul\":24667:24834   */\n      pop\n      jump\t// out\n        /* \"#utility.yul\":24840:25206   */\n    tag_484:\n        /* \"#utility.yul\":24982:24985   */\n      0x00\n        /* \"#utility.yul\":25003:25070   */\n      tag_763\n        /* \"#utility.yul\":25067:25069   */\n      0x11\n        /* \"#utility.yul\":25062:25065   */\n      dup4\n        /* \"#utility.yul\":25003:25070   */\n      tag_453\n      jump\t// in\n    tag_763:\n        /* \"#utility.yul\":24996:25070   */\n      swap2\n      pop\n        /* \"#utility.yul\":25079:25172   */\n      tag_764\n        /* \"#utility.yul\":25168:25171   */\n      dup3\n        /* \"#utility.yul\":25079:25172   */\n      tag_483\n      jump\t// in\n    tag_764:\n        /* \"#utility.yul\":25197:25199   */\n      0x20\n        /* \"#utility.yul\":25192:25195   */\n      dup3\n        /* \"#utility.yul\":25188:25200   */\n      add\n        /* \"#utility.yul\":25181:25200   */\n      swap1\n      pop\n        /* \"#utility.yul\":24840:25206   */\n      swap2\n      swap1\n      pop\n      jump\t// out\n        /* \"#utility.yul\":25212:25631   */\n    tag_257:\n        /* \"#utility.yul\":25378:25382   */\n      0x00\n        /* \"#utility.yul\":25416:25418   */\n      0x20\n        /* \"#utility.yul\":25405:25414   */\n      dup3\n        /* \"#utility.yul\":25401:25419   */\n      add\n        /* \"#utility.yul\":25393:25419   */\n      swap1\n      pop\n        /* \"#utility.yul\":25465:25474   */\n      dup2\n        /* \"#utility.yul\":25459:25463   */\n      dup2\n        /* \"#utility.yul\":25455:25475   */\n      sub\n        /* \"#utility.yul\":25451:25452   */\n      0x00\n        /* \"#utility.yul\":25440:25449   */\n      dup4\n        /* \"#utility.yul\":25436:25453   */\n      add\n        /* \"#utility.yul\":25429:25476   */\n      mstore\n        /* \"#utility.yul\":25493:25624   */\n      tag_766\n        /* \"#utility.yul\":25619:25623   */\n      dup2\n        /* \"#utility.yul\":25493:25624   */\n      tag_484\n      jump\t// in\n    tag_766:\n        /* \"#utility.yul\":25485:25624   */\n      swap1\n      pop\n        /* \"#utility.yul\":25212:25631   */\n      swap2\n      swap1\n      pop\n      jump\t// out\n        /* \"#utility.yul\":25637:25808   */\n    tag_259:\n        /* \"#utility.yul\":25676:25679   */\n      0x00\n        /* \"#utility.yul\":25699:25723   */\n      tag_768\n        /* \"#utility.yul\":25717:25722   */\n      dup3\n        /* \"#utility.yul\":25699:25723   */\n      tag_430\n      jump\t// in\n    tag_768:\n        /* \"#utility.yul\":25690:25723   */\n      swap2\n      pop\n        /* \"#utility.yul\":25745:25749   */\n      0x00\n        /* \"#utility.yul\":25738:25743   */\n      dup3\n        /* \"#utility.yul\":25735:25750   */\n      sub\n        /* \"#utility.yul\":25732:25773   */\n      tag_769\n      jumpi\n        /* \"#utility.yul\":25753:25771   */\n      tag_770\n      tag_480\n      jump\t// in\n    tag_770:\n        /* \"#utility.yul\":25732:25773   */\n    tag_769:\n        /* \"#utility.yul\":25800:25801   */\n      0x01\n        /* \"#utility.yul\":25793:25798   */\n      dup3\n        /* \"#utility.yul\":25789:25802   */\n      sub\n        /* \"#utility.yul\":25782:25802   */\n      swap1\n      pop\n        /* \"#utility.yul\":25637:25808   */\n      swap2\n      swap1\n      pop\n      jump\t// out\n        /* \"#utility.yul\":25814:25962   */\n    tag_485:\n        /* \"#utility.yul\":25912:25918   */\n      dup3\n        /* \"#utility.yul\":25907:25910   */\n      dup2\n        /* \"#utility.yul\":25902:25905   */\n      dup4\n        /* \"#utility.yul\":25889:25919   */\n      calldatacopy\n        /* \"#utility.yul\":25953:25954   */\n      0x00\n        /* \"#utility.yul\":25944:25950   */\n      dup4\n        /* \"#utility.yul\":25939:25942   */\n      dup4\n        /* \"#utility.yul\":25935:25951   */\n      add\n        /* \"#utility.yul\":25928:25955   */\n      mstore\n        /* \"#utility.yul\":25814:25962   */\n      pop\n      pop\n      pop\n      jump\t// out\n        /* \"#utility.yul\":25992:26309   */\n    tag_486:\n        /* \"#utility.yul\":26090:26093   */\n      0x00\n        /* \"#utility.yul\":26111:26182   */\n      tag_773\n        /* \"#utility.yul\":26175:26181   */\n      dup4\n        /* \"#utility.yul\":26170:26173   */\n      dup6\n        /* \"#utility.yul\":26111:26182   */\n      tag_453\n      jump\t// in\n    tag_773:\n        /* \"#utility.yul\":26104:26182   */\n      swap4\n      pop\n        /* \"#utility.yul\":26192:26248   */\n      tag_774\n        /* \"#utility.yul\":26241:26247   */\n      dup4\n        /* \"#utility.yul\":26236:26239   */\n      dup6\n        /* \"#utility.yul\":26229:26234   */\n      dup5\n        /* \"#utility.yul\":26192:26248   */\n      tag_485\n      jump\t// in\n    tag_774:\n        /* \"#utility.yul\":26273:26302   */\n      tag_775\n        /* \"#utility.yul\":26295:26301   */\n      dup4\n        /* \"#utility.yul\":26273:26302   */\n      tag_455\n      jump\t// in\n    tag_775:\n        /* \"#utility.yul\":26268:26271   */\n      dup5\n        /* \"#utility.yul\":26264:26303   */\n      add\n        /* \"#utility.yul\":26257:26303   */\n      swap1\n      pop\n        /* \"#utility.yul\":25992:26309   */\n      swap4\n      swap3\n      pop\n      pop\n      pop\n      jump\t// out\n        /* \"#utility.yul\":26315:26758   */\n    tag_261:\n        /* \"#utility.yul\":26466:26470   */\n      0x00\n        /* \"#utility.yul\":26504:26506   */\n      0x40\n        /* \"#utility.yul\":26493:26502   */\n      dup3\n        /* \"#utility.yul\":26489:26507   */\n      add\n        /* \"#utility.yul\":26481:26507   */\n      swap1\n      pop\n        /* \"#utility.yul\":26553:26562   */\n      dup2\n        /* \"#utility.yul\":26547:26551   */\n      dup2\n        /* \"#utility.yul\":26543:26563   */\n      sub\n        /* \"#utility.yul\":26539:26540   */\n      0x00\n        /* \"#utility.yul\":26528:26537   */\n      dup4\n        /* \"#utility.yul\":26524:26541   */\n      add\n        /* \"#utility.yul\":26517:26564   */\n      mstore\n        /* \"#utility.yul\":26581:26669   */\n      tag_777\n        /* \"#utility.yul\":26664:26668   */\n      dup2\n        /* \"#utility.yul\":26655:26661   */\n      dup6\n        /* \"#utility.yul\":26647:26653   */\n      dup8\n        /* \"#utility.yul\":26581:26669   */\n      tag_486\n      jump\t// in\n    tag_777:\n        /* \"#utility.yul\":26573:26669   */\n      swap1\n      pop\n        /* \"#utility.yul\":26679:26751   */\n      tag_778\n        /* \"#utility.yul\":26747:26749   */\n      0x20\n        /* \"#utility.yul\":26736:26745   */\n      dup4\n        /* \"#utility.yul\":26732:26750   */\n      add\n        /* \"#utility.yul\":26723:26729   */\n      dup5\n        /* \"#utility.yul\":26679:26751   */\n      tag_431\n      jump\t// in\n    tag_778:\n        /* \"#utility.yul\":26315:26758   */\n      swap5\n      swap4\n      pop\n      pop\n      pop\n      pop\n      jump\t// out\n        /* \"#utility.yul\":26764:26936   */\n    tag_487:\n        /* \"#utility.yul\":26904:26928   */\n      0x496e636f7272656374207374616b6520616d6f756e7400000000000000000000\n        /* \"#utility.yul\":26900:26901   */\n      0x00\n        /* \"#utility.yul\":26892:26898   */\n      dup3\n        /* \"#utility.yul\":26888:26902   */\n      add\n        /* \"#utility.yul\":26881:26929   */\n      mstore\n        /* \"#utility.yul\":26764:26936   */\n      pop\n      jump\t// out\n        /* \"#utility.yul\":26942:27308   */\n    tag_488:\n        /* \"#utility.yul\":27084:27087   */\n      0x00\n        /* \"#utility.yul\":27105:27172   */\n      tag_781\n        /* \"#utility.yul\":27169:27171   */\n      0x16\n        /* \"#utility.yul\":27164:27167   */\n      dup4\n        /* \"#utility.yul\":27105:27172   */\n      tag_453\n      jump\t// in\n    tag_781:\n        /* \"#utility.yul\":27098:27172   */\n      swap2\n      pop\n        /* \"#utility.yul\":27181:27274   */\n      tag_782\n        /* \"#utility.yul\":27270:27273   */\n      dup3\n        /* \"#utility.yul\":27181:27274   */\n      tag_487\n      jump\t// in\n    tag_782:\n        /* \"#utility.yul\":27299:27301   */\n      0x20\n        /* \"#utility.yul\":27294:27297   */\n      dup3\n        /* \"#utility.yul\":27290:27302   */\n      add\n        /* \"#utility.yul\":27283:27302   */\n      swap1\n      pop\n        /* \"#utility.yul\":26942:27308   */\n      swap2\n      swap1\n      pop\n      jump\t// out\n        /* \"#utility.yul\":27314:27733   */\n    tag_266:\n        /* \"#utility.yul\":27480:27484   */\n      0x00\n        /* \"#utility.yul\":27518:27520   */\n      0x20\n        /* \"#utility.yul\":27507:27516   */\n      dup3\n        /* \"#utility.yul\":27503:27521   */\n      add\n        /* \"#utility.yul\":27495:27521   */\n      swap1\n      pop\n        /* \"#utility.yul\":27567:27576   */\n      dup2\n        /* \"#utility.yul\":27561:27565   */\n      dup2\n        /* \"#utility.yul\":27557:27577   */\n      sub\n        /* \"#utility.yul\":27553:27554   */\n      0x00\n        /* \"#utility.yul\":27542:27551   */\n      dup4\n        /* \"#utility.yul\":27538:27555   */\n      add\n        /* \"#utility.yul\":27531:27578   */\n      mstore\n        /* \"#utility.yul\":27595:27726   */\n      tag_784\n        /* \"#utility.yul\":27721:27725   */\n      dup2\n        /* \"#utility.yul\":27595:27726   */\n      tag_488\n      jump\t// in\n    tag_784:\n        /* \"#utility.yul\":27587:27726   */\n      swap1\n      pop\n        /* \"#utility.yul\":27314:27733   */\n      swap2\n      swap1\n      pop\n      jump\t// out\n        /* \"#utility.yul\":27739:27907   */\n    tag_489:\n        /* \"#utility.yul\":27879:27899   */\n      0x496e73756666696369656e74207374616b650000000000000000000000000000\n        /* \"#utility.yul\":27875:27876   */\n      0x00\n        /* \"#utility.yul\":27867:27873   */\n      dup3\n        /* \"#utility.yul\":27863:27877   */\n      add\n        /* \"#utility.yul\":27856:27900   */\n      mstore\n        /* \"#utility.yul\":27739:27907   */\n      pop\n      jump\t// out\n        /* \"#utility.yul\":27913:28279   */\n    tag_490:\n        /* \"#utility.yul\":28055:28058   */\n      0x00\n        /* \"#utility.yul\":28076:28143   */\n      tag_787\n        /* \"#utility.yul\":28140:28142   */\n      0x12\n        /* \"#utility.yul\":28135:28138   */\n      dup4\n        /* \"#utility.yul\":28076:28143   */\n      tag_453\n      jump\t// in\n    tag_787:\n        /* \"#utility.yul\":28069:28143   */\n      swap2\n      pop\n        /* \"#utility.yul\":28152:28245   */\n      tag_788\n        /* \"#utility.yul\":28241:28244   */\n      dup3\n        /* \"#utility.yul\":28152:28245   */\n      tag_489\n      jump\t// in\n    tag_788:\n        /* \"#utility.yul\":28270:28272   */\n      0x20\n        /* \"#utility.yul\":28265:28268   */\n      dup3\n        /* \"#utility.yul\":28261:28273   */\n      add\n        /* \"#utility.yul\":28254:28273   */\n      swap1\n      pop\n        /* \"#utility.yul\":27913:28279   */\n      swap2\n      swap1\n      pop\n      jump\t// out\n        /* \"#utility.yul\":28285:28704   */\n    tag_269:\n        /* \"#utility.yul\":28451:28455   */\n      0x00\n        /* \"#utility.yul\":28489:28491   */\n      0x20\n        /* \"#utility.yul\":28478:28487   */\n      dup3\n        /* \"#utility.yul\":28474:28492   */\n      add\n        /* \"#utility.yul\":28466:28492   */\n      swap1\n      pop\n        /* \"#utility.yul\":28538:28547   */\n      dup2\n        /* \"#utility.yul\":28532:28536   */\n      dup2\n        /* \"#utility.yul\":28528:28548   */\n      sub\n        /* \"#utility.yul\":28524:28525   */\n      0x00\n        /* \"#utility.yul\":28513:28522   */\n      dup4\n        /* \"#utility.yul\":28509:28526   */\n      add\n        /* \"#utility.yul\":28502:28549   */\n      mstore\n        /* \"#utility.yul\":28566:28697   */\n      tag_790\n        /* \"#utility.yul\":28692:28696   */\n      dup2\n        /* \"#utility.yul\":28566:28697   */\n      tag_490\n      jump\t// in\n    tag_790:\n        /* \"#utility.yul\":28558:28697   */\n      swap1\n      pop\n        /* \"#utility.yul\":28285:28704   */\n      swap2\n      swap1\n      pop\n      jump\t// out\n        /* \"#utility.yul\":28710:28878   */\n    tag_491:\n        /* \"#utility.yul\":28850:28870   */\n      0x416c726561647920726567697374657265640000000000000000000000000000\n        /* \"#utility.yul\":28846:28847   */\n      0x00\n        /* \"#utility.yul\":28838:28844   */\n      dup3\n        /* \"#utility.yul\":28834:28848   */\n      add\n        /* \"#utility.yul\":28827:28871   */\n      mstore\n        /* \"#utility.yul\":28710:28878   */\n      pop\n      jump\t// out\n        /* \"#utility.yul\":28884:29250   */\n    tag_492:\n        /* \"#utility.yul\":29026:29029   */\n      0x00\n        /* \"#utility.yul\":29047:29114   */\n      tag_793\n        /* \"#utility.yul\":29111:29113   */\n      0x12\n        /* \"#utility.yul\":29106:29109   */\n      dup4\n        /* \"#utility.yul\":29047:29114   */\n      tag_453\n      jump\t// in\n    tag_793:\n        /* \"#utility.yul\":29040:29114   */\n      swap2\n      pop\n        /* \"#utility.yul\":29123:29216   */\n      tag_794\n        /* \"#utility.yul\":29212:29215   */\n      dup3\n        /* \"#utility.yul\":29123:29216   */\n      tag_491\n      jump\t// in\n    tag_794:\n        /* \"#utility.yul\":29241:29243   */\n      0x20\n        /* \"#utility.yul\":29236:29239   */\n      dup3\n        /* \"#utility.yul\":29232:29244   */\n      add\n        /* \"#utility.yul\":29225:29244   */\n      swap1\n      pop\n        /* \"#utility.yul\":28884:29250   */\n      swap2\n      swap1\n      pop\n      jump\t// out\n        /* \"#utility.yul\":29256:29675   */\n    tag_272:\n        /* \"#utility.yul\":29422:29426   */\n      0x00\n        /* \"#utility.yul\":29460:29462   */\n      0x20\n        /* \"#utility.yul\":29449:29458   */\n      dup3\n        /* \"#utility.yul\":29445:29463   */\n      add\n        /* \"#utility.yul\":29437:29463   */\n      swap1\n      pop\n        /* \"#utility.yul\":29509:29518   */\n      dup2\n        /* \"#utility.yul\":29503:29507   */\n      dup2\n        /* \"#utility.yul\":29499:29519   */\n      sub\n        /* \"#utility.yul\":29495:29496   */\n      0x00\n        /* \"#utility.yul\":29484:29493   */\n      dup4\n        /* \"#utility.yul\":29480:29497   */\n      add\n        /* \"#utility.yul\":29473:29520   */\n      mstore\n        /* \"#utility.yul\":29537:29668   */\n      tag_796\n        /* \"#utility.yul\":29663:29667   */\n      dup2\n        /* \"#utility.yul\":29537:29668   */\n      tag_492\n      jump\t// in\n    tag_796:\n        /* \"#utility.yul\":29529:29668   */\n      swap1\n      pop\n        /* \"#utility.yul\":29256:29675   */\n      swap2\n      swap1\n      pop\n      jump\t// out\n        /* \"#utility.yul\":29681:29853   */\n    tag_493:\n        /* \"#utility.yul\":29821:29845   */\n      0x496e76616c6964206964656e746974792070726f6f6600000000000000000000\n        /* \"#utility.yul\":29817:29818   */\n      0x00\n        /* \"#utility.yul\":29809:29815   */\n      dup3\n        /* \"#utility.yul\":29805:29819   */\n      add\n        /* \"#utility.yul\":29798:29846   */\n      mstore\n        /* \"#utility.yul\":29681:29853   */\n      pop\n      jump\t// out\n        /* \"#utility.yul\":29859:30225   */\n    tag_494:\n        /* \"#utility.yul\":30001:30004   */\n      0x00\n        /* \"#utility.yul\":30022:30089   */\n      tag_799\n        /* \"#utility.yul\":30086:30088   */\n      0x16\n        /* \"#utility.yul\":30081:30084   */\n      dup4\n        /* \"#utility.yul\":30022:30089   */\n      tag_453\n      jump\t// in\n    tag_799:\n        /* \"#utility.yul\":30015:30089   */\n      swap2\n      pop\n        /* \"#utility.yul\":30098:30191   */\n      tag_800\n        /* \"#utility.yul\":30187:30190   */\n      dup3\n        /* \"#utility.yul\":30098:30191   */\n      tag_493\n      jump\t// in\n    tag_800:\n        /* \"#utility.yul\":30216:30218   */\n      0x20\n        /* \"#utility.yul\":30211:30214   */\n      dup3\n        /* \"#utility.yul\":30207:30219   */\n      add\n        /* \"#utility.yul\":30200:30219   */\n      swap1\n      pop\n        /* \"#utility.yul\":29859:30225   */\n      swap2\n      swap1\n      pop\n      jump\t// out\n        /* \"#utility.yul\":30231:30650   */\n    tag_279:\n        /* \"#utility.yul\":30397:30401   */\n      0x00\n        /* \"#utility.yul\":30435:30437   */\n      0x20\n        /* \"#utility.yul\":30424:30433   */\n      dup3\n        /* \"#utility.yul\":30420:30438   */\n      add\n        /* \"#utility.yul\":30412:30438   */\n      swap1\n      pop\n        /* \"#utility.yul\":30484:30493   */\n      dup2\n        /* \"#utility.yul\":30478:30482   */\n      dup2\n        /* \"#utility.yul\":30474:30494   */\n      sub\n        /* \"#utility.yul\":30470:30471   */\n      0x00\n        /* \"#utility.yul\":30459:30468   */\n      dup4\n        /* \"#utility.yul\":30455:30472   */\n      add\n        /* \"#utility.yul\":30448:30495   */\n      mstore\n        /* \"#utility.yul\":30512:30643   */\n      tag_802\n        /* \"#utility.yul\":30638:30642   */\n      dup2\n        /* \"#utility.yul\":30512:30643   */\n      tag_494\n      jump\t// in\n    tag_802:\n        /* \"#utility.yul\":30504:30643   */\n      swap1\n      pop\n        /* \"#utility.yul\":30231:30650   */\n      swap2\n      swap1\n      pop\n      jump\t// out\n        /* \"#utility.yul\":30656:30826   */\n    tag_495:\n        /* \"#utility.yul\":30796:30818   */\n      0x496e76616c6964207265706f727420696e646578000000000000000000000000\n        /* \"#utility.yul\":30792:30793   */\n      0x00\n        /* \"#utility.yul\":30784:30790   */\n      dup3\n        /* \"#utility.yul\":30780:30794   */\n      add\n        /* \"#utility.yul\":30773:30819   */\n      mstore\n        /* \"#utility.yul\":30656:30826   */\n      pop\n      jump\t// out\n        /* \"#utility.yul\":30832:31198   */\n    tag_496:\n        /* \"#utility.yul\":30974:30977   */\n      0x00\n        /* \"#utility.yul\":30995:31062   */\n      tag_805\n        /* \"#utility.yul\":31059:31061   */\n      0x14\n        /* \"#utility.yul\":31054:31057   */\n      dup4\n        /* \"#utility.yul\":30995:31062   */\n      tag_453\n      jump\t// in\n    tag_805:\n        /* \"#utility.yul\":30988:31062   */\n      swap2\n      pop\n        /* \"#utility.yul\":31071:31164   */\n      tag_806\n        /* \"#utility.yul\":31160:31163   */\n      dup3\n        /* \"#utility.yul\":31071:31164   */\n      tag_495\n      jump\t// in\n    tag_806:\n        /* \"#utility.yul\":31189:31191   */\n      0x20\n        /* \"#utility.yul\":31184:31187   */\n      dup3\n        /* \"#utility.yul\":31180:31192   */\n      add\n        /* \"#utility.yul\":31173:31192   */\n      swap1\n      pop\n        /* \"#utility.yul\":30832:31198   */\n      swap2\n      swap1\n      pop\n      jump\t// out\n        /* \"#utility.yul\":31204:31623   */\n    tag_285:\n        /* \"#utility.yul\":31370:31374   */\n      0x00\n        /* \"#utility.yul\":31408:31410   */\n      0x20\n        /* \"#utility.yul\":31397:31406   */\n      dup3\n        /* \"#utility.yul\":31393:31411   */\n      add\n        /* \"#utility.yul\":31385:31411   */\n      swap1\n      pop\n        /* \"#utility.yul\":31457:31466   */\n      dup2\n        /* \"#utility.yul\":31451:31455   */\n      dup2\n        /* \"#utility.yul\":31447:31467   */\n      sub\n        /* \"#utility.yul\":31443:31444   */\n      0x00\n        /* \"#utility.yul\":31432:31441   */\n      dup4\n        /* \"#utility.yul\":31428:31445   */\n      add\n        /* \"#utility.yul\":31421:31468   */\n      mstore\n        /* \"#utility.yul\":31485:31616   */\n      tag_808\n        /* \"#utility.yul\":31611:31615   */\n      dup2\n        /* \"#utility.yul\":31485:31616   */\n      tag_496\n      jump\t// in\n    tag_808:\n        /* \"#utility.yul\":31477:31616   */\n      swap1\n      pop\n        /* \"#utility.yul\":31204:31623   */\n      swap2\n      swap1\n      pop\n      jump\t// out\n        /* \"#utility.yul\":31629:31809   */\n    tag_288:\n        /* \"#utility.yul\":31677:31754   */\n      0x4e487b7100000000000000000000000000000000000000000000000000000000\n        /* \"#utility.yul\":31674:31675   */\n      0x00\n        /* \"#utility.yul\":31667:31755   */\n      mstore\n        /* \"#utility.yul\":31774:31778   */\n      0x32\n        /* \"#utility.yul\":31771:31772   */\n      0x04\n        /* \"#utility.yul\":31764:31779   */\n      mstore\n        /* \"#utility.yul\":31798:31802   */\n      0x24\n        /* \"#utility.yul\":31795:31796   */\n      0x00\n        /* \"#utility.yul\":31788:31803   */\n      revert\n        /* \"#utility.yul\":31815:31995   */\n    tag_497:\n        /* \"#utility.yul\":31863:31940   */\n      0x4e487b7100000000000000000000000000000000000000000000000000000000\n        /* \"#utility.yul\":31860:31861   */\n      0x00\n        /* \"#utility.yul\":31853:31941   */\n      mstore\n        /* \"#utility.yul\":31960:31964   */\n      0x22\n        /* \"#utility.yul\":31957:31958   */\n      0x04\n        /* \"#utility.yul\":31950:31965   */\n      mstore\n        /* \"#utility.yul\":31984:31988   */\n      0x24\n        /* \"#utility.yul\":31981:31982   */\n      0x00\n        /* \"#utility.yul\":31974:31989   */\n      revert\n        /* \"#utility.yul\":32001:32321   */\n    tag_291:\n        /* \"#utility.yul\":32045:32051   */\n      0x00\n        /* \"#utility.yul\":32082:32083   */\n      0x02\n        /* \"#utility.yul\":32076:32080   */\n      dup3\n        /* \"#utility.yul\":32072:32084   */\n      div\n        /* \"#utility.yul\":32062:32084   */\n      swap1\n      pop\n        /* \"#utility.yul\":32129:32130   */\n      0x01\n        /* \"#utility.yul\":32123:32127   */\n      dup3\n        /* \"#utility.yul\":32119:32131   */\n      and\n        /* \"#utility.yul\":32150:32168   */\n      dup1\n        /* \"#utility.yul\":32140:32221   */\n      tag_812\n      jumpi\n        /* \"#utility.yul\":32206:32210   */\n      0x7f\n        /* \"#utility.yul\":32198:32204   */\n      dup3\n        /* \"#utility.yul\":32194:32211   */\n      and\n        /* \"#utility.yul\":32184:32211   */\n      swap2\n      pop\n        /* \"#utility.yul\":32140:32221   */\n    tag_812:\n        /* \"#utility.yul\":32268:32270   */\n      0x20\n        /* \"#utility.yul\":32260:32266   */\n      dup3\n        /* \"#utility.yul\":32257:32271   */\n      lt\n        /* \"#utility.yul\":32237:32255   */\n      dup2\n        /* \"#utility.yul\":32234:32272   */\n      sub\n        /* \"#utility.yul\":32231:32315   */\n      tag_813\n      jumpi\n        /* \"#utility.yul\":32287:32305   */\n      tag_814\n      tag_497\n      jump\t// in\n    tag_814:\n        /* \"#utility.yul\":32231:32315   */\n    tag_813:\n        /* \"#utility.yul\":32052:32321   */\n      pop\n        /* \"#utility.yul\":32001:32321   */\n      swap2\n      swap1\n      pop\n      jump\t// out\n        /* \"#utility.yul\":32327:32494   */\n    tag_498:\n        /* \"#utility.yul\":32467:32486   */\n      0x496e76616c6964207468726573686f6c64000000000000000000000000000000\n        /* \"#utility.yul\":32463:32464   */\n      0x00\n        /* \"#utility.yul\":32455:32461   */\n      dup3\n        /* \"#utility.yul\":32451:32465   */\n      add\n        /* \"#utility.yul\":32444:32487   */\n      mstore\n        /* \"#utility.yul\":32327:32494   */\n      pop\n      jump\t// out\n        /* \"#utility.yul\":32500:32866   */\n    tag_499:\n        /* \"#utility.yul\":32642:32645   */\n      0x00\n        /* \"#utility.yul\":32663:32730   */\n      tag_817\n        /* \"#utility.yul\":32727:32729   */\n      0x11\n        /* \"#utility.yul\":32722:32725   */\n      dup4\n        /* \"#utility.yul\":32663:32730   */\n      tag_453\n      jump\t// in\n    tag_817:\n        /* \"#utility.yul\":32656:32730   */\n      swap2\n      pop\n        /* \"#utility.yul\":32739:32832   */\n      tag_818\n        /* \"#utility.yul\":32828:32831   */\n      dup3\n        /* \"#utility.yul\":32739:32832   */\n      tag_498\n      jump\t// in\n    tag_818:\n        /* \"#utility.yul\":32857:32859   */\n      0x20\n        /* \"#utility.yul\":32852:32855   */\n      dup3\n        /* \"#utility.yul\":32848:32860   */\n      add\n        /* \"#utility.yul\":32841:32860   */\n      swap1\n      pop\n        /* \"#utility.yul\":32500:32866   */\n      swap2\n      swap1\n      pop\n      jump\t// out\n        /* \"#utility.yul\":32872:33291   */\n    tag_307:\n        /* \"#utility.yul\":33038:33042   */\n      0x00\n        /* \"#utility.yul\":33076:33078   */\n      0x20\n        /* \"#utility.yul\":33065:33074   */\n      dup3\n        /* \"#utility.yul\":33061:33079   */\n      add\n        /* \"#utility.yul\":33053:33079   */\n      swap1\n      pop\n        /* \"#utility.yul\":33125:33134   */\n      dup2\n        /* \"#utility.yul\":33119:33123   */\n      dup2\n        /* \"#utility.yul\":33115:33135   */\n      sub\n        /* \"#utility.yul\":33111:33112   */\n      0x00\n        /* \"#utility.yul\":33100:33109   */\n      dup4\n        /* \"#utility.yul\":33096:33113   */\n      add\n        /* \"#utility.yul\":33089:33136   */\n      mstore\n        /* \"#utility.yul\":33153:33284   */\n      tag_820\n        /* \"#utility.yul\":33279:33283   */\n      dup2\n        /* \"#utility.yul\":33153:33284   */\n      tag_499\n      jump\t// in\n    tag_820:\n        /* \"#utility.yul\":33145:33284   */\n      swap1\n      pop\n        /* \"#utility.yul\":32872:33291   */\n      swap2\n      swap1\n      pop\n      jump\t// out\n        /* \"#utility.yul\":33297:33409   */\n    tag_500:\n        /* \"#utility.yul\":33380:33402   */\n      tag_822\n        /* \"#utility.yul\":33396:33401   */\n      dup2\n        /* \"#utility.yul\":33380:33402   */\n      tag_457\n      jump\t// in\n    tag_822:\n        /* \"#utility.yul\":33375:33378   */\n      dup3\n        /* \"#utility.yul\":33368:33403   */\n      mstore\n        /* \"#utility.yul\":33297:33409   */\n      pop\n      pop\n      jump\t// out\n        /* \"#utility.yul\":33415:33629   */\n    tag_309:\n        /* \"#utility.yul\":33504:33508   */\n      0x00\n        /* \"#utility.yul\":33542:33544   */\n      0x20\n        /* \"#utility.yul\":33531:33540   */\n      dup3\n        /* \"#utility.yul\":33527:33545   */\n      add\n        /* \"#utility.yul\":33519:33545   */\n      swap1\n      pop\n        /* \"#utility.yul\":33555:33622   */\n      tag_824\n        /* \"#utility.yul\":33619:33620   */\n      0x00\n        /* \"#utility.yul\":33608:33617   */\n      dup4\n        /* \"#utility.yul\":33604:33621   */\n      add\n        /* \"#utility.yul\":33595:33601   */\n      dup5\n        /* \"#utility.yul\":33555:33622   */\n      tag_500\n      jump\t// in\n    tag_824:\n        /* \"#utility.yul\":33415:33629   */\n      swap3\n      swap2\n      pop\n      pop\n      jump\t// out\n        /* \"#utility.yul\":33635:33809   */\n    tag_501:\n        /* \"#utility.yul\":33775:33801   */\n      0x496e76616c696420766572696669657220616464726573730000000000000000\n        /* \"#utility.yul\":33771:33772   */\n      0x00\n        /* \"#utility.yul\":33763:33769   */\n      dup3\n        /* \"#utility.yul\":33759:33773   */\n      add\n        /* \"#utility.yul\":33752:33802   */\n      mstore\n        /* \"#utility.yul\":33635:33809   */\n      pop\n      jump\t// out\n        /* \"#utility.yul\":33815:34181   */\n    tag_502:\n        /* \"#utility.yul\":33957:33960   */\n      0x00\n        /* \"#utility.yul\":33978:34045   */\n      tag_827\n        /* \"#utility.yul\":34042:34044   */\n      0x18\n        /* \"#utility.yul\":34037:34040   */\n      dup4\n        /* \"#utility.yul\":33978:34045   */\n      tag_453\n      jump\t// in\n    tag_827:\n        /* \"#utility.yul\":33971:34045   */\n      swap2\n      pop\n        /* \"#utility.yul\":34054:34147   */\n      tag_828\n        /* \"#utility.yul\":34143:34146   */\n      dup3\n        /* \"#utility.yul\":34054:34147   */\n      tag_501\n      jump\t// in\n    tag_828:\n        /* \"#utility.yul\":34172:34174   */\n      0x20\n        /* \"#utility.yul\":34167:34170   */\n      dup3\n        /* \"#utility.yul\":34163:34175   */\n      add\n        /* \"#utility.yul\":34156:34175   */\n      swap1\n      pop\n        /* \"#utility.yul\":33815:34181   */\n      swap2\n      swap1\n      pop\n      jump\t// out\n        /* \"#utility.yul\":34187:34606   */\n    tag_331:\n        /* \"#utility.yul\":34353:34357   */\n      0x00\n        /* \"#utility.yul\":34391:34393   */\n      0x20\n        /* \"#utility.yul\":34380:34389   */\n      dup3\n        /* \"#utility.yul\":34376:34394   */\n      add\n        /* \"#utility.yul\":34368:34394   */\n      swap1\n      pop\n        /* \"#utility.yul\":34440:34449   */\n      dup2\n        /* \"#utility.yul\":34434:34438   */\n      dup2\n        /* \"#utility.yul\":34430:34450   */\n      sub\n        /* \"#utility.yul\":34426:34427   */\n      0x00\n        /* \"#utility.yul\":34415:34424   */\n      dup4\n        /* \"#utility.yul\":34411:34428   */\n      add\n        /* \"#utility.yul\":34404:34451   */\n      mstore\n        /* \"#utility.yul\":34468:34599   */\n      tag_830\n        /* \"#utility.yul\":34594:34598   */\n      dup2\n        /* \"#utility.yul\":34468:34599   */\n      tag_502\n      jump\t// in\n    tag_830:\n        /* \"#utility.yul\":34460:34599   */\n      swap1\n      pop\n        /* \"#utility.yul\":34187:34606   */\n      swap2\n      swap1\n      pop\n      jump\t// out\n        /* \"#utility.yul\":34612:34782   */\n    tag_503:\n        /* \"#utility.yul\":34752:34774   */\n      0x496e76616c6964206d6978696e672070726f6f66000000000000000000000000\n        /* \"#utility.yul\":34748:34749   */\n      0x00\n        /* \"#utility.yul\":34740:34746   */\n      dup3\n        /* \"#utility.yul\":34736:34750   */\n      add\n        /* \"#utility.yul\":34729:34775   */\n      mstore\n        /* \"#utility.yul\":34612:34782   */\n      pop\n      jump\t// out\n        /* \"#utility.yul\":34788:35154   */\n    tag_504:\n        /* \"#utility.yul\":34930:34933   */\n      0x00\n        /* \"#utility.yul\":34951:35018   */\n      tag_833\n        /* \"#utility.yul\":35015:35017   */\n      0x14\n        /* \"#utility.yul\":35010:35013   */\n      dup4\n        /* \"#utility.yul\":34951:35018   */\n      tag_453\n      jump\t// in\n    tag_833:\n        /* \"#utility.yul\":34944:35018   */\n      swap2\n      pop\n        /* \"#utility.yul\":35027:35120   */\n      tag_834\n        /* \"#utility.yul\":35116:35119   */\n      dup3\n        /* \"#utility.yul\":35027:35120   */\n      tag_503\n      jump\t// in\n    tag_834:\n        /* \"#utility.yul\":35145:35147   */\n      0x20\n        /* \"#utility.yul\":35140:35143   */\n      dup3\n        /* \"#utility.yul\":35136:35148   */\n      add\n        /* \"#utility.yul\":35129:35148   */\n      swap1\n      pop\n        /* \"#utility.yul\":34788:35154   */\n      swap2\n      swap1\n      pop\n      jump\t// out\n        /* \"#utility.yul\":35160:35579   */\n    tag_348:\n        /* \"#utility.yul\":35326:35330   */\n      0x00\n        /* \"#utility.yul\":35364:35366   */\n      0x20\n        /* \"#utility.yul\":35353:35362   */\n      dup3\n        /* \"#utility.yul\":35349:35367   */\n      add\n        /* \"#utility.yul\":35341:35367   */\n      swap1\n      pop\n        /* \"#utility.yul\":35413:35422   */\n      dup2\n        /* \"#utility.yul\":35407:35411   */\n      dup2\n        /* \"#utility.yul\":35403:35423   */\n      sub\n        /* \"#utility.yul\":35399:35400   */\n      0x00\n        /* \"#utility.yul\":35388:35397   */\n      dup4\n        /* \"#utility.yul\":35384:35401   */\n      add\n        /* \"#utility.yul\":35377:35424   */\n      mstore\n        /* \"#utility.yul\":35441:35572   */\n      tag_836\n        /* \"#utility.yul\":35567:35571   */\n      dup2\n        /* \"#utility.yul\":35441:35572   */\n      tag_504\n      jump\t// in\n    tag_836:\n        /* \"#utility.yul\":35433:35572   */\n      swap1\n      pop\n        /* \"#utility.yul\":35160:35579   */\n      swap2\n      swap1\n      pop\n      jump\t// out\n        /* \"#utility.yul\":35585:35750   */\n    tag_505:\n        /* \"#utility.yul\":35725:35742   */\n      0x50656572206e6f742062616e6e65640000000000000000000000000000000000\n        /* \"#utility.yul\":35721:35722   */\n      0x00\n        /* \"#utility.yul\":35713:35719   */\n      dup3\n        /* \"#utility.yul\":35709:35723   */\n      add\n        /* \"#utility.yul\":35702:35743   */\n      mstore\n        /* \"#utility.yul\":35585:35750   */\n      pop\n      jump\t// out\n        /* \"#utility.yul\":35756:36122   */\n    tag_506:\n        /* \"#utility.yul\":35898:35901   */\n      0x00\n        /* \"#utility.yul\":35919:35986   */\n      tag_839\n        /* \"#utility.yul\":35983:35985   */\n      0x0f\n        /* \"#utility.yul\":35978:35981   */\n      dup4\n        /* \"#utility.yul\":35919:35986   */\n      tag_453\n      jump\t// in\n    tag_839:\n        /* \"#utility.yul\":35912:35986   */\n      swap2\n      pop\n        /* \"#utility.yul\":35995:36088   */\n      tag_840\n        /* \"#utility.yul\":36084:36087   */\n      dup3\n        /* \"#utility.yul\":35995:36088   */\n      tag_505\n      jump\t// in\n    tag_840:\n        /* \"#utility.yul\":36113:36115   */\n      0x20\n        /* \"#utility.yul\":36108:36111   */\n      dup3\n        /* \"#utility.yul\":36104:36116   */\n      add\n        /* \"#utility.yul\":36097:36116   */\n      swap1\n      pop\n        /* \"#utility.yul\":35756:36122   */\n      swap2\n      swap1\n      pop\n      jump\t// out\n        /* \"#utility.yul\":36128:36547   */\n    tag_356:\n        /* \"#utility.yul\":36294:36298   */\n      0x00\n        /* \"#utility.yul\":36332:36334   */\n      0x20\n        /* \"#utility.yul\":36321:36330   */\n      dup3\n        /* \"#utility.yul\":36317:36335   */\n      add\n        /* \"#utility.yul\":36309:36335   */\n      swap1\n      pop\n        /* \"#utility.yul\":36381:36390   */\n      dup2\n        /* \"#utility.yul\":36375:36379   */\n      dup2\n        /* \"#utility.yul\":36371:36391   */\n      sub\n        /* \"#utility.yul\":36367:36368   */\n      0x00\n        /* \"#utility.yul\":36356:36365   */\n      dup4\n        /* \"#utility.yul\":36352:36369   */\n      add\n        /* \"#utility.yul\":36345:36392   */\n      mstore\n        /* \"#utility.yul\":36409:36540   */\n      tag_842\n        /* \"#utility.yul\":36535:36539   */\n      dup2\n        /* \"#utility.yul\":36409:36540   */\n      tag_506\n      jump\t// in\n    tag_842:\n        /* \"#utility.yul\":36401:36540   */\n      swap1\n      pop\n        /* \"#utility.yul\":36128:36547   */\n      swap2\n      swap1\n      pop\n      jump\t// out\n        /* \"#utility.yul\":36553:36721   */\n    tag_507:\n        /* \"#utility.yul\":36693:36713   */\n      0x496e76616c696420636f6d6d69746d656e740000000000000000000000000000\n        /* \"#utility.yul\":36689:36690   */\n      0x00\n        /* \"#utility.yul\":36681:36687   */\n      dup3\n        /* \"#utility.yul\":36677:36691   */\n      add\n        /* \"#utility.yul\":36670:36714   */\n      mstore\n        /* \"#utility.yul\":36553:36721   */\n      pop\n      jump\t// out\n        /* \"#utility.yul\":36727:37093   */\n    tag_508:\n        /* \"#utility.yul\":36869:36872   */\n      0x00\n        /* \"#utility.yul\":36890:36957   */\n      tag_845\n        /* \"#utility.yul\":36954:36956   */\n      0x12\n        /* \"#utility.yul\":36949:36952   */\n      dup4\n        /* \"#utility.yul\":36890:36957   */\n      tag_453\n      jump\t// in\n    tag_845:\n        /* \"#utility.yul\":36883:36957   */\n      swap2\n      pop\n        /* \"#utility.yul\":36966:37059   */\n      tag_846\n        /* \"#utility.yul\":37055:37058   */\n      dup3\n        /* \"#utility.yul\":36966:37059   */\n      tag_507\n      jump\t// in\n    tag_846:\n        /* \"#utility.yul\":37084:37086   */\n      0x20\n        /* \"#utility.yul\":37079:37082   */\n      dup3\n        /* \"#utility.yul\":37075:37087   */\n      add\n        /* \"#utility.yul\":37068:37087   */\n      swap1\n      pop\n        /* \"#utility.yul\":36727:37093   */\n      swap2\n      swap1\n      pop\n      jump\t// out\n        /* \"#utility.yul\":37099:37518   */\n    tag_359:\n        /* \"#utility.yul\":37265:37269   */\n      0x00\n        /* \"#utility.yul\":37303:37305   */\n      0x20\n        /* \"#utility.yul\":37292:37301   */\n      dup3\n        /* \"#utility.yul\":37288:37306   */\n      add\n        /* \"#utility.yul\":37280:37306   */\n      swap1\n      pop\n        /* \"#utility.yul\":37352:37361   */\n      dup2\n        /* \"#utility.yul\":37346:37350   */\n      dup2\n        /* \"#utility.yul\":37342:37362   */\n      sub\n        /* \"#utility.yul\":37338:37339   */\n      0x00\n        /* \"#utility.yul\":37327:37336   */\n      dup4\n        /* \"#utility.yul\":37323:37340   */\n      add\n        /* \"#utility.yul\":37316:37363   */\n      mstore\n        /* \"#utility.yul\":37380:37511   */\n      tag_848\n        /* \"#utility.yul\":37506:37510   */\n      dup2\n        /* \"#utility.yul\":37380:37511   */\n      tag_508\n      jump\t// in\n    tag_848:\n        /* \"#utility.yul\":37372:37511   */\n      swap1\n      pop\n        /* \"#utility.yul\":37099:37518   */\n      swap2\n      swap1\n      pop\n      jump\t// out\n        /* \"#utility.yul\":37524:37603   */\n    tag_509:\n        /* \"#utility.yul\":37563:37570   */\n      0x00\n        /* \"#utility.yul\":37592:37597   */\n      dup2\n        /* \"#utility.yul\":37581:37597   */\n      swap1\n      pop\n        /* \"#utility.yul\":37524:37603   */\n      swap2\n      swap1\n      pop\n      jump\t// out\n        /* \"#utility.yul\":37609:37766   */\n    tag_510:\n        /* \"#utility.yul\":37714:37759   */\n      tag_851\n        /* \"#utility.yul\":37734:37758   */\n      tag_852\n        /* \"#utility.yul\":37752:37757   */\n      dup3\n        /* \"#utility.yul\":37734:37758   */\n      tag_427\n      jump\t// in\n    tag_852:\n        /* \"#utility.yul\":37714:37759   */\n      tag_509\n      jump\t// in\n    tag_851:\n        /* \"#utility.yul\":37709:37712   */\n      dup3\n        /* \"#utility.yul\":37702:37760   */\n      mstore\n        /* \"#utility.yul\":37609:37766   */\n      pop\n      pop\n      jump\t// out\n        /* \"#utility.yul\":37772:38028   */\n    tag_361:\n        /* \"#utility.yul\":37884:37887   */\n      0x00\n        /* \"#utility.yul\":37899:37974   */\n      tag_854\n        /* \"#utility.yul\":37970:37973   */\n      dup3\n        /* \"#utility.yul\":37961:37967   */\n      dup5\n        /* \"#utility.yul\":37899:37974   */\n      tag_510\n      jump\t// in\n    tag_854:\n        /* \"#utility.yul\":37999:38001   */\n      0x20\n        /* \"#utility.yul\":37994:37997   */\n      dup3\n        /* \"#utility.yul\":37990:38002   */\n      add\n        /* \"#utility.yul\":37983:38002   */\n      swap2\n      pop\n        /* \"#utility.yul\":38019:38022   */\n      dup2\n        /* \"#utility.yul\":38012:38022   */\n      swap1\n      pop\n        /* \"#utility.yul\":37772:38028   */\n      swap3\n      swap2\n      pop\n      pop\n      jump\t// out\n        /* \"#utility.yul\":38034:38132   */\n    tag_511:\n        /* \"#utility.yul\":38085:38091   */\n      0x00\n        /* \"#utility.yul\":38119:38124   */\n      dup2\n        /* \"#utility.yul\":38113:38125   */\n      mload\n        /* \"#utility.yul\":38103:38125   */\n      swap1\n      pop\n        /* \"#utility.yul\":38034:38132   */\n      swap2\n      swap1\n      pop\n      jump\t// out\n        /* \"#utility.yul\":38138:38306   */\n    tag_512:\n        /* \"#utility.yul\":38221:38232   */\n      0x00\n        /* \"#utility.yul\":38255:38261   */\n      dup3\n        /* \"#utility.yul\":38250:38253   */\n      dup3\n        /* \"#utility.yul\":38243:38262   */\n      mstore\n        /* \"#utility.yul\":38295:38299   */\n      0x20\n        /* \"#utility.yul\":38290:38293   */\n      dup3\n        /* \"#utility.yul\":38286:38300   */\n      add\n        /* \"#utility.yul\":38271:38300   */\n      swap1\n      pop\n        /* \"#utility.yul\":38138:38306   */\n      swap3\n      swap2\n      pop\n      pop\n      jump\t// out\n        /* \"#utility.yul\":38312:38685   */\n    tag_513:\n        /* \"#utility.yul\":38398:38401   */\n      0x00\n        /* \"#utility.yul\":38426:38464   */\n      tag_858\n        /* \"#utility.yul\":38458:38463   */\n      dup3\n        /* \"#utility.yul\":38426:38464   */\n      tag_511\n      jump\t// in\n    tag_858:\n        /* \"#utility.yul\":38480:38550   */\n      tag_859\n        /* \"#utility.yul\":38543:38549   */\n      dup2\n        /* \"#utility.yul\":38538:38541   */\n      dup6\n        /* \"#utility.yul\":38480:38550   */\n      tag_512\n      jump\t// in\n    tag_859:\n        /* \"#utility.yul\":38473:38550   */\n      swap4\n      pop\n        /* \"#utility.yul\":38559:38624   */\n      tag_860\n        /* \"#utility.yul\":38617:38623   */\n      dup2\n        /* \"#utility.yul\":38612:38615   */\n      dup6\n        /* \"#utility.yul\":38605:38609   */\n      0x20\n        /* \"#utility.yul\":38598:38603   */\n      dup7\n        /* \"#utility.yul\":38594:38610   */\n      add\n        /* \"#utility.yul\":38559:38624   */\n      tag_454\n      jump\t// in\n    tag_860:\n        /* \"#utility.yul\":38649:38678   */\n      tag_861\n        /* \"#utility.yul\":38671:38677   */\n      dup2\n        /* \"#utility.yul\":38649:38678   */\n      tag_455\n      jump\t// in\n    tag_861:\n        /* \"#utility.yul\":38644:38647   */\n      dup5\n        /* \"#utility.yul\":38640:38679   */\n      add\n        /* \"#utility.yul\":38633:38679   */\n      swap2\n      pop\n        /* \"#utility.yul\":38402:38685   */\n      pop\n        /* \"#utility.yul\":38312:38685   */\n      swap3\n      swap2\n      pop\n      pop\n      jump\t// out\n        /* \"#utility.yul\":38691:39110   */\n    tag_363:\n        /* \"#utility.yul\":38830:38834   */\n      0x00\n        /* \"#utility.yul\":38868:38870   */\n      0x40\n        /* \"#utility.yul\":38857:38866   */\n      dup3\n        /* \"#utility.yul\":38853:38871   */\n      add\n        /* \"#utility.yul\":38845:38871   */\n      swap1\n      pop\n        /* \"#utility.yul\":38881:38952   */\n      tag_863\n        /* \"#utility.yul\":38949:38950   */\n      0x00\n        /* \"#utility.yul\":38938:38947   */\n      dup4\n        /* \"#utility.yul\":38934:38951   */\n      add\n        /* \"#utility.yul\":38925:38931   */\n      dup6\n        /* \"#utility.yul\":38881:38952   */\n      tag_451\n      jump\t// in\n    tag_863:\n        /* \"#utility.yul\":38999:39008   */\n      dup2\n        /* \"#utility.yul\":38993:38997   */\n      dup2\n        /* \"#utility.yul\":38989:39009   */\n      sub\n        /* \"#utility.yul\":38984:38986   */\n      0x20\n        /* \"#utility.yul\":38973:38982   */\n      dup4\n        /* \"#utility.yul\":38969:38987   */\n      add\n        /* \"#utility.yul\":38962:39010   */\n      mstore\n        /* \"#utility.yul\":39027:39103   */\n      tag_864\n        /* \"#utility.yul\":39098:39102   */\n      dup2\n        /* \"#utility.yul\":39089:39095   */\n      dup5\n        /* \"#utility.yul\":39027:39103   */\n      tag_513\n      jump\t// in\n    tag_864:\n        /* \"#utility.yul\":39019:39103   */\n      swap1\n      pop\n        /* \"#utility.yul\":38691:39110   */\n      swap4\n      swap3\n      pop\n      pop\n      pop\n      jump\t// out\n        /* \"#utility.yul\":39116:39286   */\n    tag_514:\n        /* \"#utility.yul\":39256:39278   */\n      0x496e76616c69642061707065616c2070726f6f66000000000000000000000000\n        /* \"#utility.yul\":39252:39253   */\n      0x00\n        /* \"#utility.yul\":39244:39250   */\n      dup3\n        /* \"#utility.yul\":39240:39254   */\n      add\n        /* \"#utility.yul\":39233:39279   */\n      mstore\n        /* \"#utility.yul\":39116:39286   */\n      pop\n      jump\t// out\n        /* \"#utility.yul\":39292:39658   */\n    tag_515:\n        /* \"#utility.yul\":39434:39437   */\n      0x00\n        /* \"#utility.yul\":39455:39522   */\n      tag_867\n        /* \"#utility.yul\":39519:39521   */\n      0x14\n        /* \"#utility.yul\":39514:39517   */\n      dup4\n        /* \"#utility.yul\":39455:39522   */\n      tag_453\n      jump\t// in\n    tag_867:\n        /* \"#utility.yul\":39448:39522   */\n      swap2\n      pop\n        /* \"#utility.yul\":39531:39624   */\n      tag_868\n        /* \"#utility.yul\":39620:39623   */\n      dup3\n        /* \"#utility.yul\":39531:39624   */\n      tag_514\n      jump\t// in\n    tag_868:\n        /* \"#utility.yul\":39649:39651   */\n      0x20\n        /* \"#utility.yul\":39644:39647   */\n      dup3\n        /* \"#utility.yul\":39640:39652   */\n      add\n        /* \"#utility.yul\":39633:39652   */\n      swap1\n      pop\n        /* \"#utility.yul\":39292:39658   */\n      swap2\n      swap1\n      pop\n      jump\t// out\n        /* \"#utility.yul\":39664:40083   */\n    tag_369:\n        /* \"#utility.yul\":39830:39834   */\n      0x00\n        /* \"#utility.yul\":39868:39870   */\n      0x20\n        /* \"#utility.yul\":39857:39866   */\n      dup3\n        /* \"#utility.yul\":39853:39871   */\n      add\n        /* \"#utility.yul\":39845:39871   */\n      swap1\n      pop\n        /* \"#utility.yul\":39917:39926   */\n      dup2\n        /* \"#utility.yul\":39911:39915   */\n      dup2\n        /* \"#utility.yul\":39907:39927   */\n      sub\n        /* \"#utility.yul\":39903:39904   */\n      0x00\n        /* \"#utility.yul\":39892:39901   */\n      dup4\n        /* \"#utility.yul\":39888:39905   */\n      add\n        /* \"#utility.yul\":39881:39928   */\n      mstore\n        /* \"#utility.yul\":39945:40076   */\n      tag_870\n        /* \"#utility.yul\":40071:40075   */\n      dup2\n        /* \"#utility.yul\":39945:40076   */\n      tag_515\n      jump\t// in\n    tag_870:\n        /* \"#utility.yul\":39937:40076   */\n      swap1\n      pop\n        /* \"#utility.yul\":39664:40083   */\n      swap2\n      swap1\n      pop\n      jump\t// out\n        /* \"#utility.yul\":40089:40322   */\n    tag_371:\n        /* \"#utility.yul\":40128:40131   */\n      0x00\n        /* \"#utility.yul\":40151:40175   */\n      tag_872\n        /* \"#utility.yul\":40169:40174   */\n      dup3\n        /* \"#utility.yul\":40151:40175   */\n      tag_430\n      jump\t// in\n    tag_872:\n        /* \"#utility.yul\":40142:40175   */\n      swap2\n      pop\n        /* \"#utility.yul\":40197:40263   */\n      0xffffffffffffffffffffffffffffffffffffffffffffffffffffffffffffffff\n        /* \"#utility.yul\":40190:40195   */\n      dup3\n        /* \"#utility.yul\":40187:40264   */\n      sub\n        /* \"#utility.yul\":40184:40287   */\n      tag_873\n      jumpi\n        /* \"#utility.yul\":40267:40285   */\n      tag_874\n      tag_480\n      jump\t// in\n    tag_874:\n        /* \"#utility.yul\":40184:40287   */\n    tag_873:\n        /* \"#utility.yul\":40314:40315   */\n      0x01\n        /* \"#utility.yul\":40307:40312   */\n      dup3\n        /* \"#utility.yul\":40303:40316   */\n      add\n        /* \"#utility.yul\":40296:40316   */\n      swap1\n      pop\n        /* \"#utility.yul\":40089:40322   */\n      swap2\n      swap1\n      pop\n      jump\t// out\n        /* \"#utility.yul\":40328:40498   */\n    tag_516:\n        /* \"#utility.yul\":40468:40490   */\n      0x496e76616c6964207374617475732070726f6f66000000000000000000000000\n        /* \"#utility.yul\":40464:40465   */\n      0x00\n        /* \"#utility.yul\":40456:40462   */\n      dup3\n        /* \"#utility.yul\":40452:40466   */\n      add\n        /* \"#utility.yul\":40445:40491   */\n      mstore\n        /* \"#utility.yul\":40328:40498   */\n      pop\n      jump\t// out\n        /* \"#utility.yul\":40504:40870   */\n    tag_517:\n        /* \"#utility.yul\":40646:40649   */\n      0x00\n        /* \"#utility.yul\":40667:40734   */\n      tag_877\n        /* \"#utility.yul\":40731:40733   */\n      0x14\n        /* \"#utility.yul\":40726:40729   */\n      dup4\n        /* \"#utility.yul\":40667:40734   */\n      tag_453\n      jump\t// in\n    tag_877:\n        /* \"#utility.yul\":40660:40734   */\n      swap2\n      pop\n        /* \"#utility.yul\":40743:40836   */\n      tag_878\n        /* \"#utility.yul\":40832:40835   */\n      dup3\n        /* \"#utility.yul\":40743:40836   */\n      tag_516\n      jump\t// in\n    tag_878:\n        /* \"#utility.yul\":40861:40863   */\n      0x20\n        /* \"#utility.yul\":40856:40859   */\n      dup3\n        /* \"#utility.yul\":40852:40864   */\n      add\n        /* \"#utility.yul\":40845:40864   */\n      swap1\n      pop\n        /* \"#utility.yul\":40504:40870   */\n      swap2\n      swap1\n      pop\n      jump\t// out\n        /* \"#utility.yul\":40876:41295   */\n    tag_384:\n        /* \"#utility.yul\":41042:41046   */\n      0x00\n        /* \"#utility.yul\":41080:41082   */\n      0x20\n        /* \"#utility.yul\":41069:41078   */\n      dup3\n        /* \"#utility.yul\":41065:41083   */\n      add\n        /* \"#utility.yul\":41057:41083   */\n      swap1\n      pop\n        /* \"#utility.yul\":41129:41138   */\n      dup2\n        /* \"#utility.yul\":41123:41127   */\n      dup2\n        /* \"#utility.yul\":41119:41139   */\n      sub\n        /* \"#utility.yul\":41115:41116   */\n      0x00\n        /* \"#utility.yul\":41104:41113   */\n      dup4\n        /* \"#utility.yul\":41100:41117   */\n      add\n        /* \"#utility.yul\":41093:41140   */\n      mstore\n        /* \"#utility.yul\":41157:41288   */\n      tag_880\n        /* \"#utility.yul\":41283:41287   */\n      dup2\n        /* \"#utility.yul\":41157:41288   */\n      tag_517\n      jump\t// in\n    tag_880:\n        /* \"#utility.yul\":41149:41288   */\n      swap1\n      pop\n        /* \"#utility.yul\":40876:41295   */\n      swap2\n      swap1\n      pop\n      jump\t// out\n        /* \"#utility.yul\":41301:41621   */\n    tag_390:\n        /* \"#utility.yul\":41416:41420   */\n      0x00\n        /* \"#utility.yul\":41454:41456   */\n      0x40\n        /* \"#utility.yul\":41443:41452   */\n      dup3\n        /* \"#utility.yul\":41439:41457   */\n      add\n        /* \"#utility.yul\":41431:41457   */\n      swap1\n      pop\n        /* \"#utility.yul\":41467:41532   */\n      tag_882\n        /* \"#utility.yul\":41529:41530   */\n      0x00\n        /* \"#utility.yul\":41518:41527   */\n      dup4\n        /* \"#utility.yul\":41514:41531   */\n      add\n        /* \"#utility.yul\":41505:41511   */\n      dup6\n        /* \"#utility.yul\":41467:41532   */\n      tag_447\n      jump\t// in\n    tag_882:\n        /* \"#utility.yul\":41542:41614   */\n      tag_883\n        /* \"#utility.yul\":41610:41612   */\n      0x20\n        /* \"#utility.yul\":41599:41608   */\n      dup4\n        /* \"#utility.yul\":41595:41613   */\n      add\n        /* \"#utility.yul\":41586:41592   */\n      dup5\n        /* \"#utility.yul\":41542:41614   */\n      tag_431\n      jump\t// in\n    tag_883:\n        /* \"#utility.yul\":41301:41621   */\n      swap4\n      swap3\n      pop\n      pop\n      pop\n      jump\t// out\n\n    auxdata: 0xa2646970667358221220105ff26ee79332491842aff62e19a7ad36d7178d91db307712242abbe768b56064736f6c634300081a0033\n}\n",
				"bytecode": {
					"linkReferences": {},
					"object": "608060405234801561000f575f80fd5b5060405161365938038061365983398181016040528101906100319190610238565b815f73ffffffffffffffffffffffffffffffffffffffff168173ffffffffffffffffffffffffffffffffffffffff16036100a2575f6040517f1e4fbdf70000000000000000000000000000000000000000000000000000000081526004016100999190610285565b60405180910390fd5b6100b18161011960201b60201c565b50600180819055505f60025f6101000a81548160ff02191690831515021790555080600a5f6101000a81548173ffffffffffffffffffffffffffffffffffffffff021916908373ffffffffffffffffffffffffffffffffffffffff160217905550505061029e565b5f805f9054906101000a900473ffffffffffffffffffffffffffffffffffffffff169050815f806101000a81548173ffffffffffffffffffffffffffffffffffffffff021916908373ffffffffffffffffffffffffffffffffffffffff1602179055508173ffffffffffffffffffffffffffffffffffffffff168173ffffffffffffffffffffffffffffffffffffffff167f8be0079c531659141344cd1fd0a4f28419497f9722a3daafe3b4186f6b6457e060405160405180910390a35050565b5f80fd5b5f73ffffffffffffffffffffffffffffffffffffffff82169050919050565b5f610207826101de565b9050919050565b610217816101fd565b8114610221575f80fd5b50565b5f815190506102328161020e565b92915050565b5f806040838503121561024e5761024d6101da565b5b5f61025b85828601610224565b925050602061026c85828601610224565b9150509250929050565b61027f816101fd565b82525050565b5f6020820190506102985f830184610276565b92915050565b6133ae806102ab5f395ff3fe608060405260043610610203575f3560e01c806381aa806711610117578063cb1c2b5c1161009f578063e13ecb1d1161006e578063e13ecb1d14610764578063e5a99abb1461078c578063e6962ad5146107b6578063f28b7851146107e0578063f2fde38b1461080a57610203565b8063cb1c2b5c146106ac578063d213c0f2146106d6578063df3e1f9714610700578063e123bb0e1461072857610203565b806397fc007c116100e657806397fc007c146105ba5780639976e569146105e2578063b2a93e7c1461061e578063bbcfaf051461065a578063be830f421461068257610203565b806381aa8067146104fe5780638456cb591461053a578063852ac836146105505780638da5cb5b1461059057610203565b80635933752f1161019a5780636dc08264116101695780636dc0826414610412578063715018a6146104525780637b057258146104685780637ba6c9d8146104925780638030b496146104ba57610203565b80635933752f146103665780635c975abb146103825780636133b146146103ac578063614fc7bc146103e857610203565b80634a8cd9c8116101d65780634a8cd9c8146102b05780634aa06447146102d857806350236a2c1461030257806352b79f261461032a57610203565b806321565342146102075780632b7ac3f3146102465780633f4ba83a1461027057806348e55a8f14610286575b5f80fd5b348015610212575f80fd5b5061022d6004803603810190610228919061206e565b610832565b60405161023d94939291906120b1565b60405180910390f35b348015610251575f80fd5b5061025a6108b0565b604051610267919061216e565b60405180910390f35b34801561027b575f80fd5b506102846108d5565b005b348015610291575f80fd5b5061029a6108e7565b6040516102a79190612187565b60405180910390f35b3480156102bb575f80fd5b506102d660048036038101906102d191906121ff565b6108ed565b005b3480156102e3575f80fd5b506102ec610b70565b6040516102f99190612187565b60405180910390f35b34801561030d575f80fd5b50610328600480360381019061032391906122c4565b610b75565b005b348015610335575f80fd5b50610350600480360381019061034b919061206e565b610d61565b60405161035d9190612344565b60405180910390f35b610380600480360381019061037b919061235d565b610dcd565b005b34801561038d575f80fd5b50610396610fbb565b6040516103a39190612344565b60405180910390f35b3480156103b7575f80fd5b506103d260048036038101906103cd91906123e8565b610fd0565b6040516103df9190612422565b60405180910390f35b3480156103f3575f80fd5b506103fc610fe5565b6040516104099190612187565b60405180910390f35b34801561041d575f80fd5b506104386004803603810190610433919061243b565b610fee565b6040516104499594939291906124e9565b60405180910390f35b34801561045d575f80fd5b5061046661113e565b005b348015610473575f80fd5b5061047c611151565b6040516104899190612187565b60405180910390f35b34801561049d575f80fd5b506104b860048036038101906104b39190612577565b611157565b005b3480156104c5575f80fd5b506104e060048036038101906104db919061206e565b6111ee565b6040516104f5999897969594939291906125a2565b60405180910390f35b348015610509575f80fd5b50610524600480360381019061051f919061206e565b611244565b60405161053191906127d0565b60405180910390f35b348015610545575f80fd5b5061054e611378565b005b34801561055b575f80fd5b506105766004803603810190610571919061206e565b61138a565b6040516105879594939291906127ff565b60405180910390f35b34801561059b575f80fd5b506105a461141a565b6040516105b19190612850565b60405180910390f35b3480156105c5575f80fd5b506105e060048036038101906105db91906123e8565b611441565b005b3480156105ed575f80fd5b5061060860048036038101906106039190612869565b61153d565b6040516106159190612344565b60405180910390f35b348015610629575f80fd5b50610644600480360381019061063f9190612869565b611567565b6040516106519190612344565b60405180910390f35b348015610665575f80fd5b50610680600480360381019061067b9190612869565b61160b565b005b34801561068d575f80fd5b50610696611808565b6040516106a39190612187565b60405180910390f35b3480156106b7575f80fd5b506106c0611811565b6040516106cd9190612187565b60405180910390f35b3480156106e1575f80fd5b506106ea61181e565b6040516106f79190612187565b60405180910390f35b34801561070b575f80fd5b5061072660048036038101906107219190612869565b611824565b005b348015610733575f80fd5b5061074e6004803603810190610749919061243b565b611ade565b60405161075b9190612422565b60405180910390f35b34801561076f575f80fd5b5061078a600480360381019061078591906128a7565b611afe565b005b348015610797575f80fd5b506107a0611d0a565b6040516107ad9190612187565b60405180910390f35b3480156107c1575f80fd5b506107ca611d10565b6040516107d79190612187565b60405180910390f35b3480156107eb575f80fd5b506107f4611d15565b6040516108019190612187565b60405180910390f35b348015610815575f80fd5b50610830600480360381019061082b91906123e8565b611d1c565b005b5f805f805f60055f3373ffffffffffffffffffffffffffffffffffffffff1673ffffffffffffffffffffffffffffffffffffffff1681526020019081526020015f205490505f60045f8381526020019081526020015f2090508060030154816004015482600101548360050154955095509550955050509193509193565b600a5f9054906101000a900473ffffffffffffffffffffffffffffffffffffffff1681565b6108dd611da0565b6108e5611e27565b565b60095481565b6108f5611da0565b5f60055f3373ffffffffffffffffffffffffffffffffffffffff1673ffffffffffffffffffffffffffffffffffffffff1681526020019081526020015f2054905060045f8281526020019081526020015f206007015f9054906101000a900460ff16610996576040517f08c379a000000000000000000000000000000000000000000000000000000000815260040161098d90612941565b60405180910390fd5b6103e88411156109db576040517f08c379a00000000000000000000000000000000000000000000000000000000081526004016109d2906129a9565b60405180910390fd5b600a5f9054906101000a900473ffffffffffffffffffffffffffffffffffffffff1673ffffffffffffffffffffffffffffffffffffffff1663bcca19c286846040518363ffffffff1660e01b8152600401610a379291906129c7565b602060405180830381865afa158015610a52573d5f803e3d5ffd5b505050506040513d601f19601f82011682018060405250810190610a769190612a02565b610ab5576040517f08c379a0000000000000000000000000000000000000000000000000000000008152600401610aac90612a77565b60405180910390fd5b5f60045f8381526020019081526020015f2090505f816001015490505f8515610afb578682610ae49190612ac2565b9050612710811115610af65761271090505b610b18565b868211610b08575f610b15565b8682610b149190612af5565b5b90505b808360010181905550428360060181905550837f3e8d5485985d0b5b604b4c06c1794b1fd4e769466efd730318fbb21f1a73fecc838342604051610b5e93929190612b28565b60405180910390a25050505050505050565b600381565b610b7d611da0565b5f60055f3373ffffffffffffffffffffffffffffffffffffffff1673ffffffffffffffffffffffffffffffffffffffff1681526020019081526020015f205490505f801b8103610c02576040517f08c379a0000000000000000000000000000000000000000000000000000000008152600401610bf990612ba7565b60405180910390fd5b600a5f9054906101000a900473ffffffffffffffffffffffffffffffffffffffff1673ffffffffffffffffffffffffffffffffffffffff1663efb4269b86846040518363ffffffff1660e01b8152600401610c5e9291906129c7565b602060405180830381865afa158015610c79573d5f803e3d5ffd5b505050506040513d601f19601f82011682018060405250810190610c9d9190612a02565b610cdc576040517f08c379a0000000000000000000000000000000000000000000000000000000008152600401610cd390612c0f565b60405180910390fd5b5f60045f8381526020019081526020015f206007015f6101000a81548160ff02191690831515021790555060095f815480929190610d1990612c2d565b9190505550807fd26f6b25dd880d701fc40a72cd7d2916f01a08ffde8def5fbad62d936a8726f2858542604051610d5293929190612c8e565b60405180910390a25050505050565b5f8060055f3373ffffffffffffffffffffffffffffffffffffffff1673ffffffffffffffffffffffffffffffffffffffff1681526020019081526020015f2054905060045f8281526020019081526020015f206007015f9054906101000a900460ff1615915050919050565b803414610e0f576040517f08c379a0000000000000000000000000000000000000000000000000000000008152600401610e0690612d08565b60405180910390fd5b683635c9adc5dea00000341015610e5b576040517f08c379a0000000000000000000000000000000000000000000000000000000008152600401610e5290612d70565b60405180910390fd5b5f801b60055f3373ffffffffffffffffffffffffffffffffffffffff1673ffffffffffffffffffffffffffffffffffffffff1681526020019081526020015f205414610edc576040517f08c379a0000000000000000000000000000000000000000000000000000000008152600401610ed390612dd8565b60405180910390fd5b600a5f9054906101000a900473ffffffffffffffffffffffffffffffffffffffff1673ffffffffffffffffffffffffffffffffffffffff1663d95115bc84846040518363ffffffff1660e01b8152600401610f389291906129c7565b602060405180830381865afa158015610f53573d5f803e3d5ffd5b505050506040513d601f19601f82011682018060405250810190610f779190612a02565b610fb6576040517f08c379a0000000000000000000000000000000000000000000000000000000008152600401610fad90612e40565b60405180910390fd5b505050565b5f60025f9054906101000a900460ff16905090565b6005602052805f5260405f205f915090505481565b5f600954905090565b5f8060605f8060035f8881526020019081526020015f2080549050861061104a576040517f08c379a000000000000000000000000000000000000000000000000000000000815260040161104190612ea8565b60405180910390fd5b5f60035f8981526020019081526020015f20878154811061106e5761106d612ec6565b5b905f5260205f2090600502019050805f01548160010154826002018360030154846004015f9054906101000a900460ff168280546110ab90612f20565b80601f01602080910402602001604051908101604052809291908181526020018280546110d790612f20565b80156111225780601f106110f957610100808354040283529160200191611122565b820191905f5260205f20905b81548152906001019060200180831161110557829003601f168201915b5050505050925095509550955095509550509295509295909350565b611146611da0565b61114f5f611e88565b565b61138881565b61115f611da0565b5f8160ff16118015611175575060648160ff1611155b6111b4576040517f08c379a00000000000000000000000000000000000000000000000000000000081526004016111ab90612f9a565b60405180910390fd5b7fb0e4dffcc6b4ff3923e304eb9279d517bf22b24e1bf0509d4e58604eab32d292816040516111e39190612fc7565b60405180910390a150565b6004602052805f5260405f205f91509050805f015490806001015490806002015490806003015490806004015490806005015490806006015490806007015f9054906101000a900460ff16908060080154905089565b606060035f8381526020019081526020015f20805480602002602001604051908101604052809291908181526020015f905b8282101561136d578382905f5260205f2090600502016040518060a00160405290815f8201548152602001600182015481526020016002820180546112ba90612f20565b80601f01602080910402602001604051908101604052809291908181526020018280546112e690612f20565b80156113315780601f1061130857610100808354040283529160200191611331565b820191905f5260205f20905b81548152906001019060200180831161131457829003601f168201915b5050505050815260200160038201548152602001600482015f9054906101000a900460ff16151515158152505081526020019060010190611276565b505050509050919050565b611380611da0565b611388611f49565b565b5f805f805f8060055f3373ffffffffffffffffffffffffffffffffffffffff1673ffffffffffffffffffffffffffffffffffffffff1681526020019081526020015f205490505f60045f8381526020019081526020015f20905033816007015f9054906101000a900460ff1682600201548360060154846001015496509650965096509650505091939590929450565b5f805f9054906101000a900473ffffffffffffffffffffffffffffffffffffffff16905090565b611449611da0565b5f73ffffffffffffffffffffffffffffffffffffffff168173ffffffffffffffffffffffffffffffffffffffff16036114b7576040517f08c379a00000000000000000000000000000000000000000000000000000000081526004016114ae9061302a565b60405180910390fd5b80600a5f6101000a81548173ffffffffffffffffffffffffffffffffffffffff021916908373ffffffffffffffffffffffffffffffffffffffff1602179055508073ffffffffffffffffffffffffffffffffffffffff167fd24015cc99cc1700cafca3042840a1d8ac1e3964fd2e0e37ea29c654056ee32760405160405180910390a250565b6006602052815f5260405f20602052805f5260405f205f915091509054906101000a900460ff1681565b5f600a5f9054906101000a900473ffffffffffffffffffffffffffffffffffffffff1673ffffffffffffffffffffffffffffffffffffffff1663b2a93e7c84846040518363ffffffff1660e01b81526004016115c49291906129c7565b602060405180830381865afa1580156115df573d5f803e3d5ffd5b505050506040513d601f19601f820116820180604052508101906116039190612a02565b905092915050565b5f60055f3373ffffffffffffffffffffffffffffffffffffffff1673ffffffffffffffffffffffffffffffffffffffff1681526020019081526020015f205490505f801b8103611690576040517f08c379a000000000000000000000000000000000000000000000000000000000815260040161168790612ba7565b60405180910390fd5b60045f8281526020019081526020015f206007015f9054906101000a900460ff166116f0576040517f08c379a00000000000000000000000000000000000000000000000000000000081526004016116e790612941565b60405180910390fd5b600a5f9054906101000a900473ffffffffffffffffffffffffffffffffffffffff1673ffffffffffffffffffffffffffffffffffffffff1663b2a93e7c84846040518363ffffffff1660e01b815260040161174c9291906129c7565b602060405180830381865afa158015611767573d5f803e3d5ffd5b505050506040513d601f19601f8201168201806040525081019061178b9190612a02565b6117ca576040517f08c379a00000000000000000000000000000000000000000000000000000000081526004016117c190613092565b60405180910390fd5b82817f516e577143c56da8a9a22a288231bdfc3a2528c47888ec00e2936e9aec240231426040516117fb9190612187565b60405180910390a3505050565b5f600854905090565b683635c9adc5dea0000081565b61271081565b5f60055f3373ffffffffffffffffffffffffffffffffffffffff1673ffffffffffffffffffffffffffffffffffffffff1681526020019081526020015f205490505f801b81036118a9576040517f08c379a00000000000000000000000000000000000000000000000000000000081526004016118a090612ba7565b60405180910390fd5b60045f8281526020019081526020015f206007015f9054906101000a900460ff161561190a576040517f08c379a0000000000000000000000000000000000000000000000000000000008152600401611901906130fa565b60405180910390fd5b8260045f8381526020019081526020015f206008015414611960576040517f08c379a000000000000000000000000000000000000000000000000000000000815260040161195790613162565b60405180910390fd5b5f8260405160200161197291906131a0565b6040516020818303038152906040529050600a5f9054906101000a900473ffffffffffffffffffffffffffffffffffffffff1673ffffffffffffffffffffffffffffffffffffffff16634e6c6feb85836040518363ffffffff1660e01b81526004016119df92919061320c565b602060405180830381865afa1580156119fa573d5f803e3d5ffd5b505050506040513d601f19601f82011682018060405250810190611a1e9190612a02565b611a5d576040517f08c379a0000000000000000000000000000000000000000000000000000000008152600401611a5490613284565b60405180910390fd5b600160045f8481526020019081526020015f206007015f6101000a81548160ff02191690831515021790555060095f815480929190611a9b906132a2565b9190505550817f941ee4b40b62fac42025f4a918ffb407f9a0a435bfacddfef438d146f4a06f5c42604051611ad09190612187565b60405180910390a250505050565b6007602052815f5260405f20602052805f5260405f205f91509150505481565b611b06611da0565b5f60055f3373ffffffffffffffffffffffffffffffffffffffff1673ffffffffffffffffffffffffffffffffffffffff1681526020019081526020015f205490505f801b8103611b8b576040517f08c379a0000000000000000000000000000000000000000000000000000000008152600401611b8290612ba7565b60405180910390fd5b600a5f9054906101000a900473ffffffffffffffffffffffffffffffffffffffff1673ffffffffffffffffffffffffffffffffffffffff16631e08324785846040518363ffffffff1660e01b8152600401611be79291906129c7565b602060405180830381865afa158015611c02573d5f803e3d5ffd5b505050506040513d601f19601f82011682018060405250810190611c269190612a02565b611c65576040517f08c379a0000000000000000000000000000000000000000000000000000000008152600401611c5c90613333565b60405180910390fd5b8260045f8381526020019081526020015f206007015f6101000a81548160ff0219169083151502179055508215611cb25760095f815480929190611ca8906132a2565b9190505550611cca565b60095f815480929190611cc490612c2d565b91905055505b807f80df6f94561e528575515c9d1ffb2120a96e261d93dc24dcea7cfc74964712438442604051611cfc929190613351565b60405180910390a250505050565b60085481565b600a81565b62093a8081565b611d24611da0565b5f73ffffffffffffffffffffffffffffffffffffffff168173ffffffffffffffffffffffffffffffffffffffff1603611d94575f6040517f1e4fbdf7000000000000000000000000000000000000000000000000000000008152600401611d8b9190612850565b60405180910390fd5b611d9d81611e88565b50565b611da8611fab565b73ffffffffffffffffffffffffffffffffffffffff16611dc661141a565b73ffffffffffffffffffffffffffffffffffffffff1614611e2557611de9611fab565b6040517f118cdaa7000000000000000000000000000000000000000000000000000000008152600401611e1c9190612850565b60405180910390fd5b565b611e2f611fb2565b5f60025f6101000a81548160ff0219169083151502179055507f5db9ee0a495bf2e6ff9c91a7834c1ba4fdd244a5e8aa4e537bd38aeae4b073aa611e71611fab565b604051611e7e9190612850565b60405180910390a1565b5f805f9054906101000a900473ffffffffffffffffffffffffffffffffffffffff169050815f806101000a81548173ffffffffffffffffffffffffffffffffffffffff021916908373ffffffffffffffffffffffffffffffffffffffff1602179055508173ffffffffffffffffffffffffffffffffffffffff168173ffffffffffffffffffffffffffffffffffffffff167f8be0079c531659141344cd1fd0a4f28419497f9722a3daafe3b4186f6b6457e060405160405180910390a35050565b611f51611ff2565b600160025f6101000a81548160ff0219169083151502179055507f62e78cea01bee320cd4e420270b5ea74000d11b0c9f74754ebdbfc544b05a258611f94611fab565b604051611fa19190612850565b60405180910390a1565b5f33905090565b611fba610fbb565b611ff0576040517f8dfc202b00000000000000000000000000000000000000000000000000000000815260040160405180910390fd5b565b611ffa610fbb565b15612031576040517fd93c066500000000000000000000000000000000000000000000000000000000815260040160405180910390fd5b565b5f80fd5b5f80fd5b5f819050919050565b61204d8161203b565b8114612057575f80fd5b50565b5f8135905061206881612044565b92915050565b5f6020828403121561208357612082612033565b5b5f6120908482850161205a565b91505092915050565b5f819050919050565b6120ab81612099565b82525050565b5f6080820190506120c45f8301876120a2565b6120d160208301866120a2565b6120de60408301856120a2565b6120eb60608301846120a2565b95945050505050565b5f73ffffffffffffffffffffffffffffffffffffffff82169050919050565b5f819050919050565b5f61213661213161212c846120f4565b612113565b6120f4565b9050919050565b5f6121478261211c565b9050919050565b5f6121588261213d565b9050919050565b6121688161214e565b82525050565b5f6020820190506121815f83018461215f565b92915050565b5f60208201905061219a5f8301846120a2565b92915050565b6121a981612099565b81146121b3575f80fd5b50565b5f813590506121c4816121a0565b92915050565b5f8115159050919050565b6121de816121ca565b81146121e8575f80fd5b50565b5f813590506121f9816121d5565b92915050565b5f805f806080858703121561221757612216612033565b5b5f6122248782880161205a565b9450506020612235878288016121b6565b9350506040612246878288016121eb565b92505060606122578782880161205a565b91505092959194509250565b5f80fd5b5f80fd5b5f80fd5b5f8083601f84011261228457612283612263565b5b8235905067ffffffffffffffff8111156122a1576122a0612267565b5b6020830191508360018202830111156122bd576122bc61226b565b5b9250929050565b5f805f80606085870312156122dc576122db612033565b5b5f6122e98782880161205a565b945050602085013567ffffffffffffffff81111561230a57612309612037565b5b6123168782880161226f565b935093505060406123298782880161205a565b91505092959194509250565b61233e816121ca565b82525050565b5f6020820190506123575f830184612335565b92915050565b5f805f6060848603121561237457612373612033565b5b5f6123818682870161205a565b93505060206123928682870161205a565b92505060406123a3868287016121b6565b9150509250925092565b5f6123b7826120f4565b9050919050565b6123c7816123ad565b81146123d1575f80fd5b50565b5f813590506123e2816123be565b92915050565b5f602082840312156123fd576123fc612033565b5b5f61240a848285016123d4565b91505092915050565b61241c8161203b565b82525050565b5f6020820190506124355f830184612413565b92915050565b5f806040838503121561245157612450612033565b5b5f61245e8582860161205a565b925050602061246f858286016121b6565b9150509250929050565b5f81519050919050565b5f82825260208201905092915050565b8281835e5f83830152505050565b5f601f19601f8301169050919050565b5f6124bb82612479565b6124c58185612483565b93506124d5818560208601612493565b6124de816124a1565b840191505092915050565b5f60a0820190506124fc5f830188612413565b6125096020830187612413565b818103604083015261251b81866124b1565b905061252a60608301856120a2565b6125376080830184612335565b9695505050505050565b5f60ff82169050919050565b61255681612541565b8114612560575f80fd5b50565b5f813590506125718161254d565b92915050565b5f6020828403121561258c5761258b612033565b5b5f61259984828501612563565b91505092915050565b5f610120820190506125b65f83018c612413565b6125c3602083018b6120a2565b6125d0604083018a6120a2565b6125dd60608301896120a2565b6125ea60808301886120a2565b6125f760a08301876120a2565b61260460c08301866120a2565b61261160e0830185612335565b61261f610100830184612413565b9a9950505050505050505050565b5f81519050919050565b5f82825260208201905092915050565b5f819050602082019050919050565b61265f8161203b565b82525050565b5f82825260208201905092915050565b5f61267f82612479565b6126898185612665565b9350612699818560208601612493565b6126a2816124a1565b840191505092915050565b6126b681612099565b82525050565b6126c5816121ca565b82525050565b5f60a083015f8301516126e05f860182612656565b5060208301516126f36020860182612656565b506040830151848203604086015261270b8282612675565b915050606083015161272060608601826126ad565b50608083015161273360808601826126bc565b508091505092915050565b5f61274983836126cb565b905092915050565b5f602082019050919050565b5f6127678261262d565b6127718185612637565b93508360208202850161278385612647565b805f5b858110156127be578484038952815161279f858261273e565b94506127aa83612751565b925060208a01995050600181019050612786565b50829750879550505050505092915050565b5f6020820190508181035f8301526127e8818461275d565b905092915050565b6127f9816123ad565b82525050565b5f60a0820190506128125f8301886127f0565b61281f6020830187612335565b61282c60408301866120a2565b61283960608301856120a2565b61284660808301846120a2565b9695505050505050565b5f6020820190506128635f8301846127f0565b92915050565b5f806040838503121561287f5761287e612033565b5b5f61288c8582860161205a565b925050602061289d8582860161205a565b9150509250929050565b5f805f606084860312156128be576128bd612033565b5b5f6128cb8682870161205a565b93505060206128dc868287016121eb565b92505060406128ed8682870161205a565b9150509250925092565b7f50656572206e6f742061637469766500000000000000000000000000000000005f82015250565b5f61292b600f83612483565b9150612936826128f7565b602082019050919050565b5f6020820190508181035f8301526129588161291f565b9050919050565b7f496e76616c6964206368616e676520616d6f756e7400000000000000000000005f82015250565b5f612993601583612483565b915061299e8261295f565b602082019050919050565b5f6020820190508181035f8301526129c081612987565b9050919050565b5f6040820190506129da5f830185612413565b6129e76020830184612413565b9392505050565b5f815190506129fc816121d5565b92915050565b5f60208284031215612a1757612a16612033565b5b5f612a24848285016129ee565b91505092915050565b7f496e76616c69642072657075746174696f6e2070726f6f6600000000000000005f82015250565b5f612a61601883612483565b9150612a6c82612a2d565b602082019050919050565b5f6020820190508181035f830152612a8e81612a55565b9050919050565b7f4e487b71000000000000000000000000000000000000000000000000000000005f52601160045260245ffd5b5f612acc82612099565b9150612ad783612099565b9250828201905080821115612aef57612aee612a95565b5b92915050565b5f612aff82612099565b9150612b0a83612099565b9250828203905081811115612b2257612b21612a95565b5b92915050565b5f606082019050612b3b5f8301866120a2565b612b4860208301856120a2565b612b5560408301846120a2565b949350505050565b7f4e6f7420726567697374657265640000000000000000000000000000000000005f82015250565b5f612b91600e83612483565b9150612b9c82612b5d565b602082019050919050565b5f6020820190508181035f830152612bbe81612b85565b9050919050565b7f496e76616c69642062616e2070726f6f660000000000000000000000000000005f82015250565b5f612bf9601183612483565b9150612c0482612bc5565b602082019050919050565b5f6020820190508181035f830152612c2681612bed565b9050919050565b5f612c3782612099565b91505f8203612c4957612c48612a95565b5b600182039050919050565b828183375f83830152505050565b5f612c6d8385612483565b9350612c7a838584612c54565b612c83836124a1565b840190509392505050565b5f6040820190508181035f830152612ca7818587612c62565b9050612cb660208301846120a2565b949350505050565b7f496e636f7272656374207374616b6520616d6f756e74000000000000000000005f82015250565b5f612cf2601683612483565b9150612cfd82612cbe565b602082019050919050565b5f6020820190508181035f830152612d1f81612ce6565b9050919050565b7f496e73756666696369656e74207374616b6500000000000000000000000000005f82015250565b5f612d5a601283612483565b9150612d6582612d26565b602082019050919050565b5f6020820190508181035f830152612d8781612d4e565b9050919050565b7f416c7265616479207265676973746572656400000000000000000000000000005f82015250565b5f612dc2601283612483565b9150612dcd82612d8e565b602082019050919050565b5f6020820190508181035f830152612def81612db6565b9050919050565b7f496e76616c6964206964656e746974792070726f6f66000000000000000000005f82015250565b5f612e2a601683612483565b9150612e3582612df6565b602082019050919050565b5f6020820190508181035f830152612e5781612e1e565b9050919050565b7f496e76616c6964207265706f727420696e6465780000000000000000000000005f82015250565b5f612e92601483612483565b9150612e9d82612e5e565b602082019050919050565b5f6020820190508181035f830152612ebf81612e86565b9050919050565b7f4e487b71000000000000000000000000000000000000000000000000000000005f52603260045260245ffd5b7f4e487b71000000000000000000000000000000000000000000000000000000005f52602260045260245ffd5b5f6002820490506001821680612f3757607f821691505b602082108103612f4a57612f49612ef3565b5b50919050565b7f496e76616c6964207468726573686f6c640000000000000000000000000000005f82015250565b5f612f84601183612483565b9150612f8f82612f50565b602082019050919050565b5f6020820190508181035f830152612fb181612f78565b9050919050565b612fc181612541565b82525050565b5f602082019050612fda5f830184612fb8565b92915050565b7f496e76616c6964207665726966696572206164647265737300000000000000005f82015250565b5f613014601883612483565b915061301f82612fe0565b602082019050919050565b5f6020820190508181035f83015261304181613008565b9050919050565b7f496e76616c6964206d6978696e672070726f6f660000000000000000000000005f82015250565b5f61307c601483612483565b915061308782613048565b602082019050919050565b5f6020820190508181035f8301526130a981613070565b9050919050565b7f50656572206e6f742062616e6e656400000000000000000000000000000000005f82015250565b5f6130e4600f83612483565b91506130ef826130b0565b602082019050919050565b5f6020820190508181035f830152613111816130d8565b9050919050565b7f496e76616c696420636f6d6d69746d656e7400000000000000000000000000005f82015250565b5f61314c601283612483565b915061315782613118565b602082019050919050565b5f6020820190508181035f83015261317981613140565b9050919050565b5f819050919050565b61319a6131958261203b565b613180565b82525050565b5f6131ab8284613189565b60208201915081905092915050565b5f81519050919050565b5f82825260208201905092915050565b5f6131de826131ba565b6131e881856131c4565b93506131f8818560208601612493565b613201816124a1565b840191505092915050565b5f60408201905061321f5f830185612413565b818103602083015261323181846131d4565b90509392505050565b7f496e76616c69642061707065616c2070726f6f660000000000000000000000005f82015250565b5f61326e601483612483565b91506132798261323a565b602082019050919050565b5f6020820190508181035f83015261329b81613262565b9050919050565b5f6132ac82612099565b91507fffffffffffffffffffffffffffffffffffffffffffffffffffffffffffffffff82036132de576132dd612a95565b5b600182019050919050565b7f496e76616c6964207374617475732070726f6f660000000000000000000000005f82015250565b5f61331d601483612483565b9150613328826132e9565b602082019050919050565b5f6020820190508181035f83015261334a81613311565b9050919050565b5f6040820190506133645f830185612335565b61337160208301846120a2565b939250505056fea2646970667358221220105ff26ee79332491842aff62e19a7ad36d7178d91db307712242abbe768b56064736f6c634300081a0033",
					"opcodes": "PUSH1 0x80 PUSH1 0x40 MSTORE CALLVALUE DUP1 ISZERO PUSH2 0xF JUMPI PUSH0 DUP1 REVERT JUMPDEST POP PUSH1 0x40 MLOAD PUSH2 0x3659 CODESIZE SUB DUP1 PUSH2 0x3659 DUP4 CODECOPY DUP2 DUP2 ADD PUSH1 0x40 MSTORE DUP2 ADD SWAP1 PUSH2 0x31 SWAP2 SWAP1 PUSH2 0x238 JUMP JUMPDEST DUP2 PUSH0 PUSH20 0xFFFFFFFFFFFFFFFFFFFFFFFFFFFFFFFFFFFFFFFF AND DUP2 PUSH20 0xFFFFFFFFFFFFFFFFFFFFFFFFFFFFFFFFFFFFFFFF AND SUB PUSH2 0xA2 JUMPI PUSH0 PUSH1 0x40 MLOAD PUSH32 0x1E4FBDF700000000000000000000000000000000000000000000000000000000 DUP2 MSTORE PUSH1 0x4 ADD PUSH2 0x99 SWAP2 SWAP1 PUSH2 0x285 JUMP JUMPDEST PUSH1 0x40 MLOAD DUP1 SWAP2 SUB SWAP1 REVERT JUMPDEST PUSH2 0xB1 DUP2 PUSH2 0x119 PUSH1 0x20 SHL PUSH1 0x20 SHR JUMP JUMPDEST POP PUSH1 0x1 DUP1 DUP2 SWAP1 SSTORE POP PUSH0 PUSH1 0x2 PUSH0 PUSH2 0x100 EXP DUP2 SLOAD DUP2 PUSH1 0xFF MUL NOT AND SWAP1 DUP4 ISZERO ISZERO MUL OR SWAP1 SSTORE POP DUP1 PUSH1 0xA PUSH0 PUSH2 0x100 EXP DUP2 SLOAD DUP2 PUSH20 0xFFFFFFFFFFFFFFFFFFFFFFFFFFFFFFFFFFFFFFFF MUL NOT AND SWAP1 DUP4 PUSH20 0xFFFFFFFFFFFFFFFFFFFFFFFFFFFFFFFFFFFFFFFF AND MUL OR SWAP1 SSTORE POP POP POP PUSH2 0x29E JUMP JUMPDEST PUSH0 DUP1 PUSH0 SWAP1 SLOAD SWAP1 PUSH2 0x100 EXP SWAP1 DIV PUSH20 0xFFFFFFFFFFFFFFFFFFFFFFFFFFFFFFFFFFFFFFFF AND SWAP1 POP DUP2 PUSH0 DUP1 PUSH2 0x100 EXP DUP2 SLOAD DUP2 PUSH20 0xFFFFFFFFFFFFFFFFFFFFFFFFFFFFFFFFFFFFFFFF MUL NOT AND SWAP1 DUP4 PUSH20 0xFFFFFFFFFFFFFFFFFFFFFFFFFFFFFFFFFFFFFFFF AND MUL OR SWAP1 SSTORE POP DUP2 PUSH20 0xFFFFFFFFFFFFFFFFFFFFFFFFFFFFFFFFFFFFFFFF AND DUP2 PUSH20 0xFFFFFFFFFFFFFFFFFFFFFFFFFFFFFFFFFFFFFFFF AND PUSH32 0x8BE0079C531659141344CD1FD0A4F28419497F9722A3DAAFE3B4186F6B6457E0 PUSH1 0x40 MLOAD PUSH1 0x40 MLOAD DUP1 SWAP2 SUB SWAP1 LOG3 POP POP JUMP JUMPDEST PUSH0 DUP1 REVERT JUMPDEST PUSH0 PUSH20 0xFFFFFFFFFFFFFFFFFFFFFFFFFFFFFFFFFFFFFFFF DUP3 AND SWAP1 POP SWAP2 SWAP1 POP JUMP JUMPDEST PUSH0 PUSH2 0x207 DUP3 PUSH2 0x1DE JUMP JUMPDEST SWAP1 POP SWAP2 SWAP1 POP JUMP JUMPDEST PUSH2 0x217 DUP2 PUSH2 0x1FD JUMP JUMPDEST DUP2 EQ PUSH2 0x221 JUMPI PUSH0 DUP1 REVERT JUMPDEST POP JUMP JUMPDEST PUSH0 DUP2 MLOAD SWAP1 POP PUSH2 0x232 DUP2 PUSH2 0x20E JUMP JUMPDEST SWAP3 SWAP2 POP POP JUMP JUMPDEST PUSH0 DUP1 PUSH1 0x40 DUP4 DUP6 SUB SLT ISZERO PUSH2 0x24E JUMPI PUSH2 0x24D PUSH2 0x1DA JUMP JUMPDEST JUMPDEST PUSH0 PUSH2 0x25B DUP6 DUP3 DUP7 ADD PUSH2 0x224 JUMP JUMPDEST SWAP3 POP POP PUSH1 0x20 PUSH2 0x26C DUP6 DUP3 DUP7 ADD PUSH2 0x224 JUMP JUMPDEST SWAP2 POP POP SWAP3 POP SWAP3 SWAP1 POP JUMP JUMPDEST PUSH2 0x27F DUP2 PUSH2 0x1FD JUMP JUMPDEST DUP3 MSTORE POP POP JUMP JUMPDEST PUSH0 PUSH1 0x20 DUP3 ADD SWAP1 POP PUSH2 0x298 PUSH0 DUP4 ADD DUP5 PUSH2 0x276 JUMP JUMPDEST SWAP3 SWAP2 POP POP JUMP JUMPDEST PUSH2 0x33AE DUP1 PUSH2 0x2AB PUSH0 CODECOPY PUSH0 RETURN INVALID PUSH1 0x80 PUSH1 0x40 MSTORE PUSH1 0x4 CALLDATASIZE LT PUSH2 0x203 JUMPI PUSH0 CALLDATALOAD PUSH1 0xE0 SHR DUP1 PUSH4 0x81AA8067 GT PUSH2 0x117 JUMPI DUP1 PUSH4 0xCB1C2B5C GT PUSH2 0x9F JUMPI DUP1 PUSH4 0xE13ECB1D GT PUSH2 0x6E JUMPI DUP1 PUSH4 0xE13ECB1D EQ PUSH2 0x764 JUMPI DUP1 PUSH4 0xE5A99ABB EQ PUSH2 0x78C JUMPI DUP1 PUSH4 0xE6962AD5 EQ PUSH2 0x7B6 JUMPI DUP1 PUSH4 0xF28B7851 EQ PUSH2 0x7E0 JUMPI DUP1 PUSH4 0xF2FDE38B EQ PUSH2 0x80A JUMPI PUSH2 0x203 JUMP JUMPDEST DUP1 PUSH4 0xCB1C2B5C EQ PUSH2 0x6AC JUMPI DUP1 PUSH4 0xD213C0F2 EQ PUSH2 0x6D6 JUMPI DUP1 PUSH4 0xDF3E1F97 EQ PUSH2 0x700 JUMPI DUP1 PUSH4 0xE123BB0E EQ PUSH2 0x728 JUMPI PUSH2 0x203 JUMP JUMPDEST DUP1 PUSH4 0x97FC007C GT PUSH2 0xE6 JUMPI DUP1 PUSH4 0x97FC007C EQ PUSH2 0x5BA JUMPI DUP1 PUSH4 0x9976E569 EQ PUSH2 0x5E2 JUMPI DUP1 PUSH4 0xB2A93E7C EQ PUSH2 0x61E JUMPI DUP1 PUSH4 0xBBCFAF05 EQ PUSH2 0x65A JUMPI DUP1 PUSH4 0xBE830F42 EQ PUSH2 0x682 JUMPI PUSH2 0x203 JUMP JUMPDEST DUP1 PUSH4 0x81AA8067 EQ PUSH2 0x4FE JUMPI DUP1 PUSH4 0x8456CB59 EQ PUSH2 0x53A JUMPI DUP1 PUSH4 0x852AC836 EQ PUSH2 0x550 JUMPI DUP1 PUSH4 0x8DA5CB5B EQ PUSH2 0x590 JUMPI PUSH2 0x203 JUMP JUMPDEST DUP1 PUSH4 0x5933752F GT PUSH2 0x19A JUMPI DUP1 PUSH4 0x6DC08264 GT PUSH2 0x169 JUMPI DUP1 PUSH4 0x6DC08264 EQ PUSH2 0x412 JUMPI DUP1 PUSH4 0x715018A6 EQ PUSH2 0x452 JUMPI DUP1 PUSH4 0x7B057258 EQ PUSH2 0x468 JUMPI DUP1 PUSH4 0x7BA6C9D8 EQ PUSH2 0x492 JUMPI DUP1 PUSH4 0x8030B496 EQ PUSH2 0x4BA JUMPI PUSH2 0x203 JUMP JUMPDEST DUP1 PUSH4 0x5933752F EQ PUSH2 0x366 JUMPI DUP1 PUSH4 0x5C975ABB EQ PUSH2 0x382 JUMPI DUP1 PUSH4 0x6133B146 EQ PUSH2 0x3AC JUMPI DUP1 PUSH4 0x614FC7BC EQ PUSH2 0x3E8 JUMPI PUSH2 0x203 JUMP JUMPDEST DUP1 PUSH4 0x4A8CD9C8 GT PUSH2 0x1D6 JUMPI DUP1 PUSH4 0x4A8CD9C8 EQ PUSH2 0x2B0 JUMPI DUP1 PUSH4 0x4AA06447 EQ PUSH2 0x2D8 JUMPI DUP1 PUSH4 0x50236A2C EQ PUSH2 0x302 JUMPI DUP1 PUSH4 0x52B79F26 EQ PUSH2 0x32A JUMPI PUSH2 0x203 JUMP JUMPDEST DUP1 PUSH4 0x21565342 EQ PUSH2 0x207 JUMPI DUP1 PUSH4 0x2B7AC3F3 EQ PUSH2 0x246 JUMPI DUP1 PUSH4 0x3F4BA83A EQ PUSH2 0x270 JUMPI DUP1 PUSH4 0x48E55A8F EQ PUSH2 0x286 JUMPI JUMPDEST PUSH0 DUP1 REVERT JUMPDEST CALLVALUE DUP1 ISZERO PUSH2 0x212 JUMPI PUSH0 DUP1 REVERT JUMPDEST POP PUSH2 0x22D PUSH1 0x4 DUP1 CALLDATASIZE SUB DUP2 ADD SWAP1 PUSH2 0x228 SWAP2 SWAP1 PUSH2 0x206E JUMP JUMPDEST PUSH2 0x832 JUMP JUMPDEST PUSH1 0x40 MLOAD PUSH2 0x23D SWAP5 SWAP4 SWAP3 SWAP2 SWAP1 PUSH2 0x20B1 JUMP JUMPDEST PUSH1 0x40 MLOAD DUP1 SWAP2 SUB SWAP1 RETURN JUMPDEST CALLVALUE DUP1 ISZERO PUSH2 0x251 JUMPI PUSH0 DUP1 REVERT JUMPDEST POP PUSH2 0x25A PUSH2 0x8B0 JUMP JUMPDEST PUSH1 0x40 MLOAD PUSH2 0x267 SWAP2 SWAP1 PUSH2 0x216E JUMP JUMPDEST PUSH1 0x40 MLOAD DUP1 SWAP2 SUB SWAP1 RETURN JUMPDEST CALLVALUE DUP1 ISZERO PUSH2 0x27B JUMPI PUSH0 DUP1 REVERT JUMPDEST POP PUSH2 0x284 PUSH2 0x8D5 JUMP JUMPDEST STOP JUMPDEST CALLVALUE DUP1 ISZERO PUSH2 0x291 JUMPI PUSH0 DUP1 REVERT JUMPDEST POP PUSH2 0x29A PUSH2 0x8E7 JUMP JUMPDEST PUSH1 0x40 MLOAD PUSH2 0x2A7 SWAP2 SWAP1 PUSH2 0x2187 JUMP JUMPDEST PUSH1 0x40 MLOAD DUP1 SWAP2 SUB SWAP1 RETURN JUMPDEST CALLVALUE DUP1 ISZERO PUSH2 0x2BB JUMPI PUSH0 DUP1 REVERT JUMPDEST POP PUSH2 0x2D6 PUSH1 0x4 DUP1 CALLDATASIZE SUB DUP2 ADD SWAP1 PUSH2 0x2D1 SWAP2 SWAP1 PUSH2 0x21FF JUMP JUMPDEST PUSH2 0x8ED JUMP JUMPDEST STOP JUMPDEST CALLVALUE DUP1 ISZERO PUSH2 0x2E3 JUMPI PUSH0 DUP1 REVERT JUMPDEST POP PUSH2 0x2EC PUSH2 0xB70 JUMP JUMPDEST PUSH1 0x40 MLOAD PUSH2 0x2F9 SWAP2 SWAP1 PUSH2 0x2187 JUMP JUMPDEST PUSH1 0x40 MLOAD DUP1 SWAP2 SUB SWAP1 RETURN JUMPDEST CALLVALUE DUP1 ISZERO PUSH2 0x30D JUMPI PUSH0 DUP1 REVERT JUMPDEST POP PUSH2 0x328 PUSH1 0x4 DUP1 CALLDATASIZE SUB DUP2 ADD SWAP1 PUSH2 0x323 SWAP2 SWAP1 PUSH2 0x22C4 JUMP JUMPDEST PUSH2 0xB75 JUMP JUMPDEST STOP JUMPDEST CALLVALUE DUP1 ISZERO PUSH2 0x335 JUMPI PUSH0 DUP1 REVERT JUMPDEST POP PUSH2 0x350 PUSH1 0x4 DUP1 CALLDATASIZE SUB DUP2 ADD SWAP1 PUSH2 0x34B SWAP2 SWAP1 PUSH2 0x206E JUMP JUMPDEST PUSH2 0xD61 JUMP JUMPDEST PUSH1 0x40 MLOAD PUSH2 0x35D SWAP2 SWAP1 PUSH2 0x2344 JUMP JUMPDEST PUSH1 0x40 MLOAD DUP1 SWAP2 SUB SWAP1 RETURN JUMPDEST PUSH2 0x380 PUSH1 0x4 DUP1 CALLDATASIZE SUB DUP2 ADD SWAP1 PUSH2 0x37B SWAP2 SWAP1 PUSH2 0x235D JUMP JUMPDEST PUSH2 0xDCD JUMP JUMPDEST STOP JUMPDEST CALLVALUE DUP1 ISZERO PUSH2 0x38D JUMPI PUSH0 DUP1 REVERT JUMPDEST POP PUSH2 0x396 PUSH2 0xFBB JUMP JUMPDEST PUSH1 0x40 MLOAD PUSH2 0x3A3 SWAP2 SWAP1 PUSH2 0x2344 JUMP JUMPDEST PUSH1 0x40 MLOAD DUP1 SWAP2 SUB SWAP1 RETURN JUMPDEST CALLVALUE DUP1 ISZERO PUSH2 0x3B7 JUMPI PUSH0 DUP1 REVERT JUMPDEST POP PUSH2 0x3D2 PUSH1 0x4 DUP1 CALLDATASIZE SUB DUP2 ADD SWAP1 PUSH2 0x3CD SWAP2 SWAP1 PUSH2 0x23E8 JUMP JUMPDEST PUSH2 0xFD0 JUMP JUMPDEST PUSH1 0x40 MLOAD PUSH2 0x3DF SWAP2 SWAP1 PUSH2 0x2422 JUMP JUMPDEST PUSH1 0x40 MLOAD DUP1 SWAP2 SUB SWAP1 RETURN JUMPDEST CALLVALUE DUP1 ISZERO PUSH2 0x3F3 JUMPI PUSH0 DUP1 REVERT JUMPDEST POP PUSH2 0x3FC PUSH2 0xFE5 JUMP JUMPDEST PUSH1 0x40 MLOAD PUSH2 0x409 SWAP2 SWAP1 PUSH2 0x2187 JUMP JUMPDEST PUSH1 0x40 MLOAD DUP1 SWAP2 SUB SWAP1 RETURN JUMPDEST CALLVALUE DUP1 ISZERO PUSH2 0x41D JUMPI PUSH0 DUP1 REVERT JUMPDEST POP PUSH2 0x438 PUSH1 0x4 DUP1 CALLDATASIZE SUB DUP2 ADD SWAP1 PUSH2 0x433 SWAP2 SWAP1 PUSH2 0x243B JUMP JUMPDEST PUSH2 0xFEE JUMP JUMPDEST PUSH1 0x40 MLOAD PUSH2 0x449 SWAP6 SWAP5 SWAP4 SWAP3 SWAP2 SWAP1 PUSH2 0x24E9 JUMP JUMPDEST PUSH1 0x40 MLOAD DUP1 SWAP2 SUB SWAP1 RETURN JUMPDEST CALLVALUE DUP1 ISZERO PUSH2 0x45D JUMPI PUSH0 DUP1 REVERT JUMPDEST POP PUSH2 0x466 PUSH2 0x113E JUMP JUMPDEST STOP JUMPDEST CALLVALUE DUP1 ISZERO PUSH2 0x473 JUMPI PUSH0 DUP1 REVERT JUMPDEST POP PUSH2 0x47C PUSH2 0x1151 JUMP JUMPDEST PUSH1 0x40 MLOAD PUSH2 0x489 SWAP2 SWAP1 PUSH2 0x2187 JUMP JUMPDEST PUSH1 0x40 MLOAD DUP1 SWAP2 SUB SWAP1 RETURN JUMPDEST CALLVALUE DUP1 ISZERO PUSH2 0x49D JUMPI PUSH0 DUP1 REVERT JUMPDEST POP PUSH2 0x4B8 PUSH1 0x4 DUP1 CALLDATASIZE SUB DUP2 ADD SWAP1 PUSH2 0x4B3 SWAP2 SWAP1 PUSH2 0x2577 JUMP JUMPDEST PUSH2 0x1157 JUMP JUMPDEST STOP JUMPDEST CALLVALUE DUP1 ISZERO PUSH2 0x4C5 JUMPI PUSH0 DUP1 REVERT JUMPDEST POP PUSH2 0x4E0 PUSH1 0x4 DUP1 CALLDATASIZE SUB DUP2 ADD SWAP1 PUSH2 0x4DB SWAP2 SWAP1 PUSH2 0x206E JUMP JUMPDEST PUSH2 0x11EE JUMP JUMPDEST PUSH1 0x40 MLOAD PUSH2 0x4F5 SWAP10 SWAP9 SWAP8 SWAP7 SWAP6 SWAP5 SWAP4 SWAP3 SWAP2 SWAP1 PUSH2 0x25A2 JUMP JUMPDEST PUSH1 0x40 MLOAD DUP1 SWAP2 SUB SWAP1 RETURN JUMPDEST CALLVALUE DUP1 ISZERO PUSH2 0x509 JUMPI PUSH0 DUP1 REVERT JUMPDEST POP PUSH2 0x524 PUSH1 0x4 DUP1 CALLDATASIZE SUB DUP2 ADD SWAP1 PUSH2 0x51F SWAP2 SWAP1 PUSH2 0x206E JUMP JUMPDEST PUSH2 0x1244 JUMP JUMPDEST PUSH1 0x40 MLOAD PUSH2 0x531 SWAP2 SWAP1 PUSH2 0x27D0 JUMP JUMPDEST PUSH1 0x40 MLOAD DUP1 SWAP2 SUB SWAP1 RETURN JUMPDEST CALLVALUE DUP1 ISZERO PUSH2 0x545 JUMPI PUSH0 DUP1 REVERT JUMPDEST POP PUSH2 0x54E PUSH2 0x1378 JUMP JUMPDEST STOP JUMPDEST CALLVALUE DUP1 ISZERO PUSH2 0x55B JUMPI PUSH0 DUP1 REVERT JUMPDEST POP PUSH2 0x576 PUSH1 0x4 DUP1 CALLDATASIZE SUB DUP2 ADD SWAP1 PUSH2 0x571 SWAP2 SWAP1 PUSH2 0x206E JUMP JUMPDEST PUSH2 0x138A JUMP JUMPDEST PUSH1 0x40 MLOAD PUSH2 0x587 SWAP6 SWAP5 SWAP4 SWAP3 SWAP2 SWAP1 PUSH2 0x27FF JUMP JUMPDEST PUSH1 0x40 MLOAD DUP1 SWAP2 SUB SWAP1 RETURN JUMPDEST CALLVALUE DUP1 ISZERO PUSH2 0x59B JUMPI PUSH0 DUP1 REVERT JUMPDEST POP PUSH2 0x5A4 PUSH2 0x141A JUMP JUMPDEST PUSH1 0x40 MLOAD PUSH2 0x5B1 SWAP2 SWAP1 PUSH2 0x2850 JUMP JUMPDEST PUSH1 0x40 MLOAD DUP1 SWAP2 SUB SWAP1 RETURN JUMPDEST CALLVALUE DUP1 ISZERO PUSH2 0x5C5 JUMPI PUSH0 DUP1 REVERT JUMPDEST POP PUSH2 0x5E0 PUSH1 0x4 DUP1 CALLDATASIZE SUB DUP2 ADD SWAP1 PUSH2 0x5DB SWAP2 SWAP1 PUSH2 0x23E8 JUMP JUMPDEST PUSH2 0x1441 JUMP JUMPDEST STOP JUMPDEST CALLVALUE DUP1 ISZERO PUSH2 0x5ED JUMPI PUSH0 DUP1 REVERT JUMPDEST POP PUSH2 0x608 PUSH1 0x4 DUP1 CALLDATASIZE SUB DUP2 ADD SWAP1 PUSH2 0x603 SWAP2 SWAP1 PUSH2 0x2869 JUMP JUMPDEST PUSH2 0x153D JUMP JUMPDEST PUSH1 0x40 MLOAD PUSH2 0x615 SWAP2 SWAP1 PUSH2 0x2344 JUMP JUMPDEST PUSH1 0x40 MLOAD DUP1 SWAP2 SUB SWAP1 RETURN JUMPDEST CALLVALUE DUP1 ISZERO PUSH2 0x629 JUMPI PUSH0 DUP1 REVERT JUMPDEST POP PUSH2 0x644 PUSH1 0x4 DUP1 CALLDATASIZE SUB DUP2 ADD SWAP1 PUSH2 0x63F SWAP2 SWAP1 PUSH2 0x2869 JUMP JUMPDEST PUSH2 0x1567 JUMP JUMPDEST PUSH1 0x40 MLOAD PUSH2 0x651 SWAP2 SWAP1 PUSH2 0x2344 JUMP JUMPDEST PUSH1 0x40 MLOAD DUP1 SWAP2 SUB SWAP1 RETURN JUMPDEST CALLVALUE DUP1 ISZERO PUSH2 0x665 JUMPI PUSH0 DUP1 REVERT JUMPDEST POP PUSH2 0x680 PUSH1 0x4 DUP1 CALLDATASIZE SUB DUP2 ADD SWAP1 PUSH2 0x67B SWAP2 SWAP1 PUSH2 0x2869 JUMP JUMPDEST PUSH2 0x160B JUMP JUMPDEST STOP JUMPDEST CALLVALUE DUP1 ISZERO PUSH2 0x68D JUMPI PUSH0 DUP1 REVERT JUMPDEST POP PUSH2 0x696 PUSH2 0x1808 JUMP JUMPDEST PUSH1 0x40 MLOAD PUSH2 0x6A3 SWAP2 SWAP1 PUSH2 0x2187 JUMP JUMPDEST PUSH1 0x40 MLOAD DUP1 SWAP2 SUB SWAP1 RETURN JUMPDEST CALLVALUE DUP1 ISZERO PUSH2 0x6B7 JUMPI PUSH0 DUP1 REVERT JUMPDEST POP PUSH2 0x6C0 PUSH2 0x1811 JUMP JUMPDEST PUSH1 0x40 MLOAD PUSH2 0x6CD SWAP2 SWAP1 PUSH2 0x2187 JUMP JUMPDEST PUSH1 0x40 MLOAD DUP1 SWAP2 SUB SWAP1 RETURN JUMPDEST CALLVALUE DUP1 ISZERO PUSH2 0x6E1 JUMPI PUSH0 DUP1 REVERT JUMPDEST POP PUSH2 0x6EA PUSH2 0x181E JUMP JUMPDEST PUSH1 0x40 MLOAD PUSH2 0x6F7 SWAP2 SWAP1 PUSH2 0x2187 JUMP JUMPDEST PUSH1 0x40 MLOAD DUP1 SWAP2 SUB SWAP1 RETURN JUMPDEST CALLVALUE DUP1 ISZERO PUSH2 0x70B JUMPI PUSH0 DUP1 REVERT JUMPDEST POP PUSH2 0x726 PUSH1 0x4 DUP1 CALLDATASIZE SUB DUP2 ADD SWAP1 PUSH2 0x721 SWAP2 SWAP1 PUSH2 0x2869 JUMP JUMPDEST PUSH2 0x1824 JUMP JUMPDEST STOP JUMPDEST CALLVALUE DUP1 ISZERO PUSH2 0x733 JUMPI PUSH0 DUP1 REVERT JUMPDEST POP PUSH2 0x74E PUSH1 0x4 DUP1 CALLDATASIZE SUB DUP2 ADD SWAP1 PUSH2 0x749 SWAP2 SWAP1 PUSH2 0x243B JUMP JUMPDEST PUSH2 0x1ADE JUMP JUMPDEST PUSH1 0x40 MLOAD PUSH2 0x75B SWAP2 SWAP1 PUSH2 0x2422 JUMP JUMPDEST PUSH1 0x40 MLOAD DUP1 SWAP2 SUB SWAP1 RETURN JUMPDEST CALLVALUE DUP1 ISZERO PUSH2 0x76F JUMPI PUSH0 DUP1 REVERT JUMPDEST POP PUSH2 0x78A PUSH1 0x4 DUP1 CALLDATASIZE SUB DUP2 ADD SWAP1 PUSH2 0x785 SWAP2 SWAP1 PUSH2 0x28A7 JUMP JUMPDEST PUSH2 0x1AFE JUMP JUMPDEST STOP JUMPDEST CALLVALUE DUP1 ISZERO PUSH2 0x797 JUMPI PUSH0 DUP1 REVERT JUMPDEST POP PUSH2 0x7A0 PUSH2 0x1D0A JUMP JUMPDEST PUSH1 0x40 MLOAD PUSH2 0x7AD SWAP2 SWAP1 PUSH2 0x2187 JUMP JUMPDEST PUSH1 0x40 MLOAD DUP1 SWAP2 SUB SWAP1 RETURN JUMPDEST CALLVALUE DUP1 ISZERO PUSH2 0x7C1 JUMPI PUSH0 DUP1 REVERT JUMPDEST POP PUSH2 0x7CA PUSH2 0x1D10 JUMP JUMPDEST PUSH1 0x40 MLOAD PUSH2 0x7D7 SWAP2 SWAP1 PUSH2 0x2187 JUMP JUMPDEST PUSH1 0x40 MLOAD DUP1 SWAP2 SUB SWAP1 RETURN JUMPDEST CALLVALUE DUP1 ISZERO PUSH2 0x7EB JUMPI PUSH0 DUP1 REVERT JUMPDEST POP PUSH2 0x7F4 PUSH2 0x1D15 JUMP JUMPDEST PUSH1 0x40 MLOAD PUSH2 0x801 SWAP2 SWAP1 PUSH2 0x2187 JUMP JUMPDEST PUSH1 0x40 MLOAD DUP1 SWAP2 SUB SWAP1 RETURN JUMPDEST CALLVALUE DUP1 ISZERO PUSH2 0x815 JUMPI PUSH0 DUP1 REVERT JUMPDEST POP PUSH2 0x830 PUSH1 0x4 DUP1 CALLDATASIZE SUB DUP2 ADD SWAP1 PUSH2 0x82B SWAP2 SWAP1 PUSH2 0x23E8 JUMP JUMPDEST PUSH2 0x1D1C JUMP JUMPDEST STOP JUMPDEST PUSH0 DUP1 PUSH0 DUP1 PUSH0 PUSH1 0x5 PUSH0 CALLER PUSH20 0xFFFFFFFFFFFFFFFFFFFFFFFFFFFFFFFFFFFFFFFF AND PUSH20 0xFFFFFFFFFFFFFFFFFFFFFFFFFFFFFFFFFFFFFFFF AND DUP2 MSTORE PUSH1 0x20 ADD SWAP1 DUP2 MSTORE PUSH1 0x20 ADD PUSH0 KECCAK256 SLOAD SWAP1 POP PUSH0 PUSH1 0x4 PUSH0 DUP4 DUP2 MSTORE PUSH1 0x20 ADD SWAP1 DUP2 MSTORE PUSH1 0x20 ADD PUSH0 KECCAK256 SWAP1 POP DUP1 PUSH1 0x3 ADD SLOAD DUP2 PUSH1 0x4 ADD SLOAD DUP3 PUSH1 0x1 ADD SLOAD DUP4 PUSH1 0x5 ADD SLOAD SWAP6 POP SWAP6 POP SWAP6 POP SWAP6 POP POP POP SWAP2 SWAP4 POP SWAP2 SWAP4 JUMP JUMPDEST PUSH1 0xA PUSH0 SWAP1 SLOAD SWAP1 PUSH2 0x100 EXP SWAP1 DIV PUSH20 0xFFFFFFFFFFFFFFFFFFFFFFFFFFFFFFFFFFFFFFFF AND DUP2 JUMP JUMPDEST PUSH2 0x8DD PUSH2 0x1DA0 JUMP JUMPDEST PUSH2 0x8E5 PUSH2 0x1E27 JUMP JUMPDEST JUMP JUMPDEST PUSH1 0x9 SLOAD DUP2 JUMP JUMPDEST PUSH2 0x8F5 PUSH2 0x1DA0 JUMP JUMPDEST PUSH0 PUSH1 0x5 PUSH0 CALLER PUSH20 0xFFFFFFFFFFFFFFFFFFFFFFFFFFFFFFFFFFFFFFFF AND PUSH20 0xFFFFFFFFFFFFFFFFFFFFFFFFFFFFFFFFFFFFFFFF AND DUP2 MSTORE PUSH1 0x20 ADD SWAP1 DUP2 MSTORE PUSH1 0x20 ADD PUSH0 KECCAK256 SLOAD SWAP1 POP PUSH1 0x4 PUSH0 DUP3 DUP2 MSTORE PUSH1 0x20 ADD SWAP1 DUP2 MSTORE PUSH1 0x20 ADD PUSH0 KECCAK256 PUSH1 0x7 ADD PUSH0 SWAP1 SLOAD SWAP1 PUSH2 0x100 EXP SWAP1 DIV PUSH1 0xFF AND PUSH2 0x996 JUMPI PUSH1 0x40 MLOAD PUSH32 0x8C379A000000000000000000000000000000000000000000000000000000000 DUP2 MSTORE PUSH1 0x4 ADD PUSH2 0x98D SWAP1 PUSH2 0x2941 JUMP JUMPDEST PUSH1 0x40 MLOAD DUP1 SWAP2 SUB SWAP1 REVERT JUMPDEST PUSH2 0x3E8 DUP5 GT ISZERO PUSH2 0x9DB JUMPI PUSH1 0x40 MLOAD PUSH32 0x8C379A000000000000000000000000000000000000000000000000000000000 DUP2 MSTORE PUSH1 0x4 ADD PUSH2 0x9D2 SWAP1 PUSH2 0x29A9 JUMP JUMPDEST PUSH1 0x40 MLOAD DUP1 SWAP2 SUB SWAP1 REVERT JUMPDEST PUSH1 0xA PUSH0 SWAP1 SLOAD SWAP1 PUSH2 0x100 EXP SWAP1 DIV PUSH20 0xFFFFFFFFFFFFFFFFFFFFFFFFFFFFFFFFFFFFFFFF AND PUSH20 0xFFFFFFFFFFFFFFFFFFFFFFFFFFFFFFFFFFFFFFFF AND PUSH4 0xBCCA19C2 DUP7 DUP5 PUSH1 0x40 MLOAD DUP4 PUSH4 0xFFFFFFFF AND PUSH1 0xE0 SHL DUP2 MSTORE PUSH1 0x4 ADD PUSH2 0xA37 SWAP3 SWAP2 SWAP1 PUSH2 0x29C7 JUMP JUMPDEST PUSH1 0x20 PUSH1 0x40 MLOAD DUP1 DUP4 SUB DUP2 DUP7 GAS STATICCALL ISZERO DUP1 ISZERO PUSH2 0xA52 JUMPI RETURNDATASIZE PUSH0 DUP1 RETURNDATACOPY RETURNDATASIZE PUSH0 REVERT JUMPDEST POP POP POP POP PUSH1 0x40 MLOAD RETURNDATASIZE PUSH1 0x1F NOT PUSH1 0x1F DUP3 ADD AND DUP3 ADD DUP1 PUSH1 0x40 MSTORE POP DUP2 ADD SWAP1 PUSH2 0xA76 SWAP2 SWAP1 PUSH2 0x2A02 JUMP JUMPDEST PUSH2 0xAB5 JUMPI PUSH1 0x40 MLOAD PUSH32 0x8C379A000000000000000000000000000000000000000000000000000000000 DUP2 MSTORE PUSH1 0x4 ADD PUSH2 0xAAC SWAP1 PUSH2 0x2A77 JUMP JUMPDEST PUSH1 0x40 MLOAD DUP1 SWAP2 SUB SWAP1 REVERT JUMPDEST PUSH0 PUSH1 0x4 PUSH0 DUP4 DUP2 MSTORE PUSH1 0x20 ADD SWAP1 DUP2 MSTORE PUSH1 0x20 ADD PUSH0 KECCAK256 SWAP1 POP PUSH0 DUP2 PUSH1 0x1 ADD SLOAD SWAP1 POP PUSH0 DUP6 ISZERO PUSH2 0xAFB JUMPI DUP7 DUP3 PUSH2 0xAE4 SWAP2 SWAP1 PUSH2 0x2AC2 JUMP JUMPDEST SWAP1 POP PUSH2 0x2710 DUP2 GT ISZERO PUSH2 0xAF6 JUMPI PUSH2 0x2710 SWAP1 POP JUMPDEST PUSH2 0xB18 JUMP JUMPDEST DUP7 DUP3 GT PUSH2 0xB08 JUMPI PUSH0 PUSH2 0xB15 JUMP JUMPDEST DUP7 DUP3 PUSH2 0xB14 SWAP2 SWAP1 PUSH2 0x2AF5 JUMP JUMPDEST JUMPDEST SWAP1 POP JUMPDEST DUP1 DUP4 PUSH1 0x1 ADD DUP2 SWAP1 SSTORE POP TIMESTAMP DUP4 PUSH1 0x6 ADD DUP2 SWAP1 SSTORE POP DUP4 PUSH32 0x3E8D5485985D0B5B604B4C06C1794B1FD4E769466EFD730318FBB21F1A73FECC DUP4 DUP4 TIMESTAMP PUSH1 0x40 MLOAD PUSH2 0xB5E SWAP4 SWAP3 SWAP2 SWAP1 PUSH2 0x2B28 JUMP JUMPDEST PUSH1 0x40 MLOAD DUP1 SWAP2 SUB SWAP1 LOG2 POP POP POP POP POP POP POP POP JUMP JUMPDEST PUSH1 0x3 DUP2 JUMP JUMPDEST PUSH2 0xB7D PUSH2 0x1DA0 JUMP JUMPDEST PUSH0 PUSH1 0x5 PUSH0 CALLER PUSH20 0xFFFFFFFFFFFFFFFFFFFFFFFFFFFFFFFFFFFFFFFF AND PUSH20 0xFFFFFFFFFFFFFFFFFFFFFFFFFFFFFFFFFFFFFFFF AND DUP2 MSTORE PUSH1 0x20 ADD SWAP1 DUP2 MSTORE PUSH1 0x20 ADD PUSH0 KECCAK256 SLOAD SWAP1 POP PUSH0 DUP1 SHL DUP2 SUB PUSH2 0xC02 JUMPI PUSH1 0x40 MLOAD PUSH32 0x8C379A000000000000000000000000000000000000000000000000000000000 DUP2 MSTORE PUSH1 0x4 ADD PUSH2 0xBF9 SWAP1 PUSH2 0x2BA7 JUMP JUMPDEST PUSH1 0x40 MLOAD DUP1 SWAP2 SUB SWAP1 REVERT JUMPDEST PUSH1 0xA PUSH0 SWAP1 SLOAD SWAP1 PUSH2 0x100 EXP SWAP1 DIV PUSH20 0xFFFFFFFFFFFFFFFFFFFFFFFFFFFFFFFFFFFFFFFF AND PUSH20 0xFFFFFFFFFFFFFFFFFFFFFFFFFFFFFFFFFFFFFFFF AND PUSH4 0xEFB4269B DUP7 DUP5 PUSH1 0x40 MLOAD DUP4 PUSH4 0xFFFFFFFF AND PUSH1 0xE0 SHL DUP2 MSTORE PUSH1 0x4 ADD PUSH2 0xC5E SWAP3 SWAP2 SWAP1 PUSH2 0x29C7 JUMP JUMPDEST PUSH1 0x20 PUSH1 0x40 MLOAD DUP1 DUP4 SUB DUP2 DUP7 GAS STATICCALL ISZERO DUP1 ISZERO PUSH2 0xC79 JUMPI RETURNDATASIZE PUSH0 DUP1 RETURNDATACOPY RETURNDATASIZE PUSH0 REVERT JUMPDEST POP POP POP POP PUSH1 0x40 MLOAD RETURNDATASIZE PUSH1 0x1F NOT PUSH1 0x1F DUP3 ADD AND DUP3 ADD DUP1 PUSH1 0x40 MSTORE POP DUP2 ADD SWAP1 PUSH2 0xC9D SWAP2 SWAP1 PUSH2 0x2A02 JUMP JUMPDEST PUSH2 0xCDC JUMPI PUSH1 0x40 MLOAD PUSH32 0x8C379A000000000000000000000000000000000000000000000000000000000 DUP2 MSTORE PUSH1 0x4 ADD PUSH2 0xCD3 SWAP1 PUSH2 0x2C0F JUMP JUMPDEST PUSH1 0x40 MLOAD DUP1 SWAP2 SUB SWAP1 REVERT JUMPDEST PUSH0 PUSH1 0x4 PUSH0 DUP4 DUP2 MSTORE PUSH1 0x20 ADD SWAP1 DUP2 MSTORE PUSH1 0x20 ADD PUSH0 KECCAK256 PUSH1 0x7 ADD PUSH0 PUSH2 0x100 EXP DUP2 SLOAD DUP2 PUSH1 0xFF MUL NOT AND SWAP1 DUP4 ISZERO ISZERO MUL OR SWAP1 SSTORE POP PUSH1 0x9 PUSH0 DUP2 SLOAD DUP1 SWAP3 SWAP2 SWAP1 PUSH2 0xD19 SWAP1 PUSH2 0x2C2D JUMP JUMPDEST SWAP2 SWAP1 POP SSTORE POP DUP1 PUSH32 0xD26F6B25DD880D701FC40A72CD7D2916F01A08FFDE8DEF5FBAD62D936A8726F2 DUP6 DUP6 TIMESTAMP PUSH1 0x40 MLOAD PUSH2 0xD52 SWAP4 SWAP3 SWAP2 SWAP1 PUSH2 0x2C8E JUMP JUMPDEST PUSH1 0x40 MLOAD DUP1 SWAP2 SUB SWAP1 LOG2 POP POP POP POP POP JUMP JUMPDEST PUSH0 DUP1 PUSH1 0x5 PUSH0 CALLER PUSH20 0xFFFFFFFFFFFFFFFFFFFFFFFFFFFFFFFFFFFFFFFF AND PUSH20 0xFFFFFFFFFFFFFFFFFFFFFFFFFFFFFFFFFFFFFFFF AND DUP2 MSTORE PUSH1 0x20 ADD SWAP1 DUP2 MSTORE PUSH1 0x20 ADD PUSH0 KECCAK256 SLOAD SWAP1 POP PUSH1 0x4 PUSH0 DUP3 DUP2 MSTORE PUSH1 0x20 ADD SWAP1 DUP2 MSTORE PUSH1 0x20 ADD PUSH0 KECCAK256 PUSH1 0x7 ADD PUSH0 SWAP1 SLOAD SWAP1 PUSH2 0x100 EXP SWAP1 DIV PUSH1 0xFF AND ISZERO SWAP2 POP POP SWAP2 SWAP1 POP JUMP JUMPDEST DUP1 CALLVALUE EQ PUSH2 0xE0F JUMPI PUSH1 0x40 MLOAD PUSH32 0x8C379A000000000000000000000000000000000000000000000000000000000 DUP2 MSTORE PUSH1 0x4 ADD PUSH2 0xE06 SWAP1 PUSH2 0x2D08 JUMP JUMPDEST PUSH1 0x40 MLOAD DUP1 SWAP2 SUB SWAP1 REVERT JUMPDEST PUSH9 0x3635C9ADC5DEA00000 CALLVALUE LT ISZERO PUSH2 0xE5B JUMPI PUSH1 0x40 MLOAD PUSH32 0x8C379A000000000000000000000000000000000000000000000000000000000 DUP2 MSTORE PUSH1 0x4 ADD PUSH2 0xE52 SWAP1 PUSH2 0x2D70 JUMP JUMPDEST PUSH1 0x40 MLOAD DUP1 SWAP2 SUB SWAP1 REVERT JUMPDEST PUSH0 DUP1 SHL PUSH1 0x5 PUSH0 CALLER PUSH20 0xFFFFFFFFFFFFFFFFFFFFFFFFFFFFFFFFFFFFFFFF AND PUSH20 0xFFFFFFFFFFFFFFFFFFFFFFFFFFFFFFFFFFFFFFFF AND DUP2 MSTORE PUSH1 0x20 ADD SWAP1 DUP2 MSTORE PUSH1 0x20 ADD PUSH0 KECCAK256 SLOAD EQ PUSH2 0xEDC JUMPI PUSH1 0x40 MLOAD PUSH32 0x8C379A000000000000000000000000000000000000000000000000000000000 DUP2 MSTORE PUSH1 0x4 ADD PUSH2 0xED3 SWAP1 PUSH2 0x2DD8 JUMP JUMPDEST PUSH1 0x40 MLOAD DUP1 SWAP2 SUB SWAP1 REVERT JUMPDEST PUSH1 0xA PUSH0 SWAP1 SLOAD SWAP1 PUSH2 0x100 EXP SWAP1 DIV PUSH20 0xFFFFFFFFFFFFFFFFFFFFFFFFFFFFFFFFFFFFFFFF AND PUSH20 0xFFFFFFFFFFFFFFFFFFFFFFFFFFFFFFFFFFFFFFFF AND PUSH4 0xD95115BC DUP5 DUP5 PUSH1 0x40 MLOAD DUP4 PUSH4 0xFFFFFFFF AND PUSH1 0xE0 SHL DUP2 MSTORE PUSH1 0x4 ADD PUSH2 0xF38 SWAP3 SWAP2 SWAP1 PUSH2 0x29C7 JUMP JUMPDEST PUSH1 0x20 PUSH1 0x40 MLOAD DUP1 DUP4 SUB DUP2 DUP7 GAS STATICCALL ISZERO DUP1 ISZERO PUSH2 0xF53 JUMPI RETURNDATASIZE PUSH0 DUP1 RETURNDATACOPY RETURNDATASIZE PUSH0 REVERT JUMPDEST POP POP POP POP PUSH1 0x40 MLOAD RETURNDATASIZE PUSH1 0x1F NOT PUSH1 0x1F DUP3 ADD AND DUP3 ADD DUP1 PUSH1 0x40 MSTORE POP DUP2 ADD SWAP1 PUSH2 0xF77 SWAP2 SWAP1 PUSH2 0x2A02 JUMP JUMPDEST PUSH2 0xFB6 JUMPI PUSH1 0x40 MLOAD PUSH32 0x8C379A000000000000000000000000000000000000000000000000000000000 DUP2 MSTORE PUSH1 0x4 ADD PUSH2 0xFAD SWAP1 PUSH2 0x2E40 JUMP JUMPDEST PUSH1 0x40 MLOAD DUP1 SWAP2 SUB SWAP1 REVERT JUMPDEST POP POP POP JUMP JUMPDEST PUSH0 PUSH1 0x2 PUSH0 SWAP1 SLOAD SWAP1 PUSH2 0x100 EXP SWAP1 DIV PUSH1 0xFF AND SWAP1 POP SWAP1 JUMP JUMPDEST PUSH1 0x5 PUSH1 0x20 MSTORE DUP1 PUSH0 MSTORE PUSH1 0x40 PUSH0 KECCAK256 PUSH0 SWAP2 POP SWAP1 POP SLOAD DUP2 JUMP JUMPDEST PUSH0 PUSH1 0x9 SLOAD SWAP1 POP SWAP1 JUMP JUMPDEST PUSH0 DUP1 PUSH1 0x60 PUSH0 DUP1 PUSH1 0x3 PUSH0 DUP9 DUP2 MSTORE PUSH1 0x20 ADD SWAP1 DUP2 MSTORE PUSH1 0x20 ADD PUSH0 KECCAK256 DUP1 SLOAD SWAP1 POP DUP7 LT PUSH2 0x104A JUMPI PUSH1 0x40 MLOAD PUSH32 0x8C379A000000000000000000000000000000000000000000000000000000000 DUP2 MSTORE PUSH1 0x4 ADD PUSH2 0x1041 SWAP1 PUSH2 0x2EA8 JUMP JUMPDEST PUSH1 0x40 MLOAD DUP1 SWAP2 SUB SWAP1 REVERT JUMPDEST PUSH0 PUSH1 0x3 PUSH0 DUP10 DUP2 MSTORE PUSH1 0x20 ADD SWAP1 DUP2 MSTORE PUSH1 0x20 ADD PUSH0 KECCAK256 DUP8 DUP2 SLOAD DUP2 LT PUSH2 0x106E JUMPI PUSH2 0x106D PUSH2 0x2EC6 JUMP JUMPDEST JUMPDEST SWAP1 PUSH0 MSTORE PUSH1 0x20 PUSH0 KECCAK256 SWAP1 PUSH1 0x5 MUL ADD SWAP1 POP DUP1 PUSH0 ADD SLOAD DUP2 PUSH1 0x1 ADD SLOAD DUP3 PUSH1 0x2 ADD DUP4 PUSH1 0x3 ADD SLOAD DUP5 PUSH1 0x4 ADD PUSH0 SWAP1 SLOAD SWAP1 PUSH2 0x100 EXP SWAP1 DIV PUSH1 0xFF AND DUP3 DUP1 SLOAD PUSH2 0x10AB SWAP1 PUSH2 0x2F20 JUMP JUMPDEST DUP1 PUSH1 0x1F ADD PUSH1 0x20 DUP1 SWAP2 DIV MUL PUSH1 0x20 ADD PUSH1 0x40 MLOAD SWAP1 DUP2 ADD PUSH1 0x40 MSTORE DUP1 SWAP3 SWAP2 SWAP1 DUP2 DUP2 MSTORE PUSH1 0x20 ADD DUP3 DUP1 SLOAD PUSH2 0x10D7 SWAP1 PUSH2 0x2F20 JUMP JUMPDEST DUP1 ISZERO PUSH2 0x1122 JUMPI DUP1 PUSH1 0x1F LT PUSH2 0x10F9 JUMPI PUSH2 0x100 DUP1 DUP4 SLOAD DIV MUL DUP4 MSTORE SWAP2 PUSH1 0x20 ADD SWAP2 PUSH2 0x1122 JUMP JUMPDEST DUP3 ADD SWAP2 SWAP1 PUSH0 MSTORE PUSH1 0x20 PUSH0 KECCAK256 SWAP1 JUMPDEST DUP2 SLOAD DUP2 MSTORE SWAP1 PUSH1 0x1 ADD SWAP1 PUSH1 0x20 ADD DUP1 DUP4 GT PUSH2 0x1105 JUMPI DUP3 SWAP1 SUB PUSH1 0x1F AND DUP3 ADD SWAP2 JUMPDEST POP POP POP POP POP SWAP3 POP SWAP6 POP SWAP6 POP SWAP6 POP SWAP6 POP SWAP6 POP POP SWAP3 SWAP6 POP SWAP3 SWAP6 SWAP1 SWAP4 POP JUMP JUMPDEST PUSH2 0x1146 PUSH2 0x1DA0 JUMP JUMPDEST PUSH2 0x114F PUSH0 PUSH2 0x1E88 JUMP JUMPDEST JUMP JUMPDEST PUSH2 0x1388 DUP2 JUMP JUMPDEST PUSH2 0x115F PUSH2 0x1DA0 JUMP JUMPDEST PUSH0 DUP2 PUSH1 0xFF AND GT DUP1 ISZERO PUSH2 0x1175 JUMPI POP PUSH1 0x64 DUP2 PUSH1 0xFF AND GT ISZERO JUMPDEST PUSH2 0x11B4 JUMPI PUSH1 0x40 MLOAD PUSH32 0x8C379A000000000000000000000000000000000000000000000000000000000 DUP2 MSTORE PUSH1 0x4 ADD PUSH2 0x11AB SWAP1 PUSH2 0x2F9A JUMP JUMPDEST PUSH1 0x40 MLOAD DUP1 SWAP2 SUB SWAP1 REVERT JUMPDEST PUSH32 0xB0E4DFFCC6B4FF3923E304EB9279D517BF22B24E1BF0509D4E58604EAB32D292 DUP2 PUSH1 0x40 MLOAD PUSH2 0x11E3 SWAP2 SWAP1 PUSH2 0x2FC7 JUMP JUMPDEST PUSH1 0x40 MLOAD DUP1 SWAP2 SUB SWAP1 LOG1 POP JUMP JUMPDEST PUSH1 0x4 PUSH1 0x20 MSTORE DUP1 PUSH0 MSTORE PUSH1 0x40 PUSH0 KECCAK256 PUSH0 SWAP2 POP SWAP1 POP DUP1 PUSH0 ADD SLOAD SWAP1 DUP1 PUSH1 0x1 ADD SLOAD SWAP1 DUP1 PUSH1 0x2 ADD SLOAD SWAP1 DUP1 PUSH1 0x3 ADD SLOAD SWAP1 DUP1 PUSH1 0x4 ADD SLOAD SWAP1 DUP1 PUSH1 0x5 ADD SLOAD SWAP1 DUP1 PUSH1 0x6 ADD SLOAD SWAP1 DUP1 PUSH1 0x7 ADD PUSH0 SWAP1 SLOAD SWAP1 PUSH2 0x100 EXP SWAP1 DIV PUSH1 0xFF AND SWAP1 DUP1 PUSH1 0x8 ADD SLOAD SWAP1 POP DUP10 JUMP JUMPDEST PUSH1 0x60 PUSH1 0x3 PUSH0 DUP4 DUP2 MSTORE PUSH1 0x20 ADD SWAP1 DUP2 MSTORE PUSH1 0x20 ADD PUSH0 KECCAK256 DUP1 SLOAD DUP1 PUSH1 0x20 MUL PUSH1 0x20 ADD PUSH1 0x40 MLOAD SWAP1 DUP2 ADD PUSH1 0x40 MSTORE DUP1 SWAP3 SWAP2 SWAP1 DUP2 DUP2 MSTORE PUSH1 0x20 ADD PUSH0 SWAP1 JUMPDEST DUP3 DUP3 LT ISZERO PUSH2 0x136D JUMPI DUP4 DUP3 SWAP1 PUSH0 MSTORE PUSH1 0x20 PUSH0 KECCAK256 SWAP1 PUSH1 0x5 MUL ADD PUSH1 0x40 MLOAD DUP1 PUSH1 0xA0 ADD PUSH1 0x40 MSTORE SWAP1 DUP2 PUSH0 DUP3 ADD SLOAD DUP2 MSTORE PUSH1 0x20 ADD PUSH1 0x1 DUP3 ADD SLOAD DUP2 MSTORE PUSH1 0x20 ADD PUSH1 0x2 DUP3 ADD DUP1 SLOAD PUSH2 0x12BA SWAP1 PUSH2 0x2F20 JUMP JUMPDEST DUP1 PUSH1 0x1F ADD PUSH1 0x20 DUP1 SWAP2 DIV MUL PUSH1 0x20 ADD PUSH1 0x40 MLOAD SWAP1 DUP2 ADD PUSH1 0x40 MSTORE DUP1 SWAP3 SWAP2 SWAP1 DUP2 DUP2 MSTORE PUSH1 0x20 ADD DUP3 DUP1 SLOAD PUSH2 0x12E6 SWAP1 PUSH2 0x2F20 JUMP JUMPDEST DUP1 ISZERO PUSH2 0x1331 JUMPI DUP1 PUSH1 0x1F LT PUSH2 0x1308 JUMPI PUSH2 0x100 DUP1 DUP4 SLOAD DIV MUL DUP4 MSTORE SWAP2 PUSH1 0x20 ADD SWAP2 PUSH2 0x1331 JUMP JUMPDEST DUP3 ADD SWAP2 SWAP1 PUSH0 MSTORE PUSH1 0x20 PUSH0 KECCAK256 SWAP1 JUMPDEST DUP2 SLOAD DUP2 MSTORE SWAP1 PUSH1 0x1 ADD SWAP1 PUSH1 0x20 ADD DUP1 DUP4 GT PUSH2 0x1314 JUMPI DUP3 SWAP1 SUB PUSH1 0x1F AND DUP3 ADD SWAP2 JUMPDEST POP POP POP POP POP DUP2 MSTORE PUSH1 0x20 ADD PUSH1 0x3 DUP3 ADD SLOAD DUP2 MSTORE PUSH1 0x20 ADD PUSH1 0x4 DUP3 ADD PUSH0 SWAP1 SLOAD SWAP1 PUSH2 0x100 EXP SWAP1 DIV PUSH1 0xFF AND ISZERO ISZERO ISZERO ISZERO DUP2 MSTORE POP POP DUP2 MSTORE PUSH1 0x20 ADD SWAP1 PUSH1 0x1 ADD SWAP1 PUSH2 0x1276 JUMP JUMPDEST POP POP POP POP SWAP1 POP SWAP2 SWAP1 POP JUMP JUMPDEST PUSH2 0x1380 PUSH2 0x1DA0 JUMP JUMPDEST PUSH2 0x1388 PUSH2 0x1F49 JUMP JUMPDEST JUMP JUMPDEST PUSH0 DUP1 PUSH0 DUP1 PUSH0 DUP1 PUSH1 0x5 PUSH0 CALLER PUSH20 0xFFFFFFFFFFFFFFFFFFFFFFFFFFFFFFFFFFFFFFFF AND PUSH20 0xFFFFFFFFFFFFFFFFFFFFFFFFFFFFFFFFFFFFFFFF AND DUP2 MSTORE PUSH1 0x20 ADD SWAP1 DUP2 MSTORE PUSH1 0x20 ADD PUSH0 KECCAK256 SLOAD SWAP1 POP PUSH0 PUSH1 0x4 PUSH0 DUP4 DUP2 MSTORE PUSH1 0x20 ADD SWAP1 DUP2 MSTORE PUSH1 0x20 ADD PUSH0 KECCAK256 SWAP1 POP CALLER DUP2 PUSH1 0x7 ADD PUSH0 SWAP1 SLOAD SWAP1 PUSH2 0x100 EXP SWAP1 DIV PUSH1 0xFF AND DUP3 PUSH1 0x2 ADD SLOAD DUP4 PUSH1 0x6 ADD SLOAD DUP5 PUSH1 0x1 ADD SLOAD SWAP7 POP SWAP7 POP SWAP7 POP SWAP7 POP SWAP7 POP POP POP SWAP2 SWAP4 SWAP6 SWAP1 SWAP3 SWAP5 POP JUMP JUMPDEST PUSH0 DUP1 PUSH0 SWAP1 SLOAD SWAP1 PUSH2 0x100 EXP SWAP1 DIV PUSH20 0xFFFFFFFFFFFFFFFFFFFFFFFFFFFFFFFFFFFFFFFF AND SWAP1 POP SWAP1 JUMP JUMPDEST PUSH2 0x1449 PUSH2 0x1DA0 JUMP JUMPDEST PUSH0 PUSH20 0xFFFFFFFFFFFFFFFFFFFFFFFFFFFFFFFFFFFFFFFF AND DUP2 PUSH20 0xFFFFFFFFFFFFFFFFFFFFFFFFFFFFFFFFFFFFFFFF AND SUB PUSH2 0x14B7 JUMPI PUSH1 0x40 MLOAD PUSH32 0x8C379A000000000000000000000000000000000000000000000000000000000 DUP2 MSTORE PUSH1 0x4 ADD PUSH2 0x14AE SWAP1 PUSH2 0x302A JUMP JUMPDEST PUSH1 0x40 MLOAD DUP1 SWAP2 SUB SWAP1 REVERT JUMPDEST DUP1 PUSH1 0xA PUSH0 PUSH2 0x100 EXP DUP2 SLOAD DUP2 PUSH20 0xFFFFFFFFFFFFFFFFFFFFFFFFFFFFFFFFFFFFFFFF MUL NOT AND SWAP1 DUP4 PUSH20 0xFFFFFFFFFFFFFFFFFFFFFFFFFFFFFFFFFFFFFFFF AND MUL OR SWAP1 SSTORE POP DUP1 PUSH20 0xFFFFFFFFFFFFFFFFFFFFFFFFFFFFFFFFFFFFFFFF AND PUSH32 0xD24015CC99CC1700CAFCA3042840A1D8AC1E3964FD2E0E37EA29C654056EE327 PUSH1 0x40 MLOAD PUSH1 0x40 MLOAD DUP1 SWAP2 SUB SWAP1 LOG2 POP JUMP JUMPDEST PUSH1 0x6 PUSH1 0x20 MSTORE DUP2 PUSH0 MSTORE PUSH1 0x40 PUSH0 KECCAK256 PUSH1 0x20 MSTORE DUP1 PUSH0 MSTORE PUSH1 0x40 PUSH0 KECCAK256 PUSH0 SWAP2 POP SWAP2 POP SWAP1 SLOAD SWAP1 PUSH2 0x100 EXP SWAP1 DIV PUSH1 0xFF AND DUP2 JUMP JUMPDEST PUSH0 PUSH1 0xA PUSH0 SWAP1 SLOAD SWAP1 PUSH2 0x100 EXP SWAP1 DIV PUSH20 0xFFFFFFFFFFFFFFFFFFFFFFFFFFFFFFFFFFFFFFFF AND PUSH20 0xFFFFFFFFFFFFFFFFFFFFFFFFFFFFFFFFFFFFFFFF AND PUSH4 0xB2A93E7C DUP5 DUP5 PUSH1 0x40 MLOAD DUP4 PUSH4 0xFFFFFFFF AND PUSH1 0xE0 SHL DUP2 MSTORE PUSH1 0x4 ADD PUSH2 0x15C4 SWAP3 SWAP2 SWAP1 PUSH2 0x29C7 JUMP JUMPDEST PUSH1 0x20 PUSH1 0x40 MLOAD DUP1 DUP4 SUB DUP2 DUP7 GAS STATICCALL ISZERO DUP1 ISZERO PUSH2 0x15DF JUMPI RETURNDATASIZE PUSH0 DUP1 RETURNDATACOPY RETURNDATASIZE PUSH0 REVERT JUMPDEST POP POP POP POP PUSH1 0x40 MLOAD RETURNDATASIZE PUSH1 0x1F NOT PUSH1 0x1F DUP3 ADD AND DUP3 ADD DUP1 PUSH1 0x40 MSTORE POP DUP2 ADD SWAP1 PUSH2 0x1603 SWAP2 SWAP1 PUSH2 0x2A02 JUMP JUMPDEST SWAP1 POP SWAP3 SWAP2 POP POP JUMP JUMPDEST PUSH0 PUSH1 0x5 PUSH0 CALLER PUSH20 0xFFFFFFFFFFFFFFFFFFFFFFFFFFFFFFFFFFFFFFFF AND PUSH20 0xFFFFFFFFFFFFFFFFFFFFFFFFFFFFFFFFFFFFFFFF AND DUP2 MSTORE PUSH1 0x20 ADD SWAP1 DUP2 MSTORE PUSH1 0x20 ADD PUSH0 KECCAK256 SLOAD SWAP1 POP PUSH0 DUP1 SHL DUP2 SUB PUSH2 0x1690 JUMPI PUSH1 0x40 MLOAD PUSH32 0x8C379A000000000000000000000000000000000000000000000000000000000 DUP2 MSTORE PUSH1 0x4 ADD PUSH2 0x1687 SWAP1 PUSH2 0x2BA7 JUMP JUMPDEST PUSH1 0x40 MLOAD DUP1 SWAP2 SUB SWAP1 REVERT JUMPDEST PUSH1 0x4 PUSH0 DUP3 DUP2 MSTORE PUSH1 0x20 ADD SWAP1 DUP2 MSTORE PUSH1 0x20 ADD PUSH0 KECCAK256 PUSH1 0x7 ADD PUSH0 SWAP1 SLOAD SWAP1 PUSH2 0x100 EXP SWAP1 DIV PUSH1 0xFF AND PUSH2 0x16F0 JUMPI PUSH1 0x40 MLOAD PUSH32 0x8C379A000000000000000000000000000000000000000000000000000000000 DUP2 MSTORE PUSH1 0x4 ADD PUSH2 0x16E7 SWAP1 PUSH2 0x2941 JUMP JUMPDEST PUSH1 0x40 MLOAD DUP1 SWAP2 SUB SWAP1 REVERT JUMPDEST PUSH1 0xA PUSH0 SWAP1 SLOAD SWAP1 PUSH2 0x100 EXP SWAP1 DIV PUSH20 0xFFFFFFFFFFFFFFFFFFFFFFFFFFFFFFFFFFFFFFFF AND PUSH20 0xFFFFFFFFFFFFFFFFFFFFFFFFFFFFFFFFFFFFFFFF AND PUSH4 0xB2A93E7C DUP5 DUP5 PUSH1 0x40 MLOAD DUP4 PUSH4 0xFFFFFFFF AND PUSH1 0xE0 SHL DUP2 MSTORE PUSH1 0x4 ADD PUSH2 0x174C SWAP3 SWAP2 SWAP1 PUSH2 0x29C7 JUMP JUMPDEST PUSH1 0x20 PUSH1 0x40 MLOAD DUP1 DUP4 SUB DUP2 DUP7 GAS STATICCALL ISZERO DUP1 ISZERO PUSH2 0x1767 JUMPI RETURNDATASIZE PUSH0 DUP1 RETURNDATACOPY RETURNDATASIZE PUSH0 REVERT JUMPDEST POP POP POP POP PUSH1 0x40 MLOAD RETURNDATASIZE PUSH1 0x1F NOT PUSH1 0x1F DUP3 ADD AND DUP3 ADD DUP1 PUSH1 0x40 MSTORE POP DUP2 ADD SWAP1 PUSH2 0x178B SWAP2 SWAP1 PUSH2 0x2A02 JUMP JUMPDEST PUSH2 0x17CA JUMPI PUSH1 0x40 MLOAD PUSH32 0x8C379A000000000000000000000000000000000000000000000000000000000 DUP2 MSTORE PUSH1 0x4 ADD PUSH2 0x17C1 SWAP1 PUSH2 0x3092 JUMP JUMPDEST PUSH1 0x40 MLOAD DUP1 SWAP2 SUB SWAP1 REVERT JUMPDEST DUP3 DUP2 PUSH32 0x516E577143C56DA8A9A22A288231BDFC3A2528C47888EC00E2936E9AEC240231 TIMESTAMP PUSH1 0x40 MLOAD PUSH2 0x17FB SWAP2 SWAP1 PUSH2 0x2187 JUMP JUMPDEST PUSH1 0x40 MLOAD DUP1 SWAP2 SUB SWAP1 LOG3 POP POP POP JUMP JUMPDEST PUSH0 PUSH1 0x8 SLOAD SWAP1 POP SWAP1 JUMP JUMPDEST PUSH9 0x3635C9ADC5DEA00000 DUP2 JUMP JUMPDEST PUSH2 0x2710 DUP2 JUMP JUMPDEST PUSH0 PUSH1 0x5 PUSH0 CALLER PUSH20 0xFFFFFFFFFFFFFFFFFFFFFFFFFFFFFFFFFFFFFFFF AND PUSH20 0xFFFFFFFFFFFFFFFFFFFFFFFFFFFFFFFFFFFFFFFF AND DUP2 MSTORE PUSH1 0x20 ADD SWAP1 DUP2 MSTORE PUSH1 0x20 ADD PUSH0 KECCAK256 SLOAD SWAP1 POP PUSH0 DUP1 SHL DUP2 SUB PUSH2 0x18A9 JUMPI PUSH1 0x40 MLOAD PUSH32 0x8C379A000000000000000000000000000000000000000000000000000000000 DUP2 MSTORE PUSH1 0x4 ADD PUSH2 0x18A0 SWAP1 PUSH2 0x2BA7 JUMP JUMPDEST PUSH1 0x40 MLOAD DUP1 SWAP2 SUB SWAP1 REVERT JUMPDEST PUSH1 0x4 PUSH0 DUP3 DUP2 MSTORE PUSH1 0x20 ADD SWAP1 DUP2 MSTORE PUSH1 0x20 ADD PUSH0 KECCAK256 PUSH1 0x7 ADD PUSH0 SWAP1 SLOAD SWAP1 PUSH2 0x100 EXP SWAP1 DIV PUSH1 0xFF AND ISZERO PUSH2 0x190A JUMPI PUSH1 0x40 MLOAD PUSH32 0x8C379A000000000000000000000000000000000000000000000000000000000 DUP2 MSTORE PUSH1 0x4 ADD PUSH2 0x1901 SWAP1 PUSH2 0x30FA JUMP JUMPDEST PUSH1 0x40 MLOAD DUP1 SWAP2 SUB SWAP1 REVERT JUMPDEST DUP3 PUSH1 0x4 PUSH0 DUP4 DUP2 MSTORE PUSH1 0x20 ADD SWAP1 DUP2 MSTORE PUSH1 0x20 ADD PUSH0 KECCAK256 PUSH1 0x8 ADD SLOAD EQ PUSH2 0x1960 JUMPI PUSH1 0x40 MLOAD PUSH32 0x8C379A000000000000000000000000000000000000000000000000000000000 DUP2 MSTORE PUSH1 0x4 ADD PUSH2 0x1957 SWAP1 PUSH2 0x3162 JUMP JUMPDEST PUSH1 0x40 MLOAD DUP1 SWAP2 SUB SWAP1 REVERT JUMPDEST PUSH0 DUP3 PUSH1 0x40 MLOAD PUSH1 0x20 ADD PUSH2 0x1972 SWAP2 SWAP1 PUSH2 0x31A0 JUMP JUMPDEST PUSH1 0x40 MLOAD PUSH1 0x20 DUP2 DUP4 SUB SUB DUP2 MSTORE SWAP1 PUSH1 0x40 MSTORE SWAP1 POP PUSH1 0xA PUSH0 SWAP1 SLOAD SWAP1 PUSH2 0x100 EXP SWAP1 DIV PUSH20 0xFFFFFFFFFFFFFFFFFFFFFFFFFFFFFFFFFFFFFFFF AND PUSH20 0xFFFFFFFFFFFFFFFFFFFFFFFFFFFFFFFFFFFFFFFF AND PUSH4 0x4E6C6FEB DUP6 DUP4 PUSH1 0x40 MLOAD DUP4 PUSH4 0xFFFFFFFF AND PUSH1 0xE0 SHL DUP2 MSTORE PUSH1 0x4 ADD PUSH2 0x19DF SWAP3 SWAP2 SWAP1 PUSH2 0x320C JUMP JUMPDEST PUSH1 0x20 PUSH1 0x40 MLOAD DUP1 DUP4 SUB DUP2 DUP7 GAS STATICCALL ISZERO DUP1 ISZERO PUSH2 0x19FA JUMPI RETURNDATASIZE PUSH0 DUP1 RETURNDATACOPY RETURNDATASIZE PUSH0 REVERT JUMPDEST POP POP POP POP PUSH1 0x40 MLOAD RETURNDATASIZE PUSH1 0x1F NOT PUSH1 0x1F DUP3 ADD AND DUP3 ADD DUP1 PUSH1 0x40 MSTORE POP DUP2 ADD SWAP1 PUSH2 0x1A1E SWAP2 SWAP1 PUSH2 0x2A02 JUMP JUMPDEST PUSH2 0x1A5D JUMPI PUSH1 0x40 MLOAD PUSH32 0x8C379A000000000000000000000000000000000000000000000000000000000 DUP2 MSTORE PUSH1 0x4 ADD PUSH2 0x1A54 SWAP1 PUSH2 0x3284 JUMP JUMPDEST PUSH1 0x40 MLOAD DUP1 SWAP2 SUB SWAP1 REVERT JUMPDEST PUSH1 0x1 PUSH1 0x4 PUSH0 DUP5 DUP2 MSTORE PUSH1 0x20 ADD SWAP1 DUP2 MSTORE PUSH1 0x20 ADD PUSH0 KECCAK256 PUSH1 0x7 ADD PUSH0 PUSH2 0x100 EXP DUP2 SLOAD DUP2 PUSH1 0xFF MUL NOT AND SWAP1 DUP4 ISZERO ISZERO MUL OR SWAP1 SSTORE POP PUSH1 0x9 PUSH0 DUP2 SLOAD DUP1 SWAP3 SWAP2 SWAP1 PUSH2 0x1A9B SWAP1 PUSH2 0x32A2 JUMP JUMPDEST SWAP2 SWAP1 POP SSTORE POP DUP2 PUSH32 0x941EE4B40B62FAC42025F4A918FFB407F9A0A435BFACDDFEF438D146F4A06F5C TIMESTAMP PUSH1 0x40 MLOAD PUSH2 0x1AD0 SWAP2 SWAP1 PUSH2 0x2187 JUMP JUMPDEST PUSH1 0x40 MLOAD DUP1 SWAP2 SUB SWAP1 LOG2 POP POP POP POP JUMP JUMPDEST PUSH1 0x7 PUSH1 0x20 MSTORE DUP2 PUSH0 MSTORE PUSH1 0x40 PUSH0 KECCAK256 PUSH1 0x20 MSTORE DUP1 PUSH0 MSTORE PUSH1 0x40 PUSH0 KECCAK256 PUSH0 SWAP2 POP SWAP2 POP POP SLOAD DUP2 JUMP JUMPDEST PUSH2 0x1B06 PUSH2 0x1DA0 JUMP JUMPDEST PUSH0 PUSH1 0x5 PUSH0 CALLER PUSH20 0xFFFFFFFFFFFFFFFFFFFFFFFFFFFFFFFFFFFFFFFF AND PUSH20 0xFFFFFFFFFFFFFFFFFFFFFFFFFFFFFFFFFFFFFFFF AND DUP2 MSTORE PUSH1 0x20 ADD SWAP1 DUP2 MSTORE PUSH1 0x20 ADD PUSH0 KECCAK256 SLOAD SWAP1 POP PUSH0 DUP1 SHL DUP2 SUB PUSH2 0x1B8B JUMPI PUSH1 0x40 MLOAD PUSH32 0x8C379A000000000000000000000000000000000000000000000000000000000 DUP2 MSTORE PUSH1 0x4 ADD PUSH2 0x1B82 SWAP1 PUSH2 0x2BA7 JUMP JUMPDEST PUSH1 0x40 MLOAD DUP1 SWAP2 SUB SWAP1 REVERT JUMPDEST PUSH1 0xA PUSH0 SWAP1 SLOAD SWAP1 PUSH2 0x100 EXP SWAP1 DIV PUSH20 0xFFFFFFFFFFFFFFFFFFFFFFFFFFFFFFFFFFFFFFFF AND PUSH20 0xFFFFFFFFFFFFFFFFFFFFFFFFFFFFFFFFFFFFFFFF AND PUSH4 0x1E083247 DUP6 DUP5 PUSH1 0x40 MLOAD DUP4 PUSH4 0xFFFFFFFF AND PUSH1 0xE0 SHL DUP2 MSTORE PUSH1 0x4 ADD PUSH2 0x1BE7 SWAP3 SWAP2 SWAP1 PUSH2 0x29C7 JUMP JUMPDEST PUSH1 0x20 PUSH1 0x40 MLOAD DUP1 DUP4 SUB DUP2 DUP7 GAS STATICCALL ISZERO DUP1 ISZERO PUSH2 0x1C02 JUMPI RETURNDATASIZE PUSH0 DUP1 RETURNDATACOPY RETURNDATASIZE PUSH0 REVERT JUMPDEST POP POP POP POP PUSH1 0x40 MLOAD RETURNDATASIZE PUSH1 0x1F NOT PUSH1 0x1F DUP3 ADD AND DUP3 ADD DUP1 PUSH1 0x40 MSTORE POP DUP2 ADD SWAP1 PUSH2 0x1C26 SWAP2 SWAP1 PUSH2 0x2A02 JUMP JUMPDEST PUSH2 0x1C65 JUMPI PUSH1 0x40 MLOAD PUSH32 0x8C379A000000000000000000000000000000000000000000000000000000000 DUP2 MSTORE PUSH1 0x4 ADD PUSH2 0x1C5C SWAP1 PUSH2 0x3333 JUMP JUMPDEST PUSH1 0x40 MLOAD DUP1 SWAP2 SUB SWAP1 REVERT JUMPDEST DUP3 PUSH1 0x4 PUSH0 DUP4 DUP2 MSTORE PUSH1 0x20 ADD SWAP1 DUP2 MSTORE PUSH1 0x20 ADD PUSH0 KECCAK256 PUSH1 0x7 ADD PUSH0 PUSH2 0x100 EXP DUP2 SLOAD DUP2 PUSH1 0xFF MUL NOT AND SWAP1 DUP4 ISZERO ISZERO MUL OR SWAP1 SSTORE POP DUP3 ISZERO PUSH2 0x1CB2 JUMPI PUSH1 0x9 PUSH0 DUP2 SLOAD DUP1 SWAP3 SWAP2 SWAP1 PUSH2 0x1CA8 SWAP1 PUSH2 0x32A2 JUMP JUMPDEST SWAP2 SWAP1 POP SSTORE POP PUSH2 0x1CCA JUMP JUMPDEST PUSH1 0x9 PUSH0 DUP2 SLOAD DUP1 SWAP3 SWAP2 SWAP1 PUSH2 0x1CC4 SWAP1 PUSH2 0x2C2D JUMP JUMPDEST SWAP2 SWAP1 POP SSTORE POP JUMPDEST DUP1 PUSH32 0x80DF6F94561E528575515C9D1FFB2120A96E261D93DC24DCEA7CFC7496471243 DUP5 TIMESTAMP PUSH1 0x40 MLOAD PUSH2 0x1CFC SWAP3 SWAP2 SWAP1 PUSH2 0x3351 JUMP JUMPDEST PUSH1 0x40 MLOAD DUP1 SWAP2 SUB SWAP1 LOG2 POP POP POP POP JUMP JUMPDEST PUSH1 0x8 SLOAD DUP2 JUMP JUMPDEST PUSH1 0xA DUP2 JUMP JUMPDEST PUSH3 0x93A80 DUP2 JUMP JUMPDEST PUSH2 0x1D24 PUSH2 0x1DA0 JUMP JUMPDEST PUSH0 PUSH20 0xFFFFFFFFFFFFFFFFFFFFFFFFFFFFFFFFFFFFFFFF AND DUP2 PUSH20 0xFFFFFFFFFFFFFFFFFFFFFFFFFFFFFFFFFFFFFFFF AND SUB PUSH2 0x1D94 JUMPI PUSH0 PUSH1 0x40 MLOAD PUSH32 0x1E4FBDF700000000000000000000000000000000000000000000000000000000 DUP2 MSTORE PUSH1 0x4 ADD PUSH2 0x1D8B SWAP2 SWAP1 PUSH2 0x2850 JUMP JUMPDEST PUSH1 0x40 MLOAD DUP1 SWAP2 SUB SWAP1 REVERT JUMPDEST PUSH2 0x1D9D DUP2 PUSH2 0x1E88 JUMP JUMPDEST POP JUMP JUMPDEST PUSH2 0x1DA8 PUSH2 0x1FAB JUMP JUMPDEST PUSH20 0xFFFFFFFFFFFFFFFFFFFFFFFFFFFFFFFFFFFFFFFF AND PUSH2 0x1DC6 PUSH2 0x141A JUMP JUMPDEST PUSH20 0xFFFFFFFFFFFFFFFFFFFFFFFFFFFFFFFFFFFFFFFF AND EQ PUSH2 0x1E25 JUMPI PUSH2 0x1DE9 PUSH2 0x1FAB JUMP JUMPDEST PUSH1 0x40 MLOAD PUSH32 0x118CDAA700000000000000000000000000000000000000000000000000000000 DUP2 MSTORE PUSH1 0x4 ADD PUSH2 0x1E1C SWAP2 SWAP1 PUSH2 0x2850 JUMP JUMPDEST PUSH1 0x40 MLOAD DUP1 SWAP2 SUB SWAP1 REVERT JUMPDEST JUMP JUMPDEST PUSH2 0x1E2F PUSH2 0x1FB2 JUMP JUMPDEST PUSH0 PUSH1 0x2 PUSH0 PUSH2 0x100 EXP DUP2 SLOAD DUP2 PUSH1 0xFF MUL NOT AND SWAP1 DUP4 ISZERO ISZERO MUL OR SWAP1 SSTORE POP PUSH32 0x5DB9EE0A495BF2E6FF9C91A7834C1BA4FDD244A5E8AA4E537BD38AEAE4B073AA PUSH2 0x1E71 PUSH2 0x1FAB JUMP JUMPDEST PUSH1 0x40 MLOAD PUSH2 0x1E7E SWAP2 SWAP1 PUSH2 0x2850 JUMP JUMPDEST PUSH1 0x40 MLOAD DUP1 SWAP2 SUB SWAP1 LOG1 JUMP JUMPDEST PUSH0 DUP1 PUSH0 SWAP1 SLOAD SWAP1 PUSH2 0x100 EXP SWAP1 DIV PUSH20 0xFFFFFFFFFFFFFFFFFFFFFFFFFFFFFFFFFFFFFFFF AND SWAP1 POP DUP2 PUSH0 DUP1 PUSH2 0x100 EXP DUP2 SLOAD DUP2 PUSH20 0xFFFFFFFFFFFFFFFFFFFFFFFFFFFFFFFFFFFFFFFF MUL NOT AND SWAP1 DUP4 PUSH20 0xFFFFFFFFFFFFFFFFFFFFFFFFFFFFFFFFFFFFFFFF AND MUL OR SWAP1 SSTORE POP DUP2 PUSH20 0xFFFFFFFFFFFFFFFFFFFFFFFFFFFFFFFFFFFFFFFF AND DUP2 PUSH20 0xFFFFFFFFFFFFFFFFFFFFFFFFFFFFFFFFFFFFFFFF AND PUSH32 0x8BE0079C531659141344CD1FD0A4F28419497F9722A3DAAFE3B4186F6B6457E0 PUSH1 0x40 MLOAD PUSH1 0x40 MLOAD DUP1 SWAP2 SUB SWAP1 LOG3 POP POP JUMP JUMPDEST PUSH2 0x1F51 PUSH2 0x1FF2 JUMP JUMPDEST PUSH1 0x1 PUSH1 0x2 PUSH0 PUSH2 0x100 EXP DUP2 SLOAD DUP2 PUSH1 0xFF MUL NOT AND SWAP1 DUP4 ISZERO ISZERO MUL OR SWAP1 SSTORE POP PUSH32 0x62E78CEA01BEE320CD4E420270B5EA74000D11B0C9F74754EBDBFC544B05A258 PUSH2 0x1F94 PUSH2 0x1FAB JUMP JUMPDEST PUSH1 0x40 MLOAD PUSH2 0x1FA1 SWAP2 SWAP1 PUSH2 0x2850 JUMP JUMPDEST PUSH1 0x40 MLOAD DUP1 SWAP2 SUB SWAP1 LOG1 JUMP JUMPDEST PUSH0 CALLER SWAP1 POP SWAP1 JUMP JUMPDEST PUSH2 0x1FBA PUSH2 0xFBB JUMP JUMPDEST PUSH2 0x1FF0 JUMPI PUSH1 0x40 MLOAD PUSH32 0x8DFC202B00000000000000000000000000000000000000000000000000000000 DUP2 MSTORE PUSH1 0x4 ADD PUSH1 0x40 MLOAD DUP1 SWAP2 SUB SWAP1 REVERT JUMPDEST JUMP JUMPDEST PUSH2 0x1FFA PUSH2 0xFBB JUMP JUMPDEST ISZERO PUSH2 0x2031 JUMPI PUSH1 0x40 MLOAD PUSH32 0xD93C066500000000000000000000000000000000000000000000000000000000 DUP2 MSTORE PUSH1 0x4 ADD PUSH1 0x40 MLOAD DUP1 SWAP2 SUB SWAP1 REVERT JUMPDEST JUMP JUMPDEST PUSH0 DUP1 REVERT JUMPDEST PUSH0 DUP1 REVERT JUMPDEST PUSH0 DUP2 SWAP1 POP SWAP2 SWAP1 POP JUMP JUMPDEST PUSH2 0x204D DUP2 PUSH2 0x203B JUMP JUMPDEST DUP2 EQ PUSH2 0x2057 JUMPI PUSH0 DUP1 REVERT JUMPDEST POP JUMP JUMPDEST PUSH0 DUP2 CALLDATALOAD SWAP1 POP PUSH2 0x2068 DUP2 PUSH2 0x2044 JUMP JUMPDEST SWAP3 SWAP2 POP POP JUMP JUMPDEST PUSH0 PUSH1 0x20 DUP3 DUP5 SUB SLT ISZERO PUSH2 0x2083 JUMPI PUSH2 0x2082 PUSH2 0x2033 JUMP JUMPDEST JUMPDEST PUSH0 PUSH2 0x2090 DUP5 DUP3 DUP6 ADD PUSH2 0x205A JUMP JUMPDEST SWAP2 POP POP SWAP3 SWAP2 POP POP JUMP JUMPDEST PUSH0 DUP2 SWAP1 POP SWAP2 SWAP1 POP JUMP JUMPDEST PUSH2 0x20AB DUP2 PUSH2 0x2099 JUMP JUMPDEST DUP3 MSTORE POP POP JUMP JUMPDEST PUSH0 PUSH1 0x80 DUP3 ADD SWAP1 POP PUSH2 0x20C4 PUSH0 DUP4 ADD DUP8 PUSH2 0x20A2 JUMP JUMPDEST PUSH2 0x20D1 PUSH1 0x20 DUP4 ADD DUP7 PUSH2 0x20A2 JUMP JUMPDEST PUSH2 0x20DE PUSH1 0x40 DUP4 ADD DUP6 PUSH2 0x20A2 JUMP JUMPDEST PUSH2 0x20EB PUSH1 0x60 DUP4 ADD DUP5 PUSH2 0x20A2 JUMP JUMPDEST SWAP6 SWAP5 POP POP POP POP POP JUMP JUMPDEST PUSH0 PUSH20 0xFFFFFFFFFFFFFFFFFFFFFFFFFFFFFFFFFFFFFFFF DUP3 AND SWAP1 POP SWAP2 SWAP1 POP JUMP JUMPDEST PUSH0 DUP2 SWAP1 POP SWAP2 SWAP1 POP JUMP JUMPDEST PUSH0 PUSH2 0x2136 PUSH2 0x2131 PUSH2 0x212C DUP5 PUSH2 0x20F4 JUMP JUMPDEST PUSH2 0x2113 JUMP JUMPDEST PUSH2 0x20F4 JUMP JUMPDEST SWAP1 POP SWAP2 SWAP1 POP JUMP JUMPDEST PUSH0 PUSH2 0x2147 DUP3 PUSH2 0x211C JUMP JUMPDEST SWAP1 POP SWAP2 SWAP1 POP JUMP JUMPDEST PUSH0 PUSH2 0x2158 DUP3 PUSH2 0x213D JUMP JUMPDEST SWAP1 POP SWAP2 SWAP1 POP JUMP JUMPDEST PUSH2 0x2168 DUP2 PUSH2 0x214E JUMP JUMPDEST DUP3 MSTORE POP POP JUMP JUMPDEST PUSH0 PUSH1 0x20 DUP3 ADD SWAP1 POP PUSH2 0x2181 PUSH0 DUP4 ADD DUP5 PUSH2 0x215F JUMP JUMPDEST SWAP3 SWAP2 POP POP JUMP JUMPDEST PUSH0 PUSH1 0x20 DUP3 ADD SWAP1 POP PUSH2 0x219A PUSH0 DUP4 ADD DUP5 PUSH2 0x20A2 JUMP JUMPDEST SWAP3 SWAP2 POP POP JUMP JUMPDEST PUSH2 0x21A9 DUP2 PUSH2 0x2099 JUMP JUMPDEST DUP2 EQ PUSH2 0x21B3 JUMPI PUSH0 DUP1 REVERT JUMPDEST POP JUMP JUMPDEST PUSH0 DUP2 CALLDATALOAD SWAP1 POP PUSH2 0x21C4 DUP2 PUSH2 0x21A0 JUMP JUMPDEST SWAP3 SWAP2 POP POP JUMP JUMPDEST PUSH0 DUP2 ISZERO ISZERO SWAP1 POP SWAP2 SWAP1 POP JUMP JUMPDEST PUSH2 0x21DE DUP2 PUSH2 0x21CA JUMP JUMPDEST DUP2 EQ PUSH2 0x21E8 JUMPI PUSH0 DUP1 REVERT JUMPDEST POP JUMP JUMPDEST PUSH0 DUP2 CALLDATALOAD SWAP1 POP PUSH2 0x21F9 DUP2 PUSH2 0x21D5 JUMP JUMPDEST SWAP3 SWAP2 POP POP JUMP JUMPDEST PUSH0 DUP1 PUSH0 DUP1 PUSH1 0x80 DUP6 DUP8 SUB SLT ISZERO PUSH2 0x2217 JUMPI PUSH2 0x2216 PUSH2 0x2033 JUMP JUMPDEST JUMPDEST PUSH0 PUSH2 0x2224 DUP8 DUP3 DUP9 ADD PUSH2 0x205A JUMP JUMPDEST SWAP5 POP POP PUSH1 0x20 PUSH2 0x2235 DUP8 DUP3 DUP9 ADD PUSH2 0x21B6 JUMP JUMPDEST SWAP4 POP POP PUSH1 0x40 PUSH2 0x2246 DUP8 DUP3 DUP9 ADD PUSH2 0x21EB JUMP JUMPDEST SWAP3 POP POP PUSH1 0x60 PUSH2 0x2257 DUP8 DUP3 DUP9 ADD PUSH2 0x205A JUMP JUMPDEST SWAP2 POP POP SWAP3 SWAP6 SWAP2 SWAP5 POP SWAP3 POP JUMP JUMPDEST PUSH0 DUP1 REVERT JUMPDEST PUSH0 DUP1 REVERT JUMPDEST PUSH0 DUP1 REVERT JUMPDEST PUSH0 DUP1 DUP4 PUSH1 0x1F DUP5 ADD SLT PUSH2 0x2284 JUMPI PUSH2 0x2283 PUSH2 0x2263 JUMP JUMPDEST JUMPDEST DUP3 CALLDATALOAD SWAP1 POP PUSH8 0xFFFFFFFFFFFFFFFF DUP2 GT ISZERO PUSH2 0x22A1 JUMPI PUSH2 0x22A0 PUSH2 0x2267 JUMP JUMPDEST JUMPDEST PUSH1 0x20 DUP4 ADD SWAP2 POP DUP4 PUSH1 0x1 DUP3 MUL DUP4 ADD GT ISZERO PUSH2 0x22BD JUMPI PUSH2 0x22BC PUSH2 0x226B JUMP JUMPDEST JUMPDEST SWAP3 POP SWAP3 SWAP1 POP JUMP JUMPDEST PUSH0 DUP1 PUSH0 DUP1 PUSH1 0x60 DUP6 DUP8 SUB SLT ISZERO PUSH2 0x22DC JUMPI PUSH2 0x22DB PUSH2 0x2033 JUMP JUMPDEST JUMPDEST PUSH0 PUSH2 0x22E9 DUP8 DUP3 DUP9 ADD PUSH2 0x205A JUMP JUMPDEST SWAP5 POP POP PUSH1 0x20 DUP6 ADD CALLDATALOAD PUSH8 0xFFFFFFFFFFFFFFFF DUP2 GT ISZERO PUSH2 0x230A JUMPI PUSH2 0x2309 PUSH2 0x2037 JUMP JUMPDEST JUMPDEST PUSH2 0x2316 DUP8 DUP3 DUP9 ADD PUSH2 0x226F JUMP JUMPDEST SWAP4 POP SWAP4 POP POP PUSH1 0x40 PUSH2 0x2329 DUP8 DUP3 DUP9 ADD PUSH2 0x205A JUMP JUMPDEST SWAP2 POP POP SWAP3 SWAP6 SWAP2 SWAP5 POP SWAP3 POP JUMP JUMPDEST PUSH2 0x233E DUP2 PUSH2 0x21CA JUMP JUMPDEST DUP3 MSTORE POP POP JUMP JUMPDEST PUSH0 PUSH1 0x20 DUP3 ADD SWAP1 POP PUSH2 0x2357 PUSH0 DUP4 ADD DUP5 PUSH2 0x2335 JUMP JUMPDEST SWAP3 SWAP2 POP POP JUMP JUMPDEST PUSH0 DUP1 PUSH0 PUSH1 0x60 DUP5 DUP7 SUB SLT ISZERO PUSH2 0x2374 JUMPI PUSH2 0x2373 PUSH2 0x2033 JUMP JUMPDEST JUMPDEST PUSH0 PUSH2 0x2381 DUP7 DUP3 DUP8 ADD PUSH2 0x205A JUMP JUMPDEST SWAP4 POP POP PUSH1 0x20 PUSH2 0x2392 DUP7 DUP3 DUP8 ADD PUSH2 0x205A JUMP JUMPDEST SWAP3 POP POP PUSH1 0x40 PUSH2 0x23A3 DUP7 DUP3 DUP8 ADD PUSH2 0x21B6 JUMP JUMPDEST SWAP2 POP POP SWAP3 POP SWAP3 POP SWAP3 JUMP JUMPDEST PUSH0 PUSH2 0x23B7 DUP3 PUSH2 0x20F4 JUMP JUMPDEST SWAP1 POP SWAP2 SWAP1 POP JUMP JUMPDEST PUSH2 0x23C7 DUP2 PUSH2 0x23AD JUMP JUMPDEST DUP2 EQ PUSH2 0x23D1 JUMPI PUSH0 DUP1 REVERT JUMPDEST POP JUMP JUMPDEST PUSH0 DUP2 CALLDATALOAD SWAP1 POP PUSH2 0x23E2 DUP2 PUSH2 0x23BE JUMP JUMPDEST SWAP3 SWAP2 POP POP JUMP JUMPDEST PUSH0 PUSH1 0x20 DUP3 DUP5 SUB SLT ISZERO PUSH2 0x23FD JUMPI PUSH2 0x23FC PUSH2 0x2033 JUMP JUMPDEST JUMPDEST PUSH0 PUSH2 0x240A DUP5 DUP3 DUP6 ADD PUSH2 0x23D4 JUMP JUMPDEST SWAP2 POP POP SWAP3 SWAP2 POP POP JUMP JUMPDEST PUSH2 0x241C DUP2 PUSH2 0x203B JUMP JUMPDEST DUP3 MSTORE POP POP JUMP JUMPDEST PUSH0 PUSH1 0x20 DUP3 ADD SWAP1 POP PUSH2 0x2435 PUSH0 DUP4 ADD DUP5 PUSH2 0x2413 JUMP JUMPDEST SWAP3 SWAP2 POP POP JUMP JUMPDEST PUSH0 DUP1 PUSH1 0x40 DUP4 DUP6 SUB SLT ISZERO PUSH2 0x2451 JUMPI PUSH2 0x2450 PUSH2 0x2033 JUMP JUMPDEST JUMPDEST PUSH0 PUSH2 0x245E DUP6 DUP3 DUP7 ADD PUSH2 0x205A JUMP JUMPDEST SWAP3 POP POP PUSH1 0x20 PUSH2 0x246F DUP6 DUP3 DUP7 ADD PUSH2 0x21B6 JUMP JUMPDEST SWAP2 POP POP SWAP3 POP SWAP3 SWAP1 POP JUMP JUMPDEST PUSH0 DUP2 MLOAD SWAP1 POP SWAP2 SWAP1 POP JUMP JUMPDEST PUSH0 DUP3 DUP3 MSTORE PUSH1 0x20 DUP3 ADD SWAP1 POP SWAP3 SWAP2 POP POP JUMP JUMPDEST DUP3 DUP2 DUP4 MCOPY PUSH0 DUP4 DUP4 ADD MSTORE POP POP POP JUMP JUMPDEST PUSH0 PUSH1 0x1F NOT PUSH1 0x1F DUP4 ADD AND SWAP1 POP SWAP2 SWAP1 POP JUMP JUMPDEST PUSH0 PUSH2 0x24BB DUP3 PUSH2 0x2479 JUMP JUMPDEST PUSH2 0x24C5 DUP2 DUP6 PUSH2 0x2483 JUMP JUMPDEST SWAP4 POP PUSH2 0x24D5 DUP2 DUP6 PUSH1 0x20 DUP7 ADD PUSH2 0x2493 JUMP JUMPDEST PUSH2 0x24DE DUP2 PUSH2 0x24A1 JUMP JUMPDEST DUP5 ADD SWAP2 POP POP SWAP3 SWAP2 POP POP JUMP JUMPDEST PUSH0 PUSH1 0xA0 DUP3 ADD SWAP1 POP PUSH2 0x24FC PUSH0 DUP4 ADD DUP9 PUSH2 0x2413 JUMP JUMPDEST PUSH2 0x2509 PUSH1 0x20 DUP4 ADD DUP8 PUSH2 0x2413 JUMP JUMPDEST DUP2 DUP2 SUB PUSH1 0x40 DUP4 ADD MSTORE PUSH2 0x251B DUP2 DUP7 PUSH2 0x24B1 JUMP JUMPDEST SWAP1 POP PUSH2 0x252A PUSH1 0x60 DUP4 ADD DUP6 PUSH2 0x20A2 JUMP JUMPDEST PUSH2 0x2537 PUSH1 0x80 DUP4 ADD DUP5 PUSH2 0x2335 JUMP JUMPDEST SWAP7 SWAP6 POP POP POP POP POP POP JUMP JUMPDEST PUSH0 PUSH1 0xFF DUP3 AND SWAP1 POP SWAP2 SWAP1 POP JUMP JUMPDEST PUSH2 0x2556 DUP2 PUSH2 0x2541 JUMP JUMPDEST DUP2 EQ PUSH2 0x2560 JUMPI PUSH0 DUP1 REVERT JUMPDEST POP JUMP JUMPDEST PUSH0 DUP2 CALLDATALOAD SWAP1 POP PUSH2 0x2571 DUP2 PUSH2 0x254D JUMP JUMPDEST SWAP3 SWAP2 POP POP JUMP JUMPDEST PUSH0 PUSH1 0x20 DUP3 DUP5 SUB SLT ISZERO PUSH2 0x258C JUMPI PUSH2 0x258B PUSH2 0x2033 JUMP JUMPDEST JUMPDEST PUSH0 PUSH2 0x2599 DUP5 DUP3 DUP6 ADD PUSH2 0x2563 JUMP JUMPDEST SWAP2 POP POP SWAP3 SWAP2 POP POP JUMP JUMPDEST PUSH0 PUSH2 0x120 DUP3 ADD SWAP1 POP PUSH2 0x25B6 PUSH0 DUP4 ADD DUP13 PUSH2 0x2413 JUMP JUMPDEST PUSH2 0x25C3 PUSH1 0x20 DUP4 ADD DUP12 PUSH2 0x20A2 JUMP JUMPDEST PUSH2 0x25D0 PUSH1 0x40 DUP4 ADD DUP11 PUSH2 0x20A2 JUMP JUMPDEST PUSH2 0x25DD PUSH1 0x60 DUP4 ADD DUP10 PUSH2 0x20A2 JUMP JUMPDEST PUSH2 0x25EA PUSH1 0x80 DUP4 ADD DUP9 PUSH2 0x20A2 JUMP JUMPDEST PUSH2 0x25F7 PUSH1 0xA0 DUP4 ADD DUP8 PUSH2 0x20A2 JUMP JUMPDEST PUSH2 0x2604 PUSH1 0xC0 DUP4 ADD DUP7 PUSH2 0x20A2 JUMP JUMPDEST PUSH2 0x2611 PUSH1 0xE0 DUP4 ADD DUP6 PUSH2 0x2335 JUMP JUMPDEST PUSH2 0x261F PUSH2 0x100 DUP4 ADD DUP5 PUSH2 0x2413 JUMP JUMPDEST SWAP11 SWAP10 POP POP POP POP POP POP POP POP POP POP JUMP JUMPDEST PUSH0 DUP2 MLOAD SWAP1 POP SWAP2 SWAP1 POP JUMP JUMPDEST PUSH0 DUP3 DUP3 MSTORE PUSH1 0x20 DUP3 ADD SWAP1 POP SWAP3 SWAP2 POP POP JUMP JUMPDEST PUSH0 DUP2 SWAP1 POP PUSH1 0x20 DUP3 ADD SWAP1 POP SWAP2 SWAP1 POP JUMP JUMPDEST PUSH2 0x265F DUP2 PUSH2 0x203B JUMP JUMPDEST DUP3 MSTORE POP POP JUMP JUMPDEST PUSH0 DUP3 DUP3 MSTORE PUSH1 0x20 DUP3 ADD SWAP1 POP SWAP3 SWAP2 POP POP JUMP JUMPDEST PUSH0 PUSH2 0x267F DUP3 PUSH2 0x2479 JUMP JUMPDEST PUSH2 0x2689 DUP2 DUP6 PUSH2 0x2665 JUMP JUMPDEST SWAP4 POP PUSH2 0x2699 DUP2 DUP6 PUSH1 0x20 DUP7 ADD PUSH2 0x2493 JUMP JUMPDEST PUSH2 0x26A2 DUP2 PUSH2 0x24A1 JUMP JUMPDEST DUP5 ADD SWAP2 POP POP SWAP3 SWAP2 POP POP JUMP JUMPDEST PUSH2 0x26B6 DUP2 PUSH2 0x2099 JUMP JUMPDEST DUP3 MSTORE POP POP JUMP JUMPDEST PUSH2 0x26C5 DUP2 PUSH2 0x21CA JUMP JUMPDEST DUP3 MSTORE POP POP JUMP JUMPDEST PUSH0 PUSH1 0xA0 DUP4 ADD PUSH0 DUP4 ADD MLOAD PUSH2 0x26E0 PUSH0 DUP7 ADD DUP3 PUSH2 0x2656 JUMP JUMPDEST POP PUSH1 0x20 DUP4 ADD MLOAD PUSH2 0x26F3 PUSH1 0x20 DUP7 ADD DUP3 PUSH2 0x2656 JUMP JUMPDEST POP PUSH1 0x40 DUP4 ADD MLOAD DUP5 DUP3 SUB PUSH1 0x40 DUP7 ADD MSTORE PUSH2 0x270B DUP3 DUP3 PUSH2 0x2675 JUMP JUMPDEST SWAP2 POP POP PUSH1 0x60 DUP4 ADD MLOAD PUSH2 0x2720 PUSH1 0x60 DUP7 ADD DUP3 PUSH2 0x26AD JUMP JUMPDEST POP PUSH1 0x80 DUP4 ADD MLOAD PUSH2 0x2733 PUSH1 0x80 DUP7 ADD DUP3 PUSH2 0x26BC JUMP JUMPDEST POP DUP1 SWAP2 POP POP SWAP3 SWAP2 POP POP JUMP JUMPDEST PUSH0 PUSH2 0x2749 DUP4 DUP4 PUSH2 0x26CB JUMP JUMPDEST SWAP1 POP SWAP3 SWAP2 POP POP JUMP JUMPDEST PUSH0 PUSH1 0x20 DUP3 ADD SWAP1 POP SWAP2 SWAP1 POP JUMP JUMPDEST PUSH0 PUSH2 0x2767 DUP3 PUSH2 0x262D JUMP JUMPDEST PUSH2 0x2771 DUP2 DUP6 PUSH2 0x2637 JUMP JUMPDEST SWAP4 POP DUP4 PUSH1 0x20 DUP3 MUL DUP6 ADD PUSH2 0x2783 DUP6 PUSH2 0x2647 JUMP JUMPDEST DUP1 PUSH0 JUMPDEST DUP6 DUP2 LT ISZERO PUSH2 0x27BE JUMPI DUP5 DUP5 SUB DUP10 MSTORE DUP2 MLOAD PUSH2 0x279F DUP6 DUP3 PUSH2 0x273E JUMP JUMPDEST SWAP5 POP PUSH2 0x27AA DUP4 PUSH2 0x2751 JUMP JUMPDEST SWAP3 POP PUSH1 0x20 DUP11 ADD SWAP10 POP POP PUSH1 0x1 DUP2 ADD SWAP1 POP PUSH2 0x2786 JUMP JUMPDEST POP DUP3 SWAP8 POP DUP8 SWAP6 POP POP POP POP POP POP SWAP3 SWAP2 POP POP JUMP JUMPDEST PUSH0 PUSH1 0x20 DUP3 ADD SWAP1 POP DUP2 DUP2 SUB PUSH0 DUP4 ADD MSTORE PUSH2 0x27E8 DUP2 DUP5 PUSH2 0x275D JUMP JUMPDEST SWAP1 POP SWAP3 SWAP2 POP POP JUMP JUMPDEST PUSH2 0x27F9 DUP2 PUSH2 0x23AD JUMP JUMPDEST DUP3 MSTORE POP POP JUMP JUMPDEST PUSH0 PUSH1 0xA0 DUP3 ADD SWAP1 POP PUSH2 0x2812 PUSH0 DUP4 ADD DUP9 PUSH2 0x27F0 JUMP JUMPDEST PUSH2 0x281F PUSH1 0x20 DUP4 ADD DUP8 PUSH2 0x2335 JUMP JUMPDEST PUSH2 0x282C PUSH1 0x40 DUP4 ADD DUP7 PUSH2 0x20A2 JUMP JUMPDEST PUSH2 0x2839 PUSH1 0x60 DUP4 ADD DUP6 PUSH2 0x20A2 JUMP JUMPDEST PUSH2 0x2846 PUSH1 0x80 DUP4 ADD DUP5 PUSH2 0x20A2 JUMP JUMPDEST SWAP7 SWAP6 POP POP POP POP POP POP JUMP JUMPDEST PUSH0 PUSH1 0x20 DUP3 ADD SWAP1 POP PUSH2 0x2863 PUSH0 DUP4 ADD DUP5 PUSH2 0x27F0 JUMP JUMPDEST SWAP3 SWAP2 POP POP JUMP JUMPDEST PUSH0 DUP1 PUSH1 0x40 DUP4 DUP6 SUB SLT ISZERO PUSH2 0x287F JUMPI PUSH2 0x287E PUSH2 0x2033 JUMP JUMPDEST JUMPDEST PUSH0 PUSH2 0x288C DUP6 DUP3 DUP7 ADD PUSH2 0x205A JUMP JUMPDEST SWAP3 POP POP PUSH1 0x20 PUSH2 0x289D DUP6 DUP3 DUP7 ADD PUSH2 0x205A JUMP JUMPDEST SWAP2 POP POP SWAP3 POP SWAP3 SWAP1 POP JUMP JUMPDEST PUSH0 DUP1 PUSH0 PUSH1 0x60 DUP5 DUP7 SUB SLT ISZERO PUSH2 0x28BE JUMPI PUSH2 0x28BD PUSH2 0x2033 JUMP JUMPDEST JUMPDEST PUSH0 PUSH2 0x28CB DUP7 DUP3 DUP8 ADD PUSH2 0x205A JUMP JUMPDEST SWAP4 POP POP PUSH1 0x20 PUSH2 0x28DC DUP7 DUP3 DUP8 ADD PUSH2 0x21EB JUMP JUMPDEST SWAP3 POP POP PUSH1 0x40 PUSH2 0x28ED DUP7 DUP3 DUP8 ADD PUSH2 0x205A JUMP JUMPDEST SWAP2 POP POP SWAP3 POP SWAP3 POP SWAP3 JUMP JUMPDEST PUSH32 0x50656572206E6F74206163746976650000000000000000000000000000000000 PUSH0 DUP3 ADD MSTORE POP JUMP JUMPDEST PUSH0 PUSH2 0x292B PUSH1 0xF DUP4 PUSH2 0x2483 JUMP JUMPDEST SWAP2 POP PUSH2 0x2936 DUP3 PUSH2 0x28F7 JUMP JUMPDEST PUSH1 0x20 DUP3 ADD SWAP1 POP SWAP2 SWAP1 POP JUMP JUMPDEST PUSH0 PUSH1 0x20 DUP3 ADD SWAP1 POP DUP2 DUP2 SUB PUSH0 DUP4 ADD MSTORE PUSH2 0x2958 DUP2 PUSH2 0x291F JUMP JUMPDEST SWAP1 POP SWAP2 SWAP1 POP JUMP JUMPDEST PUSH32 0x496E76616C6964206368616E676520616D6F756E740000000000000000000000 PUSH0 DUP3 ADD MSTORE POP JUMP JUMPDEST PUSH0 PUSH2 0x2993 PUSH1 0x15 DUP4 PUSH2 0x2483 JUMP JUMPDEST SWAP2 POP PUSH2 0x299E DUP3 PUSH2 0x295F JUMP JUMPDEST PUSH1 0x20 DUP3 ADD SWAP1 POP SWAP2 SWAP1 POP JUMP JUMPDEST PUSH0 PUSH1 0x20 DUP3 ADD SWAP1 POP DUP2 DUP2 SUB PUSH0 DUP4 ADD MSTORE PUSH2 0x29C0 DUP2 PUSH2 0x2987 JUMP JUMPDEST SWAP1 POP SWAP2 SWAP1 POP JUMP JUMPDEST PUSH0 PUSH1 0x40 DUP3 ADD SWAP1 POP PUSH2 0x29DA PUSH0 DUP4 ADD DUP6 PUSH2 0x2413 JUMP JUMPDEST PUSH2 0x29E7 PUSH1 0x20 DUP4 ADD DUP5 PUSH2 0x2413 JUMP JUMPDEST SWAP4 SWAP3 POP POP POP JUMP JUMPDEST PUSH0 DUP2 MLOAD SWAP1 POP PUSH2 0x29FC DUP2 PUSH2 0x21D5 JUMP JUMPDEST SWAP3 SWAP2 POP POP JUMP JUMPDEST PUSH0 PUSH1 0x20 DUP3 DUP5 SUB SLT ISZERO PUSH2 0x2A17 JUMPI PUSH2 0x2A16 PUSH2 0x2033 JUMP JUMPDEST JUMPDEST PUSH0 PUSH2 0x2A24 DUP5 DUP3 DUP6 ADD PUSH2 0x29EE JUMP JUMPDEST SWAP2 POP POP SWAP3 SWAP2 POP POP JUMP JUMPDEST PUSH32 0x496E76616C69642072657075746174696F6E2070726F6F660000000000000000 PUSH0 DUP3 ADD MSTORE POP JUMP JUMPDEST PUSH0 PUSH2 0x2A61 PUSH1 0x18 DUP4 PUSH2 0x2483 JUMP JUMPDEST SWAP2 POP PUSH2 0x2A6C DUP3 PUSH2 0x2A2D JUMP JUMPDEST PUSH1 0x20 DUP3 ADD SWAP1 POP SWAP2 SWAP1 POP JUMP JUMPDEST PUSH0 PUSH1 0x20 DUP3 ADD SWAP1 POP DUP2 DUP2 SUB PUSH0 DUP4 ADD MSTORE PUSH2 0x2A8E DUP2 PUSH2 0x2A55 JUMP JUMPDEST SWAP1 POP SWAP2 SWAP1 POP JUMP JUMPDEST PUSH32 0x4E487B7100000000000000000000000000000000000000000000000000000000 PUSH0 MSTORE PUSH1 0x11 PUSH1 0x4 MSTORE PUSH1 0x24 PUSH0 REVERT JUMPDEST PUSH0 PUSH2 0x2ACC DUP3 PUSH2 0x2099 JUMP JUMPDEST SWAP2 POP PUSH2 0x2AD7 DUP4 PUSH2 0x2099 JUMP JUMPDEST SWAP3 POP DUP3 DUP3 ADD SWAP1 POP DUP1 DUP3 GT ISZERO PUSH2 0x2AEF JUMPI PUSH2 0x2AEE PUSH2 0x2A95 JUMP JUMPDEST JUMPDEST SWAP3 SWAP2 POP POP JUMP JUMPDEST PUSH0 PUSH2 0x2AFF DUP3 PUSH2 0x2099 JUMP JUMPDEST SWAP2 POP PUSH2 0x2B0A DUP4 PUSH2 0x2099 JUMP JUMPDEST SWAP3 POP DUP3 DUP3 SUB SWAP1 POP DUP2 DUP2 GT ISZERO PUSH2 0x2B22 JUMPI PUSH2 0x2B21 PUSH2 0x2A95 JUMP JUMPDEST JUMPDEST SWAP3 SWAP2 POP POP JUMP JUMPDEST PUSH0 PUSH1 0x60 DUP3 ADD SWAP1 POP PUSH2 0x2B3B PUSH0 DUP4 ADD DUP7 PUSH2 0x20A2 JUMP JUMPDEST PUSH2 0x2B48 PUSH1 0x20 DUP4 ADD DUP6 PUSH2 0x20A2 JUMP JUMPDEST PUSH2 0x2B55 PUSH1 0x40 DUP4 ADD DUP5 PUSH2 0x20A2 JUMP JUMPDEST SWAP5 SWAP4 POP POP POP POP JUMP JUMPDEST PUSH32 0x4E6F742072656769737465726564000000000000000000000000000000000000 PUSH0 DUP3 ADD MSTORE POP JUMP JUMPDEST PUSH0 PUSH2 0x2B91 PUSH1 0xE DUP4 PUSH2 0x2483 JUMP JUMPDEST SWAP2 POP PUSH2 0x2B9C DUP3 PUSH2 0x2B5D JUMP JUMPDEST PUSH1 0x20 DUP3 ADD SWAP1 POP SWAP2 SWAP1 POP JUMP JUMPDEST PUSH0 PUSH1 0x20 DUP3 ADD SWAP1 POP DUP2 DUP2 SUB PUSH0 DUP4 ADD MSTORE PUSH2 0x2BBE DUP2 PUSH2 0x2B85 JUMP JUMPDEST SWAP1 POP SWAP2 SWAP1 POP JUMP JUMPDEST PUSH32 0x496E76616C69642062616E2070726F6F66000000000000000000000000000000 PUSH0 DUP3 ADD MSTORE POP JUMP JUMPDEST PUSH0 PUSH2 0x2BF9 PUSH1 0x11 DUP4 PUSH2 0x2483 JUMP JUMPDEST SWAP2 POP PUSH2 0x2C04 DUP3 PUSH2 0x2BC5 JUMP JUMPDEST PUSH1 0x20 DUP3 ADD SWAP1 POP SWAP2 SWAP1 POP JUMP JUMPDEST PUSH0 PUSH1 0x20 DUP3 ADD SWAP1 POP DUP2 DUP2 SUB PUSH0 DUP4 ADD MSTORE PUSH2 0x2C26 DUP2 PUSH2 0x2BED JUMP JUMPDEST SWAP1 POP SWAP2 SWAP1 POP JUMP JUMPDEST PUSH0 PUSH2 0x2C37 DUP3 PUSH2 0x2099 JUMP JUMPDEST SWAP2 POP PUSH0 DUP3 SUB PUSH2 0x2C49 JUMPI PUSH2 0x2C48 PUSH2 0x2A95 JUMP JUMPDEST JUMPDEST PUSH1 0x1 DUP3 SUB SWAP1 POP SWAP2 SWAP1 POP JUMP JUMPDEST DUP3 DUP2 DUP4 CALLDATACOPY PUSH0 DUP4 DUP4 ADD MSTORE POP POP POP JUMP JUMPDEST PUSH0 PUSH2 0x2C6D DUP4 DUP6 PUSH2 0x2483 JUMP JUMPDEST SWAP4 POP PUSH2 0x2C7A DUP4 DUP6 DUP5 PUSH2 0x2C54 JUMP JUMPDEST PUSH2 0x2C83 DUP4 PUSH2 0x24A1 JUMP JUMPDEST DUP5 ADD SWAP1 POP SWAP4 SWAP3 POP POP POP JUMP JUMPDEST PUSH0 PUSH1 0x40 DUP3 ADD SWAP1 POP DUP2 DUP2 SUB PUSH0 DUP4 ADD MSTORE PUSH2 0x2CA7 DUP2 DUP6 DUP8 PUSH2 0x2C62 JUMP JUMPDEST SWAP1 POP PUSH2 0x2CB6 PUSH1 0x20 DUP4 ADD DUP5 PUSH2 0x20A2 JUMP JUMPDEST SWAP5 SWAP4 POP POP POP POP JUMP JUMPDEST PUSH32 0x496E636F7272656374207374616B6520616D6F756E7400000000000000000000 PUSH0 DUP3 ADD MSTORE POP JUMP JUMPDEST PUSH0 PUSH2 0x2CF2 PUSH1 0x16 DUP4 PUSH2 0x2483 JUMP JUMPDEST SWAP2 POP PUSH2 0x2CFD DUP3 PUSH2 0x2CBE JUMP JUMPDEST PUSH1 0x20 DUP3 ADD SWAP1 POP SWAP2 SWAP1 POP JUMP JUMPDEST PUSH0 PUSH1 0x20 DUP3 ADD SWAP1 POP DUP2 DUP2 SUB PUSH0 DUP4 ADD MSTORE PUSH2 0x2D1F DUP2 PUSH2 0x2CE6 JUMP JUMPDEST SWAP1 POP SWAP2 SWAP1 POP JUMP JUMPDEST PUSH32 0x496E73756666696369656E74207374616B650000000000000000000000000000 PUSH0 DUP3 ADD MSTORE POP JUMP JUMPDEST PUSH0 PUSH2 0x2D5A PUSH1 0x12 DUP4 PUSH2 0x2483 JUMP JUMPDEST SWAP2 POP PUSH2 0x2D65 DUP3 PUSH2 0x2D26 JUMP JUMPDEST PUSH1 0x20 DUP3 ADD SWAP1 POP SWAP2 SWAP1 POP JUMP JUMPDEST PUSH0 PUSH1 0x20 DUP3 ADD SWAP1 POP DUP2 DUP2 SUB PUSH0 DUP4 ADD MSTORE PUSH2 0x2D87 DUP2 PUSH2 0x2D4E JUMP JUMPDEST SWAP1 POP SWAP2 SWAP1 POP JUMP JUMPDEST PUSH32 0x416C726561647920726567697374657265640000000000000000000000000000 PUSH0 DUP3 ADD MSTORE POP JUMP JUMPDEST PUSH0 PUSH2 0x2DC2 PUSH1 0x12 DUP4 PUSH2 0x2483 JUMP JUMPDEST SWAP2 POP PUSH2 0x2DCD DUP3 PUSH2 0x2D8E JUMP JUMPDEST PUSH1 0x20 DUP3 ADD SWAP1 POP SWAP2 SWAP1 POP JUMP JUMPDEST PUSH0 PUSH1 0x20 DUP3 ADD SWAP1 POP DUP2 DUP2 SUB PUSH0 DUP4 ADD MSTORE PUSH2 0x2DEF DUP2 PUSH2 0x2DB6 JUMP JUMPDEST SWAP1 POP SWAP2 SWAP1 POP JUMP JUMPDEST PUSH32 0x496E76616C6964206964656E746974792070726F6F6600000000000000000000 PUSH0 DUP3 ADD MSTORE POP JUMP JUMPDEST PUSH0 PUSH2 0x2E2A PUSH1 0x16 DUP4 PUSH2 0x2483 JUMP JUMPDEST SWAP2 POP PUSH2 0x2E35 DUP3 PUSH2 0x2DF6 JUMP JUMPDEST PUSH1 0x20 DUP3 ADD SWAP1 POP SWAP2 SWAP1 POP JUMP JUMPDEST PUSH0 PUSH1 0x20 DUP3 ADD SWAP1 POP DUP2 DUP2 SUB PUSH0 DUP4 ADD MSTORE PUSH2 0x2E57 DUP2 PUSH2 0x2E1E JUMP JUMPDEST SWAP1 POP SWAP2 SWAP1 POP JUMP JUMPDEST PUSH32 0x496E76616C6964207265706F727420696E646578000000000000000000000000 PUSH0 DUP3 ADD MSTORE POP JUMP JUMPDEST PUSH0 PUSH2 0x2E92 PUSH1 0x14 DUP4 PUSH2 0x2483 JUMP JUMPDEST SWAP2 POP PUSH2 0x2E9D DUP3 PUSH2 0x2E5E JUMP JUMPDEST PUSH1 0x20 DUP3 ADD SWAP1 POP SWAP2 SWAP1 POP JUMP JUMPDEST PUSH0 PUSH1 0x20 DUP3 ADD SWAP1 POP DUP2 DUP2 SUB PUSH0 DUP4 ADD MSTORE PUSH2 0x2EBF DUP2 PUSH2 0x2E86 JUMP JUMPDEST SWAP1 POP SWAP2 SWAP1 POP JUMP JUMPDEST PUSH32 0x4E487B7100000000000000000000000000000000000000000000000000000000 PUSH0 MSTORE PUSH1 0x32 PUSH1 0x4 MSTORE PUSH1 0x24 PUSH0 REVERT JUMPDEST PUSH32 0x4E487B7100000000000000000000000000000000000000000000000000000000 PUSH0 MSTORE PUSH1 0x22 PUSH1 0x4 MSTORE PUSH1 0x24 PUSH0 REVERT JUMPDEST PUSH0 PUSH1 0x2 DUP3 DIV SWAP1 POP PUSH1 0x1 DUP3 AND DUP1 PUSH2 0x2F37 JUMPI PUSH1 0x7F DUP3 AND SWAP2 POP JUMPDEST PUSH1 0x20 DUP3 LT DUP2 SUB PUSH2 0x2F4A JUMPI PUSH2 0x2F49 PUSH2 0x2EF3 JUMP JUMPDEST JUMPDEST POP SWAP2 SWAP1 POP JUMP JUMPDEST PUSH32 0x496E76616C6964207468726573686F6C64000000000000000000000000000000 PUSH0 DUP3 ADD MSTORE POP JUMP JUMPDEST PUSH0 PUSH2 0x2F84 PUSH1 0x11 DUP4 PUSH2 0x2483 JUMP JUMPDEST SWAP2 POP PUSH2 0x2F8F DUP3 PUSH2 0x2F50 JUMP JUMPDEST PUSH1 0x20 DUP3 ADD SWAP1 POP SWAP2 SWAP1 POP JUMP JUMPDEST PUSH0 PUSH1 0x20 DUP3 ADD SWAP1 POP DUP2 DUP2 SUB PUSH0 DUP4 ADD MSTORE PUSH2 0x2FB1 DUP2 PUSH2 0x2F78 JUMP JUMPDEST SWAP1 POP SWAP2 SWAP1 POP JUMP JUMPDEST PUSH2 0x2FC1 DUP2 PUSH2 0x2541 JUMP JUMPDEST DUP3 MSTORE POP POP JUMP JUMPDEST PUSH0 PUSH1 0x20 DUP3 ADD SWAP1 POP PUSH2 0x2FDA PUSH0 DUP4 ADD DUP5 PUSH2 0x2FB8 JUMP JUMPDEST SWAP3 SWAP2 POP POP JUMP JUMPDEST PUSH32 0x496E76616C696420766572696669657220616464726573730000000000000000 PUSH0 DUP3 ADD MSTORE POP JUMP JUMPDEST PUSH0 PUSH2 0x3014 PUSH1 0x18 DUP4 PUSH2 0x2483 JUMP JUMPDEST SWAP2 POP PUSH2 0x301F DUP3 PUSH2 0x2FE0 JUMP JUMPDEST PUSH1 0x20 DUP3 ADD SWAP1 POP SWAP2 SWAP1 POP JUMP JUMPDEST PUSH0 PUSH1 0x20 DUP3 ADD SWAP1 POP DUP2 DUP2 SUB PUSH0 DUP4 ADD MSTORE PUSH2 0x3041 DUP2 PUSH2 0x3008 JUMP JUMPDEST SWAP1 POP SWAP2 SWAP1 POP JUMP JUMPDEST PUSH32 0x496E76616C6964206D6978696E672070726F6F66000000000000000000000000 PUSH0 DUP3 ADD MSTORE POP JUMP JUMPDEST PUSH0 PUSH2 0x307C PUSH1 0x14 DUP4 PUSH2 0x2483 JUMP JUMPDEST SWAP2 POP PUSH2 0x3087 DUP3 PUSH2 0x3048 JUMP JUMPDEST PUSH1 0x20 DUP3 ADD SWAP1 POP SWAP2 SWAP1 POP JUMP JUMPDEST PUSH0 PUSH1 0x20 DUP3 ADD SWAP1 POP DUP2 DUP2 SUB PUSH0 DUP4 ADD MSTORE PUSH2 0x30A9 DUP2 PUSH2 0x3070 JUMP JUMPDEST SWAP1 POP SWAP2 SWAP1 POP JUMP JUMPDEST PUSH32 0x50656572206E6F742062616E6E65640000000000000000000000000000000000 PUSH0 DUP3 ADD MSTORE POP JUMP JUMPDEST PUSH0 PUSH2 0x30E4 PUSH1 0xF DUP4 PUSH2 0x2483 JUMP JUMPDEST SWAP2 POP PUSH2 0x30EF DUP3 PUSH2 0x30B0 JUMP JUMPDEST PUSH1 0x20 DUP3 ADD SWAP1 POP SWAP2 SWAP1 POP JUMP JUMPDEST PUSH0 PUSH1 0x20 DUP3 ADD SWAP1 POP DUP2 DUP2 SUB PUSH0 DUP4 ADD MSTORE PUSH2 0x3111 DUP2 PUSH2 0x30D8 JUMP JUMPDEST SWAP1 POP SWAP2 SWAP1 POP JUMP JUMPDEST PUSH32 0x496E76616C696420636F6D6D69746D656E740000000000000000000000000000 PUSH0 DUP3 ADD MSTORE POP JUMP JUMPDEST PUSH0 PUSH2 0x314C PUSH1 0x12 DUP4 PUSH2 0x2483 JUMP JUMPDEST SWAP2 POP PUSH2 0x3157 DUP3 PUSH2 0x3118 JUMP JUMPDEST PUSH1 0x20 DUP3 ADD SWAP1 POP SWAP2 SWAP1 POP JUMP JUMPDEST PUSH0 PUSH1 0x20 DUP3 ADD SWAP1 POP DUP2 DUP2 SUB PUSH0 DUP4 ADD MSTORE PUSH2 0x3179 DUP2 PUSH2 0x3140 JUMP JUMPDEST SWAP1 POP SWAP2 SWAP1 POP JUMP JUMPDEST PUSH0 DUP2 SWAP1 POP SWAP2 SWAP1 POP JUMP JUMPDEST PUSH2 0x319A PUSH2 0x3195 DUP3 PUSH2 0x203B JUMP JUMPDEST PUSH2 0x3180 JUMP JUMPDEST DUP3 MSTORE POP POP JUMP JUMPDEST PUSH0 PUSH2 0x31AB DUP3 DUP5 PUSH2 0x3189 JUMP JUMPDEST PUSH1 0x20 DUP3 ADD SWAP2 POP DUP2 SWAP1 POP SWAP3 SWAP2 POP POP JUMP JUMPDEST PUSH0 DUP2 MLOAD SWAP1 POP SWAP2 SWAP1 POP JUMP JUMPDEST PUSH0 DUP3 DUP3 MSTORE PUSH1 0x20 DUP3 ADD SWAP1 POP SWAP3 SWAP2 POP POP JUMP JUMPDEST PUSH0 PUSH2 0x31DE DUP3 PUSH2 0x31BA JUMP JUMPDEST PUSH2 0x31E8 DUP2 DUP6 PUSH2 0x31C4 JUMP JUMPDEST SWAP4 POP PUSH2 0x31F8 DUP2 DUP6 PUSH1 0x20 DUP7 ADD PUSH2 0x2493 JUMP JUMPDEST PUSH2 0x3201 DUP2 PUSH2 0x24A1 JUMP JUMPDEST DUP5 ADD SWAP2 POP POP SWAP3 SWAP2 POP POP JUMP JUMPDEST PUSH0 PUSH1 0x40 DUP3 ADD SWAP1 POP PUSH2 0x321F PUSH0 DUP4 ADD DUP6 PUSH2 0x2413 JUMP JUMPDEST DUP2 DUP2 SUB PUSH1 0x20 DUP4 ADD MSTORE PUSH2 0x3231 DUP2 DUP5 PUSH2 0x31D4 JUMP JUMPDEST SWAP1 POP SWAP4 SWAP3 POP POP POP JUMP JUMPDEST PUSH32 0x496E76616C69642061707065616C2070726F6F66000000000000000000000000 PUSH0 DUP3 ADD MSTORE POP JUMP JUMPDEST PUSH0 PUSH2 0x326E PUSH1 0x14 DUP4 PUSH2 0x2483 JUMP JUMPDEST SWAP2 POP PUSH2 0x3279 DUP3 PUSH2 0x323A JUMP JUMPDEST PUSH1 0x20 DUP3 ADD SWAP1 POP SWAP2 SWAP1 POP JUMP JUMPDEST PUSH0 PUSH1 0x20 DUP3 ADD SWAP1 POP DUP2 DUP2 SUB PUSH0 DUP4 ADD MSTORE PUSH2 0x329B DUP2 PUSH2 0x3262 JUMP JUMPDEST SWAP1 POP SWAP2 SWAP1 POP JUMP JUMPDEST PUSH0 PUSH2 0x32AC DUP3 PUSH2 0x2099 JUMP JUMPDEST SWAP2 POP PUSH32 0xFFFFFFFFFFFFFFFFFFFFFFFFFFFFFFFFFFFFFFFFFFFFFFFFFFFFFFFFFFFFFFFF DUP3 SUB PUSH2 0x32DE JUMPI PUSH2 0x32DD PUSH2 0x2A95 JUMP JUMPDEST JUMPDEST PUSH1 0x1 DUP3 ADD SWAP1 POP SWAP2 SWAP1 POP JUMP JUMPDEST PUSH32 0x496E76616C6964207374617475732070726F6F66000000000000000000000000 PUSH0 DUP3 ADD MSTORE POP JUMP JUMPDEST PUSH0 PUSH2 0x331D PUSH1 0x14 DUP4 PUSH2 0x2483 JUMP JUMPDEST SWAP2 POP PUSH2 0x3328 DUP3 PUSH2 0x32E9 JUMP JUMPDEST PUSH1 0x20 DUP3 ADD SWAP1 POP SWAP2 SWAP1 POP JUMP JUMPDEST PUSH0 PUSH1 0x20 DUP3 ADD SWAP1 POP DUP2 DUP2 SUB PUSH0 DUP4 ADD MSTORE PUSH2 0x334A DUP2 PUSH2 0x3311 JUMP JUMPDEST SWAP1 POP SWAP2 SWAP1 POP JUMP JUMPDEST PUSH0 PUSH1 0x40 DUP3 ADD SWAP1 POP PUSH2 0x3364 PUSH0 DUP4 ADD DUP6 PUSH2 0x2335 JUMP JUMPDEST PUSH2 0x3371 PUSH1 0x20 DUP4 ADD DUP5 PUSH2 0x20A2 JUMP JUMPDEST SWAP4 SWAP3 POP POP POP JUMP INVALID LOG2 PUSH5 0x6970667358 0x22 SLT KECCAK256 LT PUSH0 CALLCODE PUSH15 0xE79332491842AFF62E19A7AD36D717 DUP14 SWAP2 0xDB ADDRESS PUSH24 0x12242ABBE768B56064736F6C634300081A00330000000000 "
				},
				"gasEstimates": {
					"creation": {
						"codeDepositCost": "2646000",
						"executionCost": "infinite",
						"totalCost": "infinite"
					},
					"external": {
						"ACTIVITY_TIMEOUT()": "435",
						"INITIAL_REPUTATION()": "414",
						"MAX_REPUTATION()": "392",
						"MAX_TRUSTED_PEERS()": "413",
						"MIN_STAKE()": "370",
						"REPORT_THRESHOLD()": "393",
						"activePeers()": "2538",
						"addressToPeerId(address)": "2892",
						"appealBan(bytes32,bytes32)": "infinite",
						"banPeer(bytes32,string,bytes32)": "infinite",
						"getActivePeers()": "2544",
						"getPeerInfo(bytes32)": "infinite",
						"getPeerReports(bytes32)": "infinite",
						"getPeerStats(bytes32)": "infinite",
						"getReport(bytes32,uint256)": "infinite",
						"getTotalPeers()": "2565",
						"isBanned(bytes32)": "5131",
						"joinMixingSession(bytes32,bytes32)": "infinite",
						"owner()": "2627",
						"pause()": "infinite",
						"paused()": "2541",
						"peers(bytes32)": "infinite",
						"proofHistory(bytes32,uint256)": "infinite",
						"registerPeer(bytes32,bytes32,uint256)": "infinite",
						"renounceOwnership()": "infinite",
						"totalPeers()": "2491",
						"transferOwnership(address)": "infinite",
						"trustedPeerPairs(bytes32,bytes32)": "infinite",
						"unpause()": "infinite",
						"updatePeerStatus(bytes32,bool,bytes32)": "infinite",
						"updateReputation(bytes32,uint256,bool,bytes32)": "infinite",
						"updateReputationThreshold(uint8)": "infinite",
						"updateVerifier(address)": "infinite",
						"verifier()": "infinite",
						"verifyMixingProof(bytes32,bytes32)": "infinite"
					},
					"internal": {
						"_applyPenalty(bytes32)": "infinite",
						"_generatePeerId(address,bytes32)": "infinite"
					}
				},
				"methodIdentifiers": {
					"ACTIVITY_TIMEOUT()": "f28b7851",
					"INITIAL_REPUTATION()": "7b057258",
					"MAX_REPUTATION()": "d213c0f2",
					"MAX_TRUSTED_PEERS()": "e6962ad5",
					"MIN_STAKE()": "cb1c2b5c",
					"REPORT_THRESHOLD()": "4aa06447",
					"activePeers()": "48e55a8f",
					"addressToPeerId(address)": "6133b146",
					"appealBan(bytes32,bytes32)": "df3e1f97",
					"banPeer(bytes32,string,bytes32)": "50236a2c",
					"getActivePeers()": "614fc7bc",
					"getPeerInfo(bytes32)": "852ac836",
					"getPeerReports(bytes32)": "81aa8067",
					"getPeerStats(bytes32)": "21565342",
					"getReport(bytes32,uint256)": "6dc08264",
					"getTotalPeers()": "be830f42",
					"isBanned(bytes32)": "52b79f26",
					"joinMixingSession(bytes32,bytes32)": "bbcfaf05",
					"owner()": "8da5cb5b",
					"pause()": "8456cb59",
					"paused()": "5c975abb",
					"peers(bytes32)": "8030b496",
					"proofHistory(bytes32,uint256)": "e123bb0e",
					"registerPeer(bytes32,bytes32,uint256)": "5933752f",
					"renounceOwnership()": "715018a6",
					"totalPeers()": "e5a99abb",
					"transferOwnership(address)": "f2fde38b",
					"trustedPeerPairs(bytes32,bytes32)": "9976e569",
					"unpause()": "3f4ba83a",
					"updatePeerStatus(bytes32,bool,bytes32)": "e13ecb1d",
					"updateReputation(bytes32,uint256,bool,bytes32)": "4a8cd9c8",
					"updateReputationThreshold(uint8)": "7ba6c9d8",
					"updateVerifier(address)": "97fc007c",
					"verifier()": "2b7ac3f3",
					"verifyMixingProof(bytes32,bytes32)": "b2a93e7c"
				}
			},
			"storageLayout": {
				"storage": [
					{
						"astId": 8,
						"contract": "p2p/PeerRegistry.sol:PeerRegistry",
						"label": "_owner",
						"offset": 0,
						"slot": "0",
						"type": "t_address"
					},
					{
						"astId": 305,
						"contract": "p2p/PeerRegistry.sol:PeerRegistry",
						"label": "_status",
						"offset": 0,
						"slot": "1",
						"type": "t_uint256"
					},
					{
						"astId": 186,
						"contract": "p2p/PeerRegistry.sol:PeerRegistry",
						"label": "_paused",
						"offset": 0,
						"slot": "2",
						"type": "t_bool"
					},
					{
						"astId": 883,
						"contract": "p2p/PeerRegistry.sol:PeerRegistry",
						"label": "peerReports",
						"offset": 0,
						"slot": "3",
						"type": "t_mapping(t_bytes32,t_array(t_struct(Report)877_storage)dyn_storage)"
					},
					{
						"astId": 910,
						"contract": "p2p/PeerRegistry.sol:PeerRegistry",
						"label": "peers",
						"offset": 0,
						"slot": "4",
						"type": "t_mapping(t_bytes32,t_struct(Peer)866_storage)"
					},
					{
						"astId": 914,
						"contract": "p2p/PeerRegistry.sol:PeerRegistry",
						"label": "addressToPeerId",
						"offset": 0,
						"slot": "5",
						"type": "t_mapping(t_address,t_bytes32)"
					},
					{
						"astId": 920,
						"contract": "p2p/PeerRegistry.sol:PeerRegistry",
						"label": "trustedPeerPairs",
						"offset": 0,
						"slot": "6",
						"type": "t_mapping(t_bytes32,t_mapping(t_bytes32,t_bool))"
					},
					{
						"astId": 926,
						"contract": "p2p/PeerRegistry.sol:PeerRegistry",
						"label": "proofHistory",
						"offset": 0,
						"slot": "7",
						"type": "t_mapping(t_bytes32,t_mapping(t_uint256,t_bytes32))"
					},
					{
						"astId": 928,
						"contract": "p2p/PeerRegistry.sol:PeerRegistry",
						"label": "totalPeers",
						"offset": 0,
						"slot": "8",
						"type": "t_uint256"
					},
					{
						"astId": 930,
						"contract": "p2p/PeerRegistry.sol:PeerRegistry",
						"label": "activePeers",
						"offset": 0,
						"slot": "9",
						"type": "t_uint256"
					},
					{
						"astId": 933,
						"contract": "p2p/PeerRegistry.sol:PeerRegistry",
						"label": "verifier",
						"offset": 0,
						"slot": "10",
						"type": "t_contract(IVerifier)829"
					}
				],
				"types": {
					"t_address": {
						"encoding": "inplace",
						"label": "address",
						"numberOfBytes": "20"
					},
					"t_array(t_address)dyn_storage": {
						"base": "t_address",
						"encoding": "dynamic_array",
						"label": "address[]",
						"numberOfBytes": "32"
					},
					"t_array(t_struct(Report)877_storage)dyn_storage": {
						"base": "t_struct(Report)877_storage",
						"encoding": "dynamic_array",
						"label": "struct PeerRegistry.Report[]",
						"numberOfBytes": "32"
					},
					"t_bool": {
						"encoding": "inplace",
						"label": "bool",
						"numberOfBytes": "1"
					},
					"t_bytes32": {
						"encoding": "inplace",
						"label": "bytes32",
						"numberOfBytes": "32"
					},
					"t_contract(IVerifier)829": {
						"encoding": "inplace",
						"label": "contract IVerifier",
						"numberOfBytes": "20"
					},
					"t_mapping(t_address,t_bytes32)": {
						"encoding": "mapping",
						"key": "t_address",
						"label": "mapping(address => bytes32)",
						"numberOfBytes": "32",
						"value": "t_bytes32"
					},
					"t_mapping(t_bytes32,t_array(t_struct(Report)877_storage)dyn_storage)": {
						"encoding": "mapping",
						"key": "t_bytes32",
						"label": "mapping(bytes32 => struct PeerRegistry.Report[])",
						"numberOfBytes": "32",
						"value": "t_array(t_struct(Report)877_storage)dyn_storage"
					},
					"t_mapping(t_bytes32,t_bool)": {
						"encoding": "mapping",
						"key": "t_bytes32",
						"label": "mapping(bytes32 => bool)",
						"numberOfBytes": "32",
						"value": "t_bool"
					},
					"t_mapping(t_bytes32,t_mapping(t_bytes32,t_bool))": {
						"encoding": "mapping",
						"key": "t_bytes32",
						"label": "mapping(bytes32 => mapping(bytes32 => bool))",
						"numberOfBytes": "32",
						"value": "t_mapping(t_bytes32,t_bool)"
					},
					"t_mapping(t_bytes32,t_mapping(t_uint256,t_bytes32))": {
						"encoding": "mapping",
						"key": "t_bytes32",
						"label": "mapping(bytes32 => mapping(uint256 => bytes32))",
						"numberOfBytes": "32",
						"value": "t_mapping(t_uint256,t_bytes32)"
					},
					"t_mapping(t_bytes32,t_struct(Peer)866_storage)": {
						"encoding": "mapping",
						"key": "t_bytes32",
						"label": "mapping(bytes32 => struct PeerRegistry.Peer)",
						"numberOfBytes": "32",
						"value": "t_struct(Peer)866_storage"
					},
					"t_mapping(t_uint256,t_bytes32)": {
						"encoding": "mapping",
						"key": "t_uint256",
						"label": "mapping(uint256 => bytes32)",
						"numberOfBytes": "32",
						"value": "t_bytes32"
					},
					"t_string_storage": {
						"encoding": "bytes",
						"label": "string",
						"numberOfBytes": "32"
					},
					"t_struct(Peer)866_storage": {
						"encoding": "inplace",
						"label": "struct PeerRegistry.Peer",
						"members": [
							{
								"astId": 846,
								"contract": "p2p/PeerRegistry.sol:PeerRegistry",
								"label": "peerId",
								"offset": 0,
								"slot": "0",
								"type": "t_bytes32"
							},
							{
								"astId": 848,
								"contract": "p2p/PeerRegistry.sol:PeerRegistry",
								"label": "reputation",
								"offset": 0,
								"slot": "1",
								"type": "t_uint256"
							},
							{
								"astId": 850,
								"contract": "p2p/PeerRegistry.sol:PeerRegistry",
								"label": "stakingAmount",
								"offset": 0,
								"slot": "2",
								"type": "t_uint256"
							},
							{
								"astId": 852,
								"contract": "p2p/PeerRegistry.sol:PeerRegistry",
								"label": "uploadCount",
								"offset": 0,
								"slot": "3",
								"type": "t_uint256"
							},
							{
								"astId": 854,
								"contract": "p2p/PeerRegistry.sol:PeerRegistry",
								"label": "downloadCount",
								"offset": 0,
								"slot": "4",
								"type": "t_uint256"
							},
							{
								"astId": 856,
								"contract": "p2p/PeerRegistry.sol:PeerRegistry",
								"label": "reportCount",
								"offset": 0,
								"slot": "5",
								"type": "t_uint256"
							},
							{
								"astId": 858,
								"contract": "p2p/PeerRegistry.sol:PeerRegistry",
								"label": "lastActivity",
								"offset": 0,
								"slot": "6",
								"type": "t_uint256"
							},
							{
								"astId": 860,
								"contract": "p2p/PeerRegistry.sol:PeerRegistry",
								"label": "isActive",
								"offset": 0,
								"slot": "7",
								"type": "t_bool"
							},
							{
								"astId": 862,
								"contract": "p2p/PeerRegistry.sol:PeerRegistry",
								"label": "commitment",
								"offset": 0,
								"slot": "8",
								"type": "t_bytes32"
							},
							{
								"astId": 865,
								"contract": "p2p/PeerRegistry.sol:PeerRegistry",
								"label": "trustedPeers",
								"offset": 0,
								"slot": "9",
								"type": "t_array(t_address)dyn_storage"
							}
						],
						"numberOfBytes": "320"
					},
					"t_struct(Report)877_storage": {
						"encoding": "inplace",
						"label": "struct PeerRegistry.Report",
						"members": [
							{
								"astId": 868,
								"contract": "p2p/PeerRegistry.sol:PeerRegistry",
								"label": "reporterId",
								"offset": 0,
								"slot": "0",
								"type": "t_bytes32"
							},
							{
								"astId": 870,
								"contract": "p2p/PeerRegistry.sol:PeerRegistry",
								"label": "reportedId",
								"offset": 0,
								"slot": "1",
								"type": "t_bytes32"
							},
							{
								"astId": 872,
								"contract": "p2p/PeerRegistry.sol:PeerRegistry",
								"label": "reason",
								"offset": 0,
								"slot": "2",
								"type": "t_string_storage"
							},
							{
								"astId": 874,
								"contract": "p2p/PeerRegistry.sol:PeerRegistry",
								"label": "timestamp",
								"offset": 0,
								"slot": "3",
								"type": "t_uint256"
							},
							{
								"astId": 876,
								"contract": "p2p/PeerRegistry.sol:PeerRegistry",
								"label": "resolved",
								"offset": 0,
								"slot": "4",
								"type": "t_bool"
							}
						],
						"numberOfBytes": "160"
					},
					"t_uint256": {
						"encoding": "inplace",
						"label": "uint256",
						"numberOfBytes": "32"
					}
				}
			},
			"userdoc": {
				"kind": "user",
				"methods": {
					"appealBan(bytes32,bytes32)": {
						"notice": "Appeal a ban with proof"
					},
					"getPeerReports(bytes32)": {
						"notice": "Get reports for a peer"
					}
				},
				"version": 1
			}
		}
	}
}