{
	"p2p/BitTorrentRegistry.sol": {
		"BitTorrentRegistry": {
			"abi": [
				{
					"inputs": [
						{
							"internalType": "address",
							"name": "initialOwner",
							"type": "address"
						},
						{
							"internalType": "address",
							"name": "_fileRegistry",
							"type": "address"
						},
						{
							"internalType": "address",
							"name": "_verifier",
							"type": "address"
						}
					],
					"stateMutability": "nonpayable",
					"type": "constructor"
				},
				{
					"inputs": [],
					"name": "EnforcedPause",
					"type": "error"
				},
				{
					"inputs": [],
					"name": "ExpectedPause",
					"type": "error"
				},
				{
					"inputs": [
						{
							"internalType": "address",
							"name": "owner",
							"type": "address"
						}
					],
					"name": "OwnableInvalidOwner",
					"type": "error"
				},
				{
					"inputs": [
						{
							"internalType": "address",
							"name": "account",
							"type": "address"
						}
					],
					"name": "OwnableUnauthorizedAccount",
					"type": "error"
				},
				{
					"inputs": [],
					"name": "ReentrancyGuardReentrantCall",
					"type": "error"
				},
				{
					"anonymous": false,
					"inputs": [
						{
							"indexed": true,
							"internalType": "address",
							"name": "previousOwner",
							"type": "address"
						},
						{
							"indexed": true,
							"internalType": "address",
							"name": "newOwner",
							"type": "address"
						}
					],
					"name": "OwnershipTransferred",
					"type": "event"
				},
				{
					"anonymous": false,
					"inputs": [
						{
							"indexed": false,
							"internalType": "address",
							"name": "account",
							"type": "address"
						}
					],
					"name": "Paused",
					"type": "event"
				},
				{
					"anonymous": false,
					"inputs": [
						{
							"indexed": true,
							"internalType": "bytes32",
							"name": "peerId",
							"type": "bytes32"
						},
						{
							"indexed": true,
							"internalType": "bytes32",
							"name": "anonymousId",
							"type": "bytes32"
						},
						{
							"indexed": false,
							"internalType": "uint256",
							"name": "timestamp",
							"type": "uint256"
						}
					],
					"name": "PeerRegistered",
					"type": "event"
				},
				{
					"anonymous": false,
					"inputs": [
						{
							"indexed": true,
							"internalType": "bytes32",
							"name": "peerId",
							"type": "bytes32"
						},
						{
							"indexed": false,
							"internalType": "uint256",
							"name": "newReputation",
							"type": "uint256"
						},
						{
							"indexed": false,
							"internalType": "uint256",
							"name": "timestamp",
							"type": "uint256"
						}
					],
					"name": "PeerReputationUpdated",
					"type": "event"
				},
				{
					"anonymous": false,
					"inputs": [
						{
							"indexed": true,
							"internalType": "bytes32",
							"name": "infoHash",
							"type": "bytes32"
						},
						{
							"indexed": true,
							"internalType": "uint256",
							"name": "pieceIndex",
							"type": "uint256"
						},
						{
							"indexed": false,
							"internalType": "bytes32",
							"name": "pieceHash",
							"type": "bytes32"
						},
						{
							"indexed": false,
							"internalType": "uint256",
							"name": "timestamp",
							"type": "uint256"
						}
					],
					"name": "PieceVerified",
					"type": "event"
				},
				{
					"anonymous": false,
					"inputs": [
						{
							"indexed": true,
							"internalType": "bytes32",
							"name": "torrentHash",
							"type": "bytes32"
						},
						{
							"indexed": true,
							"internalType": "address",
							"name": "peer",
							"type": "address"
						}
					],
					"name": "SwarmJoined",
					"type": "event"
				},
				{
					"anonymous": false,
					"inputs": [
						{
							"indexed": true,
							"internalType": "bytes32",
							"name": "torrentHash",
							"type": "bytes32"
						},
						{
							"indexed": true,
							"internalType": "address",
							"name": "peer",
							"type": "address"
						}
					],
					"name": "SwarmLeft",
					"type": "event"
				},
				{
					"anonymous": false,
					"inputs": [
						{
							"indexed": true,
							"internalType": "bytes32",
							"name": "torrentHash",
							"type": "bytes32"
						},
						{
							"indexed": true,
							"internalType": "address",
							"name": "owner",
							"type": "address"
						}
					],
					"name": "TorrentAdded",
					"type": "event"
				},
				{
					"anonymous": false,
					"inputs": [
						{
							"indexed": true,
							"internalType": "bytes32",
							"name": "infoHash",
							"type": "bytes32"
						},
						{
							"indexed": true,
							"internalType": "bytes32",
							"name": "fileCommitment",
							"type": "bytes32"
						},
						{
							"indexed": true,
							"internalType": "address",
							"name": "owner",
							"type": "address"
						},
						{
							"indexed": false,
							"internalType": "uint256",
							"name": "size",
							"type": "uint256"
						},
						{
							"indexed": false,
							"internalType": "uint256",
							"name": "timestamp",
							"type": "uint256"
						}
					],
					"name": "TorrentRegistered",
					"type": "event"
				},
				{
					"anonymous": false,
					"inputs": [
						{
							"indexed": true,
							"internalType": "bytes32",
							"name": "torrentHash",
							"type": "bytes32"
						},
						{
							"indexed": true,
							"internalType": "address",
							"name": "remover",
							"type": "address"
						}
					],
					"name": "TorrentRemoved",
					"type": "event"
				},
				{
					"anonymous": false,
					"inputs": [
						{
							"indexed": false,
							"internalType": "address",
							"name": "account",
							"type": "address"
						}
					],
					"name": "Unpaused",
					"type": "event"
				},
				{
					"inputs": [],
					"name": "MAX_PIECE_SIZE",
					"outputs": [
						{
							"internalType": "uint256",
							"name": "",
							"type": "uint256"
						}
					],
					"stateMutability": "view",
					"type": "function"
				},
				{
					"inputs": [],
					"name": "MIN_REPUTATION_SCORE",
					"outputs": [
						{
							"internalType": "uint256",
							"name": "",
							"type": "uint256"
						}
					],
					"stateMutability": "view",
					"type": "function"
				},
				{
					"inputs": [],
					"name": "REPUTATION_DECREASE",
					"outputs": [
						{
							"internalType": "uint256",
							"name": "",
							"type": "uint256"
						}
					],
					"stateMutability": "view",
					"type": "function"
				},
				{
					"inputs": [],
					"name": "REPUTATION_INCREASE",
					"outputs": [
						{
							"internalType": "uint256",
							"name": "",
							"type": "uint256"
						}
					],
					"stateMutability": "view",
					"type": "function"
				},
				{
					"inputs": [
						{
							"internalType": "bytes32",
							"name": "torrentHash",
							"type": "bytes32"
						},
						{
							"internalType": "bytes",
							"name": "metadata",
							"type": "bytes"
						}
					],
					"name": "addTorrent",
					"outputs": [],
					"stateMutability": "nonpayable",
					"type": "function"
				},
				{
					"inputs": [],
					"name": "fileRegistry",
					"outputs": [
						{
							"internalType": "contract IFileRegistry",
							"name": "",
							"type": "address"
						}
					],
					"stateMutability": "view",
					"type": "function"
				},
				{
					"inputs": [
						{
							"internalType": "address",
							"name": "peer",
							"type": "address"
						}
					],
					"name": "getPeerStats",
					"outputs": [
						{
							"internalType": "bytes32",
							"name": "peerId",
							"type": "bytes32"
						},
						{
							"internalType": "uint256",
							"name": "reputation",
							"type": "uint256"
						},
						{
							"internalType": "uint256",
							"name": "uploadCount",
							"type": "uint256"
						},
						{
							"internalType": "uint256",
							"name": "downloadCount",
							"type": "uint256"
						},
						{
							"internalType": "uint256",
							"name": "lastSeen",
							"type": "uint256"
						},
						{
							"internalType": "bool",
							"name": "isActive",
							"type": "bool"
						}
					],
					"stateMutability": "view",
					"type": "function"
				},
				{
					"inputs": [
						{
							"internalType": "bytes32",
							"name": "infoHash",
							"type": "bytes32"
						},
						{
							"internalType": "uint256",
							"name": "pieceIndex",
							"type": "uint256"
						}
					],
					"name": "getPieceHash",
					"outputs": [
						{
							"internalType": "bytes32",
							"name": "",
							"type": "bytes32"
						}
					],
					"stateMutability": "view",
					"type": "function"
				},
				{
					"inputs": [
						{
							"internalType": "bytes32",
							"name": "torrentHash",
							"type": "bytes32"
						}
					],
					"name": "getSwarmPeers",
					"outputs": [
						{
							"internalType": "address[]",
							"name": "",
							"type": "address[]"
						}
					],
					"stateMutability": "view",
					"type": "function"
				},
				{
					"inputs": [
						{
							"internalType": "bytes32",
							"name": "infoHash",
							"type": "bytes32"
						}
					],
					"name": "getTorrent",
					"outputs": [
						{
							"internalType": "bytes32",
							"name": "fileCommitment",
							"type": "bytes32"
						},
						{
							"internalType": "uint256",
							"name": "size",
							"type": "uint256"
						},
						{
							"internalType": "uint256",
							"name": "pieceCount",
							"type": "uint256"
						},
						{
							"internalType": "uint256",
							"name": "pieceSize",
							"type": "uint256"
						},
						{
							"internalType": "bytes32",
							"name": "piecesRoot",
							"type": "bytes32"
						},
						{
							"internalType": "address",
							"name": "owner",
							"type": "address"
						},
						{
							"internalType": "bool",
							"name": "isPrivate",
							"type": "bool"
						},
						{
							"internalType": "bool",
							"name": "isEncrypted",
							"type": "bool"
						}
					],
					"stateMutability": "view",
					"type": "function"
				},
				{
					"inputs": [
						{
							"internalType": "bytes32",
							"name": "torrentHash",
							"type": "bytes32"
						}
					],
					"name": "getTorrentMetadata",
					"outputs": [
						{
							"internalType": "bytes",
							"name": "",
							"type": "bytes"
						}
					],
					"stateMutability": "view",
					"type": "function"
				},
				{
					"inputs": [
						{
							"internalType": "bytes32",
							"name": "torrentHash",
							"type": "bytes32"
						},
						{
							"internalType": "address",
							"name": "peer",
							"type": "address"
						}
					],
					"name": "isPeerInSwarm",
					"outputs": [
						{
							"internalType": "bool",
							"name": "",
							"type": "bool"
						}
					],
					"stateMutability": "view",
					"type": "function"
				},
				{
					"inputs": [
						{
							"internalType": "bytes32",
							"name": "torrentHash",
							"type": "bytes32"
						}
					],
					"name": "joinSwarm",
					"outputs": [],
					"stateMutability": "nonpayable",
					"type": "function"
				},
				{
					"inputs": [
						{
							"internalType": "bytes32",
							"name": "torrentHash",
							"type": "bytes32"
						}
					],
					"name": "leaveSwarm",
					"outputs": [],
					"stateMutability": "nonpayable",
					"type": "function"
				},
				{
					"inputs": [],
					"name": "owner",
					"outputs": [
						{
							"internalType": "address",
							"name": "",
							"type": "address"
						}
					],
					"stateMutability": "view",
					"type": "function"
				},
				{
					"inputs": [],
					"name": "pause",
					"outputs": [],
					"stateMutability": "nonpayable",
					"type": "function"
				},
				{
					"inputs": [],
					"name": "paused",
					"outputs": [
						{
							"internalType": "bool",
							"name": "",
							"type": "bool"
						}
					],
					"stateMutability": "view",
					"type": "function"
				},
				{
					"inputs": [
						{
							"internalType": "bytes32",
							"name": "",
							"type": "bytes32"
						}
					],
					"name": "peerAnonymousIds",
					"outputs": [
						{
							"internalType": "bytes32",
							"name": "",
							"type": "bytes32"
						}
					],
					"stateMutability": "view",
					"type": "function"
				},
				{
					"inputs": [
						{
							"internalType": "address",
							"name": "",
							"type": "address"
						}
					],
					"name": "peers",
					"outputs": [
						{
							"internalType": "bytes32",
							"name": "peerId",
							"type": "bytes32"
						},
						{
							"internalType": "uint256",
							"name": "reputation",
							"type": "uint256"
						},
						{
							"internalType": "uint256",
							"name": "uploadCount",
							"type": "uint256"
						},
						{
							"internalType": "uint256",
							"name": "downloadCount",
							"type": "uint256"
						},
						{
							"internalType": "uint256",
							"name": "lastSeen",
							"type": "uint256"
						},
						{
							"internalType": "bool",
							"name": "isActive",
							"type": "bool"
						}
					],
					"stateMutability": "view",
					"type": "function"
				},
				{
					"inputs": [
						{
							"internalType": "bytes",
							"name": "proof",
							"type": "bytes"
						}
					],
					"name": "registerPeer",
					"outputs": [],
					"stateMutability": "nonpayable",
					"type": "function"
				},
				{
					"inputs": [
						{
							"internalType": "bytes32",
							"name": "infoHash",
							"type": "bytes32"
						},
						{
							"internalType": "bytes32",
							"name": "fileCommitment",
							"type": "bytes32"
						},
						{
							"internalType": "uint256",
							"name": "size",
							"type": "uint256"
						},
						{
							"internalType": "uint256",
							"name": "pieceSize",
							"type": "uint256"
						},
						{
							"internalType": "bytes32",
							"name": "piecesRoot",
							"type": "bytes32"
						},
						{
							"internalType": "bytes",
							"name": "proof",
							"type": "bytes"
						}
					],
					"name": "registerTorrent",
					"outputs": [],
					"stateMutability": "nonpayable",
					"type": "function"
				},
				{
					"inputs": [
						{
							"internalType": "bytes32",
							"name": "torrentHash",
							"type": "bytes32"
						}
					],
					"name": "removeTorrent",
					"outputs": [],
					"stateMutability": "nonpayable",
					"type": "function"
				},
				{
					"inputs": [],
					"name": "renounceOwnership",
					"outputs": [],
					"stateMutability": "nonpayable",
					"type": "function"
				},
				{
					"inputs": [
						{
							"internalType": "bytes32",
							"name": "",
							"type": "bytes32"
						}
					],
					"name": "torrentPeerCount",
					"outputs": [
						{
							"internalType": "uint256",
							"name": "",
							"type": "uint256"
						}
					],
					"stateMutability": "view",
					"type": "function"
				},
				{
					"inputs": [
						{
							"internalType": "bytes32",
							"name": "",
							"type": "bytes32"
						}
					],
					"name": "torrents",
					"outputs": [
						{
							"internalType": "bytes32",
							"name": "infoHash",
							"type": "bytes32"
						},
						{
							"internalType": "bytes32",
							"name": "fileCommitment",
							"type": "bytes32"
						},
						{
							"internalType": "uint256",
							"name": "size",
							"type": "uint256"
						},
						{
							"internalType": "uint256",
							"name": "pieceCount",
							"type": "uint256"
						},
						{
							"internalType": "uint256",
							"name": "pieceSize",
							"type": "uint256"
						},
						{
							"internalType": "bytes32",
							"name": "piecesRoot",
							"type": "bytes32"
						},
						{
							"internalType": "address",
							"name": "owner",
							"type": "address"
						},
						{
							"internalType": "bool",
							"name": "isPrivate",
							"type": "bool"
						},
						{
							"internalType": "bool",
							"name": "isEncrypted",
							"type": "bool"
						},
						{
							"internalType": "bytes32",
							"name": "encryptionProof",
							"type": "bytes32"
						},
						{
							"internalType": "uint256",
							"name": "timestamp",
							"type": "uint256"
						}
					],
					"stateMutability": "view",
					"type": "function"
				},
				{
					"inputs": [
						{
							"internalType": "address",
							"name": "newOwner",
							"type": "address"
						}
					],
					"name": "transferOwnership",
					"outputs": [],
					"stateMutability": "nonpayable",
					"type": "function"
				},
				{
					"inputs": [],
					"name": "unpause",
					"outputs": [],
					"stateMutability": "nonpayable",
					"type": "function"
				},
				{
					"inputs": [],
					"name": "verifier",
					"outputs": [
						{
							"internalType": "contract IVerifier",
							"name": "",
							"type": "address"
						}
					],
					"stateMutability": "view",
					"type": "function"
				},
				{
					"inputs": [
						{
							"internalType": "bytes32",
							"name": "infoHash",
							"type": "bytes32"
						},
						{
							"internalType": "uint256",
							"name": "pieceIndex",
							"type": "uint256"
						},
						{
							"internalType": "bytes32",
							"name": "pieceHash",
							"type": "bytes32"
						},
						{
							"internalType": "bytes",
							"name": "proof",
							"type": "bytes"
						}
					],
					"name": "verifyPiece",
					"outputs": [],
					"stateMutability": "nonpayable",
					"type": "function"
				}
			],
			"devdoc": {
				"details": "Handles torrent tracking and peer management with privacy features",
				"errors": {
					"EnforcedPause()": [
						{
							"details": "The operation failed because the contract is paused."
						}
					],
					"ExpectedPause()": [
						{
							"details": "The operation failed because the contract is not paused."
						}
					],
					"OwnableInvalidOwner(address)": [
						{
							"details": "The owner is not a valid owner account. (eg. `address(0)`)"
						}
					],
					"OwnableUnauthorizedAccount(address)": [
						{
							"details": "The caller account is not authorized to perform an operation."
						}
					],
					"ReentrancyGuardReentrantCall()": [
						{
							"details": "Unauthorized reentrant call."
						}
					]
				},
				"events": {
					"Paused(address)": {
						"details": "Emitted when the pause is triggered by `account`."
					},
					"Unpaused(address)": {
						"details": "Emitted when the pause is lifted by `account`."
					}
				},
				"kind": "dev",
				"methods": {
					"addTorrent(bytes32,bytes)": {
						"params": {
							"metadata": "Torrent metadata",
							"torrentHash": "Torrent hash"
						}
					},
					"constructor": {
						"params": {
							"_fileRegistry": "Address of FileRegistry contract",
							"_verifier": "Address of Verifier contract",
							"initialOwner": "Initial contract owner"
						}
					},
					"getPeerStats(address)": {
						"params": {
							"peer": "Peer address"
						}
					},
					"getPieceHash(bytes32,uint256)": {
						"params": {
							"infoHash": "Torrent info hash",
							"pieceIndex": "Piece index"
						}
					},
					"getSwarmPeers(bytes32)": {
						"params": {
							"torrentHash": "Torrent hash"
						}
					},
					"getTorrent(bytes32)": {
						"params": {
							"infoHash": "Torrent info hash"
						}
					},
					"getTorrentMetadata(bytes32)": {
						"params": {
							"torrentHash": "Torrent hash"
						}
					},
					"isPeerInSwarm(bytes32,address)": {
						"params": {
							"peer": "Peer address",
							"torrentHash": "Torrent hash"
						}
					},
					"joinSwarm(bytes32)": {
						"params": {
							"torrentHash": "Torrent hash"
						}
					},
					"leaveSwarm(bytes32)": {
						"params": {
							"torrentHash": "Torrent hash"
						}
					},
					"owner()": {
						"details": "Returns the address of the current owner."
					},
					"paused()": {
						"details": "Returns true if the contract is paused, and false otherwise."
					},
					"registerTorrent(bytes32,bytes32,uint256,uint256,bytes32,bytes)": {
						"params": {
							"proof": "ZK proof for peer anonymity"
						}
					},
					"removeTorrent(bytes32)": {
						"params": {
							"torrentHash": "Torrent hash"
						}
					},
					"renounceOwnership()": {
						"details": "Leaves the contract without owner. It will not be possible to call `onlyOwner` functions. Can only be called by the current owner. NOTE: Renouncing ownership will leave the contract without an owner, thereby disabling any functionality that is only available to the owner."
					},
					"transferOwnership(address)": {
						"details": "Transfers ownership of the contract to a new account (`newOwner`). Can only be called by the current owner."
					},
					"verifyPiece(bytes32,uint256,bytes32,bytes)": {
						"params": {
							"infoHash": "Torrent info hash",
							"pieceHash": "Hash of piece data",
							"pieceIndex": "Piece index",
							"proof": "ZK proof for piece"
						}
					}
				},
				"title": "BitTorrentRegistry",
				"version": 1
			},
			"evm": {
				"assembly": "    /* \"p2p/BitTorrentRegistry.sol\":530:14151  contract BitTorrentRegistry is IBitTorrent, Ownable, ReentrancyGuard, Pausable {... */\n  mstore(0x40, 0x80)\n    /* \"p2p/BitTorrentRegistry.sol\":3289:3518  constructor(... */\n  callvalue\n  dup1\n  iszero\n  tag_1\n  jumpi\n  0x00\n  dup1\n  revert\ntag_1:\n  pop\n  mload(0x40)\n  sub(codesize, bytecodeSize)\n  dup1\n  bytecodeSize\n  dup4\n  codecopy\n  dup2\n  dup2\n  add\n  0x40\n  mstore\n  dup2\n  add\n  swap1\n  tag_2\n  swap2\n  swap1\n  tag_3\n  jump\t// in\ntag_2:\n    /* \"p2p/BitTorrentRegistry.sol\":3403:3415  initialOwner */\n  dup3\n    /* \"@openzeppelin/contracts/access/Ownable.sol\":1297:1298  0 */\n  0x00\n    /* \"@openzeppelin/contracts/access/Ownable.sol\":1273:1299  initialOwner == address(0) */\n  0xffffffffffffffffffffffffffffffffffffffff\n  and\n    /* \"@openzeppelin/contracts/access/Ownable.sol\":1273:1285  initialOwner */\n  dup2\n    /* \"@openzeppelin/contracts/access/Ownable.sol\":1273:1299  initialOwner == address(0) */\n  0xffffffffffffffffffffffffffffffffffffffff\n  and\n  sub\n    /* \"@openzeppelin/contracts/access/Ownable.sol\":1269:1364  if (initialOwner == address(0)) {... */\n  tag_9\n  jumpi\n    /* \"@openzeppelin/contracts/access/Ownable.sol\":1350:1351  0 */\n  0x00\n    /* \"@openzeppelin/contracts/access/Ownable.sol\":1322:1353  OwnableInvalidOwner(address(0)) */\n  mload(0x40)\n  0x1e4fbdf700000000000000000000000000000000000000000000000000000000\n  dup2\n  mstore\n  0x04\n  add\n  tag_10\n  swap2\n  swap1\n  tag_11\n  jump\t// in\ntag_10:\n  mload(0x40)\n  dup1\n  swap2\n  sub\n  swap1\n  revert\n    /* \"@openzeppelin/contracts/access/Ownable.sol\":1269:1364  if (initialOwner == address(0)) {... */\ntag_9:\n    /* \"@openzeppelin/contracts/access/Ownable.sol\":1373:1405  _transferOwnership(initialOwner) */\n  tag_12\n    /* \"@openzeppelin/contracts/access/Ownable.sol\":1392:1404  initialOwner */\n  dup2\n    /* \"@openzeppelin/contracts/access/Ownable.sol\":1373:1391  _transferOwnership */\n  shl(0x20, tag_13)\n    /* \"@openzeppelin/contracts/access/Ownable.sol\":1373:1405  _transferOwnership(initialOwner) */\n  0x20\n  shr\n  jump\t// in\ntag_12:\n    /* \"@openzeppelin/contracts/access/Ownable.sol\":1225:1412  constructor(address initialOwner) {... */\n  pop\n    /* \"@openzeppelin/contracts/utils/ReentrancyGuard.sol\":1857:1858  1 */\n  0x01\n    /* \"@openzeppelin/contracts/utils/ReentrancyGuard.sol\":2061:2068  _status */\n  dup1\n    /* \"@openzeppelin/contracts/utils/ReentrancyGuard.sol\":2061:2082  _status = NOT_ENTERED */\n  dup2\n  swap1\n  sstore\n  pop\n    /* \"@openzeppelin/contracts/utils/Pausable.sol\":1241:1246  false */\n  0x00\n    /* \"@openzeppelin/contracts/utils/Pausable.sol\":1231:1238  _paused */\n  0x02\n  0x00\n    /* \"@openzeppelin/contracts/utils/Pausable.sol\":1231:1246  _paused = false */\n  0x0100\n  exp\n  dup2\n  sload\n  dup2\n  0xff\n  mul\n  not\n  and\n  swap1\n  dup4\n  iszero\n  iszero\n  mul\n  or\n  swap1\n  sstore\n  pop\n    /* \"p2p/BitTorrentRegistry.sol\":3456:3469  _fileRegistry */\n  dup2\n    /* \"p2p/BitTorrentRegistry.sol\":3427:3439  fileRegistry */\n  0x07\n  0x00\n    /* \"p2p/BitTorrentRegistry.sol\":3427:3470  fileRegistry = IFileRegistry(_fileRegistry) */\n  0x0100\n  exp\n  dup2\n  sload\n  dup2\n  0xffffffffffffffffffffffffffffffffffffffff\n  mul\n  not\n  and\n  swap1\n  dup4\n  0xffffffffffffffffffffffffffffffffffffffff\n  and\n  mul\n  or\n  swap1\n  sstore\n  pop\n    /* \"p2p/BitTorrentRegistry.sol\":3501:3510  _verifier */\n  dup1\n    /* \"p2p/BitTorrentRegistry.sol\":3480:3488  verifier */\n  0x08\n  0x00\n    /* \"p2p/BitTorrentRegistry.sol\":3480:3511  verifier = IVerifier(_verifier) */\n  0x0100\n  exp\n  dup2\n  sload\n  dup2\n  0xffffffffffffffffffffffffffffffffffffffff\n  mul\n  not\n  and\n  swap1\n  dup4\n  0xffffffffffffffffffffffffffffffffffffffff\n  and\n  mul\n  or\n  swap1\n  sstore\n  pop\n    /* \"p2p/BitTorrentRegistry.sol\":3289:3518  constructor(... */\n  pop\n  pop\n  pop\n    /* \"p2p/BitTorrentRegistry.sol\":530:14151  contract BitTorrentRegistry is IBitTorrent, Ownable, ReentrancyGuard, Pausable {... */\n  jump(tag_17)\n    /* \"@openzeppelin/contracts/access/Ownable.sol\":2912:3099  function _transferOwnership(address newOwner) internal virtual {... */\ntag_13:\n    /* \"@openzeppelin/contracts/access/Ownable.sol\":2985:3001  address oldOwner */\n  0x00\n    /* \"@openzeppelin/contracts/access/Ownable.sol\":3004:3010  _owner */\n  dup1\n  0x00\n  swap1\n  sload\n  swap1\n  0x0100\n  exp\n  swap1\n  div\n  0xffffffffffffffffffffffffffffffffffffffff\n  and\n    /* \"@openzeppelin/contracts/access/Ownable.sol\":2985:3010  address oldOwner = _owner */\n  swap1\n  pop\n    /* \"@openzeppelin/contracts/access/Ownable.sol\":3029:3037  newOwner */\n  dup2\n    /* \"@openzeppelin/contracts/access/Ownable.sol\":3020:3026  _owner */\n  0x00\n  dup1\n    /* \"@openzeppelin/contracts/access/Ownable.sol\":3020:3037  _owner = newOwner */\n  0x0100\n  exp\n  dup2\n  sload\n  dup2\n  0xffffffffffffffffffffffffffffffffffffffff\n  mul\n  not\n  and\n  swap1\n  dup4\n  0xffffffffffffffffffffffffffffffffffffffff\n  and\n  mul\n  or\n  swap1\n  sstore\n  pop\n    /* \"@openzeppelin/contracts/access/Ownable.sol\":3083:3091  newOwner */\n  dup2\n    /* \"@openzeppelin/contracts/access/Ownable.sol\":3052:3092  OwnershipTransferred(oldOwner, newOwner) */\n  0xffffffffffffffffffffffffffffffffffffffff\n  and\n    /* \"@openzeppelin/contracts/access/Ownable.sol\":3073:3081  oldOwner */\n  dup2\n    /* \"@openzeppelin/contracts/access/Ownable.sol\":3052:3092  OwnershipTransferred(oldOwner, newOwner) */\n  0xffffffffffffffffffffffffffffffffffffffff\n  and\n  0x8be0079c531659141344cd1fd0a4f28419497f9722a3daafe3b4186f6b6457e0\n  mload(0x40)\n  mload(0x40)\n  dup1\n  swap2\n  sub\n  swap1\n  log3\n    /* \"@openzeppelin/contracts/access/Ownable.sol\":2975:3099  {... */\n  pop\n    /* \"@openzeppelin/contracts/access/Ownable.sol\":2912:3099  function _transferOwnership(address newOwner) internal virtual {... */\n  pop\n  jump\t// out\n    /* \"#utility.yul\":88:205   */\ntag_20:\n    /* \"#utility.yul\":197:198   */\n  0x00\n    /* \"#utility.yul\":194:195   */\n  dup1\n    /* \"#utility.yul\":187:199   */\n  revert\n    /* \"#utility.yul\":334:460   */\ntag_22:\n    /* \"#utility.yul\":371:378   */\n  0x00\n    /* \"#utility.yul\":411:453   */\n  0xffffffffffffffffffffffffffffffffffffffff\n    /* \"#utility.yul\":404:409   */\n  dup3\n    /* \"#utility.yul\":400:454   */\n  and\n    /* \"#utility.yul\":389:454   */\n  swap1\n  pop\n    /* \"#utility.yul\":334:460   */\n  swap2\n  swap1\n  pop\n  jump\t// out\n    /* \"#utility.yul\":466:562   */\ntag_23:\n    /* \"#utility.yul\":503:510   */\n  0x00\n    /* \"#utility.yul\":532:556   */\n  tag_33\n    /* \"#utility.yul\":550:555   */\n  dup3\n    /* \"#utility.yul\":532:556   */\n  tag_22\n  jump\t// in\ntag_33:\n    /* \"#utility.yul\":521:556   */\n  swap1\n  pop\n    /* \"#utility.yul\":466:562   */\n  swap2\n  swap1\n  pop\n  jump\t// out\n    /* \"#utility.yul\":568:690   */\ntag_24:\n    /* \"#utility.yul\":641:665   */\n  tag_35\n    /* \"#utility.yul\":659:664   */\n  dup2\n    /* \"#utility.yul\":641:665   */\n  tag_23\n  jump\t// in\ntag_35:\n    /* \"#utility.yul\":634:639   */\n  dup2\n    /* \"#utility.yul\":631:666   */\n  eq\n    /* \"#utility.yul\":621:684   */\n  tag_36\n  jumpi\n    /* \"#utility.yul\":680:681   */\n  0x00\n    /* \"#utility.yul\":677:678   */\n  dup1\n    /* \"#utility.yul\":670:682   */\n  revert\n    /* \"#utility.yul\":621:684   */\ntag_36:\n    /* \"#utility.yul\":568:690   */\n  pop\n  jump\t// out\n    /* \"#utility.yul\":696:839   */\ntag_25:\n    /* \"#utility.yul\":753:758   */\n  0x00\n    /* \"#utility.yul\":784:790   */\n  dup2\n    /* \"#utility.yul\":778:791   */\n  mload\n    /* \"#utility.yul\":769:791   */\n  swap1\n  pop\n    /* \"#utility.yul\":800:833   */\n  tag_38\n    /* \"#utility.yul\":827:832   */\n  dup2\n    /* \"#utility.yul\":800:833   */\n  tag_24\n  jump\t// in\ntag_38:\n    /* \"#utility.yul\":696:839   */\n  swap3\n  swap2\n  pop\n  pop\n  jump\t// out\n    /* \"#utility.yul\":845:1508   */\ntag_3:\n    /* \"#utility.yul\":933:939   */\n  0x00\n    /* \"#utility.yul\":941:947   */\n  dup1\n    /* \"#utility.yul\":949:955   */\n  0x00\n    /* \"#utility.yul\":998:1000   */\n  0x60\n    /* \"#utility.yul\":986:995   */\n  dup5\n    /* \"#utility.yul\":977:984   */\n  dup7\n    /* \"#utility.yul\":973:996   */\n  sub\n    /* \"#utility.yul\":969:1001   */\n  slt\n    /* \"#utility.yul\":966:1085   */\n  iszero\n  tag_40\n  jumpi\n    /* \"#utility.yul\":1004:1083   */\n  tag_41\n  tag_20\n  jump\t// in\ntag_41:\n    /* \"#utility.yul\":966:1085   */\ntag_40:\n    /* \"#utility.yul\":1124:1125   */\n  0x00\n    /* \"#utility.yul\":1149:1213   */\n  tag_42\n    /* \"#utility.yul\":1205:1212   */\n  dup7\n    /* \"#utility.yul\":1196:1202   */\n  dup3\n    /* \"#utility.yul\":1185:1194   */\n  dup8\n    /* \"#utility.yul\":1181:1203   */\n  add\n    /* \"#utility.yul\":1149:1213   */\n  tag_25\n  jump\t// in\ntag_42:\n    /* \"#utility.yul\":1139:1213   */\n  swap4\n  pop\n    /* \"#utility.yul\":1095:1223   */\n  pop\n    /* \"#utility.yul\":1262:1264   */\n  0x20\n    /* \"#utility.yul\":1288:1352   */\n  tag_43\n    /* \"#utility.yul\":1344:1351   */\n  dup7\n    /* \"#utility.yul\":1335:1341   */\n  dup3\n    /* \"#utility.yul\":1324:1333   */\n  dup8\n    /* \"#utility.yul\":1320:1342   */\n  add\n    /* \"#utility.yul\":1288:1352   */\n  tag_25\n  jump\t// in\ntag_43:\n    /* \"#utility.yul\":1278:1352   */\n  swap3\n  pop\n    /* \"#utility.yul\":1233:1362   */\n  pop\n    /* \"#utility.yul\":1401:1403   */\n  0x40\n    /* \"#utility.yul\":1427:1491   */\n  tag_44\n    /* \"#utility.yul\":1483:1490   */\n  dup7\n    /* \"#utility.yul\":1474:1480   */\n  dup3\n    /* \"#utility.yul\":1463:1472   */\n  dup8\n    /* \"#utility.yul\":1459:1481   */\n  add\n    /* \"#utility.yul\":1427:1491   */\n  tag_25\n  jump\t// in\ntag_44:\n    /* \"#utility.yul\":1417:1491   */\n  swap2\n  pop\n    /* \"#utility.yul\":1372:1501   */\n  pop\n    /* \"#utility.yul\":845:1508   */\n  swap3\n  pop\n  swap3\n  pop\n  swap3\n  jump\t// out\n    /* \"#utility.yul\":1514:1632   */\ntag_26:\n    /* \"#utility.yul\":1601:1625   */\n  tag_46\n    /* \"#utility.yul\":1619:1624   */\n  dup2\n    /* \"#utility.yul\":1601:1625   */\n  tag_23\n  jump\t// in\ntag_46:\n    /* \"#utility.yul\":1596:1599   */\n  dup3\n    /* \"#utility.yul\":1589:1626   */\n  mstore\n    /* \"#utility.yul\":1514:1632   */\n  pop\n  pop\n  jump\t// out\n    /* \"#utility.yul\":1638:1860   */\ntag_11:\n    /* \"#utility.yul\":1731:1735   */\n  0x00\n    /* \"#utility.yul\":1769:1771   */\n  0x20\n    /* \"#utility.yul\":1758:1767   */\n  dup3\n    /* \"#utility.yul\":1754:1772   */\n  add\n    /* \"#utility.yul\":1746:1772   */\n  swap1\n  pop\n    /* \"#utility.yul\":1782:1853   */\n  tag_48\n    /* \"#utility.yul\":1850:1851   */\n  0x00\n    /* \"#utility.yul\":1839:1848   */\n  dup4\n    /* \"#utility.yul\":1835:1852   */\n  add\n    /* \"#utility.yul\":1826:1832   */\n  dup5\n    /* \"#utility.yul\":1782:1853   */\n  tag_26\n  jump\t// in\ntag_48:\n    /* \"#utility.yul\":1638:1860   */\n  swap3\n  swap2\n  pop\n  pop\n  jump\t// out\n    /* \"p2p/BitTorrentRegistry.sol\":530:14151  contract BitTorrentRegistry is IBitTorrent, Ownable, ReentrancyGuard, Pausable {... */\ntag_17:\n  dataSize(sub_0)\n  dup1\n  dataOffset(sub_0)\n  0x00\n  codecopy\n  0x00\n  return\nstop\n\nsub_0: assembly {\n        /* \"p2p/BitTorrentRegistry.sol\":530:14151  contract BitTorrentRegistry is IBitTorrent, Ownable, ReentrancyGuard, Pausable {... */\n      mstore(0x40, 0x80)\n      callvalue\n      dup1\n      iszero\n      tag_1\n      jumpi\n      0x00\n      dup1\n      revert\n    tag_1:\n      pop\n      jumpi(tag_2, lt(calldatasize, 0x04))\n      shr(0xe0, calldataload(0x00))\n      dup1\n      0x885a8a94\n      gt\n      tag_32\n      jumpi\n      dup1\n      0xaac38d8c\n      gt\n      tag_33\n      jumpi\n      dup1\n      0xe6fc2d8a\n      gt\n      tag_34\n      jumpi\n      dup1\n      0xe6fc2d8a\n      eq\n      tag_28\n      jumpi\n      dup1\n      0xeeaa7efd\n      eq\n      tag_29\n      jumpi\n      dup1\n      0xf2fde38b\n      eq\n      tag_30\n      jumpi\n      dup1\n      0xf85f65af\n      eq\n      tag_31\n      jumpi\n      jump(tag_2)\n    tag_34:\n      dup1\n      0xaac38d8c\n      eq\n      tag_24\n      jumpi\n      dup1\n      0xbadf2d1d\n      eq\n      tag_25\n      jumpi\n      dup1\n      0xc77943c0\n      eq\n      tag_26\n      jumpi\n      dup1\n      0xc7aa2f1e\n      eq\n      tag_27\n      jumpi\n      jump(tag_2)\n    tag_33:\n      dup1\n      0x917e076a\n      gt\n      tag_35\n      jumpi\n      dup1\n      0x917e076a\n      eq\n      tag_20\n      jumpi\n      dup1\n      0x94e34fc8\n      eq\n      tag_21\n      jumpi\n      dup1\n      0x97ab3501\n      eq\n      tag_22\n      jumpi\n      dup1\n      0x9a5e71c2\n      eq\n      tag_23\n      jumpi\n      jump(tag_2)\n    tag_35:\n      dup1\n      0x885a8a94\n      eq\n      tag_17\n      jumpi\n      dup1\n      0x8a405abc\n      eq\n      tag_18\n      jumpi\n      dup1\n      0x8da5cb5b\n      eq\n      tag_19\n      jumpi\n      jump(tag_2)\n    tag_32:\n      dup1\n      0x5276b263\n      gt\n      tag_36\n      jumpi\n      dup1\n      0x715018a6\n      gt\n      tag_37\n      jumpi\n      dup1\n      0x715018a6\n      eq\n      tag_13\n      jumpi\n      dup1\n      0x8456cb59\n      eq\n      tag_14\n      jumpi\n      dup1\n      0x85a80265\n      eq\n      tag_15\n      jumpi\n      dup1\n      0x86d221f3\n      eq\n      tag_16\n      jumpi\n      jump(tag_2)\n    tag_37:\n      dup1\n      0x5276b263\n      eq\n      tag_10\n      jumpi\n      dup1\n      0x5c975abb\n      eq\n      tag_11\n      jumpi\n      dup1\n      0x675fd3e6\n      eq\n      tag_12\n      jumpi\n      jump(tag_2)\n    tag_36:\n      dup1\n      0x1c8590ba\n      gt\n      tag_38\n      jumpi\n      dup1\n      0x1c8590ba\n      eq\n      tag_6\n      jumpi\n      dup1\n      0x2b7ac3f3\n      eq\n      tag_7\n      jumpi\n      dup1\n      0x3d2babf2\n      eq\n      tag_8\n      jumpi\n      dup1\n      0x3f4ba83a\n      eq\n      tag_9\n      jumpi\n      jump(tag_2)\n    tag_38:\n      dup1\n      0x1758bdcb\n      eq\n      tag_3\n      jumpi\n      dup1\n      0x187774bd\n      eq\n      tag_4\n      jumpi\n      dup1\n      0x1a26edb5\n      eq\n      tag_5\n      jumpi\n    tag_2:\n      0x00\n      dup1\n      revert\n        /* \"p2p/BitTorrentRegistry.sol\":10038:10736  function getTorrent(... */\n    tag_3:\n      tag_39\n      0x04\n      dup1\n      calldatasize\n      sub\n      dup2\n      add\n      swap1\n      tag_40\n      swap2\n      swap1\n      tag_41\n      jump\t// in\n    tag_40:\n      tag_42\n      jump\t// in\n    tag_39:\n      mload(0x40)\n      tag_43\n      swap9\n      swap8\n      swap7\n      swap6\n      swap5\n      swap4\n      swap3\n      swap2\n      swap1\n      tag_44\n      jump\t// in\n    tag_43:\n      mload(0x40)\n      dup1\n      swap2\n      sub\n      swap1\n      return\n        /* \"p2p/BitTorrentRegistry.sol\":10866:11046  function getPieceHash(... */\n    tag_4:\n      tag_45\n      0x04\n      dup1\n      calldatasize\n      sub\n      dup2\n      add\n      swap1\n      tag_46\n      swap2\n      swap1\n      tag_47\n      jump\t// in\n    tag_46:\n      tag_48\n      jump\t// in\n    tag_45:\n      mload(0x40)\n      tag_49\n      swap2\n      swap1\n      tag_50\n      jump\t// in\n    tag_49:\n      mload(0x40)\n      dup1\n      swap2\n      sub\n      swap1\n      return\n        /* \"p2p/BitTorrentRegistry.sol\":9049:9226  function getSwarmPeers(... */\n    tag_5:\n      tag_51\n      0x04\n      dup1\n      calldatasize\n      sub\n      dup2\n      add\n      swap1\n      tag_52\n      swap2\n      swap1\n      tag_41\n      jump\t// in\n    tag_52:\n      tag_53\n      jump\t// in\n    tag_51:\n      mload(0x40)\n      tag_54\n      swap2\n      swap1\n      tag_55\n      jump\t// in\n    tag_54:\n      mload(0x40)\n      dup1\n      swap2\n      sub\n      swap1\n      return\n        /* \"p2p/BitTorrentRegistry.sol\":1958:1995  mapping(address => Peer) public peers */\n    tag_6:\n      tag_56\n      0x04\n      dup1\n      calldatasize\n      sub\n      dup2\n      add\n      swap1\n      tag_57\n      swap2\n      swap1\n      tag_58\n      jump\t// in\n    tag_57:\n      tag_59\n      jump\t// in\n    tag_56:\n      mload(0x40)\n      tag_60\n      swap7\n      swap6\n      swap5\n      swap4\n      swap3\n      swap2\n      swap1\n      tag_61\n      jump\t// in\n    tag_60:\n      mload(0x40)\n      dup1\n      swap2\n      sub\n      swap1\n      return\n        /* \"p2p/BitTorrentRegistry.sol\":2191:2216  IVerifier public verifier */\n    tag_7:\n      tag_62\n      tag_63\n      jump\t// in\n    tag_62:\n      mload(0x40)\n      tag_64\n      swap2\n      swap1\n      tag_65\n      jump\t// in\n    tag_64:\n      mload(0x40)\n      dup1\n      swap2\n      sub\n      swap1\n      return\n        /* \"p2p/BitTorrentRegistry.sol\":9360:9545  function isPeerInSwarm(... */\n    tag_8:\n      tag_66\n      0x04\n      dup1\n      calldatasize\n      sub\n      dup2\n      add\n      swap1\n      tag_67\n      swap2\n      swap1\n      tag_68\n      jump\t// in\n    tag_67:\n      tag_69\n      jump\t// in\n    tag_66:\n      mload(0x40)\n      tag_70\n      swap2\n      swap1\n      tag_71\n      jump\t// in\n    tag_70:\n      mload(0x40)\n      dup1\n      swap2\n      sub\n      swap1\n      return\n        /* \"p2p/BitTorrentRegistry.sol\":14084:14149  function unpause() external onlyOwner {... */\n    tag_9:\n      tag_72\n      tag_73\n      jump\t// in\n    tag_72:\n      stop\n        /* \"p2p/BitTorrentRegistry.sol\":2152:2185  IFileRegistry public fileRegistry */\n    tag_10:\n      tag_74\n      tag_75\n      jump\t// in\n    tag_74:\n      mload(0x40)\n      tag_76\n      swap2\n      swap1\n      tag_77\n      jump\t// in\n    tag_76:\n      mload(0x40)\n      dup1\n      swap2\n      sub\n      swap1\n      return\n        /* \"@openzeppelin/contracts/utils/Pausable.sol\":1850:1934  function paused() public view virtual returns (bool) {... */\n    tag_11:\n      tag_78\n      tag_79\n      jump\t// in\n    tag_78:\n      mload(0x40)\n      tag_80\n      swap2\n      swap1\n      tag_71\n      jump\t// in\n    tag_80:\n      mload(0x40)\n      dup1\n      swap2\n      sub\n      swap1\n      return\n        /* \"p2p/BitTorrentRegistry.sol\":6491:6852  function joinSwarm(bytes32 torrentHash) external override {... */\n    tag_12:\n      tag_81\n      0x04\n      dup1\n      calldatasize\n      sub\n      dup2\n      add\n      swap1\n      tag_82\n      swap2\n      swap1\n      tag_41\n      jump\t// in\n    tag_82:\n      tag_83\n      jump\t// in\n    tag_81:\n      stop\n        /* \"@openzeppelin/contracts/access/Ownable.sol\":2293:2394  function renounceOwnership() public virtual onlyOwner {... */\n    tag_13:\n      tag_84\n      tag_85\n      jump\t// in\n    tag_84:\n      stop\n        /* \"p2p/BitTorrentRegistry.sol\":14017:14078  function pause() external onlyOwner {... */\n    tag_14:\n      tag_86\n      tag_87\n      jump\t// in\n    tag_86:\n      stop\n        /* \"p2p/BitTorrentRegistry.sol\":3986:4630  function addTorrent(... */\n    tag_15:\n      tag_88\n      0x04\n      dup1\n      calldatasize\n      sub\n      dup2\n      add\n      swap1\n      tag_89\n      swap2\n      swap1\n      tag_90\n      jump\t// in\n    tag_89:\n      tag_91\n      jump\t// in\n    tag_88:\n      stop\n        /* \"p2p/BitTorrentRegistry.sol\":4734:5475  function registerTorrent(... */\n    tag_16:\n      tag_92\n      0x04\n      dup1\n      calldatasize\n      sub\n      dup2\n      add\n      swap1\n      tag_93\n      swap2\n      swap1\n      tag_94\n      jump\t// in\n    tag_93:\n      tag_95\n      jump\t// in\n    tag_92:\n      stop\n        /* \"p2p/BitTorrentRegistry.sol\":1909:1952  mapping(bytes32 => Torrent) public torrents */\n    tag_17:\n      tag_96\n      0x04\n      dup1\n      calldatasize\n      sub\n      dup2\n      add\n      swap1\n      tag_97\n      swap2\n      swap1\n      tag_41\n      jump\t// in\n    tag_97:\n      tag_98\n      jump\t// in\n    tag_96:\n      mload(0x40)\n      tag_99\n      swap12\n      swap11\n      swap10\n      swap9\n      swap8\n      swap7\n      swap6\n      swap5\n      swap4\n      swap3\n      swap2\n      swap1\n      tag_100\n      jump\t// in\n    tag_99:\n      mload(0x40)\n      dup1\n      swap2\n      sub\n      swap1\n      return\n        /* \"p2p/BitTorrentRegistry.sol\":2227:2284  uint256 public constant MAX_PIECE_SIZE = 1024 * 1024 * 32 */\n    tag_18:\n      tag_101\n      tag_102\n      jump\t// in\n    tag_101:\n      mload(0x40)\n      tag_103\n      swap2\n      swap1\n      tag_104\n      jump\t// in\n    tag_103:\n      mload(0x40)\n      dup1\n      swap2\n      sub\n      swap1\n      return\n        /* \"@openzeppelin/contracts/access/Ownable.sol\":1638:1723  function owner() public view virtual returns (address) {... */\n    tag_19:\n      tag_105\n      tag_106\n      jump\t// in\n    tag_105:\n      mload(0x40)\n      tag_107\n      swap2\n      swap1\n      tag_108\n      jump\t// in\n    tag_107:\n      mload(0x40)\n      dup1\n      swap2\n      sub\n      swap1\n      return\n        /* \"p2p/BitTorrentRegistry.sol\":7523:8352  function verifyPiece(... */\n    tag_20:\n      tag_109\n      0x04\n      dup1\n      calldatasize\n      sub\n      dup2\n      add\n      swap1\n      tag_110\n      swap2\n      swap1\n      tag_111\n      jump\t// in\n    tag_110:\n      tag_112\n      jump\t// in\n    tag_109:\n      stop\n        /* \"p2p/BitTorrentRegistry.sol\":2090:2141  mapping(bytes32 => uint256) public torrentPeerCount */\n    tag_21:\n      tag_113\n      0x04\n      dup1\n      calldatasize\n      sub\n      dup2\n      add\n      swap1\n      tag_114\n      swap2\n      swap1\n      tag_41\n      jump\t// in\n    tag_114:\n      tag_115\n      jump\t// in\n    tag_113:\n      mload(0x40)\n      tag_116\n      swap2\n      swap1\n      tag_104\n      jump\t// in\n    tag_116:\n      mload(0x40)\n      dup1\n      swap2\n      sub\n      swap1\n      return\n        /* \"p2p/BitTorrentRegistry.sol\":9638:9940  function removeTorrent(bytes32 torrentHash) external override {... */\n    tag_22:\n      tag_117\n      0x04\n      dup1\n      calldatasize\n      sub\n      dup2\n      add\n      swap1\n      tag_118\n      swap2\n      swap1\n      tag_41\n      jump\t// in\n    tag_118:\n      tag_119\n      jump\t// in\n    tag_117:\n      stop\n        /* \"p2p/BitTorrentRegistry.sol\":6950:7308  function leaveSwarm(bytes32 torrentHash) external override {... */\n    tag_23:\n      tag_120\n      0x04\n      dup1\n      calldatasize\n      sub\n      dup2\n      add\n      swap1\n      tag_121\n      swap2\n      swap1\n      tag_41\n      jump\t// in\n    tag_121:\n      tag_122\n      jump\t// in\n    tag_120:\n      stop\n        /* \"p2p/BitTorrentRegistry.sol\":2408:2456  uint256 public constant REPUTATION_DECREASE = 20 */\n    tag_24:\n      tag_123\n      tag_124\n      jump\t// in\n    tag_123:\n      mload(0x40)\n      tag_125\n      swap2\n      swap1\n      tag_104\n      jump\t// in\n    tag_125:\n      mload(0x40)\n      dup1\n      swap2\n      sub\n      swap1\n      return\n        /* \"p2p/BitTorrentRegistry.sol\":2001:2052  mapping(bytes32 => bytes32) public peerAnonymousIds */\n    tag_25:\n      tag_126\n      0x04\n      dup1\n      calldatasize\n      sub\n      dup2\n      add\n      swap1\n      tag_127\n      swap2\n      swap1\n      tag_41\n      jump\t// in\n    tag_127:\n      tag_128\n      jump\t// in\n    tag_126:\n      mload(0x40)\n      tag_129\n      swap2\n      swap1\n      tag_50\n      jump\t// in\n    tag_129:\n      mload(0x40)\n      dup1\n      swap2\n      sub\n      swap1\n      return\n        /* \"p2p/BitTorrentRegistry.sol\":2298:2348  uint256 public constant MIN_REPUTATION_SCORE = 100 */\n    tag_26:\n      tag_130\n      tag_131\n      jump\t// in\n    tag_130:\n      mload(0x40)\n      tag_132\n      swap2\n      swap1\n      tag_104\n      jump\t// in\n    tag_132:\n      mload(0x40)\n      dup1\n      swap2\n      sub\n      swap1\n      return\n        /* \"p2p/BitTorrentRegistry.sol\":8449:8946  function getTorrentMetadata(... */\n    tag_27:\n      tag_133\n      0x04\n      dup1\n      calldatasize\n      sub\n      dup2\n      add\n      swap1\n      tag_134\n      swap2\n      swap1\n      tag_41\n      jump\t// in\n    tag_134:\n      tag_135\n      jump\t// in\n    tag_133:\n      mload(0x40)\n      tag_136\n      swap2\n      swap1\n      tag_137\n      jump\t// in\n    tag_136:\n      mload(0x40)\n      dup1\n      swap2\n      sub\n      swap1\n      return\n        /* \"p2p/BitTorrentRegistry.sol\":2354:2402  uint256 public constant REPUTATION_INCREASE = 10 */\n    tag_28:\n      tag_138\n      tag_139\n      jump\t// in\n    tag_138:\n      mload(0x40)\n      tag_140\n      swap2\n      swap1\n      tag_104\n      jump\t// in\n    tag_140:\n      mload(0x40)\n      dup1\n      swap2\n      sub\n      swap1\n      return\n        /* \"p2p/BitTorrentRegistry.sol\":11132:11645  function getPeerStats(... */\n    tag_29:\n      tag_141\n      0x04\n      dup1\n      calldatasize\n      sub\n      dup2\n      add\n      swap1\n      tag_142\n      swap2\n      swap1\n      tag_58\n      jump\t// in\n    tag_142:\n      tag_143\n      jump\t// in\n    tag_141:\n      mload(0x40)\n      tag_144\n      swap7\n      swap6\n      swap5\n      swap4\n      swap3\n      swap2\n      swap1\n      tag_61\n      jump\t// in\n    tag_144:\n      mload(0x40)\n      dup1\n      swap2\n      sub\n      swap1\n      return\n        /* \"@openzeppelin/contracts/access/Ownable.sol\":2543:2758  function transferOwnership(address newOwner) public virtual onlyOwner {... */\n    tag_30:\n      tag_145\n      0x04\n      dup1\n      calldatasize\n      sub\n      dup2\n      add\n      swap1\n      tag_146\n      swap2\n      swap1\n      tag_58\n      jump\t// in\n    tag_146:\n      tag_147\n      jump\t// in\n    tag_145:\n      stop\n        /* \"p2p/BitTorrentRegistry.sol\":5552:6383  function registerPeer(bytes calldata proof) external nonReentrant whenNotPaused {... */\n    tag_31:\n      tag_148\n      0x04\n      dup1\n      calldatasize\n      sub\n      dup2\n      add\n      swap1\n      tag_149\n      swap2\n      swap1\n      tag_150\n      jump\t// in\n    tag_149:\n      tag_151\n      jump\t// in\n    tag_148:\n      stop\n        /* \"p2p/BitTorrentRegistry.sol\":10038:10736  function getTorrent(... */\n    tag_42:\n        /* \"p2p/BitTorrentRegistry.sol\":10122:10144  bytes32 fileCommitment */\n      0x00\n        /* \"p2p/BitTorrentRegistry.sol\":10154:10166  uint256 size */\n      dup1\n        /* \"p2p/BitTorrentRegistry.sol\":10176:10194  uint256 pieceCount */\n      0x00\n        /* \"p2p/BitTorrentRegistry.sol\":10204:10221  uint256 pieceSize */\n      dup1\n        /* \"p2p/BitTorrentRegistry.sol\":10231:10249  bytes32 piecesRoot */\n      0x00\n        /* \"p2p/BitTorrentRegistry.sol\":10259:10272  address owner */\n      dup1\n        /* \"p2p/BitTorrentRegistry.sol\":10282:10296  bool isPrivate */\n      0x00\n        /* \"p2p/BitTorrentRegistry.sol\":10306:10322  bool isEncrypted */\n      dup1\n        /* \"p2p/BitTorrentRegistry.sol\":10339:10362  Torrent storage torrent */\n      0x00\n        /* \"p2p/BitTorrentRegistry.sol\":10365:10373  torrents */\n      0x03\n        /* \"p2p/BitTorrentRegistry.sol\":10365:10383  torrents[infoHash] */\n      0x00\n        /* \"p2p/BitTorrentRegistry.sol\":10374:10382  infoHash */\n      dup12\n        /* \"p2p/BitTorrentRegistry.sol\":10365:10383  torrents[infoHash] */\n      dup2\n      mstore\n      0x20\n      add\n      swap1\n      dup2\n      mstore\n      0x20\n      add\n      0x00\n      keccak256\n        /* \"p2p/BitTorrentRegistry.sol\":10339:10383  Torrent storage torrent = torrents[infoHash] */\n      swap1\n      pop\n        /* \"p2p/BitTorrentRegistry.sol\":10429:10430  0 */\n      0x00\n        /* \"p2p/BitTorrentRegistry.sol\":10421:10431  bytes32(0) */\n      dup1\n      shl\n        /* \"p2p/BitTorrentRegistry.sol\":10401:10408  torrent */\n      dup2\n        /* \"p2p/BitTorrentRegistry.sol\":10401:10417  torrent.infoHash */\n      0x00\n      add\n      sload\n        /* \"p2p/BitTorrentRegistry.sol\":10401:10431  torrent.infoHash != bytes32(0) */\n      sub\n        /* \"p2p/BitTorrentRegistry.sol\":10393:10453  require(torrent.infoHash != bytes32(0), \"Torrent not found\") */\n      tag_153\n      jumpi\n      mload(0x40)\n      0x08c379a000000000000000000000000000000000000000000000000000000000\n      dup2\n      mstore\n      0x04\n      add\n      tag_154\n      swap1\n      tag_155\n      jump\t// in\n    tag_154:\n      mload(0x40)\n      dup1\n      swap2\n      sub\n      swap1\n      revert\n    tag_153:\n        /* \"p2p/BitTorrentRegistry.sol\":10485:10492  torrent */\n      dup1\n        /* \"p2p/BitTorrentRegistry.sol\":10485:10507  torrent.fileCommitment */\n      0x01\n      add\n      sload\n        /* \"p2p/BitTorrentRegistry.sol\":10521:10528  torrent */\n      dup2\n        /* \"p2p/BitTorrentRegistry.sol\":10521:10533  torrent.size */\n      0x02\n      add\n      sload\n        /* \"p2p/BitTorrentRegistry.sol\":10547:10554  torrent */\n      dup3\n        /* \"p2p/BitTorrentRegistry.sol\":10547:10565  torrent.pieceCount */\n      0x03\n      add\n      sload\n        /* \"p2p/BitTorrentRegistry.sol\":10579:10586  torrent */\n      dup4\n        /* \"p2p/BitTorrentRegistry.sol\":10579:10596  torrent.pieceSize */\n      0x04\n      add\n      sload\n        /* \"p2p/BitTorrentRegistry.sol\":10610:10617  torrent */\n      dup5\n        /* \"p2p/BitTorrentRegistry.sol\":10610:10628  torrent.piecesRoot */\n      0x05\n      add\n      sload\n        /* \"p2p/BitTorrentRegistry.sol\":10642:10649  torrent */\n      dup6\n        /* \"p2p/BitTorrentRegistry.sol\":10642:10655  torrent.owner */\n      0x06\n      add\n      0x00\n      swap1\n      sload\n      swap1\n      0x0100\n      exp\n      swap1\n      div\n      0xffffffffffffffffffffffffffffffffffffffff\n      and\n        /* \"p2p/BitTorrentRegistry.sol\":10669:10676  torrent */\n      dup7\n        /* \"p2p/BitTorrentRegistry.sol\":10669:10686  torrent.isPrivate */\n      0x06\n      add\n      0x14\n      swap1\n      sload\n      swap1\n      0x0100\n      exp\n      swap1\n      div\n      0xff\n      and\n        /* \"p2p/BitTorrentRegistry.sol\":10700:10707  torrent */\n      dup8\n        /* \"p2p/BitTorrentRegistry.sol\":10700:10719  torrent.isEncrypted */\n      0x06\n      add\n      0x15\n      swap1\n      sload\n      swap1\n      0x0100\n      exp\n      swap1\n      div\n      0xff\n      and\n        /* \"p2p/BitTorrentRegistry.sol\":10464:10729  return (... */\n      swap9\n      pop\n      swap9\n      pop\n      swap9\n      pop\n      swap9\n      pop\n      swap9\n      pop\n      swap9\n      pop\n      swap9\n      pop\n      swap9\n      pop\n      pop\n        /* \"p2p/BitTorrentRegistry.sol\":10038:10736  function getTorrent(... */\n      swap2\n      swap4\n      swap6\n      swap8\n      pop\n      swap2\n      swap4\n      swap6\n      swap8\n      jump\t// out\n        /* \"p2p/BitTorrentRegistry.sol\":10866:11046  function getPieceHash(... */\n    tag_48:\n        /* \"p2p/BitTorrentRegistry.sol\":10971:10978  bytes32 */\n      0x00\n        /* \"p2p/BitTorrentRegistry.sol\":10997:11005  torrents */\n      0x03\n        /* \"p2p/BitTorrentRegistry.sol\":10997:11015  torrents[infoHash] */\n      0x00\n        /* \"p2p/BitTorrentRegistry.sol\":11006:11014  infoHash */\n      dup5\n        /* \"p2p/BitTorrentRegistry.sol\":10997:11015  torrents[infoHash] */\n      dup2\n      mstore\n      0x20\n      add\n      swap1\n      dup2\n      mstore\n      0x20\n      add\n      0x00\n      keccak256\n        /* \"p2p/BitTorrentRegistry.sol\":10997:11027  torrents[infoHash].pieceHashes */\n      0x0a\n      add\n        /* \"p2p/BitTorrentRegistry.sol\":10997:11039  torrents[infoHash].pieceHashes[pieceIndex] */\n      0x00\n        /* \"p2p/BitTorrentRegistry.sol\":11028:11038  pieceIndex */\n      dup4\n        /* \"p2p/BitTorrentRegistry.sol\":10997:11039  torrents[infoHash].pieceHashes[pieceIndex] */\n      dup2\n      mstore\n      0x20\n      add\n      swap1\n      dup2\n      mstore\n      0x20\n      add\n      0x00\n      keccak256\n      sload\n        /* \"p2p/BitTorrentRegistry.sol\":10990:11039  return torrents[infoHash].pieceHashes[pieceIndex] */\n      swap1\n      pop\n        /* \"p2p/BitTorrentRegistry.sol\":10866:11046  function getPieceHash(... */\n      swap3\n      swap2\n      pop\n      pop\n      jump\t// out\n        /* \"p2p/BitTorrentRegistry.sol\":9049:9226  function getSwarmPeers(... */\n    tag_53:\n        /* \"p2p/BitTorrentRegistry.sol\":9139:9155  address[] memory */\n      0x60\n        /* \"p2p/BitTorrentRegistry.sol\":9188:9189  0 */\n      0x00\n        /* \"p2p/BitTorrentRegistry.sol\":9174:9190  new address[](0) */\n      0xffffffffffffffff\n      dup2\n      gt\n      iszero\n      tag_158\n      jumpi\n      tag_159\n      tag_160\n      jump\t// in\n    tag_159:\n    tag_158:\n      mload(0x40)\n      swap1\n      dup1\n      dup3\n      mstore\n      dup1\n      0x20\n      mul\n      0x20\n      add\n      dup3\n      add\n      0x40\n      mstore\n      dup1\n      iszero\n      tag_161\n      jumpi\n      dup2\n      0x20\n      add\n      0x20\n      dup3\n      mul\n      dup1\n      calldatasize\n      dup4\n      calldatacopy\n      dup1\n      dup3\n      add\n      swap2\n      pop\n      pop\n      swap1\n      pop\n    tag_161:\n      pop\n        /* \"p2p/BitTorrentRegistry.sol\":9167:9190  return new address[](0) */\n      swap1\n      pop\n        /* \"p2p/BitTorrentRegistry.sol\":9049:9226  function getSwarmPeers(... */\n      swap2\n      swap1\n      pop\n      jump\t// out\n        /* \"p2p/BitTorrentRegistry.sol\":1958:1995  mapping(address => Peer) public peers */\n    tag_59:\n      mstore(0x20, 0x04)\n      dup1\n      0x00\n      mstore\n      keccak256(0x00, 0x40)\n      0x00\n      swap2\n      pop\n      swap1\n      pop\n      dup1\n      0x00\n      add\n      sload\n      swap1\n      dup1\n      0x01\n      add\n      sload\n      swap1\n      dup1\n      0x02\n      add\n      sload\n      swap1\n      dup1\n      0x03\n      add\n      sload\n      swap1\n      dup1\n      0x04\n      add\n      sload\n      swap1\n      dup1\n      0x05\n      add\n      0x00\n      swap1\n      sload\n      swap1\n      0x0100\n      exp\n      swap1\n      div\n      0xff\n      and\n      swap1\n      pop\n      dup7\n      jump\t// out\n        /* \"p2p/BitTorrentRegistry.sol\":2191:2216  IVerifier public verifier */\n    tag_63:\n      0x08\n      0x00\n      swap1\n      sload\n      swap1\n      0x0100\n      exp\n      swap1\n      div\n      0xffffffffffffffffffffffffffffffffffffffff\n      and\n      dup2\n      jump\t// out\n        /* \"p2p/BitTorrentRegistry.sol\":9360:9545  function isPeerInSwarm(... */\n    tag_69:\n        /* \"p2p/BitTorrentRegistry.sol\":9472:9476  bool */\n      0x00\n        /* \"p2p/BitTorrentRegistry.sol\":9495:9503  torrents */\n      0x03\n        /* \"p2p/BitTorrentRegistry.sol\":9495:9516  torrents[torrentHash] */\n      0x00\n        /* \"p2p/BitTorrentRegistry.sol\":9504:9515  torrentHash */\n      dup5\n        /* \"p2p/BitTorrentRegistry.sol\":9495:9516  torrents[torrentHash] */\n      dup2\n      mstore\n      0x20\n      add\n      swap1\n      dup2\n      mstore\n      0x20\n      add\n      0x00\n      keccak256\n        /* \"p2p/BitTorrentRegistry.sol\":9495:9532  torrents[torrentHash].authorizedPeers */\n      0x09\n      add\n        /* \"p2p/BitTorrentRegistry.sol\":9495:9538  torrents[torrentHash].authorizedPeers[peer] */\n      0x00\n        /* \"p2p/BitTorrentRegistry.sol\":9533:9537  peer */\n      dup4\n        /* \"p2p/BitTorrentRegistry.sol\":9495:9538  torrents[torrentHash].authorizedPeers[peer] */\n      0xffffffffffffffffffffffffffffffffffffffff\n      and\n      0xffffffffffffffffffffffffffffffffffffffff\n      and\n      dup2\n      mstore\n      0x20\n      add\n      swap1\n      dup2\n      mstore\n      0x20\n      add\n      0x00\n      keccak256\n      0x00\n      swap1\n      sload\n      swap1\n      0x0100\n      exp\n      swap1\n      div\n      0xff\n      and\n        /* \"p2p/BitTorrentRegistry.sol\":9488:9538  return torrents[torrentHash].authorizedPeers[peer] */\n      swap1\n      pop\n        /* \"p2p/BitTorrentRegistry.sol\":9360:9545  function isPeerInSwarm(... */\n      swap3\n      swap2\n      pop\n      pop\n      jump\t// out\n        /* \"p2p/BitTorrentRegistry.sol\":14084:14149  function unpause() external onlyOwner {... */\n    tag_73:\n        /* \"@openzeppelin/contracts/access/Ownable.sol\":1531:1544  _checkOwner() */\n      tag_164\n        /* \"@openzeppelin/contracts/access/Ownable.sol\":1531:1542  _checkOwner */\n      tag_165\n        /* \"@openzeppelin/contracts/access/Ownable.sol\":1531:1544  _checkOwner() */\n      jump\t// in\n    tag_164:\n        /* \"p2p/BitTorrentRegistry.sol\":14132:14142  _unpause() */\n      tag_167\n        /* \"p2p/BitTorrentRegistry.sol\":14132:14140  _unpause */\n      tag_168\n        /* \"p2p/BitTorrentRegistry.sol\":14132:14142  _unpause() */\n      jump\t// in\n    tag_167:\n        /* \"p2p/BitTorrentRegistry.sol\":14084:14149  function unpause() external onlyOwner {... */\n      jump\t// out\n        /* \"p2p/BitTorrentRegistry.sol\":2152:2185  IFileRegistry public fileRegistry */\n    tag_75:\n      0x07\n      0x00\n      swap1\n      sload\n      swap1\n      0x0100\n      exp\n      swap1\n      div\n      0xffffffffffffffffffffffffffffffffffffffff\n      and\n      dup2\n      jump\t// out\n        /* \"@openzeppelin/contracts/utils/Pausable.sol\":1850:1934  function paused() public view virtual returns (bool) {... */\n    tag_79:\n        /* \"@openzeppelin/contracts/utils/Pausable.sol\":1897:1901  bool */\n      0x00\n        /* \"@openzeppelin/contracts/utils/Pausable.sol\":1920:1927  _paused */\n      0x02\n      0x00\n      swap1\n      sload\n      swap1\n      0x0100\n      exp\n      swap1\n      div\n      0xff\n      and\n        /* \"@openzeppelin/contracts/utils/Pausable.sol\":1913:1927  return _paused */\n      swap1\n      pop\n        /* \"@openzeppelin/contracts/utils/Pausable.sol\":1850:1934  function paused() public view virtual returns (bool) {... */\n      swap1\n      jump\t// out\n        /* \"p2p/BitTorrentRegistry.sol\":6491:6852  function joinSwarm(bytes32 torrentHash) external override {... */\n    tag_83:\n        /* \"p2p/BitTorrentRegistry.sol\":6559:6582  Torrent storage torrent */\n      0x00\n        /* \"p2p/BitTorrentRegistry.sol\":6585:6593  torrents */\n      0x03\n        /* \"p2p/BitTorrentRegistry.sol\":6585:6606  torrents[torrentHash] */\n      0x00\n        /* \"p2p/BitTorrentRegistry.sol\":6594:6605  torrentHash */\n      dup4\n        /* \"p2p/BitTorrentRegistry.sol\":6585:6606  torrents[torrentHash] */\n      dup2\n      mstore\n      0x20\n      add\n      swap1\n      dup2\n      mstore\n      0x20\n      add\n      0x00\n      keccak256\n        /* \"p2p/BitTorrentRegistry.sol\":6559:6606  Torrent storage torrent = torrents[torrentHash] */\n      swap1\n      pop\n        /* \"p2p/BitTorrentRegistry.sol\":6652:6653  0 */\n      0x00\n        /* \"p2p/BitTorrentRegistry.sol\":6644:6654  bytes32(0) */\n      dup1\n      shl\n        /* \"p2p/BitTorrentRegistry.sol\":6624:6631  torrent */\n      dup2\n        /* \"p2p/BitTorrentRegistry.sol\":6624:6640  torrent.infoHash */\n      0x00\n      add\n      sload\n        /* \"p2p/BitTorrentRegistry.sol\":6624:6654  torrent.infoHash != bytes32(0) */\n      sub\n        /* \"p2p/BitTorrentRegistry.sol\":6616:6676  require(torrent.infoHash != bytes32(0), \"Torrent not found\") */\n      tag_171\n      jumpi\n      mload(0x40)\n      0x08c379a000000000000000000000000000000000000000000000000000000000\n      dup2\n      mstore\n      0x04\n      add\n      tag_172\n      swap1\n      tag_155\n      jump\t// in\n    tag_172:\n      mload(0x40)\n      dup1\n      swap2\n      sub\n      swap1\n      revert\n    tag_171:\n        /* \"p2p/BitTorrentRegistry.sol\":6695:6702  torrent */\n      dup1\n        /* \"p2p/BitTorrentRegistry.sol\":6695:6718  torrent.authorizedPeers */\n      0x09\n      add\n        /* \"p2p/BitTorrentRegistry.sol\":6695:6730  torrent.authorizedPeers[msg.sender] */\n      0x00\n        /* \"p2p/BitTorrentRegistry.sol\":6719:6729  msg.sender */\n      caller\n        /* \"p2p/BitTorrentRegistry.sol\":6695:6730  torrent.authorizedPeers[msg.sender] */\n      0xffffffffffffffffffffffffffffffffffffffff\n      and\n      0xffffffffffffffffffffffffffffffffffffffff\n      and\n      dup2\n      mstore\n      0x20\n      add\n      swap1\n      dup2\n      mstore\n      0x20\n      add\n      0x00\n      keccak256\n      0x00\n      swap1\n      sload\n      swap1\n      0x0100\n      exp\n      swap1\n      div\n      0xff\n      and\n        /* \"p2p/BitTorrentRegistry.sol\":6694:6730  !torrent.authorizedPeers[msg.sender] */\n      iszero\n        /* \"p2p/BitTorrentRegistry.sol\":6686:6751  require(!torrent.authorizedPeers[msg.sender], \"Already in swarm\") */\n      tag_173\n      jumpi\n      mload(0x40)\n      0x08c379a000000000000000000000000000000000000000000000000000000000\n      dup2\n      mstore\n      0x04\n      add\n      tag_174\n      swap1\n      tag_175\n      jump\t// in\n    tag_174:\n      mload(0x40)\n      dup1\n      swap2\n      sub\n      swap1\n      revert\n    tag_173:\n        /* \"p2p/BitTorrentRegistry.sol\":6800:6804  true */\n      0x01\n        /* \"p2p/BitTorrentRegistry.sol\":6762:6769  torrent */\n      dup2\n        /* \"p2p/BitTorrentRegistry.sol\":6762:6785  torrent.authorizedPeers */\n      0x09\n      add\n        /* \"p2p/BitTorrentRegistry.sol\":6762:6797  torrent.authorizedPeers[msg.sender] */\n      0x00\n        /* \"p2p/BitTorrentRegistry.sol\":6786:6796  msg.sender */\n      caller\n        /* \"p2p/BitTorrentRegistry.sol\":6762:6797  torrent.authorizedPeers[msg.sender] */\n      0xffffffffffffffffffffffffffffffffffffffff\n      and\n      0xffffffffffffffffffffffffffffffffffffffff\n      and\n      dup2\n      mstore\n      0x20\n      add\n      swap1\n      dup2\n      mstore\n      0x20\n      add\n      0x00\n      keccak256\n      0x00\n        /* \"p2p/BitTorrentRegistry.sol\":6762:6804  torrent.authorizedPeers[msg.sender] = true */\n      0x0100\n      exp\n      dup2\n      sload\n      dup2\n      0xff\n      mul\n      not\n      and\n      swap1\n      dup4\n      iszero\n      iszero\n      mul\n      or\n      swap1\n      sstore\n      pop\n        /* \"p2p/BitTorrentRegistry.sol\":6814:6830  torrentPeerCount */\n      0x06\n        /* \"p2p/BitTorrentRegistry.sol\":6814:6843  torrentPeerCount[torrentHash] */\n      0x00\n        /* \"p2p/BitTorrentRegistry.sol\":6831:6842  torrentHash */\n      dup4\n        /* \"p2p/BitTorrentRegistry.sol\":6814:6843  torrentPeerCount[torrentHash] */\n      dup2\n      mstore\n      0x20\n      add\n      swap1\n      dup2\n      mstore\n      0x20\n      add\n      0x00\n      keccak256\n      0x00\n        /* \"p2p/BitTorrentRegistry.sol\":6814:6845  torrentPeerCount[torrentHash]++ */\n      dup2\n      sload\n      dup1\n      swap3\n      swap2\n      swap1\n      tag_176\n      swap1\n      tag_177\n      jump\t// in\n    tag_176:\n      swap2\n      swap1\n      pop\n      sstore\n      pop\n        /* \"p2p/BitTorrentRegistry.sol\":6549:6852  {... */\n      pop\n        /* \"p2p/BitTorrentRegistry.sol\":6491:6852  function joinSwarm(bytes32 torrentHash) external override {... */\n      pop\n      jump\t// out\n        /* \"@openzeppelin/contracts/access/Ownable.sol\":2293:2394  function renounceOwnership() public virtual onlyOwner {... */\n    tag_85:\n        /* \"@openzeppelin/contracts/access/Ownable.sol\":1531:1544  _checkOwner() */\n      tag_179\n        /* \"@openzeppelin/contracts/access/Ownable.sol\":1531:1542  _checkOwner */\n      tag_165\n        /* \"@openzeppelin/contracts/access/Ownable.sol\":1531:1544  _checkOwner() */\n      jump\t// in\n    tag_179:\n        /* \"@openzeppelin/contracts/access/Ownable.sol\":2357:2387  _transferOwnership(address(0)) */\n      tag_181\n        /* \"@openzeppelin/contracts/access/Ownable.sol\":2384:2385  0 */\n      0x00\n        /* \"@openzeppelin/contracts/access/Ownable.sol\":2357:2375  _transferOwnership */\n      tag_182\n        /* \"@openzeppelin/contracts/access/Ownable.sol\":2357:2387  _transferOwnership(address(0)) */\n      jump\t// in\n    tag_181:\n        /* \"@openzeppelin/contracts/access/Ownable.sol\":2293:2394  function renounceOwnership() public virtual onlyOwner {... */\n      jump\t// out\n        /* \"p2p/BitTorrentRegistry.sol\":14017:14078  function pause() external onlyOwner {... */\n    tag_87:\n        /* \"@openzeppelin/contracts/access/Ownable.sol\":1531:1544  _checkOwner() */\n      tag_184\n        /* \"@openzeppelin/contracts/access/Ownable.sol\":1531:1542  _checkOwner */\n      tag_165\n        /* \"@openzeppelin/contracts/access/Ownable.sol\":1531:1544  _checkOwner() */\n      jump\t// in\n    tag_184:\n        /* \"p2p/BitTorrentRegistry.sol\":14063:14071  _pause() */\n      tag_186\n        /* \"p2p/BitTorrentRegistry.sol\":14063:14069  _pause */\n      tag_187\n        /* \"p2p/BitTorrentRegistry.sol\":14063:14071  _pause() */\n      jump\t// in\n    tag_186:\n        /* \"p2p/BitTorrentRegistry.sol\":14017:14078  function pause() external onlyOwner {... */\n      jump\t// out\n        /* \"p2p/BitTorrentRegistry.sol\":3986:4630  function addTorrent(... */\n    tag_91:\n        /* \"@openzeppelin/contracts/utils/ReentrancyGuard.sol\":2500:2521  _nonReentrantBefore() */\n      tag_189\n        /* \"@openzeppelin/contracts/utils/ReentrancyGuard.sol\":2500:2519  _nonReentrantBefore */\n      tag_190\n        /* \"@openzeppelin/contracts/utils/ReentrancyGuard.sol\":2500:2521  _nonReentrantBefore() */\n      jump\t// in\n    tag_189:\n        /* \"@openzeppelin/contracts/utils/Pausable.sol\":1474:1493  _requireNotPaused() */\n      tag_192\n        /* \"@openzeppelin/contracts/utils/Pausable.sol\":1474:1491  _requireNotPaused */\n      tag_193\n        /* \"@openzeppelin/contracts/utils/Pausable.sol\":1474:1493  _requireNotPaused() */\n      jump\t// in\n    tag_192:\n        /* \"p2p/BitTorrentRegistry.sol\":4177:4178  0 */\n      0x00\n        /* \"p2p/BitTorrentRegistry.sol\":4169:4179  bytes32(0) */\n      dup1\n      shl\n        /* \"p2p/BitTorrentRegistry.sol\":4135:4143  torrents */\n      0x03\n        /* \"p2p/BitTorrentRegistry.sol\":4135:4156  torrents[torrentHash] */\n      0x00\n        /* \"p2p/BitTorrentRegistry.sol\":4144:4155  torrentHash */\n      dup5\n        /* \"p2p/BitTorrentRegistry.sol\":4135:4156  torrents[torrentHash] */\n      dup2\n      mstore\n      0x20\n      add\n      swap1\n      dup2\n      mstore\n      0x20\n      add\n      0x00\n      keccak256\n        /* \"p2p/BitTorrentRegistry.sol\":4135:4165  torrents[torrentHash].infoHash */\n      0x00\n      add\n      sload\n        /* \"p2p/BitTorrentRegistry.sol\":4135:4179  torrents[torrentHash].infoHash == bytes32(0) */\n      eq\n        /* \"p2p/BitTorrentRegistry.sol\":4127:4198  require(torrents[torrentHash].infoHash == bytes32(0), \"Torrent exists\") */\n      tag_195\n      jumpi\n      mload(0x40)\n      0x08c379a000000000000000000000000000000000000000000000000000000000\n      dup2\n      mstore\n      0x04\n      add\n      tag_196\n      swap1\n      tag_197\n      jump\t// in\n    tag_196:\n      mload(0x40)\n      dup1\n      swap2\n      sub\n      swap1\n      revert\n    tag_195:\n        /* \"p2p/BitTorrentRegistry.sol\":4258:4280  bytes32 fileCommitment */\n      0x00\n        /* \"p2p/BitTorrentRegistry.sol\":4294:4306  uint256 size */\n      dup1\n        /* \"p2p/BitTorrentRegistry.sol\":4320:4337  uint256 pieceSize */\n      0x00\n        /* \"p2p/BitTorrentRegistry.sol\":4351:4369  bytes32 piecesRoot */\n      dup1\n        /* \"p2p/BitTorrentRegistry.sol\":4393:4401  metadata */\n      dup5\n        /* \"p2p/BitTorrentRegistry.sol\":4382:4440  abi.decode(metadata, (bytes32, uint256, uint256, bytes32)) */\n      dup1\n      0x20\n      add\n      swap1\n      mload\n      dup2\n      add\n      swap1\n      tag_198\n      swap2\n      swap1\n      tag_199\n      jump\t// in\n    tag_198:\n        /* \"p2p/BitTorrentRegistry.sol\":4244:4440  (... */\n      swap4\n      pop\n      swap4\n      pop\n      swap4\n      pop\n      swap4\n      pop\n        /* \"p2p/BitTorrentRegistry.sol\":4479:4623  _registerTorrent(... */\n      tag_200\n        /* \"p2p/BitTorrentRegistry.sol\":4509:4520  torrentHash */\n      dup7\n        /* \"p2p/BitTorrentRegistry.sol\":4534:4548  fileCommitment */\n      dup6\n        /* \"p2p/BitTorrentRegistry.sol\":4562:4566  size */\n      dup6\n        /* \"p2p/BitTorrentRegistry.sol\":4580:4589  pieceSize */\n      dup6\n        /* \"p2p/BitTorrentRegistry.sol\":4603:4613  piecesRoot */\n      dup6\n        /* \"p2p/BitTorrentRegistry.sol\":4479:4495  _registerTorrent */\n      tag_201\n        /* \"p2p/BitTorrentRegistry.sol\":4479:4623  _registerTorrent(... */\n      jump\t// in\n    tag_200:\n        /* \"p2p/BitTorrentRegistry.sol\":4117:4630  {... */\n      pop\n      pop\n      pop\n      pop\n        /* \"@openzeppelin/contracts/utils/ReentrancyGuard.sol\":2542:2562  _nonReentrantAfter() */\n      tag_202\n        /* \"@openzeppelin/contracts/utils/ReentrancyGuard.sol\":2542:2560  _nonReentrantAfter */\n      tag_203\n        /* \"@openzeppelin/contracts/utils/ReentrancyGuard.sol\":2542:2562  _nonReentrantAfter() */\n      jump\t// in\n    tag_202:\n        /* \"p2p/BitTorrentRegistry.sol\":3986:4630  function addTorrent(... */\n      pop\n      pop\n      jump\t// out\n        /* \"p2p/BitTorrentRegistry.sol\":4734:5475  function registerTorrent(... */\n    tag_95:\n        /* \"@openzeppelin/contracts/utils/ReentrancyGuard.sol\":2500:2521  _nonReentrantBefore() */\n      tag_205\n        /* \"@openzeppelin/contracts/utils/ReentrancyGuard.sol\":2500:2519  _nonReentrantBefore */\n      tag_190\n        /* \"@openzeppelin/contracts/utils/ReentrancyGuard.sol\":2500:2521  _nonReentrantBefore() */\n      jump\t// in\n    tag_205:\n        /* \"@openzeppelin/contracts/utils/Pausable.sol\":1474:1493  _requireNotPaused() */\n      tag_207\n        /* \"@openzeppelin/contracts/utils/Pausable.sol\":1474:1491  _requireNotPaused */\n      tag_193\n        /* \"@openzeppelin/contracts/utils/Pausable.sol\":1474:1493  _requireNotPaused() */\n      jump\t// in\n    tag_207:\n        /* \"p2p/BitTorrentRegistry.sol\":2268:2284  1024 * 1024 * 32 */\n      0x02000000\n        /* \"p2p/BitTorrentRegistry.sol\":4952:4961  pieceSize */\n      dup5\n        /* \"p2p/BitTorrentRegistry.sol\":4952:4979  pieceSize <= MAX_PIECE_SIZE */\n      gt\n      iszero\n        /* \"p2p/BitTorrentRegistry.sol\":4944:5004  require(pieceSize <= MAX_PIECE_SIZE, \"Piece size too large\") */\n      tag_209\n      jumpi\n      mload(0x40)\n      0x08c379a000000000000000000000000000000000000000000000000000000000\n      dup2\n      mstore\n      0x04\n      add\n      tag_210\n      swap1\n      tag_211\n      jump\t// in\n    tag_210:\n      mload(0x40)\n      dup1\n      swap2\n      sub\n      swap1\n      revert\n    tag_209:\n        /* \"p2p/BitTorrentRegistry.sol\":5030:5031  0 */\n      0x00\n        /* \"p2p/BitTorrentRegistry.sol\":5018:5027  pieceSize */\n      dup5\n        /* \"p2p/BitTorrentRegistry.sol\":5018:5031  pieceSize > 0 */\n      gt\n        /* \"p2p/BitTorrentRegistry.sol\":5018:5043  pieceSize > 0 && size > 0 */\n      dup1\n      iszero\n      tag_212\n      jumpi\n      pop\n        /* \"p2p/BitTorrentRegistry.sol\":5042:5043  0 */\n      0x00\n        /* \"p2p/BitTorrentRegistry.sol\":5035:5039  size */\n      dup6\n        /* \"p2p/BitTorrentRegistry.sol\":5035:5043  size > 0 */\n      gt\n        /* \"p2p/BitTorrentRegistry.sol\":5018:5043  pieceSize > 0 && size > 0 */\n    tag_212:\n        /* \"p2p/BitTorrentRegistry.sol\":5010:5061  require(pieceSize > 0 && size > 0, \"Invalid sizes\") */\n      tag_213\n      jumpi\n      mload(0x40)\n      0x08c379a000000000000000000000000000000000000000000000000000000000\n      dup2\n      mstore\n      0x04\n      add\n      tag_214\n      swap1\n      tag_215\n      jump\t// in\n    tag_214:\n      mload(0x40)\n      dup1\n      swap2\n      sub\n      swap1\n      revert\n    tag_213:\n        /* \"p2p/BitTorrentRegistry.sol\":5114:5115  0 */\n      0x00\n        /* \"p2p/BitTorrentRegistry.sol\":5106:5116  bytes32(0) */\n      dup1\n      shl\n        /* \"p2p/BitTorrentRegistry.sol\":5075:5083  torrents */\n      0x03\n        /* \"p2p/BitTorrentRegistry.sol\":5075:5093  torrents[infoHash] */\n      0x00\n        /* \"p2p/BitTorrentRegistry.sol\":5084:5092  infoHash */\n      dup10\n        /* \"p2p/BitTorrentRegistry.sol\":5075:5093  torrents[infoHash] */\n      dup2\n      mstore\n      0x20\n      add\n      swap1\n      dup2\n      mstore\n      0x20\n      add\n      0x00\n      keccak256\n        /* \"p2p/BitTorrentRegistry.sol\":5075:5102  torrents[infoHash].infoHash */\n      0x00\n      add\n      sload\n        /* \"p2p/BitTorrentRegistry.sol\":5075:5116  torrents[infoHash].infoHash == bytes32(0) */\n      eq\n        /* \"p2p/BitTorrentRegistry.sol\":5067:5135  require(torrents[infoHash].infoHash == bytes32(0), \"Torrent exists\") */\n      tag_216\n      jumpi\n      mload(0x40)\n      0x08c379a000000000000000000000000000000000000000000000000000000000\n      dup2\n      mstore\n      0x04\n      add\n      tag_217\n      swap1\n      tag_197\n      jump\t// in\n    tag_217:\n      mload(0x40)\n      dup1\n      swap2\n      sub\n      swap1\n      revert\n    tag_216:\n        /* \"p2p/BitTorrentRegistry.sol\":5229:5237  verifier */\n      0x08\n      0x00\n      swap1\n      sload\n      swap1\n      0x0100\n      exp\n      swap1\n      div\n      0xffffffffffffffffffffffffffffffffffffffff\n      and\n        /* \"p2p/BitTorrentRegistry.sol\":5229:5253  verifier.verifyFileProof */\n      0xffffffffffffffffffffffffffffffffffffffff\n      and\n      0xe3d0a2be\n        /* \"p2p/BitTorrentRegistry.sol\":5254:5268  fileCommitment */\n      dup8\n        /* \"p2p/BitTorrentRegistry.sol\":5270:5275  proof */\n      dup5\n      dup5\n        /* \"p2p/BitTorrentRegistry.sol\":5277:5287  msg.sender */\n      caller\n        /* \"p2p/BitTorrentRegistry.sol\":5229:5288  verifier.verifyFileProof(fileCommitment, proof, msg.sender) */\n      mload(0x40)\n      dup6\n      0xffffffff\n      and\n      0xe0\n      shl\n      dup2\n      mstore\n      0x04\n      add\n      tag_218\n      swap5\n      swap4\n      swap3\n      swap2\n      swap1\n      tag_219\n      jump\t// in\n    tag_218:\n      0x20\n      mload(0x40)\n      dup1\n      dup4\n      sub\n      dup2\n      dup7\n      gas\n      staticcall\n      iszero\n      dup1\n      iszero\n      tag_221\n      jumpi\n      returndatasize\n      0x00\n      dup1\n      returndatacopy\n      revert(0x00, returndatasize)\n    tag_221:\n      pop\n      pop\n      pop\n      pop\n      mload(0x40)\n      returndatasize\n      not(0x1f)\n      0x1f\n      dup3\n      add\n      and\n      dup3\n      add\n      dup1\n      0x40\n      mstore\n      pop\n      dup2\n      add\n      swap1\n      tag_222\n      swap2\n      swap1\n      tag_223\n      jump\t// in\n    tag_222:\n        /* \"p2p/BitTorrentRegistry.sol\":5212:5324  require(... */\n      tag_224\n      jumpi\n      mload(0x40)\n      0x08c379a000000000000000000000000000000000000000000000000000000000\n      dup2\n      mstore\n      0x04\n      add\n      tag_225\n      swap1\n      tag_226\n      jump\t// in\n    tag_225:\n      mload(0x40)\n      dup1\n      swap2\n      sub\n      swap1\n      revert\n    tag_224:\n        /* \"p2p/BitTorrentRegistry.sol\":5355:5472  _registerTorrent(... */\n      tag_227\n        /* \"p2p/BitTorrentRegistry.sol\":5381:5389  infoHash */\n      dup8\n        /* \"p2p/BitTorrentRegistry.sol\":5399:5413  fileCommitment */\n      dup8\n        /* \"p2p/BitTorrentRegistry.sol\":5423:5427  size */\n      dup8\n        /* \"p2p/BitTorrentRegistry.sol\":5437:5446  pieceSize */\n      dup8\n        /* \"p2p/BitTorrentRegistry.sol\":5456:5466  piecesRoot */\n      dup8\n        /* \"p2p/BitTorrentRegistry.sol\":5355:5371  _registerTorrent */\n      tag_201\n        /* \"p2p/BitTorrentRegistry.sol\":5355:5472  _registerTorrent(... */\n      jump\t// in\n    tag_227:\n        /* \"@openzeppelin/contracts/utils/ReentrancyGuard.sol\":2542:2562  _nonReentrantAfter() */\n      tag_228\n        /* \"@openzeppelin/contracts/utils/ReentrancyGuard.sol\":2542:2560  _nonReentrantAfter */\n      tag_203\n        /* \"@openzeppelin/contracts/utils/ReentrancyGuard.sol\":2542:2562  _nonReentrantAfter() */\n      jump\t// in\n    tag_228:\n        /* \"p2p/BitTorrentRegistry.sol\":4734:5475  function registerTorrent(... */\n      pop\n      pop\n      pop\n      pop\n      pop\n      pop\n      pop\n      jump\t// out\n        /* \"p2p/BitTorrentRegistry.sol\":1909:1952  mapping(bytes32 => Torrent) public torrents */\n    tag_98:\n      mstore(0x20, 0x03)\n      dup1\n      0x00\n      mstore\n      keccak256(0x00, 0x40)\n      0x00\n      swap2\n      pop\n      swap1\n      pop\n      dup1\n      0x00\n      add\n      sload\n      swap1\n      dup1\n      0x01\n      add\n      sload\n      swap1\n      dup1\n      0x02\n      add\n      sload\n      swap1\n      dup1\n      0x03\n      add\n      sload\n      swap1\n      dup1\n      0x04\n      add\n      sload\n      swap1\n      dup1\n      0x05\n      add\n      sload\n      swap1\n      dup1\n      0x06\n      add\n      0x00\n      swap1\n      sload\n      swap1\n      0x0100\n      exp\n      swap1\n      div\n      0xffffffffffffffffffffffffffffffffffffffff\n      and\n      swap1\n      dup1\n      0x06\n      add\n      0x14\n      swap1\n      sload\n      swap1\n      0x0100\n      exp\n      swap1\n      div\n      0xff\n      and\n      swap1\n      dup1\n      0x06\n      add\n      0x15\n      swap1\n      sload\n      swap1\n      0x0100\n      exp\n      swap1\n      div\n      0xff\n      and\n      swap1\n      dup1\n      0x07\n      add\n      sload\n      swap1\n      dup1\n      0x08\n      add\n      sload\n      swap1\n      pop\n      dup12\n      jump\t// out\n        /* \"p2p/BitTorrentRegistry.sol\":2227:2284  uint256 public constant MAX_PIECE_SIZE = 1024 * 1024 * 32 */\n    tag_102:\n        /* \"p2p/BitTorrentRegistry.sol\":2268:2284  1024 * 1024 * 32 */\n      0x02000000\n        /* \"p2p/BitTorrentRegistry.sol\":2227:2284  uint256 public constant MAX_PIECE_SIZE = 1024 * 1024 * 32 */\n      dup2\n      jump\t// out\n        /* \"@openzeppelin/contracts/access/Ownable.sol\":1638:1723  function owner() public view virtual returns (address) {... */\n    tag_106:\n        /* \"@openzeppelin/contracts/access/Ownable.sol\":1684:1691  address */\n      0x00\n        /* \"@openzeppelin/contracts/access/Ownable.sol\":1710:1716  _owner */\n      dup1\n      0x00\n      swap1\n      sload\n      swap1\n      0x0100\n      exp\n      swap1\n      div\n      0xffffffffffffffffffffffffffffffffffffffff\n      and\n        /* \"@openzeppelin/contracts/access/Ownable.sol\":1703:1716  return _owner */\n      swap1\n      pop\n        /* \"@openzeppelin/contracts/access/Ownable.sol\":1638:1723  function owner() public view virtual returns (address) {... */\n      swap1\n      jump\t// out\n        /* \"p2p/BitTorrentRegistry.sol\":7523:8352  function verifyPiece(... */\n    tag_112:\n        /* \"@openzeppelin/contracts/utils/ReentrancyGuard.sol\":2500:2521  _nonReentrantBefore() */\n      tag_231\n        /* \"@openzeppelin/contracts/utils/ReentrancyGuard.sol\":2500:2519  _nonReentrantBefore */\n      tag_190\n        /* \"@openzeppelin/contracts/utils/ReentrancyGuard.sol\":2500:2521  _nonReentrantBefore() */\n      jump\t// in\n    tag_231:\n        /* \"@openzeppelin/contracts/utils/Pausable.sol\":1474:1493  _requireNotPaused() */\n      tag_233\n        /* \"@openzeppelin/contracts/utils/Pausable.sol\":1474:1491  _requireNotPaused */\n      tag_193\n        /* \"@openzeppelin/contracts/utils/Pausable.sol\":1474:1493  _requireNotPaused() */\n      jump\t// in\n    tag_233:\n        /* \"p2p/BitTorrentRegistry.sol\":7707:7730  Torrent storage torrent */\n      0x00\n        /* \"p2p/BitTorrentRegistry.sol\":7733:7741  torrents */\n      0x03\n        /* \"p2p/BitTorrentRegistry.sol\":7733:7751  torrents[infoHash] */\n      0x00\n        /* \"p2p/BitTorrentRegistry.sol\":7742:7750  infoHash */\n      dup8\n        /* \"p2p/BitTorrentRegistry.sol\":7733:7751  torrents[infoHash] */\n      dup2\n      mstore\n      0x20\n      add\n      swap1\n      dup2\n      mstore\n      0x20\n      add\n      0x00\n      keccak256\n        /* \"p2p/BitTorrentRegistry.sol\":7707:7751  Torrent storage torrent = torrents[infoHash] */\n      swap1\n      pop\n        /* \"p2p/BitTorrentRegistry.sol\":7797:7798  0 */\n      0x00\n        /* \"p2p/BitTorrentRegistry.sol\":7789:7799  bytes32(0) */\n      dup1\n      shl\n        /* \"p2p/BitTorrentRegistry.sol\":7769:7776  torrent */\n      dup2\n        /* \"p2p/BitTorrentRegistry.sol\":7769:7785  torrent.infoHash */\n      0x00\n      add\n      sload\n        /* \"p2p/BitTorrentRegistry.sol\":7769:7799  torrent.infoHash != bytes32(0) */\n      sub\n        /* \"p2p/BitTorrentRegistry.sol\":7761:7821  require(torrent.infoHash != bytes32(0), \"Torrent not found\") */\n      tag_235\n      jumpi\n      mload(0x40)\n      0x08c379a000000000000000000000000000000000000000000000000000000000\n      dup2\n      mstore\n      0x04\n      add\n      tag_236\n      swap1\n      tag_155\n      jump\t// in\n    tag_236:\n      mload(0x40)\n      dup1\n      swap2\n      sub\n      swap1\n      revert\n    tag_235:\n        /* \"p2p/BitTorrentRegistry.sol\":7852:7859  torrent */\n      dup1\n        /* \"p2p/BitTorrentRegistry.sol\":7852:7870  torrent.pieceCount */\n      0x03\n      add\n      sload\n        /* \"p2p/BitTorrentRegistry.sol\":7839:7849  pieceIndex */\n      dup6\n        /* \"p2p/BitTorrentRegistry.sol\":7839:7870  pieceIndex < torrent.pieceCount */\n      lt\n        /* \"p2p/BitTorrentRegistry.sol\":7831:7894  require(pieceIndex < torrent.pieceCount, \"Invalid piece index\") */\n      tag_237\n      jumpi\n      mload(0x40)\n      0x08c379a000000000000000000000000000000000000000000000000000000000\n      dup2\n      mstore\n      0x04\n      add\n      tag_238\n      swap1\n      tag_239\n      jump\t// in\n    tag_238:\n      mload(0x40)\n      dup1\n      swap2\n      sub\n      swap1\n      revert\n    tag_237:\n        /* \"p2p/BitTorrentRegistry.sol\":7956:7964  verifier */\n      0x08\n      0x00\n      swap1\n      sload\n      swap1\n      0x0100\n      exp\n      swap1\n      div\n      0xffffffffffffffffffffffffffffffffffffffff\n      and\n        /* \"p2p/BitTorrentRegistry.sol\":7956:7981  verifier.verifyPieceProof */\n      0xffffffffffffffffffffffffffffffffffffffff\n      and\n      0x6c7c2db9\n        /* \"p2p/BitTorrentRegistry.sol\":7999:8008  pieceHash */\n      dup6\n        /* \"p2p/BitTorrentRegistry.sol\":8026:8033  torrent */\n      dup4\n        /* \"p2p/BitTorrentRegistry.sol\":8026:8044  torrent.piecesRoot */\n      0x05\n      add\n      sload\n        /* \"p2p/BitTorrentRegistry.sol\":8062:8067  proof */\n      dup7\n      dup7\n        /* \"p2p/BitTorrentRegistry.sol\":7956:8081  verifier.verifyPieceProof(... */\n      mload(0x40)\n      dup6\n      0xffffffff\n      and\n      0xe0\n      shl\n      dup2\n      mstore\n      0x04\n      add\n      tag_240\n      swap5\n      swap4\n      swap3\n      swap2\n      swap1\n      tag_241\n      jump\t// in\n    tag_240:\n      0x20\n      mload(0x40)\n      dup1\n      dup4\n      sub\n      dup2\n      dup7\n      gas\n      staticcall\n      iszero\n      dup1\n      iszero\n      tag_243\n      jumpi\n      returndatasize\n      0x00\n      dup1\n      returndatacopy\n      revert(0x00, returndatasize)\n    tag_243:\n      pop\n      pop\n      pop\n      pop\n      mload(0x40)\n      returndatasize\n      not(0x1f)\n      0x1f\n      dup3\n      add\n      and\n      dup3\n      add\n      dup1\n      0x40\n      mstore\n      pop\n      dup2\n      add\n      swap1\n      tag_244\n      swap2\n      swap1\n      tag_223\n      jump\t// in\n    tag_244:\n        /* \"p2p/BitTorrentRegistry.sol\":7935:8126  require(... */\n      tag_245\n      jumpi\n      mload(0x40)\n      0x08c379a000000000000000000000000000000000000000000000000000000000\n      dup2\n      mstore\n      0x04\n      add\n      tag_246\n      swap1\n      tag_247\n      jump\t// in\n    tag_246:\n      mload(0x40)\n      dup1\n      swap2\n      sub\n      swap1\n      revert\n    tag_245:\n        /* \"p2p/BitTorrentRegistry.sol\":8199:8208  pieceHash */\n      dup4\n        /* \"p2p/BitTorrentRegistry.sol\":8165:8172  torrent */\n      dup2\n        /* \"p2p/BitTorrentRegistry.sol\":8165:8184  torrent.pieceHashes */\n      0x0a\n      add\n        /* \"p2p/BitTorrentRegistry.sol\":8165:8196  torrent.pieceHashes[pieceIndex] */\n      0x00\n        /* \"p2p/BitTorrentRegistry.sol\":8185:8195  pieceIndex */\n      dup8\n        /* \"p2p/BitTorrentRegistry.sol\":8165:8196  torrent.pieceHashes[pieceIndex] */\n      dup2\n      mstore\n      0x20\n      add\n      swap1\n      dup2\n      mstore\n      0x20\n      add\n      0x00\n      keccak256\n        /* \"p2p/BitTorrentRegistry.sol\":8165:8208  torrent.pieceHashes[pieceIndex] = pieceHash */\n      dup2\n      swap1\n      sstore\n      pop\n        /* \"p2p/BitTorrentRegistry.sol\":8273:8283  pieceIndex */\n      dup5\n        /* \"p2p/BitTorrentRegistry.sol\":8251:8259  infoHash */\n      dup7\n        /* \"p2p/BitTorrentRegistry.sol\":8224:8345  PieceVerified(... */\n      0x92269041802411ca17c4ab8a7d4c13c4730a8fb32ede9cbdcd80ed2090d55283\n        /* \"p2p/BitTorrentRegistry.sol\":8297:8306  pieceHash */\n      dup7\n        /* \"p2p/BitTorrentRegistry.sol\":8320:8335  block.timestamp */\n      timestamp\n        /* \"p2p/BitTorrentRegistry.sol\":8224:8345  PieceVerified(... */\n      mload(0x40)\n      tag_248\n      swap3\n      swap2\n      swap1\n      tag_249\n      jump\t// in\n    tag_248:\n      mload(0x40)\n      dup1\n      swap2\n      sub\n      swap1\n      log3\n        /* \"p2p/BitTorrentRegistry.sol\":7697:8352  {... */\n      pop\n        /* \"@openzeppelin/contracts/utils/ReentrancyGuard.sol\":2542:2562  _nonReentrantAfter() */\n      tag_250\n        /* \"@openzeppelin/contracts/utils/ReentrancyGuard.sol\":2542:2560  _nonReentrantAfter */\n      tag_203\n        /* \"@openzeppelin/contracts/utils/ReentrancyGuard.sol\":2542:2562  _nonReentrantAfter() */\n      jump\t// in\n    tag_250:\n        /* \"p2p/BitTorrentRegistry.sol\":7523:8352  function verifyPiece(... */\n      pop\n      pop\n      pop\n      pop\n      pop\n      jump\t// out\n        /* \"p2p/BitTorrentRegistry.sol\":2090:2141  mapping(bytes32 => uint256) public torrentPeerCount */\n    tag_115:\n      mstore(0x20, 0x06)\n      dup1\n      0x00\n      mstore\n      keccak256(0x00, 0x40)\n      0x00\n      swap2\n      pop\n      swap1\n      pop\n      sload\n      dup2\n      jump\t// out\n        /* \"p2p/BitTorrentRegistry.sol\":9638:9940  function removeTorrent(bytes32 torrentHash) external override {... */\n    tag_119:\n        /* \"p2p/BitTorrentRegistry.sol\":9710:9733  Torrent storage torrent */\n      0x00\n        /* \"p2p/BitTorrentRegistry.sol\":9736:9744  torrents */\n      0x03\n        /* \"p2p/BitTorrentRegistry.sol\":9736:9757  torrents[torrentHash] */\n      0x00\n        /* \"p2p/BitTorrentRegistry.sol\":9745:9756  torrentHash */\n      dup4\n        /* \"p2p/BitTorrentRegistry.sol\":9736:9757  torrents[torrentHash] */\n      dup2\n      mstore\n      0x20\n      add\n      swap1\n      dup2\n      mstore\n      0x20\n      add\n      0x00\n      keccak256\n        /* \"p2p/BitTorrentRegistry.sol\":9710:9757  Torrent storage torrent = torrents[torrentHash] */\n      swap1\n      pop\n        /* \"p2p/BitTorrentRegistry.sol\":9803:9804  0 */\n      0x00\n        /* \"p2p/BitTorrentRegistry.sol\":9795:9805  bytes32(0) */\n      dup1\n      shl\n        /* \"p2p/BitTorrentRegistry.sol\":9775:9782  torrent */\n      dup2\n        /* \"p2p/BitTorrentRegistry.sol\":9775:9791  torrent.infoHash */\n      0x00\n      add\n      sload\n        /* \"p2p/BitTorrentRegistry.sol\":9775:9805  torrent.infoHash != bytes32(0) */\n      sub\n        /* \"p2p/BitTorrentRegistry.sol\":9767:9827  require(torrent.infoHash != bytes32(0), \"Torrent not found\") */\n      tag_252\n      jumpi\n      mload(0x40)\n      0x08c379a000000000000000000000000000000000000000000000000000000000\n      dup2\n      mstore\n      0x04\n      add\n      tag_253\n      swap1\n      tag_155\n      jump\t// in\n    tag_253:\n      mload(0x40)\n      dup1\n      swap2\n      sub\n      swap1\n      revert\n    tag_252:\n        /* \"p2p/BitTorrentRegistry.sol\":9862:9872  msg.sender */\n      caller\n        /* \"p2p/BitTorrentRegistry.sol\":9845:9872  torrent.owner == msg.sender */\n      0xffffffffffffffffffffffffffffffffffffffff\n      and\n        /* \"p2p/BitTorrentRegistry.sol\":9845:9852  torrent */\n      dup2\n        /* \"p2p/BitTorrentRegistry.sol\":9845:9858  torrent.owner */\n      0x06\n      add\n      0x00\n      swap1\n      sload\n      swap1\n      0x0100\n      exp\n      swap1\n      div\n      0xffffffffffffffffffffffffffffffffffffffff\n      and\n        /* \"p2p/BitTorrentRegistry.sol\":9845:9872  torrent.owner == msg.sender */\n      0xffffffffffffffffffffffffffffffffffffffff\n      and\n      eq\n        /* \"p2p/BitTorrentRegistry.sol\":9837:9894  require(torrent.owner == msg.sender, \"Not torrent owner\") */\n      tag_254\n      jumpi\n      mload(0x40)\n      0x08c379a000000000000000000000000000000000000000000000000000000000\n      dup2\n      mstore\n      0x04\n      add\n      tag_255\n      swap1\n      tag_256\n      jump\t// in\n    tag_255:\n      mload(0x40)\n      dup1\n      swap2\n      sub\n      swap1\n      revert\n    tag_254:\n        /* \"p2p/BitTorrentRegistry.sol\":9912:9920  torrents */\n      0x03\n        /* \"p2p/BitTorrentRegistry.sol\":9912:9933  torrents[torrentHash] */\n      0x00\n        /* \"p2p/BitTorrentRegistry.sol\":9921:9932  torrentHash */\n      dup4\n        /* \"p2p/BitTorrentRegistry.sol\":9912:9933  torrents[torrentHash] */\n      dup2\n      mstore\n      0x20\n      add\n      swap1\n      dup2\n      mstore\n      0x20\n      add\n      0x00\n      keccak256\n      0x00\n        /* \"p2p/BitTorrentRegistry.sol\":9905:9933  delete torrents[torrentHash] */\n      dup1\n      dup3\n      add\n      0x00\n      swap1\n      sstore\n      0x01\n      dup3\n      add\n      0x00\n      swap1\n      sstore\n      0x02\n      dup3\n      add\n      0x00\n      swap1\n      sstore\n      0x03\n      dup3\n      add\n      0x00\n      swap1\n      sstore\n      0x04\n      dup3\n      add\n      0x00\n      swap1\n      sstore\n      0x05\n      dup3\n      add\n      0x00\n      swap1\n      sstore\n      0x06\n      dup3\n      add\n      exp(0x0100, 0x00)\n      dup2\n      sload\n      swap1\n      0xffffffffffffffffffffffffffffffffffffffff\n      mul\n      not\n      and\n      swap1\n      sstore\n      0x06\n      dup3\n      add\n      exp(0x0100, 0x14)\n      dup2\n      sload\n      swap1\n      0xff\n      mul\n      not\n      and\n      swap1\n      sstore\n      0x06\n      dup3\n      add\n      exp(0x0100, 0x15)\n      dup2\n      sload\n      swap1\n      0xff\n      mul\n      not\n      and\n      swap1\n      sstore\n      0x07\n      dup3\n      add\n      0x00\n      swap1\n      sstore\n      0x08\n      dup3\n      add\n      0x00\n      swap1\n      sstore\n      pop\n      pop\n        /* \"p2p/BitTorrentRegistry.sol\":9700:9940  {... */\n      pop\n        /* \"p2p/BitTorrentRegistry.sol\":9638:9940  function removeTorrent(bytes32 torrentHash) external override {... */\n      pop\n      jump\t// out\n        /* \"p2p/BitTorrentRegistry.sol\":6950:7308  function leaveSwarm(bytes32 torrentHash) external override {... */\n    tag_122:\n        /* \"p2p/BitTorrentRegistry.sol\":7019:7042  Torrent storage torrent */\n      0x00\n        /* \"p2p/BitTorrentRegistry.sol\":7045:7053  torrents */\n      0x03\n        /* \"p2p/BitTorrentRegistry.sol\":7045:7066  torrents[torrentHash] */\n      0x00\n        /* \"p2p/BitTorrentRegistry.sol\":7054:7065  torrentHash */\n      dup4\n        /* \"p2p/BitTorrentRegistry.sol\":7045:7066  torrents[torrentHash] */\n      dup2\n      mstore\n      0x20\n      add\n      swap1\n      dup2\n      mstore\n      0x20\n      add\n      0x00\n      keccak256\n        /* \"p2p/BitTorrentRegistry.sol\":7019:7066  Torrent storage torrent = torrents[torrentHash] */\n      swap1\n      pop\n        /* \"p2p/BitTorrentRegistry.sol\":7112:7113  0 */\n      0x00\n        /* \"p2p/BitTorrentRegistry.sol\":7104:7114  bytes32(0) */\n      dup1\n      shl\n        /* \"p2p/BitTorrentRegistry.sol\":7084:7091  torrent */\n      dup2\n        /* \"p2p/BitTorrentRegistry.sol\":7084:7100  torrent.infoHash */\n      0x00\n      add\n      sload\n        /* \"p2p/BitTorrentRegistry.sol\":7084:7114  torrent.infoHash != bytes32(0) */\n      sub\n        /* \"p2p/BitTorrentRegistry.sol\":7076:7136  require(torrent.infoHash != bytes32(0), \"Torrent not found\") */\n      tag_258\n      jumpi\n      mload(0x40)\n      0x08c379a000000000000000000000000000000000000000000000000000000000\n      dup2\n      mstore\n      0x04\n      add\n      tag_259\n      swap1\n      tag_155\n      jump\t// in\n    tag_259:\n      mload(0x40)\n      dup1\n      swap2\n      sub\n      swap1\n      revert\n    tag_258:\n        /* \"p2p/BitTorrentRegistry.sol\":7154:7161  torrent */\n      dup1\n        /* \"p2p/BitTorrentRegistry.sol\":7154:7177  torrent.authorizedPeers */\n      0x09\n      add\n        /* \"p2p/BitTorrentRegistry.sol\":7154:7189  torrent.authorizedPeers[msg.sender] */\n      0x00\n        /* \"p2p/BitTorrentRegistry.sol\":7178:7188  msg.sender */\n      caller\n        /* \"p2p/BitTorrentRegistry.sol\":7154:7189  torrent.authorizedPeers[msg.sender] */\n      0xffffffffffffffffffffffffffffffffffffffff\n      and\n      0xffffffffffffffffffffffffffffffffffffffff\n      and\n      dup2\n      mstore\n      0x20\n      add\n      swap1\n      dup2\n      mstore\n      0x20\n      add\n      0x00\n      keccak256\n      0x00\n      swap1\n      sload\n      swap1\n      0x0100\n      exp\n      swap1\n      div\n      0xff\n      and\n        /* \"p2p/BitTorrentRegistry.sol\":7146:7206  require(torrent.authorizedPeers[msg.sender], \"Not in swarm\") */\n      tag_260\n      jumpi\n      mload(0x40)\n      0x08c379a000000000000000000000000000000000000000000000000000000000\n      dup2\n      mstore\n      0x04\n      add\n      tag_261\n      swap1\n      tag_262\n      jump\t// in\n    tag_261:\n      mload(0x40)\n      dup1\n      swap2\n      sub\n      swap1\n      revert\n    tag_260:\n        /* \"p2p/BitTorrentRegistry.sol\":7255:7260  false */\n      0x00\n        /* \"p2p/BitTorrentRegistry.sol\":7217:7224  torrent */\n      dup2\n        /* \"p2p/BitTorrentRegistry.sol\":7217:7240  torrent.authorizedPeers */\n      0x09\n      add\n        /* \"p2p/BitTorrentRegistry.sol\":7217:7252  torrent.authorizedPeers[msg.sender] */\n      0x00\n        /* \"p2p/BitTorrentRegistry.sol\":7241:7251  msg.sender */\n      caller\n        /* \"p2p/BitTorrentRegistry.sol\":7217:7252  torrent.authorizedPeers[msg.sender] */\n      0xffffffffffffffffffffffffffffffffffffffff\n      and\n      0xffffffffffffffffffffffffffffffffffffffff\n      and\n      dup2\n      mstore\n      0x20\n      add\n      swap1\n      dup2\n      mstore\n      0x20\n      add\n      0x00\n      keccak256\n      0x00\n        /* \"p2p/BitTorrentRegistry.sol\":7217:7260  torrent.authorizedPeers[msg.sender] = false */\n      0x0100\n      exp\n      dup2\n      sload\n      dup2\n      0xff\n      mul\n      not\n      and\n      swap1\n      dup4\n      iszero\n      iszero\n      mul\n      or\n      swap1\n      sstore\n      pop\n        /* \"p2p/BitTorrentRegistry.sol\":7270:7286  torrentPeerCount */\n      0x06\n        /* \"p2p/BitTorrentRegistry.sol\":7270:7299  torrentPeerCount[torrentHash] */\n      0x00\n        /* \"p2p/BitTorrentRegistry.sol\":7287:7298  torrentHash */\n      dup4\n        /* \"p2p/BitTorrentRegistry.sol\":7270:7299  torrentPeerCount[torrentHash] */\n      dup2\n      mstore\n      0x20\n      add\n      swap1\n      dup2\n      mstore\n      0x20\n      add\n      0x00\n      keccak256\n      0x00\n        /* \"p2p/BitTorrentRegistry.sol\":7270:7301  torrentPeerCount[torrentHash]-- */\n      dup2\n      sload\n      dup1\n      swap3\n      swap2\n      swap1\n      tag_263\n      swap1\n      tag_264\n      jump\t// in\n    tag_263:\n      swap2\n      swap1\n      pop\n      sstore\n      pop\n        /* \"p2p/BitTorrentRegistry.sol\":7009:7308  {... */\n      pop\n        /* \"p2p/BitTorrentRegistry.sol\":6950:7308  function leaveSwarm(bytes32 torrentHash) external override {... */\n      pop\n      jump\t// out\n        /* \"p2p/BitTorrentRegistry.sol\":2408:2456  uint256 public constant REPUTATION_DECREASE = 20 */\n    tag_124:\n        /* \"p2p/BitTorrentRegistry.sol\":2454:2456  20 */\n      0x14\n        /* \"p2p/BitTorrentRegistry.sol\":2408:2456  uint256 public constant REPUTATION_DECREASE = 20 */\n      dup2\n      jump\t// out\n        /* \"p2p/BitTorrentRegistry.sol\":2001:2052  mapping(bytes32 => bytes32) public peerAnonymousIds */\n    tag_128:\n      mstore(0x20, 0x05)\n      dup1\n      0x00\n      mstore\n      keccak256(0x00, 0x40)\n      0x00\n      swap2\n      pop\n      swap1\n      pop\n      sload\n      dup2\n      jump\t// out\n        /* \"p2p/BitTorrentRegistry.sol\":2298:2348  uint256 public constant MIN_REPUTATION_SCORE = 100 */\n    tag_131:\n        /* \"p2p/BitTorrentRegistry.sol\":2345:2348  100 */\n      0x64\n        /* \"p2p/BitTorrentRegistry.sol\":2298:2348  uint256 public constant MIN_REPUTATION_SCORE = 100 */\n      dup2\n      jump\t// out\n        /* \"p2p/BitTorrentRegistry.sol\":8449:8946  function getTorrentMetadata(... */\n    tag_135:\n        /* \"p2p/BitTorrentRegistry.sol\":8544:8556  bytes memory */\n      0x60\n        /* \"p2p/BitTorrentRegistry.sol\":8568:8591  Torrent storage torrent */\n      0x00\n        /* \"p2p/BitTorrentRegistry.sol\":8594:8602  torrents */\n      0x03\n        /* \"p2p/BitTorrentRegistry.sol\":8594:8615  torrents[torrentHash] */\n      0x00\n        /* \"p2p/BitTorrentRegistry.sol\":8603:8614  torrentHash */\n      dup5\n        /* \"p2p/BitTorrentRegistry.sol\":8594:8615  torrents[torrentHash] */\n      dup2\n      mstore\n      0x20\n      add\n      swap1\n      dup2\n      mstore\n      0x20\n      add\n      0x00\n      keccak256\n        /* \"p2p/BitTorrentRegistry.sol\":8568:8615  Torrent storage torrent = torrents[torrentHash] */\n      swap1\n      pop\n        /* \"p2p/BitTorrentRegistry.sol\":8661:8662  0 */\n      0x00\n        /* \"p2p/BitTorrentRegistry.sol\":8653:8663  bytes32(0) */\n      dup1\n      shl\n        /* \"p2p/BitTorrentRegistry.sol\":8633:8640  torrent */\n      dup2\n        /* \"p2p/BitTorrentRegistry.sol\":8633:8649  torrent.infoHash */\n      0x00\n      add\n      sload\n        /* \"p2p/BitTorrentRegistry.sol\":8633:8663  torrent.infoHash != bytes32(0) */\n      sub\n        /* \"p2p/BitTorrentRegistry.sol\":8625:8685  require(torrent.infoHash != bytes32(0), \"Torrent not found\") */\n      tag_266\n      jumpi\n      mload(0x40)\n      0x08c379a000000000000000000000000000000000000000000000000000000000\n      dup2\n      mstore\n      0x04\n      add\n      tag_267\n      swap1\n      tag_155\n      jump\t// in\n    tag_267:\n      mload(0x40)\n      dup1\n      swap2\n      sub\n      swap1\n      revert\n    tag_266:\n        /* \"p2p/BitTorrentRegistry.sol\":8727:8734  torrent */\n      dup1\n        /* \"p2p/BitTorrentRegistry.sol\":8727:8749  torrent.fileCommitment */\n      0x01\n      add\n      sload\n        /* \"p2p/BitTorrentRegistry.sol\":8763:8770  torrent */\n      dup2\n        /* \"p2p/BitTorrentRegistry.sol\":8763:8775  torrent.size */\n      0x02\n      add\n      sload\n        /* \"p2p/BitTorrentRegistry.sol\":8789:8796  torrent */\n      dup3\n        /* \"p2p/BitTorrentRegistry.sol\":8789:8806  torrent.pieceSize */\n      0x04\n      add\n      sload\n        /* \"p2p/BitTorrentRegistry.sol\":8820:8827  torrent */\n      dup4\n        /* \"p2p/BitTorrentRegistry.sol\":8820:8838  torrent.piecesRoot */\n      0x05\n      add\n      sload\n        /* \"p2p/BitTorrentRegistry.sol\":8852:8859  torrent */\n      dup5\n        /* \"p2p/BitTorrentRegistry.sol\":8852:8865  torrent.owner */\n      0x06\n      add\n      0x00\n      swap1\n      sload\n      swap1\n      0x0100\n      exp\n      swap1\n      div\n      0xffffffffffffffffffffffffffffffffffffffff\n      and\n        /* \"p2p/BitTorrentRegistry.sol\":8879:8886  torrent */\n      dup6\n        /* \"p2p/BitTorrentRegistry.sol\":8879:8896  torrent.isPrivate */\n      0x06\n      add\n      0x14\n      swap1\n      sload\n      swap1\n      0x0100\n      exp\n      swap1\n      div\n      0xff\n      and\n        /* \"p2p/BitTorrentRegistry.sol\":8910:8917  torrent */\n      dup7\n        /* \"p2p/BitTorrentRegistry.sol\":8910:8929  torrent.isEncrypted */\n      0x06\n      add\n      0x15\n      swap1\n      sload\n      swap1\n      0x0100\n      exp\n      swap1\n      div\n      0xff\n      and\n        /* \"p2p/BitTorrentRegistry.sol\":8703:8939  abi.encode(... */\n      add(0x20, mload(0x40))\n      tag_268\n      swap8\n      swap7\n      swap6\n      swap5\n      swap4\n      swap3\n      swap2\n      swap1\n      tag_269\n      jump\t// in\n    tag_268:\n      mload(0x40)\n      0x20\n      dup2\n      dup4\n      sub\n      sub\n      dup2\n      mstore\n      swap1\n      0x40\n      mstore\n        /* \"p2p/BitTorrentRegistry.sol\":8696:8939  return abi.encode(... */\n      swap2\n      pop\n      pop\n        /* \"p2p/BitTorrentRegistry.sol\":8449:8946  function getTorrentMetadata(... */\n      swap2\n      swap1\n      pop\n      jump\t// out\n        /* \"p2p/BitTorrentRegistry.sol\":2354:2402  uint256 public constant REPUTATION_INCREASE = 10 */\n    tag_139:\n        /* \"p2p/BitTorrentRegistry.sol\":2400:2402  10 */\n      0x0a\n        /* \"p2p/BitTorrentRegistry.sol\":2354:2402  uint256 public constant REPUTATION_INCREASE = 10 */\n      dup2\n      jump\t// out\n        /* \"p2p/BitTorrentRegistry.sol\":11132:11645  function getPeerStats(... */\n    tag_143:\n        /* \"p2p/BitTorrentRegistry.sol\":11214:11228  bytes32 peerId */\n      0x00\n        /* \"p2p/BitTorrentRegistry.sol\":11238:11256  uint256 reputation */\n      dup1\n        /* \"p2p/BitTorrentRegistry.sol\":11266:11285  uint256 uploadCount */\n      0x00\n        /* \"p2p/BitTorrentRegistry.sol\":11295:11316  uint256 downloadCount */\n      dup1\n        /* \"p2p/BitTorrentRegistry.sol\":11326:11342  uint256 lastSeen */\n      0x00\n        /* \"p2p/BitTorrentRegistry.sol\":11352:11365  bool isActive */\n      dup1\n        /* \"p2p/BitTorrentRegistry.sol\":11382:11403  Peer storage peerData */\n      0x00\n        /* \"p2p/BitTorrentRegistry.sol\":11406:11411  peers */\n      0x04\n        /* \"p2p/BitTorrentRegistry.sol\":11406:11417  peers[peer] */\n      0x00\n        /* \"p2p/BitTorrentRegistry.sol\":11412:11416  peer */\n      dup10\n        /* \"p2p/BitTorrentRegistry.sol\":11406:11417  peers[peer] */\n      0xffffffffffffffffffffffffffffffffffffffff\n      and\n      0xffffffffffffffffffffffffffffffffffffffff\n      and\n      dup2\n      mstore\n      0x20\n      add\n      swap1\n      dup2\n      mstore\n      0x20\n      add\n      0x00\n      keccak256\n        /* \"p2p/BitTorrentRegistry.sol\":11382:11417  Peer storage peerData = peers[peer] */\n      swap1\n      pop\n        /* \"p2p/BitTorrentRegistry.sol\":11448:11456  peerData */\n      dup1\n        /* \"p2p/BitTorrentRegistry.sol\":11448:11463  peerData.peerId */\n      0x00\n      add\n      sload\n        /* \"p2p/BitTorrentRegistry.sol\":11477:11485  peerData */\n      dup2\n        /* \"p2p/BitTorrentRegistry.sol\":11477:11496  peerData.reputation */\n      0x01\n      add\n      sload\n        /* \"p2p/BitTorrentRegistry.sol\":11510:11518  peerData */\n      dup3\n        /* \"p2p/BitTorrentRegistry.sol\":11510:11530  peerData.uploadCount */\n      0x02\n      add\n      sload\n        /* \"p2p/BitTorrentRegistry.sol\":11544:11552  peerData */\n      dup4\n        /* \"p2p/BitTorrentRegistry.sol\":11544:11566  peerData.downloadCount */\n      0x03\n      add\n      sload\n        /* \"p2p/BitTorrentRegistry.sol\":11580:11588  peerData */\n      dup5\n        /* \"p2p/BitTorrentRegistry.sol\":11580:11597  peerData.lastSeen */\n      0x04\n      add\n      sload\n        /* \"p2p/BitTorrentRegistry.sol\":11611:11619  peerData */\n      dup6\n        /* \"p2p/BitTorrentRegistry.sol\":11611:11628  peerData.isActive */\n      0x05\n      add\n      0x00\n      swap1\n      sload\n      swap1\n      0x0100\n      exp\n      swap1\n      div\n      0xff\n      and\n        /* \"p2p/BitTorrentRegistry.sol\":11427:11638  return (... */\n      swap7\n      pop\n      swap7\n      pop\n      swap7\n      pop\n      swap7\n      pop\n      swap7\n      pop\n      swap7\n      pop\n      pop\n        /* \"p2p/BitTorrentRegistry.sol\":11132:11645  function getPeerStats(... */\n      swap2\n      swap4\n      swap6\n      pop\n      swap2\n      swap4\n      swap6\n      jump\t// out\n        /* \"@openzeppelin/contracts/access/Ownable.sol\":2543:2758  function transferOwnership(address newOwner) public virtual onlyOwner {... */\n    tag_147:\n        /* \"@openzeppelin/contracts/access/Ownable.sol\":1531:1544  _checkOwner() */\n      tag_272\n        /* \"@openzeppelin/contracts/access/Ownable.sol\":1531:1542  _checkOwner */\n      tag_165\n        /* \"@openzeppelin/contracts/access/Ownable.sol\":1531:1544  _checkOwner() */\n      jump\t// in\n    tag_272:\n        /* \"@openzeppelin/contracts/access/Ownable.sol\":2647:2648  0 */\n      0x00\n        /* \"@openzeppelin/contracts/access/Ownable.sol\":2627:2649  newOwner == address(0) */\n      0xffffffffffffffffffffffffffffffffffffffff\n      and\n        /* \"@openzeppelin/contracts/access/Ownable.sol\":2627:2635  newOwner */\n      dup2\n        /* \"@openzeppelin/contracts/access/Ownable.sol\":2627:2649  newOwner == address(0) */\n      0xffffffffffffffffffffffffffffffffffffffff\n      and\n      sub\n        /* \"@openzeppelin/contracts/access/Ownable.sol\":2623:2714  if (newOwner == address(0)) {... */\n      tag_274\n      jumpi\n        /* \"@openzeppelin/contracts/access/Ownable.sol\":2700:2701  0 */\n      0x00\n        /* \"@openzeppelin/contracts/access/Ownable.sol\":2672:2703  OwnableInvalidOwner(address(0)) */\n      mload(0x40)\n      0x1e4fbdf700000000000000000000000000000000000000000000000000000000\n      dup2\n      mstore\n      0x04\n      add\n      tag_275\n      swap2\n      swap1\n      tag_108\n      jump\t// in\n    tag_275:\n      mload(0x40)\n      dup1\n      swap2\n      sub\n      swap1\n      revert\n        /* \"@openzeppelin/contracts/access/Ownable.sol\":2623:2714  if (newOwner == address(0)) {... */\n    tag_274:\n        /* \"@openzeppelin/contracts/access/Ownable.sol\":2723:2751  _transferOwnership(newOwner) */\n      tag_276\n        /* \"@openzeppelin/contracts/access/Ownable.sol\":2742:2750  newOwner */\n      dup2\n        /* \"@openzeppelin/contracts/access/Ownable.sol\":2723:2741  _transferOwnership */\n      tag_182\n        /* \"@openzeppelin/contracts/access/Ownable.sol\":2723:2751  _transferOwnership(newOwner) */\n      jump\t// in\n    tag_276:\n        /* \"@openzeppelin/contracts/access/Ownable.sol\":2543:2758  function transferOwnership(address newOwner) public virtual onlyOwner {... */\n      pop\n      jump\t// out\n        /* \"p2p/BitTorrentRegistry.sol\":5552:6383  function registerPeer(bytes calldata proof) external nonReentrant whenNotPaused {... */\n    tag_151:\n        /* \"@openzeppelin/contracts/utils/ReentrancyGuard.sol\":2500:2521  _nonReentrantBefore() */\n      tag_278\n        /* \"@openzeppelin/contracts/utils/ReentrancyGuard.sol\":2500:2519  _nonReentrantBefore */\n      tag_190\n        /* \"@openzeppelin/contracts/utils/ReentrancyGuard.sol\":2500:2521  _nonReentrantBefore() */\n      jump\t// in\n    tag_278:\n        /* \"@openzeppelin/contracts/utils/Pausable.sol\":1474:1493  _requireNotPaused() */\n      tag_280\n        /* \"@openzeppelin/contracts/utils/Pausable.sol\":1474:1491  _requireNotPaused */\n      tag_193\n        /* \"@openzeppelin/contracts/utils/Pausable.sol\":1474:1493  _requireNotPaused() */\n      jump\t// in\n    tag_280:\n        /* \"p2p/BitTorrentRegistry.sol\":5682:5683  0 */\n      0x00\n        /* \"p2p/BitTorrentRegistry.sol\":5674:5684  bytes32(0) */\n      dup1\n      shl\n        /* \"p2p/BitTorrentRegistry.sol\":5646:5651  peers */\n      0x04\n        /* \"p2p/BitTorrentRegistry.sol\":5646:5663  peers[msg.sender] */\n      0x00\n        /* \"p2p/BitTorrentRegistry.sol\":5652:5662  msg.sender */\n      caller\n        /* \"p2p/BitTorrentRegistry.sol\":5646:5663  peers[msg.sender] */\n      0xffffffffffffffffffffffffffffffffffffffff\n      and\n      0xffffffffffffffffffffffffffffffffffffffff\n      and\n      dup2\n      mstore\n      0x20\n      add\n      swap1\n      dup2\n      mstore\n      0x20\n      add\n      0x00\n      keccak256\n        /* \"p2p/BitTorrentRegistry.sol\":5646:5670  peers[msg.sender].peerId */\n      0x00\n      add\n      sload\n        /* \"p2p/BitTorrentRegistry.sol\":5646:5684  peers[msg.sender].peerId == bytes32(0) */\n      eq\n        /* \"p2p/BitTorrentRegistry.sol\":5638:5700  require(peers[msg.sender].peerId == bytes32(0), \"Peer exists\") */\n      tag_282\n      jumpi\n      mload(0x40)\n      0x08c379a000000000000000000000000000000000000000000000000000000000\n      dup2\n      mstore\n      0x04\n      add\n      tag_283\n      swap1\n      tag_284\n      jump\t// in\n    tag_283:\n      mload(0x40)\n      dup1\n      swap2\n      sub\n      swap1\n      revert\n    tag_282:\n        /* \"p2p/BitTorrentRegistry.sol\":5736:5755  bytes32 anonymousId */\n      0x00\n        /* \"p2p/BitTorrentRegistry.sol\":5758:5797  _generateAnonymousId(msg.sender, proof) */\n      tag_285\n        /* \"p2p/BitTorrentRegistry.sol\":5779:5789  msg.sender */\n      caller\n        /* \"p2p/BitTorrentRegistry.sol\":5791:5796  proof */\n      dup5\n      dup5\n        /* \"p2p/BitTorrentRegistry.sol\":5758:5778  _generateAnonymousId */\n      tag_286\n        /* \"p2p/BitTorrentRegistry.sol\":5758:5797  _generateAnonymousId(msg.sender, proof) */\n      jump\t// in\n    tag_285:\n        /* \"p2p/BitTorrentRegistry.sol\":5736:5797  bytes32 anonymousId = _generateAnonymousId(msg.sender, proof) */\n      swap1\n      pop\n        /* \"p2p/BitTorrentRegistry.sol\":5901:5911  msg.sender */\n      caller\n        /* \"p2p/BitTorrentRegistry.sol\":5913:5928  block.timestamp */\n      timestamp\n        /* \"p2p/BitTorrentRegistry.sol\":5884:5929  abi.encodePacked(msg.sender, block.timestamp) */\n      add(0x20, mload(0x40))\n      tag_287\n      swap3\n      swap2\n      swap1\n      tag_288\n      jump\t// in\n    tag_287:\n      mload(0x40)\n      0x20\n      dup2\n      dup4\n      sub\n      sub\n      dup2\n      mstore\n      swap1\n      0x40\n      mstore\n        /* \"p2p/BitTorrentRegistry.sol\":5874:5930  keccak256(abi.encodePacked(msg.sender, block.timestamp)) */\n      dup1\n      mload\n      swap1\n      0x20\n      add\n      keccak256\n        /* \"p2p/BitTorrentRegistry.sol\":5847:5852  peers */\n      0x04\n        /* \"p2p/BitTorrentRegistry.sol\":5847:5864  peers[msg.sender] */\n      0x00\n        /* \"p2p/BitTorrentRegistry.sol\":5853:5863  msg.sender */\n      caller\n        /* \"p2p/BitTorrentRegistry.sol\":5847:5864  peers[msg.sender] */\n      0xffffffffffffffffffffffffffffffffffffffff\n      and\n      0xffffffffffffffffffffffffffffffffffffffff\n      and\n      dup2\n      mstore\n      0x20\n      add\n      swap1\n      dup2\n      mstore\n      0x20\n      add\n      0x00\n      keccak256\n        /* \"p2p/BitTorrentRegistry.sol\":5847:5871  peers[msg.sender].peerId */\n      0x00\n      add\n        /* \"p2p/BitTorrentRegistry.sol\":5847:5930  peers[msg.sender].peerId = keccak256(abi.encodePacked(msg.sender, block.timestamp)) */\n      dup2\n      swap1\n      sstore\n      pop\n        /* \"p2p/BitTorrentRegistry.sol\":2345:2348  100 */\n      0x64\n        /* \"p2p/BitTorrentRegistry.sol\":5936:5941  peers */\n      0x04\n        /* \"p2p/BitTorrentRegistry.sol\":5936:5953  peers[msg.sender] */\n      0x00\n        /* \"p2p/BitTorrentRegistry.sol\":5942:5952  msg.sender */\n      caller\n        /* \"p2p/BitTorrentRegistry.sol\":5936:5953  peers[msg.sender] */\n      0xffffffffffffffffffffffffffffffffffffffff\n      and\n      0xffffffffffffffffffffffffffffffffffffffff\n      and\n      dup2\n      mstore\n      0x20\n      add\n      swap1\n      dup2\n      mstore\n      0x20\n      add\n      0x00\n      keccak256\n        /* \"p2p/BitTorrentRegistry.sol\":5936:5964  peers[msg.sender].reputation */\n      0x01\n      add\n        /* \"p2p/BitTorrentRegistry.sol\":5936:5987  peers[msg.sender].reputation = MIN_REPUTATION_SCORE */\n      dup2\n      swap1\n      sstore\n      pop\n        /* \"p2p/BitTorrentRegistry.sol\":6025:6026  0 */\n      0x00\n        /* \"p2p/BitTorrentRegistry.sol\":5993:5998  peers */\n      0x04\n        /* \"p2p/BitTorrentRegistry.sol\":5993:6010  peers[msg.sender] */\n      0x00\n        /* \"p2p/BitTorrentRegistry.sol\":5999:6009  msg.sender */\n      caller\n        /* \"p2p/BitTorrentRegistry.sol\":5993:6010  peers[msg.sender] */\n      0xffffffffffffffffffffffffffffffffffffffff\n      and\n      0xffffffffffffffffffffffffffffffffffffffff\n      and\n      dup2\n      mstore\n      0x20\n      add\n      swap1\n      dup2\n      mstore\n      0x20\n      add\n      0x00\n      keccak256\n        /* \"p2p/BitTorrentRegistry.sol\":5993:6022  peers[msg.sender].uploadCount */\n      0x02\n      add\n        /* \"p2p/BitTorrentRegistry.sol\":5993:6026  peers[msg.sender].uploadCount = 0 */\n      dup2\n      swap1\n      sstore\n      pop\n        /* \"p2p/BitTorrentRegistry.sol\":6066:6067  0 */\n      0x00\n        /* \"p2p/BitTorrentRegistry.sol\":6032:6037  peers */\n      0x04\n        /* \"p2p/BitTorrentRegistry.sol\":6032:6049  peers[msg.sender] */\n      0x00\n        /* \"p2p/BitTorrentRegistry.sol\":6038:6048  msg.sender */\n      caller\n        /* \"p2p/BitTorrentRegistry.sol\":6032:6049  peers[msg.sender] */\n      0xffffffffffffffffffffffffffffffffffffffff\n      and\n      0xffffffffffffffffffffffffffffffffffffffff\n      and\n      dup2\n      mstore\n      0x20\n      add\n      swap1\n      dup2\n      mstore\n      0x20\n      add\n      0x00\n      keccak256\n        /* \"p2p/BitTorrentRegistry.sol\":6032:6063  peers[msg.sender].downloadCount */\n      0x03\n      add\n        /* \"p2p/BitTorrentRegistry.sol\":6032:6067  peers[msg.sender].downloadCount = 0 */\n      dup2\n      swap1\n      sstore\n      pop\n        /* \"p2p/BitTorrentRegistry.sol\":6102:6117  block.timestamp */\n      timestamp\n        /* \"p2p/BitTorrentRegistry.sol\":6073:6078  peers */\n      0x04\n        /* \"p2p/BitTorrentRegistry.sol\":6073:6090  peers[msg.sender] */\n      0x00\n        /* \"p2p/BitTorrentRegistry.sol\":6079:6089  msg.sender */\n      caller\n        /* \"p2p/BitTorrentRegistry.sol\":6073:6090  peers[msg.sender] */\n      0xffffffffffffffffffffffffffffffffffffffff\n      and\n      0xffffffffffffffffffffffffffffffffffffffff\n      and\n      dup2\n      mstore\n      0x20\n      add\n      swap1\n      dup2\n      mstore\n      0x20\n      add\n      0x00\n      keccak256\n        /* \"p2p/BitTorrentRegistry.sol\":6073:6099  peers[msg.sender].lastSeen */\n      0x04\n      add\n        /* \"p2p/BitTorrentRegistry.sol\":6073:6117  peers[msg.sender].lastSeen = block.timestamp */\n      dup2\n      swap1\n      sstore\n      pop\n        /* \"p2p/BitTorrentRegistry.sol\":6152:6156  true */\n      0x01\n        /* \"p2p/BitTorrentRegistry.sol\":6123:6128  peers */\n      0x04\n        /* \"p2p/BitTorrentRegistry.sol\":6123:6140  peers[msg.sender] */\n      0x00\n        /* \"p2p/BitTorrentRegistry.sol\":6129:6139  msg.sender */\n      caller\n        /* \"p2p/BitTorrentRegistry.sol\":6123:6140  peers[msg.sender] */\n      0xffffffffffffffffffffffffffffffffffffffff\n      and\n      0xffffffffffffffffffffffffffffffffffffffff\n      and\n      dup2\n      mstore\n      0x20\n      add\n      swap1\n      dup2\n      mstore\n      0x20\n      add\n      0x00\n      keccak256\n        /* \"p2p/BitTorrentRegistry.sol\":6123:6149  peers[msg.sender].isActive */\n      0x05\n      add\n      0x00\n        /* \"p2p/BitTorrentRegistry.sol\":6123:6156  peers[msg.sender].isActive = true */\n      0x0100\n      exp\n      dup2\n      sload\n      dup2\n      0xff\n      mul\n      not\n      and\n      swap1\n      dup4\n      iszero\n      iszero\n      mul\n      or\n      swap1\n      sstore\n      pop\n        /* \"p2p/BitTorrentRegistry.sol\":6257:6268  anonymousId */\n      dup1\n        /* \"p2p/BitTorrentRegistry.sol\":6197:6213  peerAnonymousIds */\n      0x05\n        /* \"p2p/BitTorrentRegistry.sol\":6197:6254  peerAnonymousIds[keccak256(abi.encodePacked(msg.sender))] */\n      0x00\n        /* \"p2p/BitTorrentRegistry.sol\":6241:6251  msg.sender */\n      caller\n        /* \"p2p/BitTorrentRegistry.sol\":6224:6252  abi.encodePacked(msg.sender) */\n      add(0x20, mload(0x40))\n      tag_289\n      swap2\n      swap1\n      tag_290\n      jump\t// in\n    tag_289:\n      mload(0x40)\n      0x20\n      dup2\n      dup4\n      sub\n      sub\n      dup2\n      mstore\n      swap1\n      0x40\n      mstore\n        /* \"p2p/BitTorrentRegistry.sol\":6214:6253  keccak256(abi.encodePacked(msg.sender)) */\n      dup1\n      mload\n      swap1\n      0x20\n      add\n      keccak256\n        /* \"p2p/BitTorrentRegistry.sol\":6197:6254  peerAnonymousIds[keccak256(abi.encodePacked(msg.sender))] */\n      dup2\n      mstore\n      0x20\n      add\n      swap1\n      dup2\n      mstore\n      0x20\n      add\n      0x00\n      keccak256\n        /* \"p2p/BitTorrentRegistry.sol\":6197:6268  peerAnonymousIds[keccak256(abi.encodePacked(msg.sender))] = anonymousId */\n      dup2\n      swap1\n      sstore\n      pop\n        /* \"p2p/BitTorrentRegistry.sol\":6338:6349  anonymousId */\n      dup1\n        /* \"p2p/BitTorrentRegistry.sol\":6304:6309  peers */\n      0x04\n        /* \"p2p/BitTorrentRegistry.sol\":6304:6321  peers[msg.sender] */\n      0x00\n        /* \"p2p/BitTorrentRegistry.sol\":6310:6320  msg.sender */\n      caller\n        /* \"p2p/BitTorrentRegistry.sol\":6304:6321  peers[msg.sender] */\n      0xffffffffffffffffffffffffffffffffffffffff\n      and\n      0xffffffffffffffffffffffffffffffffffffffff\n      and\n      dup2\n      mstore\n      0x20\n      add\n      swap1\n      dup2\n      mstore\n      0x20\n      add\n      0x00\n      keccak256\n        /* \"p2p/BitTorrentRegistry.sol\":6304:6328  peers[msg.sender].peerId */\n      0x00\n      add\n      sload\n        /* \"p2p/BitTorrentRegistry.sol\":6280:6380  PeerRegistered(... */\n      0xfd25a1b058ec8924288ea3c74fce9a0e3b819aaabafef0bab98d3b138e62c5dc\n        /* \"p2p/BitTorrentRegistry.sol\":6359:6374  block.timestamp */\n      timestamp\n        /* \"p2p/BitTorrentRegistry.sol\":6280:6380  PeerRegistered(... */\n      mload(0x40)\n      tag_291\n      swap2\n      swap1\n      tag_104\n      jump\t// in\n    tag_291:\n      mload(0x40)\n      dup1\n      swap2\n      sub\n      swap1\n      log3\n        /* \"p2p/BitTorrentRegistry.sol\":5632:6383  {... */\n      pop\n        /* \"@openzeppelin/contracts/utils/ReentrancyGuard.sol\":2542:2562  _nonReentrantAfter() */\n      tag_292\n        /* \"@openzeppelin/contracts/utils/ReentrancyGuard.sol\":2542:2560  _nonReentrantAfter */\n      tag_203\n        /* \"@openzeppelin/contracts/utils/ReentrancyGuard.sol\":2542:2562  _nonReentrantAfter() */\n      jump\t// in\n    tag_292:\n        /* \"p2p/BitTorrentRegistry.sol\":5552:6383  function registerPeer(bytes calldata proof) external nonReentrant whenNotPaused {... */\n      pop\n      pop\n      jump\t// out\n        /* \"@openzeppelin/contracts/access/Ownable.sol\":1796:1958  function _checkOwner() internal view virtual {... */\n    tag_165:\n        /* \"@openzeppelin/contracts/access/Ownable.sol\":1866:1878  _msgSender() */\n      tag_294\n        /* \"@openzeppelin/contracts/access/Ownable.sol\":1866:1876  _msgSender */\n      tag_295\n        /* \"@openzeppelin/contracts/access/Ownable.sol\":1866:1878  _msgSender() */\n      jump\t// in\n    tag_294:\n        /* \"@openzeppelin/contracts/access/Ownable.sol\":1855:1878  owner() != _msgSender() */\n      0xffffffffffffffffffffffffffffffffffffffff\n      and\n        /* \"@openzeppelin/contracts/access/Ownable.sol\":1855:1862  owner() */\n      tag_296\n        /* \"@openzeppelin/contracts/access/Ownable.sol\":1855:1860  owner */\n      tag_106\n        /* \"@openzeppelin/contracts/access/Ownable.sol\":1855:1862  owner() */\n      jump\t// in\n    tag_296:\n        /* \"@openzeppelin/contracts/access/Ownable.sol\":1855:1878  owner() != _msgSender() */\n      0xffffffffffffffffffffffffffffffffffffffff\n      and\n      eq\n        /* \"@openzeppelin/contracts/access/Ownable.sol\":1851:1952  if (owner() != _msgSender()) {... */\n      tag_297\n      jumpi\n        /* \"@openzeppelin/contracts/access/Ownable.sol\":1928:1940  _msgSender() */\n      tag_298\n        /* \"@openzeppelin/contracts/access/Ownable.sol\":1928:1938  _msgSender */\n      tag_295\n        /* \"@openzeppelin/contracts/access/Ownable.sol\":1928:1940  _msgSender() */\n      jump\t// in\n    tag_298:\n        /* \"@openzeppelin/contracts/access/Ownable.sol\":1901:1941  OwnableUnauthorizedAccount(_msgSender()) */\n      mload(0x40)\n      0x118cdaa700000000000000000000000000000000000000000000000000000000\n      dup2\n      mstore\n      0x04\n      add\n      tag_299\n      swap2\n      swap1\n      tag_108\n      jump\t// in\n    tag_299:\n      mload(0x40)\n      dup1\n      swap2\n      sub\n      swap1\n      revert\n        /* \"@openzeppelin/contracts/access/Ownable.sol\":1851:1952  if (owner() != _msgSender()) {... */\n    tag_297:\n        /* \"@openzeppelin/contracts/access/Ownable.sol\":1796:1958  function _checkOwner() internal view virtual {... */\n      jump\t// out\n        /* \"@openzeppelin/contracts/utils/Pausable.sol\":2710:2827  function _unpause() internal virtual whenPaused {... */\n    tag_168:\n        /* \"@openzeppelin/contracts/utils/Pausable.sol\":1721:1737  _requirePaused() */\n      tag_301\n        /* \"@openzeppelin/contracts/utils/Pausable.sol\":1721:1735  _requirePaused */\n      tag_302\n        /* \"@openzeppelin/contracts/utils/Pausable.sol\":1721:1737  _requirePaused() */\n      jump\t// in\n    tag_301:\n        /* \"@openzeppelin/contracts/utils/Pausable.sol\":2778:2783  false */\n      0x00\n        /* \"@openzeppelin/contracts/utils/Pausable.sol\":2768:2775  _paused */\n      0x02\n      0x00\n        /* \"@openzeppelin/contracts/utils/Pausable.sol\":2768:2783  _paused = false */\n      0x0100\n      exp\n      dup2\n      sload\n      dup2\n      0xff\n      mul\n      not\n      and\n      swap1\n      dup4\n      iszero\n      iszero\n      mul\n      or\n      swap1\n      sstore\n      pop\n        /* \"@openzeppelin/contracts/utils/Pausable.sol\":2798:2820  Unpaused(_msgSender()) */\n      0x5db9ee0a495bf2e6ff9c91a7834c1ba4fdd244a5e8aa4e537bd38aeae4b073aa\n        /* \"@openzeppelin/contracts/utils/Pausable.sol\":2807:2819  _msgSender() */\n      tag_304\n        /* \"@openzeppelin/contracts/utils/Pausable.sol\":2807:2817  _msgSender */\n      tag_295\n        /* \"@openzeppelin/contracts/utils/Pausable.sol\":2807:2819  _msgSender() */\n      jump\t// in\n    tag_304:\n        /* \"@openzeppelin/contracts/utils/Pausable.sol\":2798:2820  Unpaused(_msgSender()) */\n      mload(0x40)\n      tag_305\n      swap2\n      swap1\n      tag_108\n      jump\t// in\n    tag_305:\n      mload(0x40)\n      dup1\n      swap2\n      sub\n      swap1\n      log1\n        /* \"@openzeppelin/contracts/utils/Pausable.sol\":2710:2827  function _unpause() internal virtual whenPaused {... */\n      jump\t// out\n        /* \"@openzeppelin/contracts/access/Ownable.sol\":2912:3099  function _transferOwnership(address newOwner) internal virtual {... */\n    tag_182:\n        /* \"@openzeppelin/contracts/access/Ownable.sol\":2985:3001  address oldOwner */\n      0x00\n        /* \"@openzeppelin/contracts/access/Ownable.sol\":3004:3010  _owner */\n      dup1\n      0x00\n      swap1\n      sload\n      swap1\n      0x0100\n      exp\n      swap1\n      div\n      0xffffffffffffffffffffffffffffffffffffffff\n      and\n        /* \"@openzeppelin/contracts/access/Ownable.sol\":2985:3010  address oldOwner = _owner */\n      swap1\n      pop\n        /* \"@openzeppelin/contracts/access/Ownable.sol\":3029:3037  newOwner */\n      dup2\n        /* \"@openzeppelin/contracts/access/Ownable.sol\":3020:3026  _owner */\n      0x00\n      dup1\n        /* \"@openzeppelin/contracts/access/Ownable.sol\":3020:3037  _owner = newOwner */\n      0x0100\n      exp\n      dup2\n      sload\n      dup2\n      0xffffffffffffffffffffffffffffffffffffffff\n      mul\n      not\n      and\n      swap1\n      dup4\n      0xffffffffffffffffffffffffffffffffffffffff\n      and\n      mul\n      or\n      swap1\n      sstore\n      pop\n        /* \"@openzeppelin/contracts/access/Ownable.sol\":3083:3091  newOwner */\n      dup2\n        /* \"@openzeppelin/contracts/access/Ownable.sol\":3052:3092  OwnershipTransferred(oldOwner, newOwner) */\n      0xffffffffffffffffffffffffffffffffffffffff\n      and\n        /* \"@openzeppelin/contracts/access/Ownable.sol\":3073:3081  oldOwner */\n      dup2\n        /* \"@openzeppelin/contracts/access/Ownable.sol\":3052:3092  OwnershipTransferred(oldOwner, newOwner) */\n      0xffffffffffffffffffffffffffffffffffffffff\n      and\n      0x8be0079c531659141344cd1fd0a4f28419497f9722a3daafe3b4186f6b6457e0\n      mload(0x40)\n      mload(0x40)\n      dup1\n      swap2\n      sub\n      swap1\n      log3\n        /* \"@openzeppelin/contracts/access/Ownable.sol\":2975:3099  {... */\n      pop\n        /* \"@openzeppelin/contracts/access/Ownable.sol\":2912:3099  function _transferOwnership(address newOwner) internal virtual {... */\n      pop\n      jump\t// out\n        /* \"@openzeppelin/contracts/utils/Pausable.sol\":2463:2578  function _pause() internal virtual whenNotPaused {... */\n    tag_187:\n        /* \"@openzeppelin/contracts/utils/Pausable.sol\":1474:1493  _requireNotPaused() */\n      tag_308\n        /* \"@openzeppelin/contracts/utils/Pausable.sol\":1474:1491  _requireNotPaused */\n      tag_193\n        /* \"@openzeppelin/contracts/utils/Pausable.sol\":1474:1493  _requireNotPaused() */\n      jump\t// in\n    tag_308:\n        /* \"@openzeppelin/contracts/utils/Pausable.sol\":2532:2536  true */\n      0x01\n        /* \"@openzeppelin/contracts/utils/Pausable.sol\":2522:2529  _paused */\n      0x02\n      0x00\n        /* \"@openzeppelin/contracts/utils/Pausable.sol\":2522:2536  _paused = true */\n      0x0100\n      exp\n      dup2\n      sload\n      dup2\n      0xff\n      mul\n      not\n      and\n      swap1\n      dup4\n      iszero\n      iszero\n      mul\n      or\n      swap1\n      sstore\n      pop\n        /* \"@openzeppelin/contracts/utils/Pausable.sol\":2551:2571  Paused(_msgSender()) */\n      0x62e78cea01bee320cd4e420270b5ea74000d11b0c9f74754ebdbfc544b05a258\n        /* \"@openzeppelin/contracts/utils/Pausable.sol\":2558:2570  _msgSender() */\n      tag_310\n        /* \"@openzeppelin/contracts/utils/Pausable.sol\":2558:2568  _msgSender */\n      tag_295\n        /* \"@openzeppelin/contracts/utils/Pausable.sol\":2558:2570  _msgSender() */\n      jump\t// in\n    tag_310:\n        /* \"@openzeppelin/contracts/utils/Pausable.sol\":2551:2571  Paused(_msgSender()) */\n      mload(0x40)\n      tag_311\n      swap2\n      swap1\n      tag_108\n      jump\t// in\n    tag_311:\n      mload(0x40)\n      dup1\n      swap2\n      sub\n      swap1\n      log1\n        /* \"@openzeppelin/contracts/utils/Pausable.sol\":2463:2578  function _pause() internal virtual whenNotPaused {... */\n      jump\t// out\n        /* \"@openzeppelin/contracts/utils/ReentrancyGuard.sol\":2575:2882  function _nonReentrantBefore() private {... */\n    tag_190:\n        /* \"@openzeppelin/contracts/utils/ReentrancyGuard.sol\":1899:1900  2 */\n      0x02\n        /* \"@openzeppelin/contracts/utils/ReentrancyGuard.sol\":2702:2709  _status */\n      sload(0x01)\n        /* \"@openzeppelin/contracts/utils/ReentrancyGuard.sol\":2702:2720  _status == ENTERED */\n      sub\n        /* \"@openzeppelin/contracts/utils/ReentrancyGuard.sol\":2698:2784  if (_status == ENTERED) {... */\n      tag_313\n      jumpi\n        /* \"@openzeppelin/contracts/utils/ReentrancyGuard.sol\":2743:2773  ReentrancyGuardReentrantCall() */\n      mload(0x40)\n      0x3ee5aeb500000000000000000000000000000000000000000000000000000000\n      dup2\n      mstore\n      0x04\n      add\n      mload(0x40)\n      dup1\n      swap2\n      sub\n      swap1\n      revert\n        /* \"@openzeppelin/contracts/utils/ReentrancyGuard.sol\":2698:2784  if (_status == ENTERED) {... */\n    tag_313:\n        /* \"@openzeppelin/contracts/utils/ReentrancyGuard.sol\":1899:1900  2 */\n      0x02\n        /* \"@openzeppelin/contracts/utils/ReentrancyGuard.sol\":2858:2865  _status */\n      0x01\n        /* \"@openzeppelin/contracts/utils/ReentrancyGuard.sol\":2858:2875  _status = ENTERED */\n      dup2\n      swap1\n      sstore\n      pop\n        /* \"@openzeppelin/contracts/utils/ReentrancyGuard.sol\":2575:2882  function _nonReentrantBefore() private {... */\n      jump\t// out\n        /* \"@openzeppelin/contracts/utils/Pausable.sol\":2002:2130  function _requireNotPaused() internal view virtual {... */\n    tag_193:\n        /* \"@openzeppelin/contracts/utils/Pausable.sol\":2067:2075  paused() */\n      tag_315\n        /* \"@openzeppelin/contracts/utils/Pausable.sol\":2067:2073  paused */\n      tag_79\n        /* \"@openzeppelin/contracts/utils/Pausable.sol\":2067:2075  paused() */\n      jump\t// in\n    tag_315:\n        /* \"@openzeppelin/contracts/utils/Pausable.sol\":2063:2124  if (paused()) {... */\n      iszero\n      tag_316\n      jumpi\n        /* \"@openzeppelin/contracts/utils/Pausable.sol\":2098:2113  EnforcedPause() */\n      mload(0x40)\n      0xd93c066500000000000000000000000000000000000000000000000000000000\n      dup2\n      mstore\n      0x04\n      add\n      mload(0x40)\n      dup1\n      swap2\n      sub\n      swap1\n      revert\n        /* \"@openzeppelin/contracts/utils/Pausable.sol\":2063:2124  if (paused()) {... */\n    tag_316:\n        /* \"@openzeppelin/contracts/utils/Pausable.sol\":2002:2130  function _requireNotPaused() internal view virtual {... */\n      jump\t// out\n        /* \"p2p/BitTorrentRegistry.sol\":11720:12821  function _registerTorrent(... */\n    tag_201:\n        /* \"p2p/BitTorrentRegistry.sol\":11942:11960  uint256 pieceCount */\n      0x00\n        /* \"p2p/BitTorrentRegistry.sol\":11988:11997  pieceSize */\n      dup3\n        /* \"p2p/BitTorrentRegistry.sol\":11983:11984  1 */\n      0x01\n        /* \"p2p/BitTorrentRegistry.sol\":11971:11980  pieceSize */\n      dup5\n        /* \"p2p/BitTorrentRegistry.sol\":11964:11968  size */\n      dup7\n        /* \"p2p/BitTorrentRegistry.sol\":11964:11980  size + pieceSize */\n      tag_318\n      swap2\n      swap1\n      tag_319\n      jump\t// in\n    tag_318:\n        /* \"p2p/BitTorrentRegistry.sol\":11964:11984  size + pieceSize - 1 */\n      tag_320\n      swap2\n      swap1\n      tag_321\n      jump\t// in\n    tag_320:\n        /* \"p2p/BitTorrentRegistry.sol\":11963:11997  (size + pieceSize - 1) / pieceSize */\n      tag_322\n      swap2\n      swap1\n      tag_323\n      jump\t// in\n    tag_322:\n        /* \"p2p/BitTorrentRegistry.sol\":11942:11997  uint256 pieceCount = (size + pieceSize - 1) / pieceSize */\n      swap1\n      pop\n        /* \"p2p/BitTorrentRegistry.sol\":12034:12060  Torrent storage newTorrent */\n      0x00\n        /* \"p2p/BitTorrentRegistry.sol\":12063:12071  torrents */\n      0x03\n        /* \"p2p/BitTorrentRegistry.sol\":12063:12084  torrents[torrentHash] */\n      0x00\n        /* \"p2p/BitTorrentRegistry.sol\":12072:12083  torrentHash */\n      dup9\n        /* \"p2p/BitTorrentRegistry.sol\":12063:12084  torrents[torrentHash] */\n      dup2\n      mstore\n      0x20\n      add\n      swap1\n      dup2\n      mstore\n      0x20\n      add\n      0x00\n      keccak256\n        /* \"p2p/BitTorrentRegistry.sol\":12034:12084  Torrent storage newTorrent = torrents[torrentHash] */\n      swap1\n      pop\n        /* \"p2p/BitTorrentRegistry.sol\":12116:12127  torrentHash */\n      dup7\n        /* \"p2p/BitTorrentRegistry.sol\":12094:12104  newTorrent */\n      dup2\n        /* \"p2p/BitTorrentRegistry.sol\":12094:12113  newTorrent.infoHash */\n      0x00\n      add\n        /* \"p2p/BitTorrentRegistry.sol\":12094:12127  newTorrent.infoHash = torrentHash */\n      dup2\n      swap1\n      sstore\n      pop\n        /* \"p2p/BitTorrentRegistry.sol\":12165:12179  fileCommitment */\n      dup6\n        /* \"p2p/BitTorrentRegistry.sol\":12137:12147  newTorrent */\n      dup2\n        /* \"p2p/BitTorrentRegistry.sol\":12137:12162  newTorrent.fileCommitment */\n      0x01\n      add\n        /* \"p2p/BitTorrentRegistry.sol\":12137:12179  newTorrent.fileCommitment = fileCommitment */\n      dup2\n      swap1\n      sstore\n      pop\n        /* \"p2p/BitTorrentRegistry.sol\":12207:12211  size */\n      dup5\n        /* \"p2p/BitTorrentRegistry.sol\":12189:12199  newTorrent */\n      dup2\n        /* \"p2p/BitTorrentRegistry.sol\":12189:12204  newTorrent.size */\n      0x02\n      add\n        /* \"p2p/BitTorrentRegistry.sol\":12189:12211  newTorrent.size = size */\n      dup2\n      swap1\n      sstore\n      pop\n        /* \"p2p/BitTorrentRegistry.sol\":12244:12253  pieceSize */\n      dup4\n        /* \"p2p/BitTorrentRegistry.sol\":12221:12231  newTorrent */\n      dup2\n        /* \"p2p/BitTorrentRegistry.sol\":12221:12241  newTorrent.pieceSize */\n      0x04\n      add\n        /* \"p2p/BitTorrentRegistry.sol\":12221:12253  newTorrent.pieceSize = pieceSize */\n      dup2\n      swap1\n      sstore\n      pop\n        /* \"p2p/BitTorrentRegistry.sol\":12287:12297  pieceCount */\n      dup2\n        /* \"p2p/BitTorrentRegistry.sol\":12263:12273  newTorrent */\n      dup2\n        /* \"p2p/BitTorrentRegistry.sol\":12263:12284  newTorrent.pieceCount */\n      0x03\n      add\n        /* \"p2p/BitTorrentRegistry.sol\":12263:12297  newTorrent.pieceCount = pieceCount */\n      dup2\n      swap1\n      sstore\n      pop\n        /* \"p2p/BitTorrentRegistry.sol\":12331:12341  piecesRoot */\n      dup3\n        /* \"p2p/BitTorrentRegistry.sol\":12307:12317  newTorrent */\n      dup2\n        /* \"p2p/BitTorrentRegistry.sol\":12307:12328  newTorrent.piecesRoot */\n      0x05\n      add\n        /* \"p2p/BitTorrentRegistry.sol\":12307:12341  newTorrent.piecesRoot = piecesRoot */\n      dup2\n      swap1\n      sstore\n      pop\n        /* \"p2p/BitTorrentRegistry.sol\":12370:12380  msg.sender */\n      caller\n        /* \"p2p/BitTorrentRegistry.sol\":12351:12361  newTorrent */\n      dup2\n        /* \"p2p/BitTorrentRegistry.sol\":12351:12367  newTorrent.owner */\n      0x06\n      add\n      0x00\n        /* \"p2p/BitTorrentRegistry.sol\":12351:12380  newTorrent.owner = msg.sender */\n      0x0100\n      exp\n      dup2\n      sload\n      dup2\n      0xffffffffffffffffffffffffffffffffffffffff\n      mul\n      not\n      and\n      swap1\n      dup4\n      0xffffffffffffffffffffffffffffffffffffffff\n      and\n      mul\n      or\n      swap1\n      sstore\n      pop\n        /* \"p2p/BitTorrentRegistry.sol\":12413:12428  block.timestamp */\n      timestamp\n        /* \"p2p/BitTorrentRegistry.sol\":12390:12400  newTorrent */\n      dup2\n        /* \"p2p/BitTorrentRegistry.sol\":12390:12410  newTorrent.timestamp */\n      0x08\n      add\n        /* \"p2p/BitTorrentRegistry.sol\":12390:12428  newTorrent.timestamp = block.timestamp */\n      dup2\n      swap1\n      sstore\n      pop\n        /* \"p2p/BitTorrentRegistry.sol\":12523:12527  true */\n      0x01\n        /* \"p2p/BitTorrentRegistry.sol\":12482:12492  newTorrent */\n      dup2\n        /* \"p2p/BitTorrentRegistry.sol\":12482:12508  newTorrent.authorizedPeers */\n      0x09\n      add\n        /* \"p2p/BitTorrentRegistry.sol\":12482:12520  newTorrent.authorizedPeers[msg.sender] */\n      0x00\n        /* \"p2p/BitTorrentRegistry.sol\":12509:12519  msg.sender */\n      caller\n        /* \"p2p/BitTorrentRegistry.sol\":12482:12520  newTorrent.authorizedPeers[msg.sender] */\n      0xffffffffffffffffffffffffffffffffffffffff\n      and\n      0xffffffffffffffffffffffffffffffffffffffff\n      and\n      dup2\n      mstore\n      0x20\n      add\n      swap1\n      dup2\n      mstore\n      0x20\n      add\n      0x00\n      keccak256\n      0x00\n        /* \"p2p/BitTorrentRegistry.sol\":12482:12527  newTorrent.authorizedPeers[msg.sender] = true */\n      0x0100\n      exp\n      dup2\n      sload\n      dup2\n      0xff\n      mul\n      not\n      and\n      swap1\n      dup4\n      iszero\n      iszero\n      mul\n      or\n      swap1\n      sstore\n      pop\n        /* \"p2p/BitTorrentRegistry.sol\":12569:12570  1 */\n      0x01\n        /* \"p2p/BitTorrentRegistry.sol\":12537:12553  torrentPeerCount */\n      0x06\n        /* \"p2p/BitTorrentRegistry.sol\":12537:12566  torrentPeerCount[torrentHash] */\n      0x00\n        /* \"p2p/BitTorrentRegistry.sol\":12554:12565  torrentHash */\n      dup10\n        /* \"p2p/BitTorrentRegistry.sol\":12537:12566  torrentPeerCount[torrentHash] */\n      dup2\n      mstore\n      0x20\n      add\n      swap1\n      dup2\n      mstore\n      0x20\n      add\n      0x00\n      keccak256\n        /* \"p2p/BitTorrentRegistry.sol\":12537:12570  torrentPeerCount[torrentHash] = 1 */\n      dup2\n      swap1\n      sstore\n      pop\n        /* \"p2p/BitTorrentRegistry.sol\":12610:12647  _updatePeerStats(msg.sender, true, 0) */\n      tag_324\n        /* \"p2p/BitTorrentRegistry.sol\":12627:12637  msg.sender */\n      caller\n        /* \"p2p/BitTorrentRegistry.sol\":12639:12643  true */\n      0x01\n        /* \"p2p/BitTorrentRegistry.sol\":12645:12646  0 */\n      0x00\n        /* \"p2p/BitTorrentRegistry.sol\":12610:12626  _updatePeerStats */\n      tag_325\n        /* \"p2p/BitTorrentRegistry.sol\":12610:12647  _updatePeerStats(msg.sender, true, 0) */\n      jump\t// in\n    tag_324:\n        /* \"p2p/BitTorrentRegistry.sol\":12747:12757  msg.sender */\n      caller\n        /* \"p2p/BitTorrentRegistry.sol\":12663:12814  TorrentRegistered(... */\n      0xffffffffffffffffffffffffffffffffffffffff\n      and\n        /* \"p2p/BitTorrentRegistry.sol\":12719:12733  fileCommitment */\n      dup7\n        /* \"p2p/BitTorrentRegistry.sol\":12694:12705  torrentHash */\n      dup9\n        /* \"p2p/BitTorrentRegistry.sol\":12663:12814  TorrentRegistered(... */\n      0xdecdced2ea81a77c90a01cf427d46ecefc962b7cee3f4b7e470fe80a902df3ea\n        /* \"p2p/BitTorrentRegistry.sol\":12771:12775  size */\n      dup9\n        /* \"p2p/BitTorrentRegistry.sol\":12789:12804  block.timestamp */\n      timestamp\n        /* \"p2p/BitTorrentRegistry.sol\":12663:12814  TorrentRegistered(... */\n      mload(0x40)\n      tag_326\n      swap3\n      swap2\n      swap1\n      tag_327\n      jump\t// in\n    tag_326:\n      mload(0x40)\n      dup1\n      swap2\n      sub\n      swap1\n      log4\n        /* \"p2p/BitTorrentRegistry.sol\":11899:12821  {... */\n      pop\n      pop\n        /* \"p2p/BitTorrentRegistry.sol\":11720:12821  function _registerTorrent(... */\n      pop\n      pop\n      pop\n      pop\n      pop\n      jump\t// out\n        /* \"@openzeppelin/contracts/utils/ReentrancyGuard.sol\":2888:3096  function _nonReentrantAfter() private {... */\n    tag_203:\n        /* \"@openzeppelin/contracts/utils/ReentrancyGuard.sol\":1857:1858  1 */\n      0x01\n        /* \"@openzeppelin/contracts/utils/ReentrancyGuard.sol\":3068:3075  _status */\n      dup1\n        /* \"@openzeppelin/contracts/utils/ReentrancyGuard.sol\":3068:3089  _status = NOT_ENTERED */\n      dup2\n      swap1\n      sstore\n      pop\n        /* \"@openzeppelin/contracts/utils/ReentrancyGuard.sol\":2888:3096  function _nonReentrantAfter() private {... */\n      jump\t// out\n        /* \"p2p/BitTorrentRegistry.sol\":13800:13984  function _generateAnonymousId(... */\n    tag_286:\n        /* \"p2p/BitTorrentRegistry.sol\":13911:13918  bytes32 */\n      0x00\n        /* \"p2p/BitTorrentRegistry.sol\":13964:13968  peer */\n      dup4\n        /* \"p2p/BitTorrentRegistry.sol\":13970:13975  proof */\n      dup4\n      dup4\n        /* \"p2p/BitTorrentRegistry.sol\":13947:13976  abi.encodePacked(peer, proof) */\n      add(0x20, mload(0x40))\n      tag_330\n      swap4\n      swap3\n      swap2\n      swap1\n      tag_331\n      jump\t// in\n    tag_330:\n      mload(0x40)\n      0x20\n      dup2\n      dup4\n      sub\n      sub\n      dup2\n      mstore\n      swap1\n      0x40\n      mstore\n        /* \"p2p/BitTorrentRegistry.sol\":13937:13977  keccak256(abi.encodePacked(peer, proof)) */\n      dup1\n      mload\n      swap1\n      0x20\n      add\n      keccak256\n        /* \"p2p/BitTorrentRegistry.sol\":13930:13977  return keccak256(abi.encodePacked(peer, proof)) */\n      swap1\n      pop\n        /* \"p2p/BitTorrentRegistry.sol\":13800:13984  function _generateAnonymousId(... */\n      swap4\n      swap3\n      pop\n      pop\n      pop\n      jump\t// out\n        /* \"@openzeppelin/contracts/utils/Context.sol\":656:752  function _msgSender() internal view virtual returns (address) {... */\n    tag_295:\n        /* \"@openzeppelin/contracts/utils/Context.sol\":709:716  address */\n      0x00\n        /* \"@openzeppelin/contracts/utils/Context.sol\":735:745  msg.sender */\n      caller\n        /* \"@openzeppelin/contracts/utils/Context.sol\":728:745  return msg.sender */\n      swap1\n      pop\n        /* \"@openzeppelin/contracts/utils/Context.sol\":656:752  function _msgSender() internal view virtual returns (address) {... */\n      swap1\n      jump\t// out\n        /* \"@openzeppelin/contracts/utils/Pausable.sol\":2202:2328  function _requirePaused() internal view virtual {... */\n    tag_302:\n        /* \"@openzeppelin/contracts/utils/Pausable.sol\":2265:2273  paused() */\n      tag_334\n        /* \"@openzeppelin/contracts/utils/Pausable.sol\":2265:2271  paused */\n      tag_79\n        /* \"@openzeppelin/contracts/utils/Pausable.sol\":2265:2273  paused() */\n      jump\t// in\n    tag_334:\n        /* \"@openzeppelin/contracts/utils/Pausable.sol\":2260:2322  if (!paused()) {... */\n      tag_335\n      jumpi\n        /* \"@openzeppelin/contracts/utils/Pausable.sol\":2296:2311  ExpectedPause() */\n      mload(0x40)\n      0x8dfc202b00000000000000000000000000000000000000000000000000000000\n      dup2\n      mstore\n      0x04\n      add\n      mload(0x40)\n      dup1\n      swap2\n      sub\n      swap1\n      revert\n        /* \"@openzeppelin/contracts/utils/Pausable.sol\":2260:2322  if (!paused()) {... */\n    tag_335:\n        /* \"@openzeppelin/contracts/utils/Pausable.sol\":2202:2328  function _requirePaused() internal view virtual {... */\n      jump\t// out\n        /* \"p2p/BitTorrentRegistry.sol\":12881:13732  function _updatePeerStats(... */\n    tag_325:\n        /* \"p2p/BitTorrentRegistry.sol\":13006:13027  Peer storage peerData */\n      0x00\n        /* \"p2p/BitTorrentRegistry.sol\":13030:13035  peers */\n      0x04\n        /* \"p2p/BitTorrentRegistry.sol\":13030:13041  peers[peer] */\n      0x00\n        /* \"p2p/BitTorrentRegistry.sol\":13036:13040  peer */\n      dup6\n        /* \"p2p/BitTorrentRegistry.sol\":13030:13041  peers[peer] */\n      0xffffffffffffffffffffffffffffffffffffffff\n      and\n      0xffffffffffffffffffffffffffffffffffffffff\n      and\n      dup2\n      mstore\n      0x20\n      add\n      swap1\n      dup2\n      mstore\n      0x20\n      add\n      0x00\n      keccak256\n        /* \"p2p/BitTorrentRegistry.sol\":13006:13041  Peer storage peerData = peers[peer] */\n      swap1\n      pop\n        /* \"p2p/BitTorrentRegistry.sol\":13059:13067  peerData */\n      dup1\n        /* \"p2p/BitTorrentRegistry.sol\":13059:13076  peerData.isActive */\n      0x05\n      add\n      0x00\n      swap1\n      sload\n      swap1\n      0x0100\n      exp\n      swap1\n      div\n      0xff\n      and\n        /* \"p2p/BitTorrentRegistry.sol\":13051:13096  require(peerData.isActive, \"Peer not active\") */\n      tag_337\n      jumpi\n      mload(0x40)\n      0x08c379a000000000000000000000000000000000000000000000000000000000\n      dup2\n      mstore\n      0x04\n      add\n      tag_338\n      swap1\n      tag_339\n      jump\t// in\n    tag_338:\n      mload(0x40)\n      dup1\n      swap2\n      sub\n      swap1\n      revert\n    tag_337:\n        /* \"p2p/BitTorrentRegistry.sol\":13107:13121  uint256 change */\n      0x00\n        /* \"p2p/BitTorrentRegistry.sol\":13137:13138  0 */\n      dup1\n        /* \"p2p/BitTorrentRegistry.sol\":13124:13133  magnitude */\n      dup4\n        /* \"p2p/BitTorrentRegistry.sol\":13124:13138  magnitude == 0 */\n      eq\n        /* \"p2p/BitTorrentRegistry.sol\":13124:13234  magnitude == 0 ? ... */\n      tag_340\n      jumpi\n        /* \"p2p/BitTorrentRegistry.sol\":13225:13234  magnitude */\n      dup3\n        /* \"p2p/BitTorrentRegistry.sol\":13124:13234  magnitude == 0 ? ... */\n      jump(tag_341)\n    tag_340:\n        /* \"p2p/BitTorrentRegistry.sol\":13155:13165  isPositive */\n      dup4\n        /* \"p2p/BitTorrentRegistry.sol\":13155:13209  isPositive ? REPUTATION_INCREASE : REPUTATION_DECREASE */\n      tag_342\n      jumpi\n        /* \"p2p/BitTorrentRegistry.sol\":2454:2456  20 */\n      0x14\n        /* \"p2p/BitTorrentRegistry.sol\":13155:13209  isPositive ? REPUTATION_INCREASE : REPUTATION_DECREASE */\n      jump(tag_343)\n    tag_342:\n        /* \"p2p/BitTorrentRegistry.sol\":2400:2402  10 */\n      0x0a\n        /* \"p2p/BitTorrentRegistry.sol\":13155:13209  isPositive ? REPUTATION_INCREASE : REPUTATION_DECREASE */\n    tag_343:\n        /* \"p2p/BitTorrentRegistry.sol\":13124:13234  magnitude == 0 ? ... */\n    tag_341:\n        /* \"p2p/BitTorrentRegistry.sol\":13107:13234  uint256 change = magnitude == 0 ? ... */\n      swap1\n      pop\n        /* \"p2p/BitTorrentRegistry.sol\":13249:13259  isPositive */\n      dup4\n        /* \"p2p/BitTorrentRegistry.sol\":13245:13542  if (isPositive) {... */\n      iszero\n      tag_344\n      jumpi\n        /* \"p2p/BitTorrentRegistry.sol\":13319:13325  change */\n      dup1\n        /* \"p2p/BitTorrentRegistry.sol\":13297:13305  peerData */\n      dup3\n        /* \"p2p/BitTorrentRegistry.sol\":13297:13316  peerData.reputation */\n      0x01\n      add\n      sload\n        /* \"p2p/BitTorrentRegistry.sol\":13297:13325  peerData.reputation + change */\n      tag_345\n      swap2\n      swap1\n      tag_319\n      jump\t// in\n    tag_345:\n        /* \"p2p/BitTorrentRegistry.sol\":13275:13283  peerData */\n      dup3\n        /* \"p2p/BitTorrentRegistry.sol\":13275:13294  peerData.reputation */\n      0x01\n      add\n        /* \"p2p/BitTorrentRegistry.sol\":13275:13325  peerData.reputation = peerData.reputation + change */\n      dup2\n      swap1\n      sstore\n      pop\n        /* \"p2p/BitTorrentRegistry.sol\":13339:13347  peerData */\n      dup2\n        /* \"p2p/BitTorrentRegistry.sol\":13339:13359  peerData.uploadCount */\n      0x02\n      add\n      0x00\n        /* \"p2p/BitTorrentRegistry.sol\":13339:13361  peerData.uploadCount++ */\n      dup2\n      sload\n      dup1\n      swap3\n      swap2\n      swap1\n      tag_346\n      swap1\n      tag_177\n      jump\t// in\n    tag_346:\n      swap2\n      swap1\n      pop\n      sstore\n      pop\n        /* \"p2p/BitTorrentRegistry.sol\":13245:13542  if (isPositive) {... */\n      jump(tag_347)\n    tag_344:\n        /* \"p2p/BitTorrentRegistry.sol\":13436:13442  change */\n      dup1\n        /* \"p2p/BitTorrentRegistry.sol\":13414:13422  peerData */\n      dup3\n        /* \"p2p/BitTorrentRegistry.sol\":13414:13433  peerData.reputation */\n      0x01\n      add\n      sload\n        /* \"p2p/BitTorrentRegistry.sol\":13414:13442  peerData.reputation > change */\n      gt\n        /* \"p2p/BitTorrentRegistry.sol\":13414:13493  peerData.reputation > change ?... */\n      tag_348\n      jumpi\n        /* \"p2p/BitTorrentRegistry.sol\":13492:13493  0 */\n      0x00\n        /* \"p2p/BitTorrentRegistry.sol\":13414:13493  peerData.reputation > change ?... */\n      jump(tag_349)\n    tag_348:\n        /* \"p2p/BitTorrentRegistry.sol\":13483:13489  change */\n      dup1\n        /* \"p2p/BitTorrentRegistry.sol\":13461:13469  peerData */\n      dup3\n        /* \"p2p/BitTorrentRegistry.sol\":13461:13480  peerData.reputation */\n      0x01\n      add\n      sload\n        /* \"p2p/BitTorrentRegistry.sol\":13461:13489  peerData.reputation - change */\n      tag_350\n      swap2\n      swap1\n      tag_321\n      jump\t// in\n    tag_350:\n        /* \"p2p/BitTorrentRegistry.sol\":13414:13493  peerData.reputation > change ?... */\n    tag_349:\n        /* \"p2p/BitTorrentRegistry.sol\":13392:13400  peerData */\n      dup3\n        /* \"p2p/BitTorrentRegistry.sol\":13392:13411  peerData.reputation */\n      0x01\n      add\n        /* \"p2p/BitTorrentRegistry.sol\":13392:13493  peerData.reputation = peerData.reputation > change ?... */\n      dup2\n      swap1\n      sstore\n      pop\n        /* \"p2p/BitTorrentRegistry.sol\":13507:13515  peerData */\n      dup2\n        /* \"p2p/BitTorrentRegistry.sol\":13507:13529  peerData.downloadCount */\n      0x03\n      add\n      0x00\n        /* \"p2p/BitTorrentRegistry.sol\":13507:13531  peerData.downloadCount++ */\n      dup2\n      sload\n      dup1\n      swap3\n      swap2\n      swap1\n      tag_351\n      swap1\n      tag_177\n      jump\t// in\n    tag_351:\n      swap2\n      swap1\n      pop\n      sstore\n      pop\n        /* \"p2p/BitTorrentRegistry.sol\":13245:13542  if (isPositive) {... */\n    tag_347:\n        /* \"p2p/BitTorrentRegistry.sol\":13572:13587  block.timestamp */\n      timestamp\n        /* \"p2p/BitTorrentRegistry.sol\":13552:13560  peerData */\n      dup3\n        /* \"p2p/BitTorrentRegistry.sol\":13552:13569  peerData.lastSeen */\n      0x04\n      add\n        /* \"p2p/BitTorrentRegistry.sol\":13552:13587  peerData.lastSeen = block.timestamp */\n      dup2\n      swap1\n      sstore\n      pop\n        /* \"p2p/BitTorrentRegistry.sol\":13638:13646  peerData */\n      dup2\n        /* \"p2p/BitTorrentRegistry.sol\":13638:13653  peerData.peerId */\n      0x00\n      add\n      sload\n        /* \"p2p/BitTorrentRegistry.sol\":13603:13725  PeerReputationUpdated(... */\n      0xf61a6281a31b24f3a04fd9893067af3886eac3b38b578e41e18234bbdd43651a\n        /* \"p2p/BitTorrentRegistry.sol\":13667:13675  peerData */\n      dup4\n        /* \"p2p/BitTorrentRegistry.sol\":13667:13686  peerData.reputation */\n      0x01\n      add\n      sload\n        /* \"p2p/BitTorrentRegistry.sol\":13700:13715  block.timestamp */\n      timestamp\n        /* \"p2p/BitTorrentRegistry.sol\":13603:13725  PeerReputationUpdated(... */\n      mload(0x40)\n      tag_352\n      swap3\n      swap2\n      swap1\n      tag_327\n      jump\t// in\n    tag_352:\n      mload(0x40)\n      dup1\n      swap2\n      sub\n      swap1\n      log2\n        /* \"p2p/BitTorrentRegistry.sol\":12996:13732  {... */\n      pop\n      pop\n        /* \"p2p/BitTorrentRegistry.sol\":12881:13732  function _updatePeerStats(... */\n      pop\n      pop\n      pop\n      jump\t// out\n        /* \"#utility.yul\":7:82   */\n    tag_353:\n        /* \"#utility.yul\":40:46   */\n      0x00\n        /* \"#utility.yul\":73:75   */\n      0x40\n        /* \"#utility.yul\":67:76   */\n      mload\n        /* \"#utility.yul\":57:76   */\n      swap1\n      pop\n        /* \"#utility.yul\":7:82   */\n      swap1\n      jump\t// out\n        /* \"#utility.yul\":88:205   */\n    tag_354:\n        /* \"#utility.yul\":197:198   */\n      0x00\n        /* \"#utility.yul\":194:195   */\n      dup1\n        /* \"#utility.yul\":187:199   */\n      revert\n        /* \"#utility.yul\":211:328   */\n    tag_355:\n        /* \"#utility.yul\":320:321   */\n      0x00\n        /* \"#utility.yul\":317:318   */\n      dup1\n        /* \"#utility.yul\":310:322   */\n      revert\n        /* \"#utility.yul\":334:411   */\n    tag_356:\n        /* \"#utility.yul\":371:378   */\n      0x00\n        /* \"#utility.yul\":400:405   */\n      dup2\n        /* \"#utility.yul\":389:405   */\n      swap1\n      pop\n        /* \"#utility.yul\":334:411   */\n      swap2\n      swap1\n      pop\n      jump\t// out\n        /* \"#utility.yul\":417:539   */\n    tag_357:\n        /* \"#utility.yul\":490:514   */\n      tag_447\n        /* \"#utility.yul\":508:513   */\n      dup2\n        /* \"#utility.yul\":490:514   */\n      tag_356\n      jump\t// in\n    tag_447:\n        /* \"#utility.yul\":483:488   */\n      dup2\n        /* \"#utility.yul\":480:515   */\n      eq\n        /* \"#utility.yul\":470:533   */\n      tag_448\n      jumpi\n        /* \"#utility.yul\":529:530   */\n      0x00\n        /* \"#utility.yul\":526:527   */\n      dup1\n        /* \"#utility.yul\":519:531   */\n      revert\n        /* \"#utility.yul\":470:533   */\n    tag_448:\n        /* \"#utility.yul\":417:539   */\n      pop\n      jump\t// out\n        /* \"#utility.yul\":545:684   */\n    tag_358:\n        /* \"#utility.yul\":591:596   */\n      0x00\n        /* \"#utility.yul\":629:635   */\n      dup2\n        /* \"#utility.yul\":616:636   */\n      calldataload\n        /* \"#utility.yul\":607:636   */\n      swap1\n      pop\n        /* \"#utility.yul\":645:678   */\n      tag_450\n        /* \"#utility.yul\":672:677   */\n      dup2\n        /* \"#utility.yul\":645:678   */\n      tag_357\n      jump\t// in\n    tag_450:\n        /* \"#utility.yul\":545:684   */\n      swap3\n      swap2\n      pop\n      pop\n      jump\t// out\n        /* \"#utility.yul\":690:1019   */\n    tag_41:\n        /* \"#utility.yul\":749:755   */\n      0x00\n        /* \"#utility.yul\":798:800   */\n      0x20\n        /* \"#utility.yul\":786:795   */\n      dup3\n        /* \"#utility.yul\":777:784   */\n      dup5\n        /* \"#utility.yul\":773:796   */\n      sub\n        /* \"#utility.yul\":769:801   */\n      slt\n        /* \"#utility.yul\":766:885   */\n      iszero\n      tag_452\n      jumpi\n        /* \"#utility.yul\":804:883   */\n      tag_453\n      tag_354\n      jump\t// in\n    tag_453:\n        /* \"#utility.yul\":766:885   */\n    tag_452:\n        /* \"#utility.yul\":924:925   */\n      0x00\n        /* \"#utility.yul\":949:1002   */\n      tag_454\n        /* \"#utility.yul\":994:1001   */\n      dup5\n        /* \"#utility.yul\":985:991   */\n      dup3\n        /* \"#utility.yul\":974:983   */\n      dup6\n        /* \"#utility.yul\":970:992   */\n      add\n        /* \"#utility.yul\":949:1002   */\n      tag_358\n      jump\t// in\n    tag_454:\n        /* \"#utility.yul\":939:1002   */\n      swap2\n      pop\n        /* \"#utility.yul\":895:1012   */\n      pop\n        /* \"#utility.yul\":690:1019   */\n      swap3\n      swap2\n      pop\n      pop\n      jump\t// out\n        /* \"#utility.yul\":1025:1143   */\n    tag_359:\n        /* \"#utility.yul\":1112:1136   */\n      tag_456\n        /* \"#utility.yul\":1130:1135   */\n      dup2\n        /* \"#utility.yul\":1112:1136   */\n      tag_356\n      jump\t// in\n    tag_456:\n        /* \"#utility.yul\":1107:1110   */\n      dup3\n        /* \"#utility.yul\":1100:1137   */\n      mstore\n        /* \"#utility.yul\":1025:1143   */\n      pop\n      pop\n      jump\t// out\n        /* \"#utility.yul\":1149:1226   */\n    tag_360:\n        /* \"#utility.yul\":1186:1193   */\n      0x00\n        /* \"#utility.yul\":1215:1220   */\n      dup2\n        /* \"#utility.yul\":1204:1220   */\n      swap1\n      pop\n        /* \"#utility.yul\":1149:1226   */\n      swap2\n      swap1\n      pop\n      jump\t// out\n        /* \"#utility.yul\":1232:1350   */\n    tag_361:\n        /* \"#utility.yul\":1319:1343   */\n      tag_459\n        /* \"#utility.yul\":1337:1342   */\n      dup2\n        /* \"#utility.yul\":1319:1343   */\n      tag_360\n      jump\t// in\n    tag_459:\n        /* \"#utility.yul\":1314:1317   */\n      dup3\n        /* \"#utility.yul\":1307:1344   */\n      mstore\n        /* \"#utility.yul\":1232:1350   */\n      pop\n      pop\n      jump\t// out\n        /* \"#utility.yul\":1356:1482   */\n    tag_362:\n        /* \"#utility.yul\":1393:1400   */\n      0x00\n        /* \"#utility.yul\":1433:1475   */\n      0xffffffffffffffffffffffffffffffffffffffff\n        /* \"#utility.yul\":1426:1431   */\n      dup3\n        /* \"#utility.yul\":1422:1476   */\n      and\n        /* \"#utility.yul\":1411:1476   */\n      swap1\n      pop\n        /* \"#utility.yul\":1356:1482   */\n      swap2\n      swap1\n      pop\n      jump\t// out\n        /* \"#utility.yul\":1488:1584   */\n    tag_363:\n        /* \"#utility.yul\":1525:1532   */\n      0x00\n        /* \"#utility.yul\":1554:1578   */\n      tag_462\n        /* \"#utility.yul\":1572:1577   */\n      dup3\n        /* \"#utility.yul\":1554:1578   */\n      tag_362\n      jump\t// in\n    tag_462:\n        /* \"#utility.yul\":1543:1578   */\n      swap1\n      pop\n        /* \"#utility.yul\":1488:1584   */\n      swap2\n      swap1\n      pop\n      jump\t// out\n        /* \"#utility.yul\":1590:1708   */\n    tag_364:\n        /* \"#utility.yul\":1677:1701   */\n      tag_464\n        /* \"#utility.yul\":1695:1700   */\n      dup2\n        /* \"#utility.yul\":1677:1701   */\n      tag_363\n      jump\t// in\n    tag_464:\n        /* \"#utility.yul\":1672:1675   */\n      dup3\n        /* \"#utility.yul\":1665:1702   */\n      mstore\n        /* \"#utility.yul\":1590:1708   */\n      pop\n      pop\n      jump\t// out\n        /* \"#utility.yul\":1714:1804   */\n    tag_365:\n        /* \"#utility.yul\":1748:1755   */\n      0x00\n        /* \"#utility.yul\":1791:1796   */\n      dup2\n        /* \"#utility.yul\":1784:1797   */\n      iszero\n        /* \"#utility.yul\":1777:1798   */\n      iszero\n        /* \"#utility.yul\":1766:1798   */\n      swap1\n      pop\n        /* \"#utility.yul\":1714:1804   */\n      swap2\n      swap1\n      pop\n      jump\t// out\n        /* \"#utility.yul\":1810:1919   */\n    tag_366:\n        /* \"#utility.yul\":1891:1912   */\n      tag_467\n        /* \"#utility.yul\":1906:1911   */\n      dup2\n        /* \"#utility.yul\":1891:1912   */\n      tag_365\n      jump\t// in\n    tag_467:\n        /* \"#utility.yul\":1886:1889   */\n      dup3\n        /* \"#utility.yul\":1879:1913   */\n      mstore\n        /* \"#utility.yul\":1810:1919   */\n      pop\n      pop\n      jump\t// out\n        /* \"#utility.yul\":1925:2898   */\n    tag_44:\n        /* \"#utility.yul\":2202:2206   */\n      0x00\n        /* \"#utility.yul\":2240:2243   */\n      0x0100\n        /* \"#utility.yul\":2229:2238   */\n      dup3\n        /* \"#utility.yul\":2225:2244   */\n      add\n        /* \"#utility.yul\":2217:2244   */\n      swap1\n      pop\n        /* \"#utility.yul\":2254:2325   */\n      tag_469\n        /* \"#utility.yul\":2322:2323   */\n      0x00\n        /* \"#utility.yul\":2311:2320   */\n      dup4\n        /* \"#utility.yul\":2307:2324   */\n      add\n        /* \"#utility.yul\":2298:2304   */\n      dup12\n        /* \"#utility.yul\":2254:2325   */\n      tag_359\n      jump\t// in\n    tag_469:\n        /* \"#utility.yul\":2335:2407   */\n      tag_470\n        /* \"#utility.yul\":2403:2405   */\n      0x20\n        /* \"#utility.yul\":2392:2401   */\n      dup4\n        /* \"#utility.yul\":2388:2406   */\n      add\n        /* \"#utility.yul\":2379:2385   */\n      dup11\n        /* \"#utility.yul\":2335:2407   */\n      tag_361\n      jump\t// in\n    tag_470:\n        /* \"#utility.yul\":2417:2489   */\n      tag_471\n        /* \"#utility.yul\":2485:2487   */\n      0x40\n        /* \"#utility.yul\":2474:2483   */\n      dup4\n        /* \"#utility.yul\":2470:2488   */\n      add\n        /* \"#utility.yul\":2461:2467   */\n      dup10\n        /* \"#utility.yul\":2417:2489   */\n      tag_361\n      jump\t// in\n    tag_471:\n        /* \"#utility.yul\":2499:2571   */\n      tag_472\n        /* \"#utility.yul\":2567:2569   */\n      0x60\n        /* \"#utility.yul\":2556:2565   */\n      dup4\n        /* \"#utility.yul\":2552:2570   */\n      add\n        /* \"#utility.yul\":2543:2549   */\n      dup9\n        /* \"#utility.yul\":2499:2571   */\n      tag_361\n      jump\t// in\n    tag_472:\n        /* \"#utility.yul\":2581:2654   */\n      tag_473\n        /* \"#utility.yul\":2649:2652   */\n      0x80\n        /* \"#utility.yul\":2638:2647   */\n      dup4\n        /* \"#utility.yul\":2634:2653   */\n      add\n        /* \"#utility.yul\":2625:2631   */\n      dup8\n        /* \"#utility.yul\":2581:2654   */\n      tag_359\n      jump\t// in\n    tag_473:\n        /* \"#utility.yul\":2664:2737   */\n      tag_474\n        /* \"#utility.yul\":2732:2735   */\n      0xa0\n        /* \"#utility.yul\":2721:2730   */\n      dup4\n        /* \"#utility.yul\":2717:2736   */\n      add\n        /* \"#utility.yul\":2708:2714   */\n      dup7\n        /* \"#utility.yul\":2664:2737   */\n      tag_364\n      jump\t// in\n    tag_474:\n        /* \"#utility.yul\":2747:2814   */\n      tag_475\n        /* \"#utility.yul\":2809:2812   */\n      0xc0\n        /* \"#utility.yul\":2798:2807   */\n      dup4\n        /* \"#utility.yul\":2794:2813   */\n      add\n        /* \"#utility.yul\":2785:2791   */\n      dup6\n        /* \"#utility.yul\":2747:2814   */\n      tag_366\n      jump\t// in\n    tag_475:\n        /* \"#utility.yul\":2824:2891   */\n      tag_476\n        /* \"#utility.yul\":2886:2889   */\n      0xe0\n        /* \"#utility.yul\":2875:2884   */\n      dup4\n        /* \"#utility.yul\":2871:2890   */\n      add\n        /* \"#utility.yul\":2862:2868   */\n      dup5\n        /* \"#utility.yul\":2824:2891   */\n      tag_366\n      jump\t// in\n    tag_476:\n        /* \"#utility.yul\":1925:2898   */\n      swap10\n      swap9\n      pop\n      pop\n      pop\n      pop\n      pop\n      pop\n      pop\n      pop\n      pop\n      jump\t// out\n        /* \"#utility.yul\":2904:3026   */\n    tag_367:\n        /* \"#utility.yul\":2977:3001   */\n      tag_478\n        /* \"#utility.yul\":2995:3000   */\n      dup2\n        /* \"#utility.yul\":2977:3001   */\n      tag_360\n      jump\t// in\n    tag_478:\n        /* \"#utility.yul\":2970:2975   */\n      dup2\n        /* \"#utility.yul\":2967:3002   */\n      eq\n        /* \"#utility.yul\":2957:3020   */\n      tag_479\n      jumpi\n        /* \"#utility.yul\":3016:3017   */\n      0x00\n        /* \"#utility.yul\":3013:3014   */\n      dup1\n        /* \"#utility.yul\":3006:3018   */\n      revert\n        /* \"#utility.yul\":2957:3020   */\n    tag_479:\n        /* \"#utility.yul\":2904:3026   */\n      pop\n      jump\t// out\n        /* \"#utility.yul\":3032:3171   */\n    tag_368:\n        /* \"#utility.yul\":3078:3083   */\n      0x00\n        /* \"#utility.yul\":3116:3122   */\n      dup2\n        /* \"#utility.yul\":3103:3123   */\n      calldataload\n        /* \"#utility.yul\":3094:3123   */\n      swap1\n      pop\n        /* \"#utility.yul\":3132:3165   */\n      tag_481\n        /* \"#utility.yul\":3159:3164   */\n      dup2\n        /* \"#utility.yul\":3132:3165   */\n      tag_367\n      jump\t// in\n    tag_481:\n        /* \"#utility.yul\":3032:3171   */\n      swap3\n      swap2\n      pop\n      pop\n      jump\t// out\n        /* \"#utility.yul\":3177:3651   */\n    tag_47:\n        /* \"#utility.yul\":3245:3251   */\n      0x00\n        /* \"#utility.yul\":3253:3259   */\n      dup1\n        /* \"#utility.yul\":3302:3304   */\n      0x40\n        /* \"#utility.yul\":3290:3299   */\n      dup4\n        /* \"#utility.yul\":3281:3288   */\n      dup6\n        /* \"#utility.yul\":3277:3300   */\n      sub\n        /* \"#utility.yul\":3273:3305   */\n      slt\n        /* \"#utility.yul\":3270:3389   */\n      iszero\n      tag_483\n      jumpi\n        /* \"#utility.yul\":3308:3387   */\n      tag_484\n      tag_354\n      jump\t// in\n    tag_484:\n        /* \"#utility.yul\":3270:3389   */\n    tag_483:\n        /* \"#utility.yul\":3428:3429   */\n      0x00\n        /* \"#utility.yul\":3453:3506   */\n      tag_485\n        /* \"#utility.yul\":3498:3505   */\n      dup6\n        /* \"#utility.yul\":3489:3495   */\n      dup3\n        /* \"#utility.yul\":3478:3487   */\n      dup7\n        /* \"#utility.yul\":3474:3496   */\n      add\n        /* \"#utility.yul\":3453:3506   */\n      tag_358\n      jump\t// in\n    tag_485:\n        /* \"#utility.yul\":3443:3506   */\n      swap3\n      pop\n        /* \"#utility.yul\":3399:3516   */\n      pop\n        /* \"#utility.yul\":3555:3557   */\n      0x20\n        /* \"#utility.yul\":3581:3634   */\n      tag_486\n        /* \"#utility.yul\":3626:3633   */\n      dup6\n        /* \"#utility.yul\":3617:3623   */\n      dup3\n        /* \"#utility.yul\":3606:3615   */\n      dup7\n        /* \"#utility.yul\":3602:3624   */\n      add\n        /* \"#utility.yul\":3581:3634   */\n      tag_368\n      jump\t// in\n    tag_486:\n        /* \"#utility.yul\":3571:3634   */\n      swap2\n      pop\n        /* \"#utility.yul\":3526:3644   */\n      pop\n        /* \"#utility.yul\":3177:3651   */\n      swap3\n      pop\n      swap3\n      swap1\n      pop\n      jump\t// out\n        /* \"#utility.yul\":3657:3879   */\n    tag_50:\n        /* \"#utility.yul\":3750:3754   */\n      0x00\n        /* \"#utility.yul\":3788:3790   */\n      0x20\n        /* \"#utility.yul\":3777:3786   */\n      dup3\n        /* \"#utility.yul\":3773:3791   */\n      add\n        /* \"#utility.yul\":3765:3791   */\n      swap1\n      pop\n        /* \"#utility.yul\":3801:3872   */\n      tag_488\n        /* \"#utility.yul\":3869:3870   */\n      0x00\n        /* \"#utility.yul\":3858:3867   */\n      dup4\n        /* \"#utility.yul\":3854:3871   */\n      add\n        /* \"#utility.yul\":3845:3851   */\n      dup5\n        /* \"#utility.yul\":3801:3872   */\n      tag_359\n      jump\t// in\n    tag_488:\n        /* \"#utility.yul\":3657:3879   */\n      swap3\n      swap2\n      pop\n      pop\n      jump\t// out\n        /* \"#utility.yul\":3885:3999   */\n    tag_369:\n        /* \"#utility.yul\":3952:3958   */\n      0x00\n        /* \"#utility.yul\":3986:3991   */\n      dup2\n        /* \"#utility.yul\":3980:3992   */\n      mload\n        /* \"#utility.yul\":3970:3992   */\n      swap1\n      pop\n        /* \"#utility.yul\":3885:3999   */\n      swap2\n      swap1\n      pop\n      jump\t// out\n        /* \"#utility.yul\":4005:4189   */\n    tag_370:\n        /* \"#utility.yul\":4104:4115   */\n      0x00\n        /* \"#utility.yul\":4138:4144   */\n      dup3\n        /* \"#utility.yul\":4133:4136   */\n      dup3\n        /* \"#utility.yul\":4126:4145   */\n      mstore\n        /* \"#utility.yul\":4178:4182   */\n      0x20\n        /* \"#utility.yul\":4173:4176   */\n      dup3\n        /* \"#utility.yul\":4169:4183   */\n      add\n        /* \"#utility.yul\":4154:4183   */\n      swap1\n      pop\n        /* \"#utility.yul\":4005:4189   */\n      swap3\n      swap2\n      pop\n      pop\n      jump\t// out\n        /* \"#utility.yul\":4195:4327   */\n    tag_371:\n        /* \"#utility.yul\":4262:4266   */\n      0x00\n        /* \"#utility.yul\":4285:4288   */\n      dup2\n        /* \"#utility.yul\":4277:4288   */\n      swap1\n      pop\n        /* \"#utility.yul\":4315:4319   */\n      0x20\n        /* \"#utility.yul\":4310:4313   */\n      dup3\n        /* \"#utility.yul\":4306:4320   */\n      add\n        /* \"#utility.yul\":4298:4320   */\n      swap1\n      pop\n        /* \"#utility.yul\":4195:4327   */\n      swap2\n      swap1\n      pop\n      jump\t// out\n        /* \"#utility.yul\":4333:4441   */\n    tag_372:\n        /* \"#utility.yul\":4410:4434   */\n      tag_493\n        /* \"#utility.yul\":4428:4433   */\n      dup2\n        /* \"#utility.yul\":4410:4434   */\n      tag_363\n      jump\t// in\n    tag_493:\n        /* \"#utility.yul\":4405:4408   */\n      dup3\n        /* \"#utility.yul\":4398:4435   */\n      mstore\n        /* \"#utility.yul\":4333:4441   */\n      pop\n      pop\n      jump\t// out\n        /* \"#utility.yul\":4447:4626   */\n    tag_373:\n        /* \"#utility.yul\":4516:4526   */\n      0x00\n        /* \"#utility.yul\":4537:4583   */\n      tag_495\n        /* \"#utility.yul\":4579:4582   */\n      dup4\n        /* \"#utility.yul\":4571:4577   */\n      dup4\n        /* \"#utility.yul\":4537:4583   */\n      tag_372\n      jump\t// in\n    tag_495:\n        /* \"#utility.yul\":4615:4619   */\n      0x20\n        /* \"#utility.yul\":4610:4613   */\n      dup4\n        /* \"#utility.yul\":4606:4620   */\n      add\n        /* \"#utility.yul\":4592:4620   */\n      swap1\n      pop\n        /* \"#utility.yul\":4447:4626   */\n      swap3\n      swap2\n      pop\n      pop\n      jump\t// out\n        /* \"#utility.yul\":4632:4745   */\n    tag_374:\n        /* \"#utility.yul\":4702:4706   */\n      0x00\n        /* \"#utility.yul\":4734:4738   */\n      0x20\n        /* \"#utility.yul\":4729:4732   */\n      dup3\n        /* \"#utility.yul\":4725:4739   */\n      add\n        /* \"#utility.yul\":4717:4739   */\n      swap1\n      pop\n        /* \"#utility.yul\":4632:4745   */\n      swap2\n      swap1\n      pop\n      jump\t// out\n        /* \"#utility.yul\":4781:5513   */\n    tag_375:\n        /* \"#utility.yul\":4900:4903   */\n      0x00\n        /* \"#utility.yul\":4929:4983   */\n      tag_498\n        /* \"#utility.yul\":4977:4982   */\n      dup3\n        /* \"#utility.yul\":4929:4983   */\n      tag_369\n      jump\t// in\n    tag_498:\n        /* \"#utility.yul\":4999:5085   */\n      tag_499\n        /* \"#utility.yul\":5078:5084   */\n      dup2\n        /* \"#utility.yul\":5073:5076   */\n      dup6\n        /* \"#utility.yul\":4999:5085   */\n      tag_370\n      jump\t// in\n    tag_499:\n        /* \"#utility.yul\":4992:5085   */\n      swap4\n      pop\n        /* \"#utility.yul\":5109:5165   */\n      tag_500\n        /* \"#utility.yul\":5159:5164   */\n      dup4\n        /* \"#utility.yul\":5109:5165   */\n      tag_371\n      jump\t// in\n    tag_500:\n        /* \"#utility.yul\":5188:5195   */\n      dup1\n        /* \"#utility.yul\":5219:5220   */\n      0x00\n        /* \"#utility.yul\":5204:5488   */\n    tag_501:\n        /* \"#utility.yul\":5229:5235   */\n      dup4\n        /* \"#utility.yul\":5226:5227   */\n      dup2\n        /* \"#utility.yul\":5223:5236   */\n      lt\n        /* \"#utility.yul\":5204:5488   */\n      iszero\n      tag_503\n      jumpi\n        /* \"#utility.yul\":5305:5311   */\n      dup2\n        /* \"#utility.yul\":5299:5312   */\n      mload\n        /* \"#utility.yul\":5332:5395   */\n      tag_504\n        /* \"#utility.yul\":5391:5394   */\n      dup9\n        /* \"#utility.yul\":5376:5389   */\n      dup3\n        /* \"#utility.yul\":5332:5395   */\n      tag_373\n      jump\t// in\n    tag_504:\n        /* \"#utility.yul\":5325:5395   */\n      swap8\n      pop\n        /* \"#utility.yul\":5418:5478   */\n      tag_505\n        /* \"#utility.yul\":5471:5477   */\n      dup4\n        /* \"#utility.yul\":5418:5478   */\n      tag_374\n      jump\t// in\n    tag_505:\n        /* \"#utility.yul\":5408:5478   */\n      swap3\n      pop\n        /* \"#utility.yul\":5264:5488   */\n      pop\n        /* \"#utility.yul\":5251:5252   */\n      0x01\n        /* \"#utility.yul\":5248:5249   */\n      dup2\n        /* \"#utility.yul\":5244:5253   */\n      add\n        /* \"#utility.yul\":5239:5253   */\n      swap1\n      pop\n        /* \"#utility.yul\":5204:5488   */\n      jump(tag_501)\n    tag_503:\n        /* \"#utility.yul\":5208:5222   */\n      pop\n        /* \"#utility.yul\":5504:5507   */\n      dup6\n        /* \"#utility.yul\":5497:5507   */\n      swap4\n      pop\n        /* \"#utility.yul\":4905:5513   */\n      pop\n      pop\n      pop\n        /* \"#utility.yul\":4781:5513   */\n      swap3\n      swap2\n      pop\n      pop\n      jump\t// out\n        /* \"#utility.yul\":5519:5892   */\n    tag_55:\n        /* \"#utility.yul\":5662:5666   */\n      0x00\n        /* \"#utility.yul\":5700:5702   */\n      0x20\n        /* \"#utility.yul\":5689:5698   */\n      dup3\n        /* \"#utility.yul\":5685:5703   */\n      add\n        /* \"#utility.yul\":5677:5703   */\n      swap1\n      pop\n        /* \"#utility.yul\":5749:5758   */\n      dup2\n        /* \"#utility.yul\":5743:5747   */\n      dup2\n        /* \"#utility.yul\":5739:5759   */\n      sub\n        /* \"#utility.yul\":5735:5736   */\n      0x00\n        /* \"#utility.yul\":5724:5733   */\n      dup4\n        /* \"#utility.yul\":5720:5737   */\n      add\n        /* \"#utility.yul\":5713:5760   */\n      mstore\n        /* \"#utility.yul\":5777:5885   */\n      tag_507\n        /* \"#utility.yul\":5880:5884   */\n      dup2\n        /* \"#utility.yul\":5871:5877   */\n      dup5\n        /* \"#utility.yul\":5777:5885   */\n      tag_375\n      jump\t// in\n    tag_507:\n        /* \"#utility.yul\":5769:5885   */\n      swap1\n      pop\n        /* \"#utility.yul\":5519:5892   */\n      swap3\n      swap2\n      pop\n      pop\n      jump\t// out\n        /* \"#utility.yul\":5898:6020   */\n    tag_376:\n        /* \"#utility.yul\":5971:5995   */\n      tag_509\n        /* \"#utility.yul\":5989:5994   */\n      dup2\n        /* \"#utility.yul\":5971:5995   */\n      tag_363\n      jump\t// in\n    tag_509:\n        /* \"#utility.yul\":5964:5969   */\n      dup2\n        /* \"#utility.yul\":5961:5996   */\n      eq\n        /* \"#utility.yul\":5951:6014   */\n      tag_510\n      jumpi\n        /* \"#utility.yul\":6010:6011   */\n      0x00\n        /* \"#utility.yul\":6007:6008   */\n      dup1\n        /* \"#utility.yul\":6000:6012   */\n      revert\n        /* \"#utility.yul\":5951:6014   */\n    tag_510:\n        /* \"#utility.yul\":5898:6020   */\n      pop\n      jump\t// out\n        /* \"#utility.yul\":6026:6165   */\n    tag_377:\n        /* \"#utility.yul\":6072:6077   */\n      0x00\n        /* \"#utility.yul\":6110:6116   */\n      dup2\n        /* \"#utility.yul\":6097:6117   */\n      calldataload\n        /* \"#utility.yul\":6088:6117   */\n      swap1\n      pop\n        /* \"#utility.yul\":6126:6159   */\n      tag_512\n        /* \"#utility.yul\":6153:6158   */\n      dup2\n        /* \"#utility.yul\":6126:6159   */\n      tag_376\n      jump\t// in\n    tag_512:\n        /* \"#utility.yul\":6026:6165   */\n      swap3\n      swap2\n      pop\n      pop\n      jump\t// out\n        /* \"#utility.yul\":6171:6500   */\n    tag_58:\n        /* \"#utility.yul\":6230:6236   */\n      0x00\n        /* \"#utility.yul\":6279:6281   */\n      0x20\n        /* \"#utility.yul\":6267:6276   */\n      dup3\n        /* \"#utility.yul\":6258:6265   */\n      dup5\n        /* \"#utility.yul\":6254:6277   */\n      sub\n        /* \"#utility.yul\":6250:6282   */\n      slt\n        /* \"#utility.yul\":6247:6366   */\n      iszero\n      tag_514\n      jumpi\n        /* \"#utility.yul\":6285:6364   */\n      tag_515\n      tag_354\n      jump\t// in\n    tag_515:\n        /* \"#utility.yul\":6247:6366   */\n    tag_514:\n        /* \"#utility.yul\":6405:6406   */\n      0x00\n        /* \"#utility.yul\":6430:6483   */\n      tag_516\n        /* \"#utility.yul\":6475:6482   */\n      dup5\n        /* \"#utility.yul\":6466:6472   */\n      dup3\n        /* \"#utility.yul\":6455:6464   */\n      dup6\n        /* \"#utility.yul\":6451:6473   */\n      add\n        /* \"#utility.yul\":6430:6483   */\n      tag_377\n      jump\t// in\n    tag_516:\n        /* \"#utility.yul\":6420:6483   */\n      swap2\n      pop\n        /* \"#utility.yul\":6376:6493   */\n      pop\n        /* \"#utility.yul\":6171:6500   */\n      swap3\n      swap2\n      pop\n      pop\n      jump\t// out\n        /* \"#utility.yul\":6506:7269   */\n    tag_61:\n        /* \"#utility.yul\":6733:6737   */\n      0x00\n        /* \"#utility.yul\":6771:6774   */\n      0xc0\n        /* \"#utility.yul\":6760:6769   */\n      dup3\n        /* \"#utility.yul\":6756:6775   */\n      add\n        /* \"#utility.yul\":6748:6775   */\n      swap1\n      pop\n        /* \"#utility.yul\":6785:6856   */\n      tag_518\n        /* \"#utility.yul\":6853:6854   */\n      0x00\n        /* \"#utility.yul\":6842:6851   */\n      dup4\n        /* \"#utility.yul\":6838:6855   */\n      add\n        /* \"#utility.yul\":6829:6835   */\n      dup10\n        /* \"#utility.yul\":6785:6856   */\n      tag_359\n      jump\t// in\n    tag_518:\n        /* \"#utility.yul\":6866:6938   */\n      tag_519\n        /* \"#utility.yul\":6934:6936   */\n      0x20\n        /* \"#utility.yul\":6923:6932   */\n      dup4\n        /* \"#utility.yul\":6919:6937   */\n      add\n        /* \"#utility.yul\":6910:6916   */\n      dup9\n        /* \"#utility.yul\":6866:6938   */\n      tag_361\n      jump\t// in\n    tag_519:\n        /* \"#utility.yul\":6948:7020   */\n      tag_520\n        /* \"#utility.yul\":7016:7018   */\n      0x40\n        /* \"#utility.yul\":7005:7014   */\n      dup4\n        /* \"#utility.yul\":7001:7019   */\n      add\n        /* \"#utility.yul\":6992:6998   */\n      dup8\n        /* \"#utility.yul\":6948:7020   */\n      tag_361\n      jump\t// in\n    tag_520:\n        /* \"#utility.yul\":7030:7102   */\n      tag_521\n        /* \"#utility.yul\":7098:7100   */\n      0x60\n        /* \"#utility.yul\":7087:7096   */\n      dup4\n        /* \"#utility.yul\":7083:7101   */\n      add\n        /* \"#utility.yul\":7074:7080   */\n      dup7\n        /* \"#utility.yul\":7030:7102   */\n      tag_361\n      jump\t// in\n    tag_521:\n        /* \"#utility.yul\":7112:7185   */\n      tag_522\n        /* \"#utility.yul\":7180:7183   */\n      0x80\n        /* \"#utility.yul\":7169:7178   */\n      dup4\n        /* \"#utility.yul\":7165:7184   */\n      add\n        /* \"#utility.yul\":7156:7162   */\n      dup6\n        /* \"#utility.yul\":7112:7185   */\n      tag_361\n      jump\t// in\n    tag_522:\n        /* \"#utility.yul\":7195:7262   */\n      tag_523\n        /* \"#utility.yul\":7257:7260   */\n      0xa0\n        /* \"#utility.yul\":7246:7255   */\n      dup4\n        /* \"#utility.yul\":7242:7261   */\n      add\n        /* \"#utility.yul\":7233:7239   */\n      dup5\n        /* \"#utility.yul\":7195:7262   */\n      tag_366\n      jump\t// in\n    tag_523:\n        /* \"#utility.yul\":6506:7269   */\n      swap8\n      swap7\n      pop\n      pop\n      pop\n      pop\n      pop\n      pop\n      pop\n      jump\t// out\n        /* \"#utility.yul\":7275:7335   */\n    tag_378:\n        /* \"#utility.yul\":7303:7306   */\n      0x00\n        /* \"#utility.yul\":7324:7329   */\n      dup2\n        /* \"#utility.yul\":7317:7329   */\n      swap1\n      pop\n        /* \"#utility.yul\":7275:7335   */\n      swap2\n      swap1\n      pop\n      jump\t// out\n        /* \"#utility.yul\":7341:7483   */\n    tag_379:\n        /* \"#utility.yul\":7391:7400   */\n      0x00\n        /* \"#utility.yul\":7424:7477   */\n      tag_526\n        /* \"#utility.yul\":7442:7476   */\n      tag_527\n        /* \"#utility.yul\":7451:7475   */\n      tag_528\n        /* \"#utility.yul\":7469:7474   */\n      dup5\n        /* \"#utility.yul\":7451:7475   */\n      tag_362\n      jump\t// in\n    tag_528:\n        /* \"#utility.yul\":7442:7476   */\n      tag_378\n      jump\t// in\n    tag_527:\n        /* \"#utility.yul\":7424:7477   */\n      tag_362\n      jump\t// in\n    tag_526:\n        /* \"#utility.yul\":7411:7477   */\n      swap1\n      pop\n        /* \"#utility.yul\":7341:7483   */\n      swap2\n      swap1\n      pop\n      jump\t// out\n        /* \"#utility.yul\":7489:7615   */\n    tag_380:\n        /* \"#utility.yul\":7539:7548   */\n      0x00\n        /* \"#utility.yul\":7572:7609   */\n      tag_530\n        /* \"#utility.yul\":7603:7608   */\n      dup3\n        /* \"#utility.yul\":7572:7609   */\n      tag_379\n      jump\t// in\n    tag_530:\n        /* \"#utility.yul\":7559:7609   */\n      swap1\n      pop\n        /* \"#utility.yul\":7489:7615   */\n      swap2\n      swap1\n      pop\n      jump\t// out\n        /* \"#utility.yul\":7621:7764   */\n    tag_381:\n        /* \"#utility.yul\":7688:7697   */\n      0x00\n        /* \"#utility.yul\":7721:7758   */\n      tag_532\n        /* \"#utility.yul\":7752:7757   */\n      dup3\n        /* \"#utility.yul\":7721:7758   */\n      tag_380\n      jump\t// in\n    tag_532:\n        /* \"#utility.yul\":7708:7758   */\n      swap1\n      pop\n        /* \"#utility.yul\":7621:7764   */\n      swap2\n      swap1\n      pop\n      jump\t// out\n        /* \"#utility.yul\":7770:7935   */\n    tag_382:\n        /* \"#utility.yul\":7874:7928   */\n      tag_534\n        /* \"#utility.yul\":7922:7927   */\n      dup2\n        /* \"#utility.yul\":7874:7928   */\n      tag_381\n      jump\t// in\n    tag_534:\n        /* \"#utility.yul\":7869:7872   */\n      dup3\n        /* \"#utility.yul\":7862:7929   */\n      mstore\n        /* \"#utility.yul\":7770:7935   */\n      pop\n      pop\n      jump\t// out\n        /* \"#utility.yul\":7941:8197   */\n    tag_65:\n        /* \"#utility.yul\":8051:8055   */\n      0x00\n        /* \"#utility.yul\":8089:8091   */\n      0x20\n        /* \"#utility.yul\":8078:8087   */\n      dup3\n        /* \"#utility.yul\":8074:8092   */\n      add\n        /* \"#utility.yul\":8066:8092   */\n      swap1\n      pop\n        /* \"#utility.yul\":8102:8190   */\n      tag_536\n        /* \"#utility.yul\":8187:8188   */\n      0x00\n        /* \"#utility.yul\":8176:8185   */\n      dup4\n        /* \"#utility.yul\":8172:8189   */\n      add\n        /* \"#utility.yul\":8163:8169   */\n      dup5\n        /* \"#utility.yul\":8102:8190   */\n      tag_382\n      jump\t// in\n    tag_536:\n        /* \"#utility.yul\":7941:8197   */\n      swap3\n      swap2\n      pop\n      pop\n      jump\t// out\n        /* \"#utility.yul\":8203:8677   */\n    tag_68:\n        /* \"#utility.yul\":8271:8277   */\n      0x00\n        /* \"#utility.yul\":8279:8285   */\n      dup1\n        /* \"#utility.yul\":8328:8330   */\n      0x40\n        /* \"#utility.yul\":8316:8325   */\n      dup4\n        /* \"#utility.yul\":8307:8314   */\n      dup6\n        /* \"#utility.yul\":8303:8326   */\n      sub\n        /* \"#utility.yul\":8299:8331   */\n      slt\n        /* \"#utility.yul\":8296:8415   */\n      iszero\n      tag_538\n      jumpi\n        /* \"#utility.yul\":8334:8413   */\n      tag_539\n      tag_354\n      jump\t// in\n    tag_539:\n        /* \"#utility.yul\":8296:8415   */\n    tag_538:\n        /* \"#utility.yul\":8454:8455   */\n      0x00\n        /* \"#utility.yul\":8479:8532   */\n      tag_540\n        /* \"#utility.yul\":8524:8531   */\n      dup6\n        /* \"#utility.yul\":8515:8521   */\n      dup3\n        /* \"#utility.yul\":8504:8513   */\n      dup7\n        /* \"#utility.yul\":8500:8522   */\n      add\n        /* \"#utility.yul\":8479:8532   */\n      tag_358\n      jump\t// in\n    tag_540:\n        /* \"#utility.yul\":8469:8532   */\n      swap3\n      pop\n        /* \"#utility.yul\":8425:8542   */\n      pop\n        /* \"#utility.yul\":8581:8583   */\n      0x20\n        /* \"#utility.yul\":8607:8660   */\n      tag_541\n        /* \"#utility.yul\":8652:8659   */\n      dup6\n        /* \"#utility.yul\":8643:8649   */\n      dup3\n        /* \"#utility.yul\":8632:8641   */\n      dup7\n        /* \"#utility.yul\":8628:8650   */\n      add\n        /* \"#utility.yul\":8607:8660   */\n      tag_377\n      jump\t// in\n    tag_541:\n        /* \"#utility.yul\":8597:8660   */\n      swap2\n      pop\n        /* \"#utility.yul\":8552:8670   */\n      pop\n        /* \"#utility.yul\":8203:8677   */\n      swap3\n      pop\n      swap3\n      swap1\n      pop\n      jump\t// out\n        /* \"#utility.yul\":8683:8893   */\n    tag_71:\n        /* \"#utility.yul\":8770:8774   */\n      0x00\n        /* \"#utility.yul\":8808:8810   */\n      0x20\n        /* \"#utility.yul\":8797:8806   */\n      dup3\n        /* \"#utility.yul\":8793:8811   */\n      add\n        /* \"#utility.yul\":8785:8811   */\n      swap1\n      pop\n        /* \"#utility.yul\":8821:8886   */\n      tag_543\n        /* \"#utility.yul\":8883:8884   */\n      0x00\n        /* \"#utility.yul\":8872:8881   */\n      dup4\n        /* \"#utility.yul\":8868:8885   */\n      add\n        /* \"#utility.yul\":8859:8865   */\n      dup5\n        /* \"#utility.yul\":8821:8886   */\n      tag_366\n      jump\t// in\n    tag_543:\n        /* \"#utility.yul\":8683:8893   */\n      swap3\n      swap2\n      pop\n      pop\n      jump\t// out\n        /* \"#utility.yul\":8899:9046   */\n    tag_383:\n        /* \"#utility.yul\":8970:8979   */\n      0x00\n        /* \"#utility.yul\":9003:9040   */\n      tag_545\n        /* \"#utility.yul\":9034:9039   */\n      dup3\n        /* \"#utility.yul\":9003:9040   */\n      tag_380\n      jump\t// in\n    tag_545:\n        /* \"#utility.yul\":8990:9040   */\n      swap1\n      pop\n        /* \"#utility.yul\":8899:9046   */\n      swap2\n      swap1\n      pop\n      jump\t// out\n        /* \"#utility.yul\":9052:9225   */\n    tag_384:\n        /* \"#utility.yul\":9160:9218   */\n      tag_547\n        /* \"#utility.yul\":9212:9217   */\n      dup2\n        /* \"#utility.yul\":9160:9218   */\n      tag_383\n      jump\t// in\n    tag_547:\n        /* \"#utility.yul\":9155:9158   */\n      dup3\n        /* \"#utility.yul\":9148:9219   */\n      mstore\n        /* \"#utility.yul\":9052:9225   */\n      pop\n      pop\n      jump\t// out\n        /* \"#utility.yul\":9231:9495   */\n    tag_77:\n        /* \"#utility.yul\":9345:9349   */\n      0x00\n        /* \"#utility.yul\":9383:9385   */\n      0x20\n        /* \"#utility.yul\":9372:9381   */\n      dup3\n        /* \"#utility.yul\":9368:9386   */\n      add\n        /* \"#utility.yul\":9360:9386   */\n      swap1\n      pop\n        /* \"#utility.yul\":9396:9488   */\n      tag_549\n        /* \"#utility.yul\":9485:9486   */\n      0x00\n        /* \"#utility.yul\":9474:9483   */\n      dup4\n        /* \"#utility.yul\":9470:9487   */\n      add\n        /* \"#utility.yul\":9461:9467   */\n      dup5\n        /* \"#utility.yul\":9396:9488   */\n      tag_384\n      jump\t// in\n    tag_549:\n        /* \"#utility.yul\":9231:9495   */\n      swap3\n      swap2\n      pop\n      pop\n      jump\t// out\n        /* \"#utility.yul\":9501:9618   */\n    tag_385:\n        /* \"#utility.yul\":9610:9611   */\n      0x00\n        /* \"#utility.yul\":9607:9608   */\n      dup1\n        /* \"#utility.yul\":9600:9612   */\n      revert\n        /* \"#utility.yul\":9624:9741   */\n    tag_386:\n        /* \"#utility.yul\":9733:9734   */\n      0x00\n        /* \"#utility.yul\":9730:9731   */\n      dup1\n        /* \"#utility.yul\":9723:9735   */\n      revert\n        /* \"#utility.yul\":9747:9849   */\n    tag_387:\n        /* \"#utility.yul\":9788:9794   */\n      0x00\n        /* \"#utility.yul\":9839:9841   */\n      0x1f\n        /* \"#utility.yul\":9835:9842   */\n      not\n        /* \"#utility.yul\":9830:9832   */\n      0x1f\n        /* \"#utility.yul\":9823:9828   */\n      dup4\n        /* \"#utility.yul\":9819:9833   */\n      add\n        /* \"#utility.yul\":9815:9843   */\n      and\n        /* \"#utility.yul\":9805:9843   */\n      swap1\n      pop\n        /* \"#utility.yul\":9747:9849   */\n      swap2\n      swap1\n      pop\n      jump\t// out\n        /* \"#utility.yul\":9855:10035   */\n    tag_160:\n        /* \"#utility.yul\":9903:9980   */\n      0x4e487b7100000000000000000000000000000000000000000000000000000000\n        /* \"#utility.yul\":9900:9901   */\n      0x00\n        /* \"#utility.yul\":9893:9981   */\n      mstore\n        /* \"#utility.yul\":10000:10004   */\n      0x41\n        /* \"#utility.yul\":9997:9998   */\n      0x04\n        /* \"#utility.yul\":9990:10005   */\n      mstore\n        /* \"#utility.yul\":10024:10028   */\n      0x24\n        /* \"#utility.yul\":10021:10022   */\n      0x00\n        /* \"#utility.yul\":10014:10029   */\n      revert\n        /* \"#utility.yul\":10041:10322   */\n    tag_388:\n        /* \"#utility.yul\":10124:10151   */\n      tag_555\n        /* \"#utility.yul\":10146:10150   */\n      dup3\n        /* \"#utility.yul\":10124:10151   */\n      tag_387\n      jump\t// in\n    tag_555:\n        /* \"#utility.yul\":10116:10122   */\n      dup2\n        /* \"#utility.yul\":10112:10152   */\n      add\n        /* \"#utility.yul\":10254:10260   */\n      dup2\n        /* \"#utility.yul\":10242:10252   */\n      dup2\n        /* \"#utility.yul\":10239:10261   */\n      lt\n        /* \"#utility.yul\":10218:10236   */\n      0xffffffffffffffff\n        /* \"#utility.yul\":10206:10216   */\n      dup3\n        /* \"#utility.yul\":10203:10237   */\n      gt\n        /* \"#utility.yul\":10200:10262   */\n      or\n        /* \"#utility.yul\":10197:10285   */\n      iszero\n      tag_556\n      jumpi\n        /* \"#utility.yul\":10265:10283   */\n      tag_557\n      tag_160\n      jump\t// in\n    tag_557:\n        /* \"#utility.yul\":10197:10285   */\n    tag_556:\n        /* \"#utility.yul\":10305:10315   */\n      dup1\n        /* \"#utility.yul\":10301:10303   */\n      0x40\n        /* \"#utility.yul\":10294:10316   */\n      mstore\n        /* \"#utility.yul\":10084:10322   */\n      pop\n        /* \"#utility.yul\":10041:10322   */\n      pop\n      pop\n      jump\t// out\n        /* \"#utility.yul\":10328:10457   */\n    tag_389:\n        /* \"#utility.yul\":10362:10368   */\n      0x00\n        /* \"#utility.yul\":10389:10409   */\n      tag_559\n      tag_353\n      jump\t// in\n    tag_559:\n        /* \"#utility.yul\":10379:10409   */\n      swap1\n      pop\n        /* \"#utility.yul\":10418:10451   */\n      tag_560\n        /* \"#utility.yul\":10446:10450   */\n      dup3\n        /* \"#utility.yul\":10438:10444   */\n      dup3\n        /* \"#utility.yul\":10418:10451   */\n      tag_388\n      jump\t// in\n    tag_560:\n        /* \"#utility.yul\":10328:10457   */\n      swap2\n      swap1\n      pop\n      jump\t// out\n        /* \"#utility.yul\":10463:10770   */\n    tag_390:\n        /* \"#utility.yul\":10524:10528   */\n      0x00\n        /* \"#utility.yul\":10614:10632   */\n      0xffffffffffffffff\n        /* \"#utility.yul\":10606:10612   */\n      dup3\n        /* \"#utility.yul\":10603:10633   */\n      gt\n        /* \"#utility.yul\":10600:10656   */\n      iszero\n      tag_562\n      jumpi\n        /* \"#utility.yul\":10636:10654   */\n      tag_563\n      tag_160\n      jump\t// in\n    tag_563:\n        /* \"#utility.yul\":10600:10656   */\n    tag_562:\n        /* \"#utility.yul\":10674:10703   */\n      tag_564\n        /* \"#utility.yul\":10696:10702   */\n      dup3\n        /* \"#utility.yul\":10674:10703   */\n      tag_387\n      jump\t// in\n    tag_564:\n        /* \"#utility.yul\":10666:10703   */\n      swap1\n      pop\n        /* \"#utility.yul\":10758:10762   */\n      0x20\n        /* \"#utility.yul\":10752:10756   */\n      dup2\n        /* \"#utility.yul\":10748:10763   */\n      add\n        /* \"#utility.yul\":10740:10763   */\n      swap1\n      pop\n        /* \"#utility.yul\":10463:10770   */\n      swap2\n      swap1\n      pop\n      jump\t// out\n        /* \"#utility.yul\":10776:10924   */\n    tag_391:\n        /* \"#utility.yul\":10874:10880   */\n      dup3\n        /* \"#utility.yul\":10869:10872   */\n      dup2\n        /* \"#utility.yul\":10864:10867   */\n      dup4\n        /* \"#utility.yul\":10851:10881   */\n      calldatacopy\n        /* \"#utility.yul\":10915:10916   */\n      0x00\n        /* \"#utility.yul\":10906:10912   */\n      dup4\n        /* \"#utility.yul\":10901:10904   */\n      dup4\n        /* \"#utility.yul\":10897:10913   */\n      add\n        /* \"#utility.yul\":10890:10917   */\n      mstore\n        /* \"#utility.yul\":10776:10924   */\n      pop\n      pop\n      pop\n      jump\t// out\n        /* \"#utility.yul\":10930:11353   */\n    tag_392:\n        /* \"#utility.yul\":11007:11012   */\n      0x00\n        /* \"#utility.yul\":11032:11097   */\n      tag_567\n        /* \"#utility.yul\":11048:11096   */\n      tag_568\n        /* \"#utility.yul\":11089:11095   */\n      dup5\n        /* \"#utility.yul\":11048:11096   */\n      tag_390\n      jump\t// in\n    tag_568:\n        /* \"#utility.yul\":11032:11097   */\n      tag_389\n      jump\t// in\n    tag_567:\n        /* \"#utility.yul\":11023:11097   */\n      swap1\n      pop\n        /* \"#utility.yul\":11120:11126   */\n      dup3\n        /* \"#utility.yul\":11113:11118   */\n      dup2\n        /* \"#utility.yul\":11106:11127   */\n      mstore\n        /* \"#utility.yul\":11158:11162   */\n      0x20\n        /* \"#utility.yul\":11151:11156   */\n      dup2\n        /* \"#utility.yul\":11147:11163   */\n      add\n        /* \"#utility.yul\":11196:11199   */\n      dup5\n        /* \"#utility.yul\":11187:11193   */\n      dup5\n        /* \"#utility.yul\":11182:11185   */\n      dup5\n        /* \"#utility.yul\":11178:11194   */\n      add\n        /* \"#utility.yul\":11175:11200   */\n      gt\n        /* \"#utility.yul\":11172:11284   */\n      iszero\n      tag_569\n      jumpi\n        /* \"#utility.yul\":11203:11282   */\n      tag_570\n      tag_386\n      jump\t// in\n    tag_570:\n        /* \"#utility.yul\":11172:11284   */\n    tag_569:\n        /* \"#utility.yul\":11293:11347   */\n      tag_571\n        /* \"#utility.yul\":11340:11346   */\n      dup5\n        /* \"#utility.yul\":11335:11338   */\n      dup3\n        /* \"#utility.yul\":11330:11333   */\n      dup6\n        /* \"#utility.yul\":11293:11347   */\n      tag_391\n      jump\t// in\n    tag_571:\n        /* \"#utility.yul\":11013:11353   */\n      pop\n        /* \"#utility.yul\":10930:11353   */\n      swap4\n      swap3\n      pop\n      pop\n      pop\n      jump\t// out\n        /* \"#utility.yul\":11372:11710   */\n    tag_393:\n        /* \"#utility.yul\":11427:11432   */\n      0x00\n        /* \"#utility.yul\":11476:11479   */\n      dup3\n        /* \"#utility.yul\":11469:11473   */\n      0x1f\n        /* \"#utility.yul\":11461:11467   */\n      dup4\n        /* \"#utility.yul\":11457:11474   */\n      add\n        /* \"#utility.yul\":11453:11480   */\n      slt\n        /* \"#utility.yul\":11443:11565   */\n      tag_573\n      jumpi\n        /* \"#utility.yul\":11484:11563   */\n      tag_574\n      tag_385\n      jump\t// in\n    tag_574:\n        /* \"#utility.yul\":11443:11565   */\n    tag_573:\n        /* \"#utility.yul\":11601:11607   */\n      dup2\n        /* \"#utility.yul\":11588:11608   */\n      calldataload\n        /* \"#utility.yul\":11626:11704   */\n      tag_575\n        /* \"#utility.yul\":11700:11703   */\n      dup5\n        /* \"#utility.yul\":11692:11698   */\n      dup3\n        /* \"#utility.yul\":11685:11689   */\n      0x20\n        /* \"#utility.yul\":11677:11683   */\n      dup7\n        /* \"#utility.yul\":11673:11690   */\n      add\n        /* \"#utility.yul\":11626:11704   */\n      tag_392\n      jump\t// in\n    tag_575:\n        /* \"#utility.yul\":11617:11704   */\n      swap2\n      pop\n        /* \"#utility.yul\":11433:11710   */\n      pop\n        /* \"#utility.yul\":11372:11710   */\n      swap3\n      swap2\n      pop\n      pop\n      jump\t// out\n        /* \"#utility.yul\":11716:12368   */\n    tag_90:\n        /* \"#utility.yul\":11793:11799   */\n      0x00\n        /* \"#utility.yul\":11801:11807   */\n      dup1\n        /* \"#utility.yul\":11850:11852   */\n      0x40\n        /* \"#utility.yul\":11838:11847   */\n      dup4\n        /* \"#utility.yul\":11829:11836   */\n      dup6\n        /* \"#utility.yul\":11825:11848   */\n      sub\n        /* \"#utility.yul\":11821:11853   */\n      slt\n        /* \"#utility.yul\":11818:11937   */\n      iszero\n      tag_577\n      jumpi\n        /* \"#utility.yul\":11856:11935   */\n      tag_578\n      tag_354\n      jump\t// in\n    tag_578:\n        /* \"#utility.yul\":11818:11937   */\n    tag_577:\n        /* \"#utility.yul\":11976:11977   */\n      0x00\n        /* \"#utility.yul\":12001:12054   */\n      tag_579\n        /* \"#utility.yul\":12046:12053   */\n      dup6\n        /* \"#utility.yul\":12037:12043   */\n      dup3\n        /* \"#utility.yul\":12026:12035   */\n      dup7\n        /* \"#utility.yul\":12022:12044   */\n      add\n        /* \"#utility.yul\":12001:12054   */\n      tag_358\n      jump\t// in\n    tag_579:\n        /* \"#utility.yul\":11991:12054   */\n      swap3\n      pop\n        /* \"#utility.yul\":11947:12064   */\n      pop\n        /* \"#utility.yul\":12131:12133   */\n      0x20\n        /* \"#utility.yul\":12120:12129   */\n      dup4\n        /* \"#utility.yul\":12116:12134   */\n      add\n        /* \"#utility.yul\":12103:12135   */\n      calldataload\n        /* \"#utility.yul\":12162:12180   */\n      0xffffffffffffffff\n        /* \"#utility.yul\":12154:12160   */\n      dup2\n        /* \"#utility.yul\":12151:12181   */\n      gt\n        /* \"#utility.yul\":12148:12265   */\n      iszero\n      tag_580\n      jumpi\n        /* \"#utility.yul\":12184:12263   */\n      tag_581\n      tag_355\n      jump\t// in\n    tag_581:\n        /* \"#utility.yul\":12148:12265   */\n    tag_580:\n        /* \"#utility.yul\":12289:12351   */\n      tag_582\n        /* \"#utility.yul\":12343:12350   */\n      dup6\n        /* \"#utility.yul\":12334:12340   */\n      dup3\n        /* \"#utility.yul\":12323:12332   */\n      dup7\n        /* \"#utility.yul\":12319:12341   */\n      add\n        /* \"#utility.yul\":12289:12351   */\n      tag_393\n      jump\t// in\n    tag_582:\n        /* \"#utility.yul\":12279:12351   */\n      swap2\n      pop\n        /* \"#utility.yul\":12074:12361   */\n      pop\n        /* \"#utility.yul\":11716:12368   */\n      swap3\n      pop\n      swap3\n      swap1\n      pop\n      jump\t// out\n        /* \"#utility.yul\":12374:12491   */\n    tag_394:\n        /* \"#utility.yul\":12483:12484   */\n      0x00\n        /* \"#utility.yul\":12480:12481   */\n      dup1\n        /* \"#utility.yul\":12473:12485   */\n      revert\n        /* \"#utility.yul\":12497:12614   */\n    tag_395:\n        /* \"#utility.yul\":12606:12607   */\n      0x00\n        /* \"#utility.yul\":12603:12604   */\n      dup1\n        /* \"#utility.yul\":12596:12608   */\n      revert\n        /* \"#utility.yul\":12633:13185   */\n    tag_396:\n        /* \"#utility.yul\":12690:12698   */\n      0x00\n        /* \"#utility.yul\":12700:12706   */\n      dup1\n        /* \"#utility.yul\":12750:12753   */\n      dup4\n        /* \"#utility.yul\":12743:12747   */\n      0x1f\n        /* \"#utility.yul\":12735:12741   */\n      dup5\n        /* \"#utility.yul\":12731:12748   */\n      add\n        /* \"#utility.yul\":12727:12754   */\n      slt\n        /* \"#utility.yul\":12717:12839   */\n      tag_586\n      jumpi\n        /* \"#utility.yul\":12758:12837   */\n      tag_587\n      tag_385\n      jump\t// in\n    tag_587:\n        /* \"#utility.yul\":12717:12839   */\n    tag_586:\n        /* \"#utility.yul\":12871:12877   */\n      dup3\n        /* \"#utility.yul\":12858:12878   */\n      calldataload\n        /* \"#utility.yul\":12848:12878   */\n      swap1\n      pop\n        /* \"#utility.yul\":12901:12919   */\n      0xffffffffffffffff\n        /* \"#utility.yul\":12893:12899   */\n      dup2\n        /* \"#utility.yul\":12890:12920   */\n      gt\n        /* \"#utility.yul\":12887:13004   */\n      iszero\n      tag_588\n      jumpi\n        /* \"#utility.yul\":12923:13002   */\n      tag_589\n      tag_394\n      jump\t// in\n    tag_589:\n        /* \"#utility.yul\":12887:13004   */\n    tag_588:\n        /* \"#utility.yul\":13037:13041   */\n      0x20\n        /* \"#utility.yul\":13029:13035   */\n      dup4\n        /* \"#utility.yul\":13025:13042   */\n      add\n        /* \"#utility.yul\":13013:13042   */\n      swap2\n      pop\n        /* \"#utility.yul\":13091:13094   */\n      dup4\n        /* \"#utility.yul\":13083:13087   */\n      0x01\n        /* \"#utility.yul\":13075:13081   */\n      dup3\n        /* \"#utility.yul\":13071:13088   */\n      mul\n        /* \"#utility.yul\":13061:13069   */\n      dup4\n        /* \"#utility.yul\":13057:13089   */\n      add\n        /* \"#utility.yul\":13054:13095   */\n      gt\n        /* \"#utility.yul\":13051:13179   */\n      iszero\n      tag_590\n      jumpi\n        /* \"#utility.yul\":13098:13177   */\n      tag_591\n      tag_395\n      jump\t// in\n    tag_591:\n        /* \"#utility.yul\":13051:13179   */\n    tag_590:\n        /* \"#utility.yul\":12633:13185   */\n      swap3\n      pop\n      swap3\n      swap1\n      pop\n      jump\t// out\n        /* \"#utility.yul\":13191:14446   */\n    tag_94:\n        /* \"#utility.yul\":13306:13312   */\n      0x00\n        /* \"#utility.yul\":13314:13320   */\n      dup1\n        /* \"#utility.yul\":13322:13328   */\n      0x00\n        /* \"#utility.yul\":13330:13336   */\n      dup1\n        /* \"#utility.yul\":13338:13344   */\n      0x00\n        /* \"#utility.yul\":13346:13352   */\n      dup1\n        /* \"#utility.yul\":13354:13360   */\n      0x00\n        /* \"#utility.yul\":13403:13406   */\n      0xc0\n        /* \"#utility.yul\":13391:13400   */\n      dup9\n        /* \"#utility.yul\":13382:13389   */\n      dup11\n        /* \"#utility.yul\":13378:13401   */\n      sub\n        /* \"#utility.yul\":13374:13407   */\n      slt\n        /* \"#utility.yul\":13371:13491   */\n      iszero\n      tag_593\n      jumpi\n        /* \"#utility.yul\":13410:13489   */\n      tag_594\n      tag_354\n      jump\t// in\n    tag_594:\n        /* \"#utility.yul\":13371:13491   */\n    tag_593:\n        /* \"#utility.yul\":13530:13531   */\n      0x00\n        /* \"#utility.yul\":13555:13608   */\n      tag_595\n        /* \"#utility.yul\":13600:13607   */\n      dup11\n        /* \"#utility.yul\":13591:13597   */\n      dup3\n        /* \"#utility.yul\":13580:13589   */\n      dup12\n        /* \"#utility.yul\":13576:13598   */\n      add\n        /* \"#utility.yul\":13555:13608   */\n      tag_358\n      jump\t// in\n    tag_595:\n        /* \"#utility.yul\":13545:13608   */\n      swap8\n      pop\n        /* \"#utility.yul\":13501:13618   */\n      pop\n        /* \"#utility.yul\":13657:13659   */\n      0x20\n        /* \"#utility.yul\":13683:13736   */\n      tag_596\n        /* \"#utility.yul\":13728:13735   */\n      dup11\n        /* \"#utility.yul\":13719:13725   */\n      dup3\n        /* \"#utility.yul\":13708:13717   */\n      dup12\n        /* \"#utility.yul\":13704:13726   */\n      add\n        /* \"#utility.yul\":13683:13736   */\n      tag_358\n      jump\t// in\n    tag_596:\n        /* \"#utility.yul\":13673:13736   */\n      swap7\n      pop\n        /* \"#utility.yul\":13628:13746   */\n      pop\n        /* \"#utility.yul\":13785:13787   */\n      0x40\n        /* \"#utility.yul\":13811:13864   */\n      tag_597\n        /* \"#utility.yul\":13856:13863   */\n      dup11\n        /* \"#utility.yul\":13847:13853   */\n      dup3\n        /* \"#utility.yul\":13836:13845   */\n      dup12\n        /* \"#utility.yul\":13832:13854   */\n      add\n        /* \"#utility.yul\":13811:13864   */\n      tag_368\n      jump\t// in\n    tag_597:\n        /* \"#utility.yul\":13801:13864   */\n      swap6\n      pop\n        /* \"#utility.yul\":13756:13874   */\n      pop\n        /* \"#utility.yul\":13913:13915   */\n      0x60\n        /* \"#utility.yul\":13939:13992   */\n      tag_598\n        /* \"#utility.yul\":13984:13991   */\n      dup11\n        /* \"#utility.yul\":13975:13981   */\n      dup3\n        /* \"#utility.yul\":13964:13973   */\n      dup12\n        /* \"#utility.yul\":13960:13982   */\n      add\n        /* \"#utility.yul\":13939:13992   */\n      tag_368\n      jump\t// in\n    tag_598:\n        /* \"#utility.yul\":13929:13992   */\n      swap5\n      pop\n        /* \"#utility.yul\":13884:14002   */\n      pop\n        /* \"#utility.yul\":14041:14044   */\n      0x80\n        /* \"#utility.yul\":14068:14121   */\n      tag_599\n        /* \"#utility.yul\":14113:14120   */\n      dup11\n        /* \"#utility.yul\":14104:14110   */\n      dup3\n        /* \"#utility.yul\":14093:14102   */\n      dup12\n        /* \"#utility.yul\":14089:14111   */\n      add\n        /* \"#utility.yul\":14068:14121   */\n      tag_358\n      jump\t// in\n    tag_599:\n        /* \"#utility.yul\":14058:14121   */\n      swap4\n      pop\n        /* \"#utility.yul\":14012:14131   */\n      pop\n        /* \"#utility.yul\":14198:14201   */\n      0xa0\n        /* \"#utility.yul\":14187:14196   */\n      dup9\n        /* \"#utility.yul\":14183:14202   */\n      add\n        /* \"#utility.yul\":14170:14203   */\n      calldataload\n        /* \"#utility.yul\":14230:14248   */\n      0xffffffffffffffff\n        /* \"#utility.yul\":14222:14228   */\n      dup2\n        /* \"#utility.yul\":14219:14249   */\n      gt\n        /* \"#utility.yul\":14216:14333   */\n      iszero\n      tag_600\n      jumpi\n        /* \"#utility.yul\":14252:14331   */\n      tag_601\n      tag_355\n      jump\t// in\n    tag_601:\n        /* \"#utility.yul\":14216:14333   */\n    tag_600:\n        /* \"#utility.yul\":14365:14429   */\n      tag_602\n        /* \"#utility.yul\":14421:14428   */\n      dup11\n        /* \"#utility.yul\":14412:14418   */\n      dup3\n        /* \"#utility.yul\":14401:14410   */\n      dup12\n        /* \"#utility.yul\":14397:14419   */\n      add\n        /* \"#utility.yul\":14365:14429   */\n      tag_396\n      jump\t// in\n    tag_602:\n        /* \"#utility.yul\":14347:14429   */\n      swap3\n      pop\n      swap3\n      pop\n        /* \"#utility.yul\":14141:14439   */\n      pop\n        /* \"#utility.yul\":13191:14446   */\n      swap3\n      swap6\n      swap9\n      swap2\n      swap5\n      swap8\n      pop\n      swap3\n      swap6\n      pop\n      jump\t// out\n        /* \"#utility.yul\":14452:15760   */\n    tag_100:\n        /* \"#utility.yul\":14814:14818   */\n      0x00\n        /* \"#utility.yul\":14852:14855   */\n      0x0160\n        /* \"#utility.yul\":14841:14850   */\n      dup3\n        /* \"#utility.yul\":14837:14856   */\n      add\n        /* \"#utility.yul\":14829:14856   */\n      swap1\n      pop\n        /* \"#utility.yul\":14866:14937   */\n      tag_604\n        /* \"#utility.yul\":14934:14935   */\n      0x00\n        /* \"#utility.yul\":14923:14932   */\n      dup4\n        /* \"#utility.yul\":14919:14936   */\n      add\n        /* \"#utility.yul\":14910:14916   */\n      dup15\n        /* \"#utility.yul\":14866:14937   */\n      tag_359\n      jump\t// in\n    tag_604:\n        /* \"#utility.yul\":14947:15019   */\n      tag_605\n        /* \"#utility.yul\":15015:15017   */\n      0x20\n        /* \"#utility.yul\":15004:15013   */\n      dup4\n        /* \"#utility.yul\":15000:15018   */\n      add\n        /* \"#utility.yul\":14991:14997   */\n      dup14\n        /* \"#utility.yul\":14947:15019   */\n      tag_359\n      jump\t// in\n    tag_605:\n        /* \"#utility.yul\":15029:15101   */\n      tag_606\n        /* \"#utility.yul\":15097:15099   */\n      0x40\n        /* \"#utility.yul\":15086:15095   */\n      dup4\n        /* \"#utility.yul\":15082:15100   */\n      add\n        /* \"#utility.yul\":15073:15079   */\n      dup13\n        /* \"#utility.yul\":15029:15101   */\n      tag_361\n      jump\t// in\n    tag_606:\n        /* \"#utility.yul\":15111:15183   */\n      tag_607\n        /* \"#utility.yul\":15179:15181   */\n      0x60\n        /* \"#utility.yul\":15168:15177   */\n      dup4\n        /* \"#utility.yul\":15164:15182   */\n      add\n        /* \"#utility.yul\":15155:15161   */\n      dup12\n        /* \"#utility.yul\":15111:15183   */\n      tag_361\n      jump\t// in\n    tag_607:\n        /* \"#utility.yul\":15193:15266   */\n      tag_608\n        /* \"#utility.yul\":15261:15264   */\n      0x80\n        /* \"#utility.yul\":15250:15259   */\n      dup4\n        /* \"#utility.yul\":15246:15265   */\n      add\n        /* \"#utility.yul\":15237:15243   */\n      dup11\n        /* \"#utility.yul\":15193:15266   */\n      tag_361\n      jump\t// in\n    tag_608:\n        /* \"#utility.yul\":15276:15349   */\n      tag_609\n        /* \"#utility.yul\":15344:15347   */\n      0xa0\n        /* \"#utility.yul\":15333:15342   */\n      dup4\n        /* \"#utility.yul\":15329:15348   */\n      add\n        /* \"#utility.yul\":15320:15326   */\n      dup10\n        /* \"#utility.yul\":15276:15349   */\n      tag_359\n      jump\t// in\n    tag_609:\n        /* \"#utility.yul\":15359:15432   */\n      tag_610\n        /* \"#utility.yul\":15427:15430   */\n      0xc0\n        /* \"#utility.yul\":15416:15425   */\n      dup4\n        /* \"#utility.yul\":15412:15431   */\n      add\n        /* \"#utility.yul\":15403:15409   */\n      dup9\n        /* \"#utility.yul\":15359:15432   */\n      tag_364\n      jump\t// in\n    tag_610:\n        /* \"#utility.yul\":15442:15509   */\n      tag_611\n        /* \"#utility.yul\":15504:15507   */\n      0xe0\n        /* \"#utility.yul\":15493:15502   */\n      dup4\n        /* \"#utility.yul\":15489:15508   */\n      add\n        /* \"#utility.yul\":15480:15486   */\n      dup8\n        /* \"#utility.yul\":15442:15509   */\n      tag_366\n      jump\t// in\n    tag_611:\n        /* \"#utility.yul\":15519:15586   */\n      tag_612\n        /* \"#utility.yul\":15581:15584   */\n      0x0100\n        /* \"#utility.yul\":15570:15579   */\n      dup4\n        /* \"#utility.yul\":15566:15585   */\n      add\n        /* \"#utility.yul\":15557:15563   */\n      dup7\n        /* \"#utility.yul\":15519:15586   */\n      tag_366\n      jump\t// in\n    tag_612:\n        /* \"#utility.yul\":15596:15669   */\n      tag_613\n        /* \"#utility.yul\":15664:15667   */\n      0x0120\n        /* \"#utility.yul\":15653:15662   */\n      dup4\n        /* \"#utility.yul\":15649:15668   */\n      add\n        /* \"#utility.yul\":15640:15646   */\n      dup6\n        /* \"#utility.yul\":15596:15669   */\n      tag_359\n      jump\t// in\n    tag_613:\n        /* \"#utility.yul\":15679:15753   */\n      tag_614\n        /* \"#utility.yul\":15748:15751   */\n      0x0140\n        /* \"#utility.yul\":15737:15746   */\n      dup4\n        /* \"#utility.yul\":15733:15752   */\n      add\n        /* \"#utility.yul\":15723:15730   */\n      dup5\n        /* \"#utility.yul\":15679:15753   */\n      tag_361\n      jump\t// in\n    tag_614:\n        /* \"#utility.yul\":14452:15760   */\n      swap13\n      swap12\n      pop\n      pop\n      pop\n      pop\n      pop\n      pop\n      pop\n      pop\n      pop\n      pop\n      pop\n      pop\n      jump\t// out\n        /* \"#utility.yul\":15766:15988   */\n    tag_104:\n        /* \"#utility.yul\":15859:15863   */\n      0x00\n        /* \"#utility.yul\":15897:15899   */\n      0x20\n        /* \"#utility.yul\":15886:15895   */\n      dup3\n        /* \"#utility.yul\":15882:15900   */\n      add\n        /* \"#utility.yul\":15874:15900   */\n      swap1\n      pop\n        /* \"#utility.yul\":15910:15981   */\n      tag_616\n        /* \"#utility.yul\":15978:15979   */\n      0x00\n        /* \"#utility.yul\":15967:15976   */\n      dup4\n        /* \"#utility.yul\":15963:15980   */\n      add\n        /* \"#utility.yul\":15954:15960   */\n      dup5\n        /* \"#utility.yul\":15910:15981   */\n      tag_361\n      jump\t// in\n    tag_616:\n        /* \"#utility.yul\":15766:15988   */\n      swap3\n      swap2\n      pop\n      pop\n      jump\t// out\n        /* \"#utility.yul\":15994:16216   */\n    tag_108:\n        /* \"#utility.yul\":16087:16091   */\n      0x00\n        /* \"#utility.yul\":16125:16127   */\n      0x20\n        /* \"#utility.yul\":16114:16123   */\n      dup3\n        /* \"#utility.yul\":16110:16128   */\n      add\n        /* \"#utility.yul\":16102:16128   */\n      swap1\n      pop\n        /* \"#utility.yul\":16138:16209   */\n      tag_618\n        /* \"#utility.yul\":16206:16207   */\n      0x00\n        /* \"#utility.yul\":16195:16204   */\n      dup4\n        /* \"#utility.yul\":16191:16208   */\n      add\n        /* \"#utility.yul\":16182:16188   */\n      dup5\n        /* \"#utility.yul\":16138:16209   */\n      tag_364\n      jump\t// in\n    tag_618:\n        /* \"#utility.yul\":15994:16216   */\n      swap3\n      swap2\n      pop\n      pop\n      jump\t// out\n        /* \"#utility.yul\":16222:17185   */\n    tag_111:\n        /* \"#utility.yul\":16319:16325   */\n      0x00\n        /* \"#utility.yul\":16327:16333   */\n      dup1\n        /* \"#utility.yul\":16335:16341   */\n      0x00\n        /* \"#utility.yul\":16343:16349   */\n      dup1\n        /* \"#utility.yul\":16351:16357   */\n      0x00\n        /* \"#utility.yul\":16400:16403   */\n      0x80\n        /* \"#utility.yul\":16388:16397   */\n      dup7\n        /* \"#utility.yul\":16379:16386   */\n      dup9\n        /* \"#utility.yul\":16375:16398   */\n      sub\n        /* \"#utility.yul\":16371:16404   */\n      slt\n        /* \"#utility.yul\":16368:16488   */\n      iszero\n      tag_620\n      jumpi\n        /* \"#utility.yul\":16407:16486   */\n      tag_621\n      tag_354\n      jump\t// in\n    tag_621:\n        /* \"#utility.yul\":16368:16488   */\n    tag_620:\n        /* \"#utility.yul\":16527:16528   */\n      0x00\n        /* \"#utility.yul\":16552:16605   */\n      tag_622\n        /* \"#utility.yul\":16597:16604   */\n      dup9\n        /* \"#utility.yul\":16588:16594   */\n      dup3\n        /* \"#utility.yul\":16577:16586   */\n      dup10\n        /* \"#utility.yul\":16573:16595   */\n      add\n        /* \"#utility.yul\":16552:16605   */\n      tag_358\n      jump\t// in\n    tag_622:\n        /* \"#utility.yul\":16542:16605   */\n      swap6\n      pop\n        /* \"#utility.yul\":16498:16615   */\n      pop\n        /* \"#utility.yul\":16654:16656   */\n      0x20\n        /* \"#utility.yul\":16680:16733   */\n      tag_623\n        /* \"#utility.yul\":16725:16732   */\n      dup9\n        /* \"#utility.yul\":16716:16722   */\n      dup3\n        /* \"#utility.yul\":16705:16714   */\n      dup10\n        /* \"#utility.yul\":16701:16723   */\n      add\n        /* \"#utility.yul\":16680:16733   */\n      tag_368\n      jump\t// in\n    tag_623:\n        /* \"#utility.yul\":16670:16733   */\n      swap5\n      pop\n        /* \"#utility.yul\":16625:16743   */\n      pop\n        /* \"#utility.yul\":16782:16784   */\n      0x40\n        /* \"#utility.yul\":16808:16861   */\n      tag_624\n        /* \"#utility.yul\":16853:16860   */\n      dup9\n        /* \"#utility.yul\":16844:16850   */\n      dup3\n        /* \"#utility.yul\":16833:16842   */\n      dup10\n        /* \"#utility.yul\":16829:16851   */\n      add\n        /* \"#utility.yul\":16808:16861   */\n      tag_358\n      jump\t// in\n    tag_624:\n        /* \"#utility.yul\":16798:16861   */\n      swap4\n      pop\n        /* \"#utility.yul\":16753:16871   */\n      pop\n        /* \"#utility.yul\":16938:16940   */\n      0x60\n        /* \"#utility.yul\":16927:16936   */\n      dup7\n        /* \"#utility.yul\":16923:16941   */\n      add\n        /* \"#utility.yul\":16910:16942   */\n      calldataload\n        /* \"#utility.yul\":16969:16987   */\n      0xffffffffffffffff\n        /* \"#utility.yul\":16961:16967   */\n      dup2\n        /* \"#utility.yul\":16958:16988   */\n      gt\n        /* \"#utility.yul\":16955:17072   */\n      iszero\n      tag_625\n      jumpi\n        /* \"#utility.yul\":16991:17070   */\n      tag_626\n      tag_355\n      jump\t// in\n    tag_626:\n        /* \"#utility.yul\":16955:17072   */\n    tag_625:\n        /* \"#utility.yul\":17104:17168   */\n      tag_627\n        /* \"#utility.yul\":17160:17167   */\n      dup9\n        /* \"#utility.yul\":17151:17157   */\n      dup3\n        /* \"#utility.yul\":17140:17149   */\n      dup10\n        /* \"#utility.yul\":17136:17158   */\n      add\n        /* \"#utility.yul\":17104:17168   */\n      tag_396\n      jump\t// in\n    tag_627:\n        /* \"#utility.yul\":17086:17168   */\n      swap3\n      pop\n      swap3\n      pop\n        /* \"#utility.yul\":16881:17178   */\n      pop\n        /* \"#utility.yul\":16222:17185   */\n      swap3\n      swap6\n      pop\n      swap3\n      swap6\n      swap1\n      swap4\n      pop\n      jump\t// out\n        /* \"#utility.yul\":17191:17289   */\n    tag_397:\n        /* \"#utility.yul\":17242:17248   */\n      0x00\n        /* \"#utility.yul\":17276:17281   */\n      dup2\n        /* \"#utility.yul\":17270:17282   */\n      mload\n        /* \"#utility.yul\":17260:17282   */\n      swap1\n      pop\n        /* \"#utility.yul\":17191:17289   */\n      swap2\n      swap1\n      pop\n      jump\t// out\n        /* \"#utility.yul\":17295:17463   */\n    tag_398:\n        /* \"#utility.yul\":17378:17389   */\n      0x00\n        /* \"#utility.yul\":17412:17418   */\n      dup3\n        /* \"#utility.yul\":17407:17410   */\n      dup3\n        /* \"#utility.yul\":17400:17419   */\n      mstore\n        /* \"#utility.yul\":17452:17456   */\n      0x20\n        /* \"#utility.yul\":17447:17450   */\n      dup3\n        /* \"#utility.yul\":17443:17457   */\n      add\n        /* \"#utility.yul\":17428:17457   */\n      swap1\n      pop\n        /* \"#utility.yul\":17295:17463   */\n      swap3\n      swap2\n      pop\n      pop\n      jump\t// out\n        /* \"#utility.yul\":17469:17608   */\n    tag_399:\n        /* \"#utility.yul\":17558:17564   */\n      dup3\n        /* \"#utility.yul\":17553:17556   */\n      dup2\n        /* \"#utility.yul\":17548:17551   */\n      dup4\n        /* \"#utility.yul\":17542:17565   */\n      mcopy\n        /* \"#utility.yul\":17599:17600   */\n      0x00\n        /* \"#utility.yul\":17590:17596   */\n      dup4\n        /* \"#utility.yul\":17585:17588   */\n      dup4\n        /* \"#utility.yul\":17581:17597   */\n      add\n        /* \"#utility.yul\":17574:17601   */\n      mstore\n        /* \"#utility.yul\":17469:17608   */\n      pop\n      pop\n      pop\n      jump\t// out\n        /* \"#utility.yul\":17614:17987   */\n    tag_400:\n        /* \"#utility.yul\":17700:17703   */\n      0x00\n        /* \"#utility.yul\":17728:17766   */\n      tag_632\n        /* \"#utility.yul\":17760:17765   */\n      dup3\n        /* \"#utility.yul\":17728:17766   */\n      tag_397\n      jump\t// in\n    tag_632:\n        /* \"#utility.yul\":17782:17852   */\n      tag_633\n        /* \"#utility.yul\":17845:17851   */\n      dup2\n        /* \"#utility.yul\":17840:17843   */\n      dup6\n        /* \"#utility.yul\":17782:17852   */\n      tag_398\n      jump\t// in\n    tag_633:\n        /* \"#utility.yul\":17775:17852   */\n      swap4\n      pop\n        /* \"#utility.yul\":17861:17926   */\n      tag_634\n        /* \"#utility.yul\":17919:17925   */\n      dup2\n        /* \"#utility.yul\":17914:17917   */\n      dup6\n        /* \"#utility.yul\":17907:17911   */\n      0x20\n        /* \"#utility.yul\":17900:17905   */\n      dup7\n        /* \"#utility.yul\":17896:17912   */\n      add\n        /* \"#utility.yul\":17861:17926   */\n      tag_399\n      jump\t// in\n    tag_634:\n        /* \"#utility.yul\":17951:17980   */\n      tag_635\n        /* \"#utility.yul\":17973:17979   */\n      dup2\n        /* \"#utility.yul\":17951:17980   */\n      tag_387\n      jump\t// in\n    tag_635:\n        /* \"#utility.yul\":17946:17949   */\n      dup5\n        /* \"#utility.yul\":17942:17981   */\n      add\n        /* \"#utility.yul\":17935:17981   */\n      swap2\n      pop\n        /* \"#utility.yul\":17704:17987   */\n      pop\n        /* \"#utility.yul\":17614:17987   */\n      swap3\n      swap2\n      pop\n      pop\n      jump\t// out\n        /* \"#utility.yul\":17993:18302   */\n    tag_137:\n        /* \"#utility.yul\":18104:18108   */\n      0x00\n        /* \"#utility.yul\":18142:18144   */\n      0x20\n        /* \"#utility.yul\":18131:18140   */\n      dup3\n        /* \"#utility.yul\":18127:18145   */\n      add\n        /* \"#utility.yul\":18119:18145   */\n      swap1\n      pop\n        /* \"#utility.yul\":18191:18200   */\n      dup2\n        /* \"#utility.yul\":18185:18189   */\n      dup2\n        /* \"#utility.yul\":18181:18201   */\n      sub\n        /* \"#utility.yul\":18177:18178   */\n      0x00\n        /* \"#utility.yul\":18166:18175   */\n      dup4\n        /* \"#utility.yul\":18162:18179   */\n      add\n        /* \"#utility.yul\":18155:18202   */\n      mstore\n        /* \"#utility.yul\":18219:18295   */\n      tag_637\n        /* \"#utility.yul\":18290:18294   */\n      dup2\n        /* \"#utility.yul\":18281:18287   */\n      dup5\n        /* \"#utility.yul\":18219:18295   */\n      tag_400\n      jump\t// in\n    tag_637:\n        /* \"#utility.yul\":18211:18295   */\n      swap1\n      pop\n        /* \"#utility.yul\":17993:18302   */\n      swap3\n      swap2\n      pop\n      pop\n      jump\t// out\n        /* \"#utility.yul\":18308:18835   */\n    tag_150:\n        /* \"#utility.yul\":18378:18384   */\n      0x00\n        /* \"#utility.yul\":18386:18392   */\n      dup1\n        /* \"#utility.yul\":18435:18437   */\n      0x20\n        /* \"#utility.yul\":18423:18432   */\n      dup4\n        /* \"#utility.yul\":18414:18421   */\n      dup6\n        /* \"#utility.yul\":18410:18433   */\n      sub\n        /* \"#utility.yul\":18406:18438   */\n      slt\n        /* \"#utility.yul\":18403:18522   */\n      iszero\n      tag_639\n      jumpi\n        /* \"#utility.yul\":18441:18520   */\n      tag_640\n      tag_354\n      jump\t// in\n    tag_640:\n        /* \"#utility.yul\":18403:18522   */\n    tag_639:\n        /* \"#utility.yul\":18589:18590   */\n      0x00\n        /* \"#utility.yul\":18578:18587   */\n      dup4\n        /* \"#utility.yul\":18574:18591   */\n      add\n        /* \"#utility.yul\":18561:18592   */\n      calldataload\n        /* \"#utility.yul\":18619:18637   */\n      0xffffffffffffffff\n        /* \"#utility.yul\":18611:18617   */\n      dup2\n        /* \"#utility.yul\":18608:18638   */\n      gt\n        /* \"#utility.yul\":18605:18722   */\n      iszero\n      tag_641\n      jumpi\n        /* \"#utility.yul\":18641:18720   */\n      tag_642\n      tag_355\n      jump\t// in\n    tag_642:\n        /* \"#utility.yul\":18605:18722   */\n    tag_641:\n        /* \"#utility.yul\":18754:18818   */\n      tag_643\n        /* \"#utility.yul\":18810:18817   */\n      dup6\n        /* \"#utility.yul\":18801:18807   */\n      dup3\n        /* \"#utility.yul\":18790:18799   */\n      dup7\n        /* \"#utility.yul\":18786:18808   */\n      add\n        /* \"#utility.yul\":18754:18818   */\n      tag_396\n      jump\t// in\n    tag_643:\n        /* \"#utility.yul\":18736:18818   */\n      swap3\n      pop\n      swap3\n      pop\n        /* \"#utility.yul\":18532:18828   */\n      pop\n        /* \"#utility.yul\":18308:18835   */\n      swap3\n      pop\n      swap3\n      swap1\n      pop\n      jump\t// out\n        /* \"#utility.yul\":18841:19010   */\n    tag_401:\n        /* \"#utility.yul\":18925:18936   */\n      0x00\n        /* \"#utility.yul\":18959:18965   */\n      dup3\n        /* \"#utility.yul\":18954:18957   */\n      dup3\n        /* \"#utility.yul\":18947:18966   */\n      mstore\n        /* \"#utility.yul\":18999:19003   */\n      0x20\n        /* \"#utility.yul\":18994:18997   */\n      dup3\n        /* \"#utility.yul\":18990:19004   */\n      add\n        /* \"#utility.yul\":18975:19004   */\n      swap1\n      pop\n        /* \"#utility.yul\":18841:19010   */\n      swap3\n      swap2\n      pop\n      pop\n      jump\t// out\n        /* \"#utility.yul\":19016:19183   */\n    tag_402:\n        /* \"#utility.yul\":19156:19175   */\n      0x546f7272656e74206e6f7420666f756e64000000000000000000000000000000\n        /* \"#utility.yul\":19152:19153   */\n      0x00\n        /* \"#utility.yul\":19144:19150   */\n      dup3\n        /* \"#utility.yul\":19140:19154   */\n      add\n        /* \"#utility.yul\":19133:19176   */\n      mstore\n        /* \"#utility.yul\":19016:19183   */\n      pop\n      jump\t// out\n        /* \"#utility.yul\":19189:19555   */\n    tag_403:\n        /* \"#utility.yul\":19331:19334   */\n      0x00\n        /* \"#utility.yul\":19352:19419   */\n      tag_647\n        /* \"#utility.yul\":19416:19418   */\n      0x11\n        /* \"#utility.yul\":19411:19414   */\n      dup4\n        /* \"#utility.yul\":19352:19419   */\n      tag_401\n      jump\t// in\n    tag_647:\n        /* \"#utility.yul\":19345:19419   */\n      swap2\n      pop\n        /* \"#utility.yul\":19428:19521   */\n      tag_648\n        /* \"#utility.yul\":19517:19520   */\n      dup3\n        /* \"#utility.yul\":19428:19521   */\n      tag_402\n      jump\t// in\n    tag_648:\n        /* \"#utility.yul\":19546:19548   */\n      0x20\n        /* \"#utility.yul\":19541:19544   */\n      dup3\n        /* \"#utility.yul\":19537:19549   */\n      add\n        /* \"#utility.yul\":19530:19549   */\n      swap1\n      pop\n        /* \"#utility.yul\":19189:19555   */\n      swap2\n      swap1\n      pop\n      jump\t// out\n        /* \"#utility.yul\":19561:19980   */\n    tag_155:\n        /* \"#utility.yul\":19727:19731   */\n      0x00\n        /* \"#utility.yul\":19765:19767   */\n      0x20\n        /* \"#utility.yul\":19754:19763   */\n      dup3\n        /* \"#utility.yul\":19750:19768   */\n      add\n        /* \"#utility.yul\":19742:19768   */\n      swap1\n      pop\n        /* \"#utility.yul\":19814:19823   */\n      dup2\n        /* \"#utility.yul\":19808:19812   */\n      dup2\n        /* \"#utility.yul\":19804:19824   */\n      sub\n        /* \"#utility.yul\":19800:19801   */\n      0x00\n        /* \"#utility.yul\":19789:19798   */\n      dup4\n        /* \"#utility.yul\":19785:19802   */\n      add\n        /* \"#utility.yul\":19778:19825   */\n      mstore\n        /* \"#utility.yul\":19842:19973   */\n      tag_650\n        /* \"#utility.yul\":19968:19972   */\n      dup2\n        /* \"#utility.yul\":19842:19973   */\n      tag_403\n      jump\t// in\n    tag_650:\n        /* \"#utility.yul\":19834:19973   */\n      swap1\n      pop\n        /* \"#utility.yul\":19561:19980   */\n      swap2\n      swap1\n      pop\n      jump\t// out\n        /* \"#utility.yul\":19986:20152   */\n    tag_404:\n        /* \"#utility.yul\":20126:20144   */\n      0x416c726561647920696e20737761726d00000000000000000000000000000000\n        /* \"#utility.yul\":20122:20123   */\n      0x00\n        /* \"#utility.yul\":20114:20120   */\n      dup3\n        /* \"#utility.yul\":20110:20124   */\n      add\n        /* \"#utility.yul\":20103:20145   */\n      mstore\n        /* \"#utility.yul\":19986:20152   */\n      pop\n      jump\t// out\n        /* \"#utility.yul\":20158:20524   */\n    tag_405:\n        /* \"#utility.yul\":20300:20303   */\n      0x00\n        /* \"#utility.yul\":20321:20388   */\n      tag_653\n        /* \"#utility.yul\":20385:20387   */\n      0x10\n        /* \"#utility.yul\":20380:20383   */\n      dup4\n        /* \"#utility.yul\":20321:20388   */\n      tag_401\n      jump\t// in\n    tag_653:\n        /* \"#utility.yul\":20314:20388   */\n      swap2\n      pop\n        /* \"#utility.yul\":20397:20490   */\n      tag_654\n        /* \"#utility.yul\":20486:20489   */\n      dup3\n        /* \"#utility.yul\":20397:20490   */\n      tag_404\n      jump\t// in\n    tag_654:\n        /* \"#utility.yul\":20515:20517   */\n      0x20\n        /* \"#utility.yul\":20510:20513   */\n      dup3\n        /* \"#utility.yul\":20506:20518   */\n      add\n        /* \"#utility.yul\":20499:20518   */\n      swap1\n      pop\n        /* \"#utility.yul\":20158:20524   */\n      swap2\n      swap1\n      pop\n      jump\t// out\n        /* \"#utility.yul\":20530:20949   */\n    tag_175:\n        /* \"#utility.yul\":20696:20700   */\n      0x00\n        /* \"#utility.yul\":20734:20736   */\n      0x20\n        /* \"#utility.yul\":20723:20732   */\n      dup3\n        /* \"#utility.yul\":20719:20737   */\n      add\n        /* \"#utility.yul\":20711:20737   */\n      swap1\n      pop\n        /* \"#utility.yul\":20783:20792   */\n      dup2\n        /* \"#utility.yul\":20777:20781   */\n      dup2\n        /* \"#utility.yul\":20773:20793   */\n      sub\n        /* \"#utility.yul\":20769:20770   */\n      0x00\n        /* \"#utility.yul\":20758:20767   */\n      dup4\n        /* \"#utility.yul\":20754:20771   */\n      add\n        /* \"#utility.yul\":20747:20794   */\n      mstore\n        /* \"#utility.yul\":20811:20942   */\n      tag_656\n        /* \"#utility.yul\":20937:20941   */\n      dup2\n        /* \"#utility.yul\":20811:20942   */\n      tag_405\n      jump\t// in\n    tag_656:\n        /* \"#utility.yul\":20803:20942   */\n      swap1\n      pop\n        /* \"#utility.yul\":20530:20949   */\n      swap2\n      swap1\n      pop\n      jump\t// out\n        /* \"#utility.yul\":20955:21135   */\n    tag_406:\n        /* \"#utility.yul\":21003:21080   */\n      0x4e487b7100000000000000000000000000000000000000000000000000000000\n        /* \"#utility.yul\":21000:21001   */\n      0x00\n        /* \"#utility.yul\":20993:21081   */\n      mstore\n        /* \"#utility.yul\":21100:21104   */\n      0x11\n        /* \"#utility.yul\":21097:21098   */\n      0x04\n        /* \"#utility.yul\":21090:21105   */\n      mstore\n        /* \"#utility.yul\":21124:21128   */\n      0x24\n        /* \"#utility.yul\":21121:21122   */\n      0x00\n        /* \"#utility.yul\":21114:21129   */\n      revert\n        /* \"#utility.yul\":21141:21374   */\n    tag_177:\n        /* \"#utility.yul\":21180:21183   */\n      0x00\n        /* \"#utility.yul\":21203:21227   */\n      tag_659\n        /* \"#utility.yul\":21221:21226   */\n      dup3\n        /* \"#utility.yul\":21203:21227   */\n      tag_360\n      jump\t// in\n    tag_659:\n        /* \"#utility.yul\":21194:21227   */\n      swap2\n      pop\n        /* \"#utility.yul\":21249:21315   */\n      0xffffffffffffffffffffffffffffffffffffffffffffffffffffffffffffffff\n        /* \"#utility.yul\":21242:21247   */\n      dup3\n        /* \"#utility.yul\":21239:21316   */\n      sub\n        /* \"#utility.yul\":21236:21339   */\n      tag_660\n      jumpi\n        /* \"#utility.yul\":21319:21337   */\n      tag_661\n      tag_406\n      jump\t// in\n    tag_661:\n        /* \"#utility.yul\":21236:21339   */\n    tag_660:\n        /* \"#utility.yul\":21366:21367   */\n      0x01\n        /* \"#utility.yul\":21359:21364   */\n      dup3\n        /* \"#utility.yul\":21355:21368   */\n      add\n        /* \"#utility.yul\":21348:21368   */\n      swap1\n      pop\n        /* \"#utility.yul\":21141:21374   */\n      swap2\n      swap1\n      pop\n      jump\t// out\n        /* \"#utility.yul\":21380:21544   */\n    tag_407:\n        /* \"#utility.yul\":21520:21536   */\n      0x546f7272656e7420657869737473000000000000000000000000000000000000\n        /* \"#utility.yul\":21516:21517   */\n      0x00\n        /* \"#utility.yul\":21508:21514   */\n      dup3\n        /* \"#utility.yul\":21504:21518   */\n      add\n        /* \"#utility.yul\":21497:21537   */\n      mstore\n        /* \"#utility.yul\":21380:21544   */\n      pop\n      jump\t// out\n        /* \"#utility.yul\":21550:21916   */\n    tag_408:\n        /* \"#utility.yul\":21692:21695   */\n      0x00\n        /* \"#utility.yul\":21713:21780   */\n      tag_664\n        /* \"#utility.yul\":21777:21779   */\n      0x0e\n        /* \"#utility.yul\":21772:21775   */\n      dup4\n        /* \"#utility.yul\":21713:21780   */\n      tag_401\n      jump\t// in\n    tag_664:\n        /* \"#utility.yul\":21706:21780   */\n      swap2\n      pop\n        /* \"#utility.yul\":21789:21882   */\n      tag_665\n        /* \"#utility.yul\":21878:21881   */\n      dup3\n        /* \"#utility.yul\":21789:21882   */\n      tag_407\n      jump\t// in\n    tag_665:\n        /* \"#utility.yul\":21907:21909   */\n      0x20\n        /* \"#utility.yul\":21902:21905   */\n      dup3\n        /* \"#utility.yul\":21898:21910   */\n      add\n        /* \"#utility.yul\":21891:21910   */\n      swap1\n      pop\n        /* \"#utility.yul\":21550:21916   */\n      swap2\n      swap1\n      pop\n      jump\t// out\n        /* \"#utility.yul\":21922:22341   */\n    tag_197:\n        /* \"#utility.yul\":22088:22092   */\n      0x00\n        /* \"#utility.yul\":22126:22128   */\n      0x20\n        /* \"#utility.yul\":22115:22124   */\n      dup3\n        /* \"#utility.yul\":22111:22129   */\n      add\n        /* \"#utility.yul\":22103:22129   */\n      swap1\n      pop\n        /* \"#utility.yul\":22175:22184   */\n      dup2\n        /* \"#utility.yul\":22169:22173   */\n      dup2\n        /* \"#utility.yul\":22165:22185   */\n      sub\n        /* \"#utility.yul\":22161:22162   */\n      0x00\n        /* \"#utility.yul\":22150:22159   */\n      dup4\n        /* \"#utility.yul\":22146:22163   */\n      add\n        /* \"#utility.yul\":22139:22186   */\n      mstore\n        /* \"#utility.yul\":22203:22334   */\n      tag_667\n        /* \"#utility.yul\":22329:22333   */\n      dup2\n        /* \"#utility.yul\":22203:22334   */\n      tag_408\n      jump\t// in\n    tag_667:\n        /* \"#utility.yul\":22195:22334   */\n      swap1\n      pop\n        /* \"#utility.yul\":21922:22341   */\n      swap2\n      swap1\n      pop\n      jump\t// out\n        /* \"#utility.yul\":22347:22490   */\n    tag_409:\n        /* \"#utility.yul\":22404:22409   */\n      0x00\n        /* \"#utility.yul\":22435:22441   */\n      dup2\n        /* \"#utility.yul\":22429:22442   */\n      mload\n        /* \"#utility.yul\":22420:22442   */\n      swap1\n      pop\n        /* \"#utility.yul\":22451:22484   */\n      tag_669\n        /* \"#utility.yul\":22478:22483   */\n      dup2\n        /* \"#utility.yul\":22451:22484   */\n      tag_357\n      jump\t// in\n    tag_669:\n        /* \"#utility.yul\":22347:22490   */\n      swap3\n      swap2\n      pop\n      pop\n      jump\t// out\n        /* \"#utility.yul\":22496:22639   */\n    tag_410:\n        /* \"#utility.yul\":22553:22558   */\n      0x00\n        /* \"#utility.yul\":22584:22590   */\n      dup2\n        /* \"#utility.yul\":22578:22591   */\n      mload\n        /* \"#utility.yul\":22569:22591   */\n      swap1\n      pop\n        /* \"#utility.yul\":22600:22633   */\n      tag_671\n        /* \"#utility.yul\":22627:22632   */\n      dup2\n        /* \"#utility.yul\":22600:22633   */\n      tag_367\n      jump\t// in\n    tag_671:\n        /* \"#utility.yul\":22496:22639   */\n      swap3\n      swap2\n      pop\n      pop\n      jump\t// out\n        /* \"#utility.yul\":22645:23465   */\n    tag_199:\n        /* \"#utility.yul\":22742:22748   */\n      0x00\n        /* \"#utility.yul\":22750:22756   */\n      dup1\n        /* \"#utility.yul\":22758:22764   */\n      0x00\n        /* \"#utility.yul\":22766:22772   */\n      dup1\n        /* \"#utility.yul\":22815:22818   */\n      0x80\n        /* \"#utility.yul\":22803:22812   */\n      dup6\n        /* \"#utility.yul\":22794:22801   */\n      dup8\n        /* \"#utility.yul\":22790:22813   */\n      sub\n        /* \"#utility.yul\":22786:22819   */\n      slt\n        /* \"#utility.yul\":22783:22903   */\n      iszero\n      tag_673\n      jumpi\n        /* \"#utility.yul\":22822:22901   */\n      tag_674\n      tag_354\n      jump\t// in\n    tag_674:\n        /* \"#utility.yul\":22783:22903   */\n    tag_673:\n        /* \"#utility.yul\":22942:22943   */\n      0x00\n        /* \"#utility.yul\":22967:23031   */\n      tag_675\n        /* \"#utility.yul\":23023:23030   */\n      dup8\n        /* \"#utility.yul\":23014:23020   */\n      dup3\n        /* \"#utility.yul\":23003:23012   */\n      dup9\n        /* \"#utility.yul\":22999:23021   */\n      add\n        /* \"#utility.yul\":22967:23031   */\n      tag_409\n      jump\t// in\n    tag_675:\n        /* \"#utility.yul\":22957:23031   */\n      swap5\n      pop\n        /* \"#utility.yul\":22913:23041   */\n      pop\n        /* \"#utility.yul\":23080:23082   */\n      0x20\n        /* \"#utility.yul\":23106:23170   */\n      tag_676\n        /* \"#utility.yul\":23162:23169   */\n      dup8\n        /* \"#utility.yul\":23153:23159   */\n      dup3\n        /* \"#utility.yul\":23142:23151   */\n      dup9\n        /* \"#utility.yul\":23138:23160   */\n      add\n        /* \"#utility.yul\":23106:23170   */\n      tag_410\n      jump\t// in\n    tag_676:\n        /* \"#utility.yul\":23096:23170   */\n      swap4\n      pop\n        /* \"#utility.yul\":23051:23180   */\n      pop\n        /* \"#utility.yul\":23219:23221   */\n      0x40\n        /* \"#utility.yul\":23245:23309   */\n      tag_677\n        /* \"#utility.yul\":23301:23308   */\n      dup8\n        /* \"#utility.yul\":23292:23298   */\n      dup3\n        /* \"#utility.yul\":23281:23290   */\n      dup9\n        /* \"#utility.yul\":23277:23299   */\n      add\n        /* \"#utility.yul\":23245:23309   */\n      tag_410\n      jump\t// in\n    tag_677:\n        /* \"#utility.yul\":23235:23309   */\n      swap3\n      pop\n        /* \"#utility.yul\":23190:23319   */\n      pop\n        /* \"#utility.yul\":23358:23360   */\n      0x60\n        /* \"#utility.yul\":23384:23448   */\n      tag_678\n        /* \"#utility.yul\":23440:23447   */\n      dup8\n        /* \"#utility.yul\":23431:23437   */\n      dup3\n        /* \"#utility.yul\":23420:23429   */\n      dup9\n        /* \"#utility.yul\":23416:23438   */\n      add\n        /* \"#utility.yul\":23384:23448   */\n      tag_409\n      jump\t// in\n    tag_678:\n        /* \"#utility.yul\":23374:23448   */\n      swap2\n      pop\n        /* \"#utility.yul\":23329:23458   */\n      pop\n        /* \"#utility.yul\":22645:23465   */\n      swap3\n      swap6\n      swap2\n      swap5\n      pop\n      swap3\n      pop\n      jump\t// out\n        /* \"#utility.yul\":23471:23641   */\n    tag_411:\n        /* \"#utility.yul\":23611:23633   */\n      0x50696563652073697a6520746f6f206c61726765000000000000000000000000\n        /* \"#utility.yul\":23607:23608   */\n      0x00\n        /* \"#utility.yul\":23599:23605   */\n      dup3\n        /* \"#utility.yul\":23595:23609   */\n      add\n        /* \"#utility.yul\":23588:23634   */\n      mstore\n        /* \"#utility.yul\":23471:23641   */\n      pop\n      jump\t// out\n        /* \"#utility.yul\":23647:24013   */\n    tag_412:\n        /* \"#utility.yul\":23789:23792   */\n      0x00\n        /* \"#utility.yul\":23810:23877   */\n      tag_681\n        /* \"#utility.yul\":23874:23876   */\n      0x14\n        /* \"#utility.yul\":23869:23872   */\n      dup4\n        /* \"#utility.yul\":23810:23877   */\n      tag_401\n      jump\t// in\n    tag_681:\n        /* \"#utility.yul\":23803:23877   */\n      swap2\n      pop\n        /* \"#utility.yul\":23886:23979   */\n      tag_682\n        /* \"#utility.yul\":23975:23978   */\n      dup3\n        /* \"#utility.yul\":23886:23979   */\n      tag_411\n      jump\t// in\n    tag_682:\n        /* \"#utility.yul\":24004:24006   */\n      0x20\n        /* \"#utility.yul\":23999:24002   */\n      dup3\n        /* \"#utility.yul\":23995:24007   */\n      add\n        /* \"#utility.yul\":23988:24007   */\n      swap1\n      pop\n        /* \"#utility.yul\":23647:24013   */\n      swap2\n      swap1\n      pop\n      jump\t// out\n        /* \"#utility.yul\":24019:24438   */\n    tag_211:\n        /* \"#utility.yul\":24185:24189   */\n      0x00\n        /* \"#utility.yul\":24223:24225   */\n      0x20\n        /* \"#utility.yul\":24212:24221   */\n      dup3\n        /* \"#utility.yul\":24208:24226   */\n      add\n        /* \"#utility.yul\":24200:24226   */\n      swap1\n      pop\n        /* \"#utility.yul\":24272:24281   */\n      dup2\n        /* \"#utility.yul\":24266:24270   */\n      dup2\n        /* \"#utility.yul\":24262:24282   */\n      sub\n        /* \"#utility.yul\":24258:24259   */\n      0x00\n        /* \"#utility.yul\":24247:24256   */\n      dup4\n        /* \"#utility.yul\":24243:24260   */\n      add\n        /* \"#utility.yul\":24236:24283   */\n      mstore\n        /* \"#utility.yul\":24300:24431   */\n      tag_684\n        /* \"#utility.yul\":24426:24430   */\n      dup2\n        /* \"#utility.yul\":24300:24431   */\n      tag_412\n      jump\t// in\n    tag_684:\n        /* \"#utility.yul\":24292:24431   */\n      swap1\n      pop\n        /* \"#utility.yul\":24019:24438   */\n      swap2\n      swap1\n      pop\n      jump\t// out\n        /* \"#utility.yul\":24444:24607   */\n    tag_413:\n        /* \"#utility.yul\":24584:24599   */\n      0x496e76616c69642073697a657300000000000000000000000000000000000000\n        /* \"#utility.yul\":24580:24581   */\n      0x00\n        /* \"#utility.yul\":24572:24578   */\n      dup3\n        /* \"#utility.yul\":24568:24582   */\n      add\n        /* \"#utility.yul\":24561:24600   */\n      mstore\n        /* \"#utility.yul\":24444:24607   */\n      pop\n      jump\t// out\n        /* \"#utility.yul\":24613:24979   */\n    tag_414:\n        /* \"#utility.yul\":24755:24758   */\n      0x00\n        /* \"#utility.yul\":24776:24843   */\n      tag_687\n        /* \"#utility.yul\":24840:24842   */\n      0x0d\n        /* \"#utility.yul\":24835:24838   */\n      dup4\n        /* \"#utility.yul\":24776:24843   */\n      tag_401\n      jump\t// in\n    tag_687:\n        /* \"#utility.yul\":24769:24843   */\n      swap2\n      pop\n        /* \"#utility.yul\":24852:24945   */\n      tag_688\n        /* \"#utility.yul\":24941:24944   */\n      dup3\n        /* \"#utility.yul\":24852:24945   */\n      tag_413\n      jump\t// in\n    tag_688:\n        /* \"#utility.yul\":24970:24972   */\n      0x20\n        /* \"#utility.yul\":24965:24968   */\n      dup3\n        /* \"#utility.yul\":24961:24973   */\n      add\n        /* \"#utility.yul\":24954:24973   */\n      swap1\n      pop\n        /* \"#utility.yul\":24613:24979   */\n      swap2\n      swap1\n      pop\n      jump\t// out\n        /* \"#utility.yul\":24985:25404   */\n    tag_215:\n        /* \"#utility.yul\":25151:25155   */\n      0x00\n        /* \"#utility.yul\":25189:25191   */\n      0x20\n        /* \"#utility.yul\":25178:25187   */\n      dup3\n        /* \"#utility.yul\":25174:25192   */\n      add\n        /* \"#utility.yul\":25166:25192   */\n      swap1\n      pop\n        /* \"#utility.yul\":25238:25247   */\n      dup2\n        /* \"#utility.yul\":25232:25236   */\n      dup2\n        /* \"#utility.yul\":25228:25248   */\n      sub\n        /* \"#utility.yul\":25224:25225   */\n      0x00\n        /* \"#utility.yul\":25213:25222   */\n      dup4\n        /* \"#utility.yul\":25209:25226   */\n      add\n        /* \"#utility.yul\":25202:25249   */\n      mstore\n        /* \"#utility.yul\":25266:25397   */\n      tag_690\n        /* \"#utility.yul\":25392:25396   */\n      dup2\n        /* \"#utility.yul\":25266:25397   */\n      tag_414\n      jump\t// in\n    tag_690:\n        /* \"#utility.yul\":25258:25397   */\n      swap1\n      pop\n        /* \"#utility.yul\":24985:25404   */\n      swap2\n      swap1\n      pop\n      jump\t// out\n        /* \"#utility.yul\":25432:25746   */\n    tag_415:\n        /* \"#utility.yul\":25528:25531   */\n      0x00\n        /* \"#utility.yul\":25549:25619   */\n      tag_692\n        /* \"#utility.yul\":25612:25618   */\n      dup4\n        /* \"#utility.yul\":25607:25610   */\n      dup6\n        /* \"#utility.yul\":25549:25619   */\n      tag_398\n      jump\t// in\n    tag_692:\n        /* \"#utility.yul\":25542:25619   */\n      swap4\n      pop\n        /* \"#utility.yul\":25629:25685   */\n      tag_693\n        /* \"#utility.yul\":25678:25684   */\n      dup4\n        /* \"#utility.yul\":25673:25676   */\n      dup6\n        /* \"#utility.yul\":25666:25671   */\n      dup5\n        /* \"#utility.yul\":25629:25685   */\n      tag_391\n      jump\t// in\n    tag_693:\n        /* \"#utility.yul\":25710:25739   */\n      tag_694\n        /* \"#utility.yul\":25732:25738   */\n      dup4\n        /* \"#utility.yul\":25710:25739   */\n      tag_387\n      jump\t// in\n    tag_694:\n        /* \"#utility.yul\":25705:25708   */\n      dup5\n        /* \"#utility.yul\":25701:25740   */\n      add\n        /* \"#utility.yul\":25694:25740   */\n      swap1\n      pop\n        /* \"#utility.yul\":25432:25746   */\n      swap4\n      swap3\n      pop\n      pop\n      pop\n      jump\t// out\n        /* \"#utility.yul\":25752:26301   */\n    tag_219:\n        /* \"#utility.yul\":25929:25933   */\n      0x00\n        /* \"#utility.yul\":25967:25969   */\n      0x60\n        /* \"#utility.yul\":25956:25965   */\n      dup3\n        /* \"#utility.yul\":25952:25970   */\n      add\n        /* \"#utility.yul\":25944:25970   */\n      swap1\n      pop\n        /* \"#utility.yul\":25980:26051   */\n      tag_696\n        /* \"#utility.yul\":26048:26049   */\n      0x00\n        /* \"#utility.yul\":26037:26046   */\n      dup4\n        /* \"#utility.yul\":26033:26050   */\n      add\n        /* \"#utility.yul\":26024:26030   */\n      dup8\n        /* \"#utility.yul\":25980:26051   */\n      tag_359\n      jump\t// in\n    tag_696:\n        /* \"#utility.yul\":26098:26107   */\n      dup2\n        /* \"#utility.yul\":26092:26096   */\n      dup2\n        /* \"#utility.yul\":26088:26108   */\n      sub\n        /* \"#utility.yul\":26083:26085   */\n      0x20\n        /* \"#utility.yul\":26072:26081   */\n      dup4\n        /* \"#utility.yul\":26068:26086   */\n      add\n        /* \"#utility.yul\":26061:26109   */\n      mstore\n        /* \"#utility.yul\":26126:26212   */\n      tag_697\n        /* \"#utility.yul\":26207:26211   */\n      dup2\n        /* \"#utility.yul\":26198:26204   */\n      dup6\n        /* \"#utility.yul\":26190:26196   */\n      dup8\n        /* \"#utility.yul\":26126:26212   */\n      tag_415\n      jump\t// in\n    tag_697:\n        /* \"#utility.yul\":26118:26212   */\n      swap1\n      pop\n        /* \"#utility.yul\":26222:26294   */\n      tag_698\n        /* \"#utility.yul\":26290:26292   */\n      0x40\n        /* \"#utility.yul\":26279:26288   */\n      dup4\n        /* \"#utility.yul\":26275:26293   */\n      add\n        /* \"#utility.yul\":26266:26272   */\n      dup5\n        /* \"#utility.yul\":26222:26294   */\n      tag_364\n      jump\t// in\n    tag_698:\n        /* \"#utility.yul\":25752:26301   */\n      swap6\n      swap5\n      pop\n      pop\n      pop\n      pop\n      pop\n      jump\t// out\n        /* \"#utility.yul\":26307:26423   */\n    tag_416:\n        /* \"#utility.yul\":26377:26398   */\n      tag_700\n        /* \"#utility.yul\":26392:26397   */\n      dup2\n        /* \"#utility.yul\":26377:26398   */\n      tag_365\n      jump\t// in\n    tag_700:\n        /* \"#utility.yul\":26370:26375   */\n      dup2\n        /* \"#utility.yul\":26367:26399   */\n      eq\n        /* \"#utility.yul\":26357:26417   */\n      tag_701\n      jumpi\n        /* \"#utility.yul\":26413:26414   */\n      0x00\n        /* \"#utility.yul\":26410:26411   */\n      dup1\n        /* \"#utility.yul\":26403:26415   */\n      revert\n        /* \"#utility.yul\":26357:26417   */\n    tag_701:\n        /* \"#utility.yul\":26307:26423   */\n      pop\n      jump\t// out\n        /* \"#utility.yul\":26429:26566   */\n    tag_417:\n        /* \"#utility.yul\":26483:26488   */\n      0x00\n        /* \"#utility.yul\":26514:26520   */\n      dup2\n        /* \"#utility.yul\":26508:26521   */\n      mload\n        /* \"#utility.yul\":26499:26521   */\n      swap1\n      pop\n        /* \"#utility.yul\":26530:26560   */\n      tag_703\n        /* \"#utility.yul\":26554:26559   */\n      dup2\n        /* \"#utility.yul\":26530:26560   */\n      tag_416\n      jump\t// in\n    tag_703:\n        /* \"#utility.yul\":26429:26566   */\n      swap3\n      swap2\n      pop\n      pop\n      jump\t// out\n        /* \"#utility.yul\":26572:26917   */\n    tag_223:\n        /* \"#utility.yul\":26639:26645   */\n      0x00\n        /* \"#utility.yul\":26688:26690   */\n      0x20\n        /* \"#utility.yul\":26676:26685   */\n      dup3\n        /* \"#utility.yul\":26667:26674   */\n      dup5\n        /* \"#utility.yul\":26663:26686   */\n      sub\n        /* \"#utility.yul\":26659:26691   */\n      slt\n        /* \"#utility.yul\":26656:26775   */\n      iszero\n      tag_705\n      jumpi\n        /* \"#utility.yul\":26694:26773   */\n      tag_706\n      tag_354\n      jump\t// in\n    tag_706:\n        /* \"#utility.yul\":26656:26775   */\n    tag_705:\n        /* \"#utility.yul\":26814:26815   */\n      0x00\n        /* \"#utility.yul\":26839:26900   */\n      tag_707\n        /* \"#utility.yul\":26892:26899   */\n      dup5\n        /* \"#utility.yul\":26883:26889   */\n      dup3\n        /* \"#utility.yul\":26872:26881   */\n      dup6\n        /* \"#utility.yul\":26868:26890   */\n      add\n        /* \"#utility.yul\":26839:26900   */\n      tag_417\n      jump\t// in\n    tag_707:\n        /* \"#utility.yul\":26829:26900   */\n      swap2\n      pop\n        /* \"#utility.yul\":26785:26910   */\n      pop\n        /* \"#utility.yul\":26572:26917   */\n      swap3\n      swap2\n      pop\n      pop\n      jump\t// out\n        /* \"#utility.yul\":26923:27091   */\n    tag_418:\n        /* \"#utility.yul\":27063:27083   */\n      0x496e76616c69642066696c652070726f6f660000000000000000000000000000\n        /* \"#utility.yul\":27059:27060   */\n      0x00\n        /* \"#utility.yul\":27051:27057   */\n      dup3\n        /* \"#utility.yul\":27047:27061   */\n      add\n        /* \"#utility.yul\":27040:27084   */\n      mstore\n        /* \"#utility.yul\":26923:27091   */\n      pop\n      jump\t// out\n        /* \"#utility.yul\":27097:27463   */\n    tag_419:\n        /* \"#utility.yul\":27239:27242   */\n      0x00\n        /* \"#utility.yul\":27260:27327   */\n      tag_710\n        /* \"#utility.yul\":27324:27326   */\n      0x12\n        /* \"#utility.yul\":27319:27322   */\n      dup4\n        /* \"#utility.yul\":27260:27327   */\n      tag_401\n      jump\t// in\n    tag_710:\n        /* \"#utility.yul\":27253:27327   */\n      swap2\n      pop\n        /* \"#utility.yul\":27336:27429   */\n      tag_711\n        /* \"#utility.yul\":27425:27428   */\n      dup3\n        /* \"#utility.yul\":27336:27429   */\n      tag_418\n      jump\t// in\n    tag_711:\n        /* \"#utility.yul\":27454:27456   */\n      0x20\n        /* \"#utility.yul\":27449:27452   */\n      dup3\n        /* \"#utility.yul\":27445:27457   */\n      add\n        /* \"#utility.yul\":27438:27457   */\n      swap1\n      pop\n        /* \"#utility.yul\":27097:27463   */\n      swap2\n      swap1\n      pop\n      jump\t// out\n        /* \"#utility.yul\":27469:27888   */\n    tag_226:\n        /* \"#utility.yul\":27635:27639   */\n      0x00\n        /* \"#utility.yul\":27673:27675   */\n      0x20\n        /* \"#utility.yul\":27662:27671   */\n      dup3\n        /* \"#utility.yul\":27658:27676   */\n      add\n        /* \"#utility.yul\":27650:27676   */\n      swap1\n      pop\n        /* \"#utility.yul\":27722:27731   */\n      dup2\n        /* \"#utility.yul\":27716:27720   */\n      dup2\n        /* \"#utility.yul\":27712:27732   */\n      sub\n        /* \"#utility.yul\":27708:27709   */\n      0x00\n        /* \"#utility.yul\":27697:27706   */\n      dup4\n        /* \"#utility.yul\":27693:27710   */\n      add\n        /* \"#utility.yul\":27686:27733   */\n      mstore\n        /* \"#utility.yul\":27750:27881   */\n      tag_713\n        /* \"#utility.yul\":27876:27880   */\n      dup2\n        /* \"#utility.yul\":27750:27881   */\n      tag_419\n      jump\t// in\n    tag_713:\n        /* \"#utility.yul\":27742:27881   */\n      swap1\n      pop\n        /* \"#utility.yul\":27469:27888   */\n      swap2\n      swap1\n      pop\n      jump\t// out\n        /* \"#utility.yul\":27894:28063   */\n    tag_420:\n        /* \"#utility.yul\":28034:28055   */\n      0x496e76616c696420706965636520696e64657800000000000000000000000000\n        /* \"#utility.yul\":28030:28031   */\n      0x00\n        /* \"#utility.yul\":28022:28028   */\n      dup3\n        /* \"#utility.yul\":28018:28032   */\n      add\n        /* \"#utility.yul\":28011:28056   */\n      mstore\n        /* \"#utility.yul\":27894:28063   */\n      pop\n      jump\t// out\n        /* \"#utility.yul\":28069:28435   */\n    tag_421:\n        /* \"#utility.yul\":28211:28214   */\n      0x00\n        /* \"#utility.yul\":28232:28299   */\n      tag_716\n        /* \"#utility.yul\":28296:28298   */\n      0x13\n        /* \"#utility.yul\":28291:28294   */\n      dup4\n        /* \"#utility.yul\":28232:28299   */\n      tag_401\n      jump\t// in\n    tag_716:\n        /* \"#utility.yul\":28225:28299   */\n      swap2\n      pop\n        /* \"#utility.yul\":28308:28401   */\n      tag_717\n        /* \"#utility.yul\":28397:28400   */\n      dup3\n        /* \"#utility.yul\":28308:28401   */\n      tag_420\n      jump\t// in\n    tag_717:\n        /* \"#utility.yul\":28426:28428   */\n      0x20\n        /* \"#utility.yul\":28421:28424   */\n      dup3\n        /* \"#utility.yul\":28417:28429   */\n      add\n        /* \"#utility.yul\":28410:28429   */\n      swap1\n      pop\n        /* \"#utility.yul\":28069:28435   */\n      swap2\n      swap1\n      pop\n      jump\t// out\n        /* \"#utility.yul\":28441:28860   */\n    tag_239:\n        /* \"#utility.yul\":28607:28611   */\n      0x00\n        /* \"#utility.yul\":28645:28647   */\n      0x20\n        /* \"#utility.yul\":28634:28643   */\n      dup3\n        /* \"#utility.yul\":28630:28648   */\n      add\n        /* \"#utility.yul\":28622:28648   */\n      swap1\n      pop\n        /* \"#utility.yul\":28694:28703   */\n      dup2\n        /* \"#utility.yul\":28688:28692   */\n      dup2\n        /* \"#utility.yul\":28684:28704   */\n      sub\n        /* \"#utility.yul\":28680:28681   */\n      0x00\n        /* \"#utility.yul\":28669:28678   */\n      dup4\n        /* \"#utility.yul\":28665:28682   */\n      add\n        /* \"#utility.yul\":28658:28705   */\n      mstore\n        /* \"#utility.yul\":28722:28853   */\n      tag_719\n        /* \"#utility.yul\":28848:28852   */\n      dup2\n        /* \"#utility.yul\":28722:28853   */\n      tag_421\n      jump\t// in\n    tag_719:\n        /* \"#utility.yul\":28714:28853   */\n      swap1\n      pop\n        /* \"#utility.yul\":28441:28860   */\n      swap2\n      swap1\n      pop\n      jump\t// out\n        /* \"#utility.yul\":28866:29415   */\n    tag_241:\n        /* \"#utility.yul\":29043:29047   */\n      0x00\n        /* \"#utility.yul\":29081:29083   */\n      0x60\n        /* \"#utility.yul\":29070:29079   */\n      dup3\n        /* \"#utility.yul\":29066:29084   */\n      add\n        /* \"#utility.yul\":29058:29084   */\n      swap1\n      pop\n        /* \"#utility.yul\":29094:29165   */\n      tag_721\n        /* \"#utility.yul\":29162:29163   */\n      0x00\n        /* \"#utility.yul\":29151:29160   */\n      dup4\n        /* \"#utility.yul\":29147:29164   */\n      add\n        /* \"#utility.yul\":29138:29144   */\n      dup8\n        /* \"#utility.yul\":29094:29165   */\n      tag_359\n      jump\t// in\n    tag_721:\n        /* \"#utility.yul\":29175:29247   */\n      tag_722\n        /* \"#utility.yul\":29243:29245   */\n      0x20\n        /* \"#utility.yul\":29232:29241   */\n      dup4\n        /* \"#utility.yul\":29228:29246   */\n      add\n        /* \"#utility.yul\":29219:29225   */\n      dup7\n        /* \"#utility.yul\":29175:29247   */\n      tag_359\n      jump\t// in\n    tag_722:\n        /* \"#utility.yul\":29294:29303   */\n      dup2\n        /* \"#utility.yul\":29288:29292   */\n      dup2\n        /* \"#utility.yul\":29284:29304   */\n      sub\n        /* \"#utility.yul\":29279:29281   */\n      0x40\n        /* \"#utility.yul\":29268:29277   */\n      dup4\n        /* \"#utility.yul\":29264:29282   */\n      add\n        /* \"#utility.yul\":29257:29305   */\n      mstore\n        /* \"#utility.yul\":29322:29408   */\n      tag_723\n        /* \"#utility.yul\":29403:29407   */\n      dup2\n        /* \"#utility.yul\":29394:29400   */\n      dup5\n        /* \"#utility.yul\":29386:29392   */\n      dup7\n        /* \"#utility.yul\":29322:29408   */\n      tag_415\n      jump\t// in\n    tag_723:\n        /* \"#utility.yul\":29314:29408   */\n      swap1\n      pop\n        /* \"#utility.yul\":28866:29415   */\n      swap6\n      swap5\n      pop\n      pop\n      pop\n      pop\n      pop\n      jump\t// out\n        /* \"#utility.yul\":29421:29590   */\n    tag_422:\n        /* \"#utility.yul\":29561:29582   */\n      0x496e76616c69642070696563652070726f6f6600000000000000000000000000\n        /* \"#utility.yul\":29557:29558   */\n      0x00\n        /* \"#utility.yul\":29549:29555   */\n      dup3\n        /* \"#utility.yul\":29545:29559   */\n      add\n        /* \"#utility.yul\":29538:29583   */\n      mstore\n        /* \"#utility.yul\":29421:29590   */\n      pop\n      jump\t// out\n        /* \"#utility.yul\":29596:29962   */\n    tag_423:\n        /* \"#utility.yul\":29738:29741   */\n      0x00\n        /* \"#utility.yul\":29759:29826   */\n      tag_726\n        /* \"#utility.yul\":29823:29825   */\n      0x13\n        /* \"#utility.yul\":29818:29821   */\n      dup4\n        /* \"#utility.yul\":29759:29826   */\n      tag_401\n      jump\t// in\n    tag_726:\n        /* \"#utility.yul\":29752:29826   */\n      swap2\n      pop\n        /* \"#utility.yul\":29835:29928   */\n      tag_727\n        /* \"#utility.yul\":29924:29927   */\n      dup3\n        /* \"#utility.yul\":29835:29928   */\n      tag_422\n      jump\t// in\n    tag_727:\n        /* \"#utility.yul\":29953:29955   */\n      0x20\n        /* \"#utility.yul\":29948:29951   */\n      dup3\n        /* \"#utility.yul\":29944:29956   */\n      add\n        /* \"#utility.yul\":29937:29956   */\n      swap1\n      pop\n        /* \"#utility.yul\":29596:29962   */\n      swap2\n      swap1\n      pop\n      jump\t// out\n        /* \"#utility.yul\":29968:30387   */\n    tag_247:\n        /* \"#utility.yul\":30134:30138   */\n      0x00\n        /* \"#utility.yul\":30172:30174   */\n      0x20\n        /* \"#utility.yul\":30161:30170   */\n      dup3\n        /* \"#utility.yul\":30157:30175   */\n      add\n        /* \"#utility.yul\":30149:30175   */\n      swap1\n      pop\n        /* \"#utility.yul\":30221:30230   */\n      dup2\n        /* \"#utility.yul\":30215:30219   */\n      dup2\n        /* \"#utility.yul\":30211:30231   */\n      sub\n        /* \"#utility.yul\":30207:30208   */\n      0x00\n        /* \"#utility.yul\":30196:30205   */\n      dup4\n        /* \"#utility.yul\":30192:30209   */\n      add\n        /* \"#utility.yul\":30185:30232   */\n      mstore\n        /* \"#utility.yul\":30249:30380   */\n      tag_729\n        /* \"#utility.yul\":30375:30379   */\n      dup2\n        /* \"#utility.yul\":30249:30380   */\n      tag_423\n      jump\t// in\n    tag_729:\n        /* \"#utility.yul\":30241:30380   */\n      swap1\n      pop\n        /* \"#utility.yul\":29968:30387   */\n      swap2\n      swap1\n      pop\n      jump\t// out\n        /* \"#utility.yul\":30393:30725   */\n    tag_249:\n        /* \"#utility.yul\":30514:30518   */\n      0x00\n        /* \"#utility.yul\":30552:30554   */\n      0x40\n        /* \"#utility.yul\":30541:30550   */\n      dup3\n        /* \"#utility.yul\":30537:30555   */\n      add\n        /* \"#utility.yul\":30529:30555   */\n      swap1\n      pop\n        /* \"#utility.yul\":30565:30636   */\n      tag_731\n        /* \"#utility.yul\":30633:30634   */\n      0x00\n        /* \"#utility.yul\":30622:30631   */\n      dup4\n        /* \"#utility.yul\":30618:30635   */\n      add\n        /* \"#utility.yul\":30609:30615   */\n      dup6\n        /* \"#utility.yul\":30565:30636   */\n      tag_359\n      jump\t// in\n    tag_731:\n        /* \"#utility.yul\":30646:30718   */\n      tag_732\n        /* \"#utility.yul\":30714:30716   */\n      0x20\n        /* \"#utility.yul\":30703:30712   */\n      dup4\n        /* \"#utility.yul\":30699:30717   */\n      add\n        /* \"#utility.yul\":30690:30696   */\n      dup5\n        /* \"#utility.yul\":30646:30718   */\n      tag_361\n      jump\t// in\n    tag_732:\n        /* \"#utility.yul\":30393:30725   */\n      swap4\n      swap3\n      pop\n      pop\n      pop\n      jump\t// out\n        /* \"#utility.yul\":30731:30898   */\n    tag_424:\n        /* \"#utility.yul\":30871:30890   */\n      0x4e6f7420746f7272656e74206f776e6572000000000000000000000000000000\n        /* \"#utility.yul\":30867:30868   */\n      0x00\n        /* \"#utility.yul\":30859:30865   */\n      dup3\n        /* \"#utility.yul\":30855:30869   */\n      add\n        /* \"#utility.yul\":30848:30891   */\n      mstore\n        /* \"#utility.yul\":30731:30898   */\n      pop\n      jump\t// out\n        /* \"#utility.yul\":30904:31270   */\n    tag_425:\n        /* \"#utility.yul\":31046:31049   */\n      0x00\n        /* \"#utility.yul\":31067:31134   */\n      tag_735\n        /* \"#utility.yul\":31131:31133   */\n      0x11\n        /* \"#utility.yul\":31126:31129   */\n      dup4\n        /* \"#utility.yul\":31067:31134   */\n      tag_401\n      jump\t// in\n    tag_735:\n        /* \"#utility.yul\":31060:31134   */\n      swap2\n      pop\n        /* \"#utility.yul\":31143:31236   */\n      tag_736\n        /* \"#utility.yul\":31232:31235   */\n      dup3\n        /* \"#utility.yul\":31143:31236   */\n      tag_424\n      jump\t// in\n    tag_736:\n        /* \"#utility.yul\":31261:31263   */\n      0x20\n        /* \"#utility.yul\":31256:31259   */\n      dup3\n        /* \"#utility.yul\":31252:31264   */\n      add\n        /* \"#utility.yul\":31245:31264   */\n      swap1\n      pop\n        /* \"#utility.yul\":30904:31270   */\n      swap2\n      swap1\n      pop\n      jump\t// out\n        /* \"#utility.yul\":31276:31695   */\n    tag_256:\n        /* \"#utility.yul\":31442:31446   */\n      0x00\n        /* \"#utility.yul\":31480:31482   */\n      0x20\n        /* \"#utility.yul\":31469:31478   */\n      dup3\n        /* \"#utility.yul\":31465:31483   */\n      add\n        /* \"#utility.yul\":31457:31483   */\n      swap1\n      pop\n        /* \"#utility.yul\":31529:31538   */\n      dup2\n        /* \"#utility.yul\":31523:31527   */\n      dup2\n        /* \"#utility.yul\":31519:31539   */\n      sub\n        /* \"#utility.yul\":31515:31516   */\n      0x00\n        /* \"#utility.yul\":31504:31513   */\n      dup4\n        /* \"#utility.yul\":31500:31517   */\n      add\n        /* \"#utility.yul\":31493:31540   */\n      mstore\n        /* \"#utility.yul\":31557:31688   */\n      tag_738\n        /* \"#utility.yul\":31683:31687   */\n      dup2\n        /* \"#utility.yul\":31557:31688   */\n      tag_425\n      jump\t// in\n    tag_738:\n        /* \"#utility.yul\":31549:31688   */\n      swap1\n      pop\n        /* \"#utility.yul\":31276:31695   */\n      swap2\n      swap1\n      pop\n      jump\t// out\n        /* \"#utility.yul\":31701:31863   */\n    tag_426:\n        /* \"#utility.yul\":31841:31855   */\n      0x4e6f7420696e20737761726d0000000000000000000000000000000000000000\n        /* \"#utility.yul\":31837:31838   */\n      0x00\n        /* \"#utility.yul\":31829:31835   */\n      dup3\n        /* \"#utility.yul\":31825:31839   */\n      add\n        /* \"#utility.yul\":31818:31856   */\n      mstore\n        /* \"#utility.yul\":31701:31863   */\n      pop\n      jump\t// out\n        /* \"#utility.yul\":31869:32235   */\n    tag_427:\n        /* \"#utility.yul\":32011:32014   */\n      0x00\n        /* \"#utility.yul\":32032:32099   */\n      tag_741\n        /* \"#utility.yul\":32096:32098   */\n      0x0c\n        /* \"#utility.yul\":32091:32094   */\n      dup4\n        /* \"#utility.yul\":32032:32099   */\n      tag_401\n      jump\t// in\n    tag_741:\n        /* \"#utility.yul\":32025:32099   */\n      swap2\n      pop\n        /* \"#utility.yul\":32108:32201   */\n      tag_742\n        /* \"#utility.yul\":32197:32200   */\n      dup3\n        /* \"#utility.yul\":32108:32201   */\n      tag_426\n      jump\t// in\n    tag_742:\n        /* \"#utility.yul\":32226:32228   */\n      0x20\n        /* \"#utility.yul\":32221:32224   */\n      dup3\n        /* \"#utility.yul\":32217:32229   */\n      add\n        /* \"#utility.yul\":32210:32229   */\n      swap1\n      pop\n        /* \"#utility.yul\":31869:32235   */\n      swap2\n      swap1\n      pop\n      jump\t// out\n        /* \"#utility.yul\":32241:32660   */\n    tag_262:\n        /* \"#utility.yul\":32407:32411   */\n      0x00\n        /* \"#utility.yul\":32445:32447   */\n      0x20\n        /* \"#utility.yul\":32434:32443   */\n      dup3\n        /* \"#utility.yul\":32430:32448   */\n      add\n        /* \"#utility.yul\":32422:32448   */\n      swap1\n      pop\n        /* \"#utility.yul\":32494:32503   */\n      dup2\n        /* \"#utility.yul\":32488:32492   */\n      dup2\n        /* \"#utility.yul\":32484:32504   */\n      sub\n        /* \"#utility.yul\":32480:32481   */\n      0x00\n        /* \"#utility.yul\":32469:32478   */\n      dup4\n        /* \"#utility.yul\":32465:32482   */\n      add\n        /* \"#utility.yul\":32458:32505   */\n      mstore\n        /* \"#utility.yul\":32522:32653   */\n      tag_744\n        /* \"#utility.yul\":32648:32652   */\n      dup2\n        /* \"#utility.yul\":32522:32653   */\n      tag_427\n      jump\t// in\n    tag_744:\n        /* \"#utility.yul\":32514:32653   */\n      swap1\n      pop\n        /* \"#utility.yul\":32241:32660   */\n      swap2\n      swap1\n      pop\n      jump\t// out\n        /* \"#utility.yul\":32666:32837   */\n    tag_264:\n        /* \"#utility.yul\":32705:32708   */\n      0x00\n        /* \"#utility.yul\":32728:32752   */\n      tag_746\n        /* \"#utility.yul\":32746:32751   */\n      dup3\n        /* \"#utility.yul\":32728:32752   */\n      tag_360\n      jump\t// in\n    tag_746:\n        /* \"#utility.yul\":32719:32752   */\n      swap2\n      pop\n        /* \"#utility.yul\":32774:32778   */\n      0x00\n        /* \"#utility.yul\":32767:32772   */\n      dup3\n        /* \"#utility.yul\":32764:32779   */\n      sub\n        /* \"#utility.yul\":32761:32802   */\n      tag_747\n      jumpi\n        /* \"#utility.yul\":32782:32800   */\n      tag_748\n      tag_406\n      jump\t// in\n    tag_748:\n        /* \"#utility.yul\":32761:32802   */\n    tag_747:\n        /* \"#utility.yul\":32829:32830   */\n      0x01\n        /* \"#utility.yul\":32822:32827   */\n      dup3\n        /* \"#utility.yul\":32818:32831   */\n      sub\n        /* \"#utility.yul\":32811:32831   */\n      swap1\n      pop\n        /* \"#utility.yul\":32666:32837   */\n      swap2\n      swap1\n      pop\n      jump\t// out\n        /* \"#utility.yul\":32843:33705   */\n    tag_269:\n        /* \"#utility.yul\":33092:33096   */\n      0x00\n        /* \"#utility.yul\":33130:33133   */\n      0xe0\n        /* \"#utility.yul\":33119:33128   */\n      dup3\n        /* \"#utility.yul\":33115:33134   */\n      add\n        /* \"#utility.yul\":33107:33134   */\n      swap1\n      pop\n        /* \"#utility.yul\":33144:33215   */\n      tag_750\n        /* \"#utility.yul\":33212:33213   */\n      0x00\n        /* \"#utility.yul\":33201:33210   */\n      dup4\n        /* \"#utility.yul\":33197:33214   */\n      add\n        /* \"#utility.yul\":33188:33194   */\n      dup11\n        /* \"#utility.yul\":33144:33215   */\n      tag_359\n      jump\t// in\n    tag_750:\n        /* \"#utility.yul\":33225:33297   */\n      tag_751\n        /* \"#utility.yul\":33293:33295   */\n      0x20\n        /* \"#utility.yul\":33282:33291   */\n      dup4\n        /* \"#utility.yul\":33278:33296   */\n      add\n        /* \"#utility.yul\":33269:33275   */\n      dup10\n        /* \"#utility.yul\":33225:33297   */\n      tag_361\n      jump\t// in\n    tag_751:\n        /* \"#utility.yul\":33307:33379   */\n      tag_752\n        /* \"#utility.yul\":33375:33377   */\n      0x40\n        /* \"#utility.yul\":33364:33373   */\n      dup4\n        /* \"#utility.yul\":33360:33378   */\n      add\n        /* \"#utility.yul\":33351:33357   */\n      dup9\n        /* \"#utility.yul\":33307:33379   */\n      tag_361\n      jump\t// in\n    tag_752:\n        /* \"#utility.yul\":33389:33461   */\n      tag_753\n        /* \"#utility.yul\":33457:33459   */\n      0x60\n        /* \"#utility.yul\":33446:33455   */\n      dup4\n        /* \"#utility.yul\":33442:33460   */\n      add\n        /* \"#utility.yul\":33433:33439   */\n      dup8\n        /* \"#utility.yul\":33389:33461   */\n      tag_359\n      jump\t// in\n    tag_753:\n        /* \"#utility.yul\":33471:33544   */\n      tag_754\n        /* \"#utility.yul\":33539:33542   */\n      0x80\n        /* \"#utility.yul\":33528:33537   */\n      dup4\n        /* \"#utility.yul\":33524:33543   */\n      add\n        /* \"#utility.yul\":33515:33521   */\n      dup7\n        /* \"#utility.yul\":33471:33544   */\n      tag_364\n      jump\t// in\n    tag_754:\n        /* \"#utility.yul\":33554:33621   */\n      tag_755\n        /* \"#utility.yul\":33616:33619   */\n      0xa0\n        /* \"#utility.yul\":33605:33614   */\n      dup4\n        /* \"#utility.yul\":33601:33620   */\n      add\n        /* \"#utility.yul\":33592:33598   */\n      dup6\n        /* \"#utility.yul\":33554:33621   */\n      tag_366\n      jump\t// in\n    tag_755:\n        /* \"#utility.yul\":33631:33698   */\n      tag_756\n        /* \"#utility.yul\":33693:33696   */\n      0xc0\n        /* \"#utility.yul\":33682:33691   */\n      dup4\n        /* \"#utility.yul\":33678:33697   */\n      add\n        /* \"#utility.yul\":33669:33675   */\n      dup5\n        /* \"#utility.yul\":33631:33698   */\n      tag_366\n      jump\t// in\n    tag_756:\n        /* \"#utility.yul\":32843:33705   */\n      swap9\n      swap8\n      pop\n      pop\n      pop\n      pop\n      pop\n      pop\n      pop\n      pop\n      jump\t// out\n        /* \"#utility.yul\":33711:33872   */\n    tag_428:\n        /* \"#utility.yul\":33851:33864   */\n      0x5065657220657869737473000000000000000000000000000000000000000000\n        /* \"#utility.yul\":33847:33848   */\n      0x00\n        /* \"#utility.yul\":33839:33845   */\n      dup3\n        /* \"#utility.yul\":33835:33849   */\n      add\n        /* \"#utility.yul\":33828:33865   */\n      mstore\n        /* \"#utility.yul\":33711:33872   */\n      pop\n      jump\t// out\n        /* \"#utility.yul\":33878:34244   */\n    tag_429:\n        /* \"#utility.yul\":34020:34023   */\n      0x00\n        /* \"#utility.yul\":34041:34108   */\n      tag_759\n        /* \"#utility.yul\":34105:34107   */\n      0x0b\n        /* \"#utility.yul\":34100:34103   */\n      dup4\n        /* \"#utility.yul\":34041:34108   */\n      tag_401\n      jump\t// in\n    tag_759:\n        /* \"#utility.yul\":34034:34108   */\n      swap2\n      pop\n        /* \"#utility.yul\":34117:34210   */\n      tag_760\n        /* \"#utility.yul\":34206:34209   */\n      dup3\n        /* \"#utility.yul\":34117:34210   */\n      tag_428\n      jump\t// in\n    tag_760:\n        /* \"#utility.yul\":34235:34237   */\n      0x20\n        /* \"#utility.yul\":34230:34233   */\n      dup3\n        /* \"#utility.yul\":34226:34238   */\n      add\n        /* \"#utility.yul\":34219:34238   */\n      swap1\n      pop\n        /* \"#utility.yul\":33878:34244   */\n      swap2\n      swap1\n      pop\n      jump\t// out\n        /* \"#utility.yul\":34250:34669   */\n    tag_284:\n        /* \"#utility.yul\":34416:34420   */\n      0x00\n        /* \"#utility.yul\":34454:34456   */\n      0x20\n        /* \"#utility.yul\":34443:34452   */\n      dup3\n        /* \"#utility.yul\":34439:34457   */\n      add\n        /* \"#utility.yul\":34431:34457   */\n      swap1\n      pop\n        /* \"#utility.yul\":34503:34512   */\n      dup2\n        /* \"#utility.yul\":34497:34501   */\n      dup2\n        /* \"#utility.yul\":34493:34513   */\n      sub\n        /* \"#utility.yul\":34489:34490   */\n      0x00\n        /* \"#utility.yul\":34478:34487   */\n      dup4\n        /* \"#utility.yul\":34474:34491   */\n      add\n        /* \"#utility.yul\":34467:34514   */\n      mstore\n        /* \"#utility.yul\":34531:34662   */\n      tag_762\n        /* \"#utility.yul\":34657:34661   */\n      dup2\n        /* \"#utility.yul\":34531:34662   */\n      tag_429\n      jump\t// in\n    tag_762:\n        /* \"#utility.yul\":34523:34662   */\n      swap1\n      pop\n        /* \"#utility.yul\":34250:34669   */\n      swap2\n      swap1\n      pop\n      jump\t// out\n        /* \"#utility.yul\":34675:34769   */\n    tag_430:\n        /* \"#utility.yul\":34708:34716   */\n      0x00\n        /* \"#utility.yul\":34756:34761   */\n      dup2\n        /* \"#utility.yul\":34752:34754   */\n      0x60\n        /* \"#utility.yul\":34748:34762   */\n      shl\n        /* \"#utility.yul\":34727:34762   */\n      swap1\n      pop\n        /* \"#utility.yul\":34675:34769   */\n      swap2\n      swap1\n      pop\n      jump\t// out\n        /* \"#utility.yul\":34775:34869   */\n    tag_431:\n        /* \"#utility.yul\":34814:34821   */\n      0x00\n        /* \"#utility.yul\":34843:34863   */\n      tag_765\n        /* \"#utility.yul\":34857:34862   */\n      dup3\n        /* \"#utility.yul\":34843:34863   */\n      tag_430\n      jump\t// in\n    tag_765:\n        /* \"#utility.yul\":34832:34863   */\n      swap1\n      pop\n        /* \"#utility.yul\":34775:34869   */\n      swap2\n      swap1\n      pop\n      jump\t// out\n        /* \"#utility.yul\":34875:34975   */\n    tag_432:\n        /* \"#utility.yul\":34914:34921   */\n      0x00\n        /* \"#utility.yul\":34943:34969   */\n      tag_767\n        /* \"#utility.yul\":34963:34968   */\n      dup3\n        /* \"#utility.yul\":34943:34969   */\n      tag_431\n      jump\t// in\n    tag_767:\n        /* \"#utility.yul\":34932:34969   */\n      swap1\n      pop\n        /* \"#utility.yul\":34875:34975   */\n      swap2\n      swap1\n      pop\n      jump\t// out\n        /* \"#utility.yul\":34981:35138   */\n    tag_433:\n        /* \"#utility.yul\":35086:35131   */\n      tag_769\n        /* \"#utility.yul\":35106:35130   */\n      tag_770\n        /* \"#utility.yul\":35124:35129   */\n      dup3\n        /* \"#utility.yul\":35106:35130   */\n      tag_363\n      jump\t// in\n    tag_770:\n        /* \"#utility.yul\":35086:35131   */\n      tag_432\n      jump\t// in\n    tag_769:\n        /* \"#utility.yul\":35081:35084   */\n      dup3\n        /* \"#utility.yul\":35074:35132   */\n      mstore\n        /* \"#utility.yul\":34981:35138   */\n      pop\n      pop\n      jump\t// out\n        /* \"#utility.yul\":35144:35223   */\n    tag_434:\n        /* \"#utility.yul\":35183:35190   */\n      0x00\n        /* \"#utility.yul\":35212:35217   */\n      dup2\n        /* \"#utility.yul\":35201:35217   */\n      swap1\n      pop\n        /* \"#utility.yul\":35144:35223   */\n      swap2\n      swap1\n      pop\n      jump\t// out\n        /* \"#utility.yul\":35229:35386   */\n    tag_435:\n        /* \"#utility.yul\":35334:35379   */\n      tag_773\n        /* \"#utility.yul\":35354:35378   */\n      tag_774\n        /* \"#utility.yul\":35372:35377   */\n      dup3\n        /* \"#utility.yul\":35354:35378   */\n      tag_360\n      jump\t// in\n    tag_774:\n        /* \"#utility.yul\":35334:35379   */\n      tag_434\n      jump\t// in\n    tag_773:\n        /* \"#utility.yul\":35329:35332   */\n      dup3\n        /* \"#utility.yul\":35322:35380   */\n      mstore\n        /* \"#utility.yul\":35229:35386   */\n      pop\n      pop\n      jump\t// out\n        /* \"#utility.yul\":35392:35789   */\n    tag_288:\n        /* \"#utility.yul\":35532:35535   */\n      0x00\n        /* \"#utility.yul\":35547:35622   */\n      tag_776\n        /* \"#utility.yul\":35618:35621   */\n      dup3\n        /* \"#utility.yul\":35609:35615   */\n      dup6\n        /* \"#utility.yul\":35547:35622   */\n      tag_433\n      jump\t// in\n    tag_776:\n        /* \"#utility.yul\":35647:35649   */\n      0x14\n        /* \"#utility.yul\":35642:35645   */\n      dup3\n        /* \"#utility.yul\":35638:35650   */\n      add\n        /* \"#utility.yul\":35631:35650   */\n      swap2\n      pop\n        /* \"#utility.yul\":35660:35735   */\n      tag_777\n        /* \"#utility.yul\":35731:35734   */\n      dup3\n        /* \"#utility.yul\":35722:35728   */\n      dup5\n        /* \"#utility.yul\":35660:35735   */\n      tag_435\n      jump\t// in\n    tag_777:\n        /* \"#utility.yul\":35760:35762   */\n      0x20\n        /* \"#utility.yul\":35755:35758   */\n      dup3\n        /* \"#utility.yul\":35751:35763   */\n      add\n        /* \"#utility.yul\":35744:35763   */\n      swap2\n      pop\n        /* \"#utility.yul\":35780:35783   */\n      dup2\n        /* \"#utility.yul\":35773:35783   */\n      swap1\n      pop\n        /* \"#utility.yul\":35392:35789   */\n      swap4\n      swap3\n      pop\n      pop\n      pop\n      jump\t// out\n        /* \"#utility.yul\":35795:36051   */\n    tag_290:\n        /* \"#utility.yul\":35907:35910   */\n      0x00\n        /* \"#utility.yul\":35922:35997   */\n      tag_779\n        /* \"#utility.yul\":35993:35996   */\n      dup3\n        /* \"#utility.yul\":35984:35990   */\n      dup5\n        /* \"#utility.yul\":35922:35997   */\n      tag_433\n      jump\t// in\n    tag_779:\n        /* \"#utility.yul\":36022:36024   */\n      0x14\n        /* \"#utility.yul\":36017:36020   */\n      dup3\n        /* \"#utility.yul\":36013:36025   */\n      add\n        /* \"#utility.yul\":36006:36025   */\n      swap2\n      pop\n        /* \"#utility.yul\":36042:36045   */\n      dup2\n        /* \"#utility.yul\":36035:36045   */\n      swap1\n      pop\n        /* \"#utility.yul\":35795:36051   */\n      swap3\n      swap2\n      pop\n      pop\n      jump\t// out\n        /* \"#utility.yul\":36057:36248   */\n    tag_319:\n        /* \"#utility.yul\":36097:36100   */\n      0x00\n        /* \"#utility.yul\":36116:36136   */\n      tag_781\n        /* \"#utility.yul\":36134:36135   */\n      dup3\n        /* \"#utility.yul\":36116:36136   */\n      tag_360\n      jump\t// in\n    tag_781:\n        /* \"#utility.yul\":36111:36136   */\n      swap2\n      pop\n        /* \"#utility.yul\":36150:36170   */\n      tag_782\n        /* \"#utility.yul\":36168:36169   */\n      dup4\n        /* \"#utility.yul\":36150:36170   */\n      tag_360\n      jump\t// in\n    tag_782:\n        /* \"#utility.yul\":36145:36170   */\n      swap3\n      pop\n        /* \"#utility.yul\":36193:36194   */\n      dup3\n        /* \"#utility.yul\":36190:36191   */\n      dup3\n        /* \"#utility.yul\":36186:36195   */\n      add\n        /* \"#utility.yul\":36179:36195   */\n      swap1\n      pop\n        /* \"#utility.yul\":36214:36217   */\n      dup1\n        /* \"#utility.yul\":36211:36212   */\n      dup3\n        /* \"#utility.yul\":36208:36218   */\n      gt\n        /* \"#utility.yul\":36205:36241   */\n      iszero\n      tag_783\n      jumpi\n        /* \"#utility.yul\":36221:36239   */\n      tag_784\n      tag_406\n      jump\t// in\n    tag_784:\n        /* \"#utility.yul\":36205:36241   */\n    tag_783:\n        /* \"#utility.yul\":36057:36248   */\n      swap3\n      swap2\n      pop\n      pop\n      jump\t// out\n        /* \"#utility.yul\":36254:36448   */\n    tag_321:\n        /* \"#utility.yul\":36294:36298   */\n      0x00\n        /* \"#utility.yul\":36314:36334   */\n      tag_786\n        /* \"#utility.yul\":36332:36333   */\n      dup3\n        /* \"#utility.yul\":36314:36334   */\n      tag_360\n      jump\t// in\n    tag_786:\n        /* \"#utility.yul\":36309:36334   */\n      swap2\n      pop\n        /* \"#utility.yul\":36348:36368   */\n      tag_787\n        /* \"#utility.yul\":36366:36367   */\n      dup4\n        /* \"#utility.yul\":36348:36368   */\n      tag_360\n      jump\t// in\n    tag_787:\n        /* \"#utility.yul\":36343:36368   */\n      swap3\n      pop\n        /* \"#utility.yul\":36392:36393   */\n      dup3\n        /* \"#utility.yul\":36389:36390   */\n      dup3\n        /* \"#utility.yul\":36385:36394   */\n      sub\n        /* \"#utility.yul\":36377:36394   */\n      swap1\n      pop\n        /* \"#utility.yul\":36416:36417   */\n      dup2\n        /* \"#utility.yul\":36410:36414   */\n      dup2\n        /* \"#utility.yul\":36407:36418   */\n      gt\n        /* \"#utility.yul\":36404:36441   */\n      iszero\n      tag_788\n      jumpi\n        /* \"#utility.yul\":36421:36439   */\n      tag_789\n      tag_406\n      jump\t// in\n    tag_789:\n        /* \"#utility.yul\":36404:36441   */\n    tag_788:\n        /* \"#utility.yul\":36254:36448   */\n      swap3\n      swap2\n      pop\n      pop\n      jump\t// out\n        /* \"#utility.yul\":36454:36634   */\n    tag_436:\n        /* \"#utility.yul\":36502:36579   */\n      0x4e487b7100000000000000000000000000000000000000000000000000000000\n        /* \"#utility.yul\":36499:36500   */\n      0x00\n        /* \"#utility.yul\":36492:36580   */\n      mstore\n        /* \"#utility.yul\":36599:36603   */\n      0x12\n        /* \"#utility.yul\":36596:36597   */\n      0x04\n        /* \"#utility.yul\":36589:36604   */\n      mstore\n        /* \"#utility.yul\":36623:36627   */\n      0x24\n        /* \"#utility.yul\":36620:36621   */\n      0x00\n        /* \"#utility.yul\":36613:36628   */\n      revert\n        /* \"#utility.yul\":36640:36825   */\n    tag_323:\n        /* \"#utility.yul\":36680:36681   */\n      0x00\n        /* \"#utility.yul\":36697:36717   */\n      tag_792\n        /* \"#utility.yul\":36715:36716   */\n      dup3\n        /* \"#utility.yul\":36697:36717   */\n      tag_360\n      jump\t// in\n    tag_792:\n        /* \"#utility.yul\":36692:36717   */\n      swap2\n      pop\n        /* \"#utility.yul\":36731:36751   */\n      tag_793\n        /* \"#utility.yul\":36749:36750   */\n      dup4\n        /* \"#utility.yul\":36731:36751   */\n      tag_360\n      jump\t// in\n    tag_793:\n        /* \"#utility.yul\":36726:36751   */\n      swap3\n      pop\n        /* \"#utility.yul\":36770:36771   */\n      dup3\n        /* \"#utility.yul\":36760:36795   */\n      tag_794\n      jumpi\n        /* \"#utility.yul\":36775:36793   */\n      tag_795\n      tag_436\n      jump\t// in\n    tag_795:\n        /* \"#utility.yul\":36760:36795   */\n    tag_794:\n        /* \"#utility.yul\":36817:36818   */\n      dup3\n        /* \"#utility.yul\":36814:36815   */\n      dup3\n        /* \"#utility.yul\":36810:36819   */\n      div\n        /* \"#utility.yul\":36805:36819   */\n      swap1\n      pop\n        /* \"#utility.yul\":36640:36825   */\n      swap3\n      swap2\n      pop\n      pop\n      jump\t// out\n        /* \"#utility.yul\":36831:37163   */\n    tag_327:\n        /* \"#utility.yul\":36952:36956   */\n      0x00\n        /* \"#utility.yul\":36990:36992   */\n      0x40\n        /* \"#utility.yul\":36979:36988   */\n      dup3\n        /* \"#utility.yul\":36975:36993   */\n      add\n        /* \"#utility.yul\":36967:36993   */\n      swap1\n      pop\n        /* \"#utility.yul\":37003:37074   */\n      tag_797\n        /* \"#utility.yul\":37071:37072   */\n      0x00\n        /* \"#utility.yul\":37060:37069   */\n      dup4\n        /* \"#utility.yul\":37056:37073   */\n      add\n        /* \"#utility.yul\":37047:37053   */\n      dup6\n        /* \"#utility.yul\":37003:37074   */\n      tag_361\n      jump\t// in\n    tag_797:\n        /* \"#utility.yul\":37084:37156   */\n      tag_798\n        /* \"#utility.yul\":37152:37154   */\n      0x20\n        /* \"#utility.yul\":37141:37150   */\n      dup4\n        /* \"#utility.yul\":37137:37155   */\n      add\n        /* \"#utility.yul\":37128:37134   */\n      dup5\n        /* \"#utility.yul\":37084:37156   */\n      tag_361\n      jump\t// in\n    tag_798:\n        /* \"#utility.yul\":36831:37163   */\n      swap4\n      swap3\n      pop\n      pop\n      pop\n      jump\t// out\n        /* \"#utility.yul\":37169:37316   */\n    tag_437:\n        /* \"#utility.yul\":37270:37281   */\n      0x00\n        /* \"#utility.yul\":37307:37310   */\n      dup2\n        /* \"#utility.yul\":37292:37310   */\n      swap1\n      pop\n        /* \"#utility.yul\":37169:37316   */\n      swap3\n      swap2\n      pop\n      pop\n      jump\t// out\n        /* \"#utility.yul\":37344:37671   */\n    tag_438:\n        /* \"#utility.yul\":37458:37461   */\n      0x00\n        /* \"#utility.yul\":37479:37567   */\n      tag_801\n        /* \"#utility.yul\":37560:37566   */\n      dup4\n        /* \"#utility.yul\":37555:37558   */\n      dup6\n        /* \"#utility.yul\":37479:37567   */\n      tag_437\n      jump\t// in\n    tag_801:\n        /* \"#utility.yul\":37472:37567   */\n      swap4\n      pop\n        /* \"#utility.yul\":37577:37633   */\n      tag_802\n        /* \"#utility.yul\":37626:37632   */\n      dup4\n        /* \"#utility.yul\":37621:37624   */\n      dup6\n        /* \"#utility.yul\":37614:37619   */\n      dup5\n        /* \"#utility.yul\":37577:37633   */\n      tag_391\n      jump\t// in\n    tag_802:\n        /* \"#utility.yul\":37658:37664   */\n      dup3\n        /* \"#utility.yul\":37653:37656   */\n      dup5\n        /* \"#utility.yul\":37649:37665   */\n      add\n        /* \"#utility.yul\":37642:37665   */\n      swap1\n      pop\n        /* \"#utility.yul\":37344:37671   */\n      swap4\n      swap3\n      pop\n      pop\n      pop\n      jump\t// out\n        /* \"#utility.yul\":37677:38109   */\n    tag_331:\n        /* \"#utility.yul\":37845:37848   */\n      0x00\n        /* \"#utility.yul\":37860:37935   */\n      tag_804\n        /* \"#utility.yul\":37931:37934   */\n      dup3\n        /* \"#utility.yul\":37922:37928   */\n      dup7\n        /* \"#utility.yul\":37860:37935   */\n      tag_433\n      jump\t// in\n    tag_804:\n        /* \"#utility.yul\":37960:37962   */\n      0x14\n        /* \"#utility.yul\":37955:37958   */\n      dup3\n        /* \"#utility.yul\":37951:37963   */\n      add\n        /* \"#utility.yul\":37944:37963   */\n      swap2\n      pop\n        /* \"#utility.yul\":37980:38083   */\n      tag_805\n        /* \"#utility.yul\":38079:38082   */\n      dup3\n        /* \"#utility.yul\":38070:38076   */\n      dup5\n        /* \"#utility.yul\":38062:38068   */\n      dup7\n        /* \"#utility.yul\":37980:38083   */\n      tag_438\n      jump\t// in\n    tag_805:\n        /* \"#utility.yul\":37973:38083   */\n      swap2\n      pop\n        /* \"#utility.yul\":38100:38103   */\n      dup2\n        /* \"#utility.yul\":38093:38103   */\n      swap1\n      pop\n        /* \"#utility.yul\":37677:38109   */\n      swap5\n      swap4\n      pop\n      pop\n      pop\n      pop\n      jump\t// out\n        /* \"#utility.yul\":38115:38280   */\n    tag_439:\n        /* \"#utility.yul\":38255:38272   */\n      0x50656572206e6f74206163746976650000000000000000000000000000000000\n        /* \"#utility.yul\":38251:38252   */\n      0x00\n        /* \"#utility.yul\":38243:38249   */\n      dup3\n        /* \"#utility.yul\":38239:38253   */\n      add\n        /* \"#utility.yul\":38232:38273   */\n      mstore\n        /* \"#utility.yul\":38115:38280   */\n      pop\n      jump\t// out\n        /* \"#utility.yul\":38286:38652   */\n    tag_440:\n        /* \"#utility.yul\":38428:38431   */\n      0x00\n        /* \"#utility.yul\":38449:38516   */\n      tag_808\n        /* \"#utility.yul\":38513:38515   */\n      0x0f\n        /* \"#utility.yul\":38508:38511   */\n      dup4\n        /* \"#utility.yul\":38449:38516   */\n      tag_401\n      jump\t// in\n    tag_808:\n        /* \"#utility.yul\":38442:38516   */\n      swap2\n      pop\n        /* \"#utility.yul\":38525:38618   */\n      tag_809\n        /* \"#utility.yul\":38614:38617   */\n      dup3\n        /* \"#utility.yul\":38525:38618   */\n      tag_439\n      jump\t// in\n    tag_809:\n        /* \"#utility.yul\":38643:38645   */\n      0x20\n        /* \"#utility.yul\":38638:38641   */\n      dup3\n        /* \"#utility.yul\":38634:38646   */\n      add\n        /* \"#utility.yul\":38627:38646   */\n      swap1\n      pop\n        /* \"#utility.yul\":38286:38652   */\n      swap2\n      swap1\n      pop\n      jump\t// out\n        /* \"#utility.yul\":38658:39077   */\n    tag_339:\n        /* \"#utility.yul\":38824:38828   */\n      0x00\n        /* \"#utility.yul\":38862:38864   */\n      0x20\n        /* \"#utility.yul\":38851:38860   */\n      dup3\n        /* \"#utility.yul\":38847:38865   */\n      add\n        /* \"#utility.yul\":38839:38865   */\n      swap1\n      pop\n        /* \"#utility.yul\":38911:38920   */\n      dup2\n        /* \"#utility.yul\":38905:38909   */\n      dup2\n        /* \"#utility.yul\":38901:38921   */\n      sub\n        /* \"#utility.yul\":38897:38898   */\n      0x00\n        /* \"#utility.yul\":38886:38895   */\n      dup4\n        /* \"#utility.yul\":38882:38899   */\n      add\n        /* \"#utility.yul\":38875:38922   */\n      mstore\n        /* \"#utility.yul\":38939:39070   */\n      tag_811\n        /* \"#utility.yul\":39065:39069   */\n      dup2\n        /* \"#utility.yul\":38939:39070   */\n      tag_440\n      jump\t// in\n    tag_811:\n        /* \"#utility.yul\":38931:39070   */\n      swap1\n      pop\n        /* \"#utility.yul\":38658:39077   */\n      swap2\n      swap1\n      pop\n      jump\t// out\n\n    auxdata: 0xa2646970667358221220b191997b5d2f190e85444c56cb40568f41afc5d9387a92b1c42eb5d5d682f56964736f6c634300081a0033\n}\n",
				"bytecode": {
					"linkReferences": {},
					"object": "608060405234801561000f575f80fd5b5060405161339138038061339183398181016040528101906100319190610279565b825f73ffffffffffffffffffffffffffffffffffffffff168173ffffffffffffffffffffffffffffffffffffffff16036100a2575f6040517f1e4fbdf700000000000000000000000000000000000000000000000000000000815260040161009991906102d8565b60405180910390fd5b6100b18161015a60201b60201c565b50600180819055505f60025f6101000a81548160ff0219169083151502179055508160075f6101000a81548173ffffffffffffffffffffffffffffffffffffffff021916908373ffffffffffffffffffffffffffffffffffffffff1602179055508060085f6101000a81548173ffffffffffffffffffffffffffffffffffffffff021916908373ffffffffffffffffffffffffffffffffffffffff1602179055505050506102f1565b5f805f9054906101000a900473ffffffffffffffffffffffffffffffffffffffff169050815f806101000a81548173ffffffffffffffffffffffffffffffffffffffff021916908373ffffffffffffffffffffffffffffffffffffffff1602179055508173ffffffffffffffffffffffffffffffffffffffff168173ffffffffffffffffffffffffffffffffffffffff167f8be0079c531659141344cd1fd0a4f28419497f9722a3daafe3b4186f6b6457e060405160405180910390a35050565b5f80fd5b5f73ffffffffffffffffffffffffffffffffffffffff82169050919050565b5f6102488261021f565b9050919050565b6102588161023e565b8114610262575f80fd5b50565b5f815190506102738161024f565b92915050565b5f805f606084860312156102905761028f61021b565b5b5f61029d86828701610265565b93505060206102ae86828701610265565b92505060406102bf86828701610265565b9150509250925092565b6102d28161023e565b82525050565b5f6020820190506102eb5f8301846102c9565b92915050565b613093806102fe5f395ff3fe608060405234801561000f575f80fd5b50600436106101cd575f3560e01c8063885a8a9411610102578063aac38d8c116100a0578063e6fc2d8a1161006f578063e6fc2d8a1461052f578063eeaa7efd1461054d578063f2fde38b14610582578063f85f65af1461059e576101cd565b8063aac38d8c14610493578063badf2d1d146104b1578063c77943c0146104e1578063c7aa2f1e146104ff576101cd565b8063917e076a116100dc578063917e076a1461040f57806394e34fc81461042b57806397ab35011461045b5780639a5e71c214610477576101cd565b8063885a8a94146103995780638a405abc146103d35780638da5cb5b146103f1576101cd565b80635276b2631161016f578063715018a611610149578063715018a61461034d5780638456cb591461035757806385a802651461036157806386d221f31461037d576101cd565b80635276b263146102f55780635c975abb14610313578063675fd3e614610331576101cd565b80631c8590ba116101ab5780631c8590ba146102685780632b7ac3f31461029d5780633d2babf2146102bb5780633f4ba83a146102eb576101cd565b80631758bdcb146101d1578063187774bd146102085780631a26edb514610238575b5f80fd5b6101eb60048036038101906101e69190611dcc565b6105ba565b6040516101ff989796959493929190611e77565b60405180910390f35b610222600480360381019061021d9190611f1d565b61069a565b60405161022f9190611f5b565b60405180910390f35b610252600480360381019061024d9190611dcc565b6106c7565b60405161025f919061202b565b60405180910390f35b610282600480360381019061027d9190612075565b610719565b604051610294969594939291906120a0565b60405180910390f35b6102a561075d565b6040516102b2919061215a565b60405180910390f35b6102d560048036038101906102d09190612173565b610782565b6040516102e291906121b1565b60405180910390f35b6102f36107e7565b005b6102fd6107f9565b60405161030a91906121ea565b60405180910390f35b61031b61081e565b60405161032891906121b1565b60405180910390f35b61034b60048036038101906103469190611dcc565b610833565b005b61035561099b565b005b61035f6109ae565b005b61037b6004803603810190610376919061233f565b6109c0565b005b610397600480360381019061039291906123f6565b610a64565b005b6103b360048036038101906103ae9190611dcc565b610c5b565b6040516103ca9b9a999897969594939291906124a0565b60405180910390f35b6103db610cea565b6040516103e89190612549565b60405180910390f35b6103f9610cf2565b6040516104069190612562565b60405180910390f35b6104296004803603810190610424919061257b565b610d19565b005b61044560048036038101906104409190611dcc565b610f0f565b6040516104529190612549565b60405180910390f35b61047560048036038101906104709190611dcc565b610f24565b005b610491600480360381019061048c9190611dcc565b6110ad565b005b61049b611213565b6040516104a89190612549565b60405180910390f35b6104cb60048036038101906104c69190611dcc565b611218565b6040516104d89190611f5b565b60405180910390f35b6104e961122d565b6040516104f69190612549565b60405180910390f35b61051960048036038101906105149190611dcc565b611232565b604051610526919061265f565b60405180910390f35b610537611318565b6040516105449190612549565b60405180910390f35b61056760048036038101906105629190612075565b61131d565b604051610579969594939291906120a0565b60405180910390f35b61059c60048036038101906105979190612075565b6113a2565b005b6105b860048036038101906105b3919061267f565b611426565b005b5f805f805f805f805f60035f8b81526020019081526020015f2090505f801b815f01540361061d576040517f08c379a000000000000000000000000000000000000000000000000000000000815260040161061490612724565b60405180910390fd5b80600101548160020154826003015483600401548460050154856006015f9054906101000a900473ffffffffffffffffffffffffffffffffffffffff168660060160149054906101000a900460ff168760060160159054906101000a900460ff169850985098509850985098509850985050919395975091939597565b5f60035f8481526020019081526020015f20600a015f8381526020019081526020015f2054905092915050565b60605f67ffffffffffffffff8111156106e3576106e261221b565b5b6040519080825280602002602001820160405280156107115781602001602082028036833780820191505090505b509050919050565b6004602052805f5260405f205f91509050805f015490806001015490806002015490806003015490806004015490806005015f9054906101000a900460ff16905086565b60085f9054906101000a900473ffffffffffffffffffffffffffffffffffffffff1681565b5f60035f8481526020019081526020015f206009015f8373ffffffffffffffffffffffffffffffffffffffff1673ffffffffffffffffffffffffffffffffffffffff1681526020019081526020015f205f9054906101000a900460ff16905092915050565b6107ef611761565b6107f76117e8565b565b60075f9054906101000a900473ffffffffffffffffffffffffffffffffffffffff1681565b5f60025f9054906101000a900460ff16905090565b5f60035f8381526020019081526020015f2090505f801b815f01540361088e576040517f08c379a000000000000000000000000000000000000000000000000000000000815260040161088590612724565b60405180910390fd5b806009015f3373ffffffffffffffffffffffffffffffffffffffff1673ffffffffffffffffffffffffffffffffffffffff1681526020019081526020015f205f9054906101000a900460ff161561091a576040517f08c379a00000000000000000000000000000000000000000000000000000000081526004016109119061278c565b60405180910390fd5b6001816009015f3373ffffffffffffffffffffffffffffffffffffffff1673ffffffffffffffffffffffffffffffffffffffff1681526020019081526020015f205f6101000a81548160ff02191690831515021790555060065f8381526020019081526020015f205f815480929190610992906127d7565b91905055505050565b6109a3611761565b6109ac5f611849565b565b6109b6611761565b6109be61190a565b565b6109c861196c565b6109d06119b2565b5f801b60035f8481526020019081526020015f205f015414610a27576040517f08c379a0000000000000000000000000000000000000000000000000000000008152600401610a1e90612868565b60405180910390fd5b5f805f8084806020019051810190610a3f91906128ae565b9350935093509350610a5486858585856119f3565b50505050610a60611b82565b5050565b610a6c61196c565b610a746119b2565b6302000000841115610abb576040517f08c379a0000000000000000000000000000000000000000000000000000000008152600401610ab29061295c565b60405180910390fd5b5f84118015610ac957505f85115b610b08576040517f08c379a0000000000000000000000000000000000000000000000000000000008152600401610aff906129c4565b60405180910390fd5b5f801b60035f8981526020019081526020015f205f015414610b5f576040517f08c379a0000000000000000000000000000000000000000000000000000000008152600401610b5690612868565b60405180910390fd5b60085f9054906101000a900473ffffffffffffffffffffffffffffffffffffffff1673ffffffffffffffffffffffffffffffffffffffff1663e3d0a2be878484336040518563ffffffff1660e01b8152600401610bbf9493929190612a0e565b602060405180830381865afa158015610bda573d5f803e3d5ffd5b505050506040513d601f19601f82011682018060405250810190610bfe9190612a76565b610c3d576040517f08c379a0000000000000000000000000000000000000000000000000000000008152600401610c3490612aeb565b60405180910390fd5b610c4a87878787876119f3565b610c52611b82565b50505050505050565b6003602052805f5260405f205f91509050805f015490806001015490806002015490806003015490806004015490806005015490806006015f9054906101000a900473ffffffffffffffffffffffffffffffffffffffff16908060060160149054906101000a900460ff16908060060160159054906101000a900460ff1690806007015490806008015490508b565b630200000081565b5f805f9054906101000a900473ffffffffffffffffffffffffffffffffffffffff16905090565b610d2161196c565b610d296119b2565b5f60035f8781526020019081526020015f2090505f801b815f015403610d84576040517f08c379a0000000000000000000000000000000000000000000000000000000008152600401610d7b90612724565b60405180910390fd5b80600301548510610dca576040517f08c379a0000000000000000000000000000000000000000000000000000000008152600401610dc190612b53565b60405180910390fd5b60085f9054906101000a900473ffffffffffffffffffffffffffffffffffffffff1673ffffffffffffffffffffffffffffffffffffffff16636c7c2db985836005015486866040518563ffffffff1660e01b8152600401610e2e9493929190612b71565b602060405180830381865afa158015610e49573d5f803e3d5ffd5b505050506040513d601f19601f82011682018060405250810190610e6d9190612a76565b610eac576040517f08c379a0000000000000000000000000000000000000000000000000000000008152600401610ea390612bf9565b60405180910390fd5b8381600a015f8781526020019081526020015f208190555084867f92269041802411ca17c4ab8a7d4c13c4730a8fb32ede9cbdcd80ed2090d552838642604051610ef7929190612c17565b60405180910390a350610f08611b82565b5050505050565b6006602052805f5260405f205f915090505481565b5f60035f8381526020019081526020015f2090505f801b815f015403610f7f576040517f08c379a0000000000000000000000000000000000000000000000000000000008152600401610f7690612724565b60405180910390fd5b3373ffffffffffffffffffffffffffffffffffffffff16816006015f9054906101000a900473ffffffffffffffffffffffffffffffffffffffff1673ffffffffffffffffffffffffffffffffffffffff1614611010576040517f08c379a000000000000000000000000000000000000000000000000000000000815260040161100790612c88565b60405180910390fd5b60035f8381526020019081526020015f205f8082015f9055600182015f9055600282015f9055600382015f9055600482015f9055600582015f9055600682015f6101000a81549073ffffffffffffffffffffffffffffffffffffffff02191690556006820160146101000a81549060ff02191690556006820160156101000a81549060ff0219169055600782015f9055600882015f905550505050565b5f60035f8381526020019081526020015f2090505f801b815f015403611108576040517f08c379a00000000000000000000000000000000000000000000000000000000081526004016110ff90612724565b60405180910390fd5b806009015f3373ffffffffffffffffffffffffffffffffffffffff1673ffffffffffffffffffffffffffffffffffffffff1681526020019081526020015f205f9054906101000a900460ff16611193576040517f08c379a000000000000000000000000000000000000000000000000000000000815260040161118a90612cf0565b60405180910390fd5b5f816009015f3373ffffffffffffffffffffffffffffffffffffffff1673ffffffffffffffffffffffffffffffffffffffff1681526020019081526020015f205f6101000a81548160ff02191690831515021790555060065f8381526020019081526020015f205f81548092919061120a90612d0e565b91905055505050565b601481565b6005602052805f5260405f205f915090505481565b606481565b60605f60035f8481526020019081526020015f2090505f801b815f01540361128f576040517f08c379a000000000000000000000000000000000000000000000000000000000815260040161128690612724565b60405180910390fd5b8060010154816002015482600401548360050154846006015f9054906101000a900473ffffffffffffffffffffffffffffffffffffffff168560060160149054906101000a900460ff168660060160159054906101000a900460ff166040516020016113019796959493929190612d35565b604051602081830303815290604052915050919050565b600a81565b5f805f805f805f60045f8973ffffffffffffffffffffffffffffffffffffffff1673ffffffffffffffffffffffffffffffffffffffff1681526020019081526020015f209050805f01548160010154826002015483600301548460040154856005015f9054906101000a900460ff169650965096509650965096505091939550919395565b6113aa611761565b5f73ffffffffffffffffffffffffffffffffffffffff168173ffffffffffffffffffffffffffffffffffffffff160361141a575f6040517f1e4fbdf70000000000000000000000000000000000000000000000000000000081526004016114119190612562565b60405180910390fd5b61142381611849565b50565b61142e61196c565b6114366119b2565b5f801b60045f3373ffffffffffffffffffffffffffffffffffffffff1673ffffffffffffffffffffffffffffffffffffffff1681526020019081526020015f205f0154146114b9576040517f08c379a00000000000000000000000000000000000000000000000000000000081526004016114b090612dec565b60405180910390fd5b5f6114c5338484611b8b565b905033426040516020016114da929190612e6f565b6040516020818303038152906040528051906020012060045f3373ffffffffffffffffffffffffffffffffffffffff1673ffffffffffffffffffffffffffffffffffffffff1681526020019081526020015f205f0181905550606460045f3373ffffffffffffffffffffffffffffffffffffffff1673ffffffffffffffffffffffffffffffffffffffff1681526020019081526020015f20600101819055505f60045f3373ffffffffffffffffffffffffffffffffffffffff1673ffffffffffffffffffffffffffffffffffffffff1681526020019081526020015f20600201819055505f60045f3373ffffffffffffffffffffffffffffffffffffffff1673ffffffffffffffffffffffffffffffffffffffff1681526020019081526020015f20600301819055504260045f3373ffffffffffffffffffffffffffffffffffffffff1673ffffffffffffffffffffffffffffffffffffffff1681526020019081526020015f2060040181905550600160045f3373ffffffffffffffffffffffffffffffffffffffff1673ffffffffffffffffffffffffffffffffffffffff1681526020019081526020015f206005015f6101000a81548160ff0219169083151502179055508060055f336040516020016116b59190612e9a565b6040516020818303038152906040528051906020012081526020019081526020015f20819055508060045f3373ffffffffffffffffffffffffffffffffffffffff1673ffffffffffffffffffffffffffffffffffffffff1681526020019081526020015f205f01547ffd25a1b058ec8924288ea3c74fce9a0e3b819aaabafef0bab98d3b138e62c5dc4260405161174c9190612549565b60405180910390a35061175d611b82565b5050565b611769611bc0565b73ffffffffffffffffffffffffffffffffffffffff16611787610cf2565b73ffffffffffffffffffffffffffffffffffffffff16146117e6576117aa611bc0565b6040517f118cdaa70000000000000000000000000000000000000000000000000000000081526004016117dd9190612562565b60405180910390fd5b565b6117f0611bc7565b5f60025f6101000a81548160ff0219169083151502179055507f5db9ee0a495bf2e6ff9c91a7834c1ba4fdd244a5e8aa4e537bd38aeae4b073aa611832611bc0565b60405161183f9190612562565b60405180910390a1565b5f805f9054906101000a900473ffffffffffffffffffffffffffffffffffffffff169050815f806101000a81548173ffffffffffffffffffffffffffffffffffffffff021916908373ffffffffffffffffffffffffffffffffffffffff1602179055508173ffffffffffffffffffffffffffffffffffffffff168173ffffffffffffffffffffffffffffffffffffffff167f8be0079c531659141344cd1fd0a4f28419497f9722a3daafe3b4186f6b6457e060405160405180910390a35050565b6119126119b2565b600160025f6101000a81548160ff0219169083151502179055507f62e78cea01bee320cd4e420270b5ea74000d11b0c9f74754ebdbfc544b05a258611955611bc0565b6040516119629190612562565b60405180910390a1565b6002600154036119a8576040517f3ee5aeb500000000000000000000000000000000000000000000000000000000815260040160405180910390fd5b6002600181905550565b6119ba61081e565b156119f1576040517fd93c066500000000000000000000000000000000000000000000000000000000815260040160405180910390fd5b565b5f8260018486611a039190612eb4565b611a0d9190612ee7565b611a179190612f47565b90505f60035f8881526020019081526020015f20905086815f018190555085816001018190555084816002018190555083816004018190555081816003018190555082816005018190555033816006015f6101000a81548173ffffffffffffffffffffffffffffffffffffffff021916908373ffffffffffffffffffffffffffffffffffffffff1602179055504281600801819055506001816009015f3373ffffffffffffffffffffffffffffffffffffffff1673ffffffffffffffffffffffffffffffffffffffff1681526020019081526020015f205f6101000a81548160ff021916908315150217905550600160065f8981526020019081526020015f2081905550611b273360015f611c07565b3373ffffffffffffffffffffffffffffffffffffffff1686887fdecdced2ea81a77c90a01cf427d46ecefc962b7cee3f4b7e470fe80a902df3ea8842604051611b71929190612f77565b60405180910390a450505050505050565b60018081905550565b5f838383604051602001611ba193929190612fcc565b6040516020818303038152906040528051906020012090509392505050565b5f33905090565b611bcf61081e565b611c05576040517f8dfc202b00000000000000000000000000000000000000000000000000000000815260040160405180910390fd5b565b5f60045f8573ffffffffffffffffffffffffffffffffffffffff1673ffffffffffffffffffffffffffffffffffffffff1681526020019081526020015f209050806005015f9054906101000a900460ff16611c97576040517f08c379a0000000000000000000000000000000000000000000000000000000008152600401611c8e9061303f565b60405180910390fd5b5f808314611ca55782611cb5565b83611cb1576014611cb4565b600a5b5b90508315611cf357808260010154611ccd9190612eb4565b8260010181905550816002015f815480929190611ce9906127d7565b9190505550611d37565b80826001015411611d04575f611d15565b808260010154611d149190612ee7565b5b8260010181905550816003015f815480929190611d31906127d7565b91905055505b428260040181905550815f01547ff61a6281a31b24f3a04fd9893067af3886eac3b38b578e41e18234bbdd43651a836001015442604051611d79929190612f77565b60405180910390a25050505050565b5f604051905090565b5f80fd5b5f80fd5b5f819050919050565b611dab81611d99565b8114611db5575f80fd5b50565b5f81359050611dc681611da2565b92915050565b5f60208284031215611de157611de0611d91565b5b5f611dee84828501611db8565b91505092915050565b611e0081611d99565b82525050565b5f819050919050565b611e1881611e06565b82525050565b5f73ffffffffffffffffffffffffffffffffffffffff82169050919050565b5f611e4782611e1e565b9050919050565b611e5781611e3d565b82525050565b5f8115159050919050565b611e7181611e5d565b82525050565b5f61010082019050611e8b5f83018b611df7565b611e98602083018a611e0f565b611ea56040830189611e0f565b611eb26060830188611e0f565b611ebf6080830187611df7565b611ecc60a0830186611e4e565b611ed960c0830185611e68565b611ee660e0830184611e68565b9998505050505050505050565b611efc81611e06565b8114611f06575f80fd5b50565b5f81359050611f1781611ef3565b92915050565b5f8060408385031215611f3357611f32611d91565b5b5f611f4085828601611db8565b9250506020611f5185828601611f09565b9150509250929050565b5f602082019050611f6e5f830184611df7565b92915050565b5f81519050919050565b5f82825260208201905092915050565b5f819050602082019050919050565b611fa681611e3d565b82525050565b5f611fb78383611f9d565b60208301905092915050565b5f602082019050919050565b5f611fd982611f74565b611fe38185611f7e565b9350611fee83611f8e565b805f5b8381101561201e5781516120058882611fac565b975061201083611fc3565b925050600181019050611ff1565b5085935050505092915050565b5f6020820190508181035f8301526120438184611fcf565b905092915050565b61205481611e3d565b811461205e575f80fd5b50565b5f8135905061206f8161204b565b92915050565b5f6020828403121561208a57612089611d91565b5b5f61209784828501612061565b91505092915050565b5f60c0820190506120b35f830189611df7565b6120c06020830188611e0f565b6120cd6040830187611e0f565b6120da6060830186611e0f565b6120e76080830185611e0f565b6120f460a0830184611e68565b979650505050505050565b5f819050919050565b5f61212261211d61211884611e1e565b6120ff565b611e1e565b9050919050565b5f61213382612108565b9050919050565b5f61214482612129565b9050919050565b6121548161213a565b82525050565b5f60208201905061216d5f83018461214b565b92915050565b5f806040838503121561218957612188611d91565b5b5f61219685828601611db8565b92505060206121a785828601612061565b9150509250929050565b5f6020820190506121c45f830184611e68565b92915050565b5f6121d482612129565b9050919050565b6121e4816121ca565b82525050565b5f6020820190506121fd5f8301846121db565b92915050565b5f80fd5b5f80fd5b5f601f19601f8301169050919050565b7f4e487b71000000000000000000000000000000000000000000000000000000005f52604160045260245ffd5b6122518261220b565b810181811067ffffffffffffffff821117156122705761226f61221b565b5b80604052505050565b5f612282611d88565b905061228e8282612248565b919050565b5f67ffffffffffffffff8211156122ad576122ac61221b565b5b6122b68261220b565b9050602081019050919050565b828183375f83830152505050565b5f6122e36122de84612293565b612279565b9050828152602081018484840111156122ff576122fe612207565b5b61230a8482856122c3565b509392505050565b5f82601f83011261232657612325612203565b5b81356123368482602086016122d1565b91505092915050565b5f806040838503121561235557612354611d91565b5b5f61236285828601611db8565b925050602083013567ffffffffffffffff81111561238357612382611d95565b5b61238f85828601612312565b9150509250929050565b5f80fd5b5f80fd5b5f8083601f8401126123b6576123b5612203565b5b8235905067ffffffffffffffff8111156123d3576123d2612399565b5b6020830191508360018202830111156123ef576123ee61239d565b5b9250929050565b5f805f805f805f60c0888a03121561241157612410611d91565b5b5f61241e8a828b01611db8565b975050602061242f8a828b01611db8565b96505060406124408a828b01611f09565b95505060606124518a828b01611f09565b94505060806124628a828b01611db8565b93505060a088013567ffffffffffffffff81111561248357612482611d95565b5b61248f8a828b016123a1565b925092505092959891949750929550565b5f610160820190506124b45f83018e611df7565b6124c1602083018d611df7565b6124ce604083018c611e0f565b6124db606083018b611e0f565b6124e8608083018a611e0f565b6124f560a0830189611df7565b61250260c0830188611e4e565b61250f60e0830187611e68565b61251d610100830186611e68565b61252b610120830185611df7565b612539610140830184611e0f565b9c9b505050505050505050505050565b5f60208201905061255c5f830184611e0f565b92915050565b5f6020820190506125755f830184611e4e565b92915050565b5f805f805f6080868803121561259457612593611d91565b5b5f6125a188828901611db8565b95505060206125b288828901611f09565b94505060406125c388828901611db8565b935050606086013567ffffffffffffffff8111156125e4576125e3611d95565b5b6125f0888289016123a1565b92509250509295509295909350565b5f81519050919050565b5f82825260208201905092915050565b8281835e5f83830152505050565b5f612631826125ff565b61263b8185612609565b935061264b818560208601612619565b6126548161220b565b840191505092915050565b5f6020820190508181035f8301526126778184612627565b905092915050565b5f806020838503121561269557612694611d91565b5b5f83013567ffffffffffffffff8111156126b2576126b1611d95565b5b6126be858286016123a1565b92509250509250929050565b5f82825260208201905092915050565b7f546f7272656e74206e6f7420666f756e640000000000000000000000000000005f82015250565b5f61270e6011836126ca565b9150612719826126da565b602082019050919050565b5f6020820190508181035f83015261273b81612702565b9050919050565b7f416c726561647920696e20737761726d000000000000000000000000000000005f82015250565b5f6127766010836126ca565b915061278182612742565b602082019050919050565b5f6020820190508181035f8301526127a38161276a565b9050919050565b7f4e487b71000000000000000000000000000000000000000000000000000000005f52601160045260245ffd5b5f6127e182611e06565b91507fffffffffffffffffffffffffffffffffffffffffffffffffffffffffffffffff8203612813576128126127aa565b5b600182019050919050565b7f546f7272656e74206578697374730000000000000000000000000000000000005f82015250565b5f612852600e836126ca565b915061285d8261281e565b602082019050919050565b5f6020820190508181035f83015261287f81612846565b9050919050565b5f8151905061289481611da2565b92915050565b5f815190506128a881611ef3565b92915050565b5f805f80608085870312156128c6576128c5611d91565b5b5f6128d387828801612886565b94505060206128e48782880161289a565b93505060406128f58782880161289a565b925050606061290687828801612886565b91505092959194509250565b7f50696563652073697a6520746f6f206c617267650000000000000000000000005f82015250565b5f6129466014836126ca565b915061295182612912565b602082019050919050565b5f6020820190508181035f8301526129738161293a565b9050919050565b7f496e76616c69642073697a6573000000000000000000000000000000000000005f82015250565b5f6129ae600d836126ca565b91506129b98261297a565b602082019050919050565b5f6020820190508181035f8301526129db816129a2565b9050919050565b5f6129ed8385612609565b93506129fa8385846122c3565b612a038361220b565b840190509392505050565b5f606082019050612a215f830187611df7565b8181036020830152612a348185876129e2565b9050612a436040830184611e4e565b95945050505050565b612a5581611e5d565b8114612a5f575f80fd5b50565b5f81519050612a7081612a4c565b92915050565b5f60208284031215612a8b57612a8a611d91565b5b5f612a9884828501612a62565b91505092915050565b7f496e76616c69642066696c652070726f6f6600000000000000000000000000005f82015250565b5f612ad56012836126ca565b9150612ae082612aa1565b602082019050919050565b5f6020820190508181035f830152612b0281612ac9565b9050919050565b7f496e76616c696420706965636520696e646578000000000000000000000000005f82015250565b5f612b3d6013836126ca565b9150612b4882612b09565b602082019050919050565b5f6020820190508181035f830152612b6a81612b31565b9050919050565b5f606082019050612b845f830187611df7565b612b916020830186611df7565b8181036040830152612ba48184866129e2565b905095945050505050565b7f496e76616c69642070696563652070726f6f66000000000000000000000000005f82015250565b5f612be36013836126ca565b9150612bee82612baf565b602082019050919050565b5f6020820190508181035f830152612c1081612bd7565b9050919050565b5f604082019050612c2a5f830185611df7565b612c376020830184611e0f565b9392505050565b7f4e6f7420746f7272656e74206f776e65720000000000000000000000000000005f82015250565b5f612c726011836126ca565b9150612c7d82612c3e565b602082019050919050565b5f6020820190508181035f830152612c9f81612c66565b9050919050565b7f4e6f7420696e20737761726d00000000000000000000000000000000000000005f82015250565b5f612cda600c836126ca565b9150612ce582612ca6565b602082019050919050565b5f6020820190508181035f830152612d0781612cce565b9050919050565b5f612d1882611e06565b91505f8203612d2a57612d296127aa565b5b600182039050919050565b5f60e082019050612d485f83018a611df7565b612d556020830189611e0f565b612d626040830188611e0f565b612d6f6060830187611df7565b612d7c6080830186611e4e565b612d8960a0830185611e68565b612d9660c0830184611e68565b98975050505050505050565b7f50656572206578697374730000000000000000000000000000000000000000005f82015250565b5f612dd6600b836126ca565b9150612de182612da2565b602082019050919050565b5f6020820190508181035f830152612e0381612dca565b9050919050565b5f8160601b9050919050565b5f612e2082612e0a565b9050919050565b5f612e3182612e16565b9050919050565b612e49612e4482611e3d565b612e27565b82525050565b5f819050919050565b612e69612e6482611e06565b612e4f565b82525050565b5f612e7a8285612e38565b601482019150612e8a8284612e58565b6020820191508190509392505050565b5f612ea58284612e38565b60148201915081905092915050565b5f612ebe82611e06565b9150612ec983611e06565b9250828201905080821115612ee157612ee06127aa565b5b92915050565b5f612ef182611e06565b9150612efc83611e06565b9250828203905081811115612f1457612f136127aa565b5b92915050565b7f4e487b71000000000000000000000000000000000000000000000000000000005f52601260045260245ffd5b5f612f5182611e06565b9150612f5c83611e06565b925082612f6c57612f6b612f1a565b5b828204905092915050565b5f604082019050612f8a5f830185611e0f565b612f976020830184611e0f565b9392505050565b5f81905092915050565b5f612fb38385612f9e565b9350612fc08385846122c3565b82840190509392505050565b5f612fd78286612e38565b601482019150612fe8828486612fa8565b9150819050949350505050565b7f50656572206e6f742061637469766500000000000000000000000000000000005f82015250565b5f613029600f836126ca565b915061303482612ff5565b602082019050919050565b5f6020820190508181035f8301526130568161301d565b905091905056fea2646970667358221220b191997b5d2f190e85444c56cb40568f41afc5d9387a92b1c42eb5d5d682f56964736f6c634300081a0033",
					"opcodes": "PUSH1 0x80 PUSH1 0x40 MSTORE CALLVALUE DUP1 ISZERO PUSH2 0xF JUMPI PUSH0 DUP1 REVERT JUMPDEST POP PUSH1 0x40 MLOAD PUSH2 0x3391 CODESIZE SUB DUP1 PUSH2 0x3391 DUP4 CODECOPY DUP2 DUP2 ADD PUSH1 0x40 MSTORE DUP2 ADD SWAP1 PUSH2 0x31 SWAP2 SWAP1 PUSH2 0x279 JUMP JUMPDEST DUP3 PUSH0 PUSH20 0xFFFFFFFFFFFFFFFFFFFFFFFFFFFFFFFFFFFFFFFF AND DUP2 PUSH20 0xFFFFFFFFFFFFFFFFFFFFFFFFFFFFFFFFFFFFFFFF AND SUB PUSH2 0xA2 JUMPI PUSH0 PUSH1 0x40 MLOAD PUSH32 0x1E4FBDF700000000000000000000000000000000000000000000000000000000 DUP2 MSTORE PUSH1 0x4 ADD PUSH2 0x99 SWAP2 SWAP1 PUSH2 0x2D8 JUMP JUMPDEST PUSH1 0x40 MLOAD DUP1 SWAP2 SUB SWAP1 REVERT JUMPDEST PUSH2 0xB1 DUP2 PUSH2 0x15A PUSH1 0x20 SHL PUSH1 0x20 SHR JUMP JUMPDEST POP PUSH1 0x1 DUP1 DUP2 SWAP1 SSTORE POP PUSH0 PUSH1 0x2 PUSH0 PUSH2 0x100 EXP DUP2 SLOAD DUP2 PUSH1 0xFF MUL NOT AND SWAP1 DUP4 ISZERO ISZERO MUL OR SWAP1 SSTORE POP DUP2 PUSH1 0x7 PUSH0 PUSH2 0x100 EXP DUP2 SLOAD DUP2 PUSH20 0xFFFFFFFFFFFFFFFFFFFFFFFFFFFFFFFFFFFFFFFF MUL NOT AND SWAP1 DUP4 PUSH20 0xFFFFFFFFFFFFFFFFFFFFFFFFFFFFFFFFFFFFFFFF AND MUL OR SWAP1 SSTORE POP DUP1 PUSH1 0x8 PUSH0 PUSH2 0x100 EXP DUP2 SLOAD DUP2 PUSH20 0xFFFFFFFFFFFFFFFFFFFFFFFFFFFFFFFFFFFFFFFF MUL NOT AND SWAP1 DUP4 PUSH20 0xFFFFFFFFFFFFFFFFFFFFFFFFFFFFFFFFFFFFFFFF AND MUL OR SWAP1 SSTORE POP POP POP POP PUSH2 0x2F1 JUMP JUMPDEST PUSH0 DUP1 PUSH0 SWAP1 SLOAD SWAP1 PUSH2 0x100 EXP SWAP1 DIV PUSH20 0xFFFFFFFFFFFFFFFFFFFFFFFFFFFFFFFFFFFFFFFF AND SWAP1 POP DUP2 PUSH0 DUP1 PUSH2 0x100 EXP DUP2 SLOAD DUP2 PUSH20 0xFFFFFFFFFFFFFFFFFFFFFFFFFFFFFFFFFFFFFFFF MUL NOT AND SWAP1 DUP4 PUSH20 0xFFFFFFFFFFFFFFFFFFFFFFFFFFFFFFFFFFFFFFFF AND MUL OR SWAP1 SSTORE POP DUP2 PUSH20 0xFFFFFFFFFFFFFFFFFFFFFFFFFFFFFFFFFFFFFFFF AND DUP2 PUSH20 0xFFFFFFFFFFFFFFFFFFFFFFFFFFFFFFFFFFFFFFFF AND PUSH32 0x8BE0079C531659141344CD1FD0A4F28419497F9722A3DAAFE3B4186F6B6457E0 PUSH1 0x40 MLOAD PUSH1 0x40 MLOAD DUP1 SWAP2 SUB SWAP1 LOG3 POP POP JUMP JUMPDEST PUSH0 DUP1 REVERT JUMPDEST PUSH0 PUSH20 0xFFFFFFFFFFFFFFFFFFFFFFFFFFFFFFFFFFFFFFFF DUP3 AND SWAP1 POP SWAP2 SWAP1 POP JUMP JUMPDEST PUSH0 PUSH2 0x248 DUP3 PUSH2 0x21F JUMP JUMPDEST SWAP1 POP SWAP2 SWAP1 POP JUMP JUMPDEST PUSH2 0x258 DUP2 PUSH2 0x23E JUMP JUMPDEST DUP2 EQ PUSH2 0x262 JUMPI PUSH0 DUP1 REVERT JUMPDEST POP JUMP JUMPDEST PUSH0 DUP2 MLOAD SWAP1 POP PUSH2 0x273 DUP2 PUSH2 0x24F JUMP JUMPDEST SWAP3 SWAP2 POP POP JUMP JUMPDEST PUSH0 DUP1 PUSH0 PUSH1 0x60 DUP5 DUP7 SUB SLT ISZERO PUSH2 0x290 JUMPI PUSH2 0x28F PUSH2 0x21B JUMP JUMPDEST JUMPDEST PUSH0 PUSH2 0x29D DUP7 DUP3 DUP8 ADD PUSH2 0x265 JUMP JUMPDEST SWAP4 POP POP PUSH1 0x20 PUSH2 0x2AE DUP7 DUP3 DUP8 ADD PUSH2 0x265 JUMP JUMPDEST SWAP3 POP POP PUSH1 0x40 PUSH2 0x2BF DUP7 DUP3 DUP8 ADD PUSH2 0x265 JUMP JUMPDEST SWAP2 POP POP SWAP3 POP SWAP3 POP SWAP3 JUMP JUMPDEST PUSH2 0x2D2 DUP2 PUSH2 0x23E JUMP JUMPDEST DUP3 MSTORE POP POP JUMP JUMPDEST PUSH0 PUSH1 0x20 DUP3 ADD SWAP1 POP PUSH2 0x2EB PUSH0 DUP4 ADD DUP5 PUSH2 0x2C9 JUMP JUMPDEST SWAP3 SWAP2 POP POP JUMP JUMPDEST PUSH2 0x3093 DUP1 PUSH2 0x2FE PUSH0 CODECOPY PUSH0 RETURN INVALID PUSH1 0x80 PUSH1 0x40 MSTORE CALLVALUE DUP1 ISZERO PUSH2 0xF JUMPI PUSH0 DUP1 REVERT JUMPDEST POP PUSH1 0x4 CALLDATASIZE LT PUSH2 0x1CD JUMPI PUSH0 CALLDATALOAD PUSH1 0xE0 SHR DUP1 PUSH4 0x885A8A94 GT PUSH2 0x102 JUMPI DUP1 PUSH4 0xAAC38D8C GT PUSH2 0xA0 JUMPI DUP1 PUSH4 0xE6FC2D8A GT PUSH2 0x6F JUMPI DUP1 PUSH4 0xE6FC2D8A EQ PUSH2 0x52F JUMPI DUP1 PUSH4 0xEEAA7EFD EQ PUSH2 0x54D JUMPI DUP1 PUSH4 0xF2FDE38B EQ PUSH2 0x582 JUMPI DUP1 PUSH4 0xF85F65AF EQ PUSH2 0x59E JUMPI PUSH2 0x1CD JUMP JUMPDEST DUP1 PUSH4 0xAAC38D8C EQ PUSH2 0x493 JUMPI DUP1 PUSH4 0xBADF2D1D EQ PUSH2 0x4B1 JUMPI DUP1 PUSH4 0xC77943C0 EQ PUSH2 0x4E1 JUMPI DUP1 PUSH4 0xC7AA2F1E EQ PUSH2 0x4FF JUMPI PUSH2 0x1CD JUMP JUMPDEST DUP1 PUSH4 0x917E076A GT PUSH2 0xDC JUMPI DUP1 PUSH4 0x917E076A EQ PUSH2 0x40F JUMPI DUP1 PUSH4 0x94E34FC8 EQ PUSH2 0x42B JUMPI DUP1 PUSH4 0x97AB3501 EQ PUSH2 0x45B JUMPI DUP1 PUSH4 0x9A5E71C2 EQ PUSH2 0x477 JUMPI PUSH2 0x1CD JUMP JUMPDEST DUP1 PUSH4 0x885A8A94 EQ PUSH2 0x399 JUMPI DUP1 PUSH4 0x8A405ABC EQ PUSH2 0x3D3 JUMPI DUP1 PUSH4 0x8DA5CB5B EQ PUSH2 0x3F1 JUMPI PUSH2 0x1CD JUMP JUMPDEST DUP1 PUSH4 0x5276B263 GT PUSH2 0x16F JUMPI DUP1 PUSH4 0x715018A6 GT PUSH2 0x149 JUMPI DUP1 PUSH4 0x715018A6 EQ PUSH2 0x34D JUMPI DUP1 PUSH4 0x8456CB59 EQ PUSH2 0x357 JUMPI DUP1 PUSH4 0x85A80265 EQ PUSH2 0x361 JUMPI DUP1 PUSH4 0x86D221F3 EQ PUSH2 0x37D JUMPI PUSH2 0x1CD JUMP JUMPDEST DUP1 PUSH4 0x5276B263 EQ PUSH2 0x2F5 JUMPI DUP1 PUSH4 0x5C975ABB EQ PUSH2 0x313 JUMPI DUP1 PUSH4 0x675FD3E6 EQ PUSH2 0x331 JUMPI PUSH2 0x1CD JUMP JUMPDEST DUP1 PUSH4 0x1C8590BA GT PUSH2 0x1AB JUMPI DUP1 PUSH4 0x1C8590BA EQ PUSH2 0x268 JUMPI DUP1 PUSH4 0x2B7AC3F3 EQ PUSH2 0x29D JUMPI DUP1 PUSH4 0x3D2BABF2 EQ PUSH2 0x2BB JUMPI DUP1 PUSH4 0x3F4BA83A EQ PUSH2 0x2EB JUMPI PUSH2 0x1CD JUMP JUMPDEST DUP1 PUSH4 0x1758BDCB EQ PUSH2 0x1D1 JUMPI DUP1 PUSH4 0x187774BD EQ PUSH2 0x208 JUMPI DUP1 PUSH4 0x1A26EDB5 EQ PUSH2 0x238 JUMPI JUMPDEST PUSH0 DUP1 REVERT JUMPDEST PUSH2 0x1EB PUSH1 0x4 DUP1 CALLDATASIZE SUB DUP2 ADD SWAP1 PUSH2 0x1E6 SWAP2 SWAP1 PUSH2 0x1DCC JUMP JUMPDEST PUSH2 0x5BA JUMP JUMPDEST PUSH1 0x40 MLOAD PUSH2 0x1FF SWAP9 SWAP8 SWAP7 SWAP6 SWAP5 SWAP4 SWAP3 SWAP2 SWAP1 PUSH2 0x1E77 JUMP JUMPDEST PUSH1 0x40 MLOAD DUP1 SWAP2 SUB SWAP1 RETURN JUMPDEST PUSH2 0x222 PUSH1 0x4 DUP1 CALLDATASIZE SUB DUP2 ADD SWAP1 PUSH2 0x21D SWAP2 SWAP1 PUSH2 0x1F1D JUMP JUMPDEST PUSH2 0x69A JUMP JUMPDEST PUSH1 0x40 MLOAD PUSH2 0x22F SWAP2 SWAP1 PUSH2 0x1F5B JUMP JUMPDEST PUSH1 0x40 MLOAD DUP1 SWAP2 SUB SWAP1 RETURN JUMPDEST PUSH2 0x252 PUSH1 0x4 DUP1 CALLDATASIZE SUB DUP2 ADD SWAP1 PUSH2 0x24D SWAP2 SWAP1 PUSH2 0x1DCC JUMP JUMPDEST PUSH2 0x6C7 JUMP JUMPDEST PUSH1 0x40 MLOAD PUSH2 0x25F SWAP2 SWAP1 PUSH2 0x202B JUMP JUMPDEST PUSH1 0x40 MLOAD DUP1 SWAP2 SUB SWAP1 RETURN JUMPDEST PUSH2 0x282 PUSH1 0x4 DUP1 CALLDATASIZE SUB DUP2 ADD SWAP1 PUSH2 0x27D SWAP2 SWAP1 PUSH2 0x2075 JUMP JUMPDEST PUSH2 0x719 JUMP JUMPDEST PUSH1 0x40 MLOAD PUSH2 0x294 SWAP7 SWAP6 SWAP5 SWAP4 SWAP3 SWAP2 SWAP1 PUSH2 0x20A0 JUMP JUMPDEST PUSH1 0x40 MLOAD DUP1 SWAP2 SUB SWAP1 RETURN JUMPDEST PUSH2 0x2A5 PUSH2 0x75D JUMP JUMPDEST PUSH1 0x40 MLOAD PUSH2 0x2B2 SWAP2 SWAP1 PUSH2 0x215A JUMP JUMPDEST PUSH1 0x40 MLOAD DUP1 SWAP2 SUB SWAP1 RETURN JUMPDEST PUSH2 0x2D5 PUSH1 0x4 DUP1 CALLDATASIZE SUB DUP2 ADD SWAP1 PUSH2 0x2D0 SWAP2 SWAP1 PUSH2 0x2173 JUMP JUMPDEST PUSH2 0x782 JUMP JUMPDEST PUSH1 0x40 MLOAD PUSH2 0x2E2 SWAP2 SWAP1 PUSH2 0x21B1 JUMP JUMPDEST PUSH1 0x40 MLOAD DUP1 SWAP2 SUB SWAP1 RETURN JUMPDEST PUSH2 0x2F3 PUSH2 0x7E7 JUMP JUMPDEST STOP JUMPDEST PUSH2 0x2FD PUSH2 0x7F9 JUMP JUMPDEST PUSH1 0x40 MLOAD PUSH2 0x30A SWAP2 SWAP1 PUSH2 0x21EA JUMP JUMPDEST PUSH1 0x40 MLOAD DUP1 SWAP2 SUB SWAP1 RETURN JUMPDEST PUSH2 0x31B PUSH2 0x81E JUMP JUMPDEST PUSH1 0x40 MLOAD PUSH2 0x328 SWAP2 SWAP1 PUSH2 0x21B1 JUMP JUMPDEST PUSH1 0x40 MLOAD DUP1 SWAP2 SUB SWAP1 RETURN JUMPDEST PUSH2 0x34B PUSH1 0x4 DUP1 CALLDATASIZE SUB DUP2 ADD SWAP1 PUSH2 0x346 SWAP2 SWAP1 PUSH2 0x1DCC JUMP JUMPDEST PUSH2 0x833 JUMP JUMPDEST STOP JUMPDEST PUSH2 0x355 PUSH2 0x99B JUMP JUMPDEST STOP JUMPDEST PUSH2 0x35F PUSH2 0x9AE JUMP JUMPDEST STOP JUMPDEST PUSH2 0x37B PUSH1 0x4 DUP1 CALLDATASIZE SUB DUP2 ADD SWAP1 PUSH2 0x376 SWAP2 SWAP1 PUSH2 0x233F JUMP JUMPDEST PUSH2 0x9C0 JUMP JUMPDEST STOP JUMPDEST PUSH2 0x397 PUSH1 0x4 DUP1 CALLDATASIZE SUB DUP2 ADD SWAP1 PUSH2 0x392 SWAP2 SWAP1 PUSH2 0x23F6 JUMP JUMPDEST PUSH2 0xA64 JUMP JUMPDEST STOP JUMPDEST PUSH2 0x3B3 PUSH1 0x4 DUP1 CALLDATASIZE SUB DUP2 ADD SWAP1 PUSH2 0x3AE SWAP2 SWAP1 PUSH2 0x1DCC JUMP JUMPDEST PUSH2 0xC5B JUMP JUMPDEST PUSH1 0x40 MLOAD PUSH2 0x3CA SWAP12 SWAP11 SWAP10 SWAP9 SWAP8 SWAP7 SWAP6 SWAP5 SWAP4 SWAP3 SWAP2 SWAP1 PUSH2 0x24A0 JUMP JUMPDEST PUSH1 0x40 MLOAD DUP1 SWAP2 SUB SWAP1 RETURN JUMPDEST PUSH2 0x3DB PUSH2 0xCEA JUMP JUMPDEST PUSH1 0x40 MLOAD PUSH2 0x3E8 SWAP2 SWAP1 PUSH2 0x2549 JUMP JUMPDEST PUSH1 0x40 MLOAD DUP1 SWAP2 SUB SWAP1 RETURN JUMPDEST PUSH2 0x3F9 PUSH2 0xCF2 JUMP JUMPDEST PUSH1 0x40 MLOAD PUSH2 0x406 SWAP2 SWAP1 PUSH2 0x2562 JUMP JUMPDEST PUSH1 0x40 MLOAD DUP1 SWAP2 SUB SWAP1 RETURN JUMPDEST PUSH2 0x429 PUSH1 0x4 DUP1 CALLDATASIZE SUB DUP2 ADD SWAP1 PUSH2 0x424 SWAP2 SWAP1 PUSH2 0x257B JUMP JUMPDEST PUSH2 0xD19 JUMP JUMPDEST STOP JUMPDEST PUSH2 0x445 PUSH1 0x4 DUP1 CALLDATASIZE SUB DUP2 ADD SWAP1 PUSH2 0x440 SWAP2 SWAP1 PUSH2 0x1DCC JUMP JUMPDEST PUSH2 0xF0F JUMP JUMPDEST PUSH1 0x40 MLOAD PUSH2 0x452 SWAP2 SWAP1 PUSH2 0x2549 JUMP JUMPDEST PUSH1 0x40 MLOAD DUP1 SWAP2 SUB SWAP1 RETURN JUMPDEST PUSH2 0x475 PUSH1 0x4 DUP1 CALLDATASIZE SUB DUP2 ADD SWAP1 PUSH2 0x470 SWAP2 SWAP1 PUSH2 0x1DCC JUMP JUMPDEST PUSH2 0xF24 JUMP JUMPDEST STOP JUMPDEST PUSH2 0x491 PUSH1 0x4 DUP1 CALLDATASIZE SUB DUP2 ADD SWAP1 PUSH2 0x48C SWAP2 SWAP1 PUSH2 0x1DCC JUMP JUMPDEST PUSH2 0x10AD JUMP JUMPDEST STOP JUMPDEST PUSH2 0x49B PUSH2 0x1213 JUMP JUMPDEST PUSH1 0x40 MLOAD PUSH2 0x4A8 SWAP2 SWAP1 PUSH2 0x2549 JUMP JUMPDEST PUSH1 0x40 MLOAD DUP1 SWAP2 SUB SWAP1 RETURN JUMPDEST PUSH2 0x4CB PUSH1 0x4 DUP1 CALLDATASIZE SUB DUP2 ADD SWAP1 PUSH2 0x4C6 SWAP2 SWAP1 PUSH2 0x1DCC JUMP JUMPDEST PUSH2 0x1218 JUMP JUMPDEST PUSH1 0x40 MLOAD PUSH2 0x4D8 SWAP2 SWAP1 PUSH2 0x1F5B JUMP JUMPDEST PUSH1 0x40 MLOAD DUP1 SWAP2 SUB SWAP1 RETURN JUMPDEST PUSH2 0x4E9 PUSH2 0x122D JUMP JUMPDEST PUSH1 0x40 MLOAD PUSH2 0x4F6 SWAP2 SWAP1 PUSH2 0x2549 JUMP JUMPDEST PUSH1 0x40 MLOAD DUP1 SWAP2 SUB SWAP1 RETURN JUMPDEST PUSH2 0x519 PUSH1 0x4 DUP1 CALLDATASIZE SUB DUP2 ADD SWAP1 PUSH2 0x514 SWAP2 SWAP1 PUSH2 0x1DCC JUMP JUMPDEST PUSH2 0x1232 JUMP JUMPDEST PUSH1 0x40 MLOAD PUSH2 0x526 SWAP2 SWAP1 PUSH2 0x265F JUMP JUMPDEST PUSH1 0x40 MLOAD DUP1 SWAP2 SUB SWAP1 RETURN JUMPDEST PUSH2 0x537 PUSH2 0x1318 JUMP JUMPDEST PUSH1 0x40 MLOAD PUSH2 0x544 SWAP2 SWAP1 PUSH2 0x2549 JUMP JUMPDEST PUSH1 0x40 MLOAD DUP1 SWAP2 SUB SWAP1 RETURN JUMPDEST PUSH2 0x567 PUSH1 0x4 DUP1 CALLDATASIZE SUB DUP2 ADD SWAP1 PUSH2 0x562 SWAP2 SWAP1 PUSH2 0x2075 JUMP JUMPDEST PUSH2 0x131D JUMP JUMPDEST PUSH1 0x40 MLOAD PUSH2 0x579 SWAP7 SWAP6 SWAP5 SWAP4 SWAP3 SWAP2 SWAP1 PUSH2 0x20A0 JUMP JUMPDEST PUSH1 0x40 MLOAD DUP1 SWAP2 SUB SWAP1 RETURN JUMPDEST PUSH2 0x59C PUSH1 0x4 DUP1 CALLDATASIZE SUB DUP2 ADD SWAP1 PUSH2 0x597 SWAP2 SWAP1 PUSH2 0x2075 JUMP JUMPDEST PUSH2 0x13A2 JUMP JUMPDEST STOP JUMPDEST PUSH2 0x5B8 PUSH1 0x4 DUP1 CALLDATASIZE SUB DUP2 ADD SWAP1 PUSH2 0x5B3 SWAP2 SWAP1 PUSH2 0x267F JUMP JUMPDEST PUSH2 0x1426 JUMP JUMPDEST STOP JUMPDEST PUSH0 DUP1 PUSH0 DUP1 PUSH0 DUP1 PUSH0 DUP1 PUSH0 PUSH1 0x3 PUSH0 DUP12 DUP2 MSTORE PUSH1 0x20 ADD SWAP1 DUP2 MSTORE PUSH1 0x20 ADD PUSH0 KECCAK256 SWAP1 POP PUSH0 DUP1 SHL DUP2 PUSH0 ADD SLOAD SUB PUSH2 0x61D JUMPI PUSH1 0x40 MLOAD PUSH32 0x8C379A000000000000000000000000000000000000000000000000000000000 DUP2 MSTORE PUSH1 0x4 ADD PUSH2 0x614 SWAP1 PUSH2 0x2724 JUMP JUMPDEST PUSH1 0x40 MLOAD DUP1 SWAP2 SUB SWAP1 REVERT JUMPDEST DUP1 PUSH1 0x1 ADD SLOAD DUP2 PUSH1 0x2 ADD SLOAD DUP3 PUSH1 0x3 ADD SLOAD DUP4 PUSH1 0x4 ADD SLOAD DUP5 PUSH1 0x5 ADD SLOAD DUP6 PUSH1 0x6 ADD PUSH0 SWAP1 SLOAD SWAP1 PUSH2 0x100 EXP SWAP1 DIV PUSH20 0xFFFFFFFFFFFFFFFFFFFFFFFFFFFFFFFFFFFFFFFF AND DUP7 PUSH1 0x6 ADD PUSH1 0x14 SWAP1 SLOAD SWAP1 PUSH2 0x100 EXP SWAP1 DIV PUSH1 0xFF AND DUP8 PUSH1 0x6 ADD PUSH1 0x15 SWAP1 SLOAD SWAP1 PUSH2 0x100 EXP SWAP1 DIV PUSH1 0xFF AND SWAP9 POP SWAP9 POP SWAP9 POP SWAP9 POP SWAP9 POP SWAP9 POP SWAP9 POP SWAP9 POP POP SWAP2 SWAP4 SWAP6 SWAP8 POP SWAP2 SWAP4 SWAP6 SWAP8 JUMP JUMPDEST PUSH0 PUSH1 0x3 PUSH0 DUP5 DUP2 MSTORE PUSH1 0x20 ADD SWAP1 DUP2 MSTORE PUSH1 0x20 ADD PUSH0 KECCAK256 PUSH1 0xA ADD PUSH0 DUP4 DUP2 MSTORE PUSH1 0x20 ADD SWAP1 DUP2 MSTORE PUSH1 0x20 ADD PUSH0 KECCAK256 SLOAD SWAP1 POP SWAP3 SWAP2 POP POP JUMP JUMPDEST PUSH1 0x60 PUSH0 PUSH8 0xFFFFFFFFFFFFFFFF DUP2 GT ISZERO PUSH2 0x6E3 JUMPI PUSH2 0x6E2 PUSH2 0x221B JUMP JUMPDEST JUMPDEST PUSH1 0x40 MLOAD SWAP1 DUP1 DUP3 MSTORE DUP1 PUSH1 0x20 MUL PUSH1 0x20 ADD DUP3 ADD PUSH1 0x40 MSTORE DUP1 ISZERO PUSH2 0x711 JUMPI DUP2 PUSH1 0x20 ADD PUSH1 0x20 DUP3 MUL DUP1 CALLDATASIZE DUP4 CALLDATACOPY DUP1 DUP3 ADD SWAP2 POP POP SWAP1 POP JUMPDEST POP SWAP1 POP SWAP2 SWAP1 POP JUMP JUMPDEST PUSH1 0x4 PUSH1 0x20 MSTORE DUP1 PUSH0 MSTORE PUSH1 0x40 PUSH0 KECCAK256 PUSH0 SWAP2 POP SWAP1 POP DUP1 PUSH0 ADD SLOAD SWAP1 DUP1 PUSH1 0x1 ADD SLOAD SWAP1 DUP1 PUSH1 0x2 ADD SLOAD SWAP1 DUP1 PUSH1 0x3 ADD SLOAD SWAP1 DUP1 PUSH1 0x4 ADD SLOAD SWAP1 DUP1 PUSH1 0x5 ADD PUSH0 SWAP1 SLOAD SWAP1 PUSH2 0x100 EXP SWAP1 DIV PUSH1 0xFF AND SWAP1 POP DUP7 JUMP JUMPDEST PUSH1 0x8 PUSH0 SWAP1 SLOAD SWAP1 PUSH2 0x100 EXP SWAP1 DIV PUSH20 0xFFFFFFFFFFFFFFFFFFFFFFFFFFFFFFFFFFFFFFFF AND DUP2 JUMP JUMPDEST PUSH0 PUSH1 0x3 PUSH0 DUP5 DUP2 MSTORE PUSH1 0x20 ADD SWAP1 DUP2 MSTORE PUSH1 0x20 ADD PUSH0 KECCAK256 PUSH1 0x9 ADD PUSH0 DUP4 PUSH20 0xFFFFFFFFFFFFFFFFFFFFFFFFFFFFFFFFFFFFFFFF AND PUSH20 0xFFFFFFFFFFFFFFFFFFFFFFFFFFFFFFFFFFFFFFFF AND DUP2 MSTORE PUSH1 0x20 ADD SWAP1 DUP2 MSTORE PUSH1 0x20 ADD PUSH0 KECCAK256 PUSH0 SWAP1 SLOAD SWAP1 PUSH2 0x100 EXP SWAP1 DIV PUSH1 0xFF AND SWAP1 POP SWAP3 SWAP2 POP POP JUMP JUMPDEST PUSH2 0x7EF PUSH2 0x1761 JUMP JUMPDEST PUSH2 0x7F7 PUSH2 0x17E8 JUMP JUMPDEST JUMP JUMPDEST PUSH1 0x7 PUSH0 SWAP1 SLOAD SWAP1 PUSH2 0x100 EXP SWAP1 DIV PUSH20 0xFFFFFFFFFFFFFFFFFFFFFFFFFFFFFFFFFFFFFFFF AND DUP2 JUMP JUMPDEST PUSH0 PUSH1 0x2 PUSH0 SWAP1 SLOAD SWAP1 PUSH2 0x100 EXP SWAP1 DIV PUSH1 0xFF AND SWAP1 POP SWAP1 JUMP JUMPDEST PUSH0 PUSH1 0x3 PUSH0 DUP4 DUP2 MSTORE PUSH1 0x20 ADD SWAP1 DUP2 MSTORE PUSH1 0x20 ADD PUSH0 KECCAK256 SWAP1 POP PUSH0 DUP1 SHL DUP2 PUSH0 ADD SLOAD SUB PUSH2 0x88E JUMPI PUSH1 0x40 MLOAD PUSH32 0x8C379A000000000000000000000000000000000000000000000000000000000 DUP2 MSTORE PUSH1 0x4 ADD PUSH2 0x885 SWAP1 PUSH2 0x2724 JUMP JUMPDEST PUSH1 0x40 MLOAD DUP1 SWAP2 SUB SWAP1 REVERT JUMPDEST DUP1 PUSH1 0x9 ADD PUSH0 CALLER PUSH20 0xFFFFFFFFFFFFFFFFFFFFFFFFFFFFFFFFFFFFFFFF AND PUSH20 0xFFFFFFFFFFFFFFFFFFFFFFFFFFFFFFFFFFFFFFFF AND DUP2 MSTORE PUSH1 0x20 ADD SWAP1 DUP2 MSTORE PUSH1 0x20 ADD PUSH0 KECCAK256 PUSH0 SWAP1 SLOAD SWAP1 PUSH2 0x100 EXP SWAP1 DIV PUSH1 0xFF AND ISZERO PUSH2 0x91A JUMPI PUSH1 0x40 MLOAD PUSH32 0x8C379A000000000000000000000000000000000000000000000000000000000 DUP2 MSTORE PUSH1 0x4 ADD PUSH2 0x911 SWAP1 PUSH2 0x278C JUMP JUMPDEST PUSH1 0x40 MLOAD DUP1 SWAP2 SUB SWAP1 REVERT JUMPDEST PUSH1 0x1 DUP2 PUSH1 0x9 ADD PUSH0 CALLER PUSH20 0xFFFFFFFFFFFFFFFFFFFFFFFFFFFFFFFFFFFFFFFF AND PUSH20 0xFFFFFFFFFFFFFFFFFFFFFFFFFFFFFFFFFFFFFFFF AND DUP2 MSTORE PUSH1 0x20 ADD SWAP1 DUP2 MSTORE PUSH1 0x20 ADD PUSH0 KECCAK256 PUSH0 PUSH2 0x100 EXP DUP2 SLOAD DUP2 PUSH1 0xFF MUL NOT AND SWAP1 DUP4 ISZERO ISZERO MUL OR SWAP1 SSTORE POP PUSH1 0x6 PUSH0 DUP4 DUP2 MSTORE PUSH1 0x20 ADD SWAP1 DUP2 MSTORE PUSH1 0x20 ADD PUSH0 KECCAK256 PUSH0 DUP2 SLOAD DUP1 SWAP3 SWAP2 SWAP1 PUSH2 0x992 SWAP1 PUSH2 0x27D7 JUMP JUMPDEST SWAP2 SWAP1 POP SSTORE POP POP POP JUMP JUMPDEST PUSH2 0x9A3 PUSH2 0x1761 JUMP JUMPDEST PUSH2 0x9AC PUSH0 PUSH2 0x1849 JUMP JUMPDEST JUMP JUMPDEST PUSH2 0x9B6 PUSH2 0x1761 JUMP JUMPDEST PUSH2 0x9BE PUSH2 0x190A JUMP JUMPDEST JUMP JUMPDEST PUSH2 0x9C8 PUSH2 0x196C JUMP JUMPDEST PUSH2 0x9D0 PUSH2 0x19B2 JUMP JUMPDEST PUSH0 DUP1 SHL PUSH1 0x3 PUSH0 DUP5 DUP2 MSTORE PUSH1 0x20 ADD SWAP1 DUP2 MSTORE PUSH1 0x20 ADD PUSH0 KECCAK256 PUSH0 ADD SLOAD EQ PUSH2 0xA27 JUMPI PUSH1 0x40 MLOAD PUSH32 0x8C379A000000000000000000000000000000000000000000000000000000000 DUP2 MSTORE PUSH1 0x4 ADD PUSH2 0xA1E SWAP1 PUSH2 0x2868 JUMP JUMPDEST PUSH1 0x40 MLOAD DUP1 SWAP2 SUB SWAP1 REVERT JUMPDEST PUSH0 DUP1 PUSH0 DUP1 DUP5 DUP1 PUSH1 0x20 ADD SWAP1 MLOAD DUP2 ADD SWAP1 PUSH2 0xA3F SWAP2 SWAP1 PUSH2 0x28AE JUMP JUMPDEST SWAP4 POP SWAP4 POP SWAP4 POP SWAP4 POP PUSH2 0xA54 DUP7 DUP6 DUP6 DUP6 DUP6 PUSH2 0x19F3 JUMP JUMPDEST POP POP POP POP PUSH2 0xA60 PUSH2 0x1B82 JUMP JUMPDEST POP POP JUMP JUMPDEST PUSH2 0xA6C PUSH2 0x196C JUMP JUMPDEST PUSH2 0xA74 PUSH2 0x19B2 JUMP JUMPDEST PUSH4 0x2000000 DUP5 GT ISZERO PUSH2 0xABB JUMPI PUSH1 0x40 MLOAD PUSH32 0x8C379A000000000000000000000000000000000000000000000000000000000 DUP2 MSTORE PUSH1 0x4 ADD PUSH2 0xAB2 SWAP1 PUSH2 0x295C JUMP JUMPDEST PUSH1 0x40 MLOAD DUP1 SWAP2 SUB SWAP1 REVERT JUMPDEST PUSH0 DUP5 GT DUP1 ISZERO PUSH2 0xAC9 JUMPI POP PUSH0 DUP6 GT JUMPDEST PUSH2 0xB08 JUMPI PUSH1 0x40 MLOAD PUSH32 0x8C379A000000000000000000000000000000000000000000000000000000000 DUP2 MSTORE PUSH1 0x4 ADD PUSH2 0xAFF SWAP1 PUSH2 0x29C4 JUMP JUMPDEST PUSH1 0x40 MLOAD DUP1 SWAP2 SUB SWAP1 REVERT JUMPDEST PUSH0 DUP1 SHL PUSH1 0x3 PUSH0 DUP10 DUP2 MSTORE PUSH1 0x20 ADD SWAP1 DUP2 MSTORE PUSH1 0x20 ADD PUSH0 KECCAK256 PUSH0 ADD SLOAD EQ PUSH2 0xB5F JUMPI PUSH1 0x40 MLOAD PUSH32 0x8C379A000000000000000000000000000000000000000000000000000000000 DUP2 MSTORE PUSH1 0x4 ADD PUSH2 0xB56 SWAP1 PUSH2 0x2868 JUMP JUMPDEST PUSH1 0x40 MLOAD DUP1 SWAP2 SUB SWAP1 REVERT JUMPDEST PUSH1 0x8 PUSH0 SWAP1 SLOAD SWAP1 PUSH2 0x100 EXP SWAP1 DIV PUSH20 0xFFFFFFFFFFFFFFFFFFFFFFFFFFFFFFFFFFFFFFFF AND PUSH20 0xFFFFFFFFFFFFFFFFFFFFFFFFFFFFFFFFFFFFFFFF AND PUSH4 0xE3D0A2BE DUP8 DUP5 DUP5 CALLER PUSH1 0x40 MLOAD DUP6 PUSH4 0xFFFFFFFF AND PUSH1 0xE0 SHL DUP2 MSTORE PUSH1 0x4 ADD PUSH2 0xBBF SWAP5 SWAP4 SWAP3 SWAP2 SWAP1 PUSH2 0x2A0E JUMP JUMPDEST PUSH1 0x20 PUSH1 0x40 MLOAD DUP1 DUP4 SUB DUP2 DUP7 GAS STATICCALL ISZERO DUP1 ISZERO PUSH2 0xBDA JUMPI RETURNDATASIZE PUSH0 DUP1 RETURNDATACOPY RETURNDATASIZE PUSH0 REVERT JUMPDEST POP POP POP POP PUSH1 0x40 MLOAD RETURNDATASIZE PUSH1 0x1F NOT PUSH1 0x1F DUP3 ADD AND DUP3 ADD DUP1 PUSH1 0x40 MSTORE POP DUP2 ADD SWAP1 PUSH2 0xBFE SWAP2 SWAP1 PUSH2 0x2A76 JUMP JUMPDEST PUSH2 0xC3D JUMPI PUSH1 0x40 MLOAD PUSH32 0x8C379A000000000000000000000000000000000000000000000000000000000 DUP2 MSTORE PUSH1 0x4 ADD PUSH2 0xC34 SWAP1 PUSH2 0x2AEB JUMP JUMPDEST PUSH1 0x40 MLOAD DUP1 SWAP2 SUB SWAP1 REVERT JUMPDEST PUSH2 0xC4A DUP8 DUP8 DUP8 DUP8 DUP8 PUSH2 0x19F3 JUMP JUMPDEST PUSH2 0xC52 PUSH2 0x1B82 JUMP JUMPDEST POP POP POP POP POP POP POP JUMP JUMPDEST PUSH1 0x3 PUSH1 0x20 MSTORE DUP1 PUSH0 MSTORE PUSH1 0x40 PUSH0 KECCAK256 PUSH0 SWAP2 POP SWAP1 POP DUP1 PUSH0 ADD SLOAD SWAP1 DUP1 PUSH1 0x1 ADD SLOAD SWAP1 DUP1 PUSH1 0x2 ADD SLOAD SWAP1 DUP1 PUSH1 0x3 ADD SLOAD SWAP1 DUP1 PUSH1 0x4 ADD SLOAD SWAP1 DUP1 PUSH1 0x5 ADD SLOAD SWAP1 DUP1 PUSH1 0x6 ADD PUSH0 SWAP1 SLOAD SWAP1 PUSH2 0x100 EXP SWAP1 DIV PUSH20 0xFFFFFFFFFFFFFFFFFFFFFFFFFFFFFFFFFFFFFFFF AND SWAP1 DUP1 PUSH1 0x6 ADD PUSH1 0x14 SWAP1 SLOAD SWAP1 PUSH2 0x100 EXP SWAP1 DIV PUSH1 0xFF AND SWAP1 DUP1 PUSH1 0x6 ADD PUSH1 0x15 SWAP1 SLOAD SWAP1 PUSH2 0x100 EXP SWAP1 DIV PUSH1 0xFF AND SWAP1 DUP1 PUSH1 0x7 ADD SLOAD SWAP1 DUP1 PUSH1 0x8 ADD SLOAD SWAP1 POP DUP12 JUMP JUMPDEST PUSH4 0x2000000 DUP2 JUMP JUMPDEST PUSH0 DUP1 PUSH0 SWAP1 SLOAD SWAP1 PUSH2 0x100 EXP SWAP1 DIV PUSH20 0xFFFFFFFFFFFFFFFFFFFFFFFFFFFFFFFFFFFFFFFF AND SWAP1 POP SWAP1 JUMP JUMPDEST PUSH2 0xD21 PUSH2 0x196C JUMP JUMPDEST PUSH2 0xD29 PUSH2 0x19B2 JUMP JUMPDEST PUSH0 PUSH1 0x3 PUSH0 DUP8 DUP2 MSTORE PUSH1 0x20 ADD SWAP1 DUP2 MSTORE PUSH1 0x20 ADD PUSH0 KECCAK256 SWAP1 POP PUSH0 DUP1 SHL DUP2 PUSH0 ADD SLOAD SUB PUSH2 0xD84 JUMPI PUSH1 0x40 MLOAD PUSH32 0x8C379A000000000000000000000000000000000000000000000000000000000 DUP2 MSTORE PUSH1 0x4 ADD PUSH2 0xD7B SWAP1 PUSH2 0x2724 JUMP JUMPDEST PUSH1 0x40 MLOAD DUP1 SWAP2 SUB SWAP1 REVERT JUMPDEST DUP1 PUSH1 0x3 ADD SLOAD DUP6 LT PUSH2 0xDCA JUMPI PUSH1 0x40 MLOAD PUSH32 0x8C379A000000000000000000000000000000000000000000000000000000000 DUP2 MSTORE PUSH1 0x4 ADD PUSH2 0xDC1 SWAP1 PUSH2 0x2B53 JUMP JUMPDEST PUSH1 0x40 MLOAD DUP1 SWAP2 SUB SWAP1 REVERT JUMPDEST PUSH1 0x8 PUSH0 SWAP1 SLOAD SWAP1 PUSH2 0x100 EXP SWAP1 DIV PUSH20 0xFFFFFFFFFFFFFFFFFFFFFFFFFFFFFFFFFFFFFFFF AND PUSH20 0xFFFFFFFFFFFFFFFFFFFFFFFFFFFFFFFFFFFFFFFF AND PUSH4 0x6C7C2DB9 DUP6 DUP4 PUSH1 0x5 ADD SLOAD DUP7 DUP7 PUSH1 0x40 MLOAD DUP6 PUSH4 0xFFFFFFFF AND PUSH1 0xE0 SHL DUP2 MSTORE PUSH1 0x4 ADD PUSH2 0xE2E SWAP5 SWAP4 SWAP3 SWAP2 SWAP1 PUSH2 0x2B71 JUMP JUMPDEST PUSH1 0x20 PUSH1 0x40 MLOAD DUP1 DUP4 SUB DUP2 DUP7 GAS STATICCALL ISZERO DUP1 ISZERO PUSH2 0xE49 JUMPI RETURNDATASIZE PUSH0 DUP1 RETURNDATACOPY RETURNDATASIZE PUSH0 REVERT JUMPDEST POP POP POP POP PUSH1 0x40 MLOAD RETURNDATASIZE PUSH1 0x1F NOT PUSH1 0x1F DUP3 ADD AND DUP3 ADD DUP1 PUSH1 0x40 MSTORE POP DUP2 ADD SWAP1 PUSH2 0xE6D SWAP2 SWAP1 PUSH2 0x2A76 JUMP JUMPDEST PUSH2 0xEAC JUMPI PUSH1 0x40 MLOAD PUSH32 0x8C379A000000000000000000000000000000000000000000000000000000000 DUP2 MSTORE PUSH1 0x4 ADD PUSH2 0xEA3 SWAP1 PUSH2 0x2BF9 JUMP JUMPDEST PUSH1 0x40 MLOAD DUP1 SWAP2 SUB SWAP1 REVERT JUMPDEST DUP4 DUP2 PUSH1 0xA ADD PUSH0 DUP8 DUP2 MSTORE PUSH1 0x20 ADD SWAP1 DUP2 MSTORE PUSH1 0x20 ADD PUSH0 KECCAK256 DUP2 SWAP1 SSTORE POP DUP5 DUP7 PUSH32 0x92269041802411CA17C4AB8A7D4C13C4730A8FB32EDE9CBDCD80ED2090D55283 DUP7 TIMESTAMP PUSH1 0x40 MLOAD PUSH2 0xEF7 SWAP3 SWAP2 SWAP1 PUSH2 0x2C17 JUMP JUMPDEST PUSH1 0x40 MLOAD DUP1 SWAP2 SUB SWAP1 LOG3 POP PUSH2 0xF08 PUSH2 0x1B82 JUMP JUMPDEST POP POP POP POP POP JUMP JUMPDEST PUSH1 0x6 PUSH1 0x20 MSTORE DUP1 PUSH0 MSTORE PUSH1 0x40 PUSH0 KECCAK256 PUSH0 SWAP2 POP SWAP1 POP SLOAD DUP2 JUMP JUMPDEST PUSH0 PUSH1 0x3 PUSH0 DUP4 DUP2 MSTORE PUSH1 0x20 ADD SWAP1 DUP2 MSTORE PUSH1 0x20 ADD PUSH0 KECCAK256 SWAP1 POP PUSH0 DUP1 SHL DUP2 PUSH0 ADD SLOAD SUB PUSH2 0xF7F JUMPI PUSH1 0x40 MLOAD PUSH32 0x8C379A000000000000000000000000000000000000000000000000000000000 DUP2 MSTORE PUSH1 0x4 ADD PUSH2 0xF76 SWAP1 PUSH2 0x2724 JUMP JUMPDEST PUSH1 0x40 MLOAD DUP1 SWAP2 SUB SWAP1 REVERT JUMPDEST CALLER PUSH20 0xFFFFFFFFFFFFFFFFFFFFFFFFFFFFFFFFFFFFFFFF AND DUP2 PUSH1 0x6 ADD PUSH0 SWAP1 SLOAD SWAP1 PUSH2 0x100 EXP SWAP1 DIV PUSH20 0xFFFFFFFFFFFFFFFFFFFFFFFFFFFFFFFFFFFFFFFF AND PUSH20 0xFFFFFFFFFFFFFFFFFFFFFFFFFFFFFFFFFFFFFFFF AND EQ PUSH2 0x1010 JUMPI PUSH1 0x40 MLOAD PUSH32 0x8C379A000000000000000000000000000000000000000000000000000000000 DUP2 MSTORE PUSH1 0x4 ADD PUSH2 0x1007 SWAP1 PUSH2 0x2C88 JUMP JUMPDEST PUSH1 0x40 MLOAD DUP1 SWAP2 SUB SWAP1 REVERT JUMPDEST PUSH1 0x3 PUSH0 DUP4 DUP2 MSTORE PUSH1 0x20 ADD SWAP1 DUP2 MSTORE PUSH1 0x20 ADD PUSH0 KECCAK256 PUSH0 DUP1 DUP3 ADD PUSH0 SWAP1 SSTORE PUSH1 0x1 DUP3 ADD PUSH0 SWAP1 SSTORE PUSH1 0x2 DUP3 ADD PUSH0 SWAP1 SSTORE PUSH1 0x3 DUP3 ADD PUSH0 SWAP1 SSTORE PUSH1 0x4 DUP3 ADD PUSH0 SWAP1 SSTORE PUSH1 0x5 DUP3 ADD PUSH0 SWAP1 SSTORE PUSH1 0x6 DUP3 ADD PUSH0 PUSH2 0x100 EXP DUP2 SLOAD SWAP1 PUSH20 0xFFFFFFFFFFFFFFFFFFFFFFFFFFFFFFFFFFFFFFFF MUL NOT AND SWAP1 SSTORE PUSH1 0x6 DUP3 ADD PUSH1 0x14 PUSH2 0x100 EXP DUP2 SLOAD SWAP1 PUSH1 0xFF MUL NOT AND SWAP1 SSTORE PUSH1 0x6 DUP3 ADD PUSH1 0x15 PUSH2 0x100 EXP DUP2 SLOAD SWAP1 PUSH1 0xFF MUL NOT AND SWAP1 SSTORE PUSH1 0x7 DUP3 ADD PUSH0 SWAP1 SSTORE PUSH1 0x8 DUP3 ADD PUSH0 SWAP1 SSTORE POP POP POP POP JUMP JUMPDEST PUSH0 PUSH1 0x3 PUSH0 DUP4 DUP2 MSTORE PUSH1 0x20 ADD SWAP1 DUP2 MSTORE PUSH1 0x20 ADD PUSH0 KECCAK256 SWAP1 POP PUSH0 DUP1 SHL DUP2 PUSH0 ADD SLOAD SUB PUSH2 0x1108 JUMPI PUSH1 0x40 MLOAD PUSH32 0x8C379A000000000000000000000000000000000000000000000000000000000 DUP2 MSTORE PUSH1 0x4 ADD PUSH2 0x10FF SWAP1 PUSH2 0x2724 JUMP JUMPDEST PUSH1 0x40 MLOAD DUP1 SWAP2 SUB SWAP1 REVERT JUMPDEST DUP1 PUSH1 0x9 ADD PUSH0 CALLER PUSH20 0xFFFFFFFFFFFFFFFFFFFFFFFFFFFFFFFFFFFFFFFF AND PUSH20 0xFFFFFFFFFFFFFFFFFFFFFFFFFFFFFFFFFFFFFFFF AND DUP2 MSTORE PUSH1 0x20 ADD SWAP1 DUP2 MSTORE PUSH1 0x20 ADD PUSH0 KECCAK256 PUSH0 SWAP1 SLOAD SWAP1 PUSH2 0x100 EXP SWAP1 DIV PUSH1 0xFF AND PUSH2 0x1193 JUMPI PUSH1 0x40 MLOAD PUSH32 0x8C379A000000000000000000000000000000000000000000000000000000000 DUP2 MSTORE PUSH1 0x4 ADD PUSH2 0x118A SWAP1 PUSH2 0x2CF0 JUMP JUMPDEST PUSH1 0x40 MLOAD DUP1 SWAP2 SUB SWAP1 REVERT JUMPDEST PUSH0 DUP2 PUSH1 0x9 ADD PUSH0 CALLER PUSH20 0xFFFFFFFFFFFFFFFFFFFFFFFFFFFFFFFFFFFFFFFF AND PUSH20 0xFFFFFFFFFFFFFFFFFFFFFFFFFFFFFFFFFFFFFFFF AND DUP2 MSTORE PUSH1 0x20 ADD SWAP1 DUP2 MSTORE PUSH1 0x20 ADD PUSH0 KECCAK256 PUSH0 PUSH2 0x100 EXP DUP2 SLOAD DUP2 PUSH1 0xFF MUL NOT AND SWAP1 DUP4 ISZERO ISZERO MUL OR SWAP1 SSTORE POP PUSH1 0x6 PUSH0 DUP4 DUP2 MSTORE PUSH1 0x20 ADD SWAP1 DUP2 MSTORE PUSH1 0x20 ADD PUSH0 KECCAK256 PUSH0 DUP2 SLOAD DUP1 SWAP3 SWAP2 SWAP1 PUSH2 0x120A SWAP1 PUSH2 0x2D0E JUMP JUMPDEST SWAP2 SWAP1 POP SSTORE POP POP POP JUMP JUMPDEST PUSH1 0x14 DUP2 JUMP JUMPDEST PUSH1 0x5 PUSH1 0x20 MSTORE DUP1 PUSH0 MSTORE PUSH1 0x40 PUSH0 KECCAK256 PUSH0 SWAP2 POP SWAP1 POP SLOAD DUP2 JUMP JUMPDEST PUSH1 0x64 DUP2 JUMP JUMPDEST PUSH1 0x60 PUSH0 PUSH1 0x3 PUSH0 DUP5 DUP2 MSTORE PUSH1 0x20 ADD SWAP1 DUP2 MSTORE PUSH1 0x20 ADD PUSH0 KECCAK256 SWAP1 POP PUSH0 DUP1 SHL DUP2 PUSH0 ADD SLOAD SUB PUSH2 0x128F JUMPI PUSH1 0x40 MLOAD PUSH32 0x8C379A000000000000000000000000000000000000000000000000000000000 DUP2 MSTORE PUSH1 0x4 ADD PUSH2 0x1286 SWAP1 PUSH2 0x2724 JUMP JUMPDEST PUSH1 0x40 MLOAD DUP1 SWAP2 SUB SWAP1 REVERT JUMPDEST DUP1 PUSH1 0x1 ADD SLOAD DUP2 PUSH1 0x2 ADD SLOAD DUP3 PUSH1 0x4 ADD SLOAD DUP4 PUSH1 0x5 ADD SLOAD DUP5 PUSH1 0x6 ADD PUSH0 SWAP1 SLOAD SWAP1 PUSH2 0x100 EXP SWAP1 DIV PUSH20 0xFFFFFFFFFFFFFFFFFFFFFFFFFFFFFFFFFFFFFFFF AND DUP6 PUSH1 0x6 ADD PUSH1 0x14 SWAP1 SLOAD SWAP1 PUSH2 0x100 EXP SWAP1 DIV PUSH1 0xFF AND DUP7 PUSH1 0x6 ADD PUSH1 0x15 SWAP1 SLOAD SWAP1 PUSH2 0x100 EXP SWAP1 DIV PUSH1 0xFF AND PUSH1 0x40 MLOAD PUSH1 0x20 ADD PUSH2 0x1301 SWAP8 SWAP7 SWAP6 SWAP5 SWAP4 SWAP3 SWAP2 SWAP1 PUSH2 0x2D35 JUMP JUMPDEST PUSH1 0x40 MLOAD PUSH1 0x20 DUP2 DUP4 SUB SUB DUP2 MSTORE SWAP1 PUSH1 0x40 MSTORE SWAP2 POP POP SWAP2 SWAP1 POP JUMP JUMPDEST PUSH1 0xA DUP2 JUMP JUMPDEST PUSH0 DUP1 PUSH0 DUP1 PUSH0 DUP1 PUSH0 PUSH1 0x4 PUSH0 DUP10 PUSH20 0xFFFFFFFFFFFFFFFFFFFFFFFFFFFFFFFFFFFFFFFF AND PUSH20 0xFFFFFFFFFFFFFFFFFFFFFFFFFFFFFFFFFFFFFFFF AND DUP2 MSTORE PUSH1 0x20 ADD SWAP1 DUP2 MSTORE PUSH1 0x20 ADD PUSH0 KECCAK256 SWAP1 POP DUP1 PUSH0 ADD SLOAD DUP2 PUSH1 0x1 ADD SLOAD DUP3 PUSH1 0x2 ADD SLOAD DUP4 PUSH1 0x3 ADD SLOAD DUP5 PUSH1 0x4 ADD SLOAD DUP6 PUSH1 0x5 ADD PUSH0 SWAP1 SLOAD SWAP1 PUSH2 0x100 EXP SWAP1 DIV PUSH1 0xFF AND SWAP7 POP SWAP7 POP SWAP7 POP SWAP7 POP SWAP7 POP SWAP7 POP POP SWAP2 SWAP4 SWAP6 POP SWAP2 SWAP4 SWAP6 JUMP JUMPDEST PUSH2 0x13AA PUSH2 0x1761 JUMP JUMPDEST PUSH0 PUSH20 0xFFFFFFFFFFFFFFFFFFFFFFFFFFFFFFFFFFFFFFFF AND DUP2 PUSH20 0xFFFFFFFFFFFFFFFFFFFFFFFFFFFFFFFFFFFFFFFF AND SUB PUSH2 0x141A JUMPI PUSH0 PUSH1 0x40 MLOAD PUSH32 0x1E4FBDF700000000000000000000000000000000000000000000000000000000 DUP2 MSTORE PUSH1 0x4 ADD PUSH2 0x1411 SWAP2 SWAP1 PUSH2 0x2562 JUMP JUMPDEST PUSH1 0x40 MLOAD DUP1 SWAP2 SUB SWAP1 REVERT JUMPDEST PUSH2 0x1423 DUP2 PUSH2 0x1849 JUMP JUMPDEST POP JUMP JUMPDEST PUSH2 0x142E PUSH2 0x196C JUMP JUMPDEST PUSH2 0x1436 PUSH2 0x19B2 JUMP JUMPDEST PUSH0 DUP1 SHL PUSH1 0x4 PUSH0 CALLER PUSH20 0xFFFFFFFFFFFFFFFFFFFFFFFFFFFFFFFFFFFFFFFF AND PUSH20 0xFFFFFFFFFFFFFFFFFFFFFFFFFFFFFFFFFFFFFFFF AND DUP2 MSTORE PUSH1 0x20 ADD SWAP1 DUP2 MSTORE PUSH1 0x20 ADD PUSH0 KECCAK256 PUSH0 ADD SLOAD EQ PUSH2 0x14B9 JUMPI PUSH1 0x40 MLOAD PUSH32 0x8C379A000000000000000000000000000000000000000000000000000000000 DUP2 MSTORE PUSH1 0x4 ADD PUSH2 0x14B0 SWAP1 PUSH2 0x2DEC JUMP JUMPDEST PUSH1 0x40 MLOAD DUP1 SWAP2 SUB SWAP1 REVERT JUMPDEST PUSH0 PUSH2 0x14C5 CALLER DUP5 DUP5 PUSH2 0x1B8B JUMP JUMPDEST SWAP1 POP CALLER TIMESTAMP PUSH1 0x40 MLOAD PUSH1 0x20 ADD PUSH2 0x14DA SWAP3 SWAP2 SWAP1 PUSH2 0x2E6F JUMP JUMPDEST PUSH1 0x40 MLOAD PUSH1 0x20 DUP2 DUP4 SUB SUB DUP2 MSTORE SWAP1 PUSH1 0x40 MSTORE DUP1 MLOAD SWAP1 PUSH1 0x20 ADD KECCAK256 PUSH1 0x4 PUSH0 CALLER PUSH20 0xFFFFFFFFFFFFFFFFFFFFFFFFFFFFFFFFFFFFFFFF AND PUSH20 0xFFFFFFFFFFFFFFFFFFFFFFFFFFFFFFFFFFFFFFFF AND DUP2 MSTORE PUSH1 0x20 ADD SWAP1 DUP2 MSTORE PUSH1 0x20 ADD PUSH0 KECCAK256 PUSH0 ADD DUP2 SWAP1 SSTORE POP PUSH1 0x64 PUSH1 0x4 PUSH0 CALLER PUSH20 0xFFFFFFFFFFFFFFFFFFFFFFFFFFFFFFFFFFFFFFFF AND PUSH20 0xFFFFFFFFFFFFFFFFFFFFFFFFFFFFFFFFFFFFFFFF AND DUP2 MSTORE PUSH1 0x20 ADD SWAP1 DUP2 MSTORE PUSH1 0x20 ADD PUSH0 KECCAK256 PUSH1 0x1 ADD DUP2 SWAP1 SSTORE POP PUSH0 PUSH1 0x4 PUSH0 CALLER PUSH20 0xFFFFFFFFFFFFFFFFFFFFFFFFFFFFFFFFFFFFFFFF AND PUSH20 0xFFFFFFFFFFFFFFFFFFFFFFFFFFFFFFFFFFFFFFFF AND DUP2 MSTORE PUSH1 0x20 ADD SWAP1 DUP2 MSTORE PUSH1 0x20 ADD PUSH0 KECCAK256 PUSH1 0x2 ADD DUP2 SWAP1 SSTORE POP PUSH0 PUSH1 0x4 PUSH0 CALLER PUSH20 0xFFFFFFFFFFFFFFFFFFFFFFFFFFFFFFFFFFFFFFFF AND PUSH20 0xFFFFFFFFFFFFFFFFFFFFFFFFFFFFFFFFFFFFFFFF AND DUP2 MSTORE PUSH1 0x20 ADD SWAP1 DUP2 MSTORE PUSH1 0x20 ADD PUSH0 KECCAK256 PUSH1 0x3 ADD DUP2 SWAP1 SSTORE POP TIMESTAMP PUSH1 0x4 PUSH0 CALLER PUSH20 0xFFFFFFFFFFFFFFFFFFFFFFFFFFFFFFFFFFFFFFFF AND PUSH20 0xFFFFFFFFFFFFFFFFFFFFFFFFFFFFFFFFFFFFFFFF AND DUP2 MSTORE PUSH1 0x20 ADD SWAP1 DUP2 MSTORE PUSH1 0x20 ADD PUSH0 KECCAK256 PUSH1 0x4 ADD DUP2 SWAP1 SSTORE POP PUSH1 0x1 PUSH1 0x4 PUSH0 CALLER PUSH20 0xFFFFFFFFFFFFFFFFFFFFFFFFFFFFFFFFFFFFFFFF AND PUSH20 0xFFFFFFFFFFFFFFFFFFFFFFFFFFFFFFFFFFFFFFFF AND DUP2 MSTORE PUSH1 0x20 ADD SWAP1 DUP2 MSTORE PUSH1 0x20 ADD PUSH0 KECCAK256 PUSH1 0x5 ADD PUSH0 PUSH2 0x100 EXP DUP2 SLOAD DUP2 PUSH1 0xFF MUL NOT AND SWAP1 DUP4 ISZERO ISZERO MUL OR SWAP1 SSTORE POP DUP1 PUSH1 0x5 PUSH0 CALLER PUSH1 0x40 MLOAD PUSH1 0x20 ADD PUSH2 0x16B5 SWAP2 SWAP1 PUSH2 0x2E9A JUMP JUMPDEST PUSH1 0x40 MLOAD PUSH1 0x20 DUP2 DUP4 SUB SUB DUP2 MSTORE SWAP1 PUSH1 0x40 MSTORE DUP1 MLOAD SWAP1 PUSH1 0x20 ADD KECCAK256 DUP2 MSTORE PUSH1 0x20 ADD SWAP1 DUP2 MSTORE PUSH1 0x20 ADD PUSH0 KECCAK256 DUP2 SWAP1 SSTORE POP DUP1 PUSH1 0x4 PUSH0 CALLER PUSH20 0xFFFFFFFFFFFFFFFFFFFFFFFFFFFFFFFFFFFFFFFF AND PUSH20 0xFFFFFFFFFFFFFFFFFFFFFFFFFFFFFFFFFFFFFFFF AND DUP2 MSTORE PUSH1 0x20 ADD SWAP1 DUP2 MSTORE PUSH1 0x20 ADD PUSH0 KECCAK256 PUSH0 ADD SLOAD PUSH32 0xFD25A1B058EC8924288EA3C74FCE9A0E3B819AAABAFEF0BAB98D3B138E62C5DC TIMESTAMP PUSH1 0x40 MLOAD PUSH2 0x174C SWAP2 SWAP1 PUSH2 0x2549 JUMP JUMPDEST PUSH1 0x40 MLOAD DUP1 SWAP2 SUB SWAP1 LOG3 POP PUSH2 0x175D PUSH2 0x1B82 JUMP JUMPDEST POP POP JUMP JUMPDEST PUSH2 0x1769 PUSH2 0x1BC0 JUMP JUMPDEST PUSH20 0xFFFFFFFFFFFFFFFFFFFFFFFFFFFFFFFFFFFFFFFF AND PUSH2 0x1787 PUSH2 0xCF2 JUMP JUMPDEST PUSH20 0xFFFFFFFFFFFFFFFFFFFFFFFFFFFFFFFFFFFFFFFF AND EQ PUSH2 0x17E6 JUMPI PUSH2 0x17AA PUSH2 0x1BC0 JUMP JUMPDEST PUSH1 0x40 MLOAD PUSH32 0x118CDAA700000000000000000000000000000000000000000000000000000000 DUP2 MSTORE PUSH1 0x4 ADD PUSH2 0x17DD SWAP2 SWAP1 PUSH2 0x2562 JUMP JUMPDEST PUSH1 0x40 MLOAD DUP1 SWAP2 SUB SWAP1 REVERT JUMPDEST JUMP JUMPDEST PUSH2 0x17F0 PUSH2 0x1BC7 JUMP JUMPDEST PUSH0 PUSH1 0x2 PUSH0 PUSH2 0x100 EXP DUP2 SLOAD DUP2 PUSH1 0xFF MUL NOT AND SWAP1 DUP4 ISZERO ISZERO MUL OR SWAP1 SSTORE POP PUSH32 0x5DB9EE0A495BF2E6FF9C91A7834C1BA4FDD244A5E8AA4E537BD38AEAE4B073AA PUSH2 0x1832 PUSH2 0x1BC0 JUMP JUMPDEST PUSH1 0x40 MLOAD PUSH2 0x183F SWAP2 SWAP1 PUSH2 0x2562 JUMP JUMPDEST PUSH1 0x40 MLOAD DUP1 SWAP2 SUB SWAP1 LOG1 JUMP JUMPDEST PUSH0 DUP1 PUSH0 SWAP1 SLOAD SWAP1 PUSH2 0x100 EXP SWAP1 DIV PUSH20 0xFFFFFFFFFFFFFFFFFFFFFFFFFFFFFFFFFFFFFFFF AND SWAP1 POP DUP2 PUSH0 DUP1 PUSH2 0x100 EXP DUP2 SLOAD DUP2 PUSH20 0xFFFFFFFFFFFFFFFFFFFFFFFFFFFFFFFFFFFFFFFF MUL NOT AND SWAP1 DUP4 PUSH20 0xFFFFFFFFFFFFFFFFFFFFFFFFFFFFFFFFFFFFFFFF AND MUL OR SWAP1 SSTORE POP DUP2 PUSH20 0xFFFFFFFFFFFFFFFFFFFFFFFFFFFFFFFFFFFFFFFF AND DUP2 PUSH20 0xFFFFFFFFFFFFFFFFFFFFFFFFFFFFFFFFFFFFFFFF AND PUSH32 0x8BE0079C531659141344CD1FD0A4F28419497F9722A3DAAFE3B4186F6B6457E0 PUSH1 0x40 MLOAD PUSH1 0x40 MLOAD DUP1 SWAP2 SUB SWAP1 LOG3 POP POP JUMP JUMPDEST PUSH2 0x1912 PUSH2 0x19B2 JUMP JUMPDEST PUSH1 0x1 PUSH1 0x2 PUSH0 PUSH2 0x100 EXP DUP2 SLOAD DUP2 PUSH1 0xFF MUL NOT AND SWAP1 DUP4 ISZERO ISZERO MUL OR SWAP1 SSTORE POP PUSH32 0x62E78CEA01BEE320CD4E420270B5EA74000D11B0C9F74754EBDBFC544B05A258 PUSH2 0x1955 PUSH2 0x1BC0 JUMP JUMPDEST PUSH1 0x40 MLOAD PUSH2 0x1962 SWAP2 SWAP1 PUSH2 0x2562 JUMP JUMPDEST PUSH1 0x40 MLOAD DUP1 SWAP2 SUB SWAP1 LOG1 JUMP JUMPDEST PUSH1 0x2 PUSH1 0x1 SLOAD SUB PUSH2 0x19A8 JUMPI PUSH1 0x40 MLOAD PUSH32 0x3EE5AEB500000000000000000000000000000000000000000000000000000000 DUP2 MSTORE PUSH1 0x4 ADD PUSH1 0x40 MLOAD DUP1 SWAP2 SUB SWAP1 REVERT JUMPDEST PUSH1 0x2 PUSH1 0x1 DUP2 SWAP1 SSTORE POP JUMP JUMPDEST PUSH2 0x19BA PUSH2 0x81E JUMP JUMPDEST ISZERO PUSH2 0x19F1 JUMPI PUSH1 0x40 MLOAD PUSH32 0xD93C066500000000000000000000000000000000000000000000000000000000 DUP2 MSTORE PUSH1 0x4 ADD PUSH1 0x40 MLOAD DUP1 SWAP2 SUB SWAP1 REVERT JUMPDEST JUMP JUMPDEST PUSH0 DUP3 PUSH1 0x1 DUP5 DUP7 PUSH2 0x1A03 SWAP2 SWAP1 PUSH2 0x2EB4 JUMP JUMPDEST PUSH2 0x1A0D SWAP2 SWAP1 PUSH2 0x2EE7 JUMP JUMPDEST PUSH2 0x1A17 SWAP2 SWAP1 PUSH2 0x2F47 JUMP JUMPDEST SWAP1 POP PUSH0 PUSH1 0x3 PUSH0 DUP9 DUP2 MSTORE PUSH1 0x20 ADD SWAP1 DUP2 MSTORE PUSH1 0x20 ADD PUSH0 KECCAK256 SWAP1 POP DUP7 DUP2 PUSH0 ADD DUP2 SWAP1 SSTORE POP DUP6 DUP2 PUSH1 0x1 ADD DUP2 SWAP1 SSTORE POP DUP5 DUP2 PUSH1 0x2 ADD DUP2 SWAP1 SSTORE POP DUP4 DUP2 PUSH1 0x4 ADD DUP2 SWAP1 SSTORE POP DUP2 DUP2 PUSH1 0x3 ADD DUP2 SWAP1 SSTORE POP DUP3 DUP2 PUSH1 0x5 ADD DUP2 SWAP1 SSTORE POP CALLER DUP2 PUSH1 0x6 ADD PUSH0 PUSH2 0x100 EXP DUP2 SLOAD DUP2 PUSH20 0xFFFFFFFFFFFFFFFFFFFFFFFFFFFFFFFFFFFFFFFF MUL NOT AND SWAP1 DUP4 PUSH20 0xFFFFFFFFFFFFFFFFFFFFFFFFFFFFFFFFFFFFFFFF AND MUL OR SWAP1 SSTORE POP TIMESTAMP DUP2 PUSH1 0x8 ADD DUP2 SWAP1 SSTORE POP PUSH1 0x1 DUP2 PUSH1 0x9 ADD PUSH0 CALLER PUSH20 0xFFFFFFFFFFFFFFFFFFFFFFFFFFFFFFFFFFFFFFFF AND PUSH20 0xFFFFFFFFFFFFFFFFFFFFFFFFFFFFFFFFFFFFFFFF AND DUP2 MSTORE PUSH1 0x20 ADD SWAP1 DUP2 MSTORE PUSH1 0x20 ADD PUSH0 KECCAK256 PUSH0 PUSH2 0x100 EXP DUP2 SLOAD DUP2 PUSH1 0xFF MUL NOT AND SWAP1 DUP4 ISZERO ISZERO MUL OR SWAP1 SSTORE POP PUSH1 0x1 PUSH1 0x6 PUSH0 DUP10 DUP2 MSTORE PUSH1 0x20 ADD SWAP1 DUP2 MSTORE PUSH1 0x20 ADD PUSH0 KECCAK256 DUP2 SWAP1 SSTORE POP PUSH2 0x1B27 CALLER PUSH1 0x1 PUSH0 PUSH2 0x1C07 JUMP JUMPDEST CALLER PUSH20 0xFFFFFFFFFFFFFFFFFFFFFFFFFFFFFFFFFFFFFFFF AND DUP7 DUP9 PUSH32 0xDECDCED2EA81A77C90A01CF427D46ECEFC962B7CEE3F4B7E470FE80A902DF3EA DUP9 TIMESTAMP PUSH1 0x40 MLOAD PUSH2 0x1B71 SWAP3 SWAP2 SWAP1 PUSH2 0x2F77 JUMP JUMPDEST PUSH1 0x40 MLOAD DUP1 SWAP2 SUB SWAP1 LOG4 POP POP POP POP POP POP POP JUMP JUMPDEST PUSH1 0x1 DUP1 DUP2 SWAP1 SSTORE POP JUMP JUMPDEST PUSH0 DUP4 DUP4 DUP4 PUSH1 0x40 MLOAD PUSH1 0x20 ADD PUSH2 0x1BA1 SWAP4 SWAP3 SWAP2 SWAP1 PUSH2 0x2FCC JUMP JUMPDEST PUSH1 0x40 MLOAD PUSH1 0x20 DUP2 DUP4 SUB SUB DUP2 MSTORE SWAP1 PUSH1 0x40 MSTORE DUP1 MLOAD SWAP1 PUSH1 0x20 ADD KECCAK256 SWAP1 POP SWAP4 SWAP3 POP POP POP JUMP JUMPDEST PUSH0 CALLER SWAP1 POP SWAP1 JUMP JUMPDEST PUSH2 0x1BCF PUSH2 0x81E JUMP JUMPDEST PUSH2 0x1C05 JUMPI PUSH1 0x40 MLOAD PUSH32 0x8DFC202B00000000000000000000000000000000000000000000000000000000 DUP2 MSTORE PUSH1 0x4 ADD PUSH1 0x40 MLOAD DUP1 SWAP2 SUB SWAP1 REVERT JUMPDEST JUMP JUMPDEST PUSH0 PUSH1 0x4 PUSH0 DUP6 PUSH20 0xFFFFFFFFFFFFFFFFFFFFFFFFFFFFFFFFFFFFFFFF AND PUSH20 0xFFFFFFFFFFFFFFFFFFFFFFFFFFFFFFFFFFFFFFFF AND DUP2 MSTORE PUSH1 0x20 ADD SWAP1 DUP2 MSTORE PUSH1 0x20 ADD PUSH0 KECCAK256 SWAP1 POP DUP1 PUSH1 0x5 ADD PUSH0 SWAP1 SLOAD SWAP1 PUSH2 0x100 EXP SWAP1 DIV PUSH1 0xFF AND PUSH2 0x1C97 JUMPI PUSH1 0x40 MLOAD PUSH32 0x8C379A000000000000000000000000000000000000000000000000000000000 DUP2 MSTORE PUSH1 0x4 ADD PUSH2 0x1C8E SWAP1 PUSH2 0x303F JUMP JUMPDEST PUSH1 0x40 MLOAD DUP1 SWAP2 SUB SWAP1 REVERT JUMPDEST PUSH0 DUP1 DUP4 EQ PUSH2 0x1CA5 JUMPI DUP3 PUSH2 0x1CB5 JUMP JUMPDEST DUP4 PUSH2 0x1CB1 JUMPI PUSH1 0x14 PUSH2 0x1CB4 JUMP JUMPDEST PUSH1 0xA JUMPDEST JUMPDEST SWAP1 POP DUP4 ISZERO PUSH2 0x1CF3 JUMPI DUP1 DUP3 PUSH1 0x1 ADD SLOAD PUSH2 0x1CCD SWAP2 SWAP1 PUSH2 0x2EB4 JUMP JUMPDEST DUP3 PUSH1 0x1 ADD DUP2 SWAP1 SSTORE POP DUP2 PUSH1 0x2 ADD PUSH0 DUP2 SLOAD DUP1 SWAP3 SWAP2 SWAP1 PUSH2 0x1CE9 SWAP1 PUSH2 0x27D7 JUMP JUMPDEST SWAP2 SWAP1 POP SSTORE POP PUSH2 0x1D37 JUMP JUMPDEST DUP1 DUP3 PUSH1 0x1 ADD SLOAD GT PUSH2 0x1D04 JUMPI PUSH0 PUSH2 0x1D15 JUMP JUMPDEST DUP1 DUP3 PUSH1 0x1 ADD SLOAD PUSH2 0x1D14 SWAP2 SWAP1 PUSH2 0x2EE7 JUMP JUMPDEST JUMPDEST DUP3 PUSH1 0x1 ADD DUP2 SWAP1 SSTORE POP DUP2 PUSH1 0x3 ADD PUSH0 DUP2 SLOAD DUP1 SWAP3 SWAP2 SWAP1 PUSH2 0x1D31 SWAP1 PUSH2 0x27D7 JUMP JUMPDEST SWAP2 SWAP1 POP SSTORE POP JUMPDEST TIMESTAMP DUP3 PUSH1 0x4 ADD DUP2 SWAP1 SSTORE POP DUP2 PUSH0 ADD SLOAD PUSH32 0xF61A6281A31B24F3A04FD9893067AF3886EAC3B38B578E41E18234BBDD43651A DUP4 PUSH1 0x1 ADD SLOAD TIMESTAMP PUSH1 0x40 MLOAD PUSH2 0x1D79 SWAP3 SWAP2 SWAP1 PUSH2 0x2F77 JUMP JUMPDEST PUSH1 0x40 MLOAD DUP1 SWAP2 SUB SWAP1 LOG2 POP POP POP POP POP JUMP JUMPDEST PUSH0 PUSH1 0x40 MLOAD SWAP1 POP SWAP1 JUMP JUMPDEST PUSH0 DUP1 REVERT JUMPDEST PUSH0 DUP1 REVERT JUMPDEST PUSH0 DUP2 SWAP1 POP SWAP2 SWAP1 POP JUMP JUMPDEST PUSH2 0x1DAB DUP2 PUSH2 0x1D99 JUMP JUMPDEST DUP2 EQ PUSH2 0x1DB5 JUMPI PUSH0 DUP1 REVERT JUMPDEST POP JUMP JUMPDEST PUSH0 DUP2 CALLDATALOAD SWAP1 POP PUSH2 0x1DC6 DUP2 PUSH2 0x1DA2 JUMP JUMPDEST SWAP3 SWAP2 POP POP JUMP JUMPDEST PUSH0 PUSH1 0x20 DUP3 DUP5 SUB SLT ISZERO PUSH2 0x1DE1 JUMPI PUSH2 0x1DE0 PUSH2 0x1D91 JUMP JUMPDEST JUMPDEST PUSH0 PUSH2 0x1DEE DUP5 DUP3 DUP6 ADD PUSH2 0x1DB8 JUMP JUMPDEST SWAP2 POP POP SWAP3 SWAP2 POP POP JUMP JUMPDEST PUSH2 0x1E00 DUP2 PUSH2 0x1D99 JUMP JUMPDEST DUP3 MSTORE POP POP JUMP JUMPDEST PUSH0 DUP2 SWAP1 POP SWAP2 SWAP1 POP JUMP JUMPDEST PUSH2 0x1E18 DUP2 PUSH2 0x1E06 JUMP JUMPDEST DUP3 MSTORE POP POP JUMP JUMPDEST PUSH0 PUSH20 0xFFFFFFFFFFFFFFFFFFFFFFFFFFFFFFFFFFFFFFFF DUP3 AND SWAP1 POP SWAP2 SWAP1 POP JUMP JUMPDEST PUSH0 PUSH2 0x1E47 DUP3 PUSH2 0x1E1E JUMP JUMPDEST SWAP1 POP SWAP2 SWAP1 POP JUMP JUMPDEST PUSH2 0x1E57 DUP2 PUSH2 0x1E3D JUMP JUMPDEST DUP3 MSTORE POP POP JUMP JUMPDEST PUSH0 DUP2 ISZERO ISZERO SWAP1 POP SWAP2 SWAP1 POP JUMP JUMPDEST PUSH2 0x1E71 DUP2 PUSH2 0x1E5D JUMP JUMPDEST DUP3 MSTORE POP POP JUMP JUMPDEST PUSH0 PUSH2 0x100 DUP3 ADD SWAP1 POP PUSH2 0x1E8B PUSH0 DUP4 ADD DUP12 PUSH2 0x1DF7 JUMP JUMPDEST PUSH2 0x1E98 PUSH1 0x20 DUP4 ADD DUP11 PUSH2 0x1E0F JUMP JUMPDEST PUSH2 0x1EA5 PUSH1 0x40 DUP4 ADD DUP10 PUSH2 0x1E0F JUMP JUMPDEST PUSH2 0x1EB2 PUSH1 0x60 DUP4 ADD DUP9 PUSH2 0x1E0F JUMP JUMPDEST PUSH2 0x1EBF PUSH1 0x80 DUP4 ADD DUP8 PUSH2 0x1DF7 JUMP JUMPDEST PUSH2 0x1ECC PUSH1 0xA0 DUP4 ADD DUP7 PUSH2 0x1E4E JUMP JUMPDEST PUSH2 0x1ED9 PUSH1 0xC0 DUP4 ADD DUP6 PUSH2 0x1E68 JUMP JUMPDEST PUSH2 0x1EE6 PUSH1 0xE0 DUP4 ADD DUP5 PUSH2 0x1E68 JUMP JUMPDEST SWAP10 SWAP9 POP POP POP POP POP POP POP POP POP JUMP JUMPDEST PUSH2 0x1EFC DUP2 PUSH2 0x1E06 JUMP JUMPDEST DUP2 EQ PUSH2 0x1F06 JUMPI PUSH0 DUP1 REVERT JUMPDEST POP JUMP JUMPDEST PUSH0 DUP2 CALLDATALOAD SWAP1 POP PUSH2 0x1F17 DUP2 PUSH2 0x1EF3 JUMP JUMPDEST SWAP3 SWAP2 POP POP JUMP JUMPDEST PUSH0 DUP1 PUSH1 0x40 DUP4 DUP6 SUB SLT ISZERO PUSH2 0x1F33 JUMPI PUSH2 0x1F32 PUSH2 0x1D91 JUMP JUMPDEST JUMPDEST PUSH0 PUSH2 0x1F40 DUP6 DUP3 DUP7 ADD PUSH2 0x1DB8 JUMP JUMPDEST SWAP3 POP POP PUSH1 0x20 PUSH2 0x1F51 DUP6 DUP3 DUP7 ADD PUSH2 0x1F09 JUMP JUMPDEST SWAP2 POP POP SWAP3 POP SWAP3 SWAP1 POP JUMP JUMPDEST PUSH0 PUSH1 0x20 DUP3 ADD SWAP1 POP PUSH2 0x1F6E PUSH0 DUP4 ADD DUP5 PUSH2 0x1DF7 JUMP JUMPDEST SWAP3 SWAP2 POP POP JUMP JUMPDEST PUSH0 DUP2 MLOAD SWAP1 POP SWAP2 SWAP1 POP JUMP JUMPDEST PUSH0 DUP3 DUP3 MSTORE PUSH1 0x20 DUP3 ADD SWAP1 POP SWAP3 SWAP2 POP POP JUMP JUMPDEST PUSH0 DUP2 SWAP1 POP PUSH1 0x20 DUP3 ADD SWAP1 POP SWAP2 SWAP1 POP JUMP JUMPDEST PUSH2 0x1FA6 DUP2 PUSH2 0x1E3D JUMP JUMPDEST DUP3 MSTORE POP POP JUMP JUMPDEST PUSH0 PUSH2 0x1FB7 DUP4 DUP4 PUSH2 0x1F9D JUMP JUMPDEST PUSH1 0x20 DUP4 ADD SWAP1 POP SWAP3 SWAP2 POP POP JUMP JUMPDEST PUSH0 PUSH1 0x20 DUP3 ADD SWAP1 POP SWAP2 SWAP1 POP JUMP JUMPDEST PUSH0 PUSH2 0x1FD9 DUP3 PUSH2 0x1F74 JUMP JUMPDEST PUSH2 0x1FE3 DUP2 DUP6 PUSH2 0x1F7E JUMP JUMPDEST SWAP4 POP PUSH2 0x1FEE DUP4 PUSH2 0x1F8E JUMP JUMPDEST DUP1 PUSH0 JUMPDEST DUP4 DUP2 LT ISZERO PUSH2 0x201E JUMPI DUP2 MLOAD PUSH2 0x2005 DUP9 DUP3 PUSH2 0x1FAC JUMP JUMPDEST SWAP8 POP PUSH2 0x2010 DUP4 PUSH2 0x1FC3 JUMP JUMPDEST SWAP3 POP POP PUSH1 0x1 DUP2 ADD SWAP1 POP PUSH2 0x1FF1 JUMP JUMPDEST POP DUP6 SWAP4 POP POP POP POP SWAP3 SWAP2 POP POP JUMP JUMPDEST PUSH0 PUSH1 0x20 DUP3 ADD SWAP1 POP DUP2 DUP2 SUB PUSH0 DUP4 ADD MSTORE PUSH2 0x2043 DUP2 DUP5 PUSH2 0x1FCF JUMP JUMPDEST SWAP1 POP SWAP3 SWAP2 POP POP JUMP JUMPDEST PUSH2 0x2054 DUP2 PUSH2 0x1E3D JUMP JUMPDEST DUP2 EQ PUSH2 0x205E JUMPI PUSH0 DUP1 REVERT JUMPDEST POP JUMP JUMPDEST PUSH0 DUP2 CALLDATALOAD SWAP1 POP PUSH2 0x206F DUP2 PUSH2 0x204B JUMP JUMPDEST SWAP3 SWAP2 POP POP JUMP JUMPDEST PUSH0 PUSH1 0x20 DUP3 DUP5 SUB SLT ISZERO PUSH2 0x208A JUMPI PUSH2 0x2089 PUSH2 0x1D91 JUMP JUMPDEST JUMPDEST PUSH0 PUSH2 0x2097 DUP5 DUP3 DUP6 ADD PUSH2 0x2061 JUMP JUMPDEST SWAP2 POP POP SWAP3 SWAP2 POP POP JUMP JUMPDEST PUSH0 PUSH1 0xC0 DUP3 ADD SWAP1 POP PUSH2 0x20B3 PUSH0 DUP4 ADD DUP10 PUSH2 0x1DF7 JUMP JUMPDEST PUSH2 0x20C0 PUSH1 0x20 DUP4 ADD DUP9 PUSH2 0x1E0F JUMP JUMPDEST PUSH2 0x20CD PUSH1 0x40 DUP4 ADD DUP8 PUSH2 0x1E0F JUMP JUMPDEST PUSH2 0x20DA PUSH1 0x60 DUP4 ADD DUP7 PUSH2 0x1E0F JUMP JUMPDEST PUSH2 0x20E7 PUSH1 0x80 DUP4 ADD DUP6 PUSH2 0x1E0F JUMP JUMPDEST PUSH2 0x20F4 PUSH1 0xA0 DUP4 ADD DUP5 PUSH2 0x1E68 JUMP JUMPDEST SWAP8 SWAP7 POP POP POP POP POP POP POP JUMP JUMPDEST PUSH0 DUP2 SWAP1 POP SWAP2 SWAP1 POP JUMP JUMPDEST PUSH0 PUSH2 0x2122 PUSH2 0x211D PUSH2 0x2118 DUP5 PUSH2 0x1E1E JUMP JUMPDEST PUSH2 0x20FF JUMP JUMPDEST PUSH2 0x1E1E JUMP JUMPDEST SWAP1 POP SWAP2 SWAP1 POP JUMP JUMPDEST PUSH0 PUSH2 0x2133 DUP3 PUSH2 0x2108 JUMP JUMPDEST SWAP1 POP SWAP2 SWAP1 POP JUMP JUMPDEST PUSH0 PUSH2 0x2144 DUP3 PUSH2 0x2129 JUMP JUMPDEST SWAP1 POP SWAP2 SWAP1 POP JUMP JUMPDEST PUSH2 0x2154 DUP2 PUSH2 0x213A JUMP JUMPDEST DUP3 MSTORE POP POP JUMP JUMPDEST PUSH0 PUSH1 0x20 DUP3 ADD SWAP1 POP PUSH2 0x216D PUSH0 DUP4 ADD DUP5 PUSH2 0x214B JUMP JUMPDEST SWAP3 SWAP2 POP POP JUMP JUMPDEST PUSH0 DUP1 PUSH1 0x40 DUP4 DUP6 SUB SLT ISZERO PUSH2 0x2189 JUMPI PUSH2 0x2188 PUSH2 0x1D91 JUMP JUMPDEST JUMPDEST PUSH0 PUSH2 0x2196 DUP6 DUP3 DUP7 ADD PUSH2 0x1DB8 JUMP JUMPDEST SWAP3 POP POP PUSH1 0x20 PUSH2 0x21A7 DUP6 DUP3 DUP7 ADD PUSH2 0x2061 JUMP JUMPDEST SWAP2 POP POP SWAP3 POP SWAP3 SWAP1 POP JUMP JUMPDEST PUSH0 PUSH1 0x20 DUP3 ADD SWAP1 POP PUSH2 0x21C4 PUSH0 DUP4 ADD DUP5 PUSH2 0x1E68 JUMP JUMPDEST SWAP3 SWAP2 POP POP JUMP JUMPDEST PUSH0 PUSH2 0x21D4 DUP3 PUSH2 0x2129 JUMP JUMPDEST SWAP1 POP SWAP2 SWAP1 POP JUMP JUMPDEST PUSH2 0x21E4 DUP2 PUSH2 0x21CA JUMP JUMPDEST DUP3 MSTORE POP POP JUMP JUMPDEST PUSH0 PUSH1 0x20 DUP3 ADD SWAP1 POP PUSH2 0x21FD PUSH0 DUP4 ADD DUP5 PUSH2 0x21DB JUMP JUMPDEST SWAP3 SWAP2 POP POP JUMP JUMPDEST PUSH0 DUP1 REVERT JUMPDEST PUSH0 DUP1 REVERT JUMPDEST PUSH0 PUSH1 0x1F NOT PUSH1 0x1F DUP4 ADD AND SWAP1 POP SWAP2 SWAP1 POP JUMP JUMPDEST PUSH32 0x4E487B7100000000000000000000000000000000000000000000000000000000 PUSH0 MSTORE PUSH1 0x41 PUSH1 0x4 MSTORE PUSH1 0x24 PUSH0 REVERT JUMPDEST PUSH2 0x2251 DUP3 PUSH2 0x220B JUMP JUMPDEST DUP2 ADD DUP2 DUP2 LT PUSH8 0xFFFFFFFFFFFFFFFF DUP3 GT OR ISZERO PUSH2 0x2270 JUMPI PUSH2 0x226F PUSH2 0x221B JUMP JUMPDEST JUMPDEST DUP1 PUSH1 0x40 MSTORE POP POP POP JUMP JUMPDEST PUSH0 PUSH2 0x2282 PUSH2 0x1D88 JUMP JUMPDEST SWAP1 POP PUSH2 0x228E DUP3 DUP3 PUSH2 0x2248 JUMP JUMPDEST SWAP2 SWAP1 POP JUMP JUMPDEST PUSH0 PUSH8 0xFFFFFFFFFFFFFFFF DUP3 GT ISZERO PUSH2 0x22AD JUMPI PUSH2 0x22AC PUSH2 0x221B JUMP JUMPDEST JUMPDEST PUSH2 0x22B6 DUP3 PUSH2 0x220B JUMP JUMPDEST SWAP1 POP PUSH1 0x20 DUP2 ADD SWAP1 POP SWAP2 SWAP1 POP JUMP JUMPDEST DUP3 DUP2 DUP4 CALLDATACOPY PUSH0 DUP4 DUP4 ADD MSTORE POP POP POP JUMP JUMPDEST PUSH0 PUSH2 0x22E3 PUSH2 0x22DE DUP5 PUSH2 0x2293 JUMP JUMPDEST PUSH2 0x2279 JUMP JUMPDEST SWAP1 POP DUP3 DUP2 MSTORE PUSH1 0x20 DUP2 ADD DUP5 DUP5 DUP5 ADD GT ISZERO PUSH2 0x22FF JUMPI PUSH2 0x22FE PUSH2 0x2207 JUMP JUMPDEST JUMPDEST PUSH2 0x230A DUP5 DUP3 DUP6 PUSH2 0x22C3 JUMP JUMPDEST POP SWAP4 SWAP3 POP POP POP JUMP JUMPDEST PUSH0 DUP3 PUSH1 0x1F DUP4 ADD SLT PUSH2 0x2326 JUMPI PUSH2 0x2325 PUSH2 0x2203 JUMP JUMPDEST JUMPDEST DUP2 CALLDATALOAD PUSH2 0x2336 DUP5 DUP3 PUSH1 0x20 DUP7 ADD PUSH2 0x22D1 JUMP JUMPDEST SWAP2 POP POP SWAP3 SWAP2 POP POP JUMP JUMPDEST PUSH0 DUP1 PUSH1 0x40 DUP4 DUP6 SUB SLT ISZERO PUSH2 0x2355 JUMPI PUSH2 0x2354 PUSH2 0x1D91 JUMP JUMPDEST JUMPDEST PUSH0 PUSH2 0x2362 DUP6 DUP3 DUP7 ADD PUSH2 0x1DB8 JUMP JUMPDEST SWAP3 POP POP PUSH1 0x20 DUP4 ADD CALLDATALOAD PUSH8 0xFFFFFFFFFFFFFFFF DUP2 GT ISZERO PUSH2 0x2383 JUMPI PUSH2 0x2382 PUSH2 0x1D95 JUMP JUMPDEST JUMPDEST PUSH2 0x238F DUP6 DUP3 DUP7 ADD PUSH2 0x2312 JUMP JUMPDEST SWAP2 POP POP SWAP3 POP SWAP3 SWAP1 POP JUMP JUMPDEST PUSH0 DUP1 REVERT JUMPDEST PUSH0 DUP1 REVERT JUMPDEST PUSH0 DUP1 DUP4 PUSH1 0x1F DUP5 ADD SLT PUSH2 0x23B6 JUMPI PUSH2 0x23B5 PUSH2 0x2203 JUMP JUMPDEST JUMPDEST DUP3 CALLDATALOAD SWAP1 POP PUSH8 0xFFFFFFFFFFFFFFFF DUP2 GT ISZERO PUSH2 0x23D3 JUMPI PUSH2 0x23D2 PUSH2 0x2399 JUMP JUMPDEST JUMPDEST PUSH1 0x20 DUP4 ADD SWAP2 POP DUP4 PUSH1 0x1 DUP3 MUL DUP4 ADD GT ISZERO PUSH2 0x23EF JUMPI PUSH2 0x23EE PUSH2 0x239D JUMP JUMPDEST JUMPDEST SWAP3 POP SWAP3 SWAP1 POP JUMP JUMPDEST PUSH0 DUP1 PUSH0 DUP1 PUSH0 DUP1 PUSH0 PUSH1 0xC0 DUP9 DUP11 SUB SLT ISZERO PUSH2 0x2411 JUMPI PUSH2 0x2410 PUSH2 0x1D91 JUMP JUMPDEST JUMPDEST PUSH0 PUSH2 0x241E DUP11 DUP3 DUP12 ADD PUSH2 0x1DB8 JUMP JUMPDEST SWAP8 POP POP PUSH1 0x20 PUSH2 0x242F DUP11 DUP3 DUP12 ADD PUSH2 0x1DB8 JUMP JUMPDEST SWAP7 POP POP PUSH1 0x40 PUSH2 0x2440 DUP11 DUP3 DUP12 ADD PUSH2 0x1F09 JUMP JUMPDEST SWAP6 POP POP PUSH1 0x60 PUSH2 0x2451 DUP11 DUP3 DUP12 ADD PUSH2 0x1F09 JUMP JUMPDEST SWAP5 POP POP PUSH1 0x80 PUSH2 0x2462 DUP11 DUP3 DUP12 ADD PUSH2 0x1DB8 JUMP JUMPDEST SWAP4 POP POP PUSH1 0xA0 DUP9 ADD CALLDATALOAD PUSH8 0xFFFFFFFFFFFFFFFF DUP2 GT ISZERO PUSH2 0x2483 JUMPI PUSH2 0x2482 PUSH2 0x1D95 JUMP JUMPDEST JUMPDEST PUSH2 0x248F DUP11 DUP3 DUP12 ADD PUSH2 0x23A1 JUMP JUMPDEST SWAP3 POP SWAP3 POP POP SWAP3 SWAP6 SWAP9 SWAP2 SWAP5 SWAP8 POP SWAP3 SWAP6 POP JUMP JUMPDEST PUSH0 PUSH2 0x160 DUP3 ADD SWAP1 POP PUSH2 0x24B4 PUSH0 DUP4 ADD DUP15 PUSH2 0x1DF7 JUMP JUMPDEST PUSH2 0x24C1 PUSH1 0x20 DUP4 ADD DUP14 PUSH2 0x1DF7 JUMP JUMPDEST PUSH2 0x24CE PUSH1 0x40 DUP4 ADD DUP13 PUSH2 0x1E0F JUMP JUMPDEST PUSH2 0x24DB PUSH1 0x60 DUP4 ADD DUP12 PUSH2 0x1E0F JUMP JUMPDEST PUSH2 0x24E8 PUSH1 0x80 DUP4 ADD DUP11 PUSH2 0x1E0F JUMP JUMPDEST PUSH2 0x24F5 PUSH1 0xA0 DUP4 ADD DUP10 PUSH2 0x1DF7 JUMP JUMPDEST PUSH2 0x2502 PUSH1 0xC0 DUP4 ADD DUP9 PUSH2 0x1E4E JUMP JUMPDEST PUSH2 0x250F PUSH1 0xE0 DUP4 ADD DUP8 PUSH2 0x1E68 JUMP JUMPDEST PUSH2 0x251D PUSH2 0x100 DUP4 ADD DUP7 PUSH2 0x1E68 JUMP JUMPDEST PUSH2 0x252B PUSH2 0x120 DUP4 ADD DUP6 PUSH2 0x1DF7 JUMP JUMPDEST PUSH2 0x2539 PUSH2 0x140 DUP4 ADD DUP5 PUSH2 0x1E0F JUMP JUMPDEST SWAP13 SWAP12 POP POP POP POP POP POP POP POP POP POP POP POP JUMP JUMPDEST PUSH0 PUSH1 0x20 DUP3 ADD SWAP1 POP PUSH2 0x255C PUSH0 DUP4 ADD DUP5 PUSH2 0x1E0F JUMP JUMPDEST SWAP3 SWAP2 POP POP JUMP JUMPDEST PUSH0 PUSH1 0x20 DUP3 ADD SWAP1 POP PUSH2 0x2575 PUSH0 DUP4 ADD DUP5 PUSH2 0x1E4E JUMP JUMPDEST SWAP3 SWAP2 POP POP JUMP JUMPDEST PUSH0 DUP1 PUSH0 DUP1 PUSH0 PUSH1 0x80 DUP7 DUP9 SUB SLT ISZERO PUSH2 0x2594 JUMPI PUSH2 0x2593 PUSH2 0x1D91 JUMP JUMPDEST JUMPDEST PUSH0 PUSH2 0x25A1 DUP9 DUP3 DUP10 ADD PUSH2 0x1DB8 JUMP JUMPDEST SWAP6 POP POP PUSH1 0x20 PUSH2 0x25B2 DUP9 DUP3 DUP10 ADD PUSH2 0x1F09 JUMP JUMPDEST SWAP5 POP POP PUSH1 0x40 PUSH2 0x25C3 DUP9 DUP3 DUP10 ADD PUSH2 0x1DB8 JUMP JUMPDEST SWAP4 POP POP PUSH1 0x60 DUP7 ADD CALLDATALOAD PUSH8 0xFFFFFFFFFFFFFFFF DUP2 GT ISZERO PUSH2 0x25E4 JUMPI PUSH2 0x25E3 PUSH2 0x1D95 JUMP JUMPDEST JUMPDEST PUSH2 0x25F0 DUP9 DUP3 DUP10 ADD PUSH2 0x23A1 JUMP JUMPDEST SWAP3 POP SWAP3 POP POP SWAP3 SWAP6 POP SWAP3 SWAP6 SWAP1 SWAP4 POP JUMP JUMPDEST PUSH0 DUP2 MLOAD SWAP1 POP SWAP2 SWAP1 POP JUMP JUMPDEST PUSH0 DUP3 DUP3 MSTORE PUSH1 0x20 DUP3 ADD SWAP1 POP SWAP3 SWAP2 POP POP JUMP JUMPDEST DUP3 DUP2 DUP4 MCOPY PUSH0 DUP4 DUP4 ADD MSTORE POP POP POP JUMP JUMPDEST PUSH0 PUSH2 0x2631 DUP3 PUSH2 0x25FF JUMP JUMPDEST PUSH2 0x263B DUP2 DUP6 PUSH2 0x2609 JUMP JUMPDEST SWAP4 POP PUSH2 0x264B DUP2 DUP6 PUSH1 0x20 DUP7 ADD PUSH2 0x2619 JUMP JUMPDEST PUSH2 0x2654 DUP2 PUSH2 0x220B JUMP JUMPDEST DUP5 ADD SWAP2 POP POP SWAP3 SWAP2 POP POP JUMP JUMPDEST PUSH0 PUSH1 0x20 DUP3 ADD SWAP1 POP DUP2 DUP2 SUB PUSH0 DUP4 ADD MSTORE PUSH2 0x2677 DUP2 DUP5 PUSH2 0x2627 JUMP JUMPDEST SWAP1 POP SWAP3 SWAP2 POP POP JUMP JUMPDEST PUSH0 DUP1 PUSH1 0x20 DUP4 DUP6 SUB SLT ISZERO PUSH2 0x2695 JUMPI PUSH2 0x2694 PUSH2 0x1D91 JUMP JUMPDEST JUMPDEST PUSH0 DUP4 ADD CALLDATALOAD PUSH8 0xFFFFFFFFFFFFFFFF DUP2 GT ISZERO PUSH2 0x26B2 JUMPI PUSH2 0x26B1 PUSH2 0x1D95 JUMP JUMPDEST JUMPDEST PUSH2 0x26BE DUP6 DUP3 DUP7 ADD PUSH2 0x23A1 JUMP JUMPDEST SWAP3 POP SWAP3 POP POP SWAP3 POP SWAP3 SWAP1 POP JUMP JUMPDEST PUSH0 DUP3 DUP3 MSTORE PUSH1 0x20 DUP3 ADD SWAP1 POP SWAP3 SWAP2 POP POP JUMP JUMPDEST PUSH32 0x546F7272656E74206E6F7420666F756E64000000000000000000000000000000 PUSH0 DUP3 ADD MSTORE POP JUMP JUMPDEST PUSH0 PUSH2 0x270E PUSH1 0x11 DUP4 PUSH2 0x26CA JUMP JUMPDEST SWAP2 POP PUSH2 0x2719 DUP3 PUSH2 0x26DA JUMP JUMPDEST PUSH1 0x20 DUP3 ADD SWAP1 POP SWAP2 SWAP1 POP JUMP JUMPDEST PUSH0 PUSH1 0x20 DUP3 ADD SWAP1 POP DUP2 DUP2 SUB PUSH0 DUP4 ADD MSTORE PUSH2 0x273B DUP2 PUSH2 0x2702 JUMP JUMPDEST SWAP1 POP SWAP2 SWAP1 POP JUMP JUMPDEST PUSH32 0x416C726561647920696E20737761726D00000000000000000000000000000000 PUSH0 DUP3 ADD MSTORE POP JUMP JUMPDEST PUSH0 PUSH2 0x2776 PUSH1 0x10 DUP4 PUSH2 0x26CA JUMP JUMPDEST SWAP2 POP PUSH2 0x2781 DUP3 PUSH2 0x2742 JUMP JUMPDEST PUSH1 0x20 DUP3 ADD SWAP1 POP SWAP2 SWAP1 POP JUMP JUMPDEST PUSH0 PUSH1 0x20 DUP3 ADD SWAP1 POP DUP2 DUP2 SUB PUSH0 DUP4 ADD MSTORE PUSH2 0x27A3 DUP2 PUSH2 0x276A JUMP JUMPDEST SWAP1 POP SWAP2 SWAP1 POP JUMP JUMPDEST PUSH32 0x4E487B7100000000000000000000000000000000000000000000000000000000 PUSH0 MSTORE PUSH1 0x11 PUSH1 0x4 MSTORE PUSH1 0x24 PUSH0 REVERT JUMPDEST PUSH0 PUSH2 0x27E1 DUP3 PUSH2 0x1E06 JUMP JUMPDEST SWAP2 POP PUSH32 0xFFFFFFFFFFFFFFFFFFFFFFFFFFFFFFFFFFFFFFFFFFFFFFFFFFFFFFFFFFFFFFFF DUP3 SUB PUSH2 0x2813 JUMPI PUSH2 0x2812 PUSH2 0x27AA JUMP JUMPDEST JUMPDEST PUSH1 0x1 DUP3 ADD SWAP1 POP SWAP2 SWAP1 POP JUMP JUMPDEST PUSH32 0x546F7272656E7420657869737473000000000000000000000000000000000000 PUSH0 DUP3 ADD MSTORE POP JUMP JUMPDEST PUSH0 PUSH2 0x2852 PUSH1 0xE DUP4 PUSH2 0x26CA JUMP JUMPDEST SWAP2 POP PUSH2 0x285D DUP3 PUSH2 0x281E JUMP JUMPDEST PUSH1 0x20 DUP3 ADD SWAP1 POP SWAP2 SWAP1 POP JUMP JUMPDEST PUSH0 PUSH1 0x20 DUP3 ADD SWAP1 POP DUP2 DUP2 SUB PUSH0 DUP4 ADD MSTORE PUSH2 0x287F DUP2 PUSH2 0x2846 JUMP JUMPDEST SWAP1 POP SWAP2 SWAP1 POP JUMP JUMPDEST PUSH0 DUP2 MLOAD SWAP1 POP PUSH2 0x2894 DUP2 PUSH2 0x1DA2 JUMP JUMPDEST SWAP3 SWAP2 POP POP JUMP JUMPDEST PUSH0 DUP2 MLOAD SWAP1 POP PUSH2 0x28A8 DUP2 PUSH2 0x1EF3 JUMP JUMPDEST SWAP3 SWAP2 POP POP JUMP JUMPDEST PUSH0 DUP1 PUSH0 DUP1 PUSH1 0x80 DUP6 DUP8 SUB SLT ISZERO PUSH2 0x28C6 JUMPI PUSH2 0x28C5 PUSH2 0x1D91 JUMP JUMPDEST JUMPDEST PUSH0 PUSH2 0x28D3 DUP8 DUP3 DUP9 ADD PUSH2 0x2886 JUMP JUMPDEST SWAP5 POP POP PUSH1 0x20 PUSH2 0x28E4 DUP8 DUP3 DUP9 ADD PUSH2 0x289A JUMP JUMPDEST SWAP4 POP POP PUSH1 0x40 PUSH2 0x28F5 DUP8 DUP3 DUP9 ADD PUSH2 0x289A JUMP JUMPDEST SWAP3 POP POP PUSH1 0x60 PUSH2 0x2906 DUP8 DUP3 DUP9 ADD PUSH2 0x2886 JUMP JUMPDEST SWAP2 POP POP SWAP3 SWAP6 SWAP2 SWAP5 POP SWAP3 POP JUMP JUMPDEST PUSH32 0x50696563652073697A6520746F6F206C61726765000000000000000000000000 PUSH0 DUP3 ADD MSTORE POP JUMP JUMPDEST PUSH0 PUSH2 0x2946 PUSH1 0x14 DUP4 PUSH2 0x26CA JUMP JUMPDEST SWAP2 POP PUSH2 0x2951 DUP3 PUSH2 0x2912 JUMP JUMPDEST PUSH1 0x20 DUP3 ADD SWAP1 POP SWAP2 SWAP1 POP JUMP JUMPDEST PUSH0 PUSH1 0x20 DUP3 ADD SWAP1 POP DUP2 DUP2 SUB PUSH0 DUP4 ADD MSTORE PUSH2 0x2973 DUP2 PUSH2 0x293A JUMP JUMPDEST SWAP1 POP SWAP2 SWAP1 POP JUMP JUMPDEST PUSH32 0x496E76616C69642073697A657300000000000000000000000000000000000000 PUSH0 DUP3 ADD MSTORE POP JUMP JUMPDEST PUSH0 PUSH2 0x29AE PUSH1 0xD DUP4 PUSH2 0x26CA JUMP JUMPDEST SWAP2 POP PUSH2 0x29B9 DUP3 PUSH2 0x297A JUMP JUMPDEST PUSH1 0x20 DUP3 ADD SWAP1 POP SWAP2 SWAP1 POP JUMP JUMPDEST PUSH0 PUSH1 0x20 DUP3 ADD SWAP1 POP DUP2 DUP2 SUB PUSH0 DUP4 ADD MSTORE PUSH2 0x29DB DUP2 PUSH2 0x29A2 JUMP JUMPDEST SWAP1 POP SWAP2 SWAP1 POP JUMP JUMPDEST PUSH0 PUSH2 0x29ED DUP4 DUP6 PUSH2 0x2609 JUMP JUMPDEST SWAP4 POP PUSH2 0x29FA DUP4 DUP6 DUP5 PUSH2 0x22C3 JUMP JUMPDEST PUSH2 0x2A03 DUP4 PUSH2 0x220B JUMP JUMPDEST DUP5 ADD SWAP1 POP SWAP4 SWAP3 POP POP POP JUMP JUMPDEST PUSH0 PUSH1 0x60 DUP3 ADD SWAP1 POP PUSH2 0x2A21 PUSH0 DUP4 ADD DUP8 PUSH2 0x1DF7 JUMP JUMPDEST DUP2 DUP2 SUB PUSH1 0x20 DUP4 ADD MSTORE PUSH2 0x2A34 DUP2 DUP6 DUP8 PUSH2 0x29E2 JUMP JUMPDEST SWAP1 POP PUSH2 0x2A43 PUSH1 0x40 DUP4 ADD DUP5 PUSH2 0x1E4E JUMP JUMPDEST SWAP6 SWAP5 POP POP POP POP POP JUMP JUMPDEST PUSH2 0x2A55 DUP2 PUSH2 0x1E5D JUMP JUMPDEST DUP2 EQ PUSH2 0x2A5F JUMPI PUSH0 DUP1 REVERT JUMPDEST POP JUMP JUMPDEST PUSH0 DUP2 MLOAD SWAP1 POP PUSH2 0x2A70 DUP2 PUSH2 0x2A4C JUMP JUMPDEST SWAP3 SWAP2 POP POP JUMP JUMPDEST PUSH0 PUSH1 0x20 DUP3 DUP5 SUB SLT ISZERO PUSH2 0x2A8B JUMPI PUSH2 0x2A8A PUSH2 0x1D91 JUMP JUMPDEST JUMPDEST PUSH0 PUSH2 0x2A98 DUP5 DUP3 DUP6 ADD PUSH2 0x2A62 JUMP JUMPDEST SWAP2 POP POP SWAP3 SWAP2 POP POP JUMP JUMPDEST PUSH32 0x496E76616C69642066696C652070726F6F660000000000000000000000000000 PUSH0 DUP3 ADD MSTORE POP JUMP JUMPDEST PUSH0 PUSH2 0x2AD5 PUSH1 0x12 DUP4 PUSH2 0x26CA JUMP JUMPDEST SWAP2 POP PUSH2 0x2AE0 DUP3 PUSH2 0x2AA1 JUMP JUMPDEST PUSH1 0x20 DUP3 ADD SWAP1 POP SWAP2 SWAP1 POP JUMP JUMPDEST PUSH0 PUSH1 0x20 DUP3 ADD SWAP1 POP DUP2 DUP2 SUB PUSH0 DUP4 ADD MSTORE PUSH2 0x2B02 DUP2 PUSH2 0x2AC9 JUMP JUMPDEST SWAP1 POP SWAP2 SWAP1 POP JUMP JUMPDEST PUSH32 0x496E76616C696420706965636520696E64657800000000000000000000000000 PUSH0 DUP3 ADD MSTORE POP JUMP JUMPDEST PUSH0 PUSH2 0x2B3D PUSH1 0x13 DUP4 PUSH2 0x26CA JUMP JUMPDEST SWAP2 POP PUSH2 0x2B48 DUP3 PUSH2 0x2B09 JUMP JUMPDEST PUSH1 0x20 DUP3 ADD SWAP1 POP SWAP2 SWAP1 POP JUMP JUMPDEST PUSH0 PUSH1 0x20 DUP3 ADD SWAP1 POP DUP2 DUP2 SUB PUSH0 DUP4 ADD MSTORE PUSH2 0x2B6A DUP2 PUSH2 0x2B31 JUMP JUMPDEST SWAP1 POP SWAP2 SWAP1 POP JUMP JUMPDEST PUSH0 PUSH1 0x60 DUP3 ADD SWAP1 POP PUSH2 0x2B84 PUSH0 DUP4 ADD DUP8 PUSH2 0x1DF7 JUMP JUMPDEST PUSH2 0x2B91 PUSH1 0x20 DUP4 ADD DUP7 PUSH2 0x1DF7 JUMP JUMPDEST DUP2 DUP2 SUB PUSH1 0x40 DUP4 ADD MSTORE PUSH2 0x2BA4 DUP2 DUP5 DUP7 PUSH2 0x29E2 JUMP JUMPDEST SWAP1 POP SWAP6 SWAP5 POP POP POP POP POP JUMP JUMPDEST PUSH32 0x496E76616C69642070696563652070726F6F6600000000000000000000000000 PUSH0 DUP3 ADD MSTORE POP JUMP JUMPDEST PUSH0 PUSH2 0x2BE3 PUSH1 0x13 DUP4 PUSH2 0x26CA JUMP JUMPDEST SWAP2 POP PUSH2 0x2BEE DUP3 PUSH2 0x2BAF JUMP JUMPDEST PUSH1 0x20 DUP3 ADD SWAP1 POP SWAP2 SWAP1 POP JUMP JUMPDEST PUSH0 PUSH1 0x20 DUP3 ADD SWAP1 POP DUP2 DUP2 SUB PUSH0 DUP4 ADD MSTORE PUSH2 0x2C10 DUP2 PUSH2 0x2BD7 JUMP JUMPDEST SWAP1 POP SWAP2 SWAP1 POP JUMP JUMPDEST PUSH0 PUSH1 0x40 DUP3 ADD SWAP1 POP PUSH2 0x2C2A PUSH0 DUP4 ADD DUP6 PUSH2 0x1DF7 JUMP JUMPDEST PUSH2 0x2C37 PUSH1 0x20 DUP4 ADD DUP5 PUSH2 0x1E0F JUMP JUMPDEST SWAP4 SWAP3 POP POP POP JUMP JUMPDEST PUSH32 0x4E6F7420746F7272656E74206F776E6572000000000000000000000000000000 PUSH0 DUP3 ADD MSTORE POP JUMP JUMPDEST PUSH0 PUSH2 0x2C72 PUSH1 0x11 DUP4 PUSH2 0x26CA JUMP JUMPDEST SWAP2 POP PUSH2 0x2C7D DUP3 PUSH2 0x2C3E JUMP JUMPDEST PUSH1 0x20 DUP3 ADD SWAP1 POP SWAP2 SWAP1 POP JUMP JUMPDEST PUSH0 PUSH1 0x20 DUP3 ADD SWAP1 POP DUP2 DUP2 SUB PUSH0 DUP4 ADD MSTORE PUSH2 0x2C9F DUP2 PUSH2 0x2C66 JUMP JUMPDEST SWAP1 POP SWAP2 SWAP1 POP JUMP JUMPDEST PUSH32 0x4E6F7420696E20737761726D0000000000000000000000000000000000000000 PUSH0 DUP3 ADD MSTORE POP JUMP JUMPDEST PUSH0 PUSH2 0x2CDA PUSH1 0xC DUP4 PUSH2 0x26CA JUMP JUMPDEST SWAP2 POP PUSH2 0x2CE5 DUP3 PUSH2 0x2CA6 JUMP JUMPDEST PUSH1 0x20 DUP3 ADD SWAP1 POP SWAP2 SWAP1 POP JUMP JUMPDEST PUSH0 PUSH1 0x20 DUP3 ADD SWAP1 POP DUP2 DUP2 SUB PUSH0 DUP4 ADD MSTORE PUSH2 0x2D07 DUP2 PUSH2 0x2CCE JUMP JUMPDEST SWAP1 POP SWAP2 SWAP1 POP JUMP JUMPDEST PUSH0 PUSH2 0x2D18 DUP3 PUSH2 0x1E06 JUMP JUMPDEST SWAP2 POP PUSH0 DUP3 SUB PUSH2 0x2D2A JUMPI PUSH2 0x2D29 PUSH2 0x27AA JUMP JUMPDEST JUMPDEST PUSH1 0x1 DUP3 SUB SWAP1 POP SWAP2 SWAP1 POP JUMP JUMPDEST PUSH0 PUSH1 0xE0 DUP3 ADD SWAP1 POP PUSH2 0x2D48 PUSH0 DUP4 ADD DUP11 PUSH2 0x1DF7 JUMP JUMPDEST PUSH2 0x2D55 PUSH1 0x20 DUP4 ADD DUP10 PUSH2 0x1E0F JUMP JUMPDEST PUSH2 0x2D62 PUSH1 0x40 DUP4 ADD DUP9 PUSH2 0x1E0F JUMP JUMPDEST PUSH2 0x2D6F PUSH1 0x60 DUP4 ADD DUP8 PUSH2 0x1DF7 JUMP JUMPDEST PUSH2 0x2D7C PUSH1 0x80 DUP4 ADD DUP7 PUSH2 0x1E4E JUMP JUMPDEST PUSH2 0x2D89 PUSH1 0xA0 DUP4 ADD DUP6 PUSH2 0x1E68 JUMP JUMPDEST PUSH2 0x2D96 PUSH1 0xC0 DUP4 ADD DUP5 PUSH2 0x1E68 JUMP JUMPDEST SWAP9 SWAP8 POP POP POP POP POP POP POP POP JUMP JUMPDEST PUSH32 0x5065657220657869737473000000000000000000000000000000000000000000 PUSH0 DUP3 ADD MSTORE POP JUMP JUMPDEST PUSH0 PUSH2 0x2DD6 PUSH1 0xB DUP4 PUSH2 0x26CA JUMP JUMPDEST SWAP2 POP PUSH2 0x2DE1 DUP3 PUSH2 0x2DA2 JUMP JUMPDEST PUSH1 0x20 DUP3 ADD SWAP1 POP SWAP2 SWAP1 POP JUMP JUMPDEST PUSH0 PUSH1 0x20 DUP3 ADD SWAP1 POP DUP2 DUP2 SUB PUSH0 DUP4 ADD MSTORE PUSH2 0x2E03 DUP2 PUSH2 0x2DCA JUMP JUMPDEST SWAP1 POP SWAP2 SWAP1 POP JUMP JUMPDEST PUSH0 DUP2 PUSH1 0x60 SHL SWAP1 POP SWAP2 SWAP1 POP JUMP JUMPDEST PUSH0 PUSH2 0x2E20 DUP3 PUSH2 0x2E0A JUMP JUMPDEST SWAP1 POP SWAP2 SWAP1 POP JUMP JUMPDEST PUSH0 PUSH2 0x2E31 DUP3 PUSH2 0x2E16 JUMP JUMPDEST SWAP1 POP SWAP2 SWAP1 POP JUMP JUMPDEST PUSH2 0x2E49 PUSH2 0x2E44 DUP3 PUSH2 0x1E3D JUMP JUMPDEST PUSH2 0x2E27 JUMP JUMPDEST DUP3 MSTORE POP POP JUMP JUMPDEST PUSH0 DUP2 SWAP1 POP SWAP2 SWAP1 POP JUMP JUMPDEST PUSH2 0x2E69 PUSH2 0x2E64 DUP3 PUSH2 0x1E06 JUMP JUMPDEST PUSH2 0x2E4F JUMP JUMPDEST DUP3 MSTORE POP POP JUMP JUMPDEST PUSH0 PUSH2 0x2E7A DUP3 DUP6 PUSH2 0x2E38 JUMP JUMPDEST PUSH1 0x14 DUP3 ADD SWAP2 POP PUSH2 0x2E8A DUP3 DUP5 PUSH2 0x2E58 JUMP JUMPDEST PUSH1 0x20 DUP3 ADD SWAP2 POP DUP2 SWAP1 POP SWAP4 SWAP3 POP POP POP JUMP JUMPDEST PUSH0 PUSH2 0x2EA5 DUP3 DUP5 PUSH2 0x2E38 JUMP JUMPDEST PUSH1 0x14 DUP3 ADD SWAP2 POP DUP2 SWAP1 POP SWAP3 SWAP2 POP POP JUMP JUMPDEST PUSH0 PUSH2 0x2EBE DUP3 PUSH2 0x1E06 JUMP JUMPDEST SWAP2 POP PUSH2 0x2EC9 DUP4 PUSH2 0x1E06 JUMP JUMPDEST SWAP3 POP DUP3 DUP3 ADD SWAP1 POP DUP1 DUP3 GT ISZERO PUSH2 0x2EE1 JUMPI PUSH2 0x2EE0 PUSH2 0x27AA JUMP JUMPDEST JUMPDEST SWAP3 SWAP2 POP POP JUMP JUMPDEST PUSH0 PUSH2 0x2EF1 DUP3 PUSH2 0x1E06 JUMP JUMPDEST SWAP2 POP PUSH2 0x2EFC DUP4 PUSH2 0x1E06 JUMP JUMPDEST SWAP3 POP DUP3 DUP3 SUB SWAP1 POP DUP2 DUP2 GT ISZERO PUSH2 0x2F14 JUMPI PUSH2 0x2F13 PUSH2 0x27AA JUMP JUMPDEST JUMPDEST SWAP3 SWAP2 POP POP JUMP JUMPDEST PUSH32 0x4E487B7100000000000000000000000000000000000000000000000000000000 PUSH0 MSTORE PUSH1 0x12 PUSH1 0x4 MSTORE PUSH1 0x24 PUSH0 REVERT JUMPDEST PUSH0 PUSH2 0x2F51 DUP3 PUSH2 0x1E06 JUMP JUMPDEST SWAP2 POP PUSH2 0x2F5C DUP4 PUSH2 0x1E06 JUMP JUMPDEST SWAP3 POP DUP3 PUSH2 0x2F6C JUMPI PUSH2 0x2F6B PUSH2 0x2F1A JUMP JUMPDEST JUMPDEST DUP3 DUP3 DIV SWAP1 POP SWAP3 SWAP2 POP POP JUMP JUMPDEST PUSH0 PUSH1 0x40 DUP3 ADD SWAP1 POP PUSH2 0x2F8A PUSH0 DUP4 ADD DUP6 PUSH2 0x1E0F JUMP JUMPDEST PUSH2 0x2F97 PUSH1 0x20 DUP4 ADD DUP5 PUSH2 0x1E0F JUMP JUMPDEST SWAP4 SWAP3 POP POP POP JUMP JUMPDEST PUSH0 DUP2 SWAP1 POP SWAP3 SWAP2 POP POP JUMP JUMPDEST PUSH0 PUSH2 0x2FB3 DUP4 DUP6 PUSH2 0x2F9E JUMP JUMPDEST SWAP4 POP PUSH2 0x2FC0 DUP4 DUP6 DUP5 PUSH2 0x22C3 JUMP JUMPDEST DUP3 DUP5 ADD SWAP1 POP SWAP4 SWAP3 POP POP POP JUMP JUMPDEST PUSH0 PUSH2 0x2FD7 DUP3 DUP7 PUSH2 0x2E38 JUMP JUMPDEST PUSH1 0x14 DUP3 ADD SWAP2 POP PUSH2 0x2FE8 DUP3 DUP5 DUP7 PUSH2 0x2FA8 JUMP JUMPDEST SWAP2 POP DUP2 SWAP1 POP SWAP5 SWAP4 POP POP POP POP JUMP JUMPDEST PUSH32 0x50656572206E6F74206163746976650000000000000000000000000000000000 PUSH0 DUP3 ADD MSTORE POP JUMP JUMPDEST PUSH0 PUSH2 0x3029 PUSH1 0xF DUP4 PUSH2 0x26CA JUMP JUMPDEST SWAP2 POP PUSH2 0x3034 DUP3 PUSH2 0x2FF5 JUMP JUMPDEST PUSH1 0x20 DUP3 ADD SWAP1 POP SWAP2 SWAP1 POP JUMP JUMPDEST PUSH0 PUSH1 0x20 DUP3 ADD SWAP1 POP DUP2 DUP2 SUB PUSH0 DUP4 ADD MSTORE PUSH2 0x3056 DUP2 PUSH2 0x301D JUMP JUMPDEST SWAP1 POP SWAP2 SWAP1 POP JUMP INVALID LOG2 PUSH5 0x6970667358 0x22 SLT KECCAK256 0xB1 SWAP2 SWAP10 PUSH28 0x5D2F190E85444C56CB40568F41AFC5D9387A92B1C42EB5D5D682F569 PUSH5 0x736F6C6343 STOP ADDMOD BYTE STOP CALLER "
				},
				"gasEstimates": {
					"creation": {
						"codeDepositCost": "2487000",
						"executionCost": "infinite",
						"totalCost": "infinite"
					},
					"external": {
						"MAX_PIECE_SIZE()": "393",
						"MIN_REPUTATION_SCORE()": "414",
						"REPUTATION_DECREASE()": "370",
						"REPUTATION_INCREASE()": "369",
						"addTorrent(bytes32,bytes)": "infinite",
						"fileRegistry()": "infinite",
						"getPeerStats(address)": "infinite",
						"getPieceHash(bytes32,uint256)": "infinite",
						"getSwarmPeers(bytes32)": "987",
						"getTorrent(bytes32)": "infinite",
						"getTorrentMetadata(bytes32)": "infinite",
						"isPeerInSwarm(bytes32,address)": "3213",
						"joinSwarm(bytes32)": "53749",
						"leaveSwarm(bytes32)": "53765",
						"owner()": "2605",
						"pause()": "infinite",
						"paused()": "2541",
						"peerAnonymousIds(bytes32)": "infinite",
						"peers(address)": "infinite",
						"registerPeer(bytes)": "infinite",
						"registerTorrent(bytes32,bytes32,uint256,uint256,bytes32,bytes)": "infinite",
						"removeTorrent(bytes32)": "117926",
						"renounceOwnership()": "infinite",
						"torrentPeerCount(bytes32)": "2821",
						"torrents(bytes32)": "infinite",
						"transferOwnership(address)": "infinite",
						"unpause()": "infinite",
						"verifier()": "infinite",
						"verifyPiece(bytes32,uint256,bytes32,bytes)": "infinite"
					},
					"internal": {
						"_generateAnonymousId(address,bytes calldata)": "infinite",
						"_registerTorrent(bytes32,bytes32,uint256,uint256,bytes32)": "infinite",
						"_updatePeerStats(address,bool,uint256)": "infinite"
					}
				},
				"methodIdentifiers": {
					"MAX_PIECE_SIZE()": "8a405abc",
					"MIN_REPUTATION_SCORE()": "c77943c0",
					"REPUTATION_DECREASE()": "aac38d8c",
					"REPUTATION_INCREASE()": "e6fc2d8a",
					"addTorrent(bytes32,bytes)": "85a80265",
					"fileRegistry()": "5276b263",
					"getPeerStats(address)": "eeaa7efd",
					"getPieceHash(bytes32,uint256)": "187774bd",
					"getSwarmPeers(bytes32)": "1a26edb5",
					"getTorrent(bytes32)": "1758bdcb",
					"getTorrentMetadata(bytes32)": "c7aa2f1e",
					"isPeerInSwarm(bytes32,address)": "3d2babf2",
					"joinSwarm(bytes32)": "675fd3e6",
					"leaveSwarm(bytes32)": "9a5e71c2",
					"owner()": "8da5cb5b",
					"pause()": "8456cb59",
					"paused()": "5c975abb",
					"peerAnonymousIds(bytes32)": "badf2d1d",
					"peers(address)": "1c8590ba",
					"registerPeer(bytes)": "f85f65af",
					"registerTorrent(bytes32,bytes32,uint256,uint256,bytes32,bytes)": "86d221f3",
					"removeTorrent(bytes32)": "97ab3501",
					"renounceOwnership()": "715018a6",
					"torrentPeerCount(bytes32)": "94e34fc8",
					"torrents(bytes32)": "885a8a94",
					"transferOwnership(address)": "f2fde38b",
					"unpause()": "3f4ba83a",
					"verifier()": "2b7ac3f3",
					"verifyPiece(bytes32,uint256,bytes32,bytes)": "917e076a"
				}
			},
			"storageLayout": {
				"storage": [
					{
						"astId": 8,
						"contract": "p2p/BitTorrentRegistry.sol:BitTorrentRegistry",
						"label": "_owner",
						"offset": 0,
						"slot": "0",
						"type": "t_address"
					},
					{
						"astId": 305,
						"contract": "p2p/BitTorrentRegistry.sol:BitTorrentRegistry",
						"label": "_status",
						"offset": 0,
						"slot": "1",
						"type": "t_uint256"
					},
					{
						"astId": 186,
						"contract": "p2p/BitTorrentRegistry.sol:BitTorrentRegistry",
						"label": "_paused",
						"offset": 0,
						"slot": "2",
						"type": "t_bool"
					},
					{
						"astId": 751,
						"contract": "p2p/BitTorrentRegistry.sol:BitTorrentRegistry",
						"label": "torrents",
						"offset": 0,
						"slot": "3",
						"type": "t_mapping(t_bytes32,t_struct(Torrent)729_storage)"
					},
					{
						"astId": 756,
						"contract": "p2p/BitTorrentRegistry.sol:BitTorrentRegistry",
						"label": "peers",
						"offset": 0,
						"slot": "4",
						"type": "t_mapping(t_address,t_struct(Peer)746_storage)"
					},
					{
						"astId": 760,
						"contract": "p2p/BitTorrentRegistry.sol:BitTorrentRegistry",
						"label": "peerAnonymousIds",
						"offset": 0,
						"slot": "5",
						"type": "t_mapping(t_bytes32,t_bytes32)"
					},
					{
						"astId": 764,
						"contract": "p2p/BitTorrentRegistry.sol:BitTorrentRegistry",
						"label": "torrentPeerCount",
						"offset": 0,
						"slot": "6",
						"type": "t_mapping(t_bytes32,t_uint256)"
					},
					{
						"astId": 767,
						"contract": "p2p/BitTorrentRegistry.sol:BitTorrentRegistry",
						"label": "fileRegistry",
						"offset": 0,
						"slot": "7",
						"type": "t_contract(IFileRegistry)554"
					},
					{
						"astId": 770,
						"contract": "p2p/BitTorrentRegistry.sol:BitTorrentRegistry",
						"label": "verifier",
						"offset": 0,
						"slot": "8",
						"type": "t_contract(IVerifier)681"
					}
				],
				"types": {
					"t_address": {
						"encoding": "inplace",
						"label": "address",
						"numberOfBytes": "20"
					},
					"t_bool": {
						"encoding": "inplace",
						"label": "bool",
						"numberOfBytes": "1"
					},
					"t_bytes32": {
						"encoding": "inplace",
						"label": "bytes32",
						"numberOfBytes": "32"
					},
					"t_contract(IFileRegistry)554": {
						"encoding": "inplace",
						"label": "contract IFileRegistry",
						"numberOfBytes": "20"
					},
					"t_contract(IVerifier)681": {
						"encoding": "inplace",
						"label": "contract IVerifier",
						"numberOfBytes": "20"
					},
					"t_mapping(t_address,t_bool)": {
						"encoding": "mapping",
						"key": "t_address",
						"label": "mapping(address => bool)",
						"numberOfBytes": "32",
						"value": "t_bool"
					},
					"t_mapping(t_address,t_struct(Peer)746_storage)": {
						"encoding": "mapping",
						"key": "t_address",
						"label": "mapping(address => struct BitTorrentRegistry.Peer)",
						"numberOfBytes": "32",
						"value": "t_struct(Peer)746_storage"
					},
					"t_mapping(t_bytes32,t_bool)": {
						"encoding": "mapping",
						"key": "t_bytes32",
						"label": "mapping(bytes32 => bool)",
						"numberOfBytes": "32",
						"value": "t_bool"
					},
					"t_mapping(t_bytes32,t_bytes32)": {
						"encoding": "mapping",
						"key": "t_bytes32",
						"label": "mapping(bytes32 => bytes32)",
						"numberOfBytes": "32",
						"value": "t_bytes32"
					},
					"t_mapping(t_bytes32,t_struct(Torrent)729_storage)": {
						"encoding": "mapping",
						"key": "t_bytes32",
						"label": "mapping(bytes32 => struct BitTorrentRegistry.Torrent)",
						"numberOfBytes": "32",
						"value": "t_struct(Torrent)729_storage"
					},
					"t_mapping(t_bytes32,t_uint256)": {
						"encoding": "mapping",
						"key": "t_bytes32",
						"label": "mapping(bytes32 => uint256)",
						"numberOfBytes": "32",
						"value": "t_uint256"
					},
					"t_mapping(t_uint256,t_bytes32)": {
						"encoding": "mapping",
						"key": "t_uint256",
						"label": "mapping(uint256 => bytes32)",
						"numberOfBytes": "32",
						"value": "t_bytes32"
					},
					"t_struct(Peer)746_storage": {
						"encoding": "inplace",
						"label": "struct BitTorrentRegistry.Peer",
						"members": [
							{
								"astId": 731,
								"contract": "p2p/BitTorrentRegistry.sol:BitTorrentRegistry",
								"label": "peerId",
								"offset": 0,
								"slot": "0",
								"type": "t_bytes32"
							},
							{
								"astId": 733,
								"contract": "p2p/BitTorrentRegistry.sol:BitTorrentRegistry",
								"label": "reputation",
								"offset": 0,
								"slot": "1",
								"type": "t_uint256"
							},
							{
								"astId": 735,
								"contract": "p2p/BitTorrentRegistry.sol:BitTorrentRegistry",
								"label": "uploadCount",
								"offset": 0,
								"slot": "2",
								"type": "t_uint256"
							},
							{
								"astId": 737,
								"contract": "p2p/BitTorrentRegistry.sol:BitTorrentRegistry",
								"label": "downloadCount",
								"offset": 0,
								"slot": "3",
								"type": "t_uint256"
							},
							{
								"astId": 739,
								"contract": "p2p/BitTorrentRegistry.sol:BitTorrentRegistry",
								"label": "lastSeen",
								"offset": 0,
								"slot": "4",
								"type": "t_uint256"
							},
							{
								"astId": 741,
								"contract": "p2p/BitTorrentRegistry.sol:BitTorrentRegistry",
								"label": "isActive",
								"offset": 0,
								"slot": "5",
								"type": "t_bool"
							},
							{
								"astId": 745,
								"contract": "p2p/BitTorrentRegistry.sol:BitTorrentRegistry",
								"label": "servingTorrents",
								"offset": 0,
								"slot": "6",
								"type": "t_mapping(t_bytes32,t_bool)"
							}
						],
						"numberOfBytes": "224"
					},
					"t_struct(Torrent)729_storage": {
						"encoding": "inplace",
						"label": "struct BitTorrentRegistry.Torrent",
						"members": [
							{
								"astId": 700,
								"contract": "p2p/BitTorrentRegistry.sol:BitTorrentRegistry",
								"label": "infoHash",
								"offset": 0,
								"slot": "0",
								"type": "t_bytes32"
							},
							{
								"astId": 702,
								"contract": "p2p/BitTorrentRegistry.sol:BitTorrentRegistry",
								"label": "fileCommitment",
								"offset": 0,
								"slot": "1",
								"type": "t_bytes32"
							},
							{
								"astId": 704,
								"contract": "p2p/BitTorrentRegistry.sol:BitTorrentRegistry",
								"label": "size",
								"offset": 0,
								"slot": "2",
								"type": "t_uint256"
							},
							{
								"astId": 706,
								"contract": "p2p/BitTorrentRegistry.sol:BitTorrentRegistry",
								"label": "pieceCount",
								"offset": 0,
								"slot": "3",
								"type": "t_uint256"
							},
							{
								"astId": 708,
								"contract": "p2p/BitTorrentRegistry.sol:BitTorrentRegistry",
								"label": "pieceSize",
								"offset": 0,
								"slot": "4",
								"type": "t_uint256"
							},
							{
								"astId": 710,
								"contract": "p2p/BitTorrentRegistry.sol:BitTorrentRegistry",
								"label": "piecesRoot",
								"offset": 0,
								"slot": "5",
								"type": "t_bytes32"
							},
							{
								"astId": 712,
								"contract": "p2p/BitTorrentRegistry.sol:BitTorrentRegistry",
								"label": "owner",
								"offset": 0,
								"slot": "6",
								"type": "t_address"
							},
							{
								"astId": 714,
								"contract": "p2p/BitTorrentRegistry.sol:BitTorrentRegistry",
								"label": "isPrivate",
								"offset": 20,
								"slot": "6",
								"type": "t_bool"
							},
							{
								"astId": 716,
								"contract": "p2p/BitTorrentRegistry.sol:BitTorrentRegistry",
								"label": "isEncrypted",
								"offset": 21,
								"slot": "6",
								"type": "t_bool"
							},
							{
								"astId": 718,
								"contract": "p2p/BitTorrentRegistry.sol:BitTorrentRegistry",
								"label": "encryptionProof",
								"offset": 0,
								"slot": "7",
								"type": "t_bytes32"
							},
							{
								"astId": 720,
								"contract": "p2p/BitTorrentRegistry.sol:BitTorrentRegistry",
								"label": "timestamp",
								"offset": 0,
								"slot": "8",
								"type": "t_uint256"
							},
							{
								"astId": 724,
								"contract": "p2p/BitTorrentRegistry.sol:BitTorrentRegistry",
								"label": "authorizedPeers",
								"offset": 0,
								"slot": "9",
								"type": "t_mapping(t_address,t_bool)"
							},
							{
								"astId": 728,
								"contract": "p2p/BitTorrentRegistry.sol:BitTorrentRegistry",
								"label": "pieceHashes",
								"offset": 0,
								"slot": "10",
								"type": "t_mapping(t_uint256,t_bytes32)"
							}
						],
						"numberOfBytes": "352"
					},
					"t_uint256": {
						"encoding": "inplace",
						"label": "uint256",
						"numberOfBytes": "32"
					}
				}
			},
			"userdoc": {
				"kind": "user",
				"methods": {
					"addTorrent(bytes32,bytes)": {
						"notice": "Add a new torrent to the registry"
					},
					"constructor": {
						"notice": "Constructor"
					},
					"getPeerStats(address)": {
						"notice": "Get peer details"
					},
					"getPieceHash(bytes32,uint256)": {
						"notice": "Get piece hash"
					},
					"getSwarmPeers(bytes32)": {
						"notice": "Get peers in torrent swarm"
					},
					"getTorrent(bytes32)": {
						"notice": "Get torrent details"
					},
					"getTorrentMetadata(bytes32)": {
						"notice": "Get torrent metadata"
					},
					"isPeerInSwarm(bytes32,address)": {
						"notice": "Check if peer is in swarm"
					},
					"joinSwarm(bytes32)": {
						"notice": "Join a torrent swarm"
					},
					"leaveSwarm(bytes32)": {
						"notice": "Leave a torrent swarm"
					},
					"registerTorrent(bytes32,bytes32,uint256,uint256,bytes32,bytes)": {
						"notice": "Register as a peer"
					},
					"removeTorrent(bytes32)": {
						"notice": "Remove a torrent"
					},
					"verifyPiece(bytes32,uint256,bytes32,bytes)": {
						"notice": "Verify piece hash"
					}
				},
				"notice": "Manages BitTorrent integration for decentralized file sharing",
				"version": 1
			}
		}
	}
}