{
	"privacy/zkp/FileProver.sol": {
		"FileProver": {
			"abi": [
				{
					"inputs": [
						{
							"internalType": "address",
							"name": "_bitTorrent",
							"type": "address"
						},
						{
							"internalType": "address",
							"name": "_initialOwner",
							"type": "address"
						}
					],
					"stateMutability": "nonpayable",
					"type": "constructor"
				},
				{
					"inputs": [],
					"name": "EnforcedPause",
					"type": "error"
				},
				{
					"inputs": [],
					"name": "ExpectedPause",
					"type": "error"
				},
				{
					"inputs": [
						{
							"internalType": "address",
							"name": "owner",
							"type": "address"
						}
					],
					"name": "OwnableInvalidOwner",
					"type": "error"
				},
				{
					"inputs": [
						{
							"internalType": "address",
							"name": "account",
							"type": "address"
						}
					],
					"name": "OwnableUnauthorizedAccount",
					"type": "error"
				},
				{
					"inputs": [],
					"name": "ReentrancyGuardReentrantCall",
					"type": "error"
				},
				{
					"anonymous": false,
					"inputs": [
						{
							"indexed": true,
							"internalType": "bytes32",
							"name": "fileCommitment",
							"type": "bytes32"
						},
						{
							"indexed": true,
							"internalType": "address",
							"name": "user",
							"type": "address"
						},
						{
							"indexed": false,
							"internalType": "bytes32",
							"name": "accessProof",
							"type": "bytes32"
						},
						{
							"indexed": false,
							"internalType": "uint256",
							"name": "timestamp",
							"type": "uint256"
						}
					],
					"name": "AccessProofVerified",
					"type": "event"
				},
				{
					"anonymous": false,
					"inputs": [
						{
							"indexed": true,
							"internalType": "bytes32",
							"name": "fileCommitment",
							"type": "bytes32"
						},
						{
							"indexed": true,
							"internalType": "bytes32",
							"name": "encryptionProof",
							"type": "bytes32"
						},
						{
							"indexed": false,
							"internalType": "uint256",
							"name": "timestamp",
							"type": "uint256"
						}
					],
					"name": "EncryptionProofVerified",
					"type": "event"
				},
				{
					"anonymous": false,
					"inputs": [
						{
							"indexed": true,
							"internalType": "bytes32",
							"name": "commitment",
							"type": "bytes32"
						},
						{
							"indexed": true,
							"internalType": "bytes32",
							"name": "metadataHash",
							"type": "bytes32"
						},
						{
							"indexed": true,
							"internalType": "address",
							"name": "owner",
							"type": "address"
						},
						{
							"indexed": false,
							"internalType": "uint256",
							"name": "size",
							"type": "uint256"
						},
						{
							"indexed": false,
							"internalType": "uint256",
							"name": "timestamp",
							"type": "uint256"
						}
					],
					"name": "FileProofVerified",
					"type": "event"
				},
				{
					"anonymous": false,
					"inputs": [
						{
							"indexed": true,
							"internalType": "address",
							"name": "previousOwner",
							"type": "address"
						},
						{
							"indexed": true,
							"internalType": "address",
							"name": "newOwner",
							"type": "address"
						}
					],
					"name": "OwnershipTransferred",
					"type": "event"
				},
				{
					"anonymous": false,
					"inputs": [
						{
							"indexed": false,
							"internalType": "address",
							"name": "account",
							"type": "address"
						}
					],
					"name": "Paused",
					"type": "event"
				},
				{
					"anonymous": false,
					"inputs": [
						{
							"indexed": false,
							"internalType": "address",
							"name": "account",
							"type": "address"
						}
					],
					"name": "Unpaused",
					"type": "event"
				},
				{
					"inputs": [
						{
							"internalType": "uint256",
							"name": "",
							"type": "uint256"
						}
					],
					"name": "alphaComponents",
					"outputs": [
						{
							"internalType": "uint256",
							"name": "",
							"type": "uint256"
						}
					],
					"stateMutability": "view",
					"type": "function"
				},
				{
					"inputs": [
						{
							"internalType": "uint256",
							"name": "",
							"type": "uint256"
						},
						{
							"internalType": "uint256",
							"name": "",
							"type": "uint256"
						}
					],
					"name": "betaComponents",
					"outputs": [
						{
							"internalType": "uint256",
							"name": "",
							"type": "uint256"
						}
					],
					"stateMutability": "view",
					"type": "function"
				},
				{
					"inputs": [],
					"name": "bitTorrent",
					"outputs": [
						{
							"internalType": "contract IBitTorrent",
							"name": "",
							"type": "address"
						}
					],
					"stateMutability": "view",
					"type": "function"
				},
				{
					"inputs": [
						{
							"internalType": "uint256",
							"name": "",
							"type": "uint256"
						}
					],
					"name": "deltaComponents",
					"outputs": [
						{
							"internalType": "uint256",
							"name": "",
							"type": "uint256"
						}
					],
					"stateMutability": "view",
					"type": "function"
				},
				{
					"inputs": [
						{
							"internalType": "bytes32",
							"name": "",
							"type": "bytes32"
						},
						{
							"internalType": "bytes32",
							"name": "",
							"type": "bytes32"
						}
					],
					"name": "fileAccessProofs",
					"outputs": [
						{
							"internalType": "bool",
							"name": "",
							"type": "bool"
						}
					],
					"stateMutability": "view",
					"type": "function"
				},
				{
					"inputs": [
						{
							"internalType": "bytes32",
							"name": "",
							"type": "bytes32"
						}
					],
					"name": "files",
					"outputs": [
						{
							"internalType": "bytes32",
							"name": "commitment",
							"type": "bytes32"
						},
						{
							"internalType": "bytes32",
							"name": "metadataHash",
							"type": "bytes32"
						},
						{
							"internalType": "uint256",
							"name": "size",
							"type": "uint256"
						},
						{
							"internalType": "address",
							"name": "owner",
							"type": "address"
						},
						{
							"internalType": "bool",
							"name": "isEncrypted",
							"type": "bool"
						},
						{
							"internalType": "bytes32",
							"name": "encryptionProof",
							"type": "bytes32"
						},
						{
							"internalType": "uint256",
							"name": "timestamp",
							"type": "uint256"
						}
					],
					"stateMutability": "view",
					"type": "function"
				},
				{
					"inputs": [
						{
							"internalType": "uint256",
							"name": "",
							"type": "uint256"
						}
					],
					"name": "gammaComponents",
					"outputs": [
						{
							"internalType": "uint256",
							"name": "",
							"type": "uint256"
						}
					],
					"stateMutability": "view",
					"type": "function"
				},
				{
					"inputs": [
						{
							"internalType": "uint256",
							"name": "",
							"type": "uint256"
						},
						{
							"internalType": "uint256",
							"name": "",
							"type": "uint256"
						}
					],
					"name": "icComponents",
					"outputs": [
						{
							"internalType": "uint256",
							"name": "",
							"type": "uint256"
						}
					],
					"stateMutability": "view",
					"type": "function"
				},
				{
					"inputs": [],
					"name": "icLength",
					"outputs": [
						{
							"internalType": "uint256",
							"name": "",
							"type": "uint256"
						}
					],
					"stateMutability": "view",
					"type": "function"
				},
				{
					"inputs": [
						{
							"internalType": "uint256[2]",
							"name": "_alpha",
							"type": "uint256[2]"
						},
						{
							"internalType": "uint256[2][2]",
							"name": "_beta",
							"type": "uint256[2][2]"
						},
						{
							"internalType": "uint256[2]",
							"name": "_gamma",
							"type": "uint256[2]"
						},
						{
							"internalType": "uint256[2]",
							"name": "_delta",
							"type": "uint256[2]"
						},
						{
							"internalType": "uint256[2][]",
							"name": "_ic",
							"type": "uint256[2][]"
						}
					],
					"name": "initializeVerificationKey",
					"outputs": [],
					"stateMutability": "nonpayable",
					"type": "function"
				},
				{
					"inputs": [
						{
							"internalType": "bytes32",
							"name": "",
							"type": "bytes32"
						}
					],
					"name": "nullifierUsed",
					"outputs": [
						{
							"internalType": "bool",
							"name": "",
							"type": "bool"
						}
					],
					"stateMutability": "view",
					"type": "function"
				},
				{
					"inputs": [],
					"name": "owner",
					"outputs": [
						{
							"internalType": "address",
							"name": "",
							"type": "address"
						}
					],
					"stateMutability": "view",
					"type": "function"
				},
				{
					"inputs": [],
					"name": "pause",
					"outputs": [],
					"stateMutability": "nonpayable",
					"type": "function"
				},
				{
					"inputs": [],
					"name": "paused",
					"outputs": [
						{
							"internalType": "bool",
							"name": "",
							"type": "bool"
						}
					],
					"stateMutability": "view",
					"type": "function"
				},
				{
					"inputs": [],
					"name": "renounceOwnership",
					"outputs": [],
					"stateMutability": "nonpayable",
					"type": "function"
				},
				{
					"inputs": [
						{
							"internalType": "address",
							"name": "newOwner",
							"type": "address"
						}
					],
					"name": "transferOwnership",
					"outputs": [],
					"stateMutability": "nonpayable",
					"type": "function"
				},
				{
					"inputs": [],
					"name": "unpause",
					"outputs": [],
					"stateMutability": "nonpayable",
					"type": "function"
				},
				{
					"inputs": [
						{
							"internalType": "address",
							"name": "",
							"type": "address"
						},
						{
							"internalType": "bytes32",
							"name": "",
							"type": "bytes32"
						}
					],
					"name": "userAccess",
					"outputs": [
						{
							"internalType": "bool",
							"name": "",
							"type": "bool"
						}
					],
					"stateMutability": "view",
					"type": "function"
				},
				{
					"inputs": [
						{
							"internalType": "bytes32",
							"name": "commitment",
							"type": "bytes32"
						},
						{
							"internalType": "bytes32",
							"name": "metadataHash",
							"type": "bytes32"
						},
						{
							"internalType": "uint256",
							"name": "size",
							"type": "uint256"
						},
						{
							"internalType": "uint256[8]",
							"name": "proof",
							"type": "uint256[8]"
						}
					],
					"name": "verifyFileProof",
					"outputs": [
						{
							"internalType": "bool",
							"name": "",
							"type": "bool"
						}
					],
					"stateMutability": "nonpayable",
					"type": "function"
				},
				{
					"inputs": [
						{
							"internalType": "uint256[8]",
							"name": "proof",
							"type": "uint256[8]"
						},
						{
							"internalType": "uint256[1]",
							"name": "input",
							"type": "uint256[1]"
						}
					],
					"name": "verifyProof",
					"outputs": [
						{
							"internalType": "bool",
							"name": "",
							"type": "bool"
						}
					],
					"stateMutability": "view",
					"type": "function"
				}
			],
			"devdoc": {
				"errors": {
					"EnforcedPause()": [
						{
							"details": "The operation failed because the contract is paused."
						}
					],
					"ExpectedPause()": [
						{
							"details": "The operation failed because the contract is not paused."
						}
					],
					"OwnableInvalidOwner(address)": [
						{
							"details": "The owner is not a valid owner account. (eg. `address(0)`)"
						}
					],
					"OwnableUnauthorizedAccount(address)": [
						{
							"details": "The caller account is not authorized to perform an operation."
						}
					],
					"ReentrancyGuardReentrantCall()": [
						{
							"details": "Unauthorized reentrant call."
						}
					]
				},
				"events": {
					"Paused(address)": {
						"details": "Emitted when the pause is triggered by `account`."
					},
					"Unpaused(address)": {
						"details": "Emitted when the pause is lifted by `account`."
					}
				},
				"kind": "dev",
				"methods": {
					"owner()": {
						"details": "Returns the address of the current owner."
					},
					"paused()": {
						"details": "Returns true if the contract is paused, and false otherwise."
					},
					"renounceOwnership()": {
						"details": "Leaves the contract without owner. It will not be possible to call `onlyOwner` functions. Can only be called by the current owner. NOTE: Renouncing ownership will leave the contract without an owner, thereby disabling any functionality that is only available to the owner."
					},
					"transferOwnership(address)": {
						"details": "Transfers ownership of the contract to a new account (`newOwner`). Can only be called by the current owner."
					}
				},
				"version": 1
			},
			"evm": {
				"assembly": "    /* \"privacy/zkp/FileProver.sol\":311:9014  contract FileProver is IZKVerifier, Ownable, ReentrancyGuard, Pausable {... */\n  mstore(0x40, 0xa0)\n    /* \"privacy/zkp/FileProver.sol\":1869:2098  constructor(... */\n  callvalue\n  dup1\n  iszero\n  tag_1\n  jumpi\n  0x00\n  dup1\n  revert\ntag_1:\n  pop\n  mload(0x40)\n  sub(codesize, bytecodeSize)\n  dup1\n  bytecodeSize\n  dup4\n  codecopy\n  dup2\n  dup2\n  add\n  0x40\n  mstore\n  dup2\n  add\n  swap1\n  tag_2\n  swap2\n  swap1\n  tag_3\n  jump\t// in\ntag_2:\n    /* \"privacy/zkp/FileProver.sol\":1955:1968  _initialOwner */\n  dup1\n    /* \"@openzeppelin/contracts/access/Ownable.sol\":1297:1298  0 */\n  0x00\n    /* \"@openzeppelin/contracts/access/Ownable.sol\":1273:1299  initialOwner == address(0) */\n  0xffffffffffffffffffffffffffffffffffffffff\n  and\n    /* \"@openzeppelin/contracts/access/Ownable.sol\":1273:1285  initialOwner */\n  dup2\n    /* \"@openzeppelin/contracts/access/Ownable.sol\":1273:1299  initialOwner == address(0) */\n  0xffffffffffffffffffffffffffffffffffffffff\n  and\n  sub\n    /* \"@openzeppelin/contracts/access/Ownable.sol\":1269:1364  if (initialOwner == address(0)) {... */\n  tag_9\n  jumpi\n    /* \"@openzeppelin/contracts/access/Ownable.sol\":1350:1351  0 */\n  0x00\n    /* \"@openzeppelin/contracts/access/Ownable.sol\":1322:1353  OwnableInvalidOwner(address(0)) */\n  mload(0x40)\n  0x1e4fbdf700000000000000000000000000000000000000000000000000000000\n  dup2\n  mstore\n  0x04\n  add\n  tag_10\n  swap2\n  swap1\n  tag_11\n  jump\t// in\ntag_10:\n  mload(0x40)\n  dup1\n  swap2\n  sub\n  swap1\n  revert\n    /* \"@openzeppelin/contracts/access/Ownable.sol\":1269:1364  if (initialOwner == address(0)) {... */\ntag_9:\n    /* \"@openzeppelin/contracts/access/Ownable.sol\":1373:1405  _transferOwnership(initialOwner) */\n  tag_12\n    /* \"@openzeppelin/contracts/access/Ownable.sol\":1392:1404  initialOwner */\n  dup2\n    /* \"@openzeppelin/contracts/access/Ownable.sol\":1373:1391  _transferOwnership */\n  shl(0x20, tag_13)\n    /* \"@openzeppelin/contracts/access/Ownable.sol\":1373:1405  _transferOwnership(initialOwner) */\n  0x20\n  shr\n  jump\t// in\ntag_12:\n    /* \"@openzeppelin/contracts/access/Ownable.sol\":1225:1412  constructor(address initialOwner) {... */\n  pop\n    /* \"@openzeppelin/contracts/utils/ReentrancyGuard.sol\":1857:1858  1 */\n  0x01\n    /* \"@openzeppelin/contracts/utils/ReentrancyGuard.sol\":2061:2068  _status */\n  dup1\n    /* \"@openzeppelin/contracts/utils/ReentrancyGuard.sol\":2061:2082  _status = NOT_ENTERED */\n  dup2\n  swap1\n  sstore\n  pop\n    /* \"@openzeppelin/contracts/utils/Pausable.sol\":1241:1246  false */\n  0x00\n    /* \"@openzeppelin/contracts/utils/Pausable.sol\":1231:1238  _paused */\n  0x02\n  0x00\n    /* \"@openzeppelin/contracts/utils/Pausable.sol\":1231:1246  _paused = false */\n  0x0100\n  exp\n  dup2\n  sload\n  dup2\n  0xff\n  mul\n  not\n  and\n  swap1\n  dup4\n  iszero\n  iszero\n  mul\n  or\n  swap1\n  sstore\n  pop\n    /* \"privacy/zkp/FileProver.sol\":2011:2012  0 */\n  0x00\n    /* \"privacy/zkp/FileProver.sol\":1988:2013  _bitTorrent != address(0) */\n  0xffffffffffffffffffffffffffffffffffffffff\n  and\n    /* \"privacy/zkp/FileProver.sol\":1988:1999  _bitTorrent */\n  dup3\n    /* \"privacy/zkp/FileProver.sol\":1988:2013  _bitTorrent != address(0) */\n  0xffffffffffffffffffffffffffffffffffffffff\n  and\n  sub\n    /* \"privacy/zkp/FileProver.sol\":1980:2044  require(_bitTorrent != address(0), \"Invalid BitTorrent address\") */\n  tag_17\n  jumpi\n  mload(0x40)\n  0x08c379a000000000000000000000000000000000000000000000000000000000\n  dup2\n  mstore\n  0x04\n  add\n  tag_18\n  swap1\n  tag_19\n  jump\t// in\ntag_18:\n  mload(0x40)\n  dup1\n  swap2\n  sub\n  swap1\n  revert\ntag_17:\n    /* \"privacy/zkp/FileProver.sol\":2079:2090  _bitTorrent */\n  dup2\n    /* \"privacy/zkp/FileProver.sol\":2054:2091  bitTorrent = IBitTorrent(_bitTorrent) */\n  0xffffffffffffffffffffffffffffffffffffffff\n  and\n  0x80\n  dup2\n  0xffffffffffffffffffffffffffffffffffffffff\n  and\n  dup2\n  mstore\n  pop\n  pop\n    /* \"privacy/zkp/FileProver.sol\":1869:2098  constructor(... */\n  pop\n  pop\n    /* \"privacy/zkp/FileProver.sol\":311:9014  contract FileProver is IZKVerifier, Ownable, ReentrancyGuard, Pausable {... */\n  jump(tag_20)\n    /* \"@openzeppelin/contracts/access/Ownable.sol\":2912:3099  function _transferOwnership(address newOwner) internal virtual {... */\ntag_13:\n    /* \"@openzeppelin/contracts/access/Ownable.sol\":2985:3001  address oldOwner */\n  0x00\n    /* \"@openzeppelin/contracts/access/Ownable.sol\":3004:3010  _owner */\n  dup1\n  0x00\n  swap1\n  sload\n  swap1\n  0x0100\n  exp\n  swap1\n  div\n  0xffffffffffffffffffffffffffffffffffffffff\n  and\n    /* \"@openzeppelin/contracts/access/Ownable.sol\":2985:3010  address oldOwner = _owner */\n  swap1\n  pop\n    /* \"@openzeppelin/contracts/access/Ownable.sol\":3029:3037  newOwner */\n  dup2\n    /* \"@openzeppelin/contracts/access/Ownable.sol\":3020:3026  _owner */\n  0x00\n  dup1\n    /* \"@openzeppelin/contracts/access/Ownable.sol\":3020:3037  _owner = newOwner */\n  0x0100\n  exp\n  dup2\n  sload\n  dup2\n  0xffffffffffffffffffffffffffffffffffffffff\n  mul\n  not\n  and\n  swap1\n  dup4\n  0xffffffffffffffffffffffffffffffffffffffff\n  and\n  mul\n  or\n  swap1\n  sstore\n  pop\n    /* \"@openzeppelin/contracts/access/Ownable.sol\":3083:3091  newOwner */\n  dup2\n    /* \"@openzeppelin/contracts/access/Ownable.sol\":3052:3092  OwnershipTransferred(oldOwner, newOwner) */\n  0xffffffffffffffffffffffffffffffffffffffff\n  and\n    /* \"@openzeppelin/contracts/access/Ownable.sol\":3073:3081  oldOwner */\n  dup2\n    /* \"@openzeppelin/contracts/access/Ownable.sol\":3052:3092  OwnershipTransferred(oldOwner, newOwner) */\n  0xffffffffffffffffffffffffffffffffffffffff\n  and\n  0x8be0079c531659141344cd1fd0a4f28419497f9722a3daafe3b4186f6b6457e0\n  mload(0x40)\n  mload(0x40)\n  dup1\n  swap2\n  sub\n  swap1\n  log3\n    /* \"@openzeppelin/contracts/access/Ownable.sol\":2975:3099  {... */\n  pop\n    /* \"@openzeppelin/contracts/access/Ownable.sol\":2912:3099  function _transferOwnership(address newOwner) internal virtual {... */\n  pop\n  jump\t// out\n    /* \"#utility.yul\":88:205   */\ntag_23:\n    /* \"#utility.yul\":197:198   */\n  0x00\n    /* \"#utility.yul\":194:195   */\n  dup1\n    /* \"#utility.yul\":187:199   */\n  revert\n    /* \"#utility.yul\":334:460   */\ntag_25:\n    /* \"#utility.yul\":371:378   */\n  0x00\n    /* \"#utility.yul\":411:453   */\n  0xffffffffffffffffffffffffffffffffffffffff\n    /* \"#utility.yul\":404:409   */\n  dup3\n    /* \"#utility.yul\":400:454   */\n  and\n    /* \"#utility.yul\":389:454   */\n  swap1\n  pop\n    /* \"#utility.yul\":334:460   */\n  swap2\n  swap1\n  pop\n  jump\t// out\n    /* \"#utility.yul\":466:562   */\ntag_26:\n    /* \"#utility.yul\":503:510   */\n  0x00\n    /* \"#utility.yul\":532:556   */\n  tag_39\n    /* \"#utility.yul\":550:555   */\n  dup3\n    /* \"#utility.yul\":532:556   */\n  tag_25\n  jump\t// in\ntag_39:\n    /* \"#utility.yul\":521:556   */\n  swap1\n  pop\n    /* \"#utility.yul\":466:562   */\n  swap2\n  swap1\n  pop\n  jump\t// out\n    /* \"#utility.yul\":568:690   */\ntag_27:\n    /* \"#utility.yul\":641:665   */\n  tag_41\n    /* \"#utility.yul\":659:664   */\n  dup2\n    /* \"#utility.yul\":641:665   */\n  tag_26\n  jump\t// in\ntag_41:\n    /* \"#utility.yul\":634:639   */\n  dup2\n    /* \"#utility.yul\":631:666   */\n  eq\n    /* \"#utility.yul\":621:684   */\n  tag_42\n  jumpi\n    /* \"#utility.yul\":680:681   */\n  0x00\n    /* \"#utility.yul\":677:678   */\n  dup1\n    /* \"#utility.yul\":670:682   */\n  revert\n    /* \"#utility.yul\":621:684   */\ntag_42:\n    /* \"#utility.yul\":568:690   */\n  pop\n  jump\t// out\n    /* \"#utility.yul\":696:839   */\ntag_28:\n    /* \"#utility.yul\":753:758   */\n  0x00\n    /* \"#utility.yul\":784:790   */\n  dup2\n    /* \"#utility.yul\":778:791   */\n  mload\n    /* \"#utility.yul\":769:791   */\n  swap1\n  pop\n    /* \"#utility.yul\":800:833   */\n  tag_44\n    /* \"#utility.yul\":827:832   */\n  dup2\n    /* \"#utility.yul\":800:833   */\n  tag_27\n  jump\t// in\ntag_44:\n    /* \"#utility.yul\":696:839   */\n  swap3\n  swap2\n  pop\n  pop\n  jump\t// out\n    /* \"#utility.yul\":845:1352   */\ntag_3:\n    /* \"#utility.yul\":924:930   */\n  0x00\n    /* \"#utility.yul\":932:938   */\n  dup1\n    /* \"#utility.yul\":981:983   */\n  0x40\n    /* \"#utility.yul\":969:978   */\n  dup4\n    /* \"#utility.yul\":960:967   */\n  dup6\n    /* \"#utility.yul\":956:979   */\n  sub\n    /* \"#utility.yul\":952:984   */\n  slt\n    /* \"#utility.yul\":949:1068   */\n  iszero\n  tag_46\n  jumpi\n    /* \"#utility.yul\":987:1066   */\n  tag_47\n  tag_23\n  jump\t// in\ntag_47:\n    /* \"#utility.yul\":949:1068   */\ntag_46:\n    /* \"#utility.yul\":1107:1108   */\n  0x00\n    /* \"#utility.yul\":1132:1196   */\n  tag_48\n    /* \"#utility.yul\":1188:1195   */\n  dup6\n    /* \"#utility.yul\":1179:1185   */\n  dup3\n    /* \"#utility.yul\":1168:1177   */\n  dup7\n    /* \"#utility.yul\":1164:1186   */\n  add\n    /* \"#utility.yul\":1132:1196   */\n  tag_28\n  jump\t// in\ntag_48:\n    /* \"#utility.yul\":1122:1196   */\n  swap3\n  pop\n    /* \"#utility.yul\":1078:1206   */\n  pop\n    /* \"#utility.yul\":1245:1247   */\n  0x20\n    /* \"#utility.yul\":1271:1335   */\n  tag_49\n    /* \"#utility.yul\":1327:1334   */\n  dup6\n    /* \"#utility.yul\":1318:1324   */\n  dup3\n    /* \"#utility.yul\":1307:1316   */\n  dup7\n    /* \"#utility.yul\":1303:1325   */\n  add\n    /* \"#utility.yul\":1271:1335   */\n  tag_28\n  jump\t// in\ntag_49:\n    /* \"#utility.yul\":1261:1335   */\n  swap2\n  pop\n    /* \"#utility.yul\":1216:1345   */\n  pop\n    /* \"#utility.yul\":845:1352   */\n  swap3\n  pop\n  swap3\n  swap1\n  pop\n  jump\t// out\n    /* \"#utility.yul\":1358:1476   */\ntag_29:\n    /* \"#utility.yul\":1445:1469   */\n  tag_51\n    /* \"#utility.yul\":1463:1468   */\n  dup2\n    /* \"#utility.yul\":1445:1469   */\n  tag_26\n  jump\t// in\ntag_51:\n    /* \"#utility.yul\":1440:1443   */\n  dup3\n    /* \"#utility.yul\":1433:1470   */\n  mstore\n    /* \"#utility.yul\":1358:1476   */\n  pop\n  pop\n  jump\t// out\n    /* \"#utility.yul\":1482:1704   */\ntag_11:\n    /* \"#utility.yul\":1575:1579   */\n  0x00\n    /* \"#utility.yul\":1613:1615   */\n  0x20\n    /* \"#utility.yul\":1602:1611   */\n  dup3\n    /* \"#utility.yul\":1598:1616   */\n  add\n    /* \"#utility.yul\":1590:1616   */\n  swap1\n  pop\n    /* \"#utility.yul\":1626:1697   */\n  tag_53\n    /* \"#utility.yul\":1694:1695   */\n  0x00\n    /* \"#utility.yul\":1683:1692   */\n  dup4\n    /* \"#utility.yul\":1679:1696   */\n  add\n    /* \"#utility.yul\":1670:1676   */\n  dup5\n    /* \"#utility.yul\":1626:1697   */\n  tag_29\n  jump\t// in\ntag_53:\n    /* \"#utility.yul\":1482:1704   */\n  swap3\n  swap2\n  pop\n  pop\n  jump\t// out\n    /* \"#utility.yul\":1710:1879   */\ntag_30:\n    /* \"#utility.yul\":1794:1805   */\n  0x00\n    /* \"#utility.yul\":1828:1834   */\n  dup3\n    /* \"#utility.yul\":1823:1826   */\n  dup3\n    /* \"#utility.yul\":1816:1835   */\n  mstore\n    /* \"#utility.yul\":1868:1872   */\n  0x20\n    /* \"#utility.yul\":1863:1866   */\n  dup3\n    /* \"#utility.yul\":1859:1873   */\n  add\n    /* \"#utility.yul\":1844:1873   */\n  swap1\n  pop\n    /* \"#utility.yul\":1710:1879   */\n  swap3\n  swap2\n  pop\n  pop\n  jump\t// out\n    /* \"#utility.yul\":1885:2061   */\ntag_31:\n    /* \"#utility.yul\":2025:2053   */\n  0x496e76616c696420426974546f7272656e742061646472657373000000000000\n    /* \"#utility.yul\":2021:2022   */\n  0x00\n    /* \"#utility.yul\":2013:2019   */\n  dup3\n    /* \"#utility.yul\":2009:2023   */\n  add\n    /* \"#utility.yul\":2002:2054   */\n  mstore\n    /* \"#utility.yul\":1885:2061   */\n  pop\n  jump\t// out\n    /* \"#utility.yul\":2067:2433   */\ntag_32:\n    /* \"#utility.yul\":2209:2212   */\n  0x00\n    /* \"#utility.yul\":2230:2297   */\n  tag_57\n    /* \"#utility.yul\":2294:2296   */\n  0x1a\n    /* \"#utility.yul\":2289:2292   */\n  dup4\n    /* \"#utility.yul\":2230:2297   */\n  tag_30\n  jump\t// in\ntag_57:\n    /* \"#utility.yul\":2223:2297   */\n  swap2\n  pop\n    /* \"#utility.yul\":2306:2399   */\n  tag_58\n    /* \"#utility.yul\":2395:2398   */\n  dup3\n    /* \"#utility.yul\":2306:2399   */\n  tag_31\n  jump\t// in\ntag_58:\n    /* \"#utility.yul\":2424:2426   */\n  0x20\n    /* \"#utility.yul\":2419:2422   */\n  dup3\n    /* \"#utility.yul\":2415:2427   */\n  add\n    /* \"#utility.yul\":2408:2427   */\n  swap1\n  pop\n    /* \"#utility.yul\":2067:2433   */\n  swap2\n  swap1\n  pop\n  jump\t// out\n    /* \"#utility.yul\":2439:2858   */\ntag_19:\n    /* \"#utility.yul\":2605:2609   */\n  0x00\n    /* \"#utility.yul\":2643:2645   */\n  0x20\n    /* \"#utility.yul\":2632:2641   */\n  dup3\n    /* \"#utility.yul\":2628:2646   */\n  add\n    /* \"#utility.yul\":2620:2646   */\n  swap1\n  pop\n    /* \"#utility.yul\":2692:2701   */\n  dup2\n    /* \"#utility.yul\":2686:2690   */\n  dup2\n    /* \"#utility.yul\":2682:2702   */\n  sub\n    /* \"#utility.yul\":2678:2679   */\n  0x00\n    /* \"#utility.yul\":2667:2676   */\n  dup4\n    /* \"#utility.yul\":2663:2680   */\n  add\n    /* \"#utility.yul\":2656:2703   */\n  mstore\n    /* \"#utility.yul\":2720:2851   */\n  tag_60\n    /* \"#utility.yul\":2846:2850   */\n  dup2\n    /* \"#utility.yul\":2720:2851   */\n  tag_32\n  jump\t// in\ntag_60:\n    /* \"#utility.yul\":2712:2851   */\n  swap1\n  pop\n    /* \"#utility.yul\":2439:2858   */\n  swap2\n  swap1\n  pop\n  jump\t// out\n    /* \"privacy/zkp/FileProver.sol\":311:9014  contract FileProver is IZKVerifier, Ownable, ReentrancyGuard, Pausable {... */\ntag_20:\n  mload(0x80)\n  codecopy(0x00, dataOffset(sub_0), dataSize(sub_0))\n  0x00\n  assignImmutable(\"0xd667c05f4ea0c4d90d21d40bfcf145844cbad8a35a13308e33b3fcd34757a132\")\n  return(0x00, dataSize(sub_0))\nstop\n\nsub_0: assembly {\n        /* \"privacy/zkp/FileProver.sol\":311:9014  contract FileProver is IZKVerifier, Ownable, ReentrancyGuard, Pausable {... */\n      mstore(0x40, 0x80)\n      callvalue\n      dup1\n      iszero\n      tag_1\n      jumpi\n      0x00\n      dup1\n      revert\n    tag_1:\n      pop\n      jumpi(tag_2, lt(calldatasize, 0x04))\n      shr(0xe0, calldataload(0x00))\n      dup1\n      0x7ecf686d\n      gt\n      tag_23\n      jumpi\n      dup1\n      0xb08eff56\n      gt\n      tag_24\n      jumpi\n      dup1\n      0xb08eff56\n      eq\n      tag_18\n      jumpi\n      dup1\n      0xcb57dc3e\n      eq\n      tag_19\n      jumpi\n      dup1\n      0xd796ad6d\n      eq\n      tag_20\n      jumpi\n      dup1\n      0xf2fde38b\n      eq\n      tag_21\n      jumpi\n      dup1\n      0xfc8221a9\n      eq\n      tag_22\n      jumpi\n      jump(tag_2)\n    tag_24:\n      dup1\n      0x7ecf686d\n      eq\n      tag_13\n      jumpi\n      dup1\n      0x8456cb59\n      eq\n      tag_14\n      jumpi\n      dup1\n      0x8da5cb5b\n      eq\n      tag_15\n      jumpi\n      dup1\n      0x914acecd\n      eq\n      tag_16\n      jumpi\n      dup1\n      0x98c9adff\n      eq\n      tag_17\n      jumpi\n      jump(tag_2)\n    tag_23:\n      dup1\n      0x4f1c6447\n      gt\n      tag_25\n      jumpi\n      dup1\n      0x4f1c6447\n      eq\n      tag_8\n      jumpi\n      dup1\n      0x5c975abb\n      eq\n      tag_9\n      jumpi\n      dup1\n      0x5d41f36e\n      eq\n      tag_10\n      jumpi\n      dup1\n      0x63a787e2\n      eq\n      tag_11\n      jumpi\n      dup1\n      0x715018a6\n      eq\n      tag_12\n      jumpi\n      jump(tag_2)\n    tag_25:\n      dup1\n      0x02e291b1\n      eq\n      tag_3\n      jumpi\n      dup1\n      0x1b81f829\n      eq\n      tag_4\n      jumpi\n      dup1\n      0x1ba82d42\n      eq\n      tag_5\n      jumpi\n      dup1\n      0x280ee92a\n      eq\n      tag_6\n      jumpi\n      dup1\n      0x3f4ba83a\n      eq\n      tag_7\n      jumpi\n    tag_2:\n      0x00\n      dup1\n      revert\n        /* \"privacy/zkp/FileProver.sol\":423:473  mapping(uint256 => uint256) public alphaComponents */\n    tag_3:\n      tag_26\n      0x04\n      dup1\n      calldatasize\n      sub\n      dup2\n      add\n      swap1\n      tag_27\n      swap2\n      swap1\n      tag_28\n      jump\t// in\n    tag_27:\n      tag_29\n      jump\t// in\n    tag_26:\n      mload(0x40)\n      tag_30\n      swap2\n      swap1\n      tag_31\n      jump\t// in\n    tag_30:\n      mload(0x40)\n      dup1\n      swap2\n      sub\n      swap1\n      return\n        /* \"privacy/zkp/FileProver.sol\":3454:3796  function verifyProof(... */\n    tag_4:\n      tag_32\n      0x04\n      dup1\n      calldatasize\n      sub\n      dup2\n      add\n      swap1\n      tag_33\n      swap2\n      swap1\n      tag_34\n      jump\t// in\n    tag_33:\n      tag_35\n      jump\t// in\n    tag_32:\n      mload(0x40)\n      tag_36\n      swap2\n      swap1\n      tag_37\n      jump\t// in\n    tag_36:\n      mload(0x40)\n      dup1\n      swap2\n      sub\n      swap1\n      return\n        /* \"privacy/zkp/FileProver.sol\":1208:1270  mapping(address => mapping(bytes32 => bool)) public userAccess */\n    tag_5:\n      tag_38\n      0x04\n      dup1\n      calldatasize\n      sub\n      dup2\n      add\n      swap1\n      tag_39\n      swap2\n      swap1\n      tag_40\n      jump\t// in\n    tag_39:\n      tag_41\n      jump\t// in\n    tag_38:\n      mload(0x40)\n      tag_42\n      swap2\n      swap1\n      tag_37\n      jump\t// in\n    tag_42:\n      mload(0x40)\n      dup1\n      swap2\n      sub\n      swap1\n      return\n        /* \"privacy/zkp/FileProver.sol\":739:762  uint256 public icLength */\n    tag_6:\n      tag_43\n      tag_44\n      jump\t// in\n    tag_43:\n      mload(0x40)\n      tag_45\n      swap2\n      swap1\n      tag_31\n      jump\t// in\n    tag_45:\n      mload(0x40)\n      dup1\n      swap2\n      sub\n      swap1\n      return\n        /* \"privacy/zkp/FileProver.sol\":8947:9012  function unpause() external onlyOwner {... */\n    tag_7:\n      tag_46\n      tag_47\n      jump\t// in\n    tag_46:\n      stop\n        /* \"privacy/zkp/FileProver.sol\":1059:1098  IBitTorrent public immutable bitTorrent */\n    tag_8:\n      tag_48\n      tag_49\n      jump\t// in\n    tag_48:\n      mload(0x40)\n      tag_50\n      swap2\n      swap1\n      tag_51\n      jump\t// in\n    tag_50:\n      mload(0x40)\n      dup1\n      swap2\n      sub\n      swap1\n      return\n        /* \"@openzeppelin/contracts/utils/Pausable.sol\":1850:1934  function paused() public view virtual returns (bool) {... */\n    tag_9:\n      tag_52\n      tag_53\n      jump\t// in\n    tag_52:\n      mload(0x40)\n      tag_54\n      swap2\n      swap1\n      tag_37\n      jump\t// in\n    tag_54:\n      mload(0x40)\n      dup1\n      swap2\n      sub\n      swap1\n      return\n        /* \"privacy/zkp/FileProver.sol\":610:660  mapping(uint256 => uint256) public deltaComponents */\n    tag_10:\n      tag_55\n      0x04\n      dup1\n      calldatasize\n      sub\n      dup2\n      add\n      swap1\n      tag_56\n      swap2\n      swap1\n      tag_28\n      jump\t// in\n    tag_56:\n      tag_57\n      jump\t// in\n    tag_55:\n      mload(0x40)\n      tag_58\n      swap2\n      swap1\n      tag_31\n      jump\t// in\n    tag_58:\n      mload(0x40)\n      dup1\n      swap2\n      sub\n      swap1\n      return\n        /* \"privacy/zkp/FileProver.sol\":554:604  mapping(uint256 => uint256) public gammaComponents */\n    tag_11:\n      tag_59\n      0x04\n      dup1\n      calldatasize\n      sub\n      dup2\n      add\n      swap1\n      tag_60\n      swap2\n      swap1\n      tag_28\n      jump\t// in\n    tag_60:\n      tag_61\n      jump\t// in\n    tag_59:\n      mload(0x40)\n      tag_62\n      swap2\n      swap1\n      tag_31\n      jump\t// in\n    tag_62:\n      mload(0x40)\n      dup1\n      swap2\n      sub\n      swap1\n      return\n        /* \"@openzeppelin/contracts/access/Ownable.sol\":2293:2394  function renounceOwnership() public virtual onlyOwner {... */\n    tag_12:\n      tag_63\n      tag_64\n      jump\t// in\n    tag_63:\n      stop\n        /* \"privacy/zkp/FileProver.sol\":1157:1202  mapping(bytes32 => bool) public nullifierUsed */\n    tag_13:\n      tag_65\n      0x04\n      dup1\n      calldatasize\n      sub\n      dup2\n      add\n      swap1\n      tag_66\n      swap2\n      swap1\n      tag_67\n      jump\t// in\n    tag_66:\n      tag_68\n      jump\t// in\n    tag_65:\n      mload(0x40)\n      tag_69\n      swap2\n      swap1\n      tag_37\n      jump\t// in\n    tag_69:\n      mload(0x40)\n      dup1\n      swap2\n      sub\n      swap1\n      return\n        /* \"privacy/zkp/FileProver.sol\":8880:8941  function pause() external onlyOwner {... */\n    tag_14:\n      tag_70\n      tag_71\n      jump\t// in\n    tag_70:\n      stop\n        /* \"@openzeppelin/contracts/access/Ownable.sol\":1638:1723  function owner() public view virtual returns (address) {... */\n    tag_15:\n      tag_72\n      tag_73\n      jump\t// in\n    tag_72:\n      mload(0x40)\n      tag_74\n      swap2\n      swap1\n      tag_75\n      jump\t// in\n    tag_74:\n      mload(0x40)\n      dup1\n      swap2\n      sub\n      swap1\n      return\n        /* \"privacy/zkp/FileProver.sol\":3802:4701  function initializeVerificationKey(... */\n    tag_16:\n      tag_76\n      0x04\n      dup1\n      calldatasize\n      sub\n      dup2\n      add\n      swap1\n      tag_77\n      swap2\n      swap1\n      tag_78\n      jump\t// in\n    tag_77:\n      tag_79\n      jump\t// in\n    tag_76:\n      stop\n        /* \"privacy/zkp/FileProver.sol\":1104:1151  mapping(bytes32 => FileCommitment) public files */\n    tag_17:\n      tag_80\n      0x04\n      dup1\n      calldatasize\n      sub\n      dup2\n      add\n      swap1\n      tag_81\n      swap2\n      swap1\n      tag_67\n      jump\t// in\n    tag_81:\n      tag_82\n      jump\t// in\n    tag_80:\n      mload(0x40)\n      tag_83\n      swap8\n      swap7\n      swap6\n      swap5\n      swap4\n      swap3\n      swap2\n      swap1\n      tag_84\n      jump\t// in\n    tag_83:\n      mload(0x40)\n      dup1\n      swap2\n      sub\n      swap1\n      return\n        /* \"privacy/zkp/FileProver.sol\":1276:1344  mapping(bytes32 => mapping(bytes32 => bool)) public fileAccessProofs */\n    tag_18:\n      tag_85\n      0x04\n      dup1\n      calldatasize\n      sub\n      dup2\n      add\n      swap1\n      tag_86\n      swap2\n      swap1\n      tag_87\n      jump\t// in\n    tag_86:\n      tag_88\n      jump\t// in\n    tag_85:\n      mload(0x40)\n      tag_89\n      swap2\n      swap1\n      tag_37\n      jump\t// in\n    tag_89:\n      mload(0x40)\n      dup1\n      swap2\n      sub\n      swap1\n      return\n        /* \"privacy/zkp/FileProver.sol\":479:548  mapping(uint256 => mapping(uint256 => uint256)) public betaComponents */\n    tag_19:\n      tag_90\n      0x04\n      dup1\n      calldatasize\n      sub\n      dup2\n      add\n      swap1\n      tag_91\n      swap2\n      swap1\n      tag_92\n      jump\t// in\n    tag_91:\n      tag_93\n      jump\t// in\n    tag_90:\n      mload(0x40)\n      tag_94\n      swap2\n      swap1\n      tag_31\n      jump\t// in\n    tag_94:\n      mload(0x40)\n      dup1\n      swap2\n      sub\n      swap1\n      return\n        /* \"privacy/zkp/FileProver.sol\":2104:3448  function verifyFileProof(... */\n    tag_20:\n      tag_95\n      0x04\n      dup1\n      calldatasize\n      sub\n      dup2\n      add\n      swap1\n      tag_96\n      swap2\n      swap1\n      tag_97\n      jump\t// in\n    tag_96:\n      tag_98\n      jump\t// in\n    tag_95:\n      mload(0x40)\n      tag_99\n      swap2\n      swap1\n      tag_37\n      jump\t// in\n    tag_99:\n      mload(0x40)\n      dup1\n      swap2\n      sub\n      swap1\n      return\n        /* \"@openzeppelin/contracts/access/Ownable.sol\":2543:2758  function transferOwnership(address newOwner) public virtual onlyOwner {... */\n    tag_21:\n      tag_100\n      0x04\n      dup1\n      calldatasize\n      sub\n      dup2\n      add\n      swap1\n      tag_101\n      swap2\n      swap1\n      tag_102\n      jump\t// in\n    tag_101:\n      tag_103\n      jump\t// in\n    tag_100:\n      stop\n        /* \"privacy/zkp/FileProver.sol\":666:733  mapping(uint256 => mapping(uint256 => uint256)) public icComponents */\n    tag_22:\n      tag_104\n      0x04\n      dup1\n      calldatasize\n      sub\n      dup2\n      add\n      swap1\n      tag_105\n      swap2\n      swap1\n      tag_92\n      jump\t// in\n    tag_105:\n      tag_106\n      jump\t// in\n    tag_104:\n      mload(0x40)\n      tag_107\n      swap2\n      swap1\n      tag_31\n      jump\t// in\n    tag_107:\n      mload(0x40)\n      dup1\n      swap2\n      sub\n      swap1\n      return\n        /* \"privacy/zkp/FileProver.sol\":423:473  mapping(uint256 => uint256) public alphaComponents */\n    tag_29:\n      mstore(0x20, 0x03)\n      dup1\n      0x00\n      mstore\n      keccak256(0x00, 0x40)\n      0x00\n      swap2\n      pop\n      swap1\n      pop\n      sload\n      dup2\n      jump\t// out\n        /* \"privacy/zkp/FileProver.sol\":3454:3796  function verifyProof(... */\n    tag_35:\n        /* \"privacy/zkp/FileProver.sol\":3583:3587  bool */\n      0x00\n        /* \"privacy/zkp/FileProver.sol\":3606:3789  _verifyProof(... */\n      tag_109\n      mload(0x40)\n      dup1\n      0x40\n      add\n      0x40\n      mstore\n      dup1\n        /* \"privacy/zkp/FileProver.sol\":3633:3638  proof */\n      dup6\n        /* \"privacy/zkp/FileProver.sol\":3639:3640  0 */\n      0x00\n        /* \"privacy/zkp/FileProver.sol\":3633:3641  proof[0] */\n      0x08\n      dup2\n      lt\n      tag_110\n      jumpi\n      tag_111\n      tag_112\n      jump\t// in\n    tag_111:\n    tag_110:\n      0x20\n      mul\n      add\n      calldataload\n        /* \"privacy/zkp/FileProver.sol\":3606:3789  _verifyProof(... */\n      dup2\n      mstore\n      0x20\n      add\n        /* \"privacy/zkp/FileProver.sol\":3643:3648  proof */\n      dup6\n        /* \"privacy/zkp/FileProver.sol\":3649:3650  1 */\n      0x01\n        /* \"privacy/zkp/FileProver.sol\":3643:3651  proof[1] */\n      0x08\n      dup2\n      lt\n      tag_113\n      jumpi\n      tag_114\n      tag_112\n      jump\t// in\n    tag_114:\n    tag_113:\n      0x20\n      mul\n      add\n      calldataload\n        /* \"privacy/zkp/FileProver.sol\":3606:3789  _verifyProof(... */\n      dup2\n      mstore\n      pop\n      mload(0x40)\n      dup1\n      0x40\n      add\n      0x40\n      mstore\n      dup1\n      mload(0x40)\n      dup1\n      0x40\n      add\n      0x40\n      mstore\n      dup1\n        /* \"privacy/zkp/FileProver.sol\":3674:3679  proof */\n      dup9\n        /* \"privacy/zkp/FileProver.sol\":3680:3681  2 */\n      0x02\n        /* \"privacy/zkp/FileProver.sol\":3674:3682  proof[2] */\n      0x08\n      dup2\n      lt\n      tag_115\n      jumpi\n      tag_116\n      tag_112\n      jump\t// in\n    tag_116:\n    tag_115:\n      0x20\n      mul\n      add\n      calldataload\n        /* \"privacy/zkp/FileProver.sol\":3606:3789  _verifyProof(... */\n      dup2\n      mstore\n      0x20\n      add\n        /* \"privacy/zkp/FileProver.sol\":3684:3689  proof */\n      dup9\n        /* \"privacy/zkp/FileProver.sol\":3690:3691  3 */\n      0x03\n        /* \"privacy/zkp/FileProver.sol\":3684:3692  proof[3] */\n      0x08\n      dup2\n      lt\n      tag_117\n      jumpi\n      tag_118\n      tag_112\n      jump\t// in\n    tag_118:\n    tag_117:\n      0x20\n      mul\n      add\n      calldataload\n        /* \"privacy/zkp/FileProver.sol\":3606:3789  _verifyProof(... */\n      dup2\n      mstore\n      pop\n      dup2\n      mstore\n      0x20\n      add\n      mload(0x40)\n      dup1\n      0x40\n      add\n      0x40\n      mstore\n      dup1\n        /* \"privacy/zkp/FileProver.sol\":3696:3701  proof */\n      dup9\n        /* \"privacy/zkp/FileProver.sol\":3702:3703  4 */\n      0x04\n        /* \"privacy/zkp/FileProver.sol\":3696:3704  proof[4] */\n      0x08\n      dup2\n      lt\n      tag_119\n      jumpi\n      tag_120\n      tag_112\n      jump\t// in\n    tag_120:\n    tag_119:\n      0x20\n      mul\n      add\n      calldataload\n        /* \"privacy/zkp/FileProver.sol\":3606:3789  _verifyProof(... */\n      dup2\n      mstore\n      0x20\n      add\n        /* \"privacy/zkp/FileProver.sol\":3706:3711  proof */\n      dup9\n        /* \"privacy/zkp/FileProver.sol\":3712:3713  5 */\n      0x05\n        /* \"privacy/zkp/FileProver.sol\":3706:3714  proof[5] */\n      0x08\n      dup2\n      lt\n      tag_121\n      jumpi\n      tag_122\n      tag_112\n      jump\t// in\n    tag_122:\n    tag_121:\n      0x20\n      mul\n      add\n      calldataload\n        /* \"privacy/zkp/FileProver.sol\":3606:3789  _verifyProof(... */\n      dup2\n      mstore\n      pop\n      dup2\n      mstore\n      pop\n      mload(0x40)\n      dup1\n      0x40\n      add\n      0x40\n      mstore\n      dup1\n        /* \"privacy/zkp/FileProver.sol\":3736:3741  proof */\n      dup8\n        /* \"privacy/zkp/FileProver.sol\":3742:3743  6 */\n      0x06\n        /* \"privacy/zkp/FileProver.sol\":3736:3744  proof[6] */\n      0x08\n      dup2\n      lt\n      tag_123\n      jumpi\n      tag_124\n      tag_112\n      jump\t// in\n    tag_124:\n    tag_123:\n      0x20\n      mul\n      add\n      calldataload\n        /* \"privacy/zkp/FileProver.sol\":3606:3789  _verifyProof(... */\n      dup2\n      mstore\n      0x20\n      add\n        /* \"privacy/zkp/FileProver.sol\":3746:3751  proof */\n      dup8\n        /* \"privacy/zkp/FileProver.sol\":3752:3753  7 */\n      0x07\n        /* \"privacy/zkp/FileProver.sol\":3746:3754  proof[7] */\n      0x08\n      dup2\n      lt\n      tag_125\n      jumpi\n      tag_126\n      tag_112\n      jump\t// in\n    tag_126:\n    tag_125:\n      0x20\n      mul\n      add\n      calldataload\n        /* \"privacy/zkp/FileProver.sol\":3606:3789  _verifyProof(... */\n      dup2\n      mstore\n      pop\n        /* \"privacy/zkp/FileProver.sol\":3774:3779  input */\n      dup6\n        /* \"privacy/zkp/FileProver.sol\":3606:3789  _verifyProof(... */\n      0x01\n      dup1\n      0x20\n      mul\n      mload(0x40)\n      swap1\n      dup2\n      add\n      0x40\n      mstore\n      dup1\n      swap3\n      swap2\n      swap1\n      dup3\n      mul(0x20, 0x01)\n      dup1\n      dup3\n      dup5\n      calldatacopy\n      0x00\n      dup2\n      dup5\n      add\n      mstore\n      not(0x1f)\n      0x1f\n      dup3\n      add\n      and\n      swap1\n      pop\n      dup1\n      dup4\n      add\n      swap3\n      pop\n      pop\n      pop\n      pop\n      pop\n      pop\n        /* \"privacy/zkp/FileProver.sol\":3606:3618  _verifyProof */\n      tag_127\n        /* \"privacy/zkp/FileProver.sol\":3606:3789  _verifyProof(... */\n      jump\t// in\n    tag_109:\n        /* \"privacy/zkp/FileProver.sol\":3599:3789  return _verifyProof(... */\n      swap1\n      pop\n        /* \"privacy/zkp/FileProver.sol\":3454:3796  function verifyProof(... */\n      swap3\n      swap2\n      pop\n      pop\n      jump\t// out\n        /* \"privacy/zkp/FileProver.sol\":1208:1270  mapping(address => mapping(bytes32 => bool)) public userAccess */\n    tag_41:\n      mstore(0x20, 0x0b)\n      dup2\n      0x00\n      mstore\n      mstore(0x20, keccak256(0x00, 0x40))\n      dup1\n      0x00\n      mstore\n      keccak256(0x00, 0x40)\n      0x00\n      swap2\n      pop\n      swap2\n      pop\n      swap1\n      sload\n      swap1\n      0x0100\n      exp\n      swap1\n      div\n      0xff\n      and\n      dup2\n      jump\t// out\n        /* \"privacy/zkp/FileProver.sol\":739:762  uint256 public icLength */\n    tag_44:\n      sload(0x08)\n      dup2\n      jump\t// out\n        /* \"privacy/zkp/FileProver.sol\":8947:9012  function unpause() external onlyOwner {... */\n    tag_47:\n        /* \"@openzeppelin/contracts/access/Ownable.sol\":1531:1544  _checkOwner() */\n      tag_129\n        /* \"@openzeppelin/contracts/access/Ownable.sol\":1531:1542  _checkOwner */\n      tag_130\n        /* \"@openzeppelin/contracts/access/Ownable.sol\":1531:1544  _checkOwner() */\n      jump\t// in\n    tag_129:\n        /* \"privacy/zkp/FileProver.sol\":8995:9005  _unpause() */\n      tag_132\n        /* \"privacy/zkp/FileProver.sol\":8995:9003  _unpause */\n      tag_133\n        /* \"privacy/zkp/FileProver.sol\":8995:9005  _unpause() */\n      jump\t// in\n    tag_132:\n        /* \"privacy/zkp/FileProver.sol\":8947:9012  function unpause() external onlyOwner {... */\n      jump\t// out\n        /* \"privacy/zkp/FileProver.sol\":1059:1098  IBitTorrent public immutable bitTorrent */\n    tag_49:\n      immutable(\"0xd667c05f4ea0c4d90d21d40bfcf145844cbad8a35a13308e33b3fcd34757a132\")\n      dup2\n      jump\t// out\n        /* \"@openzeppelin/contracts/utils/Pausable.sol\":1850:1934  function paused() public view virtual returns (bool) {... */\n    tag_53:\n        /* \"@openzeppelin/contracts/utils/Pausable.sol\":1897:1901  bool */\n      0x00\n        /* \"@openzeppelin/contracts/utils/Pausable.sol\":1920:1927  _paused */\n      0x02\n      0x00\n      swap1\n      sload\n      swap1\n      0x0100\n      exp\n      swap1\n      div\n      0xff\n      and\n        /* \"@openzeppelin/contracts/utils/Pausable.sol\":1913:1927  return _paused */\n      swap1\n      pop\n        /* \"@openzeppelin/contracts/utils/Pausable.sol\":1850:1934  function paused() public view virtual returns (bool) {... */\n      swap1\n      jump\t// out\n        /* \"privacy/zkp/FileProver.sol\":610:660  mapping(uint256 => uint256) public deltaComponents */\n    tag_57:\n      mstore(0x20, 0x06)\n      dup1\n      0x00\n      mstore\n      keccak256(0x00, 0x40)\n      0x00\n      swap2\n      pop\n      swap1\n      pop\n      sload\n      dup2\n      jump\t// out\n        /* \"privacy/zkp/FileProver.sol\":554:604  mapping(uint256 => uint256) public gammaComponents */\n    tag_61:\n      mstore(0x20, 0x05)\n      dup1\n      0x00\n      mstore\n      keccak256(0x00, 0x40)\n      0x00\n      swap2\n      pop\n      swap1\n      pop\n      sload\n      dup2\n      jump\t// out\n        /* \"@openzeppelin/contracts/access/Ownable.sol\":2293:2394  function renounceOwnership() public virtual onlyOwner {... */\n    tag_64:\n        /* \"@openzeppelin/contracts/access/Ownable.sol\":1531:1544  _checkOwner() */\n      tag_136\n        /* \"@openzeppelin/contracts/access/Ownable.sol\":1531:1542  _checkOwner */\n      tag_130\n        /* \"@openzeppelin/contracts/access/Ownable.sol\":1531:1544  _checkOwner() */\n      jump\t// in\n    tag_136:\n        /* \"@openzeppelin/contracts/access/Ownable.sol\":2357:2387  _transferOwnership(address(0)) */\n      tag_138\n        /* \"@openzeppelin/contracts/access/Ownable.sol\":2384:2385  0 */\n      0x00\n        /* \"@openzeppelin/contracts/access/Ownable.sol\":2357:2375  _transferOwnership */\n      tag_139\n        /* \"@openzeppelin/contracts/access/Ownable.sol\":2357:2387  _transferOwnership(address(0)) */\n      jump\t// in\n    tag_138:\n        /* \"@openzeppelin/contracts/access/Ownable.sol\":2293:2394  function renounceOwnership() public virtual onlyOwner {... */\n      jump\t// out\n        /* \"privacy/zkp/FileProver.sol\":1157:1202  mapping(bytes32 => bool) public nullifierUsed */\n    tag_68:\n      mstore(0x20, 0x0a)\n      dup1\n      0x00\n      mstore\n      keccak256(0x00, 0x40)\n      0x00\n      swap2\n      pop\n      sload\n      swap1\n      0x0100\n      exp\n      swap1\n      div\n      0xff\n      and\n      dup2\n      jump\t// out\n        /* \"privacy/zkp/FileProver.sol\":8880:8941  function pause() external onlyOwner {... */\n    tag_71:\n        /* \"@openzeppelin/contracts/access/Ownable.sol\":1531:1544  _checkOwner() */\n      tag_141\n        /* \"@openzeppelin/contracts/access/Ownable.sol\":1531:1542  _checkOwner */\n      tag_130\n        /* \"@openzeppelin/contracts/access/Ownable.sol\":1531:1544  _checkOwner() */\n      jump\t// in\n    tag_141:\n        /* \"privacy/zkp/FileProver.sol\":8926:8934  _pause() */\n      tag_143\n        /* \"privacy/zkp/FileProver.sol\":8926:8932  _pause */\n      tag_144\n        /* \"privacy/zkp/FileProver.sol\":8926:8934  _pause() */\n      jump\t// in\n    tag_143:\n        /* \"privacy/zkp/FileProver.sol\":8880:8941  function pause() external onlyOwner {... */\n      jump\t// out\n        /* \"@openzeppelin/contracts/access/Ownable.sol\":1638:1723  function owner() public view virtual returns (address) {... */\n    tag_73:\n        /* \"@openzeppelin/contracts/access/Ownable.sol\":1684:1691  address */\n      0x00\n        /* \"@openzeppelin/contracts/access/Ownable.sol\":1710:1716  _owner */\n      dup1\n      0x00\n      swap1\n      sload\n      swap1\n      0x0100\n      exp\n      swap1\n      div\n      0xffffffffffffffffffffffffffffffffffffffff\n      and\n        /* \"@openzeppelin/contracts/access/Ownable.sol\":1703:1716  return _owner */\n      swap1\n      pop\n        /* \"@openzeppelin/contracts/access/Ownable.sol\":1638:1723  function owner() public view virtual returns (address) {... */\n      swap1\n      jump\t// out\n        /* \"privacy/zkp/FileProver.sol\":3802:4701  function initializeVerificationKey(... */\n    tag_79:\n        /* \"@openzeppelin/contracts/access/Ownable.sol\":1531:1544  _checkOwner() */\n      tag_147\n        /* \"@openzeppelin/contracts/access/Ownable.sol\":1531:1542  _checkOwner */\n      tag_130\n        /* \"@openzeppelin/contracts/access/Ownable.sol\":1531:1544  _checkOwner() */\n      jump\t// in\n    tag_147:\n        /* \"privacy/zkp/FileProver.sol\":4074:4075  0 */\n      0x00\n        /* \"privacy/zkp/FileProver.sol\":4061:4064  _ic */\n      dup3\n      dup3\n        /* \"privacy/zkp/FileProver.sol\":4061:4071  _ic.length */\n      swap1\n      pop\n        /* \"privacy/zkp/FileProver.sol\":4061:4075  _ic.length > 0 */\n      gt\n        /* \"privacy/zkp/FileProver.sol\":4053:4097  require(_ic.length > 0, \"Invalid IC length\") */\n      tag_149\n      jumpi\n      mload(0x40)\n      0x08c379a000000000000000000000000000000000000000000000000000000000\n      dup2\n      mstore\n      0x04\n      add\n      tag_150\n      swap1\n      tag_151\n      jump\t// in\n    tag_150:\n      mload(0x40)\n      dup1\n      swap2\n      sub\n      swap1\n      revert\n    tag_149:\n        /* \"privacy/zkp/FileProver.sol\":4137:4143  _alpha */\n      dup6\n        /* \"privacy/zkp/FileProver.sol\":4144:4145  0 */\n      0x00\n        /* \"privacy/zkp/FileProver.sol\":4137:4146  _alpha[0] */\n      0x02\n      dup2\n      lt\n      tag_152\n      jumpi\n      tag_153\n      tag_112\n      jump\t// in\n    tag_153:\n    tag_152:\n      0x20\n      mul\n      add\n      calldataload\n        /* \"privacy/zkp/FileProver.sol\":4116:4131  alphaComponents */\n      0x03\n        /* \"privacy/zkp/FileProver.sol\":4116:4134  alphaComponents[0] */\n      0x00\n        /* \"privacy/zkp/FileProver.sol\":4132:4133  0 */\n      dup1\n        /* \"privacy/zkp/FileProver.sol\":4116:4134  alphaComponents[0] */\n      dup2\n      mstore\n      0x20\n      add\n      swap1\n      dup2\n      mstore\n      0x20\n      add\n      0x00\n      keccak256\n        /* \"privacy/zkp/FileProver.sol\":4116:4146  alphaComponents[0] = _alpha[0] */\n      dup2\n      swap1\n      sstore\n      pop\n        /* \"privacy/zkp/FileProver.sol\":4177:4183  _alpha */\n      dup6\n        /* \"privacy/zkp/FileProver.sol\":4184:4185  1 */\n      0x01\n        /* \"privacy/zkp/FileProver.sol\":4177:4186  _alpha[1] */\n      0x02\n      dup2\n      lt\n      tag_154\n      jumpi\n      tag_155\n      tag_112\n      jump\t// in\n    tag_155:\n    tag_154:\n      0x20\n      mul\n      add\n      calldataload\n        /* \"privacy/zkp/FileProver.sol\":4156:4171  alphaComponents */\n      0x03\n        /* \"privacy/zkp/FileProver.sol\":4156:4174  alphaComponents[1] */\n      0x00\n        /* \"privacy/zkp/FileProver.sol\":4172:4173  1 */\n      0x01\n        /* \"privacy/zkp/FileProver.sol\":4156:4174  alphaComponents[1] */\n      dup2\n      mstore\n      0x20\n      add\n      swap1\n      dup2\n      mstore\n      0x20\n      add\n      0x00\n      keccak256\n        /* \"privacy/zkp/FileProver.sol\":4156:4186  alphaComponents[1] = _alpha[1] */\n      dup2\n      swap1\n      sstore\n      pop\n        /* \"privacy/zkp/FileProver.sol\":4202:4211  uint256 i */\n      0x00\n        /* \"privacy/zkp/FileProver.sol\":4197:4352  for (uint256 i = 0; i < 2; i++) {... */\n    tag_156:\n        /* \"privacy/zkp/FileProver.sol\":4221:4222  2 */\n      0x02\n        /* \"privacy/zkp/FileProver.sol\":4217:4218  i */\n      dup2\n        /* \"privacy/zkp/FileProver.sol\":4217:4222  i < 2 */\n      lt\n        /* \"privacy/zkp/FileProver.sol\":4197:4352  for (uint256 i = 0; i < 2; i++) {... */\n      iszero\n      tag_157\n      jumpi\n        /* \"privacy/zkp/FileProver.sol\":4248:4257  uint256 j */\n      0x00\n        /* \"privacy/zkp/FileProver.sol\":4243:4342  for (uint256 j = 0; j < 2; j++) {... */\n    tag_159:\n        /* \"privacy/zkp/FileProver.sol\":4267:4268  2 */\n      0x02\n        /* \"privacy/zkp/FileProver.sol\":4263:4264  j */\n      dup2\n        /* \"privacy/zkp/FileProver.sol\":4263:4268  j < 2 */\n      lt\n        /* \"privacy/zkp/FileProver.sol\":4243:4342  for (uint256 j = 0; j < 2; j++) {... */\n      iszero\n      tag_160\n      jumpi\n        /* \"privacy/zkp/FileProver.sol\":4316:4321  _beta */\n      dup7\n        /* \"privacy/zkp/FileProver.sol\":4322:4323  i */\n      dup3\n        /* \"privacy/zkp/FileProver.sol\":4316:4324  _beta[i] */\n      0x02\n      dup2\n      lt\n      tag_162\n      jumpi\n      tag_163\n      tag_112\n      jump\t// in\n    tag_163:\n    tag_162:\n      0x40\n      mul\n      add\n        /* \"privacy/zkp/FileProver.sol\":4325:4326  j */\n      dup2\n        /* \"privacy/zkp/FileProver.sol\":4316:4327  _beta[i][j] */\n      0x02\n      dup2\n      lt\n      tag_164\n      jumpi\n      tag_165\n      tag_112\n      jump\t// in\n    tag_165:\n    tag_164:\n      0x20\n      mul\n      add\n      calldataload\n        /* \"privacy/zkp/FileProver.sol\":4293:4307  betaComponents */\n      0x04\n        /* \"privacy/zkp/FileProver.sol\":4293:4310  betaComponents[i] */\n      0x00\n        /* \"privacy/zkp/FileProver.sol\":4308:4309  i */\n      dup5\n        /* \"privacy/zkp/FileProver.sol\":4293:4310  betaComponents[i] */\n      dup2\n      mstore\n      0x20\n      add\n      swap1\n      dup2\n      mstore\n      0x20\n      add\n      0x00\n      keccak256\n        /* \"privacy/zkp/FileProver.sol\":4293:4313  betaComponents[i][j] */\n      0x00\n        /* \"privacy/zkp/FileProver.sol\":4311:4312  j */\n      dup4\n        /* \"privacy/zkp/FileProver.sol\":4293:4313  betaComponents[i][j] */\n      dup2\n      mstore\n      0x20\n      add\n      swap1\n      dup2\n      mstore\n      0x20\n      add\n      0x00\n      keccak256\n        /* \"privacy/zkp/FileProver.sol\":4293:4327  betaComponents[i][j] = _beta[i][j] */\n      dup2\n      swap1\n      sstore\n      pop\n        /* \"privacy/zkp/FileProver.sol\":4270:4273  j++ */\n      dup1\n      dup1\n      0x01\n      add\n      swap2\n      pop\n      pop\n        /* \"privacy/zkp/FileProver.sol\":4243:4342  for (uint256 j = 0; j < 2; j++) {... */\n      jump(tag_159)\n    tag_160:\n      pop\n        /* \"privacy/zkp/FileProver.sol\":4224:4227  i++ */\n      dup1\n      dup1\n      0x01\n      add\n      swap2\n      pop\n      pop\n        /* \"privacy/zkp/FileProver.sol\":4197:4352  for (uint256 i = 0; i < 2; i++) {... */\n      jump(tag_156)\n    tag_157:\n      pop\n        /* \"privacy/zkp/FileProver.sol\":4383:4389  _gamma */\n      dup4\n        /* \"privacy/zkp/FileProver.sol\":4390:4391  0 */\n      0x00\n        /* \"privacy/zkp/FileProver.sol\":4383:4392  _gamma[0] */\n      0x02\n      dup2\n      lt\n      tag_166\n      jumpi\n      tag_167\n      tag_112\n      jump\t// in\n    tag_167:\n    tag_166:\n      0x20\n      mul\n      add\n      calldataload\n        /* \"privacy/zkp/FileProver.sol\":4362:4377  gammaComponents */\n      0x05\n        /* \"privacy/zkp/FileProver.sol\":4362:4380  gammaComponents[0] */\n      0x00\n        /* \"privacy/zkp/FileProver.sol\":4378:4379  0 */\n      dup1\n        /* \"privacy/zkp/FileProver.sol\":4362:4380  gammaComponents[0] */\n      dup2\n      mstore\n      0x20\n      add\n      swap1\n      dup2\n      mstore\n      0x20\n      add\n      0x00\n      keccak256\n        /* \"privacy/zkp/FileProver.sol\":4362:4392  gammaComponents[0] = _gamma[0] */\n      dup2\n      swap1\n      sstore\n      pop\n        /* \"privacy/zkp/FileProver.sol\":4423:4429  _gamma */\n      dup4\n        /* \"privacy/zkp/FileProver.sol\":4430:4431  1 */\n      0x01\n        /* \"privacy/zkp/FileProver.sol\":4423:4432  _gamma[1] */\n      0x02\n      dup2\n      lt\n      tag_168\n      jumpi\n      tag_169\n      tag_112\n      jump\t// in\n    tag_169:\n    tag_168:\n      0x20\n      mul\n      add\n      calldataload\n        /* \"privacy/zkp/FileProver.sol\":4402:4417  gammaComponents */\n      0x05\n        /* \"privacy/zkp/FileProver.sol\":4402:4420  gammaComponents[1] */\n      0x00\n        /* \"privacy/zkp/FileProver.sol\":4418:4419  1 */\n      0x01\n        /* \"privacy/zkp/FileProver.sol\":4402:4420  gammaComponents[1] */\n      dup2\n      mstore\n      0x20\n      add\n      swap1\n      dup2\n      mstore\n      0x20\n      add\n      0x00\n      keccak256\n        /* \"privacy/zkp/FileProver.sol\":4402:4432  gammaComponents[1] = _gamma[1] */\n      dup2\n      swap1\n      sstore\n      pop\n        /* \"privacy/zkp/FileProver.sol\":4464:4470  _delta */\n      dup3\n        /* \"privacy/zkp/FileProver.sol\":4471:4472  0 */\n      0x00\n        /* \"privacy/zkp/FileProver.sol\":4464:4473  _delta[0] */\n      0x02\n      dup2\n      lt\n      tag_170\n      jumpi\n      tag_171\n      tag_112\n      jump\t// in\n    tag_171:\n    tag_170:\n      0x20\n      mul\n      add\n      calldataload\n        /* \"privacy/zkp/FileProver.sol\":4443:4458  deltaComponents */\n      0x06\n        /* \"privacy/zkp/FileProver.sol\":4443:4461  deltaComponents[0] */\n      0x00\n        /* \"privacy/zkp/FileProver.sol\":4459:4460  0 */\n      dup1\n        /* \"privacy/zkp/FileProver.sol\":4443:4461  deltaComponents[0] */\n      dup2\n      mstore\n      0x20\n      add\n      swap1\n      dup2\n      mstore\n      0x20\n      add\n      0x00\n      keccak256\n        /* \"privacy/zkp/FileProver.sol\":4443:4473  deltaComponents[0] = _delta[0] */\n      dup2\n      swap1\n      sstore\n      pop\n        /* \"privacy/zkp/FileProver.sol\":4504:4510  _delta */\n      dup3\n        /* \"privacy/zkp/FileProver.sol\":4511:4512  1 */\n      0x01\n        /* \"privacy/zkp/FileProver.sol\":4504:4513  _delta[1] */\n      0x02\n      dup2\n      lt\n      tag_172\n      jumpi\n      tag_173\n      tag_112\n      jump\t// in\n    tag_173:\n    tag_172:\n      0x20\n      mul\n      add\n      calldataload\n        /* \"privacy/zkp/FileProver.sol\":4483:4498  deltaComponents */\n      0x06\n        /* \"privacy/zkp/FileProver.sol\":4483:4501  deltaComponents[1] */\n      0x00\n        /* \"privacy/zkp/FileProver.sol\":4499:4500  1 */\n      0x01\n        /* \"privacy/zkp/FileProver.sol\":4483:4501  deltaComponents[1] */\n      dup2\n      mstore\n      0x20\n      add\n      swap1\n      dup2\n      mstore\n      0x20\n      add\n      0x00\n      keccak256\n        /* \"privacy/zkp/FileProver.sol\":4483:4513  deltaComponents[1] = _delta[1] */\n      dup2\n      swap1\n      sstore\n      pop\n        /* \"privacy/zkp/FileProver.sol\":4535:4538  _ic */\n      dup2\n      dup2\n        /* \"privacy/zkp/FileProver.sol\":4535:4545  _ic.length */\n      swap1\n      pop\n        /* \"privacy/zkp/FileProver.sol\":4524:4532  icLength */\n      0x08\n        /* \"privacy/zkp/FileProver.sol\":4524:4545  icLength = _ic.length */\n      dup2\n      swap1\n      sstore\n      pop\n        /* \"privacy/zkp/FileProver.sol\":4560:4569  uint256 i */\n      0x00\n        /* \"privacy/zkp/FileProver.sol\":4555:4695  for (uint256 i = 0; i < _ic.length; i++) {... */\n    tag_174:\n        /* \"privacy/zkp/FileProver.sol\":4579:4582  _ic */\n      dup3\n      dup3\n        /* \"privacy/zkp/FileProver.sol\":4579:4589  _ic.length */\n      swap1\n      pop\n        /* \"privacy/zkp/FileProver.sol\":4575:4576  i */\n      dup2\n        /* \"privacy/zkp/FileProver.sol\":4575:4589  i < _ic.length */\n      lt\n        /* \"privacy/zkp/FileProver.sol\":4555:4695  for (uint256 i = 0; i < _ic.length; i++) {... */\n      iszero\n      tag_175\n      jumpi\n        /* \"privacy/zkp/FileProver.sol\":4631:4634  _ic */\n      dup3\n      dup3\n        /* \"privacy/zkp/FileProver.sol\":4635:4636  i */\n      dup3\n        /* \"privacy/zkp/FileProver.sol\":4631:4637  _ic[i] */\n      dup2\n      dup2\n      lt\n      tag_177\n      jumpi\n      tag_178\n      tag_112\n      jump\t// in\n    tag_178:\n    tag_177:\n      swap1\n      pop\n      0x40\n      mul\n      add\n        /* \"privacy/zkp/FileProver.sol\":4638:4639  0 */\n      0x00\n        /* \"privacy/zkp/FileProver.sol\":4631:4640  _ic[i][0] */\n      0x02\n      dup2\n      lt\n      tag_179\n      jumpi\n      tag_180\n      tag_112\n      jump\t// in\n    tag_180:\n    tag_179:\n      0x20\n      mul\n      add\n      calldataload\n        /* \"privacy/zkp/FileProver.sol\":4610:4622  icComponents */\n      0x07\n        /* \"privacy/zkp/FileProver.sol\":4610:4625  icComponents[i] */\n      0x00\n        /* \"privacy/zkp/FileProver.sol\":4623:4624  i */\n      dup4\n        /* \"privacy/zkp/FileProver.sol\":4610:4625  icComponents[i] */\n      dup2\n      mstore\n      0x20\n      add\n      swap1\n      dup2\n      mstore\n      0x20\n      add\n      0x00\n      keccak256\n        /* \"privacy/zkp/FileProver.sol\":4610:4628  icComponents[i][0] */\n      0x00\n        /* \"privacy/zkp/FileProver.sol\":4626:4627  0 */\n      dup1\n        /* \"privacy/zkp/FileProver.sol\":4610:4628  icComponents[i][0] */\n      dup2\n      mstore\n      0x20\n      add\n      swap1\n      dup2\n      mstore\n      0x20\n      add\n      0x00\n      keccak256\n        /* \"privacy/zkp/FileProver.sol\":4610:4640  icComponents[i][0] = _ic[i][0] */\n      dup2\n      swap1\n      sstore\n      pop\n        /* \"privacy/zkp/FileProver.sol\":4675:4678  _ic */\n      dup3\n      dup3\n        /* \"privacy/zkp/FileProver.sol\":4679:4680  i */\n      dup3\n        /* \"privacy/zkp/FileProver.sol\":4675:4681  _ic[i] */\n      dup2\n      dup2\n      lt\n      tag_181\n      jumpi\n      tag_182\n      tag_112\n      jump\t// in\n    tag_182:\n    tag_181:\n      swap1\n      pop\n      0x40\n      mul\n      add\n        /* \"privacy/zkp/FileProver.sol\":4682:4683  1 */\n      0x01\n        /* \"privacy/zkp/FileProver.sol\":4675:4684  _ic[i][1] */\n      0x02\n      dup2\n      lt\n      tag_183\n      jumpi\n      tag_184\n      tag_112\n      jump\t// in\n    tag_184:\n    tag_183:\n      0x20\n      mul\n      add\n      calldataload\n        /* \"privacy/zkp/FileProver.sol\":4654:4666  icComponents */\n      0x07\n        /* \"privacy/zkp/FileProver.sol\":4654:4669  icComponents[i] */\n      0x00\n        /* \"privacy/zkp/FileProver.sol\":4667:4668  i */\n      dup4\n        /* \"privacy/zkp/FileProver.sol\":4654:4669  icComponents[i] */\n      dup2\n      mstore\n      0x20\n      add\n      swap1\n      dup2\n      mstore\n      0x20\n      add\n      0x00\n      keccak256\n        /* \"privacy/zkp/FileProver.sol\":4654:4672  icComponents[i][1] */\n      0x00\n        /* \"privacy/zkp/FileProver.sol\":4670:4671  1 */\n      0x01\n        /* \"privacy/zkp/FileProver.sol\":4654:4672  icComponents[i][1] */\n      dup2\n      mstore\n      0x20\n      add\n      swap1\n      dup2\n      mstore\n      0x20\n      add\n      0x00\n      keccak256\n        /* \"privacy/zkp/FileProver.sol\":4654:4684  icComponents[i][1] = _ic[i][1] */\n      dup2\n      swap1\n      sstore\n      pop\n        /* \"privacy/zkp/FileProver.sol\":4591:4594  i++ */\n      dup1\n      dup1\n      0x01\n      add\n      swap2\n      pop\n      pop\n        /* \"privacy/zkp/FileProver.sol\":4555:4695  for (uint256 i = 0; i < _ic.length; i++) {... */\n      jump(tag_174)\n    tag_175:\n      pop\n        /* \"privacy/zkp/FileProver.sol\":3802:4701  function initializeVerificationKey(... */\n      pop\n      pop\n      pop\n      pop\n      pop\n      pop\n      jump\t// out\n        /* \"privacy/zkp/FileProver.sol\":1104:1151  mapping(bytes32 => FileCommitment) public files */\n    tag_82:\n      mstore(0x20, 0x09)\n      dup1\n      0x00\n      mstore\n      keccak256(0x00, 0x40)\n      0x00\n      swap2\n      pop\n      swap1\n      pop\n      dup1\n      0x00\n      add\n      sload\n      swap1\n      dup1\n      0x01\n      add\n      sload\n      swap1\n      dup1\n      0x02\n      add\n      sload\n      swap1\n      dup1\n      0x03\n      add\n      0x00\n      swap1\n      sload\n      swap1\n      0x0100\n      exp\n      swap1\n      div\n      0xffffffffffffffffffffffffffffffffffffffff\n      and\n      swap1\n      dup1\n      0x03\n      add\n      0x14\n      swap1\n      sload\n      swap1\n      0x0100\n      exp\n      swap1\n      div\n      0xff\n      and\n      swap1\n      dup1\n      0x04\n      add\n      sload\n      swap1\n      dup1\n      0x05\n      add\n      sload\n      swap1\n      pop\n      dup8\n      jump\t// out\n        /* \"privacy/zkp/FileProver.sol\":1276:1344  mapping(bytes32 => mapping(bytes32 => bool)) public fileAccessProofs */\n    tag_88:\n      mstore(0x20, 0x0c)\n      dup2\n      0x00\n      mstore\n      mstore(0x20, keccak256(0x00, 0x40))\n      dup1\n      0x00\n      mstore\n      keccak256(0x00, 0x40)\n      0x00\n      swap2\n      pop\n      swap2\n      pop\n      swap1\n      sload\n      swap1\n      0x0100\n      exp\n      swap1\n      div\n      0xff\n      and\n      dup2\n      jump\t// out\n        /* \"privacy/zkp/FileProver.sol\":479:548  mapping(uint256 => mapping(uint256 => uint256)) public betaComponents */\n    tag_93:\n      mstore(0x20, 0x04)\n      dup2\n      0x00\n      mstore\n      mstore(0x20, keccak256(0x00, 0x40))\n      dup1\n      0x00\n      mstore\n      keccak256(0x00, 0x40)\n      0x00\n      swap2\n      pop\n      swap2\n      pop\n      pop\n      sload\n      dup2\n      jump\t// out\n        /* \"privacy/zkp/FileProver.sol\":2104:3448  function verifyFileProof(... */\n    tag_98:\n        /* \"privacy/zkp/FileProver.sol\":2295:2299  bool */\n      0x00\n        /* \"@openzeppelin/contracts/utils/ReentrancyGuard.sol\":2500:2521  _nonReentrantBefore() */\n      tag_186\n        /* \"@openzeppelin/contracts/utils/ReentrancyGuard.sol\":2500:2519  _nonReentrantBefore */\n      tag_187\n        /* \"@openzeppelin/contracts/utils/ReentrancyGuard.sol\":2500:2521  _nonReentrantBefore() */\n      jump\t// in\n    tag_186:\n        /* \"@openzeppelin/contracts/utils/Pausable.sol\":1474:1493  _requireNotPaused() */\n      tag_189\n        /* \"@openzeppelin/contracts/utils/Pausable.sol\":1474:1491  _requireNotPaused */\n      tag_190\n        /* \"@openzeppelin/contracts/utils/Pausable.sol\":1474:1493  _requireNotPaused() */\n      jump\t// in\n    tag_189:\n        /* \"privacy/zkp/FileProver.sol\":2341:2342  0 */\n      0x00\n        /* \"privacy/zkp/FileProver.sol\":2333:2343  bytes32(0) */\n      dup1\n      shl\n        /* \"privacy/zkp/FileProver.sol\":2319:2329  commitment */\n      dup6\n        /* \"privacy/zkp/FileProver.sol\":2319:2343  commitment != bytes32(0) */\n      sub\n        /* \"privacy/zkp/FileProver.sol\":2311:2366  require(commitment != bytes32(0), \"Invalid commitment\") */\n      tag_192\n      jumpi\n      mload(0x40)\n      0x08c379a000000000000000000000000000000000000000000000000000000000\n      dup2\n      mstore\n      0x04\n      add\n      tag_193\n      swap1\n      tag_194\n      jump\t// in\n    tag_193:\n      mload(0x40)\n      dup1\n      swap2\n      sub\n      swap1\n      revert\n    tag_192:\n        /* \"privacy/zkp/FileProver.sol\":2424:2425  0 */\n      0x00\n        /* \"privacy/zkp/FileProver.sol\":2416:2426  bytes32(0) */\n      dup1\n      shl\n        /* \"privacy/zkp/FileProver.sol\":2384:2389  files */\n      0x09\n        /* \"privacy/zkp/FileProver.sol\":2384:2401  files[commitment] */\n      0x00\n        /* \"privacy/zkp/FileProver.sol\":2390:2400  commitment */\n      dup8\n        /* \"privacy/zkp/FileProver.sol\":2384:2401  files[commitment] */\n      dup2\n      mstore\n      0x20\n      add\n      swap1\n      dup2\n      mstore\n      0x20\n      add\n      0x00\n      keccak256\n        /* \"privacy/zkp/FileProver.sol\":2384:2412  files[commitment].commitment */\n      0x00\n      add\n      sload\n        /* \"privacy/zkp/FileProver.sol\":2384:2426  files[commitment].commitment == bytes32(0) */\n      eq\n        /* \"privacy/zkp/FileProver.sol\":2376:2450  require(files[commitment].commitment == bytes32(0), \"File already exists\") */\n      tag_195\n      jumpi\n      mload(0x40)\n      0x08c379a000000000000000000000000000000000000000000000000000000000\n      dup2\n      mstore\n      0x04\n      add\n      tag_196\n      swap1\n      tag_197\n      jump\t// in\n    tag_196:\n      mload(0x40)\n      dup1\n      swap2\n      sub\n      swap1\n      revert\n    tag_195:\n        /* \"privacy/zkp/FileProver.sol\":2522:2545  uint256[1] memory input */\n      0x00\n        /* \"privacy/zkp/FileProver.sol\":2522:2578  uint256[1] memory input = [uint256(uint160(msg.sender))] */\n      mload(0x40)\n      dup1\n      0x20\n      add\n      0x40\n      mstore\n      dup1\n        /* \"privacy/zkp/FileProver.sol\":2565:2575  msg.sender */\n      caller\n        /* \"privacy/zkp/FileProver.sol\":2549:2577  uint256(uint160(msg.sender)) */\n      0xffffffffffffffffffffffffffffffffffffffff\n      and\n        /* \"privacy/zkp/FileProver.sol\":2522:2578  uint256[1] memory input = [uint256(uint160(msg.sender))] */\n      dup2\n      mstore\n      pop\n      swap1\n      pop\n        /* \"privacy/zkp/FileProver.sol\":2594:2606  bool success */\n      0x00\n        /* \"privacy/zkp/FileProver.sol\":2609:2619  bitTorrent */\n      immutable(\"0xd667c05f4ea0c4d90d21d40bfcf145844cbad8a35a13308e33b3fcd34757a132\")\n        /* \"privacy/zkp/FileProver.sol\":2609:2627  bitTorrent.addFile */\n      0xffffffffffffffffffffffffffffffffffffffff\n      and\n      0x4f256693\n        /* \"privacy/zkp/FileProver.sol\":2628:2638  commitment */\n      dup9\n        /* \"privacy/zkp/FileProver.sol\":2640:2652  metadataHash */\n      dup9\n        /* \"privacy/zkp/FileProver.sol\":2609:2653  bitTorrent.addFile(commitment, metadataHash) */\n      mload(0x40)\n      dup4\n      0xffffffff\n      and\n      0xe0\n      shl\n      dup2\n      mstore\n      0x04\n      add\n      tag_198\n      swap3\n      swap2\n      swap1\n      tag_199\n      jump\t// in\n    tag_198:\n      0x20\n      mload(0x40)\n      dup1\n      dup4\n      sub\n      dup2\n      0x00\n      dup8\n      gas\n      call\n      iszero\n      dup1\n      iszero\n      tag_201\n      jumpi\n      returndatasize\n      0x00\n      dup1\n      returndatacopy\n      revert(0x00, returndatasize)\n    tag_201:\n      pop\n      pop\n      pop\n      pop\n      mload(0x40)\n      returndatasize\n      not(0x1f)\n      0x1f\n      dup3\n      add\n      and\n      dup3\n      add\n      dup1\n      0x40\n      mstore\n      pop\n      dup2\n      add\n      swap1\n      tag_202\n      swap2\n      swap1\n      tag_203\n      jump\t// in\n    tag_202:\n        /* \"privacy/zkp/FileProver.sol\":2594:2653  bool success = bitTorrent.addFile(commitment, metadataHash) */\n      swap1\n      pop\n        /* \"privacy/zkp/FileProver.sol\":2668:2675  success */\n      dup1\n        /* \"privacy/zkp/FileProver.sol\":2660:2710  require(success, \"BitTorrent registration failed\") */\n      tag_204\n      jumpi\n      mload(0x40)\n      0x08c379a000000000000000000000000000000000000000000000000000000000\n      dup2\n      mstore\n      0x04\n      add\n      tag_205\n      swap1\n      tag_206\n      jump\t// in\n    tag_205:\n      mload(0x40)\n      dup1\n      swap2\n      sub\n      swap1\n      revert\n    tag_204:\n        /* \"privacy/zkp/FileProver.sol\":2750:2754  this */\n      address\n        /* \"privacy/zkp/FileProver.sol\":2750:2766  this.verifyProof */\n      0xffffffffffffffffffffffffffffffffffffffff\n      and\n      0x1b81f829\n        /* \"privacy/zkp/FileProver.sol\":2767:2772  proof */\n      dup6\n        /* \"privacy/zkp/FileProver.sol\":2774:2779  input */\n      dup5\n        /* \"privacy/zkp/FileProver.sol\":2750:2780  this.verifyProof(proof, input) */\n      mload(0x40)\n      dup4\n      0xffffffff\n      and\n      0xe0\n      shl\n      dup2\n      mstore\n      0x04\n      add\n      tag_207\n      swap3\n      swap2\n      swap1\n      tag_208\n      jump\t// in\n    tag_207:\n      0x20\n      mload(0x40)\n      dup1\n      dup4\n      sub\n      dup2\n      dup7\n      gas\n      staticcall\n      iszero\n      dup1\n      iszero\n      tag_210\n      jumpi\n      returndatasize\n      0x00\n      dup1\n      returndatacopy\n      revert(0x00, returndatasize)\n    tag_210:\n      pop\n      pop\n      pop\n      pop\n      mload(0x40)\n      returndatasize\n      not(0x1f)\n      0x1f\n      dup3\n      add\n      and\n      dup3\n      add\n      dup1\n      0x40\n      mstore\n      pop\n      dup2\n      add\n      swap1\n      tag_211\n      swap2\n      swap1\n      tag_203\n      jump\t// in\n    tag_211:\n        /* \"privacy/zkp/FileProver.sol\":2729:2824  require(... */\n      tag_212\n      jumpi\n      mload(0x40)\n      0x08c379a000000000000000000000000000000000000000000000000000000000\n      dup2\n      mstore\n      0x04\n      add\n      tag_213\n      swap1\n      tag_214\n      jump\t// in\n    tag_213:\n      mload(0x40)\n      dup1\n      swap2\n      sub\n      swap1\n      revert\n    tag_212:\n        /* \"privacy/zkp/FileProver.sol\":2868:2898  FileCommitment storage newFile */\n      0x00\n        /* \"privacy/zkp/FileProver.sol\":2901:2906  files */\n      0x09\n        /* \"privacy/zkp/FileProver.sol\":2901:2918  files[commitment] */\n      0x00\n        /* \"privacy/zkp/FileProver.sol\":2907:2917  commitment */\n      dup10\n        /* \"privacy/zkp/FileProver.sol\":2901:2918  files[commitment] */\n      dup2\n      mstore\n      0x20\n      add\n      swap1\n      dup2\n      mstore\n      0x20\n      add\n      0x00\n      keccak256\n        /* \"privacy/zkp/FileProver.sol\":2868:2918  FileCommitment storage newFile = files[commitment] */\n      swap1\n      pop\n        /* \"privacy/zkp/FileProver.sol\":2949:2959  commitment */\n      dup8\n        /* \"privacy/zkp/FileProver.sol\":2928:2935  newFile */\n      dup2\n        /* \"privacy/zkp/FileProver.sol\":2928:2946  newFile.commitment */\n      0x00\n      add\n        /* \"privacy/zkp/FileProver.sol\":2928:2959  newFile.commitment = commitment */\n      dup2\n      swap1\n      sstore\n      pop\n        /* \"privacy/zkp/FileProver.sol\":2992:3004  metadataHash */\n      dup7\n        /* \"privacy/zkp/FileProver.sol\":2969:2976  newFile */\n      dup2\n        /* \"privacy/zkp/FileProver.sol\":2969:2989  newFile.metadataHash */\n      0x01\n      add\n        /* \"privacy/zkp/FileProver.sol\":2969:3004  newFile.metadataHash = metadataHash */\n      dup2\n      swap1\n      sstore\n      pop\n        /* \"privacy/zkp/FileProver.sol\":3029:3033  size */\n      dup6\n        /* \"privacy/zkp/FileProver.sol\":3014:3021  newFile */\n      dup2\n        /* \"privacy/zkp/FileProver.sol\":3014:3026  newFile.size */\n      0x02\n      add\n        /* \"privacy/zkp/FileProver.sol\":3014:3033  newFile.size = size */\n      dup2\n      swap1\n      sstore\n      pop\n        /* \"privacy/zkp/FileProver.sol\":3059:3069  msg.sender */\n      caller\n        /* \"privacy/zkp/FileProver.sol\":3043:3050  newFile */\n      dup2\n        /* \"privacy/zkp/FileProver.sol\":3043:3056  newFile.owner */\n      0x03\n      add\n      0x00\n        /* \"privacy/zkp/FileProver.sol\":3043:3069  newFile.owner = msg.sender */\n      0x0100\n      exp\n      dup2\n      sload\n      dup2\n      0xffffffffffffffffffffffffffffffffffffffff\n      mul\n      not\n      and\n      swap1\n      dup4\n      0xffffffffffffffffffffffffffffffffffffffff\n      and\n      mul\n      or\n      swap1\n      sstore\n      pop\n        /* \"privacy/zkp/FileProver.sol\":3101:3106  false */\n      0x00\n        /* \"privacy/zkp/FileProver.sol\":3079:3086  newFile */\n      dup2\n        /* \"privacy/zkp/FileProver.sol\":3079:3098  newFile.isEncrypted */\n      0x03\n      add\n      0x14\n        /* \"privacy/zkp/FileProver.sol\":3079:3106  newFile.isEncrypted = false */\n      0x0100\n      exp\n      dup2\n      sload\n      dup2\n      0xff\n      mul\n      not\n      and\n      swap1\n      dup4\n      iszero\n      iszero\n      mul\n      or\n      swap1\n      sstore\n      pop\n        /* \"privacy/zkp/FileProver.sol\":3150:3151  0 */\n      0x00\n        /* \"privacy/zkp/FileProver.sol\":3142:3152  bytes32(0) */\n      dup1\n      shl\n        /* \"privacy/zkp/FileProver.sol\":3116:3123  newFile */\n      dup2\n        /* \"privacy/zkp/FileProver.sol\":3116:3139  newFile.encryptionProof */\n      0x04\n      add\n        /* \"privacy/zkp/FileProver.sol\":3116:3152  newFile.encryptionProof = bytes32(0) */\n      dup2\n      swap1\n      sstore\n      pop\n        /* \"privacy/zkp/FileProver.sol\":3182:3197  block.timestamp */\n      timestamp\n        /* \"privacy/zkp/FileProver.sol\":3162:3169  newFile */\n      dup2\n        /* \"privacy/zkp/FileProver.sol\":3162:3179  newFile.timestamp */\n      0x05\n      add\n        /* \"privacy/zkp/FileProver.sol\":3162:3197  newFile.timestamp = block.timestamp */\n      dup2\n      swap1\n      sstore\n      pop\n        /* \"privacy/zkp/FileProver.sol\":3352:3362  msg.sender */\n      caller\n        /* \"privacy/zkp/FileProver.sol\":3271:3419  FileProofVerified(... */\n      0xffffffffffffffffffffffffffffffffffffffff\n      and\n        /* \"privacy/zkp/FileProver.sol\":3326:3338  metadataHash */\n      dup8\n        /* \"privacy/zkp/FileProver.sol\":3302:3312  commitment */\n      dup10\n        /* \"privacy/zkp/FileProver.sol\":3271:3419  FileProofVerified(... */\n      0x7ee1e7c298f2a2cae66c75263967d60fc11cfd9b694058af3fa496d83548fd24\n        /* \"privacy/zkp/FileProver.sol\":3376:3380  size */\n      dup10\n        /* \"privacy/zkp/FileProver.sol\":3394:3409  block.timestamp */\n      timestamp\n        /* \"privacy/zkp/FileProver.sol\":3271:3419  FileProofVerified(... */\n      mload(0x40)\n      tag_215\n      swap3\n      swap2\n      swap1\n      tag_216\n      jump\t// in\n    tag_215:\n      mload(0x40)\n      dup1\n      swap2\n      sub\n      swap1\n      log4\n        /* \"privacy/zkp/FileProver.sol\":3437:3441  true */\n      0x01\n        /* \"privacy/zkp/FileProver.sol\":3430:3441  return true */\n      swap4\n      pop\n      pop\n      pop\n      pop\n        /* \"@openzeppelin/contracts/utils/ReentrancyGuard.sol\":2542:2562  _nonReentrantAfter() */\n      tag_217\n        /* \"@openzeppelin/contracts/utils/ReentrancyGuard.sol\":2542:2560  _nonReentrantAfter */\n      tag_218\n        /* \"@openzeppelin/contracts/utils/ReentrancyGuard.sol\":2542:2562  _nonReentrantAfter() */\n      jump\t// in\n    tag_217:\n        /* \"privacy/zkp/FileProver.sol\":2104:3448  function verifyFileProof(... */\n      swap5\n      swap4\n      pop\n      pop\n      pop\n      pop\n      jump\t// out\n        /* \"@openzeppelin/contracts/access/Ownable.sol\":2543:2758  function transferOwnership(address newOwner) public virtual onlyOwner {... */\n    tag_103:\n        /* \"@openzeppelin/contracts/access/Ownable.sol\":1531:1544  _checkOwner() */\n      tag_220\n        /* \"@openzeppelin/contracts/access/Ownable.sol\":1531:1542  _checkOwner */\n      tag_130\n        /* \"@openzeppelin/contracts/access/Ownable.sol\":1531:1544  _checkOwner() */\n      jump\t// in\n    tag_220:\n        /* \"@openzeppelin/contracts/access/Ownable.sol\":2647:2648  0 */\n      0x00\n        /* \"@openzeppelin/contracts/access/Ownable.sol\":2627:2649  newOwner == address(0) */\n      0xffffffffffffffffffffffffffffffffffffffff\n      and\n        /* \"@openzeppelin/contracts/access/Ownable.sol\":2627:2635  newOwner */\n      dup2\n        /* \"@openzeppelin/contracts/access/Ownable.sol\":2627:2649  newOwner == address(0) */\n      0xffffffffffffffffffffffffffffffffffffffff\n      and\n      sub\n        /* \"@openzeppelin/contracts/access/Ownable.sol\":2623:2714  if (newOwner == address(0)) {... */\n      tag_222\n      jumpi\n        /* \"@openzeppelin/contracts/access/Ownable.sol\":2700:2701  0 */\n      0x00\n        /* \"@openzeppelin/contracts/access/Ownable.sol\":2672:2703  OwnableInvalidOwner(address(0)) */\n      mload(0x40)\n      0x1e4fbdf700000000000000000000000000000000000000000000000000000000\n      dup2\n      mstore\n      0x04\n      add\n      tag_223\n      swap2\n      swap1\n      tag_75\n      jump\t// in\n    tag_223:\n      mload(0x40)\n      dup1\n      swap2\n      sub\n      swap1\n      revert\n        /* \"@openzeppelin/contracts/access/Ownable.sol\":2623:2714  if (newOwner == address(0)) {... */\n    tag_222:\n        /* \"@openzeppelin/contracts/access/Ownable.sol\":2723:2751  _transferOwnership(newOwner) */\n      tag_224\n        /* \"@openzeppelin/contracts/access/Ownable.sol\":2742:2750  newOwner */\n      dup2\n        /* \"@openzeppelin/contracts/access/Ownable.sol\":2723:2741  _transferOwnership */\n      tag_139\n        /* \"@openzeppelin/contracts/access/Ownable.sol\":2723:2751  _transferOwnership(newOwner) */\n      jump\t// in\n    tag_224:\n        /* \"@openzeppelin/contracts/access/Ownable.sol\":2543:2758  function transferOwnership(address newOwner) public virtual onlyOwner {... */\n      pop\n      jump\t// out\n        /* \"privacy/zkp/FileProver.sol\":666:733  mapping(uint256 => mapping(uint256 => uint256)) public icComponents */\n    tag_106:\n      mstore(0x20, 0x07)\n      dup2\n      0x00\n      mstore\n      mstore(0x20, keccak256(0x00, 0x40))\n      dup1\n      0x00\n      mstore\n      keccak256(0x00, 0x40)\n      0x00\n      swap2\n      pop\n      swap2\n      pop\n      pop\n      sload\n      dup2\n      jump\t// out\n        /* \"privacy/zkp/FileProver.sol\":4707:5744  function _verifyProof(... */\n    tag_127:\n        /* \"privacy/zkp/FileProver.sol\":4881:4885  bool */\n      0x00\n        /* \"privacy/zkp/FileProver.sol\":4925:4933  icLength */\n      sload(0x08)\n        /* \"privacy/zkp/FileProver.sol\":4920:4921  1 */\n      0x01\n        /* \"privacy/zkp/FileProver.sol\":4905:4917  input.length */\n      dup1\n        /* \"privacy/zkp/FileProver.sol\":4905:4921  input.length + 1 */\n      tag_226\n      swap2\n      swap1\n      tag_227\n      jump\t// in\n    tag_226:\n        /* \"privacy/zkp/FileProver.sol\":4905:4933  input.length + 1 == icLength */\n      eq\n        /* \"privacy/zkp/FileProver.sol\":4897:4958  require(input.length + 1 == icLength, \"Invalid input length\") */\n      tag_228\n      jumpi\n      mload(0x40)\n      0x08c379a000000000000000000000000000000000000000000000000000000000\n      dup2\n      mstore\n      0x04\n      add\n      tag_229\n      swap1\n      tag_230\n      jump\t// in\n    tag_229:\n      mload(0x40)\n      dup1\n      swap2\n      sub\n      swap1\n      revert\n    tag_228:\n        /* \"privacy/zkp/FileProver.sol\":4969:4991  uint256[2] memory vk_x */\n      0x00\n        /* \"privacy/zkp/FileProver.sol\":4969:5034  uint256[2] memory vk_x = [icComponents[0][0], icComponents[0][1]] */\n      mload(0x40)\n      dup1\n      0x40\n      add\n      0x40\n      mstore\n      dup1\n        /* \"privacy/zkp/FileProver.sol\":4995:5007  icComponents */\n      0x07\n        /* \"privacy/zkp/FileProver.sol\":4995:5010  icComponents[0] */\n      0x00\n        /* \"privacy/zkp/FileProver.sol\":5008:5009  0 */\n      dup1\n        /* \"privacy/zkp/FileProver.sol\":4995:5010  icComponents[0] */\n      dup2\n      mstore\n      0x20\n      add\n      swap1\n      dup2\n      mstore\n      0x20\n      add\n      0x00\n      keccak256\n        /* \"privacy/zkp/FileProver.sol\":4995:5013  icComponents[0][0] */\n      0x00\n        /* \"privacy/zkp/FileProver.sol\":5011:5012  0 */\n      dup1\n        /* \"privacy/zkp/FileProver.sol\":4995:5013  icComponents[0][0] */\n      dup2\n      mstore\n      0x20\n      add\n      swap1\n      dup2\n      mstore\n      0x20\n      add\n      0x00\n      keccak256\n      sload\n        /* \"privacy/zkp/FileProver.sol\":4969:5034  uint256[2] memory vk_x = [icComponents[0][0], icComponents[0][1]] */\n      dup2\n      mstore\n      0x20\n      add\n        /* \"privacy/zkp/FileProver.sol\":5015:5027  icComponents */\n      0x07\n        /* \"privacy/zkp/FileProver.sol\":5015:5030  icComponents[0] */\n      0x00\n        /* \"privacy/zkp/FileProver.sol\":5028:5029  0 */\n      dup1\n        /* \"privacy/zkp/FileProver.sol\":5015:5030  icComponents[0] */\n      dup2\n      mstore\n      0x20\n      add\n      swap1\n      dup2\n      mstore\n      0x20\n      add\n      0x00\n      keccak256\n        /* \"privacy/zkp/FileProver.sol\":5015:5033  icComponents[0][1] */\n      0x00\n        /* \"privacy/zkp/FileProver.sol\":5031:5032  1 */\n      0x01\n        /* \"privacy/zkp/FileProver.sol\":5015:5033  icComponents[0][1] */\n      dup2\n      mstore\n      0x20\n      add\n      swap1\n      dup2\n      mstore\n      0x20\n      add\n      0x00\n      keccak256\n      sload\n        /* \"privacy/zkp/FileProver.sol\":4969:5034  uint256[2] memory vk_x = [icComponents[0][0], icComponents[0][1]] */\n      dup2\n      mstore\n      pop\n      swap1\n      pop\n        /* \"privacy/zkp/FileProver.sol\":5050:5059  uint256 i */\n      0x00\n        /* \"privacy/zkp/FileProver.sol\":5045:5413  for (uint256 i = 0; i < input.length; i++) {... */\n    tag_231:\n        /* \"privacy/zkp/FileProver.sol\":5069:5081  input.length */\n      0x01\n        /* \"privacy/zkp/FileProver.sol\":5065:5066  i */\n      dup2\n        /* \"privacy/zkp/FileProver.sol\":5065:5081  i < input.length */\n      lt\n        /* \"privacy/zkp/FileProver.sol\":5045:5413  for (uint256 i = 0; i < input.length; i++) {... */\n      iszero\n      tag_232\n      jumpi\n        /* \"privacy/zkp/FileProver.sol\":5103:5112  uint256 x */\n      0x00\n        /* \"privacy/zkp/FileProver.sol\":5114:5123  uint256 y */\n      dup1\n        /* \"privacy/zkp/FileProver.sol\":5127:5243  _scalarMul(... */\n      tag_234\n      mload(0x40)\n      dup1\n      0x40\n      add\n      0x40\n      mstore\n      dup1\n        /* \"privacy/zkp/FileProver.sol\":5156:5168  icComponents */\n      0x07\n        /* \"privacy/zkp/FileProver.sol\":5156:5175  icComponents[i + 1] */\n      0x00\n        /* \"privacy/zkp/FileProver.sol\":5173:5174  1 */\n      0x01\n        /* \"privacy/zkp/FileProver.sol\":5169:5170  i */\n      dup9\n        /* \"privacy/zkp/FileProver.sol\":5169:5174  i + 1 */\n      tag_235\n      swap2\n      swap1\n      tag_227\n      jump\t// in\n    tag_235:\n        /* \"privacy/zkp/FileProver.sol\":5156:5175  icComponents[i + 1] */\n      dup2\n      mstore\n      0x20\n      add\n      swap1\n      dup2\n      mstore\n      0x20\n      add\n      0x00\n      keccak256\n        /* \"privacy/zkp/FileProver.sol\":5156:5178  icComponents[i + 1][0] */\n      0x00\n        /* \"privacy/zkp/FileProver.sol\":5176:5177  0 */\n      dup1\n        /* \"privacy/zkp/FileProver.sol\":5156:5178  icComponents[i + 1][0] */\n      dup2\n      mstore\n      0x20\n      add\n      swap1\n      dup2\n      mstore\n      0x20\n      add\n      0x00\n      keccak256\n      sload\n        /* \"privacy/zkp/FileProver.sol\":5127:5243  _scalarMul(... */\n      dup2\n      mstore\n      0x20\n      add\n        /* \"privacy/zkp/FileProver.sol\":5180:5192  icComponents */\n      0x07\n        /* \"privacy/zkp/FileProver.sol\":5180:5199  icComponents[i + 1] */\n      0x00\n        /* \"privacy/zkp/FileProver.sol\":5197:5198  1 */\n      0x01\n        /* \"privacy/zkp/FileProver.sol\":5193:5194  i */\n      dup9\n        /* \"privacy/zkp/FileProver.sol\":5193:5198  i + 1 */\n      tag_236\n      swap2\n      swap1\n      tag_227\n      jump\t// in\n    tag_236:\n        /* \"privacy/zkp/FileProver.sol\":5180:5199  icComponents[i + 1] */\n      dup2\n      mstore\n      0x20\n      add\n      swap1\n      dup2\n      mstore\n      0x20\n      add\n      0x00\n      keccak256\n        /* \"privacy/zkp/FileProver.sol\":5180:5202  icComponents[i + 1][1] */\n      0x00\n        /* \"privacy/zkp/FileProver.sol\":5200:5201  1 */\n      0x01\n        /* \"privacy/zkp/FileProver.sol\":5180:5202  icComponents[i + 1][1] */\n      dup2\n      mstore\n      0x20\n      add\n      swap1\n      dup2\n      mstore\n      0x20\n      add\n      0x00\n      keccak256\n      sload\n        /* \"privacy/zkp/FileProver.sol\":5127:5243  _scalarMul(... */\n      dup2\n      mstore\n      pop\n        /* \"privacy/zkp/FileProver.sol\":5221:5226  input */\n      dup8\n        /* \"privacy/zkp/FileProver.sol\":5227:5228  i */\n      dup6\n        /* \"privacy/zkp/FileProver.sol\":5221:5229  input[i] */\n      0x01\n      dup2\n      lt\n      tag_237\n      jumpi\n      tag_238\n      tag_112\n      jump\t// in\n    tag_238:\n    tag_237:\n      0x20\n      mul\n      add\n      mload\n        /* \"privacy/zkp/FileProver.sol\":5127:5137  _scalarMul */\n      tag_239\n        /* \"privacy/zkp/FileProver.sol\":5127:5243  _scalarMul(... */\n      jump\t// in\n    tag_234:\n        /* \"privacy/zkp/FileProver.sol\":5102:5243  (uint256 x, uint256 y) = _scalarMul(... */\n      swap2\n      pop\n      swap2\n      pop\n        /* \"privacy/zkp/FileProver.sol\":5291:5402  _pointAdd(... */\n      tag_240\n        /* \"privacy/zkp/FileProver.sol\":5318:5322  vk_x */\n      dup5\n        /* \"privacy/zkp/FileProver.sol\":5323:5324  0 */\n      0x00\n        /* \"privacy/zkp/FileProver.sol\":5318:5325  vk_x[0] */\n      0x02\n      dup2\n      lt\n      tag_241\n      jumpi\n      tag_242\n      tag_112\n      jump\t// in\n    tag_242:\n    tag_241:\n      0x20\n      mul\n      add\n      mload\n        /* \"privacy/zkp/FileProver.sol\":5343:5347  vk_x */\n      dup6\n        /* \"privacy/zkp/FileProver.sol\":5348:5349  1 */\n      0x01\n        /* \"privacy/zkp/FileProver.sol\":5343:5350  vk_x[1] */\n      0x02\n      dup2\n      lt\n      tag_243\n      jumpi\n      tag_244\n      tag_112\n      jump\t// in\n    tag_244:\n    tag_243:\n      0x20\n      mul\n      add\n      mload\n        /* \"privacy/zkp/FileProver.sol\":5368:5369  x */\n      dup5\n        /* \"privacy/zkp/FileProver.sol\":5387:5388  y */\n      dup5\n        /* \"privacy/zkp/FileProver.sol\":5291:5300  _pointAdd */\n      tag_245\n        /* \"privacy/zkp/FileProver.sol\":5291:5402  _pointAdd(... */\n      jump\t// in\n    tag_240:\n        /* \"privacy/zkp/FileProver.sol\":5271:5275  vk_x */\n      dup6\n        /* \"privacy/zkp/FileProver.sol\":5276:5277  0 */\n      0x00\n        /* \"privacy/zkp/FileProver.sol\":5271:5278  vk_x[0] */\n      0x02\n      dup2\n      lt\n      tag_246\n      jumpi\n      tag_247\n      tag_112\n      jump\t// in\n    tag_247:\n    tag_246:\n      0x20\n      mul\n      add\n        /* \"privacy/zkp/FileProver.sol\":5280:5284  vk_x */\n      dup7\n        /* \"privacy/zkp/FileProver.sol\":5285:5286  1 */\n      0x01\n        /* \"privacy/zkp/FileProver.sol\":5280:5287  vk_x[1] */\n      0x02\n      dup2\n      lt\n      tag_248\n      jumpi\n      tag_249\n      tag_112\n      jump\t// in\n    tag_249:\n    tag_248:\n      0x20\n      mul\n      add\n        /* \"privacy/zkp/FileProver.sol\":5270:5402  (vk_x[0], vk_x[1]) = _pointAdd(... */\n      dup3\n      dup2\n      mstore\n      pop\n      dup3\n      dup2\n      mstore\n      pop\n      pop\n      pop\n        /* \"privacy/zkp/FileProver.sol\":5088:5413  {... */\n      pop\n      pop\n        /* \"privacy/zkp/FileProver.sol\":5083:5086  i++ */\n      dup1\n      dup1\n      0x01\n      add\n      swap2\n      pop\n      pop\n        /* \"privacy/zkp/FileProver.sol\":5045:5413  for (uint256 i = 0; i < input.length; i++) {... */\n      jump(tag_231)\n    tag_232:\n      pop\n        /* \"privacy/zkp/FileProver.sol\":5430:5737  _verifyPairing(... */\n      tag_250\n        /* \"privacy/zkp/FileProver.sol\":5458:5459  a */\n      dup7\n        /* \"privacy/zkp/FileProver.sol\":5473:5474  b */\n      dup7\n        /* \"privacy/zkp/FileProver.sol\":5430:5737  _verifyPairing(... */\n      mload(0x40)\n      dup1\n      0x40\n      add\n      0x40\n      mstore\n      dup1\n        /* \"privacy/zkp/FileProver.sol\":5489:5504  alphaComponents */\n      0x03\n        /* \"privacy/zkp/FileProver.sol\":5489:5507  alphaComponents[0] */\n      0x00\n        /* \"privacy/zkp/FileProver.sol\":5505:5506  0 */\n      dup1\n        /* \"privacy/zkp/FileProver.sol\":5489:5507  alphaComponents[0] */\n      dup2\n      mstore\n      0x20\n      add\n      swap1\n      dup2\n      mstore\n      0x20\n      add\n      0x00\n      keccak256\n      sload\n        /* \"privacy/zkp/FileProver.sol\":5430:5737  _verifyPairing(... */\n      dup2\n      mstore\n      0x20\n      add\n        /* \"privacy/zkp/FileProver.sol\":5509:5524  alphaComponents */\n      0x03\n        /* \"privacy/zkp/FileProver.sol\":5509:5527  alphaComponents[1] */\n      0x00\n        /* \"privacy/zkp/FileProver.sol\":5525:5526  1 */\n      0x01\n        /* \"privacy/zkp/FileProver.sol\":5509:5527  alphaComponents[1] */\n      dup2\n      mstore\n      0x20\n      add\n      swap1\n      dup2\n      mstore\n      0x20\n      add\n      0x00\n      keccak256\n      sload\n        /* \"privacy/zkp/FileProver.sol\":5430:5737  _verifyPairing(... */\n      dup2\n      mstore\n      pop\n      mload(0x40)\n      dup1\n      0x40\n      add\n      0x40\n      mstore\n      dup1\n        /* \"privacy/zkp/FileProver.sol\":5543:5557  betaComponents */\n      0x04\n        /* \"privacy/zkp/FileProver.sol\":5543:5560  betaComponents[0] */\n      0x00\n        /* \"privacy/zkp/FileProver.sol\":5558:5559  0 */\n      dup1\n        /* \"privacy/zkp/FileProver.sol\":5543:5560  betaComponents[0] */\n      dup2\n      mstore\n      0x20\n      add\n      swap1\n      dup2\n      mstore\n      0x20\n      add\n      0x00\n      keccak256\n        /* \"privacy/zkp/FileProver.sol\":5543:5563  betaComponents[0][0] */\n      0x00\n        /* \"privacy/zkp/FileProver.sol\":5561:5562  0 */\n      dup1\n        /* \"privacy/zkp/FileProver.sol\":5543:5563  betaComponents[0][0] */\n      dup2\n      mstore\n      0x20\n      add\n      swap1\n      dup2\n      mstore\n      0x20\n      add\n      0x00\n      keccak256\n      sload\n        /* \"privacy/zkp/FileProver.sol\":5430:5737  _verifyPairing(... */\n      dup2\n      mstore\n      0x20\n      add\n        /* \"privacy/zkp/FileProver.sol\":5565:5579  betaComponents */\n      0x04\n        /* \"privacy/zkp/FileProver.sol\":5565:5582  betaComponents[0] */\n      0x00\n        /* \"privacy/zkp/FileProver.sol\":5580:5581  0 */\n      dup1\n        /* \"privacy/zkp/FileProver.sol\":5565:5582  betaComponents[0] */\n      dup2\n      mstore\n      0x20\n      add\n      swap1\n      dup2\n      mstore\n      0x20\n      add\n      0x00\n      keccak256\n        /* \"privacy/zkp/FileProver.sol\":5565:5585  betaComponents[0][1] */\n      0x00\n        /* \"privacy/zkp/FileProver.sol\":5583:5584  1 */\n      0x01\n        /* \"privacy/zkp/FileProver.sol\":5565:5585  betaComponents[0][1] */\n      dup2\n      mstore\n      0x20\n      add\n      swap1\n      dup2\n      mstore\n      0x20\n      add\n      0x00\n      keccak256\n      sload\n        /* \"privacy/zkp/FileProver.sol\":5430:5737  _verifyPairing(... */\n      dup2\n      mstore\n      pop\n        /* \"privacy/zkp/FileProver.sol\":5600:5604  vk_x */\n      dup6\n        /* \"privacy/zkp/FileProver.sol\":5430:5737  _verifyPairing(... */\n      mload(0x40)\n      dup1\n      0x40\n      add\n      0x40\n      mstore\n      dup1\n        /* \"privacy/zkp/FileProver.sol\":5619:5634  gammaComponents */\n      0x05\n        /* \"privacy/zkp/FileProver.sol\":5619:5637  gammaComponents[0] */\n      0x00\n        /* \"privacy/zkp/FileProver.sol\":5635:5636  0 */\n      dup1\n        /* \"privacy/zkp/FileProver.sol\":5619:5637  gammaComponents[0] */\n      dup2\n      mstore\n      0x20\n      add\n      swap1\n      dup2\n      mstore\n      0x20\n      add\n      0x00\n      keccak256\n      sload\n        /* \"privacy/zkp/FileProver.sol\":5430:5737  _verifyPairing(... */\n      dup2\n      mstore\n      0x20\n      add\n        /* \"privacy/zkp/FileProver.sol\":5639:5654  gammaComponents */\n      0x05\n        /* \"privacy/zkp/FileProver.sol\":5639:5657  gammaComponents[1] */\n      0x00\n        /* \"privacy/zkp/FileProver.sol\":5655:5656  1 */\n      0x01\n        /* \"privacy/zkp/FileProver.sol\":5639:5657  gammaComponents[1] */\n      dup2\n      mstore\n      0x20\n      add\n      swap1\n      dup2\n      mstore\n      0x20\n      add\n      0x00\n      keccak256\n      sload\n        /* \"privacy/zkp/FileProver.sol\":5430:5737  _verifyPairing(... */\n      dup2\n      mstore\n      pop\n        /* \"privacy/zkp/FileProver.sol\":5672:5673  c */\n      dup11\n        /* \"privacy/zkp/FileProver.sol\":5430:5737  _verifyPairing(... */\n      mload(0x40)\n      dup1\n      0x40\n      add\n      0x40\n      mstore\n      dup1\n        /* \"privacy/zkp/FileProver.sol\":5688:5703  deltaComponents */\n      0x06\n        /* \"privacy/zkp/FileProver.sol\":5688:5706  deltaComponents[0] */\n      0x00\n        /* \"privacy/zkp/FileProver.sol\":5704:5705  0 */\n      dup1\n        /* \"privacy/zkp/FileProver.sol\":5688:5706  deltaComponents[0] */\n      dup2\n      mstore\n      0x20\n      add\n      swap1\n      dup2\n      mstore\n      0x20\n      add\n      0x00\n      keccak256\n      sload\n        /* \"privacy/zkp/FileProver.sol\":5430:5737  _verifyPairing(... */\n      dup2\n      mstore\n      0x20\n      add\n        /* \"privacy/zkp/FileProver.sol\":5708:5723  deltaComponents */\n      0x06\n        /* \"privacy/zkp/FileProver.sol\":5708:5726  deltaComponents[1] */\n      0x00\n        /* \"privacy/zkp/FileProver.sol\":5724:5725  1 */\n      0x01\n        /* \"privacy/zkp/FileProver.sol\":5708:5726  deltaComponents[1] */\n      dup2\n      mstore\n      0x20\n      add\n      swap1\n      dup2\n      mstore\n      0x20\n      add\n      0x00\n      keccak256\n      sload\n        /* \"privacy/zkp/FileProver.sol\":5430:5737  _verifyPairing(... */\n      dup2\n      mstore\n      pop\n        /* \"privacy/zkp/FileProver.sol\":5430:5444  _verifyPairing */\n      tag_251\n        /* \"privacy/zkp/FileProver.sol\":5430:5737  _verifyPairing(... */\n      jump\t// in\n    tag_250:\n        /* \"privacy/zkp/FileProver.sol\":5423:5737  return _verifyPairing(... */\n      swap2\n      pop\n      pop\n        /* \"privacy/zkp/FileProver.sol\":4707:5744  function _verifyProof(... */\n      swap5\n      swap4\n      pop\n      pop\n      pop\n      pop\n      jump\t// out\n        /* \"@openzeppelin/contracts/access/Ownable.sol\":1796:1958  function _checkOwner() internal view virtual {... */\n    tag_130:\n        /* \"@openzeppelin/contracts/access/Ownable.sol\":1866:1878  _msgSender() */\n      tag_253\n        /* \"@openzeppelin/contracts/access/Ownable.sol\":1866:1876  _msgSender */\n      tag_254\n        /* \"@openzeppelin/contracts/access/Ownable.sol\":1866:1878  _msgSender() */\n      jump\t// in\n    tag_253:\n        /* \"@openzeppelin/contracts/access/Ownable.sol\":1855:1878  owner() != _msgSender() */\n      0xffffffffffffffffffffffffffffffffffffffff\n      and\n        /* \"@openzeppelin/contracts/access/Ownable.sol\":1855:1862  owner() */\n      tag_255\n        /* \"@openzeppelin/contracts/access/Ownable.sol\":1855:1860  owner */\n      tag_73\n        /* \"@openzeppelin/contracts/access/Ownable.sol\":1855:1862  owner() */\n      jump\t// in\n    tag_255:\n        /* \"@openzeppelin/contracts/access/Ownable.sol\":1855:1878  owner() != _msgSender() */\n      0xffffffffffffffffffffffffffffffffffffffff\n      and\n      eq\n        /* \"@openzeppelin/contracts/access/Ownable.sol\":1851:1952  if (owner() != _msgSender()) {... */\n      tag_256\n      jumpi\n        /* \"@openzeppelin/contracts/access/Ownable.sol\":1928:1940  _msgSender() */\n      tag_257\n        /* \"@openzeppelin/contracts/access/Ownable.sol\":1928:1938  _msgSender */\n      tag_254\n        /* \"@openzeppelin/contracts/access/Ownable.sol\":1928:1940  _msgSender() */\n      jump\t// in\n    tag_257:\n        /* \"@openzeppelin/contracts/access/Ownable.sol\":1901:1941  OwnableUnauthorizedAccount(_msgSender()) */\n      mload(0x40)\n      0x118cdaa700000000000000000000000000000000000000000000000000000000\n      dup2\n      mstore\n      0x04\n      add\n      tag_258\n      swap2\n      swap1\n      tag_75\n      jump\t// in\n    tag_258:\n      mload(0x40)\n      dup1\n      swap2\n      sub\n      swap1\n      revert\n        /* \"@openzeppelin/contracts/access/Ownable.sol\":1851:1952  if (owner() != _msgSender()) {... */\n    tag_256:\n        /* \"@openzeppelin/contracts/access/Ownable.sol\":1796:1958  function _checkOwner() internal view virtual {... */\n      jump\t// out\n        /* \"@openzeppelin/contracts/utils/Pausable.sol\":2710:2827  function _unpause() internal virtual whenPaused {... */\n    tag_133:\n        /* \"@openzeppelin/contracts/utils/Pausable.sol\":1721:1737  _requirePaused() */\n      tag_260\n        /* \"@openzeppelin/contracts/utils/Pausable.sol\":1721:1735  _requirePaused */\n      tag_261\n        /* \"@openzeppelin/contracts/utils/Pausable.sol\":1721:1737  _requirePaused() */\n      jump\t// in\n    tag_260:\n        /* \"@openzeppelin/contracts/utils/Pausable.sol\":2778:2783  false */\n      0x00\n        /* \"@openzeppelin/contracts/utils/Pausable.sol\":2768:2775  _paused */\n      0x02\n      0x00\n        /* \"@openzeppelin/contracts/utils/Pausable.sol\":2768:2783  _paused = false */\n      0x0100\n      exp\n      dup2\n      sload\n      dup2\n      0xff\n      mul\n      not\n      and\n      swap1\n      dup4\n      iszero\n      iszero\n      mul\n      or\n      swap1\n      sstore\n      pop\n        /* \"@openzeppelin/contracts/utils/Pausable.sol\":2798:2820  Unpaused(_msgSender()) */\n      0x5db9ee0a495bf2e6ff9c91a7834c1ba4fdd244a5e8aa4e537bd38aeae4b073aa\n        /* \"@openzeppelin/contracts/utils/Pausable.sol\":2807:2819  _msgSender() */\n      tag_263\n        /* \"@openzeppelin/contracts/utils/Pausable.sol\":2807:2817  _msgSender */\n      tag_254\n        /* \"@openzeppelin/contracts/utils/Pausable.sol\":2807:2819  _msgSender() */\n      jump\t// in\n    tag_263:\n        /* \"@openzeppelin/contracts/utils/Pausable.sol\":2798:2820  Unpaused(_msgSender()) */\n      mload(0x40)\n      tag_264\n      swap2\n      swap1\n      tag_75\n      jump\t// in\n    tag_264:\n      mload(0x40)\n      dup1\n      swap2\n      sub\n      swap1\n      log1\n        /* \"@openzeppelin/contracts/utils/Pausable.sol\":2710:2827  function _unpause() internal virtual whenPaused {... */\n      jump\t// out\n        /* \"@openzeppelin/contracts/access/Ownable.sol\":2912:3099  function _transferOwnership(address newOwner) internal virtual {... */\n    tag_139:\n        /* \"@openzeppelin/contracts/access/Ownable.sol\":2985:3001  address oldOwner */\n      0x00\n        /* \"@openzeppelin/contracts/access/Ownable.sol\":3004:3010  _owner */\n      dup1\n      0x00\n      swap1\n      sload\n      swap1\n      0x0100\n      exp\n      swap1\n      div\n      0xffffffffffffffffffffffffffffffffffffffff\n      and\n        /* \"@openzeppelin/contracts/access/Ownable.sol\":2985:3010  address oldOwner = _owner */\n      swap1\n      pop\n        /* \"@openzeppelin/contracts/access/Ownable.sol\":3029:3037  newOwner */\n      dup2\n        /* \"@openzeppelin/contracts/access/Ownable.sol\":3020:3026  _owner */\n      0x00\n      dup1\n        /* \"@openzeppelin/contracts/access/Ownable.sol\":3020:3037  _owner = newOwner */\n      0x0100\n      exp\n      dup2\n      sload\n      dup2\n      0xffffffffffffffffffffffffffffffffffffffff\n      mul\n      not\n      and\n      swap1\n      dup4\n      0xffffffffffffffffffffffffffffffffffffffff\n      and\n      mul\n      or\n      swap1\n      sstore\n      pop\n        /* \"@openzeppelin/contracts/access/Ownable.sol\":3083:3091  newOwner */\n      dup2\n        /* \"@openzeppelin/contracts/access/Ownable.sol\":3052:3092  OwnershipTransferred(oldOwner, newOwner) */\n      0xffffffffffffffffffffffffffffffffffffffff\n      and\n        /* \"@openzeppelin/contracts/access/Ownable.sol\":3073:3081  oldOwner */\n      dup2\n        /* \"@openzeppelin/contracts/access/Ownable.sol\":3052:3092  OwnershipTransferred(oldOwner, newOwner) */\n      0xffffffffffffffffffffffffffffffffffffffff\n      and\n      0x8be0079c531659141344cd1fd0a4f28419497f9722a3daafe3b4186f6b6457e0\n      mload(0x40)\n      mload(0x40)\n      dup1\n      swap2\n      sub\n      swap1\n      log3\n        /* \"@openzeppelin/contracts/access/Ownable.sol\":2975:3099  {... */\n      pop\n        /* \"@openzeppelin/contracts/access/Ownable.sol\":2912:3099  function _transferOwnership(address newOwner) internal virtual {... */\n      pop\n      jump\t// out\n        /* \"@openzeppelin/contracts/utils/Pausable.sol\":2463:2578  function _pause() internal virtual whenNotPaused {... */\n    tag_144:\n        /* \"@openzeppelin/contracts/utils/Pausable.sol\":1474:1493  _requireNotPaused() */\n      tag_267\n        /* \"@openzeppelin/contracts/utils/Pausable.sol\":1474:1491  _requireNotPaused */\n      tag_190\n        /* \"@openzeppelin/contracts/utils/Pausable.sol\":1474:1493  _requireNotPaused() */\n      jump\t// in\n    tag_267:\n        /* \"@openzeppelin/contracts/utils/Pausable.sol\":2532:2536  true */\n      0x01\n        /* \"@openzeppelin/contracts/utils/Pausable.sol\":2522:2529  _paused */\n      0x02\n      0x00\n        /* \"@openzeppelin/contracts/utils/Pausable.sol\":2522:2536  _paused = true */\n      0x0100\n      exp\n      dup2\n      sload\n      dup2\n      0xff\n      mul\n      not\n      and\n      swap1\n      dup4\n      iszero\n      iszero\n      mul\n      or\n      swap1\n      sstore\n      pop\n        /* \"@openzeppelin/contracts/utils/Pausable.sol\":2551:2571  Paused(_msgSender()) */\n      0x62e78cea01bee320cd4e420270b5ea74000d11b0c9f74754ebdbfc544b05a258\n        /* \"@openzeppelin/contracts/utils/Pausable.sol\":2558:2570  _msgSender() */\n      tag_269\n        /* \"@openzeppelin/contracts/utils/Pausable.sol\":2558:2568  _msgSender */\n      tag_254\n        /* \"@openzeppelin/contracts/utils/Pausable.sol\":2558:2570  _msgSender() */\n      jump\t// in\n    tag_269:\n        /* \"@openzeppelin/contracts/utils/Pausable.sol\":2551:2571  Paused(_msgSender()) */\n      mload(0x40)\n      tag_270\n      swap2\n      swap1\n      tag_75\n      jump\t// in\n    tag_270:\n      mload(0x40)\n      dup1\n      swap2\n      sub\n      swap1\n      log1\n        /* \"@openzeppelin/contracts/utils/Pausable.sol\":2463:2578  function _pause() internal virtual whenNotPaused {... */\n      jump\t// out\n        /* \"@openzeppelin/contracts/utils/ReentrancyGuard.sol\":2575:2882  function _nonReentrantBefore() private {... */\n    tag_187:\n        /* \"@openzeppelin/contracts/utils/ReentrancyGuard.sol\":1899:1900  2 */\n      0x02\n        /* \"@openzeppelin/contracts/utils/ReentrancyGuard.sol\":2702:2709  _status */\n      sload(0x01)\n        /* \"@openzeppelin/contracts/utils/ReentrancyGuard.sol\":2702:2720  _status == ENTERED */\n      sub\n        /* \"@openzeppelin/contracts/utils/ReentrancyGuard.sol\":2698:2784  if (_status == ENTERED) {... */\n      tag_272\n      jumpi\n        /* \"@openzeppelin/contracts/utils/ReentrancyGuard.sol\":2743:2773  ReentrancyGuardReentrantCall() */\n      mload(0x40)\n      0x3ee5aeb500000000000000000000000000000000000000000000000000000000\n      dup2\n      mstore\n      0x04\n      add\n      mload(0x40)\n      dup1\n      swap2\n      sub\n      swap1\n      revert\n        /* \"@openzeppelin/contracts/utils/ReentrancyGuard.sol\":2698:2784  if (_status == ENTERED) {... */\n    tag_272:\n        /* \"@openzeppelin/contracts/utils/ReentrancyGuard.sol\":1899:1900  2 */\n      0x02\n        /* \"@openzeppelin/contracts/utils/ReentrancyGuard.sol\":2858:2865  _status */\n      0x01\n        /* \"@openzeppelin/contracts/utils/ReentrancyGuard.sol\":2858:2875  _status = ENTERED */\n      dup2\n      swap1\n      sstore\n      pop\n        /* \"@openzeppelin/contracts/utils/ReentrancyGuard.sol\":2575:2882  function _nonReentrantBefore() private {... */\n      jump\t// out\n        /* \"@openzeppelin/contracts/utils/Pausable.sol\":2002:2130  function _requireNotPaused() internal view virtual {... */\n    tag_190:\n        /* \"@openzeppelin/contracts/utils/Pausable.sol\":2067:2075  paused() */\n      tag_274\n        /* \"@openzeppelin/contracts/utils/Pausable.sol\":2067:2073  paused */\n      tag_53\n        /* \"@openzeppelin/contracts/utils/Pausable.sol\":2067:2075  paused() */\n      jump\t// in\n    tag_274:\n        /* \"@openzeppelin/contracts/utils/Pausable.sol\":2063:2124  if (paused()) {... */\n      iszero\n      tag_275\n      jumpi\n        /* \"@openzeppelin/contracts/utils/Pausable.sol\":2098:2113  EnforcedPause() */\n      mload(0x40)\n      0xd93c066500000000000000000000000000000000000000000000000000000000\n      dup2\n      mstore\n      0x04\n      add\n      mload(0x40)\n      dup1\n      swap2\n      sub\n      swap1\n      revert\n        /* \"@openzeppelin/contracts/utils/Pausable.sol\":2063:2124  if (paused()) {... */\n    tag_275:\n        /* \"@openzeppelin/contracts/utils/Pausable.sol\":2002:2130  function _requireNotPaused() internal view virtual {... */\n      jump\t// out\n        /* \"@openzeppelin/contracts/utils/ReentrancyGuard.sol\":2888:3096  function _nonReentrantAfter() private {... */\n    tag_218:\n        /* \"@openzeppelin/contracts/utils/ReentrancyGuard.sol\":1857:1858  1 */\n      0x01\n        /* \"@openzeppelin/contracts/utils/ReentrancyGuard.sol\":3068:3075  _status */\n      dup1\n        /* \"@openzeppelin/contracts/utils/ReentrancyGuard.sol\":3068:3089  _status = NOT_ENTERED */\n      dup2\n      swap1\n      sstore\n      pop\n        /* \"@openzeppelin/contracts/utils/ReentrancyGuard.sol\":2888:3096  function _nonReentrantAfter() private {... */\n      jump\t// out\n        /* \"privacy/zkp/FileProver.sol\":5750:5946  function _scalarMul(uint256[2] memory p, uint256 s) internal pure returns (uint256, uint256) {... */\n    tag_239:\n        /* \"privacy/zkp/FileProver.sol\":5825:5832  uint256 */\n      0x00\n        /* \"privacy/zkp/FileProver.sol\":5834:5841  uint256 */\n      dup1\n        /* \"privacy/zkp/FileProver.sol\":5927:5928  s */\n      dup3\n        /* \"privacy/zkp/FileProver.sol\":5920:5921  p */\n      dup5\n        /* \"privacy/zkp/FileProver.sol\":5922:5923  0 */\n      0x00\n        /* \"privacy/zkp/FileProver.sol\":5920:5924  p[0] */\n      0x02\n      dup2\n      lt\n      tag_278\n      jumpi\n      tag_279\n      tag_112\n      jump\t// in\n    tag_279:\n    tag_278:\n      0x20\n      mul\n      add\n      mload\n        /* \"privacy/zkp/FileProver.sol\":5920:5928  p[0] * s */\n      tag_280\n      swap2\n      swap1\n      tag_281\n      jump\t// in\n    tag_280:\n        /* \"privacy/zkp/FileProver.sol\":5937:5938  s */\n      dup4\n        /* \"privacy/zkp/FileProver.sol\":5930:5931  p */\n      dup6\n        /* \"privacy/zkp/FileProver.sol\":5932:5933  1 */\n      0x01\n        /* \"privacy/zkp/FileProver.sol\":5930:5934  p[1] */\n      0x02\n      dup2\n      lt\n      tag_282\n      jumpi\n      tag_283\n      tag_112\n      jump\t// in\n    tag_283:\n    tag_282:\n      0x20\n      mul\n      add\n      mload\n        /* \"privacy/zkp/FileProver.sol\":5930:5938  p[1] * s */\n      tag_284\n      swap2\n      swap1\n      tag_281\n      jump\t// in\n    tag_284:\n        /* \"privacy/zkp/FileProver.sol\":5912:5939  return (p[0] * s, p[1] * s) */\n      swap2\n      pop\n      swap2\n      pop\n        /* \"privacy/zkp/FileProver.sol\":5750:5946  function _scalarMul(uint256[2] memory p, uint256 s) internal pure returns (uint256, uint256) {... */\n      swap3\n      pop\n      swap3\n      swap1\n      pop\n      jump\t// out\n        /* \"privacy/zkp/FileProver.sol\":5952:6154  function _pointAdd(uint256 x1, uint256 y1, uint256 x2, uint256 y2) internal pure returns (uint256, uint256) {... */\n    tag_245:\n        /* \"privacy/zkp/FileProver.sol\":6042:6049  uint256 */\n      0x00\n        /* \"privacy/zkp/FileProver.sol\":6051:6058  uint256 */\n      dup1\n        /* \"privacy/zkp/FileProver.sol\":6135:6137  x2 */\n      dup4\n        /* \"privacy/zkp/FileProver.sol\":6130:6132  x1 */\n      dup7\n        /* \"privacy/zkp/FileProver.sol\":6130:6137  x1 + x2 */\n      tag_286\n      swap2\n      swap1\n      tag_227\n      jump\t// in\n    tag_286:\n        /* \"privacy/zkp/FileProver.sol\":6144:6146  y2 */\n      dup4\n        /* \"privacy/zkp/FileProver.sol\":6139:6141  y1 */\n      dup7\n        /* \"privacy/zkp/FileProver.sol\":6139:6146  y1 + y2 */\n      tag_287\n      swap2\n      swap1\n      tag_227\n      jump\t// in\n    tag_287:\n        /* \"privacy/zkp/FileProver.sol\":6122:6147  return (x1 + x2, y1 + y2) */\n      swap2\n      pop\n      swap2\n      pop\n        /* \"privacy/zkp/FileProver.sol\":5952:6154  function _pointAdd(uint256 x1, uint256 y1, uint256 x2, uint256 y2) internal pure returns (uint256, uint256) {... */\n      swap5\n      pop\n      swap5\n      swap3\n      pop\n      pop\n      pop\n      jump\t// out\n        /* \"privacy/zkp/FileProver.sol\":6277:7858  function _verifyPairing(... */\n    tag_251:\n        /* \"privacy/zkp/FileProver.sol\":6547:6551  bool */\n      0x00\n        /* \"privacy/zkp/FileProver.sol\":6598:6622  uint256[24] memory input */\n      tag_289\n      tag_290\n      jump\t// in\n    tag_289:\n        /* \"privacy/zkp/FileProver.sol\":6688:6707  _negate(a[0], a[1]) */\n      tag_291\n        /* \"privacy/zkp/FileProver.sol\":6696:6697  a */\n      dup11\n        /* \"privacy/zkp/FileProver.sol\":6698:6699  0 */\n      0x00\n        /* \"privacy/zkp/FileProver.sol\":6696:6700  a[0] */\n      0x02\n      dup2\n      lt\n      tag_292\n      jumpi\n      tag_293\n      tag_112\n      jump\t// in\n    tag_293:\n    tag_292:\n      0x20\n      mul\n      add\n      mload\n        /* \"privacy/zkp/FileProver.sol\":6702:6703  a */\n      dup12\n        /* \"privacy/zkp/FileProver.sol\":6704:6705  1 */\n      0x01\n        /* \"privacy/zkp/FileProver.sol\":6702:6706  a[1] */\n      0x02\n      dup2\n      lt\n      tag_294\n      jumpi\n      tag_295\n      tag_112\n      jump\t// in\n    tag_295:\n    tag_294:\n      0x20\n      mul\n      add\n      mload\n        /* \"privacy/zkp/FileProver.sol\":6688:6695  _negate */\n      tag_296\n        /* \"privacy/zkp/FileProver.sol\":6688:6707  _negate(a[0], a[1]) */\n      jump\t// in\n    tag_291:\n        /* \"privacy/zkp/FileProver.sol\":6674:6675  a */\n      dup12\n        /* \"privacy/zkp/FileProver.sol\":6676:6677  0 */\n      0x00\n        /* \"privacy/zkp/FileProver.sol\":6674:6678  a[0] */\n      0x02\n      dup2\n      lt\n      tag_297\n      jumpi\n      tag_298\n      tag_112\n      jump\t// in\n    tag_298:\n    tag_297:\n      0x20\n      mul\n      add\n        /* \"privacy/zkp/FileProver.sol\":6680:6681  a */\n      dup13\n        /* \"privacy/zkp/FileProver.sol\":6682:6683  1 */\n      0x01\n        /* \"privacy/zkp/FileProver.sol\":6680:6684  a[1] */\n      0x02\n      dup2\n      lt\n      tag_299\n      jumpi\n      tag_300\n      tag_112\n      jump\t// in\n    tag_300:\n    tag_299:\n      0x20\n      mul\n      add\n        /* \"privacy/zkp/FileProver.sol\":6673:6707  (a[0], a[1]) = _negate(a[0], a[1]) */\n      dup3\n      dup2\n      mstore\n      pop\n      dup3\n      dup2\n      mstore\n      pop\n      pop\n      pop\n        /* \"privacy/zkp/FileProver.sol\":6728:6747  _negate(c[0], c[1]) */\n      tag_301\n        /* \"privacy/zkp/FileProver.sol\":6736:6737  c */\n      dup5\n        /* \"privacy/zkp/FileProver.sol\":6738:6739  0 */\n      0x00\n        /* \"privacy/zkp/FileProver.sol\":6736:6740  c[0] */\n      0x02\n      dup2\n      lt\n      tag_302\n      jumpi\n      tag_303\n      tag_112\n      jump\t// in\n    tag_303:\n    tag_302:\n      0x20\n      mul\n      add\n      mload\n        /* \"privacy/zkp/FileProver.sol\":6742:6743  c */\n      dup6\n        /* \"privacy/zkp/FileProver.sol\":6744:6745  1 */\n      0x01\n        /* \"privacy/zkp/FileProver.sol\":6742:6746  c[1] */\n      0x02\n      dup2\n      lt\n      tag_304\n      jumpi\n      tag_305\n      tag_112\n      jump\t// in\n    tag_305:\n    tag_304:\n      0x20\n      mul\n      add\n      mload\n        /* \"privacy/zkp/FileProver.sol\":6728:6735  _negate */\n      tag_296\n        /* \"privacy/zkp/FileProver.sol\":6728:6747  _negate(c[0], c[1]) */\n      jump\t// in\n    tag_301:\n        /* \"privacy/zkp/FileProver.sol\":6714:6715  c */\n      dup6\n        /* \"privacy/zkp/FileProver.sol\":6716:6717  0 */\n      0x00\n        /* \"privacy/zkp/FileProver.sol\":6714:6718  c[0] */\n      0x02\n      dup2\n      lt\n      tag_306\n      jumpi\n      tag_307\n      tag_112\n      jump\t// in\n    tag_307:\n    tag_306:\n      0x20\n      mul\n      add\n        /* \"privacy/zkp/FileProver.sol\":6720:6721  c */\n      dup7\n        /* \"privacy/zkp/FileProver.sol\":6722:6723  1 */\n      0x01\n        /* \"privacy/zkp/FileProver.sol\":6720:6724  c[1] */\n      0x02\n      dup2\n      lt\n      tag_308\n      jumpi\n      tag_309\n      tag_112\n      jump\t// in\n    tag_309:\n    tag_308:\n      0x20\n      mul\n      add\n        /* \"privacy/zkp/FileProver.sol\":6713:6747  (c[0], c[1]) = _negate(c[0], c[1]) */\n      dup3\n      dup2\n      mstore\n      pop\n      dup3\n      dup2\n      mstore\n      pop\n      pop\n      pop\n        /* \"privacy/zkp/FileProver.sol\":6795:6796  a */\n      dup10\n        /* \"privacy/zkp/FileProver.sol\":6797:6798  0 */\n      0x00\n        /* \"privacy/zkp/FileProver.sol\":6795:6799  a[0] */\n      0x02\n      dup2\n      lt\n      tag_310\n      jumpi\n      tag_311\n      tag_112\n      jump\t// in\n    tag_311:\n    tag_310:\n      0x20\n      mul\n      add\n      mload\n        /* \"privacy/zkp/FileProver.sol\":6784:6789  input */\n      dup2\n        /* \"privacy/zkp/FileProver.sol\":6790:6791  0 */\n      0x00\n        /* \"privacy/zkp/FileProver.sol\":6784:6792  input[0] */\n      0x18\n      dup2\n      lt\n      tag_312\n      jumpi\n      tag_313\n      tag_112\n      jump\t// in\n    tag_313:\n    tag_312:\n      0x20\n      mul\n      add\n        /* \"privacy/zkp/FileProver.sol\":6784:6799  input[0] = a[0] */\n      dup2\n      dup2\n      mstore\n      pop\n      pop\n        /* \"privacy/zkp/FileProver.sol\":6816:6817  a */\n      dup10\n        /* \"privacy/zkp/FileProver.sol\":6818:6819  1 */\n      0x01\n        /* \"privacy/zkp/FileProver.sol\":6816:6820  a[1] */\n      0x02\n      dup2\n      lt\n      tag_314\n      jumpi\n      tag_315\n      tag_112\n      jump\t// in\n    tag_315:\n    tag_314:\n      0x20\n      mul\n      add\n      mload\n        /* \"privacy/zkp/FileProver.sol\":6805:6810  input */\n      dup2\n        /* \"privacy/zkp/FileProver.sol\":6811:6812  1 */\n      0x01\n        /* \"privacy/zkp/FileProver.sol\":6805:6813  input[1] */\n      0x18\n      dup2\n      lt\n      tag_316\n      jumpi\n      tag_317\n      tag_112\n      jump\t// in\n    tag_317:\n    tag_316:\n      0x20\n      mul\n      add\n        /* \"privacy/zkp/FileProver.sol\":6805:6820  input[1] = a[1] */\n      dup2\n      dup2\n      mstore\n      pop\n      pop\n        /* \"privacy/zkp/FileProver.sol\":6837:6838  b */\n      dup9\n        /* \"privacy/zkp/FileProver.sol\":6839:6840  0 */\n      0x00\n        /* \"privacy/zkp/FileProver.sol\":6837:6841  b[0] */\n      0x02\n      dup2\n      lt\n      tag_318\n      jumpi\n      tag_319\n      tag_112\n      jump\t// in\n    tag_319:\n    tag_318:\n      0x20\n      mul\n      add\n      mload\n        /* \"privacy/zkp/FileProver.sol\":6842:6843  0 */\n      0x00\n        /* \"privacy/zkp/FileProver.sol\":6837:6844  b[0][0] */\n      0x02\n      dup2\n      lt\n      tag_320\n      jumpi\n      tag_321\n      tag_112\n      jump\t// in\n    tag_321:\n    tag_320:\n      0x20\n      mul\n      add\n      mload\n        /* \"privacy/zkp/FileProver.sol\":6826:6831  input */\n      dup2\n        /* \"privacy/zkp/FileProver.sol\":6832:6833  2 */\n      0x02\n        /* \"privacy/zkp/FileProver.sol\":6826:6834  input[2] */\n      0x18\n      dup2\n      lt\n      tag_322\n      jumpi\n      tag_323\n      tag_112\n      jump\t// in\n    tag_323:\n    tag_322:\n      0x20\n      mul\n      add\n        /* \"privacy/zkp/FileProver.sol\":6826:6844  input[2] = b[0][0] */\n      dup2\n      dup2\n      mstore\n      pop\n      pop\n        /* \"privacy/zkp/FileProver.sol\":6861:6862  b */\n      dup9\n        /* \"privacy/zkp/FileProver.sol\":6863:6864  0 */\n      0x00\n        /* \"privacy/zkp/FileProver.sol\":6861:6865  b[0] */\n      0x02\n      dup2\n      lt\n      tag_324\n      jumpi\n      tag_325\n      tag_112\n      jump\t// in\n    tag_325:\n    tag_324:\n      0x20\n      mul\n      add\n      mload\n        /* \"privacy/zkp/FileProver.sol\":6866:6867  1 */\n      0x01\n        /* \"privacy/zkp/FileProver.sol\":6861:6868  b[0][1] */\n      0x02\n      dup2\n      lt\n      tag_326\n      jumpi\n      tag_327\n      tag_112\n      jump\t// in\n    tag_327:\n    tag_326:\n      0x20\n      mul\n      add\n      mload\n        /* \"privacy/zkp/FileProver.sol\":6850:6855  input */\n      dup2\n        /* \"privacy/zkp/FileProver.sol\":6856:6857  3 */\n      0x03\n        /* \"privacy/zkp/FileProver.sol\":6850:6858  input[3] */\n      0x18\n      dup2\n      lt\n      tag_328\n      jumpi\n      tag_329\n      tag_112\n      jump\t// in\n    tag_329:\n    tag_328:\n      0x20\n      mul\n      add\n        /* \"privacy/zkp/FileProver.sol\":6850:6868  input[3] = b[0][1] */\n      dup2\n      dup2\n      mstore\n      pop\n      pop\n        /* \"privacy/zkp/FileProver.sol\":6885:6886  b */\n      dup9\n        /* \"privacy/zkp/FileProver.sol\":6887:6888  1 */\n      0x01\n        /* \"privacy/zkp/FileProver.sol\":6885:6889  b[1] */\n      0x02\n      dup2\n      lt\n      tag_330\n      jumpi\n      tag_331\n      tag_112\n      jump\t// in\n    tag_331:\n    tag_330:\n      0x20\n      mul\n      add\n      mload\n        /* \"privacy/zkp/FileProver.sol\":6890:6891  0 */\n      0x00\n        /* \"privacy/zkp/FileProver.sol\":6885:6892  b[1][0] */\n      0x02\n      dup2\n      lt\n      tag_332\n      jumpi\n      tag_333\n      tag_112\n      jump\t// in\n    tag_333:\n    tag_332:\n      0x20\n      mul\n      add\n      mload\n        /* \"privacy/zkp/FileProver.sol\":6874:6879  input */\n      dup2\n        /* \"privacy/zkp/FileProver.sol\":6880:6881  4 */\n      0x04\n        /* \"privacy/zkp/FileProver.sol\":6874:6882  input[4] */\n      0x18\n      dup2\n      lt\n      tag_334\n      jumpi\n      tag_335\n      tag_112\n      jump\t// in\n    tag_335:\n    tag_334:\n      0x20\n      mul\n      add\n        /* \"privacy/zkp/FileProver.sol\":6874:6892  input[4] = b[1][0] */\n      dup2\n      dup2\n      mstore\n      pop\n      pop\n        /* \"privacy/zkp/FileProver.sol\":6909:6910  b */\n      dup9\n        /* \"privacy/zkp/FileProver.sol\":6911:6912  1 */\n      0x01\n        /* \"privacy/zkp/FileProver.sol\":6909:6913  b[1] */\n      0x02\n      dup2\n      lt\n      tag_336\n      jumpi\n      tag_337\n      tag_112\n      jump\t// in\n    tag_337:\n    tag_336:\n      0x20\n      mul\n      add\n      mload\n        /* \"privacy/zkp/FileProver.sol\":6914:6915  1 */\n      0x01\n        /* \"privacy/zkp/FileProver.sol\":6909:6916  b[1][1] */\n      0x02\n      dup2\n      lt\n      tag_338\n      jumpi\n      tag_339\n      tag_112\n      jump\t// in\n    tag_339:\n    tag_338:\n      0x20\n      mul\n      add\n      mload\n        /* \"privacy/zkp/FileProver.sol\":6898:6903  input */\n      dup2\n        /* \"privacy/zkp/FileProver.sol\":6904:6905  5 */\n      0x05\n        /* \"privacy/zkp/FileProver.sol\":6898:6906  input[5] */\n      0x18\n      dup2\n      lt\n      tag_340\n      jumpi\n      tag_341\n      tag_112\n      jump\t// in\n    tag_341:\n    tag_340:\n      0x20\n      mul\n      add\n        /* \"privacy/zkp/FileProver.sol\":6898:6916  input[5] = b[1][1] */\n      dup2\n      dup2\n      mstore\n      pop\n      pop\n        /* \"privacy/zkp/FileProver.sol\":6972:6977  alpha */\n      dup8\n        /* \"privacy/zkp/FileProver.sol\":6978:6979  0 */\n      0x00\n        /* \"privacy/zkp/FileProver.sol\":6972:6980  alpha[0] */\n      0x02\n      dup2\n      lt\n      tag_342\n      jumpi\n      tag_343\n      tag_112\n      jump\t// in\n    tag_343:\n    tag_342:\n      0x20\n      mul\n      add\n      mload\n        /* \"privacy/zkp/FileProver.sol\":6961:6966  input */\n      dup2\n        /* \"privacy/zkp/FileProver.sol\":6967:6968  6 */\n      0x06\n        /* \"privacy/zkp/FileProver.sol\":6961:6969  input[6] */\n      0x18\n      dup2\n      lt\n      tag_344\n      jumpi\n      tag_345\n      tag_112\n      jump\t// in\n    tag_345:\n    tag_344:\n      0x20\n      mul\n      add\n        /* \"privacy/zkp/FileProver.sol\":6961:6980  input[6] = alpha[0] */\n      dup2\n      dup2\n      mstore\n      pop\n      pop\n        /* \"privacy/zkp/FileProver.sol\":6997:7002  alpha */\n      dup8\n        /* \"privacy/zkp/FileProver.sol\":7003:7004  1 */\n      0x01\n        /* \"privacy/zkp/FileProver.sol\":6997:7005  alpha[1] */\n      0x02\n      dup2\n      lt\n      tag_346\n      jumpi\n      tag_347\n      tag_112\n      jump\t// in\n    tag_347:\n    tag_346:\n      0x20\n      mul\n      add\n      mload\n        /* \"privacy/zkp/FileProver.sol\":6986:6991  input */\n      dup2\n        /* \"privacy/zkp/FileProver.sol\":6992:6993  7 */\n      0x07\n        /* \"privacy/zkp/FileProver.sol\":6986:6994  input[7] */\n      0x18\n      dup2\n      lt\n      tag_348\n      jumpi\n      tag_349\n      tag_112\n      jump\t// in\n    tag_349:\n    tag_348:\n      0x20\n      mul\n      add\n        /* \"privacy/zkp/FileProver.sol\":6986:7005  input[7] = alpha[1] */\n      dup2\n      dup2\n      mstore\n      pop\n      pop\n        /* \"privacy/zkp/FileProver.sol\":7022:7026  beta */\n      dup7\n        /* \"privacy/zkp/FileProver.sol\":7027:7028  0 */\n      0x00\n        /* \"privacy/zkp/FileProver.sol\":7022:7029  beta[0] */\n      0x02\n      dup2\n      lt\n      tag_350\n      jumpi\n      tag_351\n      tag_112\n      jump\t// in\n    tag_351:\n    tag_350:\n      0x20\n      mul\n      add\n      mload\n        /* \"privacy/zkp/FileProver.sol\":7011:7016  input */\n      dup2\n        /* \"privacy/zkp/FileProver.sol\":7017:7018  8 */\n      0x08\n        /* \"privacy/zkp/FileProver.sol\":7011:7019  input[8] */\n      0x18\n      dup2\n      lt\n      tag_352\n      jumpi\n      tag_353\n      tag_112\n      jump\t// in\n    tag_353:\n    tag_352:\n      0x20\n      mul\n      add\n        /* \"privacy/zkp/FileProver.sol\":7011:7029  input[8] = beta[0] */\n      dup2\n      dup2\n      mstore\n      pop\n      pop\n        /* \"privacy/zkp/FileProver.sol\":7046:7050  beta */\n      dup7\n        /* \"privacy/zkp/FileProver.sol\":7051:7052  1 */\n      0x01\n        /* \"privacy/zkp/FileProver.sol\":7046:7053  beta[1] */\n      0x02\n      dup2\n      lt\n      tag_354\n      jumpi\n      tag_355\n      tag_112\n      jump\t// in\n    tag_355:\n    tag_354:\n      0x20\n      mul\n      add\n      mload\n        /* \"privacy/zkp/FileProver.sol\":7035:7040  input */\n      dup2\n        /* \"privacy/zkp/FileProver.sol\":7041:7042  9 */\n      0x09\n        /* \"privacy/zkp/FileProver.sol\":7035:7043  input[9] */\n      0x18\n      dup2\n      lt\n      tag_356\n      jumpi\n      tag_357\n      tag_112\n      jump\t// in\n    tag_357:\n    tag_356:\n      0x20\n      mul\n      add\n        /* \"privacy/zkp/FileProver.sol\":7035:7053  input[9] = beta[1] */\n      dup2\n      dup2\n      mstore\n      pop\n      pop\n        /* \"privacy/zkp/FileProver.sol\":7071:7075  beta */\n      dup7\n        /* \"privacy/zkp/FileProver.sol\":7076:7077  0 */\n      0x00\n        /* \"privacy/zkp/FileProver.sol\":7071:7078  beta[0] */\n      0x02\n      dup2\n      lt\n      tag_358\n      jumpi\n      tag_359\n      tag_112\n      jump\t// in\n    tag_359:\n    tag_358:\n      0x20\n      mul\n      add\n      mload\n        /* \"privacy/zkp/FileProver.sol\":7059:7064  input */\n      dup2\n        /* \"privacy/zkp/FileProver.sol\":7065:7067  10 */\n      0x0a\n        /* \"privacy/zkp/FileProver.sol\":7059:7068  input[10] */\n      0x18\n      dup2\n      lt\n      tag_360\n      jumpi\n      tag_361\n      tag_112\n      jump\t// in\n    tag_361:\n    tag_360:\n      0x20\n      mul\n      add\n        /* \"privacy/zkp/FileProver.sol\":7059:7078  input[10] = beta[0] */\n      dup2\n      dup2\n      mstore\n      pop\n      pop\n        /* \"privacy/zkp/FileProver.sol\":7096:7100  beta */\n      dup7\n        /* \"privacy/zkp/FileProver.sol\":7101:7102  1 */\n      0x01\n        /* \"privacy/zkp/FileProver.sol\":7096:7103  beta[1] */\n      0x02\n      dup2\n      lt\n      tag_362\n      jumpi\n      tag_363\n      tag_112\n      jump\t// in\n    tag_363:\n    tag_362:\n      0x20\n      mul\n      add\n      mload\n        /* \"privacy/zkp/FileProver.sol\":7084:7089  input */\n      dup2\n        /* \"privacy/zkp/FileProver.sol\":7090:7092  11 */\n      0x0b\n        /* \"privacy/zkp/FileProver.sol\":7084:7093  input[11] */\n      0x18\n      dup2\n      lt\n      tag_364\n      jumpi\n      tag_365\n      tag_112\n      jump\t// in\n    tag_365:\n    tag_364:\n      0x20\n      mul\n      add\n        /* \"privacy/zkp/FileProver.sol\":7084:7103  input[11] = beta[1] */\n      dup2\n      dup2\n      mstore\n      pop\n      pop\n        /* \"privacy/zkp/FileProver.sol\":7159:7163  vk_x */\n      dup6\n        /* \"privacy/zkp/FileProver.sol\":7164:7165  0 */\n      0x00\n        /* \"privacy/zkp/FileProver.sol\":7159:7166  vk_x[0] */\n      0x02\n      dup2\n      lt\n      tag_366\n      jumpi\n      tag_367\n      tag_112\n      jump\t// in\n    tag_367:\n    tag_366:\n      0x20\n      mul\n      add\n      mload\n        /* \"privacy/zkp/FileProver.sol\":7147:7152  input */\n      dup2\n        /* \"privacy/zkp/FileProver.sol\":7153:7155  12 */\n      0x0c\n        /* \"privacy/zkp/FileProver.sol\":7147:7156  input[12] */\n      0x18\n      dup2\n      lt\n      tag_368\n      jumpi\n      tag_369\n      tag_112\n      jump\t// in\n    tag_369:\n    tag_368:\n      0x20\n      mul\n      add\n        /* \"privacy/zkp/FileProver.sol\":7147:7166  input[12] = vk_x[0] */\n      dup2\n      dup2\n      mstore\n      pop\n      pop\n        /* \"privacy/zkp/FileProver.sol\":7184:7188  vk_x */\n      dup6\n        /* \"privacy/zkp/FileProver.sol\":7189:7190  1 */\n      0x01\n        /* \"privacy/zkp/FileProver.sol\":7184:7191  vk_x[1] */\n      0x02\n      dup2\n      lt\n      tag_370\n      jumpi\n      tag_371\n      tag_112\n      jump\t// in\n    tag_371:\n    tag_370:\n      0x20\n      mul\n      add\n      mload\n        /* \"privacy/zkp/FileProver.sol\":7172:7177  input */\n      dup2\n        /* \"privacy/zkp/FileProver.sol\":7178:7180  13 */\n      0x0d\n        /* \"privacy/zkp/FileProver.sol\":7172:7181  input[13] */\n      0x18\n      dup2\n      lt\n      tag_372\n      jumpi\n      tag_373\n      tag_112\n      jump\t// in\n    tag_373:\n    tag_372:\n      0x20\n      mul\n      add\n        /* \"privacy/zkp/FileProver.sol\":7172:7191  input[13] = vk_x[1] */\n      dup2\n      dup2\n      mstore\n      pop\n      pop\n        /* \"privacy/zkp/FileProver.sol\":7209:7214  gamma */\n      dup5\n        /* \"privacy/zkp/FileProver.sol\":7215:7216  0 */\n      0x00\n        /* \"privacy/zkp/FileProver.sol\":7209:7217  gamma[0] */\n      0x02\n      dup2\n      lt\n      tag_374\n      jumpi\n      tag_375\n      tag_112\n      jump\t// in\n    tag_375:\n    tag_374:\n      0x20\n      mul\n      add\n      mload\n        /* \"privacy/zkp/FileProver.sol\":7197:7202  input */\n      dup2\n        /* \"privacy/zkp/FileProver.sol\":7203:7205  14 */\n      0x0e\n        /* \"privacy/zkp/FileProver.sol\":7197:7206  input[14] */\n      0x18\n      dup2\n      lt\n      tag_376\n      jumpi\n      tag_377\n      tag_112\n      jump\t// in\n    tag_377:\n    tag_376:\n      0x20\n      mul\n      add\n        /* \"privacy/zkp/FileProver.sol\":7197:7217  input[14] = gamma[0] */\n      dup2\n      dup2\n      mstore\n      pop\n      pop\n        /* \"privacy/zkp/FileProver.sol\":7235:7240  gamma */\n      dup5\n        /* \"privacy/zkp/FileProver.sol\":7241:7242  1 */\n      0x01\n        /* \"privacy/zkp/FileProver.sol\":7235:7243  gamma[1] */\n      0x02\n      dup2\n      lt\n      tag_378\n      jumpi\n      tag_379\n      tag_112\n      jump\t// in\n    tag_379:\n    tag_378:\n      0x20\n      mul\n      add\n      mload\n        /* \"privacy/zkp/FileProver.sol\":7223:7228  input */\n      dup2\n        /* \"privacy/zkp/FileProver.sol\":7229:7231  15 */\n      0x0f\n        /* \"privacy/zkp/FileProver.sol\":7223:7232  input[15] */\n      0x18\n      dup2\n      lt\n      tag_380\n      jumpi\n      tag_381\n      tag_112\n      jump\t// in\n    tag_381:\n    tag_380:\n      0x20\n      mul\n      add\n        /* \"privacy/zkp/FileProver.sol\":7223:7243  input[15] = gamma[1] */\n      dup2\n      dup2\n      mstore\n      pop\n      pop\n        /* \"privacy/zkp/FileProver.sol\":7261:7266  gamma */\n      dup5\n        /* \"privacy/zkp/FileProver.sol\":7267:7268  0 */\n      0x00\n        /* \"privacy/zkp/FileProver.sol\":7261:7269  gamma[0] */\n      0x02\n      dup2\n      lt\n      tag_382\n      jumpi\n      tag_383\n      tag_112\n      jump\t// in\n    tag_383:\n    tag_382:\n      0x20\n      mul\n      add\n      mload\n        /* \"privacy/zkp/FileProver.sol\":7249:7254  input */\n      dup2\n        /* \"privacy/zkp/FileProver.sol\":7255:7257  16 */\n      0x10\n        /* \"privacy/zkp/FileProver.sol\":7249:7258  input[16] */\n      0x18\n      dup2\n      lt\n      tag_384\n      jumpi\n      tag_385\n      tag_112\n      jump\t// in\n    tag_385:\n    tag_384:\n      0x20\n      mul\n      add\n        /* \"privacy/zkp/FileProver.sol\":7249:7269  input[16] = gamma[0] */\n      dup2\n      dup2\n      mstore\n      pop\n      pop\n        /* \"privacy/zkp/FileProver.sol\":7287:7292  gamma */\n      dup5\n        /* \"privacy/zkp/FileProver.sol\":7293:7294  1 */\n      0x01\n        /* \"privacy/zkp/FileProver.sol\":7287:7295  gamma[1] */\n      0x02\n      dup2\n      lt\n      tag_386\n      jumpi\n      tag_387\n      tag_112\n      jump\t// in\n    tag_387:\n    tag_386:\n      0x20\n      mul\n      add\n      mload\n        /* \"privacy/zkp/FileProver.sol\":7275:7280  input */\n      dup2\n        /* \"privacy/zkp/FileProver.sol\":7281:7283  17 */\n      0x11\n        /* \"privacy/zkp/FileProver.sol\":7275:7284  input[17] */\n      0x18\n      dup2\n      lt\n      tag_388\n      jumpi\n      tag_389\n      tag_112\n      jump\t// in\n    tag_389:\n    tag_388:\n      0x20\n      mul\n      add\n        /* \"privacy/zkp/FileProver.sol\":7275:7295  input[17] = gamma[1] */\n      dup2\n      dup2\n      mstore\n      pop\n      pop\n        /* \"privacy/zkp/FileProver.sol\":7349:7350  c */\n      dup4\n        /* \"privacy/zkp/FileProver.sol\":7351:7352  0 */\n      0x00\n        /* \"privacy/zkp/FileProver.sol\":7349:7353  c[0] */\n      0x02\n      dup2\n      lt\n      tag_390\n      jumpi\n      tag_391\n      tag_112\n      jump\t// in\n    tag_391:\n    tag_390:\n      0x20\n      mul\n      add\n      mload\n        /* \"privacy/zkp/FileProver.sol\":7337:7342  input */\n      dup2\n        /* \"privacy/zkp/FileProver.sol\":7343:7345  18 */\n      0x12\n        /* \"privacy/zkp/FileProver.sol\":7337:7346  input[18] */\n      0x18\n      dup2\n      lt\n      tag_392\n      jumpi\n      tag_393\n      tag_112\n      jump\t// in\n    tag_393:\n    tag_392:\n      0x20\n      mul\n      add\n        /* \"privacy/zkp/FileProver.sol\":7337:7353  input[18] = c[0] */\n      dup2\n      dup2\n      mstore\n      pop\n      pop\n        /* \"privacy/zkp/FileProver.sol\":7371:7372  c */\n      dup4\n        /* \"privacy/zkp/FileProver.sol\":7373:7374  1 */\n      0x01\n        /* \"privacy/zkp/FileProver.sol\":7371:7375  c[1] */\n      0x02\n      dup2\n      lt\n      tag_394\n      jumpi\n      tag_395\n      tag_112\n      jump\t// in\n    tag_395:\n    tag_394:\n      0x20\n      mul\n      add\n      mload\n        /* \"privacy/zkp/FileProver.sol\":7359:7364  input */\n      dup2\n        /* \"privacy/zkp/FileProver.sol\":7365:7367  19 */\n      0x13\n        /* \"privacy/zkp/FileProver.sol\":7359:7368  input[19] */\n      0x18\n      dup2\n      lt\n      tag_396\n      jumpi\n      tag_397\n      tag_112\n      jump\t// in\n    tag_397:\n    tag_396:\n      0x20\n      mul\n      add\n        /* \"privacy/zkp/FileProver.sol\":7359:7375  input[19] = c[1] */\n      dup2\n      dup2\n      mstore\n      pop\n      pop\n        /* \"privacy/zkp/FileProver.sol\":7393:7398  delta */\n      dup3\n        /* \"privacy/zkp/FileProver.sol\":7399:7400  0 */\n      0x00\n        /* \"privacy/zkp/FileProver.sol\":7393:7401  delta[0] */\n      0x02\n      dup2\n      lt\n      tag_398\n      jumpi\n      tag_399\n      tag_112\n      jump\t// in\n    tag_399:\n    tag_398:\n      0x20\n      mul\n      add\n      mload\n        /* \"privacy/zkp/FileProver.sol\":7381:7386  input */\n      dup2\n        /* \"privacy/zkp/FileProver.sol\":7387:7389  20 */\n      0x14\n        /* \"privacy/zkp/FileProver.sol\":7381:7390  input[20] */\n      0x18\n      dup2\n      lt\n      tag_400\n      jumpi\n      tag_401\n      tag_112\n      jump\t// in\n    tag_401:\n    tag_400:\n      0x20\n      mul\n      add\n        /* \"privacy/zkp/FileProver.sol\":7381:7401  input[20] = delta[0] */\n      dup2\n      dup2\n      mstore\n      pop\n      pop\n        /* \"privacy/zkp/FileProver.sol\":7419:7424  delta */\n      dup3\n        /* \"privacy/zkp/FileProver.sol\":7425:7426  1 */\n      0x01\n        /* \"privacy/zkp/FileProver.sol\":7419:7427  delta[1] */\n      0x02\n      dup2\n      lt\n      tag_402\n      jumpi\n      tag_403\n      tag_112\n      jump\t// in\n    tag_403:\n    tag_402:\n      0x20\n      mul\n      add\n      mload\n        /* \"privacy/zkp/FileProver.sol\":7407:7412  input */\n      dup2\n        /* \"privacy/zkp/FileProver.sol\":7413:7415  21 */\n      0x15\n        /* \"privacy/zkp/FileProver.sol\":7407:7416  input[21] */\n      0x18\n      dup2\n      lt\n      tag_404\n      jumpi\n      tag_405\n      tag_112\n      jump\t// in\n    tag_405:\n    tag_404:\n      0x20\n      mul\n      add\n        /* \"privacy/zkp/FileProver.sol\":7407:7427  input[21] = delta[1] */\n      dup2\n      dup2\n      mstore\n      pop\n      pop\n        /* \"privacy/zkp/FileProver.sol\":7445:7450  delta */\n      dup3\n        /* \"privacy/zkp/FileProver.sol\":7451:7452  0 */\n      0x00\n        /* \"privacy/zkp/FileProver.sol\":7445:7453  delta[0] */\n      0x02\n      dup2\n      lt\n      tag_406\n      jumpi\n      tag_407\n      tag_112\n      jump\t// in\n    tag_407:\n    tag_406:\n      0x20\n      mul\n      add\n      mload\n        /* \"privacy/zkp/FileProver.sol\":7433:7438  input */\n      dup2\n        /* \"privacy/zkp/FileProver.sol\":7439:7441  22 */\n      0x16\n        /* \"privacy/zkp/FileProver.sol\":7433:7442  input[22] */\n      0x18\n      dup2\n      lt\n      tag_408\n      jumpi\n      tag_409\n      tag_112\n      jump\t// in\n    tag_409:\n    tag_408:\n      0x20\n      mul\n      add\n        /* \"privacy/zkp/FileProver.sol\":7433:7453  input[22] = delta[0] */\n      dup2\n      dup2\n      mstore\n      pop\n      pop\n        /* \"privacy/zkp/FileProver.sol\":7471:7476  delta */\n      dup3\n        /* \"privacy/zkp/FileProver.sol\":7477:7478  1 */\n      0x01\n        /* \"privacy/zkp/FileProver.sol\":7471:7479  delta[1] */\n      0x02\n      dup2\n      lt\n      tag_410\n      jumpi\n      tag_411\n      tag_112\n      jump\t// in\n    tag_411:\n    tag_410:\n      0x20\n      mul\n      add\n      mload\n        /* \"privacy/zkp/FileProver.sol\":7459:7464  input */\n      dup2\n        /* \"privacy/zkp/FileProver.sol\":7465:7467  23 */\n      0x17\n        /* \"privacy/zkp/FileProver.sol\":7459:7468  input[23] */\n      0x18\n      dup2\n      lt\n      tag_412\n      jumpi\n      tag_413\n      tag_112\n      jump\t// in\n    tag_413:\n    tag_412:\n      0x20\n      mul\n      add\n        /* \"privacy/zkp/FileProver.sol\":7459:7479  input[23] = delta[1] */\n      dup2\n      dup2\n      mstore\n      pop\n      pop\n        /* \"privacy/zkp/FileProver.sol\":7538:7559  uint256[1] memory out */\n      tag_414\n      tag_415\n      jump\t// in\n    tag_414:\n        /* \"privacy/zkp/FileProver.sol\":7565:7577  bool success */\n      0x00\n        /* \"privacy/zkp/FileProver.sol\":7774:7778  0x20 */\n      0x20\n        /* \"privacy/zkp/FileProver.sol\":7769:7772  out */\n      dup3\n        /* \"privacy/zkp/FileProver.sol\":7762:7767  0x180 */\n      0x0180\n        /* \"privacy/zkp/FileProver.sol\":7755:7760  input */\n      dup6\n        /* \"privacy/zkp/FileProver.sol\":7749:7753  0x08 */\n      0x08\n        /* \"privacy/zkp/FileProver.sol\":7742:7747  gas() */\n      gas\n        /* \"privacy/zkp/FileProver.sol\":7731:7779  staticcall(gas(), 0x08, input, 0x180, out, 0x20) */\n      staticcall\n        /* \"privacy/zkp/FileProver.sol\":7720:7779  success := staticcall(gas(), 0x08, input, 0x180, out, 0x20) */\n      swap1\n      pop\n        /* \"privacy/zkp/FileProver.sol\":7799:7806  success */\n      dup1\n        /* \"privacy/zkp/FileProver.sol\":7791:7831  require(success, \"Pairing check failed\") */\n      tag_416\n      jumpi\n      mload(0x40)\n      0x08c379a000000000000000000000000000000000000000000000000000000000\n      dup2\n      mstore\n      0x04\n      add\n      tag_417\n      swap1\n      tag_418\n      jump\t// in\n    tag_417:\n      mload(0x40)\n      dup1\n      swap2\n      sub\n      swap1\n      revert\n    tag_416:\n        /* \"privacy/zkp/FileProver.sol\":7854:7855  1 */\n      0x01\n        /* \"privacy/zkp/FileProver.sol\":7844:7847  out */\n      dup3\n        /* \"privacy/zkp/FileProver.sol\":7848:7849  0 */\n      0x00\n        /* \"privacy/zkp/FileProver.sol\":7844:7850  out[0] */\n      0x01\n      dup2\n      lt\n      tag_419\n      jumpi\n      tag_420\n      tag_112\n      jump\t// in\n    tag_420:\n    tag_419:\n      0x20\n      mul\n      add\n      mload\n        /* \"privacy/zkp/FileProver.sol\":7844:7855  out[0] == 1 */\n      eq\n        /* \"privacy/zkp/FileProver.sol\":7837:7855  return out[0] == 1 */\n      swap4\n      pop\n      pop\n      pop\n      pop\n        /* \"privacy/zkp/FileProver.sol\":6277:7858  function _verifyPairing(... */\n      swap9\n      swap8\n      pop\n      pop\n      pop\n      pop\n      pop\n      pop\n      pop\n      pop\n      jump\t// out\n        /* \"@openzeppelin/contracts/utils/Context.sol\":656:752  function _msgSender() internal view virtual returns (address) {... */\n    tag_254:\n        /* \"@openzeppelin/contracts/utils/Context.sol\":709:716  address */\n      0x00\n        /* \"@openzeppelin/contracts/utils/Context.sol\":735:745  msg.sender */\n      caller\n        /* \"@openzeppelin/contracts/utils/Context.sol\":728:745  return msg.sender */\n      swap1\n      pop\n        /* \"@openzeppelin/contracts/utils/Context.sol\":656:752  function _msgSender() internal view virtual returns (address) {... */\n      swap1\n      jump\t// out\n        /* \"@openzeppelin/contracts/utils/Pausable.sol\":2202:2328  function _requirePaused() internal view virtual {... */\n    tag_261:\n        /* \"@openzeppelin/contracts/utils/Pausable.sol\":2265:2273  paused() */\n      tag_423\n        /* \"@openzeppelin/contracts/utils/Pausable.sol\":2265:2271  paused */\n      tag_53\n        /* \"@openzeppelin/contracts/utils/Pausable.sol\":2265:2273  paused() */\n      jump\t// in\n    tag_423:\n        /* \"@openzeppelin/contracts/utils/Pausable.sol\":2260:2322  if (!paused()) {... */\n      tag_424\n      jumpi\n        /* \"@openzeppelin/contracts/utils/Pausable.sol\":2296:2311  ExpectedPause() */\n      mload(0x40)\n      0x8dfc202b00000000000000000000000000000000000000000000000000000000\n      dup2\n      mstore\n      0x04\n      add\n      mload(0x40)\n      dup1\n      swap2\n      sub\n      swap1\n      revert\n        /* \"@openzeppelin/contracts/utils/Pausable.sol\":2260:2322  if (!paused()) {... */\n    tag_424:\n        /* \"@openzeppelin/contracts/utils/Pausable.sol\":2202:2328  function _requirePaused() internal view virtual {... */\n      jump\t// out\n        /* \"privacy/zkp/FileProver.sol\":7995:8317  function _negate(uint256 x, uint256 y) internal pure returns (uint256, uint256) {... */\n    tag_296:\n        /* \"privacy/zkp/FileProver.sol\":8057:8064  uint256 */\n      0x00\n        /* \"privacy/zkp/FileProver.sol\":8066:8073  uint256 */\n      dup1\n        /* \"privacy/zkp/FileProver.sol\":8102:8111  uint256 q */\n      0x00\n        /* \"privacy/zkp/FileProver.sol\":8114:8191  21888242871839275222246405745257275088696311157297823662689037894645226208583 */\n      0x30644e72e131a029b85045b68181585d97816a916871ca8d3c208c16d87cfd47\n        /* \"privacy/zkp/FileProver.sol\":8102:8191  uint256 q = 21888242871839275222246405745257275088696311157297823662689037894645226208583 */\n      swap1\n      pop\n        /* \"privacy/zkp/FileProver.sol\":8211:8212  0 */\n      0x00\n        /* \"privacy/zkp/FileProver.sol\":8206:8207  x */\n      dup6\n        /* \"privacy/zkp/FileProver.sol\":8206:8212  x == 0 */\n      eq\n        /* \"privacy/zkp/FileProver.sol\":8206:8222  x == 0 && y == 0 */\n      dup1\n      iszero\n      tag_426\n      jumpi\n      pop\n        /* \"privacy/zkp/FileProver.sol\":8221:8222  0 */\n      0x00\n        /* \"privacy/zkp/FileProver.sol\":8216:8217  y */\n      dup5\n        /* \"privacy/zkp/FileProver.sol\":8216:8222  y == 0 */\n      eq\n        /* \"privacy/zkp/FileProver.sol\":8206:8222  x == 0 && y == 0 */\n    tag_426:\n        /* \"privacy/zkp/FileProver.sol\":8202:8254  if (x == 0 && y == 0) {... */\n      iszero\n      tag_427\n      jumpi\n        /* \"privacy/zkp/FileProver.sol\":8242:8243  0 */\n      0x00\n        /* \"privacy/zkp/FileProver.sol\":8245:8246  0 */\n      dup1\n        /* \"privacy/zkp/FileProver.sol\":8234:8247  return (0, 0) */\n      swap3\n      pop\n      swap3\n      pop\n      pop\n      jump(tag_425)\n        /* \"privacy/zkp/FileProver.sol\":8202:8254  if (x == 0 && y == 0) {... */\n    tag_427:\n        /* \"privacy/zkp/FileProver.sol\":8299:8300  x */\n      dup5\n        /* \"privacy/zkp/FileProver.sol\":8311:8312  q */\n      dup2\n        /* \"privacy/zkp/FileProver.sol\":8307:8308  y */\n      dup6\n        /* \"privacy/zkp/FileProver.sol\":8307:8312  y % q */\n      tag_428\n      swap2\n      swap1\n      tag_429\n      jump\t// in\n    tag_428:\n        /* \"privacy/zkp/FileProver.sol\":8302:8303  q */\n      dup3\n        /* \"privacy/zkp/FileProver.sol\":8302:8313  q - (y % q) */\n      tag_430\n      swap2\n      swap1\n      tag_431\n      jump\t// in\n    tag_430:\n        /* \"privacy/zkp/FileProver.sol\":8291:8314  return (x, q - (y % q)) */\n      swap3\n      pop\n      swap3\n      pop\n      pop\n        /* \"privacy/zkp/FileProver.sol\":7995:8317  function _negate(uint256 x, uint256 y) internal pure returns (uint256, uint256) {... */\n    tag_425:\n      swap3\n      pop\n      swap3\n      swap1\n      pop\n      jump\t// out\n    tag_290:\n      mload(0x40)\n      dup1\n      0x0300\n      add\n      0x40\n      mstore\n      dup1\n      0x18\n      swap1\n      0x20\n      dup3\n      mul\n      dup1\n      calldatasize\n      dup4\n      calldatacopy\n      dup1\n      dup3\n      add\n      swap2\n      pop\n      pop\n      swap1\n      pop\n      pop\n      swap1\n      jump\t// out\n    tag_415:\n      mload(0x40)\n      dup1\n      0x20\n      add\n      0x40\n      mstore\n      dup1\n      0x01\n      swap1\n      0x20\n      dup3\n      mul\n      dup1\n      calldatasize\n      dup4\n      calldatacopy\n      dup1\n      dup3\n      add\n      swap2\n      pop\n      pop\n      swap1\n      pop\n      pop\n      swap1\n      jump\t// out\n        /* \"#utility.yul\":88:205   */\n    tag_433:\n        /* \"#utility.yul\":197:198   */\n      0x00\n        /* \"#utility.yul\":194:195   */\n      dup1\n        /* \"#utility.yul\":187:199   */\n      revert\n        /* \"#utility.yul\":211:328   */\n    tag_434:\n        /* \"#utility.yul\":320:321   */\n      0x00\n        /* \"#utility.yul\":317:318   */\n      dup1\n        /* \"#utility.yul\":310:322   */\n      revert\n        /* \"#utility.yul\":334:411   */\n    tag_435:\n        /* \"#utility.yul\":371:378   */\n      0x00\n        /* \"#utility.yul\":400:405   */\n      dup2\n        /* \"#utility.yul\":389:405   */\n      swap1\n      pop\n        /* \"#utility.yul\":334:411   */\n      swap2\n      swap1\n      pop\n      jump\t// out\n        /* \"#utility.yul\":417:539   */\n    tag_436:\n        /* \"#utility.yul\":490:514   */\n      tag_497\n        /* \"#utility.yul\":508:513   */\n      dup2\n        /* \"#utility.yul\":490:514   */\n      tag_435\n      jump\t// in\n    tag_497:\n        /* \"#utility.yul\":483:488   */\n      dup2\n        /* \"#utility.yul\":480:515   */\n      eq\n        /* \"#utility.yul\":470:533   */\n      tag_498\n      jumpi\n        /* \"#utility.yul\":529:530   */\n      0x00\n        /* \"#utility.yul\":526:527   */\n      dup1\n        /* \"#utility.yul\":519:531   */\n      revert\n        /* \"#utility.yul\":470:533   */\n    tag_498:\n        /* \"#utility.yul\":417:539   */\n      pop\n      jump\t// out\n        /* \"#utility.yul\":545:684   */\n    tag_437:\n        /* \"#utility.yul\":591:596   */\n      0x00\n        /* \"#utility.yul\":629:635   */\n      dup2\n        /* \"#utility.yul\":616:636   */\n      calldataload\n        /* \"#utility.yul\":607:636   */\n      swap1\n      pop\n        /* \"#utility.yul\":645:678   */\n      tag_500\n        /* \"#utility.yul\":672:677   */\n      dup2\n        /* \"#utility.yul\":645:678   */\n      tag_436\n      jump\t// in\n    tag_500:\n        /* \"#utility.yul\":545:684   */\n      swap3\n      swap2\n      pop\n      pop\n      jump\t// out\n        /* \"#utility.yul\":690:1019   */\n    tag_28:\n        /* \"#utility.yul\":749:755   */\n      0x00\n        /* \"#utility.yul\":798:800   */\n      0x20\n        /* \"#utility.yul\":786:795   */\n      dup3\n        /* \"#utility.yul\":777:784   */\n      dup5\n        /* \"#utility.yul\":773:796   */\n      sub\n        /* \"#utility.yul\":769:801   */\n      slt\n        /* \"#utility.yul\":766:885   */\n      iszero\n      tag_502\n      jumpi\n        /* \"#utility.yul\":804:883   */\n      tag_503\n      tag_433\n      jump\t// in\n    tag_503:\n        /* \"#utility.yul\":766:885   */\n    tag_502:\n        /* \"#utility.yul\":924:925   */\n      0x00\n        /* \"#utility.yul\":949:1002   */\n      tag_504\n        /* \"#utility.yul\":994:1001   */\n      dup5\n        /* \"#utility.yul\":985:991   */\n      dup3\n        /* \"#utility.yul\":974:983   */\n      dup6\n        /* \"#utility.yul\":970:992   */\n      add\n        /* \"#utility.yul\":949:1002   */\n      tag_437\n      jump\t// in\n    tag_504:\n        /* \"#utility.yul\":939:1002   */\n      swap2\n      pop\n        /* \"#utility.yul\":895:1012   */\n      pop\n        /* \"#utility.yul\":690:1019   */\n      swap3\n      swap2\n      pop\n      pop\n      jump\t// out\n        /* \"#utility.yul\":1025:1143   */\n    tag_438:\n        /* \"#utility.yul\":1112:1136   */\n      tag_506\n        /* \"#utility.yul\":1130:1135   */\n      dup2\n        /* \"#utility.yul\":1112:1136   */\n      tag_435\n      jump\t// in\n    tag_506:\n        /* \"#utility.yul\":1107:1110   */\n      dup3\n        /* \"#utility.yul\":1100:1137   */\n      mstore\n        /* \"#utility.yul\":1025:1143   */\n      pop\n      pop\n      jump\t// out\n        /* \"#utility.yul\":1149:1371   */\n    tag_31:\n        /* \"#utility.yul\":1242:1246   */\n      0x00\n        /* \"#utility.yul\":1280:1282   */\n      0x20\n        /* \"#utility.yul\":1269:1278   */\n      dup3\n        /* \"#utility.yul\":1265:1283   */\n      add\n        /* \"#utility.yul\":1257:1283   */\n      swap1\n      pop\n        /* \"#utility.yul\":1293:1364   */\n      tag_508\n        /* \"#utility.yul\":1361:1362   */\n      0x00\n        /* \"#utility.yul\":1350:1359   */\n      dup4\n        /* \"#utility.yul\":1346:1363   */\n      add\n        /* \"#utility.yul\":1337:1343   */\n      dup5\n        /* \"#utility.yul\":1293:1364   */\n      tag_438\n      jump\t// in\n    tag_508:\n        /* \"#utility.yul\":1149:1371   */\n      swap3\n      swap2\n      pop\n      pop\n      jump\t// out\n        /* \"#utility.yul\":1377:1494   */\n    tag_439:\n        /* \"#utility.yul\":1486:1487   */\n      0x00\n        /* \"#utility.yul\":1483:1484   */\n      dup1\n        /* \"#utility.yul\":1476:1488   */\n      revert\n        /* \"#utility.yul\":1518:1767   */\n    tag_440:\n        /* \"#utility.yul\":1589:1597   */\n      0x00\n        /* \"#utility.yul\":1620:1626   */\n      dup2\n        /* \"#utility.yul\":1608:1626   */\n      swap1\n      pop\n        /* \"#utility.yul\":1673:1676   */\n      dup3\n        /* \"#utility.yul\":1665:1669   */\n      0x20\n        /* \"#utility.yul\":1659:1663   */\n      0x08\n        /* \"#utility.yul\":1655:1670   */\n      mul\n        /* \"#utility.yul\":1645:1653   */\n      dup3\n        /* \"#utility.yul\":1641:1671   */\n      add\n        /* \"#utility.yul\":1638:1677   */\n      gt\n        /* \"#utility.yul\":1635:1761   */\n      iszero\n      tag_511\n      jumpi\n        /* \"#utility.yul\":1680:1759   */\n      tag_512\n      tag_439\n      jump\t// in\n    tag_512:\n        /* \"#utility.yul\":1635:1761   */\n    tag_511:\n        /* \"#utility.yul\":1518:1767   */\n      swap3\n      swap2\n      pop\n      pop\n      jump\t// out\n        /* \"#utility.yul\":1791:2040   */\n    tag_441:\n        /* \"#utility.yul\":1862:1870   */\n      0x00\n        /* \"#utility.yul\":1893:1899   */\n      dup2\n        /* \"#utility.yul\":1881:1899   */\n      swap1\n      pop\n        /* \"#utility.yul\":1946:1949   */\n      dup3\n        /* \"#utility.yul\":1938:1942   */\n      0x20\n        /* \"#utility.yul\":1932:1936   */\n      0x01\n        /* \"#utility.yul\":1928:1943   */\n      mul\n        /* \"#utility.yul\":1918:1926   */\n      dup3\n        /* \"#utility.yul\":1914:1944   */\n      add\n        /* \"#utility.yul\":1911:1950   */\n      gt\n        /* \"#utility.yul\":1908:2034   */\n      iszero\n      tag_514\n      jumpi\n        /* \"#utility.yul\":1953:2032   */\n      tag_515\n      tag_439\n      jump\t// in\n    tag_515:\n        /* \"#utility.yul\":1908:2034   */\n    tag_514:\n        /* \"#utility.yul\":1791:2040   */\n      swap3\n      swap2\n      pop\n      pop\n      jump\t// out\n        /* \"#utility.yul\":2046:2622   */\n    tag_34:\n        /* \"#utility.yul\":2164:2170   */\n      0x00\n        /* \"#utility.yul\":2172:2178   */\n      dup1\n        /* \"#utility.yul\":2221:2224   */\n      0x0120\n        /* \"#utility.yul\":2209:2218   */\n      dup4\n        /* \"#utility.yul\":2200:2207   */\n      dup6\n        /* \"#utility.yul\":2196:2219   */\n      sub\n        /* \"#utility.yul\":2192:2225   */\n      slt\n        /* \"#utility.yul\":2189:2309   */\n      iszero\n      tag_517\n      jumpi\n        /* \"#utility.yul\":2228:2307   */\n      tag_518\n      tag_433\n      jump\t// in\n    tag_518:\n        /* \"#utility.yul\":2189:2309   */\n    tag_517:\n        /* \"#utility.yul\":2348:2349   */\n      0x00\n        /* \"#utility.yul\":2373:2451   */\n      tag_519\n        /* \"#utility.yul\":2443:2450   */\n      dup6\n        /* \"#utility.yul\":2434:2440   */\n      dup3\n        /* \"#utility.yul\":2423:2432   */\n      dup7\n        /* \"#utility.yul\":2419:2441   */\n      add\n        /* \"#utility.yul\":2373:2451   */\n      tag_440\n      jump\t// in\n    tag_519:\n        /* \"#utility.yul\":2363:2451   */\n      swap3\n      pop\n        /* \"#utility.yul\":2319:2461   */\n      pop\n        /* \"#utility.yul\":2500:2503   */\n      0x0100\n        /* \"#utility.yul\":2527:2605   */\n      tag_520\n        /* \"#utility.yul\":2597:2604   */\n      dup6\n        /* \"#utility.yul\":2588:2594   */\n      dup3\n        /* \"#utility.yul\":2577:2586   */\n      dup7\n        /* \"#utility.yul\":2573:2595   */\n      add\n        /* \"#utility.yul\":2527:2605   */\n      tag_441\n      jump\t// in\n    tag_520:\n        /* \"#utility.yul\":2517:2605   */\n      swap2\n      pop\n        /* \"#utility.yul\":2471:2615   */\n      pop\n        /* \"#utility.yul\":2046:2622   */\n      swap3\n      pop\n      swap3\n      swap1\n      pop\n      jump\t// out\n        /* \"#utility.yul\":2628:2718   */\n    tag_442:\n        /* \"#utility.yul\":2662:2669   */\n      0x00\n        /* \"#utility.yul\":2705:2710   */\n      dup2\n        /* \"#utility.yul\":2698:2711   */\n      iszero\n        /* \"#utility.yul\":2691:2712   */\n      iszero\n        /* \"#utility.yul\":2680:2712   */\n      swap1\n      pop\n        /* \"#utility.yul\":2628:2718   */\n      swap2\n      swap1\n      pop\n      jump\t// out\n        /* \"#utility.yul\":2724:2833   */\n    tag_443:\n        /* \"#utility.yul\":2805:2826   */\n      tag_523\n        /* \"#utility.yul\":2820:2825   */\n      dup2\n        /* \"#utility.yul\":2805:2826   */\n      tag_442\n      jump\t// in\n    tag_523:\n        /* \"#utility.yul\":2800:2803   */\n      dup3\n        /* \"#utility.yul\":2793:2827   */\n      mstore\n        /* \"#utility.yul\":2724:2833   */\n      pop\n      pop\n      jump\t// out\n        /* \"#utility.yul\":2839:3049   */\n    tag_37:\n        /* \"#utility.yul\":2926:2930   */\n      0x00\n        /* \"#utility.yul\":2964:2966   */\n      0x20\n        /* \"#utility.yul\":2953:2962   */\n      dup3\n        /* \"#utility.yul\":2949:2967   */\n      add\n        /* \"#utility.yul\":2941:2967   */\n      swap1\n      pop\n        /* \"#utility.yul\":2977:3042   */\n      tag_525\n        /* \"#utility.yul\":3039:3040   */\n      0x00\n        /* \"#utility.yul\":3028:3037   */\n      dup4\n        /* \"#utility.yul\":3024:3041   */\n      add\n        /* \"#utility.yul\":3015:3021   */\n      dup5\n        /* \"#utility.yul\":2977:3042   */\n      tag_443\n      jump\t// in\n    tag_525:\n        /* \"#utility.yul\":2839:3049   */\n      swap3\n      swap2\n      pop\n      pop\n      jump\t// out\n        /* \"#utility.yul\":3055:3181   */\n    tag_444:\n        /* \"#utility.yul\":3092:3099   */\n      0x00\n        /* \"#utility.yul\":3132:3174   */\n      0xffffffffffffffffffffffffffffffffffffffff\n        /* \"#utility.yul\":3125:3130   */\n      dup3\n        /* \"#utility.yul\":3121:3175   */\n      and\n        /* \"#utility.yul\":3110:3175   */\n      swap1\n      pop\n        /* \"#utility.yul\":3055:3181   */\n      swap2\n      swap1\n      pop\n      jump\t// out\n        /* \"#utility.yul\":3187:3283   */\n    tag_445:\n        /* \"#utility.yul\":3224:3231   */\n      0x00\n        /* \"#utility.yul\":3253:3277   */\n      tag_528\n        /* \"#utility.yul\":3271:3276   */\n      dup3\n        /* \"#utility.yul\":3253:3277   */\n      tag_444\n      jump\t// in\n    tag_528:\n        /* \"#utility.yul\":3242:3277   */\n      swap1\n      pop\n        /* \"#utility.yul\":3187:3283   */\n      swap2\n      swap1\n      pop\n      jump\t// out\n        /* \"#utility.yul\":3289:3411   */\n    tag_446:\n        /* \"#utility.yul\":3362:3386   */\n      tag_530\n        /* \"#utility.yul\":3380:3385   */\n      dup2\n        /* \"#utility.yul\":3362:3386   */\n      tag_445\n      jump\t// in\n    tag_530:\n        /* \"#utility.yul\":3355:3360   */\n      dup2\n        /* \"#utility.yul\":3352:3387   */\n      eq\n        /* \"#utility.yul\":3342:3405   */\n      tag_531\n      jumpi\n        /* \"#utility.yul\":3401:3402   */\n      0x00\n        /* \"#utility.yul\":3398:3399   */\n      dup1\n        /* \"#utility.yul\":3391:3403   */\n      revert\n        /* \"#utility.yul\":3342:3405   */\n    tag_531:\n        /* \"#utility.yul\":3289:3411   */\n      pop\n      jump\t// out\n        /* \"#utility.yul\":3417:3556   */\n    tag_447:\n        /* \"#utility.yul\":3463:3468   */\n      0x00\n        /* \"#utility.yul\":3501:3507   */\n      dup2\n        /* \"#utility.yul\":3488:3508   */\n      calldataload\n        /* \"#utility.yul\":3479:3508   */\n      swap1\n      pop\n        /* \"#utility.yul\":3517:3550   */\n      tag_533\n        /* \"#utility.yul\":3544:3549   */\n      dup2\n        /* \"#utility.yul\":3517:3550   */\n      tag_446\n      jump\t// in\n    tag_533:\n        /* \"#utility.yul\":3417:3556   */\n      swap3\n      swap2\n      pop\n      pop\n      jump\t// out\n        /* \"#utility.yul\":3562:3639   */\n    tag_448:\n        /* \"#utility.yul\":3599:3606   */\n      0x00\n        /* \"#utility.yul\":3628:3633   */\n      dup2\n        /* \"#utility.yul\":3617:3633   */\n      swap1\n      pop\n        /* \"#utility.yul\":3562:3639   */\n      swap2\n      swap1\n      pop\n      jump\t// out\n        /* \"#utility.yul\":3645:3767   */\n    tag_449:\n        /* \"#utility.yul\":3718:3742   */\n      tag_536\n        /* \"#utility.yul\":3736:3741   */\n      dup2\n        /* \"#utility.yul\":3718:3742   */\n      tag_448\n      jump\t// in\n    tag_536:\n        /* \"#utility.yul\":3711:3716   */\n      dup2\n        /* \"#utility.yul\":3708:3743   */\n      eq\n        /* \"#utility.yul\":3698:3761   */\n      tag_537\n      jumpi\n        /* \"#utility.yul\":3757:3758   */\n      0x00\n        /* \"#utility.yul\":3754:3755   */\n      dup1\n        /* \"#utility.yul\":3747:3759   */\n      revert\n        /* \"#utility.yul\":3698:3761   */\n    tag_537:\n        /* \"#utility.yul\":3645:3767   */\n      pop\n      jump\t// out\n        /* \"#utility.yul\":3773:3912   */\n    tag_450:\n        /* \"#utility.yul\":3819:3824   */\n      0x00\n        /* \"#utility.yul\":3857:3863   */\n      dup2\n        /* \"#utility.yul\":3844:3864   */\n      calldataload\n        /* \"#utility.yul\":3835:3864   */\n      swap1\n      pop\n        /* \"#utility.yul\":3873:3906   */\n      tag_539\n        /* \"#utility.yul\":3900:3905   */\n      dup2\n        /* \"#utility.yul\":3873:3906   */\n      tag_449\n      jump\t// in\n    tag_539:\n        /* \"#utility.yul\":3773:3912   */\n      swap3\n      swap2\n      pop\n      pop\n      jump\t// out\n        /* \"#utility.yul\":3918:4392   */\n    tag_40:\n        /* \"#utility.yul\":3986:3992   */\n      0x00\n        /* \"#utility.yul\":3994:4000   */\n      dup1\n        /* \"#utility.yul\":4043:4045   */\n      0x40\n        /* \"#utility.yul\":4031:4040   */\n      dup4\n        /* \"#utility.yul\":4022:4029   */\n      dup6\n        /* \"#utility.yul\":4018:4041   */\n      sub\n        /* \"#utility.yul\":4014:4046   */\n      slt\n        /* \"#utility.yul\":4011:4130   */\n      iszero\n      tag_541\n      jumpi\n        /* \"#utility.yul\":4049:4128   */\n      tag_542\n      tag_433\n      jump\t// in\n    tag_542:\n        /* \"#utility.yul\":4011:4130   */\n    tag_541:\n        /* \"#utility.yul\":4169:4170   */\n      0x00\n        /* \"#utility.yul\":4194:4247   */\n      tag_543\n        /* \"#utility.yul\":4239:4246   */\n      dup6\n        /* \"#utility.yul\":4230:4236   */\n      dup3\n        /* \"#utility.yul\":4219:4228   */\n      dup7\n        /* \"#utility.yul\":4215:4237   */\n      add\n        /* \"#utility.yul\":4194:4247   */\n      tag_447\n      jump\t// in\n    tag_543:\n        /* \"#utility.yul\":4184:4247   */\n      swap3\n      pop\n        /* \"#utility.yul\":4140:4257   */\n      pop\n        /* \"#utility.yul\":4296:4298   */\n      0x20\n        /* \"#utility.yul\":4322:4375   */\n      tag_544\n        /* \"#utility.yul\":4367:4374   */\n      dup6\n        /* \"#utility.yul\":4358:4364   */\n      dup3\n        /* \"#utility.yul\":4347:4356   */\n      dup7\n        /* \"#utility.yul\":4343:4365   */\n      add\n        /* \"#utility.yul\":4322:4375   */\n      tag_450\n      jump\t// in\n    tag_544:\n        /* \"#utility.yul\":4312:4375   */\n      swap2\n      pop\n        /* \"#utility.yul\":4267:4385   */\n      pop\n        /* \"#utility.yul\":3918:4392   */\n      swap3\n      pop\n      swap3\n      swap1\n      pop\n      jump\t// out\n        /* \"#utility.yul\":4398:4458   */\n    tag_451:\n        /* \"#utility.yul\":4426:4429   */\n      0x00\n        /* \"#utility.yul\":4447:4452   */\n      dup2\n        /* \"#utility.yul\":4440:4452   */\n      swap1\n      pop\n        /* \"#utility.yul\":4398:4458   */\n      swap2\n      swap1\n      pop\n      jump\t// out\n        /* \"#utility.yul\":4464:4606   */\n    tag_452:\n        /* \"#utility.yul\":4514:4523   */\n      0x00\n        /* \"#utility.yul\":4547:4600   */\n      tag_547\n        /* \"#utility.yul\":4565:4599   */\n      tag_548\n        /* \"#utility.yul\":4574:4598   */\n      tag_549\n        /* \"#utility.yul\":4592:4597   */\n      dup5\n        /* \"#utility.yul\":4574:4598   */\n      tag_444\n      jump\t// in\n    tag_549:\n        /* \"#utility.yul\":4565:4599   */\n      tag_451\n      jump\t// in\n    tag_548:\n        /* \"#utility.yul\":4547:4600   */\n      tag_444\n      jump\t// in\n    tag_547:\n        /* \"#utility.yul\":4534:4600   */\n      swap1\n      pop\n        /* \"#utility.yul\":4464:4606   */\n      swap2\n      swap1\n      pop\n      jump\t// out\n        /* \"#utility.yul\":4612:4738   */\n    tag_453:\n        /* \"#utility.yul\":4662:4671   */\n      0x00\n        /* \"#utility.yul\":4695:4732   */\n      tag_551\n        /* \"#utility.yul\":4726:4731   */\n      dup3\n        /* \"#utility.yul\":4695:4732   */\n      tag_452\n      jump\t// in\n    tag_551:\n        /* \"#utility.yul\":4682:4732   */\n      swap1\n      pop\n        /* \"#utility.yul\":4612:4738   */\n      swap2\n      swap1\n      pop\n      jump\t// out\n        /* \"#utility.yul\":4744:4889   */\n    tag_454:\n        /* \"#utility.yul\":4813:4822   */\n      0x00\n        /* \"#utility.yul\":4846:4883   */\n      tag_553\n        /* \"#utility.yul\":4877:4882   */\n      dup3\n        /* \"#utility.yul\":4846:4883   */\n      tag_453\n      jump\t// in\n    tag_553:\n        /* \"#utility.yul\":4833:4883   */\n      swap1\n      pop\n        /* \"#utility.yul\":4744:4889   */\n      swap2\n      swap1\n      pop\n      jump\t// out\n        /* \"#utility.yul\":4895:5064   */\n    tag_455:\n        /* \"#utility.yul\":5001:5057   */\n      tag_555\n        /* \"#utility.yul\":5051:5056   */\n      dup2\n        /* \"#utility.yul\":5001:5057   */\n      tag_454\n      jump\t// in\n    tag_555:\n        /* \"#utility.yul\":4996:4999   */\n      dup3\n        /* \"#utility.yul\":4989:5058   */\n      mstore\n        /* \"#utility.yul\":4895:5064   */\n      pop\n      pop\n      jump\t// out\n        /* \"#utility.yul\":5070:5330   */\n    tag_51:\n        /* \"#utility.yul\":5182:5186   */\n      0x00\n        /* \"#utility.yul\":5220:5222   */\n      0x20\n        /* \"#utility.yul\":5209:5218   */\n      dup3\n        /* \"#utility.yul\":5205:5223   */\n      add\n        /* \"#utility.yul\":5197:5223   */\n      swap1\n      pop\n        /* \"#utility.yul\":5233:5323   */\n      tag_557\n        /* \"#utility.yul\":5320:5321   */\n      0x00\n        /* \"#utility.yul\":5309:5318   */\n      dup4\n        /* \"#utility.yul\":5305:5322   */\n      add\n        /* \"#utility.yul\":5296:5302   */\n      dup5\n        /* \"#utility.yul\":5233:5323   */\n      tag_455\n      jump\t// in\n    tag_557:\n        /* \"#utility.yul\":5070:5330   */\n      swap3\n      swap2\n      pop\n      pop\n      jump\t// out\n        /* \"#utility.yul\":5336:5665   */\n    tag_67:\n        /* \"#utility.yul\":5395:5401   */\n      0x00\n        /* \"#utility.yul\":5444:5446   */\n      0x20\n        /* \"#utility.yul\":5432:5441   */\n      dup3\n        /* \"#utility.yul\":5423:5430   */\n      dup5\n        /* \"#utility.yul\":5419:5442   */\n      sub\n        /* \"#utility.yul\":5415:5447   */\n      slt\n        /* \"#utility.yul\":5412:5531   */\n      iszero\n      tag_559\n      jumpi\n        /* \"#utility.yul\":5450:5529   */\n      tag_560\n      tag_433\n      jump\t// in\n    tag_560:\n        /* \"#utility.yul\":5412:5531   */\n    tag_559:\n        /* \"#utility.yul\":5570:5571   */\n      0x00\n        /* \"#utility.yul\":5595:5648   */\n      tag_561\n        /* \"#utility.yul\":5640:5647   */\n      dup5\n        /* \"#utility.yul\":5631:5637   */\n      dup3\n        /* \"#utility.yul\":5620:5629   */\n      dup6\n        /* \"#utility.yul\":5616:5638   */\n      add\n        /* \"#utility.yul\":5595:5648   */\n      tag_450\n      jump\t// in\n    tag_561:\n        /* \"#utility.yul\":5585:5648   */\n      swap2\n      pop\n        /* \"#utility.yul\":5541:5658   */\n      pop\n        /* \"#utility.yul\":5336:5665   */\n      swap3\n      swap2\n      pop\n      pop\n      jump\t// out\n        /* \"#utility.yul\":5671:5789   */\n    tag_456:\n        /* \"#utility.yul\":5758:5782   */\n      tag_563\n        /* \"#utility.yul\":5776:5781   */\n      dup2\n        /* \"#utility.yul\":5758:5782   */\n      tag_445\n      jump\t// in\n    tag_563:\n        /* \"#utility.yul\":5753:5756   */\n      dup3\n        /* \"#utility.yul\":5746:5783   */\n      mstore\n        /* \"#utility.yul\":5671:5789   */\n      pop\n      pop\n      jump\t// out\n        /* \"#utility.yul\":5795:6017   */\n    tag_75:\n        /* \"#utility.yul\":5888:5892   */\n      0x00\n        /* \"#utility.yul\":5926:5928   */\n      0x20\n        /* \"#utility.yul\":5915:5924   */\n      dup3\n        /* \"#utility.yul\":5911:5929   */\n      add\n        /* \"#utility.yul\":5903:5929   */\n      swap1\n      pop\n        /* \"#utility.yul\":5939:6010   */\n      tag_565\n        /* \"#utility.yul\":6007:6008   */\n      0x00\n        /* \"#utility.yul\":5996:6005   */\n      dup4\n        /* \"#utility.yul\":5992:6009   */\n      add\n        /* \"#utility.yul\":5983:5989   */\n      dup5\n        /* \"#utility.yul\":5939:6010   */\n      tag_456\n      jump\t// in\n    tag_565:\n        /* \"#utility.yul\":5795:6017   */\n      swap3\n      swap2\n      pop\n      pop\n      jump\t// out\n        /* \"#utility.yul\":6041:6290   */\n    tag_457:\n        /* \"#utility.yul\":6112:6120   */\n      0x00\n        /* \"#utility.yul\":6143:6149   */\n      dup2\n        /* \"#utility.yul\":6131:6149   */\n      swap1\n      pop\n        /* \"#utility.yul\":6196:6199   */\n      dup3\n        /* \"#utility.yul\":6188:6192   */\n      0x20\n        /* \"#utility.yul\":6182:6186   */\n      0x02\n        /* \"#utility.yul\":6178:6193   */\n      mul\n        /* \"#utility.yul\":6168:6176   */\n      dup3\n        /* \"#utility.yul\":6164:6194   */\n      add\n        /* \"#utility.yul\":6161:6200   */\n      gt\n        /* \"#utility.yul\":6158:6284   */\n      iszero\n      tag_567\n      jumpi\n        /* \"#utility.yul\":6203:6282   */\n      tag_568\n      tag_439\n      jump\t// in\n    tag_568:\n        /* \"#utility.yul\":6158:6284   */\n    tag_567:\n        /* \"#utility.yul\":6041:6290   */\n      swap3\n      swap2\n      pop\n      pop\n      jump\t// out\n        /* \"#utility.yul\":6317:6591   */\n    tag_458:\n        /* \"#utility.yul\":6413:6421   */\n      0x00\n        /* \"#utility.yul\":6444:6450   */\n      dup2\n        /* \"#utility.yul\":6432:6450   */\n      swap1\n      pop\n        /* \"#utility.yul\":6497:6500   */\n      dup3\n        /* \"#utility.yul\":6489:6493   */\n      0x40\n        /* \"#utility.yul\":6483:6487   */\n      0x02\n        /* \"#utility.yul\":6479:6494   */\n      mul\n        /* \"#utility.yul\":6469:6477   */\n      dup3\n        /* \"#utility.yul\":6465:6495   */\n      add\n        /* \"#utility.yul\":6462:6501   */\n      gt\n        /* \"#utility.yul\":6459:6585   */\n      iszero\n      tag_570\n      jumpi\n        /* \"#utility.yul\":6504:6583   */\n      tag_571\n      tag_439\n      jump\t// in\n    tag_571:\n        /* \"#utility.yul\":6459:6585   */\n    tag_570:\n        /* \"#utility.yul\":6317:6591   */\n      swap3\n      swap2\n      pop\n      pop\n      jump\t// out\n        /* \"#utility.yul\":6597:6714   */\n    tag_459:\n        /* \"#utility.yul\":6706:6707   */\n      0x00\n        /* \"#utility.yul\":6703:6704   */\n      dup1\n        /* \"#utility.yul\":6696:6708   */\n      revert\n        /* \"#utility.yul\":6720:6837   */\n    tag_460:\n        /* \"#utility.yul\":6829:6830   */\n      0x00\n        /* \"#utility.yul\":6826:6827   */\n      dup1\n        /* \"#utility.yul\":6819:6831   */\n      revert\n        /* \"#utility.yul\":6863:7456   */\n    tag_461:\n        /* \"#utility.yul\":6961:6969   */\n      0x00\n        /* \"#utility.yul\":6971:6977   */\n      dup1\n        /* \"#utility.yul\":7021:7024   */\n      dup4\n        /* \"#utility.yul\":7014:7018   */\n      0x1f\n        /* \"#utility.yul\":7006:7012   */\n      dup5\n        /* \"#utility.yul\":7002:7019   */\n      add\n        /* \"#utility.yul\":6998:7025   */\n      slt\n        /* \"#utility.yul\":6988:7110   */\n      tag_575\n      jumpi\n        /* \"#utility.yul\":7029:7108   */\n      tag_576\n      tag_459\n      jump\t// in\n    tag_576:\n        /* \"#utility.yul\":6988:7110   */\n    tag_575:\n        /* \"#utility.yul\":7142:7148   */\n      dup3\n        /* \"#utility.yul\":7129:7149   */\n      calldataload\n        /* \"#utility.yul\":7119:7149   */\n      swap1\n      pop\n        /* \"#utility.yul\":7172:7190   */\n      0xffffffffffffffff\n        /* \"#utility.yul\":7164:7170   */\n      dup2\n        /* \"#utility.yul\":7161:7191   */\n      gt\n        /* \"#utility.yul\":7158:7275   */\n      iszero\n      tag_577\n      jumpi\n        /* \"#utility.yul\":7194:7273   */\n      tag_578\n      tag_460\n      jump\t// in\n    tag_578:\n        /* \"#utility.yul\":7158:7275   */\n    tag_577:\n        /* \"#utility.yul\":7308:7312   */\n      0x20\n        /* \"#utility.yul\":7300:7306   */\n      dup4\n        /* \"#utility.yul\":7296:7313   */\n      add\n        /* \"#utility.yul\":7284:7313   */\n      swap2\n      pop\n        /* \"#utility.yul\":7362:7365   */\n      dup4\n        /* \"#utility.yul\":7354:7358   */\n      0x40\n        /* \"#utility.yul\":7346:7352   */\n      dup3\n        /* \"#utility.yul\":7342:7359   */\n      mul\n        /* \"#utility.yul\":7332:7340   */\n      dup4\n        /* \"#utility.yul\":7328:7360   */\n      add\n        /* \"#utility.yul\":7325:7366   */\n      gt\n        /* \"#utility.yul\":7322:7450   */\n      iszero\n      tag_579\n      jumpi\n        /* \"#utility.yul\":7369:7448   */\n      tag_580\n      tag_439\n      jump\t// in\n    tag_580:\n        /* \"#utility.yul\":7322:7450   */\n    tag_579:\n        /* \"#utility.yul\":6863:7456   */\n      swap3\n      pop\n      swap3\n      swap1\n      pop\n      jump\t// out\n        /* \"#utility.yul\":7462:8905   */\n    tag_78:\n        /* \"#utility.yul\":7734:7740   */\n      0x00\n        /* \"#utility.yul\":7742:7748   */\n      dup1\n        /* \"#utility.yul\":7750:7756   */\n      0x00\n        /* \"#utility.yul\":7758:7764   */\n      dup1\n        /* \"#utility.yul\":7766:7772   */\n      0x00\n        /* \"#utility.yul\":7774:7780   */\n      dup1\n        /* \"#utility.yul\":7823:7826   */\n      0x0160\n        /* \"#utility.yul\":7811:7820   */\n      dup8\n        /* \"#utility.yul\":7802:7809   */\n      dup10\n        /* \"#utility.yul\":7798:7821   */\n      sub\n        /* \"#utility.yul\":7794:7827   */\n      slt\n        /* \"#utility.yul\":7791:7911   */\n      iszero\n      tag_582\n      jumpi\n        /* \"#utility.yul\":7830:7909   */\n      tag_583\n      tag_433\n      jump\t// in\n    tag_583:\n        /* \"#utility.yul\":7791:7911   */\n    tag_582:\n        /* \"#utility.yul\":7950:7951   */\n      0x00\n        /* \"#utility.yul\":7975:8053   */\n      tag_584\n        /* \"#utility.yul\":8045:8052   */\n      dup10\n        /* \"#utility.yul\":8036:8042   */\n      dup3\n        /* \"#utility.yul\":8025:8034   */\n      dup11\n        /* \"#utility.yul\":8021:8043   */\n      add\n        /* \"#utility.yul\":7975:8053   */\n      tag_457\n      jump\t// in\n    tag_584:\n        /* \"#utility.yul\":7965:8053   */\n      swap7\n      pop\n        /* \"#utility.yul\":7921:8063   */\n      pop\n        /* \"#utility.yul\":8102:8104   */\n      0x40\n        /* \"#utility.yul\":8128:8231   */\n      tag_585\n        /* \"#utility.yul\":8223:8230   */\n      dup10\n        /* \"#utility.yul\":8214:8220   */\n      dup3\n        /* \"#utility.yul\":8203:8212   */\n      dup11\n        /* \"#utility.yul\":8199:8221   */\n      add\n        /* \"#utility.yul\":8128:8231   */\n      tag_458\n      jump\t// in\n    tag_585:\n        /* \"#utility.yul\":8118:8231   */\n      swap6\n      pop\n        /* \"#utility.yul\":8073:8241   */\n      pop\n        /* \"#utility.yul\":8280:8283   */\n      0xc0\n        /* \"#utility.yul\":8307:8385   */\n      tag_586\n        /* \"#utility.yul\":8377:8384   */\n      dup10\n        /* \"#utility.yul\":8368:8374   */\n      dup3\n        /* \"#utility.yul\":8357:8366   */\n      dup11\n        /* \"#utility.yul\":8353:8375   */\n      add\n        /* \"#utility.yul\":8307:8385   */\n      tag_457\n      jump\t// in\n    tag_586:\n        /* \"#utility.yul\":8297:8385   */\n      swap5\n      pop\n        /* \"#utility.yul\":8251:8395   */\n      pop\n        /* \"#utility.yul\":8434:8437   */\n      0x0100\n        /* \"#utility.yul\":8461:8539   */\n      tag_587\n        /* \"#utility.yul\":8531:8538   */\n      dup10\n        /* \"#utility.yul\":8522:8528   */\n      dup3\n        /* \"#utility.yul\":8511:8520   */\n      dup11\n        /* \"#utility.yul\":8507:8529   */\n      add\n        /* \"#utility.yul\":8461:8539   */\n      tag_457\n      jump\t// in\n    tag_587:\n        /* \"#utility.yul\":8451:8539   */\n      swap4\n      pop\n        /* \"#utility.yul\":8405:8549   */\n      pop\n        /* \"#utility.yul\":8616:8619   */\n      0x0140\n        /* \"#utility.yul\":8605:8614   */\n      dup8\n        /* \"#utility.yul\":8601:8620   */\n      add\n        /* \"#utility.yul\":8588:8621   */\n      calldataload\n        /* \"#utility.yul\":8648:8666   */\n      0xffffffffffffffff\n        /* \"#utility.yul\":8640:8646   */\n      dup2\n        /* \"#utility.yul\":8637:8667   */\n      gt\n        /* \"#utility.yul\":8634:8751   */\n      iszero\n      tag_588\n      jumpi\n        /* \"#utility.yul\":8670:8749   */\n      tag_589\n      tag_434\n      jump\t// in\n    tag_589:\n        /* \"#utility.yul\":8634:8751   */\n    tag_588:\n        /* \"#utility.yul\":8783:8888   */\n      tag_590\n        /* \"#utility.yul\":8880:8887   */\n      dup10\n        /* \"#utility.yul\":8871:8877   */\n      dup3\n        /* \"#utility.yul\":8860:8869   */\n      dup11\n        /* \"#utility.yul\":8856:8878   */\n      add\n        /* \"#utility.yul\":8783:8888   */\n      tag_461\n      jump\t// in\n    tag_590:\n        /* \"#utility.yul\":8765:8888   */\n      swap3\n      pop\n      swap3\n      pop\n        /* \"#utility.yul\":8559:8898   */\n      pop\n        /* \"#utility.yul\":7462:8905   */\n      swap3\n      swap6\n      pop\n      swap3\n      swap6\n      pop\n      swap3\n      swap6\n      jump\t// out\n        /* \"#utility.yul\":8911:9029   */\n    tag_462:\n        /* \"#utility.yul\":8998:9022   */\n      tag_592\n        /* \"#utility.yul\":9016:9021   */\n      dup2\n        /* \"#utility.yul\":8998:9022   */\n      tag_448\n      jump\t// in\n    tag_592:\n        /* \"#utility.yul\":8993:8996   */\n      dup3\n        /* \"#utility.yul\":8986:9023   */\n      mstore\n        /* \"#utility.yul\":8911:9029   */\n      pop\n      pop\n      jump\t// out\n        /* \"#utility.yul\":9035:9909   */\n    tag_84:\n        /* \"#utility.yul\":9290:9294   */\n      0x00\n        /* \"#utility.yul\":9328:9331   */\n      0xe0\n        /* \"#utility.yul\":9317:9326   */\n      dup3\n        /* \"#utility.yul\":9313:9332   */\n      add\n        /* \"#utility.yul\":9305:9332   */\n      swap1\n      pop\n        /* \"#utility.yul\":9342:9413   */\n      tag_594\n        /* \"#utility.yul\":9410:9411   */\n      0x00\n        /* \"#utility.yul\":9399:9408   */\n      dup4\n        /* \"#utility.yul\":9395:9412   */\n      add\n        /* \"#utility.yul\":9386:9392   */\n      dup11\n        /* \"#utility.yul\":9342:9413   */\n      tag_462\n      jump\t// in\n    tag_594:\n        /* \"#utility.yul\":9423:9495   */\n      tag_595\n        /* \"#utility.yul\":9491:9493   */\n      0x20\n        /* \"#utility.yul\":9480:9489   */\n      dup4\n        /* \"#utility.yul\":9476:9494   */\n      add\n        /* \"#utility.yul\":9467:9473   */\n      dup10\n        /* \"#utility.yul\":9423:9495   */\n      tag_462\n      jump\t// in\n    tag_595:\n        /* \"#utility.yul\":9505:9577   */\n      tag_596\n        /* \"#utility.yul\":9573:9575   */\n      0x40\n        /* \"#utility.yul\":9562:9571   */\n      dup4\n        /* \"#utility.yul\":9558:9576   */\n      add\n        /* \"#utility.yul\":9549:9555   */\n      dup9\n        /* \"#utility.yul\":9505:9577   */\n      tag_438\n      jump\t// in\n    tag_596:\n        /* \"#utility.yul\":9587:9659   */\n      tag_597\n        /* \"#utility.yul\":9655:9657   */\n      0x60\n        /* \"#utility.yul\":9644:9653   */\n      dup4\n        /* \"#utility.yul\":9640:9658   */\n      add\n        /* \"#utility.yul\":9631:9637   */\n      dup8\n        /* \"#utility.yul\":9587:9659   */\n      tag_456\n      jump\t// in\n    tag_597:\n        /* \"#utility.yul\":9669:9736   */\n      tag_598\n        /* \"#utility.yul\":9731:9734   */\n      0x80\n        /* \"#utility.yul\":9720:9729   */\n      dup4\n        /* \"#utility.yul\":9716:9735   */\n      add\n        /* \"#utility.yul\":9707:9713   */\n      dup7\n        /* \"#utility.yul\":9669:9736   */\n      tag_443\n      jump\t// in\n    tag_598:\n        /* \"#utility.yul\":9746:9819   */\n      tag_599\n        /* \"#utility.yul\":9814:9817   */\n      0xa0\n        /* \"#utility.yul\":9803:9812   */\n      dup4\n        /* \"#utility.yul\":9799:9818   */\n      add\n        /* \"#utility.yul\":9790:9796   */\n      dup6\n        /* \"#utility.yul\":9746:9819   */\n      tag_462\n      jump\t// in\n    tag_599:\n        /* \"#utility.yul\":9829:9902   */\n      tag_600\n        /* \"#utility.yul\":9897:9900   */\n      0xc0\n        /* \"#utility.yul\":9886:9895   */\n      dup4\n        /* \"#utility.yul\":9882:9901   */\n      add\n        /* \"#utility.yul\":9873:9879   */\n      dup5\n        /* \"#utility.yul\":9829:9902   */\n      tag_438\n      jump\t// in\n    tag_600:\n        /* \"#utility.yul\":9035:9909   */\n      swap9\n      swap8\n      pop\n      pop\n      pop\n      pop\n      pop\n      pop\n      pop\n      pop\n      jump\t// out\n        /* \"#utility.yul\":9915:10389   */\n    tag_87:\n        /* \"#utility.yul\":9983:9989   */\n      0x00\n        /* \"#utility.yul\":9991:9997   */\n      dup1\n        /* \"#utility.yul\":10040:10042   */\n      0x40\n        /* \"#utility.yul\":10028:10037   */\n      dup4\n        /* \"#utility.yul\":10019:10026   */\n      dup6\n        /* \"#utility.yul\":10015:10038   */\n      sub\n        /* \"#utility.yul\":10011:10043   */\n      slt\n        /* \"#utility.yul\":10008:10127   */\n      iszero\n      tag_602\n      jumpi\n        /* \"#utility.yul\":10046:10125   */\n      tag_603\n      tag_433\n      jump\t// in\n    tag_603:\n        /* \"#utility.yul\":10008:10127   */\n    tag_602:\n        /* \"#utility.yul\":10166:10167   */\n      0x00\n        /* \"#utility.yul\":10191:10244   */\n      tag_604\n        /* \"#utility.yul\":10236:10243   */\n      dup6\n        /* \"#utility.yul\":10227:10233   */\n      dup3\n        /* \"#utility.yul\":10216:10225   */\n      dup7\n        /* \"#utility.yul\":10212:10234   */\n      add\n        /* \"#utility.yul\":10191:10244   */\n      tag_450\n      jump\t// in\n    tag_604:\n        /* \"#utility.yul\":10181:10244   */\n      swap3\n      pop\n        /* \"#utility.yul\":10137:10254   */\n      pop\n        /* \"#utility.yul\":10293:10295   */\n      0x20\n        /* \"#utility.yul\":10319:10372   */\n      tag_605\n        /* \"#utility.yul\":10364:10371   */\n      dup6\n        /* \"#utility.yul\":10355:10361   */\n      dup3\n        /* \"#utility.yul\":10344:10353   */\n      dup7\n        /* \"#utility.yul\":10340:10362   */\n      add\n        /* \"#utility.yul\":10319:10372   */\n      tag_450\n      jump\t// in\n    tag_605:\n        /* \"#utility.yul\":10309:10372   */\n      swap2\n      pop\n        /* \"#utility.yul\":10264:10382   */\n      pop\n        /* \"#utility.yul\":9915:10389   */\n      swap3\n      pop\n      swap3\n      swap1\n      pop\n      jump\t// out\n        /* \"#utility.yul\":10395:10869   */\n    tag_92:\n        /* \"#utility.yul\":10463:10469   */\n      0x00\n        /* \"#utility.yul\":10471:10477   */\n      dup1\n        /* \"#utility.yul\":10520:10522   */\n      0x40\n        /* \"#utility.yul\":10508:10517   */\n      dup4\n        /* \"#utility.yul\":10499:10506   */\n      dup6\n        /* \"#utility.yul\":10495:10518   */\n      sub\n        /* \"#utility.yul\":10491:10523   */\n      slt\n        /* \"#utility.yul\":10488:10607   */\n      iszero\n      tag_607\n      jumpi\n        /* \"#utility.yul\":10526:10605   */\n      tag_608\n      tag_433\n      jump\t// in\n    tag_608:\n        /* \"#utility.yul\":10488:10607   */\n    tag_607:\n        /* \"#utility.yul\":10646:10647   */\n      0x00\n        /* \"#utility.yul\":10671:10724   */\n      tag_609\n        /* \"#utility.yul\":10716:10723   */\n      dup6\n        /* \"#utility.yul\":10707:10713   */\n      dup3\n        /* \"#utility.yul\":10696:10705   */\n      dup7\n        /* \"#utility.yul\":10692:10714   */\n      add\n        /* \"#utility.yul\":10671:10724   */\n      tag_437\n      jump\t// in\n    tag_609:\n        /* \"#utility.yul\":10661:10724   */\n      swap3\n      pop\n        /* \"#utility.yul\":10617:10734   */\n      pop\n        /* \"#utility.yul\":10773:10775   */\n      0x20\n        /* \"#utility.yul\":10799:10852   */\n      tag_610\n        /* \"#utility.yul\":10844:10851   */\n      dup6\n        /* \"#utility.yul\":10835:10841   */\n      dup3\n        /* \"#utility.yul\":10824:10833   */\n      dup7\n        /* \"#utility.yul\":10820:10842   */\n      add\n        /* \"#utility.yul\":10799:10852   */\n      tag_437\n      jump\t// in\n    tag_610:\n        /* \"#utility.yul\":10789:10852   */\n      swap2\n      pop\n        /* \"#utility.yul\":10744:10862   */\n      pop\n        /* \"#utility.yul\":10395:10869   */\n      swap3\n      pop\n      swap3\n      swap1\n      pop\n      jump\t// out\n        /* \"#utility.yul\":10875:11690   */\n    tag_97:\n        /* \"#utility.yul\":10986:10992   */\n      0x00\n        /* \"#utility.yul\":10994:11000   */\n      dup1\n        /* \"#utility.yul\":11002:11008   */\n      0x00\n        /* \"#utility.yul\":11010:11016   */\n      dup1\n        /* \"#utility.yul\":11059:11062   */\n      0x0160\n        /* \"#utility.yul\":11047:11056   */\n      dup6\n        /* \"#utility.yul\":11038:11045   */\n      dup8\n        /* \"#utility.yul\":11034:11057   */\n      sub\n        /* \"#utility.yul\":11030:11063   */\n      slt\n        /* \"#utility.yul\":11027:11147   */\n      iszero\n      tag_612\n      jumpi\n        /* \"#utility.yul\":11066:11145   */\n      tag_613\n      tag_433\n      jump\t// in\n    tag_613:\n        /* \"#utility.yul\":11027:11147   */\n    tag_612:\n        /* \"#utility.yul\":11186:11187   */\n      0x00\n        /* \"#utility.yul\":11211:11264   */\n      tag_614\n        /* \"#utility.yul\":11256:11263   */\n      dup8\n        /* \"#utility.yul\":11247:11253   */\n      dup3\n        /* \"#utility.yul\":11236:11245   */\n      dup9\n        /* \"#utility.yul\":11232:11254   */\n      add\n        /* \"#utility.yul\":11211:11264   */\n      tag_450\n      jump\t// in\n    tag_614:\n        /* \"#utility.yul\":11201:11264   */\n      swap5\n      pop\n        /* \"#utility.yul\":11157:11274   */\n      pop\n        /* \"#utility.yul\":11313:11315   */\n      0x20\n        /* \"#utility.yul\":11339:11392   */\n      tag_615\n        /* \"#utility.yul\":11384:11391   */\n      dup8\n        /* \"#utility.yul\":11375:11381   */\n      dup3\n        /* \"#utility.yul\":11364:11373   */\n      dup9\n        /* \"#utility.yul\":11360:11382   */\n      add\n        /* \"#utility.yul\":11339:11392   */\n      tag_450\n      jump\t// in\n    tag_615:\n        /* \"#utility.yul\":11329:11392   */\n      swap4\n      pop\n        /* \"#utility.yul\":11284:11402   */\n      pop\n        /* \"#utility.yul\":11441:11443   */\n      0x40\n        /* \"#utility.yul\":11467:11520   */\n      tag_616\n        /* \"#utility.yul\":11512:11519   */\n      dup8\n        /* \"#utility.yul\":11503:11509   */\n      dup3\n        /* \"#utility.yul\":11492:11501   */\n      dup9\n        /* \"#utility.yul\":11488:11510   */\n      add\n        /* \"#utility.yul\":11467:11520   */\n      tag_437\n      jump\t// in\n    tag_616:\n        /* \"#utility.yul\":11457:11520   */\n      swap3\n      pop\n        /* \"#utility.yul\":11412:11530   */\n      pop\n        /* \"#utility.yul\":11569:11571   */\n      0x60\n        /* \"#utility.yul\":11595:11673   */\n      tag_617\n        /* \"#utility.yul\":11665:11672   */\n      dup8\n        /* \"#utility.yul\":11656:11662   */\n      dup3\n        /* \"#utility.yul\":11645:11654   */\n      dup9\n        /* \"#utility.yul\":11641:11663   */\n      add\n        /* \"#utility.yul\":11595:11673   */\n      tag_440\n      jump\t// in\n    tag_617:\n        /* \"#utility.yul\":11585:11673   */\n      swap2\n      pop\n        /* \"#utility.yul\":11540:11683   */\n      pop\n        /* \"#utility.yul\":10875:11690   */\n      swap3\n      swap6\n      swap2\n      swap5\n      pop\n      swap3\n      pop\n      jump\t// out\n        /* \"#utility.yul\":11696:12025   */\n    tag_102:\n        /* \"#utility.yul\":11755:11761   */\n      0x00\n        /* \"#utility.yul\":11804:11806   */\n      0x20\n        /* \"#utility.yul\":11792:11801   */\n      dup3\n        /* \"#utility.yul\":11783:11790   */\n      dup5\n        /* \"#utility.yul\":11779:11802   */\n      sub\n        /* \"#utility.yul\":11775:11807   */\n      slt\n        /* \"#utility.yul\":11772:11891   */\n      iszero\n      tag_619\n      jumpi\n        /* \"#utility.yul\":11810:11889   */\n      tag_620\n      tag_433\n      jump\t// in\n    tag_620:\n        /* \"#utility.yul\":11772:11891   */\n    tag_619:\n        /* \"#utility.yul\":11930:11931   */\n      0x00\n        /* \"#utility.yul\":11955:12008   */\n      tag_621\n        /* \"#utility.yul\":12000:12007   */\n      dup5\n        /* \"#utility.yul\":11991:11997   */\n      dup3\n        /* \"#utility.yul\":11980:11989   */\n      dup6\n        /* \"#utility.yul\":11976:11998   */\n      add\n        /* \"#utility.yul\":11955:12008   */\n      tag_447\n      jump\t// in\n    tag_621:\n        /* \"#utility.yul\":11945:12008   */\n      swap2\n      pop\n        /* \"#utility.yul\":11901:12018   */\n      pop\n        /* \"#utility.yul\":11696:12025   */\n      swap3\n      swap2\n      pop\n      pop\n      jump\t// out\n        /* \"#utility.yul\":12031:12211   */\n    tag_112:\n        /* \"#utility.yul\":12079:12156   */\n      0x4e487b7100000000000000000000000000000000000000000000000000000000\n        /* \"#utility.yul\":12076:12077   */\n      0x00\n        /* \"#utility.yul\":12069:12157   */\n      mstore\n        /* \"#utility.yul\":12176:12180   */\n      0x32\n        /* \"#utility.yul\":12173:12174   */\n      0x04\n        /* \"#utility.yul\":12166:12181   */\n      mstore\n        /* \"#utility.yul\":12200:12204   */\n      0x24\n        /* \"#utility.yul\":12197:12198   */\n      0x00\n        /* \"#utility.yul\":12190:12205   */\n      revert\n        /* \"#utility.yul\":12217:12386   */\n    tag_463:\n        /* \"#utility.yul\":12301:12312   */\n      0x00\n        /* \"#utility.yul\":12335:12341   */\n      dup3\n        /* \"#utility.yul\":12330:12333   */\n      dup3\n        /* \"#utility.yul\":12323:12342   */\n      mstore\n        /* \"#utility.yul\":12375:12379   */\n      0x20\n        /* \"#utility.yul\":12370:12373   */\n      dup3\n        /* \"#utility.yul\":12366:12380   */\n      add\n        /* \"#utility.yul\":12351:12380   */\n      swap1\n      pop\n        /* \"#utility.yul\":12217:12386   */\n      swap3\n      swap2\n      pop\n      pop\n      jump\t// out\n        /* \"#utility.yul\":12392:12559   */\n    tag_464:\n        /* \"#utility.yul\":12532:12551   */\n      0x496e76616c6964204943206c656e677468000000000000000000000000000000\n        /* \"#utility.yul\":12528:12529   */\n      0x00\n        /* \"#utility.yul\":12520:12526   */\n      dup3\n        /* \"#utility.yul\":12516:12530   */\n      add\n        /* \"#utility.yul\":12509:12552   */\n      mstore\n        /* \"#utility.yul\":12392:12559   */\n      pop\n      jump\t// out\n        /* \"#utility.yul\":12565:12931   */\n    tag_465:\n        /* \"#utility.yul\":12707:12710   */\n      0x00\n        /* \"#utility.yul\":12728:12795   */\n      tag_626\n        /* \"#utility.yul\":12792:12794   */\n      0x11\n        /* \"#utility.yul\":12787:12790   */\n      dup4\n        /* \"#utility.yul\":12728:12795   */\n      tag_463\n      jump\t// in\n    tag_626:\n        /* \"#utility.yul\":12721:12795   */\n      swap2\n      pop\n        /* \"#utility.yul\":12804:12897   */\n      tag_627\n        /* \"#utility.yul\":12893:12896   */\n      dup3\n        /* \"#utility.yul\":12804:12897   */\n      tag_464\n      jump\t// in\n    tag_627:\n        /* \"#utility.yul\":12922:12924   */\n      0x20\n        /* \"#utility.yul\":12917:12920   */\n      dup3\n        /* \"#utility.yul\":12913:12925   */\n      add\n        /* \"#utility.yul\":12906:12925   */\n      swap1\n      pop\n        /* \"#utility.yul\":12565:12931   */\n      swap2\n      swap1\n      pop\n      jump\t// out\n        /* \"#utility.yul\":12937:13356   */\n    tag_151:\n        /* \"#utility.yul\":13103:13107   */\n      0x00\n        /* \"#utility.yul\":13141:13143   */\n      0x20\n        /* \"#utility.yul\":13130:13139   */\n      dup3\n        /* \"#utility.yul\":13126:13144   */\n      add\n        /* \"#utility.yul\":13118:13144   */\n      swap1\n      pop\n        /* \"#utility.yul\":13190:13199   */\n      dup2\n        /* \"#utility.yul\":13184:13188   */\n      dup2\n        /* \"#utility.yul\":13180:13200   */\n      sub\n        /* \"#utility.yul\":13176:13177   */\n      0x00\n        /* \"#utility.yul\":13165:13174   */\n      dup4\n        /* \"#utility.yul\":13161:13178   */\n      add\n        /* \"#utility.yul\":13154:13201   */\n      mstore\n        /* \"#utility.yul\":13218:13349   */\n      tag_629\n        /* \"#utility.yul\":13344:13348   */\n      dup2\n        /* \"#utility.yul\":13218:13349   */\n      tag_465\n      jump\t// in\n    tag_629:\n        /* \"#utility.yul\":13210:13349   */\n      swap1\n      pop\n        /* \"#utility.yul\":12937:13356   */\n      swap2\n      swap1\n      pop\n      jump\t// out\n        /* \"#utility.yul\":13362:13530   */\n    tag_466:\n        /* \"#utility.yul\":13502:13522   */\n      0x496e76616c696420636f6d6d69746d656e740000000000000000000000000000\n        /* \"#utility.yul\":13498:13499   */\n      0x00\n        /* \"#utility.yul\":13490:13496   */\n      dup3\n        /* \"#utility.yul\":13486:13500   */\n      add\n        /* \"#utility.yul\":13479:13523   */\n      mstore\n        /* \"#utility.yul\":13362:13530   */\n      pop\n      jump\t// out\n        /* \"#utility.yul\":13536:13902   */\n    tag_467:\n        /* \"#utility.yul\":13678:13681   */\n      0x00\n        /* \"#utility.yul\":13699:13766   */\n      tag_632\n        /* \"#utility.yul\":13763:13765   */\n      0x12\n        /* \"#utility.yul\":13758:13761   */\n      dup4\n        /* \"#utility.yul\":13699:13766   */\n      tag_463\n      jump\t// in\n    tag_632:\n        /* \"#utility.yul\":13692:13766   */\n      swap2\n      pop\n        /* \"#utility.yul\":13775:13868   */\n      tag_633\n        /* \"#utility.yul\":13864:13867   */\n      dup3\n        /* \"#utility.yul\":13775:13868   */\n      tag_466\n      jump\t// in\n    tag_633:\n        /* \"#utility.yul\":13893:13895   */\n      0x20\n        /* \"#utility.yul\":13888:13891   */\n      dup3\n        /* \"#utility.yul\":13884:13896   */\n      add\n        /* \"#utility.yul\":13877:13896   */\n      swap1\n      pop\n        /* \"#utility.yul\":13536:13902   */\n      swap2\n      swap1\n      pop\n      jump\t// out\n        /* \"#utility.yul\":13908:14327   */\n    tag_194:\n        /* \"#utility.yul\":14074:14078   */\n      0x00\n        /* \"#utility.yul\":14112:14114   */\n      0x20\n        /* \"#utility.yul\":14101:14110   */\n      dup3\n        /* \"#utility.yul\":14097:14115   */\n      add\n        /* \"#utility.yul\":14089:14115   */\n      swap1\n      pop\n        /* \"#utility.yul\":14161:14170   */\n      dup2\n        /* \"#utility.yul\":14155:14159   */\n      dup2\n        /* \"#utility.yul\":14151:14171   */\n      sub\n        /* \"#utility.yul\":14147:14148   */\n      0x00\n        /* \"#utility.yul\":14136:14145   */\n      dup4\n        /* \"#utility.yul\":14132:14149   */\n      add\n        /* \"#utility.yul\":14125:14172   */\n      mstore\n        /* \"#utility.yul\":14189:14320   */\n      tag_635\n        /* \"#utility.yul\":14315:14319   */\n      dup2\n        /* \"#utility.yul\":14189:14320   */\n      tag_467\n      jump\t// in\n    tag_635:\n        /* \"#utility.yul\":14181:14320   */\n      swap1\n      pop\n        /* \"#utility.yul\":13908:14327   */\n      swap2\n      swap1\n      pop\n      jump\t// out\n        /* \"#utility.yul\":14333:14502   */\n    tag_468:\n        /* \"#utility.yul\":14473:14494   */\n      0x46696c6520616c72656164792065786973747300000000000000000000000000\n        /* \"#utility.yul\":14469:14470   */\n      0x00\n        /* \"#utility.yul\":14461:14467   */\n      dup3\n        /* \"#utility.yul\":14457:14471   */\n      add\n        /* \"#utility.yul\":14450:14495   */\n      mstore\n        /* \"#utility.yul\":14333:14502   */\n      pop\n      jump\t// out\n        /* \"#utility.yul\":14508:14874   */\n    tag_469:\n        /* \"#utility.yul\":14650:14653   */\n      0x00\n        /* \"#utility.yul\":14671:14738   */\n      tag_638\n        /* \"#utility.yul\":14735:14737   */\n      0x13\n        /* \"#utility.yul\":14730:14733   */\n      dup4\n        /* \"#utility.yul\":14671:14738   */\n      tag_463\n      jump\t// in\n    tag_638:\n        /* \"#utility.yul\":14664:14738   */\n      swap2\n      pop\n        /* \"#utility.yul\":14747:14840   */\n      tag_639\n        /* \"#utility.yul\":14836:14839   */\n      dup3\n        /* \"#utility.yul\":14747:14840   */\n      tag_468\n      jump\t// in\n    tag_639:\n        /* \"#utility.yul\":14865:14867   */\n      0x20\n        /* \"#utility.yul\":14860:14863   */\n      dup3\n        /* \"#utility.yul\":14856:14868   */\n      add\n        /* \"#utility.yul\":14849:14868   */\n      swap1\n      pop\n        /* \"#utility.yul\":14508:14874   */\n      swap2\n      swap1\n      pop\n      jump\t// out\n        /* \"#utility.yul\":14880:15299   */\n    tag_197:\n        /* \"#utility.yul\":15046:15050   */\n      0x00\n        /* \"#utility.yul\":15084:15086   */\n      0x20\n        /* \"#utility.yul\":15073:15082   */\n      dup3\n        /* \"#utility.yul\":15069:15087   */\n      add\n        /* \"#utility.yul\":15061:15087   */\n      swap1\n      pop\n        /* \"#utility.yul\":15133:15142   */\n      dup2\n        /* \"#utility.yul\":15127:15131   */\n      dup2\n        /* \"#utility.yul\":15123:15143   */\n      sub\n        /* \"#utility.yul\":15119:15120   */\n      0x00\n        /* \"#utility.yul\":15108:15117   */\n      dup4\n        /* \"#utility.yul\":15104:15121   */\n      add\n        /* \"#utility.yul\":15097:15144   */\n      mstore\n        /* \"#utility.yul\":15161:15292   */\n      tag_641\n        /* \"#utility.yul\":15287:15291   */\n      dup2\n        /* \"#utility.yul\":15161:15292   */\n      tag_469\n      jump\t// in\n    tag_641:\n        /* \"#utility.yul\":15153:15292   */\n      swap1\n      pop\n        /* \"#utility.yul\":14880:15299   */\n      swap2\n      swap1\n      pop\n      jump\t// out\n        /* \"#utility.yul\":15305:15637   */\n    tag_199:\n        /* \"#utility.yul\":15426:15430   */\n      0x00\n        /* \"#utility.yul\":15464:15466   */\n      0x40\n        /* \"#utility.yul\":15453:15462   */\n      dup3\n        /* \"#utility.yul\":15449:15467   */\n      add\n        /* \"#utility.yul\":15441:15467   */\n      swap1\n      pop\n        /* \"#utility.yul\":15477:15548   */\n      tag_643\n        /* \"#utility.yul\":15545:15546   */\n      0x00\n        /* \"#utility.yul\":15534:15543   */\n      dup4\n        /* \"#utility.yul\":15530:15547   */\n      add\n        /* \"#utility.yul\":15521:15527   */\n      dup6\n        /* \"#utility.yul\":15477:15548   */\n      tag_462\n      jump\t// in\n    tag_643:\n        /* \"#utility.yul\":15558:15630   */\n      tag_644\n        /* \"#utility.yul\":15626:15628   */\n      0x20\n        /* \"#utility.yul\":15615:15624   */\n      dup4\n        /* \"#utility.yul\":15611:15629   */\n      add\n        /* \"#utility.yul\":15602:15608   */\n      dup5\n        /* \"#utility.yul\":15558:15630   */\n      tag_462\n      jump\t// in\n    tag_644:\n        /* \"#utility.yul\":15305:15637   */\n      swap4\n      swap3\n      pop\n      pop\n      pop\n      jump\t// out\n        /* \"#utility.yul\":15643:15759   */\n    tag_470:\n        /* \"#utility.yul\":15713:15734   */\n      tag_646\n        /* \"#utility.yul\":15728:15733   */\n      dup2\n        /* \"#utility.yul\":15713:15734   */\n      tag_442\n      jump\t// in\n    tag_646:\n        /* \"#utility.yul\":15706:15711   */\n      dup2\n        /* \"#utility.yul\":15703:15735   */\n      eq\n        /* \"#utility.yul\":15693:15753   */\n      tag_647\n      jumpi\n        /* \"#utility.yul\":15749:15750   */\n      0x00\n        /* \"#utility.yul\":15746:15747   */\n      dup1\n        /* \"#utility.yul\":15739:15751   */\n      revert\n        /* \"#utility.yul\":15693:15753   */\n    tag_647:\n        /* \"#utility.yul\":15643:15759   */\n      pop\n      jump\t// out\n        /* \"#utility.yul\":15765:15902   */\n    tag_471:\n        /* \"#utility.yul\":15819:15824   */\n      0x00\n        /* \"#utility.yul\":15850:15856   */\n      dup2\n        /* \"#utility.yul\":15844:15857   */\n      mload\n        /* \"#utility.yul\":15835:15857   */\n      swap1\n      pop\n        /* \"#utility.yul\":15866:15896   */\n      tag_649\n        /* \"#utility.yul\":15890:15895   */\n      dup2\n        /* \"#utility.yul\":15866:15896   */\n      tag_470\n      jump\t// in\n    tag_649:\n        /* \"#utility.yul\":15765:15902   */\n      swap3\n      swap2\n      pop\n      pop\n      jump\t// out\n        /* \"#utility.yul\":15908:16253   */\n    tag_203:\n        /* \"#utility.yul\":15975:15981   */\n      0x00\n        /* \"#utility.yul\":16024:16026   */\n      0x20\n        /* \"#utility.yul\":16012:16021   */\n      dup3\n        /* \"#utility.yul\":16003:16010   */\n      dup5\n        /* \"#utility.yul\":15999:16022   */\n      sub\n        /* \"#utility.yul\":15995:16027   */\n      slt\n        /* \"#utility.yul\":15992:16111   */\n      iszero\n      tag_651\n      jumpi\n        /* \"#utility.yul\":16030:16109   */\n      tag_652\n      tag_433\n      jump\t// in\n    tag_652:\n        /* \"#utility.yul\":15992:16111   */\n    tag_651:\n        /* \"#utility.yul\":16150:16151   */\n      0x00\n        /* \"#utility.yul\":16175:16236   */\n      tag_653\n        /* \"#utility.yul\":16228:16235   */\n      dup5\n        /* \"#utility.yul\":16219:16225   */\n      dup3\n        /* \"#utility.yul\":16208:16217   */\n      dup6\n        /* \"#utility.yul\":16204:16226   */\n      add\n        /* \"#utility.yul\":16175:16236   */\n      tag_471\n      jump\t// in\n    tag_653:\n        /* \"#utility.yul\":16165:16236   */\n      swap2\n      pop\n        /* \"#utility.yul\":16121:16246   */\n      pop\n        /* \"#utility.yul\":15908:16253   */\n      swap3\n      swap2\n      pop\n      pop\n      jump\t// out\n        /* \"#utility.yul\":16259:16439   */\n    tag_472:\n        /* \"#utility.yul\":16399:16431   */\n      0x426974546f7272656e7420726567697374726174696f6e206661696c65640000\n        /* \"#utility.yul\":16395:16396   */\n      0x00\n        /* \"#utility.yul\":16387:16393   */\n      dup3\n        /* \"#utility.yul\":16383:16397   */\n      add\n        /* \"#utility.yul\":16376:16432   */\n      mstore\n        /* \"#utility.yul\":16259:16439   */\n      pop\n      jump\t// out\n        /* \"#utility.yul\":16445:16811   */\n    tag_473:\n        /* \"#utility.yul\":16587:16590   */\n      0x00\n        /* \"#utility.yul\":16608:16675   */\n      tag_656\n        /* \"#utility.yul\":16672:16674   */\n      0x1e\n        /* \"#utility.yul\":16667:16670   */\n      dup4\n        /* \"#utility.yul\":16608:16675   */\n      tag_463\n      jump\t// in\n    tag_656:\n        /* \"#utility.yul\":16601:16675   */\n      swap2\n      pop\n        /* \"#utility.yul\":16684:16777   */\n      tag_657\n        /* \"#utility.yul\":16773:16776   */\n      dup3\n        /* \"#utility.yul\":16684:16777   */\n      tag_472\n      jump\t// in\n    tag_657:\n        /* \"#utility.yul\":16802:16804   */\n      0x20\n        /* \"#utility.yul\":16797:16800   */\n      dup3\n        /* \"#utility.yul\":16793:16805   */\n      add\n        /* \"#utility.yul\":16786:16805   */\n      swap1\n      pop\n        /* \"#utility.yul\":16445:16811   */\n      swap2\n      swap1\n      pop\n      jump\t// out\n        /* \"#utility.yul\":16817:17236   */\n    tag_206:\n        /* \"#utility.yul\":16983:16987   */\n      0x00\n        /* \"#utility.yul\":17021:17023   */\n      0x20\n        /* \"#utility.yul\":17010:17019   */\n      dup3\n        /* \"#utility.yul\":17006:17024   */\n      add\n        /* \"#utility.yul\":16998:17024   */\n      swap1\n      pop\n        /* \"#utility.yul\":17070:17079   */\n      dup2\n        /* \"#utility.yul\":17064:17068   */\n      dup2\n        /* \"#utility.yul\":17060:17080   */\n      sub\n        /* \"#utility.yul\":17056:17057   */\n      0x00\n        /* \"#utility.yul\":17045:17054   */\n      dup4\n        /* \"#utility.yul\":17041:17058   */\n      add\n        /* \"#utility.yul\":17034:17081   */\n      mstore\n        /* \"#utility.yul\":17098:17229   */\n      tag_659\n        /* \"#utility.yul\":17224:17228   */\n      dup2\n        /* \"#utility.yul\":17098:17229   */\n      tag_473\n      jump\t// in\n    tag_659:\n        /* \"#utility.yul\":17090:17229   */\n      swap1\n      pop\n        /* \"#utility.yul\":16817:17236   */\n      swap2\n      swap1\n      pop\n      jump\t// out\n        /* \"#utility.yul\":17242:17341   */\n    tag_474:\n        /* \"#utility.yul\":17327:17333   */\n      dup3\n        /* \"#utility.yul\":17322:17325   */\n      dup2\n        /* \"#utility.yul\":17317:17320   */\n      dup4\n        /* \"#utility.yul\":17304:17334   */\n      calldatacopy\n        /* \"#utility.yul\":17242:17341   */\n      pop\n      pop\n      pop\n      jump\t// out\n        /* \"#utility.yul\":17379:17551   */\n    tag_475:\n        /* \"#utility.yul\":17502:17545   */\n      tag_662\n        /* \"#utility.yul\":17538:17544   */\n      0x0100\n        /* \"#utility.yul\":17533:17536   */\n      dup4\n        /* \"#utility.yul\":17526:17531   */\n      dup4\n        /* \"#utility.yul\":17502:17545   */\n      tag_474\n      jump\t// in\n    tag_662:\n        /* \"#utility.yul\":17379:17551   */\n      pop\n      pop\n      jump\t// out\n        /* \"#utility.yul\":17557:17661   */\n    tag_476:\n        /* \"#utility.yul\":17622:17628   */\n      0x00\n        /* \"#utility.yul\":17650:17654   */\n      0x01\n        /* \"#utility.yul\":17640:17654   */\n      swap1\n      pop\n        /* \"#utility.yul\":17557:17661   */\n      swap2\n      swap1\n      pop\n      jump\t// out\n        /* \"#utility.yul\":17667:17810   */\n    tag_477:\n        /* \"#utility.yul\":17764:17775   */\n      0x00\n        /* \"#utility.yul\":17801:17804   */\n      dup2\n        /* \"#utility.yul\":17786:17804   */\n      swap1\n      pop\n        /* \"#utility.yul\":17667:17810   */\n      swap3\n      swap2\n      pop\n      pop\n      jump\t// out\n        /* \"#utility.yul\":17816:17914   */\n    tag_478:\n        /* \"#utility.yul\":17881:17885   */\n      0x00\n        /* \"#utility.yul\":17904:17907   */\n      dup2\n        /* \"#utility.yul\":17896:17907   */\n      swap1\n      pop\n        /* \"#utility.yul\":17816:17914   */\n      swap2\n      swap1\n      pop\n      jump\t// out\n        /* \"#utility.yul\":17920:18028   */\n    tag_479:\n        /* \"#utility.yul\":17997:18021   */\n      tag_667\n        /* \"#utility.yul\":18015:18020   */\n      dup2\n        /* \"#utility.yul\":17997:18021   */\n      tag_435\n      jump\t// in\n    tag_667:\n        /* \"#utility.yul\":17992:17995   */\n      dup3\n        /* \"#utility.yul\":17985:18022   */\n      mstore\n        /* \"#utility.yul\":17920:18028   */\n      pop\n      pop\n      jump\t// out\n        /* \"#utility.yul\":18034:18213   */\n    tag_480:\n        /* \"#utility.yul\":18103:18113   */\n      0x00\n        /* \"#utility.yul\":18124:18170   */\n      tag_669\n        /* \"#utility.yul\":18166:18169   */\n      dup4\n        /* \"#utility.yul\":18158:18164   */\n      dup4\n        /* \"#utility.yul\":18124:18170   */\n      tag_479\n      jump\t// in\n    tag_669:\n        /* \"#utility.yul\":18202:18206   */\n      0x20\n        /* \"#utility.yul\":18197:18200   */\n      dup4\n        /* \"#utility.yul\":18193:18207   */\n      add\n        /* \"#utility.yul\":18179:18207   */\n      swap1\n      pop\n        /* \"#utility.yul\":18034:18213   */\n      swap3\n      swap2\n      pop\n      pop\n      jump\t// out\n        /* \"#utility.yul\":18219:18330   */\n    tag_481:\n        /* \"#utility.yul\":18287:18291   */\n      0x00\n        /* \"#utility.yul\":18319:18323   */\n      0x20\n        /* \"#utility.yul\":18314:18317   */\n      dup3\n        /* \"#utility.yul\":18310:18324   */\n      add\n        /* \"#utility.yul\":18302:18324   */\n      swap1\n      pop\n        /* \"#utility.yul\":18219:18330   */\n      swap2\n      swap1\n      pop\n      jump\t// out\n        /* \"#utility.yul\":18368:19062   */\n    tag_482:\n        /* \"#utility.yul\":18504:18556   */\n      tag_672\n        /* \"#utility.yul\":18550:18555   */\n      dup2\n        /* \"#utility.yul\":18504:18556   */\n      tag_476\n      jump\t// in\n    tag_672:\n        /* \"#utility.yul\":18572:18656   */\n      tag_673\n        /* \"#utility.yul\":18649:18655   */\n      dup2\n        /* \"#utility.yul\":18644:18647   */\n      dup5\n        /* \"#utility.yul\":18572:18656   */\n      tag_477\n      jump\t// in\n    tag_673:\n        /* \"#utility.yul\":18565:18656   */\n      swap3\n      pop\n        /* \"#utility.yul\":18680:18734   */\n      tag_674\n        /* \"#utility.yul\":18728:18733   */\n      dup3\n        /* \"#utility.yul\":18680:18734   */\n      tag_478\n      jump\t// in\n    tag_674:\n        /* \"#utility.yul\":18757:18764   */\n      dup1\n        /* \"#utility.yul\":18788:18789   */\n      0x00\n        /* \"#utility.yul\":18773:19055   */\n    tag_675:\n        /* \"#utility.yul\":18798:18804   */\n      dup4\n        /* \"#utility.yul\":18795:18796   */\n      dup2\n        /* \"#utility.yul\":18792:18805   */\n      lt\n        /* \"#utility.yul\":18773:19055   */\n      iszero\n      tag_677\n      jumpi\n        /* \"#utility.yul\":18874:18880   */\n      dup2\n        /* \"#utility.yul\":18868:18881   */\n      mload\n        /* \"#utility.yul\":18901:18964   */\n      tag_678\n        /* \"#utility.yul\":18960:18963   */\n      dup8\n        /* \"#utility.yul\":18945:18958   */\n      dup3\n        /* \"#utility.yul\":18901:18964   */\n      tag_480\n      jump\t// in\n    tag_678:\n        /* \"#utility.yul\":18894:18964   */\n      swap7\n      pop\n        /* \"#utility.yul\":18987:19045   */\n      tag_679\n        /* \"#utility.yul\":19038:19044   */\n      dup4\n        /* \"#utility.yul\":18987:19045   */\n      tag_481\n      jump\t// in\n    tag_679:\n        /* \"#utility.yul\":18977:19045   */\n      swap3\n      pop\n        /* \"#utility.yul\":18833:19055   */\n      pop\n        /* \"#utility.yul\":18820:18821   */\n      0x01\n        /* \"#utility.yul\":18817:18818   */\n      dup2\n        /* \"#utility.yul\":18813:18822   */\n      add\n        /* \"#utility.yul\":18808:18822   */\n      swap1\n      pop\n        /* \"#utility.yul\":18773:19055   */\n      jump(tag_675)\n    tag_677:\n        /* \"#utility.yul\":18777:18791   */\n      pop\n        /* \"#utility.yul\":18480:19062   */\n      pop\n      pop\n      pop\n        /* \"#utility.yul\":18368:19062   */\n      pop\n      pop\n      jump\t// out\n        /* \"#utility.yul\":19068:19590   */\n    tag_208:\n        /* \"#utility.yul\":19283:19287   */\n      0x00\n        /* \"#utility.yul\":19321:19324   */\n      0x0120\n        /* \"#utility.yul\":19310:19319   */\n      dup3\n        /* \"#utility.yul\":19306:19325   */\n      add\n        /* \"#utility.yul\":19298:19325   */\n      swap1\n      pop\n        /* \"#utility.yul\":19335:19454   */\n      tag_681\n        /* \"#utility.yul\":19451:19452   */\n      0x00\n        /* \"#utility.yul\":19440:19449   */\n      dup4\n        /* \"#utility.yul\":19436:19453   */\n      add\n        /* \"#utility.yul\":19427:19433   */\n      dup6\n        /* \"#utility.yul\":19335:19454   */\n      tag_475\n      jump\t// in\n    tag_681:\n        /* \"#utility.yul\":19464:19583   */\n      tag_682\n        /* \"#utility.yul\":19578:19581   */\n      0x0100\n        /* \"#utility.yul\":19567:19576   */\n      dup4\n        /* \"#utility.yul\":19563:19582   */\n      add\n        /* \"#utility.yul\":19554:19560   */\n      dup5\n        /* \"#utility.yul\":19464:19583   */\n      tag_482\n      jump\t// in\n    tag_682:\n        /* \"#utility.yul\":19068:19590   */\n      swap4\n      swap3\n      pop\n      pop\n      pop\n      jump\t// out\n        /* \"#utility.yul\":19596:19764   */\n    tag_483:\n        /* \"#utility.yul\":19736:19756   */\n      0x496e76616c69642066696c652070726f6f660000000000000000000000000000\n        /* \"#utility.yul\":19732:19733   */\n      0x00\n        /* \"#utility.yul\":19724:19730   */\n      dup3\n        /* \"#utility.yul\":19720:19734   */\n      add\n        /* \"#utility.yul\":19713:19757   */\n      mstore\n        /* \"#utility.yul\":19596:19764   */\n      pop\n      jump\t// out\n        /* \"#utility.yul\":19770:20136   */\n    tag_484:\n        /* \"#utility.yul\":19912:19915   */\n      0x00\n        /* \"#utility.yul\":19933:20000   */\n      tag_685\n        /* \"#utility.yul\":19997:19999   */\n      0x12\n        /* \"#utility.yul\":19992:19995   */\n      dup4\n        /* \"#utility.yul\":19933:20000   */\n      tag_463\n      jump\t// in\n    tag_685:\n        /* \"#utility.yul\":19926:20000   */\n      swap2\n      pop\n        /* \"#utility.yul\":20009:20102   */\n      tag_686\n        /* \"#utility.yul\":20098:20101   */\n      dup3\n        /* \"#utility.yul\":20009:20102   */\n      tag_483\n      jump\t// in\n    tag_686:\n        /* \"#utility.yul\":20127:20129   */\n      0x20\n        /* \"#utility.yul\":20122:20125   */\n      dup3\n        /* \"#utility.yul\":20118:20130   */\n      add\n        /* \"#utility.yul\":20111:20130   */\n      swap1\n      pop\n        /* \"#utility.yul\":19770:20136   */\n      swap2\n      swap1\n      pop\n      jump\t// out\n        /* \"#utility.yul\":20142:20561   */\n    tag_214:\n        /* \"#utility.yul\":20308:20312   */\n      0x00\n        /* \"#utility.yul\":20346:20348   */\n      0x20\n        /* \"#utility.yul\":20335:20344   */\n      dup3\n        /* \"#utility.yul\":20331:20349   */\n      add\n        /* \"#utility.yul\":20323:20349   */\n      swap1\n      pop\n        /* \"#utility.yul\":20395:20404   */\n      dup2\n        /* \"#utility.yul\":20389:20393   */\n      dup2\n        /* \"#utility.yul\":20385:20405   */\n      sub\n        /* \"#utility.yul\":20381:20382   */\n      0x00\n        /* \"#utility.yul\":20370:20379   */\n      dup4\n        /* \"#utility.yul\":20366:20383   */\n      add\n        /* \"#utility.yul\":20359:20406   */\n      mstore\n        /* \"#utility.yul\":20423:20554   */\n      tag_688\n        /* \"#utility.yul\":20549:20553   */\n      dup2\n        /* \"#utility.yul\":20423:20554   */\n      tag_484\n      jump\t// in\n    tag_688:\n        /* \"#utility.yul\":20415:20554   */\n      swap1\n      pop\n        /* \"#utility.yul\":20142:20561   */\n      swap2\n      swap1\n      pop\n      jump\t// out\n        /* \"#utility.yul\":20567:20899   */\n    tag_216:\n        /* \"#utility.yul\":20688:20692   */\n      0x00\n        /* \"#utility.yul\":20726:20728   */\n      0x40\n        /* \"#utility.yul\":20715:20724   */\n      dup3\n        /* \"#utility.yul\":20711:20729   */\n      add\n        /* \"#utility.yul\":20703:20729   */\n      swap1\n      pop\n        /* \"#utility.yul\":20739:20810   */\n      tag_690\n        /* \"#utility.yul\":20807:20808   */\n      0x00\n        /* \"#utility.yul\":20796:20805   */\n      dup4\n        /* \"#utility.yul\":20792:20809   */\n      add\n        /* \"#utility.yul\":20783:20789   */\n      dup6\n        /* \"#utility.yul\":20739:20810   */\n      tag_438\n      jump\t// in\n    tag_690:\n        /* \"#utility.yul\":20820:20892   */\n      tag_691\n        /* \"#utility.yul\":20888:20890   */\n      0x20\n        /* \"#utility.yul\":20877:20886   */\n      dup4\n        /* \"#utility.yul\":20873:20891   */\n      add\n        /* \"#utility.yul\":20864:20870   */\n      dup5\n        /* \"#utility.yul\":20820:20892   */\n      tag_438\n      jump\t// in\n    tag_691:\n        /* \"#utility.yul\":20567:20899   */\n      swap4\n      swap3\n      pop\n      pop\n      pop\n      jump\t// out\n        /* \"#utility.yul\":20905:21085   */\n    tag_485:\n        /* \"#utility.yul\":20953:21030   */\n      0x4e487b7100000000000000000000000000000000000000000000000000000000\n        /* \"#utility.yul\":20950:20951   */\n      0x00\n        /* \"#utility.yul\":20943:21031   */\n      mstore\n        /* \"#utility.yul\":21050:21054   */\n      0x11\n        /* \"#utility.yul\":21047:21048   */\n      0x04\n        /* \"#utility.yul\":21040:21055   */\n      mstore\n        /* \"#utility.yul\":21074:21078   */\n      0x24\n        /* \"#utility.yul\":21071:21072   */\n      0x00\n        /* \"#utility.yul\":21064:21079   */\n      revert\n        /* \"#utility.yul\":21091:21282   */\n    tag_227:\n        /* \"#utility.yul\":21131:21134   */\n      0x00\n        /* \"#utility.yul\":21150:21170   */\n      tag_694\n        /* \"#utility.yul\":21168:21169   */\n      dup3\n        /* \"#utility.yul\":21150:21170   */\n      tag_435\n      jump\t// in\n    tag_694:\n        /* \"#utility.yul\":21145:21170   */\n      swap2\n      pop\n        /* \"#utility.yul\":21184:21204   */\n      tag_695\n        /* \"#utility.yul\":21202:21203   */\n      dup4\n        /* \"#utility.yul\":21184:21204   */\n      tag_435\n      jump\t// in\n    tag_695:\n        /* \"#utility.yul\":21179:21204   */\n      swap3\n      pop\n        /* \"#utility.yul\":21227:21228   */\n      dup3\n        /* \"#utility.yul\":21224:21225   */\n      dup3\n        /* \"#utility.yul\":21220:21229   */\n      add\n        /* \"#utility.yul\":21213:21229   */\n      swap1\n      pop\n        /* \"#utility.yul\":21248:21251   */\n      dup1\n        /* \"#utility.yul\":21245:21246   */\n      dup3\n        /* \"#utility.yul\":21242:21252   */\n      gt\n        /* \"#utility.yul\":21239:21275   */\n      iszero\n      tag_696\n      jumpi\n        /* \"#utility.yul\":21255:21273   */\n      tag_697\n      tag_485\n      jump\t// in\n    tag_697:\n        /* \"#utility.yul\":21239:21275   */\n    tag_696:\n        /* \"#utility.yul\":21091:21282   */\n      swap3\n      swap2\n      pop\n      pop\n      jump\t// out\n        /* \"#utility.yul\":21288:21458   */\n    tag_486:\n        /* \"#utility.yul\":21428:21450   */\n      0x496e76616c696420696e707574206c656e677468000000000000000000000000\n        /* \"#utility.yul\":21424:21425   */\n      0x00\n        /* \"#utility.yul\":21416:21422   */\n      dup3\n        /* \"#utility.yul\":21412:21426   */\n      add\n        /* \"#utility.yul\":21405:21451   */\n      mstore\n        /* \"#utility.yul\":21288:21458   */\n      pop\n      jump\t// out\n        /* \"#utility.yul\":21464:21830   */\n    tag_487:\n        /* \"#utility.yul\":21606:21609   */\n      0x00\n        /* \"#utility.yul\":21627:21694   */\n      tag_700\n        /* \"#utility.yul\":21691:21693   */\n      0x14\n        /* \"#utility.yul\":21686:21689   */\n      dup4\n        /* \"#utility.yul\":21627:21694   */\n      tag_463\n      jump\t// in\n    tag_700:\n        /* \"#utility.yul\":21620:21694   */\n      swap2\n      pop\n        /* \"#utility.yul\":21703:21796   */\n      tag_701\n        /* \"#utility.yul\":21792:21795   */\n      dup3\n        /* \"#utility.yul\":21703:21796   */\n      tag_486\n      jump\t// in\n    tag_701:\n        /* \"#utility.yul\":21821:21823   */\n      0x20\n        /* \"#utility.yul\":21816:21819   */\n      dup3\n        /* \"#utility.yul\":21812:21824   */\n      add\n        /* \"#utility.yul\":21805:21824   */\n      swap1\n      pop\n        /* \"#utility.yul\":21464:21830   */\n      swap2\n      swap1\n      pop\n      jump\t// out\n        /* \"#utility.yul\":21836:22255   */\n    tag_230:\n        /* \"#utility.yul\":22002:22006   */\n      0x00\n        /* \"#utility.yul\":22040:22042   */\n      0x20\n        /* \"#utility.yul\":22029:22038   */\n      dup3\n        /* \"#utility.yul\":22025:22043   */\n      add\n        /* \"#utility.yul\":22017:22043   */\n      swap1\n      pop\n        /* \"#utility.yul\":22089:22098   */\n      dup2\n        /* \"#utility.yul\":22083:22087   */\n      dup2\n        /* \"#utility.yul\":22079:22099   */\n      sub\n        /* \"#utility.yul\":22075:22076   */\n      0x00\n        /* \"#utility.yul\":22064:22073   */\n      dup4\n        /* \"#utility.yul\":22060:22077   */\n      add\n        /* \"#utility.yul\":22053:22100   */\n      mstore\n        /* \"#utility.yul\":22117:22248   */\n      tag_703\n        /* \"#utility.yul\":22243:22247   */\n      dup2\n        /* \"#utility.yul\":22117:22248   */\n      tag_487\n      jump\t// in\n    tag_703:\n        /* \"#utility.yul\":22109:22248   */\n      swap1\n      pop\n        /* \"#utility.yul\":21836:22255   */\n      swap2\n      swap1\n      pop\n      jump\t// out\n        /* \"#utility.yul\":22261:22671   */\n    tag_281:\n        /* \"#utility.yul\":22301:22308   */\n      0x00\n        /* \"#utility.yul\":22324:22344   */\n      tag_705\n        /* \"#utility.yul\":22342:22343   */\n      dup3\n        /* \"#utility.yul\":22324:22344   */\n      tag_435\n      jump\t// in\n    tag_705:\n        /* \"#utility.yul\":22319:22344   */\n      swap2\n      pop\n        /* \"#utility.yul\":22358:22378   */\n      tag_706\n        /* \"#utility.yul\":22376:22377   */\n      dup4\n        /* \"#utility.yul\":22358:22378   */\n      tag_435\n      jump\t// in\n    tag_706:\n        /* \"#utility.yul\":22353:22378   */\n      swap3\n      pop\n        /* \"#utility.yul\":22413:22414   */\n      dup3\n        /* \"#utility.yul\":22410:22411   */\n      dup3\n        /* \"#utility.yul\":22406:22415   */\n      mul\n        /* \"#utility.yul\":22435:22465   */\n      tag_707\n        /* \"#utility.yul\":22453:22464   */\n      dup2\n        /* \"#utility.yul\":22435:22465   */\n      tag_435\n      jump\t// in\n    tag_707:\n        /* \"#utility.yul\":22424:22465   */\n      swap2\n      pop\n        /* \"#utility.yul\":22614:22615   */\n      dup3\n        /* \"#utility.yul\":22605:22612   */\n      dup3\n        /* \"#utility.yul\":22601:22616   */\n      div\n        /* \"#utility.yul\":22598:22599   */\n      dup5\n        /* \"#utility.yul\":22595:22617   */\n      eq\n        /* \"#utility.yul\":22575:22576   */\n      dup4\n        /* \"#utility.yul\":22568:22577   */\n      iszero\n        /* \"#utility.yul\":22548:22631   */\n      or\n        /* \"#utility.yul\":22525:22664   */\n      tag_708\n      jumpi\n        /* \"#utility.yul\":22644:22662   */\n      tag_709\n      tag_485\n      jump\t// in\n    tag_709:\n        /* \"#utility.yul\":22525:22664   */\n    tag_708:\n        /* \"#utility.yul\":22309:22671   */\n      pop\n        /* \"#utility.yul\":22261:22671   */\n      swap3\n      swap2\n      pop\n      pop\n      jump\t// out\n        /* \"#utility.yul\":22677:22847   */\n    tag_488:\n        /* \"#utility.yul\":22817:22839   */\n      0x50616972696e6720636865636b206661696c6564000000000000000000000000\n        /* \"#utility.yul\":22813:22814   */\n      0x00\n        /* \"#utility.yul\":22805:22811   */\n      dup3\n        /* \"#utility.yul\":22801:22815   */\n      add\n        /* \"#utility.yul\":22794:22840   */\n      mstore\n        /* \"#utility.yul\":22677:22847   */\n      pop\n      jump\t// out\n        /* \"#utility.yul\":22853:23219   */\n    tag_489:\n        /* \"#utility.yul\":22995:22998   */\n      0x00\n        /* \"#utility.yul\":23016:23083   */\n      tag_712\n        /* \"#utility.yul\":23080:23082   */\n      0x14\n        /* \"#utility.yul\":23075:23078   */\n      dup4\n        /* \"#utility.yul\":23016:23083   */\n      tag_463\n      jump\t// in\n    tag_712:\n        /* \"#utility.yul\":23009:23083   */\n      swap2\n      pop\n        /* \"#utility.yul\":23092:23185   */\n      tag_713\n        /* \"#utility.yul\":23181:23184   */\n      dup3\n        /* \"#utility.yul\":23092:23185   */\n      tag_488\n      jump\t// in\n    tag_713:\n        /* \"#utility.yul\":23210:23212   */\n      0x20\n        /* \"#utility.yul\":23205:23208   */\n      dup3\n        /* \"#utility.yul\":23201:23213   */\n      add\n        /* \"#utility.yul\":23194:23213   */\n      swap1\n      pop\n        /* \"#utility.yul\":22853:23219   */\n      swap2\n      swap1\n      pop\n      jump\t// out\n        /* \"#utility.yul\":23225:23644   */\n    tag_418:\n        /* \"#utility.yul\":23391:23395   */\n      0x00\n        /* \"#utility.yul\":23429:23431   */\n      0x20\n        /* \"#utility.yul\":23418:23427   */\n      dup3\n        /* \"#utility.yul\":23414:23432   */\n      add\n        /* \"#utility.yul\":23406:23432   */\n      swap1\n      pop\n        /* \"#utility.yul\":23478:23487   */\n      dup2\n        /* \"#utility.yul\":23472:23476   */\n      dup2\n        /* \"#utility.yul\":23468:23488   */\n      sub\n        /* \"#utility.yul\":23464:23465   */\n      0x00\n        /* \"#utility.yul\":23453:23462   */\n      dup4\n        /* \"#utility.yul\":23449:23466   */\n      add\n        /* \"#utility.yul\":23442:23489   */\n      mstore\n        /* \"#utility.yul\":23506:23637   */\n      tag_715\n        /* \"#utility.yul\":23632:23636   */\n      dup2\n        /* \"#utility.yul\":23506:23637   */\n      tag_489\n      jump\t// in\n    tag_715:\n        /* \"#utility.yul\":23498:23637   */\n      swap1\n      pop\n        /* \"#utility.yul\":23225:23644   */\n      swap2\n      swap1\n      pop\n      jump\t// out\n        /* \"#utility.yul\":23650:23830   */\n    tag_490:\n        /* \"#utility.yul\":23698:23775   */\n      0x4e487b7100000000000000000000000000000000000000000000000000000000\n        /* \"#utility.yul\":23695:23696   */\n      0x00\n        /* \"#utility.yul\":23688:23776   */\n      mstore\n        /* \"#utility.yul\":23795:23799   */\n      0x12\n        /* \"#utility.yul\":23792:23793   */\n      0x04\n        /* \"#utility.yul\":23785:23800   */\n      mstore\n        /* \"#utility.yul\":23819:23823   */\n      0x24\n        /* \"#utility.yul\":23816:23817   */\n      0x00\n        /* \"#utility.yul\":23809:23824   */\n      revert\n        /* \"#utility.yul\":23836:24012   */\n    tag_429:\n        /* \"#utility.yul\":23868:23869   */\n      0x00\n        /* \"#utility.yul\":23885:23905   */\n      tag_718\n        /* \"#utility.yul\":23903:23904   */\n      dup3\n        /* \"#utility.yul\":23885:23905   */\n      tag_435\n      jump\t// in\n    tag_718:\n        /* \"#utility.yul\":23880:23905   */\n      swap2\n      pop\n        /* \"#utility.yul\":23919:23939   */\n      tag_719\n        /* \"#utility.yul\":23937:23938   */\n      dup4\n        /* \"#utility.yul\":23919:23939   */\n      tag_435\n      jump\t// in\n    tag_719:\n        /* \"#utility.yul\":23914:23939   */\n      swap3\n      pop\n        /* \"#utility.yul\":23958:23959   */\n      dup3\n        /* \"#utility.yul\":23948:23983   */\n      tag_720\n      jumpi\n        /* \"#utility.yul\":23963:23981   */\n      tag_721\n      tag_490\n      jump\t// in\n    tag_721:\n        /* \"#utility.yul\":23948:23983   */\n    tag_720:\n        /* \"#utility.yul\":24004:24005   */\n      dup3\n        /* \"#utility.yul\":24001:24002   */\n      dup3\n        /* \"#utility.yul\":23997:24006   */\n      mod\n        /* \"#utility.yul\":23992:24006   */\n      swap1\n      pop\n        /* \"#utility.yul\":23836:24012   */\n      swap3\n      swap2\n      pop\n      pop\n      jump\t// out\n        /* \"#utility.yul\":24018:24212   */\n    tag_431:\n        /* \"#utility.yul\":24058:24062   */\n      0x00\n        /* \"#utility.yul\":24078:24098   */\n      tag_723\n        /* \"#utility.yul\":24096:24097   */\n      dup3\n        /* \"#utility.yul\":24078:24098   */\n      tag_435\n      jump\t// in\n    tag_723:\n        /* \"#utility.yul\":24073:24098   */\n      swap2\n      pop\n        /* \"#utility.yul\":24112:24132   */\n      tag_724\n        /* \"#utility.yul\":24130:24131   */\n      dup4\n        /* \"#utility.yul\":24112:24132   */\n      tag_435\n      jump\t// in\n    tag_724:\n        /* \"#utility.yul\":24107:24132   */\n      swap3\n      pop\n        /* \"#utility.yul\":24156:24157   */\n      dup3\n        /* \"#utility.yul\":24153:24154   */\n      dup3\n        /* \"#utility.yul\":24149:24158   */\n      sub\n        /* \"#utility.yul\":24141:24158   */\n      swap1\n      pop\n        /* \"#utility.yul\":24180:24181   */\n      dup2\n        /* \"#utility.yul\":24174:24178   */\n      dup2\n        /* \"#utility.yul\":24171:24182   */\n      gt\n        /* \"#utility.yul\":24168:24205   */\n      iszero\n      tag_725\n      jumpi\n        /* \"#utility.yul\":24185:24203   */\n      tag_726\n      tag_485\n      jump\t// in\n    tag_726:\n        /* \"#utility.yul\":24168:24205   */\n    tag_725:\n        /* \"#utility.yul\":24018:24212   */\n      swap3\n      swap2\n      pop\n      pop\n      jump\t// out\n\n    auxdata: 0xa264697066735822122018b194925e0653bbcf84f92967916572aed472e18ad1dd975f4ebd510c9c636864736f6c634300081a0033\n}\n",
				"bytecode": {
					"linkReferences": {},
					"object": "60a060405234801561000f575f80fd5b50604051612b20380380612b208339818101604052810190610031919061029a565b805f73ffffffffffffffffffffffffffffffffffffffff168173ffffffffffffffffffffffffffffffffffffffff16036100a2575f6040517f1e4fbdf700000000000000000000000000000000000000000000000000000000815260040161009991906102e7565b60405180910390fd5b6100b18161017b60201b60201c565b50600180819055505f60025f6101000a81548160ff0219169083151502179055505f73ffffffffffffffffffffffffffffffffffffffff168273ffffffffffffffffffffffffffffffffffffffff1603610140576040517f08c379a00000000000000000000000000000000000000000000000000000000081526004016101379061035a565b60405180910390fd5b8173ffffffffffffffffffffffffffffffffffffffff1660808173ffffffffffffffffffffffffffffffffffffffff16815250505050610378565b5f805f9054906101000a900473ffffffffffffffffffffffffffffffffffffffff169050815f806101000a81548173ffffffffffffffffffffffffffffffffffffffff021916908373ffffffffffffffffffffffffffffffffffffffff1602179055508173ffffffffffffffffffffffffffffffffffffffff168173ffffffffffffffffffffffffffffffffffffffff167f8be0079c531659141344cd1fd0a4f28419497f9722a3daafe3b4186f6b6457e060405160405180910390a35050565b5f80fd5b5f73ffffffffffffffffffffffffffffffffffffffff82169050919050565b5f61026982610240565b9050919050565b6102798161025f565b8114610283575f80fd5b50565b5f8151905061029481610270565b92915050565b5f80604083850312156102b0576102af61023c565b5b5f6102bd85828601610286565b92505060206102ce85828601610286565b9150509250929050565b6102e18161025f565b82525050565b5f6020820190506102fa5f8301846102d8565b92915050565b5f82825260208201905092915050565b7f496e76616c696420426974546f7272656e7420616464726573730000000000005f82015250565b5f610344601a83610300565b915061034f82610310565b602082019050919050565b5f6020820190508181035f83015261037181610338565b9050919050565b6080516127896103975f395f81816105d90152610aea01526127895ff3fe608060405234801561000f575f80fd5b506004361061012a575f3560e01c80637ecf686d116100ab578063b08eff561161006f578063b08eff5614610336578063cb57dc3e14610366578063d796ad6d14610396578063f2fde38b146103c6578063fc8221a9146103e25761012a565b80637ecf686d1461028c5780638456cb59146102bc5780638da5cb5b146102c6578063914acecd146102e457806398c9adff146103005761012a565b80634f1c6447116100f25780634f1c6447146101e65780635c975abb146102045780635d41f36e1461022257806363a787e214610252578063715018a6146102825761012a565b806302e291b11461012e5780631b81f8291461015e5780631ba82d421461018e578063280ee92a146101be5780633f4ba83a146101dc575b5f80fd5b61014860048036038101906101439190611c24565b610412565b6040516101559190611c5e565b60405180910390f35b61017860048036038101906101739190611cbd565b610427565b6040516101859190611d17565b60405180910390f35b6101a860048036038101906101a39190611dbd565b610595565b6040516101b59190611d17565b60405180910390f35b6101c66105bf565b6040516101d39190611c5e565b60405180910390f35b6101e46105c5565b005b6101ee6105d7565b6040516101fb9190611e56565b60405180910390f35b61020c6105fb565b6040516102199190611d17565b60405180910390f35b61023c60048036038101906102379190611c24565b610610565b6040516102499190611c5e565b60405180910390f35b61026c60048036038101906102679190611c24565b610625565b6040516102799190611c5e565b60405180910390f35b61028a61063a565b005b6102a660048036038101906102a19190611e6f565b61064d565b6040516102b39190611d17565b60405180910390f35b6102c461066a565b005b6102ce61067c565b6040516102db9190611ea9565b60405180910390f35b6102fe60048036038101906102f99190611f61565b6106a3565b005b61031a60048036038101906103159190611e6f565b61095f565b60405161032d9796959493929190612009565b60405180910390f35b610350600480360381019061034b9190612076565b6109c9565b60405161035d9190611d17565b60405180910390f35b610380600480360381019061037b91906120b4565b6109f3565b60405161038d9190611c5e565b60405180910390f35b6103b060048036038101906103ab91906120f2565b610a13565b6040516103bd9190611d17565b60405180910390f35b6103e060048036038101906103db9190612157565b610d87565b005b6103fc60048036038101906103f791906120b4565b610e0b565b6040516104099190611c5e565b60405180910390f35b6003602052805f5260405f205f915090505481565b5f61058d6040518060400160405280855f6008811061044957610448612182565b5b602002013581526020018560016008811061046757610466612182565b5b6020020135815250604051806040016040528060405180604001604052808860026008811061049957610498612182565b5b60200201358152602001886003600881106104b7576104b6612182565b5b602002013581525081526020016040518060400160405280886004600881106104e3576104e2612182565b5b602002013581526020018860056008811061050157610500612182565b5b602002013581525081525060405180604001604052808760066008811061052b5761052a612182565b5b602002013581526020018760076008811061054957610548612182565b5b60200201358152508560018060200260405190810160405280929190826001602002808284375f81840152601f19601f820116905080830192505050505050610e2b565b905092915050565b600b602052815f5260405f20602052805f5260405f205f915091509054906101000a900460ff1681565b60085481565b6105cd61110d565b6105d5611194565b565b7f000000000000000000000000000000000000000000000000000000000000000081565b5f60025f9054906101000a900460ff16905090565b6006602052805f5260405f205f915090505481565b6005602052805f5260405f205f915090505481565b61064261110d565b61064b5f6111f5565b565b600a602052805f5260405f205f915054906101000a900460ff1681565b61067261110d565b61067a6112b6565b565b5f805f9054906101000a900473ffffffffffffffffffffffffffffffffffffffff16905090565b6106ab61110d565b5f82829050116106f0576040517f08c379a00000000000000000000000000000000000000000000000000000000081526004016106e790612209565b60405180910390fd5b855f6002811061070357610702612182565b5b602002013560035f8081526020019081526020015f20819055508560016002811061073157610730612182565b5b602002013560035f600181526020019081526020015f20819055505f5b60028110156107cf575f5b60028110156107c15786826002811061077557610774612182565b5b60400201816002811061078b5761078a612182565b5b602002013560045f8481526020019081526020015f205f8381526020019081526020015f20819055508080600101915050610759565b50808060010191505061074e565b50835f600281106107e3576107e2612182565b5b602002013560055f8081526020019081526020015f20819055508360016002811061081157610810612182565b5b602002013560055f600181526020019081526020015f2081905550825f6002811061083f5761083e612182565b5b602002013560065f8081526020019081526020015f20819055508260016002811061086d5761086c612182565b5b602002013560065f600181526020019081526020015f2081905550818190506008819055505f5b82829050811015610956578282828181106108b2576108b1612182565b5b9050604002015f600281106108ca576108c9612182565b5b602002013560075f8381526020019081526020015f205f8081526020019081526020015f208190555082828281811061090657610905612182565b5b90506040020160016002811061091f5761091e612182565b5b602002013560075f8381526020019081526020015f205f600181526020019081526020015f20819055508080600101915050610894565b50505050505050565b6009602052805f5260405f205f91509050805f015490806001015490806002015490806003015f9054906101000a900473ffffffffffffffffffffffffffffffffffffffff16908060030160149054906101000a900460ff16908060040154908060050154905087565b600c602052815f5260405f20602052805f5260405f205f915091509054906101000a900460ff1681565b6004602052815f5260405f20602052805f5260405f205f91509150505481565b5f610a1c611318565b610a2461135e565b5f801b8503610a68576040517f08c379a0000000000000000000000000000000000000000000000000000000008152600401610a5f90612271565b60405180910390fd5b5f801b60095f8781526020019081526020015f205f015414610abf576040517f08c379a0000000000000000000000000000000000000000000000000000000008152600401610ab6906122d9565b60405180910390fd5b5f60405180602001604052803373ffffffffffffffffffffffffffffffffffffffff1681525090505f7f000000000000000000000000000000000000000000000000000000000000000073ffffffffffffffffffffffffffffffffffffffff16634f25669388886040518363ffffffff1660e01b8152600401610b439291906122f7565b6020604051808303815f875af1158015610b5f573d5f803e3d5ffd5b505050506040513d601f19601f82011682018060405250810190610b839190612348565b905080610bc5576040517f08c379a0000000000000000000000000000000000000000000000000000000008152600401610bbc906123bd565b60405180910390fd5b3073ffffffffffffffffffffffffffffffffffffffff16631b81f82985846040518363ffffffff1660e01b8152600401610c0092919061249a565b602060405180830381865afa158015610c1b573d5f803e3d5ffd5b505050506040513d601f19601f82011682018060405250810190610c3f9190612348565b610c7e576040517f08c379a0000000000000000000000000000000000000000000000000000000008152600401610c759061250d565b60405180910390fd5b5f60095f8981526020019081526020015f20905087815f018190555086816001018190555085816002018190555033816003015f6101000a81548173ffffffffffffffffffffffffffffffffffffffff021916908373ffffffffffffffffffffffffffffffffffffffff1602179055505f8160030160146101000a81548160ff0219169083151502179055505f801b81600401819055504281600501819055503373ffffffffffffffffffffffffffffffffffffffff1687897f7ee1e7c298f2a2cae66c75263967d60fc11cfd9b694058af3fa496d83548fd248942604051610d6892919061252b565b60405180910390a460019350505050610d7f61139f565b949350505050565b610d8f61110d565b5f73ffffffffffffffffffffffffffffffffffffffff168173ffffffffffffffffffffffffffffffffffffffff1603610dff575f6040517f1e4fbdf7000000000000000000000000000000000000000000000000000000008152600401610df69190611ea9565b60405180910390fd5b610e08816111f5565b50565b6007602052815f5260405f20602052805f5260405f205f91509150505481565b5f600854600180610e3c919061257f565b14610e7c576040517f08c379a0000000000000000000000000000000000000000000000000000000008152600401610e73906125fc565b60405180910390fd5b5f604051806040016040528060075f8081526020019081526020015f205f8081526020019081526020015f2054815260200160075f8081526020019081526020015f205f600181526020019081526020015f205481525090505f5b6001811015610ff7575f80610f70604051806040016040528060075f600188610f00919061257f565b81526020019081526020015f205f8081526020019081526020015f2054815260200160075f600188610f32919061257f565b81526020019081526020015f205f600181526020019081526020015f2054815250878560018110610f6657610f65612182565b5b60200201516113a8565b91509150610faf845f60028110610f8a57610f89612182565b5b602002015185600160028110610fa357610fa2612182565b5b602002015184846113fc565b855f60028110610fc257610fc1612182565b5b6020020186600160028110610fda57610fd9612182565b5b602002018281525082815250505050508080600101915050610ed7565b506111028686604051806040016040528060035f8081526020019081526020015f2054815260200160035f600181526020019081526020015f2054815250604051806040016040528060045f8081526020019081526020015f205f8081526020019081526020015f2054815260200160045f8081526020019081526020015f205f600181526020019081526020015f205481525085604051806040016040528060055f8081526020019081526020015f2054815260200160055f600181526020019081526020015f20548152508a604051806040016040528060065f8081526020019081526020015f2054815260200160065f600181526020019081526020015f2054815250611423565b915050949350505050565b611115611af3565b73ffffffffffffffffffffffffffffffffffffffff1661113361067c565b73ffffffffffffffffffffffffffffffffffffffff161461119257611156611af3565b6040517f118cdaa70000000000000000000000000000000000000000000000000000000081526004016111899190611ea9565b60405180910390fd5b565b61119c611afa565b5f60025f6101000a81548160ff0219169083151502179055507f5db9ee0a495bf2e6ff9c91a7834c1ba4fdd244a5e8aa4e537bd38aeae4b073aa6111de611af3565b6040516111eb9190611ea9565b60405180910390a1565b5f805f9054906101000a900473ffffffffffffffffffffffffffffffffffffffff169050815f806101000a81548173ffffffffffffffffffffffffffffffffffffffff021916908373ffffffffffffffffffffffffffffffffffffffff1602179055508173ffffffffffffffffffffffffffffffffffffffff168173ffffffffffffffffffffffffffffffffffffffff167f8be0079c531659141344cd1fd0a4f28419497f9722a3daafe3b4186f6b6457e060405160405180910390a35050565b6112be61135e565b600160025f6101000a81548160ff0219169083151502179055507f62e78cea01bee320cd4e420270b5ea74000d11b0c9f74754ebdbfc544b05a258611301611af3565b60405161130e9190611ea9565b60405180910390a1565b600260015403611354576040517f3ee5aeb500000000000000000000000000000000000000000000000000000000815260040160405180910390fd5b6002600181905550565b6113666105fb565b1561139d576040517fd93c066500000000000000000000000000000000000000000000000000000000815260040160405180910390fd5b565b60018081905550565b5f8082845f600281106113be576113bd612182565b5b60200201516113cd919061261a565b83856001600281106113e2576113e1612182565b5b60200201516113f1919061261a565b915091509250929050565b5f80838661140a919061257f565b8386611416919061257f565b9150915094509492505050565b5f61142c611ba4565b6114658a5f6002811061144257611441612182565b5b60200201518b60016002811061145b5761145a612182565b5b6020020151611b3a565b8b5f6002811061147857611477612182565b5b602002018c6001600281106114905761148f612182565b5b60200201828152508281525050506114d7845f600281106114b4576114b3612182565b5b6020020151856001600281106114cd576114cc612182565b5b6020020151611b3a565b855f600281106114ea576114e9612182565b5b602002018660016002811061150257611501612182565b5b6020020182815250828152505050895f6002811061152357611522612182565b5b6020020151815f6018811061153b5761153a612182565b5b6020020181815250508960016002811061155857611557612182565b5b60200201518160016018811061157157611570612182565b5b602002018181525050885f6002811061158d5761158c612182565b5b60200201515f600281106115a4576115a3612182565b5b6020020151816002601881106115bd576115bc612182565b5b602002018181525050885f600281106115d9576115d8612182565b5b60200201516001600281106115f1576115f0612182565b5b60200201518160036018811061160a57611609612182565b5b6020020181815250508860016002811061162757611626612182565b5b60200201515f6002811061163e5761163d612182565b5b60200201518160046018811061165757611656612182565b5b6020020181815250508860016002811061167457611673612182565b5b602002015160016002811061168c5761168b612182565b5b6020020151816005601881106116a5576116a4612182565b5b602002018181525050875f600281106116c1576116c0612182565b5b6020020151816006601881106116da576116d9612182565b5b602002018181525050876001600281106116f7576116f6612182565b5b6020020151816007601881106117105761170f612182565b5b602002018181525050865f6002811061172c5761172b612182565b5b60200201518160086018811061174557611744612182565b5b6020020181815250508660016002811061176257611761612182565b5b60200201518160096018811061177b5761177a612182565b5b602002018181525050865f6002811061179757611796612182565b5b602002015181600a601881106117b0576117af612182565b5b602002018181525050866001600281106117cd576117cc612182565b5b602002015181600b601881106117e6576117e5612182565b5b602002018181525050855f6002811061180257611801612182565b5b602002015181600c6018811061181b5761181a612182565b5b6020020181815250508560016002811061183857611837612182565b5b602002015181600d6018811061185157611850612182565b5b602002018181525050845f6002811061186d5761186c612182565b5b602002015181600e6018811061188657611885612182565b5b602002018181525050846001600281106118a3576118a2612182565b5b602002015181600f601881106118bc576118bb612182565b5b602002018181525050845f600281106118d8576118d7612182565b5b6020020151816010601881106118f1576118f0612182565b5b6020020181815250508460016002811061190e5761190d612182565b5b60200201518160116018811061192757611926612182565b5b602002018181525050835f6002811061194357611942612182565b5b60200201518160126018811061195c5761195b612182565b5b6020020181815250508360016002811061197957611978612182565b5b60200201518160136018811061199257611991612182565b5b602002018181525050825f600281106119ae576119ad612182565b5b6020020151816014601881106119c7576119c6612182565b5b602002018181525050826001600281106119e4576119e3612182565b5b6020020151816015601881106119fd576119fc612182565b5b602002018181525050825f60028110611a1957611a18612182565b5b602002015181601660188110611a3257611a31612182565b5b60200201818152505082600160028110611a4f57611a4e612182565b5b602002015181601760188110611a6857611a67612182565b5b602002018181525050611a79611bc7565b5f6020826101808560085afa905080611ac7576040517f08c379a0000000000000000000000000000000000000000000000000000000008152600401611abe906126a5565b60405180910390fd5b6001825f60018110611adc57611adb612182565b5b602002015114935050505098975050505050505050565b5f33905090565b611b026105fb565b611b38576040517f8dfc202b00000000000000000000000000000000000000000000000000000000815260040160405180910390fd5b565b5f805f7f30644e72e131a029b85045b68181585d97816a916871ca8d3c208c16d87cfd4790505f85148015611b6e57505f84145b15611b7f575f809250925050611b9d565b848185611b8c91906126f0565b82611b979190612720565b92509250505b9250929050565b604051806103000160405280601890602082028036833780820191505090505090565b6040518060200160405280600190602082028036833780820191505090505090565b5f80fd5b5f80fd5b5f819050919050565b611c0381611bf1565b8114611c0d575f80fd5b50565b5f81359050611c1e81611bfa565b92915050565b5f60208284031215611c3957611c38611be9565b5b5f611c4684828501611c10565b91505092915050565b611c5881611bf1565b82525050565b5f602082019050611c715f830184611c4f565b92915050565b5f80fd5b5f81905082602060080282011115611c9657611c95611c77565b5b92915050565b5f81905082602060010282011115611cb757611cb6611c77565b5b92915050565b5f806101208385031215611cd457611cd3611be9565b5b5f611ce185828601611c7b565b925050610100611cf385828601611c9c565b9150509250929050565b5f8115159050919050565b611d1181611cfd565b82525050565b5f602082019050611d2a5f830184611d08565b92915050565b5f73ffffffffffffffffffffffffffffffffffffffff82169050919050565b5f611d5982611d30565b9050919050565b611d6981611d4f565b8114611d73575f80fd5b50565b5f81359050611d8481611d60565b92915050565b5f819050919050565b611d9c81611d8a565b8114611da6575f80fd5b50565b5f81359050611db781611d93565b92915050565b5f8060408385031215611dd357611dd2611be9565b5b5f611de085828601611d76565b9250506020611df185828601611da9565b9150509250929050565b5f819050919050565b5f611e1e611e19611e1484611d30565b611dfb565b611d30565b9050919050565b5f611e2f82611e04565b9050919050565b5f611e4082611e25565b9050919050565b611e5081611e36565b82525050565b5f602082019050611e695f830184611e47565b92915050565b5f60208284031215611e8457611e83611be9565b5b5f611e9184828501611da9565b91505092915050565b611ea381611d4f565b82525050565b5f602082019050611ebc5f830184611e9a565b92915050565b5f81905082602060020282011115611edd57611edc611c77565b5b92915050565b5f81905082604060020282011115611efe57611efd611c77565b5b92915050565b5f80fd5b5f80fd5b5f8083601f840112611f2157611f20611f04565b5b8235905067ffffffffffffffff811115611f3e57611f3d611f08565b5b602083019150836040820283011115611f5a57611f59611c77565b5b9250929050565b5f805f805f806101608789031215611f7c57611f7b611be9565b5b5f611f8989828a01611ec2565b9650506040611f9a89828a01611ee3565b95505060c0611fab89828a01611ec2565b945050610100611fbd89828a01611ec2565b93505061014087013567ffffffffffffffff811115611fdf57611fde611bed565b5b611feb89828a01611f0c565b92509250509295509295509295565b61200381611d8a565b82525050565b5f60e08201905061201c5f83018a611ffa565b6120296020830189611ffa565b6120366040830188611c4f565b6120436060830187611e9a565b6120506080830186611d08565b61205d60a0830185611ffa565b61206a60c0830184611c4f565b98975050505050505050565b5f806040838503121561208c5761208b611be9565b5b5f61209985828601611da9565b92505060206120aa85828601611da9565b9150509250929050565b5f80604083850312156120ca576120c9611be9565b5b5f6120d785828601611c10565b92505060206120e885828601611c10565b9150509250929050565b5f805f80610160858703121561210b5761210a611be9565b5b5f61211887828801611da9565b945050602061212987828801611da9565b935050604061213a87828801611c10565b925050606061214b87828801611c7b565b91505092959194509250565b5f6020828403121561216c5761216b611be9565b5b5f61217984828501611d76565b91505092915050565b7f4e487b71000000000000000000000000000000000000000000000000000000005f52603260045260245ffd5b5f82825260208201905092915050565b7f496e76616c6964204943206c656e6774680000000000000000000000000000005f82015250565b5f6121f36011836121af565b91506121fe826121bf565b602082019050919050565b5f6020820190508181035f830152612220816121e7565b9050919050565b7f496e76616c696420636f6d6d69746d656e7400000000000000000000000000005f82015250565b5f61225b6012836121af565b915061226682612227565b602082019050919050565b5f6020820190508181035f8301526122888161224f565b9050919050565b7f46696c6520616c726561647920657869737473000000000000000000000000005f82015250565b5f6122c36013836121af565b91506122ce8261228f565b602082019050919050565b5f6020820190508181035f8301526122f0816122b7565b9050919050565b5f60408201905061230a5f830185611ffa565b6123176020830184611ffa565b9392505050565b61232781611cfd565b8114612331575f80fd5b50565b5f815190506123428161231e565b92915050565b5f6020828403121561235d5761235c611be9565b5b5f61236a84828501612334565b91505092915050565b7f426974546f7272656e7420726567697374726174696f6e206661696c656400005f82015250565b5f6123a7601e836121af565b91506123b282612373565b602082019050919050565b5f6020820190508181035f8301526123d48161239b565b9050919050565b82818337505050565b6123f161010083836123db565b5050565b5f60019050919050565b5f81905092915050565b5f819050919050565b61241b81611bf1565b82525050565b5f61242c8383612412565b60208301905092915050565b5f602082019050919050565b61244d816123f5565b61245781846123ff565b925061246282612409565b805f5b838110156124925781516124798782612421565b965061248483612438565b925050600181019050612465565b505050505050565b5f610120820190506124ae5f8301856123e4565b6124bc610100830184612444565b9392505050565b7f496e76616c69642066696c652070726f6f6600000000000000000000000000005f82015250565b5f6124f76012836121af565b9150612502826124c3565b602082019050919050565b5f6020820190508181035f830152612524816124eb565b9050919050565b5f60408201905061253e5f830185611c4f565b61254b6020830184611c4f565b9392505050565b7f4e487b71000000000000000000000000000000000000000000000000000000005f52601160045260245ffd5b5f61258982611bf1565b915061259483611bf1565b92508282019050808211156125ac576125ab612552565b5b92915050565b7f496e76616c696420696e707574206c656e6774680000000000000000000000005f82015250565b5f6125e66014836121af565b91506125f1826125b2565b602082019050919050565b5f6020820190508181035f830152612613816125da565b9050919050565b5f61262482611bf1565b915061262f83611bf1565b925082820261263d81611bf1565b9150828204841483151761265457612653612552565b5b5092915050565b7f50616972696e6720636865636b206661696c65640000000000000000000000005f82015250565b5f61268f6014836121af565b915061269a8261265b565b602082019050919050565b5f6020820190508181035f8301526126bc81612683565b9050919050565b7f4e487b71000000000000000000000000000000000000000000000000000000005f52601260045260245ffd5b5f6126fa82611bf1565b915061270583611bf1565b925082612715576127146126c3565b5b828206905092915050565b5f61272a82611bf1565b915061273583611bf1565b925082820390508181111561274d5761274c612552565b5b9291505056fea264697066735822122018b194925e0653bbcf84f92967916572aed472e18ad1dd975f4ebd510c9c636864736f6c634300081a0033",
					"opcodes": "PUSH1 0xA0 PUSH1 0x40 MSTORE CALLVALUE DUP1 ISZERO PUSH2 0xF JUMPI PUSH0 DUP1 REVERT JUMPDEST POP PUSH1 0x40 MLOAD PUSH2 0x2B20 CODESIZE SUB DUP1 PUSH2 0x2B20 DUP4 CODECOPY DUP2 DUP2 ADD PUSH1 0x40 MSTORE DUP2 ADD SWAP1 PUSH2 0x31 SWAP2 SWAP1 PUSH2 0x29A JUMP JUMPDEST DUP1 PUSH0 PUSH20 0xFFFFFFFFFFFFFFFFFFFFFFFFFFFFFFFFFFFFFFFF AND DUP2 PUSH20 0xFFFFFFFFFFFFFFFFFFFFFFFFFFFFFFFFFFFFFFFF AND SUB PUSH2 0xA2 JUMPI PUSH0 PUSH1 0x40 MLOAD PUSH32 0x1E4FBDF700000000000000000000000000000000000000000000000000000000 DUP2 MSTORE PUSH1 0x4 ADD PUSH2 0x99 SWAP2 SWAP1 PUSH2 0x2E7 JUMP JUMPDEST PUSH1 0x40 MLOAD DUP1 SWAP2 SUB SWAP1 REVERT JUMPDEST PUSH2 0xB1 DUP2 PUSH2 0x17B PUSH1 0x20 SHL PUSH1 0x20 SHR JUMP JUMPDEST POP PUSH1 0x1 DUP1 DUP2 SWAP1 SSTORE POP PUSH0 PUSH1 0x2 PUSH0 PUSH2 0x100 EXP DUP2 SLOAD DUP2 PUSH1 0xFF MUL NOT AND SWAP1 DUP4 ISZERO ISZERO MUL OR SWAP1 SSTORE POP PUSH0 PUSH20 0xFFFFFFFFFFFFFFFFFFFFFFFFFFFFFFFFFFFFFFFF AND DUP3 PUSH20 0xFFFFFFFFFFFFFFFFFFFFFFFFFFFFFFFFFFFFFFFF AND SUB PUSH2 0x140 JUMPI PUSH1 0x40 MLOAD PUSH32 0x8C379A000000000000000000000000000000000000000000000000000000000 DUP2 MSTORE PUSH1 0x4 ADD PUSH2 0x137 SWAP1 PUSH2 0x35A JUMP JUMPDEST PUSH1 0x40 MLOAD DUP1 SWAP2 SUB SWAP1 REVERT JUMPDEST DUP2 PUSH20 0xFFFFFFFFFFFFFFFFFFFFFFFFFFFFFFFFFFFFFFFF AND PUSH1 0x80 DUP2 PUSH20 0xFFFFFFFFFFFFFFFFFFFFFFFFFFFFFFFFFFFFFFFF AND DUP2 MSTORE POP POP POP POP PUSH2 0x378 JUMP JUMPDEST PUSH0 DUP1 PUSH0 SWAP1 SLOAD SWAP1 PUSH2 0x100 EXP SWAP1 DIV PUSH20 0xFFFFFFFFFFFFFFFFFFFFFFFFFFFFFFFFFFFFFFFF AND SWAP1 POP DUP2 PUSH0 DUP1 PUSH2 0x100 EXP DUP2 SLOAD DUP2 PUSH20 0xFFFFFFFFFFFFFFFFFFFFFFFFFFFFFFFFFFFFFFFF MUL NOT AND SWAP1 DUP4 PUSH20 0xFFFFFFFFFFFFFFFFFFFFFFFFFFFFFFFFFFFFFFFF AND MUL OR SWAP1 SSTORE POP DUP2 PUSH20 0xFFFFFFFFFFFFFFFFFFFFFFFFFFFFFFFFFFFFFFFF AND DUP2 PUSH20 0xFFFFFFFFFFFFFFFFFFFFFFFFFFFFFFFFFFFFFFFF AND PUSH32 0x8BE0079C531659141344CD1FD0A4F28419497F9722A3DAAFE3B4186F6B6457E0 PUSH1 0x40 MLOAD PUSH1 0x40 MLOAD DUP1 SWAP2 SUB SWAP1 LOG3 POP POP JUMP JUMPDEST PUSH0 DUP1 REVERT JUMPDEST PUSH0 PUSH20 0xFFFFFFFFFFFFFFFFFFFFFFFFFFFFFFFFFFFFFFFF DUP3 AND SWAP1 POP SWAP2 SWAP1 POP JUMP JUMPDEST PUSH0 PUSH2 0x269 DUP3 PUSH2 0x240 JUMP JUMPDEST SWAP1 POP SWAP2 SWAP1 POP JUMP JUMPDEST PUSH2 0x279 DUP2 PUSH2 0x25F JUMP JUMPDEST DUP2 EQ PUSH2 0x283 JUMPI PUSH0 DUP1 REVERT JUMPDEST POP JUMP JUMPDEST PUSH0 DUP2 MLOAD SWAP1 POP PUSH2 0x294 DUP2 PUSH2 0x270 JUMP JUMPDEST SWAP3 SWAP2 POP POP JUMP JUMPDEST PUSH0 DUP1 PUSH1 0x40 DUP4 DUP6 SUB SLT ISZERO PUSH2 0x2B0 JUMPI PUSH2 0x2AF PUSH2 0x23C JUMP JUMPDEST JUMPDEST PUSH0 PUSH2 0x2BD DUP6 DUP3 DUP7 ADD PUSH2 0x286 JUMP JUMPDEST SWAP3 POP POP PUSH1 0x20 PUSH2 0x2CE DUP6 DUP3 DUP7 ADD PUSH2 0x286 JUMP JUMPDEST SWAP2 POP POP SWAP3 POP SWAP3 SWAP1 POP JUMP JUMPDEST PUSH2 0x2E1 DUP2 PUSH2 0x25F JUMP JUMPDEST DUP3 MSTORE POP POP JUMP JUMPDEST PUSH0 PUSH1 0x20 DUP3 ADD SWAP1 POP PUSH2 0x2FA PUSH0 DUP4 ADD DUP5 PUSH2 0x2D8 JUMP JUMPDEST SWAP3 SWAP2 POP POP JUMP JUMPDEST PUSH0 DUP3 DUP3 MSTORE PUSH1 0x20 DUP3 ADD SWAP1 POP SWAP3 SWAP2 POP POP JUMP JUMPDEST PUSH32 0x496E76616C696420426974546F7272656E742061646472657373000000000000 PUSH0 DUP3 ADD MSTORE POP JUMP JUMPDEST PUSH0 PUSH2 0x344 PUSH1 0x1A DUP4 PUSH2 0x300 JUMP JUMPDEST SWAP2 POP PUSH2 0x34F DUP3 PUSH2 0x310 JUMP JUMPDEST PUSH1 0x20 DUP3 ADD SWAP1 POP SWAP2 SWAP1 POP JUMP JUMPDEST PUSH0 PUSH1 0x20 DUP3 ADD SWAP1 POP DUP2 DUP2 SUB PUSH0 DUP4 ADD MSTORE PUSH2 0x371 DUP2 PUSH2 0x338 JUMP JUMPDEST SWAP1 POP SWAP2 SWAP1 POP JUMP JUMPDEST PUSH1 0x80 MLOAD PUSH2 0x2789 PUSH2 0x397 PUSH0 CODECOPY PUSH0 DUP2 DUP2 PUSH2 0x5D9 ADD MSTORE PUSH2 0xAEA ADD MSTORE PUSH2 0x2789 PUSH0 RETURN INVALID PUSH1 0x80 PUSH1 0x40 MSTORE CALLVALUE DUP1 ISZERO PUSH2 0xF JUMPI PUSH0 DUP1 REVERT JUMPDEST POP PUSH1 0x4 CALLDATASIZE LT PUSH2 0x12A JUMPI PUSH0 CALLDATALOAD PUSH1 0xE0 SHR DUP1 PUSH4 0x7ECF686D GT PUSH2 0xAB JUMPI DUP1 PUSH4 0xB08EFF56 GT PUSH2 0x6F JUMPI DUP1 PUSH4 0xB08EFF56 EQ PUSH2 0x336 JUMPI DUP1 PUSH4 0xCB57DC3E EQ PUSH2 0x366 JUMPI DUP1 PUSH4 0xD796AD6D EQ PUSH2 0x396 JUMPI DUP1 PUSH4 0xF2FDE38B EQ PUSH2 0x3C6 JUMPI DUP1 PUSH4 0xFC8221A9 EQ PUSH2 0x3E2 JUMPI PUSH2 0x12A JUMP JUMPDEST DUP1 PUSH4 0x7ECF686D EQ PUSH2 0x28C JUMPI DUP1 PUSH4 0x8456CB59 EQ PUSH2 0x2BC JUMPI DUP1 PUSH4 0x8DA5CB5B EQ PUSH2 0x2C6 JUMPI DUP1 PUSH4 0x914ACECD EQ PUSH2 0x2E4 JUMPI DUP1 PUSH4 0x98C9ADFF EQ PUSH2 0x300 JUMPI PUSH2 0x12A JUMP JUMPDEST DUP1 PUSH4 0x4F1C6447 GT PUSH2 0xF2 JUMPI DUP1 PUSH4 0x4F1C6447 EQ PUSH2 0x1E6 JUMPI DUP1 PUSH4 0x5C975ABB EQ PUSH2 0x204 JUMPI DUP1 PUSH4 0x5D41F36E EQ PUSH2 0x222 JUMPI DUP1 PUSH4 0x63A787E2 EQ PUSH2 0x252 JUMPI DUP1 PUSH4 0x715018A6 EQ PUSH2 0x282 JUMPI PUSH2 0x12A JUMP JUMPDEST DUP1 PUSH4 0x2E291B1 EQ PUSH2 0x12E JUMPI DUP1 PUSH4 0x1B81F829 EQ PUSH2 0x15E JUMPI DUP1 PUSH4 0x1BA82D42 EQ PUSH2 0x18E JUMPI DUP1 PUSH4 0x280EE92A EQ PUSH2 0x1BE JUMPI DUP1 PUSH4 0x3F4BA83A EQ PUSH2 0x1DC JUMPI JUMPDEST PUSH0 DUP1 REVERT JUMPDEST PUSH2 0x148 PUSH1 0x4 DUP1 CALLDATASIZE SUB DUP2 ADD SWAP1 PUSH2 0x143 SWAP2 SWAP1 PUSH2 0x1C24 JUMP JUMPDEST PUSH2 0x412 JUMP JUMPDEST PUSH1 0x40 MLOAD PUSH2 0x155 SWAP2 SWAP1 PUSH2 0x1C5E JUMP JUMPDEST PUSH1 0x40 MLOAD DUP1 SWAP2 SUB SWAP1 RETURN JUMPDEST PUSH2 0x178 PUSH1 0x4 DUP1 CALLDATASIZE SUB DUP2 ADD SWAP1 PUSH2 0x173 SWAP2 SWAP1 PUSH2 0x1CBD JUMP JUMPDEST PUSH2 0x427 JUMP JUMPDEST PUSH1 0x40 MLOAD PUSH2 0x185 SWAP2 SWAP1 PUSH2 0x1D17 JUMP JUMPDEST PUSH1 0x40 MLOAD DUP1 SWAP2 SUB SWAP1 RETURN JUMPDEST PUSH2 0x1A8 PUSH1 0x4 DUP1 CALLDATASIZE SUB DUP2 ADD SWAP1 PUSH2 0x1A3 SWAP2 SWAP1 PUSH2 0x1DBD JUMP JUMPDEST PUSH2 0x595 JUMP JUMPDEST PUSH1 0x40 MLOAD PUSH2 0x1B5 SWAP2 SWAP1 PUSH2 0x1D17 JUMP JUMPDEST PUSH1 0x40 MLOAD DUP1 SWAP2 SUB SWAP1 RETURN JUMPDEST PUSH2 0x1C6 PUSH2 0x5BF JUMP JUMPDEST PUSH1 0x40 MLOAD PUSH2 0x1D3 SWAP2 SWAP1 PUSH2 0x1C5E JUMP JUMPDEST PUSH1 0x40 MLOAD DUP1 SWAP2 SUB SWAP1 RETURN JUMPDEST PUSH2 0x1E4 PUSH2 0x5C5 JUMP JUMPDEST STOP JUMPDEST PUSH2 0x1EE PUSH2 0x5D7 JUMP JUMPDEST PUSH1 0x40 MLOAD PUSH2 0x1FB SWAP2 SWAP1 PUSH2 0x1E56 JUMP JUMPDEST PUSH1 0x40 MLOAD DUP1 SWAP2 SUB SWAP1 RETURN JUMPDEST PUSH2 0x20C PUSH2 0x5FB JUMP JUMPDEST PUSH1 0x40 MLOAD PUSH2 0x219 SWAP2 SWAP1 PUSH2 0x1D17 JUMP JUMPDEST PUSH1 0x40 MLOAD DUP1 SWAP2 SUB SWAP1 RETURN JUMPDEST PUSH2 0x23C PUSH1 0x4 DUP1 CALLDATASIZE SUB DUP2 ADD SWAP1 PUSH2 0x237 SWAP2 SWAP1 PUSH2 0x1C24 JUMP JUMPDEST PUSH2 0x610 JUMP JUMPDEST PUSH1 0x40 MLOAD PUSH2 0x249 SWAP2 SWAP1 PUSH2 0x1C5E JUMP JUMPDEST PUSH1 0x40 MLOAD DUP1 SWAP2 SUB SWAP1 RETURN JUMPDEST PUSH2 0x26C PUSH1 0x4 DUP1 CALLDATASIZE SUB DUP2 ADD SWAP1 PUSH2 0x267 SWAP2 SWAP1 PUSH2 0x1C24 JUMP JUMPDEST PUSH2 0x625 JUMP JUMPDEST PUSH1 0x40 MLOAD PUSH2 0x279 SWAP2 SWAP1 PUSH2 0x1C5E JUMP JUMPDEST PUSH1 0x40 MLOAD DUP1 SWAP2 SUB SWAP1 RETURN JUMPDEST PUSH2 0x28A PUSH2 0x63A JUMP JUMPDEST STOP JUMPDEST PUSH2 0x2A6 PUSH1 0x4 DUP1 CALLDATASIZE SUB DUP2 ADD SWAP1 PUSH2 0x2A1 SWAP2 SWAP1 PUSH2 0x1E6F JUMP JUMPDEST PUSH2 0x64D JUMP JUMPDEST PUSH1 0x40 MLOAD PUSH2 0x2B3 SWAP2 SWAP1 PUSH2 0x1D17 JUMP JUMPDEST PUSH1 0x40 MLOAD DUP1 SWAP2 SUB SWAP1 RETURN JUMPDEST PUSH2 0x2C4 PUSH2 0x66A JUMP JUMPDEST STOP JUMPDEST PUSH2 0x2CE PUSH2 0x67C JUMP JUMPDEST PUSH1 0x40 MLOAD PUSH2 0x2DB SWAP2 SWAP1 PUSH2 0x1EA9 JUMP JUMPDEST PUSH1 0x40 MLOAD DUP1 SWAP2 SUB SWAP1 RETURN JUMPDEST PUSH2 0x2FE PUSH1 0x4 DUP1 CALLDATASIZE SUB DUP2 ADD SWAP1 PUSH2 0x2F9 SWAP2 SWAP1 PUSH2 0x1F61 JUMP JUMPDEST PUSH2 0x6A3 JUMP JUMPDEST STOP JUMPDEST PUSH2 0x31A PUSH1 0x4 DUP1 CALLDATASIZE SUB DUP2 ADD SWAP1 PUSH2 0x315 SWAP2 SWAP1 PUSH2 0x1E6F JUMP JUMPDEST PUSH2 0x95F JUMP JUMPDEST PUSH1 0x40 MLOAD PUSH2 0x32D SWAP8 SWAP7 SWAP6 SWAP5 SWAP4 SWAP3 SWAP2 SWAP1 PUSH2 0x2009 JUMP JUMPDEST PUSH1 0x40 MLOAD DUP1 SWAP2 SUB SWAP1 RETURN JUMPDEST PUSH2 0x350 PUSH1 0x4 DUP1 CALLDATASIZE SUB DUP2 ADD SWAP1 PUSH2 0x34B SWAP2 SWAP1 PUSH2 0x2076 JUMP JUMPDEST PUSH2 0x9C9 JUMP JUMPDEST PUSH1 0x40 MLOAD PUSH2 0x35D SWAP2 SWAP1 PUSH2 0x1D17 JUMP JUMPDEST PUSH1 0x40 MLOAD DUP1 SWAP2 SUB SWAP1 RETURN JUMPDEST PUSH2 0x380 PUSH1 0x4 DUP1 CALLDATASIZE SUB DUP2 ADD SWAP1 PUSH2 0x37B SWAP2 SWAP1 PUSH2 0x20B4 JUMP JUMPDEST PUSH2 0x9F3 JUMP JUMPDEST PUSH1 0x40 MLOAD PUSH2 0x38D SWAP2 SWAP1 PUSH2 0x1C5E JUMP JUMPDEST PUSH1 0x40 MLOAD DUP1 SWAP2 SUB SWAP1 RETURN JUMPDEST PUSH2 0x3B0 PUSH1 0x4 DUP1 CALLDATASIZE SUB DUP2 ADD SWAP1 PUSH2 0x3AB SWAP2 SWAP1 PUSH2 0x20F2 JUMP JUMPDEST PUSH2 0xA13 JUMP JUMPDEST PUSH1 0x40 MLOAD PUSH2 0x3BD SWAP2 SWAP1 PUSH2 0x1D17 JUMP JUMPDEST PUSH1 0x40 MLOAD DUP1 SWAP2 SUB SWAP1 RETURN JUMPDEST PUSH2 0x3E0 PUSH1 0x4 DUP1 CALLDATASIZE SUB DUP2 ADD SWAP1 PUSH2 0x3DB SWAP2 SWAP1 PUSH2 0x2157 JUMP JUMPDEST PUSH2 0xD87 JUMP JUMPDEST STOP JUMPDEST PUSH2 0x3FC PUSH1 0x4 DUP1 CALLDATASIZE SUB DUP2 ADD SWAP1 PUSH2 0x3F7 SWAP2 SWAP1 PUSH2 0x20B4 JUMP JUMPDEST PUSH2 0xE0B JUMP JUMPDEST PUSH1 0x40 MLOAD PUSH2 0x409 SWAP2 SWAP1 PUSH2 0x1C5E JUMP JUMPDEST PUSH1 0x40 MLOAD DUP1 SWAP2 SUB SWAP1 RETURN JUMPDEST PUSH1 0x3 PUSH1 0x20 MSTORE DUP1 PUSH0 MSTORE PUSH1 0x40 PUSH0 KECCAK256 PUSH0 SWAP2 POP SWAP1 POP SLOAD DUP2 JUMP JUMPDEST PUSH0 PUSH2 0x58D PUSH1 0x40 MLOAD DUP1 PUSH1 0x40 ADD PUSH1 0x40 MSTORE DUP1 DUP6 PUSH0 PUSH1 0x8 DUP2 LT PUSH2 0x449 JUMPI PUSH2 0x448 PUSH2 0x2182 JUMP JUMPDEST JUMPDEST PUSH1 0x20 MUL ADD CALLDATALOAD DUP2 MSTORE PUSH1 0x20 ADD DUP6 PUSH1 0x1 PUSH1 0x8 DUP2 LT PUSH2 0x467 JUMPI PUSH2 0x466 PUSH2 0x2182 JUMP JUMPDEST JUMPDEST PUSH1 0x20 MUL ADD CALLDATALOAD DUP2 MSTORE POP PUSH1 0x40 MLOAD DUP1 PUSH1 0x40 ADD PUSH1 0x40 MSTORE DUP1 PUSH1 0x40 MLOAD DUP1 PUSH1 0x40 ADD PUSH1 0x40 MSTORE DUP1 DUP9 PUSH1 0x2 PUSH1 0x8 DUP2 LT PUSH2 0x499 JUMPI PUSH2 0x498 PUSH2 0x2182 JUMP JUMPDEST JUMPDEST PUSH1 0x20 MUL ADD CALLDATALOAD DUP2 MSTORE PUSH1 0x20 ADD DUP9 PUSH1 0x3 PUSH1 0x8 DUP2 LT PUSH2 0x4B7 JUMPI PUSH2 0x4B6 PUSH2 0x2182 JUMP JUMPDEST JUMPDEST PUSH1 0x20 MUL ADD CALLDATALOAD DUP2 MSTORE POP DUP2 MSTORE PUSH1 0x20 ADD PUSH1 0x40 MLOAD DUP1 PUSH1 0x40 ADD PUSH1 0x40 MSTORE DUP1 DUP9 PUSH1 0x4 PUSH1 0x8 DUP2 LT PUSH2 0x4E3 JUMPI PUSH2 0x4E2 PUSH2 0x2182 JUMP JUMPDEST JUMPDEST PUSH1 0x20 MUL ADD CALLDATALOAD DUP2 MSTORE PUSH1 0x20 ADD DUP9 PUSH1 0x5 PUSH1 0x8 DUP2 LT PUSH2 0x501 JUMPI PUSH2 0x500 PUSH2 0x2182 JUMP JUMPDEST JUMPDEST PUSH1 0x20 MUL ADD CALLDATALOAD DUP2 MSTORE POP DUP2 MSTORE POP PUSH1 0x40 MLOAD DUP1 PUSH1 0x40 ADD PUSH1 0x40 MSTORE DUP1 DUP8 PUSH1 0x6 PUSH1 0x8 DUP2 LT PUSH2 0x52B JUMPI PUSH2 0x52A PUSH2 0x2182 JUMP JUMPDEST JUMPDEST PUSH1 0x20 MUL ADD CALLDATALOAD DUP2 MSTORE PUSH1 0x20 ADD DUP8 PUSH1 0x7 PUSH1 0x8 DUP2 LT PUSH2 0x549 JUMPI PUSH2 0x548 PUSH2 0x2182 JUMP JUMPDEST JUMPDEST PUSH1 0x20 MUL ADD CALLDATALOAD DUP2 MSTORE POP DUP6 PUSH1 0x1 DUP1 PUSH1 0x20 MUL PUSH1 0x40 MLOAD SWAP1 DUP2 ADD PUSH1 0x40 MSTORE DUP1 SWAP3 SWAP2 SWAP1 DUP3 PUSH1 0x1 PUSH1 0x20 MUL DUP1 DUP3 DUP5 CALLDATACOPY PUSH0 DUP2 DUP5 ADD MSTORE PUSH1 0x1F NOT PUSH1 0x1F DUP3 ADD AND SWAP1 POP DUP1 DUP4 ADD SWAP3 POP POP POP POP POP POP PUSH2 0xE2B JUMP JUMPDEST SWAP1 POP SWAP3 SWAP2 POP POP JUMP JUMPDEST PUSH1 0xB PUSH1 0x20 MSTORE DUP2 PUSH0 MSTORE PUSH1 0x40 PUSH0 KECCAK256 PUSH1 0x20 MSTORE DUP1 PUSH0 MSTORE PUSH1 0x40 PUSH0 KECCAK256 PUSH0 SWAP2 POP SWAP2 POP SWAP1 SLOAD SWAP1 PUSH2 0x100 EXP SWAP1 DIV PUSH1 0xFF AND DUP2 JUMP JUMPDEST PUSH1 0x8 SLOAD DUP2 JUMP JUMPDEST PUSH2 0x5CD PUSH2 0x110D JUMP JUMPDEST PUSH2 0x5D5 PUSH2 0x1194 JUMP JUMPDEST JUMP JUMPDEST PUSH32 0x0 DUP2 JUMP JUMPDEST PUSH0 PUSH1 0x2 PUSH0 SWAP1 SLOAD SWAP1 PUSH2 0x100 EXP SWAP1 DIV PUSH1 0xFF AND SWAP1 POP SWAP1 JUMP JUMPDEST PUSH1 0x6 PUSH1 0x20 MSTORE DUP1 PUSH0 MSTORE PUSH1 0x40 PUSH0 KECCAK256 PUSH0 SWAP2 POP SWAP1 POP SLOAD DUP2 JUMP JUMPDEST PUSH1 0x5 PUSH1 0x20 MSTORE DUP1 PUSH0 MSTORE PUSH1 0x40 PUSH0 KECCAK256 PUSH0 SWAP2 POP SWAP1 POP SLOAD DUP2 JUMP JUMPDEST PUSH2 0x642 PUSH2 0x110D JUMP JUMPDEST PUSH2 0x64B PUSH0 PUSH2 0x11F5 JUMP JUMPDEST JUMP JUMPDEST PUSH1 0xA PUSH1 0x20 MSTORE DUP1 PUSH0 MSTORE PUSH1 0x40 PUSH0 KECCAK256 PUSH0 SWAP2 POP SLOAD SWAP1 PUSH2 0x100 EXP SWAP1 DIV PUSH1 0xFF AND DUP2 JUMP JUMPDEST PUSH2 0x672 PUSH2 0x110D JUMP JUMPDEST PUSH2 0x67A PUSH2 0x12B6 JUMP JUMPDEST JUMP JUMPDEST PUSH0 DUP1 PUSH0 SWAP1 SLOAD SWAP1 PUSH2 0x100 EXP SWAP1 DIV PUSH20 0xFFFFFFFFFFFFFFFFFFFFFFFFFFFFFFFFFFFFFFFF AND SWAP1 POP SWAP1 JUMP JUMPDEST PUSH2 0x6AB PUSH2 0x110D JUMP JUMPDEST PUSH0 DUP3 DUP3 SWAP1 POP GT PUSH2 0x6F0 JUMPI PUSH1 0x40 MLOAD PUSH32 0x8C379A000000000000000000000000000000000000000000000000000000000 DUP2 MSTORE PUSH1 0x4 ADD PUSH2 0x6E7 SWAP1 PUSH2 0x2209 JUMP JUMPDEST PUSH1 0x40 MLOAD DUP1 SWAP2 SUB SWAP1 REVERT JUMPDEST DUP6 PUSH0 PUSH1 0x2 DUP2 LT PUSH2 0x703 JUMPI PUSH2 0x702 PUSH2 0x2182 JUMP JUMPDEST JUMPDEST PUSH1 0x20 MUL ADD CALLDATALOAD PUSH1 0x3 PUSH0 DUP1 DUP2 MSTORE PUSH1 0x20 ADD SWAP1 DUP2 MSTORE PUSH1 0x20 ADD PUSH0 KECCAK256 DUP2 SWAP1 SSTORE POP DUP6 PUSH1 0x1 PUSH1 0x2 DUP2 LT PUSH2 0x731 JUMPI PUSH2 0x730 PUSH2 0x2182 JUMP JUMPDEST JUMPDEST PUSH1 0x20 MUL ADD CALLDATALOAD PUSH1 0x3 PUSH0 PUSH1 0x1 DUP2 MSTORE PUSH1 0x20 ADD SWAP1 DUP2 MSTORE PUSH1 0x20 ADD PUSH0 KECCAK256 DUP2 SWAP1 SSTORE POP PUSH0 JUMPDEST PUSH1 0x2 DUP2 LT ISZERO PUSH2 0x7CF JUMPI PUSH0 JUMPDEST PUSH1 0x2 DUP2 LT ISZERO PUSH2 0x7C1 JUMPI DUP7 DUP3 PUSH1 0x2 DUP2 LT PUSH2 0x775 JUMPI PUSH2 0x774 PUSH2 0x2182 JUMP JUMPDEST JUMPDEST PUSH1 0x40 MUL ADD DUP2 PUSH1 0x2 DUP2 LT PUSH2 0x78B JUMPI PUSH2 0x78A PUSH2 0x2182 JUMP JUMPDEST JUMPDEST PUSH1 0x20 MUL ADD CALLDATALOAD PUSH1 0x4 PUSH0 DUP5 DUP2 MSTORE PUSH1 0x20 ADD SWAP1 DUP2 MSTORE PUSH1 0x20 ADD PUSH0 KECCAK256 PUSH0 DUP4 DUP2 MSTORE PUSH1 0x20 ADD SWAP1 DUP2 MSTORE PUSH1 0x20 ADD PUSH0 KECCAK256 DUP2 SWAP1 SSTORE POP DUP1 DUP1 PUSH1 0x1 ADD SWAP2 POP POP PUSH2 0x759 JUMP JUMPDEST POP DUP1 DUP1 PUSH1 0x1 ADD SWAP2 POP POP PUSH2 0x74E JUMP JUMPDEST POP DUP4 PUSH0 PUSH1 0x2 DUP2 LT PUSH2 0x7E3 JUMPI PUSH2 0x7E2 PUSH2 0x2182 JUMP JUMPDEST JUMPDEST PUSH1 0x20 MUL ADD CALLDATALOAD PUSH1 0x5 PUSH0 DUP1 DUP2 MSTORE PUSH1 0x20 ADD SWAP1 DUP2 MSTORE PUSH1 0x20 ADD PUSH0 KECCAK256 DUP2 SWAP1 SSTORE POP DUP4 PUSH1 0x1 PUSH1 0x2 DUP2 LT PUSH2 0x811 JUMPI PUSH2 0x810 PUSH2 0x2182 JUMP JUMPDEST JUMPDEST PUSH1 0x20 MUL ADD CALLDATALOAD PUSH1 0x5 PUSH0 PUSH1 0x1 DUP2 MSTORE PUSH1 0x20 ADD SWAP1 DUP2 MSTORE PUSH1 0x20 ADD PUSH0 KECCAK256 DUP2 SWAP1 SSTORE POP DUP3 PUSH0 PUSH1 0x2 DUP2 LT PUSH2 0x83F JUMPI PUSH2 0x83E PUSH2 0x2182 JUMP JUMPDEST JUMPDEST PUSH1 0x20 MUL ADD CALLDATALOAD PUSH1 0x6 PUSH0 DUP1 DUP2 MSTORE PUSH1 0x20 ADD SWAP1 DUP2 MSTORE PUSH1 0x20 ADD PUSH0 KECCAK256 DUP2 SWAP1 SSTORE POP DUP3 PUSH1 0x1 PUSH1 0x2 DUP2 LT PUSH2 0x86D JUMPI PUSH2 0x86C PUSH2 0x2182 JUMP JUMPDEST JUMPDEST PUSH1 0x20 MUL ADD CALLDATALOAD PUSH1 0x6 PUSH0 PUSH1 0x1 DUP2 MSTORE PUSH1 0x20 ADD SWAP1 DUP2 MSTORE PUSH1 0x20 ADD PUSH0 KECCAK256 DUP2 SWAP1 SSTORE POP DUP2 DUP2 SWAP1 POP PUSH1 0x8 DUP2 SWAP1 SSTORE POP PUSH0 JUMPDEST DUP3 DUP3 SWAP1 POP DUP2 LT ISZERO PUSH2 0x956 JUMPI DUP3 DUP3 DUP3 DUP2 DUP2 LT PUSH2 0x8B2 JUMPI PUSH2 0x8B1 PUSH2 0x2182 JUMP JUMPDEST JUMPDEST SWAP1 POP PUSH1 0x40 MUL ADD PUSH0 PUSH1 0x2 DUP2 LT PUSH2 0x8CA JUMPI PUSH2 0x8C9 PUSH2 0x2182 JUMP JUMPDEST JUMPDEST PUSH1 0x20 MUL ADD CALLDATALOAD PUSH1 0x7 PUSH0 DUP4 DUP2 MSTORE PUSH1 0x20 ADD SWAP1 DUP2 MSTORE PUSH1 0x20 ADD PUSH0 KECCAK256 PUSH0 DUP1 DUP2 MSTORE PUSH1 0x20 ADD SWAP1 DUP2 MSTORE PUSH1 0x20 ADD PUSH0 KECCAK256 DUP2 SWAP1 SSTORE POP DUP3 DUP3 DUP3 DUP2 DUP2 LT PUSH2 0x906 JUMPI PUSH2 0x905 PUSH2 0x2182 JUMP JUMPDEST JUMPDEST SWAP1 POP PUSH1 0x40 MUL ADD PUSH1 0x1 PUSH1 0x2 DUP2 LT PUSH2 0x91F JUMPI PUSH2 0x91E PUSH2 0x2182 JUMP JUMPDEST JUMPDEST PUSH1 0x20 MUL ADD CALLDATALOAD PUSH1 0x7 PUSH0 DUP4 DUP2 MSTORE PUSH1 0x20 ADD SWAP1 DUP2 MSTORE PUSH1 0x20 ADD PUSH0 KECCAK256 PUSH0 PUSH1 0x1 DUP2 MSTORE PUSH1 0x20 ADD SWAP1 DUP2 MSTORE PUSH1 0x20 ADD PUSH0 KECCAK256 DUP2 SWAP1 SSTORE POP DUP1 DUP1 PUSH1 0x1 ADD SWAP2 POP POP PUSH2 0x894 JUMP JUMPDEST POP POP POP POP POP POP POP JUMP JUMPDEST PUSH1 0x9 PUSH1 0x20 MSTORE DUP1 PUSH0 MSTORE PUSH1 0x40 PUSH0 KECCAK256 PUSH0 SWAP2 POP SWAP1 POP DUP1 PUSH0 ADD SLOAD SWAP1 DUP1 PUSH1 0x1 ADD SLOAD SWAP1 DUP1 PUSH1 0x2 ADD SLOAD SWAP1 DUP1 PUSH1 0x3 ADD PUSH0 SWAP1 SLOAD SWAP1 PUSH2 0x100 EXP SWAP1 DIV PUSH20 0xFFFFFFFFFFFFFFFFFFFFFFFFFFFFFFFFFFFFFFFF AND SWAP1 DUP1 PUSH1 0x3 ADD PUSH1 0x14 SWAP1 SLOAD SWAP1 PUSH2 0x100 EXP SWAP1 DIV PUSH1 0xFF AND SWAP1 DUP1 PUSH1 0x4 ADD SLOAD SWAP1 DUP1 PUSH1 0x5 ADD SLOAD SWAP1 POP DUP8 JUMP JUMPDEST PUSH1 0xC PUSH1 0x20 MSTORE DUP2 PUSH0 MSTORE PUSH1 0x40 PUSH0 KECCAK256 PUSH1 0x20 MSTORE DUP1 PUSH0 MSTORE PUSH1 0x40 PUSH0 KECCAK256 PUSH0 SWAP2 POP SWAP2 POP SWAP1 SLOAD SWAP1 PUSH2 0x100 EXP SWAP1 DIV PUSH1 0xFF AND DUP2 JUMP JUMPDEST PUSH1 0x4 PUSH1 0x20 MSTORE DUP2 PUSH0 MSTORE PUSH1 0x40 PUSH0 KECCAK256 PUSH1 0x20 MSTORE DUP1 PUSH0 MSTORE PUSH1 0x40 PUSH0 KECCAK256 PUSH0 SWAP2 POP SWAP2 POP POP SLOAD DUP2 JUMP JUMPDEST PUSH0 PUSH2 0xA1C PUSH2 0x1318 JUMP JUMPDEST PUSH2 0xA24 PUSH2 0x135E JUMP JUMPDEST PUSH0 DUP1 SHL DUP6 SUB PUSH2 0xA68 JUMPI PUSH1 0x40 MLOAD PUSH32 0x8C379A000000000000000000000000000000000000000000000000000000000 DUP2 MSTORE PUSH1 0x4 ADD PUSH2 0xA5F SWAP1 PUSH2 0x2271 JUMP JUMPDEST PUSH1 0x40 MLOAD DUP1 SWAP2 SUB SWAP1 REVERT JUMPDEST PUSH0 DUP1 SHL PUSH1 0x9 PUSH0 DUP8 DUP2 MSTORE PUSH1 0x20 ADD SWAP1 DUP2 MSTORE PUSH1 0x20 ADD PUSH0 KECCAK256 PUSH0 ADD SLOAD EQ PUSH2 0xABF JUMPI PUSH1 0x40 MLOAD PUSH32 0x8C379A000000000000000000000000000000000000000000000000000000000 DUP2 MSTORE PUSH1 0x4 ADD PUSH2 0xAB6 SWAP1 PUSH2 0x22D9 JUMP JUMPDEST PUSH1 0x40 MLOAD DUP1 SWAP2 SUB SWAP1 REVERT JUMPDEST PUSH0 PUSH1 0x40 MLOAD DUP1 PUSH1 0x20 ADD PUSH1 0x40 MSTORE DUP1 CALLER PUSH20 0xFFFFFFFFFFFFFFFFFFFFFFFFFFFFFFFFFFFFFFFF AND DUP2 MSTORE POP SWAP1 POP PUSH0 PUSH32 0x0 PUSH20 0xFFFFFFFFFFFFFFFFFFFFFFFFFFFFFFFFFFFFFFFF AND PUSH4 0x4F256693 DUP9 DUP9 PUSH1 0x40 MLOAD DUP4 PUSH4 0xFFFFFFFF AND PUSH1 0xE0 SHL DUP2 MSTORE PUSH1 0x4 ADD PUSH2 0xB43 SWAP3 SWAP2 SWAP1 PUSH2 0x22F7 JUMP JUMPDEST PUSH1 0x20 PUSH1 0x40 MLOAD DUP1 DUP4 SUB DUP2 PUSH0 DUP8 GAS CALL ISZERO DUP1 ISZERO PUSH2 0xB5F JUMPI RETURNDATASIZE PUSH0 DUP1 RETURNDATACOPY RETURNDATASIZE PUSH0 REVERT JUMPDEST POP POP POP POP PUSH1 0x40 MLOAD RETURNDATASIZE PUSH1 0x1F NOT PUSH1 0x1F DUP3 ADD AND DUP3 ADD DUP1 PUSH1 0x40 MSTORE POP DUP2 ADD SWAP1 PUSH2 0xB83 SWAP2 SWAP1 PUSH2 0x2348 JUMP JUMPDEST SWAP1 POP DUP1 PUSH2 0xBC5 JUMPI PUSH1 0x40 MLOAD PUSH32 0x8C379A000000000000000000000000000000000000000000000000000000000 DUP2 MSTORE PUSH1 0x4 ADD PUSH2 0xBBC SWAP1 PUSH2 0x23BD JUMP JUMPDEST PUSH1 0x40 MLOAD DUP1 SWAP2 SUB SWAP1 REVERT JUMPDEST ADDRESS PUSH20 0xFFFFFFFFFFFFFFFFFFFFFFFFFFFFFFFFFFFFFFFF AND PUSH4 0x1B81F829 DUP6 DUP5 PUSH1 0x40 MLOAD DUP4 PUSH4 0xFFFFFFFF AND PUSH1 0xE0 SHL DUP2 MSTORE PUSH1 0x4 ADD PUSH2 0xC00 SWAP3 SWAP2 SWAP1 PUSH2 0x249A JUMP JUMPDEST PUSH1 0x20 PUSH1 0x40 MLOAD DUP1 DUP4 SUB DUP2 DUP7 GAS STATICCALL ISZERO DUP1 ISZERO PUSH2 0xC1B JUMPI RETURNDATASIZE PUSH0 DUP1 RETURNDATACOPY RETURNDATASIZE PUSH0 REVERT JUMPDEST POP POP POP POP PUSH1 0x40 MLOAD RETURNDATASIZE PUSH1 0x1F NOT PUSH1 0x1F DUP3 ADD AND DUP3 ADD DUP1 PUSH1 0x40 MSTORE POP DUP2 ADD SWAP1 PUSH2 0xC3F SWAP2 SWAP1 PUSH2 0x2348 JUMP JUMPDEST PUSH2 0xC7E JUMPI PUSH1 0x40 MLOAD PUSH32 0x8C379A000000000000000000000000000000000000000000000000000000000 DUP2 MSTORE PUSH1 0x4 ADD PUSH2 0xC75 SWAP1 PUSH2 0x250D JUMP JUMPDEST PUSH1 0x40 MLOAD DUP1 SWAP2 SUB SWAP1 REVERT JUMPDEST PUSH0 PUSH1 0x9 PUSH0 DUP10 DUP2 MSTORE PUSH1 0x20 ADD SWAP1 DUP2 MSTORE PUSH1 0x20 ADD PUSH0 KECCAK256 SWAP1 POP DUP8 DUP2 PUSH0 ADD DUP2 SWAP1 SSTORE POP DUP7 DUP2 PUSH1 0x1 ADD DUP2 SWAP1 SSTORE POP DUP6 DUP2 PUSH1 0x2 ADD DUP2 SWAP1 SSTORE POP CALLER DUP2 PUSH1 0x3 ADD PUSH0 PUSH2 0x100 EXP DUP2 SLOAD DUP2 PUSH20 0xFFFFFFFFFFFFFFFFFFFFFFFFFFFFFFFFFFFFFFFF MUL NOT AND SWAP1 DUP4 PUSH20 0xFFFFFFFFFFFFFFFFFFFFFFFFFFFFFFFFFFFFFFFF AND MUL OR SWAP1 SSTORE POP PUSH0 DUP2 PUSH1 0x3 ADD PUSH1 0x14 PUSH2 0x100 EXP DUP2 SLOAD DUP2 PUSH1 0xFF MUL NOT AND SWAP1 DUP4 ISZERO ISZERO MUL OR SWAP1 SSTORE POP PUSH0 DUP1 SHL DUP2 PUSH1 0x4 ADD DUP2 SWAP1 SSTORE POP TIMESTAMP DUP2 PUSH1 0x5 ADD DUP2 SWAP1 SSTORE POP CALLER PUSH20 0xFFFFFFFFFFFFFFFFFFFFFFFFFFFFFFFFFFFFFFFF AND DUP8 DUP10 PUSH32 0x7EE1E7C298F2A2CAE66C75263967D60FC11CFD9B694058AF3FA496D83548FD24 DUP10 TIMESTAMP PUSH1 0x40 MLOAD PUSH2 0xD68 SWAP3 SWAP2 SWAP1 PUSH2 0x252B JUMP JUMPDEST PUSH1 0x40 MLOAD DUP1 SWAP2 SUB SWAP1 LOG4 PUSH1 0x1 SWAP4 POP POP POP POP PUSH2 0xD7F PUSH2 0x139F JUMP JUMPDEST SWAP5 SWAP4 POP POP POP POP JUMP JUMPDEST PUSH2 0xD8F PUSH2 0x110D JUMP JUMPDEST PUSH0 PUSH20 0xFFFFFFFFFFFFFFFFFFFFFFFFFFFFFFFFFFFFFFFF AND DUP2 PUSH20 0xFFFFFFFFFFFFFFFFFFFFFFFFFFFFFFFFFFFFFFFF AND SUB PUSH2 0xDFF JUMPI PUSH0 PUSH1 0x40 MLOAD PUSH32 0x1E4FBDF700000000000000000000000000000000000000000000000000000000 DUP2 MSTORE PUSH1 0x4 ADD PUSH2 0xDF6 SWAP2 SWAP1 PUSH2 0x1EA9 JUMP JUMPDEST PUSH1 0x40 MLOAD DUP1 SWAP2 SUB SWAP1 REVERT JUMPDEST PUSH2 0xE08 DUP2 PUSH2 0x11F5 JUMP JUMPDEST POP JUMP JUMPDEST PUSH1 0x7 PUSH1 0x20 MSTORE DUP2 PUSH0 MSTORE PUSH1 0x40 PUSH0 KECCAK256 PUSH1 0x20 MSTORE DUP1 PUSH0 MSTORE PUSH1 0x40 PUSH0 KECCAK256 PUSH0 SWAP2 POP SWAP2 POP POP SLOAD DUP2 JUMP JUMPDEST PUSH0 PUSH1 0x8 SLOAD PUSH1 0x1 DUP1 PUSH2 0xE3C SWAP2 SWAP1 PUSH2 0x257F JUMP JUMPDEST EQ PUSH2 0xE7C JUMPI PUSH1 0x40 MLOAD PUSH32 0x8C379A000000000000000000000000000000000000000000000000000000000 DUP2 MSTORE PUSH1 0x4 ADD PUSH2 0xE73 SWAP1 PUSH2 0x25FC JUMP JUMPDEST PUSH1 0x40 MLOAD DUP1 SWAP2 SUB SWAP1 REVERT JUMPDEST PUSH0 PUSH1 0x40 MLOAD DUP1 PUSH1 0x40 ADD PUSH1 0x40 MSTORE DUP1 PUSH1 0x7 PUSH0 DUP1 DUP2 MSTORE PUSH1 0x20 ADD SWAP1 DUP2 MSTORE PUSH1 0x20 ADD PUSH0 KECCAK256 PUSH0 DUP1 DUP2 MSTORE PUSH1 0x20 ADD SWAP1 DUP2 MSTORE PUSH1 0x20 ADD PUSH0 KECCAK256 SLOAD DUP2 MSTORE PUSH1 0x20 ADD PUSH1 0x7 PUSH0 DUP1 DUP2 MSTORE PUSH1 0x20 ADD SWAP1 DUP2 MSTORE PUSH1 0x20 ADD PUSH0 KECCAK256 PUSH0 PUSH1 0x1 DUP2 MSTORE PUSH1 0x20 ADD SWAP1 DUP2 MSTORE PUSH1 0x20 ADD PUSH0 KECCAK256 SLOAD DUP2 MSTORE POP SWAP1 POP PUSH0 JUMPDEST PUSH1 0x1 DUP2 LT ISZERO PUSH2 0xFF7 JUMPI PUSH0 DUP1 PUSH2 0xF70 PUSH1 0x40 MLOAD DUP1 PUSH1 0x40 ADD PUSH1 0x40 MSTORE DUP1 PUSH1 0x7 PUSH0 PUSH1 0x1 DUP9 PUSH2 0xF00 SWAP2 SWAP1 PUSH2 0x257F JUMP JUMPDEST DUP2 MSTORE PUSH1 0x20 ADD SWAP1 DUP2 MSTORE PUSH1 0x20 ADD PUSH0 KECCAK256 PUSH0 DUP1 DUP2 MSTORE PUSH1 0x20 ADD SWAP1 DUP2 MSTORE PUSH1 0x20 ADD PUSH0 KECCAK256 SLOAD DUP2 MSTORE PUSH1 0x20 ADD PUSH1 0x7 PUSH0 PUSH1 0x1 DUP9 PUSH2 0xF32 SWAP2 SWAP1 PUSH2 0x257F JUMP JUMPDEST DUP2 MSTORE PUSH1 0x20 ADD SWAP1 DUP2 MSTORE PUSH1 0x20 ADD PUSH0 KECCAK256 PUSH0 PUSH1 0x1 DUP2 MSTORE PUSH1 0x20 ADD SWAP1 DUP2 MSTORE PUSH1 0x20 ADD PUSH0 KECCAK256 SLOAD DUP2 MSTORE POP DUP8 DUP6 PUSH1 0x1 DUP2 LT PUSH2 0xF66 JUMPI PUSH2 0xF65 PUSH2 0x2182 JUMP JUMPDEST JUMPDEST PUSH1 0x20 MUL ADD MLOAD PUSH2 0x13A8 JUMP JUMPDEST SWAP2 POP SWAP2 POP PUSH2 0xFAF DUP5 PUSH0 PUSH1 0x2 DUP2 LT PUSH2 0xF8A JUMPI PUSH2 0xF89 PUSH2 0x2182 JUMP JUMPDEST JUMPDEST PUSH1 0x20 MUL ADD MLOAD DUP6 PUSH1 0x1 PUSH1 0x2 DUP2 LT PUSH2 0xFA3 JUMPI PUSH2 0xFA2 PUSH2 0x2182 JUMP JUMPDEST JUMPDEST PUSH1 0x20 MUL ADD MLOAD DUP5 DUP5 PUSH2 0x13FC JUMP JUMPDEST DUP6 PUSH0 PUSH1 0x2 DUP2 LT PUSH2 0xFC2 JUMPI PUSH2 0xFC1 PUSH2 0x2182 JUMP JUMPDEST JUMPDEST PUSH1 0x20 MUL ADD DUP7 PUSH1 0x1 PUSH1 0x2 DUP2 LT PUSH2 0xFDA JUMPI PUSH2 0xFD9 PUSH2 0x2182 JUMP JUMPDEST JUMPDEST PUSH1 0x20 MUL ADD DUP3 DUP2 MSTORE POP DUP3 DUP2 MSTORE POP POP POP POP POP DUP1 DUP1 PUSH1 0x1 ADD SWAP2 POP POP PUSH2 0xED7 JUMP JUMPDEST POP PUSH2 0x1102 DUP7 DUP7 PUSH1 0x40 MLOAD DUP1 PUSH1 0x40 ADD PUSH1 0x40 MSTORE DUP1 PUSH1 0x3 PUSH0 DUP1 DUP2 MSTORE PUSH1 0x20 ADD SWAP1 DUP2 MSTORE PUSH1 0x20 ADD PUSH0 KECCAK256 SLOAD DUP2 MSTORE PUSH1 0x20 ADD PUSH1 0x3 PUSH0 PUSH1 0x1 DUP2 MSTORE PUSH1 0x20 ADD SWAP1 DUP2 MSTORE PUSH1 0x20 ADD PUSH0 KECCAK256 SLOAD DUP2 MSTORE POP PUSH1 0x40 MLOAD DUP1 PUSH1 0x40 ADD PUSH1 0x40 MSTORE DUP1 PUSH1 0x4 PUSH0 DUP1 DUP2 MSTORE PUSH1 0x20 ADD SWAP1 DUP2 MSTORE PUSH1 0x20 ADD PUSH0 KECCAK256 PUSH0 DUP1 DUP2 MSTORE PUSH1 0x20 ADD SWAP1 DUP2 MSTORE PUSH1 0x20 ADD PUSH0 KECCAK256 SLOAD DUP2 MSTORE PUSH1 0x20 ADD PUSH1 0x4 PUSH0 DUP1 DUP2 MSTORE PUSH1 0x20 ADD SWAP1 DUP2 MSTORE PUSH1 0x20 ADD PUSH0 KECCAK256 PUSH0 PUSH1 0x1 DUP2 MSTORE PUSH1 0x20 ADD SWAP1 DUP2 MSTORE PUSH1 0x20 ADD PUSH0 KECCAK256 SLOAD DUP2 MSTORE POP DUP6 PUSH1 0x40 MLOAD DUP1 PUSH1 0x40 ADD PUSH1 0x40 MSTORE DUP1 PUSH1 0x5 PUSH0 DUP1 DUP2 MSTORE PUSH1 0x20 ADD SWAP1 DUP2 MSTORE PUSH1 0x20 ADD PUSH0 KECCAK256 SLOAD DUP2 MSTORE PUSH1 0x20 ADD PUSH1 0x5 PUSH0 PUSH1 0x1 DUP2 MSTORE PUSH1 0x20 ADD SWAP1 DUP2 MSTORE PUSH1 0x20 ADD PUSH0 KECCAK256 SLOAD DUP2 MSTORE POP DUP11 PUSH1 0x40 MLOAD DUP1 PUSH1 0x40 ADD PUSH1 0x40 MSTORE DUP1 PUSH1 0x6 PUSH0 DUP1 DUP2 MSTORE PUSH1 0x20 ADD SWAP1 DUP2 MSTORE PUSH1 0x20 ADD PUSH0 KECCAK256 SLOAD DUP2 MSTORE PUSH1 0x20 ADD PUSH1 0x6 PUSH0 PUSH1 0x1 DUP2 MSTORE PUSH1 0x20 ADD SWAP1 DUP2 MSTORE PUSH1 0x20 ADD PUSH0 KECCAK256 SLOAD DUP2 MSTORE POP PUSH2 0x1423 JUMP JUMPDEST SWAP2 POP POP SWAP5 SWAP4 POP POP POP POP JUMP JUMPDEST PUSH2 0x1115 PUSH2 0x1AF3 JUMP JUMPDEST PUSH20 0xFFFFFFFFFFFFFFFFFFFFFFFFFFFFFFFFFFFFFFFF AND PUSH2 0x1133 PUSH2 0x67C JUMP JUMPDEST PUSH20 0xFFFFFFFFFFFFFFFFFFFFFFFFFFFFFFFFFFFFFFFF AND EQ PUSH2 0x1192 JUMPI PUSH2 0x1156 PUSH2 0x1AF3 JUMP JUMPDEST PUSH1 0x40 MLOAD PUSH32 0x118CDAA700000000000000000000000000000000000000000000000000000000 DUP2 MSTORE PUSH1 0x4 ADD PUSH2 0x1189 SWAP2 SWAP1 PUSH2 0x1EA9 JUMP JUMPDEST PUSH1 0x40 MLOAD DUP1 SWAP2 SUB SWAP1 REVERT JUMPDEST JUMP JUMPDEST PUSH2 0x119C PUSH2 0x1AFA JUMP JUMPDEST PUSH0 PUSH1 0x2 PUSH0 PUSH2 0x100 EXP DUP2 SLOAD DUP2 PUSH1 0xFF MUL NOT AND SWAP1 DUP4 ISZERO ISZERO MUL OR SWAP1 SSTORE POP PUSH32 0x5DB9EE0A495BF2E6FF9C91A7834C1BA4FDD244A5E8AA4E537BD38AEAE4B073AA PUSH2 0x11DE PUSH2 0x1AF3 JUMP JUMPDEST PUSH1 0x40 MLOAD PUSH2 0x11EB SWAP2 SWAP1 PUSH2 0x1EA9 JUMP JUMPDEST PUSH1 0x40 MLOAD DUP1 SWAP2 SUB SWAP1 LOG1 JUMP JUMPDEST PUSH0 DUP1 PUSH0 SWAP1 SLOAD SWAP1 PUSH2 0x100 EXP SWAP1 DIV PUSH20 0xFFFFFFFFFFFFFFFFFFFFFFFFFFFFFFFFFFFFFFFF AND SWAP1 POP DUP2 PUSH0 DUP1 PUSH2 0x100 EXP DUP2 SLOAD DUP2 PUSH20 0xFFFFFFFFFFFFFFFFFFFFFFFFFFFFFFFFFFFFFFFF MUL NOT AND SWAP1 DUP4 PUSH20 0xFFFFFFFFFFFFFFFFFFFFFFFFFFFFFFFFFFFFFFFF AND MUL OR SWAP1 SSTORE POP DUP2 PUSH20 0xFFFFFFFFFFFFFFFFFFFFFFFFFFFFFFFFFFFFFFFF AND DUP2 PUSH20 0xFFFFFFFFFFFFFFFFFFFFFFFFFFFFFFFFFFFFFFFF AND PUSH32 0x8BE0079C531659141344CD1FD0A4F28419497F9722A3DAAFE3B4186F6B6457E0 PUSH1 0x40 MLOAD PUSH1 0x40 MLOAD DUP1 SWAP2 SUB SWAP1 LOG3 POP POP JUMP JUMPDEST PUSH2 0x12BE PUSH2 0x135E JUMP JUMPDEST PUSH1 0x1 PUSH1 0x2 PUSH0 PUSH2 0x100 EXP DUP2 SLOAD DUP2 PUSH1 0xFF MUL NOT AND SWAP1 DUP4 ISZERO ISZERO MUL OR SWAP1 SSTORE POP PUSH32 0x62E78CEA01BEE320CD4E420270B5EA74000D11B0C9F74754EBDBFC544B05A258 PUSH2 0x1301 PUSH2 0x1AF3 JUMP JUMPDEST PUSH1 0x40 MLOAD PUSH2 0x130E SWAP2 SWAP1 PUSH2 0x1EA9 JUMP JUMPDEST PUSH1 0x40 MLOAD DUP1 SWAP2 SUB SWAP1 LOG1 JUMP JUMPDEST PUSH1 0x2 PUSH1 0x1 SLOAD SUB PUSH2 0x1354 JUMPI PUSH1 0x40 MLOAD PUSH32 0x3EE5AEB500000000000000000000000000000000000000000000000000000000 DUP2 MSTORE PUSH1 0x4 ADD PUSH1 0x40 MLOAD DUP1 SWAP2 SUB SWAP1 REVERT JUMPDEST PUSH1 0x2 PUSH1 0x1 DUP2 SWAP1 SSTORE POP JUMP JUMPDEST PUSH2 0x1366 PUSH2 0x5FB JUMP JUMPDEST ISZERO PUSH2 0x139D JUMPI PUSH1 0x40 MLOAD PUSH32 0xD93C066500000000000000000000000000000000000000000000000000000000 DUP2 MSTORE PUSH1 0x4 ADD PUSH1 0x40 MLOAD DUP1 SWAP2 SUB SWAP1 REVERT JUMPDEST JUMP JUMPDEST PUSH1 0x1 DUP1 DUP2 SWAP1 SSTORE POP JUMP JUMPDEST PUSH0 DUP1 DUP3 DUP5 PUSH0 PUSH1 0x2 DUP2 LT PUSH2 0x13BE JUMPI PUSH2 0x13BD PUSH2 0x2182 JUMP JUMPDEST JUMPDEST PUSH1 0x20 MUL ADD MLOAD PUSH2 0x13CD SWAP2 SWAP1 PUSH2 0x261A JUMP JUMPDEST DUP4 DUP6 PUSH1 0x1 PUSH1 0x2 DUP2 LT PUSH2 0x13E2 JUMPI PUSH2 0x13E1 PUSH2 0x2182 JUMP JUMPDEST JUMPDEST PUSH1 0x20 MUL ADD MLOAD PUSH2 0x13F1 SWAP2 SWAP1 PUSH2 0x261A JUMP JUMPDEST SWAP2 POP SWAP2 POP SWAP3 POP SWAP3 SWAP1 POP JUMP JUMPDEST PUSH0 DUP1 DUP4 DUP7 PUSH2 0x140A SWAP2 SWAP1 PUSH2 0x257F JUMP JUMPDEST DUP4 DUP7 PUSH2 0x1416 SWAP2 SWAP1 PUSH2 0x257F JUMP JUMPDEST SWAP2 POP SWAP2 POP SWAP5 POP SWAP5 SWAP3 POP POP POP JUMP JUMPDEST PUSH0 PUSH2 0x142C PUSH2 0x1BA4 JUMP JUMPDEST PUSH2 0x1465 DUP11 PUSH0 PUSH1 0x2 DUP2 LT PUSH2 0x1442 JUMPI PUSH2 0x1441 PUSH2 0x2182 JUMP JUMPDEST JUMPDEST PUSH1 0x20 MUL ADD MLOAD DUP12 PUSH1 0x1 PUSH1 0x2 DUP2 LT PUSH2 0x145B JUMPI PUSH2 0x145A PUSH2 0x2182 JUMP JUMPDEST JUMPDEST PUSH1 0x20 MUL ADD MLOAD PUSH2 0x1B3A JUMP JUMPDEST DUP12 PUSH0 PUSH1 0x2 DUP2 LT PUSH2 0x1478 JUMPI PUSH2 0x1477 PUSH2 0x2182 JUMP JUMPDEST JUMPDEST PUSH1 0x20 MUL ADD DUP13 PUSH1 0x1 PUSH1 0x2 DUP2 LT PUSH2 0x1490 JUMPI PUSH2 0x148F PUSH2 0x2182 JUMP JUMPDEST JUMPDEST PUSH1 0x20 MUL ADD DUP3 DUP2 MSTORE POP DUP3 DUP2 MSTORE POP POP POP PUSH2 0x14D7 DUP5 PUSH0 PUSH1 0x2 DUP2 LT PUSH2 0x14B4 JUMPI PUSH2 0x14B3 PUSH2 0x2182 JUMP JUMPDEST JUMPDEST PUSH1 0x20 MUL ADD MLOAD DUP6 PUSH1 0x1 PUSH1 0x2 DUP2 LT PUSH2 0x14CD JUMPI PUSH2 0x14CC PUSH2 0x2182 JUMP JUMPDEST JUMPDEST PUSH1 0x20 MUL ADD MLOAD PUSH2 0x1B3A JUMP JUMPDEST DUP6 PUSH0 PUSH1 0x2 DUP2 LT PUSH2 0x14EA JUMPI PUSH2 0x14E9 PUSH2 0x2182 JUMP JUMPDEST JUMPDEST PUSH1 0x20 MUL ADD DUP7 PUSH1 0x1 PUSH1 0x2 DUP2 LT PUSH2 0x1502 JUMPI PUSH2 0x1501 PUSH2 0x2182 JUMP JUMPDEST JUMPDEST PUSH1 0x20 MUL ADD DUP3 DUP2 MSTORE POP DUP3 DUP2 MSTORE POP POP POP DUP10 PUSH0 PUSH1 0x2 DUP2 LT PUSH2 0x1523 JUMPI PUSH2 0x1522 PUSH2 0x2182 JUMP JUMPDEST JUMPDEST PUSH1 0x20 MUL ADD MLOAD DUP2 PUSH0 PUSH1 0x18 DUP2 LT PUSH2 0x153B JUMPI PUSH2 0x153A PUSH2 0x2182 JUMP JUMPDEST JUMPDEST PUSH1 0x20 MUL ADD DUP2 DUP2 MSTORE POP POP DUP10 PUSH1 0x1 PUSH1 0x2 DUP2 LT PUSH2 0x1558 JUMPI PUSH2 0x1557 PUSH2 0x2182 JUMP JUMPDEST JUMPDEST PUSH1 0x20 MUL ADD MLOAD DUP2 PUSH1 0x1 PUSH1 0x18 DUP2 LT PUSH2 0x1571 JUMPI PUSH2 0x1570 PUSH2 0x2182 JUMP JUMPDEST JUMPDEST PUSH1 0x20 MUL ADD DUP2 DUP2 MSTORE POP POP DUP9 PUSH0 PUSH1 0x2 DUP2 LT PUSH2 0x158D JUMPI PUSH2 0x158C PUSH2 0x2182 JUMP JUMPDEST JUMPDEST PUSH1 0x20 MUL ADD MLOAD PUSH0 PUSH1 0x2 DUP2 LT PUSH2 0x15A4 JUMPI PUSH2 0x15A3 PUSH2 0x2182 JUMP JUMPDEST JUMPDEST PUSH1 0x20 MUL ADD MLOAD DUP2 PUSH1 0x2 PUSH1 0x18 DUP2 LT PUSH2 0x15BD JUMPI PUSH2 0x15BC PUSH2 0x2182 JUMP JUMPDEST JUMPDEST PUSH1 0x20 MUL ADD DUP2 DUP2 MSTORE POP POP DUP9 PUSH0 PUSH1 0x2 DUP2 LT PUSH2 0x15D9 JUMPI PUSH2 0x15D8 PUSH2 0x2182 JUMP JUMPDEST JUMPDEST PUSH1 0x20 MUL ADD MLOAD PUSH1 0x1 PUSH1 0x2 DUP2 LT PUSH2 0x15F1 JUMPI PUSH2 0x15F0 PUSH2 0x2182 JUMP JUMPDEST JUMPDEST PUSH1 0x20 MUL ADD MLOAD DUP2 PUSH1 0x3 PUSH1 0x18 DUP2 LT PUSH2 0x160A JUMPI PUSH2 0x1609 PUSH2 0x2182 JUMP JUMPDEST JUMPDEST PUSH1 0x20 MUL ADD DUP2 DUP2 MSTORE POP POP DUP9 PUSH1 0x1 PUSH1 0x2 DUP2 LT PUSH2 0x1627 JUMPI PUSH2 0x1626 PUSH2 0x2182 JUMP JUMPDEST JUMPDEST PUSH1 0x20 MUL ADD MLOAD PUSH0 PUSH1 0x2 DUP2 LT PUSH2 0x163E JUMPI PUSH2 0x163D PUSH2 0x2182 JUMP JUMPDEST JUMPDEST PUSH1 0x20 MUL ADD MLOAD DUP2 PUSH1 0x4 PUSH1 0x18 DUP2 LT PUSH2 0x1657 JUMPI PUSH2 0x1656 PUSH2 0x2182 JUMP JUMPDEST JUMPDEST PUSH1 0x20 MUL ADD DUP2 DUP2 MSTORE POP POP DUP9 PUSH1 0x1 PUSH1 0x2 DUP2 LT PUSH2 0x1674 JUMPI PUSH2 0x1673 PUSH2 0x2182 JUMP JUMPDEST JUMPDEST PUSH1 0x20 MUL ADD MLOAD PUSH1 0x1 PUSH1 0x2 DUP2 LT PUSH2 0x168C JUMPI PUSH2 0x168B PUSH2 0x2182 JUMP JUMPDEST JUMPDEST PUSH1 0x20 MUL ADD MLOAD DUP2 PUSH1 0x5 PUSH1 0x18 DUP2 LT PUSH2 0x16A5 JUMPI PUSH2 0x16A4 PUSH2 0x2182 JUMP JUMPDEST JUMPDEST PUSH1 0x20 MUL ADD DUP2 DUP2 MSTORE POP POP DUP8 PUSH0 PUSH1 0x2 DUP2 LT PUSH2 0x16C1 JUMPI PUSH2 0x16C0 PUSH2 0x2182 JUMP JUMPDEST JUMPDEST PUSH1 0x20 MUL ADD MLOAD DUP2 PUSH1 0x6 PUSH1 0x18 DUP2 LT PUSH2 0x16DA JUMPI PUSH2 0x16D9 PUSH2 0x2182 JUMP JUMPDEST JUMPDEST PUSH1 0x20 MUL ADD DUP2 DUP2 MSTORE POP POP DUP8 PUSH1 0x1 PUSH1 0x2 DUP2 LT PUSH2 0x16F7 JUMPI PUSH2 0x16F6 PUSH2 0x2182 JUMP JUMPDEST JUMPDEST PUSH1 0x20 MUL ADD MLOAD DUP2 PUSH1 0x7 PUSH1 0x18 DUP2 LT PUSH2 0x1710 JUMPI PUSH2 0x170F PUSH2 0x2182 JUMP JUMPDEST JUMPDEST PUSH1 0x20 MUL ADD DUP2 DUP2 MSTORE POP POP DUP7 PUSH0 PUSH1 0x2 DUP2 LT PUSH2 0x172C JUMPI PUSH2 0x172B PUSH2 0x2182 JUMP JUMPDEST JUMPDEST PUSH1 0x20 MUL ADD MLOAD DUP2 PUSH1 0x8 PUSH1 0x18 DUP2 LT PUSH2 0x1745 JUMPI PUSH2 0x1744 PUSH2 0x2182 JUMP JUMPDEST JUMPDEST PUSH1 0x20 MUL ADD DUP2 DUP2 MSTORE POP POP DUP7 PUSH1 0x1 PUSH1 0x2 DUP2 LT PUSH2 0x1762 JUMPI PUSH2 0x1761 PUSH2 0x2182 JUMP JUMPDEST JUMPDEST PUSH1 0x20 MUL ADD MLOAD DUP2 PUSH1 0x9 PUSH1 0x18 DUP2 LT PUSH2 0x177B JUMPI PUSH2 0x177A PUSH2 0x2182 JUMP JUMPDEST JUMPDEST PUSH1 0x20 MUL ADD DUP2 DUP2 MSTORE POP POP DUP7 PUSH0 PUSH1 0x2 DUP2 LT PUSH2 0x1797 JUMPI PUSH2 0x1796 PUSH2 0x2182 JUMP JUMPDEST JUMPDEST PUSH1 0x20 MUL ADD MLOAD DUP2 PUSH1 0xA PUSH1 0x18 DUP2 LT PUSH2 0x17B0 JUMPI PUSH2 0x17AF PUSH2 0x2182 JUMP JUMPDEST JUMPDEST PUSH1 0x20 MUL ADD DUP2 DUP2 MSTORE POP POP DUP7 PUSH1 0x1 PUSH1 0x2 DUP2 LT PUSH2 0x17CD JUMPI PUSH2 0x17CC PUSH2 0x2182 JUMP JUMPDEST JUMPDEST PUSH1 0x20 MUL ADD MLOAD DUP2 PUSH1 0xB PUSH1 0x18 DUP2 LT PUSH2 0x17E6 JUMPI PUSH2 0x17E5 PUSH2 0x2182 JUMP JUMPDEST JUMPDEST PUSH1 0x20 MUL ADD DUP2 DUP2 MSTORE POP POP DUP6 PUSH0 PUSH1 0x2 DUP2 LT PUSH2 0x1802 JUMPI PUSH2 0x1801 PUSH2 0x2182 JUMP JUMPDEST JUMPDEST PUSH1 0x20 MUL ADD MLOAD DUP2 PUSH1 0xC PUSH1 0x18 DUP2 LT PUSH2 0x181B JUMPI PUSH2 0x181A PUSH2 0x2182 JUMP JUMPDEST JUMPDEST PUSH1 0x20 MUL ADD DUP2 DUP2 MSTORE POP POP DUP6 PUSH1 0x1 PUSH1 0x2 DUP2 LT PUSH2 0x1838 JUMPI PUSH2 0x1837 PUSH2 0x2182 JUMP JUMPDEST JUMPDEST PUSH1 0x20 MUL ADD MLOAD DUP2 PUSH1 0xD PUSH1 0x18 DUP2 LT PUSH2 0x1851 JUMPI PUSH2 0x1850 PUSH2 0x2182 JUMP JUMPDEST JUMPDEST PUSH1 0x20 MUL ADD DUP2 DUP2 MSTORE POP POP DUP5 PUSH0 PUSH1 0x2 DUP2 LT PUSH2 0x186D JUMPI PUSH2 0x186C PUSH2 0x2182 JUMP JUMPDEST JUMPDEST PUSH1 0x20 MUL ADD MLOAD DUP2 PUSH1 0xE PUSH1 0x18 DUP2 LT PUSH2 0x1886 JUMPI PUSH2 0x1885 PUSH2 0x2182 JUMP JUMPDEST JUMPDEST PUSH1 0x20 MUL ADD DUP2 DUP2 MSTORE POP POP DUP5 PUSH1 0x1 PUSH1 0x2 DUP2 LT PUSH2 0x18A3 JUMPI PUSH2 0x18A2 PUSH2 0x2182 JUMP JUMPDEST JUMPDEST PUSH1 0x20 MUL ADD MLOAD DUP2 PUSH1 0xF PUSH1 0x18 DUP2 LT PUSH2 0x18BC JUMPI PUSH2 0x18BB PUSH2 0x2182 JUMP JUMPDEST JUMPDEST PUSH1 0x20 MUL ADD DUP2 DUP2 MSTORE POP POP DUP5 PUSH0 PUSH1 0x2 DUP2 LT PUSH2 0x18D8 JUMPI PUSH2 0x18D7 PUSH2 0x2182 JUMP JUMPDEST JUMPDEST PUSH1 0x20 MUL ADD MLOAD DUP2 PUSH1 0x10 PUSH1 0x18 DUP2 LT PUSH2 0x18F1 JUMPI PUSH2 0x18F0 PUSH2 0x2182 JUMP JUMPDEST JUMPDEST PUSH1 0x20 MUL ADD DUP2 DUP2 MSTORE POP POP DUP5 PUSH1 0x1 PUSH1 0x2 DUP2 LT PUSH2 0x190E JUMPI PUSH2 0x190D PUSH2 0x2182 JUMP JUMPDEST JUMPDEST PUSH1 0x20 MUL ADD MLOAD DUP2 PUSH1 0x11 PUSH1 0x18 DUP2 LT PUSH2 0x1927 JUMPI PUSH2 0x1926 PUSH2 0x2182 JUMP JUMPDEST JUMPDEST PUSH1 0x20 MUL ADD DUP2 DUP2 MSTORE POP POP DUP4 PUSH0 PUSH1 0x2 DUP2 LT PUSH2 0x1943 JUMPI PUSH2 0x1942 PUSH2 0x2182 JUMP JUMPDEST JUMPDEST PUSH1 0x20 MUL ADD MLOAD DUP2 PUSH1 0x12 PUSH1 0x18 DUP2 LT PUSH2 0x195C JUMPI PUSH2 0x195B PUSH2 0x2182 JUMP JUMPDEST JUMPDEST PUSH1 0x20 MUL ADD DUP2 DUP2 MSTORE POP POP DUP4 PUSH1 0x1 PUSH1 0x2 DUP2 LT PUSH2 0x1979 JUMPI PUSH2 0x1978 PUSH2 0x2182 JUMP JUMPDEST JUMPDEST PUSH1 0x20 MUL ADD MLOAD DUP2 PUSH1 0x13 PUSH1 0x18 DUP2 LT PUSH2 0x1992 JUMPI PUSH2 0x1991 PUSH2 0x2182 JUMP JUMPDEST JUMPDEST PUSH1 0x20 MUL ADD DUP2 DUP2 MSTORE POP POP DUP3 PUSH0 PUSH1 0x2 DUP2 LT PUSH2 0x19AE JUMPI PUSH2 0x19AD PUSH2 0x2182 JUMP JUMPDEST JUMPDEST PUSH1 0x20 MUL ADD MLOAD DUP2 PUSH1 0x14 PUSH1 0x18 DUP2 LT PUSH2 0x19C7 JUMPI PUSH2 0x19C6 PUSH2 0x2182 JUMP JUMPDEST JUMPDEST PUSH1 0x20 MUL ADD DUP2 DUP2 MSTORE POP POP DUP3 PUSH1 0x1 PUSH1 0x2 DUP2 LT PUSH2 0x19E4 JUMPI PUSH2 0x19E3 PUSH2 0x2182 JUMP JUMPDEST JUMPDEST PUSH1 0x20 MUL ADD MLOAD DUP2 PUSH1 0x15 PUSH1 0x18 DUP2 LT PUSH2 0x19FD JUMPI PUSH2 0x19FC PUSH2 0x2182 JUMP JUMPDEST JUMPDEST PUSH1 0x20 MUL ADD DUP2 DUP2 MSTORE POP POP DUP3 PUSH0 PUSH1 0x2 DUP2 LT PUSH2 0x1A19 JUMPI PUSH2 0x1A18 PUSH2 0x2182 JUMP JUMPDEST JUMPDEST PUSH1 0x20 MUL ADD MLOAD DUP2 PUSH1 0x16 PUSH1 0x18 DUP2 LT PUSH2 0x1A32 JUMPI PUSH2 0x1A31 PUSH2 0x2182 JUMP JUMPDEST JUMPDEST PUSH1 0x20 MUL ADD DUP2 DUP2 MSTORE POP POP DUP3 PUSH1 0x1 PUSH1 0x2 DUP2 LT PUSH2 0x1A4F JUMPI PUSH2 0x1A4E PUSH2 0x2182 JUMP JUMPDEST JUMPDEST PUSH1 0x20 MUL ADD MLOAD DUP2 PUSH1 0x17 PUSH1 0x18 DUP2 LT PUSH2 0x1A68 JUMPI PUSH2 0x1A67 PUSH2 0x2182 JUMP JUMPDEST JUMPDEST PUSH1 0x20 MUL ADD DUP2 DUP2 MSTORE POP POP PUSH2 0x1A79 PUSH2 0x1BC7 JUMP JUMPDEST PUSH0 PUSH1 0x20 DUP3 PUSH2 0x180 DUP6 PUSH1 0x8 GAS STATICCALL SWAP1 POP DUP1 PUSH2 0x1AC7 JUMPI PUSH1 0x40 MLOAD PUSH32 0x8C379A000000000000000000000000000000000000000000000000000000000 DUP2 MSTORE PUSH1 0x4 ADD PUSH2 0x1ABE SWAP1 PUSH2 0x26A5 JUMP JUMPDEST PUSH1 0x40 MLOAD DUP1 SWAP2 SUB SWAP1 REVERT JUMPDEST PUSH1 0x1 DUP3 PUSH0 PUSH1 0x1 DUP2 LT PUSH2 0x1ADC JUMPI PUSH2 0x1ADB PUSH2 0x2182 JUMP JUMPDEST JUMPDEST PUSH1 0x20 MUL ADD MLOAD EQ SWAP4 POP POP POP POP SWAP9 SWAP8 POP POP POP POP POP POP POP POP JUMP JUMPDEST PUSH0 CALLER SWAP1 POP SWAP1 JUMP JUMPDEST PUSH2 0x1B02 PUSH2 0x5FB JUMP JUMPDEST PUSH2 0x1B38 JUMPI PUSH1 0x40 MLOAD PUSH32 0x8DFC202B00000000000000000000000000000000000000000000000000000000 DUP2 MSTORE PUSH1 0x4 ADD PUSH1 0x40 MLOAD DUP1 SWAP2 SUB SWAP1 REVERT JUMPDEST JUMP JUMPDEST PUSH0 DUP1 PUSH0 PUSH32 0x30644E72E131A029B85045B68181585D97816A916871CA8D3C208C16D87CFD47 SWAP1 POP PUSH0 DUP6 EQ DUP1 ISZERO PUSH2 0x1B6E JUMPI POP PUSH0 DUP5 EQ JUMPDEST ISZERO PUSH2 0x1B7F JUMPI PUSH0 DUP1 SWAP3 POP SWAP3 POP POP PUSH2 0x1B9D JUMP JUMPDEST DUP5 DUP2 DUP6 PUSH2 0x1B8C SWAP2 SWAP1 PUSH2 0x26F0 JUMP JUMPDEST DUP3 PUSH2 0x1B97 SWAP2 SWAP1 PUSH2 0x2720 JUMP JUMPDEST SWAP3 POP SWAP3 POP POP JUMPDEST SWAP3 POP SWAP3 SWAP1 POP JUMP JUMPDEST PUSH1 0x40 MLOAD DUP1 PUSH2 0x300 ADD PUSH1 0x40 MSTORE DUP1 PUSH1 0x18 SWAP1 PUSH1 0x20 DUP3 MUL DUP1 CALLDATASIZE DUP4 CALLDATACOPY DUP1 DUP3 ADD SWAP2 POP POP SWAP1 POP POP SWAP1 JUMP JUMPDEST PUSH1 0x40 MLOAD DUP1 PUSH1 0x20 ADD PUSH1 0x40 MSTORE DUP1 PUSH1 0x1 SWAP1 PUSH1 0x20 DUP3 MUL DUP1 CALLDATASIZE DUP4 CALLDATACOPY DUP1 DUP3 ADD SWAP2 POP POP SWAP1 POP POP SWAP1 JUMP JUMPDEST PUSH0 DUP1 REVERT JUMPDEST PUSH0 DUP1 REVERT JUMPDEST PUSH0 DUP2 SWAP1 POP SWAP2 SWAP1 POP JUMP JUMPDEST PUSH2 0x1C03 DUP2 PUSH2 0x1BF1 JUMP JUMPDEST DUP2 EQ PUSH2 0x1C0D JUMPI PUSH0 DUP1 REVERT JUMPDEST POP JUMP JUMPDEST PUSH0 DUP2 CALLDATALOAD SWAP1 POP PUSH2 0x1C1E DUP2 PUSH2 0x1BFA JUMP JUMPDEST SWAP3 SWAP2 POP POP JUMP JUMPDEST PUSH0 PUSH1 0x20 DUP3 DUP5 SUB SLT ISZERO PUSH2 0x1C39 JUMPI PUSH2 0x1C38 PUSH2 0x1BE9 JUMP JUMPDEST JUMPDEST PUSH0 PUSH2 0x1C46 DUP5 DUP3 DUP6 ADD PUSH2 0x1C10 JUMP JUMPDEST SWAP2 POP POP SWAP3 SWAP2 POP POP JUMP JUMPDEST PUSH2 0x1C58 DUP2 PUSH2 0x1BF1 JUMP JUMPDEST DUP3 MSTORE POP POP JUMP JUMPDEST PUSH0 PUSH1 0x20 DUP3 ADD SWAP1 POP PUSH2 0x1C71 PUSH0 DUP4 ADD DUP5 PUSH2 0x1C4F JUMP JUMPDEST SWAP3 SWAP2 POP POP JUMP JUMPDEST PUSH0 DUP1 REVERT JUMPDEST PUSH0 DUP2 SWAP1 POP DUP3 PUSH1 0x20 PUSH1 0x8 MUL DUP3 ADD GT ISZERO PUSH2 0x1C96 JUMPI PUSH2 0x1C95 PUSH2 0x1C77 JUMP JUMPDEST JUMPDEST SWAP3 SWAP2 POP POP JUMP JUMPDEST PUSH0 DUP2 SWAP1 POP DUP3 PUSH1 0x20 PUSH1 0x1 MUL DUP3 ADD GT ISZERO PUSH2 0x1CB7 JUMPI PUSH2 0x1CB6 PUSH2 0x1C77 JUMP JUMPDEST JUMPDEST SWAP3 SWAP2 POP POP JUMP JUMPDEST PUSH0 DUP1 PUSH2 0x120 DUP4 DUP6 SUB SLT ISZERO PUSH2 0x1CD4 JUMPI PUSH2 0x1CD3 PUSH2 0x1BE9 JUMP JUMPDEST JUMPDEST PUSH0 PUSH2 0x1CE1 DUP6 DUP3 DUP7 ADD PUSH2 0x1C7B JUMP JUMPDEST SWAP3 POP POP PUSH2 0x100 PUSH2 0x1CF3 DUP6 DUP3 DUP7 ADD PUSH2 0x1C9C JUMP JUMPDEST SWAP2 POP POP SWAP3 POP SWAP3 SWAP1 POP JUMP JUMPDEST PUSH0 DUP2 ISZERO ISZERO SWAP1 POP SWAP2 SWAP1 POP JUMP JUMPDEST PUSH2 0x1D11 DUP2 PUSH2 0x1CFD JUMP JUMPDEST DUP3 MSTORE POP POP JUMP JUMPDEST PUSH0 PUSH1 0x20 DUP3 ADD SWAP1 POP PUSH2 0x1D2A PUSH0 DUP4 ADD DUP5 PUSH2 0x1D08 JUMP JUMPDEST SWAP3 SWAP2 POP POP JUMP JUMPDEST PUSH0 PUSH20 0xFFFFFFFFFFFFFFFFFFFFFFFFFFFFFFFFFFFFFFFF DUP3 AND SWAP1 POP SWAP2 SWAP1 POP JUMP JUMPDEST PUSH0 PUSH2 0x1D59 DUP3 PUSH2 0x1D30 JUMP JUMPDEST SWAP1 POP SWAP2 SWAP1 POP JUMP JUMPDEST PUSH2 0x1D69 DUP2 PUSH2 0x1D4F JUMP JUMPDEST DUP2 EQ PUSH2 0x1D73 JUMPI PUSH0 DUP1 REVERT JUMPDEST POP JUMP JUMPDEST PUSH0 DUP2 CALLDATALOAD SWAP1 POP PUSH2 0x1D84 DUP2 PUSH2 0x1D60 JUMP JUMPDEST SWAP3 SWAP2 POP POP JUMP JUMPDEST PUSH0 DUP2 SWAP1 POP SWAP2 SWAP1 POP JUMP JUMPDEST PUSH2 0x1D9C DUP2 PUSH2 0x1D8A JUMP JUMPDEST DUP2 EQ PUSH2 0x1DA6 JUMPI PUSH0 DUP1 REVERT JUMPDEST POP JUMP JUMPDEST PUSH0 DUP2 CALLDATALOAD SWAP1 POP PUSH2 0x1DB7 DUP2 PUSH2 0x1D93 JUMP JUMPDEST SWAP3 SWAP2 POP POP JUMP JUMPDEST PUSH0 DUP1 PUSH1 0x40 DUP4 DUP6 SUB SLT ISZERO PUSH2 0x1DD3 JUMPI PUSH2 0x1DD2 PUSH2 0x1BE9 JUMP JUMPDEST JUMPDEST PUSH0 PUSH2 0x1DE0 DUP6 DUP3 DUP7 ADD PUSH2 0x1D76 JUMP JUMPDEST SWAP3 POP POP PUSH1 0x20 PUSH2 0x1DF1 DUP6 DUP3 DUP7 ADD PUSH2 0x1DA9 JUMP JUMPDEST SWAP2 POP POP SWAP3 POP SWAP3 SWAP1 POP JUMP JUMPDEST PUSH0 DUP2 SWAP1 POP SWAP2 SWAP1 POP JUMP JUMPDEST PUSH0 PUSH2 0x1E1E PUSH2 0x1E19 PUSH2 0x1E14 DUP5 PUSH2 0x1D30 JUMP JUMPDEST PUSH2 0x1DFB JUMP JUMPDEST PUSH2 0x1D30 JUMP JUMPDEST SWAP1 POP SWAP2 SWAP1 POP JUMP JUMPDEST PUSH0 PUSH2 0x1E2F DUP3 PUSH2 0x1E04 JUMP JUMPDEST SWAP1 POP SWAP2 SWAP1 POP JUMP JUMPDEST PUSH0 PUSH2 0x1E40 DUP3 PUSH2 0x1E25 JUMP JUMPDEST SWAP1 POP SWAP2 SWAP1 POP JUMP JUMPDEST PUSH2 0x1E50 DUP2 PUSH2 0x1E36 JUMP JUMPDEST DUP3 MSTORE POP POP JUMP JUMPDEST PUSH0 PUSH1 0x20 DUP3 ADD SWAP1 POP PUSH2 0x1E69 PUSH0 DUP4 ADD DUP5 PUSH2 0x1E47 JUMP JUMPDEST SWAP3 SWAP2 POP POP JUMP JUMPDEST PUSH0 PUSH1 0x20 DUP3 DUP5 SUB SLT ISZERO PUSH2 0x1E84 JUMPI PUSH2 0x1E83 PUSH2 0x1BE9 JUMP JUMPDEST JUMPDEST PUSH0 PUSH2 0x1E91 DUP5 DUP3 DUP6 ADD PUSH2 0x1DA9 JUMP JUMPDEST SWAP2 POP POP SWAP3 SWAP2 POP POP JUMP JUMPDEST PUSH2 0x1EA3 DUP2 PUSH2 0x1D4F JUMP JUMPDEST DUP3 MSTORE POP POP JUMP JUMPDEST PUSH0 PUSH1 0x20 DUP3 ADD SWAP1 POP PUSH2 0x1EBC PUSH0 DUP4 ADD DUP5 PUSH2 0x1E9A JUMP JUMPDEST SWAP3 SWAP2 POP POP JUMP JUMPDEST PUSH0 DUP2 SWAP1 POP DUP3 PUSH1 0x20 PUSH1 0x2 MUL DUP3 ADD GT ISZERO PUSH2 0x1EDD JUMPI PUSH2 0x1EDC PUSH2 0x1C77 JUMP JUMPDEST JUMPDEST SWAP3 SWAP2 POP POP JUMP JUMPDEST PUSH0 DUP2 SWAP1 POP DUP3 PUSH1 0x40 PUSH1 0x2 MUL DUP3 ADD GT ISZERO PUSH2 0x1EFE JUMPI PUSH2 0x1EFD PUSH2 0x1C77 JUMP JUMPDEST JUMPDEST SWAP3 SWAP2 POP POP JUMP JUMPDEST PUSH0 DUP1 REVERT JUMPDEST PUSH0 DUP1 REVERT JUMPDEST PUSH0 DUP1 DUP4 PUSH1 0x1F DUP5 ADD SLT PUSH2 0x1F21 JUMPI PUSH2 0x1F20 PUSH2 0x1F04 JUMP JUMPDEST JUMPDEST DUP3 CALLDATALOAD SWAP1 POP PUSH8 0xFFFFFFFFFFFFFFFF DUP2 GT ISZERO PUSH2 0x1F3E JUMPI PUSH2 0x1F3D PUSH2 0x1F08 JUMP JUMPDEST JUMPDEST PUSH1 0x20 DUP4 ADD SWAP2 POP DUP4 PUSH1 0x40 DUP3 MUL DUP4 ADD GT ISZERO PUSH2 0x1F5A JUMPI PUSH2 0x1F59 PUSH2 0x1C77 JUMP JUMPDEST JUMPDEST SWAP3 POP SWAP3 SWAP1 POP JUMP JUMPDEST PUSH0 DUP1 PUSH0 DUP1 PUSH0 DUP1 PUSH2 0x160 DUP8 DUP10 SUB SLT ISZERO PUSH2 0x1F7C JUMPI PUSH2 0x1F7B PUSH2 0x1BE9 JUMP JUMPDEST JUMPDEST PUSH0 PUSH2 0x1F89 DUP10 DUP3 DUP11 ADD PUSH2 0x1EC2 JUMP JUMPDEST SWAP7 POP POP PUSH1 0x40 PUSH2 0x1F9A DUP10 DUP3 DUP11 ADD PUSH2 0x1EE3 JUMP JUMPDEST SWAP6 POP POP PUSH1 0xC0 PUSH2 0x1FAB DUP10 DUP3 DUP11 ADD PUSH2 0x1EC2 JUMP JUMPDEST SWAP5 POP POP PUSH2 0x100 PUSH2 0x1FBD DUP10 DUP3 DUP11 ADD PUSH2 0x1EC2 JUMP JUMPDEST SWAP4 POP POP PUSH2 0x140 DUP8 ADD CALLDATALOAD PUSH8 0xFFFFFFFFFFFFFFFF DUP2 GT ISZERO PUSH2 0x1FDF JUMPI PUSH2 0x1FDE PUSH2 0x1BED JUMP JUMPDEST JUMPDEST PUSH2 0x1FEB DUP10 DUP3 DUP11 ADD PUSH2 0x1F0C JUMP JUMPDEST SWAP3 POP SWAP3 POP POP SWAP3 SWAP6 POP SWAP3 SWAP6 POP SWAP3 SWAP6 JUMP JUMPDEST PUSH2 0x2003 DUP2 PUSH2 0x1D8A JUMP JUMPDEST DUP3 MSTORE POP POP JUMP JUMPDEST PUSH0 PUSH1 0xE0 DUP3 ADD SWAP1 POP PUSH2 0x201C PUSH0 DUP4 ADD DUP11 PUSH2 0x1FFA JUMP JUMPDEST PUSH2 0x2029 PUSH1 0x20 DUP4 ADD DUP10 PUSH2 0x1FFA JUMP JUMPDEST PUSH2 0x2036 PUSH1 0x40 DUP4 ADD DUP9 PUSH2 0x1C4F JUMP JUMPDEST PUSH2 0x2043 PUSH1 0x60 DUP4 ADD DUP8 PUSH2 0x1E9A JUMP JUMPDEST PUSH2 0x2050 PUSH1 0x80 DUP4 ADD DUP7 PUSH2 0x1D08 JUMP JUMPDEST PUSH2 0x205D PUSH1 0xA0 DUP4 ADD DUP6 PUSH2 0x1FFA JUMP JUMPDEST PUSH2 0x206A PUSH1 0xC0 DUP4 ADD DUP5 PUSH2 0x1C4F JUMP JUMPDEST SWAP9 SWAP8 POP POP POP POP POP POP POP POP JUMP JUMPDEST PUSH0 DUP1 PUSH1 0x40 DUP4 DUP6 SUB SLT ISZERO PUSH2 0x208C JUMPI PUSH2 0x208B PUSH2 0x1BE9 JUMP JUMPDEST JUMPDEST PUSH0 PUSH2 0x2099 DUP6 DUP3 DUP7 ADD PUSH2 0x1DA9 JUMP JUMPDEST SWAP3 POP POP PUSH1 0x20 PUSH2 0x20AA DUP6 DUP3 DUP7 ADD PUSH2 0x1DA9 JUMP JUMPDEST SWAP2 POP POP SWAP3 POP SWAP3 SWAP1 POP JUMP JUMPDEST PUSH0 DUP1 PUSH1 0x40 DUP4 DUP6 SUB SLT ISZERO PUSH2 0x20CA JUMPI PUSH2 0x20C9 PUSH2 0x1BE9 JUMP JUMPDEST JUMPDEST PUSH0 PUSH2 0x20D7 DUP6 DUP3 DUP7 ADD PUSH2 0x1C10 JUMP JUMPDEST SWAP3 POP POP PUSH1 0x20 PUSH2 0x20E8 DUP6 DUP3 DUP7 ADD PUSH2 0x1C10 JUMP JUMPDEST SWAP2 POP POP SWAP3 POP SWAP3 SWAP1 POP JUMP JUMPDEST PUSH0 DUP1 PUSH0 DUP1 PUSH2 0x160 DUP6 DUP8 SUB SLT ISZERO PUSH2 0x210B JUMPI PUSH2 0x210A PUSH2 0x1BE9 JUMP JUMPDEST JUMPDEST PUSH0 PUSH2 0x2118 DUP8 DUP3 DUP9 ADD PUSH2 0x1DA9 JUMP JUMPDEST SWAP5 POP POP PUSH1 0x20 PUSH2 0x2129 DUP8 DUP3 DUP9 ADD PUSH2 0x1DA9 JUMP JUMPDEST SWAP4 POP POP PUSH1 0x40 PUSH2 0x213A DUP8 DUP3 DUP9 ADD PUSH2 0x1C10 JUMP JUMPDEST SWAP3 POP POP PUSH1 0x60 PUSH2 0x214B DUP8 DUP3 DUP9 ADD PUSH2 0x1C7B JUMP JUMPDEST SWAP2 POP POP SWAP3 SWAP6 SWAP2 SWAP5 POP SWAP3 POP JUMP JUMPDEST PUSH0 PUSH1 0x20 DUP3 DUP5 SUB SLT ISZERO PUSH2 0x216C JUMPI PUSH2 0x216B PUSH2 0x1BE9 JUMP JUMPDEST JUMPDEST PUSH0 PUSH2 0x2179 DUP5 DUP3 DUP6 ADD PUSH2 0x1D76 JUMP JUMPDEST SWAP2 POP POP SWAP3 SWAP2 POP POP JUMP JUMPDEST PUSH32 0x4E487B7100000000000000000000000000000000000000000000000000000000 PUSH0 MSTORE PUSH1 0x32 PUSH1 0x4 MSTORE PUSH1 0x24 PUSH0 REVERT JUMPDEST PUSH0 DUP3 DUP3 MSTORE PUSH1 0x20 DUP3 ADD SWAP1 POP SWAP3 SWAP2 POP POP JUMP JUMPDEST PUSH32 0x496E76616C6964204943206C656E677468000000000000000000000000000000 PUSH0 DUP3 ADD MSTORE POP JUMP JUMPDEST PUSH0 PUSH2 0x21F3 PUSH1 0x11 DUP4 PUSH2 0x21AF JUMP JUMPDEST SWAP2 POP PUSH2 0x21FE DUP3 PUSH2 0x21BF JUMP JUMPDEST PUSH1 0x20 DUP3 ADD SWAP1 POP SWAP2 SWAP1 POP JUMP JUMPDEST PUSH0 PUSH1 0x20 DUP3 ADD SWAP1 POP DUP2 DUP2 SUB PUSH0 DUP4 ADD MSTORE PUSH2 0x2220 DUP2 PUSH2 0x21E7 JUMP JUMPDEST SWAP1 POP SWAP2 SWAP1 POP JUMP JUMPDEST PUSH32 0x496E76616C696420636F6D6D69746D656E740000000000000000000000000000 PUSH0 DUP3 ADD MSTORE POP JUMP JUMPDEST PUSH0 PUSH2 0x225B PUSH1 0x12 DUP4 PUSH2 0x21AF JUMP JUMPDEST SWAP2 POP PUSH2 0x2266 DUP3 PUSH2 0x2227 JUMP JUMPDEST PUSH1 0x20 DUP3 ADD SWAP1 POP SWAP2 SWAP1 POP JUMP JUMPDEST PUSH0 PUSH1 0x20 DUP3 ADD SWAP1 POP DUP2 DUP2 SUB PUSH0 DUP4 ADD MSTORE PUSH2 0x2288 DUP2 PUSH2 0x224F JUMP JUMPDEST SWAP1 POP SWAP2 SWAP1 POP JUMP JUMPDEST PUSH32 0x46696C6520616C72656164792065786973747300000000000000000000000000 PUSH0 DUP3 ADD MSTORE POP JUMP JUMPDEST PUSH0 PUSH2 0x22C3 PUSH1 0x13 DUP4 PUSH2 0x21AF JUMP JUMPDEST SWAP2 POP PUSH2 0x22CE DUP3 PUSH2 0x228F JUMP JUMPDEST PUSH1 0x20 DUP3 ADD SWAP1 POP SWAP2 SWAP1 POP JUMP JUMPDEST PUSH0 PUSH1 0x20 DUP3 ADD SWAP1 POP DUP2 DUP2 SUB PUSH0 DUP4 ADD MSTORE PUSH2 0x22F0 DUP2 PUSH2 0x22B7 JUMP JUMPDEST SWAP1 POP SWAP2 SWAP1 POP JUMP JUMPDEST PUSH0 PUSH1 0x40 DUP3 ADD SWAP1 POP PUSH2 0x230A PUSH0 DUP4 ADD DUP6 PUSH2 0x1FFA JUMP JUMPDEST PUSH2 0x2317 PUSH1 0x20 DUP4 ADD DUP5 PUSH2 0x1FFA JUMP JUMPDEST SWAP4 SWAP3 POP POP POP JUMP JUMPDEST PUSH2 0x2327 DUP2 PUSH2 0x1CFD JUMP JUMPDEST DUP2 EQ PUSH2 0x2331 JUMPI PUSH0 DUP1 REVERT JUMPDEST POP JUMP JUMPDEST PUSH0 DUP2 MLOAD SWAP1 POP PUSH2 0x2342 DUP2 PUSH2 0x231E JUMP JUMPDEST SWAP3 SWAP2 POP POP JUMP JUMPDEST PUSH0 PUSH1 0x20 DUP3 DUP5 SUB SLT ISZERO PUSH2 0x235D JUMPI PUSH2 0x235C PUSH2 0x1BE9 JUMP JUMPDEST JUMPDEST PUSH0 PUSH2 0x236A DUP5 DUP3 DUP6 ADD PUSH2 0x2334 JUMP JUMPDEST SWAP2 POP POP SWAP3 SWAP2 POP POP JUMP JUMPDEST PUSH32 0x426974546F7272656E7420726567697374726174696F6E206661696C65640000 PUSH0 DUP3 ADD MSTORE POP JUMP JUMPDEST PUSH0 PUSH2 0x23A7 PUSH1 0x1E DUP4 PUSH2 0x21AF JUMP JUMPDEST SWAP2 POP PUSH2 0x23B2 DUP3 PUSH2 0x2373 JUMP JUMPDEST PUSH1 0x20 DUP3 ADD SWAP1 POP SWAP2 SWAP1 POP JUMP JUMPDEST PUSH0 PUSH1 0x20 DUP3 ADD SWAP1 POP DUP2 DUP2 SUB PUSH0 DUP4 ADD MSTORE PUSH2 0x23D4 DUP2 PUSH2 0x239B JUMP JUMPDEST SWAP1 POP SWAP2 SWAP1 POP JUMP JUMPDEST DUP3 DUP2 DUP4 CALLDATACOPY POP POP POP JUMP JUMPDEST PUSH2 0x23F1 PUSH2 0x100 DUP4 DUP4 PUSH2 0x23DB JUMP JUMPDEST POP POP JUMP JUMPDEST PUSH0 PUSH1 0x1 SWAP1 POP SWAP2 SWAP1 POP JUMP JUMPDEST PUSH0 DUP2 SWAP1 POP SWAP3 SWAP2 POP POP JUMP JUMPDEST PUSH0 DUP2 SWAP1 POP SWAP2 SWAP1 POP JUMP JUMPDEST PUSH2 0x241B DUP2 PUSH2 0x1BF1 JUMP JUMPDEST DUP3 MSTORE POP POP JUMP JUMPDEST PUSH0 PUSH2 0x242C DUP4 DUP4 PUSH2 0x2412 JUMP JUMPDEST PUSH1 0x20 DUP4 ADD SWAP1 POP SWAP3 SWAP2 POP POP JUMP JUMPDEST PUSH0 PUSH1 0x20 DUP3 ADD SWAP1 POP SWAP2 SWAP1 POP JUMP JUMPDEST PUSH2 0x244D DUP2 PUSH2 0x23F5 JUMP JUMPDEST PUSH2 0x2457 DUP2 DUP5 PUSH2 0x23FF JUMP JUMPDEST SWAP3 POP PUSH2 0x2462 DUP3 PUSH2 0x2409 JUMP JUMPDEST DUP1 PUSH0 JUMPDEST DUP4 DUP2 LT ISZERO PUSH2 0x2492 JUMPI DUP2 MLOAD PUSH2 0x2479 DUP8 DUP3 PUSH2 0x2421 JUMP JUMPDEST SWAP7 POP PUSH2 0x2484 DUP4 PUSH2 0x2438 JUMP JUMPDEST SWAP3 POP POP PUSH1 0x1 DUP2 ADD SWAP1 POP PUSH2 0x2465 JUMP JUMPDEST POP POP POP POP POP POP JUMP JUMPDEST PUSH0 PUSH2 0x120 DUP3 ADD SWAP1 POP PUSH2 0x24AE PUSH0 DUP4 ADD DUP6 PUSH2 0x23E4 JUMP JUMPDEST PUSH2 0x24BC PUSH2 0x100 DUP4 ADD DUP5 PUSH2 0x2444 JUMP JUMPDEST SWAP4 SWAP3 POP POP POP JUMP JUMPDEST PUSH32 0x496E76616C69642066696C652070726F6F660000000000000000000000000000 PUSH0 DUP3 ADD MSTORE POP JUMP JUMPDEST PUSH0 PUSH2 0x24F7 PUSH1 0x12 DUP4 PUSH2 0x21AF JUMP JUMPDEST SWAP2 POP PUSH2 0x2502 DUP3 PUSH2 0x24C3 JUMP JUMPDEST PUSH1 0x20 DUP3 ADD SWAP1 POP SWAP2 SWAP1 POP JUMP JUMPDEST PUSH0 PUSH1 0x20 DUP3 ADD SWAP1 POP DUP2 DUP2 SUB PUSH0 DUP4 ADD MSTORE PUSH2 0x2524 DUP2 PUSH2 0x24EB JUMP JUMPDEST SWAP1 POP SWAP2 SWAP1 POP JUMP JUMPDEST PUSH0 PUSH1 0x40 DUP3 ADD SWAP1 POP PUSH2 0x253E PUSH0 DUP4 ADD DUP6 PUSH2 0x1C4F JUMP JUMPDEST PUSH2 0x254B PUSH1 0x20 DUP4 ADD DUP5 PUSH2 0x1C4F JUMP JUMPDEST SWAP4 SWAP3 POP POP POP JUMP JUMPDEST PUSH32 0x4E487B7100000000000000000000000000000000000000000000000000000000 PUSH0 MSTORE PUSH1 0x11 PUSH1 0x4 MSTORE PUSH1 0x24 PUSH0 REVERT JUMPDEST PUSH0 PUSH2 0x2589 DUP3 PUSH2 0x1BF1 JUMP JUMPDEST SWAP2 POP PUSH2 0x2594 DUP4 PUSH2 0x1BF1 JUMP JUMPDEST SWAP3 POP DUP3 DUP3 ADD SWAP1 POP DUP1 DUP3 GT ISZERO PUSH2 0x25AC JUMPI PUSH2 0x25AB PUSH2 0x2552 JUMP JUMPDEST JUMPDEST SWAP3 SWAP2 POP POP JUMP JUMPDEST PUSH32 0x496E76616C696420696E707574206C656E677468000000000000000000000000 PUSH0 DUP3 ADD MSTORE POP JUMP JUMPDEST PUSH0 PUSH2 0x25E6 PUSH1 0x14 DUP4 PUSH2 0x21AF JUMP JUMPDEST SWAP2 POP PUSH2 0x25F1 DUP3 PUSH2 0x25B2 JUMP JUMPDEST PUSH1 0x20 DUP3 ADD SWAP1 POP SWAP2 SWAP1 POP JUMP JUMPDEST PUSH0 PUSH1 0x20 DUP3 ADD SWAP1 POP DUP2 DUP2 SUB PUSH0 DUP4 ADD MSTORE PUSH2 0x2613 DUP2 PUSH2 0x25DA JUMP JUMPDEST SWAP1 POP SWAP2 SWAP1 POP JUMP JUMPDEST PUSH0 PUSH2 0x2624 DUP3 PUSH2 0x1BF1 JUMP JUMPDEST SWAP2 POP PUSH2 0x262F DUP4 PUSH2 0x1BF1 JUMP JUMPDEST SWAP3 POP DUP3 DUP3 MUL PUSH2 0x263D DUP2 PUSH2 0x1BF1 JUMP JUMPDEST SWAP2 POP DUP3 DUP3 DIV DUP5 EQ DUP4 ISZERO OR PUSH2 0x2654 JUMPI PUSH2 0x2653 PUSH2 0x2552 JUMP JUMPDEST JUMPDEST POP SWAP3 SWAP2 POP POP JUMP JUMPDEST PUSH32 0x50616972696E6720636865636B206661696C6564000000000000000000000000 PUSH0 DUP3 ADD MSTORE POP JUMP JUMPDEST PUSH0 PUSH2 0x268F PUSH1 0x14 DUP4 PUSH2 0x21AF JUMP JUMPDEST SWAP2 POP PUSH2 0x269A DUP3 PUSH2 0x265B JUMP JUMPDEST PUSH1 0x20 DUP3 ADD SWAP1 POP SWAP2 SWAP1 POP JUMP JUMPDEST PUSH0 PUSH1 0x20 DUP3 ADD SWAP1 POP DUP2 DUP2 SUB PUSH0 DUP4 ADD MSTORE PUSH2 0x26BC DUP2 PUSH2 0x2683 JUMP JUMPDEST SWAP1 POP SWAP2 SWAP1 POP JUMP JUMPDEST PUSH32 0x4E487B7100000000000000000000000000000000000000000000000000000000 PUSH0 MSTORE PUSH1 0x12 PUSH1 0x4 MSTORE PUSH1 0x24 PUSH0 REVERT JUMPDEST PUSH0 PUSH2 0x26FA DUP3 PUSH2 0x1BF1 JUMP JUMPDEST SWAP2 POP PUSH2 0x2705 DUP4 PUSH2 0x1BF1 JUMP JUMPDEST SWAP3 POP DUP3 PUSH2 0x2715 JUMPI PUSH2 0x2714 PUSH2 0x26C3 JUMP JUMPDEST JUMPDEST DUP3 DUP3 MOD SWAP1 POP SWAP3 SWAP2 POP POP JUMP JUMPDEST PUSH0 PUSH2 0x272A DUP3 PUSH2 0x1BF1 JUMP JUMPDEST SWAP2 POP PUSH2 0x2735 DUP4 PUSH2 0x1BF1 JUMP JUMPDEST SWAP3 POP DUP3 DUP3 SUB SWAP1 POP DUP2 DUP2 GT ISZERO PUSH2 0x274D JUMPI PUSH2 0x274C PUSH2 0x2552 JUMP JUMPDEST JUMPDEST SWAP3 SWAP2 POP POP JUMP INVALID LOG2 PUSH5 0x6970667358 0x22 SLT KECCAK256 XOR 0xB1 SWAP5 SWAP3 MCOPY MOD MSTORE8 0xBB 0xCF DUP5 0xF9 0x29 PUSH8 0x916572AED472E18A 0xD1 0xDD SWAP8 PUSH0 0x4E 0xBD MLOAD 0xC SWAP13 PUSH4 0x6864736F PUSH13 0x634300081A0033000000000000 "
				},
				"gasEstimates": {
					"creation": {
						"codeDepositCost": "2024200",
						"executionCost": "infinite",
						"totalCost": "infinite"
					},
					"external": {
						"alphaComponents(uint256)": "infinite",
						"betaComponents(uint256,uint256)": "infinite",
						"bitTorrent()": "infinite",
						"deltaComponents(uint256)": "infinite",
						"fileAccessProofs(bytes32,bytes32)": "infinite",
						"files(bytes32)": "infinite",
						"gammaComponents(uint256)": "infinite",
						"icComponents(uint256,uint256)": "infinite",
						"icLength()": "2515",
						"initializeVerificationKey(uint256[2],uint256[2][2],uint256[2],uint256[2],uint256[2][])": "infinite",
						"nullifierUsed(bytes32)": "2808",
						"owner()": "2582",
						"pause()": "infinite",
						"paused()": "2518",
						"renounceOwnership()": "infinite",
						"transferOwnership(address)": "infinite",
						"unpause()": "infinite",
						"userAccess(address,bytes32)": "3139",
						"verifyFileProof(bytes32,bytes32,uint256,uint256[8])": "infinite",
						"verifyProof(uint256[8],uint256[1])": "infinite"
					},
					"internal": {
						"_isOnCurve(uint256,uint256)": "infinite",
						"_negate(uint256,uint256)": "infinite",
						"_pointAdd(uint256,uint256,uint256,uint256)": "infinite",
						"_scalarMul(uint256[2] memory,uint256)": "infinite",
						"_verifyPairing(uint256[2] memory,uint256[2] memory[2] memory,uint256[2] memory,uint256[2] memory,uint256[2] memory,uint256[2] memory,uint256[2] memory,uint256[2] memory)": "infinite",
						"_verifyProof(uint256[2] memory,uint256[2] memory[2] memory,uint256[2] memory,uint256[1] memory)": "infinite"
					}
				},
				"methodIdentifiers": {
					"alphaComponents(uint256)": "02e291b1",
					"betaComponents(uint256,uint256)": "cb57dc3e",
					"bitTorrent()": "4f1c6447",
					"deltaComponents(uint256)": "5d41f36e",
					"fileAccessProofs(bytes32,bytes32)": "b08eff56",
					"files(bytes32)": "98c9adff",
					"gammaComponents(uint256)": "63a787e2",
					"icComponents(uint256,uint256)": "fc8221a9",
					"icLength()": "280ee92a",
					"initializeVerificationKey(uint256[2],uint256[2][2],uint256[2],uint256[2],uint256[2][])": "914acecd",
					"nullifierUsed(bytes32)": "7ecf686d",
					"owner()": "8da5cb5b",
					"pause()": "8456cb59",
					"paused()": "5c975abb",
					"renounceOwnership()": "715018a6",
					"transferOwnership(address)": "f2fde38b",
					"unpause()": "3f4ba83a",
					"userAccess(address,bytes32)": "1ba82d42",
					"verifyFileProof(bytes32,bytes32,uint256,uint256[8])": "d796ad6d",
					"verifyProof(uint256[8],uint256[1])": "1b81f829"
				}
			},
			"storageLayout": {
				"storage": [
					{
						"astId": 8,
						"contract": "privacy/zkp/FileProver.sol:FileProver",
						"label": "_owner",
						"offset": 0,
						"slot": "0",
						"type": "t_address"
					},
					{
						"astId": 305,
						"contract": "privacy/zkp/FileProver.sol:FileProver",
						"label": "_status",
						"offset": 0,
						"slot": "1",
						"type": "t_uint256"
					},
					{
						"astId": 186,
						"contract": "privacy/zkp/FileProver.sol:FileProver",
						"label": "_paused",
						"offset": 0,
						"slot": "2",
						"type": "t_bool"
					},
					{
						"astId": 445,
						"contract": "privacy/zkp/FileProver.sol:FileProver",
						"label": "alphaComponents",
						"offset": 0,
						"slot": "3",
						"type": "t_mapping(t_uint256,t_uint256)"
					},
					{
						"astId": 451,
						"contract": "privacy/zkp/FileProver.sol:FileProver",
						"label": "betaComponents",
						"offset": 0,
						"slot": "4",
						"type": "t_mapping(t_uint256,t_mapping(t_uint256,t_uint256))"
					},
					{
						"astId": 455,
						"contract": "privacy/zkp/FileProver.sol:FileProver",
						"label": "gammaComponents",
						"offset": 0,
						"slot": "5",
						"type": "t_mapping(t_uint256,t_uint256)"
					},
					{
						"astId": 459,
						"contract": "privacy/zkp/FileProver.sol:FileProver",
						"label": "deltaComponents",
						"offset": 0,
						"slot": "6",
						"type": "t_mapping(t_uint256,t_uint256)"
					},
					{
						"astId": 465,
						"contract": "privacy/zkp/FileProver.sol:FileProver",
						"label": "icComponents",
						"offset": 0,
						"slot": "7",
						"type": "t_mapping(t_uint256,t_mapping(t_uint256,t_uint256))"
					},
					{
						"astId": 467,
						"contract": "privacy/zkp/FileProver.sol:FileProver",
						"label": "icLength",
						"offset": 0,
						"slot": "8",
						"type": "t_uint256"
					},
					{
						"astId": 490,
						"contract": "privacy/zkp/FileProver.sol:FileProver",
						"label": "files",
						"offset": 0,
						"slot": "9",
						"type": "t_mapping(t_bytes32,t_struct(FileCommitment)482_storage)"
					},
					{
						"astId": 494,
						"contract": "privacy/zkp/FileProver.sol:FileProver",
						"label": "nullifierUsed",
						"offset": 0,
						"slot": "10",
						"type": "t_mapping(t_bytes32,t_bool)"
					},
					{
						"astId": 500,
						"contract": "privacy/zkp/FileProver.sol:FileProver",
						"label": "userAccess",
						"offset": 0,
						"slot": "11",
						"type": "t_mapping(t_address,t_mapping(t_bytes32,t_bool))"
					},
					{
						"astId": 506,
						"contract": "privacy/zkp/FileProver.sol:FileProver",
						"label": "fileAccessProofs",
						"offset": 0,
						"slot": "12",
						"type": "t_mapping(t_bytes32,t_mapping(t_bytes32,t_bool))"
					}
				],
				"types": {
					"t_address": {
						"encoding": "inplace",
						"label": "address",
						"numberOfBytes": "20"
					},
					"t_bool": {
						"encoding": "inplace",
						"label": "bool",
						"numberOfBytes": "1"
					},
					"t_bytes32": {
						"encoding": "inplace",
						"label": "bytes32",
						"numberOfBytes": "32"
					},
					"t_mapping(t_address,t_mapping(t_bytes32,t_bool))": {
						"encoding": "mapping",
						"key": "t_address",
						"label": "mapping(address => mapping(bytes32 => bool))",
						"numberOfBytes": "32",
						"value": "t_mapping(t_bytes32,t_bool)"
					},
					"t_mapping(t_bytes32,t_bool)": {
						"encoding": "mapping",
						"key": "t_bytes32",
						"label": "mapping(bytes32 => bool)",
						"numberOfBytes": "32",
						"value": "t_bool"
					},
					"t_mapping(t_bytes32,t_mapping(t_bytes32,t_bool))": {
						"encoding": "mapping",
						"key": "t_bytes32",
						"label": "mapping(bytes32 => mapping(bytes32 => bool))",
						"numberOfBytes": "32",
						"value": "t_mapping(t_bytes32,t_bool)"
					},
					"t_mapping(t_bytes32,t_struct(FileCommitment)482_storage)": {
						"encoding": "mapping",
						"key": "t_bytes32",
						"label": "mapping(bytes32 => struct FileProver.FileCommitment)",
						"numberOfBytes": "32",
						"value": "t_struct(FileCommitment)482_storage"
					},
					"t_mapping(t_uint256,t_mapping(t_uint256,t_uint256))": {
						"encoding": "mapping",
						"key": "t_uint256",
						"label": "mapping(uint256 => mapping(uint256 => uint256))",
						"numberOfBytes": "32",
						"value": "t_mapping(t_uint256,t_uint256)"
					},
					"t_mapping(t_uint256,t_uint256)": {
						"encoding": "mapping",
						"key": "t_uint256",
						"label": "mapping(uint256 => uint256)",
						"numberOfBytes": "32",
						"value": "t_uint256"
					},
					"t_struct(FileCommitment)482_storage": {
						"encoding": "inplace",
						"label": "struct FileProver.FileCommitment",
						"members": [
							{
								"astId": 469,
								"contract": "privacy/zkp/FileProver.sol:FileProver",
								"label": "commitment",
								"offset": 0,
								"slot": "0",
								"type": "t_bytes32"
							},
							{
								"astId": 471,
								"contract": "privacy/zkp/FileProver.sol:FileProver",
								"label": "metadataHash",
								"offset": 0,
								"slot": "1",
								"type": "t_bytes32"
							},
							{
								"astId": 473,
								"contract": "privacy/zkp/FileProver.sol:FileProver",
								"label": "size",
								"offset": 0,
								"slot": "2",
								"type": "t_uint256"
							},
							{
								"astId": 475,
								"contract": "privacy/zkp/FileProver.sol:FileProver",
								"label": "owner",
								"offset": 0,
								"slot": "3",
								"type": "t_address"
							},
							{
								"astId": 477,
								"contract": "privacy/zkp/FileProver.sol:FileProver",
								"label": "isEncrypted",
								"offset": 20,
								"slot": "3",
								"type": "t_bool"
							},
							{
								"astId": 479,
								"contract": "privacy/zkp/FileProver.sol:FileProver",
								"label": "encryptionProof",
								"offset": 0,
								"slot": "4",
								"type": "t_bytes32"
							},
							{
								"astId": 481,
								"contract": "privacy/zkp/FileProver.sol:FileProver",
								"label": "timestamp",
								"offset": 0,
								"slot": "5",
								"type": "t_uint256"
							}
						],
						"numberOfBytes": "192"
					},
					"t_uint256": {
						"encoding": "inplace",
						"label": "uint256",
						"numberOfBytes": "32"
					}
				}
			},
			"userdoc": {
				"kind": "user",
				"methods": {},
				"version": 1
			}
		}
	}
}