{
	"privacy/zkp/TransferProver.sol": {
		"TransferProver": {
			"abi": [
				{
					"inputs": [
						{
							"internalType": "address",
							"name": "initialOwner",
							"type": "address"
						}
					],
					"stateMutability": "nonpayable",
					"type": "constructor"
				},
				{
					"inputs": [],
					"name": "EnforcedPause",
					"type": "error"
				},
				{
					"inputs": [],
					"name": "ExpectedPause",
					"type": "error"
				},
				{
					"inputs": [
						{
							"internalType": "address",
							"name": "owner",
							"type": "address"
						}
					],
					"name": "OwnableInvalidOwner",
					"type": "error"
				},
				{
					"inputs": [
						{
							"internalType": "address",
							"name": "account",
							"type": "address"
						}
					],
					"name": "OwnableUnauthorizedAccount",
					"type": "error"
				},
				{
					"inputs": [],
					"name": "ReentrancyGuardReentrantCall",
					"type": "error"
				},
				{
					"anonymous": false,
					"inputs": [
						{
							"indexed": true,
							"internalType": "bytes32",
							"name": "commitment",
							"type": "bytes32"
						},
						{
							"indexed": true,
							"internalType": "address",
							"name": "token",
							"type": "address"
						},
						{
							"indexed": true,
							"internalType": "uint256",
							"name": "index",
							"type": "uint256"
						},
						{
							"indexed": false,
							"internalType": "uint256",
							"name": "timestamp",
							"type": "uint256"
						}
					],
					"name": "NoteCreated",
					"type": "event"
				},
				{
					"anonymous": false,
					"inputs": [
						{
							"indexed": true,
							"internalType": "bytes32",
							"name": "nullifier",
							"type": "bytes32"
						},
						{
							"indexed": true,
							"internalType": "address",
							"name": "token",
							"type": "address"
						},
						{
							"indexed": false,
							"internalType": "uint256",
							"name": "timestamp",
							"type": "uint256"
						}
					],
					"name": "NoteSpent",
					"type": "event"
				},
				{
					"anonymous": false,
					"inputs": [
						{
							"indexed": true,
							"internalType": "address",
							"name": "previousOwner",
							"type": "address"
						},
						{
							"indexed": true,
							"internalType": "address",
							"name": "newOwner",
							"type": "address"
						}
					],
					"name": "OwnershipTransferred",
					"type": "event"
				},
				{
					"anonymous": false,
					"inputs": [
						{
							"indexed": false,
							"internalType": "address",
							"name": "account",
							"type": "address"
						}
					],
					"name": "Paused",
					"type": "event"
				},
				{
					"anonymous": false,
					"inputs": [
						{
							"indexed": true,
							"internalType": "bytes32",
							"name": "inputCommitment",
							"type": "bytes32"
						},
						{
							"indexed": true,
							"internalType": "bytes32",
							"name": "outputCommitment",
							"type": "bytes32"
						},
						{
							"indexed": true,
							"internalType": "address",
							"name": "token",
							"type": "address"
						},
						{
							"indexed": false,
							"internalType": "uint256",
							"name": "timestamp",
							"type": "uint256"
						}
					],
					"name": "TransferProofVerified",
					"type": "event"
				},
				{
					"anonymous": false,
					"inputs": [
						{
							"indexed": false,
							"internalType": "address",
							"name": "account",
							"type": "address"
						}
					],
					"name": "Unpaused",
					"type": "event"
				},
				{
					"inputs": [],
					"name": "MAX_TRANSFER_AMOUNT",
					"outputs": [
						{
							"internalType": "uint256",
							"name": "",
							"type": "uint256"
						}
					],
					"stateMutability": "view",
					"type": "function"
				},
				{
					"inputs": [],
					"name": "MERKLE_TREE_LEVELS",
					"outputs": [
						{
							"internalType": "uint256",
							"name": "",
							"type": "uint256"
						}
					],
					"stateMutability": "view",
					"type": "function"
				},
				{
					"inputs": [
						{
							"internalType": "uint256",
							"name": "",
							"type": "uint256"
						}
					],
					"name": "alphaComponents",
					"outputs": [
						{
							"internalType": "uint256",
							"name": "",
							"type": "uint256"
						}
					],
					"stateMutability": "view",
					"type": "function"
				},
				{
					"inputs": [
						{
							"internalType": "uint256",
							"name": "",
							"type": "uint256"
						},
						{
							"internalType": "uint256",
							"name": "",
							"type": "uint256"
						}
					],
					"name": "betaComponents",
					"outputs": [
						{
							"internalType": "uint256",
							"name": "",
							"type": "uint256"
						}
					],
					"stateMutability": "view",
					"type": "function"
				},
				{
					"inputs": [
						{
							"internalType": "bytes32",
							"name": "commitment",
							"type": "bytes32"
						},
						{
							"internalType": "address",
							"name": "token",
							"type": "address"
						},
						{
							"internalType": "uint256",
							"name": "amount",
							"type": "uint256"
						},
						{
							"internalType": "uint256[8]",
							"name": "proof",
							"type": "uint256[8]"
						}
					],
					"name": "createNote",
					"outputs": [],
					"stateMutability": "nonpayable",
					"type": "function"
				},
				{
					"inputs": [],
					"name": "currentRoot",
					"outputs": [
						{
							"internalType": "uint256",
							"name": "",
							"type": "uint256"
						}
					],
					"stateMutability": "view",
					"type": "function"
				},
				{
					"inputs": [
						{
							"internalType": "uint256",
							"name": "",
							"type": "uint256"
						}
					],
					"name": "deltaComponents",
					"outputs": [
						{
							"internalType": "uint256",
							"name": "",
							"type": "uint256"
						}
					],
					"stateMutability": "view",
					"type": "function"
				},
				{
					"inputs": [
						{
							"internalType": "uint256",
							"name": "",
							"type": "uint256"
						}
					],
					"name": "gammaComponents",
					"outputs": [
						{
							"internalType": "uint256",
							"name": "",
							"type": "uint256"
						}
					],
					"stateMutability": "view",
					"type": "function"
				},
				{
					"inputs": [
						{
							"internalType": "bytes32",
							"name": "commitment",
							"type": "bytes32"
						}
					],
					"name": "getMerkleProof",
					"outputs": [
						{
							"internalType": "bytes32[]",
							"name": "siblings",
							"type": "bytes32[]"
						},
						{
							"internalType": "uint256[]",
							"name": "indices",
							"type": "uint256[]"
						}
					],
					"stateMutability": "view",
					"type": "function"
				},
				{
					"inputs": [],
					"name": "getMerkleRoot",
					"outputs": [
						{
							"internalType": "bytes32",
							"name": "",
							"type": "bytes32"
						}
					],
					"stateMutability": "view",
					"type": "function"
				},
				{
					"inputs": [],
					"name": "getMerkleTreeSize",
					"outputs": [
						{
							"internalType": "uint256",
							"name": "",
							"type": "uint256"
						}
					],
					"stateMutability": "view",
					"type": "function"
				},
				{
					"inputs": [
						{
							"internalType": "uint256",
							"name": "index",
							"type": "uint256"
						}
					],
					"name": "hasCommitmentAtIndex",
					"outputs": [
						{
							"internalType": "bool",
							"name": "",
							"type": "bool"
						}
					],
					"stateMutability": "view",
					"type": "function"
				},
				{
					"inputs": [
						{
							"internalType": "uint256",
							"name": "",
							"type": "uint256"
						},
						{
							"internalType": "uint256",
							"name": "",
							"type": "uint256"
						}
					],
					"name": "icComponents",
					"outputs": [
						{
							"internalType": "uint256",
							"name": "",
							"type": "uint256"
						}
					],
					"stateMutability": "view",
					"type": "function"
				},
				{
					"inputs": [],
					"name": "icLength",
					"outputs": [
						{
							"internalType": "uint256",
							"name": "",
							"type": "uint256"
						}
					],
					"stateMutability": "view",
					"type": "function"
				},
				{
					"inputs": [
						{
							"internalType": "bytes32",
							"name": "",
							"type": "bytes32"
						},
						{
							"internalType": "uint256",
							"name": "",
							"type": "uint256"
						}
					],
					"name": "merkleTree",
					"outputs": [
						{
							"internalType": "bytes32",
							"name": "",
							"type": "bytes32"
						}
					],
					"stateMutability": "view",
					"type": "function"
				},
				{
					"inputs": [
						{
							"internalType": "bytes32",
							"name": "",
							"type": "bytes32"
						}
					],
					"name": "notes",
					"outputs": [
						{
							"internalType": "bytes32",
							"name": "commitment",
							"type": "bytes32"
						},
						{
							"internalType": "bytes32",
							"name": "nullifier",
							"type": "bytes32"
						},
						{
							"internalType": "uint256",
							"name": "amount",
							"type": "uint256"
						},
						{
							"internalType": "address",
							"name": "token",
							"type": "address"
						},
						{
							"internalType": "bool",
							"name": "spent",
							"type": "bool"
						}
					],
					"stateMutability": "view",
					"type": "function"
				},
				{
					"inputs": [
						{
							"internalType": "bytes32",
							"name": "",
							"type": "bytes32"
						}
					],
					"name": "nullifierSpent",
					"outputs": [
						{
							"internalType": "bool",
							"name": "",
							"type": "bool"
						}
					],
					"stateMutability": "view",
					"type": "function"
				},
				{
					"inputs": [],
					"name": "owner",
					"outputs": [
						{
							"internalType": "address",
							"name": "",
							"type": "address"
						}
					],
					"stateMutability": "view",
					"type": "function"
				},
				{
					"inputs": [],
					"name": "pause",
					"outputs": [],
					"stateMutability": "nonpayable",
					"type": "function"
				},
				{
					"inputs": [],
					"name": "paused",
					"outputs": [
						{
							"internalType": "bool",
							"name": "",
							"type": "bool"
						}
					],
					"stateMutability": "view",
					"type": "function"
				},
				{
					"inputs": [],
					"name": "renounceOwnership",
					"outputs": [],
					"stateMutability": "nonpayable",
					"type": "function"
				},
				{
					"inputs": [
						{
							"internalType": "bytes32",
							"name": "nullifier",
							"type": "bytes32"
						},
						{
							"internalType": "bytes32",
							"name": "inputCommitment",
							"type": "bytes32"
						},
						{
							"internalType": "bytes32",
							"name": "outputCommitment",
							"type": "bytes32"
						},
						{
							"internalType": "uint256[8]",
							"name": "proof",
							"type": "uint256[8]"
						}
					],
					"name": "spendNote",
					"outputs": [],
					"stateMutability": "nonpayable",
					"type": "function"
				},
				{
					"inputs": [
						{
							"internalType": "address",
							"name": "",
							"type": "address"
						}
					],
					"name": "tokenBalances",
					"outputs": [
						{
							"internalType": "uint256",
							"name": "",
							"type": "uint256"
						}
					],
					"stateMutability": "view",
					"type": "function"
				},
				{
					"inputs": [
						{
							"internalType": "address",
							"name": "newOwner",
							"type": "address"
						}
					],
					"name": "transferOwnership",
					"outputs": [],
					"stateMutability": "nonpayable",
					"type": "function"
				},
				{
					"inputs": [],
					"name": "unpause",
					"outputs": [],
					"stateMutability": "nonpayable",
					"type": "function"
				},
				{
					"inputs": [
						{
							"internalType": "bytes32",
							"name": "commitment",
							"type": "bytes32"
						},
						{
							"internalType": "bytes32[]",
							"name": "siblings",
							"type": "bytes32[]"
						},
						{
							"internalType": "uint256[]",
							"name": "indices",
							"type": "uint256[]"
						}
					],
					"name": "verifyMerkleProof",
					"outputs": [
						{
							"internalType": "bool",
							"name": "",
							"type": "bool"
						}
					],
					"stateMutability": "view",
					"type": "function"
				},
				{
					"inputs": [
						{
							"internalType": "uint256[8]",
							"name": "proof",
							"type": "uint256[8]"
						},
						{
							"internalType": "uint256[1]",
							"name": "input",
							"type": "uint256[1]"
						}
					],
					"name": "verifyProof",
					"outputs": [
						{
							"internalType": "bool",
							"name": "",
							"type": "bool"
						}
					],
					"stateMutability": "view",
					"type": "function"
				}
			],
			"devdoc": {
				"errors": {
					"EnforcedPause()": [
						{
							"details": "The operation failed because the contract is paused."
						}
					],
					"ExpectedPause()": [
						{
							"details": "The operation failed because the contract is not paused."
						}
					],
					"OwnableInvalidOwner(address)": [
						{
							"details": "The owner is not a valid owner account. (eg. `address(0)`)"
						}
					],
					"OwnableUnauthorizedAccount(address)": [
						{
							"details": "The caller account is not authorized to perform an operation."
						}
					],
					"ReentrancyGuardReentrantCall()": [
						{
							"details": "Unauthorized reentrant call."
						}
					]
				},
				"events": {
					"Paused(address)": {
						"details": "Emitted when the pause is triggered by `account`."
					},
					"Unpaused(address)": {
						"details": "Emitted when the pause is lifted by `account`."
					}
				},
				"kind": "dev",
				"methods": {
					"constructor": {
						"params": {
							"initialOwner": "Address of the contract owner"
						}
					},
					"getMerkleProof(bytes32)": {
						"params": {
							"commitment": "Target commitment"
						},
						"returns": {
							"indices": "Array of indices for proof construction",
							"siblings": "Array of sibling hashes for proof"
						}
					},
					"getMerkleRoot()": {
						"returns": {
							"_0": "root Current merkle root"
						}
					},
					"getMerkleTreeSize()": {
						"returns": {
							"_0": "count Current element count"
						}
					},
					"hasCommitmentAtIndex(uint256)": {
						"params": {
							"index": "Position to check"
						},
						"returns": {
							"_0": "exists Whether a commitment exists at index"
						}
					},
					"owner()": {
						"details": "Returns the address of the current owner."
					},
					"paused()": {
						"details": "Returns true if the contract is paused, and false otherwise."
					},
					"renounceOwnership()": {
						"details": "Leaves the contract without owner. It will not be possible to call `onlyOwner` functions. Can only be called by the current owner. NOTE: Renouncing ownership will leave the contract without an owner, thereby disabling any functionality that is only available to the owner."
					},
					"transferOwnership(address)": {
						"details": "Transfers ownership of the contract to a new account (`newOwner`). Can only be called by the current owner."
					},
					"verifyMerkleProof(bytes32,bytes32[],uint256[])": {
						"params": {
							"commitment": "Target commitment",
							"indices": "Position indicators (left/right)",
							"siblings": "Sibling hashes in proof"
						},
						"returns": {
							"_0": "valid Whether the proof is valid"
						}
					}
				},
				"version": 1
			},
			"evm": {
				"assembly": "    /* \"privacy/zkp/TransferProver.sol\":306:13858  contract TransferProver is IZKVerifier, Ownable, ReentrancyGuard, Pausable {... */\n  mstore(0x40, 0x80)\n    /* \"privacy/zkp/TransferProver.sol\":1997:2130  constructor(address initialOwner) Ownable(initialOwner) {... */\n  callvalue\n  dup1\n  iszero\n  tag_1\n  jumpi\n  0x00\n  dup1\n  revert\ntag_1:\n  pop\n  mload(0x40)\n  sub(codesize, bytecodeSize)\n  dup1\n  bytecodeSize\n  dup4\n  codecopy\n  dup2\n  dup2\n  add\n  0x40\n  mstore\n  dup2\n  add\n  swap1\n  tag_2\n  swap2\n  swap1\n  tag_3\n  jump\t// in\ntag_2:\n    /* \"privacy/zkp/TransferProver.sol\":2039:2051  initialOwner */\n  dup1\n    /* \"@openzeppelin/contracts/access/Ownable.sol\":1297:1298  0 */\n  0x00\n    /* \"@openzeppelin/contracts/access/Ownable.sol\":1273:1299  initialOwner == address(0) */\n  0xffffffffffffffffffffffffffffffffffffffff\n  and\n    /* \"@openzeppelin/contracts/access/Ownable.sol\":1273:1285  initialOwner */\n  dup2\n    /* \"@openzeppelin/contracts/access/Ownable.sol\":1273:1299  initialOwner == address(0) */\n  0xffffffffffffffffffffffffffffffffffffffff\n  and\n  sub\n    /* \"@openzeppelin/contracts/access/Ownable.sol\":1269:1364  if (initialOwner == address(0)) {... */\n  tag_9\n  jumpi\n    /* \"@openzeppelin/contracts/access/Ownable.sol\":1350:1351  0 */\n  0x00\n    /* \"@openzeppelin/contracts/access/Ownable.sol\":1322:1353  OwnableInvalidOwner(address(0)) */\n  mload(0x40)\n  0x1e4fbdf700000000000000000000000000000000000000000000000000000000\n  dup2\n  mstore\n  0x04\n  add\n  tag_10\n  swap2\n  swap1\n  tag_11\n  jump\t// in\ntag_10:\n  mload(0x40)\n  dup1\n  swap2\n  sub\n  swap1\n  revert\n    /* \"@openzeppelin/contracts/access/Ownable.sol\":1269:1364  if (initialOwner == address(0)) {... */\ntag_9:\n    /* \"@openzeppelin/contracts/access/Ownable.sol\":1373:1405  _transferOwnership(initialOwner) */\n  tag_12\n    /* \"@openzeppelin/contracts/access/Ownable.sol\":1392:1404  initialOwner */\n  dup2\n    /* \"@openzeppelin/contracts/access/Ownable.sol\":1373:1391  _transferOwnership */\n  shl(0x20, tag_13)\n    /* \"@openzeppelin/contracts/access/Ownable.sol\":1373:1405  _transferOwnership(initialOwner) */\n  0x20\n  shr\n  jump\t// in\ntag_12:\n    /* \"@openzeppelin/contracts/access/Ownable.sol\":1225:1412  constructor(address initialOwner) {... */\n  pop\n    /* \"@openzeppelin/contracts/utils/ReentrancyGuard.sol\":1857:1858  1 */\n  0x01\n    /* \"@openzeppelin/contracts/utils/ReentrancyGuard.sol\":2061:2068  _status */\n  dup1\n    /* \"@openzeppelin/contracts/utils/ReentrancyGuard.sol\":2061:2082  _status = NOT_ENTERED */\n  dup2\n  swap1\n  sstore\n  pop\n    /* \"@openzeppelin/contracts/utils/Pausable.sol\":1241:1246  false */\n  0x00\n    /* \"@openzeppelin/contracts/utils/Pausable.sol\":1231:1238  _paused */\n  0x02\n  0x00\n    /* \"@openzeppelin/contracts/utils/Pausable.sol\":1231:1246  _paused = false */\n  0x0100\n  exp\n  dup2\n  sload\n  dup2\n  0xff\n  mul\n  not\n  and\n  swap1\n  dup4\n  iszero\n  iszero\n  mul\n  or\n  swap1\n  sstore\n  pop\n    /* \"privacy/zkp/TransferProver.sol\":2095:2096  0 */\n  0x00\n    /* \"privacy/zkp/TransferProver.sol\":2071:2097  initialOwner != address(0) */\n  0xffffffffffffffffffffffffffffffffffffffff\n  and\n    /* \"privacy/zkp/TransferProver.sol\":2071:2083  initialOwner */\n  dup2\n    /* \"privacy/zkp/TransferProver.sol\":2071:2097  initialOwner != address(0) */\n  0xffffffffffffffffffffffffffffffffffffffff\n  and\n  sub\n    /* \"privacy/zkp/TransferProver.sol\":2063:2123  require(initialOwner != address(0), \"Invalid owner address\") */\n  tag_17\n  jumpi\n  mload(0x40)\n  0x08c379a000000000000000000000000000000000000000000000000000000000\n  dup2\n  mstore\n  0x04\n  add\n  tag_18\n  swap1\n  tag_19\n  jump\t// in\ntag_18:\n  mload(0x40)\n  dup1\n  swap2\n  sub\n  swap1\n  revert\ntag_17:\n    /* \"privacy/zkp/TransferProver.sol\":1997:2130  constructor(address initialOwner) Ownable(initialOwner) {... */\n  pop\n    /* \"privacy/zkp/TransferProver.sol\":306:13858  contract TransferProver is IZKVerifier, Ownable, ReentrancyGuard, Pausable {... */\n  jump(tag_20)\n    /* \"@openzeppelin/contracts/access/Ownable.sol\":2912:3099  function _transferOwnership(address newOwner) internal virtual {... */\ntag_13:\n    /* \"@openzeppelin/contracts/access/Ownable.sol\":2985:3001  address oldOwner */\n  0x00\n    /* \"@openzeppelin/contracts/access/Ownable.sol\":3004:3010  _owner */\n  dup1\n  0x00\n  swap1\n  sload\n  swap1\n  0x0100\n  exp\n  swap1\n  div\n  0xffffffffffffffffffffffffffffffffffffffff\n  and\n    /* \"@openzeppelin/contracts/access/Ownable.sol\":2985:3010  address oldOwner = _owner */\n  swap1\n  pop\n    /* \"@openzeppelin/contracts/access/Ownable.sol\":3029:3037  newOwner */\n  dup2\n    /* \"@openzeppelin/contracts/access/Ownable.sol\":3020:3026  _owner */\n  0x00\n  dup1\n    /* \"@openzeppelin/contracts/access/Ownable.sol\":3020:3037  _owner = newOwner */\n  0x0100\n  exp\n  dup2\n  sload\n  dup2\n  0xffffffffffffffffffffffffffffffffffffffff\n  mul\n  not\n  and\n  swap1\n  dup4\n  0xffffffffffffffffffffffffffffffffffffffff\n  and\n  mul\n  or\n  swap1\n  sstore\n  pop\n    /* \"@openzeppelin/contracts/access/Ownable.sol\":3083:3091  newOwner */\n  dup2\n    /* \"@openzeppelin/contracts/access/Ownable.sol\":3052:3092  OwnershipTransferred(oldOwner, newOwner) */\n  0xffffffffffffffffffffffffffffffffffffffff\n  and\n    /* \"@openzeppelin/contracts/access/Ownable.sol\":3073:3081  oldOwner */\n  dup2\n    /* \"@openzeppelin/contracts/access/Ownable.sol\":3052:3092  OwnershipTransferred(oldOwner, newOwner) */\n  0xffffffffffffffffffffffffffffffffffffffff\n  and\n  0x8be0079c531659141344cd1fd0a4f28419497f9722a3daafe3b4186f6b6457e0\n  mload(0x40)\n  mload(0x40)\n  dup1\n  swap2\n  sub\n  swap1\n  log3\n    /* \"@openzeppelin/contracts/access/Ownable.sol\":2975:3099  {... */\n  pop\n    /* \"@openzeppelin/contracts/access/Ownable.sol\":2912:3099  function _transferOwnership(address newOwner) internal virtual {... */\n  pop\n  jump\t// out\n    /* \"#utility.yul\":88:205   */\ntag_23:\n    /* \"#utility.yul\":197:198   */\n  0x00\n    /* \"#utility.yul\":194:195   */\n  dup1\n    /* \"#utility.yul\":187:199   */\n  revert\n    /* \"#utility.yul\":334:460   */\ntag_25:\n    /* \"#utility.yul\":371:378   */\n  0x00\n    /* \"#utility.yul\":411:453   */\n  0xffffffffffffffffffffffffffffffffffffffff\n    /* \"#utility.yul\":404:409   */\n  dup3\n    /* \"#utility.yul\":400:454   */\n  and\n    /* \"#utility.yul\":389:454   */\n  swap1\n  pop\n    /* \"#utility.yul\":334:460   */\n  swap2\n  swap1\n  pop\n  jump\t// out\n    /* \"#utility.yul\":466:562   */\ntag_26:\n    /* \"#utility.yul\":503:510   */\n  0x00\n    /* \"#utility.yul\":532:556   */\n  tag_39\n    /* \"#utility.yul\":550:555   */\n  dup3\n    /* \"#utility.yul\":532:556   */\n  tag_25\n  jump\t// in\ntag_39:\n    /* \"#utility.yul\":521:556   */\n  swap1\n  pop\n    /* \"#utility.yul\":466:562   */\n  swap2\n  swap1\n  pop\n  jump\t// out\n    /* \"#utility.yul\":568:690   */\ntag_27:\n    /* \"#utility.yul\":641:665   */\n  tag_41\n    /* \"#utility.yul\":659:664   */\n  dup2\n    /* \"#utility.yul\":641:665   */\n  tag_26\n  jump\t// in\ntag_41:\n    /* \"#utility.yul\":634:639   */\n  dup2\n    /* \"#utility.yul\":631:666   */\n  eq\n    /* \"#utility.yul\":621:684   */\n  tag_42\n  jumpi\n    /* \"#utility.yul\":680:681   */\n  0x00\n    /* \"#utility.yul\":677:678   */\n  dup1\n    /* \"#utility.yul\":670:682   */\n  revert\n    /* \"#utility.yul\":621:684   */\ntag_42:\n    /* \"#utility.yul\":568:690   */\n  pop\n  jump\t// out\n    /* \"#utility.yul\":696:839   */\ntag_28:\n    /* \"#utility.yul\":753:758   */\n  0x00\n    /* \"#utility.yul\":784:790   */\n  dup2\n    /* \"#utility.yul\":778:791   */\n  mload\n    /* \"#utility.yul\":769:791   */\n  swap1\n  pop\n    /* \"#utility.yul\":800:833   */\n  tag_44\n    /* \"#utility.yul\":827:832   */\n  dup2\n    /* \"#utility.yul\":800:833   */\n  tag_27\n  jump\t// in\ntag_44:\n    /* \"#utility.yul\":696:839   */\n  swap3\n  swap2\n  pop\n  pop\n  jump\t// out\n    /* \"#utility.yul\":845:1196   */\ntag_3:\n    /* \"#utility.yul\":915:921   */\n  0x00\n    /* \"#utility.yul\":964:966   */\n  0x20\n    /* \"#utility.yul\":952:961   */\n  dup3\n    /* \"#utility.yul\":943:950   */\n  dup5\n    /* \"#utility.yul\":939:962   */\n  sub\n    /* \"#utility.yul\":935:967   */\n  slt\n    /* \"#utility.yul\":932:1051   */\n  iszero\n  tag_46\n  jumpi\n    /* \"#utility.yul\":970:1049   */\n  tag_47\n  tag_23\n  jump\t// in\ntag_47:\n    /* \"#utility.yul\":932:1051   */\ntag_46:\n    /* \"#utility.yul\":1090:1091   */\n  0x00\n    /* \"#utility.yul\":1115:1179   */\n  tag_48\n    /* \"#utility.yul\":1171:1178   */\n  dup5\n    /* \"#utility.yul\":1162:1168   */\n  dup3\n    /* \"#utility.yul\":1151:1160   */\n  dup6\n    /* \"#utility.yul\":1147:1169   */\n  add\n    /* \"#utility.yul\":1115:1179   */\n  tag_28\n  jump\t// in\ntag_48:\n    /* \"#utility.yul\":1105:1179   */\n  swap2\n  pop\n    /* \"#utility.yul\":1061:1189   */\n  pop\n    /* \"#utility.yul\":845:1196   */\n  swap3\n  swap2\n  pop\n  pop\n  jump\t// out\n    /* \"#utility.yul\":1202:1320   */\ntag_29:\n    /* \"#utility.yul\":1289:1313   */\n  tag_50\n    /* \"#utility.yul\":1307:1312   */\n  dup2\n    /* \"#utility.yul\":1289:1313   */\n  tag_26\n  jump\t// in\ntag_50:\n    /* \"#utility.yul\":1284:1287   */\n  dup3\n    /* \"#utility.yul\":1277:1314   */\n  mstore\n    /* \"#utility.yul\":1202:1320   */\n  pop\n  pop\n  jump\t// out\n    /* \"#utility.yul\":1326:1548   */\ntag_11:\n    /* \"#utility.yul\":1419:1423   */\n  0x00\n    /* \"#utility.yul\":1457:1459   */\n  0x20\n    /* \"#utility.yul\":1446:1455   */\n  dup3\n    /* \"#utility.yul\":1442:1460   */\n  add\n    /* \"#utility.yul\":1434:1460   */\n  swap1\n  pop\n    /* \"#utility.yul\":1470:1541   */\n  tag_52\n    /* \"#utility.yul\":1538:1539   */\n  0x00\n    /* \"#utility.yul\":1527:1536   */\n  dup4\n    /* \"#utility.yul\":1523:1540   */\n  add\n    /* \"#utility.yul\":1514:1520   */\n  dup5\n    /* \"#utility.yul\":1470:1541   */\n  tag_29\n  jump\t// in\ntag_52:\n    /* \"#utility.yul\":1326:1548   */\n  swap3\n  swap2\n  pop\n  pop\n  jump\t// out\n    /* \"#utility.yul\":1554:1723   */\ntag_30:\n    /* \"#utility.yul\":1638:1649   */\n  0x00\n    /* \"#utility.yul\":1672:1678   */\n  dup3\n    /* \"#utility.yul\":1667:1670   */\n  dup3\n    /* \"#utility.yul\":1660:1679   */\n  mstore\n    /* \"#utility.yul\":1712:1716   */\n  0x20\n    /* \"#utility.yul\":1707:1710   */\n  dup3\n    /* \"#utility.yul\":1703:1717   */\n  add\n    /* \"#utility.yul\":1688:1717   */\n  swap1\n  pop\n    /* \"#utility.yul\":1554:1723   */\n  swap3\n  swap2\n  pop\n  pop\n  jump\t// out\n    /* \"#utility.yul\":1729:1900   */\ntag_31:\n    /* \"#utility.yul\":1869:1892   */\n  0x496e76616c6964206f776e657220616464726573730000000000000000000000\n    /* \"#utility.yul\":1865:1866   */\n  0x00\n    /* \"#utility.yul\":1857:1863   */\n  dup3\n    /* \"#utility.yul\":1853:1867   */\n  add\n    /* \"#utility.yul\":1846:1893   */\n  mstore\n    /* \"#utility.yul\":1729:1900   */\n  pop\n  jump\t// out\n    /* \"#utility.yul\":1906:2272   */\ntag_32:\n    /* \"#utility.yul\":2048:2051   */\n  0x00\n    /* \"#utility.yul\":2069:2136   */\n  tag_56\n    /* \"#utility.yul\":2133:2135   */\n  0x15\n    /* \"#utility.yul\":2128:2131   */\n  dup4\n    /* \"#utility.yul\":2069:2136   */\n  tag_30\n  jump\t// in\ntag_56:\n    /* \"#utility.yul\":2062:2136   */\n  swap2\n  pop\n    /* \"#utility.yul\":2145:2238   */\n  tag_57\n    /* \"#utility.yul\":2234:2237   */\n  dup3\n    /* \"#utility.yul\":2145:2238   */\n  tag_31\n  jump\t// in\ntag_57:\n    /* \"#utility.yul\":2263:2265   */\n  0x20\n    /* \"#utility.yul\":2258:2261   */\n  dup3\n    /* \"#utility.yul\":2254:2266   */\n  add\n    /* \"#utility.yul\":2247:2266   */\n  swap1\n  pop\n    /* \"#utility.yul\":1906:2272   */\n  swap2\n  swap1\n  pop\n  jump\t// out\n    /* \"#utility.yul\":2278:2697   */\ntag_19:\n    /* \"#utility.yul\":2444:2448   */\n  0x00\n    /* \"#utility.yul\":2482:2484   */\n  0x20\n    /* \"#utility.yul\":2471:2480   */\n  dup3\n    /* \"#utility.yul\":2467:2485   */\n  add\n    /* \"#utility.yul\":2459:2485   */\n  swap1\n  pop\n    /* \"#utility.yul\":2531:2540   */\n  dup2\n    /* \"#utility.yul\":2525:2529   */\n  dup2\n    /* \"#utility.yul\":2521:2541   */\n  sub\n    /* \"#utility.yul\":2517:2518   */\n  0x00\n    /* \"#utility.yul\":2506:2515   */\n  dup4\n    /* \"#utility.yul\":2502:2519   */\n  add\n    /* \"#utility.yul\":2495:2542   */\n  mstore\n    /* \"#utility.yul\":2559:2690   */\n  tag_59\n    /* \"#utility.yul\":2685:2689   */\n  dup2\n    /* \"#utility.yul\":2559:2690   */\n  tag_32\n  jump\t// in\ntag_59:\n    /* \"#utility.yul\":2551:2690   */\n  swap1\n  pop\n    /* \"#utility.yul\":2278:2697   */\n  swap2\n  swap1\n  pop\n  jump\t// out\n    /* \"privacy/zkp/TransferProver.sol\":306:13858  contract TransferProver is IZKVerifier, Ownable, ReentrancyGuard, Pausable {... */\ntag_20:\n  dataSize(sub_0)\n  dup1\n  dataOffset(sub_0)\n  0x00\n  codecopy\n  0x00\n  return\nstop\n\nsub_0: assembly {\n        /* \"privacy/zkp/TransferProver.sol\":306:13858  contract TransferProver is IZKVerifier, Ownable, ReentrancyGuard, Pausable {... */\n      mstore(0x40, 0x80)\n      callvalue\n      dup1\n      iszero\n      tag_1\n      jumpi\n      0x00\n      dup1\n      revert\n    tag_1:\n      pop\n      jumpi(tag_2, lt(calldatasize, 0x04))\n      shr(0xe0, calldataload(0x00))\n      dup1\n      0x63a787e2\n      gt\n      tag_30\n      jumpi\n      dup1\n      0xe78813db\n      gt\n      tag_31\n      jumpi\n      dup1\n      0xf2fde38b\n      gt\n      tag_32\n      jumpi\n      dup1\n      0xf2fde38b\n      eq\n      tag_26\n      jumpi\n      dup1\n      0xfc1b3113\n      eq\n      tag_27\n      jumpi\n      dup1\n      0xfc8221a9\n      eq\n      tag_28\n      jumpi\n      dup1\n      0xfdab463d\n      eq\n      tag_29\n      jumpi\n      jump(tag_2)\n    tag_32:\n      dup1\n      0xe78813db\n      eq\n      tag_23\n      jumpi\n      dup1\n      0xe8279ca0\n      eq\n      tag_24\n      jumpi\n      dup1\n      0xea41537d\n      eq\n      tag_25\n      jumpi\n      jump(tag_2)\n    tag_31:\n      dup1\n      0x85de26b7\n      gt\n      tag_33\n      jumpi\n      dup1\n      0x85de26b7\n      eq\n      tag_19\n      jumpi\n      dup1\n      0x8da5cb5b\n      eq\n      tag_20\n      jumpi\n      dup1\n      0xa6a12ac4\n      eq\n      tag_21\n      jumpi\n      dup1\n      0xcb57dc3e\n      eq\n      tag_22\n      jumpi\n      jump(tag_2)\n    tag_33:\n      dup1\n      0x63a787e2\n      eq\n      tag_16\n      jumpi\n      dup1\n      0x715018a6\n      eq\n      tag_17\n      jumpi\n      dup1\n      0x8456cb59\n      eq\n      tag_18\n      jumpi\n      jump(tag_2)\n    tag_30:\n      dup1\n      0x38c86911\n      gt\n      tag_34\n      jumpi\n      dup1\n      0x49590657\n      gt\n      tag_35\n      jumpi\n      dup1\n      0x49590657\n      eq\n      tag_12\n      jumpi\n      dup1\n      0x523fba7f\n      eq\n      tag_13\n      jumpi\n      dup1\n      0x5c975abb\n      eq\n      tag_14\n      jumpi\n      dup1\n      0x5d41f36e\n      eq\n      tag_15\n      jumpi\n      jump(tag_2)\n    tag_35:\n      dup1\n      0x38c86911\n      eq\n      tag_9\n      jumpi\n      dup1\n      0x3f4ba83a\n      eq\n      tag_10\n      jumpi\n      dup1\n      0x46de701b\n      eq\n      tag_11\n      jumpi\n      jump(tag_2)\n    tag_34:\n      dup1\n      0x02e291b1\n      eq\n      tag_3\n      jumpi\n      dup1\n      0x0f045205\n      eq\n      tag_4\n      jumpi\n      dup1\n      0x1b81f829\n      eq\n      tag_5\n      jumpi\n      dup1\n      0x1ed1b416\n      eq\n      tag_6\n      jumpi\n      dup1\n      0x280ee92a\n      eq\n      tag_7\n      jumpi\n      dup1\n      0x2e36b050\n      eq\n      tag_8\n      jumpi\n    tag_2:\n      0x00\n      dup1\n      revert\n        /* \"privacy/zkp/TransferProver.sol\":440:490  mapping(uint256 => uint256) public alphaComponents */\n    tag_3:\n      tag_36\n      0x04\n      dup1\n      calldatasize\n      sub\n      dup2\n      add\n      swap1\n      tag_37\n      swap2\n      swap1\n      tag_38\n      jump\t// in\n    tag_37:\n      tag_39\n      jump\t// in\n    tag_36:\n      mload(0x40)\n      tag_40\n      swap2\n      swap1\n      tag_41\n      jump\t// in\n    tag_40:\n      mload(0x40)\n      dup1\n      swap2\n      sub\n      swap1\n      return\n        /* \"privacy/zkp/TransferProver.sol\":9394:10128  function verifyMerkleProof(... */\n    tag_4:\n      tag_42\n      0x04\n      dup1\n      calldatasize\n      sub\n      dup2\n      add\n      swap1\n      tag_43\n      swap2\n      swap1\n      tag_44\n      jump\t// in\n    tag_43:\n      tag_45\n      jump\t// in\n    tag_42:\n      mload(0x40)\n      tag_46\n      swap2\n      swap1\n      tag_47\n      jump\t// in\n    tag_46:\n      mload(0x40)\n      dup1\n      swap2\n      sub\n      swap1\n      return\n        /* \"privacy/zkp/TransferProver.sol\":2183:2525  function verifyProof(... */\n    tag_5:\n      tag_48\n      0x04\n      dup1\n      calldatasize\n      sub\n      dup2\n      add\n      swap1\n      tag_49\n      swap2\n      swap1\n      tag_50\n      jump\t// in\n    tag_49:\n      tag_51\n      jump\t// in\n    tag_48:\n      mload(0x40)\n      tag_52\n      swap2\n      swap1\n      tag_47\n      jump\t// in\n    tag_52:\n      mload(0x40)\n      dup1\n      swap2\n      sub\n      swap1\n      return\n        /* \"privacy/zkp/TransferProver.sol\":4797:6194  function spendNote(... */\n    tag_6:\n      tag_53\n      0x04\n      dup1\n      calldatasize\n      sub\n      dup2\n      add\n      swap1\n      tag_54\n      swap2\n      swap1\n      tag_55\n      jump\t// in\n    tag_54:\n      tag_56\n      jump\t// in\n    tag_53:\n      stop\n        /* \"privacy/zkp/TransferProver.sol\":756:779  uint256 public icLength */\n    tag_7:\n      tag_57\n      tag_58\n      jump\t// in\n    tag_57:\n      mload(0x40)\n      tag_59\n      swap2\n      swap1\n      tag_41\n      jump\t// in\n    tag_59:\n      mload(0x40)\n      dup1\n      swap2\n      sub\n      swap1\n      return\n        /* \"privacy/zkp/TransferProver.sol\":8307:9174  function getMerkleProof(bytes32 commitment) external view returns (... */\n    tag_8:\n      tag_60\n      0x04\n      dup1\n      calldatasize\n      sub\n      dup2\n      add\n      swap1\n      tag_61\n      swap2\n      swap1\n      tag_62\n      jump\t// in\n    tag_61:\n      tag_63\n      jump\t// in\n    tag_60:\n      mload(0x40)\n      tag_64\n      swap3\n      swap2\n      swap1\n      tag_65\n      jump\t// in\n    tag_64:\n      mload(0x40)\n      dup1\n      swap2\n      sub\n      swap1\n      return\n        /* \"privacy/zkp/TransferProver.sol\":1036:1082  mapping(bytes32 => bool) public nullifierSpent */\n    tag_9:\n      tag_66\n      0x04\n      dup1\n      calldatasize\n      sub\n      dup2\n      add\n      swap1\n      tag_67\n      swap2\n      swap1\n      tag_62\n      jump\t// in\n    tag_67:\n      tag_68\n      jump\t// in\n    tag_66:\n      mload(0x40)\n      tag_69\n      swap2\n      swap1\n      tag_47\n      jump\t// in\n    tag_69:\n      mload(0x40)\n      dup1\n      swap2\n      sub\n      swap1\n      return\n        /* \"privacy/zkp/TransferProver.sol\":13791:13856  function unpause() external onlyOwner {... */\n    tag_10:\n      tag_70\n      tag_71\n      jump\t// in\n    tag_70:\n      stop\n        /* \"privacy/zkp/TransferProver.sol\":3700:4725  function createNote(... */\n    tag_11:\n      tag_72\n      0x04\n      dup1\n      calldatasize\n      sub\n      dup2\n      add\n      swap1\n      tag_73\n      swap2\n      swap1\n      tag_74\n      jump\t// in\n    tag_73:\n      tag_75\n      jump\t// in\n    tag_72:\n      stop\n        /* \"privacy/zkp/TransferProver.sol\":8007:8100  function getMerkleRoot() external view returns (bytes32) {... */\n    tag_12:\n      tag_76\n      tag_77\n      jump\t// in\n    tag_76:\n      mload(0x40)\n      tag_78\n      swap2\n      swap1\n      tag_79\n      jump\t// in\n    tag_78:\n      mload(0x40)\n      dup1\n      swap2\n      sub\n      swap1\n      return\n        /* \"privacy/zkp/TransferProver.sol\":1159:1207  mapping(address => uint256) public tokenBalances */\n    tag_13:\n      tag_80\n      0x04\n      dup1\n      calldatasize\n      sub\n      dup2\n      add\n      swap1\n      tag_81\n      swap2\n      swap1\n      tag_82\n      jump\t// in\n    tag_81:\n      tag_83\n      jump\t// in\n    tag_80:\n      mload(0x40)\n      tag_84\n      swap2\n      swap1\n      tag_41\n      jump\t// in\n    tag_84:\n      mload(0x40)\n      dup1\n      swap2\n      sub\n      swap1\n      return\n        /* \"@openzeppelin/contracts/utils/Pausable.sol\":1850:1934  function paused() public view virtual returns (bool) {... */\n    tag_14:\n      tag_85\n      tag_86\n      jump\t// in\n    tag_85:\n      mload(0x40)\n      tag_87\n      swap2\n      swap1\n      tag_47\n      jump\t// in\n    tag_87:\n      mload(0x40)\n      dup1\n      swap2\n      sub\n      swap1\n      return\n        /* \"privacy/zkp/TransferProver.sol\":627:677  mapping(uint256 => uint256) public deltaComponents */\n    tag_15:\n      tag_88\n      0x04\n      dup1\n      calldatasize\n      sub\n      dup2\n      add\n      swap1\n      tag_89\n      swap2\n      swap1\n      tag_38\n      jump\t// in\n    tag_89:\n      tag_90\n      jump\t// in\n    tag_88:\n      mload(0x40)\n      tag_91\n      swap2\n      swap1\n      tag_41\n      jump\t// in\n    tag_91:\n      mload(0x40)\n      dup1\n      swap2\n      sub\n      swap1\n      return\n        /* \"privacy/zkp/TransferProver.sol\":571:621  mapping(uint256 => uint256) public gammaComponents */\n    tag_16:\n      tag_92\n      0x04\n      dup1\n      calldatasize\n      sub\n      dup2\n      add\n      swap1\n      tag_93\n      swap2\n      swap1\n      tag_38\n      jump\t// in\n    tag_93:\n      tag_94\n      jump\t// in\n    tag_92:\n      mload(0x40)\n      tag_95\n      swap2\n      swap1\n      tag_41\n      jump\t// in\n    tag_95:\n      mload(0x40)\n      dup1\n      swap2\n      sub\n      swap1\n      return\n        /* \"@openzeppelin/contracts/access/Ownable.sol\":2293:2394  function renounceOwnership() public virtual onlyOwner {... */\n    tag_17:\n      tag_96\n      tag_97\n      jump\t// in\n    tag_96:\n      stop\n        /* \"privacy/zkp/TransferProver.sol\":13724:13785  function pause() external onlyOwner {... */\n    tag_18:\n      tag_98\n      tag_99\n      jump\t// in\n    tag_98:\n      stop\n        /* \"privacy/zkp/TransferProver.sol\":993:1030  mapping(bytes32 => Note) public notes */\n    tag_19:\n      tag_100\n      0x04\n      dup1\n      calldatasize\n      sub\n      dup2\n      add\n      swap1\n      tag_101\n      swap2\n      swap1\n      tag_62\n      jump\t// in\n    tag_101:\n      tag_102\n      jump\t// in\n    tag_100:\n      mload(0x40)\n      tag_103\n      swap6\n      swap5\n      swap4\n      swap3\n      swap2\n      swap1\n      tag_104\n      jump\t// in\n    tag_103:\n      mload(0x40)\n      dup1\n      swap2\n      sub\n      swap1\n      return\n        /* \"@openzeppelin/contracts/access/Ownable.sol\":1638:1723  function owner() public view virtual returns (address) {... */\n    tag_20:\n      tag_105\n      tag_106\n      jump\t// in\n    tag_105:\n      mload(0x40)\n      tag_107\n      swap2\n      swap1\n      tag_108\n      jump\t// in\n    tag_107:\n      mload(0x40)\n      dup1\n      swap2\n      sub\n      swap1\n      return\n        /* \"privacy/zkp/TransferProver.sol\":1286:1333  uint256 public constant MERKLE_TREE_LEVELS = 20 */\n    tag_21:\n      tag_109\n      tag_110\n      jump\t// in\n    tag_109:\n      mload(0x40)\n      tag_111\n      swap2\n      swap1\n      tag_41\n      jump\t// in\n    tag_111:\n      mload(0x40)\n      dup1\n      swap2\n      sub\n      swap1\n      return\n        /* \"privacy/zkp/TransferProver.sol\":496:565  mapping(uint256 => mapping(uint256 => uint256)) public betaComponents */\n    tag_22:\n      tag_112\n      0x04\n      dup1\n      calldatasize\n      sub\n      dup2\n      add\n      swap1\n      tag_113\n      swap2\n      swap1\n      tag_114\n      jump\t// in\n    tag_113:\n      tag_115\n      jump\t// in\n    tag_112:\n      mload(0x40)\n      tag_116\n      swap2\n      swap1\n      tag_41\n      jump\t// in\n    tag_116:\n      mload(0x40)\n      dup1\n      swap2\n      sub\n      swap1\n      return\n        /* \"privacy/zkp/TransferProver.sol\":1088:1153  mapping(bytes32 => mapping(uint256 => bytes32)) public merkleTree */\n    tag_23:\n      tag_117\n      0x04\n      dup1\n      calldatasize\n      sub\n      dup2\n      add\n      swap1\n      tag_118\n      swap2\n      swap1\n      tag_119\n      jump\t// in\n    tag_118:\n      tag_120\n      jump\t// in\n    tag_117:\n      mload(0x40)\n      tag_121\n      swap2\n      swap1\n      tag_79\n      jump\t// in\n    tag_121:\n      mload(0x40)\n      dup1\n      swap2\n      sub\n      swap1\n      return\n        /* \"privacy/zkp/TransferProver.sol\":7390:7476  function getMerkleTreeSize() external view returns (uint256) {... */\n    tag_24:\n      tag_122\n      tag_123\n      jump\t// in\n    tag_122:\n      mload(0x40)\n      tag_124\n      swap2\n      swap1\n      tag_41\n      jump\t// in\n    tag_124:\n      mload(0x40)\n      dup1\n      swap2\n      sub\n      swap1\n      return\n        /* \"privacy/zkp/TransferProver.sol\":7630:7930  function hasCommitmentAtIndex(uint256 index) public view returns (bool) {... */\n    tag_25:\n      tag_125\n      0x04\n      dup1\n      calldatasize\n      sub\n      dup2\n      add\n      swap1\n      tag_126\n      swap2\n      swap1\n      tag_38\n      jump\t// in\n    tag_126:\n      tag_127\n      jump\t// in\n    tag_125:\n      mload(0x40)\n      tag_128\n      swap2\n      swap1\n      tag_47\n      jump\t// in\n    tag_128:\n      mload(0x40)\n      dup1\n      swap2\n      sub\n      swap1\n      return\n        /* \"@openzeppelin/contracts/access/Ownable.sol\":2543:2758  function transferOwnership(address newOwner) public virtual onlyOwner {... */\n    tag_26:\n      tag_129\n      0x04\n      dup1\n      calldatasize\n      sub\n      dup2\n      add\n      swap1\n      tag_130\n      swap2\n      swap1\n      tag_82\n      jump\t// in\n    tag_130:\n      tag_131\n      jump\t// in\n    tag_129:\n      stop\n        /* \"privacy/zkp/TransferProver.sol\":1218:1280  uint256 public constant MAX_TRANSFER_AMOUNT = 1000000 * 10**18 */\n    tag_27:\n      tag_132\n      tag_133\n      jump\t// in\n    tag_132:\n      mload(0x40)\n      tag_134\n      swap2\n      swap1\n      tag_41\n      jump\t// in\n    tag_134:\n      mload(0x40)\n      dup1\n      swap2\n      sub\n      swap1\n      return\n        /* \"privacy/zkp/TransferProver.sol\":683:750  mapping(uint256 => mapping(uint256 => uint256)) public icComponents */\n    tag_28:\n      tag_135\n      0x04\n      dup1\n      calldatasize\n      sub\n      dup2\n      add\n      swap1\n      tag_136\n      swap2\n      swap1\n      tag_114\n      jump\t// in\n    tag_136:\n      tag_137\n      jump\t// in\n    tag_135:\n      mload(0x40)\n      tag_138\n      swap2\n      swap1\n      tag_41\n      jump\t// in\n    tag_138:\n      mload(0x40)\n      dup1\n      swap2\n      sub\n      swap1\n      return\n        /* \"privacy/zkp/TransferProver.sol\":1339:1365  uint256 public currentRoot */\n    tag_29:\n      tag_139\n      tag_140\n      jump\t// in\n    tag_139:\n      mload(0x40)\n      tag_141\n      swap2\n      swap1\n      tag_41\n      jump\t// in\n    tag_141:\n      mload(0x40)\n      dup1\n      swap2\n      sub\n      swap1\n      return\n        /* \"privacy/zkp/TransferProver.sol\":440:490  mapping(uint256 => uint256) public alphaComponents */\n    tag_39:\n      mstore(0x20, 0x03)\n      dup1\n      0x00\n      mstore\n      keccak256(0x00, 0x40)\n      0x00\n      swap2\n      pop\n      swap1\n      pop\n      sload\n      dup2\n      jump\t// out\n        /* \"privacy/zkp/TransferProver.sol\":9394:10128  function verifyMerkleProof(... */\n    tag_45:\n        /* \"privacy/zkp/TransferProver.sol\":9533:9537  bool */\n      0x00\n        /* \"privacy/zkp/TransferProver.sol\":1331:1333  20 */\n      0x14\n        /* \"privacy/zkp/TransferProver.sol\":9553:9561  siblings */\n      dup6\n      dup6\n        /* \"privacy/zkp/TransferProver.sol\":9553:9568  siblings.length */\n      swap1\n      pop\n        /* \"privacy/zkp/TransferProver.sol\":9553:9590  siblings.length == MERKLE_TREE_LEVELS */\n      eq\n        /* \"privacy/zkp/TransferProver.sol\":9545:9615  require(siblings.length == MERKLE_TREE_LEVELS, \"Invalid proof length\") */\n      tag_143\n      jumpi\n      mload(0x40)\n      0x08c379a000000000000000000000000000000000000000000000000000000000\n      dup2\n      mstore\n      0x04\n      add\n      tag_144\n      swap1\n      tag_145\n      jump\t// in\n    tag_144:\n      mload(0x40)\n      dup1\n      swap2\n      sub\n      swap1\n      revert\n    tag_143:\n        /* \"privacy/zkp/TransferProver.sol\":1331:1333  20 */\n      0x14\n        /* \"privacy/zkp/TransferProver.sol\":9629:9636  indices */\n      dup4\n      dup4\n        /* \"privacy/zkp/TransferProver.sol\":9629:9643  indices.length */\n      swap1\n      pop\n        /* \"privacy/zkp/TransferProver.sol\":9629:9665  indices.length == MERKLE_TREE_LEVELS */\n      eq\n        /* \"privacy/zkp/TransferProver.sol\":9621:9692  require(indices.length == MERKLE_TREE_LEVELS, \"Invalid indices length\") */\n      tag_146\n      jumpi\n      mload(0x40)\n      0x08c379a000000000000000000000000000000000000000000000000000000000\n      dup2\n      mstore\n      0x04\n      add\n      tag_147\n      swap1\n      tag_148\n      jump\t// in\n    tag_147:\n      mload(0x40)\n      dup1\n      swap2\n      sub\n      swap1\n      revert\n    tag_146:\n        /* \"privacy/zkp/TransferProver.sol\":9699:9718  bytes32 currentHash */\n      0x00\n        /* \"privacy/zkp/TransferProver.sol\":9721:9731  commitment */\n      dup7\n        /* \"privacy/zkp/TransferProver.sol\":9699:9731  bytes32 currentHash = commitment */\n      swap1\n      pop\n        /* \"privacy/zkp/TransferProver.sol\":9747:9756  uint256 i */\n      0x00\n        /* \"privacy/zkp/TransferProver.sol\":9742:10077  for (uint256 i = 0; i < MERKLE_TREE_LEVELS; i++) {... */\n    tag_149:\n        /* \"privacy/zkp/TransferProver.sol\":1331:1333  20 */\n      0x14\n        /* \"privacy/zkp/TransferProver.sol\":9762:9763  i */\n      dup2\n        /* \"privacy/zkp/TransferProver.sol\":9762:9784  i < MERKLE_TREE_LEVELS */\n      lt\n        /* \"privacy/zkp/TransferProver.sol\":9742:10077  for (uint256 i = 0; i < MERKLE_TREE_LEVELS; i++) {... */\n      iszero\n      tag_150\n      jumpi\n        /* \"privacy/zkp/TransferProver.sol\":9801:9816  bytes32 sibling */\n      0x00\n        /* \"privacy/zkp/TransferProver.sol\":9819:9827  siblings */\n      dup8\n      dup8\n        /* \"privacy/zkp/TransferProver.sol\":9828:9829  i */\n      dup4\n        /* \"privacy/zkp/TransferProver.sol\":9819:9830  siblings[i] */\n      dup2\n      dup2\n      lt\n      tag_152\n      jumpi\n      tag_153\n      tag_154\n      jump\t// in\n    tag_153:\n    tag_152:\n      swap1\n      pop\n      0x20\n      mul\n      add\n      calldataload\n        /* \"privacy/zkp/TransferProver.sol\":9801:9830  bytes32 sibling = siblings[i] */\n      swap1\n      pop\n        /* \"privacy/zkp/TransferProver.sol\":9924:9925  0 */\n      0x00\n        /* \"privacy/zkp/TransferProver.sol\":9910:9917  indices */\n      dup7\n      dup7\n        /* \"privacy/zkp/TransferProver.sol\":9918:9919  i */\n      dup5\n        /* \"privacy/zkp/TransferProver.sol\":9910:9920  indices[i] */\n      dup2\n      dup2\n      lt\n      tag_155\n      jumpi\n      tag_156\n      tag_154\n      jump\t// in\n    tag_156:\n    tag_155:\n      swap1\n      pop\n      0x20\n      mul\n      add\n      calldataload\n        /* \"privacy/zkp/TransferProver.sol\":9910:9925  indices[i] == 0 */\n      sub\n        /* \"privacy/zkp/TransferProver.sol\":9906:10071  if (indices[i] == 0) {... */\n      tag_157\n      jumpi\n        /* \"privacy/zkp/TransferProver.sol\":9955:9985  hashPair(currentHash, sibling) */\n      tag_158\n        /* \"privacy/zkp/TransferProver.sol\":9964:9975  currentHash */\n      dup4\n        /* \"privacy/zkp/TransferProver.sol\":9977:9984  sibling */\n      dup3\n        /* \"privacy/zkp/TransferProver.sol\":9955:9963  hashPair */\n      tag_159\n        /* \"privacy/zkp/TransferProver.sol\":9955:9985  hashPair(currentHash, sibling) */\n      jump\t// in\n    tag_158:\n        /* \"privacy/zkp/TransferProver.sol\":9941:9985  currentHash = hashPair(currentHash, sibling) */\n      swap3\n      pop\n        /* \"privacy/zkp/TransferProver.sol\":9906:10071  if (indices[i] == 0) {... */\n      jump(tag_160)\n    tag_157:\n        /* \"privacy/zkp/TransferProver.sol\":10030:10060  hashPair(sibling, currentHash) */\n      tag_161\n        /* \"privacy/zkp/TransferProver.sol\":10039:10046  sibling */\n      dup2\n        /* \"privacy/zkp/TransferProver.sol\":10048:10059  currentHash */\n      dup5\n        /* \"privacy/zkp/TransferProver.sol\":10030:10038  hashPair */\n      tag_159\n        /* \"privacy/zkp/TransferProver.sol\":10030:10060  hashPair(sibling, currentHash) */\n      jump\t// in\n    tag_161:\n        /* \"privacy/zkp/TransferProver.sol\":10016:10060  currentHash = hashPair(sibling, currentHash) */\n      swap3\n      pop\n        /* \"privacy/zkp/TransferProver.sol\":9906:10071  if (indices[i] == 0) {... */\n    tag_160:\n        /* \"privacy/zkp/TransferProver.sol\":9791:10077  {... */\n      pop\n        /* \"privacy/zkp/TransferProver.sol\":9786:9789  i++ */\n      dup1\n      dup1\n      0x01\n      add\n      swap2\n      pop\n      pop\n        /* \"privacy/zkp/TransferProver.sol\":9742:10077  for (uint256 i = 0; i < MERKLE_TREE_LEVELS; i++) {... */\n      jump(tag_149)\n    tag_150:\n      pop\n        /* \"privacy/zkp/TransferProver.sol\":10114:10125  currentHash */\n      dup1\n        /* \"privacy/zkp/TransferProver.sol\":10098:10109  currentRoot */\n      sload(0x0d)\n        /* \"privacy/zkp/TransferProver.sol\":10090:10110  bytes32(currentRoot) */\n      0x00\n      shl\n        /* \"privacy/zkp/TransferProver.sol\":10090:10125  bytes32(currentRoot) == currentHash */\n      eq\n        /* \"privacy/zkp/TransferProver.sol\":10083:10125  return bytes32(currentRoot) == currentHash */\n      swap2\n      pop\n      pop\n        /* \"privacy/zkp/TransferProver.sol\":9394:10128  function verifyMerkleProof(... */\n      swap6\n      swap5\n      pop\n      pop\n      pop\n      pop\n      pop\n      jump\t// out\n        /* \"privacy/zkp/TransferProver.sol\":2183:2525  function verifyProof(... */\n    tag_51:\n        /* \"privacy/zkp/TransferProver.sol\":2312:2316  bool */\n      0x00\n        /* \"privacy/zkp/TransferProver.sol\":2335:2518  _verifyProof(... */\n      tag_163\n      mload(0x40)\n      dup1\n      0x40\n      add\n      0x40\n      mstore\n      dup1\n        /* \"privacy/zkp/TransferProver.sol\":2362:2367  proof */\n      dup6\n        /* \"privacy/zkp/TransferProver.sol\":2368:2369  0 */\n      0x00\n        /* \"privacy/zkp/TransferProver.sol\":2362:2370  proof[0] */\n      0x08\n      dup2\n      lt\n      tag_164\n      jumpi\n      tag_165\n      tag_154\n      jump\t// in\n    tag_165:\n    tag_164:\n      0x20\n      mul\n      add\n      calldataload\n        /* \"privacy/zkp/TransferProver.sol\":2335:2518  _verifyProof(... */\n      dup2\n      mstore\n      0x20\n      add\n        /* \"privacy/zkp/TransferProver.sol\":2372:2377  proof */\n      dup6\n        /* \"privacy/zkp/TransferProver.sol\":2378:2379  1 */\n      0x01\n        /* \"privacy/zkp/TransferProver.sol\":2372:2380  proof[1] */\n      0x08\n      dup2\n      lt\n      tag_166\n      jumpi\n      tag_167\n      tag_154\n      jump\t// in\n    tag_167:\n    tag_166:\n      0x20\n      mul\n      add\n      calldataload\n        /* \"privacy/zkp/TransferProver.sol\":2335:2518  _verifyProof(... */\n      dup2\n      mstore\n      pop\n      mload(0x40)\n      dup1\n      0x40\n      add\n      0x40\n      mstore\n      dup1\n      mload(0x40)\n      dup1\n      0x40\n      add\n      0x40\n      mstore\n      dup1\n        /* \"privacy/zkp/TransferProver.sol\":2403:2408  proof */\n      dup9\n        /* \"privacy/zkp/TransferProver.sol\":2409:2410  2 */\n      0x02\n        /* \"privacy/zkp/TransferProver.sol\":2403:2411  proof[2] */\n      0x08\n      dup2\n      lt\n      tag_168\n      jumpi\n      tag_169\n      tag_154\n      jump\t// in\n    tag_169:\n    tag_168:\n      0x20\n      mul\n      add\n      calldataload\n        /* \"privacy/zkp/TransferProver.sol\":2335:2518  _verifyProof(... */\n      dup2\n      mstore\n      0x20\n      add\n        /* \"privacy/zkp/TransferProver.sol\":2413:2418  proof */\n      dup9\n        /* \"privacy/zkp/TransferProver.sol\":2419:2420  3 */\n      0x03\n        /* \"privacy/zkp/TransferProver.sol\":2413:2421  proof[3] */\n      0x08\n      dup2\n      lt\n      tag_170\n      jumpi\n      tag_171\n      tag_154\n      jump\t// in\n    tag_171:\n    tag_170:\n      0x20\n      mul\n      add\n      calldataload\n        /* \"privacy/zkp/TransferProver.sol\":2335:2518  _verifyProof(... */\n      dup2\n      mstore\n      pop\n      dup2\n      mstore\n      0x20\n      add\n      mload(0x40)\n      dup1\n      0x40\n      add\n      0x40\n      mstore\n      dup1\n        /* \"privacy/zkp/TransferProver.sol\":2425:2430  proof */\n      dup9\n        /* \"privacy/zkp/TransferProver.sol\":2431:2432  4 */\n      0x04\n        /* \"privacy/zkp/TransferProver.sol\":2425:2433  proof[4] */\n      0x08\n      dup2\n      lt\n      tag_172\n      jumpi\n      tag_173\n      tag_154\n      jump\t// in\n    tag_173:\n    tag_172:\n      0x20\n      mul\n      add\n      calldataload\n        /* \"privacy/zkp/TransferProver.sol\":2335:2518  _verifyProof(... */\n      dup2\n      mstore\n      0x20\n      add\n        /* \"privacy/zkp/TransferProver.sol\":2435:2440  proof */\n      dup9\n        /* \"privacy/zkp/TransferProver.sol\":2441:2442  5 */\n      0x05\n        /* \"privacy/zkp/TransferProver.sol\":2435:2443  proof[5] */\n      0x08\n      dup2\n      lt\n      tag_174\n      jumpi\n      tag_175\n      tag_154\n      jump\t// in\n    tag_175:\n    tag_174:\n      0x20\n      mul\n      add\n      calldataload\n        /* \"privacy/zkp/TransferProver.sol\":2335:2518  _verifyProof(... */\n      dup2\n      mstore\n      pop\n      dup2\n      mstore\n      pop\n      mload(0x40)\n      dup1\n      0x40\n      add\n      0x40\n      mstore\n      dup1\n        /* \"privacy/zkp/TransferProver.sol\":2465:2470  proof */\n      dup8\n        /* \"privacy/zkp/TransferProver.sol\":2471:2472  6 */\n      0x06\n        /* \"privacy/zkp/TransferProver.sol\":2465:2473  proof[6] */\n      0x08\n      dup2\n      lt\n      tag_176\n      jumpi\n      tag_177\n      tag_154\n      jump\t// in\n    tag_177:\n    tag_176:\n      0x20\n      mul\n      add\n      calldataload\n        /* \"privacy/zkp/TransferProver.sol\":2335:2518  _verifyProof(... */\n      dup2\n      mstore\n      0x20\n      add\n        /* \"privacy/zkp/TransferProver.sol\":2475:2480  proof */\n      dup8\n        /* \"privacy/zkp/TransferProver.sol\":2481:2482  7 */\n      0x07\n        /* \"privacy/zkp/TransferProver.sol\":2475:2483  proof[7] */\n      0x08\n      dup2\n      lt\n      tag_178\n      jumpi\n      tag_179\n      tag_154\n      jump\t// in\n    tag_179:\n    tag_178:\n      0x20\n      mul\n      add\n      calldataload\n        /* \"privacy/zkp/TransferProver.sol\":2335:2518  _verifyProof(... */\n      dup2\n      mstore\n      pop\n        /* \"privacy/zkp/TransferProver.sol\":2503:2508  input */\n      dup6\n        /* \"privacy/zkp/TransferProver.sol\":2335:2518  _verifyProof(... */\n      0x01\n      dup1\n      0x20\n      mul\n      mload(0x40)\n      swap1\n      dup2\n      add\n      0x40\n      mstore\n      dup1\n      swap3\n      swap2\n      swap1\n      dup3\n      mul(0x20, 0x01)\n      dup1\n      dup3\n      dup5\n      calldatacopy\n      0x00\n      dup2\n      dup5\n      add\n      mstore\n      not(0x1f)\n      0x1f\n      dup3\n      add\n      and\n      swap1\n      pop\n      dup1\n      dup4\n      add\n      swap3\n      pop\n      pop\n      pop\n      pop\n      pop\n      pop\n        /* \"privacy/zkp/TransferProver.sol\":2335:2347  _verifyProof */\n      tag_180\n        /* \"privacy/zkp/TransferProver.sol\":2335:2518  _verifyProof(... */\n      jump\t// in\n    tag_163:\n        /* \"privacy/zkp/TransferProver.sol\":2328:2518  return _verifyProof(... */\n      swap1\n      pop\n        /* \"privacy/zkp/TransferProver.sol\":2183:2525  function verifyProof(... */\n      swap3\n      swap2\n      pop\n      pop\n      jump\t// out\n        /* \"privacy/zkp/TransferProver.sol\":4797:6194  function spendNote(... */\n    tag_56:\n        /* \"@openzeppelin/contracts/utils/ReentrancyGuard.sol\":2500:2521  _nonReentrantBefore() */\n      tag_182\n        /* \"@openzeppelin/contracts/utils/ReentrancyGuard.sol\":2500:2519  _nonReentrantBefore */\n      tag_183\n        /* \"@openzeppelin/contracts/utils/ReentrancyGuard.sol\":2500:2521  _nonReentrantBefore() */\n      jump\t// in\n    tag_182:\n        /* \"@openzeppelin/contracts/utils/Pausable.sol\":1474:1493  _requireNotPaused() */\n      tag_185\n        /* \"@openzeppelin/contracts/utils/Pausable.sol\":1474:1491  _requireNotPaused */\n      tag_186\n        /* \"@openzeppelin/contracts/utils/Pausable.sol\":1474:1493  _requireNotPaused() */\n      jump\t// in\n    tag_185:\n        /* \"privacy/zkp/TransferProver.sol\":5006:5020  nullifierSpent */\n      0x0a\n        /* \"privacy/zkp/TransferProver.sol\":5006:5031  nullifierSpent[nullifier] */\n      0x00\n        /* \"privacy/zkp/TransferProver.sol\":5021:5030  nullifier */\n      dup6\n        /* \"privacy/zkp/TransferProver.sol\":5006:5031  nullifierSpent[nullifier] */\n      dup2\n      mstore\n      0x20\n      add\n      swap1\n      dup2\n      mstore\n      0x20\n      add\n      0x00\n      keccak256\n      0x00\n      swap1\n      sload\n      swap1\n      0x0100\n      exp\n      swap1\n      div\n      0xff\n      and\n        /* \"privacy/zkp/TransferProver.sol\":5005:5031  !nullifierSpent[nullifier] */\n      iszero\n        /* \"privacy/zkp/TransferProver.sol\":4997:5059  require(!nullifierSpent[nullifier], \"Nullifier already spent\") */\n      tag_188\n      jumpi\n      mload(0x40)\n      0x08c379a000000000000000000000000000000000000000000000000000000000\n      dup2\n      mstore\n      0x04\n      add\n      tag_189\n      swap1\n      tag_190\n      jump\t// in\n    tag_189:\n      mload(0x40)\n      dup1\n      swap2\n      sub\n      swap1\n      revert\n    tag_188:\n        /* \"privacy/zkp/TransferProver.sol\":5078:5100  Note storage spentNote */\n      0x00\n        /* \"privacy/zkp/TransferProver.sol\":5103:5108  notes */\n      0x09\n        /* \"privacy/zkp/TransferProver.sol\":5103:5125  notes[inputCommitment] */\n      0x00\n        /* \"privacy/zkp/TransferProver.sol\":5109:5124  inputCommitment */\n      dup6\n        /* \"privacy/zkp/TransferProver.sol\":5103:5125  notes[inputCommitment] */\n      dup2\n      mstore\n      0x20\n      add\n      swap1\n      dup2\n      mstore\n      0x20\n      add\n      0x00\n      keccak256\n        /* \"privacy/zkp/TransferProver.sol\":5078:5125  Note storage spentNote = notes[inputCommitment] */\n      swap1\n      pop\n        /* \"privacy/zkp/TransferProver.sol\":5167:5182  inputCommitment */\n      dup4\n        /* \"privacy/zkp/TransferProver.sol\":5143:5152  spentNote */\n      dup2\n        /* \"privacy/zkp/TransferProver.sol\":5143:5163  spentNote.commitment */\n      0x00\n      add\n      sload\n        /* \"privacy/zkp/TransferProver.sol\":5143:5182  spentNote.commitment == inputCommitment */\n      eq\n        /* \"privacy/zkp/TransferProver.sol\":5135:5201  require(spentNote.commitment == inputCommitment, \"Note not found\") */\n      tag_191\n      jumpi\n      mload(0x40)\n      0x08c379a000000000000000000000000000000000000000000000000000000000\n      dup2\n      mstore\n      0x04\n      add\n      tag_192\n      swap1\n      tag_193\n      jump\t// in\n    tag_192:\n      mload(0x40)\n      dup1\n      swap2\n      sub\n      swap1\n      revert\n    tag_191:\n        /* \"privacy/zkp/TransferProver.sol\":5220:5229  spentNote */\n      dup1\n        /* \"privacy/zkp/TransferProver.sol\":5220:5235  spentNote.spent */\n      0x03\n      add\n      0x14\n      swap1\n      sload\n      swap1\n      0x0100\n      exp\n      swap1\n      div\n      0xff\n      and\n        /* \"privacy/zkp/TransferProver.sol\":5219:5235  !spentNote.spent */\n      iszero\n        /* \"privacy/zkp/TransferProver.sol\":5211:5258  require(!spentNote.spent, \"Note already spent\") */\n      tag_194\n      jumpi\n      mload(0x40)\n      0x08c379a000000000000000000000000000000000000000000000000000000000\n      dup2\n      mstore\n      0x04\n      add\n      tag_195\n      swap1\n      tag_196\n      jump\t// in\n    tag_195:\n      mload(0x40)\n      dup1\n      swap2\n      sub\n      swap1\n      revert\n    tag_194:\n        /* \"privacy/zkp/TransferProver.sol\":5302:5325  uint256[1] memory input */\n      0x00\n        /* \"privacy/zkp/TransferProver.sol\":5302:5358  uint256[1] memory input = [uint256(uint160(msg.sender))] */\n      mload(0x40)\n      dup1\n      0x20\n      add\n      0x40\n      mstore\n      dup1\n        /* \"privacy/zkp/TransferProver.sol\":5345:5355  msg.sender */\n      caller\n        /* \"privacy/zkp/TransferProver.sol\":5329:5357  uint256(uint160(msg.sender)) */\n      0xffffffffffffffffffffffffffffffffffffffff\n      and\n        /* \"privacy/zkp/TransferProver.sol\":5302:5358  uint256[1] memory input = [uint256(uint160(msg.sender))] */\n      dup2\n      mstore\n      pop\n      swap1\n      pop\n        /* \"privacy/zkp/TransferProver.sol\":5389:5393  this */\n      address\n        /* \"privacy/zkp/TransferProver.sol\":5389:5405  this.verifyProof */\n      0xffffffffffffffffffffffffffffffffffffffff\n      and\n      0x1b81f829\n        /* \"privacy/zkp/TransferProver.sol\":5406:5411  proof */\n      dup5\n        /* \"privacy/zkp/TransferProver.sol\":5413:5418  input */\n      dup4\n        /* \"privacy/zkp/TransferProver.sol\":5389:5419  this.verifyProof(proof, input) */\n      mload(0x40)\n      dup4\n      0xffffffff\n      and\n      0xe0\n      shl\n      dup2\n      mstore\n      0x04\n      add\n      tag_197\n      swap3\n      swap2\n      swap1\n      tag_198\n      jump\t// in\n    tag_197:\n      0x20\n      mload(0x40)\n      dup1\n      dup4\n      sub\n      dup2\n      dup7\n      gas\n      staticcall\n      iszero\n      dup1\n      iszero\n      tag_200\n      jumpi\n      returndatasize\n      0x00\n      dup1\n      returndatacopy\n      revert(0x00, returndatasize)\n    tag_200:\n      pop\n      pop\n      pop\n      pop\n      mload(0x40)\n      returndatasize\n      not(0x1f)\n      0x1f\n      dup3\n      add\n      and\n      dup3\n      add\n      dup1\n      0x40\n      mstore\n      pop\n      dup2\n      add\n      swap1\n      tag_201\n      swap2\n      swap1\n      tag_202\n      jump\t// in\n    tag_201:\n        /* \"privacy/zkp/TransferProver.sol\":5368:5458  require(... */\n      tag_203\n      jumpi\n      mload(0x40)\n      0x08c379a000000000000000000000000000000000000000000000000000000000\n      dup2\n      mstore\n      0x04\n      add\n      tag_204\n      swap1\n      tag_205\n      jump\t// in\n    tag_204:\n      mload(0x40)\n      dup1\n      swap2\n      sub\n      swap1\n      revert\n    tag_203:\n        /* \"privacy/zkp/TransferProver.sol\":5532:5536  true */\n      0x01\n        /* \"privacy/zkp/TransferProver.sol\":5504:5518  nullifierSpent */\n      0x0a\n        /* \"privacy/zkp/TransferProver.sol\":5504:5529  nullifierSpent[nullifier] */\n      0x00\n        /* \"privacy/zkp/TransferProver.sol\":5519:5528  nullifier */\n      dup9\n        /* \"privacy/zkp/TransferProver.sol\":5504:5529  nullifierSpent[nullifier] */\n      dup2\n      mstore\n      0x20\n      add\n      swap1\n      dup2\n      mstore\n      0x20\n      add\n      0x00\n      keccak256\n      0x00\n        /* \"privacy/zkp/TransferProver.sol\":5504:5536  nullifierSpent[nullifier] = true */\n      0x0100\n      exp\n      dup2\n      sload\n      dup2\n      0xff\n      mul\n      not\n      and\n      swap1\n      dup4\n      iszero\n      iszero\n      mul\n      or\n      swap1\n      sstore\n      pop\n        /* \"privacy/zkp/TransferProver.sol\":5564:5568  true */\n      0x01\n        /* \"privacy/zkp/TransferProver.sol\":5546:5555  spentNote */\n      dup3\n        /* \"privacy/zkp/TransferProver.sol\":5546:5561  spentNote.spent */\n      0x03\n      add\n      0x14\n        /* \"privacy/zkp/TransferProver.sol\":5546:5568  spentNote.spent = true */\n      0x0100\n      exp\n      dup2\n      sload\n      dup2\n      0xff\n      mul\n      not\n      and\n      swap1\n      dup4\n      iszero\n      iszero\n      mul\n      or\n      swap1\n      sstore\n      pop\n        /* \"privacy/zkp/TransferProver.sol\":5600:5609  nullifier */\n      dup6\n        /* \"privacy/zkp/TransferProver.sol\":5578:5587  spentNote */\n      dup3\n        /* \"privacy/zkp/TransferProver.sol\":5578:5597  spentNote.nullifier */\n      0x01\n      add\n        /* \"privacy/zkp/TransferProver.sol\":5578:5609  spentNote.nullifier = nullifier */\n      dup2\n      swap1\n      sstore\n      pop\n        /* \"privacy/zkp/TransferProver.sol\":5673:5866  Note({... */\n      mload(0x40)\n      dup1\n      0xa0\n      add\n      0x40\n      mstore\n      dup1\n        /* \"privacy/zkp/TransferProver.sol\":5704:5720  outputCommitment */\n      dup6\n        /* \"privacy/zkp/TransferProver.sol\":5673:5866  Note({... */\n      dup2\n      mstore\n      0x20\n      add\n        /* \"privacy/zkp/TransferProver.sol\":5753:5754  0 */\n      0x00\n        /* \"privacy/zkp/TransferProver.sol\":5745:5755  bytes32(0) */\n      dup1\n      shl\n        /* \"privacy/zkp/TransferProver.sol\":5673:5866  Note({... */\n      dup2\n      mstore\n      0x20\n      add\n        /* \"privacy/zkp/TransferProver.sol\":5777:5786  spentNote */\n      dup4\n        /* \"privacy/zkp/TransferProver.sol\":5777:5793  spentNote.amount */\n      0x02\n      add\n      sload\n        /* \"privacy/zkp/TransferProver.sol\":5673:5866  Note({... */\n      dup2\n      mstore\n      0x20\n      add\n        /* \"privacy/zkp/TransferProver.sol\":5814:5823  spentNote */\n      dup4\n        /* \"privacy/zkp/TransferProver.sol\":5814:5829  spentNote.token */\n      0x03\n      add\n      0x00\n      swap1\n      sload\n      swap1\n      0x0100\n      exp\n      swap1\n      div\n      0xffffffffffffffffffffffffffffffffffffffff\n      and\n        /* \"privacy/zkp/TransferProver.sol\":5673:5866  Note({... */\n      0xffffffffffffffffffffffffffffffffffffffff\n      and\n      dup2\n      mstore\n      0x20\n      add\n        /* \"privacy/zkp/TransferProver.sol\":5850:5855  false */\n      0x00\n        /* \"privacy/zkp/TransferProver.sol\":5673:5866  Note({... */\n      iszero\n      iszero\n      dup2\n      mstore\n      pop\n        /* \"privacy/zkp/TransferProver.sol\":5647:5652  notes */\n      0x09\n        /* \"privacy/zkp/TransferProver.sol\":5647:5670  notes[outputCommitment] */\n      0x00\n        /* \"privacy/zkp/TransferProver.sol\":5653:5669  outputCommitment */\n      dup7\n        /* \"privacy/zkp/TransferProver.sol\":5647:5670  notes[outputCommitment] */\n      dup2\n      mstore\n      0x20\n      add\n      swap1\n      dup2\n      mstore\n      0x20\n      add\n      0x00\n      keccak256\n        /* \"privacy/zkp/TransferProver.sol\":5647:5866  notes[outputCommitment] = Note({... */\n      0x00\n      dup3\n      add\n      mload\n      dup2\n      0x00\n      add\n      sstore\n      0x20\n      dup3\n      add\n      mload\n      dup2\n      0x01\n      add\n      sstore\n      0x40\n      dup3\n      add\n      mload\n      dup2\n      0x02\n      add\n      sstore\n      0x60\n      dup3\n      add\n      mload\n      dup2\n      0x03\n      add\n      exp(0x0100, 0x00)\n      dup2\n      sload\n      dup2\n      0xffffffffffffffffffffffffffffffffffffffff\n      mul\n      not\n      and\n      swap1\n      dup4\n      0xffffffffffffffffffffffffffffffffffffffff\n      and\n      mul\n      or\n      swap1\n      sstore\n      pop\n      0x80\n      dup3\n      add\n      mload\n      dup2\n      0x03\n      add\n      exp(0x0100, 0x14)\n      dup2\n      sload\n      dup2\n      0xff\n      mul\n      not\n      and\n      swap1\n      dup4\n      iszero\n      iszero\n      mul\n      or\n      swap1\n      sstore\n      pop\n      swap1\n      pop\n      pop\n        /* \"privacy/zkp/TransferProver.sol\":5916:5954  insertIntoMerkleTree(outputCommitment) */\n      tag_206\n        /* \"privacy/zkp/TransferProver.sol\":5937:5953  outputCommitment */\n      dup5\n        /* \"privacy/zkp/TransferProver.sol\":5916:5936  insertIntoMerkleTree */\n      tag_207\n        /* \"privacy/zkp/TransferProver.sol\":5916:5954  insertIntoMerkleTree(outputCommitment) */\n      jump\t// in\n    tag_206:\n      pop\n        /* \"privacy/zkp/TransferProver.sol\":5991:6000  spentNote */\n      dup2\n        /* \"privacy/zkp/TransferProver.sol\":5991:6006  spentNote.token */\n      0x03\n      add\n      0x00\n      swap1\n      sload\n      swap1\n      0x0100\n      exp\n      swap1\n      div\n      0xffffffffffffffffffffffffffffffffffffffff\n      and\n        /* \"privacy/zkp/TransferProver.sol\":5970:6024  NoteSpent(nullifier, spentNote.token, block.timestamp) */\n      0xffffffffffffffffffffffffffffffffffffffff\n      and\n        /* \"privacy/zkp/TransferProver.sol\":5980:5989  nullifier */\n      dup7\n        /* \"privacy/zkp/TransferProver.sol\":5970:6024  NoteSpent(nullifier, spentNote.token, block.timestamp) */\n      0x75fbe81d6ba35c853dd6f90725a9d8a9aa442f562daec842f257dca0a2e52168\n        /* \"privacy/zkp/TransferProver.sol\":6008:6023  block.timestamp */\n      timestamp\n        /* \"privacy/zkp/TransferProver.sol\":5970:6024  NoteSpent(nullifier, spentNote.token, block.timestamp) */\n      mload(0x40)\n      tag_208\n      swap2\n      swap1\n      tag_41\n      jump\t// in\n    tag_208:\n      mload(0x40)\n      dup1\n      swap2\n      sub\n      swap1\n      log3\n        /* \"privacy/zkp/TransferProver.sol\":6133:6142  spentNote */\n      dup2\n        /* \"privacy/zkp/TransferProver.sol\":6133:6148  spentNote.token */\n      0x03\n      add\n      0x00\n      swap1\n      sload\n      swap1\n      0x0100\n      exp\n      swap1\n      div\n      0xffffffffffffffffffffffffffffffffffffffff\n      and\n        /* \"privacy/zkp/TransferProver.sol\":6039:6187  TransferProofVerified(... */\n      0xffffffffffffffffffffffffffffffffffffffff\n      and\n        /* \"privacy/zkp/TransferProver.sol\":6103:6119  outputCommitment */\n      dup5\n        /* \"privacy/zkp/TransferProver.sol\":6074:6089  inputCommitment */\n      dup7\n        /* \"privacy/zkp/TransferProver.sol\":6039:6187  TransferProofVerified(... */\n      0xb16f88469e6333da7fca2f33f5a3cb03354fbf8e0b773ed465f90d391ffd16cd\n        /* \"privacy/zkp/TransferProver.sol\":6162:6177  block.timestamp */\n      timestamp\n        /* \"privacy/zkp/TransferProver.sol\":6039:6187  TransferProofVerified(... */\n      mload(0x40)\n      tag_209\n      swap2\n      swap1\n      tag_41\n      jump\t// in\n    tag_209:\n      mload(0x40)\n      dup1\n      swap2\n      sub\n      swap1\n      log4\n        /* \"privacy/zkp/TransferProver.sol\":4987:6194  {... */\n      pop\n      pop\n        /* \"@openzeppelin/contracts/utils/ReentrancyGuard.sol\":2542:2562  _nonReentrantAfter() */\n      tag_210\n        /* \"@openzeppelin/contracts/utils/ReentrancyGuard.sol\":2542:2560  _nonReentrantAfter */\n      tag_211\n        /* \"@openzeppelin/contracts/utils/ReentrancyGuard.sol\":2542:2562  _nonReentrantAfter() */\n      jump\t// in\n    tag_210:\n        /* \"privacy/zkp/TransferProver.sol\":4797:6194  function spendNote(... */\n      pop\n      pop\n      pop\n      pop\n      jump\t// out\n        /* \"privacy/zkp/TransferProver.sol\":756:779  uint256 public icLength */\n    tag_58:\n      sload(0x08)\n      dup2\n      jump\t// out\n        /* \"privacy/zkp/TransferProver.sol\":8307:9174  function getMerkleProof(bytes32 commitment) external view returns (... */\n    tag_63:\n        /* \"privacy/zkp/TransferProver.sol\":8379:8404  bytes32[] memory siblings */\n      0x60\n        /* \"privacy/zkp/TransferProver.sol\":8410:8434  uint256[] memory indices */\n      dup1\n        /* \"privacy/zkp/TransferProver.sol\":8491:8492  0 */\n      0x00\n        /* \"privacy/zkp/TransferProver.sol\":8483:8493  bytes32(0) */\n      dup1\n      shl\n        /* \"privacy/zkp/TransferProver.sol\":8451:8456  notes */\n      0x09\n        /* \"privacy/zkp/TransferProver.sol\":8451:8468  notes[commitment] */\n      0x00\n        /* \"privacy/zkp/TransferProver.sol\":8457:8467  commitment */\n      dup6\n        /* \"privacy/zkp/TransferProver.sol\":8451:8468  notes[commitment] */\n      dup2\n      mstore\n      0x20\n      add\n      swap1\n      dup2\n      mstore\n      0x20\n      add\n      0x00\n      keccak256\n        /* \"privacy/zkp/TransferProver.sol\":8451:8479  notes[commitment].commitment */\n      0x00\n      add\n      sload\n        /* \"privacy/zkp/TransferProver.sol\":8451:8493  notes[commitment].commitment != bytes32(0) */\n      sub\n        /* \"privacy/zkp/TransferProver.sol\":8443:8512  require(notes[commitment].commitment != bytes32(0), \"Note not found\") */\n      tag_213\n      jumpi\n      mload(0x40)\n      0x08c379a000000000000000000000000000000000000000000000000000000000\n      dup2\n      mstore\n      0x04\n      add\n      tag_214\n      swap1\n      tag_193\n      jump\t// in\n    tag_214:\n      mload(0x40)\n      dup1\n      swap2\n      sub\n      swap1\n      revert\n    tag_213:\n        /* \"privacy/zkp/TransferProver.sol\":1331:1333  20 */\n      0x14\n        /* \"privacy/zkp/TransferProver.sol\":8530:8563  new bytes32[](MERKLE_TREE_LEVELS) */\n      0xffffffffffffffff\n      dup2\n      gt\n      iszero\n      tag_215\n      jumpi\n      tag_216\n      tag_217\n      jump\t// in\n    tag_216:\n    tag_215:\n      mload(0x40)\n      swap1\n      dup1\n      dup3\n      mstore\n      dup1\n      0x20\n      mul\n      0x20\n      add\n      dup3\n      add\n      0x40\n      mstore\n      dup1\n      iszero\n      tag_218\n      jumpi\n      dup2\n      0x20\n      add\n      0x20\n      dup3\n      mul\n      dup1\n      calldatasize\n      dup4\n      calldatacopy\n      dup1\n      dup3\n      add\n      swap2\n      pop\n      pop\n      swap1\n      pop\n    tag_218:\n      pop\n        /* \"privacy/zkp/TransferProver.sol\":8519:8563  siblings = new bytes32[](MERKLE_TREE_LEVELS) */\n      swap2\n      pop\n        /* \"privacy/zkp/TransferProver.sol\":1331:1333  20 */\n      0x14\n        /* \"privacy/zkp/TransferProver.sol\":8579:8612  new uint256[](MERKLE_TREE_LEVELS) */\n      0xffffffffffffffff\n      dup2\n      gt\n      iszero\n      tag_219\n      jumpi\n      tag_220\n      tag_217\n      jump\t// in\n    tag_220:\n    tag_219:\n      mload(0x40)\n      swap1\n      dup1\n      dup3\n      mstore\n      dup1\n      0x20\n      mul\n      0x20\n      add\n      dup3\n      add\n      0x40\n      mstore\n      dup1\n      iszero\n      tag_221\n      jumpi\n      dup2\n      0x20\n      add\n      0x20\n      dup3\n      mul\n      dup1\n      calldatasize\n      dup4\n      calldatacopy\n      dup1\n      dup3\n      add\n      swap2\n      pop\n      pop\n      swap1\n      pop\n    tag_221:\n      pop\n        /* \"privacy/zkp/TransferProver.sol\":8569:8612  indices = new uint256[](MERKLE_TREE_LEVELS) */\n      swap1\n      pop\n        /* \"privacy/zkp/TransferProver.sol\":8619:8632  uint256 index */\n      0x00\n        /* \"privacy/zkp/TransferProver.sol\":8679:8688  uint256 i */\n      dup1\n        /* \"privacy/zkp/TransferProver.sol\":8674:8828  for (uint256 i = 0; i < nextIndex; i++) {... */\n    tag_222:\n        /* \"privacy/zkp/TransferProver.sol\":8698:8707  nextIndex */\n      sload(0x0e)\n        /* \"privacy/zkp/TransferProver.sol\":8694:8695  i */\n      dup2\n        /* \"privacy/zkp/TransferProver.sol\":8694:8707  i < nextIndex */\n      lt\n        /* \"privacy/zkp/TransferProver.sol\":8674:8828  for (uint256 i = 0; i < nextIndex; i++) {... */\n      iszero\n      tag_223\n      jumpi\n        /* \"privacy/zkp/TransferProver.sol\":8757:8767  commitment */\n      dup5\n        /* \"privacy/zkp/TransferProver.sol\":8728:8738  merkleTree */\n      0x0b\n        /* \"privacy/zkp/TransferProver.sol\":8728:8750  merkleTree[bytes32(0)] */\n      0x00\n        /* \"privacy/zkp/TransferProver.sol\":8747:8748  0 */\n      dup1\n        /* \"privacy/zkp/TransferProver.sol\":8739:8749  bytes32(0) */\n      0x00\n      shl\n        /* \"privacy/zkp/TransferProver.sol\":8728:8750  merkleTree[bytes32(0)] */\n      dup2\n      mstore\n      0x20\n      add\n      swap1\n      dup2\n      mstore\n      0x20\n      add\n      0x00\n      keccak256\n        /* \"privacy/zkp/TransferProver.sol\":8728:8753  merkleTree[bytes32(0)][i] */\n      0x00\n        /* \"privacy/zkp/TransferProver.sol\":8751:8752  i */\n      dup4\n        /* \"privacy/zkp/TransferProver.sol\":8728:8753  merkleTree[bytes32(0)][i] */\n      dup2\n      mstore\n      0x20\n      add\n      swap1\n      dup2\n      mstore\n      0x20\n      add\n      0x00\n      keccak256\n      sload\n        /* \"privacy/zkp/TransferProver.sol\":8728:8767  merkleTree[bytes32(0)][i] == commitment */\n      sub\n        /* \"privacy/zkp/TransferProver.sol\":8724:8822  if (merkleTree[bytes32(0)][i] == commitment) {... */\n      tag_225\n      jumpi\n        /* \"privacy/zkp/TransferProver.sol\":8791:8792  i */\n      dup1\n        /* \"privacy/zkp/TransferProver.sol\":8783:8792  index = i */\n      swap2\n      pop\n        /* \"privacy/zkp/TransferProver.sol\":8806:8811  break */\n      jump(tag_223)\n        /* \"privacy/zkp/TransferProver.sol\":8724:8822  if (merkleTree[bytes32(0)][i] == commitment) {... */\n    tag_225:\n        /* \"privacy/zkp/TransferProver.sol\":8709:8712  i++ */\n      dup1\n      dup1\n      0x01\n      add\n      swap2\n      pop\n      pop\n        /* \"privacy/zkp/TransferProver.sol\":8674:8828  for (uint256 i = 0; i < nextIndex; i++) {... */\n      jump(tag_222)\n    tag_223:\n      pop\n        /* \"privacy/zkp/TransferProver.sol\":8858:8867  uint256 i */\n      0x00\n        /* \"privacy/zkp/TransferProver.sol\":8853:9139  for (uint256 i = 0; i < MERKLE_TREE_LEVELS; i++) {... */\n    tag_226:\n        /* \"privacy/zkp/TransferProver.sol\":1331:1333  20 */\n      0x14\n        /* \"privacy/zkp/TransferProver.sol\":8873:8874  i */\n      dup2\n        /* \"privacy/zkp/TransferProver.sol\":8873:8895  i < MERKLE_TREE_LEVELS */\n      lt\n        /* \"privacy/zkp/TransferProver.sol\":8853:9139  for (uint256 i = 0; i < MERKLE_TREE_LEVELS; i++) {... */\n      iszero\n      tag_227\n      jumpi\n        /* \"privacy/zkp/TransferProver.sol\":8912:8932  uint256 siblingIndex */\n      0x00\n        /* \"privacy/zkp/TransferProver.sol\":8935:8960  getSiblingIndex(index, i) */\n      tag_229\n        /* \"privacy/zkp/TransferProver.sol\":8951:8956  index */\n      dup4\n        /* \"privacy/zkp/TransferProver.sol\":8958:8959  i */\n      dup4\n        /* \"privacy/zkp/TransferProver.sol\":8935:8950  getSiblingIndex */\n      tag_230\n        /* \"privacy/zkp/TransferProver.sol\":8935:8960  getSiblingIndex(index, i) */\n      jump\t// in\n    tag_229:\n        /* \"privacy/zkp/TransferProver.sol\":8912:8960  uint256 siblingIndex = getSiblingIndex(index, i) */\n      swap1\n      pop\n        /* \"privacy/zkp/TransferProver.sol\":8984:8994  merkleTree */\n      0x0b\n        /* \"privacy/zkp/TransferProver.sol\":8984:9006  merkleTree[bytes32(0)] */\n      0x00\n        /* \"privacy/zkp/TransferProver.sol\":9003:9004  0 */\n      dup1\n        /* \"privacy/zkp/TransferProver.sol\":8995:9005  bytes32(0) */\n      0x00\n      shl\n        /* \"privacy/zkp/TransferProver.sol\":8984:9006  merkleTree[bytes32(0)] */\n      dup2\n      mstore\n      0x20\n      add\n      swap1\n      dup2\n      mstore\n      0x20\n      add\n      0x00\n      keccak256\n        /* \"privacy/zkp/TransferProver.sol\":8984:9020  merkleTree[bytes32(0)][siblingIndex] */\n      0x00\n        /* \"privacy/zkp/TransferProver.sol\":9007:9019  siblingIndex */\n      dup3\n        /* \"privacy/zkp/TransferProver.sol\":8984:9020  merkleTree[bytes32(0)][siblingIndex] */\n      dup2\n      mstore\n      0x20\n      add\n      swap1\n      dup2\n      mstore\n      0x20\n      add\n      0x00\n      keccak256\n      sload\n        /* \"privacy/zkp/TransferProver.sol\":8970:8978  siblings */\n      dup6\n        /* \"privacy/zkp/TransferProver.sol\":8979:8980  i */\n      dup4\n        /* \"privacy/zkp/TransferProver.sol\":8970:8981  siblings[i] */\n      dup2\n      mload\n      dup2\n      lt\n      tag_231\n      jumpi\n      tag_232\n      tag_154\n      jump\t// in\n    tag_232:\n    tag_231:\n      0x20\n      mul\n      0x20\n      add\n      add\n        /* \"privacy/zkp/TransferProver.sol\":8970:9020  siblings[i] = merkleTree[bytes32(0)][siblingIndex] */\n      dup2\n      dup2\n      mstore\n      pop\n      pop\n        /* \"privacy/zkp/TransferProver.sol\":9051:9052  2 */\n      0x02\n        /* \"privacy/zkp/TransferProver.sol\":9043:9048  index */\n      dup4\n        /* \"privacy/zkp/TransferProver.sol\":9043:9052  index % 2 */\n      tag_233\n      swap2\n      swap1\n      tag_234\n      jump\t// in\n    tag_233:\n        /* \"privacy/zkp/TransferProver.sol\":9030:9037  indices */\n      dup5\n        /* \"privacy/zkp/TransferProver.sol\":9038:9039  i */\n      dup4\n        /* \"privacy/zkp/TransferProver.sol\":9030:9040  indices[i] */\n      dup2\n      mload\n      dup2\n      lt\n      tag_235\n      jumpi\n      tag_236\n      tag_154\n      jump\t// in\n    tag_236:\n    tag_235:\n      0x20\n      mul\n      0x20\n      add\n      add\n        /* \"privacy/zkp/TransferProver.sol\":9030:9052  indices[i] = index % 2 */\n      dup2\n      dup2\n      mstore\n      pop\n      pop\n        /* \"privacy/zkp/TransferProver.sol\":9104:9105  2 */\n      0x02\n        /* \"privacy/zkp/TransferProver.sol\":9096:9101  index */\n      dup4\n        /* \"privacy/zkp/TransferProver.sol\":9096:9105  index / 2 */\n      tag_237\n      swap2\n      swap1\n      tag_238\n      jump\t// in\n    tag_237:\n        /* \"privacy/zkp/TransferProver.sol\":9088:9105  index = index / 2 */\n      swap3\n      pop\n        /* \"privacy/zkp/TransferProver.sol\":8902:9139  {... */\n      pop\n        /* \"privacy/zkp/TransferProver.sol\":8897:8900  i++ */\n      dup1\n      dup1\n      0x01\n      add\n      swap2\n      pop\n      pop\n        /* \"privacy/zkp/TransferProver.sol\":8853:9139  for (uint256 i = 0; i < MERKLE_TREE_LEVELS; i++) {... */\n      jump(tag_226)\n    tag_227:\n      pop\n        /* \"privacy/zkp/TransferProver.sol\":9145:9171  return (siblings, indices) */\n      pop\n        /* \"privacy/zkp/TransferProver.sol\":8307:9174  function getMerkleProof(bytes32 commitment) external view returns (... */\n      swap2\n      pop\n      swap2\n      jump\t// out\n        /* \"privacy/zkp/TransferProver.sol\":1036:1082  mapping(bytes32 => bool) public nullifierSpent */\n    tag_68:\n      mstore(0x20, 0x0a)\n      dup1\n      0x00\n      mstore\n      keccak256(0x00, 0x40)\n      0x00\n      swap2\n      pop\n      sload\n      swap1\n      0x0100\n      exp\n      swap1\n      div\n      0xff\n      and\n      dup2\n      jump\t// out\n        /* \"privacy/zkp/TransferProver.sol\":13791:13856  function unpause() external onlyOwner {... */\n    tag_71:\n        /* \"@openzeppelin/contracts/access/Ownable.sol\":1531:1544  _checkOwner() */\n      tag_240\n        /* \"@openzeppelin/contracts/access/Ownable.sol\":1531:1542  _checkOwner */\n      tag_241\n        /* \"@openzeppelin/contracts/access/Ownable.sol\":1531:1544  _checkOwner() */\n      jump\t// in\n    tag_240:\n        /* \"privacy/zkp/TransferProver.sol\":13839:13849  _unpause() */\n      tag_243\n        /* \"privacy/zkp/TransferProver.sol\":13839:13847  _unpause */\n      tag_244\n        /* \"privacy/zkp/TransferProver.sol\":13839:13849  _unpause() */\n      jump\t// in\n    tag_243:\n        /* \"privacy/zkp/TransferProver.sol\":13791:13856  function unpause() external onlyOwner {... */\n      jump\t// out\n        /* \"privacy/zkp/TransferProver.sol\":3700:4725  function createNote(... */\n    tag_75:\n        /* \"@openzeppelin/contracts/utils/ReentrancyGuard.sol\":2500:2521  _nonReentrantBefore() */\n      tag_246\n        /* \"@openzeppelin/contracts/utils/ReentrancyGuard.sol\":2500:2519  _nonReentrantBefore */\n      tag_183\n        /* \"@openzeppelin/contracts/utils/ReentrancyGuard.sol\":2500:2521  _nonReentrantBefore() */\n      jump\t// in\n    tag_246:\n        /* \"@openzeppelin/contracts/utils/Pausable.sol\":1474:1493  _requireNotPaused() */\n      tag_248\n        /* \"@openzeppelin/contracts/utils/Pausable.sol\":1474:1491  _requireNotPaused */\n      tag_186\n        /* \"@openzeppelin/contracts/utils/Pausable.sol\":1474:1493  _requireNotPaused() */\n      jump\t// in\n    tag_248:\n        /* \"privacy/zkp/TransferProver.sol\":1264:1280  1000000 * 10**18 */\n      0xd3c21bcecceda1000000\n        /* \"privacy/zkp/TransferProver.sol\":3890:3896  amount */\n      dup3\n        /* \"privacy/zkp/TransferProver.sol\":3890:3919  amount <= MAX_TRANSFER_AMOUNT */\n      gt\n      iszero\n        /* \"privacy/zkp/TransferProver.sol\":3882:3946  require(amount <= MAX_TRANSFER_AMOUNT, \"Amount exceeds maximum\") */\n      tag_250\n      jumpi\n      mload(0x40)\n      0x08c379a000000000000000000000000000000000000000000000000000000000\n      dup2\n      mstore\n      0x04\n      add\n      tag_251\n      swap1\n      tag_252\n      jump\t// in\n    tag_251:\n      mload(0x40)\n      dup1\n      swap2\n      sub\n      swap1\n      revert\n    tag_250:\n        /* \"privacy/zkp/TransferProver.sol\":4004:4005  0 */\n      0x00\n        /* \"privacy/zkp/TransferProver.sol\":3996:4006  bytes32(0) */\n      dup1\n      shl\n        /* \"privacy/zkp/TransferProver.sol\":3964:3969  notes */\n      0x09\n        /* \"privacy/zkp/TransferProver.sol\":3964:3981  notes[commitment] */\n      0x00\n        /* \"privacy/zkp/TransferProver.sol\":3970:3980  commitment */\n      dup7\n        /* \"privacy/zkp/TransferProver.sol\":3964:3981  notes[commitment] */\n      dup2\n      mstore\n      0x20\n      add\n      swap1\n      dup2\n      mstore\n      0x20\n      add\n      0x00\n      keccak256\n        /* \"privacy/zkp/TransferProver.sol\":3964:3992  notes[commitment].commitment */\n      0x00\n      add\n      sload\n        /* \"privacy/zkp/TransferProver.sol\":3964:4006  notes[commitment].commitment == bytes32(0) */\n      eq\n        /* \"privacy/zkp/TransferProver.sol\":3956:4028  require(notes[commitment].commitment == bytes32(0), \"Commitment exists\") */\n      tag_253\n      jumpi\n      mload(0x40)\n      0x08c379a000000000000000000000000000000000000000000000000000000000\n      dup2\n      mstore\n      0x04\n      add\n      tag_254\n      swap1\n      tag_255\n      jump\t// in\n    tag_254:\n      mload(0x40)\n      dup1\n      swap2\n      sub\n      swap1\n      revert\n    tag_253:\n        /* \"privacy/zkp/TransferProver.sol\":4071:4094  uint256[1] memory input */\n      0x00\n        /* \"privacy/zkp/TransferProver.sol\":4071:4127  uint256[1] memory input = [uint256(uint160(msg.sender))] */\n      mload(0x40)\n      dup1\n      0x20\n      add\n      0x40\n      mstore\n      dup1\n        /* \"privacy/zkp/TransferProver.sol\":4114:4124  msg.sender */\n      caller\n        /* \"privacy/zkp/TransferProver.sol\":4098:4126  uint256(uint160(msg.sender)) */\n      0xffffffffffffffffffffffffffffffffffffffff\n      and\n        /* \"privacy/zkp/TransferProver.sol\":4071:4127  uint256[1] memory input = [uint256(uint160(msg.sender))] */\n      dup2\n      mstore\n      pop\n      swap1\n      pop\n        /* \"privacy/zkp/TransferProver.sol\":4158:4162  this */\n      address\n        /* \"privacy/zkp/TransferProver.sol\":4158:4174  this.verifyProof */\n      0xffffffffffffffffffffffffffffffffffffffff\n      and\n      0x1b81f829\n        /* \"privacy/zkp/TransferProver.sol\":4175:4180  proof */\n      dup4\n        /* \"privacy/zkp/TransferProver.sol\":4182:4187  input */\n      dup4\n        /* \"privacy/zkp/TransferProver.sol\":4158:4188  this.verifyProof(proof, input) */\n      mload(0x40)\n      dup4\n      0xffffffff\n      and\n      0xe0\n      shl\n      dup2\n      mstore\n      0x04\n      add\n      tag_256\n      swap3\n      swap2\n      swap1\n      tag_198\n      jump\t// in\n    tag_256:\n      0x20\n      mload(0x40)\n      dup1\n      dup4\n      sub\n      dup2\n      dup7\n      gas\n      staticcall\n      iszero\n      dup1\n      iszero\n      tag_258\n      jumpi\n      returndatasize\n      0x00\n      dup1\n      returndatacopy\n      revert(0x00, returndatasize)\n    tag_258:\n      pop\n      pop\n      pop\n      pop\n      mload(0x40)\n      returndatasize\n      not(0x1f)\n      0x1f\n      dup3\n      add\n      and\n      dup3\n      add\n      dup1\n      0x40\n      mstore\n      pop\n      dup2\n      add\n      swap1\n      tag_259\n      swap2\n      swap1\n      tag_202\n      jump\t// in\n    tag_259:\n        /* \"privacy/zkp/TransferProver.sol\":4137:4227  require(... */\n      tag_260\n      jumpi\n      mload(0x40)\n      0x08c379a000000000000000000000000000000000000000000000000000000000\n      dup2\n      mstore\n      0x04\n      add\n      tag_261\n      swap1\n      tag_205\n      jump\t// in\n    tag_261:\n      mload(0x40)\n      dup1\n      swap2\n      sub\n      swap1\n      revert\n    tag_260:\n        /* \"privacy/zkp/TransferProver.sol\":4284:4289  token */\n      dup4\n        /* \"privacy/zkp/TransferProver.sol\":4277:4303  IERC20(token).transferFrom */\n      0xffffffffffffffffffffffffffffffffffffffff\n      and\n      0x23b872dd\n        /* \"privacy/zkp/TransferProver.sol\":4304:4314  msg.sender */\n      caller\n        /* \"privacy/zkp/TransferProver.sol\":4324:4328  this */\n      address\n        /* \"privacy/zkp/TransferProver.sol\":4331:4337  amount */\n      dup7\n        /* \"privacy/zkp/TransferProver.sol\":4277:4338  IERC20(token).transferFrom(msg.sender, address(this), amount) */\n      mload(0x40)\n      dup5\n      0xffffffff\n      and\n      0xe0\n      shl\n      dup2\n      mstore\n      0x04\n      add\n      tag_262\n      swap4\n      swap3\n      swap2\n      swap1\n      tag_263\n      jump\t// in\n    tag_262:\n      0x20\n      mload(0x40)\n      dup1\n      dup4\n      sub\n      dup2\n      0x00\n      dup8\n      gas\n      call\n      iszero\n      dup1\n      iszero\n      tag_265\n      jumpi\n      returndatasize\n      0x00\n      dup1\n      returndatacopy\n      revert(0x00, returndatasize)\n    tag_265:\n      pop\n      pop\n      pop\n      pop\n      mload(0x40)\n      returndatasize\n      not(0x1f)\n      0x1f\n      dup3\n      add\n      and\n      dup3\n      add\n      dup1\n      0x40\n      mstore\n      pop\n      dup2\n      add\n      swap1\n      tag_266\n      swap2\n      swap1\n      tag_202\n      jump\t// in\n    tag_266:\n      pop\n        /* \"privacy/zkp/TransferProver.sol\":4392:4559  Note({... */\n      mload(0x40)\n      dup1\n      0xa0\n      add\n      0x40\n      mstore\n      dup1\n        /* \"privacy/zkp/TransferProver.sol\":4423:4433  commitment */\n      dup7\n        /* \"privacy/zkp/TransferProver.sol\":4392:4559  Note({... */\n      dup2\n      mstore\n      0x20\n      add\n        /* \"privacy/zkp/TransferProver.sol\":4466:4467  0 */\n      0x00\n        /* \"privacy/zkp/TransferProver.sol\":4458:4468  bytes32(0) */\n      dup1\n      shl\n        /* \"privacy/zkp/TransferProver.sol\":4392:4559  Note({... */\n      dup2\n      mstore\n      0x20\n      add\n        /* \"privacy/zkp/TransferProver.sol\":4490:4496  amount */\n      dup5\n        /* \"privacy/zkp/TransferProver.sol\":4392:4559  Note({... */\n      dup2\n      mstore\n      0x20\n      add\n        /* \"privacy/zkp/TransferProver.sol\":4517:4522  token */\n      dup6\n        /* \"privacy/zkp/TransferProver.sol\":4392:4559  Note({... */\n      0xffffffffffffffffffffffffffffffffffffffff\n      and\n      dup2\n      mstore\n      0x20\n      add\n        /* \"privacy/zkp/TransferProver.sol\":4543:4548  false */\n      0x00\n        /* \"privacy/zkp/TransferProver.sol\":4392:4559  Note({... */\n      iszero\n      iszero\n      dup2\n      mstore\n      pop\n        /* \"privacy/zkp/TransferProver.sol\":4372:4377  notes */\n      0x09\n        /* \"privacy/zkp/TransferProver.sol\":4372:4389  notes[commitment] */\n      0x00\n        /* \"privacy/zkp/TransferProver.sol\":4378:4388  commitment */\n      dup8\n        /* \"privacy/zkp/TransferProver.sol\":4372:4389  notes[commitment] */\n      dup2\n      mstore\n      0x20\n      add\n      swap1\n      dup2\n      mstore\n      0x20\n      add\n      0x00\n      keccak256\n        /* \"privacy/zkp/TransferProver.sol\":4372:4559  notes[commitment] = Note({... */\n      0x00\n      dup3\n      add\n      mload\n      dup2\n      0x00\n      add\n      sstore\n      0x20\n      dup3\n      add\n      mload\n      dup2\n      0x01\n      add\n      sstore\n      0x40\n      dup3\n      add\n      mload\n      dup2\n      0x02\n      add\n      sstore\n      0x60\n      dup3\n      add\n      mload\n      dup2\n      0x03\n      add\n      exp(0x0100, 0x00)\n      dup2\n      sload\n      dup2\n      0xffffffffffffffffffffffffffffffffffffffff\n      mul\n      not\n      and\n      swap1\n      dup4\n      0xffffffffffffffffffffffffffffffffffffffff\n      and\n      mul\n      or\n      swap1\n      sstore\n      pop\n      0x80\n      dup3\n      add\n      mload\n      dup2\n      0x03\n      add\n      exp(0x0100, 0x14)\n      dup2\n      sload\n      dup2\n      0xff\n      mul\n      not\n      and\n      swap1\n      dup4\n      iszero\n      iszero\n      mul\n      or\n      swap1\n      sstore\n      pop\n      swap1\n      pop\n      pop\n        /* \"privacy/zkp/TransferProver.sol\":4600:4613  uint256 index */\n      0x00\n        /* \"privacy/zkp/TransferProver.sol\":4616:4648  insertIntoMerkleTree(commitment) */\n      tag_267\n        /* \"privacy/zkp/TransferProver.sol\":4637:4647  commitment */\n      dup7\n        /* \"privacy/zkp/TransferProver.sol\":4616:4636  insertIntoMerkleTree */\n      tag_207\n        /* \"privacy/zkp/TransferProver.sol\":4616:4648  insertIntoMerkleTree(commitment) */\n      jump\t// in\n    tag_267:\n        /* \"privacy/zkp/TransferProver.sol\":4600:4648  uint256 index = insertIntoMerkleTree(commitment) */\n      swap1\n      pop\n        /* \"privacy/zkp/TransferProver.sol\":4695:4700  index */\n      dup1\n        /* \"privacy/zkp/TransferProver.sol\":4688:4693  token */\n      dup6\n        /* \"privacy/zkp/TransferProver.sol\":4664:4718  NoteCreated(commitment, token, index, block.timestamp) */\n      0xffffffffffffffffffffffffffffffffffffffff\n      and\n        /* \"privacy/zkp/TransferProver.sol\":4676:4686  commitment */\n      dup8\n        /* \"privacy/zkp/TransferProver.sol\":4664:4718  NoteCreated(commitment, token, index, block.timestamp) */\n      0x3249a1e3b1ca9d666464424243ad0e102e29d4cda1d16a3ba8d6b72ab44df76d\n        /* \"privacy/zkp/TransferProver.sol\":4702:4717  block.timestamp */\n      timestamp\n        /* \"privacy/zkp/TransferProver.sol\":4664:4718  NoteCreated(commitment, token, index, block.timestamp) */\n      mload(0x40)\n      tag_268\n      swap2\n      swap1\n      tag_41\n      jump\t// in\n    tag_268:\n      mload(0x40)\n      dup1\n      swap2\n      sub\n      swap1\n      log4\n        /* \"privacy/zkp/TransferProver.sol\":3872:4725  {... */\n      pop\n      pop\n        /* \"@openzeppelin/contracts/utils/ReentrancyGuard.sol\":2542:2562  _nonReentrantAfter() */\n      tag_269\n        /* \"@openzeppelin/contracts/utils/ReentrancyGuard.sol\":2542:2560  _nonReentrantAfter */\n      tag_211\n        /* \"@openzeppelin/contracts/utils/ReentrancyGuard.sol\":2542:2562  _nonReentrantAfter() */\n      jump\t// in\n    tag_269:\n        /* \"privacy/zkp/TransferProver.sol\":3700:4725  function createNote(... */\n      pop\n      pop\n      pop\n      pop\n      jump\t// out\n        /* \"privacy/zkp/TransferProver.sol\":8007:8100  function getMerkleRoot() external view returns (bytes32) {... */\n    tag_77:\n        /* \"privacy/zkp/TransferProver.sol\":8055:8062  bytes32 */\n      0x00\n        /* \"privacy/zkp/TransferProver.sol\":8085:8096  currentRoot */\n      sload(0x0d)\n        /* \"privacy/zkp/TransferProver.sol\":8077:8097  bytes32(currentRoot) */\n      0x00\n      shl\n        /* \"privacy/zkp/TransferProver.sol\":8070:8097  return bytes32(currentRoot) */\n      swap1\n      pop\n        /* \"privacy/zkp/TransferProver.sol\":8007:8100  function getMerkleRoot() external view returns (bytes32) {... */\n      swap1\n      jump\t// out\n        /* \"privacy/zkp/TransferProver.sol\":1159:1207  mapping(address => uint256) public tokenBalances */\n    tag_83:\n      mstore(0x20, 0x0c)\n      dup1\n      0x00\n      mstore\n      keccak256(0x00, 0x40)\n      0x00\n      swap2\n      pop\n      swap1\n      pop\n      sload\n      dup2\n      jump\t// out\n        /* \"@openzeppelin/contracts/utils/Pausable.sol\":1850:1934  function paused() public view virtual returns (bool) {... */\n    tag_86:\n        /* \"@openzeppelin/contracts/utils/Pausable.sol\":1897:1901  bool */\n      0x00\n        /* \"@openzeppelin/contracts/utils/Pausable.sol\":1920:1927  _paused */\n      0x02\n      0x00\n      swap1\n      sload\n      swap1\n      0x0100\n      exp\n      swap1\n      div\n      0xff\n      and\n        /* \"@openzeppelin/contracts/utils/Pausable.sol\":1913:1927  return _paused */\n      swap1\n      pop\n        /* \"@openzeppelin/contracts/utils/Pausable.sol\":1850:1934  function paused() public view virtual returns (bool) {... */\n      swap1\n      jump\t// out\n        /* \"privacy/zkp/TransferProver.sol\":627:677  mapping(uint256 => uint256) public deltaComponents */\n    tag_90:\n      mstore(0x20, 0x06)\n      dup1\n      0x00\n      mstore\n      keccak256(0x00, 0x40)\n      0x00\n      swap2\n      pop\n      swap1\n      pop\n      sload\n      dup2\n      jump\t// out\n        /* \"privacy/zkp/TransferProver.sol\":571:621  mapping(uint256 => uint256) public gammaComponents */\n    tag_94:\n      mstore(0x20, 0x05)\n      dup1\n      0x00\n      mstore\n      keccak256(0x00, 0x40)\n      0x00\n      swap2\n      pop\n      swap1\n      pop\n      sload\n      dup2\n      jump\t// out\n        /* \"@openzeppelin/contracts/access/Ownable.sol\":2293:2394  function renounceOwnership() public virtual onlyOwner {... */\n    tag_97:\n        /* \"@openzeppelin/contracts/access/Ownable.sol\":1531:1544  _checkOwner() */\n      tag_273\n        /* \"@openzeppelin/contracts/access/Ownable.sol\":1531:1542  _checkOwner */\n      tag_241\n        /* \"@openzeppelin/contracts/access/Ownable.sol\":1531:1544  _checkOwner() */\n      jump\t// in\n    tag_273:\n        /* \"@openzeppelin/contracts/access/Ownable.sol\":2357:2387  _transferOwnership(address(0)) */\n      tag_275\n        /* \"@openzeppelin/contracts/access/Ownable.sol\":2384:2385  0 */\n      0x00\n        /* \"@openzeppelin/contracts/access/Ownable.sol\":2357:2375  _transferOwnership */\n      tag_276\n        /* \"@openzeppelin/contracts/access/Ownable.sol\":2357:2387  _transferOwnership(address(0)) */\n      jump\t// in\n    tag_275:\n        /* \"@openzeppelin/contracts/access/Ownable.sol\":2293:2394  function renounceOwnership() public virtual onlyOwner {... */\n      jump\t// out\n        /* \"privacy/zkp/TransferProver.sol\":13724:13785  function pause() external onlyOwner {... */\n    tag_99:\n        /* \"@openzeppelin/contracts/access/Ownable.sol\":1531:1544  _checkOwner() */\n      tag_278\n        /* \"@openzeppelin/contracts/access/Ownable.sol\":1531:1542  _checkOwner */\n      tag_241\n        /* \"@openzeppelin/contracts/access/Ownable.sol\":1531:1544  _checkOwner() */\n      jump\t// in\n    tag_278:\n        /* \"privacy/zkp/TransferProver.sol\":13770:13778  _pause() */\n      tag_280\n        /* \"privacy/zkp/TransferProver.sol\":13770:13776  _pause */\n      tag_281\n        /* \"privacy/zkp/TransferProver.sol\":13770:13778  _pause() */\n      jump\t// in\n    tag_280:\n        /* \"privacy/zkp/TransferProver.sol\":13724:13785  function pause() external onlyOwner {... */\n      jump\t// out\n        /* \"privacy/zkp/TransferProver.sol\":993:1030  mapping(bytes32 => Note) public notes */\n    tag_102:\n      mstore(0x20, 0x09)\n      dup1\n      0x00\n      mstore\n      keccak256(0x00, 0x40)\n      0x00\n      swap2\n      pop\n      swap1\n      pop\n      dup1\n      0x00\n      add\n      sload\n      swap1\n      dup1\n      0x01\n      add\n      sload\n      swap1\n      dup1\n      0x02\n      add\n      sload\n      swap1\n      dup1\n      0x03\n      add\n      0x00\n      swap1\n      sload\n      swap1\n      0x0100\n      exp\n      swap1\n      div\n      0xffffffffffffffffffffffffffffffffffffffff\n      and\n      swap1\n      dup1\n      0x03\n      add\n      0x14\n      swap1\n      sload\n      swap1\n      0x0100\n      exp\n      swap1\n      div\n      0xff\n      and\n      swap1\n      pop\n      dup6\n      jump\t// out\n        /* \"@openzeppelin/contracts/access/Ownable.sol\":1638:1723  function owner() public view virtual returns (address) {... */\n    tag_106:\n        /* \"@openzeppelin/contracts/access/Ownable.sol\":1684:1691  address */\n      0x00\n        /* \"@openzeppelin/contracts/access/Ownable.sol\":1710:1716  _owner */\n      dup1\n      0x00\n      swap1\n      sload\n      swap1\n      0x0100\n      exp\n      swap1\n      div\n      0xffffffffffffffffffffffffffffffffffffffff\n      and\n        /* \"@openzeppelin/contracts/access/Ownable.sol\":1703:1716  return _owner */\n      swap1\n      pop\n        /* \"@openzeppelin/contracts/access/Ownable.sol\":1638:1723  function owner() public view virtual returns (address) {... */\n      swap1\n      jump\t// out\n        /* \"privacy/zkp/TransferProver.sol\":1286:1333  uint256 public constant MERKLE_TREE_LEVELS = 20 */\n    tag_110:\n        /* \"privacy/zkp/TransferProver.sol\":1331:1333  20 */\n      0x14\n        /* \"privacy/zkp/TransferProver.sol\":1286:1333  uint256 public constant MERKLE_TREE_LEVELS = 20 */\n      dup2\n      jump\t// out\n        /* \"privacy/zkp/TransferProver.sol\":496:565  mapping(uint256 => mapping(uint256 => uint256)) public betaComponents */\n    tag_115:\n      mstore(0x20, 0x04)\n      dup2\n      0x00\n      mstore\n      mstore(0x20, keccak256(0x00, 0x40))\n      dup1\n      0x00\n      mstore\n      keccak256(0x00, 0x40)\n      0x00\n      swap2\n      pop\n      swap2\n      pop\n      pop\n      sload\n      dup2\n      jump\t// out\n        /* \"privacy/zkp/TransferProver.sol\":1088:1153  mapping(bytes32 => mapping(uint256 => bytes32)) public merkleTree */\n    tag_120:\n      mstore(0x20, 0x0b)\n      dup2\n      0x00\n      mstore\n      mstore(0x20, keccak256(0x00, 0x40))\n      dup1\n      0x00\n      mstore\n      keccak256(0x00, 0x40)\n      0x00\n      swap2\n      pop\n      swap2\n      pop\n      pop\n      sload\n      dup2\n      jump\t// out\n        /* \"privacy/zkp/TransferProver.sol\":7390:7476  function getMerkleTreeSize() external view returns (uint256) {... */\n    tag_123:\n        /* \"privacy/zkp/TransferProver.sol\":7442:7449  uint256 */\n      0x00\n        /* \"privacy/zkp/TransferProver.sol\":7464:7473  nextIndex */\n      sload(0x0e)\n        /* \"privacy/zkp/TransferProver.sol\":7457:7473  return nextIndex */\n      swap1\n      pop\n        /* \"privacy/zkp/TransferProver.sol\":7390:7476  function getMerkleTreeSize() external view returns (uint256) {... */\n      swap1\n      jump\t// out\n        /* \"privacy/zkp/TransferProver.sol\":7630:7930  function hasCommitmentAtIndex(uint256 index) public view returns (bool) {... */\n    tag_127:\n        /* \"privacy/zkp/TransferProver.sol\":7696:7700  bool */\n      0x00\n        /* \"privacy/zkp/TransferProver.sol\":1331:1333  20 */\n      0x14\n        /* \"privacy/zkp/TransferProver.sol\":7724:7725  2 */\n      0x02\n        /* \"privacy/zkp/TransferProver.sol\":7724:7745  2**MERKLE_TREE_LEVELS */\n      tag_285\n      swap2\n      swap1\n      tag_286\n      jump\t// in\n    tag_285:\n        /* \"privacy/zkp/TransferProver.sol\":7716:7721  index */\n      dup3\n        /* \"privacy/zkp/TransferProver.sol\":7716:7745  index < 2**MERKLE_TREE_LEVELS */\n      lt\n        /* \"privacy/zkp/TransferProver.sol\":7708:7769  require(index < 2**MERKLE_TREE_LEVELS, \"Index out of bounds\") */\n      tag_287\n      jumpi\n      mload(0x40)\n      0x08c379a000000000000000000000000000000000000000000000000000000000\n      dup2\n      mstore\n      0x04\n      add\n      tag_288\n      swap1\n      tag_289\n      jump\t// in\n    tag_288:\n      mload(0x40)\n      dup1\n      swap2\n      sub\n      swap1\n      revert\n    tag_287:\n        /* \"privacy/zkp/TransferProver.sol\":7840:7858  bytes32 commitment */\n      0x00\n        /* \"privacy/zkp/TransferProver.sol\":7861:7871  merkleTree */\n      0x0b\n        /* \"privacy/zkp/TransferProver.sol\":7861:7883  merkleTree[bytes32(0)] */\n      0x00\n        /* \"privacy/zkp/TransferProver.sol\":7880:7881  0 */\n      dup1\n        /* \"privacy/zkp/TransferProver.sol\":7872:7882  bytes32(0) */\n      0x00\n      shl\n        /* \"privacy/zkp/TransferProver.sol\":7861:7883  merkleTree[bytes32(0)] */\n      dup2\n      mstore\n      0x20\n      add\n      swap1\n      dup2\n      mstore\n      0x20\n      add\n      0x00\n      keccak256\n        /* \"privacy/zkp/TransferProver.sol\":7861:7890  merkleTree[bytes32(0)][index] */\n      0x00\n        /* \"privacy/zkp/TransferProver.sol\":7884:7889  index */\n      dup5\n        /* \"privacy/zkp/TransferProver.sol\":7861:7890  merkleTree[bytes32(0)][index] */\n      dup2\n      mstore\n      0x20\n      add\n      swap1\n      dup2\n      mstore\n      0x20\n      add\n      0x00\n      keccak256\n      sload\n        /* \"privacy/zkp/TransferProver.sol\":7840:7890  bytes32 commitment = merkleTree[bytes32(0)][index] */\n      swap1\n      pop\n        /* \"privacy/zkp/TransferProver.sol\":7925:7926  0 */\n      0x00\n        /* \"privacy/zkp/TransferProver.sol\":7917:7927  bytes32(0) */\n      dup1\n      shl\n        /* \"privacy/zkp/TransferProver.sol\":7903:7913  commitment */\n      dup2\n        /* \"privacy/zkp/TransferProver.sol\":7903:7927  commitment != bytes32(0) */\n      eq\n      iszero\n        /* \"privacy/zkp/TransferProver.sol\":7896:7927  return commitment != bytes32(0) */\n      swap2\n      pop\n      pop\n        /* \"privacy/zkp/TransferProver.sol\":7630:7930  function hasCommitmentAtIndex(uint256 index) public view returns (bool) {... */\n      swap2\n      swap1\n      pop\n      jump\t// out\n        /* \"@openzeppelin/contracts/access/Ownable.sol\":2543:2758  function transferOwnership(address newOwner) public virtual onlyOwner {... */\n    tag_131:\n        /* \"@openzeppelin/contracts/access/Ownable.sol\":1531:1544  _checkOwner() */\n      tag_291\n        /* \"@openzeppelin/contracts/access/Ownable.sol\":1531:1542  _checkOwner */\n      tag_241\n        /* \"@openzeppelin/contracts/access/Ownable.sol\":1531:1544  _checkOwner() */\n      jump\t// in\n    tag_291:\n        /* \"@openzeppelin/contracts/access/Ownable.sol\":2647:2648  0 */\n      0x00\n        /* \"@openzeppelin/contracts/access/Ownable.sol\":2627:2649  newOwner == address(0) */\n      0xffffffffffffffffffffffffffffffffffffffff\n      and\n        /* \"@openzeppelin/contracts/access/Ownable.sol\":2627:2635  newOwner */\n      dup2\n        /* \"@openzeppelin/contracts/access/Ownable.sol\":2627:2649  newOwner == address(0) */\n      0xffffffffffffffffffffffffffffffffffffffff\n      and\n      sub\n        /* \"@openzeppelin/contracts/access/Ownable.sol\":2623:2714  if (newOwner == address(0)) {... */\n      tag_293\n      jumpi\n        /* \"@openzeppelin/contracts/access/Ownable.sol\":2700:2701  0 */\n      0x00\n        /* \"@openzeppelin/contracts/access/Ownable.sol\":2672:2703  OwnableInvalidOwner(address(0)) */\n      mload(0x40)\n      0x1e4fbdf700000000000000000000000000000000000000000000000000000000\n      dup2\n      mstore\n      0x04\n      add\n      tag_294\n      swap2\n      swap1\n      tag_108\n      jump\t// in\n    tag_294:\n      mload(0x40)\n      dup1\n      swap2\n      sub\n      swap1\n      revert\n        /* \"@openzeppelin/contracts/access/Ownable.sol\":2623:2714  if (newOwner == address(0)) {... */\n    tag_293:\n        /* \"@openzeppelin/contracts/access/Ownable.sol\":2723:2751  _transferOwnership(newOwner) */\n      tag_295\n        /* \"@openzeppelin/contracts/access/Ownable.sol\":2742:2750  newOwner */\n      dup2\n        /* \"@openzeppelin/contracts/access/Ownable.sol\":2723:2741  _transferOwnership */\n      tag_276\n        /* \"@openzeppelin/contracts/access/Ownable.sol\":2723:2751  _transferOwnership(newOwner) */\n      jump\t// in\n    tag_295:\n        /* \"@openzeppelin/contracts/access/Ownable.sol\":2543:2758  function transferOwnership(address newOwner) public virtual onlyOwner {... */\n      pop\n      jump\t// out\n        /* \"privacy/zkp/TransferProver.sol\":1218:1280  uint256 public constant MAX_TRANSFER_AMOUNT = 1000000 * 10**18 */\n    tag_133:\n        /* \"privacy/zkp/TransferProver.sol\":1264:1280  1000000 * 10**18 */\n      0xd3c21bcecceda1000000\n        /* \"privacy/zkp/TransferProver.sol\":1218:1280  uint256 public constant MAX_TRANSFER_AMOUNT = 1000000 * 10**18 */\n      dup2\n      jump\t// out\n        /* \"privacy/zkp/TransferProver.sol\":683:750  mapping(uint256 => mapping(uint256 => uint256)) public icComponents */\n    tag_137:\n      mstore(0x20, 0x07)\n      dup2\n      0x00\n      mstore\n      mstore(0x20, keccak256(0x00, 0x40))\n      dup1\n      0x00\n      mstore\n      keccak256(0x00, 0x40)\n      0x00\n      swap2\n      pop\n      swap2\n      pop\n      pop\n      sload\n      dup2\n      jump\t// out\n        /* \"privacy/zkp/TransferProver.sol\":1339:1365  uint256 public currentRoot */\n    tag_140:\n      sload(0x0d)\n      dup2\n      jump\t// out\n        /* \"privacy/zkp/TransferProver.sol\":10422:10587  function hashPair(... */\n    tag_159:\n        /* \"privacy/zkp/TransferProver.sol\":10514:10521  bytes32 */\n      0x00\n        /* \"privacy/zkp/TransferProver.sol\":10567:10571  left */\n      dup3\n        /* \"privacy/zkp/TransferProver.sol\":10573:10578  right */\n      dup3\n        /* \"privacy/zkp/TransferProver.sol\":10550:10579  abi.encodePacked(left, right) */\n      add(0x20, mload(0x40))\n      tag_297\n      swap3\n      swap2\n      swap1\n      tag_298\n      jump\t// in\n    tag_297:\n      mload(0x40)\n      0x20\n      dup2\n      dup4\n      sub\n      sub\n      dup2\n      mstore\n      swap1\n      0x40\n      mstore\n        /* \"privacy/zkp/TransferProver.sol\":10540:10580  keccak256(abi.encodePacked(left, right)) */\n      dup1\n      mload\n      swap1\n      0x20\n      add\n      keccak256\n        /* \"privacy/zkp/TransferProver.sol\":10533:10580  return keccak256(abi.encodePacked(left, right)) */\n      swap1\n      pop\n        /* \"privacy/zkp/TransferProver.sol\":10422:10587  function hashPair(... */\n      swap3\n      swap2\n      pop\n      pop\n      jump\t// out\n        /* \"privacy/zkp/TransferProver.sol\":2590:3627  function _verifyProof(... */\n    tag_180:\n        /* \"privacy/zkp/TransferProver.sol\":2764:2768  bool */\n      0x00\n        /* \"privacy/zkp/TransferProver.sol\":2808:2816  icLength */\n      sload(0x08)\n        /* \"privacy/zkp/TransferProver.sol\":2803:2804  1 */\n      0x01\n        /* \"privacy/zkp/TransferProver.sol\":2788:2800  input.length */\n      dup1\n        /* \"privacy/zkp/TransferProver.sol\":2788:2804  input.length + 1 */\n      tag_300\n      swap2\n      swap1\n      tag_301\n      jump\t// in\n    tag_300:\n        /* \"privacy/zkp/TransferProver.sol\":2788:2816  input.length + 1 == icLength */\n      eq\n        /* \"privacy/zkp/TransferProver.sol\":2780:2841  require(input.length + 1 == icLength, \"Invalid input length\") */\n      tag_302\n      jumpi\n      mload(0x40)\n      0x08c379a000000000000000000000000000000000000000000000000000000000\n      dup2\n      mstore\n      0x04\n      add\n      tag_303\n      swap1\n      tag_304\n      jump\t// in\n    tag_303:\n      mload(0x40)\n      dup1\n      swap2\n      sub\n      swap1\n      revert\n    tag_302:\n        /* \"privacy/zkp/TransferProver.sol\":2852:2874  uint256[2] memory vk_x */\n      0x00\n        /* \"privacy/zkp/TransferProver.sol\":2852:2917  uint256[2] memory vk_x = [icComponents[0][0], icComponents[0][1]] */\n      mload(0x40)\n      dup1\n      0x40\n      add\n      0x40\n      mstore\n      dup1\n        /* \"privacy/zkp/TransferProver.sol\":2878:2890  icComponents */\n      0x07\n        /* \"privacy/zkp/TransferProver.sol\":2878:2893  icComponents[0] */\n      0x00\n        /* \"privacy/zkp/TransferProver.sol\":2891:2892  0 */\n      dup1\n        /* \"privacy/zkp/TransferProver.sol\":2878:2893  icComponents[0] */\n      dup2\n      mstore\n      0x20\n      add\n      swap1\n      dup2\n      mstore\n      0x20\n      add\n      0x00\n      keccak256\n        /* \"privacy/zkp/TransferProver.sol\":2878:2896  icComponents[0][0] */\n      0x00\n        /* \"privacy/zkp/TransferProver.sol\":2894:2895  0 */\n      dup1\n        /* \"privacy/zkp/TransferProver.sol\":2878:2896  icComponents[0][0] */\n      dup2\n      mstore\n      0x20\n      add\n      swap1\n      dup2\n      mstore\n      0x20\n      add\n      0x00\n      keccak256\n      sload\n        /* \"privacy/zkp/TransferProver.sol\":2852:2917  uint256[2] memory vk_x = [icComponents[0][0], icComponents[0][1]] */\n      dup2\n      mstore\n      0x20\n      add\n        /* \"privacy/zkp/TransferProver.sol\":2898:2910  icComponents */\n      0x07\n        /* \"privacy/zkp/TransferProver.sol\":2898:2913  icComponents[0] */\n      0x00\n        /* \"privacy/zkp/TransferProver.sol\":2911:2912  0 */\n      dup1\n        /* \"privacy/zkp/TransferProver.sol\":2898:2913  icComponents[0] */\n      dup2\n      mstore\n      0x20\n      add\n      swap1\n      dup2\n      mstore\n      0x20\n      add\n      0x00\n      keccak256\n        /* \"privacy/zkp/TransferProver.sol\":2898:2916  icComponents[0][1] */\n      0x00\n        /* \"privacy/zkp/TransferProver.sol\":2914:2915  1 */\n      0x01\n        /* \"privacy/zkp/TransferProver.sol\":2898:2916  icComponents[0][1] */\n      dup2\n      mstore\n      0x20\n      add\n      swap1\n      dup2\n      mstore\n      0x20\n      add\n      0x00\n      keccak256\n      sload\n        /* \"privacy/zkp/TransferProver.sol\":2852:2917  uint256[2] memory vk_x = [icComponents[0][0], icComponents[0][1]] */\n      dup2\n      mstore\n      pop\n      swap1\n      pop\n        /* \"privacy/zkp/TransferProver.sol\":2933:2942  uint256 i */\n      0x00\n        /* \"privacy/zkp/TransferProver.sol\":2928:3296  for (uint256 i = 0; i < input.length; i++) {... */\n    tag_305:\n        /* \"privacy/zkp/TransferProver.sol\":2952:2964  input.length */\n      0x01\n        /* \"privacy/zkp/TransferProver.sol\":2948:2949  i */\n      dup2\n        /* \"privacy/zkp/TransferProver.sol\":2948:2964  i < input.length */\n      lt\n        /* \"privacy/zkp/TransferProver.sol\":2928:3296  for (uint256 i = 0; i < input.length; i++) {... */\n      iszero\n      tag_306\n      jumpi\n        /* \"privacy/zkp/TransferProver.sol\":2986:2995  uint256 x */\n      0x00\n        /* \"privacy/zkp/TransferProver.sol\":2997:3006  uint256 y */\n      dup1\n        /* \"privacy/zkp/TransferProver.sol\":3010:3126  _scalarMul(... */\n      tag_308\n      mload(0x40)\n      dup1\n      0x40\n      add\n      0x40\n      mstore\n      dup1\n        /* \"privacy/zkp/TransferProver.sol\":3039:3051  icComponents */\n      0x07\n        /* \"privacy/zkp/TransferProver.sol\":3039:3058  icComponents[i + 1] */\n      0x00\n        /* \"privacy/zkp/TransferProver.sol\":3056:3057  1 */\n      0x01\n        /* \"privacy/zkp/TransferProver.sol\":3052:3053  i */\n      dup9\n        /* \"privacy/zkp/TransferProver.sol\":3052:3057  i + 1 */\n      tag_309\n      swap2\n      swap1\n      tag_301\n      jump\t// in\n    tag_309:\n        /* \"privacy/zkp/TransferProver.sol\":3039:3058  icComponents[i + 1] */\n      dup2\n      mstore\n      0x20\n      add\n      swap1\n      dup2\n      mstore\n      0x20\n      add\n      0x00\n      keccak256\n        /* \"privacy/zkp/TransferProver.sol\":3039:3061  icComponents[i + 1][0] */\n      0x00\n        /* \"privacy/zkp/TransferProver.sol\":3059:3060  0 */\n      dup1\n        /* \"privacy/zkp/TransferProver.sol\":3039:3061  icComponents[i + 1][0] */\n      dup2\n      mstore\n      0x20\n      add\n      swap1\n      dup2\n      mstore\n      0x20\n      add\n      0x00\n      keccak256\n      sload\n        /* \"privacy/zkp/TransferProver.sol\":3010:3126  _scalarMul(... */\n      dup2\n      mstore\n      0x20\n      add\n        /* \"privacy/zkp/TransferProver.sol\":3063:3075  icComponents */\n      0x07\n        /* \"privacy/zkp/TransferProver.sol\":3063:3082  icComponents[i + 1] */\n      0x00\n        /* \"privacy/zkp/TransferProver.sol\":3080:3081  1 */\n      0x01\n        /* \"privacy/zkp/TransferProver.sol\":3076:3077  i */\n      dup9\n        /* \"privacy/zkp/TransferProver.sol\":3076:3081  i + 1 */\n      tag_310\n      swap2\n      swap1\n      tag_301\n      jump\t// in\n    tag_310:\n        /* \"privacy/zkp/TransferProver.sol\":3063:3082  icComponents[i + 1] */\n      dup2\n      mstore\n      0x20\n      add\n      swap1\n      dup2\n      mstore\n      0x20\n      add\n      0x00\n      keccak256\n        /* \"privacy/zkp/TransferProver.sol\":3063:3085  icComponents[i + 1][1] */\n      0x00\n        /* \"privacy/zkp/TransferProver.sol\":3083:3084  1 */\n      0x01\n        /* \"privacy/zkp/TransferProver.sol\":3063:3085  icComponents[i + 1][1] */\n      dup2\n      mstore\n      0x20\n      add\n      swap1\n      dup2\n      mstore\n      0x20\n      add\n      0x00\n      keccak256\n      sload\n        /* \"privacy/zkp/TransferProver.sol\":3010:3126  _scalarMul(... */\n      dup2\n      mstore\n      pop\n        /* \"privacy/zkp/TransferProver.sol\":3104:3109  input */\n      dup8\n        /* \"privacy/zkp/TransferProver.sol\":3110:3111  i */\n      dup6\n        /* \"privacy/zkp/TransferProver.sol\":3104:3112  input[i] */\n      0x01\n      dup2\n      lt\n      tag_311\n      jumpi\n      tag_312\n      tag_154\n      jump\t// in\n    tag_312:\n    tag_311:\n      0x20\n      mul\n      add\n      mload\n        /* \"privacy/zkp/TransferProver.sol\":3010:3020  _scalarMul */\n      tag_313\n        /* \"privacy/zkp/TransferProver.sol\":3010:3126  _scalarMul(... */\n      jump\t// in\n    tag_308:\n        /* \"privacy/zkp/TransferProver.sol\":2985:3126  (uint256 x, uint256 y) = _scalarMul(... */\n      swap2\n      pop\n      swap2\n      pop\n        /* \"privacy/zkp/TransferProver.sol\":3174:3285  _pointAdd(... */\n      tag_314\n        /* \"privacy/zkp/TransferProver.sol\":3201:3205  vk_x */\n      dup5\n        /* \"privacy/zkp/TransferProver.sol\":3206:3207  0 */\n      0x00\n        /* \"privacy/zkp/TransferProver.sol\":3201:3208  vk_x[0] */\n      0x02\n      dup2\n      lt\n      tag_315\n      jumpi\n      tag_316\n      tag_154\n      jump\t// in\n    tag_316:\n    tag_315:\n      0x20\n      mul\n      add\n      mload\n        /* \"privacy/zkp/TransferProver.sol\":3226:3230  vk_x */\n      dup6\n        /* \"privacy/zkp/TransferProver.sol\":3231:3232  1 */\n      0x01\n        /* \"privacy/zkp/TransferProver.sol\":3226:3233  vk_x[1] */\n      0x02\n      dup2\n      lt\n      tag_317\n      jumpi\n      tag_318\n      tag_154\n      jump\t// in\n    tag_318:\n    tag_317:\n      0x20\n      mul\n      add\n      mload\n        /* \"privacy/zkp/TransferProver.sol\":3251:3252  x */\n      dup5\n        /* \"privacy/zkp/TransferProver.sol\":3270:3271  y */\n      dup5\n        /* \"privacy/zkp/TransferProver.sol\":3174:3183  _pointAdd */\n      tag_319\n        /* \"privacy/zkp/TransferProver.sol\":3174:3285  _pointAdd(... */\n      jump\t// in\n    tag_314:\n        /* \"privacy/zkp/TransferProver.sol\":3154:3158  vk_x */\n      dup6\n        /* \"privacy/zkp/TransferProver.sol\":3159:3160  0 */\n      0x00\n        /* \"privacy/zkp/TransferProver.sol\":3154:3161  vk_x[0] */\n      0x02\n      dup2\n      lt\n      tag_320\n      jumpi\n      tag_321\n      tag_154\n      jump\t// in\n    tag_321:\n    tag_320:\n      0x20\n      mul\n      add\n        /* \"privacy/zkp/TransferProver.sol\":3163:3167  vk_x */\n      dup7\n        /* \"privacy/zkp/TransferProver.sol\":3168:3169  1 */\n      0x01\n        /* \"privacy/zkp/TransferProver.sol\":3163:3170  vk_x[1] */\n      0x02\n      dup2\n      lt\n      tag_322\n      jumpi\n      tag_323\n      tag_154\n      jump\t// in\n    tag_323:\n    tag_322:\n      0x20\n      mul\n      add\n        /* \"privacy/zkp/TransferProver.sol\":3153:3285  (vk_x[0], vk_x[1]) = _pointAdd(... */\n      dup3\n      dup2\n      mstore\n      pop\n      dup3\n      dup2\n      mstore\n      pop\n      pop\n      pop\n        /* \"privacy/zkp/TransferProver.sol\":2971:3296  {... */\n      pop\n      pop\n        /* \"privacy/zkp/TransferProver.sol\":2966:2969  i++ */\n      dup1\n      dup1\n      0x01\n      add\n      swap2\n      pop\n      pop\n        /* \"privacy/zkp/TransferProver.sol\":2928:3296  for (uint256 i = 0; i < input.length; i++) {... */\n      jump(tag_305)\n    tag_306:\n      pop\n        /* \"privacy/zkp/TransferProver.sol\":3313:3620  _verifyPairing(... */\n      tag_324\n        /* \"privacy/zkp/TransferProver.sol\":3341:3342  a */\n      dup7\n        /* \"privacy/zkp/TransferProver.sol\":3356:3357  b */\n      dup7\n        /* \"privacy/zkp/TransferProver.sol\":3313:3620  _verifyPairing(... */\n      mload(0x40)\n      dup1\n      0x40\n      add\n      0x40\n      mstore\n      dup1\n        /* \"privacy/zkp/TransferProver.sol\":3372:3387  alphaComponents */\n      0x03\n        /* \"privacy/zkp/TransferProver.sol\":3372:3390  alphaComponents[0] */\n      0x00\n        /* \"privacy/zkp/TransferProver.sol\":3388:3389  0 */\n      dup1\n        /* \"privacy/zkp/TransferProver.sol\":3372:3390  alphaComponents[0] */\n      dup2\n      mstore\n      0x20\n      add\n      swap1\n      dup2\n      mstore\n      0x20\n      add\n      0x00\n      keccak256\n      sload\n        /* \"privacy/zkp/TransferProver.sol\":3313:3620  _verifyPairing(... */\n      dup2\n      mstore\n      0x20\n      add\n        /* \"privacy/zkp/TransferProver.sol\":3392:3407  alphaComponents */\n      0x03\n        /* \"privacy/zkp/TransferProver.sol\":3392:3410  alphaComponents[1] */\n      0x00\n        /* \"privacy/zkp/TransferProver.sol\":3408:3409  1 */\n      0x01\n        /* \"privacy/zkp/TransferProver.sol\":3392:3410  alphaComponents[1] */\n      dup2\n      mstore\n      0x20\n      add\n      swap1\n      dup2\n      mstore\n      0x20\n      add\n      0x00\n      keccak256\n      sload\n        /* \"privacy/zkp/TransferProver.sol\":3313:3620  _verifyPairing(... */\n      dup2\n      mstore\n      pop\n      mload(0x40)\n      dup1\n      0x40\n      add\n      0x40\n      mstore\n      dup1\n        /* \"privacy/zkp/TransferProver.sol\":3426:3440  betaComponents */\n      0x04\n        /* \"privacy/zkp/TransferProver.sol\":3426:3443  betaComponents[0] */\n      0x00\n        /* \"privacy/zkp/TransferProver.sol\":3441:3442  0 */\n      dup1\n        /* \"privacy/zkp/TransferProver.sol\":3426:3443  betaComponents[0] */\n      dup2\n      mstore\n      0x20\n      add\n      swap1\n      dup2\n      mstore\n      0x20\n      add\n      0x00\n      keccak256\n        /* \"privacy/zkp/TransferProver.sol\":3426:3446  betaComponents[0][0] */\n      0x00\n        /* \"privacy/zkp/TransferProver.sol\":3444:3445  0 */\n      dup1\n        /* \"privacy/zkp/TransferProver.sol\":3426:3446  betaComponents[0][0] */\n      dup2\n      mstore\n      0x20\n      add\n      swap1\n      dup2\n      mstore\n      0x20\n      add\n      0x00\n      keccak256\n      sload\n        /* \"privacy/zkp/TransferProver.sol\":3313:3620  _verifyPairing(... */\n      dup2\n      mstore\n      0x20\n      add\n        /* \"privacy/zkp/TransferProver.sol\":3448:3462  betaComponents */\n      0x04\n        /* \"privacy/zkp/TransferProver.sol\":3448:3465  betaComponents[0] */\n      0x00\n        /* \"privacy/zkp/TransferProver.sol\":3463:3464  0 */\n      dup1\n        /* \"privacy/zkp/TransferProver.sol\":3448:3465  betaComponents[0] */\n      dup2\n      mstore\n      0x20\n      add\n      swap1\n      dup2\n      mstore\n      0x20\n      add\n      0x00\n      keccak256\n        /* \"privacy/zkp/TransferProver.sol\":3448:3468  betaComponents[0][1] */\n      0x00\n        /* \"privacy/zkp/TransferProver.sol\":3466:3467  1 */\n      0x01\n        /* \"privacy/zkp/TransferProver.sol\":3448:3468  betaComponents[0][1] */\n      dup2\n      mstore\n      0x20\n      add\n      swap1\n      dup2\n      mstore\n      0x20\n      add\n      0x00\n      keccak256\n      sload\n        /* \"privacy/zkp/TransferProver.sol\":3313:3620  _verifyPairing(... */\n      dup2\n      mstore\n      pop\n        /* \"privacy/zkp/TransferProver.sol\":3483:3487  vk_x */\n      dup6\n        /* \"privacy/zkp/TransferProver.sol\":3313:3620  _verifyPairing(... */\n      mload(0x40)\n      dup1\n      0x40\n      add\n      0x40\n      mstore\n      dup1\n        /* \"privacy/zkp/TransferProver.sol\":3502:3517  gammaComponents */\n      0x05\n        /* \"privacy/zkp/TransferProver.sol\":3502:3520  gammaComponents[0] */\n      0x00\n        /* \"privacy/zkp/TransferProver.sol\":3518:3519  0 */\n      dup1\n        /* \"privacy/zkp/TransferProver.sol\":3502:3520  gammaComponents[0] */\n      dup2\n      mstore\n      0x20\n      add\n      swap1\n      dup2\n      mstore\n      0x20\n      add\n      0x00\n      keccak256\n      sload\n        /* \"privacy/zkp/TransferProver.sol\":3313:3620  _verifyPairing(... */\n      dup2\n      mstore\n      0x20\n      add\n        /* \"privacy/zkp/TransferProver.sol\":3522:3537  gammaComponents */\n      0x05\n        /* \"privacy/zkp/TransferProver.sol\":3522:3540  gammaComponents[1] */\n      0x00\n        /* \"privacy/zkp/TransferProver.sol\":3538:3539  1 */\n      0x01\n        /* \"privacy/zkp/TransferProver.sol\":3522:3540  gammaComponents[1] */\n      dup2\n      mstore\n      0x20\n      add\n      swap1\n      dup2\n      mstore\n      0x20\n      add\n      0x00\n      keccak256\n      sload\n        /* \"privacy/zkp/TransferProver.sol\":3313:3620  _verifyPairing(... */\n      dup2\n      mstore\n      pop\n        /* \"privacy/zkp/TransferProver.sol\":3555:3556  c */\n      dup11\n        /* \"privacy/zkp/TransferProver.sol\":3313:3620  _verifyPairing(... */\n      mload(0x40)\n      dup1\n      0x40\n      add\n      0x40\n      mstore\n      dup1\n        /* \"privacy/zkp/TransferProver.sol\":3571:3586  deltaComponents */\n      0x06\n        /* \"privacy/zkp/TransferProver.sol\":3571:3589  deltaComponents[0] */\n      0x00\n        /* \"privacy/zkp/TransferProver.sol\":3587:3588  0 */\n      dup1\n        /* \"privacy/zkp/TransferProver.sol\":3571:3589  deltaComponents[0] */\n      dup2\n      mstore\n      0x20\n      add\n      swap1\n      dup2\n      mstore\n      0x20\n      add\n      0x00\n      keccak256\n      sload\n        /* \"privacy/zkp/TransferProver.sol\":3313:3620  _verifyPairing(... */\n      dup2\n      mstore\n      0x20\n      add\n        /* \"privacy/zkp/TransferProver.sol\":3591:3606  deltaComponents */\n      0x06\n        /* \"privacy/zkp/TransferProver.sol\":3591:3609  deltaComponents[1] */\n      0x00\n        /* \"privacy/zkp/TransferProver.sol\":3607:3608  1 */\n      0x01\n        /* \"privacy/zkp/TransferProver.sol\":3591:3609  deltaComponents[1] */\n      dup2\n      mstore\n      0x20\n      add\n      swap1\n      dup2\n      mstore\n      0x20\n      add\n      0x00\n      keccak256\n      sload\n        /* \"privacy/zkp/TransferProver.sol\":3313:3620  _verifyPairing(... */\n      dup2\n      mstore\n      pop\n        /* \"privacy/zkp/TransferProver.sol\":3313:3327  _verifyPairing */\n      tag_325\n        /* \"privacy/zkp/TransferProver.sol\":3313:3620  _verifyPairing(... */\n      jump\t// in\n    tag_324:\n        /* \"privacy/zkp/TransferProver.sol\":3306:3620  return _verifyPairing(... */\n      swap2\n      pop\n      pop\n        /* \"privacy/zkp/TransferProver.sol\":2590:3627  function _verifyProof(... */\n      swap5\n      swap4\n      pop\n      pop\n      pop\n      pop\n      jump\t// out\n        /* \"@openzeppelin/contracts/utils/ReentrancyGuard.sol\":2575:2882  function _nonReentrantBefore() private {... */\n    tag_183:\n        /* \"@openzeppelin/contracts/utils/ReentrancyGuard.sol\":1899:1900  2 */\n      0x02\n        /* \"@openzeppelin/contracts/utils/ReentrancyGuard.sol\":2702:2709  _status */\n      sload(0x01)\n        /* \"@openzeppelin/contracts/utils/ReentrancyGuard.sol\":2702:2720  _status == ENTERED */\n      sub\n        /* \"@openzeppelin/contracts/utils/ReentrancyGuard.sol\":2698:2784  if (_status == ENTERED) {... */\n      tag_327\n      jumpi\n        /* \"@openzeppelin/contracts/utils/ReentrancyGuard.sol\":2743:2773  ReentrancyGuardReentrantCall() */\n      mload(0x40)\n      0x3ee5aeb500000000000000000000000000000000000000000000000000000000\n      dup2\n      mstore\n      0x04\n      add\n      mload(0x40)\n      dup1\n      swap2\n      sub\n      swap1\n      revert\n        /* \"@openzeppelin/contracts/utils/ReentrancyGuard.sol\":2698:2784  if (_status == ENTERED) {... */\n    tag_327:\n        /* \"@openzeppelin/contracts/utils/ReentrancyGuard.sol\":1899:1900  2 */\n      0x02\n        /* \"@openzeppelin/contracts/utils/ReentrancyGuard.sol\":2858:2865  _status */\n      0x01\n        /* \"@openzeppelin/contracts/utils/ReentrancyGuard.sol\":2858:2875  _status = ENTERED */\n      dup2\n      swap1\n      sstore\n      pop\n        /* \"@openzeppelin/contracts/utils/ReentrancyGuard.sol\":2575:2882  function _nonReentrantBefore() private {... */\n      jump\t// out\n        /* \"@openzeppelin/contracts/utils/Pausable.sol\":2002:2130  function _requireNotPaused() internal view virtual {... */\n    tag_186:\n        /* \"@openzeppelin/contracts/utils/Pausable.sol\":2067:2075  paused() */\n      tag_329\n        /* \"@openzeppelin/contracts/utils/Pausable.sol\":2067:2073  paused */\n      tag_86\n        /* \"@openzeppelin/contracts/utils/Pausable.sol\":2067:2075  paused() */\n      jump\t// in\n    tag_329:\n        /* \"@openzeppelin/contracts/utils/Pausable.sol\":2063:2124  if (paused()) {... */\n      iszero\n      tag_330\n      jumpi\n        /* \"@openzeppelin/contracts/utils/Pausable.sol\":2098:2113  EnforcedPause() */\n      mload(0x40)\n      0xd93c066500000000000000000000000000000000000000000000000000000000\n      dup2\n      mstore\n      0x04\n      add\n      mload(0x40)\n      dup1\n      swap2\n      sub\n      swap1\n      revert\n        /* \"@openzeppelin/contracts/utils/Pausable.sol\":2063:2124  if (paused()) {... */\n    tag_330:\n        /* \"@openzeppelin/contracts/utils/Pausable.sol\":2002:2130  function _requireNotPaused() internal view virtual {... */\n      jump\t// out\n        /* \"privacy/zkp/TransferProver.sol\":6266:6893  function insertIntoMerkleTree(bytes32 commitment) internal returns (uint256) {... */\n    tag_207:\n        /* \"privacy/zkp/TransferProver.sol\":6334:6341  uint256 */\n      0x00\n        /* \"privacy/zkp/TransferProver.sol\":6353:6366  uint256 index */\n      dup1\n        /* \"privacy/zkp/TransferProver.sol\":6369:6383  getNextIndex() */\n      tag_332\n        /* \"privacy/zkp/TransferProver.sol\":6369:6381  getNextIndex */\n      tag_333\n        /* \"privacy/zkp/TransferProver.sol\":6369:6383  getNextIndex() */\n      jump\t// in\n    tag_332:\n        /* \"privacy/zkp/TransferProver.sol\":6353:6383  uint256 index = getNextIndex() */\n      swap1\n      pop\n        /* \"privacy/zkp/TransferProver.sol\":6421:6431  commitment */\n      dup3\n        /* \"privacy/zkp/TransferProver.sol\":6393:6403  merkleTree */\n      0x0b\n        /* \"privacy/zkp/TransferProver.sol\":6393:6415  merkleTree[commitment] */\n      0x00\n        /* \"privacy/zkp/TransferProver.sol\":6404:6414  commitment */\n      dup6\n        /* \"privacy/zkp/TransferProver.sol\":6393:6415  merkleTree[commitment] */\n      dup2\n      mstore\n      0x20\n      add\n      swap1\n      dup2\n      mstore\n      0x20\n      add\n      0x00\n      keccak256\n        /* \"privacy/zkp/TransferProver.sol\":6393:6418  merkleTree[commitment][0] */\n      0x00\n        /* \"privacy/zkp/TransferProver.sol\":6416:6417  0 */\n      dup1\n        /* \"privacy/zkp/TransferProver.sol\":6393:6418  merkleTree[commitment][0] */\n      dup2\n      mstore\n      0x20\n      add\n      swap1\n      dup2\n      mstore\n      0x20\n      add\n      0x00\n      keccak256\n        /* \"privacy/zkp/TransferProver.sol\":6393:6431  merkleTree[commitment][0] = commitment */\n      dup2\n      swap1\n      sstore\n      pop\n        /* \"privacy/zkp/TransferProver.sol\":6442:6461  bytes32 currentHash */\n      0x00\n        /* \"privacy/zkp/TransferProver.sol\":6464:6474  commitment */\n      dup4\n        /* \"privacy/zkp/TransferProver.sol\":6442:6474  bytes32 currentHash = commitment */\n      swap1\n      pop\n        /* \"privacy/zkp/TransferProver.sol\":6489:6498  uint256 i */\n      0x00\n        /* \"privacy/zkp/TransferProver.sol\":6484:6802  for (uint256 i = 0; i < MERKLE_TREE_LEVELS; i++) {... */\n    tag_334:\n        /* \"privacy/zkp/TransferProver.sol\":1331:1333  20 */\n      0x14\n        /* \"privacy/zkp/TransferProver.sol\":6504:6505  i */\n      dup2\n        /* \"privacy/zkp/TransferProver.sol\":6504:6526  i < MERKLE_TREE_LEVELS */\n      lt\n        /* \"privacy/zkp/TransferProver.sol\":6484:6802  for (uint256 i = 0; i < MERKLE_TREE_LEVELS; i++) {... */\n      iszero\n      tag_335\n      jumpi\n        /* \"privacy/zkp/TransferProver.sol\":6547:6567  uint256 siblingIndex */\n      0x00\n        /* \"privacy/zkp/TransferProver.sol\":6570:6595  getSiblingIndex(index, i) */\n      tag_337\n        /* \"privacy/zkp/TransferProver.sol\":6586:6591  index */\n      dup5\n        /* \"privacy/zkp/TransferProver.sol\":6593:6594  i */\n      dup4\n        /* \"privacy/zkp/TransferProver.sol\":6570:6585  getSiblingIndex */\n      tag_230\n        /* \"privacy/zkp/TransferProver.sol\":6570:6595  getSiblingIndex(index, i) */\n      jump\t// in\n    tag_337:\n        /* \"privacy/zkp/TransferProver.sol\":6547:6595  uint256 siblingIndex = getSiblingIndex(index, i) */\n      swap1\n      pop\n        /* \"privacy/zkp/TransferProver.sol\":6609:6624  bytes32 sibling */\n      0x00\n        /* \"privacy/zkp/TransferProver.sol\":6627:6637  merkleTree */\n      0x0b\n        /* \"privacy/zkp/TransferProver.sol\":6627:6649  merkleTree[bytes32(0)] */\n      0x00\n        /* \"privacy/zkp/TransferProver.sol\":6646:6647  0 */\n      dup1\n        /* \"privacy/zkp/TransferProver.sol\":6638:6648  bytes32(0) */\n      0x00\n      shl\n        /* \"privacy/zkp/TransferProver.sol\":6627:6649  merkleTree[bytes32(0)] */\n      dup2\n      mstore\n      0x20\n      add\n      swap1\n      dup2\n      mstore\n      0x20\n      add\n      0x00\n      keccak256\n        /* \"privacy/zkp/TransferProver.sol\":6627:6663  merkleTree[bytes32(0)][siblingIndex] */\n      0x00\n        /* \"privacy/zkp/TransferProver.sol\":6650:6662  siblingIndex */\n      dup4\n        /* \"privacy/zkp/TransferProver.sol\":6627:6663  merkleTree[bytes32(0)][siblingIndex] */\n      dup2\n      mstore\n      0x20\n      add\n      swap1\n      dup2\n      mstore\n      0x20\n      add\n      0x00\n      keccak256\n      sload\n        /* \"privacy/zkp/TransferProver.sol\":6609:6663  bytes32 sibling = merkleTree[bytes32(0)][siblingIndex] */\n      swap1\n      pop\n        /* \"privacy/zkp/TransferProver.sol\":6704:6734  hashPair(currentHash, sibling) */\n      tag_338\n        /* \"privacy/zkp/TransferProver.sol\":6713:6724  currentHash */\n      dup5\n        /* \"privacy/zkp/TransferProver.sol\":6726:6733  sibling */\n      dup3\n        /* \"privacy/zkp/TransferProver.sol\":6704:6712  hashPair */\n      tag_159\n        /* \"privacy/zkp/TransferProver.sol\":6704:6734  hashPair(currentHash, sibling) */\n      jump\t// in\n    tag_338:\n        /* \"privacy/zkp/TransferProver.sol\":6690:6734  currentHash = hashPair(currentHash, sibling) */\n      swap4\n      pop\n        /* \"privacy/zkp/TransferProver.sol\":6780:6791  currentHash */\n      dup4\n        /* \"privacy/zkp/TransferProver.sol\":6748:6758  merkleTree */\n      0x0b\n        /* \"privacy/zkp/TransferProver.sol\":6748:6770  merkleTree[commitment] */\n      0x00\n        /* \"privacy/zkp/TransferProver.sol\":6759:6769  commitment */\n      dup10\n        /* \"privacy/zkp/TransferProver.sol\":6748:6770  merkleTree[commitment] */\n      dup2\n      mstore\n      0x20\n      add\n      swap1\n      dup2\n      mstore\n      0x20\n      add\n      0x00\n      keccak256\n        /* \"privacy/zkp/TransferProver.sol\":6748:6777  merkleTree[commitment][i + 1] */\n      0x00\n        /* \"privacy/zkp/TransferProver.sol\":6775:6776  1 */\n      0x01\n        /* \"privacy/zkp/TransferProver.sol\":6771:6772  i */\n      dup7\n        /* \"privacy/zkp/TransferProver.sol\":6771:6776  i + 1 */\n      tag_339\n      swap2\n      swap1\n      tag_301\n      jump\t// in\n    tag_339:\n        /* \"privacy/zkp/TransferProver.sol\":6748:6777  merkleTree[commitment][i + 1] */\n      dup2\n      mstore\n      0x20\n      add\n      swap1\n      dup2\n      mstore\n      0x20\n      add\n      0x00\n      keccak256\n        /* \"privacy/zkp/TransferProver.sol\":6748:6791  merkleTree[commitment][i + 1] = currentHash */\n      dup2\n      swap1\n      sstore\n      pop\n        /* \"privacy/zkp/TransferProver.sol\":6533:6802  {... */\n      pop\n      pop\n        /* \"privacy/zkp/TransferProver.sol\":6528:6531  i++ */\n      dup1\n      dup1\n      0x01\n      add\n      swap2\n      pop\n      pop\n        /* \"privacy/zkp/TransferProver.sol\":6484:6802  for (uint256 i = 0; i < MERKLE_TREE_LEVELS; i++) {... */\n      jump(tag_334)\n    tag_335:\n      pop\n        /* \"privacy/zkp/TransferProver.sol\":6850:6861  currentHash */\n      dup1\n        /* \"privacy/zkp/TransferProver.sol\":6834:6863  uint160(bytes20(currentHash)) */\n      0x60\n      shr\n        /* \"privacy/zkp/TransferProver.sol\":6826:6864  uint256(uint160(bytes20(currentHash))) */\n      0xffffffffffffffffffffffffffffffffffffffff\n      and\n        /* \"privacy/zkp/TransferProver.sol\":6812:6823  currentRoot */\n      0x0d\n        /* \"privacy/zkp/TransferProver.sol\":6812:6864  currentRoot = uint256(uint160(bytes20(currentHash))) */\n      dup2\n      swap1\n      sstore\n      pop\n        /* \"privacy/zkp/TransferProver.sol\":6881:6886  index */\n      dup2\n        /* \"privacy/zkp/TransferProver.sol\":6874:6886  return index */\n      swap3\n      pop\n      pop\n      pop\n        /* \"privacy/zkp/TransferProver.sol\":6266:6893  function insertIntoMerkleTree(bytes32 commitment) internal returns (uint256) {... */\n      swap2\n      swap1\n      pop\n      jump\t// out\n        /* \"@openzeppelin/contracts/utils/ReentrancyGuard.sol\":2888:3096  function _nonReentrantAfter() private {... */\n    tag_211:\n        /* \"@openzeppelin/contracts/utils/ReentrancyGuard.sol\":1857:1858  1 */\n      0x01\n        /* \"@openzeppelin/contracts/utils/ReentrancyGuard.sol\":3068:3075  _status */\n      dup1\n        /* \"@openzeppelin/contracts/utils/ReentrancyGuard.sol\":3068:3089  _status = NOT_ENTERED */\n      dup2\n      swap1\n      sstore\n      pop\n        /* \"@openzeppelin/contracts/utils/ReentrancyGuard.sol\":2888:3096  function _nonReentrantAfter() private {... */\n      jump\t// out\n        /* \"privacy/zkp/TransferProver.sol\":10198:10351  function getSiblingIndex(... */\n    tag_230:\n        /* \"privacy/zkp/TransferProver.sol\":10298:10305  uint256 */\n      0x00\n        /* \"privacy/zkp/TransferProver.sol\":10338:10343  level */\n      dup2\n        /* \"privacy/zkp/TransferProver.sol\":10333:10334  1 */\n      0x01\n        /* \"privacy/zkp/TransferProver.sol\":10333:10343  1 << level */\n      swap1\n      shl\n        /* \"privacy/zkp/TransferProver.sol\":10324:10329  index */\n      dup4\n        /* \"privacy/zkp/TransferProver.sol\":10324:10344  index ^ (1 << level) */\n      xor\n        /* \"privacy/zkp/TransferProver.sol\":10317:10344  return index ^ (1 << level) */\n      swap1\n      pop\n        /* \"privacy/zkp/TransferProver.sol\":10198:10351  function getSiblingIndex(... */\n      swap3\n      swap2\n      pop\n      pop\n      jump\t// out\n        /* \"@openzeppelin/contracts/access/Ownable.sol\":1796:1958  function _checkOwner() internal view virtual {... */\n    tag_241:\n        /* \"@openzeppelin/contracts/access/Ownable.sol\":1866:1878  _msgSender() */\n      tag_343\n        /* \"@openzeppelin/contracts/access/Ownable.sol\":1866:1876  _msgSender */\n      tag_344\n        /* \"@openzeppelin/contracts/access/Ownable.sol\":1866:1878  _msgSender() */\n      jump\t// in\n    tag_343:\n        /* \"@openzeppelin/contracts/access/Ownable.sol\":1855:1878  owner() != _msgSender() */\n      0xffffffffffffffffffffffffffffffffffffffff\n      and\n        /* \"@openzeppelin/contracts/access/Ownable.sol\":1855:1862  owner() */\n      tag_345\n        /* \"@openzeppelin/contracts/access/Ownable.sol\":1855:1860  owner */\n      tag_106\n        /* \"@openzeppelin/contracts/access/Ownable.sol\":1855:1862  owner() */\n      jump\t// in\n    tag_345:\n        /* \"@openzeppelin/contracts/access/Ownable.sol\":1855:1878  owner() != _msgSender() */\n      0xffffffffffffffffffffffffffffffffffffffff\n      and\n      eq\n        /* \"@openzeppelin/contracts/access/Ownable.sol\":1851:1952  if (owner() != _msgSender()) {... */\n      tag_346\n      jumpi\n        /* \"@openzeppelin/contracts/access/Ownable.sol\":1928:1940  _msgSender() */\n      tag_347\n        /* \"@openzeppelin/contracts/access/Ownable.sol\":1928:1938  _msgSender */\n      tag_344\n        /* \"@openzeppelin/contracts/access/Ownable.sol\":1928:1940  _msgSender() */\n      jump\t// in\n    tag_347:\n        /* \"@openzeppelin/contracts/access/Ownable.sol\":1901:1941  OwnableUnauthorizedAccount(_msgSender()) */\n      mload(0x40)\n      0x118cdaa700000000000000000000000000000000000000000000000000000000\n      dup2\n      mstore\n      0x04\n      add\n      tag_348\n      swap2\n      swap1\n      tag_108\n      jump\t// in\n    tag_348:\n      mload(0x40)\n      dup1\n      swap2\n      sub\n      swap1\n      revert\n        /* \"@openzeppelin/contracts/access/Ownable.sol\":1851:1952  if (owner() != _msgSender()) {... */\n    tag_346:\n        /* \"@openzeppelin/contracts/access/Ownable.sol\":1796:1958  function _checkOwner() internal view virtual {... */\n      jump\t// out\n        /* \"@openzeppelin/contracts/utils/Pausable.sol\":2710:2827  function _unpause() internal virtual whenPaused {... */\n    tag_244:\n        /* \"@openzeppelin/contracts/utils/Pausable.sol\":1721:1737  _requirePaused() */\n      tag_350\n        /* \"@openzeppelin/contracts/utils/Pausable.sol\":1721:1735  _requirePaused */\n      tag_351\n        /* \"@openzeppelin/contracts/utils/Pausable.sol\":1721:1737  _requirePaused() */\n      jump\t// in\n    tag_350:\n        /* \"@openzeppelin/contracts/utils/Pausable.sol\":2778:2783  false */\n      0x00\n        /* \"@openzeppelin/contracts/utils/Pausable.sol\":2768:2775  _paused */\n      0x02\n      0x00\n        /* \"@openzeppelin/contracts/utils/Pausable.sol\":2768:2783  _paused = false */\n      0x0100\n      exp\n      dup2\n      sload\n      dup2\n      0xff\n      mul\n      not\n      and\n      swap1\n      dup4\n      iszero\n      iszero\n      mul\n      or\n      swap1\n      sstore\n      pop\n        /* \"@openzeppelin/contracts/utils/Pausable.sol\":2798:2820  Unpaused(_msgSender()) */\n      0x5db9ee0a495bf2e6ff9c91a7834c1ba4fdd244a5e8aa4e537bd38aeae4b073aa\n        /* \"@openzeppelin/contracts/utils/Pausable.sol\":2807:2819  _msgSender() */\n      tag_353\n        /* \"@openzeppelin/contracts/utils/Pausable.sol\":2807:2817  _msgSender */\n      tag_344\n        /* \"@openzeppelin/contracts/utils/Pausable.sol\":2807:2819  _msgSender() */\n      jump\t// in\n    tag_353:\n        /* \"@openzeppelin/contracts/utils/Pausable.sol\":2798:2820  Unpaused(_msgSender()) */\n      mload(0x40)\n      tag_354\n      swap2\n      swap1\n      tag_108\n      jump\t// in\n    tag_354:\n      mload(0x40)\n      dup1\n      swap2\n      sub\n      swap1\n      log1\n        /* \"@openzeppelin/contracts/utils/Pausable.sol\":2710:2827  function _unpause() internal virtual whenPaused {... */\n      jump\t// out\n        /* \"@openzeppelin/contracts/access/Ownable.sol\":2912:3099  function _transferOwnership(address newOwner) internal virtual {... */\n    tag_276:\n        /* \"@openzeppelin/contracts/access/Ownable.sol\":2985:3001  address oldOwner */\n      0x00\n        /* \"@openzeppelin/contracts/access/Ownable.sol\":3004:3010  _owner */\n      dup1\n      0x00\n      swap1\n      sload\n      swap1\n      0x0100\n      exp\n      swap1\n      div\n      0xffffffffffffffffffffffffffffffffffffffff\n      and\n        /* \"@openzeppelin/contracts/access/Ownable.sol\":2985:3010  address oldOwner = _owner */\n      swap1\n      pop\n        /* \"@openzeppelin/contracts/access/Ownable.sol\":3029:3037  newOwner */\n      dup2\n        /* \"@openzeppelin/contracts/access/Ownable.sol\":3020:3026  _owner */\n      0x00\n      dup1\n        /* \"@openzeppelin/contracts/access/Ownable.sol\":3020:3037  _owner = newOwner */\n      0x0100\n      exp\n      dup2\n      sload\n      dup2\n      0xffffffffffffffffffffffffffffffffffffffff\n      mul\n      not\n      and\n      swap1\n      dup4\n      0xffffffffffffffffffffffffffffffffffffffff\n      and\n      mul\n      or\n      swap1\n      sstore\n      pop\n        /* \"@openzeppelin/contracts/access/Ownable.sol\":3083:3091  newOwner */\n      dup2\n        /* \"@openzeppelin/contracts/access/Ownable.sol\":3052:3092  OwnershipTransferred(oldOwner, newOwner) */\n      0xffffffffffffffffffffffffffffffffffffffff\n      and\n        /* \"@openzeppelin/contracts/access/Ownable.sol\":3073:3081  oldOwner */\n      dup2\n        /* \"@openzeppelin/contracts/access/Ownable.sol\":3052:3092  OwnershipTransferred(oldOwner, newOwner) */\n      0xffffffffffffffffffffffffffffffffffffffff\n      and\n      0x8be0079c531659141344cd1fd0a4f28419497f9722a3daafe3b4186f6b6457e0\n      mload(0x40)\n      mload(0x40)\n      dup1\n      swap2\n      sub\n      swap1\n      log3\n        /* \"@openzeppelin/contracts/access/Ownable.sol\":2975:3099  {... */\n      pop\n        /* \"@openzeppelin/contracts/access/Ownable.sol\":2912:3099  function _transferOwnership(address newOwner) internal virtual {... */\n      pop\n      jump\t// out\n        /* \"@openzeppelin/contracts/utils/Pausable.sol\":2463:2578  function _pause() internal virtual whenNotPaused {... */\n    tag_281:\n        /* \"@openzeppelin/contracts/utils/Pausable.sol\":1474:1493  _requireNotPaused() */\n      tag_357\n        /* \"@openzeppelin/contracts/utils/Pausable.sol\":1474:1491  _requireNotPaused */\n      tag_186\n        /* \"@openzeppelin/contracts/utils/Pausable.sol\":1474:1493  _requireNotPaused() */\n      jump\t// in\n    tag_357:\n        /* \"@openzeppelin/contracts/utils/Pausable.sol\":2532:2536  true */\n      0x01\n        /* \"@openzeppelin/contracts/utils/Pausable.sol\":2522:2529  _paused */\n      0x02\n      0x00\n        /* \"@openzeppelin/contracts/utils/Pausable.sol\":2522:2536  _paused = true */\n      0x0100\n      exp\n      dup2\n      sload\n      dup2\n      0xff\n      mul\n      not\n      and\n      swap1\n      dup4\n      iszero\n      iszero\n      mul\n      or\n      swap1\n      sstore\n      pop\n        /* \"@openzeppelin/contracts/utils/Pausable.sol\":2551:2571  Paused(_msgSender()) */\n      0x62e78cea01bee320cd4e420270b5ea74000d11b0c9f74754ebdbfc544b05a258\n        /* \"@openzeppelin/contracts/utils/Pausable.sol\":2558:2570  _msgSender() */\n      tag_359\n        /* \"@openzeppelin/contracts/utils/Pausable.sol\":2558:2568  _msgSender */\n      tag_344\n        /* \"@openzeppelin/contracts/utils/Pausable.sol\":2558:2570  _msgSender() */\n      jump\t// in\n    tag_359:\n        /* \"@openzeppelin/contracts/utils/Pausable.sol\":2551:2571  Paused(_msgSender()) */\n      mload(0x40)\n      tag_360\n      swap2\n      swap1\n      tag_108\n      jump\t// in\n    tag_360:\n      mload(0x40)\n      dup1\n      swap2\n      sub\n      swap1\n      log1\n        /* \"@openzeppelin/contracts/utils/Pausable.sol\":2463:2578  function _pause() internal virtual whenNotPaused {... */\n      jump\t// out\n        /* \"privacy/zkp/TransferProver.sol\":10593:10789  function _scalarMul(uint256[2] memory p, uint256 s) internal pure returns (uint256, uint256) {... */\n    tag_313:\n        /* \"privacy/zkp/TransferProver.sol\":10668:10675  uint256 */\n      0x00\n        /* \"privacy/zkp/TransferProver.sol\":10677:10684  uint256 */\n      dup1\n        /* \"privacy/zkp/TransferProver.sol\":10770:10771  s */\n      dup3\n        /* \"privacy/zkp/TransferProver.sol\":10763:10764  p */\n      dup5\n        /* \"privacy/zkp/TransferProver.sol\":10765:10766  0 */\n      0x00\n        /* \"privacy/zkp/TransferProver.sol\":10763:10767  p[0] */\n      0x02\n      dup2\n      lt\n      tag_362\n      jumpi\n      tag_363\n      tag_154\n      jump\t// in\n    tag_363:\n    tag_362:\n      0x20\n      mul\n      add\n      mload\n        /* \"privacy/zkp/TransferProver.sol\":10763:10771  p[0] * s */\n      tag_364\n      swap2\n      swap1\n      tag_365\n      jump\t// in\n    tag_364:\n        /* \"privacy/zkp/TransferProver.sol\":10780:10781  s */\n      dup4\n        /* \"privacy/zkp/TransferProver.sol\":10773:10774  p */\n      dup6\n        /* \"privacy/zkp/TransferProver.sol\":10775:10776  1 */\n      0x01\n        /* \"privacy/zkp/TransferProver.sol\":10773:10777  p[1] */\n      0x02\n      dup2\n      lt\n      tag_366\n      jumpi\n      tag_367\n      tag_154\n      jump\t// in\n    tag_367:\n    tag_366:\n      0x20\n      mul\n      add\n      mload\n        /* \"privacy/zkp/TransferProver.sol\":10773:10781  p[1] * s */\n      tag_368\n      swap2\n      swap1\n      tag_365\n      jump\t// in\n    tag_368:\n        /* \"privacy/zkp/TransferProver.sol\":10755:10782  return (p[0] * s, p[1] * s) */\n      swap2\n      pop\n      swap2\n      pop\n        /* \"privacy/zkp/TransferProver.sol\":10593:10789  function _scalarMul(uint256[2] memory p, uint256 s) internal pure returns (uint256, uint256) {... */\n      swap3\n      pop\n      swap3\n      swap1\n      pop\n      jump\t// out\n        /* \"privacy/zkp/TransferProver.sol\":10795:10997  function _pointAdd(uint256 x1, uint256 y1, uint256 x2, uint256 y2) internal pure returns (uint256, uint256) {... */\n    tag_319:\n        /* \"privacy/zkp/TransferProver.sol\":10885:10892  uint256 */\n      0x00\n        /* \"privacy/zkp/TransferProver.sol\":10894:10901  uint256 */\n      dup1\n        /* \"privacy/zkp/TransferProver.sol\":10978:10980  x2 */\n      dup4\n        /* \"privacy/zkp/TransferProver.sol\":10973:10975  x1 */\n      dup7\n        /* \"privacy/zkp/TransferProver.sol\":10973:10980  x1 + x2 */\n      tag_370\n      swap2\n      swap1\n      tag_301\n      jump\t// in\n    tag_370:\n        /* \"privacy/zkp/TransferProver.sol\":10987:10989  y2 */\n      dup4\n        /* \"privacy/zkp/TransferProver.sol\":10982:10984  y1 */\n      dup7\n        /* \"privacy/zkp/TransferProver.sol\":10982:10989  y1 + y2 */\n      tag_371\n      swap2\n      swap1\n      tag_301\n      jump\t// in\n    tag_371:\n        /* \"privacy/zkp/TransferProver.sol\":10965:10990  return (x1 + x2, y1 + y2) */\n      swap2\n      pop\n      swap2\n      pop\n        /* \"privacy/zkp/TransferProver.sol\":10795:10997  function _pointAdd(uint256 x1, uint256 y1, uint256 x2, uint256 y2) internal pure returns (uint256, uint256) {... */\n      swap5\n      pop\n      swap5\n      swap3\n      pop\n      pop\n      pop\n      jump\t// out\n        /* \"privacy/zkp/TransferProver.sol\":11120:12701  function _verifyPairing(... */\n    tag_325:\n        /* \"privacy/zkp/TransferProver.sol\":11390:11394  bool */\n      0x00\n        /* \"privacy/zkp/TransferProver.sol\":11441:11465  uint256[24] memory input */\n      tag_373\n      tag_374\n      jump\t// in\n    tag_373:\n        /* \"privacy/zkp/TransferProver.sol\":11531:11550  _negate(a[0], a[1]) */\n      tag_375\n        /* \"privacy/zkp/TransferProver.sol\":11539:11540  a */\n      dup11\n        /* \"privacy/zkp/TransferProver.sol\":11541:11542  0 */\n      0x00\n        /* \"privacy/zkp/TransferProver.sol\":11539:11543  a[0] */\n      0x02\n      dup2\n      lt\n      tag_376\n      jumpi\n      tag_377\n      tag_154\n      jump\t// in\n    tag_377:\n    tag_376:\n      0x20\n      mul\n      add\n      mload\n        /* \"privacy/zkp/TransferProver.sol\":11545:11546  a */\n      dup12\n        /* \"privacy/zkp/TransferProver.sol\":11547:11548  1 */\n      0x01\n        /* \"privacy/zkp/TransferProver.sol\":11545:11549  a[1] */\n      0x02\n      dup2\n      lt\n      tag_378\n      jumpi\n      tag_379\n      tag_154\n      jump\t// in\n    tag_379:\n    tag_378:\n      0x20\n      mul\n      add\n      mload\n        /* \"privacy/zkp/TransferProver.sol\":11531:11538  _negate */\n      tag_380\n        /* \"privacy/zkp/TransferProver.sol\":11531:11550  _negate(a[0], a[1]) */\n      jump\t// in\n    tag_375:\n        /* \"privacy/zkp/TransferProver.sol\":11517:11518  a */\n      dup12\n        /* \"privacy/zkp/TransferProver.sol\":11519:11520  0 */\n      0x00\n        /* \"privacy/zkp/TransferProver.sol\":11517:11521  a[0] */\n      0x02\n      dup2\n      lt\n      tag_381\n      jumpi\n      tag_382\n      tag_154\n      jump\t// in\n    tag_382:\n    tag_381:\n      0x20\n      mul\n      add\n        /* \"privacy/zkp/TransferProver.sol\":11523:11524  a */\n      dup13\n        /* \"privacy/zkp/TransferProver.sol\":11525:11526  1 */\n      0x01\n        /* \"privacy/zkp/TransferProver.sol\":11523:11527  a[1] */\n      0x02\n      dup2\n      lt\n      tag_383\n      jumpi\n      tag_384\n      tag_154\n      jump\t// in\n    tag_384:\n    tag_383:\n      0x20\n      mul\n      add\n        /* \"privacy/zkp/TransferProver.sol\":11516:11550  (a[0], a[1]) = _negate(a[0], a[1]) */\n      dup3\n      dup2\n      mstore\n      pop\n      dup3\n      dup2\n      mstore\n      pop\n      pop\n      pop\n        /* \"privacy/zkp/TransferProver.sol\":11571:11590  _negate(c[0], c[1]) */\n      tag_385\n        /* \"privacy/zkp/TransferProver.sol\":11579:11580  c */\n      dup5\n        /* \"privacy/zkp/TransferProver.sol\":11581:11582  0 */\n      0x00\n        /* \"privacy/zkp/TransferProver.sol\":11579:11583  c[0] */\n      0x02\n      dup2\n      lt\n      tag_386\n      jumpi\n      tag_387\n      tag_154\n      jump\t// in\n    tag_387:\n    tag_386:\n      0x20\n      mul\n      add\n      mload\n        /* \"privacy/zkp/TransferProver.sol\":11585:11586  c */\n      dup6\n        /* \"privacy/zkp/TransferProver.sol\":11587:11588  1 */\n      0x01\n        /* \"privacy/zkp/TransferProver.sol\":11585:11589  c[1] */\n      0x02\n      dup2\n      lt\n      tag_388\n      jumpi\n      tag_389\n      tag_154\n      jump\t// in\n    tag_389:\n    tag_388:\n      0x20\n      mul\n      add\n      mload\n        /* \"privacy/zkp/TransferProver.sol\":11571:11578  _negate */\n      tag_380\n        /* \"privacy/zkp/TransferProver.sol\":11571:11590  _negate(c[0], c[1]) */\n      jump\t// in\n    tag_385:\n        /* \"privacy/zkp/TransferProver.sol\":11557:11558  c */\n      dup6\n        /* \"privacy/zkp/TransferProver.sol\":11559:11560  0 */\n      0x00\n        /* \"privacy/zkp/TransferProver.sol\":11557:11561  c[0] */\n      0x02\n      dup2\n      lt\n      tag_390\n      jumpi\n      tag_391\n      tag_154\n      jump\t// in\n    tag_391:\n    tag_390:\n      0x20\n      mul\n      add\n        /* \"privacy/zkp/TransferProver.sol\":11563:11564  c */\n      dup7\n        /* \"privacy/zkp/TransferProver.sol\":11565:11566  1 */\n      0x01\n        /* \"privacy/zkp/TransferProver.sol\":11563:11567  c[1] */\n      0x02\n      dup2\n      lt\n      tag_392\n      jumpi\n      tag_393\n      tag_154\n      jump\t// in\n    tag_393:\n    tag_392:\n      0x20\n      mul\n      add\n        /* \"privacy/zkp/TransferProver.sol\":11556:11590  (c[0], c[1]) = _negate(c[0], c[1]) */\n      dup3\n      dup2\n      mstore\n      pop\n      dup3\n      dup2\n      mstore\n      pop\n      pop\n      pop\n        /* \"privacy/zkp/TransferProver.sol\":11638:11639  a */\n      dup10\n        /* \"privacy/zkp/TransferProver.sol\":11640:11641  0 */\n      0x00\n        /* \"privacy/zkp/TransferProver.sol\":11638:11642  a[0] */\n      0x02\n      dup2\n      lt\n      tag_394\n      jumpi\n      tag_395\n      tag_154\n      jump\t// in\n    tag_395:\n    tag_394:\n      0x20\n      mul\n      add\n      mload\n        /* \"privacy/zkp/TransferProver.sol\":11627:11632  input */\n      dup2\n        /* \"privacy/zkp/TransferProver.sol\":11633:11634  0 */\n      0x00\n        /* \"privacy/zkp/TransferProver.sol\":11627:11635  input[0] */\n      0x18\n      dup2\n      lt\n      tag_396\n      jumpi\n      tag_397\n      tag_154\n      jump\t// in\n    tag_397:\n    tag_396:\n      0x20\n      mul\n      add\n        /* \"privacy/zkp/TransferProver.sol\":11627:11642  input[0] = a[0] */\n      dup2\n      dup2\n      mstore\n      pop\n      pop\n        /* \"privacy/zkp/TransferProver.sol\":11659:11660  a */\n      dup10\n        /* \"privacy/zkp/TransferProver.sol\":11661:11662  1 */\n      0x01\n        /* \"privacy/zkp/TransferProver.sol\":11659:11663  a[1] */\n      0x02\n      dup2\n      lt\n      tag_398\n      jumpi\n      tag_399\n      tag_154\n      jump\t// in\n    tag_399:\n    tag_398:\n      0x20\n      mul\n      add\n      mload\n        /* \"privacy/zkp/TransferProver.sol\":11648:11653  input */\n      dup2\n        /* \"privacy/zkp/TransferProver.sol\":11654:11655  1 */\n      0x01\n        /* \"privacy/zkp/TransferProver.sol\":11648:11656  input[1] */\n      0x18\n      dup2\n      lt\n      tag_400\n      jumpi\n      tag_401\n      tag_154\n      jump\t// in\n    tag_401:\n    tag_400:\n      0x20\n      mul\n      add\n        /* \"privacy/zkp/TransferProver.sol\":11648:11663  input[1] = a[1] */\n      dup2\n      dup2\n      mstore\n      pop\n      pop\n        /* \"privacy/zkp/TransferProver.sol\":11680:11681  b */\n      dup9\n        /* \"privacy/zkp/TransferProver.sol\":11682:11683  0 */\n      0x00\n        /* \"privacy/zkp/TransferProver.sol\":11680:11684  b[0] */\n      0x02\n      dup2\n      lt\n      tag_402\n      jumpi\n      tag_403\n      tag_154\n      jump\t// in\n    tag_403:\n    tag_402:\n      0x20\n      mul\n      add\n      mload\n        /* \"privacy/zkp/TransferProver.sol\":11685:11686  0 */\n      0x00\n        /* \"privacy/zkp/TransferProver.sol\":11680:11687  b[0][0] */\n      0x02\n      dup2\n      lt\n      tag_404\n      jumpi\n      tag_405\n      tag_154\n      jump\t// in\n    tag_405:\n    tag_404:\n      0x20\n      mul\n      add\n      mload\n        /* \"privacy/zkp/TransferProver.sol\":11669:11674  input */\n      dup2\n        /* \"privacy/zkp/TransferProver.sol\":11675:11676  2 */\n      0x02\n        /* \"privacy/zkp/TransferProver.sol\":11669:11677  input[2] */\n      0x18\n      dup2\n      lt\n      tag_406\n      jumpi\n      tag_407\n      tag_154\n      jump\t// in\n    tag_407:\n    tag_406:\n      0x20\n      mul\n      add\n        /* \"privacy/zkp/TransferProver.sol\":11669:11687  input[2] = b[0][0] */\n      dup2\n      dup2\n      mstore\n      pop\n      pop\n        /* \"privacy/zkp/TransferProver.sol\":11704:11705  b */\n      dup9\n        /* \"privacy/zkp/TransferProver.sol\":11706:11707  0 */\n      0x00\n        /* \"privacy/zkp/TransferProver.sol\":11704:11708  b[0] */\n      0x02\n      dup2\n      lt\n      tag_408\n      jumpi\n      tag_409\n      tag_154\n      jump\t// in\n    tag_409:\n    tag_408:\n      0x20\n      mul\n      add\n      mload\n        /* \"privacy/zkp/TransferProver.sol\":11709:11710  1 */\n      0x01\n        /* \"privacy/zkp/TransferProver.sol\":11704:11711  b[0][1] */\n      0x02\n      dup2\n      lt\n      tag_410\n      jumpi\n      tag_411\n      tag_154\n      jump\t// in\n    tag_411:\n    tag_410:\n      0x20\n      mul\n      add\n      mload\n        /* \"privacy/zkp/TransferProver.sol\":11693:11698  input */\n      dup2\n        /* \"privacy/zkp/TransferProver.sol\":11699:11700  3 */\n      0x03\n        /* \"privacy/zkp/TransferProver.sol\":11693:11701  input[3] */\n      0x18\n      dup2\n      lt\n      tag_412\n      jumpi\n      tag_413\n      tag_154\n      jump\t// in\n    tag_413:\n    tag_412:\n      0x20\n      mul\n      add\n        /* \"privacy/zkp/TransferProver.sol\":11693:11711  input[3] = b[0][1] */\n      dup2\n      dup2\n      mstore\n      pop\n      pop\n        /* \"privacy/zkp/TransferProver.sol\":11728:11729  b */\n      dup9\n        /* \"privacy/zkp/TransferProver.sol\":11730:11731  1 */\n      0x01\n        /* \"privacy/zkp/TransferProver.sol\":11728:11732  b[1] */\n      0x02\n      dup2\n      lt\n      tag_414\n      jumpi\n      tag_415\n      tag_154\n      jump\t// in\n    tag_415:\n    tag_414:\n      0x20\n      mul\n      add\n      mload\n        /* \"privacy/zkp/TransferProver.sol\":11733:11734  0 */\n      0x00\n        /* \"privacy/zkp/TransferProver.sol\":11728:11735  b[1][0] */\n      0x02\n      dup2\n      lt\n      tag_416\n      jumpi\n      tag_417\n      tag_154\n      jump\t// in\n    tag_417:\n    tag_416:\n      0x20\n      mul\n      add\n      mload\n        /* \"privacy/zkp/TransferProver.sol\":11717:11722  input */\n      dup2\n        /* \"privacy/zkp/TransferProver.sol\":11723:11724  4 */\n      0x04\n        /* \"privacy/zkp/TransferProver.sol\":11717:11725  input[4] */\n      0x18\n      dup2\n      lt\n      tag_418\n      jumpi\n      tag_419\n      tag_154\n      jump\t// in\n    tag_419:\n    tag_418:\n      0x20\n      mul\n      add\n        /* \"privacy/zkp/TransferProver.sol\":11717:11735  input[4] = b[1][0] */\n      dup2\n      dup2\n      mstore\n      pop\n      pop\n        /* \"privacy/zkp/TransferProver.sol\":11752:11753  b */\n      dup9\n        /* \"privacy/zkp/TransferProver.sol\":11754:11755  1 */\n      0x01\n        /* \"privacy/zkp/TransferProver.sol\":11752:11756  b[1] */\n      0x02\n      dup2\n      lt\n      tag_420\n      jumpi\n      tag_421\n      tag_154\n      jump\t// in\n    tag_421:\n    tag_420:\n      0x20\n      mul\n      add\n      mload\n        /* \"privacy/zkp/TransferProver.sol\":11757:11758  1 */\n      0x01\n        /* \"privacy/zkp/TransferProver.sol\":11752:11759  b[1][1] */\n      0x02\n      dup2\n      lt\n      tag_422\n      jumpi\n      tag_423\n      tag_154\n      jump\t// in\n    tag_423:\n    tag_422:\n      0x20\n      mul\n      add\n      mload\n        /* \"privacy/zkp/TransferProver.sol\":11741:11746  input */\n      dup2\n        /* \"privacy/zkp/TransferProver.sol\":11747:11748  5 */\n      0x05\n        /* \"privacy/zkp/TransferProver.sol\":11741:11749  input[5] */\n      0x18\n      dup2\n      lt\n      tag_424\n      jumpi\n      tag_425\n      tag_154\n      jump\t// in\n    tag_425:\n    tag_424:\n      0x20\n      mul\n      add\n        /* \"privacy/zkp/TransferProver.sol\":11741:11759  input[5] = b[1][1] */\n      dup2\n      dup2\n      mstore\n      pop\n      pop\n        /* \"privacy/zkp/TransferProver.sol\":11815:11820  alpha */\n      dup8\n        /* \"privacy/zkp/TransferProver.sol\":11821:11822  0 */\n      0x00\n        /* \"privacy/zkp/TransferProver.sol\":11815:11823  alpha[0] */\n      0x02\n      dup2\n      lt\n      tag_426\n      jumpi\n      tag_427\n      tag_154\n      jump\t// in\n    tag_427:\n    tag_426:\n      0x20\n      mul\n      add\n      mload\n        /* \"privacy/zkp/TransferProver.sol\":11804:11809  input */\n      dup2\n        /* \"privacy/zkp/TransferProver.sol\":11810:11811  6 */\n      0x06\n        /* \"privacy/zkp/TransferProver.sol\":11804:11812  input[6] */\n      0x18\n      dup2\n      lt\n      tag_428\n      jumpi\n      tag_429\n      tag_154\n      jump\t// in\n    tag_429:\n    tag_428:\n      0x20\n      mul\n      add\n        /* \"privacy/zkp/TransferProver.sol\":11804:11823  input[6] = alpha[0] */\n      dup2\n      dup2\n      mstore\n      pop\n      pop\n        /* \"privacy/zkp/TransferProver.sol\":11840:11845  alpha */\n      dup8\n        /* \"privacy/zkp/TransferProver.sol\":11846:11847  1 */\n      0x01\n        /* \"privacy/zkp/TransferProver.sol\":11840:11848  alpha[1] */\n      0x02\n      dup2\n      lt\n      tag_430\n      jumpi\n      tag_431\n      tag_154\n      jump\t// in\n    tag_431:\n    tag_430:\n      0x20\n      mul\n      add\n      mload\n        /* \"privacy/zkp/TransferProver.sol\":11829:11834  input */\n      dup2\n        /* \"privacy/zkp/TransferProver.sol\":11835:11836  7 */\n      0x07\n        /* \"privacy/zkp/TransferProver.sol\":11829:11837  input[7] */\n      0x18\n      dup2\n      lt\n      tag_432\n      jumpi\n      tag_433\n      tag_154\n      jump\t// in\n    tag_433:\n    tag_432:\n      0x20\n      mul\n      add\n        /* \"privacy/zkp/TransferProver.sol\":11829:11848  input[7] = alpha[1] */\n      dup2\n      dup2\n      mstore\n      pop\n      pop\n        /* \"privacy/zkp/TransferProver.sol\":11865:11869  beta */\n      dup7\n        /* \"privacy/zkp/TransferProver.sol\":11870:11871  0 */\n      0x00\n        /* \"privacy/zkp/TransferProver.sol\":11865:11872  beta[0] */\n      0x02\n      dup2\n      lt\n      tag_434\n      jumpi\n      tag_435\n      tag_154\n      jump\t// in\n    tag_435:\n    tag_434:\n      0x20\n      mul\n      add\n      mload\n        /* \"privacy/zkp/TransferProver.sol\":11854:11859  input */\n      dup2\n        /* \"privacy/zkp/TransferProver.sol\":11860:11861  8 */\n      0x08\n        /* \"privacy/zkp/TransferProver.sol\":11854:11862  input[8] */\n      0x18\n      dup2\n      lt\n      tag_436\n      jumpi\n      tag_437\n      tag_154\n      jump\t// in\n    tag_437:\n    tag_436:\n      0x20\n      mul\n      add\n        /* \"privacy/zkp/TransferProver.sol\":11854:11872  input[8] = beta[0] */\n      dup2\n      dup2\n      mstore\n      pop\n      pop\n        /* \"privacy/zkp/TransferProver.sol\":11889:11893  beta */\n      dup7\n        /* \"privacy/zkp/TransferProver.sol\":11894:11895  1 */\n      0x01\n        /* \"privacy/zkp/TransferProver.sol\":11889:11896  beta[1] */\n      0x02\n      dup2\n      lt\n      tag_438\n      jumpi\n      tag_439\n      tag_154\n      jump\t// in\n    tag_439:\n    tag_438:\n      0x20\n      mul\n      add\n      mload\n        /* \"privacy/zkp/TransferProver.sol\":11878:11883  input */\n      dup2\n        /* \"privacy/zkp/TransferProver.sol\":11884:11885  9 */\n      0x09\n        /* \"privacy/zkp/TransferProver.sol\":11878:11886  input[9] */\n      0x18\n      dup2\n      lt\n      tag_440\n      jumpi\n      tag_441\n      tag_154\n      jump\t// in\n    tag_441:\n    tag_440:\n      0x20\n      mul\n      add\n        /* \"privacy/zkp/TransferProver.sol\":11878:11896  input[9] = beta[1] */\n      dup2\n      dup2\n      mstore\n      pop\n      pop\n        /* \"privacy/zkp/TransferProver.sol\":11914:11918  beta */\n      dup7\n        /* \"privacy/zkp/TransferProver.sol\":11919:11920  0 */\n      0x00\n        /* \"privacy/zkp/TransferProver.sol\":11914:11921  beta[0] */\n      0x02\n      dup2\n      lt\n      tag_442\n      jumpi\n      tag_443\n      tag_154\n      jump\t// in\n    tag_443:\n    tag_442:\n      0x20\n      mul\n      add\n      mload\n        /* \"privacy/zkp/TransferProver.sol\":11902:11907  input */\n      dup2\n        /* \"privacy/zkp/TransferProver.sol\":11908:11910  10 */\n      0x0a\n        /* \"privacy/zkp/TransferProver.sol\":11902:11911  input[10] */\n      0x18\n      dup2\n      lt\n      tag_444\n      jumpi\n      tag_445\n      tag_154\n      jump\t// in\n    tag_445:\n    tag_444:\n      0x20\n      mul\n      add\n        /* \"privacy/zkp/TransferProver.sol\":11902:11921  input[10] = beta[0] */\n      dup2\n      dup2\n      mstore\n      pop\n      pop\n        /* \"privacy/zkp/TransferProver.sol\":11939:11943  beta */\n      dup7\n        /* \"privacy/zkp/TransferProver.sol\":11944:11945  1 */\n      0x01\n        /* \"privacy/zkp/TransferProver.sol\":11939:11946  beta[1] */\n      0x02\n      dup2\n      lt\n      tag_446\n      jumpi\n      tag_447\n      tag_154\n      jump\t// in\n    tag_447:\n    tag_446:\n      0x20\n      mul\n      add\n      mload\n        /* \"privacy/zkp/TransferProver.sol\":11927:11932  input */\n      dup2\n        /* \"privacy/zkp/TransferProver.sol\":11933:11935  11 */\n      0x0b\n        /* \"privacy/zkp/TransferProver.sol\":11927:11936  input[11] */\n      0x18\n      dup2\n      lt\n      tag_448\n      jumpi\n      tag_449\n      tag_154\n      jump\t// in\n    tag_449:\n    tag_448:\n      0x20\n      mul\n      add\n        /* \"privacy/zkp/TransferProver.sol\":11927:11946  input[11] = beta[1] */\n      dup2\n      dup2\n      mstore\n      pop\n      pop\n        /* \"privacy/zkp/TransferProver.sol\":12002:12006  vk_x */\n      dup6\n        /* \"privacy/zkp/TransferProver.sol\":12007:12008  0 */\n      0x00\n        /* \"privacy/zkp/TransferProver.sol\":12002:12009  vk_x[0] */\n      0x02\n      dup2\n      lt\n      tag_450\n      jumpi\n      tag_451\n      tag_154\n      jump\t// in\n    tag_451:\n    tag_450:\n      0x20\n      mul\n      add\n      mload\n        /* \"privacy/zkp/TransferProver.sol\":11990:11995  input */\n      dup2\n        /* \"privacy/zkp/TransferProver.sol\":11996:11998  12 */\n      0x0c\n        /* \"privacy/zkp/TransferProver.sol\":11990:11999  input[12] */\n      0x18\n      dup2\n      lt\n      tag_452\n      jumpi\n      tag_453\n      tag_154\n      jump\t// in\n    tag_453:\n    tag_452:\n      0x20\n      mul\n      add\n        /* \"privacy/zkp/TransferProver.sol\":11990:12009  input[12] = vk_x[0] */\n      dup2\n      dup2\n      mstore\n      pop\n      pop\n        /* \"privacy/zkp/TransferProver.sol\":12027:12031  vk_x */\n      dup6\n        /* \"privacy/zkp/TransferProver.sol\":12032:12033  1 */\n      0x01\n        /* \"privacy/zkp/TransferProver.sol\":12027:12034  vk_x[1] */\n      0x02\n      dup2\n      lt\n      tag_454\n      jumpi\n      tag_455\n      tag_154\n      jump\t// in\n    tag_455:\n    tag_454:\n      0x20\n      mul\n      add\n      mload\n        /* \"privacy/zkp/TransferProver.sol\":12015:12020  input */\n      dup2\n        /* \"privacy/zkp/TransferProver.sol\":12021:12023  13 */\n      0x0d\n        /* \"privacy/zkp/TransferProver.sol\":12015:12024  input[13] */\n      0x18\n      dup2\n      lt\n      tag_456\n      jumpi\n      tag_457\n      tag_154\n      jump\t// in\n    tag_457:\n    tag_456:\n      0x20\n      mul\n      add\n        /* \"privacy/zkp/TransferProver.sol\":12015:12034  input[13] = vk_x[1] */\n      dup2\n      dup2\n      mstore\n      pop\n      pop\n        /* \"privacy/zkp/TransferProver.sol\":12052:12057  gamma */\n      dup5\n        /* \"privacy/zkp/TransferProver.sol\":12058:12059  0 */\n      0x00\n        /* \"privacy/zkp/TransferProver.sol\":12052:12060  gamma[0] */\n      0x02\n      dup2\n      lt\n      tag_458\n      jumpi\n      tag_459\n      tag_154\n      jump\t// in\n    tag_459:\n    tag_458:\n      0x20\n      mul\n      add\n      mload\n        /* \"privacy/zkp/TransferProver.sol\":12040:12045  input */\n      dup2\n        /* \"privacy/zkp/TransferProver.sol\":12046:12048  14 */\n      0x0e\n        /* \"privacy/zkp/TransferProver.sol\":12040:12049  input[14] */\n      0x18\n      dup2\n      lt\n      tag_460\n      jumpi\n      tag_461\n      tag_154\n      jump\t// in\n    tag_461:\n    tag_460:\n      0x20\n      mul\n      add\n        /* \"privacy/zkp/TransferProver.sol\":12040:12060  input[14] = gamma[0] */\n      dup2\n      dup2\n      mstore\n      pop\n      pop\n        /* \"privacy/zkp/TransferProver.sol\":12078:12083  gamma */\n      dup5\n        /* \"privacy/zkp/TransferProver.sol\":12084:12085  1 */\n      0x01\n        /* \"privacy/zkp/TransferProver.sol\":12078:12086  gamma[1] */\n      0x02\n      dup2\n      lt\n      tag_462\n      jumpi\n      tag_463\n      tag_154\n      jump\t// in\n    tag_463:\n    tag_462:\n      0x20\n      mul\n      add\n      mload\n        /* \"privacy/zkp/TransferProver.sol\":12066:12071  input */\n      dup2\n        /* \"privacy/zkp/TransferProver.sol\":12072:12074  15 */\n      0x0f\n        /* \"privacy/zkp/TransferProver.sol\":12066:12075  input[15] */\n      0x18\n      dup2\n      lt\n      tag_464\n      jumpi\n      tag_465\n      tag_154\n      jump\t// in\n    tag_465:\n    tag_464:\n      0x20\n      mul\n      add\n        /* \"privacy/zkp/TransferProver.sol\":12066:12086  input[15] = gamma[1] */\n      dup2\n      dup2\n      mstore\n      pop\n      pop\n        /* \"privacy/zkp/TransferProver.sol\":12104:12109  gamma */\n      dup5\n        /* \"privacy/zkp/TransferProver.sol\":12110:12111  0 */\n      0x00\n        /* \"privacy/zkp/TransferProver.sol\":12104:12112  gamma[0] */\n      0x02\n      dup2\n      lt\n      tag_466\n      jumpi\n      tag_467\n      tag_154\n      jump\t// in\n    tag_467:\n    tag_466:\n      0x20\n      mul\n      add\n      mload\n        /* \"privacy/zkp/TransferProver.sol\":12092:12097  input */\n      dup2\n        /* \"privacy/zkp/TransferProver.sol\":12098:12100  16 */\n      0x10\n        /* \"privacy/zkp/TransferProver.sol\":12092:12101  input[16] */\n      0x18\n      dup2\n      lt\n      tag_468\n      jumpi\n      tag_469\n      tag_154\n      jump\t// in\n    tag_469:\n    tag_468:\n      0x20\n      mul\n      add\n        /* \"privacy/zkp/TransferProver.sol\":12092:12112  input[16] = gamma[0] */\n      dup2\n      dup2\n      mstore\n      pop\n      pop\n        /* \"privacy/zkp/TransferProver.sol\":12130:12135  gamma */\n      dup5\n        /* \"privacy/zkp/TransferProver.sol\":12136:12137  1 */\n      0x01\n        /* \"privacy/zkp/TransferProver.sol\":12130:12138  gamma[1] */\n      0x02\n      dup2\n      lt\n      tag_470\n      jumpi\n      tag_471\n      tag_154\n      jump\t// in\n    tag_471:\n    tag_470:\n      0x20\n      mul\n      add\n      mload\n        /* \"privacy/zkp/TransferProver.sol\":12118:12123  input */\n      dup2\n        /* \"privacy/zkp/TransferProver.sol\":12124:12126  17 */\n      0x11\n        /* \"privacy/zkp/TransferProver.sol\":12118:12127  input[17] */\n      0x18\n      dup2\n      lt\n      tag_472\n      jumpi\n      tag_473\n      tag_154\n      jump\t// in\n    tag_473:\n    tag_472:\n      0x20\n      mul\n      add\n        /* \"privacy/zkp/TransferProver.sol\":12118:12138  input[17] = gamma[1] */\n      dup2\n      dup2\n      mstore\n      pop\n      pop\n        /* \"privacy/zkp/TransferProver.sol\":12192:12193  c */\n      dup4\n        /* \"privacy/zkp/TransferProver.sol\":12194:12195  0 */\n      0x00\n        /* \"privacy/zkp/TransferProver.sol\":12192:12196  c[0] */\n      0x02\n      dup2\n      lt\n      tag_474\n      jumpi\n      tag_475\n      tag_154\n      jump\t// in\n    tag_475:\n    tag_474:\n      0x20\n      mul\n      add\n      mload\n        /* \"privacy/zkp/TransferProver.sol\":12180:12185  input */\n      dup2\n        /* \"privacy/zkp/TransferProver.sol\":12186:12188  18 */\n      0x12\n        /* \"privacy/zkp/TransferProver.sol\":12180:12189  input[18] */\n      0x18\n      dup2\n      lt\n      tag_476\n      jumpi\n      tag_477\n      tag_154\n      jump\t// in\n    tag_477:\n    tag_476:\n      0x20\n      mul\n      add\n        /* \"privacy/zkp/TransferProver.sol\":12180:12196  input[18] = c[0] */\n      dup2\n      dup2\n      mstore\n      pop\n      pop\n        /* \"privacy/zkp/TransferProver.sol\":12214:12215  c */\n      dup4\n        /* \"privacy/zkp/TransferProver.sol\":12216:12217  1 */\n      0x01\n        /* \"privacy/zkp/TransferProver.sol\":12214:12218  c[1] */\n      0x02\n      dup2\n      lt\n      tag_478\n      jumpi\n      tag_479\n      tag_154\n      jump\t// in\n    tag_479:\n    tag_478:\n      0x20\n      mul\n      add\n      mload\n        /* \"privacy/zkp/TransferProver.sol\":12202:12207  input */\n      dup2\n        /* \"privacy/zkp/TransferProver.sol\":12208:12210  19 */\n      0x13\n        /* \"privacy/zkp/TransferProver.sol\":12202:12211  input[19] */\n      0x18\n      dup2\n      lt\n      tag_480\n      jumpi\n      tag_481\n      tag_154\n      jump\t// in\n    tag_481:\n    tag_480:\n      0x20\n      mul\n      add\n        /* \"privacy/zkp/TransferProver.sol\":12202:12218  input[19] = c[1] */\n      dup2\n      dup2\n      mstore\n      pop\n      pop\n        /* \"privacy/zkp/TransferProver.sol\":12236:12241  delta */\n      dup3\n        /* \"privacy/zkp/TransferProver.sol\":12242:12243  0 */\n      0x00\n        /* \"privacy/zkp/TransferProver.sol\":12236:12244  delta[0] */\n      0x02\n      dup2\n      lt\n      tag_482\n      jumpi\n      tag_483\n      tag_154\n      jump\t// in\n    tag_483:\n    tag_482:\n      0x20\n      mul\n      add\n      mload\n        /* \"privacy/zkp/TransferProver.sol\":12224:12229  input */\n      dup2\n        /* \"privacy/zkp/TransferProver.sol\":12230:12232  20 */\n      0x14\n        /* \"privacy/zkp/TransferProver.sol\":12224:12233  input[20] */\n      0x18\n      dup2\n      lt\n      tag_484\n      jumpi\n      tag_485\n      tag_154\n      jump\t// in\n    tag_485:\n    tag_484:\n      0x20\n      mul\n      add\n        /* \"privacy/zkp/TransferProver.sol\":12224:12244  input[20] = delta[0] */\n      dup2\n      dup2\n      mstore\n      pop\n      pop\n        /* \"privacy/zkp/TransferProver.sol\":12262:12267  delta */\n      dup3\n        /* \"privacy/zkp/TransferProver.sol\":12268:12269  1 */\n      0x01\n        /* \"privacy/zkp/TransferProver.sol\":12262:12270  delta[1] */\n      0x02\n      dup2\n      lt\n      tag_486\n      jumpi\n      tag_487\n      tag_154\n      jump\t// in\n    tag_487:\n    tag_486:\n      0x20\n      mul\n      add\n      mload\n        /* \"privacy/zkp/TransferProver.sol\":12250:12255  input */\n      dup2\n        /* \"privacy/zkp/TransferProver.sol\":12256:12258  21 */\n      0x15\n        /* \"privacy/zkp/TransferProver.sol\":12250:12259  input[21] */\n      0x18\n      dup2\n      lt\n      tag_488\n      jumpi\n      tag_489\n      tag_154\n      jump\t// in\n    tag_489:\n    tag_488:\n      0x20\n      mul\n      add\n        /* \"privacy/zkp/TransferProver.sol\":12250:12270  input[21] = delta[1] */\n      dup2\n      dup2\n      mstore\n      pop\n      pop\n        /* \"privacy/zkp/TransferProver.sol\":12288:12293  delta */\n      dup3\n        /* \"privacy/zkp/TransferProver.sol\":12294:12295  0 */\n      0x00\n        /* \"privacy/zkp/TransferProver.sol\":12288:12296  delta[0] */\n      0x02\n      dup2\n      lt\n      tag_490\n      jumpi\n      tag_491\n      tag_154\n      jump\t// in\n    tag_491:\n    tag_490:\n      0x20\n      mul\n      add\n      mload\n        /* \"privacy/zkp/TransferProver.sol\":12276:12281  input */\n      dup2\n        /* \"privacy/zkp/TransferProver.sol\":12282:12284  22 */\n      0x16\n        /* \"privacy/zkp/TransferProver.sol\":12276:12285  input[22] */\n      0x18\n      dup2\n      lt\n      tag_492\n      jumpi\n      tag_493\n      tag_154\n      jump\t// in\n    tag_493:\n    tag_492:\n      0x20\n      mul\n      add\n        /* \"privacy/zkp/TransferProver.sol\":12276:12296  input[22] = delta[0] */\n      dup2\n      dup2\n      mstore\n      pop\n      pop\n        /* \"privacy/zkp/TransferProver.sol\":12314:12319  delta */\n      dup3\n        /* \"privacy/zkp/TransferProver.sol\":12320:12321  1 */\n      0x01\n        /* \"privacy/zkp/TransferProver.sol\":12314:12322  delta[1] */\n      0x02\n      dup2\n      lt\n      tag_494\n      jumpi\n      tag_495\n      tag_154\n      jump\t// in\n    tag_495:\n    tag_494:\n      0x20\n      mul\n      add\n      mload\n        /* \"privacy/zkp/TransferProver.sol\":12302:12307  input */\n      dup2\n        /* \"privacy/zkp/TransferProver.sol\":12308:12310  23 */\n      0x17\n        /* \"privacy/zkp/TransferProver.sol\":12302:12311  input[23] */\n      0x18\n      dup2\n      lt\n      tag_496\n      jumpi\n      tag_497\n      tag_154\n      jump\t// in\n    tag_497:\n    tag_496:\n      0x20\n      mul\n      add\n        /* \"privacy/zkp/TransferProver.sol\":12302:12322  input[23] = delta[1] */\n      dup2\n      dup2\n      mstore\n      pop\n      pop\n        /* \"privacy/zkp/TransferProver.sol\":12381:12402  uint256[1] memory out */\n      tag_498\n      tag_499\n      jump\t// in\n    tag_498:\n        /* \"privacy/zkp/TransferProver.sol\":12408:12420  bool success */\n      0x00\n        /* \"privacy/zkp/TransferProver.sol\":12617:12621  0x20 */\n      0x20\n        /* \"privacy/zkp/TransferProver.sol\":12612:12615  out */\n      dup3\n        /* \"privacy/zkp/TransferProver.sol\":12605:12610  0x180 */\n      0x0180\n        /* \"privacy/zkp/TransferProver.sol\":12598:12603  input */\n      dup6\n        /* \"privacy/zkp/TransferProver.sol\":12592:12596  0x08 */\n      0x08\n        /* \"privacy/zkp/TransferProver.sol\":12585:12590  gas() */\n      gas\n        /* \"privacy/zkp/TransferProver.sol\":12574:12622  staticcall(gas(), 0x08, input, 0x180, out, 0x20) */\n      staticcall\n        /* \"privacy/zkp/TransferProver.sol\":12563:12622  success := staticcall(gas(), 0x08, input, 0x180, out, 0x20) */\n      swap1\n      pop\n        /* \"privacy/zkp/TransferProver.sol\":12642:12649  success */\n      dup1\n        /* \"privacy/zkp/TransferProver.sol\":12634:12674  require(success, \"Pairing check failed\") */\n      tag_500\n      jumpi\n      mload(0x40)\n      0x08c379a000000000000000000000000000000000000000000000000000000000\n      dup2\n      mstore\n      0x04\n      add\n      tag_501\n      swap1\n      tag_502\n      jump\t// in\n    tag_501:\n      mload(0x40)\n      dup1\n      swap2\n      sub\n      swap1\n      revert\n    tag_500:\n        /* \"privacy/zkp/TransferProver.sol\":12697:12698  1 */\n      0x01\n        /* \"privacy/zkp/TransferProver.sol\":12687:12690  out */\n      dup3\n        /* \"privacy/zkp/TransferProver.sol\":12691:12692  0 */\n      0x00\n        /* \"privacy/zkp/TransferProver.sol\":12687:12693  out[0] */\n      0x01\n      dup2\n      lt\n      tag_503\n      jumpi\n      tag_504\n      tag_154\n      jump\t// in\n    tag_504:\n    tag_503:\n      0x20\n      mul\n      add\n      mload\n        /* \"privacy/zkp/TransferProver.sol\":12687:12698  out[0] == 1 */\n      eq\n        /* \"privacy/zkp/TransferProver.sol\":12680:12698  return out[0] == 1 */\n      swap4\n      pop\n      pop\n      pop\n      pop\n        /* \"privacy/zkp/TransferProver.sol\":11120:12701  function _verifyPairing(... */\n      swap9\n      swap8\n      pop\n      pop\n      pop\n      pop\n      pop\n      pop\n      pop\n      pop\n      jump\t// out\n        /* \"privacy/zkp/TransferProver.sol\":7004:7287  function getNextIndex() internal returns (uint256) {... */\n    tag_333:\n        /* \"privacy/zkp/TransferProver.sol\":7046:7053  uint256 */\n      0x00\n        /* \"privacy/zkp/TransferProver.sol\":7061:7074  uint256 index */\n      dup1\n        /* \"privacy/zkp/TransferProver.sol\":7077:7086  nextIndex */\n      sload(0x0e)\n        /* \"privacy/zkp/TransferProver.sol\":7061:7086  uint256 index = nextIndex */\n      swap1\n      pop\n        /* \"privacy/zkp/TransferProver.sol\":1331:1333  20 */\n      0x14\n        /* \"privacy/zkp/TransferProver.sol\":7161:7162  2 */\n      0x02\n        /* \"privacy/zkp/TransferProver.sol\":7161:7182  2**MERKLE_TREE_LEVELS */\n      tag_506\n      swap2\n      swap1\n      tag_286\n      jump\t// in\n    tag_506:\n        /* \"privacy/zkp/TransferProver.sol\":7153:7158  index */\n      dup2\n        /* \"privacy/zkp/TransferProver.sol\":7153:7182  index < 2**MERKLE_TREE_LEVELS */\n      lt\n        /* \"privacy/zkp/TransferProver.sol\":7145:7203  require(index < 2**MERKLE_TREE_LEVELS, \"Merkle tree full\") */\n      tag_507\n      jumpi\n      mload(0x40)\n      0x08c379a000000000000000000000000000000000000000000000000000000000\n      dup2\n      mstore\n      0x04\n      add\n      tag_508\n      swap1\n      tag_509\n      jump\t// in\n    tag_508:\n      mload(0x40)\n      dup1\n      swap2\n      sub\n      swap1\n      revert\n    tag_507:\n        /* \"privacy/zkp/TransferProver.sol\":7250:7259  nextIndex */\n      0x0e\n      0x00\n        /* \"privacy/zkp/TransferProver.sol\":7250:7261  nextIndex++ */\n      dup2\n      sload\n      dup1\n      swap3\n      swap2\n      swap1\n      tag_510\n      swap1\n      tag_511\n      jump\t// in\n    tag_510:\n      swap2\n      swap1\n      pop\n      sstore\n      pop\n        /* \"privacy/zkp/TransferProver.sol\":7279:7284  index */\n      dup1\n        /* \"privacy/zkp/TransferProver.sol\":7272:7284  return index */\n      swap2\n      pop\n      pop\n        /* \"privacy/zkp/TransferProver.sol\":7004:7287  function getNextIndex() internal returns (uint256) {... */\n      swap1\n      jump\t// out\n        /* \"@openzeppelin/contracts/utils/Context.sol\":656:752  function _msgSender() internal view virtual returns (address) {... */\n    tag_344:\n        /* \"@openzeppelin/contracts/utils/Context.sol\":709:716  address */\n      0x00\n        /* \"@openzeppelin/contracts/utils/Context.sol\":735:745  msg.sender */\n      caller\n        /* \"@openzeppelin/contracts/utils/Context.sol\":728:745  return msg.sender */\n      swap1\n      pop\n        /* \"@openzeppelin/contracts/utils/Context.sol\":656:752  function _msgSender() internal view virtual returns (address) {... */\n      swap1\n      jump\t// out\n        /* \"@openzeppelin/contracts/utils/Pausable.sol\":2202:2328  function _requirePaused() internal view virtual {... */\n    tag_351:\n        /* \"@openzeppelin/contracts/utils/Pausable.sol\":2265:2273  paused() */\n      tag_514\n        /* \"@openzeppelin/contracts/utils/Pausable.sol\":2265:2271  paused */\n      tag_86\n        /* \"@openzeppelin/contracts/utils/Pausable.sol\":2265:2273  paused() */\n      jump\t// in\n    tag_514:\n        /* \"@openzeppelin/contracts/utils/Pausable.sol\":2260:2322  if (!paused()) {... */\n      tag_515\n      jumpi\n        /* \"@openzeppelin/contracts/utils/Pausable.sol\":2296:2311  ExpectedPause() */\n      mload(0x40)\n      0x8dfc202b00000000000000000000000000000000000000000000000000000000\n      dup2\n      mstore\n      0x04\n      add\n      mload(0x40)\n      dup1\n      swap2\n      sub\n      swap1\n      revert\n        /* \"@openzeppelin/contracts/utils/Pausable.sol\":2260:2322  if (!paused()) {... */\n    tag_515:\n        /* \"@openzeppelin/contracts/utils/Pausable.sol\":2202:2328  function _requirePaused() internal view virtual {... */\n      jump\t// out\n        /* \"privacy/zkp/TransferProver.sol\":12838:13160  function _negate(uint256 x, uint256 y) internal pure returns (uint256, uint256) {... */\n    tag_380:\n        /* \"privacy/zkp/TransferProver.sol\":12900:12907  uint256 */\n      0x00\n        /* \"privacy/zkp/TransferProver.sol\":12909:12916  uint256 */\n      dup1\n        /* \"privacy/zkp/TransferProver.sol\":12945:12954  uint256 q */\n      0x00\n        /* \"privacy/zkp/TransferProver.sol\":12957:13034  21888242871839275222246405745257275088696311157297823662689037894645226208583 */\n      0x30644e72e131a029b85045b68181585d97816a916871ca8d3c208c16d87cfd47\n        /* \"privacy/zkp/TransferProver.sol\":12945:13034  uint256 q = 21888242871839275222246405745257275088696311157297823662689037894645226208583 */\n      swap1\n      pop\n        /* \"privacy/zkp/TransferProver.sol\":13054:13055  0 */\n      0x00\n        /* \"privacy/zkp/TransferProver.sol\":13049:13050  x */\n      dup6\n        /* \"privacy/zkp/TransferProver.sol\":13049:13055  x == 0 */\n      eq\n        /* \"privacy/zkp/TransferProver.sol\":13049:13065  x == 0 && y == 0 */\n      dup1\n      iszero\n      tag_517\n      jumpi\n      pop\n        /* \"privacy/zkp/TransferProver.sol\":13064:13065  0 */\n      0x00\n        /* \"privacy/zkp/TransferProver.sol\":13059:13060  y */\n      dup5\n        /* \"privacy/zkp/TransferProver.sol\":13059:13065  y == 0 */\n      eq\n        /* \"privacy/zkp/TransferProver.sol\":13049:13065  x == 0 && y == 0 */\n    tag_517:\n        /* \"privacy/zkp/TransferProver.sol\":13045:13097  if (x == 0 && y == 0) {... */\n      iszero\n      tag_518\n      jumpi\n        /* \"privacy/zkp/TransferProver.sol\":13085:13086  0 */\n      0x00\n        /* \"privacy/zkp/TransferProver.sol\":13088:13089  0 */\n      dup1\n        /* \"privacy/zkp/TransferProver.sol\":13077:13090  return (0, 0) */\n      swap3\n      pop\n      swap3\n      pop\n      pop\n      jump(tag_516)\n        /* \"privacy/zkp/TransferProver.sol\":13045:13097  if (x == 0 && y == 0) {... */\n    tag_518:\n        /* \"privacy/zkp/TransferProver.sol\":13142:13143  x */\n      dup5\n        /* \"privacy/zkp/TransferProver.sol\":13154:13155  q */\n      dup2\n        /* \"privacy/zkp/TransferProver.sol\":13150:13151  y */\n      dup6\n        /* \"privacy/zkp/TransferProver.sol\":13150:13155  y % q */\n      tag_519\n      swap2\n      swap1\n      tag_234\n      jump\t// in\n    tag_519:\n        /* \"privacy/zkp/TransferProver.sol\":13145:13146  q */\n      dup3\n        /* \"privacy/zkp/TransferProver.sol\":13145:13156  q - (y % q) */\n      tag_520\n      swap2\n      swap1\n      tag_521\n      jump\t// in\n    tag_520:\n        /* \"privacy/zkp/TransferProver.sol\":13134:13157  return (x, q - (y % q)) */\n      swap3\n      pop\n      swap3\n      pop\n      pop\n        /* \"privacy/zkp/TransferProver.sol\":12838:13160  function _negate(uint256 x, uint256 y) internal pure returns (uint256, uint256) {... */\n    tag_516:\n      swap3\n      pop\n      swap3\n      swap1\n      pop\n      jump\t// out\n    tag_374:\n      mload(0x40)\n      dup1\n      0x0300\n      add\n      0x40\n      mstore\n      dup1\n      0x18\n      swap1\n      0x20\n      dup3\n      mul\n      dup1\n      calldatasize\n      dup4\n      calldatacopy\n      dup1\n      dup3\n      add\n      swap2\n      pop\n      pop\n      swap1\n      pop\n      pop\n      swap1\n      jump\t// out\n    tag_499:\n      mload(0x40)\n      dup1\n      0x20\n      add\n      0x40\n      mstore\n      dup1\n      0x01\n      swap1\n      0x20\n      dup3\n      mul\n      dup1\n      calldatasize\n      dup4\n      calldatacopy\n      dup1\n      dup3\n      add\n      swap2\n      pop\n      pop\n      swap1\n      pop\n      pop\n      swap1\n      jump\t// out\n        /* \"#utility.yul\":88:205   */\n    tag_523:\n        /* \"#utility.yul\":197:198   */\n      0x00\n        /* \"#utility.yul\":194:195   */\n      dup1\n        /* \"#utility.yul\":187:199   */\n      revert\n        /* \"#utility.yul\":211:328   */\n    tag_524:\n        /* \"#utility.yul\":320:321   */\n      0x00\n        /* \"#utility.yul\":317:318   */\n      dup1\n        /* \"#utility.yul\":310:322   */\n      revert\n        /* \"#utility.yul\":334:411   */\n    tag_525:\n        /* \"#utility.yul\":371:378   */\n      0x00\n        /* \"#utility.yul\":400:405   */\n      dup2\n        /* \"#utility.yul\":389:405   */\n      swap1\n      pop\n        /* \"#utility.yul\":334:411   */\n      swap2\n      swap1\n      pop\n      jump\t// out\n        /* \"#utility.yul\":417:539   */\n    tag_526:\n        /* \"#utility.yul\":490:514   */\n      tag_608\n        /* \"#utility.yul\":508:513   */\n      dup2\n        /* \"#utility.yul\":490:514   */\n      tag_525\n      jump\t// in\n    tag_608:\n        /* \"#utility.yul\":483:488   */\n      dup2\n        /* \"#utility.yul\":480:515   */\n      eq\n        /* \"#utility.yul\":470:533   */\n      tag_609\n      jumpi\n        /* \"#utility.yul\":529:530   */\n      0x00\n        /* \"#utility.yul\":526:527   */\n      dup1\n        /* \"#utility.yul\":519:531   */\n      revert\n        /* \"#utility.yul\":470:533   */\n    tag_609:\n        /* \"#utility.yul\":417:539   */\n      pop\n      jump\t// out\n        /* \"#utility.yul\":545:684   */\n    tag_527:\n        /* \"#utility.yul\":591:596   */\n      0x00\n        /* \"#utility.yul\":629:635   */\n      dup2\n        /* \"#utility.yul\":616:636   */\n      calldataload\n        /* \"#utility.yul\":607:636   */\n      swap1\n      pop\n        /* \"#utility.yul\":645:678   */\n      tag_611\n        /* \"#utility.yul\":672:677   */\n      dup2\n        /* \"#utility.yul\":645:678   */\n      tag_526\n      jump\t// in\n    tag_611:\n        /* \"#utility.yul\":545:684   */\n      swap3\n      swap2\n      pop\n      pop\n      jump\t// out\n        /* \"#utility.yul\":690:1019   */\n    tag_38:\n        /* \"#utility.yul\":749:755   */\n      0x00\n        /* \"#utility.yul\":798:800   */\n      0x20\n        /* \"#utility.yul\":786:795   */\n      dup3\n        /* \"#utility.yul\":777:784   */\n      dup5\n        /* \"#utility.yul\":773:796   */\n      sub\n        /* \"#utility.yul\":769:801   */\n      slt\n        /* \"#utility.yul\":766:885   */\n      iszero\n      tag_613\n      jumpi\n        /* \"#utility.yul\":804:883   */\n      tag_614\n      tag_523\n      jump\t// in\n    tag_614:\n        /* \"#utility.yul\":766:885   */\n    tag_613:\n        /* \"#utility.yul\":924:925   */\n      0x00\n        /* \"#utility.yul\":949:1002   */\n      tag_615\n        /* \"#utility.yul\":994:1001   */\n      dup5\n        /* \"#utility.yul\":985:991   */\n      dup3\n        /* \"#utility.yul\":974:983   */\n      dup6\n        /* \"#utility.yul\":970:992   */\n      add\n        /* \"#utility.yul\":949:1002   */\n      tag_527\n      jump\t// in\n    tag_615:\n        /* \"#utility.yul\":939:1002   */\n      swap2\n      pop\n        /* \"#utility.yul\":895:1012   */\n      pop\n        /* \"#utility.yul\":690:1019   */\n      swap3\n      swap2\n      pop\n      pop\n      jump\t// out\n        /* \"#utility.yul\":1025:1143   */\n    tag_528:\n        /* \"#utility.yul\":1112:1136   */\n      tag_617\n        /* \"#utility.yul\":1130:1135   */\n      dup2\n        /* \"#utility.yul\":1112:1136   */\n      tag_525\n      jump\t// in\n    tag_617:\n        /* \"#utility.yul\":1107:1110   */\n      dup3\n        /* \"#utility.yul\":1100:1137   */\n      mstore\n        /* \"#utility.yul\":1025:1143   */\n      pop\n      pop\n      jump\t// out\n        /* \"#utility.yul\":1149:1371   */\n    tag_41:\n        /* \"#utility.yul\":1242:1246   */\n      0x00\n        /* \"#utility.yul\":1280:1282   */\n      0x20\n        /* \"#utility.yul\":1269:1278   */\n      dup3\n        /* \"#utility.yul\":1265:1283   */\n      add\n        /* \"#utility.yul\":1257:1283   */\n      swap1\n      pop\n        /* \"#utility.yul\":1293:1364   */\n      tag_619\n        /* \"#utility.yul\":1361:1362   */\n      0x00\n        /* \"#utility.yul\":1350:1359   */\n      dup4\n        /* \"#utility.yul\":1346:1363   */\n      add\n        /* \"#utility.yul\":1337:1343   */\n      dup5\n        /* \"#utility.yul\":1293:1364   */\n      tag_528\n      jump\t// in\n    tag_619:\n        /* \"#utility.yul\":1149:1371   */\n      swap3\n      swap2\n      pop\n      pop\n      jump\t// out\n        /* \"#utility.yul\":1377:1454   */\n    tag_529:\n        /* \"#utility.yul\":1414:1421   */\n      0x00\n        /* \"#utility.yul\":1443:1448   */\n      dup2\n        /* \"#utility.yul\":1432:1448   */\n      swap1\n      pop\n        /* \"#utility.yul\":1377:1454   */\n      swap2\n      swap1\n      pop\n      jump\t// out\n        /* \"#utility.yul\":1460:1582   */\n    tag_530:\n        /* \"#utility.yul\":1533:1557   */\n      tag_622\n        /* \"#utility.yul\":1551:1556   */\n      dup2\n        /* \"#utility.yul\":1533:1557   */\n      tag_529\n      jump\t// in\n    tag_622:\n        /* \"#utility.yul\":1526:1531   */\n      dup2\n        /* \"#utility.yul\":1523:1558   */\n      eq\n        /* \"#utility.yul\":1513:1576   */\n      tag_623\n      jumpi\n        /* \"#utility.yul\":1572:1573   */\n      0x00\n        /* \"#utility.yul\":1569:1570   */\n      dup1\n        /* \"#utility.yul\":1562:1574   */\n      revert\n        /* \"#utility.yul\":1513:1576   */\n    tag_623:\n        /* \"#utility.yul\":1460:1582   */\n      pop\n      jump\t// out\n        /* \"#utility.yul\":1588:1727   */\n    tag_531:\n        /* \"#utility.yul\":1634:1639   */\n      0x00\n        /* \"#utility.yul\":1672:1678   */\n      dup2\n        /* \"#utility.yul\":1659:1679   */\n      calldataload\n        /* \"#utility.yul\":1650:1679   */\n      swap1\n      pop\n        /* \"#utility.yul\":1688:1721   */\n      tag_625\n        /* \"#utility.yul\":1715:1720   */\n      dup2\n        /* \"#utility.yul\":1688:1721   */\n      tag_530\n      jump\t// in\n    tag_625:\n        /* \"#utility.yul\":1588:1727   */\n      swap3\n      swap2\n      pop\n      pop\n      jump\t// out\n        /* \"#utility.yul\":1733:1850   */\n    tag_532:\n        /* \"#utility.yul\":1842:1843   */\n      0x00\n        /* \"#utility.yul\":1839:1840   */\n      dup1\n        /* \"#utility.yul\":1832:1844   */\n      revert\n        /* \"#utility.yul\":1856:1973   */\n    tag_533:\n        /* \"#utility.yul\":1965:1966   */\n      0x00\n        /* \"#utility.yul\":1962:1963   */\n      dup1\n        /* \"#utility.yul\":1955:1967   */\n      revert\n        /* \"#utility.yul\":1979:2096   */\n    tag_534:\n        /* \"#utility.yul\":2088:2089   */\n      0x00\n        /* \"#utility.yul\":2085:2086   */\n      dup1\n        /* \"#utility.yul\":2078:2090   */\n      revert\n        /* \"#utility.yul\":2119:2687   */\n    tag_535:\n        /* \"#utility.yul\":2192:2200   */\n      0x00\n        /* \"#utility.yul\":2202:2208   */\n      dup1\n        /* \"#utility.yul\":2252:2255   */\n      dup4\n        /* \"#utility.yul\":2245:2249   */\n      0x1f\n        /* \"#utility.yul\":2237:2243   */\n      dup5\n        /* \"#utility.yul\":2233:2250   */\n      add\n        /* \"#utility.yul\":2229:2256   */\n      slt\n        /* \"#utility.yul\":2219:2341   */\n      tag_630\n      jumpi\n        /* \"#utility.yul\":2260:2339   */\n      tag_631\n      tag_532\n      jump\t// in\n    tag_631:\n        /* \"#utility.yul\":2219:2341   */\n    tag_630:\n        /* \"#utility.yul\":2373:2379   */\n      dup3\n        /* \"#utility.yul\":2360:2380   */\n      calldataload\n        /* \"#utility.yul\":2350:2380   */\n      swap1\n      pop\n        /* \"#utility.yul\":2403:2421   */\n      0xffffffffffffffff\n        /* \"#utility.yul\":2395:2401   */\n      dup2\n        /* \"#utility.yul\":2392:2422   */\n      gt\n        /* \"#utility.yul\":2389:2506   */\n      iszero\n      tag_632\n      jumpi\n        /* \"#utility.yul\":2425:2504   */\n      tag_633\n      tag_533\n      jump\t// in\n    tag_633:\n        /* \"#utility.yul\":2389:2506   */\n    tag_632:\n        /* \"#utility.yul\":2539:2543   */\n      0x20\n        /* \"#utility.yul\":2531:2537   */\n      dup4\n        /* \"#utility.yul\":2527:2544   */\n      add\n        /* \"#utility.yul\":2515:2544   */\n      swap2\n      pop\n        /* \"#utility.yul\":2593:2596   */\n      dup4\n        /* \"#utility.yul\":2585:2589   */\n      0x20\n        /* \"#utility.yul\":2577:2583   */\n      dup3\n        /* \"#utility.yul\":2573:2590   */\n      mul\n        /* \"#utility.yul\":2563:2571   */\n      dup4\n        /* \"#utility.yul\":2559:2591   */\n      add\n        /* \"#utility.yul\":2556:2597   */\n      gt\n        /* \"#utility.yul\":2553:2681   */\n      iszero\n      tag_634\n      jumpi\n        /* \"#utility.yul\":2600:2679   */\n      tag_635\n      tag_534\n      jump\t// in\n    tag_635:\n        /* \"#utility.yul\":2553:2681   */\n    tag_634:\n        /* \"#utility.yul\":2119:2687   */\n      swap3\n      pop\n      swap3\n      swap1\n      pop\n      jump\t// out\n        /* \"#utility.yul\":2710:3278   */\n    tag_536:\n        /* \"#utility.yul\":2783:2791   */\n      0x00\n        /* \"#utility.yul\":2793:2799   */\n      dup1\n        /* \"#utility.yul\":2843:2846   */\n      dup4\n        /* \"#utility.yul\":2836:2840   */\n      0x1f\n        /* \"#utility.yul\":2828:2834   */\n      dup5\n        /* \"#utility.yul\":2824:2841   */\n      add\n        /* \"#utility.yul\":2820:2847   */\n      slt\n        /* \"#utility.yul\":2810:2932   */\n      tag_637\n      jumpi\n        /* \"#utility.yul\":2851:2930   */\n      tag_638\n      tag_532\n      jump\t// in\n    tag_638:\n        /* \"#utility.yul\":2810:2932   */\n    tag_637:\n        /* \"#utility.yul\":2964:2970   */\n      dup3\n        /* \"#utility.yul\":2951:2971   */\n      calldataload\n        /* \"#utility.yul\":2941:2971   */\n      swap1\n      pop\n        /* \"#utility.yul\":2994:3012   */\n      0xffffffffffffffff\n        /* \"#utility.yul\":2986:2992   */\n      dup2\n        /* \"#utility.yul\":2983:3013   */\n      gt\n        /* \"#utility.yul\":2980:3097   */\n      iszero\n      tag_639\n      jumpi\n        /* \"#utility.yul\":3016:3095   */\n      tag_640\n      tag_533\n      jump\t// in\n    tag_640:\n        /* \"#utility.yul\":2980:3097   */\n    tag_639:\n        /* \"#utility.yul\":3130:3134   */\n      0x20\n        /* \"#utility.yul\":3122:3128   */\n      dup4\n        /* \"#utility.yul\":3118:3135   */\n      add\n        /* \"#utility.yul\":3106:3135   */\n      swap2\n      pop\n        /* \"#utility.yul\":3184:3187   */\n      dup4\n        /* \"#utility.yul\":3176:3180   */\n      0x20\n        /* \"#utility.yul\":3168:3174   */\n      dup3\n        /* \"#utility.yul\":3164:3181   */\n      mul\n        /* \"#utility.yul\":3154:3162   */\n      dup4\n        /* \"#utility.yul\":3150:3182   */\n      add\n        /* \"#utility.yul\":3147:3188   */\n      gt\n        /* \"#utility.yul\":3144:3272   */\n      iszero\n      tag_641\n      jumpi\n        /* \"#utility.yul\":3191:3270   */\n      tag_642\n      tag_534\n      jump\t// in\n    tag_642:\n        /* \"#utility.yul\":3144:3272   */\n    tag_641:\n        /* \"#utility.yul\":2710:3278   */\n      swap3\n      pop\n      swap3\n      swap1\n      pop\n      jump\t// out\n        /* \"#utility.yul\":3284:4363   */\n    tag_44:\n        /* \"#utility.yul\":3415:3421   */\n      0x00\n        /* \"#utility.yul\":3423:3429   */\n      dup1\n        /* \"#utility.yul\":3431:3437   */\n      0x00\n        /* \"#utility.yul\":3439:3445   */\n      dup1\n        /* \"#utility.yul\":3447:3453   */\n      0x00\n        /* \"#utility.yul\":3496:3498   */\n      0x60\n        /* \"#utility.yul\":3484:3493   */\n      dup7\n        /* \"#utility.yul\":3475:3482   */\n      dup9\n        /* \"#utility.yul\":3471:3494   */\n      sub\n        /* \"#utility.yul\":3467:3499   */\n      slt\n        /* \"#utility.yul\":3464:3583   */\n      iszero\n      tag_644\n      jumpi\n        /* \"#utility.yul\":3502:3581   */\n      tag_645\n      tag_523\n      jump\t// in\n    tag_645:\n        /* \"#utility.yul\":3464:3583   */\n    tag_644:\n        /* \"#utility.yul\":3622:3623   */\n      0x00\n        /* \"#utility.yul\":3647:3700   */\n      tag_646\n        /* \"#utility.yul\":3692:3699   */\n      dup9\n        /* \"#utility.yul\":3683:3689   */\n      dup3\n        /* \"#utility.yul\":3672:3681   */\n      dup10\n        /* \"#utility.yul\":3668:3690   */\n      add\n        /* \"#utility.yul\":3647:3700   */\n      tag_531\n      jump\t// in\n    tag_646:\n        /* \"#utility.yul\":3637:3700   */\n      swap6\n      pop\n        /* \"#utility.yul\":3593:3710   */\n      pop\n        /* \"#utility.yul\":3777:3779   */\n      0x20\n        /* \"#utility.yul\":3766:3775   */\n      dup7\n        /* \"#utility.yul\":3762:3780   */\n      add\n        /* \"#utility.yul\":3749:3781   */\n      calldataload\n        /* \"#utility.yul\":3808:3826   */\n      0xffffffffffffffff\n        /* \"#utility.yul\":3800:3806   */\n      dup2\n        /* \"#utility.yul\":3797:3827   */\n      gt\n        /* \"#utility.yul\":3794:3911   */\n      iszero\n      tag_647\n      jumpi\n        /* \"#utility.yul\":3830:3909   */\n      tag_648\n      tag_524\n      jump\t// in\n    tag_648:\n        /* \"#utility.yul\":3794:3911   */\n    tag_647:\n        /* \"#utility.yul\":3943:4023   */\n      tag_649\n        /* \"#utility.yul\":4015:4022   */\n      dup9\n        /* \"#utility.yul\":4006:4012   */\n      dup3\n        /* \"#utility.yul\":3995:4004   */\n      dup10\n        /* \"#utility.yul\":3991:4013   */\n      add\n        /* \"#utility.yul\":3943:4023   */\n      tag_535\n      jump\t// in\n    tag_649:\n        /* \"#utility.yul\":3925:4023   */\n      swap5\n      pop\n      swap5\n      pop\n        /* \"#utility.yul\":3720:4033   */\n      pop\n        /* \"#utility.yul\":4100:4102   */\n      0x40\n        /* \"#utility.yul\":4089:4098   */\n      dup7\n        /* \"#utility.yul\":4085:4103   */\n      add\n        /* \"#utility.yul\":4072:4104   */\n      calldataload\n        /* \"#utility.yul\":4131:4149   */\n      0xffffffffffffffff\n        /* \"#utility.yul\":4123:4129   */\n      dup2\n        /* \"#utility.yul\":4120:4150   */\n      gt\n        /* \"#utility.yul\":4117:4234   */\n      iszero\n      tag_650\n      jumpi\n        /* \"#utility.yul\":4153:4232   */\n      tag_651\n      tag_524\n      jump\t// in\n    tag_651:\n        /* \"#utility.yul\":4117:4234   */\n    tag_650:\n        /* \"#utility.yul\":4266:4346   */\n      tag_652\n        /* \"#utility.yul\":4338:4345   */\n      dup9\n        /* \"#utility.yul\":4329:4335   */\n      dup3\n        /* \"#utility.yul\":4318:4327   */\n      dup10\n        /* \"#utility.yul\":4314:4336   */\n      add\n        /* \"#utility.yul\":4266:4346   */\n      tag_536\n      jump\t// in\n    tag_652:\n        /* \"#utility.yul\":4248:4346   */\n      swap3\n      pop\n      swap3\n      pop\n        /* \"#utility.yul\":4043:4356   */\n      pop\n        /* \"#utility.yul\":3284:4363   */\n      swap3\n      swap6\n      pop\n      swap3\n      swap6\n      swap1\n      swap4\n      pop\n      jump\t// out\n        /* \"#utility.yul\":4369:4459   */\n    tag_537:\n        /* \"#utility.yul\":4403:4410   */\n      0x00\n        /* \"#utility.yul\":4446:4451   */\n      dup2\n        /* \"#utility.yul\":4439:4452   */\n      iszero\n        /* \"#utility.yul\":4432:4453   */\n      iszero\n        /* \"#utility.yul\":4421:4453   */\n      swap1\n      pop\n        /* \"#utility.yul\":4369:4459   */\n      swap2\n      swap1\n      pop\n      jump\t// out\n        /* \"#utility.yul\":4465:4574   */\n    tag_538:\n        /* \"#utility.yul\":4546:4567   */\n      tag_655\n        /* \"#utility.yul\":4561:4566   */\n      dup2\n        /* \"#utility.yul\":4546:4567   */\n      tag_537\n      jump\t// in\n    tag_655:\n        /* \"#utility.yul\":4541:4544   */\n      dup3\n        /* \"#utility.yul\":4534:4568   */\n      mstore\n        /* \"#utility.yul\":4465:4574   */\n      pop\n      pop\n      jump\t// out\n        /* \"#utility.yul\":4580:4790   */\n    tag_47:\n        /* \"#utility.yul\":4667:4671   */\n      0x00\n        /* \"#utility.yul\":4705:4707   */\n      0x20\n        /* \"#utility.yul\":4694:4703   */\n      dup3\n        /* \"#utility.yul\":4690:4708   */\n      add\n        /* \"#utility.yul\":4682:4708   */\n      swap1\n      pop\n        /* \"#utility.yul\":4718:4783   */\n      tag_657\n        /* \"#utility.yul\":4780:4781   */\n      0x00\n        /* \"#utility.yul\":4769:4778   */\n      dup4\n        /* \"#utility.yul\":4765:4782   */\n      add\n        /* \"#utility.yul\":4756:4762   */\n      dup5\n        /* \"#utility.yul\":4718:4783   */\n      tag_538\n      jump\t// in\n    tag_657:\n        /* \"#utility.yul\":4580:4790   */\n      swap3\n      swap2\n      pop\n      pop\n      jump\t// out\n        /* \"#utility.yul\":4814:5063   */\n    tag_539:\n        /* \"#utility.yul\":4885:4893   */\n      0x00\n        /* \"#utility.yul\":4916:4922   */\n      dup2\n        /* \"#utility.yul\":4904:4922   */\n      swap1\n      pop\n        /* \"#utility.yul\":4969:4972   */\n      dup3\n        /* \"#utility.yul\":4961:4965   */\n      0x20\n        /* \"#utility.yul\":4955:4959   */\n      0x08\n        /* \"#utility.yul\":4951:4966   */\n      mul\n        /* \"#utility.yul\":4941:4949   */\n      dup3\n        /* \"#utility.yul\":4937:4967   */\n      add\n        /* \"#utility.yul\":4934:4973   */\n      gt\n        /* \"#utility.yul\":4931:5057   */\n      iszero\n      tag_659\n      jumpi\n        /* \"#utility.yul\":4976:5055   */\n      tag_660\n      tag_534\n      jump\t// in\n    tag_660:\n        /* \"#utility.yul\":4931:5057   */\n    tag_659:\n        /* \"#utility.yul\":4814:5063   */\n      swap3\n      swap2\n      pop\n      pop\n      jump\t// out\n        /* \"#utility.yul\":5087:5336   */\n    tag_540:\n        /* \"#utility.yul\":5158:5166   */\n      0x00\n        /* \"#utility.yul\":5189:5195   */\n      dup2\n        /* \"#utility.yul\":5177:5195   */\n      swap1\n      pop\n        /* \"#utility.yul\":5242:5245   */\n      dup3\n        /* \"#utility.yul\":5234:5238   */\n      0x20\n        /* \"#utility.yul\":5228:5232   */\n      0x01\n        /* \"#utility.yul\":5224:5239   */\n      mul\n        /* \"#utility.yul\":5214:5222   */\n      dup3\n        /* \"#utility.yul\":5210:5240   */\n      add\n        /* \"#utility.yul\":5207:5246   */\n      gt\n        /* \"#utility.yul\":5204:5330   */\n      iszero\n      tag_662\n      jumpi\n        /* \"#utility.yul\":5249:5328   */\n      tag_663\n      tag_534\n      jump\t// in\n    tag_663:\n        /* \"#utility.yul\":5204:5330   */\n    tag_662:\n        /* \"#utility.yul\":5087:5336   */\n      swap3\n      swap2\n      pop\n      pop\n      jump\t// out\n        /* \"#utility.yul\":5342:5918   */\n    tag_50:\n        /* \"#utility.yul\":5460:5466   */\n      0x00\n        /* \"#utility.yul\":5468:5474   */\n      dup1\n        /* \"#utility.yul\":5517:5520   */\n      0x0120\n        /* \"#utility.yul\":5505:5514   */\n      dup4\n        /* \"#utility.yul\":5496:5503   */\n      dup6\n        /* \"#utility.yul\":5492:5515   */\n      sub\n        /* \"#utility.yul\":5488:5521   */\n      slt\n        /* \"#utility.yul\":5485:5605   */\n      iszero\n      tag_665\n      jumpi\n        /* \"#utility.yul\":5524:5603   */\n      tag_666\n      tag_523\n      jump\t// in\n    tag_666:\n        /* \"#utility.yul\":5485:5605   */\n    tag_665:\n        /* \"#utility.yul\":5644:5645   */\n      0x00\n        /* \"#utility.yul\":5669:5747   */\n      tag_667\n        /* \"#utility.yul\":5739:5746   */\n      dup6\n        /* \"#utility.yul\":5730:5736   */\n      dup3\n        /* \"#utility.yul\":5719:5728   */\n      dup7\n        /* \"#utility.yul\":5715:5737   */\n      add\n        /* \"#utility.yul\":5669:5747   */\n      tag_539\n      jump\t// in\n    tag_667:\n        /* \"#utility.yul\":5659:5747   */\n      swap3\n      pop\n        /* \"#utility.yul\":5615:5757   */\n      pop\n        /* \"#utility.yul\":5796:5799   */\n      0x0100\n        /* \"#utility.yul\":5823:5901   */\n      tag_668\n        /* \"#utility.yul\":5893:5900   */\n      dup6\n        /* \"#utility.yul\":5884:5890   */\n      dup3\n        /* \"#utility.yul\":5873:5882   */\n      dup7\n        /* \"#utility.yul\":5869:5891   */\n      add\n        /* \"#utility.yul\":5823:5901   */\n      tag_540\n      jump\t// in\n    tag_668:\n        /* \"#utility.yul\":5813:5901   */\n      swap2\n      pop\n        /* \"#utility.yul\":5767:5911   */\n      pop\n        /* \"#utility.yul\":5342:5918   */\n      swap3\n      pop\n      swap3\n      swap1\n      pop\n      jump\t// out\n        /* \"#utility.yul\":5924:6739   */\n    tag_55:\n        /* \"#utility.yul\":6035:6041   */\n      0x00\n        /* \"#utility.yul\":6043:6049   */\n      dup1\n        /* \"#utility.yul\":6051:6057   */\n      0x00\n        /* \"#utility.yul\":6059:6065   */\n      dup1\n        /* \"#utility.yul\":6108:6111   */\n      0x0160\n        /* \"#utility.yul\":6096:6105   */\n      dup6\n        /* \"#utility.yul\":6087:6094   */\n      dup8\n        /* \"#utility.yul\":6083:6106   */\n      sub\n        /* \"#utility.yul\":6079:6112   */\n      slt\n        /* \"#utility.yul\":6076:6196   */\n      iszero\n      tag_670\n      jumpi\n        /* \"#utility.yul\":6115:6194   */\n      tag_671\n      tag_523\n      jump\t// in\n    tag_671:\n        /* \"#utility.yul\":6076:6196   */\n    tag_670:\n        /* \"#utility.yul\":6235:6236   */\n      0x00\n        /* \"#utility.yul\":6260:6313   */\n      tag_672\n        /* \"#utility.yul\":6305:6312   */\n      dup8\n        /* \"#utility.yul\":6296:6302   */\n      dup3\n        /* \"#utility.yul\":6285:6294   */\n      dup9\n        /* \"#utility.yul\":6281:6303   */\n      add\n        /* \"#utility.yul\":6260:6313   */\n      tag_531\n      jump\t// in\n    tag_672:\n        /* \"#utility.yul\":6250:6313   */\n      swap5\n      pop\n        /* \"#utility.yul\":6206:6323   */\n      pop\n        /* \"#utility.yul\":6362:6364   */\n      0x20\n        /* \"#utility.yul\":6388:6441   */\n      tag_673\n        /* \"#utility.yul\":6433:6440   */\n      dup8\n        /* \"#utility.yul\":6424:6430   */\n      dup3\n        /* \"#utility.yul\":6413:6422   */\n      dup9\n        /* \"#utility.yul\":6409:6431   */\n      add\n        /* \"#utility.yul\":6388:6441   */\n      tag_531\n      jump\t// in\n    tag_673:\n        /* \"#utility.yul\":6378:6441   */\n      swap4\n      pop\n        /* \"#utility.yul\":6333:6451   */\n      pop\n        /* \"#utility.yul\":6490:6492   */\n      0x40\n        /* \"#utility.yul\":6516:6569   */\n      tag_674\n        /* \"#utility.yul\":6561:6568   */\n      dup8\n        /* \"#utility.yul\":6552:6558   */\n      dup3\n        /* \"#utility.yul\":6541:6550   */\n      dup9\n        /* \"#utility.yul\":6537:6559   */\n      add\n        /* \"#utility.yul\":6516:6569   */\n      tag_531\n      jump\t// in\n    tag_674:\n        /* \"#utility.yul\":6506:6569   */\n      swap3\n      pop\n        /* \"#utility.yul\":6461:6579   */\n      pop\n        /* \"#utility.yul\":6618:6620   */\n      0x60\n        /* \"#utility.yul\":6644:6722   */\n      tag_675\n        /* \"#utility.yul\":6714:6721   */\n      dup8\n        /* \"#utility.yul\":6705:6711   */\n      dup3\n        /* \"#utility.yul\":6694:6703   */\n      dup9\n        /* \"#utility.yul\":6690:6712   */\n      add\n        /* \"#utility.yul\":6644:6722   */\n      tag_539\n      jump\t// in\n    tag_675:\n        /* \"#utility.yul\":6634:6722   */\n      swap2\n      pop\n        /* \"#utility.yul\":6589:6732   */\n      pop\n        /* \"#utility.yul\":5924:6739   */\n      swap3\n      swap6\n      swap2\n      swap5\n      pop\n      swap3\n      pop\n      jump\t// out\n        /* \"#utility.yul\":6745:7074   */\n    tag_62:\n        /* \"#utility.yul\":6804:6810   */\n      0x00\n        /* \"#utility.yul\":6853:6855   */\n      0x20\n        /* \"#utility.yul\":6841:6850   */\n      dup3\n        /* \"#utility.yul\":6832:6839   */\n      dup5\n        /* \"#utility.yul\":6828:6851   */\n      sub\n        /* \"#utility.yul\":6824:6856   */\n      slt\n        /* \"#utility.yul\":6821:6940   */\n      iszero\n      tag_677\n      jumpi\n        /* \"#utility.yul\":6859:6938   */\n      tag_678\n      tag_523\n      jump\t// in\n    tag_678:\n        /* \"#utility.yul\":6821:6940   */\n    tag_677:\n        /* \"#utility.yul\":6979:6980   */\n      0x00\n        /* \"#utility.yul\":7004:7057   */\n      tag_679\n        /* \"#utility.yul\":7049:7056   */\n      dup5\n        /* \"#utility.yul\":7040:7046   */\n      dup3\n        /* \"#utility.yul\":7029:7038   */\n      dup6\n        /* \"#utility.yul\":7025:7047   */\n      add\n        /* \"#utility.yul\":7004:7057   */\n      tag_531\n      jump\t// in\n    tag_679:\n        /* \"#utility.yul\":6994:7057   */\n      swap2\n      pop\n        /* \"#utility.yul\":6950:7067   */\n      pop\n        /* \"#utility.yul\":6745:7074   */\n      swap3\n      swap2\n      pop\n      pop\n      jump\t// out\n        /* \"#utility.yul\":7080:7194   */\n    tag_541:\n        /* \"#utility.yul\":7147:7153   */\n      0x00\n        /* \"#utility.yul\":7181:7186   */\n      dup2\n        /* \"#utility.yul\":7175:7187   */\n      mload\n        /* \"#utility.yul\":7165:7187   */\n      swap1\n      pop\n        /* \"#utility.yul\":7080:7194   */\n      swap2\n      swap1\n      pop\n      jump\t// out\n        /* \"#utility.yul\":7200:7384   */\n    tag_542:\n        /* \"#utility.yul\":7299:7310   */\n      0x00\n        /* \"#utility.yul\":7333:7339   */\n      dup3\n        /* \"#utility.yul\":7328:7331   */\n      dup3\n        /* \"#utility.yul\":7321:7340   */\n      mstore\n        /* \"#utility.yul\":7373:7377   */\n      0x20\n        /* \"#utility.yul\":7368:7371   */\n      dup3\n        /* \"#utility.yul\":7364:7378   */\n      add\n        /* \"#utility.yul\":7349:7378   */\n      swap1\n      pop\n        /* \"#utility.yul\":7200:7384   */\n      swap3\n      swap2\n      pop\n      pop\n      jump\t// out\n        /* \"#utility.yul\":7390:7522   */\n    tag_543:\n        /* \"#utility.yul\":7457:7461   */\n      0x00\n        /* \"#utility.yul\":7480:7483   */\n      dup2\n        /* \"#utility.yul\":7472:7483   */\n      swap1\n      pop\n        /* \"#utility.yul\":7510:7514   */\n      0x20\n        /* \"#utility.yul\":7505:7508   */\n      dup3\n        /* \"#utility.yul\":7501:7515   */\n      add\n        /* \"#utility.yul\":7493:7515   */\n      swap1\n      pop\n        /* \"#utility.yul\":7390:7522   */\n      swap2\n      swap1\n      pop\n      jump\t// out\n        /* \"#utility.yul\":7528:7636   */\n    tag_544:\n        /* \"#utility.yul\":7605:7629   */\n      tag_684\n        /* \"#utility.yul\":7623:7628   */\n      dup2\n        /* \"#utility.yul\":7605:7629   */\n      tag_529\n      jump\t// in\n    tag_684:\n        /* \"#utility.yul\":7600:7603   */\n      dup3\n        /* \"#utility.yul\":7593:7630   */\n      mstore\n        /* \"#utility.yul\":7528:7636   */\n      pop\n      pop\n      jump\t// out\n        /* \"#utility.yul\":7642:7821   */\n    tag_545:\n        /* \"#utility.yul\":7711:7721   */\n      0x00\n        /* \"#utility.yul\":7732:7778   */\n      tag_686\n        /* \"#utility.yul\":7774:7777   */\n      dup4\n        /* \"#utility.yul\":7766:7772   */\n      dup4\n        /* \"#utility.yul\":7732:7778   */\n      tag_544\n      jump\t// in\n    tag_686:\n        /* \"#utility.yul\":7810:7814   */\n      0x20\n        /* \"#utility.yul\":7805:7808   */\n      dup4\n        /* \"#utility.yul\":7801:7815   */\n      add\n        /* \"#utility.yul\":7787:7815   */\n      swap1\n      pop\n        /* \"#utility.yul\":7642:7821   */\n      swap3\n      swap2\n      pop\n      pop\n      jump\t// out\n        /* \"#utility.yul\":7827:7940   */\n    tag_546:\n        /* \"#utility.yul\":7897:7901   */\n      0x00\n        /* \"#utility.yul\":7929:7933   */\n      0x20\n        /* \"#utility.yul\":7924:7927   */\n      dup3\n        /* \"#utility.yul\":7920:7934   */\n      add\n        /* \"#utility.yul\":7912:7934   */\n      swap1\n      pop\n        /* \"#utility.yul\":7827:7940   */\n      swap2\n      swap1\n      pop\n      jump\t// out\n        /* \"#utility.yul\":7976:8708   */\n    tag_547:\n        /* \"#utility.yul\":8095:8098   */\n      0x00\n        /* \"#utility.yul\":8124:8178   */\n      tag_689\n        /* \"#utility.yul\":8172:8177   */\n      dup3\n        /* \"#utility.yul\":8124:8178   */\n      tag_541\n      jump\t// in\n    tag_689:\n        /* \"#utility.yul\":8194:8280   */\n      tag_690\n        /* \"#utility.yul\":8273:8279   */\n      dup2\n        /* \"#utility.yul\":8268:8271   */\n      dup6\n        /* \"#utility.yul\":8194:8280   */\n      tag_542\n      jump\t// in\n    tag_690:\n        /* \"#utility.yul\":8187:8280   */\n      swap4\n      pop\n        /* \"#utility.yul\":8304:8360   */\n      tag_691\n        /* \"#utility.yul\":8354:8359   */\n      dup4\n        /* \"#utility.yul\":8304:8360   */\n      tag_543\n      jump\t// in\n    tag_691:\n        /* \"#utility.yul\":8383:8390   */\n      dup1\n        /* \"#utility.yul\":8414:8415   */\n      0x00\n        /* \"#utility.yul\":8399:8683   */\n    tag_692:\n        /* \"#utility.yul\":8424:8430   */\n      dup4\n        /* \"#utility.yul\":8421:8422   */\n      dup2\n        /* \"#utility.yul\":8418:8431   */\n      lt\n        /* \"#utility.yul\":8399:8683   */\n      iszero\n      tag_694\n      jumpi\n        /* \"#utility.yul\":8500:8506   */\n      dup2\n        /* \"#utility.yul\":8494:8507   */\n      mload\n        /* \"#utility.yul\":8527:8590   */\n      tag_695\n        /* \"#utility.yul\":8586:8589   */\n      dup9\n        /* \"#utility.yul\":8571:8584   */\n      dup3\n        /* \"#utility.yul\":8527:8590   */\n      tag_545\n      jump\t// in\n    tag_695:\n        /* \"#utility.yul\":8520:8590   */\n      swap8\n      pop\n        /* \"#utility.yul\":8613:8673   */\n      tag_696\n        /* \"#utility.yul\":8666:8672   */\n      dup4\n        /* \"#utility.yul\":8613:8673   */\n      tag_546\n      jump\t// in\n    tag_696:\n        /* \"#utility.yul\":8603:8673   */\n      swap3\n      pop\n        /* \"#utility.yul\":8459:8683   */\n      pop\n        /* \"#utility.yul\":8446:8447   */\n      0x01\n        /* \"#utility.yul\":8443:8444   */\n      dup2\n        /* \"#utility.yul\":8439:8448   */\n      add\n        /* \"#utility.yul\":8434:8448   */\n      swap1\n      pop\n        /* \"#utility.yul\":8399:8683   */\n      jump(tag_692)\n    tag_694:\n        /* \"#utility.yul\":8403:8417   */\n      pop\n        /* \"#utility.yul\":8699:8702   */\n      dup6\n        /* \"#utility.yul\":8692:8702   */\n      swap4\n      pop\n        /* \"#utility.yul\":8100:8708   */\n      pop\n      pop\n      pop\n        /* \"#utility.yul\":7976:8708   */\n      swap3\n      swap2\n      pop\n      pop\n      jump\t// out\n        /* \"#utility.yul\":8714:8828   */\n    tag_548:\n        /* \"#utility.yul\":8781:8787   */\n      0x00\n        /* \"#utility.yul\":8815:8820   */\n      dup2\n        /* \"#utility.yul\":8809:8821   */\n      mload\n        /* \"#utility.yul\":8799:8821   */\n      swap1\n      pop\n        /* \"#utility.yul\":8714:8828   */\n      swap2\n      swap1\n      pop\n      jump\t// out\n        /* \"#utility.yul\":8834:9018   */\n    tag_549:\n        /* \"#utility.yul\":8933:8944   */\n      0x00\n        /* \"#utility.yul\":8967:8973   */\n      dup3\n        /* \"#utility.yul\":8962:8965   */\n      dup3\n        /* \"#utility.yul\":8955:8974   */\n      mstore\n        /* \"#utility.yul\":9007:9011   */\n      0x20\n        /* \"#utility.yul\":9002:9005   */\n      dup3\n        /* \"#utility.yul\":8998:9012   */\n      add\n        /* \"#utility.yul\":8983:9012   */\n      swap1\n      pop\n        /* \"#utility.yul\":8834:9018   */\n      swap3\n      swap2\n      pop\n      pop\n      jump\t// out\n        /* \"#utility.yul\":9024:9156   */\n    tag_550:\n        /* \"#utility.yul\":9091:9095   */\n      0x00\n        /* \"#utility.yul\":9114:9117   */\n      dup2\n        /* \"#utility.yul\":9106:9117   */\n      swap1\n      pop\n        /* \"#utility.yul\":9144:9148   */\n      0x20\n        /* \"#utility.yul\":9139:9142   */\n      dup3\n        /* \"#utility.yul\":9135:9149   */\n      add\n        /* \"#utility.yul\":9127:9149   */\n      swap1\n      pop\n        /* \"#utility.yul\":9024:9156   */\n      swap2\n      swap1\n      pop\n      jump\t// out\n        /* \"#utility.yul\":9162:9270   */\n    tag_551:\n        /* \"#utility.yul\":9239:9263   */\n      tag_701\n        /* \"#utility.yul\":9257:9262   */\n      dup2\n        /* \"#utility.yul\":9239:9263   */\n      tag_525\n      jump\t// in\n    tag_701:\n        /* \"#utility.yul\":9234:9237   */\n      dup3\n        /* \"#utility.yul\":9227:9264   */\n      mstore\n        /* \"#utility.yul\":9162:9270   */\n      pop\n      pop\n      jump\t// out\n        /* \"#utility.yul\":9276:9455   */\n    tag_552:\n        /* \"#utility.yul\":9345:9355   */\n      0x00\n        /* \"#utility.yul\":9366:9412   */\n      tag_703\n        /* \"#utility.yul\":9408:9411   */\n      dup4\n        /* \"#utility.yul\":9400:9406   */\n      dup4\n        /* \"#utility.yul\":9366:9412   */\n      tag_551\n      jump\t// in\n    tag_703:\n        /* \"#utility.yul\":9444:9448   */\n      0x20\n        /* \"#utility.yul\":9439:9442   */\n      dup4\n        /* \"#utility.yul\":9435:9449   */\n      add\n        /* \"#utility.yul\":9421:9449   */\n      swap1\n      pop\n        /* \"#utility.yul\":9276:9455   */\n      swap3\n      swap2\n      pop\n      pop\n      jump\t// out\n        /* \"#utility.yul\":9461:9574   */\n    tag_553:\n        /* \"#utility.yul\":9531:9535   */\n      0x00\n        /* \"#utility.yul\":9563:9567   */\n      0x20\n        /* \"#utility.yul\":9558:9561   */\n      dup3\n        /* \"#utility.yul\":9554:9568   */\n      add\n        /* \"#utility.yul\":9546:9568   */\n      swap1\n      pop\n        /* \"#utility.yul\":9461:9574   */\n      swap2\n      swap1\n      pop\n      jump\t// out\n        /* \"#utility.yul\":9610:10342   */\n    tag_554:\n        /* \"#utility.yul\":9729:9732   */\n      0x00\n        /* \"#utility.yul\":9758:9812   */\n      tag_706\n        /* \"#utility.yul\":9806:9811   */\n      dup3\n        /* \"#utility.yul\":9758:9812   */\n      tag_548\n      jump\t// in\n    tag_706:\n        /* \"#utility.yul\":9828:9914   */\n      tag_707\n        /* \"#utility.yul\":9907:9913   */\n      dup2\n        /* \"#utility.yul\":9902:9905   */\n      dup6\n        /* \"#utility.yul\":9828:9914   */\n      tag_549\n      jump\t// in\n    tag_707:\n        /* \"#utility.yul\":9821:9914   */\n      swap4\n      pop\n        /* \"#utility.yul\":9938:9994   */\n      tag_708\n        /* \"#utility.yul\":9988:9993   */\n      dup4\n        /* \"#utility.yul\":9938:9994   */\n      tag_550\n      jump\t// in\n    tag_708:\n        /* \"#utility.yul\":10017:10024   */\n      dup1\n        /* \"#utility.yul\":10048:10049   */\n      0x00\n        /* \"#utility.yul\":10033:10317   */\n    tag_709:\n        /* \"#utility.yul\":10058:10064   */\n      dup4\n        /* \"#utility.yul\":10055:10056   */\n      dup2\n        /* \"#utility.yul\":10052:10065   */\n      lt\n        /* \"#utility.yul\":10033:10317   */\n      iszero\n      tag_711\n      jumpi\n        /* \"#utility.yul\":10134:10140   */\n      dup2\n        /* \"#utility.yul\":10128:10141   */\n      mload\n        /* \"#utility.yul\":10161:10224   */\n      tag_712\n        /* \"#utility.yul\":10220:10223   */\n      dup9\n        /* \"#utility.yul\":10205:10218   */\n      dup3\n        /* \"#utility.yul\":10161:10224   */\n      tag_552\n      jump\t// in\n    tag_712:\n        /* \"#utility.yul\":10154:10224   */\n      swap8\n      pop\n        /* \"#utility.yul\":10247:10307   */\n      tag_713\n        /* \"#utility.yul\":10300:10306   */\n      dup4\n        /* \"#utility.yul\":10247:10307   */\n      tag_553\n      jump\t// in\n    tag_713:\n        /* \"#utility.yul\":10237:10307   */\n      swap3\n      pop\n        /* \"#utility.yul\":10093:10317   */\n      pop\n        /* \"#utility.yul\":10080:10081   */\n      0x01\n        /* \"#utility.yul\":10077:10078   */\n      dup2\n        /* \"#utility.yul\":10073:10082   */\n      add\n        /* \"#utility.yul\":10068:10082   */\n      swap1\n      pop\n        /* \"#utility.yul\":10033:10317   */\n      jump(tag_709)\n    tag_711:\n        /* \"#utility.yul\":10037:10051   */\n      pop\n        /* \"#utility.yul\":10333:10336   */\n      dup6\n        /* \"#utility.yul\":10326:10336   */\n      swap4\n      pop\n        /* \"#utility.yul\":9734:10342   */\n      pop\n      pop\n      pop\n        /* \"#utility.yul\":9610:10342   */\n      swap3\n      swap2\n      pop\n      pop\n      jump\t// out\n        /* \"#utility.yul\":10348:10982   */\n    tag_65:\n        /* \"#utility.yul\":10569:10573   */\n      0x00\n        /* \"#utility.yul\":10607:10609   */\n      0x40\n        /* \"#utility.yul\":10596:10605   */\n      dup3\n        /* \"#utility.yul\":10592:10610   */\n      add\n        /* \"#utility.yul\":10584:10610   */\n      swap1\n      pop\n        /* \"#utility.yul\":10656:10665   */\n      dup2\n        /* \"#utility.yul\":10650:10654   */\n      dup2\n        /* \"#utility.yul\":10646:10666   */\n      sub\n        /* \"#utility.yul\":10642:10643   */\n      0x00\n        /* \"#utility.yul\":10631:10640   */\n      dup4\n        /* \"#utility.yul\":10627:10644   */\n      add\n        /* \"#utility.yul\":10620:10667   */\n      mstore\n        /* \"#utility.yul\":10684:10792   */\n      tag_715\n        /* \"#utility.yul\":10787:10791   */\n      dup2\n        /* \"#utility.yul\":10778:10784   */\n      dup6\n        /* \"#utility.yul\":10684:10792   */\n      tag_547\n      jump\t// in\n    tag_715:\n        /* \"#utility.yul\":10676:10792   */\n      swap1\n      pop\n        /* \"#utility.yul\":10839:10848   */\n      dup2\n        /* \"#utility.yul\":10833:10837   */\n      dup2\n        /* \"#utility.yul\":10829:10849   */\n      sub\n        /* \"#utility.yul\":10824:10826   */\n      0x20\n        /* \"#utility.yul\":10813:10822   */\n      dup4\n        /* \"#utility.yul\":10809:10827   */\n      add\n        /* \"#utility.yul\":10802:10850   */\n      mstore\n        /* \"#utility.yul\":10867:10975   */\n      tag_716\n        /* \"#utility.yul\":10970:10974   */\n      dup2\n        /* \"#utility.yul\":10961:10967   */\n      dup5\n        /* \"#utility.yul\":10867:10975   */\n      tag_554\n      jump\t// in\n    tag_716:\n        /* \"#utility.yul\":10859:10975   */\n      swap1\n      pop\n        /* \"#utility.yul\":10348:10982   */\n      swap4\n      swap3\n      pop\n      pop\n      pop\n      jump\t// out\n        /* \"#utility.yul\":10988:11114   */\n    tag_555:\n        /* \"#utility.yul\":11025:11032   */\n      0x00\n        /* \"#utility.yul\":11065:11107   */\n      0xffffffffffffffffffffffffffffffffffffffff\n        /* \"#utility.yul\":11058:11063   */\n      dup3\n        /* \"#utility.yul\":11054:11108   */\n      and\n        /* \"#utility.yul\":11043:11108   */\n      swap1\n      pop\n        /* \"#utility.yul\":10988:11114   */\n      swap2\n      swap1\n      pop\n      jump\t// out\n        /* \"#utility.yul\":11120:11216   */\n    tag_556:\n        /* \"#utility.yul\":11157:11164   */\n      0x00\n        /* \"#utility.yul\":11186:11210   */\n      tag_719\n        /* \"#utility.yul\":11204:11209   */\n      dup3\n        /* \"#utility.yul\":11186:11210   */\n      tag_555\n      jump\t// in\n    tag_719:\n        /* \"#utility.yul\":11175:11210   */\n      swap1\n      pop\n        /* \"#utility.yul\":11120:11216   */\n      swap2\n      swap1\n      pop\n      jump\t// out\n        /* \"#utility.yul\":11222:11344   */\n    tag_557:\n        /* \"#utility.yul\":11295:11319   */\n      tag_721\n        /* \"#utility.yul\":11313:11318   */\n      dup2\n        /* \"#utility.yul\":11295:11319   */\n      tag_556\n      jump\t// in\n    tag_721:\n        /* \"#utility.yul\":11288:11293   */\n      dup2\n        /* \"#utility.yul\":11285:11320   */\n      eq\n        /* \"#utility.yul\":11275:11338   */\n      tag_722\n      jumpi\n        /* \"#utility.yul\":11334:11335   */\n      0x00\n        /* \"#utility.yul\":11331:11332   */\n      dup1\n        /* \"#utility.yul\":11324:11336   */\n      revert\n        /* \"#utility.yul\":11275:11338   */\n    tag_722:\n        /* \"#utility.yul\":11222:11344   */\n      pop\n      jump\t// out\n        /* \"#utility.yul\":11350:11489   */\n    tag_558:\n        /* \"#utility.yul\":11396:11401   */\n      0x00\n        /* \"#utility.yul\":11434:11440   */\n      dup2\n        /* \"#utility.yul\":11421:11441   */\n      calldataload\n        /* \"#utility.yul\":11412:11441   */\n      swap1\n      pop\n        /* \"#utility.yul\":11450:11483   */\n      tag_724\n        /* \"#utility.yul\":11477:11482   */\n      dup2\n        /* \"#utility.yul\":11450:11483   */\n      tag_557\n      jump\t// in\n    tag_724:\n        /* \"#utility.yul\":11350:11489   */\n      swap3\n      swap2\n      pop\n      pop\n      jump\t// out\n        /* \"#utility.yul\":11495:12310   */\n    tag_74:\n        /* \"#utility.yul\":11606:11612   */\n      0x00\n        /* \"#utility.yul\":11614:11620   */\n      dup1\n        /* \"#utility.yul\":11622:11628   */\n      0x00\n        /* \"#utility.yul\":11630:11636   */\n      dup1\n        /* \"#utility.yul\":11679:11682   */\n      0x0160\n        /* \"#utility.yul\":11667:11676   */\n      dup6\n        /* \"#utility.yul\":11658:11665   */\n      dup8\n        /* \"#utility.yul\":11654:11677   */\n      sub\n        /* \"#utility.yul\":11650:11683   */\n      slt\n        /* \"#utility.yul\":11647:11767   */\n      iszero\n      tag_726\n      jumpi\n        /* \"#utility.yul\":11686:11765   */\n      tag_727\n      tag_523\n      jump\t// in\n    tag_727:\n        /* \"#utility.yul\":11647:11767   */\n    tag_726:\n        /* \"#utility.yul\":11806:11807   */\n      0x00\n        /* \"#utility.yul\":11831:11884   */\n      tag_728\n        /* \"#utility.yul\":11876:11883   */\n      dup8\n        /* \"#utility.yul\":11867:11873   */\n      dup3\n        /* \"#utility.yul\":11856:11865   */\n      dup9\n        /* \"#utility.yul\":11852:11874   */\n      add\n        /* \"#utility.yul\":11831:11884   */\n      tag_531\n      jump\t// in\n    tag_728:\n        /* \"#utility.yul\":11821:11884   */\n      swap5\n      pop\n        /* \"#utility.yul\":11777:11894   */\n      pop\n        /* \"#utility.yul\":11933:11935   */\n      0x20\n        /* \"#utility.yul\":11959:12012   */\n      tag_729\n        /* \"#utility.yul\":12004:12011   */\n      dup8\n        /* \"#utility.yul\":11995:12001   */\n      dup3\n        /* \"#utility.yul\":11984:11993   */\n      dup9\n        /* \"#utility.yul\":11980:12002   */\n      add\n        /* \"#utility.yul\":11959:12012   */\n      tag_558\n      jump\t// in\n    tag_729:\n        /* \"#utility.yul\":11949:12012   */\n      swap4\n      pop\n        /* \"#utility.yul\":11904:12022   */\n      pop\n        /* \"#utility.yul\":12061:12063   */\n      0x40\n        /* \"#utility.yul\":12087:12140   */\n      tag_730\n        /* \"#utility.yul\":12132:12139   */\n      dup8\n        /* \"#utility.yul\":12123:12129   */\n      dup3\n        /* \"#utility.yul\":12112:12121   */\n      dup9\n        /* \"#utility.yul\":12108:12130   */\n      add\n        /* \"#utility.yul\":12087:12140   */\n      tag_527\n      jump\t// in\n    tag_730:\n        /* \"#utility.yul\":12077:12140   */\n      swap3\n      pop\n        /* \"#utility.yul\":12032:12150   */\n      pop\n        /* \"#utility.yul\":12189:12191   */\n      0x60\n        /* \"#utility.yul\":12215:12293   */\n      tag_731\n        /* \"#utility.yul\":12285:12292   */\n      dup8\n        /* \"#utility.yul\":12276:12282   */\n      dup3\n        /* \"#utility.yul\":12265:12274   */\n      dup9\n        /* \"#utility.yul\":12261:12283   */\n      add\n        /* \"#utility.yul\":12215:12293   */\n      tag_539\n      jump\t// in\n    tag_731:\n        /* \"#utility.yul\":12205:12293   */\n      swap2\n      pop\n        /* \"#utility.yul\":12160:12303   */\n      pop\n        /* \"#utility.yul\":11495:12310   */\n      swap3\n      swap6\n      swap2\n      swap5\n      pop\n      swap3\n      pop\n      jump\t// out\n        /* \"#utility.yul\":12316:12434   */\n    tag_559:\n        /* \"#utility.yul\":12403:12427   */\n      tag_733\n        /* \"#utility.yul\":12421:12426   */\n      dup2\n        /* \"#utility.yul\":12403:12427   */\n      tag_529\n      jump\t// in\n    tag_733:\n        /* \"#utility.yul\":12398:12401   */\n      dup3\n        /* \"#utility.yul\":12391:12428   */\n      mstore\n        /* \"#utility.yul\":12316:12434   */\n      pop\n      pop\n      jump\t// out\n        /* \"#utility.yul\":12440:12662   */\n    tag_79:\n        /* \"#utility.yul\":12533:12537   */\n      0x00\n        /* \"#utility.yul\":12571:12573   */\n      0x20\n        /* \"#utility.yul\":12560:12569   */\n      dup3\n        /* \"#utility.yul\":12556:12574   */\n      add\n        /* \"#utility.yul\":12548:12574   */\n      swap1\n      pop\n        /* \"#utility.yul\":12584:12655   */\n      tag_735\n        /* \"#utility.yul\":12652:12653   */\n      0x00\n        /* \"#utility.yul\":12641:12650   */\n      dup4\n        /* \"#utility.yul\":12637:12654   */\n      add\n        /* \"#utility.yul\":12628:12634   */\n      dup5\n        /* \"#utility.yul\":12584:12655   */\n      tag_559\n      jump\t// in\n    tag_735:\n        /* \"#utility.yul\":12440:12662   */\n      swap3\n      swap2\n      pop\n      pop\n      jump\t// out\n        /* \"#utility.yul\":12668:12997   */\n    tag_82:\n        /* \"#utility.yul\":12727:12733   */\n      0x00\n        /* \"#utility.yul\":12776:12778   */\n      0x20\n        /* \"#utility.yul\":12764:12773   */\n      dup3\n        /* \"#utility.yul\":12755:12762   */\n      dup5\n        /* \"#utility.yul\":12751:12774   */\n      sub\n        /* \"#utility.yul\":12747:12779   */\n      slt\n        /* \"#utility.yul\":12744:12863   */\n      iszero\n      tag_737\n      jumpi\n        /* \"#utility.yul\":12782:12861   */\n      tag_738\n      tag_523\n      jump\t// in\n    tag_738:\n        /* \"#utility.yul\":12744:12863   */\n    tag_737:\n        /* \"#utility.yul\":12902:12903   */\n      0x00\n        /* \"#utility.yul\":12927:12980   */\n      tag_739\n        /* \"#utility.yul\":12972:12979   */\n      dup5\n        /* \"#utility.yul\":12963:12969   */\n      dup3\n        /* \"#utility.yul\":12952:12961   */\n      dup6\n        /* \"#utility.yul\":12948:12970   */\n      add\n        /* \"#utility.yul\":12927:12980   */\n      tag_558\n      jump\t// in\n    tag_739:\n        /* \"#utility.yul\":12917:12980   */\n      swap2\n      pop\n        /* \"#utility.yul\":12873:12990   */\n      pop\n        /* \"#utility.yul\":12668:12997   */\n      swap3\n      swap2\n      pop\n      pop\n      jump\t// out\n        /* \"#utility.yul\":13003:13121   */\n    tag_560:\n        /* \"#utility.yul\":13090:13114   */\n      tag_741\n        /* \"#utility.yul\":13108:13113   */\n      dup2\n        /* \"#utility.yul\":13090:13114   */\n      tag_556\n      jump\t// in\n    tag_741:\n        /* \"#utility.yul\":13085:13088   */\n      dup3\n        /* \"#utility.yul\":13078:13115   */\n      mstore\n        /* \"#utility.yul\":13003:13121   */\n      pop\n      pop\n      jump\t// out\n        /* \"#utility.yul\":13127:13779   */\n    tag_104:\n        /* \"#utility.yul\":13326:13330   */\n      0x00\n        /* \"#utility.yul\":13364:13367   */\n      0xa0\n        /* \"#utility.yul\":13353:13362   */\n      dup3\n        /* \"#utility.yul\":13349:13368   */\n      add\n        /* \"#utility.yul\":13341:13368   */\n      swap1\n      pop\n        /* \"#utility.yul\":13378:13449   */\n      tag_743\n        /* \"#utility.yul\":13446:13447   */\n      0x00\n        /* \"#utility.yul\":13435:13444   */\n      dup4\n        /* \"#utility.yul\":13431:13448   */\n      add\n        /* \"#utility.yul\":13422:13428   */\n      dup9\n        /* \"#utility.yul\":13378:13449   */\n      tag_559\n      jump\t// in\n    tag_743:\n        /* \"#utility.yul\":13459:13531   */\n      tag_744\n        /* \"#utility.yul\":13527:13529   */\n      0x20\n        /* \"#utility.yul\":13516:13525   */\n      dup4\n        /* \"#utility.yul\":13512:13530   */\n      add\n        /* \"#utility.yul\":13503:13509   */\n      dup8\n        /* \"#utility.yul\":13459:13531   */\n      tag_559\n      jump\t// in\n    tag_744:\n        /* \"#utility.yul\":13541:13613   */\n      tag_745\n        /* \"#utility.yul\":13609:13611   */\n      0x40\n        /* \"#utility.yul\":13598:13607   */\n      dup4\n        /* \"#utility.yul\":13594:13612   */\n      add\n        /* \"#utility.yul\":13585:13591   */\n      dup7\n        /* \"#utility.yul\":13541:13613   */\n      tag_528\n      jump\t// in\n    tag_745:\n        /* \"#utility.yul\":13623:13695   */\n      tag_746\n        /* \"#utility.yul\":13691:13693   */\n      0x60\n        /* \"#utility.yul\":13680:13689   */\n      dup4\n        /* \"#utility.yul\":13676:13694   */\n      add\n        /* \"#utility.yul\":13667:13673   */\n      dup6\n        /* \"#utility.yul\":13623:13695   */\n      tag_560\n      jump\t// in\n    tag_746:\n        /* \"#utility.yul\":13705:13772   */\n      tag_747\n        /* \"#utility.yul\":13767:13770   */\n      0x80\n        /* \"#utility.yul\":13756:13765   */\n      dup4\n        /* \"#utility.yul\":13752:13771   */\n      add\n        /* \"#utility.yul\":13743:13749   */\n      dup5\n        /* \"#utility.yul\":13705:13772   */\n      tag_538\n      jump\t// in\n    tag_747:\n        /* \"#utility.yul\":13127:13779   */\n      swap7\n      swap6\n      pop\n      pop\n      pop\n      pop\n      pop\n      pop\n      jump\t// out\n        /* \"#utility.yul\":13785:14007   */\n    tag_108:\n        /* \"#utility.yul\":13878:13882   */\n      0x00\n        /* \"#utility.yul\":13916:13918   */\n      0x20\n        /* \"#utility.yul\":13905:13914   */\n      dup3\n        /* \"#utility.yul\":13901:13919   */\n      add\n        /* \"#utility.yul\":13893:13919   */\n      swap1\n      pop\n        /* \"#utility.yul\":13929:14000   */\n      tag_749\n        /* \"#utility.yul\":13997:13998   */\n      0x00\n        /* \"#utility.yul\":13986:13995   */\n      dup4\n        /* \"#utility.yul\":13982:13999   */\n      add\n        /* \"#utility.yul\":13973:13979   */\n      dup5\n        /* \"#utility.yul\":13929:14000   */\n      tag_560\n      jump\t// in\n    tag_749:\n        /* \"#utility.yul\":13785:14007   */\n      swap3\n      swap2\n      pop\n      pop\n      jump\t// out\n        /* \"#utility.yul\":14013:14487   */\n    tag_114:\n        /* \"#utility.yul\":14081:14087   */\n      0x00\n        /* \"#utility.yul\":14089:14095   */\n      dup1\n        /* \"#utility.yul\":14138:14140   */\n      0x40\n        /* \"#utility.yul\":14126:14135   */\n      dup4\n        /* \"#utility.yul\":14117:14124   */\n      dup6\n        /* \"#utility.yul\":14113:14136   */\n      sub\n        /* \"#utility.yul\":14109:14141   */\n      slt\n        /* \"#utility.yul\":14106:14225   */\n      iszero\n      tag_751\n      jumpi\n        /* \"#utility.yul\":14144:14223   */\n      tag_752\n      tag_523\n      jump\t// in\n    tag_752:\n        /* \"#utility.yul\":14106:14225   */\n    tag_751:\n        /* \"#utility.yul\":14264:14265   */\n      0x00\n        /* \"#utility.yul\":14289:14342   */\n      tag_753\n        /* \"#utility.yul\":14334:14341   */\n      dup6\n        /* \"#utility.yul\":14325:14331   */\n      dup3\n        /* \"#utility.yul\":14314:14323   */\n      dup7\n        /* \"#utility.yul\":14310:14332   */\n      add\n        /* \"#utility.yul\":14289:14342   */\n      tag_527\n      jump\t// in\n    tag_753:\n        /* \"#utility.yul\":14279:14342   */\n      swap3\n      pop\n        /* \"#utility.yul\":14235:14352   */\n      pop\n        /* \"#utility.yul\":14391:14393   */\n      0x20\n        /* \"#utility.yul\":14417:14470   */\n      tag_754\n        /* \"#utility.yul\":14462:14469   */\n      dup6\n        /* \"#utility.yul\":14453:14459   */\n      dup3\n        /* \"#utility.yul\":14442:14451   */\n      dup7\n        /* \"#utility.yul\":14438:14460   */\n      add\n        /* \"#utility.yul\":14417:14470   */\n      tag_527\n      jump\t// in\n    tag_754:\n        /* \"#utility.yul\":14407:14470   */\n      swap2\n      pop\n        /* \"#utility.yul\":14362:14480   */\n      pop\n        /* \"#utility.yul\":14013:14487   */\n      swap3\n      pop\n      swap3\n      swap1\n      pop\n      jump\t// out\n        /* \"#utility.yul\":14493:14967   */\n    tag_119:\n        /* \"#utility.yul\":14561:14567   */\n      0x00\n        /* \"#utility.yul\":14569:14575   */\n      dup1\n        /* \"#utility.yul\":14618:14620   */\n      0x40\n        /* \"#utility.yul\":14606:14615   */\n      dup4\n        /* \"#utility.yul\":14597:14604   */\n      dup6\n        /* \"#utility.yul\":14593:14616   */\n      sub\n        /* \"#utility.yul\":14589:14621   */\n      slt\n        /* \"#utility.yul\":14586:14705   */\n      iszero\n      tag_756\n      jumpi\n        /* \"#utility.yul\":14624:14703   */\n      tag_757\n      tag_523\n      jump\t// in\n    tag_757:\n        /* \"#utility.yul\":14586:14705   */\n    tag_756:\n        /* \"#utility.yul\":14744:14745   */\n      0x00\n        /* \"#utility.yul\":14769:14822   */\n      tag_758\n        /* \"#utility.yul\":14814:14821   */\n      dup6\n        /* \"#utility.yul\":14805:14811   */\n      dup3\n        /* \"#utility.yul\":14794:14803   */\n      dup7\n        /* \"#utility.yul\":14790:14812   */\n      add\n        /* \"#utility.yul\":14769:14822   */\n      tag_531\n      jump\t// in\n    tag_758:\n        /* \"#utility.yul\":14759:14822   */\n      swap3\n      pop\n        /* \"#utility.yul\":14715:14832   */\n      pop\n        /* \"#utility.yul\":14871:14873   */\n      0x20\n        /* \"#utility.yul\":14897:14950   */\n      tag_759\n        /* \"#utility.yul\":14942:14949   */\n      dup6\n        /* \"#utility.yul\":14933:14939   */\n      dup3\n        /* \"#utility.yul\":14922:14931   */\n      dup7\n        /* \"#utility.yul\":14918:14940   */\n      add\n        /* \"#utility.yul\":14897:14950   */\n      tag_527\n      jump\t// in\n    tag_759:\n        /* \"#utility.yul\":14887:14950   */\n      swap2\n      pop\n        /* \"#utility.yul\":14842:14960   */\n      pop\n        /* \"#utility.yul\":14493:14967   */\n      swap3\n      pop\n      swap3\n      swap1\n      pop\n      jump\t// out\n        /* \"#utility.yul\":14973:15142   */\n    tag_561:\n        /* \"#utility.yul\":15057:15068   */\n      0x00\n        /* \"#utility.yul\":15091:15097   */\n      dup3\n        /* \"#utility.yul\":15086:15089   */\n      dup3\n        /* \"#utility.yul\":15079:15098   */\n      mstore\n        /* \"#utility.yul\":15131:15135   */\n      0x20\n        /* \"#utility.yul\":15126:15129   */\n      dup3\n        /* \"#utility.yul\":15122:15136   */\n      add\n        /* \"#utility.yul\":15107:15136   */\n      swap1\n      pop\n        /* \"#utility.yul\":14973:15142   */\n      swap3\n      swap2\n      pop\n      pop\n      jump\t// out\n        /* \"#utility.yul\":15148:15318   */\n    tag_562:\n        /* \"#utility.yul\":15288:15310   */\n      0x496e76616c69642070726f6f66206c656e677468000000000000000000000000\n        /* \"#utility.yul\":15284:15285   */\n      0x00\n        /* \"#utility.yul\":15276:15282   */\n      dup3\n        /* \"#utility.yul\":15272:15286   */\n      add\n        /* \"#utility.yul\":15265:15311   */\n      mstore\n        /* \"#utility.yul\":15148:15318   */\n      pop\n      jump\t// out\n        /* \"#utility.yul\":15324:15690   */\n    tag_563:\n        /* \"#utility.yul\":15466:15469   */\n      0x00\n        /* \"#utility.yul\":15487:15554   */\n      tag_763\n        /* \"#utility.yul\":15551:15553   */\n      0x14\n        /* \"#utility.yul\":15546:15549   */\n      dup4\n        /* \"#utility.yul\":15487:15554   */\n      tag_561\n      jump\t// in\n    tag_763:\n        /* \"#utility.yul\":15480:15554   */\n      swap2\n      pop\n        /* \"#utility.yul\":15563:15656   */\n      tag_764\n        /* \"#utility.yul\":15652:15655   */\n      dup3\n        /* \"#utility.yul\":15563:15656   */\n      tag_562\n      jump\t// in\n    tag_764:\n        /* \"#utility.yul\":15681:15683   */\n      0x20\n        /* \"#utility.yul\":15676:15679   */\n      dup3\n        /* \"#utility.yul\":15672:15684   */\n      add\n        /* \"#utility.yul\":15665:15684   */\n      swap1\n      pop\n        /* \"#utility.yul\":15324:15690   */\n      swap2\n      swap1\n      pop\n      jump\t// out\n        /* \"#utility.yul\":15696:16115   */\n    tag_145:\n        /* \"#utility.yul\":15862:15866   */\n      0x00\n        /* \"#utility.yul\":15900:15902   */\n      0x20\n        /* \"#utility.yul\":15889:15898   */\n      dup3\n        /* \"#utility.yul\":15885:15903   */\n      add\n        /* \"#utility.yul\":15877:15903   */\n      swap1\n      pop\n        /* \"#utility.yul\":15949:15958   */\n      dup2\n        /* \"#utility.yul\":15943:15947   */\n      dup2\n        /* \"#utility.yul\":15939:15959   */\n      sub\n        /* \"#utility.yul\":15935:15936   */\n      0x00\n        /* \"#utility.yul\":15924:15933   */\n      dup4\n        /* \"#utility.yul\":15920:15937   */\n      add\n        /* \"#utility.yul\":15913:15960   */\n      mstore\n        /* \"#utility.yul\":15977:16108   */\n      tag_766\n        /* \"#utility.yul\":16103:16107   */\n      dup2\n        /* \"#utility.yul\":15977:16108   */\n      tag_563\n      jump\t// in\n    tag_766:\n        /* \"#utility.yul\":15969:16108   */\n      swap1\n      pop\n        /* \"#utility.yul\":15696:16115   */\n      swap2\n      swap1\n      pop\n      jump\t// out\n        /* \"#utility.yul\":16121:16293   */\n    tag_564:\n        /* \"#utility.yul\":16261:16285   */\n      0x496e76616c696420696e6469636573206c656e67746800000000000000000000\n        /* \"#utility.yul\":16257:16258   */\n      0x00\n        /* \"#utility.yul\":16249:16255   */\n      dup3\n        /* \"#utility.yul\":16245:16259   */\n      add\n        /* \"#utility.yul\":16238:16286   */\n      mstore\n        /* \"#utility.yul\":16121:16293   */\n      pop\n      jump\t// out\n        /* \"#utility.yul\":16299:16665   */\n    tag_565:\n        /* \"#utility.yul\":16441:16444   */\n      0x00\n        /* \"#utility.yul\":16462:16529   */\n      tag_769\n        /* \"#utility.yul\":16526:16528   */\n      0x16\n        /* \"#utility.yul\":16521:16524   */\n      dup4\n        /* \"#utility.yul\":16462:16529   */\n      tag_561\n      jump\t// in\n    tag_769:\n        /* \"#utility.yul\":16455:16529   */\n      swap2\n      pop\n        /* \"#utility.yul\":16538:16631   */\n      tag_770\n        /* \"#utility.yul\":16627:16630   */\n      dup3\n        /* \"#utility.yul\":16538:16631   */\n      tag_564\n      jump\t// in\n    tag_770:\n        /* \"#utility.yul\":16656:16658   */\n      0x20\n        /* \"#utility.yul\":16651:16654   */\n      dup3\n        /* \"#utility.yul\":16647:16659   */\n      add\n        /* \"#utility.yul\":16640:16659   */\n      swap1\n      pop\n        /* \"#utility.yul\":16299:16665   */\n      swap2\n      swap1\n      pop\n      jump\t// out\n        /* \"#utility.yul\":16671:17090   */\n    tag_148:\n        /* \"#utility.yul\":16837:16841   */\n      0x00\n        /* \"#utility.yul\":16875:16877   */\n      0x20\n        /* \"#utility.yul\":16864:16873   */\n      dup3\n        /* \"#utility.yul\":16860:16878   */\n      add\n        /* \"#utility.yul\":16852:16878   */\n      swap1\n      pop\n        /* \"#utility.yul\":16924:16933   */\n      dup2\n        /* \"#utility.yul\":16918:16922   */\n      dup2\n        /* \"#utility.yul\":16914:16934   */\n      sub\n        /* \"#utility.yul\":16910:16911   */\n      0x00\n        /* \"#utility.yul\":16899:16908   */\n      dup4\n        /* \"#utility.yul\":16895:16912   */\n      add\n        /* \"#utility.yul\":16888:16935   */\n      mstore\n        /* \"#utility.yul\":16952:17083   */\n      tag_772\n        /* \"#utility.yul\":17078:17082   */\n      dup2\n        /* \"#utility.yul\":16952:17083   */\n      tag_565\n      jump\t// in\n    tag_772:\n        /* \"#utility.yul\":16944:17083   */\n      swap1\n      pop\n        /* \"#utility.yul\":16671:17090   */\n      swap2\n      swap1\n      pop\n      jump\t// out\n        /* \"#utility.yul\":17096:17276   */\n    tag_154:\n        /* \"#utility.yul\":17144:17221   */\n      0x4e487b7100000000000000000000000000000000000000000000000000000000\n        /* \"#utility.yul\":17141:17142   */\n      0x00\n        /* \"#utility.yul\":17134:17222   */\n      mstore\n        /* \"#utility.yul\":17241:17245   */\n      0x32\n        /* \"#utility.yul\":17238:17239   */\n      0x04\n        /* \"#utility.yul\":17231:17246   */\n      mstore\n        /* \"#utility.yul\":17265:17269   */\n      0x24\n        /* \"#utility.yul\":17262:17263   */\n      0x00\n        /* \"#utility.yul\":17255:17270   */\n      revert\n        /* \"#utility.yul\":17282:17455   */\n    tag_566:\n        /* \"#utility.yul\":17422:17447   */\n      0x4e756c6c696669657220616c7265616479207370656e74000000000000000000\n        /* \"#utility.yul\":17418:17419   */\n      0x00\n        /* \"#utility.yul\":17410:17416   */\n      dup3\n        /* \"#utility.yul\":17406:17420   */\n      add\n        /* \"#utility.yul\":17399:17448   */\n      mstore\n        /* \"#utility.yul\":17282:17455   */\n      pop\n      jump\t// out\n        /* \"#utility.yul\":17461:17827   */\n    tag_567:\n        /* \"#utility.yul\":17603:17606   */\n      0x00\n        /* \"#utility.yul\":17624:17691   */\n      tag_776\n        /* \"#utility.yul\":17688:17690   */\n      0x17\n        /* \"#utility.yul\":17683:17686   */\n      dup4\n        /* \"#utility.yul\":17624:17691   */\n      tag_561\n      jump\t// in\n    tag_776:\n        /* \"#utility.yul\":17617:17691   */\n      swap2\n      pop\n        /* \"#utility.yul\":17700:17793   */\n      tag_777\n        /* \"#utility.yul\":17789:17792   */\n      dup3\n        /* \"#utility.yul\":17700:17793   */\n      tag_566\n      jump\t// in\n    tag_777:\n        /* \"#utility.yul\":17818:17820   */\n      0x20\n        /* \"#utility.yul\":17813:17816   */\n      dup3\n        /* \"#utility.yul\":17809:17821   */\n      add\n        /* \"#utility.yul\":17802:17821   */\n      swap1\n      pop\n        /* \"#utility.yul\":17461:17827   */\n      swap2\n      swap1\n      pop\n      jump\t// out\n        /* \"#utility.yul\":17833:18252   */\n    tag_190:\n        /* \"#utility.yul\":17999:18003   */\n      0x00\n        /* \"#utility.yul\":18037:18039   */\n      0x20\n        /* \"#utility.yul\":18026:18035   */\n      dup3\n        /* \"#utility.yul\":18022:18040   */\n      add\n        /* \"#utility.yul\":18014:18040   */\n      swap1\n      pop\n        /* \"#utility.yul\":18086:18095   */\n      dup2\n        /* \"#utility.yul\":18080:18084   */\n      dup2\n        /* \"#utility.yul\":18076:18096   */\n      sub\n        /* \"#utility.yul\":18072:18073   */\n      0x00\n        /* \"#utility.yul\":18061:18070   */\n      dup4\n        /* \"#utility.yul\":18057:18074   */\n      add\n        /* \"#utility.yul\":18050:18097   */\n      mstore\n        /* \"#utility.yul\":18114:18245   */\n      tag_779\n        /* \"#utility.yul\":18240:18244   */\n      dup2\n        /* \"#utility.yul\":18114:18245   */\n      tag_567\n      jump\t// in\n    tag_779:\n        /* \"#utility.yul\":18106:18245   */\n      swap1\n      pop\n        /* \"#utility.yul\":17833:18252   */\n      swap2\n      swap1\n      pop\n      jump\t// out\n        /* \"#utility.yul\":18258:18422   */\n    tag_568:\n        /* \"#utility.yul\":18398:18414   */\n      0x4e6f7465206e6f7420666f756e64000000000000000000000000000000000000\n        /* \"#utility.yul\":18394:18395   */\n      0x00\n        /* \"#utility.yul\":18386:18392   */\n      dup3\n        /* \"#utility.yul\":18382:18396   */\n      add\n        /* \"#utility.yul\":18375:18415   */\n      mstore\n        /* \"#utility.yul\":18258:18422   */\n      pop\n      jump\t// out\n        /* \"#utility.yul\":18428:18794   */\n    tag_569:\n        /* \"#utility.yul\":18570:18573   */\n      0x00\n        /* \"#utility.yul\":18591:18658   */\n      tag_782\n        /* \"#utility.yul\":18655:18657   */\n      0x0e\n        /* \"#utility.yul\":18650:18653   */\n      dup4\n        /* \"#utility.yul\":18591:18658   */\n      tag_561\n      jump\t// in\n    tag_782:\n        /* \"#utility.yul\":18584:18658   */\n      swap2\n      pop\n        /* \"#utility.yul\":18667:18760   */\n      tag_783\n        /* \"#utility.yul\":18756:18759   */\n      dup3\n        /* \"#utility.yul\":18667:18760   */\n      tag_568\n      jump\t// in\n    tag_783:\n        /* \"#utility.yul\":18785:18787   */\n      0x20\n        /* \"#utility.yul\":18780:18783   */\n      dup3\n        /* \"#utility.yul\":18776:18788   */\n      add\n        /* \"#utility.yul\":18769:18788   */\n      swap1\n      pop\n        /* \"#utility.yul\":18428:18794   */\n      swap2\n      swap1\n      pop\n      jump\t// out\n        /* \"#utility.yul\":18800:19219   */\n    tag_193:\n        /* \"#utility.yul\":18966:18970   */\n      0x00\n        /* \"#utility.yul\":19004:19006   */\n      0x20\n        /* \"#utility.yul\":18993:19002   */\n      dup3\n        /* \"#utility.yul\":18989:19007   */\n      add\n        /* \"#utility.yul\":18981:19007   */\n      swap1\n      pop\n        /* \"#utility.yul\":19053:19062   */\n      dup2\n        /* \"#utility.yul\":19047:19051   */\n      dup2\n        /* \"#utility.yul\":19043:19063   */\n      sub\n        /* \"#utility.yul\":19039:19040   */\n      0x00\n        /* \"#utility.yul\":19028:19037   */\n      dup4\n        /* \"#utility.yul\":19024:19041   */\n      add\n        /* \"#utility.yul\":19017:19064   */\n      mstore\n        /* \"#utility.yul\":19081:19212   */\n      tag_785\n        /* \"#utility.yul\":19207:19211   */\n      dup2\n        /* \"#utility.yul\":19081:19212   */\n      tag_569\n      jump\t// in\n    tag_785:\n        /* \"#utility.yul\":19073:19212   */\n      swap1\n      pop\n        /* \"#utility.yul\":18800:19219   */\n      swap2\n      swap1\n      pop\n      jump\t// out\n        /* \"#utility.yul\":19225:19393   */\n    tag_570:\n        /* \"#utility.yul\":19365:19385   */\n      0x4e6f746520616c7265616479207370656e740000000000000000000000000000\n        /* \"#utility.yul\":19361:19362   */\n      0x00\n        /* \"#utility.yul\":19353:19359   */\n      dup3\n        /* \"#utility.yul\":19349:19363   */\n      add\n        /* \"#utility.yul\":19342:19386   */\n      mstore\n        /* \"#utility.yul\":19225:19393   */\n      pop\n      jump\t// out\n        /* \"#utility.yul\":19399:19765   */\n    tag_571:\n        /* \"#utility.yul\":19541:19544   */\n      0x00\n        /* \"#utility.yul\":19562:19629   */\n      tag_788\n        /* \"#utility.yul\":19626:19628   */\n      0x12\n        /* \"#utility.yul\":19621:19624   */\n      dup4\n        /* \"#utility.yul\":19562:19629   */\n      tag_561\n      jump\t// in\n    tag_788:\n        /* \"#utility.yul\":19555:19629   */\n      swap2\n      pop\n        /* \"#utility.yul\":19638:19731   */\n      tag_789\n        /* \"#utility.yul\":19727:19730   */\n      dup3\n        /* \"#utility.yul\":19638:19731   */\n      tag_570\n      jump\t// in\n    tag_789:\n        /* \"#utility.yul\":19756:19758   */\n      0x20\n        /* \"#utility.yul\":19751:19754   */\n      dup3\n        /* \"#utility.yul\":19747:19759   */\n      add\n        /* \"#utility.yul\":19740:19759   */\n      swap1\n      pop\n        /* \"#utility.yul\":19399:19765   */\n      swap2\n      swap1\n      pop\n      jump\t// out\n        /* \"#utility.yul\":19771:20190   */\n    tag_196:\n        /* \"#utility.yul\":19937:19941   */\n      0x00\n        /* \"#utility.yul\":19975:19977   */\n      0x20\n        /* \"#utility.yul\":19964:19973   */\n      dup3\n        /* \"#utility.yul\":19960:19978   */\n      add\n        /* \"#utility.yul\":19952:19978   */\n      swap1\n      pop\n        /* \"#utility.yul\":20024:20033   */\n      dup2\n        /* \"#utility.yul\":20018:20022   */\n      dup2\n        /* \"#utility.yul\":20014:20034   */\n      sub\n        /* \"#utility.yul\":20010:20011   */\n      0x00\n        /* \"#utility.yul\":19999:20008   */\n      dup4\n        /* \"#utility.yul\":19995:20012   */\n      add\n        /* \"#utility.yul\":19988:20035   */\n      mstore\n        /* \"#utility.yul\":20052:20183   */\n      tag_791\n        /* \"#utility.yul\":20178:20182   */\n      dup2\n        /* \"#utility.yul\":20052:20183   */\n      tag_571\n      jump\t// in\n    tag_791:\n        /* \"#utility.yul\":20044:20183   */\n      swap1\n      pop\n        /* \"#utility.yul\":19771:20190   */\n      swap2\n      swap1\n      pop\n      jump\t// out\n        /* \"#utility.yul\":20196:20295   */\n    tag_572:\n        /* \"#utility.yul\":20281:20287   */\n      dup3\n        /* \"#utility.yul\":20276:20279   */\n      dup2\n        /* \"#utility.yul\":20271:20274   */\n      dup4\n        /* \"#utility.yul\":20258:20288   */\n      calldatacopy\n        /* \"#utility.yul\":20196:20295   */\n      pop\n      pop\n      pop\n      jump\t// out\n        /* \"#utility.yul\":20333:20505   */\n    tag_573:\n        /* \"#utility.yul\":20456:20499   */\n      tag_794\n        /* \"#utility.yul\":20492:20498   */\n      0x0100\n        /* \"#utility.yul\":20487:20490   */\n      dup4\n        /* \"#utility.yul\":20480:20485   */\n      dup4\n        /* \"#utility.yul\":20456:20499   */\n      tag_572\n      jump\t// in\n    tag_794:\n        /* \"#utility.yul\":20333:20505   */\n      pop\n      pop\n      jump\t// out\n        /* \"#utility.yul\":20511:20615   */\n    tag_574:\n        /* \"#utility.yul\":20576:20582   */\n      0x00\n        /* \"#utility.yul\":20604:20608   */\n      0x01\n        /* \"#utility.yul\":20594:20608   */\n      swap1\n      pop\n        /* \"#utility.yul\":20511:20615   */\n      swap2\n      swap1\n      pop\n      jump\t// out\n        /* \"#utility.yul\":20621:20764   */\n    tag_575:\n        /* \"#utility.yul\":20718:20729   */\n      0x00\n        /* \"#utility.yul\":20755:20758   */\n      dup2\n        /* \"#utility.yul\":20740:20758   */\n      swap1\n      pop\n        /* \"#utility.yul\":20621:20764   */\n      swap3\n      swap2\n      pop\n      pop\n      jump\t// out\n        /* \"#utility.yul\":20770:20868   */\n    tag_576:\n        /* \"#utility.yul\":20835:20839   */\n      0x00\n        /* \"#utility.yul\":20858:20861   */\n      dup2\n        /* \"#utility.yul\":20850:20861   */\n      swap1\n      pop\n        /* \"#utility.yul\":20770:20868   */\n      swap2\n      swap1\n      pop\n      jump\t// out\n        /* \"#utility.yul\":20874:20985   */\n    tag_577:\n        /* \"#utility.yul\":20942:20946   */\n      0x00\n        /* \"#utility.yul\":20974:20978   */\n      0x20\n        /* \"#utility.yul\":20969:20972   */\n      dup3\n        /* \"#utility.yul\":20965:20979   */\n      add\n        /* \"#utility.yul\":20957:20979   */\n      swap1\n      pop\n        /* \"#utility.yul\":20874:20985   */\n      swap2\n      swap1\n      pop\n      jump\t// out\n        /* \"#utility.yul\":21023:21717   */\n    tag_578:\n        /* \"#utility.yul\":21159:21211   */\n      tag_800\n        /* \"#utility.yul\":21205:21210   */\n      dup2\n        /* \"#utility.yul\":21159:21211   */\n      tag_574\n      jump\t// in\n    tag_800:\n        /* \"#utility.yul\":21227:21311   */\n      tag_801\n        /* \"#utility.yul\":21304:21310   */\n      dup2\n        /* \"#utility.yul\":21299:21302   */\n      dup5\n        /* \"#utility.yul\":21227:21311   */\n      tag_575\n      jump\t// in\n    tag_801:\n        /* \"#utility.yul\":21220:21311   */\n      swap3\n      pop\n        /* \"#utility.yul\":21335:21389   */\n      tag_802\n        /* \"#utility.yul\":21383:21388   */\n      dup3\n        /* \"#utility.yul\":21335:21389   */\n      tag_576\n      jump\t// in\n    tag_802:\n        /* \"#utility.yul\":21412:21419   */\n      dup1\n        /* \"#utility.yul\":21443:21444   */\n      0x00\n        /* \"#utility.yul\":21428:21710   */\n    tag_803:\n        /* \"#utility.yul\":21453:21459   */\n      dup4\n        /* \"#utility.yul\":21450:21451   */\n      dup2\n        /* \"#utility.yul\":21447:21460   */\n      lt\n        /* \"#utility.yul\":21428:21710   */\n      iszero\n      tag_805\n      jumpi\n        /* \"#utility.yul\":21529:21535   */\n      dup2\n        /* \"#utility.yul\":21523:21536   */\n      mload\n        /* \"#utility.yul\":21556:21619   */\n      tag_806\n        /* \"#utility.yul\":21615:21618   */\n      dup8\n        /* \"#utility.yul\":21600:21613   */\n      dup3\n        /* \"#utility.yul\":21556:21619   */\n      tag_552\n      jump\t// in\n    tag_806:\n        /* \"#utility.yul\":21549:21619   */\n      swap7\n      pop\n        /* \"#utility.yul\":21642:21700   */\n      tag_807\n        /* \"#utility.yul\":21693:21699   */\n      dup4\n        /* \"#utility.yul\":21642:21700   */\n      tag_577\n      jump\t// in\n    tag_807:\n        /* \"#utility.yul\":21632:21700   */\n      swap3\n      pop\n        /* \"#utility.yul\":21488:21710   */\n      pop\n        /* \"#utility.yul\":21475:21476   */\n      0x01\n        /* \"#utility.yul\":21472:21473   */\n      dup2\n        /* \"#utility.yul\":21468:21477   */\n      add\n        /* \"#utility.yul\":21463:21477   */\n      swap1\n      pop\n        /* \"#utility.yul\":21428:21710   */\n      jump(tag_803)\n    tag_805:\n        /* \"#utility.yul\":21432:21446   */\n      pop\n        /* \"#utility.yul\":21135:21717   */\n      pop\n      pop\n      pop\n        /* \"#utility.yul\":21023:21717   */\n      pop\n      pop\n      jump\t// out\n        /* \"#utility.yul\":21723:22245   */\n    tag_198:\n        /* \"#utility.yul\":21938:21942   */\n      0x00\n        /* \"#utility.yul\":21976:21979   */\n      0x0120\n        /* \"#utility.yul\":21965:21974   */\n      dup3\n        /* \"#utility.yul\":21961:21980   */\n      add\n        /* \"#utility.yul\":21953:21980   */\n      swap1\n      pop\n        /* \"#utility.yul\":21990:22109   */\n      tag_809\n        /* \"#utility.yul\":22106:22107   */\n      0x00\n        /* \"#utility.yul\":22095:22104   */\n      dup4\n        /* \"#utility.yul\":22091:22108   */\n      add\n        /* \"#utility.yul\":22082:22088   */\n      dup6\n        /* \"#utility.yul\":21990:22109   */\n      tag_573\n      jump\t// in\n    tag_809:\n        /* \"#utility.yul\":22119:22238   */\n      tag_810\n        /* \"#utility.yul\":22233:22236   */\n      0x0100\n        /* \"#utility.yul\":22222:22231   */\n      dup4\n        /* \"#utility.yul\":22218:22237   */\n      add\n        /* \"#utility.yul\":22209:22215   */\n      dup5\n        /* \"#utility.yul\":22119:22238   */\n      tag_578\n      jump\t// in\n    tag_810:\n        /* \"#utility.yul\":21723:22245   */\n      swap4\n      swap3\n      pop\n      pop\n      pop\n      jump\t// out\n        /* \"#utility.yul\":22251:22367   */\n    tag_579:\n        /* \"#utility.yul\":22321:22342   */\n      tag_812\n        /* \"#utility.yul\":22336:22341   */\n      dup2\n        /* \"#utility.yul\":22321:22342   */\n      tag_537\n      jump\t// in\n    tag_812:\n        /* \"#utility.yul\":22314:22319   */\n      dup2\n        /* \"#utility.yul\":22311:22343   */\n      eq\n        /* \"#utility.yul\":22301:22361   */\n      tag_813\n      jumpi\n        /* \"#utility.yul\":22357:22358   */\n      0x00\n        /* \"#utility.yul\":22354:22355   */\n      dup1\n        /* \"#utility.yul\":22347:22359   */\n      revert\n        /* \"#utility.yul\":22301:22361   */\n    tag_813:\n        /* \"#utility.yul\":22251:22367   */\n      pop\n      jump\t// out\n        /* \"#utility.yul\":22373:22510   */\n    tag_580:\n        /* \"#utility.yul\":22427:22432   */\n      0x00\n        /* \"#utility.yul\":22458:22464   */\n      dup2\n        /* \"#utility.yul\":22452:22465   */\n      mload\n        /* \"#utility.yul\":22443:22465   */\n      swap1\n      pop\n        /* \"#utility.yul\":22474:22504   */\n      tag_815\n        /* \"#utility.yul\":22498:22503   */\n      dup2\n        /* \"#utility.yul\":22474:22504   */\n      tag_579\n      jump\t// in\n    tag_815:\n        /* \"#utility.yul\":22373:22510   */\n      swap3\n      swap2\n      pop\n      pop\n      jump\t// out\n        /* \"#utility.yul\":22516:22861   */\n    tag_202:\n        /* \"#utility.yul\":22583:22589   */\n      0x00\n        /* \"#utility.yul\":22632:22634   */\n      0x20\n        /* \"#utility.yul\":22620:22629   */\n      dup3\n        /* \"#utility.yul\":22611:22618   */\n      dup5\n        /* \"#utility.yul\":22607:22630   */\n      sub\n        /* \"#utility.yul\":22603:22635   */\n      slt\n        /* \"#utility.yul\":22600:22719   */\n      iszero\n      tag_817\n      jumpi\n        /* \"#utility.yul\":22638:22717   */\n      tag_818\n      tag_523\n      jump\t// in\n    tag_818:\n        /* \"#utility.yul\":22600:22719   */\n    tag_817:\n        /* \"#utility.yul\":22758:22759   */\n      0x00\n        /* \"#utility.yul\":22783:22844   */\n      tag_819\n        /* \"#utility.yul\":22836:22843   */\n      dup5\n        /* \"#utility.yul\":22827:22833   */\n      dup3\n        /* \"#utility.yul\":22816:22825   */\n      dup6\n        /* \"#utility.yul\":22812:22834   */\n      add\n        /* \"#utility.yul\":22783:22844   */\n      tag_580\n      jump\t// in\n    tag_819:\n        /* \"#utility.yul\":22773:22844   */\n      swap2\n      pop\n        /* \"#utility.yul\":22729:22854   */\n      pop\n        /* \"#utility.yul\":22516:22861   */\n      swap3\n      swap2\n      pop\n      pop\n      jump\t// out\n        /* \"#utility.yul\":22867:23030   */\n    tag_581:\n        /* \"#utility.yul\":23007:23022   */\n      0x496e76616c69642070726f6f6600000000000000000000000000000000000000\n        /* \"#utility.yul\":23003:23004   */\n      0x00\n        /* \"#utility.yul\":22995:23001   */\n      dup3\n        /* \"#utility.yul\":22991:23005   */\n      add\n        /* \"#utility.yul\":22984:23023   */\n      mstore\n        /* \"#utility.yul\":22867:23030   */\n      pop\n      jump\t// out\n        /* \"#utility.yul\":23036:23402   */\n    tag_582:\n        /* \"#utility.yul\":23178:23181   */\n      0x00\n        /* \"#utility.yul\":23199:23266   */\n      tag_822\n        /* \"#utility.yul\":23263:23265   */\n      0x0d\n        /* \"#utility.yul\":23258:23261   */\n      dup4\n        /* \"#utility.yul\":23199:23266   */\n      tag_561\n      jump\t// in\n    tag_822:\n        /* \"#utility.yul\":23192:23266   */\n      swap2\n      pop\n        /* \"#utility.yul\":23275:23368   */\n      tag_823\n        /* \"#utility.yul\":23364:23367   */\n      dup3\n        /* \"#utility.yul\":23275:23368   */\n      tag_581\n      jump\t// in\n    tag_823:\n        /* \"#utility.yul\":23393:23395   */\n      0x20\n        /* \"#utility.yul\":23388:23391   */\n      dup3\n        /* \"#utility.yul\":23384:23396   */\n      add\n        /* \"#utility.yul\":23377:23396   */\n      swap1\n      pop\n        /* \"#utility.yul\":23036:23402   */\n      swap2\n      swap1\n      pop\n      jump\t// out\n        /* \"#utility.yul\":23408:23827   */\n    tag_205:\n        /* \"#utility.yul\":23574:23578   */\n      0x00\n        /* \"#utility.yul\":23612:23614   */\n      0x20\n        /* \"#utility.yul\":23601:23610   */\n      dup3\n        /* \"#utility.yul\":23597:23615   */\n      add\n        /* \"#utility.yul\":23589:23615   */\n      swap1\n      pop\n        /* \"#utility.yul\":23661:23670   */\n      dup2\n        /* \"#utility.yul\":23655:23659   */\n      dup2\n        /* \"#utility.yul\":23651:23671   */\n      sub\n        /* \"#utility.yul\":23647:23648   */\n      0x00\n        /* \"#utility.yul\":23636:23645   */\n      dup4\n        /* \"#utility.yul\":23632:23649   */\n      add\n        /* \"#utility.yul\":23625:23672   */\n      mstore\n        /* \"#utility.yul\":23689:23820   */\n      tag_825\n        /* \"#utility.yul\":23815:23819   */\n      dup2\n        /* \"#utility.yul\":23689:23820   */\n      tag_582\n      jump\t// in\n    tag_825:\n        /* \"#utility.yul\":23681:23820   */\n      swap1\n      pop\n        /* \"#utility.yul\":23408:23827   */\n      swap2\n      swap1\n      pop\n      jump\t// out\n        /* \"#utility.yul\":23833:24013   */\n    tag_217:\n        /* \"#utility.yul\":23881:23958   */\n      0x4e487b7100000000000000000000000000000000000000000000000000000000\n        /* \"#utility.yul\":23878:23879   */\n      0x00\n        /* \"#utility.yul\":23871:23959   */\n      mstore\n        /* \"#utility.yul\":23978:23982   */\n      0x41\n        /* \"#utility.yul\":23975:23976   */\n      0x04\n        /* \"#utility.yul\":23968:23983   */\n      mstore\n        /* \"#utility.yul\":24002:24006   */\n      0x24\n        /* \"#utility.yul\":23999:24000   */\n      0x00\n        /* \"#utility.yul\":23992:24007   */\n      revert\n        /* \"#utility.yul\":24019:24199   */\n    tag_583:\n        /* \"#utility.yul\":24067:24144   */\n      0x4e487b7100000000000000000000000000000000000000000000000000000000\n        /* \"#utility.yul\":24064:24065   */\n      0x00\n        /* \"#utility.yul\":24057:24145   */\n      mstore\n        /* \"#utility.yul\":24164:24168   */\n      0x12\n        /* \"#utility.yul\":24161:24162   */\n      0x04\n        /* \"#utility.yul\":24154:24169   */\n      mstore\n        /* \"#utility.yul\":24188:24192   */\n      0x24\n        /* \"#utility.yul\":24185:24186   */\n      0x00\n        /* \"#utility.yul\":24178:24193   */\n      revert\n        /* \"#utility.yul\":24205:24381   */\n    tag_234:\n        /* \"#utility.yul\":24237:24238   */\n      0x00\n        /* \"#utility.yul\":24254:24274   */\n      tag_829\n        /* \"#utility.yul\":24272:24273   */\n      dup3\n        /* \"#utility.yul\":24254:24274   */\n      tag_525\n      jump\t// in\n    tag_829:\n        /* \"#utility.yul\":24249:24274   */\n      swap2\n      pop\n        /* \"#utility.yul\":24288:24308   */\n      tag_830\n        /* \"#utility.yul\":24306:24307   */\n      dup4\n        /* \"#utility.yul\":24288:24308   */\n      tag_525\n      jump\t// in\n    tag_830:\n        /* \"#utility.yul\":24283:24308   */\n      swap3\n      pop\n        /* \"#utility.yul\":24327:24328   */\n      dup3\n        /* \"#utility.yul\":24317:24352   */\n      tag_831\n      jumpi\n        /* \"#utility.yul\":24332:24350   */\n      tag_832\n      tag_583\n      jump\t// in\n    tag_832:\n        /* \"#utility.yul\":24317:24352   */\n    tag_831:\n        /* \"#utility.yul\":24373:24374   */\n      dup3\n        /* \"#utility.yul\":24370:24371   */\n      dup3\n        /* \"#utility.yul\":24366:24375   */\n      mod\n        /* \"#utility.yul\":24361:24375   */\n      swap1\n      pop\n        /* \"#utility.yul\":24205:24381   */\n      swap3\n      swap2\n      pop\n      pop\n      jump\t// out\n        /* \"#utility.yul\":24387:24567   */\n    tag_584:\n        /* \"#utility.yul\":24435:24512   */\n      0x4e487b7100000000000000000000000000000000000000000000000000000000\n        /* \"#utility.yul\":24432:24433   */\n      0x00\n        /* \"#utility.yul\":24425:24513   */\n      mstore\n        /* \"#utility.yul\":24532:24536   */\n      0x11\n        /* \"#utility.yul\":24529:24530   */\n      0x04\n        /* \"#utility.yul\":24522:24537   */\n      mstore\n        /* \"#utility.yul\":24556:24560   */\n      0x24\n        /* \"#utility.yul\":24553:24554   */\n      0x00\n        /* \"#utility.yul\":24546:24561   */\n      revert\n        /* \"#utility.yul\":24573:24758   */\n    tag_238:\n        /* \"#utility.yul\":24613:24614   */\n      0x00\n        /* \"#utility.yul\":24630:24650   */\n      tag_835\n        /* \"#utility.yul\":24648:24649   */\n      dup3\n        /* \"#utility.yul\":24630:24650   */\n      tag_525\n      jump\t// in\n    tag_835:\n        /* \"#utility.yul\":24625:24650   */\n      swap2\n      pop\n        /* \"#utility.yul\":24664:24684   */\n      tag_836\n        /* \"#utility.yul\":24682:24683   */\n      dup4\n        /* \"#utility.yul\":24664:24684   */\n      tag_525\n      jump\t// in\n    tag_836:\n        /* \"#utility.yul\":24659:24684   */\n      swap3\n      pop\n        /* \"#utility.yul\":24703:24704   */\n      dup3\n        /* \"#utility.yul\":24693:24728   */\n      tag_837\n      jumpi\n        /* \"#utility.yul\":24708:24726   */\n      tag_838\n      tag_583\n      jump\t// in\n    tag_838:\n        /* \"#utility.yul\":24693:24728   */\n    tag_837:\n        /* \"#utility.yul\":24750:24751   */\n      dup3\n        /* \"#utility.yul\":24747:24748   */\n      dup3\n        /* \"#utility.yul\":24743:24752   */\n      div\n        /* \"#utility.yul\":24738:24752   */\n      swap1\n      pop\n        /* \"#utility.yul\":24573:24758   */\n      swap3\n      swap2\n      pop\n      pop\n      jump\t// out\n        /* \"#utility.yul\":24764:24936   */\n    tag_585:\n        /* \"#utility.yul\":24904:24928   */\n      0x416d6f756e742065786365656473206d6178696d756d00000000000000000000\n        /* \"#utility.yul\":24900:24901   */\n      0x00\n        /* \"#utility.yul\":24892:24898   */\n      dup3\n        /* \"#utility.yul\":24888:24902   */\n      add\n        /* \"#utility.yul\":24881:24929   */\n      mstore\n        /* \"#utility.yul\":24764:24936   */\n      pop\n      jump\t// out\n        /* \"#utility.yul\":24942:25308   */\n    tag_586:\n        /* \"#utility.yul\":25084:25087   */\n      0x00\n        /* \"#utility.yul\":25105:25172   */\n      tag_841\n        /* \"#utility.yul\":25169:25171   */\n      0x16\n        /* \"#utility.yul\":25164:25167   */\n      dup4\n        /* \"#utility.yul\":25105:25172   */\n      tag_561\n      jump\t// in\n    tag_841:\n        /* \"#utility.yul\":25098:25172   */\n      swap2\n      pop\n        /* \"#utility.yul\":25181:25274   */\n      tag_842\n        /* \"#utility.yul\":25270:25273   */\n      dup3\n        /* \"#utility.yul\":25181:25274   */\n      tag_585\n      jump\t// in\n    tag_842:\n        /* \"#utility.yul\":25299:25301   */\n      0x20\n        /* \"#utility.yul\":25294:25297   */\n      dup3\n        /* \"#utility.yul\":25290:25302   */\n      add\n        /* \"#utility.yul\":25283:25302   */\n      swap1\n      pop\n        /* \"#utility.yul\":24942:25308   */\n      swap2\n      swap1\n      pop\n      jump\t// out\n        /* \"#utility.yul\":25314:25733   */\n    tag_252:\n        /* \"#utility.yul\":25480:25484   */\n      0x00\n        /* \"#utility.yul\":25518:25520   */\n      0x20\n        /* \"#utility.yul\":25507:25516   */\n      dup3\n        /* \"#utility.yul\":25503:25521   */\n      add\n        /* \"#utility.yul\":25495:25521   */\n      swap1\n      pop\n        /* \"#utility.yul\":25567:25576   */\n      dup2\n        /* \"#utility.yul\":25561:25565   */\n      dup2\n        /* \"#utility.yul\":25557:25577   */\n      sub\n        /* \"#utility.yul\":25553:25554   */\n      0x00\n        /* \"#utility.yul\":25542:25551   */\n      dup4\n        /* \"#utility.yul\":25538:25555   */\n      add\n        /* \"#utility.yul\":25531:25578   */\n      mstore\n        /* \"#utility.yul\":25595:25726   */\n      tag_844\n        /* \"#utility.yul\":25721:25725   */\n      dup2\n        /* \"#utility.yul\":25595:25726   */\n      tag_586\n      jump\t// in\n    tag_844:\n        /* \"#utility.yul\":25587:25726   */\n      swap1\n      pop\n        /* \"#utility.yul\":25314:25733   */\n      swap2\n      swap1\n      pop\n      jump\t// out\n        /* \"#utility.yul\":25739:25906   */\n    tag_587:\n        /* \"#utility.yul\":25879:25898   */\n      0x436f6d6d69746d656e7420657869737473000000000000000000000000000000\n        /* \"#utility.yul\":25875:25876   */\n      0x00\n        /* \"#utility.yul\":25867:25873   */\n      dup3\n        /* \"#utility.yul\":25863:25877   */\n      add\n        /* \"#utility.yul\":25856:25899   */\n      mstore\n        /* \"#utility.yul\":25739:25906   */\n      pop\n      jump\t// out\n        /* \"#utility.yul\":25912:26278   */\n    tag_588:\n        /* \"#utility.yul\":26054:26057   */\n      0x00\n        /* \"#utility.yul\":26075:26142   */\n      tag_847\n        /* \"#utility.yul\":26139:26141   */\n      0x11\n        /* \"#utility.yul\":26134:26137   */\n      dup4\n        /* \"#utility.yul\":26075:26142   */\n      tag_561\n      jump\t// in\n    tag_847:\n        /* \"#utility.yul\":26068:26142   */\n      swap2\n      pop\n        /* \"#utility.yul\":26151:26244   */\n      tag_848\n        /* \"#utility.yul\":26240:26243   */\n      dup3\n        /* \"#utility.yul\":26151:26244   */\n      tag_587\n      jump\t// in\n    tag_848:\n        /* \"#utility.yul\":26269:26271   */\n      0x20\n        /* \"#utility.yul\":26264:26267   */\n      dup3\n        /* \"#utility.yul\":26260:26272   */\n      add\n        /* \"#utility.yul\":26253:26272   */\n      swap1\n      pop\n        /* \"#utility.yul\":25912:26278   */\n      swap2\n      swap1\n      pop\n      jump\t// out\n        /* \"#utility.yul\":26284:26703   */\n    tag_255:\n        /* \"#utility.yul\":26450:26454   */\n      0x00\n        /* \"#utility.yul\":26488:26490   */\n      0x20\n        /* \"#utility.yul\":26477:26486   */\n      dup3\n        /* \"#utility.yul\":26473:26491   */\n      add\n        /* \"#utility.yul\":26465:26491   */\n      swap1\n      pop\n        /* \"#utility.yul\":26537:26546   */\n      dup2\n        /* \"#utility.yul\":26531:26535   */\n      dup2\n        /* \"#utility.yul\":26527:26547   */\n      sub\n        /* \"#utility.yul\":26523:26524   */\n      0x00\n        /* \"#utility.yul\":26512:26521   */\n      dup4\n        /* \"#utility.yul\":26508:26525   */\n      add\n        /* \"#utility.yul\":26501:26548   */\n      mstore\n        /* \"#utility.yul\":26565:26696   */\n      tag_850\n        /* \"#utility.yul\":26691:26695   */\n      dup2\n        /* \"#utility.yul\":26565:26696   */\n      tag_588\n      jump\t// in\n    tag_850:\n        /* \"#utility.yul\":26557:26696   */\n      swap1\n      pop\n        /* \"#utility.yul\":26284:26703   */\n      swap2\n      swap1\n      pop\n      jump\t// out\n        /* \"#utility.yul\":26709:27151   */\n    tag_263:\n        /* \"#utility.yul\":26858:26862   */\n      0x00\n        /* \"#utility.yul\":26896:26898   */\n      0x60\n        /* \"#utility.yul\":26885:26894   */\n      dup3\n        /* \"#utility.yul\":26881:26899   */\n      add\n        /* \"#utility.yul\":26873:26899   */\n      swap1\n      pop\n        /* \"#utility.yul\":26909:26980   */\n      tag_852\n        /* \"#utility.yul\":26977:26978   */\n      0x00\n        /* \"#utility.yul\":26966:26975   */\n      dup4\n        /* \"#utility.yul\":26962:26979   */\n      add\n        /* \"#utility.yul\":26953:26959   */\n      dup7\n        /* \"#utility.yul\":26909:26980   */\n      tag_560\n      jump\t// in\n    tag_852:\n        /* \"#utility.yul\":26990:27062   */\n      tag_853\n        /* \"#utility.yul\":27058:27060   */\n      0x20\n        /* \"#utility.yul\":27047:27056   */\n      dup4\n        /* \"#utility.yul\":27043:27061   */\n      add\n        /* \"#utility.yul\":27034:27040   */\n      dup6\n        /* \"#utility.yul\":26990:27062   */\n      tag_560\n      jump\t// in\n    tag_853:\n        /* \"#utility.yul\":27072:27144   */\n      tag_854\n        /* \"#utility.yul\":27140:27142   */\n      0x40\n        /* \"#utility.yul\":27129:27138   */\n      dup4\n        /* \"#utility.yul\":27125:27143   */\n      add\n        /* \"#utility.yul\":27116:27122   */\n      dup5\n        /* \"#utility.yul\":27072:27144   */\n      tag_528\n      jump\t// in\n    tag_854:\n        /* \"#utility.yul\":26709:27151   */\n      swap5\n      swap4\n      pop\n      pop\n      pop\n      pop\n      jump\t// out\n        /* \"#utility.yul\":27157:27259   */\n    tag_589:\n        /* \"#utility.yul\":27199:27207   */\n      0x00\n        /* \"#utility.yul\":27246:27251   */\n      dup2\n        /* \"#utility.yul\":27243:27244   */\n      0x01\n        /* \"#utility.yul\":27239:27252   */\n      shr\n        /* \"#utility.yul\":27218:27252   */\n      swap1\n      pop\n        /* \"#utility.yul\":27157:27259   */\n      swap2\n      swap1\n      pop\n      jump\t// out\n        /* \"#utility.yul\":27265:28113   */\n    tag_590:\n        /* \"#utility.yul\":27326:27331   */\n      0x00\n        /* \"#utility.yul\":27333:27337   */\n      dup1\n        /* \"#utility.yul\":27357:27363   */\n      dup3\n        /* \"#utility.yul\":27348:27363   */\n      swap2\n      pop\n        /* \"#utility.yul\":27381:27386   */\n      dup4\n        /* \"#utility.yul\":27372:27386   */\n      swap1\n      pop\n        /* \"#utility.yul\":27395:28107   */\n    tag_857:\n        /* \"#utility.yul\":27416:27417   */\n      0x01\n        /* \"#utility.yul\":27406:27414   */\n      dup6\n        /* \"#utility.yul\":27403:27418   */\n      gt\n        /* \"#utility.yul\":27395:28107   */\n      iszero\n      tag_859\n      jumpi\n        /* \"#utility.yul\":27511:27515   */\n      dup1\n        /* \"#utility.yul\":27506:27509   */\n      dup7\n        /* \"#utility.yul\":27502:27516   */\n      div\n        /* \"#utility.yul\":27496:27500   */\n      dup2\n        /* \"#utility.yul\":27493:27517   */\n      gt\n        /* \"#utility.yul\":27490:27540   */\n      iszero\n      tag_860\n      jumpi\n        /* \"#utility.yul\":27520:27538   */\n      tag_861\n      tag_584\n      jump\t// in\n    tag_861:\n        /* \"#utility.yul\":27490:27540   */\n    tag_860:\n        /* \"#utility.yul\":27570:27571   */\n      0x01\n        /* \"#utility.yul\":27560:27568   */\n      dup6\n        /* \"#utility.yul\":27556:27572   */\n      and\n        /* \"#utility.yul\":27553:28004   */\n      iszero\n      tag_862\n      jumpi\n        /* \"#utility.yul\":27985:27989   */\n      dup1\n        /* \"#utility.yul\":27978:27983   */\n      dup3\n        /* \"#utility.yul\":27974:27990   */\n      mul\n        /* \"#utility.yul\":27965:27990   */\n      swap2\n      pop\n        /* \"#utility.yul\":27553:28004   */\n    tag_862:\n        /* \"#utility.yul\":28035:28039   */\n      dup1\n        /* \"#utility.yul\":28029:28033   */\n      dup2\n        /* \"#utility.yul\":28025:28040   */\n      mul\n        /* \"#utility.yul\":28017:28040   */\n      swap1\n      pop\n        /* \"#utility.yul\":28065:28097   */\n      tag_863\n        /* \"#utility.yul\":28088:28096   */\n      dup6\n        /* \"#utility.yul\":28065:28097   */\n      tag_589\n      jump\t// in\n    tag_863:\n        /* \"#utility.yul\":28053:28097   */\n      swap5\n      pop\n        /* \"#utility.yul\":27395:28107   */\n      jump(tag_857)\n    tag_859:\n        /* \"#utility.yul\":27265:28113   */\n      swap5\n      pop\n      swap5\n      swap3\n      pop\n      pop\n      pop\n      jump\t// out\n        /* \"#utility.yul\":28119:29192   */\n    tag_591:\n        /* \"#utility.yul\":28173:28178   */\n      0x00\n        /* \"#utility.yul\":28364:28372   */\n      dup3\n        /* \"#utility.yul\":28354:28394   */\n      tag_865\n      jumpi\n        /* \"#utility.yul\":28385:28386   */\n      0x01\n        /* \"#utility.yul\":28376:28386   */\n      swap1\n      pop\n        /* \"#utility.yul\":28387:28392   */\n      jump(tag_864)\n        /* \"#utility.yul\":28354:28394   */\n    tag_865:\n        /* \"#utility.yul\":28413:28417   */\n      dup2\n        /* \"#utility.yul\":28403:28439   */\n      tag_866\n      jumpi\n        /* \"#utility.yul\":28430:28431   */\n      0x00\n        /* \"#utility.yul\":28421:28431   */\n      swap1\n      pop\n        /* \"#utility.yul\":28432:28437   */\n      jump(tag_864)\n        /* \"#utility.yul\":28403:28439   */\n    tag_866:\n        /* \"#utility.yul\":28499:28503   */\n      dup2\n        /* \"#utility.yul\":28547:28548   */\n      0x01\n        /* \"#utility.yul\":28542:28569   */\n      dup2\n      eq\n      tag_868\n      jumpi\n        /* \"#utility.yul\":28583:28584   */\n      0x02\n        /* \"#utility.yul\":28578:28769   */\n      dup2\n      eq\n      tag_869\n      jumpi\n        /* \"#utility.yul\":28492:28769   */\n      jump(tag_867)\n        /* \"#utility.yul\":28542:28569   */\n    tag_868:\n        /* \"#utility.yul\":28560:28561   */\n      0x01\n        /* \"#utility.yul\":28551:28561   */\n      swap2\n      pop\n        /* \"#utility.yul\":28562:28567   */\n      pop\n      jump(tag_864)\n        /* \"#utility.yul\":28578:28769   */\n    tag_869:\n        /* \"#utility.yul\":28623:28626   */\n      0xff\n        /* \"#utility.yul\":28613:28621   */\n      dup5\n        /* \"#utility.yul\":28610:28627   */\n      gt\n        /* \"#utility.yul\":28607:28650   */\n      iszero\n      tag_870\n      jumpi\n        /* \"#utility.yul\":28630:28648   */\n      tag_871\n      tag_584\n      jump\t// in\n    tag_871:\n        /* \"#utility.yul\":28607:28650   */\n    tag_870:\n        /* \"#utility.yul\":28679:28687   */\n      dup4\n        /* \"#utility.yul\":28676:28677   */\n      0x02\n        /* \"#utility.yul\":28672:28688   */\n      exp\n        /* \"#utility.yul\":28663:28688   */\n      swap2\n      pop\n        /* \"#utility.yul\":28714:28717   */\n      dup5\n        /* \"#utility.yul\":28707:28712   */\n      dup3\n        /* \"#utility.yul\":28704:28718   */\n      gt\n        /* \"#utility.yul\":28701:28741   */\n      iszero\n      tag_872\n      jumpi\n        /* \"#utility.yul\":28721:28739   */\n      tag_873\n      tag_584\n      jump\t// in\n    tag_873:\n        /* \"#utility.yul\":28701:28741   */\n    tag_872:\n        /* \"#utility.yul\":28754:28759   */\n      pop\n      jump(tag_864)\n        /* \"#utility.yul\":28492:28769   */\n    tag_867:\n      pop\n        /* \"#utility.yul\":28878:28880   */\n      0x20\n        /* \"#utility.yul\":28868:28876   */\n      dup4\n        /* \"#utility.yul\":28865:28881   */\n      lt\n        /* \"#utility.yul\":28859:28862   */\n      0x0133\n        /* \"#utility.yul\":28853:28857   */\n      dup4\n        /* \"#utility.yul\":28850:28863   */\n      lt\n        /* \"#utility.yul\":28846:28882   */\n      and\n        /* \"#utility.yul\":28828:28830   */\n      0x4e\n        /* \"#utility.yul\":28818:28826   */\n      dup5\n        /* \"#utility.yul\":28815:28831   */\n      lt\n        /* \"#utility.yul\":28810:28812   */\n      0x0b\n        /* \"#utility.yul\":28804:28808   */\n      dup5\n        /* \"#utility.yul\":28801:28813   */\n      lt\n        /* \"#utility.yul\":28797:28832   */\n      and\n        /* \"#utility.yul\":28781:28892   */\n      or\n        /* \"#utility.yul\":28778:29024   */\n      iszero\n      tag_874\n      jumpi\n        /* \"#utility.yul\":28934:28942   */\n      dup3\n        /* \"#utility.yul\":28928:28932   */\n      dup3\n        /* \"#utility.yul\":28924:28943   */\n      exp\n        /* \"#utility.yul\":28915:28943   */\n      swap1\n      pop\n        /* \"#utility.yul\":28969:28972   */\n      dup4\n        /* \"#utility.yul\":28962:28967   */\n      dup2\n        /* \"#utility.yul\":28959:28973   */\n      gt\n        /* \"#utility.yul\":28956:28996   */\n      iszero\n      tag_875\n      jumpi\n        /* \"#utility.yul\":28976:28994   */\n      tag_876\n      tag_584\n      jump\t// in\n    tag_876:\n        /* \"#utility.yul\":28956:28996   */\n    tag_875:\n        /* \"#utility.yul\":29009:29014   */\n      jump(tag_864)\n        /* \"#utility.yul\":28778:29024   */\n    tag_874:\n        /* \"#utility.yul\":29049:29091   */\n      tag_877\n        /* \"#utility.yul\":29087:29090   */\n      dup5\n        /* \"#utility.yul\":29077:29085   */\n      dup5\n        /* \"#utility.yul\":29071:29075   */\n      dup5\n        /* \"#utility.yul\":29068:29069   */\n      0x01\n        /* \"#utility.yul\":29049:29091   */\n      tag_590\n      jump\t// in\n    tag_877:\n        /* \"#utility.yul\":29034:29091   */\n      swap3\n      pop\n      swap1\n      pop\n        /* \"#utility.yul\":29123:29127   */\n      dup2\n        /* \"#utility.yul\":29118:29121   */\n      dup5\n        /* \"#utility.yul\":29114:29128   */\n      div\n        /* \"#utility.yul\":29107:29112   */\n      dup2\n        /* \"#utility.yul\":29104:29129   */\n      gt\n        /* \"#utility.yul\":29101:29152   */\n      iszero\n      tag_878\n      jumpi\n        /* \"#utility.yul\":29132:29150   */\n      tag_879\n      tag_584\n      jump\t// in\n    tag_879:\n        /* \"#utility.yul\":29101:29152   */\n    tag_878:\n        /* \"#utility.yul\":29181:29185   */\n      dup2\n        /* \"#utility.yul\":29174:29179   */\n      dup2\n        /* \"#utility.yul\":29170:29186   */\n      mul\n        /* \"#utility.yul\":29161:29186   */\n      swap1\n      pop\n        /* \"#utility.yul\":28119:29192   */\n    tag_864:\n      swap4\n      swap3\n      pop\n      pop\n      pop\n      jump\t// out\n        /* \"#utility.yul\":29198:29483   */\n    tag_286:\n        /* \"#utility.yul\":29258:29263   */\n      0x00\n        /* \"#utility.yul\":29282:29305   */\n      tag_881\n        /* \"#utility.yul\":29300:29304   */\n      dup3\n        /* \"#utility.yul\":29282:29305   */\n      tag_525\n      jump\t// in\n    tag_881:\n        /* \"#utility.yul\":29274:29305   */\n      swap2\n      pop\n        /* \"#utility.yul\":29326:29353   */\n      tag_882\n        /* \"#utility.yul\":29344:29352   */\n      dup4\n        /* \"#utility.yul\":29326:29353   */\n      tag_525\n      jump\t// in\n    tag_882:\n        /* \"#utility.yul\":29314:29353   */\n      swap3\n      pop\n        /* \"#utility.yul\":29372:29476   */\n      tag_883\n        /* \"#utility.yul\":29409:29475   */\n      0xffffffffffffffffffffffffffffffffffffffffffffffffffffffffffffffff\n        /* \"#utility.yul\":29399:29407   */\n      dup5\n        /* \"#utility.yul\":29393:29397   */\n      dup5\n        /* \"#utility.yul\":29372:29476   */\n      tag_591\n      jump\t// in\n    tag_883:\n        /* \"#utility.yul\":29363:29476   */\n      swap1\n      pop\n        /* \"#utility.yul\":29198:29483   */\n      swap3\n      swap2\n      pop\n      pop\n      jump\t// out\n        /* \"#utility.yul\":29489:29658   */\n    tag_592:\n        /* \"#utility.yul\":29629:29650   */\n      0x496e646578206f7574206f6620626f756e647300000000000000000000000000\n        /* \"#utility.yul\":29625:29626   */\n      0x00\n        /* \"#utility.yul\":29617:29623   */\n      dup3\n        /* \"#utility.yul\":29613:29627   */\n      add\n        /* \"#utility.yul\":29606:29651   */\n      mstore\n        /* \"#utility.yul\":29489:29658   */\n      pop\n      jump\t// out\n        /* \"#utility.yul\":29664:30030   */\n    tag_593:\n        /* \"#utility.yul\":29806:29809   */\n      0x00\n        /* \"#utility.yul\":29827:29894   */\n      tag_886\n        /* \"#utility.yul\":29891:29893   */\n      0x13\n        /* \"#utility.yul\":29886:29889   */\n      dup4\n        /* \"#utility.yul\":29827:29894   */\n      tag_561\n      jump\t// in\n    tag_886:\n        /* \"#utility.yul\":29820:29894   */\n      swap2\n      pop\n        /* \"#utility.yul\":29903:29996   */\n      tag_887\n        /* \"#utility.yul\":29992:29995   */\n      dup3\n        /* \"#utility.yul\":29903:29996   */\n      tag_592\n      jump\t// in\n    tag_887:\n        /* \"#utility.yul\":30021:30023   */\n      0x20\n        /* \"#utility.yul\":30016:30019   */\n      dup3\n        /* \"#utility.yul\":30012:30024   */\n      add\n        /* \"#utility.yul\":30005:30024   */\n      swap1\n      pop\n        /* \"#utility.yul\":29664:30030   */\n      swap2\n      swap1\n      pop\n      jump\t// out\n        /* \"#utility.yul\":30036:30455   */\n    tag_289:\n        /* \"#utility.yul\":30202:30206   */\n      0x00\n        /* \"#utility.yul\":30240:30242   */\n      0x20\n        /* \"#utility.yul\":30229:30238   */\n      dup3\n        /* \"#utility.yul\":30225:30243   */\n      add\n        /* \"#utility.yul\":30217:30243   */\n      swap1\n      pop\n        /* \"#utility.yul\":30289:30298   */\n      dup2\n        /* \"#utility.yul\":30283:30287   */\n      dup2\n        /* \"#utility.yul\":30279:30299   */\n      sub\n        /* \"#utility.yul\":30275:30276   */\n      0x00\n        /* \"#utility.yul\":30264:30273   */\n      dup4\n        /* \"#utility.yul\":30260:30277   */\n      add\n        /* \"#utility.yul\":30253:30300   */\n      mstore\n        /* \"#utility.yul\":30317:30448   */\n      tag_889\n        /* \"#utility.yul\":30443:30447   */\n      dup2\n        /* \"#utility.yul\":30317:30448   */\n      tag_593\n      jump\t// in\n    tag_889:\n        /* \"#utility.yul\":30309:30448   */\n      swap1\n      pop\n        /* \"#utility.yul\":30036:30455   */\n      swap2\n      swap1\n      pop\n      jump\t// out\n        /* \"#utility.yul\":30461:30540   */\n    tag_594:\n        /* \"#utility.yul\":30500:30507   */\n      0x00\n        /* \"#utility.yul\":30529:30534   */\n      dup2\n        /* \"#utility.yul\":30518:30534   */\n      swap1\n      pop\n        /* \"#utility.yul\":30461:30540   */\n      swap2\n      swap1\n      pop\n      jump\t// out\n        /* \"#utility.yul\":30546:30703   */\n    tag_595:\n        /* \"#utility.yul\":30651:30696   */\n      tag_892\n        /* \"#utility.yul\":30671:30695   */\n      tag_893\n        /* \"#utility.yul\":30689:30694   */\n      dup3\n        /* \"#utility.yul\":30671:30695   */\n      tag_529\n      jump\t// in\n    tag_893:\n        /* \"#utility.yul\":30651:30696   */\n      tag_594\n      jump\t// in\n    tag_892:\n        /* \"#utility.yul\":30646:30649   */\n      dup3\n        /* \"#utility.yul\":30639:30697   */\n      mstore\n        /* \"#utility.yul\":30546:30703   */\n      pop\n      pop\n      jump\t// out\n        /* \"#utility.yul\":30709:31106   */\n    tag_298:\n        /* \"#utility.yul\":30849:30852   */\n      0x00\n        /* \"#utility.yul\":30864:30939   */\n      tag_895\n        /* \"#utility.yul\":30935:30938   */\n      dup3\n        /* \"#utility.yul\":30926:30932   */\n      dup6\n        /* \"#utility.yul\":30864:30939   */\n      tag_595\n      jump\t// in\n    tag_895:\n        /* \"#utility.yul\":30964:30966   */\n      0x20\n        /* \"#utility.yul\":30959:30962   */\n      dup3\n        /* \"#utility.yul\":30955:30967   */\n      add\n        /* \"#utility.yul\":30948:30967   */\n      swap2\n      pop\n        /* \"#utility.yul\":30977:31052   */\n      tag_896\n        /* \"#utility.yul\":31048:31051   */\n      dup3\n        /* \"#utility.yul\":31039:31045   */\n      dup5\n        /* \"#utility.yul\":30977:31052   */\n      tag_595\n      jump\t// in\n    tag_896:\n        /* \"#utility.yul\":31077:31079   */\n      0x20\n        /* \"#utility.yul\":31072:31075   */\n      dup3\n        /* \"#utility.yul\":31068:31080   */\n      add\n        /* \"#utility.yul\":31061:31080   */\n      swap2\n      pop\n        /* \"#utility.yul\":31097:31100   */\n      dup2\n        /* \"#utility.yul\":31090:31100   */\n      swap1\n      pop\n        /* \"#utility.yul\":30709:31106   */\n      swap4\n      swap3\n      pop\n      pop\n      pop\n      jump\t// out\n        /* \"#utility.yul\":31112:31303   */\n    tag_301:\n        /* \"#utility.yul\":31152:31155   */\n      0x00\n        /* \"#utility.yul\":31171:31191   */\n      tag_898\n        /* \"#utility.yul\":31189:31190   */\n      dup3\n        /* \"#utility.yul\":31171:31191   */\n      tag_525\n      jump\t// in\n    tag_898:\n        /* \"#utility.yul\":31166:31191   */\n      swap2\n      pop\n        /* \"#utility.yul\":31205:31225   */\n      tag_899\n        /* \"#utility.yul\":31223:31224   */\n      dup4\n        /* \"#utility.yul\":31205:31225   */\n      tag_525\n      jump\t// in\n    tag_899:\n        /* \"#utility.yul\":31200:31225   */\n      swap3\n      pop\n        /* \"#utility.yul\":31248:31249   */\n      dup3\n        /* \"#utility.yul\":31245:31246   */\n      dup3\n        /* \"#utility.yul\":31241:31250   */\n      add\n        /* \"#utility.yul\":31234:31250   */\n      swap1\n      pop\n        /* \"#utility.yul\":31269:31272   */\n      dup1\n        /* \"#utility.yul\":31266:31267   */\n      dup3\n        /* \"#utility.yul\":31263:31273   */\n      gt\n        /* \"#utility.yul\":31260:31296   */\n      iszero\n      tag_900\n      jumpi\n        /* \"#utility.yul\":31276:31294   */\n      tag_901\n      tag_584\n      jump\t// in\n    tag_901:\n        /* \"#utility.yul\":31260:31296   */\n    tag_900:\n        /* \"#utility.yul\":31112:31303   */\n      swap3\n      swap2\n      pop\n      pop\n      jump\t// out\n        /* \"#utility.yul\":31309:31479   */\n    tag_596:\n        /* \"#utility.yul\":31449:31471   */\n      0x496e76616c696420696e707574206c656e677468000000000000000000000000\n        /* \"#utility.yul\":31445:31446   */\n      0x00\n        /* \"#utility.yul\":31437:31443   */\n      dup3\n        /* \"#utility.yul\":31433:31447   */\n      add\n        /* \"#utility.yul\":31426:31472   */\n      mstore\n        /* \"#utility.yul\":31309:31479   */\n      pop\n      jump\t// out\n        /* \"#utility.yul\":31485:31851   */\n    tag_597:\n        /* \"#utility.yul\":31627:31630   */\n      0x00\n        /* \"#utility.yul\":31648:31715   */\n      tag_904\n        /* \"#utility.yul\":31712:31714   */\n      0x14\n        /* \"#utility.yul\":31707:31710   */\n      dup4\n        /* \"#utility.yul\":31648:31715   */\n      tag_561\n      jump\t// in\n    tag_904:\n        /* \"#utility.yul\":31641:31715   */\n      swap2\n      pop\n        /* \"#utility.yul\":31724:31817   */\n      tag_905\n        /* \"#utility.yul\":31813:31816   */\n      dup3\n        /* \"#utility.yul\":31724:31817   */\n      tag_596\n      jump\t// in\n    tag_905:\n        /* \"#utility.yul\":31842:31844   */\n      0x20\n        /* \"#utility.yul\":31837:31840   */\n      dup3\n        /* \"#utility.yul\":31833:31845   */\n      add\n        /* \"#utility.yul\":31826:31845   */\n      swap1\n      pop\n        /* \"#utility.yul\":31485:31851   */\n      swap2\n      swap1\n      pop\n      jump\t// out\n        /* \"#utility.yul\":31857:32276   */\n    tag_304:\n        /* \"#utility.yul\":32023:32027   */\n      0x00\n        /* \"#utility.yul\":32061:32063   */\n      0x20\n        /* \"#utility.yul\":32050:32059   */\n      dup3\n        /* \"#utility.yul\":32046:32064   */\n      add\n        /* \"#utility.yul\":32038:32064   */\n      swap1\n      pop\n        /* \"#utility.yul\":32110:32119   */\n      dup2\n        /* \"#utility.yul\":32104:32108   */\n      dup2\n        /* \"#utility.yul\":32100:32120   */\n      sub\n        /* \"#utility.yul\":32096:32097   */\n      0x00\n        /* \"#utility.yul\":32085:32094   */\n      dup4\n        /* \"#utility.yul\":32081:32098   */\n      add\n        /* \"#utility.yul\":32074:32121   */\n      mstore\n        /* \"#utility.yul\":32138:32269   */\n      tag_907\n        /* \"#utility.yul\":32264:32268   */\n      dup2\n        /* \"#utility.yul\":32138:32269   */\n      tag_597\n      jump\t// in\n    tag_907:\n        /* \"#utility.yul\":32130:32269   */\n      swap1\n      pop\n        /* \"#utility.yul\":31857:32276   */\n      swap2\n      swap1\n      pop\n      jump\t// out\n        /* \"#utility.yul\":32282:32692   */\n    tag_365:\n        /* \"#utility.yul\":32322:32329   */\n      0x00\n        /* \"#utility.yul\":32345:32365   */\n      tag_909\n        /* \"#utility.yul\":32363:32364   */\n      dup3\n        /* \"#utility.yul\":32345:32365   */\n      tag_525\n      jump\t// in\n    tag_909:\n        /* \"#utility.yul\":32340:32365   */\n      swap2\n      pop\n        /* \"#utility.yul\":32379:32399   */\n      tag_910\n        /* \"#utility.yul\":32397:32398   */\n      dup4\n        /* \"#utility.yul\":32379:32399   */\n      tag_525\n      jump\t// in\n    tag_910:\n        /* \"#utility.yul\":32374:32399   */\n      swap3\n      pop\n        /* \"#utility.yul\":32434:32435   */\n      dup3\n        /* \"#utility.yul\":32431:32432   */\n      dup3\n        /* \"#utility.yul\":32427:32436   */\n      mul\n        /* \"#utility.yul\":32456:32486   */\n      tag_911\n        /* \"#utility.yul\":32474:32485   */\n      dup2\n        /* \"#utility.yul\":32456:32486   */\n      tag_525\n      jump\t// in\n    tag_911:\n        /* \"#utility.yul\":32445:32486   */\n      swap2\n      pop\n        /* \"#utility.yul\":32635:32636   */\n      dup3\n        /* \"#utility.yul\":32626:32633   */\n      dup3\n        /* \"#utility.yul\":32622:32637   */\n      div\n        /* \"#utility.yul\":32619:32620   */\n      dup5\n        /* \"#utility.yul\":32616:32638   */\n      eq\n        /* \"#utility.yul\":32596:32597   */\n      dup4\n        /* \"#utility.yul\":32589:32598   */\n      iszero\n        /* \"#utility.yul\":32569:32652   */\n      or\n        /* \"#utility.yul\":32546:32685   */\n      tag_912\n      jumpi\n        /* \"#utility.yul\":32665:32683   */\n      tag_913\n      tag_584\n      jump\t// in\n    tag_913:\n        /* \"#utility.yul\":32546:32685   */\n    tag_912:\n        /* \"#utility.yul\":32330:32692   */\n      pop\n        /* \"#utility.yul\":32282:32692   */\n      swap3\n      swap2\n      pop\n      pop\n      jump\t// out\n        /* \"#utility.yul\":32698:32868   */\n    tag_598:\n        /* \"#utility.yul\":32838:32860   */\n      0x50616972696e6720636865636b206661696c6564000000000000000000000000\n        /* \"#utility.yul\":32834:32835   */\n      0x00\n        /* \"#utility.yul\":32826:32832   */\n      dup3\n        /* \"#utility.yul\":32822:32836   */\n      add\n        /* \"#utility.yul\":32815:32861   */\n      mstore\n        /* \"#utility.yul\":32698:32868   */\n      pop\n      jump\t// out\n        /* \"#utility.yul\":32874:33240   */\n    tag_599:\n        /* \"#utility.yul\":33016:33019   */\n      0x00\n        /* \"#utility.yul\":33037:33104   */\n      tag_916\n        /* \"#utility.yul\":33101:33103   */\n      0x14\n        /* \"#utility.yul\":33096:33099   */\n      dup4\n        /* \"#utility.yul\":33037:33104   */\n      tag_561\n      jump\t// in\n    tag_916:\n        /* \"#utility.yul\":33030:33104   */\n      swap2\n      pop\n        /* \"#utility.yul\":33113:33206   */\n      tag_917\n        /* \"#utility.yul\":33202:33205   */\n      dup3\n        /* \"#utility.yul\":33113:33206   */\n      tag_598\n      jump\t// in\n    tag_917:\n        /* \"#utility.yul\":33231:33233   */\n      0x20\n        /* \"#utility.yul\":33226:33229   */\n      dup3\n        /* \"#utility.yul\":33222:33234   */\n      add\n        /* \"#utility.yul\":33215:33234   */\n      swap1\n      pop\n        /* \"#utility.yul\":32874:33240   */\n      swap2\n      swap1\n      pop\n      jump\t// out\n        /* \"#utility.yul\":33246:33665   */\n    tag_502:\n        /* \"#utility.yul\":33412:33416   */\n      0x00\n        /* \"#utility.yul\":33450:33452   */\n      0x20\n        /* \"#utility.yul\":33439:33448   */\n      dup3\n        /* \"#utility.yul\":33435:33453   */\n      add\n        /* \"#utility.yul\":33427:33453   */\n      swap1\n      pop\n        /* \"#utility.yul\":33499:33508   */\n      dup2\n        /* \"#utility.yul\":33493:33497   */\n      dup2\n        /* \"#utility.yul\":33489:33509   */\n      sub\n        /* \"#utility.yul\":33485:33486   */\n      0x00\n        /* \"#utility.yul\":33474:33483   */\n      dup4\n        /* \"#utility.yul\":33470:33487   */\n      add\n        /* \"#utility.yul\":33463:33510   */\n      mstore\n        /* \"#utility.yul\":33527:33658   */\n      tag_919\n        /* \"#utility.yul\":33653:33657   */\n      dup2\n        /* \"#utility.yul\":33527:33658   */\n      tag_599\n      jump\t// in\n    tag_919:\n        /* \"#utility.yul\":33519:33658   */\n      swap1\n      pop\n        /* \"#utility.yul\":33246:33665   */\n      swap2\n      swap1\n      pop\n      jump\t// out\n        /* \"#utility.yul\":33671:33837   */\n    tag_600:\n        /* \"#utility.yul\":33811:33829   */\n      0x4d65726b6c6520747265652066756c6c00000000000000000000000000000000\n        /* \"#utility.yul\":33807:33808   */\n      0x00\n        /* \"#utility.yul\":33799:33805   */\n      dup3\n        /* \"#utility.yul\":33795:33809   */\n      add\n        /* \"#utility.yul\":33788:33830   */\n      mstore\n        /* \"#utility.yul\":33671:33837   */\n      pop\n      jump\t// out\n        /* \"#utility.yul\":33843:34209   */\n    tag_601:\n        /* \"#utility.yul\":33985:33988   */\n      0x00\n        /* \"#utility.yul\":34006:34073   */\n      tag_922\n        /* \"#utility.yul\":34070:34072   */\n      0x10\n        /* \"#utility.yul\":34065:34068   */\n      dup4\n        /* \"#utility.yul\":34006:34073   */\n      tag_561\n      jump\t// in\n    tag_922:\n        /* \"#utility.yul\":33999:34073   */\n      swap2\n      pop\n        /* \"#utility.yul\":34082:34175   */\n      tag_923\n        /* \"#utility.yul\":34171:34174   */\n      dup3\n        /* \"#utility.yul\":34082:34175   */\n      tag_600\n      jump\t// in\n    tag_923:\n        /* \"#utility.yul\":34200:34202   */\n      0x20\n        /* \"#utility.yul\":34195:34198   */\n      dup3\n        /* \"#utility.yul\":34191:34203   */\n      add\n        /* \"#utility.yul\":34184:34203   */\n      swap1\n      pop\n        /* \"#utility.yul\":33843:34209   */\n      swap2\n      swap1\n      pop\n      jump\t// out\n        /* \"#utility.yul\":34215:34634   */\n    tag_509:\n        /* \"#utility.yul\":34381:34385   */\n      0x00\n        /* \"#utility.yul\":34419:34421   */\n      0x20\n        /* \"#utility.yul\":34408:34417   */\n      dup3\n        /* \"#utility.yul\":34404:34422   */\n      add\n        /* \"#utility.yul\":34396:34422   */\n      swap1\n      pop\n        /* \"#utility.yul\":34468:34477   */\n      dup2\n        /* \"#utility.yul\":34462:34466   */\n      dup2\n        /* \"#utility.yul\":34458:34478   */\n      sub\n        /* \"#utility.yul\":34454:34455   */\n      0x00\n        /* \"#utility.yul\":34443:34452   */\n      dup4\n        /* \"#utility.yul\":34439:34456   */\n      add\n        /* \"#utility.yul\":34432:34479   */\n      mstore\n        /* \"#utility.yul\":34496:34627   */\n      tag_925\n        /* \"#utility.yul\":34622:34626   */\n      dup2\n        /* \"#utility.yul\":34496:34627   */\n      tag_601\n      jump\t// in\n    tag_925:\n        /* \"#utility.yul\":34488:34627   */\n      swap1\n      pop\n        /* \"#utility.yul\":34215:34634   */\n      swap2\n      swap1\n      pop\n      jump\t// out\n        /* \"#utility.yul\":34640:34873   */\n    tag_511:\n        /* \"#utility.yul\":34679:34682   */\n      0x00\n        /* \"#utility.yul\":34702:34726   */\n      tag_927\n        /* \"#utility.yul\":34720:34725   */\n      dup3\n        /* \"#utility.yul\":34702:34726   */\n      tag_525\n      jump\t// in\n    tag_927:\n        /* \"#utility.yul\":34693:34726   */\n      swap2\n      pop\n        /* \"#utility.yul\":34748:34814   */\n      0xffffffffffffffffffffffffffffffffffffffffffffffffffffffffffffffff\n        /* \"#utility.yul\":34741:34746   */\n      dup3\n        /* \"#utility.yul\":34738:34815   */\n      sub\n        /* \"#utility.yul\":34735:34838   */\n      tag_928\n      jumpi\n        /* \"#utility.yul\":34818:34836   */\n      tag_929\n      tag_584\n      jump\t// in\n    tag_929:\n        /* \"#utility.yul\":34735:34838   */\n    tag_928:\n        /* \"#utility.yul\":34865:34866   */\n      0x01\n        /* \"#utility.yul\":34858:34863   */\n      dup3\n        /* \"#utility.yul\":34854:34867   */\n      add\n        /* \"#utility.yul\":34847:34867   */\n      swap1\n      pop\n        /* \"#utility.yul\":34640:34873   */\n      swap2\n      swap1\n      pop\n      jump\t// out\n        /* \"#utility.yul\":34879:35073   */\n    tag_521:\n        /* \"#utility.yul\":34919:34923   */\n      0x00\n        /* \"#utility.yul\":34939:34959   */\n      tag_931\n        /* \"#utility.yul\":34957:34958   */\n      dup3\n        /* \"#utility.yul\":34939:34959   */\n      tag_525\n      jump\t// in\n    tag_931:\n        /* \"#utility.yul\":34934:34959   */\n      swap2\n      pop\n        /* \"#utility.yul\":34973:34993   */\n      tag_932\n        /* \"#utility.yul\":34991:34992   */\n      dup4\n        /* \"#utility.yul\":34973:34993   */\n      tag_525\n      jump\t// in\n    tag_932:\n        /* \"#utility.yul\":34968:34993   */\n      swap3\n      pop\n        /* \"#utility.yul\":35017:35018   */\n      dup3\n        /* \"#utility.yul\":35014:35015   */\n      dup3\n        /* \"#utility.yul\":35010:35019   */\n      sub\n        /* \"#utility.yul\":35002:35019   */\n      swap1\n      pop\n        /* \"#utility.yul\":35041:35042   */\n      dup2\n        /* \"#utility.yul\":35035:35039   */\n      dup2\n        /* \"#utility.yul\":35032:35043   */\n      gt\n        /* \"#utility.yul\":35029:35066   */\n      iszero\n      tag_933\n      jumpi\n        /* \"#utility.yul\":35046:35064   */\n      tag_934\n      tag_584\n      jump\t// in\n    tag_934:\n        /* \"#utility.yul\":35029:35066   */\n    tag_933:\n        /* \"#utility.yul\":34879:35073   */\n      swap3\n      swap2\n      pop\n      pop\n      jump\t// out\n\n    auxdata: 0xa2646970667358221220bffae87b43ee25cf00f979789c69860deeff2cdde3636962c3847038112ca7bb64736f6c634300081a0033\n}\n",
				"bytecode": {
					"linkReferences": {},
					"object": "608060405234801561000f575f80fd5b5060405161383438038061383483398181016040528101906100319190610265565b805f73ffffffffffffffffffffffffffffffffffffffff168173ffffffffffffffffffffffffffffffffffffffff16036100a2575f6040517f1e4fbdf7000000000000000000000000000000000000000000000000000000008152600401610099919061029f565b60405180910390fd5b6100b18161014660201b60201c565b50600180819055505f60025f6101000a81548160ff0219169083151502179055505f73ffffffffffffffffffffffffffffffffffffffff168173ffffffffffffffffffffffffffffffffffffffff1603610140576040517f08c379a000000000000000000000000000000000000000000000000000000000815260040161013790610312565b60405180910390fd5b50610330565b5f805f9054906101000a900473ffffffffffffffffffffffffffffffffffffffff169050815f806101000a81548173ffffffffffffffffffffffffffffffffffffffff021916908373ffffffffffffffffffffffffffffffffffffffff1602179055508173ffffffffffffffffffffffffffffffffffffffff168173ffffffffffffffffffffffffffffffffffffffff167f8be0079c531659141344cd1fd0a4f28419497f9722a3daafe3b4186f6b6457e060405160405180910390a35050565b5f80fd5b5f73ffffffffffffffffffffffffffffffffffffffff82169050919050565b5f6102348261020b565b9050919050565b6102448161022a565b811461024e575f80fd5b50565b5f8151905061025f8161023b565b92915050565b5f6020828403121561027a57610279610207565b5b5f61028784828501610251565b91505092915050565b6102998161022a565b82525050565b5f6020820190506102b25f830184610290565b92915050565b5f82825260208201905092915050565b7f496e76616c6964206f776e6572206164647265737300000000000000000000005f82015250565b5f6102fc6015836102b8565b9150610307826102c8565b602082019050919050565b5f6020820190508181035f830152610329816102f0565b9050919050565b6134f78061033d5f395ff3fe608060405234801561000f575f80fd5b50600436106101a7575f3560e01c806363a787e2116100f7578063e78813db11610095578063f2fde38b1161006f578063f2fde38b146104fa578063fc1b311314610516578063fc8221a914610534578063fdab463d14610564576101a7565b8063e78813db1461047c578063e8279ca0146104ac578063ea41537d146104ca576101a7565b806385de26b7116100d157806385de26b7146103dc5780638da5cb5b14610410578063a6a12ac41461042e578063cb57dc3e1461044c576101a7565b806363a787e214610398578063715018a6146103c85780638456cb59146103d2576101a7565b806338c8691111610164578063495906571161013e57806349590657146102fc578063523fba7f1461031a5780635c975abb1461034a5780635d41f36e14610368576101a7565b806338c86911146102a65780633f4ba83a146102d657806346de701b146102e0576101a7565b806302e291b1146101ab5780630f045205146101db5780631b81f8291461020b5780631ed1b4161461023b578063280ee92a146102575780632e36b05014610275575b5f80fd5b6101c560048036038101906101c09190612403565b610582565b6040516101d2919061243d565b60405180910390f35b6101f560048036038101906101f0919061253f565b610597565b60405161020291906125ea565b60405180910390f35b61022560048036038101906102209190612645565b6106b0565b60405161023291906125ea565b60405180910390f35b61025560048036038101906102509190612685565b61081e565b005b61025f610c64565b60405161026c919061243d565b60405180910390f35b61028f600480360381019061028a91906126ea565b610c6a565b60405161029d929190612883565b60405180910390f35b6102c060048036038101906102bb91906126ea565b610e52565b6040516102cd91906125ea565b60405180910390f35b6102de610e6f565b005b6102fa60048036038101906102f59190612912565b610e81565b005b6103046111d7565b6040516103119190612986565b60405180910390f35b610334600480360381019061032f919061299f565b6111e2565b604051610341919061243d565b60405180910390f35b6103526111f7565b60405161035f91906125ea565b60405180910390f35b610382600480360381019061037d9190612403565b61120c565b60405161038f919061243d565b60405180910390f35b6103b260048036038101906103ad9190612403565b611221565b6040516103bf919061243d565b60405180910390f35b6103d0611236565b005b6103da611249565b005b6103f660048036038101906103f191906126ea565b61125b565b6040516104079594939291906129d9565b60405180910390f35b6104186112b9565b6040516104259190612a2a565b60405180910390f35b6104366112e0565b604051610443919061243d565b60405180910390f35b61046660048036038101906104619190612a43565b6112e5565b604051610473919061243d565b60405180910390f35b61049660048036038101906104919190612a81565b611305565b6040516104a39190612986565b60405180910390f35b6104b4611325565b6040516104c1919061243d565b60405180910390f35b6104e460048036038101906104df9190612403565b61132e565b6040516104f191906125ea565b60405180910390f35b610514600480360381019061050f919061299f565b6113b2565b005b61051e611436565b60405161052b919061243d565b60405180910390f35b61054e60048036038101906105499190612a43565b611444565b60405161055b919061243d565b60405180910390f35b61056c611464565b604051610579919061243d565b60405180910390f35b6003602052805f5260405f205f915090505481565b5f601485859050146105de576040517f08c379a00000000000000000000000000000000000000000000000000000000081526004016105d590612b19565b60405180910390fd5b60148383905014610624576040517f08c379a000000000000000000000000000000000000000000000000000000000815260040161061b90612b81565b60405180910390fd5b5f8690505f5b601481101561069c575f87878381811061064757610646612b9f565b5b9050602002013590505f86868481811061066457610663612b9f565b5b90506020020135036106815761067a838261146a565b925061068e565b61068b818461146a565b92505b50808060010191505061062a565b5080600d545f1b1491505095945050505050565b5f6108166040518060400160405280855f600881106106d2576106d1612b9f565b5b60200201358152602001856001600881106106f0576106ef612b9f565b5b6020020135815250604051806040016040528060405180604001604052808860026008811061072257610721612b9f565b5b60200201358152602001886003600881106107405761073f612b9f565b5b6020020135815250815260200160405180604001604052808860046008811061076c5761076b612b9f565b5b602002013581526020018860056008811061078a57610789612b9f565b5b60200201358152508152506040518060400160405280876006600881106107b4576107b3612b9f565b5b60200201358152602001876007600881106107d2576107d1612b9f565b5b60200201358152508560018060200260405190810160405280929190826001602002808284375f81840152601f19601f82011690508083019250505050505061149c565b905092915050565b61082661177e565b61082e6117c4565b600a5f8581526020019081526020015f205f9054906101000a900460ff161561088c576040517f08c379a000000000000000000000000000000000000000000000000000000000815260040161088390612c16565b60405180910390fd5b5f60095f8581526020019081526020015f20905083815f0154146108e5576040517f08c379a00000000000000000000000000000000000000000000000000000000081526004016108dc90612c7e565b60405180910390fd5b8060030160149054906101000a900460ff1615610937576040517f08c379a000000000000000000000000000000000000000000000000000000000815260040161092e90612ce6565b60405180910390fd5b5f60405180602001604052803373ffffffffffffffffffffffffffffffffffffffff1681525090503073ffffffffffffffffffffffffffffffffffffffff16631b81f82984836040518363ffffffff1660e01b815260040161099a929190612d9d565b602060405180830381865afa1580156109b5573d5f803e3d5ffd5b505050506040513d601f19601f820116820180604052508101906109d99190612df0565b610a18576040517f08c379a0000000000000000000000000000000000000000000000000000000008152600401610a0f90612e65565b60405180910390fd5b6001600a5f8881526020019081526020015f205f6101000a81548160ff02191690831515021790555060018260030160146101000a81548160ff0219169083151502179055508582600101819055506040518060a001604052808581526020015f801b815260200183600201548152602001836003015f9054906101000a900473ffffffffffffffffffffffffffffffffffffffff1673ffffffffffffffffffffffffffffffffffffffff1681526020015f151581525060095f8681526020019081526020015f205f820151815f015560208201518160010155604082015181600201556060820151816003015f6101000a81548173ffffffffffffffffffffffffffffffffffffffff021916908373ffffffffffffffffffffffffffffffffffffffff16021790555060808201518160030160146101000a81548160ff021916908315150217905550905050610b6e84611805565b50816003015f9054906101000a900473ffffffffffffffffffffffffffffffffffffffff1673ffffffffffffffffffffffffffffffffffffffff16867f75fbe81d6ba35c853dd6f90725a9d8a9aa442f562daec842f257dca0a2e5216842604051610bd9919061243d565b60405180910390a3816003015f9054906101000a900473ffffffffffffffffffffffffffffffffffffffff1673ffffffffffffffffffffffffffffffffffffffff1684867fb16f88469e6333da7fca2f33f5a3cb03354fbf8e0b773ed465f90d391ffd16cd42604051610c4c919061243d565b60405180910390a45050610c5e6118ef565b50505050565b60085481565b6060805f801b60095f8581526020019081526020015f205f015403610cc4576040517f08c379a0000000000000000000000000000000000000000000000000000000008152600401610cbb90612c7e565b60405180910390fd5b601467ffffffffffffffff811115610cdf57610cde612e83565b5b604051908082528060200260200182016040528015610d0d5781602001602082028036833780820191505090505b509150601467ffffffffffffffff811115610d2b57610d2a612e83565b5b604051908082528060200260200182016040528015610d595781602001602082028036833780820191505090505b5090505f805b600e54811015610da75784600b5f805f1b81526020019081526020015f205f8381526020019081526020015f205403610d9a57809150610da7565b8080600101915050610d5f565b505f5b6014811015610e4b575f610dbe83836118f8565b9050600b5f805f1b81526020019081526020015f205f8281526020019081526020015f2054858381518110610df657610df5612b9f565b5b602002602001018181525050600283610e0f9190612edd565b848381518110610e2257610e21612b9f565b5b602002602001018181525050600283610e3b9190612f3a565b9250508080600101915050610daa565b5050915091565b600a602052805f5260405f205f915054906101000a900460ff1681565b610e77611908565b610e7f61198f565b565b610e8961177e565b610e916117c4565b69d3c21bcecceda1000000821115610ede576040517f08c379a0000000000000000000000000000000000000000000000000000000008152600401610ed590612fb4565b60405180910390fd5b5f801b60095f8681526020019081526020015f205f015414610f35576040517f08c379a0000000000000000000000000000000000000000000000000000000008152600401610f2c9061301c565b60405180910390fd5b5f60405180602001604052803373ffffffffffffffffffffffffffffffffffffffff1681525090503073ffffffffffffffffffffffffffffffffffffffff16631b81f82983836040518363ffffffff1660e01b8152600401610f98929190612d9d565b602060405180830381865afa158015610fb3573d5f803e3d5ffd5b505050506040513d601f19601f82011682018060405250810190610fd79190612df0565b611016576040517f08c379a000000000000000000000000000000000000000000000000000000000815260040161100d90612e65565b60405180910390fd5b8373ffffffffffffffffffffffffffffffffffffffff166323b872dd3330866040518463ffffffff1660e01b81526004016110539392919061303a565b6020604051808303815f875af115801561106f573d5f803e3d5ffd5b505050506040513d601f19601f820116820180604052508101906110939190612df0565b506040518060a001604052808681526020015f801b81526020018481526020018573ffffffffffffffffffffffffffffffffffffffff1681526020015f151581525060095f8781526020019081526020015f205f820151815f015560208201518160010155604082015181600201556060820151816003015f6101000a81548173ffffffffffffffffffffffffffffffffffffffff021916908373ffffffffffffffffffffffffffffffffffffffff16021790555060808201518160030160146101000a81548160ff0219169083151502179055509050505f61117586611805565b9050808573ffffffffffffffffffffffffffffffffffffffff16877f3249a1e3b1ca9d666464424243ad0e102e29d4cda1d16a3ba8d6b72ab44df76d426040516111bf919061243d565b60405180910390a450506111d16118ef565b50505050565b5f600d545f1b905090565b600c602052805f5260405f205f915090505481565b5f60025f9054906101000a900460ff16905090565b6006602052805f5260405f205f915090505481565b6005602052805f5260405f205f915090505481565b61123e611908565b6112475f6119f0565b565b611251611908565b611259611ab1565b565b6009602052805f5260405f205f91509050805f015490806001015490806002015490806003015f9054906101000a900473ffffffffffffffffffffffffffffffffffffffff16908060030160149054906101000a900460ff16905085565b5f805f9054906101000a900473ffffffffffffffffffffffffffffffffffffffff16905090565b601481565b6004602052815f5260405f20602052805f5260405f205f91509150505481565b600b602052815f5260405f20602052805f5260405f205f91509150505481565b5f600e54905090565b5f6014600261133d919061319e565b821061137e576040517f08c379a000000000000000000000000000000000000000000000000000000000815260040161137590613232565b60405180910390fd5b5f600b5f805f1b81526020019081526020015f205f8481526020019081526020015f205490505f801b811415915050919050565b6113ba611908565b5f73ffffffffffffffffffffffffffffffffffffffff168173ffffffffffffffffffffffffffffffffffffffff160361142a575f6040517f1e4fbdf70000000000000000000000000000000000000000000000000000000081526004016114219190612a2a565b60405180910390fd5b611433816119f0565b50565b69d3c21bcecceda100000081565b6007602052815f5260405f20602052805f5260405f205f91509150505481565b600d5481565b5f828260405160200161147e929190613270565b60405160208183030381529060405280519060200120905092915050565b5f6008546001806114ad919061329b565b146114ed576040517f08c379a00000000000000000000000000000000000000000000000000000000081526004016114e490613318565b60405180910390fd5b5f604051806040016040528060075f8081526020019081526020015f205f8081526020019081526020015f2054815260200160075f8081526020019081526020015f205f600181526020019081526020015f205481525090505f5b6001811015611668575f806115e1604051806040016040528060075f600188611571919061329b565b81526020019081526020015f205f8081526020019081526020015f2054815260200160075f6001886115a3919061329b565b81526020019081526020015f205f600181526020019081526020015f20548152508785600181106115d7576115d6612b9f565b5b6020020151611b13565b91509150611620845f600281106115fb576115fa612b9f565b5b60200201518560016002811061161457611613612b9f565b5b60200201518484611b67565b855f6002811061163357611632612b9f565b5b602002018660016002811061164b5761164a612b9f565b5b602002018281525082815250505050508080600101915050611548565b506117738686604051806040016040528060035f8081526020019081526020015f2054815260200160035f600181526020019081526020015f2054815250604051806040016040528060045f8081526020019081526020015f205f8081526020019081526020015f2054815260200160045f8081526020019081526020015f205f600181526020019081526020015f205481525085604051806040016040528060055f8081526020019081526020015f2054815260200160055f600181526020019081526020015f20548152508a604051806040016040528060065f8081526020019081526020015f2054815260200160065f600181526020019081526020015f2054815250611b8e565b915050949350505050565b6002600154036117ba576040517f3ee5aeb500000000000000000000000000000000000000000000000000000000815260040160405180910390fd5b6002600181905550565b6117cc6111f7565b15611803576040517fd93c066500000000000000000000000000000000000000000000000000000000815260040160405180910390fd5b565b5f8061180f61225e565b905082600b5f8581526020019081526020015f205f8081526020019081526020015f20819055505f8390505f5b60148110156118c4575f61185084836118f8565b90505f600b5f805f1b81526020019081526020015f205f8381526020019081526020015f20549050611882848261146a565b935083600b5f8981526020019081526020015f205f6001866118a4919061329b565b81526020019081526020015f20819055505050808060010191505061183c565b508060601c73ffffffffffffffffffffffffffffffffffffffff16600d819055508192505050919050565b60018081905550565b5f816001901b8318905092915050565b6119106122d2565b73ffffffffffffffffffffffffffffffffffffffff1661192e6112b9565b73ffffffffffffffffffffffffffffffffffffffff161461198d576119516122d2565b6040517f118cdaa70000000000000000000000000000000000000000000000000000000081526004016119849190612a2a565b60405180910390fd5b565b6119976122d9565b5f60025f6101000a81548160ff0219169083151502179055507f5db9ee0a495bf2e6ff9c91a7834c1ba4fdd244a5e8aa4e537bd38aeae4b073aa6119d96122d2565b6040516119e69190612a2a565b60405180910390a1565b5f805f9054906101000a900473ffffffffffffffffffffffffffffffffffffffff169050815f806101000a81548173ffffffffffffffffffffffffffffffffffffffff021916908373ffffffffffffffffffffffffffffffffffffffff1602179055508173ffffffffffffffffffffffffffffffffffffffff168173ffffffffffffffffffffffffffffffffffffffff167f8be0079c531659141344cd1fd0a4f28419497f9722a3daafe3b4186f6b6457e060405160405180910390a35050565b611ab96117c4565b600160025f6101000a81548160ff0219169083151502179055507f62e78cea01bee320cd4e420270b5ea74000d11b0c9f74754ebdbfc544b05a258611afc6122d2565b604051611b099190612a2a565b60405180910390a1565b5f8082845f60028110611b2957611b28612b9f565b5b6020020151611b389190613336565b8385600160028110611b4d57611b4c612b9f565b5b6020020151611b5c9190613336565b915091509250929050565b5f808386611b75919061329b565b8386611b81919061329b565b9150915094509492505050565b5f611b97612383565b611bd08a5f60028110611bad57611bac612b9f565b5b60200201518b600160028110611bc657611bc5612b9f565b5b6020020151612319565b8b5f60028110611be357611be2612b9f565b5b602002018c600160028110611bfb57611bfa612b9f565b5b6020020182815250828152505050611c42845f60028110611c1f57611c1e612b9f565b5b602002015185600160028110611c3857611c37612b9f565b5b6020020151612319565b855f60028110611c5557611c54612b9f565b5b6020020186600160028110611c6d57611c6c612b9f565b5b6020020182815250828152505050895f60028110611c8e57611c8d612b9f565b5b6020020151815f60188110611ca657611ca5612b9f565b5b60200201818152505089600160028110611cc357611cc2612b9f565b5b602002015181600160188110611cdc57611cdb612b9f565b5b602002018181525050885f60028110611cf857611cf7612b9f565b5b60200201515f60028110611d0f57611d0e612b9f565b5b602002015181600260188110611d2857611d27612b9f565b5b602002018181525050885f60028110611d4457611d43612b9f565b5b6020020151600160028110611d5c57611d5b612b9f565b5b602002015181600360188110611d7557611d74612b9f565b5b60200201818152505088600160028110611d9257611d91612b9f565b5b60200201515f60028110611da957611da8612b9f565b5b602002015181600460188110611dc257611dc1612b9f565b5b60200201818152505088600160028110611ddf57611dde612b9f565b5b6020020151600160028110611df757611df6612b9f565b5b602002015181600560188110611e1057611e0f612b9f565b5b602002018181525050875f60028110611e2c57611e2b612b9f565b5b602002015181600660188110611e4557611e44612b9f565b5b60200201818152505087600160028110611e6257611e61612b9f565b5b602002015181600760188110611e7b57611e7a612b9f565b5b602002018181525050865f60028110611e9757611e96612b9f565b5b602002015181600860188110611eb057611eaf612b9f565b5b60200201818152505086600160028110611ecd57611ecc612b9f565b5b602002015181600960188110611ee657611ee5612b9f565b5b602002018181525050865f60028110611f0257611f01612b9f565b5b602002015181600a60188110611f1b57611f1a612b9f565b5b60200201818152505086600160028110611f3857611f37612b9f565b5b602002015181600b60188110611f5157611f50612b9f565b5b602002018181525050855f60028110611f6d57611f6c612b9f565b5b602002015181600c60188110611f8657611f85612b9f565b5b60200201818152505085600160028110611fa357611fa2612b9f565b5b602002015181600d60188110611fbc57611fbb612b9f565b5b602002018181525050845f60028110611fd857611fd7612b9f565b5b602002015181600e60188110611ff157611ff0612b9f565b5b6020020181815250508460016002811061200e5761200d612b9f565b5b602002015181600f6018811061202757612026612b9f565b5b602002018181525050845f6002811061204357612042612b9f565b5b60200201518160106018811061205c5761205b612b9f565b5b6020020181815250508460016002811061207957612078612b9f565b5b60200201518160116018811061209257612091612b9f565b5b602002018181525050835f600281106120ae576120ad612b9f565b5b6020020151816012601881106120c7576120c6612b9f565b5b602002018181525050836001600281106120e4576120e3612b9f565b5b6020020151816013601881106120fd576120fc612b9f565b5b602002018181525050825f6002811061211957612118612b9f565b5b60200201518160146018811061213257612131612b9f565b5b6020020181815250508260016002811061214f5761214e612b9f565b5b60200201518160156018811061216857612167612b9f565b5b602002018181525050825f6002811061218457612183612b9f565b5b60200201518160166018811061219d5761219c612b9f565b5b602002018181525050826001600281106121ba576121b9612b9f565b5b6020020151816017601881106121d3576121d2612b9f565b5b6020020181815250506121e46123a6565b5f6020826101808560085afa905080612232576040517f08c379a0000000000000000000000000000000000000000000000000000000008152600401612229906133c1565b60405180910390fd5b6001825f6001811061224757612246612b9f565b5b602002015114935050505098975050505050505050565b5f80600e54905060146002612273919061319e565b81106122b4576040517f08c379a00000000000000000000000000000000000000000000000000000000081526004016122ab90613429565b60405180910390fd5b600e5f8154809291906122c690613447565b91905055508091505090565b5f33905090565b6122e16111f7565b612317576040517f8dfc202b00000000000000000000000000000000000000000000000000000000815260040160405180910390fd5b565b5f805f7f30644e72e131a029b85045b68181585d97816a916871ca8d3c208c16d87cfd4790505f8514801561234d57505f84145b1561235e575f80925092505061237c565b84818561236b9190612edd565b82612376919061348e565b92509250505b9250929050565b604051806103000160405280601890602082028036833780820191505090505090565b6040518060200160405280600190602082028036833780820191505090505090565b5f80fd5b5f80fd5b5f819050919050565b6123e2816123d0565b81146123ec575f80fd5b50565b5f813590506123fd816123d9565b92915050565b5f60208284031215612418576124176123c8565b5b5f612425848285016123ef565b91505092915050565b612437816123d0565b82525050565b5f6020820190506124505f83018461242e565b92915050565b5f819050919050565b61246881612456565b8114612472575f80fd5b50565b5f813590506124838161245f565b92915050565b5f80fd5b5f80fd5b5f80fd5b5f8083601f8401126124aa576124a9612489565b5b8235905067ffffffffffffffff8111156124c7576124c661248d565b5b6020830191508360208202830111156124e3576124e2612491565b5b9250929050565b5f8083601f8401126124ff576124fe612489565b5b8235905067ffffffffffffffff81111561251c5761251b61248d565b5b60208301915083602082028301111561253857612537612491565b5b9250929050565b5f805f805f60608688031215612558576125576123c8565b5b5f61256588828901612475565b955050602086013567ffffffffffffffff811115612586576125856123cc565b5b61259288828901612495565b9450945050604086013567ffffffffffffffff8111156125b5576125b46123cc565b5b6125c1888289016124ea565b92509250509295509295909350565b5f8115159050919050565b6125e4816125d0565b82525050565b5f6020820190506125fd5f8301846125db565b92915050565b5f8190508260206008028201111561261e5761261d612491565b5b92915050565b5f8190508260206001028201111561263f5761263e612491565b5b92915050565b5f80610120838503121561265c5761265b6123c8565b5b5f61266985828601612603565b92505061010061267b85828601612624565b9150509250929050565b5f805f80610160858703121561269e5761269d6123c8565b5b5f6126ab87828801612475565b94505060206126bc87828801612475565b93505060406126cd87828801612475565b92505060606126de87828801612603565b91505092959194509250565b5f602082840312156126ff576126fe6123c8565b5b5f61270c84828501612475565b91505092915050565b5f81519050919050565b5f82825260208201905092915050565b5f819050602082019050919050565b61274781612456565b82525050565b5f612758838361273e565b60208301905092915050565b5f602082019050919050565b5f61277a82612715565b612784818561271f565b935061278f8361272f565b805f5b838110156127bf5781516127a6888261274d565b97506127b183612764565b925050600181019050612792565b5085935050505092915050565b5f81519050919050565b5f82825260208201905092915050565b5f819050602082019050919050565b6127fe816123d0565b82525050565b5f61280f83836127f5565b60208301905092915050565b5f602082019050919050565b5f612831826127cc565b61283b81856127d6565b9350612846836127e6565b805f5b8381101561287657815161285d8882612804565b97506128688361281b565b925050600181019050612849565b5085935050505092915050565b5f6040820190508181035f83015261289b8185612770565b905081810360208301526128af8184612827565b90509392505050565b5f73ffffffffffffffffffffffffffffffffffffffff82169050919050565b5f6128e1826128b8565b9050919050565b6128f1816128d7565b81146128fb575f80fd5b50565b5f8135905061290c816128e8565b92915050565b5f805f80610160858703121561292b5761292a6123c8565b5b5f61293887828801612475565b9450506020612949878288016128fe565b935050604061295a878288016123ef565b925050606061296b87828801612603565b91505092959194509250565b61298081612456565b82525050565b5f6020820190506129995f830184612977565b92915050565b5f602082840312156129b4576129b36123c8565b5b5f6129c1848285016128fe565b91505092915050565b6129d3816128d7565b82525050565b5f60a0820190506129ec5f830188612977565b6129f96020830187612977565b612a06604083018661242e565b612a1360608301856129ca565b612a2060808301846125db565b9695505050505050565b5f602082019050612a3d5f8301846129ca565b92915050565b5f8060408385031215612a5957612a586123c8565b5b5f612a66858286016123ef565b9250506020612a77858286016123ef565b9150509250929050565b5f8060408385031215612a9757612a966123c8565b5b5f612aa485828601612475565b9250506020612ab5858286016123ef565b9150509250929050565b5f82825260208201905092915050565b7f496e76616c69642070726f6f66206c656e6774680000000000000000000000005f82015250565b5f612b03601483612abf565b9150612b0e82612acf565b602082019050919050565b5f6020820190508181035f830152612b3081612af7565b9050919050565b7f496e76616c696420696e6469636573206c656e677468000000000000000000005f82015250565b5f612b6b601683612abf565b9150612b7682612b37565b602082019050919050565b5f6020820190508181035f830152612b9881612b5f565b9050919050565b7f4e487b71000000000000000000000000000000000000000000000000000000005f52603260045260245ffd5b7f4e756c6c696669657220616c7265616479207370656e740000000000000000005f82015250565b5f612c00601783612abf565b9150612c0b82612bcc565b602082019050919050565b5f6020820190508181035f830152612c2d81612bf4565b9050919050565b7f4e6f7465206e6f7420666f756e640000000000000000000000000000000000005f82015250565b5f612c68600e83612abf565b9150612c7382612c34565b602082019050919050565b5f6020820190508181035f830152612c9581612c5c565b9050919050565b7f4e6f746520616c7265616479207370656e7400000000000000000000000000005f82015250565b5f612cd0601283612abf565b9150612cdb82612c9c565b602082019050919050565b5f6020820190508181035f830152612cfd81612cc4565b9050919050565b82818337505050565b612d1a6101008383612d04565b5050565b5f60019050919050565b5f81905092915050565b5f819050919050565b5f602082019050919050565b612d5081612d1e565b612d5a8184612d28565b9250612d6582612d32565b805f5b83811015612d95578151612d7c8782612804565b9650612d8783612d3b565b925050600181019050612d68565b505050505050565b5f61012082019050612db15f830185612d0d565b612dbf610100830184612d47565b9392505050565b612dcf816125d0565b8114612dd9575f80fd5b50565b5f81519050612dea81612dc6565b92915050565b5f60208284031215612e0557612e046123c8565b5b5f612e1284828501612ddc565b91505092915050565b7f496e76616c69642070726f6f66000000000000000000000000000000000000005f82015250565b5f612e4f600d83612abf565b9150612e5a82612e1b565b602082019050919050565b5f6020820190508181035f830152612e7c81612e43565b9050919050565b7f4e487b71000000000000000000000000000000000000000000000000000000005f52604160045260245ffd5b7f4e487b71000000000000000000000000000000000000000000000000000000005f52601260045260245ffd5b5f612ee7826123d0565b9150612ef2836123d0565b925082612f0257612f01612eb0565b5b828206905092915050565b7f4e487b71000000000000000000000000000000000000000000000000000000005f52601160045260245ffd5b5f612f44826123d0565b9150612f4f836123d0565b925082612f5f57612f5e612eb0565b5b828204905092915050565b7f416d6f756e742065786365656473206d6178696d756d000000000000000000005f82015250565b5f612f9e601683612abf565b9150612fa982612f6a565b602082019050919050565b5f6020820190508181035f830152612fcb81612f92565b9050919050565b7f436f6d6d69746d656e74206578697374730000000000000000000000000000005f82015250565b5f613006601183612abf565b915061301182612fd2565b602082019050919050565b5f6020820190508181035f83015261303381612ffa565b9050919050565b5f60608201905061304d5f8301866129ca565b61305a60208301856129ca565b613067604083018461242e565b949350505050565b5f8160011c9050919050565b5f808291508390505b60018511156130c4578086048111156130a05761309f612f0d565b5b60018516156130af5780820291505b80810290506130bd8561306f565b9450613084565b94509492505050565b5f826130dc5760019050613197565b816130e9575f9050613197565b81600181146130ff576002811461310957613138565b6001915050613197565b60ff84111561311b5761311a612f0d565b5b8360020a91508482111561313257613131612f0d565b5b50613197565b5060208310610133831016604e8410600b841016171561316d5782820a90508381111561316857613167612f0d565b5b613197565b61317a848484600161307b565b9250905081840481111561319157613190612f0d565b5b81810290505b9392505050565b5f6131a8826123d0565b91506131b3836123d0565b92506131e07fffffffffffffffffffffffffffffffffffffffffffffffffffffffffffffffff84846130cd565b905092915050565b7f496e646578206f7574206f6620626f756e6473000000000000000000000000005f82015250565b5f61321c601383612abf565b9150613227826131e8565b602082019050919050565b5f6020820190508181035f83015261324981613210565b9050919050565b5f819050919050565b61326a61326582612456565b613250565b82525050565b5f61327b8285613259565b60208201915061328b8284613259565b6020820191508190509392505050565b5f6132a5826123d0565b91506132b0836123d0565b92508282019050808211156132c8576132c7612f0d565b5b92915050565b7f496e76616c696420696e707574206c656e6774680000000000000000000000005f82015250565b5f613302601483612abf565b915061330d826132ce565b602082019050919050565b5f6020820190508181035f83015261332f816132f6565b9050919050565b5f613340826123d0565b915061334b836123d0565b9250828202613359816123d0565b915082820484148315176133705761336f612f0d565b5b5092915050565b7f50616972696e6720636865636b206661696c65640000000000000000000000005f82015250565b5f6133ab601483612abf565b91506133b682613377565b602082019050919050565b5f6020820190508181035f8301526133d88161339f565b9050919050565b7f4d65726b6c6520747265652066756c6c000000000000000000000000000000005f82015250565b5f613413601083612abf565b915061341e826133df565b602082019050919050565b5f6020820190508181035f83015261344081613407565b9050919050565b5f613451826123d0565b91507fffffffffffffffffffffffffffffffffffffffffffffffffffffffffffffffff820361348357613482612f0d565b5b600182019050919050565b5f613498826123d0565b91506134a3836123d0565b92508282039050818111156134bb576134ba612f0d565b5b9291505056fea2646970667358221220bffae87b43ee25cf00f979789c69860deeff2cdde3636962c3847038112ca7bb64736f6c634300081a0033",
					"opcodes": "PUSH1 0x80 PUSH1 0x40 MSTORE CALLVALUE DUP1 ISZERO PUSH2 0xF JUMPI PUSH0 DUP1 REVERT JUMPDEST POP PUSH1 0x40 MLOAD PUSH2 0x3834 CODESIZE SUB DUP1 PUSH2 0x3834 DUP4 CODECOPY DUP2 DUP2 ADD PUSH1 0x40 MSTORE DUP2 ADD SWAP1 PUSH2 0x31 SWAP2 SWAP1 PUSH2 0x265 JUMP JUMPDEST DUP1 PUSH0 PUSH20 0xFFFFFFFFFFFFFFFFFFFFFFFFFFFFFFFFFFFFFFFF AND DUP2 PUSH20 0xFFFFFFFFFFFFFFFFFFFFFFFFFFFFFFFFFFFFFFFF AND SUB PUSH2 0xA2 JUMPI PUSH0 PUSH1 0x40 MLOAD PUSH32 0x1E4FBDF700000000000000000000000000000000000000000000000000000000 DUP2 MSTORE PUSH1 0x4 ADD PUSH2 0x99 SWAP2 SWAP1 PUSH2 0x29F JUMP JUMPDEST PUSH1 0x40 MLOAD DUP1 SWAP2 SUB SWAP1 REVERT JUMPDEST PUSH2 0xB1 DUP2 PUSH2 0x146 PUSH1 0x20 SHL PUSH1 0x20 SHR JUMP JUMPDEST POP PUSH1 0x1 DUP1 DUP2 SWAP1 SSTORE POP PUSH0 PUSH1 0x2 PUSH0 PUSH2 0x100 EXP DUP2 SLOAD DUP2 PUSH1 0xFF MUL NOT AND SWAP1 DUP4 ISZERO ISZERO MUL OR SWAP1 SSTORE POP PUSH0 PUSH20 0xFFFFFFFFFFFFFFFFFFFFFFFFFFFFFFFFFFFFFFFF AND DUP2 PUSH20 0xFFFFFFFFFFFFFFFFFFFFFFFFFFFFFFFFFFFFFFFF AND SUB PUSH2 0x140 JUMPI PUSH1 0x40 MLOAD PUSH32 0x8C379A000000000000000000000000000000000000000000000000000000000 DUP2 MSTORE PUSH1 0x4 ADD PUSH2 0x137 SWAP1 PUSH2 0x312 JUMP JUMPDEST PUSH1 0x40 MLOAD DUP1 SWAP2 SUB SWAP1 REVERT JUMPDEST POP PUSH2 0x330 JUMP JUMPDEST PUSH0 DUP1 PUSH0 SWAP1 SLOAD SWAP1 PUSH2 0x100 EXP SWAP1 DIV PUSH20 0xFFFFFFFFFFFFFFFFFFFFFFFFFFFFFFFFFFFFFFFF AND SWAP1 POP DUP2 PUSH0 DUP1 PUSH2 0x100 EXP DUP2 SLOAD DUP2 PUSH20 0xFFFFFFFFFFFFFFFFFFFFFFFFFFFFFFFFFFFFFFFF MUL NOT AND SWAP1 DUP4 PUSH20 0xFFFFFFFFFFFFFFFFFFFFFFFFFFFFFFFFFFFFFFFF AND MUL OR SWAP1 SSTORE POP DUP2 PUSH20 0xFFFFFFFFFFFFFFFFFFFFFFFFFFFFFFFFFFFFFFFF AND DUP2 PUSH20 0xFFFFFFFFFFFFFFFFFFFFFFFFFFFFFFFFFFFFFFFF AND PUSH32 0x8BE0079C531659141344CD1FD0A4F28419497F9722A3DAAFE3B4186F6B6457E0 PUSH1 0x40 MLOAD PUSH1 0x40 MLOAD DUP1 SWAP2 SUB SWAP1 LOG3 POP POP JUMP JUMPDEST PUSH0 DUP1 REVERT JUMPDEST PUSH0 PUSH20 0xFFFFFFFFFFFFFFFFFFFFFFFFFFFFFFFFFFFFFFFF DUP3 AND SWAP1 POP SWAP2 SWAP1 POP JUMP JUMPDEST PUSH0 PUSH2 0x234 DUP3 PUSH2 0x20B JUMP JUMPDEST SWAP1 POP SWAP2 SWAP1 POP JUMP JUMPDEST PUSH2 0x244 DUP2 PUSH2 0x22A JUMP JUMPDEST DUP2 EQ PUSH2 0x24E JUMPI PUSH0 DUP1 REVERT JUMPDEST POP JUMP JUMPDEST PUSH0 DUP2 MLOAD SWAP1 POP PUSH2 0x25F DUP2 PUSH2 0x23B JUMP JUMPDEST SWAP3 SWAP2 POP POP JUMP JUMPDEST PUSH0 PUSH1 0x20 DUP3 DUP5 SUB SLT ISZERO PUSH2 0x27A JUMPI PUSH2 0x279 PUSH2 0x207 JUMP JUMPDEST JUMPDEST PUSH0 PUSH2 0x287 DUP5 DUP3 DUP6 ADD PUSH2 0x251 JUMP JUMPDEST SWAP2 POP POP SWAP3 SWAP2 POP POP JUMP JUMPDEST PUSH2 0x299 DUP2 PUSH2 0x22A JUMP JUMPDEST DUP3 MSTORE POP POP JUMP JUMPDEST PUSH0 PUSH1 0x20 DUP3 ADD SWAP1 POP PUSH2 0x2B2 PUSH0 DUP4 ADD DUP5 PUSH2 0x290 JUMP JUMPDEST SWAP3 SWAP2 POP POP JUMP JUMPDEST PUSH0 DUP3 DUP3 MSTORE PUSH1 0x20 DUP3 ADD SWAP1 POP SWAP3 SWAP2 POP POP JUMP JUMPDEST PUSH32 0x496E76616C6964206F776E657220616464726573730000000000000000000000 PUSH0 DUP3 ADD MSTORE POP JUMP JUMPDEST PUSH0 PUSH2 0x2FC PUSH1 0x15 DUP4 PUSH2 0x2B8 JUMP JUMPDEST SWAP2 POP PUSH2 0x307 DUP3 PUSH2 0x2C8 JUMP JUMPDEST PUSH1 0x20 DUP3 ADD SWAP1 POP SWAP2 SWAP1 POP JUMP JUMPDEST PUSH0 PUSH1 0x20 DUP3 ADD SWAP1 POP DUP2 DUP2 SUB PUSH0 DUP4 ADD MSTORE PUSH2 0x329 DUP2 PUSH2 0x2F0 JUMP JUMPDEST SWAP1 POP SWAP2 SWAP1 POP JUMP JUMPDEST PUSH2 0x34F7 DUP1 PUSH2 0x33D PUSH0 CODECOPY PUSH0 RETURN INVALID PUSH1 0x80 PUSH1 0x40 MSTORE CALLVALUE DUP1 ISZERO PUSH2 0xF JUMPI PUSH0 DUP1 REVERT JUMPDEST POP PUSH1 0x4 CALLDATASIZE LT PUSH2 0x1A7 JUMPI PUSH0 CALLDATALOAD PUSH1 0xE0 SHR DUP1 PUSH4 0x63A787E2 GT PUSH2 0xF7 JUMPI DUP1 PUSH4 0xE78813DB GT PUSH2 0x95 JUMPI DUP1 PUSH4 0xF2FDE38B GT PUSH2 0x6F JUMPI DUP1 PUSH4 0xF2FDE38B EQ PUSH2 0x4FA JUMPI DUP1 PUSH4 0xFC1B3113 EQ PUSH2 0x516 JUMPI DUP1 PUSH4 0xFC8221A9 EQ PUSH2 0x534 JUMPI DUP1 PUSH4 0xFDAB463D EQ PUSH2 0x564 JUMPI PUSH2 0x1A7 JUMP JUMPDEST DUP1 PUSH4 0xE78813DB EQ PUSH2 0x47C JUMPI DUP1 PUSH4 0xE8279CA0 EQ PUSH2 0x4AC JUMPI DUP1 PUSH4 0xEA41537D EQ PUSH2 0x4CA JUMPI PUSH2 0x1A7 JUMP JUMPDEST DUP1 PUSH4 0x85DE26B7 GT PUSH2 0xD1 JUMPI DUP1 PUSH4 0x85DE26B7 EQ PUSH2 0x3DC JUMPI DUP1 PUSH4 0x8DA5CB5B EQ PUSH2 0x410 JUMPI DUP1 PUSH4 0xA6A12AC4 EQ PUSH2 0x42E JUMPI DUP1 PUSH4 0xCB57DC3E EQ PUSH2 0x44C JUMPI PUSH2 0x1A7 JUMP JUMPDEST DUP1 PUSH4 0x63A787E2 EQ PUSH2 0x398 JUMPI DUP1 PUSH4 0x715018A6 EQ PUSH2 0x3C8 JUMPI DUP1 PUSH4 0x8456CB59 EQ PUSH2 0x3D2 JUMPI PUSH2 0x1A7 JUMP JUMPDEST DUP1 PUSH4 0x38C86911 GT PUSH2 0x164 JUMPI DUP1 PUSH4 0x49590657 GT PUSH2 0x13E JUMPI DUP1 PUSH4 0x49590657 EQ PUSH2 0x2FC JUMPI DUP1 PUSH4 0x523FBA7F EQ PUSH2 0x31A JUMPI DUP1 PUSH4 0x5C975ABB EQ PUSH2 0x34A JUMPI DUP1 PUSH4 0x5D41F36E EQ PUSH2 0x368 JUMPI PUSH2 0x1A7 JUMP JUMPDEST DUP1 PUSH4 0x38C86911 EQ PUSH2 0x2A6 JUMPI DUP1 PUSH4 0x3F4BA83A EQ PUSH2 0x2D6 JUMPI DUP1 PUSH4 0x46DE701B EQ PUSH2 0x2E0 JUMPI PUSH2 0x1A7 JUMP JUMPDEST DUP1 PUSH4 0x2E291B1 EQ PUSH2 0x1AB JUMPI DUP1 PUSH4 0xF045205 EQ PUSH2 0x1DB JUMPI DUP1 PUSH4 0x1B81F829 EQ PUSH2 0x20B JUMPI DUP1 PUSH4 0x1ED1B416 EQ PUSH2 0x23B JUMPI DUP1 PUSH4 0x280EE92A EQ PUSH2 0x257 JUMPI DUP1 PUSH4 0x2E36B050 EQ PUSH2 0x275 JUMPI JUMPDEST PUSH0 DUP1 REVERT JUMPDEST PUSH2 0x1C5 PUSH1 0x4 DUP1 CALLDATASIZE SUB DUP2 ADD SWAP1 PUSH2 0x1C0 SWAP2 SWAP1 PUSH2 0x2403 JUMP JUMPDEST PUSH2 0x582 JUMP JUMPDEST PUSH1 0x40 MLOAD PUSH2 0x1D2 SWAP2 SWAP1 PUSH2 0x243D JUMP JUMPDEST PUSH1 0x40 MLOAD DUP1 SWAP2 SUB SWAP1 RETURN JUMPDEST PUSH2 0x1F5 PUSH1 0x4 DUP1 CALLDATASIZE SUB DUP2 ADD SWAP1 PUSH2 0x1F0 SWAP2 SWAP1 PUSH2 0x253F JUMP JUMPDEST PUSH2 0x597 JUMP JUMPDEST PUSH1 0x40 MLOAD PUSH2 0x202 SWAP2 SWAP1 PUSH2 0x25EA JUMP JUMPDEST PUSH1 0x40 MLOAD DUP1 SWAP2 SUB SWAP1 RETURN JUMPDEST PUSH2 0x225 PUSH1 0x4 DUP1 CALLDATASIZE SUB DUP2 ADD SWAP1 PUSH2 0x220 SWAP2 SWAP1 PUSH2 0x2645 JUMP JUMPDEST PUSH2 0x6B0 JUMP JUMPDEST PUSH1 0x40 MLOAD PUSH2 0x232 SWAP2 SWAP1 PUSH2 0x25EA JUMP JUMPDEST PUSH1 0x40 MLOAD DUP1 SWAP2 SUB SWAP1 RETURN JUMPDEST PUSH2 0x255 PUSH1 0x4 DUP1 CALLDATASIZE SUB DUP2 ADD SWAP1 PUSH2 0x250 SWAP2 SWAP1 PUSH2 0x2685 JUMP JUMPDEST PUSH2 0x81E JUMP JUMPDEST STOP JUMPDEST PUSH2 0x25F PUSH2 0xC64 JUMP JUMPDEST PUSH1 0x40 MLOAD PUSH2 0x26C SWAP2 SWAP1 PUSH2 0x243D JUMP JUMPDEST PUSH1 0x40 MLOAD DUP1 SWAP2 SUB SWAP1 RETURN JUMPDEST PUSH2 0x28F PUSH1 0x4 DUP1 CALLDATASIZE SUB DUP2 ADD SWAP1 PUSH2 0x28A SWAP2 SWAP1 PUSH2 0x26EA JUMP JUMPDEST PUSH2 0xC6A JUMP JUMPDEST PUSH1 0x40 MLOAD PUSH2 0x29D SWAP3 SWAP2 SWAP1 PUSH2 0x2883 JUMP JUMPDEST PUSH1 0x40 MLOAD DUP1 SWAP2 SUB SWAP1 RETURN JUMPDEST PUSH2 0x2C0 PUSH1 0x4 DUP1 CALLDATASIZE SUB DUP2 ADD SWAP1 PUSH2 0x2BB SWAP2 SWAP1 PUSH2 0x26EA JUMP JUMPDEST PUSH2 0xE52 JUMP JUMPDEST PUSH1 0x40 MLOAD PUSH2 0x2CD SWAP2 SWAP1 PUSH2 0x25EA JUMP JUMPDEST PUSH1 0x40 MLOAD DUP1 SWAP2 SUB SWAP1 RETURN JUMPDEST PUSH2 0x2DE PUSH2 0xE6F JUMP JUMPDEST STOP JUMPDEST PUSH2 0x2FA PUSH1 0x4 DUP1 CALLDATASIZE SUB DUP2 ADD SWAP1 PUSH2 0x2F5 SWAP2 SWAP1 PUSH2 0x2912 JUMP JUMPDEST PUSH2 0xE81 JUMP JUMPDEST STOP JUMPDEST PUSH2 0x304 PUSH2 0x11D7 JUMP JUMPDEST PUSH1 0x40 MLOAD PUSH2 0x311 SWAP2 SWAP1 PUSH2 0x2986 JUMP JUMPDEST PUSH1 0x40 MLOAD DUP1 SWAP2 SUB SWAP1 RETURN JUMPDEST PUSH2 0x334 PUSH1 0x4 DUP1 CALLDATASIZE SUB DUP2 ADD SWAP1 PUSH2 0x32F SWAP2 SWAP1 PUSH2 0x299F JUMP JUMPDEST PUSH2 0x11E2 JUMP JUMPDEST PUSH1 0x40 MLOAD PUSH2 0x341 SWAP2 SWAP1 PUSH2 0x243D JUMP JUMPDEST PUSH1 0x40 MLOAD DUP1 SWAP2 SUB SWAP1 RETURN JUMPDEST PUSH2 0x352 PUSH2 0x11F7 JUMP JUMPDEST PUSH1 0x40 MLOAD PUSH2 0x35F SWAP2 SWAP1 PUSH2 0x25EA JUMP JUMPDEST PUSH1 0x40 MLOAD DUP1 SWAP2 SUB SWAP1 RETURN JUMPDEST PUSH2 0x382 PUSH1 0x4 DUP1 CALLDATASIZE SUB DUP2 ADD SWAP1 PUSH2 0x37D SWAP2 SWAP1 PUSH2 0x2403 JUMP JUMPDEST PUSH2 0x120C JUMP JUMPDEST PUSH1 0x40 MLOAD PUSH2 0x38F SWAP2 SWAP1 PUSH2 0x243D JUMP JUMPDEST PUSH1 0x40 MLOAD DUP1 SWAP2 SUB SWAP1 RETURN JUMPDEST PUSH2 0x3B2 PUSH1 0x4 DUP1 CALLDATASIZE SUB DUP2 ADD SWAP1 PUSH2 0x3AD SWAP2 SWAP1 PUSH2 0x2403 JUMP JUMPDEST PUSH2 0x1221 JUMP JUMPDEST PUSH1 0x40 MLOAD PUSH2 0x3BF SWAP2 SWAP1 PUSH2 0x243D JUMP JUMPDEST PUSH1 0x40 MLOAD DUP1 SWAP2 SUB SWAP1 RETURN JUMPDEST PUSH2 0x3D0 PUSH2 0x1236 JUMP JUMPDEST STOP JUMPDEST PUSH2 0x3DA PUSH2 0x1249 JUMP JUMPDEST STOP JUMPDEST PUSH2 0x3F6 PUSH1 0x4 DUP1 CALLDATASIZE SUB DUP2 ADD SWAP1 PUSH2 0x3F1 SWAP2 SWAP1 PUSH2 0x26EA JUMP JUMPDEST PUSH2 0x125B JUMP JUMPDEST PUSH1 0x40 MLOAD PUSH2 0x407 SWAP6 SWAP5 SWAP4 SWAP3 SWAP2 SWAP1 PUSH2 0x29D9 JUMP JUMPDEST PUSH1 0x40 MLOAD DUP1 SWAP2 SUB SWAP1 RETURN JUMPDEST PUSH2 0x418 PUSH2 0x12B9 JUMP JUMPDEST PUSH1 0x40 MLOAD PUSH2 0x425 SWAP2 SWAP1 PUSH2 0x2A2A JUMP JUMPDEST PUSH1 0x40 MLOAD DUP1 SWAP2 SUB SWAP1 RETURN JUMPDEST PUSH2 0x436 PUSH2 0x12E0 JUMP JUMPDEST PUSH1 0x40 MLOAD PUSH2 0x443 SWAP2 SWAP1 PUSH2 0x243D JUMP JUMPDEST PUSH1 0x40 MLOAD DUP1 SWAP2 SUB SWAP1 RETURN JUMPDEST PUSH2 0x466 PUSH1 0x4 DUP1 CALLDATASIZE SUB DUP2 ADD SWAP1 PUSH2 0x461 SWAP2 SWAP1 PUSH2 0x2A43 JUMP JUMPDEST PUSH2 0x12E5 JUMP JUMPDEST PUSH1 0x40 MLOAD PUSH2 0x473 SWAP2 SWAP1 PUSH2 0x243D JUMP JUMPDEST PUSH1 0x40 MLOAD DUP1 SWAP2 SUB SWAP1 RETURN JUMPDEST PUSH2 0x496 PUSH1 0x4 DUP1 CALLDATASIZE SUB DUP2 ADD SWAP1 PUSH2 0x491 SWAP2 SWAP1 PUSH2 0x2A81 JUMP JUMPDEST PUSH2 0x1305 JUMP JUMPDEST PUSH1 0x40 MLOAD PUSH2 0x4A3 SWAP2 SWAP1 PUSH2 0x2986 JUMP JUMPDEST PUSH1 0x40 MLOAD DUP1 SWAP2 SUB SWAP1 RETURN JUMPDEST PUSH2 0x4B4 PUSH2 0x1325 JUMP JUMPDEST PUSH1 0x40 MLOAD PUSH2 0x4C1 SWAP2 SWAP1 PUSH2 0x243D JUMP JUMPDEST PUSH1 0x40 MLOAD DUP1 SWAP2 SUB SWAP1 RETURN JUMPDEST PUSH2 0x4E4 PUSH1 0x4 DUP1 CALLDATASIZE SUB DUP2 ADD SWAP1 PUSH2 0x4DF SWAP2 SWAP1 PUSH2 0x2403 JUMP JUMPDEST PUSH2 0x132E JUMP JUMPDEST PUSH1 0x40 MLOAD PUSH2 0x4F1 SWAP2 SWAP1 PUSH2 0x25EA JUMP JUMPDEST PUSH1 0x40 MLOAD DUP1 SWAP2 SUB SWAP1 RETURN JUMPDEST PUSH2 0x514 PUSH1 0x4 DUP1 CALLDATASIZE SUB DUP2 ADD SWAP1 PUSH2 0x50F SWAP2 SWAP1 PUSH2 0x299F JUMP JUMPDEST PUSH2 0x13B2 JUMP JUMPDEST STOP JUMPDEST PUSH2 0x51E PUSH2 0x1436 JUMP JUMPDEST PUSH1 0x40 MLOAD PUSH2 0x52B SWAP2 SWAP1 PUSH2 0x243D JUMP JUMPDEST PUSH1 0x40 MLOAD DUP1 SWAP2 SUB SWAP1 RETURN JUMPDEST PUSH2 0x54E PUSH1 0x4 DUP1 CALLDATASIZE SUB DUP2 ADD SWAP1 PUSH2 0x549 SWAP2 SWAP1 PUSH2 0x2A43 JUMP JUMPDEST PUSH2 0x1444 JUMP JUMPDEST PUSH1 0x40 MLOAD PUSH2 0x55B SWAP2 SWAP1 PUSH2 0x243D JUMP JUMPDEST PUSH1 0x40 MLOAD DUP1 SWAP2 SUB SWAP1 RETURN JUMPDEST PUSH2 0x56C PUSH2 0x1464 JUMP JUMPDEST PUSH1 0x40 MLOAD PUSH2 0x579 SWAP2 SWAP1 PUSH2 0x243D JUMP JUMPDEST PUSH1 0x40 MLOAD DUP1 SWAP2 SUB SWAP1 RETURN JUMPDEST PUSH1 0x3 PUSH1 0x20 MSTORE DUP1 PUSH0 MSTORE PUSH1 0x40 PUSH0 KECCAK256 PUSH0 SWAP2 POP SWAP1 POP SLOAD DUP2 JUMP JUMPDEST PUSH0 PUSH1 0x14 DUP6 DUP6 SWAP1 POP EQ PUSH2 0x5DE JUMPI PUSH1 0x40 MLOAD PUSH32 0x8C379A000000000000000000000000000000000000000000000000000000000 DUP2 MSTORE PUSH1 0x4 ADD PUSH2 0x5D5 SWAP1 PUSH2 0x2B19 JUMP JUMPDEST PUSH1 0x40 MLOAD DUP1 SWAP2 SUB SWAP1 REVERT JUMPDEST PUSH1 0x14 DUP4 DUP4 SWAP1 POP EQ PUSH2 0x624 JUMPI PUSH1 0x40 MLOAD PUSH32 0x8C379A000000000000000000000000000000000000000000000000000000000 DUP2 MSTORE PUSH1 0x4 ADD PUSH2 0x61B SWAP1 PUSH2 0x2B81 JUMP JUMPDEST PUSH1 0x40 MLOAD DUP1 SWAP2 SUB SWAP1 REVERT JUMPDEST PUSH0 DUP7 SWAP1 POP PUSH0 JUMPDEST PUSH1 0x14 DUP2 LT ISZERO PUSH2 0x69C JUMPI PUSH0 DUP8 DUP8 DUP4 DUP2 DUP2 LT PUSH2 0x647 JUMPI PUSH2 0x646 PUSH2 0x2B9F JUMP JUMPDEST JUMPDEST SWAP1 POP PUSH1 0x20 MUL ADD CALLDATALOAD SWAP1 POP PUSH0 DUP7 DUP7 DUP5 DUP2 DUP2 LT PUSH2 0x664 JUMPI PUSH2 0x663 PUSH2 0x2B9F JUMP JUMPDEST JUMPDEST SWAP1 POP PUSH1 0x20 MUL ADD CALLDATALOAD SUB PUSH2 0x681 JUMPI PUSH2 0x67A DUP4 DUP3 PUSH2 0x146A JUMP JUMPDEST SWAP3 POP PUSH2 0x68E JUMP JUMPDEST PUSH2 0x68B DUP2 DUP5 PUSH2 0x146A JUMP JUMPDEST SWAP3 POP JUMPDEST POP DUP1 DUP1 PUSH1 0x1 ADD SWAP2 POP POP PUSH2 0x62A JUMP JUMPDEST POP DUP1 PUSH1 0xD SLOAD PUSH0 SHL EQ SWAP2 POP POP SWAP6 SWAP5 POP POP POP POP POP JUMP JUMPDEST PUSH0 PUSH2 0x816 PUSH1 0x40 MLOAD DUP1 PUSH1 0x40 ADD PUSH1 0x40 MSTORE DUP1 DUP6 PUSH0 PUSH1 0x8 DUP2 LT PUSH2 0x6D2 JUMPI PUSH2 0x6D1 PUSH2 0x2B9F JUMP JUMPDEST JUMPDEST PUSH1 0x20 MUL ADD CALLDATALOAD DUP2 MSTORE PUSH1 0x20 ADD DUP6 PUSH1 0x1 PUSH1 0x8 DUP2 LT PUSH2 0x6F0 JUMPI PUSH2 0x6EF PUSH2 0x2B9F JUMP JUMPDEST JUMPDEST PUSH1 0x20 MUL ADD CALLDATALOAD DUP2 MSTORE POP PUSH1 0x40 MLOAD DUP1 PUSH1 0x40 ADD PUSH1 0x40 MSTORE DUP1 PUSH1 0x40 MLOAD DUP1 PUSH1 0x40 ADD PUSH1 0x40 MSTORE DUP1 DUP9 PUSH1 0x2 PUSH1 0x8 DUP2 LT PUSH2 0x722 JUMPI PUSH2 0x721 PUSH2 0x2B9F JUMP JUMPDEST JUMPDEST PUSH1 0x20 MUL ADD CALLDATALOAD DUP2 MSTORE PUSH1 0x20 ADD DUP9 PUSH1 0x3 PUSH1 0x8 DUP2 LT PUSH2 0x740 JUMPI PUSH2 0x73F PUSH2 0x2B9F JUMP JUMPDEST JUMPDEST PUSH1 0x20 MUL ADD CALLDATALOAD DUP2 MSTORE POP DUP2 MSTORE PUSH1 0x20 ADD PUSH1 0x40 MLOAD DUP1 PUSH1 0x40 ADD PUSH1 0x40 MSTORE DUP1 DUP9 PUSH1 0x4 PUSH1 0x8 DUP2 LT PUSH2 0x76C JUMPI PUSH2 0x76B PUSH2 0x2B9F JUMP JUMPDEST JUMPDEST PUSH1 0x20 MUL ADD CALLDATALOAD DUP2 MSTORE PUSH1 0x20 ADD DUP9 PUSH1 0x5 PUSH1 0x8 DUP2 LT PUSH2 0x78A JUMPI PUSH2 0x789 PUSH2 0x2B9F JUMP JUMPDEST JUMPDEST PUSH1 0x20 MUL ADD CALLDATALOAD DUP2 MSTORE POP DUP2 MSTORE POP PUSH1 0x40 MLOAD DUP1 PUSH1 0x40 ADD PUSH1 0x40 MSTORE DUP1 DUP8 PUSH1 0x6 PUSH1 0x8 DUP2 LT PUSH2 0x7B4 JUMPI PUSH2 0x7B3 PUSH2 0x2B9F JUMP JUMPDEST JUMPDEST PUSH1 0x20 MUL ADD CALLDATALOAD DUP2 MSTORE PUSH1 0x20 ADD DUP8 PUSH1 0x7 PUSH1 0x8 DUP2 LT PUSH2 0x7D2 JUMPI PUSH2 0x7D1 PUSH2 0x2B9F JUMP JUMPDEST JUMPDEST PUSH1 0x20 MUL ADD CALLDATALOAD DUP2 MSTORE POP DUP6 PUSH1 0x1 DUP1 PUSH1 0x20 MUL PUSH1 0x40 MLOAD SWAP1 DUP2 ADD PUSH1 0x40 MSTORE DUP1 SWAP3 SWAP2 SWAP1 DUP3 PUSH1 0x1 PUSH1 0x20 MUL DUP1 DUP3 DUP5 CALLDATACOPY PUSH0 DUP2 DUP5 ADD MSTORE PUSH1 0x1F NOT PUSH1 0x1F DUP3 ADD AND SWAP1 POP DUP1 DUP4 ADD SWAP3 POP POP POP POP POP POP PUSH2 0x149C JUMP JUMPDEST SWAP1 POP SWAP3 SWAP2 POP POP JUMP JUMPDEST PUSH2 0x826 PUSH2 0x177E JUMP JUMPDEST PUSH2 0x82E PUSH2 0x17C4 JUMP JUMPDEST PUSH1 0xA PUSH0 DUP6 DUP2 MSTORE PUSH1 0x20 ADD SWAP1 DUP2 MSTORE PUSH1 0x20 ADD PUSH0 KECCAK256 PUSH0 SWAP1 SLOAD SWAP1 PUSH2 0x100 EXP SWAP1 DIV PUSH1 0xFF AND ISZERO PUSH2 0x88C JUMPI PUSH1 0x40 MLOAD PUSH32 0x8C379A000000000000000000000000000000000000000000000000000000000 DUP2 MSTORE PUSH1 0x4 ADD PUSH2 0x883 SWAP1 PUSH2 0x2C16 JUMP JUMPDEST PUSH1 0x40 MLOAD DUP1 SWAP2 SUB SWAP1 REVERT JUMPDEST PUSH0 PUSH1 0x9 PUSH0 DUP6 DUP2 MSTORE PUSH1 0x20 ADD SWAP1 DUP2 MSTORE PUSH1 0x20 ADD PUSH0 KECCAK256 SWAP1 POP DUP4 DUP2 PUSH0 ADD SLOAD EQ PUSH2 0x8E5 JUMPI PUSH1 0x40 MLOAD PUSH32 0x8C379A000000000000000000000000000000000000000000000000000000000 DUP2 MSTORE PUSH1 0x4 ADD PUSH2 0x8DC SWAP1 PUSH2 0x2C7E JUMP JUMPDEST PUSH1 0x40 MLOAD DUP1 SWAP2 SUB SWAP1 REVERT JUMPDEST DUP1 PUSH1 0x3 ADD PUSH1 0x14 SWAP1 SLOAD SWAP1 PUSH2 0x100 EXP SWAP1 DIV PUSH1 0xFF AND ISZERO PUSH2 0x937 JUMPI PUSH1 0x40 MLOAD PUSH32 0x8C379A000000000000000000000000000000000000000000000000000000000 DUP2 MSTORE PUSH1 0x4 ADD PUSH2 0x92E SWAP1 PUSH2 0x2CE6 JUMP JUMPDEST PUSH1 0x40 MLOAD DUP1 SWAP2 SUB SWAP1 REVERT JUMPDEST PUSH0 PUSH1 0x40 MLOAD DUP1 PUSH1 0x20 ADD PUSH1 0x40 MSTORE DUP1 CALLER PUSH20 0xFFFFFFFFFFFFFFFFFFFFFFFFFFFFFFFFFFFFFFFF AND DUP2 MSTORE POP SWAP1 POP ADDRESS PUSH20 0xFFFFFFFFFFFFFFFFFFFFFFFFFFFFFFFFFFFFFFFF AND PUSH4 0x1B81F829 DUP5 DUP4 PUSH1 0x40 MLOAD DUP4 PUSH4 0xFFFFFFFF AND PUSH1 0xE0 SHL DUP2 MSTORE PUSH1 0x4 ADD PUSH2 0x99A SWAP3 SWAP2 SWAP1 PUSH2 0x2D9D JUMP JUMPDEST PUSH1 0x20 PUSH1 0x40 MLOAD DUP1 DUP4 SUB DUP2 DUP7 GAS STATICCALL ISZERO DUP1 ISZERO PUSH2 0x9B5 JUMPI RETURNDATASIZE PUSH0 DUP1 RETURNDATACOPY RETURNDATASIZE PUSH0 REVERT JUMPDEST POP POP POP POP PUSH1 0x40 MLOAD RETURNDATASIZE PUSH1 0x1F NOT PUSH1 0x1F DUP3 ADD AND DUP3 ADD DUP1 PUSH1 0x40 MSTORE POP DUP2 ADD SWAP1 PUSH2 0x9D9 SWAP2 SWAP1 PUSH2 0x2DF0 JUMP JUMPDEST PUSH2 0xA18 JUMPI PUSH1 0x40 MLOAD PUSH32 0x8C379A000000000000000000000000000000000000000000000000000000000 DUP2 MSTORE PUSH1 0x4 ADD PUSH2 0xA0F SWAP1 PUSH2 0x2E65 JUMP JUMPDEST PUSH1 0x40 MLOAD DUP1 SWAP2 SUB SWAP1 REVERT JUMPDEST PUSH1 0x1 PUSH1 0xA PUSH0 DUP9 DUP2 MSTORE PUSH1 0x20 ADD SWAP1 DUP2 MSTORE PUSH1 0x20 ADD PUSH0 KECCAK256 PUSH0 PUSH2 0x100 EXP DUP2 SLOAD DUP2 PUSH1 0xFF MUL NOT AND SWAP1 DUP4 ISZERO ISZERO MUL OR SWAP1 SSTORE POP PUSH1 0x1 DUP3 PUSH1 0x3 ADD PUSH1 0x14 PUSH2 0x100 EXP DUP2 SLOAD DUP2 PUSH1 0xFF MUL NOT AND SWAP1 DUP4 ISZERO ISZERO MUL OR SWAP1 SSTORE POP DUP6 DUP3 PUSH1 0x1 ADD DUP2 SWAP1 SSTORE POP PUSH1 0x40 MLOAD DUP1 PUSH1 0xA0 ADD PUSH1 0x40 MSTORE DUP1 DUP6 DUP2 MSTORE PUSH1 0x20 ADD PUSH0 DUP1 SHL DUP2 MSTORE PUSH1 0x20 ADD DUP4 PUSH1 0x2 ADD SLOAD DUP2 MSTORE PUSH1 0x20 ADD DUP4 PUSH1 0x3 ADD PUSH0 SWAP1 SLOAD SWAP1 PUSH2 0x100 EXP SWAP1 DIV PUSH20 0xFFFFFFFFFFFFFFFFFFFFFFFFFFFFFFFFFFFFFFFF AND PUSH20 0xFFFFFFFFFFFFFFFFFFFFFFFFFFFFFFFFFFFFFFFF AND DUP2 MSTORE PUSH1 0x20 ADD PUSH0 ISZERO ISZERO DUP2 MSTORE POP PUSH1 0x9 PUSH0 DUP7 DUP2 MSTORE PUSH1 0x20 ADD SWAP1 DUP2 MSTORE PUSH1 0x20 ADD PUSH0 KECCAK256 PUSH0 DUP3 ADD MLOAD DUP2 PUSH0 ADD SSTORE PUSH1 0x20 DUP3 ADD MLOAD DUP2 PUSH1 0x1 ADD SSTORE PUSH1 0x40 DUP3 ADD MLOAD DUP2 PUSH1 0x2 ADD SSTORE PUSH1 0x60 DUP3 ADD MLOAD DUP2 PUSH1 0x3 ADD PUSH0 PUSH2 0x100 EXP DUP2 SLOAD DUP2 PUSH20 0xFFFFFFFFFFFFFFFFFFFFFFFFFFFFFFFFFFFFFFFF MUL NOT AND SWAP1 DUP4 PUSH20 0xFFFFFFFFFFFFFFFFFFFFFFFFFFFFFFFFFFFFFFFF AND MUL OR SWAP1 SSTORE POP PUSH1 0x80 DUP3 ADD MLOAD DUP2 PUSH1 0x3 ADD PUSH1 0x14 PUSH2 0x100 EXP DUP2 SLOAD DUP2 PUSH1 0xFF MUL NOT AND SWAP1 DUP4 ISZERO ISZERO MUL OR SWAP1 SSTORE POP SWAP1 POP POP PUSH2 0xB6E DUP5 PUSH2 0x1805 JUMP JUMPDEST POP DUP2 PUSH1 0x3 ADD PUSH0 SWAP1 SLOAD SWAP1 PUSH2 0x100 EXP SWAP1 DIV PUSH20 0xFFFFFFFFFFFFFFFFFFFFFFFFFFFFFFFFFFFFFFFF AND PUSH20 0xFFFFFFFFFFFFFFFFFFFFFFFFFFFFFFFFFFFFFFFF AND DUP7 PUSH32 0x75FBE81D6BA35C853DD6F90725A9D8A9AA442F562DAEC842F257DCA0A2E52168 TIMESTAMP PUSH1 0x40 MLOAD PUSH2 0xBD9 SWAP2 SWAP1 PUSH2 0x243D JUMP JUMPDEST PUSH1 0x40 MLOAD DUP1 SWAP2 SUB SWAP1 LOG3 DUP2 PUSH1 0x3 ADD PUSH0 SWAP1 SLOAD SWAP1 PUSH2 0x100 EXP SWAP1 DIV PUSH20 0xFFFFFFFFFFFFFFFFFFFFFFFFFFFFFFFFFFFFFFFF AND PUSH20 0xFFFFFFFFFFFFFFFFFFFFFFFFFFFFFFFFFFFFFFFF AND DUP5 DUP7 PUSH32 0xB16F88469E6333DA7FCA2F33F5A3CB03354FBF8E0B773ED465F90D391FFD16CD TIMESTAMP PUSH1 0x40 MLOAD PUSH2 0xC4C SWAP2 SWAP1 PUSH2 0x243D JUMP JUMPDEST PUSH1 0x40 MLOAD DUP1 SWAP2 SUB SWAP1 LOG4 POP POP PUSH2 0xC5E PUSH2 0x18EF JUMP JUMPDEST POP POP POP POP JUMP JUMPDEST PUSH1 0x8 SLOAD DUP2 JUMP JUMPDEST PUSH1 0x60 DUP1 PUSH0 DUP1 SHL PUSH1 0x9 PUSH0 DUP6 DUP2 MSTORE PUSH1 0x20 ADD SWAP1 DUP2 MSTORE PUSH1 0x20 ADD PUSH0 KECCAK256 PUSH0 ADD SLOAD SUB PUSH2 0xCC4 JUMPI PUSH1 0x40 MLOAD PUSH32 0x8C379A000000000000000000000000000000000000000000000000000000000 DUP2 MSTORE PUSH1 0x4 ADD PUSH2 0xCBB SWAP1 PUSH2 0x2C7E JUMP JUMPDEST PUSH1 0x40 MLOAD DUP1 SWAP2 SUB SWAP1 REVERT JUMPDEST PUSH1 0x14 PUSH8 0xFFFFFFFFFFFFFFFF DUP2 GT ISZERO PUSH2 0xCDF JUMPI PUSH2 0xCDE PUSH2 0x2E83 JUMP JUMPDEST JUMPDEST PUSH1 0x40 MLOAD SWAP1 DUP1 DUP3 MSTORE DUP1 PUSH1 0x20 MUL PUSH1 0x20 ADD DUP3 ADD PUSH1 0x40 MSTORE DUP1 ISZERO PUSH2 0xD0D JUMPI DUP2 PUSH1 0x20 ADD PUSH1 0x20 DUP3 MUL DUP1 CALLDATASIZE DUP4 CALLDATACOPY DUP1 DUP3 ADD SWAP2 POP POP SWAP1 POP JUMPDEST POP SWAP2 POP PUSH1 0x14 PUSH8 0xFFFFFFFFFFFFFFFF DUP2 GT ISZERO PUSH2 0xD2B JUMPI PUSH2 0xD2A PUSH2 0x2E83 JUMP JUMPDEST JUMPDEST PUSH1 0x40 MLOAD SWAP1 DUP1 DUP3 MSTORE DUP1 PUSH1 0x20 MUL PUSH1 0x20 ADD DUP3 ADD PUSH1 0x40 MSTORE DUP1 ISZERO PUSH2 0xD59 JUMPI DUP2 PUSH1 0x20 ADD PUSH1 0x20 DUP3 MUL DUP1 CALLDATASIZE DUP4 CALLDATACOPY DUP1 DUP3 ADD SWAP2 POP POP SWAP1 POP JUMPDEST POP SWAP1 POP PUSH0 DUP1 JUMPDEST PUSH1 0xE SLOAD DUP2 LT ISZERO PUSH2 0xDA7 JUMPI DUP5 PUSH1 0xB PUSH0 DUP1 PUSH0 SHL DUP2 MSTORE PUSH1 0x20 ADD SWAP1 DUP2 MSTORE PUSH1 0x20 ADD PUSH0 KECCAK256 PUSH0 DUP4 DUP2 MSTORE PUSH1 0x20 ADD SWAP1 DUP2 MSTORE PUSH1 0x20 ADD PUSH0 KECCAK256 SLOAD SUB PUSH2 0xD9A JUMPI DUP1 SWAP2 POP PUSH2 0xDA7 JUMP JUMPDEST DUP1 DUP1 PUSH1 0x1 ADD SWAP2 POP POP PUSH2 0xD5F JUMP JUMPDEST POP PUSH0 JUMPDEST PUSH1 0x14 DUP2 LT ISZERO PUSH2 0xE4B JUMPI PUSH0 PUSH2 0xDBE DUP4 DUP4 PUSH2 0x18F8 JUMP JUMPDEST SWAP1 POP PUSH1 0xB PUSH0 DUP1 PUSH0 SHL DUP2 MSTORE PUSH1 0x20 ADD SWAP1 DUP2 MSTORE PUSH1 0x20 ADD PUSH0 KECCAK256 PUSH0 DUP3 DUP2 MSTORE PUSH1 0x20 ADD SWAP1 DUP2 MSTORE PUSH1 0x20 ADD PUSH0 KECCAK256 SLOAD DUP6 DUP4 DUP2 MLOAD DUP2 LT PUSH2 0xDF6 JUMPI PUSH2 0xDF5 PUSH2 0x2B9F JUMP JUMPDEST JUMPDEST PUSH1 0x20 MUL PUSH1 0x20 ADD ADD DUP2 DUP2 MSTORE POP POP PUSH1 0x2 DUP4 PUSH2 0xE0F SWAP2 SWAP1 PUSH2 0x2EDD JUMP JUMPDEST DUP5 DUP4 DUP2 MLOAD DUP2 LT PUSH2 0xE22 JUMPI PUSH2 0xE21 PUSH2 0x2B9F JUMP JUMPDEST JUMPDEST PUSH1 0x20 MUL PUSH1 0x20 ADD ADD DUP2 DUP2 MSTORE POP POP PUSH1 0x2 DUP4 PUSH2 0xE3B SWAP2 SWAP1 PUSH2 0x2F3A JUMP JUMPDEST SWAP3 POP POP DUP1 DUP1 PUSH1 0x1 ADD SWAP2 POP POP PUSH2 0xDAA JUMP JUMPDEST POP POP SWAP2 POP SWAP2 JUMP JUMPDEST PUSH1 0xA PUSH1 0x20 MSTORE DUP1 PUSH0 MSTORE PUSH1 0x40 PUSH0 KECCAK256 PUSH0 SWAP2 POP SLOAD SWAP1 PUSH2 0x100 EXP SWAP1 DIV PUSH1 0xFF AND DUP2 JUMP JUMPDEST PUSH2 0xE77 PUSH2 0x1908 JUMP JUMPDEST PUSH2 0xE7F PUSH2 0x198F JUMP JUMPDEST JUMP JUMPDEST PUSH2 0xE89 PUSH2 0x177E JUMP JUMPDEST PUSH2 0xE91 PUSH2 0x17C4 JUMP JUMPDEST PUSH10 0xD3C21BCECCEDA1000000 DUP3 GT ISZERO PUSH2 0xEDE JUMPI PUSH1 0x40 MLOAD PUSH32 0x8C379A000000000000000000000000000000000000000000000000000000000 DUP2 MSTORE PUSH1 0x4 ADD PUSH2 0xED5 SWAP1 PUSH2 0x2FB4 JUMP JUMPDEST PUSH1 0x40 MLOAD DUP1 SWAP2 SUB SWAP1 REVERT JUMPDEST PUSH0 DUP1 SHL PUSH1 0x9 PUSH0 DUP7 DUP2 MSTORE PUSH1 0x20 ADD SWAP1 DUP2 MSTORE PUSH1 0x20 ADD PUSH0 KECCAK256 PUSH0 ADD SLOAD EQ PUSH2 0xF35 JUMPI PUSH1 0x40 MLOAD PUSH32 0x8C379A000000000000000000000000000000000000000000000000000000000 DUP2 MSTORE PUSH1 0x4 ADD PUSH2 0xF2C SWAP1 PUSH2 0x301C JUMP JUMPDEST PUSH1 0x40 MLOAD DUP1 SWAP2 SUB SWAP1 REVERT JUMPDEST PUSH0 PUSH1 0x40 MLOAD DUP1 PUSH1 0x20 ADD PUSH1 0x40 MSTORE DUP1 CALLER PUSH20 0xFFFFFFFFFFFFFFFFFFFFFFFFFFFFFFFFFFFFFFFF AND DUP2 MSTORE POP SWAP1 POP ADDRESS PUSH20 0xFFFFFFFFFFFFFFFFFFFFFFFFFFFFFFFFFFFFFFFF AND PUSH4 0x1B81F829 DUP4 DUP4 PUSH1 0x40 MLOAD DUP4 PUSH4 0xFFFFFFFF AND PUSH1 0xE0 SHL DUP2 MSTORE PUSH1 0x4 ADD PUSH2 0xF98 SWAP3 SWAP2 SWAP1 PUSH2 0x2D9D JUMP JUMPDEST PUSH1 0x20 PUSH1 0x40 MLOAD DUP1 DUP4 SUB DUP2 DUP7 GAS STATICCALL ISZERO DUP1 ISZERO PUSH2 0xFB3 JUMPI RETURNDATASIZE PUSH0 DUP1 RETURNDATACOPY RETURNDATASIZE PUSH0 REVERT JUMPDEST POP POP POP POP PUSH1 0x40 MLOAD RETURNDATASIZE PUSH1 0x1F NOT PUSH1 0x1F DUP3 ADD AND DUP3 ADD DUP1 PUSH1 0x40 MSTORE POP DUP2 ADD SWAP1 PUSH2 0xFD7 SWAP2 SWAP1 PUSH2 0x2DF0 JUMP JUMPDEST PUSH2 0x1016 JUMPI PUSH1 0x40 MLOAD PUSH32 0x8C379A000000000000000000000000000000000000000000000000000000000 DUP2 MSTORE PUSH1 0x4 ADD PUSH2 0x100D SWAP1 PUSH2 0x2E65 JUMP JUMPDEST PUSH1 0x40 MLOAD DUP1 SWAP2 SUB SWAP1 REVERT JUMPDEST DUP4 PUSH20 0xFFFFFFFFFFFFFFFFFFFFFFFFFFFFFFFFFFFFFFFF AND PUSH4 0x23B872DD CALLER ADDRESS DUP7 PUSH1 0x40 MLOAD DUP5 PUSH4 0xFFFFFFFF AND PUSH1 0xE0 SHL DUP2 MSTORE PUSH1 0x4 ADD PUSH2 0x1053 SWAP4 SWAP3 SWAP2 SWAP1 PUSH2 0x303A JUMP JUMPDEST PUSH1 0x20 PUSH1 0x40 MLOAD DUP1 DUP4 SUB DUP2 PUSH0 DUP8 GAS CALL ISZERO DUP1 ISZERO PUSH2 0x106F JUMPI RETURNDATASIZE PUSH0 DUP1 RETURNDATACOPY RETURNDATASIZE PUSH0 REVERT JUMPDEST POP POP POP POP PUSH1 0x40 MLOAD RETURNDATASIZE PUSH1 0x1F NOT PUSH1 0x1F DUP3 ADD AND DUP3 ADD DUP1 PUSH1 0x40 MSTORE POP DUP2 ADD SWAP1 PUSH2 0x1093 SWAP2 SWAP1 PUSH2 0x2DF0 JUMP JUMPDEST POP PUSH1 0x40 MLOAD DUP1 PUSH1 0xA0 ADD PUSH1 0x40 MSTORE DUP1 DUP7 DUP2 MSTORE PUSH1 0x20 ADD PUSH0 DUP1 SHL DUP2 MSTORE PUSH1 0x20 ADD DUP5 DUP2 MSTORE PUSH1 0x20 ADD DUP6 PUSH20 0xFFFFFFFFFFFFFFFFFFFFFFFFFFFFFFFFFFFFFFFF AND DUP2 MSTORE PUSH1 0x20 ADD PUSH0 ISZERO ISZERO DUP2 MSTORE POP PUSH1 0x9 PUSH0 DUP8 DUP2 MSTORE PUSH1 0x20 ADD SWAP1 DUP2 MSTORE PUSH1 0x20 ADD PUSH0 KECCAK256 PUSH0 DUP3 ADD MLOAD DUP2 PUSH0 ADD SSTORE PUSH1 0x20 DUP3 ADD MLOAD DUP2 PUSH1 0x1 ADD SSTORE PUSH1 0x40 DUP3 ADD MLOAD DUP2 PUSH1 0x2 ADD SSTORE PUSH1 0x60 DUP3 ADD MLOAD DUP2 PUSH1 0x3 ADD PUSH0 PUSH2 0x100 EXP DUP2 SLOAD DUP2 PUSH20 0xFFFFFFFFFFFFFFFFFFFFFFFFFFFFFFFFFFFFFFFF MUL NOT AND SWAP1 DUP4 PUSH20 0xFFFFFFFFFFFFFFFFFFFFFFFFFFFFFFFFFFFFFFFF AND MUL OR SWAP1 SSTORE POP PUSH1 0x80 DUP3 ADD MLOAD DUP2 PUSH1 0x3 ADD PUSH1 0x14 PUSH2 0x100 EXP DUP2 SLOAD DUP2 PUSH1 0xFF MUL NOT AND SWAP1 DUP4 ISZERO ISZERO MUL OR SWAP1 SSTORE POP SWAP1 POP POP PUSH0 PUSH2 0x1175 DUP7 PUSH2 0x1805 JUMP JUMPDEST SWAP1 POP DUP1 DUP6 PUSH20 0xFFFFFFFFFFFFFFFFFFFFFFFFFFFFFFFFFFFFFFFF AND DUP8 PUSH32 0x3249A1E3B1CA9D666464424243AD0E102E29D4CDA1D16A3BA8D6B72AB44DF76D TIMESTAMP PUSH1 0x40 MLOAD PUSH2 0x11BF SWAP2 SWAP1 PUSH2 0x243D JUMP JUMPDEST PUSH1 0x40 MLOAD DUP1 SWAP2 SUB SWAP1 LOG4 POP POP PUSH2 0x11D1 PUSH2 0x18EF JUMP JUMPDEST POP POP POP POP JUMP JUMPDEST PUSH0 PUSH1 0xD SLOAD PUSH0 SHL SWAP1 POP SWAP1 JUMP JUMPDEST PUSH1 0xC PUSH1 0x20 MSTORE DUP1 PUSH0 MSTORE PUSH1 0x40 PUSH0 KECCAK256 PUSH0 SWAP2 POP SWAP1 POP SLOAD DUP2 JUMP JUMPDEST PUSH0 PUSH1 0x2 PUSH0 SWAP1 SLOAD SWAP1 PUSH2 0x100 EXP SWAP1 DIV PUSH1 0xFF AND SWAP1 POP SWAP1 JUMP JUMPDEST PUSH1 0x6 PUSH1 0x20 MSTORE DUP1 PUSH0 MSTORE PUSH1 0x40 PUSH0 KECCAK256 PUSH0 SWAP2 POP SWAP1 POP SLOAD DUP2 JUMP JUMPDEST PUSH1 0x5 PUSH1 0x20 MSTORE DUP1 PUSH0 MSTORE PUSH1 0x40 PUSH0 KECCAK256 PUSH0 SWAP2 POP SWAP1 POP SLOAD DUP2 JUMP JUMPDEST PUSH2 0x123E PUSH2 0x1908 JUMP JUMPDEST PUSH2 0x1247 PUSH0 PUSH2 0x19F0 JUMP JUMPDEST JUMP JUMPDEST PUSH2 0x1251 PUSH2 0x1908 JUMP JUMPDEST PUSH2 0x1259 PUSH2 0x1AB1 JUMP JUMPDEST JUMP JUMPDEST PUSH1 0x9 PUSH1 0x20 MSTORE DUP1 PUSH0 MSTORE PUSH1 0x40 PUSH0 KECCAK256 PUSH0 SWAP2 POP SWAP1 POP DUP1 PUSH0 ADD SLOAD SWAP1 DUP1 PUSH1 0x1 ADD SLOAD SWAP1 DUP1 PUSH1 0x2 ADD SLOAD SWAP1 DUP1 PUSH1 0x3 ADD PUSH0 SWAP1 SLOAD SWAP1 PUSH2 0x100 EXP SWAP1 DIV PUSH20 0xFFFFFFFFFFFFFFFFFFFFFFFFFFFFFFFFFFFFFFFF AND SWAP1 DUP1 PUSH1 0x3 ADD PUSH1 0x14 SWAP1 SLOAD SWAP1 PUSH2 0x100 EXP SWAP1 DIV PUSH1 0xFF AND SWAP1 POP DUP6 JUMP JUMPDEST PUSH0 DUP1 PUSH0 SWAP1 SLOAD SWAP1 PUSH2 0x100 EXP SWAP1 DIV PUSH20 0xFFFFFFFFFFFFFFFFFFFFFFFFFFFFFFFFFFFFFFFF AND SWAP1 POP SWAP1 JUMP JUMPDEST PUSH1 0x14 DUP2 JUMP JUMPDEST PUSH1 0x4 PUSH1 0x20 MSTORE DUP2 PUSH0 MSTORE PUSH1 0x40 PUSH0 KECCAK256 PUSH1 0x20 MSTORE DUP1 PUSH0 MSTORE PUSH1 0x40 PUSH0 KECCAK256 PUSH0 SWAP2 POP SWAP2 POP POP SLOAD DUP2 JUMP JUMPDEST PUSH1 0xB PUSH1 0x20 MSTORE DUP2 PUSH0 MSTORE PUSH1 0x40 PUSH0 KECCAK256 PUSH1 0x20 MSTORE DUP1 PUSH0 MSTORE PUSH1 0x40 PUSH0 KECCAK256 PUSH0 SWAP2 POP SWAP2 POP POP SLOAD DUP2 JUMP JUMPDEST PUSH0 PUSH1 0xE SLOAD SWAP1 POP SWAP1 JUMP JUMPDEST PUSH0 PUSH1 0x14 PUSH1 0x2 PUSH2 0x133D SWAP2 SWAP1 PUSH2 0x319E JUMP JUMPDEST DUP3 LT PUSH2 0x137E JUMPI PUSH1 0x40 MLOAD PUSH32 0x8C379A000000000000000000000000000000000000000000000000000000000 DUP2 MSTORE PUSH1 0x4 ADD PUSH2 0x1375 SWAP1 PUSH2 0x3232 JUMP JUMPDEST PUSH1 0x40 MLOAD DUP1 SWAP2 SUB SWAP1 REVERT JUMPDEST PUSH0 PUSH1 0xB PUSH0 DUP1 PUSH0 SHL DUP2 MSTORE PUSH1 0x20 ADD SWAP1 DUP2 MSTORE PUSH1 0x20 ADD PUSH0 KECCAK256 PUSH0 DUP5 DUP2 MSTORE PUSH1 0x20 ADD SWAP1 DUP2 MSTORE PUSH1 0x20 ADD PUSH0 KECCAK256 SLOAD SWAP1 POP PUSH0 DUP1 SHL DUP2 EQ ISZERO SWAP2 POP POP SWAP2 SWAP1 POP JUMP JUMPDEST PUSH2 0x13BA PUSH2 0x1908 JUMP JUMPDEST PUSH0 PUSH20 0xFFFFFFFFFFFFFFFFFFFFFFFFFFFFFFFFFFFFFFFF AND DUP2 PUSH20 0xFFFFFFFFFFFFFFFFFFFFFFFFFFFFFFFFFFFFFFFF AND SUB PUSH2 0x142A JUMPI PUSH0 PUSH1 0x40 MLOAD PUSH32 0x1E4FBDF700000000000000000000000000000000000000000000000000000000 DUP2 MSTORE PUSH1 0x4 ADD PUSH2 0x1421 SWAP2 SWAP1 PUSH2 0x2A2A JUMP JUMPDEST PUSH1 0x40 MLOAD DUP1 SWAP2 SUB SWAP1 REVERT JUMPDEST PUSH2 0x1433 DUP2 PUSH2 0x19F0 JUMP JUMPDEST POP JUMP JUMPDEST PUSH10 0xD3C21BCECCEDA1000000 DUP2 JUMP JUMPDEST PUSH1 0x7 PUSH1 0x20 MSTORE DUP2 PUSH0 MSTORE PUSH1 0x40 PUSH0 KECCAK256 PUSH1 0x20 MSTORE DUP1 PUSH0 MSTORE PUSH1 0x40 PUSH0 KECCAK256 PUSH0 SWAP2 POP SWAP2 POP POP SLOAD DUP2 JUMP JUMPDEST PUSH1 0xD SLOAD DUP2 JUMP JUMPDEST PUSH0 DUP3 DUP3 PUSH1 0x40 MLOAD PUSH1 0x20 ADD PUSH2 0x147E SWAP3 SWAP2 SWAP1 PUSH2 0x3270 JUMP JUMPDEST PUSH1 0x40 MLOAD PUSH1 0x20 DUP2 DUP4 SUB SUB DUP2 MSTORE SWAP1 PUSH1 0x40 MSTORE DUP1 MLOAD SWAP1 PUSH1 0x20 ADD KECCAK256 SWAP1 POP SWAP3 SWAP2 POP POP JUMP JUMPDEST PUSH0 PUSH1 0x8 SLOAD PUSH1 0x1 DUP1 PUSH2 0x14AD SWAP2 SWAP1 PUSH2 0x329B JUMP JUMPDEST EQ PUSH2 0x14ED JUMPI PUSH1 0x40 MLOAD PUSH32 0x8C379A000000000000000000000000000000000000000000000000000000000 DUP2 MSTORE PUSH1 0x4 ADD PUSH2 0x14E4 SWAP1 PUSH2 0x3318 JUMP JUMPDEST PUSH1 0x40 MLOAD DUP1 SWAP2 SUB SWAP1 REVERT JUMPDEST PUSH0 PUSH1 0x40 MLOAD DUP1 PUSH1 0x40 ADD PUSH1 0x40 MSTORE DUP1 PUSH1 0x7 PUSH0 DUP1 DUP2 MSTORE PUSH1 0x20 ADD SWAP1 DUP2 MSTORE PUSH1 0x20 ADD PUSH0 KECCAK256 PUSH0 DUP1 DUP2 MSTORE PUSH1 0x20 ADD SWAP1 DUP2 MSTORE PUSH1 0x20 ADD PUSH0 KECCAK256 SLOAD DUP2 MSTORE PUSH1 0x20 ADD PUSH1 0x7 PUSH0 DUP1 DUP2 MSTORE PUSH1 0x20 ADD SWAP1 DUP2 MSTORE PUSH1 0x20 ADD PUSH0 KECCAK256 PUSH0 PUSH1 0x1 DUP2 MSTORE PUSH1 0x20 ADD SWAP1 DUP2 MSTORE PUSH1 0x20 ADD PUSH0 KECCAK256 SLOAD DUP2 MSTORE POP SWAP1 POP PUSH0 JUMPDEST PUSH1 0x1 DUP2 LT ISZERO PUSH2 0x1668 JUMPI PUSH0 DUP1 PUSH2 0x15E1 PUSH1 0x40 MLOAD DUP1 PUSH1 0x40 ADD PUSH1 0x40 MSTORE DUP1 PUSH1 0x7 PUSH0 PUSH1 0x1 DUP9 PUSH2 0x1571 SWAP2 SWAP1 PUSH2 0x329B JUMP JUMPDEST DUP2 MSTORE PUSH1 0x20 ADD SWAP1 DUP2 MSTORE PUSH1 0x20 ADD PUSH0 KECCAK256 PUSH0 DUP1 DUP2 MSTORE PUSH1 0x20 ADD SWAP1 DUP2 MSTORE PUSH1 0x20 ADD PUSH0 KECCAK256 SLOAD DUP2 MSTORE PUSH1 0x20 ADD PUSH1 0x7 PUSH0 PUSH1 0x1 DUP9 PUSH2 0x15A3 SWAP2 SWAP1 PUSH2 0x329B JUMP JUMPDEST DUP2 MSTORE PUSH1 0x20 ADD SWAP1 DUP2 MSTORE PUSH1 0x20 ADD PUSH0 KECCAK256 PUSH0 PUSH1 0x1 DUP2 MSTORE PUSH1 0x20 ADD SWAP1 DUP2 MSTORE PUSH1 0x20 ADD PUSH0 KECCAK256 SLOAD DUP2 MSTORE POP DUP8 DUP6 PUSH1 0x1 DUP2 LT PUSH2 0x15D7 JUMPI PUSH2 0x15D6 PUSH2 0x2B9F JUMP JUMPDEST JUMPDEST PUSH1 0x20 MUL ADD MLOAD PUSH2 0x1B13 JUMP JUMPDEST SWAP2 POP SWAP2 POP PUSH2 0x1620 DUP5 PUSH0 PUSH1 0x2 DUP2 LT PUSH2 0x15FB JUMPI PUSH2 0x15FA PUSH2 0x2B9F JUMP JUMPDEST JUMPDEST PUSH1 0x20 MUL ADD MLOAD DUP6 PUSH1 0x1 PUSH1 0x2 DUP2 LT PUSH2 0x1614 JUMPI PUSH2 0x1613 PUSH2 0x2B9F JUMP JUMPDEST JUMPDEST PUSH1 0x20 MUL ADD MLOAD DUP5 DUP5 PUSH2 0x1B67 JUMP JUMPDEST DUP6 PUSH0 PUSH1 0x2 DUP2 LT PUSH2 0x1633 JUMPI PUSH2 0x1632 PUSH2 0x2B9F JUMP JUMPDEST JUMPDEST PUSH1 0x20 MUL ADD DUP7 PUSH1 0x1 PUSH1 0x2 DUP2 LT PUSH2 0x164B JUMPI PUSH2 0x164A PUSH2 0x2B9F JUMP JUMPDEST JUMPDEST PUSH1 0x20 MUL ADD DUP3 DUP2 MSTORE POP DUP3 DUP2 MSTORE POP POP POP POP POP DUP1 DUP1 PUSH1 0x1 ADD SWAP2 POP POP PUSH2 0x1548 JUMP JUMPDEST POP PUSH2 0x1773 DUP7 DUP7 PUSH1 0x40 MLOAD DUP1 PUSH1 0x40 ADD PUSH1 0x40 MSTORE DUP1 PUSH1 0x3 PUSH0 DUP1 DUP2 MSTORE PUSH1 0x20 ADD SWAP1 DUP2 MSTORE PUSH1 0x20 ADD PUSH0 KECCAK256 SLOAD DUP2 MSTORE PUSH1 0x20 ADD PUSH1 0x3 PUSH0 PUSH1 0x1 DUP2 MSTORE PUSH1 0x20 ADD SWAP1 DUP2 MSTORE PUSH1 0x20 ADD PUSH0 KECCAK256 SLOAD DUP2 MSTORE POP PUSH1 0x40 MLOAD DUP1 PUSH1 0x40 ADD PUSH1 0x40 MSTORE DUP1 PUSH1 0x4 PUSH0 DUP1 DUP2 MSTORE PUSH1 0x20 ADD SWAP1 DUP2 MSTORE PUSH1 0x20 ADD PUSH0 KECCAK256 PUSH0 DUP1 DUP2 MSTORE PUSH1 0x20 ADD SWAP1 DUP2 MSTORE PUSH1 0x20 ADD PUSH0 KECCAK256 SLOAD DUP2 MSTORE PUSH1 0x20 ADD PUSH1 0x4 PUSH0 DUP1 DUP2 MSTORE PUSH1 0x20 ADD SWAP1 DUP2 MSTORE PUSH1 0x20 ADD PUSH0 KECCAK256 PUSH0 PUSH1 0x1 DUP2 MSTORE PUSH1 0x20 ADD SWAP1 DUP2 MSTORE PUSH1 0x20 ADD PUSH0 KECCAK256 SLOAD DUP2 MSTORE POP DUP6 PUSH1 0x40 MLOAD DUP1 PUSH1 0x40 ADD PUSH1 0x40 MSTORE DUP1 PUSH1 0x5 PUSH0 DUP1 DUP2 MSTORE PUSH1 0x20 ADD SWAP1 DUP2 MSTORE PUSH1 0x20 ADD PUSH0 KECCAK256 SLOAD DUP2 MSTORE PUSH1 0x20 ADD PUSH1 0x5 PUSH0 PUSH1 0x1 DUP2 MSTORE PUSH1 0x20 ADD SWAP1 DUP2 MSTORE PUSH1 0x20 ADD PUSH0 KECCAK256 SLOAD DUP2 MSTORE POP DUP11 PUSH1 0x40 MLOAD DUP1 PUSH1 0x40 ADD PUSH1 0x40 MSTORE DUP1 PUSH1 0x6 PUSH0 DUP1 DUP2 MSTORE PUSH1 0x20 ADD SWAP1 DUP2 MSTORE PUSH1 0x20 ADD PUSH0 KECCAK256 SLOAD DUP2 MSTORE PUSH1 0x20 ADD PUSH1 0x6 PUSH0 PUSH1 0x1 DUP2 MSTORE PUSH1 0x20 ADD SWAP1 DUP2 MSTORE PUSH1 0x20 ADD PUSH0 KECCAK256 SLOAD DUP2 MSTORE POP PUSH2 0x1B8E JUMP JUMPDEST SWAP2 POP POP SWAP5 SWAP4 POP POP POP POP JUMP JUMPDEST PUSH1 0x2 PUSH1 0x1 SLOAD SUB PUSH2 0x17BA JUMPI PUSH1 0x40 MLOAD PUSH32 0x3EE5AEB500000000000000000000000000000000000000000000000000000000 DUP2 MSTORE PUSH1 0x4 ADD PUSH1 0x40 MLOAD DUP1 SWAP2 SUB SWAP1 REVERT JUMPDEST PUSH1 0x2 PUSH1 0x1 DUP2 SWAP1 SSTORE POP JUMP JUMPDEST PUSH2 0x17CC PUSH2 0x11F7 JUMP JUMPDEST ISZERO PUSH2 0x1803 JUMPI PUSH1 0x40 MLOAD PUSH32 0xD93C066500000000000000000000000000000000000000000000000000000000 DUP2 MSTORE PUSH1 0x4 ADD PUSH1 0x40 MLOAD DUP1 SWAP2 SUB SWAP1 REVERT JUMPDEST JUMP JUMPDEST PUSH0 DUP1 PUSH2 0x180F PUSH2 0x225E JUMP JUMPDEST SWAP1 POP DUP3 PUSH1 0xB PUSH0 DUP6 DUP2 MSTORE PUSH1 0x20 ADD SWAP1 DUP2 MSTORE PUSH1 0x20 ADD PUSH0 KECCAK256 PUSH0 DUP1 DUP2 MSTORE PUSH1 0x20 ADD SWAP1 DUP2 MSTORE PUSH1 0x20 ADD PUSH0 KECCAK256 DUP2 SWAP1 SSTORE POP PUSH0 DUP4 SWAP1 POP PUSH0 JUMPDEST PUSH1 0x14 DUP2 LT ISZERO PUSH2 0x18C4 JUMPI PUSH0 PUSH2 0x1850 DUP5 DUP4 PUSH2 0x18F8 JUMP JUMPDEST SWAP1 POP PUSH0 PUSH1 0xB PUSH0 DUP1 PUSH0 SHL DUP2 MSTORE PUSH1 0x20 ADD SWAP1 DUP2 MSTORE PUSH1 0x20 ADD PUSH0 KECCAK256 PUSH0 DUP4 DUP2 MSTORE PUSH1 0x20 ADD SWAP1 DUP2 MSTORE PUSH1 0x20 ADD PUSH0 KECCAK256 SLOAD SWAP1 POP PUSH2 0x1882 DUP5 DUP3 PUSH2 0x146A JUMP JUMPDEST SWAP4 POP DUP4 PUSH1 0xB PUSH0 DUP10 DUP2 MSTORE PUSH1 0x20 ADD SWAP1 DUP2 MSTORE PUSH1 0x20 ADD PUSH0 KECCAK256 PUSH0 PUSH1 0x1 DUP7 PUSH2 0x18A4 SWAP2 SWAP1 PUSH2 0x329B JUMP JUMPDEST DUP2 MSTORE PUSH1 0x20 ADD SWAP1 DUP2 MSTORE PUSH1 0x20 ADD PUSH0 KECCAK256 DUP2 SWAP1 SSTORE POP POP POP DUP1 DUP1 PUSH1 0x1 ADD SWAP2 POP POP PUSH2 0x183C JUMP JUMPDEST POP DUP1 PUSH1 0x60 SHR PUSH20 0xFFFFFFFFFFFFFFFFFFFFFFFFFFFFFFFFFFFFFFFF AND PUSH1 0xD DUP2 SWAP1 SSTORE POP DUP2 SWAP3 POP POP POP SWAP2 SWAP1 POP JUMP JUMPDEST PUSH1 0x1 DUP1 DUP2 SWAP1 SSTORE POP JUMP JUMPDEST PUSH0 DUP2 PUSH1 0x1 SWAP1 SHL DUP4 XOR SWAP1 POP SWAP3 SWAP2 POP POP JUMP JUMPDEST PUSH2 0x1910 PUSH2 0x22D2 JUMP JUMPDEST PUSH20 0xFFFFFFFFFFFFFFFFFFFFFFFFFFFFFFFFFFFFFFFF AND PUSH2 0x192E PUSH2 0x12B9 JUMP JUMPDEST PUSH20 0xFFFFFFFFFFFFFFFFFFFFFFFFFFFFFFFFFFFFFFFF AND EQ PUSH2 0x198D JUMPI PUSH2 0x1951 PUSH2 0x22D2 JUMP JUMPDEST PUSH1 0x40 MLOAD PUSH32 0x118CDAA700000000000000000000000000000000000000000000000000000000 DUP2 MSTORE PUSH1 0x4 ADD PUSH2 0x1984 SWAP2 SWAP1 PUSH2 0x2A2A JUMP JUMPDEST PUSH1 0x40 MLOAD DUP1 SWAP2 SUB SWAP1 REVERT JUMPDEST JUMP JUMPDEST PUSH2 0x1997 PUSH2 0x22D9 JUMP JUMPDEST PUSH0 PUSH1 0x2 PUSH0 PUSH2 0x100 EXP DUP2 SLOAD DUP2 PUSH1 0xFF MUL NOT AND SWAP1 DUP4 ISZERO ISZERO MUL OR SWAP1 SSTORE POP PUSH32 0x5DB9EE0A495BF2E6FF9C91A7834C1BA4FDD244A5E8AA4E537BD38AEAE4B073AA PUSH2 0x19D9 PUSH2 0x22D2 JUMP JUMPDEST PUSH1 0x40 MLOAD PUSH2 0x19E6 SWAP2 SWAP1 PUSH2 0x2A2A JUMP JUMPDEST PUSH1 0x40 MLOAD DUP1 SWAP2 SUB SWAP1 LOG1 JUMP JUMPDEST PUSH0 DUP1 PUSH0 SWAP1 SLOAD SWAP1 PUSH2 0x100 EXP SWAP1 DIV PUSH20 0xFFFFFFFFFFFFFFFFFFFFFFFFFFFFFFFFFFFFFFFF AND SWAP1 POP DUP2 PUSH0 DUP1 PUSH2 0x100 EXP DUP2 SLOAD DUP2 PUSH20 0xFFFFFFFFFFFFFFFFFFFFFFFFFFFFFFFFFFFFFFFF MUL NOT AND SWAP1 DUP4 PUSH20 0xFFFFFFFFFFFFFFFFFFFFFFFFFFFFFFFFFFFFFFFF AND MUL OR SWAP1 SSTORE POP DUP2 PUSH20 0xFFFFFFFFFFFFFFFFFFFFFFFFFFFFFFFFFFFFFFFF AND DUP2 PUSH20 0xFFFFFFFFFFFFFFFFFFFFFFFFFFFFFFFFFFFFFFFF AND PUSH32 0x8BE0079C531659141344CD1FD0A4F28419497F9722A3DAAFE3B4186F6B6457E0 PUSH1 0x40 MLOAD PUSH1 0x40 MLOAD DUP1 SWAP2 SUB SWAP1 LOG3 POP POP JUMP JUMPDEST PUSH2 0x1AB9 PUSH2 0x17C4 JUMP JUMPDEST PUSH1 0x1 PUSH1 0x2 PUSH0 PUSH2 0x100 EXP DUP2 SLOAD DUP2 PUSH1 0xFF MUL NOT AND SWAP1 DUP4 ISZERO ISZERO MUL OR SWAP1 SSTORE POP PUSH32 0x62E78CEA01BEE320CD4E420270B5EA74000D11B0C9F74754EBDBFC544B05A258 PUSH2 0x1AFC PUSH2 0x22D2 JUMP JUMPDEST PUSH1 0x40 MLOAD PUSH2 0x1B09 SWAP2 SWAP1 PUSH2 0x2A2A JUMP JUMPDEST PUSH1 0x40 MLOAD DUP1 SWAP2 SUB SWAP1 LOG1 JUMP JUMPDEST PUSH0 DUP1 DUP3 DUP5 PUSH0 PUSH1 0x2 DUP2 LT PUSH2 0x1B29 JUMPI PUSH2 0x1B28 PUSH2 0x2B9F JUMP JUMPDEST JUMPDEST PUSH1 0x20 MUL ADD MLOAD PUSH2 0x1B38 SWAP2 SWAP1 PUSH2 0x3336 JUMP JUMPDEST DUP4 DUP6 PUSH1 0x1 PUSH1 0x2 DUP2 LT PUSH2 0x1B4D JUMPI PUSH2 0x1B4C PUSH2 0x2B9F JUMP JUMPDEST JUMPDEST PUSH1 0x20 MUL ADD MLOAD PUSH2 0x1B5C SWAP2 SWAP1 PUSH2 0x3336 JUMP JUMPDEST SWAP2 POP SWAP2 POP SWAP3 POP SWAP3 SWAP1 POP JUMP JUMPDEST PUSH0 DUP1 DUP4 DUP7 PUSH2 0x1B75 SWAP2 SWAP1 PUSH2 0x329B JUMP JUMPDEST DUP4 DUP7 PUSH2 0x1B81 SWAP2 SWAP1 PUSH2 0x329B JUMP JUMPDEST SWAP2 POP SWAP2 POP SWAP5 POP SWAP5 SWAP3 POP POP POP JUMP JUMPDEST PUSH0 PUSH2 0x1B97 PUSH2 0x2383 JUMP JUMPDEST PUSH2 0x1BD0 DUP11 PUSH0 PUSH1 0x2 DUP2 LT PUSH2 0x1BAD JUMPI PUSH2 0x1BAC PUSH2 0x2B9F JUMP JUMPDEST JUMPDEST PUSH1 0x20 MUL ADD MLOAD DUP12 PUSH1 0x1 PUSH1 0x2 DUP2 LT PUSH2 0x1BC6 JUMPI PUSH2 0x1BC5 PUSH2 0x2B9F JUMP JUMPDEST JUMPDEST PUSH1 0x20 MUL ADD MLOAD PUSH2 0x2319 JUMP JUMPDEST DUP12 PUSH0 PUSH1 0x2 DUP2 LT PUSH2 0x1BE3 JUMPI PUSH2 0x1BE2 PUSH2 0x2B9F JUMP JUMPDEST JUMPDEST PUSH1 0x20 MUL ADD DUP13 PUSH1 0x1 PUSH1 0x2 DUP2 LT PUSH2 0x1BFB JUMPI PUSH2 0x1BFA PUSH2 0x2B9F JUMP JUMPDEST JUMPDEST PUSH1 0x20 MUL ADD DUP3 DUP2 MSTORE POP DUP3 DUP2 MSTORE POP POP POP PUSH2 0x1C42 DUP5 PUSH0 PUSH1 0x2 DUP2 LT PUSH2 0x1C1F JUMPI PUSH2 0x1C1E PUSH2 0x2B9F JUMP JUMPDEST JUMPDEST PUSH1 0x20 MUL ADD MLOAD DUP6 PUSH1 0x1 PUSH1 0x2 DUP2 LT PUSH2 0x1C38 JUMPI PUSH2 0x1C37 PUSH2 0x2B9F JUMP JUMPDEST JUMPDEST PUSH1 0x20 MUL ADD MLOAD PUSH2 0x2319 JUMP JUMPDEST DUP6 PUSH0 PUSH1 0x2 DUP2 LT PUSH2 0x1C55 JUMPI PUSH2 0x1C54 PUSH2 0x2B9F JUMP JUMPDEST JUMPDEST PUSH1 0x20 MUL ADD DUP7 PUSH1 0x1 PUSH1 0x2 DUP2 LT PUSH2 0x1C6D JUMPI PUSH2 0x1C6C PUSH2 0x2B9F JUMP JUMPDEST JUMPDEST PUSH1 0x20 MUL ADD DUP3 DUP2 MSTORE POP DUP3 DUP2 MSTORE POP POP POP DUP10 PUSH0 PUSH1 0x2 DUP2 LT PUSH2 0x1C8E JUMPI PUSH2 0x1C8D PUSH2 0x2B9F JUMP JUMPDEST JUMPDEST PUSH1 0x20 MUL ADD MLOAD DUP2 PUSH0 PUSH1 0x18 DUP2 LT PUSH2 0x1CA6 JUMPI PUSH2 0x1CA5 PUSH2 0x2B9F JUMP JUMPDEST JUMPDEST PUSH1 0x20 MUL ADD DUP2 DUP2 MSTORE POP POP DUP10 PUSH1 0x1 PUSH1 0x2 DUP2 LT PUSH2 0x1CC3 JUMPI PUSH2 0x1CC2 PUSH2 0x2B9F JUMP JUMPDEST JUMPDEST PUSH1 0x20 MUL ADD MLOAD DUP2 PUSH1 0x1 PUSH1 0x18 DUP2 LT PUSH2 0x1CDC JUMPI PUSH2 0x1CDB PUSH2 0x2B9F JUMP JUMPDEST JUMPDEST PUSH1 0x20 MUL ADD DUP2 DUP2 MSTORE POP POP DUP9 PUSH0 PUSH1 0x2 DUP2 LT PUSH2 0x1CF8 JUMPI PUSH2 0x1CF7 PUSH2 0x2B9F JUMP JUMPDEST JUMPDEST PUSH1 0x20 MUL ADD MLOAD PUSH0 PUSH1 0x2 DUP2 LT PUSH2 0x1D0F JUMPI PUSH2 0x1D0E PUSH2 0x2B9F JUMP JUMPDEST JUMPDEST PUSH1 0x20 MUL ADD MLOAD DUP2 PUSH1 0x2 PUSH1 0x18 DUP2 LT PUSH2 0x1D28 JUMPI PUSH2 0x1D27 PUSH2 0x2B9F JUMP JUMPDEST JUMPDEST PUSH1 0x20 MUL ADD DUP2 DUP2 MSTORE POP POP DUP9 PUSH0 PUSH1 0x2 DUP2 LT PUSH2 0x1D44 JUMPI PUSH2 0x1D43 PUSH2 0x2B9F JUMP JUMPDEST JUMPDEST PUSH1 0x20 MUL ADD MLOAD PUSH1 0x1 PUSH1 0x2 DUP2 LT PUSH2 0x1D5C JUMPI PUSH2 0x1D5B PUSH2 0x2B9F JUMP JUMPDEST JUMPDEST PUSH1 0x20 MUL ADD MLOAD DUP2 PUSH1 0x3 PUSH1 0x18 DUP2 LT PUSH2 0x1D75 JUMPI PUSH2 0x1D74 PUSH2 0x2B9F JUMP JUMPDEST JUMPDEST PUSH1 0x20 MUL ADD DUP2 DUP2 MSTORE POP POP DUP9 PUSH1 0x1 PUSH1 0x2 DUP2 LT PUSH2 0x1D92 JUMPI PUSH2 0x1D91 PUSH2 0x2B9F JUMP JUMPDEST JUMPDEST PUSH1 0x20 MUL ADD MLOAD PUSH0 PUSH1 0x2 DUP2 LT PUSH2 0x1DA9 JUMPI PUSH2 0x1DA8 PUSH2 0x2B9F JUMP JUMPDEST JUMPDEST PUSH1 0x20 MUL ADD MLOAD DUP2 PUSH1 0x4 PUSH1 0x18 DUP2 LT PUSH2 0x1DC2 JUMPI PUSH2 0x1DC1 PUSH2 0x2B9F JUMP JUMPDEST JUMPDEST PUSH1 0x20 MUL ADD DUP2 DUP2 MSTORE POP POP DUP9 PUSH1 0x1 PUSH1 0x2 DUP2 LT PUSH2 0x1DDF JUMPI PUSH2 0x1DDE PUSH2 0x2B9F JUMP JUMPDEST JUMPDEST PUSH1 0x20 MUL ADD MLOAD PUSH1 0x1 PUSH1 0x2 DUP2 LT PUSH2 0x1DF7 JUMPI PUSH2 0x1DF6 PUSH2 0x2B9F JUMP JUMPDEST JUMPDEST PUSH1 0x20 MUL ADD MLOAD DUP2 PUSH1 0x5 PUSH1 0x18 DUP2 LT PUSH2 0x1E10 JUMPI PUSH2 0x1E0F PUSH2 0x2B9F JUMP JUMPDEST JUMPDEST PUSH1 0x20 MUL ADD DUP2 DUP2 MSTORE POP POP DUP8 PUSH0 PUSH1 0x2 DUP2 LT PUSH2 0x1E2C JUMPI PUSH2 0x1E2B PUSH2 0x2B9F JUMP JUMPDEST JUMPDEST PUSH1 0x20 MUL ADD MLOAD DUP2 PUSH1 0x6 PUSH1 0x18 DUP2 LT PUSH2 0x1E45 JUMPI PUSH2 0x1E44 PUSH2 0x2B9F JUMP JUMPDEST JUMPDEST PUSH1 0x20 MUL ADD DUP2 DUP2 MSTORE POP POP DUP8 PUSH1 0x1 PUSH1 0x2 DUP2 LT PUSH2 0x1E62 JUMPI PUSH2 0x1E61 PUSH2 0x2B9F JUMP JUMPDEST JUMPDEST PUSH1 0x20 MUL ADD MLOAD DUP2 PUSH1 0x7 PUSH1 0x18 DUP2 LT PUSH2 0x1E7B JUMPI PUSH2 0x1E7A PUSH2 0x2B9F JUMP JUMPDEST JUMPDEST PUSH1 0x20 MUL ADD DUP2 DUP2 MSTORE POP POP DUP7 PUSH0 PUSH1 0x2 DUP2 LT PUSH2 0x1E97 JUMPI PUSH2 0x1E96 PUSH2 0x2B9F JUMP JUMPDEST JUMPDEST PUSH1 0x20 MUL ADD MLOAD DUP2 PUSH1 0x8 PUSH1 0x18 DUP2 LT PUSH2 0x1EB0 JUMPI PUSH2 0x1EAF PUSH2 0x2B9F JUMP JUMPDEST JUMPDEST PUSH1 0x20 MUL ADD DUP2 DUP2 MSTORE POP POP DUP7 PUSH1 0x1 PUSH1 0x2 DUP2 LT PUSH2 0x1ECD JUMPI PUSH2 0x1ECC PUSH2 0x2B9F JUMP JUMPDEST JUMPDEST PUSH1 0x20 MUL ADD MLOAD DUP2 PUSH1 0x9 PUSH1 0x18 DUP2 LT PUSH2 0x1EE6 JUMPI PUSH2 0x1EE5 PUSH2 0x2B9F JUMP JUMPDEST JUMPDEST PUSH1 0x20 MUL ADD DUP2 DUP2 MSTORE POP POP DUP7 PUSH0 PUSH1 0x2 DUP2 LT PUSH2 0x1F02 JUMPI PUSH2 0x1F01 PUSH2 0x2B9F JUMP JUMPDEST JUMPDEST PUSH1 0x20 MUL ADD MLOAD DUP2 PUSH1 0xA PUSH1 0x18 DUP2 LT PUSH2 0x1F1B JUMPI PUSH2 0x1F1A PUSH2 0x2B9F JUMP JUMPDEST JUMPDEST PUSH1 0x20 MUL ADD DUP2 DUP2 MSTORE POP POP DUP7 PUSH1 0x1 PUSH1 0x2 DUP2 LT PUSH2 0x1F38 JUMPI PUSH2 0x1F37 PUSH2 0x2B9F JUMP JUMPDEST JUMPDEST PUSH1 0x20 MUL ADD MLOAD DUP2 PUSH1 0xB PUSH1 0x18 DUP2 LT PUSH2 0x1F51 JUMPI PUSH2 0x1F50 PUSH2 0x2B9F JUMP JUMPDEST JUMPDEST PUSH1 0x20 MUL ADD DUP2 DUP2 MSTORE POP POP DUP6 PUSH0 PUSH1 0x2 DUP2 LT PUSH2 0x1F6D JUMPI PUSH2 0x1F6C PUSH2 0x2B9F JUMP JUMPDEST JUMPDEST PUSH1 0x20 MUL ADD MLOAD DUP2 PUSH1 0xC PUSH1 0x18 DUP2 LT PUSH2 0x1F86 JUMPI PUSH2 0x1F85 PUSH2 0x2B9F JUMP JUMPDEST JUMPDEST PUSH1 0x20 MUL ADD DUP2 DUP2 MSTORE POP POP DUP6 PUSH1 0x1 PUSH1 0x2 DUP2 LT PUSH2 0x1FA3 JUMPI PUSH2 0x1FA2 PUSH2 0x2B9F JUMP JUMPDEST JUMPDEST PUSH1 0x20 MUL ADD MLOAD DUP2 PUSH1 0xD PUSH1 0x18 DUP2 LT PUSH2 0x1FBC JUMPI PUSH2 0x1FBB PUSH2 0x2B9F JUMP JUMPDEST JUMPDEST PUSH1 0x20 MUL ADD DUP2 DUP2 MSTORE POP POP DUP5 PUSH0 PUSH1 0x2 DUP2 LT PUSH2 0x1FD8 JUMPI PUSH2 0x1FD7 PUSH2 0x2B9F JUMP JUMPDEST JUMPDEST PUSH1 0x20 MUL ADD MLOAD DUP2 PUSH1 0xE PUSH1 0x18 DUP2 LT PUSH2 0x1FF1 JUMPI PUSH2 0x1FF0 PUSH2 0x2B9F JUMP JUMPDEST JUMPDEST PUSH1 0x20 MUL ADD DUP2 DUP2 MSTORE POP POP DUP5 PUSH1 0x1 PUSH1 0x2 DUP2 LT PUSH2 0x200E JUMPI PUSH2 0x200D PUSH2 0x2B9F JUMP JUMPDEST JUMPDEST PUSH1 0x20 MUL ADD MLOAD DUP2 PUSH1 0xF PUSH1 0x18 DUP2 LT PUSH2 0x2027 JUMPI PUSH2 0x2026 PUSH2 0x2B9F JUMP JUMPDEST JUMPDEST PUSH1 0x20 MUL ADD DUP2 DUP2 MSTORE POP POP DUP5 PUSH0 PUSH1 0x2 DUP2 LT PUSH2 0x2043 JUMPI PUSH2 0x2042 PUSH2 0x2B9F JUMP JUMPDEST JUMPDEST PUSH1 0x20 MUL ADD MLOAD DUP2 PUSH1 0x10 PUSH1 0x18 DUP2 LT PUSH2 0x205C JUMPI PUSH2 0x205B PUSH2 0x2B9F JUMP JUMPDEST JUMPDEST PUSH1 0x20 MUL ADD DUP2 DUP2 MSTORE POP POP DUP5 PUSH1 0x1 PUSH1 0x2 DUP2 LT PUSH2 0x2079 JUMPI PUSH2 0x2078 PUSH2 0x2B9F JUMP JUMPDEST JUMPDEST PUSH1 0x20 MUL ADD MLOAD DUP2 PUSH1 0x11 PUSH1 0x18 DUP2 LT PUSH2 0x2092 JUMPI PUSH2 0x2091 PUSH2 0x2B9F JUMP JUMPDEST JUMPDEST PUSH1 0x20 MUL ADD DUP2 DUP2 MSTORE POP POP DUP4 PUSH0 PUSH1 0x2 DUP2 LT PUSH2 0x20AE JUMPI PUSH2 0x20AD PUSH2 0x2B9F JUMP JUMPDEST JUMPDEST PUSH1 0x20 MUL ADD MLOAD DUP2 PUSH1 0x12 PUSH1 0x18 DUP2 LT PUSH2 0x20C7 JUMPI PUSH2 0x20C6 PUSH2 0x2B9F JUMP JUMPDEST JUMPDEST PUSH1 0x20 MUL ADD DUP2 DUP2 MSTORE POP POP DUP4 PUSH1 0x1 PUSH1 0x2 DUP2 LT PUSH2 0x20E4 JUMPI PUSH2 0x20E3 PUSH2 0x2B9F JUMP JUMPDEST JUMPDEST PUSH1 0x20 MUL ADD MLOAD DUP2 PUSH1 0x13 PUSH1 0x18 DUP2 LT PUSH2 0x20FD JUMPI PUSH2 0x20FC PUSH2 0x2B9F JUMP JUMPDEST JUMPDEST PUSH1 0x20 MUL ADD DUP2 DUP2 MSTORE POP POP DUP3 PUSH0 PUSH1 0x2 DUP2 LT PUSH2 0x2119 JUMPI PUSH2 0x2118 PUSH2 0x2B9F JUMP JUMPDEST JUMPDEST PUSH1 0x20 MUL ADD MLOAD DUP2 PUSH1 0x14 PUSH1 0x18 DUP2 LT PUSH2 0x2132 JUMPI PUSH2 0x2131 PUSH2 0x2B9F JUMP JUMPDEST JUMPDEST PUSH1 0x20 MUL ADD DUP2 DUP2 MSTORE POP POP DUP3 PUSH1 0x1 PUSH1 0x2 DUP2 LT PUSH2 0x214F JUMPI PUSH2 0x214E PUSH2 0x2B9F JUMP JUMPDEST JUMPDEST PUSH1 0x20 MUL ADD MLOAD DUP2 PUSH1 0x15 PUSH1 0x18 DUP2 LT PUSH2 0x2168 JUMPI PUSH2 0x2167 PUSH2 0x2B9F JUMP JUMPDEST JUMPDEST PUSH1 0x20 MUL ADD DUP2 DUP2 MSTORE POP POP DUP3 PUSH0 PUSH1 0x2 DUP2 LT PUSH2 0x2184 JUMPI PUSH2 0x2183 PUSH2 0x2B9F JUMP JUMPDEST JUMPDEST PUSH1 0x20 MUL ADD MLOAD DUP2 PUSH1 0x16 PUSH1 0x18 DUP2 LT PUSH2 0x219D JUMPI PUSH2 0x219C PUSH2 0x2B9F JUMP JUMPDEST JUMPDEST PUSH1 0x20 MUL ADD DUP2 DUP2 MSTORE POP POP DUP3 PUSH1 0x1 PUSH1 0x2 DUP2 LT PUSH2 0x21BA JUMPI PUSH2 0x21B9 PUSH2 0x2B9F JUMP JUMPDEST JUMPDEST PUSH1 0x20 MUL ADD MLOAD DUP2 PUSH1 0x17 PUSH1 0x18 DUP2 LT PUSH2 0x21D3 JUMPI PUSH2 0x21D2 PUSH2 0x2B9F JUMP JUMPDEST JUMPDEST PUSH1 0x20 MUL ADD DUP2 DUP2 MSTORE POP POP PUSH2 0x21E4 PUSH2 0x23A6 JUMP JUMPDEST PUSH0 PUSH1 0x20 DUP3 PUSH2 0x180 DUP6 PUSH1 0x8 GAS STATICCALL SWAP1 POP DUP1 PUSH2 0x2232 JUMPI PUSH1 0x40 MLOAD PUSH32 0x8C379A000000000000000000000000000000000000000000000000000000000 DUP2 MSTORE PUSH1 0x4 ADD PUSH2 0x2229 SWAP1 PUSH2 0x33C1 JUMP JUMPDEST PUSH1 0x40 MLOAD DUP1 SWAP2 SUB SWAP1 REVERT JUMPDEST PUSH1 0x1 DUP3 PUSH0 PUSH1 0x1 DUP2 LT PUSH2 0x2247 JUMPI PUSH2 0x2246 PUSH2 0x2B9F JUMP JUMPDEST JUMPDEST PUSH1 0x20 MUL ADD MLOAD EQ SWAP4 POP POP POP POP SWAP9 SWAP8 POP POP POP POP POP POP POP POP JUMP JUMPDEST PUSH0 DUP1 PUSH1 0xE SLOAD SWAP1 POP PUSH1 0x14 PUSH1 0x2 PUSH2 0x2273 SWAP2 SWAP1 PUSH2 0x319E JUMP JUMPDEST DUP2 LT PUSH2 0x22B4 JUMPI PUSH1 0x40 MLOAD PUSH32 0x8C379A000000000000000000000000000000000000000000000000000000000 DUP2 MSTORE PUSH1 0x4 ADD PUSH2 0x22AB SWAP1 PUSH2 0x3429 JUMP JUMPDEST PUSH1 0x40 MLOAD DUP1 SWAP2 SUB SWAP1 REVERT JUMPDEST PUSH1 0xE PUSH0 DUP2 SLOAD DUP1 SWAP3 SWAP2 SWAP1 PUSH2 0x22C6 SWAP1 PUSH2 0x3447 JUMP JUMPDEST SWAP2 SWAP1 POP SSTORE POP DUP1 SWAP2 POP POP SWAP1 JUMP JUMPDEST PUSH0 CALLER SWAP1 POP SWAP1 JUMP JUMPDEST PUSH2 0x22E1 PUSH2 0x11F7 JUMP JUMPDEST PUSH2 0x2317 JUMPI PUSH1 0x40 MLOAD PUSH32 0x8DFC202B00000000000000000000000000000000000000000000000000000000 DUP2 MSTORE PUSH1 0x4 ADD PUSH1 0x40 MLOAD DUP1 SWAP2 SUB SWAP1 REVERT JUMPDEST JUMP JUMPDEST PUSH0 DUP1 PUSH0 PUSH32 0x30644E72E131A029B85045B68181585D97816A916871CA8D3C208C16D87CFD47 SWAP1 POP PUSH0 DUP6 EQ DUP1 ISZERO PUSH2 0x234D JUMPI POP PUSH0 DUP5 EQ JUMPDEST ISZERO PUSH2 0x235E JUMPI PUSH0 DUP1 SWAP3 POP SWAP3 POP POP PUSH2 0x237C JUMP JUMPDEST DUP5 DUP2 DUP6 PUSH2 0x236B SWAP2 SWAP1 PUSH2 0x2EDD JUMP JUMPDEST DUP3 PUSH2 0x2376 SWAP2 SWAP1 PUSH2 0x348E JUMP JUMPDEST SWAP3 POP SWAP3 POP POP JUMPDEST SWAP3 POP SWAP3 SWAP1 POP JUMP JUMPDEST PUSH1 0x40 MLOAD DUP1 PUSH2 0x300 ADD PUSH1 0x40 MSTORE DUP1 PUSH1 0x18 SWAP1 PUSH1 0x20 DUP3 MUL DUP1 CALLDATASIZE DUP4 CALLDATACOPY DUP1 DUP3 ADD SWAP2 POP POP SWAP1 POP POP SWAP1 JUMP JUMPDEST PUSH1 0x40 MLOAD DUP1 PUSH1 0x20 ADD PUSH1 0x40 MSTORE DUP1 PUSH1 0x1 SWAP1 PUSH1 0x20 DUP3 MUL DUP1 CALLDATASIZE DUP4 CALLDATACOPY DUP1 DUP3 ADD SWAP2 POP POP SWAP1 POP POP SWAP1 JUMP JUMPDEST PUSH0 DUP1 REVERT JUMPDEST PUSH0 DUP1 REVERT JUMPDEST PUSH0 DUP2 SWAP1 POP SWAP2 SWAP1 POP JUMP JUMPDEST PUSH2 0x23E2 DUP2 PUSH2 0x23D0 JUMP JUMPDEST DUP2 EQ PUSH2 0x23EC JUMPI PUSH0 DUP1 REVERT JUMPDEST POP JUMP JUMPDEST PUSH0 DUP2 CALLDATALOAD SWAP1 POP PUSH2 0x23FD DUP2 PUSH2 0x23D9 JUMP JUMPDEST SWAP3 SWAP2 POP POP JUMP JUMPDEST PUSH0 PUSH1 0x20 DUP3 DUP5 SUB SLT ISZERO PUSH2 0x2418 JUMPI PUSH2 0x2417 PUSH2 0x23C8 JUMP JUMPDEST JUMPDEST PUSH0 PUSH2 0x2425 DUP5 DUP3 DUP6 ADD PUSH2 0x23EF JUMP JUMPDEST SWAP2 POP POP SWAP3 SWAP2 POP POP JUMP JUMPDEST PUSH2 0x2437 DUP2 PUSH2 0x23D0 JUMP JUMPDEST DUP3 MSTORE POP POP JUMP JUMPDEST PUSH0 PUSH1 0x20 DUP3 ADD SWAP1 POP PUSH2 0x2450 PUSH0 DUP4 ADD DUP5 PUSH2 0x242E JUMP JUMPDEST SWAP3 SWAP2 POP POP JUMP JUMPDEST PUSH0 DUP2 SWAP1 POP SWAP2 SWAP1 POP JUMP JUMPDEST PUSH2 0x2468 DUP2 PUSH2 0x2456 JUMP JUMPDEST DUP2 EQ PUSH2 0x2472 JUMPI PUSH0 DUP1 REVERT JUMPDEST POP JUMP JUMPDEST PUSH0 DUP2 CALLDATALOAD SWAP1 POP PUSH2 0x2483 DUP2 PUSH2 0x245F JUMP JUMPDEST SWAP3 SWAP2 POP POP JUMP JUMPDEST PUSH0 DUP1 REVERT JUMPDEST PUSH0 DUP1 REVERT JUMPDEST PUSH0 DUP1 REVERT JUMPDEST PUSH0 DUP1 DUP4 PUSH1 0x1F DUP5 ADD SLT PUSH2 0x24AA JUMPI PUSH2 0x24A9 PUSH2 0x2489 JUMP JUMPDEST JUMPDEST DUP3 CALLDATALOAD SWAP1 POP PUSH8 0xFFFFFFFFFFFFFFFF DUP2 GT ISZERO PUSH2 0x24C7 JUMPI PUSH2 0x24C6 PUSH2 0x248D JUMP JUMPDEST JUMPDEST PUSH1 0x20 DUP4 ADD SWAP2 POP DUP4 PUSH1 0x20 DUP3 MUL DUP4 ADD GT ISZERO PUSH2 0x24E3 JUMPI PUSH2 0x24E2 PUSH2 0x2491 JUMP JUMPDEST JUMPDEST SWAP3 POP SWAP3 SWAP1 POP JUMP JUMPDEST PUSH0 DUP1 DUP4 PUSH1 0x1F DUP5 ADD SLT PUSH2 0x24FF JUMPI PUSH2 0x24FE PUSH2 0x2489 JUMP JUMPDEST JUMPDEST DUP3 CALLDATALOAD SWAP1 POP PUSH8 0xFFFFFFFFFFFFFFFF DUP2 GT ISZERO PUSH2 0x251C JUMPI PUSH2 0x251B PUSH2 0x248D JUMP JUMPDEST JUMPDEST PUSH1 0x20 DUP4 ADD SWAP2 POP DUP4 PUSH1 0x20 DUP3 MUL DUP4 ADD GT ISZERO PUSH2 0x2538 JUMPI PUSH2 0x2537 PUSH2 0x2491 JUMP JUMPDEST JUMPDEST SWAP3 POP SWAP3 SWAP1 POP JUMP JUMPDEST PUSH0 DUP1 PUSH0 DUP1 PUSH0 PUSH1 0x60 DUP7 DUP9 SUB SLT ISZERO PUSH2 0x2558 JUMPI PUSH2 0x2557 PUSH2 0x23C8 JUMP JUMPDEST JUMPDEST PUSH0 PUSH2 0x2565 DUP9 DUP3 DUP10 ADD PUSH2 0x2475 JUMP JUMPDEST SWAP6 POP POP PUSH1 0x20 DUP7 ADD CALLDATALOAD PUSH8 0xFFFFFFFFFFFFFFFF DUP2 GT ISZERO PUSH2 0x2586 JUMPI PUSH2 0x2585 PUSH2 0x23CC JUMP JUMPDEST JUMPDEST PUSH2 0x2592 DUP9 DUP3 DUP10 ADD PUSH2 0x2495 JUMP JUMPDEST SWAP5 POP SWAP5 POP POP PUSH1 0x40 DUP7 ADD CALLDATALOAD PUSH8 0xFFFFFFFFFFFFFFFF DUP2 GT ISZERO PUSH2 0x25B5 JUMPI PUSH2 0x25B4 PUSH2 0x23CC JUMP JUMPDEST JUMPDEST PUSH2 0x25C1 DUP9 DUP3 DUP10 ADD PUSH2 0x24EA JUMP JUMPDEST SWAP3 POP SWAP3 POP POP SWAP3 SWAP6 POP SWAP3 SWAP6 SWAP1 SWAP4 POP JUMP JUMPDEST PUSH0 DUP2 ISZERO ISZERO SWAP1 POP SWAP2 SWAP1 POP JUMP JUMPDEST PUSH2 0x25E4 DUP2 PUSH2 0x25D0 JUMP JUMPDEST DUP3 MSTORE POP POP JUMP JUMPDEST PUSH0 PUSH1 0x20 DUP3 ADD SWAP1 POP PUSH2 0x25FD PUSH0 DUP4 ADD DUP5 PUSH2 0x25DB JUMP JUMPDEST SWAP3 SWAP2 POP POP JUMP JUMPDEST PUSH0 DUP2 SWAP1 POP DUP3 PUSH1 0x20 PUSH1 0x8 MUL DUP3 ADD GT ISZERO PUSH2 0x261E JUMPI PUSH2 0x261D PUSH2 0x2491 JUMP JUMPDEST JUMPDEST SWAP3 SWAP2 POP POP JUMP JUMPDEST PUSH0 DUP2 SWAP1 POP DUP3 PUSH1 0x20 PUSH1 0x1 MUL DUP3 ADD GT ISZERO PUSH2 0x263F JUMPI PUSH2 0x263E PUSH2 0x2491 JUMP JUMPDEST JUMPDEST SWAP3 SWAP2 POP POP JUMP JUMPDEST PUSH0 DUP1 PUSH2 0x120 DUP4 DUP6 SUB SLT ISZERO PUSH2 0x265C JUMPI PUSH2 0x265B PUSH2 0x23C8 JUMP JUMPDEST JUMPDEST PUSH0 PUSH2 0x2669 DUP6 DUP3 DUP7 ADD PUSH2 0x2603 JUMP JUMPDEST SWAP3 POP POP PUSH2 0x100 PUSH2 0x267B DUP6 DUP3 DUP7 ADD PUSH2 0x2624 JUMP JUMPDEST SWAP2 POP POP SWAP3 POP SWAP3 SWAP1 POP JUMP JUMPDEST PUSH0 DUP1 PUSH0 DUP1 PUSH2 0x160 DUP6 DUP8 SUB SLT ISZERO PUSH2 0x269E JUMPI PUSH2 0x269D PUSH2 0x23C8 JUMP JUMPDEST JUMPDEST PUSH0 PUSH2 0x26AB DUP8 DUP3 DUP9 ADD PUSH2 0x2475 JUMP JUMPDEST SWAP5 POP POP PUSH1 0x20 PUSH2 0x26BC DUP8 DUP3 DUP9 ADD PUSH2 0x2475 JUMP JUMPDEST SWAP4 POP POP PUSH1 0x40 PUSH2 0x26CD DUP8 DUP3 DUP9 ADD PUSH2 0x2475 JUMP JUMPDEST SWAP3 POP POP PUSH1 0x60 PUSH2 0x26DE DUP8 DUP3 DUP9 ADD PUSH2 0x2603 JUMP JUMPDEST SWAP2 POP POP SWAP3 SWAP6 SWAP2 SWAP5 POP SWAP3 POP JUMP JUMPDEST PUSH0 PUSH1 0x20 DUP3 DUP5 SUB SLT ISZERO PUSH2 0x26FF JUMPI PUSH2 0x26FE PUSH2 0x23C8 JUMP JUMPDEST JUMPDEST PUSH0 PUSH2 0x270C DUP5 DUP3 DUP6 ADD PUSH2 0x2475 JUMP JUMPDEST SWAP2 POP POP SWAP3 SWAP2 POP POP JUMP JUMPDEST PUSH0 DUP2 MLOAD SWAP1 POP SWAP2 SWAP1 POP JUMP JUMPDEST PUSH0 DUP3 DUP3 MSTORE PUSH1 0x20 DUP3 ADD SWAP1 POP SWAP3 SWAP2 POP POP JUMP JUMPDEST PUSH0 DUP2 SWAP1 POP PUSH1 0x20 DUP3 ADD SWAP1 POP SWAP2 SWAP1 POP JUMP JUMPDEST PUSH2 0x2747 DUP2 PUSH2 0x2456 JUMP JUMPDEST DUP3 MSTORE POP POP JUMP JUMPDEST PUSH0 PUSH2 0x2758 DUP4 DUP4 PUSH2 0x273E JUMP JUMPDEST PUSH1 0x20 DUP4 ADD SWAP1 POP SWAP3 SWAP2 POP POP JUMP JUMPDEST PUSH0 PUSH1 0x20 DUP3 ADD SWAP1 POP SWAP2 SWAP1 POP JUMP JUMPDEST PUSH0 PUSH2 0x277A DUP3 PUSH2 0x2715 JUMP JUMPDEST PUSH2 0x2784 DUP2 DUP6 PUSH2 0x271F JUMP JUMPDEST SWAP4 POP PUSH2 0x278F DUP4 PUSH2 0x272F JUMP JUMPDEST DUP1 PUSH0 JUMPDEST DUP4 DUP2 LT ISZERO PUSH2 0x27BF JUMPI DUP2 MLOAD PUSH2 0x27A6 DUP9 DUP3 PUSH2 0x274D JUMP JUMPDEST SWAP8 POP PUSH2 0x27B1 DUP4 PUSH2 0x2764 JUMP JUMPDEST SWAP3 POP POP PUSH1 0x1 DUP2 ADD SWAP1 POP PUSH2 0x2792 JUMP JUMPDEST POP DUP6 SWAP4 POP POP POP POP SWAP3 SWAP2 POP POP JUMP JUMPDEST PUSH0 DUP2 MLOAD SWAP1 POP SWAP2 SWAP1 POP JUMP JUMPDEST PUSH0 DUP3 DUP3 MSTORE PUSH1 0x20 DUP3 ADD SWAP1 POP SWAP3 SWAP2 POP POP JUMP JUMPDEST PUSH0 DUP2 SWAP1 POP PUSH1 0x20 DUP3 ADD SWAP1 POP SWAP2 SWAP1 POP JUMP JUMPDEST PUSH2 0x27FE DUP2 PUSH2 0x23D0 JUMP JUMPDEST DUP3 MSTORE POP POP JUMP JUMPDEST PUSH0 PUSH2 0x280F DUP4 DUP4 PUSH2 0x27F5 JUMP JUMPDEST PUSH1 0x20 DUP4 ADD SWAP1 POP SWAP3 SWAP2 POP POP JUMP JUMPDEST PUSH0 PUSH1 0x20 DUP3 ADD SWAP1 POP SWAP2 SWAP1 POP JUMP JUMPDEST PUSH0 PUSH2 0x2831 DUP3 PUSH2 0x27CC JUMP JUMPDEST PUSH2 0x283B DUP2 DUP6 PUSH2 0x27D6 JUMP JUMPDEST SWAP4 POP PUSH2 0x2846 DUP4 PUSH2 0x27E6 JUMP JUMPDEST DUP1 PUSH0 JUMPDEST DUP4 DUP2 LT ISZERO PUSH2 0x2876 JUMPI DUP2 MLOAD PUSH2 0x285D DUP9 DUP3 PUSH2 0x2804 JUMP JUMPDEST SWAP8 POP PUSH2 0x2868 DUP4 PUSH2 0x281B JUMP JUMPDEST SWAP3 POP POP PUSH1 0x1 DUP2 ADD SWAP1 POP PUSH2 0x2849 JUMP JUMPDEST POP DUP6 SWAP4 POP POP POP POP SWAP3 SWAP2 POP POP JUMP JUMPDEST PUSH0 PUSH1 0x40 DUP3 ADD SWAP1 POP DUP2 DUP2 SUB PUSH0 DUP4 ADD MSTORE PUSH2 0x289B DUP2 DUP6 PUSH2 0x2770 JUMP JUMPDEST SWAP1 POP DUP2 DUP2 SUB PUSH1 0x20 DUP4 ADD MSTORE PUSH2 0x28AF DUP2 DUP5 PUSH2 0x2827 JUMP JUMPDEST SWAP1 POP SWAP4 SWAP3 POP POP POP JUMP JUMPDEST PUSH0 PUSH20 0xFFFFFFFFFFFFFFFFFFFFFFFFFFFFFFFFFFFFFFFF DUP3 AND SWAP1 POP SWAP2 SWAP1 POP JUMP JUMPDEST PUSH0 PUSH2 0x28E1 DUP3 PUSH2 0x28B8 JUMP JUMPDEST SWAP1 POP SWAP2 SWAP1 POP JUMP JUMPDEST PUSH2 0x28F1 DUP2 PUSH2 0x28D7 JUMP JUMPDEST DUP2 EQ PUSH2 0x28FB JUMPI PUSH0 DUP1 REVERT JUMPDEST POP JUMP JUMPDEST PUSH0 DUP2 CALLDATALOAD SWAP1 POP PUSH2 0x290C DUP2 PUSH2 0x28E8 JUMP JUMPDEST SWAP3 SWAP2 POP POP JUMP JUMPDEST PUSH0 DUP1 PUSH0 DUP1 PUSH2 0x160 DUP6 DUP8 SUB SLT ISZERO PUSH2 0x292B JUMPI PUSH2 0x292A PUSH2 0x23C8 JUMP JUMPDEST JUMPDEST PUSH0 PUSH2 0x2938 DUP8 DUP3 DUP9 ADD PUSH2 0x2475 JUMP JUMPDEST SWAP5 POP POP PUSH1 0x20 PUSH2 0x2949 DUP8 DUP3 DUP9 ADD PUSH2 0x28FE JUMP JUMPDEST SWAP4 POP POP PUSH1 0x40 PUSH2 0x295A DUP8 DUP3 DUP9 ADD PUSH2 0x23EF JUMP JUMPDEST SWAP3 POP POP PUSH1 0x60 PUSH2 0x296B DUP8 DUP3 DUP9 ADD PUSH2 0x2603 JUMP JUMPDEST SWAP2 POP POP SWAP3 SWAP6 SWAP2 SWAP5 POP SWAP3 POP JUMP JUMPDEST PUSH2 0x2980 DUP2 PUSH2 0x2456 JUMP JUMPDEST DUP3 MSTORE POP POP JUMP JUMPDEST PUSH0 PUSH1 0x20 DUP3 ADD SWAP1 POP PUSH2 0x2999 PUSH0 DUP4 ADD DUP5 PUSH2 0x2977 JUMP JUMPDEST SWAP3 SWAP2 POP POP JUMP JUMPDEST PUSH0 PUSH1 0x20 DUP3 DUP5 SUB SLT ISZERO PUSH2 0x29B4 JUMPI PUSH2 0x29B3 PUSH2 0x23C8 JUMP JUMPDEST JUMPDEST PUSH0 PUSH2 0x29C1 DUP5 DUP3 DUP6 ADD PUSH2 0x28FE JUMP JUMPDEST SWAP2 POP POP SWAP3 SWAP2 POP POP JUMP JUMPDEST PUSH2 0x29D3 DUP2 PUSH2 0x28D7 JUMP JUMPDEST DUP3 MSTORE POP POP JUMP JUMPDEST PUSH0 PUSH1 0xA0 DUP3 ADD SWAP1 POP PUSH2 0x29EC PUSH0 DUP4 ADD DUP9 PUSH2 0x2977 JUMP JUMPDEST PUSH2 0x29F9 PUSH1 0x20 DUP4 ADD DUP8 PUSH2 0x2977 JUMP JUMPDEST PUSH2 0x2A06 PUSH1 0x40 DUP4 ADD DUP7 PUSH2 0x242E JUMP JUMPDEST PUSH2 0x2A13 PUSH1 0x60 DUP4 ADD DUP6 PUSH2 0x29CA JUMP JUMPDEST PUSH2 0x2A20 PUSH1 0x80 DUP4 ADD DUP5 PUSH2 0x25DB JUMP JUMPDEST SWAP7 SWAP6 POP POP POP POP POP POP JUMP JUMPDEST PUSH0 PUSH1 0x20 DUP3 ADD SWAP1 POP PUSH2 0x2A3D PUSH0 DUP4 ADD DUP5 PUSH2 0x29CA JUMP JUMPDEST SWAP3 SWAP2 POP POP JUMP JUMPDEST PUSH0 DUP1 PUSH1 0x40 DUP4 DUP6 SUB SLT ISZERO PUSH2 0x2A59 JUMPI PUSH2 0x2A58 PUSH2 0x23C8 JUMP JUMPDEST JUMPDEST PUSH0 PUSH2 0x2A66 DUP6 DUP3 DUP7 ADD PUSH2 0x23EF JUMP JUMPDEST SWAP3 POP POP PUSH1 0x20 PUSH2 0x2A77 DUP6 DUP3 DUP7 ADD PUSH2 0x23EF JUMP JUMPDEST SWAP2 POP POP SWAP3 POP SWAP3 SWAP1 POP JUMP JUMPDEST PUSH0 DUP1 PUSH1 0x40 DUP4 DUP6 SUB SLT ISZERO PUSH2 0x2A97 JUMPI PUSH2 0x2A96 PUSH2 0x23C8 JUMP JUMPDEST JUMPDEST PUSH0 PUSH2 0x2AA4 DUP6 DUP3 DUP7 ADD PUSH2 0x2475 JUMP JUMPDEST SWAP3 POP POP PUSH1 0x20 PUSH2 0x2AB5 DUP6 DUP3 DUP7 ADD PUSH2 0x23EF JUMP JUMPDEST SWAP2 POP POP SWAP3 POP SWAP3 SWAP1 POP JUMP JUMPDEST PUSH0 DUP3 DUP3 MSTORE PUSH1 0x20 DUP3 ADD SWAP1 POP SWAP3 SWAP2 POP POP JUMP JUMPDEST PUSH32 0x496E76616C69642070726F6F66206C656E677468000000000000000000000000 PUSH0 DUP3 ADD MSTORE POP JUMP JUMPDEST PUSH0 PUSH2 0x2B03 PUSH1 0x14 DUP4 PUSH2 0x2ABF JUMP JUMPDEST SWAP2 POP PUSH2 0x2B0E DUP3 PUSH2 0x2ACF JUMP JUMPDEST PUSH1 0x20 DUP3 ADD SWAP1 POP SWAP2 SWAP1 POP JUMP JUMPDEST PUSH0 PUSH1 0x20 DUP3 ADD SWAP1 POP DUP2 DUP2 SUB PUSH0 DUP4 ADD MSTORE PUSH2 0x2B30 DUP2 PUSH2 0x2AF7 JUMP JUMPDEST SWAP1 POP SWAP2 SWAP1 POP JUMP JUMPDEST PUSH32 0x496E76616C696420696E6469636573206C656E67746800000000000000000000 PUSH0 DUP3 ADD MSTORE POP JUMP JUMPDEST PUSH0 PUSH2 0x2B6B PUSH1 0x16 DUP4 PUSH2 0x2ABF JUMP JUMPDEST SWAP2 POP PUSH2 0x2B76 DUP3 PUSH2 0x2B37 JUMP JUMPDEST PUSH1 0x20 DUP3 ADD SWAP1 POP SWAP2 SWAP1 POP JUMP JUMPDEST PUSH0 PUSH1 0x20 DUP3 ADD SWAP1 POP DUP2 DUP2 SUB PUSH0 DUP4 ADD MSTORE PUSH2 0x2B98 DUP2 PUSH2 0x2B5F JUMP JUMPDEST SWAP1 POP SWAP2 SWAP1 POP JUMP JUMPDEST PUSH32 0x4E487B7100000000000000000000000000000000000000000000000000000000 PUSH0 MSTORE PUSH1 0x32 PUSH1 0x4 MSTORE PUSH1 0x24 PUSH0 REVERT JUMPDEST PUSH32 0x4E756C6C696669657220616C7265616479207370656E74000000000000000000 PUSH0 DUP3 ADD MSTORE POP JUMP JUMPDEST PUSH0 PUSH2 0x2C00 PUSH1 0x17 DUP4 PUSH2 0x2ABF JUMP JUMPDEST SWAP2 POP PUSH2 0x2C0B DUP3 PUSH2 0x2BCC JUMP JUMPDEST PUSH1 0x20 DUP3 ADD SWAP1 POP SWAP2 SWAP1 POP JUMP JUMPDEST PUSH0 PUSH1 0x20 DUP3 ADD SWAP1 POP DUP2 DUP2 SUB PUSH0 DUP4 ADD MSTORE PUSH2 0x2C2D DUP2 PUSH2 0x2BF4 JUMP JUMPDEST SWAP1 POP SWAP2 SWAP1 POP JUMP JUMPDEST PUSH32 0x4E6F7465206E6F7420666F756E64000000000000000000000000000000000000 PUSH0 DUP3 ADD MSTORE POP JUMP JUMPDEST PUSH0 PUSH2 0x2C68 PUSH1 0xE DUP4 PUSH2 0x2ABF JUMP JUMPDEST SWAP2 POP PUSH2 0x2C73 DUP3 PUSH2 0x2C34 JUMP JUMPDEST PUSH1 0x20 DUP3 ADD SWAP1 POP SWAP2 SWAP1 POP JUMP JUMPDEST PUSH0 PUSH1 0x20 DUP3 ADD SWAP1 POP DUP2 DUP2 SUB PUSH0 DUP4 ADD MSTORE PUSH2 0x2C95 DUP2 PUSH2 0x2C5C JUMP JUMPDEST SWAP1 POP SWAP2 SWAP1 POP JUMP JUMPDEST PUSH32 0x4E6F746520616C7265616479207370656E740000000000000000000000000000 PUSH0 DUP3 ADD MSTORE POP JUMP JUMPDEST PUSH0 PUSH2 0x2CD0 PUSH1 0x12 DUP4 PUSH2 0x2ABF JUMP JUMPDEST SWAP2 POP PUSH2 0x2CDB DUP3 PUSH2 0x2C9C JUMP JUMPDEST PUSH1 0x20 DUP3 ADD SWAP1 POP SWAP2 SWAP1 POP JUMP JUMPDEST PUSH0 PUSH1 0x20 DUP3 ADD SWAP1 POP DUP2 DUP2 SUB PUSH0 DUP4 ADD MSTORE PUSH2 0x2CFD DUP2 PUSH2 0x2CC4 JUMP JUMPDEST SWAP1 POP SWAP2 SWAP1 POP JUMP JUMPDEST DUP3 DUP2 DUP4 CALLDATACOPY POP POP POP JUMP JUMPDEST PUSH2 0x2D1A PUSH2 0x100 DUP4 DUP4 PUSH2 0x2D04 JUMP JUMPDEST POP POP JUMP JUMPDEST PUSH0 PUSH1 0x1 SWAP1 POP SWAP2 SWAP1 POP JUMP JUMPDEST PUSH0 DUP2 SWAP1 POP SWAP3 SWAP2 POP POP JUMP JUMPDEST PUSH0 DUP2 SWAP1 POP SWAP2 SWAP1 POP JUMP JUMPDEST PUSH0 PUSH1 0x20 DUP3 ADD SWAP1 POP SWAP2 SWAP1 POP JUMP JUMPDEST PUSH2 0x2D50 DUP2 PUSH2 0x2D1E JUMP JUMPDEST PUSH2 0x2D5A DUP2 DUP5 PUSH2 0x2D28 JUMP JUMPDEST SWAP3 POP PUSH2 0x2D65 DUP3 PUSH2 0x2D32 JUMP JUMPDEST DUP1 PUSH0 JUMPDEST DUP4 DUP2 LT ISZERO PUSH2 0x2D95 JUMPI DUP2 MLOAD PUSH2 0x2D7C DUP8 DUP3 PUSH2 0x2804 JUMP JUMPDEST SWAP7 POP PUSH2 0x2D87 DUP4 PUSH2 0x2D3B JUMP JUMPDEST SWAP3 POP POP PUSH1 0x1 DUP2 ADD SWAP1 POP PUSH2 0x2D68 JUMP JUMPDEST POP POP POP POP POP POP JUMP JUMPDEST PUSH0 PUSH2 0x120 DUP3 ADD SWAP1 POP PUSH2 0x2DB1 PUSH0 DUP4 ADD DUP6 PUSH2 0x2D0D JUMP JUMPDEST PUSH2 0x2DBF PUSH2 0x100 DUP4 ADD DUP5 PUSH2 0x2D47 JUMP JUMPDEST SWAP4 SWAP3 POP POP POP JUMP JUMPDEST PUSH2 0x2DCF DUP2 PUSH2 0x25D0 JUMP JUMPDEST DUP2 EQ PUSH2 0x2DD9 JUMPI PUSH0 DUP1 REVERT JUMPDEST POP JUMP JUMPDEST PUSH0 DUP2 MLOAD SWAP1 POP PUSH2 0x2DEA DUP2 PUSH2 0x2DC6 JUMP JUMPDEST SWAP3 SWAP2 POP POP JUMP JUMPDEST PUSH0 PUSH1 0x20 DUP3 DUP5 SUB SLT ISZERO PUSH2 0x2E05 JUMPI PUSH2 0x2E04 PUSH2 0x23C8 JUMP JUMPDEST JUMPDEST PUSH0 PUSH2 0x2E12 DUP5 DUP3 DUP6 ADD PUSH2 0x2DDC JUMP JUMPDEST SWAP2 POP POP SWAP3 SWAP2 POP POP JUMP JUMPDEST PUSH32 0x496E76616C69642070726F6F6600000000000000000000000000000000000000 PUSH0 DUP3 ADD MSTORE POP JUMP JUMPDEST PUSH0 PUSH2 0x2E4F PUSH1 0xD DUP4 PUSH2 0x2ABF JUMP JUMPDEST SWAP2 POP PUSH2 0x2E5A DUP3 PUSH2 0x2E1B JUMP JUMPDEST PUSH1 0x20 DUP3 ADD SWAP1 POP SWAP2 SWAP1 POP JUMP JUMPDEST PUSH0 PUSH1 0x20 DUP3 ADD SWAP1 POP DUP2 DUP2 SUB PUSH0 DUP4 ADD MSTORE PUSH2 0x2E7C DUP2 PUSH2 0x2E43 JUMP JUMPDEST SWAP1 POP SWAP2 SWAP1 POP JUMP JUMPDEST PUSH32 0x4E487B7100000000000000000000000000000000000000000000000000000000 PUSH0 MSTORE PUSH1 0x41 PUSH1 0x4 MSTORE PUSH1 0x24 PUSH0 REVERT JUMPDEST PUSH32 0x4E487B7100000000000000000000000000000000000000000000000000000000 PUSH0 MSTORE PUSH1 0x12 PUSH1 0x4 MSTORE PUSH1 0x24 PUSH0 REVERT JUMPDEST PUSH0 PUSH2 0x2EE7 DUP3 PUSH2 0x23D0 JUMP JUMPDEST SWAP2 POP PUSH2 0x2EF2 DUP4 PUSH2 0x23D0 JUMP JUMPDEST SWAP3 POP DUP3 PUSH2 0x2F02 JUMPI PUSH2 0x2F01 PUSH2 0x2EB0 JUMP JUMPDEST JUMPDEST DUP3 DUP3 MOD SWAP1 POP SWAP3 SWAP2 POP POP JUMP JUMPDEST PUSH32 0x4E487B7100000000000000000000000000000000000000000000000000000000 PUSH0 MSTORE PUSH1 0x11 PUSH1 0x4 MSTORE PUSH1 0x24 PUSH0 REVERT JUMPDEST PUSH0 PUSH2 0x2F44 DUP3 PUSH2 0x23D0 JUMP JUMPDEST SWAP2 POP PUSH2 0x2F4F DUP4 PUSH2 0x23D0 JUMP JUMPDEST SWAP3 POP DUP3 PUSH2 0x2F5F JUMPI PUSH2 0x2F5E PUSH2 0x2EB0 JUMP JUMPDEST JUMPDEST DUP3 DUP3 DIV SWAP1 POP SWAP3 SWAP2 POP POP JUMP JUMPDEST PUSH32 0x416D6F756E742065786365656473206D6178696D756D00000000000000000000 PUSH0 DUP3 ADD MSTORE POP JUMP JUMPDEST PUSH0 PUSH2 0x2F9E PUSH1 0x16 DUP4 PUSH2 0x2ABF JUMP JUMPDEST SWAP2 POP PUSH2 0x2FA9 DUP3 PUSH2 0x2F6A JUMP JUMPDEST PUSH1 0x20 DUP3 ADD SWAP1 POP SWAP2 SWAP1 POP JUMP JUMPDEST PUSH0 PUSH1 0x20 DUP3 ADD SWAP1 POP DUP2 DUP2 SUB PUSH0 DUP4 ADD MSTORE PUSH2 0x2FCB DUP2 PUSH2 0x2F92 JUMP JUMPDEST SWAP1 POP SWAP2 SWAP1 POP JUMP JUMPDEST PUSH32 0x436F6D6D69746D656E7420657869737473000000000000000000000000000000 PUSH0 DUP3 ADD MSTORE POP JUMP JUMPDEST PUSH0 PUSH2 0x3006 PUSH1 0x11 DUP4 PUSH2 0x2ABF JUMP JUMPDEST SWAP2 POP PUSH2 0x3011 DUP3 PUSH2 0x2FD2 JUMP JUMPDEST PUSH1 0x20 DUP3 ADD SWAP1 POP SWAP2 SWAP1 POP JUMP JUMPDEST PUSH0 PUSH1 0x20 DUP3 ADD SWAP1 POP DUP2 DUP2 SUB PUSH0 DUP4 ADD MSTORE PUSH2 0x3033 DUP2 PUSH2 0x2FFA JUMP JUMPDEST SWAP1 POP SWAP2 SWAP1 POP JUMP JUMPDEST PUSH0 PUSH1 0x60 DUP3 ADD SWAP1 POP PUSH2 0x304D PUSH0 DUP4 ADD DUP7 PUSH2 0x29CA JUMP JUMPDEST PUSH2 0x305A PUSH1 0x20 DUP4 ADD DUP6 PUSH2 0x29CA JUMP JUMPDEST PUSH2 0x3067 PUSH1 0x40 DUP4 ADD DUP5 PUSH2 0x242E JUMP JUMPDEST SWAP5 SWAP4 POP POP POP POP JUMP JUMPDEST PUSH0 DUP2 PUSH1 0x1 SHR SWAP1 POP SWAP2 SWAP1 POP JUMP JUMPDEST PUSH0 DUP1 DUP3 SWAP2 POP DUP4 SWAP1 POP JUMPDEST PUSH1 0x1 DUP6 GT ISZERO PUSH2 0x30C4 JUMPI DUP1 DUP7 DIV DUP2 GT ISZERO PUSH2 0x30A0 JUMPI PUSH2 0x309F PUSH2 0x2F0D JUMP JUMPDEST JUMPDEST PUSH1 0x1 DUP6 AND ISZERO PUSH2 0x30AF JUMPI DUP1 DUP3 MUL SWAP2 POP JUMPDEST DUP1 DUP2 MUL SWAP1 POP PUSH2 0x30BD DUP6 PUSH2 0x306F JUMP JUMPDEST SWAP5 POP PUSH2 0x3084 JUMP JUMPDEST SWAP5 POP SWAP5 SWAP3 POP POP POP JUMP JUMPDEST PUSH0 DUP3 PUSH2 0x30DC JUMPI PUSH1 0x1 SWAP1 POP PUSH2 0x3197 JUMP JUMPDEST DUP2 PUSH2 0x30E9 JUMPI PUSH0 SWAP1 POP PUSH2 0x3197 JUMP JUMPDEST DUP2 PUSH1 0x1 DUP2 EQ PUSH2 0x30FF JUMPI PUSH1 0x2 DUP2 EQ PUSH2 0x3109 JUMPI PUSH2 0x3138 JUMP JUMPDEST PUSH1 0x1 SWAP2 POP POP PUSH2 0x3197 JUMP JUMPDEST PUSH1 0xFF DUP5 GT ISZERO PUSH2 0x311B JUMPI PUSH2 0x311A PUSH2 0x2F0D JUMP JUMPDEST JUMPDEST DUP4 PUSH1 0x2 EXP SWAP2 POP DUP5 DUP3 GT ISZERO PUSH2 0x3132 JUMPI PUSH2 0x3131 PUSH2 0x2F0D JUMP JUMPDEST JUMPDEST POP PUSH2 0x3197 JUMP JUMPDEST POP PUSH1 0x20 DUP4 LT PUSH2 0x133 DUP4 LT AND PUSH1 0x4E DUP5 LT PUSH1 0xB DUP5 LT AND OR ISZERO PUSH2 0x316D JUMPI DUP3 DUP3 EXP SWAP1 POP DUP4 DUP2 GT ISZERO PUSH2 0x3168 JUMPI PUSH2 0x3167 PUSH2 0x2F0D JUMP JUMPDEST JUMPDEST PUSH2 0x3197 JUMP JUMPDEST PUSH2 0x317A DUP5 DUP5 DUP5 PUSH1 0x1 PUSH2 0x307B JUMP JUMPDEST SWAP3 POP SWAP1 POP DUP2 DUP5 DIV DUP2 GT ISZERO PUSH2 0x3191 JUMPI PUSH2 0x3190 PUSH2 0x2F0D JUMP JUMPDEST JUMPDEST DUP2 DUP2 MUL SWAP1 POP JUMPDEST SWAP4 SWAP3 POP POP POP JUMP JUMPDEST PUSH0 PUSH2 0x31A8 DUP3 PUSH2 0x23D0 JUMP JUMPDEST SWAP2 POP PUSH2 0x31B3 DUP4 PUSH2 0x23D0 JUMP JUMPDEST SWAP3 POP PUSH2 0x31E0 PUSH32 0xFFFFFFFFFFFFFFFFFFFFFFFFFFFFFFFFFFFFFFFFFFFFFFFFFFFFFFFFFFFFFFFF DUP5 DUP5 PUSH2 0x30CD JUMP JUMPDEST SWAP1 POP SWAP3 SWAP2 POP POP JUMP JUMPDEST PUSH32 0x496E646578206F7574206F6620626F756E647300000000000000000000000000 PUSH0 DUP3 ADD MSTORE POP JUMP JUMPDEST PUSH0 PUSH2 0x321C PUSH1 0x13 DUP4 PUSH2 0x2ABF JUMP JUMPDEST SWAP2 POP PUSH2 0x3227 DUP3 PUSH2 0x31E8 JUMP JUMPDEST PUSH1 0x20 DUP3 ADD SWAP1 POP SWAP2 SWAP1 POP JUMP JUMPDEST PUSH0 PUSH1 0x20 DUP3 ADD SWAP1 POP DUP2 DUP2 SUB PUSH0 DUP4 ADD MSTORE PUSH2 0x3249 DUP2 PUSH2 0x3210 JUMP JUMPDEST SWAP1 POP SWAP2 SWAP1 POP JUMP JUMPDEST PUSH0 DUP2 SWAP1 POP SWAP2 SWAP1 POP JUMP JUMPDEST PUSH2 0x326A PUSH2 0x3265 DUP3 PUSH2 0x2456 JUMP JUMPDEST PUSH2 0x3250 JUMP JUMPDEST DUP3 MSTORE POP POP JUMP JUMPDEST PUSH0 PUSH2 0x327B DUP3 DUP6 PUSH2 0x3259 JUMP JUMPDEST PUSH1 0x20 DUP3 ADD SWAP2 POP PUSH2 0x328B DUP3 DUP5 PUSH2 0x3259 JUMP JUMPDEST PUSH1 0x20 DUP3 ADD SWAP2 POP DUP2 SWAP1 POP SWAP4 SWAP3 POP POP POP JUMP JUMPDEST PUSH0 PUSH2 0x32A5 DUP3 PUSH2 0x23D0 JUMP JUMPDEST SWAP2 POP PUSH2 0x32B0 DUP4 PUSH2 0x23D0 JUMP JUMPDEST SWAP3 POP DUP3 DUP3 ADD SWAP1 POP DUP1 DUP3 GT ISZERO PUSH2 0x32C8 JUMPI PUSH2 0x32C7 PUSH2 0x2F0D JUMP JUMPDEST JUMPDEST SWAP3 SWAP2 POP POP JUMP JUMPDEST PUSH32 0x496E76616C696420696E707574206C656E677468000000000000000000000000 PUSH0 DUP3 ADD MSTORE POP JUMP JUMPDEST PUSH0 PUSH2 0x3302 PUSH1 0x14 DUP4 PUSH2 0x2ABF JUMP JUMPDEST SWAP2 POP PUSH2 0x330D DUP3 PUSH2 0x32CE JUMP JUMPDEST PUSH1 0x20 DUP3 ADD SWAP1 POP SWAP2 SWAP1 POP JUMP JUMPDEST PUSH0 PUSH1 0x20 DUP3 ADD SWAP1 POP DUP2 DUP2 SUB PUSH0 DUP4 ADD MSTORE PUSH2 0x332F DUP2 PUSH2 0x32F6 JUMP JUMPDEST SWAP1 POP SWAP2 SWAP1 POP JUMP JUMPDEST PUSH0 PUSH2 0x3340 DUP3 PUSH2 0x23D0 JUMP JUMPDEST SWAP2 POP PUSH2 0x334B DUP4 PUSH2 0x23D0 JUMP JUMPDEST SWAP3 POP DUP3 DUP3 MUL PUSH2 0x3359 DUP2 PUSH2 0x23D0 JUMP JUMPDEST SWAP2 POP DUP3 DUP3 DIV DUP5 EQ DUP4 ISZERO OR PUSH2 0x3370 JUMPI PUSH2 0x336F PUSH2 0x2F0D JUMP JUMPDEST JUMPDEST POP SWAP3 SWAP2 POP POP JUMP JUMPDEST PUSH32 0x50616972696E6720636865636B206661696C6564000000000000000000000000 PUSH0 DUP3 ADD MSTORE POP JUMP JUMPDEST PUSH0 PUSH2 0x33AB PUSH1 0x14 DUP4 PUSH2 0x2ABF JUMP JUMPDEST SWAP2 POP PUSH2 0x33B6 DUP3 PUSH2 0x3377 JUMP JUMPDEST PUSH1 0x20 DUP3 ADD SWAP1 POP SWAP2 SWAP1 POP JUMP JUMPDEST PUSH0 PUSH1 0x20 DUP3 ADD SWAP1 POP DUP2 DUP2 SUB PUSH0 DUP4 ADD MSTORE PUSH2 0x33D8 DUP2 PUSH2 0x339F JUMP JUMPDEST SWAP1 POP SWAP2 SWAP1 POP JUMP JUMPDEST PUSH32 0x4D65726B6C6520747265652066756C6C00000000000000000000000000000000 PUSH0 DUP3 ADD MSTORE POP JUMP JUMPDEST PUSH0 PUSH2 0x3413 PUSH1 0x10 DUP4 PUSH2 0x2ABF JUMP JUMPDEST SWAP2 POP PUSH2 0x341E DUP3 PUSH2 0x33DF JUMP JUMPDEST PUSH1 0x20 DUP3 ADD SWAP1 POP SWAP2 SWAP1 POP JUMP JUMPDEST PUSH0 PUSH1 0x20 DUP3 ADD SWAP1 POP DUP2 DUP2 SUB PUSH0 DUP4 ADD MSTORE PUSH2 0x3440 DUP2 PUSH2 0x3407 JUMP JUMPDEST SWAP1 POP SWAP2 SWAP1 POP JUMP JUMPDEST PUSH0 PUSH2 0x3451 DUP3 PUSH2 0x23D0 JUMP JUMPDEST SWAP2 POP PUSH32 0xFFFFFFFFFFFFFFFFFFFFFFFFFFFFFFFFFFFFFFFFFFFFFFFFFFFFFFFFFFFFFFFF DUP3 SUB PUSH2 0x3483 JUMPI PUSH2 0x3482 PUSH2 0x2F0D JUMP JUMPDEST JUMPDEST PUSH1 0x1 DUP3 ADD SWAP1 POP SWAP2 SWAP1 POP JUMP JUMPDEST PUSH0 PUSH2 0x3498 DUP3 PUSH2 0x23D0 JUMP JUMPDEST SWAP2 POP PUSH2 0x34A3 DUP4 PUSH2 0x23D0 JUMP JUMPDEST SWAP3 POP DUP3 DUP3 SUB SWAP1 POP DUP2 DUP2 GT ISZERO PUSH2 0x34BB JUMPI PUSH2 0x34BA PUSH2 0x2F0D JUMP JUMPDEST JUMPDEST SWAP3 SWAP2 POP POP JUMP INVALID LOG2 PUSH5 0x6970667358 0x22 SLT KECCAK256 0xBF STATICCALL 0xE8 PUSH28 0x43EE25CF00F979789C69860DEEFF2CDDE3636962C3847038112CA7BB PUSH5 0x736F6C6343 STOP ADDMOD BYTE STOP CALLER "
				},
				"gasEstimates": {
					"creation": {
						"codeDepositCost": "2711800",
						"executionCost": "infinite",
						"totalCost": "infinite"
					},
					"external": {
						"MAX_TRANSFER_AMOUNT()": "391",
						"MERKLE_TREE_LEVELS()": "414",
						"alphaComponents(uint256)": "infinite",
						"betaComponents(uint256,uint256)": "infinite",
						"createNote(bytes32,address,uint256,uint256[8])": "infinite",
						"currentRoot()": "2535",
						"deltaComponents(uint256)": "infinite",
						"gammaComponents(uint256)": "infinite",
						"getMerkleProof(bytes32)": "infinite",
						"getMerkleRoot()": "2482",
						"getMerkleTreeSize()": "2499",
						"hasCommitmentAtIndex(uint256)": "infinite",
						"icComponents(uint256,uint256)": "infinite",
						"icLength()": "2537",
						"merkleTree(bytes32,uint256)": "infinite",
						"notes(bytes32)": "infinite",
						"nullifierSpent(bytes32)": "2831",
						"owner()": "2582",
						"pause()": "infinite",
						"paused()": "2562",
						"renounceOwnership()": "infinite",
						"spendNote(bytes32,bytes32,bytes32,uint256[8])": "infinite",
						"tokenBalances(address)": "2869",
						"transferOwnership(address)": "infinite",
						"unpause()": "infinite",
						"verifyMerkleProof(bytes32,bytes32[],uint256[])": "infinite",
						"verifyProof(uint256[8],uint256[1])": "infinite"
					},
					"internal": {
						"_isOnCurve(uint256,uint256)": "infinite",
						"_negate(uint256,uint256)": "infinite",
						"_pointAdd(uint256,uint256,uint256,uint256)": "infinite",
						"_scalarMul(uint256[2] memory,uint256)": "infinite",
						"_verifyPairing(uint256[2] memory,uint256[2] memory[2] memory,uint256[2] memory,uint256[2] memory,uint256[2] memory,uint256[2] memory,uint256[2] memory,uint256[2] memory)": "infinite",
						"_verifyProof(uint256[2] memory,uint256[2] memory[2] memory,uint256[2] memory,uint256[1] memory)": "infinite",
						"getNextIndex()": "infinite",
						"getSiblingIndex(uint256,uint256)": "44",
						"hashPair(bytes32,bytes32)": "infinite",
						"insertIntoMerkleTree(bytes32)": "infinite"
					}
				},
				"methodIdentifiers": {
					"MAX_TRANSFER_AMOUNT()": "fc1b3113",
					"MERKLE_TREE_LEVELS()": "a6a12ac4",
					"alphaComponents(uint256)": "02e291b1",
					"betaComponents(uint256,uint256)": "cb57dc3e",
					"createNote(bytes32,address,uint256,uint256[8])": "46de701b",
					"currentRoot()": "fdab463d",
					"deltaComponents(uint256)": "5d41f36e",
					"gammaComponents(uint256)": "63a787e2",
					"getMerkleProof(bytes32)": "2e36b050",
					"getMerkleRoot()": "49590657",
					"getMerkleTreeSize()": "e8279ca0",
					"hasCommitmentAtIndex(uint256)": "ea41537d",
					"icComponents(uint256,uint256)": "fc8221a9",
					"icLength()": "280ee92a",
					"merkleTree(bytes32,uint256)": "e78813db",
					"notes(bytes32)": "85de26b7",
					"nullifierSpent(bytes32)": "38c86911",
					"owner()": "8da5cb5b",
					"pause()": "8456cb59",
					"paused()": "5c975abb",
					"renounceOwnership()": "715018a6",
					"spendNote(bytes32,bytes32,bytes32,uint256[8])": "1ed1b416",
					"tokenBalances(address)": "523fba7f",
					"transferOwnership(address)": "f2fde38b",
					"unpause()": "3f4ba83a",
					"verifyMerkleProof(bytes32,bytes32[],uint256[])": "0f045205",
					"verifyProof(uint256[8],uint256[1])": "1b81f829"
				}
			},
			"storageLayout": {
				"storage": [
					{
						"astId": 8,
						"contract": "privacy/zkp/TransferProver.sol:TransferProver",
						"label": "_owner",
						"offset": 0,
						"slot": "0",
						"type": "t_address"
					},
					{
						"astId": 305,
						"contract": "privacy/zkp/TransferProver.sol:TransferProver",
						"label": "_status",
						"offset": 0,
						"slot": "1",
						"type": "t_uint256"
					},
					{
						"astId": 186,
						"contract": "privacy/zkp/TransferProver.sol:TransferProver",
						"label": "_paused",
						"offset": 0,
						"slot": "2",
						"type": "t_bool"
					},
					{
						"astId": 476,
						"contract": "privacy/zkp/TransferProver.sol:TransferProver",
						"label": "alphaComponents",
						"offset": 0,
						"slot": "3",
						"type": "t_mapping(t_uint256,t_uint256)"
					},
					{
						"astId": 482,
						"contract": "privacy/zkp/TransferProver.sol:TransferProver",
						"label": "betaComponents",
						"offset": 0,
						"slot": "4",
						"type": "t_mapping(t_uint256,t_mapping(t_uint256,t_uint256))"
					},
					{
						"astId": 486,
						"contract": "privacy/zkp/TransferProver.sol:TransferProver",
						"label": "gammaComponents",
						"offset": 0,
						"slot": "5",
						"type": "t_mapping(t_uint256,t_uint256)"
					},
					{
						"astId": 490,
						"contract": "privacy/zkp/TransferProver.sol:TransferProver",
						"label": "deltaComponents",
						"offset": 0,
						"slot": "6",
						"type": "t_mapping(t_uint256,t_uint256)"
					},
					{
						"astId": 496,
						"contract": "privacy/zkp/TransferProver.sol:TransferProver",
						"label": "icComponents",
						"offset": 0,
						"slot": "7",
						"type": "t_mapping(t_uint256,t_mapping(t_uint256,t_uint256))"
					},
					{
						"astId": 498,
						"contract": "privacy/zkp/TransferProver.sol:TransferProver",
						"label": "icLength",
						"offset": 0,
						"slot": "8",
						"type": "t_uint256"
					},
					{
						"astId": 514,
						"contract": "privacy/zkp/TransferProver.sol:TransferProver",
						"label": "notes",
						"offset": 0,
						"slot": "9",
						"type": "t_mapping(t_bytes32,t_struct(Note)509_storage)"
					},
					{
						"astId": 518,
						"contract": "privacy/zkp/TransferProver.sol:TransferProver",
						"label": "nullifierSpent",
						"offset": 0,
						"slot": "10",
						"type": "t_mapping(t_bytes32,t_bool)"
					},
					{
						"astId": 524,
						"contract": "privacy/zkp/TransferProver.sol:TransferProver",
						"label": "merkleTree",
						"offset": 0,
						"slot": "11",
						"type": "t_mapping(t_bytes32,t_mapping(t_uint256,t_bytes32))"
					},
					{
						"astId": 528,
						"contract": "privacy/zkp/TransferProver.sol:TransferProver",
						"label": "tokenBalances",
						"offset": 0,
						"slot": "12",
						"type": "t_mapping(t_address,t_uint256)"
					},
					{
						"astId": 540,
						"contract": "privacy/zkp/TransferProver.sol:TransferProver",
						"label": "currentRoot",
						"offset": 0,
						"slot": "13",
						"type": "t_uint256"
					},
					{
						"astId": 542,
						"contract": "privacy/zkp/TransferProver.sol:TransferProver",
						"label": "nextIndex",
						"offset": 0,
						"slot": "14",
						"type": "t_uint256"
					}
				],
				"types": {
					"t_address": {
						"encoding": "inplace",
						"label": "address",
						"numberOfBytes": "20"
					},
					"t_bool": {
						"encoding": "inplace",
						"label": "bool",
						"numberOfBytes": "1"
					},
					"t_bytes32": {
						"encoding": "inplace",
						"label": "bytes32",
						"numberOfBytes": "32"
					},
					"t_mapping(t_address,t_uint256)": {
						"encoding": "mapping",
						"key": "t_address",
						"label": "mapping(address => uint256)",
						"numberOfBytes": "32",
						"value": "t_uint256"
					},
					"t_mapping(t_bytes32,t_bool)": {
						"encoding": "mapping",
						"key": "t_bytes32",
						"label": "mapping(bytes32 => bool)",
						"numberOfBytes": "32",
						"value": "t_bool"
					},
					"t_mapping(t_bytes32,t_mapping(t_uint256,t_bytes32))": {
						"encoding": "mapping",
						"key": "t_bytes32",
						"label": "mapping(bytes32 => mapping(uint256 => bytes32))",
						"numberOfBytes": "32",
						"value": "t_mapping(t_uint256,t_bytes32)"
					},
					"t_mapping(t_bytes32,t_struct(Note)509_storage)": {
						"encoding": "mapping",
						"key": "t_bytes32",
						"label": "mapping(bytes32 => struct TransferProver.Note)",
						"numberOfBytes": "32",
						"value": "t_struct(Note)509_storage"
					},
					"t_mapping(t_uint256,t_bytes32)": {
						"encoding": "mapping",
						"key": "t_uint256",
						"label": "mapping(uint256 => bytes32)",
						"numberOfBytes": "32",
						"value": "t_bytes32"
					},
					"t_mapping(t_uint256,t_mapping(t_uint256,t_uint256))": {
						"encoding": "mapping",
						"key": "t_uint256",
						"label": "mapping(uint256 => mapping(uint256 => uint256))",
						"numberOfBytes": "32",
						"value": "t_mapping(t_uint256,t_uint256)"
					},
					"t_mapping(t_uint256,t_uint256)": {
						"encoding": "mapping",
						"key": "t_uint256",
						"label": "mapping(uint256 => uint256)",
						"numberOfBytes": "32",
						"value": "t_uint256"
					},
					"t_struct(Note)509_storage": {
						"encoding": "inplace",
						"label": "struct TransferProver.Note",
						"members": [
							{
								"astId": 500,
								"contract": "privacy/zkp/TransferProver.sol:TransferProver",
								"label": "commitment",
								"offset": 0,
								"slot": "0",
								"type": "t_bytes32"
							},
							{
								"astId": 502,
								"contract": "privacy/zkp/TransferProver.sol:TransferProver",
								"label": "nullifier",
								"offset": 0,
								"slot": "1",
								"type": "t_bytes32"
							},
							{
								"astId": 504,
								"contract": "privacy/zkp/TransferProver.sol:TransferProver",
								"label": "amount",
								"offset": 0,
								"slot": "2",
								"type": "t_uint256"
							},
							{
								"astId": 506,
								"contract": "privacy/zkp/TransferProver.sol:TransferProver",
								"label": "token",
								"offset": 0,
								"slot": "3",
								"type": "t_address"
							},
							{
								"astId": 508,
								"contract": "privacy/zkp/TransferProver.sol:TransferProver",
								"label": "spent",
								"offset": 20,
								"slot": "3",
								"type": "t_bool"
							}
						],
						"numberOfBytes": "128"
					},
					"t_uint256": {
						"encoding": "inplace",
						"label": "uint256",
						"numberOfBytes": "32"
					}
				}
			},
			"userdoc": {
				"kind": "user",
				"methods": {
					"constructor": {
						"notice": "Constructor initializes with owner"
					},
					"createNote(bytes32,address,uint256,uint256[8])": {
						"notice": "Create a new shielded transfer note"
					},
					"getMerkleProof(bytes32)": {
						"notice": "Get merkle proof for a commitment"
					},
					"getMerkleRoot()": {
						"notice": "Get the merkle root"
					},
					"getMerkleTreeSize()": {
						"notice": "Get current number of elements in the tree"
					},
					"hasCommitmentAtIndex(uint256)": {
						"notice": "Check if a commitment exists at given index"
					},
					"spendNote(bytes32,bytes32,bytes32,uint256[8])": {
						"notice": "Spend a note in a private transfer"
					},
					"verifyMerkleProof(bytes32,bytes32[],uint256[])": {
						"notice": "Verify a merkle proof"
					}
				},
				"version": 1
			}
		}
	}
}