{
	"privacy/zkp/MessageProver.sol": {
		"MessageProver": {
			"abi": [
				{
					"inputs": [
						{
							"internalType": "address",
							"name": "initialOwner",
							"type": "address"
						}
					],
					"stateMutability": "nonpayable",
					"type": "constructor"
				},
				{
					"inputs": [],
					"name": "EnforcedPause",
					"type": "error"
				},
				{
					"inputs": [],
					"name": "ExpectedPause",
					"type": "error"
				},
				{
					"inputs": [
						{
							"internalType": "address",
							"name": "owner",
							"type": "address"
						}
					],
					"name": "OwnableInvalidOwner",
					"type": "error"
				},
				{
					"inputs": [
						{
							"internalType": "address",
							"name": "account",
							"type": "address"
						}
					],
					"name": "OwnableUnauthorizedAccount",
					"type": "error"
				},
				{
					"inputs": [],
					"name": "ReentrancyGuardReentrantCall",
					"type": "error"
				},
				{
					"anonymous": false,
					"inputs": [
						{
							"indexed": true,
							"internalType": "address",
							"name": "previousOwner",
							"type": "address"
						},
						{
							"indexed": true,
							"internalType": "address",
							"name": "newOwner",
							"type": "address"
						}
					],
					"name": "OwnershipTransferred",
					"type": "event"
				},
				{
					"anonymous": false,
					"inputs": [
						{
							"indexed": false,
							"internalType": "address",
							"name": "account",
							"type": "address"
						}
					],
					"name": "Paused",
					"type": "event"
				},
				{
					"anonymous": false,
					"inputs": [
						{
							"indexed": true,
							"internalType": "bytes32",
							"name": "commitment",
							"type": "bytes32"
						},
						{
							"indexed": true,
							"internalType": "bytes32",
							"name": "nullifier",
							"type": "bytes32"
						},
						{
							"indexed": true,
							"internalType": "address",
							"name": "sender",
							"type": "address"
						},
						{
							"indexed": false,
							"internalType": "uint256",
							"name": "timestamp",
							"type": "uint256"
						}
					],
					"name": "ProofVerified",
					"type": "event"
				},
				{
					"anonymous": false,
					"inputs": [
						{
							"indexed": false,
							"internalType": "address",
							"name": "account",
							"type": "address"
						}
					],
					"name": "Unpaused",
					"type": "event"
				},
				{
					"anonymous": false,
					"inputs": [
						{
							"indexed": true,
							"internalType": "address",
							"name": "updater",
							"type": "address"
						}
					],
					"name": "VerifyingKeyUpdated",
					"type": "event"
				},
				{
					"inputs": [
						{
							"internalType": "uint256",
							"name": "",
							"type": "uint256"
						}
					],
					"name": "alpha1Components",
					"outputs": [
						{
							"internalType": "uint256",
							"name": "",
							"type": "uint256"
						}
					],
					"stateMutability": "view",
					"type": "function"
				},
				{
					"inputs": [
						{
							"internalType": "uint256",
							"name": "",
							"type": "uint256"
						}
					],
					"name": "beta2Components",
					"outputs": [
						{
							"internalType": "uint256",
							"name": "",
							"type": "uint256"
						}
					],
					"stateMutability": "view",
					"type": "function"
				},
				{
					"inputs": [
						{
							"internalType": "uint256",
							"name": "",
							"type": "uint256"
						}
					],
					"name": "delta2Components",
					"outputs": [
						{
							"internalType": "uint256",
							"name": "",
							"type": "uint256"
						}
					],
					"stateMutability": "view",
					"type": "function"
				},
				{
					"inputs": [
						{
							"internalType": "uint256",
							"name": "",
							"type": "uint256"
						}
					],
					"name": "gamma2Components",
					"outputs": [
						{
							"internalType": "uint256",
							"name": "",
							"type": "uint256"
						}
					],
					"stateMutability": "view",
					"type": "function"
				},
				{
					"inputs": [
						{
							"internalType": "uint256",
							"name": "",
							"type": "uint256"
						},
						{
							"internalType": "uint256",
							"name": "",
							"type": "uint256"
						}
					],
					"name": "icComponents",
					"outputs": [
						{
							"internalType": "uint256",
							"name": "",
							"type": "uint256"
						}
					],
					"stateMutability": "view",
					"type": "function"
				},
				{
					"inputs": [],
					"name": "icLength",
					"outputs": [
						{
							"internalType": "uint256",
							"name": "",
							"type": "uint256"
						}
					],
					"stateMutability": "view",
					"type": "function"
				},
				{
					"inputs": [
						{
							"internalType": "uint256[2]",
							"name": "_alpha1",
							"type": "uint256[2]"
						},
						{
							"internalType": "uint256[2]",
							"name": "_beta2",
							"type": "uint256[2]"
						},
						{
							"internalType": "uint256[2]",
							"name": "_gamma2",
							"type": "uint256[2]"
						},
						{
							"internalType": "uint256[2]",
							"name": "_delta2",
							"type": "uint256[2]"
						},
						{
							"internalType": "uint256[2][]",
							"name": "_ic",
							"type": "uint256[2][]"
						}
					],
					"name": "initializeVerificationKey",
					"outputs": [],
					"stateMutability": "nonpayable",
					"type": "function"
				},
				{
					"inputs": [
						{
							"internalType": "bytes32",
							"name": "",
							"type": "bytes32"
						}
					],
					"name": "messages",
					"outputs": [
						{
							"internalType": "bytes32",
							"name": "commitment",
							"type": "bytes32"
						},
						{
							"internalType": "bytes32",
							"name": "nullifier",
							"type": "bytes32"
						},
						{
							"internalType": "uint256",
							"name": "timestamp",
							"type": "uint256"
						},
						{
							"internalType": "bool",
							"name": "verified",
							"type": "bool"
						}
					],
					"stateMutability": "view",
					"type": "function"
				},
				{
					"inputs": [
						{
							"internalType": "bytes32",
							"name": "",
							"type": "bytes32"
						}
					],
					"name": "nullifierUsed",
					"outputs": [
						{
							"internalType": "bool",
							"name": "",
							"type": "bool"
						}
					],
					"stateMutability": "view",
					"type": "function"
				},
				{
					"inputs": [],
					"name": "owner",
					"outputs": [
						{
							"internalType": "address",
							"name": "",
							"type": "address"
						}
					],
					"stateMutability": "view",
					"type": "function"
				},
				{
					"inputs": [],
					"name": "pause",
					"outputs": [],
					"stateMutability": "nonpayable",
					"type": "function"
				},
				{
					"inputs": [],
					"name": "paused",
					"outputs": [
						{
							"internalType": "bool",
							"name": "",
							"type": "bool"
						}
					],
					"stateMutability": "view",
					"type": "function"
				},
				{
					"inputs": [],
					"name": "renounceOwnership",
					"outputs": [],
					"stateMutability": "nonpayable",
					"type": "function"
				},
				{
					"inputs": [
						{
							"internalType": "address",
							"name": "newOwner",
							"type": "address"
						}
					],
					"name": "transferOwnership",
					"outputs": [],
					"stateMutability": "nonpayable",
					"type": "function"
				},
				{
					"inputs": [],
					"name": "unpause",
					"outputs": [],
					"stateMutability": "nonpayable",
					"type": "function"
				},
				{
					"inputs": [
						{
							"internalType": "bytes32",
							"name": "commitment",
							"type": "bytes32"
						},
						{
							"internalType": "bytes32",
							"name": "nullifier",
							"type": "bytes32"
						},
						{
							"internalType": "address",
							"name": "sender",
							"type": "address"
						},
						{
							"internalType": "address",
							"name": "recipient",
							"type": "address"
						},
						{
							"internalType": "bytes",
							"name": "proof",
							"type": "bytes"
						}
					],
					"name": "verifyMessageProof",
					"outputs": [
						{
							"internalType": "bool",
							"name": "",
							"type": "bool"
						}
					],
					"stateMutability": "nonpayable",
					"type": "function"
				},
				{
					"inputs": [
						{
							"internalType": "uint256[8]",
							"name": "proof",
							"type": "uint256[8]"
						},
						{
							"internalType": "uint256[1]",
							"name": "input",
							"type": "uint256[1]"
						}
					],
					"name": "verifyProof",
					"outputs": [
						{
							"internalType": "bool",
							"name": "",
							"type": "bool"
						}
					],
					"stateMutability": "view",
					"type": "function"
				}
			],
			"devdoc": {
				"errors": {
					"EnforcedPause()": [
						{
							"details": "The operation failed because the contract is paused."
						}
					],
					"ExpectedPause()": [
						{
							"details": "The operation failed because the contract is not paused."
						}
					],
					"OwnableInvalidOwner(address)": [
						{
							"details": "The owner is not a valid owner account. (eg. `address(0)`)"
						}
					],
					"OwnableUnauthorizedAccount(address)": [
						{
							"details": "The caller account is not authorized to perform an operation."
						}
					],
					"ReentrancyGuardReentrantCall()": [
						{
							"details": "Unauthorized reentrant call."
						}
					]
				},
				"events": {
					"Paused(address)": {
						"details": "Emitted when the pause is triggered by `account`."
					},
					"Unpaused(address)": {
						"details": "Emitted when the pause is lifted by `account`."
					}
				},
				"kind": "dev",
				"methods": {
					"constructor": {
						"params": {
							"initialOwner": "Address of the contract owner"
						}
					},
					"initializeVerificationKey(uint256[2],uint256[2],uint256[2],uint256[2],uint256[2][])": {
						"params": {
							"_alpha1": "Alpha1 component values",
							"_beta2": "Beta2 component values",
							"_delta2": "Delta2 component values",
							"_gamma2": "Gamma2 component values",
							"_ic": "IC component values"
						}
					},
					"owner()": {
						"details": "Returns the address of the current owner."
					},
					"paused()": {
						"details": "Returns true if the contract is paused, and false otherwise."
					},
					"renounceOwnership()": {
						"details": "Leaves the contract without owner. It will not be possible to call `onlyOwner` functions. Can only be called by the current owner. NOTE: Renouncing ownership will leave the contract without an owner, thereby disabling any functionality that is only available to the owner."
					},
					"transferOwnership(address)": {
						"details": "Transfers ownership of the contract to a new account (`newOwner`). Can only be called by the current owner."
					},
					"verifyMessageProof(bytes32,bytes32,address,address,bytes)": {
						"params": {
							"commitment": "Message commitment",
							"nullifier": "Unique nullifier",
							"proof": "ZK proof components",
							"recipient": "Message recipient",
							"sender": "Message sender"
						}
					}
				},
				"version": 1
			},
			"evm": {
				"assembly": "    /* \"privacy/zkp/MessageProver.sol\":307:8851  contract MessageProver is IZKVerifier, Ownable, ReentrancyGuard, Pausable {... */\n  mstore(0x40, 0x80)\n    /* \"privacy/zkp/MessageProver.sol\":1600:1733  constructor(address initialOwner) Ownable(initialOwner) {... */\n  callvalue\n  dup1\n  iszero\n  tag_1\n  jumpi\n  0x00\n  dup1\n  revert\ntag_1:\n  pop\n  mload(0x40)\n  sub(codesize, bytecodeSize)\n  dup1\n  bytecodeSize\n  dup4\n  codecopy\n  dup2\n  dup2\n  add\n  0x40\n  mstore\n  dup2\n  add\n  swap1\n  tag_2\n  swap2\n  swap1\n  tag_3\n  jump\t// in\ntag_2:\n    /* \"privacy/zkp/MessageProver.sol\":1642:1654  initialOwner */\n  dup1\n    /* \"@openzeppelin/contracts/access/Ownable.sol\":1297:1298  0 */\n  0x00\n    /* \"@openzeppelin/contracts/access/Ownable.sol\":1273:1299  initialOwner == address(0) */\n  0xffffffffffffffffffffffffffffffffffffffff\n  and\n    /* \"@openzeppelin/contracts/access/Ownable.sol\":1273:1285  initialOwner */\n  dup2\n    /* \"@openzeppelin/contracts/access/Ownable.sol\":1273:1299  initialOwner == address(0) */\n  0xffffffffffffffffffffffffffffffffffffffff\n  and\n  sub\n    /* \"@openzeppelin/contracts/access/Ownable.sol\":1269:1364  if (initialOwner == address(0)) {... */\n  tag_9\n  jumpi\n    /* \"@openzeppelin/contracts/access/Ownable.sol\":1350:1351  0 */\n  0x00\n    /* \"@openzeppelin/contracts/access/Ownable.sol\":1322:1353  OwnableInvalidOwner(address(0)) */\n  mload(0x40)\n  0x1e4fbdf700000000000000000000000000000000000000000000000000000000\n  dup2\n  mstore\n  0x04\n  add\n  tag_10\n  swap2\n  swap1\n  tag_11\n  jump\t// in\ntag_10:\n  mload(0x40)\n  dup1\n  swap2\n  sub\n  swap1\n  revert\n    /* \"@openzeppelin/contracts/access/Ownable.sol\":1269:1364  if (initialOwner == address(0)) {... */\ntag_9:\n    /* \"@openzeppelin/contracts/access/Ownable.sol\":1373:1405  _transferOwnership(initialOwner) */\n  tag_12\n    /* \"@openzeppelin/contracts/access/Ownable.sol\":1392:1404  initialOwner */\n  dup2\n    /* \"@openzeppelin/contracts/access/Ownable.sol\":1373:1391  _transferOwnership */\n  shl(0x20, tag_13)\n    /* \"@openzeppelin/contracts/access/Ownable.sol\":1373:1405  _transferOwnership(initialOwner) */\n  0x20\n  shr\n  jump\t// in\ntag_12:\n    /* \"@openzeppelin/contracts/access/Ownable.sol\":1225:1412  constructor(address initialOwner) {... */\n  pop\n    /* \"@openzeppelin/contracts/utils/ReentrancyGuard.sol\":1857:1858  1 */\n  0x01\n    /* \"@openzeppelin/contracts/utils/ReentrancyGuard.sol\":2061:2068  _status */\n  dup1\n    /* \"@openzeppelin/contracts/utils/ReentrancyGuard.sol\":2061:2082  _status = NOT_ENTERED */\n  dup2\n  swap1\n  sstore\n  pop\n    /* \"@openzeppelin/contracts/utils/Pausable.sol\":1241:1246  false */\n  0x00\n    /* \"@openzeppelin/contracts/utils/Pausable.sol\":1231:1238  _paused */\n  0x02\n  0x00\n    /* \"@openzeppelin/contracts/utils/Pausable.sol\":1231:1246  _paused = false */\n  0x0100\n  exp\n  dup2\n  sload\n  dup2\n  0xff\n  mul\n  not\n  and\n  swap1\n  dup4\n  iszero\n  iszero\n  mul\n  or\n  swap1\n  sstore\n  pop\n    /* \"privacy/zkp/MessageProver.sol\":1698:1699  0 */\n  0x00\n    /* \"privacy/zkp/MessageProver.sol\":1674:1700  initialOwner != address(0) */\n  0xffffffffffffffffffffffffffffffffffffffff\n  and\n    /* \"privacy/zkp/MessageProver.sol\":1674:1686  initialOwner */\n  dup2\n    /* \"privacy/zkp/MessageProver.sol\":1674:1700  initialOwner != address(0) */\n  0xffffffffffffffffffffffffffffffffffffffff\n  and\n  sub\n    /* \"privacy/zkp/MessageProver.sol\":1666:1726  require(initialOwner != address(0), \"Invalid owner address\") */\n  tag_17\n  jumpi\n  mload(0x40)\n  0x08c379a000000000000000000000000000000000000000000000000000000000\n  dup2\n  mstore\n  0x04\n  add\n  tag_18\n  swap1\n  tag_19\n  jump\t// in\ntag_18:\n  mload(0x40)\n  dup1\n  swap2\n  sub\n  swap1\n  revert\ntag_17:\n    /* \"privacy/zkp/MessageProver.sol\":1600:1733  constructor(address initialOwner) Ownable(initialOwner) {... */\n  pop\n    /* \"privacy/zkp/MessageProver.sol\":307:8851  contract MessageProver is IZKVerifier, Ownable, ReentrancyGuard, Pausable {... */\n  jump(tag_20)\n    /* \"@openzeppelin/contracts/access/Ownable.sol\":2912:3099  function _transferOwnership(address newOwner) internal virtual {... */\ntag_13:\n    /* \"@openzeppelin/contracts/access/Ownable.sol\":2985:3001  address oldOwner */\n  0x00\n    /* \"@openzeppelin/contracts/access/Ownable.sol\":3004:3010  _owner */\n  dup1\n  0x00\n  swap1\n  sload\n  swap1\n  0x0100\n  exp\n  swap1\n  div\n  0xffffffffffffffffffffffffffffffffffffffff\n  and\n    /* \"@openzeppelin/contracts/access/Ownable.sol\":2985:3010  address oldOwner = _owner */\n  swap1\n  pop\n    /* \"@openzeppelin/contracts/access/Ownable.sol\":3029:3037  newOwner */\n  dup2\n    /* \"@openzeppelin/contracts/access/Ownable.sol\":3020:3026  _owner */\n  0x00\n  dup1\n    /* \"@openzeppelin/contracts/access/Ownable.sol\":3020:3037  _owner = newOwner */\n  0x0100\n  exp\n  dup2\n  sload\n  dup2\n  0xffffffffffffffffffffffffffffffffffffffff\n  mul\n  not\n  and\n  swap1\n  dup4\n  0xffffffffffffffffffffffffffffffffffffffff\n  and\n  mul\n  or\n  swap1\n  sstore\n  pop\n    /* \"@openzeppelin/contracts/access/Ownable.sol\":3083:3091  newOwner */\n  dup2\n    /* \"@openzeppelin/contracts/access/Ownable.sol\":3052:3092  OwnershipTransferred(oldOwner, newOwner) */\n  0xffffffffffffffffffffffffffffffffffffffff\n  and\n    /* \"@openzeppelin/contracts/access/Ownable.sol\":3073:3081  oldOwner */\n  dup2\n    /* \"@openzeppelin/contracts/access/Ownable.sol\":3052:3092  OwnershipTransferred(oldOwner, newOwner) */\n  0xffffffffffffffffffffffffffffffffffffffff\n  and\n  0x8be0079c531659141344cd1fd0a4f28419497f9722a3daafe3b4186f6b6457e0\n  mload(0x40)\n  mload(0x40)\n  dup1\n  swap2\n  sub\n  swap1\n  log3\n    /* \"@openzeppelin/contracts/access/Ownable.sol\":2975:3099  {... */\n  pop\n    /* \"@openzeppelin/contracts/access/Ownable.sol\":2912:3099  function _transferOwnership(address newOwner) internal virtual {... */\n  pop\n  jump\t// out\n    /* \"#utility.yul\":88:205   */\ntag_23:\n    /* \"#utility.yul\":197:198   */\n  0x00\n    /* \"#utility.yul\":194:195   */\n  dup1\n    /* \"#utility.yul\":187:199   */\n  revert\n    /* \"#utility.yul\":334:460   */\ntag_25:\n    /* \"#utility.yul\":371:378   */\n  0x00\n    /* \"#utility.yul\":411:453   */\n  0xffffffffffffffffffffffffffffffffffffffff\n    /* \"#utility.yul\":404:409   */\n  dup3\n    /* \"#utility.yul\":400:454   */\n  and\n    /* \"#utility.yul\":389:454   */\n  swap1\n  pop\n    /* \"#utility.yul\":334:460   */\n  swap2\n  swap1\n  pop\n  jump\t// out\n    /* \"#utility.yul\":466:562   */\ntag_26:\n    /* \"#utility.yul\":503:510   */\n  0x00\n    /* \"#utility.yul\":532:556   */\n  tag_39\n    /* \"#utility.yul\":550:555   */\n  dup3\n    /* \"#utility.yul\":532:556   */\n  tag_25\n  jump\t// in\ntag_39:\n    /* \"#utility.yul\":521:556   */\n  swap1\n  pop\n    /* \"#utility.yul\":466:562   */\n  swap2\n  swap1\n  pop\n  jump\t// out\n    /* \"#utility.yul\":568:690   */\ntag_27:\n    /* \"#utility.yul\":641:665   */\n  tag_41\n    /* \"#utility.yul\":659:664   */\n  dup2\n    /* \"#utility.yul\":641:665   */\n  tag_26\n  jump\t// in\ntag_41:\n    /* \"#utility.yul\":634:639   */\n  dup2\n    /* \"#utility.yul\":631:666   */\n  eq\n    /* \"#utility.yul\":621:684   */\n  tag_42\n  jumpi\n    /* \"#utility.yul\":680:681   */\n  0x00\n    /* \"#utility.yul\":677:678   */\n  dup1\n    /* \"#utility.yul\":670:682   */\n  revert\n    /* \"#utility.yul\":621:684   */\ntag_42:\n    /* \"#utility.yul\":568:690   */\n  pop\n  jump\t// out\n    /* \"#utility.yul\":696:839   */\ntag_28:\n    /* \"#utility.yul\":753:758   */\n  0x00\n    /* \"#utility.yul\":784:790   */\n  dup2\n    /* \"#utility.yul\":778:791   */\n  mload\n    /* \"#utility.yul\":769:791   */\n  swap1\n  pop\n    /* \"#utility.yul\":800:833   */\n  tag_44\n    /* \"#utility.yul\":827:832   */\n  dup2\n    /* \"#utility.yul\":800:833   */\n  tag_27\n  jump\t// in\ntag_44:\n    /* \"#utility.yul\":696:839   */\n  swap3\n  swap2\n  pop\n  pop\n  jump\t// out\n    /* \"#utility.yul\":845:1196   */\ntag_3:\n    /* \"#utility.yul\":915:921   */\n  0x00\n    /* \"#utility.yul\":964:966   */\n  0x20\n    /* \"#utility.yul\":952:961   */\n  dup3\n    /* \"#utility.yul\":943:950   */\n  dup5\n    /* \"#utility.yul\":939:962   */\n  sub\n    /* \"#utility.yul\":935:967   */\n  slt\n    /* \"#utility.yul\":932:1051   */\n  iszero\n  tag_46\n  jumpi\n    /* \"#utility.yul\":970:1049   */\n  tag_47\n  tag_23\n  jump\t// in\ntag_47:\n    /* \"#utility.yul\":932:1051   */\ntag_46:\n    /* \"#utility.yul\":1090:1091   */\n  0x00\n    /* \"#utility.yul\":1115:1179   */\n  tag_48\n    /* \"#utility.yul\":1171:1178   */\n  dup5\n    /* \"#utility.yul\":1162:1168   */\n  dup3\n    /* \"#utility.yul\":1151:1160   */\n  dup6\n    /* \"#utility.yul\":1147:1169   */\n  add\n    /* \"#utility.yul\":1115:1179   */\n  tag_28\n  jump\t// in\ntag_48:\n    /* \"#utility.yul\":1105:1179   */\n  swap2\n  pop\n    /* \"#utility.yul\":1061:1189   */\n  pop\n    /* \"#utility.yul\":845:1196   */\n  swap3\n  swap2\n  pop\n  pop\n  jump\t// out\n    /* \"#utility.yul\":1202:1320   */\ntag_29:\n    /* \"#utility.yul\":1289:1313   */\n  tag_50\n    /* \"#utility.yul\":1307:1312   */\n  dup2\n    /* \"#utility.yul\":1289:1313   */\n  tag_26\n  jump\t// in\ntag_50:\n    /* \"#utility.yul\":1284:1287   */\n  dup3\n    /* \"#utility.yul\":1277:1314   */\n  mstore\n    /* \"#utility.yul\":1202:1320   */\n  pop\n  pop\n  jump\t// out\n    /* \"#utility.yul\":1326:1548   */\ntag_11:\n    /* \"#utility.yul\":1419:1423   */\n  0x00\n    /* \"#utility.yul\":1457:1459   */\n  0x20\n    /* \"#utility.yul\":1446:1455   */\n  dup3\n    /* \"#utility.yul\":1442:1460   */\n  add\n    /* \"#utility.yul\":1434:1460   */\n  swap1\n  pop\n    /* \"#utility.yul\":1470:1541   */\n  tag_52\n    /* \"#utility.yul\":1538:1539   */\n  0x00\n    /* \"#utility.yul\":1527:1536   */\n  dup4\n    /* \"#utility.yul\":1523:1540   */\n  add\n    /* \"#utility.yul\":1514:1520   */\n  dup5\n    /* \"#utility.yul\":1470:1541   */\n  tag_29\n  jump\t// in\ntag_52:\n    /* \"#utility.yul\":1326:1548   */\n  swap3\n  swap2\n  pop\n  pop\n  jump\t// out\n    /* \"#utility.yul\":1554:1723   */\ntag_30:\n    /* \"#utility.yul\":1638:1649   */\n  0x00\n    /* \"#utility.yul\":1672:1678   */\n  dup3\n    /* \"#utility.yul\":1667:1670   */\n  dup3\n    /* \"#utility.yul\":1660:1679   */\n  mstore\n    /* \"#utility.yul\":1712:1716   */\n  0x20\n    /* \"#utility.yul\":1707:1710   */\n  dup3\n    /* \"#utility.yul\":1703:1717   */\n  add\n    /* \"#utility.yul\":1688:1717   */\n  swap1\n  pop\n    /* \"#utility.yul\":1554:1723   */\n  swap3\n  swap2\n  pop\n  pop\n  jump\t// out\n    /* \"#utility.yul\":1729:1900   */\ntag_31:\n    /* \"#utility.yul\":1869:1892   */\n  0x496e76616c6964206f776e657220616464726573730000000000000000000000\n    /* \"#utility.yul\":1865:1866   */\n  0x00\n    /* \"#utility.yul\":1857:1863   */\n  dup3\n    /* \"#utility.yul\":1853:1867   */\n  add\n    /* \"#utility.yul\":1846:1893   */\n  mstore\n    /* \"#utility.yul\":1729:1900   */\n  pop\n  jump\t// out\n    /* \"#utility.yul\":1906:2272   */\ntag_32:\n    /* \"#utility.yul\":2048:2051   */\n  0x00\n    /* \"#utility.yul\":2069:2136   */\n  tag_56\n    /* \"#utility.yul\":2133:2135   */\n  0x15\n    /* \"#utility.yul\":2128:2131   */\n  dup4\n    /* \"#utility.yul\":2069:2136   */\n  tag_30\n  jump\t// in\ntag_56:\n    /* \"#utility.yul\":2062:2136   */\n  swap2\n  pop\n    /* \"#utility.yul\":2145:2238   */\n  tag_57\n    /* \"#utility.yul\":2234:2237   */\n  dup3\n    /* \"#utility.yul\":2145:2238   */\n  tag_31\n  jump\t// in\ntag_57:\n    /* \"#utility.yul\":2263:2265   */\n  0x20\n    /* \"#utility.yul\":2258:2261   */\n  dup3\n    /* \"#utility.yul\":2254:2266   */\n  add\n    /* \"#utility.yul\":2247:2266   */\n  swap1\n  pop\n    /* \"#utility.yul\":1906:2272   */\n  swap2\n  swap1\n  pop\n  jump\t// out\n    /* \"#utility.yul\":2278:2697   */\ntag_19:\n    /* \"#utility.yul\":2444:2448   */\n  0x00\n    /* \"#utility.yul\":2482:2484   */\n  0x20\n    /* \"#utility.yul\":2471:2480   */\n  dup3\n    /* \"#utility.yul\":2467:2485   */\n  add\n    /* \"#utility.yul\":2459:2485   */\n  swap1\n  pop\n    /* \"#utility.yul\":2531:2540   */\n  dup2\n    /* \"#utility.yul\":2525:2529   */\n  dup2\n    /* \"#utility.yul\":2521:2541   */\n  sub\n    /* \"#utility.yul\":2517:2518   */\n  0x00\n    /* \"#utility.yul\":2506:2515   */\n  dup4\n    /* \"#utility.yul\":2502:2519   */\n  add\n    /* \"#utility.yul\":2495:2542   */\n  mstore\n    /* \"#utility.yul\":2559:2690   */\n  tag_59\n    /* \"#utility.yul\":2685:2689   */\n  dup2\n    /* \"#utility.yul\":2559:2690   */\n  tag_32\n  jump\t// in\ntag_59:\n    /* \"#utility.yul\":2551:2690   */\n  swap1\n  pop\n    /* \"#utility.yul\":2278:2697   */\n  swap2\n  swap1\n  pop\n  jump\t// out\n    /* \"privacy/zkp/MessageProver.sol\":307:8851  contract MessageProver is IZKVerifier, Ownable, ReentrancyGuard, Pausable {... */\ntag_20:\n  dataSize(sub_0)\n  dup1\n  dataOffset(sub_0)\n  0x00\n  codecopy\n  0x00\n  return\nstop\n\nsub_0: assembly {\n        /* \"privacy/zkp/MessageProver.sol\":307:8851  contract MessageProver is IZKVerifier, Ownable, ReentrancyGuard, Pausable {... */\n      mstore(0x40, 0x80)\n      callvalue\n      dup1\n      iszero\n      tag_1\n      jumpi\n      0x00\n      dup1\n      revert\n    tag_1:\n      pop\n      jumpi(tag_2, lt(calldatasize, 0x04))\n      shr(0xe0, calldataload(0x00))\n      dup1\n      0x3f4ba83a\n      gt\n      tag_20\n      jumpi\n      dup1\n      0x8456cb59\n      gt\n      tag_21\n      jumpi\n      dup1\n      0x8456cb59\n      eq\n      tag_15\n      jumpi\n      dup1\n      0x8da5cb5b\n      eq\n      tag_16\n      jumpi\n      dup1\n      0xf2fde38b\n      eq\n      tag_17\n      jumpi\n      dup1\n      0xfc8221a9\n      eq\n      tag_18\n      jumpi\n      dup1\n      0xff625fc3\n      eq\n      tag_19\n      jumpi\n      jump(tag_2)\n    tag_21:\n      dup1\n      0x3f4ba83a\n      eq\n      tag_11\n      jumpi\n      dup1\n      0x5c975abb\n      eq\n      tag_12\n      jumpi\n      dup1\n      0x715018a6\n      eq\n      tag_13\n      jumpi\n      dup1\n      0x7ecf686d\n      eq\n      tag_14\n      jumpi\n      jump(tag_2)\n    tag_20:\n      dup1\n      0x280ee92a\n      gt\n      tag_22\n      jumpi\n      dup1\n      0x280ee92a\n      eq\n      tag_7\n      jumpi\n      dup1\n      0x281e8383\n      eq\n      tag_8\n      jumpi\n      dup1\n      0x2bbd59ca\n      eq\n      tag_9\n      jumpi\n      dup1\n      0x2e269540\n      eq\n      tag_10\n      jumpi\n      jump(tag_2)\n    tag_22:\n      dup1\n      0x12202ec6\n      eq\n      tag_3\n      jumpi\n      dup1\n      0x19880295\n      eq\n      tag_4\n      jumpi\n      dup1\n      0x1b81f829\n      eq\n      tag_5\n      jumpi\n      dup1\n      0x230a0ab0\n      eq\n      tag_6\n      jumpi\n    tag_2:\n      0x00\n      dup1\n      revert\n        /* \"privacy/zkp/MessageProver.sol\":3664:4539  function initializeVerificationKey(... */\n    tag_3:\n      tag_23\n      0x04\n      dup1\n      calldatasize\n      sub\n      dup2\n      add\n      swap1\n      tag_24\n      swap2\n      swap1\n      tag_25\n      jump\t// in\n    tag_24:\n      tag_26\n      jump\t// in\n    tag_23:\n      stop\n        /* \"privacy/zkp/MessageProver.sol\":575:626  mapping(uint256 => uint256) public gamma2Components */\n    tag_4:\n      tag_27\n      0x04\n      dup1\n      calldatasize\n      sub\n      dup2\n      add\n      swap1\n      tag_28\n      swap2\n      swap1\n      tag_29\n      jump\t// in\n    tag_28:\n      tag_30\n      jump\t// in\n    tag_27:\n      mload(0x40)\n      tag_31\n      swap2\n      swap1\n      tag_32\n      jump\t// in\n    tag_31:\n      mload(0x40)\n      dup1\n      swap2\n      sub\n      swap1\n      return\n        /* \"privacy/zkp/MessageProver.sol\":1786:2128  function verifyProof(... */\n    tag_5:\n      tag_33\n      0x04\n      dup1\n      calldatasize\n      sub\n      dup2\n      add\n      swap1\n      tag_34\n      swap2\n      swap1\n      tag_35\n      jump\t// in\n    tag_34:\n      tag_36\n      jump\t// in\n    tag_33:\n      mload(0x40)\n      tag_37\n      swap2\n      swap1\n      tag_38\n      jump\t// in\n    tag_37:\n      mload(0x40)\n      dup1\n      swap2\n      sub\n      swap1\n      return\n        /* \"privacy/zkp/MessageProver.sol\":632:683  mapping(uint256 => uint256) public delta2Components */\n    tag_6:\n      tag_39\n      0x04\n      dup1\n      calldatasize\n      sub\n      dup2\n      add\n      swap1\n      tag_40\n      swap2\n      swap1\n      tag_29\n      jump\t// in\n    tag_40:\n      tag_41\n      jump\t// in\n    tag_39:\n      mload(0x40)\n      tag_42\n      swap2\n      swap1\n      tag_32\n      jump\t// in\n    tag_42:\n      mload(0x40)\n      dup1\n      swap2\n      sub\n      swap1\n      return\n        /* \"privacy/zkp/MessageProver.sol\":762:785  uint256 public icLength */\n    tag_7:\n      tag_43\n      tag_44\n      jump\t// in\n    tag_43:\n      mload(0x40)\n      tag_45\n      swap2\n      swap1\n      tag_32\n      jump\t// in\n    tag_45:\n      mload(0x40)\n      dup1\n      swap2\n      sub\n      swap1\n      return\n        /* \"privacy/zkp/MessageProver.sol\":519:569  mapping(uint256 => uint256) public beta2Components */\n    tag_8:\n      tag_46\n      0x04\n      dup1\n      calldatasize\n      sub\n      dup2\n      add\n      swap1\n      tag_47\n      swap2\n      swap1\n      tag_29\n      jump\t// in\n    tag_47:\n      tag_48\n      jump\t// in\n    tag_46:\n      mload(0x40)\n      tag_49\n      swap2\n      swap1\n      tag_32\n      jump\t// in\n    tag_49:\n      mload(0x40)\n      dup1\n      swap2\n      sub\n      swap1\n      return\n        /* \"privacy/zkp/MessageProver.sol\":1125:1178  mapping(bytes32 => MessageCommitment) public messages */\n    tag_9:\n      tag_50\n      0x04\n      dup1\n      calldatasize\n      sub\n      dup2\n      add\n      swap1\n      tag_51\n      swap2\n      swap1\n      tag_52\n      jump\t// in\n    tag_51:\n      tag_53\n      jump\t// in\n    tag_50:\n      mload(0x40)\n      tag_54\n      swap5\n      swap4\n      swap3\n      swap2\n      swap1\n      tag_55\n      jump\t// in\n    tag_54:\n      mload(0x40)\n      dup1\n      swap2\n      sub\n      swap1\n      return\n        /* \"privacy/zkp/MessageProver.sol\":2391:3368  function verifyMessageProof(... */\n    tag_10:\n      tag_56\n      0x04\n      dup1\n      calldatasize\n      sub\n      dup2\n      add\n      swap1\n      tag_57\n      swap2\n      swap1\n      tag_58\n      jump\t// in\n    tag_57:\n      tag_59\n      jump\t// in\n    tag_56:\n      mload(0x40)\n      tag_60\n      swap2\n      swap1\n      tag_38\n      jump\t// in\n    tag_60:\n      mload(0x40)\n      dup1\n      swap2\n      sub\n      swap1\n      return\n        /* \"privacy/zkp/MessageProver.sol\":8784:8849  function unpause() external onlyOwner {... */\n    tag_11:\n      tag_61\n      tag_62\n      jump\t// in\n    tag_61:\n      stop\n        /* \"@openzeppelin/contracts/utils/Pausable.sol\":1850:1934  function paused() public view virtual returns (bool) {... */\n    tag_12:\n      tag_63\n      tag_64\n      jump\t// in\n    tag_63:\n      mload(0x40)\n      tag_65\n      swap2\n      swap1\n      tag_38\n      jump\t// in\n    tag_65:\n      mload(0x40)\n      dup1\n      swap2\n      sub\n      swap1\n      return\n        /* \"@openzeppelin/contracts/access/Ownable.sol\":2293:2394  function renounceOwnership() public virtual onlyOwner {... */\n    tag_13:\n      tag_66\n      tag_67\n      jump\t// in\n    tag_66:\n      stop\n        /* \"privacy/zkp/MessageProver.sol\":1184:1229  mapping(bytes32 => bool) public nullifierUsed */\n    tag_14:\n      tag_68\n      0x04\n      dup1\n      calldatasize\n      sub\n      dup2\n      add\n      swap1\n      tag_69\n      swap2\n      swap1\n      tag_52\n      jump\t// in\n    tag_69:\n      tag_70\n      jump\t// in\n    tag_68:\n      mload(0x40)\n      tag_71\n      swap2\n      swap1\n      tag_38\n      jump\t// in\n    tag_71:\n      mload(0x40)\n      dup1\n      swap2\n      sub\n      swap1\n      return\n        /* \"privacy/zkp/MessageProver.sol\":8717:8778  function pause() external onlyOwner {... */\n    tag_15:\n      tag_72\n      tag_73\n      jump\t// in\n    tag_72:\n      stop\n        /* \"@openzeppelin/contracts/access/Ownable.sol\":1638:1723  function owner() public view virtual returns (address) {... */\n    tag_16:\n      tag_74\n      tag_75\n      jump\t// in\n    tag_74:\n      mload(0x40)\n      tag_76\n      swap2\n      swap1\n      tag_77\n      jump\t// in\n    tag_76:\n      mload(0x40)\n      dup1\n      swap2\n      sub\n      swap1\n      return\n        /* \"@openzeppelin/contracts/access/Ownable.sol\":2543:2758  function transferOwnership(address newOwner) public virtual onlyOwner {... */\n    tag_17:\n      tag_78\n      0x04\n      dup1\n      calldatasize\n      sub\n      dup2\n      add\n      swap1\n      tag_79\n      swap2\n      swap1\n      tag_80\n      jump\t// in\n    tag_79:\n      tag_81\n      jump\t// in\n    tag_78:\n      stop\n        /* \"privacy/zkp/MessageProver.sol\":689:756  mapping(uint256 => mapping(uint256 => uint256)) public icComponents */\n    tag_18:\n      tag_82\n      0x04\n      dup1\n      calldatasize\n      sub\n      dup2\n      add\n      swap1\n      tag_83\n      swap2\n      swap1\n      tag_84\n      jump\t// in\n    tag_83:\n      tag_85\n      jump\t// in\n    tag_82:\n      mload(0x40)\n      tag_86\n      swap2\n      swap1\n      tag_32\n      jump\t// in\n    tag_86:\n      mload(0x40)\n      dup1\n      swap2\n      sub\n      swap1\n      return\n        /* \"privacy/zkp/MessageProver.sol\":462:513  mapping(uint256 => uint256) public alpha1Components */\n    tag_19:\n      tag_87\n      0x04\n      dup1\n      calldatasize\n      sub\n      dup2\n      add\n      swap1\n      tag_88\n      swap2\n      swap1\n      tag_29\n      jump\t// in\n    tag_88:\n      tag_89\n      jump\t// in\n    tag_87:\n      mload(0x40)\n      tag_90\n      swap2\n      swap1\n      tag_32\n      jump\t// in\n    tag_90:\n      mload(0x40)\n      dup1\n      swap2\n      sub\n      swap1\n      return\n        /* \"privacy/zkp/MessageProver.sol\":3664:4539  function initializeVerificationKey(... */\n    tag_26:\n        /* \"@openzeppelin/contracts/access/Ownable.sol\":1531:1544  _checkOwner() */\n      tag_92\n        /* \"@openzeppelin/contracts/access/Ownable.sol\":1531:1542  _checkOwner */\n      tag_93\n        /* \"@openzeppelin/contracts/access/Ownable.sol\":1531:1544  _checkOwner() */\n      jump\t// in\n    tag_92:\n        /* \"privacy/zkp/MessageProver.sol\":3937:3938  0 */\n      0x00\n        /* \"privacy/zkp/MessageProver.sol\":3924:3927  _ic */\n      dup3\n      dup3\n        /* \"privacy/zkp/MessageProver.sol\":3924:3934  _ic.length */\n      swap1\n      pop\n        /* \"privacy/zkp/MessageProver.sol\":3924:3938  _ic.length > 0 */\n      gt\n        /* \"privacy/zkp/MessageProver.sol\":3916:3960  require(_ic.length > 0, \"Invalid IC length\") */\n      tag_95\n      jumpi\n      mload(0x40)\n      0x08c379a000000000000000000000000000000000000000000000000000000000\n      dup2\n      mstore\n      0x04\n      add\n      tag_96\n      swap1\n      tag_97\n      jump\t// in\n    tag_96:\n      mload(0x40)\n      dup1\n      swap2\n      sub\n      swap1\n      revert\n    tag_95:\n        /* \"privacy/zkp/MessageProver.sol\":4001:4008  _alpha1 */\n      dup6\n        /* \"privacy/zkp/MessageProver.sol\":4009:4010  0 */\n      0x00\n        /* \"privacy/zkp/MessageProver.sol\":4001:4011  _alpha1[0] */\n      0x02\n      dup2\n      lt\n      tag_98\n      jumpi\n      tag_99\n      tag_100\n      jump\t// in\n    tag_99:\n    tag_98:\n      0x20\n      mul\n      add\n      calldataload\n        /* \"privacy/zkp/MessageProver.sol\":3979:3995  alpha1Components */\n      0x03\n        /* \"privacy/zkp/MessageProver.sol\":3979:3998  alpha1Components[0] */\n      0x00\n        /* \"privacy/zkp/MessageProver.sol\":3996:3997  0 */\n      dup1\n        /* \"privacy/zkp/MessageProver.sol\":3979:3998  alpha1Components[0] */\n      dup2\n      mstore\n      0x20\n      add\n      swap1\n      dup2\n      mstore\n      0x20\n      add\n      0x00\n      keccak256\n        /* \"privacy/zkp/MessageProver.sol\":3979:4011  alpha1Components[0] = _alpha1[0] */\n      dup2\n      swap1\n      sstore\n      pop\n        /* \"privacy/zkp/MessageProver.sol\":4043:4050  _alpha1 */\n      dup6\n        /* \"privacy/zkp/MessageProver.sol\":4051:4052  1 */\n      0x01\n        /* \"privacy/zkp/MessageProver.sol\":4043:4053  _alpha1[1] */\n      0x02\n      dup2\n      lt\n      tag_101\n      jumpi\n      tag_102\n      tag_100\n      jump\t// in\n    tag_102:\n    tag_101:\n      0x20\n      mul\n      add\n      calldataload\n        /* \"privacy/zkp/MessageProver.sol\":4021:4037  alpha1Components */\n      0x03\n        /* \"privacy/zkp/MessageProver.sol\":4021:4040  alpha1Components[1] */\n      0x00\n        /* \"privacy/zkp/MessageProver.sol\":4038:4039  1 */\n      0x01\n        /* \"privacy/zkp/MessageProver.sol\":4021:4040  alpha1Components[1] */\n      dup2\n      mstore\n      0x20\n      add\n      swap1\n      dup2\n      mstore\n      0x20\n      add\n      0x00\n      keccak256\n        /* \"privacy/zkp/MessageProver.sol\":4021:4053  alpha1Components[1] = _alpha1[1] */\n      dup2\n      swap1\n      sstore\n      pop\n        /* \"privacy/zkp/MessageProver.sol\":4085:4091  _beta2 */\n      dup5\n        /* \"privacy/zkp/MessageProver.sol\":4092:4093  0 */\n      0x00\n        /* \"privacy/zkp/MessageProver.sol\":4085:4094  _beta2[0] */\n      0x02\n      dup2\n      lt\n      tag_103\n      jumpi\n      tag_104\n      tag_100\n      jump\t// in\n    tag_104:\n    tag_103:\n      0x20\n      mul\n      add\n      calldataload\n        /* \"privacy/zkp/MessageProver.sol\":4064:4079  beta2Components */\n      0x04\n        /* \"privacy/zkp/MessageProver.sol\":4064:4082  beta2Components[0] */\n      0x00\n        /* \"privacy/zkp/MessageProver.sol\":4080:4081  0 */\n      dup1\n        /* \"privacy/zkp/MessageProver.sol\":4064:4082  beta2Components[0] */\n      dup2\n      mstore\n      0x20\n      add\n      swap1\n      dup2\n      mstore\n      0x20\n      add\n      0x00\n      keccak256\n        /* \"privacy/zkp/MessageProver.sol\":4064:4094  beta2Components[0] = _beta2[0] */\n      dup2\n      swap1\n      sstore\n      pop\n        /* \"privacy/zkp/MessageProver.sol\":4125:4131  _beta2 */\n      dup5\n        /* \"privacy/zkp/MessageProver.sol\":4132:4133  1 */\n      0x01\n        /* \"privacy/zkp/MessageProver.sol\":4125:4134  _beta2[1] */\n      0x02\n      dup2\n      lt\n      tag_105\n      jumpi\n      tag_106\n      tag_100\n      jump\t// in\n    tag_106:\n    tag_105:\n      0x20\n      mul\n      add\n      calldataload\n        /* \"privacy/zkp/MessageProver.sol\":4104:4119  beta2Components */\n      0x04\n        /* \"privacy/zkp/MessageProver.sol\":4104:4122  beta2Components[1] */\n      0x00\n        /* \"privacy/zkp/MessageProver.sol\":4120:4121  1 */\n      0x01\n        /* \"privacy/zkp/MessageProver.sol\":4104:4122  beta2Components[1] */\n      dup2\n      mstore\n      0x20\n      add\n      swap1\n      dup2\n      mstore\n      0x20\n      add\n      0x00\n      keccak256\n        /* \"privacy/zkp/MessageProver.sol\":4104:4134  beta2Components[1] = _beta2[1] */\n      dup2\n      swap1\n      sstore\n      pop\n        /* \"privacy/zkp/MessageProver.sol\":4167:4174  _gamma2 */\n      dup4\n        /* \"privacy/zkp/MessageProver.sol\":4175:4176  0 */\n      0x00\n        /* \"privacy/zkp/MessageProver.sol\":4167:4177  _gamma2[0] */\n      0x02\n      dup2\n      lt\n      tag_107\n      jumpi\n      tag_108\n      tag_100\n      jump\t// in\n    tag_108:\n    tag_107:\n      0x20\n      mul\n      add\n      calldataload\n        /* \"privacy/zkp/MessageProver.sol\":4145:4161  gamma2Components */\n      0x05\n        /* \"privacy/zkp/MessageProver.sol\":4145:4164  gamma2Components[0] */\n      0x00\n        /* \"privacy/zkp/MessageProver.sol\":4162:4163  0 */\n      dup1\n        /* \"privacy/zkp/MessageProver.sol\":4145:4164  gamma2Components[0] */\n      dup2\n      mstore\n      0x20\n      add\n      swap1\n      dup2\n      mstore\n      0x20\n      add\n      0x00\n      keccak256\n        /* \"privacy/zkp/MessageProver.sol\":4145:4177  gamma2Components[0] = _gamma2[0] */\n      dup2\n      swap1\n      sstore\n      pop\n        /* \"privacy/zkp/MessageProver.sol\":4209:4216  _gamma2 */\n      dup4\n        /* \"privacy/zkp/MessageProver.sol\":4217:4218  1 */\n      0x01\n        /* \"privacy/zkp/MessageProver.sol\":4209:4219  _gamma2[1] */\n      0x02\n      dup2\n      lt\n      tag_109\n      jumpi\n      tag_110\n      tag_100\n      jump\t// in\n    tag_110:\n    tag_109:\n      0x20\n      mul\n      add\n      calldataload\n        /* \"privacy/zkp/MessageProver.sol\":4187:4203  gamma2Components */\n      0x05\n        /* \"privacy/zkp/MessageProver.sol\":4187:4206  gamma2Components[1] */\n      0x00\n        /* \"privacy/zkp/MessageProver.sol\":4204:4205  1 */\n      0x01\n        /* \"privacy/zkp/MessageProver.sol\":4187:4206  gamma2Components[1] */\n      dup2\n      mstore\n      0x20\n      add\n      swap1\n      dup2\n      mstore\n      0x20\n      add\n      0x00\n      keccak256\n        /* \"privacy/zkp/MessageProver.sol\":4187:4219  gamma2Components[1] = _gamma2[1] */\n      dup2\n      swap1\n      sstore\n      pop\n        /* \"privacy/zkp/MessageProver.sol\":4252:4259  _delta2 */\n      dup3\n        /* \"privacy/zkp/MessageProver.sol\":4260:4261  0 */\n      0x00\n        /* \"privacy/zkp/MessageProver.sol\":4252:4262  _delta2[0] */\n      0x02\n      dup2\n      lt\n      tag_111\n      jumpi\n      tag_112\n      tag_100\n      jump\t// in\n    tag_112:\n    tag_111:\n      0x20\n      mul\n      add\n      calldataload\n        /* \"privacy/zkp/MessageProver.sol\":4230:4246  delta2Components */\n      0x06\n        /* \"privacy/zkp/MessageProver.sol\":4230:4249  delta2Components[0] */\n      0x00\n        /* \"privacy/zkp/MessageProver.sol\":4247:4248  0 */\n      dup1\n        /* \"privacy/zkp/MessageProver.sol\":4230:4249  delta2Components[0] */\n      dup2\n      mstore\n      0x20\n      add\n      swap1\n      dup2\n      mstore\n      0x20\n      add\n      0x00\n      keccak256\n        /* \"privacy/zkp/MessageProver.sol\":4230:4262  delta2Components[0] = _delta2[0] */\n      dup2\n      swap1\n      sstore\n      pop\n        /* \"privacy/zkp/MessageProver.sol\":4294:4301  _delta2 */\n      dup3\n        /* \"privacy/zkp/MessageProver.sol\":4302:4303  1 */\n      0x01\n        /* \"privacy/zkp/MessageProver.sol\":4294:4304  _delta2[1] */\n      0x02\n      dup2\n      lt\n      tag_113\n      jumpi\n      tag_114\n      tag_100\n      jump\t// in\n    tag_114:\n    tag_113:\n      0x20\n      mul\n      add\n      calldataload\n        /* \"privacy/zkp/MessageProver.sol\":4272:4288  delta2Components */\n      0x06\n        /* \"privacy/zkp/MessageProver.sol\":4272:4291  delta2Components[1] */\n      0x00\n        /* \"privacy/zkp/MessageProver.sol\":4289:4290  1 */\n      0x01\n        /* \"privacy/zkp/MessageProver.sol\":4272:4291  delta2Components[1] */\n      dup2\n      mstore\n      0x20\n      add\n      swap1\n      dup2\n      mstore\n      0x20\n      add\n      0x00\n      keccak256\n        /* \"privacy/zkp/MessageProver.sol\":4272:4304  delta2Components[1] = _delta2[1] */\n      dup2\n      swap1\n      sstore\n      pop\n        /* \"privacy/zkp/MessageProver.sol\":4326:4329  _ic */\n      dup2\n      dup2\n        /* \"privacy/zkp/MessageProver.sol\":4326:4336  _ic.length */\n      swap1\n      pop\n        /* \"privacy/zkp/MessageProver.sol\":4315:4323  icLength */\n      0x08\n        /* \"privacy/zkp/MessageProver.sol\":4315:4336  icLength = _ic.length */\n      dup2\n      swap1\n      sstore\n      pop\n        /* \"privacy/zkp/MessageProver.sol\":4351:4360  uint256 i */\n      0x00\n        /* \"privacy/zkp/MessageProver.sol\":4346:4486  for (uint256 i = 0; i < _ic.length; i++) {... */\n    tag_115:\n        /* \"privacy/zkp/MessageProver.sol\":4370:4373  _ic */\n      dup3\n      dup3\n        /* \"privacy/zkp/MessageProver.sol\":4370:4380  _ic.length */\n      swap1\n      pop\n        /* \"privacy/zkp/MessageProver.sol\":4366:4367  i */\n      dup2\n        /* \"privacy/zkp/MessageProver.sol\":4366:4380  i < _ic.length */\n      lt\n        /* \"privacy/zkp/MessageProver.sol\":4346:4486  for (uint256 i = 0; i < _ic.length; i++) {... */\n      iszero\n      tag_116\n      jumpi\n        /* \"privacy/zkp/MessageProver.sol\":4422:4425  _ic */\n      dup3\n      dup3\n        /* \"privacy/zkp/MessageProver.sol\":4426:4427  i */\n      dup3\n        /* \"privacy/zkp/MessageProver.sol\":4422:4428  _ic[i] */\n      dup2\n      dup2\n      lt\n      tag_118\n      jumpi\n      tag_119\n      tag_100\n      jump\t// in\n    tag_119:\n    tag_118:\n      swap1\n      pop\n      0x40\n      mul\n      add\n        /* \"privacy/zkp/MessageProver.sol\":4429:4430  0 */\n      0x00\n        /* \"privacy/zkp/MessageProver.sol\":4422:4431  _ic[i][0] */\n      0x02\n      dup2\n      lt\n      tag_120\n      jumpi\n      tag_121\n      tag_100\n      jump\t// in\n    tag_121:\n    tag_120:\n      0x20\n      mul\n      add\n      calldataload\n        /* \"privacy/zkp/MessageProver.sol\":4401:4413  icComponents */\n      0x07\n        /* \"privacy/zkp/MessageProver.sol\":4401:4416  icComponents[i] */\n      0x00\n        /* \"privacy/zkp/MessageProver.sol\":4414:4415  i */\n      dup4\n        /* \"privacy/zkp/MessageProver.sol\":4401:4416  icComponents[i] */\n      dup2\n      mstore\n      0x20\n      add\n      swap1\n      dup2\n      mstore\n      0x20\n      add\n      0x00\n      keccak256\n        /* \"privacy/zkp/MessageProver.sol\":4401:4419  icComponents[i][0] */\n      0x00\n        /* \"privacy/zkp/MessageProver.sol\":4417:4418  0 */\n      dup1\n        /* \"privacy/zkp/MessageProver.sol\":4401:4419  icComponents[i][0] */\n      dup2\n      mstore\n      0x20\n      add\n      swap1\n      dup2\n      mstore\n      0x20\n      add\n      0x00\n      keccak256\n        /* \"privacy/zkp/MessageProver.sol\":4401:4431  icComponents[i][0] = _ic[i][0] */\n      dup2\n      swap1\n      sstore\n      pop\n        /* \"privacy/zkp/MessageProver.sol\":4466:4469  _ic */\n      dup3\n      dup3\n        /* \"privacy/zkp/MessageProver.sol\":4470:4471  i */\n      dup3\n        /* \"privacy/zkp/MessageProver.sol\":4466:4472  _ic[i] */\n      dup2\n      dup2\n      lt\n      tag_122\n      jumpi\n      tag_123\n      tag_100\n      jump\t// in\n    tag_123:\n    tag_122:\n      swap1\n      pop\n      0x40\n      mul\n      add\n        /* \"privacy/zkp/MessageProver.sol\":4473:4474  1 */\n      0x01\n        /* \"privacy/zkp/MessageProver.sol\":4466:4475  _ic[i][1] */\n      0x02\n      dup2\n      lt\n      tag_124\n      jumpi\n      tag_125\n      tag_100\n      jump\t// in\n    tag_125:\n    tag_124:\n      0x20\n      mul\n      add\n      calldataload\n        /* \"privacy/zkp/MessageProver.sol\":4445:4457  icComponents */\n      0x07\n        /* \"privacy/zkp/MessageProver.sol\":4445:4460  icComponents[i] */\n      0x00\n        /* \"privacy/zkp/MessageProver.sol\":4458:4459  i */\n      dup4\n        /* \"privacy/zkp/MessageProver.sol\":4445:4460  icComponents[i] */\n      dup2\n      mstore\n      0x20\n      add\n      swap1\n      dup2\n      mstore\n      0x20\n      add\n      0x00\n      keccak256\n        /* \"privacy/zkp/MessageProver.sol\":4445:4463  icComponents[i][1] */\n      0x00\n        /* \"privacy/zkp/MessageProver.sol\":4461:4462  1 */\n      0x01\n        /* \"privacy/zkp/MessageProver.sol\":4445:4463  icComponents[i][1] */\n      dup2\n      mstore\n      0x20\n      add\n      swap1\n      dup2\n      mstore\n      0x20\n      add\n      0x00\n      keccak256\n        /* \"privacy/zkp/MessageProver.sol\":4445:4475  icComponents[i][1] = _ic[i][1] */\n      dup2\n      swap1\n      sstore\n      pop\n        /* \"privacy/zkp/MessageProver.sol\":4382:4385  i++ */\n      dup1\n      dup1\n      0x01\n      add\n      swap2\n      pop\n      pop\n        /* \"privacy/zkp/MessageProver.sol\":4346:4486  for (uint256 i = 0; i < _ic.length; i++) {... */\n      jump(tag_115)\n    tag_116:\n      pop\n        /* \"privacy/zkp/MessageProver.sol\":4521:4531  msg.sender */\n      caller\n        /* \"privacy/zkp/MessageProver.sol\":4501:4532  VerifyingKeyUpdated(msg.sender) */\n      0xffffffffffffffffffffffffffffffffffffffff\n      and\n      0xc470d8977cb4e42289eb539c1960f641215874c98afe7844c8201ca63887fd78\n      mload(0x40)\n      mload(0x40)\n      dup1\n      swap2\n      sub\n      swap1\n      log2\n        /* \"privacy/zkp/MessageProver.sol\":3664:4539  function initializeVerificationKey(... */\n      pop\n      pop\n      pop\n      pop\n      pop\n      pop\n      jump\t// out\n        /* \"privacy/zkp/MessageProver.sol\":575:626  mapping(uint256 => uint256) public gamma2Components */\n    tag_30:\n      mstore(0x20, 0x05)\n      dup1\n      0x00\n      mstore\n      keccak256(0x00, 0x40)\n      0x00\n      swap2\n      pop\n      swap1\n      pop\n      sload\n      dup2\n      jump\t// out\n        /* \"privacy/zkp/MessageProver.sol\":1786:2128  function verifyProof(... */\n    tag_36:\n        /* \"privacy/zkp/MessageProver.sol\":1915:1919  bool */\n      0x00\n        /* \"privacy/zkp/MessageProver.sol\":1938:2121  _verifyProof(... */\n      tag_127\n      mload(0x40)\n      dup1\n      0x40\n      add\n      0x40\n      mstore\n      dup1\n        /* \"privacy/zkp/MessageProver.sol\":1965:1970  proof */\n      dup6\n        /* \"privacy/zkp/MessageProver.sol\":1971:1972  0 */\n      0x00\n        /* \"privacy/zkp/MessageProver.sol\":1965:1973  proof[0] */\n      0x08\n      dup2\n      lt\n      tag_128\n      jumpi\n      tag_129\n      tag_100\n      jump\t// in\n    tag_129:\n    tag_128:\n      0x20\n      mul\n      add\n      calldataload\n        /* \"privacy/zkp/MessageProver.sol\":1938:2121  _verifyProof(... */\n      dup2\n      mstore\n      0x20\n      add\n        /* \"privacy/zkp/MessageProver.sol\":1975:1980  proof */\n      dup6\n        /* \"privacy/zkp/MessageProver.sol\":1981:1982  1 */\n      0x01\n        /* \"privacy/zkp/MessageProver.sol\":1975:1983  proof[1] */\n      0x08\n      dup2\n      lt\n      tag_130\n      jumpi\n      tag_131\n      tag_100\n      jump\t// in\n    tag_131:\n    tag_130:\n      0x20\n      mul\n      add\n      calldataload\n        /* \"privacy/zkp/MessageProver.sol\":1938:2121  _verifyProof(... */\n      dup2\n      mstore\n      pop\n      mload(0x40)\n      dup1\n      0x40\n      add\n      0x40\n      mstore\n      dup1\n      mload(0x40)\n      dup1\n      0x40\n      add\n      0x40\n      mstore\n      dup1\n        /* \"privacy/zkp/MessageProver.sol\":2006:2011  proof */\n      dup9\n        /* \"privacy/zkp/MessageProver.sol\":2012:2013  2 */\n      0x02\n        /* \"privacy/zkp/MessageProver.sol\":2006:2014  proof[2] */\n      0x08\n      dup2\n      lt\n      tag_132\n      jumpi\n      tag_133\n      tag_100\n      jump\t// in\n    tag_133:\n    tag_132:\n      0x20\n      mul\n      add\n      calldataload\n        /* \"privacy/zkp/MessageProver.sol\":1938:2121  _verifyProof(... */\n      dup2\n      mstore\n      0x20\n      add\n        /* \"privacy/zkp/MessageProver.sol\":2016:2021  proof */\n      dup9\n        /* \"privacy/zkp/MessageProver.sol\":2022:2023  3 */\n      0x03\n        /* \"privacy/zkp/MessageProver.sol\":2016:2024  proof[3] */\n      0x08\n      dup2\n      lt\n      tag_134\n      jumpi\n      tag_135\n      tag_100\n      jump\t// in\n    tag_135:\n    tag_134:\n      0x20\n      mul\n      add\n      calldataload\n        /* \"privacy/zkp/MessageProver.sol\":1938:2121  _verifyProof(... */\n      dup2\n      mstore\n      pop\n      dup2\n      mstore\n      0x20\n      add\n      mload(0x40)\n      dup1\n      0x40\n      add\n      0x40\n      mstore\n      dup1\n        /* \"privacy/zkp/MessageProver.sol\":2028:2033  proof */\n      dup9\n        /* \"privacy/zkp/MessageProver.sol\":2034:2035  4 */\n      0x04\n        /* \"privacy/zkp/MessageProver.sol\":2028:2036  proof[4] */\n      0x08\n      dup2\n      lt\n      tag_136\n      jumpi\n      tag_137\n      tag_100\n      jump\t// in\n    tag_137:\n    tag_136:\n      0x20\n      mul\n      add\n      calldataload\n        /* \"privacy/zkp/MessageProver.sol\":1938:2121  _verifyProof(... */\n      dup2\n      mstore\n      0x20\n      add\n        /* \"privacy/zkp/MessageProver.sol\":2038:2043  proof */\n      dup9\n        /* \"privacy/zkp/MessageProver.sol\":2044:2045  5 */\n      0x05\n        /* \"privacy/zkp/MessageProver.sol\":2038:2046  proof[5] */\n      0x08\n      dup2\n      lt\n      tag_138\n      jumpi\n      tag_139\n      tag_100\n      jump\t// in\n    tag_139:\n    tag_138:\n      0x20\n      mul\n      add\n      calldataload\n        /* \"privacy/zkp/MessageProver.sol\":1938:2121  _verifyProof(... */\n      dup2\n      mstore\n      pop\n      dup2\n      mstore\n      pop\n      mload(0x40)\n      dup1\n      0x40\n      add\n      0x40\n      mstore\n      dup1\n        /* \"privacy/zkp/MessageProver.sol\":2068:2073  proof */\n      dup8\n        /* \"privacy/zkp/MessageProver.sol\":2074:2075  6 */\n      0x06\n        /* \"privacy/zkp/MessageProver.sol\":2068:2076  proof[6] */\n      0x08\n      dup2\n      lt\n      tag_140\n      jumpi\n      tag_141\n      tag_100\n      jump\t// in\n    tag_141:\n    tag_140:\n      0x20\n      mul\n      add\n      calldataload\n        /* \"privacy/zkp/MessageProver.sol\":1938:2121  _verifyProof(... */\n      dup2\n      mstore\n      0x20\n      add\n        /* \"privacy/zkp/MessageProver.sol\":2078:2083  proof */\n      dup8\n        /* \"privacy/zkp/MessageProver.sol\":2084:2085  7 */\n      0x07\n        /* \"privacy/zkp/MessageProver.sol\":2078:2086  proof[7] */\n      0x08\n      dup2\n      lt\n      tag_142\n      jumpi\n      tag_143\n      tag_100\n      jump\t// in\n    tag_143:\n    tag_142:\n      0x20\n      mul\n      add\n      calldataload\n        /* \"privacy/zkp/MessageProver.sol\":1938:2121  _verifyProof(... */\n      dup2\n      mstore\n      pop\n        /* \"privacy/zkp/MessageProver.sol\":2106:2111  input */\n      dup6\n        /* \"privacy/zkp/MessageProver.sol\":1938:2121  _verifyProof(... */\n      0x01\n      dup1\n      0x20\n      mul\n      mload(0x40)\n      swap1\n      dup2\n      add\n      0x40\n      mstore\n      dup1\n      swap3\n      swap2\n      swap1\n      dup3\n      mul(0x20, 0x01)\n      dup1\n      dup3\n      dup5\n      calldatacopy\n      0x00\n      dup2\n      dup5\n      add\n      mstore\n      not(0x1f)\n      0x1f\n      dup3\n      add\n      and\n      swap1\n      pop\n      dup1\n      dup4\n      add\n      swap3\n      pop\n      pop\n      pop\n      pop\n      pop\n      pop\n        /* \"privacy/zkp/MessageProver.sol\":1938:1950  _verifyProof */\n      tag_144\n        /* \"privacy/zkp/MessageProver.sol\":1938:2121  _verifyProof(... */\n      jump\t// in\n    tag_127:\n        /* \"privacy/zkp/MessageProver.sol\":1931:2121  return _verifyProof(... */\n      swap1\n      pop\n        /* \"privacy/zkp/MessageProver.sol\":1786:2128  function verifyProof(... */\n      swap3\n      swap2\n      pop\n      pop\n      jump\t// out\n        /* \"privacy/zkp/MessageProver.sol\":632:683  mapping(uint256 => uint256) public delta2Components */\n    tag_41:\n      mstore(0x20, 0x06)\n      dup1\n      0x00\n      mstore\n      keccak256(0x00, 0x40)\n      0x00\n      swap2\n      pop\n      swap1\n      pop\n      sload\n      dup2\n      jump\t// out\n        /* \"privacy/zkp/MessageProver.sol\":762:785  uint256 public icLength */\n    tag_44:\n      sload(0x08)\n      dup2\n      jump\t// out\n        /* \"privacy/zkp/MessageProver.sol\":519:569  mapping(uint256 => uint256) public beta2Components */\n    tag_48:\n      mstore(0x20, 0x04)\n      dup1\n      0x00\n      mstore\n      keccak256(0x00, 0x40)\n      0x00\n      swap2\n      pop\n      swap1\n      pop\n      sload\n      dup2\n      jump\t// out\n        /* \"privacy/zkp/MessageProver.sol\":1125:1178  mapping(bytes32 => MessageCommitment) public messages */\n    tag_53:\n      mstore(0x20, 0x09)\n      dup1\n      0x00\n      mstore\n      keccak256(0x00, 0x40)\n      0x00\n      swap2\n      pop\n      swap1\n      pop\n      dup1\n      0x00\n      add\n      sload\n      swap1\n      dup1\n      0x01\n      add\n      sload\n      swap1\n      dup1\n      0x02\n      add\n      sload\n      swap1\n      dup1\n      0x03\n      add\n      0x00\n      swap1\n      sload\n      swap1\n      0x0100\n      exp\n      swap1\n      div\n      0xff\n      and\n      swap1\n      pop\n      dup5\n      jump\t// out\n        /* \"privacy/zkp/MessageProver.sol\":2391:3368  function verifyMessageProof(... */\n    tag_59:\n        /* \"privacy/zkp/MessageProver.sol\":2606:2610  bool */\n      0x00\n        /* \"@openzeppelin/contracts/utils/ReentrancyGuard.sol\":2500:2521  _nonReentrantBefore() */\n      tag_146\n        /* \"@openzeppelin/contracts/utils/ReentrancyGuard.sol\":2500:2519  _nonReentrantBefore */\n      tag_147\n        /* \"@openzeppelin/contracts/utils/ReentrancyGuard.sol\":2500:2521  _nonReentrantBefore() */\n      jump\t// in\n    tag_146:\n        /* \"@openzeppelin/contracts/utils/Pausable.sol\":1474:1493  _requireNotPaused() */\n      tag_149\n        /* \"@openzeppelin/contracts/utils/Pausable.sol\":1474:1491  _requireNotPaused */\n      tag_150\n        /* \"@openzeppelin/contracts/utils/Pausable.sol\":1474:1493  _requireNotPaused() */\n      jump\t// in\n    tag_149:\n        /* \"privacy/zkp/MessageProver.sol\":2631:2644  nullifierUsed */\n      0x0a\n        /* \"privacy/zkp/MessageProver.sol\":2631:2655  nullifierUsed[nullifier] */\n      0x00\n        /* \"privacy/zkp/MessageProver.sol\":2645:2654  nullifier */\n      dup8\n        /* \"privacy/zkp/MessageProver.sol\":2631:2655  nullifierUsed[nullifier] */\n      dup2\n      mstore\n      0x20\n      add\n      swap1\n      dup2\n      mstore\n      0x20\n      add\n      0x00\n      keccak256\n      0x00\n      swap1\n      sload\n      swap1\n      0x0100\n      exp\n      swap1\n      div\n      0xff\n      and\n        /* \"privacy/zkp/MessageProver.sol\":2630:2655  !nullifierUsed[nullifier] */\n      iszero\n        /* \"privacy/zkp/MessageProver.sol\":2622:2682  require(!nullifierUsed[nullifier], \"Nullifier already used\") */\n      tag_152\n      jumpi\n      mload(0x40)\n      0x08c379a000000000000000000000000000000000000000000000000000000000\n      dup2\n      mstore\n      0x04\n      add\n      tag_153\n      swap1\n      tag_154\n      jump\t// in\n    tag_153:\n      mload(0x40)\n      dup1\n      swap2\n      sub\n      swap1\n      revert\n    tag_152:\n        /* \"privacy/zkp/MessageProver.sol\":2734:2757  uint256[1] memory input */\n      0x00\n        /* \"privacy/zkp/MessageProver.sol\":2734:2786  uint256[1] memory input = [uint256(uint160(sender))] */\n      mload(0x40)\n      dup1\n      0x20\n      add\n      0x40\n      mstore\n      dup1\n        /* \"privacy/zkp/MessageProver.sol\":2777:2783  sender */\n      dup8\n        /* \"privacy/zkp/MessageProver.sol\":2761:2785  uint256(uint160(sender)) */\n      0xffffffffffffffffffffffffffffffffffffffff\n      and\n        /* \"privacy/zkp/MessageProver.sol\":2734:2786  uint256[1] memory input = [uint256(uint160(sender))] */\n      dup2\n      mstore\n      pop\n      swap1\n      pop\n        /* \"privacy/zkp/MessageProver.sol\":2854:2858  this */\n      address\n        /* \"privacy/zkp/MessageProver.sol\":2854:2870  this.verifyProof */\n      0xffffffffffffffffffffffffffffffffffffffff\n      and\n      0x1b81f829\n        /* \"privacy/zkp/MessageProver.sol\":2882:2887  proof */\n      dup6\n      dup6\n        /* \"privacy/zkp/MessageProver.sol\":2871:2902  abi.decode(proof, (uint256[8])) */\n      dup2\n      add\n      swap1\n      tag_155\n      swap2\n      swap1\n      tag_156\n      jump\t// in\n    tag_155:\n        /* \"privacy/zkp/MessageProver.sol\":2904:2909  input */\n      dup4\n        /* \"privacy/zkp/MessageProver.sol\":2854:2910  this.verifyProof(abi.decode(proof, (uint256[8])), input) */\n      mload(0x40)\n      dup4\n      0xffffffff\n      and\n      0xe0\n      shl\n      dup2\n      mstore\n      0x04\n      add\n      tag_157\n      swap3\n      swap2\n      swap1\n      tag_158\n      jump\t// in\n    tag_157:\n      0x20\n      mload(0x40)\n      dup1\n      dup4\n      sub\n      dup2\n      dup7\n      gas\n      staticcall\n      iszero\n      dup1\n      iszero\n      tag_160\n      jumpi\n      returndatasize\n      0x00\n      dup1\n      returndatacopy\n      revert(0x00, returndatasize)\n    tag_160:\n      pop\n      pop\n      pop\n      pop\n      mload(0x40)\n      returndatasize\n      not(0x1f)\n      0x1f\n      dup3\n      add\n      and\n      dup3\n      add\n      dup1\n      0x40\n      mstore\n      pop\n      dup2\n      add\n      swap1\n      tag_161\n      swap2\n      swap1\n      tag_162\n      jump\t// in\n    tag_161:\n        /* \"privacy/zkp/MessageProver.sol\":2833:2949  require(... */\n      tag_163\n      jumpi\n      mload(0x40)\n      0x08c379a000000000000000000000000000000000000000000000000000000000\n      dup2\n      mstore\n      0x04\n      add\n      tag_164\n      swap1\n      tag_165\n      jump\t// in\n    tag_164:\n      mload(0x40)\n      dup1\n      swap2\n      sub\n      swap1\n      revert\n    tag_163:\n        /* \"privacy/zkp/MessageProver.sol\":3019:3186  MessageCommitment({... */\n      mload(0x40)\n      dup1\n      0x80\n      add\n      0x40\n      mstore\n      dup1\n        /* \"privacy/zkp/MessageProver.sol\":3063:3073  commitment */\n      dup10\n        /* \"privacy/zkp/MessageProver.sol\":3019:3186  MessageCommitment({... */\n      dup2\n      mstore\n      0x20\n      add\n        /* \"privacy/zkp/MessageProver.sol\":3098:3107  nullifier */\n      dup9\n        /* \"privacy/zkp/MessageProver.sol\":3019:3186  MessageCommitment({... */\n      dup2\n      mstore\n      0x20\n      add\n        /* \"privacy/zkp/MessageProver.sol\":3132:3147  block.timestamp */\n      timestamp\n        /* \"privacy/zkp/MessageProver.sol\":3019:3186  MessageCommitment({... */\n      dup2\n      mstore\n      0x20\n      add\n        /* \"privacy/zkp/MessageProver.sol\":3171:3175  true */\n      0x01\n        /* \"privacy/zkp/MessageProver.sol\":3019:3186  MessageCommitment({... */\n      iszero\n      iszero\n      dup2\n      mstore\n      pop\n        /* \"privacy/zkp/MessageProver.sol\":2996:3004  messages */\n      0x09\n        /* \"privacy/zkp/MessageProver.sol\":2996:3016  messages[commitment] */\n      0x00\n        /* \"privacy/zkp/MessageProver.sol\":3005:3015  commitment */\n      dup11\n        /* \"privacy/zkp/MessageProver.sol\":2996:3016  messages[commitment] */\n      dup2\n      mstore\n      0x20\n      add\n      swap1\n      dup2\n      mstore\n      0x20\n      add\n      0x00\n      keccak256\n        /* \"privacy/zkp/MessageProver.sol\":2996:3186  messages[commitment] = MessageCommitment({... */\n      0x00\n      dup3\n      add\n      mload\n      dup2\n      0x00\n      add\n      sstore\n      0x20\n      dup3\n      add\n      mload\n      dup2\n      0x01\n      add\n      sstore\n      0x40\n      dup3\n      add\n      mload\n      dup2\n      0x02\n      add\n      sstore\n      0x60\n      dup3\n      add\n      mload\n      dup2\n      0x03\n      add\n      exp(0x0100, 0x00)\n      dup2\n      sload\n      dup2\n      0xff\n      mul\n      not\n      and\n      swap1\n      dup4\n      iszero\n      iszero\n      mul\n      or\n      swap1\n      sstore\n      pop\n      swap1\n      pop\n      pop\n        /* \"privacy/zkp/MessageProver.sol\":3258:3262  true */\n      0x01\n        /* \"privacy/zkp/MessageProver.sol\":3231:3244  nullifierUsed */\n      0x0a\n        /* \"privacy/zkp/MessageProver.sol\":3231:3255  nullifierUsed[nullifier] */\n      0x00\n        /* \"privacy/zkp/MessageProver.sol\":3245:3254  nullifier */\n      dup10\n        /* \"privacy/zkp/MessageProver.sol\":3231:3255  nullifierUsed[nullifier] */\n      dup2\n      mstore\n      0x20\n      add\n      swap1\n      dup2\n      mstore\n      0x20\n      add\n      0x00\n      keccak256\n      0x00\n        /* \"privacy/zkp/MessageProver.sol\":3231:3262  nullifierUsed[nullifier] = true */\n      0x0100\n      exp\n      dup2\n      sload\n      dup2\n      0xff\n      mul\n      not\n      and\n      swap1\n      dup4\n      iszero\n      iszero\n      mul\n      or\n      swap1\n      sstore\n      pop\n        /* \"privacy/zkp/MessageProver.sol\":3315:3321  sender */\n      dup6\n        /* \"privacy/zkp/MessageProver.sol\":3278:3339  ProofVerified(commitment, nullifier, sender, block.timestamp) */\n      0xffffffffffffffffffffffffffffffffffffffff\n      and\n        /* \"privacy/zkp/MessageProver.sol\":3304:3313  nullifier */\n      dup8\n        /* \"privacy/zkp/MessageProver.sol\":3292:3302  commitment */\n      dup10\n        /* \"privacy/zkp/MessageProver.sol\":3278:3339  ProofVerified(commitment, nullifier, sender, block.timestamp) */\n      0x9675c67edb39d5ae53cd37192a12d34a8b4341d9955d37e70e0968c6962c32a4\n        /* \"privacy/zkp/MessageProver.sol\":3323:3338  block.timestamp */\n      timestamp\n        /* \"privacy/zkp/MessageProver.sol\":3278:3339  ProofVerified(commitment, nullifier, sender, block.timestamp) */\n      mload(0x40)\n      tag_166\n      swap2\n      swap1\n      tag_32\n      jump\t// in\n    tag_166:\n      mload(0x40)\n      dup1\n      swap2\n      sub\n      swap1\n      log4\n        /* \"privacy/zkp/MessageProver.sol\":3357:3361  true */\n      0x01\n        /* \"privacy/zkp/MessageProver.sol\":3350:3361  return true */\n      swap2\n      pop\n      pop\n        /* \"@openzeppelin/contracts/utils/ReentrancyGuard.sol\":2542:2562  _nonReentrantAfter() */\n      tag_167\n        /* \"@openzeppelin/contracts/utils/ReentrancyGuard.sol\":2542:2560  _nonReentrantAfter */\n      tag_168\n        /* \"@openzeppelin/contracts/utils/ReentrancyGuard.sol\":2542:2562  _nonReentrantAfter() */\n      jump\t// in\n    tag_167:\n        /* \"privacy/zkp/MessageProver.sol\":2391:3368  function verifyMessageProof(... */\n      swap7\n      swap6\n      pop\n      pop\n      pop\n      pop\n      pop\n      pop\n      jump\t// out\n        /* \"privacy/zkp/MessageProver.sol\":8784:8849  function unpause() external onlyOwner {... */\n    tag_62:\n        /* \"@openzeppelin/contracts/access/Ownable.sol\":1531:1544  _checkOwner() */\n      tag_170\n        /* \"@openzeppelin/contracts/access/Ownable.sol\":1531:1542  _checkOwner */\n      tag_93\n        /* \"@openzeppelin/contracts/access/Ownable.sol\":1531:1544  _checkOwner() */\n      jump\t// in\n    tag_170:\n        /* \"privacy/zkp/MessageProver.sol\":8832:8842  _unpause() */\n      tag_172\n        /* \"privacy/zkp/MessageProver.sol\":8832:8840  _unpause */\n      tag_173\n        /* \"privacy/zkp/MessageProver.sol\":8832:8842  _unpause() */\n      jump\t// in\n    tag_172:\n        /* \"privacy/zkp/MessageProver.sol\":8784:8849  function unpause() external onlyOwner {... */\n      jump\t// out\n        /* \"@openzeppelin/contracts/utils/Pausable.sol\":1850:1934  function paused() public view virtual returns (bool) {... */\n    tag_64:\n        /* \"@openzeppelin/contracts/utils/Pausable.sol\":1897:1901  bool */\n      0x00\n        /* \"@openzeppelin/contracts/utils/Pausable.sol\":1920:1927  _paused */\n      0x02\n      0x00\n      swap1\n      sload\n      swap1\n      0x0100\n      exp\n      swap1\n      div\n      0xff\n      and\n        /* \"@openzeppelin/contracts/utils/Pausable.sol\":1913:1927  return _paused */\n      swap1\n      pop\n        /* \"@openzeppelin/contracts/utils/Pausable.sol\":1850:1934  function paused() public view virtual returns (bool) {... */\n      swap1\n      jump\t// out\n        /* \"@openzeppelin/contracts/access/Ownable.sol\":2293:2394  function renounceOwnership() public virtual onlyOwner {... */\n    tag_67:\n        /* \"@openzeppelin/contracts/access/Ownable.sol\":1531:1544  _checkOwner() */\n      tag_176\n        /* \"@openzeppelin/contracts/access/Ownable.sol\":1531:1542  _checkOwner */\n      tag_93\n        /* \"@openzeppelin/contracts/access/Ownable.sol\":1531:1544  _checkOwner() */\n      jump\t// in\n    tag_176:\n        /* \"@openzeppelin/contracts/access/Ownable.sol\":2357:2387  _transferOwnership(address(0)) */\n      tag_178\n        /* \"@openzeppelin/contracts/access/Ownable.sol\":2384:2385  0 */\n      0x00\n        /* \"@openzeppelin/contracts/access/Ownable.sol\":2357:2375  _transferOwnership */\n      tag_179\n        /* \"@openzeppelin/contracts/access/Ownable.sol\":2357:2387  _transferOwnership(address(0)) */\n      jump\t// in\n    tag_178:\n        /* \"@openzeppelin/contracts/access/Ownable.sol\":2293:2394  function renounceOwnership() public virtual onlyOwner {... */\n      jump\t// out\n        /* \"privacy/zkp/MessageProver.sol\":1184:1229  mapping(bytes32 => bool) public nullifierUsed */\n    tag_70:\n      mstore(0x20, 0x0a)\n      dup1\n      0x00\n      mstore\n      keccak256(0x00, 0x40)\n      0x00\n      swap2\n      pop\n      sload\n      swap1\n      0x0100\n      exp\n      swap1\n      div\n      0xff\n      and\n      dup2\n      jump\t// out\n        /* \"privacy/zkp/MessageProver.sol\":8717:8778  function pause() external onlyOwner {... */\n    tag_73:\n        /* \"@openzeppelin/contracts/access/Ownable.sol\":1531:1544  _checkOwner() */\n      tag_181\n        /* \"@openzeppelin/contracts/access/Ownable.sol\":1531:1542  _checkOwner */\n      tag_93\n        /* \"@openzeppelin/contracts/access/Ownable.sol\":1531:1544  _checkOwner() */\n      jump\t// in\n    tag_181:\n        /* \"privacy/zkp/MessageProver.sol\":8763:8771  _pause() */\n      tag_183\n        /* \"privacy/zkp/MessageProver.sol\":8763:8769  _pause */\n      tag_184\n        /* \"privacy/zkp/MessageProver.sol\":8763:8771  _pause() */\n      jump\t// in\n    tag_183:\n        /* \"privacy/zkp/MessageProver.sol\":8717:8778  function pause() external onlyOwner {... */\n      jump\t// out\n        /* \"@openzeppelin/contracts/access/Ownable.sol\":1638:1723  function owner() public view virtual returns (address) {... */\n    tag_75:\n        /* \"@openzeppelin/contracts/access/Ownable.sol\":1684:1691  address */\n      0x00\n        /* \"@openzeppelin/contracts/access/Ownable.sol\":1710:1716  _owner */\n      dup1\n      0x00\n      swap1\n      sload\n      swap1\n      0x0100\n      exp\n      swap1\n      div\n      0xffffffffffffffffffffffffffffffffffffffff\n      and\n        /* \"@openzeppelin/contracts/access/Ownable.sol\":1703:1716  return _owner */\n      swap1\n      pop\n        /* \"@openzeppelin/contracts/access/Ownable.sol\":1638:1723  function owner() public view virtual returns (address) {... */\n      swap1\n      jump\t// out\n        /* \"@openzeppelin/contracts/access/Ownable.sol\":2543:2758  function transferOwnership(address newOwner) public virtual onlyOwner {... */\n    tag_81:\n        /* \"@openzeppelin/contracts/access/Ownable.sol\":1531:1544  _checkOwner() */\n      tag_187\n        /* \"@openzeppelin/contracts/access/Ownable.sol\":1531:1542  _checkOwner */\n      tag_93\n        /* \"@openzeppelin/contracts/access/Ownable.sol\":1531:1544  _checkOwner() */\n      jump\t// in\n    tag_187:\n        /* \"@openzeppelin/contracts/access/Ownable.sol\":2647:2648  0 */\n      0x00\n        /* \"@openzeppelin/contracts/access/Ownable.sol\":2627:2649  newOwner == address(0) */\n      0xffffffffffffffffffffffffffffffffffffffff\n      and\n        /* \"@openzeppelin/contracts/access/Ownable.sol\":2627:2635  newOwner */\n      dup2\n        /* \"@openzeppelin/contracts/access/Ownable.sol\":2627:2649  newOwner == address(0) */\n      0xffffffffffffffffffffffffffffffffffffffff\n      and\n      sub\n        /* \"@openzeppelin/contracts/access/Ownable.sol\":2623:2714  if (newOwner == address(0)) {... */\n      tag_189\n      jumpi\n        /* \"@openzeppelin/contracts/access/Ownable.sol\":2700:2701  0 */\n      0x00\n        /* \"@openzeppelin/contracts/access/Ownable.sol\":2672:2703  OwnableInvalidOwner(address(0)) */\n      mload(0x40)\n      0x1e4fbdf700000000000000000000000000000000000000000000000000000000\n      dup2\n      mstore\n      0x04\n      add\n      tag_190\n      swap2\n      swap1\n      tag_77\n      jump\t// in\n    tag_190:\n      mload(0x40)\n      dup1\n      swap2\n      sub\n      swap1\n      revert\n        /* \"@openzeppelin/contracts/access/Ownable.sol\":2623:2714  if (newOwner == address(0)) {... */\n    tag_189:\n        /* \"@openzeppelin/contracts/access/Ownable.sol\":2723:2751  _transferOwnership(newOwner) */\n      tag_191\n        /* \"@openzeppelin/contracts/access/Ownable.sol\":2742:2750  newOwner */\n      dup2\n        /* \"@openzeppelin/contracts/access/Ownable.sol\":2723:2741  _transferOwnership */\n      tag_179\n        /* \"@openzeppelin/contracts/access/Ownable.sol\":2723:2751  _transferOwnership(newOwner) */\n      jump\t// in\n    tag_191:\n        /* \"@openzeppelin/contracts/access/Ownable.sol\":2543:2758  function transferOwnership(address newOwner) public virtual onlyOwner {... */\n      pop\n      jump\t// out\n        /* \"privacy/zkp/MessageProver.sol\":689:756  mapping(uint256 => mapping(uint256 => uint256)) public icComponents */\n    tag_85:\n      mstore(0x20, 0x07)\n      dup2\n      0x00\n      mstore\n      mstore(0x20, keccak256(0x00, 0x40))\n      dup1\n      0x00\n      mstore\n      keccak256(0x00, 0x40)\n      0x00\n      swap2\n      pop\n      swap2\n      pop\n      pop\n      sload\n      dup2\n      jump\t// out\n        /* \"privacy/zkp/MessageProver.sol\":462:513  mapping(uint256 => uint256) public alpha1Components */\n    tag_89:\n      mstore(0x20, 0x03)\n      dup1\n      0x00\n      mstore\n      keccak256(0x00, 0x40)\n      0x00\n      swap2\n      pop\n      swap1\n      pop\n      sload\n      dup2\n      jump\t// out\n        /* \"@openzeppelin/contracts/access/Ownable.sol\":1796:1958  function _checkOwner() internal view virtual {... */\n    tag_93:\n        /* \"@openzeppelin/contracts/access/Ownable.sol\":1866:1878  _msgSender() */\n      tag_193\n        /* \"@openzeppelin/contracts/access/Ownable.sol\":1866:1876  _msgSender */\n      tag_194\n        /* \"@openzeppelin/contracts/access/Ownable.sol\":1866:1878  _msgSender() */\n      jump\t// in\n    tag_193:\n        /* \"@openzeppelin/contracts/access/Ownable.sol\":1855:1878  owner() != _msgSender() */\n      0xffffffffffffffffffffffffffffffffffffffff\n      and\n        /* \"@openzeppelin/contracts/access/Ownable.sol\":1855:1862  owner() */\n      tag_195\n        /* \"@openzeppelin/contracts/access/Ownable.sol\":1855:1860  owner */\n      tag_75\n        /* \"@openzeppelin/contracts/access/Ownable.sol\":1855:1862  owner() */\n      jump\t// in\n    tag_195:\n        /* \"@openzeppelin/contracts/access/Ownable.sol\":1855:1878  owner() != _msgSender() */\n      0xffffffffffffffffffffffffffffffffffffffff\n      and\n      eq\n        /* \"@openzeppelin/contracts/access/Ownable.sol\":1851:1952  if (owner() != _msgSender()) {... */\n      tag_196\n      jumpi\n        /* \"@openzeppelin/contracts/access/Ownable.sol\":1928:1940  _msgSender() */\n      tag_197\n        /* \"@openzeppelin/contracts/access/Ownable.sol\":1928:1938  _msgSender */\n      tag_194\n        /* \"@openzeppelin/contracts/access/Ownable.sol\":1928:1940  _msgSender() */\n      jump\t// in\n    tag_197:\n        /* \"@openzeppelin/contracts/access/Ownable.sol\":1901:1941  OwnableUnauthorizedAccount(_msgSender()) */\n      mload(0x40)\n      0x118cdaa700000000000000000000000000000000000000000000000000000000\n      dup2\n      mstore\n      0x04\n      add\n      tag_198\n      swap2\n      swap1\n      tag_77\n      jump\t// in\n    tag_198:\n      mload(0x40)\n      dup1\n      swap2\n      sub\n      swap1\n      revert\n        /* \"@openzeppelin/contracts/access/Ownable.sol\":1851:1952  if (owner() != _msgSender()) {... */\n    tag_196:\n        /* \"@openzeppelin/contracts/access/Ownable.sol\":1796:1958  function _checkOwner() internal view virtual {... */\n      jump\t// out\n        /* \"privacy/zkp/MessageProver.sol\":4604:5643  function _verifyProof(... */\n    tag_144:\n        /* \"privacy/zkp/MessageProver.sol\":4778:4782  bool */\n      0x00\n        /* \"privacy/zkp/MessageProver.sol\":4822:4830  icLength */\n      sload(0x08)\n        /* \"privacy/zkp/MessageProver.sol\":4817:4818  1 */\n      0x01\n        /* \"privacy/zkp/MessageProver.sol\":4802:4814  input.length */\n      dup1\n        /* \"privacy/zkp/MessageProver.sol\":4802:4818  input.length + 1 */\n      tag_200\n      swap2\n      swap1\n      tag_201\n      jump\t// in\n    tag_200:\n        /* \"privacy/zkp/MessageProver.sol\":4802:4830  input.length + 1 == icLength */\n      eq\n        /* \"privacy/zkp/MessageProver.sol\":4794:4855  require(input.length + 1 == icLength, \"Invalid input length\") */\n      tag_202\n      jumpi\n      mload(0x40)\n      0x08c379a000000000000000000000000000000000000000000000000000000000\n      dup2\n      mstore\n      0x04\n      add\n      tag_203\n      swap1\n      tag_204\n      jump\t// in\n    tag_203:\n      mload(0x40)\n      dup1\n      swap2\n      sub\n      swap1\n      revert\n    tag_202:\n        /* \"privacy/zkp/MessageProver.sol\":4866:4888  uint256[2] memory vk_x */\n      0x00\n        /* \"privacy/zkp/MessageProver.sol\":4866:4931  uint256[2] memory vk_x = [icComponents[0][0], icComponents[0][1]] */\n      mload(0x40)\n      dup1\n      0x40\n      add\n      0x40\n      mstore\n      dup1\n        /* \"privacy/zkp/MessageProver.sol\":4892:4904  icComponents */\n      0x07\n        /* \"privacy/zkp/MessageProver.sol\":4892:4907  icComponents[0] */\n      0x00\n        /* \"privacy/zkp/MessageProver.sol\":4905:4906  0 */\n      dup1\n        /* \"privacy/zkp/MessageProver.sol\":4892:4907  icComponents[0] */\n      dup2\n      mstore\n      0x20\n      add\n      swap1\n      dup2\n      mstore\n      0x20\n      add\n      0x00\n      keccak256\n        /* \"privacy/zkp/MessageProver.sol\":4892:4910  icComponents[0][0] */\n      0x00\n        /* \"privacy/zkp/MessageProver.sol\":4908:4909  0 */\n      dup1\n        /* \"privacy/zkp/MessageProver.sol\":4892:4910  icComponents[0][0] */\n      dup2\n      mstore\n      0x20\n      add\n      swap1\n      dup2\n      mstore\n      0x20\n      add\n      0x00\n      keccak256\n      sload\n        /* \"privacy/zkp/MessageProver.sol\":4866:4931  uint256[2] memory vk_x = [icComponents[0][0], icComponents[0][1]] */\n      dup2\n      mstore\n      0x20\n      add\n        /* \"privacy/zkp/MessageProver.sol\":4912:4924  icComponents */\n      0x07\n        /* \"privacy/zkp/MessageProver.sol\":4912:4927  icComponents[0] */\n      0x00\n        /* \"privacy/zkp/MessageProver.sol\":4925:4926  0 */\n      dup1\n        /* \"privacy/zkp/MessageProver.sol\":4912:4927  icComponents[0] */\n      dup2\n      mstore\n      0x20\n      add\n      swap1\n      dup2\n      mstore\n      0x20\n      add\n      0x00\n      keccak256\n        /* \"privacy/zkp/MessageProver.sol\":4912:4930  icComponents[0][1] */\n      0x00\n        /* \"privacy/zkp/MessageProver.sol\":4928:4929  1 */\n      0x01\n        /* \"privacy/zkp/MessageProver.sol\":4912:4930  icComponents[0][1] */\n      dup2\n      mstore\n      0x20\n      add\n      swap1\n      dup2\n      mstore\n      0x20\n      add\n      0x00\n      keccak256\n      sload\n        /* \"privacy/zkp/MessageProver.sol\":4866:4931  uint256[2] memory vk_x = [icComponents[0][0], icComponents[0][1]] */\n      dup2\n      mstore\n      pop\n      swap1\n      pop\n        /* \"privacy/zkp/MessageProver.sol\":4947:4956  uint256 i */\n      0x00\n        /* \"privacy/zkp/MessageProver.sol\":4942:5310  for (uint256 i = 0; i < input.length; i++) {... */\n    tag_205:\n        /* \"privacy/zkp/MessageProver.sol\":4966:4978  input.length */\n      0x01\n        /* \"privacy/zkp/MessageProver.sol\":4962:4963  i */\n      dup2\n        /* \"privacy/zkp/MessageProver.sol\":4962:4978  i < input.length */\n      lt\n        /* \"privacy/zkp/MessageProver.sol\":4942:5310  for (uint256 i = 0; i < input.length; i++) {... */\n      iszero\n      tag_206\n      jumpi\n        /* \"privacy/zkp/MessageProver.sol\":5000:5009  uint256 x */\n      0x00\n        /* \"privacy/zkp/MessageProver.sol\":5011:5020  uint256 y */\n      dup1\n        /* \"privacy/zkp/MessageProver.sol\":5024:5140  _scalarMul(... */\n      tag_208\n      mload(0x40)\n      dup1\n      0x40\n      add\n      0x40\n      mstore\n      dup1\n        /* \"privacy/zkp/MessageProver.sol\":5053:5065  icComponents */\n      0x07\n        /* \"privacy/zkp/MessageProver.sol\":5053:5072  icComponents[i + 1] */\n      0x00\n        /* \"privacy/zkp/MessageProver.sol\":5070:5071  1 */\n      0x01\n        /* \"privacy/zkp/MessageProver.sol\":5066:5067  i */\n      dup9\n        /* \"privacy/zkp/MessageProver.sol\":5066:5071  i + 1 */\n      tag_209\n      swap2\n      swap1\n      tag_201\n      jump\t// in\n    tag_209:\n        /* \"privacy/zkp/MessageProver.sol\":5053:5072  icComponents[i + 1] */\n      dup2\n      mstore\n      0x20\n      add\n      swap1\n      dup2\n      mstore\n      0x20\n      add\n      0x00\n      keccak256\n        /* \"privacy/zkp/MessageProver.sol\":5053:5075  icComponents[i + 1][0] */\n      0x00\n        /* \"privacy/zkp/MessageProver.sol\":5073:5074  0 */\n      dup1\n        /* \"privacy/zkp/MessageProver.sol\":5053:5075  icComponents[i + 1][0] */\n      dup2\n      mstore\n      0x20\n      add\n      swap1\n      dup2\n      mstore\n      0x20\n      add\n      0x00\n      keccak256\n      sload\n        /* \"privacy/zkp/MessageProver.sol\":5024:5140  _scalarMul(... */\n      dup2\n      mstore\n      0x20\n      add\n        /* \"privacy/zkp/MessageProver.sol\":5077:5089  icComponents */\n      0x07\n        /* \"privacy/zkp/MessageProver.sol\":5077:5096  icComponents[i + 1] */\n      0x00\n        /* \"privacy/zkp/MessageProver.sol\":5094:5095  1 */\n      0x01\n        /* \"privacy/zkp/MessageProver.sol\":5090:5091  i */\n      dup9\n        /* \"privacy/zkp/MessageProver.sol\":5090:5095  i + 1 */\n      tag_210\n      swap2\n      swap1\n      tag_201\n      jump\t// in\n    tag_210:\n        /* \"privacy/zkp/MessageProver.sol\":5077:5096  icComponents[i + 1] */\n      dup2\n      mstore\n      0x20\n      add\n      swap1\n      dup2\n      mstore\n      0x20\n      add\n      0x00\n      keccak256\n        /* \"privacy/zkp/MessageProver.sol\":5077:5099  icComponents[i + 1][1] */\n      0x00\n        /* \"privacy/zkp/MessageProver.sol\":5097:5098  1 */\n      0x01\n        /* \"privacy/zkp/MessageProver.sol\":5077:5099  icComponents[i + 1][1] */\n      dup2\n      mstore\n      0x20\n      add\n      swap1\n      dup2\n      mstore\n      0x20\n      add\n      0x00\n      keccak256\n      sload\n        /* \"privacy/zkp/MessageProver.sol\":5024:5140  _scalarMul(... */\n      dup2\n      mstore\n      pop\n        /* \"privacy/zkp/MessageProver.sol\":5118:5123  input */\n      dup8\n        /* \"privacy/zkp/MessageProver.sol\":5124:5125  i */\n      dup6\n        /* \"privacy/zkp/MessageProver.sol\":5118:5126  input[i] */\n      0x01\n      dup2\n      lt\n      tag_211\n      jumpi\n      tag_212\n      tag_100\n      jump\t// in\n    tag_212:\n    tag_211:\n      0x20\n      mul\n      add\n      mload\n        /* \"privacy/zkp/MessageProver.sol\":5024:5034  _scalarMul */\n      tag_213\n        /* \"privacy/zkp/MessageProver.sol\":5024:5140  _scalarMul(... */\n      jump\t// in\n    tag_208:\n        /* \"privacy/zkp/MessageProver.sol\":4999:5140  (uint256 x, uint256 y) = _scalarMul(... */\n      swap2\n      pop\n      swap2\n      pop\n        /* \"privacy/zkp/MessageProver.sol\":5188:5299  _pointAdd(... */\n      tag_214\n        /* \"privacy/zkp/MessageProver.sol\":5215:5219  vk_x */\n      dup5\n        /* \"privacy/zkp/MessageProver.sol\":5220:5221  0 */\n      0x00\n        /* \"privacy/zkp/MessageProver.sol\":5215:5222  vk_x[0] */\n      0x02\n      dup2\n      lt\n      tag_215\n      jumpi\n      tag_216\n      tag_100\n      jump\t// in\n    tag_216:\n    tag_215:\n      0x20\n      mul\n      add\n      mload\n        /* \"privacy/zkp/MessageProver.sol\":5240:5244  vk_x */\n      dup6\n        /* \"privacy/zkp/MessageProver.sol\":5245:5246  1 */\n      0x01\n        /* \"privacy/zkp/MessageProver.sol\":5240:5247  vk_x[1] */\n      0x02\n      dup2\n      lt\n      tag_217\n      jumpi\n      tag_218\n      tag_100\n      jump\t// in\n    tag_218:\n    tag_217:\n      0x20\n      mul\n      add\n      mload\n        /* \"privacy/zkp/MessageProver.sol\":5265:5266  x */\n      dup5\n        /* \"privacy/zkp/MessageProver.sol\":5284:5285  y */\n      dup5\n        /* \"privacy/zkp/MessageProver.sol\":5188:5197  _pointAdd */\n      tag_219\n        /* \"privacy/zkp/MessageProver.sol\":5188:5299  _pointAdd(... */\n      jump\t// in\n    tag_214:\n        /* \"privacy/zkp/MessageProver.sol\":5168:5172  vk_x */\n      dup6\n        /* \"privacy/zkp/MessageProver.sol\":5173:5174  0 */\n      0x00\n        /* \"privacy/zkp/MessageProver.sol\":5168:5175  vk_x[0] */\n      0x02\n      dup2\n      lt\n      tag_220\n      jumpi\n      tag_221\n      tag_100\n      jump\t// in\n    tag_221:\n    tag_220:\n      0x20\n      mul\n      add\n        /* \"privacy/zkp/MessageProver.sol\":5177:5181  vk_x */\n      dup7\n        /* \"privacy/zkp/MessageProver.sol\":5182:5183  1 */\n      0x01\n        /* \"privacy/zkp/MessageProver.sol\":5177:5184  vk_x[1] */\n      0x02\n      dup2\n      lt\n      tag_222\n      jumpi\n      tag_223\n      tag_100\n      jump\t// in\n    tag_223:\n    tag_222:\n      0x20\n      mul\n      add\n        /* \"privacy/zkp/MessageProver.sol\":5167:5299  (vk_x[0], vk_x[1]) = _pointAdd(... */\n      dup3\n      dup2\n      mstore\n      pop\n      dup3\n      dup2\n      mstore\n      pop\n      pop\n      pop\n        /* \"privacy/zkp/MessageProver.sol\":4985:5310  {... */\n      pop\n      pop\n        /* \"privacy/zkp/MessageProver.sol\":4980:4983  i++ */\n      dup1\n      dup1\n      0x01\n      add\n      swap2\n      pop\n      pop\n        /* \"privacy/zkp/MessageProver.sol\":4942:5310  for (uint256 i = 0; i < input.length; i++) {... */\n      jump(tag_205)\n    tag_206:\n      pop\n        /* \"privacy/zkp/MessageProver.sol\":5327:5636  _verifyPairing(... */\n      tag_224\n        /* \"privacy/zkp/MessageProver.sol\":5355:5356  a */\n      dup7\n        /* \"privacy/zkp/MessageProver.sol\":5370:5371  b */\n      dup7\n        /* \"privacy/zkp/MessageProver.sol\":5327:5636  _verifyPairing(... */\n      mload(0x40)\n      dup1\n      0x40\n      add\n      0x40\n      mstore\n      dup1\n        /* \"privacy/zkp/MessageProver.sol\":5386:5402  alpha1Components */\n      0x03\n        /* \"privacy/zkp/MessageProver.sol\":5386:5405  alpha1Components[0] */\n      0x00\n        /* \"privacy/zkp/MessageProver.sol\":5403:5404  0 */\n      dup1\n        /* \"privacy/zkp/MessageProver.sol\":5386:5405  alpha1Components[0] */\n      dup2\n      mstore\n      0x20\n      add\n      swap1\n      dup2\n      mstore\n      0x20\n      add\n      0x00\n      keccak256\n      sload\n        /* \"privacy/zkp/MessageProver.sol\":5327:5636  _verifyPairing(... */\n      dup2\n      mstore\n      0x20\n      add\n        /* \"privacy/zkp/MessageProver.sol\":5407:5423  alpha1Components */\n      0x03\n        /* \"privacy/zkp/MessageProver.sol\":5407:5426  alpha1Components[1] */\n      0x00\n        /* \"privacy/zkp/MessageProver.sol\":5424:5425  1 */\n      0x01\n        /* \"privacy/zkp/MessageProver.sol\":5407:5426  alpha1Components[1] */\n      dup2\n      mstore\n      0x20\n      add\n      swap1\n      dup2\n      mstore\n      0x20\n      add\n      0x00\n      keccak256\n      sload\n        /* \"privacy/zkp/MessageProver.sol\":5327:5636  _verifyPairing(... */\n      dup2\n      mstore\n      pop\n      mload(0x40)\n      dup1\n      0x40\n      add\n      0x40\n      mstore\n      dup1\n        /* \"privacy/zkp/MessageProver.sol\":5442:5457  beta2Components */\n      0x04\n        /* \"privacy/zkp/MessageProver.sol\":5442:5460  beta2Components[0] */\n      0x00\n        /* \"privacy/zkp/MessageProver.sol\":5458:5459  0 */\n      dup1\n        /* \"privacy/zkp/MessageProver.sol\":5442:5460  beta2Components[0] */\n      dup2\n      mstore\n      0x20\n      add\n      swap1\n      dup2\n      mstore\n      0x20\n      add\n      0x00\n      keccak256\n      sload\n        /* \"privacy/zkp/MessageProver.sol\":5327:5636  _verifyPairing(... */\n      dup2\n      mstore\n      0x20\n      add\n        /* \"privacy/zkp/MessageProver.sol\":5462:5477  beta2Components */\n      0x04\n        /* \"privacy/zkp/MessageProver.sol\":5462:5480  beta2Components[1] */\n      0x00\n        /* \"privacy/zkp/MessageProver.sol\":5478:5479  1 */\n      0x01\n        /* \"privacy/zkp/MessageProver.sol\":5462:5480  beta2Components[1] */\n      dup2\n      mstore\n      0x20\n      add\n      swap1\n      dup2\n      mstore\n      0x20\n      add\n      0x00\n      keccak256\n      sload\n        /* \"privacy/zkp/MessageProver.sol\":5327:5636  _verifyPairing(... */\n      dup2\n      mstore\n      pop\n        /* \"privacy/zkp/MessageProver.sol\":5495:5499  vk_x */\n      dup6\n        /* \"privacy/zkp/MessageProver.sol\":5327:5636  _verifyPairing(... */\n      mload(0x40)\n      dup1\n      0x40\n      add\n      0x40\n      mstore\n      dup1\n        /* \"privacy/zkp/MessageProver.sol\":5514:5530  gamma2Components */\n      0x05\n        /* \"privacy/zkp/MessageProver.sol\":5514:5533  gamma2Components[0] */\n      0x00\n        /* \"privacy/zkp/MessageProver.sol\":5531:5532  0 */\n      dup1\n        /* \"privacy/zkp/MessageProver.sol\":5514:5533  gamma2Components[0] */\n      dup2\n      mstore\n      0x20\n      add\n      swap1\n      dup2\n      mstore\n      0x20\n      add\n      0x00\n      keccak256\n      sload\n        /* \"privacy/zkp/MessageProver.sol\":5327:5636  _verifyPairing(... */\n      dup2\n      mstore\n      0x20\n      add\n        /* \"privacy/zkp/MessageProver.sol\":5535:5551  gamma2Components */\n      0x05\n        /* \"privacy/zkp/MessageProver.sol\":5535:5554  gamma2Components[1] */\n      0x00\n        /* \"privacy/zkp/MessageProver.sol\":5552:5553  1 */\n      0x01\n        /* \"privacy/zkp/MessageProver.sol\":5535:5554  gamma2Components[1] */\n      dup2\n      mstore\n      0x20\n      add\n      swap1\n      dup2\n      mstore\n      0x20\n      add\n      0x00\n      keccak256\n      sload\n        /* \"privacy/zkp/MessageProver.sol\":5327:5636  _verifyPairing(... */\n      dup2\n      mstore\n      pop\n        /* \"privacy/zkp/MessageProver.sol\":5569:5570  c */\n      dup11\n        /* \"privacy/zkp/MessageProver.sol\":5327:5636  _verifyPairing(... */\n      mload(0x40)\n      dup1\n      0x40\n      add\n      0x40\n      mstore\n      dup1\n        /* \"privacy/zkp/MessageProver.sol\":5585:5601  delta2Components */\n      0x06\n        /* \"privacy/zkp/MessageProver.sol\":5585:5604  delta2Components[0] */\n      0x00\n        /* \"privacy/zkp/MessageProver.sol\":5602:5603  0 */\n      dup1\n        /* \"privacy/zkp/MessageProver.sol\":5585:5604  delta2Components[0] */\n      dup2\n      mstore\n      0x20\n      add\n      swap1\n      dup2\n      mstore\n      0x20\n      add\n      0x00\n      keccak256\n      sload\n        /* \"privacy/zkp/MessageProver.sol\":5327:5636  _verifyPairing(... */\n      dup2\n      mstore\n      0x20\n      add\n        /* \"privacy/zkp/MessageProver.sol\":5606:5622  delta2Components */\n      0x06\n        /* \"privacy/zkp/MessageProver.sol\":5606:5625  delta2Components[1] */\n      0x00\n        /* \"privacy/zkp/MessageProver.sol\":5623:5624  1 */\n      0x01\n        /* \"privacy/zkp/MessageProver.sol\":5606:5625  delta2Components[1] */\n      dup2\n      mstore\n      0x20\n      add\n      swap1\n      dup2\n      mstore\n      0x20\n      add\n      0x00\n      keccak256\n      sload\n        /* \"privacy/zkp/MessageProver.sol\":5327:5636  _verifyPairing(... */\n      dup2\n      mstore\n      pop\n        /* \"privacy/zkp/MessageProver.sol\":5327:5341  _verifyPairing */\n      tag_225\n        /* \"privacy/zkp/MessageProver.sol\":5327:5636  _verifyPairing(... */\n      jump\t// in\n    tag_224:\n        /* \"privacy/zkp/MessageProver.sol\":5320:5636  return _verifyPairing(... */\n      swap2\n      pop\n      pop\n        /* \"privacy/zkp/MessageProver.sol\":4604:5643  function _verifyProof(... */\n      swap5\n      swap4\n      pop\n      pop\n      pop\n      pop\n      jump\t// out\n        /* \"@openzeppelin/contracts/utils/ReentrancyGuard.sol\":2575:2882  function _nonReentrantBefore() private {... */\n    tag_147:\n        /* \"@openzeppelin/contracts/utils/ReentrancyGuard.sol\":1899:1900  2 */\n      0x02\n        /* \"@openzeppelin/contracts/utils/ReentrancyGuard.sol\":2702:2709  _status */\n      sload(0x01)\n        /* \"@openzeppelin/contracts/utils/ReentrancyGuard.sol\":2702:2720  _status == ENTERED */\n      sub\n        /* \"@openzeppelin/contracts/utils/ReentrancyGuard.sol\":2698:2784  if (_status == ENTERED) {... */\n      tag_227\n      jumpi\n        /* \"@openzeppelin/contracts/utils/ReentrancyGuard.sol\":2743:2773  ReentrancyGuardReentrantCall() */\n      mload(0x40)\n      0x3ee5aeb500000000000000000000000000000000000000000000000000000000\n      dup2\n      mstore\n      0x04\n      add\n      mload(0x40)\n      dup1\n      swap2\n      sub\n      swap1\n      revert\n        /* \"@openzeppelin/contracts/utils/ReentrancyGuard.sol\":2698:2784  if (_status == ENTERED) {... */\n    tag_227:\n        /* \"@openzeppelin/contracts/utils/ReentrancyGuard.sol\":1899:1900  2 */\n      0x02\n        /* \"@openzeppelin/contracts/utils/ReentrancyGuard.sol\":2858:2865  _status */\n      0x01\n        /* \"@openzeppelin/contracts/utils/ReentrancyGuard.sol\":2858:2875  _status = ENTERED */\n      dup2\n      swap1\n      sstore\n      pop\n        /* \"@openzeppelin/contracts/utils/ReentrancyGuard.sol\":2575:2882  function _nonReentrantBefore() private {... */\n      jump\t// out\n        /* \"@openzeppelin/contracts/utils/Pausable.sol\":2002:2130  function _requireNotPaused() internal view virtual {... */\n    tag_150:\n        /* \"@openzeppelin/contracts/utils/Pausable.sol\":2067:2075  paused() */\n      tag_229\n        /* \"@openzeppelin/contracts/utils/Pausable.sol\":2067:2073  paused */\n      tag_64\n        /* \"@openzeppelin/contracts/utils/Pausable.sol\":2067:2075  paused() */\n      jump\t// in\n    tag_229:\n        /* \"@openzeppelin/contracts/utils/Pausable.sol\":2063:2124  if (paused()) {... */\n      iszero\n      tag_230\n      jumpi\n        /* \"@openzeppelin/contracts/utils/Pausable.sol\":2098:2113  EnforcedPause() */\n      mload(0x40)\n      0xd93c066500000000000000000000000000000000000000000000000000000000\n      dup2\n      mstore\n      0x04\n      add\n      mload(0x40)\n      dup1\n      swap2\n      sub\n      swap1\n      revert\n        /* \"@openzeppelin/contracts/utils/Pausable.sol\":2063:2124  if (paused()) {... */\n    tag_230:\n        /* \"@openzeppelin/contracts/utils/Pausable.sol\":2002:2130  function _requireNotPaused() internal view virtual {... */\n      jump\t// out\n        /* \"@openzeppelin/contracts/utils/ReentrancyGuard.sol\":2888:3096  function _nonReentrantAfter() private {... */\n    tag_168:\n        /* \"@openzeppelin/contracts/utils/ReentrancyGuard.sol\":1857:1858  1 */\n      0x01\n        /* \"@openzeppelin/contracts/utils/ReentrancyGuard.sol\":3068:3075  _status */\n      dup1\n        /* \"@openzeppelin/contracts/utils/ReentrancyGuard.sol\":3068:3089  _status = NOT_ENTERED */\n      dup2\n      swap1\n      sstore\n      pop\n        /* \"@openzeppelin/contracts/utils/ReentrancyGuard.sol\":2888:3096  function _nonReentrantAfter() private {... */\n      jump\t// out\n        /* \"@openzeppelin/contracts/utils/Pausable.sol\":2710:2827  function _unpause() internal virtual whenPaused {... */\n    tag_173:\n        /* \"@openzeppelin/contracts/utils/Pausable.sol\":1721:1737  _requirePaused() */\n      tag_233\n        /* \"@openzeppelin/contracts/utils/Pausable.sol\":1721:1735  _requirePaused */\n      tag_234\n        /* \"@openzeppelin/contracts/utils/Pausable.sol\":1721:1737  _requirePaused() */\n      jump\t// in\n    tag_233:\n        /* \"@openzeppelin/contracts/utils/Pausable.sol\":2778:2783  false */\n      0x00\n        /* \"@openzeppelin/contracts/utils/Pausable.sol\":2768:2775  _paused */\n      0x02\n      0x00\n        /* \"@openzeppelin/contracts/utils/Pausable.sol\":2768:2783  _paused = false */\n      0x0100\n      exp\n      dup2\n      sload\n      dup2\n      0xff\n      mul\n      not\n      and\n      swap1\n      dup4\n      iszero\n      iszero\n      mul\n      or\n      swap1\n      sstore\n      pop\n        /* \"@openzeppelin/contracts/utils/Pausable.sol\":2798:2820  Unpaused(_msgSender()) */\n      0x5db9ee0a495bf2e6ff9c91a7834c1ba4fdd244a5e8aa4e537bd38aeae4b073aa\n        /* \"@openzeppelin/contracts/utils/Pausable.sol\":2807:2819  _msgSender() */\n      tag_236\n        /* \"@openzeppelin/contracts/utils/Pausable.sol\":2807:2817  _msgSender */\n      tag_194\n        /* \"@openzeppelin/contracts/utils/Pausable.sol\":2807:2819  _msgSender() */\n      jump\t// in\n    tag_236:\n        /* \"@openzeppelin/contracts/utils/Pausable.sol\":2798:2820  Unpaused(_msgSender()) */\n      mload(0x40)\n      tag_237\n      swap2\n      swap1\n      tag_77\n      jump\t// in\n    tag_237:\n      mload(0x40)\n      dup1\n      swap2\n      sub\n      swap1\n      log1\n        /* \"@openzeppelin/contracts/utils/Pausable.sol\":2710:2827  function _unpause() internal virtual whenPaused {... */\n      jump\t// out\n        /* \"@openzeppelin/contracts/access/Ownable.sol\":2912:3099  function _transferOwnership(address newOwner) internal virtual {... */\n    tag_179:\n        /* \"@openzeppelin/contracts/access/Ownable.sol\":2985:3001  address oldOwner */\n      0x00\n        /* \"@openzeppelin/contracts/access/Ownable.sol\":3004:3010  _owner */\n      dup1\n      0x00\n      swap1\n      sload\n      swap1\n      0x0100\n      exp\n      swap1\n      div\n      0xffffffffffffffffffffffffffffffffffffffff\n      and\n        /* \"@openzeppelin/contracts/access/Ownable.sol\":2985:3010  address oldOwner = _owner */\n      swap1\n      pop\n        /* \"@openzeppelin/contracts/access/Ownable.sol\":3029:3037  newOwner */\n      dup2\n        /* \"@openzeppelin/contracts/access/Ownable.sol\":3020:3026  _owner */\n      0x00\n      dup1\n        /* \"@openzeppelin/contracts/access/Ownable.sol\":3020:3037  _owner = newOwner */\n      0x0100\n      exp\n      dup2\n      sload\n      dup2\n      0xffffffffffffffffffffffffffffffffffffffff\n      mul\n      not\n      and\n      swap1\n      dup4\n      0xffffffffffffffffffffffffffffffffffffffff\n      and\n      mul\n      or\n      swap1\n      sstore\n      pop\n        /* \"@openzeppelin/contracts/access/Ownable.sol\":3083:3091  newOwner */\n      dup2\n        /* \"@openzeppelin/contracts/access/Ownable.sol\":3052:3092  OwnershipTransferred(oldOwner, newOwner) */\n      0xffffffffffffffffffffffffffffffffffffffff\n      and\n        /* \"@openzeppelin/contracts/access/Ownable.sol\":3073:3081  oldOwner */\n      dup2\n        /* \"@openzeppelin/contracts/access/Ownable.sol\":3052:3092  OwnershipTransferred(oldOwner, newOwner) */\n      0xffffffffffffffffffffffffffffffffffffffff\n      and\n      0x8be0079c531659141344cd1fd0a4f28419497f9722a3daafe3b4186f6b6457e0\n      mload(0x40)\n      mload(0x40)\n      dup1\n      swap2\n      sub\n      swap1\n      log3\n        /* \"@openzeppelin/contracts/access/Ownable.sol\":2975:3099  {... */\n      pop\n        /* \"@openzeppelin/contracts/access/Ownable.sol\":2912:3099  function _transferOwnership(address newOwner) internal virtual {... */\n      pop\n      jump\t// out\n        /* \"@openzeppelin/contracts/utils/Pausable.sol\":2463:2578  function _pause() internal virtual whenNotPaused {... */\n    tag_184:\n        /* \"@openzeppelin/contracts/utils/Pausable.sol\":1474:1493  _requireNotPaused() */\n      tag_240\n        /* \"@openzeppelin/contracts/utils/Pausable.sol\":1474:1491  _requireNotPaused */\n      tag_150\n        /* \"@openzeppelin/contracts/utils/Pausable.sol\":1474:1493  _requireNotPaused() */\n      jump\t// in\n    tag_240:\n        /* \"@openzeppelin/contracts/utils/Pausable.sol\":2532:2536  true */\n      0x01\n        /* \"@openzeppelin/contracts/utils/Pausable.sol\":2522:2529  _paused */\n      0x02\n      0x00\n        /* \"@openzeppelin/contracts/utils/Pausable.sol\":2522:2536  _paused = true */\n      0x0100\n      exp\n      dup2\n      sload\n      dup2\n      0xff\n      mul\n      not\n      and\n      swap1\n      dup4\n      iszero\n      iszero\n      mul\n      or\n      swap1\n      sstore\n      pop\n        /* \"@openzeppelin/contracts/utils/Pausable.sol\":2551:2571  Paused(_msgSender()) */\n      0x62e78cea01bee320cd4e420270b5ea74000d11b0c9f74754ebdbfc544b05a258\n        /* \"@openzeppelin/contracts/utils/Pausable.sol\":2558:2570  _msgSender() */\n      tag_242\n        /* \"@openzeppelin/contracts/utils/Pausable.sol\":2558:2568  _msgSender */\n      tag_194\n        /* \"@openzeppelin/contracts/utils/Pausable.sol\":2558:2570  _msgSender() */\n      jump\t// in\n    tag_242:\n        /* \"@openzeppelin/contracts/utils/Pausable.sol\":2551:2571  Paused(_msgSender()) */\n      mload(0x40)\n      tag_243\n      swap2\n      swap1\n      tag_77\n      jump\t// in\n    tag_243:\n      mload(0x40)\n      dup1\n      swap2\n      sub\n      swap1\n      log1\n        /* \"@openzeppelin/contracts/utils/Pausable.sol\":2463:2578  function _pause() internal virtual whenNotPaused {... */\n      jump\t// out\n        /* \"@openzeppelin/contracts/utils/Context.sol\":656:752  function _msgSender() internal view virtual returns (address) {... */\n    tag_194:\n        /* \"@openzeppelin/contracts/utils/Context.sol\":709:716  address */\n      0x00\n        /* \"@openzeppelin/contracts/utils/Context.sol\":735:745  msg.sender */\n      caller\n        /* \"@openzeppelin/contracts/utils/Context.sol\":728:745  return msg.sender */\n      swap1\n      pop\n        /* \"@openzeppelin/contracts/utils/Context.sol\":656:752  function _msgSender() internal view virtual returns (address) {... */\n      swap1\n      jump\t// out\n        /* \"privacy/zkp/MessageProver.sol\":5697:5834  function _scalarMul(uint256[2] memory p, uint256 s) internal pure returns (uint256, uint256) {... */\n    tag_213:\n        /* \"privacy/zkp/MessageProver.sol\":5772:5779  uint256 */\n      0x00\n        /* \"privacy/zkp/MessageProver.sol\":5781:5788  uint256 */\n      dup1\n        /* \"privacy/zkp/MessageProver.sol\":5815:5816  s */\n      dup3\n        /* \"privacy/zkp/MessageProver.sol\":5808:5809  p */\n      dup5\n        /* \"privacy/zkp/MessageProver.sol\":5810:5811  0 */\n      0x00\n        /* \"privacy/zkp/MessageProver.sol\":5808:5812  p[0] */\n      0x02\n      dup2\n      lt\n      tag_246\n      jumpi\n      tag_247\n      tag_100\n      jump\t// in\n    tag_247:\n    tag_246:\n      0x20\n      mul\n      add\n      mload\n        /* \"privacy/zkp/MessageProver.sol\":5808:5816  p[0] * s */\n      tag_248\n      swap2\n      swap1\n      tag_249\n      jump\t// in\n    tag_248:\n        /* \"privacy/zkp/MessageProver.sol\":5825:5826  s */\n      dup4\n        /* \"privacy/zkp/MessageProver.sol\":5818:5819  p */\n      dup6\n        /* \"privacy/zkp/MessageProver.sol\":5820:5821  1 */\n      0x01\n        /* \"privacy/zkp/MessageProver.sol\":5818:5822  p[1] */\n      0x02\n      dup2\n      lt\n      tag_250\n      jumpi\n      tag_251\n      tag_100\n      jump\t// in\n    tag_251:\n    tag_250:\n      0x20\n      mul\n      add\n      mload\n        /* \"privacy/zkp/MessageProver.sol\":5818:5826  p[1] * s */\n      tag_252\n      swap2\n      swap1\n      tag_249\n      jump\t// in\n    tag_252:\n        /* \"privacy/zkp/MessageProver.sol\":5800:5827  return (p[0] * s, p[1] * s) */\n      swap2\n      pop\n      swap2\n      pop\n        /* \"privacy/zkp/MessageProver.sol\":5697:5834  function _scalarMul(uint256[2] memory p, uint256 s) internal pure returns (uint256, uint256) {... */\n      swap3\n      pop\n      swap3\n      swap1\n      pop\n      jump\t// out\n        /* \"privacy/zkp/MessageProver.sol\":5840:5990  function _pointAdd(uint256 x1, uint256 y1, uint256 x2, uint256 y2) internal pure returns (uint256, uint256) {... */\n    tag_219:\n        /* \"privacy/zkp/MessageProver.sol\":5930:5937  uint256 */\n      0x00\n        /* \"privacy/zkp/MessageProver.sol\":5939:5946  uint256 */\n      dup1\n        /* \"privacy/zkp/MessageProver.sol\":5971:5973  x2 */\n      dup4\n        /* \"privacy/zkp/MessageProver.sol\":5966:5968  x1 */\n      dup7\n        /* \"privacy/zkp/MessageProver.sol\":5966:5973  x1 + x2 */\n      tag_254\n      swap2\n      swap1\n      tag_201\n      jump\t// in\n    tag_254:\n        /* \"privacy/zkp/MessageProver.sol\":5980:5982  y2 */\n      dup4\n        /* \"privacy/zkp/MessageProver.sol\":5975:5977  y1 */\n      dup7\n        /* \"privacy/zkp/MessageProver.sol\":5975:5982  y1 + y2 */\n      tag_255\n      swap2\n      swap1\n      tag_201\n      jump\t// in\n    tag_255:\n        /* \"privacy/zkp/MessageProver.sol\":5958:5983  return (x1 + x2, y1 + y2) */\n      swap2\n      pop\n      swap2\n      pop\n        /* \"privacy/zkp/MessageProver.sol\":5840:5990  function _pointAdd(uint256 x1, uint256 y1, uint256 x2, uint256 y2) internal pure returns (uint256, uint256) {... */\n      swap5\n      pop\n      swap5\n      swap3\n      pop\n      pop\n      pop\n      jump\t// out\n        /* \"privacy/zkp/MessageProver.sol\":6113:7694  function _verifyPairing(... */\n    tag_225:\n        /* \"privacy/zkp/MessageProver.sol\":6383:6387  bool */\n      0x00\n        /* \"privacy/zkp/MessageProver.sol\":6434:6458  uint256[24] memory input */\n      tag_257\n      tag_258\n      jump\t// in\n    tag_257:\n        /* \"privacy/zkp/MessageProver.sol\":6524:6543  _negate(a[0], a[1]) */\n      tag_259\n        /* \"privacy/zkp/MessageProver.sol\":6532:6533  a */\n      dup11\n        /* \"privacy/zkp/MessageProver.sol\":6534:6535  0 */\n      0x00\n        /* \"privacy/zkp/MessageProver.sol\":6532:6536  a[0] */\n      0x02\n      dup2\n      lt\n      tag_260\n      jumpi\n      tag_261\n      tag_100\n      jump\t// in\n    tag_261:\n    tag_260:\n      0x20\n      mul\n      add\n      mload\n        /* \"privacy/zkp/MessageProver.sol\":6538:6539  a */\n      dup12\n        /* \"privacy/zkp/MessageProver.sol\":6540:6541  1 */\n      0x01\n        /* \"privacy/zkp/MessageProver.sol\":6538:6542  a[1] */\n      0x02\n      dup2\n      lt\n      tag_262\n      jumpi\n      tag_263\n      tag_100\n      jump\t// in\n    tag_263:\n    tag_262:\n      0x20\n      mul\n      add\n      mload\n        /* \"privacy/zkp/MessageProver.sol\":6524:6531  _negate */\n      tag_264\n        /* \"privacy/zkp/MessageProver.sol\":6524:6543  _negate(a[0], a[1]) */\n      jump\t// in\n    tag_259:\n        /* \"privacy/zkp/MessageProver.sol\":6510:6511  a */\n      dup12\n        /* \"privacy/zkp/MessageProver.sol\":6512:6513  0 */\n      0x00\n        /* \"privacy/zkp/MessageProver.sol\":6510:6514  a[0] */\n      0x02\n      dup2\n      lt\n      tag_265\n      jumpi\n      tag_266\n      tag_100\n      jump\t// in\n    tag_266:\n    tag_265:\n      0x20\n      mul\n      add\n        /* \"privacy/zkp/MessageProver.sol\":6516:6517  a */\n      dup13\n        /* \"privacy/zkp/MessageProver.sol\":6518:6519  1 */\n      0x01\n        /* \"privacy/zkp/MessageProver.sol\":6516:6520  a[1] */\n      0x02\n      dup2\n      lt\n      tag_267\n      jumpi\n      tag_268\n      tag_100\n      jump\t// in\n    tag_268:\n    tag_267:\n      0x20\n      mul\n      add\n        /* \"privacy/zkp/MessageProver.sol\":6509:6543  (a[0], a[1]) = _negate(a[0], a[1]) */\n      dup3\n      dup2\n      mstore\n      pop\n      dup3\n      dup2\n      mstore\n      pop\n      pop\n      pop\n        /* \"privacy/zkp/MessageProver.sol\":6564:6583  _negate(c[0], c[1]) */\n      tag_269\n        /* \"privacy/zkp/MessageProver.sol\":6572:6573  c */\n      dup5\n        /* \"privacy/zkp/MessageProver.sol\":6574:6575  0 */\n      0x00\n        /* \"privacy/zkp/MessageProver.sol\":6572:6576  c[0] */\n      0x02\n      dup2\n      lt\n      tag_270\n      jumpi\n      tag_271\n      tag_100\n      jump\t// in\n    tag_271:\n    tag_270:\n      0x20\n      mul\n      add\n      mload\n        /* \"privacy/zkp/MessageProver.sol\":6578:6579  c */\n      dup6\n        /* \"privacy/zkp/MessageProver.sol\":6580:6581  1 */\n      0x01\n        /* \"privacy/zkp/MessageProver.sol\":6578:6582  c[1] */\n      0x02\n      dup2\n      lt\n      tag_272\n      jumpi\n      tag_273\n      tag_100\n      jump\t// in\n    tag_273:\n    tag_272:\n      0x20\n      mul\n      add\n      mload\n        /* \"privacy/zkp/MessageProver.sol\":6564:6571  _negate */\n      tag_264\n        /* \"privacy/zkp/MessageProver.sol\":6564:6583  _negate(c[0], c[1]) */\n      jump\t// in\n    tag_269:\n        /* \"privacy/zkp/MessageProver.sol\":6550:6551  c */\n      dup6\n        /* \"privacy/zkp/MessageProver.sol\":6552:6553  0 */\n      0x00\n        /* \"privacy/zkp/MessageProver.sol\":6550:6554  c[0] */\n      0x02\n      dup2\n      lt\n      tag_274\n      jumpi\n      tag_275\n      tag_100\n      jump\t// in\n    tag_275:\n    tag_274:\n      0x20\n      mul\n      add\n        /* \"privacy/zkp/MessageProver.sol\":6556:6557  c */\n      dup7\n        /* \"privacy/zkp/MessageProver.sol\":6558:6559  1 */\n      0x01\n        /* \"privacy/zkp/MessageProver.sol\":6556:6560  c[1] */\n      0x02\n      dup2\n      lt\n      tag_276\n      jumpi\n      tag_277\n      tag_100\n      jump\t// in\n    tag_277:\n    tag_276:\n      0x20\n      mul\n      add\n        /* \"privacy/zkp/MessageProver.sol\":6549:6583  (c[0], c[1]) = _negate(c[0], c[1]) */\n      dup3\n      dup2\n      mstore\n      pop\n      dup3\n      dup2\n      mstore\n      pop\n      pop\n      pop\n        /* \"privacy/zkp/MessageProver.sol\":6631:6632  a */\n      dup10\n        /* \"privacy/zkp/MessageProver.sol\":6633:6634  0 */\n      0x00\n        /* \"privacy/zkp/MessageProver.sol\":6631:6635  a[0] */\n      0x02\n      dup2\n      lt\n      tag_278\n      jumpi\n      tag_279\n      tag_100\n      jump\t// in\n    tag_279:\n    tag_278:\n      0x20\n      mul\n      add\n      mload\n        /* \"privacy/zkp/MessageProver.sol\":6620:6625  input */\n      dup2\n        /* \"privacy/zkp/MessageProver.sol\":6626:6627  0 */\n      0x00\n        /* \"privacy/zkp/MessageProver.sol\":6620:6628  input[0] */\n      0x18\n      dup2\n      lt\n      tag_280\n      jumpi\n      tag_281\n      tag_100\n      jump\t// in\n    tag_281:\n    tag_280:\n      0x20\n      mul\n      add\n        /* \"privacy/zkp/MessageProver.sol\":6620:6635  input[0] = a[0] */\n      dup2\n      dup2\n      mstore\n      pop\n      pop\n        /* \"privacy/zkp/MessageProver.sol\":6652:6653  a */\n      dup10\n        /* \"privacy/zkp/MessageProver.sol\":6654:6655  1 */\n      0x01\n        /* \"privacy/zkp/MessageProver.sol\":6652:6656  a[1] */\n      0x02\n      dup2\n      lt\n      tag_282\n      jumpi\n      tag_283\n      tag_100\n      jump\t// in\n    tag_283:\n    tag_282:\n      0x20\n      mul\n      add\n      mload\n        /* \"privacy/zkp/MessageProver.sol\":6641:6646  input */\n      dup2\n        /* \"privacy/zkp/MessageProver.sol\":6647:6648  1 */\n      0x01\n        /* \"privacy/zkp/MessageProver.sol\":6641:6649  input[1] */\n      0x18\n      dup2\n      lt\n      tag_284\n      jumpi\n      tag_285\n      tag_100\n      jump\t// in\n    tag_285:\n    tag_284:\n      0x20\n      mul\n      add\n        /* \"privacy/zkp/MessageProver.sol\":6641:6656  input[1] = a[1] */\n      dup2\n      dup2\n      mstore\n      pop\n      pop\n        /* \"privacy/zkp/MessageProver.sol\":6673:6674  b */\n      dup9\n        /* \"privacy/zkp/MessageProver.sol\":6675:6676  0 */\n      0x00\n        /* \"privacy/zkp/MessageProver.sol\":6673:6677  b[0] */\n      0x02\n      dup2\n      lt\n      tag_286\n      jumpi\n      tag_287\n      tag_100\n      jump\t// in\n    tag_287:\n    tag_286:\n      0x20\n      mul\n      add\n      mload\n        /* \"privacy/zkp/MessageProver.sol\":6678:6679  0 */\n      0x00\n        /* \"privacy/zkp/MessageProver.sol\":6673:6680  b[0][0] */\n      0x02\n      dup2\n      lt\n      tag_288\n      jumpi\n      tag_289\n      tag_100\n      jump\t// in\n    tag_289:\n    tag_288:\n      0x20\n      mul\n      add\n      mload\n        /* \"privacy/zkp/MessageProver.sol\":6662:6667  input */\n      dup2\n        /* \"privacy/zkp/MessageProver.sol\":6668:6669  2 */\n      0x02\n        /* \"privacy/zkp/MessageProver.sol\":6662:6670  input[2] */\n      0x18\n      dup2\n      lt\n      tag_290\n      jumpi\n      tag_291\n      tag_100\n      jump\t// in\n    tag_291:\n    tag_290:\n      0x20\n      mul\n      add\n        /* \"privacy/zkp/MessageProver.sol\":6662:6680  input[2] = b[0][0] */\n      dup2\n      dup2\n      mstore\n      pop\n      pop\n        /* \"privacy/zkp/MessageProver.sol\":6697:6698  b */\n      dup9\n        /* \"privacy/zkp/MessageProver.sol\":6699:6700  0 */\n      0x00\n        /* \"privacy/zkp/MessageProver.sol\":6697:6701  b[0] */\n      0x02\n      dup2\n      lt\n      tag_292\n      jumpi\n      tag_293\n      tag_100\n      jump\t// in\n    tag_293:\n    tag_292:\n      0x20\n      mul\n      add\n      mload\n        /* \"privacy/zkp/MessageProver.sol\":6702:6703  1 */\n      0x01\n        /* \"privacy/zkp/MessageProver.sol\":6697:6704  b[0][1] */\n      0x02\n      dup2\n      lt\n      tag_294\n      jumpi\n      tag_295\n      tag_100\n      jump\t// in\n    tag_295:\n    tag_294:\n      0x20\n      mul\n      add\n      mload\n        /* \"privacy/zkp/MessageProver.sol\":6686:6691  input */\n      dup2\n        /* \"privacy/zkp/MessageProver.sol\":6692:6693  3 */\n      0x03\n        /* \"privacy/zkp/MessageProver.sol\":6686:6694  input[3] */\n      0x18\n      dup2\n      lt\n      tag_296\n      jumpi\n      tag_297\n      tag_100\n      jump\t// in\n    tag_297:\n    tag_296:\n      0x20\n      mul\n      add\n        /* \"privacy/zkp/MessageProver.sol\":6686:6704  input[3] = b[0][1] */\n      dup2\n      dup2\n      mstore\n      pop\n      pop\n        /* \"privacy/zkp/MessageProver.sol\":6721:6722  b */\n      dup9\n        /* \"privacy/zkp/MessageProver.sol\":6723:6724  1 */\n      0x01\n        /* \"privacy/zkp/MessageProver.sol\":6721:6725  b[1] */\n      0x02\n      dup2\n      lt\n      tag_298\n      jumpi\n      tag_299\n      tag_100\n      jump\t// in\n    tag_299:\n    tag_298:\n      0x20\n      mul\n      add\n      mload\n        /* \"privacy/zkp/MessageProver.sol\":6726:6727  0 */\n      0x00\n        /* \"privacy/zkp/MessageProver.sol\":6721:6728  b[1][0] */\n      0x02\n      dup2\n      lt\n      tag_300\n      jumpi\n      tag_301\n      tag_100\n      jump\t// in\n    tag_301:\n    tag_300:\n      0x20\n      mul\n      add\n      mload\n        /* \"privacy/zkp/MessageProver.sol\":6710:6715  input */\n      dup2\n        /* \"privacy/zkp/MessageProver.sol\":6716:6717  4 */\n      0x04\n        /* \"privacy/zkp/MessageProver.sol\":6710:6718  input[4] */\n      0x18\n      dup2\n      lt\n      tag_302\n      jumpi\n      tag_303\n      tag_100\n      jump\t// in\n    tag_303:\n    tag_302:\n      0x20\n      mul\n      add\n        /* \"privacy/zkp/MessageProver.sol\":6710:6728  input[4] = b[1][0] */\n      dup2\n      dup2\n      mstore\n      pop\n      pop\n        /* \"privacy/zkp/MessageProver.sol\":6745:6746  b */\n      dup9\n        /* \"privacy/zkp/MessageProver.sol\":6747:6748  1 */\n      0x01\n        /* \"privacy/zkp/MessageProver.sol\":6745:6749  b[1] */\n      0x02\n      dup2\n      lt\n      tag_304\n      jumpi\n      tag_305\n      tag_100\n      jump\t// in\n    tag_305:\n    tag_304:\n      0x20\n      mul\n      add\n      mload\n        /* \"privacy/zkp/MessageProver.sol\":6750:6751  1 */\n      0x01\n        /* \"privacy/zkp/MessageProver.sol\":6745:6752  b[1][1] */\n      0x02\n      dup2\n      lt\n      tag_306\n      jumpi\n      tag_307\n      tag_100\n      jump\t// in\n    tag_307:\n    tag_306:\n      0x20\n      mul\n      add\n      mload\n        /* \"privacy/zkp/MessageProver.sol\":6734:6739  input */\n      dup2\n        /* \"privacy/zkp/MessageProver.sol\":6740:6741  5 */\n      0x05\n        /* \"privacy/zkp/MessageProver.sol\":6734:6742  input[5] */\n      0x18\n      dup2\n      lt\n      tag_308\n      jumpi\n      tag_309\n      tag_100\n      jump\t// in\n    tag_309:\n    tag_308:\n      0x20\n      mul\n      add\n        /* \"privacy/zkp/MessageProver.sol\":6734:6752  input[5] = b[1][1] */\n      dup2\n      dup2\n      mstore\n      pop\n      pop\n        /* \"privacy/zkp/MessageProver.sol\":6808:6813  alpha */\n      dup8\n        /* \"privacy/zkp/MessageProver.sol\":6814:6815  0 */\n      0x00\n        /* \"privacy/zkp/MessageProver.sol\":6808:6816  alpha[0] */\n      0x02\n      dup2\n      lt\n      tag_310\n      jumpi\n      tag_311\n      tag_100\n      jump\t// in\n    tag_311:\n    tag_310:\n      0x20\n      mul\n      add\n      mload\n        /* \"privacy/zkp/MessageProver.sol\":6797:6802  input */\n      dup2\n        /* \"privacy/zkp/MessageProver.sol\":6803:6804  6 */\n      0x06\n        /* \"privacy/zkp/MessageProver.sol\":6797:6805  input[6] */\n      0x18\n      dup2\n      lt\n      tag_312\n      jumpi\n      tag_313\n      tag_100\n      jump\t// in\n    tag_313:\n    tag_312:\n      0x20\n      mul\n      add\n        /* \"privacy/zkp/MessageProver.sol\":6797:6816  input[6] = alpha[0] */\n      dup2\n      dup2\n      mstore\n      pop\n      pop\n        /* \"privacy/zkp/MessageProver.sol\":6833:6838  alpha */\n      dup8\n        /* \"privacy/zkp/MessageProver.sol\":6839:6840  1 */\n      0x01\n        /* \"privacy/zkp/MessageProver.sol\":6833:6841  alpha[1] */\n      0x02\n      dup2\n      lt\n      tag_314\n      jumpi\n      tag_315\n      tag_100\n      jump\t// in\n    tag_315:\n    tag_314:\n      0x20\n      mul\n      add\n      mload\n        /* \"privacy/zkp/MessageProver.sol\":6822:6827  input */\n      dup2\n        /* \"privacy/zkp/MessageProver.sol\":6828:6829  7 */\n      0x07\n        /* \"privacy/zkp/MessageProver.sol\":6822:6830  input[7] */\n      0x18\n      dup2\n      lt\n      tag_316\n      jumpi\n      tag_317\n      tag_100\n      jump\t// in\n    tag_317:\n    tag_316:\n      0x20\n      mul\n      add\n        /* \"privacy/zkp/MessageProver.sol\":6822:6841  input[7] = alpha[1] */\n      dup2\n      dup2\n      mstore\n      pop\n      pop\n        /* \"privacy/zkp/MessageProver.sol\":6858:6862  beta */\n      dup7\n        /* \"privacy/zkp/MessageProver.sol\":6863:6864  0 */\n      0x00\n        /* \"privacy/zkp/MessageProver.sol\":6858:6865  beta[0] */\n      0x02\n      dup2\n      lt\n      tag_318\n      jumpi\n      tag_319\n      tag_100\n      jump\t// in\n    tag_319:\n    tag_318:\n      0x20\n      mul\n      add\n      mload\n        /* \"privacy/zkp/MessageProver.sol\":6847:6852  input */\n      dup2\n        /* \"privacy/zkp/MessageProver.sol\":6853:6854  8 */\n      0x08\n        /* \"privacy/zkp/MessageProver.sol\":6847:6855  input[8] */\n      0x18\n      dup2\n      lt\n      tag_320\n      jumpi\n      tag_321\n      tag_100\n      jump\t// in\n    tag_321:\n    tag_320:\n      0x20\n      mul\n      add\n        /* \"privacy/zkp/MessageProver.sol\":6847:6865  input[8] = beta[0] */\n      dup2\n      dup2\n      mstore\n      pop\n      pop\n        /* \"privacy/zkp/MessageProver.sol\":6882:6886  beta */\n      dup7\n        /* \"privacy/zkp/MessageProver.sol\":6887:6888  1 */\n      0x01\n        /* \"privacy/zkp/MessageProver.sol\":6882:6889  beta[1] */\n      0x02\n      dup2\n      lt\n      tag_322\n      jumpi\n      tag_323\n      tag_100\n      jump\t// in\n    tag_323:\n    tag_322:\n      0x20\n      mul\n      add\n      mload\n        /* \"privacy/zkp/MessageProver.sol\":6871:6876  input */\n      dup2\n        /* \"privacy/zkp/MessageProver.sol\":6877:6878  9 */\n      0x09\n        /* \"privacy/zkp/MessageProver.sol\":6871:6879  input[9] */\n      0x18\n      dup2\n      lt\n      tag_324\n      jumpi\n      tag_325\n      tag_100\n      jump\t// in\n    tag_325:\n    tag_324:\n      0x20\n      mul\n      add\n        /* \"privacy/zkp/MessageProver.sol\":6871:6889  input[9] = beta[1] */\n      dup2\n      dup2\n      mstore\n      pop\n      pop\n        /* \"privacy/zkp/MessageProver.sol\":6907:6911  beta */\n      dup7\n        /* \"privacy/zkp/MessageProver.sol\":6912:6913  0 */\n      0x00\n        /* \"privacy/zkp/MessageProver.sol\":6907:6914  beta[0] */\n      0x02\n      dup2\n      lt\n      tag_326\n      jumpi\n      tag_327\n      tag_100\n      jump\t// in\n    tag_327:\n    tag_326:\n      0x20\n      mul\n      add\n      mload\n        /* \"privacy/zkp/MessageProver.sol\":6895:6900  input */\n      dup2\n        /* \"privacy/zkp/MessageProver.sol\":6901:6903  10 */\n      0x0a\n        /* \"privacy/zkp/MessageProver.sol\":6895:6904  input[10] */\n      0x18\n      dup2\n      lt\n      tag_328\n      jumpi\n      tag_329\n      tag_100\n      jump\t// in\n    tag_329:\n    tag_328:\n      0x20\n      mul\n      add\n        /* \"privacy/zkp/MessageProver.sol\":6895:6914  input[10] = beta[0] */\n      dup2\n      dup2\n      mstore\n      pop\n      pop\n        /* \"privacy/zkp/MessageProver.sol\":6932:6936  beta */\n      dup7\n        /* \"privacy/zkp/MessageProver.sol\":6937:6938  1 */\n      0x01\n        /* \"privacy/zkp/MessageProver.sol\":6932:6939  beta[1] */\n      0x02\n      dup2\n      lt\n      tag_330\n      jumpi\n      tag_331\n      tag_100\n      jump\t// in\n    tag_331:\n    tag_330:\n      0x20\n      mul\n      add\n      mload\n        /* \"privacy/zkp/MessageProver.sol\":6920:6925  input */\n      dup2\n        /* \"privacy/zkp/MessageProver.sol\":6926:6928  11 */\n      0x0b\n        /* \"privacy/zkp/MessageProver.sol\":6920:6929  input[11] */\n      0x18\n      dup2\n      lt\n      tag_332\n      jumpi\n      tag_333\n      tag_100\n      jump\t// in\n    tag_333:\n    tag_332:\n      0x20\n      mul\n      add\n        /* \"privacy/zkp/MessageProver.sol\":6920:6939  input[11] = beta[1] */\n      dup2\n      dup2\n      mstore\n      pop\n      pop\n        /* \"privacy/zkp/MessageProver.sol\":6995:6999  vk_x */\n      dup6\n        /* \"privacy/zkp/MessageProver.sol\":7000:7001  0 */\n      0x00\n        /* \"privacy/zkp/MessageProver.sol\":6995:7002  vk_x[0] */\n      0x02\n      dup2\n      lt\n      tag_334\n      jumpi\n      tag_335\n      tag_100\n      jump\t// in\n    tag_335:\n    tag_334:\n      0x20\n      mul\n      add\n      mload\n        /* \"privacy/zkp/MessageProver.sol\":6983:6988  input */\n      dup2\n        /* \"privacy/zkp/MessageProver.sol\":6989:6991  12 */\n      0x0c\n        /* \"privacy/zkp/MessageProver.sol\":6983:6992  input[12] */\n      0x18\n      dup2\n      lt\n      tag_336\n      jumpi\n      tag_337\n      tag_100\n      jump\t// in\n    tag_337:\n    tag_336:\n      0x20\n      mul\n      add\n        /* \"privacy/zkp/MessageProver.sol\":6983:7002  input[12] = vk_x[0] */\n      dup2\n      dup2\n      mstore\n      pop\n      pop\n        /* \"privacy/zkp/MessageProver.sol\":7020:7024  vk_x */\n      dup6\n        /* \"privacy/zkp/MessageProver.sol\":7025:7026  1 */\n      0x01\n        /* \"privacy/zkp/MessageProver.sol\":7020:7027  vk_x[1] */\n      0x02\n      dup2\n      lt\n      tag_338\n      jumpi\n      tag_339\n      tag_100\n      jump\t// in\n    tag_339:\n    tag_338:\n      0x20\n      mul\n      add\n      mload\n        /* \"privacy/zkp/MessageProver.sol\":7008:7013  input */\n      dup2\n        /* \"privacy/zkp/MessageProver.sol\":7014:7016  13 */\n      0x0d\n        /* \"privacy/zkp/MessageProver.sol\":7008:7017  input[13] */\n      0x18\n      dup2\n      lt\n      tag_340\n      jumpi\n      tag_341\n      tag_100\n      jump\t// in\n    tag_341:\n    tag_340:\n      0x20\n      mul\n      add\n        /* \"privacy/zkp/MessageProver.sol\":7008:7027  input[13] = vk_x[1] */\n      dup2\n      dup2\n      mstore\n      pop\n      pop\n        /* \"privacy/zkp/MessageProver.sol\":7045:7050  gamma */\n      dup5\n        /* \"privacy/zkp/MessageProver.sol\":7051:7052  0 */\n      0x00\n        /* \"privacy/zkp/MessageProver.sol\":7045:7053  gamma[0] */\n      0x02\n      dup2\n      lt\n      tag_342\n      jumpi\n      tag_343\n      tag_100\n      jump\t// in\n    tag_343:\n    tag_342:\n      0x20\n      mul\n      add\n      mload\n        /* \"privacy/zkp/MessageProver.sol\":7033:7038  input */\n      dup2\n        /* \"privacy/zkp/MessageProver.sol\":7039:7041  14 */\n      0x0e\n        /* \"privacy/zkp/MessageProver.sol\":7033:7042  input[14] */\n      0x18\n      dup2\n      lt\n      tag_344\n      jumpi\n      tag_345\n      tag_100\n      jump\t// in\n    tag_345:\n    tag_344:\n      0x20\n      mul\n      add\n        /* \"privacy/zkp/MessageProver.sol\":7033:7053  input[14] = gamma[0] */\n      dup2\n      dup2\n      mstore\n      pop\n      pop\n        /* \"privacy/zkp/MessageProver.sol\":7071:7076  gamma */\n      dup5\n        /* \"privacy/zkp/MessageProver.sol\":7077:7078  1 */\n      0x01\n        /* \"privacy/zkp/MessageProver.sol\":7071:7079  gamma[1] */\n      0x02\n      dup2\n      lt\n      tag_346\n      jumpi\n      tag_347\n      tag_100\n      jump\t// in\n    tag_347:\n    tag_346:\n      0x20\n      mul\n      add\n      mload\n        /* \"privacy/zkp/MessageProver.sol\":7059:7064  input */\n      dup2\n        /* \"privacy/zkp/MessageProver.sol\":7065:7067  15 */\n      0x0f\n        /* \"privacy/zkp/MessageProver.sol\":7059:7068  input[15] */\n      0x18\n      dup2\n      lt\n      tag_348\n      jumpi\n      tag_349\n      tag_100\n      jump\t// in\n    tag_349:\n    tag_348:\n      0x20\n      mul\n      add\n        /* \"privacy/zkp/MessageProver.sol\":7059:7079  input[15] = gamma[1] */\n      dup2\n      dup2\n      mstore\n      pop\n      pop\n        /* \"privacy/zkp/MessageProver.sol\":7097:7102  gamma */\n      dup5\n        /* \"privacy/zkp/MessageProver.sol\":7103:7104  0 */\n      0x00\n        /* \"privacy/zkp/MessageProver.sol\":7097:7105  gamma[0] */\n      0x02\n      dup2\n      lt\n      tag_350\n      jumpi\n      tag_351\n      tag_100\n      jump\t// in\n    tag_351:\n    tag_350:\n      0x20\n      mul\n      add\n      mload\n        /* \"privacy/zkp/MessageProver.sol\":7085:7090  input */\n      dup2\n        /* \"privacy/zkp/MessageProver.sol\":7091:7093  16 */\n      0x10\n        /* \"privacy/zkp/MessageProver.sol\":7085:7094  input[16] */\n      0x18\n      dup2\n      lt\n      tag_352\n      jumpi\n      tag_353\n      tag_100\n      jump\t// in\n    tag_353:\n    tag_352:\n      0x20\n      mul\n      add\n        /* \"privacy/zkp/MessageProver.sol\":7085:7105  input[16] = gamma[0] */\n      dup2\n      dup2\n      mstore\n      pop\n      pop\n        /* \"privacy/zkp/MessageProver.sol\":7123:7128  gamma */\n      dup5\n        /* \"privacy/zkp/MessageProver.sol\":7129:7130  1 */\n      0x01\n        /* \"privacy/zkp/MessageProver.sol\":7123:7131  gamma[1] */\n      0x02\n      dup2\n      lt\n      tag_354\n      jumpi\n      tag_355\n      tag_100\n      jump\t// in\n    tag_355:\n    tag_354:\n      0x20\n      mul\n      add\n      mload\n        /* \"privacy/zkp/MessageProver.sol\":7111:7116  input */\n      dup2\n        /* \"privacy/zkp/MessageProver.sol\":7117:7119  17 */\n      0x11\n        /* \"privacy/zkp/MessageProver.sol\":7111:7120  input[17] */\n      0x18\n      dup2\n      lt\n      tag_356\n      jumpi\n      tag_357\n      tag_100\n      jump\t// in\n    tag_357:\n    tag_356:\n      0x20\n      mul\n      add\n        /* \"privacy/zkp/MessageProver.sol\":7111:7131  input[17] = gamma[1] */\n      dup2\n      dup2\n      mstore\n      pop\n      pop\n        /* \"privacy/zkp/MessageProver.sol\":7185:7186  c */\n      dup4\n        /* \"privacy/zkp/MessageProver.sol\":7187:7188  0 */\n      0x00\n        /* \"privacy/zkp/MessageProver.sol\":7185:7189  c[0] */\n      0x02\n      dup2\n      lt\n      tag_358\n      jumpi\n      tag_359\n      tag_100\n      jump\t// in\n    tag_359:\n    tag_358:\n      0x20\n      mul\n      add\n      mload\n        /* \"privacy/zkp/MessageProver.sol\":7173:7178  input */\n      dup2\n        /* \"privacy/zkp/MessageProver.sol\":7179:7181  18 */\n      0x12\n        /* \"privacy/zkp/MessageProver.sol\":7173:7182  input[18] */\n      0x18\n      dup2\n      lt\n      tag_360\n      jumpi\n      tag_361\n      tag_100\n      jump\t// in\n    tag_361:\n    tag_360:\n      0x20\n      mul\n      add\n        /* \"privacy/zkp/MessageProver.sol\":7173:7189  input[18] = c[0] */\n      dup2\n      dup2\n      mstore\n      pop\n      pop\n        /* \"privacy/zkp/MessageProver.sol\":7207:7208  c */\n      dup4\n        /* \"privacy/zkp/MessageProver.sol\":7209:7210  1 */\n      0x01\n        /* \"privacy/zkp/MessageProver.sol\":7207:7211  c[1] */\n      0x02\n      dup2\n      lt\n      tag_362\n      jumpi\n      tag_363\n      tag_100\n      jump\t// in\n    tag_363:\n    tag_362:\n      0x20\n      mul\n      add\n      mload\n        /* \"privacy/zkp/MessageProver.sol\":7195:7200  input */\n      dup2\n        /* \"privacy/zkp/MessageProver.sol\":7201:7203  19 */\n      0x13\n        /* \"privacy/zkp/MessageProver.sol\":7195:7204  input[19] */\n      0x18\n      dup2\n      lt\n      tag_364\n      jumpi\n      tag_365\n      tag_100\n      jump\t// in\n    tag_365:\n    tag_364:\n      0x20\n      mul\n      add\n        /* \"privacy/zkp/MessageProver.sol\":7195:7211  input[19] = c[1] */\n      dup2\n      dup2\n      mstore\n      pop\n      pop\n        /* \"privacy/zkp/MessageProver.sol\":7229:7234  delta */\n      dup3\n        /* \"privacy/zkp/MessageProver.sol\":7235:7236  0 */\n      0x00\n        /* \"privacy/zkp/MessageProver.sol\":7229:7237  delta[0] */\n      0x02\n      dup2\n      lt\n      tag_366\n      jumpi\n      tag_367\n      tag_100\n      jump\t// in\n    tag_367:\n    tag_366:\n      0x20\n      mul\n      add\n      mload\n        /* \"privacy/zkp/MessageProver.sol\":7217:7222  input */\n      dup2\n        /* \"privacy/zkp/MessageProver.sol\":7223:7225  20 */\n      0x14\n        /* \"privacy/zkp/MessageProver.sol\":7217:7226  input[20] */\n      0x18\n      dup2\n      lt\n      tag_368\n      jumpi\n      tag_369\n      tag_100\n      jump\t// in\n    tag_369:\n    tag_368:\n      0x20\n      mul\n      add\n        /* \"privacy/zkp/MessageProver.sol\":7217:7237  input[20] = delta[0] */\n      dup2\n      dup2\n      mstore\n      pop\n      pop\n        /* \"privacy/zkp/MessageProver.sol\":7255:7260  delta */\n      dup3\n        /* \"privacy/zkp/MessageProver.sol\":7261:7262  1 */\n      0x01\n        /* \"privacy/zkp/MessageProver.sol\":7255:7263  delta[1] */\n      0x02\n      dup2\n      lt\n      tag_370\n      jumpi\n      tag_371\n      tag_100\n      jump\t// in\n    tag_371:\n    tag_370:\n      0x20\n      mul\n      add\n      mload\n        /* \"privacy/zkp/MessageProver.sol\":7243:7248  input */\n      dup2\n        /* \"privacy/zkp/MessageProver.sol\":7249:7251  21 */\n      0x15\n        /* \"privacy/zkp/MessageProver.sol\":7243:7252  input[21] */\n      0x18\n      dup2\n      lt\n      tag_372\n      jumpi\n      tag_373\n      tag_100\n      jump\t// in\n    tag_373:\n    tag_372:\n      0x20\n      mul\n      add\n        /* \"privacy/zkp/MessageProver.sol\":7243:7263  input[21] = delta[1] */\n      dup2\n      dup2\n      mstore\n      pop\n      pop\n        /* \"privacy/zkp/MessageProver.sol\":7281:7286  delta */\n      dup3\n        /* \"privacy/zkp/MessageProver.sol\":7287:7288  0 */\n      0x00\n        /* \"privacy/zkp/MessageProver.sol\":7281:7289  delta[0] */\n      0x02\n      dup2\n      lt\n      tag_374\n      jumpi\n      tag_375\n      tag_100\n      jump\t// in\n    tag_375:\n    tag_374:\n      0x20\n      mul\n      add\n      mload\n        /* \"privacy/zkp/MessageProver.sol\":7269:7274  input */\n      dup2\n        /* \"privacy/zkp/MessageProver.sol\":7275:7277  22 */\n      0x16\n        /* \"privacy/zkp/MessageProver.sol\":7269:7278  input[22] */\n      0x18\n      dup2\n      lt\n      tag_376\n      jumpi\n      tag_377\n      tag_100\n      jump\t// in\n    tag_377:\n    tag_376:\n      0x20\n      mul\n      add\n        /* \"privacy/zkp/MessageProver.sol\":7269:7289  input[22] = delta[0] */\n      dup2\n      dup2\n      mstore\n      pop\n      pop\n        /* \"privacy/zkp/MessageProver.sol\":7307:7312  delta */\n      dup3\n        /* \"privacy/zkp/MessageProver.sol\":7313:7314  1 */\n      0x01\n        /* \"privacy/zkp/MessageProver.sol\":7307:7315  delta[1] */\n      0x02\n      dup2\n      lt\n      tag_378\n      jumpi\n      tag_379\n      tag_100\n      jump\t// in\n    tag_379:\n    tag_378:\n      0x20\n      mul\n      add\n      mload\n        /* \"privacy/zkp/MessageProver.sol\":7295:7300  input */\n      dup2\n        /* \"privacy/zkp/MessageProver.sol\":7301:7303  23 */\n      0x17\n        /* \"privacy/zkp/MessageProver.sol\":7295:7304  input[23] */\n      0x18\n      dup2\n      lt\n      tag_380\n      jumpi\n      tag_381\n      tag_100\n      jump\t// in\n    tag_381:\n    tag_380:\n      0x20\n      mul\n      add\n        /* \"privacy/zkp/MessageProver.sol\":7295:7315  input[23] = delta[1] */\n      dup2\n      dup2\n      mstore\n      pop\n      pop\n        /* \"privacy/zkp/MessageProver.sol\":7374:7395  uint256[1] memory out */\n      tag_382\n      tag_383\n      jump\t// in\n    tag_382:\n        /* \"privacy/zkp/MessageProver.sol\":7401:7413  bool success */\n      0x00\n        /* \"privacy/zkp/MessageProver.sol\":7610:7614  0x20 */\n      0x20\n        /* \"privacy/zkp/MessageProver.sol\":7605:7608  out */\n      dup3\n        /* \"privacy/zkp/MessageProver.sol\":7598:7603  0x180 */\n      0x0180\n        /* \"privacy/zkp/MessageProver.sol\":7591:7596  input */\n      dup6\n        /* \"privacy/zkp/MessageProver.sol\":7585:7589  0x08 */\n      0x08\n        /* \"privacy/zkp/MessageProver.sol\":7578:7583  gas() */\n      gas\n        /* \"privacy/zkp/MessageProver.sol\":7567:7615  staticcall(gas(), 0x08, input, 0x180, out, 0x20) */\n      staticcall\n        /* \"privacy/zkp/MessageProver.sol\":7556:7615  success := staticcall(gas(), 0x08, input, 0x180, out, 0x20) */\n      swap1\n      pop\n        /* \"privacy/zkp/MessageProver.sol\":7635:7642  success */\n      dup1\n        /* \"privacy/zkp/MessageProver.sol\":7627:7667  require(success, \"Pairing check failed\") */\n      tag_384\n      jumpi\n      mload(0x40)\n      0x08c379a000000000000000000000000000000000000000000000000000000000\n      dup2\n      mstore\n      0x04\n      add\n      tag_385\n      swap1\n      tag_386\n      jump\t// in\n    tag_385:\n      mload(0x40)\n      dup1\n      swap2\n      sub\n      swap1\n      revert\n    tag_384:\n        /* \"privacy/zkp/MessageProver.sol\":7690:7691  1 */\n      0x01\n        /* \"privacy/zkp/MessageProver.sol\":7680:7683  out */\n      dup3\n        /* \"privacy/zkp/MessageProver.sol\":7684:7685  0 */\n      0x00\n        /* \"privacy/zkp/MessageProver.sol\":7680:7686  out[0] */\n      0x01\n      dup2\n      lt\n      tag_387\n      jumpi\n      tag_388\n      tag_100\n      jump\t// in\n    tag_388:\n    tag_387:\n      0x20\n      mul\n      add\n      mload\n        /* \"privacy/zkp/MessageProver.sol\":7680:7691  out[0] == 1 */\n      eq\n        /* \"privacy/zkp/MessageProver.sol\":7673:7691  return out[0] == 1 */\n      swap4\n      pop\n      pop\n      pop\n      pop\n        /* \"privacy/zkp/MessageProver.sol\":6113:7694  function _verifyPairing(... */\n      swap9\n      swap8\n      pop\n      pop\n      pop\n      pop\n      pop\n      pop\n      pop\n      pop\n      jump\t// out\n        /* \"@openzeppelin/contracts/utils/Pausable.sol\":2202:2328  function _requirePaused() internal view virtual {... */\n    tag_234:\n        /* \"@openzeppelin/contracts/utils/Pausable.sol\":2265:2273  paused() */\n      tag_390\n        /* \"@openzeppelin/contracts/utils/Pausable.sol\":2265:2271  paused */\n      tag_64\n        /* \"@openzeppelin/contracts/utils/Pausable.sol\":2265:2273  paused() */\n      jump\t// in\n    tag_390:\n        /* \"@openzeppelin/contracts/utils/Pausable.sol\":2260:2322  if (!paused()) {... */\n      tag_391\n      jumpi\n        /* \"@openzeppelin/contracts/utils/Pausable.sol\":2296:2311  ExpectedPause() */\n      mload(0x40)\n      0x8dfc202b00000000000000000000000000000000000000000000000000000000\n      dup2\n      mstore\n      0x04\n      add\n      mload(0x40)\n      dup1\n      swap2\n      sub\n      swap1\n      revert\n        /* \"@openzeppelin/contracts/utils/Pausable.sol\":2260:2322  if (!paused()) {... */\n    tag_391:\n        /* \"@openzeppelin/contracts/utils/Pausable.sol\":2202:2328  function _requirePaused() internal view virtual {... */\n      jump\t// out\n        /* \"privacy/zkp/MessageProver.sol\":7831:8153  function _negate(uint256 x, uint256 y) internal pure returns (uint256, uint256) {... */\n    tag_264:\n        /* \"privacy/zkp/MessageProver.sol\":7893:7900  uint256 */\n      0x00\n        /* \"privacy/zkp/MessageProver.sol\":7902:7909  uint256 */\n      dup1\n        /* \"privacy/zkp/MessageProver.sol\":7938:7947  uint256 q */\n      0x00\n        /* \"privacy/zkp/MessageProver.sol\":7950:8027  21888242871839275222246405745257275088696311157297823662689037894645226208583 */\n      0x30644e72e131a029b85045b68181585d97816a916871ca8d3c208c16d87cfd47\n        /* \"privacy/zkp/MessageProver.sol\":7938:8027  uint256 q = 21888242871839275222246405745257275088696311157297823662689037894645226208583 */\n      swap1\n      pop\n        /* \"privacy/zkp/MessageProver.sol\":8047:8048  0 */\n      0x00\n        /* \"privacy/zkp/MessageProver.sol\":8042:8043  x */\n      dup6\n        /* \"privacy/zkp/MessageProver.sol\":8042:8048  x == 0 */\n      eq\n        /* \"privacy/zkp/MessageProver.sol\":8042:8058  x == 0 && y == 0 */\n      dup1\n      iszero\n      tag_393\n      jumpi\n      pop\n        /* \"privacy/zkp/MessageProver.sol\":8057:8058  0 */\n      0x00\n        /* \"privacy/zkp/MessageProver.sol\":8052:8053  y */\n      dup5\n        /* \"privacy/zkp/MessageProver.sol\":8052:8058  y == 0 */\n      eq\n        /* \"privacy/zkp/MessageProver.sol\":8042:8058  x == 0 && y == 0 */\n    tag_393:\n        /* \"privacy/zkp/MessageProver.sol\":8038:8090  if (x == 0 && y == 0) {... */\n      iszero\n      tag_394\n      jumpi\n        /* \"privacy/zkp/MessageProver.sol\":8078:8079  0 */\n      0x00\n        /* \"privacy/zkp/MessageProver.sol\":8081:8082  0 */\n      dup1\n        /* \"privacy/zkp/MessageProver.sol\":8070:8083  return (0, 0) */\n      swap3\n      pop\n      swap3\n      pop\n      pop\n      jump(tag_392)\n        /* \"privacy/zkp/MessageProver.sol\":8038:8090  if (x == 0 && y == 0) {... */\n    tag_394:\n        /* \"privacy/zkp/MessageProver.sol\":8135:8136  x */\n      dup5\n        /* \"privacy/zkp/MessageProver.sol\":8147:8148  q */\n      dup2\n        /* \"privacy/zkp/MessageProver.sol\":8143:8144  y */\n      dup6\n        /* \"privacy/zkp/MessageProver.sol\":8143:8148  y % q */\n      tag_395\n      swap2\n      swap1\n      tag_396\n      jump\t// in\n    tag_395:\n        /* \"privacy/zkp/MessageProver.sol\":8138:8139  q */\n      dup3\n        /* \"privacy/zkp/MessageProver.sol\":8138:8149  q - (y % q) */\n      tag_397\n      swap2\n      swap1\n      tag_398\n      jump\t// in\n    tag_397:\n        /* \"privacy/zkp/MessageProver.sol\":8127:8150  return (x, q - (y % q)) */\n      swap3\n      pop\n      swap3\n      pop\n      pop\n        /* \"privacy/zkp/MessageProver.sol\":7831:8153  function _negate(uint256 x, uint256 y) internal pure returns (uint256, uint256) {... */\n    tag_392:\n      swap3\n      pop\n      swap3\n      swap1\n      pop\n      jump\t// out\n    tag_258:\n      mload(0x40)\n      dup1\n      0x0300\n      add\n      0x40\n      mstore\n      dup1\n      0x18\n      swap1\n      0x20\n      dup3\n      mul\n      dup1\n      calldatasize\n      dup4\n      calldatacopy\n      dup1\n      dup3\n      add\n      swap2\n      pop\n      pop\n      swap1\n      pop\n      pop\n      swap1\n      jump\t// out\n    tag_383:\n      mload(0x40)\n      dup1\n      0x20\n      add\n      0x40\n      mstore\n      dup1\n      0x01\n      swap1\n      0x20\n      dup3\n      mul\n      dup1\n      calldatasize\n      dup4\n      calldatacopy\n      dup1\n      dup3\n      add\n      swap2\n      pop\n      pop\n      swap1\n      pop\n      pop\n      swap1\n      jump\t// out\n        /* \"#utility.yul\":7:82   */\n    tag_399:\n        /* \"#utility.yul\":40:46   */\n      0x00\n        /* \"#utility.yul\":73:75   */\n      0x40\n        /* \"#utility.yul\":67:76   */\n      mload\n        /* \"#utility.yul\":57:76   */\n      swap1\n      pop\n        /* \"#utility.yul\":7:82   */\n      swap1\n      jump\t// out\n        /* \"#utility.yul\":88:205   */\n    tag_400:\n        /* \"#utility.yul\":197:198   */\n      0x00\n        /* \"#utility.yul\":194:195   */\n      dup1\n        /* \"#utility.yul\":187:199   */\n      revert\n        /* \"#utility.yul\":211:328   */\n    tag_401:\n        /* \"#utility.yul\":320:321   */\n      0x00\n        /* \"#utility.yul\":317:318   */\n      dup1\n        /* \"#utility.yul\":310:322   */\n      revert\n        /* \"#utility.yul\":334:451   */\n    tag_402:\n        /* \"#utility.yul\":443:444   */\n      0x00\n        /* \"#utility.yul\":440:441   */\n      dup1\n        /* \"#utility.yul\":433:445   */\n      revert\n        /* \"#utility.yul\":475:724   */\n    tag_403:\n        /* \"#utility.yul\":546:554   */\n      0x00\n        /* \"#utility.yul\":577:583   */\n      dup2\n        /* \"#utility.yul\":565:583   */\n      swap1\n      pop\n        /* \"#utility.yul\":630:633   */\n      dup3\n        /* \"#utility.yul\":622:626   */\n      0x20\n        /* \"#utility.yul\":616:620   */\n      0x02\n        /* \"#utility.yul\":612:627   */\n      mul\n        /* \"#utility.yul\":602:610   */\n      dup3\n        /* \"#utility.yul\":598:628   */\n      add\n        /* \"#utility.yul\":595:634   */\n      gt\n        /* \"#utility.yul\":592:718   */\n      iszero\n      tag_465\n      jumpi\n        /* \"#utility.yul\":637:716   */\n      tag_466\n      tag_402\n      jump\t// in\n    tag_466:\n        /* \"#utility.yul\":592:718   */\n    tag_465:\n        /* \"#utility.yul\":475:724   */\n      swap3\n      swap2\n      pop\n      pop\n      jump\t// out\n        /* \"#utility.yul\":730:847   */\n    tag_404:\n        /* \"#utility.yul\":839:840   */\n      0x00\n        /* \"#utility.yul\":836:837   */\n      dup1\n        /* \"#utility.yul\":829:841   */\n      revert\n        /* \"#utility.yul\":853:970   */\n    tag_405:\n        /* \"#utility.yul\":962:963   */\n      0x00\n        /* \"#utility.yul\":959:960   */\n      dup1\n        /* \"#utility.yul\":952:964   */\n      revert\n        /* \"#utility.yul\":996:1589   */\n    tag_406:\n        /* \"#utility.yul\":1094:1102   */\n      0x00\n        /* \"#utility.yul\":1104:1110   */\n      dup1\n        /* \"#utility.yul\":1154:1157   */\n      dup4\n        /* \"#utility.yul\":1147:1151   */\n      0x1f\n        /* \"#utility.yul\":1139:1145   */\n      dup5\n        /* \"#utility.yul\":1135:1152   */\n      add\n        /* \"#utility.yul\":1131:1158   */\n      slt\n        /* \"#utility.yul\":1121:1243   */\n      tag_470\n      jumpi\n        /* \"#utility.yul\":1162:1241   */\n      tag_471\n      tag_404\n      jump\t// in\n    tag_471:\n        /* \"#utility.yul\":1121:1243   */\n    tag_470:\n        /* \"#utility.yul\":1275:1281   */\n      dup3\n        /* \"#utility.yul\":1262:1282   */\n      calldataload\n        /* \"#utility.yul\":1252:1282   */\n      swap1\n      pop\n        /* \"#utility.yul\":1305:1323   */\n      0xffffffffffffffff\n        /* \"#utility.yul\":1297:1303   */\n      dup2\n        /* \"#utility.yul\":1294:1324   */\n      gt\n        /* \"#utility.yul\":1291:1408   */\n      iszero\n      tag_472\n      jumpi\n        /* \"#utility.yul\":1327:1406   */\n      tag_473\n      tag_405\n      jump\t// in\n    tag_473:\n        /* \"#utility.yul\":1291:1408   */\n    tag_472:\n        /* \"#utility.yul\":1441:1445   */\n      0x20\n        /* \"#utility.yul\":1433:1439   */\n      dup4\n        /* \"#utility.yul\":1429:1446   */\n      add\n        /* \"#utility.yul\":1417:1446   */\n      swap2\n      pop\n        /* \"#utility.yul\":1495:1498   */\n      dup4\n        /* \"#utility.yul\":1487:1491   */\n      0x40\n        /* \"#utility.yul\":1479:1485   */\n      dup3\n        /* \"#utility.yul\":1475:1492   */\n      mul\n        /* \"#utility.yul\":1465:1473   */\n      dup4\n        /* \"#utility.yul\":1461:1493   */\n      add\n        /* \"#utility.yul\":1458:1499   */\n      gt\n        /* \"#utility.yul\":1455:1583   */\n      iszero\n      tag_474\n      jumpi\n        /* \"#utility.yul\":1502:1581   */\n      tag_475\n      tag_402\n      jump\t// in\n    tag_475:\n        /* \"#utility.yul\":1455:1583   */\n    tag_474:\n        /* \"#utility.yul\":996:1589   */\n      swap3\n      pop\n      swap3\n      swap1\n      pop\n      jump\t// out\n        /* \"#utility.yul\":1595:2988   */\n    tag_25:\n        /* \"#utility.yul\":1842:1848   */\n      0x00\n        /* \"#utility.yul\":1850:1856   */\n      dup1\n        /* \"#utility.yul\":1858:1864   */\n      0x00\n        /* \"#utility.yul\":1866:1872   */\n      dup1\n        /* \"#utility.yul\":1874:1880   */\n      0x00\n        /* \"#utility.yul\":1882:1888   */\n      dup1\n        /* \"#utility.yul\":1931:1934   */\n      0x0120\n        /* \"#utility.yul\":1919:1928   */\n      dup8\n        /* \"#utility.yul\":1910:1917   */\n      dup10\n        /* \"#utility.yul\":1906:1929   */\n      sub\n        /* \"#utility.yul\":1902:1935   */\n      slt\n        /* \"#utility.yul\":1899:2019   */\n      iszero\n      tag_477\n      jumpi\n        /* \"#utility.yul\":1938:2017   */\n      tag_478\n      tag_400\n      jump\t// in\n    tag_478:\n        /* \"#utility.yul\":1899:2019   */\n    tag_477:\n        /* \"#utility.yul\":2058:2059   */\n      0x00\n        /* \"#utility.yul\":2083:2161   */\n      tag_479\n        /* \"#utility.yul\":2153:2160   */\n      dup10\n        /* \"#utility.yul\":2144:2150   */\n      dup3\n        /* \"#utility.yul\":2133:2142   */\n      dup11\n        /* \"#utility.yul\":2129:2151   */\n      add\n        /* \"#utility.yul\":2083:2161   */\n      tag_403\n      jump\t// in\n    tag_479:\n        /* \"#utility.yul\":2073:2161   */\n      swap7\n      pop\n        /* \"#utility.yul\":2029:2171   */\n      pop\n        /* \"#utility.yul\":2210:2212   */\n      0x40\n        /* \"#utility.yul\":2236:2314   */\n      tag_480\n        /* \"#utility.yul\":2306:2313   */\n      dup10\n        /* \"#utility.yul\":2297:2303   */\n      dup3\n        /* \"#utility.yul\":2286:2295   */\n      dup11\n        /* \"#utility.yul\":2282:2304   */\n      add\n        /* \"#utility.yul\":2236:2314   */\n      tag_403\n      jump\t// in\n    tag_480:\n        /* \"#utility.yul\":2226:2314   */\n      swap6\n      pop\n        /* \"#utility.yul\":2181:2324   */\n      pop\n        /* \"#utility.yul\":2363:2366   */\n      0x80\n        /* \"#utility.yul\":2390:2468   */\n      tag_481\n        /* \"#utility.yul\":2460:2467   */\n      dup10\n        /* \"#utility.yul\":2451:2457   */\n      dup3\n        /* \"#utility.yul\":2440:2449   */\n      dup11\n        /* \"#utility.yul\":2436:2458   */\n      add\n        /* \"#utility.yul\":2390:2468   */\n      tag_403\n      jump\t// in\n    tag_481:\n        /* \"#utility.yul\":2380:2468   */\n      swap5\n      pop\n        /* \"#utility.yul\":2334:2478   */\n      pop\n        /* \"#utility.yul\":2517:2520   */\n      0xc0\n        /* \"#utility.yul\":2544:2622   */\n      tag_482\n        /* \"#utility.yul\":2614:2621   */\n      dup10\n        /* \"#utility.yul\":2605:2611   */\n      dup3\n        /* \"#utility.yul\":2594:2603   */\n      dup11\n        /* \"#utility.yul\":2590:2612   */\n      add\n        /* \"#utility.yul\":2544:2622   */\n      tag_403\n      jump\t// in\n    tag_482:\n        /* \"#utility.yul\":2534:2622   */\n      swap4\n      pop\n        /* \"#utility.yul\":2488:2632   */\n      pop\n        /* \"#utility.yul\":2699:2702   */\n      0x0100\n        /* \"#utility.yul\":2688:2697   */\n      dup8\n        /* \"#utility.yul\":2684:2703   */\n      add\n        /* \"#utility.yul\":2671:2704   */\n      calldataload\n        /* \"#utility.yul\":2731:2749   */\n      0xffffffffffffffff\n        /* \"#utility.yul\":2723:2729   */\n      dup2\n        /* \"#utility.yul\":2720:2750   */\n      gt\n        /* \"#utility.yul\":2717:2834   */\n      iszero\n      tag_483\n      jumpi\n        /* \"#utility.yul\":2753:2832   */\n      tag_484\n      tag_401\n      jump\t// in\n    tag_484:\n        /* \"#utility.yul\":2717:2834   */\n    tag_483:\n        /* \"#utility.yul\":2866:2971   */\n      tag_485\n        /* \"#utility.yul\":2963:2970   */\n      dup10\n        /* \"#utility.yul\":2954:2960   */\n      dup3\n        /* \"#utility.yul\":2943:2952   */\n      dup11\n        /* \"#utility.yul\":2939:2961   */\n      add\n        /* \"#utility.yul\":2866:2971   */\n      tag_406\n      jump\t// in\n    tag_485:\n        /* \"#utility.yul\":2848:2971   */\n      swap3\n      pop\n      swap3\n      pop\n        /* \"#utility.yul\":2642:2981   */\n      pop\n        /* \"#utility.yul\":1595:2988   */\n      swap3\n      swap6\n      pop\n      swap3\n      swap6\n      pop\n      swap3\n      swap6\n      jump\t// out\n        /* \"#utility.yul\":2994:3071   */\n    tag_407:\n        /* \"#utility.yul\":3031:3038   */\n      0x00\n        /* \"#utility.yul\":3060:3065   */\n      dup2\n        /* \"#utility.yul\":3049:3065   */\n      swap1\n      pop\n        /* \"#utility.yul\":2994:3071   */\n      swap2\n      swap1\n      pop\n      jump\t// out\n        /* \"#utility.yul\":3077:3199   */\n    tag_408:\n        /* \"#utility.yul\":3150:3174   */\n      tag_488\n        /* \"#utility.yul\":3168:3173   */\n      dup2\n        /* \"#utility.yul\":3150:3174   */\n      tag_407\n      jump\t// in\n    tag_488:\n        /* \"#utility.yul\":3143:3148   */\n      dup2\n        /* \"#utility.yul\":3140:3175   */\n      eq\n        /* \"#utility.yul\":3130:3193   */\n      tag_489\n      jumpi\n        /* \"#utility.yul\":3189:3190   */\n      0x00\n        /* \"#utility.yul\":3186:3187   */\n      dup1\n        /* \"#utility.yul\":3179:3191   */\n      revert\n        /* \"#utility.yul\":3130:3193   */\n    tag_489:\n        /* \"#utility.yul\":3077:3199   */\n      pop\n      jump\t// out\n        /* \"#utility.yul\":3205:3344   */\n    tag_409:\n        /* \"#utility.yul\":3251:3256   */\n      0x00\n        /* \"#utility.yul\":3289:3295   */\n      dup2\n        /* \"#utility.yul\":3276:3296   */\n      calldataload\n        /* \"#utility.yul\":3267:3296   */\n      swap1\n      pop\n        /* \"#utility.yul\":3305:3338   */\n      tag_491\n        /* \"#utility.yul\":3332:3337   */\n      dup2\n        /* \"#utility.yul\":3305:3338   */\n      tag_408\n      jump\t// in\n    tag_491:\n        /* \"#utility.yul\":3205:3344   */\n      swap3\n      swap2\n      pop\n      pop\n      jump\t// out\n        /* \"#utility.yul\":3350:3679   */\n    tag_29:\n        /* \"#utility.yul\":3409:3415   */\n      0x00\n        /* \"#utility.yul\":3458:3460   */\n      0x20\n        /* \"#utility.yul\":3446:3455   */\n      dup3\n        /* \"#utility.yul\":3437:3444   */\n      dup5\n        /* \"#utility.yul\":3433:3456   */\n      sub\n        /* \"#utility.yul\":3429:3461   */\n      slt\n        /* \"#utility.yul\":3426:3545   */\n      iszero\n      tag_493\n      jumpi\n        /* \"#utility.yul\":3464:3543   */\n      tag_494\n      tag_400\n      jump\t// in\n    tag_494:\n        /* \"#utility.yul\":3426:3545   */\n    tag_493:\n        /* \"#utility.yul\":3584:3585   */\n      0x00\n        /* \"#utility.yul\":3609:3662   */\n      tag_495\n        /* \"#utility.yul\":3654:3661   */\n      dup5\n        /* \"#utility.yul\":3645:3651   */\n      dup3\n        /* \"#utility.yul\":3634:3643   */\n      dup6\n        /* \"#utility.yul\":3630:3652   */\n      add\n        /* \"#utility.yul\":3609:3662   */\n      tag_409\n      jump\t// in\n    tag_495:\n        /* \"#utility.yul\":3599:3662   */\n      swap2\n      pop\n        /* \"#utility.yul\":3555:3672   */\n      pop\n        /* \"#utility.yul\":3350:3679   */\n      swap3\n      swap2\n      pop\n      pop\n      jump\t// out\n        /* \"#utility.yul\":3685:3803   */\n    tag_410:\n        /* \"#utility.yul\":3772:3796   */\n      tag_497\n        /* \"#utility.yul\":3790:3795   */\n      dup2\n        /* \"#utility.yul\":3772:3796   */\n      tag_407\n      jump\t// in\n    tag_497:\n        /* \"#utility.yul\":3767:3770   */\n      dup3\n        /* \"#utility.yul\":3760:3797   */\n      mstore\n        /* \"#utility.yul\":3685:3803   */\n      pop\n      pop\n      jump\t// out\n        /* \"#utility.yul\":3809:4031   */\n    tag_32:\n        /* \"#utility.yul\":3902:3906   */\n      0x00\n        /* \"#utility.yul\":3940:3942   */\n      0x20\n        /* \"#utility.yul\":3929:3938   */\n      dup3\n        /* \"#utility.yul\":3925:3943   */\n      add\n        /* \"#utility.yul\":3917:3943   */\n      swap1\n      pop\n        /* \"#utility.yul\":3953:4024   */\n      tag_499\n        /* \"#utility.yul\":4021:4022   */\n      0x00\n        /* \"#utility.yul\":4010:4019   */\n      dup4\n        /* \"#utility.yul\":4006:4023   */\n      add\n        /* \"#utility.yul\":3997:4003   */\n      dup5\n        /* \"#utility.yul\":3953:4024   */\n      tag_410\n      jump\t// in\n    tag_499:\n        /* \"#utility.yul\":3809:4031   */\n      swap3\n      swap2\n      pop\n      pop\n      jump\t// out\n        /* \"#utility.yul\":4055:4304   */\n    tag_411:\n        /* \"#utility.yul\":4126:4134   */\n      0x00\n        /* \"#utility.yul\":4157:4163   */\n      dup2\n        /* \"#utility.yul\":4145:4163   */\n      swap1\n      pop\n        /* \"#utility.yul\":4210:4213   */\n      dup3\n        /* \"#utility.yul\":4202:4206   */\n      0x20\n        /* \"#utility.yul\":4196:4200   */\n      0x08\n        /* \"#utility.yul\":4192:4207   */\n      mul\n        /* \"#utility.yul\":4182:4190   */\n      dup3\n        /* \"#utility.yul\":4178:4208   */\n      add\n        /* \"#utility.yul\":4175:4214   */\n      gt\n        /* \"#utility.yul\":4172:4298   */\n      iszero\n      tag_501\n      jumpi\n        /* \"#utility.yul\":4217:4296   */\n      tag_502\n      tag_402\n      jump\t// in\n    tag_502:\n        /* \"#utility.yul\":4172:4298   */\n    tag_501:\n        /* \"#utility.yul\":4055:4304   */\n      swap3\n      swap2\n      pop\n      pop\n      jump\t// out\n        /* \"#utility.yul\":4328:4577   */\n    tag_412:\n        /* \"#utility.yul\":4399:4407   */\n      0x00\n        /* \"#utility.yul\":4430:4436   */\n      dup2\n        /* \"#utility.yul\":4418:4436   */\n      swap1\n      pop\n        /* \"#utility.yul\":4483:4486   */\n      dup3\n        /* \"#utility.yul\":4475:4479   */\n      0x20\n        /* \"#utility.yul\":4469:4473   */\n      0x01\n        /* \"#utility.yul\":4465:4480   */\n      mul\n        /* \"#utility.yul\":4455:4463   */\n      dup3\n        /* \"#utility.yul\":4451:4481   */\n      add\n        /* \"#utility.yul\":4448:4487   */\n      gt\n        /* \"#utility.yul\":4445:4571   */\n      iszero\n      tag_504\n      jumpi\n        /* \"#utility.yul\":4490:4569   */\n      tag_505\n      tag_402\n      jump\t// in\n    tag_505:\n        /* \"#utility.yul\":4445:4571   */\n    tag_504:\n        /* \"#utility.yul\":4328:4577   */\n      swap3\n      swap2\n      pop\n      pop\n      jump\t// out\n        /* \"#utility.yul\":4583:5159   */\n    tag_35:\n        /* \"#utility.yul\":4701:4707   */\n      0x00\n        /* \"#utility.yul\":4709:4715   */\n      dup1\n        /* \"#utility.yul\":4758:4761   */\n      0x0120\n        /* \"#utility.yul\":4746:4755   */\n      dup4\n        /* \"#utility.yul\":4737:4744   */\n      dup6\n        /* \"#utility.yul\":4733:4756   */\n      sub\n        /* \"#utility.yul\":4729:4762   */\n      slt\n        /* \"#utility.yul\":4726:4846   */\n      iszero\n      tag_507\n      jumpi\n        /* \"#utility.yul\":4765:4844   */\n      tag_508\n      tag_400\n      jump\t// in\n    tag_508:\n        /* \"#utility.yul\":4726:4846   */\n    tag_507:\n        /* \"#utility.yul\":4885:4886   */\n      0x00\n        /* \"#utility.yul\":4910:4988   */\n      tag_509\n        /* \"#utility.yul\":4980:4987   */\n      dup6\n        /* \"#utility.yul\":4971:4977   */\n      dup3\n        /* \"#utility.yul\":4960:4969   */\n      dup7\n        /* \"#utility.yul\":4956:4978   */\n      add\n        /* \"#utility.yul\":4910:4988   */\n      tag_411\n      jump\t// in\n    tag_509:\n        /* \"#utility.yul\":4900:4988   */\n      swap3\n      pop\n        /* \"#utility.yul\":4856:4998   */\n      pop\n        /* \"#utility.yul\":5037:5040   */\n      0x0100\n        /* \"#utility.yul\":5064:5142   */\n      tag_510\n        /* \"#utility.yul\":5134:5141   */\n      dup6\n        /* \"#utility.yul\":5125:5131   */\n      dup3\n        /* \"#utility.yul\":5114:5123   */\n      dup7\n        /* \"#utility.yul\":5110:5132   */\n      add\n        /* \"#utility.yul\":5064:5142   */\n      tag_412\n      jump\t// in\n    tag_510:\n        /* \"#utility.yul\":5054:5142   */\n      swap2\n      pop\n        /* \"#utility.yul\":5008:5152   */\n      pop\n        /* \"#utility.yul\":4583:5159   */\n      swap3\n      pop\n      swap3\n      swap1\n      pop\n      jump\t// out\n        /* \"#utility.yul\":5165:5255   */\n    tag_413:\n        /* \"#utility.yul\":5199:5206   */\n      0x00\n        /* \"#utility.yul\":5242:5247   */\n      dup2\n        /* \"#utility.yul\":5235:5248   */\n      iszero\n        /* \"#utility.yul\":5228:5249   */\n      iszero\n        /* \"#utility.yul\":5217:5249   */\n      swap1\n      pop\n        /* \"#utility.yul\":5165:5255   */\n      swap2\n      swap1\n      pop\n      jump\t// out\n        /* \"#utility.yul\":5261:5370   */\n    tag_414:\n        /* \"#utility.yul\":5342:5363   */\n      tag_513\n        /* \"#utility.yul\":5357:5362   */\n      dup2\n        /* \"#utility.yul\":5342:5363   */\n      tag_413\n      jump\t// in\n    tag_513:\n        /* \"#utility.yul\":5337:5340   */\n      dup3\n        /* \"#utility.yul\":5330:5364   */\n      mstore\n        /* \"#utility.yul\":5261:5370   */\n      pop\n      pop\n      jump\t// out\n        /* \"#utility.yul\":5376:5586   */\n    tag_38:\n        /* \"#utility.yul\":5463:5467   */\n      0x00\n        /* \"#utility.yul\":5501:5503   */\n      0x20\n        /* \"#utility.yul\":5490:5499   */\n      dup3\n        /* \"#utility.yul\":5486:5504   */\n      add\n        /* \"#utility.yul\":5478:5504   */\n      swap1\n      pop\n        /* \"#utility.yul\":5514:5579   */\n      tag_515\n        /* \"#utility.yul\":5576:5577   */\n      0x00\n        /* \"#utility.yul\":5565:5574   */\n      dup4\n        /* \"#utility.yul\":5561:5578   */\n      add\n        /* \"#utility.yul\":5552:5558   */\n      dup5\n        /* \"#utility.yul\":5514:5579   */\n      tag_414\n      jump\t// in\n    tag_515:\n        /* \"#utility.yul\":5376:5586   */\n      swap3\n      swap2\n      pop\n      pop\n      jump\t// out\n        /* \"#utility.yul\":5592:5669   */\n    tag_415:\n        /* \"#utility.yul\":5629:5636   */\n      0x00\n        /* \"#utility.yul\":5658:5663   */\n      dup2\n        /* \"#utility.yul\":5647:5663   */\n      swap1\n      pop\n        /* \"#utility.yul\":5592:5669   */\n      swap2\n      swap1\n      pop\n      jump\t// out\n        /* \"#utility.yul\":5675:5797   */\n    tag_416:\n        /* \"#utility.yul\":5748:5772   */\n      tag_518\n        /* \"#utility.yul\":5766:5771   */\n      dup2\n        /* \"#utility.yul\":5748:5772   */\n      tag_415\n      jump\t// in\n    tag_518:\n        /* \"#utility.yul\":5741:5746   */\n      dup2\n        /* \"#utility.yul\":5738:5773   */\n      eq\n        /* \"#utility.yul\":5728:5791   */\n      tag_519\n      jumpi\n        /* \"#utility.yul\":5787:5788   */\n      0x00\n        /* \"#utility.yul\":5784:5785   */\n      dup1\n        /* \"#utility.yul\":5777:5789   */\n      revert\n        /* \"#utility.yul\":5728:5791   */\n    tag_519:\n        /* \"#utility.yul\":5675:5797   */\n      pop\n      jump\t// out\n        /* \"#utility.yul\":5803:5942   */\n    tag_417:\n        /* \"#utility.yul\":5849:5854   */\n      0x00\n        /* \"#utility.yul\":5887:5893   */\n      dup2\n        /* \"#utility.yul\":5874:5894   */\n      calldataload\n        /* \"#utility.yul\":5865:5894   */\n      swap1\n      pop\n        /* \"#utility.yul\":5903:5936   */\n      tag_521\n        /* \"#utility.yul\":5930:5935   */\n      dup2\n        /* \"#utility.yul\":5903:5936   */\n      tag_416\n      jump\t// in\n    tag_521:\n        /* \"#utility.yul\":5803:5942   */\n      swap3\n      swap2\n      pop\n      pop\n      jump\t// out\n        /* \"#utility.yul\":5948:6277   */\n    tag_52:\n        /* \"#utility.yul\":6007:6013   */\n      0x00\n        /* \"#utility.yul\":6056:6058   */\n      0x20\n        /* \"#utility.yul\":6044:6053   */\n      dup3\n        /* \"#utility.yul\":6035:6042   */\n      dup5\n        /* \"#utility.yul\":6031:6054   */\n      sub\n        /* \"#utility.yul\":6027:6059   */\n      slt\n        /* \"#utility.yul\":6024:6143   */\n      iszero\n      tag_523\n      jumpi\n        /* \"#utility.yul\":6062:6141   */\n      tag_524\n      tag_400\n      jump\t// in\n    tag_524:\n        /* \"#utility.yul\":6024:6143   */\n    tag_523:\n        /* \"#utility.yul\":6182:6183   */\n      0x00\n        /* \"#utility.yul\":6207:6260   */\n      tag_525\n        /* \"#utility.yul\":6252:6259   */\n      dup5\n        /* \"#utility.yul\":6243:6249   */\n      dup3\n        /* \"#utility.yul\":6232:6241   */\n      dup6\n        /* \"#utility.yul\":6228:6250   */\n      add\n        /* \"#utility.yul\":6207:6260   */\n      tag_417\n      jump\t// in\n    tag_525:\n        /* \"#utility.yul\":6197:6260   */\n      swap2\n      pop\n        /* \"#utility.yul\":6153:6270   */\n      pop\n        /* \"#utility.yul\":5948:6277   */\n      swap3\n      swap2\n      pop\n      pop\n      jump\t// out\n        /* \"#utility.yul\":6283:6401   */\n    tag_418:\n        /* \"#utility.yul\":6370:6394   */\n      tag_527\n        /* \"#utility.yul\":6388:6393   */\n      dup2\n        /* \"#utility.yul\":6370:6394   */\n      tag_415\n      jump\t// in\n    tag_527:\n        /* \"#utility.yul\":6365:6368   */\n      dup3\n        /* \"#utility.yul\":6358:6395   */\n      mstore\n        /* \"#utility.yul\":6283:6401   */\n      pop\n      pop\n      jump\t// out\n        /* \"#utility.yul\":6407:6948   */\n    tag_55:\n        /* \"#utility.yul\":6578:6582   */\n      0x00\n        /* \"#utility.yul\":6616:6619   */\n      0x80\n        /* \"#utility.yul\":6605:6614   */\n      dup3\n        /* \"#utility.yul\":6601:6620   */\n      add\n        /* \"#utility.yul\":6593:6620   */\n      swap1\n      pop\n        /* \"#utility.yul\":6630:6701   */\n      tag_529\n        /* \"#utility.yul\":6698:6699   */\n      0x00\n        /* \"#utility.yul\":6687:6696   */\n      dup4\n        /* \"#utility.yul\":6683:6700   */\n      add\n        /* \"#utility.yul\":6674:6680   */\n      dup8\n        /* \"#utility.yul\":6630:6701   */\n      tag_418\n      jump\t// in\n    tag_529:\n        /* \"#utility.yul\":6711:6783   */\n      tag_530\n        /* \"#utility.yul\":6779:6781   */\n      0x20\n        /* \"#utility.yul\":6768:6777   */\n      dup4\n        /* \"#utility.yul\":6764:6782   */\n      add\n        /* \"#utility.yul\":6755:6761   */\n      dup7\n        /* \"#utility.yul\":6711:6783   */\n      tag_418\n      jump\t// in\n    tag_530:\n        /* \"#utility.yul\":6793:6865   */\n      tag_531\n        /* \"#utility.yul\":6861:6863   */\n      0x40\n        /* \"#utility.yul\":6850:6859   */\n      dup4\n        /* \"#utility.yul\":6846:6864   */\n      add\n        /* \"#utility.yul\":6837:6843   */\n      dup6\n        /* \"#utility.yul\":6793:6865   */\n      tag_410\n      jump\t// in\n    tag_531:\n        /* \"#utility.yul\":6875:6941   */\n      tag_532\n        /* \"#utility.yul\":6937:6939   */\n      0x60\n        /* \"#utility.yul\":6926:6935   */\n      dup4\n        /* \"#utility.yul\":6922:6940   */\n      add\n        /* \"#utility.yul\":6913:6919   */\n      dup5\n        /* \"#utility.yul\":6875:6941   */\n      tag_414\n      jump\t// in\n    tag_532:\n        /* \"#utility.yul\":6407:6948   */\n      swap6\n      swap5\n      pop\n      pop\n      pop\n      pop\n      pop\n      jump\t// out\n        /* \"#utility.yul\":6954:7080   */\n    tag_419:\n        /* \"#utility.yul\":6991:6998   */\n      0x00\n        /* \"#utility.yul\":7031:7073   */\n      0xffffffffffffffffffffffffffffffffffffffff\n        /* \"#utility.yul\":7024:7029   */\n      dup3\n        /* \"#utility.yul\":7020:7074   */\n      and\n        /* \"#utility.yul\":7009:7074   */\n      swap1\n      pop\n        /* \"#utility.yul\":6954:7080   */\n      swap2\n      swap1\n      pop\n      jump\t// out\n        /* \"#utility.yul\":7086:7182   */\n    tag_420:\n        /* \"#utility.yul\":7123:7130   */\n      0x00\n        /* \"#utility.yul\":7152:7176   */\n      tag_535\n        /* \"#utility.yul\":7170:7175   */\n      dup3\n        /* \"#utility.yul\":7152:7176   */\n      tag_419\n      jump\t// in\n    tag_535:\n        /* \"#utility.yul\":7141:7176   */\n      swap1\n      pop\n        /* \"#utility.yul\":7086:7182   */\n      swap2\n      swap1\n      pop\n      jump\t// out\n        /* \"#utility.yul\":7188:7310   */\n    tag_421:\n        /* \"#utility.yul\":7261:7285   */\n      tag_537\n        /* \"#utility.yul\":7279:7284   */\n      dup2\n        /* \"#utility.yul\":7261:7285   */\n      tag_420\n      jump\t// in\n    tag_537:\n        /* \"#utility.yul\":7254:7259   */\n      dup2\n        /* \"#utility.yul\":7251:7286   */\n      eq\n        /* \"#utility.yul\":7241:7304   */\n      tag_538\n      jumpi\n        /* \"#utility.yul\":7300:7301   */\n      0x00\n        /* \"#utility.yul\":7297:7298   */\n      dup1\n        /* \"#utility.yul\":7290:7302   */\n      revert\n        /* \"#utility.yul\":7241:7304   */\n    tag_538:\n        /* \"#utility.yul\":7188:7310   */\n      pop\n      jump\t// out\n        /* \"#utility.yul\":7316:7455   */\n    tag_422:\n        /* \"#utility.yul\":7362:7367   */\n      0x00\n        /* \"#utility.yul\":7400:7406   */\n      dup2\n        /* \"#utility.yul\":7387:7407   */\n      calldataload\n        /* \"#utility.yul\":7378:7407   */\n      swap1\n      pop\n        /* \"#utility.yul\":7416:7449   */\n      tag_540\n        /* \"#utility.yul\":7443:7448   */\n      dup2\n        /* \"#utility.yul\":7416:7449   */\n      tag_421\n      jump\t// in\n    tag_540:\n        /* \"#utility.yul\":7316:7455   */\n      swap3\n      swap2\n      pop\n      pop\n      jump\t// out\n        /* \"#utility.yul\":7474:8026   */\n    tag_423:\n        /* \"#utility.yul\":7531:7539   */\n      0x00\n        /* \"#utility.yul\":7541:7547   */\n      dup1\n        /* \"#utility.yul\":7591:7594   */\n      dup4\n        /* \"#utility.yul\":7584:7588   */\n      0x1f\n        /* \"#utility.yul\":7576:7582   */\n      dup5\n        /* \"#utility.yul\":7572:7589   */\n      add\n        /* \"#utility.yul\":7568:7595   */\n      slt\n        /* \"#utility.yul\":7558:7680   */\n      tag_542\n      jumpi\n        /* \"#utility.yul\":7599:7678   */\n      tag_543\n      tag_404\n      jump\t// in\n    tag_543:\n        /* \"#utility.yul\":7558:7680   */\n    tag_542:\n        /* \"#utility.yul\":7712:7718   */\n      dup3\n        /* \"#utility.yul\":7699:7719   */\n      calldataload\n        /* \"#utility.yul\":7689:7719   */\n      swap1\n      pop\n        /* \"#utility.yul\":7742:7760   */\n      0xffffffffffffffff\n        /* \"#utility.yul\":7734:7740   */\n      dup2\n        /* \"#utility.yul\":7731:7761   */\n      gt\n        /* \"#utility.yul\":7728:7845   */\n      iszero\n      tag_544\n      jumpi\n        /* \"#utility.yul\":7764:7843   */\n      tag_545\n      tag_405\n      jump\t// in\n    tag_545:\n        /* \"#utility.yul\":7728:7845   */\n    tag_544:\n        /* \"#utility.yul\":7878:7882   */\n      0x20\n        /* \"#utility.yul\":7870:7876   */\n      dup4\n        /* \"#utility.yul\":7866:7883   */\n      add\n        /* \"#utility.yul\":7854:7883   */\n      swap2\n      pop\n        /* \"#utility.yul\":7932:7935   */\n      dup4\n        /* \"#utility.yul\":7924:7928   */\n      0x01\n        /* \"#utility.yul\":7916:7922   */\n      dup3\n        /* \"#utility.yul\":7912:7929   */\n      mul\n        /* \"#utility.yul\":7902:7910   */\n      dup4\n        /* \"#utility.yul\":7898:7930   */\n      add\n        /* \"#utility.yul\":7895:7936   */\n      gt\n        /* \"#utility.yul\":7892:8020   */\n      iszero\n      tag_546\n      jumpi\n        /* \"#utility.yul\":7939:8018   */\n      tag_547\n      tag_402\n      jump\t// in\n    tag_547:\n        /* \"#utility.yul\":7892:8020   */\n    tag_546:\n        /* \"#utility.yul\":7474:8026   */\n      swap3\n      pop\n      swap3\n      swap1\n      pop\n      jump\t// out\n        /* \"#utility.yul\":8032:9141   */\n    tag_58:\n        /* \"#utility.yul\":8138:8144   */\n      0x00\n        /* \"#utility.yul\":8146:8152   */\n      dup1\n        /* \"#utility.yul\":8154:8160   */\n      0x00\n        /* \"#utility.yul\":8162:8168   */\n      dup1\n        /* \"#utility.yul\":8170:8176   */\n      0x00\n        /* \"#utility.yul\":8178:8184   */\n      dup1\n        /* \"#utility.yul\":8227:8230   */\n      0xa0\n        /* \"#utility.yul\":8215:8224   */\n      dup8\n        /* \"#utility.yul\":8206:8213   */\n      dup10\n        /* \"#utility.yul\":8202:8225   */\n      sub\n        /* \"#utility.yul\":8198:8231   */\n      slt\n        /* \"#utility.yul\":8195:8315   */\n      iszero\n      tag_549\n      jumpi\n        /* \"#utility.yul\":8234:8313   */\n      tag_550\n      tag_400\n      jump\t// in\n    tag_550:\n        /* \"#utility.yul\":8195:8315   */\n    tag_549:\n        /* \"#utility.yul\":8354:8355   */\n      0x00\n        /* \"#utility.yul\":8379:8432   */\n      tag_551\n        /* \"#utility.yul\":8424:8431   */\n      dup10\n        /* \"#utility.yul\":8415:8421   */\n      dup3\n        /* \"#utility.yul\":8404:8413   */\n      dup11\n        /* \"#utility.yul\":8400:8422   */\n      add\n        /* \"#utility.yul\":8379:8432   */\n      tag_417\n      jump\t// in\n    tag_551:\n        /* \"#utility.yul\":8369:8432   */\n      swap7\n      pop\n        /* \"#utility.yul\":8325:8442   */\n      pop\n        /* \"#utility.yul\":8481:8483   */\n      0x20\n        /* \"#utility.yul\":8507:8560   */\n      tag_552\n        /* \"#utility.yul\":8552:8559   */\n      dup10\n        /* \"#utility.yul\":8543:8549   */\n      dup3\n        /* \"#utility.yul\":8532:8541   */\n      dup11\n        /* \"#utility.yul\":8528:8550   */\n      add\n        /* \"#utility.yul\":8507:8560   */\n      tag_417\n      jump\t// in\n    tag_552:\n        /* \"#utility.yul\":8497:8560   */\n      swap6\n      pop\n        /* \"#utility.yul\":8452:8570   */\n      pop\n        /* \"#utility.yul\":8609:8611   */\n      0x40\n        /* \"#utility.yul\":8635:8688   */\n      tag_553\n        /* \"#utility.yul\":8680:8687   */\n      dup10\n        /* \"#utility.yul\":8671:8677   */\n      dup3\n        /* \"#utility.yul\":8660:8669   */\n      dup11\n        /* \"#utility.yul\":8656:8678   */\n      add\n        /* \"#utility.yul\":8635:8688   */\n      tag_422\n      jump\t// in\n    tag_553:\n        /* \"#utility.yul\":8625:8688   */\n      swap5\n      pop\n        /* \"#utility.yul\":8580:8698   */\n      pop\n        /* \"#utility.yul\":8737:8739   */\n      0x60\n        /* \"#utility.yul\":8763:8816   */\n      tag_554\n        /* \"#utility.yul\":8808:8815   */\n      dup10\n        /* \"#utility.yul\":8799:8805   */\n      dup3\n        /* \"#utility.yul\":8788:8797   */\n      dup11\n        /* \"#utility.yul\":8784:8806   */\n      add\n        /* \"#utility.yul\":8763:8816   */\n      tag_422\n      jump\t// in\n    tag_554:\n        /* \"#utility.yul\":8753:8816   */\n      swap4\n      pop\n        /* \"#utility.yul\":8708:8826   */\n      pop\n        /* \"#utility.yul\":8893:8896   */\n      0x80\n        /* \"#utility.yul\":8882:8891   */\n      dup8\n        /* \"#utility.yul\":8878:8897   */\n      add\n        /* \"#utility.yul\":8865:8898   */\n      calldataload\n        /* \"#utility.yul\":8925:8943   */\n      0xffffffffffffffff\n        /* \"#utility.yul\":8917:8923   */\n      dup2\n        /* \"#utility.yul\":8914:8944   */\n      gt\n        /* \"#utility.yul\":8911:9028   */\n      iszero\n      tag_555\n      jumpi\n        /* \"#utility.yul\":8947:9026   */\n      tag_556\n      tag_401\n      jump\t// in\n    tag_556:\n        /* \"#utility.yul\":8911:9028   */\n    tag_555:\n        /* \"#utility.yul\":9060:9124   */\n      tag_557\n        /* \"#utility.yul\":9116:9123   */\n      dup10\n        /* \"#utility.yul\":9107:9113   */\n      dup3\n        /* \"#utility.yul\":9096:9105   */\n      dup11\n        /* \"#utility.yul\":9092:9114   */\n      add\n        /* \"#utility.yul\":9060:9124   */\n      tag_423\n      jump\t// in\n    tag_557:\n        /* \"#utility.yul\":9042:9124   */\n      swap3\n      pop\n      swap3\n      pop\n        /* \"#utility.yul\":8836:9134   */\n      pop\n        /* \"#utility.yul\":8032:9141   */\n      swap3\n      swap6\n      pop\n      swap3\n      swap6\n      pop\n      swap3\n      swap6\n      jump\t// out\n        /* \"#utility.yul\":9147:9265   */\n    tag_424:\n        /* \"#utility.yul\":9234:9258   */\n      tag_559\n        /* \"#utility.yul\":9252:9257   */\n      dup2\n        /* \"#utility.yul\":9234:9258   */\n      tag_420\n      jump\t// in\n    tag_559:\n        /* \"#utility.yul\":9229:9232   */\n      dup3\n        /* \"#utility.yul\":9222:9259   */\n      mstore\n        /* \"#utility.yul\":9147:9265   */\n      pop\n      pop\n      jump\t// out\n        /* \"#utility.yul\":9271:9493   */\n    tag_77:\n        /* \"#utility.yul\":9364:9368   */\n      0x00\n        /* \"#utility.yul\":9402:9404   */\n      0x20\n        /* \"#utility.yul\":9391:9400   */\n      dup3\n        /* \"#utility.yul\":9387:9405   */\n      add\n        /* \"#utility.yul\":9379:9405   */\n      swap1\n      pop\n        /* \"#utility.yul\":9415:9486   */\n      tag_561\n        /* \"#utility.yul\":9483:9484   */\n      0x00\n        /* \"#utility.yul\":9472:9481   */\n      dup4\n        /* \"#utility.yul\":9468:9485   */\n      add\n        /* \"#utility.yul\":9459:9465   */\n      dup5\n        /* \"#utility.yul\":9415:9486   */\n      tag_424\n      jump\t// in\n    tag_561:\n        /* \"#utility.yul\":9271:9493   */\n      swap3\n      swap2\n      pop\n      pop\n      jump\t// out\n        /* \"#utility.yul\":9499:9828   */\n    tag_80:\n        /* \"#utility.yul\":9558:9564   */\n      0x00\n        /* \"#utility.yul\":9607:9609   */\n      0x20\n        /* \"#utility.yul\":9595:9604   */\n      dup3\n        /* \"#utility.yul\":9586:9593   */\n      dup5\n        /* \"#utility.yul\":9582:9605   */\n      sub\n        /* \"#utility.yul\":9578:9610   */\n      slt\n        /* \"#utility.yul\":9575:9694   */\n      iszero\n      tag_563\n      jumpi\n        /* \"#utility.yul\":9613:9692   */\n      tag_564\n      tag_400\n      jump\t// in\n    tag_564:\n        /* \"#utility.yul\":9575:9694   */\n    tag_563:\n        /* \"#utility.yul\":9733:9734   */\n      0x00\n        /* \"#utility.yul\":9758:9811   */\n      tag_565\n        /* \"#utility.yul\":9803:9810   */\n      dup5\n        /* \"#utility.yul\":9794:9800   */\n      dup3\n        /* \"#utility.yul\":9783:9792   */\n      dup6\n        /* \"#utility.yul\":9779:9801   */\n      add\n        /* \"#utility.yul\":9758:9811   */\n      tag_422\n      jump\t// in\n    tag_565:\n        /* \"#utility.yul\":9748:9811   */\n      swap2\n      pop\n        /* \"#utility.yul\":9704:9821   */\n      pop\n        /* \"#utility.yul\":9499:9828   */\n      swap3\n      swap2\n      pop\n      pop\n      jump\t// out\n        /* \"#utility.yul\":9834:10308   */\n    tag_84:\n        /* \"#utility.yul\":9902:9908   */\n      0x00\n        /* \"#utility.yul\":9910:9916   */\n      dup1\n        /* \"#utility.yul\":9959:9961   */\n      0x40\n        /* \"#utility.yul\":9947:9956   */\n      dup4\n        /* \"#utility.yul\":9938:9945   */\n      dup6\n        /* \"#utility.yul\":9934:9957   */\n      sub\n        /* \"#utility.yul\":9930:9962   */\n      slt\n        /* \"#utility.yul\":9927:10046   */\n      iszero\n      tag_567\n      jumpi\n        /* \"#utility.yul\":9965:10044   */\n      tag_568\n      tag_400\n      jump\t// in\n    tag_568:\n        /* \"#utility.yul\":9927:10046   */\n    tag_567:\n        /* \"#utility.yul\":10085:10086   */\n      0x00\n        /* \"#utility.yul\":10110:10163   */\n      tag_569\n        /* \"#utility.yul\":10155:10162   */\n      dup6\n        /* \"#utility.yul\":10146:10152   */\n      dup3\n        /* \"#utility.yul\":10135:10144   */\n      dup7\n        /* \"#utility.yul\":10131:10153   */\n      add\n        /* \"#utility.yul\":10110:10163   */\n      tag_409\n      jump\t// in\n    tag_569:\n        /* \"#utility.yul\":10100:10163   */\n      swap3\n      pop\n        /* \"#utility.yul\":10056:10173   */\n      pop\n        /* \"#utility.yul\":10212:10214   */\n      0x20\n        /* \"#utility.yul\":10238:10291   */\n      tag_570\n        /* \"#utility.yul\":10283:10290   */\n      dup6\n        /* \"#utility.yul\":10274:10280   */\n      dup3\n        /* \"#utility.yul\":10263:10272   */\n      dup7\n        /* \"#utility.yul\":10259:10281   */\n      add\n        /* \"#utility.yul\":10238:10291   */\n      tag_409\n      jump\t// in\n    tag_570:\n        /* \"#utility.yul\":10228:10291   */\n      swap2\n      pop\n        /* \"#utility.yul\":10183:10301   */\n      pop\n        /* \"#utility.yul\":9834:10308   */\n      swap3\n      pop\n      swap3\n      swap1\n      pop\n      jump\t// out\n        /* \"#utility.yul\":10314:10483   */\n    tag_425:\n        /* \"#utility.yul\":10398:10409   */\n      0x00\n        /* \"#utility.yul\":10432:10438   */\n      dup3\n        /* \"#utility.yul\":10427:10430   */\n      dup3\n        /* \"#utility.yul\":10420:10439   */\n      mstore\n        /* \"#utility.yul\":10472:10476   */\n      0x20\n        /* \"#utility.yul\":10467:10470   */\n      dup3\n        /* \"#utility.yul\":10463:10477   */\n      add\n        /* \"#utility.yul\":10448:10477   */\n      swap1\n      pop\n        /* \"#utility.yul\":10314:10483   */\n      swap3\n      swap2\n      pop\n      pop\n      jump\t// out\n        /* \"#utility.yul\":10489:10656   */\n    tag_426:\n        /* \"#utility.yul\":10629:10648   */\n      0x496e76616c6964204943206c656e677468000000000000000000000000000000\n        /* \"#utility.yul\":10625:10626   */\n      0x00\n        /* \"#utility.yul\":10617:10623   */\n      dup3\n        /* \"#utility.yul\":10613:10627   */\n      add\n        /* \"#utility.yul\":10606:10649   */\n      mstore\n        /* \"#utility.yul\":10489:10656   */\n      pop\n      jump\t// out\n        /* \"#utility.yul\":10662:11028   */\n    tag_427:\n        /* \"#utility.yul\":10804:10807   */\n      0x00\n        /* \"#utility.yul\":10825:10892   */\n      tag_574\n        /* \"#utility.yul\":10889:10891   */\n      0x11\n        /* \"#utility.yul\":10884:10887   */\n      dup4\n        /* \"#utility.yul\":10825:10892   */\n      tag_425\n      jump\t// in\n    tag_574:\n        /* \"#utility.yul\":10818:10892   */\n      swap2\n      pop\n        /* \"#utility.yul\":10901:10994   */\n      tag_575\n        /* \"#utility.yul\":10990:10993   */\n      dup3\n        /* \"#utility.yul\":10901:10994   */\n      tag_426\n      jump\t// in\n    tag_575:\n        /* \"#utility.yul\":11019:11021   */\n      0x20\n        /* \"#utility.yul\":11014:11017   */\n      dup3\n        /* \"#utility.yul\":11010:11022   */\n      add\n        /* \"#utility.yul\":11003:11022   */\n      swap1\n      pop\n        /* \"#utility.yul\":10662:11028   */\n      swap2\n      swap1\n      pop\n      jump\t// out\n        /* \"#utility.yul\":11034:11453   */\n    tag_97:\n        /* \"#utility.yul\":11200:11204   */\n      0x00\n        /* \"#utility.yul\":11238:11240   */\n      0x20\n        /* \"#utility.yul\":11227:11236   */\n      dup3\n        /* \"#utility.yul\":11223:11241   */\n      add\n        /* \"#utility.yul\":11215:11241   */\n      swap1\n      pop\n        /* \"#utility.yul\":11287:11296   */\n      dup2\n        /* \"#utility.yul\":11281:11285   */\n      dup2\n        /* \"#utility.yul\":11277:11297   */\n      sub\n        /* \"#utility.yul\":11273:11274   */\n      0x00\n        /* \"#utility.yul\":11262:11271   */\n      dup4\n        /* \"#utility.yul\":11258:11275   */\n      add\n        /* \"#utility.yul\":11251:11298   */\n      mstore\n        /* \"#utility.yul\":11315:11446   */\n      tag_577\n        /* \"#utility.yul\":11441:11445   */\n      dup2\n        /* \"#utility.yul\":11315:11446   */\n      tag_427\n      jump\t// in\n    tag_577:\n        /* \"#utility.yul\":11307:11446   */\n      swap1\n      pop\n        /* \"#utility.yul\":11034:11453   */\n      swap2\n      swap1\n      pop\n      jump\t// out\n        /* \"#utility.yul\":11459:11639   */\n    tag_100:\n        /* \"#utility.yul\":11507:11584   */\n      0x4e487b7100000000000000000000000000000000000000000000000000000000\n        /* \"#utility.yul\":11504:11505   */\n      0x00\n        /* \"#utility.yul\":11497:11585   */\n      mstore\n        /* \"#utility.yul\":11604:11608   */\n      0x32\n        /* \"#utility.yul\":11601:11602   */\n      0x04\n        /* \"#utility.yul\":11594:11609   */\n      mstore\n        /* \"#utility.yul\":11628:11632   */\n      0x24\n        /* \"#utility.yul\":11625:11626   */\n      0x00\n        /* \"#utility.yul\":11618:11633   */\n      revert\n        /* \"#utility.yul\":11645:11817   */\n    tag_428:\n        /* \"#utility.yul\":11785:11809   */\n      0x4e756c6c696669657220616c7265616479207573656400000000000000000000\n        /* \"#utility.yul\":11781:11782   */\n      0x00\n        /* \"#utility.yul\":11773:11779   */\n      dup3\n        /* \"#utility.yul\":11769:11783   */\n      add\n        /* \"#utility.yul\":11762:11810   */\n      mstore\n        /* \"#utility.yul\":11645:11817   */\n      pop\n      jump\t// out\n        /* \"#utility.yul\":11823:12189   */\n    tag_429:\n        /* \"#utility.yul\":11965:11968   */\n      0x00\n        /* \"#utility.yul\":11986:12053   */\n      tag_581\n        /* \"#utility.yul\":12050:12052   */\n      0x16\n        /* \"#utility.yul\":12045:12048   */\n      dup4\n        /* \"#utility.yul\":11986:12053   */\n      tag_425\n      jump\t// in\n    tag_581:\n        /* \"#utility.yul\":11979:12053   */\n      swap2\n      pop\n        /* \"#utility.yul\":12062:12155   */\n      tag_582\n        /* \"#utility.yul\":12151:12154   */\n      dup3\n        /* \"#utility.yul\":12062:12155   */\n      tag_428\n      jump\t// in\n    tag_582:\n        /* \"#utility.yul\":12180:12182   */\n      0x20\n        /* \"#utility.yul\":12175:12178   */\n      dup3\n        /* \"#utility.yul\":12171:12183   */\n      add\n        /* \"#utility.yul\":12164:12183   */\n      swap1\n      pop\n        /* \"#utility.yul\":11823:12189   */\n      swap2\n      swap1\n      pop\n      jump\t// out\n        /* \"#utility.yul\":12195:12614   */\n    tag_154:\n        /* \"#utility.yul\":12361:12365   */\n      0x00\n        /* \"#utility.yul\":12399:12401   */\n      0x20\n        /* \"#utility.yul\":12388:12397   */\n      dup3\n        /* \"#utility.yul\":12384:12402   */\n      add\n        /* \"#utility.yul\":12376:12402   */\n      swap1\n      pop\n        /* \"#utility.yul\":12448:12457   */\n      dup2\n        /* \"#utility.yul\":12442:12446   */\n      dup2\n        /* \"#utility.yul\":12438:12458   */\n      sub\n        /* \"#utility.yul\":12434:12435   */\n      0x00\n        /* \"#utility.yul\":12423:12432   */\n      dup4\n        /* \"#utility.yul\":12419:12436   */\n      add\n        /* \"#utility.yul\":12412:12459   */\n      mstore\n        /* \"#utility.yul\":12476:12607   */\n      tag_584\n        /* \"#utility.yul\":12602:12606   */\n      dup2\n        /* \"#utility.yul\":12476:12607   */\n      tag_429\n      jump\t// in\n    tag_584:\n        /* \"#utility.yul\":12468:12607   */\n      swap1\n      pop\n        /* \"#utility.yul\":12195:12614   */\n      swap2\n      swap1\n      pop\n      jump\t// out\n        /* \"#utility.yul\":12620:12722   */\n    tag_430:\n        /* \"#utility.yul\":12661:12667   */\n      0x00\n        /* \"#utility.yul\":12712:12714   */\n      0x1f\n        /* \"#utility.yul\":12708:12715   */\n      not\n        /* \"#utility.yul\":12703:12705   */\n      0x1f\n        /* \"#utility.yul\":12696:12701   */\n      dup4\n        /* \"#utility.yul\":12692:12706   */\n      add\n        /* \"#utility.yul\":12688:12716   */\n      and\n        /* \"#utility.yul\":12678:12716   */\n      swap1\n      pop\n        /* \"#utility.yul\":12620:12722   */\n      swap2\n      swap1\n      pop\n      jump\t// out\n        /* \"#utility.yul\":12728:12908   */\n    tag_431:\n        /* \"#utility.yul\":12776:12853   */\n      0x4e487b7100000000000000000000000000000000000000000000000000000000\n        /* \"#utility.yul\":12773:12774   */\n      0x00\n        /* \"#utility.yul\":12766:12854   */\n      mstore\n        /* \"#utility.yul\":12873:12877   */\n      0x41\n        /* \"#utility.yul\":12870:12871   */\n      0x04\n        /* \"#utility.yul\":12863:12878   */\n      mstore\n        /* \"#utility.yul\":12897:12901   */\n      0x24\n        /* \"#utility.yul\":12894:12895   */\n      0x00\n        /* \"#utility.yul\":12887:12902   */\n      revert\n        /* \"#utility.yul\":12914:13195   */\n    tag_432:\n        /* \"#utility.yul\":12997:13024   */\n      tag_588\n        /* \"#utility.yul\":13019:13023   */\n      dup3\n        /* \"#utility.yul\":12997:13024   */\n      tag_430\n      jump\t// in\n    tag_588:\n        /* \"#utility.yul\":12989:12995   */\n      dup2\n        /* \"#utility.yul\":12985:13025   */\n      add\n        /* \"#utility.yul\":13127:13133   */\n      dup2\n        /* \"#utility.yul\":13115:13125   */\n      dup2\n        /* \"#utility.yul\":13112:13134   */\n      lt\n        /* \"#utility.yul\":13091:13109   */\n      0xffffffffffffffff\n        /* \"#utility.yul\":13079:13089   */\n      dup3\n        /* \"#utility.yul\":13076:13110   */\n      gt\n        /* \"#utility.yul\":13073:13135   */\n      or\n        /* \"#utility.yul\":13070:13158   */\n      iszero\n      tag_589\n      jumpi\n        /* \"#utility.yul\":13138:13156   */\n      tag_590\n      tag_431\n      jump\t// in\n    tag_590:\n        /* \"#utility.yul\":13070:13158   */\n    tag_589:\n        /* \"#utility.yul\":13178:13188   */\n      dup1\n        /* \"#utility.yul\":13174:13176   */\n      0x40\n        /* \"#utility.yul\":13167:13189   */\n      mstore\n        /* \"#utility.yul\":12957:13195   */\n      pop\n        /* \"#utility.yul\":12914:13195   */\n      pop\n      pop\n      jump\t// out\n        /* \"#utility.yul\":13201:13330   */\n    tag_433:\n        /* \"#utility.yul\":13235:13241   */\n      0x00\n        /* \"#utility.yul\":13262:13282   */\n      tag_592\n      tag_399\n      jump\t// in\n    tag_592:\n        /* \"#utility.yul\":13252:13282   */\n      swap1\n      pop\n        /* \"#utility.yul\":13291:13324   */\n      tag_593\n        /* \"#utility.yul\":13319:13323   */\n      dup3\n        /* \"#utility.yul\":13311:13317   */\n      dup3\n        /* \"#utility.yul\":13291:13324   */\n      tag_432\n      jump\t// in\n    tag_593:\n        /* \"#utility.yul\":13201:13330   */\n      swap2\n      swap1\n      pop\n      jump\t// out\n        /* \"#utility.yul\":13336:13585   */\n    tag_434:\n        /* \"#utility.yul\":13411:13415   */\n      0x00\n        /* \"#utility.yul\":13501:13519   */\n      0xffffffffffffffff\n        /* \"#utility.yul\":13493:13499   */\n      dup3\n        /* \"#utility.yul\":13490:13520   */\n      gt\n        /* \"#utility.yul\":13487:13543   */\n      iszero\n      tag_595\n      jumpi\n        /* \"#utility.yul\":13523:13541   */\n      tag_596\n      tag_431\n      jump\t// in\n    tag_596:\n        /* \"#utility.yul\":13487:13543   */\n    tag_595:\n        /* \"#utility.yul\":13573:13577   */\n      0x20\n        /* \"#utility.yul\":13565:13571   */\n      dup3\n        /* \"#utility.yul\":13561:13578   */\n      mul\n        /* \"#utility.yul\":13553:13578   */\n      swap1\n      pop\n        /* \"#utility.yul\":13336:13585   */\n      swap2\n      swap1\n      pop\n      jump\t// out\n        /* \"#utility.yul\":13609:14252   */\n    tag_435:\n        /* \"#utility.yul\":13703:13708   */\n      0x00\n        /* \"#utility.yul\":13728:13807   */\n      tag_598\n        /* \"#utility.yul\":13744:13806   */\n      tag_599\n        /* \"#utility.yul\":13799:13805   */\n      dup5\n        /* \"#utility.yul\":13744:13806   */\n      tag_434\n      jump\t// in\n    tag_599:\n        /* \"#utility.yul\":13728:13807   */\n      tag_433\n      jump\t// in\n    tag_598:\n        /* \"#utility.yul\":13719:13807   */\n      swap1\n      pop\n        /* \"#utility.yul\":13827:13832   */\n      dup1\n        /* \"#utility.yul\":13880:13884   */\n      0x20\n        /* \"#utility.yul\":13872:13878   */\n      dup5\n        /* \"#utility.yul\":13868:13885   */\n      mul\n        /* \"#utility.yul\":13860:13866   */\n      dup4\n        /* \"#utility.yul\":13856:13886   */\n      add\n        /* \"#utility.yul\":13909:13912   */\n      dup6\n        /* \"#utility.yul\":13901:13907   */\n      dup2\n        /* \"#utility.yul\":13898:13913   */\n      gt\n        /* \"#utility.yul\":13895:14017   */\n      iszero\n      tag_600\n      jumpi\n        /* \"#utility.yul\":13928:14007   */\n      tag_601\n      tag_402\n      jump\t// in\n    tag_601:\n        /* \"#utility.yul\":13895:14017   */\n    tag_600:\n        /* \"#utility.yul\":14043:14049   */\n      dup4\n        /* \"#utility.yul\":14026:14246   */\n    tag_602:\n        /* \"#utility.yul\":14060:14066   */\n      dup2\n        /* \"#utility.yul\":14055:14058   */\n      dup2\n        /* \"#utility.yul\":14052:14067   */\n      lt\n        /* \"#utility.yul\":14026:14246   */\n      iszero\n      tag_604\n      jumpi\n        /* \"#utility.yul\":14135:14138   */\n      dup1\n        /* \"#utility.yul\":14164:14201   */\n      tag_605\n        /* \"#utility.yul\":14197:14200   */\n      dup9\n        /* \"#utility.yul\":14185:14195   */\n      dup3\n        /* \"#utility.yul\":14164:14201   */\n      tag_409\n      jump\t// in\n    tag_605:\n        /* \"#utility.yul\":14159:14162   */\n      dup5\n        /* \"#utility.yul\":14152:14202   */\n      mstore\n        /* \"#utility.yul\":14231:14235   */\n      0x20\n        /* \"#utility.yul\":14226:14229   */\n      dup5\n        /* \"#utility.yul\":14222:14236   */\n      add\n        /* \"#utility.yul\":14215:14236   */\n      swap4\n      pop\n        /* \"#utility.yul\":14102:14246   */\n      pop\n        /* \"#utility.yul\":14086:14090   */\n      0x20\n        /* \"#utility.yul\":14081:14084   */\n      dup2\n        /* \"#utility.yul\":14077:14091   */\n      add\n        /* \"#utility.yul\":14070:14091   */\n      swap1\n      pop\n        /* \"#utility.yul\":14026:14246   */\n      jump(tag_602)\n    tag_604:\n        /* \"#utility.yul\":14030:14051   */\n      pop\n        /* \"#utility.yul\":13709:14252   */\n      pop\n      pop\n        /* \"#utility.yul\":13609:14252   */\n      swap4\n      swap3\n      pop\n      pop\n      pop\n      jump\t// out\n        /* \"#utility.yul\":14276:14615   */\n    tag_436:\n        /* \"#utility.yul\":14345:14350   */\n      0x00\n        /* \"#utility.yul\":14394:14397   */\n      dup3\n        /* \"#utility.yul\":14387:14391   */\n      0x1f\n        /* \"#utility.yul\":14379:14385   */\n      dup4\n        /* \"#utility.yul\":14375:14392   */\n      add\n        /* \"#utility.yul\":14371:14398   */\n      slt\n        /* \"#utility.yul\":14361:14483   */\n      tag_607\n      jumpi\n        /* \"#utility.yul\":14402:14481   */\n      tag_608\n      tag_404\n      jump\t// in\n    tag_608:\n        /* \"#utility.yul\":14361:14483   */\n    tag_607:\n        /* \"#utility.yul\":14506:14510   */\n      0x08\n        /* \"#utility.yul\":14528:14609   */\n      tag_609\n        /* \"#utility.yul\":14605:14608   */\n      dup5\n        /* \"#utility.yul\":14597:14603   */\n      dup3\n        /* \"#utility.yul\":14589:14595   */\n      dup6\n        /* \"#utility.yul\":14528:14609   */\n      tag_435\n      jump\t// in\n    tag_609:\n        /* \"#utility.yul\":14519:14609   */\n      swap2\n      pop\n        /* \"#utility.yul\":14351:14615   */\n      pop\n        /* \"#utility.yul\":14276:14615   */\n      swap3\n      swap2\n      pop\n      pop\n      jump\t// out\n        /* \"#utility.yul\":14621:14997   */\n    tag_156:\n        /* \"#utility.yul\":14703:14709   */\n      0x00\n        /* \"#utility.yul\":14752:14755   */\n      0x0100\n        /* \"#utility.yul\":14740:14749   */\n      dup3\n        /* \"#utility.yul\":14731:14738   */\n      dup5\n        /* \"#utility.yul\":14727:14750   */\n      sub\n        /* \"#utility.yul\":14723:14756   */\n      slt\n        /* \"#utility.yul\":14720:14840   */\n      iszero\n      tag_611\n      jumpi\n        /* \"#utility.yul\":14759:14838   */\n      tag_612\n      tag_400\n      jump\t// in\n    tag_612:\n        /* \"#utility.yul\":14720:14840   */\n    tag_611:\n        /* \"#utility.yul\":14879:14880   */\n      0x00\n        /* \"#utility.yul\":14904:14980   */\n      tag_613\n        /* \"#utility.yul\":14972:14979   */\n      dup5\n        /* \"#utility.yul\":14963:14969   */\n      dup3\n        /* \"#utility.yul\":14952:14961   */\n      dup6\n        /* \"#utility.yul\":14948:14970   */\n      add\n        /* \"#utility.yul\":14904:14980   */\n      tag_436\n      jump\t// in\n    tag_613:\n        /* \"#utility.yul\":14894:14980   */\n      swap2\n      pop\n        /* \"#utility.yul\":14850:14990   */\n      pop\n        /* \"#utility.yul\":14621:14997   */\n      swap3\n      swap2\n      pop\n      pop\n      jump\t// out\n        /* \"#utility.yul\":15003:15107   */\n    tag_437:\n        /* \"#utility.yul\":15068:15074   */\n      0x00\n        /* \"#utility.yul\":15096:15100   */\n      0x08\n        /* \"#utility.yul\":15086:15100   */\n      swap1\n      pop\n        /* \"#utility.yul\":15003:15107   */\n      swap2\n      swap1\n      pop\n      jump\t// out\n        /* \"#utility.yul\":15113:15256   */\n    tag_438:\n        /* \"#utility.yul\":15210:15221   */\n      0x00\n        /* \"#utility.yul\":15247:15250   */\n      dup2\n        /* \"#utility.yul\":15232:15250   */\n      swap1\n      pop\n        /* \"#utility.yul\":15113:15256   */\n      swap3\n      swap2\n      pop\n      pop\n      jump\t// out\n        /* \"#utility.yul\":15262:15360   */\n    tag_439:\n        /* \"#utility.yul\":15327:15331   */\n      0x00\n        /* \"#utility.yul\":15350:15353   */\n      dup2\n        /* \"#utility.yul\":15342:15353   */\n      swap1\n      pop\n        /* \"#utility.yul\":15262:15360   */\n      swap2\n      swap1\n      pop\n      jump\t// out\n        /* \"#utility.yul\":15366:15474   */\n    tag_440:\n        /* \"#utility.yul\":15443:15467   */\n      tag_618\n        /* \"#utility.yul\":15461:15466   */\n      dup2\n        /* \"#utility.yul\":15443:15467   */\n      tag_407\n      jump\t// in\n    tag_618:\n        /* \"#utility.yul\":15438:15441   */\n      dup3\n        /* \"#utility.yul\":15431:15468   */\n      mstore\n        /* \"#utility.yul\":15366:15474   */\n      pop\n      pop\n      jump\t// out\n        /* \"#utility.yul\":15480:15659   */\n    tag_441:\n        /* \"#utility.yul\":15549:15559   */\n      0x00\n        /* \"#utility.yul\":15570:15616   */\n      tag_620\n        /* \"#utility.yul\":15612:15615   */\n      dup4\n        /* \"#utility.yul\":15604:15610   */\n      dup4\n        /* \"#utility.yul\":15570:15616   */\n      tag_440\n      jump\t// in\n    tag_620:\n        /* \"#utility.yul\":15648:15652   */\n      0x20\n        /* \"#utility.yul\":15643:15646   */\n      dup4\n        /* \"#utility.yul\":15639:15653   */\n      add\n        /* \"#utility.yul\":15625:15653   */\n      swap1\n      pop\n        /* \"#utility.yul\":15480:15659   */\n      swap3\n      swap2\n      pop\n      pop\n      jump\t// out\n        /* \"#utility.yul\":15665:15776   */\n    tag_442:\n        /* \"#utility.yul\":15733:15737   */\n      0x00\n        /* \"#utility.yul\":15765:15769   */\n      0x20\n        /* \"#utility.yul\":15760:15763   */\n      dup3\n        /* \"#utility.yul\":15756:15770   */\n      add\n        /* \"#utility.yul\":15748:15770   */\n      swap1\n      pop\n        /* \"#utility.yul\":15665:15776   */\n      swap2\n      swap1\n      pop\n      jump\t// out\n        /* \"#utility.yul\":15814:16508   */\n    tag_443:\n        /* \"#utility.yul\":15950:16002   */\n      tag_623\n        /* \"#utility.yul\":15996:16001   */\n      dup2\n        /* \"#utility.yul\":15950:16002   */\n      tag_437\n      jump\t// in\n    tag_623:\n        /* \"#utility.yul\":16018:16102   */\n      tag_624\n        /* \"#utility.yul\":16095:16101   */\n      dup2\n        /* \"#utility.yul\":16090:16093   */\n      dup5\n        /* \"#utility.yul\":16018:16102   */\n      tag_438\n      jump\t// in\n    tag_624:\n        /* \"#utility.yul\":16011:16102   */\n      swap3\n      pop\n        /* \"#utility.yul\":16126:16180   */\n      tag_625\n        /* \"#utility.yul\":16174:16179   */\n      dup3\n        /* \"#utility.yul\":16126:16180   */\n      tag_439\n      jump\t// in\n    tag_625:\n        /* \"#utility.yul\":16203:16210   */\n      dup1\n        /* \"#utility.yul\":16234:16235   */\n      0x00\n        /* \"#utility.yul\":16219:16501   */\n    tag_626:\n        /* \"#utility.yul\":16244:16250   */\n      dup4\n        /* \"#utility.yul\":16241:16242   */\n      dup2\n        /* \"#utility.yul\":16238:16251   */\n      lt\n        /* \"#utility.yul\":16219:16501   */\n      iszero\n      tag_628\n      jumpi\n        /* \"#utility.yul\":16320:16326   */\n      dup2\n        /* \"#utility.yul\":16314:16327   */\n      mload\n        /* \"#utility.yul\":16347:16410   */\n      tag_629\n        /* \"#utility.yul\":16406:16409   */\n      dup8\n        /* \"#utility.yul\":16391:16404   */\n      dup3\n        /* \"#utility.yul\":16347:16410   */\n      tag_441\n      jump\t// in\n    tag_629:\n        /* \"#utility.yul\":16340:16410   */\n      swap7\n      pop\n        /* \"#utility.yul\":16433:16491   */\n      tag_630\n        /* \"#utility.yul\":16484:16490   */\n      dup4\n        /* \"#utility.yul\":16433:16491   */\n      tag_442\n      jump\t// in\n    tag_630:\n        /* \"#utility.yul\":16423:16491   */\n      swap3\n      pop\n        /* \"#utility.yul\":16279:16501   */\n      pop\n        /* \"#utility.yul\":16266:16267   */\n      0x01\n        /* \"#utility.yul\":16263:16264   */\n      dup2\n        /* \"#utility.yul\":16259:16268   */\n      add\n        /* \"#utility.yul\":16254:16268   */\n      swap1\n      pop\n        /* \"#utility.yul\":16219:16501   */\n      jump(tag_626)\n    tag_628:\n        /* \"#utility.yul\":16223:16237   */\n      pop\n        /* \"#utility.yul\":15926:16508   */\n      pop\n      pop\n      pop\n        /* \"#utility.yul\":15814:16508   */\n      pop\n      pop\n      jump\t// out\n        /* \"#utility.yul\":16514:16618   */\n    tag_444:\n        /* \"#utility.yul\":16579:16585   */\n      0x00\n        /* \"#utility.yul\":16607:16611   */\n      0x01\n        /* \"#utility.yul\":16597:16611   */\n      swap1\n      pop\n        /* \"#utility.yul\":16514:16618   */\n      swap2\n      swap1\n      pop\n      jump\t// out\n        /* \"#utility.yul\":16624:16767   */\n    tag_445:\n        /* \"#utility.yul\":16721:16732   */\n      0x00\n        /* \"#utility.yul\":16758:16761   */\n      dup2\n        /* \"#utility.yul\":16743:16761   */\n      swap1\n      pop\n        /* \"#utility.yul\":16624:16767   */\n      swap3\n      swap2\n      pop\n      pop\n      jump\t// out\n        /* \"#utility.yul\":16773:16871   */\n    tag_446:\n        /* \"#utility.yul\":16838:16842   */\n      0x00\n        /* \"#utility.yul\":16861:16864   */\n      dup2\n        /* \"#utility.yul\":16853:16864   */\n      swap1\n      pop\n        /* \"#utility.yul\":16773:16871   */\n      swap2\n      swap1\n      pop\n      jump\t// out\n        /* \"#utility.yul\":16877:16988   */\n    tag_447:\n        /* \"#utility.yul\":16945:16949   */\n      0x00\n        /* \"#utility.yul\":16977:16981   */\n      0x20\n        /* \"#utility.yul\":16972:16975   */\n      dup3\n        /* \"#utility.yul\":16968:16982   */\n      add\n        /* \"#utility.yul\":16960:16982   */\n      swap1\n      pop\n        /* \"#utility.yul\":16877:16988   */\n      swap2\n      swap1\n      pop\n      jump\t// out\n        /* \"#utility.yul\":17026:17720   */\n    tag_448:\n        /* \"#utility.yul\":17162:17214   */\n      tag_636\n        /* \"#utility.yul\":17208:17213   */\n      dup2\n        /* \"#utility.yul\":17162:17214   */\n      tag_444\n      jump\t// in\n    tag_636:\n        /* \"#utility.yul\":17230:17314   */\n      tag_637\n        /* \"#utility.yul\":17307:17313   */\n      dup2\n        /* \"#utility.yul\":17302:17305   */\n      dup5\n        /* \"#utility.yul\":17230:17314   */\n      tag_445\n      jump\t// in\n    tag_637:\n        /* \"#utility.yul\":17223:17314   */\n      swap3\n      pop\n        /* \"#utility.yul\":17338:17392   */\n      tag_638\n        /* \"#utility.yul\":17386:17391   */\n      dup3\n        /* \"#utility.yul\":17338:17392   */\n      tag_446\n      jump\t// in\n    tag_638:\n        /* \"#utility.yul\":17415:17422   */\n      dup1\n        /* \"#utility.yul\":17446:17447   */\n      0x00\n        /* \"#utility.yul\":17431:17713   */\n    tag_639:\n        /* \"#utility.yul\":17456:17462   */\n      dup4\n        /* \"#utility.yul\":17453:17454   */\n      dup2\n        /* \"#utility.yul\":17450:17463   */\n      lt\n        /* \"#utility.yul\":17431:17713   */\n      iszero\n      tag_641\n      jumpi\n        /* \"#utility.yul\":17532:17538   */\n      dup2\n        /* \"#utility.yul\":17526:17539   */\n      mload\n        /* \"#utility.yul\":17559:17622   */\n      tag_642\n        /* \"#utility.yul\":17618:17621   */\n      dup8\n        /* \"#utility.yul\":17603:17616   */\n      dup3\n        /* \"#utility.yul\":17559:17622   */\n      tag_441\n      jump\t// in\n    tag_642:\n        /* \"#utility.yul\":17552:17622   */\n      swap7\n      pop\n        /* \"#utility.yul\":17645:17703   */\n      tag_643\n        /* \"#utility.yul\":17696:17702   */\n      dup4\n        /* \"#utility.yul\":17645:17703   */\n      tag_447\n      jump\t// in\n    tag_643:\n        /* \"#utility.yul\":17635:17703   */\n      swap3\n      pop\n        /* \"#utility.yul\":17491:17713   */\n      pop\n        /* \"#utility.yul\":17478:17479   */\n      0x01\n        /* \"#utility.yul\":17475:17476   */\n      dup2\n        /* \"#utility.yul\":17471:17480   */\n      add\n        /* \"#utility.yul\":17466:17480   */\n      swap1\n      pop\n        /* \"#utility.yul\":17431:17713   */\n      jump(tag_639)\n    tag_641:\n        /* \"#utility.yul\":17435:17449   */\n      pop\n        /* \"#utility.yul\":17138:17720   */\n      pop\n      pop\n      pop\n        /* \"#utility.yul\":17026:17720   */\n      pop\n      pop\n      jump\t// out\n        /* \"#utility.yul\":17726:18244   */\n    tag_158:\n        /* \"#utility.yul\":17939:17943   */\n      0x00\n        /* \"#utility.yul\":17977:17980   */\n      0x0120\n        /* \"#utility.yul\":17966:17975   */\n      dup3\n        /* \"#utility.yul\":17962:17981   */\n      add\n        /* \"#utility.yul\":17954:17981   */\n      swap1\n      pop\n        /* \"#utility.yul\":17991:18108   */\n      tag_645\n        /* \"#utility.yul\":18105:18106   */\n      0x00\n        /* \"#utility.yul\":18094:18103   */\n      dup4\n        /* \"#utility.yul\":18090:18107   */\n      add\n        /* \"#utility.yul\":18081:18087   */\n      dup6\n        /* \"#utility.yul\":17991:18108   */\n      tag_443\n      jump\t// in\n    tag_645:\n        /* \"#utility.yul\":18118:18237   */\n      tag_646\n        /* \"#utility.yul\":18232:18235   */\n      0x0100\n        /* \"#utility.yul\":18221:18230   */\n      dup4\n        /* \"#utility.yul\":18217:18236   */\n      add\n        /* \"#utility.yul\":18208:18214   */\n      dup5\n        /* \"#utility.yul\":18118:18237   */\n      tag_448\n      jump\t// in\n    tag_646:\n        /* \"#utility.yul\":17726:18244   */\n      swap4\n      swap3\n      pop\n      pop\n      pop\n      jump\t// out\n        /* \"#utility.yul\":18250:18366   */\n    tag_449:\n        /* \"#utility.yul\":18320:18341   */\n      tag_648\n        /* \"#utility.yul\":18335:18340   */\n      dup2\n        /* \"#utility.yul\":18320:18341   */\n      tag_413\n      jump\t// in\n    tag_648:\n        /* \"#utility.yul\":18313:18318   */\n      dup2\n        /* \"#utility.yul\":18310:18342   */\n      eq\n        /* \"#utility.yul\":18300:18360   */\n      tag_649\n      jumpi\n        /* \"#utility.yul\":18356:18357   */\n      0x00\n        /* \"#utility.yul\":18353:18354   */\n      dup1\n        /* \"#utility.yul\":18346:18358   */\n      revert\n        /* \"#utility.yul\":18300:18360   */\n    tag_649:\n        /* \"#utility.yul\":18250:18366   */\n      pop\n      jump\t// out\n        /* \"#utility.yul\":18372:18509   */\n    tag_450:\n        /* \"#utility.yul\":18426:18431   */\n      0x00\n        /* \"#utility.yul\":18457:18463   */\n      dup2\n        /* \"#utility.yul\":18451:18464   */\n      mload\n        /* \"#utility.yul\":18442:18464   */\n      swap1\n      pop\n        /* \"#utility.yul\":18473:18503   */\n      tag_651\n        /* \"#utility.yul\":18497:18502   */\n      dup2\n        /* \"#utility.yul\":18473:18503   */\n      tag_449\n      jump\t// in\n    tag_651:\n        /* \"#utility.yul\":18372:18509   */\n      swap3\n      swap2\n      pop\n      pop\n      jump\t// out\n        /* \"#utility.yul\":18515:18860   */\n    tag_162:\n        /* \"#utility.yul\":18582:18588   */\n      0x00\n        /* \"#utility.yul\":18631:18633   */\n      0x20\n        /* \"#utility.yul\":18619:18628   */\n      dup3\n        /* \"#utility.yul\":18610:18617   */\n      dup5\n        /* \"#utility.yul\":18606:18629   */\n      sub\n        /* \"#utility.yul\":18602:18634   */\n      slt\n        /* \"#utility.yul\":18599:18718   */\n      iszero\n      tag_653\n      jumpi\n        /* \"#utility.yul\":18637:18716   */\n      tag_654\n      tag_400\n      jump\t// in\n    tag_654:\n        /* \"#utility.yul\":18599:18718   */\n    tag_653:\n        /* \"#utility.yul\":18757:18758   */\n      0x00\n        /* \"#utility.yul\":18782:18843   */\n      tag_655\n        /* \"#utility.yul\":18835:18842   */\n      dup5\n        /* \"#utility.yul\":18826:18832   */\n      dup3\n        /* \"#utility.yul\":18815:18824   */\n      dup6\n        /* \"#utility.yul\":18811:18833   */\n      add\n        /* \"#utility.yul\":18782:18843   */\n      tag_450\n      jump\t// in\n    tag_655:\n        /* \"#utility.yul\":18772:18843   */\n      swap2\n      pop\n        /* \"#utility.yul\":18728:18853   */\n      pop\n        /* \"#utility.yul\":18515:18860   */\n      swap3\n      swap2\n      pop\n      pop\n      jump\t// out\n        /* \"#utility.yul\":18866:19029   */\n    tag_451:\n        /* \"#utility.yul\":19006:19021   */\n      0x496e76616c69642070726f6f6600000000000000000000000000000000000000\n        /* \"#utility.yul\":19002:19003   */\n      0x00\n        /* \"#utility.yul\":18994:19000   */\n      dup3\n        /* \"#utility.yul\":18990:19004   */\n      add\n        /* \"#utility.yul\":18983:19022   */\n      mstore\n        /* \"#utility.yul\":18866:19029   */\n      pop\n      jump\t// out\n        /* \"#utility.yul\":19035:19401   */\n    tag_452:\n        /* \"#utility.yul\":19177:19180   */\n      0x00\n        /* \"#utility.yul\":19198:19265   */\n      tag_658\n        /* \"#utility.yul\":19262:19264   */\n      0x0d\n        /* \"#utility.yul\":19257:19260   */\n      dup4\n        /* \"#utility.yul\":19198:19265   */\n      tag_425\n      jump\t// in\n    tag_658:\n        /* \"#utility.yul\":19191:19265   */\n      swap2\n      pop\n        /* \"#utility.yul\":19274:19367   */\n      tag_659\n        /* \"#utility.yul\":19363:19366   */\n      dup3\n        /* \"#utility.yul\":19274:19367   */\n      tag_451\n      jump\t// in\n    tag_659:\n        /* \"#utility.yul\":19392:19394   */\n      0x20\n        /* \"#utility.yul\":19387:19390   */\n      dup3\n        /* \"#utility.yul\":19383:19395   */\n      add\n        /* \"#utility.yul\":19376:19395   */\n      swap1\n      pop\n        /* \"#utility.yul\":19035:19401   */\n      swap2\n      swap1\n      pop\n      jump\t// out\n        /* \"#utility.yul\":19407:19826   */\n    tag_165:\n        /* \"#utility.yul\":19573:19577   */\n      0x00\n        /* \"#utility.yul\":19611:19613   */\n      0x20\n        /* \"#utility.yul\":19600:19609   */\n      dup3\n        /* \"#utility.yul\":19596:19614   */\n      add\n        /* \"#utility.yul\":19588:19614   */\n      swap1\n      pop\n        /* \"#utility.yul\":19660:19669   */\n      dup2\n        /* \"#utility.yul\":19654:19658   */\n      dup2\n        /* \"#utility.yul\":19650:19670   */\n      sub\n        /* \"#utility.yul\":19646:19647   */\n      0x00\n        /* \"#utility.yul\":19635:19644   */\n      dup4\n        /* \"#utility.yul\":19631:19648   */\n      add\n        /* \"#utility.yul\":19624:19671   */\n      mstore\n        /* \"#utility.yul\":19688:19819   */\n      tag_661\n        /* \"#utility.yul\":19814:19818   */\n      dup2\n        /* \"#utility.yul\":19688:19819   */\n      tag_452\n      jump\t// in\n    tag_661:\n        /* \"#utility.yul\":19680:19819   */\n      swap1\n      pop\n        /* \"#utility.yul\":19407:19826   */\n      swap2\n      swap1\n      pop\n      jump\t// out\n        /* \"#utility.yul\":19832:20012   */\n    tag_453:\n        /* \"#utility.yul\":19880:19957   */\n      0x4e487b7100000000000000000000000000000000000000000000000000000000\n        /* \"#utility.yul\":19877:19878   */\n      0x00\n        /* \"#utility.yul\":19870:19958   */\n      mstore\n        /* \"#utility.yul\":19977:19981   */\n      0x11\n        /* \"#utility.yul\":19974:19975   */\n      0x04\n        /* \"#utility.yul\":19967:19982   */\n      mstore\n        /* \"#utility.yul\":20001:20005   */\n      0x24\n        /* \"#utility.yul\":19998:19999   */\n      0x00\n        /* \"#utility.yul\":19991:20006   */\n      revert\n        /* \"#utility.yul\":20018:20209   */\n    tag_201:\n        /* \"#utility.yul\":20058:20061   */\n      0x00\n        /* \"#utility.yul\":20077:20097   */\n      tag_664\n        /* \"#utility.yul\":20095:20096   */\n      dup3\n        /* \"#utility.yul\":20077:20097   */\n      tag_407\n      jump\t// in\n    tag_664:\n        /* \"#utility.yul\":20072:20097   */\n      swap2\n      pop\n        /* \"#utility.yul\":20111:20131   */\n      tag_665\n        /* \"#utility.yul\":20129:20130   */\n      dup4\n        /* \"#utility.yul\":20111:20131   */\n      tag_407\n      jump\t// in\n    tag_665:\n        /* \"#utility.yul\":20106:20131   */\n      swap3\n      pop\n        /* \"#utility.yul\":20154:20155   */\n      dup3\n        /* \"#utility.yul\":20151:20152   */\n      dup3\n        /* \"#utility.yul\":20147:20156   */\n      add\n        /* \"#utility.yul\":20140:20156   */\n      swap1\n      pop\n        /* \"#utility.yul\":20175:20178   */\n      dup1\n        /* \"#utility.yul\":20172:20173   */\n      dup3\n        /* \"#utility.yul\":20169:20179   */\n      gt\n        /* \"#utility.yul\":20166:20202   */\n      iszero\n      tag_666\n      jumpi\n        /* \"#utility.yul\":20182:20200   */\n      tag_667\n      tag_453\n      jump\t// in\n    tag_667:\n        /* \"#utility.yul\":20166:20202   */\n    tag_666:\n        /* \"#utility.yul\":20018:20209   */\n      swap3\n      swap2\n      pop\n      pop\n      jump\t// out\n        /* \"#utility.yul\":20215:20385   */\n    tag_454:\n        /* \"#utility.yul\":20355:20377   */\n      0x496e76616c696420696e707574206c656e677468000000000000000000000000\n        /* \"#utility.yul\":20351:20352   */\n      0x00\n        /* \"#utility.yul\":20343:20349   */\n      dup3\n        /* \"#utility.yul\":20339:20353   */\n      add\n        /* \"#utility.yul\":20332:20378   */\n      mstore\n        /* \"#utility.yul\":20215:20385   */\n      pop\n      jump\t// out\n        /* \"#utility.yul\":20391:20757   */\n    tag_455:\n        /* \"#utility.yul\":20533:20536   */\n      0x00\n        /* \"#utility.yul\":20554:20621   */\n      tag_670\n        /* \"#utility.yul\":20618:20620   */\n      0x14\n        /* \"#utility.yul\":20613:20616   */\n      dup4\n        /* \"#utility.yul\":20554:20621   */\n      tag_425\n      jump\t// in\n    tag_670:\n        /* \"#utility.yul\":20547:20621   */\n      swap2\n      pop\n        /* \"#utility.yul\":20630:20723   */\n      tag_671\n        /* \"#utility.yul\":20719:20722   */\n      dup3\n        /* \"#utility.yul\":20630:20723   */\n      tag_454\n      jump\t// in\n    tag_671:\n        /* \"#utility.yul\":20748:20750   */\n      0x20\n        /* \"#utility.yul\":20743:20746   */\n      dup3\n        /* \"#utility.yul\":20739:20751   */\n      add\n        /* \"#utility.yul\":20732:20751   */\n      swap1\n      pop\n        /* \"#utility.yul\":20391:20757   */\n      swap2\n      swap1\n      pop\n      jump\t// out\n        /* \"#utility.yul\":20763:21182   */\n    tag_204:\n        /* \"#utility.yul\":20929:20933   */\n      0x00\n        /* \"#utility.yul\":20967:20969   */\n      0x20\n        /* \"#utility.yul\":20956:20965   */\n      dup3\n        /* \"#utility.yul\":20952:20970   */\n      add\n        /* \"#utility.yul\":20944:20970   */\n      swap1\n      pop\n        /* \"#utility.yul\":21016:21025   */\n      dup2\n        /* \"#utility.yul\":21010:21014   */\n      dup2\n        /* \"#utility.yul\":21006:21026   */\n      sub\n        /* \"#utility.yul\":21002:21003   */\n      0x00\n        /* \"#utility.yul\":20991:21000   */\n      dup4\n        /* \"#utility.yul\":20987:21004   */\n      add\n        /* \"#utility.yul\":20980:21027   */\n      mstore\n        /* \"#utility.yul\":21044:21175   */\n      tag_673\n        /* \"#utility.yul\":21170:21174   */\n      dup2\n        /* \"#utility.yul\":21044:21175   */\n      tag_455\n      jump\t// in\n    tag_673:\n        /* \"#utility.yul\":21036:21175   */\n      swap1\n      pop\n        /* \"#utility.yul\":20763:21182   */\n      swap2\n      swap1\n      pop\n      jump\t// out\n        /* \"#utility.yul\":21188:21598   */\n    tag_249:\n        /* \"#utility.yul\":21228:21235   */\n      0x00\n        /* \"#utility.yul\":21251:21271   */\n      tag_675\n        /* \"#utility.yul\":21269:21270   */\n      dup3\n        /* \"#utility.yul\":21251:21271   */\n      tag_407\n      jump\t// in\n    tag_675:\n        /* \"#utility.yul\":21246:21271   */\n      swap2\n      pop\n        /* \"#utility.yul\":21285:21305   */\n      tag_676\n        /* \"#utility.yul\":21303:21304   */\n      dup4\n        /* \"#utility.yul\":21285:21305   */\n      tag_407\n      jump\t// in\n    tag_676:\n        /* \"#utility.yul\":21280:21305   */\n      swap3\n      pop\n        /* \"#utility.yul\":21340:21341   */\n      dup3\n        /* \"#utility.yul\":21337:21338   */\n      dup3\n        /* \"#utility.yul\":21333:21342   */\n      mul\n        /* \"#utility.yul\":21362:21392   */\n      tag_677\n        /* \"#utility.yul\":21380:21391   */\n      dup2\n        /* \"#utility.yul\":21362:21392   */\n      tag_407\n      jump\t// in\n    tag_677:\n        /* \"#utility.yul\":21351:21392   */\n      swap2\n      pop\n        /* \"#utility.yul\":21541:21542   */\n      dup3\n        /* \"#utility.yul\":21532:21539   */\n      dup3\n        /* \"#utility.yul\":21528:21543   */\n      div\n        /* \"#utility.yul\":21525:21526   */\n      dup5\n        /* \"#utility.yul\":21522:21544   */\n      eq\n        /* \"#utility.yul\":21502:21503   */\n      dup4\n        /* \"#utility.yul\":21495:21504   */\n      iszero\n        /* \"#utility.yul\":21475:21558   */\n      or\n        /* \"#utility.yul\":21452:21591   */\n      tag_678\n      jumpi\n        /* \"#utility.yul\":21571:21589   */\n      tag_679\n      tag_453\n      jump\t// in\n    tag_679:\n        /* \"#utility.yul\":21452:21591   */\n    tag_678:\n        /* \"#utility.yul\":21236:21598   */\n      pop\n        /* \"#utility.yul\":21188:21598   */\n      swap3\n      swap2\n      pop\n      pop\n      jump\t// out\n        /* \"#utility.yul\":21604:21774   */\n    tag_456:\n        /* \"#utility.yul\":21744:21766   */\n      0x50616972696e6720636865636b206661696c6564000000000000000000000000\n        /* \"#utility.yul\":21740:21741   */\n      0x00\n        /* \"#utility.yul\":21732:21738   */\n      dup3\n        /* \"#utility.yul\":21728:21742   */\n      add\n        /* \"#utility.yul\":21721:21767   */\n      mstore\n        /* \"#utility.yul\":21604:21774   */\n      pop\n      jump\t// out\n        /* \"#utility.yul\":21780:22146   */\n    tag_457:\n        /* \"#utility.yul\":21922:21925   */\n      0x00\n        /* \"#utility.yul\":21943:22010   */\n      tag_682\n        /* \"#utility.yul\":22007:22009   */\n      0x14\n        /* \"#utility.yul\":22002:22005   */\n      dup4\n        /* \"#utility.yul\":21943:22010   */\n      tag_425\n      jump\t// in\n    tag_682:\n        /* \"#utility.yul\":21936:22010   */\n      swap2\n      pop\n        /* \"#utility.yul\":22019:22112   */\n      tag_683\n        /* \"#utility.yul\":22108:22111   */\n      dup3\n        /* \"#utility.yul\":22019:22112   */\n      tag_456\n      jump\t// in\n    tag_683:\n        /* \"#utility.yul\":22137:22139   */\n      0x20\n        /* \"#utility.yul\":22132:22135   */\n      dup3\n        /* \"#utility.yul\":22128:22140   */\n      add\n        /* \"#utility.yul\":22121:22140   */\n      swap1\n      pop\n        /* \"#utility.yul\":21780:22146   */\n      swap2\n      swap1\n      pop\n      jump\t// out\n        /* \"#utility.yul\":22152:22571   */\n    tag_386:\n        /* \"#utility.yul\":22318:22322   */\n      0x00\n        /* \"#utility.yul\":22356:22358   */\n      0x20\n        /* \"#utility.yul\":22345:22354   */\n      dup3\n        /* \"#utility.yul\":22341:22359   */\n      add\n        /* \"#utility.yul\":22333:22359   */\n      swap1\n      pop\n        /* \"#utility.yul\":22405:22414   */\n      dup2\n        /* \"#utility.yul\":22399:22403   */\n      dup2\n        /* \"#utility.yul\":22395:22415   */\n      sub\n        /* \"#utility.yul\":22391:22392   */\n      0x00\n        /* \"#utility.yul\":22380:22389   */\n      dup4\n        /* \"#utility.yul\":22376:22393   */\n      add\n        /* \"#utility.yul\":22369:22416   */\n      mstore\n        /* \"#utility.yul\":22433:22564   */\n      tag_685\n        /* \"#utility.yul\":22559:22563   */\n      dup2\n        /* \"#utility.yul\":22433:22564   */\n      tag_457\n      jump\t// in\n    tag_685:\n        /* \"#utility.yul\":22425:22564   */\n      swap1\n      pop\n        /* \"#utility.yul\":22152:22571   */\n      swap2\n      swap1\n      pop\n      jump\t// out\n        /* \"#utility.yul\":22577:22757   */\n    tag_458:\n        /* \"#utility.yul\":22625:22702   */\n      0x4e487b7100000000000000000000000000000000000000000000000000000000\n        /* \"#utility.yul\":22622:22623   */\n      0x00\n        /* \"#utility.yul\":22615:22703   */\n      mstore\n        /* \"#utility.yul\":22722:22726   */\n      0x12\n        /* \"#utility.yul\":22719:22720   */\n      0x04\n        /* \"#utility.yul\":22712:22727   */\n      mstore\n        /* \"#utility.yul\":22746:22750   */\n      0x24\n        /* \"#utility.yul\":22743:22744   */\n      0x00\n        /* \"#utility.yul\":22736:22751   */\n      revert\n        /* \"#utility.yul\":22763:22939   */\n    tag_396:\n        /* \"#utility.yul\":22795:22796   */\n      0x00\n        /* \"#utility.yul\":22812:22832   */\n      tag_688\n        /* \"#utility.yul\":22830:22831   */\n      dup3\n        /* \"#utility.yul\":22812:22832   */\n      tag_407\n      jump\t// in\n    tag_688:\n        /* \"#utility.yul\":22807:22832   */\n      swap2\n      pop\n        /* \"#utility.yul\":22846:22866   */\n      tag_689\n        /* \"#utility.yul\":22864:22865   */\n      dup4\n        /* \"#utility.yul\":22846:22866   */\n      tag_407\n      jump\t// in\n    tag_689:\n        /* \"#utility.yul\":22841:22866   */\n      swap3\n      pop\n        /* \"#utility.yul\":22885:22886   */\n      dup3\n        /* \"#utility.yul\":22875:22910   */\n      tag_690\n      jumpi\n        /* \"#utility.yul\":22890:22908   */\n      tag_691\n      tag_458\n      jump\t// in\n    tag_691:\n        /* \"#utility.yul\":22875:22910   */\n    tag_690:\n        /* \"#utility.yul\":22931:22932   */\n      dup3\n        /* \"#utility.yul\":22928:22929   */\n      dup3\n        /* \"#utility.yul\":22924:22933   */\n      mod\n        /* \"#utility.yul\":22919:22933   */\n      swap1\n      pop\n        /* \"#utility.yul\":22763:22939   */\n      swap3\n      swap2\n      pop\n      pop\n      jump\t// out\n        /* \"#utility.yul\":22945:23139   */\n    tag_398:\n        /* \"#utility.yul\":22985:22989   */\n      0x00\n        /* \"#utility.yul\":23005:23025   */\n      tag_693\n        /* \"#utility.yul\":23023:23024   */\n      dup3\n        /* \"#utility.yul\":23005:23025   */\n      tag_407\n      jump\t// in\n    tag_693:\n        /* \"#utility.yul\":23000:23025   */\n      swap2\n      pop\n        /* \"#utility.yul\":23039:23059   */\n      tag_694\n        /* \"#utility.yul\":23057:23058   */\n      dup4\n        /* \"#utility.yul\":23039:23059   */\n      tag_407\n      jump\t// in\n    tag_694:\n        /* \"#utility.yul\":23034:23059   */\n      swap3\n      pop\n        /* \"#utility.yul\":23083:23084   */\n      dup3\n        /* \"#utility.yul\":23080:23081   */\n      dup3\n        /* \"#utility.yul\":23076:23085   */\n      sub\n        /* \"#utility.yul\":23068:23085   */\n      swap1\n      pop\n        /* \"#utility.yul\":23107:23108   */\n      dup2\n        /* \"#utility.yul\":23101:23105   */\n      dup2\n        /* \"#utility.yul\":23098:23109   */\n      gt\n        /* \"#utility.yul\":23095:23132   */\n      iszero\n      tag_695\n      jumpi\n        /* \"#utility.yul\":23112:23130   */\n      tag_696\n      tag_453\n      jump\t// in\n    tag_696:\n        /* \"#utility.yul\":23095:23132   */\n    tag_695:\n        /* \"#utility.yul\":22945:23139   */\n      swap3\n      swap2\n      pop\n      pop\n      jump\t// out\n\n    auxdata: 0xa264697066735822122002a3dfcc11d3b14fc387b8db63e97113977f6844e12d25791528c18490dec1bf64736f6c634300081a0033\n}\n",
				"bytecode": {
					"linkReferences": {},
					"object": "608060405234801561000f575f80fd5b5060405161285538038061285583398181016040528101906100319190610265565b805f73ffffffffffffffffffffffffffffffffffffffff168173ffffffffffffffffffffffffffffffffffffffff16036100a2575f6040517f1e4fbdf7000000000000000000000000000000000000000000000000000000008152600401610099919061029f565b60405180910390fd5b6100b18161014660201b60201c565b50600180819055505f60025f6101000a81548160ff0219169083151502179055505f73ffffffffffffffffffffffffffffffffffffffff168173ffffffffffffffffffffffffffffffffffffffff1603610140576040517f08c379a000000000000000000000000000000000000000000000000000000000815260040161013790610312565b60405180910390fd5b50610330565b5f805f9054906101000a900473ffffffffffffffffffffffffffffffffffffffff169050815f806101000a81548173ffffffffffffffffffffffffffffffffffffffff021916908373ffffffffffffffffffffffffffffffffffffffff1602179055508173ffffffffffffffffffffffffffffffffffffffff168173ffffffffffffffffffffffffffffffffffffffff167f8be0079c531659141344cd1fd0a4f28419497f9722a3daafe3b4186f6b6457e060405160405180910390a35050565b5f80fd5b5f73ffffffffffffffffffffffffffffffffffffffff82169050919050565b5f6102348261020b565b9050919050565b6102448161022a565b811461024e575f80fd5b50565b5f8151905061025f8161023b565b92915050565b5f6020828403121561027a57610279610207565b5b5f61028784828501610251565b91505092915050565b6102998161022a565b82525050565b5f6020820190506102b25f830184610290565b92915050565b5f82825260208201905092915050565b7f496e76616c6964206f776e6572206164647265737300000000000000000000005f82015250565b5f6102fc6015836102b8565b9150610307826102c8565b602082019050919050565b5f6020820190508181035f830152610329816102f0565b9050919050565b6125188061033d5f395ff3fe608060405234801561000f575f80fd5b5060043610610109575f3560e01c80633f4ba83a116100a05780638456cb591161006f5780638456cb59146102cc5780638da5cb5b146102d6578063f2fde38b146102f4578063fc8221a914610310578063ff625fc31461034057610109565b80633f4ba83a1461026a5780635c975abb14610274578063715018a6146102925780637ecf686d1461029c57610109565b8063280ee92a116100dc578063280ee92a146101b9578063281e8383146101d75780632bbd59ca146102075780632e2695401461023a57610109565b806312202ec61461010d57806319880295146101295780631b81f82914610159578063230a0ab014610189575b5f80fd5b61012760048036038101906101229190611a0f565b610370565b005b610143600480360381019061013e9190611ada565b610647565b6040516101509190611b14565b60405180910390f35b610173600480360381019061016e9190611b6f565b61065c565b6040516101809190611bc9565b60405180910390f35b6101a3600480360381019061019e9190611ada565b6107ca565b6040516101b09190611b14565b60405180910390f35b6101c16107df565b6040516101ce9190611b14565b60405180910390f35b6101f160048036038101906101ec9190611ada565b6107e5565b6040516101fe9190611b14565b60405180910390f35b610221600480360381019061021c9190611c15565b6107fa565b6040516102319493929190611c4f565b60405180910390f35b610254600480360381019061024f9190611d41565b610832565b6040516102619190611bc9565b60405180910390f35b610272610a93565b005b61027c610aa5565b6040516102899190611bc9565b60405180910390f35b61029a610aba565b005b6102b660048036038101906102b19190611c15565b610acd565b6040516102c39190611bc9565b60405180910390f35b6102d4610aea565b005b6102de610afc565b6040516102eb9190611de6565b60405180910390f35b61030e60048036038101906103099190611dff565b610b23565b005b61032a60048036038101906103259190611e2a565b610ba7565b6040516103379190611b14565b60405180910390f35b61035a60048036038101906103559190611ada565b610bc7565b6040516103679190611b14565b60405180910390f35b610378610bdc565b5f82829050116103bd576040517f08c379a00000000000000000000000000000000000000000000000000000000081526004016103b490611ec2565b60405180910390fd5b855f600281106103d0576103cf611ee0565b5b602002013560035f8081526020019081526020015f2081905550856001600281106103fe576103fd611ee0565b5b602002013560035f600181526020019081526020015f2081905550845f6002811061042c5761042b611ee0565b5b602002013560045f8081526020019081526020015f20819055508460016002811061045a57610459611ee0565b5b602002013560045f600181526020019081526020015f2081905550835f6002811061048857610487611ee0565b5b602002013560055f8081526020019081526020015f2081905550836001600281106104b6576104b5611ee0565b5b602002013560055f600181526020019081526020015f2081905550825f600281106104e4576104e3611ee0565b5b602002013560065f8081526020019081526020015f20819055508260016002811061051257610511611ee0565b5b602002013560065f600181526020019081526020015f2081905550818190506008819055505f5b828290508110156105fb5782828281811061055757610556611ee0565b5b9050604002015f6002811061056f5761056e611ee0565b5b602002013560075f8381526020019081526020015f205f8081526020019081526020015f20819055508282828181106105ab576105aa611ee0565b5b9050604002016001600281106105c4576105c3611ee0565b5b602002013560075f8381526020019081526020015f205f600181526020019081526020015f20819055508080600101915050610539565b503373ffffffffffffffffffffffffffffffffffffffff167fc470d8977cb4e42289eb539c1960f641215874c98afe7844c8201ca63887fd7860405160405180910390a2505050505050565b6005602052805f5260405f205f915090505481565b5f6107c26040518060400160405280855f6008811061067e5761067d611ee0565b5b602002013581526020018560016008811061069c5761069b611ee0565b5b602002013581525060405180604001604052806040518060400160405280886002600881106106ce576106cd611ee0565b5b60200201358152602001886003600881106106ec576106eb611ee0565b5b6020020135815250815260200160405180604001604052808860046008811061071857610717611ee0565b5b602002013581526020018860056008811061073657610735611ee0565b5b60200201358152508152506040518060400160405280876006600881106107605761075f611ee0565b5b602002013581526020018760076008811061077e5761077d611ee0565b5b60200201358152508560018060200260405190810160405280929190826001602002808284375f81840152601f19601f820116905080830192505050505050610c63565b905092915050565b6006602052805f5260405f205f915090505481565b60085481565b6004602052805f5260405f205f915090505481565b6009602052805f5260405f205f91509050805f015490806001015490806002015490806003015f9054906101000a900460ff16905084565b5f61083b610f27565b610843610f6d565b600a5f8781526020019081526020015f205f9054906101000a900460ff16156108a1576040517f08c379a000000000000000000000000000000000000000000000000000000000815260040161089890611f57565b60405180910390fd5b5f60405180602001604052808773ffffffffffffffffffffffffffffffffffffffff1681525090503073ffffffffffffffffffffffffffffffffffffffff16631b81f82985858101906108f491906120ab565b836040518363ffffffff1660e01b81526004016109129291906121fb565b602060405180830381865afa15801561092d573d5f803e3d5ffd5b505050506040513d601f19601f82011682018060405250810190610951919061224e565b610990576040517f08c379a0000000000000000000000000000000000000000000000000000000008152600401610987906122c3565b60405180910390fd5b60405180608001604052808981526020018881526020014281526020016001151581525060095f8a81526020019081526020015f205f820151815f015560208201518160010155604082015181600201556060820151816003015f6101000a81548160ff0219169083151502179055509050506001600a5f8981526020019081526020015f205f6101000a81548160ff0219169083151502179055508573ffffffffffffffffffffffffffffffffffffffff1687897f9675c67edb39d5ae53cd37192a12d34a8b4341d9955d37e70e0968c6962c32a442604051610a749190611b14565b60405180910390a46001915050610a89610fae565b9695505050505050565b610a9b610bdc565b610aa3610fb7565b565b5f60025f9054906101000a900460ff16905090565b610ac2610bdc565b610acb5f611018565b565b600a602052805f5260405f205f915054906101000a900460ff1681565b610af2610bdc565b610afa6110d9565b565b5f805f9054906101000a900473ffffffffffffffffffffffffffffffffffffffff16905090565b610b2b610bdc565b5f73ffffffffffffffffffffffffffffffffffffffff168173ffffffffffffffffffffffffffffffffffffffff1603610b9b575f6040517f1e4fbdf7000000000000000000000000000000000000000000000000000000008152600401610b929190611de6565b60405180910390fd5b610ba481611018565b50565b6007602052815f5260405f20602052805f5260405f205f91509150505481565b6003602052805f5260405f205f915090505481565b610be461113b565b73ffffffffffffffffffffffffffffffffffffffff16610c02610afc565b73ffffffffffffffffffffffffffffffffffffffff1614610c6157610c2561113b565b6040517f118cdaa7000000000000000000000000000000000000000000000000000000008152600401610c589190611de6565b60405180910390fd5b565b5f600854600180610c74919061230e565b14610cb4576040517f08c379a0000000000000000000000000000000000000000000000000000000008152600401610cab9061238b565b60405180910390fd5b5f604051806040016040528060075f8081526020019081526020015f205f8081526020019081526020015f2054815260200160075f8081526020019081526020015f205f600181526020019081526020015f205481525090505f5b6001811015610e2f575f80610da8604051806040016040528060075f600188610d38919061230e565b81526020019081526020015f205f8081526020019081526020015f2054815260200160075f600188610d6a919061230e565b81526020019081526020015f205f600181526020019081526020015f2054815250878560018110610d9e57610d9d611ee0565b5b6020020151611142565b91509150610de7845f60028110610dc257610dc1611ee0565b5b602002015185600160028110610ddb57610dda611ee0565b5b60200201518484611196565b855f60028110610dfa57610df9611ee0565b5b6020020186600160028110610e1257610e11611ee0565b5b602002018281525082815250505050508080600101915050610d0f565b50610f1c8686604051806040016040528060035f8081526020019081526020015f2054815260200160035f600181526020019081526020015f2054815250604051806040016040528060045f8081526020019081526020015f2054815260200160045f600181526020019081526020015f205481525085604051806040016040528060055f8081526020019081526020015f2054815260200160055f600181526020019081526020015f20548152508a604051806040016040528060065f8081526020019081526020015f2054815260200160065f600181526020019081526020015f20548152506111bd565b915050949350505050565b600260015403610f63576040517f3ee5aeb500000000000000000000000000000000000000000000000000000000815260040160405180910390fd5b6002600181905550565b610f75610aa5565b15610fac576040517fd93c066500000000000000000000000000000000000000000000000000000000815260040160405180910390fd5b565b60018081905550565b610fbf61188d565b5f60025f6101000a81548160ff0219169083151502179055507f5db9ee0a495bf2e6ff9c91a7834c1ba4fdd244a5e8aa4e537bd38aeae4b073aa61100161113b565b60405161100e9190611de6565b60405180910390a1565b5f805f9054906101000a900473ffffffffffffffffffffffffffffffffffffffff169050815f806101000a81548173ffffffffffffffffffffffffffffffffffffffff021916908373ffffffffffffffffffffffffffffffffffffffff1602179055508173ffffffffffffffffffffffffffffffffffffffff168173ffffffffffffffffffffffffffffffffffffffff167f8be0079c531659141344cd1fd0a4f28419497f9722a3daafe3b4186f6b6457e060405160405180910390a35050565b6110e1610f6d565b600160025f6101000a81548160ff0219169083151502179055507f62e78cea01bee320cd4e420270b5ea74000d11b0c9f74754ebdbfc544b05a25861112461113b565b6040516111319190611de6565b60405180910390a1565b5f33905090565b5f8082845f6002811061115857611157611ee0565b5b602002015161116791906123a9565b838560016002811061117c5761117b611ee0565b5b602002015161118b91906123a9565b915091509250929050565b5f8083866111a4919061230e565b83866111b0919061230e565b9150915094509492505050565b5f6111c6611937565b6111ff8a5f600281106111dc576111db611ee0565b5b60200201518b6001600281106111f5576111f4611ee0565b5b60200201516118cd565b8b5f6002811061121257611211611ee0565b5b602002018c60016002811061122a57611229611ee0565b5b6020020182815250828152505050611271845f6002811061124e5761124d611ee0565b5b60200201518560016002811061126757611266611ee0565b5b60200201516118cd565b855f6002811061128457611283611ee0565b5b602002018660016002811061129c5761129b611ee0565b5b6020020182815250828152505050895f600281106112bd576112bc611ee0565b5b6020020151815f601881106112d5576112d4611ee0565b5b602002018181525050896001600281106112f2576112f1611ee0565b5b60200201518160016018811061130b5761130a611ee0565b5b602002018181525050885f6002811061132757611326611ee0565b5b60200201515f6002811061133e5761133d611ee0565b5b60200201518160026018811061135757611356611ee0565b5b602002018181525050885f6002811061137357611372611ee0565b5b602002015160016002811061138b5761138a611ee0565b5b6020020151816003601881106113a4576113a3611ee0565b5b602002018181525050886001600281106113c1576113c0611ee0565b5b60200201515f600281106113d8576113d7611ee0565b5b6020020151816004601881106113f1576113f0611ee0565b5b6020020181815250508860016002811061140e5761140d611ee0565b5b602002015160016002811061142657611425611ee0565b5b60200201518160056018811061143f5761143e611ee0565b5b602002018181525050875f6002811061145b5761145a611ee0565b5b60200201518160066018811061147457611473611ee0565b5b6020020181815250508760016002811061149157611490611ee0565b5b6020020151816007601881106114aa576114a9611ee0565b5b602002018181525050865f600281106114c6576114c5611ee0565b5b6020020151816008601881106114df576114de611ee0565b5b602002018181525050866001600281106114fc576114fb611ee0565b5b60200201518160096018811061151557611514611ee0565b5b602002018181525050865f6002811061153157611530611ee0565b5b602002015181600a6018811061154a57611549611ee0565b5b6020020181815250508660016002811061156757611566611ee0565b5b602002015181600b601881106115805761157f611ee0565b5b602002018181525050855f6002811061159c5761159b611ee0565b5b602002015181600c601881106115b5576115b4611ee0565b5b602002018181525050856001600281106115d2576115d1611ee0565b5b602002015181600d601881106115eb576115ea611ee0565b5b602002018181525050845f6002811061160757611606611ee0565b5b602002015181600e601881106116205761161f611ee0565b5b6020020181815250508460016002811061163d5761163c611ee0565b5b602002015181600f6018811061165657611655611ee0565b5b602002018181525050845f6002811061167257611671611ee0565b5b60200201518160106018811061168b5761168a611ee0565b5b602002018181525050846001600281106116a8576116a7611ee0565b5b6020020151816011601881106116c1576116c0611ee0565b5b602002018181525050835f600281106116dd576116dc611ee0565b5b6020020151816012601881106116f6576116f5611ee0565b5b6020020181815250508360016002811061171357611712611ee0565b5b60200201518160136018811061172c5761172b611ee0565b5b602002018181525050825f6002811061174857611747611ee0565b5b60200201518160146018811061176157611760611ee0565b5b6020020181815250508260016002811061177e5761177d611ee0565b5b60200201518160156018811061179757611796611ee0565b5b602002018181525050825f600281106117b3576117b2611ee0565b5b6020020151816016601881106117cc576117cb611ee0565b5b602002018181525050826001600281106117e9576117e8611ee0565b5b60200201518160176018811061180257611801611ee0565b5b60200201818152505061181361195a565b5f6020826101808560085afa905080611861576040517f08c379a000000000000000000000000000000000000000000000000000000000815260040161185890612434565b60405180910390fd5b6001825f6001811061187657611875611ee0565b5b602002015114935050505098975050505050505050565b611895610aa5565b6118cb576040517f8dfc202b00000000000000000000000000000000000000000000000000000000815260040160405180910390fd5b565b5f805f7f30644e72e131a029b85045b68181585d97816a916871ca8d3c208c16d87cfd4790505f8514801561190157505f84145b15611912575f809250925050611930565b84818561191f919061247f565b8261192a91906124af565b92509250505b9250929050565b604051806103000160405280601890602082028036833780820191505090505090565b6040518060200160405280600190602082028036833780820191505090505090565b5f604051905090565b5f80fd5b5f80fd5b5f80fd5b5f819050826020600202820111156119ac576119ab61198d565b5b92915050565b5f80fd5b5f80fd5b5f8083601f8401126119cf576119ce6119b2565b5b8235905067ffffffffffffffff8111156119ec576119eb6119b6565b5b602083019150836040820283011115611a0857611a0761198d565b5b9250929050565b5f805f805f806101208789031215611a2a57611a29611985565b5b5f611a3789828a01611991565b9650506040611a4889828a01611991565b9550506080611a5989828a01611991565b94505060c0611a6a89828a01611991565b93505061010087013567ffffffffffffffff811115611a8c57611a8b611989565b5b611a9889828a016119ba565b92509250509295509295509295565b5f819050919050565b611ab981611aa7565b8114611ac3575f80fd5b50565b5f81359050611ad481611ab0565b92915050565b5f60208284031215611aef57611aee611985565b5b5f611afc84828501611ac6565b91505092915050565b611b0e81611aa7565b82525050565b5f602082019050611b275f830184611b05565b92915050565b5f81905082602060080282011115611b4857611b4761198d565b5b92915050565b5f81905082602060010282011115611b6957611b6861198d565b5b92915050565b5f806101208385031215611b8657611b85611985565b5b5f611b9385828601611b2d565b925050610100611ba585828601611b4e565b9150509250929050565b5f8115159050919050565b611bc381611baf565b82525050565b5f602082019050611bdc5f830184611bba565b92915050565b5f819050919050565b611bf481611be2565b8114611bfe575f80fd5b50565b5f81359050611c0f81611beb565b92915050565b5f60208284031215611c2a57611c29611985565b5b5f611c3784828501611c01565b91505092915050565b611c4981611be2565b82525050565b5f608082019050611c625f830187611c40565b611c6f6020830186611c40565b611c7c6040830185611b05565b611c896060830184611bba565b95945050505050565b5f73ffffffffffffffffffffffffffffffffffffffff82169050919050565b5f611cbb82611c92565b9050919050565b611ccb81611cb1565b8114611cd5575f80fd5b50565b5f81359050611ce681611cc2565b92915050565b5f8083601f840112611d0157611d006119b2565b5b8235905067ffffffffffffffff811115611d1e57611d1d6119b6565b5b602083019150836001820283011115611d3a57611d3961198d565b5b9250929050565b5f805f805f8060a08789031215611d5b57611d5a611985565b5b5f611d6889828a01611c01565b9650506020611d7989828a01611c01565b9550506040611d8a89828a01611cd8565b9450506060611d9b89828a01611cd8565b935050608087013567ffffffffffffffff811115611dbc57611dbb611989565b5b611dc889828a01611cec565b92509250509295509295509295565b611de081611cb1565b82525050565b5f602082019050611df95f830184611dd7565b92915050565b5f60208284031215611e1457611e13611985565b5b5f611e2184828501611cd8565b91505092915050565b5f8060408385031215611e4057611e3f611985565b5b5f611e4d85828601611ac6565b9250506020611e5e85828601611ac6565b9150509250929050565b5f82825260208201905092915050565b7f496e76616c6964204943206c656e6774680000000000000000000000000000005f82015250565b5f611eac601183611e68565b9150611eb782611e78565b602082019050919050565b5f6020820190508181035f830152611ed981611ea0565b9050919050565b7f4e487b71000000000000000000000000000000000000000000000000000000005f52603260045260245ffd5b7f4e756c6c696669657220616c72656164792075736564000000000000000000005f82015250565b5f611f41601683611e68565b9150611f4c82611f0d565b602082019050919050565b5f6020820190508181035f830152611f6e81611f35565b9050919050565b5f601f19601f8301169050919050565b7f4e487b71000000000000000000000000000000000000000000000000000000005f52604160045260245ffd5b611fbb82611f75565b810181811067ffffffffffffffff82111715611fda57611fd9611f85565b5b80604052505050565b5f611fec61197c565b9050611ff88282611fb2565b919050565b5f67ffffffffffffffff82111561201757612016611f85565b5b602082029050919050565b5f61203461202f84611ffd565b611fe3565b9050806020840283018581111561204e5761204d61198d565b5b835b8181101561207757806120638882611ac6565b845260208401935050602081019050612050565b5050509392505050565b5f82601f830112612095576120946119b2565b5b60086120a2848285612022565b91505092915050565b5f61010082840312156120c1576120c0611985565b5b5f6120ce84828501612081565b91505092915050565b5f60089050919050565b5f81905092915050565b5f819050919050565b6120fd81611aa7565b82525050565b5f61210e83836120f4565b60208301905092915050565b5f602082019050919050565b61212f816120d7565b61213981846120e1565b9250612144826120eb565b805f5b8381101561217457815161215b8782612103565b96506121668361211a565b925050600181019050612147565b505050505050565b5f60019050919050565b5f81905092915050565b5f819050919050565b5f602082019050919050565b6121ae8161217c565b6121b88184612186565b92506121c382612190565b805f5b838110156121f35781516121da8782612103565b96506121e583612199565b9250506001810190506121c6565b505050505050565b5f6101208201905061220f5f830185612126565b61221d6101008301846121a5565b9392505050565b61222d81611baf565b8114612237575f80fd5b50565b5f8151905061224881612224565b92915050565b5f6020828403121561226357612262611985565b5b5f6122708482850161223a565b91505092915050565b7f496e76616c69642070726f6f66000000000000000000000000000000000000005f82015250565b5f6122ad600d83611e68565b91506122b882612279565b602082019050919050565b5f6020820190508181035f8301526122da816122a1565b9050919050565b7f4e487b71000000000000000000000000000000000000000000000000000000005f52601160045260245ffd5b5f61231882611aa7565b915061232383611aa7565b925082820190508082111561233b5761233a6122e1565b5b92915050565b7f496e76616c696420696e707574206c656e6774680000000000000000000000005f82015250565b5f612375601483611e68565b915061238082612341565b602082019050919050565b5f6020820190508181035f8301526123a281612369565b9050919050565b5f6123b382611aa7565b91506123be83611aa7565b92508282026123cc81611aa7565b915082820484148315176123e3576123e26122e1565b5b5092915050565b7f50616972696e6720636865636b206661696c65640000000000000000000000005f82015250565b5f61241e601483611e68565b9150612429826123ea565b602082019050919050565b5f6020820190508181035f83015261244b81612412565b9050919050565b7f4e487b71000000000000000000000000000000000000000000000000000000005f52601260045260245ffd5b5f61248982611aa7565b915061249483611aa7565b9250826124a4576124a3612452565b5b828206905092915050565b5f6124b982611aa7565b91506124c483611aa7565b92508282039050818111156124dc576124db6122e1565b5b9291505056fea264697066735822122002a3dfcc11d3b14fc387b8db63e97113977f6844e12d25791528c18490dec1bf64736f6c634300081a0033",
					"opcodes": "PUSH1 0x80 PUSH1 0x40 MSTORE CALLVALUE DUP1 ISZERO PUSH2 0xF JUMPI PUSH0 DUP1 REVERT JUMPDEST POP PUSH1 0x40 MLOAD PUSH2 0x2855 CODESIZE SUB DUP1 PUSH2 0x2855 DUP4 CODECOPY DUP2 DUP2 ADD PUSH1 0x40 MSTORE DUP2 ADD SWAP1 PUSH2 0x31 SWAP2 SWAP1 PUSH2 0x265 JUMP JUMPDEST DUP1 PUSH0 PUSH20 0xFFFFFFFFFFFFFFFFFFFFFFFFFFFFFFFFFFFFFFFF AND DUP2 PUSH20 0xFFFFFFFFFFFFFFFFFFFFFFFFFFFFFFFFFFFFFFFF AND SUB PUSH2 0xA2 JUMPI PUSH0 PUSH1 0x40 MLOAD PUSH32 0x1E4FBDF700000000000000000000000000000000000000000000000000000000 DUP2 MSTORE PUSH1 0x4 ADD PUSH2 0x99 SWAP2 SWAP1 PUSH2 0x29F JUMP JUMPDEST PUSH1 0x40 MLOAD DUP1 SWAP2 SUB SWAP1 REVERT JUMPDEST PUSH2 0xB1 DUP2 PUSH2 0x146 PUSH1 0x20 SHL PUSH1 0x20 SHR JUMP JUMPDEST POP PUSH1 0x1 DUP1 DUP2 SWAP1 SSTORE POP PUSH0 PUSH1 0x2 PUSH0 PUSH2 0x100 EXP DUP2 SLOAD DUP2 PUSH1 0xFF MUL NOT AND SWAP1 DUP4 ISZERO ISZERO MUL OR SWAP1 SSTORE POP PUSH0 PUSH20 0xFFFFFFFFFFFFFFFFFFFFFFFFFFFFFFFFFFFFFFFF AND DUP2 PUSH20 0xFFFFFFFFFFFFFFFFFFFFFFFFFFFFFFFFFFFFFFFF AND SUB PUSH2 0x140 JUMPI PUSH1 0x40 MLOAD PUSH32 0x8C379A000000000000000000000000000000000000000000000000000000000 DUP2 MSTORE PUSH1 0x4 ADD PUSH2 0x137 SWAP1 PUSH2 0x312 JUMP JUMPDEST PUSH1 0x40 MLOAD DUP1 SWAP2 SUB SWAP1 REVERT JUMPDEST POP PUSH2 0x330 JUMP JUMPDEST PUSH0 DUP1 PUSH0 SWAP1 SLOAD SWAP1 PUSH2 0x100 EXP SWAP1 DIV PUSH20 0xFFFFFFFFFFFFFFFFFFFFFFFFFFFFFFFFFFFFFFFF AND SWAP1 POP DUP2 PUSH0 DUP1 PUSH2 0x100 EXP DUP2 SLOAD DUP2 PUSH20 0xFFFFFFFFFFFFFFFFFFFFFFFFFFFFFFFFFFFFFFFF MUL NOT AND SWAP1 DUP4 PUSH20 0xFFFFFFFFFFFFFFFFFFFFFFFFFFFFFFFFFFFFFFFF AND MUL OR SWAP1 SSTORE POP DUP2 PUSH20 0xFFFFFFFFFFFFFFFFFFFFFFFFFFFFFFFFFFFFFFFF AND DUP2 PUSH20 0xFFFFFFFFFFFFFFFFFFFFFFFFFFFFFFFFFFFFFFFF AND PUSH32 0x8BE0079C531659141344CD1FD0A4F28419497F9722A3DAAFE3B4186F6B6457E0 PUSH1 0x40 MLOAD PUSH1 0x40 MLOAD DUP1 SWAP2 SUB SWAP1 LOG3 POP POP JUMP JUMPDEST PUSH0 DUP1 REVERT JUMPDEST PUSH0 PUSH20 0xFFFFFFFFFFFFFFFFFFFFFFFFFFFFFFFFFFFFFFFF DUP3 AND SWAP1 POP SWAP2 SWAP1 POP JUMP JUMPDEST PUSH0 PUSH2 0x234 DUP3 PUSH2 0x20B JUMP JUMPDEST SWAP1 POP SWAP2 SWAP1 POP JUMP JUMPDEST PUSH2 0x244 DUP2 PUSH2 0x22A JUMP JUMPDEST DUP2 EQ PUSH2 0x24E JUMPI PUSH0 DUP1 REVERT JUMPDEST POP JUMP JUMPDEST PUSH0 DUP2 MLOAD SWAP1 POP PUSH2 0x25F DUP2 PUSH2 0x23B JUMP JUMPDEST SWAP3 SWAP2 POP POP JUMP JUMPDEST PUSH0 PUSH1 0x20 DUP3 DUP5 SUB SLT ISZERO PUSH2 0x27A JUMPI PUSH2 0x279 PUSH2 0x207 JUMP JUMPDEST JUMPDEST PUSH0 PUSH2 0x287 DUP5 DUP3 DUP6 ADD PUSH2 0x251 JUMP JUMPDEST SWAP2 POP POP SWAP3 SWAP2 POP POP JUMP JUMPDEST PUSH2 0x299 DUP2 PUSH2 0x22A JUMP JUMPDEST DUP3 MSTORE POP POP JUMP JUMPDEST PUSH0 PUSH1 0x20 DUP3 ADD SWAP1 POP PUSH2 0x2B2 PUSH0 DUP4 ADD DUP5 PUSH2 0x290 JUMP JUMPDEST SWAP3 SWAP2 POP POP JUMP JUMPDEST PUSH0 DUP3 DUP3 MSTORE PUSH1 0x20 DUP3 ADD SWAP1 POP SWAP3 SWAP2 POP POP JUMP JUMPDEST PUSH32 0x496E76616C6964206F776E657220616464726573730000000000000000000000 PUSH0 DUP3 ADD MSTORE POP JUMP JUMPDEST PUSH0 PUSH2 0x2FC PUSH1 0x15 DUP4 PUSH2 0x2B8 JUMP JUMPDEST SWAP2 POP PUSH2 0x307 DUP3 PUSH2 0x2C8 JUMP JUMPDEST PUSH1 0x20 DUP3 ADD SWAP1 POP SWAP2 SWAP1 POP JUMP JUMPDEST PUSH0 PUSH1 0x20 DUP3 ADD SWAP1 POP DUP2 DUP2 SUB PUSH0 DUP4 ADD MSTORE PUSH2 0x329 DUP2 PUSH2 0x2F0 JUMP JUMPDEST SWAP1 POP SWAP2 SWAP1 POP JUMP JUMPDEST PUSH2 0x2518 DUP1 PUSH2 0x33D PUSH0 CODECOPY PUSH0 RETURN INVALID PUSH1 0x80 PUSH1 0x40 MSTORE CALLVALUE DUP1 ISZERO PUSH2 0xF JUMPI PUSH0 DUP1 REVERT JUMPDEST POP PUSH1 0x4 CALLDATASIZE LT PUSH2 0x109 JUMPI PUSH0 CALLDATALOAD PUSH1 0xE0 SHR DUP1 PUSH4 0x3F4BA83A GT PUSH2 0xA0 JUMPI DUP1 PUSH4 0x8456CB59 GT PUSH2 0x6F JUMPI DUP1 PUSH4 0x8456CB59 EQ PUSH2 0x2CC JUMPI DUP1 PUSH4 0x8DA5CB5B EQ PUSH2 0x2D6 JUMPI DUP1 PUSH4 0xF2FDE38B EQ PUSH2 0x2F4 JUMPI DUP1 PUSH4 0xFC8221A9 EQ PUSH2 0x310 JUMPI DUP1 PUSH4 0xFF625FC3 EQ PUSH2 0x340 JUMPI PUSH2 0x109 JUMP JUMPDEST DUP1 PUSH4 0x3F4BA83A EQ PUSH2 0x26A JUMPI DUP1 PUSH4 0x5C975ABB EQ PUSH2 0x274 JUMPI DUP1 PUSH4 0x715018A6 EQ PUSH2 0x292 JUMPI DUP1 PUSH4 0x7ECF686D EQ PUSH2 0x29C JUMPI PUSH2 0x109 JUMP JUMPDEST DUP1 PUSH4 0x280EE92A GT PUSH2 0xDC JUMPI DUP1 PUSH4 0x280EE92A EQ PUSH2 0x1B9 JUMPI DUP1 PUSH4 0x281E8383 EQ PUSH2 0x1D7 JUMPI DUP1 PUSH4 0x2BBD59CA EQ PUSH2 0x207 JUMPI DUP1 PUSH4 0x2E269540 EQ PUSH2 0x23A JUMPI PUSH2 0x109 JUMP JUMPDEST DUP1 PUSH4 0x12202EC6 EQ PUSH2 0x10D JUMPI DUP1 PUSH4 0x19880295 EQ PUSH2 0x129 JUMPI DUP1 PUSH4 0x1B81F829 EQ PUSH2 0x159 JUMPI DUP1 PUSH4 0x230A0AB0 EQ PUSH2 0x189 JUMPI JUMPDEST PUSH0 DUP1 REVERT JUMPDEST PUSH2 0x127 PUSH1 0x4 DUP1 CALLDATASIZE SUB DUP2 ADD SWAP1 PUSH2 0x122 SWAP2 SWAP1 PUSH2 0x1A0F JUMP JUMPDEST PUSH2 0x370 JUMP JUMPDEST STOP JUMPDEST PUSH2 0x143 PUSH1 0x4 DUP1 CALLDATASIZE SUB DUP2 ADD SWAP1 PUSH2 0x13E SWAP2 SWAP1 PUSH2 0x1ADA JUMP JUMPDEST PUSH2 0x647 JUMP JUMPDEST PUSH1 0x40 MLOAD PUSH2 0x150 SWAP2 SWAP1 PUSH2 0x1B14 JUMP JUMPDEST PUSH1 0x40 MLOAD DUP1 SWAP2 SUB SWAP1 RETURN JUMPDEST PUSH2 0x173 PUSH1 0x4 DUP1 CALLDATASIZE SUB DUP2 ADD SWAP1 PUSH2 0x16E SWAP2 SWAP1 PUSH2 0x1B6F JUMP JUMPDEST PUSH2 0x65C JUMP JUMPDEST PUSH1 0x40 MLOAD PUSH2 0x180 SWAP2 SWAP1 PUSH2 0x1BC9 JUMP JUMPDEST PUSH1 0x40 MLOAD DUP1 SWAP2 SUB SWAP1 RETURN JUMPDEST PUSH2 0x1A3 PUSH1 0x4 DUP1 CALLDATASIZE SUB DUP2 ADD SWAP1 PUSH2 0x19E SWAP2 SWAP1 PUSH2 0x1ADA JUMP JUMPDEST PUSH2 0x7CA JUMP JUMPDEST PUSH1 0x40 MLOAD PUSH2 0x1B0 SWAP2 SWAP1 PUSH2 0x1B14 JUMP JUMPDEST PUSH1 0x40 MLOAD DUP1 SWAP2 SUB SWAP1 RETURN JUMPDEST PUSH2 0x1C1 PUSH2 0x7DF JUMP JUMPDEST PUSH1 0x40 MLOAD PUSH2 0x1CE SWAP2 SWAP1 PUSH2 0x1B14 JUMP JUMPDEST PUSH1 0x40 MLOAD DUP1 SWAP2 SUB SWAP1 RETURN JUMPDEST PUSH2 0x1F1 PUSH1 0x4 DUP1 CALLDATASIZE SUB DUP2 ADD SWAP1 PUSH2 0x1EC SWAP2 SWAP1 PUSH2 0x1ADA JUMP JUMPDEST PUSH2 0x7E5 JUMP JUMPDEST PUSH1 0x40 MLOAD PUSH2 0x1FE SWAP2 SWAP1 PUSH2 0x1B14 JUMP JUMPDEST PUSH1 0x40 MLOAD DUP1 SWAP2 SUB SWAP1 RETURN JUMPDEST PUSH2 0x221 PUSH1 0x4 DUP1 CALLDATASIZE SUB DUP2 ADD SWAP1 PUSH2 0x21C SWAP2 SWAP1 PUSH2 0x1C15 JUMP JUMPDEST PUSH2 0x7FA JUMP JUMPDEST PUSH1 0x40 MLOAD PUSH2 0x231 SWAP5 SWAP4 SWAP3 SWAP2 SWAP1 PUSH2 0x1C4F JUMP JUMPDEST PUSH1 0x40 MLOAD DUP1 SWAP2 SUB SWAP1 RETURN JUMPDEST PUSH2 0x254 PUSH1 0x4 DUP1 CALLDATASIZE SUB DUP2 ADD SWAP1 PUSH2 0x24F SWAP2 SWAP1 PUSH2 0x1D41 JUMP JUMPDEST PUSH2 0x832 JUMP JUMPDEST PUSH1 0x40 MLOAD PUSH2 0x261 SWAP2 SWAP1 PUSH2 0x1BC9 JUMP JUMPDEST PUSH1 0x40 MLOAD DUP1 SWAP2 SUB SWAP1 RETURN JUMPDEST PUSH2 0x272 PUSH2 0xA93 JUMP JUMPDEST STOP JUMPDEST PUSH2 0x27C PUSH2 0xAA5 JUMP JUMPDEST PUSH1 0x40 MLOAD PUSH2 0x289 SWAP2 SWAP1 PUSH2 0x1BC9 JUMP JUMPDEST PUSH1 0x40 MLOAD DUP1 SWAP2 SUB SWAP1 RETURN JUMPDEST PUSH2 0x29A PUSH2 0xABA JUMP JUMPDEST STOP JUMPDEST PUSH2 0x2B6 PUSH1 0x4 DUP1 CALLDATASIZE SUB DUP2 ADD SWAP1 PUSH2 0x2B1 SWAP2 SWAP1 PUSH2 0x1C15 JUMP JUMPDEST PUSH2 0xACD JUMP JUMPDEST PUSH1 0x40 MLOAD PUSH2 0x2C3 SWAP2 SWAP1 PUSH2 0x1BC9 JUMP JUMPDEST PUSH1 0x40 MLOAD DUP1 SWAP2 SUB SWAP1 RETURN JUMPDEST PUSH2 0x2D4 PUSH2 0xAEA JUMP JUMPDEST STOP JUMPDEST PUSH2 0x2DE PUSH2 0xAFC JUMP JUMPDEST PUSH1 0x40 MLOAD PUSH2 0x2EB SWAP2 SWAP1 PUSH2 0x1DE6 JUMP JUMPDEST PUSH1 0x40 MLOAD DUP1 SWAP2 SUB SWAP1 RETURN JUMPDEST PUSH2 0x30E PUSH1 0x4 DUP1 CALLDATASIZE SUB DUP2 ADD SWAP1 PUSH2 0x309 SWAP2 SWAP1 PUSH2 0x1DFF JUMP JUMPDEST PUSH2 0xB23 JUMP JUMPDEST STOP JUMPDEST PUSH2 0x32A PUSH1 0x4 DUP1 CALLDATASIZE SUB DUP2 ADD SWAP1 PUSH2 0x325 SWAP2 SWAP1 PUSH2 0x1E2A JUMP JUMPDEST PUSH2 0xBA7 JUMP JUMPDEST PUSH1 0x40 MLOAD PUSH2 0x337 SWAP2 SWAP1 PUSH2 0x1B14 JUMP JUMPDEST PUSH1 0x40 MLOAD DUP1 SWAP2 SUB SWAP1 RETURN JUMPDEST PUSH2 0x35A PUSH1 0x4 DUP1 CALLDATASIZE SUB DUP2 ADD SWAP1 PUSH2 0x355 SWAP2 SWAP1 PUSH2 0x1ADA JUMP JUMPDEST PUSH2 0xBC7 JUMP JUMPDEST PUSH1 0x40 MLOAD PUSH2 0x367 SWAP2 SWAP1 PUSH2 0x1B14 JUMP JUMPDEST PUSH1 0x40 MLOAD DUP1 SWAP2 SUB SWAP1 RETURN JUMPDEST PUSH2 0x378 PUSH2 0xBDC JUMP JUMPDEST PUSH0 DUP3 DUP3 SWAP1 POP GT PUSH2 0x3BD JUMPI PUSH1 0x40 MLOAD PUSH32 0x8C379A000000000000000000000000000000000000000000000000000000000 DUP2 MSTORE PUSH1 0x4 ADD PUSH2 0x3B4 SWAP1 PUSH2 0x1EC2 JUMP JUMPDEST PUSH1 0x40 MLOAD DUP1 SWAP2 SUB SWAP1 REVERT JUMPDEST DUP6 PUSH0 PUSH1 0x2 DUP2 LT PUSH2 0x3D0 JUMPI PUSH2 0x3CF PUSH2 0x1EE0 JUMP JUMPDEST JUMPDEST PUSH1 0x20 MUL ADD CALLDATALOAD PUSH1 0x3 PUSH0 DUP1 DUP2 MSTORE PUSH1 0x20 ADD SWAP1 DUP2 MSTORE PUSH1 0x20 ADD PUSH0 KECCAK256 DUP2 SWAP1 SSTORE POP DUP6 PUSH1 0x1 PUSH1 0x2 DUP2 LT PUSH2 0x3FE JUMPI PUSH2 0x3FD PUSH2 0x1EE0 JUMP JUMPDEST JUMPDEST PUSH1 0x20 MUL ADD CALLDATALOAD PUSH1 0x3 PUSH0 PUSH1 0x1 DUP2 MSTORE PUSH1 0x20 ADD SWAP1 DUP2 MSTORE PUSH1 0x20 ADD PUSH0 KECCAK256 DUP2 SWAP1 SSTORE POP DUP5 PUSH0 PUSH1 0x2 DUP2 LT PUSH2 0x42C JUMPI PUSH2 0x42B PUSH2 0x1EE0 JUMP JUMPDEST JUMPDEST PUSH1 0x20 MUL ADD CALLDATALOAD PUSH1 0x4 PUSH0 DUP1 DUP2 MSTORE PUSH1 0x20 ADD SWAP1 DUP2 MSTORE PUSH1 0x20 ADD PUSH0 KECCAK256 DUP2 SWAP1 SSTORE POP DUP5 PUSH1 0x1 PUSH1 0x2 DUP2 LT PUSH2 0x45A JUMPI PUSH2 0x459 PUSH2 0x1EE0 JUMP JUMPDEST JUMPDEST PUSH1 0x20 MUL ADD CALLDATALOAD PUSH1 0x4 PUSH0 PUSH1 0x1 DUP2 MSTORE PUSH1 0x20 ADD SWAP1 DUP2 MSTORE PUSH1 0x20 ADD PUSH0 KECCAK256 DUP2 SWAP1 SSTORE POP DUP4 PUSH0 PUSH1 0x2 DUP2 LT PUSH2 0x488 JUMPI PUSH2 0x487 PUSH2 0x1EE0 JUMP JUMPDEST JUMPDEST PUSH1 0x20 MUL ADD CALLDATALOAD PUSH1 0x5 PUSH0 DUP1 DUP2 MSTORE PUSH1 0x20 ADD SWAP1 DUP2 MSTORE PUSH1 0x20 ADD PUSH0 KECCAK256 DUP2 SWAP1 SSTORE POP DUP4 PUSH1 0x1 PUSH1 0x2 DUP2 LT PUSH2 0x4B6 JUMPI PUSH2 0x4B5 PUSH2 0x1EE0 JUMP JUMPDEST JUMPDEST PUSH1 0x20 MUL ADD CALLDATALOAD PUSH1 0x5 PUSH0 PUSH1 0x1 DUP2 MSTORE PUSH1 0x20 ADD SWAP1 DUP2 MSTORE PUSH1 0x20 ADD PUSH0 KECCAK256 DUP2 SWAP1 SSTORE POP DUP3 PUSH0 PUSH1 0x2 DUP2 LT PUSH2 0x4E4 JUMPI PUSH2 0x4E3 PUSH2 0x1EE0 JUMP JUMPDEST JUMPDEST PUSH1 0x20 MUL ADD CALLDATALOAD PUSH1 0x6 PUSH0 DUP1 DUP2 MSTORE PUSH1 0x20 ADD SWAP1 DUP2 MSTORE PUSH1 0x20 ADD PUSH0 KECCAK256 DUP2 SWAP1 SSTORE POP DUP3 PUSH1 0x1 PUSH1 0x2 DUP2 LT PUSH2 0x512 JUMPI PUSH2 0x511 PUSH2 0x1EE0 JUMP JUMPDEST JUMPDEST PUSH1 0x20 MUL ADD CALLDATALOAD PUSH1 0x6 PUSH0 PUSH1 0x1 DUP2 MSTORE PUSH1 0x20 ADD SWAP1 DUP2 MSTORE PUSH1 0x20 ADD PUSH0 KECCAK256 DUP2 SWAP1 SSTORE POP DUP2 DUP2 SWAP1 POP PUSH1 0x8 DUP2 SWAP1 SSTORE POP PUSH0 JUMPDEST DUP3 DUP3 SWAP1 POP DUP2 LT ISZERO PUSH2 0x5FB JUMPI DUP3 DUP3 DUP3 DUP2 DUP2 LT PUSH2 0x557 JUMPI PUSH2 0x556 PUSH2 0x1EE0 JUMP JUMPDEST JUMPDEST SWAP1 POP PUSH1 0x40 MUL ADD PUSH0 PUSH1 0x2 DUP2 LT PUSH2 0x56F JUMPI PUSH2 0x56E PUSH2 0x1EE0 JUMP JUMPDEST JUMPDEST PUSH1 0x20 MUL ADD CALLDATALOAD PUSH1 0x7 PUSH0 DUP4 DUP2 MSTORE PUSH1 0x20 ADD SWAP1 DUP2 MSTORE PUSH1 0x20 ADD PUSH0 KECCAK256 PUSH0 DUP1 DUP2 MSTORE PUSH1 0x20 ADD SWAP1 DUP2 MSTORE PUSH1 0x20 ADD PUSH0 KECCAK256 DUP2 SWAP1 SSTORE POP DUP3 DUP3 DUP3 DUP2 DUP2 LT PUSH2 0x5AB JUMPI PUSH2 0x5AA PUSH2 0x1EE0 JUMP JUMPDEST JUMPDEST SWAP1 POP PUSH1 0x40 MUL ADD PUSH1 0x1 PUSH1 0x2 DUP2 LT PUSH2 0x5C4 JUMPI PUSH2 0x5C3 PUSH2 0x1EE0 JUMP JUMPDEST JUMPDEST PUSH1 0x20 MUL ADD CALLDATALOAD PUSH1 0x7 PUSH0 DUP4 DUP2 MSTORE PUSH1 0x20 ADD SWAP1 DUP2 MSTORE PUSH1 0x20 ADD PUSH0 KECCAK256 PUSH0 PUSH1 0x1 DUP2 MSTORE PUSH1 0x20 ADD SWAP1 DUP2 MSTORE PUSH1 0x20 ADD PUSH0 KECCAK256 DUP2 SWAP1 SSTORE POP DUP1 DUP1 PUSH1 0x1 ADD SWAP2 POP POP PUSH2 0x539 JUMP JUMPDEST POP CALLER PUSH20 0xFFFFFFFFFFFFFFFFFFFFFFFFFFFFFFFFFFFFFFFF AND PUSH32 0xC470D8977CB4E42289EB539C1960F641215874C98AFE7844C8201CA63887FD78 PUSH1 0x40 MLOAD PUSH1 0x40 MLOAD DUP1 SWAP2 SUB SWAP1 LOG2 POP POP POP POP POP POP JUMP JUMPDEST PUSH1 0x5 PUSH1 0x20 MSTORE DUP1 PUSH0 MSTORE PUSH1 0x40 PUSH0 KECCAK256 PUSH0 SWAP2 POP SWAP1 POP SLOAD DUP2 JUMP JUMPDEST PUSH0 PUSH2 0x7C2 PUSH1 0x40 MLOAD DUP1 PUSH1 0x40 ADD PUSH1 0x40 MSTORE DUP1 DUP6 PUSH0 PUSH1 0x8 DUP2 LT PUSH2 0x67E JUMPI PUSH2 0x67D PUSH2 0x1EE0 JUMP JUMPDEST JUMPDEST PUSH1 0x20 MUL ADD CALLDATALOAD DUP2 MSTORE PUSH1 0x20 ADD DUP6 PUSH1 0x1 PUSH1 0x8 DUP2 LT PUSH2 0x69C JUMPI PUSH2 0x69B PUSH2 0x1EE0 JUMP JUMPDEST JUMPDEST PUSH1 0x20 MUL ADD CALLDATALOAD DUP2 MSTORE POP PUSH1 0x40 MLOAD DUP1 PUSH1 0x40 ADD PUSH1 0x40 MSTORE DUP1 PUSH1 0x40 MLOAD DUP1 PUSH1 0x40 ADD PUSH1 0x40 MSTORE DUP1 DUP9 PUSH1 0x2 PUSH1 0x8 DUP2 LT PUSH2 0x6CE JUMPI PUSH2 0x6CD PUSH2 0x1EE0 JUMP JUMPDEST JUMPDEST PUSH1 0x20 MUL ADD CALLDATALOAD DUP2 MSTORE PUSH1 0x20 ADD DUP9 PUSH1 0x3 PUSH1 0x8 DUP2 LT PUSH2 0x6EC JUMPI PUSH2 0x6EB PUSH2 0x1EE0 JUMP JUMPDEST JUMPDEST PUSH1 0x20 MUL ADD CALLDATALOAD DUP2 MSTORE POP DUP2 MSTORE PUSH1 0x20 ADD PUSH1 0x40 MLOAD DUP1 PUSH1 0x40 ADD PUSH1 0x40 MSTORE DUP1 DUP9 PUSH1 0x4 PUSH1 0x8 DUP2 LT PUSH2 0x718 JUMPI PUSH2 0x717 PUSH2 0x1EE0 JUMP JUMPDEST JUMPDEST PUSH1 0x20 MUL ADD CALLDATALOAD DUP2 MSTORE PUSH1 0x20 ADD DUP9 PUSH1 0x5 PUSH1 0x8 DUP2 LT PUSH2 0x736 JUMPI PUSH2 0x735 PUSH2 0x1EE0 JUMP JUMPDEST JUMPDEST PUSH1 0x20 MUL ADD CALLDATALOAD DUP2 MSTORE POP DUP2 MSTORE POP PUSH1 0x40 MLOAD DUP1 PUSH1 0x40 ADD PUSH1 0x40 MSTORE DUP1 DUP8 PUSH1 0x6 PUSH1 0x8 DUP2 LT PUSH2 0x760 JUMPI PUSH2 0x75F PUSH2 0x1EE0 JUMP JUMPDEST JUMPDEST PUSH1 0x20 MUL ADD CALLDATALOAD DUP2 MSTORE PUSH1 0x20 ADD DUP8 PUSH1 0x7 PUSH1 0x8 DUP2 LT PUSH2 0x77E JUMPI PUSH2 0x77D PUSH2 0x1EE0 JUMP JUMPDEST JUMPDEST PUSH1 0x20 MUL ADD CALLDATALOAD DUP2 MSTORE POP DUP6 PUSH1 0x1 DUP1 PUSH1 0x20 MUL PUSH1 0x40 MLOAD SWAP1 DUP2 ADD PUSH1 0x40 MSTORE DUP1 SWAP3 SWAP2 SWAP1 DUP3 PUSH1 0x1 PUSH1 0x20 MUL DUP1 DUP3 DUP5 CALLDATACOPY PUSH0 DUP2 DUP5 ADD MSTORE PUSH1 0x1F NOT PUSH1 0x1F DUP3 ADD AND SWAP1 POP DUP1 DUP4 ADD SWAP3 POP POP POP POP POP POP PUSH2 0xC63 JUMP JUMPDEST SWAP1 POP SWAP3 SWAP2 POP POP JUMP JUMPDEST PUSH1 0x6 PUSH1 0x20 MSTORE DUP1 PUSH0 MSTORE PUSH1 0x40 PUSH0 KECCAK256 PUSH0 SWAP2 POP SWAP1 POP SLOAD DUP2 JUMP JUMPDEST PUSH1 0x8 SLOAD DUP2 JUMP JUMPDEST PUSH1 0x4 PUSH1 0x20 MSTORE DUP1 PUSH0 MSTORE PUSH1 0x40 PUSH0 KECCAK256 PUSH0 SWAP2 POP SWAP1 POP SLOAD DUP2 JUMP JUMPDEST PUSH1 0x9 PUSH1 0x20 MSTORE DUP1 PUSH0 MSTORE PUSH1 0x40 PUSH0 KECCAK256 PUSH0 SWAP2 POP SWAP1 POP DUP1 PUSH0 ADD SLOAD SWAP1 DUP1 PUSH1 0x1 ADD SLOAD SWAP1 DUP1 PUSH1 0x2 ADD SLOAD SWAP1 DUP1 PUSH1 0x3 ADD PUSH0 SWAP1 SLOAD SWAP1 PUSH2 0x100 EXP SWAP1 DIV PUSH1 0xFF AND SWAP1 POP DUP5 JUMP JUMPDEST PUSH0 PUSH2 0x83B PUSH2 0xF27 JUMP JUMPDEST PUSH2 0x843 PUSH2 0xF6D JUMP JUMPDEST PUSH1 0xA PUSH0 DUP8 DUP2 MSTORE PUSH1 0x20 ADD SWAP1 DUP2 MSTORE PUSH1 0x20 ADD PUSH0 KECCAK256 PUSH0 SWAP1 SLOAD SWAP1 PUSH2 0x100 EXP SWAP1 DIV PUSH1 0xFF AND ISZERO PUSH2 0x8A1 JUMPI PUSH1 0x40 MLOAD PUSH32 0x8C379A000000000000000000000000000000000000000000000000000000000 DUP2 MSTORE PUSH1 0x4 ADD PUSH2 0x898 SWAP1 PUSH2 0x1F57 JUMP JUMPDEST PUSH1 0x40 MLOAD DUP1 SWAP2 SUB SWAP1 REVERT JUMPDEST PUSH0 PUSH1 0x40 MLOAD DUP1 PUSH1 0x20 ADD PUSH1 0x40 MSTORE DUP1 DUP8 PUSH20 0xFFFFFFFFFFFFFFFFFFFFFFFFFFFFFFFFFFFFFFFF AND DUP2 MSTORE POP SWAP1 POP ADDRESS PUSH20 0xFFFFFFFFFFFFFFFFFFFFFFFFFFFFFFFFFFFFFFFF AND PUSH4 0x1B81F829 DUP6 DUP6 DUP2 ADD SWAP1 PUSH2 0x8F4 SWAP2 SWAP1 PUSH2 0x20AB JUMP JUMPDEST DUP4 PUSH1 0x40 MLOAD DUP4 PUSH4 0xFFFFFFFF AND PUSH1 0xE0 SHL DUP2 MSTORE PUSH1 0x4 ADD PUSH2 0x912 SWAP3 SWAP2 SWAP1 PUSH2 0x21FB JUMP JUMPDEST PUSH1 0x20 PUSH1 0x40 MLOAD DUP1 DUP4 SUB DUP2 DUP7 GAS STATICCALL ISZERO DUP1 ISZERO PUSH2 0x92D JUMPI RETURNDATASIZE PUSH0 DUP1 RETURNDATACOPY RETURNDATASIZE PUSH0 REVERT JUMPDEST POP POP POP POP PUSH1 0x40 MLOAD RETURNDATASIZE PUSH1 0x1F NOT PUSH1 0x1F DUP3 ADD AND DUP3 ADD DUP1 PUSH1 0x40 MSTORE POP DUP2 ADD SWAP1 PUSH2 0x951 SWAP2 SWAP1 PUSH2 0x224E JUMP JUMPDEST PUSH2 0x990 JUMPI PUSH1 0x40 MLOAD PUSH32 0x8C379A000000000000000000000000000000000000000000000000000000000 DUP2 MSTORE PUSH1 0x4 ADD PUSH2 0x987 SWAP1 PUSH2 0x22C3 JUMP JUMPDEST PUSH1 0x40 MLOAD DUP1 SWAP2 SUB SWAP1 REVERT JUMPDEST PUSH1 0x40 MLOAD DUP1 PUSH1 0x80 ADD PUSH1 0x40 MSTORE DUP1 DUP10 DUP2 MSTORE PUSH1 0x20 ADD DUP9 DUP2 MSTORE PUSH1 0x20 ADD TIMESTAMP DUP2 MSTORE PUSH1 0x20 ADD PUSH1 0x1 ISZERO ISZERO DUP2 MSTORE POP PUSH1 0x9 PUSH0 DUP11 DUP2 MSTORE PUSH1 0x20 ADD SWAP1 DUP2 MSTORE PUSH1 0x20 ADD PUSH0 KECCAK256 PUSH0 DUP3 ADD MLOAD DUP2 PUSH0 ADD SSTORE PUSH1 0x20 DUP3 ADD MLOAD DUP2 PUSH1 0x1 ADD SSTORE PUSH1 0x40 DUP3 ADD MLOAD DUP2 PUSH1 0x2 ADD SSTORE PUSH1 0x60 DUP3 ADD MLOAD DUP2 PUSH1 0x3 ADD PUSH0 PUSH2 0x100 EXP DUP2 SLOAD DUP2 PUSH1 0xFF MUL NOT AND SWAP1 DUP4 ISZERO ISZERO MUL OR SWAP1 SSTORE POP SWAP1 POP POP PUSH1 0x1 PUSH1 0xA PUSH0 DUP10 DUP2 MSTORE PUSH1 0x20 ADD SWAP1 DUP2 MSTORE PUSH1 0x20 ADD PUSH0 KECCAK256 PUSH0 PUSH2 0x100 EXP DUP2 SLOAD DUP2 PUSH1 0xFF MUL NOT AND SWAP1 DUP4 ISZERO ISZERO MUL OR SWAP1 SSTORE POP DUP6 PUSH20 0xFFFFFFFFFFFFFFFFFFFFFFFFFFFFFFFFFFFFFFFF AND DUP8 DUP10 PUSH32 0x9675C67EDB39D5AE53CD37192A12D34A8B4341D9955D37E70E0968C6962C32A4 TIMESTAMP PUSH1 0x40 MLOAD PUSH2 0xA74 SWAP2 SWAP1 PUSH2 0x1B14 JUMP JUMPDEST PUSH1 0x40 MLOAD DUP1 SWAP2 SUB SWAP1 LOG4 PUSH1 0x1 SWAP2 POP POP PUSH2 0xA89 PUSH2 0xFAE JUMP JUMPDEST SWAP7 SWAP6 POP POP POP POP POP POP JUMP JUMPDEST PUSH2 0xA9B PUSH2 0xBDC JUMP JUMPDEST PUSH2 0xAA3 PUSH2 0xFB7 JUMP JUMPDEST JUMP JUMPDEST PUSH0 PUSH1 0x2 PUSH0 SWAP1 SLOAD SWAP1 PUSH2 0x100 EXP SWAP1 DIV PUSH1 0xFF AND SWAP1 POP SWAP1 JUMP JUMPDEST PUSH2 0xAC2 PUSH2 0xBDC JUMP JUMPDEST PUSH2 0xACB PUSH0 PUSH2 0x1018 JUMP JUMPDEST JUMP JUMPDEST PUSH1 0xA PUSH1 0x20 MSTORE DUP1 PUSH0 MSTORE PUSH1 0x40 PUSH0 KECCAK256 PUSH0 SWAP2 POP SLOAD SWAP1 PUSH2 0x100 EXP SWAP1 DIV PUSH1 0xFF AND DUP2 JUMP JUMPDEST PUSH2 0xAF2 PUSH2 0xBDC JUMP JUMPDEST PUSH2 0xAFA PUSH2 0x10D9 JUMP JUMPDEST JUMP JUMPDEST PUSH0 DUP1 PUSH0 SWAP1 SLOAD SWAP1 PUSH2 0x100 EXP SWAP1 DIV PUSH20 0xFFFFFFFFFFFFFFFFFFFFFFFFFFFFFFFFFFFFFFFF AND SWAP1 POP SWAP1 JUMP JUMPDEST PUSH2 0xB2B PUSH2 0xBDC JUMP JUMPDEST PUSH0 PUSH20 0xFFFFFFFFFFFFFFFFFFFFFFFFFFFFFFFFFFFFFFFF AND DUP2 PUSH20 0xFFFFFFFFFFFFFFFFFFFFFFFFFFFFFFFFFFFFFFFF AND SUB PUSH2 0xB9B JUMPI PUSH0 PUSH1 0x40 MLOAD PUSH32 0x1E4FBDF700000000000000000000000000000000000000000000000000000000 DUP2 MSTORE PUSH1 0x4 ADD PUSH2 0xB92 SWAP2 SWAP1 PUSH2 0x1DE6 JUMP JUMPDEST PUSH1 0x40 MLOAD DUP1 SWAP2 SUB SWAP1 REVERT JUMPDEST PUSH2 0xBA4 DUP2 PUSH2 0x1018 JUMP JUMPDEST POP JUMP JUMPDEST PUSH1 0x7 PUSH1 0x20 MSTORE DUP2 PUSH0 MSTORE PUSH1 0x40 PUSH0 KECCAK256 PUSH1 0x20 MSTORE DUP1 PUSH0 MSTORE PUSH1 0x40 PUSH0 KECCAK256 PUSH0 SWAP2 POP SWAP2 POP POP SLOAD DUP2 JUMP JUMPDEST PUSH1 0x3 PUSH1 0x20 MSTORE DUP1 PUSH0 MSTORE PUSH1 0x40 PUSH0 KECCAK256 PUSH0 SWAP2 POP SWAP1 POP SLOAD DUP2 JUMP JUMPDEST PUSH2 0xBE4 PUSH2 0x113B JUMP JUMPDEST PUSH20 0xFFFFFFFFFFFFFFFFFFFFFFFFFFFFFFFFFFFFFFFF AND PUSH2 0xC02 PUSH2 0xAFC JUMP JUMPDEST PUSH20 0xFFFFFFFFFFFFFFFFFFFFFFFFFFFFFFFFFFFFFFFF AND EQ PUSH2 0xC61 JUMPI PUSH2 0xC25 PUSH2 0x113B JUMP JUMPDEST PUSH1 0x40 MLOAD PUSH32 0x118CDAA700000000000000000000000000000000000000000000000000000000 DUP2 MSTORE PUSH1 0x4 ADD PUSH2 0xC58 SWAP2 SWAP1 PUSH2 0x1DE6 JUMP JUMPDEST PUSH1 0x40 MLOAD DUP1 SWAP2 SUB SWAP1 REVERT JUMPDEST JUMP JUMPDEST PUSH0 PUSH1 0x8 SLOAD PUSH1 0x1 DUP1 PUSH2 0xC74 SWAP2 SWAP1 PUSH2 0x230E JUMP JUMPDEST EQ PUSH2 0xCB4 JUMPI PUSH1 0x40 MLOAD PUSH32 0x8C379A000000000000000000000000000000000000000000000000000000000 DUP2 MSTORE PUSH1 0x4 ADD PUSH2 0xCAB SWAP1 PUSH2 0x238B JUMP JUMPDEST PUSH1 0x40 MLOAD DUP1 SWAP2 SUB SWAP1 REVERT JUMPDEST PUSH0 PUSH1 0x40 MLOAD DUP1 PUSH1 0x40 ADD PUSH1 0x40 MSTORE DUP1 PUSH1 0x7 PUSH0 DUP1 DUP2 MSTORE PUSH1 0x20 ADD SWAP1 DUP2 MSTORE PUSH1 0x20 ADD PUSH0 KECCAK256 PUSH0 DUP1 DUP2 MSTORE PUSH1 0x20 ADD SWAP1 DUP2 MSTORE PUSH1 0x20 ADD PUSH0 KECCAK256 SLOAD DUP2 MSTORE PUSH1 0x20 ADD PUSH1 0x7 PUSH0 DUP1 DUP2 MSTORE PUSH1 0x20 ADD SWAP1 DUP2 MSTORE PUSH1 0x20 ADD PUSH0 KECCAK256 PUSH0 PUSH1 0x1 DUP2 MSTORE PUSH1 0x20 ADD SWAP1 DUP2 MSTORE PUSH1 0x20 ADD PUSH0 KECCAK256 SLOAD DUP2 MSTORE POP SWAP1 POP PUSH0 JUMPDEST PUSH1 0x1 DUP2 LT ISZERO PUSH2 0xE2F JUMPI PUSH0 DUP1 PUSH2 0xDA8 PUSH1 0x40 MLOAD DUP1 PUSH1 0x40 ADD PUSH1 0x40 MSTORE DUP1 PUSH1 0x7 PUSH0 PUSH1 0x1 DUP9 PUSH2 0xD38 SWAP2 SWAP1 PUSH2 0x230E JUMP JUMPDEST DUP2 MSTORE PUSH1 0x20 ADD SWAP1 DUP2 MSTORE PUSH1 0x20 ADD PUSH0 KECCAK256 PUSH0 DUP1 DUP2 MSTORE PUSH1 0x20 ADD SWAP1 DUP2 MSTORE PUSH1 0x20 ADD PUSH0 KECCAK256 SLOAD DUP2 MSTORE PUSH1 0x20 ADD PUSH1 0x7 PUSH0 PUSH1 0x1 DUP9 PUSH2 0xD6A SWAP2 SWAP1 PUSH2 0x230E JUMP JUMPDEST DUP2 MSTORE PUSH1 0x20 ADD SWAP1 DUP2 MSTORE PUSH1 0x20 ADD PUSH0 KECCAK256 PUSH0 PUSH1 0x1 DUP2 MSTORE PUSH1 0x20 ADD SWAP1 DUP2 MSTORE PUSH1 0x20 ADD PUSH0 KECCAK256 SLOAD DUP2 MSTORE POP DUP8 DUP6 PUSH1 0x1 DUP2 LT PUSH2 0xD9E JUMPI PUSH2 0xD9D PUSH2 0x1EE0 JUMP JUMPDEST JUMPDEST PUSH1 0x20 MUL ADD MLOAD PUSH2 0x1142 JUMP JUMPDEST SWAP2 POP SWAP2 POP PUSH2 0xDE7 DUP5 PUSH0 PUSH1 0x2 DUP2 LT PUSH2 0xDC2 JUMPI PUSH2 0xDC1 PUSH2 0x1EE0 JUMP JUMPDEST JUMPDEST PUSH1 0x20 MUL ADD MLOAD DUP6 PUSH1 0x1 PUSH1 0x2 DUP2 LT PUSH2 0xDDB JUMPI PUSH2 0xDDA PUSH2 0x1EE0 JUMP JUMPDEST JUMPDEST PUSH1 0x20 MUL ADD MLOAD DUP5 DUP5 PUSH2 0x1196 JUMP JUMPDEST DUP6 PUSH0 PUSH1 0x2 DUP2 LT PUSH2 0xDFA JUMPI PUSH2 0xDF9 PUSH2 0x1EE0 JUMP JUMPDEST JUMPDEST PUSH1 0x20 MUL ADD DUP7 PUSH1 0x1 PUSH1 0x2 DUP2 LT PUSH2 0xE12 JUMPI PUSH2 0xE11 PUSH2 0x1EE0 JUMP JUMPDEST JUMPDEST PUSH1 0x20 MUL ADD DUP3 DUP2 MSTORE POP DUP3 DUP2 MSTORE POP POP POP POP POP DUP1 DUP1 PUSH1 0x1 ADD SWAP2 POP POP PUSH2 0xD0F JUMP JUMPDEST POP PUSH2 0xF1C DUP7 DUP7 PUSH1 0x40 MLOAD DUP1 PUSH1 0x40 ADD PUSH1 0x40 MSTORE DUP1 PUSH1 0x3 PUSH0 DUP1 DUP2 MSTORE PUSH1 0x20 ADD SWAP1 DUP2 MSTORE PUSH1 0x20 ADD PUSH0 KECCAK256 SLOAD DUP2 MSTORE PUSH1 0x20 ADD PUSH1 0x3 PUSH0 PUSH1 0x1 DUP2 MSTORE PUSH1 0x20 ADD SWAP1 DUP2 MSTORE PUSH1 0x20 ADD PUSH0 KECCAK256 SLOAD DUP2 MSTORE POP PUSH1 0x40 MLOAD DUP1 PUSH1 0x40 ADD PUSH1 0x40 MSTORE DUP1 PUSH1 0x4 PUSH0 DUP1 DUP2 MSTORE PUSH1 0x20 ADD SWAP1 DUP2 MSTORE PUSH1 0x20 ADD PUSH0 KECCAK256 SLOAD DUP2 MSTORE PUSH1 0x20 ADD PUSH1 0x4 PUSH0 PUSH1 0x1 DUP2 MSTORE PUSH1 0x20 ADD SWAP1 DUP2 MSTORE PUSH1 0x20 ADD PUSH0 KECCAK256 SLOAD DUP2 MSTORE POP DUP6 PUSH1 0x40 MLOAD DUP1 PUSH1 0x40 ADD PUSH1 0x40 MSTORE DUP1 PUSH1 0x5 PUSH0 DUP1 DUP2 MSTORE PUSH1 0x20 ADD SWAP1 DUP2 MSTORE PUSH1 0x20 ADD PUSH0 KECCAK256 SLOAD DUP2 MSTORE PUSH1 0x20 ADD PUSH1 0x5 PUSH0 PUSH1 0x1 DUP2 MSTORE PUSH1 0x20 ADD SWAP1 DUP2 MSTORE PUSH1 0x20 ADD PUSH0 KECCAK256 SLOAD DUP2 MSTORE POP DUP11 PUSH1 0x40 MLOAD DUP1 PUSH1 0x40 ADD PUSH1 0x40 MSTORE DUP1 PUSH1 0x6 PUSH0 DUP1 DUP2 MSTORE PUSH1 0x20 ADD SWAP1 DUP2 MSTORE PUSH1 0x20 ADD PUSH0 KECCAK256 SLOAD DUP2 MSTORE PUSH1 0x20 ADD PUSH1 0x6 PUSH0 PUSH1 0x1 DUP2 MSTORE PUSH1 0x20 ADD SWAP1 DUP2 MSTORE PUSH1 0x20 ADD PUSH0 KECCAK256 SLOAD DUP2 MSTORE POP PUSH2 0x11BD JUMP JUMPDEST SWAP2 POP POP SWAP5 SWAP4 POP POP POP POP JUMP JUMPDEST PUSH1 0x2 PUSH1 0x1 SLOAD SUB PUSH2 0xF63 JUMPI PUSH1 0x40 MLOAD PUSH32 0x3EE5AEB500000000000000000000000000000000000000000000000000000000 DUP2 MSTORE PUSH1 0x4 ADD PUSH1 0x40 MLOAD DUP1 SWAP2 SUB SWAP1 REVERT JUMPDEST PUSH1 0x2 PUSH1 0x1 DUP2 SWAP1 SSTORE POP JUMP JUMPDEST PUSH2 0xF75 PUSH2 0xAA5 JUMP JUMPDEST ISZERO PUSH2 0xFAC JUMPI PUSH1 0x40 MLOAD PUSH32 0xD93C066500000000000000000000000000000000000000000000000000000000 DUP2 MSTORE PUSH1 0x4 ADD PUSH1 0x40 MLOAD DUP1 SWAP2 SUB SWAP1 REVERT JUMPDEST JUMP JUMPDEST PUSH1 0x1 DUP1 DUP2 SWAP1 SSTORE POP JUMP JUMPDEST PUSH2 0xFBF PUSH2 0x188D JUMP JUMPDEST PUSH0 PUSH1 0x2 PUSH0 PUSH2 0x100 EXP DUP2 SLOAD DUP2 PUSH1 0xFF MUL NOT AND SWAP1 DUP4 ISZERO ISZERO MUL OR SWAP1 SSTORE POP PUSH32 0x5DB9EE0A495BF2E6FF9C91A7834C1BA4FDD244A5E8AA4E537BD38AEAE4B073AA PUSH2 0x1001 PUSH2 0x113B JUMP JUMPDEST PUSH1 0x40 MLOAD PUSH2 0x100E SWAP2 SWAP1 PUSH2 0x1DE6 JUMP JUMPDEST PUSH1 0x40 MLOAD DUP1 SWAP2 SUB SWAP1 LOG1 JUMP JUMPDEST PUSH0 DUP1 PUSH0 SWAP1 SLOAD SWAP1 PUSH2 0x100 EXP SWAP1 DIV PUSH20 0xFFFFFFFFFFFFFFFFFFFFFFFFFFFFFFFFFFFFFFFF AND SWAP1 POP DUP2 PUSH0 DUP1 PUSH2 0x100 EXP DUP2 SLOAD DUP2 PUSH20 0xFFFFFFFFFFFFFFFFFFFFFFFFFFFFFFFFFFFFFFFF MUL NOT AND SWAP1 DUP4 PUSH20 0xFFFFFFFFFFFFFFFFFFFFFFFFFFFFFFFFFFFFFFFF AND MUL OR SWAP1 SSTORE POP DUP2 PUSH20 0xFFFFFFFFFFFFFFFFFFFFFFFFFFFFFFFFFFFFFFFF AND DUP2 PUSH20 0xFFFFFFFFFFFFFFFFFFFFFFFFFFFFFFFFFFFFFFFF AND PUSH32 0x8BE0079C531659141344CD1FD0A4F28419497F9722A3DAAFE3B4186F6B6457E0 PUSH1 0x40 MLOAD PUSH1 0x40 MLOAD DUP1 SWAP2 SUB SWAP1 LOG3 POP POP JUMP JUMPDEST PUSH2 0x10E1 PUSH2 0xF6D JUMP JUMPDEST PUSH1 0x1 PUSH1 0x2 PUSH0 PUSH2 0x100 EXP DUP2 SLOAD DUP2 PUSH1 0xFF MUL NOT AND SWAP1 DUP4 ISZERO ISZERO MUL OR SWAP1 SSTORE POP PUSH32 0x62E78CEA01BEE320CD4E420270B5EA74000D11B0C9F74754EBDBFC544B05A258 PUSH2 0x1124 PUSH2 0x113B JUMP JUMPDEST PUSH1 0x40 MLOAD PUSH2 0x1131 SWAP2 SWAP1 PUSH2 0x1DE6 JUMP JUMPDEST PUSH1 0x40 MLOAD DUP1 SWAP2 SUB SWAP1 LOG1 JUMP JUMPDEST PUSH0 CALLER SWAP1 POP SWAP1 JUMP JUMPDEST PUSH0 DUP1 DUP3 DUP5 PUSH0 PUSH1 0x2 DUP2 LT PUSH2 0x1158 JUMPI PUSH2 0x1157 PUSH2 0x1EE0 JUMP JUMPDEST JUMPDEST PUSH1 0x20 MUL ADD MLOAD PUSH2 0x1167 SWAP2 SWAP1 PUSH2 0x23A9 JUMP JUMPDEST DUP4 DUP6 PUSH1 0x1 PUSH1 0x2 DUP2 LT PUSH2 0x117C JUMPI PUSH2 0x117B PUSH2 0x1EE0 JUMP JUMPDEST JUMPDEST PUSH1 0x20 MUL ADD MLOAD PUSH2 0x118B SWAP2 SWAP1 PUSH2 0x23A9 JUMP JUMPDEST SWAP2 POP SWAP2 POP SWAP3 POP SWAP3 SWAP1 POP JUMP JUMPDEST PUSH0 DUP1 DUP4 DUP7 PUSH2 0x11A4 SWAP2 SWAP1 PUSH2 0x230E JUMP JUMPDEST DUP4 DUP7 PUSH2 0x11B0 SWAP2 SWAP1 PUSH2 0x230E JUMP JUMPDEST SWAP2 POP SWAP2 POP SWAP5 POP SWAP5 SWAP3 POP POP POP JUMP JUMPDEST PUSH0 PUSH2 0x11C6 PUSH2 0x1937 JUMP JUMPDEST PUSH2 0x11FF DUP11 PUSH0 PUSH1 0x2 DUP2 LT PUSH2 0x11DC JUMPI PUSH2 0x11DB PUSH2 0x1EE0 JUMP JUMPDEST JUMPDEST PUSH1 0x20 MUL ADD MLOAD DUP12 PUSH1 0x1 PUSH1 0x2 DUP2 LT PUSH2 0x11F5 JUMPI PUSH2 0x11F4 PUSH2 0x1EE0 JUMP JUMPDEST JUMPDEST PUSH1 0x20 MUL ADD MLOAD PUSH2 0x18CD JUMP JUMPDEST DUP12 PUSH0 PUSH1 0x2 DUP2 LT PUSH2 0x1212 JUMPI PUSH2 0x1211 PUSH2 0x1EE0 JUMP JUMPDEST JUMPDEST PUSH1 0x20 MUL ADD DUP13 PUSH1 0x1 PUSH1 0x2 DUP2 LT PUSH2 0x122A JUMPI PUSH2 0x1229 PUSH2 0x1EE0 JUMP JUMPDEST JUMPDEST PUSH1 0x20 MUL ADD DUP3 DUP2 MSTORE POP DUP3 DUP2 MSTORE POP POP POP PUSH2 0x1271 DUP5 PUSH0 PUSH1 0x2 DUP2 LT PUSH2 0x124E JUMPI PUSH2 0x124D PUSH2 0x1EE0 JUMP JUMPDEST JUMPDEST PUSH1 0x20 MUL ADD MLOAD DUP6 PUSH1 0x1 PUSH1 0x2 DUP2 LT PUSH2 0x1267 JUMPI PUSH2 0x1266 PUSH2 0x1EE0 JUMP JUMPDEST JUMPDEST PUSH1 0x20 MUL ADD MLOAD PUSH2 0x18CD JUMP JUMPDEST DUP6 PUSH0 PUSH1 0x2 DUP2 LT PUSH2 0x1284 JUMPI PUSH2 0x1283 PUSH2 0x1EE0 JUMP JUMPDEST JUMPDEST PUSH1 0x20 MUL ADD DUP7 PUSH1 0x1 PUSH1 0x2 DUP2 LT PUSH2 0x129C JUMPI PUSH2 0x129B PUSH2 0x1EE0 JUMP JUMPDEST JUMPDEST PUSH1 0x20 MUL ADD DUP3 DUP2 MSTORE POP DUP3 DUP2 MSTORE POP POP POP DUP10 PUSH0 PUSH1 0x2 DUP2 LT PUSH2 0x12BD JUMPI PUSH2 0x12BC PUSH2 0x1EE0 JUMP JUMPDEST JUMPDEST PUSH1 0x20 MUL ADD MLOAD DUP2 PUSH0 PUSH1 0x18 DUP2 LT PUSH2 0x12D5 JUMPI PUSH2 0x12D4 PUSH2 0x1EE0 JUMP JUMPDEST JUMPDEST PUSH1 0x20 MUL ADD DUP2 DUP2 MSTORE POP POP DUP10 PUSH1 0x1 PUSH1 0x2 DUP2 LT PUSH2 0x12F2 JUMPI PUSH2 0x12F1 PUSH2 0x1EE0 JUMP JUMPDEST JUMPDEST PUSH1 0x20 MUL ADD MLOAD DUP2 PUSH1 0x1 PUSH1 0x18 DUP2 LT PUSH2 0x130B JUMPI PUSH2 0x130A PUSH2 0x1EE0 JUMP JUMPDEST JUMPDEST PUSH1 0x20 MUL ADD DUP2 DUP2 MSTORE POP POP DUP9 PUSH0 PUSH1 0x2 DUP2 LT PUSH2 0x1327 JUMPI PUSH2 0x1326 PUSH2 0x1EE0 JUMP JUMPDEST JUMPDEST PUSH1 0x20 MUL ADD MLOAD PUSH0 PUSH1 0x2 DUP2 LT PUSH2 0x133E JUMPI PUSH2 0x133D PUSH2 0x1EE0 JUMP JUMPDEST JUMPDEST PUSH1 0x20 MUL ADD MLOAD DUP2 PUSH1 0x2 PUSH1 0x18 DUP2 LT PUSH2 0x1357 JUMPI PUSH2 0x1356 PUSH2 0x1EE0 JUMP JUMPDEST JUMPDEST PUSH1 0x20 MUL ADD DUP2 DUP2 MSTORE POP POP DUP9 PUSH0 PUSH1 0x2 DUP2 LT PUSH2 0x1373 JUMPI PUSH2 0x1372 PUSH2 0x1EE0 JUMP JUMPDEST JUMPDEST PUSH1 0x20 MUL ADD MLOAD PUSH1 0x1 PUSH1 0x2 DUP2 LT PUSH2 0x138B JUMPI PUSH2 0x138A PUSH2 0x1EE0 JUMP JUMPDEST JUMPDEST PUSH1 0x20 MUL ADD MLOAD DUP2 PUSH1 0x3 PUSH1 0x18 DUP2 LT PUSH2 0x13A4 JUMPI PUSH2 0x13A3 PUSH2 0x1EE0 JUMP JUMPDEST JUMPDEST PUSH1 0x20 MUL ADD DUP2 DUP2 MSTORE POP POP DUP9 PUSH1 0x1 PUSH1 0x2 DUP2 LT PUSH2 0x13C1 JUMPI PUSH2 0x13C0 PUSH2 0x1EE0 JUMP JUMPDEST JUMPDEST PUSH1 0x20 MUL ADD MLOAD PUSH0 PUSH1 0x2 DUP2 LT PUSH2 0x13D8 JUMPI PUSH2 0x13D7 PUSH2 0x1EE0 JUMP JUMPDEST JUMPDEST PUSH1 0x20 MUL ADD MLOAD DUP2 PUSH1 0x4 PUSH1 0x18 DUP2 LT PUSH2 0x13F1 JUMPI PUSH2 0x13F0 PUSH2 0x1EE0 JUMP JUMPDEST JUMPDEST PUSH1 0x20 MUL ADD DUP2 DUP2 MSTORE POP POP DUP9 PUSH1 0x1 PUSH1 0x2 DUP2 LT PUSH2 0x140E JUMPI PUSH2 0x140D PUSH2 0x1EE0 JUMP JUMPDEST JUMPDEST PUSH1 0x20 MUL ADD MLOAD PUSH1 0x1 PUSH1 0x2 DUP2 LT PUSH2 0x1426 JUMPI PUSH2 0x1425 PUSH2 0x1EE0 JUMP JUMPDEST JUMPDEST PUSH1 0x20 MUL ADD MLOAD DUP2 PUSH1 0x5 PUSH1 0x18 DUP2 LT PUSH2 0x143F JUMPI PUSH2 0x143E PUSH2 0x1EE0 JUMP JUMPDEST JUMPDEST PUSH1 0x20 MUL ADD DUP2 DUP2 MSTORE POP POP DUP8 PUSH0 PUSH1 0x2 DUP2 LT PUSH2 0x145B JUMPI PUSH2 0x145A PUSH2 0x1EE0 JUMP JUMPDEST JUMPDEST PUSH1 0x20 MUL ADD MLOAD DUP2 PUSH1 0x6 PUSH1 0x18 DUP2 LT PUSH2 0x1474 JUMPI PUSH2 0x1473 PUSH2 0x1EE0 JUMP JUMPDEST JUMPDEST PUSH1 0x20 MUL ADD DUP2 DUP2 MSTORE POP POP DUP8 PUSH1 0x1 PUSH1 0x2 DUP2 LT PUSH2 0x1491 JUMPI PUSH2 0x1490 PUSH2 0x1EE0 JUMP JUMPDEST JUMPDEST PUSH1 0x20 MUL ADD MLOAD DUP2 PUSH1 0x7 PUSH1 0x18 DUP2 LT PUSH2 0x14AA JUMPI PUSH2 0x14A9 PUSH2 0x1EE0 JUMP JUMPDEST JUMPDEST PUSH1 0x20 MUL ADD DUP2 DUP2 MSTORE POP POP DUP7 PUSH0 PUSH1 0x2 DUP2 LT PUSH2 0x14C6 JUMPI PUSH2 0x14C5 PUSH2 0x1EE0 JUMP JUMPDEST JUMPDEST PUSH1 0x20 MUL ADD MLOAD DUP2 PUSH1 0x8 PUSH1 0x18 DUP2 LT PUSH2 0x14DF JUMPI PUSH2 0x14DE PUSH2 0x1EE0 JUMP JUMPDEST JUMPDEST PUSH1 0x20 MUL ADD DUP2 DUP2 MSTORE POP POP DUP7 PUSH1 0x1 PUSH1 0x2 DUP2 LT PUSH2 0x14FC JUMPI PUSH2 0x14FB PUSH2 0x1EE0 JUMP JUMPDEST JUMPDEST PUSH1 0x20 MUL ADD MLOAD DUP2 PUSH1 0x9 PUSH1 0x18 DUP2 LT PUSH2 0x1515 JUMPI PUSH2 0x1514 PUSH2 0x1EE0 JUMP JUMPDEST JUMPDEST PUSH1 0x20 MUL ADD DUP2 DUP2 MSTORE POP POP DUP7 PUSH0 PUSH1 0x2 DUP2 LT PUSH2 0x1531 JUMPI PUSH2 0x1530 PUSH2 0x1EE0 JUMP JUMPDEST JUMPDEST PUSH1 0x20 MUL ADD MLOAD DUP2 PUSH1 0xA PUSH1 0x18 DUP2 LT PUSH2 0x154A JUMPI PUSH2 0x1549 PUSH2 0x1EE0 JUMP JUMPDEST JUMPDEST PUSH1 0x20 MUL ADD DUP2 DUP2 MSTORE POP POP DUP7 PUSH1 0x1 PUSH1 0x2 DUP2 LT PUSH2 0x1567 JUMPI PUSH2 0x1566 PUSH2 0x1EE0 JUMP JUMPDEST JUMPDEST PUSH1 0x20 MUL ADD MLOAD DUP2 PUSH1 0xB PUSH1 0x18 DUP2 LT PUSH2 0x1580 JUMPI PUSH2 0x157F PUSH2 0x1EE0 JUMP JUMPDEST JUMPDEST PUSH1 0x20 MUL ADD DUP2 DUP2 MSTORE POP POP DUP6 PUSH0 PUSH1 0x2 DUP2 LT PUSH2 0x159C JUMPI PUSH2 0x159B PUSH2 0x1EE0 JUMP JUMPDEST JUMPDEST PUSH1 0x20 MUL ADD MLOAD DUP2 PUSH1 0xC PUSH1 0x18 DUP2 LT PUSH2 0x15B5 JUMPI PUSH2 0x15B4 PUSH2 0x1EE0 JUMP JUMPDEST JUMPDEST PUSH1 0x20 MUL ADD DUP2 DUP2 MSTORE POP POP DUP6 PUSH1 0x1 PUSH1 0x2 DUP2 LT PUSH2 0x15D2 JUMPI PUSH2 0x15D1 PUSH2 0x1EE0 JUMP JUMPDEST JUMPDEST PUSH1 0x20 MUL ADD MLOAD DUP2 PUSH1 0xD PUSH1 0x18 DUP2 LT PUSH2 0x15EB JUMPI PUSH2 0x15EA PUSH2 0x1EE0 JUMP JUMPDEST JUMPDEST PUSH1 0x20 MUL ADD DUP2 DUP2 MSTORE POP POP DUP5 PUSH0 PUSH1 0x2 DUP2 LT PUSH2 0x1607 JUMPI PUSH2 0x1606 PUSH2 0x1EE0 JUMP JUMPDEST JUMPDEST PUSH1 0x20 MUL ADD MLOAD DUP2 PUSH1 0xE PUSH1 0x18 DUP2 LT PUSH2 0x1620 JUMPI PUSH2 0x161F PUSH2 0x1EE0 JUMP JUMPDEST JUMPDEST PUSH1 0x20 MUL ADD DUP2 DUP2 MSTORE POP POP DUP5 PUSH1 0x1 PUSH1 0x2 DUP2 LT PUSH2 0x163D JUMPI PUSH2 0x163C PUSH2 0x1EE0 JUMP JUMPDEST JUMPDEST PUSH1 0x20 MUL ADD MLOAD DUP2 PUSH1 0xF PUSH1 0x18 DUP2 LT PUSH2 0x1656 JUMPI PUSH2 0x1655 PUSH2 0x1EE0 JUMP JUMPDEST JUMPDEST PUSH1 0x20 MUL ADD DUP2 DUP2 MSTORE POP POP DUP5 PUSH0 PUSH1 0x2 DUP2 LT PUSH2 0x1672 JUMPI PUSH2 0x1671 PUSH2 0x1EE0 JUMP JUMPDEST JUMPDEST PUSH1 0x20 MUL ADD MLOAD DUP2 PUSH1 0x10 PUSH1 0x18 DUP2 LT PUSH2 0x168B JUMPI PUSH2 0x168A PUSH2 0x1EE0 JUMP JUMPDEST JUMPDEST PUSH1 0x20 MUL ADD DUP2 DUP2 MSTORE POP POP DUP5 PUSH1 0x1 PUSH1 0x2 DUP2 LT PUSH2 0x16A8 JUMPI PUSH2 0x16A7 PUSH2 0x1EE0 JUMP JUMPDEST JUMPDEST PUSH1 0x20 MUL ADD MLOAD DUP2 PUSH1 0x11 PUSH1 0x18 DUP2 LT PUSH2 0x16C1 JUMPI PUSH2 0x16C0 PUSH2 0x1EE0 JUMP JUMPDEST JUMPDEST PUSH1 0x20 MUL ADD DUP2 DUP2 MSTORE POP POP DUP4 PUSH0 PUSH1 0x2 DUP2 LT PUSH2 0x16DD JUMPI PUSH2 0x16DC PUSH2 0x1EE0 JUMP JUMPDEST JUMPDEST PUSH1 0x20 MUL ADD MLOAD DUP2 PUSH1 0x12 PUSH1 0x18 DUP2 LT PUSH2 0x16F6 JUMPI PUSH2 0x16F5 PUSH2 0x1EE0 JUMP JUMPDEST JUMPDEST PUSH1 0x20 MUL ADD DUP2 DUP2 MSTORE POP POP DUP4 PUSH1 0x1 PUSH1 0x2 DUP2 LT PUSH2 0x1713 JUMPI PUSH2 0x1712 PUSH2 0x1EE0 JUMP JUMPDEST JUMPDEST PUSH1 0x20 MUL ADD MLOAD DUP2 PUSH1 0x13 PUSH1 0x18 DUP2 LT PUSH2 0x172C JUMPI PUSH2 0x172B PUSH2 0x1EE0 JUMP JUMPDEST JUMPDEST PUSH1 0x20 MUL ADD DUP2 DUP2 MSTORE POP POP DUP3 PUSH0 PUSH1 0x2 DUP2 LT PUSH2 0x1748 JUMPI PUSH2 0x1747 PUSH2 0x1EE0 JUMP JUMPDEST JUMPDEST PUSH1 0x20 MUL ADD MLOAD DUP2 PUSH1 0x14 PUSH1 0x18 DUP2 LT PUSH2 0x1761 JUMPI PUSH2 0x1760 PUSH2 0x1EE0 JUMP JUMPDEST JUMPDEST PUSH1 0x20 MUL ADD DUP2 DUP2 MSTORE POP POP DUP3 PUSH1 0x1 PUSH1 0x2 DUP2 LT PUSH2 0x177E JUMPI PUSH2 0x177D PUSH2 0x1EE0 JUMP JUMPDEST JUMPDEST PUSH1 0x20 MUL ADD MLOAD DUP2 PUSH1 0x15 PUSH1 0x18 DUP2 LT PUSH2 0x1797 JUMPI PUSH2 0x1796 PUSH2 0x1EE0 JUMP JUMPDEST JUMPDEST PUSH1 0x20 MUL ADD DUP2 DUP2 MSTORE POP POP DUP3 PUSH0 PUSH1 0x2 DUP2 LT PUSH2 0x17B3 JUMPI PUSH2 0x17B2 PUSH2 0x1EE0 JUMP JUMPDEST JUMPDEST PUSH1 0x20 MUL ADD MLOAD DUP2 PUSH1 0x16 PUSH1 0x18 DUP2 LT PUSH2 0x17CC JUMPI PUSH2 0x17CB PUSH2 0x1EE0 JUMP JUMPDEST JUMPDEST PUSH1 0x20 MUL ADD DUP2 DUP2 MSTORE POP POP DUP3 PUSH1 0x1 PUSH1 0x2 DUP2 LT PUSH2 0x17E9 JUMPI PUSH2 0x17E8 PUSH2 0x1EE0 JUMP JUMPDEST JUMPDEST PUSH1 0x20 MUL ADD MLOAD DUP2 PUSH1 0x17 PUSH1 0x18 DUP2 LT PUSH2 0x1802 JUMPI PUSH2 0x1801 PUSH2 0x1EE0 JUMP JUMPDEST JUMPDEST PUSH1 0x20 MUL ADD DUP2 DUP2 MSTORE POP POP PUSH2 0x1813 PUSH2 0x195A JUMP JUMPDEST PUSH0 PUSH1 0x20 DUP3 PUSH2 0x180 DUP6 PUSH1 0x8 GAS STATICCALL SWAP1 POP DUP1 PUSH2 0x1861 JUMPI PUSH1 0x40 MLOAD PUSH32 0x8C379A000000000000000000000000000000000000000000000000000000000 DUP2 MSTORE PUSH1 0x4 ADD PUSH2 0x1858 SWAP1 PUSH2 0x2434 JUMP JUMPDEST PUSH1 0x40 MLOAD DUP1 SWAP2 SUB SWAP1 REVERT JUMPDEST PUSH1 0x1 DUP3 PUSH0 PUSH1 0x1 DUP2 LT PUSH2 0x1876 JUMPI PUSH2 0x1875 PUSH2 0x1EE0 JUMP JUMPDEST JUMPDEST PUSH1 0x20 MUL ADD MLOAD EQ SWAP4 POP POP POP POP SWAP9 SWAP8 POP POP POP POP POP POP POP POP JUMP JUMPDEST PUSH2 0x1895 PUSH2 0xAA5 JUMP JUMPDEST PUSH2 0x18CB JUMPI PUSH1 0x40 MLOAD PUSH32 0x8DFC202B00000000000000000000000000000000000000000000000000000000 DUP2 MSTORE PUSH1 0x4 ADD PUSH1 0x40 MLOAD DUP1 SWAP2 SUB SWAP1 REVERT JUMPDEST JUMP JUMPDEST PUSH0 DUP1 PUSH0 PUSH32 0x30644E72E131A029B85045B68181585D97816A916871CA8D3C208C16D87CFD47 SWAP1 POP PUSH0 DUP6 EQ DUP1 ISZERO PUSH2 0x1901 JUMPI POP PUSH0 DUP5 EQ JUMPDEST ISZERO PUSH2 0x1912 JUMPI PUSH0 DUP1 SWAP3 POP SWAP3 POP POP PUSH2 0x1930 JUMP JUMPDEST DUP5 DUP2 DUP6 PUSH2 0x191F SWAP2 SWAP1 PUSH2 0x247F JUMP JUMPDEST DUP3 PUSH2 0x192A SWAP2 SWAP1 PUSH2 0x24AF JUMP JUMPDEST SWAP3 POP SWAP3 POP POP JUMPDEST SWAP3 POP SWAP3 SWAP1 POP JUMP JUMPDEST PUSH1 0x40 MLOAD DUP1 PUSH2 0x300 ADD PUSH1 0x40 MSTORE DUP1 PUSH1 0x18 SWAP1 PUSH1 0x20 DUP3 MUL DUP1 CALLDATASIZE DUP4 CALLDATACOPY DUP1 DUP3 ADD SWAP2 POP POP SWAP1 POP POP SWAP1 JUMP JUMPDEST PUSH1 0x40 MLOAD DUP1 PUSH1 0x20 ADD PUSH1 0x40 MSTORE DUP1 PUSH1 0x1 SWAP1 PUSH1 0x20 DUP3 MUL DUP1 CALLDATASIZE DUP4 CALLDATACOPY DUP1 DUP3 ADD SWAP2 POP POP SWAP1 POP POP SWAP1 JUMP JUMPDEST PUSH0 PUSH1 0x40 MLOAD SWAP1 POP SWAP1 JUMP JUMPDEST PUSH0 DUP1 REVERT JUMPDEST PUSH0 DUP1 REVERT JUMPDEST PUSH0 DUP1 REVERT JUMPDEST PUSH0 DUP2 SWAP1 POP DUP3 PUSH1 0x20 PUSH1 0x2 MUL DUP3 ADD GT ISZERO PUSH2 0x19AC JUMPI PUSH2 0x19AB PUSH2 0x198D JUMP JUMPDEST JUMPDEST SWAP3 SWAP2 POP POP JUMP JUMPDEST PUSH0 DUP1 REVERT JUMPDEST PUSH0 DUP1 REVERT JUMPDEST PUSH0 DUP1 DUP4 PUSH1 0x1F DUP5 ADD SLT PUSH2 0x19CF JUMPI PUSH2 0x19CE PUSH2 0x19B2 JUMP JUMPDEST JUMPDEST DUP3 CALLDATALOAD SWAP1 POP PUSH8 0xFFFFFFFFFFFFFFFF DUP2 GT ISZERO PUSH2 0x19EC JUMPI PUSH2 0x19EB PUSH2 0x19B6 JUMP JUMPDEST JUMPDEST PUSH1 0x20 DUP4 ADD SWAP2 POP DUP4 PUSH1 0x40 DUP3 MUL DUP4 ADD GT ISZERO PUSH2 0x1A08 JUMPI PUSH2 0x1A07 PUSH2 0x198D JUMP JUMPDEST JUMPDEST SWAP3 POP SWAP3 SWAP1 POP JUMP JUMPDEST PUSH0 DUP1 PUSH0 DUP1 PUSH0 DUP1 PUSH2 0x120 DUP8 DUP10 SUB SLT ISZERO PUSH2 0x1A2A JUMPI PUSH2 0x1A29 PUSH2 0x1985 JUMP JUMPDEST JUMPDEST PUSH0 PUSH2 0x1A37 DUP10 DUP3 DUP11 ADD PUSH2 0x1991 JUMP JUMPDEST SWAP7 POP POP PUSH1 0x40 PUSH2 0x1A48 DUP10 DUP3 DUP11 ADD PUSH2 0x1991 JUMP JUMPDEST SWAP6 POP POP PUSH1 0x80 PUSH2 0x1A59 DUP10 DUP3 DUP11 ADD PUSH2 0x1991 JUMP JUMPDEST SWAP5 POP POP PUSH1 0xC0 PUSH2 0x1A6A DUP10 DUP3 DUP11 ADD PUSH2 0x1991 JUMP JUMPDEST SWAP4 POP POP PUSH2 0x100 DUP8 ADD CALLDATALOAD PUSH8 0xFFFFFFFFFFFFFFFF DUP2 GT ISZERO PUSH2 0x1A8C JUMPI PUSH2 0x1A8B PUSH2 0x1989 JUMP JUMPDEST JUMPDEST PUSH2 0x1A98 DUP10 DUP3 DUP11 ADD PUSH2 0x19BA JUMP JUMPDEST SWAP3 POP SWAP3 POP POP SWAP3 SWAP6 POP SWAP3 SWAP6 POP SWAP3 SWAP6 JUMP JUMPDEST PUSH0 DUP2 SWAP1 POP SWAP2 SWAP1 POP JUMP JUMPDEST PUSH2 0x1AB9 DUP2 PUSH2 0x1AA7 JUMP JUMPDEST DUP2 EQ PUSH2 0x1AC3 JUMPI PUSH0 DUP1 REVERT JUMPDEST POP JUMP JUMPDEST PUSH0 DUP2 CALLDATALOAD SWAP1 POP PUSH2 0x1AD4 DUP2 PUSH2 0x1AB0 JUMP JUMPDEST SWAP3 SWAP2 POP POP JUMP JUMPDEST PUSH0 PUSH1 0x20 DUP3 DUP5 SUB SLT ISZERO PUSH2 0x1AEF JUMPI PUSH2 0x1AEE PUSH2 0x1985 JUMP JUMPDEST JUMPDEST PUSH0 PUSH2 0x1AFC DUP5 DUP3 DUP6 ADD PUSH2 0x1AC6 JUMP JUMPDEST SWAP2 POP POP SWAP3 SWAP2 POP POP JUMP JUMPDEST PUSH2 0x1B0E DUP2 PUSH2 0x1AA7 JUMP JUMPDEST DUP3 MSTORE POP POP JUMP JUMPDEST PUSH0 PUSH1 0x20 DUP3 ADD SWAP1 POP PUSH2 0x1B27 PUSH0 DUP4 ADD DUP5 PUSH2 0x1B05 JUMP JUMPDEST SWAP3 SWAP2 POP POP JUMP JUMPDEST PUSH0 DUP2 SWAP1 POP DUP3 PUSH1 0x20 PUSH1 0x8 MUL DUP3 ADD GT ISZERO PUSH2 0x1B48 JUMPI PUSH2 0x1B47 PUSH2 0x198D JUMP JUMPDEST JUMPDEST SWAP3 SWAP2 POP POP JUMP JUMPDEST PUSH0 DUP2 SWAP1 POP DUP3 PUSH1 0x20 PUSH1 0x1 MUL DUP3 ADD GT ISZERO PUSH2 0x1B69 JUMPI PUSH2 0x1B68 PUSH2 0x198D JUMP JUMPDEST JUMPDEST SWAP3 SWAP2 POP POP JUMP JUMPDEST PUSH0 DUP1 PUSH2 0x120 DUP4 DUP6 SUB SLT ISZERO PUSH2 0x1B86 JUMPI PUSH2 0x1B85 PUSH2 0x1985 JUMP JUMPDEST JUMPDEST PUSH0 PUSH2 0x1B93 DUP6 DUP3 DUP7 ADD PUSH2 0x1B2D JUMP JUMPDEST SWAP3 POP POP PUSH2 0x100 PUSH2 0x1BA5 DUP6 DUP3 DUP7 ADD PUSH2 0x1B4E JUMP JUMPDEST SWAP2 POP POP SWAP3 POP SWAP3 SWAP1 POP JUMP JUMPDEST PUSH0 DUP2 ISZERO ISZERO SWAP1 POP SWAP2 SWAP1 POP JUMP JUMPDEST PUSH2 0x1BC3 DUP2 PUSH2 0x1BAF JUMP JUMPDEST DUP3 MSTORE POP POP JUMP JUMPDEST PUSH0 PUSH1 0x20 DUP3 ADD SWAP1 POP PUSH2 0x1BDC PUSH0 DUP4 ADD DUP5 PUSH2 0x1BBA JUMP JUMPDEST SWAP3 SWAP2 POP POP JUMP JUMPDEST PUSH0 DUP2 SWAP1 POP SWAP2 SWAP1 POP JUMP JUMPDEST PUSH2 0x1BF4 DUP2 PUSH2 0x1BE2 JUMP JUMPDEST DUP2 EQ PUSH2 0x1BFE JUMPI PUSH0 DUP1 REVERT JUMPDEST POP JUMP JUMPDEST PUSH0 DUP2 CALLDATALOAD SWAP1 POP PUSH2 0x1C0F DUP2 PUSH2 0x1BEB JUMP JUMPDEST SWAP3 SWAP2 POP POP JUMP JUMPDEST PUSH0 PUSH1 0x20 DUP3 DUP5 SUB SLT ISZERO PUSH2 0x1C2A JUMPI PUSH2 0x1C29 PUSH2 0x1985 JUMP JUMPDEST JUMPDEST PUSH0 PUSH2 0x1C37 DUP5 DUP3 DUP6 ADD PUSH2 0x1C01 JUMP JUMPDEST SWAP2 POP POP SWAP3 SWAP2 POP POP JUMP JUMPDEST PUSH2 0x1C49 DUP2 PUSH2 0x1BE2 JUMP JUMPDEST DUP3 MSTORE POP POP JUMP JUMPDEST PUSH0 PUSH1 0x80 DUP3 ADD SWAP1 POP PUSH2 0x1C62 PUSH0 DUP4 ADD DUP8 PUSH2 0x1C40 JUMP JUMPDEST PUSH2 0x1C6F PUSH1 0x20 DUP4 ADD DUP7 PUSH2 0x1C40 JUMP JUMPDEST PUSH2 0x1C7C PUSH1 0x40 DUP4 ADD DUP6 PUSH2 0x1B05 JUMP JUMPDEST PUSH2 0x1C89 PUSH1 0x60 DUP4 ADD DUP5 PUSH2 0x1BBA JUMP JUMPDEST SWAP6 SWAP5 POP POP POP POP POP JUMP JUMPDEST PUSH0 PUSH20 0xFFFFFFFFFFFFFFFFFFFFFFFFFFFFFFFFFFFFFFFF DUP3 AND SWAP1 POP SWAP2 SWAP1 POP JUMP JUMPDEST PUSH0 PUSH2 0x1CBB DUP3 PUSH2 0x1C92 JUMP JUMPDEST SWAP1 POP SWAP2 SWAP1 POP JUMP JUMPDEST PUSH2 0x1CCB DUP2 PUSH2 0x1CB1 JUMP JUMPDEST DUP2 EQ PUSH2 0x1CD5 JUMPI PUSH0 DUP1 REVERT JUMPDEST POP JUMP JUMPDEST PUSH0 DUP2 CALLDATALOAD SWAP1 POP PUSH2 0x1CE6 DUP2 PUSH2 0x1CC2 JUMP JUMPDEST SWAP3 SWAP2 POP POP JUMP JUMPDEST PUSH0 DUP1 DUP4 PUSH1 0x1F DUP5 ADD SLT PUSH2 0x1D01 JUMPI PUSH2 0x1D00 PUSH2 0x19B2 JUMP JUMPDEST JUMPDEST DUP3 CALLDATALOAD SWAP1 POP PUSH8 0xFFFFFFFFFFFFFFFF DUP2 GT ISZERO PUSH2 0x1D1E JUMPI PUSH2 0x1D1D PUSH2 0x19B6 JUMP JUMPDEST JUMPDEST PUSH1 0x20 DUP4 ADD SWAP2 POP DUP4 PUSH1 0x1 DUP3 MUL DUP4 ADD GT ISZERO PUSH2 0x1D3A JUMPI PUSH2 0x1D39 PUSH2 0x198D JUMP JUMPDEST JUMPDEST SWAP3 POP SWAP3 SWAP1 POP JUMP JUMPDEST PUSH0 DUP1 PUSH0 DUP1 PUSH0 DUP1 PUSH1 0xA0 DUP8 DUP10 SUB SLT ISZERO PUSH2 0x1D5B JUMPI PUSH2 0x1D5A PUSH2 0x1985 JUMP JUMPDEST JUMPDEST PUSH0 PUSH2 0x1D68 DUP10 DUP3 DUP11 ADD PUSH2 0x1C01 JUMP JUMPDEST SWAP7 POP POP PUSH1 0x20 PUSH2 0x1D79 DUP10 DUP3 DUP11 ADD PUSH2 0x1C01 JUMP JUMPDEST SWAP6 POP POP PUSH1 0x40 PUSH2 0x1D8A DUP10 DUP3 DUP11 ADD PUSH2 0x1CD8 JUMP JUMPDEST SWAP5 POP POP PUSH1 0x60 PUSH2 0x1D9B DUP10 DUP3 DUP11 ADD PUSH2 0x1CD8 JUMP JUMPDEST SWAP4 POP POP PUSH1 0x80 DUP8 ADD CALLDATALOAD PUSH8 0xFFFFFFFFFFFFFFFF DUP2 GT ISZERO PUSH2 0x1DBC JUMPI PUSH2 0x1DBB PUSH2 0x1989 JUMP JUMPDEST JUMPDEST PUSH2 0x1DC8 DUP10 DUP3 DUP11 ADD PUSH2 0x1CEC JUMP JUMPDEST SWAP3 POP SWAP3 POP POP SWAP3 SWAP6 POP SWAP3 SWAP6 POP SWAP3 SWAP6 JUMP JUMPDEST PUSH2 0x1DE0 DUP2 PUSH2 0x1CB1 JUMP JUMPDEST DUP3 MSTORE POP POP JUMP JUMPDEST PUSH0 PUSH1 0x20 DUP3 ADD SWAP1 POP PUSH2 0x1DF9 PUSH0 DUP4 ADD DUP5 PUSH2 0x1DD7 JUMP JUMPDEST SWAP3 SWAP2 POP POP JUMP JUMPDEST PUSH0 PUSH1 0x20 DUP3 DUP5 SUB SLT ISZERO PUSH2 0x1E14 JUMPI PUSH2 0x1E13 PUSH2 0x1985 JUMP JUMPDEST JUMPDEST PUSH0 PUSH2 0x1E21 DUP5 DUP3 DUP6 ADD PUSH2 0x1CD8 JUMP JUMPDEST SWAP2 POP POP SWAP3 SWAP2 POP POP JUMP JUMPDEST PUSH0 DUP1 PUSH1 0x40 DUP4 DUP6 SUB SLT ISZERO PUSH2 0x1E40 JUMPI PUSH2 0x1E3F PUSH2 0x1985 JUMP JUMPDEST JUMPDEST PUSH0 PUSH2 0x1E4D DUP6 DUP3 DUP7 ADD PUSH2 0x1AC6 JUMP JUMPDEST SWAP3 POP POP PUSH1 0x20 PUSH2 0x1E5E DUP6 DUP3 DUP7 ADD PUSH2 0x1AC6 JUMP JUMPDEST SWAP2 POP POP SWAP3 POP SWAP3 SWAP1 POP JUMP JUMPDEST PUSH0 DUP3 DUP3 MSTORE PUSH1 0x20 DUP3 ADD SWAP1 POP SWAP3 SWAP2 POP POP JUMP JUMPDEST PUSH32 0x496E76616C6964204943206C656E677468000000000000000000000000000000 PUSH0 DUP3 ADD MSTORE POP JUMP JUMPDEST PUSH0 PUSH2 0x1EAC PUSH1 0x11 DUP4 PUSH2 0x1E68 JUMP JUMPDEST SWAP2 POP PUSH2 0x1EB7 DUP3 PUSH2 0x1E78 JUMP JUMPDEST PUSH1 0x20 DUP3 ADD SWAP1 POP SWAP2 SWAP1 POP JUMP JUMPDEST PUSH0 PUSH1 0x20 DUP3 ADD SWAP1 POP DUP2 DUP2 SUB PUSH0 DUP4 ADD MSTORE PUSH2 0x1ED9 DUP2 PUSH2 0x1EA0 JUMP JUMPDEST SWAP1 POP SWAP2 SWAP1 POP JUMP JUMPDEST PUSH32 0x4E487B7100000000000000000000000000000000000000000000000000000000 PUSH0 MSTORE PUSH1 0x32 PUSH1 0x4 MSTORE PUSH1 0x24 PUSH0 REVERT JUMPDEST PUSH32 0x4E756C6C696669657220616C7265616479207573656400000000000000000000 PUSH0 DUP3 ADD MSTORE POP JUMP JUMPDEST PUSH0 PUSH2 0x1F41 PUSH1 0x16 DUP4 PUSH2 0x1E68 JUMP JUMPDEST SWAP2 POP PUSH2 0x1F4C DUP3 PUSH2 0x1F0D JUMP JUMPDEST PUSH1 0x20 DUP3 ADD SWAP1 POP SWAP2 SWAP1 POP JUMP JUMPDEST PUSH0 PUSH1 0x20 DUP3 ADD SWAP1 POP DUP2 DUP2 SUB PUSH0 DUP4 ADD MSTORE PUSH2 0x1F6E DUP2 PUSH2 0x1F35 JUMP JUMPDEST SWAP1 POP SWAP2 SWAP1 POP JUMP JUMPDEST PUSH0 PUSH1 0x1F NOT PUSH1 0x1F DUP4 ADD AND SWAP1 POP SWAP2 SWAP1 POP JUMP JUMPDEST PUSH32 0x4E487B7100000000000000000000000000000000000000000000000000000000 PUSH0 MSTORE PUSH1 0x41 PUSH1 0x4 MSTORE PUSH1 0x24 PUSH0 REVERT JUMPDEST PUSH2 0x1FBB DUP3 PUSH2 0x1F75 JUMP JUMPDEST DUP2 ADD DUP2 DUP2 LT PUSH8 0xFFFFFFFFFFFFFFFF DUP3 GT OR ISZERO PUSH2 0x1FDA JUMPI PUSH2 0x1FD9 PUSH2 0x1F85 JUMP JUMPDEST JUMPDEST DUP1 PUSH1 0x40 MSTORE POP POP POP JUMP JUMPDEST PUSH0 PUSH2 0x1FEC PUSH2 0x197C JUMP JUMPDEST SWAP1 POP PUSH2 0x1FF8 DUP3 DUP3 PUSH2 0x1FB2 JUMP JUMPDEST SWAP2 SWAP1 POP JUMP JUMPDEST PUSH0 PUSH8 0xFFFFFFFFFFFFFFFF DUP3 GT ISZERO PUSH2 0x2017 JUMPI PUSH2 0x2016 PUSH2 0x1F85 JUMP JUMPDEST JUMPDEST PUSH1 0x20 DUP3 MUL SWAP1 POP SWAP2 SWAP1 POP JUMP JUMPDEST PUSH0 PUSH2 0x2034 PUSH2 0x202F DUP5 PUSH2 0x1FFD JUMP JUMPDEST PUSH2 0x1FE3 JUMP JUMPDEST SWAP1 POP DUP1 PUSH1 0x20 DUP5 MUL DUP4 ADD DUP6 DUP2 GT ISZERO PUSH2 0x204E JUMPI PUSH2 0x204D PUSH2 0x198D JUMP JUMPDEST JUMPDEST DUP4 JUMPDEST DUP2 DUP2 LT ISZERO PUSH2 0x2077 JUMPI DUP1 PUSH2 0x2063 DUP9 DUP3 PUSH2 0x1AC6 JUMP JUMPDEST DUP5 MSTORE PUSH1 0x20 DUP5 ADD SWAP4 POP POP PUSH1 0x20 DUP2 ADD SWAP1 POP PUSH2 0x2050 JUMP JUMPDEST POP POP POP SWAP4 SWAP3 POP POP POP JUMP JUMPDEST PUSH0 DUP3 PUSH1 0x1F DUP4 ADD SLT PUSH2 0x2095 JUMPI PUSH2 0x2094 PUSH2 0x19B2 JUMP JUMPDEST JUMPDEST PUSH1 0x8 PUSH2 0x20A2 DUP5 DUP3 DUP6 PUSH2 0x2022 JUMP JUMPDEST SWAP2 POP POP SWAP3 SWAP2 POP POP JUMP JUMPDEST PUSH0 PUSH2 0x100 DUP3 DUP5 SUB SLT ISZERO PUSH2 0x20C1 JUMPI PUSH2 0x20C0 PUSH2 0x1985 JUMP JUMPDEST JUMPDEST PUSH0 PUSH2 0x20CE DUP5 DUP3 DUP6 ADD PUSH2 0x2081 JUMP JUMPDEST SWAP2 POP POP SWAP3 SWAP2 POP POP JUMP JUMPDEST PUSH0 PUSH1 0x8 SWAP1 POP SWAP2 SWAP1 POP JUMP JUMPDEST PUSH0 DUP2 SWAP1 POP SWAP3 SWAP2 POP POP JUMP JUMPDEST PUSH0 DUP2 SWAP1 POP SWAP2 SWAP1 POP JUMP JUMPDEST PUSH2 0x20FD DUP2 PUSH2 0x1AA7 JUMP JUMPDEST DUP3 MSTORE POP POP JUMP JUMPDEST PUSH0 PUSH2 0x210E DUP4 DUP4 PUSH2 0x20F4 JUMP JUMPDEST PUSH1 0x20 DUP4 ADD SWAP1 POP SWAP3 SWAP2 POP POP JUMP JUMPDEST PUSH0 PUSH1 0x20 DUP3 ADD SWAP1 POP SWAP2 SWAP1 POP JUMP JUMPDEST PUSH2 0x212F DUP2 PUSH2 0x20D7 JUMP JUMPDEST PUSH2 0x2139 DUP2 DUP5 PUSH2 0x20E1 JUMP JUMPDEST SWAP3 POP PUSH2 0x2144 DUP3 PUSH2 0x20EB JUMP JUMPDEST DUP1 PUSH0 JUMPDEST DUP4 DUP2 LT ISZERO PUSH2 0x2174 JUMPI DUP2 MLOAD PUSH2 0x215B DUP8 DUP3 PUSH2 0x2103 JUMP JUMPDEST SWAP7 POP PUSH2 0x2166 DUP4 PUSH2 0x211A JUMP JUMPDEST SWAP3 POP POP PUSH1 0x1 DUP2 ADD SWAP1 POP PUSH2 0x2147 JUMP JUMPDEST POP POP POP POP POP POP JUMP JUMPDEST PUSH0 PUSH1 0x1 SWAP1 POP SWAP2 SWAP1 POP JUMP JUMPDEST PUSH0 DUP2 SWAP1 POP SWAP3 SWAP2 POP POP JUMP JUMPDEST PUSH0 DUP2 SWAP1 POP SWAP2 SWAP1 POP JUMP JUMPDEST PUSH0 PUSH1 0x20 DUP3 ADD SWAP1 POP SWAP2 SWAP1 POP JUMP JUMPDEST PUSH2 0x21AE DUP2 PUSH2 0x217C JUMP JUMPDEST PUSH2 0x21B8 DUP2 DUP5 PUSH2 0x2186 JUMP JUMPDEST SWAP3 POP PUSH2 0x21C3 DUP3 PUSH2 0x2190 JUMP JUMPDEST DUP1 PUSH0 JUMPDEST DUP4 DUP2 LT ISZERO PUSH2 0x21F3 JUMPI DUP2 MLOAD PUSH2 0x21DA DUP8 DUP3 PUSH2 0x2103 JUMP JUMPDEST SWAP7 POP PUSH2 0x21E5 DUP4 PUSH2 0x2199 JUMP JUMPDEST SWAP3 POP POP PUSH1 0x1 DUP2 ADD SWAP1 POP PUSH2 0x21C6 JUMP JUMPDEST POP POP POP POP POP POP JUMP JUMPDEST PUSH0 PUSH2 0x120 DUP3 ADD SWAP1 POP PUSH2 0x220F PUSH0 DUP4 ADD DUP6 PUSH2 0x2126 JUMP JUMPDEST PUSH2 0x221D PUSH2 0x100 DUP4 ADD DUP5 PUSH2 0x21A5 JUMP JUMPDEST SWAP4 SWAP3 POP POP POP JUMP JUMPDEST PUSH2 0x222D DUP2 PUSH2 0x1BAF JUMP JUMPDEST DUP2 EQ PUSH2 0x2237 JUMPI PUSH0 DUP1 REVERT JUMPDEST POP JUMP JUMPDEST PUSH0 DUP2 MLOAD SWAP1 POP PUSH2 0x2248 DUP2 PUSH2 0x2224 JUMP JUMPDEST SWAP3 SWAP2 POP POP JUMP JUMPDEST PUSH0 PUSH1 0x20 DUP3 DUP5 SUB SLT ISZERO PUSH2 0x2263 JUMPI PUSH2 0x2262 PUSH2 0x1985 JUMP JUMPDEST JUMPDEST PUSH0 PUSH2 0x2270 DUP5 DUP3 DUP6 ADD PUSH2 0x223A JUMP JUMPDEST SWAP2 POP POP SWAP3 SWAP2 POP POP JUMP JUMPDEST PUSH32 0x496E76616C69642070726F6F6600000000000000000000000000000000000000 PUSH0 DUP3 ADD MSTORE POP JUMP JUMPDEST PUSH0 PUSH2 0x22AD PUSH1 0xD DUP4 PUSH2 0x1E68 JUMP JUMPDEST SWAP2 POP PUSH2 0x22B8 DUP3 PUSH2 0x2279 JUMP JUMPDEST PUSH1 0x20 DUP3 ADD SWAP1 POP SWAP2 SWAP1 POP JUMP JUMPDEST PUSH0 PUSH1 0x20 DUP3 ADD SWAP1 POP DUP2 DUP2 SUB PUSH0 DUP4 ADD MSTORE PUSH2 0x22DA DUP2 PUSH2 0x22A1 JUMP JUMPDEST SWAP1 POP SWAP2 SWAP1 POP JUMP JUMPDEST PUSH32 0x4E487B7100000000000000000000000000000000000000000000000000000000 PUSH0 MSTORE PUSH1 0x11 PUSH1 0x4 MSTORE PUSH1 0x24 PUSH0 REVERT JUMPDEST PUSH0 PUSH2 0x2318 DUP3 PUSH2 0x1AA7 JUMP JUMPDEST SWAP2 POP PUSH2 0x2323 DUP4 PUSH2 0x1AA7 JUMP JUMPDEST SWAP3 POP DUP3 DUP3 ADD SWAP1 POP DUP1 DUP3 GT ISZERO PUSH2 0x233B JUMPI PUSH2 0x233A PUSH2 0x22E1 JUMP JUMPDEST JUMPDEST SWAP3 SWAP2 POP POP JUMP JUMPDEST PUSH32 0x496E76616C696420696E707574206C656E677468000000000000000000000000 PUSH0 DUP3 ADD MSTORE POP JUMP JUMPDEST PUSH0 PUSH2 0x2375 PUSH1 0x14 DUP4 PUSH2 0x1E68 JUMP JUMPDEST SWAP2 POP PUSH2 0x2380 DUP3 PUSH2 0x2341 JUMP JUMPDEST PUSH1 0x20 DUP3 ADD SWAP1 POP SWAP2 SWAP1 POP JUMP JUMPDEST PUSH0 PUSH1 0x20 DUP3 ADD SWAP1 POP DUP2 DUP2 SUB PUSH0 DUP4 ADD MSTORE PUSH2 0x23A2 DUP2 PUSH2 0x2369 JUMP JUMPDEST SWAP1 POP SWAP2 SWAP1 POP JUMP JUMPDEST PUSH0 PUSH2 0x23B3 DUP3 PUSH2 0x1AA7 JUMP JUMPDEST SWAP2 POP PUSH2 0x23BE DUP4 PUSH2 0x1AA7 JUMP JUMPDEST SWAP3 POP DUP3 DUP3 MUL PUSH2 0x23CC DUP2 PUSH2 0x1AA7 JUMP JUMPDEST SWAP2 POP DUP3 DUP3 DIV DUP5 EQ DUP4 ISZERO OR PUSH2 0x23E3 JUMPI PUSH2 0x23E2 PUSH2 0x22E1 JUMP JUMPDEST JUMPDEST POP SWAP3 SWAP2 POP POP JUMP JUMPDEST PUSH32 0x50616972696E6720636865636B206661696C6564000000000000000000000000 PUSH0 DUP3 ADD MSTORE POP JUMP JUMPDEST PUSH0 PUSH2 0x241E PUSH1 0x14 DUP4 PUSH2 0x1E68 JUMP JUMPDEST SWAP2 POP PUSH2 0x2429 DUP3 PUSH2 0x23EA JUMP JUMPDEST PUSH1 0x20 DUP3 ADD SWAP1 POP SWAP2 SWAP1 POP JUMP JUMPDEST PUSH0 PUSH1 0x20 DUP3 ADD SWAP1 POP DUP2 DUP2 SUB PUSH0 DUP4 ADD MSTORE PUSH2 0x244B DUP2 PUSH2 0x2412 JUMP JUMPDEST SWAP1 POP SWAP2 SWAP1 POP JUMP JUMPDEST PUSH32 0x4E487B7100000000000000000000000000000000000000000000000000000000 PUSH0 MSTORE PUSH1 0x12 PUSH1 0x4 MSTORE PUSH1 0x24 PUSH0 REVERT JUMPDEST PUSH0 PUSH2 0x2489 DUP3 PUSH2 0x1AA7 JUMP JUMPDEST SWAP2 POP PUSH2 0x2494 DUP4 PUSH2 0x1AA7 JUMP JUMPDEST SWAP3 POP DUP3 PUSH2 0x24A4 JUMPI PUSH2 0x24A3 PUSH2 0x2452 JUMP JUMPDEST JUMPDEST DUP3 DUP3 MOD SWAP1 POP SWAP3 SWAP2 POP POP JUMP JUMPDEST PUSH0 PUSH2 0x24B9 DUP3 PUSH2 0x1AA7 JUMP JUMPDEST SWAP2 POP PUSH2 0x24C4 DUP4 PUSH2 0x1AA7 JUMP JUMPDEST SWAP3 POP DUP3 DUP3 SUB SWAP1 POP DUP2 DUP2 GT ISZERO PUSH2 0x24DC JUMPI PUSH2 0x24DB PUSH2 0x22E1 JUMP JUMPDEST JUMPDEST SWAP3 SWAP2 POP POP JUMP INVALID LOG2 PUSH5 0x6970667358 0x22 SLT KECCAK256 MUL LOG3 0xDF 0xCC GT 0xD3 0xB1 0x4F 0xC3 DUP8 0xB8 0xDB PUSH4 0xE9711397 PUSH32 0x6844E12D25791528C18490DEC1BF64736F6C634300081A003300000000000000 "
				},
				"gasEstimates": {
					"creation": {
						"codeDepositCost": "1899200",
						"executionCost": "infinite",
						"totalCost": "infinite"
					},
					"external": {
						"alpha1Components(uint256)": "infinite",
						"beta2Components(uint256)": "infinite",
						"delta2Components(uint256)": "infinite",
						"gamma2Components(uint256)": "infinite",
						"icComponents(uint256,uint256)": "infinite",
						"icLength()": "2448",
						"initializeVerificationKey(uint256[2],uint256[2],uint256[2],uint256[2],uint256[2][])": "infinite",
						"messages(bytes32)": "infinite",
						"nullifierUsed(bytes32)": "2874",
						"owner()": "2559",
						"pause()": "infinite",
						"paused()": "2518",
						"renounceOwnership()": "infinite",
						"transferOwnership(address)": "infinite",
						"unpause()": "infinite",
						"verifyMessageProof(bytes32,bytes32,address,address,bytes)": "infinite",
						"verifyProof(uint256[8],uint256[1])": "infinite"
					},
					"internal": {
						"_isOnCurve(uint256,uint256)": "infinite",
						"_negate(uint256,uint256)": "infinite",
						"_pointAdd(uint256,uint256,uint256,uint256)": "infinite",
						"_scalarMul(uint256[2] memory,uint256)": "infinite",
						"_verifyPairing(uint256[2] memory,uint256[2] memory[2] memory,uint256[2] memory,uint256[2] memory,uint256[2] memory,uint256[2] memory,uint256[2] memory,uint256[2] memory)": "infinite",
						"_verifyProof(uint256[2] memory,uint256[2] memory[2] memory,uint256[2] memory,uint256[1] memory)": "infinite"
					}
				},
				"methodIdentifiers": {
					"alpha1Components(uint256)": "ff625fc3",
					"beta2Components(uint256)": "281e8383",
					"delta2Components(uint256)": "230a0ab0",
					"gamma2Components(uint256)": "19880295",
					"icComponents(uint256,uint256)": "fc8221a9",
					"icLength()": "280ee92a",
					"initializeVerificationKey(uint256[2],uint256[2],uint256[2],uint256[2],uint256[2][])": "12202ec6",
					"messages(bytes32)": "2bbd59ca",
					"nullifierUsed(bytes32)": "7ecf686d",
					"owner()": "8da5cb5b",
					"pause()": "8456cb59",
					"paused()": "5c975abb",
					"renounceOwnership()": "715018a6",
					"transferOwnership(address)": "f2fde38b",
					"unpause()": "3f4ba83a",
					"verifyMessageProof(bytes32,bytes32,address,address,bytes)": "2e269540",
					"verifyProof(uint256[8],uint256[1])": "1b81f829"
				}
			},
			"storageLayout": {
				"storage": [
					{
						"astId": 8,
						"contract": "privacy/zkp/MessageProver.sol:MessageProver",
						"label": "_owner",
						"offset": 0,
						"slot": "0",
						"type": "t_address"
					},
					{
						"astId": 305,
						"contract": "privacy/zkp/MessageProver.sol:MessageProver",
						"label": "_status",
						"offset": 0,
						"slot": "1",
						"type": "t_uint256"
					},
					{
						"astId": 186,
						"contract": "privacy/zkp/MessageProver.sol:MessageProver",
						"label": "_paused",
						"offset": 0,
						"slot": "2",
						"type": "t_bool"
					},
					{
						"astId": 514,
						"contract": "privacy/zkp/MessageProver.sol:MessageProver",
						"label": "alpha1Components",
						"offset": 0,
						"slot": "3",
						"type": "t_mapping(t_uint256,t_uint256)"
					},
					{
						"astId": 518,
						"contract": "privacy/zkp/MessageProver.sol:MessageProver",
						"label": "beta2Components",
						"offset": 0,
						"slot": "4",
						"type": "t_mapping(t_uint256,t_uint256)"
					},
					{
						"astId": 522,
						"contract": "privacy/zkp/MessageProver.sol:MessageProver",
						"label": "gamma2Components",
						"offset": 0,
						"slot": "5",
						"type": "t_mapping(t_uint256,t_uint256)"
					},
					{
						"astId": 526,
						"contract": "privacy/zkp/MessageProver.sol:MessageProver",
						"label": "delta2Components",
						"offset": 0,
						"slot": "6",
						"type": "t_mapping(t_uint256,t_uint256)"
					},
					{
						"astId": 532,
						"contract": "privacy/zkp/MessageProver.sol:MessageProver",
						"label": "icComponents",
						"offset": 0,
						"slot": "7",
						"type": "t_mapping(t_uint256,t_mapping(t_uint256,t_uint256))"
					},
					{
						"astId": 534,
						"contract": "privacy/zkp/MessageProver.sol:MessageProver",
						"label": "icLength",
						"offset": 0,
						"slot": "8",
						"type": "t_uint256"
					},
					{
						"astId": 548,
						"contract": "privacy/zkp/MessageProver.sol:MessageProver",
						"label": "messages",
						"offset": 0,
						"slot": "9",
						"type": "t_mapping(t_bytes32,t_struct(MessageCommitment)543_storage)"
					},
					{
						"astId": 552,
						"contract": "privacy/zkp/MessageProver.sol:MessageProver",
						"label": "nullifierUsed",
						"offset": 0,
						"slot": "10",
						"type": "t_mapping(t_bytes32,t_bool)"
					}
				],
				"types": {
					"t_address": {
						"encoding": "inplace",
						"label": "address",
						"numberOfBytes": "20"
					},
					"t_bool": {
						"encoding": "inplace",
						"label": "bool",
						"numberOfBytes": "1"
					},
					"t_bytes32": {
						"encoding": "inplace",
						"label": "bytes32",
						"numberOfBytes": "32"
					},
					"t_mapping(t_bytes32,t_bool)": {
						"encoding": "mapping",
						"key": "t_bytes32",
						"label": "mapping(bytes32 => bool)",
						"numberOfBytes": "32",
						"value": "t_bool"
					},
					"t_mapping(t_bytes32,t_struct(MessageCommitment)543_storage)": {
						"encoding": "mapping",
						"key": "t_bytes32",
						"label": "mapping(bytes32 => struct MessageProver.MessageCommitment)",
						"numberOfBytes": "32",
						"value": "t_struct(MessageCommitment)543_storage"
					},
					"t_mapping(t_uint256,t_mapping(t_uint256,t_uint256))": {
						"encoding": "mapping",
						"key": "t_uint256",
						"label": "mapping(uint256 => mapping(uint256 => uint256))",
						"numberOfBytes": "32",
						"value": "t_mapping(t_uint256,t_uint256)"
					},
					"t_mapping(t_uint256,t_uint256)": {
						"encoding": "mapping",
						"key": "t_uint256",
						"label": "mapping(uint256 => uint256)",
						"numberOfBytes": "32",
						"value": "t_uint256"
					},
					"t_struct(MessageCommitment)543_storage": {
						"encoding": "inplace",
						"label": "struct MessageProver.MessageCommitment",
						"members": [
							{
								"astId": 536,
								"contract": "privacy/zkp/MessageProver.sol:MessageProver",
								"label": "commitment",
								"offset": 0,
								"slot": "0",
								"type": "t_bytes32"
							},
							{
								"astId": 538,
								"contract": "privacy/zkp/MessageProver.sol:MessageProver",
								"label": "nullifier",
								"offset": 0,
								"slot": "1",
								"type": "t_bytes32"
							},
							{
								"astId": 540,
								"contract": "privacy/zkp/MessageProver.sol:MessageProver",
								"label": "timestamp",
								"offset": 0,
								"slot": "2",
								"type": "t_uint256"
							},
							{
								"astId": 542,
								"contract": "privacy/zkp/MessageProver.sol:MessageProver",
								"label": "verified",
								"offset": 0,
								"slot": "3",
								"type": "t_bool"
							}
						],
						"numberOfBytes": "128"
					},
					"t_uint256": {
						"encoding": "inplace",
						"label": "uint256",
						"numberOfBytes": "32"
					}
				}
			},
			"userdoc": {
				"kind": "user",
				"methods": {
					"constructor": {
						"notice": "Constructor initializes with owner"
					},
					"initializeVerificationKey(uint256[2],uint256[2],uint256[2],uint256[2],uint256[2][])": {
						"notice": "Initialize verification key components"
					},
					"verifyMessageProof(bytes32,bytes32,address,address,bytes)": {
						"notice": "Verify a message proof"
					}
				},
				"version": 1
			}
		}
	}
}