{
	"data": {
		"bytecode": {
			"linkReferences": {},
			"object": "608060405234801561000f575f80fd5b50604051613f47380380613f4783398181016040528101906100319190610bc2565b885f73ffffffffffffffffffffffffffffffffffffffff168173ffffffffffffffffffffffffffffffffffffffff16036100a2575f6040517f1e4fbdf70000000000000000000000000000000000000000000000000000000081526004016100999190610ccf565b60405180910390fd5b6100b18161033660201b60201c565b50600180819055505f60025f6101000a81548160ff0219169083151502179055505f73ffffffffffffffffffffffffffffffffffffffff168873ffffffffffffffffffffffffffffffffffffffff1603610140576040517f08c379a000000000000000000000000000000000000000000000000000000000815260040161013790610d42565b60405180910390fd5b5f73ffffffffffffffffffffffffffffffffffffffff168773ffffffffffffffffffffffffffffffffffffffff16036101ae576040517f08c379a00000000000000000000000000000000000000000000000000000000081526004016101a590610daa565b60405180910390fd5b5f8651116101f1576040517f08c379a00000000000000000000000000000000000000000000000000000000081526004016101e890610e12565b60405180910390fd5b87600260016101000a81548173ffffffffffffffffffffffffffffffffffffffff021916908373ffffffffffffffffffffffffffffffffffffffff1602179055508660035f6101000a81548173ffffffffffffffffffffffffffffffffffffffff021916908373ffffffffffffffffffffffffffffffffffffffff1602179055506040518060a001604052808681526020018581526020018481526020018381526020018281525060095f820151815f019060026102b09291906105fb565b506020820151816002019060026102c892919061063b565b506040820151816006019060026102e09291906105fb565b506060820151816008019060026102f89291906105fb565b50608082015181600a01908051906020019061031592919061068b565b50905050610328866103f760201b60201c565b505050505050505050610fbe565b5f805f9054906101000a900473ffffffffffffffffffffffffffffffffffffffff169050815f806101000a81548173ffffffffffffffffffffffffffffffffffffffff021916908373ffffffffffffffffffffffffffffffffffffffff1602179055508173ffffffffffffffffffffffffffffffffffffffff168173ffffffffffffffffffffffffffffffffffffffff167f8be0079c531659141344cd1fd0a4f28419497f9722a3daafe3b4186f6b6457e060405160405180910390a35050565b5f81511161043a576040517f08c379a000000000000000000000000000000000000000000000000000000000815260040161043190610e12565b60405180910390fd5b5f60085f9054906101000a900463ffffffff1663ffffffff1611156104de575f60065f60085f9054906101000a900463ffffffff1663ffffffff1663ffffffff1681526020019081526020015f2090506201518063ffffffff164261049f9190610e5d565b816001015f6101000a81548163ffffffff021916908363ffffffff1602179055505f8160010160046101000a81548160ff021916908315150217905550505b60085f81819054906101000a900463ffffffff16809291906104ff90610e9f565b91906101000a81548163ffffffff021916908363ffffffff160217905550505f60065f60085f9054906101000a900463ffffffff1663ffffffff1663ffffffff1681526020019081526020015f20905081815f0190805190602001906105669291906106e7565b5060018160010160046101000a81548160ff0219169083151502179055505f816001015f6101000a81548163ffffffff021916908363ffffffff16021790555060085f9054906101000a900463ffffffff1663ffffffff167f040e08e85d8648f6568a266d340dfd142e0cdceb54d02a1160ac5c23383df88183426040516105ef929190610f90565b60405180910390a25050565b826002810192821561062a579160200282015b8281111561062957825182559160200191906001019061060e565b5b509050610637919061076e565b5090565b8260028002810192821561067a579160200282015b82811115610679578251829060026106699291906105fb565b5091602001919060020190610650565b5b5090506106879190610789565b5090565b828054828255905f5260205f209060020281019282156106d6579160200282015b828111156106d5578251829060026106c59291906105fb565b50916020019190600201906106ac565b5b5090506106e39190610789565b5090565b828054828255905f5260205f2090810192821561075d579160200282015b8281111561075c578251825f6101000a81548173ffffffffffffffffffffffffffffffffffffffff021916908373ffffffffffffffffffffffffffffffffffffffff16021790555091602001919060010190610705565b5b50905061076a919061076e565b5090565b5b80821115610785575f815f90555060010161076f565b5090565b5b808211156107a8575f818161079f91906107ac565b5060020161078a565b5090565b505f81556001015f9055565b5f604051905090565b5f80fd5b5f80fd5b5f73ffffffffffffffffffffffffffffffffffffffff82169050919050565b5f6107f2826107c9565b9050919050565b610802816107e8565b811461080c575f80fd5b50565b5f8151905061081d816107f9565b92915050565b5f80fd5b5f601f19601f8301169050919050565b7f4e487b71000000000000000000000000000000000000000000000000000000005f52604160045260245ffd5b61086d82610827565b810181811067ffffffffffffffff8211171561088c5761088b610837565b5b80604052505050565b5f61089e6107b8565b90506108aa8282610864565b919050565b5f67ffffffffffffffff8211156108c9576108c8610837565b5b602082029050602081019050919050565b5f80fd5b5f6108f06108eb846108af565b610895565b90508083825260208201905060208402830185811115610913576109126108da565b5b835b8181101561093c5780610928888261080f565b845260208401935050602081019050610915565b5050509392505050565b5f82601f83011261095a57610959610823565b5b815161096a8482602086016108de565b91505092915050565b5f67ffffffffffffffff82111561098d5761098c610837565b5b602082029050919050565b5f819050919050565b6109aa81610998565b81146109b4575f80fd5b50565b5f815190506109c5816109a1565b92915050565b5f6109dd6109d884610973565b610895565b905080602084028301858111156109f7576109f66108da565b5b835b81811015610a205780610a0c88826109b7565b8452602084019350506020810190506109f9565b5050509392505050565b5f82601f830112610a3e57610a3d610823565b5b6002610a4b8482856109cb565b91505092915050565b5f67ffffffffffffffff821115610a6e57610a6d610837565b5b602082029050919050565b5f610a8b610a8684610a54565b610895565b90508060408402830185811115610aa557610aa46108da565b5b835b81811015610ace5780610aba8882610a2a565b845260208401935050604081019050610aa7565b5050509392505050565b5f82601f830112610aec57610aeb610823565b5b6002610af9848285610a79565b91505092915050565b5f67ffffffffffffffff821115610b1c57610b1b610837565b5b602082029050602081019050919050565b5f610b3f610b3a84610b02565b610895565b90508083825260208201905060408402830185811115610b6257610b616108da565b5b835b81811015610b8b5780610b778882610a2a565b845260208401935050604081019050610b64565b5050509392505050565b5f82601f830112610ba957610ba8610823565b5b8151610bb9848260208601610b2d565b91505092915050565b5f805f805f805f805f6101e08a8c031215610be057610bdf6107c1565b5b5f610bed8c828d0161080f565b9950506020610bfe8c828d0161080f565b9850506040610c0f8c828d0161080f565b97505060608a015167ffffffffffffffff811115610c3057610c2f6107c5565b5b610c3c8c828d01610946565b9650506080610c4d8c828d01610a2a565b95505060c0610c5e8c828d01610ad8565b945050610140610c708c828d01610a2a565b935050610180610c828c828d01610a2a565b9250506101c08a015167ffffffffffffffff811115610ca457610ca36107c5565b5b610cb08c828d01610b95565b9150509295985092959850929598565b610cc9816107e8565b82525050565b5f602082019050610ce25f830184610cc0565b92915050565b5f82825260208201905092915050565b7f496e76616c696420776f726d686f6c65206164647265737300000000000000005f82015250565b5f610d2c601883610ce8565b9150610d3782610cf8565b602082019050919050565b5f6020820190508181035f830152610d5981610d20565b9050919050565b7f496e76616c6964207665726966696572206164647265737300000000000000005f82015250565b5f610d94601883610ce8565b9150610d9f82610d60565b602082019050919050565b5f6020820190508181035f830152610dc181610d88565b9050919050565b7f456d70747920677561726469616e2073657400000000000000000000000000005f82015250565b5f610dfc601283610ce8565b9150610e0782610dc8565b602082019050919050565b5f6020820190508181035f830152610e2981610df0565b9050919050565b7f4e487b71000000000000000000000000000000000000000000000000000000005f52601160045260245ffd5b5f610e6782610998565b9150610e7283610998565b9250828201905080821115610e8a57610e89610e30565b5b92915050565b5f63ffffffff82169050919050565b5f610ea982610e90565b915063ffffffff8203610ebf57610ebe610e30565b5b600182019050919050565b5f81519050919050565b5f82825260208201905092915050565b5f819050602082019050919050565b610efc816107e8565b82525050565b5f610f0d8383610ef3565b60208301905092915050565b5f602082019050919050565b5f610f2f82610eca565b610f398185610ed4565b9350610f4483610ee4565b805f5b83811015610f74578151610f5b8882610f02565b9750610f6683610f19565b925050600181019050610f47565b5085935050505092915050565b610f8a81610998565b82525050565b5f6040820190508181035f830152610fa88185610f25565b9050610fb76020830184610f81565b9392505050565b612f7c80610fcb5f395ff3fe608060405234801561000f575f80fd5b5060043610610156575f3560e01c8063715018a6116100c15780638da5cb5b1161007a5780638da5cb5b146103b05780638e98e0b9146103ce5780638fc06976146103ec578063af7f436414610408578063b932bcfe14610426578063f2fde38b1461044457610156565b8063715018a6146103005780637269367b1461030a5780637ecf686d1461033a5780638456cb591461036a57806384acd1bb14610374578063872919af1461039257610156565b80633870cd12116101135780633870cd121461023d57806338a4be871461026e5780633f4ba83a1461029e5780634fd686c8146102a85780635c975abb146102c657806366800950146102e457610156565b80630665f04b1461015a57806308b64d0114610178578063197c6e77146101945780632b7ac3f3146101c85780632bbd59ca146101e657806338528f531461021f575b5f80fd5b610162610460565b60405161016f91906119f4565b60405180910390f35b610192600480360381019061018d9190611b61565b610519565b005b6101ae60048036038101906101a99190611bd7565b610ae6565b6040516101bf959493929190611ca5565b60405180910390f35b6101d0610c3d565b6040516101dd9190611d58565b60405180910390f35b61020060048036038101906101fb9190611d9b565b610c62565b6040516102169a99989796959493929190611e14565b60405180910390f35b610227610d18565b6040516102349190611ecc565b60405180910390f35b61025760048036038101906102529190611f0f565b610d2d565b604051610265929190611f3a565b60405180910390f35b61028860048036038101906102839190611d9b565b610d6a565b6040516102959190611f61565b60405180910390f35b6102a6610daa565b005b6102b0610dbc565b6040516102bd9190611f95565b60405180910390f35b6102ce610dc1565b6040516102db9190611f61565b60405180910390f35b6102fe60048036038101906102f9919061209c565b610dd6565b005b610308610dea565b005b610324600480360381019061031f9190611d9b565b610dfd565b60405161033191906120e3565b60405180910390f35b610354600480360381019061034f9190611d9b565b610e12565b6040516103619190611f61565b60405180910390f35b610372610e2f565b005b61037c610e41565b604051610389919061211c565b60405180910390f35b61039a610e67565b6040516103a79190611ecc565b60405180910390f35b6103b8610e6e565b6040516103c59190612135565b60405180910390f35b6103d6610e95565b6040516103e3919061214e565b60405180910390f35b610406600480360381019061040191906123ad565b610e9a565b005b610410610f50565b60405161041d9190612685565b60405180910390f35b61042e611149565b60405161043b91906120e3565b60405180910390f35b61045e600480360381019061045991906126a5565b611150565b005b606060065f60085f9054906101000a900463ffffffff1663ffffffff1663ffffffff1681526020019081526020015f205f0180548060200260200160405190810160405280929190818152602001828054801561050f57602002820191905f5260205f20905b815f9054906101000a900473ffffffffffffffffffffffffffffffffffffffff1673ffffffffffffffffffffffffffffffffffffffff16815260200190600101908083116104c6575b5050505050905090565b6105216111d4565b61052961121a565b5f82511161056c576040517f08c379a00000000000000000000000000000000000000000000000000000000081526004016105639061272a565b60405180910390fd5b5f8151116105af576040517f08c379a00000000000000000000000000000000000000000000000000000000081526004016105a690612792565b60405180910390fd5b5f805f600260019054906101000a900473ffffffffffffffffffffffffffffffffffffffff1673ffffffffffffffffffffffffffffffffffffffff1663c0fd8bde866040518263ffffffff1660e01b815260040161060d91906127b0565b5f60405180830381865afa158015610627573d5f803e3d5ffd5b505050506040513d5f823e3d601f19601f8201168201806040525081019061064f9190612b08565b925092509250818190610698576040517f08c379a000000000000000000000000000000000000000000000000000000000815260040161068f9190612bd2565b60405180910390fd5b50600161ffff16836060015161ffff16036106e8576040517f08c379a00000000000000000000000000000000000000000000000000000000081526004016106df90612c3c565b60405180910390fd5b5f805f805f6106fa8860e00151610ae6565b9450945094509450945060055f8581526020019081526020015f205f9054906101000a900460ff1615610762576040517f08c379a000000000000000000000000000000000000000000000000000000000815260040161075990612ca4565b60405180910390fd5b60035f9054906101000a900473ffffffffffffffffffffffffffffffffffffffff1673ffffffffffffffffffffffffffffffffffffffff1663c2655925868686868e6040518663ffffffff1660e01b81526004016107c4959493929190611ca5565b602060405180830381865afa1580156107df573d5f803e3d5ffd5b505050506040513d601f19601f820116820180604052508101906108039190612cc2565b610842576040517f08c379a000000000000000000000000000000000000000000000000000000000815260040161083990612d37565b60405180910390fd5b604051806101400160405280868152602001896060015161ffff168152602001600161ffff168152602001828051906020012081526020018581526020018473ffffffffffffffffffffffffffffffffffffffff1681526020018373ffffffffffffffffffffffffffffffffffffffff1681526020015f151581526020014281526020018a8051906020012081525060045f8781526020019081526020015f205f820151815f01556020820151816001015f6101000a81548161ffff021916908361ffff16021790555060408201518160010160026101000a81548161ffff021916908361ffff160217905550606082015181600201556080820151816003015560a0820151816004015f6101000a81548173ffffffffffffffffffffffffffffffffffffffff021916908373ffffffffffffffffffffffffffffffffffffffff16021790555060c0820151816005015f6101000a81548173ffffffffffffffffffffffffffffffffffffffff021916908373ffffffffffffffffffffffffffffffffffffffff16021790555060e08201518160050160146101000a81548160ff02191690831515021790555061010082015181600601556101208201518160070155905050600160055f8681526020019081526020015f205f6101000a81548160ff0219169083151502179055504260075f8781526020019081526020015f2081905550600161ffff16886060015161ffff16867f25156726cad8bbe7b979b0ce27b209c8f538bc377a7bd56e133ad6b9eb851ec0868642604051610a8a93929190612d55565b60405180910390a48880519060200120857f5218389e256f588f1b0c542d774ec9ba39106830c105126b25a30eab96afa3be42604051610aca91906120e3565b60405180910390a35050505050505050610ae261125b565b5050565b5f805f806060608086511015610b31576040517f08c379a0000000000000000000000000000000000000000000000000000000008152600401610b2890612dd4565b60405180910390fd5b602086015194506040860151935073ffffffffffffffffffffffffffffffffffffffff606087015116925073ffffffffffffffffffffffffffffffffffffffff60808701511691505f60808751610b889190612e1f565b90508067ffffffffffffffff811115610ba457610ba3611a3d565b5b6040519080825280601f01601f191660200182016040528015610bd65781602001600182028036833780820191505090505b5091505f811115610c33576020820160a088015f5b83811015610c2f5760208185031015610c1c57808403600180826020036008021b0382840151168285015250610c2f565b8082015181840152602081019050610beb565b5050505b5091939590929450565b60035f9054906101000a900473ffffffffffffffffffffffffffffffffffffffff1681565b6004602052805f5260405f205f91509050805f015490806001015f9054906101000a900461ffff16908060010160029054906101000a900461ffff1690806002015490806003015490806004015f9054906101000a900473ffffffffffffffffffffffffffffffffffffffff1690806005015f9054906101000a900473ffffffffffffffffffffffffffffffffffffffff16908060050160149054906101000a900460ff1690806006015490806007015490508a565b60085f9054906101000a900463ffffffff1681565b6006602052805f5260405f205f91509050806001015f9054906101000a900463ffffffff16908060010160049054906101000a900460ff16905082565b5f8060075f8481526020019081526020015f205490505f8103610d90575f915050610da5565b6201518081610d9f9190612e52565b42119150505b919050565b610db2611264565b610dba6112eb565b565b600181565b5f60025f9054906101000a900460ff16905090565b610dde611264565b610de78161134c565b50565b610df2611264565b610dfb5f611550565b565b6007602052805f5260405f205f915090505481565b6005602052805f5260405f205f915054906101000a900460ff1681565b610e37611264565b610e3f611611565b565b600260019054906101000a900473ffffffffffffffffffffffffffffffffffffffff1681565b6201518081565b5f805f9054906101000a900473ffffffffffffffffffffffffffffffffffffffff16905090565b600181565b610ea2611264565b6040518060a001604052808681526020018581526020018481526020018381526020018281525060095f820151815f01906002610ee09291906116ba565b50602082015181600201906002610ef89291906116fa565b50604082015181600601906002610f109291906116ba565b50606082015181600801906002610f289291906116ba565b50608082015181600a019080519060200190610f4592919061174a565b509050505050505050565b610f586117a6565b610f60611264565b60096040518060a00160405290815f8201600280602002604051908101604052809291908260028015610fa8576020028201915b815481526020019060010190808311610f94575b5050505050815260200160028201600280602002604051908101604052809291905f905b8282101561102557838260020201600280602002604051908101604052809291908260028015611011576020028201915b815481526020019060010190808311610ffd575b505050505081526020019060010190610fcc565b50505050815260200160068201600280602002604051908101604052809291908260028015611069576020028201915b815481526020019060010190808311611055575b50505050508152602001600882016002806020026040519081016040528092919082600280156110ae576020028201915b81548152602001906001019080831161109a575b50505050508152602001600a8201805480602002602001604051908101604052809291908181526020015f905b8282101561113c578382905f5260205f209060020201600280602002604051908101604052809291908260028015611128576020028201915b815481526020019060010190808311611114575b5050505050815260200190600101906110db565b5050505081525050905090565b6201518081565b611158611264565b5f73ffffffffffffffffffffffffffffffffffffffff168173ffffffffffffffffffffffffffffffffffffffff16036111c8575f6040517f1e4fbdf70000000000000000000000000000000000000000000000000000000081526004016111bf9190612135565b60405180910390fd5b6111d181611550565b50565b600260015403611210576040517f3ee5aeb500000000000000000000000000000000000000000000000000000000815260040160405180910390fd5b6002600181905550565b611222610dc1565b15611259576040517fd93c066500000000000000000000000000000000000000000000000000000000815260040160405180910390fd5b565b60018081905550565b61126c611673565b73ffffffffffffffffffffffffffffffffffffffff1661128a610e6e565b73ffffffffffffffffffffffffffffffffffffffff16146112e9576112ad611673565b6040517f118cdaa70000000000000000000000000000000000000000000000000000000081526004016112e09190612135565b60405180910390fd5b565b6112f361167a565b5f60025f6101000a81548160ff0219169083151502179055507f5db9ee0a495bf2e6ff9c91a7834c1ba4fdd244a5e8aa4e537bd38aeae4b073aa611335611673565b6040516113429190612135565b60405180910390a1565b5f81511161138f576040517f08c379a000000000000000000000000000000000000000000000000000000000815260040161138690612ecf565b60405180910390fd5b5f60085f9054906101000a900463ffffffff1663ffffffff161115611433575f60065f60085f9054906101000a900463ffffffff1663ffffffff1663ffffffff1681526020019081526020015f2090506201518063ffffffff16426113f49190612e52565b816001015f6101000a81548163ffffffff021916908363ffffffff1602179055505f8160010160046101000a81548160ff021916908315150217905550505b60085f81819054906101000a900463ffffffff168092919061145490612eed565b91906101000a81548163ffffffff021916908363ffffffff160217905550505f60065f60085f9054906101000a900463ffffffff1663ffffffff1663ffffffff1681526020019081526020015f20905081815f0190805190602001906114bb9291906117ed565b5060018160010160046101000a81548160ff0219169083151502179055505f816001015f6101000a81548163ffffffff021916908363ffffffff16021790555060085f9054906101000a900463ffffffff1663ffffffff167f040e08e85d8648f6568a266d340dfd142e0cdceb54d02a1160ac5c23383df8818342604051611544929190612f18565b60405180910390a25050565b5f805f9054906101000a900473ffffffffffffffffffffffffffffffffffffffff169050815f806101000a81548173ffffffffffffffffffffffffffffffffffffffff021916908373ffffffffffffffffffffffffffffffffffffffff1602179055508173ffffffffffffffffffffffffffffffffffffffff168173ffffffffffffffffffffffffffffffffffffffff167f8be0079c531659141344cd1fd0a4f28419497f9722a3daafe3b4186f6b6457e060405160405180910390a35050565b61161961121a565b600160025f6101000a81548160ff0219169083151502179055507f62e78cea01bee320cd4e420270b5ea74000d11b0c9f74754ebdbfc544b05a25861165c611673565b6040516116699190612135565b60405180910390a1565b5f33905090565b611682610dc1565b6116b8576040517f8dfc202b00000000000000000000000000000000000000000000000000000000815260040160405180910390fd5b565b82600281019282156116e9579160200282015b828111156116e85782518255916020019190600101906116cd565b5b5090506116f69190611874565b5090565b82600280028101928215611739579160200282015b82811115611738578251829060026117289291906116ba565b509160200191906002019061170f565b5b509050611746919061188f565b5090565b828054828255905f5260205f20906002028101928215611795579160200282015b82811115611794578251829060026117849291906116ba565b509160200191906002019061176b565b5b5090506117a2919061188f565b5090565b6040518060a001604052806117b96118b2565b81526020016117c66118d4565b81526020016117d36118b2565b81526020016117e06118b2565b8152602001606081525090565b828054828255905f5260205f20908101928215611863579160200282015b82811115611862578251825f6101000a81548173ffffffffffffffffffffffffffffffffffffffff021916908373ffffffffffffffffffffffffffffffffffffffff1602179055509160200191906001019061180b565b5b5090506118709190611874565b5090565b5b8082111561188b575f815f905550600101611875565b5090565b5b808211156118ae575f81816118a59190611901565b50600201611890565b5090565b6040518060400160405280600290602082028036833780820191505090505090565b60405180604001604052806002905b6118eb6118b2565b8152602001906001900390816118e35790505090565b505f81556001015f9055565b5f81519050919050565b5f82825260208201905092915050565b5f819050602082019050919050565b5f73ffffffffffffffffffffffffffffffffffffffff82169050919050565b5f61195f82611936565b9050919050565b61196f81611955565b82525050565b5f6119808383611966565b60208301905092915050565b5f602082019050919050565b5f6119a28261190d565b6119ac8185611917565b93506119b783611927565b805f5b838110156119e75781516119ce8882611975565b97506119d98361198c565b9250506001810190506119ba565b5085935050505092915050565b5f6020820190508181035f830152611a0c8184611998565b905092915050565b5f604051905090565b5f80fd5b5f80fd5b5f80fd5b5f80fd5b5f601f19601f8301169050919050565b7f4e487b71000000000000000000000000000000000000000000000000000000005f52604160045260245ffd5b611a7382611a2d565b810181811067ffffffffffffffff82111715611a9257611a91611a3d565b5b80604052505050565b5f611aa4611a14565b9050611ab08282611a6a565b919050565b5f67ffffffffffffffff821115611acf57611ace611a3d565b5b611ad882611a2d565b9050602081019050919050565b828183375f83830152505050565b5f611b05611b0084611ab5565b611a9b565b905082815260208101848484011115611b2157611b20611a29565b5b611b2c848285611ae5565b509392505050565b5f82601f830112611b4857611b47611a25565b5b8135611b58848260208601611af3565b91505092915050565b5f8060408385031215611b7757611b76611a1d565b5b5f83013567ffffffffffffffff811115611b9457611b93611a21565b5b611ba085828601611b34565b925050602083013567ffffffffffffffff811115611bc157611bc0611a21565b5b611bcd85828601611b34565b9150509250929050565b5f60208284031215611bec57611beb611a1d565b5b5f82013567ffffffffffffffff811115611c0957611c08611a21565b5b611c1584828501611b34565b91505092915050565b5f819050919050565b611c3081611c1e565b82525050565b611c3f81611955565b82525050565b5f81519050919050565b5f82825260208201905092915050565b8281835e5f83830152505050565b5f611c7782611c45565b611c818185611c4f565b9350611c91818560208601611c5f565b611c9a81611a2d565b840191505092915050565b5f60a082019050611cb85f830188611c27565b611cc56020830187611c27565b611cd26040830186611c36565b611cdf6060830185611c36565b8181036080830152611cf18184611c6d565b90509695505050505050565b5f819050919050565b5f611d20611d1b611d1684611936565b611cfd565b611936565b9050919050565b5f611d3182611d06565b9050919050565b5f611d4282611d27565b9050919050565b611d5281611d38565b82525050565b5f602082019050611d6b5f830184611d49565b92915050565b611d7a81611c1e565b8114611d84575f80fd5b50565b5f81359050611d9581611d71565b92915050565b5f60208284031215611db057611daf611a1d565b5b5f611dbd84828501611d87565b91505092915050565b5f61ffff82169050919050565b611ddc81611dc6565b82525050565b5f8115159050919050565b611df681611de2565b82525050565b5f819050919050565b611e0e81611dfc565b82525050565b5f61014082019050611e285f83018d611c27565b611e35602083018c611dd3565b611e42604083018b611dd3565b611e4f606083018a611c27565b611e5c6080830189611c27565b611e6960a0830188611c36565b611e7660c0830187611c36565b611e8360e0830186611ded565b611e91610100830185611e05565b611e9f610120830184611c27565b9b9a5050505050505050505050565b5f63ffffffff82169050919050565b611ec681611eae565b82525050565b5f602082019050611edf5f830184611ebd565b92915050565b611eee81611eae565b8114611ef8575f80fd5b50565b5f81359050611f0981611ee5565b92915050565b5f60208284031215611f2457611f23611a1d565b5b5f611f3184828501611efb565b91505092915050565b5f604082019050611f4d5f830185611ebd565b611f5a6020830184611ded565b9392505050565b5f602082019050611f745f830184611ded565b92915050565b5f60ff82169050919050565b611f8f81611f7a565b82525050565b5f602082019050611fa85f830184611f86565b92915050565b5f67ffffffffffffffff821115611fc857611fc7611a3d565b5b602082029050602081019050919050565b5f80fd5b611fe681611955565b8114611ff0575f80fd5b50565b5f8135905061200181611fdd565b92915050565b5f61201961201484611fae565b611a9b565b9050808382526020820190506020840283018581111561203c5761203b611fd9565b5b835b8181101561206557806120518882611ff3565b84526020840193505060208101905061203e565b5050509392505050565b5f82601f83011261208357612082611a25565b5b8135612093848260208601612007565b91505092915050565b5f602082840312156120b1576120b0611a1d565b5b5f82013567ffffffffffffffff8111156120ce576120cd611a21565b5b6120da8482850161206f565b91505092915050565b5f6020820190506120f65f830184611e05565b92915050565b5f61210682611d27565b9050919050565b612116816120fc565b82525050565b5f60208201905061212f5f83018461210d565b92915050565b5f6020820190506121485f830184611c36565b92915050565b5f6020820190506121615f830184611dd3565b92915050565b5f67ffffffffffffffff82111561218157612180611a3d565b5b602082029050919050565b61219581611dfc565b811461219f575f80fd5b50565b5f813590506121b08161218c565b92915050565b5f6121c86121c384612167565b611a9b565b905080602084028301858111156121e2576121e1611fd9565b5b835b8181101561220b57806121f788826121a2565b8452602084019350506020810190506121e4565b5050509392505050565b5f82601f83011261222957612228611a25565b5b60026122368482856121b6565b91505092915050565b5f67ffffffffffffffff82111561225957612258611a3d565b5b602082029050919050565b5f6122766122718461223f565b611a9b565b905080604084028301858111156122905761228f611fd9565b5b835b818110156122b957806122a58882612215565b845260208401935050604081019050612292565b5050509392505050565b5f82601f8301126122d7576122d6611a25565b5b60026122e4848285612264565b91505092915050565b5f67ffffffffffffffff82111561230757612306611a3d565b5b602082029050602081019050919050565b5f61232a612325846122ed565b611a9b565b9050808382526020820190506040840283018581111561234d5761234c611fd9565b5b835b8181101561237657806123628882612215565b84526020840193505060408101905061234f565b5050509392505050565b5f82601f83011261239457612393611a25565b5b81356123a4848260208601612318565b91505092915050565b5f805f805f61016086880312156123c7576123c6611a1d565b5b5f6123d488828901612215565b95505060406123e5888289016122c3565b94505060c06123f688828901612215565b93505061010061240888828901612215565b92505061014086013567ffffffffffffffff81111561242a57612429611a21565b5b61243688828901612380565b9150509295509295909350565b5f60029050919050565b5f81905092915050565b5f819050919050565b61246981611dfc565b82525050565b5f61247a8383612460565b60208301905092915050565b5f602082019050919050565b61249b81612443565b6124a5818461244d565b92506124b082612457565b805f5b838110156124e05781516124c7878261246f565b96506124d283612486565b9250506001810190506124b3565b505050505050565b5f60029050919050565b5f81905092915050565b5f819050919050565b5f6125108383612492565b60408301905092915050565b5f602082019050919050565b612531816124e8565b61253b81846124f2565b9250612546826124fc565b805f5b8381101561257657815161255d8782612505565b96506125688361251c565b925050600181019050612549565b505050505050565b5f81519050919050565b5f82825260208201905092915050565b5f819050602082019050919050565b5f602082019050919050565b5f6125bd8261257e565b6125c78185612588565b93506125d283612598565b805f5b838110156126025781516125e98882612505565b97506125f4836125a7565b9250506001810190506125d5565b5085935050505092915050565b5f61016083015f8301516126255f860182612492565b5060208301516126386040860182612528565b50604083015161264b60c0860182612492565b50606083015161265f610100860182612492565b50608083015184820361014086015261267882826125b3565b9150508091505092915050565b5f6020820190508181035f83015261269d818461260f565b905092915050565b5f602082840312156126ba576126b9611a1d565b5b5f6126c784828501611ff3565b91505092915050565b5f82825260208201905092915050565b7f456d70747920564d0000000000000000000000000000000000000000000000005f82015250565b5f6127146008836126d0565b915061271f826126e0565b602082019050919050565b5f6020820190508181035f83015261274181612708565b9050919050565b7f456d7074792070726f6f660000000000000000000000000000000000000000005f82015250565b5f61277c600b836126d0565b915061278782612748565b602082019050919050565b5f6020820190508181035f8301526127a981612770565b9050919050565b5f6020820190508181035f8301526127c88184611c6d565b905092915050565b5f80fd5b5f80fd5b6127e181611f7a565b81146127eb575f80fd5b50565b5f815190506127fc816127d8565b92915050565b5f8151905061281081611ee5565b92915050565b61281f81611dc6565b8114612829575f80fd5b50565b5f8151905061283a81612816565b92915050565b5f8151905061284e81611d71565b92915050565b5f67ffffffffffffffff82169050919050565b61287081612854565b811461287a575f80fd5b50565b5f8151905061288b81612867565b92915050565b5f6128a361289e84611ab5565b611a9b565b9050828152602081018484840111156128bf576128be611a29565b5b6128ca848285611c5f565b509392505050565b5f82601f8301126128e6576128e5611a25565b5b81516128f6848260208601612891565b91505092915050565b5f6101608284031215612915576129146127d0565b5b612920610160611a9b565b90505f61292f848285016127ee565b5f83015250602061294284828501612802565b602083015250604061295684828501612802565b604083015250606061296a8482850161282c565b606083015250608061297e84828501612840565b60808301525060a06129928482850161287d565b60a08301525060c06129a6848285016127ee565b60c08301525060e082015167ffffffffffffffff8111156129ca576129c96127d4565b5b6129d6848285016128d2565b60e0830152506101006129eb84828501612802565b6101008301525061012082015167ffffffffffffffff811115612a1157612a106127d4565b5b612a1d848285016128d2565b61012083015250610140612a3384828501612840565b6101408301525092915050565b612a4981611de2565b8114612a53575f80fd5b50565b5f81519050612a6481612a40565b92915050565b5f67ffffffffffffffff821115612a8457612a83611a3d565b5b612a8d82611a2d565b9050602081019050919050565b5f612aac612aa784612a6a565b611a9b565b905082815260208101848484011115612ac857612ac7611a29565b5b612ad3848285611c5f565b509392505050565b5f82601f830112612aef57612aee611a25565b5b8151612aff848260208601612a9a565b91505092915050565b5f805f60608486031215612b1f57612b1e611a1d565b5b5f84015167ffffffffffffffff811115612b3c57612b3b611a21565b5b612b48868287016128ff565b9350506020612b5986828701612a56565b925050604084015167ffffffffffffffff811115612b7a57612b79611a21565b5b612b8686828701612adb565b9150509250925092565b5f81519050919050565b5f612ba482612b90565b612bae81856126d0565b9350612bbe818560208601611c5f565b612bc781611a2d565b840191505092915050565b5f6020820190508181035f830152612bea8184612b9a565b905092915050565b7f496e76616c696420736f7572636520636861696e0000000000000000000000005f82015250565b5f612c266014836126d0565b9150612c3182612bf2565b602082019050919050565b5f6020820190508181035f830152612c5381612c1a565b9050919050565b7f4e756c6c696669657220757365640000000000000000000000000000000000005f82015250565b5f612c8e600e836126d0565b9150612c9982612c5a565b602082019050919050565b5f6020820190508181035f830152612cbb81612c82565b9050919050565b5f60208284031215612cd757612cd6611a1d565b5b5f612ce484828501612a56565b91505092915050565b7f496e76616c69642070726f6f66000000000000000000000000000000000000005f82015250565b5f612d21600d836126d0565b9150612d2c82612ced565b602082019050919050565b5f6020820190508181035f830152612d4e81612d15565b9050919050565b5f606082019050612d685f830186611c36565b612d756020830185611c36565b612d826040830184611e05565b949350505050565b7f496e76616c6964207061796c6f6164206c656e677468000000000000000000005f82015250565b5f612dbe6016836126d0565b9150612dc982612d8a565b602082019050919050565b5f6020820190508181035f830152612deb81612db2565b9050919050565b7f4e487b71000000000000000000000000000000000000000000000000000000005f52601160045260245ffd5b5f612e2982611dfc565b9150612e3483611dfc565b9250828203905081811115612e4c57612e4b612df2565b5b92915050565b5f612e5c82611dfc565b9150612e6783611dfc565b9250828201905080821115612e7f57612e7e612df2565b5b92915050565b7f456d70747920677561726469616e2073657400000000000000000000000000005f82015250565b5f612eb96012836126d0565b9150612ec482612e85565b602082019050919050565b5f6020820190508181035f830152612ee681612ead565b9050919050565b5f612ef782611eae565b915063ffffffff8203612f0d57612f0c612df2565b5b600182019050919050565b5f6040820190508181035f830152612f308185611998565b9050612f3f6020830184611e05565b939250505056fea2646970667358221220393c6ecca76aceaea1debec9fc5844e629dd360d030dedd6a79c975d131d5d8f64736f6c634300081a0033",
			"opcodes": "PUSH1 0x80 PUSH1 0x40 MSTORE CALLVALUE DUP1 ISZERO PUSH2 0xF JUMPI PUSH0 DUP1 REVERT JUMPDEST POP PUSH1 0x40 MLOAD PUSH2 0x3F47 CODESIZE SUB DUP1 PUSH2 0x3F47 DUP4 CODECOPY DUP2 DUP2 ADD PUSH1 0x40 MSTORE DUP2 ADD SWAP1 PUSH2 0x31 SWAP2 SWAP1 PUSH2 0xBC2 JUMP JUMPDEST DUP9 PUSH0 PUSH20 0xFFFFFFFFFFFFFFFFFFFFFFFFFFFFFFFFFFFFFFFF AND DUP2 PUSH20 0xFFFFFFFFFFFFFFFFFFFFFFFFFFFFFFFFFFFFFFFF AND SUB PUSH2 0xA2 JUMPI PUSH0 PUSH1 0x40 MLOAD PUSH32 0x1E4FBDF700000000000000000000000000000000000000000000000000000000 DUP2 MSTORE PUSH1 0x4 ADD PUSH2 0x99 SWAP2 SWAP1 PUSH2 0xCCF JUMP JUMPDEST PUSH1 0x40 MLOAD DUP1 SWAP2 SUB SWAP1 REVERT JUMPDEST PUSH2 0xB1 DUP2 PUSH2 0x336 PUSH1 0x20 SHL PUSH1 0x20 SHR JUMP JUMPDEST POP PUSH1 0x1 DUP1 DUP2 SWAP1 SSTORE POP PUSH0 PUSH1 0x2 PUSH0 PUSH2 0x100 EXP DUP2 SLOAD DUP2 PUSH1 0xFF MUL NOT AND SWAP1 DUP4 ISZERO ISZERO MUL OR SWAP1 SSTORE POP PUSH0 PUSH20 0xFFFFFFFFFFFFFFFFFFFFFFFFFFFFFFFFFFFFFFFF AND DUP9 PUSH20 0xFFFFFFFFFFFFFFFFFFFFFFFFFFFFFFFFFFFFFFFF AND SUB PUSH2 0x140 JUMPI PUSH1 0x40 MLOAD PUSH32 0x8C379A000000000000000000000000000000000000000000000000000000000 DUP2 MSTORE PUSH1 0x4 ADD PUSH2 0x137 SWAP1 PUSH2 0xD42 JUMP JUMPDEST PUSH1 0x40 MLOAD DUP1 SWAP2 SUB SWAP1 REVERT JUMPDEST PUSH0 PUSH20 0xFFFFFFFFFFFFFFFFFFFFFFFFFFFFFFFFFFFFFFFF AND DUP8 PUSH20 0xFFFFFFFFFFFFFFFFFFFFFFFFFFFFFFFFFFFFFFFF AND SUB PUSH2 0x1AE JUMPI PUSH1 0x40 MLOAD PUSH32 0x8C379A000000000000000000000000000000000000000000000000000000000 DUP2 MSTORE PUSH1 0x4 ADD PUSH2 0x1A5 SWAP1 PUSH2 0xDAA JUMP JUMPDEST PUSH1 0x40 MLOAD DUP1 SWAP2 SUB SWAP1 REVERT JUMPDEST PUSH0 DUP7 MLOAD GT PUSH2 0x1F1 JUMPI PUSH1 0x40 MLOAD PUSH32 0x8C379A000000000000000000000000000000000000000000000000000000000 DUP2 MSTORE PUSH1 0x4 ADD PUSH2 0x1E8 SWAP1 PUSH2 0xE12 JUMP JUMPDEST PUSH1 0x40 MLOAD DUP1 SWAP2 SUB SWAP1 REVERT JUMPDEST DUP8 PUSH1 0x2 PUSH1 0x1 PUSH2 0x100 EXP DUP2 SLOAD DUP2 PUSH20 0xFFFFFFFFFFFFFFFFFFFFFFFFFFFFFFFFFFFFFFFF MUL NOT AND SWAP1 DUP4 PUSH20 0xFFFFFFFFFFFFFFFFFFFFFFFFFFFFFFFFFFFFFFFF AND MUL OR SWAP1 SSTORE POP DUP7 PUSH1 0x3 PUSH0 PUSH2 0x100 EXP DUP2 SLOAD DUP2 PUSH20 0xFFFFFFFFFFFFFFFFFFFFFFFFFFFFFFFFFFFFFFFF MUL NOT AND SWAP1 DUP4 PUSH20 0xFFFFFFFFFFFFFFFFFFFFFFFFFFFFFFFFFFFFFFFF AND MUL OR SWAP1 SSTORE POP PUSH1 0x40 MLOAD DUP1 PUSH1 0xA0 ADD PUSH1 0x40 MSTORE DUP1 DUP7 DUP2 MSTORE PUSH1 0x20 ADD DUP6 DUP2 MSTORE PUSH1 0x20 ADD DUP5 DUP2 MSTORE PUSH1 0x20 ADD DUP4 DUP2 MSTORE PUSH1 0x20 ADD DUP3 DUP2 MSTORE POP PUSH1 0x9 PUSH0 DUP3 ADD MLOAD DUP2 PUSH0 ADD SWAP1 PUSH1 0x2 PUSH2 0x2B0 SWAP3 SWAP2 SWAP1 PUSH2 0x5FB JUMP JUMPDEST POP PUSH1 0x20 DUP3 ADD MLOAD DUP2 PUSH1 0x2 ADD SWAP1 PUSH1 0x2 PUSH2 0x2C8 SWAP3 SWAP2 SWAP1 PUSH2 0x63B JUMP JUMPDEST POP PUSH1 0x40 DUP3 ADD MLOAD DUP2 PUSH1 0x6 ADD SWAP1 PUSH1 0x2 PUSH2 0x2E0 SWAP3 SWAP2 SWAP1 PUSH2 0x5FB JUMP JUMPDEST POP PUSH1 0x60 DUP3 ADD MLOAD DUP2 PUSH1 0x8 ADD SWAP1 PUSH1 0x2 PUSH2 0x2F8 SWAP3 SWAP2 SWAP1 PUSH2 0x5FB JUMP JUMPDEST POP PUSH1 0x80 DUP3 ADD MLOAD DUP2 PUSH1 0xA ADD SWAP1 DUP1 MLOAD SWAP1 PUSH1 0x20 ADD SWAP1 PUSH2 0x315 SWAP3 SWAP2 SWAP1 PUSH2 0x68B JUMP JUMPDEST POP SWAP1 POP POP PUSH2 0x328 DUP7 PUSH2 0x3F7 PUSH1 0x20 SHL PUSH1 0x20 SHR JUMP JUMPDEST POP POP POP POP POP POP POP POP POP PUSH2 0xFBE JUMP JUMPDEST PUSH0 DUP1 PUSH0 SWAP1 SLOAD SWAP1 PUSH2 0x100 EXP SWAP1 DIV PUSH20 0xFFFFFFFFFFFFFFFFFFFFFFFFFFFFFFFFFFFFFFFF AND SWAP1 POP DUP2 PUSH0 DUP1 PUSH2 0x100 EXP DUP2 SLOAD DUP2 PUSH20 0xFFFFFFFFFFFFFFFFFFFFFFFFFFFFFFFFFFFFFFFF MUL NOT AND SWAP1 DUP4 PUSH20 0xFFFFFFFFFFFFFFFFFFFFFFFFFFFFFFFFFFFFFFFF AND MUL OR SWAP1 SSTORE POP DUP2 PUSH20 0xFFFFFFFFFFFFFFFFFFFFFFFFFFFFFFFFFFFFFFFF AND DUP2 PUSH20 0xFFFFFFFFFFFFFFFFFFFFFFFFFFFFFFFFFFFFFFFF AND PUSH32 0x8BE0079C531659141344CD1FD0A4F28419497F9722A3DAAFE3B4186F6B6457E0 PUSH1 0x40 MLOAD PUSH1 0x40 MLOAD DUP1 SWAP2 SUB SWAP1 LOG3 POP POP JUMP JUMPDEST PUSH0 DUP2 MLOAD GT PUSH2 0x43A JUMPI PUSH1 0x40 MLOAD PUSH32 0x8C379A000000000000000000000000000000000000000000000000000000000 DUP2 MSTORE PUSH1 0x4 ADD PUSH2 0x431 SWAP1 PUSH2 0xE12 JUMP JUMPDEST PUSH1 0x40 MLOAD DUP1 SWAP2 SUB SWAP1 REVERT JUMPDEST PUSH0 PUSH1 0x8 PUSH0 SWAP1 SLOAD SWAP1 PUSH2 0x100 EXP SWAP1 DIV PUSH4 0xFFFFFFFF AND PUSH4 0xFFFFFFFF AND GT ISZERO PUSH2 0x4DE JUMPI PUSH0 PUSH1 0x6 PUSH0 PUSH1 0x8 PUSH0 SWAP1 SLOAD SWAP1 PUSH2 0x100 EXP SWAP1 DIV PUSH4 0xFFFFFFFF AND PUSH4 0xFFFFFFFF AND PUSH4 0xFFFFFFFF AND DUP2 MSTORE PUSH1 0x20 ADD SWAP1 DUP2 MSTORE PUSH1 0x20 ADD PUSH0 KECCAK256 SWAP1 POP PUSH3 0x15180 PUSH4 0xFFFFFFFF AND TIMESTAMP PUSH2 0x49F SWAP2 SWAP1 PUSH2 0xE5D JUMP JUMPDEST DUP2 PUSH1 0x1 ADD PUSH0 PUSH2 0x100 EXP DUP2 SLOAD DUP2 PUSH4 0xFFFFFFFF MUL NOT AND SWAP1 DUP4 PUSH4 0xFFFFFFFF AND MUL OR SWAP1 SSTORE POP PUSH0 DUP2 PUSH1 0x1 ADD PUSH1 0x4 PUSH2 0x100 EXP DUP2 SLOAD DUP2 PUSH1 0xFF MUL NOT AND SWAP1 DUP4 ISZERO ISZERO MUL OR SWAP1 SSTORE POP POP JUMPDEST PUSH1 0x8 PUSH0 DUP2 DUP2 SWAP1 SLOAD SWAP1 PUSH2 0x100 EXP SWAP1 DIV PUSH4 0xFFFFFFFF AND DUP1 SWAP3 SWAP2 SWAP1 PUSH2 0x4FF SWAP1 PUSH2 0xE9F JUMP JUMPDEST SWAP2 SWAP1 PUSH2 0x100 EXP DUP2 SLOAD DUP2 PUSH4 0xFFFFFFFF MUL NOT AND SWAP1 DUP4 PUSH4 0xFFFFFFFF AND MUL OR SWAP1 SSTORE POP POP PUSH0 PUSH1 0x6 PUSH0 PUSH1 0x8 PUSH0 SWAP1 SLOAD SWAP1 PUSH2 0x100 EXP SWAP1 DIV PUSH4 0xFFFFFFFF AND PUSH4 0xFFFFFFFF AND PUSH4 0xFFFFFFFF AND DUP2 MSTORE PUSH1 0x20 ADD SWAP1 DUP2 MSTORE PUSH1 0x20 ADD PUSH0 KECCAK256 SWAP1 POP DUP2 DUP2 PUSH0 ADD SWAP1 DUP1 MLOAD SWAP1 PUSH1 0x20 ADD SWAP1 PUSH2 0x566 SWAP3 SWAP2 SWAP1 PUSH2 0x6E7 JUMP JUMPDEST POP PUSH1 0x1 DUP2 PUSH1 0x1 ADD PUSH1 0x4 PUSH2 0x100 EXP DUP2 SLOAD DUP2 PUSH1 0xFF MUL NOT AND SWAP1 DUP4 ISZERO ISZERO MUL OR SWAP1 SSTORE POP PUSH0 DUP2 PUSH1 0x1 ADD PUSH0 PUSH2 0x100 EXP DUP2 SLOAD DUP2 PUSH4 0xFFFFFFFF MUL NOT AND SWAP1 DUP4 PUSH4 0xFFFFFFFF AND MUL OR SWAP1 SSTORE POP PUSH1 0x8 PUSH0 SWAP1 SLOAD SWAP1 PUSH2 0x100 EXP SWAP1 DIV PUSH4 0xFFFFFFFF AND PUSH4 0xFFFFFFFF AND PUSH32 0x40E08E85D8648F6568A266D340DFD142E0CDCEB54D02A1160AC5C23383DF881 DUP4 TIMESTAMP PUSH1 0x40 MLOAD PUSH2 0x5EF SWAP3 SWAP2 SWAP1 PUSH2 0xF90 JUMP JUMPDEST PUSH1 0x40 MLOAD DUP1 SWAP2 SUB SWAP1 LOG2 POP POP JUMP JUMPDEST DUP3 PUSH1 0x2 DUP2 ADD SWAP3 DUP3 ISZERO PUSH2 0x62A JUMPI SWAP2 PUSH1 0x20 MUL DUP3 ADD JUMPDEST DUP3 DUP2 GT ISZERO PUSH2 0x629 JUMPI DUP3 MLOAD DUP3 SSTORE SWAP2 PUSH1 0x20 ADD SWAP2 SWAP1 PUSH1 0x1 ADD SWAP1 PUSH2 0x60E JUMP JUMPDEST JUMPDEST POP SWAP1 POP PUSH2 0x637 SWAP2 SWAP1 PUSH2 0x76E JUMP JUMPDEST POP SWAP1 JUMP JUMPDEST DUP3 PUSH1 0x2 DUP1 MUL DUP2 ADD SWAP3 DUP3 ISZERO PUSH2 0x67A JUMPI SWAP2 PUSH1 0x20 MUL DUP3 ADD JUMPDEST DUP3 DUP2 GT ISZERO PUSH2 0x679 JUMPI DUP3 MLOAD DUP3 SWAP1 PUSH1 0x2 PUSH2 0x669 SWAP3 SWAP2 SWAP1 PUSH2 0x5FB JUMP JUMPDEST POP SWAP2 PUSH1 0x20 ADD SWAP2 SWAP1 PUSH1 0x2 ADD SWAP1 PUSH2 0x650 JUMP JUMPDEST JUMPDEST POP SWAP1 POP PUSH2 0x687 SWAP2 SWAP1 PUSH2 0x789 JUMP JUMPDEST POP SWAP1 JUMP JUMPDEST DUP3 DUP1 SLOAD DUP3 DUP3 SSTORE SWAP1 PUSH0 MSTORE PUSH1 0x20 PUSH0 KECCAK256 SWAP1 PUSH1 0x2 MUL DUP2 ADD SWAP3 DUP3 ISZERO PUSH2 0x6D6 JUMPI SWAP2 PUSH1 0x20 MUL DUP3 ADD JUMPDEST DUP3 DUP2 GT ISZERO PUSH2 0x6D5 JUMPI DUP3 MLOAD DUP3 SWAP1 PUSH1 0x2 PUSH2 0x6C5 SWAP3 SWAP2 SWAP1 PUSH2 0x5FB JUMP JUMPDEST POP SWAP2 PUSH1 0x20 ADD SWAP2 SWAP1 PUSH1 0x2 ADD SWAP1 PUSH2 0x6AC JUMP JUMPDEST JUMPDEST POP SWAP1 POP PUSH2 0x6E3 SWAP2 SWAP1 PUSH2 0x789 JUMP JUMPDEST POP SWAP1 JUMP JUMPDEST DUP3 DUP1 SLOAD DUP3 DUP3 SSTORE SWAP1 PUSH0 MSTORE PUSH1 0x20 PUSH0 KECCAK256 SWAP1 DUP2 ADD SWAP3 DUP3 ISZERO PUSH2 0x75D JUMPI SWAP2 PUSH1 0x20 MUL DUP3 ADD JUMPDEST DUP3 DUP2 GT ISZERO PUSH2 0x75C JUMPI DUP3 MLOAD DUP3 PUSH0 PUSH2 0x100 EXP DUP2 SLOAD DUP2 PUSH20 0xFFFFFFFFFFFFFFFFFFFFFFFFFFFFFFFFFFFFFFFF MUL NOT AND SWAP1 DUP4 PUSH20 0xFFFFFFFFFFFFFFFFFFFFFFFFFFFFFFFFFFFFFFFF AND MUL OR SWAP1 SSTORE POP SWAP2 PUSH1 0x20 ADD SWAP2 SWAP1 PUSH1 0x1 ADD SWAP1 PUSH2 0x705 JUMP JUMPDEST JUMPDEST POP SWAP1 POP PUSH2 0x76A SWAP2 SWAP1 PUSH2 0x76E JUMP JUMPDEST POP SWAP1 JUMP JUMPDEST JUMPDEST DUP1 DUP3 GT ISZERO PUSH2 0x785 JUMPI PUSH0 DUP2 PUSH0 SWAP1 SSTORE POP PUSH1 0x1 ADD PUSH2 0x76F JUMP JUMPDEST POP SWAP1 JUMP JUMPDEST JUMPDEST DUP1 DUP3 GT ISZERO PUSH2 0x7A8 JUMPI PUSH0 DUP2 DUP2 PUSH2 0x79F SWAP2 SWAP1 PUSH2 0x7AC JUMP JUMPDEST POP PUSH1 0x2 ADD PUSH2 0x78A JUMP JUMPDEST POP SWAP1 JUMP JUMPDEST POP PUSH0 DUP2 SSTORE PUSH1 0x1 ADD PUSH0 SWAP1 SSTORE JUMP JUMPDEST PUSH0 PUSH1 0x40 MLOAD SWAP1 POP SWAP1 JUMP JUMPDEST PUSH0 DUP1 REVERT JUMPDEST PUSH0 DUP1 REVERT JUMPDEST PUSH0 PUSH20 0xFFFFFFFFFFFFFFFFFFFFFFFFFFFFFFFFFFFFFFFF DUP3 AND SWAP1 POP SWAP2 SWAP1 POP JUMP JUMPDEST PUSH0 PUSH2 0x7F2 DUP3 PUSH2 0x7C9 JUMP JUMPDEST SWAP1 POP SWAP2 SWAP1 POP JUMP JUMPDEST PUSH2 0x802 DUP2 PUSH2 0x7E8 JUMP JUMPDEST DUP2 EQ PUSH2 0x80C JUMPI PUSH0 DUP1 REVERT JUMPDEST POP JUMP JUMPDEST PUSH0 DUP2 MLOAD SWAP1 POP PUSH2 0x81D DUP2 PUSH2 0x7F9 JUMP JUMPDEST SWAP3 SWAP2 POP POP JUMP JUMPDEST PUSH0 DUP1 REVERT JUMPDEST PUSH0 PUSH1 0x1F NOT PUSH1 0x1F DUP4 ADD AND SWAP1 POP SWAP2 SWAP1 POP JUMP JUMPDEST PUSH32 0x4E487B7100000000000000000000000000000000000000000000000000000000 PUSH0 MSTORE PUSH1 0x41 PUSH1 0x4 MSTORE PUSH1 0x24 PUSH0 REVERT JUMPDEST PUSH2 0x86D DUP3 PUSH2 0x827 JUMP JUMPDEST DUP2 ADD DUP2 DUP2 LT PUSH8 0xFFFFFFFFFFFFFFFF DUP3 GT OR ISZERO PUSH2 0x88C JUMPI PUSH2 0x88B PUSH2 0x837 JUMP JUMPDEST JUMPDEST DUP1 PUSH1 0x40 MSTORE POP POP POP JUMP JUMPDEST PUSH0 PUSH2 0x89E PUSH2 0x7B8 JUMP JUMPDEST SWAP1 POP PUSH2 0x8AA DUP3 DUP3 PUSH2 0x864 JUMP JUMPDEST SWAP2 SWAP1 POP JUMP JUMPDEST PUSH0 PUSH8 0xFFFFFFFFFFFFFFFF DUP3 GT ISZERO PUSH2 0x8C9 JUMPI PUSH2 0x8C8 PUSH2 0x837 JUMP JUMPDEST JUMPDEST PUSH1 0x20 DUP3 MUL SWAP1 POP PUSH1 0x20 DUP2 ADD SWAP1 POP SWAP2 SWAP1 POP JUMP JUMPDEST PUSH0 DUP1 REVERT JUMPDEST PUSH0 PUSH2 0x8F0 PUSH2 0x8EB DUP5 PUSH2 0x8AF JUMP JUMPDEST PUSH2 0x895 JUMP JUMPDEST SWAP1 POP DUP1 DUP4 DUP3 MSTORE PUSH1 0x20 DUP3 ADD SWAP1 POP PUSH1 0x20 DUP5 MUL DUP4 ADD DUP6 DUP2 GT ISZERO PUSH2 0x913 JUMPI PUSH2 0x912 PUSH2 0x8DA JUMP JUMPDEST JUMPDEST DUP4 JUMPDEST DUP2 DUP2 LT ISZERO PUSH2 0x93C JUMPI DUP1 PUSH2 0x928 DUP9 DUP3 PUSH2 0x80F JUMP JUMPDEST DUP5 MSTORE PUSH1 0x20 DUP5 ADD SWAP4 POP POP PUSH1 0x20 DUP2 ADD SWAP1 POP PUSH2 0x915 JUMP JUMPDEST POP POP POP SWAP4 SWAP3 POP POP POP JUMP JUMPDEST PUSH0 DUP3 PUSH1 0x1F DUP4 ADD SLT PUSH2 0x95A JUMPI PUSH2 0x959 PUSH2 0x823 JUMP JUMPDEST JUMPDEST DUP2 MLOAD PUSH2 0x96A DUP5 DUP3 PUSH1 0x20 DUP7 ADD PUSH2 0x8DE JUMP JUMPDEST SWAP2 POP POP SWAP3 SWAP2 POP POP JUMP JUMPDEST PUSH0 PUSH8 0xFFFFFFFFFFFFFFFF DUP3 GT ISZERO PUSH2 0x98D JUMPI PUSH2 0x98C PUSH2 0x837 JUMP JUMPDEST JUMPDEST PUSH1 0x20 DUP3 MUL SWAP1 POP SWAP2 SWAP1 POP JUMP JUMPDEST PUSH0 DUP2 SWAP1 POP SWAP2 SWAP1 POP JUMP JUMPDEST PUSH2 0x9AA DUP2 PUSH2 0x998 JUMP JUMPDEST DUP2 EQ PUSH2 0x9B4 JUMPI PUSH0 DUP1 REVERT JUMPDEST POP JUMP JUMPDEST PUSH0 DUP2 MLOAD SWAP1 POP PUSH2 0x9C5 DUP2 PUSH2 0x9A1 JUMP JUMPDEST SWAP3 SWAP2 POP POP JUMP JUMPDEST PUSH0 PUSH2 0x9DD PUSH2 0x9D8 DUP5 PUSH2 0x973 JUMP JUMPDEST PUSH2 0x895 JUMP JUMPDEST SWAP1 POP DUP1 PUSH1 0x20 DUP5 MUL DUP4 ADD DUP6 DUP2 GT ISZERO PUSH2 0x9F7 JUMPI PUSH2 0x9F6 PUSH2 0x8DA JUMP JUMPDEST JUMPDEST DUP4 JUMPDEST DUP2 DUP2 LT ISZERO PUSH2 0xA20 JUMPI DUP1 PUSH2 0xA0C DUP9 DUP3 PUSH2 0x9B7 JUMP JUMPDEST DUP5 MSTORE PUSH1 0x20 DUP5 ADD SWAP4 POP POP PUSH1 0x20 DUP2 ADD SWAP1 POP PUSH2 0x9F9 JUMP JUMPDEST POP POP POP SWAP4 SWAP3 POP POP POP JUMP JUMPDEST PUSH0 DUP3 PUSH1 0x1F DUP4 ADD SLT PUSH2 0xA3E JUMPI PUSH2 0xA3D PUSH2 0x823 JUMP JUMPDEST JUMPDEST PUSH1 0x2 PUSH2 0xA4B DUP5 DUP3 DUP6 PUSH2 0x9CB JUMP JUMPDEST SWAP2 POP POP SWAP3 SWAP2 POP POP JUMP JUMPDEST PUSH0 PUSH8 0xFFFFFFFFFFFFFFFF DUP3 GT ISZERO PUSH2 0xA6E JUMPI PUSH2 0xA6D PUSH2 0x837 JUMP JUMPDEST JUMPDEST PUSH1 0x20 DUP3 MUL SWAP1 POP SWAP2 SWAP1 POP JUMP JUMPDEST PUSH0 PUSH2 0xA8B PUSH2 0xA86 DUP5 PUSH2 0xA54 JUMP JUMPDEST PUSH2 0x895 JUMP JUMPDEST SWAP1 POP DUP1 PUSH1 0x40 DUP5 MUL DUP4 ADD DUP6 DUP2 GT ISZERO PUSH2 0xAA5 JUMPI PUSH2 0xAA4 PUSH2 0x8DA JUMP JUMPDEST JUMPDEST DUP4 JUMPDEST DUP2 DUP2 LT ISZERO PUSH2 0xACE JUMPI DUP1 PUSH2 0xABA DUP9 DUP3 PUSH2 0xA2A JUMP JUMPDEST DUP5 MSTORE PUSH1 0x20 DUP5 ADD SWAP4 POP POP PUSH1 0x40 DUP2 ADD SWAP1 POP PUSH2 0xAA7 JUMP JUMPDEST POP POP POP SWAP4 SWAP3 POP POP POP JUMP JUMPDEST PUSH0 DUP3 PUSH1 0x1F DUP4 ADD SLT PUSH2 0xAEC JUMPI PUSH2 0xAEB PUSH2 0x823 JUMP JUMPDEST JUMPDEST PUSH1 0x2 PUSH2 0xAF9 DUP5 DUP3 DUP6 PUSH2 0xA79 JUMP JUMPDEST SWAP2 POP POP SWAP3 SWAP2 POP POP JUMP JUMPDEST PUSH0 PUSH8 0xFFFFFFFFFFFFFFFF DUP3 GT ISZERO PUSH2 0xB1C JUMPI PUSH2 0xB1B PUSH2 0x837 JUMP JUMPDEST JUMPDEST PUSH1 0x20 DUP3 MUL SWAP1 POP PUSH1 0x20 DUP2 ADD SWAP1 POP SWAP2 SWAP1 POP JUMP JUMPDEST PUSH0 PUSH2 0xB3F PUSH2 0xB3A DUP5 PUSH2 0xB02 JUMP JUMPDEST PUSH2 0x895 JUMP JUMPDEST SWAP1 POP DUP1 DUP4 DUP3 MSTORE PUSH1 0x20 DUP3 ADD SWAP1 POP PUSH1 0x40 DUP5 MUL DUP4 ADD DUP6 DUP2 GT ISZERO PUSH2 0xB62 JUMPI PUSH2 0xB61 PUSH2 0x8DA JUMP JUMPDEST JUMPDEST DUP4 JUMPDEST DUP2 DUP2 LT ISZERO PUSH2 0xB8B JUMPI DUP1 PUSH2 0xB77 DUP9 DUP3 PUSH2 0xA2A JUMP JUMPDEST DUP5 MSTORE PUSH1 0x20 DUP5 ADD SWAP4 POP POP PUSH1 0x40 DUP2 ADD SWAP1 POP PUSH2 0xB64 JUMP JUMPDEST POP POP POP SWAP4 SWAP3 POP POP POP JUMP JUMPDEST PUSH0 DUP3 PUSH1 0x1F DUP4 ADD SLT PUSH2 0xBA9 JUMPI PUSH2 0xBA8 PUSH2 0x823 JUMP JUMPDEST JUMPDEST DUP2 MLOAD PUSH2 0xBB9 DUP5 DUP3 PUSH1 0x20 DUP7 ADD PUSH2 0xB2D JUMP JUMPDEST SWAP2 POP POP SWAP3 SWAP2 POP POP JUMP JUMPDEST PUSH0 DUP1 PUSH0 DUP1 PUSH0 DUP1 PUSH0 DUP1 PUSH0 PUSH2 0x1E0 DUP11 DUP13 SUB SLT ISZERO PUSH2 0xBE0 JUMPI PUSH2 0xBDF PUSH2 0x7C1 JUMP JUMPDEST JUMPDEST PUSH0 PUSH2 0xBED DUP13 DUP3 DUP14 ADD PUSH2 0x80F JUMP JUMPDEST SWAP10 POP POP PUSH1 0x20 PUSH2 0xBFE DUP13 DUP3 DUP14 ADD PUSH2 0x80F JUMP JUMPDEST SWAP9 POP POP PUSH1 0x40 PUSH2 0xC0F DUP13 DUP3 DUP14 ADD PUSH2 0x80F JUMP JUMPDEST SWAP8 POP POP PUSH1 0x60 DUP11 ADD MLOAD PUSH8 0xFFFFFFFFFFFFFFFF DUP2 GT ISZERO PUSH2 0xC30 JUMPI PUSH2 0xC2F PUSH2 0x7C5 JUMP JUMPDEST JUMPDEST PUSH2 0xC3C DUP13 DUP3 DUP14 ADD PUSH2 0x946 JUMP JUMPDEST SWAP7 POP POP PUSH1 0x80 PUSH2 0xC4D DUP13 DUP3 DUP14 ADD PUSH2 0xA2A JUMP JUMPDEST SWAP6 POP POP PUSH1 0xC0 PUSH2 0xC5E DUP13 DUP3 DUP14 ADD PUSH2 0xAD8 JUMP JUMPDEST SWAP5 POP POP PUSH2 0x140 PUSH2 0xC70 DUP13 DUP3 DUP14 ADD PUSH2 0xA2A JUMP JUMPDEST SWAP4 POP POP PUSH2 0x180 PUSH2 0xC82 DUP13 DUP3 DUP14 ADD PUSH2 0xA2A JUMP JUMPDEST SWAP3 POP POP PUSH2 0x1C0 DUP11 ADD MLOAD PUSH8 0xFFFFFFFFFFFFFFFF DUP2 GT ISZERO PUSH2 0xCA4 JUMPI PUSH2 0xCA3 PUSH2 0x7C5 JUMP JUMPDEST JUMPDEST PUSH2 0xCB0 DUP13 DUP3 DUP14 ADD PUSH2 0xB95 JUMP JUMPDEST SWAP2 POP POP SWAP3 SWAP6 SWAP9 POP SWAP3 SWAP6 SWAP9 POP SWAP3 SWAP6 SWAP9 JUMP JUMPDEST PUSH2 0xCC9 DUP2 PUSH2 0x7E8 JUMP JUMPDEST DUP3 MSTORE POP POP JUMP JUMPDEST PUSH0 PUSH1 0x20 DUP3 ADD SWAP1 POP PUSH2 0xCE2 PUSH0 DUP4 ADD DUP5 PUSH2 0xCC0 JUMP JUMPDEST SWAP3 SWAP2 POP POP JUMP JUMPDEST PUSH0 DUP3 DUP3 MSTORE PUSH1 0x20 DUP3 ADD SWAP1 POP SWAP3 SWAP2 POP POP JUMP JUMPDEST PUSH32 0x496E76616C696420776F726D686F6C6520616464726573730000000000000000 PUSH0 DUP3 ADD MSTORE POP JUMP JUMPDEST PUSH0 PUSH2 0xD2C PUSH1 0x18 DUP4 PUSH2 0xCE8 JUMP JUMPDEST SWAP2 POP PUSH2 0xD37 DUP3 PUSH2 0xCF8 JUMP JUMPDEST PUSH1 0x20 DUP3 ADD SWAP1 POP SWAP2 SWAP1 POP JUMP JUMPDEST PUSH0 PUSH1 0x20 DUP3 ADD SWAP1 POP DUP2 DUP2 SUB PUSH0 DUP4 ADD MSTORE PUSH2 0xD59 DUP2 PUSH2 0xD20 JUMP JUMPDEST SWAP1 POP SWAP2 SWAP1 POP JUMP JUMPDEST PUSH32 0x496E76616C696420766572696669657220616464726573730000000000000000 PUSH0 DUP3 ADD MSTORE POP JUMP JUMPDEST PUSH0 PUSH2 0xD94 PUSH1 0x18 DUP4 PUSH2 0xCE8 JUMP JUMPDEST SWAP2 POP PUSH2 0xD9F DUP3 PUSH2 0xD60 JUMP JUMPDEST PUSH1 0x20 DUP3 ADD SWAP1 POP SWAP2 SWAP1 POP JUMP JUMPDEST PUSH0 PUSH1 0x20 DUP3 ADD SWAP1 POP DUP2 DUP2 SUB PUSH0 DUP4 ADD MSTORE PUSH2 0xDC1 DUP2 PUSH2 0xD88 JUMP JUMPDEST SWAP1 POP SWAP2 SWAP1 POP JUMP JUMPDEST PUSH32 0x456D70747920677561726469616E207365740000000000000000000000000000 PUSH0 DUP3 ADD MSTORE POP JUMP JUMPDEST PUSH0 PUSH2 0xDFC PUSH1 0x12 DUP4 PUSH2 0xCE8 JUMP JUMPDEST SWAP2 POP PUSH2 0xE07 DUP3 PUSH2 0xDC8 JUMP JUMPDEST PUSH1 0x20 DUP3 ADD SWAP1 POP SWAP2 SWAP1 POP JUMP JUMPDEST PUSH0 PUSH1 0x20 DUP3 ADD SWAP1 POP DUP2 DUP2 SUB PUSH0 DUP4 ADD MSTORE PUSH2 0xE29 DUP2 PUSH2 0xDF0 JUMP JUMPDEST SWAP1 POP SWAP2 SWAP1 POP JUMP JUMPDEST PUSH32 0x4E487B7100000000000000000000000000000000000000000000000000000000 PUSH0 MSTORE PUSH1 0x11 PUSH1 0x4 MSTORE PUSH1 0x24 PUSH0 REVERT JUMPDEST PUSH0 PUSH2 0xE67 DUP3 PUSH2 0x998 JUMP JUMPDEST SWAP2 POP PUSH2 0xE72 DUP4 PUSH2 0x998 JUMP JUMPDEST SWAP3 POP DUP3 DUP3 ADD SWAP1 POP DUP1 DUP3 GT ISZERO PUSH2 0xE8A JUMPI PUSH2 0xE89 PUSH2 0xE30 JUMP JUMPDEST JUMPDEST SWAP3 SWAP2 POP POP JUMP JUMPDEST PUSH0 PUSH4 0xFFFFFFFF DUP3 AND SWAP1 POP SWAP2 SWAP1 POP JUMP JUMPDEST PUSH0 PUSH2 0xEA9 DUP3 PUSH2 0xE90 JUMP JUMPDEST SWAP2 POP PUSH4 0xFFFFFFFF DUP3 SUB PUSH2 0xEBF JUMPI PUSH2 0xEBE PUSH2 0xE30 JUMP JUMPDEST JUMPDEST PUSH1 0x1 DUP3 ADD SWAP1 POP SWAP2 SWAP1 POP JUMP JUMPDEST PUSH0 DUP2 MLOAD SWAP1 POP SWAP2 SWAP1 POP JUMP JUMPDEST PUSH0 DUP3 DUP3 MSTORE PUSH1 0x20 DUP3 ADD SWAP1 POP SWAP3 SWAP2 POP POP JUMP JUMPDEST PUSH0 DUP2 SWAP1 POP PUSH1 0x20 DUP3 ADD SWAP1 POP SWAP2 SWAP1 POP JUMP JUMPDEST PUSH2 0xEFC DUP2 PUSH2 0x7E8 JUMP JUMPDEST DUP3 MSTORE POP POP JUMP JUMPDEST PUSH0 PUSH2 0xF0D DUP4 DUP4 PUSH2 0xEF3 JUMP JUMPDEST PUSH1 0x20 DUP4 ADD SWAP1 POP SWAP3 SWAP2 POP POP JUMP JUMPDEST PUSH0 PUSH1 0x20 DUP3 ADD SWAP1 POP SWAP2 SWAP1 POP JUMP JUMPDEST PUSH0 PUSH2 0xF2F DUP3 PUSH2 0xECA JUMP JUMPDEST PUSH2 0xF39 DUP2 DUP6 PUSH2 0xED4 JUMP JUMPDEST SWAP4 POP PUSH2 0xF44 DUP4 PUSH2 0xEE4 JUMP JUMPDEST DUP1 PUSH0 JUMPDEST DUP4 DUP2 LT ISZERO PUSH2 0xF74 JUMPI DUP2 MLOAD PUSH2 0xF5B DUP9 DUP3 PUSH2 0xF02 JUMP JUMPDEST SWAP8 POP PUSH2 0xF66 DUP4 PUSH2 0xF19 JUMP JUMPDEST SWAP3 POP POP PUSH1 0x1 DUP2 ADD SWAP1 POP PUSH2 0xF47 JUMP JUMPDEST POP DUP6 SWAP4 POP POP POP POP SWAP3 SWAP2 POP POP JUMP JUMPDEST PUSH2 0xF8A DUP2 PUSH2 0x998 JUMP JUMPDEST DUP3 MSTORE POP POP JUMP JUMPDEST PUSH0 PUSH1 0x40 DUP3 ADD SWAP1 POP DUP2 DUP2 SUB PUSH0 DUP4 ADD MSTORE PUSH2 0xFA8 DUP2 DUP6 PUSH2 0xF25 JUMP JUMPDEST SWAP1 POP PUSH2 0xFB7 PUSH1 0x20 DUP4 ADD DUP5 PUSH2 0xF81 JUMP JUMPDEST SWAP4 SWAP3 POP POP POP JUMP JUMPDEST PUSH2 0x2F7C DUP1 PUSH2 0xFCB PUSH0 CODECOPY PUSH0 RETURN INVALID PUSH1 0x80 PUSH1 0x40 MSTORE CALLVALUE DUP1 ISZERO PUSH2 0xF JUMPI PUSH0 DUP1 REVERT JUMPDEST POP PUSH1 0x4 CALLDATASIZE LT PUSH2 0x156 JUMPI PUSH0 CALLDATALOAD PUSH1 0xE0 SHR DUP1 PUSH4 0x715018A6 GT PUSH2 0xC1 JUMPI DUP1 PUSH4 0x8DA5CB5B GT PUSH2 0x7A JUMPI DUP1 PUSH4 0x8DA5CB5B EQ PUSH2 0x3B0 JUMPI DUP1 PUSH4 0x8E98E0B9 EQ PUSH2 0x3CE JUMPI DUP1 PUSH4 0x8FC06976 EQ PUSH2 0x3EC JUMPI DUP1 PUSH4 0xAF7F4364 EQ PUSH2 0x408 JUMPI DUP1 PUSH4 0xB932BCFE EQ PUSH2 0x426 JUMPI DUP1 PUSH4 0xF2FDE38B EQ PUSH2 0x444 JUMPI PUSH2 0x156 JUMP JUMPDEST DUP1 PUSH4 0x715018A6 EQ PUSH2 0x300 JUMPI DUP1 PUSH4 0x7269367B EQ PUSH2 0x30A JUMPI DUP1 PUSH4 0x7ECF686D EQ PUSH2 0x33A JUMPI DUP1 PUSH4 0x8456CB59 EQ PUSH2 0x36A JUMPI DUP1 PUSH4 0x84ACD1BB EQ PUSH2 0x374 JUMPI DUP1 PUSH4 0x872919AF EQ PUSH2 0x392 JUMPI PUSH2 0x156 JUMP JUMPDEST DUP1 PUSH4 0x3870CD12 GT PUSH2 0x113 JUMPI DUP1 PUSH4 0x3870CD12 EQ PUSH2 0x23D JUMPI DUP1 PUSH4 0x38A4BE87 EQ PUSH2 0x26E JUMPI DUP1 PUSH4 0x3F4BA83A EQ PUSH2 0x29E JUMPI DUP1 PUSH4 0x4FD686C8 EQ PUSH2 0x2A8 JUMPI DUP1 PUSH4 0x5C975ABB EQ PUSH2 0x2C6 JUMPI DUP1 PUSH4 0x66800950 EQ PUSH2 0x2E4 JUMPI PUSH2 0x156 JUMP JUMPDEST DUP1 PUSH4 0x665F04B EQ PUSH2 0x15A JUMPI DUP1 PUSH4 0x8B64D01 EQ PUSH2 0x178 JUMPI DUP1 PUSH4 0x197C6E77 EQ PUSH2 0x194 JUMPI DUP1 PUSH4 0x2B7AC3F3 EQ PUSH2 0x1C8 JUMPI DUP1 PUSH4 0x2BBD59CA EQ PUSH2 0x1E6 JUMPI DUP1 PUSH4 0x38528F53 EQ PUSH2 0x21F JUMPI JUMPDEST PUSH0 DUP1 REVERT JUMPDEST PUSH2 0x162 PUSH2 0x460 JUMP JUMPDEST PUSH1 0x40 MLOAD PUSH2 0x16F SWAP2 SWAP1 PUSH2 0x19F4 JUMP JUMPDEST PUSH1 0x40 MLOAD DUP1 SWAP2 SUB SWAP1 RETURN JUMPDEST PUSH2 0x192 PUSH1 0x4 DUP1 CALLDATASIZE SUB DUP2 ADD SWAP1 PUSH2 0x18D SWAP2 SWAP1 PUSH2 0x1B61 JUMP JUMPDEST PUSH2 0x519 JUMP JUMPDEST STOP JUMPDEST PUSH2 0x1AE PUSH1 0x4 DUP1 CALLDATASIZE SUB DUP2 ADD SWAP1 PUSH2 0x1A9 SWAP2 SWAP1 PUSH2 0x1BD7 JUMP JUMPDEST PUSH2 0xAE6 JUMP JUMPDEST PUSH1 0x40 MLOAD PUSH2 0x1BF SWAP6 SWAP5 SWAP4 SWAP3 SWAP2 SWAP1 PUSH2 0x1CA5 JUMP JUMPDEST PUSH1 0x40 MLOAD DUP1 SWAP2 SUB SWAP1 RETURN JUMPDEST PUSH2 0x1D0 PUSH2 0xC3D JUMP JUMPDEST PUSH1 0x40 MLOAD PUSH2 0x1DD SWAP2 SWAP1 PUSH2 0x1D58 JUMP JUMPDEST PUSH1 0x40 MLOAD DUP1 SWAP2 SUB SWAP1 RETURN JUMPDEST PUSH2 0x200 PUSH1 0x4 DUP1 CALLDATASIZE SUB DUP2 ADD SWAP1 PUSH2 0x1FB SWAP2 SWAP1 PUSH2 0x1D9B JUMP JUMPDEST PUSH2 0xC62 JUMP JUMPDEST PUSH1 0x40 MLOAD PUSH2 0x216 SWAP11 SWAP10 SWAP9 SWAP8 SWAP7 SWAP6 SWAP5 SWAP4 SWAP3 SWAP2 SWAP1 PUSH2 0x1E14 JUMP JUMPDEST PUSH1 0x40 MLOAD DUP1 SWAP2 SUB SWAP1 RETURN JUMPDEST PUSH2 0x227 PUSH2 0xD18 JUMP JUMPDEST PUSH1 0x40 MLOAD PUSH2 0x234 SWAP2 SWAP1 PUSH2 0x1ECC JUMP JUMPDEST PUSH1 0x40 MLOAD DUP1 SWAP2 SUB SWAP1 RETURN JUMPDEST PUSH2 0x257 PUSH1 0x4 DUP1 CALLDATASIZE SUB DUP2 ADD SWAP1 PUSH2 0x252 SWAP2 SWAP1 PUSH2 0x1F0F JUMP JUMPDEST PUSH2 0xD2D JUMP JUMPDEST PUSH1 0x40 MLOAD PUSH2 0x265 SWAP3 SWAP2 SWAP1 PUSH2 0x1F3A JUMP JUMPDEST PUSH1 0x40 MLOAD DUP1 SWAP2 SUB SWAP1 RETURN JUMPDEST PUSH2 0x288 PUSH1 0x4 DUP1 CALLDATASIZE SUB DUP2 ADD SWAP1 PUSH2 0x283 SWAP2 SWAP1 PUSH2 0x1D9B JUMP JUMPDEST PUSH2 0xD6A JUMP JUMPDEST PUSH1 0x40 MLOAD PUSH2 0x295 SWAP2 SWAP1 PUSH2 0x1F61 JUMP JUMPDEST PUSH1 0x40 MLOAD DUP1 SWAP2 SUB SWAP1 RETURN JUMPDEST PUSH2 0x2A6 PUSH2 0xDAA JUMP JUMPDEST STOP JUMPDEST PUSH2 0x2B0 PUSH2 0xDBC JUMP JUMPDEST PUSH1 0x40 MLOAD PUSH2 0x2BD SWAP2 SWAP1 PUSH2 0x1F95 JUMP JUMPDEST PUSH1 0x40 MLOAD DUP1 SWAP2 SUB SWAP1 RETURN JUMPDEST PUSH2 0x2CE PUSH2 0xDC1 JUMP JUMPDEST PUSH1 0x40 MLOAD PUSH2 0x2DB SWAP2 SWAP1 PUSH2 0x1F61 JUMP JUMPDEST PUSH1 0x40 MLOAD DUP1 SWAP2 SUB SWAP1 RETURN JUMPDEST PUSH2 0x2FE PUSH1 0x4 DUP1 CALLDATASIZE SUB DUP2 ADD SWAP1 PUSH2 0x2F9 SWAP2 SWAP1 PUSH2 0x209C JUMP JUMPDEST PUSH2 0xDD6 JUMP JUMPDEST STOP JUMPDEST PUSH2 0x308 PUSH2 0xDEA JUMP JUMPDEST STOP JUMPDEST PUSH2 0x324 PUSH1 0x4 DUP1 CALLDATASIZE SUB DUP2 ADD SWAP1 PUSH2 0x31F SWAP2 SWAP1 PUSH2 0x1D9B JUMP JUMPDEST PUSH2 0xDFD JUMP JUMPDEST PUSH1 0x40 MLOAD PUSH2 0x331 SWAP2 SWAP1 PUSH2 0x20E3 JUMP JUMPDEST PUSH1 0x40 MLOAD DUP1 SWAP2 SUB SWAP1 RETURN JUMPDEST PUSH2 0x354 PUSH1 0x4 DUP1 CALLDATASIZE SUB DUP2 ADD SWAP1 PUSH2 0x34F SWAP2 SWAP1 PUSH2 0x1D9B JUMP JUMPDEST PUSH2 0xE12 JUMP JUMPDEST PUSH1 0x40 MLOAD PUSH2 0x361 SWAP2 SWAP1 PUSH2 0x1F61 JUMP JUMPDEST PUSH1 0x40 MLOAD DUP1 SWAP2 SUB SWAP1 RETURN JUMPDEST PUSH2 0x372 PUSH2 0xE2F JUMP JUMPDEST STOP JUMPDEST PUSH2 0x37C PUSH2 0xE41 JUMP JUMPDEST PUSH1 0x40 MLOAD PUSH2 0x389 SWAP2 SWAP1 PUSH2 0x211C JUMP JUMPDEST PUSH1 0x40 MLOAD DUP1 SWAP2 SUB SWAP1 RETURN JUMPDEST PUSH2 0x39A PUSH2 0xE67 JUMP JUMPDEST PUSH1 0x40 MLOAD PUSH2 0x3A7 SWAP2 SWAP1 PUSH2 0x1ECC JUMP JUMPDEST PUSH1 0x40 MLOAD DUP1 SWAP2 SUB SWAP1 RETURN JUMPDEST PUSH2 0x3B8 PUSH2 0xE6E JUMP JUMPDEST PUSH1 0x40 MLOAD PUSH2 0x3C5 SWAP2 SWAP1 PUSH2 0x2135 JUMP JUMPDEST PUSH1 0x40 MLOAD DUP1 SWAP2 SUB SWAP1 RETURN JUMPDEST PUSH2 0x3D6 PUSH2 0xE95 JUMP JUMPDEST PUSH1 0x40 MLOAD PUSH2 0x3E3 SWAP2 SWAP1 PUSH2 0x214E JUMP JUMPDEST PUSH1 0x40 MLOAD DUP1 SWAP2 SUB SWAP1 RETURN JUMPDEST PUSH2 0x406 PUSH1 0x4 DUP1 CALLDATASIZE SUB DUP2 ADD SWAP1 PUSH2 0x401 SWAP2 SWAP1 PUSH2 0x23AD JUMP JUMPDEST PUSH2 0xE9A JUMP JUMPDEST STOP JUMPDEST PUSH2 0x410 PUSH2 0xF50 JUMP JUMPDEST PUSH1 0x40 MLOAD PUSH2 0x41D SWAP2 SWAP1 PUSH2 0x2685 JUMP JUMPDEST PUSH1 0x40 MLOAD DUP1 SWAP2 SUB SWAP1 RETURN JUMPDEST PUSH2 0x42E PUSH2 0x1149 JUMP JUMPDEST PUSH1 0x40 MLOAD PUSH2 0x43B SWAP2 SWAP1 PUSH2 0x20E3 JUMP JUMPDEST PUSH1 0x40 MLOAD DUP1 SWAP2 SUB SWAP1 RETURN JUMPDEST PUSH2 0x45E PUSH1 0x4 DUP1 CALLDATASIZE SUB DUP2 ADD SWAP1 PUSH2 0x459 SWAP2 SWAP1 PUSH2 0x26A5 JUMP JUMPDEST PUSH2 0x1150 JUMP JUMPDEST STOP JUMPDEST PUSH1 0x60 PUSH1 0x6 PUSH0 PUSH1 0x8 PUSH0 SWAP1 SLOAD SWAP1 PUSH2 0x100 EXP SWAP1 DIV PUSH4 0xFFFFFFFF AND PUSH4 0xFFFFFFFF AND PUSH4 0xFFFFFFFF AND DUP2 MSTORE PUSH1 0x20 ADD SWAP1 DUP2 MSTORE PUSH1 0x20 ADD PUSH0 KECCAK256 PUSH0 ADD DUP1 SLOAD DUP1 PUSH1 0x20 MUL PUSH1 0x20 ADD PUSH1 0x40 MLOAD SWAP1 DUP2 ADD PUSH1 0x40 MSTORE DUP1 SWAP3 SWAP2 SWAP1 DUP2 DUP2 MSTORE PUSH1 0x20 ADD DUP3 DUP1 SLOAD DUP1 ISZERO PUSH2 0x50F JUMPI PUSH1 0x20 MUL DUP3 ADD SWAP2 SWAP1 PUSH0 MSTORE PUSH1 0x20 PUSH0 KECCAK256 SWAP1 JUMPDEST DUP2 PUSH0 SWAP1 SLOAD SWAP1 PUSH2 0x100 EXP SWAP1 DIV PUSH20 0xFFFFFFFFFFFFFFFFFFFFFFFFFFFFFFFFFFFFFFFF AND PUSH20 0xFFFFFFFFFFFFFFFFFFFFFFFFFFFFFFFFFFFFFFFF AND DUP2 MSTORE PUSH1 0x20 ADD SWAP1 PUSH1 0x1 ADD SWAP1 DUP1 DUP4 GT PUSH2 0x4C6 JUMPI JUMPDEST POP POP POP POP POP SWAP1 POP SWAP1 JUMP JUMPDEST PUSH2 0x521 PUSH2 0x11D4 JUMP JUMPDEST PUSH2 0x529 PUSH2 0x121A JUMP JUMPDEST PUSH0 DUP3 MLOAD GT PUSH2 0x56C JUMPI PUSH1 0x40 MLOAD PUSH32 0x8C379A000000000000000000000000000000000000000000000000000000000 DUP2 MSTORE PUSH1 0x4 ADD PUSH2 0x563 SWAP1 PUSH2 0x272A JUMP JUMPDEST PUSH1 0x40 MLOAD DUP1 SWAP2 SUB SWAP1 REVERT JUMPDEST PUSH0 DUP2 MLOAD GT PUSH2 0x5AF JUMPI PUSH1 0x40 MLOAD PUSH32 0x8C379A000000000000000000000000000000000000000000000000000000000 DUP2 MSTORE PUSH1 0x4 ADD PUSH2 0x5A6 SWAP1 PUSH2 0x2792 JUMP JUMPDEST PUSH1 0x40 MLOAD DUP1 SWAP2 SUB SWAP1 REVERT JUMPDEST PUSH0 DUP1 PUSH0 PUSH1 0x2 PUSH1 0x1 SWAP1 SLOAD SWAP1 PUSH2 0x100 EXP SWAP1 DIV PUSH20 0xFFFFFFFFFFFFFFFFFFFFFFFFFFFFFFFFFFFFFFFF AND PUSH20 0xFFFFFFFFFFFFFFFFFFFFFFFFFFFFFFFFFFFFFFFF AND PUSH4 0xC0FD8BDE DUP7 PUSH1 0x40 MLOAD DUP3 PUSH4 0xFFFFFFFF AND PUSH1 0xE0 SHL DUP2 MSTORE PUSH1 0x4 ADD PUSH2 0x60D SWAP2 SWAP1 PUSH2 0x27B0 JUMP JUMPDEST PUSH0 PUSH1 0x40 MLOAD DUP1 DUP4 SUB DUP2 DUP7 GAS STATICCALL ISZERO DUP1 ISZERO PUSH2 0x627 JUMPI RETURNDATASIZE PUSH0 DUP1 RETURNDATACOPY RETURNDATASIZE PUSH0 REVERT JUMPDEST POP POP POP POP PUSH1 0x40 MLOAD RETURNDATASIZE PUSH0 DUP3 RETURNDATACOPY RETURNDATASIZE PUSH1 0x1F NOT PUSH1 0x1F DUP3 ADD AND DUP3 ADD DUP1 PUSH1 0x40 MSTORE POP DUP2 ADD SWAP1 PUSH2 0x64F SWAP2 SWAP1 PUSH2 0x2B08 JUMP JUMPDEST SWAP3 POP SWAP3 POP SWAP3 POP DUP2 DUP2 SWAP1 PUSH2 0x698 JUMPI PUSH1 0x40 MLOAD PUSH32 0x8C379A000000000000000000000000000000000000000000000000000000000 DUP2 MSTORE PUSH1 0x4 ADD PUSH2 0x68F SWAP2 SWAP1 PUSH2 0x2BD2 JUMP JUMPDEST PUSH1 0x40 MLOAD DUP1 SWAP2 SUB SWAP1 REVERT JUMPDEST POP PUSH1 0x1 PUSH2 0xFFFF AND DUP4 PUSH1 0x60 ADD MLOAD PUSH2 0xFFFF AND SUB PUSH2 0x6E8 JUMPI PUSH1 0x40 MLOAD PUSH32 0x8C379A000000000000000000000000000000000000000000000000000000000 DUP2 MSTORE PUSH1 0x4 ADD PUSH2 0x6DF SWAP1 PUSH2 0x2C3C JUMP JUMPDEST PUSH1 0x40 MLOAD DUP1 SWAP2 SUB SWAP1 REVERT JUMPDEST PUSH0 DUP1 PUSH0 DUP1 PUSH0 PUSH2 0x6FA DUP9 PUSH1 0xE0 ADD MLOAD PUSH2 0xAE6 JUMP JUMPDEST SWAP5 POP SWAP5 POP SWAP5 POP SWAP5 POP SWAP5 POP PUSH1 0x5 PUSH0 DUP6 DUP2 MSTORE PUSH1 0x20 ADD SWAP1 DUP2 MSTORE PUSH1 0x20 ADD PUSH0 KECCAK256 PUSH0 SWAP1 SLOAD SWAP1 PUSH2 0x100 EXP SWAP1 DIV PUSH1 0xFF AND ISZERO PUSH2 0x762 JUMPI PUSH1 0x40 MLOAD PUSH32 0x8C379A000000000000000000000000000000000000000000000000000000000 DUP2 MSTORE PUSH1 0x4 ADD PUSH2 0x759 SWAP1 PUSH2 0x2CA4 JUMP JUMPDEST PUSH1 0x40 MLOAD DUP1 SWAP2 SUB SWAP1 REVERT JUMPDEST PUSH1 0x3 PUSH0 SWAP1 SLOAD SWAP1 PUSH2 0x100 EXP SWAP1 DIV PUSH20 0xFFFFFFFFFFFFFFFFFFFFFFFFFFFFFFFFFFFFFFFF AND PUSH20 0xFFFFFFFFFFFFFFFFFFFFFFFFFFFFFFFFFFFFFFFF AND PUSH4 0xC2655925 DUP7 DUP7 DUP7 DUP7 DUP15 PUSH1 0x40 MLOAD DUP7 PUSH4 0xFFFFFFFF AND PUSH1 0xE0 SHL DUP2 MSTORE PUSH1 0x4 ADD PUSH2 0x7C4 SWAP6 SWAP5 SWAP4 SWAP3 SWAP2 SWAP1 PUSH2 0x1CA5 JUMP JUMPDEST PUSH1 0x20 PUSH1 0x40 MLOAD DUP1 DUP4 SUB DUP2 DUP7 GAS STATICCALL ISZERO DUP1 ISZERO PUSH2 0x7DF JUMPI RETURNDATASIZE PUSH0 DUP1 RETURNDATACOPY RETURNDATASIZE PUSH0 REVERT JUMPDEST POP POP POP POP PUSH1 0x40 MLOAD RETURNDATASIZE PUSH1 0x1F NOT PUSH1 0x1F DUP3 ADD AND DUP3 ADD DUP1 PUSH1 0x40 MSTORE POP DUP2 ADD SWAP1 PUSH2 0x803 SWAP2 SWAP1 PUSH2 0x2CC2 JUMP JUMPDEST PUSH2 0x842 JUMPI PUSH1 0x40 MLOAD PUSH32 0x8C379A000000000000000000000000000000000000000000000000000000000 DUP2 MSTORE PUSH1 0x4 ADD PUSH2 0x839 SWAP1 PUSH2 0x2D37 JUMP JUMPDEST PUSH1 0x40 MLOAD DUP1 SWAP2 SUB SWAP1 REVERT JUMPDEST PUSH1 0x40 MLOAD DUP1 PUSH2 0x140 ADD PUSH1 0x40 MSTORE DUP1 DUP7 DUP2 MSTORE PUSH1 0x20 ADD DUP10 PUSH1 0x60 ADD MLOAD PUSH2 0xFFFF AND DUP2 MSTORE PUSH1 0x20 ADD PUSH1 0x1 PUSH2 0xFFFF AND DUP2 MSTORE PUSH1 0x20 ADD DUP3 DUP1 MLOAD SWAP1 PUSH1 0x20 ADD KECCAK256 DUP2 MSTORE PUSH1 0x20 ADD DUP6 DUP2 MSTORE PUSH1 0x20 ADD DUP5 PUSH20 0xFFFFFFFFFFFFFFFFFFFFFFFFFFFFFFFFFFFFFFFF AND DUP2 MSTORE PUSH1 0x20 ADD DUP4 PUSH20 0xFFFFFFFFFFFFFFFFFFFFFFFFFFFFFFFFFFFFFFFF AND DUP2 MSTORE PUSH1 0x20 ADD PUSH0 ISZERO ISZERO DUP2 MSTORE PUSH1 0x20 ADD TIMESTAMP DUP2 MSTORE PUSH1 0x20 ADD DUP11 DUP1 MLOAD SWAP1 PUSH1 0x20 ADD KECCAK256 DUP2 MSTORE POP PUSH1 0x4 PUSH0 DUP8 DUP2 MSTORE PUSH1 0x20 ADD SWAP1 DUP2 MSTORE PUSH1 0x20 ADD PUSH0 KECCAK256 PUSH0 DUP3 ADD MLOAD DUP2 PUSH0 ADD SSTORE PUSH1 0x20 DUP3 ADD MLOAD DUP2 PUSH1 0x1 ADD PUSH0 PUSH2 0x100 EXP DUP2 SLOAD DUP2 PUSH2 0xFFFF MUL NOT AND SWAP1 DUP4 PUSH2 0xFFFF AND MUL OR SWAP1 SSTORE POP PUSH1 0x40 DUP3 ADD MLOAD DUP2 PUSH1 0x1 ADD PUSH1 0x2 PUSH2 0x100 EXP DUP2 SLOAD DUP2 PUSH2 0xFFFF MUL NOT AND SWAP1 DUP4 PUSH2 0xFFFF AND MUL OR SWAP1 SSTORE POP PUSH1 0x60 DUP3 ADD MLOAD DUP2 PUSH1 0x2 ADD SSTORE PUSH1 0x80 DUP3 ADD MLOAD DUP2 PUSH1 0x3 ADD SSTORE PUSH1 0xA0 DUP3 ADD MLOAD DUP2 PUSH1 0x4 ADD PUSH0 PUSH2 0x100 EXP DUP2 SLOAD DUP2 PUSH20 0xFFFFFFFFFFFFFFFFFFFFFFFFFFFFFFFFFFFFFFFF MUL NOT AND SWAP1 DUP4 PUSH20 0xFFFFFFFFFFFFFFFFFFFFFFFFFFFFFFFFFFFFFFFF AND MUL OR SWAP1 SSTORE POP PUSH1 0xC0 DUP3 ADD MLOAD DUP2 PUSH1 0x5 ADD PUSH0 PUSH2 0x100 EXP DUP2 SLOAD DUP2 PUSH20 0xFFFFFFFFFFFFFFFFFFFFFFFFFFFFFFFFFFFFFFFF MUL NOT AND SWAP1 DUP4 PUSH20 0xFFFFFFFFFFFFFFFFFFFFFFFFFFFFFFFFFFFFFFFF AND MUL OR SWAP1 SSTORE POP PUSH1 0xE0 DUP3 ADD MLOAD DUP2 PUSH1 0x5 ADD PUSH1 0x14 PUSH2 0x100 EXP DUP2 SLOAD DUP2 PUSH1 0xFF MUL NOT AND SWAP1 DUP4 ISZERO ISZERO MUL OR SWAP1 SSTORE POP PUSH2 0x100 DUP3 ADD MLOAD DUP2 PUSH1 0x6 ADD SSTORE PUSH2 0x120 DUP3 ADD MLOAD DUP2 PUSH1 0x7 ADD SSTORE SWAP1 POP POP PUSH1 0x1 PUSH1 0x5 PUSH0 DUP7 DUP2 MSTORE PUSH1 0x20 ADD SWAP1 DUP2 MSTORE PUSH1 0x20 ADD PUSH0 KECCAK256 PUSH0 PUSH2 0x100 EXP DUP2 SLOAD DUP2 PUSH1 0xFF MUL NOT AND SWAP1 DUP4 ISZERO ISZERO MUL OR SWAP1 SSTORE POP TIMESTAMP PUSH1 0x7 PUSH0 DUP8 DUP2 MSTORE PUSH1 0x20 ADD SWAP1 DUP2 MSTORE PUSH1 0x20 ADD PUSH0 KECCAK256 DUP2 SWAP1 SSTORE POP PUSH1 0x1 PUSH2 0xFFFF AND DUP9 PUSH1 0x60 ADD MLOAD PUSH2 0xFFFF AND DUP7 PUSH32 0x25156726CAD8BBE7B979B0CE27B209C8F538BC377A7BD56E133AD6B9EB851EC0 DUP7 DUP7 TIMESTAMP PUSH1 0x40 MLOAD PUSH2 0xA8A SWAP4 SWAP3 SWAP2 SWAP1 PUSH2 0x2D55 JUMP JUMPDEST PUSH1 0x40 MLOAD DUP1 SWAP2 SUB SWAP1 LOG4 DUP9 DUP1 MLOAD SWAP1 PUSH1 0x20 ADD KECCAK256 DUP6 PUSH32 0x5218389E256F588F1B0C542D774EC9BA39106830C105126B25A30EAB96AFA3BE TIMESTAMP PUSH1 0x40 MLOAD PUSH2 0xACA SWAP2 SWAP1 PUSH2 0x20E3 JUMP JUMPDEST PUSH1 0x40 MLOAD DUP1 SWAP2 SUB SWAP1 LOG3 POP POP POP POP POP POP POP POP PUSH2 0xAE2 PUSH2 0x125B JUMP JUMPDEST POP POP JUMP JUMPDEST PUSH0 DUP1 PUSH0 DUP1 PUSH1 0x60 PUSH1 0x80 DUP7 MLOAD LT ISZERO PUSH2 0xB31 JUMPI PUSH1 0x40 MLOAD PUSH32 0x8C379A000000000000000000000000000000000000000000000000000000000 DUP2 MSTORE PUSH1 0x4 ADD PUSH2 0xB28 SWAP1 PUSH2 0x2DD4 JUMP JUMPDEST PUSH1 0x40 MLOAD DUP1 SWAP2 SUB SWAP1 REVERT JUMPDEST PUSH1 0x20 DUP7 ADD MLOAD SWAP5 POP PUSH1 0x40 DUP7 ADD MLOAD SWAP4 POP PUSH20 0xFFFFFFFFFFFFFFFFFFFFFFFFFFFFFFFFFFFFFFFF PUSH1 0x60 DUP8 ADD MLOAD AND SWAP3 POP PUSH20 0xFFFFFFFFFFFFFFFFFFFFFFFFFFFFFFFFFFFFFFFF PUSH1 0x80 DUP8 ADD MLOAD AND SWAP2 POP PUSH0 PUSH1 0x80 DUP8 MLOAD PUSH2 0xB88 SWAP2 SWAP1 PUSH2 0x2E1F JUMP JUMPDEST SWAP1 POP DUP1 PUSH8 0xFFFFFFFFFFFFFFFF DUP2 GT ISZERO PUSH2 0xBA4 JUMPI PUSH2 0xBA3 PUSH2 0x1A3D JUMP JUMPDEST JUMPDEST PUSH1 0x40 MLOAD SWAP1 DUP1 DUP3 MSTORE DUP1 PUSH1 0x1F ADD PUSH1 0x1F NOT AND PUSH1 0x20 ADD DUP3 ADD PUSH1 0x40 MSTORE DUP1 ISZERO PUSH2 0xBD6 JUMPI DUP2 PUSH1 0x20 ADD PUSH1 0x1 DUP3 MUL DUP1 CALLDATASIZE DUP4 CALLDATACOPY DUP1 DUP3 ADD SWAP2 POP POP SWAP1 POP JUMPDEST POP SWAP2 POP PUSH0 DUP2 GT ISZERO PUSH2 0xC33 JUMPI PUSH1 0x20 DUP3 ADD PUSH1 0xA0 DUP9 ADD PUSH0 JUMPDEST DUP4 DUP2 LT ISZERO PUSH2 0xC2F JUMPI PUSH1 0x20 DUP2 DUP6 SUB LT ISZERO PUSH2 0xC1C JUMPI DUP1 DUP5 SUB PUSH1 0x1 DUP1 DUP3 PUSH1 0x20 SUB PUSH1 0x8 MUL SHL SUB DUP3 DUP5 ADD MLOAD AND DUP3 DUP6 ADD MSTORE POP PUSH2 0xC2F JUMP JUMPDEST DUP1 DUP3 ADD MLOAD DUP2 DUP5 ADD MSTORE PUSH1 0x20 DUP2 ADD SWAP1 POP PUSH2 0xBEB JUMP JUMPDEST POP POP POP JUMPDEST POP SWAP2 SWAP4 SWAP6 SWAP1 SWAP3 SWAP5 POP JUMP JUMPDEST PUSH1 0x3 PUSH0 SWAP1 SLOAD SWAP1 PUSH2 0x100 EXP SWAP1 DIV PUSH20 0xFFFFFFFFFFFFFFFFFFFFFFFFFFFFFFFFFFFFFFFF AND DUP2 JUMP JUMPDEST PUSH1 0x4 PUSH1 0x20 MSTORE DUP1 PUSH0 MSTORE PUSH1 0x40 PUSH0 KECCAK256 PUSH0 SWAP2 POP SWAP1 POP DUP1 PUSH0 ADD SLOAD SWAP1 DUP1 PUSH1 0x1 ADD PUSH0 SWAP1 SLOAD SWAP1 PUSH2 0x100 EXP SWAP1 DIV PUSH2 0xFFFF AND SWAP1 DUP1 PUSH1 0x1 ADD PUSH1 0x2 SWAP1 SLOAD SWAP1 PUSH2 0x100 EXP SWAP1 DIV PUSH2 0xFFFF AND SWAP1 DUP1 PUSH1 0x2 ADD SLOAD SWAP1 DUP1 PUSH1 0x3 ADD SLOAD SWAP1 DUP1 PUSH1 0x4 ADD PUSH0 SWAP1 SLOAD SWAP1 PUSH2 0x100 EXP SWAP1 DIV PUSH20 0xFFFFFFFFFFFFFFFFFFFFFFFFFFFFFFFFFFFFFFFF AND SWAP1 DUP1 PUSH1 0x5 ADD PUSH0 SWAP1 SLOAD SWAP1 PUSH2 0x100 EXP SWAP1 DIV PUSH20 0xFFFFFFFFFFFFFFFFFFFFFFFFFFFFFFFFFFFFFFFF AND SWAP1 DUP1 PUSH1 0x5 ADD PUSH1 0x14 SWAP1 SLOAD SWAP1 PUSH2 0x100 EXP SWAP1 DIV PUSH1 0xFF AND SWAP1 DUP1 PUSH1 0x6 ADD SLOAD SWAP1 DUP1 PUSH1 0x7 ADD SLOAD SWAP1 POP DUP11 JUMP JUMPDEST PUSH1 0x8 PUSH0 SWAP1 SLOAD SWAP1 PUSH2 0x100 EXP SWAP1 DIV PUSH4 0xFFFFFFFF AND DUP2 JUMP JUMPDEST PUSH1 0x6 PUSH1 0x20 MSTORE DUP1 PUSH0 MSTORE PUSH1 0x40 PUSH0 KECCAK256 PUSH0 SWAP2 POP SWAP1 POP DUP1 PUSH1 0x1 ADD PUSH0 SWAP1 SLOAD SWAP1 PUSH2 0x100 EXP SWAP1 DIV PUSH4 0xFFFFFFFF AND SWAP1 DUP1 PUSH1 0x1 ADD PUSH1 0x4 SWAP1 SLOAD SWAP1 PUSH2 0x100 EXP SWAP1 DIV PUSH1 0xFF AND SWAP1 POP DUP3 JUMP JUMPDEST PUSH0 DUP1 PUSH1 0x7 PUSH0 DUP5 DUP2 MSTORE PUSH1 0x20 ADD SWAP1 DUP2 MSTORE PUSH1 0x20 ADD PUSH0 KECCAK256 SLOAD SWAP1 POP PUSH0 DUP2 SUB PUSH2 0xD90 JUMPI PUSH0 SWAP2 POP POP PUSH2 0xDA5 JUMP JUMPDEST PUSH3 0x15180 DUP2 PUSH2 0xD9F SWAP2 SWAP1 PUSH2 0x2E52 JUMP JUMPDEST TIMESTAMP GT SWAP2 POP POP JUMPDEST SWAP2 SWAP1 POP JUMP JUMPDEST PUSH2 0xDB2 PUSH2 0x1264 JUMP JUMPDEST PUSH2 0xDBA PUSH2 0x12EB JUMP JUMPDEST JUMP JUMPDEST PUSH1 0x1 DUP2 JUMP JUMPDEST PUSH0 PUSH1 0x2 PUSH0 SWAP1 SLOAD SWAP1 PUSH2 0x100 EXP SWAP1 DIV PUSH1 0xFF AND SWAP1 POP SWAP1 JUMP JUMPDEST PUSH2 0xDDE PUSH2 0x1264 JUMP JUMPDEST PUSH2 0xDE7 DUP2 PUSH2 0x134C JUMP JUMPDEST POP JUMP JUMPDEST PUSH2 0xDF2 PUSH2 0x1264 JUMP JUMPDEST PUSH2 0xDFB PUSH0 PUSH2 0x1550 JUMP JUMPDEST JUMP JUMPDEST PUSH1 0x7 PUSH1 0x20 MSTORE DUP1 PUSH0 MSTORE PUSH1 0x40 PUSH0 KECCAK256 PUSH0 SWAP2 POP SWAP1 POP SLOAD DUP2 JUMP JUMPDEST PUSH1 0x5 PUSH1 0x20 MSTORE DUP1 PUSH0 MSTORE PUSH1 0x40 PUSH0 KECCAK256 PUSH0 SWAP2 POP SLOAD SWAP1 PUSH2 0x100 EXP SWAP1 DIV PUSH1 0xFF AND DUP2 JUMP JUMPDEST PUSH2 0xE37 PUSH2 0x1264 JUMP JUMPDEST PUSH2 0xE3F PUSH2 0x1611 JUMP JUMPDEST JUMP JUMPDEST PUSH1 0x2 PUSH1 0x1 SWAP1 SLOAD SWAP1 PUSH2 0x100 EXP SWAP1 DIV PUSH20 0xFFFFFFFFFFFFFFFFFFFFFFFFFFFFFFFFFFFFFFFF AND DUP2 JUMP JUMPDEST PUSH3 0x15180 DUP2 JUMP JUMPDEST PUSH0 DUP1 PUSH0 SWAP1 SLOAD SWAP1 PUSH2 0x100 EXP SWAP1 DIV PUSH20 0xFFFFFFFFFFFFFFFFFFFFFFFFFFFFFFFFFFFFFFFF AND SWAP1 POP SWAP1 JUMP JUMPDEST PUSH1 0x1 DUP2 JUMP JUMPDEST PUSH2 0xEA2 PUSH2 0x1264 JUMP JUMPDEST PUSH1 0x40 MLOAD DUP1 PUSH1 0xA0 ADD PUSH1 0x40 MSTORE DUP1 DUP7 DUP2 MSTORE PUSH1 0x20 ADD DUP6 DUP2 MSTORE PUSH1 0x20 ADD DUP5 DUP2 MSTORE PUSH1 0x20 ADD DUP4 DUP2 MSTORE PUSH1 0x20 ADD DUP3 DUP2 MSTORE POP PUSH1 0x9 PUSH0 DUP3 ADD MLOAD DUP2 PUSH0 ADD SWAP1 PUSH1 0x2 PUSH2 0xEE0 SWAP3 SWAP2 SWAP1 PUSH2 0x16BA JUMP JUMPDEST POP PUSH1 0x20 DUP3 ADD MLOAD DUP2 PUSH1 0x2 ADD SWAP1 PUSH1 0x2 PUSH2 0xEF8 SWAP3 SWAP2 SWAP1 PUSH2 0x16FA JUMP JUMPDEST POP PUSH1 0x40 DUP3 ADD MLOAD DUP2 PUSH1 0x6 ADD SWAP1 PUSH1 0x2 PUSH2 0xF10 SWAP3 SWAP2 SWAP1 PUSH2 0x16BA JUMP JUMPDEST POP PUSH1 0x60 DUP3 ADD MLOAD DUP2 PUSH1 0x8 ADD SWAP1 PUSH1 0x2 PUSH2 0xF28 SWAP3 SWAP2 SWAP1 PUSH2 0x16BA JUMP JUMPDEST POP PUSH1 0x80 DUP3 ADD MLOAD DUP2 PUSH1 0xA ADD SWAP1 DUP1 MLOAD SWAP1 PUSH1 0x20 ADD SWAP1 PUSH2 0xF45 SWAP3 SWAP2 SWAP1 PUSH2 0x174A JUMP JUMPDEST POP SWAP1 POP POP POP POP POP POP POP JUMP JUMPDEST PUSH2 0xF58 PUSH2 0x17A6 JUMP JUMPDEST PUSH2 0xF60 PUSH2 0x1264 JUMP JUMPDEST PUSH1 0x9 PUSH1 0x40 MLOAD DUP1 PUSH1 0xA0 ADD PUSH1 0x40 MSTORE SWAP1 DUP2 PUSH0 DUP3 ADD PUSH1 0x2 DUP1 PUSH1 0x20 MUL PUSH1 0x40 MLOAD SWAP1 DUP2 ADD PUSH1 0x40 MSTORE DUP1 SWAP3 SWAP2 SWAP1 DUP3 PUSH1 0x2 DUP1 ISZERO PUSH2 0xFA8 JUMPI PUSH1 0x20 MUL DUP3 ADD SWAP2 JUMPDEST DUP2 SLOAD DUP2 MSTORE PUSH1 0x20 ADD SWAP1 PUSH1 0x1 ADD SWAP1 DUP1 DUP4 GT PUSH2 0xF94 JUMPI JUMPDEST POP POP POP POP POP DUP2 MSTORE PUSH1 0x20 ADD PUSH1 0x2 DUP3 ADD PUSH1 0x2 DUP1 PUSH1 0x20 MUL PUSH1 0x40 MLOAD SWAP1 DUP2 ADD PUSH1 0x40 MSTORE DUP1 SWAP3 SWAP2 SWAP1 PUSH0 SWAP1 JUMPDEST DUP3 DUP3 LT ISZERO PUSH2 0x1025 JUMPI DUP4 DUP3 PUSH1 0x2 MUL ADD PUSH1 0x2 DUP1 PUSH1 0x20 MUL PUSH1 0x40 MLOAD SWAP1 DUP2 ADD PUSH1 0x40 MSTORE DUP1 SWAP3 SWAP2 SWAP1 DUP3 PUSH1 0x2 DUP1 ISZERO PUSH2 0x1011 JUMPI PUSH1 0x20 MUL DUP3 ADD SWAP2 JUMPDEST DUP2 SLOAD DUP2 MSTORE PUSH1 0x20 ADD SWAP1 PUSH1 0x1 ADD SWAP1 DUP1 DUP4 GT PUSH2 0xFFD JUMPI JUMPDEST POP POP POP POP POP DUP2 MSTORE PUSH1 0x20 ADD SWAP1 PUSH1 0x1 ADD SWAP1 PUSH2 0xFCC JUMP JUMPDEST POP POP POP POP DUP2 MSTORE PUSH1 0x20 ADD PUSH1 0x6 DUP3 ADD PUSH1 0x2 DUP1 PUSH1 0x20 MUL PUSH1 0x40 MLOAD SWAP1 DUP2 ADD PUSH1 0x40 MSTORE DUP1 SWAP3 SWAP2 SWAP1 DUP3 PUSH1 0x2 DUP1 ISZERO PUSH2 0x1069 JUMPI PUSH1 0x20 MUL DUP3 ADD SWAP2 JUMPDEST DUP2 SLOAD DUP2 MSTORE PUSH1 0x20 ADD SWAP1 PUSH1 0x1 ADD SWAP1 DUP1 DUP4 GT PUSH2 0x1055 JUMPI JUMPDEST POP POP POP POP POP DUP2 MSTORE PUSH1 0x20 ADD PUSH1 0x8 DUP3 ADD PUSH1 0x2 DUP1 PUSH1 0x20 MUL PUSH1 0x40 MLOAD SWAP1 DUP2 ADD PUSH1 0x40 MSTORE DUP1 SWAP3 SWAP2 SWAP1 DUP3 PUSH1 0x2 DUP1 ISZERO PUSH2 0x10AE JUMPI PUSH1 0x20 MUL DUP3 ADD SWAP2 JUMPDEST DUP2 SLOAD DUP2 MSTORE PUSH1 0x20 ADD SWAP1 PUSH1 0x1 ADD SWAP1 DUP1 DUP4 GT PUSH2 0x109A JUMPI JUMPDEST POP POP POP POP POP DUP2 MSTORE PUSH1 0x20 ADD PUSH1 0xA DUP3 ADD DUP1 SLOAD DUP1 PUSH1 0x20 MUL PUSH1 0x20 ADD PUSH1 0x40 MLOAD SWAP1 DUP2 ADD PUSH1 0x40 MSTORE DUP1 SWAP3 SWAP2 SWAP1 DUP2 DUP2 MSTORE PUSH1 0x20 ADD PUSH0 SWAP1 JUMPDEST DUP3 DUP3 LT ISZERO PUSH2 0x113C JUMPI DUP4 DUP3 SWAP1 PUSH0 MSTORE PUSH1 0x20 PUSH0 KECCAK256 SWAP1 PUSH1 0x2 MUL ADD PUSH1 0x2 DUP1 PUSH1 0x20 MUL PUSH1 0x40 MLOAD SWAP1 DUP2 ADD PUSH1 0x40 MSTORE DUP1 SWAP3 SWAP2 SWAP1 DUP3 PUSH1 0x2 DUP1 ISZERO PUSH2 0x1128 JUMPI PUSH1 0x20 MUL DUP3 ADD SWAP2 JUMPDEST DUP2 SLOAD DUP2 MSTORE PUSH1 0x20 ADD SWAP1 PUSH1 0x1 ADD SWAP1 DUP1 DUP4 GT PUSH2 0x1114 JUMPI JUMPDEST POP POP POP POP POP DUP2 MSTORE PUSH1 0x20 ADD SWAP1 PUSH1 0x1 ADD SWAP1 PUSH2 0x10DB JUMP JUMPDEST POP POP POP POP DUP2 MSTORE POP POP SWAP1 POP SWAP1 JUMP JUMPDEST PUSH3 0x15180 DUP2 JUMP JUMPDEST PUSH2 0x1158 PUSH2 0x1264 JUMP JUMPDEST PUSH0 PUSH20 0xFFFFFFFFFFFFFFFFFFFFFFFFFFFFFFFFFFFFFFFF AND DUP2 PUSH20 0xFFFFFFFFFFFFFFFFFFFFFFFFFFFFFFFFFFFFFFFF AND SUB PUSH2 0x11C8 JUMPI PUSH0 PUSH1 0x40 MLOAD PUSH32 0x1E4FBDF700000000000000000000000000000000000000000000000000000000 DUP2 MSTORE PUSH1 0x4 ADD PUSH2 0x11BF SWAP2 SWAP1 PUSH2 0x2135 JUMP JUMPDEST PUSH1 0x40 MLOAD DUP1 SWAP2 SUB SWAP1 REVERT JUMPDEST PUSH2 0x11D1 DUP2 PUSH2 0x1550 JUMP JUMPDEST POP JUMP JUMPDEST PUSH1 0x2 PUSH1 0x1 SLOAD SUB PUSH2 0x1210 JUMPI PUSH1 0x40 MLOAD PUSH32 0x3EE5AEB500000000000000000000000000000000000000000000000000000000 DUP2 MSTORE PUSH1 0x4 ADD PUSH1 0x40 MLOAD DUP1 SWAP2 SUB SWAP1 REVERT JUMPDEST PUSH1 0x2 PUSH1 0x1 DUP2 SWAP1 SSTORE POP JUMP JUMPDEST PUSH2 0x1222 PUSH2 0xDC1 JUMP JUMPDEST ISZERO PUSH2 0x1259 JUMPI PUSH1 0x40 MLOAD PUSH32 0xD93C066500000000000000000000000000000000000000000000000000000000 DUP2 MSTORE PUSH1 0x4 ADD PUSH1 0x40 MLOAD DUP1 SWAP2 SUB SWAP1 REVERT JUMPDEST JUMP JUMPDEST PUSH1 0x1 DUP1 DUP2 SWAP1 SSTORE POP JUMP JUMPDEST PUSH2 0x126C PUSH2 0x1673 JUMP JUMPDEST PUSH20 0xFFFFFFFFFFFFFFFFFFFFFFFFFFFFFFFFFFFFFFFF AND PUSH2 0x128A PUSH2 0xE6E JUMP JUMPDEST PUSH20 0xFFFFFFFFFFFFFFFFFFFFFFFFFFFFFFFFFFFFFFFF AND EQ PUSH2 0x12E9 JUMPI PUSH2 0x12AD PUSH2 0x1673 JUMP JUMPDEST PUSH1 0x40 MLOAD PUSH32 0x118CDAA700000000000000000000000000000000000000000000000000000000 DUP2 MSTORE PUSH1 0x4 ADD PUSH2 0x12E0 SWAP2 SWAP1 PUSH2 0x2135 JUMP JUMPDEST PUSH1 0x40 MLOAD DUP1 SWAP2 SUB SWAP1 REVERT JUMPDEST JUMP JUMPDEST PUSH2 0x12F3 PUSH2 0x167A JUMP JUMPDEST PUSH0 PUSH1 0x2 PUSH0 PUSH2 0x100 EXP DUP2 SLOAD DUP2 PUSH1 0xFF MUL NOT AND SWAP1 DUP4 ISZERO ISZERO MUL OR SWAP1 SSTORE POP PUSH32 0x5DB9EE0A495BF2E6FF9C91A7834C1BA4FDD244A5E8AA4E537BD38AEAE4B073AA PUSH2 0x1335 PUSH2 0x1673 JUMP JUMPDEST PUSH1 0x40 MLOAD PUSH2 0x1342 SWAP2 SWAP1 PUSH2 0x2135 JUMP JUMPDEST PUSH1 0x40 MLOAD DUP1 SWAP2 SUB SWAP1 LOG1 JUMP JUMPDEST PUSH0 DUP2 MLOAD GT PUSH2 0x138F JUMPI PUSH1 0x40 MLOAD PUSH32 0x8C379A000000000000000000000000000000000000000000000000000000000 DUP2 MSTORE PUSH1 0x4 ADD PUSH2 0x1386 SWAP1 PUSH2 0x2ECF JUMP JUMPDEST PUSH1 0x40 MLOAD DUP1 SWAP2 SUB SWAP1 REVERT JUMPDEST PUSH0 PUSH1 0x8 PUSH0 SWAP1 SLOAD SWAP1 PUSH2 0x100 EXP SWAP1 DIV PUSH4 0xFFFFFFFF AND PUSH4 0xFFFFFFFF AND GT ISZERO PUSH2 0x1433 JUMPI PUSH0 PUSH1 0x6 PUSH0 PUSH1 0x8 PUSH0 SWAP1 SLOAD SWAP1 PUSH2 0x100 EXP SWAP1 DIV PUSH4 0xFFFFFFFF AND PUSH4 0xFFFFFFFF AND PUSH4 0xFFFFFFFF AND DUP2 MSTORE PUSH1 0x20 ADD SWAP1 DUP2 MSTORE PUSH1 0x20 ADD PUSH0 KECCAK256 SWAP1 POP PUSH3 0x15180 PUSH4 0xFFFFFFFF AND TIMESTAMP PUSH2 0x13F4 SWAP2 SWAP1 PUSH2 0x2E52 JUMP JUMPDEST DUP2 PUSH1 0x1 ADD PUSH0 PUSH2 0x100 EXP DUP2 SLOAD DUP2 PUSH4 0xFFFFFFFF MUL NOT AND SWAP1 DUP4 PUSH4 0xFFFFFFFF AND MUL OR SWAP1 SSTORE POP PUSH0 DUP2 PUSH1 0x1 ADD PUSH1 0x4 PUSH2 0x100 EXP DUP2 SLOAD DUP2 PUSH1 0xFF MUL NOT AND SWAP1 DUP4 ISZERO ISZERO MUL OR SWAP1 SSTORE POP POP JUMPDEST PUSH1 0x8 PUSH0 DUP2 DUP2 SWAP1 SLOAD SWAP1 PUSH2 0x100 EXP SWAP1 DIV PUSH4 0xFFFFFFFF AND DUP1 SWAP3 SWAP2 SWAP1 PUSH2 0x1454 SWAP1 PUSH2 0x2EED JUMP JUMPDEST SWAP2 SWAP1 PUSH2 0x100 EXP DUP2 SLOAD DUP2 PUSH4 0xFFFFFFFF MUL NOT AND SWAP1 DUP4 PUSH4 0xFFFFFFFF AND MUL OR SWAP1 SSTORE POP POP PUSH0 PUSH1 0x6 PUSH0 PUSH1 0x8 PUSH0 SWAP1 SLOAD SWAP1 PUSH2 0x100 EXP SWAP1 DIV PUSH4 0xFFFFFFFF AND PUSH4 0xFFFFFFFF AND PUSH4 0xFFFFFFFF AND DUP2 MSTORE PUSH1 0x20 ADD SWAP1 DUP2 MSTORE PUSH1 0x20 ADD PUSH0 KECCAK256 SWAP1 POP DUP2 DUP2 PUSH0 ADD SWAP1 DUP1 MLOAD SWAP1 PUSH1 0x20 ADD SWAP1 PUSH2 0x14BB SWAP3 SWAP2 SWAP1 PUSH2 0x17ED JUMP JUMPDEST POP PUSH1 0x1 DUP2 PUSH1 0x1 ADD PUSH1 0x4 PUSH2 0x100 EXP DUP2 SLOAD DUP2 PUSH1 0xFF MUL NOT AND SWAP1 DUP4 ISZERO ISZERO MUL OR SWAP1 SSTORE POP PUSH0 DUP2 PUSH1 0x1 ADD PUSH0 PUSH2 0x100 EXP DUP2 SLOAD DUP2 PUSH4 0xFFFFFFFF MUL NOT AND SWAP1 DUP4 PUSH4 0xFFFFFFFF AND MUL OR SWAP1 SSTORE POP PUSH1 0x8 PUSH0 SWAP1 SLOAD SWAP1 PUSH2 0x100 EXP SWAP1 DIV PUSH4 0xFFFFFFFF AND PUSH4 0xFFFFFFFF AND PUSH32 0x40E08E85D8648F6568A266D340DFD142E0CDCEB54D02A1160AC5C23383DF881 DUP4 TIMESTAMP PUSH1 0x40 MLOAD PUSH2 0x1544 SWAP3 SWAP2 SWAP1 PUSH2 0x2F18 JUMP JUMPDEST PUSH1 0x40 MLOAD DUP1 SWAP2 SUB SWAP1 LOG2 POP POP JUMP JUMPDEST PUSH0 DUP1 PUSH0 SWAP1 SLOAD SWAP1 PUSH2 0x100 EXP SWAP1 DIV PUSH20 0xFFFFFFFFFFFFFFFFFFFFFFFFFFFFFFFFFFFFFFFF AND SWAP1 POP DUP2 PUSH0 DUP1 PUSH2 0x100 EXP DUP2 SLOAD DUP2 PUSH20 0xFFFFFFFFFFFFFFFFFFFFFFFFFFFFFFFFFFFFFFFF MUL NOT AND SWAP1 DUP4 PUSH20 0xFFFFFFFFFFFFFFFFFFFFFFFFFFFFFFFFFFFFFFFF AND MUL OR SWAP1 SSTORE POP DUP2 PUSH20 0xFFFFFFFFFFFFFFFFFFFFFFFFFFFFFFFFFFFFFFFF AND DUP2 PUSH20 0xFFFFFFFFFFFFFFFFFFFFFFFFFFFFFFFFFFFFFFFF AND PUSH32 0x8BE0079C531659141344CD1FD0A4F28419497F9722A3DAAFE3B4186F6B6457E0 PUSH1 0x40 MLOAD PUSH1 0x40 MLOAD DUP1 SWAP2 SUB SWAP1 LOG3 POP POP JUMP JUMPDEST PUSH2 0x1619 PUSH2 0x121A JUMP JUMPDEST PUSH1 0x1 PUSH1 0x2 PUSH0 PUSH2 0x100 EXP DUP2 SLOAD DUP2 PUSH1 0xFF MUL NOT AND SWAP1 DUP4 ISZERO ISZERO MUL OR SWAP1 SSTORE POP PUSH32 0x62E78CEA01BEE320CD4E420270B5EA74000D11B0C9F74754EBDBFC544B05A258 PUSH2 0x165C PUSH2 0x1673 JUMP JUMPDEST PUSH1 0x40 MLOAD PUSH2 0x1669 SWAP2 SWAP1 PUSH2 0x2135 JUMP JUMPDEST PUSH1 0x40 MLOAD DUP1 SWAP2 SUB SWAP1 LOG1 JUMP JUMPDEST PUSH0 CALLER SWAP1 POP SWAP1 JUMP JUMPDEST PUSH2 0x1682 PUSH2 0xDC1 JUMP JUMPDEST PUSH2 0x16B8 JUMPI PUSH1 0x40 MLOAD PUSH32 0x8DFC202B00000000000000000000000000000000000000000000000000000000 DUP2 MSTORE PUSH1 0x4 ADD PUSH1 0x40 MLOAD DUP1 SWAP2 SUB SWAP1 REVERT JUMPDEST JUMP JUMPDEST DUP3 PUSH1 0x2 DUP2 ADD SWAP3 DUP3 ISZERO PUSH2 0x16E9 JUMPI SWAP2 PUSH1 0x20 MUL DUP3 ADD JUMPDEST DUP3 DUP2 GT ISZERO PUSH2 0x16E8 JUMPI DUP3 MLOAD DUP3 SSTORE SWAP2 PUSH1 0x20 ADD SWAP2 SWAP1 PUSH1 0x1 ADD SWAP1 PUSH2 0x16CD JUMP JUMPDEST JUMPDEST POP SWAP1 POP PUSH2 0x16F6 SWAP2 SWAP1 PUSH2 0x1874 JUMP JUMPDEST POP SWAP1 JUMP JUMPDEST DUP3 PUSH1 0x2 DUP1 MUL DUP2 ADD SWAP3 DUP3 ISZERO PUSH2 0x1739 JUMPI SWAP2 PUSH1 0x20 MUL DUP3 ADD JUMPDEST DUP3 DUP2 GT ISZERO PUSH2 0x1738 JUMPI DUP3 MLOAD DUP3 SWAP1 PUSH1 0x2 PUSH2 0x1728 SWAP3 SWAP2 SWAP1 PUSH2 0x16BA JUMP JUMPDEST POP SWAP2 PUSH1 0x20 ADD SWAP2 SWAP1 PUSH1 0x2 ADD SWAP1 PUSH2 0x170F JUMP JUMPDEST JUMPDEST POP SWAP1 POP PUSH2 0x1746 SWAP2 SWAP1 PUSH2 0x188F JUMP JUMPDEST POP SWAP1 JUMP JUMPDEST DUP3 DUP1 SLOAD DUP3 DUP3 SSTORE SWAP1 PUSH0 MSTORE PUSH1 0x20 PUSH0 KECCAK256 SWAP1 PUSH1 0x2 MUL DUP2 ADD SWAP3 DUP3 ISZERO PUSH2 0x1795 JUMPI SWAP2 PUSH1 0x20 MUL DUP3 ADD JUMPDEST DUP3 DUP2 GT ISZERO PUSH2 0x1794 JUMPI DUP3 MLOAD DUP3 SWAP1 PUSH1 0x2 PUSH2 0x1784 SWAP3 SWAP2 SWAP1 PUSH2 0x16BA JUMP JUMPDEST POP SWAP2 PUSH1 0x20 ADD SWAP2 SWAP1 PUSH1 0x2 ADD SWAP1 PUSH2 0x176B JUMP JUMPDEST JUMPDEST POP SWAP1 POP PUSH2 0x17A2 SWAP2 SWAP1 PUSH2 0x188F JUMP JUMPDEST POP SWAP1 JUMP JUMPDEST PUSH1 0x40 MLOAD DUP1 PUSH1 0xA0 ADD PUSH1 0x40 MSTORE DUP1 PUSH2 0x17B9 PUSH2 0x18B2 JUMP JUMPDEST DUP2 MSTORE PUSH1 0x20 ADD PUSH2 0x17C6 PUSH2 0x18D4 JUMP JUMPDEST DUP2 MSTORE PUSH1 0x20 ADD PUSH2 0x17D3 PUSH2 0x18B2 JUMP JUMPDEST DUP2 MSTORE PUSH1 0x20 ADD PUSH2 0x17E0 PUSH2 0x18B2 JUMP JUMPDEST DUP2 MSTORE PUSH1 0x20 ADD PUSH1 0x60 DUP2 MSTORE POP SWAP1 JUMP JUMPDEST DUP3 DUP1 SLOAD DUP3 DUP3 SSTORE SWAP1 PUSH0 MSTORE PUSH1 0x20 PUSH0 KECCAK256 SWAP1 DUP2 ADD SWAP3 DUP3 ISZERO PUSH2 0x1863 JUMPI SWAP2 PUSH1 0x20 MUL DUP3 ADD JUMPDEST DUP3 DUP2 GT ISZERO PUSH2 0x1862 JUMPI DUP3 MLOAD DUP3 PUSH0 PUSH2 0x100 EXP DUP2 SLOAD DUP2 PUSH20 0xFFFFFFFFFFFFFFFFFFFFFFFFFFFFFFFFFFFFFFFF MUL NOT AND SWAP1 DUP4 PUSH20 0xFFFFFFFFFFFFFFFFFFFFFFFFFFFFFFFFFFFFFFFF AND MUL OR SWAP1 SSTORE POP SWAP2 PUSH1 0x20 ADD SWAP2 SWAP1 PUSH1 0x1 ADD SWAP1 PUSH2 0x180B JUMP JUMPDEST JUMPDEST POP SWAP1 POP PUSH2 0x1870 SWAP2 SWAP1 PUSH2 0x1874 JUMP JUMPDEST POP SWAP1 JUMP JUMPDEST JUMPDEST DUP1 DUP3 GT ISZERO PUSH2 0x188B JUMPI PUSH0 DUP2 PUSH0 SWAP1 SSTORE POP PUSH1 0x1 ADD PUSH2 0x1875 JUMP JUMPDEST POP SWAP1 JUMP JUMPDEST JUMPDEST DUP1 DUP3 GT ISZERO PUSH2 0x18AE JUMPI PUSH0 DUP2 DUP2 PUSH2 0x18A5 SWAP2 SWAP1 PUSH2 0x1901 JUMP JUMPDEST POP PUSH1 0x2 ADD PUSH2 0x1890 JUMP JUMPDEST POP SWAP1 JUMP JUMPDEST PUSH1 0x40 MLOAD DUP1 PUSH1 0x40 ADD PUSH1 0x40 MSTORE DUP1 PUSH1 0x2 SWAP1 PUSH1 0x20 DUP3 MUL DUP1 CALLDATASIZE DUP4 CALLDATACOPY DUP1 DUP3 ADD SWAP2 POP POP SWAP1 POP POP SWAP1 JUMP JUMPDEST PUSH1 0x40 MLOAD DUP1 PUSH1 0x40 ADD PUSH1 0x40 MSTORE DUP1 PUSH1 0x2 SWAP1 JUMPDEST PUSH2 0x18EB PUSH2 0x18B2 JUMP JUMPDEST DUP2 MSTORE PUSH1 0x20 ADD SWAP1 PUSH1 0x1 SWAP1 SUB SWAP1 DUP2 PUSH2 0x18E3 JUMPI SWAP1 POP POP SWAP1 JUMP JUMPDEST POP PUSH0 DUP2 SSTORE PUSH1 0x1 ADD PUSH0 SWAP1 SSTORE JUMP JUMPDEST PUSH0 DUP2 MLOAD SWAP1 POP SWAP2 SWAP1 POP JUMP JUMPDEST PUSH0 DUP3 DUP3 MSTORE PUSH1 0x20 DUP3 ADD SWAP1 POP SWAP3 SWAP2 POP POP JUMP JUMPDEST PUSH0 DUP2 SWAP1 POP PUSH1 0x20 DUP3 ADD SWAP1 POP SWAP2 SWAP1 POP JUMP JUMPDEST PUSH0 PUSH20 0xFFFFFFFFFFFFFFFFFFFFFFFFFFFFFFFFFFFFFFFF DUP3 AND SWAP1 POP SWAP2 SWAP1 POP JUMP JUMPDEST PUSH0 PUSH2 0x195F DUP3 PUSH2 0x1936 JUMP JUMPDEST SWAP1 POP SWAP2 SWAP1 POP JUMP JUMPDEST PUSH2 0x196F DUP2 PUSH2 0x1955 JUMP JUMPDEST DUP3 MSTORE POP POP JUMP JUMPDEST PUSH0 PUSH2 0x1980 DUP4 DUP4 PUSH2 0x1966 JUMP JUMPDEST PUSH1 0x20 DUP4 ADD SWAP1 POP SWAP3 SWAP2 POP POP JUMP JUMPDEST PUSH0 PUSH1 0x20 DUP3 ADD SWAP1 POP SWAP2 SWAP1 POP JUMP JUMPDEST PUSH0 PUSH2 0x19A2 DUP3 PUSH2 0x190D JUMP JUMPDEST PUSH2 0x19AC DUP2 DUP6 PUSH2 0x1917 JUMP JUMPDEST SWAP4 POP PUSH2 0x19B7 DUP4 PUSH2 0x1927 JUMP JUMPDEST DUP1 PUSH0 JUMPDEST DUP4 DUP2 LT ISZERO PUSH2 0x19E7 JUMPI DUP2 MLOAD PUSH2 0x19CE DUP9 DUP3 PUSH2 0x1975 JUMP JUMPDEST SWAP8 POP PUSH2 0x19D9 DUP4 PUSH2 0x198C JUMP JUMPDEST SWAP3 POP POP PUSH1 0x1 DUP2 ADD SWAP1 POP PUSH2 0x19BA JUMP JUMPDEST POP DUP6 SWAP4 POP POP POP POP SWAP3 SWAP2 POP POP JUMP JUMPDEST PUSH0 PUSH1 0x20 DUP3 ADD SWAP1 POP DUP2 DUP2 SUB PUSH0 DUP4 ADD MSTORE PUSH2 0x1A0C DUP2 DUP5 PUSH2 0x1998 JUMP JUMPDEST SWAP1 POP SWAP3 SWAP2 POP POP JUMP JUMPDEST PUSH0 PUSH1 0x40 MLOAD SWAP1 POP SWAP1 JUMP JUMPDEST PUSH0 DUP1 REVERT JUMPDEST PUSH0 DUP1 REVERT JUMPDEST PUSH0 DUP1 REVERT JUMPDEST PUSH0 DUP1 REVERT JUMPDEST PUSH0 PUSH1 0x1F NOT PUSH1 0x1F DUP4 ADD AND SWAP1 POP SWAP2 SWAP1 POP JUMP JUMPDEST PUSH32 0x4E487B7100000000000000000000000000000000000000000000000000000000 PUSH0 MSTORE PUSH1 0x41 PUSH1 0x4 MSTORE PUSH1 0x24 PUSH0 REVERT JUMPDEST PUSH2 0x1A73 DUP3 PUSH2 0x1A2D JUMP JUMPDEST DUP2 ADD DUP2 DUP2 LT PUSH8 0xFFFFFFFFFFFFFFFF DUP3 GT OR ISZERO PUSH2 0x1A92 JUMPI PUSH2 0x1A91 PUSH2 0x1A3D JUMP JUMPDEST JUMPDEST DUP1 PUSH1 0x40 MSTORE POP POP POP JUMP JUMPDEST PUSH0 PUSH2 0x1AA4 PUSH2 0x1A14 JUMP JUMPDEST SWAP1 POP PUSH2 0x1AB0 DUP3 DUP3 PUSH2 0x1A6A JUMP JUMPDEST SWAP2 SWAP1 POP JUMP JUMPDEST PUSH0 PUSH8 0xFFFFFFFFFFFFFFFF DUP3 GT ISZERO PUSH2 0x1ACF JUMPI PUSH2 0x1ACE PUSH2 0x1A3D JUMP JUMPDEST JUMPDEST PUSH2 0x1AD8 DUP3 PUSH2 0x1A2D JUMP JUMPDEST SWAP1 POP PUSH1 0x20 DUP2 ADD SWAP1 POP SWAP2 SWAP1 POP JUMP JUMPDEST DUP3 DUP2 DUP4 CALLDATACOPY PUSH0 DUP4 DUP4 ADD MSTORE POP POP POP JUMP JUMPDEST PUSH0 PUSH2 0x1B05 PUSH2 0x1B00 DUP5 PUSH2 0x1AB5 JUMP JUMPDEST PUSH2 0x1A9B JUMP JUMPDEST SWAP1 POP DUP3 DUP2 MSTORE PUSH1 0x20 DUP2 ADD DUP5 DUP5 DUP5 ADD GT ISZERO PUSH2 0x1B21 JUMPI PUSH2 0x1B20 PUSH2 0x1A29 JUMP JUMPDEST JUMPDEST PUSH2 0x1B2C DUP5 DUP3 DUP6 PUSH2 0x1AE5 JUMP JUMPDEST POP SWAP4 SWAP3 POP POP POP JUMP JUMPDEST PUSH0 DUP3 PUSH1 0x1F DUP4 ADD SLT PUSH2 0x1B48 JUMPI PUSH2 0x1B47 PUSH2 0x1A25 JUMP JUMPDEST JUMPDEST DUP2 CALLDATALOAD PUSH2 0x1B58 DUP5 DUP3 PUSH1 0x20 DUP7 ADD PUSH2 0x1AF3 JUMP JUMPDEST SWAP2 POP POP SWAP3 SWAP2 POP POP JUMP JUMPDEST PUSH0 DUP1 PUSH1 0x40 DUP4 DUP6 SUB SLT ISZERO PUSH2 0x1B77 JUMPI PUSH2 0x1B76 PUSH2 0x1A1D JUMP JUMPDEST JUMPDEST PUSH0 DUP4 ADD CALLDATALOAD PUSH8 0xFFFFFFFFFFFFFFFF DUP2 GT ISZERO PUSH2 0x1B94 JUMPI PUSH2 0x1B93 PUSH2 0x1A21 JUMP JUMPDEST JUMPDEST PUSH2 0x1BA0 DUP6 DUP3 DUP7 ADD PUSH2 0x1B34 JUMP JUMPDEST SWAP3 POP POP PUSH1 0x20 DUP4 ADD CALLDATALOAD PUSH8 0xFFFFFFFFFFFFFFFF DUP2 GT ISZERO PUSH2 0x1BC1 JUMPI PUSH2 0x1BC0 PUSH2 0x1A21 JUMP JUMPDEST JUMPDEST PUSH2 0x1BCD DUP6 DUP3 DUP7 ADD PUSH2 0x1B34 JUMP JUMPDEST SWAP2 POP POP SWAP3 POP SWAP3 SWAP1 POP JUMP JUMPDEST PUSH0 PUSH1 0x20 DUP3 DUP5 SUB SLT ISZERO PUSH2 0x1BEC JUMPI PUSH2 0x1BEB PUSH2 0x1A1D JUMP JUMPDEST JUMPDEST PUSH0 DUP3 ADD CALLDATALOAD PUSH8 0xFFFFFFFFFFFFFFFF DUP2 GT ISZERO PUSH2 0x1C09 JUMPI PUSH2 0x1C08 PUSH2 0x1A21 JUMP JUMPDEST JUMPDEST PUSH2 0x1C15 DUP5 DUP3 DUP6 ADD PUSH2 0x1B34 JUMP JUMPDEST SWAP2 POP POP SWAP3 SWAP2 POP POP JUMP JUMPDEST PUSH0 DUP2 SWAP1 POP SWAP2 SWAP1 POP JUMP JUMPDEST PUSH2 0x1C30 DUP2 PUSH2 0x1C1E JUMP JUMPDEST DUP3 MSTORE POP POP JUMP JUMPDEST PUSH2 0x1C3F DUP2 PUSH2 0x1955 JUMP JUMPDEST DUP3 MSTORE POP POP JUMP JUMPDEST PUSH0 DUP2 MLOAD SWAP1 POP SWAP2 SWAP1 POP JUMP JUMPDEST PUSH0 DUP3 DUP3 MSTORE PUSH1 0x20 DUP3 ADD SWAP1 POP SWAP3 SWAP2 POP POP JUMP JUMPDEST DUP3 DUP2 DUP4 MCOPY PUSH0 DUP4 DUP4 ADD MSTORE POP POP POP JUMP JUMPDEST PUSH0 PUSH2 0x1C77 DUP3 PUSH2 0x1C45 JUMP JUMPDEST PUSH2 0x1C81 DUP2 DUP6 PUSH2 0x1C4F JUMP JUMPDEST SWAP4 POP PUSH2 0x1C91 DUP2 DUP6 PUSH1 0x20 DUP7 ADD PUSH2 0x1C5F JUMP JUMPDEST PUSH2 0x1C9A DUP2 PUSH2 0x1A2D JUMP JUMPDEST DUP5 ADD SWAP2 POP POP SWAP3 SWAP2 POP POP JUMP JUMPDEST PUSH0 PUSH1 0xA0 DUP3 ADD SWAP1 POP PUSH2 0x1CB8 PUSH0 DUP4 ADD DUP9 PUSH2 0x1C27 JUMP JUMPDEST PUSH2 0x1CC5 PUSH1 0x20 DUP4 ADD DUP8 PUSH2 0x1C27 JUMP JUMPDEST PUSH2 0x1CD2 PUSH1 0x40 DUP4 ADD DUP7 PUSH2 0x1C36 JUMP JUMPDEST PUSH2 0x1CDF PUSH1 0x60 DUP4 ADD DUP6 PUSH2 0x1C36 JUMP JUMPDEST DUP2 DUP2 SUB PUSH1 0x80 DUP4 ADD MSTORE PUSH2 0x1CF1 DUP2 DUP5 PUSH2 0x1C6D JUMP JUMPDEST SWAP1 POP SWAP7 SWAP6 POP POP POP POP POP POP JUMP JUMPDEST PUSH0 DUP2 SWAP1 POP SWAP2 SWAP1 POP JUMP JUMPDEST PUSH0 PUSH2 0x1D20 PUSH2 0x1D1B PUSH2 0x1D16 DUP5 PUSH2 0x1936 JUMP JUMPDEST PUSH2 0x1CFD JUMP JUMPDEST PUSH2 0x1936 JUMP JUMPDEST SWAP1 POP SWAP2 SWAP1 POP JUMP JUMPDEST PUSH0 PUSH2 0x1D31 DUP3 PUSH2 0x1D06 JUMP JUMPDEST SWAP1 POP SWAP2 SWAP1 POP JUMP JUMPDEST PUSH0 PUSH2 0x1D42 DUP3 PUSH2 0x1D27 JUMP JUMPDEST SWAP1 POP SWAP2 SWAP1 POP JUMP JUMPDEST PUSH2 0x1D52 DUP2 PUSH2 0x1D38 JUMP JUMPDEST DUP3 MSTORE POP POP JUMP JUMPDEST PUSH0 PUSH1 0x20 DUP3 ADD SWAP1 POP PUSH2 0x1D6B PUSH0 DUP4 ADD DUP5 PUSH2 0x1D49 JUMP JUMPDEST SWAP3 SWAP2 POP POP JUMP JUMPDEST PUSH2 0x1D7A DUP2 PUSH2 0x1C1E JUMP JUMPDEST DUP2 EQ PUSH2 0x1D84 JUMPI PUSH0 DUP1 REVERT JUMPDEST POP JUMP JUMPDEST PUSH0 DUP2 CALLDATALOAD SWAP1 POP PUSH2 0x1D95 DUP2 PUSH2 0x1D71 JUMP JUMPDEST SWAP3 SWAP2 POP POP JUMP JUMPDEST PUSH0 PUSH1 0x20 DUP3 DUP5 SUB SLT ISZERO PUSH2 0x1DB0 JUMPI PUSH2 0x1DAF PUSH2 0x1A1D JUMP JUMPDEST JUMPDEST PUSH0 PUSH2 0x1DBD DUP5 DUP3 DUP6 ADD PUSH2 0x1D87 JUMP JUMPDEST SWAP2 POP POP SWAP3 SWAP2 POP POP JUMP JUMPDEST PUSH0 PUSH2 0xFFFF DUP3 AND SWAP1 POP SWAP2 SWAP1 POP JUMP JUMPDEST PUSH2 0x1DDC DUP2 PUSH2 0x1DC6 JUMP JUMPDEST DUP3 MSTORE POP POP JUMP JUMPDEST PUSH0 DUP2 ISZERO ISZERO SWAP1 POP SWAP2 SWAP1 POP JUMP JUMPDEST PUSH2 0x1DF6 DUP2 PUSH2 0x1DE2 JUMP JUMPDEST DUP3 MSTORE POP POP JUMP JUMPDEST PUSH0 DUP2 SWAP1 POP SWAP2 SWAP1 POP JUMP JUMPDEST PUSH2 0x1E0E DUP2 PUSH2 0x1DFC JUMP JUMPDEST DUP3 MSTORE POP POP JUMP JUMPDEST PUSH0 PUSH2 0x140 DUP3 ADD SWAP1 POP PUSH2 0x1E28 PUSH0 DUP4 ADD DUP14 PUSH2 0x1C27 JUMP JUMPDEST PUSH2 0x1E35 PUSH1 0x20 DUP4 ADD DUP13 PUSH2 0x1DD3 JUMP JUMPDEST PUSH2 0x1E42 PUSH1 0x40 DUP4 ADD DUP12 PUSH2 0x1DD3 JUMP JUMPDEST PUSH2 0x1E4F PUSH1 0x60 DUP4 ADD DUP11 PUSH2 0x1C27 JUMP JUMPDEST PUSH2 0x1E5C PUSH1 0x80 DUP4 ADD DUP10 PUSH2 0x1C27 JUMP JUMPDEST PUSH2 0x1E69 PUSH1 0xA0 DUP4 ADD DUP9 PUSH2 0x1C36 JUMP JUMPDEST PUSH2 0x1E76 PUSH1 0xC0 DUP4 ADD DUP8 PUSH2 0x1C36 JUMP JUMPDEST PUSH2 0x1E83 PUSH1 0xE0 DUP4 ADD DUP7 PUSH2 0x1DED JUMP JUMPDEST PUSH2 0x1E91 PUSH2 0x100 DUP4 ADD DUP6 PUSH2 0x1E05 JUMP JUMPDEST PUSH2 0x1E9F PUSH2 0x120 DUP4 ADD DUP5 PUSH2 0x1C27 JUMP JUMPDEST SWAP12 SWAP11 POP POP POP POP POP POP POP POP POP POP POP JUMP JUMPDEST PUSH0 PUSH4 0xFFFFFFFF DUP3 AND SWAP1 POP SWAP2 SWAP1 POP JUMP JUMPDEST PUSH2 0x1EC6 DUP2 PUSH2 0x1EAE JUMP JUMPDEST DUP3 MSTORE POP POP JUMP JUMPDEST PUSH0 PUSH1 0x20 DUP3 ADD SWAP1 POP PUSH2 0x1EDF PUSH0 DUP4 ADD DUP5 PUSH2 0x1EBD JUMP JUMPDEST SWAP3 SWAP2 POP POP JUMP JUMPDEST PUSH2 0x1EEE DUP2 PUSH2 0x1EAE JUMP JUMPDEST DUP2 EQ PUSH2 0x1EF8 JUMPI PUSH0 DUP1 REVERT JUMPDEST POP JUMP JUMPDEST PUSH0 DUP2 CALLDATALOAD SWAP1 POP PUSH2 0x1F09 DUP2 PUSH2 0x1EE5 JUMP JUMPDEST SWAP3 SWAP2 POP POP JUMP JUMPDEST PUSH0 PUSH1 0x20 DUP3 DUP5 SUB SLT ISZERO PUSH2 0x1F24 JUMPI PUSH2 0x1F23 PUSH2 0x1A1D JUMP JUMPDEST JUMPDEST PUSH0 PUSH2 0x1F31 DUP5 DUP3 DUP6 ADD PUSH2 0x1EFB JUMP JUMPDEST SWAP2 POP POP SWAP3 SWAP2 POP POP JUMP JUMPDEST PUSH0 PUSH1 0x40 DUP3 ADD SWAP1 POP PUSH2 0x1F4D PUSH0 DUP4 ADD DUP6 PUSH2 0x1EBD JUMP JUMPDEST PUSH2 0x1F5A PUSH1 0x20 DUP4 ADD DUP5 PUSH2 0x1DED JUMP JUMPDEST SWAP4 SWAP3 POP POP POP JUMP JUMPDEST PUSH0 PUSH1 0x20 DUP3 ADD SWAP1 POP PUSH2 0x1F74 PUSH0 DUP4 ADD DUP5 PUSH2 0x1DED JUMP JUMPDEST SWAP3 SWAP2 POP POP JUMP JUMPDEST PUSH0 PUSH1 0xFF DUP3 AND SWAP1 POP SWAP2 SWAP1 POP JUMP JUMPDEST PUSH2 0x1F8F DUP2 PUSH2 0x1F7A JUMP JUMPDEST DUP3 MSTORE POP POP JUMP JUMPDEST PUSH0 PUSH1 0x20 DUP3 ADD SWAP1 POP PUSH2 0x1FA8 PUSH0 DUP4 ADD DUP5 PUSH2 0x1F86 JUMP JUMPDEST SWAP3 SWAP2 POP POP JUMP JUMPDEST PUSH0 PUSH8 0xFFFFFFFFFFFFFFFF DUP3 GT ISZERO PUSH2 0x1FC8 JUMPI PUSH2 0x1FC7 PUSH2 0x1A3D JUMP JUMPDEST JUMPDEST PUSH1 0x20 DUP3 MUL SWAP1 POP PUSH1 0x20 DUP2 ADD SWAP1 POP SWAP2 SWAP1 POP JUMP JUMPDEST PUSH0 DUP1 REVERT JUMPDEST PUSH2 0x1FE6 DUP2 PUSH2 0x1955 JUMP JUMPDEST DUP2 EQ PUSH2 0x1FF0 JUMPI PUSH0 DUP1 REVERT JUMPDEST POP JUMP JUMPDEST PUSH0 DUP2 CALLDATALOAD SWAP1 POP PUSH2 0x2001 DUP2 PUSH2 0x1FDD JUMP JUMPDEST SWAP3 SWAP2 POP POP JUMP JUMPDEST PUSH0 PUSH2 0x2019 PUSH2 0x2014 DUP5 PUSH2 0x1FAE JUMP JUMPDEST PUSH2 0x1A9B JUMP JUMPDEST SWAP1 POP DUP1 DUP4 DUP3 MSTORE PUSH1 0x20 DUP3 ADD SWAP1 POP PUSH1 0x20 DUP5 MUL DUP4 ADD DUP6 DUP2 GT ISZERO PUSH2 0x203C JUMPI PUSH2 0x203B PUSH2 0x1FD9 JUMP JUMPDEST JUMPDEST DUP4 JUMPDEST DUP2 DUP2 LT ISZERO PUSH2 0x2065 JUMPI DUP1 PUSH2 0x2051 DUP9 DUP3 PUSH2 0x1FF3 JUMP JUMPDEST DUP5 MSTORE PUSH1 0x20 DUP5 ADD SWAP4 POP POP PUSH1 0x20 DUP2 ADD SWAP1 POP PUSH2 0x203E JUMP JUMPDEST POP POP POP SWAP4 SWAP3 POP POP POP JUMP JUMPDEST PUSH0 DUP3 PUSH1 0x1F DUP4 ADD SLT PUSH2 0x2083 JUMPI PUSH2 0x2082 PUSH2 0x1A25 JUMP JUMPDEST JUMPDEST DUP2 CALLDATALOAD PUSH2 0x2093 DUP5 DUP3 PUSH1 0x20 DUP7 ADD PUSH2 0x2007 JUMP JUMPDEST SWAP2 POP POP SWAP3 SWAP2 POP POP JUMP JUMPDEST PUSH0 PUSH1 0x20 DUP3 DUP5 SUB SLT ISZERO PUSH2 0x20B1 JUMPI PUSH2 0x20B0 PUSH2 0x1A1D JUMP JUMPDEST JUMPDEST PUSH0 DUP3 ADD CALLDATALOAD PUSH8 0xFFFFFFFFFFFFFFFF DUP2 GT ISZERO PUSH2 0x20CE JUMPI PUSH2 0x20CD PUSH2 0x1A21 JUMP JUMPDEST JUMPDEST PUSH2 0x20DA DUP5 DUP3 DUP6 ADD PUSH2 0x206F JUMP JUMPDEST SWAP2 POP POP SWAP3 SWAP2 POP POP JUMP JUMPDEST PUSH0 PUSH1 0x20 DUP3 ADD SWAP1 POP PUSH2 0x20F6 PUSH0 DUP4 ADD DUP5 PUSH2 0x1E05 JUMP JUMPDEST SWAP3 SWAP2 POP POP JUMP JUMPDEST PUSH0 PUSH2 0x2106 DUP3 PUSH2 0x1D27 JUMP JUMPDEST SWAP1 POP SWAP2 SWAP1 POP JUMP JUMPDEST PUSH2 0x2116 DUP2 PUSH2 0x20FC JUMP JUMPDEST DUP3 MSTORE POP POP JUMP JUMPDEST PUSH0 PUSH1 0x20 DUP3 ADD SWAP1 POP PUSH2 0x212F PUSH0 DUP4 ADD DUP5 PUSH2 0x210D JUMP JUMPDEST SWAP3 SWAP2 POP POP JUMP JUMPDEST PUSH0 PUSH1 0x20 DUP3 ADD SWAP1 POP PUSH2 0x2148 PUSH0 DUP4 ADD DUP5 PUSH2 0x1C36 JUMP JUMPDEST SWAP3 SWAP2 POP POP JUMP JUMPDEST PUSH0 PUSH1 0x20 DUP3 ADD SWAP1 POP PUSH2 0x2161 PUSH0 DUP4 ADD DUP5 PUSH2 0x1DD3 JUMP JUMPDEST SWAP3 SWAP2 POP POP JUMP JUMPDEST PUSH0 PUSH8 0xFFFFFFFFFFFFFFFF DUP3 GT ISZERO PUSH2 0x2181 JUMPI PUSH2 0x2180 PUSH2 0x1A3D JUMP JUMPDEST JUMPDEST PUSH1 0x20 DUP3 MUL SWAP1 POP SWAP2 SWAP1 POP JUMP JUMPDEST PUSH2 0x2195 DUP2 PUSH2 0x1DFC JUMP JUMPDEST DUP2 EQ PUSH2 0x219F JUMPI PUSH0 DUP1 REVERT JUMPDEST POP JUMP JUMPDEST PUSH0 DUP2 CALLDATALOAD SWAP1 POP PUSH2 0x21B0 DUP2 PUSH2 0x218C JUMP JUMPDEST SWAP3 SWAP2 POP POP JUMP JUMPDEST PUSH0 PUSH2 0x21C8 PUSH2 0x21C3 DUP5 PUSH2 0x2167 JUMP JUMPDEST PUSH2 0x1A9B JUMP JUMPDEST SWAP1 POP DUP1 PUSH1 0x20 DUP5 MUL DUP4 ADD DUP6 DUP2 GT ISZERO PUSH2 0x21E2 JUMPI PUSH2 0x21E1 PUSH2 0x1FD9 JUMP JUMPDEST JUMPDEST DUP4 JUMPDEST DUP2 DUP2 LT ISZERO PUSH2 0x220B JUMPI DUP1 PUSH2 0x21F7 DUP9 DUP3 PUSH2 0x21A2 JUMP JUMPDEST DUP5 MSTORE PUSH1 0x20 DUP5 ADD SWAP4 POP POP PUSH1 0x20 DUP2 ADD SWAP1 POP PUSH2 0x21E4 JUMP JUMPDEST POP POP POP SWAP4 SWAP3 POP POP POP JUMP JUMPDEST PUSH0 DUP3 PUSH1 0x1F DUP4 ADD SLT PUSH2 0x2229 JUMPI PUSH2 0x2228 PUSH2 0x1A25 JUMP JUMPDEST JUMPDEST PUSH1 0x2 PUSH2 0x2236 DUP5 DUP3 DUP6 PUSH2 0x21B6 JUMP JUMPDEST SWAP2 POP POP SWAP3 SWAP2 POP POP JUMP JUMPDEST PUSH0 PUSH8 0xFFFFFFFFFFFFFFFF DUP3 GT ISZERO PUSH2 0x2259 JUMPI PUSH2 0x2258 PUSH2 0x1A3D JUMP JUMPDEST JUMPDEST PUSH1 0x20 DUP3 MUL SWAP1 POP SWAP2 SWAP1 POP JUMP JUMPDEST PUSH0 PUSH2 0x2276 PUSH2 0x2271 DUP5 PUSH2 0x223F JUMP JUMPDEST PUSH2 0x1A9B JUMP JUMPDEST SWAP1 POP DUP1 PUSH1 0x40 DUP5 MUL DUP4 ADD DUP6 DUP2 GT ISZERO PUSH2 0x2290 JUMPI PUSH2 0x228F PUSH2 0x1FD9 JUMP JUMPDEST JUMPDEST DUP4 JUMPDEST DUP2 DUP2 LT ISZERO PUSH2 0x22B9 JUMPI DUP1 PUSH2 0x22A5 DUP9 DUP3 PUSH2 0x2215 JUMP JUMPDEST DUP5 MSTORE PUSH1 0x20 DUP5 ADD SWAP4 POP POP PUSH1 0x40 DUP2 ADD SWAP1 POP PUSH2 0x2292 JUMP JUMPDEST POP POP POP SWAP4 SWAP3 POP POP POP JUMP JUMPDEST PUSH0 DUP3 PUSH1 0x1F DUP4 ADD SLT PUSH2 0x22D7 JUMPI PUSH2 0x22D6 PUSH2 0x1A25 JUMP JUMPDEST JUMPDEST PUSH1 0x2 PUSH2 0x22E4 DUP5 DUP3 DUP6 PUSH2 0x2264 JUMP JUMPDEST SWAP2 POP POP SWAP3 SWAP2 POP POP JUMP JUMPDEST PUSH0 PUSH8 0xFFFFFFFFFFFFFFFF DUP3 GT ISZERO PUSH2 0x2307 JUMPI PUSH2 0x2306 PUSH2 0x1A3D JUMP JUMPDEST JUMPDEST PUSH1 0x20 DUP3 MUL SWAP1 POP PUSH1 0x20 DUP2 ADD SWAP1 POP SWAP2 SWAP1 POP JUMP JUMPDEST PUSH0 PUSH2 0x232A PUSH2 0x2325 DUP5 PUSH2 0x22ED JUMP JUMPDEST PUSH2 0x1A9B JUMP JUMPDEST SWAP1 POP DUP1 DUP4 DUP3 MSTORE PUSH1 0x20 DUP3 ADD SWAP1 POP PUSH1 0x40 DUP5 MUL DUP4 ADD DUP6 DUP2 GT ISZERO PUSH2 0x234D JUMPI PUSH2 0x234C PUSH2 0x1FD9 JUMP JUMPDEST JUMPDEST DUP4 JUMPDEST DUP2 DUP2 LT ISZERO PUSH2 0x2376 JUMPI DUP1 PUSH2 0x2362 DUP9 DUP3 PUSH2 0x2215 JUMP JUMPDEST DUP5 MSTORE PUSH1 0x20 DUP5 ADD SWAP4 POP POP PUSH1 0x40 DUP2 ADD SWAP1 POP PUSH2 0x234F JUMP JUMPDEST POP POP POP SWAP4 SWAP3 POP POP POP JUMP JUMPDEST PUSH0 DUP3 PUSH1 0x1F DUP4 ADD SLT PUSH2 0x2394 JUMPI PUSH2 0x2393 PUSH2 0x1A25 JUMP JUMPDEST JUMPDEST DUP2 CALLDATALOAD PUSH2 0x23A4 DUP5 DUP3 PUSH1 0x20 DUP7 ADD PUSH2 0x2318 JUMP JUMPDEST SWAP2 POP POP SWAP3 SWAP2 POP POP JUMP JUMPDEST PUSH0 DUP1 PUSH0 DUP1 PUSH0 PUSH2 0x160 DUP7 DUP9 SUB SLT ISZERO PUSH2 0x23C7 JUMPI PUSH2 0x23C6 PUSH2 0x1A1D JUMP JUMPDEST JUMPDEST PUSH0 PUSH2 0x23D4 DUP9 DUP3 DUP10 ADD PUSH2 0x2215 JUMP JUMPDEST SWAP6 POP POP PUSH1 0x40 PUSH2 0x23E5 DUP9 DUP3 DUP10 ADD PUSH2 0x22C3 JUMP JUMPDEST SWAP5 POP POP PUSH1 0xC0 PUSH2 0x23F6 DUP9 DUP3 DUP10 ADD PUSH2 0x2215 JUMP JUMPDEST SWAP4 POP POP PUSH2 0x100 PUSH2 0x2408 DUP9 DUP3 DUP10 ADD PUSH2 0x2215 JUMP JUMPDEST SWAP3 POP POP PUSH2 0x140 DUP7 ADD CALLDATALOAD PUSH8 0xFFFFFFFFFFFFFFFF DUP2 GT ISZERO PUSH2 0x242A JUMPI PUSH2 0x2429 PUSH2 0x1A21 JUMP JUMPDEST JUMPDEST PUSH2 0x2436 DUP9 DUP3 DUP10 ADD PUSH2 0x2380 JUMP JUMPDEST SWAP2 POP POP SWAP3 SWAP6 POP SWAP3 SWAP6 SWAP1 SWAP4 POP JUMP JUMPDEST PUSH0 PUSH1 0x2 SWAP1 POP SWAP2 SWAP1 POP JUMP JUMPDEST PUSH0 DUP2 SWAP1 POP SWAP3 SWAP2 POP POP JUMP JUMPDEST PUSH0 DUP2 SWAP1 POP SWAP2 SWAP1 POP JUMP JUMPDEST PUSH2 0x2469 DUP2 PUSH2 0x1DFC JUMP JUMPDEST DUP3 MSTORE POP POP JUMP JUMPDEST PUSH0 PUSH2 0x247A DUP4 DUP4 PUSH2 0x2460 JUMP JUMPDEST PUSH1 0x20 DUP4 ADD SWAP1 POP SWAP3 SWAP2 POP POP JUMP JUMPDEST PUSH0 PUSH1 0x20 DUP3 ADD SWAP1 POP SWAP2 SWAP1 POP JUMP JUMPDEST PUSH2 0x249B DUP2 PUSH2 0x2443 JUMP JUMPDEST PUSH2 0x24A5 DUP2 DUP5 PUSH2 0x244D JUMP JUMPDEST SWAP3 POP PUSH2 0x24B0 DUP3 PUSH2 0x2457 JUMP JUMPDEST DUP1 PUSH0 JUMPDEST DUP4 DUP2 LT ISZERO PUSH2 0x24E0 JUMPI DUP2 MLOAD PUSH2 0x24C7 DUP8 DUP3 PUSH2 0x246F JUMP JUMPDEST SWAP7 POP PUSH2 0x24D2 DUP4 PUSH2 0x2486 JUMP JUMPDEST SWAP3 POP POP PUSH1 0x1 DUP2 ADD SWAP1 POP PUSH2 0x24B3 JUMP JUMPDEST POP POP POP POP POP POP JUMP JUMPDEST PUSH0 PUSH1 0x2 SWAP1 POP SWAP2 SWAP1 POP JUMP JUMPDEST PUSH0 DUP2 SWAP1 POP SWAP3 SWAP2 POP POP JUMP JUMPDEST PUSH0 DUP2 SWAP1 POP SWAP2 SWAP1 POP JUMP JUMPDEST PUSH0 PUSH2 0x2510 DUP4 DUP4 PUSH2 0x2492 JUMP JUMPDEST PUSH1 0x40 DUP4 ADD SWAP1 POP SWAP3 SWAP2 POP POP JUMP JUMPDEST PUSH0 PUSH1 0x20 DUP3 ADD SWAP1 POP SWAP2 SWAP1 POP JUMP JUMPDEST PUSH2 0x2531 DUP2 PUSH2 0x24E8 JUMP JUMPDEST PUSH2 0x253B DUP2 DUP5 PUSH2 0x24F2 JUMP JUMPDEST SWAP3 POP PUSH2 0x2546 DUP3 PUSH2 0x24FC JUMP JUMPDEST DUP1 PUSH0 JUMPDEST DUP4 DUP2 LT ISZERO PUSH2 0x2576 JUMPI DUP2 MLOAD PUSH2 0x255D DUP8 DUP3 PUSH2 0x2505 JUMP JUMPDEST SWAP7 POP PUSH2 0x2568 DUP4 PUSH2 0x251C JUMP JUMPDEST SWAP3 POP POP PUSH1 0x1 DUP2 ADD SWAP1 POP PUSH2 0x2549 JUMP JUMPDEST POP POP POP POP POP POP JUMP JUMPDEST PUSH0 DUP2 MLOAD SWAP1 POP SWAP2 SWAP1 POP JUMP JUMPDEST PUSH0 DUP3 DUP3 MSTORE PUSH1 0x20 DUP3 ADD SWAP1 POP SWAP3 SWAP2 POP POP JUMP JUMPDEST PUSH0 DUP2 SWAP1 POP PUSH1 0x20 DUP3 ADD SWAP1 POP SWAP2 SWAP1 POP JUMP JUMPDEST PUSH0 PUSH1 0x20 DUP3 ADD SWAP1 POP SWAP2 SWAP1 POP JUMP JUMPDEST PUSH0 PUSH2 0x25BD DUP3 PUSH2 0x257E JUMP JUMPDEST PUSH2 0x25C7 DUP2 DUP6 PUSH2 0x2588 JUMP JUMPDEST SWAP4 POP PUSH2 0x25D2 DUP4 PUSH2 0x2598 JUMP JUMPDEST DUP1 PUSH0 JUMPDEST DUP4 DUP2 LT ISZERO PUSH2 0x2602 JUMPI DUP2 MLOAD PUSH2 0x25E9 DUP9 DUP3 PUSH2 0x2505 JUMP JUMPDEST SWAP8 POP PUSH2 0x25F4 DUP4 PUSH2 0x25A7 JUMP JUMPDEST SWAP3 POP POP PUSH1 0x1 DUP2 ADD SWAP1 POP PUSH2 0x25D5 JUMP JUMPDEST POP DUP6 SWAP4 POP POP POP POP SWAP3 SWAP2 POP POP JUMP JUMPDEST PUSH0 PUSH2 0x160 DUP4 ADD PUSH0 DUP4 ADD MLOAD PUSH2 0x2625 PUSH0 DUP7 ADD DUP3 PUSH2 0x2492 JUMP JUMPDEST POP PUSH1 0x20 DUP4 ADD MLOAD PUSH2 0x2638 PUSH1 0x40 DUP7 ADD DUP3 PUSH2 0x2528 JUMP JUMPDEST POP PUSH1 0x40 DUP4 ADD MLOAD PUSH2 0x264B PUSH1 0xC0 DUP7 ADD DUP3 PUSH2 0x2492 JUMP JUMPDEST POP PUSH1 0x60 DUP4 ADD MLOAD PUSH2 0x265F PUSH2 0x100 DUP7 ADD DUP3 PUSH2 0x2492 JUMP JUMPDEST POP PUSH1 0x80 DUP4 ADD MLOAD DUP5 DUP3 SUB PUSH2 0x140 DUP7 ADD MSTORE PUSH2 0x2678 DUP3 DUP3 PUSH2 0x25B3 JUMP JUMPDEST SWAP2 POP POP DUP1 SWAP2 POP POP SWAP3 SWAP2 POP POP JUMP JUMPDEST PUSH0 PUSH1 0x20 DUP3 ADD SWAP1 POP DUP2 DUP2 SUB PUSH0 DUP4 ADD MSTORE PUSH2 0x269D DUP2 DUP5 PUSH2 0x260F JUMP JUMPDEST SWAP1 POP SWAP3 SWAP2 POP POP JUMP JUMPDEST PUSH0 PUSH1 0x20 DUP3 DUP5 SUB SLT ISZERO PUSH2 0x26BA JUMPI PUSH2 0x26B9 PUSH2 0x1A1D JUMP JUMPDEST JUMPDEST PUSH0 PUSH2 0x26C7 DUP5 DUP3 DUP6 ADD PUSH2 0x1FF3 JUMP JUMPDEST SWAP2 POP POP SWAP3 SWAP2 POP POP JUMP JUMPDEST PUSH0 DUP3 DUP3 MSTORE PUSH1 0x20 DUP3 ADD SWAP1 POP SWAP3 SWAP2 POP POP JUMP JUMPDEST PUSH32 0x456D70747920564D000000000000000000000000000000000000000000000000 PUSH0 DUP3 ADD MSTORE POP JUMP JUMPDEST PUSH0 PUSH2 0x2714 PUSH1 0x8 DUP4 PUSH2 0x26D0 JUMP JUMPDEST SWAP2 POP PUSH2 0x271F DUP3 PUSH2 0x26E0 JUMP JUMPDEST PUSH1 0x20 DUP3 ADD SWAP1 POP SWAP2 SWAP1 POP JUMP JUMPDEST PUSH0 PUSH1 0x20 DUP3 ADD SWAP1 POP DUP2 DUP2 SUB PUSH0 DUP4 ADD MSTORE PUSH2 0x2741 DUP2 PUSH2 0x2708 JUMP JUMPDEST SWAP1 POP SWAP2 SWAP1 POP JUMP JUMPDEST PUSH32 0x456D7074792070726F6F66000000000000000000000000000000000000000000 PUSH0 DUP3 ADD MSTORE POP JUMP JUMPDEST PUSH0 PUSH2 0x277C PUSH1 0xB DUP4 PUSH2 0x26D0 JUMP JUMPDEST SWAP2 POP PUSH2 0x2787 DUP3 PUSH2 0x2748 JUMP JUMPDEST PUSH1 0x20 DUP3 ADD SWAP1 POP SWAP2 SWAP1 POP JUMP JUMPDEST PUSH0 PUSH1 0x20 DUP3 ADD SWAP1 POP DUP2 DUP2 SUB PUSH0 DUP4 ADD MSTORE PUSH2 0x27A9 DUP2 PUSH2 0x2770 JUMP JUMPDEST SWAP1 POP SWAP2 SWAP1 POP JUMP JUMPDEST PUSH0 PUSH1 0x20 DUP3 ADD SWAP1 POP DUP2 DUP2 SUB PUSH0 DUP4 ADD MSTORE PUSH2 0x27C8 DUP2 DUP5 PUSH2 0x1C6D JUMP JUMPDEST SWAP1 POP SWAP3 SWAP2 POP POP JUMP JUMPDEST PUSH0 DUP1 REVERT JUMPDEST PUSH0 DUP1 REVERT JUMPDEST PUSH2 0x27E1 DUP2 PUSH2 0x1F7A JUMP JUMPDEST DUP2 EQ PUSH2 0x27EB JUMPI PUSH0 DUP1 REVERT JUMPDEST POP JUMP JUMPDEST PUSH0 DUP2 MLOAD SWAP1 POP PUSH2 0x27FC DUP2 PUSH2 0x27D8 JUMP JUMPDEST SWAP3 SWAP2 POP POP JUMP JUMPDEST PUSH0 DUP2 MLOAD SWAP1 POP PUSH2 0x2810 DUP2 PUSH2 0x1EE5 JUMP JUMPDEST SWAP3 SWAP2 POP POP JUMP JUMPDEST PUSH2 0x281F DUP2 PUSH2 0x1DC6 JUMP JUMPDEST DUP2 EQ PUSH2 0x2829 JUMPI PUSH0 DUP1 REVERT JUMPDEST POP JUMP JUMPDEST PUSH0 DUP2 MLOAD SWAP1 POP PUSH2 0x283A DUP2 PUSH2 0x2816 JUMP JUMPDEST SWAP3 SWAP2 POP POP JUMP JUMPDEST PUSH0 DUP2 MLOAD SWAP1 POP PUSH2 0x284E DUP2 PUSH2 0x1D71 JUMP JUMPDEST SWAP3 SWAP2 POP POP JUMP JUMPDEST PUSH0 PUSH8 0xFFFFFFFFFFFFFFFF DUP3 AND SWAP1 POP SWAP2 SWAP1 POP JUMP JUMPDEST PUSH2 0x2870 DUP2 PUSH2 0x2854 JUMP JUMPDEST DUP2 EQ PUSH2 0x287A JUMPI PUSH0 DUP1 REVERT JUMPDEST POP JUMP JUMPDEST PUSH0 DUP2 MLOAD SWAP1 POP PUSH2 0x288B DUP2 PUSH2 0x2867 JUMP JUMPDEST SWAP3 SWAP2 POP POP JUMP JUMPDEST PUSH0 PUSH2 0x28A3 PUSH2 0x289E DUP5 PUSH2 0x1AB5 JUMP JUMPDEST PUSH2 0x1A9B JUMP JUMPDEST SWAP1 POP DUP3 DUP2 MSTORE PUSH1 0x20 DUP2 ADD DUP5 DUP5 DUP5 ADD GT ISZERO PUSH2 0x28BF JUMPI PUSH2 0x28BE PUSH2 0x1A29 JUMP JUMPDEST JUMPDEST PUSH2 0x28CA DUP5 DUP3 DUP6 PUSH2 0x1C5F JUMP JUMPDEST POP SWAP4 SWAP3 POP POP POP JUMP JUMPDEST PUSH0 DUP3 PUSH1 0x1F DUP4 ADD SLT PUSH2 0x28E6 JUMPI PUSH2 0x28E5 PUSH2 0x1A25 JUMP JUMPDEST JUMPDEST DUP2 MLOAD PUSH2 0x28F6 DUP5 DUP3 PUSH1 0x20 DUP7 ADD PUSH2 0x2891 JUMP JUMPDEST SWAP2 POP POP SWAP3 SWAP2 POP POP JUMP JUMPDEST PUSH0 PUSH2 0x160 DUP3 DUP5 SUB SLT ISZERO PUSH2 0x2915 JUMPI PUSH2 0x2914 PUSH2 0x27D0 JUMP JUMPDEST JUMPDEST PUSH2 0x2920 PUSH2 0x160 PUSH2 0x1A9B JUMP JUMPDEST SWAP1 POP PUSH0 PUSH2 0x292F DUP5 DUP3 DUP6 ADD PUSH2 0x27EE JUMP JUMPDEST PUSH0 DUP4 ADD MSTORE POP PUSH1 0x20 PUSH2 0x2942 DUP5 DUP3 DUP6 ADD PUSH2 0x2802 JUMP JUMPDEST PUSH1 0x20 DUP4 ADD MSTORE POP PUSH1 0x40 PUSH2 0x2956 DUP5 DUP3 DUP6 ADD PUSH2 0x2802 JUMP JUMPDEST PUSH1 0x40 DUP4 ADD MSTORE POP PUSH1 0x60 PUSH2 0x296A DUP5 DUP3 DUP6 ADD PUSH2 0x282C JUMP JUMPDEST PUSH1 0x60 DUP4 ADD MSTORE POP PUSH1 0x80 PUSH2 0x297E DUP5 DUP3 DUP6 ADD PUSH2 0x2840 JUMP JUMPDEST PUSH1 0x80 DUP4 ADD MSTORE POP PUSH1 0xA0 PUSH2 0x2992 DUP5 DUP3 DUP6 ADD PUSH2 0x287D JUMP JUMPDEST PUSH1 0xA0 DUP4 ADD MSTORE POP PUSH1 0xC0 PUSH2 0x29A6 DUP5 DUP3 DUP6 ADD PUSH2 0x27EE JUMP JUMPDEST PUSH1 0xC0 DUP4 ADD MSTORE POP PUSH1 0xE0 DUP3 ADD MLOAD PUSH8 0xFFFFFFFFFFFFFFFF DUP2 GT ISZERO PUSH2 0x29CA JUMPI PUSH2 0x29C9 PUSH2 0x27D4 JUMP JUMPDEST JUMPDEST PUSH2 0x29D6 DUP5 DUP3 DUP6 ADD PUSH2 0x28D2 JUMP JUMPDEST PUSH1 0xE0 DUP4 ADD MSTORE POP PUSH2 0x100 PUSH2 0x29EB DUP5 DUP3 DUP6 ADD PUSH2 0x2802 JUMP JUMPDEST PUSH2 0x100 DUP4 ADD MSTORE POP PUSH2 0x120 DUP3 ADD MLOAD PUSH8 0xFFFFFFFFFFFFFFFF DUP2 GT ISZERO PUSH2 0x2A11 JUMPI PUSH2 0x2A10 PUSH2 0x27D4 JUMP JUMPDEST JUMPDEST PUSH2 0x2A1D DUP5 DUP3 DUP6 ADD PUSH2 0x28D2 JUMP JUMPDEST PUSH2 0x120 DUP4 ADD MSTORE POP PUSH2 0x140 PUSH2 0x2A33 DUP5 DUP3 DUP6 ADD PUSH2 0x2840 JUMP JUMPDEST PUSH2 0x140 DUP4 ADD MSTORE POP SWAP3 SWAP2 POP POP JUMP JUMPDEST PUSH2 0x2A49 DUP2 PUSH2 0x1DE2 JUMP JUMPDEST DUP2 EQ PUSH2 0x2A53 JUMPI PUSH0 DUP1 REVERT JUMPDEST POP JUMP JUMPDEST PUSH0 DUP2 MLOAD SWAP1 POP PUSH2 0x2A64 DUP2 PUSH2 0x2A40 JUMP JUMPDEST SWAP3 SWAP2 POP POP JUMP JUMPDEST PUSH0 PUSH8 0xFFFFFFFFFFFFFFFF DUP3 GT ISZERO PUSH2 0x2A84 JUMPI PUSH2 0x2A83 PUSH2 0x1A3D JUMP JUMPDEST JUMPDEST PUSH2 0x2A8D DUP3 PUSH2 0x1A2D JUMP JUMPDEST SWAP1 POP PUSH1 0x20 DUP2 ADD SWAP1 POP SWAP2 SWAP1 POP JUMP JUMPDEST PUSH0 PUSH2 0x2AAC PUSH2 0x2AA7 DUP5 PUSH2 0x2A6A JUMP JUMPDEST PUSH2 0x1A9B JUMP JUMPDEST SWAP1 POP DUP3 DUP2 MSTORE PUSH1 0x20 DUP2 ADD DUP5 DUP5 DUP5 ADD GT ISZERO PUSH2 0x2AC8 JUMPI PUSH2 0x2AC7 PUSH2 0x1A29 JUMP JUMPDEST JUMPDEST PUSH2 0x2AD3 DUP5 DUP3 DUP6 PUSH2 0x1C5F JUMP JUMPDEST POP SWAP4 SWAP3 POP POP POP JUMP JUMPDEST PUSH0 DUP3 PUSH1 0x1F DUP4 ADD SLT PUSH2 0x2AEF JUMPI PUSH2 0x2AEE PUSH2 0x1A25 JUMP JUMPDEST JUMPDEST DUP2 MLOAD PUSH2 0x2AFF DUP5 DUP3 PUSH1 0x20 DUP7 ADD PUSH2 0x2A9A JUMP JUMPDEST SWAP2 POP POP SWAP3 SWAP2 POP POP JUMP JUMPDEST PUSH0 DUP1 PUSH0 PUSH1 0x60 DUP5 DUP7 SUB SLT ISZERO PUSH2 0x2B1F JUMPI PUSH2 0x2B1E PUSH2 0x1A1D JUMP JUMPDEST JUMPDEST PUSH0 DUP5 ADD MLOAD PUSH8 0xFFFFFFFFFFFFFFFF DUP2 GT ISZERO PUSH2 0x2B3C JUMPI PUSH2 0x2B3B PUSH2 0x1A21 JUMP JUMPDEST JUMPDEST PUSH2 0x2B48 DUP7 DUP3 DUP8 ADD PUSH2 0x28FF JUMP JUMPDEST SWAP4 POP POP PUSH1 0x20 PUSH2 0x2B59 DUP7 DUP3 DUP8 ADD PUSH2 0x2A56 JUMP JUMPDEST SWAP3 POP POP PUSH1 0x40 DUP5 ADD MLOAD PUSH8 0xFFFFFFFFFFFFFFFF DUP2 GT ISZERO PUSH2 0x2B7A JUMPI PUSH2 0x2B79 PUSH2 0x1A21 JUMP JUMPDEST JUMPDEST PUSH2 0x2B86 DUP7 DUP3 DUP8 ADD PUSH2 0x2ADB JUMP JUMPDEST SWAP2 POP POP SWAP3 POP SWAP3 POP SWAP3 JUMP JUMPDEST PUSH0 DUP2 MLOAD SWAP1 POP SWAP2 SWAP1 POP JUMP JUMPDEST PUSH0 PUSH2 0x2BA4 DUP3 PUSH2 0x2B90 JUMP JUMPDEST PUSH2 0x2BAE DUP2 DUP6 PUSH2 0x26D0 JUMP JUMPDEST SWAP4 POP PUSH2 0x2BBE DUP2 DUP6 PUSH1 0x20 DUP7 ADD PUSH2 0x1C5F JUMP JUMPDEST PUSH2 0x2BC7 DUP2 PUSH2 0x1A2D JUMP JUMPDEST DUP5 ADD SWAP2 POP POP SWAP3 SWAP2 POP POP JUMP JUMPDEST PUSH0 PUSH1 0x20 DUP3 ADD SWAP1 POP DUP2 DUP2 SUB PUSH0 DUP4 ADD MSTORE PUSH2 0x2BEA DUP2 DUP5 PUSH2 0x2B9A JUMP JUMPDEST SWAP1 POP SWAP3 SWAP2 POP POP JUMP JUMPDEST PUSH32 0x496E76616C696420736F7572636520636861696E000000000000000000000000 PUSH0 DUP3 ADD MSTORE POP JUMP JUMPDEST PUSH0 PUSH2 0x2C26 PUSH1 0x14 DUP4 PUSH2 0x26D0 JUMP JUMPDEST SWAP2 POP PUSH2 0x2C31 DUP3 PUSH2 0x2BF2 JUMP JUMPDEST PUSH1 0x20 DUP3 ADD SWAP1 POP SWAP2 SWAP1 POP JUMP JUMPDEST PUSH0 PUSH1 0x20 DUP3 ADD SWAP1 POP DUP2 DUP2 SUB PUSH0 DUP4 ADD MSTORE PUSH2 0x2C53 DUP2 PUSH2 0x2C1A JUMP JUMPDEST SWAP1 POP SWAP2 SWAP1 POP JUMP JUMPDEST PUSH32 0x4E756C6C69666965722075736564000000000000000000000000000000000000 PUSH0 DUP3 ADD MSTORE POP JUMP JUMPDEST PUSH0 PUSH2 0x2C8E PUSH1 0xE DUP4 PUSH2 0x26D0 JUMP JUMPDEST SWAP2 POP PUSH2 0x2C99 DUP3 PUSH2 0x2C5A JUMP JUMPDEST PUSH1 0x20 DUP3 ADD SWAP1 POP SWAP2 SWAP1 POP JUMP JUMPDEST PUSH0 PUSH1 0x20 DUP3 ADD SWAP1 POP DUP2 DUP2 SUB PUSH0 DUP4 ADD MSTORE PUSH2 0x2CBB DUP2 PUSH2 0x2C82 JUMP JUMPDEST SWAP1 POP SWAP2 SWAP1 POP JUMP JUMPDEST PUSH0 PUSH1 0x20 DUP3 DUP5 SUB SLT ISZERO PUSH2 0x2CD7 JUMPI PUSH2 0x2CD6 PUSH2 0x1A1D JUMP JUMPDEST JUMPDEST PUSH0 PUSH2 0x2CE4 DUP5 DUP3 DUP6 ADD PUSH2 0x2A56 JUMP JUMPDEST SWAP2 POP POP SWAP3 SWAP2 POP POP JUMP JUMPDEST PUSH32 0x496E76616C69642070726F6F6600000000000000000000000000000000000000 PUSH0 DUP3 ADD MSTORE POP JUMP JUMPDEST PUSH0 PUSH2 0x2D21 PUSH1 0xD DUP4 PUSH2 0x26D0 JUMP JUMPDEST SWAP2 POP PUSH2 0x2D2C DUP3 PUSH2 0x2CED JUMP JUMPDEST PUSH1 0x20 DUP3 ADD SWAP1 POP SWAP2 SWAP1 POP JUMP JUMPDEST PUSH0 PUSH1 0x20 DUP3 ADD SWAP1 POP DUP2 DUP2 SUB PUSH0 DUP4 ADD MSTORE PUSH2 0x2D4E DUP2 PUSH2 0x2D15 JUMP JUMPDEST SWAP1 POP SWAP2 SWAP1 POP JUMP JUMPDEST PUSH0 PUSH1 0x60 DUP3 ADD SWAP1 POP PUSH2 0x2D68 PUSH0 DUP4 ADD DUP7 PUSH2 0x1C36 JUMP JUMPDEST PUSH2 0x2D75 PUSH1 0x20 DUP4 ADD DUP6 PUSH2 0x1C36 JUMP JUMPDEST PUSH2 0x2D82 PUSH1 0x40 DUP4 ADD DUP5 PUSH2 0x1E05 JUMP JUMPDEST SWAP5 SWAP4 POP POP POP POP JUMP JUMPDEST PUSH32 0x496E76616C6964207061796C6F6164206C656E67746800000000000000000000 PUSH0 DUP3 ADD MSTORE POP JUMP JUMPDEST PUSH0 PUSH2 0x2DBE PUSH1 0x16 DUP4 PUSH2 0x26D0 JUMP JUMPDEST SWAP2 POP PUSH2 0x2DC9 DUP3 PUSH2 0x2D8A JUMP JUMPDEST PUSH1 0x20 DUP3 ADD SWAP1 POP SWAP2 SWAP1 POP JUMP JUMPDEST PUSH0 PUSH1 0x20 DUP3 ADD SWAP1 POP DUP2 DUP2 SUB PUSH0 DUP4 ADD MSTORE PUSH2 0x2DEB DUP2 PUSH2 0x2DB2 JUMP JUMPDEST SWAP1 POP SWAP2 SWAP1 POP JUMP JUMPDEST PUSH32 0x4E487B7100000000000000000000000000000000000000000000000000000000 PUSH0 MSTORE PUSH1 0x11 PUSH1 0x4 MSTORE PUSH1 0x24 PUSH0 REVERT JUMPDEST PUSH0 PUSH2 0x2E29 DUP3 PUSH2 0x1DFC JUMP JUMPDEST SWAP2 POP PUSH2 0x2E34 DUP4 PUSH2 0x1DFC JUMP JUMPDEST SWAP3 POP DUP3 DUP3 SUB SWAP1 POP DUP2 DUP2 GT ISZERO PUSH2 0x2E4C JUMPI PUSH2 0x2E4B PUSH2 0x2DF2 JUMP JUMPDEST JUMPDEST SWAP3 SWAP2 POP POP JUMP JUMPDEST PUSH0 PUSH2 0x2E5C DUP3 PUSH2 0x1DFC JUMP JUMPDEST SWAP2 POP PUSH2 0x2E67 DUP4 PUSH2 0x1DFC JUMP JUMPDEST SWAP3 POP DUP3 DUP3 ADD SWAP1 POP DUP1 DUP3 GT ISZERO PUSH2 0x2E7F JUMPI PUSH2 0x2E7E PUSH2 0x2DF2 JUMP JUMPDEST JUMPDEST SWAP3 SWAP2 POP POP JUMP JUMPDEST PUSH32 0x456D70747920677561726469616E207365740000000000000000000000000000 PUSH0 DUP3 ADD MSTORE POP JUMP JUMPDEST PUSH0 PUSH2 0x2EB9 PUSH1 0x12 DUP4 PUSH2 0x26D0 JUMP JUMPDEST SWAP2 POP PUSH2 0x2EC4 DUP3 PUSH2 0x2E85 JUMP JUMPDEST PUSH1 0x20 DUP3 ADD SWAP1 POP SWAP2 SWAP1 POP JUMP JUMPDEST PUSH0 PUSH1 0x20 DUP3 ADD SWAP1 POP DUP2 DUP2 SUB PUSH0 DUP4 ADD MSTORE PUSH2 0x2EE6 DUP2 PUSH2 0x2EAD JUMP JUMPDEST SWAP1 POP SWAP2 SWAP1 POP JUMP JUMPDEST PUSH0 PUSH2 0x2EF7 DUP3 PUSH2 0x1EAE JUMP JUMPDEST SWAP2 POP PUSH4 0xFFFFFFFF DUP3 SUB PUSH2 0x2F0D JUMPI PUSH2 0x2F0C PUSH2 0x2DF2 JUMP JUMPDEST JUMPDEST PUSH1 0x1 DUP3 ADD SWAP1 POP SWAP2 SWAP1 POP JUMP JUMPDEST PUSH0 PUSH1 0x40 DUP3 ADD SWAP1 POP DUP2 DUP2 SUB PUSH0 DUP4 ADD MSTORE PUSH2 0x2F30 DUP2 DUP6 PUSH2 0x1998 JUMP JUMPDEST SWAP1 POP PUSH2 0x2F3F PUSH1 0x20 DUP4 ADD DUP5 PUSH2 0x1E05 JUMP JUMPDEST SWAP4 SWAP3 POP POP POP JUMP INVALID LOG2 PUSH5 0x6970667358 0x22 SLT KECCAK256 CODECOPY EXTCODECOPY PUSH15 0xCCA76ACEAEA1DEBEC9FC5844E629DD CALLDATASIZE 0xD SUB 0xD 0xED 0xD6 0xA7 SWAP13 SWAP8 TSTORE SGT SAR TSTORE DUP16 PUSH5 0x736F6C6343 STOP ADDMOD BYTE STOP CALLER "
		},
		"gasEstimates": {
			"creation": {
				"codeDepositCost": "2431200",
				"executionCost": "infinite",
				"totalCost": "infinite"
			},
			"external": {
				"CONSISTENCY_LEVEL()": "420",
				"CURRENT_CHAIN_ID()": "375",
				"GUARDIAN_SET_EXPIRY()": "464",
				"MSG_TIMEOUT()": "435",
				"currentGuardianSetIndex()": "2600",
				"decodePayload(bytes)": "infinite",
				"getGuardians()": "infinite",
				"getVerifyingKey()": "infinite",
				"guardianSets(uint32)": "infinite",
				"isMessageTimedOut(bytes32)": "infinite",
				"messageTimestamps(bytes32)": "2799",
				"messages(bytes32)": "infinite",
				"nullifierUsed(bytes32)": "2852",
				"owner()": "2537",
				"pause()": "infinite",
				"paused()": "2584",
				"renounceOwnership()": "infinite",
				"transferOwnership(address)": "infinite",
				"unpause()": "infinite",
				"updateGuardianSet(address[])": "infinite",
				"updateVerifyingKey(uint256[2],uint256[2][2],uint256[2],uint256[2],uint256[2][])": "infinite",
				"verifier()": "infinite",
				"verifyMessage(bytes,bytes)": "infinite",
				"wormhole()": "infinite"
			},
			"internal": {
				"_updateGuardianSet(address[] memory)": "infinite"
			}
		},
		"methodIdentifiers": {
			"CONSISTENCY_LEVEL()": "4fd686c8",
			"CURRENT_CHAIN_ID()": "8e98e0b9",
			"GUARDIAN_SET_EXPIRY()": "872919af",
			"MSG_TIMEOUT()": "b932bcfe",
			"currentGuardianSetIndex()": "38528f53",
			"decodePayload(bytes)": "197c6e77",
			"getGuardians()": "0665f04b",
			"getVerifyingKey()": "af7f4364",
			"guardianSets(uint32)": "3870cd12",
			"isMessageTimedOut(bytes32)": "38a4be87",
			"messageTimestamps(bytes32)": "7269367b",
			"messages(bytes32)": "2bbd59ca",
			"nullifierUsed(bytes32)": "7ecf686d",
			"owner()": "8da5cb5b",
			"pause()": "8456cb59",
			"paused()": "5c975abb",
			"renounceOwnership()": "715018a6",
			"transferOwnership(address)": "f2fde38b",
			"unpause()": "3f4ba83a",
			"updateGuardianSet(address[])": "66800950",
			"updateVerifyingKey(uint256[2],uint256[2][2],uint256[2],uint256[2],uint256[2][])": "8fc06976",
			"verifier()": "2b7ac3f3",
			"verifyMessage(bytes,bytes)": "08b64d01",
			"wormhole()": "84acd1bb"
		}
	},
	"abi": [
		{
			"inputs": [
				{
					"internalType": "address",
					"name": "initialOwner",
					"type": "address"
				},
				{
					"internalType": "address",
					"name": "_wormhole",
					"type": "address"
				},
				{
					"internalType": "address",
					"name": "_verifier",
					"type": "address"
				},
				{
					"internalType": "address[]",
					"name": "_guardians",
					"type": "address[]"
				},
				{
					"internalType": "uint256[2]",
					"name": "_alpha",
					"type": "uint256[2]"
				},
				{
					"internalType": "uint256[2][2]",
					"name": "_beta",
					"type": "uint256[2][2]"
				},
				{
					"internalType": "uint256[2]",
					"name": "_gamma",
					"type": "uint256[2]"
				},
				{
					"internalType": "uint256[2]",
					"name": "_delta",
					"type": "uint256[2]"
				},
				{
					"internalType": "uint256[2][]",
					"name": "_ic",
					"type": "uint256[2][]"
				}
			],
			"stateMutability": "nonpayable",
			"type": "constructor"
		},
		{
			"inputs": [],
			"name": "EnforcedPause",
			"type": "error"
		},
		{
			"inputs": [],
			"name": "ExpectedPause",
			"type": "error"
		},
		{
			"inputs": [
				{
					"internalType": "address",
					"name": "owner",
					"type": "address"
				}
			],
			"name": "OwnableInvalidOwner",
			"type": "error"
		},
		{
			"inputs": [
				{
					"internalType": "address",
					"name": "account",
					"type": "address"
				}
			],
			"name": "OwnableUnauthorizedAccount",
			"type": "error"
		},
		{
			"inputs": [],
			"name": "ReentrancyGuardReentrantCall",
			"type": "error"
		},
		{
			"anonymous": false,
			"inputs": [
				{
					"indexed": true,
					"internalType": "uint32",
					"name": "index",
					"type": "uint32"
				},
				{
					"indexed": false,
					"internalType": "address[]",
					"name": "guardians",
					"type": "address[]"
				},
				{
					"indexed": false,
					"internalType": "uint256",
					"name": "timestamp",
					"type": "uint256"
				}
			],
			"name": "GuardianSetUpdated",
			"type": "event"
		},
		{
			"anonymous": false,
			"inputs": [
				{
					"indexed": true,
					"internalType": "bytes32",
					"name": "messageHash",
					"type": "bytes32"
				},
				{
					"indexed": true,
					"internalType": "uint16",
					"name": "sourceChain",
					"type": "uint16"
				},
				{
					"indexed": true,
					"internalType": "uint16",
					"name": "targetChain",
					"type": "uint16"
				},
				{
					"indexed": false,
					"internalType": "address",
					"name": "sender",
					"type": "address"
				},
				{
					"indexed": false,
					"internalType": "address",
					"name": "recipient",
					"type": "address"
				},
				{
					"indexed": false,
					"internalType": "uint256",
					"name": "timestamp",
					"type": "uint256"
				}
			],
			"name": "MessageVerified",
			"type": "event"
		},
		{
			"anonymous": false,
			"inputs": [
				{
					"indexed": true,
					"internalType": "address",
					"name": "previousOwner",
					"type": "address"
				},
				{
					"indexed": true,
					"internalType": "address",
					"name": "newOwner",
					"type": "address"
				}
			],
			"name": "OwnershipTransferred",
			"type": "event"
		},
		{
			"anonymous": false,
			"inputs": [
				{
					"indexed": false,
					"internalType": "address",
					"name": "account",
					"type": "address"
				}
			],
			"name": "Paused",
			"type": "event"
		},
		{
			"anonymous": false,
			"inputs": [
				{
					"indexed": true,
					"internalType": "bytes32",
					"name": "messageHash",
					"type": "bytes32"
				},
				{
					"indexed": true,
					"internalType": "bytes32",
					"name": "proofHash",
					"type": "bytes32"
				},
				{
					"indexed": false,
					"internalType": "uint256",
					"name": "timestamp",
					"type": "uint256"
				}
			],
			"name": "ProofVerified",
			"type": "event"
		},
		{
			"anonymous": false,
			"inputs": [
				{
					"indexed": false,
					"internalType": "address",
					"name": "account",
					"type": "address"
				}
			],
			"name": "Unpaused",
			"type": "event"
		},
		{
			"inputs": [],
			"name": "CONSISTENCY_LEVEL",
			"outputs": [
				{
					"internalType": "uint8",
					"name": "",
					"type": "uint8"
				}
			],
			"stateMutability": "view",
			"type": "function"
		},
		{
			"inputs": [],
			"name": "CURRENT_CHAIN_ID",
			"outputs": [
				{
					"internalType": "uint16",
					"name": "",
					"type": "uint16"
				}
			],
			"stateMutability": "view",
			"type": "function"
		},
		{
			"inputs": [],
			"name": "GUARDIAN_SET_EXPIRY",
			"outputs": [
				{
					"internalType": "uint32",
					"name": "",
					"type": "uint32"
				}
			],
			"stateMutability": "view",
			"type": "function"
		},
		{
			"inputs": [],
			"name": "MSG_TIMEOUT",
			"outputs": [
				{
					"internalType": "uint256",
					"name": "",
					"type": "uint256"
				}
			],
			"stateMutability": "view",
			"type": "function"
		},
		{
			"inputs": [],
			"name": "currentGuardianSetIndex",
			"outputs": [
				{
					"internalType": "uint32",
					"name": "",
					"type": "uint32"
				}
			],
			"stateMutability": "view",
			"type": "function"
		},
		{
			"inputs": [
				{
					"internalType": "bytes",
					"name": "payload",
					"type": "bytes"
				}
			],
			"name": "decodePayload",
			"outputs": [
				{
					"internalType": "bytes32",
					"name": "messageHash",
					"type": "bytes32"
				},
				{
					"internalType": "bytes32",
					"name": "nullifier",
					"type": "bytes32"
				},
				{
					"internalType": "address",
					"name": "sender",
					"type": "address"
				},
				{
					"internalType": "address",
					"name": "recipient",
					"type": "address"
				},
				{
					"internalType": "bytes",
					"name": "data",
					"type": "bytes"
				}
			],
			"stateMutability": "pure",
			"type": "function"
		},
		{
			"inputs": [],
			"name": "getGuardians",
			"outputs": [
				{
					"internalType": "address[]",
					"name": "",
					"type": "address[]"
				}
			],
			"stateMutability": "view",
			"type": "function"
		},
		{
			"inputs": [],
			"name": "getVerifyingKey",
			"outputs": [
				{
					"components": [
						{
							"internalType": "uint256[2]",
							"name": "alpha",
							"type": "uint256[2]"
						},
						{
							"internalType": "uint256[2][2]",
							"name": "beta",
							"type": "uint256[2][2]"
						},
						{
							"internalType": "uint256[2]",
							"name": "gamma",
							"type": "uint256[2]"
						},
						{
							"internalType": "uint256[2]",
							"name": "delta",
							"type": "uint256[2]"
						},
						{
							"internalType": "uint256[2][]",
							"name": "ic",
							"type": "uint256[2][]"
						}
					],
					"internalType": "struct IBridgeVerifier.VerifyingKey",
					"name": "",
					"type": "tuple"
				}
			],
			"stateMutability": "view",
			"type": "function"
		},
		{
			"inputs": [
				{
					"internalType": "uint32",
					"name": "",
					"type": "uint32"
				}
			],
			"name": "guardianSets",
			"outputs": [
				{
					"internalType": "uint32",
					"name": "expirationTime",
					"type": "uint32"
				},
				{
					"internalType": "bool",
					"name": "isActive",
					"type": "bool"
				}
			],
			"stateMutability": "view",
			"type": "function"
		},
		{
			"inputs": [
				{
					"internalType": "bytes32",
					"name": "messageHash",
					"type": "bytes32"
				}
			],
			"name": "isMessageTimedOut",
			"outputs": [
				{
					"internalType": "bool",
					"name": "",
					"type": "bool"
				}
			],
			"stateMutability": "view",
			"type": "function"
		},
		{
			"inputs": [
				{
					"internalType": "bytes32",
					"name": "",
					"type": "bytes32"
				}
			],
			"name": "messageTimestamps",
			"outputs": [
				{
					"internalType": "uint256",
					"name": "",
					"type": "uint256"
				}
			],
			"stateMutability": "view",
			"type": "function"
		},
		{
			"inputs": [
				{
					"internalType": "bytes32",
					"name": "",
					"type": "bytes32"
				}
			],
			"name": "messages",
			"outputs": [
				{
					"internalType": "bytes32",
					"name": "messageHash",
					"type": "bytes32"
				},
				{
					"internalType": "uint16",
					"name": "sourceChain",
					"type": "uint16"
				},
				{
					"internalType": "uint16",
					"name": "targetChain",
					"type": "uint16"
				},
				{
					"internalType": "bytes32",
					"name": "payloadHash",
					"type": "bytes32"
				},
				{
					"internalType": "bytes32",
					"name": "nullifier",
					"type": "bytes32"
				},
				{
					"internalType": "address",
					"name": "sender",
					"type": "address"
				},
				{
					"internalType": "address",
					"name": "recipient",
					"type": "address"
				},
				{
					"internalType": "bool",
					"name": "executed",
					"type": "bool"
				},
				{
					"internalType": "uint256",
					"name": "timestamp",
					"type": "uint256"
				},
				{
					"internalType": "bytes32",
					"name": "proof",
					"type": "bytes32"
				}
			],
			"stateMutability": "view",
			"type": "function"
		},
		{
			"inputs": [
				{
					"internalType": "bytes32",
					"name": "",
					"type": "bytes32"
				}
			],
			"name": "nullifierUsed",
			"outputs": [
				{
					"internalType": "bool",
					"name": "",
					"type": "bool"
				}
			],
			"stateMutability": "view",
			"type": "function"
		},
		{
			"inputs": [],
			"name": "owner",
			"outputs": [
				{
					"internalType": "address",
					"name": "",
					"type": "address"
				}
			],
			"stateMutability": "view",
			"type": "function"
		},
		{
			"inputs": [],
			"name": "pause",
			"outputs": [],
			"stateMutability": "nonpayable",
			"type": "function"
		},
		{
			"inputs": [],
			"name": "paused",
			"outputs": [
				{
					"internalType": "bool",
					"name": "",
					"type": "bool"
				}
			],
			"stateMutability": "view",
			"type": "function"
		},
		{
			"inputs": [],
			"name": "renounceOwnership",
			"outputs": [],
			"stateMutability": "nonpayable",
			"type": "function"
		},
		{
			"inputs": [
				{
					"internalType": "address",
					"name": "newOwner",
					"type": "address"
				}
			],
			"name": "transferOwnership",
			"outputs": [],
			"stateMutability": "nonpayable",
			"type": "function"
		},
		{
			"inputs": [],
			"name": "unpause",
			"outputs": [],
			"stateMutability": "nonpayable",
			"type": "function"
		},
		{
			"inputs": [
				{
					"internalType": "address[]",
					"name": "newGuardians",
					"type": "address[]"
				}
			],
			"name": "updateGuardianSet",
			"outputs": [],
			"stateMutability": "nonpayable",
			"type": "function"
		},
		{
			"inputs": [
				{
					"internalType": "uint256[2]",
					"name": "_alpha",
					"type": "uint256[2]"
				},
				{
					"internalType": "uint256[2][2]",
					"name": "_beta",
					"type": "uint256[2][2]"
				},
				{
					"internalType": "uint256[2]",
					"name": "_gamma",
					"type": "uint256[2]"
				},
				{
					"internalType": "uint256[2]",
					"name": "_delta",
					"type": "uint256[2]"
				},
				{
					"internalType": "uint256[2][]",
					"name": "_ic",
					"type": "uint256[2][]"
				}
			],
			"name": "updateVerifyingKey",
			"outputs": [],
			"stateMutability": "nonpayable",
			"type": "function"
		},
		{
			"inputs": [],
			"name": "verifier",
			"outputs": [
				{
					"internalType": "contract IVerifier",
					"name": "",
					"type": "address"
				}
			],
			"stateMutability": "view",
			"type": "function"
		},
		{
			"inputs": [
				{
					"internalType": "bytes",
					"name": "encodedVM",
					"type": "bytes"
				},
				{
					"internalType": "bytes",
					"name": "proof",
					"type": "bytes"
				}
			],
			"name": "verifyMessage",
			"outputs": [],
			"stateMutability": "nonpayable",
			"type": "function"
		},
		{
			"inputs": [],
			"name": "wormhole",
			"outputs": [
				{
					"internalType": "contract IWormhole",
					"name": "",
					"type": "address"
				}
			],
			"stateMutability": "view",
			"type": "function"
		}
	]
}