{
	"data": {
		"bytecode": {
			"linkReferences": {},
			"object": "60a060405234801561000f575f80fd5b50604051612ad8380380612ad8833981810160405281019061003191906102f3565b5f60015f6101000a81548160ff0219169083151502179055505f73ffffffffffffffffffffffffffffffffffffffff168173ffffffffffffffffffffffffffffffffffffffff16036100b8576040517f08c379a00000000000000000000000000000000000000000000000000000000081526004016100af90610378565b60405180910390fd5b8073ffffffffffffffffffffffffffffffffffffffff1660808173ffffffffffffffffffffffffffffffffffffffff16815250506100fe5f801b3361013660201b60201c565b5061012f7fa49807205ce4d355092ef5a8a18f56e8913cf4a201fbe287825b095693c217753361013660201b60201c565b5050610396565b5f610147838361022b60201b60201c565b6102215760015f808581526020019081526020015f205f015f8473ffffffffffffffffffffffffffffffffffffffff1673ffffffffffffffffffffffffffffffffffffffff1681526020019081526020015f205f6101000a81548160ff0219169083151502179055506101be61028e60201b60201c565b73ffffffffffffffffffffffffffffffffffffffff168273ffffffffffffffffffffffffffffffffffffffff16847f2f8788117e7eff1d82e926ec794901d17c78024a50270940304540a733656f0d60405160405180910390a460019050610225565b5f90505b92915050565b5f805f8481526020019081526020015f205f015f8373ffffffffffffffffffffffffffffffffffffffff1673ffffffffffffffffffffffffffffffffffffffff1681526020019081526020015f205f9054906101000a900460ff16905092915050565b5f33905090565b5f80fd5b5f73ffffffffffffffffffffffffffffffffffffffff82169050919050565b5f6102c282610299565b9050919050565b6102d2816102b8565b81146102dc575f80fd5b50565b5f815190506102ed816102c9565b92915050565b5f6020828403121561030857610307610295565b5b5f610315848285016102df565b91505092915050565b5f82825260208201905092915050565b7f496e76616c696420576f726d686f6c65206164647265737300000000000000005f82015250565b5f61036260188361031e565b915061036d8261032e565b602082019050919050565b5f6020820190508181035f83015261038f81610356565b9050919050565b6080516127156103c35f395f81816103d601528181610a9301528181610cb50152610e9801526127155ff3fe608060405260043610610100575f3560e01c80635c975abb1161009457806384acd1bb1161006357806384acd1bb146102f557806391d148541461031f578063a217fddf1461035b578063d547741f14610385578063e9162e8f146103ad57610107565b80635c975abb146102635780635e35359e1461028d57806375b238fc146102b55780638456cb59146102df57610107565b806336568abe116100d057806336568abe146101d35780633f4ba83a146101fb5780634782f779146102115780634fd686c81461023957610107565b80628a403e1461010b57806301ffc9a714610133578063248a9ca31461016f5780632f2ff15d146101ab57610107565b3661010757005b5f80fd5b348015610116575f80fd5b50610131600480360381019061012c91906114e9565b6103c9565b005b34801561013e575f80fd5b5061015960048036038101906101549190611589565b610619565b60405161016691906115ce565b60405180910390f35b34801561017a575f80fd5b506101956004803603810190610190919061161a565b610692565b6040516101a29190611654565b60405180910390f35b3480156101b6575f80fd5b506101d160048036038101906101cc91906116c7565b6106ae565b005b3480156101de575f80fd5b506101f960048036038101906101f491906116c7565b6106d0565b005b348015610206575f80fd5b5061020f61074b565b005b34801561021c575f80fd5b5061023760048036038101906102329190611773565b610780565b005b348015610244575f80fd5b5061024d6108c6565b60405161025a91906117cc565b60405180910390f35b34801561026e575f80fd5b506102776108cb565b60405161028491906115ce565b60405180910390f35b348015610298575f80fd5b506102b360048036038101906102ae91906117e5565b6108e0565b005b3480156102c0575f80fd5b506102c9610a38565b6040516102d69190611654565b60405180910390f35b3480156102ea575f80fd5b506102f3610a5c565b005b348015610300575f80fd5b50610309610a91565b6040516103169190611890565b60405180910390f35b34801561032a575f80fd5b50610345600480360381019061034091906116c7565b610ab5565b60405161035291906115ce565b60405180910390f35b348015610366575f80fd5b5061036f610b18565b60405161037c9190611654565b60405180910390f35b348015610390575f80fd5b506103ab60048036038101906103a691906116c7565b610b1e565b005b6103c760048036038101906103c291906118e0565b610b40565b005b6103d161108d565b5f805f7f000000000000000000000000000000000000000000000000000000000000000073ffffffffffffffffffffffffffffffffffffffff1663c0fd8bde86866040518363ffffffff1660e01b815260040161042f92919061199e565b5f60405180830381865afa158015610449573d5f803e3d5ffd5b505050506040513d5f823e3d601f19601f820116820180604052508101906104719190611dc1565b9250925092508181906104ba576040517f08c379a00000000000000000000000000000000000000000000000000000000081526004016104b19190611e9b565b60405180910390fd5b505f8360e001518060200190518101906104d49190611f58565b9050805f015173ffffffffffffffffffffffffffffffffffffffff1663a9059cbb826060015183602001516040518363ffffffff1660e01b815260040161051c929190611fa1565b6020604051808303815f875af1158015610538573d5f803e3d5ffd5b505050506040513d601f19601f8201168201806040525081019061055c9190611fc8565b61059b576040517f08c379a00000000000000000000000000000000000000000000000000000000081526004016105929061203d565b60405180910390fd5b806060015173ffffffffffffffffffffffffffffffffffffffff16815f015173ffffffffffffffffffffffffffffffffffffffff167f702582eb4c57b40c07ab9b23e7f12c7ca5b88d2d2d327e5a7393800462f31f548360200151876060015160405161060992919061206a565b60405180910390a3505050505050565b5f7f7965db0b000000000000000000000000000000000000000000000000000000007bffffffffffffffffffffffffffffffffffffffffffffffffffffffff1916827bffffffffffffffffffffffffffffffffffffffffffffffffffffffff1916148061068b575061068a826110ce565b5b9050919050565b5f805f8381526020019081526020015f20600101549050919050565b6106b782610692565b6106c081611137565b6106ca838361114b565b50505050565b6106d8611234565b73ffffffffffffffffffffffffffffffffffffffff168173ffffffffffffffffffffffffffffffffffffffff161461073c576040517f6697b23200000000000000000000000000000000000000000000000000000000815260040160405180910390fd5b610746828261123b565b505050565b7fa49807205ce4d355092ef5a8a18f56e8913cf4a201fbe287825b095693c2177561077581611137565b61077d611324565b50565b7fa49807205ce4d355092ef5a8a18f56e8913cf4a201fbe287825b095693c217756107aa81611137565b5f73ffffffffffffffffffffffffffffffffffffffff168373ffffffffffffffffffffffffffffffffffffffff1603610818576040517f08c379a000000000000000000000000000000000000000000000000000000000815260040161080f906120db565b60405180910390fd5b5f8373ffffffffffffffffffffffffffffffffffffffff168360405161083d90612126565b5f6040518083038185875af1925050503d805f8114610877576040519150601f19603f3d011682016040523d82523d5f602084013e61087c565b606091505b50509050806108c0576040517f08c379a00000000000000000000000000000000000000000000000000000000081526004016108b790612184565b60405180910390fd5b50505050565b600181565b5f60015f9054906101000a900460ff16905090565b7fa49807205ce4d355092ef5a8a18f56e8913cf4a201fbe287825b095693c2177561090a81611137565b5f73ffffffffffffffffffffffffffffffffffffffff168373ffffffffffffffffffffffffffffffffffffffff1603610978576040517f08c379a000000000000000000000000000000000000000000000000000000000815260040161096f906120db565b60405180910390fd5b8373ffffffffffffffffffffffffffffffffffffffff1663a9059cbb84846040518363ffffffff1660e01b81526004016109b3929190611fa1565b6020604051808303815f875af11580156109cf573d5f803e3d5ffd5b505050506040513d601f19601f820116820180604052508101906109f39190611fc8565b610a32576040517f08c379a0000000000000000000000000000000000000000000000000000000008152600401610a29906121ec565b60405180910390fd5b50505050565b7fa49807205ce4d355092ef5a8a18f56e8913cf4a201fbe287825b095693c2177581565b7fa49807205ce4d355092ef5a8a18f56e8913cf4a201fbe287825b095693c21775610a8681611137565b610a8e611385565b50565b7f000000000000000000000000000000000000000000000000000000000000000081565b5f805f8481526020019081526020015f205f015f8373ffffffffffffffffffffffffffffffffffffffff1673ffffffffffffffffffffffffffffffffffffffff1681526020019081526020015f205f9054906101000a900460ff16905092915050565b5f801b81565b610b2782610692565b610b3081611137565b610b3a838361123b565b50505050565b610b4861108d565b5f8311610b8a576040517f08c379a0000000000000000000000000000000000000000000000000000000008152600401610b8190612254565b60405180910390fd5b5f73ffffffffffffffffffffffffffffffffffffffff168173ffffffffffffffffffffffffffffffffffffffff1603610bf8576040517f08c379a0000000000000000000000000000000000000000000000000000000008152600401610bef906122bc565b60405180910390fd5b828473ffffffffffffffffffffffffffffffffffffffff166370a08231336040518263ffffffff1660e01b8152600401610c3291906122da565b602060405180830381865afa158015610c4d573d5f803e3d5ffd5b505050506040513d601f19601f82011682018060405250810190610c7191906122f3565b1015610cb2576040517f08c379a0000000000000000000000000000000000000000000000000000000008152600401610ca990612368565b60405180910390fd5b5f7f000000000000000000000000000000000000000000000000000000000000000073ffffffffffffffffffffffffffffffffffffffff16631a90a2196040518163ffffffff1660e01b8152600401602060405180830381865afa158015610d1c573d5f803e3d5ffd5b505050506040513d601f19601f82011682018060405250810190610d4091906122f3565b905080341015610d85576040517f08c379a0000000000000000000000000000000000000000000000000000000008152600401610d7c906123d0565b60405180910390fd5b8473ffffffffffffffffffffffffffffffffffffffff166323b872dd3330876040518463ffffffff1660e01b8152600401610dc2939291906123ee565b6020604051808303815f875af1158015610dde573d5f803e3d5ffd5b505050506040513d601f19601f82011682018060405250810190610e029190611fc8565b610e41576040517f08c379a0000000000000000000000000000000000000000000000000000000008152600401610e38906121ec565b60405180910390fd5b5f60405180608001604052808773ffffffffffffffffffffffffffffffffffffffff1681526020018681526020018561ffff1681526020018473ffffffffffffffffffffffffffffffffffffffff1681525090505f7f000000000000000000000000000000000000000000000000000000000000000073ffffffffffffffffffffffffffffffffffffffff1663b19a437e845f85604051602001610ee591906124a3565b60405160208183030381529060405260016040518563ffffffff1660e01b8152600401610f1493929190612537565b60206040518083038185885af1158015610f30573d5f803e3d5ffd5b50505050506040513d601f19601f82011682018060405250810190610f559190612573565b90505f8334610f6491906125cb565b90505f811115611018575f3373ffffffffffffffffffffffffffffffffffffffff1682604051610f9390612126565b5f6040518083038185875af1925050503d805f8114610fcd576040519150601f19603f3d011682016040523d82523d5f602084013e610fd2565b606091505b5050905080611016576040517f08c379a000000000000000000000000000000000000000000000000000000000815260040161100d90612648565b60405180910390fd5b505b3373ffffffffffffffffffffffffffffffffffffffff168873ffffffffffffffffffffffffffffffffffffffff167fe3396cc8c730543dfd529dbd56768c3609c96e76c19d9877cc0b0598fea8aeac8989898760405161107b9493929190612675565b60405180910390a35050505050505050565b6110956108cb565b156110cc576040517fd93c066500000000000000000000000000000000000000000000000000000000815260040160405180910390fd5b565b5f7f01ffc9a7000000000000000000000000000000000000000000000000000000007bffffffffffffffffffffffffffffffffffffffffffffffffffffffff1916827bffffffffffffffffffffffffffffffffffffffffffffffffffffffff1916149050919050565b61114881611143611234565b6113e6565b50565b5f6111568383610ab5565b61122a5760015f808581526020019081526020015f205f015f8473ffffffffffffffffffffffffffffffffffffffff1673ffffffffffffffffffffffffffffffffffffffff1681526020019081526020015f205f6101000a81548160ff0219169083151502179055506111c7611234565b73ffffffffffffffffffffffffffffffffffffffff168273ffffffffffffffffffffffffffffffffffffffff16847f2f8788117e7eff1d82e926ec794901d17c78024a50270940304540a733656f0d60405160405180910390a46001905061122e565b5f90505b92915050565b5f33905090565b5f6112468383610ab5565b1561131a575f805f8581526020019081526020015f205f015f8473ffffffffffffffffffffffffffffffffffffffff1673ffffffffffffffffffffffffffffffffffffffff1681526020019081526020015f205f6101000a81548160ff0219169083151502179055506112b7611234565b73ffffffffffffffffffffffffffffffffffffffff168273ffffffffffffffffffffffffffffffffffffffff16847ff6391f5c32d9c69d2a47ea670b442974b53935d1edc7fd64eb21e047a839171b60405160405180910390a46001905061131e565b5f90505b92915050565b61132c611437565b5f60015f6101000a81548160ff0219169083151502179055507f5db9ee0a495bf2e6ff9c91a7834c1ba4fdd244a5e8aa4e537bd38aeae4b073aa61136e611234565b60405161137b91906122da565b60405180910390a1565b61138d61108d565b6001805f6101000a81548160ff0219169083151502179055507f62e78cea01bee320cd4e420270b5ea74000d11b0c9f74754ebdbfc544b05a2586113cf611234565b6040516113dc91906122da565b60405180910390a1565b6113f08282610ab5565b6114335780826040517fe2517d3f00000000000000000000000000000000000000000000000000000000815260040161142a9291906126b8565b60405180910390fd5b5050565b61143f6108cb565b611475576040517f8dfc202b00000000000000000000000000000000000000000000000000000000815260040160405180910390fd5b565b5f604051905090565b5f80fd5b5f80fd5b5f80fd5b5f80fd5b5f80fd5b5f8083601f8401126114a9576114a8611488565b5b8235905067ffffffffffffffff8111156114c6576114c561148c565b5b6020830191508360018202830111156114e2576114e1611490565b5b9250929050565b5f80602083850312156114ff576114fe611480565b5b5f83013567ffffffffffffffff81111561151c5761151b611484565b5b61152885828601611494565b92509250509250929050565b5f7fffffffff0000000000000000000000000000000000000000000000000000000082169050919050565b61156881611534565b8114611572575f80fd5b50565b5f813590506115838161155f565b92915050565b5f6020828403121561159e5761159d611480565b5b5f6115ab84828501611575565b91505092915050565b5f8115159050919050565b6115c8816115b4565b82525050565b5f6020820190506115e15f8301846115bf565b92915050565b5f819050919050565b6115f9816115e7565b8114611603575f80fd5b50565b5f81359050611614816115f0565b92915050565b5f6020828403121561162f5761162e611480565b5b5f61163c84828501611606565b91505092915050565b61164e816115e7565b82525050565b5f6020820190506116675f830184611645565b92915050565b5f73ffffffffffffffffffffffffffffffffffffffff82169050919050565b5f6116968261166d565b9050919050565b6116a68161168c565b81146116b0575f80fd5b50565b5f813590506116c18161169d565b92915050565b5f80604083850312156116dd576116dc611480565b5b5f6116ea85828601611606565b92505060206116fb858286016116b3565b9150509250929050565b5f61170f8261166d565b9050919050565b61171f81611705565b8114611729575f80fd5b50565b5f8135905061173a81611716565b92915050565b5f819050919050565b61175281611740565b811461175c575f80fd5b50565b5f8135905061176d81611749565b92915050565b5f806040838503121561178957611788611480565b5b5f6117968582860161172c565b92505060206117a78582860161175f565b9150509250929050565b5f60ff82169050919050565b6117c6816117b1565b82525050565b5f6020820190506117df5f8301846117bd565b92915050565b5f805f606084860312156117fc576117fb611480565b5b5f611809868287016116b3565b935050602061181a868287016116b3565b925050604061182b8682870161175f565b9150509250925092565b5f819050919050565b5f61185861185361184e8461166d565b611835565b61166d565b9050919050565b5f6118698261183e565b9050919050565b5f61187a8261185f565b9050919050565b61188a81611870565b82525050565b5f6020820190506118a35f830184611881565b92915050565b5f61ffff82169050919050565b6118bf816118a9565b81146118c9575f80fd5b50565b5f813590506118da816118b6565b92915050565b5f805f80608085870312156118f8576118f7611480565b5b5f611905878288016116b3565b94505060206119168782880161175f565b9350506040611927878288016118cc565b9250506060611938878288016116b3565b91505092959194509250565b5f82825260208201905092915050565b828183375f83830152505050565b5f601f19601f8301169050919050565b5f61197d8385611944565b935061198a838584611954565b61199383611962565b840190509392505050565b5f6020820190508181035f8301526119b7818486611972565b90509392505050565b5f80fd5b7f4e487b71000000000000000000000000000000000000000000000000000000005f52604160045260245ffd5b6119fa82611962565b810181811067ffffffffffffffff82111715611a1957611a186119c4565b5b80604052505050565b5f611a2b611477565b9050611a3782826119f1565b919050565b5f80fd5b611a49816117b1565b8114611a53575f80fd5b50565b5f81519050611a6481611a40565b92915050565b5f63ffffffff82169050919050565b611a8281611a6a565b8114611a8c575f80fd5b50565b5f81519050611a9d81611a79565b92915050565b5f81519050611ab1816118b6565b92915050565b5f81519050611ac5816115f0565b92915050565b5f67ffffffffffffffff82169050919050565b611ae781611acb565b8114611af1575f80fd5b50565b5f81519050611b0281611ade565b92915050565b5f80fd5b5f67ffffffffffffffff821115611b2657611b256119c4565b5b611b2f82611962565b9050602081019050919050565b8281835e5f83830152505050565b5f611b5c611b5784611b0c565b611a22565b905082815260208101848484011115611b7857611b77611b08565b5b611b83848285611b3c565b509392505050565b5f82601f830112611b9f57611b9e611488565b5b8151611baf848260208601611b4a565b91505092915050565b5f6101608284031215611bce57611bcd6119c0565b5b611bd9610160611a22565b90505f611be884828501611a56565b5f830152506020611bfb84828501611a8f565b6020830152506040611c0f84828501611a8f565b6040830152506060611c2384828501611aa3565b6060830152506080611c3784828501611ab7565b60808301525060a0611c4b84828501611af4565b60a08301525060c0611c5f84828501611a56565b60c08301525060e082015167ffffffffffffffff811115611c8357611c82611a3c565b5b611c8f84828501611b8b565b60e083015250610100611ca484828501611a8f565b6101008301525061012082015167ffffffffffffffff811115611cca57611cc9611a3c565b5b611cd684828501611b8b565b61012083015250610140611cec84828501611ab7565b6101408301525092915050565b611d02816115b4565b8114611d0c575f80fd5b50565b5f81519050611d1d81611cf9565b92915050565b5f67ffffffffffffffff821115611d3d57611d3c6119c4565b5b611d4682611962565b9050602081019050919050565b5f611d65611d6084611d23565b611a22565b905082815260208101848484011115611d8157611d80611b08565b5b611d8c848285611b3c565b509392505050565b5f82601f830112611da857611da7611488565b5b8151611db8848260208601611d53565b91505092915050565b5f805f60608486031215611dd857611dd7611480565b5b5f84015167ffffffffffffffff811115611df557611df4611484565b5b611e0186828701611bb8565b9350506020611e1286828701611d0f565b925050604084015167ffffffffffffffff811115611e3357611e32611484565b5b611e3f86828701611d94565b9150509250925092565b5f81519050919050565b5f82825260208201905092915050565b5f611e6d82611e49565b611e778185611e53565b9350611e87818560208601611b3c565b611e9081611962565b840191505092915050565b5f6020820190508181035f830152611eb38184611e63565b905092915050565b5f81519050611ec98161169d565b92915050565b5f81519050611edd81611749565b92915050565b5f60808284031215611ef857611ef76119c0565b5b611f026080611a22565b90505f611f1184828501611ebb565b5f830152506020611f2484828501611ecf565b6020830152506040611f3884828501611aa3565b6040830152506060611f4c84828501611ebb565b60608301525092915050565b5f60808284031215611f6d57611f6c611480565b5b5f611f7a84828501611ee3565b91505092915050565b611f8c8161168c565b82525050565b611f9b81611740565b82525050565b5f604082019050611fb45f830185611f83565b611fc16020830184611f92565b9392505050565b5f60208284031215611fdd57611fdc611480565b5b5f611fea84828501611d0f565b91505092915050565b7f546f6b656e207472616e73666572206661696c656400000000000000000000005f82015250565b5f612027601583611e53565b915061203282611ff3565b602082019050919050565b5f6020820190508181035f8301526120548161201b565b9050919050565b612064816118a9565b82525050565b5f60408201905061207d5f830185611f92565b61208a602083018461205b565b9392505050565b7f496e76616c6964206164647265737300000000000000000000000000000000005f82015250565b5f6120c5600f83611e53565b91506120d082612091565b602082019050919050565b5f6020820190508181035f8301526120f2816120b9565b9050919050565b5f81905092915050565b50565b5f6121115f836120f9565b915061211c82612103565b5f82019050919050565b5f61213082612106565b9150819050919050565b7f455448207472616e73666572206661696c6564000000000000000000000000005f82015250565b5f61216e601383611e53565b91506121798261213a565b602082019050919050565b5f6020820190508181035f83015261219b81612162565b9050919050565b7f5472616e73666572206661696c656400000000000000000000000000000000005f82015250565b5f6121d6600f83611e53565b91506121e1826121a2565b602082019050919050565b5f6020820190508181035f830152612203816121ca565b9050919050565b7f416d6f756e74206d7573742062652067726561746572207468616e20300000005f82015250565b5f61223e601d83611e53565b91506122498261220a565b602082019050919050565b5f6020820190508181035f83015261226b81612232565b9050919050565b7f496e76616c69642064657374696e6174696f6e206164647265737300000000005f82015250565b5f6122a6601b83611e53565b91506122b182612272565b602082019050919050565b5f6020820190508181035f8301526122d38161229a565b9050919050565b5f6020820190506122ed5f830184611f83565b92915050565b5f6020828403121561230857612307611480565b5b5f61231584828501611ecf565b91505092915050565b7f496e73756666696369656e742062616c616e63650000000000000000000000005f82015250565b5f612352601483611e53565b915061235d8261231e565b602082019050919050565b5f6020820190508181035f83015261237f81612346565b9050919050565b7f496e73756666696369656e7420576f726d686f6c6520666565000000000000005f82015250565b5f6123ba601983611e53565b91506123c582612386565b602082019050919050565b5f6020820190508181035f8301526123e7816123ae565b9050919050565b5f6060820190506124015f830186611f83565b61240e6020830185611f83565b61241b6040830184611f92565b949350505050565b61242c8161168c565b82525050565b61243b81611740565b82525050565b61244a816118a9565b82525050565b608082015f8201516124645f850182612423565b5060208201516124776020850182612432565b50604082015161248a6040850182612441565b50606082015161249d6060850182612423565b50505050565b5f6080820190506124b65f830184612450565b92915050565b5f819050919050565b5f6124df6124da6124d5846124bc565b611835565b611a6a565b9050919050565b6124ef816124c5565b82525050565b5f81519050919050565b5f612509826124f5565b6125138185611944565b9350612523818560208601611b3c565b61252c81611962565b840191505092915050565b5f60608201905061254a5f8301866124e6565b818103602083015261255c81856124ff565b905061256b60408301846117bd565b949350505050565b5f6020828403121561258857612587611480565b5b5f61259584828501611af4565b91505092915050565b7f4e487b71000000000000000000000000000000000000000000000000000000005f52601160045260245ffd5b5f6125d582611740565b91506125e083611740565b92508282039050818111156125f8576125f761259e565b5b92915050565b7f46656520726566756e64206661696c65640000000000000000000000000000005f82015250565b5f612632601183611e53565b915061263d826125fe565b602082019050919050565b5f6020820190508181035f83015261265f81612626565b9050919050565b61266f81611acb565b82525050565b5f6080820190506126885f830187611f92565b612695602083018661205b565b6126a26040830185611f83565b6126af6060830184612666565b95945050505050565b5f6040820190506126cb5f830185611f83565b6126d86020830184611645565b939250505056fea264697066735822122072d44376b29fe1b73bd379de48eeb0f8738750d9ce680a3150287eb64705e26264736f6c634300081a0033",
			"opcodes": "PUSH1 0xA0 PUSH1 0x40 MSTORE CALLVALUE DUP1 ISZERO PUSH2 0xF JUMPI PUSH0 DUP1 REVERT JUMPDEST POP PUSH1 0x40 MLOAD PUSH2 0x2AD8 CODESIZE SUB DUP1 PUSH2 0x2AD8 DUP4 CODECOPY DUP2 DUP2 ADD PUSH1 0x40 MSTORE DUP2 ADD SWAP1 PUSH2 0x31 SWAP2 SWAP1 PUSH2 0x2F3 JUMP JUMPDEST PUSH0 PUSH1 0x1 PUSH0 PUSH2 0x100 EXP DUP2 SLOAD DUP2 PUSH1 0xFF MUL NOT AND SWAP1 DUP4 ISZERO ISZERO MUL OR SWAP1 SSTORE POP PUSH0 PUSH20 0xFFFFFFFFFFFFFFFFFFFFFFFFFFFFFFFFFFFFFFFF AND DUP2 PUSH20 0xFFFFFFFFFFFFFFFFFFFFFFFFFFFFFFFFFFFFFFFF AND SUB PUSH2 0xB8 JUMPI PUSH1 0x40 MLOAD PUSH32 0x8C379A000000000000000000000000000000000000000000000000000000000 DUP2 MSTORE PUSH1 0x4 ADD PUSH2 0xAF SWAP1 PUSH2 0x378 JUMP JUMPDEST PUSH1 0x40 MLOAD DUP1 SWAP2 SUB SWAP1 REVERT JUMPDEST DUP1 PUSH20 0xFFFFFFFFFFFFFFFFFFFFFFFFFFFFFFFFFFFFFFFF AND PUSH1 0x80 DUP2 PUSH20 0xFFFFFFFFFFFFFFFFFFFFFFFFFFFFFFFFFFFFFFFF AND DUP2 MSTORE POP POP PUSH2 0xFE PUSH0 DUP1 SHL CALLER PUSH2 0x136 PUSH1 0x20 SHL PUSH1 0x20 SHR JUMP JUMPDEST POP PUSH2 0x12F PUSH32 0xA49807205CE4D355092EF5A8A18F56E8913CF4A201FBE287825B095693C21775 CALLER PUSH2 0x136 PUSH1 0x20 SHL PUSH1 0x20 SHR JUMP JUMPDEST POP POP PUSH2 0x396 JUMP JUMPDEST PUSH0 PUSH2 0x147 DUP4 DUP4 PUSH2 0x22B PUSH1 0x20 SHL PUSH1 0x20 SHR JUMP JUMPDEST PUSH2 0x221 JUMPI PUSH1 0x1 PUSH0 DUP1 DUP6 DUP2 MSTORE PUSH1 0x20 ADD SWAP1 DUP2 MSTORE PUSH1 0x20 ADD PUSH0 KECCAK256 PUSH0 ADD PUSH0 DUP5 PUSH20 0xFFFFFFFFFFFFFFFFFFFFFFFFFFFFFFFFFFFFFFFF AND PUSH20 0xFFFFFFFFFFFFFFFFFFFFFFFFFFFFFFFFFFFFFFFF AND DUP2 MSTORE PUSH1 0x20 ADD SWAP1 DUP2 MSTORE PUSH1 0x20 ADD PUSH0 KECCAK256 PUSH0 PUSH2 0x100 EXP DUP2 SLOAD DUP2 PUSH1 0xFF MUL NOT AND SWAP1 DUP4 ISZERO ISZERO MUL OR SWAP1 SSTORE POP PUSH2 0x1BE PUSH2 0x28E PUSH1 0x20 SHL PUSH1 0x20 SHR JUMP JUMPDEST PUSH20 0xFFFFFFFFFFFFFFFFFFFFFFFFFFFFFFFFFFFFFFFF AND DUP3 PUSH20 0xFFFFFFFFFFFFFFFFFFFFFFFFFFFFFFFFFFFFFFFF AND DUP5 PUSH32 0x2F8788117E7EFF1D82E926EC794901D17C78024A50270940304540A733656F0D PUSH1 0x40 MLOAD PUSH1 0x40 MLOAD DUP1 SWAP2 SUB SWAP1 LOG4 PUSH1 0x1 SWAP1 POP PUSH2 0x225 JUMP JUMPDEST PUSH0 SWAP1 POP JUMPDEST SWAP3 SWAP2 POP POP JUMP JUMPDEST PUSH0 DUP1 PUSH0 DUP5 DUP2 MSTORE PUSH1 0x20 ADD SWAP1 DUP2 MSTORE PUSH1 0x20 ADD PUSH0 KECCAK256 PUSH0 ADD PUSH0 DUP4 PUSH20 0xFFFFFFFFFFFFFFFFFFFFFFFFFFFFFFFFFFFFFFFF AND PUSH20 0xFFFFFFFFFFFFFFFFFFFFFFFFFFFFFFFFFFFFFFFF AND DUP2 MSTORE PUSH1 0x20 ADD SWAP1 DUP2 MSTORE PUSH1 0x20 ADD PUSH0 KECCAK256 PUSH0 SWAP1 SLOAD SWAP1 PUSH2 0x100 EXP SWAP1 DIV PUSH1 0xFF AND SWAP1 POP SWAP3 SWAP2 POP POP JUMP JUMPDEST PUSH0 CALLER SWAP1 POP SWAP1 JUMP JUMPDEST PUSH0 DUP1 REVERT JUMPDEST PUSH0 PUSH20 0xFFFFFFFFFFFFFFFFFFFFFFFFFFFFFFFFFFFFFFFF DUP3 AND SWAP1 POP SWAP2 SWAP1 POP JUMP JUMPDEST PUSH0 PUSH2 0x2C2 DUP3 PUSH2 0x299 JUMP JUMPDEST SWAP1 POP SWAP2 SWAP1 POP JUMP JUMPDEST PUSH2 0x2D2 DUP2 PUSH2 0x2B8 JUMP JUMPDEST DUP2 EQ PUSH2 0x2DC JUMPI PUSH0 DUP1 REVERT JUMPDEST POP JUMP JUMPDEST PUSH0 DUP2 MLOAD SWAP1 POP PUSH2 0x2ED DUP2 PUSH2 0x2C9 JUMP JUMPDEST SWAP3 SWAP2 POP POP JUMP JUMPDEST PUSH0 PUSH1 0x20 DUP3 DUP5 SUB SLT ISZERO PUSH2 0x308 JUMPI PUSH2 0x307 PUSH2 0x295 JUMP JUMPDEST JUMPDEST PUSH0 PUSH2 0x315 DUP5 DUP3 DUP6 ADD PUSH2 0x2DF JUMP JUMPDEST SWAP2 POP POP SWAP3 SWAP2 POP POP JUMP JUMPDEST PUSH0 DUP3 DUP3 MSTORE PUSH1 0x20 DUP3 ADD SWAP1 POP SWAP3 SWAP2 POP POP JUMP JUMPDEST PUSH32 0x496E76616C696420576F726D686F6C6520616464726573730000000000000000 PUSH0 DUP3 ADD MSTORE POP JUMP JUMPDEST PUSH0 PUSH2 0x362 PUSH1 0x18 DUP4 PUSH2 0x31E JUMP JUMPDEST SWAP2 POP PUSH2 0x36D DUP3 PUSH2 0x32E JUMP JUMPDEST PUSH1 0x20 DUP3 ADD SWAP1 POP SWAP2 SWAP1 POP JUMP JUMPDEST PUSH0 PUSH1 0x20 DUP3 ADD SWAP1 POP DUP2 DUP2 SUB PUSH0 DUP4 ADD MSTORE PUSH2 0x38F DUP2 PUSH2 0x356 JUMP JUMPDEST SWAP1 POP SWAP2 SWAP1 POP JUMP JUMPDEST PUSH1 0x80 MLOAD PUSH2 0x2715 PUSH2 0x3C3 PUSH0 CODECOPY PUSH0 DUP2 DUP2 PUSH2 0x3D6 ADD MSTORE DUP2 DUP2 PUSH2 0xA93 ADD MSTORE DUP2 DUP2 PUSH2 0xCB5 ADD MSTORE PUSH2 0xE98 ADD MSTORE PUSH2 0x2715 PUSH0 RETURN INVALID PUSH1 0x80 PUSH1 0x40 MSTORE PUSH1 0x4 CALLDATASIZE LT PUSH2 0x100 JUMPI PUSH0 CALLDATALOAD PUSH1 0xE0 SHR DUP1 PUSH4 0x5C975ABB GT PUSH2 0x94 JUMPI DUP1 PUSH4 0x84ACD1BB GT PUSH2 0x63 JUMPI DUP1 PUSH4 0x84ACD1BB EQ PUSH2 0x2F5 JUMPI DUP1 PUSH4 0x91D14854 EQ PUSH2 0x31F JUMPI DUP1 PUSH4 0xA217FDDF EQ PUSH2 0x35B JUMPI DUP1 PUSH4 0xD547741F EQ PUSH2 0x385 JUMPI DUP1 PUSH4 0xE9162E8F EQ PUSH2 0x3AD JUMPI PUSH2 0x107 JUMP JUMPDEST DUP1 PUSH4 0x5C975ABB EQ PUSH2 0x263 JUMPI DUP1 PUSH4 0x5E35359E EQ PUSH2 0x28D JUMPI DUP1 PUSH4 0x75B238FC EQ PUSH2 0x2B5 JUMPI DUP1 PUSH4 0x8456CB59 EQ PUSH2 0x2DF JUMPI PUSH2 0x107 JUMP JUMPDEST DUP1 PUSH4 0x36568ABE GT PUSH2 0xD0 JUMPI DUP1 PUSH4 0x36568ABE EQ PUSH2 0x1D3 JUMPI DUP1 PUSH4 0x3F4BA83A EQ PUSH2 0x1FB JUMPI DUP1 PUSH4 0x4782F779 EQ PUSH2 0x211 JUMPI DUP1 PUSH4 0x4FD686C8 EQ PUSH2 0x239 JUMPI PUSH2 0x107 JUMP JUMPDEST DUP1 PUSH3 0x8A403E EQ PUSH2 0x10B JUMPI DUP1 PUSH4 0x1FFC9A7 EQ PUSH2 0x133 JUMPI DUP1 PUSH4 0x248A9CA3 EQ PUSH2 0x16F JUMPI DUP1 PUSH4 0x2F2FF15D EQ PUSH2 0x1AB JUMPI PUSH2 0x107 JUMP JUMPDEST CALLDATASIZE PUSH2 0x107 JUMPI STOP JUMPDEST PUSH0 DUP1 REVERT JUMPDEST CALLVALUE DUP1 ISZERO PUSH2 0x116 JUMPI PUSH0 DUP1 REVERT JUMPDEST POP PUSH2 0x131 PUSH1 0x4 DUP1 CALLDATASIZE SUB DUP2 ADD SWAP1 PUSH2 0x12C SWAP2 SWAP1 PUSH2 0x14E9 JUMP JUMPDEST PUSH2 0x3C9 JUMP JUMPDEST STOP JUMPDEST CALLVALUE DUP1 ISZERO PUSH2 0x13E JUMPI PUSH0 DUP1 REVERT JUMPDEST POP PUSH2 0x159 PUSH1 0x4 DUP1 CALLDATASIZE SUB DUP2 ADD SWAP1 PUSH2 0x154 SWAP2 SWAP1 PUSH2 0x1589 JUMP JUMPDEST PUSH2 0x619 JUMP JUMPDEST PUSH1 0x40 MLOAD PUSH2 0x166 SWAP2 SWAP1 PUSH2 0x15CE JUMP JUMPDEST PUSH1 0x40 MLOAD DUP1 SWAP2 SUB SWAP1 RETURN JUMPDEST CALLVALUE DUP1 ISZERO PUSH2 0x17A JUMPI PUSH0 DUP1 REVERT JUMPDEST POP PUSH2 0x195 PUSH1 0x4 DUP1 CALLDATASIZE SUB DUP2 ADD SWAP1 PUSH2 0x190 SWAP2 SWAP1 PUSH2 0x161A JUMP JUMPDEST PUSH2 0x692 JUMP JUMPDEST PUSH1 0x40 MLOAD PUSH2 0x1A2 SWAP2 SWAP1 PUSH2 0x1654 JUMP JUMPDEST PUSH1 0x40 MLOAD DUP1 SWAP2 SUB SWAP1 RETURN JUMPDEST CALLVALUE DUP1 ISZERO PUSH2 0x1B6 JUMPI PUSH0 DUP1 REVERT JUMPDEST POP PUSH2 0x1D1 PUSH1 0x4 DUP1 CALLDATASIZE SUB DUP2 ADD SWAP1 PUSH2 0x1CC SWAP2 SWAP1 PUSH2 0x16C7 JUMP JUMPDEST PUSH2 0x6AE JUMP JUMPDEST STOP JUMPDEST CALLVALUE DUP1 ISZERO PUSH2 0x1DE JUMPI PUSH0 DUP1 REVERT JUMPDEST POP PUSH2 0x1F9 PUSH1 0x4 DUP1 CALLDATASIZE SUB DUP2 ADD SWAP1 PUSH2 0x1F4 SWAP2 SWAP1 PUSH2 0x16C7 JUMP JUMPDEST PUSH2 0x6D0 JUMP JUMPDEST STOP JUMPDEST CALLVALUE DUP1 ISZERO PUSH2 0x206 JUMPI PUSH0 DUP1 REVERT JUMPDEST POP PUSH2 0x20F PUSH2 0x74B JUMP JUMPDEST STOP JUMPDEST CALLVALUE DUP1 ISZERO PUSH2 0x21C JUMPI PUSH0 DUP1 REVERT JUMPDEST POP PUSH2 0x237 PUSH1 0x4 DUP1 CALLDATASIZE SUB DUP2 ADD SWAP1 PUSH2 0x232 SWAP2 SWAP1 PUSH2 0x1773 JUMP JUMPDEST PUSH2 0x780 JUMP JUMPDEST STOP JUMPDEST CALLVALUE DUP1 ISZERO PUSH2 0x244 JUMPI PUSH0 DUP1 REVERT JUMPDEST POP PUSH2 0x24D PUSH2 0x8C6 JUMP JUMPDEST PUSH1 0x40 MLOAD PUSH2 0x25A SWAP2 SWAP1 PUSH2 0x17CC JUMP JUMPDEST PUSH1 0x40 MLOAD DUP1 SWAP2 SUB SWAP1 RETURN JUMPDEST CALLVALUE DUP1 ISZERO PUSH2 0x26E JUMPI PUSH0 DUP1 REVERT JUMPDEST POP PUSH2 0x277 PUSH2 0x8CB JUMP JUMPDEST PUSH1 0x40 MLOAD PUSH2 0x284 SWAP2 SWAP1 PUSH2 0x15CE JUMP JUMPDEST PUSH1 0x40 MLOAD DUP1 SWAP2 SUB SWAP1 RETURN JUMPDEST CALLVALUE DUP1 ISZERO PUSH2 0x298 JUMPI PUSH0 DUP1 REVERT JUMPDEST POP PUSH2 0x2B3 PUSH1 0x4 DUP1 CALLDATASIZE SUB DUP2 ADD SWAP1 PUSH2 0x2AE SWAP2 SWAP1 PUSH2 0x17E5 JUMP JUMPDEST PUSH2 0x8E0 JUMP JUMPDEST STOP JUMPDEST CALLVALUE DUP1 ISZERO PUSH2 0x2C0 JUMPI PUSH0 DUP1 REVERT JUMPDEST POP PUSH2 0x2C9 PUSH2 0xA38 JUMP JUMPDEST PUSH1 0x40 MLOAD PUSH2 0x2D6 SWAP2 SWAP1 PUSH2 0x1654 JUMP JUMPDEST PUSH1 0x40 MLOAD DUP1 SWAP2 SUB SWAP1 RETURN JUMPDEST CALLVALUE DUP1 ISZERO PUSH2 0x2EA JUMPI PUSH0 DUP1 REVERT JUMPDEST POP PUSH2 0x2F3 PUSH2 0xA5C JUMP JUMPDEST STOP JUMPDEST CALLVALUE DUP1 ISZERO PUSH2 0x300 JUMPI PUSH0 DUP1 REVERT JUMPDEST POP PUSH2 0x309 PUSH2 0xA91 JUMP JUMPDEST PUSH1 0x40 MLOAD PUSH2 0x316 SWAP2 SWAP1 PUSH2 0x1890 JUMP JUMPDEST PUSH1 0x40 MLOAD DUP1 SWAP2 SUB SWAP1 RETURN JUMPDEST CALLVALUE DUP1 ISZERO PUSH2 0x32A JUMPI PUSH0 DUP1 REVERT JUMPDEST POP PUSH2 0x345 PUSH1 0x4 DUP1 CALLDATASIZE SUB DUP2 ADD SWAP1 PUSH2 0x340 SWAP2 SWAP1 PUSH2 0x16C7 JUMP JUMPDEST PUSH2 0xAB5 JUMP JUMPDEST PUSH1 0x40 MLOAD PUSH2 0x352 SWAP2 SWAP1 PUSH2 0x15CE JUMP JUMPDEST PUSH1 0x40 MLOAD DUP1 SWAP2 SUB SWAP1 RETURN JUMPDEST CALLVALUE DUP1 ISZERO PUSH2 0x366 JUMPI PUSH0 DUP1 REVERT JUMPDEST POP PUSH2 0x36F PUSH2 0xB18 JUMP JUMPDEST PUSH1 0x40 MLOAD PUSH2 0x37C SWAP2 SWAP1 PUSH2 0x1654 JUMP JUMPDEST PUSH1 0x40 MLOAD DUP1 SWAP2 SUB SWAP1 RETURN JUMPDEST CALLVALUE DUP1 ISZERO PUSH2 0x390 JUMPI PUSH0 DUP1 REVERT JUMPDEST POP PUSH2 0x3AB PUSH1 0x4 DUP1 CALLDATASIZE SUB DUP2 ADD SWAP1 PUSH2 0x3A6 SWAP2 SWAP1 PUSH2 0x16C7 JUMP JUMPDEST PUSH2 0xB1E JUMP JUMPDEST STOP JUMPDEST PUSH2 0x3C7 PUSH1 0x4 DUP1 CALLDATASIZE SUB DUP2 ADD SWAP1 PUSH2 0x3C2 SWAP2 SWAP1 PUSH2 0x18E0 JUMP JUMPDEST PUSH2 0xB40 JUMP JUMPDEST STOP JUMPDEST PUSH2 0x3D1 PUSH2 0x108D JUMP JUMPDEST PUSH0 DUP1 PUSH0 PUSH32 0x0 PUSH20 0xFFFFFFFFFFFFFFFFFFFFFFFFFFFFFFFFFFFFFFFF AND PUSH4 0xC0FD8BDE DUP7 DUP7 PUSH1 0x40 MLOAD DUP4 PUSH4 0xFFFFFFFF AND PUSH1 0xE0 SHL DUP2 MSTORE PUSH1 0x4 ADD PUSH2 0x42F SWAP3 SWAP2 SWAP1 PUSH2 0x199E JUMP JUMPDEST PUSH0 PUSH1 0x40 MLOAD DUP1 DUP4 SUB DUP2 DUP7 GAS STATICCALL ISZERO DUP1 ISZERO PUSH2 0x449 JUMPI RETURNDATASIZE PUSH0 DUP1 RETURNDATACOPY RETURNDATASIZE PUSH0 REVERT JUMPDEST POP POP POP POP PUSH1 0x40 MLOAD RETURNDATASIZE PUSH0 DUP3 RETURNDATACOPY RETURNDATASIZE PUSH1 0x1F NOT PUSH1 0x1F DUP3 ADD AND DUP3 ADD DUP1 PUSH1 0x40 MSTORE POP DUP2 ADD SWAP1 PUSH2 0x471 SWAP2 SWAP1 PUSH2 0x1DC1 JUMP JUMPDEST SWAP3 POP SWAP3 POP SWAP3 POP DUP2 DUP2 SWAP1 PUSH2 0x4BA JUMPI PUSH1 0x40 MLOAD PUSH32 0x8C379A000000000000000000000000000000000000000000000000000000000 DUP2 MSTORE PUSH1 0x4 ADD PUSH2 0x4B1 SWAP2 SWAP1 PUSH2 0x1E9B JUMP JUMPDEST PUSH1 0x40 MLOAD DUP1 SWAP2 SUB SWAP1 REVERT JUMPDEST POP PUSH0 DUP4 PUSH1 0xE0 ADD MLOAD DUP1 PUSH1 0x20 ADD SWAP1 MLOAD DUP2 ADD SWAP1 PUSH2 0x4D4 SWAP2 SWAP1 PUSH2 0x1F58 JUMP JUMPDEST SWAP1 POP DUP1 PUSH0 ADD MLOAD PUSH20 0xFFFFFFFFFFFFFFFFFFFFFFFFFFFFFFFFFFFFFFFF AND PUSH4 0xA9059CBB DUP3 PUSH1 0x60 ADD MLOAD DUP4 PUSH1 0x20 ADD MLOAD PUSH1 0x40 MLOAD DUP4 PUSH4 0xFFFFFFFF AND PUSH1 0xE0 SHL DUP2 MSTORE PUSH1 0x4 ADD PUSH2 0x51C SWAP3 SWAP2 SWAP1 PUSH2 0x1FA1 JUMP JUMPDEST PUSH1 0x20 PUSH1 0x40 MLOAD DUP1 DUP4 SUB DUP2 PUSH0 DUP8 GAS CALL ISZERO DUP1 ISZERO PUSH2 0x538 JUMPI RETURNDATASIZE PUSH0 DUP1 RETURNDATACOPY RETURNDATASIZE PUSH0 REVERT JUMPDEST POP POP POP POP PUSH1 0x40 MLOAD RETURNDATASIZE PUSH1 0x1F NOT PUSH1 0x1F DUP3 ADD AND DUP3 ADD DUP1 PUSH1 0x40 MSTORE POP DUP2 ADD SWAP1 PUSH2 0x55C SWAP2 SWAP1 PUSH2 0x1FC8 JUMP JUMPDEST PUSH2 0x59B JUMPI PUSH1 0x40 MLOAD PUSH32 0x8C379A000000000000000000000000000000000000000000000000000000000 DUP2 MSTORE PUSH1 0x4 ADD PUSH2 0x592 SWAP1 PUSH2 0x203D JUMP JUMPDEST PUSH1 0x40 MLOAD DUP1 SWAP2 SUB SWAP1 REVERT JUMPDEST DUP1 PUSH1 0x60 ADD MLOAD PUSH20 0xFFFFFFFFFFFFFFFFFFFFFFFFFFFFFFFFFFFFFFFF AND DUP2 PUSH0 ADD MLOAD PUSH20 0xFFFFFFFFFFFFFFFFFFFFFFFFFFFFFFFFFFFFFFFF AND PUSH32 0x702582EB4C57B40C07AB9B23E7F12C7CA5B88D2D2D327E5A7393800462F31F54 DUP4 PUSH1 0x20 ADD MLOAD DUP8 PUSH1 0x60 ADD MLOAD PUSH1 0x40 MLOAD PUSH2 0x609 SWAP3 SWAP2 SWAP1 PUSH2 0x206A JUMP JUMPDEST PUSH1 0x40 MLOAD DUP1 SWAP2 SUB SWAP1 LOG3 POP POP POP POP POP POP JUMP JUMPDEST PUSH0 PUSH32 0x7965DB0B00000000000000000000000000000000000000000000000000000000 PUSH28 0xFFFFFFFFFFFFFFFFFFFFFFFFFFFFFFFFFFFFFFFFFFFFFFFFFFFFFFFF NOT AND DUP3 PUSH28 0xFFFFFFFFFFFFFFFFFFFFFFFFFFFFFFFFFFFFFFFFFFFFFFFFFFFFFFFF NOT AND EQ DUP1 PUSH2 0x68B JUMPI POP PUSH2 0x68A DUP3 PUSH2 0x10CE JUMP JUMPDEST JUMPDEST SWAP1 POP SWAP2 SWAP1 POP JUMP JUMPDEST PUSH0 DUP1 PUSH0 DUP4 DUP2 MSTORE PUSH1 0x20 ADD SWAP1 DUP2 MSTORE PUSH1 0x20 ADD PUSH0 KECCAK256 PUSH1 0x1 ADD SLOAD SWAP1 POP SWAP2 SWAP1 POP JUMP JUMPDEST PUSH2 0x6B7 DUP3 PUSH2 0x692 JUMP JUMPDEST PUSH2 0x6C0 DUP2 PUSH2 0x1137 JUMP JUMPDEST PUSH2 0x6CA DUP4 DUP4 PUSH2 0x114B JUMP JUMPDEST POP POP POP POP JUMP JUMPDEST PUSH2 0x6D8 PUSH2 0x1234 JUMP JUMPDEST PUSH20 0xFFFFFFFFFFFFFFFFFFFFFFFFFFFFFFFFFFFFFFFF AND DUP2 PUSH20 0xFFFFFFFFFFFFFFFFFFFFFFFFFFFFFFFFFFFFFFFF AND EQ PUSH2 0x73C JUMPI PUSH1 0x40 MLOAD PUSH32 0x6697B23200000000000000000000000000000000000000000000000000000000 DUP2 MSTORE PUSH1 0x4 ADD PUSH1 0x40 MLOAD DUP1 SWAP2 SUB SWAP1 REVERT JUMPDEST PUSH2 0x746 DUP3 DUP3 PUSH2 0x123B JUMP JUMPDEST POP POP POP JUMP JUMPDEST PUSH32 0xA49807205CE4D355092EF5A8A18F56E8913CF4A201FBE287825B095693C21775 PUSH2 0x775 DUP2 PUSH2 0x1137 JUMP JUMPDEST PUSH2 0x77D PUSH2 0x1324 JUMP JUMPDEST POP JUMP JUMPDEST PUSH32 0xA49807205CE4D355092EF5A8A18F56E8913CF4A201FBE287825B095693C21775 PUSH2 0x7AA DUP2 PUSH2 0x1137 JUMP JUMPDEST PUSH0 PUSH20 0xFFFFFFFFFFFFFFFFFFFFFFFFFFFFFFFFFFFFFFFF AND DUP4 PUSH20 0xFFFFFFFFFFFFFFFFFFFFFFFFFFFFFFFFFFFFFFFF AND SUB PUSH2 0x818 JUMPI PUSH1 0x40 MLOAD PUSH32 0x8C379A000000000000000000000000000000000000000000000000000000000 DUP2 MSTORE PUSH1 0x4 ADD PUSH2 0x80F SWAP1 PUSH2 0x20DB JUMP JUMPDEST PUSH1 0x40 MLOAD DUP1 SWAP2 SUB SWAP1 REVERT JUMPDEST PUSH0 DUP4 PUSH20 0xFFFFFFFFFFFFFFFFFFFFFFFFFFFFFFFFFFFFFFFF AND DUP4 PUSH1 0x40 MLOAD PUSH2 0x83D SWAP1 PUSH2 0x2126 JUMP JUMPDEST PUSH0 PUSH1 0x40 MLOAD DUP1 DUP4 SUB DUP2 DUP6 DUP8 GAS CALL SWAP3 POP POP POP RETURNDATASIZE DUP1 PUSH0 DUP2 EQ PUSH2 0x877 JUMPI PUSH1 0x40 MLOAD SWAP2 POP PUSH1 0x1F NOT PUSH1 0x3F RETURNDATASIZE ADD AND DUP3 ADD PUSH1 0x40 MSTORE RETURNDATASIZE DUP3 MSTORE RETURNDATASIZE PUSH0 PUSH1 0x20 DUP5 ADD RETURNDATACOPY PUSH2 0x87C JUMP JUMPDEST PUSH1 0x60 SWAP2 POP JUMPDEST POP POP SWAP1 POP DUP1 PUSH2 0x8C0 JUMPI PUSH1 0x40 MLOAD PUSH32 0x8C379A000000000000000000000000000000000000000000000000000000000 DUP2 MSTORE PUSH1 0x4 ADD PUSH2 0x8B7 SWAP1 PUSH2 0x2184 JUMP JUMPDEST PUSH1 0x40 MLOAD DUP1 SWAP2 SUB SWAP1 REVERT JUMPDEST POP POP POP POP JUMP JUMPDEST PUSH1 0x1 DUP2 JUMP JUMPDEST PUSH0 PUSH1 0x1 PUSH0 SWAP1 SLOAD SWAP1 PUSH2 0x100 EXP SWAP1 DIV PUSH1 0xFF AND SWAP1 POP SWAP1 JUMP JUMPDEST PUSH32 0xA49807205CE4D355092EF5A8A18F56E8913CF4A201FBE287825B095693C21775 PUSH2 0x90A DUP2 PUSH2 0x1137 JUMP JUMPDEST PUSH0 PUSH20 0xFFFFFFFFFFFFFFFFFFFFFFFFFFFFFFFFFFFFFFFF AND DUP4 PUSH20 0xFFFFFFFFFFFFFFFFFFFFFFFFFFFFFFFFFFFFFFFF AND SUB PUSH2 0x978 JUMPI PUSH1 0x40 MLOAD PUSH32 0x8C379A000000000000000000000000000000000000000000000000000000000 DUP2 MSTORE PUSH1 0x4 ADD PUSH2 0x96F SWAP1 PUSH2 0x20DB JUMP JUMPDEST PUSH1 0x40 MLOAD DUP1 SWAP2 SUB SWAP1 REVERT JUMPDEST DUP4 PUSH20 0xFFFFFFFFFFFFFFFFFFFFFFFFFFFFFFFFFFFFFFFF AND PUSH4 0xA9059CBB DUP5 DUP5 PUSH1 0x40 MLOAD DUP4 PUSH4 0xFFFFFFFF AND PUSH1 0xE0 SHL DUP2 MSTORE PUSH1 0x4 ADD PUSH2 0x9B3 SWAP3 SWAP2 SWAP1 PUSH2 0x1FA1 JUMP JUMPDEST PUSH1 0x20 PUSH1 0x40 MLOAD DUP1 DUP4 SUB DUP2 PUSH0 DUP8 GAS CALL ISZERO DUP1 ISZERO PUSH2 0x9CF JUMPI RETURNDATASIZE PUSH0 DUP1 RETURNDATACOPY RETURNDATASIZE PUSH0 REVERT JUMPDEST POP POP POP POP PUSH1 0x40 MLOAD RETURNDATASIZE PUSH1 0x1F NOT PUSH1 0x1F DUP3 ADD AND DUP3 ADD DUP1 PUSH1 0x40 MSTORE POP DUP2 ADD SWAP1 PUSH2 0x9F3 SWAP2 SWAP1 PUSH2 0x1FC8 JUMP JUMPDEST PUSH2 0xA32 JUMPI PUSH1 0x40 MLOAD PUSH32 0x8C379A000000000000000000000000000000000000000000000000000000000 DUP2 MSTORE PUSH1 0x4 ADD PUSH2 0xA29 SWAP1 PUSH2 0x21EC JUMP JUMPDEST PUSH1 0x40 MLOAD DUP1 SWAP2 SUB SWAP1 REVERT JUMPDEST POP POP POP POP JUMP JUMPDEST PUSH32 0xA49807205CE4D355092EF5A8A18F56E8913CF4A201FBE287825B095693C21775 DUP2 JUMP JUMPDEST PUSH32 0xA49807205CE4D355092EF5A8A18F56E8913CF4A201FBE287825B095693C21775 PUSH2 0xA86 DUP2 PUSH2 0x1137 JUMP JUMPDEST PUSH2 0xA8E PUSH2 0x1385 JUMP JUMPDEST POP JUMP JUMPDEST PUSH32 0x0 DUP2 JUMP JUMPDEST PUSH0 DUP1 PUSH0 DUP5 DUP2 MSTORE PUSH1 0x20 ADD SWAP1 DUP2 MSTORE PUSH1 0x20 ADD PUSH0 KECCAK256 PUSH0 ADD PUSH0 DUP4 PUSH20 0xFFFFFFFFFFFFFFFFFFFFFFFFFFFFFFFFFFFFFFFF AND PUSH20 0xFFFFFFFFFFFFFFFFFFFFFFFFFFFFFFFFFFFFFFFF AND DUP2 MSTORE PUSH1 0x20 ADD SWAP1 DUP2 MSTORE PUSH1 0x20 ADD PUSH0 KECCAK256 PUSH0 SWAP1 SLOAD SWAP1 PUSH2 0x100 EXP SWAP1 DIV PUSH1 0xFF AND SWAP1 POP SWAP3 SWAP2 POP POP JUMP JUMPDEST PUSH0 DUP1 SHL DUP2 JUMP JUMPDEST PUSH2 0xB27 DUP3 PUSH2 0x692 JUMP JUMPDEST PUSH2 0xB30 DUP2 PUSH2 0x1137 JUMP JUMPDEST PUSH2 0xB3A DUP4 DUP4 PUSH2 0x123B JUMP JUMPDEST POP POP POP POP JUMP JUMPDEST PUSH2 0xB48 PUSH2 0x108D JUMP JUMPDEST PUSH0 DUP4 GT PUSH2 0xB8A JUMPI PUSH1 0x40 MLOAD PUSH32 0x8C379A000000000000000000000000000000000000000000000000000000000 DUP2 MSTORE PUSH1 0x4 ADD PUSH2 0xB81 SWAP1 PUSH2 0x2254 JUMP JUMPDEST PUSH1 0x40 MLOAD DUP1 SWAP2 SUB SWAP1 REVERT JUMPDEST PUSH0 PUSH20 0xFFFFFFFFFFFFFFFFFFFFFFFFFFFFFFFFFFFFFFFF AND DUP2 PUSH20 0xFFFFFFFFFFFFFFFFFFFFFFFFFFFFFFFFFFFFFFFF AND SUB PUSH2 0xBF8 JUMPI PUSH1 0x40 MLOAD PUSH32 0x8C379A000000000000000000000000000000000000000000000000000000000 DUP2 MSTORE PUSH1 0x4 ADD PUSH2 0xBEF SWAP1 PUSH2 0x22BC JUMP JUMPDEST PUSH1 0x40 MLOAD DUP1 SWAP2 SUB SWAP1 REVERT JUMPDEST DUP3 DUP5 PUSH20 0xFFFFFFFFFFFFFFFFFFFFFFFFFFFFFFFFFFFFFFFF AND PUSH4 0x70A08231 CALLER PUSH1 0x40 MLOAD DUP3 PUSH4 0xFFFFFFFF AND PUSH1 0xE0 SHL DUP2 MSTORE PUSH1 0x4 ADD PUSH2 0xC32 SWAP2 SWAP1 PUSH2 0x22DA JUMP JUMPDEST PUSH1 0x20 PUSH1 0x40 MLOAD DUP1 DUP4 SUB DUP2 DUP7 GAS STATICCALL ISZERO DUP1 ISZERO PUSH2 0xC4D JUMPI RETURNDATASIZE PUSH0 DUP1 RETURNDATACOPY RETURNDATASIZE PUSH0 REVERT JUMPDEST POP POP POP POP PUSH1 0x40 MLOAD RETURNDATASIZE PUSH1 0x1F NOT PUSH1 0x1F DUP3 ADD AND DUP3 ADD DUP1 PUSH1 0x40 MSTORE POP DUP2 ADD SWAP1 PUSH2 0xC71 SWAP2 SWAP1 PUSH2 0x22F3 JUMP JUMPDEST LT ISZERO PUSH2 0xCB2 JUMPI PUSH1 0x40 MLOAD PUSH32 0x8C379A000000000000000000000000000000000000000000000000000000000 DUP2 MSTORE PUSH1 0x4 ADD PUSH2 0xCA9 SWAP1 PUSH2 0x2368 JUMP JUMPDEST PUSH1 0x40 MLOAD DUP1 SWAP2 SUB SWAP1 REVERT JUMPDEST PUSH0 PUSH32 0x0 PUSH20 0xFFFFFFFFFFFFFFFFFFFFFFFFFFFFFFFFFFFFFFFF AND PUSH4 0x1A90A219 PUSH1 0x40 MLOAD DUP2 PUSH4 0xFFFFFFFF AND PUSH1 0xE0 SHL DUP2 MSTORE PUSH1 0x4 ADD PUSH1 0x20 PUSH1 0x40 MLOAD DUP1 DUP4 SUB DUP2 DUP7 GAS STATICCALL ISZERO DUP1 ISZERO PUSH2 0xD1C JUMPI RETURNDATASIZE PUSH0 DUP1 RETURNDATACOPY RETURNDATASIZE PUSH0 REVERT JUMPDEST POP POP POP POP PUSH1 0x40 MLOAD RETURNDATASIZE PUSH1 0x1F NOT PUSH1 0x1F DUP3 ADD AND DUP3 ADD DUP1 PUSH1 0x40 MSTORE POP DUP2 ADD SWAP1 PUSH2 0xD40 SWAP2 SWAP1 PUSH2 0x22F3 JUMP JUMPDEST SWAP1 POP DUP1 CALLVALUE LT ISZERO PUSH2 0xD85 JUMPI PUSH1 0x40 MLOAD PUSH32 0x8C379A000000000000000000000000000000000000000000000000000000000 DUP2 MSTORE PUSH1 0x4 ADD PUSH2 0xD7C SWAP1 PUSH2 0x23D0 JUMP JUMPDEST PUSH1 0x40 MLOAD DUP1 SWAP2 SUB SWAP1 REVERT JUMPDEST DUP5 PUSH20 0xFFFFFFFFFFFFFFFFFFFFFFFFFFFFFFFFFFFFFFFF AND PUSH4 0x23B872DD CALLER ADDRESS DUP8 PUSH1 0x40 MLOAD DUP5 PUSH4 0xFFFFFFFF AND PUSH1 0xE0 SHL DUP2 MSTORE PUSH1 0x4 ADD PUSH2 0xDC2 SWAP4 SWAP3 SWAP2 SWAP1 PUSH2 0x23EE JUMP JUMPDEST PUSH1 0x20 PUSH1 0x40 MLOAD DUP1 DUP4 SUB DUP2 PUSH0 DUP8 GAS CALL ISZERO DUP1 ISZERO PUSH2 0xDDE JUMPI RETURNDATASIZE PUSH0 DUP1 RETURNDATACOPY RETURNDATASIZE PUSH0 REVERT JUMPDEST POP POP POP POP PUSH1 0x40 MLOAD RETURNDATASIZE PUSH1 0x1F NOT PUSH1 0x1F DUP3 ADD AND DUP3 ADD DUP1 PUSH1 0x40 MSTORE POP DUP2 ADD SWAP1 PUSH2 0xE02 SWAP2 SWAP1 PUSH2 0x1FC8 JUMP JUMPDEST PUSH2 0xE41 JUMPI PUSH1 0x40 MLOAD PUSH32 0x8C379A000000000000000000000000000000000000000000000000000000000 DUP2 MSTORE PUSH1 0x4 ADD PUSH2 0xE38 SWAP1 PUSH2 0x21EC JUMP JUMPDEST PUSH1 0x40 MLOAD DUP1 SWAP2 SUB SWAP1 REVERT JUMPDEST PUSH0 PUSH1 0x40 MLOAD DUP1 PUSH1 0x80 ADD PUSH1 0x40 MSTORE DUP1 DUP8 PUSH20 0xFFFFFFFFFFFFFFFFFFFFFFFFFFFFFFFFFFFFFFFF AND DUP2 MSTORE PUSH1 0x20 ADD DUP7 DUP2 MSTORE PUSH1 0x20 ADD DUP6 PUSH2 0xFFFF AND DUP2 MSTORE PUSH1 0x20 ADD DUP5 PUSH20 0xFFFFFFFFFFFFFFFFFFFFFFFFFFFFFFFFFFFFFFFF AND DUP2 MSTORE POP SWAP1 POP PUSH0 PUSH32 0x0 PUSH20 0xFFFFFFFFFFFFFFFFFFFFFFFFFFFFFFFFFFFFFFFF AND PUSH4 0xB19A437E DUP5 PUSH0 DUP6 PUSH1 0x40 MLOAD PUSH1 0x20 ADD PUSH2 0xEE5 SWAP2 SWAP1 PUSH2 0x24A3 JUMP JUMPDEST PUSH1 0x40 MLOAD PUSH1 0x20 DUP2 DUP4 SUB SUB DUP2 MSTORE SWAP1 PUSH1 0x40 MSTORE PUSH1 0x1 PUSH1 0x40 MLOAD DUP6 PUSH4 0xFFFFFFFF AND PUSH1 0xE0 SHL DUP2 MSTORE PUSH1 0x4 ADD PUSH2 0xF14 SWAP4 SWAP3 SWAP2 SWAP1 PUSH2 0x2537 JUMP JUMPDEST PUSH1 0x20 PUSH1 0x40 MLOAD DUP1 DUP4 SUB DUP2 DUP6 DUP9 GAS CALL ISZERO DUP1 ISZERO PUSH2 0xF30 JUMPI RETURNDATASIZE PUSH0 DUP1 RETURNDATACOPY RETURNDATASIZE PUSH0 REVERT JUMPDEST POP POP POP POP POP PUSH1 0x40 MLOAD RETURNDATASIZE PUSH1 0x1F NOT PUSH1 0x1F DUP3 ADD AND DUP3 ADD DUP1 PUSH1 0x40 MSTORE POP DUP2 ADD SWAP1 PUSH2 0xF55 SWAP2 SWAP1 PUSH2 0x2573 JUMP JUMPDEST SWAP1 POP PUSH0 DUP4 CALLVALUE PUSH2 0xF64 SWAP2 SWAP1 PUSH2 0x25CB JUMP JUMPDEST SWAP1 POP PUSH0 DUP2 GT ISZERO PUSH2 0x1018 JUMPI PUSH0 CALLER PUSH20 0xFFFFFFFFFFFFFFFFFFFFFFFFFFFFFFFFFFFFFFFF AND DUP3 PUSH1 0x40 MLOAD PUSH2 0xF93 SWAP1 PUSH2 0x2126 JUMP JUMPDEST PUSH0 PUSH1 0x40 MLOAD DUP1 DUP4 SUB DUP2 DUP6 DUP8 GAS CALL SWAP3 POP POP POP RETURNDATASIZE DUP1 PUSH0 DUP2 EQ PUSH2 0xFCD JUMPI PUSH1 0x40 MLOAD SWAP2 POP PUSH1 0x1F NOT PUSH1 0x3F RETURNDATASIZE ADD AND DUP3 ADD PUSH1 0x40 MSTORE RETURNDATASIZE DUP3 MSTORE RETURNDATASIZE PUSH0 PUSH1 0x20 DUP5 ADD RETURNDATACOPY PUSH2 0xFD2 JUMP JUMPDEST PUSH1 0x60 SWAP2 POP JUMPDEST POP POP SWAP1 POP DUP1 PUSH2 0x1016 JUMPI PUSH1 0x40 MLOAD PUSH32 0x8C379A000000000000000000000000000000000000000000000000000000000 DUP2 MSTORE PUSH1 0x4 ADD PUSH2 0x100D SWAP1 PUSH2 0x2648 JUMP JUMPDEST PUSH1 0x40 MLOAD DUP1 SWAP2 SUB SWAP1 REVERT JUMPDEST POP JUMPDEST CALLER PUSH20 0xFFFFFFFFFFFFFFFFFFFFFFFFFFFFFFFFFFFFFFFF AND DUP9 PUSH20 0xFFFFFFFFFFFFFFFFFFFFFFFFFFFFFFFFFFFFFFFF AND PUSH32 0xE3396CC8C730543DFD529DBD56768C3609C96E76C19D9877CC0B0598FEA8AEAC DUP10 DUP10 DUP10 DUP8 PUSH1 0x40 MLOAD PUSH2 0x107B SWAP5 SWAP4 SWAP3 SWAP2 SWAP1 PUSH2 0x2675 JUMP JUMPDEST PUSH1 0x40 MLOAD DUP1 SWAP2 SUB SWAP1 LOG3 POP POP POP POP POP POP POP POP JUMP JUMPDEST PUSH2 0x1095 PUSH2 0x8CB JUMP JUMPDEST ISZERO PUSH2 0x10CC JUMPI PUSH1 0x40 MLOAD PUSH32 0xD93C066500000000000000000000000000000000000000000000000000000000 DUP2 MSTORE PUSH1 0x4 ADD PUSH1 0x40 MLOAD DUP1 SWAP2 SUB SWAP1 REVERT JUMPDEST JUMP JUMPDEST PUSH0 PUSH32 0x1FFC9A700000000000000000000000000000000000000000000000000000000 PUSH28 0xFFFFFFFFFFFFFFFFFFFFFFFFFFFFFFFFFFFFFFFFFFFFFFFFFFFFFFFF NOT AND DUP3 PUSH28 0xFFFFFFFFFFFFFFFFFFFFFFFFFFFFFFFFFFFFFFFFFFFFFFFFFFFFFFFF NOT AND EQ SWAP1 POP SWAP2 SWAP1 POP JUMP JUMPDEST PUSH2 0x1148 DUP2 PUSH2 0x1143 PUSH2 0x1234 JUMP JUMPDEST PUSH2 0x13E6 JUMP JUMPDEST POP JUMP JUMPDEST PUSH0 PUSH2 0x1156 DUP4 DUP4 PUSH2 0xAB5 JUMP JUMPDEST PUSH2 0x122A JUMPI PUSH1 0x1 PUSH0 DUP1 DUP6 DUP2 MSTORE PUSH1 0x20 ADD SWAP1 DUP2 MSTORE PUSH1 0x20 ADD PUSH0 KECCAK256 PUSH0 ADD PUSH0 DUP5 PUSH20 0xFFFFFFFFFFFFFFFFFFFFFFFFFFFFFFFFFFFFFFFF AND PUSH20 0xFFFFFFFFFFFFFFFFFFFFFFFFFFFFFFFFFFFFFFFF AND DUP2 MSTORE PUSH1 0x20 ADD SWAP1 DUP2 MSTORE PUSH1 0x20 ADD PUSH0 KECCAK256 PUSH0 PUSH2 0x100 EXP DUP2 SLOAD DUP2 PUSH1 0xFF MUL NOT AND SWAP1 DUP4 ISZERO ISZERO MUL OR SWAP1 SSTORE POP PUSH2 0x11C7 PUSH2 0x1234 JUMP JUMPDEST PUSH20 0xFFFFFFFFFFFFFFFFFFFFFFFFFFFFFFFFFFFFFFFF AND DUP3 PUSH20 0xFFFFFFFFFFFFFFFFFFFFFFFFFFFFFFFFFFFFFFFF AND DUP5 PUSH32 0x2F8788117E7EFF1D82E926EC794901D17C78024A50270940304540A733656F0D PUSH1 0x40 MLOAD PUSH1 0x40 MLOAD DUP1 SWAP2 SUB SWAP1 LOG4 PUSH1 0x1 SWAP1 POP PUSH2 0x122E JUMP JUMPDEST PUSH0 SWAP1 POP JUMPDEST SWAP3 SWAP2 POP POP JUMP JUMPDEST PUSH0 CALLER SWAP1 POP SWAP1 JUMP JUMPDEST PUSH0 PUSH2 0x1246 DUP4 DUP4 PUSH2 0xAB5 JUMP JUMPDEST ISZERO PUSH2 0x131A JUMPI PUSH0 DUP1 PUSH0 DUP6 DUP2 MSTORE PUSH1 0x20 ADD SWAP1 DUP2 MSTORE PUSH1 0x20 ADD PUSH0 KECCAK256 PUSH0 ADD PUSH0 DUP5 PUSH20 0xFFFFFFFFFFFFFFFFFFFFFFFFFFFFFFFFFFFFFFFF AND PUSH20 0xFFFFFFFFFFFFFFFFFFFFFFFFFFFFFFFFFFFFFFFF AND DUP2 MSTORE PUSH1 0x20 ADD SWAP1 DUP2 MSTORE PUSH1 0x20 ADD PUSH0 KECCAK256 PUSH0 PUSH2 0x100 EXP DUP2 SLOAD DUP2 PUSH1 0xFF MUL NOT AND SWAP1 DUP4 ISZERO ISZERO MUL OR SWAP1 SSTORE POP PUSH2 0x12B7 PUSH2 0x1234 JUMP JUMPDEST PUSH20 0xFFFFFFFFFFFFFFFFFFFFFFFFFFFFFFFFFFFFFFFF AND DUP3 PUSH20 0xFFFFFFFFFFFFFFFFFFFFFFFFFFFFFFFFFFFFFFFF AND DUP5 PUSH32 0xF6391F5C32D9C69D2A47EA670B442974B53935D1EDC7FD64EB21E047A839171B PUSH1 0x40 MLOAD PUSH1 0x40 MLOAD DUP1 SWAP2 SUB SWAP1 LOG4 PUSH1 0x1 SWAP1 POP PUSH2 0x131E JUMP JUMPDEST PUSH0 SWAP1 POP JUMPDEST SWAP3 SWAP2 POP POP JUMP JUMPDEST PUSH2 0x132C PUSH2 0x1437 JUMP JUMPDEST PUSH0 PUSH1 0x1 PUSH0 PUSH2 0x100 EXP DUP2 SLOAD DUP2 PUSH1 0xFF MUL NOT AND SWAP1 DUP4 ISZERO ISZERO MUL OR SWAP1 SSTORE POP PUSH32 0x5DB9EE0A495BF2E6FF9C91A7834C1BA4FDD244A5E8AA4E537BD38AEAE4B073AA PUSH2 0x136E PUSH2 0x1234 JUMP JUMPDEST PUSH1 0x40 MLOAD PUSH2 0x137B SWAP2 SWAP1 PUSH2 0x22DA JUMP JUMPDEST PUSH1 0x40 MLOAD DUP1 SWAP2 SUB SWAP1 LOG1 JUMP JUMPDEST PUSH2 0x138D PUSH2 0x108D JUMP JUMPDEST PUSH1 0x1 DUP1 PUSH0 PUSH2 0x100 EXP DUP2 SLOAD DUP2 PUSH1 0xFF MUL NOT AND SWAP1 DUP4 ISZERO ISZERO MUL OR SWAP1 SSTORE POP PUSH32 0x62E78CEA01BEE320CD4E420270B5EA74000D11B0C9F74754EBDBFC544B05A258 PUSH2 0x13CF PUSH2 0x1234 JUMP JUMPDEST PUSH1 0x40 MLOAD PUSH2 0x13DC SWAP2 SWAP1 PUSH2 0x22DA JUMP JUMPDEST PUSH1 0x40 MLOAD DUP1 SWAP2 SUB SWAP1 LOG1 JUMP JUMPDEST PUSH2 0x13F0 DUP3 DUP3 PUSH2 0xAB5 JUMP JUMPDEST PUSH2 0x1433 JUMPI DUP1 DUP3 PUSH1 0x40 MLOAD PUSH32 0xE2517D3F00000000000000000000000000000000000000000000000000000000 DUP2 MSTORE PUSH1 0x4 ADD PUSH2 0x142A SWAP3 SWAP2 SWAP1 PUSH2 0x26B8 JUMP JUMPDEST PUSH1 0x40 MLOAD DUP1 SWAP2 SUB SWAP1 REVERT JUMPDEST POP POP JUMP JUMPDEST PUSH2 0x143F PUSH2 0x8CB JUMP JUMPDEST PUSH2 0x1475 JUMPI PUSH1 0x40 MLOAD PUSH32 0x8DFC202B00000000000000000000000000000000000000000000000000000000 DUP2 MSTORE PUSH1 0x4 ADD PUSH1 0x40 MLOAD DUP1 SWAP2 SUB SWAP1 REVERT JUMPDEST JUMP JUMPDEST PUSH0 PUSH1 0x40 MLOAD SWAP1 POP SWAP1 JUMP JUMPDEST PUSH0 DUP1 REVERT JUMPDEST PUSH0 DUP1 REVERT JUMPDEST PUSH0 DUP1 REVERT JUMPDEST PUSH0 DUP1 REVERT JUMPDEST PUSH0 DUP1 REVERT JUMPDEST PUSH0 DUP1 DUP4 PUSH1 0x1F DUP5 ADD SLT PUSH2 0x14A9 JUMPI PUSH2 0x14A8 PUSH2 0x1488 JUMP JUMPDEST JUMPDEST DUP3 CALLDATALOAD SWAP1 POP PUSH8 0xFFFFFFFFFFFFFFFF DUP2 GT ISZERO PUSH2 0x14C6 JUMPI PUSH2 0x14C5 PUSH2 0x148C JUMP JUMPDEST JUMPDEST PUSH1 0x20 DUP4 ADD SWAP2 POP DUP4 PUSH1 0x1 DUP3 MUL DUP4 ADD GT ISZERO PUSH2 0x14E2 JUMPI PUSH2 0x14E1 PUSH2 0x1490 JUMP JUMPDEST JUMPDEST SWAP3 POP SWAP3 SWAP1 POP JUMP JUMPDEST PUSH0 DUP1 PUSH1 0x20 DUP4 DUP6 SUB SLT ISZERO PUSH2 0x14FF JUMPI PUSH2 0x14FE PUSH2 0x1480 JUMP JUMPDEST JUMPDEST PUSH0 DUP4 ADD CALLDATALOAD PUSH8 0xFFFFFFFFFFFFFFFF DUP2 GT ISZERO PUSH2 0x151C JUMPI PUSH2 0x151B PUSH2 0x1484 JUMP JUMPDEST JUMPDEST PUSH2 0x1528 DUP6 DUP3 DUP7 ADD PUSH2 0x1494 JUMP JUMPDEST SWAP3 POP SWAP3 POP POP SWAP3 POP SWAP3 SWAP1 POP JUMP JUMPDEST PUSH0 PUSH32 0xFFFFFFFF00000000000000000000000000000000000000000000000000000000 DUP3 AND SWAP1 POP SWAP2 SWAP1 POP JUMP JUMPDEST PUSH2 0x1568 DUP2 PUSH2 0x1534 JUMP JUMPDEST DUP2 EQ PUSH2 0x1572 JUMPI PUSH0 DUP1 REVERT JUMPDEST POP JUMP JUMPDEST PUSH0 DUP2 CALLDATALOAD SWAP1 POP PUSH2 0x1583 DUP2 PUSH2 0x155F JUMP JUMPDEST SWAP3 SWAP2 POP POP JUMP JUMPDEST PUSH0 PUSH1 0x20 DUP3 DUP5 SUB SLT ISZERO PUSH2 0x159E JUMPI PUSH2 0x159D PUSH2 0x1480 JUMP JUMPDEST JUMPDEST PUSH0 PUSH2 0x15AB DUP5 DUP3 DUP6 ADD PUSH2 0x1575 JUMP JUMPDEST SWAP2 POP POP SWAP3 SWAP2 POP POP JUMP JUMPDEST PUSH0 DUP2 ISZERO ISZERO SWAP1 POP SWAP2 SWAP1 POP JUMP JUMPDEST PUSH2 0x15C8 DUP2 PUSH2 0x15B4 JUMP JUMPDEST DUP3 MSTORE POP POP JUMP JUMPDEST PUSH0 PUSH1 0x20 DUP3 ADD SWAP1 POP PUSH2 0x15E1 PUSH0 DUP4 ADD DUP5 PUSH2 0x15BF JUMP JUMPDEST SWAP3 SWAP2 POP POP JUMP JUMPDEST PUSH0 DUP2 SWAP1 POP SWAP2 SWAP1 POP JUMP JUMPDEST PUSH2 0x15F9 DUP2 PUSH2 0x15E7 JUMP JUMPDEST DUP2 EQ PUSH2 0x1603 JUMPI PUSH0 DUP1 REVERT JUMPDEST POP JUMP JUMPDEST PUSH0 DUP2 CALLDATALOAD SWAP1 POP PUSH2 0x1614 DUP2 PUSH2 0x15F0 JUMP JUMPDEST SWAP3 SWAP2 POP POP JUMP JUMPDEST PUSH0 PUSH1 0x20 DUP3 DUP5 SUB SLT ISZERO PUSH2 0x162F JUMPI PUSH2 0x162E PUSH2 0x1480 JUMP JUMPDEST JUMPDEST PUSH0 PUSH2 0x163C DUP5 DUP3 DUP6 ADD PUSH2 0x1606 JUMP JUMPDEST SWAP2 POP POP SWAP3 SWAP2 POP POP JUMP JUMPDEST PUSH2 0x164E DUP2 PUSH2 0x15E7 JUMP JUMPDEST DUP3 MSTORE POP POP JUMP JUMPDEST PUSH0 PUSH1 0x20 DUP3 ADD SWAP1 POP PUSH2 0x1667 PUSH0 DUP4 ADD DUP5 PUSH2 0x1645 JUMP JUMPDEST SWAP3 SWAP2 POP POP JUMP JUMPDEST PUSH0 PUSH20 0xFFFFFFFFFFFFFFFFFFFFFFFFFFFFFFFFFFFFFFFF DUP3 AND SWAP1 POP SWAP2 SWAP1 POP JUMP JUMPDEST PUSH0 PUSH2 0x1696 DUP3 PUSH2 0x166D JUMP JUMPDEST SWAP1 POP SWAP2 SWAP1 POP JUMP JUMPDEST PUSH2 0x16A6 DUP2 PUSH2 0x168C JUMP JUMPDEST DUP2 EQ PUSH2 0x16B0 JUMPI PUSH0 DUP1 REVERT JUMPDEST POP JUMP JUMPDEST PUSH0 DUP2 CALLDATALOAD SWAP1 POP PUSH2 0x16C1 DUP2 PUSH2 0x169D JUMP JUMPDEST SWAP3 SWAP2 POP POP JUMP JUMPDEST PUSH0 DUP1 PUSH1 0x40 DUP4 DUP6 SUB SLT ISZERO PUSH2 0x16DD JUMPI PUSH2 0x16DC PUSH2 0x1480 JUMP JUMPDEST JUMPDEST PUSH0 PUSH2 0x16EA DUP6 DUP3 DUP7 ADD PUSH2 0x1606 JUMP JUMPDEST SWAP3 POP POP PUSH1 0x20 PUSH2 0x16FB DUP6 DUP3 DUP7 ADD PUSH2 0x16B3 JUMP JUMPDEST SWAP2 POP POP SWAP3 POP SWAP3 SWAP1 POP JUMP JUMPDEST PUSH0 PUSH2 0x170F DUP3 PUSH2 0x166D JUMP JUMPDEST SWAP1 POP SWAP2 SWAP1 POP JUMP JUMPDEST PUSH2 0x171F DUP2 PUSH2 0x1705 JUMP JUMPDEST DUP2 EQ PUSH2 0x1729 JUMPI PUSH0 DUP1 REVERT JUMPDEST POP JUMP JUMPDEST PUSH0 DUP2 CALLDATALOAD SWAP1 POP PUSH2 0x173A DUP2 PUSH2 0x1716 JUMP JUMPDEST SWAP3 SWAP2 POP POP JUMP JUMPDEST PUSH0 DUP2 SWAP1 POP SWAP2 SWAP1 POP JUMP JUMPDEST PUSH2 0x1752 DUP2 PUSH2 0x1740 JUMP JUMPDEST DUP2 EQ PUSH2 0x175C JUMPI PUSH0 DUP1 REVERT JUMPDEST POP JUMP JUMPDEST PUSH0 DUP2 CALLDATALOAD SWAP1 POP PUSH2 0x176D DUP2 PUSH2 0x1749 JUMP JUMPDEST SWAP3 SWAP2 POP POP JUMP JUMPDEST PUSH0 DUP1 PUSH1 0x40 DUP4 DUP6 SUB SLT ISZERO PUSH2 0x1789 JUMPI PUSH2 0x1788 PUSH2 0x1480 JUMP JUMPDEST JUMPDEST PUSH0 PUSH2 0x1796 DUP6 DUP3 DUP7 ADD PUSH2 0x172C JUMP JUMPDEST SWAP3 POP POP PUSH1 0x20 PUSH2 0x17A7 DUP6 DUP3 DUP7 ADD PUSH2 0x175F JUMP JUMPDEST SWAP2 POP POP SWAP3 POP SWAP3 SWAP1 POP JUMP JUMPDEST PUSH0 PUSH1 0xFF DUP3 AND SWAP1 POP SWAP2 SWAP1 POP JUMP JUMPDEST PUSH2 0x17C6 DUP2 PUSH2 0x17B1 JUMP JUMPDEST DUP3 MSTORE POP POP JUMP JUMPDEST PUSH0 PUSH1 0x20 DUP3 ADD SWAP1 POP PUSH2 0x17DF PUSH0 DUP4 ADD DUP5 PUSH2 0x17BD JUMP JUMPDEST SWAP3 SWAP2 POP POP JUMP JUMPDEST PUSH0 DUP1 PUSH0 PUSH1 0x60 DUP5 DUP7 SUB SLT ISZERO PUSH2 0x17FC JUMPI PUSH2 0x17FB PUSH2 0x1480 JUMP JUMPDEST JUMPDEST PUSH0 PUSH2 0x1809 DUP7 DUP3 DUP8 ADD PUSH2 0x16B3 JUMP JUMPDEST SWAP4 POP POP PUSH1 0x20 PUSH2 0x181A DUP7 DUP3 DUP8 ADD PUSH2 0x16B3 JUMP JUMPDEST SWAP3 POP POP PUSH1 0x40 PUSH2 0x182B DUP7 DUP3 DUP8 ADD PUSH2 0x175F JUMP JUMPDEST SWAP2 POP POP SWAP3 POP SWAP3 POP SWAP3 JUMP JUMPDEST PUSH0 DUP2 SWAP1 POP SWAP2 SWAP1 POP JUMP JUMPDEST PUSH0 PUSH2 0x1858 PUSH2 0x1853 PUSH2 0x184E DUP5 PUSH2 0x166D JUMP JUMPDEST PUSH2 0x1835 JUMP JUMPDEST PUSH2 0x166D JUMP JUMPDEST SWAP1 POP SWAP2 SWAP1 POP JUMP JUMPDEST PUSH0 PUSH2 0x1869 DUP3 PUSH2 0x183E JUMP JUMPDEST SWAP1 POP SWAP2 SWAP1 POP JUMP JUMPDEST PUSH0 PUSH2 0x187A DUP3 PUSH2 0x185F JUMP JUMPDEST SWAP1 POP SWAP2 SWAP1 POP JUMP JUMPDEST PUSH2 0x188A DUP2 PUSH2 0x1870 JUMP JUMPDEST DUP3 MSTORE POP POP JUMP JUMPDEST PUSH0 PUSH1 0x20 DUP3 ADD SWAP1 POP PUSH2 0x18A3 PUSH0 DUP4 ADD DUP5 PUSH2 0x1881 JUMP JUMPDEST SWAP3 SWAP2 POP POP JUMP JUMPDEST PUSH0 PUSH2 0xFFFF DUP3 AND SWAP1 POP SWAP2 SWAP1 POP JUMP JUMPDEST PUSH2 0x18BF DUP2 PUSH2 0x18A9 JUMP JUMPDEST DUP2 EQ PUSH2 0x18C9 JUMPI PUSH0 DUP1 REVERT JUMPDEST POP JUMP JUMPDEST PUSH0 DUP2 CALLDATALOAD SWAP1 POP PUSH2 0x18DA DUP2 PUSH2 0x18B6 JUMP JUMPDEST SWAP3 SWAP2 POP POP JUMP JUMPDEST PUSH0 DUP1 PUSH0 DUP1 PUSH1 0x80 DUP6 DUP8 SUB SLT ISZERO PUSH2 0x18F8 JUMPI PUSH2 0x18F7 PUSH2 0x1480 JUMP JUMPDEST JUMPDEST PUSH0 PUSH2 0x1905 DUP8 DUP3 DUP9 ADD PUSH2 0x16B3 JUMP JUMPDEST SWAP5 POP POP PUSH1 0x20 PUSH2 0x1916 DUP8 DUP3 DUP9 ADD PUSH2 0x175F JUMP JUMPDEST SWAP4 POP POP PUSH1 0x40 PUSH2 0x1927 DUP8 DUP3 DUP9 ADD PUSH2 0x18CC JUMP JUMPDEST SWAP3 POP POP PUSH1 0x60 PUSH2 0x1938 DUP8 DUP3 DUP9 ADD PUSH2 0x16B3 JUMP JUMPDEST SWAP2 POP POP SWAP3 SWAP6 SWAP2 SWAP5 POP SWAP3 POP JUMP JUMPDEST PUSH0 DUP3 DUP3 MSTORE PUSH1 0x20 DUP3 ADD SWAP1 POP SWAP3 SWAP2 POP POP JUMP JUMPDEST DUP3 DUP2 DUP4 CALLDATACOPY PUSH0 DUP4 DUP4 ADD MSTORE POP POP POP JUMP JUMPDEST PUSH0 PUSH1 0x1F NOT PUSH1 0x1F DUP4 ADD AND SWAP1 POP SWAP2 SWAP1 POP JUMP JUMPDEST PUSH0 PUSH2 0x197D DUP4 DUP6 PUSH2 0x1944 JUMP JUMPDEST SWAP4 POP PUSH2 0x198A DUP4 DUP6 DUP5 PUSH2 0x1954 JUMP JUMPDEST PUSH2 0x1993 DUP4 PUSH2 0x1962 JUMP JUMPDEST DUP5 ADD SWAP1 POP SWAP4 SWAP3 POP POP POP JUMP JUMPDEST PUSH0 PUSH1 0x20 DUP3 ADD SWAP1 POP DUP2 DUP2 SUB PUSH0 DUP4 ADD MSTORE PUSH2 0x19B7 DUP2 DUP5 DUP7 PUSH2 0x1972 JUMP JUMPDEST SWAP1 POP SWAP4 SWAP3 POP POP POP JUMP JUMPDEST PUSH0 DUP1 REVERT JUMPDEST PUSH32 0x4E487B7100000000000000000000000000000000000000000000000000000000 PUSH0 MSTORE PUSH1 0x41 PUSH1 0x4 MSTORE PUSH1 0x24 PUSH0 REVERT JUMPDEST PUSH2 0x19FA DUP3 PUSH2 0x1962 JUMP JUMPDEST DUP2 ADD DUP2 DUP2 LT PUSH8 0xFFFFFFFFFFFFFFFF DUP3 GT OR ISZERO PUSH2 0x1A19 JUMPI PUSH2 0x1A18 PUSH2 0x19C4 JUMP JUMPDEST JUMPDEST DUP1 PUSH1 0x40 MSTORE POP POP POP JUMP JUMPDEST PUSH0 PUSH2 0x1A2B PUSH2 0x1477 JUMP JUMPDEST SWAP1 POP PUSH2 0x1A37 DUP3 DUP3 PUSH2 0x19F1 JUMP JUMPDEST SWAP2 SWAP1 POP JUMP JUMPDEST PUSH0 DUP1 REVERT JUMPDEST PUSH2 0x1A49 DUP2 PUSH2 0x17B1 JUMP JUMPDEST DUP2 EQ PUSH2 0x1A53 JUMPI PUSH0 DUP1 REVERT JUMPDEST POP JUMP JUMPDEST PUSH0 DUP2 MLOAD SWAP1 POP PUSH2 0x1A64 DUP2 PUSH2 0x1A40 JUMP JUMPDEST SWAP3 SWAP2 POP POP JUMP JUMPDEST PUSH0 PUSH4 0xFFFFFFFF DUP3 AND SWAP1 POP SWAP2 SWAP1 POP JUMP JUMPDEST PUSH2 0x1A82 DUP2 PUSH2 0x1A6A JUMP JUMPDEST DUP2 EQ PUSH2 0x1A8C JUMPI PUSH0 DUP1 REVERT JUMPDEST POP JUMP JUMPDEST PUSH0 DUP2 MLOAD SWAP1 POP PUSH2 0x1A9D DUP2 PUSH2 0x1A79 JUMP JUMPDEST SWAP3 SWAP2 POP POP JUMP JUMPDEST PUSH0 DUP2 MLOAD SWAP1 POP PUSH2 0x1AB1 DUP2 PUSH2 0x18B6 JUMP JUMPDEST SWAP3 SWAP2 POP POP JUMP JUMPDEST PUSH0 DUP2 MLOAD SWAP1 POP PUSH2 0x1AC5 DUP2 PUSH2 0x15F0 JUMP JUMPDEST SWAP3 SWAP2 POP POP JUMP JUMPDEST PUSH0 PUSH8 0xFFFFFFFFFFFFFFFF DUP3 AND SWAP1 POP SWAP2 SWAP1 POP JUMP JUMPDEST PUSH2 0x1AE7 DUP2 PUSH2 0x1ACB JUMP JUMPDEST DUP2 EQ PUSH2 0x1AF1 JUMPI PUSH0 DUP1 REVERT JUMPDEST POP JUMP JUMPDEST PUSH0 DUP2 MLOAD SWAP1 POP PUSH2 0x1B02 DUP2 PUSH2 0x1ADE JUMP JUMPDEST SWAP3 SWAP2 POP POP JUMP JUMPDEST PUSH0 DUP1 REVERT JUMPDEST PUSH0 PUSH8 0xFFFFFFFFFFFFFFFF DUP3 GT ISZERO PUSH2 0x1B26 JUMPI PUSH2 0x1B25 PUSH2 0x19C4 JUMP JUMPDEST JUMPDEST PUSH2 0x1B2F DUP3 PUSH2 0x1962 JUMP JUMPDEST SWAP1 POP PUSH1 0x20 DUP2 ADD SWAP1 POP SWAP2 SWAP1 POP JUMP JUMPDEST DUP3 DUP2 DUP4 MCOPY PUSH0 DUP4 DUP4 ADD MSTORE POP POP POP JUMP JUMPDEST PUSH0 PUSH2 0x1B5C PUSH2 0x1B57 DUP5 PUSH2 0x1B0C JUMP JUMPDEST PUSH2 0x1A22 JUMP JUMPDEST SWAP1 POP DUP3 DUP2 MSTORE PUSH1 0x20 DUP2 ADD DUP5 DUP5 DUP5 ADD GT ISZERO PUSH2 0x1B78 JUMPI PUSH2 0x1B77 PUSH2 0x1B08 JUMP JUMPDEST JUMPDEST PUSH2 0x1B83 DUP5 DUP3 DUP6 PUSH2 0x1B3C JUMP JUMPDEST POP SWAP4 SWAP3 POP POP POP JUMP JUMPDEST PUSH0 DUP3 PUSH1 0x1F DUP4 ADD SLT PUSH2 0x1B9F JUMPI PUSH2 0x1B9E PUSH2 0x1488 JUMP JUMPDEST JUMPDEST DUP2 MLOAD PUSH2 0x1BAF DUP5 DUP3 PUSH1 0x20 DUP7 ADD PUSH2 0x1B4A JUMP JUMPDEST SWAP2 POP POP SWAP3 SWAP2 POP POP JUMP JUMPDEST PUSH0 PUSH2 0x160 DUP3 DUP5 SUB SLT ISZERO PUSH2 0x1BCE JUMPI PUSH2 0x1BCD PUSH2 0x19C0 JUMP JUMPDEST JUMPDEST PUSH2 0x1BD9 PUSH2 0x160 PUSH2 0x1A22 JUMP JUMPDEST SWAP1 POP PUSH0 PUSH2 0x1BE8 DUP5 DUP3 DUP6 ADD PUSH2 0x1A56 JUMP JUMPDEST PUSH0 DUP4 ADD MSTORE POP PUSH1 0x20 PUSH2 0x1BFB DUP5 DUP3 DUP6 ADD PUSH2 0x1A8F JUMP JUMPDEST PUSH1 0x20 DUP4 ADD MSTORE POP PUSH1 0x40 PUSH2 0x1C0F DUP5 DUP3 DUP6 ADD PUSH2 0x1A8F JUMP JUMPDEST PUSH1 0x40 DUP4 ADD MSTORE POP PUSH1 0x60 PUSH2 0x1C23 DUP5 DUP3 DUP6 ADD PUSH2 0x1AA3 JUMP JUMPDEST PUSH1 0x60 DUP4 ADD MSTORE POP PUSH1 0x80 PUSH2 0x1C37 DUP5 DUP3 DUP6 ADD PUSH2 0x1AB7 JUMP JUMPDEST PUSH1 0x80 DUP4 ADD MSTORE POP PUSH1 0xA0 PUSH2 0x1C4B DUP5 DUP3 DUP6 ADD PUSH2 0x1AF4 JUMP JUMPDEST PUSH1 0xA0 DUP4 ADD MSTORE POP PUSH1 0xC0 PUSH2 0x1C5F DUP5 DUP3 DUP6 ADD PUSH2 0x1A56 JUMP JUMPDEST PUSH1 0xC0 DUP4 ADD MSTORE POP PUSH1 0xE0 DUP3 ADD MLOAD PUSH8 0xFFFFFFFFFFFFFFFF DUP2 GT ISZERO PUSH2 0x1C83 JUMPI PUSH2 0x1C82 PUSH2 0x1A3C JUMP JUMPDEST JUMPDEST PUSH2 0x1C8F DUP5 DUP3 DUP6 ADD PUSH2 0x1B8B JUMP JUMPDEST PUSH1 0xE0 DUP4 ADD MSTORE POP PUSH2 0x100 PUSH2 0x1CA4 DUP5 DUP3 DUP6 ADD PUSH2 0x1A8F JUMP JUMPDEST PUSH2 0x100 DUP4 ADD MSTORE POP PUSH2 0x120 DUP3 ADD MLOAD PUSH8 0xFFFFFFFFFFFFFFFF DUP2 GT ISZERO PUSH2 0x1CCA JUMPI PUSH2 0x1CC9 PUSH2 0x1A3C JUMP JUMPDEST JUMPDEST PUSH2 0x1CD6 DUP5 DUP3 DUP6 ADD PUSH2 0x1B8B JUMP JUMPDEST PUSH2 0x120 DUP4 ADD MSTORE POP PUSH2 0x140 PUSH2 0x1CEC DUP5 DUP3 DUP6 ADD PUSH2 0x1AB7 JUMP JUMPDEST PUSH2 0x140 DUP4 ADD MSTORE POP SWAP3 SWAP2 POP POP JUMP JUMPDEST PUSH2 0x1D02 DUP2 PUSH2 0x15B4 JUMP JUMPDEST DUP2 EQ PUSH2 0x1D0C JUMPI PUSH0 DUP1 REVERT JUMPDEST POP JUMP JUMPDEST PUSH0 DUP2 MLOAD SWAP1 POP PUSH2 0x1D1D DUP2 PUSH2 0x1CF9 JUMP JUMPDEST SWAP3 SWAP2 POP POP JUMP JUMPDEST PUSH0 PUSH8 0xFFFFFFFFFFFFFFFF DUP3 GT ISZERO PUSH2 0x1D3D JUMPI PUSH2 0x1D3C PUSH2 0x19C4 JUMP JUMPDEST JUMPDEST PUSH2 0x1D46 DUP3 PUSH2 0x1962 JUMP JUMPDEST SWAP1 POP PUSH1 0x20 DUP2 ADD SWAP1 POP SWAP2 SWAP1 POP JUMP JUMPDEST PUSH0 PUSH2 0x1D65 PUSH2 0x1D60 DUP5 PUSH2 0x1D23 JUMP JUMPDEST PUSH2 0x1A22 JUMP JUMPDEST SWAP1 POP DUP3 DUP2 MSTORE PUSH1 0x20 DUP2 ADD DUP5 DUP5 DUP5 ADD GT ISZERO PUSH2 0x1D81 JUMPI PUSH2 0x1D80 PUSH2 0x1B08 JUMP JUMPDEST JUMPDEST PUSH2 0x1D8C DUP5 DUP3 DUP6 PUSH2 0x1B3C JUMP JUMPDEST POP SWAP4 SWAP3 POP POP POP JUMP JUMPDEST PUSH0 DUP3 PUSH1 0x1F DUP4 ADD SLT PUSH2 0x1DA8 JUMPI PUSH2 0x1DA7 PUSH2 0x1488 JUMP JUMPDEST JUMPDEST DUP2 MLOAD PUSH2 0x1DB8 DUP5 DUP3 PUSH1 0x20 DUP7 ADD PUSH2 0x1D53 JUMP JUMPDEST SWAP2 POP POP SWAP3 SWAP2 POP POP JUMP JUMPDEST PUSH0 DUP1 PUSH0 PUSH1 0x60 DUP5 DUP7 SUB SLT ISZERO PUSH2 0x1DD8 JUMPI PUSH2 0x1DD7 PUSH2 0x1480 JUMP JUMPDEST JUMPDEST PUSH0 DUP5 ADD MLOAD PUSH8 0xFFFFFFFFFFFFFFFF DUP2 GT ISZERO PUSH2 0x1DF5 JUMPI PUSH2 0x1DF4 PUSH2 0x1484 JUMP JUMPDEST JUMPDEST PUSH2 0x1E01 DUP7 DUP3 DUP8 ADD PUSH2 0x1BB8 JUMP JUMPDEST SWAP4 POP POP PUSH1 0x20 PUSH2 0x1E12 DUP7 DUP3 DUP8 ADD PUSH2 0x1D0F JUMP JUMPDEST SWAP3 POP POP PUSH1 0x40 DUP5 ADD MLOAD PUSH8 0xFFFFFFFFFFFFFFFF DUP2 GT ISZERO PUSH2 0x1E33 JUMPI PUSH2 0x1E32 PUSH2 0x1484 JUMP JUMPDEST JUMPDEST PUSH2 0x1E3F DUP7 DUP3 DUP8 ADD PUSH2 0x1D94 JUMP JUMPDEST SWAP2 POP POP SWAP3 POP SWAP3 POP SWAP3 JUMP JUMPDEST PUSH0 DUP2 MLOAD SWAP1 POP SWAP2 SWAP1 POP JUMP JUMPDEST PUSH0 DUP3 DUP3 MSTORE PUSH1 0x20 DUP3 ADD SWAP1 POP SWAP3 SWAP2 POP POP JUMP JUMPDEST PUSH0 PUSH2 0x1E6D DUP3 PUSH2 0x1E49 JUMP JUMPDEST PUSH2 0x1E77 DUP2 DUP6 PUSH2 0x1E53 JUMP JUMPDEST SWAP4 POP PUSH2 0x1E87 DUP2 DUP6 PUSH1 0x20 DUP7 ADD PUSH2 0x1B3C JUMP JUMPDEST PUSH2 0x1E90 DUP2 PUSH2 0x1962 JUMP JUMPDEST DUP5 ADD SWAP2 POP POP SWAP3 SWAP2 POP POP JUMP JUMPDEST PUSH0 PUSH1 0x20 DUP3 ADD SWAP1 POP DUP2 DUP2 SUB PUSH0 DUP4 ADD MSTORE PUSH2 0x1EB3 DUP2 DUP5 PUSH2 0x1E63 JUMP JUMPDEST SWAP1 POP SWAP3 SWAP2 POP POP JUMP JUMPDEST PUSH0 DUP2 MLOAD SWAP1 POP PUSH2 0x1EC9 DUP2 PUSH2 0x169D JUMP JUMPDEST SWAP3 SWAP2 POP POP JUMP JUMPDEST PUSH0 DUP2 MLOAD SWAP1 POP PUSH2 0x1EDD DUP2 PUSH2 0x1749 JUMP JUMPDEST SWAP3 SWAP2 POP POP JUMP JUMPDEST PUSH0 PUSH1 0x80 DUP3 DUP5 SUB SLT ISZERO PUSH2 0x1EF8 JUMPI PUSH2 0x1EF7 PUSH2 0x19C0 JUMP JUMPDEST JUMPDEST PUSH2 0x1F02 PUSH1 0x80 PUSH2 0x1A22 JUMP JUMPDEST SWAP1 POP PUSH0 PUSH2 0x1F11 DUP5 DUP3 DUP6 ADD PUSH2 0x1EBB JUMP JUMPDEST PUSH0 DUP4 ADD MSTORE POP PUSH1 0x20 PUSH2 0x1F24 DUP5 DUP3 DUP6 ADD PUSH2 0x1ECF JUMP JUMPDEST PUSH1 0x20 DUP4 ADD MSTORE POP PUSH1 0x40 PUSH2 0x1F38 DUP5 DUP3 DUP6 ADD PUSH2 0x1AA3 JUMP JUMPDEST PUSH1 0x40 DUP4 ADD MSTORE POP PUSH1 0x60 PUSH2 0x1F4C DUP5 DUP3 DUP6 ADD PUSH2 0x1EBB JUMP JUMPDEST PUSH1 0x60 DUP4 ADD MSTORE POP SWAP3 SWAP2 POP POP JUMP JUMPDEST PUSH0 PUSH1 0x80 DUP3 DUP5 SUB SLT ISZERO PUSH2 0x1F6D JUMPI PUSH2 0x1F6C PUSH2 0x1480 JUMP JUMPDEST JUMPDEST PUSH0 PUSH2 0x1F7A DUP5 DUP3 DUP6 ADD PUSH2 0x1EE3 JUMP JUMPDEST SWAP2 POP POP SWAP3 SWAP2 POP POP JUMP JUMPDEST PUSH2 0x1F8C DUP2 PUSH2 0x168C JUMP JUMPDEST DUP3 MSTORE POP POP JUMP JUMPDEST PUSH2 0x1F9B DUP2 PUSH2 0x1740 JUMP JUMPDEST DUP3 MSTORE POP POP JUMP JUMPDEST PUSH0 PUSH1 0x40 DUP3 ADD SWAP1 POP PUSH2 0x1FB4 PUSH0 DUP4 ADD DUP6 PUSH2 0x1F83 JUMP JUMPDEST PUSH2 0x1FC1 PUSH1 0x20 DUP4 ADD DUP5 PUSH2 0x1F92 JUMP JUMPDEST SWAP4 SWAP3 POP POP POP JUMP JUMPDEST PUSH0 PUSH1 0x20 DUP3 DUP5 SUB SLT ISZERO PUSH2 0x1FDD JUMPI PUSH2 0x1FDC PUSH2 0x1480 JUMP JUMPDEST JUMPDEST PUSH0 PUSH2 0x1FEA DUP5 DUP3 DUP6 ADD PUSH2 0x1D0F JUMP JUMPDEST SWAP2 POP POP SWAP3 SWAP2 POP POP JUMP JUMPDEST PUSH32 0x546F6B656E207472616E73666572206661696C65640000000000000000000000 PUSH0 DUP3 ADD MSTORE POP JUMP JUMPDEST PUSH0 PUSH2 0x2027 PUSH1 0x15 DUP4 PUSH2 0x1E53 JUMP JUMPDEST SWAP2 POP PUSH2 0x2032 DUP3 PUSH2 0x1FF3 JUMP JUMPDEST PUSH1 0x20 DUP3 ADD SWAP1 POP SWAP2 SWAP1 POP JUMP JUMPDEST PUSH0 PUSH1 0x20 DUP3 ADD SWAP1 POP DUP2 DUP2 SUB PUSH0 DUP4 ADD MSTORE PUSH2 0x2054 DUP2 PUSH2 0x201B JUMP JUMPDEST SWAP1 POP SWAP2 SWAP1 POP JUMP JUMPDEST PUSH2 0x2064 DUP2 PUSH2 0x18A9 JUMP JUMPDEST DUP3 MSTORE POP POP JUMP JUMPDEST PUSH0 PUSH1 0x40 DUP3 ADD SWAP1 POP PUSH2 0x207D PUSH0 DUP4 ADD DUP6 PUSH2 0x1F92 JUMP JUMPDEST PUSH2 0x208A PUSH1 0x20 DUP4 ADD DUP5 PUSH2 0x205B JUMP JUMPDEST SWAP4 SWAP3 POP POP POP JUMP JUMPDEST PUSH32 0x496E76616C696420616464726573730000000000000000000000000000000000 PUSH0 DUP3 ADD MSTORE POP JUMP JUMPDEST PUSH0 PUSH2 0x20C5 PUSH1 0xF DUP4 PUSH2 0x1E53 JUMP JUMPDEST SWAP2 POP PUSH2 0x20D0 DUP3 PUSH2 0x2091 JUMP JUMPDEST PUSH1 0x20 DUP3 ADD SWAP1 POP SWAP2 SWAP1 POP JUMP JUMPDEST PUSH0 PUSH1 0x20 DUP3 ADD SWAP1 POP DUP2 DUP2 SUB PUSH0 DUP4 ADD MSTORE PUSH2 0x20F2 DUP2 PUSH2 0x20B9 JUMP JUMPDEST SWAP1 POP SWAP2 SWAP1 POP JUMP JUMPDEST PUSH0 DUP2 SWAP1 POP SWAP3 SWAP2 POP POP JUMP JUMPDEST POP JUMP JUMPDEST PUSH0 PUSH2 0x2111 PUSH0 DUP4 PUSH2 0x20F9 JUMP JUMPDEST SWAP2 POP PUSH2 0x211C DUP3 PUSH2 0x2103 JUMP JUMPDEST PUSH0 DUP3 ADD SWAP1 POP SWAP2 SWAP1 POP JUMP JUMPDEST PUSH0 PUSH2 0x2130 DUP3 PUSH2 0x2106 JUMP JUMPDEST SWAP2 POP DUP2 SWAP1 POP SWAP2 SWAP1 POP JUMP JUMPDEST PUSH32 0x455448207472616E73666572206661696C656400000000000000000000000000 PUSH0 DUP3 ADD MSTORE POP JUMP JUMPDEST PUSH0 PUSH2 0x216E PUSH1 0x13 DUP4 PUSH2 0x1E53 JUMP JUMPDEST SWAP2 POP PUSH2 0x2179 DUP3 PUSH2 0x213A JUMP JUMPDEST PUSH1 0x20 DUP3 ADD SWAP1 POP SWAP2 SWAP1 POP JUMP JUMPDEST PUSH0 PUSH1 0x20 DUP3 ADD SWAP1 POP DUP2 DUP2 SUB PUSH0 DUP4 ADD MSTORE PUSH2 0x219B DUP2 PUSH2 0x2162 JUMP JUMPDEST SWAP1 POP SWAP2 SWAP1 POP JUMP JUMPDEST PUSH32 0x5472616E73666572206661696C65640000000000000000000000000000000000 PUSH0 DUP3 ADD MSTORE POP JUMP JUMPDEST PUSH0 PUSH2 0x21D6 PUSH1 0xF DUP4 PUSH2 0x1E53 JUMP JUMPDEST SWAP2 POP PUSH2 0x21E1 DUP3 PUSH2 0x21A2 JUMP JUMPDEST PUSH1 0x20 DUP3 ADD SWAP1 POP SWAP2 SWAP1 POP JUMP JUMPDEST PUSH0 PUSH1 0x20 DUP3 ADD SWAP1 POP DUP2 DUP2 SUB PUSH0 DUP4 ADD MSTORE PUSH2 0x2203 DUP2 PUSH2 0x21CA JUMP JUMPDEST SWAP1 POP SWAP2 SWAP1 POP JUMP JUMPDEST PUSH32 0x416D6F756E74206D7573742062652067726561746572207468616E2030000000 PUSH0 DUP3 ADD MSTORE POP JUMP JUMPDEST PUSH0 PUSH2 0x223E PUSH1 0x1D DUP4 PUSH2 0x1E53 JUMP JUMPDEST SWAP2 POP PUSH2 0x2249 DUP3 PUSH2 0x220A JUMP JUMPDEST PUSH1 0x20 DUP3 ADD SWAP1 POP SWAP2 SWAP1 POP JUMP JUMPDEST PUSH0 PUSH1 0x20 DUP3 ADD SWAP1 POP DUP2 DUP2 SUB PUSH0 DUP4 ADD MSTORE PUSH2 0x226B DUP2 PUSH2 0x2232 JUMP JUMPDEST SWAP1 POP SWAP2 SWAP1 POP JUMP JUMPDEST PUSH32 0x496E76616C69642064657374696E6174696F6E20616464726573730000000000 PUSH0 DUP3 ADD MSTORE POP JUMP JUMPDEST PUSH0 PUSH2 0x22A6 PUSH1 0x1B DUP4 PUSH2 0x1E53 JUMP JUMPDEST SWAP2 POP PUSH2 0x22B1 DUP3 PUSH2 0x2272 JUMP JUMPDEST PUSH1 0x20 DUP3 ADD SWAP1 POP SWAP2 SWAP1 POP JUMP JUMPDEST PUSH0 PUSH1 0x20 DUP3 ADD SWAP1 POP DUP2 DUP2 SUB PUSH0 DUP4 ADD MSTORE PUSH2 0x22D3 DUP2 PUSH2 0x229A JUMP JUMPDEST SWAP1 POP SWAP2 SWAP1 POP JUMP JUMPDEST PUSH0 PUSH1 0x20 DUP3 ADD SWAP1 POP PUSH2 0x22ED PUSH0 DUP4 ADD DUP5 PUSH2 0x1F83 JUMP JUMPDEST SWAP3 SWAP2 POP POP JUMP JUMPDEST PUSH0 PUSH1 0x20 DUP3 DUP5 SUB SLT ISZERO PUSH2 0x2308 JUMPI PUSH2 0x2307 PUSH2 0x1480 JUMP JUMPDEST JUMPDEST PUSH0 PUSH2 0x2315 DUP5 DUP3 DUP6 ADD PUSH2 0x1ECF JUMP JUMPDEST SWAP2 POP POP SWAP3 SWAP2 POP POP JUMP JUMPDEST PUSH32 0x496E73756666696369656E742062616C616E6365000000000000000000000000 PUSH0 DUP3 ADD MSTORE POP JUMP JUMPDEST PUSH0 PUSH2 0x2352 PUSH1 0x14 DUP4 PUSH2 0x1E53 JUMP JUMPDEST SWAP2 POP PUSH2 0x235D DUP3 PUSH2 0x231E JUMP JUMPDEST PUSH1 0x20 DUP3 ADD SWAP1 POP SWAP2 SWAP1 POP JUMP JUMPDEST PUSH0 PUSH1 0x20 DUP3 ADD SWAP1 POP DUP2 DUP2 SUB PUSH0 DUP4 ADD MSTORE PUSH2 0x237F DUP2 PUSH2 0x2346 JUMP JUMPDEST SWAP1 POP SWAP2 SWAP1 POP JUMP JUMPDEST PUSH32 0x496E73756666696369656E7420576F726D686F6C652066656500000000000000 PUSH0 DUP3 ADD MSTORE POP JUMP JUMPDEST PUSH0 PUSH2 0x23BA PUSH1 0x19 DUP4 PUSH2 0x1E53 JUMP JUMPDEST SWAP2 POP PUSH2 0x23C5 DUP3 PUSH2 0x2386 JUMP JUMPDEST PUSH1 0x20 DUP3 ADD SWAP1 POP SWAP2 SWAP1 POP JUMP JUMPDEST PUSH0 PUSH1 0x20 DUP3 ADD SWAP1 POP DUP2 DUP2 SUB PUSH0 DUP4 ADD MSTORE PUSH2 0x23E7 DUP2 PUSH2 0x23AE JUMP JUMPDEST SWAP1 POP SWAP2 SWAP1 POP JUMP JUMPDEST PUSH0 PUSH1 0x60 DUP3 ADD SWAP1 POP PUSH2 0x2401 PUSH0 DUP4 ADD DUP7 PUSH2 0x1F83 JUMP JUMPDEST PUSH2 0x240E PUSH1 0x20 DUP4 ADD DUP6 PUSH2 0x1F83 JUMP JUMPDEST PUSH2 0x241B PUSH1 0x40 DUP4 ADD DUP5 PUSH2 0x1F92 JUMP JUMPDEST SWAP5 SWAP4 POP POP POP POP JUMP JUMPDEST PUSH2 0x242C DUP2 PUSH2 0x168C JUMP JUMPDEST DUP3 MSTORE POP POP JUMP JUMPDEST PUSH2 0x243B DUP2 PUSH2 0x1740 JUMP JUMPDEST DUP3 MSTORE POP POP JUMP JUMPDEST PUSH2 0x244A DUP2 PUSH2 0x18A9 JUMP JUMPDEST DUP3 MSTORE POP POP JUMP JUMPDEST PUSH1 0x80 DUP3 ADD PUSH0 DUP3 ADD MLOAD PUSH2 0x2464 PUSH0 DUP6 ADD DUP3 PUSH2 0x2423 JUMP JUMPDEST POP PUSH1 0x20 DUP3 ADD MLOAD PUSH2 0x2477 PUSH1 0x20 DUP6 ADD DUP3 PUSH2 0x2432 JUMP JUMPDEST POP PUSH1 0x40 DUP3 ADD MLOAD PUSH2 0x248A PUSH1 0x40 DUP6 ADD DUP3 PUSH2 0x2441 JUMP JUMPDEST POP PUSH1 0x60 DUP3 ADD MLOAD PUSH2 0x249D PUSH1 0x60 DUP6 ADD DUP3 PUSH2 0x2423 JUMP JUMPDEST POP POP POP POP JUMP JUMPDEST PUSH0 PUSH1 0x80 DUP3 ADD SWAP1 POP PUSH2 0x24B6 PUSH0 DUP4 ADD DUP5 PUSH2 0x2450 JUMP JUMPDEST SWAP3 SWAP2 POP POP JUMP JUMPDEST PUSH0 DUP2 SWAP1 POP SWAP2 SWAP1 POP JUMP JUMPDEST PUSH0 PUSH2 0x24DF PUSH2 0x24DA PUSH2 0x24D5 DUP5 PUSH2 0x24BC JUMP JUMPDEST PUSH2 0x1835 JUMP JUMPDEST PUSH2 0x1A6A JUMP JUMPDEST SWAP1 POP SWAP2 SWAP1 POP JUMP JUMPDEST PUSH2 0x24EF DUP2 PUSH2 0x24C5 JUMP JUMPDEST DUP3 MSTORE POP POP JUMP JUMPDEST PUSH0 DUP2 MLOAD SWAP1 POP SWAP2 SWAP1 POP JUMP JUMPDEST PUSH0 PUSH2 0x2509 DUP3 PUSH2 0x24F5 JUMP JUMPDEST PUSH2 0x2513 DUP2 DUP6 PUSH2 0x1944 JUMP JUMPDEST SWAP4 POP PUSH2 0x2523 DUP2 DUP6 PUSH1 0x20 DUP7 ADD PUSH2 0x1B3C JUMP JUMPDEST PUSH2 0x252C DUP2 PUSH2 0x1962 JUMP JUMPDEST DUP5 ADD SWAP2 POP POP SWAP3 SWAP2 POP POP JUMP JUMPDEST PUSH0 PUSH1 0x60 DUP3 ADD SWAP1 POP PUSH2 0x254A PUSH0 DUP4 ADD DUP7 PUSH2 0x24E6 JUMP JUMPDEST DUP2 DUP2 SUB PUSH1 0x20 DUP4 ADD MSTORE PUSH2 0x255C DUP2 DUP6 PUSH2 0x24FF JUMP JUMPDEST SWAP1 POP PUSH2 0x256B PUSH1 0x40 DUP4 ADD DUP5 PUSH2 0x17BD JUMP JUMPDEST SWAP5 SWAP4 POP POP POP POP JUMP JUMPDEST PUSH0 PUSH1 0x20 DUP3 DUP5 SUB SLT ISZERO PUSH2 0x2588 JUMPI PUSH2 0x2587 PUSH2 0x1480 JUMP JUMPDEST JUMPDEST PUSH0 PUSH2 0x2595 DUP5 DUP3 DUP6 ADD PUSH2 0x1AF4 JUMP JUMPDEST SWAP2 POP POP SWAP3 SWAP2 POP POP JUMP JUMPDEST PUSH32 0x4E487B7100000000000000000000000000000000000000000000000000000000 PUSH0 MSTORE PUSH1 0x11 PUSH1 0x4 MSTORE PUSH1 0x24 PUSH0 REVERT JUMPDEST PUSH0 PUSH2 0x25D5 DUP3 PUSH2 0x1740 JUMP JUMPDEST SWAP2 POP PUSH2 0x25E0 DUP4 PUSH2 0x1740 JUMP JUMPDEST SWAP3 POP DUP3 DUP3 SUB SWAP1 POP DUP2 DUP2 GT ISZERO PUSH2 0x25F8 JUMPI PUSH2 0x25F7 PUSH2 0x259E JUMP JUMPDEST JUMPDEST SWAP3 SWAP2 POP POP JUMP JUMPDEST PUSH32 0x46656520726566756E64206661696C6564000000000000000000000000000000 PUSH0 DUP3 ADD MSTORE POP JUMP JUMPDEST PUSH0 PUSH2 0x2632 PUSH1 0x11 DUP4 PUSH2 0x1E53 JUMP JUMPDEST SWAP2 POP PUSH2 0x263D DUP3 PUSH2 0x25FE JUMP JUMPDEST PUSH1 0x20 DUP3 ADD SWAP1 POP SWAP2 SWAP1 POP JUMP JUMPDEST PUSH0 PUSH1 0x20 DUP3 ADD SWAP1 POP DUP2 DUP2 SUB PUSH0 DUP4 ADD MSTORE PUSH2 0x265F DUP2 PUSH2 0x2626 JUMP JUMPDEST SWAP1 POP SWAP2 SWAP1 POP JUMP JUMPDEST PUSH2 0x266F DUP2 PUSH2 0x1ACB JUMP JUMPDEST DUP3 MSTORE POP POP JUMP JUMPDEST PUSH0 PUSH1 0x80 DUP3 ADD SWAP1 POP PUSH2 0x2688 PUSH0 DUP4 ADD DUP8 PUSH2 0x1F92 JUMP JUMPDEST PUSH2 0x2695 PUSH1 0x20 DUP4 ADD DUP7 PUSH2 0x205B JUMP JUMPDEST PUSH2 0x26A2 PUSH1 0x40 DUP4 ADD DUP6 PUSH2 0x1F83 JUMP JUMPDEST PUSH2 0x26AF PUSH1 0x60 DUP4 ADD DUP5 PUSH2 0x2666 JUMP JUMPDEST SWAP6 SWAP5 POP POP POP POP POP JUMP JUMPDEST PUSH0 PUSH1 0x40 DUP3 ADD SWAP1 POP PUSH2 0x26CB PUSH0 DUP4 ADD DUP6 PUSH2 0x1F83 JUMP JUMPDEST PUSH2 0x26D8 PUSH1 0x20 DUP4 ADD DUP5 PUSH2 0x1645 JUMP JUMPDEST SWAP4 SWAP3 POP POP POP JUMP INVALID LOG2 PUSH5 0x6970667358 0x22 SLT KECCAK256 PUSH19 0xD44376B29FE1B73BD379DE48EEB0F8738750D9 0xCE PUSH9 0xA3150287EB64705E2 PUSH3 0x64736F PUSH13 0x634300081A0033000000000000 "
		},
		"gasEstimates": {
			"creation": {
				"codeDepositCost": "2001000",
				"executionCost": "infinite",
				"totalCost": "infinite"
			},
			"external": {
				"ADMIN_ROLE()": "392",
				"CONSISTENCY_LEVEL()": "420",
				"DEFAULT_ADMIN_ROLE()": "396",
				"bridgeTokens(address,uint256,uint16,address)": "infinite",
				"getRoleAdmin(bytes32)": "infinite",
				"grantRole(bytes32,address)": "infinite",
				"hasRole(bytes32,address)": "3166",
				"pause()": "infinite",
				"paused()": "2496",
				"receiveTokens(bytes)": "infinite",
				"renounceRole(bytes32,address)": "infinite",
				"revokeRole(bytes32,address)": "infinite",
				"supportsInterface(bytes4)": "763",
				"unpause()": "infinite",
				"withdrawETH(address,uint256)": "infinite",
				"withdrawTokens(address,address,uint256)": "infinite",
				"wormhole()": "infinite"
			}
		},
		"methodIdentifiers": {
			"ADMIN_ROLE()": "75b238fc",
			"CONSISTENCY_LEVEL()": "4fd686c8",
			"DEFAULT_ADMIN_ROLE()": "a217fddf",
			"bridgeTokens(address,uint256,uint16,address)": "e9162e8f",
			"getRoleAdmin(bytes32)": "248a9ca3",
			"grantRole(bytes32,address)": "2f2ff15d",
			"hasRole(bytes32,address)": "91d14854",
			"pause()": "8456cb59",
			"paused()": "5c975abb",
			"receiveTokens(bytes)": "008a403e",
			"renounceRole(bytes32,address)": "36568abe",
			"revokeRole(bytes32,address)": "d547741f",
			"supportsInterface(bytes4)": "01ffc9a7",
			"unpause()": "3f4ba83a",
			"withdrawETH(address,uint256)": "4782f779",
			"withdrawTokens(address,address,uint256)": "5e35359e",
			"wormhole()": "84acd1bb"
		}
	},
	"abi": [
		{
			"inputs": [
				{
					"internalType": "address",
					"name": "_wormhole",
					"type": "address"
				}
			],
			"stateMutability": "nonpayable",
			"type": "constructor"
		},
		{
			"inputs": [],
			"name": "AccessControlBadConfirmation",
			"type": "error"
		},
		{
			"inputs": [
				{
					"internalType": "address",
					"name": "account",
					"type": "address"
				},
				{
					"internalType": "bytes32",
					"name": "neededRole",
					"type": "bytes32"
				}
			],
			"name": "AccessControlUnauthorizedAccount",
			"type": "error"
		},
		{
			"inputs": [],
			"name": "EnforcedPause",
			"type": "error"
		},
		{
			"inputs": [],
			"name": "ExpectedPause",
			"type": "error"
		},
		{
			"anonymous": false,
			"inputs": [
				{
					"indexed": false,
					"internalType": "address",
					"name": "account",
					"type": "address"
				}
			],
			"name": "Paused",
			"type": "event"
		},
		{
			"anonymous": false,
			"inputs": [
				{
					"indexed": true,
					"internalType": "bytes32",
					"name": "role",
					"type": "bytes32"
				},
				{
					"indexed": true,
					"internalType": "bytes32",
					"name": "previousAdminRole",
					"type": "bytes32"
				},
				{
					"indexed": true,
					"internalType": "bytes32",
					"name": "newAdminRole",
					"type": "bytes32"
				}
			],
			"name": "RoleAdminChanged",
			"type": "event"
		},
		{
			"anonymous": false,
			"inputs": [
				{
					"indexed": true,
					"internalType": "bytes32",
					"name": "role",
					"type": "bytes32"
				},
				{
					"indexed": true,
					"internalType": "address",
					"name": "account",
					"type": "address"
				},
				{
					"indexed": true,
					"internalType": "address",
					"name": "sender",
					"type": "address"
				}
			],
			"name": "RoleGranted",
			"type": "event"
		},
		{
			"anonymous": false,
			"inputs": [
				{
					"indexed": true,
					"internalType": "bytes32",
					"name": "role",
					"type": "bytes32"
				},
				{
					"indexed": true,
					"internalType": "address",
					"name": "account",
					"type": "address"
				},
				{
					"indexed": true,
					"internalType": "address",
					"name": "sender",
					"type": "address"
				}
			],
			"name": "RoleRevoked",
			"type": "event"
		},
		{
			"anonymous": false,
			"inputs": [
				{
					"indexed": true,
					"internalType": "address",
					"name": "token",
					"type": "address"
				},
				{
					"indexed": true,
					"internalType": "address",
					"name": "from",
					"type": "address"
				},
				{
					"indexed": false,
					"internalType": "uint256",
					"name": "amount",
					"type": "uint256"
				},
				{
					"indexed": false,
					"internalType": "uint16",
					"name": "destinationChainId",
					"type": "uint16"
				},
				{
					"indexed": false,
					"internalType": "address",
					"name": "destinationAddress",
					"type": "address"
				},
				{
					"indexed": false,
					"internalType": "uint64",
					"name": "sequence",
					"type": "uint64"
				}
			],
			"name": "TokensBridged",
			"type": "event"
		},
		{
			"anonymous": false,
			"inputs": [
				{
					"indexed": true,
					"internalType": "address",
					"name": "token",
					"type": "address"
				},
				{
					"indexed": true,
					"internalType": "address",
					"name": "recipient",
					"type": "address"
				},
				{
					"indexed": false,
					"internalType": "uint256",
					"name": "amount",
					"type": "uint256"
				},
				{
					"indexed": false,
					"internalType": "uint16",
					"name": "sourceChainId",
					"type": "uint16"
				}
			],
			"name": "TokensReceived",
			"type": "event"
		},
		{
			"anonymous": false,
			"inputs": [
				{
					"indexed": false,
					"internalType": "address",
					"name": "account",
					"type": "address"
				}
			],
			"name": "Unpaused",
			"type": "event"
		},
		{
			"inputs": [],
			"name": "ADMIN_ROLE",
			"outputs": [
				{
					"internalType": "bytes32",
					"name": "",
					"type": "bytes32"
				}
			],
			"stateMutability": "view",
			"type": "function"
		},
		{
			"inputs": [],
			"name": "CONSISTENCY_LEVEL",
			"outputs": [
				{
					"internalType": "uint8",
					"name": "",
					"type": "uint8"
				}
			],
			"stateMutability": "view",
			"type": "function"
		},
		{
			"inputs": [],
			"name": "DEFAULT_ADMIN_ROLE",
			"outputs": [
				{
					"internalType": "bytes32",
					"name": "",
					"type": "bytes32"
				}
			],
			"stateMutability": "view",
			"type": "function"
		},
		{
			"inputs": [
				{
					"internalType": "address",
					"name": "token",
					"type": "address"
				},
				{
					"internalType": "uint256",
					"name": "amount",
					"type": "uint256"
				},
				{
					"internalType": "uint16",
					"name": "destinationChainId",
					"type": "uint16"
				},
				{
					"internalType": "address",
					"name": "destinationAddress",
					"type": "address"
				}
			],
			"name": "bridgeTokens",
			"outputs": [],
			"stateMutability": "payable",
			"type": "function"
		},
		{
			"inputs": [
				{
					"internalType": "bytes32",
					"name": "role",
					"type": "bytes32"
				}
			],
			"name": "getRoleAdmin",
			"outputs": [
				{
					"internalType": "bytes32",
					"name": "",
					"type": "bytes32"
				}
			],
			"stateMutability": "view",
			"type": "function"
		},
		{
			"inputs": [
				{
					"internalType": "bytes32",
					"name": "role",
					"type": "bytes32"
				},
				{
					"internalType": "address",
					"name": "account",
					"type": "address"
				}
			],
			"name": "grantRole",
			"outputs": [],
			"stateMutability": "nonpayable",
			"type": "function"
		},
		{
			"inputs": [
				{
					"internalType": "bytes32",
					"name": "role",
					"type": "bytes32"
				},
				{
					"internalType": "address",
					"name": "account",
					"type": "address"
				}
			],
			"name": "hasRole",
			"outputs": [
				{
					"internalType": "bool",
					"name": "",
					"type": "bool"
				}
			],
			"stateMutability": "view",
			"type": "function"
		},
		{
			"inputs": [],
			"name": "pause",
			"outputs": [],
			"stateMutability": "nonpayable",
			"type": "function"
		},
		{
			"inputs": [],
			"name": "paused",
			"outputs": [
				{
					"internalType": "bool",
					"name": "",
					"type": "bool"
				}
			],
			"stateMutability": "view",
			"type": "function"
		},
		{
			"inputs": [
				{
					"internalType": "bytes",
					"name": "encodedVM",
					"type": "bytes"
				}
			],
			"name": "receiveTokens",
			"outputs": [],
			"stateMutability": "nonpayable",
			"type": "function"
		},
		{
			"inputs": [
				{
					"internalType": "bytes32",
					"name": "role",
					"type": "bytes32"
				},
				{
					"internalType": "address",
					"name": "callerConfirmation",
					"type": "address"
				}
			],
			"name": "renounceRole",
			"outputs": [],
			"stateMutability": "nonpayable",
			"type": "function"
		},
		{
			"inputs": [
				{
					"internalType": "bytes32",
					"name": "role",
					"type": "bytes32"
				},
				{
					"internalType": "address",
					"name": "account",
					"type": "address"
				}
			],
			"name": "revokeRole",
			"outputs": [],
			"stateMutability": "nonpayable",
			"type": "function"
		},
		{
			"inputs": [
				{
					"internalType": "bytes4",
					"name": "interfaceId",
					"type": "bytes4"
				}
			],
			"name": "supportsInterface",
			"outputs": [
				{
					"internalType": "bool",
					"name": "",
					"type": "bool"
				}
			],
			"stateMutability": "view",
			"type": "function"
		},
		{
			"inputs": [],
			"name": "unpause",
			"outputs": [],
			"stateMutability": "nonpayable",
			"type": "function"
		},
		{
			"inputs": [
				{
					"internalType": "address payable",
					"name": "to",
					"type": "address"
				},
				{
					"internalType": "uint256",
					"name": "amount",
					"type": "uint256"
				}
			],
			"name": "withdrawETH",
			"outputs": [],
			"stateMutability": "nonpayable",
			"type": "function"
		},
		{
			"inputs": [
				{
					"internalType": "address",
					"name": "token",
					"type": "address"
				},
				{
					"internalType": "address",
					"name": "to",
					"type": "address"
				},
				{
					"internalType": "uint256",
					"name": "amount",
					"type": "uint256"
				}
			],
			"name": "withdrawTokens",
			"outputs": [],
			"stateMutability": "nonpayable",
			"type": "function"
		},
		{
			"inputs": [],
			"name": "wormhole",
			"outputs": [
				{
					"internalType": "contract IWormhole",
					"name": "",
					"type": "address"
				}
			],
			"stateMutability": "view",
			"type": "function"
		},
		{
			"stateMutability": "payable",
			"type": "receive"
		}
	]
}