{
	"data": {
		"bytecode": {
			"linkReferences": {},
			"object": "6080604052348015600e575f80fd5b50613f288061001c5f395ff3fe608060405234801561000f575f80fd5b5060043610610034575f3560e01c806387d9d023146100385780639e8945d214610068575b5f80fd5b610052600480360381019061004d9190613dde565b610086565b60405161005f9190613ea8565b60405180910390f35b610070613788565b60405161007d9190613ed9565b60405180910390f35b5f61008f6137a8565b61374f565b7f08c379a0000000000000000000000000000000000000000000000000000000005f526020600452806024528160445260645ffd5b5f60205f5260208052602060405281606052826080527f30644e72e131a029b85045b68181585d2833e84879b9709143e1f593f000000160a05260205f60c05f60055afa61013d5761013c7f6d6f6465787020707265636f6d70696c65206661696c656400000000000000006018610094565b5b5f51905092915050565b80515f5260208101516020528160405260408360605f60075afa610191576101907f706f696e744d756c496e746f446573743a2065634d756c206661696c65640000601e610094565b5b505050565b80515f5260208101516020528151604052602082015160605260408360805f60065afa6101e9576101e87f706f696e74416464496e746f446573743a206563416464206661696c65640000601e610094565b5b505050565b80515f526020810151602052815160405260208201517f30644e72e131a029b85045b68181585d97816a916871ca8d3c208c16d87cfd470360605260408160805f60065afa610263576102627f706f696e7453756241737369676e3a206563416464206661696c656400000000601c610094565b5b5050565b80515f5260208101516020528151604052602082015160605260408160805f60065afa6102ba576102b97f706f696e7441646441737369676e3a206563416464206661696c656400000000601c610094565b5b5050565b80515f5260208101516020528160405260405f60605f60075afa8351604052602084015160605260408460805f60065afa8116905080610324576103237f706f696e744d756c416e64416464496e746f44657374000000000000000000006016610094565b5b50505050565b6020810151805f811461036457817f30644e72e131a029b85045b68181585d97816a916871ca8d3c208c16d87cfd47036020840152610398565b825115610397576103967f706f696e744e65676174653a20696e76616c696420706f696e74000000000000601a610094565b5b5b505050565b5f610d435380610d84526064610d40206001610d43536064610d402080610d645281610d4452505050565b5f6002610d43538160e01b610d84527f1fffffffffffffffffffffffffffffffffffffffffffffffffffffffffffffff6048610d4020169050919050565b6004356004810135600181147f1fffffffffffffffffffffffffffffffffffffffffffffffffffffffffffffff602484013516610720526024359250600483013581602c82141691507f30644e72e131a029b85045b68181585d97816a916871ca8d3c208c16d87cfd476024850135067f30644e72e131a029b85045b68181585d97816a916871ca8d3c208c16d87cfd476044860135067f30644e72e131a029b85045b68181585d97816a916871ca8d3c208c16d87cfd47828309847f30644e72e131a029b85045b68181585d97816a916871ca8d3c208c16d87cfd4760037f30644e72e131a029b85045b68181585d97816a916871ca8d3c208c16d87cfd47848709087f30644e72e131a029b85045b68181585d97816a916871ca8d3c208c16d87cfd4784850914169450826107405281610760525050507f30644e72e131a029b85045b68181585d97816a916871ca8d3c208c16d87cfd476064850135067f30644e72e131a029b85045b68181585d97816a916871ca8d3c208c16d87cfd476084860135067f30644e72e131a029b85045b68181585d97816a916871ca8d3c208c16d87cfd47828309847f30644e72e131a029b85045b68181585d97816a916871ca8d3c208c16d87cfd4760037f30644e72e131a029b85045b68181585d97816a916871ca8d3c208c16d87cfd47848709087f30644e72e131a029b85045b68181585d97816a916871ca8d3c208c16d87cfd47848509141694508261078052816107a0525050507f30644e72e131a029b85045b68181585d97816a916871ca8d3c208c16d87cfd4760a4850135067f30644e72e131a029b85045b68181585d97816a916871ca8d3c208c16d87cfd4760c4860135067f30644e72e131a029b85045b68181585d97816a916871ca8d3c208c16d87cfd47828309847f30644e72e131a029b85045b68181585d97816a916871ca8d3c208c16d87cfd4760037f30644e72e131a029b85045b68181585d97816a916871ca8d3c208c16d87cfd47848709087f30644e72e131a029b85045b68181585d97816a916871ca8d3c208c16d87cfd4784850914169450826107c052816107e0525050507f30644e72e131a029b85045b68181585d97816a916871ca8d3c208c16d87cfd4760e4850135067f30644e72e131a029b85045b68181585d97816a916871ca8d3c208c16d87cfd47610104860135067f30644e72e131a029b85045b68181585d97816a916871ca8d3c208c16d87cfd47828309847f30644e72e131a029b85045b68181585d97816a916871ca8d3c208c16d87cfd4760037f30644e72e131a029b85045b68181585d97816a916871ca8d3c208c16d87cfd47848709087f30644e72e131a029b85045b68181585d97816a916871ca8d3c208c16d87cfd4784850914169450826108005281610820525050507f30644e72e131a029b85045b68181585d97816a916871ca8d3c208c16d87cfd47610124850135067f30644e72e131a029b85045b68181585d97816a916871ca8d3c208c16d87cfd47610144860135067f30644e72e131a029b85045b68181585d97816a916871ca8d3c208c16d87cfd47828309847f30644e72e131a029b85045b68181585d97816a916871ca8d3c208c16d87cfd4760037f30644e72e131a029b85045b68181585d97816a916871ca8d3c208c16d87cfd47848709087f30644e72e131a029b85045b68181585d97816a916871ca8d3c208c16d87cfd4784850914169450826108405281610860525050507f30644e72e131a029b85045b68181585d97816a916871ca8d3c208c16d87cfd47610164850135067f30644e72e131a029b85045b68181585d97816a916871ca8d3c208c16d87cfd47610184860135067f30644e72e131a029b85045b68181585d97816a916871ca8d3c208c16d87cfd47828309847f30644e72e131a029b85045b68181585d97816a916871ca8d3c208c16d87cfd4760037f30644e72e131a029b85045b68181585d97816a916871ca8d3c208c16d87cfd47848709087f30644e72e131a029b85045b68181585d97816a916871ca8d3c208c16d87cfd47848509141694508261088052816108a0525050507f30644e72e131a029b85045b68181585d97816a916871ca8d3c208c16d87cfd476101a4850135067f30644e72e131a029b85045b68181585d97816a916871ca8d3c208c16d87cfd476101c4860135067f30644e72e131a029b85045b68181585d97816a916871ca8d3c208c16d87cfd47828309847f30644e72e131a029b85045b68181585d97816a916871ca8d3c208c16d87cfd4760037f30644e72e131a029b85045b68181585d97816a916871ca8d3c208c16d87cfd47848709087f30644e72e131a029b85045b68181585d97816a916871ca8d3c208c16d87cfd4784850914169450826108c052816108e0525050507f30644e72e131a029b85045b68181585d97816a916871ca8d3c208c16d87cfd476101e4850135067f30644e72e131a029b85045b68181585d97816a916871ca8d3c208c16d87cfd47610204860135067f30644e72e131a029b85045b68181585d97816a916871ca8d3c208c16d87cfd47828309847f30644e72e131a029b85045b68181585d97816a916871ca8d3c208c16d87cfd4760037f30644e72e131a029b85045b68181585d97816a916871ca8d3c208c16d87cfd47848709087f30644e72e131a029b85045b68181585d97816a916871ca8d3c208c16d87cfd4784850914169450826109005281610920525050507f30644e72e131a029b85045b68181585d97816a916871ca8d3c208c16d87cfd47610224850135067f30644e72e131a029b85045b68181585d97816a916871ca8d3c208c16d87cfd47610244860135067f30644e72e131a029b85045b68181585d97816a916871ca8d3c208c16d87cfd47828309847f30644e72e131a029b85045b68181585d97816a916871ca8d3c208c16d87cfd4760037f30644e72e131a029b85045b68181585d97816a916871ca8d3c208c16d87cfd47848709087f30644e72e131a029b85045b68181585d97816a916871ca8d3c208c16d87cfd4784850914169450826109405281610960525050507f30644e72e131a029b85045b68181585d97816a916871ca8d3c208c16d87cfd47610264850135067f30644e72e131a029b85045b68181585d97816a916871ca8d3c208c16d87cfd47610284860135067f30644e72e131a029b85045b68181585d97816a916871ca8d3c208c16d87cfd47828309847f30644e72e131a029b85045b68181585d97816a916871ca8d3c208c16d87cfd4760037f30644e72e131a029b85045b68181585d97816a916871ca8d3c208c16d87cfd47848709087f30644e72e131a029b85045b68181585d97816a916871ca8d3c208c16d87cfd47848509141694508261098052816109a0525050507f30644e72e131a029b85045b68181585d97816a916871ca8d3c208c16d87cfd476102a4850135067f30644e72e131a029b85045b68181585d97816a916871ca8d3c208c16d87cfd476102c4860135067f30644e72e131a029b85045b68181585d97816a916871ca8d3c208c16d87cfd47828309847f30644e72e131a029b85045b68181585d97816a916871ca8d3c208c16d87cfd4760037f30644e72e131a029b85045b68181585d97816a916871ca8d3c208c16d87cfd47848709087f30644e72e131a029b85045b68181585d97816a916871ca8d3c208c16d87cfd4784850914169450826109c052816109e0525050507f30644e72e131a029b85045b68181585d2833e84879b9709143e1f593f00000016102e485013506610a00527f30644e72e131a029b85045b68181585d2833e84879b9709143e1f593f000000161030485013506610a20527f30644e72e131a029b85045b68181585d2833e84879b9709143e1f593f000000161032485013506610a40527f30644e72e131a029b85045b68181585d2833e84879b9709143e1f593f000000161034485013506610a60527f30644e72e131a029b85045b68181585d2833e84879b9709143e1f593f000000161036485013506610a80527f30644e72e131a029b85045b68181585d2833e84879b9709143e1f593f000000161038485013506610aa0527f30644e72e131a029b85045b68181585d2833e84879b9709143e1f593f00000016103a485013506610ac0527f30644e72e131a029b85045b68181585d2833e84879b9709143e1f593f00000016103c485013506610ae0527f30644e72e131a029b85045b68181585d2833e84879b9709143e1f593f00000016103e485013506610b00527f30644e72e131a029b85045b68181585d2833e84879b9709143e1f593f000000161040485013506610b20527f30644e72e131a029b85045b68181585d2833e84879b9709143e1f593f000000161042485013506610b40527f30644e72e131a029b85045b68181585d2833e84879b9709143e1f593f000000161044485013506610b60527f30644e72e131a029b85045b68181585d2833e84879b9709143e1f593f000000161046485013506610b80527f30644e72e131a029b85045b68181585d2833e84879b9709143e1f593f000000161048485013506610ba0527f30644e72e131a029b85045b68181585d2833e84879b9709143e1f593f00000016104a485013506610bc0527f30644e72e131a029b85045b68181585d2833e84879b9709143e1f593f00000016104c485013506610be0527f30644e72e131a029b85045b68181585d2833e84879b9709143e1f593f00000016104e485013506610c00527f30644e72e131a029b85045b68181585d2833e84879b9709143e1f593f000000161050485013506610c20527f30644e72e131a029b85045b68181585d97816a916871ca8d3c208c16d87cfd47610524850135067f30644e72e131a029b85045b68181585d97816a916871ca8d3c208c16d87cfd47610544860135067f30644e72e131a029b85045b68181585d97816a916871ca8d3c208c16d87cfd47828309847f30644e72e131a029b85045b68181585d97816a916871ca8d3c208c16d87cfd4760037f30644e72e131a029b85045b68181585d97816a916871ca8d3c208c16d87cfd47848709087f30644e72e131a029b85045b68181585d97816a916871ca8d3c208c16d87cfd478485091416945082610c405281610c60525050507f30644e72e131a029b85045b68181585d97816a916871ca8d3c208c16d87cfd47610564850135067f30644e72e131a029b85045b68181585d97816a916871ca8d3c208c16d87cfd47610584860135067f30644e72e131a029b85045b68181585d97816a916871ca8d3c208c16d87cfd47828309847f30644e72e131a029b85045b68181585d97816a916871ca8d3c208c16d87cfd4760037f30644e72e131a029b85045b68181585d97816a916871ca8d3c208c16d87cfd47848709087f30644e72e131a029b85045b68181585d97816a916871ca8d3c208c16d87cfd478485091416945082610c805281610ca05250505060443593506004840135610700515f81146115ac5783600483141693507f30644e72e131a029b85045b68181585d97816a916871ca8d3c208c16d87cfd476024870135067f30644e72e131a029b85045b68181585d97816a916871ca8d3c208c16d87cfd476044880135067f30644e72e131a029b85045b68181585d97816a916871ca8d3c208c16d87cfd47828309867f30644e72e131a029b85045b68181585d97816a916871ca8d3c208c16d87cfd4760037f30644e72e131a029b85045b68181585d97816a916871ca8d3c208c16d87cfd47848709087f30644e72e131a029b85045b68181585d97816a916871ca8d3c208c16d87cfd478485091416965082610cc05281610ce0525050507f30644e72e131a029b85045b68181585d97816a916871ca8d3c208c16d87cfd476064870135067f30644e72e131a029b85045b68181585d97816a916871ca8d3c208c16d87cfd476084880135067f30644e72e131a029b85045b68181585d97816a916871ca8d3c208c16d87cfd47828309867f30644e72e131a029b85045b68181585d97816a916871ca8d3c208c16d87cfd4760037f30644e72e131a029b85045b68181585d97816a916871ca8d3c208c16d87cfd47848709087f30644e72e131a029b85045b68181585d97816a916871ca8d3c208c16d87cfd478485091416965082610d005281610d20525050506115b3565b8382151693505b50826115e5576115e47f6c6f616450726f6f663a2050726f6f6620697320696e76616c69640000000000601b610094565b5b5050505050565b6115f86107205161039d565b6116046107405161039d565b6116106107605161039d565b61161c6107805161039d565b6116286107a05161039d565b6116346107c05161039d565b6116406107e05161039d565b61164c6108005161039d565b6116586108205161039d565b6116615f6103c8565b610f00526116716108805161039d565b61167d6108a05161039d565b61168760016103c8565b610de05261169560026103c8565b610e00526116a56108405161039d565b6116b16108605161039d565b6116bb60036103c8565b610f20526116c960046103c8565b610f40526116d96108c05161039d565b6116e56108e05161039d565b6116ef60056103c8565b610dc0526116ff6109005161039d565b61170b6109205161039d565b6117176109405161039d565b6117236109605161039d565b61172f6109805161039d565b61173b6109a05161039d565b6117476109c05161039d565b6117536109e05161039d565b61175d60066103c8565b80610fe0526117706304000000826100c9565b6110605250611781610c005161039d565b61178d610a005161039d565b611799610a205161039d565b6117a5610a405161039d565b6117b1610a605161039d565b6117bd610a805161039d565b6117c9610aa05161039d565b6117d5610ac05161039d565b6117e1610ae05161039d565b6117ed610b005161039d565b6117f9610b205161039d565b611805610b805161039d565b611811610bc05161039d565b61181d610be05161039d565b611829610b405161039d565b611835610b605161039d565b611841610ba05161039d565b61184d610c205161039d565b61185760076103c8565b610fa052611867610c405161039d565b611873610c605161039d565b61187f610c805161039d565b61188b610ca05161039d565b61189560086103c8565b610fc052565b610dc0517f30644e72e131a029b85045b68181585d2833e84879b9709143e1f593f000000181820980610e20527f30644e72e131a029b85045b68181585d2833e84879b9709143e1f593f0000001828209905080610e40527f30644e72e131a029b85045b68181585d2833e84879b9709143e1f593f0000001828209905080610e60527f30644e72e131a029b85045b68181585d2833e84879b9709143e1f593f0000001828209905080610e80527f30644e72e131a029b85045b68181585d2833e84879b9709143e1f593f0000001828209905080610ea0527f30644e72e131a029b85045b68181585d2833e84879b9709143e1f593f0000001828209905080610ec0527f30644e72e131a029b85045b68181585d2833e84879b9709143e1f593f0000001828209905080610ee0525050610fe0516119da815f611b72565b611020526119ef816001630400000003611b72565b611040527f30644e72e131a029b85045b68181585d2833e84879b9709143e1f593f00000016107205161102051097f30644e72e131a029b85045b68181585d2833e84879b9709143e1f593f0000001610aa05182097f30644e72e131a029b85045b68181585d2833e84879b9709143e1f593f0000001611a6d611d22565b820890507f30644e72e131a029b85045b68181585d2833e84879b9709143e1f593f0000001611a9a611fff565b820890507f30644e72e131a029b85045b68181585d2833e84879b9709143e1f593f000000181610c20510890507f30644e72e131a029b85045b68181585d2833e84879b9709143e1f593f000000160017f30644e72e131a029b85045b68181585d2833e84879b9709143e1f593f00000010361106051087f30644e72e131a029b85045b68181585d2833e84879b9709143e1f593f000000181610c005109828114611b6b57611b6a7f696e76616c69642071756f7469656e74206576616c756174696f6e0000000000601b610094565b5b5050505050565b5f60018215611ba857611ba5837f1dba8b5bdd64ef6ce29a9039aca3c0e524395c43b9227b96c75090cc6cc7ec976100c9565b90505b7f30644e72e131a029b85045b68181585d2833e84879b9709143e1f593f000000160017f30644e72e131a029b85045b68181585d2833e84879b9709143e1f593f000000103611bfb6304000000876100c9565b08915081611c2f57611c2e7f696e76616c69642076616e697368696e6720706f6c796e6f6d69616c00000000601c610094565b5b7f30644e72e131a029b85045b68181585d2833e84879b9709143e1f593f000000181830991507f30644e72e131a029b85045b68181585d2833e84879b9709143e1f593f0000001817f30644e72e131a029b85045b68181585d2833e84879b9709143e1f593f00000010385087f30644e72e131a029b85045b68181585d2833e84879b9709143e1f593f0000001630400000082099050611cf260027f30644e72e131a029b85045b68181585d2833e84879b9709143e1f593f000000103826100c9565b90507f30644e72e131a029b85045b68181585d2833e84879b9709143e1f593f00000018184099250505092915050565b5f7f30644e72e131a029b85045b68181585d2833e84879b9709143e1f593f0000001610b2051610e6051099050610e0051610de0515f7f30644e72e131a029b85045b68181585d2833e84879b9709143e1f593f000000182610ac0510990507f30644e72e131a029b85045b68181585d2833e84879b9709143e1f593f000000183820890507f30644e72e131a029b85045b68181585d2833e84879b9709143e1f593f0000001610a0051820890507f30644e72e131a029b85045b68181585d2833e84879b9709143e1f593f000000181850993507f30644e72e131a029b85045b68181585d2833e84879b9709143e1f593f000000182610ae0510990507f30644e72e131a029b85045b68181585d2833e84879b9709143e1f593f000000183820890507f30644e72e131a029b85045b68181585d2833e84879b9709143e1f593f0000001610a2051820890507f30644e72e131a029b85045b68181585d2833e84879b9709143e1f593f000000181850993507f30644e72e131a029b85045b68181585d2833e84879b9709143e1f593f000000182610b00510990507f30644e72e131a029b85045b68181585d2833e84879b9709143e1f593f000000183820890507f30644e72e131a029b85045b68181585d2833e84879b9709143e1f593f0000001610a4051820890507f30644e72e131a029b85045b68181585d2833e84879b9709143e1f593f000000181850993507f30644e72e131a029b85045b68181585d2833e84879b9709143e1f593f00000018084610a60510885099350505050807f30644e72e131a029b85045b68181585d2833e84879b9709143e1f593f0000001039050611020517f30644e72e131a029b85045b68181585d2833e84879b9709143e1f593f0000001610e8051820990507f30644e72e131a029b85045b68181585d2833e84879b9709143e1f593f0000001817f30644e72e131a029b85045b68181585d2833e84879b9709143e1f593f000000103830891505090565b5f610f2051610f40517f30644e72e131a029b85045b68181585d2833e84879b9709143e1f593f0000001600183087f30644e72e131a029b85045b68181585d2833e84879b9709143e1f593f000000182820981610f605280610f80527f30644e72e131a029b85045b68181585d2833e84879b9709143e1f593f000000184610b40510994507f30644e72e131a029b85045b68181585d2833e84879b9709143e1f593f000000181860894507f30644e72e131a029b85045b68181585d2833e84879b9709143e1f593f0000001610b6051860994507f30644e72e131a029b85045b68181585d2833e84879b9709143e1f593f0000001610ea0518609945061212d60016304000000037f1dba8b5bdd64ef6ce29a9039aca3c0e524395c43b9227b96c75090cc6cc7ec976100c9565b7f30644e72e131a029b85045b68181585d2833e84879b9709143e1f593f0000001817f30644e72e131a029b85045b68181585d2833e84879b9709143e1f593f000000103610fe0510880611000527f30644e72e131a029b85045b68181585d2833e84879b9709143e1f593f0000001818809965050507f30644e72e131a029b85045b68181585d2833e84879b9709143e1f593f0000001610ec05161102051097f30644e72e131a029b85045b68181585d2833e84879b9709143e1f593f0000001817f30644e72e131a029b85045b68181585d2833e84879b9709143e1f593f00000010387089550506110405161222b6001630400000003836100c9565b610ee0517f30644e72e131a029b85045b68181585d2833e84879b9709143e1f593f0000001817f30644e72e131a029b85045b68181585d2833e84879b9709143e1f593f0000001848609097f30644e72e131a029b85045b68181585d2833e84879b9709143e1f593f0000001817f30644e72e131a029b85045b68181585d2833e84879b9709143e1f593f0000001038a089850505050505050505090565b6122d68183610200610147565b6122e381846102406102be565b6122f081856102806102be565b6122fd81866102c06102be565b61232d817f30644e72e131a029b85045b68181585d2833e84879b9709143e1f593f00000018585096103006102be565b61235d817f30644e72e131a029b85045b68181585d2833e84879b9709143e1f593f00000018685096103406102be565b61236961038082610267565b61237981610a80516103c06102be565b7f30644e72e131a029b85045b68181585d2833e84879b9709143e1f593f0000001610fa051610aa051096123ae828284610147565b505050505050565b5f807f30644e72e131a029b85045b68181585d2833e84879b9709143e1f593f000000184850991507f30644e72e131a029b85045b68181585d2833e84879b9709143e1f593f0000001857f30644e72e131a029b85045b68181585d2833e84879b9709143e1f593f000000103830891507f30644e72e131a029b85045b68181585d2833e84879b9709143e1f593f0000001610dc051830991507f30644e72e131a029b85045b68181585d2833e84879b9709143e1f593f000000185860990507f30644e72e131a029b85045b68181585d2833e84879b9709143e1f593f0000001867f30644e72e131a029b85045b68181585d2833e84879b9709143e1f593f000000103820890507f30644e72e131a029b85045b68181585d2833e84879b9709143e1f593f0000001610e2051820990507f30644e72e131a029b85045b68181585d2833e84879b9709143e1f593f000000181830891507f30644e72e131a029b85045b68181585d2833e84879b9709143e1f593f000000184870990507f30644e72e131a029b85045b68181585d2833e84879b9709143e1f593f0000001877f30644e72e131a029b85045b68181585d2833e84879b9709143e1f593f000000103820890507f30644e72e131a029b85045b68181585d2833e84879b9709143e1f593f0000001610e4051820990507f30644e72e131a029b85045b68181585d2833e84879b9709143e1f593f000000181830891507f30644e72e131a029b85045b68181585d2833e84879b9709143e1f593f0000001610fa051830991506125ff83836104406102be565b50505050505050565b610e60517f30644e72e131a029b85045b68181585d2833e84879b9709143e1f593f0000001610de051610fe05109610e00517f30644e72e131a029b85045b68181585d2833e84879b9709143e1f593f0000001857f30644e72e131a029b85045b68181585d2833e84879b9709143e1f593f0000001838508087f30644e72e131a029b85045b68181585d2833e84879b9709143e1f593f000000181850993507f30644e72e131a029b85045b68181585d2833e84879b9709143e1f593f0000001877f30644e72e131a029b85045b68181585d2833e84879b9709143e1f593f0000001847f30644e72e131a029b85045b68181585d2833e84879b9709143e1f593f000000160058809080890507f30644e72e131a029b85045b68181585d2833e84879b9709143e1f593f000000181850993507f30644e72e131a029b85045b68181585d2833e84879b9709143e1f593f0000001887f30644e72e131a029b85045b68181585d2833e84879b9709143e1f593f0000001847f30644e72e131a029b85045b68181585d2833e84879b9709143e1f593f000000160078809080890507f30644e72e131a029b85045b68181585d2833e84879b9709143e1f593f000000181850993507f30644e72e131a029b85045b68181585d2833e84879b9709143e1f593f0000001897f30644e72e131a029b85045b68181585d2833e84879b9709143e1f593f0000001847f30644e72e131a029b85045b68181585d2833e84879b9709143e1f593f0000001600a8809080890507f30644e72e131a029b85045b68181585d2833e84879b9709143e1f593f00000018185099350505050611020517f30644e72e131a029b85045b68181585d2833e84879b9709143e1f593f000000180610e80518309830891507f30644e72e131a029b85045b68181585d2833e84879b9709143e1f593f0000001610fa0518309915081611340527f30644e72e131a029b85045b68181585d2833e84879b9709143e1f593f0000001610de051610e60510991507f30644e72e131a029b85045b68181585d2833e84879b9709143e1f593f0000001610b205183099150610de051610e00517f30644e72e131a029b85045b68181585d2833e84879b9709143e1f593f0000001867f30644e72e131a029b85045b68181585d2833e84879b9709143e1f593f0000001837f30644e72e131a029b85045b68181585d2833e84879b9709143e1f593f000000186610ac0510908087f30644e72e131a029b85045b68181585d2833e84879b9709143e1f593f000000181860994507f30644e72e131a029b85045b68181585d2833e84879b9709143e1f593f0000001887f30644e72e131a029b85045b68181585d2833e84879b9709143e1f593f0000001847f30644e72e131a029b85045b68181585d2833e84879b9709143e1f593f000000187610ae05109080890507f30644e72e131a029b85045b68181585d2833e84879b9709143e1f593f000000181860994507f30644e72e131a029b85045b68181585d2833e84879b9709143e1f593f0000001897f30644e72e131a029b85045b68181585d2833e84879b9709143e1f593f0000001847f30644e72e131a029b85045b68181585d2833e84879b9709143e1f593f000000187610b005109080890507f30644e72e131a029b85045b68181585d2833e84879b9709143e1f593f000000181860994505050507f30644e72e131a029b85045b68181585d2833e84879b9709143e1f593f0000001610fa05183099150612b1661108083610540610147565b612b22611080846101ee565b50505050505050565b610b60517f30644e72e131a029b85045b68181585d2833e84879b9709143e1f593f0000001610ea051820990507f30644e72e131a029b85045b68181585d2833e84879b9709143e1f593f000000161100051820990507f30644e72e131a029b85045b68181585d2833e84879b9709143e1f593f0000001610fa051820990508061138052610ba05190507f30644e72e131a029b85045b68181585d2833e84879b9709143e1f593f0000001610f2051820990507f30644e72e131a029b85045b68181585d2833e84879b9709143e1f593f0000001610b8051820890507f30644e72e131a029b85045b68181585d2833e84879b9709143e1f593f0000001610f8051820890505f839050610f0051807f30644e72e131a029b85045b68181585d2833e84879b9709143e1f593f000000180888309840892507f30644e72e131a029b85045b68181585d2833e84879b9709143e1f593f000000182820990507f30644e72e131a029b85045b68181585d2833e84879b9709143e1f593f000000180898309840892507f30644e72e131a029b85045b68181585d2833e84879b9709143e1f593f000000182820990507f30644e72e131a029b85045b68181585d2833e84879b9709143e1f593f00000018082610be05109840892507f30644e72e131a029b85045b68181585d2833e84879b9709143e1f593f0000001610bc051840992507f30644e72e131a029b85045b68181585d2833e84879b9709143e1f593f0000001610f40518408925050507f30644e72e131a029b85045b68181585d2833e84879b9709143e1f593f000000181830991507f30644e72e131a029b85045b68181585d2833e84879b9709143e1f593f0000001610f605183099150817f30644e72e131a029b85045b68181585d2833e84879b9709143e1f593f00000010391507f30644e72e131a029b85045b68181585d2833e84879b9709143e1f593f0000001610ea051830991507f30644e72e131a029b85045b68181585d2833e84879b9709143e1f593f000000161100051830991507f30644e72e131a029b85045b68181585d2833e84879b9709143e1f593f000000180610ec0516110205109830891507f30644e72e131a029b85045b68181585d2833e84879b9709143e1f593f000000180610ee0516110405109830891507f30644e72e131a029b85045b68181585d2833e84879b9709143e1f593f0000001610fa051830991508161136052505050505050565b6110605180610900516110c052610920516110e052612ed56110c0826109406102be565b7f30644e72e131a029b85045b68181585d2833e84879b9709143e1f593f00000018282099050612f0a6110c0826109806102be565b7f30644e72e131a029b85045b68181585d2833e84879b9709143e1f593f00000018282099050612f3f6110c0826109c06102be565b5050610a0051610a2051610a4051610a6051612f60818385876111006122c9565b612f6f818385876111006123b6565b612f7e81838587611100612608565b612f8c828486611100612b2b565b505050506105c051611140526105e05161116052610f005180612fb4611140826106006102be565b7f30644e72e131a029b85045b68181585d2833e84879b9709143e1f593f00000018282099050612fe9611140826106406102be565b7f30644e72e131a029b85045b68181585d2833e84879b9709143e1f593f0000001828209905061301e611140826106806102be565b5050565b60015f806110c051611180526110e0516111a052610c00516130aa565b5f807f30644e72e131a029b85045b68181585d2833e84879b9709143e1f593f0000001610fa0518609915061307761118083856102be565b7f30644e72e131a029b85045b68181585d2833e84879b9709143e1f593f000000180855184098708905094509492505050565b6130bb611180611100611180610196565b7f30644e72e131a029b85045b68181585d2833e84879b9709143e1f593f0000001610fa051850993507f30644e72e131a029b85045b68181585d2833e84879b9709143e1f593f000000180610c20518609820890506131208185610a0061074061303f565b915093506131348185610a2061078061303f565b915093506131488185610a406107c061303f565b915093507f30644e72e131a029b85045b68181585d2833e84879b9709143e1f593f0000001610fa051850993508392507f30644e72e131a029b85045b68181585d2833e84879b9709143e1f593f000000180610a60518609820890506131b48185610aa061040061303f565b915093506131c88185610ac061048061303f565b915093506131dc8185610ae06104c061303f565b915093506131f08185610b0061050061303f565b915093507f30644e72e131a029b85045b68181585d2833e84879b9709143e1f593f0000001610fa051850993508391507f30644e72e131a029b85045b68181585d2833e84879b9709143e1f593f000000180610b805186098208905061325c8185610bc061058061303f565b915093506132708185610be06106c061303f565b9150935080611200527f30644e72e131a029b85045b68181585d2833e84879b9709143e1f593f0000001610fa051850993507f30644e72e131a029b85045b68181585d2833e84879b9709143e1f593f000000180610fc051860961134051086132de6111c082610840610147565b7f30644e72e131a029b85045b68181585d2833e84879b9709143e1f593f000000185610b2051096133a1565b5f807f30644e72e131a029b85045b68181585d2833e84879b9709143e1f593f0000001610fa051870991507f30644e72e131a029b85045b68181585d2833e84879b9709143e1f593f000000180610fc0518409860861336c6111c082866102be565b7f30644e72e131a029b85045b68181585d2833e84879b9709143e1f593f0000001808651850989089150509550959350505050565b6133b2818787610a8061080061330a565b915095506133ca818761138051610b4061088061330a565b915095506133e2818761136051610b606108c061330a565b915095506133f7818786610ba061114061330a565b915095508061122052610fc0516134156112806111c0611180610196565b7f30644e72e131a029b85045b68181585d2833e84879b9709143e1f593f0000001611200517f30644e72e131a029b85045b68181585d2833e84879b9709143e1f593f00000018361122051090860016112405260026112605261347d61124082611240610147565b5050505050505050565b610fc051610fe0517f30644e72e131a029b85045b68181585d2833e84879b9709143e1f593f00000017f1dba8b5bdd64ef6ce29a9039aca3c0e524395c43b9227b96c75090cc6cc7ec97610fe051096134e46112406112806101ee565b6134f361128083610c406102be565b6135256112807f30644e72e131a029b85045b68181585d2833e84879b9709143e1f593f0000001858409610c806102be565b610c405161130052610c60516113205261354461130084610c806102be565b61354f61130061032a565b610700511561359c577f30644e72e131a029b85045b68181585d2833e84879b9709143e1f593f000000183840961358b61128082610cc06102be565b61359a61130082610d006102be565b505b611280515f526112a0516020527f198e9393920d483a7260bfb731fb5d25f1aa493335a9e71297e485b7aef312c26040527f1800deef121f1e76426a00665e5c4479674322d4f75edadd46debd5cd992f6ed6060527f090689d0585ff075ec9e99ad690c3395bc4b313370b38ef355acdadcd122975b6080527f12c85ea5db8c6deb4aab71808dcb408fe3d1e7690c43d37b4ce6cc0166fa7daa60a0526113005160c0526113205160e0527f260e01b251f6f1c7e7ff4e580791dee8ea51d87a358e038b4efe30fac09383c1610100527f0118c4d5b837bcc2bc89b5b398b5974e9f5944073b32078b7e231fec938883b0610120527f04fc6369f7110fe3d25156c1bb9a72859cf2a04641f99ba4ee413c80da6a5fe4610140527f22febda3c0c0632a56475b4214e5615e11e6dd3f96e6cea2854a87d4dacc5e556101605260205f6101805f60085afa80613717576137167f66696e616c50616972696e673a20707265636f6d70696c65206661696c7572656020610094565b5b5f51613749576137487f66696e616c50616972696e673a2070616972696e67206661696c757265000000601d610094565b5b50505050565b613757610406565b61375f6115ec565b61376761189b565b61376f612eb1565b613777613022565b61377f613487565b60015f5260205ff35b5f6137916137a8565b610200610700602082820301808320935050505090565b7f13598f50f1a62920416dd9f16d46032cbe810bb384da5b0ff42bdf6ab1e69662610200527f19df99dfa60feb4bd15ddb271efac0179104c5b7a27078115a91079ca2826d51610220527f2cf47b2a9e17ea94be18ecb13eec2e5706880527ed0d88fd5969ac069a8aac06610240527f2e3294b57b45a03075ee2e89c9e7d2ab5f261b5e2408578112b6aa7bf12a2e5f610260527f0377df0615f3f859583ca885861a6c0f885778f0633d082b9883afcbcb186c6c610280527f0cde99a920bf69e9ff1d42b719e2895f0da6d6a334f2a2a4e135cc93bf515a4a6102a0527f042222cc79ad515fdae98dddc09d8e78fc8af37a69baf36a04188ca54334c4436102c0527f0f0158e345c08da2021b703aac1b697d2f3553617fef778bf2c5fafc40324be16102e0527f0102fab7a43b3ac26db87f53bd303cf44d6f7c963046681422c32dea20a526df610300527f221a29c1df2e5822d060261802073700a285082ebb1263e53814b017a8bfb14b610320527f269fbe8da379085e789a60720c12324ee4efc0f9215bfc30a65134ecbe875682610340527f0134b14e94b7a719d213a0e7136547add67e71723ed82c87e8a0f8926fb002ac610360527f07d50d604f391c8f7331ce2df7115aa8a6db6bcc1ad246255b12da2e80f7d815610380527f16f31ebefd077f85029a1af6136a2d63e8e92015ea44bac6386cb05fc7aca56e6103a0527f1ceeda30b083c5b748a1dbbefc4b8324e35cb9830c630b8064ece3a7c30e5f4a6103c0527e37029b76eb626e15fefc39fb9c142499e9ee283063b2811afff7211b9a0b636103e0527f1885051503e3667eac61262e28b7cedd16a619d19e8820a522a269dc98262c69610400527f0daf7bffe99c0357aefcd6ccaf363ce5096e48d105fc8583e649589cc149183d610420527f215a735844e0035f245a45154f19635bdc70d8f48eef46384c2c948002af0c81610440527f1faecf6813ffbc0a2eeeb50ca035d4542ca557f15e2b82ffffb24024cf3df2d1610460527f2f24b1ffdea08385d0ca89b32db8601b3b95b255903edceac52402dfece9eee4610480527f1e90e41ecb35e8455c55bf4cfd41e80bb4e5dd845b65c6f77e2ac0821b09a8836104a0527f128d006b473b50bc85a1a2707c278e08186e4402010178bf930b7ea24e203ed06104c0527f0fa100f35e66d3c2429f1c20be00fe21b79a65e9de665ba420ee388ee0b47b3c6104e0527f3026de72fd5e47f96c7d0f4f0c15cfd5f50438991fdbb18d4c5d18561b0e87cd610500527f20162d33d551a2599be33cfba40358bdab4338891cfe7e028355e5a50442b5a4610520527f0a811f316900d60021c0ef765bcfc2070cc3a8b38b09a3b4be04e37e292ebaf1610540527f192c167388faa4266ced24b8e3687e81974aa8caaf1ac3e8a3fab3947c7b65d1610560527f2c513ed74d9d57a5ec901e074032741036353a2c4513422e96e7b53b302d765b6105c0527f04dd964427e430f16004076d708c0cb21e225056cc1d57418cfbd3d4729814686105e0527f1ea83e5e65c6f8068f4677e2911678cf329b28259642a32db1f14b8347828aac610600527f1d22bc884a2da4962a893ba8de13f57aaeb785ed52c5e686994839cab8f7475d610620527f0b2e7212d0d9cff26d0bdf3d79b2cac029a25dfeb1cafdf49e2349d7db348d89610640527f1301f9b252419ea240eb67fda720ca0b16d92364027285f95e9b1349490fa283610660527f02f7b99fdfa5b418548c2d777785820e02383cfc87e7085e280a375a358153bf610680527f09d004fe08dc4d19c382df36fad22ef676185663543703e6a4b40203e50fd8a66106a0527f300223627d9e977c0b02a64b49cb1c6c7833b82e25bacb420ef6f48b6deeed06610580527f2d0bd4b927912e6509088fb7167a30b85bd5d031e75b057b687e62fc6d779f916105a0527e6f5f6969088413e15abe92418dd7668c6c5fa2dcca168e71a98d84a9fe39de6106c0527f18550c804fadc55861b6a34d5341d594486833e62bd6137089f3335566ca40ee6106e0525f61070052565b5f80fd5b5f80fd5b5f80fd5b5f80fd5b5f80fd5b5f8083601f840112613d9e57613d9d613d7d565b5b8235905067ffffffffffffffff811115613dbb57613dba613d81565b5b602083019150836020820283011115613dd757613dd6613d85565b5b9250929050565b5f805f805f8060608789031215613df857613df7613d75565b5b5f87013567ffffffffffffffff811115613e1557613e14613d79565b5b613e2189828a01613d89565b9650965050602087013567ffffffffffffffff811115613e4457613e43613d79565b5b613e5089828a01613d89565b9450945050604087013567ffffffffffffffff811115613e7357613e72613d79565b5b613e7f89828a01613d89565b92509250509295509295509295565b5f8115159050919050565b613ea281613e8e565b82525050565b5f602082019050613ebb5f830184613e99565b92915050565b5f819050919050565b613ed381613ec1565b82525050565b5f602082019050613eec5f830184613eca565b9291505056fea2646970667358221220e4463e4b04cf1aeec667857ec7a81fd77ab5b940b270fb7983184fe282bd405864736f6c634300081a0033",
			"opcodes": "PUSH1 0x80 PUSH1 0x40 MSTORE CALLVALUE DUP1 ISZERO PUSH1 0xE JUMPI PUSH0 DUP1 REVERT JUMPDEST POP PUSH2 0x3F28 DUP1 PUSH2 0x1C PUSH0 CODECOPY PUSH0 RETURN INVALID PUSH1 0x80 PUSH1 0x40 MSTORE CALLVALUE DUP1 ISZERO PUSH2 0xF JUMPI PUSH0 DUP1 REVERT JUMPDEST POP PUSH1 0x4 CALLDATASIZE LT PUSH2 0x34 JUMPI PUSH0 CALLDATALOAD PUSH1 0xE0 SHR DUP1 PUSH4 0x87D9D023 EQ PUSH2 0x38 JUMPI DUP1 PUSH4 0x9E8945D2 EQ PUSH2 0x68 JUMPI JUMPDEST PUSH0 DUP1 REVERT JUMPDEST PUSH2 0x52 PUSH1 0x4 DUP1 CALLDATASIZE SUB DUP2 ADD SWAP1 PUSH2 0x4D SWAP2 SWAP1 PUSH2 0x3DDE JUMP JUMPDEST PUSH2 0x86 JUMP JUMPDEST PUSH1 0x40 MLOAD PUSH2 0x5F SWAP2 SWAP1 PUSH2 0x3EA8 JUMP JUMPDEST PUSH1 0x40 MLOAD DUP1 SWAP2 SUB SWAP1 RETURN JUMPDEST PUSH2 0x70 PUSH2 0x3788 JUMP JUMPDEST PUSH1 0x40 MLOAD PUSH2 0x7D SWAP2 SWAP1 PUSH2 0x3ED9 JUMP JUMPDEST PUSH1 0x40 MLOAD DUP1 SWAP2 SUB SWAP1 RETURN JUMPDEST PUSH0 PUSH2 0x8F PUSH2 0x37A8 JUMP JUMPDEST PUSH2 0x374F JUMP JUMPDEST PUSH32 0x8C379A000000000000000000000000000000000000000000000000000000000 PUSH0 MSTORE PUSH1 0x20 PUSH1 0x4 MSTORE DUP1 PUSH1 0x24 MSTORE DUP2 PUSH1 0x44 MSTORE PUSH1 0x64 PUSH0 REVERT JUMPDEST PUSH0 PUSH1 0x20 PUSH0 MSTORE PUSH1 0x20 DUP1 MSTORE PUSH1 0x20 PUSH1 0x40 MSTORE DUP2 PUSH1 0x60 MSTORE DUP3 PUSH1 0x80 MSTORE PUSH32 0x30644E72E131A029B85045B68181585D2833E84879B9709143E1F593F0000001 PUSH1 0xA0 MSTORE PUSH1 0x20 PUSH0 PUSH1 0xC0 PUSH0 PUSH1 0x5 GAS STATICCALL PUSH2 0x13D JUMPI PUSH2 0x13C PUSH32 0x6D6F6465787020707265636F6D70696C65206661696C65640000000000000000 PUSH1 0x18 PUSH2 0x94 JUMP JUMPDEST JUMPDEST PUSH0 MLOAD SWAP1 POP SWAP3 SWAP2 POP POP JUMP JUMPDEST DUP1 MLOAD PUSH0 MSTORE PUSH1 0x20 DUP2 ADD MLOAD PUSH1 0x20 MSTORE DUP2 PUSH1 0x40 MSTORE PUSH1 0x40 DUP4 PUSH1 0x60 PUSH0 PUSH1 0x7 GAS STATICCALL PUSH2 0x191 JUMPI PUSH2 0x190 PUSH32 0x706F696E744D756C496E746F446573743A2065634D756C206661696C65640000 PUSH1 0x1E PUSH2 0x94 JUMP JUMPDEST JUMPDEST POP POP POP JUMP JUMPDEST DUP1 MLOAD PUSH0 MSTORE PUSH1 0x20 DUP2 ADD MLOAD PUSH1 0x20 MSTORE DUP2 MLOAD PUSH1 0x40 MSTORE PUSH1 0x20 DUP3 ADD MLOAD PUSH1 0x60 MSTORE PUSH1 0x40 DUP4 PUSH1 0x80 PUSH0 PUSH1 0x6 GAS STATICCALL PUSH2 0x1E9 JUMPI PUSH2 0x1E8 PUSH32 0x706F696E74416464496E746F446573743A206563416464206661696C65640000 PUSH1 0x1E PUSH2 0x94 JUMP JUMPDEST JUMPDEST POP POP POP JUMP JUMPDEST DUP1 MLOAD PUSH0 MSTORE PUSH1 0x20 DUP2 ADD MLOAD PUSH1 0x20 MSTORE DUP2 MLOAD PUSH1 0x40 MSTORE PUSH1 0x20 DUP3 ADD MLOAD PUSH32 0x30644E72E131A029B85045B68181585D97816A916871CA8D3C208C16D87CFD47 SUB PUSH1 0x60 MSTORE PUSH1 0x40 DUP2 PUSH1 0x80 PUSH0 PUSH1 0x6 GAS STATICCALL PUSH2 0x263 JUMPI PUSH2 0x262 PUSH32 0x706F696E7453756241737369676E3A206563416464206661696C656400000000 PUSH1 0x1C PUSH2 0x94 JUMP JUMPDEST JUMPDEST POP POP JUMP JUMPDEST DUP1 MLOAD PUSH0 MSTORE PUSH1 0x20 DUP2 ADD MLOAD PUSH1 0x20 MSTORE DUP2 MLOAD PUSH1 0x40 MSTORE PUSH1 0x20 DUP3 ADD MLOAD PUSH1 0x60 MSTORE PUSH1 0x40 DUP2 PUSH1 0x80 PUSH0 PUSH1 0x6 GAS STATICCALL PUSH2 0x2BA JUMPI PUSH2 0x2B9 PUSH32 0x706F696E7441646441737369676E3A206563416464206661696C656400000000 PUSH1 0x1C PUSH2 0x94 JUMP JUMPDEST JUMPDEST POP POP JUMP JUMPDEST DUP1 MLOAD PUSH0 MSTORE PUSH1 0x20 DUP2 ADD MLOAD PUSH1 0x20 MSTORE DUP2 PUSH1 0x40 MSTORE PUSH1 0x40 PUSH0 PUSH1 0x60 PUSH0 PUSH1 0x7 GAS STATICCALL DUP4 MLOAD PUSH1 0x40 MSTORE PUSH1 0x20 DUP5 ADD MLOAD PUSH1 0x60 MSTORE PUSH1 0x40 DUP5 PUSH1 0x80 PUSH0 PUSH1 0x6 GAS STATICCALL DUP2 AND SWAP1 POP DUP1 PUSH2 0x324 JUMPI PUSH2 0x323 PUSH32 0x706F696E744D756C416E64416464496E746F4465737400000000000000000000 PUSH1 0x16 PUSH2 0x94 JUMP JUMPDEST JUMPDEST POP POP POP POP JUMP JUMPDEST PUSH1 0x20 DUP2 ADD MLOAD DUP1 PUSH0 DUP2 EQ PUSH2 0x364 JUMPI DUP2 PUSH32 0x30644E72E131A029B85045B68181585D97816A916871CA8D3C208C16D87CFD47 SUB PUSH1 0x20 DUP5 ADD MSTORE PUSH2 0x398 JUMP JUMPDEST DUP3 MLOAD ISZERO PUSH2 0x397 JUMPI PUSH2 0x396 PUSH32 0x706F696E744E65676174653A20696E76616C696420706F696E74000000000000 PUSH1 0x1A PUSH2 0x94 JUMP JUMPDEST JUMPDEST JUMPDEST POP POP POP JUMP JUMPDEST PUSH0 PUSH2 0xD43 MSTORE8 DUP1 PUSH2 0xD84 MSTORE PUSH1 0x64 PUSH2 0xD40 KECCAK256 PUSH1 0x1 PUSH2 0xD43 MSTORE8 PUSH1 0x64 PUSH2 0xD40 KECCAK256 DUP1 PUSH2 0xD64 MSTORE DUP2 PUSH2 0xD44 MSTORE POP POP POP JUMP JUMPDEST PUSH0 PUSH1 0x2 PUSH2 0xD43 MSTORE8 DUP2 PUSH1 0xE0 SHL PUSH2 0xD84 MSTORE PUSH32 0x1FFFFFFFFFFFFFFFFFFFFFFFFFFFFFFFFFFFFFFFFFFFFFFFFFFFFFFFFFFFFFFF PUSH1 0x48 PUSH2 0xD40 KECCAK256 AND SWAP1 POP SWAP2 SWAP1 POP JUMP JUMPDEST PUSH1 0x4 CALLDATALOAD PUSH1 0x4 DUP2 ADD CALLDATALOAD PUSH1 0x1 DUP2 EQ PUSH32 0x1FFFFFFFFFFFFFFFFFFFFFFFFFFFFFFFFFFFFFFFFFFFFFFFFFFFFFFFFFFFFFFF PUSH1 0x24 DUP5 ADD CALLDATALOAD AND PUSH2 0x720 MSTORE PUSH1 0x24 CALLDATALOAD SWAP3 POP PUSH1 0x4 DUP4 ADD CALLDATALOAD DUP2 PUSH1 0x2C DUP3 EQ AND SWAP2 POP PUSH32 0x30644E72E131A029B85045B68181585D97816A916871CA8D3C208C16D87CFD47 PUSH1 0x24 DUP6 ADD CALLDATALOAD MOD PUSH32 0x30644E72E131A029B85045B68181585D97816A916871CA8D3C208C16D87CFD47 PUSH1 0x44 DUP7 ADD CALLDATALOAD MOD PUSH32 0x30644E72E131A029B85045B68181585D97816A916871CA8D3C208C16D87CFD47 DUP3 DUP4 MULMOD DUP5 PUSH32 0x30644E72E131A029B85045B68181585D97816A916871CA8D3C208C16D87CFD47 PUSH1 0x3 PUSH32 0x30644E72E131A029B85045B68181585D97816A916871CA8D3C208C16D87CFD47 DUP5 DUP8 MULMOD ADDMOD PUSH32 0x30644E72E131A029B85045B68181585D97816A916871CA8D3C208C16D87CFD47 DUP5 DUP6 MULMOD EQ AND SWAP5 POP DUP3 PUSH2 0x740 MSTORE DUP2 PUSH2 0x760 MSTORE POP POP POP PUSH32 0x30644E72E131A029B85045B68181585D97816A916871CA8D3C208C16D87CFD47 PUSH1 0x64 DUP6 ADD CALLDATALOAD MOD PUSH32 0x30644E72E131A029B85045B68181585D97816A916871CA8D3C208C16D87CFD47 PUSH1 0x84 DUP7 ADD CALLDATALOAD MOD PUSH32 0x30644E72E131A029B85045B68181585D97816A916871CA8D3C208C16D87CFD47 DUP3 DUP4 MULMOD DUP5 PUSH32 0x30644E72E131A029B85045B68181585D97816A916871CA8D3C208C16D87CFD47 PUSH1 0x3 PUSH32 0x30644E72E131A029B85045B68181585D97816A916871CA8D3C208C16D87CFD47 DUP5 DUP8 MULMOD ADDMOD PUSH32 0x30644E72E131A029B85045B68181585D97816A916871CA8D3C208C16D87CFD47 DUP5 DUP6 MULMOD EQ AND SWAP5 POP DUP3 PUSH2 0x780 MSTORE DUP2 PUSH2 0x7A0 MSTORE POP POP POP PUSH32 0x30644E72E131A029B85045B68181585D97816A916871CA8D3C208C16D87CFD47 PUSH1 0xA4 DUP6 ADD CALLDATALOAD MOD PUSH32 0x30644E72E131A029B85045B68181585D97816A916871CA8D3C208C16D87CFD47 PUSH1 0xC4 DUP7 ADD CALLDATALOAD MOD PUSH32 0x30644E72E131A029B85045B68181585D97816A916871CA8D3C208C16D87CFD47 DUP3 DUP4 MULMOD DUP5 PUSH32 0x30644E72E131A029B85045B68181585D97816A916871CA8D3C208C16D87CFD47 PUSH1 0x3 PUSH32 0x30644E72E131A029B85045B68181585D97816A916871CA8D3C208C16D87CFD47 DUP5 DUP8 MULMOD ADDMOD PUSH32 0x30644E72E131A029B85045B68181585D97816A916871CA8D3C208C16D87CFD47 DUP5 DUP6 MULMOD EQ AND SWAP5 POP DUP3 PUSH2 0x7C0 MSTORE DUP2 PUSH2 0x7E0 MSTORE POP POP POP PUSH32 0x30644E72E131A029B85045B68181585D97816A916871CA8D3C208C16D87CFD47 PUSH1 0xE4 DUP6 ADD CALLDATALOAD MOD PUSH32 0x30644E72E131A029B85045B68181585D97816A916871CA8D3C208C16D87CFD47 PUSH2 0x104 DUP7 ADD CALLDATALOAD MOD PUSH32 0x30644E72E131A029B85045B68181585D97816A916871CA8D3C208C16D87CFD47 DUP3 DUP4 MULMOD DUP5 PUSH32 0x30644E72E131A029B85045B68181585D97816A916871CA8D3C208C16D87CFD47 PUSH1 0x3 PUSH32 0x30644E72E131A029B85045B68181585D97816A916871CA8D3C208C16D87CFD47 DUP5 DUP8 MULMOD ADDMOD PUSH32 0x30644E72E131A029B85045B68181585D97816A916871CA8D3C208C16D87CFD47 DUP5 DUP6 MULMOD EQ AND SWAP5 POP DUP3 PUSH2 0x800 MSTORE DUP2 PUSH2 0x820 MSTORE POP POP POP PUSH32 0x30644E72E131A029B85045B68181585D97816A916871CA8D3C208C16D87CFD47 PUSH2 0x124 DUP6 ADD CALLDATALOAD MOD PUSH32 0x30644E72E131A029B85045B68181585D97816A916871CA8D3C208C16D87CFD47 PUSH2 0x144 DUP7 ADD CALLDATALOAD MOD PUSH32 0x30644E72E131A029B85045B68181585D97816A916871CA8D3C208C16D87CFD47 DUP3 DUP4 MULMOD DUP5 PUSH32 0x30644E72E131A029B85045B68181585D97816A916871CA8D3C208C16D87CFD47 PUSH1 0x3 PUSH32 0x30644E72E131A029B85045B68181585D97816A916871CA8D3C208C16D87CFD47 DUP5 DUP8 MULMOD ADDMOD PUSH32 0x30644E72E131A029B85045B68181585D97816A916871CA8D3C208C16D87CFD47 DUP5 DUP6 MULMOD EQ AND SWAP5 POP DUP3 PUSH2 0x840 MSTORE DUP2 PUSH2 0x860 MSTORE POP POP POP PUSH32 0x30644E72E131A029B85045B68181585D97816A916871CA8D3C208C16D87CFD47 PUSH2 0x164 DUP6 ADD CALLDATALOAD MOD PUSH32 0x30644E72E131A029B85045B68181585D97816A916871CA8D3C208C16D87CFD47 PUSH2 0x184 DUP7 ADD CALLDATALOAD MOD PUSH32 0x30644E72E131A029B85045B68181585D97816A916871CA8D3C208C16D87CFD47 DUP3 DUP4 MULMOD DUP5 PUSH32 0x30644E72E131A029B85045B68181585D97816A916871CA8D3C208C16D87CFD47 PUSH1 0x3 PUSH32 0x30644E72E131A029B85045B68181585D97816A916871CA8D3C208C16D87CFD47 DUP5 DUP8 MULMOD ADDMOD PUSH32 0x30644E72E131A029B85045B68181585D97816A916871CA8D3C208C16D87CFD47 DUP5 DUP6 MULMOD EQ AND SWAP5 POP DUP3 PUSH2 0x880 MSTORE DUP2 PUSH2 0x8A0 MSTORE POP POP POP PUSH32 0x30644E72E131A029B85045B68181585D97816A916871CA8D3C208C16D87CFD47 PUSH2 0x1A4 DUP6 ADD CALLDATALOAD MOD PUSH32 0x30644E72E131A029B85045B68181585D97816A916871CA8D3C208C16D87CFD47 PUSH2 0x1C4 DUP7 ADD CALLDATALOAD MOD PUSH32 0x30644E72E131A029B85045B68181585D97816A916871CA8D3C208C16D87CFD47 DUP3 DUP4 MULMOD DUP5 PUSH32 0x30644E72E131A029B85045B68181585D97816A916871CA8D3C208C16D87CFD47 PUSH1 0x3 PUSH32 0x30644E72E131A029B85045B68181585D97816A916871CA8D3C208C16D87CFD47 DUP5 DUP8 MULMOD ADDMOD PUSH32 0x30644E72E131A029B85045B68181585D97816A916871CA8D3C208C16D87CFD47 DUP5 DUP6 MULMOD EQ AND SWAP5 POP DUP3 PUSH2 0x8C0 MSTORE DUP2 PUSH2 0x8E0 MSTORE POP POP POP PUSH32 0x30644E72E131A029B85045B68181585D97816A916871CA8D3C208C16D87CFD47 PUSH2 0x1E4 DUP6 ADD CALLDATALOAD MOD PUSH32 0x30644E72E131A029B85045B68181585D97816A916871CA8D3C208C16D87CFD47 PUSH2 0x204 DUP7 ADD CALLDATALOAD MOD PUSH32 0x30644E72E131A029B85045B68181585D97816A916871CA8D3C208C16D87CFD47 DUP3 DUP4 MULMOD DUP5 PUSH32 0x30644E72E131A029B85045B68181585D97816A916871CA8D3C208C16D87CFD47 PUSH1 0x3 PUSH32 0x30644E72E131A029B85045B68181585D97816A916871CA8D3C208C16D87CFD47 DUP5 DUP8 MULMOD ADDMOD PUSH32 0x30644E72E131A029B85045B68181585D97816A916871CA8D3C208C16D87CFD47 DUP5 DUP6 MULMOD EQ AND SWAP5 POP DUP3 PUSH2 0x900 MSTORE DUP2 PUSH2 0x920 MSTORE POP POP POP PUSH32 0x30644E72E131A029B85045B68181585D97816A916871CA8D3C208C16D87CFD47 PUSH2 0x224 DUP6 ADD CALLDATALOAD MOD PUSH32 0x30644E72E131A029B85045B68181585D97816A916871CA8D3C208C16D87CFD47 PUSH2 0x244 DUP7 ADD CALLDATALOAD MOD PUSH32 0x30644E72E131A029B85045B68181585D97816A916871CA8D3C208C16D87CFD47 DUP3 DUP4 MULMOD DUP5 PUSH32 0x30644E72E131A029B85045B68181585D97816A916871CA8D3C208C16D87CFD47 PUSH1 0x3 PUSH32 0x30644E72E131A029B85045B68181585D97816A916871CA8D3C208C16D87CFD47 DUP5 DUP8 MULMOD ADDMOD PUSH32 0x30644E72E131A029B85045B68181585D97816A916871CA8D3C208C16D87CFD47 DUP5 DUP6 MULMOD EQ AND SWAP5 POP DUP3 PUSH2 0x940 MSTORE DUP2 PUSH2 0x960 MSTORE POP POP POP PUSH32 0x30644E72E131A029B85045B68181585D97816A916871CA8D3C208C16D87CFD47 PUSH2 0x264 DUP6 ADD CALLDATALOAD MOD PUSH32 0x30644E72E131A029B85045B68181585D97816A916871CA8D3C208C16D87CFD47 PUSH2 0x284 DUP7 ADD CALLDATALOAD MOD PUSH32 0x30644E72E131A029B85045B68181585D97816A916871CA8D3C208C16D87CFD47 DUP3 DUP4 MULMOD DUP5 PUSH32 0x30644E72E131A029B85045B68181585D97816A916871CA8D3C208C16D87CFD47 PUSH1 0x3 PUSH32 0x30644E72E131A029B85045B68181585D97816A916871CA8D3C208C16D87CFD47 DUP5 DUP8 MULMOD ADDMOD PUSH32 0x30644E72E131A029B85045B68181585D97816A916871CA8D3C208C16D87CFD47 DUP5 DUP6 MULMOD EQ AND SWAP5 POP DUP3 PUSH2 0x980 MSTORE DUP2 PUSH2 0x9A0 MSTORE POP POP POP PUSH32 0x30644E72E131A029B85045B68181585D97816A916871CA8D3C208C16D87CFD47 PUSH2 0x2A4 DUP6 ADD CALLDATALOAD MOD PUSH32 0x30644E72E131A029B85045B68181585D97816A916871CA8D3C208C16D87CFD47 PUSH2 0x2C4 DUP7 ADD CALLDATALOAD MOD PUSH32 0x30644E72E131A029B85045B68181585D97816A916871CA8D3C208C16D87CFD47 DUP3 DUP4 MULMOD DUP5 PUSH32 0x30644E72E131A029B85045B68181585D97816A916871CA8D3C208C16D87CFD47 PUSH1 0x3 PUSH32 0x30644E72E131A029B85045B68181585D97816A916871CA8D3C208C16D87CFD47 DUP5 DUP8 MULMOD ADDMOD PUSH32 0x30644E72E131A029B85045B68181585D97816A916871CA8D3C208C16D87CFD47 DUP5 DUP6 MULMOD EQ AND SWAP5 POP DUP3 PUSH2 0x9C0 MSTORE DUP2 PUSH2 0x9E0 MSTORE POP POP POP PUSH32 0x30644E72E131A029B85045B68181585D2833E84879B9709143E1F593F0000001 PUSH2 0x2E4 DUP6 ADD CALLDATALOAD MOD PUSH2 0xA00 MSTORE PUSH32 0x30644E72E131A029B85045B68181585D2833E84879B9709143E1F593F0000001 PUSH2 0x304 DUP6 ADD CALLDATALOAD MOD PUSH2 0xA20 MSTORE PUSH32 0x30644E72E131A029B85045B68181585D2833E84879B9709143E1F593F0000001 PUSH2 0x324 DUP6 ADD CALLDATALOAD MOD PUSH2 0xA40 MSTORE PUSH32 0x30644E72E131A029B85045B68181585D2833E84879B9709143E1F593F0000001 PUSH2 0x344 DUP6 ADD CALLDATALOAD MOD PUSH2 0xA60 MSTORE PUSH32 0x30644E72E131A029B85045B68181585D2833E84879B9709143E1F593F0000001 PUSH2 0x364 DUP6 ADD CALLDATALOAD MOD PUSH2 0xA80 MSTORE PUSH32 0x30644E72E131A029B85045B68181585D2833E84879B9709143E1F593F0000001 PUSH2 0x384 DUP6 ADD CALLDATALOAD MOD PUSH2 0xAA0 MSTORE PUSH32 0x30644E72E131A029B85045B68181585D2833E84879B9709143E1F593F0000001 PUSH2 0x3A4 DUP6 ADD CALLDATALOAD MOD PUSH2 0xAC0 MSTORE PUSH32 0x30644E72E131A029B85045B68181585D2833E84879B9709143E1F593F0000001 PUSH2 0x3C4 DUP6 ADD CALLDATALOAD MOD PUSH2 0xAE0 MSTORE PUSH32 0x30644E72E131A029B85045B68181585D2833E84879B9709143E1F593F0000001 PUSH2 0x3E4 DUP6 ADD CALLDATALOAD MOD PUSH2 0xB00 MSTORE PUSH32 0x30644E72E131A029B85045B68181585D2833E84879B9709143E1F593F0000001 PUSH2 0x404 DUP6 ADD CALLDATALOAD MOD PUSH2 0xB20 MSTORE PUSH32 0x30644E72E131A029B85045B68181585D2833E84879B9709143E1F593F0000001 PUSH2 0x424 DUP6 ADD CALLDATALOAD MOD PUSH2 0xB40 MSTORE PUSH32 0x30644E72E131A029B85045B68181585D2833E84879B9709143E1F593F0000001 PUSH2 0x444 DUP6 ADD CALLDATALOAD MOD PUSH2 0xB60 MSTORE PUSH32 0x30644E72E131A029B85045B68181585D2833E84879B9709143E1F593F0000001 PUSH2 0x464 DUP6 ADD CALLDATALOAD MOD PUSH2 0xB80 MSTORE PUSH32 0x30644E72E131A029B85045B68181585D2833E84879B9709143E1F593F0000001 PUSH2 0x484 DUP6 ADD CALLDATALOAD MOD PUSH2 0xBA0 MSTORE PUSH32 0x30644E72E131A029B85045B68181585D2833E84879B9709143E1F593F0000001 PUSH2 0x4A4 DUP6 ADD CALLDATALOAD MOD PUSH2 0xBC0 MSTORE PUSH32 0x30644E72E131A029B85045B68181585D2833E84879B9709143E1F593F0000001 PUSH2 0x4C4 DUP6 ADD CALLDATALOAD MOD PUSH2 0xBE0 MSTORE PUSH32 0x30644E72E131A029B85045B68181585D2833E84879B9709143E1F593F0000001 PUSH2 0x4E4 DUP6 ADD CALLDATALOAD MOD PUSH2 0xC00 MSTORE PUSH32 0x30644E72E131A029B85045B68181585D2833E84879B9709143E1F593F0000001 PUSH2 0x504 DUP6 ADD CALLDATALOAD MOD PUSH2 0xC20 MSTORE PUSH32 0x30644E72E131A029B85045B68181585D97816A916871CA8D3C208C16D87CFD47 PUSH2 0x524 DUP6 ADD CALLDATALOAD MOD PUSH32 0x30644E72E131A029B85045B68181585D97816A916871CA8D3C208C16D87CFD47 PUSH2 0x544 DUP7 ADD CALLDATALOAD MOD PUSH32 0x30644E72E131A029B85045B68181585D97816A916871CA8D3C208C16D87CFD47 DUP3 DUP4 MULMOD DUP5 PUSH32 0x30644E72E131A029B85045B68181585D97816A916871CA8D3C208C16D87CFD47 PUSH1 0x3 PUSH32 0x30644E72E131A029B85045B68181585D97816A916871CA8D3C208C16D87CFD47 DUP5 DUP8 MULMOD ADDMOD PUSH32 0x30644E72E131A029B85045B68181585D97816A916871CA8D3C208C16D87CFD47 DUP5 DUP6 MULMOD EQ AND SWAP5 POP DUP3 PUSH2 0xC40 MSTORE DUP2 PUSH2 0xC60 MSTORE POP POP POP PUSH32 0x30644E72E131A029B85045B68181585D97816A916871CA8D3C208C16D87CFD47 PUSH2 0x564 DUP6 ADD CALLDATALOAD MOD PUSH32 0x30644E72E131A029B85045B68181585D97816A916871CA8D3C208C16D87CFD47 PUSH2 0x584 DUP7 ADD CALLDATALOAD MOD PUSH32 0x30644E72E131A029B85045B68181585D97816A916871CA8D3C208C16D87CFD47 DUP3 DUP4 MULMOD DUP5 PUSH32 0x30644E72E131A029B85045B68181585D97816A916871CA8D3C208C16D87CFD47 PUSH1 0x3 PUSH32 0x30644E72E131A029B85045B68181585D97816A916871CA8D3C208C16D87CFD47 DUP5 DUP8 MULMOD ADDMOD PUSH32 0x30644E72E131A029B85045B68181585D97816A916871CA8D3C208C16D87CFD47 DUP5 DUP6 MULMOD EQ AND SWAP5 POP DUP3 PUSH2 0xC80 MSTORE DUP2 PUSH2 0xCA0 MSTORE POP POP POP PUSH1 0x44 CALLDATALOAD SWAP4 POP PUSH1 0x4 DUP5 ADD CALLDATALOAD PUSH2 0x700 MLOAD PUSH0 DUP2 EQ PUSH2 0x15AC JUMPI DUP4 PUSH1 0x4 DUP4 EQ AND SWAP4 POP PUSH32 0x30644E72E131A029B85045B68181585D97816A916871CA8D3C208C16D87CFD47 PUSH1 0x24 DUP8 ADD CALLDATALOAD MOD PUSH32 0x30644E72E131A029B85045B68181585D97816A916871CA8D3C208C16D87CFD47 PUSH1 0x44 DUP9 ADD CALLDATALOAD MOD PUSH32 0x30644E72E131A029B85045B68181585D97816A916871CA8D3C208C16D87CFD47 DUP3 DUP4 MULMOD DUP7 PUSH32 0x30644E72E131A029B85045B68181585D97816A916871CA8D3C208C16D87CFD47 PUSH1 0x3 PUSH32 0x30644E72E131A029B85045B68181585D97816A916871CA8D3C208C16D87CFD47 DUP5 DUP8 MULMOD ADDMOD PUSH32 0x30644E72E131A029B85045B68181585D97816A916871CA8D3C208C16D87CFD47 DUP5 DUP6 MULMOD EQ AND SWAP7 POP DUP3 PUSH2 0xCC0 MSTORE DUP2 PUSH2 0xCE0 MSTORE POP POP POP PUSH32 0x30644E72E131A029B85045B68181585D97816A916871CA8D3C208C16D87CFD47 PUSH1 0x64 DUP8 ADD CALLDATALOAD MOD PUSH32 0x30644E72E131A029B85045B68181585D97816A916871CA8D3C208C16D87CFD47 PUSH1 0x84 DUP9 ADD CALLDATALOAD MOD PUSH32 0x30644E72E131A029B85045B68181585D97816A916871CA8D3C208C16D87CFD47 DUP3 DUP4 MULMOD DUP7 PUSH32 0x30644E72E131A029B85045B68181585D97816A916871CA8D3C208C16D87CFD47 PUSH1 0x3 PUSH32 0x30644E72E131A029B85045B68181585D97816A916871CA8D3C208C16D87CFD47 DUP5 DUP8 MULMOD ADDMOD PUSH32 0x30644E72E131A029B85045B68181585D97816A916871CA8D3C208C16D87CFD47 DUP5 DUP6 MULMOD EQ AND SWAP7 POP DUP3 PUSH2 0xD00 MSTORE DUP2 PUSH2 0xD20 MSTORE POP POP POP PUSH2 0x15B3 JUMP JUMPDEST DUP4 DUP3 ISZERO AND SWAP4 POP JUMPDEST POP DUP3 PUSH2 0x15E5 JUMPI PUSH2 0x15E4 PUSH32 0x6C6F616450726F6F663A2050726F6F6620697320696E76616C69640000000000 PUSH1 0x1B PUSH2 0x94 JUMP JUMPDEST JUMPDEST POP POP POP POP POP JUMP JUMPDEST PUSH2 0x15F8 PUSH2 0x720 MLOAD PUSH2 0x39D JUMP JUMPDEST PUSH2 0x1604 PUSH2 0x740 MLOAD PUSH2 0x39D JUMP JUMPDEST PUSH2 0x1610 PUSH2 0x760 MLOAD PUSH2 0x39D JUMP JUMPDEST PUSH2 0x161C PUSH2 0x780 MLOAD PUSH2 0x39D JUMP JUMPDEST PUSH2 0x1628 PUSH2 0x7A0 MLOAD PUSH2 0x39D JUMP JUMPDEST PUSH2 0x1634 PUSH2 0x7C0 MLOAD PUSH2 0x39D JUMP JUMPDEST PUSH2 0x1640 PUSH2 0x7E0 MLOAD PUSH2 0x39D JUMP JUMPDEST PUSH2 0x164C PUSH2 0x800 MLOAD PUSH2 0x39D JUMP JUMPDEST PUSH2 0x1658 PUSH2 0x820 MLOAD PUSH2 0x39D JUMP JUMPDEST PUSH2 0x1661 PUSH0 PUSH2 0x3C8 JUMP JUMPDEST PUSH2 0xF00 MSTORE PUSH2 0x1671 PUSH2 0x880 MLOAD PUSH2 0x39D JUMP JUMPDEST PUSH2 0x167D PUSH2 0x8A0 MLOAD PUSH2 0x39D JUMP JUMPDEST PUSH2 0x1687 PUSH1 0x1 PUSH2 0x3C8 JUMP JUMPDEST PUSH2 0xDE0 MSTORE PUSH2 0x1695 PUSH1 0x2 PUSH2 0x3C8 JUMP JUMPDEST PUSH2 0xE00 MSTORE PUSH2 0x16A5 PUSH2 0x840 MLOAD PUSH2 0x39D JUMP JUMPDEST PUSH2 0x16B1 PUSH2 0x860 MLOAD PUSH2 0x39D JUMP JUMPDEST PUSH2 0x16BB PUSH1 0x3 PUSH2 0x3C8 JUMP JUMPDEST PUSH2 0xF20 MSTORE PUSH2 0x16C9 PUSH1 0x4 PUSH2 0x3C8 JUMP JUMPDEST PUSH2 0xF40 MSTORE PUSH2 0x16D9 PUSH2 0x8C0 MLOAD PUSH2 0x39D JUMP JUMPDEST PUSH2 0x16E5 PUSH2 0x8E0 MLOAD PUSH2 0x39D JUMP JUMPDEST PUSH2 0x16EF PUSH1 0x5 PUSH2 0x3C8 JUMP JUMPDEST PUSH2 0xDC0 MSTORE PUSH2 0x16FF PUSH2 0x900 MLOAD PUSH2 0x39D JUMP JUMPDEST PUSH2 0x170B PUSH2 0x920 MLOAD PUSH2 0x39D JUMP JUMPDEST PUSH2 0x1717 PUSH2 0x940 MLOAD PUSH2 0x39D JUMP JUMPDEST PUSH2 0x1723 PUSH2 0x960 MLOAD PUSH2 0x39D JUMP JUMPDEST PUSH2 0x172F PUSH2 0x980 MLOAD PUSH2 0x39D JUMP JUMPDEST PUSH2 0x173B PUSH2 0x9A0 MLOAD PUSH2 0x39D JUMP JUMPDEST PUSH2 0x1747 PUSH2 0x9C0 MLOAD PUSH2 0x39D JUMP JUMPDEST PUSH2 0x1753 PUSH2 0x9E0 MLOAD PUSH2 0x39D JUMP JUMPDEST PUSH2 0x175D PUSH1 0x6 PUSH2 0x3C8 JUMP JUMPDEST DUP1 PUSH2 0xFE0 MSTORE PUSH2 0x1770 PUSH4 0x4000000 DUP3 PUSH2 0xC9 JUMP JUMPDEST PUSH2 0x1060 MSTORE POP PUSH2 0x1781 PUSH2 0xC00 MLOAD PUSH2 0x39D JUMP JUMPDEST PUSH2 0x178D PUSH2 0xA00 MLOAD PUSH2 0x39D JUMP JUMPDEST PUSH2 0x1799 PUSH2 0xA20 MLOAD PUSH2 0x39D JUMP JUMPDEST PUSH2 0x17A5 PUSH2 0xA40 MLOAD PUSH2 0x39D JUMP JUMPDEST PUSH2 0x17B1 PUSH2 0xA60 MLOAD PUSH2 0x39D JUMP JUMPDEST PUSH2 0x17BD PUSH2 0xA80 MLOAD PUSH2 0x39D JUMP JUMPDEST PUSH2 0x17C9 PUSH2 0xAA0 MLOAD PUSH2 0x39D JUMP JUMPDEST PUSH2 0x17D5 PUSH2 0xAC0 MLOAD PUSH2 0x39D JUMP JUMPDEST PUSH2 0x17E1 PUSH2 0xAE0 MLOAD PUSH2 0x39D JUMP JUMPDEST PUSH2 0x17ED PUSH2 0xB00 MLOAD PUSH2 0x39D JUMP JUMPDEST PUSH2 0x17F9 PUSH2 0xB20 MLOAD PUSH2 0x39D JUMP JUMPDEST PUSH2 0x1805 PUSH2 0xB80 MLOAD PUSH2 0x39D JUMP JUMPDEST PUSH2 0x1811 PUSH2 0xBC0 MLOAD PUSH2 0x39D JUMP JUMPDEST PUSH2 0x181D PUSH2 0xBE0 MLOAD PUSH2 0x39D JUMP JUMPDEST PUSH2 0x1829 PUSH2 0xB40 MLOAD PUSH2 0x39D JUMP JUMPDEST PUSH2 0x1835 PUSH2 0xB60 MLOAD PUSH2 0x39D JUMP JUMPDEST PUSH2 0x1841 PUSH2 0xBA0 MLOAD PUSH2 0x39D JUMP JUMPDEST PUSH2 0x184D PUSH2 0xC20 MLOAD PUSH2 0x39D JUMP JUMPDEST PUSH2 0x1857 PUSH1 0x7 PUSH2 0x3C8 JUMP JUMPDEST PUSH2 0xFA0 MSTORE PUSH2 0x1867 PUSH2 0xC40 MLOAD PUSH2 0x39D JUMP JUMPDEST PUSH2 0x1873 PUSH2 0xC60 MLOAD PUSH2 0x39D JUMP JUMPDEST PUSH2 0x187F PUSH2 0xC80 MLOAD PUSH2 0x39D JUMP JUMPDEST PUSH2 0x188B PUSH2 0xCA0 MLOAD PUSH2 0x39D JUMP JUMPDEST PUSH2 0x1895 PUSH1 0x8 PUSH2 0x3C8 JUMP JUMPDEST PUSH2 0xFC0 MSTORE JUMP JUMPDEST PUSH2 0xDC0 MLOAD PUSH32 0x30644E72E131A029B85045B68181585D2833E84879B9709143E1F593F0000001 DUP2 DUP3 MULMOD DUP1 PUSH2 0xE20 MSTORE PUSH32 0x30644E72E131A029B85045B68181585D2833E84879B9709143E1F593F0000001 DUP3 DUP3 MULMOD SWAP1 POP DUP1 PUSH2 0xE40 MSTORE PUSH32 0x30644E72E131A029B85045B68181585D2833E84879B9709143E1F593F0000001 DUP3 DUP3 MULMOD SWAP1 POP DUP1 PUSH2 0xE60 MSTORE PUSH32 0x30644E72E131A029B85045B68181585D2833E84879B9709143E1F593F0000001 DUP3 DUP3 MULMOD SWAP1 POP DUP1 PUSH2 0xE80 MSTORE PUSH32 0x30644E72E131A029B85045B68181585D2833E84879B9709143E1F593F0000001 DUP3 DUP3 MULMOD SWAP1 POP DUP1 PUSH2 0xEA0 MSTORE PUSH32 0x30644E72E131A029B85045B68181585D2833E84879B9709143E1F593F0000001 DUP3 DUP3 MULMOD SWAP1 POP DUP1 PUSH2 0xEC0 MSTORE PUSH32 0x30644E72E131A029B85045B68181585D2833E84879B9709143E1F593F0000001 DUP3 DUP3 MULMOD SWAP1 POP DUP1 PUSH2 0xEE0 MSTORE POP POP PUSH2 0xFE0 MLOAD PUSH2 0x19DA DUP2 PUSH0 PUSH2 0x1B72 JUMP JUMPDEST PUSH2 0x1020 MSTORE PUSH2 0x19EF DUP2 PUSH1 0x1 PUSH4 0x4000000 SUB PUSH2 0x1B72 JUMP JUMPDEST PUSH2 0x1040 MSTORE PUSH32 0x30644E72E131A029B85045B68181585D2833E84879B9709143E1F593F0000001 PUSH2 0x720 MLOAD PUSH2 0x1020 MLOAD MULMOD PUSH32 0x30644E72E131A029B85045B68181585D2833E84879B9709143E1F593F0000001 PUSH2 0xAA0 MLOAD DUP3 MULMOD PUSH32 0x30644E72E131A029B85045B68181585D2833E84879B9709143E1F593F0000001 PUSH2 0x1A6D PUSH2 0x1D22 JUMP JUMPDEST DUP3 ADDMOD SWAP1 POP PUSH32 0x30644E72E131A029B85045B68181585D2833E84879B9709143E1F593F0000001 PUSH2 0x1A9A PUSH2 0x1FFF JUMP JUMPDEST DUP3 ADDMOD SWAP1 POP PUSH32 0x30644E72E131A029B85045B68181585D2833E84879B9709143E1F593F0000001 DUP2 PUSH2 0xC20 MLOAD ADDMOD SWAP1 POP PUSH32 0x30644E72E131A029B85045B68181585D2833E84879B9709143E1F593F0000001 PUSH1 0x1 PUSH32 0x30644E72E131A029B85045B68181585D2833E84879B9709143E1F593F0000001 SUB PUSH2 0x1060 MLOAD ADDMOD PUSH32 0x30644E72E131A029B85045B68181585D2833E84879B9709143E1F593F0000001 DUP2 PUSH2 0xC00 MLOAD MULMOD DUP3 DUP2 EQ PUSH2 0x1B6B JUMPI PUSH2 0x1B6A PUSH32 0x696E76616C69642071756F7469656E74206576616C756174696F6E0000000000 PUSH1 0x1B PUSH2 0x94 JUMP JUMPDEST JUMPDEST POP POP POP POP POP JUMP JUMPDEST PUSH0 PUSH1 0x1 DUP3 ISZERO PUSH2 0x1BA8 JUMPI PUSH2 0x1BA5 DUP4 PUSH32 0x1DBA8B5BDD64EF6CE29A9039ACA3C0E524395C43B9227B96C75090CC6CC7EC97 PUSH2 0xC9 JUMP JUMPDEST SWAP1 POP JUMPDEST PUSH32 0x30644E72E131A029B85045B68181585D2833E84879B9709143E1F593F0000001 PUSH1 0x1 PUSH32 0x30644E72E131A029B85045B68181585D2833E84879B9709143E1F593F0000001 SUB PUSH2 0x1BFB PUSH4 0x4000000 DUP8 PUSH2 0xC9 JUMP JUMPDEST ADDMOD SWAP2 POP DUP2 PUSH2 0x1C2F JUMPI PUSH2 0x1C2E PUSH32 0x696E76616C69642076616E697368696E6720706F6C796E6F6D69616C00000000 PUSH1 0x1C PUSH2 0x94 JUMP JUMPDEST JUMPDEST PUSH32 0x30644E72E131A029B85045B68181585D2833E84879B9709143E1F593F0000001 DUP2 DUP4 MULMOD SWAP2 POP PUSH32 0x30644E72E131A029B85045B68181585D2833E84879B9709143E1F593F0000001 DUP2 PUSH32 0x30644E72E131A029B85045B68181585D2833E84879B9709143E1F593F0000001 SUB DUP6 ADDMOD PUSH32 0x30644E72E131A029B85045B68181585D2833E84879B9709143E1F593F0000001 PUSH4 0x4000000 DUP3 MULMOD SWAP1 POP PUSH2 0x1CF2 PUSH1 0x2 PUSH32 0x30644E72E131A029B85045B68181585D2833E84879B9709143E1F593F0000001 SUB DUP3 PUSH2 0xC9 JUMP JUMPDEST SWAP1 POP PUSH32 0x30644E72E131A029B85045B68181585D2833E84879B9709143E1F593F0000001 DUP2 DUP5 MULMOD SWAP3 POP POP POP SWAP3 SWAP2 POP POP JUMP JUMPDEST PUSH0 PUSH32 0x30644E72E131A029B85045B68181585D2833E84879B9709143E1F593F0000001 PUSH2 0xB20 MLOAD PUSH2 0xE60 MLOAD MULMOD SWAP1 POP PUSH2 0xE00 MLOAD PUSH2 0xDE0 MLOAD PUSH0 PUSH32 0x30644E72E131A029B85045B68181585D2833E84879B9709143E1F593F0000001 DUP3 PUSH2 0xAC0 MLOAD MULMOD SWAP1 POP PUSH32 0x30644E72E131A029B85045B68181585D2833E84879B9709143E1F593F0000001 DUP4 DUP3 ADDMOD SWAP1 POP PUSH32 0x30644E72E131A029B85045B68181585D2833E84879B9709143E1F593F0000001 PUSH2 0xA00 MLOAD DUP3 ADDMOD SWAP1 POP PUSH32 0x30644E72E131A029B85045B68181585D2833E84879B9709143E1F593F0000001 DUP2 DUP6 MULMOD SWAP4 POP PUSH32 0x30644E72E131A029B85045B68181585D2833E84879B9709143E1F593F0000001 DUP3 PUSH2 0xAE0 MLOAD MULMOD SWAP1 POP PUSH32 0x30644E72E131A029B85045B68181585D2833E84879B9709143E1F593F0000001 DUP4 DUP3 ADDMOD SWAP1 POP PUSH32 0x30644E72E131A029B85045B68181585D2833E84879B9709143E1F593F0000001 PUSH2 0xA20 MLOAD DUP3 ADDMOD SWAP1 POP PUSH32 0x30644E72E131A029B85045B68181585D2833E84879B9709143E1F593F0000001 DUP2 DUP6 MULMOD SWAP4 POP PUSH32 0x30644E72E131A029B85045B68181585D2833E84879B9709143E1F593F0000001 DUP3 PUSH2 0xB00 MLOAD MULMOD SWAP1 POP PUSH32 0x30644E72E131A029B85045B68181585D2833E84879B9709143E1F593F0000001 DUP4 DUP3 ADDMOD SWAP1 POP PUSH32 0x30644E72E131A029B85045B68181585D2833E84879B9709143E1F593F0000001 PUSH2 0xA40 MLOAD DUP3 ADDMOD SWAP1 POP PUSH32 0x30644E72E131A029B85045B68181585D2833E84879B9709143E1F593F0000001 DUP2 DUP6 MULMOD SWAP4 POP PUSH32 0x30644E72E131A029B85045B68181585D2833E84879B9709143E1F593F0000001 DUP1 DUP5 PUSH2 0xA60 MLOAD ADDMOD DUP6 MULMOD SWAP4 POP POP POP POP DUP1 PUSH32 0x30644E72E131A029B85045B68181585D2833E84879B9709143E1F593F0000001 SUB SWAP1 POP PUSH2 0x1020 MLOAD PUSH32 0x30644E72E131A029B85045B68181585D2833E84879B9709143E1F593F0000001 PUSH2 0xE80 MLOAD DUP3 MULMOD SWAP1 POP PUSH32 0x30644E72E131A029B85045B68181585D2833E84879B9709143E1F593F0000001 DUP2 PUSH32 0x30644E72E131A029B85045B68181585D2833E84879B9709143E1F593F0000001 SUB DUP4 ADDMOD SWAP2 POP POP SWAP1 JUMP JUMPDEST PUSH0 PUSH2 0xF20 MLOAD PUSH2 0xF40 MLOAD PUSH32 0x30644E72E131A029B85045B68181585D2833E84879B9709143E1F593F0000001 PUSH1 0x1 DUP4 ADDMOD PUSH32 0x30644E72E131A029B85045B68181585D2833E84879B9709143E1F593F0000001 DUP3 DUP3 MULMOD DUP2 PUSH2 0xF60 MSTORE DUP1 PUSH2 0xF80 MSTORE PUSH32 0x30644E72E131A029B85045B68181585D2833E84879B9709143E1F593F0000001 DUP5 PUSH2 0xB40 MLOAD MULMOD SWAP5 POP PUSH32 0x30644E72E131A029B85045B68181585D2833E84879B9709143E1F593F0000001 DUP2 DUP7 ADDMOD SWAP5 POP PUSH32 0x30644E72E131A029B85045B68181585D2833E84879B9709143E1F593F0000001 PUSH2 0xB60 MLOAD DUP7 MULMOD SWAP5 POP PUSH32 0x30644E72E131A029B85045B68181585D2833E84879B9709143E1F593F0000001 PUSH2 0xEA0 MLOAD DUP7 MULMOD SWAP5 POP PUSH2 0x212D PUSH1 0x1 PUSH4 0x4000000 SUB PUSH32 0x1DBA8B5BDD64EF6CE29A9039ACA3C0E524395C43B9227B96C75090CC6CC7EC97 PUSH2 0xC9 JUMP JUMPDEST PUSH32 0x30644E72E131A029B85045B68181585D2833E84879B9709143E1F593F0000001 DUP2 PUSH32 0x30644E72E131A029B85045B68181585D2833E84879B9709143E1F593F0000001 SUB PUSH2 0xFE0 MLOAD ADDMOD DUP1 PUSH2 0x1000 MSTORE PUSH32 0x30644E72E131A029B85045B68181585D2833E84879B9709143E1F593F0000001 DUP2 DUP9 MULMOD SWAP7 POP POP POP PUSH32 0x30644E72E131A029B85045B68181585D2833E84879B9709143E1F593F0000001 PUSH2 0xEC0 MLOAD PUSH2 0x1020 MLOAD MULMOD PUSH32 0x30644E72E131A029B85045B68181585D2833E84879B9709143E1F593F0000001 DUP2 PUSH32 0x30644E72E131A029B85045B68181585D2833E84879B9709143E1F593F0000001 SUB DUP8 ADDMOD SWAP6 POP POP PUSH2 0x1040 MLOAD PUSH2 0x222B PUSH1 0x1 PUSH4 0x4000000 SUB DUP4 PUSH2 0xC9 JUMP JUMPDEST PUSH2 0xEE0 MLOAD PUSH32 0x30644E72E131A029B85045B68181585D2833E84879B9709143E1F593F0000001 DUP2 PUSH32 0x30644E72E131A029B85045B68181585D2833E84879B9709143E1F593F0000001 DUP5 DUP7 MULMOD MULMOD PUSH32 0x30644E72E131A029B85045B68181585D2833E84879B9709143E1F593F0000001 DUP2 PUSH32 0x30644E72E131A029B85045B68181585D2833E84879B9709143E1F593F0000001 SUB DUP11 ADDMOD SWAP9 POP POP POP POP POP POP POP POP POP SWAP1 JUMP JUMPDEST PUSH2 0x22D6 DUP2 DUP4 PUSH2 0x200 PUSH2 0x147 JUMP JUMPDEST PUSH2 0x22E3 DUP2 DUP5 PUSH2 0x240 PUSH2 0x2BE JUMP JUMPDEST PUSH2 0x22F0 DUP2 DUP6 PUSH2 0x280 PUSH2 0x2BE JUMP JUMPDEST PUSH2 0x22FD DUP2 DUP7 PUSH2 0x2C0 PUSH2 0x2BE JUMP JUMPDEST PUSH2 0x232D DUP2 PUSH32 0x30644E72E131A029B85045B68181585D2833E84879B9709143E1F593F0000001 DUP6 DUP6 MULMOD PUSH2 0x300 PUSH2 0x2BE JUMP JUMPDEST PUSH2 0x235D DUP2 PUSH32 0x30644E72E131A029B85045B68181585D2833E84879B9709143E1F593F0000001 DUP7 DUP6 MULMOD PUSH2 0x340 PUSH2 0x2BE JUMP JUMPDEST PUSH2 0x2369 PUSH2 0x380 DUP3 PUSH2 0x267 JUMP JUMPDEST PUSH2 0x2379 DUP2 PUSH2 0xA80 MLOAD PUSH2 0x3C0 PUSH2 0x2BE JUMP JUMPDEST PUSH32 0x30644E72E131A029B85045B68181585D2833E84879B9709143E1F593F0000001 PUSH2 0xFA0 MLOAD PUSH2 0xAA0 MLOAD MULMOD PUSH2 0x23AE DUP3 DUP3 DUP5 PUSH2 0x147 JUMP JUMPDEST POP POP POP POP POP POP JUMP JUMPDEST PUSH0 DUP1 PUSH32 0x30644E72E131A029B85045B68181585D2833E84879B9709143E1F593F0000001 DUP5 DUP6 MULMOD SWAP2 POP PUSH32 0x30644E72E131A029B85045B68181585D2833E84879B9709143E1F593F0000001 DUP6 PUSH32 0x30644E72E131A029B85045B68181585D2833E84879B9709143E1F593F0000001 SUB DUP4 ADDMOD SWAP2 POP PUSH32 0x30644E72E131A029B85045B68181585D2833E84879B9709143E1F593F0000001 PUSH2 0xDC0 MLOAD DUP4 MULMOD SWAP2 POP PUSH32 0x30644E72E131A029B85045B68181585D2833E84879B9709143E1F593F0000001 DUP6 DUP7 MULMOD SWAP1 POP PUSH32 0x30644E72E131A029B85045B68181585D2833E84879B9709143E1F593F0000001 DUP7 PUSH32 0x30644E72E131A029B85045B68181585D2833E84879B9709143E1F593F0000001 SUB DUP3 ADDMOD SWAP1 POP PUSH32 0x30644E72E131A029B85045B68181585D2833E84879B9709143E1F593F0000001 PUSH2 0xE20 MLOAD DUP3 MULMOD SWAP1 POP PUSH32 0x30644E72E131A029B85045B68181585D2833E84879B9709143E1F593F0000001 DUP2 DUP4 ADDMOD SWAP2 POP PUSH32 0x30644E72E131A029B85045B68181585D2833E84879B9709143E1F593F0000001 DUP5 DUP8 MULMOD SWAP1 POP PUSH32 0x30644E72E131A029B85045B68181585D2833E84879B9709143E1F593F0000001 DUP8 PUSH32 0x30644E72E131A029B85045B68181585D2833E84879B9709143E1F593F0000001 SUB DUP3 ADDMOD SWAP1 POP PUSH32 0x30644E72E131A029B85045B68181585D2833E84879B9709143E1F593F0000001 PUSH2 0xE40 MLOAD DUP3 MULMOD SWAP1 POP PUSH32 0x30644E72E131A029B85045B68181585D2833E84879B9709143E1F593F0000001 DUP2 DUP4 ADDMOD SWAP2 POP PUSH32 0x30644E72E131A029B85045B68181585D2833E84879B9709143E1F593F0000001 PUSH2 0xFA0 MLOAD DUP4 MULMOD SWAP2 POP PUSH2 0x25FF DUP4 DUP4 PUSH2 0x440 PUSH2 0x2BE JUMP JUMPDEST POP POP POP POP POP POP POP JUMP JUMPDEST PUSH2 0xE60 MLOAD PUSH32 0x30644E72E131A029B85045B68181585D2833E84879B9709143E1F593F0000001 PUSH2 0xDE0 MLOAD PUSH2 0xFE0 MLOAD MULMOD PUSH2 0xE00 MLOAD PUSH32 0x30644E72E131A029B85045B68181585D2833E84879B9709143E1F593F0000001 DUP6 PUSH32 0x30644E72E131A029B85045B68181585D2833E84879B9709143E1F593F0000001 DUP4 DUP6 ADDMOD ADDMOD PUSH32 0x30644E72E131A029B85045B68181585D2833E84879B9709143E1F593F0000001 DUP2 DUP6 MULMOD SWAP4 POP PUSH32 0x30644E72E131A029B85045B68181585D2833E84879B9709143E1F593F0000001 DUP8 PUSH32 0x30644E72E131A029B85045B68181585D2833E84879B9709143E1F593F0000001 DUP5 PUSH32 0x30644E72E131A029B85045B68181585D2833E84879B9709143E1F593F0000001 PUSH1 0x5 DUP9 MULMOD ADDMOD ADDMOD SWAP1 POP PUSH32 0x30644E72E131A029B85045B68181585D2833E84879B9709143E1F593F0000001 DUP2 DUP6 MULMOD SWAP4 POP PUSH32 0x30644E72E131A029B85045B68181585D2833E84879B9709143E1F593F0000001 DUP9 PUSH32 0x30644E72E131A029B85045B68181585D2833E84879B9709143E1F593F0000001 DUP5 PUSH32 0x30644E72E131A029B85045B68181585D2833E84879B9709143E1F593F0000001 PUSH1 0x7 DUP9 MULMOD ADDMOD ADDMOD SWAP1 POP PUSH32 0x30644E72E131A029B85045B68181585D2833E84879B9709143E1F593F0000001 DUP2 DUP6 MULMOD SWAP4 POP PUSH32 0x30644E72E131A029B85045B68181585D2833E84879B9709143E1F593F0000001 DUP10 PUSH32 0x30644E72E131A029B85045B68181585D2833E84879B9709143E1F593F0000001 DUP5 PUSH32 0x30644E72E131A029B85045B68181585D2833E84879B9709143E1F593F0000001 PUSH1 0xA DUP9 MULMOD ADDMOD ADDMOD SWAP1 POP PUSH32 0x30644E72E131A029B85045B68181585D2833E84879B9709143E1F593F0000001 DUP2 DUP6 MULMOD SWAP4 POP POP POP POP PUSH2 0x1020 MLOAD PUSH32 0x30644E72E131A029B85045B68181585D2833E84879B9709143E1F593F0000001 DUP1 PUSH2 0xE80 MLOAD DUP4 MULMOD DUP4 ADDMOD SWAP2 POP PUSH32 0x30644E72E131A029B85045B68181585D2833E84879B9709143E1F593F0000001 PUSH2 0xFA0 MLOAD DUP4 MULMOD SWAP2 POP DUP2 PUSH2 0x1340 MSTORE PUSH32 0x30644E72E131A029B85045B68181585D2833E84879B9709143E1F593F0000001 PUSH2 0xDE0 MLOAD PUSH2 0xE60 MLOAD MULMOD SWAP2 POP PUSH32 0x30644E72E131A029B85045B68181585D2833E84879B9709143E1F593F0000001 PUSH2 0xB20 MLOAD DUP4 MULMOD SWAP2 POP PUSH2 0xDE0 MLOAD PUSH2 0xE00 MLOAD PUSH32 0x30644E72E131A029B85045B68181585D2833E84879B9709143E1F593F0000001 DUP7 PUSH32 0x30644E72E131A029B85045B68181585D2833E84879B9709143E1F593F0000001 DUP4 PUSH32 0x30644E72E131A029B85045B68181585D2833E84879B9709143E1F593F0000001 DUP7 PUSH2 0xAC0 MLOAD MULMOD ADDMOD ADDMOD PUSH32 0x30644E72E131A029B85045B68181585D2833E84879B9709143E1F593F0000001 DUP2 DUP7 MULMOD SWAP5 POP PUSH32 0x30644E72E131A029B85045B68181585D2833E84879B9709143E1F593F0000001 DUP9 PUSH32 0x30644E72E131A029B85045B68181585D2833E84879B9709143E1F593F0000001 DUP5 PUSH32 0x30644E72E131A029B85045B68181585D2833E84879B9709143E1F593F0000001 DUP8 PUSH2 0xAE0 MLOAD MULMOD ADDMOD ADDMOD SWAP1 POP PUSH32 0x30644E72E131A029B85045B68181585D2833E84879B9709143E1F593F0000001 DUP2 DUP7 MULMOD SWAP5 POP PUSH32 0x30644E72E131A029B85045B68181585D2833E84879B9709143E1F593F0000001 DUP10 PUSH32 0x30644E72E131A029B85045B68181585D2833E84879B9709143E1F593F0000001 DUP5 PUSH32 0x30644E72E131A029B85045B68181585D2833E84879B9709143E1F593F0000001 DUP8 PUSH2 0xB00 MLOAD MULMOD ADDMOD ADDMOD SWAP1 POP PUSH32 0x30644E72E131A029B85045B68181585D2833E84879B9709143E1F593F0000001 DUP2 DUP7 MULMOD SWAP5 POP POP POP POP PUSH32 0x30644E72E131A029B85045B68181585D2833E84879B9709143E1F593F0000001 PUSH2 0xFA0 MLOAD DUP4 MULMOD SWAP2 POP PUSH2 0x2B16 PUSH2 0x1080 DUP4 PUSH2 0x540 PUSH2 0x147 JUMP JUMPDEST PUSH2 0x2B22 PUSH2 0x1080 DUP5 PUSH2 0x1EE JUMP JUMPDEST POP POP POP POP POP POP POP JUMP JUMPDEST PUSH2 0xB60 MLOAD PUSH32 0x30644E72E131A029B85045B68181585D2833E84879B9709143E1F593F0000001 PUSH2 0xEA0 MLOAD DUP3 MULMOD SWAP1 POP PUSH32 0x30644E72E131A029B85045B68181585D2833E84879B9709143E1F593F0000001 PUSH2 0x1000 MLOAD DUP3 MULMOD SWAP1 POP PUSH32 0x30644E72E131A029B85045B68181585D2833E84879B9709143E1F593F0000001 PUSH2 0xFA0 MLOAD DUP3 MULMOD SWAP1 POP DUP1 PUSH2 0x1380 MSTORE PUSH2 0xBA0 MLOAD SWAP1 POP PUSH32 0x30644E72E131A029B85045B68181585D2833E84879B9709143E1F593F0000001 PUSH2 0xF20 MLOAD DUP3 MULMOD SWAP1 POP PUSH32 0x30644E72E131A029B85045B68181585D2833E84879B9709143E1F593F0000001 PUSH2 0xB80 MLOAD DUP3 ADDMOD SWAP1 POP PUSH32 0x30644E72E131A029B85045B68181585D2833E84879B9709143E1F593F0000001 PUSH2 0xF80 MLOAD DUP3 ADDMOD SWAP1 POP PUSH0 DUP4 SWAP1 POP PUSH2 0xF00 MLOAD DUP1 PUSH32 0x30644E72E131A029B85045B68181585D2833E84879B9709143E1F593F0000001 DUP1 DUP9 DUP4 MULMOD DUP5 ADDMOD SWAP3 POP PUSH32 0x30644E72E131A029B85045B68181585D2833E84879B9709143E1F593F0000001 DUP3 DUP3 MULMOD SWAP1 POP PUSH32 0x30644E72E131A029B85045B68181585D2833E84879B9709143E1F593F0000001 DUP1 DUP10 DUP4 MULMOD DUP5 ADDMOD SWAP3 POP PUSH32 0x30644E72E131A029B85045B68181585D2833E84879B9709143E1F593F0000001 DUP3 DUP3 MULMOD SWAP1 POP PUSH32 0x30644E72E131A029B85045B68181585D2833E84879B9709143E1F593F0000001 DUP1 DUP3 PUSH2 0xBE0 MLOAD MULMOD DUP5 ADDMOD SWAP3 POP PUSH32 0x30644E72E131A029B85045B68181585D2833E84879B9709143E1F593F0000001 PUSH2 0xBC0 MLOAD DUP5 MULMOD SWAP3 POP PUSH32 0x30644E72E131A029B85045B68181585D2833E84879B9709143E1F593F0000001 PUSH2 0xF40 MLOAD DUP5 ADDMOD SWAP3 POP POP POP PUSH32 0x30644E72E131A029B85045B68181585D2833E84879B9709143E1F593F0000001 DUP2 DUP4 MULMOD SWAP2 POP PUSH32 0x30644E72E131A029B85045B68181585D2833E84879B9709143E1F593F0000001 PUSH2 0xF60 MLOAD DUP4 MULMOD SWAP2 POP DUP2 PUSH32 0x30644E72E131A029B85045B68181585D2833E84879B9709143E1F593F0000001 SUB SWAP2 POP PUSH32 0x30644E72E131A029B85045B68181585D2833E84879B9709143E1F593F0000001 PUSH2 0xEA0 MLOAD DUP4 MULMOD SWAP2 POP PUSH32 0x30644E72E131A029B85045B68181585D2833E84879B9709143E1F593F0000001 PUSH2 0x1000 MLOAD DUP4 MULMOD SWAP2 POP PUSH32 0x30644E72E131A029B85045B68181585D2833E84879B9709143E1F593F0000001 DUP1 PUSH2 0xEC0 MLOAD PUSH2 0x1020 MLOAD MULMOD DUP4 ADDMOD SWAP2 POP PUSH32 0x30644E72E131A029B85045B68181585D2833E84879B9709143E1F593F0000001 DUP1 PUSH2 0xEE0 MLOAD PUSH2 0x1040 MLOAD MULMOD DUP4 ADDMOD SWAP2 POP PUSH32 0x30644E72E131A029B85045B68181585D2833E84879B9709143E1F593F0000001 PUSH2 0xFA0 MLOAD DUP4 MULMOD SWAP2 POP DUP2 PUSH2 0x1360 MSTORE POP POP POP POP POP POP JUMP JUMPDEST PUSH2 0x1060 MLOAD DUP1 PUSH2 0x900 MLOAD PUSH2 0x10C0 MSTORE PUSH2 0x920 MLOAD PUSH2 0x10E0 MSTORE PUSH2 0x2ED5 PUSH2 0x10C0 DUP3 PUSH2 0x940 PUSH2 0x2BE JUMP JUMPDEST PUSH32 0x30644E72E131A029B85045B68181585D2833E84879B9709143E1F593F0000001 DUP3 DUP3 MULMOD SWAP1 POP PUSH2 0x2F0A PUSH2 0x10C0 DUP3 PUSH2 0x980 PUSH2 0x2BE JUMP JUMPDEST PUSH32 0x30644E72E131A029B85045B68181585D2833E84879B9709143E1F593F0000001 DUP3 DUP3 MULMOD SWAP1 POP PUSH2 0x2F3F PUSH2 0x10C0 DUP3 PUSH2 0x9C0 PUSH2 0x2BE JUMP JUMPDEST POP POP PUSH2 0xA00 MLOAD PUSH2 0xA20 MLOAD PUSH2 0xA40 MLOAD PUSH2 0xA60 MLOAD PUSH2 0x2F60 DUP2 DUP4 DUP6 DUP8 PUSH2 0x1100 PUSH2 0x22C9 JUMP JUMPDEST PUSH2 0x2F6F DUP2 DUP4 DUP6 DUP8 PUSH2 0x1100 PUSH2 0x23B6 JUMP JUMPDEST PUSH2 0x2F7E DUP2 DUP4 DUP6 DUP8 PUSH2 0x1100 PUSH2 0x2608 JUMP JUMPDEST PUSH2 0x2F8C DUP3 DUP5 DUP7 PUSH2 0x1100 PUSH2 0x2B2B JUMP JUMPDEST POP POP POP POP PUSH2 0x5C0 MLOAD PUSH2 0x1140 MSTORE PUSH2 0x5E0 MLOAD PUSH2 0x1160 MSTORE PUSH2 0xF00 MLOAD DUP1 PUSH2 0x2FB4 PUSH2 0x1140 DUP3 PUSH2 0x600 PUSH2 0x2BE JUMP JUMPDEST PUSH32 0x30644E72E131A029B85045B68181585D2833E84879B9709143E1F593F0000001 DUP3 DUP3 MULMOD SWAP1 POP PUSH2 0x2FE9 PUSH2 0x1140 DUP3 PUSH2 0x640 PUSH2 0x2BE JUMP JUMPDEST PUSH32 0x30644E72E131A029B85045B68181585D2833E84879B9709143E1F593F0000001 DUP3 DUP3 MULMOD SWAP1 POP PUSH2 0x301E PUSH2 0x1140 DUP3 PUSH2 0x680 PUSH2 0x2BE JUMP JUMPDEST POP POP JUMP JUMPDEST PUSH1 0x1 PUSH0 DUP1 PUSH2 0x10C0 MLOAD PUSH2 0x1180 MSTORE PUSH2 0x10E0 MLOAD PUSH2 0x11A0 MSTORE PUSH2 0xC00 MLOAD PUSH2 0x30AA JUMP JUMPDEST PUSH0 DUP1 PUSH32 0x30644E72E131A029B85045B68181585D2833E84879B9709143E1F593F0000001 PUSH2 0xFA0 MLOAD DUP7 MULMOD SWAP2 POP PUSH2 0x3077 PUSH2 0x1180 DUP4 DUP6 PUSH2 0x2BE JUMP JUMPDEST PUSH32 0x30644E72E131A029B85045B68181585D2833E84879B9709143E1F593F0000001 DUP1 DUP6 MLOAD DUP5 MULMOD DUP8 ADDMOD SWAP1 POP SWAP5 POP SWAP5 SWAP3 POP POP POP JUMP JUMPDEST PUSH2 0x30BB PUSH2 0x1180 PUSH2 0x1100 PUSH2 0x1180 PUSH2 0x196 JUMP JUMPDEST PUSH32 0x30644E72E131A029B85045B68181585D2833E84879B9709143E1F593F0000001 PUSH2 0xFA0 MLOAD DUP6 MULMOD SWAP4 POP PUSH32 0x30644E72E131A029B85045B68181585D2833E84879B9709143E1F593F0000001 DUP1 PUSH2 0xC20 MLOAD DUP7 MULMOD DUP3 ADDMOD SWAP1 POP PUSH2 0x3120 DUP2 DUP6 PUSH2 0xA00 PUSH2 0x740 PUSH2 0x303F JUMP JUMPDEST SWAP2 POP SWAP4 POP PUSH2 0x3134 DUP2 DUP6 PUSH2 0xA20 PUSH2 0x780 PUSH2 0x303F JUMP JUMPDEST SWAP2 POP SWAP4 POP PUSH2 0x3148 DUP2 DUP6 PUSH2 0xA40 PUSH2 0x7C0 PUSH2 0x303F JUMP JUMPDEST SWAP2 POP SWAP4 POP PUSH32 0x30644E72E131A029B85045B68181585D2833E84879B9709143E1F593F0000001 PUSH2 0xFA0 MLOAD DUP6 MULMOD SWAP4 POP DUP4 SWAP3 POP PUSH32 0x30644E72E131A029B85045B68181585D2833E84879B9709143E1F593F0000001 DUP1 PUSH2 0xA60 MLOAD DUP7 MULMOD DUP3 ADDMOD SWAP1 POP PUSH2 0x31B4 DUP2 DUP6 PUSH2 0xAA0 PUSH2 0x400 PUSH2 0x303F JUMP JUMPDEST SWAP2 POP SWAP4 POP PUSH2 0x31C8 DUP2 DUP6 PUSH2 0xAC0 PUSH2 0x480 PUSH2 0x303F JUMP JUMPDEST SWAP2 POP SWAP4 POP PUSH2 0x31DC DUP2 DUP6 PUSH2 0xAE0 PUSH2 0x4C0 PUSH2 0x303F JUMP JUMPDEST SWAP2 POP SWAP4 POP PUSH2 0x31F0 DUP2 DUP6 PUSH2 0xB00 PUSH2 0x500 PUSH2 0x303F JUMP JUMPDEST SWAP2 POP SWAP4 POP PUSH32 0x30644E72E131A029B85045B68181585D2833E84879B9709143E1F593F0000001 PUSH2 0xFA0 MLOAD DUP6 MULMOD SWAP4 POP DUP4 SWAP2 POP PUSH32 0x30644E72E131A029B85045B68181585D2833E84879B9709143E1F593F0000001 DUP1 PUSH2 0xB80 MLOAD DUP7 MULMOD DUP3 ADDMOD SWAP1 POP PUSH2 0x325C DUP2 DUP6 PUSH2 0xBC0 PUSH2 0x580 PUSH2 0x303F JUMP JUMPDEST SWAP2 POP SWAP4 POP PUSH2 0x3270 DUP2 DUP6 PUSH2 0xBE0 PUSH2 0x6C0 PUSH2 0x303F JUMP JUMPDEST SWAP2 POP SWAP4 POP DUP1 PUSH2 0x1200 MSTORE PUSH32 0x30644E72E131A029B85045B68181585D2833E84879B9709143E1F593F0000001 PUSH2 0xFA0 MLOAD DUP6 MULMOD SWAP4 POP PUSH32 0x30644E72E131A029B85045B68181585D2833E84879B9709143E1F593F0000001 DUP1 PUSH2 0xFC0 MLOAD DUP7 MULMOD PUSH2 0x1340 MLOAD ADDMOD PUSH2 0x32DE PUSH2 0x11C0 DUP3 PUSH2 0x840 PUSH2 0x147 JUMP JUMPDEST PUSH32 0x30644E72E131A029B85045B68181585D2833E84879B9709143E1F593F0000001 DUP6 PUSH2 0xB20 MLOAD MULMOD PUSH2 0x33A1 JUMP JUMPDEST PUSH0 DUP1 PUSH32 0x30644E72E131A029B85045B68181585D2833E84879B9709143E1F593F0000001 PUSH2 0xFA0 MLOAD DUP8 MULMOD SWAP2 POP PUSH32 0x30644E72E131A029B85045B68181585D2833E84879B9709143E1F593F0000001 DUP1 PUSH2 0xFC0 MLOAD DUP5 MULMOD DUP7 ADDMOD PUSH2 0x336C PUSH2 0x11C0 DUP3 DUP7 PUSH2 0x2BE JUMP JUMPDEST PUSH32 0x30644E72E131A029B85045B68181585D2833E84879B9709143E1F593F0000001 DUP1 DUP7 MLOAD DUP6 MULMOD DUP10 ADDMOD SWAP2 POP POP SWAP6 POP SWAP6 SWAP4 POP POP POP POP JUMP JUMPDEST PUSH2 0x33B2 DUP2 DUP8 DUP8 PUSH2 0xA80 PUSH2 0x800 PUSH2 0x330A JUMP JUMPDEST SWAP2 POP SWAP6 POP PUSH2 0x33CA DUP2 DUP8 PUSH2 0x1380 MLOAD PUSH2 0xB40 PUSH2 0x880 PUSH2 0x330A JUMP JUMPDEST SWAP2 POP SWAP6 POP PUSH2 0x33E2 DUP2 DUP8 PUSH2 0x1360 MLOAD PUSH2 0xB60 PUSH2 0x8C0 PUSH2 0x330A JUMP JUMPDEST SWAP2 POP SWAP6 POP PUSH2 0x33F7 DUP2 DUP8 DUP7 PUSH2 0xBA0 PUSH2 0x1140 PUSH2 0x330A JUMP JUMPDEST SWAP2 POP SWAP6 POP DUP1 PUSH2 0x1220 MSTORE PUSH2 0xFC0 MLOAD PUSH2 0x3415 PUSH2 0x1280 PUSH2 0x11C0 PUSH2 0x1180 PUSH2 0x196 JUMP JUMPDEST PUSH32 0x30644E72E131A029B85045B68181585D2833E84879B9709143E1F593F0000001 PUSH2 0x1200 MLOAD PUSH32 0x30644E72E131A029B85045B68181585D2833E84879B9709143E1F593F0000001 DUP4 PUSH2 0x1220 MLOAD MULMOD ADDMOD PUSH1 0x1 PUSH2 0x1240 MSTORE PUSH1 0x2 PUSH2 0x1260 MSTORE PUSH2 0x347D PUSH2 0x1240 DUP3 PUSH2 0x1240 PUSH2 0x147 JUMP JUMPDEST POP POP POP POP POP POP POP POP JUMP JUMPDEST PUSH2 0xFC0 MLOAD PUSH2 0xFE0 MLOAD PUSH32 0x30644E72E131A029B85045B68181585D2833E84879B9709143E1F593F0000001 PUSH32 0x1DBA8B5BDD64EF6CE29A9039ACA3C0E524395C43B9227B96C75090CC6CC7EC97 PUSH2 0xFE0 MLOAD MULMOD PUSH2 0x34E4 PUSH2 0x1240 PUSH2 0x1280 PUSH2 0x1EE JUMP JUMPDEST PUSH2 0x34F3 PUSH2 0x1280 DUP4 PUSH2 0xC40 PUSH2 0x2BE JUMP JUMPDEST PUSH2 0x3525 PUSH2 0x1280 PUSH32 0x30644E72E131A029B85045B68181585D2833E84879B9709143E1F593F0000001 DUP6 DUP5 MULMOD PUSH2 0xC80 PUSH2 0x2BE JUMP JUMPDEST PUSH2 0xC40 MLOAD PUSH2 0x1300 MSTORE PUSH2 0xC60 MLOAD PUSH2 0x1320 MSTORE PUSH2 0x3544 PUSH2 0x1300 DUP5 PUSH2 0xC80 PUSH2 0x2BE JUMP JUMPDEST PUSH2 0x354F PUSH2 0x1300 PUSH2 0x32A JUMP JUMPDEST PUSH2 0x700 MLOAD ISZERO PUSH2 0x359C JUMPI PUSH32 0x30644E72E131A029B85045B68181585D2833E84879B9709143E1F593F0000001 DUP4 DUP5 MULMOD PUSH2 0x358B PUSH2 0x1280 DUP3 PUSH2 0xCC0 PUSH2 0x2BE JUMP JUMPDEST PUSH2 0x359A PUSH2 0x1300 DUP3 PUSH2 0xD00 PUSH2 0x2BE JUMP JUMPDEST POP JUMPDEST PUSH2 0x1280 MLOAD PUSH0 MSTORE PUSH2 0x12A0 MLOAD PUSH1 0x20 MSTORE PUSH32 0x198E9393920D483A7260BFB731FB5D25F1AA493335A9E71297E485B7AEF312C2 PUSH1 0x40 MSTORE PUSH32 0x1800DEEF121F1E76426A00665E5C4479674322D4F75EDADD46DEBD5CD992F6ED PUSH1 0x60 MSTORE PUSH32 0x90689D0585FF075EC9E99AD690C3395BC4B313370B38EF355ACDADCD122975B PUSH1 0x80 MSTORE PUSH32 0x12C85EA5DB8C6DEB4AAB71808DCB408FE3D1E7690C43D37B4CE6CC0166FA7DAA PUSH1 0xA0 MSTORE PUSH2 0x1300 MLOAD PUSH1 0xC0 MSTORE PUSH2 0x1320 MLOAD PUSH1 0xE0 MSTORE PUSH32 0x260E01B251F6F1C7E7FF4E580791DEE8EA51D87A358E038B4EFE30FAC09383C1 PUSH2 0x100 MSTORE PUSH32 0x118C4D5B837BCC2BC89B5B398B5974E9F5944073B32078B7E231FEC938883B0 PUSH2 0x120 MSTORE PUSH32 0x4FC6369F7110FE3D25156C1BB9A72859CF2A04641F99BA4EE413C80DA6A5FE4 PUSH2 0x140 MSTORE PUSH32 0x22FEBDA3C0C0632A56475B4214E5615E11E6DD3F96E6CEA2854A87D4DACC5E55 PUSH2 0x160 MSTORE PUSH1 0x20 PUSH0 PUSH2 0x180 PUSH0 PUSH1 0x8 GAS STATICCALL DUP1 PUSH2 0x3717 JUMPI PUSH2 0x3716 PUSH32 0x66696E616C50616972696E673A20707265636F6D70696C65206661696C757265 PUSH1 0x20 PUSH2 0x94 JUMP JUMPDEST JUMPDEST PUSH0 MLOAD PUSH2 0x3749 JUMPI PUSH2 0x3748 PUSH32 0x66696E616C50616972696E673A2070616972696E67206661696C757265000000 PUSH1 0x1D PUSH2 0x94 JUMP JUMPDEST JUMPDEST POP POP POP POP JUMP JUMPDEST PUSH2 0x3757 PUSH2 0x406 JUMP JUMPDEST PUSH2 0x375F PUSH2 0x15EC JUMP JUMPDEST PUSH2 0x3767 PUSH2 0x189B JUMP JUMPDEST PUSH2 0x376F PUSH2 0x2EB1 JUMP JUMPDEST PUSH2 0x3777 PUSH2 0x3022 JUMP JUMPDEST PUSH2 0x377F PUSH2 0x3487 JUMP JUMPDEST PUSH1 0x1 PUSH0 MSTORE PUSH1 0x20 PUSH0 RETURN JUMPDEST PUSH0 PUSH2 0x3791 PUSH2 0x37A8 JUMP JUMPDEST PUSH2 0x200 PUSH2 0x700 PUSH1 0x20 DUP3 DUP3 SUB ADD DUP1 DUP4 KECCAK256 SWAP4 POP POP POP POP SWAP1 JUMP JUMPDEST PUSH32 0x13598F50F1A62920416DD9F16D46032CBE810BB384DA5B0FF42BDF6AB1E69662 PUSH2 0x200 MSTORE PUSH32 0x19DF99DFA60FEB4BD15DDB271EFAC0179104C5B7A27078115A91079CA2826D51 PUSH2 0x220 MSTORE PUSH32 0x2CF47B2A9E17EA94BE18ECB13EEC2E5706880527ED0D88FD5969AC069A8AAC06 PUSH2 0x240 MSTORE PUSH32 0x2E3294B57B45A03075EE2E89C9E7D2AB5F261B5E2408578112B6AA7BF12A2E5F PUSH2 0x260 MSTORE PUSH32 0x377DF0615F3F859583CA885861A6C0F885778F0633D082B9883AFCBCB186C6C PUSH2 0x280 MSTORE PUSH32 0xCDE99A920BF69E9FF1D42B719E2895F0DA6D6A334F2A2A4E135CC93BF515A4A PUSH2 0x2A0 MSTORE PUSH32 0x42222CC79AD515FDAE98DDDC09D8E78FC8AF37A69BAF36A04188CA54334C443 PUSH2 0x2C0 MSTORE PUSH32 0xF0158E345C08DA2021B703AAC1B697D2F3553617FEF778BF2C5FAFC40324BE1 PUSH2 0x2E0 MSTORE PUSH32 0x102FAB7A43B3AC26DB87F53BD303CF44D6F7C963046681422C32DEA20A526DF PUSH2 0x300 MSTORE PUSH32 0x221A29C1DF2E5822D060261802073700A285082EBB1263E53814B017A8BFB14B PUSH2 0x320 MSTORE PUSH32 0x269FBE8DA379085E789A60720C12324EE4EFC0F9215BFC30A65134ECBE875682 PUSH2 0x340 MSTORE PUSH32 0x134B14E94B7A719D213A0E7136547ADD67E71723ED82C87E8A0F8926FB002AC PUSH2 0x360 MSTORE PUSH32 0x7D50D604F391C8F7331CE2DF7115AA8A6DB6BCC1AD246255B12DA2E80F7D815 PUSH2 0x380 MSTORE PUSH32 0x16F31EBEFD077F85029A1AF6136A2D63E8E92015EA44BAC6386CB05FC7ACA56E PUSH2 0x3A0 MSTORE PUSH32 0x1CEEDA30B083C5B748A1DBBEFC4B8324E35CB9830C630B8064ECE3A7C30E5F4A PUSH2 0x3C0 MSTORE PUSH31 0x37029B76EB626E15FEFC39FB9C142499E9EE283063B2811AFFF7211B9A0B63 PUSH2 0x3E0 MSTORE PUSH32 0x1885051503E3667EAC61262E28B7CEDD16A619D19E8820A522A269DC98262C69 PUSH2 0x400 MSTORE PUSH32 0xDAF7BFFE99C0357AEFCD6CCAF363CE5096E48D105FC8583E649589CC149183D PUSH2 0x420 MSTORE PUSH32 0x215A735844E0035F245A45154F19635BDC70D8F48EEF46384C2C948002AF0C81 PUSH2 0x440 MSTORE PUSH32 0x1FAECF6813FFBC0A2EEEB50CA035D4542CA557F15E2B82FFFFB24024CF3DF2D1 PUSH2 0x460 MSTORE PUSH32 0x2F24B1FFDEA08385D0CA89B32DB8601B3B95B255903EDCEAC52402DFECE9EEE4 PUSH2 0x480 MSTORE PUSH32 0x1E90E41ECB35E8455C55BF4CFD41E80BB4E5DD845B65C6F77E2AC0821B09A883 PUSH2 0x4A0 MSTORE PUSH32 0x128D006B473B50BC85A1A2707C278E08186E4402010178BF930B7EA24E203ED0 PUSH2 0x4C0 MSTORE PUSH32 0xFA100F35E66D3C2429F1C20BE00FE21B79A65E9DE665BA420EE388EE0B47B3C PUSH2 0x4E0 MSTORE PUSH32 0x3026DE72FD5E47F96C7D0F4F0C15CFD5F50438991FDBB18D4C5D18561B0E87CD PUSH2 0x500 MSTORE PUSH32 0x20162D33D551A2599BE33CFBA40358BDAB4338891CFE7E028355E5A50442B5A4 PUSH2 0x520 MSTORE PUSH32 0xA811F316900D60021C0EF765BCFC2070CC3A8B38B09A3B4BE04E37E292EBAF1 PUSH2 0x540 MSTORE PUSH32 0x192C167388FAA4266CED24B8E3687E81974AA8CAAF1AC3E8A3FAB3947C7B65D1 PUSH2 0x560 MSTORE PUSH32 0x2C513ED74D9D57A5EC901E074032741036353A2C4513422E96E7B53B302D765B PUSH2 0x5C0 MSTORE PUSH32 0x4DD964427E430F16004076D708C0CB21E225056CC1D57418CFBD3D472981468 PUSH2 0x5E0 MSTORE PUSH32 0x1EA83E5E65C6F8068F4677E2911678CF329B28259642A32DB1F14B8347828AAC PUSH2 0x600 MSTORE PUSH32 0x1D22BC884A2DA4962A893BA8DE13F57AAEB785ED52C5E686994839CAB8F7475D PUSH2 0x620 MSTORE PUSH32 0xB2E7212D0D9CFF26D0BDF3D79B2CAC029A25DFEB1CAFDF49E2349D7DB348D89 PUSH2 0x640 MSTORE PUSH32 0x1301F9B252419EA240EB67FDA720CA0B16D92364027285F95E9B1349490FA283 PUSH2 0x660 MSTORE PUSH32 0x2F7B99FDFA5B418548C2D777785820E02383CFC87E7085E280A375A358153BF PUSH2 0x680 MSTORE PUSH32 0x9D004FE08DC4D19C382DF36FAD22EF676185663543703E6A4B40203E50FD8A6 PUSH2 0x6A0 MSTORE PUSH32 0x300223627D9E977C0B02A64B49CB1C6C7833B82E25BACB420EF6F48B6DEEED06 PUSH2 0x580 MSTORE PUSH32 0x2D0BD4B927912E6509088FB7167A30B85BD5D031E75B057B687E62FC6D779F91 PUSH2 0x5A0 MSTORE PUSH31 0x6F5F6969088413E15ABE92418DD7668C6C5FA2DCCA168E71A98D84A9FE39DE PUSH2 0x6C0 MSTORE PUSH32 0x18550C804FADC55861B6A34D5341D594486833E62BD6137089F3335566CA40EE PUSH2 0x6E0 MSTORE PUSH0 PUSH2 0x700 MSTORE JUMP JUMPDEST PUSH0 DUP1 REVERT JUMPDEST PUSH0 DUP1 REVERT JUMPDEST PUSH0 DUP1 REVERT JUMPDEST PUSH0 DUP1 REVERT JUMPDEST PUSH0 DUP1 REVERT JUMPDEST PUSH0 DUP1 DUP4 PUSH1 0x1F DUP5 ADD SLT PUSH2 0x3D9E JUMPI PUSH2 0x3D9D PUSH2 0x3D7D JUMP JUMPDEST JUMPDEST DUP3 CALLDATALOAD SWAP1 POP PUSH8 0xFFFFFFFFFFFFFFFF DUP2 GT ISZERO PUSH2 0x3DBB JUMPI PUSH2 0x3DBA PUSH2 0x3D81 JUMP JUMPDEST JUMPDEST PUSH1 0x20 DUP4 ADD SWAP2 POP DUP4 PUSH1 0x20 DUP3 MUL DUP4 ADD GT ISZERO PUSH2 0x3DD7 JUMPI PUSH2 0x3DD6 PUSH2 0x3D85 JUMP JUMPDEST JUMPDEST SWAP3 POP SWAP3 SWAP1 POP JUMP JUMPDEST PUSH0 DUP1 PUSH0 DUP1 PUSH0 DUP1 PUSH1 0x60 DUP8 DUP10 SUB SLT ISZERO PUSH2 0x3DF8 JUMPI PUSH2 0x3DF7 PUSH2 0x3D75 JUMP JUMPDEST JUMPDEST PUSH0 DUP8 ADD CALLDATALOAD PUSH8 0xFFFFFFFFFFFFFFFF DUP2 GT ISZERO PUSH2 0x3E15 JUMPI PUSH2 0x3E14 PUSH2 0x3D79 JUMP JUMPDEST JUMPDEST PUSH2 0x3E21 DUP10 DUP3 DUP11 ADD PUSH2 0x3D89 JUMP JUMPDEST SWAP7 POP SWAP7 POP POP PUSH1 0x20 DUP8 ADD CALLDATALOAD PUSH8 0xFFFFFFFFFFFFFFFF DUP2 GT ISZERO PUSH2 0x3E44 JUMPI PUSH2 0x3E43 PUSH2 0x3D79 JUMP JUMPDEST JUMPDEST PUSH2 0x3E50 DUP10 DUP3 DUP11 ADD PUSH2 0x3D89 JUMP JUMPDEST SWAP5 POP SWAP5 POP POP PUSH1 0x40 DUP8 ADD CALLDATALOAD PUSH8 0xFFFFFFFFFFFFFFFF DUP2 GT ISZERO PUSH2 0x3E73 JUMPI PUSH2 0x3E72 PUSH2 0x3D79 JUMP JUMPDEST JUMPDEST PUSH2 0x3E7F DUP10 DUP3 DUP11 ADD PUSH2 0x3D89 JUMP JUMPDEST SWAP3 POP SWAP3 POP POP SWAP3 SWAP6 POP SWAP3 SWAP6 POP SWAP3 SWAP6 JUMP JUMPDEST PUSH0 DUP2 ISZERO ISZERO SWAP1 POP SWAP2 SWAP1 POP JUMP JUMPDEST PUSH2 0x3EA2 DUP2 PUSH2 0x3E8E JUMP JUMPDEST DUP3 MSTORE POP POP JUMP JUMPDEST PUSH0 PUSH1 0x20 DUP3 ADD SWAP1 POP PUSH2 0x3EBB PUSH0 DUP4 ADD DUP5 PUSH2 0x3E99 JUMP JUMPDEST SWAP3 SWAP2 POP POP JUMP JUMPDEST PUSH0 DUP2 SWAP1 POP SWAP2 SWAP1 POP JUMP JUMPDEST PUSH2 0x3ED3 DUP2 PUSH2 0x3EC1 JUMP JUMPDEST DUP3 MSTORE POP POP JUMP JUMPDEST PUSH0 PUSH1 0x20 DUP3 ADD SWAP1 POP PUSH2 0x3EEC PUSH0 DUP4 ADD DUP5 PUSH2 0x3ECA JUMP JUMPDEST SWAP3 SWAP2 POP POP JUMP INVALID LOG2 PUSH5 0x6970667358 0x22 SLT KECCAK256 0xE4 CHAINID RETURNDATACOPY 0x4B DIV 0xCF BYTE 0xEE 0xC6 PUSH8 0x857EC7A81FD77AB5 0xB9 BLOCKHASH 0xB2 PUSH17 0xFB7983184FE282BD405864736F6C634300 ADDMOD BYTE STOP CALLER "
		},
		"gasEstimates": {
			"creation": {
				"codeDepositCost": "3233600",
				"executionCost": "3585",
				"totalCost": "3237185"
			},
			"external": {
				"verificationKeyHash()": "1192",
				"verify(uint256[],uint256[],uint256[])": "infinite"
			},
			"internal": {
				"_loadVerificationKey()": "554"
			}
		},
		"methodIdentifiers": {
			"verificationKeyHash()": "9e8945d2",
			"verify(uint256[],uint256[],uint256[])": "87d9d023"
		}
	},
	"abi": [
		{
			"inputs": [],
			"name": "verificationKeyHash",
			"outputs": [
				{
					"internalType": "bytes32",
					"name": "vkHash",
					"type": "bytes32"
				}
			],
			"stateMutability": "pure",
			"type": "function"
		},
		{
			"inputs": [
				{
					"internalType": "uint256[]",
					"name": "",
					"type": "uint256[]"
				},
				{
					"internalType": "uint256[]",
					"name": "",
					"type": "uint256[]"
				},
				{
					"internalType": "uint256[]",
					"name": "",
					"type": "uint256[]"
				}
			],
			"name": "verify",
			"outputs": [
				{
					"internalType": "bool",
					"name": "",
					"type": "bool"
				}
			],
			"stateMutability": "view",
			"type": "function"
		}
	]
}