{
	"data": {
		"bytecode": {
			"linkReferences": {},
			"object": "608060405234801561000f575f80fd5b50604051611a95380380611a9583398181016040528101906100319190610344565b805f73ffffffffffffffffffffffffffffffffffffffff168173ffffffffffffffffffffffffffffffffffffffff16036100a2575f6040517f1e4fbdf7000000000000000000000000000000000000000000000000000000008152600401610099919061037e565b60405180910390fd5b6100b18161015460201b60201c565b505f8060146101000a81548160ff021916908315150217905550600180819055505f73ffffffffffffffffffffffffffffffffffffffff168173ffffffffffffffffffffffffffffffffffffffff1603610140576040517f08c379a0000000000000000000000000000000000000000000000000000000008152600401610137906103f1565b60405180910390fd5b61014e61021560201b60201c565b5061040f565b5f805f9054906101000a900473ffffffffffffffffffffffffffffffffffffffff169050815f806101000a81548173ffffffffffffffffffffffffffffffffffffffff021916908373ffffffffffffffffffffffffffffffffffffffff1602179055508173ffffffffffffffffffffffffffffffffffffffff168173ffffffffffffffffffffffffffffffffffffffff167f8be0079c531659141344cd1fd0a4f28419497f9722a3daafe3b4186f6b6457e060405160405180910390a35050565b61022361028360201b60201c565b60015f60146101000a81548160ff0219169083151502179055507f62e78cea01bee320cd4e420270b5ea74000d11b0c9f74754ebdbfc544b05a25861026c6102ca60201b60201c565b604051610279919061037e565b60405180910390a1565b6102916102d160201b60201c565b156102c8576040517fd93c066500000000000000000000000000000000000000000000000000000000815260040160405180910390fd5b565b5f33905090565b5f8060149054906101000a900460ff16905090565b5f80fd5b5f73ffffffffffffffffffffffffffffffffffffffff82169050919050565b5f610313826102ea565b9050919050565b61032381610309565b811461032d575f80fd5b50565b5f8151905061033e8161031a565b92915050565b5f60208284031215610359576103586102e6565b5b5f61036684828501610330565b91505092915050565b61037881610309565b82525050565b5f6020820190506103915f83018461036f565b92915050565b5f82825260208201905092915050565b7f496e76616c6964206f776e6572000000000000000000000000000000000000005f82015250565b5f6103db600d83610397565b91506103e6826103a7565b602082019050919050565b5f6020820190508181035f830152610408816103cf565b9050919050565b6116798061041c5f395ff3fe608060405234801561000f575f80fd5b50600436106100a7575f3560e01c8063715018a61161006f578063715018a6146101645780638456cb591461016e5780638da5cb5b14610178578063c8fea3a514610196578063cd95fe6b146101b2578063f2fde38b146101e2576100a7565b8063176d80c4146100ab5780631b81f829146100db5780633f4ba83a1461010b57806341f03c69146101155780635c975abb14610146575b5f80fd5b6100c560048036038101906100c09190610eb9565b6101fe565b6040516100d29190610efe565b60405180910390f35b6100f560048036038101906100f09190610f5d565b61021b565b6040516101029190610efe565b60405180910390f35b6101136103ca565b005b61012f600480360381019061012a9190610eb9565b6103dc565b60405161013d929190610fb5565b60405180910390f35b61014e610417565b60405161015b9190610efe565b60405180910390f35b61016c61042c565b005b61017661043f565b005b610180610451565b60405161018d919061101b565b60405180910390f35b6101b060048036038101906101ab919061105e565b610478565b005b6101cc60048036038101906101c79190610f5d565b61050c565b6040516101d99190610efe565b60405180910390f35b6101fc60048036038101906101f791906110b3565b61079a565b005b6003602052805f5260405f205f915054906101000a900460ff1681565b5f61022461081e565b61022e838361085f565b61026d576040517f08c379a000000000000000000000000000000000000000000000000000000000815260040161026490611138565b60405180910390fd5b5f6040518060400160405280855f6008811061028c5761028b611156565b5b60200201358152602001856001600881106102aa576102a9611156565b5b602002013581525090505f60405180604001604052806040518060400160405280886002600881106102df576102de611156565b5b60200201358152602001886003600881106102fd576102fc611156565b5b6020020135815250815260200160405180604001604052808860046008811061032957610328611156565b5b602002013581526020018860056008811061034757610346611156565b5b602002013581525081525090505f60405180604001604052808760066008811061037457610373611156565b5b602002013581526020018760076008811061039257610391611156565b5b602002013581525090506103bf838383885f600181106103b5576103b4611156565b5b6020020135610914565b935050505092915050565b6103d26109b6565b6103da610a3d565b565b5f8060035f8481526020019081526020015f205f9054906101000a900460ff1660045f8581526020019081526020015f205491509150915091565b5f8060149054906101000a900460ff16905090565b6104346109b6565b61043d5f610a9e565b565b6104476109b6565b61044f610b5f565b565b5f805f9054906101000a900473ffffffffffffffffffffffffffffffffffffffff16905090565b6104806109b6565b5f81116104c2576040517f08c379a00000000000000000000000000000000000000000000000000000000081526004016104b9906111cd565b60405180910390fd5b5f81436104cf9190611218565b90505f5b828110156105075760025f82846104ea9190611218565b81526020019081526020015f205f905580806001019150506104d3565b505050565b5f61051561081e565b61051d610bc1565b603260025f4381526020019081526020015f205410610571576040517f08c379a000000000000000000000000000000000000000000000000000000000815260040161056890611295565b60405180910390fd5b5f61057c8484610c07565b905060035f8281526020019081526020015f205f9054906101000a900460ff16156105dc576040517f08c379a00000000000000000000000000000000000000000000000000000000081526004016105d3906112fd565b60405180910390fd5b5f3073ffffffffffffffffffffffffffffffffffffffff16631b81f82986866040518363ffffffff1660e01b8152600401610618929190611345565b602060405180830381865afa92505050801561065257506040513d601f19601f8201168201806040525081019061064f9190611398565b60015b6106cc5761065e6113cf565b806308c379a0036106c2575061067261145c565b8061067d57506106c4565b827feabe9d31f64f68fa6a548e84d57c997311a32ab33a5445ea892460d3253c366d82426040516106af92919061153b565b60405180910390a25f935050505061078c565b505b3d5f803e3d5ffd5b809150508060035f8481526020019081526020015f205f6101000a81548160ff0219169083151502179055504260045f8481526020019081526020015f208190555060025f4381526020019081526020015f205f81548092919061072f90611569565b91905055508015153373ffffffffffffffffffffffffffffffffffffffff16837fd70445ae79bfa82bd8c52e90ca89940dff8279c6c39f91265be2f4ae43e4cae24260405161077e91906115b0565b60405180910390a480925050505b610794610c39565b92915050565b6107a26109b6565b5f73ffffffffffffffffffffffffffffffffffffffff168173ffffffffffffffffffffffffffffffffffffffff1603610812575f6040517f1e4fbdf7000000000000000000000000000000000000000000000000000000008152600401610809919061101b565b60405180910390fd5b61081b81610a9e565b50565b610826610417565b1561085d576040517fd93c066500000000000000000000000000000000000000000000000000000000815260040160405180910390fd5b565b5f805f90505b60088110156108c2577f30644e72e131a029b85045b68181585d2833e84879b9709143e1f593f00000018482600881106108a2576108a1611156565b5b6020020135106108b5575f91505061090e565b8080600101915050610865565b507f30644e72e131a029b85045b68181585d2833e84879b9709143e1f593f0000001825f600181106108f7576108f6611156565b5b602002013510610909575f905061090e565b600190505b92915050565b5f61091e85610c42565b1580610930575061092e84610cf7565b155b80610941575061093f83610c42565b155b1561094e575f90506109ae565b610956610e56565b5f865182526020870151602083015260208601805160408401526020810151606084015260408101516080840152606081015160a08401526020836103008560085afa806109a2575f80fd5b83519250505080925050505b949350505050565b6109be610e0f565b73ffffffffffffffffffffffffffffffffffffffff166109dc610451565b73ffffffffffffffffffffffffffffffffffffffff1614610a3b576109ff610e0f565b6040517f118cdaa7000000000000000000000000000000000000000000000000000000008152600401610a32919061101b565b60405180910390fd5b565b610a45610e16565b5f8060146101000a81548160ff0219169083151502179055507f5db9ee0a495bf2e6ff9c91a7834c1ba4fdd244a5e8aa4e537bd38aeae4b073aa610a87610e0f565b604051610a94919061101b565b60405180910390a1565b5f805f9054906101000a900473ffffffffffffffffffffffffffffffffffffffff169050815f806101000a81548173ffffffffffffffffffffffffffffffffffffffff021916908373ffffffffffffffffffffffffffffffffffffffff1602179055508173ffffffffffffffffffffffffffffffffffffffff168173ffffffffffffffffffffffffffffffffffffffff167f8be0079c531659141344cd1fd0a4f28419497f9722a3daafe3b4186f6b6457e060405160405180910390a35050565b610b6761081e565b60015f60146101000a81548160ff0219169083151502179055507f62e78cea01bee320cd4e420270b5ea74000d11b0c9f74754ebdbfc544b05a258610baa610e0f565b604051610bb7919061101b565b60405180910390a1565b600260015403610bfd576040517f3ee5aeb500000000000000000000000000000000000000000000000000000000815260040160405180910390fd5b6002600181905550565b5f8282604051602001610c1b9291906115ea565b60405160208183030381529060405280519060200120905092915050565b60018081905550565b5f807f30644e72e131a029b85045b68181585d2833e84879b9709143e1f593f0000001905080835f0151101580610c7d575080836020015110155b15610c8b575f915050610cf2565b5f8180610c9b57610c9a611616565b5b846020015185602001510990505f8280610cb857610cb7611616565b5b60038480610cc957610cc8611616565b5b875f01518680610cdc57610cdb611616565b5b895f01518a5f0151090908905080821493505050505b919050565b5f7f30644e72e131a029b85045b68181585d2833e84879b9709143e1f593f0000001825f01515f60028110610d2f57610d2e611156565b5b6020020151108015610d7b57507f30644e72e131a029b85045b68181585d2833e84879b9709143e1f593f0000001825f0151600160028110610d7457610d73611156565b5b6020020151105b8015610dc157507f30644e72e131a029b85045b68181585d2833e84879b9709143e1f593f000000182602001515f60028110610dba57610db9611156565b5b6020020151105b8015610e0857507f30644e72e131a029b85045b68181585d2833e84879b9709143e1f593f00000018260200151600160028110610e0157610e00611156565b5b6020020151105b9050919050565b5f33905090565b610e1e610417565b610e54576040517f8dfc202b00000000000000000000000000000000000000000000000000000000815260040160405180910390fd5b565b604051806103000160405280601890602082028036833780820191505090505090565b5f604051905090565b5f80fd5b5f819050919050565b610e9881610e86565b8114610ea2575f80fd5b50565b5f81359050610eb381610e8f565b92915050565b5f60208284031215610ece57610ecd610e82565b5b5f610edb84828501610ea5565b91505092915050565b5f8115159050919050565b610ef881610ee4565b82525050565b5f602082019050610f115f830184610eef565b92915050565b5f80fd5b5f81905082602060080282011115610f3657610f35610f17565b5b92915050565b5f81905082602060010282011115610f5757610f56610f17565b5b92915050565b5f806101208385031215610f7457610f73610e82565b5b5f610f8185828601610f1b565b925050610100610f9385828601610f3c565b9150509250929050565b5f819050919050565b610faf81610f9d565b82525050565b5f604082019050610fc85f830185610eef565b610fd56020830184610fa6565b9392505050565b5f73ffffffffffffffffffffffffffffffffffffffff82169050919050565b5f61100582610fdc565b9050919050565b61101581610ffb565b82525050565b5f60208201905061102e5f83018461100c565b92915050565b61103d81610f9d565b8114611047575f80fd5b50565b5f8135905061105881611034565b92915050565b5f6020828403121561107357611072610e82565b5b5f6110808482850161104a565b91505092915050565b61109281610ffb565b811461109c575f80fd5b50565b5f813590506110ad81611089565b92915050565b5f602082840312156110c8576110c7610e82565b5b5f6110d58482850161109f565b91505092915050565b5f82825260208201905092915050565b7f496e76616c696420696e707574730000000000000000000000000000000000005f82015250565b5f611122600e836110de565b915061112d826110ee565b602082019050919050565b5f6020820190508181035f83015261114f81611116565b9050919050565b7f4e487b71000000000000000000000000000000000000000000000000000000005f52603260045260245ffd5b7f496e76616c696420626c6f636b20636f756e74000000000000000000000000005f82015250565b5f6111b76013836110de565b91506111c282611183565b602082019050919050565b5f6020820190508181035f8301526111e4816111ab565b9050919050565b7f4e487b71000000000000000000000000000000000000000000000000000000005f52601160045260245ffd5b5f61122282610f9d565b915061122d83610f9d565b9250828203905081811115611245576112446111eb565b5b92915050565b7f52617465206c696d6974206578636565646564000000000000000000000000005f82015250565b5f61127f6013836110de565b915061128a8261124b565b602082019050919050565b5f6020820190508181035f8301526112ac81611273565b9050919050565b7f50726f6f6620616c7265616479207665726966696564000000000000000000005f82015250565b5f6112e76016836110de565b91506112f2826112b3565b602082019050919050565b5f6020820190508181035f830152611314816112db565b9050919050565b82818337505050565b611331610100838361131b565b5050565b6113416020838361131b565b5050565b5f610120820190506113595f830185611324565b611367610100830184611335565b9392505050565b61137781610ee4565b8114611381575f80fd5b50565b5f815190506113928161136e565b92915050565b5f602082840312156113ad576113ac610e82565b5b5f6113ba84828501611384565b91505092915050565b5f8160e01c9050919050565b5f60033d11156113eb5760045f803e6113e85f516113c3565b90505b90565b5f601f19601f8301169050919050565b7f4e487b71000000000000000000000000000000000000000000000000000000005f52604160045260245ffd5b611434826113ee565b810181811067ffffffffffffffff82111715611453576114526113fe565b5b80604052505050565b5f60443d106114e85761146d610e79565b60043d036004823e80513d602482011167ffffffffffffffff821117156114955750506114e8565b808201805167ffffffffffffffff8111156114b357505050506114e8565b80602083010160043d0385018111156114d05750505050506114e8565b6114df8260200185018661142b565b82955050505050505b90565b5f81519050919050565b8281835e5f83830152505050565b5f61150d826114eb565b61151781856110de565b93506115278185602086016114f5565b611530816113ee565b840191505092915050565b5f6040820190508181035f8301526115538185611503565b90506115626020830184610fa6565b9392505050565b5f61157382610f9d565b91507fffffffffffffffffffffffffffffffffffffffffffffffffffffffffffffffff82036115a5576115a46111eb565b5b600182019050919050565b5f6020820190506115c35f830184610fa6565b92915050565b6115d6610100838361131b565b5050565b6115e66020838361131b565b5050565b5f6115f582856115c9565b6101008201915061160682846115da565b6020820191508190509392505050565b7f4e487b71000000000000000000000000000000000000000000000000000000005f52601260045260245ffdfea26469706673582212200d45e2269f0bc672723821a4c89dbe6e50257f5ddc060647be74f1886d90e5c564736f6c634300081a0033",
			"opcodes": "PUSH1 0x80 PUSH1 0x40 MSTORE CALLVALUE DUP1 ISZERO PUSH2 0xF JUMPI PUSH0 DUP1 REVERT JUMPDEST POP PUSH1 0x40 MLOAD PUSH2 0x1A95 CODESIZE SUB DUP1 PUSH2 0x1A95 DUP4 CODECOPY DUP2 DUP2 ADD PUSH1 0x40 MSTORE DUP2 ADD SWAP1 PUSH2 0x31 SWAP2 SWAP1 PUSH2 0x344 JUMP JUMPDEST DUP1 PUSH0 PUSH20 0xFFFFFFFFFFFFFFFFFFFFFFFFFFFFFFFFFFFFFFFF AND DUP2 PUSH20 0xFFFFFFFFFFFFFFFFFFFFFFFFFFFFFFFFFFFFFFFF AND SUB PUSH2 0xA2 JUMPI PUSH0 PUSH1 0x40 MLOAD PUSH32 0x1E4FBDF700000000000000000000000000000000000000000000000000000000 DUP2 MSTORE PUSH1 0x4 ADD PUSH2 0x99 SWAP2 SWAP1 PUSH2 0x37E JUMP JUMPDEST PUSH1 0x40 MLOAD DUP1 SWAP2 SUB SWAP1 REVERT JUMPDEST PUSH2 0xB1 DUP2 PUSH2 0x154 PUSH1 0x20 SHL PUSH1 0x20 SHR JUMP JUMPDEST POP PUSH0 DUP1 PUSH1 0x14 PUSH2 0x100 EXP DUP2 SLOAD DUP2 PUSH1 0xFF MUL NOT AND SWAP1 DUP4 ISZERO ISZERO MUL OR SWAP1 SSTORE POP PUSH1 0x1 DUP1 DUP2 SWAP1 SSTORE POP PUSH0 PUSH20 0xFFFFFFFFFFFFFFFFFFFFFFFFFFFFFFFFFFFFFFFF AND DUP2 PUSH20 0xFFFFFFFFFFFFFFFFFFFFFFFFFFFFFFFFFFFFFFFF AND SUB PUSH2 0x140 JUMPI PUSH1 0x40 MLOAD PUSH32 0x8C379A000000000000000000000000000000000000000000000000000000000 DUP2 MSTORE PUSH1 0x4 ADD PUSH2 0x137 SWAP1 PUSH2 0x3F1 JUMP JUMPDEST PUSH1 0x40 MLOAD DUP1 SWAP2 SUB SWAP1 REVERT JUMPDEST PUSH2 0x14E PUSH2 0x215 PUSH1 0x20 SHL PUSH1 0x20 SHR JUMP JUMPDEST POP PUSH2 0x40F JUMP JUMPDEST PUSH0 DUP1 PUSH0 SWAP1 SLOAD SWAP1 PUSH2 0x100 EXP SWAP1 DIV PUSH20 0xFFFFFFFFFFFFFFFFFFFFFFFFFFFFFFFFFFFFFFFF AND SWAP1 POP DUP2 PUSH0 DUP1 PUSH2 0x100 EXP DUP2 SLOAD DUP2 PUSH20 0xFFFFFFFFFFFFFFFFFFFFFFFFFFFFFFFFFFFFFFFF MUL NOT AND SWAP1 DUP4 PUSH20 0xFFFFFFFFFFFFFFFFFFFFFFFFFFFFFFFFFFFFFFFF AND MUL OR SWAP1 SSTORE POP DUP2 PUSH20 0xFFFFFFFFFFFFFFFFFFFFFFFFFFFFFFFFFFFFFFFF AND DUP2 PUSH20 0xFFFFFFFFFFFFFFFFFFFFFFFFFFFFFFFFFFFFFFFF AND PUSH32 0x8BE0079C531659141344CD1FD0A4F28419497F9722A3DAAFE3B4186F6B6457E0 PUSH1 0x40 MLOAD PUSH1 0x40 MLOAD DUP1 SWAP2 SUB SWAP1 LOG3 POP POP JUMP JUMPDEST PUSH2 0x223 PUSH2 0x283 PUSH1 0x20 SHL PUSH1 0x20 SHR JUMP JUMPDEST PUSH1 0x1 PUSH0 PUSH1 0x14 PUSH2 0x100 EXP DUP2 SLOAD DUP2 PUSH1 0xFF MUL NOT AND SWAP1 DUP4 ISZERO ISZERO MUL OR SWAP1 SSTORE POP PUSH32 0x62E78CEA01BEE320CD4E420270B5EA74000D11B0C9F74754EBDBFC544B05A258 PUSH2 0x26C PUSH2 0x2CA PUSH1 0x20 SHL PUSH1 0x20 SHR JUMP JUMPDEST PUSH1 0x40 MLOAD PUSH2 0x279 SWAP2 SWAP1 PUSH2 0x37E JUMP JUMPDEST PUSH1 0x40 MLOAD DUP1 SWAP2 SUB SWAP1 LOG1 JUMP JUMPDEST PUSH2 0x291 PUSH2 0x2D1 PUSH1 0x20 SHL PUSH1 0x20 SHR JUMP JUMPDEST ISZERO PUSH2 0x2C8 JUMPI PUSH1 0x40 MLOAD PUSH32 0xD93C066500000000000000000000000000000000000000000000000000000000 DUP2 MSTORE PUSH1 0x4 ADD PUSH1 0x40 MLOAD DUP1 SWAP2 SUB SWAP1 REVERT JUMPDEST JUMP JUMPDEST PUSH0 CALLER SWAP1 POP SWAP1 JUMP JUMPDEST PUSH0 DUP1 PUSH1 0x14 SWAP1 SLOAD SWAP1 PUSH2 0x100 EXP SWAP1 DIV PUSH1 0xFF AND SWAP1 POP SWAP1 JUMP JUMPDEST PUSH0 DUP1 REVERT JUMPDEST PUSH0 PUSH20 0xFFFFFFFFFFFFFFFFFFFFFFFFFFFFFFFFFFFFFFFF DUP3 AND SWAP1 POP SWAP2 SWAP1 POP JUMP JUMPDEST PUSH0 PUSH2 0x313 DUP3 PUSH2 0x2EA JUMP JUMPDEST SWAP1 POP SWAP2 SWAP1 POP JUMP JUMPDEST PUSH2 0x323 DUP2 PUSH2 0x309 JUMP JUMPDEST DUP2 EQ PUSH2 0x32D JUMPI PUSH0 DUP1 REVERT JUMPDEST POP JUMP JUMPDEST PUSH0 DUP2 MLOAD SWAP1 POP PUSH2 0x33E DUP2 PUSH2 0x31A JUMP JUMPDEST SWAP3 SWAP2 POP POP JUMP JUMPDEST PUSH0 PUSH1 0x20 DUP3 DUP5 SUB SLT ISZERO PUSH2 0x359 JUMPI PUSH2 0x358 PUSH2 0x2E6 JUMP JUMPDEST JUMPDEST PUSH0 PUSH2 0x366 DUP5 DUP3 DUP6 ADD PUSH2 0x330 JUMP JUMPDEST SWAP2 POP POP SWAP3 SWAP2 POP POP JUMP JUMPDEST PUSH2 0x378 DUP2 PUSH2 0x309 JUMP JUMPDEST DUP3 MSTORE POP POP JUMP JUMPDEST PUSH0 PUSH1 0x20 DUP3 ADD SWAP1 POP PUSH2 0x391 PUSH0 DUP4 ADD DUP5 PUSH2 0x36F JUMP JUMPDEST SWAP3 SWAP2 POP POP JUMP JUMPDEST PUSH0 DUP3 DUP3 MSTORE PUSH1 0x20 DUP3 ADD SWAP1 POP SWAP3 SWAP2 POP POP JUMP JUMPDEST PUSH32 0x496E76616C6964206F776E657200000000000000000000000000000000000000 PUSH0 DUP3 ADD MSTORE POP JUMP JUMPDEST PUSH0 PUSH2 0x3DB PUSH1 0xD DUP4 PUSH2 0x397 JUMP JUMPDEST SWAP2 POP PUSH2 0x3E6 DUP3 PUSH2 0x3A7 JUMP JUMPDEST PUSH1 0x20 DUP3 ADD SWAP1 POP SWAP2 SWAP1 POP JUMP JUMPDEST PUSH0 PUSH1 0x20 DUP3 ADD SWAP1 POP DUP2 DUP2 SUB PUSH0 DUP4 ADD MSTORE PUSH2 0x408 DUP2 PUSH2 0x3CF JUMP JUMPDEST SWAP1 POP SWAP2 SWAP1 POP JUMP JUMPDEST PUSH2 0x1679 DUP1 PUSH2 0x41C PUSH0 CODECOPY PUSH0 RETURN INVALID PUSH1 0x80 PUSH1 0x40 MSTORE CALLVALUE DUP1 ISZERO PUSH2 0xF JUMPI PUSH0 DUP1 REVERT JUMPDEST POP PUSH1 0x4 CALLDATASIZE LT PUSH2 0xA7 JUMPI PUSH0 CALLDATALOAD PUSH1 0xE0 SHR DUP1 PUSH4 0x715018A6 GT PUSH2 0x6F JUMPI DUP1 PUSH4 0x715018A6 EQ PUSH2 0x164 JUMPI DUP1 PUSH4 0x8456CB59 EQ PUSH2 0x16E JUMPI DUP1 PUSH4 0x8DA5CB5B EQ PUSH2 0x178 JUMPI DUP1 PUSH4 0xC8FEA3A5 EQ PUSH2 0x196 JUMPI DUP1 PUSH4 0xCD95FE6B EQ PUSH2 0x1B2 JUMPI DUP1 PUSH4 0xF2FDE38B EQ PUSH2 0x1E2 JUMPI PUSH2 0xA7 JUMP JUMPDEST DUP1 PUSH4 0x176D80C4 EQ PUSH2 0xAB JUMPI DUP1 PUSH4 0x1B81F829 EQ PUSH2 0xDB JUMPI DUP1 PUSH4 0x3F4BA83A EQ PUSH2 0x10B JUMPI DUP1 PUSH4 0x41F03C69 EQ PUSH2 0x115 JUMPI DUP1 PUSH4 0x5C975ABB EQ PUSH2 0x146 JUMPI JUMPDEST PUSH0 DUP1 REVERT JUMPDEST PUSH2 0xC5 PUSH1 0x4 DUP1 CALLDATASIZE SUB DUP2 ADD SWAP1 PUSH2 0xC0 SWAP2 SWAP1 PUSH2 0xEB9 JUMP JUMPDEST PUSH2 0x1FE JUMP JUMPDEST PUSH1 0x40 MLOAD PUSH2 0xD2 SWAP2 SWAP1 PUSH2 0xEFE JUMP JUMPDEST PUSH1 0x40 MLOAD DUP1 SWAP2 SUB SWAP1 RETURN JUMPDEST PUSH2 0xF5 PUSH1 0x4 DUP1 CALLDATASIZE SUB DUP2 ADD SWAP1 PUSH2 0xF0 SWAP2 SWAP1 PUSH2 0xF5D JUMP JUMPDEST PUSH2 0x21B JUMP JUMPDEST PUSH1 0x40 MLOAD PUSH2 0x102 SWAP2 SWAP1 PUSH2 0xEFE JUMP JUMPDEST PUSH1 0x40 MLOAD DUP1 SWAP2 SUB SWAP1 RETURN JUMPDEST PUSH2 0x113 PUSH2 0x3CA JUMP JUMPDEST STOP JUMPDEST PUSH2 0x12F PUSH1 0x4 DUP1 CALLDATASIZE SUB DUP2 ADD SWAP1 PUSH2 0x12A SWAP2 SWAP1 PUSH2 0xEB9 JUMP JUMPDEST PUSH2 0x3DC JUMP JUMPDEST PUSH1 0x40 MLOAD PUSH2 0x13D SWAP3 SWAP2 SWAP1 PUSH2 0xFB5 JUMP JUMPDEST PUSH1 0x40 MLOAD DUP1 SWAP2 SUB SWAP1 RETURN JUMPDEST PUSH2 0x14E PUSH2 0x417 JUMP JUMPDEST PUSH1 0x40 MLOAD PUSH2 0x15B SWAP2 SWAP1 PUSH2 0xEFE JUMP JUMPDEST PUSH1 0x40 MLOAD DUP1 SWAP2 SUB SWAP1 RETURN JUMPDEST PUSH2 0x16C PUSH2 0x42C JUMP JUMPDEST STOP JUMPDEST PUSH2 0x176 PUSH2 0x43F JUMP JUMPDEST STOP JUMPDEST PUSH2 0x180 PUSH2 0x451 JUMP JUMPDEST PUSH1 0x40 MLOAD PUSH2 0x18D SWAP2 SWAP1 PUSH2 0x101B JUMP JUMPDEST PUSH1 0x40 MLOAD DUP1 SWAP2 SUB SWAP1 RETURN JUMPDEST PUSH2 0x1B0 PUSH1 0x4 DUP1 CALLDATASIZE SUB DUP2 ADD SWAP1 PUSH2 0x1AB SWAP2 SWAP1 PUSH2 0x105E JUMP JUMPDEST PUSH2 0x478 JUMP JUMPDEST STOP JUMPDEST PUSH2 0x1CC PUSH1 0x4 DUP1 CALLDATASIZE SUB DUP2 ADD SWAP1 PUSH2 0x1C7 SWAP2 SWAP1 PUSH2 0xF5D JUMP JUMPDEST PUSH2 0x50C JUMP JUMPDEST PUSH1 0x40 MLOAD PUSH2 0x1D9 SWAP2 SWAP1 PUSH2 0xEFE JUMP JUMPDEST PUSH1 0x40 MLOAD DUP1 SWAP2 SUB SWAP1 RETURN JUMPDEST PUSH2 0x1FC PUSH1 0x4 DUP1 CALLDATASIZE SUB DUP2 ADD SWAP1 PUSH2 0x1F7 SWAP2 SWAP1 PUSH2 0x10B3 JUMP JUMPDEST PUSH2 0x79A JUMP JUMPDEST STOP JUMPDEST PUSH1 0x3 PUSH1 0x20 MSTORE DUP1 PUSH0 MSTORE PUSH1 0x40 PUSH0 KECCAK256 PUSH0 SWAP2 POP SLOAD SWAP1 PUSH2 0x100 EXP SWAP1 DIV PUSH1 0xFF AND DUP2 JUMP JUMPDEST PUSH0 PUSH2 0x224 PUSH2 0x81E JUMP JUMPDEST PUSH2 0x22E DUP4 DUP4 PUSH2 0x85F JUMP JUMPDEST PUSH2 0x26D JUMPI PUSH1 0x40 MLOAD PUSH32 0x8C379A000000000000000000000000000000000000000000000000000000000 DUP2 MSTORE PUSH1 0x4 ADD PUSH2 0x264 SWAP1 PUSH2 0x1138 JUMP JUMPDEST PUSH1 0x40 MLOAD DUP1 SWAP2 SUB SWAP1 REVERT JUMPDEST PUSH0 PUSH1 0x40 MLOAD DUP1 PUSH1 0x40 ADD PUSH1 0x40 MSTORE DUP1 DUP6 PUSH0 PUSH1 0x8 DUP2 LT PUSH2 0x28C JUMPI PUSH2 0x28B PUSH2 0x1156 JUMP JUMPDEST JUMPDEST PUSH1 0x20 MUL ADD CALLDATALOAD DUP2 MSTORE PUSH1 0x20 ADD DUP6 PUSH1 0x1 PUSH1 0x8 DUP2 LT PUSH2 0x2AA JUMPI PUSH2 0x2A9 PUSH2 0x1156 JUMP JUMPDEST JUMPDEST PUSH1 0x20 MUL ADD CALLDATALOAD DUP2 MSTORE POP SWAP1 POP PUSH0 PUSH1 0x40 MLOAD DUP1 PUSH1 0x40 ADD PUSH1 0x40 MSTORE DUP1 PUSH1 0x40 MLOAD DUP1 PUSH1 0x40 ADD PUSH1 0x40 MSTORE DUP1 DUP9 PUSH1 0x2 PUSH1 0x8 DUP2 LT PUSH2 0x2DF JUMPI PUSH2 0x2DE PUSH2 0x1156 JUMP JUMPDEST JUMPDEST PUSH1 0x20 MUL ADD CALLDATALOAD DUP2 MSTORE PUSH1 0x20 ADD DUP9 PUSH1 0x3 PUSH1 0x8 DUP2 LT PUSH2 0x2FD JUMPI PUSH2 0x2FC PUSH2 0x1156 JUMP JUMPDEST JUMPDEST PUSH1 0x20 MUL ADD CALLDATALOAD DUP2 MSTORE POP DUP2 MSTORE PUSH1 0x20 ADD PUSH1 0x40 MLOAD DUP1 PUSH1 0x40 ADD PUSH1 0x40 MSTORE DUP1 DUP9 PUSH1 0x4 PUSH1 0x8 DUP2 LT PUSH2 0x329 JUMPI PUSH2 0x328 PUSH2 0x1156 JUMP JUMPDEST JUMPDEST PUSH1 0x20 MUL ADD CALLDATALOAD DUP2 MSTORE PUSH1 0x20 ADD DUP9 PUSH1 0x5 PUSH1 0x8 DUP2 LT PUSH2 0x347 JUMPI PUSH2 0x346 PUSH2 0x1156 JUMP JUMPDEST JUMPDEST PUSH1 0x20 MUL ADD CALLDATALOAD DUP2 MSTORE POP DUP2 MSTORE POP SWAP1 POP PUSH0 PUSH1 0x40 MLOAD DUP1 PUSH1 0x40 ADD PUSH1 0x40 MSTORE DUP1 DUP8 PUSH1 0x6 PUSH1 0x8 DUP2 LT PUSH2 0x374 JUMPI PUSH2 0x373 PUSH2 0x1156 JUMP JUMPDEST JUMPDEST PUSH1 0x20 MUL ADD CALLDATALOAD DUP2 MSTORE PUSH1 0x20 ADD DUP8 PUSH1 0x7 PUSH1 0x8 DUP2 LT PUSH2 0x392 JUMPI PUSH2 0x391 PUSH2 0x1156 JUMP JUMPDEST JUMPDEST PUSH1 0x20 MUL ADD CALLDATALOAD DUP2 MSTORE POP SWAP1 POP PUSH2 0x3BF DUP4 DUP4 DUP4 DUP9 PUSH0 PUSH1 0x1 DUP2 LT PUSH2 0x3B5 JUMPI PUSH2 0x3B4 PUSH2 0x1156 JUMP JUMPDEST JUMPDEST PUSH1 0x20 MUL ADD CALLDATALOAD PUSH2 0x914 JUMP JUMPDEST SWAP4 POP POP POP POP SWAP3 SWAP2 POP POP JUMP JUMPDEST PUSH2 0x3D2 PUSH2 0x9B6 JUMP JUMPDEST PUSH2 0x3DA PUSH2 0xA3D JUMP JUMPDEST JUMP JUMPDEST PUSH0 DUP1 PUSH1 0x3 PUSH0 DUP5 DUP2 MSTORE PUSH1 0x20 ADD SWAP1 DUP2 MSTORE PUSH1 0x20 ADD PUSH0 KECCAK256 PUSH0 SWAP1 SLOAD SWAP1 PUSH2 0x100 EXP SWAP1 DIV PUSH1 0xFF AND PUSH1 0x4 PUSH0 DUP6 DUP2 MSTORE PUSH1 0x20 ADD SWAP1 DUP2 MSTORE PUSH1 0x20 ADD PUSH0 KECCAK256 SLOAD SWAP2 POP SWAP2 POP SWAP2 POP SWAP2 JUMP JUMPDEST PUSH0 DUP1 PUSH1 0x14 SWAP1 SLOAD SWAP1 PUSH2 0x100 EXP SWAP1 DIV PUSH1 0xFF AND SWAP1 POP SWAP1 JUMP JUMPDEST PUSH2 0x434 PUSH2 0x9B6 JUMP JUMPDEST PUSH2 0x43D PUSH0 PUSH2 0xA9E JUMP JUMPDEST JUMP JUMPDEST PUSH2 0x447 PUSH2 0x9B6 JUMP JUMPDEST PUSH2 0x44F PUSH2 0xB5F JUMP JUMPDEST JUMP JUMPDEST PUSH0 DUP1 PUSH0 SWAP1 SLOAD SWAP1 PUSH2 0x100 EXP SWAP1 DIV PUSH20 0xFFFFFFFFFFFFFFFFFFFFFFFFFFFFFFFFFFFFFFFF AND SWAP1 POP SWAP1 JUMP JUMPDEST PUSH2 0x480 PUSH2 0x9B6 JUMP JUMPDEST PUSH0 DUP2 GT PUSH2 0x4C2 JUMPI PUSH1 0x40 MLOAD PUSH32 0x8C379A000000000000000000000000000000000000000000000000000000000 DUP2 MSTORE PUSH1 0x4 ADD PUSH2 0x4B9 SWAP1 PUSH2 0x11CD JUMP JUMPDEST PUSH1 0x40 MLOAD DUP1 SWAP2 SUB SWAP1 REVERT JUMPDEST PUSH0 DUP2 NUMBER PUSH2 0x4CF SWAP2 SWAP1 PUSH2 0x1218 JUMP JUMPDEST SWAP1 POP PUSH0 JUMPDEST DUP3 DUP2 LT ISZERO PUSH2 0x507 JUMPI PUSH1 0x2 PUSH0 DUP3 DUP5 PUSH2 0x4EA SWAP2 SWAP1 PUSH2 0x1218 JUMP JUMPDEST DUP2 MSTORE PUSH1 0x20 ADD SWAP1 DUP2 MSTORE PUSH1 0x20 ADD PUSH0 KECCAK256 PUSH0 SWAP1 SSTORE DUP1 DUP1 PUSH1 0x1 ADD SWAP2 POP POP PUSH2 0x4D3 JUMP JUMPDEST POP POP POP JUMP JUMPDEST PUSH0 PUSH2 0x515 PUSH2 0x81E JUMP JUMPDEST PUSH2 0x51D PUSH2 0xBC1 JUMP JUMPDEST PUSH1 0x32 PUSH1 0x2 PUSH0 NUMBER DUP2 MSTORE PUSH1 0x20 ADD SWAP1 DUP2 MSTORE PUSH1 0x20 ADD PUSH0 KECCAK256 SLOAD LT PUSH2 0x571 JUMPI PUSH1 0x40 MLOAD PUSH32 0x8C379A000000000000000000000000000000000000000000000000000000000 DUP2 MSTORE PUSH1 0x4 ADD PUSH2 0x568 SWAP1 PUSH2 0x1295 JUMP JUMPDEST PUSH1 0x40 MLOAD DUP1 SWAP2 SUB SWAP1 REVERT JUMPDEST PUSH0 PUSH2 0x57C DUP5 DUP5 PUSH2 0xC07 JUMP JUMPDEST SWAP1 POP PUSH1 0x3 PUSH0 DUP3 DUP2 MSTORE PUSH1 0x20 ADD SWAP1 DUP2 MSTORE PUSH1 0x20 ADD PUSH0 KECCAK256 PUSH0 SWAP1 SLOAD SWAP1 PUSH2 0x100 EXP SWAP1 DIV PUSH1 0xFF AND ISZERO PUSH2 0x5DC JUMPI PUSH1 0x40 MLOAD PUSH32 0x8C379A000000000000000000000000000000000000000000000000000000000 DUP2 MSTORE PUSH1 0x4 ADD PUSH2 0x5D3 SWAP1 PUSH2 0x12FD JUMP JUMPDEST PUSH1 0x40 MLOAD DUP1 SWAP2 SUB SWAP1 REVERT JUMPDEST PUSH0 ADDRESS PUSH20 0xFFFFFFFFFFFFFFFFFFFFFFFFFFFFFFFFFFFFFFFF AND PUSH4 0x1B81F829 DUP7 DUP7 PUSH1 0x40 MLOAD DUP4 PUSH4 0xFFFFFFFF AND PUSH1 0xE0 SHL DUP2 MSTORE PUSH1 0x4 ADD PUSH2 0x618 SWAP3 SWAP2 SWAP1 PUSH2 0x1345 JUMP JUMPDEST PUSH1 0x20 PUSH1 0x40 MLOAD DUP1 DUP4 SUB DUP2 DUP7 GAS STATICCALL SWAP3 POP POP POP DUP1 ISZERO PUSH2 0x652 JUMPI POP PUSH1 0x40 MLOAD RETURNDATASIZE PUSH1 0x1F NOT PUSH1 0x1F DUP3 ADD AND DUP3 ADD DUP1 PUSH1 0x40 MSTORE POP DUP2 ADD SWAP1 PUSH2 0x64F SWAP2 SWAP1 PUSH2 0x1398 JUMP JUMPDEST PUSH1 0x1 JUMPDEST PUSH2 0x6CC JUMPI PUSH2 0x65E PUSH2 0x13CF JUMP JUMPDEST DUP1 PUSH4 0x8C379A0 SUB PUSH2 0x6C2 JUMPI POP PUSH2 0x672 PUSH2 0x145C JUMP JUMPDEST DUP1 PUSH2 0x67D JUMPI POP PUSH2 0x6C4 JUMP JUMPDEST DUP3 PUSH32 0xEABE9D31F64F68FA6A548E84D57C997311A32AB33A5445EA892460D3253C366D DUP3 TIMESTAMP PUSH1 0x40 MLOAD PUSH2 0x6AF SWAP3 SWAP2 SWAP1 PUSH2 0x153B JUMP JUMPDEST PUSH1 0x40 MLOAD DUP1 SWAP2 SUB SWAP1 LOG2 PUSH0 SWAP4 POP POP POP POP PUSH2 0x78C JUMP JUMPDEST POP JUMPDEST RETURNDATASIZE PUSH0 DUP1 RETURNDATACOPY RETURNDATASIZE PUSH0 REVERT JUMPDEST DUP1 SWAP2 POP POP DUP1 PUSH1 0x3 PUSH0 DUP5 DUP2 MSTORE PUSH1 0x20 ADD SWAP1 DUP2 MSTORE PUSH1 0x20 ADD PUSH0 KECCAK256 PUSH0 PUSH2 0x100 EXP DUP2 SLOAD DUP2 PUSH1 0xFF MUL NOT AND SWAP1 DUP4 ISZERO ISZERO MUL OR SWAP1 SSTORE POP TIMESTAMP PUSH1 0x4 PUSH0 DUP5 DUP2 MSTORE PUSH1 0x20 ADD SWAP1 DUP2 MSTORE PUSH1 0x20 ADD PUSH0 KECCAK256 DUP2 SWAP1 SSTORE POP PUSH1 0x2 PUSH0 NUMBER DUP2 MSTORE PUSH1 0x20 ADD SWAP1 DUP2 MSTORE PUSH1 0x20 ADD PUSH0 KECCAK256 PUSH0 DUP2 SLOAD DUP1 SWAP3 SWAP2 SWAP1 PUSH2 0x72F SWAP1 PUSH2 0x1569 JUMP JUMPDEST SWAP2 SWAP1 POP SSTORE POP DUP1 ISZERO ISZERO CALLER PUSH20 0xFFFFFFFFFFFFFFFFFFFFFFFFFFFFFFFFFFFFFFFF AND DUP4 PUSH32 0xD70445AE79BFA82BD8C52E90CA89940DFF8279C6C39F91265BE2F4AE43E4CAE2 TIMESTAMP PUSH1 0x40 MLOAD PUSH2 0x77E SWAP2 SWAP1 PUSH2 0x15B0 JUMP JUMPDEST PUSH1 0x40 MLOAD DUP1 SWAP2 SUB SWAP1 LOG4 DUP1 SWAP3 POP POP POP JUMPDEST PUSH2 0x794 PUSH2 0xC39 JUMP JUMPDEST SWAP3 SWAP2 POP POP JUMP JUMPDEST PUSH2 0x7A2 PUSH2 0x9B6 JUMP JUMPDEST PUSH0 PUSH20 0xFFFFFFFFFFFFFFFFFFFFFFFFFFFFFFFFFFFFFFFF AND DUP2 PUSH20 0xFFFFFFFFFFFFFFFFFFFFFFFFFFFFFFFFFFFFFFFF AND SUB PUSH2 0x812 JUMPI PUSH0 PUSH1 0x40 MLOAD PUSH32 0x1E4FBDF700000000000000000000000000000000000000000000000000000000 DUP2 MSTORE PUSH1 0x4 ADD PUSH2 0x809 SWAP2 SWAP1 PUSH2 0x101B JUMP JUMPDEST PUSH1 0x40 MLOAD DUP1 SWAP2 SUB SWAP1 REVERT JUMPDEST PUSH2 0x81B DUP2 PUSH2 0xA9E JUMP JUMPDEST POP JUMP JUMPDEST PUSH2 0x826 PUSH2 0x417 JUMP JUMPDEST ISZERO PUSH2 0x85D JUMPI PUSH1 0x40 MLOAD PUSH32 0xD93C066500000000000000000000000000000000000000000000000000000000 DUP2 MSTORE PUSH1 0x4 ADD PUSH1 0x40 MLOAD DUP1 SWAP2 SUB SWAP1 REVERT JUMPDEST JUMP JUMPDEST PUSH0 DUP1 PUSH0 SWAP1 POP JUMPDEST PUSH1 0x8 DUP2 LT ISZERO PUSH2 0x8C2 JUMPI PUSH32 0x30644E72E131A029B85045B68181585D2833E84879B9709143E1F593F0000001 DUP5 DUP3 PUSH1 0x8 DUP2 LT PUSH2 0x8A2 JUMPI PUSH2 0x8A1 PUSH2 0x1156 JUMP JUMPDEST JUMPDEST PUSH1 0x20 MUL ADD CALLDATALOAD LT PUSH2 0x8B5 JUMPI PUSH0 SWAP2 POP POP PUSH2 0x90E JUMP JUMPDEST DUP1 DUP1 PUSH1 0x1 ADD SWAP2 POP POP PUSH2 0x865 JUMP JUMPDEST POP PUSH32 0x30644E72E131A029B85045B68181585D2833E84879B9709143E1F593F0000001 DUP3 PUSH0 PUSH1 0x1 DUP2 LT PUSH2 0x8F7 JUMPI PUSH2 0x8F6 PUSH2 0x1156 JUMP JUMPDEST JUMPDEST PUSH1 0x20 MUL ADD CALLDATALOAD LT PUSH2 0x909 JUMPI PUSH0 SWAP1 POP PUSH2 0x90E JUMP JUMPDEST PUSH1 0x1 SWAP1 POP JUMPDEST SWAP3 SWAP2 POP POP JUMP JUMPDEST PUSH0 PUSH2 0x91E DUP6 PUSH2 0xC42 JUMP JUMPDEST ISZERO DUP1 PUSH2 0x930 JUMPI POP PUSH2 0x92E DUP5 PUSH2 0xCF7 JUMP JUMPDEST ISZERO JUMPDEST DUP1 PUSH2 0x941 JUMPI POP PUSH2 0x93F DUP4 PUSH2 0xC42 JUMP JUMPDEST ISZERO JUMPDEST ISZERO PUSH2 0x94E JUMPI PUSH0 SWAP1 POP PUSH2 0x9AE JUMP JUMPDEST PUSH2 0x956 PUSH2 0xE56 JUMP JUMPDEST PUSH0 DUP7 MLOAD DUP3 MSTORE PUSH1 0x20 DUP8 ADD MLOAD PUSH1 0x20 DUP4 ADD MSTORE PUSH1 0x20 DUP7 ADD DUP1 MLOAD PUSH1 0x40 DUP5 ADD MSTORE PUSH1 0x20 DUP2 ADD MLOAD PUSH1 0x60 DUP5 ADD MSTORE PUSH1 0x40 DUP2 ADD MLOAD PUSH1 0x80 DUP5 ADD MSTORE PUSH1 0x60 DUP2 ADD MLOAD PUSH1 0xA0 DUP5 ADD MSTORE PUSH1 0x20 DUP4 PUSH2 0x300 DUP6 PUSH1 0x8 GAS STATICCALL DUP1 PUSH2 0x9A2 JUMPI PUSH0 DUP1 REVERT JUMPDEST DUP4 MLOAD SWAP3 POP POP POP DUP1 SWAP3 POP POP POP JUMPDEST SWAP5 SWAP4 POP POP POP POP JUMP JUMPDEST PUSH2 0x9BE PUSH2 0xE0F JUMP JUMPDEST PUSH20 0xFFFFFFFFFFFFFFFFFFFFFFFFFFFFFFFFFFFFFFFF AND PUSH2 0x9DC PUSH2 0x451 JUMP JUMPDEST PUSH20 0xFFFFFFFFFFFFFFFFFFFFFFFFFFFFFFFFFFFFFFFF AND EQ PUSH2 0xA3B JUMPI PUSH2 0x9FF PUSH2 0xE0F JUMP JUMPDEST PUSH1 0x40 MLOAD PUSH32 0x118CDAA700000000000000000000000000000000000000000000000000000000 DUP2 MSTORE PUSH1 0x4 ADD PUSH2 0xA32 SWAP2 SWAP1 PUSH2 0x101B JUMP JUMPDEST PUSH1 0x40 MLOAD DUP1 SWAP2 SUB SWAP1 REVERT JUMPDEST JUMP JUMPDEST PUSH2 0xA45 PUSH2 0xE16 JUMP JUMPDEST PUSH0 DUP1 PUSH1 0x14 PUSH2 0x100 EXP DUP2 SLOAD DUP2 PUSH1 0xFF MUL NOT AND SWAP1 DUP4 ISZERO ISZERO MUL OR SWAP1 SSTORE POP PUSH32 0x5DB9EE0A495BF2E6FF9C91A7834C1BA4FDD244A5E8AA4E537BD38AEAE4B073AA PUSH2 0xA87 PUSH2 0xE0F JUMP JUMPDEST PUSH1 0x40 MLOAD PUSH2 0xA94 SWAP2 SWAP1 PUSH2 0x101B JUMP JUMPDEST PUSH1 0x40 MLOAD DUP1 SWAP2 SUB SWAP1 LOG1 JUMP JUMPDEST PUSH0 DUP1 PUSH0 SWAP1 SLOAD SWAP1 PUSH2 0x100 EXP SWAP1 DIV PUSH20 0xFFFFFFFFFFFFFFFFFFFFFFFFFFFFFFFFFFFFFFFF AND SWAP1 POP DUP2 PUSH0 DUP1 PUSH2 0x100 EXP DUP2 SLOAD DUP2 PUSH20 0xFFFFFFFFFFFFFFFFFFFFFFFFFFFFFFFFFFFFFFFF MUL NOT AND SWAP1 DUP4 PUSH20 0xFFFFFFFFFFFFFFFFFFFFFFFFFFFFFFFFFFFFFFFF AND MUL OR SWAP1 SSTORE POP DUP2 PUSH20 0xFFFFFFFFFFFFFFFFFFFFFFFFFFFFFFFFFFFFFFFF AND DUP2 PUSH20 0xFFFFFFFFFFFFFFFFFFFFFFFFFFFFFFFFFFFFFFFF AND PUSH32 0x8BE0079C531659141344CD1FD0A4F28419497F9722A3DAAFE3B4186F6B6457E0 PUSH1 0x40 MLOAD PUSH1 0x40 MLOAD DUP1 SWAP2 SUB SWAP1 LOG3 POP POP JUMP JUMPDEST PUSH2 0xB67 PUSH2 0x81E JUMP JUMPDEST PUSH1 0x1 PUSH0 PUSH1 0x14 PUSH2 0x100 EXP DUP2 SLOAD DUP2 PUSH1 0xFF MUL NOT AND SWAP1 DUP4 ISZERO ISZERO MUL OR SWAP1 SSTORE POP PUSH32 0x62E78CEA01BEE320CD4E420270B5EA74000D11B0C9F74754EBDBFC544B05A258 PUSH2 0xBAA PUSH2 0xE0F JUMP JUMPDEST PUSH1 0x40 MLOAD PUSH2 0xBB7 SWAP2 SWAP1 PUSH2 0x101B JUMP JUMPDEST PUSH1 0x40 MLOAD DUP1 SWAP2 SUB SWAP1 LOG1 JUMP JUMPDEST PUSH1 0x2 PUSH1 0x1 SLOAD SUB PUSH2 0xBFD JUMPI PUSH1 0x40 MLOAD PUSH32 0x3EE5AEB500000000000000000000000000000000000000000000000000000000 DUP2 MSTORE PUSH1 0x4 ADD PUSH1 0x40 MLOAD DUP1 SWAP2 SUB SWAP1 REVERT JUMPDEST PUSH1 0x2 PUSH1 0x1 DUP2 SWAP1 SSTORE POP JUMP JUMPDEST PUSH0 DUP3 DUP3 PUSH1 0x40 MLOAD PUSH1 0x20 ADD PUSH2 0xC1B SWAP3 SWAP2 SWAP1 PUSH2 0x15EA JUMP JUMPDEST PUSH1 0x40 MLOAD PUSH1 0x20 DUP2 DUP4 SUB SUB DUP2 MSTORE SWAP1 PUSH1 0x40 MSTORE DUP1 MLOAD SWAP1 PUSH1 0x20 ADD KECCAK256 SWAP1 POP SWAP3 SWAP2 POP POP JUMP JUMPDEST PUSH1 0x1 DUP1 DUP2 SWAP1 SSTORE POP JUMP JUMPDEST PUSH0 DUP1 PUSH32 0x30644E72E131A029B85045B68181585D2833E84879B9709143E1F593F0000001 SWAP1 POP DUP1 DUP4 PUSH0 ADD MLOAD LT ISZERO DUP1 PUSH2 0xC7D JUMPI POP DUP1 DUP4 PUSH1 0x20 ADD MLOAD LT ISZERO JUMPDEST ISZERO PUSH2 0xC8B JUMPI PUSH0 SWAP2 POP POP PUSH2 0xCF2 JUMP JUMPDEST PUSH0 DUP2 DUP1 PUSH2 0xC9B JUMPI PUSH2 0xC9A PUSH2 0x1616 JUMP JUMPDEST JUMPDEST DUP5 PUSH1 0x20 ADD MLOAD DUP6 PUSH1 0x20 ADD MLOAD MULMOD SWAP1 POP PUSH0 DUP3 DUP1 PUSH2 0xCB8 JUMPI PUSH2 0xCB7 PUSH2 0x1616 JUMP JUMPDEST JUMPDEST PUSH1 0x3 DUP5 DUP1 PUSH2 0xCC9 JUMPI PUSH2 0xCC8 PUSH2 0x1616 JUMP JUMPDEST JUMPDEST DUP8 PUSH0 ADD MLOAD DUP7 DUP1 PUSH2 0xCDC JUMPI PUSH2 0xCDB PUSH2 0x1616 JUMP JUMPDEST JUMPDEST DUP10 PUSH0 ADD MLOAD DUP11 PUSH0 ADD MLOAD MULMOD MULMOD ADDMOD SWAP1 POP DUP1 DUP3 EQ SWAP4 POP POP POP POP JUMPDEST SWAP2 SWAP1 POP JUMP JUMPDEST PUSH0 PUSH32 0x30644E72E131A029B85045B68181585D2833E84879B9709143E1F593F0000001 DUP3 PUSH0 ADD MLOAD PUSH0 PUSH1 0x2 DUP2 LT PUSH2 0xD2F JUMPI PUSH2 0xD2E PUSH2 0x1156 JUMP JUMPDEST JUMPDEST PUSH1 0x20 MUL ADD MLOAD LT DUP1 ISZERO PUSH2 0xD7B JUMPI POP PUSH32 0x30644E72E131A029B85045B68181585D2833E84879B9709143E1F593F0000001 DUP3 PUSH0 ADD MLOAD PUSH1 0x1 PUSH1 0x2 DUP2 LT PUSH2 0xD74 JUMPI PUSH2 0xD73 PUSH2 0x1156 JUMP JUMPDEST JUMPDEST PUSH1 0x20 MUL ADD MLOAD LT JUMPDEST DUP1 ISZERO PUSH2 0xDC1 JUMPI POP PUSH32 0x30644E72E131A029B85045B68181585D2833E84879B9709143E1F593F0000001 DUP3 PUSH1 0x20 ADD MLOAD PUSH0 PUSH1 0x2 DUP2 LT PUSH2 0xDBA JUMPI PUSH2 0xDB9 PUSH2 0x1156 JUMP JUMPDEST JUMPDEST PUSH1 0x20 MUL ADD MLOAD LT JUMPDEST DUP1 ISZERO PUSH2 0xE08 JUMPI POP PUSH32 0x30644E72E131A029B85045B68181585D2833E84879B9709143E1F593F0000001 DUP3 PUSH1 0x20 ADD MLOAD PUSH1 0x1 PUSH1 0x2 DUP2 LT PUSH2 0xE01 JUMPI PUSH2 0xE00 PUSH2 0x1156 JUMP JUMPDEST JUMPDEST PUSH1 0x20 MUL ADD MLOAD LT JUMPDEST SWAP1 POP SWAP2 SWAP1 POP JUMP JUMPDEST PUSH0 CALLER SWAP1 POP SWAP1 JUMP JUMPDEST PUSH2 0xE1E PUSH2 0x417 JUMP JUMPDEST PUSH2 0xE54 JUMPI PUSH1 0x40 MLOAD PUSH32 0x8DFC202B00000000000000000000000000000000000000000000000000000000 DUP2 MSTORE PUSH1 0x4 ADD PUSH1 0x40 MLOAD DUP1 SWAP2 SUB SWAP1 REVERT JUMPDEST JUMP JUMPDEST PUSH1 0x40 MLOAD DUP1 PUSH2 0x300 ADD PUSH1 0x40 MSTORE DUP1 PUSH1 0x18 SWAP1 PUSH1 0x20 DUP3 MUL DUP1 CALLDATASIZE DUP4 CALLDATACOPY DUP1 DUP3 ADD SWAP2 POP POP SWAP1 POP POP SWAP1 JUMP JUMPDEST PUSH0 PUSH1 0x40 MLOAD SWAP1 POP SWAP1 JUMP JUMPDEST PUSH0 DUP1 REVERT JUMPDEST PUSH0 DUP2 SWAP1 POP SWAP2 SWAP1 POP JUMP JUMPDEST PUSH2 0xE98 DUP2 PUSH2 0xE86 JUMP JUMPDEST DUP2 EQ PUSH2 0xEA2 JUMPI PUSH0 DUP1 REVERT JUMPDEST POP JUMP JUMPDEST PUSH0 DUP2 CALLDATALOAD SWAP1 POP PUSH2 0xEB3 DUP2 PUSH2 0xE8F JUMP JUMPDEST SWAP3 SWAP2 POP POP JUMP JUMPDEST PUSH0 PUSH1 0x20 DUP3 DUP5 SUB SLT ISZERO PUSH2 0xECE JUMPI PUSH2 0xECD PUSH2 0xE82 JUMP JUMPDEST JUMPDEST PUSH0 PUSH2 0xEDB DUP5 DUP3 DUP6 ADD PUSH2 0xEA5 JUMP JUMPDEST SWAP2 POP POP SWAP3 SWAP2 POP POP JUMP JUMPDEST PUSH0 DUP2 ISZERO ISZERO SWAP1 POP SWAP2 SWAP1 POP JUMP JUMPDEST PUSH2 0xEF8 DUP2 PUSH2 0xEE4 JUMP JUMPDEST DUP3 MSTORE POP POP JUMP JUMPDEST PUSH0 PUSH1 0x20 DUP3 ADD SWAP1 POP PUSH2 0xF11 PUSH0 DUP4 ADD DUP5 PUSH2 0xEEF JUMP JUMPDEST SWAP3 SWAP2 POP POP JUMP JUMPDEST PUSH0 DUP1 REVERT JUMPDEST PUSH0 DUP2 SWAP1 POP DUP3 PUSH1 0x20 PUSH1 0x8 MUL DUP3 ADD GT ISZERO PUSH2 0xF36 JUMPI PUSH2 0xF35 PUSH2 0xF17 JUMP JUMPDEST JUMPDEST SWAP3 SWAP2 POP POP JUMP JUMPDEST PUSH0 DUP2 SWAP1 POP DUP3 PUSH1 0x20 PUSH1 0x1 MUL DUP3 ADD GT ISZERO PUSH2 0xF57 JUMPI PUSH2 0xF56 PUSH2 0xF17 JUMP JUMPDEST JUMPDEST SWAP3 SWAP2 POP POP JUMP JUMPDEST PUSH0 DUP1 PUSH2 0x120 DUP4 DUP6 SUB SLT ISZERO PUSH2 0xF74 JUMPI PUSH2 0xF73 PUSH2 0xE82 JUMP JUMPDEST JUMPDEST PUSH0 PUSH2 0xF81 DUP6 DUP3 DUP7 ADD PUSH2 0xF1B JUMP JUMPDEST SWAP3 POP POP PUSH2 0x100 PUSH2 0xF93 DUP6 DUP3 DUP7 ADD PUSH2 0xF3C JUMP JUMPDEST SWAP2 POP POP SWAP3 POP SWAP3 SWAP1 POP JUMP JUMPDEST PUSH0 DUP2 SWAP1 POP SWAP2 SWAP1 POP JUMP JUMPDEST PUSH2 0xFAF DUP2 PUSH2 0xF9D JUMP JUMPDEST DUP3 MSTORE POP POP JUMP JUMPDEST PUSH0 PUSH1 0x40 DUP3 ADD SWAP1 POP PUSH2 0xFC8 PUSH0 DUP4 ADD DUP6 PUSH2 0xEEF JUMP JUMPDEST PUSH2 0xFD5 PUSH1 0x20 DUP4 ADD DUP5 PUSH2 0xFA6 JUMP JUMPDEST SWAP4 SWAP3 POP POP POP JUMP JUMPDEST PUSH0 PUSH20 0xFFFFFFFFFFFFFFFFFFFFFFFFFFFFFFFFFFFFFFFF DUP3 AND SWAP1 POP SWAP2 SWAP1 POP JUMP JUMPDEST PUSH0 PUSH2 0x1005 DUP3 PUSH2 0xFDC JUMP JUMPDEST SWAP1 POP SWAP2 SWAP1 POP JUMP JUMPDEST PUSH2 0x1015 DUP2 PUSH2 0xFFB JUMP JUMPDEST DUP3 MSTORE POP POP JUMP JUMPDEST PUSH0 PUSH1 0x20 DUP3 ADD SWAP1 POP PUSH2 0x102E PUSH0 DUP4 ADD DUP5 PUSH2 0x100C JUMP JUMPDEST SWAP3 SWAP2 POP POP JUMP JUMPDEST PUSH2 0x103D DUP2 PUSH2 0xF9D JUMP JUMPDEST DUP2 EQ PUSH2 0x1047 JUMPI PUSH0 DUP1 REVERT JUMPDEST POP JUMP JUMPDEST PUSH0 DUP2 CALLDATALOAD SWAP1 POP PUSH2 0x1058 DUP2 PUSH2 0x1034 JUMP JUMPDEST SWAP3 SWAP2 POP POP JUMP JUMPDEST PUSH0 PUSH1 0x20 DUP3 DUP5 SUB SLT ISZERO PUSH2 0x1073 JUMPI PUSH2 0x1072 PUSH2 0xE82 JUMP JUMPDEST JUMPDEST PUSH0 PUSH2 0x1080 DUP5 DUP3 DUP6 ADD PUSH2 0x104A JUMP JUMPDEST SWAP2 POP POP SWAP3 SWAP2 POP POP JUMP JUMPDEST PUSH2 0x1092 DUP2 PUSH2 0xFFB JUMP JUMPDEST DUP2 EQ PUSH2 0x109C JUMPI PUSH0 DUP1 REVERT JUMPDEST POP JUMP JUMPDEST PUSH0 DUP2 CALLDATALOAD SWAP1 POP PUSH2 0x10AD DUP2 PUSH2 0x1089 JUMP JUMPDEST SWAP3 SWAP2 POP POP JUMP JUMPDEST PUSH0 PUSH1 0x20 DUP3 DUP5 SUB SLT ISZERO PUSH2 0x10C8 JUMPI PUSH2 0x10C7 PUSH2 0xE82 JUMP JUMPDEST JUMPDEST PUSH0 PUSH2 0x10D5 DUP5 DUP3 DUP6 ADD PUSH2 0x109F JUMP JUMPDEST SWAP2 POP POP SWAP3 SWAP2 POP POP JUMP JUMPDEST PUSH0 DUP3 DUP3 MSTORE PUSH1 0x20 DUP3 ADD SWAP1 POP SWAP3 SWAP2 POP POP JUMP JUMPDEST PUSH32 0x496E76616C696420696E70757473000000000000000000000000000000000000 PUSH0 DUP3 ADD MSTORE POP JUMP JUMPDEST PUSH0 PUSH2 0x1122 PUSH1 0xE DUP4 PUSH2 0x10DE JUMP JUMPDEST SWAP2 POP PUSH2 0x112D DUP3 PUSH2 0x10EE JUMP JUMPDEST PUSH1 0x20 DUP3 ADD SWAP1 POP SWAP2 SWAP1 POP JUMP JUMPDEST PUSH0 PUSH1 0x20 DUP3 ADD SWAP1 POP DUP2 DUP2 SUB PUSH0 DUP4 ADD MSTORE PUSH2 0x114F DUP2 PUSH2 0x1116 JUMP JUMPDEST SWAP1 POP SWAP2 SWAP1 POP JUMP JUMPDEST PUSH32 0x4E487B7100000000000000000000000000000000000000000000000000000000 PUSH0 MSTORE PUSH1 0x32 PUSH1 0x4 MSTORE PUSH1 0x24 PUSH0 REVERT JUMPDEST PUSH32 0x496E76616C696420626C6F636B20636F756E7400000000000000000000000000 PUSH0 DUP3 ADD MSTORE POP JUMP JUMPDEST PUSH0 PUSH2 0x11B7 PUSH1 0x13 DUP4 PUSH2 0x10DE JUMP JUMPDEST SWAP2 POP PUSH2 0x11C2 DUP3 PUSH2 0x1183 JUMP JUMPDEST PUSH1 0x20 DUP3 ADD SWAP1 POP SWAP2 SWAP1 POP JUMP JUMPDEST PUSH0 PUSH1 0x20 DUP3 ADD SWAP1 POP DUP2 DUP2 SUB PUSH0 DUP4 ADD MSTORE PUSH2 0x11E4 DUP2 PUSH2 0x11AB JUMP JUMPDEST SWAP1 POP SWAP2 SWAP1 POP JUMP JUMPDEST PUSH32 0x4E487B7100000000000000000000000000000000000000000000000000000000 PUSH0 MSTORE PUSH1 0x11 PUSH1 0x4 MSTORE PUSH1 0x24 PUSH0 REVERT JUMPDEST PUSH0 PUSH2 0x1222 DUP3 PUSH2 0xF9D JUMP JUMPDEST SWAP2 POP PUSH2 0x122D DUP4 PUSH2 0xF9D JUMP JUMPDEST SWAP3 POP DUP3 DUP3 SUB SWAP1 POP DUP2 DUP2 GT ISZERO PUSH2 0x1245 JUMPI PUSH2 0x1244 PUSH2 0x11EB JUMP JUMPDEST JUMPDEST SWAP3 SWAP2 POP POP JUMP JUMPDEST PUSH32 0x52617465206C696D697420657863656564656400000000000000000000000000 PUSH0 DUP3 ADD MSTORE POP JUMP JUMPDEST PUSH0 PUSH2 0x127F PUSH1 0x13 DUP4 PUSH2 0x10DE JUMP JUMPDEST SWAP2 POP PUSH2 0x128A DUP3 PUSH2 0x124B JUMP JUMPDEST PUSH1 0x20 DUP3 ADD SWAP1 POP SWAP2 SWAP1 POP JUMP JUMPDEST PUSH0 PUSH1 0x20 DUP3 ADD SWAP1 POP DUP2 DUP2 SUB PUSH0 DUP4 ADD MSTORE PUSH2 0x12AC DUP2 PUSH2 0x1273 JUMP JUMPDEST SWAP1 POP SWAP2 SWAP1 POP JUMP JUMPDEST PUSH32 0x50726F6F6620616C726561647920766572696669656400000000000000000000 PUSH0 DUP3 ADD MSTORE POP JUMP JUMPDEST PUSH0 PUSH2 0x12E7 PUSH1 0x16 DUP4 PUSH2 0x10DE JUMP JUMPDEST SWAP2 POP PUSH2 0x12F2 DUP3 PUSH2 0x12B3 JUMP JUMPDEST PUSH1 0x20 DUP3 ADD SWAP1 POP SWAP2 SWAP1 POP JUMP JUMPDEST PUSH0 PUSH1 0x20 DUP3 ADD SWAP1 POP DUP2 DUP2 SUB PUSH0 DUP4 ADD MSTORE PUSH2 0x1314 DUP2 PUSH2 0x12DB JUMP JUMPDEST SWAP1 POP SWAP2 SWAP1 POP JUMP JUMPDEST DUP3 DUP2 DUP4 CALLDATACOPY POP POP POP JUMP JUMPDEST PUSH2 0x1331 PUSH2 0x100 DUP4 DUP4 PUSH2 0x131B JUMP JUMPDEST POP POP JUMP JUMPDEST PUSH2 0x1341 PUSH1 0x20 DUP4 DUP4 PUSH2 0x131B JUMP JUMPDEST POP POP JUMP JUMPDEST PUSH0 PUSH2 0x120 DUP3 ADD SWAP1 POP PUSH2 0x1359 PUSH0 DUP4 ADD DUP6 PUSH2 0x1324 JUMP JUMPDEST PUSH2 0x1367 PUSH2 0x100 DUP4 ADD DUP5 PUSH2 0x1335 JUMP JUMPDEST SWAP4 SWAP3 POP POP POP JUMP JUMPDEST PUSH2 0x1377 DUP2 PUSH2 0xEE4 JUMP JUMPDEST DUP2 EQ PUSH2 0x1381 JUMPI PUSH0 DUP1 REVERT JUMPDEST POP JUMP JUMPDEST PUSH0 DUP2 MLOAD SWAP1 POP PUSH2 0x1392 DUP2 PUSH2 0x136E JUMP JUMPDEST SWAP3 SWAP2 POP POP JUMP JUMPDEST PUSH0 PUSH1 0x20 DUP3 DUP5 SUB SLT ISZERO PUSH2 0x13AD JUMPI PUSH2 0x13AC PUSH2 0xE82 JUMP JUMPDEST JUMPDEST PUSH0 PUSH2 0x13BA DUP5 DUP3 DUP6 ADD PUSH2 0x1384 JUMP JUMPDEST SWAP2 POP POP SWAP3 SWAP2 POP POP JUMP JUMPDEST PUSH0 DUP2 PUSH1 0xE0 SHR SWAP1 POP SWAP2 SWAP1 POP JUMP JUMPDEST PUSH0 PUSH1 0x3 RETURNDATASIZE GT ISZERO PUSH2 0x13EB JUMPI PUSH1 0x4 PUSH0 DUP1 RETURNDATACOPY PUSH2 0x13E8 PUSH0 MLOAD PUSH2 0x13C3 JUMP JUMPDEST SWAP1 POP JUMPDEST SWAP1 JUMP JUMPDEST PUSH0 PUSH1 0x1F NOT PUSH1 0x1F DUP4 ADD AND SWAP1 POP SWAP2 SWAP1 POP JUMP JUMPDEST PUSH32 0x4E487B7100000000000000000000000000000000000000000000000000000000 PUSH0 MSTORE PUSH1 0x41 PUSH1 0x4 MSTORE PUSH1 0x24 PUSH0 REVERT JUMPDEST PUSH2 0x1434 DUP3 PUSH2 0x13EE JUMP JUMPDEST DUP2 ADD DUP2 DUP2 LT PUSH8 0xFFFFFFFFFFFFFFFF DUP3 GT OR ISZERO PUSH2 0x1453 JUMPI PUSH2 0x1452 PUSH2 0x13FE JUMP JUMPDEST JUMPDEST DUP1 PUSH1 0x40 MSTORE POP POP POP JUMP JUMPDEST PUSH0 PUSH1 0x44 RETURNDATASIZE LT PUSH2 0x14E8 JUMPI PUSH2 0x146D PUSH2 0xE79 JUMP JUMPDEST PUSH1 0x4 RETURNDATASIZE SUB PUSH1 0x4 DUP3 RETURNDATACOPY DUP1 MLOAD RETURNDATASIZE PUSH1 0x24 DUP3 ADD GT PUSH8 0xFFFFFFFFFFFFFFFF DUP3 GT OR ISZERO PUSH2 0x1495 JUMPI POP POP PUSH2 0x14E8 JUMP JUMPDEST DUP1 DUP3 ADD DUP1 MLOAD PUSH8 0xFFFFFFFFFFFFFFFF DUP2 GT ISZERO PUSH2 0x14B3 JUMPI POP POP POP POP PUSH2 0x14E8 JUMP JUMPDEST DUP1 PUSH1 0x20 DUP4 ADD ADD PUSH1 0x4 RETURNDATASIZE SUB DUP6 ADD DUP2 GT ISZERO PUSH2 0x14D0 JUMPI POP POP POP POP POP PUSH2 0x14E8 JUMP JUMPDEST PUSH2 0x14DF DUP3 PUSH1 0x20 ADD DUP6 ADD DUP7 PUSH2 0x142B JUMP JUMPDEST DUP3 SWAP6 POP POP POP POP POP POP JUMPDEST SWAP1 JUMP JUMPDEST PUSH0 DUP2 MLOAD SWAP1 POP SWAP2 SWAP1 POP JUMP JUMPDEST DUP3 DUP2 DUP4 MCOPY PUSH0 DUP4 DUP4 ADD MSTORE POP POP POP JUMP JUMPDEST PUSH0 PUSH2 0x150D DUP3 PUSH2 0x14EB JUMP JUMPDEST PUSH2 0x1517 DUP2 DUP6 PUSH2 0x10DE JUMP JUMPDEST SWAP4 POP PUSH2 0x1527 DUP2 DUP6 PUSH1 0x20 DUP7 ADD PUSH2 0x14F5 JUMP JUMPDEST PUSH2 0x1530 DUP2 PUSH2 0x13EE JUMP JUMPDEST DUP5 ADD SWAP2 POP POP SWAP3 SWAP2 POP POP JUMP JUMPDEST PUSH0 PUSH1 0x40 DUP3 ADD SWAP1 POP DUP2 DUP2 SUB PUSH0 DUP4 ADD MSTORE PUSH2 0x1553 DUP2 DUP6 PUSH2 0x1503 JUMP JUMPDEST SWAP1 POP PUSH2 0x1562 PUSH1 0x20 DUP4 ADD DUP5 PUSH2 0xFA6 JUMP JUMPDEST SWAP4 SWAP3 POP POP POP JUMP JUMPDEST PUSH0 PUSH2 0x1573 DUP3 PUSH2 0xF9D JUMP JUMPDEST SWAP2 POP PUSH32 0xFFFFFFFFFFFFFFFFFFFFFFFFFFFFFFFFFFFFFFFFFFFFFFFFFFFFFFFFFFFFFFFF DUP3 SUB PUSH2 0x15A5 JUMPI PUSH2 0x15A4 PUSH2 0x11EB JUMP JUMPDEST JUMPDEST PUSH1 0x1 DUP3 ADD SWAP1 POP SWAP2 SWAP1 POP JUMP JUMPDEST PUSH0 PUSH1 0x20 DUP3 ADD SWAP1 POP PUSH2 0x15C3 PUSH0 DUP4 ADD DUP5 PUSH2 0xFA6 JUMP JUMPDEST SWAP3 SWAP2 POP POP JUMP JUMPDEST PUSH2 0x15D6 PUSH2 0x100 DUP4 DUP4 PUSH2 0x131B JUMP JUMPDEST POP POP JUMP JUMPDEST PUSH2 0x15E6 PUSH1 0x20 DUP4 DUP4 PUSH2 0x131B JUMP JUMPDEST POP POP JUMP JUMPDEST PUSH0 PUSH2 0x15F5 DUP3 DUP6 PUSH2 0x15C9 JUMP JUMPDEST PUSH2 0x100 DUP3 ADD SWAP2 POP PUSH2 0x1606 DUP3 DUP5 PUSH2 0x15DA JUMP JUMPDEST PUSH1 0x20 DUP3 ADD SWAP2 POP DUP2 SWAP1 POP SWAP4 SWAP3 POP POP POP JUMP JUMPDEST PUSH32 0x4E487B7100000000000000000000000000000000000000000000000000000000 PUSH0 MSTORE PUSH1 0x12 PUSH1 0x4 MSTORE PUSH1 0x24 PUSH0 REVERT INVALID LOG2 PUSH5 0x6970667358 0x22 SLT KECCAK256 0xD GASLIMIT 0xE2 0x26 SWAP16 SIGNEXTEND 0xC6 PUSH19 0x723821A4C89DBE6E50257F5DDC060647BE74F1 DUP9 PUSH14 0x90E5C564736F6C634300081A0033 "
		},
		"gasEstimates": {
			"creation": {
				"codeDepositCost": "1150600",
				"executionCost": "infinite",
				"totalCost": "infinite"
			},
			"external": {
				"clearOldBlockCounts(uint256)": "infinite",
				"getVerificationInfo(bytes32)": "5163",
				"owner()": "2559",
				"pause()": "infinite",
				"paused()": "2613",
				"renounceOwnership()": "infinite",
				"transferOwnership(address)": "infinite",
				"unpause()": "infinite",
				"verifiedProofs(bytes32)": "2786",
				"verifyAndRecordProof(uint256[8],uint256[1])": "infinite",
				"verifyProof(uint256[8],uint256[1])": "infinite"
			},
			"internal": {
				"_verifyProofPoints(struct ZKVerifier.G1Point memory,struct ZKVerifier.G2Point memory,struct ZKVerifier.G1Point memory,uint256)": "infinite",
				"generateProofHash(uint256[8] calldata,uint256[1] calldata)": "infinite",
				"isOnCurveG1(struct ZKVerifier.G1Point memory)": "infinite",
				"isOnCurveG2(struct ZKVerifier.G2Point memory)": "infinite",
				"validateInputs(uint256[8] calldata,uint256[1] calldata)": "infinite"
			}
		},
		"methodIdentifiers": {
			"clearOldBlockCounts(uint256)": "c8fea3a5",
			"getVerificationInfo(bytes32)": "41f03c69",
			"owner()": "8da5cb5b",
			"pause()": "8456cb59",
			"paused()": "5c975abb",
			"renounceOwnership()": "715018a6",
			"transferOwnership(address)": "f2fde38b",
			"unpause()": "3f4ba83a",
			"verifiedProofs(bytes32)": "176d80c4",
			"verifyAndRecordProof(uint256[8],uint256[1])": "cd95fe6b",
			"verifyProof(uint256[8],uint256[1])": "1b81f829"
		}
	},
	"abi": [
		{
			"inputs": [
				{
					"internalType": "address",
					"name": "initialOwner",
					"type": "address"
				}
			],
			"stateMutability": "nonpayable",
			"type": "constructor"
		},
		{
			"inputs": [],
			"name": "EnforcedPause",
			"type": "error"
		},
		{
			"inputs": [],
			"name": "ExpectedPause",
			"type": "error"
		},
		{
			"inputs": [
				{
					"internalType": "address",
					"name": "owner",
					"type": "address"
				}
			],
			"name": "OwnableInvalidOwner",
			"type": "error"
		},
		{
			"inputs": [
				{
					"internalType": "address",
					"name": "account",
					"type": "address"
				}
			],
			"name": "OwnableUnauthorizedAccount",
			"type": "error"
		},
		{
			"inputs": [],
			"name": "ReentrancyGuardReentrantCall",
			"type": "error"
		},
		{
			"anonymous": false,
			"inputs": [
				{
					"indexed": true,
					"internalType": "address",
					"name": "previousOwner",
					"type": "address"
				},
				{
					"indexed": true,
					"internalType": "address",
					"name": "newOwner",
					"type": "address"
				}
			],
			"name": "OwnershipTransferred",
			"type": "event"
		},
		{
			"anonymous": false,
			"inputs": [
				{
					"indexed": false,
					"internalType": "address",
					"name": "account",
					"type": "address"
				}
			],
			"name": "Paused",
			"type": "event"
		},
		{
			"anonymous": false,
			"inputs": [
				{
					"indexed": true,
					"internalType": "bytes32",
					"name": "proofHash",
					"type": "bytes32"
				},
				{
					"indexed": true,
					"internalType": "address",
					"name": "verifier",
					"type": "address"
				},
				{
					"indexed": true,
					"internalType": "bool",
					"name": "success",
					"type": "bool"
				},
				{
					"indexed": false,
					"internalType": "uint256",
					"name": "timestamp",
					"type": "uint256"
				}
			],
			"name": "ProofVerified",
			"type": "event"
		},
		{
			"anonymous": false,
			"inputs": [
				{
					"indexed": false,
					"internalType": "address",
					"name": "account",
					"type": "address"
				}
			],
			"name": "Unpaused",
			"type": "event"
		},
		{
			"anonymous": false,
			"inputs": [
				{
					"indexed": true,
					"internalType": "bytes32",
					"name": "proofHash",
					"type": "bytes32"
				},
				{
					"indexed": false,
					"internalType": "string",
					"name": "reason",
					"type": "string"
				},
				{
					"indexed": false,
					"internalType": "uint256",
					"name": "timestamp",
					"type": "uint256"
				}
			],
			"name": "VerifierError",
			"type": "event"
		},
		{
			"inputs": [
				{
					"internalType": "uint256",
					"name": "blocksBack",
					"type": "uint256"
				}
			],
			"name": "clearOldBlockCounts",
			"outputs": [],
			"stateMutability": "nonpayable",
			"type": "function"
		},
		{
			"inputs": [
				{
					"internalType": "bytes32",
					"name": "proofHash",
					"type": "bytes32"
				}
			],
			"name": "getVerificationInfo",
			"outputs": [
				{
					"internalType": "bool",
					"name": "verified",
					"type": "bool"
				},
				{
					"internalType": "uint256",
					"name": "verificationTime",
					"type": "uint256"
				}
			],
			"stateMutability": "view",
			"type": "function"
		},
		{
			"inputs": [],
			"name": "owner",
			"outputs": [
				{
					"internalType": "address",
					"name": "",
					"type": "address"
				}
			],
			"stateMutability": "view",
			"type": "function"
		},
		{
			"inputs": [],
			"name": "pause",
			"outputs": [],
			"stateMutability": "nonpayable",
			"type": "function"
		},
		{
			"inputs": [],
			"name": "paused",
			"outputs": [
				{
					"internalType": "bool",
					"name": "",
					"type": "bool"
				}
			],
			"stateMutability": "view",
			"type": "function"
		},
		{
			"inputs": [],
			"name": "renounceOwnership",
			"outputs": [],
			"stateMutability": "nonpayable",
			"type": "function"
		},
		{
			"inputs": [
				{
					"internalType": "address",
					"name": "newOwner",
					"type": "address"
				}
			],
			"name": "transferOwnership",
			"outputs": [],
			"stateMutability": "nonpayable",
			"type": "function"
		},
		{
			"inputs": [],
			"name": "unpause",
			"outputs": [],
			"stateMutability": "nonpayable",
			"type": "function"
		},
		{
			"inputs": [
				{
					"internalType": "bytes32",
					"name": "",
					"type": "bytes32"
				}
			],
			"name": "verifiedProofs",
			"outputs": [
				{
					"internalType": "bool",
					"name": "",
					"type": "bool"
				}
			],
			"stateMutability": "view",
			"type": "function"
		},
		{
			"inputs": [
				{
					"internalType": "uint256[8]",
					"name": "proof",
					"type": "uint256[8]"
				},
				{
					"internalType": "uint256[1]",
					"name": "input",
					"type": "uint256[1]"
				}
			],
			"name": "verifyAndRecordProof",
			"outputs": [
				{
					"internalType": "bool",
					"name": "",
					"type": "bool"
				}
			],
			"stateMutability": "nonpayable",
			"type": "function"
		},
		{
			"inputs": [
				{
					"internalType": "uint256[8]",
					"name": "proof",
					"type": "uint256[8]"
				},
				{
					"internalType": "uint256[1]",
					"name": "input",
					"type": "uint256[1]"
				}
			],
			"name": "verifyProof",
			"outputs": [
				{
					"internalType": "bool",
					"name": "",
					"type": "bool"
				}
			],
			"stateMutability": "view",
			"type": "function"
		}
	]
}