{
	"data": {
		"bytecode": {
			"linkReferences": {},
			"object": "608060405234801561000f575f80fd5b50604051611314380380611314833981810160405281019061003191906101f7565b805f73ffffffffffffffffffffffffffffffffffffffff168173ffffffffffffffffffffffffffffffffffffffff16036100a2575f6040517f1e4fbdf70000000000000000000000000000000000000000000000000000000081526004016100999190610231565b60405180910390fd5b6100b1816100d860201b60201c565b505f8060146101000a81548160ff021916908315150217905550600180819055505061024a565b5f805f9054906101000a900473ffffffffffffffffffffffffffffffffffffffff169050815f806101000a81548173ffffffffffffffffffffffffffffffffffffffff021916908373ffffffffffffffffffffffffffffffffffffffff1602179055508173ffffffffffffffffffffffffffffffffffffffff168173ffffffffffffffffffffffffffffffffffffffff167f8be0079c531659141344cd1fd0a4f28419497f9722a3daafe3b4186f6b6457e060405160405180910390a35050565b5f80fd5b5f73ffffffffffffffffffffffffffffffffffffffff82169050919050565b5f6101c68261019d565b9050919050565b6101d6816101bc565b81146101e0575f80fd5b50565b5f815190506101f1816101cd565b92915050565b5f6020828403121561020c5761020b610199565b5b5f610219848285016101e3565b91505092915050565b61022b816101bc565b82525050565b5f6020820190506102445f830184610222565b92915050565b6110bd806102575f395ff3fe608060405234801561000f575f80fd5b5060043610610091575f3560e01c8063715018a611610064578063715018a61461011d5780638456cb59146101275780638da5cb5b14610131578063cd95fe6b1461014f578063f2fde38b1461017f57610091565b8063176d80c4146100955780631b81f829146100c55780633f4ba83a146100f55780635c975abb146100ff575b5f80fd5b6100af60048036038101906100aa9190610be1565b61019b565b6040516100bc9190610c26565b60405180910390f35b6100df60048036038101906100da9190610c85565b6101b8565b6040516100ec9190610c26565b60405180910390f35b6100fd610367565b005b610107610379565b6040516101149190610c26565b60405180910390f35b61012561038e565b005b61012f6103a1565b005b6101396103b3565b6040516101469190610d04565b60405180910390f35b61016960048036038101906101649190610c85565b6103da565b6040516101769190610c26565b60405180910390f35b61019960048036038101906101949190610d47565b6104e8565b005b6002602052805f5260405f205f915054906101000a900460ff1681565b5f6101c161056c565b6101cb83836105ad565b61020a576040517f08c379a000000000000000000000000000000000000000000000000000000000815260040161020190610dcc565b60405180910390fd5b5f6040518060400160405280855f6008811061022957610228610dea565b5b602002013581526020018560016008811061024757610246610dea565b5b602002013581525090505f604051806040016040528060405180604001604052808860026008811061027c5761027b610dea565b5b602002013581526020018860036008811061029a57610299610dea565b5b602002013581525081526020016040518060400160405280886004600881106102c6576102c5610dea565b5b60200201358152602001886005600881106102e4576102e3610dea565b5b602002013581525081525090505f60405180604001604052808760066008811061031157610310610dea565b5b602002013581526020018760076008811061032f5761032e610dea565b5b6020020135815250905061035c838383885f6001811061035257610351610dea565b5b6020020135610662565b935050505092915050565b61036f6106b3565b61037761073a565b565b5f8060149054906101000a900460ff16905090565b6103966106b3565b61039f5f61079b565b565b6103a96106b3565b6103b161085c565b565b5f805f9054906101000a900473ffffffffffffffffffffffffffffffffffffffff16905090565b5f6103e361056c565b6103eb6108be565b5f6103f68484610904565b90505f3073ffffffffffffffffffffffffffffffffffffffff16631b81f82986866040518363ffffffff1660e01b8152600401610434929190610e41565b602060405180830381865afa15801561044f573d5f803e3d5ffd5b505050506040513d601f19601f820116820180604052508101906104739190610e94565b90508060025f8481526020019081526020015f205f6101000a81548160ff021916908315150217905550817ff8ea4b84d199e84ff35249e26840ceba1b2a1711d50a01b47e98173701172180826040516104cd9190610c26565b60405180910390a280925050506104e2610936565b92915050565b6104f06106b3565b5f73ffffffffffffffffffffffffffffffffffffffff168173ffffffffffffffffffffffffffffffffffffffff1603610560575f6040517f1e4fbdf70000000000000000000000000000000000000000000000000000000081526004016105579190610d04565b60405180910390fd5b6105698161079b565b50565b610574610379565b156105ab576040517fd93c066500000000000000000000000000000000000000000000000000000000815260040160405180910390fd5b565b5f805f90505b6008811015610610577f30644e72e131a029b85045b68181585d2833e84879b9709143e1f593f00000018482600881106105f0576105ef610dea565b5b602002013510610603575f91505061065c565b80806001019150506105b3565b507f30644e72e131a029b85045b68181585d2833e84879b9709143e1f593f0000001825f6001811061064557610644610dea565b5b602002013510610657575f905061065c565b600190505b92915050565b5f61066c8561093f565b158061067e575061067c846109cf565b155b8061068f575061068d8361093f565b155b1561069c575f90506106ab565b6106a885858585610ae7565b90505b949350505050565b6106bb610b63565b73ffffffffffffffffffffffffffffffffffffffff166106d96103b3565b73ffffffffffffffffffffffffffffffffffffffff1614610738576106fc610b63565b6040517f118cdaa700000000000000000000000000000000000000000000000000000000815260040161072f9190610d04565b60405180910390fd5b565b610742610b6a565b5f8060146101000a81548160ff0219169083151502179055507f5db9ee0a495bf2e6ff9c91a7834c1ba4fdd244a5e8aa4e537bd38aeae4b073aa610784610b63565b6040516107919190610d04565b60405180910390a1565b5f805f9054906101000a900473ffffffffffffffffffffffffffffffffffffffff169050815f806101000a81548173ffffffffffffffffffffffffffffffffffffffff021916908373ffffffffffffffffffffffffffffffffffffffff1602179055508173ffffffffffffffffffffffffffffffffffffffff168173ffffffffffffffffffffffffffffffffffffffff167f8be0079c531659141344cd1fd0a4f28419497f9722a3daafe3b4186f6b6457e060405160405180910390a35050565b61086461056c565b60015f60146101000a81548160ff0219169083151502179055507f62e78cea01bee320cd4e420270b5ea74000d11b0c9f74754ebdbfc544b05a2586108a7610b63565b6040516108b49190610d04565b60405180910390a1565b6002600154036108fa576040517f3ee5aeb500000000000000000000000000000000000000000000000000000000815260040160405180910390fd5b6002600181905550565b5f8282604051602001610918929190610ee0565b60405160208183030381529060405280519060200120905092915050565b60018081905550565b5f807f30644e72e131a029b85045b68181585d2833e84879b9709143e1f593f000000190505f835f015190505f846020015190505f838061098357610982610f0c565b5b82830990505f848061099857610997610f0c565b5b600386806109a9576109a8610f0c565b5b8688806109b9576109b8610f0c565b5b8889090908905080821495505050505050919050565b5f7f30644e72e131a029b85045b68181585d2833e84879b9709143e1f593f0000001825f01515f60028110610a0757610a06610dea565b5b6020020151108015610a5357507f30644e72e131a029b85045b68181585d2833e84879b9709143e1f593f0000001825f0151600160028110610a4c57610a4b610dea565b5b6020020151105b8015610a9957507f30644e72e131a029b85045b68181585d2833e84879b9709143e1f593f000000182602001515f60028110610a9257610a91610dea565b5b6020020151105b8015610ae057507f30644e72e131a029b85045b68181585d2833e84879b9709143e1f593f00000018260200151600160028110610ad957610ad8610dea565b5b6020020151105b9050919050565b5f80855f01518660200151865f01518760200151875f0151886020015188604051602001610b1b9796959493929190611007565b6040516020818303038152906040528051906020012090507f30644e72e131a029b85045b68181585d2833e84879b9709143e1f593f0000001815f1c10915050949350505050565b5f33905090565b610b72610379565b610ba8576040517f8dfc202b00000000000000000000000000000000000000000000000000000000815260040160405180910390fd5b565b5f80fd5b5f819050919050565b610bc081610bae565b8114610bca575f80fd5b50565b5f81359050610bdb81610bb7565b92915050565b5f60208284031215610bf657610bf5610baa565b5b5f610c0384828501610bcd565b91505092915050565b5f8115159050919050565b610c2081610c0c565b82525050565b5f602082019050610c395f830184610c17565b92915050565b5f80fd5b5f81905082602060080282011115610c5e57610c5d610c3f565b5b92915050565b5f81905082602060010282011115610c7f57610c7e610c3f565b5b92915050565b5f806101208385031215610c9c57610c9b610baa565b5b5f610ca985828601610c43565b925050610100610cbb85828601610c64565b9150509250929050565b5f73ffffffffffffffffffffffffffffffffffffffff82169050919050565b5f610cee82610cc5565b9050919050565b610cfe81610ce4565b82525050565b5f602082019050610d175f830184610cf5565b92915050565b610d2681610ce4565b8114610d30575f80fd5b50565b5f81359050610d4181610d1d565b92915050565b5f60208284031215610d5c57610d5b610baa565b5b5f610d6984828501610d33565b91505092915050565b5f82825260208201905092915050565b7f496e76616c696420696e70757420706172616d657465727300000000000000005f82015250565b5f610db6601883610d72565b9150610dc182610d82565b602082019050919050565b5f6020820190508181035f830152610de381610daa565b9050919050565b7f4e487b71000000000000000000000000000000000000000000000000000000005f52603260045260245ffd5b82818337505050565b610e2d6101008383610e17565b5050565b610e3d60208383610e17565b5050565b5f61012082019050610e555f830185610e20565b610e63610100830184610e31565b9392505050565b610e7381610c0c565b8114610e7d575f80fd5b50565b5f81519050610e8e81610e6a565b92915050565b5f60208284031215610ea957610ea8610baa565b5b5f610eb684828501610e80565b91505092915050565b610ecc6101008383610e17565b5050565b610edc60208383610e17565b5050565b5f610eeb8285610ebf565b61010082019150610efc8284610ed0565b6020820191508190509392505050565b7f4e487b71000000000000000000000000000000000000000000000000000000005f52601260045260245ffd5b5f819050919050565b5f819050919050565b610f5c610f5782610f39565b610f42565b82525050565b5f60029050919050565b5f81905092915050565b5f819050919050565b610f8881610f39565b82525050565b5f610f998383610f7f565b60208301905092915050565b5f602082019050919050565b610fba81610f62565b610fc48184610f6c565b9250610fcf82610f76565b805f5b83811015610fff578151610fe68782610f8e565b9650610ff183610fa5565b925050600181019050610fd2565b505050505050565b5f611012828a610f4b565b6020820191506110228289610f4b565b6020820191506110328288610fb1565b6040820191506110428287610fb1565b6040820191506110528286610f4b565b6020820191506110628285610f4b565b6020820191506110728284610f4b565b6020820191508190509897505050505050505056fea264697066735822122085b9425c53c5c8786b76be2a9c37c98d7b52886fe66a570b79834a8b193865a964736f6c634300081a0033",
			"opcodes": "PUSH1 0x80 PUSH1 0x40 MSTORE CALLVALUE DUP1 ISZERO PUSH2 0xF JUMPI PUSH0 DUP1 REVERT JUMPDEST POP PUSH1 0x40 MLOAD PUSH2 0x1314 CODESIZE SUB DUP1 PUSH2 0x1314 DUP4 CODECOPY DUP2 DUP2 ADD PUSH1 0x40 MSTORE DUP2 ADD SWAP1 PUSH2 0x31 SWAP2 SWAP1 PUSH2 0x1F7 JUMP JUMPDEST DUP1 PUSH0 PUSH20 0xFFFFFFFFFFFFFFFFFFFFFFFFFFFFFFFFFFFFFFFF AND DUP2 PUSH20 0xFFFFFFFFFFFFFFFFFFFFFFFFFFFFFFFFFFFFFFFF AND SUB PUSH2 0xA2 JUMPI PUSH0 PUSH1 0x40 MLOAD PUSH32 0x1E4FBDF700000000000000000000000000000000000000000000000000000000 DUP2 MSTORE PUSH1 0x4 ADD PUSH2 0x99 SWAP2 SWAP1 PUSH2 0x231 JUMP JUMPDEST PUSH1 0x40 MLOAD DUP1 SWAP2 SUB SWAP1 REVERT JUMPDEST PUSH2 0xB1 DUP2 PUSH2 0xD8 PUSH1 0x20 SHL PUSH1 0x20 SHR JUMP JUMPDEST POP PUSH0 DUP1 PUSH1 0x14 PUSH2 0x100 EXP DUP2 SLOAD DUP2 PUSH1 0xFF MUL NOT AND SWAP1 DUP4 ISZERO ISZERO MUL OR SWAP1 SSTORE POP PUSH1 0x1 DUP1 DUP2 SWAP1 SSTORE POP POP PUSH2 0x24A JUMP JUMPDEST PUSH0 DUP1 PUSH0 SWAP1 SLOAD SWAP1 PUSH2 0x100 EXP SWAP1 DIV PUSH20 0xFFFFFFFFFFFFFFFFFFFFFFFFFFFFFFFFFFFFFFFF AND SWAP1 POP DUP2 PUSH0 DUP1 PUSH2 0x100 EXP DUP2 SLOAD DUP2 PUSH20 0xFFFFFFFFFFFFFFFFFFFFFFFFFFFFFFFFFFFFFFFF MUL NOT AND SWAP1 DUP4 PUSH20 0xFFFFFFFFFFFFFFFFFFFFFFFFFFFFFFFFFFFFFFFF AND MUL OR SWAP1 SSTORE POP DUP2 PUSH20 0xFFFFFFFFFFFFFFFFFFFFFFFFFFFFFFFFFFFFFFFF AND DUP2 PUSH20 0xFFFFFFFFFFFFFFFFFFFFFFFFFFFFFFFFFFFFFFFF AND PUSH32 0x8BE0079C531659141344CD1FD0A4F28419497F9722A3DAAFE3B4186F6B6457E0 PUSH1 0x40 MLOAD PUSH1 0x40 MLOAD DUP1 SWAP2 SUB SWAP1 LOG3 POP POP JUMP JUMPDEST PUSH0 DUP1 REVERT JUMPDEST PUSH0 PUSH20 0xFFFFFFFFFFFFFFFFFFFFFFFFFFFFFFFFFFFFFFFF DUP3 AND SWAP1 POP SWAP2 SWAP1 POP JUMP JUMPDEST PUSH0 PUSH2 0x1C6 DUP3 PUSH2 0x19D JUMP JUMPDEST SWAP1 POP SWAP2 SWAP1 POP JUMP JUMPDEST PUSH2 0x1D6 DUP2 PUSH2 0x1BC JUMP JUMPDEST DUP2 EQ PUSH2 0x1E0 JUMPI PUSH0 DUP1 REVERT JUMPDEST POP JUMP JUMPDEST PUSH0 DUP2 MLOAD SWAP1 POP PUSH2 0x1F1 DUP2 PUSH2 0x1CD JUMP JUMPDEST SWAP3 SWAP2 POP POP JUMP JUMPDEST PUSH0 PUSH1 0x20 DUP3 DUP5 SUB SLT ISZERO PUSH2 0x20C JUMPI PUSH2 0x20B PUSH2 0x199 JUMP JUMPDEST JUMPDEST PUSH0 PUSH2 0x219 DUP5 DUP3 DUP6 ADD PUSH2 0x1E3 JUMP JUMPDEST SWAP2 POP POP SWAP3 SWAP2 POP POP JUMP JUMPDEST PUSH2 0x22B DUP2 PUSH2 0x1BC JUMP JUMPDEST DUP3 MSTORE POP POP JUMP JUMPDEST PUSH0 PUSH1 0x20 DUP3 ADD SWAP1 POP PUSH2 0x244 PUSH0 DUP4 ADD DUP5 PUSH2 0x222 JUMP JUMPDEST SWAP3 SWAP2 POP POP JUMP JUMPDEST PUSH2 0x10BD DUP1 PUSH2 0x257 PUSH0 CODECOPY PUSH0 RETURN INVALID PUSH1 0x80 PUSH1 0x40 MSTORE CALLVALUE DUP1 ISZERO PUSH2 0xF JUMPI PUSH0 DUP1 REVERT JUMPDEST POP PUSH1 0x4 CALLDATASIZE LT PUSH2 0x91 JUMPI PUSH0 CALLDATALOAD PUSH1 0xE0 SHR DUP1 PUSH4 0x715018A6 GT PUSH2 0x64 JUMPI DUP1 PUSH4 0x715018A6 EQ PUSH2 0x11D JUMPI DUP1 PUSH4 0x8456CB59 EQ PUSH2 0x127 JUMPI DUP1 PUSH4 0x8DA5CB5B EQ PUSH2 0x131 JUMPI DUP1 PUSH4 0xCD95FE6B EQ PUSH2 0x14F JUMPI DUP1 PUSH4 0xF2FDE38B EQ PUSH2 0x17F JUMPI PUSH2 0x91 JUMP JUMPDEST DUP1 PUSH4 0x176D80C4 EQ PUSH2 0x95 JUMPI DUP1 PUSH4 0x1B81F829 EQ PUSH2 0xC5 JUMPI DUP1 PUSH4 0x3F4BA83A EQ PUSH2 0xF5 JUMPI DUP1 PUSH4 0x5C975ABB EQ PUSH2 0xFF JUMPI JUMPDEST PUSH0 DUP1 REVERT JUMPDEST PUSH2 0xAF PUSH1 0x4 DUP1 CALLDATASIZE SUB DUP2 ADD SWAP1 PUSH2 0xAA SWAP2 SWAP1 PUSH2 0xBE1 JUMP JUMPDEST PUSH2 0x19B JUMP JUMPDEST PUSH1 0x40 MLOAD PUSH2 0xBC SWAP2 SWAP1 PUSH2 0xC26 JUMP JUMPDEST PUSH1 0x40 MLOAD DUP1 SWAP2 SUB SWAP1 RETURN JUMPDEST PUSH2 0xDF PUSH1 0x4 DUP1 CALLDATASIZE SUB DUP2 ADD SWAP1 PUSH2 0xDA SWAP2 SWAP1 PUSH2 0xC85 JUMP JUMPDEST PUSH2 0x1B8 JUMP JUMPDEST PUSH1 0x40 MLOAD PUSH2 0xEC SWAP2 SWAP1 PUSH2 0xC26 JUMP JUMPDEST PUSH1 0x40 MLOAD DUP1 SWAP2 SUB SWAP1 RETURN JUMPDEST PUSH2 0xFD PUSH2 0x367 JUMP JUMPDEST STOP JUMPDEST PUSH2 0x107 PUSH2 0x379 JUMP JUMPDEST PUSH1 0x40 MLOAD PUSH2 0x114 SWAP2 SWAP1 PUSH2 0xC26 JUMP JUMPDEST PUSH1 0x40 MLOAD DUP1 SWAP2 SUB SWAP1 RETURN JUMPDEST PUSH2 0x125 PUSH2 0x38E JUMP JUMPDEST STOP JUMPDEST PUSH2 0x12F PUSH2 0x3A1 JUMP JUMPDEST STOP JUMPDEST PUSH2 0x139 PUSH2 0x3B3 JUMP JUMPDEST PUSH1 0x40 MLOAD PUSH2 0x146 SWAP2 SWAP1 PUSH2 0xD04 JUMP JUMPDEST PUSH1 0x40 MLOAD DUP1 SWAP2 SUB SWAP1 RETURN JUMPDEST PUSH2 0x169 PUSH1 0x4 DUP1 CALLDATASIZE SUB DUP2 ADD SWAP1 PUSH2 0x164 SWAP2 SWAP1 PUSH2 0xC85 JUMP JUMPDEST PUSH2 0x3DA JUMP JUMPDEST PUSH1 0x40 MLOAD PUSH2 0x176 SWAP2 SWAP1 PUSH2 0xC26 JUMP JUMPDEST PUSH1 0x40 MLOAD DUP1 SWAP2 SUB SWAP1 RETURN JUMPDEST PUSH2 0x199 PUSH1 0x4 DUP1 CALLDATASIZE SUB DUP2 ADD SWAP1 PUSH2 0x194 SWAP2 SWAP1 PUSH2 0xD47 JUMP JUMPDEST PUSH2 0x4E8 JUMP JUMPDEST STOP JUMPDEST PUSH1 0x2 PUSH1 0x20 MSTORE DUP1 PUSH0 MSTORE PUSH1 0x40 PUSH0 KECCAK256 PUSH0 SWAP2 POP SLOAD SWAP1 PUSH2 0x100 EXP SWAP1 DIV PUSH1 0xFF AND DUP2 JUMP JUMPDEST PUSH0 PUSH2 0x1C1 PUSH2 0x56C JUMP JUMPDEST PUSH2 0x1CB DUP4 DUP4 PUSH2 0x5AD JUMP JUMPDEST PUSH2 0x20A JUMPI PUSH1 0x40 MLOAD PUSH32 0x8C379A000000000000000000000000000000000000000000000000000000000 DUP2 MSTORE PUSH1 0x4 ADD PUSH2 0x201 SWAP1 PUSH2 0xDCC JUMP JUMPDEST PUSH1 0x40 MLOAD DUP1 SWAP2 SUB SWAP1 REVERT JUMPDEST PUSH0 PUSH1 0x40 MLOAD DUP1 PUSH1 0x40 ADD PUSH1 0x40 MSTORE DUP1 DUP6 PUSH0 PUSH1 0x8 DUP2 LT PUSH2 0x229 JUMPI PUSH2 0x228 PUSH2 0xDEA JUMP JUMPDEST JUMPDEST PUSH1 0x20 MUL ADD CALLDATALOAD DUP2 MSTORE PUSH1 0x20 ADD DUP6 PUSH1 0x1 PUSH1 0x8 DUP2 LT PUSH2 0x247 JUMPI PUSH2 0x246 PUSH2 0xDEA JUMP JUMPDEST JUMPDEST PUSH1 0x20 MUL ADD CALLDATALOAD DUP2 MSTORE POP SWAP1 POP PUSH0 PUSH1 0x40 MLOAD DUP1 PUSH1 0x40 ADD PUSH1 0x40 MSTORE DUP1 PUSH1 0x40 MLOAD DUP1 PUSH1 0x40 ADD PUSH1 0x40 MSTORE DUP1 DUP9 PUSH1 0x2 PUSH1 0x8 DUP2 LT PUSH2 0x27C JUMPI PUSH2 0x27B PUSH2 0xDEA JUMP JUMPDEST JUMPDEST PUSH1 0x20 MUL ADD CALLDATALOAD DUP2 MSTORE PUSH1 0x20 ADD DUP9 PUSH1 0x3 PUSH1 0x8 DUP2 LT PUSH2 0x29A JUMPI PUSH2 0x299 PUSH2 0xDEA JUMP JUMPDEST JUMPDEST PUSH1 0x20 MUL ADD CALLDATALOAD DUP2 MSTORE POP DUP2 MSTORE PUSH1 0x20 ADD PUSH1 0x40 MLOAD DUP1 PUSH1 0x40 ADD PUSH1 0x40 MSTORE DUP1 DUP9 PUSH1 0x4 PUSH1 0x8 DUP2 LT PUSH2 0x2C6 JUMPI PUSH2 0x2C5 PUSH2 0xDEA JUMP JUMPDEST JUMPDEST PUSH1 0x20 MUL ADD CALLDATALOAD DUP2 MSTORE PUSH1 0x20 ADD DUP9 PUSH1 0x5 PUSH1 0x8 DUP2 LT PUSH2 0x2E4 JUMPI PUSH2 0x2E3 PUSH2 0xDEA JUMP JUMPDEST JUMPDEST PUSH1 0x20 MUL ADD CALLDATALOAD DUP2 MSTORE POP DUP2 MSTORE POP SWAP1 POP PUSH0 PUSH1 0x40 MLOAD DUP1 PUSH1 0x40 ADD PUSH1 0x40 MSTORE DUP1 DUP8 PUSH1 0x6 PUSH1 0x8 DUP2 LT PUSH2 0x311 JUMPI PUSH2 0x310 PUSH2 0xDEA JUMP JUMPDEST JUMPDEST PUSH1 0x20 MUL ADD CALLDATALOAD DUP2 MSTORE PUSH1 0x20 ADD DUP8 PUSH1 0x7 PUSH1 0x8 DUP2 LT PUSH2 0x32F JUMPI PUSH2 0x32E PUSH2 0xDEA JUMP JUMPDEST JUMPDEST PUSH1 0x20 MUL ADD CALLDATALOAD DUP2 MSTORE POP SWAP1 POP PUSH2 0x35C DUP4 DUP4 DUP4 DUP9 PUSH0 PUSH1 0x1 DUP2 LT PUSH2 0x352 JUMPI PUSH2 0x351 PUSH2 0xDEA JUMP JUMPDEST JUMPDEST PUSH1 0x20 MUL ADD CALLDATALOAD PUSH2 0x662 JUMP JUMPDEST SWAP4 POP POP POP POP SWAP3 SWAP2 POP POP JUMP JUMPDEST PUSH2 0x36F PUSH2 0x6B3 JUMP JUMPDEST PUSH2 0x377 PUSH2 0x73A JUMP JUMPDEST JUMP JUMPDEST PUSH0 DUP1 PUSH1 0x14 SWAP1 SLOAD SWAP1 PUSH2 0x100 EXP SWAP1 DIV PUSH1 0xFF AND SWAP1 POP SWAP1 JUMP JUMPDEST PUSH2 0x396 PUSH2 0x6B3 JUMP JUMPDEST PUSH2 0x39F PUSH0 PUSH2 0x79B JUMP JUMPDEST JUMP JUMPDEST PUSH2 0x3A9 PUSH2 0x6B3 JUMP JUMPDEST PUSH2 0x3B1 PUSH2 0x85C JUMP JUMPDEST JUMP JUMPDEST PUSH0 DUP1 PUSH0 SWAP1 SLOAD SWAP1 PUSH2 0x100 EXP SWAP1 DIV PUSH20 0xFFFFFFFFFFFFFFFFFFFFFFFFFFFFFFFFFFFFFFFF AND SWAP1 POP SWAP1 JUMP JUMPDEST PUSH0 PUSH2 0x3E3 PUSH2 0x56C JUMP JUMPDEST PUSH2 0x3EB PUSH2 0x8BE JUMP JUMPDEST PUSH0 PUSH2 0x3F6 DUP5 DUP5 PUSH2 0x904 JUMP JUMPDEST SWAP1 POP PUSH0 ADDRESS PUSH20 0xFFFFFFFFFFFFFFFFFFFFFFFFFFFFFFFFFFFFFFFF AND PUSH4 0x1B81F829 DUP7 DUP7 PUSH1 0x40 MLOAD DUP4 PUSH4 0xFFFFFFFF AND PUSH1 0xE0 SHL DUP2 MSTORE PUSH1 0x4 ADD PUSH2 0x434 SWAP3 SWAP2 SWAP1 PUSH2 0xE41 JUMP JUMPDEST PUSH1 0x20 PUSH1 0x40 MLOAD DUP1 DUP4 SUB DUP2 DUP7 GAS STATICCALL ISZERO DUP1 ISZERO PUSH2 0x44F JUMPI RETURNDATASIZE PUSH0 DUP1 RETURNDATACOPY RETURNDATASIZE PUSH0 REVERT JUMPDEST POP POP POP POP PUSH1 0x40 MLOAD RETURNDATASIZE PUSH1 0x1F NOT PUSH1 0x1F DUP3 ADD AND DUP3 ADD DUP1 PUSH1 0x40 MSTORE POP DUP2 ADD SWAP1 PUSH2 0x473 SWAP2 SWAP1 PUSH2 0xE94 JUMP JUMPDEST SWAP1 POP DUP1 PUSH1 0x2 PUSH0 DUP5 DUP2 MSTORE PUSH1 0x20 ADD SWAP1 DUP2 MSTORE PUSH1 0x20 ADD PUSH0 KECCAK256 PUSH0 PUSH2 0x100 EXP DUP2 SLOAD DUP2 PUSH1 0xFF MUL NOT AND SWAP1 DUP4 ISZERO ISZERO MUL OR SWAP1 SSTORE POP DUP2 PUSH32 0xF8EA4B84D199E84FF35249E26840CEBA1B2A1711D50A01B47E98173701172180 DUP3 PUSH1 0x40 MLOAD PUSH2 0x4CD SWAP2 SWAP1 PUSH2 0xC26 JUMP JUMPDEST PUSH1 0x40 MLOAD DUP1 SWAP2 SUB SWAP1 LOG2 DUP1 SWAP3 POP POP POP PUSH2 0x4E2 PUSH2 0x936 JUMP JUMPDEST SWAP3 SWAP2 POP POP JUMP JUMPDEST PUSH2 0x4F0 PUSH2 0x6B3 JUMP JUMPDEST PUSH0 PUSH20 0xFFFFFFFFFFFFFFFFFFFFFFFFFFFFFFFFFFFFFFFF AND DUP2 PUSH20 0xFFFFFFFFFFFFFFFFFFFFFFFFFFFFFFFFFFFFFFFF AND SUB PUSH2 0x560 JUMPI PUSH0 PUSH1 0x40 MLOAD PUSH32 0x1E4FBDF700000000000000000000000000000000000000000000000000000000 DUP2 MSTORE PUSH1 0x4 ADD PUSH2 0x557 SWAP2 SWAP1 PUSH2 0xD04 JUMP JUMPDEST PUSH1 0x40 MLOAD DUP1 SWAP2 SUB SWAP1 REVERT JUMPDEST PUSH2 0x569 DUP2 PUSH2 0x79B JUMP JUMPDEST POP JUMP JUMPDEST PUSH2 0x574 PUSH2 0x379 JUMP JUMPDEST ISZERO PUSH2 0x5AB JUMPI PUSH1 0x40 MLOAD PUSH32 0xD93C066500000000000000000000000000000000000000000000000000000000 DUP2 MSTORE PUSH1 0x4 ADD PUSH1 0x40 MLOAD DUP1 SWAP2 SUB SWAP1 REVERT JUMPDEST JUMP JUMPDEST PUSH0 DUP1 PUSH0 SWAP1 POP JUMPDEST PUSH1 0x8 DUP2 LT ISZERO PUSH2 0x610 JUMPI PUSH32 0x30644E72E131A029B85045B68181585D2833E84879B9709143E1F593F0000001 DUP5 DUP3 PUSH1 0x8 DUP2 LT PUSH2 0x5F0 JUMPI PUSH2 0x5EF PUSH2 0xDEA JUMP JUMPDEST JUMPDEST PUSH1 0x20 MUL ADD CALLDATALOAD LT PUSH2 0x603 JUMPI PUSH0 SWAP2 POP POP PUSH2 0x65C JUMP JUMPDEST DUP1 DUP1 PUSH1 0x1 ADD SWAP2 POP POP PUSH2 0x5B3 JUMP JUMPDEST POP PUSH32 0x30644E72E131A029B85045B68181585D2833E84879B9709143E1F593F0000001 DUP3 PUSH0 PUSH1 0x1 DUP2 LT PUSH2 0x645 JUMPI PUSH2 0x644 PUSH2 0xDEA JUMP JUMPDEST JUMPDEST PUSH1 0x20 MUL ADD CALLDATALOAD LT PUSH2 0x657 JUMPI PUSH0 SWAP1 POP PUSH2 0x65C JUMP JUMPDEST PUSH1 0x1 SWAP1 POP JUMPDEST SWAP3 SWAP2 POP POP JUMP JUMPDEST PUSH0 PUSH2 0x66C DUP6 PUSH2 0x93F JUMP JUMPDEST ISZERO DUP1 PUSH2 0x67E JUMPI POP PUSH2 0x67C DUP5 PUSH2 0x9CF JUMP JUMPDEST ISZERO JUMPDEST DUP1 PUSH2 0x68F JUMPI POP PUSH2 0x68D DUP4 PUSH2 0x93F JUMP JUMPDEST ISZERO JUMPDEST ISZERO PUSH2 0x69C JUMPI PUSH0 SWAP1 POP PUSH2 0x6AB JUMP JUMPDEST PUSH2 0x6A8 DUP6 DUP6 DUP6 DUP6 PUSH2 0xAE7 JUMP JUMPDEST SWAP1 POP JUMPDEST SWAP5 SWAP4 POP POP POP POP JUMP JUMPDEST PUSH2 0x6BB PUSH2 0xB63 JUMP JUMPDEST PUSH20 0xFFFFFFFFFFFFFFFFFFFFFFFFFFFFFFFFFFFFFFFF AND PUSH2 0x6D9 PUSH2 0x3B3 JUMP JUMPDEST PUSH20 0xFFFFFFFFFFFFFFFFFFFFFFFFFFFFFFFFFFFFFFFF AND EQ PUSH2 0x738 JUMPI PUSH2 0x6FC PUSH2 0xB63 JUMP JUMPDEST PUSH1 0x40 MLOAD PUSH32 0x118CDAA700000000000000000000000000000000000000000000000000000000 DUP2 MSTORE PUSH1 0x4 ADD PUSH2 0x72F SWAP2 SWAP1 PUSH2 0xD04 JUMP JUMPDEST PUSH1 0x40 MLOAD DUP1 SWAP2 SUB SWAP1 REVERT JUMPDEST JUMP JUMPDEST PUSH2 0x742 PUSH2 0xB6A JUMP JUMPDEST PUSH0 DUP1 PUSH1 0x14 PUSH2 0x100 EXP DUP2 SLOAD DUP2 PUSH1 0xFF MUL NOT AND SWAP1 DUP4 ISZERO ISZERO MUL OR SWAP1 SSTORE POP PUSH32 0x5DB9EE0A495BF2E6FF9C91A7834C1BA4FDD244A5E8AA4E537BD38AEAE4B073AA PUSH2 0x784 PUSH2 0xB63 JUMP JUMPDEST PUSH1 0x40 MLOAD PUSH2 0x791 SWAP2 SWAP1 PUSH2 0xD04 JUMP JUMPDEST PUSH1 0x40 MLOAD DUP1 SWAP2 SUB SWAP1 LOG1 JUMP JUMPDEST PUSH0 DUP1 PUSH0 SWAP1 SLOAD SWAP1 PUSH2 0x100 EXP SWAP1 DIV PUSH20 0xFFFFFFFFFFFFFFFFFFFFFFFFFFFFFFFFFFFFFFFF AND SWAP1 POP DUP2 PUSH0 DUP1 PUSH2 0x100 EXP DUP2 SLOAD DUP2 PUSH20 0xFFFFFFFFFFFFFFFFFFFFFFFFFFFFFFFFFFFFFFFF MUL NOT AND SWAP1 DUP4 PUSH20 0xFFFFFFFFFFFFFFFFFFFFFFFFFFFFFFFFFFFFFFFF AND MUL OR SWAP1 SSTORE POP DUP2 PUSH20 0xFFFFFFFFFFFFFFFFFFFFFFFFFFFFFFFFFFFFFFFF AND DUP2 PUSH20 0xFFFFFFFFFFFFFFFFFFFFFFFFFFFFFFFFFFFFFFFF AND PUSH32 0x8BE0079C531659141344CD1FD0A4F28419497F9722A3DAAFE3B4186F6B6457E0 PUSH1 0x40 MLOAD PUSH1 0x40 MLOAD DUP1 SWAP2 SUB SWAP1 LOG3 POP POP JUMP JUMPDEST PUSH2 0x864 PUSH2 0x56C JUMP JUMPDEST PUSH1 0x1 PUSH0 PUSH1 0x14 PUSH2 0x100 EXP DUP2 SLOAD DUP2 PUSH1 0xFF MUL NOT AND SWAP1 DUP4 ISZERO ISZERO MUL OR SWAP1 SSTORE POP PUSH32 0x62E78CEA01BEE320CD4E420270B5EA74000D11B0C9F74754EBDBFC544B05A258 PUSH2 0x8A7 PUSH2 0xB63 JUMP JUMPDEST PUSH1 0x40 MLOAD PUSH2 0x8B4 SWAP2 SWAP1 PUSH2 0xD04 JUMP JUMPDEST PUSH1 0x40 MLOAD DUP1 SWAP2 SUB SWAP1 LOG1 JUMP JUMPDEST PUSH1 0x2 PUSH1 0x1 SLOAD SUB PUSH2 0x8FA JUMPI PUSH1 0x40 MLOAD PUSH32 0x3EE5AEB500000000000000000000000000000000000000000000000000000000 DUP2 MSTORE PUSH1 0x4 ADD PUSH1 0x40 MLOAD DUP1 SWAP2 SUB SWAP1 REVERT JUMPDEST PUSH1 0x2 PUSH1 0x1 DUP2 SWAP1 SSTORE POP JUMP JUMPDEST PUSH0 DUP3 DUP3 PUSH1 0x40 MLOAD PUSH1 0x20 ADD PUSH2 0x918 SWAP3 SWAP2 SWAP1 PUSH2 0xEE0 JUMP JUMPDEST PUSH1 0x40 MLOAD PUSH1 0x20 DUP2 DUP4 SUB SUB DUP2 MSTORE SWAP1 PUSH1 0x40 MSTORE DUP1 MLOAD SWAP1 PUSH1 0x20 ADD KECCAK256 SWAP1 POP SWAP3 SWAP2 POP POP JUMP JUMPDEST PUSH1 0x1 DUP1 DUP2 SWAP1 SSTORE POP JUMP JUMPDEST PUSH0 DUP1 PUSH32 0x30644E72E131A029B85045B68181585D2833E84879B9709143E1F593F0000001 SWAP1 POP PUSH0 DUP4 PUSH0 ADD MLOAD SWAP1 POP PUSH0 DUP5 PUSH1 0x20 ADD MLOAD SWAP1 POP PUSH0 DUP4 DUP1 PUSH2 0x983 JUMPI PUSH2 0x982 PUSH2 0xF0C JUMP JUMPDEST JUMPDEST DUP3 DUP4 MULMOD SWAP1 POP PUSH0 DUP5 DUP1 PUSH2 0x998 JUMPI PUSH2 0x997 PUSH2 0xF0C JUMP JUMPDEST JUMPDEST PUSH1 0x3 DUP7 DUP1 PUSH2 0x9A9 JUMPI PUSH2 0x9A8 PUSH2 0xF0C JUMP JUMPDEST JUMPDEST DUP7 DUP9 DUP1 PUSH2 0x9B9 JUMPI PUSH2 0x9B8 PUSH2 0xF0C JUMP JUMPDEST JUMPDEST DUP9 DUP10 MULMOD MULMOD ADDMOD SWAP1 POP DUP1 DUP3 EQ SWAP6 POP POP POP POP POP POP SWAP2 SWAP1 POP JUMP JUMPDEST PUSH0 PUSH32 0x30644E72E131A029B85045B68181585D2833E84879B9709143E1F593F0000001 DUP3 PUSH0 ADD MLOAD PUSH0 PUSH1 0x2 DUP2 LT PUSH2 0xA07 JUMPI PUSH2 0xA06 PUSH2 0xDEA JUMP JUMPDEST JUMPDEST PUSH1 0x20 MUL ADD MLOAD LT DUP1 ISZERO PUSH2 0xA53 JUMPI POP PUSH32 0x30644E72E131A029B85045B68181585D2833E84879B9709143E1F593F0000001 DUP3 PUSH0 ADD MLOAD PUSH1 0x1 PUSH1 0x2 DUP2 LT PUSH2 0xA4C JUMPI PUSH2 0xA4B PUSH2 0xDEA JUMP JUMPDEST JUMPDEST PUSH1 0x20 MUL ADD MLOAD LT JUMPDEST DUP1 ISZERO PUSH2 0xA99 JUMPI POP PUSH32 0x30644E72E131A029B85045B68181585D2833E84879B9709143E1F593F0000001 DUP3 PUSH1 0x20 ADD MLOAD PUSH0 PUSH1 0x2 DUP2 LT PUSH2 0xA92 JUMPI PUSH2 0xA91 PUSH2 0xDEA JUMP JUMPDEST JUMPDEST PUSH1 0x20 MUL ADD MLOAD LT JUMPDEST DUP1 ISZERO PUSH2 0xAE0 JUMPI POP PUSH32 0x30644E72E131A029B85045B68181585D2833E84879B9709143E1F593F0000001 DUP3 PUSH1 0x20 ADD MLOAD PUSH1 0x1 PUSH1 0x2 DUP2 LT PUSH2 0xAD9 JUMPI PUSH2 0xAD8 PUSH2 0xDEA JUMP JUMPDEST JUMPDEST PUSH1 0x20 MUL ADD MLOAD LT JUMPDEST SWAP1 POP SWAP2 SWAP1 POP JUMP JUMPDEST PUSH0 DUP1 DUP6 PUSH0 ADD MLOAD DUP7 PUSH1 0x20 ADD MLOAD DUP7 PUSH0 ADD MLOAD DUP8 PUSH1 0x20 ADD MLOAD DUP8 PUSH0 ADD MLOAD DUP9 PUSH1 0x20 ADD MLOAD DUP9 PUSH1 0x40 MLOAD PUSH1 0x20 ADD PUSH2 0xB1B SWAP8 SWAP7 SWAP6 SWAP5 SWAP4 SWAP3 SWAP2 SWAP1 PUSH2 0x1007 JUMP JUMPDEST PUSH1 0x40 MLOAD PUSH1 0x20 DUP2 DUP4 SUB SUB DUP2 MSTORE SWAP1 PUSH1 0x40 MSTORE DUP1 MLOAD SWAP1 PUSH1 0x20 ADD KECCAK256 SWAP1 POP PUSH32 0x30644E72E131A029B85045B68181585D2833E84879B9709143E1F593F0000001 DUP2 PUSH0 SHR LT SWAP2 POP POP SWAP5 SWAP4 POP POP POP POP JUMP JUMPDEST PUSH0 CALLER SWAP1 POP SWAP1 JUMP JUMPDEST PUSH2 0xB72 PUSH2 0x379 JUMP JUMPDEST PUSH2 0xBA8 JUMPI PUSH1 0x40 MLOAD PUSH32 0x8DFC202B00000000000000000000000000000000000000000000000000000000 DUP2 MSTORE PUSH1 0x4 ADD PUSH1 0x40 MLOAD DUP1 SWAP2 SUB SWAP1 REVERT JUMPDEST JUMP JUMPDEST PUSH0 DUP1 REVERT JUMPDEST PUSH0 DUP2 SWAP1 POP SWAP2 SWAP1 POP JUMP JUMPDEST PUSH2 0xBC0 DUP2 PUSH2 0xBAE JUMP JUMPDEST DUP2 EQ PUSH2 0xBCA JUMPI PUSH0 DUP1 REVERT JUMPDEST POP JUMP JUMPDEST PUSH0 DUP2 CALLDATALOAD SWAP1 POP PUSH2 0xBDB DUP2 PUSH2 0xBB7 JUMP JUMPDEST SWAP3 SWAP2 POP POP JUMP JUMPDEST PUSH0 PUSH1 0x20 DUP3 DUP5 SUB SLT ISZERO PUSH2 0xBF6 JUMPI PUSH2 0xBF5 PUSH2 0xBAA JUMP JUMPDEST JUMPDEST PUSH0 PUSH2 0xC03 DUP5 DUP3 DUP6 ADD PUSH2 0xBCD JUMP JUMPDEST SWAP2 POP POP SWAP3 SWAP2 POP POP JUMP JUMPDEST PUSH0 DUP2 ISZERO ISZERO SWAP1 POP SWAP2 SWAP1 POP JUMP JUMPDEST PUSH2 0xC20 DUP2 PUSH2 0xC0C JUMP JUMPDEST DUP3 MSTORE POP POP JUMP JUMPDEST PUSH0 PUSH1 0x20 DUP3 ADD SWAP1 POP PUSH2 0xC39 PUSH0 DUP4 ADD DUP5 PUSH2 0xC17 JUMP JUMPDEST SWAP3 SWAP2 POP POP JUMP JUMPDEST PUSH0 DUP1 REVERT JUMPDEST PUSH0 DUP2 SWAP1 POP DUP3 PUSH1 0x20 PUSH1 0x8 MUL DUP3 ADD GT ISZERO PUSH2 0xC5E JUMPI PUSH2 0xC5D PUSH2 0xC3F JUMP JUMPDEST JUMPDEST SWAP3 SWAP2 POP POP JUMP JUMPDEST PUSH0 DUP2 SWAP1 POP DUP3 PUSH1 0x20 PUSH1 0x1 MUL DUP3 ADD GT ISZERO PUSH2 0xC7F JUMPI PUSH2 0xC7E PUSH2 0xC3F JUMP JUMPDEST JUMPDEST SWAP3 SWAP2 POP POP JUMP JUMPDEST PUSH0 DUP1 PUSH2 0x120 DUP4 DUP6 SUB SLT ISZERO PUSH2 0xC9C JUMPI PUSH2 0xC9B PUSH2 0xBAA JUMP JUMPDEST JUMPDEST PUSH0 PUSH2 0xCA9 DUP6 DUP3 DUP7 ADD PUSH2 0xC43 JUMP JUMPDEST SWAP3 POP POP PUSH2 0x100 PUSH2 0xCBB DUP6 DUP3 DUP7 ADD PUSH2 0xC64 JUMP JUMPDEST SWAP2 POP POP SWAP3 POP SWAP3 SWAP1 POP JUMP JUMPDEST PUSH0 PUSH20 0xFFFFFFFFFFFFFFFFFFFFFFFFFFFFFFFFFFFFFFFF DUP3 AND SWAP1 POP SWAP2 SWAP1 POP JUMP JUMPDEST PUSH0 PUSH2 0xCEE DUP3 PUSH2 0xCC5 JUMP JUMPDEST SWAP1 POP SWAP2 SWAP1 POP JUMP JUMPDEST PUSH2 0xCFE DUP2 PUSH2 0xCE4 JUMP JUMPDEST DUP3 MSTORE POP POP JUMP JUMPDEST PUSH0 PUSH1 0x20 DUP3 ADD SWAP1 POP PUSH2 0xD17 PUSH0 DUP4 ADD DUP5 PUSH2 0xCF5 JUMP JUMPDEST SWAP3 SWAP2 POP POP JUMP JUMPDEST PUSH2 0xD26 DUP2 PUSH2 0xCE4 JUMP JUMPDEST DUP2 EQ PUSH2 0xD30 JUMPI PUSH0 DUP1 REVERT JUMPDEST POP JUMP JUMPDEST PUSH0 DUP2 CALLDATALOAD SWAP1 POP PUSH2 0xD41 DUP2 PUSH2 0xD1D JUMP JUMPDEST SWAP3 SWAP2 POP POP JUMP JUMPDEST PUSH0 PUSH1 0x20 DUP3 DUP5 SUB SLT ISZERO PUSH2 0xD5C JUMPI PUSH2 0xD5B PUSH2 0xBAA JUMP JUMPDEST JUMPDEST PUSH0 PUSH2 0xD69 DUP5 DUP3 DUP6 ADD PUSH2 0xD33 JUMP JUMPDEST SWAP2 POP POP SWAP3 SWAP2 POP POP JUMP JUMPDEST PUSH0 DUP3 DUP3 MSTORE PUSH1 0x20 DUP3 ADD SWAP1 POP SWAP3 SWAP2 POP POP JUMP JUMPDEST PUSH32 0x496E76616C696420696E70757420706172616D65746572730000000000000000 PUSH0 DUP3 ADD MSTORE POP JUMP JUMPDEST PUSH0 PUSH2 0xDB6 PUSH1 0x18 DUP4 PUSH2 0xD72 JUMP JUMPDEST SWAP2 POP PUSH2 0xDC1 DUP3 PUSH2 0xD82 JUMP JUMPDEST PUSH1 0x20 DUP3 ADD SWAP1 POP SWAP2 SWAP1 POP JUMP JUMPDEST PUSH0 PUSH1 0x20 DUP3 ADD SWAP1 POP DUP2 DUP2 SUB PUSH0 DUP4 ADD MSTORE PUSH2 0xDE3 DUP2 PUSH2 0xDAA JUMP JUMPDEST SWAP1 POP SWAP2 SWAP1 POP JUMP JUMPDEST PUSH32 0x4E487B7100000000000000000000000000000000000000000000000000000000 PUSH0 MSTORE PUSH1 0x32 PUSH1 0x4 MSTORE PUSH1 0x24 PUSH0 REVERT JUMPDEST DUP3 DUP2 DUP4 CALLDATACOPY POP POP POP JUMP JUMPDEST PUSH2 0xE2D PUSH2 0x100 DUP4 DUP4 PUSH2 0xE17 JUMP JUMPDEST POP POP JUMP JUMPDEST PUSH2 0xE3D PUSH1 0x20 DUP4 DUP4 PUSH2 0xE17 JUMP JUMPDEST POP POP JUMP JUMPDEST PUSH0 PUSH2 0x120 DUP3 ADD SWAP1 POP PUSH2 0xE55 PUSH0 DUP4 ADD DUP6 PUSH2 0xE20 JUMP JUMPDEST PUSH2 0xE63 PUSH2 0x100 DUP4 ADD DUP5 PUSH2 0xE31 JUMP JUMPDEST SWAP4 SWAP3 POP POP POP JUMP JUMPDEST PUSH2 0xE73 DUP2 PUSH2 0xC0C JUMP JUMPDEST DUP2 EQ PUSH2 0xE7D JUMPI PUSH0 DUP1 REVERT JUMPDEST POP JUMP JUMPDEST PUSH0 DUP2 MLOAD SWAP1 POP PUSH2 0xE8E DUP2 PUSH2 0xE6A JUMP JUMPDEST SWAP3 SWAP2 POP POP JUMP JUMPDEST PUSH0 PUSH1 0x20 DUP3 DUP5 SUB SLT ISZERO PUSH2 0xEA9 JUMPI PUSH2 0xEA8 PUSH2 0xBAA JUMP JUMPDEST JUMPDEST PUSH0 PUSH2 0xEB6 DUP5 DUP3 DUP6 ADD PUSH2 0xE80 JUMP JUMPDEST SWAP2 POP POP SWAP3 SWAP2 POP POP JUMP JUMPDEST PUSH2 0xECC PUSH2 0x100 DUP4 DUP4 PUSH2 0xE17 JUMP JUMPDEST POP POP JUMP JUMPDEST PUSH2 0xEDC PUSH1 0x20 DUP4 DUP4 PUSH2 0xE17 JUMP JUMPDEST POP POP JUMP JUMPDEST PUSH0 PUSH2 0xEEB DUP3 DUP6 PUSH2 0xEBF JUMP JUMPDEST PUSH2 0x100 DUP3 ADD SWAP2 POP PUSH2 0xEFC DUP3 DUP5 PUSH2 0xED0 JUMP JUMPDEST PUSH1 0x20 DUP3 ADD SWAP2 POP DUP2 SWAP1 POP SWAP4 SWAP3 POP POP POP JUMP JUMPDEST PUSH32 0x4E487B7100000000000000000000000000000000000000000000000000000000 PUSH0 MSTORE PUSH1 0x12 PUSH1 0x4 MSTORE PUSH1 0x24 PUSH0 REVERT JUMPDEST PUSH0 DUP2 SWAP1 POP SWAP2 SWAP1 POP JUMP JUMPDEST PUSH0 DUP2 SWAP1 POP SWAP2 SWAP1 POP JUMP JUMPDEST PUSH2 0xF5C PUSH2 0xF57 DUP3 PUSH2 0xF39 JUMP JUMPDEST PUSH2 0xF42 JUMP JUMPDEST DUP3 MSTORE POP POP JUMP JUMPDEST PUSH0 PUSH1 0x2 SWAP1 POP SWAP2 SWAP1 POP JUMP JUMPDEST PUSH0 DUP2 SWAP1 POP SWAP3 SWAP2 POP POP JUMP JUMPDEST PUSH0 DUP2 SWAP1 POP SWAP2 SWAP1 POP JUMP JUMPDEST PUSH2 0xF88 DUP2 PUSH2 0xF39 JUMP JUMPDEST DUP3 MSTORE POP POP JUMP JUMPDEST PUSH0 PUSH2 0xF99 DUP4 DUP4 PUSH2 0xF7F JUMP JUMPDEST PUSH1 0x20 DUP4 ADD SWAP1 POP SWAP3 SWAP2 POP POP JUMP JUMPDEST PUSH0 PUSH1 0x20 DUP3 ADD SWAP1 POP SWAP2 SWAP1 POP JUMP JUMPDEST PUSH2 0xFBA DUP2 PUSH2 0xF62 JUMP JUMPDEST PUSH2 0xFC4 DUP2 DUP5 PUSH2 0xF6C JUMP JUMPDEST SWAP3 POP PUSH2 0xFCF DUP3 PUSH2 0xF76 JUMP JUMPDEST DUP1 PUSH0 JUMPDEST DUP4 DUP2 LT ISZERO PUSH2 0xFFF JUMPI DUP2 MLOAD PUSH2 0xFE6 DUP8 DUP3 PUSH2 0xF8E JUMP JUMPDEST SWAP7 POP PUSH2 0xFF1 DUP4 PUSH2 0xFA5 JUMP JUMPDEST SWAP3 POP POP PUSH1 0x1 DUP2 ADD SWAP1 POP PUSH2 0xFD2 JUMP JUMPDEST POP POP POP POP POP POP JUMP JUMPDEST PUSH0 PUSH2 0x1012 DUP3 DUP11 PUSH2 0xF4B JUMP JUMPDEST PUSH1 0x20 DUP3 ADD SWAP2 POP PUSH2 0x1022 DUP3 DUP10 PUSH2 0xF4B JUMP JUMPDEST PUSH1 0x20 DUP3 ADD SWAP2 POP PUSH2 0x1032 DUP3 DUP9 PUSH2 0xFB1 JUMP JUMPDEST PUSH1 0x40 DUP3 ADD SWAP2 POP PUSH2 0x1042 DUP3 DUP8 PUSH2 0xFB1 JUMP JUMPDEST PUSH1 0x40 DUP3 ADD SWAP2 POP PUSH2 0x1052 DUP3 DUP7 PUSH2 0xF4B JUMP JUMPDEST PUSH1 0x20 DUP3 ADD SWAP2 POP PUSH2 0x1062 DUP3 DUP6 PUSH2 0xF4B JUMP JUMPDEST PUSH1 0x20 DUP3 ADD SWAP2 POP PUSH2 0x1072 DUP3 DUP5 PUSH2 0xF4B JUMP JUMPDEST PUSH1 0x20 DUP3 ADD SWAP2 POP DUP2 SWAP1 POP SWAP9 SWAP8 POP POP POP POP POP POP POP POP JUMP INVALID LOG2 PUSH5 0x6970667358 0x22 SLT KECCAK256 DUP6 0xB9 TIMESTAMP TLOAD MSTORE8 0xC5 0xC8 PUSH25 0x6B76BE2A9C37C98D7B52886FE66A570B79834A8B193865A964 PUSH20 0x6F6C634300081A00330000000000000000000000 "
		},
		"gasEstimates": {
			"creation": {
				"codeDepositCost": "857000",
				"executionCost": "infinite",
				"totalCost": "infinite"
			},
			"external": {
				"owner()": "2559",
				"pause()": "infinite",
				"paused()": "2591",
				"renounceOwnership()": "infinite",
				"transferOwnership(address)": "infinite",
				"unpause()": "infinite",
				"verifiedProofs(bytes32)": "2786",
				"verifyAndRecordProof(uint256[8],uint256[1])": "infinite",
				"verifyProof(uint256[8],uint256[1])": "infinite"
			},
			"internal": {
				"_verifyProofPoints(struct ZKVerifier.G1Point memory,struct ZKVerifier.G2Point memory,struct ZKVerifier.G1Point memory,uint256)": "infinite",
				"generateProofHash(uint256[8] calldata,uint256[1] calldata)": "infinite",
				"isOnCurveG1(struct ZKVerifier.G1Point memory)": "infinite",
				"isOnCurveG2(struct ZKVerifier.G2Point memory)": "infinite",
				"validateInputs(uint256[8] calldata,uint256[1] calldata)": "infinite",
				"verifyPairing(struct ZKVerifier.G1Point memory,struct ZKVerifier.G2Point memory,struct ZKVerifier.G1Point memory,uint256)": "infinite"
			}
		},
		"methodIdentifiers": {
			"owner()": "8da5cb5b",
			"pause()": "8456cb59",
			"paused()": "5c975abb",
			"renounceOwnership()": "715018a6",
			"transferOwnership(address)": "f2fde38b",
			"unpause()": "3f4ba83a",
			"verifiedProofs(bytes32)": "176d80c4",
			"verifyAndRecordProof(uint256[8],uint256[1])": "cd95fe6b",
			"verifyProof(uint256[8],uint256[1])": "1b81f829"
		}
	},
	"abi": [
		{
			"inputs": [
				{
					"internalType": "address",
					"name": "initialOwner",
					"type": "address"
				}
			],
			"stateMutability": "nonpayable",
			"type": "constructor"
		},
		{
			"inputs": [],
			"name": "EnforcedPause",
			"type": "error"
		},
		{
			"inputs": [],
			"name": "ExpectedPause",
			"type": "error"
		},
		{
			"inputs": [
				{
					"internalType": "address",
					"name": "owner",
					"type": "address"
				}
			],
			"name": "OwnableInvalidOwner",
			"type": "error"
		},
		{
			"inputs": [
				{
					"internalType": "address",
					"name": "account",
					"type": "address"
				}
			],
			"name": "OwnableUnauthorizedAccount",
			"type": "error"
		},
		{
			"inputs": [],
			"name": "ReentrancyGuardReentrantCall",
			"type": "error"
		},
		{
			"anonymous": false,
			"inputs": [
				{
					"indexed": true,
					"internalType": "address",
					"name": "previousOwner",
					"type": "address"
				},
				{
					"indexed": true,
					"internalType": "address",
					"name": "newOwner",
					"type": "address"
				}
			],
			"name": "OwnershipTransferred",
			"type": "event"
		},
		{
			"anonymous": false,
			"inputs": [
				{
					"indexed": false,
					"internalType": "address",
					"name": "account",
					"type": "address"
				}
			],
			"name": "Paused",
			"type": "event"
		},
		{
			"anonymous": false,
			"inputs": [
				{
					"indexed": true,
					"internalType": "bytes32",
					"name": "proofHash",
					"type": "bytes32"
				},
				{
					"indexed": false,
					"internalType": "bool",
					"name": "success",
					"type": "bool"
				}
			],
			"name": "ProofVerified",
			"type": "event"
		},
		{
			"anonymous": false,
			"inputs": [
				{
					"indexed": false,
					"internalType": "address",
					"name": "account",
					"type": "address"
				}
			],
			"name": "Unpaused",
			"type": "event"
		},
		{
			"anonymous": false,
			"inputs": [
				{
					"indexed": true,
					"internalType": "bytes32",
					"name": "proofHash",
					"type": "bytes32"
				},
				{
					"indexed": false,
					"internalType": "string",
					"name": "reason",
					"type": "string"
				}
			],
			"name": "VerifierError",
			"type": "event"
		},
		{
			"inputs": [],
			"name": "owner",
			"outputs": [
				{
					"internalType": "address",
					"name": "",
					"type": "address"
				}
			],
			"stateMutability": "view",
			"type": "function"
		},
		{
			"inputs": [],
			"name": "pause",
			"outputs": [],
			"stateMutability": "nonpayable",
			"type": "function"
		},
		{
			"inputs": [],
			"name": "paused",
			"outputs": [
				{
					"internalType": "bool",
					"name": "",
					"type": "bool"
				}
			],
			"stateMutability": "view",
			"type": "function"
		},
		{
			"inputs": [],
			"name": "renounceOwnership",
			"outputs": [],
			"stateMutability": "nonpayable",
			"type": "function"
		},
		{
			"inputs": [
				{
					"internalType": "address",
					"name": "newOwner",
					"type": "address"
				}
			],
			"name": "transferOwnership",
			"outputs": [],
			"stateMutability": "nonpayable",
			"type": "function"
		},
		{
			"inputs": [],
			"name": "unpause",
			"outputs": [],
			"stateMutability": "nonpayable",
			"type": "function"
		},
		{
			"inputs": [
				{
					"internalType": "bytes32",
					"name": "",
					"type": "bytes32"
				}
			],
			"name": "verifiedProofs",
			"outputs": [
				{
					"internalType": "bool",
					"name": "",
					"type": "bool"
				}
			],
			"stateMutability": "view",
			"type": "function"
		},
		{
			"inputs": [
				{
					"internalType": "uint256[8]",
					"name": "proof",
					"type": "uint256[8]"
				},
				{
					"internalType": "uint256[1]",
					"name": "input",
					"type": "uint256[1]"
				}
			],
			"name": "verifyAndRecordProof",
			"outputs": [
				{
					"internalType": "bool",
					"name": "",
					"type": "bool"
				}
			],
			"stateMutability": "nonpayable",
			"type": "function"
		},
		{
			"inputs": [
				{
					"internalType": "uint256[8]",
					"name": "proof",
					"type": "uint256[8]"
				},
				{
					"internalType": "uint256[1]",
					"name": "input",
					"type": "uint256[1]"
				}
			],
			"name": "verifyProof",
			"outputs": [
				{
					"internalType": "bool",
					"name": "",
					"type": "bool"
				}
			],
			"stateMutability": "view",
			"type": "function"
		}
	]
}