{
	"data": {
		"bytecode": {
			"linkReferences": {},
			"object": "608060405234801561000f575f80fd5b5060405161194d38038061194d83398181016040528101906100319190610344565b805f73ffffffffffffffffffffffffffffffffffffffff168173ffffffffffffffffffffffffffffffffffffffff16036100a2575f6040517f1e4fbdf7000000000000000000000000000000000000000000000000000000008152600401610099919061037e565b60405180910390fd5b6100b18161015460201b60201c565b50600180819055505f60025f6101000a81548160ff0219169083151502179055505f73ffffffffffffffffffffffffffffffffffffffff168173ffffffffffffffffffffffffffffffffffffffff1603610140576040517f08c379a0000000000000000000000000000000000000000000000000000000008152600401610137906103f1565b60405180910390fd5b61014e61021560201b60201c565b5061040f565b5f805f9054906101000a900473ffffffffffffffffffffffffffffffffffffffff169050815f806101000a81548173ffffffffffffffffffffffffffffffffffffffff021916908373ffffffffffffffffffffffffffffffffffffffff1602179055508173ffffffffffffffffffffffffffffffffffffffff168173ffffffffffffffffffffffffffffffffffffffff167f8be0079c531659141344cd1fd0a4f28419497f9722a3daafe3b4186f6b6457e060405160405180910390a35050565b61022361028360201b60201c565b600160025f6101000a81548160ff0219169083151502179055507f62e78cea01bee320cd4e420270b5ea74000d11b0c9f74754ebdbfc544b05a25861026c6102ca60201b60201c565b604051610279919061037e565b60405180910390a1565b6102916102d160201b60201c565b156102c8576040517fd93c066500000000000000000000000000000000000000000000000000000000815260040160405180910390fd5b565b5f33905090565b5f60025f9054906101000a900460ff16905090565b5f80fd5b5f73ffffffffffffffffffffffffffffffffffffffff82169050919050565b5f610313826102ea565b9050919050565b61032381610309565b811461032d575f80fd5b50565b5f8151905061033e8161031a565b92915050565b5f60208284031215610359576103586102e6565b5b5f61036684828501610330565b91505092915050565b61037881610309565b82525050565b5f6020820190506103915f83018461036f565b92915050565b5f82825260208201905092915050565b7f496e76616c6964206f776e6572000000000000000000000000000000000000005f82015250565b5f6103db600d83610397565b91506103e6826103a7565b602082019050919050565b5f6020820190508181035f830152610408816103cf565b9050919050565b6115318061041c5f395ff3fe608060405234801561000f575f80fd5b50600436106100a7575f3560e01c8063715018a61161006f578063715018a61461013c5780638456cb591461014657806389fded2f146101505780638da5cb5b1461016c578063a2036faf1461018a578063f2fde38b146101bb576100a7565b806309b19353146100ab578063336b0c46146100c75780633f4ba83a146100f8578063437b347c146101025780635c975abb1461011e575b5f80fd5b6100c560048036038101906100c09190610d57565b6101d7565b005b6100e160048036038101906100dc9190610db4565b6102d6565b6040516100ef929190610dee565b60405180910390f35b610100610406565b005b61011c60048036038101906101179190610e15565b610418565b005b61012661058b565b6040516101339190610e6d565b60405180910390f35b6101446105a0565b005b61014e6105b3565b005b61016a60048036038101906101659190610e86565b6105c5565b005b6101746107ed565b6040516101819190610f15565b60405180910390f35b6101a4600480360381019061019f9190610db4565b610814565b6040516101b2929190610fb4565b60405180910390f35b6101d560048036038101906101d09190611005565b61092e565b005b6101df6109b2565b6101e76109f8565b6101ef610a39565b5f60045f8581526020019081526020015f209050600160ff16816002015f9054906101000a900460ff1660ff161461025c576040517f08c379a00000000000000000000000000000000000000000000000000000000081526004016102539061108a565b60405180910390fd5b60035f8581526020019081526020015f205f90556002816002015f6101000a81548160ff021916908360ff16021790555042847f78bd2ada78ae840d9afbffa9908add00bfc36af05d1c3ab4c174d2e22e96487485856040516102c09291906110f2565b60405180910390a3506102d1610ac0565b505050565b5f806102e06109b2565b6102e86109f8565b6102f0610a39565b5f801b8303610334576040517f08c379a000000000000000000000000000000000000000000000000000000000815260040161032b9061115e565b60405180910390fd5b60405143815242602082015283604082015260608120925083831891505f8152506040518060800160405280428152602001428152602001600160ff1681526020015f81525060045f8481526020019081526020015f205f820151815f0155602082015181600101556040820151816002015f6101000a81548160ff021916908360ff160217905550606082015181600301559050508042837f572a41427584651b729afc9b0b065bb53579c8bbc6e033fb32b22af27c80453060405160405180910390a4610401610ac0565b915091565b61040e610a39565b610416610ac9565b565b6104206109b2565b6104286109f8565b610430610a39565b5f801b8203610474576040517f08c379a000000000000000000000000000000000000000000000000000000000815260040161046b906111c6565b60405180910390fd5b5f801b81036104b8576040517f08c379a00000000000000000000000000000000000000000000000000000000081526004016104af9061122e565b60405180910390fd5b5f801b60035f8481526020019081526020015f20541461050d576040517f08c379a000000000000000000000000000000000000000000000000000000000815260040161050490611296565b60405180910390fd5b8060035f8481526020019081526020015f20819055505f60045f8481526020019081526020015f209050806003015f81548092919061054b906112e1565b919050555042837f57cfca58694e398cde583500605e6ac971fae6d88265aee6ed6d0a4a30ab8aa360405160405180910390a350610587610ac0565b5050565b5f60025f9054906101000a900460ff16905090565b6105a8610a39565b6105b15f610b2a565b565b6105bb610a39565b6105c3610beb565b565b6105cd6109b2565b6105d56109f8565b6105dd610a39565b5f60045f8581526020019081526020015f209050600160ff16816002015f9054906101000a900460ff1660ff161461064a576040517f08c379a000000000000000000000000000000000000000000000000000000000815260040161064190611372565b60405180910390fd5b62015180816001015461065d9190611390565b42101561069f576040517f08c379a00000000000000000000000000000000000000000000000000000000081526004016106969061140d565b60405180910390fd5b5f801b60035f8581526020019081526020015f2054146106f4576040517f08c379a00000000000000000000000000000000000000000000000000000000081526004016106eb90611475565b60405180910390fd5b60035f8581526020019081526020015f205f90558160035f8581526020019081526020015f20819055506002816002015f6101000a81548160ff021916908360ff1602179055506040518060800160405280428152602001428152602001600160ff1681526020015f81525060045f8581526020019081526020015f205f820151815f0155602082015181600101556040820151816002015f6101000a81548160ff021916908360ff160217905550606082015181600301559050504283857f65ebf7759f441872e87e3400742a736999a7810c122562d126a98376e8eeda9c60405160405180910390a4506107e8610ac0565b505050565b5f805f9054906101000a900473ffffffffffffffffffffffffffffffffffffffff16905090565b5f61081d610c94565b6108256109f8565b61082d610a39565b60045f8481526020019081526020015f206040518060800160405290815f820154815260200160018201548152602001600282015f9054906101000a900460ff1660ff1660ff1681526020016003820154815250509050600160ff16816040015160ff16146108d1576040517f08c379a00000000000000000000000000000000000000000000000000000000081526004016108c89061108a565b60405180910390fd5b60035f8481526020019081526020015f205491505f801b8203610929576040517f08c379a0000000000000000000000000000000000000000000000000000000008152600401610920906114dd565b60405180910390fd5b915091565b610936610a39565b5f73ffffffffffffffffffffffffffffffffffffffff168173ffffffffffffffffffffffffffffffffffffffff16036109a6575f6040517f1e4fbdf700000000000000000000000000000000000000000000000000000000815260040161099d9190610f15565b60405180910390fd5b6109af81610b2a565b50565b6002600154036109ee576040517f3ee5aeb500000000000000000000000000000000000000000000000000000000815260040160405180910390fd5b6002600181905550565b610a0061058b565b15610a37576040517fd93c066500000000000000000000000000000000000000000000000000000000815260040160405180910390fd5b565b610a41610c4d565b73ffffffffffffffffffffffffffffffffffffffff16610a5f6107ed565b73ffffffffffffffffffffffffffffffffffffffff1614610abe57610a82610c4d565b6040517f118cdaa7000000000000000000000000000000000000000000000000000000008152600401610ab59190610f15565b60405180910390fd5b565b60018081905550565b610ad1610c54565b5f60025f6101000a81548160ff0219169083151502179055507f5db9ee0a495bf2e6ff9c91a7834c1ba4fdd244a5e8aa4e537bd38aeae4b073aa610b13610c4d565b604051610b209190610f15565b60405180910390a1565b5f805f9054906101000a900473ffffffffffffffffffffffffffffffffffffffff169050815f806101000a81548173ffffffffffffffffffffffffffffffffffffffff021916908373ffffffffffffffffffffffffffffffffffffffff1602179055508173ffffffffffffffffffffffffffffffffffffffff168173ffffffffffffffffffffffffffffffffffffffff167f8be0079c531659141344cd1fd0a4f28419497f9722a3daafe3b4186f6b6457e060405160405180910390a35050565b610bf36109f8565b600160025f6101000a81548160ff0219169083151502179055507f62e78cea01bee320cd4e420270b5ea74000d11b0c9f74754ebdbfc544b05a258610c36610c4d565b604051610c439190610f15565b60405180910390a1565b5f33905090565b610c5c61058b565b610c92576040517f8dfc202b00000000000000000000000000000000000000000000000000000000815260040160405180910390fd5b565b60405180608001604052805f81526020015f81526020015f60ff1681526020015f81525090565b5f80fd5b5f80fd5b5f819050919050565b610cd581610cc3565b8114610cdf575f80fd5b50565b5f81359050610cf081610ccc565b92915050565b5f80fd5b5f80fd5b5f80fd5b5f8083601f840112610d1757610d16610cf6565b5b8235905067ffffffffffffffff811115610d3457610d33610cfa565b5b602083019150836001820283011115610d5057610d4f610cfe565b5b9250929050565b5f805f60408486031215610d6e57610d6d610cbb565b5b5f610d7b86828701610ce2565b935050602084013567ffffffffffffffff811115610d9c57610d9b610cbf565b5b610da886828701610d02565b92509250509250925092565b5f60208284031215610dc957610dc8610cbb565b5b5f610dd684828501610ce2565b91505092915050565b610de881610cc3565b82525050565b5f604082019050610e015f830185610ddf565b610e0e6020830184610ddf565b9392505050565b5f8060408385031215610e2b57610e2a610cbb565b5b5f610e3885828601610ce2565b9250506020610e4985828601610ce2565b9150509250929050565b5f8115159050919050565b610e6781610e53565b82525050565b5f602082019050610e805f830184610e5e565b92915050565b5f805f60608486031215610e9d57610e9c610cbb565b5b5f610eaa86828701610ce2565b9350506020610ebb86828701610ce2565b9250506040610ecc86828701610ce2565b9150509250925092565b5f73ffffffffffffffffffffffffffffffffffffffff82169050919050565b5f610eff82610ed6565b9050919050565b610f0f81610ef5565b82525050565b5f602082019050610f285f830184610f06565b92915050565b5f819050919050565b610f4081610f2e565b82525050565b5f60ff82169050919050565b610f5b81610f46565b82525050565b608082015f820151610f755f850182610f37565b506020820151610f886020850182610f37565b506040820151610f9b6040850182610f52565b506060820151610fae6060850182610f37565b50505050565b5f60a082019050610fc75f830185610ddf565b610fd46020830184610f61565b9392505050565b610fe481610ef5565b8114610fee575f80fd5b50565b5f81359050610fff81610fdb565b92915050565b5f6020828403121561101a57611019610cbb565b5b5f61102784828501610ff1565b91505092915050565b5f82825260208201905092915050565b7f4b6579206e6f74206163746976650000000000000000000000000000000000005f82015250565b5f611074600e83611030565b915061107f82611040565b602082019050919050565b5f6020820190508181035f8301526110a181611068565b9050919050565b828183375f83830152505050565b5f601f19601f8301169050919050565b5f6110d18385611030565b93506110de8385846110a8565b6110e7836110b6565b840190509392505050565b5f6020820190508181035f83015261110b8184866110c6565b90509392505050565b7f5a65726f20656e74726f707900000000000000000000000000000000000000005f82015250565b5f611148600c83611030565b915061115382611114565b602082019050919050565b5f6020820190508181035f8301526111758161113c565b9050919050565b7f496e76616c6964206b65792068617368000000000000000000000000000000005f82015250565b5f6111b0601083611030565b91506111bb8261117c565b602082019050919050565b5f6020820190508181035f8301526111dd816111a4565b9050919050565b7f496e76616c696420656e63727970746564206b657900000000000000000000005f82015250565b5f611218601583611030565b9150611223826111e4565b602082019050919050565b5f6020820190508181035f8301526112458161120c565b9050919050565b7f4b657920616c72656164792065786973747300000000000000000000000000005f82015250565b5f611280601283611030565b915061128b8261124c565b602082019050919050565b5f6020820190508181035f8301526112ad81611274565b9050919050565b7f4e487b71000000000000000000000000000000000000000000000000000000005f52601160045260245ffd5b5f6112eb82610f2e565b91507fffffffffffffffffffffffffffffffffffffffffffffffffffffffffffffffff820361131d5761131c6112b4565b5b600182019050919050565b7f496e76616c6964206f6c64206b657900000000000000000000000000000000005f82015250565b5f61135c600f83611030565b915061136782611328565b602082019050919050565b5f6020820190508181035f83015261138981611350565b9050919050565b5f61139a82610f2e565b91506113a583610f2e565b92508282019050808211156113bd576113bc6112b4565b5b92915050565b7f436f6f6c696e6720706572696f642061637469766500000000000000000000005f82015250565b5f6113f7601583611030565b9150611402826113c3565b602082019050919050565b5f6020820190508181035f830152611424816113eb565b9050919050565b7f4e6577206b657920616c726561647920657869737473000000000000000000005f82015250565b5f61145f601683611030565b915061146a8261142b565b602082019050919050565b5f6020820190508181035f83015261148c81611453565b9050919050565b7f4b6579206e6f7420666f756e64000000000000000000000000000000000000005f82015250565b5f6114c7600d83611030565b91506114d282611493565b602082019050919050565b5f6020820190508181035f8301526114f4816114bb565b905091905056fea2646970667358221220b3bc7706156a34c4b09befcc5e8bc2cec2f086690b3fdc21d66d2dce1387593c64736f6c634300081a0033",
			"opcodes": "PUSH1 0x80 PUSH1 0x40 MSTORE CALLVALUE DUP1 ISZERO PUSH2 0xF JUMPI PUSH0 DUP1 REVERT JUMPDEST POP PUSH1 0x40 MLOAD PUSH2 0x194D CODESIZE SUB DUP1 PUSH2 0x194D DUP4 CODECOPY DUP2 DUP2 ADD PUSH1 0x40 MSTORE DUP2 ADD SWAP1 PUSH2 0x31 SWAP2 SWAP1 PUSH2 0x344 JUMP JUMPDEST DUP1 PUSH0 PUSH20 0xFFFFFFFFFFFFFFFFFFFFFFFFFFFFFFFFFFFFFFFF AND DUP2 PUSH20 0xFFFFFFFFFFFFFFFFFFFFFFFFFFFFFFFFFFFFFFFF AND SUB PUSH2 0xA2 JUMPI PUSH0 PUSH1 0x40 MLOAD PUSH32 0x1E4FBDF700000000000000000000000000000000000000000000000000000000 DUP2 MSTORE PUSH1 0x4 ADD PUSH2 0x99 SWAP2 SWAP1 PUSH2 0x37E JUMP JUMPDEST PUSH1 0x40 MLOAD DUP1 SWAP2 SUB SWAP1 REVERT JUMPDEST PUSH2 0xB1 DUP2 PUSH2 0x154 PUSH1 0x20 SHL PUSH1 0x20 SHR JUMP JUMPDEST POP PUSH1 0x1 DUP1 DUP2 SWAP1 SSTORE POP PUSH0 PUSH1 0x2 PUSH0 PUSH2 0x100 EXP DUP2 SLOAD DUP2 PUSH1 0xFF MUL NOT AND SWAP1 DUP4 ISZERO ISZERO MUL OR SWAP1 SSTORE POP PUSH0 PUSH20 0xFFFFFFFFFFFFFFFFFFFFFFFFFFFFFFFFFFFFFFFF AND DUP2 PUSH20 0xFFFFFFFFFFFFFFFFFFFFFFFFFFFFFFFFFFFFFFFF AND SUB PUSH2 0x140 JUMPI PUSH1 0x40 MLOAD PUSH32 0x8C379A000000000000000000000000000000000000000000000000000000000 DUP2 MSTORE PUSH1 0x4 ADD PUSH2 0x137 SWAP1 PUSH2 0x3F1 JUMP JUMPDEST PUSH1 0x40 MLOAD DUP1 SWAP2 SUB SWAP1 REVERT JUMPDEST PUSH2 0x14E PUSH2 0x215 PUSH1 0x20 SHL PUSH1 0x20 SHR JUMP JUMPDEST POP PUSH2 0x40F JUMP JUMPDEST PUSH0 DUP1 PUSH0 SWAP1 SLOAD SWAP1 PUSH2 0x100 EXP SWAP1 DIV PUSH20 0xFFFFFFFFFFFFFFFFFFFFFFFFFFFFFFFFFFFFFFFF AND SWAP1 POP DUP2 PUSH0 DUP1 PUSH2 0x100 EXP DUP2 SLOAD DUP2 PUSH20 0xFFFFFFFFFFFFFFFFFFFFFFFFFFFFFFFFFFFFFFFF MUL NOT AND SWAP1 DUP4 PUSH20 0xFFFFFFFFFFFFFFFFFFFFFFFFFFFFFFFFFFFFFFFF AND MUL OR SWAP1 SSTORE POP DUP2 PUSH20 0xFFFFFFFFFFFFFFFFFFFFFFFFFFFFFFFFFFFFFFFF AND DUP2 PUSH20 0xFFFFFFFFFFFFFFFFFFFFFFFFFFFFFFFFFFFFFFFF AND PUSH32 0x8BE0079C531659141344CD1FD0A4F28419497F9722A3DAAFE3B4186F6B6457E0 PUSH1 0x40 MLOAD PUSH1 0x40 MLOAD DUP1 SWAP2 SUB SWAP1 LOG3 POP POP JUMP JUMPDEST PUSH2 0x223 PUSH2 0x283 PUSH1 0x20 SHL PUSH1 0x20 SHR JUMP JUMPDEST PUSH1 0x1 PUSH1 0x2 PUSH0 PUSH2 0x100 EXP DUP2 SLOAD DUP2 PUSH1 0xFF MUL NOT AND SWAP1 DUP4 ISZERO ISZERO MUL OR SWAP1 SSTORE POP PUSH32 0x62E78CEA01BEE320CD4E420270B5EA74000D11B0C9F74754EBDBFC544B05A258 PUSH2 0x26C PUSH2 0x2CA PUSH1 0x20 SHL PUSH1 0x20 SHR JUMP JUMPDEST PUSH1 0x40 MLOAD PUSH2 0x279 SWAP2 SWAP1 PUSH2 0x37E JUMP JUMPDEST PUSH1 0x40 MLOAD DUP1 SWAP2 SUB SWAP1 LOG1 JUMP JUMPDEST PUSH2 0x291 PUSH2 0x2D1 PUSH1 0x20 SHL PUSH1 0x20 SHR JUMP JUMPDEST ISZERO PUSH2 0x2C8 JUMPI PUSH1 0x40 MLOAD PUSH32 0xD93C066500000000000000000000000000000000000000000000000000000000 DUP2 MSTORE PUSH1 0x4 ADD PUSH1 0x40 MLOAD DUP1 SWAP2 SUB SWAP1 REVERT JUMPDEST JUMP JUMPDEST PUSH0 CALLER SWAP1 POP SWAP1 JUMP JUMPDEST PUSH0 PUSH1 0x2 PUSH0 SWAP1 SLOAD SWAP1 PUSH2 0x100 EXP SWAP1 DIV PUSH1 0xFF AND SWAP1 POP SWAP1 JUMP JUMPDEST PUSH0 DUP1 REVERT JUMPDEST PUSH0 PUSH20 0xFFFFFFFFFFFFFFFFFFFFFFFFFFFFFFFFFFFFFFFF DUP3 AND SWAP1 POP SWAP2 SWAP1 POP JUMP JUMPDEST PUSH0 PUSH2 0x313 DUP3 PUSH2 0x2EA JUMP JUMPDEST SWAP1 POP SWAP2 SWAP1 POP JUMP JUMPDEST PUSH2 0x323 DUP2 PUSH2 0x309 JUMP JUMPDEST DUP2 EQ PUSH2 0x32D JUMPI PUSH0 DUP1 REVERT JUMPDEST POP JUMP JUMPDEST PUSH0 DUP2 MLOAD SWAP1 POP PUSH2 0x33E DUP2 PUSH2 0x31A JUMP JUMPDEST SWAP3 SWAP2 POP POP JUMP JUMPDEST PUSH0 PUSH1 0x20 DUP3 DUP5 SUB SLT ISZERO PUSH2 0x359 JUMPI PUSH2 0x358 PUSH2 0x2E6 JUMP JUMPDEST JUMPDEST PUSH0 PUSH2 0x366 DUP5 DUP3 DUP6 ADD PUSH2 0x330 JUMP JUMPDEST SWAP2 POP POP SWAP3 SWAP2 POP POP JUMP JUMPDEST PUSH2 0x378 DUP2 PUSH2 0x309 JUMP JUMPDEST DUP3 MSTORE POP POP JUMP JUMPDEST PUSH0 PUSH1 0x20 DUP3 ADD SWAP1 POP PUSH2 0x391 PUSH0 DUP4 ADD DUP5 PUSH2 0x36F JUMP JUMPDEST SWAP3 SWAP2 POP POP JUMP JUMPDEST PUSH0 DUP3 DUP3 MSTORE PUSH1 0x20 DUP3 ADD SWAP1 POP SWAP3 SWAP2 POP POP JUMP JUMPDEST PUSH32 0x496E76616C6964206F776E657200000000000000000000000000000000000000 PUSH0 DUP3 ADD MSTORE POP JUMP JUMPDEST PUSH0 PUSH2 0x3DB PUSH1 0xD DUP4 PUSH2 0x397 JUMP JUMPDEST SWAP2 POP PUSH2 0x3E6 DUP3 PUSH2 0x3A7 JUMP JUMPDEST PUSH1 0x20 DUP3 ADD SWAP1 POP SWAP2 SWAP1 POP JUMP JUMPDEST PUSH0 PUSH1 0x20 DUP3 ADD SWAP1 POP DUP2 DUP2 SUB PUSH0 DUP4 ADD MSTORE PUSH2 0x408 DUP2 PUSH2 0x3CF JUMP JUMPDEST SWAP1 POP SWAP2 SWAP1 POP JUMP JUMPDEST PUSH2 0x1531 DUP1 PUSH2 0x41C PUSH0 CODECOPY PUSH0 RETURN INVALID PUSH1 0x80 PUSH1 0x40 MSTORE CALLVALUE DUP1 ISZERO PUSH2 0xF JUMPI PUSH0 DUP1 REVERT JUMPDEST POP PUSH1 0x4 CALLDATASIZE LT PUSH2 0xA7 JUMPI PUSH0 CALLDATALOAD PUSH1 0xE0 SHR DUP1 PUSH4 0x715018A6 GT PUSH2 0x6F JUMPI DUP1 PUSH4 0x715018A6 EQ PUSH2 0x13C JUMPI DUP1 PUSH4 0x8456CB59 EQ PUSH2 0x146 JUMPI DUP1 PUSH4 0x89FDED2F EQ PUSH2 0x150 JUMPI DUP1 PUSH4 0x8DA5CB5B EQ PUSH2 0x16C JUMPI DUP1 PUSH4 0xA2036FAF EQ PUSH2 0x18A JUMPI DUP1 PUSH4 0xF2FDE38B EQ PUSH2 0x1BB JUMPI PUSH2 0xA7 JUMP JUMPDEST DUP1 PUSH4 0x9B19353 EQ PUSH2 0xAB JUMPI DUP1 PUSH4 0x336B0C46 EQ PUSH2 0xC7 JUMPI DUP1 PUSH4 0x3F4BA83A EQ PUSH2 0xF8 JUMPI DUP1 PUSH4 0x437B347C EQ PUSH2 0x102 JUMPI DUP1 PUSH4 0x5C975ABB EQ PUSH2 0x11E JUMPI JUMPDEST PUSH0 DUP1 REVERT JUMPDEST PUSH2 0xC5 PUSH1 0x4 DUP1 CALLDATASIZE SUB DUP2 ADD SWAP1 PUSH2 0xC0 SWAP2 SWAP1 PUSH2 0xD57 JUMP JUMPDEST PUSH2 0x1D7 JUMP JUMPDEST STOP JUMPDEST PUSH2 0xE1 PUSH1 0x4 DUP1 CALLDATASIZE SUB DUP2 ADD SWAP1 PUSH2 0xDC SWAP2 SWAP1 PUSH2 0xDB4 JUMP JUMPDEST PUSH2 0x2D6 JUMP JUMPDEST PUSH1 0x40 MLOAD PUSH2 0xEF SWAP3 SWAP2 SWAP1 PUSH2 0xDEE JUMP JUMPDEST PUSH1 0x40 MLOAD DUP1 SWAP2 SUB SWAP1 RETURN JUMPDEST PUSH2 0x100 PUSH2 0x406 JUMP JUMPDEST STOP JUMPDEST PUSH2 0x11C PUSH1 0x4 DUP1 CALLDATASIZE SUB DUP2 ADD SWAP1 PUSH2 0x117 SWAP2 SWAP1 PUSH2 0xE15 JUMP JUMPDEST PUSH2 0x418 JUMP JUMPDEST STOP JUMPDEST PUSH2 0x126 PUSH2 0x58B JUMP JUMPDEST PUSH1 0x40 MLOAD PUSH2 0x133 SWAP2 SWAP1 PUSH2 0xE6D JUMP JUMPDEST PUSH1 0x40 MLOAD DUP1 SWAP2 SUB SWAP1 RETURN JUMPDEST PUSH2 0x144 PUSH2 0x5A0 JUMP JUMPDEST STOP JUMPDEST PUSH2 0x14E PUSH2 0x5B3 JUMP JUMPDEST STOP JUMPDEST PUSH2 0x16A PUSH1 0x4 DUP1 CALLDATASIZE SUB DUP2 ADD SWAP1 PUSH2 0x165 SWAP2 SWAP1 PUSH2 0xE86 JUMP JUMPDEST PUSH2 0x5C5 JUMP JUMPDEST STOP JUMPDEST PUSH2 0x174 PUSH2 0x7ED JUMP JUMPDEST PUSH1 0x40 MLOAD PUSH2 0x181 SWAP2 SWAP1 PUSH2 0xF15 JUMP JUMPDEST PUSH1 0x40 MLOAD DUP1 SWAP2 SUB SWAP1 RETURN JUMPDEST PUSH2 0x1A4 PUSH1 0x4 DUP1 CALLDATASIZE SUB DUP2 ADD SWAP1 PUSH2 0x19F SWAP2 SWAP1 PUSH2 0xDB4 JUMP JUMPDEST PUSH2 0x814 JUMP JUMPDEST PUSH1 0x40 MLOAD PUSH2 0x1B2 SWAP3 SWAP2 SWAP1 PUSH2 0xFB4 JUMP JUMPDEST PUSH1 0x40 MLOAD DUP1 SWAP2 SUB SWAP1 RETURN JUMPDEST PUSH2 0x1D5 PUSH1 0x4 DUP1 CALLDATASIZE SUB DUP2 ADD SWAP1 PUSH2 0x1D0 SWAP2 SWAP1 PUSH2 0x1005 JUMP JUMPDEST PUSH2 0x92E JUMP JUMPDEST STOP JUMPDEST PUSH2 0x1DF PUSH2 0x9B2 JUMP JUMPDEST PUSH2 0x1E7 PUSH2 0x9F8 JUMP JUMPDEST PUSH2 0x1EF PUSH2 0xA39 JUMP JUMPDEST PUSH0 PUSH1 0x4 PUSH0 DUP6 DUP2 MSTORE PUSH1 0x20 ADD SWAP1 DUP2 MSTORE PUSH1 0x20 ADD PUSH0 KECCAK256 SWAP1 POP PUSH1 0x1 PUSH1 0xFF AND DUP2 PUSH1 0x2 ADD PUSH0 SWAP1 SLOAD SWAP1 PUSH2 0x100 EXP SWAP1 DIV PUSH1 0xFF AND PUSH1 0xFF AND EQ PUSH2 0x25C JUMPI PUSH1 0x40 MLOAD PUSH32 0x8C379A000000000000000000000000000000000000000000000000000000000 DUP2 MSTORE PUSH1 0x4 ADD PUSH2 0x253 SWAP1 PUSH2 0x108A JUMP JUMPDEST PUSH1 0x40 MLOAD DUP1 SWAP2 SUB SWAP1 REVERT JUMPDEST PUSH1 0x3 PUSH0 DUP6 DUP2 MSTORE PUSH1 0x20 ADD SWAP1 DUP2 MSTORE PUSH1 0x20 ADD PUSH0 KECCAK256 PUSH0 SWAP1 SSTORE PUSH1 0x2 DUP2 PUSH1 0x2 ADD PUSH0 PUSH2 0x100 EXP DUP2 SLOAD DUP2 PUSH1 0xFF MUL NOT AND SWAP1 DUP4 PUSH1 0xFF AND MUL OR SWAP1 SSTORE POP TIMESTAMP DUP5 PUSH32 0x78BD2ADA78AE840D9AFBFFA9908ADD00BFC36AF05D1C3AB4C174D2E22E964874 DUP6 DUP6 PUSH1 0x40 MLOAD PUSH2 0x2C0 SWAP3 SWAP2 SWAP1 PUSH2 0x10F2 JUMP JUMPDEST PUSH1 0x40 MLOAD DUP1 SWAP2 SUB SWAP1 LOG3 POP PUSH2 0x2D1 PUSH2 0xAC0 JUMP JUMPDEST POP POP POP JUMP JUMPDEST PUSH0 DUP1 PUSH2 0x2E0 PUSH2 0x9B2 JUMP JUMPDEST PUSH2 0x2E8 PUSH2 0x9F8 JUMP JUMPDEST PUSH2 0x2F0 PUSH2 0xA39 JUMP JUMPDEST PUSH0 DUP1 SHL DUP4 SUB PUSH2 0x334 JUMPI PUSH1 0x40 MLOAD PUSH32 0x8C379A000000000000000000000000000000000000000000000000000000000 DUP2 MSTORE PUSH1 0x4 ADD PUSH2 0x32B SWAP1 PUSH2 0x115E JUMP JUMPDEST PUSH1 0x40 MLOAD DUP1 SWAP2 SUB SWAP1 REVERT JUMPDEST PUSH1 0x40 MLOAD NUMBER DUP2 MSTORE TIMESTAMP PUSH1 0x20 DUP3 ADD MSTORE DUP4 PUSH1 0x40 DUP3 ADD MSTORE PUSH1 0x60 DUP2 KECCAK256 SWAP3 POP DUP4 DUP4 XOR SWAP2 POP PUSH0 DUP2 MSTORE POP PUSH1 0x40 MLOAD DUP1 PUSH1 0x80 ADD PUSH1 0x40 MSTORE DUP1 TIMESTAMP DUP2 MSTORE PUSH1 0x20 ADD TIMESTAMP DUP2 MSTORE PUSH1 0x20 ADD PUSH1 0x1 PUSH1 0xFF AND DUP2 MSTORE PUSH1 0x20 ADD PUSH0 DUP2 MSTORE POP PUSH1 0x4 PUSH0 DUP5 DUP2 MSTORE PUSH1 0x20 ADD SWAP1 DUP2 MSTORE PUSH1 0x20 ADD PUSH0 KECCAK256 PUSH0 DUP3 ADD MLOAD DUP2 PUSH0 ADD SSTORE PUSH1 0x20 DUP3 ADD MLOAD DUP2 PUSH1 0x1 ADD SSTORE PUSH1 0x40 DUP3 ADD MLOAD DUP2 PUSH1 0x2 ADD PUSH0 PUSH2 0x100 EXP DUP2 SLOAD DUP2 PUSH1 0xFF MUL NOT AND SWAP1 DUP4 PUSH1 0xFF AND MUL OR SWAP1 SSTORE POP PUSH1 0x60 DUP3 ADD MLOAD DUP2 PUSH1 0x3 ADD SSTORE SWAP1 POP POP DUP1 TIMESTAMP DUP4 PUSH32 0x572A41427584651B729AFC9B0B065BB53579C8BBC6E033FB32B22AF27C804530 PUSH1 0x40 MLOAD PUSH1 0x40 MLOAD DUP1 SWAP2 SUB SWAP1 LOG4 PUSH2 0x401 PUSH2 0xAC0 JUMP JUMPDEST SWAP2 POP SWAP2 JUMP JUMPDEST PUSH2 0x40E PUSH2 0xA39 JUMP JUMPDEST PUSH2 0x416 PUSH2 0xAC9 JUMP JUMPDEST JUMP JUMPDEST PUSH2 0x420 PUSH2 0x9B2 JUMP JUMPDEST PUSH2 0x428 PUSH2 0x9F8 JUMP JUMPDEST PUSH2 0x430 PUSH2 0xA39 JUMP JUMPDEST PUSH0 DUP1 SHL DUP3 SUB PUSH2 0x474 JUMPI PUSH1 0x40 MLOAD PUSH32 0x8C379A000000000000000000000000000000000000000000000000000000000 DUP2 MSTORE PUSH1 0x4 ADD PUSH2 0x46B SWAP1 PUSH2 0x11C6 JUMP JUMPDEST PUSH1 0x40 MLOAD DUP1 SWAP2 SUB SWAP1 REVERT JUMPDEST PUSH0 DUP1 SHL DUP2 SUB PUSH2 0x4B8 JUMPI PUSH1 0x40 MLOAD PUSH32 0x8C379A000000000000000000000000000000000000000000000000000000000 DUP2 MSTORE PUSH1 0x4 ADD PUSH2 0x4AF SWAP1 PUSH2 0x122E JUMP JUMPDEST PUSH1 0x40 MLOAD DUP1 SWAP2 SUB SWAP1 REVERT JUMPDEST PUSH0 DUP1 SHL PUSH1 0x3 PUSH0 DUP5 DUP2 MSTORE PUSH1 0x20 ADD SWAP1 DUP2 MSTORE PUSH1 0x20 ADD PUSH0 KECCAK256 SLOAD EQ PUSH2 0x50D JUMPI PUSH1 0x40 MLOAD PUSH32 0x8C379A000000000000000000000000000000000000000000000000000000000 DUP2 MSTORE PUSH1 0x4 ADD PUSH2 0x504 SWAP1 PUSH2 0x1296 JUMP JUMPDEST PUSH1 0x40 MLOAD DUP1 SWAP2 SUB SWAP1 REVERT JUMPDEST DUP1 PUSH1 0x3 PUSH0 DUP5 DUP2 MSTORE PUSH1 0x20 ADD SWAP1 DUP2 MSTORE PUSH1 0x20 ADD PUSH0 KECCAK256 DUP2 SWAP1 SSTORE POP PUSH0 PUSH1 0x4 PUSH0 DUP5 DUP2 MSTORE PUSH1 0x20 ADD SWAP1 DUP2 MSTORE PUSH1 0x20 ADD PUSH0 KECCAK256 SWAP1 POP DUP1 PUSH1 0x3 ADD PUSH0 DUP2 SLOAD DUP1 SWAP3 SWAP2 SWAP1 PUSH2 0x54B SWAP1 PUSH2 0x12E1 JUMP JUMPDEST SWAP2 SWAP1 POP SSTORE POP TIMESTAMP DUP4 PUSH32 0x57CFCA58694E398CDE583500605E6AC971FAE6D88265AEE6ED6D0A4A30AB8AA3 PUSH1 0x40 MLOAD PUSH1 0x40 MLOAD DUP1 SWAP2 SUB SWAP1 LOG3 POP PUSH2 0x587 PUSH2 0xAC0 JUMP JUMPDEST POP POP JUMP JUMPDEST PUSH0 PUSH1 0x2 PUSH0 SWAP1 SLOAD SWAP1 PUSH2 0x100 EXP SWAP1 DIV PUSH1 0xFF AND SWAP1 POP SWAP1 JUMP JUMPDEST PUSH2 0x5A8 PUSH2 0xA39 JUMP JUMPDEST PUSH2 0x5B1 PUSH0 PUSH2 0xB2A JUMP JUMPDEST JUMP JUMPDEST PUSH2 0x5BB PUSH2 0xA39 JUMP JUMPDEST PUSH2 0x5C3 PUSH2 0xBEB JUMP JUMPDEST JUMP JUMPDEST PUSH2 0x5CD PUSH2 0x9B2 JUMP JUMPDEST PUSH2 0x5D5 PUSH2 0x9F8 JUMP JUMPDEST PUSH2 0x5DD PUSH2 0xA39 JUMP JUMPDEST PUSH0 PUSH1 0x4 PUSH0 DUP6 DUP2 MSTORE PUSH1 0x20 ADD SWAP1 DUP2 MSTORE PUSH1 0x20 ADD PUSH0 KECCAK256 SWAP1 POP PUSH1 0x1 PUSH1 0xFF AND DUP2 PUSH1 0x2 ADD PUSH0 SWAP1 SLOAD SWAP1 PUSH2 0x100 EXP SWAP1 DIV PUSH1 0xFF AND PUSH1 0xFF AND EQ PUSH2 0x64A JUMPI PUSH1 0x40 MLOAD PUSH32 0x8C379A000000000000000000000000000000000000000000000000000000000 DUP2 MSTORE PUSH1 0x4 ADD PUSH2 0x641 SWAP1 PUSH2 0x1372 JUMP JUMPDEST PUSH1 0x40 MLOAD DUP1 SWAP2 SUB SWAP1 REVERT JUMPDEST PUSH3 0x15180 DUP2 PUSH1 0x1 ADD SLOAD PUSH2 0x65D SWAP2 SWAP1 PUSH2 0x1390 JUMP JUMPDEST TIMESTAMP LT ISZERO PUSH2 0x69F JUMPI PUSH1 0x40 MLOAD PUSH32 0x8C379A000000000000000000000000000000000000000000000000000000000 DUP2 MSTORE PUSH1 0x4 ADD PUSH2 0x696 SWAP1 PUSH2 0x140D JUMP JUMPDEST PUSH1 0x40 MLOAD DUP1 SWAP2 SUB SWAP1 REVERT JUMPDEST PUSH0 DUP1 SHL PUSH1 0x3 PUSH0 DUP6 DUP2 MSTORE PUSH1 0x20 ADD SWAP1 DUP2 MSTORE PUSH1 0x20 ADD PUSH0 KECCAK256 SLOAD EQ PUSH2 0x6F4 JUMPI PUSH1 0x40 MLOAD PUSH32 0x8C379A000000000000000000000000000000000000000000000000000000000 DUP2 MSTORE PUSH1 0x4 ADD PUSH2 0x6EB SWAP1 PUSH2 0x1475 JUMP JUMPDEST PUSH1 0x40 MLOAD DUP1 SWAP2 SUB SWAP1 REVERT JUMPDEST PUSH1 0x3 PUSH0 DUP6 DUP2 MSTORE PUSH1 0x20 ADD SWAP1 DUP2 MSTORE PUSH1 0x20 ADD PUSH0 KECCAK256 PUSH0 SWAP1 SSTORE DUP2 PUSH1 0x3 PUSH0 DUP6 DUP2 MSTORE PUSH1 0x20 ADD SWAP1 DUP2 MSTORE PUSH1 0x20 ADD PUSH0 KECCAK256 DUP2 SWAP1 SSTORE POP PUSH1 0x2 DUP2 PUSH1 0x2 ADD PUSH0 PUSH2 0x100 EXP DUP2 SLOAD DUP2 PUSH1 0xFF MUL NOT AND SWAP1 DUP4 PUSH1 0xFF AND MUL OR SWAP1 SSTORE POP PUSH1 0x40 MLOAD DUP1 PUSH1 0x80 ADD PUSH1 0x40 MSTORE DUP1 TIMESTAMP DUP2 MSTORE PUSH1 0x20 ADD TIMESTAMP DUP2 MSTORE PUSH1 0x20 ADD PUSH1 0x1 PUSH1 0xFF AND DUP2 MSTORE PUSH1 0x20 ADD PUSH0 DUP2 MSTORE POP PUSH1 0x4 PUSH0 DUP6 DUP2 MSTORE PUSH1 0x20 ADD SWAP1 DUP2 MSTORE PUSH1 0x20 ADD PUSH0 KECCAK256 PUSH0 DUP3 ADD MLOAD DUP2 PUSH0 ADD SSTORE PUSH1 0x20 DUP3 ADD MLOAD DUP2 PUSH1 0x1 ADD SSTORE PUSH1 0x40 DUP3 ADD MLOAD DUP2 PUSH1 0x2 ADD PUSH0 PUSH2 0x100 EXP DUP2 SLOAD DUP2 PUSH1 0xFF MUL NOT AND SWAP1 DUP4 PUSH1 0xFF AND MUL OR SWAP1 SSTORE POP PUSH1 0x60 DUP3 ADD MLOAD DUP2 PUSH1 0x3 ADD SSTORE SWAP1 POP POP TIMESTAMP DUP4 DUP6 PUSH32 0x65EBF7759F441872E87E3400742A736999A7810C122562D126A98376E8EEDA9C PUSH1 0x40 MLOAD PUSH1 0x40 MLOAD DUP1 SWAP2 SUB SWAP1 LOG4 POP PUSH2 0x7E8 PUSH2 0xAC0 JUMP JUMPDEST POP POP POP JUMP JUMPDEST PUSH0 DUP1 PUSH0 SWAP1 SLOAD SWAP1 PUSH2 0x100 EXP SWAP1 DIV PUSH20 0xFFFFFFFFFFFFFFFFFFFFFFFFFFFFFFFFFFFFFFFF AND SWAP1 POP SWAP1 JUMP JUMPDEST PUSH0 PUSH2 0x81D PUSH2 0xC94 JUMP JUMPDEST PUSH2 0x825 PUSH2 0x9F8 JUMP JUMPDEST PUSH2 0x82D PUSH2 0xA39 JUMP JUMPDEST PUSH1 0x4 PUSH0 DUP5 DUP2 MSTORE PUSH1 0x20 ADD SWAP1 DUP2 MSTORE PUSH1 0x20 ADD PUSH0 KECCAK256 PUSH1 0x40 MLOAD DUP1 PUSH1 0x80 ADD PUSH1 0x40 MSTORE SWAP1 DUP2 PUSH0 DUP3 ADD SLOAD DUP2 MSTORE PUSH1 0x20 ADD PUSH1 0x1 DUP3 ADD SLOAD DUP2 MSTORE PUSH1 0x20 ADD PUSH1 0x2 DUP3 ADD PUSH0 SWAP1 SLOAD SWAP1 PUSH2 0x100 EXP SWAP1 DIV PUSH1 0xFF AND PUSH1 0xFF AND PUSH1 0xFF AND DUP2 MSTORE PUSH1 0x20 ADD PUSH1 0x3 DUP3 ADD SLOAD DUP2 MSTORE POP POP SWAP1 POP PUSH1 0x1 PUSH1 0xFF AND DUP2 PUSH1 0x40 ADD MLOAD PUSH1 0xFF AND EQ PUSH2 0x8D1 JUMPI PUSH1 0x40 MLOAD PUSH32 0x8C379A000000000000000000000000000000000000000000000000000000000 DUP2 MSTORE PUSH1 0x4 ADD PUSH2 0x8C8 SWAP1 PUSH2 0x108A JUMP JUMPDEST PUSH1 0x40 MLOAD DUP1 SWAP2 SUB SWAP1 REVERT JUMPDEST PUSH1 0x3 PUSH0 DUP5 DUP2 MSTORE PUSH1 0x20 ADD SWAP1 DUP2 MSTORE PUSH1 0x20 ADD PUSH0 KECCAK256 SLOAD SWAP2 POP PUSH0 DUP1 SHL DUP3 SUB PUSH2 0x929 JUMPI PUSH1 0x40 MLOAD PUSH32 0x8C379A000000000000000000000000000000000000000000000000000000000 DUP2 MSTORE PUSH1 0x4 ADD PUSH2 0x920 SWAP1 PUSH2 0x14DD JUMP JUMPDEST PUSH1 0x40 MLOAD DUP1 SWAP2 SUB SWAP1 REVERT JUMPDEST SWAP2 POP SWAP2 JUMP JUMPDEST PUSH2 0x936 PUSH2 0xA39 JUMP JUMPDEST PUSH0 PUSH20 0xFFFFFFFFFFFFFFFFFFFFFFFFFFFFFFFFFFFFFFFF AND DUP2 PUSH20 0xFFFFFFFFFFFFFFFFFFFFFFFFFFFFFFFFFFFFFFFF AND SUB PUSH2 0x9A6 JUMPI PUSH0 PUSH1 0x40 MLOAD PUSH32 0x1E4FBDF700000000000000000000000000000000000000000000000000000000 DUP2 MSTORE PUSH1 0x4 ADD PUSH2 0x99D SWAP2 SWAP1 PUSH2 0xF15 JUMP JUMPDEST PUSH1 0x40 MLOAD DUP1 SWAP2 SUB SWAP1 REVERT JUMPDEST PUSH2 0x9AF DUP2 PUSH2 0xB2A JUMP JUMPDEST POP JUMP JUMPDEST PUSH1 0x2 PUSH1 0x1 SLOAD SUB PUSH2 0x9EE JUMPI PUSH1 0x40 MLOAD PUSH32 0x3EE5AEB500000000000000000000000000000000000000000000000000000000 DUP2 MSTORE PUSH1 0x4 ADD PUSH1 0x40 MLOAD DUP1 SWAP2 SUB SWAP1 REVERT JUMPDEST PUSH1 0x2 PUSH1 0x1 DUP2 SWAP1 SSTORE POP JUMP JUMPDEST PUSH2 0xA00 PUSH2 0x58B JUMP JUMPDEST ISZERO PUSH2 0xA37 JUMPI PUSH1 0x40 MLOAD PUSH32 0xD93C066500000000000000000000000000000000000000000000000000000000 DUP2 MSTORE PUSH1 0x4 ADD PUSH1 0x40 MLOAD DUP1 SWAP2 SUB SWAP1 REVERT JUMPDEST JUMP JUMPDEST PUSH2 0xA41 PUSH2 0xC4D JUMP JUMPDEST PUSH20 0xFFFFFFFFFFFFFFFFFFFFFFFFFFFFFFFFFFFFFFFF AND PUSH2 0xA5F PUSH2 0x7ED JUMP JUMPDEST PUSH20 0xFFFFFFFFFFFFFFFFFFFFFFFFFFFFFFFFFFFFFFFF AND EQ PUSH2 0xABE JUMPI PUSH2 0xA82 PUSH2 0xC4D JUMP JUMPDEST PUSH1 0x40 MLOAD PUSH32 0x118CDAA700000000000000000000000000000000000000000000000000000000 DUP2 MSTORE PUSH1 0x4 ADD PUSH2 0xAB5 SWAP2 SWAP1 PUSH2 0xF15 JUMP JUMPDEST PUSH1 0x40 MLOAD DUP1 SWAP2 SUB SWAP1 REVERT JUMPDEST JUMP JUMPDEST PUSH1 0x1 DUP1 DUP2 SWAP1 SSTORE POP JUMP JUMPDEST PUSH2 0xAD1 PUSH2 0xC54 JUMP JUMPDEST PUSH0 PUSH1 0x2 PUSH0 PUSH2 0x100 EXP DUP2 SLOAD DUP2 PUSH1 0xFF MUL NOT AND SWAP1 DUP4 ISZERO ISZERO MUL OR SWAP1 SSTORE POP PUSH32 0x5DB9EE0A495BF2E6FF9C91A7834C1BA4FDD244A5E8AA4E537BD38AEAE4B073AA PUSH2 0xB13 PUSH2 0xC4D JUMP JUMPDEST PUSH1 0x40 MLOAD PUSH2 0xB20 SWAP2 SWAP1 PUSH2 0xF15 JUMP JUMPDEST PUSH1 0x40 MLOAD DUP1 SWAP2 SUB SWAP1 LOG1 JUMP JUMPDEST PUSH0 DUP1 PUSH0 SWAP1 SLOAD SWAP1 PUSH2 0x100 EXP SWAP1 DIV PUSH20 0xFFFFFFFFFFFFFFFFFFFFFFFFFFFFFFFFFFFFFFFF AND SWAP1 POP DUP2 PUSH0 DUP1 PUSH2 0x100 EXP DUP2 SLOAD DUP2 PUSH20 0xFFFFFFFFFFFFFFFFFFFFFFFFFFFFFFFFFFFFFFFF MUL NOT AND SWAP1 DUP4 PUSH20 0xFFFFFFFFFFFFFFFFFFFFFFFFFFFFFFFFFFFFFFFF AND MUL OR SWAP1 SSTORE POP DUP2 PUSH20 0xFFFFFFFFFFFFFFFFFFFFFFFFFFFFFFFFFFFFFFFF AND DUP2 PUSH20 0xFFFFFFFFFFFFFFFFFFFFFFFFFFFFFFFFFFFFFFFF AND PUSH32 0x8BE0079C531659141344CD1FD0A4F28419497F9722A3DAAFE3B4186F6B6457E0 PUSH1 0x40 MLOAD PUSH1 0x40 MLOAD DUP1 SWAP2 SUB SWAP1 LOG3 POP POP JUMP JUMPDEST PUSH2 0xBF3 PUSH2 0x9F8 JUMP JUMPDEST PUSH1 0x1 PUSH1 0x2 PUSH0 PUSH2 0x100 EXP DUP2 SLOAD DUP2 PUSH1 0xFF MUL NOT AND SWAP1 DUP4 ISZERO ISZERO MUL OR SWAP1 SSTORE POP PUSH32 0x62E78CEA01BEE320CD4E420270B5EA74000D11B0C9F74754EBDBFC544B05A258 PUSH2 0xC36 PUSH2 0xC4D JUMP JUMPDEST PUSH1 0x40 MLOAD PUSH2 0xC43 SWAP2 SWAP1 PUSH2 0xF15 JUMP JUMPDEST PUSH1 0x40 MLOAD DUP1 SWAP2 SUB SWAP1 LOG1 JUMP JUMPDEST PUSH0 CALLER SWAP1 POP SWAP1 JUMP JUMPDEST PUSH2 0xC5C PUSH2 0x58B JUMP JUMPDEST PUSH2 0xC92 JUMPI PUSH1 0x40 MLOAD PUSH32 0x8DFC202B00000000000000000000000000000000000000000000000000000000 DUP2 MSTORE PUSH1 0x4 ADD PUSH1 0x40 MLOAD DUP1 SWAP2 SUB SWAP1 REVERT JUMPDEST JUMP JUMPDEST PUSH1 0x40 MLOAD DUP1 PUSH1 0x80 ADD PUSH1 0x40 MSTORE DUP1 PUSH0 DUP2 MSTORE PUSH1 0x20 ADD PUSH0 DUP2 MSTORE PUSH1 0x20 ADD PUSH0 PUSH1 0xFF AND DUP2 MSTORE PUSH1 0x20 ADD PUSH0 DUP2 MSTORE POP SWAP1 JUMP JUMPDEST PUSH0 DUP1 REVERT JUMPDEST PUSH0 DUP1 REVERT JUMPDEST PUSH0 DUP2 SWAP1 POP SWAP2 SWAP1 POP JUMP JUMPDEST PUSH2 0xCD5 DUP2 PUSH2 0xCC3 JUMP JUMPDEST DUP2 EQ PUSH2 0xCDF JUMPI PUSH0 DUP1 REVERT JUMPDEST POP JUMP JUMPDEST PUSH0 DUP2 CALLDATALOAD SWAP1 POP PUSH2 0xCF0 DUP2 PUSH2 0xCCC JUMP JUMPDEST SWAP3 SWAP2 POP POP JUMP JUMPDEST PUSH0 DUP1 REVERT JUMPDEST PUSH0 DUP1 REVERT JUMPDEST PUSH0 DUP1 REVERT JUMPDEST PUSH0 DUP1 DUP4 PUSH1 0x1F DUP5 ADD SLT PUSH2 0xD17 JUMPI PUSH2 0xD16 PUSH2 0xCF6 JUMP JUMPDEST JUMPDEST DUP3 CALLDATALOAD SWAP1 POP PUSH8 0xFFFFFFFFFFFFFFFF DUP2 GT ISZERO PUSH2 0xD34 JUMPI PUSH2 0xD33 PUSH2 0xCFA JUMP JUMPDEST JUMPDEST PUSH1 0x20 DUP4 ADD SWAP2 POP DUP4 PUSH1 0x1 DUP3 MUL DUP4 ADD GT ISZERO PUSH2 0xD50 JUMPI PUSH2 0xD4F PUSH2 0xCFE JUMP JUMPDEST JUMPDEST SWAP3 POP SWAP3 SWAP1 POP JUMP JUMPDEST PUSH0 DUP1 PUSH0 PUSH1 0x40 DUP5 DUP7 SUB SLT ISZERO PUSH2 0xD6E JUMPI PUSH2 0xD6D PUSH2 0xCBB JUMP JUMPDEST JUMPDEST PUSH0 PUSH2 0xD7B DUP7 DUP3 DUP8 ADD PUSH2 0xCE2 JUMP JUMPDEST SWAP4 POP POP PUSH1 0x20 DUP5 ADD CALLDATALOAD PUSH8 0xFFFFFFFFFFFFFFFF DUP2 GT ISZERO PUSH2 0xD9C JUMPI PUSH2 0xD9B PUSH2 0xCBF JUMP JUMPDEST JUMPDEST PUSH2 0xDA8 DUP7 DUP3 DUP8 ADD PUSH2 0xD02 JUMP JUMPDEST SWAP3 POP SWAP3 POP POP SWAP3 POP SWAP3 POP SWAP3 JUMP JUMPDEST PUSH0 PUSH1 0x20 DUP3 DUP5 SUB SLT ISZERO PUSH2 0xDC9 JUMPI PUSH2 0xDC8 PUSH2 0xCBB JUMP JUMPDEST JUMPDEST PUSH0 PUSH2 0xDD6 DUP5 DUP3 DUP6 ADD PUSH2 0xCE2 JUMP JUMPDEST SWAP2 POP POP SWAP3 SWAP2 POP POP JUMP JUMPDEST PUSH2 0xDE8 DUP2 PUSH2 0xCC3 JUMP JUMPDEST DUP3 MSTORE POP POP JUMP JUMPDEST PUSH0 PUSH1 0x40 DUP3 ADD SWAP1 POP PUSH2 0xE01 PUSH0 DUP4 ADD DUP6 PUSH2 0xDDF JUMP JUMPDEST PUSH2 0xE0E PUSH1 0x20 DUP4 ADD DUP5 PUSH2 0xDDF JUMP JUMPDEST SWAP4 SWAP3 POP POP POP JUMP JUMPDEST PUSH0 DUP1 PUSH1 0x40 DUP4 DUP6 SUB SLT ISZERO PUSH2 0xE2B JUMPI PUSH2 0xE2A PUSH2 0xCBB JUMP JUMPDEST JUMPDEST PUSH0 PUSH2 0xE38 DUP6 DUP3 DUP7 ADD PUSH2 0xCE2 JUMP JUMPDEST SWAP3 POP POP PUSH1 0x20 PUSH2 0xE49 DUP6 DUP3 DUP7 ADD PUSH2 0xCE2 JUMP JUMPDEST SWAP2 POP POP SWAP3 POP SWAP3 SWAP1 POP JUMP JUMPDEST PUSH0 DUP2 ISZERO ISZERO SWAP1 POP SWAP2 SWAP1 POP JUMP JUMPDEST PUSH2 0xE67 DUP2 PUSH2 0xE53 JUMP JUMPDEST DUP3 MSTORE POP POP JUMP JUMPDEST PUSH0 PUSH1 0x20 DUP3 ADD SWAP1 POP PUSH2 0xE80 PUSH0 DUP4 ADD DUP5 PUSH2 0xE5E JUMP JUMPDEST SWAP3 SWAP2 POP POP JUMP JUMPDEST PUSH0 DUP1 PUSH0 PUSH1 0x60 DUP5 DUP7 SUB SLT ISZERO PUSH2 0xE9D JUMPI PUSH2 0xE9C PUSH2 0xCBB JUMP JUMPDEST JUMPDEST PUSH0 PUSH2 0xEAA DUP7 DUP3 DUP8 ADD PUSH2 0xCE2 JUMP JUMPDEST SWAP4 POP POP PUSH1 0x20 PUSH2 0xEBB DUP7 DUP3 DUP8 ADD PUSH2 0xCE2 JUMP JUMPDEST SWAP3 POP POP PUSH1 0x40 PUSH2 0xECC DUP7 DUP3 DUP8 ADD PUSH2 0xCE2 JUMP JUMPDEST SWAP2 POP POP SWAP3 POP SWAP3 POP SWAP3 JUMP JUMPDEST PUSH0 PUSH20 0xFFFFFFFFFFFFFFFFFFFFFFFFFFFFFFFFFFFFFFFF DUP3 AND SWAP1 POP SWAP2 SWAP1 POP JUMP JUMPDEST PUSH0 PUSH2 0xEFF DUP3 PUSH2 0xED6 JUMP JUMPDEST SWAP1 POP SWAP2 SWAP1 POP JUMP JUMPDEST PUSH2 0xF0F DUP2 PUSH2 0xEF5 JUMP JUMPDEST DUP3 MSTORE POP POP JUMP JUMPDEST PUSH0 PUSH1 0x20 DUP3 ADD SWAP1 POP PUSH2 0xF28 PUSH0 DUP4 ADD DUP5 PUSH2 0xF06 JUMP JUMPDEST SWAP3 SWAP2 POP POP JUMP JUMPDEST PUSH0 DUP2 SWAP1 POP SWAP2 SWAP1 POP JUMP JUMPDEST PUSH2 0xF40 DUP2 PUSH2 0xF2E JUMP JUMPDEST DUP3 MSTORE POP POP JUMP JUMPDEST PUSH0 PUSH1 0xFF DUP3 AND SWAP1 POP SWAP2 SWAP1 POP JUMP JUMPDEST PUSH2 0xF5B DUP2 PUSH2 0xF46 JUMP JUMPDEST DUP3 MSTORE POP POP JUMP JUMPDEST PUSH1 0x80 DUP3 ADD PUSH0 DUP3 ADD MLOAD PUSH2 0xF75 PUSH0 DUP6 ADD DUP3 PUSH2 0xF37 JUMP JUMPDEST POP PUSH1 0x20 DUP3 ADD MLOAD PUSH2 0xF88 PUSH1 0x20 DUP6 ADD DUP3 PUSH2 0xF37 JUMP JUMPDEST POP PUSH1 0x40 DUP3 ADD MLOAD PUSH2 0xF9B PUSH1 0x40 DUP6 ADD DUP3 PUSH2 0xF52 JUMP JUMPDEST POP PUSH1 0x60 DUP3 ADD MLOAD PUSH2 0xFAE PUSH1 0x60 DUP6 ADD DUP3 PUSH2 0xF37 JUMP JUMPDEST POP POP POP POP JUMP JUMPDEST PUSH0 PUSH1 0xA0 DUP3 ADD SWAP1 POP PUSH2 0xFC7 PUSH0 DUP4 ADD DUP6 PUSH2 0xDDF JUMP JUMPDEST PUSH2 0xFD4 PUSH1 0x20 DUP4 ADD DUP5 PUSH2 0xF61 JUMP JUMPDEST SWAP4 SWAP3 POP POP POP JUMP JUMPDEST PUSH2 0xFE4 DUP2 PUSH2 0xEF5 JUMP JUMPDEST DUP2 EQ PUSH2 0xFEE JUMPI PUSH0 DUP1 REVERT JUMPDEST POP JUMP JUMPDEST PUSH0 DUP2 CALLDATALOAD SWAP1 POP PUSH2 0xFFF DUP2 PUSH2 0xFDB JUMP JUMPDEST SWAP3 SWAP2 POP POP JUMP JUMPDEST PUSH0 PUSH1 0x20 DUP3 DUP5 SUB SLT ISZERO PUSH2 0x101A JUMPI PUSH2 0x1019 PUSH2 0xCBB JUMP JUMPDEST JUMPDEST PUSH0 PUSH2 0x1027 DUP5 DUP3 DUP6 ADD PUSH2 0xFF1 JUMP JUMPDEST SWAP2 POP POP SWAP3 SWAP2 POP POP JUMP JUMPDEST PUSH0 DUP3 DUP3 MSTORE PUSH1 0x20 DUP3 ADD SWAP1 POP SWAP3 SWAP2 POP POP JUMP JUMPDEST PUSH32 0x4B6579206E6F7420616374697665000000000000000000000000000000000000 PUSH0 DUP3 ADD MSTORE POP JUMP JUMPDEST PUSH0 PUSH2 0x1074 PUSH1 0xE DUP4 PUSH2 0x1030 JUMP JUMPDEST SWAP2 POP PUSH2 0x107F DUP3 PUSH2 0x1040 JUMP JUMPDEST PUSH1 0x20 DUP3 ADD SWAP1 POP SWAP2 SWAP1 POP JUMP JUMPDEST PUSH0 PUSH1 0x20 DUP3 ADD SWAP1 POP DUP2 DUP2 SUB PUSH0 DUP4 ADD MSTORE PUSH2 0x10A1 DUP2 PUSH2 0x1068 JUMP JUMPDEST SWAP1 POP SWAP2 SWAP1 POP JUMP JUMPDEST DUP3 DUP2 DUP4 CALLDATACOPY PUSH0 DUP4 DUP4 ADD MSTORE POP POP POP JUMP JUMPDEST PUSH0 PUSH1 0x1F NOT PUSH1 0x1F DUP4 ADD AND SWAP1 POP SWAP2 SWAP1 POP JUMP JUMPDEST PUSH0 PUSH2 0x10D1 DUP4 DUP6 PUSH2 0x1030 JUMP JUMPDEST SWAP4 POP PUSH2 0x10DE DUP4 DUP6 DUP5 PUSH2 0x10A8 JUMP JUMPDEST PUSH2 0x10E7 DUP4 PUSH2 0x10B6 JUMP JUMPDEST DUP5 ADD SWAP1 POP SWAP4 SWAP3 POP POP POP JUMP JUMPDEST PUSH0 PUSH1 0x20 DUP3 ADD SWAP1 POP DUP2 DUP2 SUB PUSH0 DUP4 ADD MSTORE PUSH2 0x110B DUP2 DUP5 DUP7 PUSH2 0x10C6 JUMP JUMPDEST SWAP1 POP SWAP4 SWAP3 POP POP POP JUMP JUMPDEST PUSH32 0x5A65726F20656E74726F70790000000000000000000000000000000000000000 PUSH0 DUP3 ADD MSTORE POP JUMP JUMPDEST PUSH0 PUSH2 0x1148 PUSH1 0xC DUP4 PUSH2 0x1030 JUMP JUMPDEST SWAP2 POP PUSH2 0x1153 DUP3 PUSH2 0x1114 JUMP JUMPDEST PUSH1 0x20 DUP3 ADD SWAP1 POP SWAP2 SWAP1 POP JUMP JUMPDEST PUSH0 PUSH1 0x20 DUP3 ADD SWAP1 POP DUP2 DUP2 SUB PUSH0 DUP4 ADD MSTORE PUSH2 0x1175 DUP2 PUSH2 0x113C JUMP JUMPDEST SWAP1 POP SWAP2 SWAP1 POP JUMP JUMPDEST PUSH32 0x496E76616C6964206B6579206861736800000000000000000000000000000000 PUSH0 DUP3 ADD MSTORE POP JUMP JUMPDEST PUSH0 PUSH2 0x11B0 PUSH1 0x10 DUP4 PUSH2 0x1030 JUMP JUMPDEST SWAP2 POP PUSH2 0x11BB DUP3 PUSH2 0x117C JUMP JUMPDEST PUSH1 0x20 DUP3 ADD SWAP1 POP SWAP2 SWAP1 POP JUMP JUMPDEST PUSH0 PUSH1 0x20 DUP3 ADD SWAP1 POP DUP2 DUP2 SUB PUSH0 DUP4 ADD MSTORE PUSH2 0x11DD DUP2 PUSH2 0x11A4 JUMP JUMPDEST SWAP1 POP SWAP2 SWAP1 POP JUMP JUMPDEST PUSH32 0x496E76616C696420656E63727970746564206B65790000000000000000000000 PUSH0 DUP3 ADD MSTORE POP JUMP JUMPDEST PUSH0 PUSH2 0x1218 PUSH1 0x15 DUP4 PUSH2 0x1030 JUMP JUMPDEST SWAP2 POP PUSH2 0x1223 DUP3 PUSH2 0x11E4 JUMP JUMPDEST PUSH1 0x20 DUP3 ADD SWAP1 POP SWAP2 SWAP1 POP JUMP JUMPDEST PUSH0 PUSH1 0x20 DUP3 ADD SWAP1 POP DUP2 DUP2 SUB PUSH0 DUP4 ADD MSTORE PUSH2 0x1245 DUP2 PUSH2 0x120C JUMP JUMPDEST SWAP1 POP SWAP2 SWAP1 POP JUMP JUMPDEST PUSH32 0x4B657920616C7265616479206578697374730000000000000000000000000000 PUSH0 DUP3 ADD MSTORE POP JUMP JUMPDEST PUSH0 PUSH2 0x1280 PUSH1 0x12 DUP4 PUSH2 0x1030 JUMP JUMPDEST SWAP2 POP PUSH2 0x128B DUP3 PUSH2 0x124C JUMP JUMPDEST PUSH1 0x20 DUP3 ADD SWAP1 POP SWAP2 SWAP1 POP JUMP JUMPDEST PUSH0 PUSH1 0x20 DUP3 ADD SWAP1 POP DUP2 DUP2 SUB PUSH0 DUP4 ADD MSTORE PUSH2 0x12AD DUP2 PUSH2 0x1274 JUMP JUMPDEST SWAP1 POP SWAP2 SWAP1 POP JUMP JUMPDEST PUSH32 0x4E487B7100000000000000000000000000000000000000000000000000000000 PUSH0 MSTORE PUSH1 0x11 PUSH1 0x4 MSTORE PUSH1 0x24 PUSH0 REVERT JUMPDEST PUSH0 PUSH2 0x12EB DUP3 PUSH2 0xF2E JUMP JUMPDEST SWAP2 POP PUSH32 0xFFFFFFFFFFFFFFFFFFFFFFFFFFFFFFFFFFFFFFFFFFFFFFFFFFFFFFFFFFFFFFFF DUP3 SUB PUSH2 0x131D JUMPI PUSH2 0x131C PUSH2 0x12B4 JUMP JUMPDEST JUMPDEST PUSH1 0x1 DUP3 ADD SWAP1 POP SWAP2 SWAP1 POP JUMP JUMPDEST PUSH32 0x496E76616C6964206F6C64206B65790000000000000000000000000000000000 PUSH0 DUP3 ADD MSTORE POP JUMP JUMPDEST PUSH0 PUSH2 0x135C PUSH1 0xF DUP4 PUSH2 0x1030 JUMP JUMPDEST SWAP2 POP PUSH2 0x1367 DUP3 PUSH2 0x1328 JUMP JUMPDEST PUSH1 0x20 DUP3 ADD SWAP1 POP SWAP2 SWAP1 POP JUMP JUMPDEST PUSH0 PUSH1 0x20 DUP3 ADD SWAP1 POP DUP2 DUP2 SUB PUSH0 DUP4 ADD MSTORE PUSH2 0x1389 DUP2 PUSH2 0x1350 JUMP JUMPDEST SWAP1 POP SWAP2 SWAP1 POP JUMP JUMPDEST PUSH0 PUSH2 0x139A DUP3 PUSH2 0xF2E JUMP JUMPDEST SWAP2 POP PUSH2 0x13A5 DUP4 PUSH2 0xF2E JUMP JUMPDEST SWAP3 POP DUP3 DUP3 ADD SWAP1 POP DUP1 DUP3 GT ISZERO PUSH2 0x13BD JUMPI PUSH2 0x13BC PUSH2 0x12B4 JUMP JUMPDEST JUMPDEST SWAP3 SWAP2 POP POP JUMP JUMPDEST PUSH32 0x436F6F6C696E6720706572696F64206163746976650000000000000000000000 PUSH0 DUP3 ADD MSTORE POP JUMP JUMPDEST PUSH0 PUSH2 0x13F7 PUSH1 0x15 DUP4 PUSH2 0x1030 JUMP JUMPDEST SWAP2 POP PUSH2 0x1402 DUP3 PUSH2 0x13C3 JUMP JUMPDEST PUSH1 0x20 DUP3 ADD SWAP1 POP SWAP2 SWAP1 POP JUMP JUMPDEST PUSH0 PUSH1 0x20 DUP3 ADD SWAP1 POP DUP2 DUP2 SUB PUSH0 DUP4 ADD MSTORE PUSH2 0x1424 DUP2 PUSH2 0x13EB JUMP JUMPDEST SWAP1 POP SWAP2 SWAP1 POP JUMP JUMPDEST PUSH32 0x4E6577206B657920616C72656164792065786973747300000000000000000000 PUSH0 DUP3 ADD MSTORE POP JUMP JUMPDEST PUSH0 PUSH2 0x145F PUSH1 0x16 DUP4 PUSH2 0x1030 JUMP JUMPDEST SWAP2 POP PUSH2 0x146A DUP3 PUSH2 0x142B JUMP JUMPDEST PUSH1 0x20 DUP3 ADD SWAP1 POP SWAP2 SWAP1 POP JUMP JUMPDEST PUSH0 PUSH1 0x20 DUP3 ADD SWAP1 POP DUP2 DUP2 SUB PUSH0 DUP4 ADD MSTORE PUSH2 0x148C DUP2 PUSH2 0x1453 JUMP JUMPDEST SWAP1 POP SWAP2 SWAP1 POP JUMP JUMPDEST PUSH32 0x4B6579206E6F7420666F756E6400000000000000000000000000000000000000 PUSH0 DUP3 ADD MSTORE POP JUMP JUMPDEST PUSH0 PUSH2 0x14C7 PUSH1 0xD DUP4 PUSH2 0x1030 JUMP JUMPDEST SWAP2 POP PUSH2 0x14D2 DUP3 PUSH2 0x1493 JUMP JUMPDEST PUSH1 0x20 DUP3 ADD SWAP1 POP SWAP2 SWAP1 POP JUMP JUMPDEST PUSH0 PUSH1 0x20 DUP3 ADD SWAP1 POP DUP2 DUP2 SUB PUSH0 DUP4 ADD MSTORE PUSH2 0x14F4 DUP2 PUSH2 0x14BB JUMP JUMPDEST SWAP1 POP SWAP2 SWAP1 POP JUMP INVALID LOG2 PUSH5 0x6970667358 0x22 SLT KECCAK256 0xB3 0xBC PUSH24 0x6156A34C4B09BEFCC5E8BC2CEC2F086690B3FDC21D66D2D 0xCE SGT DUP8 MSIZE EXTCODECOPY PUSH5 0x736F6C6343 STOP ADDMOD BYTE STOP CALLER "
		},
		"gasEstimates": {
			"creation": {
				"codeDepositCost": "1085000",
				"executionCost": "infinite",
				"totalCost": "infinite"
			},
			"external": {
				"generateEncryptionKey(bytes32)": "infinite",
				"getEncryptionKey(bytes32)": "infinite",
				"owner()": "2581",
				"pause()": "infinite",
				"paused()": "2562",
				"renounceOwnership()": "infinite",
				"revokeEncryptionKey(bytes32,string)": "infinite",
				"rotateEncryptionKey(bytes32,bytes32,bytes32)": "infinite",
				"storeEncryptionKey(bytes32,bytes32)": "infinite",
				"transferOwnership(address)": "infinite",
				"unpause()": "infinite"
			}
		},
		"methodIdentifiers": {
			"generateEncryptionKey(bytes32)": "336b0c46",
			"getEncryptionKey(bytes32)": "a2036faf",
			"owner()": "8da5cb5b",
			"pause()": "8456cb59",
			"paused()": "5c975abb",
			"renounceOwnership()": "715018a6",
			"revokeEncryptionKey(bytes32,string)": "09b19353",
			"rotateEncryptionKey(bytes32,bytes32,bytes32)": "89fded2f",
			"storeEncryptionKey(bytes32,bytes32)": "437b347c",
			"transferOwnership(address)": "f2fde38b",
			"unpause()": "3f4ba83a"
		}
	},
	"abi": [
		{
			"inputs": [
				{
					"internalType": "address",
					"name": "initialOwner",
					"type": "address"
				}
			],
			"stateMutability": "nonpayable",
			"type": "constructor"
		},
		{
			"inputs": [],
			"name": "EnforcedPause",
			"type": "error"
		},
		{
			"inputs": [],
			"name": "ExpectedPause",
			"type": "error"
		},
		{
			"inputs": [
				{
					"internalType": "address",
					"name": "owner",
					"type": "address"
				}
			],
			"name": "OwnableInvalidOwner",
			"type": "error"
		},
		{
			"inputs": [
				{
					"internalType": "address",
					"name": "account",
					"type": "address"
				}
			],
			"name": "OwnableUnauthorizedAccount",
			"type": "error"
		},
		{
			"inputs": [],
			"name": "ReentrancyGuardReentrantCall",
			"type": "error"
		},
		{
			"anonymous": false,
			"inputs": [
				{
					"indexed": true,
					"internalType": "bytes32",
					"name": "keyHash",
					"type": "bytes32"
				},
				{
					"indexed": true,
					"internalType": "uint256",
					"name": "timestamp",
					"type": "uint256"
				},
				{
					"indexed": true,
					"internalType": "bytes32",
					"name": "publicPart",
					"type": "bytes32"
				}
			],
			"name": "EncryptionKeyGenerated",
			"type": "event"
		},
		{
			"anonymous": false,
			"inputs": [
				{
					"indexed": true,
					"internalType": "bytes32",
					"name": "keyHash",
					"type": "bytes32"
				},
				{
					"indexed": true,
					"internalType": "uint256",
					"name": "timestamp",
					"type": "uint256"
				},
				{
					"indexed": false,
					"internalType": "string",
					"name": "reason",
					"type": "string"
				}
			],
			"name": "EncryptionKeyRevoked",
			"type": "event"
		},
		{
			"anonymous": false,
			"inputs": [
				{
					"indexed": true,
					"internalType": "bytes32",
					"name": "oldKeyHash",
					"type": "bytes32"
				},
				{
					"indexed": true,
					"internalType": "bytes32",
					"name": "newKeyHash",
					"type": "bytes32"
				},
				{
					"indexed": true,
					"internalType": "uint256",
					"name": "timestamp",
					"type": "uint256"
				}
			],
			"name": "EncryptionKeyRotated",
			"type": "event"
		},
		{
			"anonymous": false,
			"inputs": [
				{
					"indexed": true,
					"internalType": "bytes32",
					"name": "keyHash",
					"type": "bytes32"
				},
				{
					"indexed": true,
					"internalType": "uint256",
					"name": "timestamp",
					"type": "uint256"
				}
			],
			"name": "EncryptionKeyStored",
			"type": "event"
		},
		{
			"anonymous": false,
			"inputs": [
				{
					"indexed": true,
					"internalType": "address",
					"name": "previousOwner",
					"type": "address"
				},
				{
					"indexed": true,
					"internalType": "address",
					"name": "newOwner",
					"type": "address"
				}
			],
			"name": "OwnershipTransferred",
			"type": "event"
		},
		{
			"anonymous": false,
			"inputs": [
				{
					"indexed": false,
					"internalType": "address",
					"name": "account",
					"type": "address"
				}
			],
			"name": "Paused",
			"type": "event"
		},
		{
			"anonymous": false,
			"inputs": [
				{
					"indexed": false,
					"internalType": "address",
					"name": "account",
					"type": "address"
				}
			],
			"name": "Unpaused",
			"type": "event"
		},
		{
			"inputs": [
				{
					"internalType": "bytes32",
					"name": "entropy",
					"type": "bytes32"
				}
			],
			"name": "generateEncryptionKey",
			"outputs": [
				{
					"internalType": "bytes32",
					"name": "keyHash",
					"type": "bytes32"
				},
				{
					"internalType": "bytes32",
					"name": "publicPart",
					"type": "bytes32"
				}
			],
			"stateMutability": "nonpayable",
			"type": "function"
		},
		{
			"inputs": [
				{
					"internalType": "bytes32",
					"name": "keyHash",
					"type": "bytes32"
				}
			],
			"name": "getEncryptionKey",
			"outputs": [
				{
					"internalType": "bytes32",
					"name": "encryptedKey",
					"type": "bytes32"
				},
				{
					"components": [
						{
							"internalType": "uint256",
							"name": "creationTime",
							"type": "uint256"
						},
						{
							"internalType": "uint256",
							"name": "lastRotationTime",
							"type": "uint256"
						},
						{
							"internalType": "uint8",
							"name": "status",
							"type": "uint8"
						},
						{
							"internalType": "uint256",
							"name": "useCount",
							"type": "uint256"
						}
					],
					"internalType": "struct EncryptionManager.KeyMetadata",
					"name": "metadata",
					"type": "tuple"
				}
			],
			"stateMutability": "view",
			"type": "function"
		},
		{
			"inputs": [],
			"name": "owner",
			"outputs": [
				{
					"internalType": "address",
					"name": "",
					"type": "address"
				}
			],
			"stateMutability": "view",
			"type": "function"
		},
		{
			"inputs": [],
			"name": "pause",
			"outputs": [],
			"stateMutability": "nonpayable",
			"type": "function"
		},
		{
			"inputs": [],
			"name": "paused",
			"outputs": [
				{
					"internalType": "bool",
					"name": "",
					"type": "bool"
				}
			],
			"stateMutability": "view",
			"type": "function"
		},
		{
			"inputs": [],
			"name": "renounceOwnership",
			"outputs": [],
			"stateMutability": "nonpayable",
			"type": "function"
		},
		{
			"inputs": [
				{
					"internalType": "bytes32",
					"name": "keyHash",
					"type": "bytes32"
				},
				{
					"internalType": "string",
					"name": "reason",
					"type": "string"
				}
			],
			"name": "revokeEncryptionKey",
			"outputs": [],
			"stateMutability": "nonpayable",
			"type": "function"
		},
		{
			"inputs": [
				{
					"internalType": "bytes32",
					"name": "oldKeyHash",
					"type": "bytes32"
				},
				{
					"internalType": "bytes32",
					"name": "newKeyHash",
					"type": "bytes32"
				},
				{
					"internalType": "bytes32",
					"name": "newEncryptedKey",
					"type": "bytes32"
				}
			],
			"name": "rotateEncryptionKey",
			"outputs": [],
			"stateMutability": "nonpayable",
			"type": "function"
		},
		{
			"inputs": [
				{
					"internalType": "bytes32",
					"name": "keyHash",
					"type": "bytes32"
				},
				{
					"internalType": "bytes32",
					"name": "encryptedKey",
					"type": "bytes32"
				}
			],
			"name": "storeEncryptionKey",
			"outputs": [],
			"stateMutability": "nonpayable",
			"type": "function"
		},
		{
			"inputs": [
				{
					"internalType": "address",
					"name": "newOwner",
					"type": "address"
				}
			],
			"name": "transferOwnership",
			"outputs": [],
			"stateMutability": "nonpayable",
			"type": "function"
		},
		{
			"inputs": [],
			"name": "unpause",
			"outputs": [],
			"stateMutability": "nonpayable",
			"type": "function"
		}
	]
}