{
	"data": {
		"bytecode": {
			"linkReferences": {},
			"object": "608060405234801561000f575f80fd5b50604051611b96380380611b96833981810160405281019061003191906103f4565b805f73ffffffffffffffffffffffffffffffffffffffff168173ffffffffffffffffffffffffffffffffffffffff16036100a2575f6040517f1e4fbdf70000000000000000000000000000000000000000000000000000000081526004016100999190610441565b60405180910390fd5b6100b18161020460201b60201c565b50600180819055505f60025f6101000a81548160ff0219169083151502179055505f73ffffffffffffffffffffffffffffffffffffffff168273ffffffffffffffffffffffffffffffffffffffff1603610140576040517f08c379a0000000000000000000000000000000000000000000000000000000008152600401610137906104b4565b60405180910390fd5b5f73ffffffffffffffffffffffffffffffffffffffff168173ffffffffffffffffffffffffffffffffffffffff16036101ae576040517f08c379a00000000000000000000000000000000000000000000000000000000081526004016101a59061051c565b60405180910390fd5b81600260016101000a81548173ffffffffffffffffffffffffffffffffffffffff021916908373ffffffffffffffffffffffffffffffffffffffff1602179055506101fd6102c560201b60201c565b505061053a565b5f805f9054906101000a900473ffffffffffffffffffffffffffffffffffffffff169050815f806101000a81548173ffffffffffffffffffffffffffffffffffffffff021916908373ffffffffffffffffffffffffffffffffffffffff1602179055508173ffffffffffffffffffffffffffffffffffffffff168173ffffffffffffffffffffffffffffffffffffffff167f8be0079c531659141344cd1fd0a4f28419497f9722a3daafe3b4186f6b6457e060405160405180910390a35050565b6102d361033360201b60201c565b600160025f6101000a81548160ff0219169083151502179055507f62e78cea01bee320cd4e420270b5ea74000d11b0c9f74754ebdbfc544b05a25861031c61037a60201b60201c565b6040516103299190610441565b60405180910390a1565b61034161038160201b60201c565b15610378576040517fd93c066500000000000000000000000000000000000000000000000000000000815260040160405180910390fd5b565b5f33905090565b5f60025f9054906101000a900460ff16905090565b5f80fd5b5f73ffffffffffffffffffffffffffffffffffffffff82169050919050565b5f6103c38261039a565b9050919050565b6103d3816103b9565b81146103dd575f80fd5b50565b5f815190506103ee816103ca565b92915050565b5f806040838503121561040a57610409610396565b5b5f610417858286016103e0565b9250506020610428858286016103e0565b9150509250929050565b61043b816103b9565b82525050565b5f6020820190506104545f830184610432565b92915050565b5f82825260208201905092915050565b7f496e76616c6964207665726966696572000000000000000000000000000000005f82015250565b5f61049e60108361045a565b91506104a98261046a565b602082019050919050565b5f6020820190508181035f8301526104cb81610492565b9050919050565b7f496e76616c6964206f776e6572000000000000000000000000000000000000005f82015250565b5f610506600d8361045a565b9150610511826104d2565b602082019050919050565b5f6020820190508181035f830152610533816104fa565b9050919050565b61164f806105475f395ff3fe608060405234801561000f575f80fd5b50600436106100cd575f3560e01c8063715018a61161008a57806397fc007c1161006457806397fc007c146101b3578063c8fea3a5146101cf578063cc3e12e8146101eb578063f2fde38b14610207576100cd565b8063715018a6146101815780638456cb591461018b5780638da5cb5b14610195576100cd565b806312425ebb146100d15780632b7ac3f3146100ed5780632c7f7d441461010b5780633f4ba83a1461013d578063451d577f146101475780635c975abb14610163575b5f80fd5b6100eb60048036038101906100e69190610dab565b610223565b005b6100f561033f565b6040516101029190610e50565b60405180910390f35b61012560048036038101906101209190610dab565b610365565b60405161013493929190610e9b565b60405180910390f35b6101456103b7565b005b610161600480360381019061015c9190610f16565b6103c9565b005b61016b61063b565b6040516101789190610f68565b60405180910390f35b610189610650565b005b610193610663565b005b61019d610675565b6040516101aa9190610fa1565b60405180910390f35b6101cd60048036038101906101c89190610fe4565b61069c565b005b6101e960048036038101906101e49190611039565b610870565b005b61020560048036038101906102009190610dab565b6108fc565b005b610221600480360381019061021c9190610fe4565b610a0e565b005b61022b610a92565b5f60055f8381526020019081526020015f205490505f8103610282576040517f08c379a0000000000000000000000000000000000000000000000000000000008152600401610279906110be565b60405180910390fd5b804210156102c5576040517f08c379a00000000000000000000000000000000000000000000000000000000081526004016102bc90611126565b60405180910390fd5b60035f8381526020019081526020015f205f6101000a81549060ff021916905560045f8381526020019081526020015f205f905560055f8381526020019081526020015f205f905542827f30325bca1b821e46f6842e91031cc7467a71e2a32f6eae9d8c97643b2484224f60405160405180910390a35050565b600260019054906101000a900473ffffffffffffffffffffffffffffffffffffffff1681565b5f805f60035f8581526020019081526020015f205f9054906101000a900460ff1660045f8681526020019081526020015f205460055f8781526020019081526020015f20549250925092509193909250565b6103bf610a92565b6103c7610b19565b565b6103d1610b7a565b6103d9610bc0565b5f801b830361041d576040517f08c379a00000000000000000000000000000000000000000000000000000000081526004016104149061118e565b60405180910390fd5b60035f8481526020019081526020015f205f9054906101000a900460ff161561047b576040517f08c379a0000000000000000000000000000000000000000000000000000000008152600401610472906111f6565b60405180910390fd5b603260065f4381526020019081526020015f2054106104cf576040517f08c379a00000000000000000000000000000000000000000000000000000000081526004016104c69061125e565b60405180910390fd5b5f6040516020600435015f5b60088110156104fd5760208102820135602082028401526001810190506104db565b5061010081018035610100840152602083610120856002545afa935083610522575f80fd5b82519350610140830160405250505080610571576040517f08c379a0000000000000000000000000000000000000000000000000000000008152600401610568906112c6565b60405180910390fd5b600160035f8681526020019081526020015f205f6101000a81548160ff0219169083151502179055504260045f8681526020019081526020015f208190555060065f4381526020019081526020015f205f8154809291906105d190611311565b919050555082826040516020016105e9929190611382565b6040516020818303038152906040528051906020012042857fde65674c1c2375ab60bcd32483919acfcb287d922682033b8f2d33047523a67b60405160405180910390a450610636610c01565b505050565b5f60025f9054906101000a900460ff16905090565b610658610a92565b6106615f610c0a565b565b61066b610a92565b610673610ccb565b565b5f805f9054906101000a900473ffffffffffffffffffffffffffffffffffffffff16905090565b6106a4610a92565b6106ac610d2d565b5f73ffffffffffffffffffffffffffffffffffffffff168173ffffffffffffffffffffffffffffffffffffffff160361071a576040517f08c379a0000000000000000000000000000000000000000000000000000000008152600401610711906113f5565b60405180910390fd5b600260019054906101000a900473ffffffffffffffffffffffffffffffffffffffff1673ffffffffffffffffffffffffffffffffffffffff168173ffffffffffffffffffffffffffffffffffffffff16036107aa576040517f08c379a00000000000000000000000000000000000000000000000000000000081526004016107a19061145d565b60405180910390fd5b5f600260019054906101000a900473ffffffffffffffffffffffffffffffffffffffff16905081600260016101000a81548173ffffffffffffffffffffffffffffffffffffffff021916908373ffffffffffffffffffffffffffffffffffffffff160217905550428273ffffffffffffffffffffffffffffffffffffffff168273ffffffffffffffffffffffffffffffffffffffff167fd64ae07f3ddea489022b7c3651c0b93cc96296695feac84461061dfa1f34c0cb60405160405180910390a45050565b5f81116108b2576040517f08c379a00000000000000000000000000000000000000000000000000000000081526004016108a9906114c5565b60405180910390fd5b5f81436108bf91906114e3565b90505f5b828110156108f75760065f82846108da91906114e3565b81526020019081526020015f205f905580806001019150506108c3565b505050565b610904610a92565b60035f8281526020019081526020015f205f9054906101000a900460ff16610961576040517f08c379a000000000000000000000000000000000000000000000000000000000815260040161095890611560565b60405180910390fd5b5f60055f8381526020019081526020015f2054146109b4576040517f08c379a00000000000000000000000000000000000000000000000000000000081526004016109ab906115c8565b60405180910390fd5b5f62015180426109c491906115e6565b90508060055f8481526020019081526020015f208190555080827fee80b1a0735bed32872bfffada24be24839f94ba87926a67333230186d8d6a5b60405160405180910390a35050565b610a16610a92565b5f73ffffffffffffffffffffffffffffffffffffffff168173ffffffffffffffffffffffffffffffffffffffff1603610a86575f6040517f1e4fbdf7000000000000000000000000000000000000000000000000000000008152600401610a7d9190610fa1565b60405180910390fd5b610a8f81610c0a565b50565b610a9a610d6d565b73ffffffffffffffffffffffffffffffffffffffff16610ab8610675565b73ffffffffffffffffffffffffffffffffffffffff1614610b1757610adb610d6d565b6040517f118cdaa7000000000000000000000000000000000000000000000000000000008152600401610b0e9190610fa1565b60405180910390fd5b565b610b21610d2d565b5f60025f6101000a81548160ff0219169083151502179055507f5db9ee0a495bf2e6ff9c91a7834c1ba4fdd244a5e8aa4e537bd38aeae4b073aa610b63610d6d565b604051610b709190610fa1565b60405180910390a1565b600260015403610bb6576040517f3ee5aeb500000000000000000000000000000000000000000000000000000000815260040160405180910390fd5b6002600181905550565b610bc861063b565b15610bff576040517fd93c066500000000000000000000000000000000000000000000000000000000815260040160405180910390fd5b565b60018081905550565b5f805f9054906101000a900473ffffffffffffffffffffffffffffffffffffffff169050815f806101000a81548173ffffffffffffffffffffffffffffffffffffffff021916908373ffffffffffffffffffffffffffffffffffffffff1602179055508173ffffffffffffffffffffffffffffffffffffffff168173ffffffffffffffffffffffffffffffffffffffff167f8be0079c531659141344cd1fd0a4f28419497f9722a3daafe3b4186f6b6457e060405160405180910390a35050565b610cd3610bc0565b600160025f6101000a81548160ff0219169083151502179055507f62e78cea01bee320cd4e420270b5ea74000d11b0c9f74754ebdbfc544b05a258610d16610d6d565b604051610d239190610fa1565b60405180910390a1565b610d3561063b565b610d6b576040517f8dfc202b00000000000000000000000000000000000000000000000000000000815260040160405180910390fd5b565b5f33905090565b5f80fd5b5f819050919050565b610d8a81610d78565b8114610d94575f80fd5b50565b5f81359050610da581610d81565b92915050565b5f60208284031215610dc057610dbf610d74565b5b5f610dcd84828501610d97565b91505092915050565b5f73ffffffffffffffffffffffffffffffffffffffff82169050919050565b5f819050919050565b5f610e18610e13610e0e84610dd6565b610df5565b610dd6565b9050919050565b5f610e2982610dfe565b9050919050565b5f610e3a82610e1f565b9050919050565b610e4a81610e30565b82525050565b5f602082019050610e635f830184610e41565b92915050565b5f8115159050919050565b610e7d81610e69565b82525050565b5f819050919050565b610e9581610e83565b82525050565b5f606082019050610eae5f830186610e74565b610ebb6020830185610e8c565b610ec86040830184610e8c565b949350505050565b5f80fd5b5f81905082602060080282011115610eef57610eee610ed0565b5b92915050565b5f81905082602060010282011115610f1057610f0f610ed0565b5b92915050565b5f805f6101408486031215610f2e57610f2d610d74565b5b5f610f3b86828701610d97565b9350506020610f4c86828701610ed4565b925050610120610f5e86828701610ef5565b9150509250925092565b5f602082019050610f7b5f830184610e74565b92915050565b5f610f8b82610dd6565b9050919050565b610f9b81610f81565b82525050565b5f602082019050610fb45f830184610f92565b92915050565b610fc381610f81565b8114610fcd575f80fd5b50565b5f81359050610fde81610fba565b92915050565b5f60208284031215610ff957610ff8610d74565b5b5f61100684828501610fd0565b91505092915050565b61101881610e83565b8114611022575f80fd5b50565b5f813590506110338161100f565b92915050565b5f6020828403121561104e5761104d610d74565b5b5f61105b84828501611025565b91505092915050565b5f82825260208201905092915050565b7f4e6f207265766f636174696f6e207265717565737465640000000000000000005f82015250565b5f6110a8601783611064565b91506110b382611074565b602082019050919050565b5f6020820190508181035f8301526110d58161109c565b9050919050565b7f54696d656c6f636b2061637469766500000000000000000000000000000000005f82015250565b5f611110600f83611064565b915061111b826110dc565b602082019050919050565b5f6020820190508181035f83015261113d81611104565b9050919050565b7f496e76616c6964204950206861736800000000000000000000000000000000005f82015250565b5f611178600f83611064565b915061118382611144565b602082019050919050565b5f6020820190508181035f8301526111a58161116c565b9050919050565b7f416c726561647920616e6f6e796d697a656400000000000000000000000000005f82015250565b5f6111e0601283611064565b91506111eb826111ac565b602082019050919050565b5f6020820190508181035f83015261120d816111d4565b9050919050565b7f52617465206c696d6974206578636565646564000000000000000000000000005f82015250565b5f611248601383611064565b915061125382611214565b602082019050919050565b5f6020820190508181035f8301526112758161123c565b9050919050565b7f496e76616c69642070726f6f66000000000000000000000000000000000000005f82015250565b5f6112b0600d83611064565b91506112bb8261127c565b602082019050919050565b5f6020820190508181035f8301526112dd816112a4565b9050919050565b7f4e487b71000000000000000000000000000000000000000000000000000000005f52601160045260245ffd5b5f61131b82610e83565b91507fffffffffffffffffffffffffffffffffffffffffffffffffffffffffffffffff820361134d5761134c6112e4565b5b600182019050919050565b82818337505050565b61136e6101008383611358565b5050565b61137e60208383611358565b5050565b5f610120820190506113965f830185611361565b6113a4610100830184611372565b9392505050565b7f496e76616c6964207665726966696572000000000000000000000000000000005f82015250565b5f6113df601083611064565b91506113ea826113ab565b602082019050919050565b5f6020820190508181035f83015261140c816113d3565b9050919050565b7f53616d65207665726966696572000000000000000000000000000000000000005f82015250565b5f611447600d83611064565b915061145282611413565b602082019050919050565b5f6020820190508181035f8301526114748161143b565b9050919050565b7f496e76616c696420626c6f636b20636f756e74000000000000000000000000005f82015250565b5f6114af601383611064565b91506114ba8261147b565b602082019050919050565b5f6020820190508181035f8301526114dc816114a3565b9050919050565b5f6114ed82610e83565b91506114f883610e83565b92508282039050818111156115105761150f6112e4565b5b92915050565b7f4e6f7420616e6f6e796d697a65640000000000000000000000000000000000005f82015250565b5f61154a600e83611064565b915061155582611516565b602082019050919050565b5f6020820190508181035f8301526115778161153e565b9050919050565b7f5265766f636174696f6e2070656e64696e6700000000000000000000000000005f82015250565b5f6115b2601283611064565b91506115bd8261157e565b602082019050919050565b5f6020820190508181035f8301526115df816115a6565b9050919050565b5f6115f082610e83565b91506115fb83610e83565b9250828201905080821115611613576116126112e4565b5b9291505056fea2646970667358221220aa47070a38ba1bfb49e1088822ccd2098d3f1ddbe2ae5a0a8658425eb43e9d4264736f6c634300081a0033",
			"opcodes": "PUSH1 0x80 PUSH1 0x40 MSTORE CALLVALUE DUP1 ISZERO PUSH2 0xF JUMPI PUSH0 DUP1 REVERT JUMPDEST POP PUSH1 0x40 MLOAD PUSH2 0x1B96 CODESIZE SUB DUP1 PUSH2 0x1B96 DUP4 CODECOPY DUP2 DUP2 ADD PUSH1 0x40 MSTORE DUP2 ADD SWAP1 PUSH2 0x31 SWAP2 SWAP1 PUSH2 0x3F4 JUMP JUMPDEST DUP1 PUSH0 PUSH20 0xFFFFFFFFFFFFFFFFFFFFFFFFFFFFFFFFFFFFFFFF AND DUP2 PUSH20 0xFFFFFFFFFFFFFFFFFFFFFFFFFFFFFFFFFFFFFFFF AND SUB PUSH2 0xA2 JUMPI PUSH0 PUSH1 0x40 MLOAD PUSH32 0x1E4FBDF700000000000000000000000000000000000000000000000000000000 DUP2 MSTORE PUSH1 0x4 ADD PUSH2 0x99 SWAP2 SWAP1 PUSH2 0x441 JUMP JUMPDEST PUSH1 0x40 MLOAD DUP1 SWAP2 SUB SWAP1 REVERT JUMPDEST PUSH2 0xB1 DUP2 PUSH2 0x204 PUSH1 0x20 SHL PUSH1 0x20 SHR JUMP JUMPDEST POP PUSH1 0x1 DUP1 DUP2 SWAP1 SSTORE POP PUSH0 PUSH1 0x2 PUSH0 PUSH2 0x100 EXP DUP2 SLOAD DUP2 PUSH1 0xFF MUL NOT AND SWAP1 DUP4 ISZERO ISZERO MUL OR SWAP1 SSTORE POP PUSH0 PUSH20 0xFFFFFFFFFFFFFFFFFFFFFFFFFFFFFFFFFFFFFFFF AND DUP3 PUSH20 0xFFFFFFFFFFFFFFFFFFFFFFFFFFFFFFFFFFFFFFFF AND SUB PUSH2 0x140 JUMPI PUSH1 0x40 MLOAD PUSH32 0x8C379A000000000000000000000000000000000000000000000000000000000 DUP2 MSTORE PUSH1 0x4 ADD PUSH2 0x137 SWAP1 PUSH2 0x4B4 JUMP JUMPDEST PUSH1 0x40 MLOAD DUP1 SWAP2 SUB SWAP1 REVERT JUMPDEST PUSH0 PUSH20 0xFFFFFFFFFFFFFFFFFFFFFFFFFFFFFFFFFFFFFFFF AND DUP2 PUSH20 0xFFFFFFFFFFFFFFFFFFFFFFFFFFFFFFFFFFFFFFFF AND SUB PUSH2 0x1AE JUMPI PUSH1 0x40 MLOAD PUSH32 0x8C379A000000000000000000000000000000000000000000000000000000000 DUP2 MSTORE PUSH1 0x4 ADD PUSH2 0x1A5 SWAP1 PUSH2 0x51C JUMP JUMPDEST PUSH1 0x40 MLOAD DUP1 SWAP2 SUB SWAP1 REVERT JUMPDEST DUP2 PUSH1 0x2 PUSH1 0x1 PUSH2 0x100 EXP DUP2 SLOAD DUP2 PUSH20 0xFFFFFFFFFFFFFFFFFFFFFFFFFFFFFFFFFFFFFFFF MUL NOT AND SWAP1 DUP4 PUSH20 0xFFFFFFFFFFFFFFFFFFFFFFFFFFFFFFFFFFFFFFFF AND MUL OR SWAP1 SSTORE POP PUSH2 0x1FD PUSH2 0x2C5 PUSH1 0x20 SHL PUSH1 0x20 SHR JUMP JUMPDEST POP POP PUSH2 0x53A JUMP JUMPDEST PUSH0 DUP1 PUSH0 SWAP1 SLOAD SWAP1 PUSH2 0x100 EXP SWAP1 DIV PUSH20 0xFFFFFFFFFFFFFFFFFFFFFFFFFFFFFFFFFFFFFFFF AND SWAP1 POP DUP2 PUSH0 DUP1 PUSH2 0x100 EXP DUP2 SLOAD DUP2 PUSH20 0xFFFFFFFFFFFFFFFFFFFFFFFFFFFFFFFFFFFFFFFF MUL NOT AND SWAP1 DUP4 PUSH20 0xFFFFFFFFFFFFFFFFFFFFFFFFFFFFFFFFFFFFFFFF AND MUL OR SWAP1 SSTORE POP DUP2 PUSH20 0xFFFFFFFFFFFFFFFFFFFFFFFFFFFFFFFFFFFFFFFF AND DUP2 PUSH20 0xFFFFFFFFFFFFFFFFFFFFFFFFFFFFFFFFFFFFFFFF AND PUSH32 0x8BE0079C531659141344CD1FD0A4F28419497F9722A3DAAFE3B4186F6B6457E0 PUSH1 0x40 MLOAD PUSH1 0x40 MLOAD DUP1 SWAP2 SUB SWAP1 LOG3 POP POP JUMP JUMPDEST PUSH2 0x2D3 PUSH2 0x333 PUSH1 0x20 SHL PUSH1 0x20 SHR JUMP JUMPDEST PUSH1 0x1 PUSH1 0x2 PUSH0 PUSH2 0x100 EXP DUP2 SLOAD DUP2 PUSH1 0xFF MUL NOT AND SWAP1 DUP4 ISZERO ISZERO MUL OR SWAP1 SSTORE POP PUSH32 0x62E78CEA01BEE320CD4E420270B5EA74000D11B0C9F74754EBDBFC544B05A258 PUSH2 0x31C PUSH2 0x37A PUSH1 0x20 SHL PUSH1 0x20 SHR JUMP JUMPDEST PUSH1 0x40 MLOAD PUSH2 0x329 SWAP2 SWAP1 PUSH2 0x441 JUMP JUMPDEST PUSH1 0x40 MLOAD DUP1 SWAP2 SUB SWAP1 LOG1 JUMP JUMPDEST PUSH2 0x341 PUSH2 0x381 PUSH1 0x20 SHL PUSH1 0x20 SHR JUMP JUMPDEST ISZERO PUSH2 0x378 JUMPI PUSH1 0x40 MLOAD PUSH32 0xD93C066500000000000000000000000000000000000000000000000000000000 DUP2 MSTORE PUSH1 0x4 ADD PUSH1 0x40 MLOAD DUP1 SWAP2 SUB SWAP1 REVERT JUMPDEST JUMP JUMPDEST PUSH0 CALLER SWAP1 POP SWAP1 JUMP JUMPDEST PUSH0 PUSH1 0x2 PUSH0 SWAP1 SLOAD SWAP1 PUSH2 0x100 EXP SWAP1 DIV PUSH1 0xFF AND SWAP1 POP SWAP1 JUMP JUMPDEST PUSH0 DUP1 REVERT JUMPDEST PUSH0 PUSH20 0xFFFFFFFFFFFFFFFFFFFFFFFFFFFFFFFFFFFFFFFF DUP3 AND SWAP1 POP SWAP2 SWAP1 POP JUMP JUMPDEST PUSH0 PUSH2 0x3C3 DUP3 PUSH2 0x39A JUMP JUMPDEST SWAP1 POP SWAP2 SWAP1 POP JUMP JUMPDEST PUSH2 0x3D3 DUP2 PUSH2 0x3B9 JUMP JUMPDEST DUP2 EQ PUSH2 0x3DD JUMPI PUSH0 DUP1 REVERT JUMPDEST POP JUMP JUMPDEST PUSH0 DUP2 MLOAD SWAP1 POP PUSH2 0x3EE DUP2 PUSH2 0x3CA JUMP JUMPDEST SWAP3 SWAP2 POP POP JUMP JUMPDEST PUSH0 DUP1 PUSH1 0x40 DUP4 DUP6 SUB SLT ISZERO PUSH2 0x40A JUMPI PUSH2 0x409 PUSH2 0x396 JUMP JUMPDEST JUMPDEST PUSH0 PUSH2 0x417 DUP6 DUP3 DUP7 ADD PUSH2 0x3E0 JUMP JUMPDEST SWAP3 POP POP PUSH1 0x20 PUSH2 0x428 DUP6 DUP3 DUP7 ADD PUSH2 0x3E0 JUMP JUMPDEST SWAP2 POP POP SWAP3 POP SWAP3 SWAP1 POP JUMP JUMPDEST PUSH2 0x43B DUP2 PUSH2 0x3B9 JUMP JUMPDEST DUP3 MSTORE POP POP JUMP JUMPDEST PUSH0 PUSH1 0x20 DUP3 ADD SWAP1 POP PUSH2 0x454 PUSH0 DUP4 ADD DUP5 PUSH2 0x432 JUMP JUMPDEST SWAP3 SWAP2 POP POP JUMP JUMPDEST PUSH0 DUP3 DUP3 MSTORE PUSH1 0x20 DUP3 ADD SWAP1 POP SWAP3 SWAP2 POP POP JUMP JUMPDEST PUSH32 0x496E76616C696420766572696669657200000000000000000000000000000000 PUSH0 DUP3 ADD MSTORE POP JUMP JUMPDEST PUSH0 PUSH2 0x49E PUSH1 0x10 DUP4 PUSH2 0x45A JUMP JUMPDEST SWAP2 POP PUSH2 0x4A9 DUP3 PUSH2 0x46A JUMP JUMPDEST PUSH1 0x20 DUP3 ADD SWAP1 POP SWAP2 SWAP1 POP JUMP JUMPDEST PUSH0 PUSH1 0x20 DUP3 ADD SWAP1 POP DUP2 DUP2 SUB PUSH0 DUP4 ADD MSTORE PUSH2 0x4CB DUP2 PUSH2 0x492 JUMP JUMPDEST SWAP1 POP SWAP2 SWAP1 POP JUMP JUMPDEST PUSH32 0x496E76616C6964206F776E657200000000000000000000000000000000000000 PUSH0 DUP3 ADD MSTORE POP JUMP JUMPDEST PUSH0 PUSH2 0x506 PUSH1 0xD DUP4 PUSH2 0x45A JUMP JUMPDEST SWAP2 POP PUSH2 0x511 DUP3 PUSH2 0x4D2 JUMP JUMPDEST PUSH1 0x20 DUP3 ADD SWAP1 POP SWAP2 SWAP1 POP JUMP JUMPDEST PUSH0 PUSH1 0x20 DUP3 ADD SWAP1 POP DUP2 DUP2 SUB PUSH0 DUP4 ADD MSTORE PUSH2 0x533 DUP2 PUSH2 0x4FA JUMP JUMPDEST SWAP1 POP SWAP2 SWAP1 POP JUMP JUMPDEST PUSH2 0x164F DUP1 PUSH2 0x547 PUSH0 CODECOPY PUSH0 RETURN INVALID PUSH1 0x80 PUSH1 0x40 MSTORE CALLVALUE DUP1 ISZERO PUSH2 0xF JUMPI PUSH0 DUP1 REVERT JUMPDEST POP PUSH1 0x4 CALLDATASIZE LT PUSH2 0xCD JUMPI PUSH0 CALLDATALOAD PUSH1 0xE0 SHR DUP1 PUSH4 0x715018A6 GT PUSH2 0x8A JUMPI DUP1 PUSH4 0x97FC007C GT PUSH2 0x64 JUMPI DUP1 PUSH4 0x97FC007C EQ PUSH2 0x1B3 JUMPI DUP1 PUSH4 0xC8FEA3A5 EQ PUSH2 0x1CF JUMPI DUP1 PUSH4 0xCC3E12E8 EQ PUSH2 0x1EB JUMPI DUP1 PUSH4 0xF2FDE38B EQ PUSH2 0x207 JUMPI PUSH2 0xCD JUMP JUMPDEST DUP1 PUSH4 0x715018A6 EQ PUSH2 0x181 JUMPI DUP1 PUSH4 0x8456CB59 EQ PUSH2 0x18B JUMPI DUP1 PUSH4 0x8DA5CB5B EQ PUSH2 0x195 JUMPI PUSH2 0xCD JUMP JUMPDEST DUP1 PUSH4 0x12425EBB EQ PUSH2 0xD1 JUMPI DUP1 PUSH4 0x2B7AC3F3 EQ PUSH2 0xED JUMPI DUP1 PUSH4 0x2C7F7D44 EQ PUSH2 0x10B JUMPI DUP1 PUSH4 0x3F4BA83A EQ PUSH2 0x13D JUMPI DUP1 PUSH4 0x451D577F EQ PUSH2 0x147 JUMPI DUP1 PUSH4 0x5C975ABB EQ PUSH2 0x163 JUMPI JUMPDEST PUSH0 DUP1 REVERT JUMPDEST PUSH2 0xEB PUSH1 0x4 DUP1 CALLDATASIZE SUB DUP2 ADD SWAP1 PUSH2 0xE6 SWAP2 SWAP1 PUSH2 0xDAB JUMP JUMPDEST PUSH2 0x223 JUMP JUMPDEST STOP JUMPDEST PUSH2 0xF5 PUSH2 0x33F JUMP JUMPDEST PUSH1 0x40 MLOAD PUSH2 0x102 SWAP2 SWAP1 PUSH2 0xE50 JUMP JUMPDEST PUSH1 0x40 MLOAD DUP1 SWAP2 SUB SWAP1 RETURN JUMPDEST PUSH2 0x125 PUSH1 0x4 DUP1 CALLDATASIZE SUB DUP2 ADD SWAP1 PUSH2 0x120 SWAP2 SWAP1 PUSH2 0xDAB JUMP JUMPDEST PUSH2 0x365 JUMP JUMPDEST PUSH1 0x40 MLOAD PUSH2 0x134 SWAP4 SWAP3 SWAP2 SWAP1 PUSH2 0xE9B JUMP JUMPDEST PUSH1 0x40 MLOAD DUP1 SWAP2 SUB SWAP1 RETURN JUMPDEST PUSH2 0x145 PUSH2 0x3B7 JUMP JUMPDEST STOP JUMPDEST PUSH2 0x161 PUSH1 0x4 DUP1 CALLDATASIZE SUB DUP2 ADD SWAP1 PUSH2 0x15C SWAP2 SWAP1 PUSH2 0xF16 JUMP JUMPDEST PUSH2 0x3C9 JUMP JUMPDEST STOP JUMPDEST PUSH2 0x16B PUSH2 0x63B JUMP JUMPDEST PUSH1 0x40 MLOAD PUSH2 0x178 SWAP2 SWAP1 PUSH2 0xF68 JUMP JUMPDEST PUSH1 0x40 MLOAD DUP1 SWAP2 SUB SWAP1 RETURN JUMPDEST PUSH2 0x189 PUSH2 0x650 JUMP JUMPDEST STOP JUMPDEST PUSH2 0x193 PUSH2 0x663 JUMP JUMPDEST STOP JUMPDEST PUSH2 0x19D PUSH2 0x675 JUMP JUMPDEST PUSH1 0x40 MLOAD PUSH2 0x1AA SWAP2 SWAP1 PUSH2 0xFA1 JUMP JUMPDEST PUSH1 0x40 MLOAD DUP1 SWAP2 SUB SWAP1 RETURN JUMPDEST PUSH2 0x1CD PUSH1 0x4 DUP1 CALLDATASIZE SUB DUP2 ADD SWAP1 PUSH2 0x1C8 SWAP2 SWAP1 PUSH2 0xFE4 JUMP JUMPDEST PUSH2 0x69C JUMP JUMPDEST STOP JUMPDEST PUSH2 0x1E9 PUSH1 0x4 DUP1 CALLDATASIZE SUB DUP2 ADD SWAP1 PUSH2 0x1E4 SWAP2 SWAP1 PUSH2 0x1039 JUMP JUMPDEST PUSH2 0x870 JUMP JUMPDEST STOP JUMPDEST PUSH2 0x205 PUSH1 0x4 DUP1 CALLDATASIZE SUB DUP2 ADD SWAP1 PUSH2 0x200 SWAP2 SWAP1 PUSH2 0xDAB JUMP JUMPDEST PUSH2 0x8FC JUMP JUMPDEST STOP JUMPDEST PUSH2 0x221 PUSH1 0x4 DUP1 CALLDATASIZE SUB DUP2 ADD SWAP1 PUSH2 0x21C SWAP2 SWAP1 PUSH2 0xFE4 JUMP JUMPDEST PUSH2 0xA0E JUMP JUMPDEST STOP JUMPDEST PUSH2 0x22B PUSH2 0xA92 JUMP JUMPDEST PUSH0 PUSH1 0x5 PUSH0 DUP4 DUP2 MSTORE PUSH1 0x20 ADD SWAP1 DUP2 MSTORE PUSH1 0x20 ADD PUSH0 KECCAK256 SLOAD SWAP1 POP PUSH0 DUP2 SUB PUSH2 0x282 JUMPI PUSH1 0x40 MLOAD PUSH32 0x8C379A000000000000000000000000000000000000000000000000000000000 DUP2 MSTORE PUSH1 0x4 ADD PUSH2 0x279 SWAP1 PUSH2 0x10BE JUMP JUMPDEST PUSH1 0x40 MLOAD DUP1 SWAP2 SUB SWAP1 REVERT JUMPDEST DUP1 TIMESTAMP LT ISZERO PUSH2 0x2C5 JUMPI PUSH1 0x40 MLOAD PUSH32 0x8C379A000000000000000000000000000000000000000000000000000000000 DUP2 MSTORE PUSH1 0x4 ADD PUSH2 0x2BC SWAP1 PUSH2 0x1126 JUMP JUMPDEST PUSH1 0x40 MLOAD DUP1 SWAP2 SUB SWAP1 REVERT JUMPDEST PUSH1 0x3 PUSH0 DUP4 DUP2 MSTORE PUSH1 0x20 ADD SWAP1 DUP2 MSTORE PUSH1 0x20 ADD PUSH0 KECCAK256 PUSH0 PUSH2 0x100 EXP DUP2 SLOAD SWAP1 PUSH1 0xFF MUL NOT AND SWAP1 SSTORE PUSH1 0x4 PUSH0 DUP4 DUP2 MSTORE PUSH1 0x20 ADD SWAP1 DUP2 MSTORE PUSH1 0x20 ADD PUSH0 KECCAK256 PUSH0 SWAP1 SSTORE PUSH1 0x5 PUSH0 DUP4 DUP2 MSTORE PUSH1 0x20 ADD SWAP1 DUP2 MSTORE PUSH1 0x20 ADD PUSH0 KECCAK256 PUSH0 SWAP1 SSTORE TIMESTAMP DUP3 PUSH32 0x30325BCA1B821E46F6842E91031CC7467A71E2A32F6EAE9D8C97643B2484224F PUSH1 0x40 MLOAD PUSH1 0x40 MLOAD DUP1 SWAP2 SUB SWAP1 LOG3 POP POP JUMP JUMPDEST PUSH1 0x2 PUSH1 0x1 SWAP1 SLOAD SWAP1 PUSH2 0x100 EXP SWAP1 DIV PUSH20 0xFFFFFFFFFFFFFFFFFFFFFFFFFFFFFFFFFFFFFFFF AND DUP2 JUMP JUMPDEST PUSH0 DUP1 PUSH0 PUSH1 0x3 PUSH0 DUP6 DUP2 MSTORE PUSH1 0x20 ADD SWAP1 DUP2 MSTORE PUSH1 0x20 ADD PUSH0 KECCAK256 PUSH0 SWAP1 SLOAD SWAP1 PUSH2 0x100 EXP SWAP1 DIV PUSH1 0xFF AND PUSH1 0x4 PUSH0 DUP7 DUP2 MSTORE PUSH1 0x20 ADD SWAP1 DUP2 MSTORE PUSH1 0x20 ADD PUSH0 KECCAK256 SLOAD PUSH1 0x5 PUSH0 DUP8 DUP2 MSTORE PUSH1 0x20 ADD SWAP1 DUP2 MSTORE PUSH1 0x20 ADD PUSH0 KECCAK256 SLOAD SWAP3 POP SWAP3 POP SWAP3 POP SWAP2 SWAP4 SWAP1 SWAP3 POP JUMP JUMPDEST PUSH2 0x3BF PUSH2 0xA92 JUMP JUMPDEST PUSH2 0x3C7 PUSH2 0xB19 JUMP JUMPDEST JUMP JUMPDEST PUSH2 0x3D1 PUSH2 0xB7A JUMP JUMPDEST PUSH2 0x3D9 PUSH2 0xBC0 JUMP JUMPDEST PUSH0 DUP1 SHL DUP4 SUB PUSH2 0x41D JUMPI PUSH1 0x40 MLOAD PUSH32 0x8C379A000000000000000000000000000000000000000000000000000000000 DUP2 MSTORE PUSH1 0x4 ADD PUSH2 0x414 SWAP1 PUSH2 0x118E JUMP JUMPDEST PUSH1 0x40 MLOAD DUP1 SWAP2 SUB SWAP1 REVERT JUMPDEST PUSH1 0x3 PUSH0 DUP5 DUP2 MSTORE PUSH1 0x20 ADD SWAP1 DUP2 MSTORE PUSH1 0x20 ADD PUSH0 KECCAK256 PUSH0 SWAP1 SLOAD SWAP1 PUSH2 0x100 EXP SWAP1 DIV PUSH1 0xFF AND ISZERO PUSH2 0x47B JUMPI PUSH1 0x40 MLOAD PUSH32 0x8C379A000000000000000000000000000000000000000000000000000000000 DUP2 MSTORE PUSH1 0x4 ADD PUSH2 0x472 SWAP1 PUSH2 0x11F6 JUMP JUMPDEST PUSH1 0x40 MLOAD DUP1 SWAP2 SUB SWAP1 REVERT JUMPDEST PUSH1 0x32 PUSH1 0x6 PUSH0 NUMBER DUP2 MSTORE PUSH1 0x20 ADD SWAP1 DUP2 MSTORE PUSH1 0x20 ADD PUSH0 KECCAK256 SLOAD LT PUSH2 0x4CF JUMPI PUSH1 0x40 MLOAD PUSH32 0x8C379A000000000000000000000000000000000000000000000000000000000 DUP2 MSTORE PUSH1 0x4 ADD PUSH2 0x4C6 SWAP1 PUSH2 0x125E JUMP JUMPDEST PUSH1 0x40 MLOAD DUP1 SWAP2 SUB SWAP1 REVERT JUMPDEST PUSH0 PUSH1 0x40 MLOAD PUSH1 0x20 PUSH1 0x4 CALLDATALOAD ADD PUSH0 JUMPDEST PUSH1 0x8 DUP2 LT ISZERO PUSH2 0x4FD JUMPI PUSH1 0x20 DUP2 MUL DUP3 ADD CALLDATALOAD PUSH1 0x20 DUP3 MUL DUP5 ADD MSTORE PUSH1 0x1 DUP2 ADD SWAP1 POP PUSH2 0x4DB JUMP JUMPDEST POP PUSH2 0x100 DUP2 ADD DUP1 CALLDATALOAD PUSH2 0x100 DUP5 ADD MSTORE PUSH1 0x20 DUP4 PUSH2 0x120 DUP6 PUSH1 0x2 SLOAD GAS STATICCALL SWAP4 POP DUP4 PUSH2 0x522 JUMPI PUSH0 DUP1 REVERT JUMPDEST DUP3 MLOAD SWAP4 POP PUSH2 0x140 DUP4 ADD PUSH1 0x40 MSTORE POP POP POP DUP1 PUSH2 0x571 JUMPI PUSH1 0x40 MLOAD PUSH32 0x8C379A000000000000000000000000000000000000000000000000000000000 DUP2 MSTORE PUSH1 0x4 ADD PUSH2 0x568 SWAP1 PUSH2 0x12C6 JUMP JUMPDEST PUSH1 0x40 MLOAD DUP1 SWAP2 SUB SWAP1 REVERT JUMPDEST PUSH1 0x1 PUSH1 0x3 PUSH0 DUP7 DUP2 MSTORE PUSH1 0x20 ADD SWAP1 DUP2 MSTORE PUSH1 0x20 ADD PUSH0 KECCAK256 PUSH0 PUSH2 0x100 EXP DUP2 SLOAD DUP2 PUSH1 0xFF MUL NOT AND SWAP1 DUP4 ISZERO ISZERO MUL OR SWAP1 SSTORE POP TIMESTAMP PUSH1 0x4 PUSH0 DUP7 DUP2 MSTORE PUSH1 0x20 ADD SWAP1 DUP2 MSTORE PUSH1 0x20 ADD PUSH0 KECCAK256 DUP2 SWAP1 SSTORE POP PUSH1 0x6 PUSH0 NUMBER DUP2 MSTORE PUSH1 0x20 ADD SWAP1 DUP2 MSTORE PUSH1 0x20 ADD PUSH0 KECCAK256 PUSH0 DUP2 SLOAD DUP1 SWAP3 SWAP2 SWAP1 PUSH2 0x5D1 SWAP1 PUSH2 0x1311 JUMP JUMPDEST SWAP2 SWAP1 POP SSTORE POP DUP3 DUP3 PUSH1 0x40 MLOAD PUSH1 0x20 ADD PUSH2 0x5E9 SWAP3 SWAP2 SWAP1 PUSH2 0x1382 JUMP JUMPDEST PUSH1 0x40 MLOAD PUSH1 0x20 DUP2 DUP4 SUB SUB DUP2 MSTORE SWAP1 PUSH1 0x40 MSTORE DUP1 MLOAD SWAP1 PUSH1 0x20 ADD KECCAK256 TIMESTAMP DUP6 PUSH32 0xDE65674C1C2375AB60BCD32483919ACFCB287D922682033B8F2D33047523A67B PUSH1 0x40 MLOAD PUSH1 0x40 MLOAD DUP1 SWAP2 SUB SWAP1 LOG4 POP PUSH2 0x636 PUSH2 0xC01 JUMP JUMPDEST POP POP POP JUMP JUMPDEST PUSH0 PUSH1 0x2 PUSH0 SWAP1 SLOAD SWAP1 PUSH2 0x100 EXP SWAP1 DIV PUSH1 0xFF AND SWAP1 POP SWAP1 JUMP JUMPDEST PUSH2 0x658 PUSH2 0xA92 JUMP JUMPDEST PUSH2 0x661 PUSH0 PUSH2 0xC0A JUMP JUMPDEST JUMP JUMPDEST PUSH2 0x66B PUSH2 0xA92 JUMP JUMPDEST PUSH2 0x673 PUSH2 0xCCB JUMP JUMPDEST JUMP JUMPDEST PUSH0 DUP1 PUSH0 SWAP1 SLOAD SWAP1 PUSH2 0x100 EXP SWAP1 DIV PUSH20 0xFFFFFFFFFFFFFFFFFFFFFFFFFFFFFFFFFFFFFFFF AND SWAP1 POP SWAP1 JUMP JUMPDEST PUSH2 0x6A4 PUSH2 0xA92 JUMP JUMPDEST PUSH2 0x6AC PUSH2 0xD2D JUMP JUMPDEST PUSH0 PUSH20 0xFFFFFFFFFFFFFFFFFFFFFFFFFFFFFFFFFFFFFFFF AND DUP2 PUSH20 0xFFFFFFFFFFFFFFFFFFFFFFFFFFFFFFFFFFFFFFFF AND SUB PUSH2 0x71A JUMPI PUSH1 0x40 MLOAD PUSH32 0x8C379A000000000000000000000000000000000000000000000000000000000 DUP2 MSTORE PUSH1 0x4 ADD PUSH2 0x711 SWAP1 PUSH2 0x13F5 JUMP JUMPDEST PUSH1 0x40 MLOAD DUP1 SWAP2 SUB SWAP1 REVERT JUMPDEST PUSH1 0x2 PUSH1 0x1 SWAP1 SLOAD SWAP1 PUSH2 0x100 EXP SWAP1 DIV PUSH20 0xFFFFFFFFFFFFFFFFFFFFFFFFFFFFFFFFFFFFFFFF AND PUSH20 0xFFFFFFFFFFFFFFFFFFFFFFFFFFFFFFFFFFFFFFFF AND DUP2 PUSH20 0xFFFFFFFFFFFFFFFFFFFFFFFFFFFFFFFFFFFFFFFF AND SUB PUSH2 0x7AA JUMPI PUSH1 0x40 MLOAD PUSH32 0x8C379A000000000000000000000000000000000000000000000000000000000 DUP2 MSTORE PUSH1 0x4 ADD PUSH2 0x7A1 SWAP1 PUSH2 0x145D JUMP JUMPDEST PUSH1 0x40 MLOAD DUP1 SWAP2 SUB SWAP1 REVERT JUMPDEST PUSH0 PUSH1 0x2 PUSH1 0x1 SWAP1 SLOAD SWAP1 PUSH2 0x100 EXP SWAP1 DIV PUSH20 0xFFFFFFFFFFFFFFFFFFFFFFFFFFFFFFFFFFFFFFFF AND SWAP1 POP DUP2 PUSH1 0x2 PUSH1 0x1 PUSH2 0x100 EXP DUP2 SLOAD DUP2 PUSH20 0xFFFFFFFFFFFFFFFFFFFFFFFFFFFFFFFFFFFFFFFF MUL NOT AND SWAP1 DUP4 PUSH20 0xFFFFFFFFFFFFFFFFFFFFFFFFFFFFFFFFFFFFFFFF AND MUL OR SWAP1 SSTORE POP TIMESTAMP DUP3 PUSH20 0xFFFFFFFFFFFFFFFFFFFFFFFFFFFFFFFFFFFFFFFF AND DUP3 PUSH20 0xFFFFFFFFFFFFFFFFFFFFFFFFFFFFFFFFFFFFFFFF AND PUSH32 0xD64AE07F3DDEA489022B7C3651C0B93CC96296695FEAC84461061DFA1F34C0CB PUSH1 0x40 MLOAD PUSH1 0x40 MLOAD DUP1 SWAP2 SUB SWAP1 LOG4 POP POP JUMP JUMPDEST PUSH0 DUP2 GT PUSH2 0x8B2 JUMPI PUSH1 0x40 MLOAD PUSH32 0x8C379A000000000000000000000000000000000000000000000000000000000 DUP2 MSTORE PUSH1 0x4 ADD PUSH2 0x8A9 SWAP1 PUSH2 0x14C5 JUMP JUMPDEST PUSH1 0x40 MLOAD DUP1 SWAP2 SUB SWAP1 REVERT JUMPDEST PUSH0 DUP2 NUMBER PUSH2 0x8BF SWAP2 SWAP1 PUSH2 0x14E3 JUMP JUMPDEST SWAP1 POP PUSH0 JUMPDEST DUP3 DUP2 LT ISZERO PUSH2 0x8F7 JUMPI PUSH1 0x6 PUSH0 DUP3 DUP5 PUSH2 0x8DA SWAP2 SWAP1 PUSH2 0x14E3 JUMP JUMPDEST DUP2 MSTORE PUSH1 0x20 ADD SWAP1 DUP2 MSTORE PUSH1 0x20 ADD PUSH0 KECCAK256 PUSH0 SWAP1 SSTORE DUP1 DUP1 PUSH1 0x1 ADD SWAP2 POP POP PUSH2 0x8C3 JUMP JUMPDEST POP POP POP JUMP JUMPDEST PUSH2 0x904 PUSH2 0xA92 JUMP JUMPDEST PUSH1 0x3 PUSH0 DUP3 DUP2 MSTORE PUSH1 0x20 ADD SWAP1 DUP2 MSTORE PUSH1 0x20 ADD PUSH0 KECCAK256 PUSH0 SWAP1 SLOAD SWAP1 PUSH2 0x100 EXP SWAP1 DIV PUSH1 0xFF AND PUSH2 0x961 JUMPI PUSH1 0x40 MLOAD PUSH32 0x8C379A000000000000000000000000000000000000000000000000000000000 DUP2 MSTORE PUSH1 0x4 ADD PUSH2 0x958 SWAP1 PUSH2 0x1560 JUMP JUMPDEST PUSH1 0x40 MLOAD DUP1 SWAP2 SUB SWAP1 REVERT JUMPDEST PUSH0 PUSH1 0x5 PUSH0 DUP4 DUP2 MSTORE PUSH1 0x20 ADD SWAP1 DUP2 MSTORE PUSH1 0x20 ADD PUSH0 KECCAK256 SLOAD EQ PUSH2 0x9B4 JUMPI PUSH1 0x40 MLOAD PUSH32 0x8C379A000000000000000000000000000000000000000000000000000000000 DUP2 MSTORE PUSH1 0x4 ADD PUSH2 0x9AB SWAP1 PUSH2 0x15C8 JUMP JUMPDEST PUSH1 0x40 MLOAD DUP1 SWAP2 SUB SWAP1 REVERT JUMPDEST PUSH0 PUSH3 0x15180 TIMESTAMP PUSH2 0x9C4 SWAP2 SWAP1 PUSH2 0x15E6 JUMP JUMPDEST SWAP1 POP DUP1 PUSH1 0x5 PUSH0 DUP5 DUP2 MSTORE PUSH1 0x20 ADD SWAP1 DUP2 MSTORE PUSH1 0x20 ADD PUSH0 KECCAK256 DUP2 SWAP1 SSTORE POP DUP1 DUP3 PUSH32 0xEE80B1A0735BED32872BFFFADA24BE24839F94BA87926A67333230186D8D6A5B PUSH1 0x40 MLOAD PUSH1 0x40 MLOAD DUP1 SWAP2 SUB SWAP1 LOG3 POP POP JUMP JUMPDEST PUSH2 0xA16 PUSH2 0xA92 JUMP JUMPDEST PUSH0 PUSH20 0xFFFFFFFFFFFFFFFFFFFFFFFFFFFFFFFFFFFFFFFF AND DUP2 PUSH20 0xFFFFFFFFFFFFFFFFFFFFFFFFFFFFFFFFFFFFFFFF AND SUB PUSH2 0xA86 JUMPI PUSH0 PUSH1 0x40 MLOAD PUSH32 0x1E4FBDF700000000000000000000000000000000000000000000000000000000 DUP2 MSTORE PUSH1 0x4 ADD PUSH2 0xA7D SWAP2 SWAP1 PUSH2 0xFA1 JUMP JUMPDEST PUSH1 0x40 MLOAD DUP1 SWAP2 SUB SWAP1 REVERT JUMPDEST PUSH2 0xA8F DUP2 PUSH2 0xC0A JUMP JUMPDEST POP JUMP JUMPDEST PUSH2 0xA9A PUSH2 0xD6D JUMP JUMPDEST PUSH20 0xFFFFFFFFFFFFFFFFFFFFFFFFFFFFFFFFFFFFFFFF AND PUSH2 0xAB8 PUSH2 0x675 JUMP JUMPDEST PUSH20 0xFFFFFFFFFFFFFFFFFFFFFFFFFFFFFFFFFFFFFFFF AND EQ PUSH2 0xB17 JUMPI PUSH2 0xADB PUSH2 0xD6D JUMP JUMPDEST PUSH1 0x40 MLOAD PUSH32 0x118CDAA700000000000000000000000000000000000000000000000000000000 DUP2 MSTORE PUSH1 0x4 ADD PUSH2 0xB0E SWAP2 SWAP1 PUSH2 0xFA1 JUMP JUMPDEST PUSH1 0x40 MLOAD DUP1 SWAP2 SUB SWAP1 REVERT JUMPDEST JUMP JUMPDEST PUSH2 0xB21 PUSH2 0xD2D JUMP JUMPDEST PUSH0 PUSH1 0x2 PUSH0 PUSH2 0x100 EXP DUP2 SLOAD DUP2 PUSH1 0xFF MUL NOT AND SWAP1 DUP4 ISZERO ISZERO MUL OR SWAP1 SSTORE POP PUSH32 0x5DB9EE0A495BF2E6FF9C91A7834C1BA4FDD244A5E8AA4E537BD38AEAE4B073AA PUSH2 0xB63 PUSH2 0xD6D JUMP JUMPDEST PUSH1 0x40 MLOAD PUSH2 0xB70 SWAP2 SWAP1 PUSH2 0xFA1 JUMP JUMPDEST PUSH1 0x40 MLOAD DUP1 SWAP2 SUB SWAP1 LOG1 JUMP JUMPDEST PUSH1 0x2 PUSH1 0x1 SLOAD SUB PUSH2 0xBB6 JUMPI PUSH1 0x40 MLOAD PUSH32 0x3EE5AEB500000000000000000000000000000000000000000000000000000000 DUP2 MSTORE PUSH1 0x4 ADD PUSH1 0x40 MLOAD DUP1 SWAP2 SUB SWAP1 REVERT JUMPDEST PUSH1 0x2 PUSH1 0x1 DUP2 SWAP1 SSTORE POP JUMP JUMPDEST PUSH2 0xBC8 PUSH2 0x63B JUMP JUMPDEST ISZERO PUSH2 0xBFF JUMPI PUSH1 0x40 MLOAD PUSH32 0xD93C066500000000000000000000000000000000000000000000000000000000 DUP2 MSTORE PUSH1 0x4 ADD PUSH1 0x40 MLOAD DUP1 SWAP2 SUB SWAP1 REVERT JUMPDEST JUMP JUMPDEST PUSH1 0x1 DUP1 DUP2 SWAP1 SSTORE POP JUMP JUMPDEST PUSH0 DUP1 PUSH0 SWAP1 SLOAD SWAP1 PUSH2 0x100 EXP SWAP1 DIV PUSH20 0xFFFFFFFFFFFFFFFFFFFFFFFFFFFFFFFFFFFFFFFF AND SWAP1 POP DUP2 PUSH0 DUP1 PUSH2 0x100 EXP DUP2 SLOAD DUP2 PUSH20 0xFFFFFFFFFFFFFFFFFFFFFFFFFFFFFFFFFFFFFFFF MUL NOT AND SWAP1 DUP4 PUSH20 0xFFFFFFFFFFFFFFFFFFFFFFFFFFFFFFFFFFFFFFFF AND MUL OR SWAP1 SSTORE POP DUP2 PUSH20 0xFFFFFFFFFFFFFFFFFFFFFFFFFFFFFFFFFFFFFFFF AND DUP2 PUSH20 0xFFFFFFFFFFFFFFFFFFFFFFFFFFFFFFFFFFFFFFFF AND PUSH32 0x8BE0079C531659141344CD1FD0A4F28419497F9722A3DAAFE3B4186F6B6457E0 PUSH1 0x40 MLOAD PUSH1 0x40 MLOAD DUP1 SWAP2 SUB SWAP1 LOG3 POP POP JUMP JUMPDEST PUSH2 0xCD3 PUSH2 0xBC0 JUMP JUMPDEST PUSH1 0x1 PUSH1 0x2 PUSH0 PUSH2 0x100 EXP DUP2 SLOAD DUP2 PUSH1 0xFF MUL NOT AND SWAP1 DUP4 ISZERO ISZERO MUL OR SWAP1 SSTORE POP PUSH32 0x62E78CEA01BEE320CD4E420270B5EA74000D11B0C9F74754EBDBFC544B05A258 PUSH2 0xD16 PUSH2 0xD6D JUMP JUMPDEST PUSH1 0x40 MLOAD PUSH2 0xD23 SWAP2 SWAP1 PUSH2 0xFA1 JUMP JUMPDEST PUSH1 0x40 MLOAD DUP1 SWAP2 SUB SWAP1 LOG1 JUMP JUMPDEST PUSH2 0xD35 PUSH2 0x63B JUMP JUMPDEST PUSH2 0xD6B JUMPI PUSH1 0x40 MLOAD PUSH32 0x8DFC202B00000000000000000000000000000000000000000000000000000000 DUP2 MSTORE PUSH1 0x4 ADD PUSH1 0x40 MLOAD DUP1 SWAP2 SUB SWAP1 REVERT JUMPDEST JUMP JUMPDEST PUSH0 CALLER SWAP1 POP SWAP1 JUMP JUMPDEST PUSH0 DUP1 REVERT JUMPDEST PUSH0 DUP2 SWAP1 POP SWAP2 SWAP1 POP JUMP JUMPDEST PUSH2 0xD8A DUP2 PUSH2 0xD78 JUMP JUMPDEST DUP2 EQ PUSH2 0xD94 JUMPI PUSH0 DUP1 REVERT JUMPDEST POP JUMP JUMPDEST PUSH0 DUP2 CALLDATALOAD SWAP1 POP PUSH2 0xDA5 DUP2 PUSH2 0xD81 JUMP JUMPDEST SWAP3 SWAP2 POP POP JUMP JUMPDEST PUSH0 PUSH1 0x20 DUP3 DUP5 SUB SLT ISZERO PUSH2 0xDC0 JUMPI PUSH2 0xDBF PUSH2 0xD74 JUMP JUMPDEST JUMPDEST PUSH0 PUSH2 0xDCD DUP5 DUP3 DUP6 ADD PUSH2 0xD97 JUMP JUMPDEST SWAP2 POP POP SWAP3 SWAP2 POP POP JUMP JUMPDEST PUSH0 PUSH20 0xFFFFFFFFFFFFFFFFFFFFFFFFFFFFFFFFFFFFFFFF DUP3 AND SWAP1 POP SWAP2 SWAP1 POP JUMP JUMPDEST PUSH0 DUP2 SWAP1 POP SWAP2 SWAP1 POP JUMP JUMPDEST PUSH0 PUSH2 0xE18 PUSH2 0xE13 PUSH2 0xE0E DUP5 PUSH2 0xDD6 JUMP JUMPDEST PUSH2 0xDF5 JUMP JUMPDEST PUSH2 0xDD6 JUMP JUMPDEST SWAP1 POP SWAP2 SWAP1 POP JUMP JUMPDEST PUSH0 PUSH2 0xE29 DUP3 PUSH2 0xDFE JUMP JUMPDEST SWAP1 POP SWAP2 SWAP1 POP JUMP JUMPDEST PUSH0 PUSH2 0xE3A DUP3 PUSH2 0xE1F JUMP JUMPDEST SWAP1 POP SWAP2 SWAP1 POP JUMP JUMPDEST PUSH2 0xE4A DUP2 PUSH2 0xE30 JUMP JUMPDEST DUP3 MSTORE POP POP JUMP JUMPDEST PUSH0 PUSH1 0x20 DUP3 ADD SWAP1 POP PUSH2 0xE63 PUSH0 DUP4 ADD DUP5 PUSH2 0xE41 JUMP JUMPDEST SWAP3 SWAP2 POP POP JUMP JUMPDEST PUSH0 DUP2 ISZERO ISZERO SWAP1 POP SWAP2 SWAP1 POP JUMP JUMPDEST PUSH2 0xE7D DUP2 PUSH2 0xE69 JUMP JUMPDEST DUP3 MSTORE POP POP JUMP JUMPDEST PUSH0 DUP2 SWAP1 POP SWAP2 SWAP1 POP JUMP JUMPDEST PUSH2 0xE95 DUP2 PUSH2 0xE83 JUMP JUMPDEST DUP3 MSTORE POP POP JUMP JUMPDEST PUSH0 PUSH1 0x60 DUP3 ADD SWAP1 POP PUSH2 0xEAE PUSH0 DUP4 ADD DUP7 PUSH2 0xE74 JUMP JUMPDEST PUSH2 0xEBB PUSH1 0x20 DUP4 ADD DUP6 PUSH2 0xE8C JUMP JUMPDEST PUSH2 0xEC8 PUSH1 0x40 DUP4 ADD DUP5 PUSH2 0xE8C JUMP JUMPDEST SWAP5 SWAP4 POP POP POP POP JUMP JUMPDEST PUSH0 DUP1 REVERT JUMPDEST PUSH0 DUP2 SWAP1 POP DUP3 PUSH1 0x20 PUSH1 0x8 MUL DUP3 ADD GT ISZERO PUSH2 0xEEF JUMPI PUSH2 0xEEE PUSH2 0xED0 JUMP JUMPDEST JUMPDEST SWAP3 SWAP2 POP POP JUMP JUMPDEST PUSH0 DUP2 SWAP1 POP DUP3 PUSH1 0x20 PUSH1 0x1 MUL DUP3 ADD GT ISZERO PUSH2 0xF10 JUMPI PUSH2 0xF0F PUSH2 0xED0 JUMP JUMPDEST JUMPDEST SWAP3 SWAP2 POP POP JUMP JUMPDEST PUSH0 DUP1 PUSH0 PUSH2 0x140 DUP5 DUP7 SUB SLT ISZERO PUSH2 0xF2E JUMPI PUSH2 0xF2D PUSH2 0xD74 JUMP JUMPDEST JUMPDEST PUSH0 PUSH2 0xF3B DUP7 DUP3 DUP8 ADD PUSH2 0xD97 JUMP JUMPDEST SWAP4 POP POP PUSH1 0x20 PUSH2 0xF4C DUP7 DUP3 DUP8 ADD PUSH2 0xED4 JUMP JUMPDEST SWAP3 POP POP PUSH2 0x120 PUSH2 0xF5E DUP7 DUP3 DUP8 ADD PUSH2 0xEF5 JUMP JUMPDEST SWAP2 POP POP SWAP3 POP SWAP3 POP SWAP3 JUMP JUMPDEST PUSH0 PUSH1 0x20 DUP3 ADD SWAP1 POP PUSH2 0xF7B PUSH0 DUP4 ADD DUP5 PUSH2 0xE74 JUMP JUMPDEST SWAP3 SWAP2 POP POP JUMP JUMPDEST PUSH0 PUSH2 0xF8B DUP3 PUSH2 0xDD6 JUMP JUMPDEST SWAP1 POP SWAP2 SWAP1 POP JUMP JUMPDEST PUSH2 0xF9B DUP2 PUSH2 0xF81 JUMP JUMPDEST DUP3 MSTORE POP POP JUMP JUMPDEST PUSH0 PUSH1 0x20 DUP3 ADD SWAP1 POP PUSH2 0xFB4 PUSH0 DUP4 ADD DUP5 PUSH2 0xF92 JUMP JUMPDEST SWAP3 SWAP2 POP POP JUMP JUMPDEST PUSH2 0xFC3 DUP2 PUSH2 0xF81 JUMP JUMPDEST DUP2 EQ PUSH2 0xFCD JUMPI PUSH0 DUP1 REVERT JUMPDEST POP JUMP JUMPDEST PUSH0 DUP2 CALLDATALOAD SWAP1 POP PUSH2 0xFDE DUP2 PUSH2 0xFBA JUMP JUMPDEST SWAP3 SWAP2 POP POP JUMP JUMPDEST PUSH0 PUSH1 0x20 DUP3 DUP5 SUB SLT ISZERO PUSH2 0xFF9 JUMPI PUSH2 0xFF8 PUSH2 0xD74 JUMP JUMPDEST JUMPDEST PUSH0 PUSH2 0x1006 DUP5 DUP3 DUP6 ADD PUSH2 0xFD0 JUMP JUMPDEST SWAP2 POP POP SWAP3 SWAP2 POP POP JUMP JUMPDEST PUSH2 0x1018 DUP2 PUSH2 0xE83 JUMP JUMPDEST DUP2 EQ PUSH2 0x1022 JUMPI PUSH0 DUP1 REVERT JUMPDEST POP JUMP JUMPDEST PUSH0 DUP2 CALLDATALOAD SWAP1 POP PUSH2 0x1033 DUP2 PUSH2 0x100F JUMP JUMPDEST SWAP3 SWAP2 POP POP JUMP JUMPDEST PUSH0 PUSH1 0x20 DUP3 DUP5 SUB SLT ISZERO PUSH2 0x104E JUMPI PUSH2 0x104D PUSH2 0xD74 JUMP JUMPDEST JUMPDEST PUSH0 PUSH2 0x105B DUP5 DUP3 DUP6 ADD PUSH2 0x1025 JUMP JUMPDEST SWAP2 POP POP SWAP3 SWAP2 POP POP JUMP JUMPDEST PUSH0 DUP3 DUP3 MSTORE PUSH1 0x20 DUP3 ADD SWAP1 POP SWAP3 SWAP2 POP POP JUMP JUMPDEST PUSH32 0x4E6F207265766F636174696F6E20726571756573746564000000000000000000 PUSH0 DUP3 ADD MSTORE POP JUMP JUMPDEST PUSH0 PUSH2 0x10A8 PUSH1 0x17 DUP4 PUSH2 0x1064 JUMP JUMPDEST SWAP2 POP PUSH2 0x10B3 DUP3 PUSH2 0x1074 JUMP JUMPDEST PUSH1 0x20 DUP3 ADD SWAP1 POP SWAP2 SWAP1 POP JUMP JUMPDEST PUSH0 PUSH1 0x20 DUP3 ADD SWAP1 POP DUP2 DUP2 SUB PUSH0 DUP4 ADD MSTORE PUSH2 0x10D5 DUP2 PUSH2 0x109C JUMP JUMPDEST SWAP1 POP SWAP2 SWAP1 POP JUMP JUMPDEST PUSH32 0x54696D656C6F636B206163746976650000000000000000000000000000000000 PUSH0 DUP3 ADD MSTORE POP JUMP JUMPDEST PUSH0 PUSH2 0x1110 PUSH1 0xF DUP4 PUSH2 0x1064 JUMP JUMPDEST SWAP2 POP PUSH2 0x111B DUP3 PUSH2 0x10DC JUMP JUMPDEST PUSH1 0x20 DUP3 ADD SWAP1 POP SWAP2 SWAP1 POP JUMP JUMPDEST PUSH0 PUSH1 0x20 DUP3 ADD SWAP1 POP DUP2 DUP2 SUB PUSH0 DUP4 ADD MSTORE PUSH2 0x113D DUP2 PUSH2 0x1104 JUMP JUMPDEST SWAP1 POP SWAP2 SWAP1 POP JUMP JUMPDEST PUSH32 0x496E76616C696420495020686173680000000000000000000000000000000000 PUSH0 DUP3 ADD MSTORE POP JUMP JUMPDEST PUSH0 PUSH2 0x1178 PUSH1 0xF DUP4 PUSH2 0x1064 JUMP JUMPDEST SWAP2 POP PUSH2 0x1183 DUP3 PUSH2 0x1144 JUMP JUMPDEST PUSH1 0x20 DUP3 ADD SWAP1 POP SWAP2 SWAP1 POP JUMP JUMPDEST PUSH0 PUSH1 0x20 DUP3 ADD SWAP1 POP DUP2 DUP2 SUB PUSH0 DUP4 ADD MSTORE PUSH2 0x11A5 DUP2 PUSH2 0x116C JUMP JUMPDEST SWAP1 POP SWAP2 SWAP1 POP JUMP JUMPDEST PUSH32 0x416C726561647920616E6F6E796D697A65640000000000000000000000000000 PUSH0 DUP3 ADD MSTORE POP JUMP JUMPDEST PUSH0 PUSH2 0x11E0 PUSH1 0x12 DUP4 PUSH2 0x1064 JUMP JUMPDEST SWAP2 POP PUSH2 0x11EB DUP3 PUSH2 0x11AC JUMP JUMPDEST PUSH1 0x20 DUP3 ADD SWAP1 POP SWAP2 SWAP1 POP JUMP JUMPDEST PUSH0 PUSH1 0x20 DUP3 ADD SWAP1 POP DUP2 DUP2 SUB PUSH0 DUP4 ADD MSTORE PUSH2 0x120D DUP2 PUSH2 0x11D4 JUMP JUMPDEST SWAP1 POP SWAP2 SWAP1 POP JUMP JUMPDEST PUSH32 0x52617465206C696D697420657863656564656400000000000000000000000000 PUSH0 DUP3 ADD MSTORE POP JUMP JUMPDEST PUSH0 PUSH2 0x1248 PUSH1 0x13 DUP4 PUSH2 0x1064 JUMP JUMPDEST SWAP2 POP PUSH2 0x1253 DUP3 PUSH2 0x1214 JUMP JUMPDEST PUSH1 0x20 DUP3 ADD SWAP1 POP SWAP2 SWAP1 POP JUMP JUMPDEST PUSH0 PUSH1 0x20 DUP3 ADD SWAP1 POP DUP2 DUP2 SUB PUSH0 DUP4 ADD MSTORE PUSH2 0x1275 DUP2 PUSH2 0x123C JUMP JUMPDEST SWAP1 POP SWAP2 SWAP1 POP JUMP JUMPDEST PUSH32 0x496E76616C69642070726F6F6600000000000000000000000000000000000000 PUSH0 DUP3 ADD MSTORE POP JUMP JUMPDEST PUSH0 PUSH2 0x12B0 PUSH1 0xD DUP4 PUSH2 0x1064 JUMP JUMPDEST SWAP2 POP PUSH2 0x12BB DUP3 PUSH2 0x127C JUMP JUMPDEST PUSH1 0x20 DUP3 ADD SWAP1 POP SWAP2 SWAP1 POP JUMP JUMPDEST PUSH0 PUSH1 0x20 DUP3 ADD SWAP1 POP DUP2 DUP2 SUB PUSH0 DUP4 ADD MSTORE PUSH2 0x12DD DUP2 PUSH2 0x12A4 JUMP JUMPDEST SWAP1 POP SWAP2 SWAP1 POP JUMP JUMPDEST PUSH32 0x4E487B7100000000000000000000000000000000000000000000000000000000 PUSH0 MSTORE PUSH1 0x11 PUSH1 0x4 MSTORE PUSH1 0x24 PUSH0 REVERT JUMPDEST PUSH0 PUSH2 0x131B DUP3 PUSH2 0xE83 JUMP JUMPDEST SWAP2 POP PUSH32 0xFFFFFFFFFFFFFFFFFFFFFFFFFFFFFFFFFFFFFFFFFFFFFFFFFFFFFFFFFFFFFFFF DUP3 SUB PUSH2 0x134D JUMPI PUSH2 0x134C PUSH2 0x12E4 JUMP JUMPDEST JUMPDEST PUSH1 0x1 DUP3 ADD SWAP1 POP SWAP2 SWAP1 POP JUMP JUMPDEST DUP3 DUP2 DUP4 CALLDATACOPY POP POP POP JUMP JUMPDEST PUSH2 0x136E PUSH2 0x100 DUP4 DUP4 PUSH2 0x1358 JUMP JUMPDEST POP POP JUMP JUMPDEST PUSH2 0x137E PUSH1 0x20 DUP4 DUP4 PUSH2 0x1358 JUMP JUMPDEST POP POP JUMP JUMPDEST PUSH0 PUSH2 0x120 DUP3 ADD SWAP1 POP PUSH2 0x1396 PUSH0 DUP4 ADD DUP6 PUSH2 0x1361 JUMP JUMPDEST PUSH2 0x13A4 PUSH2 0x100 DUP4 ADD DUP5 PUSH2 0x1372 JUMP JUMPDEST SWAP4 SWAP3 POP POP POP JUMP JUMPDEST PUSH32 0x496E76616C696420766572696669657200000000000000000000000000000000 PUSH0 DUP3 ADD MSTORE POP JUMP JUMPDEST PUSH0 PUSH2 0x13DF PUSH1 0x10 DUP4 PUSH2 0x1064 JUMP JUMPDEST SWAP2 POP PUSH2 0x13EA DUP3 PUSH2 0x13AB JUMP JUMPDEST PUSH1 0x20 DUP3 ADD SWAP1 POP SWAP2 SWAP1 POP JUMP JUMPDEST PUSH0 PUSH1 0x20 DUP3 ADD SWAP1 POP DUP2 DUP2 SUB PUSH0 DUP4 ADD MSTORE PUSH2 0x140C DUP2 PUSH2 0x13D3 JUMP JUMPDEST SWAP1 POP SWAP2 SWAP1 POP JUMP JUMPDEST PUSH32 0x53616D6520766572696669657200000000000000000000000000000000000000 PUSH0 DUP3 ADD MSTORE POP JUMP JUMPDEST PUSH0 PUSH2 0x1447 PUSH1 0xD DUP4 PUSH2 0x1064 JUMP JUMPDEST SWAP2 POP PUSH2 0x1452 DUP3 PUSH2 0x1413 JUMP JUMPDEST PUSH1 0x20 DUP3 ADD SWAP1 POP SWAP2 SWAP1 POP JUMP JUMPDEST PUSH0 PUSH1 0x20 DUP3 ADD SWAP1 POP DUP2 DUP2 SUB PUSH0 DUP4 ADD MSTORE PUSH2 0x1474 DUP2 PUSH2 0x143B JUMP JUMPDEST SWAP1 POP SWAP2 SWAP1 POP JUMP JUMPDEST PUSH32 0x496E76616C696420626C6F636B20636F756E7400000000000000000000000000 PUSH0 DUP3 ADD MSTORE POP JUMP JUMPDEST PUSH0 PUSH2 0x14AF PUSH1 0x13 DUP4 PUSH2 0x1064 JUMP JUMPDEST SWAP2 POP PUSH2 0x14BA DUP3 PUSH2 0x147B JUMP JUMPDEST PUSH1 0x20 DUP3 ADD SWAP1 POP SWAP2 SWAP1 POP JUMP JUMPDEST PUSH0 PUSH1 0x20 DUP3 ADD SWAP1 POP DUP2 DUP2 SUB PUSH0 DUP4 ADD MSTORE PUSH2 0x14DC DUP2 PUSH2 0x14A3 JUMP JUMPDEST SWAP1 POP SWAP2 SWAP1 POP JUMP JUMPDEST PUSH0 PUSH2 0x14ED DUP3 PUSH2 0xE83 JUMP JUMPDEST SWAP2 POP PUSH2 0x14F8 DUP4 PUSH2 0xE83 JUMP JUMPDEST SWAP3 POP DUP3 DUP3 SUB SWAP1 POP DUP2 DUP2 GT ISZERO PUSH2 0x1510 JUMPI PUSH2 0x150F PUSH2 0x12E4 JUMP JUMPDEST JUMPDEST SWAP3 SWAP2 POP POP JUMP JUMPDEST PUSH32 0x4E6F7420616E6F6E796D697A6564000000000000000000000000000000000000 PUSH0 DUP3 ADD MSTORE POP JUMP JUMPDEST PUSH0 PUSH2 0x154A PUSH1 0xE DUP4 PUSH2 0x1064 JUMP JUMPDEST SWAP2 POP PUSH2 0x1555 DUP3 PUSH2 0x1516 JUMP JUMPDEST PUSH1 0x20 DUP3 ADD SWAP1 POP SWAP2 SWAP1 POP JUMP JUMPDEST PUSH0 PUSH1 0x20 DUP3 ADD SWAP1 POP DUP2 DUP2 SUB PUSH0 DUP4 ADD MSTORE PUSH2 0x1577 DUP2 PUSH2 0x153E JUMP JUMPDEST SWAP1 POP SWAP2 SWAP1 POP JUMP JUMPDEST PUSH32 0x5265766F636174696F6E2070656E64696E670000000000000000000000000000 PUSH0 DUP3 ADD MSTORE POP JUMP JUMPDEST PUSH0 PUSH2 0x15B2 PUSH1 0x12 DUP4 PUSH2 0x1064 JUMP JUMPDEST SWAP2 POP PUSH2 0x15BD DUP3 PUSH2 0x157E JUMP JUMPDEST PUSH1 0x20 DUP3 ADD SWAP1 POP SWAP2 SWAP1 POP JUMP JUMPDEST PUSH0 PUSH1 0x20 DUP3 ADD SWAP1 POP DUP2 DUP2 SUB PUSH0 DUP4 ADD MSTORE PUSH2 0x15DF DUP2 PUSH2 0x15A6 JUMP JUMPDEST SWAP1 POP SWAP2 SWAP1 POP JUMP JUMPDEST PUSH0 PUSH2 0x15F0 DUP3 PUSH2 0xE83 JUMP JUMPDEST SWAP2 POP PUSH2 0x15FB DUP4 PUSH2 0xE83 JUMP JUMPDEST SWAP3 POP DUP3 DUP3 ADD SWAP1 POP DUP1 DUP3 GT ISZERO PUSH2 0x1613 JUMPI PUSH2 0x1612 PUSH2 0x12E4 JUMP JUMPDEST JUMPDEST SWAP3 SWAP2 POP POP JUMP INVALID LOG2 PUSH5 0x6970667358 0x22 SLT KECCAK256 0xAA SELFBALANCE SMOD EXP CODESIZE 0xBA SHL 0xFB BLOBHASH 0xE1 ADDMOD DUP9 0x22 0xCC 0xD2 MULMOD DUP14 EXTCODEHASH SAR 0xDB 0xE2 0xAE GAS EXP DUP7 PC TIMESTAMP MCOPY 0xB4 RETURNDATACOPY SWAP14 TIMESTAMP PUSH5 0x736F6C6343 STOP ADDMOD BYTE STOP CALLER "
		},
		"gasEstimates": {
			"creation": {
				"codeDepositCost": "1142200",
				"executionCost": "infinite",
				"totalCost": "infinite"
			},
			"external": {
				"clearOldBlockCounts(uint256)": "infinite",
				"executeRevocation(bytes32)": "infinite",
				"getIPStatus(bytes32)": "infinite",
				"owner()": "2582",
				"pause()": "infinite",
				"paused()": "2584",
				"registerAnonymizedIP(bytes32,uint256[8],uint256[1])": "infinite",
				"renounceOwnership()": "infinite",
				"requestRevocation(bytes32)": "infinite",
				"transferOwnership(address)": "infinite",
				"unpause()": "infinite",
				"updateVerifier(address)": "infinite",
				"verifier()": "infinite"
			}
		},
		"methodIdentifiers": {
			"clearOldBlockCounts(uint256)": "c8fea3a5",
			"executeRevocation(bytes32)": "12425ebb",
			"getIPStatus(bytes32)": "2c7f7d44",
			"owner()": "8da5cb5b",
			"pause()": "8456cb59",
			"paused()": "5c975abb",
			"registerAnonymizedIP(bytes32,uint256[8],uint256[1])": "451d577f",
			"renounceOwnership()": "715018a6",
			"requestRevocation(bytes32)": "cc3e12e8",
			"transferOwnership(address)": "f2fde38b",
			"unpause()": "3f4ba83a",
			"updateVerifier(address)": "97fc007c",
			"verifier()": "2b7ac3f3"
		}
	},
	"abi": [
		{
			"inputs": [
				{
					"internalType": "address",
					"name": "_verifier",
					"type": "address"
				},
				{
					"internalType": "address",
					"name": "initialOwner",
					"type": "address"
				}
			],
			"stateMutability": "nonpayable",
			"type": "constructor"
		},
		{
			"inputs": [],
			"name": "EnforcedPause",
			"type": "error"
		},
		{
			"inputs": [],
			"name": "ExpectedPause",
			"type": "error"
		},
		{
			"inputs": [
				{
					"internalType": "address",
					"name": "owner",
					"type": "address"
				}
			],
			"name": "OwnableInvalidOwner",
			"type": "error"
		},
		{
			"inputs": [
				{
					"internalType": "address",
					"name": "account",
					"type": "address"
				}
			],
			"name": "OwnableUnauthorizedAccount",
			"type": "error"
		},
		{
			"inputs": [],
			"name": "ReentrancyGuardReentrantCall",
			"type": "error"
		},
		{
			"anonymous": false,
			"inputs": [
				{
					"indexed": true,
					"internalType": "bytes32",
					"name": "ipHash",
					"type": "bytes32"
				},
				{
					"indexed": true,
					"internalType": "uint256",
					"name": "timestamp",
					"type": "uint256"
				},
				{
					"indexed": true,
					"internalType": "bytes32",
					"name": "proof",
					"type": "bytes32"
				}
			],
			"name": "AnonymizedIPRegistered",
			"type": "event"
		},
		{
			"anonymous": false,
			"inputs": [
				{
					"indexed": true,
					"internalType": "address",
					"name": "previousOwner",
					"type": "address"
				},
				{
					"indexed": true,
					"internalType": "address",
					"name": "newOwner",
					"type": "address"
				}
			],
			"name": "OwnershipTransferred",
			"type": "event"
		},
		{
			"anonymous": false,
			"inputs": [
				{
					"indexed": false,
					"internalType": "address",
					"name": "account",
					"type": "address"
				}
			],
			"name": "Paused",
			"type": "event"
		},
		{
			"anonymous": false,
			"inputs": [
				{
					"indexed": true,
					"internalType": "bytes32",
					"name": "ipHash",
					"type": "bytes32"
				},
				{
					"indexed": true,
					"internalType": "uint256",
					"name": "timestamp",
					"type": "uint256"
				}
			],
			"name": "RevocationExecuted",
			"type": "event"
		},
		{
			"anonymous": false,
			"inputs": [
				{
					"indexed": true,
					"internalType": "bytes32",
					"name": "ipHash",
					"type": "bytes32"
				},
				{
					"indexed": true,
					"internalType": "uint256",
					"name": "executionTime",
					"type": "uint256"
				}
			],
			"name": "RevocationRequested",
			"type": "event"
		},
		{
			"anonymous": false,
			"inputs": [
				{
					"indexed": false,
					"internalType": "address",
					"name": "account",
					"type": "address"
				}
			],
			"name": "Unpaused",
			"type": "event"
		},
		{
			"anonymous": false,
			"inputs": [
				{
					"indexed": true,
					"internalType": "address",
					"name": "oldVerifier",
					"type": "address"
				},
				{
					"indexed": true,
					"internalType": "address",
					"name": "newVerifier",
					"type": "address"
				},
				{
					"indexed": true,
					"internalType": "uint256",
					"name": "timestamp",
					"type": "uint256"
				}
			],
			"name": "VerifierUpdated",
			"type": "event"
		},
		{
			"inputs": [
				{
					"internalType": "uint256",
					"name": "blocksBack",
					"type": "uint256"
				}
			],
			"name": "clearOldBlockCounts",
			"outputs": [],
			"stateMutability": "nonpayable",
			"type": "function"
		},
		{
			"inputs": [
				{
					"internalType": "bytes32",
					"name": "ipHash",
					"type": "bytes32"
				}
			],
			"name": "executeRevocation",
			"outputs": [],
			"stateMutability": "nonpayable",
			"type": "function"
		},
		{
			"inputs": [
				{
					"internalType": "bytes32",
					"name": "ipHash",
					"type": "bytes32"
				}
			],
			"name": "getIPStatus",
			"outputs": [
				{
					"internalType": "bool",
					"name": "isAnonymized",
					"type": "bool"
				},
				{
					"internalType": "uint256",
					"name": "registrationTime",
					"type": "uint256"
				},
				{
					"internalType": "uint256",
					"name": "pendingRevocationTime",
					"type": "uint256"
				}
			],
			"stateMutability": "view",
			"type": "function"
		},
		{
			"inputs": [],
			"name": "owner",
			"outputs": [
				{
					"internalType": "address",
					"name": "",
					"type": "address"
				}
			],
			"stateMutability": "view",
			"type": "function"
		},
		{
			"inputs": [],
			"name": "pause",
			"outputs": [],
			"stateMutability": "nonpayable",
			"type": "function"
		},
		{
			"inputs": [],
			"name": "paused",
			"outputs": [
				{
					"internalType": "bool",
					"name": "",
					"type": "bool"
				}
			],
			"stateMutability": "view",
			"type": "function"
		},
		{
			"inputs": [
				{
					"internalType": "bytes32",
					"name": "ipHash",
					"type": "bytes32"
				},
				{
					"internalType": "uint256[8]",
					"name": "proof",
					"type": "uint256[8]"
				},
				{
					"internalType": "uint256[1]",
					"name": "publicInputs",
					"type": "uint256[1]"
				}
			],
			"name": "registerAnonymizedIP",
			"outputs": [],
			"stateMutability": "nonpayable",
			"type": "function"
		},
		{
			"inputs": [],
			"name": "renounceOwnership",
			"outputs": [],
			"stateMutability": "nonpayable",
			"type": "function"
		},
		{
			"inputs": [
				{
					"internalType": "bytes32",
					"name": "ipHash",
					"type": "bytes32"
				}
			],
			"name": "requestRevocation",
			"outputs": [],
			"stateMutability": "nonpayable",
			"type": "function"
		},
		{
			"inputs": [
				{
					"internalType": "address",
					"name": "newOwner",
					"type": "address"
				}
			],
			"name": "transferOwnership",
			"outputs": [],
			"stateMutability": "nonpayable",
			"type": "function"
		},
		{
			"inputs": [],
			"name": "unpause",
			"outputs": [],
			"stateMutability": "nonpayable",
			"type": "function"
		},
		{
			"inputs": [
				{
					"internalType": "address",
					"name": "_newVerifier",
					"type": "address"
				}
			],
			"name": "updateVerifier",
			"outputs": [],
			"stateMutability": "nonpayable",
			"type": "function"
		},
		{
			"inputs": [],
			"name": "verifier",
			"outputs": [
				{
					"internalType": "contract IZKVerifier",
					"name": "",
					"type": "address"
				}
			],
			"stateMutability": "view",
			"type": "function"
		}
	]
}