{
	"security/IPAnonymizer.sol": {
		"IPAnonymizer": {
			"abi": [
				{
					"inputs": [
						{
							"internalType": "address",
							"name": "_verifier",
							"type": "address"
						},
						{
							"internalType": "address",
							"name": "initialOwner",
							"type": "address"
						}
					],
					"stateMutability": "nonpayable",
					"type": "constructor"
				},
				{
					"inputs": [],
					"name": "EnforcedPause",
					"type": "error"
				},
				{
					"inputs": [],
					"name": "ExpectedPause",
					"type": "error"
				},
				{
					"inputs": [
						{
							"internalType": "address",
							"name": "owner",
							"type": "address"
						}
					],
					"name": "OwnableInvalidOwner",
					"type": "error"
				},
				{
					"inputs": [
						{
							"internalType": "address",
							"name": "account",
							"type": "address"
						}
					],
					"name": "OwnableUnauthorizedAccount",
					"type": "error"
				},
				{
					"inputs": [],
					"name": "ReentrancyGuardReentrantCall",
					"type": "error"
				},
				{
					"anonymous": false,
					"inputs": [
						{
							"indexed": true,
							"internalType": "bytes32",
							"name": "ipHash",
							"type": "bytes32"
						},
						{
							"indexed": true,
							"internalType": "uint256",
							"name": "timestamp",
							"type": "uint256"
						},
						{
							"indexed": true,
							"internalType": "bytes32",
							"name": "proof",
							"type": "bytes32"
						}
					],
					"name": "AnonymizedIPRegistered",
					"type": "event"
				},
				{
					"anonymous": false,
					"inputs": [
						{
							"indexed": true,
							"internalType": "address",
							"name": "previousOwner",
							"type": "address"
						},
						{
							"indexed": true,
							"internalType": "address",
							"name": "newOwner",
							"type": "address"
						}
					],
					"name": "OwnershipTransferred",
					"type": "event"
				},
				{
					"anonymous": false,
					"inputs": [
						{
							"indexed": false,
							"internalType": "address",
							"name": "account",
							"type": "address"
						}
					],
					"name": "Paused",
					"type": "event"
				},
				{
					"anonymous": false,
					"inputs": [
						{
							"indexed": true,
							"internalType": "bytes32",
							"name": "ipHash",
							"type": "bytes32"
						},
						{
							"indexed": true,
							"internalType": "uint256",
							"name": "timestamp",
							"type": "uint256"
						}
					],
					"name": "RevocationExecuted",
					"type": "event"
				},
				{
					"anonymous": false,
					"inputs": [
						{
							"indexed": true,
							"internalType": "bytes32",
							"name": "ipHash",
							"type": "bytes32"
						},
						{
							"indexed": true,
							"internalType": "uint256",
							"name": "executionTime",
							"type": "uint256"
						}
					],
					"name": "RevocationRequested",
					"type": "event"
				},
				{
					"anonymous": false,
					"inputs": [
						{
							"indexed": false,
							"internalType": "address",
							"name": "account",
							"type": "address"
						}
					],
					"name": "Unpaused",
					"type": "event"
				},
				{
					"anonymous": false,
					"inputs": [
						{
							"indexed": true,
							"internalType": "address",
							"name": "oldVerifier",
							"type": "address"
						},
						{
							"indexed": true,
							"internalType": "address",
							"name": "newVerifier",
							"type": "address"
						},
						{
							"indexed": true,
							"internalType": "uint256",
							"name": "timestamp",
							"type": "uint256"
						}
					],
					"name": "VerifierUpdated",
					"type": "event"
				},
				{
					"inputs": [
						{
							"internalType": "uint256",
							"name": "blocksBack",
							"type": "uint256"
						}
					],
					"name": "clearOldBlockCounts",
					"outputs": [],
					"stateMutability": "nonpayable",
					"type": "function"
				},
				{
					"inputs": [
						{
							"internalType": "bytes32",
							"name": "ipHash",
							"type": "bytes32"
						}
					],
					"name": "executeRevocation",
					"outputs": [],
					"stateMutability": "nonpayable",
					"type": "function"
				},
				{
					"inputs": [
						{
							"internalType": "bytes32",
							"name": "ipHash",
							"type": "bytes32"
						}
					],
					"name": "getIPStatus",
					"outputs": [
						{
							"internalType": "bool",
							"name": "isAnonymized",
							"type": "bool"
						},
						{
							"internalType": "uint256",
							"name": "registrationTime",
							"type": "uint256"
						},
						{
							"internalType": "uint256",
							"name": "pendingRevocationTime",
							"type": "uint256"
						}
					],
					"stateMutability": "view",
					"type": "function"
				},
				{
					"inputs": [],
					"name": "owner",
					"outputs": [
						{
							"internalType": "address",
							"name": "",
							"type": "address"
						}
					],
					"stateMutability": "view",
					"type": "function"
				},
				{
					"inputs": [],
					"name": "pause",
					"outputs": [],
					"stateMutability": "nonpayable",
					"type": "function"
				},
				{
					"inputs": [],
					"name": "paused",
					"outputs": [
						{
							"internalType": "bool",
							"name": "",
							"type": "bool"
						}
					],
					"stateMutability": "view",
					"type": "function"
				},
				{
					"inputs": [
						{
							"internalType": "bytes32",
							"name": "ipHash",
							"type": "bytes32"
						},
						{
							"internalType": "uint256[8]",
							"name": "proof",
							"type": "uint256[8]"
						},
						{
							"internalType": "uint256[1]",
							"name": "publicInputs",
							"type": "uint256[1]"
						}
					],
					"name": "registerAnonymizedIP",
					"outputs": [],
					"stateMutability": "nonpayable",
					"type": "function"
				},
				{
					"inputs": [],
					"name": "renounceOwnership",
					"outputs": [],
					"stateMutability": "nonpayable",
					"type": "function"
				},
				{
					"inputs": [
						{
							"internalType": "bytes32",
							"name": "ipHash",
							"type": "bytes32"
						}
					],
					"name": "requestRevocation",
					"outputs": [],
					"stateMutability": "nonpayable",
					"type": "function"
				},
				{
					"inputs": [
						{
							"internalType": "address",
							"name": "newOwner",
							"type": "address"
						}
					],
					"name": "transferOwnership",
					"outputs": [],
					"stateMutability": "nonpayable",
					"type": "function"
				},
				{
					"inputs": [],
					"name": "unpause",
					"outputs": [],
					"stateMutability": "nonpayable",
					"type": "function"
				},
				{
					"inputs": [
						{
							"internalType": "address",
							"name": "_newVerifier",
							"type": "address"
						}
					],
					"name": "updateVerifier",
					"outputs": [],
					"stateMutability": "nonpayable",
					"type": "function"
				},
				{
					"inputs": [],
					"name": "verifier",
					"outputs": [
						{
							"internalType": "contract IZKVerifier",
							"name": "",
							"type": "address"
						}
					],
					"stateMutability": "view",
					"type": "function"
				}
			],
			"devdoc": {
				"details": "Enhanced IP anonymization using zk-SNARKs with additional security features",
				"errors": {
					"EnforcedPause()": [
						{
							"details": "The operation failed because the contract is paused."
						}
					],
					"ExpectedPause()": [
						{
							"details": "The operation failed because the contract is not paused."
						}
					],
					"OwnableInvalidOwner(address)": [
						{
							"details": "The owner is not a valid owner account. (eg. `address(0)`)"
						}
					],
					"OwnableUnauthorizedAccount(address)": [
						{
							"details": "The caller account is not authorized to perform an operation."
						}
					],
					"ReentrancyGuardReentrantCall()": [
						{
							"details": "Unauthorized reentrant call."
						}
					]
				},
				"events": {
					"Paused(address)": {
						"details": "Emitted when the pause is triggered by `account`."
					},
					"Unpaused(address)": {
						"details": "Emitted when the pause is lifted by `account`."
					}
				},
				"kind": "dev",
				"methods": {
					"clearOldBlockCounts(uint256)": {
						"details": "Clear old block registration counts"
					},
					"constructor": {
						"details": "Constructor with enhanced validation"
					},
					"executeRevocation(bytes32)": {
						"details": "Execute pending revocation after timelock"
					},
					"getIPStatus(bytes32)": {
						"details": "Check IP anonymization status with metadata"
					},
					"owner()": {
						"details": "Returns the address of the current owner."
					},
					"paused()": {
						"details": "Returns true if the contract is paused, and false otherwise."
					},
					"registerAnonymizedIP(bytes32,uint256[8],uint256[1])": {
						"details": "Register anonymized IP with enhanced security"
					},
					"renounceOwnership()": {
						"details": "Leaves the contract without owner. It will not be possible to call `onlyOwner` functions. Can only be called by the current owner. NOTE: Renouncing ownership will leave the contract without an owner, thereby disabling any functionality that is only available to the owner."
					},
					"requestRevocation(bytes32)": {
						"details": "Request IP anonymization revocation with timelock"
					},
					"transferOwnership(address)": {
						"details": "Transfers ownership of the contract to a new account (`newOwner`). Can only be called by the current owner."
					},
					"updateVerifier(address)": {
						"details": "Update verifier with security checks"
					}
				},
				"title": "IPAnonymizer",
				"version": 1
			},
			"evm": {
				"assembly": "    /* \"security/IPAnonymizer.sol\":380:6522  contract IPAnonymizer is Ownable, ReentrancyGuard, Pausable {... */\n  mstore(0x40, 0x80)\n    /* \"security/IPAnonymizer.sol\":1551:1878  constructor(... */\n  callvalue\n  dup1\n  iszero\n  tag_1\n  jumpi\n  0x00\n  dup1\n  revert\ntag_1:\n  pop\n  mload(0x40)\n  sub(codesize, bytecodeSize)\n  dup1\n  bytecodeSize\n  dup4\n  codecopy\n  dup2\n  dup2\n  add\n  0x40\n  mstore\n  dup2\n  add\n  swap1\n  tag_2\n  swap2\n  swap1\n  tag_3\n  jump\t// in\ntag_2:\n    /* \"security/IPAnonymizer.sol\":1634:1646  initialOwner */\n  dup1\n    /* \"@openzeppelin/contracts/access/Ownable.sol\":1297:1298  0 */\n  0x00\n    /* \"@openzeppelin/contracts/access/Ownable.sol\":1273:1299  initialOwner == address(0) */\n  0xffffffffffffffffffffffffffffffffffffffff\n  and\n    /* \"@openzeppelin/contracts/access/Ownable.sol\":1273:1285  initialOwner */\n  dup2\n    /* \"@openzeppelin/contracts/access/Ownable.sol\":1273:1299  initialOwner == address(0) */\n  0xffffffffffffffffffffffffffffffffffffffff\n  and\n  sub\n    /* \"@openzeppelin/contracts/access/Ownable.sol\":1269:1364  if (initialOwner == address(0)) {... */\n  tag_9\n  jumpi\n    /* \"@openzeppelin/contracts/access/Ownable.sol\":1350:1351  0 */\n  0x00\n    /* \"@openzeppelin/contracts/access/Ownable.sol\":1322:1353  OwnableInvalidOwner(address(0)) */\n  mload(0x40)\n  0x1e4fbdf700000000000000000000000000000000000000000000000000000000\n  dup2\n  mstore\n  0x04\n  add\n  tag_10\n  swap2\n  swap1\n  tag_11\n  jump\t// in\ntag_10:\n  mload(0x40)\n  dup1\n  swap2\n  sub\n  swap1\n  revert\n    /* \"@openzeppelin/contracts/access/Ownable.sol\":1269:1364  if (initialOwner == address(0)) {... */\ntag_9:\n    /* \"@openzeppelin/contracts/access/Ownable.sol\":1373:1405  _transferOwnership(initialOwner) */\n  tag_12\n    /* \"@openzeppelin/contracts/access/Ownable.sol\":1392:1404  initialOwner */\n  dup2\n    /* \"@openzeppelin/contracts/access/Ownable.sol\":1373:1391  _transferOwnership */\n  shl(0x20, tag_13)\n    /* \"@openzeppelin/contracts/access/Ownable.sol\":1373:1405  _transferOwnership(initialOwner) */\n  0x20\n  shr\n  jump\t// in\ntag_12:\n    /* \"@openzeppelin/contracts/access/Ownable.sol\":1225:1412  constructor(address initialOwner) {... */\n  pop\n    /* \"@openzeppelin/contracts/utils/ReentrancyGuard.sol\":1857:1858  1 */\n  0x01\n    /* \"@openzeppelin/contracts/utils/ReentrancyGuard.sol\":2061:2068  _status */\n  dup1\n    /* \"@openzeppelin/contracts/utils/ReentrancyGuard.sol\":2061:2082  _status = NOT_ENTERED */\n  dup2\n  swap1\n  sstore\n  pop\n    /* \"@openzeppelin/contracts/utils/Pausable.sol\":1241:1246  false */\n  0x00\n    /* \"@openzeppelin/contracts/utils/Pausable.sol\":1231:1238  _paused */\n  0x02\n  0x00\n    /* \"@openzeppelin/contracts/utils/Pausable.sol\":1231:1246  _paused = false */\n  0x0100\n  exp\n  dup2\n  sload\n  dup2\n  0xff\n  mul\n  not\n  and\n  swap1\n  dup4\n  iszero\n  iszero\n  mul\n  or\n  swap1\n  sstore\n  pop\n    /* \"security/IPAnonymizer.sol\":1687:1688  0 */\n  0x00\n    /* \"security/IPAnonymizer.sol\":1666:1689  _verifier != address(0) */\n  0xffffffffffffffffffffffffffffffffffffffff\n  and\n    /* \"security/IPAnonymizer.sol\":1666:1675  _verifier */\n  dup3\n    /* \"security/IPAnonymizer.sol\":1666:1689  _verifier != address(0) */\n  0xffffffffffffffffffffffffffffffffffffffff\n  and\n  sub\n    /* \"security/IPAnonymizer.sol\":1658:1710  require(_verifier != address(0), \"Invalid verifier\") */\n  tag_17\n  jumpi\n  mload(0x40)\n  0x08c379a000000000000000000000000000000000000000000000000000000000\n  dup2\n  mstore\n  0x04\n  add\n  tag_18\n  swap1\n  tag_19\n  jump\t// in\ntag_18:\n  mload(0x40)\n  dup1\n  swap2\n  sub\n  swap1\n  revert\ntag_17:\n    /* \"security/IPAnonymizer.sol\":1752:1753  0 */\n  0x00\n    /* \"security/IPAnonymizer.sol\":1728:1754  initialOwner != address(0) */\n  0xffffffffffffffffffffffffffffffffffffffff\n  and\n    /* \"security/IPAnonymizer.sol\":1728:1740  initialOwner */\n  dup2\n    /* \"security/IPAnonymizer.sol\":1728:1754  initialOwner != address(0) */\n  0xffffffffffffffffffffffffffffffffffffffff\n  and\n  sub\n    /* \"security/IPAnonymizer.sol\":1720:1772  require(initialOwner != address(0), \"Invalid owner\") */\n  tag_20\n  jumpi\n  mload(0x40)\n  0x08c379a000000000000000000000000000000000000000000000000000000000\n  dup2\n  mstore\n  0x04\n  add\n  tag_21\n  swap1\n  tag_22\n  jump\t// in\ntag_21:\n  mload(0x40)\n  dup1\n  swap2\n  sub\n  swap1\n  revert\ntag_20:\n    /* \"security/IPAnonymizer.sol\":1814:1823  _verifier */\n  dup2\n    /* \"security/IPAnonymizer.sol\":1791:1799  verifier */\n  0x02\n  0x01\n    /* \"security/IPAnonymizer.sol\":1791:1824  verifier = IZKVerifier(_verifier) */\n  0x0100\n  exp\n  dup2\n  sload\n  dup2\n  0xffffffffffffffffffffffffffffffffffffffff\n  mul\n  not\n  and\n  swap1\n  dup4\n  0xffffffffffffffffffffffffffffffffffffffff\n  and\n  mul\n  or\n  swap1\n  sstore\n  pop\n    /* \"security/IPAnonymizer.sol\":1834:1842  _pause() */\n  tag_23\n    /* \"security/IPAnonymizer.sol\":1834:1840  _pause */\n  shl(0x20, tag_24)\n    /* \"security/IPAnonymizer.sol\":1834:1842  _pause() */\n  0x20\n  shr\n  jump\t// in\ntag_23:\n    /* \"security/IPAnonymizer.sol\":1551:1878  constructor(... */\n  pop\n  pop\n    /* \"security/IPAnonymizer.sol\":380:6522  contract IPAnonymizer is Ownable, ReentrancyGuard, Pausable {... */\n  jump(tag_25)\n    /* \"@openzeppelin/contracts/access/Ownable.sol\":2912:3099  function _transferOwnership(address newOwner) internal virtual {... */\ntag_13:\n    /* \"@openzeppelin/contracts/access/Ownable.sol\":2985:3001  address oldOwner */\n  0x00\n    /* \"@openzeppelin/contracts/access/Ownable.sol\":3004:3010  _owner */\n  dup1\n  0x00\n  swap1\n  sload\n  swap1\n  0x0100\n  exp\n  swap1\n  div\n  0xffffffffffffffffffffffffffffffffffffffff\n  and\n    /* \"@openzeppelin/contracts/access/Ownable.sol\":2985:3010  address oldOwner = _owner */\n  swap1\n  pop\n    /* \"@openzeppelin/contracts/access/Ownable.sol\":3029:3037  newOwner */\n  dup2\n    /* \"@openzeppelin/contracts/access/Ownable.sol\":3020:3026  _owner */\n  0x00\n  dup1\n    /* \"@openzeppelin/contracts/access/Ownable.sol\":3020:3037  _owner = newOwner */\n  0x0100\n  exp\n  dup2\n  sload\n  dup2\n  0xffffffffffffffffffffffffffffffffffffffff\n  mul\n  not\n  and\n  swap1\n  dup4\n  0xffffffffffffffffffffffffffffffffffffffff\n  and\n  mul\n  or\n  swap1\n  sstore\n  pop\n    /* \"@openzeppelin/contracts/access/Ownable.sol\":3083:3091  newOwner */\n  dup2\n    /* \"@openzeppelin/contracts/access/Ownable.sol\":3052:3092  OwnershipTransferred(oldOwner, newOwner) */\n  0xffffffffffffffffffffffffffffffffffffffff\n  and\n    /* \"@openzeppelin/contracts/access/Ownable.sol\":3073:3081  oldOwner */\n  dup2\n    /* \"@openzeppelin/contracts/access/Ownable.sol\":3052:3092  OwnershipTransferred(oldOwner, newOwner) */\n  0xffffffffffffffffffffffffffffffffffffffff\n  and\n  0x8be0079c531659141344cd1fd0a4f28419497f9722a3daafe3b4186f6b6457e0\n  mload(0x40)\n  mload(0x40)\n  dup1\n  swap2\n  sub\n  swap1\n  log3\n    /* \"@openzeppelin/contracts/access/Ownable.sol\":2975:3099  {... */\n  pop\n    /* \"@openzeppelin/contracts/access/Ownable.sol\":2912:3099  function _transferOwnership(address newOwner) internal virtual {... */\n  pop\n  jump\t// out\n    /* \"@openzeppelin/contracts/utils/Pausable.sol\":2463:2578  function _pause() internal virtual whenNotPaused {... */\ntag_24:\n    /* \"@openzeppelin/contracts/utils/Pausable.sol\":1474:1493  _requireNotPaused() */\n  tag_28\n    /* \"@openzeppelin/contracts/utils/Pausable.sol\":1474:1491  _requireNotPaused */\n  shl(0x20, tag_29)\n    /* \"@openzeppelin/contracts/utils/Pausable.sol\":1474:1493  _requireNotPaused() */\n  0x20\n  shr\n  jump\t// in\ntag_28:\n    /* \"@openzeppelin/contracts/utils/Pausable.sol\":2532:2536  true */\n  0x01\n    /* \"@openzeppelin/contracts/utils/Pausable.sol\":2522:2529  _paused */\n  0x02\n  0x00\n    /* \"@openzeppelin/contracts/utils/Pausable.sol\":2522:2536  _paused = true */\n  0x0100\n  exp\n  dup2\n  sload\n  dup2\n  0xff\n  mul\n  not\n  and\n  swap1\n  dup4\n  iszero\n  iszero\n  mul\n  or\n  swap1\n  sstore\n  pop\n    /* \"@openzeppelin/contracts/utils/Pausable.sol\":2551:2571  Paused(_msgSender()) */\n  0x62e78cea01bee320cd4e420270b5ea74000d11b0c9f74754ebdbfc544b05a258\n    /* \"@openzeppelin/contracts/utils/Pausable.sol\":2558:2570  _msgSender() */\n  tag_31\n    /* \"@openzeppelin/contracts/utils/Pausable.sol\":2558:2568  _msgSender */\n  shl(0x20, tag_32)\n    /* \"@openzeppelin/contracts/utils/Pausable.sol\":2558:2570  _msgSender() */\n  0x20\n  shr\n  jump\t// in\ntag_31:\n    /* \"@openzeppelin/contracts/utils/Pausable.sol\":2551:2571  Paused(_msgSender()) */\n  mload(0x40)\n  tag_33\n  swap2\n  swap1\n  tag_11\n  jump\t// in\ntag_33:\n  mload(0x40)\n  dup1\n  swap2\n  sub\n  swap1\n  log1\n    /* \"@openzeppelin/contracts/utils/Pausable.sol\":2463:2578  function _pause() internal virtual whenNotPaused {... */\n  jump\t// out\n    /* \"@openzeppelin/contracts/utils/Pausable.sol\":2002:2130  function _requireNotPaused() internal view virtual {... */\ntag_29:\n    /* \"@openzeppelin/contracts/utils/Pausable.sol\":2067:2075  paused() */\n  tag_35\n    /* \"@openzeppelin/contracts/utils/Pausable.sol\":2067:2073  paused */\n  shl(0x20, tag_36)\n    /* \"@openzeppelin/contracts/utils/Pausable.sol\":2067:2075  paused() */\n  0x20\n  shr\n  jump\t// in\ntag_35:\n    /* \"@openzeppelin/contracts/utils/Pausable.sol\":2063:2124  if (paused()) {... */\n  iszero\n  tag_37\n  jumpi\n    /* \"@openzeppelin/contracts/utils/Pausable.sol\":2098:2113  EnforcedPause() */\n  mload(0x40)\n  0xd93c066500000000000000000000000000000000000000000000000000000000\n  dup2\n  mstore\n  0x04\n  add\n  mload(0x40)\n  dup1\n  swap2\n  sub\n  swap1\n  revert\n    /* \"@openzeppelin/contracts/utils/Pausable.sol\":2063:2124  if (paused()) {... */\ntag_37:\n    /* \"@openzeppelin/contracts/utils/Pausable.sol\":2002:2130  function _requireNotPaused() internal view virtual {... */\n  jump\t// out\n    /* \"@openzeppelin/contracts/utils/Context.sol\":656:752  function _msgSender() internal view virtual returns (address) {... */\ntag_32:\n    /* \"@openzeppelin/contracts/utils/Context.sol\":709:716  address */\n  0x00\n    /* \"@openzeppelin/contracts/utils/Context.sol\":735:745  msg.sender */\n  caller\n    /* \"@openzeppelin/contracts/utils/Context.sol\":728:745  return msg.sender */\n  swap1\n  pop\n    /* \"@openzeppelin/contracts/utils/Context.sol\":656:752  function _msgSender() internal view virtual returns (address) {... */\n  swap1\n  jump\t// out\n    /* \"@openzeppelin/contracts/utils/Pausable.sol\":1850:1934  function paused() public view virtual returns (bool) {... */\ntag_36:\n    /* \"@openzeppelin/contracts/utils/Pausable.sol\":1897:1901  bool */\n  0x00\n    /* \"@openzeppelin/contracts/utils/Pausable.sol\":1920:1927  _paused */\n  0x02\n  0x00\n  swap1\n  sload\n  swap1\n  0x0100\n  exp\n  swap1\n  div\n  0xff\n  and\n    /* \"@openzeppelin/contracts/utils/Pausable.sol\":1913:1927  return _paused */\n  swap1\n  pop\n    /* \"@openzeppelin/contracts/utils/Pausable.sol\":1850:1934  function paused() public view virtual returns (bool) {... */\n  swap1\n  jump\t// out\n    /* \"#utility.yul\":88:205   */\ntag_41:\n    /* \"#utility.yul\":197:198   */\n  0x00\n    /* \"#utility.yul\":194:195   */\n  dup1\n    /* \"#utility.yul\":187:199   */\n  revert\n    /* \"#utility.yul\":334:460   */\ntag_43:\n    /* \"#utility.yul\":371:378   */\n  0x00\n    /* \"#utility.yul\":411:453   */\n  0xffffffffffffffffffffffffffffffffffffffff\n    /* \"#utility.yul\":404:409   */\n  dup3\n    /* \"#utility.yul\":400:454   */\n  and\n    /* \"#utility.yul\":389:454   */\n  swap1\n  pop\n    /* \"#utility.yul\":334:460   */\n  swap2\n  swap1\n  pop\n  jump\t// out\n    /* \"#utility.yul\":466:562   */\ntag_44:\n    /* \"#utility.yul\":503:510   */\n  0x00\n    /* \"#utility.yul\":532:556   */\n  tag_59\n    /* \"#utility.yul\":550:555   */\n  dup3\n    /* \"#utility.yul\":532:556   */\n  tag_43\n  jump\t// in\ntag_59:\n    /* \"#utility.yul\":521:556   */\n  swap1\n  pop\n    /* \"#utility.yul\":466:562   */\n  swap2\n  swap1\n  pop\n  jump\t// out\n    /* \"#utility.yul\":568:690   */\ntag_45:\n    /* \"#utility.yul\":641:665   */\n  tag_61\n    /* \"#utility.yul\":659:664   */\n  dup2\n    /* \"#utility.yul\":641:665   */\n  tag_44\n  jump\t// in\ntag_61:\n    /* \"#utility.yul\":634:639   */\n  dup2\n    /* \"#utility.yul\":631:666   */\n  eq\n    /* \"#utility.yul\":621:684   */\n  tag_62\n  jumpi\n    /* \"#utility.yul\":680:681   */\n  0x00\n    /* \"#utility.yul\":677:678   */\n  dup1\n    /* \"#utility.yul\":670:682   */\n  revert\n    /* \"#utility.yul\":621:684   */\ntag_62:\n    /* \"#utility.yul\":568:690   */\n  pop\n  jump\t// out\n    /* \"#utility.yul\":696:839   */\ntag_46:\n    /* \"#utility.yul\":753:758   */\n  0x00\n    /* \"#utility.yul\":784:790   */\n  dup2\n    /* \"#utility.yul\":778:791   */\n  mload\n    /* \"#utility.yul\":769:791   */\n  swap1\n  pop\n    /* \"#utility.yul\":800:833   */\n  tag_64\n    /* \"#utility.yul\":827:832   */\n  dup2\n    /* \"#utility.yul\":800:833   */\n  tag_45\n  jump\t// in\ntag_64:\n    /* \"#utility.yul\":696:839   */\n  swap3\n  swap2\n  pop\n  pop\n  jump\t// out\n    /* \"#utility.yul\":845:1352   */\ntag_3:\n    /* \"#utility.yul\":924:930   */\n  0x00\n    /* \"#utility.yul\":932:938   */\n  dup1\n    /* \"#utility.yul\":981:983   */\n  0x40\n    /* \"#utility.yul\":969:978   */\n  dup4\n    /* \"#utility.yul\":960:967   */\n  dup6\n    /* \"#utility.yul\":956:979   */\n  sub\n    /* \"#utility.yul\":952:984   */\n  slt\n    /* \"#utility.yul\":949:1068   */\n  iszero\n  tag_66\n  jumpi\n    /* \"#utility.yul\":987:1066   */\n  tag_67\n  tag_41\n  jump\t// in\ntag_67:\n    /* \"#utility.yul\":949:1068   */\ntag_66:\n    /* \"#utility.yul\":1107:1108   */\n  0x00\n    /* \"#utility.yul\":1132:1196   */\n  tag_68\n    /* \"#utility.yul\":1188:1195   */\n  dup6\n    /* \"#utility.yul\":1179:1185   */\n  dup3\n    /* \"#utility.yul\":1168:1177   */\n  dup7\n    /* \"#utility.yul\":1164:1186   */\n  add\n    /* \"#utility.yul\":1132:1196   */\n  tag_46\n  jump\t// in\ntag_68:\n    /* \"#utility.yul\":1122:1196   */\n  swap3\n  pop\n    /* \"#utility.yul\":1078:1206   */\n  pop\n    /* \"#utility.yul\":1245:1247   */\n  0x20\n    /* \"#utility.yul\":1271:1335   */\n  tag_69\n    /* \"#utility.yul\":1327:1334   */\n  dup6\n    /* \"#utility.yul\":1318:1324   */\n  dup3\n    /* \"#utility.yul\":1307:1316   */\n  dup7\n    /* \"#utility.yul\":1303:1325   */\n  add\n    /* \"#utility.yul\":1271:1335   */\n  tag_46\n  jump\t// in\ntag_69:\n    /* \"#utility.yul\":1261:1335   */\n  swap2\n  pop\n    /* \"#utility.yul\":1216:1345   */\n  pop\n    /* \"#utility.yul\":845:1352   */\n  swap3\n  pop\n  swap3\n  swap1\n  pop\n  jump\t// out\n    /* \"#utility.yul\":1358:1476   */\ntag_47:\n    /* \"#utility.yul\":1445:1469   */\n  tag_71\n    /* \"#utility.yul\":1463:1468   */\n  dup2\n    /* \"#utility.yul\":1445:1469   */\n  tag_44\n  jump\t// in\ntag_71:\n    /* \"#utility.yul\":1440:1443   */\n  dup3\n    /* \"#utility.yul\":1433:1470   */\n  mstore\n    /* \"#utility.yul\":1358:1476   */\n  pop\n  pop\n  jump\t// out\n    /* \"#utility.yul\":1482:1704   */\ntag_11:\n    /* \"#utility.yul\":1575:1579   */\n  0x00\n    /* \"#utility.yul\":1613:1615   */\n  0x20\n    /* \"#utility.yul\":1602:1611   */\n  dup3\n    /* \"#utility.yul\":1598:1616   */\n  add\n    /* \"#utility.yul\":1590:1616   */\n  swap1\n  pop\n    /* \"#utility.yul\":1626:1697   */\n  tag_73\n    /* \"#utility.yul\":1694:1695   */\n  0x00\n    /* \"#utility.yul\":1683:1692   */\n  dup4\n    /* \"#utility.yul\":1679:1696   */\n  add\n    /* \"#utility.yul\":1670:1676   */\n  dup5\n    /* \"#utility.yul\":1626:1697   */\n  tag_47\n  jump\t// in\ntag_73:\n    /* \"#utility.yul\":1482:1704   */\n  swap3\n  swap2\n  pop\n  pop\n  jump\t// out\n    /* \"#utility.yul\":1710:1879   */\ntag_48:\n    /* \"#utility.yul\":1794:1805   */\n  0x00\n    /* \"#utility.yul\":1828:1834   */\n  dup3\n    /* \"#utility.yul\":1823:1826   */\n  dup3\n    /* \"#utility.yul\":1816:1835   */\n  mstore\n    /* \"#utility.yul\":1868:1872   */\n  0x20\n    /* \"#utility.yul\":1863:1866   */\n  dup3\n    /* \"#utility.yul\":1859:1873   */\n  add\n    /* \"#utility.yul\":1844:1873   */\n  swap1\n  pop\n    /* \"#utility.yul\":1710:1879   */\n  swap3\n  swap2\n  pop\n  pop\n  jump\t// out\n    /* \"#utility.yul\":1885:2051   */\ntag_49:\n    /* \"#utility.yul\":2025:2043   */\n  0x496e76616c696420766572696669657200000000000000000000000000000000\n    /* \"#utility.yul\":2021:2022   */\n  0x00\n    /* \"#utility.yul\":2013:2019   */\n  dup3\n    /* \"#utility.yul\":2009:2023   */\n  add\n    /* \"#utility.yul\":2002:2044   */\n  mstore\n    /* \"#utility.yul\":1885:2051   */\n  pop\n  jump\t// out\n    /* \"#utility.yul\":2057:2423   */\ntag_50:\n    /* \"#utility.yul\":2199:2202   */\n  0x00\n    /* \"#utility.yul\":2220:2287   */\n  tag_77\n    /* \"#utility.yul\":2284:2286   */\n  0x10\n    /* \"#utility.yul\":2279:2282   */\n  dup4\n    /* \"#utility.yul\":2220:2287   */\n  tag_48\n  jump\t// in\ntag_77:\n    /* \"#utility.yul\":2213:2287   */\n  swap2\n  pop\n    /* \"#utility.yul\":2296:2389   */\n  tag_78\n    /* \"#utility.yul\":2385:2388   */\n  dup3\n    /* \"#utility.yul\":2296:2389   */\n  tag_49\n  jump\t// in\ntag_78:\n    /* \"#utility.yul\":2414:2416   */\n  0x20\n    /* \"#utility.yul\":2409:2412   */\n  dup3\n    /* \"#utility.yul\":2405:2417   */\n  add\n    /* \"#utility.yul\":2398:2417   */\n  swap1\n  pop\n    /* \"#utility.yul\":2057:2423   */\n  swap2\n  swap1\n  pop\n  jump\t// out\n    /* \"#utility.yul\":2429:2848   */\ntag_19:\n    /* \"#utility.yul\":2595:2599   */\n  0x00\n    /* \"#utility.yul\":2633:2635   */\n  0x20\n    /* \"#utility.yul\":2622:2631   */\n  dup3\n    /* \"#utility.yul\":2618:2636   */\n  add\n    /* \"#utility.yul\":2610:2636   */\n  swap1\n  pop\n    /* \"#utility.yul\":2682:2691   */\n  dup2\n    /* \"#utility.yul\":2676:2680   */\n  dup2\n    /* \"#utility.yul\":2672:2692   */\n  sub\n    /* \"#utility.yul\":2668:2669   */\n  0x00\n    /* \"#utility.yul\":2657:2666   */\n  dup4\n    /* \"#utility.yul\":2653:2670   */\n  add\n    /* \"#utility.yul\":2646:2693   */\n  mstore\n    /* \"#utility.yul\":2710:2841   */\n  tag_80\n    /* \"#utility.yul\":2836:2840   */\n  dup2\n    /* \"#utility.yul\":2710:2841   */\n  tag_50\n  jump\t// in\ntag_80:\n    /* \"#utility.yul\":2702:2841   */\n  swap1\n  pop\n    /* \"#utility.yul\":2429:2848   */\n  swap2\n  swap1\n  pop\n  jump\t// out\n    /* \"#utility.yul\":2854:3017   */\ntag_51:\n    /* \"#utility.yul\":2994:3009   */\n  0x496e76616c6964206f776e657200000000000000000000000000000000000000\n    /* \"#utility.yul\":2990:2991   */\n  0x00\n    /* \"#utility.yul\":2982:2988   */\n  dup3\n    /* \"#utility.yul\":2978:2992   */\n  add\n    /* \"#utility.yul\":2971:3010   */\n  mstore\n    /* \"#utility.yul\":2854:3017   */\n  pop\n  jump\t// out\n    /* \"#utility.yul\":3023:3389   */\ntag_52:\n    /* \"#utility.yul\":3165:3168   */\n  0x00\n    /* \"#utility.yul\":3186:3253   */\n  tag_83\n    /* \"#utility.yul\":3250:3252   */\n  0x0d\n    /* \"#utility.yul\":3245:3248   */\n  dup4\n    /* \"#utility.yul\":3186:3253   */\n  tag_48\n  jump\t// in\ntag_83:\n    /* \"#utility.yul\":3179:3253   */\n  swap2\n  pop\n    /* \"#utility.yul\":3262:3355   */\n  tag_84\n    /* \"#utility.yul\":3351:3354   */\n  dup3\n    /* \"#utility.yul\":3262:3355   */\n  tag_51\n  jump\t// in\ntag_84:\n    /* \"#utility.yul\":3380:3382   */\n  0x20\n    /* \"#utility.yul\":3375:3378   */\n  dup3\n    /* \"#utility.yul\":3371:3383   */\n  add\n    /* \"#utility.yul\":3364:3383   */\n  swap1\n  pop\n    /* \"#utility.yul\":3023:3389   */\n  swap2\n  swap1\n  pop\n  jump\t// out\n    /* \"#utility.yul\":3395:3814   */\ntag_22:\n    /* \"#utility.yul\":3561:3565   */\n  0x00\n    /* \"#utility.yul\":3599:3601   */\n  0x20\n    /* \"#utility.yul\":3588:3597   */\n  dup3\n    /* \"#utility.yul\":3584:3602   */\n  add\n    /* \"#utility.yul\":3576:3602   */\n  swap1\n  pop\n    /* \"#utility.yul\":3648:3657   */\n  dup2\n    /* \"#utility.yul\":3642:3646   */\n  dup2\n    /* \"#utility.yul\":3638:3658   */\n  sub\n    /* \"#utility.yul\":3634:3635   */\n  0x00\n    /* \"#utility.yul\":3623:3632   */\n  dup4\n    /* \"#utility.yul\":3619:3636   */\n  add\n    /* \"#utility.yul\":3612:3659   */\n  mstore\n    /* \"#utility.yul\":3676:3807   */\n  tag_86\n    /* \"#utility.yul\":3802:3806   */\n  dup2\n    /* \"#utility.yul\":3676:3807   */\n  tag_52\n  jump\t// in\ntag_86:\n    /* \"#utility.yul\":3668:3807   */\n  swap1\n  pop\n    /* \"#utility.yul\":3395:3814   */\n  swap2\n  swap1\n  pop\n  jump\t// out\n    /* \"security/IPAnonymizer.sol\":380:6522  contract IPAnonymizer is Ownable, ReentrancyGuard, Pausable {... */\ntag_25:\n  dataSize(sub_0)\n  dup1\n  dataOffset(sub_0)\n  0x00\n  codecopy\n  0x00\n  return\nstop\n\nsub_0: assembly {\n        /* \"security/IPAnonymizer.sol\":380:6522  contract IPAnonymizer is Ownable, ReentrancyGuard, Pausable {... */\n      mstore(0x40, 0x80)\n      callvalue\n      dup1\n      iszero\n      tag_1\n      jumpi\n      0x00\n      dup1\n      revert\n    tag_1:\n      pop\n      jumpi(tag_2, lt(calldatasize, 0x04))\n      shr(0xe0, calldataload(0x00))\n      dup1\n      0x715018a6\n      gt\n      tag_16\n      jumpi\n      dup1\n      0x97fc007c\n      gt\n      tag_17\n      jumpi\n      dup1\n      0x97fc007c\n      eq\n      tag_12\n      jumpi\n      dup1\n      0xc8fea3a5\n      eq\n      tag_13\n      jumpi\n      dup1\n      0xcc3e12e8\n      eq\n      tag_14\n      jumpi\n      dup1\n      0xf2fde38b\n      eq\n      tag_15\n      jumpi\n      jump(tag_2)\n    tag_17:\n      dup1\n      0x715018a6\n      eq\n      tag_9\n      jumpi\n      dup1\n      0x8456cb59\n      eq\n      tag_10\n      jumpi\n      dup1\n      0x8da5cb5b\n      eq\n      tag_11\n      jumpi\n      jump(tag_2)\n    tag_16:\n      dup1\n      0x12425ebb\n      eq\n      tag_3\n      jumpi\n      dup1\n      0x2b7ac3f3\n      eq\n      tag_4\n      jumpi\n      dup1\n      0x2c7f7d44\n      eq\n      tag_5\n      jumpi\n      dup1\n      0x3f4ba83a\n      eq\n      tag_6\n      jumpi\n      dup1\n      0x451d577f\n      eq\n      tag_7\n      jumpi\n      dup1\n      0x5c975abb\n      eq\n      tag_8\n      jumpi\n    tag_2:\n      0x00\n      dup1\n      revert\n        /* \"security/IPAnonymizer.sol\":5008:5456  function executeRevocation(bytes32 ipHash) external onlyOwner {... */\n    tag_3:\n      tag_18\n      0x04\n      dup1\n      calldatasize\n      sub\n      dup2\n      add\n      swap1\n      tag_19\n      swap2\n      swap1\n      tag_20\n      jump\t// in\n    tag_19:\n      tag_21\n      jump\t// in\n    tag_18:\n      stop\n        /* \"security/IPAnonymizer.sol\":469:496  IZKVerifier public verifier */\n    tag_4:\n      tag_22\n      tag_23\n      jump\t// in\n    tag_22:\n      mload(0x40)\n      tag_24\n      swap2\n      swap1\n      tag_25\n      jump\t// in\n    tag_24:\n      mload(0x40)\n      dup1\n      swap2\n      sub\n      swap1\n      return\n        /* \"security/IPAnonymizer.sol\":4142:4470  function getIPStatus(... */\n    tag_5:\n      tag_26\n      0x04\n      dup1\n      calldatasize\n      sub\n      dup2\n      add\n      swap1\n      tag_27\n      swap2\n      swap1\n      tag_20\n      jump\t// in\n    tag_27:\n      tag_28\n      jump\t// in\n    tag_26:\n      mload(0x40)\n      tag_29\n      swap4\n      swap3\n      swap2\n      swap1\n      tag_30\n      jump\t// in\n    tag_29:\n      mload(0x40)\n      dup1\n      swap2\n      sub\n      swap1\n      return\n        /* \"security/IPAnonymizer.sol\":6455:6520  function unpause() external onlyOwner {... */\n    tag_6:\n      tag_31\n      tag_32\n      jump\t// in\n    tag_31:\n      stop\n        /* \"security/IPAnonymizer.sol\":2020:4064  function registerAnonymizedIP(... */\n    tag_7:\n      tag_33\n      0x04\n      dup1\n      calldatasize\n      sub\n      dup2\n      add\n      swap1\n      tag_34\n      swap2\n      swap1\n      tag_35\n      jump\t// in\n    tag_34:\n      tag_36\n      jump\t// in\n    tag_33:\n      stop\n        /* \"@openzeppelin/contracts/utils/Pausable.sol\":1850:1934  function paused() public view virtual returns (bool) {... */\n    tag_8:\n      tag_37\n      tag_38\n      jump\t// in\n    tag_37:\n      mload(0x40)\n      tag_39\n      swap2\n      swap1\n      tag_40\n      jump\t// in\n    tag_39:\n      mload(0x40)\n      dup1\n      swap2\n      sub\n      swap1\n      return\n        /* \"@openzeppelin/contracts/access/Ownable.sol\":2293:2394  function renounceOwnership() public virtual onlyOwner {... */\n    tag_9:\n      tag_41\n      tag_42\n      jump\t// in\n    tag_41:\n      stop\n        /* \"security/IPAnonymizer.sol\":6388:6449  function pause() external onlyOwner {... */\n    tag_10:\n      tag_43\n      tag_44\n      jump\t// in\n    tag_43:\n      stop\n        /* \"@openzeppelin/contracts/access/Ownable.sol\":1638:1723  function owner() public view virtual returns (address) {... */\n    tag_11:\n      tag_45\n      tag_46\n      jump\t// in\n    tag_45:\n      mload(0x40)\n      tag_47\n      swap2\n      swap1\n      tag_48\n      jump\t// in\n    tag_47:\n      mload(0x40)\n      dup1\n      swap2\n      sub\n      swap1\n      return\n        /* \"security/IPAnonymizer.sol\":5527:5969  function updateVerifier(address _newVerifier) external onlyOwner whenPaused {... */\n    tag_12:\n      tag_49\n      0x04\n      dup1\n      calldatasize\n      sub\n      dup2\n      add\n      swap1\n      tag_50\n      swap2\n      swap1\n      tag_51\n      jump\t// in\n    tag_50:\n      tag_52\n      jump\t// in\n    tag_49:\n      stop\n        /* \"security/IPAnonymizer.sol\":6039:6347  function clearOldBlockCounts(uint256 blocksBack) external {... */\n    tag_13:\n      tag_53\n      0x04\n      dup1\n      calldatasize\n      sub\n      dup2\n      add\n      swap1\n      tag_54\n      swap2\n      swap1\n      tag_55\n      jump\t// in\n    tag_54:\n      tag_56\n      jump\t// in\n    tag_53:\n      stop\n        /* \"security/IPAnonymizer.sol\":4554:4932  function requestRevocation(bytes32 ipHash) external onlyOwner {... */\n    tag_14:\n      tag_57\n      0x04\n      dup1\n      calldatasize\n      sub\n      dup2\n      add\n      swap1\n      tag_58\n      swap2\n      swap1\n      tag_20\n      jump\t// in\n    tag_58:\n      tag_59\n      jump\t// in\n    tag_57:\n      stop\n        /* \"@openzeppelin/contracts/access/Ownable.sol\":2543:2758  function transferOwnership(address newOwner) public virtual onlyOwner {... */\n    tag_15:\n      tag_60\n      0x04\n      dup1\n      calldatasize\n      sub\n      dup2\n      add\n      swap1\n      tag_61\n      swap2\n      swap1\n      tag_51\n      jump\t// in\n    tag_61:\n      tag_62\n      jump\t// in\n    tag_60:\n      stop\n        /* \"security/IPAnonymizer.sol\":5008:5456  function executeRevocation(bytes32 ipHash) external onlyOwner {... */\n    tag_21:\n        /* \"@openzeppelin/contracts/access/Ownable.sol\":1531:1544  _checkOwner() */\n      tag_64\n        /* \"@openzeppelin/contracts/access/Ownable.sol\":1531:1542  _checkOwner */\n      tag_65\n        /* \"@openzeppelin/contracts/access/Ownable.sol\":1531:1544  _checkOwner() */\n      jump\t// in\n    tag_64:\n        /* \"security/IPAnonymizer.sol\":5080:5099  uint256 requestTime */\n      0x00\n        /* \"security/IPAnonymizer.sol\":5102:5120  revocationRequests */\n      0x05\n        /* \"security/IPAnonymizer.sol\":5102:5128  revocationRequests[ipHash] */\n      0x00\n        /* \"security/IPAnonymizer.sol\":5121:5127  ipHash */\n      dup4\n        /* \"security/IPAnonymizer.sol\":5102:5128  revocationRequests[ipHash] */\n      dup2\n      mstore\n      0x20\n      add\n      swap1\n      dup2\n      mstore\n      0x20\n      add\n      0x00\n      keccak256\n      sload\n        /* \"security/IPAnonymizer.sol\":5080:5128  uint256 requestTime = revocationRequests[ipHash] */\n      swap1\n      pop\n        /* \"security/IPAnonymizer.sol\":5161:5162  0 */\n      0x00\n        /* \"security/IPAnonymizer.sol\":5146:5157  requestTime */\n      dup2\n        /* \"security/IPAnonymizer.sol\":5146:5162  requestTime != 0 */\n      sub\n        /* \"security/IPAnonymizer.sol\":5138:5190  require(requestTime != 0, \"No revocation requested\") */\n      tag_67\n      jumpi\n      mload(0x40)\n      0x08c379a000000000000000000000000000000000000000000000000000000000\n      dup2\n      mstore\n      0x04\n      add\n      tag_68\n      swap1\n      tag_69\n      jump\t// in\n    tag_68:\n      mload(0x40)\n      dup1\n      swap2\n      sub\n      swap1\n      revert\n    tag_67:\n        /* \"security/IPAnonymizer.sol\":5227:5238  requestTime */\n      dup1\n        /* \"security/IPAnonymizer.sol\":5208:5223  block.timestamp */\n      timestamp\n        /* \"security/IPAnonymizer.sol\":5208:5238  block.timestamp >= requestTime */\n      lt\n      iszero\n        /* \"security/IPAnonymizer.sol\":5200:5258  require(block.timestamp >= requestTime, \"Timelock active\") */\n      tag_70\n      jumpi\n      mload(0x40)\n      0x08c379a000000000000000000000000000000000000000000000000000000000\n      dup2\n      mstore\n      0x04\n      add\n      tag_71\n      swap1\n      tag_72\n      jump\t// in\n    tag_71:\n      mload(0x40)\n      dup1\n      swap2\n      sub\n      swap1\n      revert\n    tag_70:\n        /* \"security/IPAnonymizer.sol\":5284:5297  anonymizedIPs */\n      0x03\n        /* \"security/IPAnonymizer.sol\":5284:5305  anonymizedIPs[ipHash] */\n      0x00\n        /* \"security/IPAnonymizer.sol\":5298:5304  ipHash */\n      dup4\n        /* \"security/IPAnonymizer.sol\":5284:5305  anonymizedIPs[ipHash] */\n      dup2\n      mstore\n      0x20\n      add\n      swap1\n      dup2\n      mstore\n      0x20\n      add\n      0x00\n      keccak256\n      0x00\n        /* \"security/IPAnonymizer.sol\":5277:5305  delete anonymizedIPs[ipHash] */\n      0x0100\n      exp\n      dup2\n      sload\n      swap1\n      0xff\n      mul\n      not\n      and\n      swap1\n      sstore\n        /* \"security/IPAnonymizer.sol\":5322:5339  registrationTimes */\n      0x04\n        /* \"security/IPAnonymizer.sol\":5322:5347  registrationTimes[ipHash] */\n      0x00\n        /* \"security/IPAnonymizer.sol\":5340:5346  ipHash */\n      dup4\n        /* \"security/IPAnonymizer.sol\":5322:5347  registrationTimes[ipHash] */\n      dup2\n      mstore\n      0x20\n      add\n      swap1\n      dup2\n      mstore\n      0x20\n      add\n      0x00\n      keccak256\n        /* \"security/IPAnonymizer.sol\":5315:5347  delete registrationTimes[ipHash] */\n      0x00\n      swap1\n      sstore\n        /* \"security/IPAnonymizer.sol\":5364:5382  revocationRequests */\n      0x05\n        /* \"security/IPAnonymizer.sol\":5364:5390  revocationRequests[ipHash] */\n      0x00\n        /* \"security/IPAnonymizer.sol\":5383:5389  ipHash */\n      dup4\n        /* \"security/IPAnonymizer.sol\":5364:5390  revocationRequests[ipHash] */\n      dup2\n      mstore\n      0x20\n      add\n      swap1\n      dup2\n      mstore\n      0x20\n      add\n      0x00\n      keccak256\n        /* \"security/IPAnonymizer.sol\":5357:5390  delete revocationRequests[ipHash] */\n      0x00\n      swap1\n      sstore\n        /* \"security/IPAnonymizer.sol\":5433:5448  block.timestamp */\n      timestamp\n        /* \"security/IPAnonymizer.sol\":5425:5431  ipHash */\n      dup3\n        /* \"security/IPAnonymizer.sol\":5406:5449  RevocationExecuted(ipHash, block.timestamp) */\n      0x30325bca1b821e46f6842e91031cc7467a71e2a32f6eae9d8c97643b2484224f\n      mload(0x40)\n      mload(0x40)\n      dup1\n      swap2\n      sub\n      swap1\n      log3\n        /* \"security/IPAnonymizer.sol\":5070:5456  {... */\n      pop\n        /* \"security/IPAnonymizer.sol\":5008:5456  function executeRevocation(bytes32 ipHash) external onlyOwner {... */\n      pop\n      jump\t// out\n        /* \"security/IPAnonymizer.sol\":469:496  IZKVerifier public verifier */\n    tag_23:\n      0x02\n      0x01\n      swap1\n      sload\n      swap1\n      0x0100\n      exp\n      swap1\n      div\n      0xffffffffffffffffffffffffffffffffffffffff\n      and\n      dup2\n      jump\t// out\n        /* \"security/IPAnonymizer.sol\":4142:4470  function getIPStatus(... */\n    tag_28:\n        /* \"security/IPAnonymizer.sol\":4225:4242  bool isAnonymized */\n      0x00\n        /* \"security/IPAnonymizer.sol\":4252:4276  uint256 registrationTime */\n      dup1\n        /* \"security/IPAnonymizer.sol\":4286:4315  uint256 pendingRevocationTime */\n      0x00\n        /* \"security/IPAnonymizer.sol\":4353:4366  anonymizedIPs */\n      0x03\n        /* \"security/IPAnonymizer.sol\":4353:4374  anonymizedIPs[ipHash] */\n      0x00\n        /* \"security/IPAnonymizer.sol\":4367:4373  ipHash */\n      dup6\n        /* \"security/IPAnonymizer.sol\":4353:4374  anonymizedIPs[ipHash] */\n      dup2\n      mstore\n      0x20\n      add\n      swap1\n      dup2\n      mstore\n      0x20\n      add\n      0x00\n      keccak256\n      0x00\n      swap1\n      sload\n      swap1\n      0x0100\n      exp\n      swap1\n      div\n      0xff\n      and\n        /* \"security/IPAnonymizer.sol\":4388:4405  registrationTimes */\n      0x04\n        /* \"security/IPAnonymizer.sol\":4388:4413  registrationTimes[ipHash] */\n      0x00\n        /* \"security/IPAnonymizer.sol\":4406:4412  ipHash */\n      dup7\n        /* \"security/IPAnonymizer.sol\":4388:4413  registrationTimes[ipHash] */\n      dup2\n      mstore\n      0x20\n      add\n      swap1\n      dup2\n      mstore\n      0x20\n      add\n      0x00\n      keccak256\n      sload\n        /* \"security/IPAnonymizer.sol\":4427:4445  revocationRequests */\n      0x05\n        /* \"security/IPAnonymizer.sol\":4427:4453  revocationRequests[ipHash] */\n      0x00\n        /* \"security/IPAnonymizer.sol\":4446:4452  ipHash */\n      dup8\n        /* \"security/IPAnonymizer.sol\":4427:4453  revocationRequests[ipHash] */\n      dup2\n      mstore\n      0x20\n      add\n      swap1\n      dup2\n      mstore\n      0x20\n      add\n      0x00\n      keccak256\n      sload\n        /* \"security/IPAnonymizer.sol\":4332:4463  return (... */\n      swap3\n      pop\n      swap3\n      pop\n      swap3\n      pop\n        /* \"security/IPAnonymizer.sol\":4142:4470  function getIPStatus(... */\n      swap2\n      swap4\n      swap1\n      swap3\n      pop\n      jump\t// out\n        /* \"security/IPAnonymizer.sol\":6455:6520  function unpause() external onlyOwner {... */\n    tag_32:\n        /* \"@openzeppelin/contracts/access/Ownable.sol\":1531:1544  _checkOwner() */\n      tag_75\n        /* \"@openzeppelin/contracts/access/Ownable.sol\":1531:1542  _checkOwner */\n      tag_65\n        /* \"@openzeppelin/contracts/access/Ownable.sol\":1531:1544  _checkOwner() */\n      jump\t// in\n    tag_75:\n        /* \"security/IPAnonymizer.sol\":6503:6513  _unpause() */\n      tag_77\n        /* \"security/IPAnonymizer.sol\":6503:6511  _unpause */\n      tag_78\n        /* \"security/IPAnonymizer.sol\":6503:6513  _unpause() */\n      jump\t// in\n    tag_77:\n        /* \"security/IPAnonymizer.sol\":6455:6520  function unpause() external onlyOwner {... */\n      jump\t// out\n        /* \"security/IPAnonymizer.sol\":2020:4064  function registerAnonymizedIP(... */\n    tag_36:\n        /* \"@openzeppelin/contracts/utils/ReentrancyGuard.sol\":2500:2521  _nonReentrantBefore() */\n      tag_80\n        /* \"@openzeppelin/contracts/utils/ReentrancyGuard.sol\":2500:2519  _nonReentrantBefore */\n      tag_81\n        /* \"@openzeppelin/contracts/utils/ReentrancyGuard.sol\":2500:2521  _nonReentrantBefore() */\n      jump\t// in\n    tag_80:\n        /* \"@openzeppelin/contracts/utils/Pausable.sol\":1474:1493  _requireNotPaused() */\n      tag_83\n        /* \"@openzeppelin/contracts/utils/Pausable.sol\":1474:1491  _requireNotPaused */\n      tag_84\n        /* \"@openzeppelin/contracts/utils/Pausable.sol\":1474:1493  _requireNotPaused() */\n      jump\t// in\n    tag_83:\n        /* \"security/IPAnonymizer.sol\":2209:2210  0 */\n      0x00\n        /* \"security/IPAnonymizer.sol\":2201:2211  bytes32(0) */\n      dup1\n      shl\n        /* \"security/IPAnonymizer.sol\":2191:2197  ipHash */\n      dup4\n        /* \"security/IPAnonymizer.sol\":2191:2211  ipHash != bytes32(0) */\n      sub\n        /* \"security/IPAnonymizer.sol\":2183:2231  require(ipHash != bytes32(0), \"Invalid IP hash\") */\n      tag_86\n      jumpi\n      mload(0x40)\n      0x08c379a000000000000000000000000000000000000000000000000000000000\n      dup2\n      mstore\n      0x04\n      add\n      tag_87\n      swap1\n      tag_88\n      jump\t// in\n    tag_87:\n      mload(0x40)\n      dup1\n      swap2\n      sub\n      swap1\n      revert\n    tag_86:\n        /* \"security/IPAnonymizer.sol\":2246:2259  anonymizedIPs */\n      0x03\n        /* \"security/IPAnonymizer.sol\":2246:2267  anonymizedIPs[ipHash] */\n      0x00\n        /* \"security/IPAnonymizer.sol\":2260:2266  ipHash */\n      dup5\n        /* \"security/IPAnonymizer.sol\":2246:2267  anonymizedIPs[ipHash] */\n      dup2\n      mstore\n      0x20\n      add\n      swap1\n      dup2\n      mstore\n      0x20\n      add\n      0x00\n      keccak256\n      0x00\n      swap1\n      sload\n      swap1\n      0x0100\n      exp\n      swap1\n      div\n      0xff\n      and\n        /* \"security/IPAnonymizer.sol\":2245:2267  !anonymizedIPs[ipHash] */\n      iszero\n        /* \"security/IPAnonymizer.sol\":2237:2290  require(!anonymizedIPs[ipHash], \"Already anonymized\") */\n      tag_89\n      jumpi\n      mload(0x40)\n      0x08c379a000000000000000000000000000000000000000000000000000000000\n      dup2\n      mstore\n      0x04\n      add\n      tag_90\n      swap1\n      tag_91\n      jump\t// in\n    tag_90:\n      mload(0x40)\n      dup1\n      swap2\n      sub\n      swap1\n      revert\n    tag_89:\n        /* \"security/IPAnonymizer.sol\":597:599  50 */\n      0x32\n        /* \"security/IPAnonymizer.sol\":2345:2367  blockRegistrationCount */\n      0x06\n        /* \"security/IPAnonymizer.sol\":2345:2381  blockRegistrationCount[block.number] */\n      0x00\n        /* \"security/IPAnonymizer.sol\":2368:2380  block.number */\n      number\n        /* \"security/IPAnonymizer.sol\":2345:2381  blockRegistrationCount[block.number] */\n      dup2\n      mstore\n      0x20\n      add\n      swap1\n      dup2\n      mstore\n      0x20\n      add\n      0x00\n      keccak256\n      sload\n        /* \"security/IPAnonymizer.sol\":2345:2411  blockRegistrationCount[block.number] < MAX_REGISTRATIONS_PER_BLOCK */\n      lt\n        /* \"security/IPAnonymizer.sol\":2328:2448  require(... */\n      tag_92\n      jumpi\n      mload(0x40)\n      0x08c379a000000000000000000000000000000000000000000000000000000000\n      dup2\n      mstore\n      0x04\n      add\n      tag_93\n      swap1\n      tag_94\n      jump\t// in\n    tag_93:\n      mload(0x40)\n      dup1\n      swap2\n      sub\n      swap1\n      revert\n    tag_92:\n        /* \"security/IPAnonymizer.sol\":2479:2491  bool isValid */\n      0x00\n        /* \"security/IPAnonymizer.sol\":2568:2572  0x40 */\n      0x40\n        /* \"security/IPAnonymizer.sol\":2562:2573  mload(0x40) */\n      mload\n        /* \"security/IPAnonymizer.sol\":2752:2756  0x20 */\n      0x20\n        /* \"security/IPAnonymizer.sol\":2745:2749  0x04 */\n      0x04\n        /* \"security/IPAnonymizer.sol\":2732:2750  calldataload(0x04) */\n      calldataload\n        /* \"security/IPAnonymizer.sol\":2728:2757  add(calldataload(0x04), 0x20) */\n      add\n        /* \"security/IPAnonymizer.sol\":2852:2853  0 */\n      0x00\n        /* \"security/IPAnonymizer.sol\":2837:3029  for { let i := 0 } lt(i, 8) { i := add(i, 1) } {... */\n    tag_95:\n        /* \"security/IPAnonymizer.sol\":2862:2863  8 */\n      0x08\n        /* \"security/IPAnonymizer.sol\":2859:2860  i */\n      dup2\n        /* \"security/IPAnonymizer.sol\":2856:2864  lt(i, 8) */\n      lt\n        /* \"security/IPAnonymizer.sol\":2837:3029  for { let i := 0 } lt(i, 8) { i := add(i, 1) } {... */\n      iszero\n      tag_97\n      jumpi\n        /* \"security/IPAnonymizer.sol\":2998:3002  0x20 */\n      0x20\n        /* \"security/IPAnonymizer.sol\":2995:2996  i */\n      dup2\n        /* \"security/IPAnonymizer.sol\":2991:3003  mul(i, 0x20) */\n      mul\n        /* \"security/IPAnonymizer.sol\":2979:2989  proofStart */\n      dup3\n        /* \"security/IPAnonymizer.sol\":2975:3004  add(proofStart, mul(i, 0x20)) */\n      add\n        /* \"security/IPAnonymizer.sol\":2962:3005  calldataload(add(proofStart, mul(i, 0x20))) */\n      calldataload\n        /* \"security/IPAnonymizer.sol\":2938:2942  0x20 */\n      0x20\n        /* \"security/IPAnonymizer.sol\":2935:2936  i */\n      dup3\n        /* \"security/IPAnonymizer.sol\":2931:2943  mul(i, 0x20) */\n      mul\n        /* \"security/IPAnonymizer.sol\":2926:2929  ptr */\n      dup5\n        /* \"security/IPAnonymizer.sol\":2922:2944  add(ptr, mul(i, 0x20)) */\n      add\n        /* \"security/IPAnonymizer.sol\":2898:3019  mstore(... */\n      mstore\n        /* \"security/IPAnonymizer.sol\":2879:2880  1 */\n      0x01\n        /* \"security/IPAnonymizer.sol\":2876:2877  i */\n      dup2\n        /* \"security/IPAnonymizer.sol\":2872:2881  add(i, 1) */\n      add\n        /* \"security/IPAnonymizer.sol\":2867:2881  i := add(i, 1) */\n      swap1\n      pop\n        /* \"security/IPAnonymizer.sol\":2837:3029  for { let i := 0 } lt(i, 8) { i := add(i, 1) } {... */\n      jump(tag_95)\n    tag_97:\n        /* \"security/IPAnonymizer.sol\":2841:2855  { let i := 0 } */\n      pop\n        /* \"security/IPAnonymizer.sol\":3135:3140  0x100 */\n      0x0100\n        /* \"security/IPAnonymizer.sol\":3123:3133  proofStart */\n      dup2\n        /* \"security/IPAnonymizer.sol\":3119:3141  add(proofStart, 0x100) */\n      add\n        /* \"security/IPAnonymizer.sol\":3232:3243  inputsStart */\n      dup1\n        /* \"security/IPAnonymizer.sol\":3219:3244  calldataload(inputsStart) */\n      calldataload\n        /* \"security/IPAnonymizer.sol\":3199:3204  0x100 */\n      0x0100\n        /* \"security/IPAnonymizer.sol\":3194:3197  ptr */\n      dup5\n        /* \"security/IPAnonymizer.sol\":3190:3205  add(ptr, 0x100) */\n      add\n        /* \"security/IPAnonymizer.sol\":3170:3254  mstore(... */\n      mstore\n        /* \"security/IPAnonymizer.sol\":3469:3473  0x20 */\n      0x20\n        /* \"security/IPAnonymizer.sol\":3452:3455  ptr */\n      dup4\n        /* \"security/IPAnonymizer.sol\":3402:3407  0x120 */\n      0x0120\n        /* \"security/IPAnonymizer.sol\":3385:3388  ptr */\n      dup6\n        /* \"security/IPAnonymizer.sol\":3357:3370  verifier.slot */\n      0x02\n        /* \"security/IPAnonymizer.sol\":3351:3371  sload(verifier.slot) */\n      sload\n        /* \"security/IPAnonymizer.sol\":3332:3337  gas() */\n      gas\n        /* \"security/IPAnonymizer.sol\":3308:3483  staticcall(... */\n      staticcall\n        /* \"security/IPAnonymizer.sol\":3297:3483  isValid := staticcall(... */\n      swap4\n      pop\n        /* \"security/IPAnonymizer.sol\":3511:3518  isValid */\n      dup4\n        /* \"security/IPAnonymizer.sol\":3501:3556  if iszero(isValid) {... */\n      tag_98\n      jumpi\n        /* \"security/IPAnonymizer.sol\":3544:3545  0 */\n      0x00\n        /* \"security/IPAnonymizer.sol\":3541:3542  0 */\n      dup1\n        /* \"security/IPAnonymizer.sol\":3534:3546  revert(0, 0) */\n      revert\n        /* \"security/IPAnonymizer.sol\":3501:3556  if iszero(isValid) {... */\n    tag_98:\n        /* \"security/IPAnonymizer.sol\":3591:3594  ptr */\n      dup3\n        /* \"security/IPAnonymizer.sol\":3585:3595  mload(ptr) */\n      mload\n        /* \"security/IPAnonymizer.sol\":3574:3595  isValid := mload(ptr) */\n      swap4\n      pop\n        /* \"security/IPAnonymizer.sol\":3673:3678  0x140 */\n      0x0140\n        /* \"security/IPAnonymizer.sol\":3668:3671  ptr */\n      dup4\n        /* \"security/IPAnonymizer.sol\":3664:3679  add(ptr, 0x140) */\n      add\n        /* \"security/IPAnonymizer.sol\":3658:3662  0x40 */\n      0x40\n        /* \"security/IPAnonymizer.sol\":3651:3680  mstore(0x40, add(ptr, 0x140)) */\n      mstore\n        /* \"security/IPAnonymizer.sol\":2506:3686  {... */\n      pop\n      pop\n      pop\n        /* \"security/IPAnonymizer.sol\":3704:3711  isValid */\n      dup1\n        /* \"security/IPAnonymizer.sol\":3696:3729  require(isValid, \"Invalid proof\") */\n      tag_99\n      jumpi\n      mload(0x40)\n      0x08c379a000000000000000000000000000000000000000000000000000000000\n      dup2\n      mstore\n      0x04\n      add\n      tag_100\n      swap1\n      tag_101\n      jump\t// in\n    tag_100:\n      mload(0x40)\n      dup1\n      swap2\n      sub\n      swap1\n      revert\n    tag_99:\n        /* \"security/IPAnonymizer.sol\":3780:3784  true */\n      0x01\n        /* \"security/IPAnonymizer.sol\":3756:3769  anonymizedIPs */\n      0x03\n        /* \"security/IPAnonymizer.sol\":3756:3777  anonymizedIPs[ipHash] */\n      0x00\n        /* \"security/IPAnonymizer.sol\":3770:3776  ipHash */\n      dup7\n        /* \"security/IPAnonymizer.sol\":3756:3777  anonymizedIPs[ipHash] */\n      dup2\n      mstore\n      0x20\n      add\n      swap1\n      dup2\n      mstore\n      0x20\n      add\n      0x00\n      keccak256\n      0x00\n        /* \"security/IPAnonymizer.sol\":3756:3784  anonymizedIPs[ipHash] = true */\n      0x0100\n      exp\n      dup2\n      sload\n      dup2\n      0xff\n      mul\n      not\n      and\n      swap1\n      dup4\n      iszero\n      iszero\n      mul\n      or\n      swap1\n      sstore\n      pop\n        /* \"security/IPAnonymizer.sol\":3818:3833  block.timestamp */\n      timestamp\n        /* \"security/IPAnonymizer.sol\":3790:3807  registrationTimes */\n      0x04\n        /* \"security/IPAnonymizer.sol\":3790:3815  registrationTimes[ipHash] */\n      0x00\n        /* \"security/IPAnonymizer.sol\":3808:3814  ipHash */\n      dup7\n        /* \"security/IPAnonymizer.sol\":3790:3815  registrationTimes[ipHash] */\n      dup2\n      mstore\n      0x20\n      add\n      swap1\n      dup2\n      mstore\n      0x20\n      add\n      0x00\n      keccak256\n        /* \"security/IPAnonymizer.sol\":3790:3833  registrationTimes[ipHash] = block.timestamp */\n      dup2\n      swap1\n      sstore\n      pop\n        /* \"security/IPAnonymizer.sol\":3839:3861  blockRegistrationCount */\n      0x06\n        /* \"security/IPAnonymizer.sol\":3839:3875  blockRegistrationCount[block.number] */\n      0x00\n        /* \"security/IPAnonymizer.sol\":3862:3874  block.number */\n      number\n        /* \"security/IPAnonymizer.sol\":3839:3875  blockRegistrationCount[block.number] */\n      dup2\n      mstore\n      0x20\n      add\n      swap1\n      dup2\n      mstore\n      0x20\n      add\n      0x00\n      keccak256\n      0x00\n        /* \"security/IPAnonymizer.sol\":3839:3877  blockRegistrationCount[block.number]++ */\n      dup2\n      sload\n      dup1\n      swap3\n      swap2\n      swap1\n      tag_102\n      swap1\n      tag_103\n      jump\t// in\n    tag_102:\n      swap2\n      swap1\n      pop\n      sstore\n      pop\n        /* \"security/IPAnonymizer.sol\":4034:4039  proof */\n      dup3\n        /* \"security/IPAnonymizer.sol\":4041:4053  publicInputs */\n      dup3\n        /* \"security/IPAnonymizer.sol\":4023:4054  abi.encode(proof, publicInputs) */\n      add(0x20, mload(0x40))\n      tag_104\n      swap3\n      swap2\n      swap1\n      tag_105\n      jump\t// in\n    tag_104:\n      mload(0x40)\n      0x20\n      dup2\n      dup4\n      sub\n      sub\n      dup2\n      mstore\n      swap1\n      0x40\n      mstore\n        /* \"security/IPAnonymizer.sol\":4013:4055  keccak256(abi.encode(proof, publicInputs)) */\n      dup1\n      mload\n      swap1\n      0x20\n      add\n      keccak256\n        /* \"security/IPAnonymizer.sol\":3988:4003  block.timestamp */\n      timestamp\n        /* \"security/IPAnonymizer.sol\":3972:3978  ipHash */\n      dup6\n        /* \"security/IPAnonymizer.sol\":3940:4061  AnonymizedIPRegistered(... */\n      0xde65674c1c2375ab60bcd32483919acfcb287d922682033b8f2d33047523a67b\n      mload(0x40)\n      mload(0x40)\n      dup1\n      swap2\n      sub\n      swap1\n      log4\n        /* \"security/IPAnonymizer.sol\":2177:4064  {... */\n      pop\n        /* \"@openzeppelin/contracts/utils/ReentrancyGuard.sol\":2542:2562  _nonReentrantAfter() */\n      tag_106\n        /* \"@openzeppelin/contracts/utils/ReentrancyGuard.sol\":2542:2560  _nonReentrantAfter */\n      tag_107\n        /* \"@openzeppelin/contracts/utils/ReentrancyGuard.sol\":2542:2562  _nonReentrantAfter() */\n      jump\t// in\n    tag_106:\n        /* \"security/IPAnonymizer.sol\":2020:4064  function registerAnonymizedIP(... */\n      pop\n      pop\n      pop\n      jump\t// out\n        /* \"@openzeppelin/contracts/utils/Pausable.sol\":1850:1934  function paused() public view virtual returns (bool) {... */\n    tag_38:\n        /* \"@openzeppelin/contracts/utils/Pausable.sol\":1897:1901  bool */\n      0x00\n        /* \"@openzeppelin/contracts/utils/Pausable.sol\":1920:1927  _paused */\n      0x02\n      0x00\n      swap1\n      sload\n      swap1\n      0x0100\n      exp\n      swap1\n      div\n      0xff\n      and\n        /* \"@openzeppelin/contracts/utils/Pausable.sol\":1913:1927  return _paused */\n      swap1\n      pop\n        /* \"@openzeppelin/contracts/utils/Pausable.sol\":1850:1934  function paused() public view virtual returns (bool) {... */\n      swap1\n      jump\t// out\n        /* \"@openzeppelin/contracts/access/Ownable.sol\":2293:2394  function renounceOwnership() public virtual onlyOwner {... */\n    tag_42:\n        /* \"@openzeppelin/contracts/access/Ownable.sol\":1531:1544  _checkOwner() */\n      tag_110\n        /* \"@openzeppelin/contracts/access/Ownable.sol\":1531:1542  _checkOwner */\n      tag_65\n        /* \"@openzeppelin/contracts/access/Ownable.sol\":1531:1544  _checkOwner() */\n      jump\t// in\n    tag_110:\n        /* \"@openzeppelin/contracts/access/Ownable.sol\":2357:2387  _transferOwnership(address(0)) */\n      tag_112\n        /* \"@openzeppelin/contracts/access/Ownable.sol\":2384:2385  0 */\n      0x00\n        /* \"@openzeppelin/contracts/access/Ownable.sol\":2357:2375  _transferOwnership */\n      tag_113\n        /* \"@openzeppelin/contracts/access/Ownable.sol\":2357:2387  _transferOwnership(address(0)) */\n      jump\t// in\n    tag_112:\n        /* \"@openzeppelin/contracts/access/Ownable.sol\":2293:2394  function renounceOwnership() public virtual onlyOwner {... */\n      jump\t// out\n        /* \"security/IPAnonymizer.sol\":6388:6449  function pause() external onlyOwner {... */\n    tag_44:\n        /* \"@openzeppelin/contracts/access/Ownable.sol\":1531:1544  _checkOwner() */\n      tag_115\n        /* \"@openzeppelin/contracts/access/Ownable.sol\":1531:1542  _checkOwner */\n      tag_65\n        /* \"@openzeppelin/contracts/access/Ownable.sol\":1531:1544  _checkOwner() */\n      jump\t// in\n    tag_115:\n        /* \"security/IPAnonymizer.sol\":6434:6442  _pause() */\n      tag_117\n        /* \"security/IPAnonymizer.sol\":6434:6440  _pause */\n      tag_118\n        /* \"security/IPAnonymizer.sol\":6434:6442  _pause() */\n      jump\t// in\n    tag_117:\n        /* \"security/IPAnonymizer.sol\":6388:6449  function pause() external onlyOwner {... */\n      jump\t// out\n        /* \"@openzeppelin/contracts/access/Ownable.sol\":1638:1723  function owner() public view virtual returns (address) {... */\n    tag_46:\n        /* \"@openzeppelin/contracts/access/Ownable.sol\":1684:1691  address */\n      0x00\n        /* \"@openzeppelin/contracts/access/Ownable.sol\":1710:1716  _owner */\n      dup1\n      0x00\n      swap1\n      sload\n      swap1\n      0x0100\n      exp\n      swap1\n      div\n      0xffffffffffffffffffffffffffffffffffffffff\n      and\n        /* \"@openzeppelin/contracts/access/Ownable.sol\":1703:1716  return _owner */\n      swap1\n      pop\n        /* \"@openzeppelin/contracts/access/Ownable.sol\":1638:1723  function owner() public view virtual returns (address) {... */\n      swap1\n      jump\t// out\n        /* \"security/IPAnonymizer.sol\":5527:5969  function updateVerifier(address _newVerifier) external onlyOwner whenPaused {... */\n    tag_52:\n        /* \"@openzeppelin/contracts/access/Ownable.sol\":1531:1544  _checkOwner() */\n      tag_121\n        /* \"@openzeppelin/contracts/access/Ownable.sol\":1531:1542  _checkOwner */\n      tag_65\n        /* \"@openzeppelin/contracts/access/Ownable.sol\":1531:1544  _checkOwner() */\n      jump\t// in\n    tag_121:\n        /* \"@openzeppelin/contracts/utils/Pausable.sol\":1721:1737  _requirePaused() */\n      tag_123\n        /* \"@openzeppelin/contracts/utils/Pausable.sol\":1721:1735  _requirePaused */\n      tag_124\n        /* \"@openzeppelin/contracts/utils/Pausable.sol\":1721:1737  _requirePaused() */\n      jump\t// in\n    tag_123:\n        /* \"security/IPAnonymizer.sol\":5645:5646  0 */\n      0x00\n        /* \"security/IPAnonymizer.sol\":5621:5647  _newVerifier != address(0) */\n      0xffffffffffffffffffffffffffffffffffffffff\n      and\n        /* \"security/IPAnonymizer.sol\":5621:5633  _newVerifier */\n      dup2\n        /* \"security/IPAnonymizer.sol\":5621:5647  _newVerifier != address(0) */\n      0xffffffffffffffffffffffffffffffffffffffff\n      and\n      sub\n        /* \"security/IPAnonymizer.sol\":5613:5668  require(_newVerifier != address(0), \"Invalid verifier\") */\n      tag_126\n      jumpi\n      mload(0x40)\n      0x08c379a000000000000000000000000000000000000000000000000000000000\n      dup2\n      mstore\n      0x04\n      add\n      tag_127\n      swap1\n      tag_128\n      jump\t// in\n    tag_127:\n      mload(0x40)\n      dup1\n      swap2\n      sub\n      swap1\n      revert\n    tag_126:\n        /* \"security/IPAnonymizer.sol\":5710:5718  verifier */\n      0x02\n      0x01\n      swap1\n      sload\n      swap1\n      0x0100\n      exp\n      swap1\n      div\n      0xffffffffffffffffffffffffffffffffffffffff\n      and\n        /* \"security/IPAnonymizer.sol\":5686:5719  _newVerifier != address(verifier) */\n      0xffffffffffffffffffffffffffffffffffffffff\n      and\n        /* \"security/IPAnonymizer.sol\":5686:5698  _newVerifier */\n      dup2\n        /* \"security/IPAnonymizer.sol\":5686:5719  _newVerifier != address(verifier) */\n      0xffffffffffffffffffffffffffffffffffffffff\n      and\n      sub\n        /* \"security/IPAnonymizer.sol\":5678:5737  require(_newVerifier != address(verifier), \"Same verifier\") */\n      tag_129\n      jumpi\n      mload(0x40)\n      0x08c379a000000000000000000000000000000000000000000000000000000000\n      dup2\n      mstore\n      0x04\n      add\n      tag_130\n      swap1\n      tag_131\n      jump\t// in\n    tag_130:\n      mload(0x40)\n      dup1\n      swap2\n      sub\n      swap1\n      revert\n    tag_129:\n        /* \"security/IPAnonymizer.sol\":5756:5775  address oldVerifier */\n      0x00\n        /* \"security/IPAnonymizer.sol\":5786:5794  verifier */\n      0x02\n      0x01\n      swap1\n      sload\n      swap1\n      0x0100\n      exp\n      swap1\n      div\n      0xffffffffffffffffffffffffffffffffffffffff\n      and\n        /* \"security/IPAnonymizer.sol\":5756:5795  address oldVerifier = address(verifier) */\n      swap1\n      pop\n        /* \"security/IPAnonymizer.sol\":5828:5840  _newVerifier */\n      dup2\n        /* \"security/IPAnonymizer.sol\":5805:5813  verifier */\n      0x02\n      0x01\n        /* \"security/IPAnonymizer.sol\":5805:5841  verifier = IZKVerifier(_newVerifier) */\n      0x0100\n      exp\n      dup2\n      sload\n      dup2\n      0xffffffffffffffffffffffffffffffffffffffff\n      mul\n      not\n      and\n      swap1\n      dup4\n      0xffffffffffffffffffffffffffffffffffffffff\n      and\n      mul\n      or\n      swap1\n      sstore\n      pop\n        /* \"security/IPAnonymizer.sol\":5937:5952  block.timestamp */\n      timestamp\n        /* \"security/IPAnonymizer.sol\":5911:5923  _newVerifier */\n      dup3\n        /* \"security/IPAnonymizer.sol\":5857:5962  VerifierUpdated(... */\n      0xffffffffffffffffffffffffffffffffffffffff\n      and\n        /* \"security/IPAnonymizer.sol\":5886:5897  oldVerifier */\n      dup3\n        /* \"security/IPAnonymizer.sol\":5857:5962  VerifierUpdated(... */\n      0xffffffffffffffffffffffffffffffffffffffff\n      and\n      0xd64ae07f3ddea489022b7c3651c0b93cc96296695feac84461061dfa1f34c0cb\n      mload(0x40)\n      mload(0x40)\n      dup1\n      swap2\n      sub\n      swap1\n      log4\n        /* \"security/IPAnonymizer.sol\":5603:5969  {... */\n      pop\n        /* \"security/IPAnonymizer.sol\":5527:5969  function updateVerifier(address _newVerifier) external onlyOwner whenPaused {... */\n      pop\n      jump\t// out\n        /* \"security/IPAnonymizer.sol\":6039:6347  function clearOldBlockCounts(uint256 blocksBack) external {... */\n    tag_56:\n        /* \"security/IPAnonymizer.sol\":6128:6129  0 */\n      0x00\n        /* \"security/IPAnonymizer.sol\":6115:6125  blocksBack */\n      dup2\n        /* \"security/IPAnonymizer.sol\":6115:6129  blocksBack > 0 */\n      gt\n        /* \"security/IPAnonymizer.sol\":6107:6153  require(blocksBack > 0, \"Invalid block count\") */\n      tag_133\n      jumpi\n      mload(0x40)\n      0x08c379a000000000000000000000000000000000000000000000000000000000\n      dup2\n      mstore\n      0x04\n      add\n      tag_134\n      swap1\n      tag_135\n      jump\t// in\n    tag_134:\n      mload(0x40)\n      dup1\n      swap2\n      sub\n      swap1\n      revert\n    tag_133:\n        /* \"security/IPAnonymizer.sol\":6163:6182  uint256 targetBlock */\n      0x00\n        /* \"security/IPAnonymizer.sol\":6200:6210  blocksBack */\n      dup2\n        /* \"security/IPAnonymizer.sol\":6185:6197  block.number */\n      number\n        /* \"security/IPAnonymizer.sol\":6185:6210  block.number - blocksBack */\n      tag_136\n      swap2\n      swap1\n      tag_137\n      jump\t// in\n    tag_136:\n        /* \"security/IPAnonymizer.sol\":6163:6210  uint256 targetBlock = block.number - blocksBack */\n      swap1\n      pop\n        /* \"security/IPAnonymizer.sol\":6234:6243  uint256 i */\n      0x00\n        /* \"security/IPAnonymizer.sol\":6229:6341  for (uint256 i = 0; i < blocksBack; i++) {... */\n    tag_138:\n        /* \"security/IPAnonymizer.sol\":6253:6263  blocksBack */\n      dup3\n        /* \"security/IPAnonymizer.sol\":6249:6250  i */\n      dup2\n        /* \"security/IPAnonymizer.sol\":6249:6263  i < blocksBack */\n      lt\n        /* \"security/IPAnonymizer.sol\":6229:6341  for (uint256 i = 0; i < blocksBack; i++) {... */\n      iszero\n      tag_139\n      jumpi\n        /* \"security/IPAnonymizer.sol\":6291:6313  blockRegistrationCount */\n      0x06\n        /* \"security/IPAnonymizer.sol\":6291:6330  blockRegistrationCount[targetBlock - i] */\n      0x00\n        /* \"security/IPAnonymizer.sol\":6328:6329  i */\n      dup3\n        /* \"security/IPAnonymizer.sol\":6314:6325  targetBlock */\n      dup5\n        /* \"security/IPAnonymizer.sol\":6314:6329  targetBlock - i */\n      tag_141\n      swap2\n      swap1\n      tag_137\n      jump\t// in\n    tag_141:\n        /* \"security/IPAnonymizer.sol\":6291:6330  blockRegistrationCount[targetBlock - i] */\n      dup2\n      mstore\n      0x20\n      add\n      swap1\n      dup2\n      mstore\n      0x20\n      add\n      0x00\n      keccak256\n        /* \"security/IPAnonymizer.sol\":6284:6330  delete blockRegistrationCount[targetBlock - i] */\n      0x00\n      swap1\n      sstore\n        /* \"security/IPAnonymizer.sol\":6265:6268  i++ */\n      dup1\n      dup1\n      0x01\n      add\n      swap2\n      pop\n      pop\n        /* \"security/IPAnonymizer.sol\":6229:6341  for (uint256 i = 0; i < blocksBack; i++) {... */\n      jump(tag_138)\n    tag_139:\n      pop\n        /* \"security/IPAnonymizer.sol\":6097:6347  {... */\n      pop\n        /* \"security/IPAnonymizer.sol\":6039:6347  function clearOldBlockCounts(uint256 blocksBack) external {... */\n      pop\n      jump\t// out\n        /* \"security/IPAnonymizer.sol\":4554:4932  function requestRevocation(bytes32 ipHash) external onlyOwner {... */\n    tag_59:\n        /* \"@openzeppelin/contracts/access/Ownable.sol\":1531:1544  _checkOwner() */\n      tag_143\n        /* \"@openzeppelin/contracts/access/Ownable.sol\":1531:1542  _checkOwner */\n      tag_65\n        /* \"@openzeppelin/contracts/access/Ownable.sol\":1531:1544  _checkOwner() */\n      jump\t// in\n    tag_143:\n        /* \"security/IPAnonymizer.sol\":4634:4647  anonymizedIPs */\n      0x03\n        /* \"security/IPAnonymizer.sol\":4634:4655  anonymizedIPs[ipHash] */\n      0x00\n        /* \"security/IPAnonymizer.sol\":4648:4654  ipHash */\n      dup3\n        /* \"security/IPAnonymizer.sol\":4634:4655  anonymizedIPs[ipHash] */\n      dup2\n      mstore\n      0x20\n      add\n      swap1\n      dup2\n      mstore\n      0x20\n      add\n      0x00\n      keccak256\n      0x00\n      swap1\n      sload\n      swap1\n      0x0100\n      exp\n      swap1\n      div\n      0xff\n      and\n        /* \"security/IPAnonymizer.sol\":4626:4674  require(anonymizedIPs[ipHash], \"Not anonymized\") */\n      tag_145\n      jumpi\n      mload(0x40)\n      0x08c379a000000000000000000000000000000000000000000000000000000000\n      dup2\n      mstore\n      0x04\n      add\n      tag_146\n      swap1\n      tag_147\n      jump\t// in\n    tag_146:\n      mload(0x40)\n      dup1\n      swap2\n      sub\n      swap1\n      revert\n    tag_145:\n        /* \"security/IPAnonymizer.sol\":4722:4723  0 */\n      0x00\n        /* \"security/IPAnonymizer.sol\":4692:4710  revocationRequests */\n      0x05\n        /* \"security/IPAnonymizer.sol\":4692:4718  revocationRequests[ipHash] */\n      0x00\n        /* \"security/IPAnonymizer.sol\":4711:4717  ipHash */\n      dup4\n        /* \"security/IPAnonymizer.sol\":4692:4718  revocationRequests[ipHash] */\n      dup2\n      mstore\n      0x20\n      add\n      swap1\n      dup2\n      mstore\n      0x20\n      add\n      0x00\n      keccak256\n      sload\n        /* \"security/IPAnonymizer.sol\":4692:4723  revocationRequests[ipHash] == 0 */\n      eq\n        /* \"security/IPAnonymizer.sol\":4684:4746  require(revocationRequests[ipHash] == 0, \"Revocation pending\") */\n      tag_148\n      jumpi\n      mload(0x40)\n      0x08c379a000000000000000000000000000000000000000000000000000000000\n      dup2\n      mstore\n      0x04\n      add\n      tag_149\n      swap1\n      tag_150\n      jump\t// in\n    tag_149:\n      mload(0x40)\n      dup1\n      swap2\n      sub\n      swap1\n      revert\n    tag_148:\n        /* \"security/IPAnonymizer.sol\":4757:4778  uint256 executionTime */\n      0x00\n        /* \"security/IPAnonymizer.sol\":649:657  24 hours */\n      0x015180\n        /* \"security/IPAnonymizer.sol\":4781:4796  block.timestamp */\n      timestamp\n        /* \"security/IPAnonymizer.sol\":4781:4815  block.timestamp + REVOCATION_DELAY */\n      tag_151\n      swap2\n      swap1\n      tag_152\n      jump\t// in\n    tag_151:\n        /* \"security/IPAnonymizer.sol\":4757:4815  uint256 executionTime = block.timestamp + REVOCATION_DELAY */\n      swap1\n      pop\n        /* \"security/IPAnonymizer.sol\":4854:4867  executionTime */\n      dup1\n        /* \"security/IPAnonymizer.sol\":4825:4843  revocationRequests */\n      0x05\n        /* \"security/IPAnonymizer.sol\":4825:4851  revocationRequests[ipHash] */\n      0x00\n        /* \"security/IPAnonymizer.sol\":4844:4850  ipHash */\n      dup5\n        /* \"security/IPAnonymizer.sol\":4825:4851  revocationRequests[ipHash] */\n      dup2\n      mstore\n      0x20\n      add\n      swap1\n      dup2\n      mstore\n      0x20\n      add\n      0x00\n      keccak256\n        /* \"security/IPAnonymizer.sol\":4825:4867  revocationRequests[ipHash] = executionTime */\n      dup2\n      swap1\n      sstore\n      pop\n        /* \"security/IPAnonymizer.sol\":4911:4924  executionTime */\n      dup1\n        /* \"security/IPAnonymizer.sol\":4903:4909  ipHash */\n      dup3\n        /* \"security/IPAnonymizer.sol\":4883:4925  RevocationRequested(ipHash, executionTime) */\n      0xee80b1a0735bed32872bfffada24be24839f94ba87926a67333230186d8d6a5b\n      mload(0x40)\n      mload(0x40)\n      dup1\n      swap2\n      sub\n      swap1\n      log3\n        /* \"security/IPAnonymizer.sol\":4616:4932  {... */\n      pop\n        /* \"security/IPAnonymizer.sol\":4554:4932  function requestRevocation(bytes32 ipHash) external onlyOwner {... */\n      pop\n      jump\t// out\n        /* \"@openzeppelin/contracts/access/Ownable.sol\":2543:2758  function transferOwnership(address newOwner) public virtual onlyOwner {... */\n    tag_62:\n        /* \"@openzeppelin/contracts/access/Ownable.sol\":1531:1544  _checkOwner() */\n      tag_154\n        /* \"@openzeppelin/contracts/access/Ownable.sol\":1531:1542  _checkOwner */\n      tag_65\n        /* \"@openzeppelin/contracts/access/Ownable.sol\":1531:1544  _checkOwner() */\n      jump\t// in\n    tag_154:\n        /* \"@openzeppelin/contracts/access/Ownable.sol\":2647:2648  0 */\n      0x00\n        /* \"@openzeppelin/contracts/access/Ownable.sol\":2627:2649  newOwner == address(0) */\n      0xffffffffffffffffffffffffffffffffffffffff\n      and\n        /* \"@openzeppelin/contracts/access/Ownable.sol\":2627:2635  newOwner */\n      dup2\n        /* \"@openzeppelin/contracts/access/Ownable.sol\":2627:2649  newOwner == address(0) */\n      0xffffffffffffffffffffffffffffffffffffffff\n      and\n      sub\n        /* \"@openzeppelin/contracts/access/Ownable.sol\":2623:2714  if (newOwner == address(0)) {... */\n      tag_156\n      jumpi\n        /* \"@openzeppelin/contracts/access/Ownable.sol\":2700:2701  0 */\n      0x00\n        /* \"@openzeppelin/contracts/access/Ownable.sol\":2672:2703  OwnableInvalidOwner(address(0)) */\n      mload(0x40)\n      0x1e4fbdf700000000000000000000000000000000000000000000000000000000\n      dup2\n      mstore\n      0x04\n      add\n      tag_157\n      swap2\n      swap1\n      tag_48\n      jump\t// in\n    tag_157:\n      mload(0x40)\n      dup1\n      swap2\n      sub\n      swap1\n      revert\n        /* \"@openzeppelin/contracts/access/Ownable.sol\":2623:2714  if (newOwner == address(0)) {... */\n    tag_156:\n        /* \"@openzeppelin/contracts/access/Ownable.sol\":2723:2751  _transferOwnership(newOwner) */\n      tag_158\n        /* \"@openzeppelin/contracts/access/Ownable.sol\":2742:2750  newOwner */\n      dup2\n        /* \"@openzeppelin/contracts/access/Ownable.sol\":2723:2741  _transferOwnership */\n      tag_113\n        /* \"@openzeppelin/contracts/access/Ownable.sol\":2723:2751  _transferOwnership(newOwner) */\n      jump\t// in\n    tag_158:\n        /* \"@openzeppelin/contracts/access/Ownable.sol\":2543:2758  function transferOwnership(address newOwner) public virtual onlyOwner {... */\n      pop\n      jump\t// out\n        /* \"@openzeppelin/contracts/access/Ownable.sol\":1796:1958  function _checkOwner() internal view virtual {... */\n    tag_65:\n        /* \"@openzeppelin/contracts/access/Ownable.sol\":1866:1878  _msgSender() */\n      tag_160\n        /* \"@openzeppelin/contracts/access/Ownable.sol\":1866:1876  _msgSender */\n      tag_161\n        /* \"@openzeppelin/contracts/access/Ownable.sol\":1866:1878  _msgSender() */\n      jump\t// in\n    tag_160:\n        /* \"@openzeppelin/contracts/access/Ownable.sol\":1855:1878  owner() != _msgSender() */\n      0xffffffffffffffffffffffffffffffffffffffff\n      and\n        /* \"@openzeppelin/contracts/access/Ownable.sol\":1855:1862  owner() */\n      tag_162\n        /* \"@openzeppelin/contracts/access/Ownable.sol\":1855:1860  owner */\n      tag_46\n        /* \"@openzeppelin/contracts/access/Ownable.sol\":1855:1862  owner() */\n      jump\t// in\n    tag_162:\n        /* \"@openzeppelin/contracts/access/Ownable.sol\":1855:1878  owner() != _msgSender() */\n      0xffffffffffffffffffffffffffffffffffffffff\n      and\n      eq\n        /* \"@openzeppelin/contracts/access/Ownable.sol\":1851:1952  if (owner() != _msgSender()) {... */\n      tag_163\n      jumpi\n        /* \"@openzeppelin/contracts/access/Ownable.sol\":1928:1940  _msgSender() */\n      tag_164\n        /* \"@openzeppelin/contracts/access/Ownable.sol\":1928:1938  _msgSender */\n      tag_161\n        /* \"@openzeppelin/contracts/access/Ownable.sol\":1928:1940  _msgSender() */\n      jump\t// in\n    tag_164:\n        /* \"@openzeppelin/contracts/access/Ownable.sol\":1901:1941  OwnableUnauthorizedAccount(_msgSender()) */\n      mload(0x40)\n      0x118cdaa700000000000000000000000000000000000000000000000000000000\n      dup2\n      mstore\n      0x04\n      add\n      tag_165\n      swap2\n      swap1\n      tag_48\n      jump\t// in\n    tag_165:\n      mload(0x40)\n      dup1\n      swap2\n      sub\n      swap1\n      revert\n        /* \"@openzeppelin/contracts/access/Ownable.sol\":1851:1952  if (owner() != _msgSender()) {... */\n    tag_163:\n        /* \"@openzeppelin/contracts/access/Ownable.sol\":1796:1958  function _checkOwner() internal view virtual {... */\n      jump\t// out\n        /* \"@openzeppelin/contracts/utils/Pausable.sol\":2710:2827  function _unpause() internal virtual whenPaused {... */\n    tag_78:\n        /* \"@openzeppelin/contracts/utils/Pausable.sol\":1721:1737  _requirePaused() */\n      tag_167\n        /* \"@openzeppelin/contracts/utils/Pausable.sol\":1721:1735  _requirePaused */\n      tag_124\n        /* \"@openzeppelin/contracts/utils/Pausable.sol\":1721:1737  _requirePaused() */\n      jump\t// in\n    tag_167:\n        /* \"@openzeppelin/contracts/utils/Pausable.sol\":2778:2783  false */\n      0x00\n        /* \"@openzeppelin/contracts/utils/Pausable.sol\":2768:2775  _paused */\n      0x02\n      0x00\n        /* \"@openzeppelin/contracts/utils/Pausable.sol\":2768:2783  _paused = false */\n      0x0100\n      exp\n      dup2\n      sload\n      dup2\n      0xff\n      mul\n      not\n      and\n      swap1\n      dup4\n      iszero\n      iszero\n      mul\n      or\n      swap1\n      sstore\n      pop\n        /* \"@openzeppelin/contracts/utils/Pausable.sol\":2798:2820  Unpaused(_msgSender()) */\n      0x5db9ee0a495bf2e6ff9c91a7834c1ba4fdd244a5e8aa4e537bd38aeae4b073aa\n        /* \"@openzeppelin/contracts/utils/Pausable.sol\":2807:2819  _msgSender() */\n      tag_169\n        /* \"@openzeppelin/contracts/utils/Pausable.sol\":2807:2817  _msgSender */\n      tag_161\n        /* \"@openzeppelin/contracts/utils/Pausable.sol\":2807:2819  _msgSender() */\n      jump\t// in\n    tag_169:\n        /* \"@openzeppelin/contracts/utils/Pausable.sol\":2798:2820  Unpaused(_msgSender()) */\n      mload(0x40)\n      tag_170\n      swap2\n      swap1\n      tag_48\n      jump\t// in\n    tag_170:\n      mload(0x40)\n      dup1\n      swap2\n      sub\n      swap1\n      log1\n        /* \"@openzeppelin/contracts/utils/Pausable.sol\":2710:2827  function _unpause() internal virtual whenPaused {... */\n      jump\t// out\n        /* \"@openzeppelin/contracts/utils/ReentrancyGuard.sol\":2575:2882  function _nonReentrantBefore() private {... */\n    tag_81:\n        /* \"@openzeppelin/contracts/utils/ReentrancyGuard.sol\":1899:1900  2 */\n      0x02\n        /* \"@openzeppelin/contracts/utils/ReentrancyGuard.sol\":2702:2709  _status */\n      sload(0x01)\n        /* \"@openzeppelin/contracts/utils/ReentrancyGuard.sol\":2702:2720  _status == ENTERED */\n      sub\n        /* \"@openzeppelin/contracts/utils/ReentrancyGuard.sol\":2698:2784  if (_status == ENTERED) {... */\n      tag_172\n      jumpi\n        /* \"@openzeppelin/contracts/utils/ReentrancyGuard.sol\":2743:2773  ReentrancyGuardReentrantCall() */\n      mload(0x40)\n      0x3ee5aeb500000000000000000000000000000000000000000000000000000000\n      dup2\n      mstore\n      0x04\n      add\n      mload(0x40)\n      dup1\n      swap2\n      sub\n      swap1\n      revert\n        /* \"@openzeppelin/contracts/utils/ReentrancyGuard.sol\":2698:2784  if (_status == ENTERED) {... */\n    tag_172:\n        /* \"@openzeppelin/contracts/utils/ReentrancyGuard.sol\":1899:1900  2 */\n      0x02\n        /* \"@openzeppelin/contracts/utils/ReentrancyGuard.sol\":2858:2865  _status */\n      0x01\n        /* \"@openzeppelin/contracts/utils/ReentrancyGuard.sol\":2858:2875  _status = ENTERED */\n      dup2\n      swap1\n      sstore\n      pop\n        /* \"@openzeppelin/contracts/utils/ReentrancyGuard.sol\":2575:2882  function _nonReentrantBefore() private {... */\n      jump\t// out\n        /* \"@openzeppelin/contracts/utils/Pausable.sol\":2002:2130  function _requireNotPaused() internal view virtual {... */\n    tag_84:\n        /* \"@openzeppelin/contracts/utils/Pausable.sol\":2067:2075  paused() */\n      tag_174\n        /* \"@openzeppelin/contracts/utils/Pausable.sol\":2067:2073  paused */\n      tag_38\n        /* \"@openzeppelin/contracts/utils/Pausable.sol\":2067:2075  paused() */\n      jump\t// in\n    tag_174:\n        /* \"@openzeppelin/contracts/utils/Pausable.sol\":2063:2124  if (paused()) {... */\n      iszero\n      tag_175\n      jumpi\n        /* \"@openzeppelin/contracts/utils/Pausable.sol\":2098:2113  EnforcedPause() */\n      mload(0x40)\n      0xd93c066500000000000000000000000000000000000000000000000000000000\n      dup2\n      mstore\n      0x04\n      add\n      mload(0x40)\n      dup1\n      swap2\n      sub\n      swap1\n      revert\n        /* \"@openzeppelin/contracts/utils/Pausable.sol\":2063:2124  if (paused()) {... */\n    tag_175:\n        /* \"@openzeppelin/contracts/utils/Pausable.sol\":2002:2130  function _requireNotPaused() internal view virtual {... */\n      jump\t// out\n        /* \"@openzeppelin/contracts/utils/ReentrancyGuard.sol\":2888:3096  function _nonReentrantAfter() private {... */\n    tag_107:\n        /* \"@openzeppelin/contracts/utils/ReentrancyGuard.sol\":1857:1858  1 */\n      0x01\n        /* \"@openzeppelin/contracts/utils/ReentrancyGuard.sol\":3068:3075  _status */\n      dup1\n        /* \"@openzeppelin/contracts/utils/ReentrancyGuard.sol\":3068:3089  _status = NOT_ENTERED */\n      dup2\n      swap1\n      sstore\n      pop\n        /* \"@openzeppelin/contracts/utils/ReentrancyGuard.sol\":2888:3096  function _nonReentrantAfter() private {... */\n      jump\t// out\n        /* \"@openzeppelin/contracts/access/Ownable.sol\":2912:3099  function _transferOwnership(address newOwner) internal virtual {... */\n    tag_113:\n        /* \"@openzeppelin/contracts/access/Ownable.sol\":2985:3001  address oldOwner */\n      0x00\n        /* \"@openzeppelin/contracts/access/Ownable.sol\":3004:3010  _owner */\n      dup1\n      0x00\n      swap1\n      sload\n      swap1\n      0x0100\n      exp\n      swap1\n      div\n      0xffffffffffffffffffffffffffffffffffffffff\n      and\n        /* \"@openzeppelin/contracts/access/Ownable.sol\":2985:3010  address oldOwner = _owner */\n      swap1\n      pop\n        /* \"@openzeppelin/contracts/access/Ownable.sol\":3029:3037  newOwner */\n      dup2\n        /* \"@openzeppelin/contracts/access/Ownable.sol\":3020:3026  _owner */\n      0x00\n      dup1\n        /* \"@openzeppelin/contracts/access/Ownable.sol\":3020:3037  _owner = newOwner */\n      0x0100\n      exp\n      dup2\n      sload\n      dup2\n      0xffffffffffffffffffffffffffffffffffffffff\n      mul\n      not\n      and\n      swap1\n      dup4\n      0xffffffffffffffffffffffffffffffffffffffff\n      and\n      mul\n      or\n      swap1\n      sstore\n      pop\n        /* \"@openzeppelin/contracts/access/Ownable.sol\":3083:3091  newOwner */\n      dup2\n        /* \"@openzeppelin/contracts/access/Ownable.sol\":3052:3092  OwnershipTransferred(oldOwner, newOwner) */\n      0xffffffffffffffffffffffffffffffffffffffff\n      and\n        /* \"@openzeppelin/contracts/access/Ownable.sol\":3073:3081  oldOwner */\n      dup2\n        /* \"@openzeppelin/contracts/access/Ownable.sol\":3052:3092  OwnershipTransferred(oldOwner, newOwner) */\n      0xffffffffffffffffffffffffffffffffffffffff\n      and\n      0x8be0079c531659141344cd1fd0a4f28419497f9722a3daafe3b4186f6b6457e0\n      mload(0x40)\n      mload(0x40)\n      dup1\n      swap2\n      sub\n      swap1\n      log3\n        /* \"@openzeppelin/contracts/access/Ownable.sol\":2975:3099  {... */\n      pop\n        /* \"@openzeppelin/contracts/access/Ownable.sol\":2912:3099  function _transferOwnership(address newOwner) internal virtual {... */\n      pop\n      jump\t// out\n        /* \"@openzeppelin/contracts/utils/Pausable.sol\":2463:2578  function _pause() internal virtual whenNotPaused {... */\n    tag_118:\n        /* \"@openzeppelin/contracts/utils/Pausable.sol\":1474:1493  _requireNotPaused() */\n      tag_179\n        /* \"@openzeppelin/contracts/utils/Pausable.sol\":1474:1491  _requireNotPaused */\n      tag_84\n        /* \"@openzeppelin/contracts/utils/Pausable.sol\":1474:1493  _requireNotPaused() */\n      jump\t// in\n    tag_179:\n        /* \"@openzeppelin/contracts/utils/Pausable.sol\":2532:2536  true */\n      0x01\n        /* \"@openzeppelin/contracts/utils/Pausable.sol\":2522:2529  _paused */\n      0x02\n      0x00\n        /* \"@openzeppelin/contracts/utils/Pausable.sol\":2522:2536  _paused = true */\n      0x0100\n      exp\n      dup2\n      sload\n      dup2\n      0xff\n      mul\n      not\n      and\n      swap1\n      dup4\n      iszero\n      iszero\n      mul\n      or\n      swap1\n      sstore\n      pop\n        /* \"@openzeppelin/contracts/utils/Pausable.sol\":2551:2571  Paused(_msgSender()) */\n      0x62e78cea01bee320cd4e420270b5ea74000d11b0c9f74754ebdbfc544b05a258\n        /* \"@openzeppelin/contracts/utils/Pausable.sol\":2558:2570  _msgSender() */\n      tag_181\n        /* \"@openzeppelin/contracts/utils/Pausable.sol\":2558:2568  _msgSender */\n      tag_161\n        /* \"@openzeppelin/contracts/utils/Pausable.sol\":2558:2570  _msgSender() */\n      jump\t// in\n    tag_181:\n        /* \"@openzeppelin/contracts/utils/Pausable.sol\":2551:2571  Paused(_msgSender()) */\n      mload(0x40)\n      tag_182\n      swap2\n      swap1\n      tag_48\n      jump\t// in\n    tag_182:\n      mload(0x40)\n      dup1\n      swap2\n      sub\n      swap1\n      log1\n        /* \"@openzeppelin/contracts/utils/Pausable.sol\":2463:2578  function _pause() internal virtual whenNotPaused {... */\n      jump\t// out\n        /* \"@openzeppelin/contracts/utils/Pausable.sol\":2202:2328  function _requirePaused() internal view virtual {... */\n    tag_124:\n        /* \"@openzeppelin/contracts/utils/Pausable.sol\":2265:2273  paused() */\n      tag_184\n        /* \"@openzeppelin/contracts/utils/Pausable.sol\":2265:2271  paused */\n      tag_38\n        /* \"@openzeppelin/contracts/utils/Pausable.sol\":2265:2273  paused() */\n      jump\t// in\n    tag_184:\n        /* \"@openzeppelin/contracts/utils/Pausable.sol\":2260:2322  if (!paused()) {... */\n      tag_185\n      jumpi\n        /* \"@openzeppelin/contracts/utils/Pausable.sol\":2296:2311  ExpectedPause() */\n      mload(0x40)\n      0x8dfc202b00000000000000000000000000000000000000000000000000000000\n      dup2\n      mstore\n      0x04\n      add\n      mload(0x40)\n      dup1\n      swap2\n      sub\n      swap1\n      revert\n        /* \"@openzeppelin/contracts/utils/Pausable.sol\":2260:2322  if (!paused()) {... */\n    tag_185:\n        /* \"@openzeppelin/contracts/utils/Pausable.sol\":2202:2328  function _requirePaused() internal view virtual {... */\n      jump\t// out\n        /* \"@openzeppelin/contracts/utils/Context.sol\":656:752  function _msgSender() internal view virtual returns (address) {... */\n    tag_161:\n        /* \"@openzeppelin/contracts/utils/Context.sol\":709:716  address */\n      0x00\n        /* \"@openzeppelin/contracts/utils/Context.sol\":735:745  msg.sender */\n      caller\n        /* \"@openzeppelin/contracts/utils/Context.sol\":728:745  return msg.sender */\n      swap1\n      pop\n        /* \"@openzeppelin/contracts/utils/Context.sol\":656:752  function _msgSender() internal view virtual returns (address) {... */\n      swap1\n      jump\t// out\n        /* \"#utility.yul\":88:205   */\n    tag_188:\n        /* \"#utility.yul\":197:198   */\n      0x00\n        /* \"#utility.yul\":194:195   */\n      dup1\n        /* \"#utility.yul\":187:199   */\n      revert\n        /* \"#utility.yul\":334:411   */\n    tag_190:\n        /* \"#utility.yul\":371:378   */\n      0x00\n        /* \"#utility.yul\":400:405   */\n      dup2\n        /* \"#utility.yul\":389:405   */\n      swap1\n      pop\n        /* \"#utility.yul\":334:411   */\n      swap2\n      swap1\n      pop\n      jump\t// out\n        /* \"#utility.yul\":417:539   */\n    tag_191:\n        /* \"#utility.yul\":490:514   */\n      tag_245\n        /* \"#utility.yul\":508:513   */\n      dup2\n        /* \"#utility.yul\":490:514   */\n      tag_190\n      jump\t// in\n    tag_245:\n        /* \"#utility.yul\":483:488   */\n      dup2\n        /* \"#utility.yul\":480:515   */\n      eq\n        /* \"#utility.yul\":470:533   */\n      tag_246\n      jumpi\n        /* \"#utility.yul\":529:530   */\n      0x00\n        /* \"#utility.yul\":526:527   */\n      dup1\n        /* \"#utility.yul\":519:531   */\n      revert\n        /* \"#utility.yul\":470:533   */\n    tag_246:\n        /* \"#utility.yul\":417:539   */\n      pop\n      jump\t// out\n        /* \"#utility.yul\":545:684   */\n    tag_192:\n        /* \"#utility.yul\":591:596   */\n      0x00\n        /* \"#utility.yul\":629:635   */\n      dup2\n        /* \"#utility.yul\":616:636   */\n      calldataload\n        /* \"#utility.yul\":607:636   */\n      swap1\n      pop\n        /* \"#utility.yul\":645:678   */\n      tag_248\n        /* \"#utility.yul\":672:677   */\n      dup2\n        /* \"#utility.yul\":645:678   */\n      tag_191\n      jump\t// in\n    tag_248:\n        /* \"#utility.yul\":545:684   */\n      swap3\n      swap2\n      pop\n      pop\n      jump\t// out\n        /* \"#utility.yul\":690:1019   */\n    tag_20:\n        /* \"#utility.yul\":749:755   */\n      0x00\n        /* \"#utility.yul\":798:800   */\n      0x20\n        /* \"#utility.yul\":786:795   */\n      dup3\n        /* \"#utility.yul\":777:784   */\n      dup5\n        /* \"#utility.yul\":773:796   */\n      sub\n        /* \"#utility.yul\":769:801   */\n      slt\n        /* \"#utility.yul\":766:885   */\n      iszero\n      tag_250\n      jumpi\n        /* \"#utility.yul\":804:883   */\n      tag_251\n      tag_188\n      jump\t// in\n    tag_251:\n        /* \"#utility.yul\":766:885   */\n    tag_250:\n        /* \"#utility.yul\":924:925   */\n      0x00\n        /* \"#utility.yul\":949:1002   */\n      tag_252\n        /* \"#utility.yul\":994:1001   */\n      dup5\n        /* \"#utility.yul\":985:991   */\n      dup3\n        /* \"#utility.yul\":974:983   */\n      dup6\n        /* \"#utility.yul\":970:992   */\n      add\n        /* \"#utility.yul\":949:1002   */\n      tag_192\n      jump\t// in\n    tag_252:\n        /* \"#utility.yul\":939:1002   */\n      swap2\n      pop\n        /* \"#utility.yul\":895:1012   */\n      pop\n        /* \"#utility.yul\":690:1019   */\n      swap3\n      swap2\n      pop\n      pop\n      jump\t// out\n        /* \"#utility.yul\":1025:1151   */\n    tag_193:\n        /* \"#utility.yul\":1062:1069   */\n      0x00\n        /* \"#utility.yul\":1102:1144   */\n      0xffffffffffffffffffffffffffffffffffffffff\n        /* \"#utility.yul\":1095:1100   */\n      dup3\n        /* \"#utility.yul\":1091:1145   */\n      and\n        /* \"#utility.yul\":1080:1145   */\n      swap1\n      pop\n        /* \"#utility.yul\":1025:1151   */\n      swap2\n      swap1\n      pop\n      jump\t// out\n        /* \"#utility.yul\":1157:1217   */\n    tag_194:\n        /* \"#utility.yul\":1185:1188   */\n      0x00\n        /* \"#utility.yul\":1206:1211   */\n      dup2\n        /* \"#utility.yul\":1199:1211   */\n      swap1\n      pop\n        /* \"#utility.yul\":1157:1217   */\n      swap2\n      swap1\n      pop\n      jump\t// out\n        /* \"#utility.yul\":1223:1365   */\n    tag_195:\n        /* \"#utility.yul\":1273:1282   */\n      0x00\n        /* \"#utility.yul\":1306:1359   */\n      tag_256\n        /* \"#utility.yul\":1324:1358   */\n      tag_257\n        /* \"#utility.yul\":1333:1357   */\n      tag_258\n        /* \"#utility.yul\":1351:1356   */\n      dup5\n        /* \"#utility.yul\":1333:1357   */\n      tag_193\n      jump\t// in\n    tag_258:\n        /* \"#utility.yul\":1324:1358   */\n      tag_194\n      jump\t// in\n    tag_257:\n        /* \"#utility.yul\":1306:1359   */\n      tag_193\n      jump\t// in\n    tag_256:\n        /* \"#utility.yul\":1293:1359   */\n      swap1\n      pop\n        /* \"#utility.yul\":1223:1365   */\n      swap2\n      swap1\n      pop\n      jump\t// out\n        /* \"#utility.yul\":1371:1497   */\n    tag_196:\n        /* \"#utility.yul\":1421:1430   */\n      0x00\n        /* \"#utility.yul\":1454:1491   */\n      tag_260\n        /* \"#utility.yul\":1485:1490   */\n      dup3\n        /* \"#utility.yul\":1454:1491   */\n      tag_195\n      jump\t// in\n    tag_260:\n        /* \"#utility.yul\":1441:1491   */\n      swap1\n      pop\n        /* \"#utility.yul\":1371:1497   */\n      swap2\n      swap1\n      pop\n      jump\t// out\n        /* \"#utility.yul\":1503:1648   */\n    tag_197:\n        /* \"#utility.yul\":1572:1581   */\n      0x00\n        /* \"#utility.yul\":1605:1642   */\n      tag_262\n        /* \"#utility.yul\":1636:1641   */\n      dup3\n        /* \"#utility.yul\":1605:1642   */\n      tag_196\n      jump\t// in\n    tag_262:\n        /* \"#utility.yul\":1592:1642   */\n      swap1\n      pop\n        /* \"#utility.yul\":1503:1648   */\n      swap2\n      swap1\n      pop\n      jump\t// out\n        /* \"#utility.yul\":1654:1823   */\n    tag_198:\n        /* \"#utility.yul\":1760:1816   */\n      tag_264\n        /* \"#utility.yul\":1810:1815   */\n      dup2\n        /* \"#utility.yul\":1760:1816   */\n      tag_197\n      jump\t// in\n    tag_264:\n        /* \"#utility.yul\":1755:1758   */\n      dup3\n        /* \"#utility.yul\":1748:1817   */\n      mstore\n        /* \"#utility.yul\":1654:1823   */\n      pop\n      pop\n      jump\t// out\n        /* \"#utility.yul\":1829:2089   */\n    tag_25:\n        /* \"#utility.yul\":1941:1945   */\n      0x00\n        /* \"#utility.yul\":1979:1981   */\n      0x20\n        /* \"#utility.yul\":1968:1977   */\n      dup3\n        /* \"#utility.yul\":1964:1982   */\n      add\n        /* \"#utility.yul\":1956:1982   */\n      swap1\n      pop\n        /* \"#utility.yul\":1992:2082   */\n      tag_266\n        /* \"#utility.yul\":2079:2080   */\n      0x00\n        /* \"#utility.yul\":2068:2077   */\n      dup4\n        /* \"#utility.yul\":2064:2081   */\n      add\n        /* \"#utility.yul\":2055:2061   */\n      dup5\n        /* \"#utility.yul\":1992:2082   */\n      tag_198\n      jump\t// in\n    tag_266:\n        /* \"#utility.yul\":1829:2089   */\n      swap3\n      swap2\n      pop\n      pop\n      jump\t// out\n        /* \"#utility.yul\":2095:2185   */\n    tag_199:\n        /* \"#utility.yul\":2129:2136   */\n      0x00\n        /* \"#utility.yul\":2172:2177   */\n      dup2\n        /* \"#utility.yul\":2165:2178   */\n      iszero\n        /* \"#utility.yul\":2158:2179   */\n      iszero\n        /* \"#utility.yul\":2147:2179   */\n      swap1\n      pop\n        /* \"#utility.yul\":2095:2185   */\n      swap2\n      swap1\n      pop\n      jump\t// out\n        /* \"#utility.yul\":2191:2300   */\n    tag_200:\n        /* \"#utility.yul\":2272:2293   */\n      tag_269\n        /* \"#utility.yul\":2287:2292   */\n      dup2\n        /* \"#utility.yul\":2272:2293   */\n      tag_199\n      jump\t// in\n    tag_269:\n        /* \"#utility.yul\":2267:2270   */\n      dup3\n        /* \"#utility.yul\":2260:2294   */\n      mstore\n        /* \"#utility.yul\":2191:2300   */\n      pop\n      pop\n      jump\t// out\n        /* \"#utility.yul\":2306:2383   */\n    tag_201:\n        /* \"#utility.yul\":2343:2350   */\n      0x00\n        /* \"#utility.yul\":2372:2377   */\n      dup2\n        /* \"#utility.yul\":2361:2377   */\n      swap1\n      pop\n        /* \"#utility.yul\":2306:2383   */\n      swap2\n      swap1\n      pop\n      jump\t// out\n        /* \"#utility.yul\":2389:2507   */\n    tag_202:\n        /* \"#utility.yul\":2476:2500   */\n      tag_272\n        /* \"#utility.yul\":2494:2499   */\n      dup2\n        /* \"#utility.yul\":2476:2500   */\n      tag_201\n      jump\t// in\n    tag_272:\n        /* \"#utility.yul\":2471:2474   */\n      dup3\n        /* \"#utility.yul\":2464:2501   */\n      mstore\n        /* \"#utility.yul\":2389:2507   */\n      pop\n      pop\n      jump\t// out\n        /* \"#utility.yul\":2513:2943   */\n    tag_30:\n        /* \"#utility.yul\":2656:2660   */\n      0x00\n        /* \"#utility.yul\":2694:2696   */\n      0x60\n        /* \"#utility.yul\":2683:2692   */\n      dup3\n        /* \"#utility.yul\":2679:2697   */\n      add\n        /* \"#utility.yul\":2671:2697   */\n      swap1\n      pop\n        /* \"#utility.yul\":2707:2772   */\n      tag_274\n        /* \"#utility.yul\":2769:2770   */\n      0x00\n        /* \"#utility.yul\":2758:2767   */\n      dup4\n        /* \"#utility.yul\":2754:2771   */\n      add\n        /* \"#utility.yul\":2745:2751   */\n      dup7\n        /* \"#utility.yul\":2707:2772   */\n      tag_200\n      jump\t// in\n    tag_274:\n        /* \"#utility.yul\":2782:2854   */\n      tag_275\n        /* \"#utility.yul\":2850:2852   */\n      0x20\n        /* \"#utility.yul\":2839:2848   */\n      dup4\n        /* \"#utility.yul\":2835:2853   */\n      add\n        /* \"#utility.yul\":2826:2832   */\n      dup6\n        /* \"#utility.yul\":2782:2854   */\n      tag_202\n      jump\t// in\n    tag_275:\n        /* \"#utility.yul\":2864:2936   */\n      tag_276\n        /* \"#utility.yul\":2932:2934   */\n      0x40\n        /* \"#utility.yul\":2921:2930   */\n      dup4\n        /* \"#utility.yul\":2917:2935   */\n      add\n        /* \"#utility.yul\":2908:2914   */\n      dup5\n        /* \"#utility.yul\":2864:2936   */\n      tag_202\n      jump\t// in\n    tag_276:\n        /* \"#utility.yul\":2513:2943   */\n      swap5\n      swap4\n      pop\n      pop\n      pop\n      pop\n      jump\t// out\n        /* \"#utility.yul\":2949:3066   */\n    tag_203:\n        /* \"#utility.yul\":3058:3059   */\n      0x00\n        /* \"#utility.yul\":3055:3056   */\n      dup1\n        /* \"#utility.yul\":3048:3060   */\n      revert\n        /* \"#utility.yul\":3090:3339   */\n    tag_204:\n        /* \"#utility.yul\":3161:3169   */\n      0x00\n        /* \"#utility.yul\":3192:3198   */\n      dup2\n        /* \"#utility.yul\":3180:3198   */\n      swap1\n      pop\n        /* \"#utility.yul\":3245:3248   */\n      dup3\n        /* \"#utility.yul\":3237:3241   */\n      0x20\n        /* \"#utility.yul\":3231:3235   */\n      0x08\n        /* \"#utility.yul\":3227:3242   */\n      mul\n        /* \"#utility.yul\":3217:3225   */\n      dup3\n        /* \"#utility.yul\":3213:3243   */\n      add\n        /* \"#utility.yul\":3210:3249   */\n      gt\n        /* \"#utility.yul\":3207:3333   */\n      iszero\n      tag_279\n      jumpi\n        /* \"#utility.yul\":3252:3331   */\n      tag_280\n      tag_203\n      jump\t// in\n    tag_280:\n        /* \"#utility.yul\":3207:3333   */\n    tag_279:\n        /* \"#utility.yul\":3090:3339   */\n      swap3\n      swap2\n      pop\n      pop\n      jump\t// out\n        /* \"#utility.yul\":3363:3612   */\n    tag_205:\n        /* \"#utility.yul\":3434:3442   */\n      0x00\n        /* \"#utility.yul\":3465:3471   */\n      dup2\n        /* \"#utility.yul\":3453:3471   */\n      swap1\n      pop\n        /* \"#utility.yul\":3518:3521   */\n      dup3\n        /* \"#utility.yul\":3510:3514   */\n      0x20\n        /* \"#utility.yul\":3504:3508   */\n      0x01\n        /* \"#utility.yul\":3500:3515   */\n      mul\n        /* \"#utility.yul\":3490:3498   */\n      dup3\n        /* \"#utility.yul\":3486:3516   */\n      add\n        /* \"#utility.yul\":3483:3522   */\n      gt\n        /* \"#utility.yul\":3480:3606   */\n      iszero\n      tag_282\n      jumpi\n        /* \"#utility.yul\":3525:3604   */\n      tag_283\n      tag_203\n      jump\t// in\n    tag_283:\n        /* \"#utility.yul\":3480:3606   */\n    tag_282:\n        /* \"#utility.yul\":3363:3612   */\n      swap3\n      swap2\n      pop\n      pop\n      jump\t// out\n        /* \"#utility.yul\":3618:4339   */\n    tag_35:\n        /* \"#utility.yul\":3745:3751   */\n      0x00\n        /* \"#utility.yul\":3753:3759   */\n      dup1\n        /* \"#utility.yul\":3761:3767   */\n      0x00\n        /* \"#utility.yul\":3810:3813   */\n      0x0140\n        /* \"#utility.yul\":3798:3807   */\n      dup5\n        /* \"#utility.yul\":3789:3796   */\n      dup7\n        /* \"#utility.yul\":3785:3808   */\n      sub\n        /* \"#utility.yul\":3781:3814   */\n      slt\n        /* \"#utility.yul\":3778:3898   */\n      iszero\n      tag_285\n      jumpi\n        /* \"#utility.yul\":3817:3896   */\n      tag_286\n      tag_188\n      jump\t// in\n    tag_286:\n        /* \"#utility.yul\":3778:3898   */\n    tag_285:\n        /* \"#utility.yul\":3937:3938   */\n      0x00\n        /* \"#utility.yul\":3962:4015   */\n      tag_287\n        /* \"#utility.yul\":4007:4014   */\n      dup7\n        /* \"#utility.yul\":3998:4004   */\n      dup3\n        /* \"#utility.yul\":3987:3996   */\n      dup8\n        /* \"#utility.yul\":3983:4005   */\n      add\n        /* \"#utility.yul\":3962:4015   */\n      tag_192\n      jump\t// in\n    tag_287:\n        /* \"#utility.yul\":3952:4015   */\n      swap4\n      pop\n        /* \"#utility.yul\":3908:4025   */\n      pop\n        /* \"#utility.yul\":4064:4066   */\n      0x20\n        /* \"#utility.yul\":4090:4168   */\n      tag_288\n        /* \"#utility.yul\":4160:4167   */\n      dup7\n        /* \"#utility.yul\":4151:4157   */\n      dup3\n        /* \"#utility.yul\":4140:4149   */\n      dup8\n        /* \"#utility.yul\":4136:4158   */\n      add\n        /* \"#utility.yul\":4090:4168   */\n      tag_204\n      jump\t// in\n    tag_288:\n        /* \"#utility.yul\":4080:4168   */\n      swap3\n      pop\n        /* \"#utility.yul\":4035:4178   */\n      pop\n        /* \"#utility.yul\":4217:4220   */\n      0x0120\n        /* \"#utility.yul\":4244:4322   */\n      tag_289\n        /* \"#utility.yul\":4314:4321   */\n      dup7\n        /* \"#utility.yul\":4305:4311   */\n      dup3\n        /* \"#utility.yul\":4294:4303   */\n      dup8\n        /* \"#utility.yul\":4290:4312   */\n      add\n        /* \"#utility.yul\":4244:4322   */\n      tag_205\n      jump\t// in\n    tag_289:\n        /* \"#utility.yul\":4234:4322   */\n      swap2\n      pop\n        /* \"#utility.yul\":4188:4332   */\n      pop\n        /* \"#utility.yul\":3618:4339   */\n      swap3\n      pop\n      swap3\n      pop\n      swap3\n      jump\t// out\n        /* \"#utility.yul\":4345:4555   */\n    tag_40:\n        /* \"#utility.yul\":4432:4436   */\n      0x00\n        /* \"#utility.yul\":4470:4472   */\n      0x20\n        /* \"#utility.yul\":4459:4468   */\n      dup3\n        /* \"#utility.yul\":4455:4473   */\n      add\n        /* \"#utility.yul\":4447:4473   */\n      swap1\n      pop\n        /* \"#utility.yul\":4483:4548   */\n      tag_291\n        /* \"#utility.yul\":4545:4546   */\n      0x00\n        /* \"#utility.yul\":4534:4543   */\n      dup4\n        /* \"#utility.yul\":4530:4547   */\n      add\n        /* \"#utility.yul\":4521:4527   */\n      dup5\n        /* \"#utility.yul\":4483:4548   */\n      tag_200\n      jump\t// in\n    tag_291:\n        /* \"#utility.yul\":4345:4555   */\n      swap3\n      swap2\n      pop\n      pop\n      jump\t// out\n        /* \"#utility.yul\":4561:4657   */\n    tag_206:\n        /* \"#utility.yul\":4598:4605   */\n      0x00\n        /* \"#utility.yul\":4627:4651   */\n      tag_293\n        /* \"#utility.yul\":4645:4650   */\n      dup3\n        /* \"#utility.yul\":4627:4651   */\n      tag_193\n      jump\t// in\n    tag_293:\n        /* \"#utility.yul\":4616:4651   */\n      swap1\n      pop\n        /* \"#utility.yul\":4561:4657   */\n      swap2\n      swap1\n      pop\n      jump\t// out\n        /* \"#utility.yul\":4663:4781   */\n    tag_207:\n        /* \"#utility.yul\":4750:4774   */\n      tag_295\n        /* \"#utility.yul\":4768:4773   */\n      dup2\n        /* \"#utility.yul\":4750:4774   */\n      tag_206\n      jump\t// in\n    tag_295:\n        /* \"#utility.yul\":4745:4748   */\n      dup3\n        /* \"#utility.yul\":4738:4775   */\n      mstore\n        /* \"#utility.yul\":4663:4781   */\n      pop\n      pop\n      jump\t// out\n        /* \"#utility.yul\":4787:5009   */\n    tag_48:\n        /* \"#utility.yul\":4880:4884   */\n      0x00\n        /* \"#utility.yul\":4918:4920   */\n      0x20\n        /* \"#utility.yul\":4907:4916   */\n      dup3\n        /* \"#utility.yul\":4903:4921   */\n      add\n        /* \"#utility.yul\":4895:4921   */\n      swap1\n      pop\n        /* \"#utility.yul\":4931:5002   */\n      tag_297\n        /* \"#utility.yul\":4999:5000   */\n      0x00\n        /* \"#utility.yul\":4988:4997   */\n      dup4\n        /* \"#utility.yul\":4984:5001   */\n      add\n        /* \"#utility.yul\":4975:4981   */\n      dup5\n        /* \"#utility.yul\":4931:5002   */\n      tag_207\n      jump\t// in\n    tag_297:\n        /* \"#utility.yul\":4787:5009   */\n      swap3\n      swap2\n      pop\n      pop\n      jump\t// out\n        /* \"#utility.yul\":5015:5137   */\n    tag_208:\n        /* \"#utility.yul\":5088:5112   */\n      tag_299\n        /* \"#utility.yul\":5106:5111   */\n      dup2\n        /* \"#utility.yul\":5088:5112   */\n      tag_206\n      jump\t// in\n    tag_299:\n        /* \"#utility.yul\":5081:5086   */\n      dup2\n        /* \"#utility.yul\":5078:5113   */\n      eq\n        /* \"#utility.yul\":5068:5131   */\n      tag_300\n      jumpi\n        /* \"#utility.yul\":5127:5128   */\n      0x00\n        /* \"#utility.yul\":5124:5125   */\n      dup1\n        /* \"#utility.yul\":5117:5129   */\n      revert\n        /* \"#utility.yul\":5068:5131   */\n    tag_300:\n        /* \"#utility.yul\":5015:5137   */\n      pop\n      jump\t// out\n        /* \"#utility.yul\":5143:5282   */\n    tag_209:\n        /* \"#utility.yul\":5189:5194   */\n      0x00\n        /* \"#utility.yul\":5227:5233   */\n      dup2\n        /* \"#utility.yul\":5214:5234   */\n      calldataload\n        /* \"#utility.yul\":5205:5234   */\n      swap1\n      pop\n        /* \"#utility.yul\":5243:5276   */\n      tag_302\n        /* \"#utility.yul\":5270:5275   */\n      dup2\n        /* \"#utility.yul\":5243:5276   */\n      tag_208\n      jump\t// in\n    tag_302:\n        /* \"#utility.yul\":5143:5282   */\n      swap3\n      swap2\n      pop\n      pop\n      jump\t// out\n        /* \"#utility.yul\":5288:5617   */\n    tag_51:\n        /* \"#utility.yul\":5347:5353   */\n      0x00\n        /* \"#utility.yul\":5396:5398   */\n      0x20\n        /* \"#utility.yul\":5384:5393   */\n      dup3\n        /* \"#utility.yul\":5375:5382   */\n      dup5\n        /* \"#utility.yul\":5371:5394   */\n      sub\n        /* \"#utility.yul\":5367:5399   */\n      slt\n        /* \"#utility.yul\":5364:5483   */\n      iszero\n      tag_304\n      jumpi\n        /* \"#utility.yul\":5402:5481   */\n      tag_305\n      tag_188\n      jump\t// in\n    tag_305:\n        /* \"#utility.yul\":5364:5483   */\n    tag_304:\n        /* \"#utility.yul\":5522:5523   */\n      0x00\n        /* \"#utility.yul\":5547:5600   */\n      tag_306\n        /* \"#utility.yul\":5592:5599   */\n      dup5\n        /* \"#utility.yul\":5583:5589   */\n      dup3\n        /* \"#utility.yul\":5572:5581   */\n      dup6\n        /* \"#utility.yul\":5568:5590   */\n      add\n        /* \"#utility.yul\":5547:5600   */\n      tag_209\n      jump\t// in\n    tag_306:\n        /* \"#utility.yul\":5537:5600   */\n      swap2\n      pop\n        /* \"#utility.yul\":5493:5610   */\n      pop\n        /* \"#utility.yul\":5288:5617   */\n      swap3\n      swap2\n      pop\n      pop\n      jump\t// out\n        /* \"#utility.yul\":5623:5745   */\n    tag_210:\n        /* \"#utility.yul\":5696:5720   */\n      tag_308\n        /* \"#utility.yul\":5714:5719   */\n      dup2\n        /* \"#utility.yul\":5696:5720   */\n      tag_201\n      jump\t// in\n    tag_308:\n        /* \"#utility.yul\":5689:5694   */\n      dup2\n        /* \"#utility.yul\":5686:5721   */\n      eq\n        /* \"#utility.yul\":5676:5739   */\n      tag_309\n      jumpi\n        /* \"#utility.yul\":5735:5736   */\n      0x00\n        /* \"#utility.yul\":5732:5733   */\n      dup1\n        /* \"#utility.yul\":5725:5737   */\n      revert\n        /* \"#utility.yul\":5676:5739   */\n    tag_309:\n        /* \"#utility.yul\":5623:5745   */\n      pop\n      jump\t// out\n        /* \"#utility.yul\":5751:5890   */\n    tag_211:\n        /* \"#utility.yul\":5797:5802   */\n      0x00\n        /* \"#utility.yul\":5835:5841   */\n      dup2\n        /* \"#utility.yul\":5822:5842   */\n      calldataload\n        /* \"#utility.yul\":5813:5842   */\n      swap1\n      pop\n        /* \"#utility.yul\":5851:5884   */\n      tag_311\n        /* \"#utility.yul\":5878:5883   */\n      dup2\n        /* \"#utility.yul\":5851:5884   */\n      tag_210\n      jump\t// in\n    tag_311:\n        /* \"#utility.yul\":5751:5890   */\n      swap3\n      swap2\n      pop\n      pop\n      jump\t// out\n        /* \"#utility.yul\":5896:6225   */\n    tag_55:\n        /* \"#utility.yul\":5955:5961   */\n      0x00\n        /* \"#utility.yul\":6004:6006   */\n      0x20\n        /* \"#utility.yul\":5992:6001   */\n      dup3\n        /* \"#utility.yul\":5983:5990   */\n      dup5\n        /* \"#utility.yul\":5979:6002   */\n      sub\n        /* \"#utility.yul\":5975:6007   */\n      slt\n        /* \"#utility.yul\":5972:6091   */\n      iszero\n      tag_313\n      jumpi\n        /* \"#utility.yul\":6010:6089   */\n      tag_314\n      tag_188\n      jump\t// in\n    tag_314:\n        /* \"#utility.yul\":5972:6091   */\n    tag_313:\n        /* \"#utility.yul\":6130:6131   */\n      0x00\n        /* \"#utility.yul\":6155:6208   */\n      tag_315\n        /* \"#utility.yul\":6200:6207   */\n      dup5\n        /* \"#utility.yul\":6191:6197   */\n      dup3\n        /* \"#utility.yul\":6180:6189   */\n      dup6\n        /* \"#utility.yul\":6176:6198   */\n      add\n        /* \"#utility.yul\":6155:6208   */\n      tag_211\n      jump\t// in\n    tag_315:\n        /* \"#utility.yul\":6145:6208   */\n      swap2\n      pop\n        /* \"#utility.yul\":6101:6218   */\n      pop\n        /* \"#utility.yul\":5896:6225   */\n      swap3\n      swap2\n      pop\n      pop\n      jump\t// out\n        /* \"#utility.yul\":6231:6400   */\n    tag_212:\n        /* \"#utility.yul\":6315:6326   */\n      0x00\n        /* \"#utility.yul\":6349:6355   */\n      dup3\n        /* \"#utility.yul\":6344:6347   */\n      dup3\n        /* \"#utility.yul\":6337:6356   */\n      mstore\n        /* \"#utility.yul\":6389:6393   */\n      0x20\n        /* \"#utility.yul\":6384:6387   */\n      dup3\n        /* \"#utility.yul\":6380:6394   */\n      add\n        /* \"#utility.yul\":6365:6394   */\n      swap1\n      pop\n        /* \"#utility.yul\":6231:6400   */\n      swap3\n      swap2\n      pop\n      pop\n      jump\t// out\n        /* \"#utility.yul\":6406:6579   */\n    tag_213:\n        /* \"#utility.yul\":6546:6571   */\n      0x4e6f207265766f636174696f6e20726571756573746564000000000000000000\n        /* \"#utility.yul\":6542:6543   */\n      0x00\n        /* \"#utility.yul\":6534:6540   */\n      dup3\n        /* \"#utility.yul\":6530:6544   */\n      add\n        /* \"#utility.yul\":6523:6572   */\n      mstore\n        /* \"#utility.yul\":6406:6579   */\n      pop\n      jump\t// out\n        /* \"#utility.yul\":6585:6951   */\n    tag_214:\n        /* \"#utility.yul\":6727:6730   */\n      0x00\n        /* \"#utility.yul\":6748:6815   */\n      tag_319\n        /* \"#utility.yul\":6812:6814   */\n      0x17\n        /* \"#utility.yul\":6807:6810   */\n      dup4\n        /* \"#utility.yul\":6748:6815   */\n      tag_212\n      jump\t// in\n    tag_319:\n        /* \"#utility.yul\":6741:6815   */\n      swap2\n      pop\n        /* \"#utility.yul\":6824:6917   */\n      tag_320\n        /* \"#utility.yul\":6913:6916   */\n      dup3\n        /* \"#utility.yul\":6824:6917   */\n      tag_213\n      jump\t// in\n    tag_320:\n        /* \"#utility.yul\":6942:6944   */\n      0x20\n        /* \"#utility.yul\":6937:6940   */\n      dup3\n        /* \"#utility.yul\":6933:6945   */\n      add\n        /* \"#utility.yul\":6926:6945   */\n      swap1\n      pop\n        /* \"#utility.yul\":6585:6951   */\n      swap2\n      swap1\n      pop\n      jump\t// out\n        /* \"#utility.yul\":6957:7376   */\n    tag_69:\n        /* \"#utility.yul\":7123:7127   */\n      0x00\n        /* \"#utility.yul\":7161:7163   */\n      0x20\n        /* \"#utility.yul\":7150:7159   */\n      dup3\n        /* \"#utility.yul\":7146:7164   */\n      add\n        /* \"#utility.yul\":7138:7164   */\n      swap1\n      pop\n        /* \"#utility.yul\":7210:7219   */\n      dup2\n        /* \"#utility.yul\":7204:7208   */\n      dup2\n        /* \"#utility.yul\":7200:7220   */\n      sub\n        /* \"#utility.yul\":7196:7197   */\n      0x00\n        /* \"#utility.yul\":7185:7194   */\n      dup4\n        /* \"#utility.yul\":7181:7198   */\n      add\n        /* \"#utility.yul\":7174:7221   */\n      mstore\n        /* \"#utility.yul\":7238:7369   */\n      tag_322\n        /* \"#utility.yul\":7364:7368   */\n      dup2\n        /* \"#utility.yul\":7238:7369   */\n      tag_214\n      jump\t// in\n    tag_322:\n        /* \"#utility.yul\":7230:7369   */\n      swap1\n      pop\n        /* \"#utility.yul\":6957:7376   */\n      swap2\n      swap1\n      pop\n      jump\t// out\n        /* \"#utility.yul\":7382:7547   */\n    tag_215:\n        /* \"#utility.yul\":7522:7539   */\n      0x54696d656c6f636b206163746976650000000000000000000000000000000000\n        /* \"#utility.yul\":7518:7519   */\n      0x00\n        /* \"#utility.yul\":7510:7516   */\n      dup3\n        /* \"#utility.yul\":7506:7520   */\n      add\n        /* \"#utility.yul\":7499:7540   */\n      mstore\n        /* \"#utility.yul\":7382:7547   */\n      pop\n      jump\t// out\n        /* \"#utility.yul\":7553:7919   */\n    tag_216:\n        /* \"#utility.yul\":7695:7698   */\n      0x00\n        /* \"#utility.yul\":7716:7783   */\n      tag_325\n        /* \"#utility.yul\":7780:7782   */\n      0x0f\n        /* \"#utility.yul\":7775:7778   */\n      dup4\n        /* \"#utility.yul\":7716:7783   */\n      tag_212\n      jump\t// in\n    tag_325:\n        /* \"#utility.yul\":7709:7783   */\n      swap2\n      pop\n        /* \"#utility.yul\":7792:7885   */\n      tag_326\n        /* \"#utility.yul\":7881:7884   */\n      dup3\n        /* \"#utility.yul\":7792:7885   */\n      tag_215\n      jump\t// in\n    tag_326:\n        /* \"#utility.yul\":7910:7912   */\n      0x20\n        /* \"#utility.yul\":7905:7908   */\n      dup3\n        /* \"#utility.yul\":7901:7913   */\n      add\n        /* \"#utility.yul\":7894:7913   */\n      swap1\n      pop\n        /* \"#utility.yul\":7553:7919   */\n      swap2\n      swap1\n      pop\n      jump\t// out\n        /* \"#utility.yul\":7925:8344   */\n    tag_72:\n        /* \"#utility.yul\":8091:8095   */\n      0x00\n        /* \"#utility.yul\":8129:8131   */\n      0x20\n        /* \"#utility.yul\":8118:8127   */\n      dup3\n        /* \"#utility.yul\":8114:8132   */\n      add\n        /* \"#utility.yul\":8106:8132   */\n      swap1\n      pop\n        /* \"#utility.yul\":8178:8187   */\n      dup2\n        /* \"#utility.yul\":8172:8176   */\n      dup2\n        /* \"#utility.yul\":8168:8188   */\n      sub\n        /* \"#utility.yul\":8164:8165   */\n      0x00\n        /* \"#utility.yul\":8153:8162   */\n      dup4\n        /* \"#utility.yul\":8149:8166   */\n      add\n        /* \"#utility.yul\":8142:8189   */\n      mstore\n        /* \"#utility.yul\":8206:8337   */\n      tag_328\n        /* \"#utility.yul\":8332:8336   */\n      dup2\n        /* \"#utility.yul\":8206:8337   */\n      tag_216\n      jump\t// in\n    tag_328:\n        /* \"#utility.yul\":8198:8337   */\n      swap1\n      pop\n        /* \"#utility.yul\":7925:8344   */\n      swap2\n      swap1\n      pop\n      jump\t// out\n        /* \"#utility.yul\":8350:8515   */\n    tag_217:\n        /* \"#utility.yul\":8490:8507   */\n      0x496e76616c696420495020686173680000000000000000000000000000000000\n        /* \"#utility.yul\":8486:8487   */\n      0x00\n        /* \"#utility.yul\":8478:8484   */\n      dup3\n        /* \"#utility.yul\":8474:8488   */\n      add\n        /* \"#utility.yul\":8467:8508   */\n      mstore\n        /* \"#utility.yul\":8350:8515   */\n      pop\n      jump\t// out\n        /* \"#utility.yul\":8521:8887   */\n    tag_218:\n        /* \"#utility.yul\":8663:8666   */\n      0x00\n        /* \"#utility.yul\":8684:8751   */\n      tag_331\n        /* \"#utility.yul\":8748:8750   */\n      0x0f\n        /* \"#utility.yul\":8743:8746   */\n      dup4\n        /* \"#utility.yul\":8684:8751   */\n      tag_212\n      jump\t// in\n    tag_331:\n        /* \"#utility.yul\":8677:8751   */\n      swap2\n      pop\n        /* \"#utility.yul\":8760:8853   */\n      tag_332\n        /* \"#utility.yul\":8849:8852   */\n      dup3\n        /* \"#utility.yul\":8760:8853   */\n      tag_217\n      jump\t// in\n    tag_332:\n        /* \"#utility.yul\":8878:8880   */\n      0x20\n        /* \"#utility.yul\":8873:8876   */\n      dup3\n        /* \"#utility.yul\":8869:8881   */\n      add\n        /* \"#utility.yul\":8862:8881   */\n      swap1\n      pop\n        /* \"#utility.yul\":8521:8887   */\n      swap2\n      swap1\n      pop\n      jump\t// out\n        /* \"#utility.yul\":8893:9312   */\n    tag_88:\n        /* \"#utility.yul\":9059:9063   */\n      0x00\n        /* \"#utility.yul\":9097:9099   */\n      0x20\n        /* \"#utility.yul\":9086:9095   */\n      dup3\n        /* \"#utility.yul\":9082:9100   */\n      add\n        /* \"#utility.yul\":9074:9100   */\n      swap1\n      pop\n        /* \"#utility.yul\":9146:9155   */\n      dup2\n        /* \"#utility.yul\":9140:9144   */\n      dup2\n        /* \"#utility.yul\":9136:9156   */\n      sub\n        /* \"#utility.yul\":9132:9133   */\n      0x00\n        /* \"#utility.yul\":9121:9130   */\n      dup4\n        /* \"#utility.yul\":9117:9134   */\n      add\n        /* \"#utility.yul\":9110:9157   */\n      mstore\n        /* \"#utility.yul\":9174:9305   */\n      tag_334\n        /* \"#utility.yul\":9300:9304   */\n      dup2\n        /* \"#utility.yul\":9174:9305   */\n      tag_218\n      jump\t// in\n    tag_334:\n        /* \"#utility.yul\":9166:9305   */\n      swap1\n      pop\n        /* \"#utility.yul\":8893:9312   */\n      swap2\n      swap1\n      pop\n      jump\t// out\n        /* \"#utility.yul\":9318:9486   */\n    tag_219:\n        /* \"#utility.yul\":9458:9478   */\n      0x416c726561647920616e6f6e796d697a65640000000000000000000000000000\n        /* \"#utility.yul\":9454:9455   */\n      0x00\n        /* \"#utility.yul\":9446:9452   */\n      dup3\n        /* \"#utility.yul\":9442:9456   */\n      add\n        /* \"#utility.yul\":9435:9479   */\n      mstore\n        /* \"#utility.yul\":9318:9486   */\n      pop\n      jump\t// out\n        /* \"#utility.yul\":9492:9858   */\n    tag_220:\n        /* \"#utility.yul\":9634:9637   */\n      0x00\n        /* \"#utility.yul\":9655:9722   */\n      tag_337\n        /* \"#utility.yul\":9719:9721   */\n      0x12\n        /* \"#utility.yul\":9714:9717   */\n      dup4\n        /* \"#utility.yul\":9655:9722   */\n      tag_212\n      jump\t// in\n    tag_337:\n        /* \"#utility.yul\":9648:9722   */\n      swap2\n      pop\n        /* \"#utility.yul\":9731:9824   */\n      tag_338\n        /* \"#utility.yul\":9820:9823   */\n      dup3\n        /* \"#utility.yul\":9731:9824   */\n      tag_219\n      jump\t// in\n    tag_338:\n        /* \"#utility.yul\":9849:9851   */\n      0x20\n        /* \"#utility.yul\":9844:9847   */\n      dup3\n        /* \"#utility.yul\":9840:9852   */\n      add\n        /* \"#utility.yul\":9833:9852   */\n      swap1\n      pop\n        /* \"#utility.yul\":9492:9858   */\n      swap2\n      swap1\n      pop\n      jump\t// out\n        /* \"#utility.yul\":9864:10283   */\n    tag_91:\n        /* \"#utility.yul\":10030:10034   */\n      0x00\n        /* \"#utility.yul\":10068:10070   */\n      0x20\n        /* \"#utility.yul\":10057:10066   */\n      dup3\n        /* \"#utility.yul\":10053:10071   */\n      add\n        /* \"#utility.yul\":10045:10071   */\n      swap1\n      pop\n        /* \"#utility.yul\":10117:10126   */\n      dup2\n        /* \"#utility.yul\":10111:10115   */\n      dup2\n        /* \"#utility.yul\":10107:10127   */\n      sub\n        /* \"#utility.yul\":10103:10104   */\n      0x00\n        /* \"#utility.yul\":10092:10101   */\n      dup4\n        /* \"#utility.yul\":10088:10105   */\n      add\n        /* \"#utility.yul\":10081:10128   */\n      mstore\n        /* \"#utility.yul\":10145:10276   */\n      tag_340\n        /* \"#utility.yul\":10271:10275   */\n      dup2\n        /* \"#utility.yul\":10145:10276   */\n      tag_220\n      jump\t// in\n    tag_340:\n        /* \"#utility.yul\":10137:10276   */\n      swap1\n      pop\n        /* \"#utility.yul\":9864:10283   */\n      swap2\n      swap1\n      pop\n      jump\t// out\n        /* \"#utility.yul\":10289:10458   */\n    tag_221:\n        /* \"#utility.yul\":10429:10450   */\n      0x52617465206c696d697420657863656564656400000000000000000000000000\n        /* \"#utility.yul\":10425:10426   */\n      0x00\n        /* \"#utility.yul\":10417:10423   */\n      dup3\n        /* \"#utility.yul\":10413:10427   */\n      add\n        /* \"#utility.yul\":10406:10451   */\n      mstore\n        /* \"#utility.yul\":10289:10458   */\n      pop\n      jump\t// out\n        /* \"#utility.yul\":10464:10830   */\n    tag_222:\n        /* \"#utility.yul\":10606:10609   */\n      0x00\n        /* \"#utility.yul\":10627:10694   */\n      tag_343\n        /* \"#utility.yul\":10691:10693   */\n      0x13\n        /* \"#utility.yul\":10686:10689   */\n      dup4\n        /* \"#utility.yul\":10627:10694   */\n      tag_212\n      jump\t// in\n    tag_343:\n        /* \"#utility.yul\":10620:10694   */\n      swap2\n      pop\n        /* \"#utility.yul\":10703:10796   */\n      tag_344\n        /* \"#utility.yul\":10792:10795   */\n      dup3\n        /* \"#utility.yul\":10703:10796   */\n      tag_221\n      jump\t// in\n    tag_344:\n        /* \"#utility.yul\":10821:10823   */\n      0x20\n        /* \"#utility.yul\":10816:10819   */\n      dup3\n        /* \"#utility.yul\":10812:10824   */\n      add\n        /* \"#utility.yul\":10805:10824   */\n      swap1\n      pop\n        /* \"#utility.yul\":10464:10830   */\n      swap2\n      swap1\n      pop\n      jump\t// out\n        /* \"#utility.yul\":10836:11255   */\n    tag_94:\n        /* \"#utility.yul\":11002:11006   */\n      0x00\n        /* \"#utility.yul\":11040:11042   */\n      0x20\n        /* \"#utility.yul\":11029:11038   */\n      dup3\n        /* \"#utility.yul\":11025:11043   */\n      add\n        /* \"#utility.yul\":11017:11043   */\n      swap1\n      pop\n        /* \"#utility.yul\":11089:11098   */\n      dup2\n        /* \"#utility.yul\":11083:11087   */\n      dup2\n        /* \"#utility.yul\":11079:11099   */\n      sub\n        /* \"#utility.yul\":11075:11076   */\n      0x00\n        /* \"#utility.yul\":11064:11073   */\n      dup4\n        /* \"#utility.yul\":11060:11077   */\n      add\n        /* \"#utility.yul\":11053:11100   */\n      mstore\n        /* \"#utility.yul\":11117:11248   */\n      tag_346\n        /* \"#utility.yul\":11243:11247   */\n      dup2\n        /* \"#utility.yul\":11117:11248   */\n      tag_222\n      jump\t// in\n    tag_346:\n        /* \"#utility.yul\":11109:11248   */\n      swap1\n      pop\n        /* \"#utility.yul\":10836:11255   */\n      swap2\n      swap1\n      pop\n      jump\t// out\n        /* \"#utility.yul\":11261:11424   */\n    tag_223:\n        /* \"#utility.yul\":11401:11416   */\n      0x496e76616c69642070726f6f6600000000000000000000000000000000000000\n        /* \"#utility.yul\":11397:11398   */\n      0x00\n        /* \"#utility.yul\":11389:11395   */\n      dup3\n        /* \"#utility.yul\":11385:11399   */\n      add\n        /* \"#utility.yul\":11378:11417   */\n      mstore\n        /* \"#utility.yul\":11261:11424   */\n      pop\n      jump\t// out\n        /* \"#utility.yul\":11430:11796   */\n    tag_224:\n        /* \"#utility.yul\":11572:11575   */\n      0x00\n        /* \"#utility.yul\":11593:11660   */\n      tag_349\n        /* \"#utility.yul\":11657:11659   */\n      0x0d\n        /* \"#utility.yul\":11652:11655   */\n      dup4\n        /* \"#utility.yul\":11593:11660   */\n      tag_212\n      jump\t// in\n    tag_349:\n        /* \"#utility.yul\":11586:11660   */\n      swap2\n      pop\n        /* \"#utility.yul\":11669:11762   */\n      tag_350\n        /* \"#utility.yul\":11758:11761   */\n      dup3\n        /* \"#utility.yul\":11669:11762   */\n      tag_223\n      jump\t// in\n    tag_350:\n        /* \"#utility.yul\":11787:11789   */\n      0x20\n        /* \"#utility.yul\":11782:11785   */\n      dup3\n        /* \"#utility.yul\":11778:11790   */\n      add\n        /* \"#utility.yul\":11771:11790   */\n      swap1\n      pop\n        /* \"#utility.yul\":11430:11796   */\n      swap2\n      swap1\n      pop\n      jump\t// out\n        /* \"#utility.yul\":11802:12221   */\n    tag_101:\n        /* \"#utility.yul\":11968:11972   */\n      0x00\n        /* \"#utility.yul\":12006:12008   */\n      0x20\n        /* \"#utility.yul\":11995:12004   */\n      dup3\n        /* \"#utility.yul\":11991:12009   */\n      add\n        /* \"#utility.yul\":11983:12009   */\n      swap1\n      pop\n        /* \"#utility.yul\":12055:12064   */\n      dup2\n        /* \"#utility.yul\":12049:12053   */\n      dup2\n        /* \"#utility.yul\":12045:12065   */\n      sub\n        /* \"#utility.yul\":12041:12042   */\n      0x00\n        /* \"#utility.yul\":12030:12039   */\n      dup4\n        /* \"#utility.yul\":12026:12043   */\n      add\n        /* \"#utility.yul\":12019:12066   */\n      mstore\n        /* \"#utility.yul\":12083:12214   */\n      tag_352\n        /* \"#utility.yul\":12209:12213   */\n      dup2\n        /* \"#utility.yul\":12083:12214   */\n      tag_224\n      jump\t// in\n    tag_352:\n        /* \"#utility.yul\":12075:12214   */\n      swap1\n      pop\n        /* \"#utility.yul\":11802:12221   */\n      swap2\n      swap1\n      pop\n      jump\t// out\n        /* \"#utility.yul\":12227:12407   */\n    tag_225:\n        /* \"#utility.yul\":12275:12352   */\n      0x4e487b7100000000000000000000000000000000000000000000000000000000\n        /* \"#utility.yul\":12272:12273   */\n      0x00\n        /* \"#utility.yul\":12265:12353   */\n      mstore\n        /* \"#utility.yul\":12372:12376   */\n      0x11\n        /* \"#utility.yul\":12369:12370   */\n      0x04\n        /* \"#utility.yul\":12362:12377   */\n      mstore\n        /* \"#utility.yul\":12396:12400   */\n      0x24\n        /* \"#utility.yul\":12393:12394   */\n      0x00\n        /* \"#utility.yul\":12386:12401   */\n      revert\n        /* \"#utility.yul\":12413:12646   */\n    tag_103:\n        /* \"#utility.yul\":12452:12455   */\n      0x00\n        /* \"#utility.yul\":12475:12499   */\n      tag_355\n        /* \"#utility.yul\":12493:12498   */\n      dup3\n        /* \"#utility.yul\":12475:12499   */\n      tag_201\n      jump\t// in\n    tag_355:\n        /* \"#utility.yul\":12466:12499   */\n      swap2\n      pop\n        /* \"#utility.yul\":12521:12587   */\n      0xffffffffffffffffffffffffffffffffffffffffffffffffffffffffffffffff\n        /* \"#utility.yul\":12514:12519   */\n      dup3\n        /* \"#utility.yul\":12511:12588   */\n      sub\n        /* \"#utility.yul\":12508:12611   */\n      tag_356\n      jumpi\n        /* \"#utility.yul\":12591:12609   */\n      tag_357\n      tag_225\n      jump\t// in\n    tag_357:\n        /* \"#utility.yul\":12508:12611   */\n    tag_356:\n        /* \"#utility.yul\":12638:12639   */\n      0x01\n        /* \"#utility.yul\":12631:12636   */\n      dup3\n        /* \"#utility.yul\":12627:12640   */\n      add\n        /* \"#utility.yul\":12620:12640   */\n      swap1\n      pop\n        /* \"#utility.yul\":12413:12646   */\n      swap2\n      swap1\n      pop\n      jump\t// out\n        /* \"#utility.yul\":12652:12751   */\n    tag_226:\n        /* \"#utility.yul\":12737:12743   */\n      dup3\n        /* \"#utility.yul\":12732:12735   */\n      dup2\n        /* \"#utility.yul\":12727:12730   */\n      dup4\n        /* \"#utility.yul\":12714:12744   */\n      calldatacopy\n        /* \"#utility.yul\":12652:12751   */\n      pop\n      pop\n      pop\n      jump\t// out\n        /* \"#utility.yul\":12789:12961   */\n    tag_227:\n        /* \"#utility.yul\":12912:12955   */\n      tag_360\n        /* \"#utility.yul\":12948:12954   */\n      0x0100\n        /* \"#utility.yul\":12943:12946   */\n      dup4\n        /* \"#utility.yul\":12936:12941   */\n      dup4\n        /* \"#utility.yul\":12912:12955   */\n      tag_226\n      jump\t// in\n    tag_360:\n        /* \"#utility.yul\":12789:12961   */\n      pop\n      pop\n      jump\t// out\n        /* \"#utility.yul\":12999:13169   */\n    tag_228:\n        /* \"#utility.yul\":13122:13163   */\n      tag_362\n        /* \"#utility.yul\":13158:13162   */\n      0x20\n        /* \"#utility.yul\":13153:13156   */\n      dup4\n        /* \"#utility.yul\":13146:13151   */\n      dup4\n        /* \"#utility.yul\":13122:13163   */\n      tag_226\n      jump\t// in\n    tag_362:\n        /* \"#utility.yul\":12999:13169   */\n      pop\n      pop\n      jump\t// out\n        /* \"#utility.yul\":13175:13701   */\n    tag_105:\n        /* \"#utility.yul\":13392:13396   */\n      0x00\n        /* \"#utility.yul\":13430:13433   */\n      0x0120\n        /* \"#utility.yul\":13419:13428   */\n      dup3\n        /* \"#utility.yul\":13415:13434   */\n      add\n        /* \"#utility.yul\":13407:13434   */\n      swap1\n      pop\n        /* \"#utility.yul\":13444:13563   */\n      tag_364\n        /* \"#utility.yul\":13560:13561   */\n      0x00\n        /* \"#utility.yul\":13549:13558   */\n      dup4\n        /* \"#utility.yul\":13545:13562   */\n      add\n        /* \"#utility.yul\":13536:13542   */\n      dup6\n        /* \"#utility.yul\":13444:13563   */\n      tag_227\n      jump\t// in\n    tag_364:\n        /* \"#utility.yul\":13573:13694   */\n      tag_365\n        /* \"#utility.yul\":13689:13692   */\n      0x0100\n        /* \"#utility.yul\":13678:13687   */\n      dup4\n        /* \"#utility.yul\":13674:13693   */\n      add\n        /* \"#utility.yul\":13665:13671   */\n      dup5\n        /* \"#utility.yul\":13573:13694   */\n      tag_228\n      jump\t// in\n    tag_365:\n        /* \"#utility.yul\":13175:13701   */\n      swap4\n      swap3\n      pop\n      pop\n      pop\n      jump\t// out\n        /* \"#utility.yul\":13707:13873   */\n    tag_229:\n        /* \"#utility.yul\":13847:13865   */\n      0x496e76616c696420766572696669657200000000000000000000000000000000\n        /* \"#utility.yul\":13843:13844   */\n      0x00\n        /* \"#utility.yul\":13835:13841   */\n      dup3\n        /* \"#utility.yul\":13831:13845   */\n      add\n        /* \"#utility.yul\":13824:13866   */\n      mstore\n        /* \"#utility.yul\":13707:13873   */\n      pop\n      jump\t// out\n        /* \"#utility.yul\":13879:14245   */\n    tag_230:\n        /* \"#utility.yul\":14021:14024   */\n      0x00\n        /* \"#utility.yul\":14042:14109   */\n      tag_368\n        /* \"#utility.yul\":14106:14108   */\n      0x10\n        /* \"#utility.yul\":14101:14104   */\n      dup4\n        /* \"#utility.yul\":14042:14109   */\n      tag_212\n      jump\t// in\n    tag_368:\n        /* \"#utility.yul\":14035:14109   */\n      swap2\n      pop\n        /* \"#utility.yul\":14118:14211   */\n      tag_369\n        /* \"#utility.yul\":14207:14210   */\n      dup3\n        /* \"#utility.yul\":14118:14211   */\n      tag_229\n      jump\t// in\n    tag_369:\n        /* \"#utility.yul\":14236:14238   */\n      0x20\n        /* \"#utility.yul\":14231:14234   */\n      dup3\n        /* \"#utility.yul\":14227:14239   */\n      add\n        /* \"#utility.yul\":14220:14239   */\n      swap1\n      pop\n        /* \"#utility.yul\":13879:14245   */\n      swap2\n      swap1\n      pop\n      jump\t// out\n        /* \"#utility.yul\":14251:14670   */\n    tag_128:\n        /* \"#utility.yul\":14417:14421   */\n      0x00\n        /* \"#utility.yul\":14455:14457   */\n      0x20\n        /* \"#utility.yul\":14444:14453   */\n      dup3\n        /* \"#utility.yul\":14440:14458   */\n      add\n        /* \"#utility.yul\":14432:14458   */\n      swap1\n      pop\n        /* \"#utility.yul\":14504:14513   */\n      dup2\n        /* \"#utility.yul\":14498:14502   */\n      dup2\n        /* \"#utility.yul\":14494:14514   */\n      sub\n        /* \"#utility.yul\":14490:14491   */\n      0x00\n        /* \"#utility.yul\":14479:14488   */\n      dup4\n        /* \"#utility.yul\":14475:14492   */\n      add\n        /* \"#utility.yul\":14468:14515   */\n      mstore\n        /* \"#utility.yul\":14532:14663   */\n      tag_371\n        /* \"#utility.yul\":14658:14662   */\n      dup2\n        /* \"#utility.yul\":14532:14663   */\n      tag_230\n      jump\t// in\n    tag_371:\n        /* \"#utility.yul\":14524:14663   */\n      swap1\n      pop\n        /* \"#utility.yul\":14251:14670   */\n      swap2\n      swap1\n      pop\n      jump\t// out\n        /* \"#utility.yul\":14676:14839   */\n    tag_231:\n        /* \"#utility.yul\":14816:14831   */\n      0x53616d6520766572696669657200000000000000000000000000000000000000\n        /* \"#utility.yul\":14812:14813   */\n      0x00\n        /* \"#utility.yul\":14804:14810   */\n      dup3\n        /* \"#utility.yul\":14800:14814   */\n      add\n        /* \"#utility.yul\":14793:14832   */\n      mstore\n        /* \"#utility.yul\":14676:14839   */\n      pop\n      jump\t// out\n        /* \"#utility.yul\":14845:15211   */\n    tag_232:\n        /* \"#utility.yul\":14987:14990   */\n      0x00\n        /* \"#utility.yul\":15008:15075   */\n      tag_374\n        /* \"#utility.yul\":15072:15074   */\n      0x0d\n        /* \"#utility.yul\":15067:15070   */\n      dup4\n        /* \"#utility.yul\":15008:15075   */\n      tag_212\n      jump\t// in\n    tag_374:\n        /* \"#utility.yul\":15001:15075   */\n      swap2\n      pop\n        /* \"#utility.yul\":15084:15177   */\n      tag_375\n        /* \"#utility.yul\":15173:15176   */\n      dup3\n        /* \"#utility.yul\":15084:15177   */\n      tag_231\n      jump\t// in\n    tag_375:\n        /* \"#utility.yul\":15202:15204   */\n      0x20\n        /* \"#utility.yul\":15197:15200   */\n      dup3\n        /* \"#utility.yul\":15193:15205   */\n      add\n        /* \"#utility.yul\":15186:15205   */\n      swap1\n      pop\n        /* \"#utility.yul\":14845:15211   */\n      swap2\n      swap1\n      pop\n      jump\t// out\n        /* \"#utility.yul\":15217:15636   */\n    tag_131:\n        /* \"#utility.yul\":15383:15387   */\n      0x00\n        /* \"#utility.yul\":15421:15423   */\n      0x20\n        /* \"#utility.yul\":15410:15419   */\n      dup3\n        /* \"#utility.yul\":15406:15424   */\n      add\n        /* \"#utility.yul\":15398:15424   */\n      swap1\n      pop\n        /* \"#utility.yul\":15470:15479   */\n      dup2\n        /* \"#utility.yul\":15464:15468   */\n      dup2\n        /* \"#utility.yul\":15460:15480   */\n      sub\n        /* \"#utility.yul\":15456:15457   */\n      0x00\n        /* \"#utility.yul\":15445:15454   */\n      dup4\n        /* \"#utility.yul\":15441:15458   */\n      add\n        /* \"#utility.yul\":15434:15481   */\n      mstore\n        /* \"#utility.yul\":15498:15629   */\n      tag_377\n        /* \"#utility.yul\":15624:15628   */\n      dup2\n        /* \"#utility.yul\":15498:15629   */\n      tag_232\n      jump\t// in\n    tag_377:\n        /* \"#utility.yul\":15490:15629   */\n      swap1\n      pop\n        /* \"#utility.yul\":15217:15636   */\n      swap2\n      swap1\n      pop\n      jump\t// out\n        /* \"#utility.yul\":15642:15811   */\n    tag_233:\n        /* \"#utility.yul\":15782:15803   */\n      0x496e76616c696420626c6f636b20636f756e7400000000000000000000000000\n        /* \"#utility.yul\":15778:15779   */\n      0x00\n        /* \"#utility.yul\":15770:15776   */\n      dup3\n        /* \"#utility.yul\":15766:15780   */\n      add\n        /* \"#utility.yul\":15759:15804   */\n      mstore\n        /* \"#utility.yul\":15642:15811   */\n      pop\n      jump\t// out\n        /* \"#utility.yul\":15817:16183   */\n    tag_234:\n        /* \"#utility.yul\":15959:15962   */\n      0x00\n        /* \"#utility.yul\":15980:16047   */\n      tag_380\n        /* \"#utility.yul\":16044:16046   */\n      0x13\n        /* \"#utility.yul\":16039:16042   */\n      dup4\n        /* \"#utility.yul\":15980:16047   */\n      tag_212\n      jump\t// in\n    tag_380:\n        /* \"#utility.yul\":15973:16047   */\n      swap2\n      pop\n        /* \"#utility.yul\":16056:16149   */\n      tag_381\n        /* \"#utility.yul\":16145:16148   */\n      dup3\n        /* \"#utility.yul\":16056:16149   */\n      tag_233\n      jump\t// in\n    tag_381:\n        /* \"#utility.yul\":16174:16176   */\n      0x20\n        /* \"#utility.yul\":16169:16172   */\n      dup3\n        /* \"#utility.yul\":16165:16177   */\n      add\n        /* \"#utility.yul\":16158:16177   */\n      swap1\n      pop\n        /* \"#utility.yul\":15817:16183   */\n      swap2\n      swap1\n      pop\n      jump\t// out\n        /* \"#utility.yul\":16189:16608   */\n    tag_135:\n        /* \"#utility.yul\":16355:16359   */\n      0x00\n        /* \"#utility.yul\":16393:16395   */\n      0x20\n        /* \"#utility.yul\":16382:16391   */\n      dup3\n        /* \"#utility.yul\":16378:16396   */\n      add\n        /* \"#utility.yul\":16370:16396   */\n      swap1\n      pop\n        /* \"#utility.yul\":16442:16451   */\n      dup2\n        /* \"#utility.yul\":16436:16440   */\n      dup2\n        /* \"#utility.yul\":16432:16452   */\n      sub\n        /* \"#utility.yul\":16428:16429   */\n      0x00\n        /* \"#utility.yul\":16417:16426   */\n      dup4\n        /* \"#utility.yul\":16413:16430   */\n      add\n        /* \"#utility.yul\":16406:16453   */\n      mstore\n        /* \"#utility.yul\":16470:16601   */\n      tag_383\n        /* \"#utility.yul\":16596:16600   */\n      dup2\n        /* \"#utility.yul\":16470:16601   */\n      tag_234\n      jump\t// in\n    tag_383:\n        /* \"#utility.yul\":16462:16601   */\n      swap1\n      pop\n        /* \"#utility.yul\":16189:16608   */\n      swap2\n      swap1\n      pop\n      jump\t// out\n        /* \"#utility.yul\":16614:16808   */\n    tag_137:\n        /* \"#utility.yul\":16654:16658   */\n      0x00\n        /* \"#utility.yul\":16674:16694   */\n      tag_385\n        /* \"#utility.yul\":16692:16693   */\n      dup3\n        /* \"#utility.yul\":16674:16694   */\n      tag_201\n      jump\t// in\n    tag_385:\n        /* \"#utility.yul\":16669:16694   */\n      swap2\n      pop\n        /* \"#utility.yul\":16708:16728   */\n      tag_386\n        /* \"#utility.yul\":16726:16727   */\n      dup4\n        /* \"#utility.yul\":16708:16728   */\n      tag_201\n      jump\t// in\n    tag_386:\n        /* \"#utility.yul\":16703:16728   */\n      swap3\n      pop\n        /* \"#utility.yul\":16752:16753   */\n      dup3\n        /* \"#utility.yul\":16749:16750   */\n      dup3\n        /* \"#utility.yul\":16745:16754   */\n      sub\n        /* \"#utility.yul\":16737:16754   */\n      swap1\n      pop\n        /* \"#utility.yul\":16776:16777   */\n      dup2\n        /* \"#utility.yul\":16770:16774   */\n      dup2\n        /* \"#utility.yul\":16767:16778   */\n      gt\n        /* \"#utility.yul\":16764:16801   */\n      iszero\n      tag_387\n      jumpi\n        /* \"#utility.yul\":16781:16799   */\n      tag_388\n      tag_225\n      jump\t// in\n    tag_388:\n        /* \"#utility.yul\":16764:16801   */\n    tag_387:\n        /* \"#utility.yul\":16614:16808   */\n      swap3\n      swap2\n      pop\n      pop\n      jump\t// out\n        /* \"#utility.yul\":16814:16978   */\n    tag_235:\n        /* \"#utility.yul\":16954:16970   */\n      0x4e6f7420616e6f6e796d697a6564000000000000000000000000000000000000\n        /* \"#utility.yul\":16950:16951   */\n      0x00\n        /* \"#utility.yul\":16942:16948   */\n      dup3\n        /* \"#utility.yul\":16938:16952   */\n      add\n        /* \"#utility.yul\":16931:16971   */\n      mstore\n        /* \"#utility.yul\":16814:16978   */\n      pop\n      jump\t// out\n        /* \"#utility.yul\":16984:17350   */\n    tag_236:\n        /* \"#utility.yul\":17126:17129   */\n      0x00\n        /* \"#utility.yul\":17147:17214   */\n      tag_391\n        /* \"#utility.yul\":17211:17213   */\n      0x0e\n        /* \"#utility.yul\":17206:17209   */\n      dup4\n        /* \"#utility.yul\":17147:17214   */\n      tag_212\n      jump\t// in\n    tag_391:\n        /* \"#utility.yul\":17140:17214   */\n      swap2\n      pop\n        /* \"#utility.yul\":17223:17316   */\n      tag_392\n        /* \"#utility.yul\":17312:17315   */\n      dup3\n        /* \"#utility.yul\":17223:17316   */\n      tag_235\n      jump\t// in\n    tag_392:\n        /* \"#utility.yul\":17341:17343   */\n      0x20\n        /* \"#utility.yul\":17336:17339   */\n      dup3\n        /* \"#utility.yul\":17332:17344   */\n      add\n        /* \"#utility.yul\":17325:17344   */\n      swap1\n      pop\n        /* \"#utility.yul\":16984:17350   */\n      swap2\n      swap1\n      pop\n      jump\t// out\n        /* \"#utility.yul\":17356:17775   */\n    tag_147:\n        /* \"#utility.yul\":17522:17526   */\n      0x00\n        /* \"#utility.yul\":17560:17562   */\n      0x20\n        /* \"#utility.yul\":17549:17558   */\n      dup3\n        /* \"#utility.yul\":17545:17563   */\n      add\n        /* \"#utility.yul\":17537:17563   */\n      swap1\n      pop\n        /* \"#utility.yul\":17609:17618   */\n      dup2\n        /* \"#utility.yul\":17603:17607   */\n      dup2\n        /* \"#utility.yul\":17599:17619   */\n      sub\n        /* \"#utility.yul\":17595:17596   */\n      0x00\n        /* \"#utility.yul\":17584:17593   */\n      dup4\n        /* \"#utility.yul\":17580:17597   */\n      add\n        /* \"#utility.yul\":17573:17620   */\n      mstore\n        /* \"#utility.yul\":17637:17768   */\n      tag_394\n        /* \"#utility.yul\":17763:17767   */\n      dup2\n        /* \"#utility.yul\":17637:17768   */\n      tag_236\n      jump\t// in\n    tag_394:\n        /* \"#utility.yul\":17629:17768   */\n      swap1\n      pop\n        /* \"#utility.yul\":17356:17775   */\n      swap2\n      swap1\n      pop\n      jump\t// out\n        /* \"#utility.yul\":17781:17949   */\n    tag_237:\n        /* \"#utility.yul\":17921:17941   */\n      0x5265766f636174696f6e2070656e64696e670000000000000000000000000000\n        /* \"#utility.yul\":17917:17918   */\n      0x00\n        /* \"#utility.yul\":17909:17915   */\n      dup3\n        /* \"#utility.yul\":17905:17919   */\n      add\n        /* \"#utility.yul\":17898:17942   */\n      mstore\n        /* \"#utility.yul\":17781:17949   */\n      pop\n      jump\t// out\n        /* \"#utility.yul\":17955:18321   */\n    tag_238:\n        /* \"#utility.yul\":18097:18100   */\n      0x00\n        /* \"#utility.yul\":18118:18185   */\n      tag_397\n        /* \"#utility.yul\":18182:18184   */\n      0x12\n        /* \"#utility.yul\":18177:18180   */\n      dup4\n        /* \"#utility.yul\":18118:18185   */\n      tag_212\n      jump\t// in\n    tag_397:\n        /* \"#utility.yul\":18111:18185   */\n      swap2\n      pop\n        /* \"#utility.yul\":18194:18287   */\n      tag_398\n        /* \"#utility.yul\":18283:18286   */\n      dup3\n        /* \"#utility.yul\":18194:18287   */\n      tag_237\n      jump\t// in\n    tag_398:\n        /* \"#utility.yul\":18312:18314   */\n      0x20\n        /* \"#utility.yul\":18307:18310   */\n      dup3\n        /* \"#utility.yul\":18303:18315   */\n      add\n        /* \"#utility.yul\":18296:18315   */\n      swap1\n      pop\n        /* \"#utility.yul\":17955:18321   */\n      swap2\n      swap1\n      pop\n      jump\t// out\n        /* \"#utility.yul\":18327:18746   */\n    tag_150:\n        /* \"#utility.yul\":18493:18497   */\n      0x00\n        /* \"#utility.yul\":18531:18533   */\n      0x20\n        /* \"#utility.yul\":18520:18529   */\n      dup3\n        /* \"#utility.yul\":18516:18534   */\n      add\n        /* \"#utility.yul\":18508:18534   */\n      swap1\n      pop\n        /* \"#utility.yul\":18580:18589   */\n      dup2\n        /* \"#utility.yul\":18574:18578   */\n      dup2\n        /* \"#utility.yul\":18570:18590   */\n      sub\n        /* \"#utility.yul\":18566:18567   */\n      0x00\n        /* \"#utility.yul\":18555:18564   */\n      dup4\n        /* \"#utility.yul\":18551:18568   */\n      add\n        /* \"#utility.yul\":18544:18591   */\n      mstore\n        /* \"#utility.yul\":18608:18739   */\n      tag_400\n        /* \"#utility.yul\":18734:18738   */\n      dup2\n        /* \"#utility.yul\":18608:18739   */\n      tag_238\n      jump\t// in\n    tag_400:\n        /* \"#utility.yul\":18600:18739   */\n      swap1\n      pop\n        /* \"#utility.yul\":18327:18746   */\n      swap2\n      swap1\n      pop\n      jump\t// out\n        /* \"#utility.yul\":18752:18943   */\n    tag_152:\n        /* \"#utility.yul\":18792:18795   */\n      0x00\n        /* \"#utility.yul\":18811:18831   */\n      tag_402\n        /* \"#utility.yul\":18829:18830   */\n      dup3\n        /* \"#utility.yul\":18811:18831   */\n      tag_201\n      jump\t// in\n    tag_402:\n        /* \"#utility.yul\":18806:18831   */\n      swap2\n      pop\n        /* \"#utility.yul\":18845:18865   */\n      tag_403\n        /* \"#utility.yul\":18863:18864   */\n      dup4\n        /* \"#utility.yul\":18845:18865   */\n      tag_201\n      jump\t// in\n    tag_403:\n        /* \"#utility.yul\":18840:18865   */\n      swap3\n      pop\n        /* \"#utility.yul\":18888:18889   */\n      dup3\n        /* \"#utility.yul\":18885:18886   */\n      dup3\n        /* \"#utility.yul\":18881:18890   */\n      add\n        /* \"#utility.yul\":18874:18890   */\n      swap1\n      pop\n        /* \"#utility.yul\":18909:18912   */\n      dup1\n        /* \"#utility.yul\":18906:18907   */\n      dup3\n        /* \"#utility.yul\":18903:18913   */\n      gt\n        /* \"#utility.yul\":18900:18936   */\n      iszero\n      tag_404\n      jumpi\n        /* \"#utility.yul\":18916:18934   */\n      tag_405\n      tag_225\n      jump\t// in\n    tag_405:\n        /* \"#utility.yul\":18900:18936   */\n    tag_404:\n        /* \"#utility.yul\":18752:18943   */\n      swap3\n      swap2\n      pop\n      pop\n      jump\t// out\n\n    auxdata: 0xa2646970667358221220aa47070a38ba1bfb49e1088822ccd2098d3f1ddbe2ae5a0a8658425eb43e9d4264736f6c634300081a0033\n}\n",
				"bytecode": {
					"linkReferences": {},
					"object": "608060405234801561000f575f80fd5b50604051611b96380380611b96833981810160405281019061003191906103f4565b805f73ffffffffffffffffffffffffffffffffffffffff168173ffffffffffffffffffffffffffffffffffffffff16036100a2575f6040517f1e4fbdf70000000000000000000000000000000000000000000000000000000081526004016100999190610441565b60405180910390fd5b6100b18161020460201b60201c565b50600180819055505f60025f6101000a81548160ff0219169083151502179055505f73ffffffffffffffffffffffffffffffffffffffff168273ffffffffffffffffffffffffffffffffffffffff1603610140576040517f08c379a0000000000000000000000000000000000000000000000000000000008152600401610137906104b4565b60405180910390fd5b5f73ffffffffffffffffffffffffffffffffffffffff168173ffffffffffffffffffffffffffffffffffffffff16036101ae576040517f08c379a00000000000000000000000000000000000000000000000000000000081526004016101a59061051c565b60405180910390fd5b81600260016101000a81548173ffffffffffffffffffffffffffffffffffffffff021916908373ffffffffffffffffffffffffffffffffffffffff1602179055506101fd6102c560201b60201c565b505061053a565b5f805f9054906101000a900473ffffffffffffffffffffffffffffffffffffffff169050815f806101000a81548173ffffffffffffffffffffffffffffffffffffffff021916908373ffffffffffffffffffffffffffffffffffffffff1602179055508173ffffffffffffffffffffffffffffffffffffffff168173ffffffffffffffffffffffffffffffffffffffff167f8be0079c531659141344cd1fd0a4f28419497f9722a3daafe3b4186f6b6457e060405160405180910390a35050565b6102d361033360201b60201c565b600160025f6101000a81548160ff0219169083151502179055507f62e78cea01bee320cd4e420270b5ea74000d11b0c9f74754ebdbfc544b05a25861031c61037a60201b60201c565b6040516103299190610441565b60405180910390a1565b61034161038160201b60201c565b15610378576040517fd93c066500000000000000000000000000000000000000000000000000000000815260040160405180910390fd5b565b5f33905090565b5f60025f9054906101000a900460ff16905090565b5f80fd5b5f73ffffffffffffffffffffffffffffffffffffffff82169050919050565b5f6103c38261039a565b9050919050565b6103d3816103b9565b81146103dd575f80fd5b50565b5f815190506103ee816103ca565b92915050565b5f806040838503121561040a57610409610396565b5b5f610417858286016103e0565b9250506020610428858286016103e0565b9150509250929050565b61043b816103b9565b82525050565b5f6020820190506104545f830184610432565b92915050565b5f82825260208201905092915050565b7f496e76616c6964207665726966696572000000000000000000000000000000005f82015250565b5f61049e60108361045a565b91506104a98261046a565b602082019050919050565b5f6020820190508181035f8301526104cb81610492565b9050919050565b7f496e76616c6964206f776e6572000000000000000000000000000000000000005f82015250565b5f610506600d8361045a565b9150610511826104d2565b602082019050919050565b5f6020820190508181035f830152610533816104fa565b9050919050565b61164f806105475f395ff3fe608060405234801561000f575f80fd5b50600436106100cd575f3560e01c8063715018a61161008a57806397fc007c1161006457806397fc007c146101b3578063c8fea3a5146101cf578063cc3e12e8146101eb578063f2fde38b14610207576100cd565b8063715018a6146101815780638456cb591461018b5780638da5cb5b14610195576100cd565b806312425ebb146100d15780632b7ac3f3146100ed5780632c7f7d441461010b5780633f4ba83a1461013d578063451d577f146101475780635c975abb14610163575b5f80fd5b6100eb60048036038101906100e69190610dab565b610223565b005b6100f561033f565b6040516101029190610e50565b60405180910390f35b61012560048036038101906101209190610dab565b610365565b60405161013493929190610e9b565b60405180910390f35b6101456103b7565b005b610161600480360381019061015c9190610f16565b6103c9565b005b61016b61063b565b6040516101789190610f68565b60405180910390f35b610189610650565b005b610193610663565b005b61019d610675565b6040516101aa9190610fa1565b60405180910390f35b6101cd60048036038101906101c89190610fe4565b61069c565b005b6101e960048036038101906101e49190611039565b610870565b005b61020560048036038101906102009190610dab565b6108fc565b005b610221600480360381019061021c9190610fe4565b610a0e565b005b61022b610a92565b5f60055f8381526020019081526020015f205490505f8103610282576040517f08c379a0000000000000000000000000000000000000000000000000000000008152600401610279906110be565b60405180910390fd5b804210156102c5576040517f08c379a00000000000000000000000000000000000000000000000000000000081526004016102bc90611126565b60405180910390fd5b60035f8381526020019081526020015f205f6101000a81549060ff021916905560045f8381526020019081526020015f205f905560055f8381526020019081526020015f205f905542827f30325bca1b821e46f6842e91031cc7467a71e2a32f6eae9d8c97643b2484224f60405160405180910390a35050565b600260019054906101000a900473ffffffffffffffffffffffffffffffffffffffff1681565b5f805f60035f8581526020019081526020015f205f9054906101000a900460ff1660045f8681526020019081526020015f205460055f8781526020019081526020015f20549250925092509193909250565b6103bf610a92565b6103c7610b19565b565b6103d1610b7a565b6103d9610bc0565b5f801b830361041d576040517f08c379a00000000000000000000000000000000000000000000000000000000081526004016104149061118e565b60405180910390fd5b60035f8481526020019081526020015f205f9054906101000a900460ff161561047b576040517f08c379a0000000000000000000000000000000000000000000000000000000008152600401610472906111f6565b60405180910390fd5b603260065f4381526020019081526020015f2054106104cf576040517f08c379a00000000000000000000000000000000000000000000000000000000081526004016104c69061125e565b60405180910390fd5b5f6040516020600435015f5b60088110156104fd5760208102820135602082028401526001810190506104db565b5061010081018035610100840152602083610120856002545afa935083610522575f80fd5b82519350610140830160405250505080610571576040517f08c379a0000000000000000000000000000000000000000000000000000000008152600401610568906112c6565b60405180910390fd5b600160035f8681526020019081526020015f205f6101000a81548160ff0219169083151502179055504260045f8681526020019081526020015f208190555060065f4381526020019081526020015f205f8154809291906105d190611311565b919050555082826040516020016105e9929190611382565b6040516020818303038152906040528051906020012042857fde65674c1c2375ab60bcd32483919acfcb287d922682033b8f2d33047523a67b60405160405180910390a450610636610c01565b505050565b5f60025f9054906101000a900460ff16905090565b610658610a92565b6106615f610c0a565b565b61066b610a92565b610673610ccb565b565b5f805f9054906101000a900473ffffffffffffffffffffffffffffffffffffffff16905090565b6106a4610a92565b6106ac610d2d565b5f73ffffffffffffffffffffffffffffffffffffffff168173ffffffffffffffffffffffffffffffffffffffff160361071a576040517f08c379a0000000000000000000000000000000000000000000000000000000008152600401610711906113f5565b60405180910390fd5b600260019054906101000a900473ffffffffffffffffffffffffffffffffffffffff1673ffffffffffffffffffffffffffffffffffffffff168173ffffffffffffffffffffffffffffffffffffffff16036107aa576040517f08c379a00000000000000000000000000000000000000000000000000000000081526004016107a19061145d565b60405180910390fd5b5f600260019054906101000a900473ffffffffffffffffffffffffffffffffffffffff16905081600260016101000a81548173ffffffffffffffffffffffffffffffffffffffff021916908373ffffffffffffffffffffffffffffffffffffffff160217905550428273ffffffffffffffffffffffffffffffffffffffff168273ffffffffffffffffffffffffffffffffffffffff167fd64ae07f3ddea489022b7c3651c0b93cc96296695feac84461061dfa1f34c0cb60405160405180910390a45050565b5f81116108b2576040517f08c379a00000000000000000000000000000000000000000000000000000000081526004016108a9906114c5565b60405180910390fd5b5f81436108bf91906114e3565b90505f5b828110156108f75760065f82846108da91906114e3565b81526020019081526020015f205f905580806001019150506108c3565b505050565b610904610a92565b60035f8281526020019081526020015f205f9054906101000a900460ff16610961576040517f08c379a000000000000000000000000000000000000000000000000000000000815260040161095890611560565b60405180910390fd5b5f60055f8381526020019081526020015f2054146109b4576040517f08c379a00000000000000000000000000000000000000000000000000000000081526004016109ab906115c8565b60405180910390fd5b5f62015180426109c491906115e6565b90508060055f8481526020019081526020015f208190555080827fee80b1a0735bed32872bfffada24be24839f94ba87926a67333230186d8d6a5b60405160405180910390a35050565b610a16610a92565b5f73ffffffffffffffffffffffffffffffffffffffff168173ffffffffffffffffffffffffffffffffffffffff1603610a86575f6040517f1e4fbdf7000000000000000000000000000000000000000000000000000000008152600401610a7d9190610fa1565b60405180910390fd5b610a8f81610c0a565b50565b610a9a610d6d565b73ffffffffffffffffffffffffffffffffffffffff16610ab8610675565b73ffffffffffffffffffffffffffffffffffffffff1614610b1757610adb610d6d565b6040517f118cdaa7000000000000000000000000000000000000000000000000000000008152600401610b0e9190610fa1565b60405180910390fd5b565b610b21610d2d565b5f60025f6101000a81548160ff0219169083151502179055507f5db9ee0a495bf2e6ff9c91a7834c1ba4fdd244a5e8aa4e537bd38aeae4b073aa610b63610d6d565b604051610b709190610fa1565b60405180910390a1565b600260015403610bb6576040517f3ee5aeb500000000000000000000000000000000000000000000000000000000815260040160405180910390fd5b6002600181905550565b610bc861063b565b15610bff576040517fd93c066500000000000000000000000000000000000000000000000000000000815260040160405180910390fd5b565b60018081905550565b5f805f9054906101000a900473ffffffffffffffffffffffffffffffffffffffff169050815f806101000a81548173ffffffffffffffffffffffffffffffffffffffff021916908373ffffffffffffffffffffffffffffffffffffffff1602179055508173ffffffffffffffffffffffffffffffffffffffff168173ffffffffffffffffffffffffffffffffffffffff167f8be0079c531659141344cd1fd0a4f28419497f9722a3daafe3b4186f6b6457e060405160405180910390a35050565b610cd3610bc0565b600160025f6101000a81548160ff0219169083151502179055507f62e78cea01bee320cd4e420270b5ea74000d11b0c9f74754ebdbfc544b05a258610d16610d6d565b604051610d239190610fa1565b60405180910390a1565b610d3561063b565b610d6b576040517f8dfc202b00000000000000000000000000000000000000000000000000000000815260040160405180910390fd5b565b5f33905090565b5f80fd5b5f819050919050565b610d8a81610d78565b8114610d94575f80fd5b50565b5f81359050610da581610d81565b92915050565b5f60208284031215610dc057610dbf610d74565b5b5f610dcd84828501610d97565b91505092915050565b5f73ffffffffffffffffffffffffffffffffffffffff82169050919050565b5f819050919050565b5f610e18610e13610e0e84610dd6565b610df5565b610dd6565b9050919050565b5f610e2982610dfe565b9050919050565b5f610e3a82610e1f565b9050919050565b610e4a81610e30565b82525050565b5f602082019050610e635f830184610e41565b92915050565b5f8115159050919050565b610e7d81610e69565b82525050565b5f819050919050565b610e9581610e83565b82525050565b5f606082019050610eae5f830186610e74565b610ebb6020830185610e8c565b610ec86040830184610e8c565b949350505050565b5f80fd5b5f81905082602060080282011115610eef57610eee610ed0565b5b92915050565b5f81905082602060010282011115610f1057610f0f610ed0565b5b92915050565b5f805f6101408486031215610f2e57610f2d610d74565b5b5f610f3b86828701610d97565b9350506020610f4c86828701610ed4565b925050610120610f5e86828701610ef5565b9150509250925092565b5f602082019050610f7b5f830184610e74565b92915050565b5f610f8b82610dd6565b9050919050565b610f9b81610f81565b82525050565b5f602082019050610fb45f830184610f92565b92915050565b610fc381610f81565b8114610fcd575f80fd5b50565b5f81359050610fde81610fba565b92915050565b5f60208284031215610ff957610ff8610d74565b5b5f61100684828501610fd0565b91505092915050565b61101881610e83565b8114611022575f80fd5b50565b5f813590506110338161100f565b92915050565b5f6020828403121561104e5761104d610d74565b5b5f61105b84828501611025565b91505092915050565b5f82825260208201905092915050565b7f4e6f207265766f636174696f6e207265717565737465640000000000000000005f82015250565b5f6110a8601783611064565b91506110b382611074565b602082019050919050565b5f6020820190508181035f8301526110d58161109c565b9050919050565b7f54696d656c6f636b2061637469766500000000000000000000000000000000005f82015250565b5f611110600f83611064565b915061111b826110dc565b602082019050919050565b5f6020820190508181035f83015261113d81611104565b9050919050565b7f496e76616c6964204950206861736800000000000000000000000000000000005f82015250565b5f611178600f83611064565b915061118382611144565b602082019050919050565b5f6020820190508181035f8301526111a58161116c565b9050919050565b7f416c726561647920616e6f6e796d697a656400000000000000000000000000005f82015250565b5f6111e0601283611064565b91506111eb826111ac565b602082019050919050565b5f6020820190508181035f83015261120d816111d4565b9050919050565b7f52617465206c696d6974206578636565646564000000000000000000000000005f82015250565b5f611248601383611064565b915061125382611214565b602082019050919050565b5f6020820190508181035f8301526112758161123c565b9050919050565b7f496e76616c69642070726f6f66000000000000000000000000000000000000005f82015250565b5f6112b0600d83611064565b91506112bb8261127c565b602082019050919050565b5f6020820190508181035f8301526112dd816112a4565b9050919050565b7f4e487b71000000000000000000000000000000000000000000000000000000005f52601160045260245ffd5b5f61131b82610e83565b91507fffffffffffffffffffffffffffffffffffffffffffffffffffffffffffffffff820361134d5761134c6112e4565b5b600182019050919050565b82818337505050565b61136e6101008383611358565b5050565b61137e60208383611358565b5050565b5f610120820190506113965f830185611361565b6113a4610100830184611372565b9392505050565b7f496e76616c6964207665726966696572000000000000000000000000000000005f82015250565b5f6113df601083611064565b91506113ea826113ab565b602082019050919050565b5f6020820190508181035f83015261140c816113d3565b9050919050565b7f53616d65207665726966696572000000000000000000000000000000000000005f82015250565b5f611447600d83611064565b915061145282611413565b602082019050919050565b5f6020820190508181035f8301526114748161143b565b9050919050565b7f496e76616c696420626c6f636b20636f756e74000000000000000000000000005f82015250565b5f6114af601383611064565b91506114ba8261147b565b602082019050919050565b5f6020820190508181035f8301526114dc816114a3565b9050919050565b5f6114ed82610e83565b91506114f883610e83565b92508282039050818111156115105761150f6112e4565b5b92915050565b7f4e6f7420616e6f6e796d697a65640000000000000000000000000000000000005f82015250565b5f61154a600e83611064565b915061155582611516565b602082019050919050565b5f6020820190508181035f8301526115778161153e565b9050919050565b7f5265766f636174696f6e2070656e64696e6700000000000000000000000000005f82015250565b5f6115b2601283611064565b91506115bd8261157e565b602082019050919050565b5f6020820190508181035f8301526115df816115a6565b9050919050565b5f6115f082610e83565b91506115fb83610e83565b9250828201905080821115611613576116126112e4565b5b9291505056fea2646970667358221220aa47070a38ba1bfb49e1088822ccd2098d3f1ddbe2ae5a0a8658425eb43e9d4264736f6c634300081a0033",
					"opcodes": "PUSH1 0x80 PUSH1 0x40 MSTORE CALLVALUE DUP1 ISZERO PUSH2 0xF JUMPI PUSH0 DUP1 REVERT JUMPDEST POP PUSH1 0x40 MLOAD PUSH2 0x1B96 CODESIZE SUB DUP1 PUSH2 0x1B96 DUP4 CODECOPY DUP2 DUP2 ADD PUSH1 0x40 MSTORE DUP2 ADD SWAP1 PUSH2 0x31 SWAP2 SWAP1 PUSH2 0x3F4 JUMP JUMPDEST DUP1 PUSH0 PUSH20 0xFFFFFFFFFFFFFFFFFFFFFFFFFFFFFFFFFFFFFFFF AND DUP2 PUSH20 0xFFFFFFFFFFFFFFFFFFFFFFFFFFFFFFFFFFFFFFFF AND SUB PUSH2 0xA2 JUMPI PUSH0 PUSH1 0x40 MLOAD PUSH32 0x1E4FBDF700000000000000000000000000000000000000000000000000000000 DUP2 MSTORE PUSH1 0x4 ADD PUSH2 0x99 SWAP2 SWAP1 PUSH2 0x441 JUMP JUMPDEST PUSH1 0x40 MLOAD DUP1 SWAP2 SUB SWAP1 REVERT JUMPDEST PUSH2 0xB1 DUP2 PUSH2 0x204 PUSH1 0x20 SHL PUSH1 0x20 SHR JUMP JUMPDEST POP PUSH1 0x1 DUP1 DUP2 SWAP1 SSTORE POP PUSH0 PUSH1 0x2 PUSH0 PUSH2 0x100 EXP DUP2 SLOAD DUP2 PUSH1 0xFF MUL NOT AND SWAP1 DUP4 ISZERO ISZERO MUL OR SWAP1 SSTORE POP PUSH0 PUSH20 0xFFFFFFFFFFFFFFFFFFFFFFFFFFFFFFFFFFFFFFFF AND DUP3 PUSH20 0xFFFFFFFFFFFFFFFFFFFFFFFFFFFFFFFFFFFFFFFF AND SUB PUSH2 0x140 JUMPI PUSH1 0x40 MLOAD PUSH32 0x8C379A000000000000000000000000000000000000000000000000000000000 DUP2 MSTORE PUSH1 0x4 ADD PUSH2 0x137 SWAP1 PUSH2 0x4B4 JUMP JUMPDEST PUSH1 0x40 MLOAD DUP1 SWAP2 SUB SWAP1 REVERT JUMPDEST PUSH0 PUSH20 0xFFFFFFFFFFFFFFFFFFFFFFFFFFFFFFFFFFFFFFFF AND DUP2 PUSH20 0xFFFFFFFFFFFFFFFFFFFFFFFFFFFFFFFFFFFFFFFF AND SUB PUSH2 0x1AE JUMPI PUSH1 0x40 MLOAD PUSH32 0x8C379A000000000000000000000000000000000000000000000000000000000 DUP2 MSTORE PUSH1 0x4 ADD PUSH2 0x1A5 SWAP1 PUSH2 0x51C JUMP JUMPDEST PUSH1 0x40 MLOAD DUP1 SWAP2 SUB SWAP1 REVERT JUMPDEST DUP2 PUSH1 0x2 PUSH1 0x1 PUSH2 0x100 EXP DUP2 SLOAD DUP2 PUSH20 0xFFFFFFFFFFFFFFFFFFFFFFFFFFFFFFFFFFFFFFFF MUL NOT AND SWAP1 DUP4 PUSH20 0xFFFFFFFFFFFFFFFFFFFFFFFFFFFFFFFFFFFFFFFF AND MUL OR SWAP1 SSTORE POP PUSH2 0x1FD PUSH2 0x2C5 PUSH1 0x20 SHL PUSH1 0x20 SHR JUMP JUMPDEST POP POP PUSH2 0x53A JUMP JUMPDEST PUSH0 DUP1 PUSH0 SWAP1 SLOAD SWAP1 PUSH2 0x100 EXP SWAP1 DIV PUSH20 0xFFFFFFFFFFFFFFFFFFFFFFFFFFFFFFFFFFFFFFFF AND SWAP1 POP DUP2 PUSH0 DUP1 PUSH2 0x100 EXP DUP2 SLOAD DUP2 PUSH20 0xFFFFFFFFFFFFFFFFFFFFFFFFFFFFFFFFFFFFFFFF MUL NOT AND SWAP1 DUP4 PUSH20 0xFFFFFFFFFFFFFFFFFFFFFFFFFFFFFFFFFFFFFFFF AND MUL OR SWAP1 SSTORE POP DUP2 PUSH20 0xFFFFFFFFFFFFFFFFFFFFFFFFFFFFFFFFFFFFFFFF AND DUP2 PUSH20 0xFFFFFFFFFFFFFFFFFFFFFFFFFFFFFFFFFFFFFFFF AND PUSH32 0x8BE0079C531659141344CD1FD0A4F28419497F9722A3DAAFE3B4186F6B6457E0 PUSH1 0x40 MLOAD PUSH1 0x40 MLOAD DUP1 SWAP2 SUB SWAP1 LOG3 POP POP JUMP JUMPDEST PUSH2 0x2D3 PUSH2 0x333 PUSH1 0x20 SHL PUSH1 0x20 SHR JUMP JUMPDEST PUSH1 0x1 PUSH1 0x2 PUSH0 PUSH2 0x100 EXP DUP2 SLOAD DUP2 PUSH1 0xFF MUL NOT AND SWAP1 DUP4 ISZERO ISZERO MUL OR SWAP1 SSTORE POP PUSH32 0x62E78CEA01BEE320CD4E420270B5EA74000D11B0C9F74754EBDBFC544B05A258 PUSH2 0x31C PUSH2 0x37A PUSH1 0x20 SHL PUSH1 0x20 SHR JUMP JUMPDEST PUSH1 0x40 MLOAD PUSH2 0x329 SWAP2 SWAP1 PUSH2 0x441 JUMP JUMPDEST PUSH1 0x40 MLOAD DUP1 SWAP2 SUB SWAP1 LOG1 JUMP JUMPDEST PUSH2 0x341 PUSH2 0x381 PUSH1 0x20 SHL PUSH1 0x20 SHR JUMP JUMPDEST ISZERO PUSH2 0x378 JUMPI PUSH1 0x40 MLOAD PUSH32 0xD93C066500000000000000000000000000000000000000000000000000000000 DUP2 MSTORE PUSH1 0x4 ADD PUSH1 0x40 MLOAD DUP1 SWAP2 SUB SWAP1 REVERT JUMPDEST JUMP JUMPDEST PUSH0 CALLER SWAP1 POP SWAP1 JUMP JUMPDEST PUSH0 PUSH1 0x2 PUSH0 SWAP1 SLOAD SWAP1 PUSH2 0x100 EXP SWAP1 DIV PUSH1 0xFF AND SWAP1 POP SWAP1 JUMP JUMPDEST PUSH0 DUP1 REVERT JUMPDEST PUSH0 PUSH20 0xFFFFFFFFFFFFFFFFFFFFFFFFFFFFFFFFFFFFFFFF DUP3 AND SWAP1 POP SWAP2 SWAP1 POP JUMP JUMPDEST PUSH0 PUSH2 0x3C3 DUP3 PUSH2 0x39A JUMP JUMPDEST SWAP1 POP SWAP2 SWAP1 POP JUMP JUMPDEST PUSH2 0x3D3 DUP2 PUSH2 0x3B9 JUMP JUMPDEST DUP2 EQ PUSH2 0x3DD JUMPI PUSH0 DUP1 REVERT JUMPDEST POP JUMP JUMPDEST PUSH0 DUP2 MLOAD SWAP1 POP PUSH2 0x3EE DUP2 PUSH2 0x3CA JUMP JUMPDEST SWAP3 SWAP2 POP POP JUMP JUMPDEST PUSH0 DUP1 PUSH1 0x40 DUP4 DUP6 SUB SLT ISZERO PUSH2 0x40A JUMPI PUSH2 0x409 PUSH2 0x396 JUMP JUMPDEST JUMPDEST PUSH0 PUSH2 0x417 DUP6 DUP3 DUP7 ADD PUSH2 0x3E0 JUMP JUMPDEST SWAP3 POP POP PUSH1 0x20 PUSH2 0x428 DUP6 DUP3 DUP7 ADD PUSH2 0x3E0 JUMP JUMPDEST SWAP2 POP POP SWAP3 POP SWAP3 SWAP1 POP JUMP JUMPDEST PUSH2 0x43B DUP2 PUSH2 0x3B9 JUMP JUMPDEST DUP3 MSTORE POP POP JUMP JUMPDEST PUSH0 PUSH1 0x20 DUP3 ADD SWAP1 POP PUSH2 0x454 PUSH0 DUP4 ADD DUP5 PUSH2 0x432 JUMP JUMPDEST SWAP3 SWAP2 POP POP JUMP JUMPDEST PUSH0 DUP3 DUP3 MSTORE PUSH1 0x20 DUP3 ADD SWAP1 POP SWAP3 SWAP2 POP POP JUMP JUMPDEST PUSH32 0x496E76616C696420766572696669657200000000000000000000000000000000 PUSH0 DUP3 ADD MSTORE POP JUMP JUMPDEST PUSH0 PUSH2 0x49E PUSH1 0x10 DUP4 PUSH2 0x45A JUMP JUMPDEST SWAP2 POP PUSH2 0x4A9 DUP3 PUSH2 0x46A JUMP JUMPDEST PUSH1 0x20 DUP3 ADD SWAP1 POP SWAP2 SWAP1 POP JUMP JUMPDEST PUSH0 PUSH1 0x20 DUP3 ADD SWAP1 POP DUP2 DUP2 SUB PUSH0 DUP4 ADD MSTORE PUSH2 0x4CB DUP2 PUSH2 0x492 JUMP JUMPDEST SWAP1 POP SWAP2 SWAP1 POP JUMP JUMPDEST PUSH32 0x496E76616C6964206F776E657200000000000000000000000000000000000000 PUSH0 DUP3 ADD MSTORE POP JUMP JUMPDEST PUSH0 PUSH2 0x506 PUSH1 0xD DUP4 PUSH2 0x45A JUMP JUMPDEST SWAP2 POP PUSH2 0x511 DUP3 PUSH2 0x4D2 JUMP JUMPDEST PUSH1 0x20 DUP3 ADD SWAP1 POP SWAP2 SWAP1 POP JUMP JUMPDEST PUSH0 PUSH1 0x20 DUP3 ADD SWAP1 POP DUP2 DUP2 SUB PUSH0 DUP4 ADD MSTORE PUSH2 0x533 DUP2 PUSH2 0x4FA JUMP JUMPDEST SWAP1 POP SWAP2 SWAP1 POP JUMP JUMPDEST PUSH2 0x164F DUP1 PUSH2 0x547 PUSH0 CODECOPY PUSH0 RETURN INVALID PUSH1 0x80 PUSH1 0x40 MSTORE CALLVALUE DUP1 ISZERO PUSH2 0xF JUMPI PUSH0 DUP1 REVERT JUMPDEST POP PUSH1 0x4 CALLDATASIZE LT PUSH2 0xCD JUMPI PUSH0 CALLDATALOAD PUSH1 0xE0 SHR DUP1 PUSH4 0x715018A6 GT PUSH2 0x8A JUMPI DUP1 PUSH4 0x97FC007C GT PUSH2 0x64 JUMPI DUP1 PUSH4 0x97FC007C EQ PUSH2 0x1B3 JUMPI DUP1 PUSH4 0xC8FEA3A5 EQ PUSH2 0x1CF JUMPI DUP1 PUSH4 0xCC3E12E8 EQ PUSH2 0x1EB JUMPI DUP1 PUSH4 0xF2FDE38B EQ PUSH2 0x207 JUMPI PUSH2 0xCD JUMP JUMPDEST DUP1 PUSH4 0x715018A6 EQ PUSH2 0x181 JUMPI DUP1 PUSH4 0x8456CB59 EQ PUSH2 0x18B JUMPI DUP1 PUSH4 0x8DA5CB5B EQ PUSH2 0x195 JUMPI PUSH2 0xCD JUMP JUMPDEST DUP1 PUSH4 0x12425EBB EQ PUSH2 0xD1 JUMPI DUP1 PUSH4 0x2B7AC3F3 EQ PUSH2 0xED JUMPI DUP1 PUSH4 0x2C7F7D44 EQ PUSH2 0x10B JUMPI DUP1 PUSH4 0x3F4BA83A EQ PUSH2 0x13D JUMPI DUP1 PUSH4 0x451D577F EQ PUSH2 0x147 JUMPI DUP1 PUSH4 0x5C975ABB EQ PUSH2 0x163 JUMPI JUMPDEST PUSH0 DUP1 REVERT JUMPDEST PUSH2 0xEB PUSH1 0x4 DUP1 CALLDATASIZE SUB DUP2 ADD SWAP1 PUSH2 0xE6 SWAP2 SWAP1 PUSH2 0xDAB JUMP JUMPDEST PUSH2 0x223 JUMP JUMPDEST STOP JUMPDEST PUSH2 0xF5 PUSH2 0x33F JUMP JUMPDEST PUSH1 0x40 MLOAD PUSH2 0x102 SWAP2 SWAP1 PUSH2 0xE50 JUMP JUMPDEST PUSH1 0x40 MLOAD DUP1 SWAP2 SUB SWAP1 RETURN JUMPDEST PUSH2 0x125 PUSH1 0x4 DUP1 CALLDATASIZE SUB DUP2 ADD SWAP1 PUSH2 0x120 SWAP2 SWAP1 PUSH2 0xDAB JUMP JUMPDEST PUSH2 0x365 JUMP JUMPDEST PUSH1 0x40 MLOAD PUSH2 0x134 SWAP4 SWAP3 SWAP2 SWAP1 PUSH2 0xE9B JUMP JUMPDEST PUSH1 0x40 MLOAD DUP1 SWAP2 SUB SWAP1 RETURN JUMPDEST PUSH2 0x145 PUSH2 0x3B7 JUMP JUMPDEST STOP JUMPDEST PUSH2 0x161 PUSH1 0x4 DUP1 CALLDATASIZE SUB DUP2 ADD SWAP1 PUSH2 0x15C SWAP2 SWAP1 PUSH2 0xF16 JUMP JUMPDEST PUSH2 0x3C9 JUMP JUMPDEST STOP JUMPDEST PUSH2 0x16B PUSH2 0x63B JUMP JUMPDEST PUSH1 0x40 MLOAD PUSH2 0x178 SWAP2 SWAP1 PUSH2 0xF68 JUMP JUMPDEST PUSH1 0x40 MLOAD DUP1 SWAP2 SUB SWAP1 RETURN JUMPDEST PUSH2 0x189 PUSH2 0x650 JUMP JUMPDEST STOP JUMPDEST PUSH2 0x193 PUSH2 0x663 JUMP JUMPDEST STOP JUMPDEST PUSH2 0x19D PUSH2 0x675 JUMP JUMPDEST PUSH1 0x40 MLOAD PUSH2 0x1AA SWAP2 SWAP1 PUSH2 0xFA1 JUMP JUMPDEST PUSH1 0x40 MLOAD DUP1 SWAP2 SUB SWAP1 RETURN JUMPDEST PUSH2 0x1CD PUSH1 0x4 DUP1 CALLDATASIZE SUB DUP2 ADD SWAP1 PUSH2 0x1C8 SWAP2 SWAP1 PUSH2 0xFE4 JUMP JUMPDEST PUSH2 0x69C JUMP JUMPDEST STOP JUMPDEST PUSH2 0x1E9 PUSH1 0x4 DUP1 CALLDATASIZE SUB DUP2 ADD SWAP1 PUSH2 0x1E4 SWAP2 SWAP1 PUSH2 0x1039 JUMP JUMPDEST PUSH2 0x870 JUMP JUMPDEST STOP JUMPDEST PUSH2 0x205 PUSH1 0x4 DUP1 CALLDATASIZE SUB DUP2 ADD SWAP1 PUSH2 0x200 SWAP2 SWAP1 PUSH2 0xDAB JUMP JUMPDEST PUSH2 0x8FC JUMP JUMPDEST STOP JUMPDEST PUSH2 0x221 PUSH1 0x4 DUP1 CALLDATASIZE SUB DUP2 ADD SWAP1 PUSH2 0x21C SWAP2 SWAP1 PUSH2 0xFE4 JUMP JUMPDEST PUSH2 0xA0E JUMP JUMPDEST STOP JUMPDEST PUSH2 0x22B PUSH2 0xA92 JUMP JUMPDEST PUSH0 PUSH1 0x5 PUSH0 DUP4 DUP2 MSTORE PUSH1 0x20 ADD SWAP1 DUP2 MSTORE PUSH1 0x20 ADD PUSH0 KECCAK256 SLOAD SWAP1 POP PUSH0 DUP2 SUB PUSH2 0x282 JUMPI PUSH1 0x40 MLOAD PUSH32 0x8C379A000000000000000000000000000000000000000000000000000000000 DUP2 MSTORE PUSH1 0x4 ADD PUSH2 0x279 SWAP1 PUSH2 0x10BE JUMP JUMPDEST PUSH1 0x40 MLOAD DUP1 SWAP2 SUB SWAP1 REVERT JUMPDEST DUP1 TIMESTAMP LT ISZERO PUSH2 0x2C5 JUMPI PUSH1 0x40 MLOAD PUSH32 0x8C379A000000000000000000000000000000000000000000000000000000000 DUP2 MSTORE PUSH1 0x4 ADD PUSH2 0x2BC SWAP1 PUSH2 0x1126 JUMP JUMPDEST PUSH1 0x40 MLOAD DUP1 SWAP2 SUB SWAP1 REVERT JUMPDEST PUSH1 0x3 PUSH0 DUP4 DUP2 MSTORE PUSH1 0x20 ADD SWAP1 DUP2 MSTORE PUSH1 0x20 ADD PUSH0 KECCAK256 PUSH0 PUSH2 0x100 EXP DUP2 SLOAD SWAP1 PUSH1 0xFF MUL NOT AND SWAP1 SSTORE PUSH1 0x4 PUSH0 DUP4 DUP2 MSTORE PUSH1 0x20 ADD SWAP1 DUP2 MSTORE PUSH1 0x20 ADD PUSH0 KECCAK256 PUSH0 SWAP1 SSTORE PUSH1 0x5 PUSH0 DUP4 DUP2 MSTORE PUSH1 0x20 ADD SWAP1 DUP2 MSTORE PUSH1 0x20 ADD PUSH0 KECCAK256 PUSH0 SWAP1 SSTORE TIMESTAMP DUP3 PUSH32 0x30325BCA1B821E46F6842E91031CC7467A71E2A32F6EAE9D8C97643B2484224F PUSH1 0x40 MLOAD PUSH1 0x40 MLOAD DUP1 SWAP2 SUB SWAP1 LOG3 POP POP JUMP JUMPDEST PUSH1 0x2 PUSH1 0x1 SWAP1 SLOAD SWAP1 PUSH2 0x100 EXP SWAP1 DIV PUSH20 0xFFFFFFFFFFFFFFFFFFFFFFFFFFFFFFFFFFFFFFFF AND DUP2 JUMP JUMPDEST PUSH0 DUP1 PUSH0 PUSH1 0x3 PUSH0 DUP6 DUP2 MSTORE PUSH1 0x20 ADD SWAP1 DUP2 MSTORE PUSH1 0x20 ADD PUSH0 KECCAK256 PUSH0 SWAP1 SLOAD SWAP1 PUSH2 0x100 EXP SWAP1 DIV PUSH1 0xFF AND PUSH1 0x4 PUSH0 DUP7 DUP2 MSTORE PUSH1 0x20 ADD SWAP1 DUP2 MSTORE PUSH1 0x20 ADD PUSH0 KECCAK256 SLOAD PUSH1 0x5 PUSH0 DUP8 DUP2 MSTORE PUSH1 0x20 ADD SWAP1 DUP2 MSTORE PUSH1 0x20 ADD PUSH0 KECCAK256 SLOAD SWAP3 POP SWAP3 POP SWAP3 POP SWAP2 SWAP4 SWAP1 SWAP3 POP JUMP JUMPDEST PUSH2 0x3BF PUSH2 0xA92 JUMP JUMPDEST PUSH2 0x3C7 PUSH2 0xB19 JUMP JUMPDEST JUMP JUMPDEST PUSH2 0x3D1 PUSH2 0xB7A JUMP JUMPDEST PUSH2 0x3D9 PUSH2 0xBC0 JUMP JUMPDEST PUSH0 DUP1 SHL DUP4 SUB PUSH2 0x41D JUMPI PUSH1 0x40 MLOAD PUSH32 0x8C379A000000000000000000000000000000000000000000000000000000000 DUP2 MSTORE PUSH1 0x4 ADD PUSH2 0x414 SWAP1 PUSH2 0x118E JUMP JUMPDEST PUSH1 0x40 MLOAD DUP1 SWAP2 SUB SWAP1 REVERT JUMPDEST PUSH1 0x3 PUSH0 DUP5 DUP2 MSTORE PUSH1 0x20 ADD SWAP1 DUP2 MSTORE PUSH1 0x20 ADD PUSH0 KECCAK256 PUSH0 SWAP1 SLOAD SWAP1 PUSH2 0x100 EXP SWAP1 DIV PUSH1 0xFF AND ISZERO PUSH2 0x47B JUMPI PUSH1 0x40 MLOAD PUSH32 0x8C379A000000000000000000000000000000000000000000000000000000000 DUP2 MSTORE PUSH1 0x4 ADD PUSH2 0x472 SWAP1 PUSH2 0x11F6 JUMP JUMPDEST PUSH1 0x40 MLOAD DUP1 SWAP2 SUB SWAP1 REVERT JUMPDEST PUSH1 0x32 PUSH1 0x6 PUSH0 NUMBER DUP2 MSTORE PUSH1 0x20 ADD SWAP1 DUP2 MSTORE PUSH1 0x20 ADD PUSH0 KECCAK256 SLOAD LT PUSH2 0x4CF JUMPI PUSH1 0x40 MLOAD PUSH32 0x8C379A000000000000000000000000000000000000000000000000000000000 DUP2 MSTORE PUSH1 0x4 ADD PUSH2 0x4C6 SWAP1 PUSH2 0x125E JUMP JUMPDEST PUSH1 0x40 MLOAD DUP1 SWAP2 SUB SWAP1 REVERT JUMPDEST PUSH0 PUSH1 0x40 MLOAD PUSH1 0x20 PUSH1 0x4 CALLDATALOAD ADD PUSH0 JUMPDEST PUSH1 0x8 DUP2 LT ISZERO PUSH2 0x4FD JUMPI PUSH1 0x20 DUP2 MUL DUP3 ADD CALLDATALOAD PUSH1 0x20 DUP3 MUL DUP5 ADD MSTORE PUSH1 0x1 DUP2 ADD SWAP1 POP PUSH2 0x4DB JUMP JUMPDEST POP PUSH2 0x100 DUP2 ADD DUP1 CALLDATALOAD PUSH2 0x100 DUP5 ADD MSTORE PUSH1 0x20 DUP4 PUSH2 0x120 DUP6 PUSH1 0x2 SLOAD GAS STATICCALL SWAP4 POP DUP4 PUSH2 0x522 JUMPI PUSH0 DUP1 REVERT JUMPDEST DUP3 MLOAD SWAP4 POP PUSH2 0x140 DUP4 ADD PUSH1 0x40 MSTORE POP POP POP DUP1 PUSH2 0x571 JUMPI PUSH1 0x40 MLOAD PUSH32 0x8C379A000000000000000000000000000000000000000000000000000000000 DUP2 MSTORE PUSH1 0x4 ADD PUSH2 0x568 SWAP1 PUSH2 0x12C6 JUMP JUMPDEST PUSH1 0x40 MLOAD DUP1 SWAP2 SUB SWAP1 REVERT JUMPDEST PUSH1 0x1 PUSH1 0x3 PUSH0 DUP7 DUP2 MSTORE PUSH1 0x20 ADD SWAP1 DUP2 MSTORE PUSH1 0x20 ADD PUSH0 KECCAK256 PUSH0 PUSH2 0x100 EXP DUP2 SLOAD DUP2 PUSH1 0xFF MUL NOT AND SWAP1 DUP4 ISZERO ISZERO MUL OR SWAP1 SSTORE POP TIMESTAMP PUSH1 0x4 PUSH0 DUP7 DUP2 MSTORE PUSH1 0x20 ADD SWAP1 DUP2 MSTORE PUSH1 0x20 ADD PUSH0 KECCAK256 DUP2 SWAP1 SSTORE POP PUSH1 0x6 PUSH0 NUMBER DUP2 MSTORE PUSH1 0x20 ADD SWAP1 DUP2 MSTORE PUSH1 0x20 ADD PUSH0 KECCAK256 PUSH0 DUP2 SLOAD DUP1 SWAP3 SWAP2 SWAP1 PUSH2 0x5D1 SWAP1 PUSH2 0x1311 JUMP JUMPDEST SWAP2 SWAP1 POP SSTORE POP DUP3 DUP3 PUSH1 0x40 MLOAD PUSH1 0x20 ADD PUSH2 0x5E9 SWAP3 SWAP2 SWAP1 PUSH2 0x1382 JUMP JUMPDEST PUSH1 0x40 MLOAD PUSH1 0x20 DUP2 DUP4 SUB SUB DUP2 MSTORE SWAP1 PUSH1 0x40 MSTORE DUP1 MLOAD SWAP1 PUSH1 0x20 ADD KECCAK256 TIMESTAMP DUP6 PUSH32 0xDE65674C1C2375AB60BCD32483919ACFCB287D922682033B8F2D33047523A67B PUSH1 0x40 MLOAD PUSH1 0x40 MLOAD DUP1 SWAP2 SUB SWAP1 LOG4 POP PUSH2 0x636 PUSH2 0xC01 JUMP JUMPDEST POP POP POP JUMP JUMPDEST PUSH0 PUSH1 0x2 PUSH0 SWAP1 SLOAD SWAP1 PUSH2 0x100 EXP SWAP1 DIV PUSH1 0xFF AND SWAP1 POP SWAP1 JUMP JUMPDEST PUSH2 0x658 PUSH2 0xA92 JUMP JUMPDEST PUSH2 0x661 PUSH0 PUSH2 0xC0A JUMP JUMPDEST JUMP JUMPDEST PUSH2 0x66B PUSH2 0xA92 JUMP JUMPDEST PUSH2 0x673 PUSH2 0xCCB JUMP JUMPDEST JUMP JUMPDEST PUSH0 DUP1 PUSH0 SWAP1 SLOAD SWAP1 PUSH2 0x100 EXP SWAP1 DIV PUSH20 0xFFFFFFFFFFFFFFFFFFFFFFFFFFFFFFFFFFFFFFFF AND SWAP1 POP SWAP1 JUMP JUMPDEST PUSH2 0x6A4 PUSH2 0xA92 JUMP JUMPDEST PUSH2 0x6AC PUSH2 0xD2D JUMP JUMPDEST PUSH0 PUSH20 0xFFFFFFFFFFFFFFFFFFFFFFFFFFFFFFFFFFFFFFFF AND DUP2 PUSH20 0xFFFFFFFFFFFFFFFFFFFFFFFFFFFFFFFFFFFFFFFF AND SUB PUSH2 0x71A JUMPI PUSH1 0x40 MLOAD PUSH32 0x8C379A000000000000000000000000000000000000000000000000000000000 DUP2 MSTORE PUSH1 0x4 ADD PUSH2 0x711 SWAP1 PUSH2 0x13F5 JUMP JUMPDEST PUSH1 0x40 MLOAD DUP1 SWAP2 SUB SWAP1 REVERT JUMPDEST PUSH1 0x2 PUSH1 0x1 SWAP1 SLOAD SWAP1 PUSH2 0x100 EXP SWAP1 DIV PUSH20 0xFFFFFFFFFFFFFFFFFFFFFFFFFFFFFFFFFFFFFFFF AND PUSH20 0xFFFFFFFFFFFFFFFFFFFFFFFFFFFFFFFFFFFFFFFF AND DUP2 PUSH20 0xFFFFFFFFFFFFFFFFFFFFFFFFFFFFFFFFFFFFFFFF AND SUB PUSH2 0x7AA JUMPI PUSH1 0x40 MLOAD PUSH32 0x8C379A000000000000000000000000000000000000000000000000000000000 DUP2 MSTORE PUSH1 0x4 ADD PUSH2 0x7A1 SWAP1 PUSH2 0x145D JUMP JUMPDEST PUSH1 0x40 MLOAD DUP1 SWAP2 SUB SWAP1 REVERT JUMPDEST PUSH0 PUSH1 0x2 PUSH1 0x1 SWAP1 SLOAD SWAP1 PUSH2 0x100 EXP SWAP1 DIV PUSH20 0xFFFFFFFFFFFFFFFFFFFFFFFFFFFFFFFFFFFFFFFF AND SWAP1 POP DUP2 PUSH1 0x2 PUSH1 0x1 PUSH2 0x100 EXP DUP2 SLOAD DUP2 PUSH20 0xFFFFFFFFFFFFFFFFFFFFFFFFFFFFFFFFFFFFFFFF MUL NOT AND SWAP1 DUP4 PUSH20 0xFFFFFFFFFFFFFFFFFFFFFFFFFFFFFFFFFFFFFFFF AND MUL OR SWAP1 SSTORE POP TIMESTAMP DUP3 PUSH20 0xFFFFFFFFFFFFFFFFFFFFFFFFFFFFFFFFFFFFFFFF AND DUP3 PUSH20 0xFFFFFFFFFFFFFFFFFFFFFFFFFFFFFFFFFFFFFFFF AND PUSH32 0xD64AE07F3DDEA489022B7C3651C0B93CC96296695FEAC84461061DFA1F34C0CB PUSH1 0x40 MLOAD PUSH1 0x40 MLOAD DUP1 SWAP2 SUB SWAP1 LOG4 POP POP JUMP JUMPDEST PUSH0 DUP2 GT PUSH2 0x8B2 JUMPI PUSH1 0x40 MLOAD PUSH32 0x8C379A000000000000000000000000000000000000000000000000000000000 DUP2 MSTORE PUSH1 0x4 ADD PUSH2 0x8A9 SWAP1 PUSH2 0x14C5 JUMP JUMPDEST PUSH1 0x40 MLOAD DUP1 SWAP2 SUB SWAP1 REVERT JUMPDEST PUSH0 DUP2 NUMBER PUSH2 0x8BF SWAP2 SWAP1 PUSH2 0x14E3 JUMP JUMPDEST SWAP1 POP PUSH0 JUMPDEST DUP3 DUP2 LT ISZERO PUSH2 0x8F7 JUMPI PUSH1 0x6 PUSH0 DUP3 DUP5 PUSH2 0x8DA SWAP2 SWAP1 PUSH2 0x14E3 JUMP JUMPDEST DUP2 MSTORE PUSH1 0x20 ADD SWAP1 DUP2 MSTORE PUSH1 0x20 ADD PUSH0 KECCAK256 PUSH0 SWAP1 SSTORE DUP1 DUP1 PUSH1 0x1 ADD SWAP2 POP POP PUSH2 0x8C3 JUMP JUMPDEST POP POP POP JUMP JUMPDEST PUSH2 0x904 PUSH2 0xA92 JUMP JUMPDEST PUSH1 0x3 PUSH0 DUP3 DUP2 MSTORE PUSH1 0x20 ADD SWAP1 DUP2 MSTORE PUSH1 0x20 ADD PUSH0 KECCAK256 PUSH0 SWAP1 SLOAD SWAP1 PUSH2 0x100 EXP SWAP1 DIV PUSH1 0xFF AND PUSH2 0x961 JUMPI PUSH1 0x40 MLOAD PUSH32 0x8C379A000000000000000000000000000000000000000000000000000000000 DUP2 MSTORE PUSH1 0x4 ADD PUSH2 0x958 SWAP1 PUSH2 0x1560 JUMP JUMPDEST PUSH1 0x40 MLOAD DUP1 SWAP2 SUB SWAP1 REVERT JUMPDEST PUSH0 PUSH1 0x5 PUSH0 DUP4 DUP2 MSTORE PUSH1 0x20 ADD SWAP1 DUP2 MSTORE PUSH1 0x20 ADD PUSH0 KECCAK256 SLOAD EQ PUSH2 0x9B4 JUMPI PUSH1 0x40 MLOAD PUSH32 0x8C379A000000000000000000000000000000000000000000000000000000000 DUP2 MSTORE PUSH1 0x4 ADD PUSH2 0x9AB SWAP1 PUSH2 0x15C8 JUMP JUMPDEST PUSH1 0x40 MLOAD DUP1 SWAP2 SUB SWAP1 REVERT JUMPDEST PUSH0 PUSH3 0x15180 TIMESTAMP PUSH2 0x9C4 SWAP2 SWAP1 PUSH2 0x15E6 JUMP JUMPDEST SWAP1 POP DUP1 PUSH1 0x5 PUSH0 DUP5 DUP2 MSTORE PUSH1 0x20 ADD SWAP1 DUP2 MSTORE PUSH1 0x20 ADD PUSH0 KECCAK256 DUP2 SWAP1 SSTORE POP DUP1 DUP3 PUSH32 0xEE80B1A0735BED32872BFFFADA24BE24839F94BA87926A67333230186D8D6A5B PUSH1 0x40 MLOAD PUSH1 0x40 MLOAD DUP1 SWAP2 SUB SWAP1 LOG3 POP POP JUMP JUMPDEST PUSH2 0xA16 PUSH2 0xA92 JUMP JUMPDEST PUSH0 PUSH20 0xFFFFFFFFFFFFFFFFFFFFFFFFFFFFFFFFFFFFFFFF AND DUP2 PUSH20 0xFFFFFFFFFFFFFFFFFFFFFFFFFFFFFFFFFFFFFFFF AND SUB PUSH2 0xA86 JUMPI PUSH0 PUSH1 0x40 MLOAD PUSH32 0x1E4FBDF700000000000000000000000000000000000000000000000000000000 DUP2 MSTORE PUSH1 0x4 ADD PUSH2 0xA7D SWAP2 SWAP1 PUSH2 0xFA1 JUMP JUMPDEST PUSH1 0x40 MLOAD DUP1 SWAP2 SUB SWAP1 REVERT JUMPDEST PUSH2 0xA8F DUP2 PUSH2 0xC0A JUMP JUMPDEST POP JUMP JUMPDEST PUSH2 0xA9A PUSH2 0xD6D JUMP JUMPDEST PUSH20 0xFFFFFFFFFFFFFFFFFFFFFFFFFFFFFFFFFFFFFFFF AND PUSH2 0xAB8 PUSH2 0x675 JUMP JUMPDEST PUSH20 0xFFFFFFFFFFFFFFFFFFFFFFFFFFFFFFFFFFFFFFFF AND EQ PUSH2 0xB17 JUMPI PUSH2 0xADB PUSH2 0xD6D JUMP JUMPDEST PUSH1 0x40 MLOAD PUSH32 0x118CDAA700000000000000000000000000000000000000000000000000000000 DUP2 MSTORE PUSH1 0x4 ADD PUSH2 0xB0E SWAP2 SWAP1 PUSH2 0xFA1 JUMP JUMPDEST PUSH1 0x40 MLOAD DUP1 SWAP2 SUB SWAP1 REVERT JUMPDEST JUMP JUMPDEST PUSH2 0xB21 PUSH2 0xD2D JUMP JUMPDEST PUSH0 PUSH1 0x2 PUSH0 PUSH2 0x100 EXP DUP2 SLOAD DUP2 PUSH1 0xFF MUL NOT AND SWAP1 DUP4 ISZERO ISZERO MUL OR SWAP1 SSTORE POP PUSH32 0x5DB9EE0A495BF2E6FF9C91A7834C1BA4FDD244A5E8AA4E537BD38AEAE4B073AA PUSH2 0xB63 PUSH2 0xD6D JUMP JUMPDEST PUSH1 0x40 MLOAD PUSH2 0xB70 SWAP2 SWAP1 PUSH2 0xFA1 JUMP JUMPDEST PUSH1 0x40 MLOAD DUP1 SWAP2 SUB SWAP1 LOG1 JUMP JUMPDEST PUSH1 0x2 PUSH1 0x1 SLOAD SUB PUSH2 0xBB6 JUMPI PUSH1 0x40 MLOAD PUSH32 0x3EE5AEB500000000000000000000000000000000000000000000000000000000 DUP2 MSTORE PUSH1 0x4 ADD PUSH1 0x40 MLOAD DUP1 SWAP2 SUB SWAP1 REVERT JUMPDEST PUSH1 0x2 PUSH1 0x1 DUP2 SWAP1 SSTORE POP JUMP JUMPDEST PUSH2 0xBC8 PUSH2 0x63B JUMP JUMPDEST ISZERO PUSH2 0xBFF JUMPI PUSH1 0x40 MLOAD PUSH32 0xD93C066500000000000000000000000000000000000000000000000000000000 DUP2 MSTORE PUSH1 0x4 ADD PUSH1 0x40 MLOAD DUP1 SWAP2 SUB SWAP1 REVERT JUMPDEST JUMP JUMPDEST PUSH1 0x1 DUP1 DUP2 SWAP1 SSTORE POP JUMP JUMPDEST PUSH0 DUP1 PUSH0 SWAP1 SLOAD SWAP1 PUSH2 0x100 EXP SWAP1 DIV PUSH20 0xFFFFFFFFFFFFFFFFFFFFFFFFFFFFFFFFFFFFFFFF AND SWAP1 POP DUP2 PUSH0 DUP1 PUSH2 0x100 EXP DUP2 SLOAD DUP2 PUSH20 0xFFFFFFFFFFFFFFFFFFFFFFFFFFFFFFFFFFFFFFFF MUL NOT AND SWAP1 DUP4 PUSH20 0xFFFFFFFFFFFFFFFFFFFFFFFFFFFFFFFFFFFFFFFF AND MUL OR SWAP1 SSTORE POP DUP2 PUSH20 0xFFFFFFFFFFFFFFFFFFFFFFFFFFFFFFFFFFFFFFFF AND DUP2 PUSH20 0xFFFFFFFFFFFFFFFFFFFFFFFFFFFFFFFFFFFFFFFF AND PUSH32 0x8BE0079C531659141344CD1FD0A4F28419497F9722A3DAAFE3B4186F6B6457E0 PUSH1 0x40 MLOAD PUSH1 0x40 MLOAD DUP1 SWAP2 SUB SWAP1 LOG3 POP POP JUMP JUMPDEST PUSH2 0xCD3 PUSH2 0xBC0 JUMP JUMPDEST PUSH1 0x1 PUSH1 0x2 PUSH0 PUSH2 0x100 EXP DUP2 SLOAD DUP2 PUSH1 0xFF MUL NOT AND SWAP1 DUP4 ISZERO ISZERO MUL OR SWAP1 SSTORE POP PUSH32 0x62E78CEA01BEE320CD4E420270B5EA74000D11B0C9F74754EBDBFC544B05A258 PUSH2 0xD16 PUSH2 0xD6D JUMP JUMPDEST PUSH1 0x40 MLOAD PUSH2 0xD23 SWAP2 SWAP1 PUSH2 0xFA1 JUMP JUMPDEST PUSH1 0x40 MLOAD DUP1 SWAP2 SUB SWAP1 LOG1 JUMP JUMPDEST PUSH2 0xD35 PUSH2 0x63B JUMP JUMPDEST PUSH2 0xD6B JUMPI PUSH1 0x40 MLOAD PUSH32 0x8DFC202B00000000000000000000000000000000000000000000000000000000 DUP2 MSTORE PUSH1 0x4 ADD PUSH1 0x40 MLOAD DUP1 SWAP2 SUB SWAP1 REVERT JUMPDEST JUMP JUMPDEST PUSH0 CALLER SWAP1 POP SWAP1 JUMP JUMPDEST PUSH0 DUP1 REVERT JUMPDEST PUSH0 DUP2 SWAP1 POP SWAP2 SWAP1 POP JUMP JUMPDEST PUSH2 0xD8A DUP2 PUSH2 0xD78 JUMP JUMPDEST DUP2 EQ PUSH2 0xD94 JUMPI PUSH0 DUP1 REVERT JUMPDEST POP JUMP JUMPDEST PUSH0 DUP2 CALLDATALOAD SWAP1 POP PUSH2 0xDA5 DUP2 PUSH2 0xD81 JUMP JUMPDEST SWAP3 SWAP2 POP POP JUMP JUMPDEST PUSH0 PUSH1 0x20 DUP3 DUP5 SUB SLT ISZERO PUSH2 0xDC0 JUMPI PUSH2 0xDBF PUSH2 0xD74 JUMP JUMPDEST JUMPDEST PUSH0 PUSH2 0xDCD DUP5 DUP3 DUP6 ADD PUSH2 0xD97 JUMP JUMPDEST SWAP2 POP POP SWAP3 SWAP2 POP POP JUMP JUMPDEST PUSH0 PUSH20 0xFFFFFFFFFFFFFFFFFFFFFFFFFFFFFFFFFFFFFFFF DUP3 AND SWAP1 POP SWAP2 SWAP1 POP JUMP JUMPDEST PUSH0 DUP2 SWAP1 POP SWAP2 SWAP1 POP JUMP JUMPDEST PUSH0 PUSH2 0xE18 PUSH2 0xE13 PUSH2 0xE0E DUP5 PUSH2 0xDD6 JUMP JUMPDEST PUSH2 0xDF5 JUMP JUMPDEST PUSH2 0xDD6 JUMP JUMPDEST SWAP1 POP SWAP2 SWAP1 POP JUMP JUMPDEST PUSH0 PUSH2 0xE29 DUP3 PUSH2 0xDFE JUMP JUMPDEST SWAP1 POP SWAP2 SWAP1 POP JUMP JUMPDEST PUSH0 PUSH2 0xE3A DUP3 PUSH2 0xE1F JUMP JUMPDEST SWAP1 POP SWAP2 SWAP1 POP JUMP JUMPDEST PUSH2 0xE4A DUP2 PUSH2 0xE30 JUMP JUMPDEST DUP3 MSTORE POP POP JUMP JUMPDEST PUSH0 PUSH1 0x20 DUP3 ADD SWAP1 POP PUSH2 0xE63 PUSH0 DUP4 ADD DUP5 PUSH2 0xE41 JUMP JUMPDEST SWAP3 SWAP2 POP POP JUMP JUMPDEST PUSH0 DUP2 ISZERO ISZERO SWAP1 POP SWAP2 SWAP1 POP JUMP JUMPDEST PUSH2 0xE7D DUP2 PUSH2 0xE69 JUMP JUMPDEST DUP3 MSTORE POP POP JUMP JUMPDEST PUSH0 DUP2 SWAP1 POP SWAP2 SWAP1 POP JUMP JUMPDEST PUSH2 0xE95 DUP2 PUSH2 0xE83 JUMP JUMPDEST DUP3 MSTORE POP POP JUMP JUMPDEST PUSH0 PUSH1 0x60 DUP3 ADD SWAP1 POP PUSH2 0xEAE PUSH0 DUP4 ADD DUP7 PUSH2 0xE74 JUMP JUMPDEST PUSH2 0xEBB PUSH1 0x20 DUP4 ADD DUP6 PUSH2 0xE8C JUMP JUMPDEST PUSH2 0xEC8 PUSH1 0x40 DUP4 ADD DUP5 PUSH2 0xE8C JUMP JUMPDEST SWAP5 SWAP4 POP POP POP POP JUMP JUMPDEST PUSH0 DUP1 REVERT JUMPDEST PUSH0 DUP2 SWAP1 POP DUP3 PUSH1 0x20 PUSH1 0x8 MUL DUP3 ADD GT ISZERO PUSH2 0xEEF JUMPI PUSH2 0xEEE PUSH2 0xED0 JUMP JUMPDEST JUMPDEST SWAP3 SWAP2 POP POP JUMP JUMPDEST PUSH0 DUP2 SWAP1 POP DUP3 PUSH1 0x20 PUSH1 0x1 MUL DUP3 ADD GT ISZERO PUSH2 0xF10 JUMPI PUSH2 0xF0F PUSH2 0xED0 JUMP JUMPDEST JUMPDEST SWAP3 SWAP2 POP POP JUMP JUMPDEST PUSH0 DUP1 PUSH0 PUSH2 0x140 DUP5 DUP7 SUB SLT ISZERO PUSH2 0xF2E JUMPI PUSH2 0xF2D PUSH2 0xD74 JUMP JUMPDEST JUMPDEST PUSH0 PUSH2 0xF3B DUP7 DUP3 DUP8 ADD PUSH2 0xD97 JUMP JUMPDEST SWAP4 POP POP PUSH1 0x20 PUSH2 0xF4C DUP7 DUP3 DUP8 ADD PUSH2 0xED4 JUMP JUMPDEST SWAP3 POP POP PUSH2 0x120 PUSH2 0xF5E DUP7 DUP3 DUP8 ADD PUSH2 0xEF5 JUMP JUMPDEST SWAP2 POP POP SWAP3 POP SWAP3 POP SWAP3 JUMP JUMPDEST PUSH0 PUSH1 0x20 DUP3 ADD SWAP1 POP PUSH2 0xF7B PUSH0 DUP4 ADD DUP5 PUSH2 0xE74 JUMP JUMPDEST SWAP3 SWAP2 POP POP JUMP JUMPDEST PUSH0 PUSH2 0xF8B DUP3 PUSH2 0xDD6 JUMP JUMPDEST SWAP1 POP SWAP2 SWAP1 POP JUMP JUMPDEST PUSH2 0xF9B DUP2 PUSH2 0xF81 JUMP JUMPDEST DUP3 MSTORE POP POP JUMP JUMPDEST PUSH0 PUSH1 0x20 DUP3 ADD SWAP1 POP PUSH2 0xFB4 PUSH0 DUP4 ADD DUP5 PUSH2 0xF92 JUMP JUMPDEST SWAP3 SWAP2 POP POP JUMP JUMPDEST PUSH2 0xFC3 DUP2 PUSH2 0xF81 JUMP JUMPDEST DUP2 EQ PUSH2 0xFCD JUMPI PUSH0 DUP1 REVERT JUMPDEST POP JUMP JUMPDEST PUSH0 DUP2 CALLDATALOAD SWAP1 POP PUSH2 0xFDE DUP2 PUSH2 0xFBA JUMP JUMPDEST SWAP3 SWAP2 POP POP JUMP JUMPDEST PUSH0 PUSH1 0x20 DUP3 DUP5 SUB SLT ISZERO PUSH2 0xFF9 JUMPI PUSH2 0xFF8 PUSH2 0xD74 JUMP JUMPDEST JUMPDEST PUSH0 PUSH2 0x1006 DUP5 DUP3 DUP6 ADD PUSH2 0xFD0 JUMP JUMPDEST SWAP2 POP POP SWAP3 SWAP2 POP POP JUMP JUMPDEST PUSH2 0x1018 DUP2 PUSH2 0xE83 JUMP JUMPDEST DUP2 EQ PUSH2 0x1022 JUMPI PUSH0 DUP1 REVERT JUMPDEST POP JUMP JUMPDEST PUSH0 DUP2 CALLDATALOAD SWAP1 POP PUSH2 0x1033 DUP2 PUSH2 0x100F JUMP JUMPDEST SWAP3 SWAP2 POP POP JUMP JUMPDEST PUSH0 PUSH1 0x20 DUP3 DUP5 SUB SLT ISZERO PUSH2 0x104E JUMPI PUSH2 0x104D PUSH2 0xD74 JUMP JUMPDEST JUMPDEST PUSH0 PUSH2 0x105B DUP5 DUP3 DUP6 ADD PUSH2 0x1025 JUMP JUMPDEST SWAP2 POP POP SWAP3 SWAP2 POP POP JUMP JUMPDEST PUSH0 DUP3 DUP3 MSTORE PUSH1 0x20 DUP3 ADD SWAP1 POP SWAP3 SWAP2 POP POP JUMP JUMPDEST PUSH32 0x4E6F207265766F636174696F6E20726571756573746564000000000000000000 PUSH0 DUP3 ADD MSTORE POP JUMP JUMPDEST PUSH0 PUSH2 0x10A8 PUSH1 0x17 DUP4 PUSH2 0x1064 JUMP JUMPDEST SWAP2 POP PUSH2 0x10B3 DUP3 PUSH2 0x1074 JUMP JUMPDEST PUSH1 0x20 DUP3 ADD SWAP1 POP SWAP2 SWAP1 POP JUMP JUMPDEST PUSH0 PUSH1 0x20 DUP3 ADD SWAP1 POP DUP2 DUP2 SUB PUSH0 DUP4 ADD MSTORE PUSH2 0x10D5 DUP2 PUSH2 0x109C JUMP JUMPDEST SWAP1 POP SWAP2 SWAP1 POP JUMP JUMPDEST PUSH32 0x54696D656C6F636B206163746976650000000000000000000000000000000000 PUSH0 DUP3 ADD MSTORE POP JUMP JUMPDEST PUSH0 PUSH2 0x1110 PUSH1 0xF DUP4 PUSH2 0x1064 JUMP JUMPDEST SWAP2 POP PUSH2 0x111B DUP3 PUSH2 0x10DC JUMP JUMPDEST PUSH1 0x20 DUP3 ADD SWAP1 POP SWAP2 SWAP1 POP JUMP JUMPDEST PUSH0 PUSH1 0x20 DUP3 ADD SWAP1 POP DUP2 DUP2 SUB PUSH0 DUP4 ADD MSTORE PUSH2 0x113D DUP2 PUSH2 0x1104 JUMP JUMPDEST SWAP1 POP SWAP2 SWAP1 POP JUMP JUMPDEST PUSH32 0x496E76616C696420495020686173680000000000000000000000000000000000 PUSH0 DUP3 ADD MSTORE POP JUMP JUMPDEST PUSH0 PUSH2 0x1178 PUSH1 0xF DUP4 PUSH2 0x1064 JUMP JUMPDEST SWAP2 POP PUSH2 0x1183 DUP3 PUSH2 0x1144 JUMP JUMPDEST PUSH1 0x20 DUP3 ADD SWAP1 POP SWAP2 SWAP1 POP JUMP JUMPDEST PUSH0 PUSH1 0x20 DUP3 ADD SWAP1 POP DUP2 DUP2 SUB PUSH0 DUP4 ADD MSTORE PUSH2 0x11A5 DUP2 PUSH2 0x116C JUMP JUMPDEST SWAP1 POP SWAP2 SWAP1 POP JUMP JUMPDEST PUSH32 0x416C726561647920616E6F6E796D697A65640000000000000000000000000000 PUSH0 DUP3 ADD MSTORE POP JUMP JUMPDEST PUSH0 PUSH2 0x11E0 PUSH1 0x12 DUP4 PUSH2 0x1064 JUMP JUMPDEST SWAP2 POP PUSH2 0x11EB DUP3 PUSH2 0x11AC JUMP JUMPDEST PUSH1 0x20 DUP3 ADD SWAP1 POP SWAP2 SWAP1 POP JUMP JUMPDEST PUSH0 PUSH1 0x20 DUP3 ADD SWAP1 POP DUP2 DUP2 SUB PUSH0 DUP4 ADD MSTORE PUSH2 0x120D DUP2 PUSH2 0x11D4 JUMP JUMPDEST SWAP1 POP SWAP2 SWAP1 POP JUMP JUMPDEST PUSH32 0x52617465206C696D697420657863656564656400000000000000000000000000 PUSH0 DUP3 ADD MSTORE POP JUMP JUMPDEST PUSH0 PUSH2 0x1248 PUSH1 0x13 DUP4 PUSH2 0x1064 JUMP JUMPDEST SWAP2 POP PUSH2 0x1253 DUP3 PUSH2 0x1214 JUMP JUMPDEST PUSH1 0x20 DUP3 ADD SWAP1 POP SWAP2 SWAP1 POP JUMP JUMPDEST PUSH0 PUSH1 0x20 DUP3 ADD SWAP1 POP DUP2 DUP2 SUB PUSH0 DUP4 ADD MSTORE PUSH2 0x1275 DUP2 PUSH2 0x123C JUMP JUMPDEST SWAP1 POP SWAP2 SWAP1 POP JUMP JUMPDEST PUSH32 0x496E76616C69642070726F6F6600000000000000000000000000000000000000 PUSH0 DUP3 ADD MSTORE POP JUMP JUMPDEST PUSH0 PUSH2 0x12B0 PUSH1 0xD DUP4 PUSH2 0x1064 JUMP JUMPDEST SWAP2 POP PUSH2 0x12BB DUP3 PUSH2 0x127C JUMP JUMPDEST PUSH1 0x20 DUP3 ADD SWAP1 POP SWAP2 SWAP1 POP JUMP JUMPDEST PUSH0 PUSH1 0x20 DUP3 ADD SWAP1 POP DUP2 DUP2 SUB PUSH0 DUP4 ADD MSTORE PUSH2 0x12DD DUP2 PUSH2 0x12A4 JUMP JUMPDEST SWAP1 POP SWAP2 SWAP1 POP JUMP JUMPDEST PUSH32 0x4E487B7100000000000000000000000000000000000000000000000000000000 PUSH0 MSTORE PUSH1 0x11 PUSH1 0x4 MSTORE PUSH1 0x24 PUSH0 REVERT JUMPDEST PUSH0 PUSH2 0x131B DUP3 PUSH2 0xE83 JUMP JUMPDEST SWAP2 POP PUSH32 0xFFFFFFFFFFFFFFFFFFFFFFFFFFFFFFFFFFFFFFFFFFFFFFFFFFFFFFFFFFFFFFFF DUP3 SUB PUSH2 0x134D JUMPI PUSH2 0x134C PUSH2 0x12E4 JUMP JUMPDEST JUMPDEST PUSH1 0x1 DUP3 ADD SWAP1 POP SWAP2 SWAP1 POP JUMP JUMPDEST DUP3 DUP2 DUP4 CALLDATACOPY POP POP POP JUMP JUMPDEST PUSH2 0x136E PUSH2 0x100 DUP4 DUP4 PUSH2 0x1358 JUMP JUMPDEST POP POP JUMP JUMPDEST PUSH2 0x137E PUSH1 0x20 DUP4 DUP4 PUSH2 0x1358 JUMP JUMPDEST POP POP JUMP JUMPDEST PUSH0 PUSH2 0x120 DUP3 ADD SWAP1 POP PUSH2 0x1396 PUSH0 DUP4 ADD DUP6 PUSH2 0x1361 JUMP JUMPDEST PUSH2 0x13A4 PUSH2 0x100 DUP4 ADD DUP5 PUSH2 0x1372 JUMP JUMPDEST SWAP4 SWAP3 POP POP POP JUMP JUMPDEST PUSH32 0x496E76616C696420766572696669657200000000000000000000000000000000 PUSH0 DUP3 ADD MSTORE POP JUMP JUMPDEST PUSH0 PUSH2 0x13DF PUSH1 0x10 DUP4 PUSH2 0x1064 JUMP JUMPDEST SWAP2 POP PUSH2 0x13EA DUP3 PUSH2 0x13AB JUMP JUMPDEST PUSH1 0x20 DUP3 ADD SWAP1 POP SWAP2 SWAP1 POP JUMP JUMPDEST PUSH0 PUSH1 0x20 DUP3 ADD SWAP1 POP DUP2 DUP2 SUB PUSH0 DUP4 ADD MSTORE PUSH2 0x140C DUP2 PUSH2 0x13D3 JUMP JUMPDEST SWAP1 POP SWAP2 SWAP1 POP JUMP JUMPDEST PUSH32 0x53616D6520766572696669657200000000000000000000000000000000000000 PUSH0 DUP3 ADD MSTORE POP JUMP JUMPDEST PUSH0 PUSH2 0x1447 PUSH1 0xD DUP4 PUSH2 0x1064 JUMP JUMPDEST SWAP2 POP PUSH2 0x1452 DUP3 PUSH2 0x1413 JUMP JUMPDEST PUSH1 0x20 DUP3 ADD SWAP1 POP SWAP2 SWAP1 POP JUMP JUMPDEST PUSH0 PUSH1 0x20 DUP3 ADD SWAP1 POP DUP2 DUP2 SUB PUSH0 DUP4 ADD MSTORE PUSH2 0x1474 DUP2 PUSH2 0x143B JUMP JUMPDEST SWAP1 POP SWAP2 SWAP1 POP JUMP JUMPDEST PUSH32 0x496E76616C696420626C6F636B20636F756E7400000000000000000000000000 PUSH0 DUP3 ADD MSTORE POP JUMP JUMPDEST PUSH0 PUSH2 0x14AF PUSH1 0x13 DUP4 PUSH2 0x1064 JUMP JUMPDEST SWAP2 POP PUSH2 0x14BA DUP3 PUSH2 0x147B JUMP JUMPDEST PUSH1 0x20 DUP3 ADD SWAP1 POP SWAP2 SWAP1 POP JUMP JUMPDEST PUSH0 PUSH1 0x20 DUP3 ADD SWAP1 POP DUP2 DUP2 SUB PUSH0 DUP4 ADD MSTORE PUSH2 0x14DC DUP2 PUSH2 0x14A3 JUMP JUMPDEST SWAP1 POP SWAP2 SWAP1 POP JUMP JUMPDEST PUSH0 PUSH2 0x14ED DUP3 PUSH2 0xE83 JUMP JUMPDEST SWAP2 POP PUSH2 0x14F8 DUP4 PUSH2 0xE83 JUMP JUMPDEST SWAP3 POP DUP3 DUP3 SUB SWAP1 POP DUP2 DUP2 GT ISZERO PUSH2 0x1510 JUMPI PUSH2 0x150F PUSH2 0x12E4 JUMP JUMPDEST JUMPDEST SWAP3 SWAP2 POP POP JUMP JUMPDEST PUSH32 0x4E6F7420616E6F6E796D697A6564000000000000000000000000000000000000 PUSH0 DUP3 ADD MSTORE POP JUMP JUMPDEST PUSH0 PUSH2 0x154A PUSH1 0xE DUP4 PUSH2 0x1064 JUMP JUMPDEST SWAP2 POP PUSH2 0x1555 DUP3 PUSH2 0x1516 JUMP JUMPDEST PUSH1 0x20 DUP3 ADD SWAP1 POP SWAP2 SWAP1 POP JUMP JUMPDEST PUSH0 PUSH1 0x20 DUP3 ADD SWAP1 POP DUP2 DUP2 SUB PUSH0 DUP4 ADD MSTORE PUSH2 0x1577 DUP2 PUSH2 0x153E JUMP JUMPDEST SWAP1 POP SWAP2 SWAP1 POP JUMP JUMPDEST PUSH32 0x5265766F636174696F6E2070656E64696E670000000000000000000000000000 PUSH0 DUP3 ADD MSTORE POP JUMP JUMPDEST PUSH0 PUSH2 0x15B2 PUSH1 0x12 DUP4 PUSH2 0x1064 JUMP JUMPDEST SWAP2 POP PUSH2 0x15BD DUP3 PUSH2 0x157E JUMP JUMPDEST PUSH1 0x20 DUP3 ADD SWAP1 POP SWAP2 SWAP1 POP JUMP JUMPDEST PUSH0 PUSH1 0x20 DUP3 ADD SWAP1 POP DUP2 DUP2 SUB PUSH0 DUP4 ADD MSTORE PUSH2 0x15DF DUP2 PUSH2 0x15A6 JUMP JUMPDEST SWAP1 POP SWAP2 SWAP1 POP JUMP JUMPDEST PUSH0 PUSH2 0x15F0 DUP3 PUSH2 0xE83 JUMP JUMPDEST SWAP2 POP PUSH2 0x15FB DUP4 PUSH2 0xE83 JUMP JUMPDEST SWAP3 POP DUP3 DUP3 ADD SWAP1 POP DUP1 DUP3 GT ISZERO PUSH2 0x1613 JUMPI PUSH2 0x1612 PUSH2 0x12E4 JUMP JUMPDEST JUMPDEST SWAP3 SWAP2 POP POP JUMP INVALID LOG2 PUSH5 0x6970667358 0x22 SLT KECCAK256 0xAA SELFBALANCE SMOD EXP CODESIZE 0xBA SHL 0xFB BLOBHASH 0xE1 ADDMOD DUP9 0x22 0xCC 0xD2 MULMOD DUP14 EXTCODEHASH SAR 0xDB 0xE2 0xAE GAS EXP DUP7 PC TIMESTAMP MCOPY 0xB4 RETURNDATACOPY SWAP14 TIMESTAMP PUSH5 0x736F6C6343 STOP ADDMOD BYTE STOP CALLER "
				},
				"gasEstimates": {
					"creation": {
						"codeDepositCost": "1142200",
						"executionCost": "infinite",
						"totalCost": "infinite"
					},
					"external": {
						"clearOldBlockCounts(uint256)": "infinite",
						"executeRevocation(bytes32)": "infinite",
						"getIPStatus(bytes32)": "infinite",
						"owner()": "2582",
						"pause()": "infinite",
						"paused()": "2584",
						"registerAnonymizedIP(bytes32,uint256[8],uint256[1])": "infinite",
						"renounceOwnership()": "infinite",
						"requestRevocation(bytes32)": "infinite",
						"transferOwnership(address)": "infinite",
						"unpause()": "infinite",
						"updateVerifier(address)": "infinite",
						"verifier()": "infinite"
					}
				},
				"methodIdentifiers": {
					"clearOldBlockCounts(uint256)": "c8fea3a5",
					"executeRevocation(bytes32)": "12425ebb",
					"getIPStatus(bytes32)": "2c7f7d44",
					"owner()": "8da5cb5b",
					"pause()": "8456cb59",
					"paused()": "5c975abb",
					"registerAnonymizedIP(bytes32,uint256[8],uint256[1])": "451d577f",
					"renounceOwnership()": "715018a6",
					"requestRevocation(bytes32)": "cc3e12e8",
					"transferOwnership(address)": "f2fde38b",
					"unpause()": "3f4ba83a",
					"updateVerifier(address)": "97fc007c",
					"verifier()": "2b7ac3f3"
				}
			},
			"storageLayout": {
				"storage": [
					{
						"astId": 8,
						"contract": "security/IPAnonymizer.sol:IPAnonymizer",
						"label": "_owner",
						"offset": 0,
						"slot": "0",
						"type": "t_address"
					},
					{
						"astId": 305,
						"contract": "security/IPAnonymizer.sol:IPAnonymizer",
						"label": "_status",
						"offset": 0,
						"slot": "1",
						"type": "t_uint256"
					},
					{
						"astId": 186,
						"contract": "security/IPAnonymizer.sol:IPAnonymizer",
						"label": "_paused",
						"offset": 0,
						"slot": "2",
						"type": "t_bool"
					},
					{
						"astId": 395,
						"contract": "security/IPAnonymizer.sol:IPAnonymizer",
						"label": "verifier",
						"offset": 1,
						"slot": "2",
						"type": "t_contract(IZKVerifier)379"
					},
					{
						"astId": 405,
						"contract": "security/IPAnonymizer.sol:IPAnonymizer",
						"label": "anonymizedIPs",
						"offset": 0,
						"slot": "3",
						"type": "t_mapping(t_bytes32,t_bool)"
					},
					{
						"astId": 409,
						"contract": "security/IPAnonymizer.sol:IPAnonymizer",
						"label": "registrationTimes",
						"offset": 0,
						"slot": "4",
						"type": "t_mapping(t_bytes32,t_uint256)"
					},
					{
						"astId": 413,
						"contract": "security/IPAnonymizer.sol:IPAnonymizer",
						"label": "revocationRequests",
						"offset": 0,
						"slot": "5",
						"type": "t_mapping(t_bytes32,t_uint256)"
					},
					{
						"astId": 417,
						"contract": "security/IPAnonymizer.sol:IPAnonymizer",
						"label": "blockRegistrationCount",
						"offset": 0,
						"slot": "6",
						"type": "t_mapping(t_uint256,t_uint256)"
					}
				],
				"types": {
					"t_address": {
						"encoding": "inplace",
						"label": "address",
						"numberOfBytes": "20"
					},
					"t_bool": {
						"encoding": "inplace",
						"label": "bool",
						"numberOfBytes": "1"
					},
					"t_bytes32": {
						"encoding": "inplace",
						"label": "bytes32",
						"numberOfBytes": "32"
					},
					"t_contract(IZKVerifier)379": {
						"encoding": "inplace",
						"label": "contract IZKVerifier",
						"numberOfBytes": "20"
					},
					"t_mapping(t_bytes32,t_bool)": {
						"encoding": "mapping",
						"key": "t_bytes32",
						"label": "mapping(bytes32 => bool)",
						"numberOfBytes": "32",
						"value": "t_bool"
					},
					"t_mapping(t_bytes32,t_uint256)": {
						"encoding": "mapping",
						"key": "t_bytes32",
						"label": "mapping(bytes32 => uint256)",
						"numberOfBytes": "32",
						"value": "t_uint256"
					},
					"t_mapping(t_uint256,t_uint256)": {
						"encoding": "mapping",
						"key": "t_uint256",
						"label": "mapping(uint256 => uint256)",
						"numberOfBytes": "32",
						"value": "t_uint256"
					},
					"t_uint256": {
						"encoding": "inplace",
						"label": "uint256",
						"numberOfBytes": "32"
					}
				}
			},
			"userdoc": {
				"kind": "user",
				"methods": {},
				"version": 1
			}
		}
	}
}