{
	"security/EncryptionManager.sol": {
		"EncryptionManager": {
			"abi": [
				{
					"inputs": [
						{
							"internalType": "address",
							"name": "initialOwner",
							"type": "address"
						}
					],
					"stateMutability": "nonpayable",
					"type": "constructor"
				},
				{
					"inputs": [],
					"name": "EnforcedPause",
					"type": "error"
				},
				{
					"inputs": [],
					"name": "ExpectedPause",
					"type": "error"
				},
				{
					"inputs": [
						{
							"internalType": "address",
							"name": "owner",
							"type": "address"
						}
					],
					"name": "OwnableInvalidOwner",
					"type": "error"
				},
				{
					"inputs": [
						{
							"internalType": "address",
							"name": "account",
							"type": "address"
						}
					],
					"name": "OwnableUnauthorizedAccount",
					"type": "error"
				},
				{
					"inputs": [],
					"name": "ReentrancyGuardReentrantCall",
					"type": "error"
				},
				{
					"anonymous": false,
					"inputs": [
						{
							"indexed": true,
							"internalType": "bytes32",
							"name": "keyHash",
							"type": "bytes32"
						},
						{
							"indexed": true,
							"internalType": "uint256",
							"name": "timestamp",
							"type": "uint256"
						},
						{
							"indexed": true,
							"internalType": "bytes32",
							"name": "publicPart",
							"type": "bytes32"
						}
					],
					"name": "EncryptionKeyGenerated",
					"type": "event"
				},
				{
					"anonymous": false,
					"inputs": [
						{
							"indexed": true,
							"internalType": "bytes32",
							"name": "keyHash",
							"type": "bytes32"
						},
						{
							"indexed": true,
							"internalType": "uint256",
							"name": "timestamp",
							"type": "uint256"
						},
						{
							"indexed": false,
							"internalType": "string",
							"name": "reason",
							"type": "string"
						}
					],
					"name": "EncryptionKeyRevoked",
					"type": "event"
				},
				{
					"anonymous": false,
					"inputs": [
						{
							"indexed": true,
							"internalType": "bytes32",
							"name": "oldKeyHash",
							"type": "bytes32"
						},
						{
							"indexed": true,
							"internalType": "bytes32",
							"name": "newKeyHash",
							"type": "bytes32"
						},
						{
							"indexed": true,
							"internalType": "uint256",
							"name": "timestamp",
							"type": "uint256"
						}
					],
					"name": "EncryptionKeyRotated",
					"type": "event"
				},
				{
					"anonymous": false,
					"inputs": [
						{
							"indexed": true,
							"internalType": "bytes32",
							"name": "keyHash",
							"type": "bytes32"
						},
						{
							"indexed": true,
							"internalType": "uint256",
							"name": "timestamp",
							"type": "uint256"
						}
					],
					"name": "EncryptionKeyStored",
					"type": "event"
				},
				{
					"anonymous": false,
					"inputs": [
						{
							"indexed": true,
							"internalType": "address",
							"name": "previousOwner",
							"type": "address"
						},
						{
							"indexed": true,
							"internalType": "address",
							"name": "newOwner",
							"type": "address"
						}
					],
					"name": "OwnershipTransferred",
					"type": "event"
				},
				{
					"anonymous": false,
					"inputs": [
						{
							"indexed": false,
							"internalType": "address",
							"name": "account",
							"type": "address"
						}
					],
					"name": "Paused",
					"type": "event"
				},
				{
					"anonymous": false,
					"inputs": [
						{
							"indexed": false,
							"internalType": "address",
							"name": "account",
							"type": "address"
						}
					],
					"name": "Unpaused",
					"type": "event"
				},
				{
					"inputs": [
						{
							"internalType": "bytes32",
							"name": "entropy",
							"type": "bytes32"
						}
					],
					"name": "generateEncryptionKey",
					"outputs": [
						{
							"internalType": "bytes32",
							"name": "keyHash",
							"type": "bytes32"
						},
						{
							"internalType": "bytes32",
							"name": "publicPart",
							"type": "bytes32"
						}
					],
					"stateMutability": "nonpayable",
					"type": "function"
				},
				{
					"inputs": [
						{
							"internalType": "bytes32",
							"name": "keyHash",
							"type": "bytes32"
						}
					],
					"name": "getEncryptionKey",
					"outputs": [
						{
							"internalType": "bytes32",
							"name": "encryptedKey",
							"type": "bytes32"
						},
						{
							"components": [
								{
									"internalType": "uint256",
									"name": "creationTime",
									"type": "uint256"
								},
								{
									"internalType": "uint256",
									"name": "lastRotationTime",
									"type": "uint256"
								},
								{
									"internalType": "uint8",
									"name": "status",
									"type": "uint8"
								},
								{
									"internalType": "uint256",
									"name": "useCount",
									"type": "uint256"
								}
							],
							"internalType": "struct EncryptionManager.KeyMetadata",
							"name": "metadata",
							"type": "tuple"
						}
					],
					"stateMutability": "view",
					"type": "function"
				},
				{
					"inputs": [],
					"name": "owner",
					"outputs": [
						{
							"internalType": "address",
							"name": "",
							"type": "address"
						}
					],
					"stateMutability": "view",
					"type": "function"
				},
				{
					"inputs": [],
					"name": "pause",
					"outputs": [],
					"stateMutability": "nonpayable",
					"type": "function"
				},
				{
					"inputs": [],
					"name": "paused",
					"outputs": [
						{
							"internalType": "bool",
							"name": "",
							"type": "bool"
						}
					],
					"stateMutability": "view",
					"type": "function"
				},
				{
					"inputs": [],
					"name": "renounceOwnership",
					"outputs": [],
					"stateMutability": "nonpayable",
					"type": "function"
				},
				{
					"inputs": [
						{
							"internalType": "bytes32",
							"name": "keyHash",
							"type": "bytes32"
						},
						{
							"internalType": "string",
							"name": "reason",
							"type": "string"
						}
					],
					"name": "revokeEncryptionKey",
					"outputs": [],
					"stateMutability": "nonpayable",
					"type": "function"
				},
				{
					"inputs": [
						{
							"internalType": "bytes32",
							"name": "oldKeyHash",
							"type": "bytes32"
						},
						{
							"internalType": "bytes32",
							"name": "newKeyHash",
							"type": "bytes32"
						},
						{
							"internalType": "bytes32",
							"name": "newEncryptedKey",
							"type": "bytes32"
						}
					],
					"name": "rotateEncryptionKey",
					"outputs": [],
					"stateMutability": "nonpayable",
					"type": "function"
				},
				{
					"inputs": [
						{
							"internalType": "bytes32",
							"name": "keyHash",
							"type": "bytes32"
						},
						{
							"internalType": "bytes32",
							"name": "encryptedKey",
							"type": "bytes32"
						}
					],
					"name": "storeEncryptionKey",
					"outputs": [],
					"stateMutability": "nonpayable",
					"type": "function"
				},
				{
					"inputs": [
						{
							"internalType": "address",
							"name": "newOwner",
							"type": "address"
						}
					],
					"name": "transferOwnership",
					"outputs": [],
					"stateMutability": "nonpayable",
					"type": "function"
				},
				{
					"inputs": [],
					"name": "unpause",
					"outputs": [],
					"stateMutability": "nonpayable",
					"type": "function"
				}
			],
			"devdoc": {
				"details": "Advanced encryption key management system with optimized operations",
				"errors": {
					"EnforcedPause()": [
						{
							"details": "The operation failed because the contract is paused."
						}
					],
					"ExpectedPause()": [
						{
							"details": "The operation failed because the contract is not paused."
						}
					],
					"OwnableInvalidOwner(address)": [
						{
							"details": "The owner is not a valid owner account. (eg. `address(0)`)"
						}
					],
					"OwnableUnauthorizedAccount(address)": [
						{
							"details": "The caller account is not authorized to perform an operation."
						}
					],
					"ReentrancyGuardReentrantCall()": [
						{
							"details": "Unauthorized reentrant call."
						}
					]
				},
				"events": {
					"Paused(address)": {
						"details": "Emitted when the pause is triggered by `account`."
					},
					"Unpaused(address)": {
						"details": "Emitted when the pause is lifted by `account`."
					}
				},
				"kind": "dev",
				"methods": {
					"generateEncryptionKey(bytes32)": {
						"details": "Generates a new encryption key using assembly for gas optimization"
					},
					"getEncryptionKey(bytes32)": {
						"details": "Retrieves an encryption key with access control"
					},
					"owner()": {
						"details": "Returns the address of the current owner."
					},
					"paused()": {
						"details": "Returns true if the contract is paused, and false otherwise."
					},
					"renounceOwnership()": {
						"details": "Leaves the contract without owner. It will not be possible to call `onlyOwner` functions. Can only be called by the current owner. NOTE: Renouncing ownership will leave the contract without an owner, thereby disabling any functionality that is only available to the owner."
					},
					"revokeEncryptionKey(bytes32,string)": {
						"details": "Revokes an encryption key with reason"
					},
					"rotateEncryptionKey(bytes32,bytes32,bytes32)": {
						"details": "Rotates an encryption key with cooling period check"
					},
					"storeEncryptionKey(bytes32,bytes32)": {
						"details": "Stores an encrypted key"
					},
					"transferOwnership(address)": {
						"details": "Transfers ownership of the contract to a new account (`newOwner`). Can only be called by the current owner."
					}
				},
				"title": "EncryptionManager",
				"version": 1
			},
			"evm": {
				"assembly": "    /* \"security/EncryptionManager.sol\":337:5610  contract EncryptionManager is Ownable, ReentrancyGuard, Pausable {... */\n  mstore(0x40, 0x80)\n    /* \"security/EncryptionManager.sol\":1474:1646  constructor(address initialOwner) Ownable(initialOwner) {... */\n  callvalue\n  dup1\n  iszero\n  tag_1\n  jumpi\n  0x00\n  dup1\n  revert\ntag_1:\n  pop\n  mload(0x40)\n  sub(codesize, bytecodeSize)\n  dup1\n  bytecodeSize\n  dup4\n  codecopy\n  dup2\n  dup2\n  add\n  0x40\n  mstore\n  dup2\n  add\n  swap1\n  tag_2\n  swap2\n  swap1\n  tag_3\n  jump\t// in\ntag_2:\n    /* \"security/EncryptionManager.sol\":1516:1528  initialOwner */\n  dup1\n    /* \"@openzeppelin/contracts/access/Ownable.sol\":1297:1298  0 */\n  0x00\n    /* \"@openzeppelin/contracts/access/Ownable.sol\":1273:1299  initialOwner == address(0) */\n  0xffffffffffffffffffffffffffffffffffffffff\n  and\n    /* \"@openzeppelin/contracts/access/Ownable.sol\":1273:1285  initialOwner */\n  dup2\n    /* \"@openzeppelin/contracts/access/Ownable.sol\":1273:1299  initialOwner == address(0) */\n  0xffffffffffffffffffffffffffffffffffffffff\n  and\n  sub\n    /* \"@openzeppelin/contracts/access/Ownable.sol\":1269:1364  if (initialOwner == address(0)) {... */\n  tag_9\n  jumpi\n    /* \"@openzeppelin/contracts/access/Ownable.sol\":1350:1351  0 */\n  0x00\n    /* \"@openzeppelin/contracts/access/Ownable.sol\":1322:1353  OwnableInvalidOwner(address(0)) */\n  mload(0x40)\n  0x1e4fbdf700000000000000000000000000000000000000000000000000000000\n  dup2\n  mstore\n  0x04\n  add\n  tag_10\n  swap2\n  swap1\n  tag_11\n  jump\t// in\ntag_10:\n  mload(0x40)\n  dup1\n  swap2\n  sub\n  swap1\n  revert\n    /* \"@openzeppelin/contracts/access/Ownable.sol\":1269:1364  if (initialOwner == address(0)) {... */\ntag_9:\n    /* \"@openzeppelin/contracts/access/Ownable.sol\":1373:1405  _transferOwnership(initialOwner) */\n  tag_12\n    /* \"@openzeppelin/contracts/access/Ownable.sol\":1392:1404  initialOwner */\n  dup2\n    /* \"@openzeppelin/contracts/access/Ownable.sol\":1373:1391  _transferOwnership */\n  shl(0x20, tag_13)\n    /* \"@openzeppelin/contracts/access/Ownable.sol\":1373:1405  _transferOwnership(initialOwner) */\n  0x20\n  shr\n  jump\t// in\ntag_12:\n    /* \"@openzeppelin/contracts/access/Ownable.sol\":1225:1412  constructor(address initialOwner) {... */\n  pop\n    /* \"@openzeppelin/contracts/utils/ReentrancyGuard.sol\":1857:1858  1 */\n  0x01\n    /* \"@openzeppelin/contracts/utils/ReentrancyGuard.sol\":2061:2068  _status */\n  dup1\n    /* \"@openzeppelin/contracts/utils/ReentrancyGuard.sol\":2061:2082  _status = NOT_ENTERED */\n  dup2\n  swap1\n  sstore\n  pop\n    /* \"@openzeppelin/contracts/utils/Pausable.sol\":1241:1246  false */\n  0x00\n    /* \"@openzeppelin/contracts/utils/Pausable.sol\":1231:1238  _paused */\n  0x02\n  0x00\n    /* \"@openzeppelin/contracts/utils/Pausable.sol\":1231:1246  _paused = false */\n  0x0100\n  exp\n  dup2\n  sload\n  dup2\n  0xff\n  mul\n  not\n  and\n  swap1\n  dup4\n  iszero\n  iszero\n  mul\n  or\n  swap1\n  sstore\n  pop\n    /* \"security/EncryptionManager.sol\":1572:1573  0 */\n  0x00\n    /* \"security/EncryptionManager.sol\":1548:1574  initialOwner != address(0) */\n  0xffffffffffffffffffffffffffffffffffffffff\n  and\n    /* \"security/EncryptionManager.sol\":1548:1560  initialOwner */\n  dup2\n    /* \"security/EncryptionManager.sol\":1548:1574  initialOwner != address(0) */\n  0xffffffffffffffffffffffffffffffffffffffff\n  and\n  sub\n    /* \"security/EncryptionManager.sol\":1540:1592  require(initialOwner != address(0), \"Invalid owner\") */\n  tag_17\n  jumpi\n  mload(0x40)\n  0x08c379a000000000000000000000000000000000000000000000000000000000\n  dup2\n  mstore\n  0x04\n  add\n  tag_18\n  swap1\n  tag_19\n  jump\t// in\ntag_18:\n  mload(0x40)\n  dup1\n  swap2\n  sub\n  swap1\n  revert\ntag_17:\n    /* \"security/EncryptionManager.sol\":1602:1610  _pause() */\n  tag_20\n    /* \"security/EncryptionManager.sol\":1602:1608  _pause */\n  shl(0x20, tag_21)\n    /* \"security/EncryptionManager.sol\":1602:1610  _pause() */\n  0x20\n  shr\n  jump\t// in\ntag_20:\n    /* \"security/EncryptionManager.sol\":1474:1646  constructor(address initialOwner) Ownable(initialOwner) {... */\n  pop\n    /* \"security/EncryptionManager.sol\":337:5610  contract EncryptionManager is Ownable, ReentrancyGuard, Pausable {... */\n  jump(tag_22)\n    /* \"@openzeppelin/contracts/access/Ownable.sol\":2912:3099  function _transferOwnership(address newOwner) internal virtual {... */\ntag_13:\n    /* \"@openzeppelin/contracts/access/Ownable.sol\":2985:3001  address oldOwner */\n  0x00\n    /* \"@openzeppelin/contracts/access/Ownable.sol\":3004:3010  _owner */\n  dup1\n  0x00\n  swap1\n  sload\n  swap1\n  0x0100\n  exp\n  swap1\n  div\n  0xffffffffffffffffffffffffffffffffffffffff\n  and\n    /* \"@openzeppelin/contracts/access/Ownable.sol\":2985:3010  address oldOwner = _owner */\n  swap1\n  pop\n    /* \"@openzeppelin/contracts/access/Ownable.sol\":3029:3037  newOwner */\n  dup2\n    /* \"@openzeppelin/contracts/access/Ownable.sol\":3020:3026  _owner */\n  0x00\n  dup1\n    /* \"@openzeppelin/contracts/access/Ownable.sol\":3020:3037  _owner = newOwner */\n  0x0100\n  exp\n  dup2\n  sload\n  dup2\n  0xffffffffffffffffffffffffffffffffffffffff\n  mul\n  not\n  and\n  swap1\n  dup4\n  0xffffffffffffffffffffffffffffffffffffffff\n  and\n  mul\n  or\n  swap1\n  sstore\n  pop\n    /* \"@openzeppelin/contracts/access/Ownable.sol\":3083:3091  newOwner */\n  dup2\n    /* \"@openzeppelin/contracts/access/Ownable.sol\":3052:3092  OwnershipTransferred(oldOwner, newOwner) */\n  0xffffffffffffffffffffffffffffffffffffffff\n  and\n    /* \"@openzeppelin/contracts/access/Ownable.sol\":3073:3081  oldOwner */\n  dup2\n    /* \"@openzeppelin/contracts/access/Ownable.sol\":3052:3092  OwnershipTransferred(oldOwner, newOwner) */\n  0xffffffffffffffffffffffffffffffffffffffff\n  and\n  0x8be0079c531659141344cd1fd0a4f28419497f9722a3daafe3b4186f6b6457e0\n  mload(0x40)\n  mload(0x40)\n  dup1\n  swap2\n  sub\n  swap1\n  log3\n    /* \"@openzeppelin/contracts/access/Ownable.sol\":2975:3099  {... */\n  pop\n    /* \"@openzeppelin/contracts/access/Ownable.sol\":2912:3099  function _transferOwnership(address newOwner) internal virtual {... */\n  pop\n  jump\t// out\n    /* \"@openzeppelin/contracts/utils/Pausable.sol\":2463:2578  function _pause() internal virtual whenNotPaused {... */\ntag_21:\n    /* \"@openzeppelin/contracts/utils/Pausable.sol\":1474:1493  _requireNotPaused() */\n  tag_25\n    /* \"@openzeppelin/contracts/utils/Pausable.sol\":1474:1491  _requireNotPaused */\n  shl(0x20, tag_26)\n    /* \"@openzeppelin/contracts/utils/Pausable.sol\":1474:1493  _requireNotPaused() */\n  0x20\n  shr\n  jump\t// in\ntag_25:\n    /* \"@openzeppelin/contracts/utils/Pausable.sol\":2532:2536  true */\n  0x01\n    /* \"@openzeppelin/contracts/utils/Pausable.sol\":2522:2529  _paused */\n  0x02\n  0x00\n    /* \"@openzeppelin/contracts/utils/Pausable.sol\":2522:2536  _paused = true */\n  0x0100\n  exp\n  dup2\n  sload\n  dup2\n  0xff\n  mul\n  not\n  and\n  swap1\n  dup4\n  iszero\n  iszero\n  mul\n  or\n  swap1\n  sstore\n  pop\n    /* \"@openzeppelin/contracts/utils/Pausable.sol\":2551:2571  Paused(_msgSender()) */\n  0x62e78cea01bee320cd4e420270b5ea74000d11b0c9f74754ebdbfc544b05a258\n    /* \"@openzeppelin/contracts/utils/Pausable.sol\":2558:2570  _msgSender() */\n  tag_28\n    /* \"@openzeppelin/contracts/utils/Pausable.sol\":2558:2568  _msgSender */\n  shl(0x20, tag_29)\n    /* \"@openzeppelin/contracts/utils/Pausable.sol\":2558:2570  _msgSender() */\n  0x20\n  shr\n  jump\t// in\ntag_28:\n    /* \"@openzeppelin/contracts/utils/Pausable.sol\":2551:2571  Paused(_msgSender()) */\n  mload(0x40)\n  tag_30\n  swap2\n  swap1\n  tag_11\n  jump\t// in\ntag_30:\n  mload(0x40)\n  dup1\n  swap2\n  sub\n  swap1\n  log1\n    /* \"@openzeppelin/contracts/utils/Pausable.sol\":2463:2578  function _pause() internal virtual whenNotPaused {... */\n  jump\t// out\n    /* \"@openzeppelin/contracts/utils/Pausable.sol\":2002:2130  function _requireNotPaused() internal view virtual {... */\ntag_26:\n    /* \"@openzeppelin/contracts/utils/Pausable.sol\":2067:2075  paused() */\n  tag_32\n    /* \"@openzeppelin/contracts/utils/Pausable.sol\":2067:2073  paused */\n  shl(0x20, tag_33)\n    /* \"@openzeppelin/contracts/utils/Pausable.sol\":2067:2075  paused() */\n  0x20\n  shr\n  jump\t// in\ntag_32:\n    /* \"@openzeppelin/contracts/utils/Pausable.sol\":2063:2124  if (paused()) {... */\n  iszero\n  tag_34\n  jumpi\n    /* \"@openzeppelin/contracts/utils/Pausable.sol\":2098:2113  EnforcedPause() */\n  mload(0x40)\n  0xd93c066500000000000000000000000000000000000000000000000000000000\n  dup2\n  mstore\n  0x04\n  add\n  mload(0x40)\n  dup1\n  swap2\n  sub\n  swap1\n  revert\n    /* \"@openzeppelin/contracts/utils/Pausable.sol\":2063:2124  if (paused()) {... */\ntag_34:\n    /* \"@openzeppelin/contracts/utils/Pausable.sol\":2002:2130  function _requireNotPaused() internal view virtual {... */\n  jump\t// out\n    /* \"@openzeppelin/contracts/utils/Context.sol\":656:752  function _msgSender() internal view virtual returns (address) {... */\ntag_29:\n    /* \"@openzeppelin/contracts/utils/Context.sol\":709:716  address */\n  0x00\n    /* \"@openzeppelin/contracts/utils/Context.sol\":735:745  msg.sender */\n  caller\n    /* \"@openzeppelin/contracts/utils/Context.sol\":728:745  return msg.sender */\n  swap1\n  pop\n    /* \"@openzeppelin/contracts/utils/Context.sol\":656:752  function _msgSender() internal view virtual returns (address) {... */\n  swap1\n  jump\t// out\n    /* \"@openzeppelin/contracts/utils/Pausable.sol\":1850:1934  function paused() public view virtual returns (bool) {... */\ntag_33:\n    /* \"@openzeppelin/contracts/utils/Pausable.sol\":1897:1901  bool */\n  0x00\n    /* \"@openzeppelin/contracts/utils/Pausable.sol\":1920:1927  _paused */\n  0x02\n  0x00\n  swap1\n  sload\n  swap1\n  0x0100\n  exp\n  swap1\n  div\n  0xff\n  and\n    /* \"@openzeppelin/contracts/utils/Pausable.sol\":1913:1927  return _paused */\n  swap1\n  pop\n    /* \"@openzeppelin/contracts/utils/Pausable.sol\":1850:1934  function paused() public view virtual returns (bool) {... */\n  swap1\n  jump\t// out\n    /* \"#utility.yul\":88:205   */\ntag_38:\n    /* \"#utility.yul\":197:198   */\n  0x00\n    /* \"#utility.yul\":194:195   */\n  dup1\n    /* \"#utility.yul\":187:199   */\n  revert\n    /* \"#utility.yul\":334:460   */\ntag_40:\n    /* \"#utility.yul\":371:378   */\n  0x00\n    /* \"#utility.yul\":411:453   */\n  0xffffffffffffffffffffffffffffffffffffffff\n    /* \"#utility.yul\":404:409   */\n  dup3\n    /* \"#utility.yul\":400:454   */\n  and\n    /* \"#utility.yul\":389:454   */\n  swap1\n  pop\n    /* \"#utility.yul\":334:460   */\n  swap2\n  swap1\n  pop\n  jump\t// out\n    /* \"#utility.yul\":466:562   */\ntag_41:\n    /* \"#utility.yul\":503:510   */\n  0x00\n    /* \"#utility.yul\":532:556   */\n  tag_54\n    /* \"#utility.yul\":550:555   */\n  dup3\n    /* \"#utility.yul\":532:556   */\n  tag_40\n  jump\t// in\ntag_54:\n    /* \"#utility.yul\":521:556   */\n  swap1\n  pop\n    /* \"#utility.yul\":466:562   */\n  swap2\n  swap1\n  pop\n  jump\t// out\n    /* \"#utility.yul\":568:690   */\ntag_42:\n    /* \"#utility.yul\":641:665   */\n  tag_56\n    /* \"#utility.yul\":659:664   */\n  dup2\n    /* \"#utility.yul\":641:665   */\n  tag_41\n  jump\t// in\ntag_56:\n    /* \"#utility.yul\":634:639   */\n  dup2\n    /* \"#utility.yul\":631:666   */\n  eq\n    /* \"#utility.yul\":621:684   */\n  tag_57\n  jumpi\n    /* \"#utility.yul\":680:681   */\n  0x00\n    /* \"#utility.yul\":677:678   */\n  dup1\n    /* \"#utility.yul\":670:682   */\n  revert\n    /* \"#utility.yul\":621:684   */\ntag_57:\n    /* \"#utility.yul\":568:690   */\n  pop\n  jump\t// out\n    /* \"#utility.yul\":696:839   */\ntag_43:\n    /* \"#utility.yul\":753:758   */\n  0x00\n    /* \"#utility.yul\":784:790   */\n  dup2\n    /* \"#utility.yul\":778:791   */\n  mload\n    /* \"#utility.yul\":769:791   */\n  swap1\n  pop\n    /* \"#utility.yul\":800:833   */\n  tag_59\n    /* \"#utility.yul\":827:832   */\n  dup2\n    /* \"#utility.yul\":800:833   */\n  tag_42\n  jump\t// in\ntag_59:\n    /* \"#utility.yul\":696:839   */\n  swap3\n  swap2\n  pop\n  pop\n  jump\t// out\n    /* \"#utility.yul\":845:1196   */\ntag_3:\n    /* \"#utility.yul\":915:921   */\n  0x00\n    /* \"#utility.yul\":964:966   */\n  0x20\n    /* \"#utility.yul\":952:961   */\n  dup3\n    /* \"#utility.yul\":943:950   */\n  dup5\n    /* \"#utility.yul\":939:962   */\n  sub\n    /* \"#utility.yul\":935:967   */\n  slt\n    /* \"#utility.yul\":932:1051   */\n  iszero\n  tag_61\n  jumpi\n    /* \"#utility.yul\":970:1049   */\n  tag_62\n  tag_38\n  jump\t// in\ntag_62:\n    /* \"#utility.yul\":932:1051   */\ntag_61:\n    /* \"#utility.yul\":1090:1091   */\n  0x00\n    /* \"#utility.yul\":1115:1179   */\n  tag_63\n    /* \"#utility.yul\":1171:1178   */\n  dup5\n    /* \"#utility.yul\":1162:1168   */\n  dup3\n    /* \"#utility.yul\":1151:1160   */\n  dup6\n    /* \"#utility.yul\":1147:1169   */\n  add\n    /* \"#utility.yul\":1115:1179   */\n  tag_43\n  jump\t// in\ntag_63:\n    /* \"#utility.yul\":1105:1179   */\n  swap2\n  pop\n    /* \"#utility.yul\":1061:1189   */\n  pop\n    /* \"#utility.yul\":845:1196   */\n  swap3\n  swap2\n  pop\n  pop\n  jump\t// out\n    /* \"#utility.yul\":1202:1320   */\ntag_44:\n    /* \"#utility.yul\":1289:1313   */\n  tag_65\n    /* \"#utility.yul\":1307:1312   */\n  dup2\n    /* \"#utility.yul\":1289:1313   */\n  tag_41\n  jump\t// in\ntag_65:\n    /* \"#utility.yul\":1284:1287   */\n  dup3\n    /* \"#utility.yul\":1277:1314   */\n  mstore\n    /* \"#utility.yul\":1202:1320   */\n  pop\n  pop\n  jump\t// out\n    /* \"#utility.yul\":1326:1548   */\ntag_11:\n    /* \"#utility.yul\":1419:1423   */\n  0x00\n    /* \"#utility.yul\":1457:1459   */\n  0x20\n    /* \"#utility.yul\":1446:1455   */\n  dup3\n    /* \"#utility.yul\":1442:1460   */\n  add\n    /* \"#utility.yul\":1434:1460   */\n  swap1\n  pop\n    /* \"#utility.yul\":1470:1541   */\n  tag_67\n    /* \"#utility.yul\":1538:1539   */\n  0x00\n    /* \"#utility.yul\":1527:1536   */\n  dup4\n    /* \"#utility.yul\":1523:1540   */\n  add\n    /* \"#utility.yul\":1514:1520   */\n  dup5\n    /* \"#utility.yul\":1470:1541   */\n  tag_44\n  jump\t// in\ntag_67:\n    /* \"#utility.yul\":1326:1548   */\n  swap3\n  swap2\n  pop\n  pop\n  jump\t// out\n    /* \"#utility.yul\":1554:1723   */\ntag_45:\n    /* \"#utility.yul\":1638:1649   */\n  0x00\n    /* \"#utility.yul\":1672:1678   */\n  dup3\n    /* \"#utility.yul\":1667:1670   */\n  dup3\n    /* \"#utility.yul\":1660:1679   */\n  mstore\n    /* \"#utility.yul\":1712:1716   */\n  0x20\n    /* \"#utility.yul\":1707:1710   */\n  dup3\n    /* \"#utility.yul\":1703:1717   */\n  add\n    /* \"#utility.yul\":1688:1717   */\n  swap1\n  pop\n    /* \"#utility.yul\":1554:1723   */\n  swap3\n  swap2\n  pop\n  pop\n  jump\t// out\n    /* \"#utility.yul\":1729:1892   */\ntag_46:\n    /* \"#utility.yul\":1869:1884   */\n  0x496e76616c6964206f776e657200000000000000000000000000000000000000\n    /* \"#utility.yul\":1865:1866   */\n  0x00\n    /* \"#utility.yul\":1857:1863   */\n  dup3\n    /* \"#utility.yul\":1853:1867   */\n  add\n    /* \"#utility.yul\":1846:1885   */\n  mstore\n    /* \"#utility.yul\":1729:1892   */\n  pop\n  jump\t// out\n    /* \"#utility.yul\":1898:2264   */\ntag_47:\n    /* \"#utility.yul\":2040:2043   */\n  0x00\n    /* \"#utility.yul\":2061:2128   */\n  tag_71\n    /* \"#utility.yul\":2125:2127   */\n  0x0d\n    /* \"#utility.yul\":2120:2123   */\n  dup4\n    /* \"#utility.yul\":2061:2128   */\n  tag_45\n  jump\t// in\ntag_71:\n    /* \"#utility.yul\":2054:2128   */\n  swap2\n  pop\n    /* \"#utility.yul\":2137:2230   */\n  tag_72\n    /* \"#utility.yul\":2226:2229   */\n  dup3\n    /* \"#utility.yul\":2137:2230   */\n  tag_46\n  jump\t// in\ntag_72:\n    /* \"#utility.yul\":2255:2257   */\n  0x20\n    /* \"#utility.yul\":2250:2253   */\n  dup3\n    /* \"#utility.yul\":2246:2258   */\n  add\n    /* \"#utility.yul\":2239:2258   */\n  swap1\n  pop\n    /* \"#utility.yul\":1898:2264   */\n  swap2\n  swap1\n  pop\n  jump\t// out\n    /* \"#utility.yul\":2270:2689   */\ntag_19:\n    /* \"#utility.yul\":2436:2440   */\n  0x00\n    /* \"#utility.yul\":2474:2476   */\n  0x20\n    /* \"#utility.yul\":2463:2472   */\n  dup3\n    /* \"#utility.yul\":2459:2477   */\n  add\n    /* \"#utility.yul\":2451:2477   */\n  swap1\n  pop\n    /* \"#utility.yul\":2523:2532   */\n  dup2\n    /* \"#utility.yul\":2517:2521   */\n  dup2\n    /* \"#utility.yul\":2513:2533   */\n  sub\n    /* \"#utility.yul\":2509:2510   */\n  0x00\n    /* \"#utility.yul\":2498:2507   */\n  dup4\n    /* \"#utility.yul\":2494:2511   */\n  add\n    /* \"#utility.yul\":2487:2534   */\n  mstore\n    /* \"#utility.yul\":2551:2682   */\n  tag_74\n    /* \"#utility.yul\":2677:2681   */\n  dup2\n    /* \"#utility.yul\":2551:2682   */\n  tag_47\n  jump\t// in\ntag_74:\n    /* \"#utility.yul\":2543:2682   */\n  swap1\n  pop\n    /* \"#utility.yul\":2270:2689   */\n  swap2\n  swap1\n  pop\n  jump\t// out\n    /* \"security/EncryptionManager.sol\":337:5610  contract EncryptionManager is Ownable, ReentrancyGuard, Pausable {... */\ntag_22:\n  dataSize(sub_0)\n  dup1\n  dataOffset(sub_0)\n  0x00\n  codecopy\n  0x00\n  return\nstop\n\nsub_0: assembly {\n        /* \"security/EncryptionManager.sol\":337:5610  contract EncryptionManager is Ownable, ReentrancyGuard, Pausable {... */\n      mstore(0x40, 0x80)\n      callvalue\n      dup1\n      iszero\n      tag_1\n      jumpi\n      0x00\n      dup1\n      revert\n    tag_1:\n      pop\n      jumpi(tag_2, lt(calldatasize, 0x04))\n      shr(0xe0, calldataload(0x00))\n      dup1\n      0x715018a6\n      gt\n      tag_14\n      jumpi\n      dup1\n      0x715018a6\n      eq\n      tag_8\n      jumpi\n      dup1\n      0x8456cb59\n      eq\n      tag_9\n      jumpi\n      dup1\n      0x89fded2f\n      eq\n      tag_10\n      jumpi\n      dup1\n      0x8da5cb5b\n      eq\n      tag_11\n      jumpi\n      dup1\n      0xa2036faf\n      eq\n      tag_12\n      jumpi\n      dup1\n      0xf2fde38b\n      eq\n      tag_13\n      jumpi\n      jump(tag_2)\n    tag_14:\n      dup1\n      0x09b19353\n      eq\n      tag_3\n      jumpi\n      dup1\n      0x336b0c46\n      eq\n      tag_4\n      jumpi\n      dup1\n      0x3f4ba83a\n      eq\n      tag_5\n      jumpi\n      dup1\n      0x437b347c\n      eq\n      tag_6\n      jumpi\n      dup1\n      0x5c975abb\n      eq\n      tag_7\n      jumpi\n    tag_2:\n      0x00\n      dup1\n      revert\n        /* \"security/EncryptionManager.sol\":5016:5443  function revokeEncryptionKey(... */\n    tag_3:\n      tag_15\n      0x04\n      dup1\n      calldatasize\n      sub\n      dup2\n      add\n      swap1\n      tag_16\n      swap2\n      swap1\n      tag_17\n      jump\t// in\n    tag_16:\n      tag_18\n      jump\t// in\n    tag_15:\n      stop\n        /* \"security/EncryptionManager.sol\":1747:2737  function generateEncryptionKey(... */\n    tag_4:\n      tag_19\n      0x04\n      dup1\n      calldatasize\n      sub\n      dup2\n      add\n      swap1\n      tag_20\n      swap2\n      swap1\n      tag_21\n      jump\t// in\n    tag_20:\n      tag_22\n      jump\t// in\n    tag_19:\n      mload(0x40)\n      tag_23\n      swap3\n      swap2\n      swap1\n      tag_24\n      jump\t// in\n    tag_23:\n      mload(0x40)\n      dup1\n      swap2\n      sub\n      swap1\n      return\n        /* \"security/EncryptionManager.sol\":5543:5608  function unpause() external onlyOwner {... */\n    tag_5:\n      tag_25\n      tag_26\n      jump\t// in\n    tag_25:\n      stop\n        /* \"security/EncryptionManager.sol\":2795:3352  function storeEncryptionKey(... */\n    tag_6:\n      tag_27\n      0x04\n      dup1\n      calldatasize\n      sub\n      dup2\n      add\n      swap1\n      tag_28\n      swap2\n      swap1\n      tag_29\n      jump\t// in\n    tag_28:\n      tag_30\n      jump\t// in\n    tag_27:\n      stop\n        /* \"@openzeppelin/contracts/utils/Pausable.sol\":1850:1934  function paused() public view virtual returns (bool) {... */\n    tag_7:\n      tag_31\n      tag_32\n      jump\t// in\n    tag_31:\n      mload(0x40)\n      tag_33\n      swap2\n      swap1\n      tag_34\n      jump\t// in\n    tag_33:\n      mload(0x40)\n      dup1\n      swap2\n      sub\n      swap1\n      return\n        /* \"@openzeppelin/contracts/access/Ownable.sol\":2293:2394  function renounceOwnership() public virtual onlyOwner {... */\n    tag_8:\n      tag_35\n      tag_36\n      jump\t// in\n    tag_35:\n      stop\n        /* \"security/EncryptionManager.sol\":5476:5537  function pause() external onlyOwner {... */\n    tag_9:\n      tag_37\n      tag_38\n      jump\t// in\n    tag_37:\n      stop\n        /* \"security/EncryptionManager.sol\":3438:4472  function rotateEncryptionKey(... */\n    tag_10:\n      tag_39\n      0x04\n      dup1\n      calldatasize\n      sub\n      dup2\n      add\n      swap1\n      tag_40\n      swap2\n      swap1\n      tag_41\n      jump\t// in\n    tag_40:\n      tag_42\n      jump\t// in\n    tag_39:\n      stop\n        /* \"@openzeppelin/contracts/access/Ownable.sol\":1638:1723  function owner() public view virtual returns (address) {... */\n    tag_11:\n      tag_43\n      tag_44\n      jump\t// in\n    tag_43:\n      mload(0x40)\n      tag_45\n      swap2\n      swap1\n      tag_46\n      jump\t// in\n    tag_45:\n      mload(0x40)\n      dup1\n      swap2\n      sub\n      swap1\n      return\n        /* \"security/EncryptionManager.sol\":4554:4944  function getEncryptionKey(... */\n    tag_12:\n      tag_47\n      0x04\n      dup1\n      calldatasize\n      sub\n      dup2\n      add\n      swap1\n      tag_48\n      swap2\n      swap1\n      tag_21\n      jump\t// in\n    tag_48:\n      tag_49\n      jump\t// in\n    tag_47:\n      mload(0x40)\n      tag_50\n      swap3\n      swap2\n      swap1\n      tag_51\n      jump\t// in\n    tag_50:\n      mload(0x40)\n      dup1\n      swap2\n      sub\n      swap1\n      return\n        /* \"@openzeppelin/contracts/access/Ownable.sol\":2543:2758  function transferOwnership(address newOwner) public virtual onlyOwner {... */\n    tag_13:\n      tag_52\n      0x04\n      dup1\n      calldatasize\n      sub\n      dup2\n      add\n      swap1\n      tag_53\n      swap2\n      swap1\n      tag_54\n      jump\t// in\n    tag_53:\n      tag_55\n      jump\t// in\n    tag_52:\n      stop\n        /* \"security/EncryptionManager.sol\":5016:5443  function revokeEncryptionKey(... */\n    tag_18:\n        /* \"@openzeppelin/contracts/utils/ReentrancyGuard.sol\":2500:2521  _nonReentrantBefore() */\n      tag_57\n        /* \"@openzeppelin/contracts/utils/ReentrancyGuard.sol\":2500:2519  _nonReentrantBefore */\n      tag_58\n        /* \"@openzeppelin/contracts/utils/ReentrancyGuard.sol\":2500:2521  _nonReentrantBefore() */\n      jump\t// in\n    tag_57:\n        /* \"@openzeppelin/contracts/utils/Pausable.sol\":1474:1493  _requireNotPaused() */\n      tag_60\n        /* \"@openzeppelin/contracts/utils/Pausable.sol\":1474:1491  _requireNotPaused */\n      tag_61\n        /* \"@openzeppelin/contracts/utils/Pausable.sol\":1474:1493  _requireNotPaused() */\n      jump\t// in\n    tag_60:\n        /* \"@openzeppelin/contracts/access/Ownable.sol\":1531:1544  _checkOwner() */\n      tag_63\n        /* \"@openzeppelin/contracts/access/Ownable.sol\":1531:1542  _checkOwner */\n      tag_64\n        /* \"@openzeppelin/contracts/access/Ownable.sol\":1531:1544  _checkOwner() */\n      jump\t// in\n    tag_63:\n        /* \"security/EncryptionManager.sol\":5164:5192  KeyMetadata storage metadata */\n      0x00\n        /* \"security/EncryptionManager.sol\":5195:5206  keyMetadata */\n      0x04\n        /* \"security/EncryptionManager.sol\":5195:5215  keyMetadata[keyHash] */\n      0x00\n        /* \"security/EncryptionManager.sol\":5207:5214  keyHash */\n      dup6\n        /* \"security/EncryptionManager.sol\":5195:5215  keyMetadata[keyHash] */\n      dup2\n      mstore\n      0x20\n      add\n      swap1\n      dup2\n      mstore\n      0x20\n      add\n      0x00\n      keccak256\n        /* \"security/EncryptionManager.sol\":5164:5215  KeyMetadata storage metadata = keyMetadata[keyHash] */\n      swap1\n      pop\n        /* \"security/EncryptionManager.sol\":608:609  1 */\n      0x01\n        /* \"security/EncryptionManager.sol\":5233:5265  metadata.status == STATUS_ACTIVE */\n      0xff\n      and\n        /* \"security/EncryptionManager.sol\":5233:5241  metadata */\n      dup2\n        /* \"security/EncryptionManager.sol\":5233:5248  metadata.status */\n      0x02\n      add\n      0x00\n      swap1\n      sload\n      swap1\n      0x0100\n      exp\n      swap1\n      div\n      0xff\n      and\n        /* \"security/EncryptionManager.sol\":5233:5265  metadata.status == STATUS_ACTIVE */\n      0xff\n      and\n      eq\n        /* \"security/EncryptionManager.sol\":5225:5284  require(metadata.status == STATUS_ACTIVE, \"Key not active\") */\n      tag_66\n      jumpi\n      mload(0x40)\n      0x08c379a000000000000000000000000000000000000000000000000000000000\n      dup2\n      mstore\n      0x04\n      add\n      tag_67\n      swap1\n      tag_68\n      jump\t// in\n    tag_67:\n      mload(0x40)\n      dup1\n      swap2\n      sub\n      swap1\n      revert\n    tag_66:\n        /* \"security/EncryptionManager.sol\":5302:5315  encryptedKeys */\n      0x03\n        /* \"security/EncryptionManager.sol\":5302:5324  encryptedKeys[keyHash] */\n      0x00\n        /* \"security/EncryptionManager.sol\":5316:5323  keyHash */\n      dup6\n        /* \"security/EncryptionManager.sol\":5302:5324  encryptedKeys[keyHash] */\n      dup2\n      mstore\n      0x20\n      add\n      swap1\n      dup2\n      mstore\n      0x20\n      add\n      0x00\n      keccak256\n        /* \"security/EncryptionManager.sol\":5295:5324  delete encryptedKeys[keyHash] */\n      0x00\n      swap1\n      sstore\n        /* \"security/EncryptionManager.sol\":655:656  2 */\n      0x02\n        /* \"security/EncryptionManager.sol\":5334:5342  metadata */\n      dup2\n        /* \"security/EncryptionManager.sol\":5334:5349  metadata.status */\n      0x02\n      add\n      0x00\n        /* \"security/EncryptionManager.sol\":5334:5366  metadata.status = STATUS_REVOKED */\n      0x0100\n      exp\n      dup2\n      sload\n      dup2\n      0xff\n      mul\n      not\n      and\n      swap1\n      dup4\n      0xff\n      and\n      mul\n      or\n      swap1\n      sstore\n      pop\n        /* \"security/EncryptionManager.sol\":5412:5427  block.timestamp */\n      timestamp\n        /* \"security/EncryptionManager.sol\":5403:5410  keyHash */\n      dup5\n        /* \"security/EncryptionManager.sol\":5382:5436  EncryptionKeyRevoked(keyHash, block.timestamp, reason) */\n      0x78bd2ada78ae840d9afbffa9908add00bfc36af05d1c3ab4c174d2e22e964874\n        /* \"security/EncryptionManager.sol\":5429:5435  reason */\n      dup6\n      dup6\n        /* \"security/EncryptionManager.sol\":5382:5436  EncryptionKeyRevoked(keyHash, block.timestamp, reason) */\n      mload(0x40)\n      tag_69\n      swap3\n      swap2\n      swap1\n      tag_70\n      jump\t// in\n    tag_69:\n      mload(0x40)\n      dup1\n      swap2\n      sub\n      swap1\n      log3\n        /* \"security/EncryptionManager.sol\":5154:5443  {... */\n      pop\n        /* \"@openzeppelin/contracts/utils/ReentrancyGuard.sol\":2542:2562  _nonReentrantAfter() */\n      tag_71\n        /* \"@openzeppelin/contracts/utils/ReentrancyGuard.sol\":2542:2560  _nonReentrantAfter */\n      tag_72\n        /* \"@openzeppelin/contracts/utils/ReentrancyGuard.sol\":2542:2562  _nonReentrantAfter() */\n      jump\t// in\n    tag_71:\n        /* \"security/EncryptionManager.sol\":5016:5443  function revokeEncryptionKey(... */\n      pop\n      pop\n      pop\n      jump\t// out\n        /* \"security/EncryptionManager.sol\":1747:2737  function generateEncryptionKey(... */\n    tag_22:\n        /* \"security/EncryptionManager.sol\":1864:1879  bytes32 keyHash */\n      0x00\n        /* \"security/EncryptionManager.sol\":1881:1899  bytes32 publicPart */\n      dup1\n        /* \"@openzeppelin/contracts/utils/ReentrancyGuard.sol\":2500:2521  _nonReentrantBefore() */\n      tag_74\n        /* \"@openzeppelin/contracts/utils/ReentrancyGuard.sol\":2500:2519  _nonReentrantBefore */\n      tag_58\n        /* \"@openzeppelin/contracts/utils/ReentrancyGuard.sol\":2500:2521  _nonReentrantBefore() */\n      jump\t// in\n    tag_74:\n        /* \"@openzeppelin/contracts/utils/Pausable.sol\":1474:1493  _requireNotPaused() */\n      tag_76\n        /* \"@openzeppelin/contracts/utils/Pausable.sol\":1474:1491  _requireNotPaused */\n      tag_61\n        /* \"@openzeppelin/contracts/utils/Pausable.sol\":1474:1493  _requireNotPaused() */\n      jump\t// in\n    tag_76:\n        /* \"@openzeppelin/contracts/access/Ownable.sol\":1531:1544  _checkOwner() */\n      tag_78\n        /* \"@openzeppelin/contracts/access/Ownable.sol\":1531:1542  _checkOwner */\n      tag_64\n        /* \"@openzeppelin/contracts/access/Ownable.sol\":1531:1544  _checkOwner() */\n      jump\t// in\n    tag_78:\n        /* \"security/EncryptionManager.sol\":1938:1939  0 */\n      0x00\n        /* \"security/EncryptionManager.sol\":1930:1940  bytes32(0) */\n      dup1\n      shl\n        /* \"security/EncryptionManager.sol\":1919:1926  entropy */\n      dup4\n        /* \"security/EncryptionManager.sol\":1919:1940  entropy != bytes32(0) */\n      sub\n        /* \"security/EncryptionManager.sol\":1911:1957  require(entropy != bytes32(0), \"Zero entropy\") */\n      tag_80\n      jumpi\n      mload(0x40)\n      0x08c379a000000000000000000000000000000000000000000000000000000000\n      dup2\n      mstore\n      0x04\n      add\n      tag_81\n      swap1\n      tag_82\n      jump\t// in\n    tag_81:\n      mload(0x40)\n      dup1\n      swap2\n      sub\n      swap1\n      revert\n    tag_80:\n        /* \"security/EncryptionManager.sol\":2070:2074  0x40 */\n      0x40\n        /* \"security/EncryptionManager.sol\":2064:2075  mload(0x40) */\n      mload\n        /* \"security/EncryptionManager.sol\":2100:2108  number() */\n      number\n        /* \"security/EncryptionManager.sol\":2095:2098  ptr */\n      dup2\n        /* \"security/EncryptionManager.sol\":2088:2109  mstore(ptr, number()) */\n      mstore\n        /* \"security/EncryptionManager.sol\":2145:2156  timestamp() */\n      timestamp\n        /* \"security/EncryptionManager.sol\":2138:2142  0x20 */\n      0x20\n        /* \"security/EncryptionManager.sol\":2133:2136  ptr */\n      dup3\n        /* \"security/EncryptionManager.sol\":2129:2143  add(ptr, 0x20) */\n      add\n        /* \"security/EncryptionManager.sol\":2122:2157  mstore(add(ptr, 0x20), timestamp()) */\n      mstore\n        /* \"security/EncryptionManager.sol\":2193:2200  entropy */\n      dup4\n        /* \"security/EncryptionManager.sol\":2186:2190  0x40 */\n      0x40\n        /* \"security/EncryptionManager.sol\":2181:2184  ptr */\n      dup3\n        /* \"security/EncryptionManager.sol\":2177:2191  add(ptr, 0x40) */\n      add\n        /* \"security/EncryptionManager.sol\":2170:2201  mstore(add(ptr, 0x40), entropy) */\n      mstore\n        /* \"security/EncryptionManager.sol\":2253:2257  0x60 */\n      0x60\n        /* \"security/EncryptionManager.sol\":2248:2251  ptr */\n      dup2\n        /* \"security/EncryptionManager.sol\":2238:2258  keccak256(ptr, 0x60) */\n      keccak256\n        /* \"security/EncryptionManager.sol\":2227:2258  keyHash := keccak256(ptr, 0x60) */\n      swap3\n      pop\n        /* \"security/EncryptionManager.sol\":2298:2305  entropy */\n      dup4\n        /* \"security/EncryptionManager.sol\":2289:2296  keyHash */\n      dup4\n        /* \"security/EncryptionManager.sol\":2285:2306  xor(keyHash, entropy) */\n      xor\n        /* \"security/EncryptionManager.sol\":2271:2306  publicPart := xor(keyHash, entropy) */\n      swap2\n      pop\n        /* \"security/EncryptionManager.sol\":2372:2373  0 */\n      0x00\n        /* \"security/EncryptionManager.sol\":2367:2370  ptr */\n      dup2\n        /* \"security/EncryptionManager.sol\":2360:2374  mstore(ptr, 0) */\n      mstore\n        /* \"security/EncryptionManager.sol\":1977:2384  {... */\n      pop\n        /* \"security/EncryptionManager.sol\":2443:2616  KeyMetadata({... */\n      mload(0x40)\n      dup1\n      0x80\n      add\n      0x40\n      mstore\n      dup1\n        /* \"security/EncryptionManager.sol\":2483:2498  block.timestamp */\n      timestamp\n        /* \"security/EncryptionManager.sol\":2443:2616  KeyMetadata({... */\n      dup2\n      mstore\n      0x20\n      add\n        /* \"security/EncryptionManager.sol\":2530:2545  block.timestamp */\n      timestamp\n        /* \"security/EncryptionManager.sol\":2443:2616  KeyMetadata({... */\n      dup2\n      mstore\n      0x20\n      add\n        /* \"security/EncryptionManager.sol\":608:609  1 */\n      0x01\n        /* \"security/EncryptionManager.sol\":2443:2616  KeyMetadata({... */\n      0xff\n      and\n      dup2\n      mstore\n      0x20\n      add\n        /* \"security/EncryptionManager.sol\":2604:2605  0 */\n      0x00\n        /* \"security/EncryptionManager.sol\":2443:2616  KeyMetadata({... */\n      dup2\n      mstore\n      pop\n        /* \"security/EncryptionManager.sol\":2420:2431  keyMetadata */\n      0x04\n        /* \"security/EncryptionManager.sol\":2420:2440  keyMetadata[keyHash] */\n      0x00\n        /* \"security/EncryptionManager.sol\":2432:2439  keyHash */\n      dup5\n        /* \"security/EncryptionManager.sol\":2420:2440  keyMetadata[keyHash] */\n      dup2\n      mstore\n      0x20\n      add\n      swap1\n      dup2\n      mstore\n      0x20\n      add\n      0x00\n      keccak256\n        /* \"security/EncryptionManager.sol\":2420:2616  keyMetadata[keyHash] = KeyMetadata({... */\n      0x00\n      dup3\n      add\n      mload\n      dup2\n      0x00\n      add\n      sstore\n      0x20\n      dup3\n      add\n      mload\n      dup2\n      0x01\n      add\n      sstore\n      0x40\n      dup3\n      add\n      mload\n      dup2\n      0x02\n      add\n      exp(0x0100, 0x00)\n      dup2\n      sload\n      dup2\n      0xff\n      mul\n      not\n      and\n      swap1\n      dup4\n      0xff\n      and\n      mul\n      or\n      swap1\n      sstore\n      pop\n      0x60\n      dup3\n      add\n      mload\n      dup2\n      0x03\n      add\n      sstore\n      swap1\n      pop\n      pop\n        /* \"security/EncryptionManager.sol\":2681:2691  publicPart */\n      dup1\n        /* \"security/EncryptionManager.sol\":2664:2679  block.timestamp */\n      timestamp\n        /* \"security/EncryptionManager.sol\":2655:2662  keyHash */\n      dup4\n        /* \"security/EncryptionManager.sol\":2632:2692  EncryptionKeyGenerated(keyHash, block.timestamp, publicPart) */\n      0x572a41427584651b729afc9b0b065bb53579c8bbc6e033fb32b22af27c804530\n      mload(0x40)\n      mload(0x40)\n      dup1\n      swap2\n      sub\n      swap1\n      log4\n        /* \"@openzeppelin/contracts/utils/ReentrancyGuard.sol\":2542:2562  _nonReentrantAfter() */\n      tag_83\n        /* \"@openzeppelin/contracts/utils/ReentrancyGuard.sol\":2542:2560  _nonReentrantAfter */\n      tag_72\n        /* \"@openzeppelin/contracts/utils/ReentrancyGuard.sol\":2542:2562  _nonReentrantAfter() */\n      jump\t// in\n    tag_83:\n        /* \"security/EncryptionManager.sol\":1747:2737  function generateEncryptionKey(... */\n      swap2\n      pop\n      swap2\n      jump\t// out\n        /* \"security/EncryptionManager.sol\":5543:5608  function unpause() external onlyOwner {... */\n    tag_26:\n        /* \"@openzeppelin/contracts/access/Ownable.sol\":1531:1544  _checkOwner() */\n      tag_85\n        /* \"@openzeppelin/contracts/access/Ownable.sol\":1531:1542  _checkOwner */\n      tag_64\n        /* \"@openzeppelin/contracts/access/Ownable.sol\":1531:1544  _checkOwner() */\n      jump\t// in\n    tag_85:\n        /* \"security/EncryptionManager.sol\":5591:5601  _unpause() */\n      tag_87\n        /* \"security/EncryptionManager.sol\":5591:5599  _unpause */\n      tag_88\n        /* \"security/EncryptionManager.sol\":5591:5601  _unpause() */\n      jump\t// in\n    tag_87:\n        /* \"security/EncryptionManager.sol\":5543:5608  function unpause() external onlyOwner {... */\n      jump\t// out\n        /* \"security/EncryptionManager.sol\":2795:3352  function storeEncryptionKey(... */\n    tag_30:\n        /* \"@openzeppelin/contracts/utils/ReentrancyGuard.sol\":2500:2521  _nonReentrantBefore() */\n      tag_90\n        /* \"@openzeppelin/contracts/utils/ReentrancyGuard.sol\":2500:2519  _nonReentrantBefore */\n      tag_58\n        /* \"@openzeppelin/contracts/utils/ReentrancyGuard.sol\":2500:2521  _nonReentrantBefore() */\n      jump\t// in\n    tag_90:\n        /* \"@openzeppelin/contracts/utils/Pausable.sol\":1474:1493  _requireNotPaused() */\n      tag_92\n        /* \"@openzeppelin/contracts/utils/Pausable.sol\":1474:1491  _requireNotPaused */\n      tag_61\n        /* \"@openzeppelin/contracts/utils/Pausable.sol\":1474:1493  _requireNotPaused() */\n      jump\t// in\n    tag_92:\n        /* \"@openzeppelin/contracts/access/Ownable.sol\":1531:1544  _checkOwner() */\n      tag_94\n        /* \"@openzeppelin/contracts/access/Ownable.sol\":1531:1542  _checkOwner */\n      tag_64\n        /* \"@openzeppelin/contracts/access/Ownable.sol\":1531:1544  _checkOwner() */\n      jump\t// in\n    tag_94:\n        /* \"security/EncryptionManager.sol\":2967:2968  0 */\n      0x00\n        /* \"security/EncryptionManager.sol\":2959:2969  bytes32(0) */\n      dup1\n      shl\n        /* \"security/EncryptionManager.sol\":2948:2955  keyHash */\n      dup3\n        /* \"security/EncryptionManager.sol\":2948:2969  keyHash != bytes32(0) */\n      sub\n        /* \"security/EncryptionManager.sol\":2940:2990  require(keyHash != bytes32(0), \"Invalid key hash\") */\n      tag_96\n      jumpi\n      mload(0x40)\n      0x08c379a000000000000000000000000000000000000000000000000000000000\n      dup2\n      mstore\n      0x04\n      add\n      tag_97\n      swap1\n      tag_98\n      jump\t// in\n    tag_97:\n      mload(0x40)\n      dup1\n      swap2\n      sub\n      swap1\n      revert\n    tag_96:\n        /* \"security/EncryptionManager.sol\":3032:3033  0 */\n      0x00\n        /* \"security/EncryptionManager.sol\":3024:3034  bytes32(0) */\n      dup1\n      shl\n        /* \"security/EncryptionManager.sol\":3008:3020  encryptedKey */\n      dup2\n        /* \"security/EncryptionManager.sol\":3008:3034  encryptedKey != bytes32(0) */\n      sub\n        /* \"security/EncryptionManager.sol\":3000:3060  require(encryptedKey != bytes32(0), \"Invalid encrypted key\") */\n      tag_99\n      jumpi\n      mload(0x40)\n      0x08c379a000000000000000000000000000000000000000000000000000000000\n      dup2\n      mstore\n      0x04\n      add\n      tag_100\n      swap1\n      tag_101\n      jump\t// in\n    tag_100:\n      mload(0x40)\n      dup1\n      swap2\n      sub\n      swap1\n      revert\n    tag_99:\n        /* \"security/EncryptionManager.sol\":3112:3113  0 */\n      0x00\n        /* \"security/EncryptionManager.sol\":3104:3114  bytes32(0) */\n      dup1\n      shl\n        /* \"security/EncryptionManager.sol\":3078:3091  encryptedKeys */\n      0x03\n        /* \"security/EncryptionManager.sol\":3078:3100  encryptedKeys[keyHash] */\n      0x00\n        /* \"security/EncryptionManager.sol\":3092:3099  keyHash */\n      dup5\n        /* \"security/EncryptionManager.sol\":3078:3100  encryptedKeys[keyHash] */\n      dup2\n      mstore\n      0x20\n      add\n      swap1\n      dup2\n      mstore\n      0x20\n      add\n      0x00\n      keccak256\n      sload\n        /* \"security/EncryptionManager.sol\":3078:3114  encryptedKeys[keyHash] == bytes32(0) */\n      eq\n        /* \"security/EncryptionManager.sol\":3070:3137  require(encryptedKeys[keyHash] == bytes32(0), \"Key already exists\") */\n      tag_102\n      jumpi\n      mload(0x40)\n      0x08c379a000000000000000000000000000000000000000000000000000000000\n      dup2\n      mstore\n      0x04\n      add\n      tag_103\n      swap1\n      tag_104\n      jump\t// in\n    tag_103:\n      mload(0x40)\n      dup1\n      swap2\n      sub\n      swap1\n      revert\n    tag_102:\n        /* \"security/EncryptionManager.sol\":3173:3185  encryptedKey */\n      dup1\n        /* \"security/EncryptionManager.sol\":3148:3161  encryptedKeys */\n      0x03\n        /* \"security/EncryptionManager.sol\":3148:3170  encryptedKeys[keyHash] */\n      0x00\n        /* \"security/EncryptionManager.sol\":3162:3169  keyHash */\n      dup5\n        /* \"security/EncryptionManager.sol\":3148:3170  encryptedKeys[keyHash] */\n      dup2\n      mstore\n      0x20\n      add\n      swap1\n      dup2\n      mstore\n      0x20\n      add\n      0x00\n      keccak256\n        /* \"security/EncryptionManager.sol\":3148:3185  encryptedKeys[keyHash] = encryptedKey */\n      dup2\n      swap1\n      sstore\n      pop\n        /* \"security/EncryptionManager.sol\":3204:3232  KeyMetadata storage metadata */\n      0x00\n        /* \"security/EncryptionManager.sol\":3235:3246  keyMetadata */\n      0x04\n        /* \"security/EncryptionManager.sol\":3235:3255  keyMetadata[keyHash] */\n      0x00\n        /* \"security/EncryptionManager.sol\":3247:3254  keyHash */\n      dup5\n        /* \"security/EncryptionManager.sol\":3235:3255  keyMetadata[keyHash] */\n      dup2\n      mstore\n      0x20\n      add\n      swap1\n      dup2\n      mstore\n      0x20\n      add\n      0x00\n      keccak256\n        /* \"security/EncryptionManager.sol\":3204:3255  KeyMetadata storage metadata = keyMetadata[keyHash] */\n      swap1\n      pop\n        /* \"security/EncryptionManager.sol\":3265:3273  metadata */\n      dup1\n        /* \"security/EncryptionManager.sol\":3265:3282  metadata.useCount */\n      0x03\n      add\n      0x00\n        /* \"security/EncryptionManager.sol\":3265:3284  metadata.useCount++ */\n      dup2\n      sload\n      dup1\n      swap3\n      swap2\n      swap1\n      tag_105\n      swap1\n      tag_106\n      jump\t// in\n    tag_105:\n      swap2\n      swap1\n      pop\n      sstore\n      pop\n        /* \"security/EncryptionManager.sol\":3329:3344  block.timestamp */\n      timestamp\n        /* \"security/EncryptionManager.sol\":3320:3327  keyHash */\n      dup4\n        /* \"security/EncryptionManager.sol\":3300:3345  EncryptionKeyStored(keyHash, block.timestamp) */\n      0x57cfca58694e398cde583500605e6ac971fae6d88265aee6ed6d0a4a30ab8aa3\n      mload(0x40)\n      mload(0x40)\n      dup1\n      swap2\n      sub\n      swap1\n      log3\n        /* \"security/EncryptionManager.sol\":2930:3352  {... */\n      pop\n        /* \"@openzeppelin/contracts/utils/ReentrancyGuard.sol\":2542:2562  _nonReentrantAfter() */\n      tag_107\n        /* \"@openzeppelin/contracts/utils/ReentrancyGuard.sol\":2542:2560  _nonReentrantAfter */\n      tag_72\n        /* \"@openzeppelin/contracts/utils/ReentrancyGuard.sol\":2542:2562  _nonReentrantAfter() */\n      jump\t// in\n    tag_107:\n        /* \"security/EncryptionManager.sol\":2795:3352  function storeEncryptionKey(... */\n      pop\n      pop\n      jump\t// out\n        /* \"@openzeppelin/contracts/utils/Pausable.sol\":1850:1934  function paused() public view virtual returns (bool) {... */\n    tag_32:\n        /* \"@openzeppelin/contracts/utils/Pausable.sol\":1897:1901  bool */\n      0x00\n        /* \"@openzeppelin/contracts/utils/Pausable.sol\":1920:1927  _paused */\n      0x02\n      0x00\n      swap1\n      sload\n      swap1\n      0x0100\n      exp\n      swap1\n      div\n      0xff\n      and\n        /* \"@openzeppelin/contracts/utils/Pausable.sol\":1913:1927  return _paused */\n      swap1\n      pop\n        /* \"@openzeppelin/contracts/utils/Pausable.sol\":1850:1934  function paused() public view virtual returns (bool) {... */\n      swap1\n      jump\t// out\n        /* \"@openzeppelin/contracts/access/Ownable.sol\":2293:2394  function renounceOwnership() public virtual onlyOwner {... */\n    tag_36:\n        /* \"@openzeppelin/contracts/access/Ownable.sol\":1531:1544  _checkOwner() */\n      tag_110\n        /* \"@openzeppelin/contracts/access/Ownable.sol\":1531:1542  _checkOwner */\n      tag_64\n        /* \"@openzeppelin/contracts/access/Ownable.sol\":1531:1544  _checkOwner() */\n      jump\t// in\n    tag_110:\n        /* \"@openzeppelin/contracts/access/Ownable.sol\":2357:2387  _transferOwnership(address(0)) */\n      tag_112\n        /* \"@openzeppelin/contracts/access/Ownable.sol\":2384:2385  0 */\n      0x00\n        /* \"@openzeppelin/contracts/access/Ownable.sol\":2357:2375  _transferOwnership */\n      tag_113\n        /* \"@openzeppelin/contracts/access/Ownable.sol\":2357:2387  _transferOwnership(address(0)) */\n      jump\t// in\n    tag_112:\n        /* \"@openzeppelin/contracts/access/Ownable.sol\":2293:2394  function renounceOwnership() public virtual onlyOwner {... */\n      jump\t// out\n        /* \"security/EncryptionManager.sol\":5476:5537  function pause() external onlyOwner {... */\n    tag_38:\n        /* \"@openzeppelin/contracts/access/Ownable.sol\":1531:1544  _checkOwner() */\n      tag_115\n        /* \"@openzeppelin/contracts/access/Ownable.sol\":1531:1542  _checkOwner */\n      tag_64\n        /* \"@openzeppelin/contracts/access/Ownable.sol\":1531:1544  _checkOwner() */\n      jump\t// in\n    tag_115:\n        /* \"security/EncryptionManager.sol\":5522:5530  _pause() */\n      tag_117\n        /* \"security/EncryptionManager.sol\":5522:5528  _pause */\n      tag_118\n        /* \"security/EncryptionManager.sol\":5522:5530  _pause() */\n      jump\t// in\n    tag_117:\n        /* \"security/EncryptionManager.sol\":5476:5537  function pause() external onlyOwner {... */\n      jump\t// out\n        /* \"security/EncryptionManager.sol\":3438:4472  function rotateEncryptionKey(... */\n    tag_42:\n        /* \"@openzeppelin/contracts/utils/ReentrancyGuard.sol\":2500:2521  _nonReentrantBefore() */\n      tag_120\n        /* \"@openzeppelin/contracts/utils/ReentrancyGuard.sol\":2500:2519  _nonReentrantBefore */\n      tag_58\n        /* \"@openzeppelin/contracts/utils/ReentrancyGuard.sol\":2500:2521  _nonReentrantBefore() */\n      jump\t// in\n    tag_120:\n        /* \"@openzeppelin/contracts/utils/Pausable.sol\":1474:1493  _requireNotPaused() */\n      tag_122\n        /* \"@openzeppelin/contracts/utils/Pausable.sol\":1474:1491  _requireNotPaused */\n      tag_61\n        /* \"@openzeppelin/contracts/utils/Pausable.sol\":1474:1493  _requireNotPaused() */\n      jump\t// in\n    tag_122:\n        /* \"@openzeppelin/contracts/access/Ownable.sol\":1531:1544  _checkOwner() */\n      tag_124\n        /* \"@openzeppelin/contracts/access/Ownable.sol\":1531:1542  _checkOwner */\n      tag_64\n        /* \"@openzeppelin/contracts/access/Ownable.sol\":1531:1544  _checkOwner() */\n      jump\t// in\n    tag_124:\n        /* \"security/EncryptionManager.sol\":3618:3649  KeyMetadata storage oldMetadata */\n      0x00\n        /* \"security/EncryptionManager.sol\":3652:3663  keyMetadata */\n      0x04\n        /* \"security/EncryptionManager.sol\":3652:3675  keyMetadata[oldKeyHash] */\n      0x00\n        /* \"security/EncryptionManager.sol\":3664:3674  oldKeyHash */\n      dup6\n        /* \"security/EncryptionManager.sol\":3652:3675  keyMetadata[oldKeyHash] */\n      dup2\n      mstore\n      0x20\n      add\n      swap1\n      dup2\n      mstore\n      0x20\n      add\n      0x00\n      keccak256\n        /* \"security/EncryptionManager.sol\":3618:3675  KeyMetadata storage oldMetadata = keyMetadata[oldKeyHash] */\n      swap1\n      pop\n        /* \"security/EncryptionManager.sol\":608:609  1 */\n      0x01\n        /* \"security/EncryptionManager.sol\":3693:3728  oldMetadata.status == STATUS_ACTIVE */\n      0xff\n      and\n        /* \"security/EncryptionManager.sol\":3693:3704  oldMetadata */\n      dup2\n        /* \"security/EncryptionManager.sol\":3693:3711  oldMetadata.status */\n      0x02\n      add\n      0x00\n      swap1\n      sload\n      swap1\n      0x0100\n      exp\n      swap1\n      div\n      0xff\n      and\n        /* \"security/EncryptionManager.sol\":3693:3728  oldMetadata.status == STATUS_ACTIVE */\n      0xff\n      and\n      eq\n        /* \"security/EncryptionManager.sol\":3685:3748  require(oldMetadata.status == STATUS_ACTIVE, \"Invalid old key\") */\n      tag_126\n      jumpi\n      mload(0x40)\n      0x08c379a000000000000000000000000000000000000000000000000000000000\n      dup2\n      mstore\n      0x04\n      add\n      tag_127\n      swap1\n      tag_128\n      jump\t// in\n    tag_127:\n      mload(0x40)\n      dup1\n      swap2\n      sub\n      swap1\n      revert\n    tag_126:\n        /* \"security/EncryptionManager.sol\":773:781  24 hours */\n      0x015180\n        /* \"security/EncryptionManager.sol\":3798:3809  oldMetadata */\n      dup2\n        /* \"security/EncryptionManager.sol\":3798:3826  oldMetadata.lastRotationTime */\n      0x01\n      add\n      sload\n        /* \"security/EncryptionManager.sol\":3798:3856  oldMetadata.lastRotationTime + KEY_ROTATION_COOLING_PERIOD */\n      tag_129\n      swap2\n      swap1\n      tag_130\n      jump\t// in\n    tag_129:\n        /* \"security/EncryptionManager.sol\":3779:3794  block.timestamp */\n      timestamp\n        /* \"security/EncryptionManager.sol\":3779:3856  block.timestamp >= oldMetadata.lastRotationTime + KEY_ROTATION_COOLING_PERIOD */\n      lt\n      iszero\n        /* \"security/EncryptionManager.sol\":3758:3903  require(... */\n      tag_131\n      jumpi\n      mload(0x40)\n      0x08c379a000000000000000000000000000000000000000000000000000000000\n      dup2\n      mstore\n      0x04\n      add\n      tag_132\n      swap1\n      tag_133\n      jump\t// in\n    tag_132:\n      mload(0x40)\n      dup1\n      swap2\n      sub\n      swap1\n      revert\n    tag_131:\n        /* \"security/EncryptionManager.sol\":3958:3959  0 */\n      0x00\n        /* \"security/EncryptionManager.sol\":3950:3960  bytes32(0) */\n      dup1\n      shl\n        /* \"security/EncryptionManager.sol\":3921:3934  encryptedKeys */\n      0x03\n        /* \"security/EncryptionManager.sol\":3921:3946  encryptedKeys[newKeyHash] */\n      0x00\n        /* \"security/EncryptionManager.sol\":3935:3945  newKeyHash */\n      dup6\n        /* \"security/EncryptionManager.sol\":3921:3946  encryptedKeys[newKeyHash] */\n      dup2\n      mstore\n      0x20\n      add\n      swap1\n      dup2\n      mstore\n      0x20\n      add\n      0x00\n      keccak256\n      sload\n        /* \"security/EncryptionManager.sol\":3921:3960  encryptedKeys[newKeyHash] == bytes32(0) */\n      eq\n        /* \"security/EncryptionManager.sol\":3913:3987  require(encryptedKeys[newKeyHash] == bytes32(0), \"New key already exists\") */\n      tag_134\n      jumpi\n      mload(0x40)\n      0x08c379a000000000000000000000000000000000000000000000000000000000\n      dup2\n      mstore\n      0x04\n      add\n      tag_135\n      swap1\n      tag_136\n      jump\t// in\n    tag_135:\n      mload(0x40)\n      dup1\n      swap2\n      sub\n      swap1\n      revert\n    tag_134:\n        /* \"security/EncryptionManager.sol\":4028:4041  encryptedKeys */\n      0x03\n        /* \"security/EncryptionManager.sol\":4028:4053  encryptedKeys[oldKeyHash] */\n      0x00\n        /* \"security/EncryptionManager.sol\":4042:4052  oldKeyHash */\n      dup6\n        /* \"security/EncryptionManager.sol\":4028:4053  encryptedKeys[oldKeyHash] */\n      dup2\n      mstore\n      0x20\n      add\n      swap1\n      dup2\n      mstore\n      0x20\n      add\n      0x00\n      keccak256\n        /* \"security/EncryptionManager.sol\":4021:4053  delete encryptedKeys[oldKeyHash] */\n      0x00\n      swap1\n      sstore\n        /* \"security/EncryptionManager.sol\":4091:4106  newEncryptedKey */\n      dup2\n        /* \"security/EncryptionManager.sol\":4063:4076  encryptedKeys */\n      0x03\n        /* \"security/EncryptionManager.sol\":4063:4088  encryptedKeys[newKeyHash] */\n      0x00\n        /* \"security/EncryptionManager.sol\":4077:4087  newKeyHash */\n      dup6\n        /* \"security/EncryptionManager.sol\":4063:4088  encryptedKeys[newKeyHash] */\n      dup2\n      mstore\n      0x20\n      add\n      swap1\n      dup2\n      mstore\n      0x20\n      add\n      0x00\n      keccak256\n        /* \"security/EncryptionManager.sol\":4063:4106  encryptedKeys[newKeyHash] = newEncryptedKey */\n      dup2\n      swap1\n      sstore\n      pop\n        /* \"security/EncryptionManager.sol\":655:656  2 */\n      0x02\n        /* \"security/EncryptionManager.sol\":4144:4155  oldMetadata */\n      dup2\n        /* \"security/EncryptionManager.sol\":4144:4162  oldMetadata.status */\n      0x02\n      add\n      0x00\n        /* \"security/EncryptionManager.sol\":4144:4179  oldMetadata.status = STATUS_REVOKED */\n      0x0100\n      exp\n      dup2\n      sload\n      dup2\n      0xff\n      mul\n      not\n      and\n      swap1\n      dup4\n      0xff\n      and\n      mul\n      or\n      swap1\n      sstore\n      pop\n        /* \"security/EncryptionManager.sol\":4215:4388  KeyMetadata({... */\n      mload(0x40)\n      dup1\n      0x80\n      add\n      0x40\n      mstore\n      dup1\n        /* \"security/EncryptionManager.sol\":4255:4270  block.timestamp */\n      timestamp\n        /* \"security/EncryptionManager.sol\":4215:4388  KeyMetadata({... */\n      dup2\n      mstore\n      0x20\n      add\n        /* \"security/EncryptionManager.sol\":4302:4317  block.timestamp */\n      timestamp\n        /* \"security/EncryptionManager.sol\":4215:4388  KeyMetadata({... */\n      dup2\n      mstore\n      0x20\n      add\n        /* \"security/EncryptionManager.sol\":608:609  1 */\n      0x01\n        /* \"security/EncryptionManager.sol\":4215:4388  KeyMetadata({... */\n      0xff\n      and\n      dup2\n      mstore\n      0x20\n      add\n        /* \"security/EncryptionManager.sol\":4376:4377  0 */\n      0x00\n        /* \"security/EncryptionManager.sol\":4215:4388  KeyMetadata({... */\n      dup2\n      mstore\n      pop\n        /* \"security/EncryptionManager.sol\":4189:4200  keyMetadata */\n      0x04\n        /* \"security/EncryptionManager.sol\":4189:4212  keyMetadata[newKeyHash] */\n      0x00\n        /* \"security/EncryptionManager.sol\":4201:4211  newKeyHash */\n      dup6\n        /* \"security/EncryptionManager.sol\":4189:4212  keyMetadata[newKeyHash] */\n      dup2\n      mstore\n      0x20\n      add\n      swap1\n      dup2\n      mstore\n      0x20\n      add\n      0x00\n      keccak256\n        /* \"security/EncryptionManager.sol\":4189:4388  keyMetadata[newKeyHash] = KeyMetadata({... */\n      0x00\n      dup3\n      add\n      mload\n      dup2\n      0x00\n      add\n      sstore\n      0x20\n      dup3\n      add\n      mload\n      dup2\n      0x01\n      add\n      sstore\n      0x40\n      dup3\n      add\n      mload\n      dup2\n      0x02\n      add\n      exp(0x0100, 0x00)\n      dup2\n      sload\n      dup2\n      0xff\n      mul\n      not\n      and\n      swap1\n      dup4\n      0xff\n      and\n      mul\n      or\n      swap1\n      sstore\n      pop\n      0x60\n      dup3\n      add\n      mload\n      dup2\n      0x03\n      add\n      sstore\n      swap1\n      pop\n      pop\n        /* \"security/EncryptionManager.sol\":4449:4464  block.timestamp */\n      timestamp\n        /* \"security/EncryptionManager.sol\":4437:4447  newKeyHash */\n      dup4\n        /* \"security/EncryptionManager.sol\":4425:4435  oldKeyHash */\n      dup6\n        /* \"security/EncryptionManager.sol\":4404:4465  EncryptionKeyRotated(oldKeyHash, newKeyHash, block.timestamp) */\n      0x65ebf7759f441872e87e3400742a736999a7810c122562d126a98376e8eeda9c\n      mload(0x40)\n      mload(0x40)\n      dup1\n      swap2\n      sub\n      swap1\n      log4\n        /* \"security/EncryptionManager.sol\":3608:4472  {... */\n      pop\n        /* \"@openzeppelin/contracts/utils/ReentrancyGuard.sol\":2542:2562  _nonReentrantAfter() */\n      tag_137\n        /* \"@openzeppelin/contracts/utils/ReentrancyGuard.sol\":2542:2560  _nonReentrantAfter */\n      tag_72\n        /* \"@openzeppelin/contracts/utils/ReentrancyGuard.sol\":2542:2562  _nonReentrantAfter() */\n      jump\t// in\n    tag_137:\n        /* \"security/EncryptionManager.sol\":3438:4472  function rotateEncryptionKey(... */\n      pop\n      pop\n      pop\n      jump\t// out\n        /* \"@openzeppelin/contracts/access/Ownable.sol\":1638:1723  function owner() public view virtual returns (address) {... */\n    tag_44:\n        /* \"@openzeppelin/contracts/access/Ownable.sol\":1684:1691  address */\n      0x00\n        /* \"@openzeppelin/contracts/access/Ownable.sol\":1710:1716  _owner */\n      dup1\n      0x00\n      swap1\n      sload\n      swap1\n      0x0100\n      exp\n      swap1\n      div\n      0xffffffffffffffffffffffffffffffffffffffff\n      and\n        /* \"@openzeppelin/contracts/access/Ownable.sol\":1703:1716  return _owner */\n      swap1\n      pop\n        /* \"@openzeppelin/contracts/access/Ownable.sol\":1638:1723  function owner() public view virtual returns (address) {... */\n      swap1\n      jump\t// out\n        /* \"security/EncryptionManager.sol\":4554:4944  function getEncryptionKey(... */\n    tag_49:\n        /* \"security/EncryptionManager.sol\":4658:4678  bytes32 encryptedKey */\n      0x00\n        /* \"security/EncryptionManager.sol\":4680:4707  KeyMetadata memory metadata */\n      tag_139\n      tag_140\n      jump\t// in\n    tag_139:\n        /* \"@openzeppelin/contracts/utils/Pausable.sol\":1474:1493  _requireNotPaused() */\n      tag_142\n        /* \"@openzeppelin/contracts/utils/Pausable.sol\":1474:1491  _requireNotPaused */\n      tag_61\n        /* \"@openzeppelin/contracts/utils/Pausable.sol\":1474:1493  _requireNotPaused() */\n      jump\t// in\n    tag_142:\n        /* \"@openzeppelin/contracts/access/Ownable.sol\":1531:1544  _checkOwner() */\n      tag_144\n        /* \"@openzeppelin/contracts/access/Ownable.sol\":1531:1542  _checkOwner */\n      tag_64\n        /* \"@openzeppelin/contracts/access/Ownable.sol\":1531:1544  _checkOwner() */\n      jump\t// in\n    tag_144:\n        /* \"security/EncryptionManager.sol\":4730:4741  keyMetadata */\n      0x04\n        /* \"security/EncryptionManager.sol\":4730:4750  keyMetadata[keyHash] */\n      0x00\n        /* \"security/EncryptionManager.sol\":4742:4749  keyHash */\n      dup5\n        /* \"security/EncryptionManager.sol\":4730:4750  keyMetadata[keyHash] */\n      dup2\n      mstore\n      0x20\n      add\n      swap1\n      dup2\n      mstore\n      0x20\n      add\n      0x00\n      keccak256\n        /* \"security/EncryptionManager.sol\":4719:4750  metadata = keyMetadata[keyHash] */\n      mload(0x40)\n      dup1\n      0x80\n      add\n      0x40\n      mstore\n      swap1\n      dup2\n      0x00\n      dup3\n      add\n      sload\n      dup2\n      mstore\n      0x20\n      add\n      0x01\n      dup3\n      add\n      sload\n      dup2\n      mstore\n      0x20\n      add\n      0x02\n      dup3\n      add\n      0x00\n      swap1\n      sload\n      swap1\n      0x0100\n      exp\n      swap1\n      div\n      0xff\n      and\n      0xff\n      and\n      0xff\n      and\n      dup2\n      mstore\n      0x20\n      add\n      0x03\n      dup3\n      add\n      sload\n      dup2\n      mstore\n      pop\n      pop\n      swap1\n      pop\n        /* \"security/EncryptionManager.sol\":608:609  1 */\n      0x01\n        /* \"security/EncryptionManager.sol\":4768:4800  metadata.status == STATUS_ACTIVE */\n      0xff\n      and\n        /* \"security/EncryptionManager.sol\":4768:4776  metadata */\n      dup2\n        /* \"security/EncryptionManager.sol\":4768:4783  metadata.status */\n      0x40\n      add\n      mload\n        /* \"security/EncryptionManager.sol\":4768:4800  metadata.status == STATUS_ACTIVE */\n      0xff\n      and\n      eq\n        /* \"security/EncryptionManager.sol\":4760:4819  require(metadata.status == STATUS_ACTIVE, \"Key not active\") */\n      tag_146\n      jumpi\n      mload(0x40)\n      0x08c379a000000000000000000000000000000000000000000000000000000000\n      dup2\n      mstore\n      0x04\n      add\n      tag_147\n      swap1\n      tag_68\n      jump\t// in\n    tag_147:\n      mload(0x40)\n      dup1\n      swap2\n      sub\n      swap1\n      revert\n    tag_146:\n        /* \"security/EncryptionManager.sol\":4853:4866  encryptedKeys */\n      0x03\n        /* \"security/EncryptionManager.sol\":4853:4875  encryptedKeys[keyHash] */\n      0x00\n        /* \"security/EncryptionManager.sol\":4867:4874  keyHash */\n      dup5\n        /* \"security/EncryptionManager.sol\":4853:4875  encryptedKeys[keyHash] */\n      dup2\n      mstore\n      0x20\n      add\n      swap1\n      dup2\n      mstore\n      0x20\n      add\n      0x00\n      keccak256\n      sload\n        /* \"security/EncryptionManager.sol\":4838:4875  encryptedKey = encryptedKeys[keyHash] */\n      swap2\n      pop\n        /* \"security/EncryptionManager.sol\":4917:4918  0 */\n      0x00\n        /* \"security/EncryptionManager.sol\":4909:4919  bytes32(0) */\n      dup1\n      shl\n        /* \"security/EncryptionManager.sol\":4893:4905  encryptedKey */\n      dup3\n        /* \"security/EncryptionManager.sol\":4893:4919  encryptedKey != bytes32(0) */\n      sub\n        /* \"security/EncryptionManager.sol\":4885:4937  require(encryptedKey != bytes32(0), \"Key not found\") */\n      tag_148\n      jumpi\n      mload(0x40)\n      0x08c379a000000000000000000000000000000000000000000000000000000000\n      dup2\n      mstore\n      0x04\n      add\n      tag_149\n      swap1\n      tag_150\n      jump\t// in\n    tag_149:\n      mload(0x40)\n      dup1\n      swap2\n      sub\n      swap1\n      revert\n    tag_148:\n        /* \"security/EncryptionManager.sol\":4554:4944  function getEncryptionKey(... */\n      swap2\n      pop\n      swap2\n      jump\t// out\n        /* \"@openzeppelin/contracts/access/Ownable.sol\":2543:2758  function transferOwnership(address newOwner) public virtual onlyOwner {... */\n    tag_55:\n        /* \"@openzeppelin/contracts/access/Ownable.sol\":1531:1544  _checkOwner() */\n      tag_152\n        /* \"@openzeppelin/contracts/access/Ownable.sol\":1531:1542  _checkOwner */\n      tag_64\n        /* \"@openzeppelin/contracts/access/Ownable.sol\":1531:1544  _checkOwner() */\n      jump\t// in\n    tag_152:\n        /* \"@openzeppelin/contracts/access/Ownable.sol\":2647:2648  0 */\n      0x00\n        /* \"@openzeppelin/contracts/access/Ownable.sol\":2627:2649  newOwner == address(0) */\n      0xffffffffffffffffffffffffffffffffffffffff\n      and\n        /* \"@openzeppelin/contracts/access/Ownable.sol\":2627:2635  newOwner */\n      dup2\n        /* \"@openzeppelin/contracts/access/Ownable.sol\":2627:2649  newOwner == address(0) */\n      0xffffffffffffffffffffffffffffffffffffffff\n      and\n      sub\n        /* \"@openzeppelin/contracts/access/Ownable.sol\":2623:2714  if (newOwner == address(0)) {... */\n      tag_154\n      jumpi\n        /* \"@openzeppelin/contracts/access/Ownable.sol\":2700:2701  0 */\n      0x00\n        /* \"@openzeppelin/contracts/access/Ownable.sol\":2672:2703  OwnableInvalidOwner(address(0)) */\n      mload(0x40)\n      0x1e4fbdf700000000000000000000000000000000000000000000000000000000\n      dup2\n      mstore\n      0x04\n      add\n      tag_155\n      swap2\n      swap1\n      tag_46\n      jump\t// in\n    tag_155:\n      mload(0x40)\n      dup1\n      swap2\n      sub\n      swap1\n      revert\n        /* \"@openzeppelin/contracts/access/Ownable.sol\":2623:2714  if (newOwner == address(0)) {... */\n    tag_154:\n        /* \"@openzeppelin/contracts/access/Ownable.sol\":2723:2751  _transferOwnership(newOwner) */\n      tag_156\n        /* \"@openzeppelin/contracts/access/Ownable.sol\":2742:2750  newOwner */\n      dup2\n        /* \"@openzeppelin/contracts/access/Ownable.sol\":2723:2741  _transferOwnership */\n      tag_113\n        /* \"@openzeppelin/contracts/access/Ownable.sol\":2723:2751  _transferOwnership(newOwner) */\n      jump\t// in\n    tag_156:\n        /* \"@openzeppelin/contracts/access/Ownable.sol\":2543:2758  function transferOwnership(address newOwner) public virtual onlyOwner {... */\n      pop\n      jump\t// out\n        /* \"@openzeppelin/contracts/utils/ReentrancyGuard.sol\":2575:2882  function _nonReentrantBefore() private {... */\n    tag_58:\n        /* \"@openzeppelin/contracts/utils/ReentrancyGuard.sol\":1899:1900  2 */\n      0x02\n        /* \"@openzeppelin/contracts/utils/ReentrancyGuard.sol\":2702:2709  _status */\n      sload(0x01)\n        /* \"@openzeppelin/contracts/utils/ReentrancyGuard.sol\":2702:2720  _status == ENTERED */\n      sub\n        /* \"@openzeppelin/contracts/utils/ReentrancyGuard.sol\":2698:2784  if (_status == ENTERED) {... */\n      tag_158\n      jumpi\n        /* \"@openzeppelin/contracts/utils/ReentrancyGuard.sol\":2743:2773  ReentrancyGuardReentrantCall() */\n      mload(0x40)\n      0x3ee5aeb500000000000000000000000000000000000000000000000000000000\n      dup2\n      mstore\n      0x04\n      add\n      mload(0x40)\n      dup1\n      swap2\n      sub\n      swap1\n      revert\n        /* \"@openzeppelin/contracts/utils/ReentrancyGuard.sol\":2698:2784  if (_status == ENTERED) {... */\n    tag_158:\n        /* \"@openzeppelin/contracts/utils/ReentrancyGuard.sol\":1899:1900  2 */\n      0x02\n        /* \"@openzeppelin/contracts/utils/ReentrancyGuard.sol\":2858:2865  _status */\n      0x01\n        /* \"@openzeppelin/contracts/utils/ReentrancyGuard.sol\":2858:2875  _status = ENTERED */\n      dup2\n      swap1\n      sstore\n      pop\n        /* \"@openzeppelin/contracts/utils/ReentrancyGuard.sol\":2575:2882  function _nonReentrantBefore() private {... */\n      jump\t// out\n        /* \"@openzeppelin/contracts/utils/Pausable.sol\":2002:2130  function _requireNotPaused() internal view virtual {... */\n    tag_61:\n        /* \"@openzeppelin/contracts/utils/Pausable.sol\":2067:2075  paused() */\n      tag_160\n        /* \"@openzeppelin/contracts/utils/Pausable.sol\":2067:2073  paused */\n      tag_32\n        /* \"@openzeppelin/contracts/utils/Pausable.sol\":2067:2075  paused() */\n      jump\t// in\n    tag_160:\n        /* \"@openzeppelin/contracts/utils/Pausable.sol\":2063:2124  if (paused()) {... */\n      iszero\n      tag_161\n      jumpi\n        /* \"@openzeppelin/contracts/utils/Pausable.sol\":2098:2113  EnforcedPause() */\n      mload(0x40)\n      0xd93c066500000000000000000000000000000000000000000000000000000000\n      dup2\n      mstore\n      0x04\n      add\n      mload(0x40)\n      dup1\n      swap2\n      sub\n      swap1\n      revert\n        /* \"@openzeppelin/contracts/utils/Pausable.sol\":2063:2124  if (paused()) {... */\n    tag_161:\n        /* \"@openzeppelin/contracts/utils/Pausable.sol\":2002:2130  function _requireNotPaused() internal view virtual {... */\n      jump\t// out\n        /* \"@openzeppelin/contracts/access/Ownable.sol\":1796:1958  function _checkOwner() internal view virtual {... */\n    tag_64:\n        /* \"@openzeppelin/contracts/access/Ownable.sol\":1866:1878  _msgSender() */\n      tag_163\n        /* \"@openzeppelin/contracts/access/Ownable.sol\":1866:1876  _msgSender */\n      tag_164\n        /* \"@openzeppelin/contracts/access/Ownable.sol\":1866:1878  _msgSender() */\n      jump\t// in\n    tag_163:\n        /* \"@openzeppelin/contracts/access/Ownable.sol\":1855:1878  owner() != _msgSender() */\n      0xffffffffffffffffffffffffffffffffffffffff\n      and\n        /* \"@openzeppelin/contracts/access/Ownable.sol\":1855:1862  owner() */\n      tag_165\n        /* \"@openzeppelin/contracts/access/Ownable.sol\":1855:1860  owner */\n      tag_44\n        /* \"@openzeppelin/contracts/access/Ownable.sol\":1855:1862  owner() */\n      jump\t// in\n    tag_165:\n        /* \"@openzeppelin/contracts/access/Ownable.sol\":1855:1878  owner() != _msgSender() */\n      0xffffffffffffffffffffffffffffffffffffffff\n      and\n      eq\n        /* \"@openzeppelin/contracts/access/Ownable.sol\":1851:1952  if (owner() != _msgSender()) {... */\n      tag_166\n      jumpi\n        /* \"@openzeppelin/contracts/access/Ownable.sol\":1928:1940  _msgSender() */\n      tag_167\n        /* \"@openzeppelin/contracts/access/Ownable.sol\":1928:1938  _msgSender */\n      tag_164\n        /* \"@openzeppelin/contracts/access/Ownable.sol\":1928:1940  _msgSender() */\n      jump\t// in\n    tag_167:\n        /* \"@openzeppelin/contracts/access/Ownable.sol\":1901:1941  OwnableUnauthorizedAccount(_msgSender()) */\n      mload(0x40)\n      0x118cdaa700000000000000000000000000000000000000000000000000000000\n      dup2\n      mstore\n      0x04\n      add\n      tag_168\n      swap2\n      swap1\n      tag_46\n      jump\t// in\n    tag_168:\n      mload(0x40)\n      dup1\n      swap2\n      sub\n      swap1\n      revert\n        /* \"@openzeppelin/contracts/access/Ownable.sol\":1851:1952  if (owner() != _msgSender()) {... */\n    tag_166:\n        /* \"@openzeppelin/contracts/access/Ownable.sol\":1796:1958  function _checkOwner() internal view virtual {... */\n      jump\t// out\n        /* \"@openzeppelin/contracts/utils/ReentrancyGuard.sol\":2888:3096  function _nonReentrantAfter() private {... */\n    tag_72:\n        /* \"@openzeppelin/contracts/utils/ReentrancyGuard.sol\":1857:1858  1 */\n      0x01\n        /* \"@openzeppelin/contracts/utils/ReentrancyGuard.sol\":3068:3075  _status */\n      dup1\n        /* \"@openzeppelin/contracts/utils/ReentrancyGuard.sol\":3068:3089  _status = NOT_ENTERED */\n      dup2\n      swap1\n      sstore\n      pop\n        /* \"@openzeppelin/contracts/utils/ReentrancyGuard.sol\":2888:3096  function _nonReentrantAfter() private {... */\n      jump\t// out\n        /* \"@openzeppelin/contracts/utils/Pausable.sol\":2710:2827  function _unpause() internal virtual whenPaused {... */\n    tag_88:\n        /* \"@openzeppelin/contracts/utils/Pausable.sol\":1721:1737  _requirePaused() */\n      tag_171\n        /* \"@openzeppelin/contracts/utils/Pausable.sol\":1721:1735  _requirePaused */\n      tag_172\n        /* \"@openzeppelin/contracts/utils/Pausable.sol\":1721:1737  _requirePaused() */\n      jump\t// in\n    tag_171:\n        /* \"@openzeppelin/contracts/utils/Pausable.sol\":2778:2783  false */\n      0x00\n        /* \"@openzeppelin/contracts/utils/Pausable.sol\":2768:2775  _paused */\n      0x02\n      0x00\n        /* \"@openzeppelin/contracts/utils/Pausable.sol\":2768:2783  _paused = false */\n      0x0100\n      exp\n      dup2\n      sload\n      dup2\n      0xff\n      mul\n      not\n      and\n      swap1\n      dup4\n      iszero\n      iszero\n      mul\n      or\n      swap1\n      sstore\n      pop\n        /* \"@openzeppelin/contracts/utils/Pausable.sol\":2798:2820  Unpaused(_msgSender()) */\n      0x5db9ee0a495bf2e6ff9c91a7834c1ba4fdd244a5e8aa4e537bd38aeae4b073aa\n        /* \"@openzeppelin/contracts/utils/Pausable.sol\":2807:2819  _msgSender() */\n      tag_174\n        /* \"@openzeppelin/contracts/utils/Pausable.sol\":2807:2817  _msgSender */\n      tag_164\n        /* \"@openzeppelin/contracts/utils/Pausable.sol\":2807:2819  _msgSender() */\n      jump\t// in\n    tag_174:\n        /* \"@openzeppelin/contracts/utils/Pausable.sol\":2798:2820  Unpaused(_msgSender()) */\n      mload(0x40)\n      tag_175\n      swap2\n      swap1\n      tag_46\n      jump\t// in\n    tag_175:\n      mload(0x40)\n      dup1\n      swap2\n      sub\n      swap1\n      log1\n        /* \"@openzeppelin/contracts/utils/Pausable.sol\":2710:2827  function _unpause() internal virtual whenPaused {... */\n      jump\t// out\n        /* \"@openzeppelin/contracts/access/Ownable.sol\":2912:3099  function _transferOwnership(address newOwner) internal virtual {... */\n    tag_113:\n        /* \"@openzeppelin/contracts/access/Ownable.sol\":2985:3001  address oldOwner */\n      0x00\n        /* \"@openzeppelin/contracts/access/Ownable.sol\":3004:3010  _owner */\n      dup1\n      0x00\n      swap1\n      sload\n      swap1\n      0x0100\n      exp\n      swap1\n      div\n      0xffffffffffffffffffffffffffffffffffffffff\n      and\n        /* \"@openzeppelin/contracts/access/Ownable.sol\":2985:3010  address oldOwner = _owner */\n      swap1\n      pop\n        /* \"@openzeppelin/contracts/access/Ownable.sol\":3029:3037  newOwner */\n      dup2\n        /* \"@openzeppelin/contracts/access/Ownable.sol\":3020:3026  _owner */\n      0x00\n      dup1\n        /* \"@openzeppelin/contracts/access/Ownable.sol\":3020:3037  _owner = newOwner */\n      0x0100\n      exp\n      dup2\n      sload\n      dup2\n      0xffffffffffffffffffffffffffffffffffffffff\n      mul\n      not\n      and\n      swap1\n      dup4\n      0xffffffffffffffffffffffffffffffffffffffff\n      and\n      mul\n      or\n      swap1\n      sstore\n      pop\n        /* \"@openzeppelin/contracts/access/Ownable.sol\":3083:3091  newOwner */\n      dup2\n        /* \"@openzeppelin/contracts/access/Ownable.sol\":3052:3092  OwnershipTransferred(oldOwner, newOwner) */\n      0xffffffffffffffffffffffffffffffffffffffff\n      and\n        /* \"@openzeppelin/contracts/access/Ownable.sol\":3073:3081  oldOwner */\n      dup2\n        /* \"@openzeppelin/contracts/access/Ownable.sol\":3052:3092  OwnershipTransferred(oldOwner, newOwner) */\n      0xffffffffffffffffffffffffffffffffffffffff\n      and\n      0x8be0079c531659141344cd1fd0a4f28419497f9722a3daafe3b4186f6b6457e0\n      mload(0x40)\n      mload(0x40)\n      dup1\n      swap2\n      sub\n      swap1\n      log3\n        /* \"@openzeppelin/contracts/access/Ownable.sol\":2975:3099  {... */\n      pop\n        /* \"@openzeppelin/contracts/access/Ownable.sol\":2912:3099  function _transferOwnership(address newOwner) internal virtual {... */\n      pop\n      jump\t// out\n        /* \"@openzeppelin/contracts/utils/Pausable.sol\":2463:2578  function _pause() internal virtual whenNotPaused {... */\n    tag_118:\n        /* \"@openzeppelin/contracts/utils/Pausable.sol\":1474:1493  _requireNotPaused() */\n      tag_178\n        /* \"@openzeppelin/contracts/utils/Pausable.sol\":1474:1491  _requireNotPaused */\n      tag_61\n        /* \"@openzeppelin/contracts/utils/Pausable.sol\":1474:1493  _requireNotPaused() */\n      jump\t// in\n    tag_178:\n        /* \"@openzeppelin/contracts/utils/Pausable.sol\":2532:2536  true */\n      0x01\n        /* \"@openzeppelin/contracts/utils/Pausable.sol\":2522:2529  _paused */\n      0x02\n      0x00\n        /* \"@openzeppelin/contracts/utils/Pausable.sol\":2522:2536  _paused = true */\n      0x0100\n      exp\n      dup2\n      sload\n      dup2\n      0xff\n      mul\n      not\n      and\n      swap1\n      dup4\n      iszero\n      iszero\n      mul\n      or\n      swap1\n      sstore\n      pop\n        /* \"@openzeppelin/contracts/utils/Pausable.sol\":2551:2571  Paused(_msgSender()) */\n      0x62e78cea01bee320cd4e420270b5ea74000d11b0c9f74754ebdbfc544b05a258\n        /* \"@openzeppelin/contracts/utils/Pausable.sol\":2558:2570  _msgSender() */\n      tag_180\n        /* \"@openzeppelin/contracts/utils/Pausable.sol\":2558:2568  _msgSender */\n      tag_164\n        /* \"@openzeppelin/contracts/utils/Pausable.sol\":2558:2570  _msgSender() */\n      jump\t// in\n    tag_180:\n        /* \"@openzeppelin/contracts/utils/Pausable.sol\":2551:2571  Paused(_msgSender()) */\n      mload(0x40)\n      tag_181\n      swap2\n      swap1\n      tag_46\n      jump\t// in\n    tag_181:\n      mload(0x40)\n      dup1\n      swap2\n      sub\n      swap1\n      log1\n        /* \"@openzeppelin/contracts/utils/Pausable.sol\":2463:2578  function _pause() internal virtual whenNotPaused {... */\n      jump\t// out\n        /* \"@openzeppelin/contracts/utils/Context.sol\":656:752  function _msgSender() internal view virtual returns (address) {... */\n    tag_164:\n        /* \"@openzeppelin/contracts/utils/Context.sol\":709:716  address */\n      0x00\n        /* \"@openzeppelin/contracts/utils/Context.sol\":735:745  msg.sender */\n      caller\n        /* \"@openzeppelin/contracts/utils/Context.sol\":728:745  return msg.sender */\n      swap1\n      pop\n        /* \"@openzeppelin/contracts/utils/Context.sol\":656:752  function _msgSender() internal view virtual returns (address) {... */\n      swap1\n      jump\t// out\n        /* \"@openzeppelin/contracts/utils/Pausable.sol\":2202:2328  function _requirePaused() internal view virtual {... */\n    tag_172:\n        /* \"@openzeppelin/contracts/utils/Pausable.sol\":2265:2273  paused() */\n      tag_184\n        /* \"@openzeppelin/contracts/utils/Pausable.sol\":2265:2271  paused */\n      tag_32\n        /* \"@openzeppelin/contracts/utils/Pausable.sol\":2265:2273  paused() */\n      jump\t// in\n    tag_184:\n        /* \"@openzeppelin/contracts/utils/Pausable.sol\":2260:2322  if (!paused()) {... */\n      tag_185\n      jumpi\n        /* \"@openzeppelin/contracts/utils/Pausable.sol\":2296:2311  ExpectedPause() */\n      mload(0x40)\n      0x8dfc202b00000000000000000000000000000000000000000000000000000000\n      dup2\n      mstore\n      0x04\n      add\n      mload(0x40)\n      dup1\n      swap2\n      sub\n      swap1\n      revert\n        /* \"@openzeppelin/contracts/utils/Pausable.sol\":2260:2322  if (!paused()) {... */\n    tag_185:\n        /* \"@openzeppelin/contracts/utils/Pausable.sol\":2202:2328  function _requirePaused() internal view virtual {... */\n      jump\t// out\n    tag_140:\n      mload(0x40)\n      dup1\n      0x80\n      add\n      0x40\n      mstore\n      dup1\n      0x00\n      dup2\n      mstore\n      0x20\n      add\n      0x00\n      dup2\n      mstore\n      0x20\n      add\n      and(0xff, 0x00)\n      dup2\n      mstore\n      0x20\n      add\n      0x00\n      dup2\n      mstore\n      pop\n      swap1\n      jump\t// out\n        /* \"#utility.yul\":88:205   */\n    tag_187:\n        /* \"#utility.yul\":197:198   */\n      0x00\n        /* \"#utility.yul\":194:195   */\n      dup1\n        /* \"#utility.yul\":187:199   */\n      revert\n        /* \"#utility.yul\":211:328   */\n    tag_188:\n        /* \"#utility.yul\":320:321   */\n      0x00\n        /* \"#utility.yul\":317:318   */\n      dup1\n        /* \"#utility.yul\":310:322   */\n      revert\n        /* \"#utility.yul\":334:411   */\n    tag_189:\n        /* \"#utility.yul\":371:378   */\n      0x00\n        /* \"#utility.yul\":400:405   */\n      dup2\n        /* \"#utility.yul\":389:405   */\n      swap1\n      pop\n        /* \"#utility.yul\":334:411   */\n      swap2\n      swap1\n      pop\n      jump\t// out\n        /* \"#utility.yul\":417:539   */\n    tag_190:\n        /* \"#utility.yul\":490:514   */\n      tag_238\n        /* \"#utility.yul\":508:513   */\n      dup2\n        /* \"#utility.yul\":490:514   */\n      tag_189\n      jump\t// in\n    tag_238:\n        /* \"#utility.yul\":483:488   */\n      dup2\n        /* \"#utility.yul\":480:515   */\n      eq\n        /* \"#utility.yul\":470:533   */\n      tag_239\n      jumpi\n        /* \"#utility.yul\":529:530   */\n      0x00\n        /* \"#utility.yul\":526:527   */\n      dup1\n        /* \"#utility.yul\":519:531   */\n      revert\n        /* \"#utility.yul\":470:533   */\n    tag_239:\n        /* \"#utility.yul\":417:539   */\n      pop\n      jump\t// out\n        /* \"#utility.yul\":545:684   */\n    tag_191:\n        /* \"#utility.yul\":591:596   */\n      0x00\n        /* \"#utility.yul\":629:635   */\n      dup2\n        /* \"#utility.yul\":616:636   */\n      calldataload\n        /* \"#utility.yul\":607:636   */\n      swap1\n      pop\n        /* \"#utility.yul\":645:678   */\n      tag_241\n        /* \"#utility.yul\":672:677   */\n      dup2\n        /* \"#utility.yul\":645:678   */\n      tag_190\n      jump\t// in\n    tag_241:\n        /* \"#utility.yul\":545:684   */\n      swap3\n      swap2\n      pop\n      pop\n      jump\t// out\n        /* \"#utility.yul\":690:807   */\n    tag_192:\n        /* \"#utility.yul\":799:800   */\n      0x00\n        /* \"#utility.yul\":796:797   */\n      dup1\n        /* \"#utility.yul\":789:801   */\n      revert\n        /* \"#utility.yul\":813:930   */\n    tag_193:\n        /* \"#utility.yul\":922:923   */\n      0x00\n        /* \"#utility.yul\":919:920   */\n      dup1\n        /* \"#utility.yul\":912:924   */\n      revert\n        /* \"#utility.yul\":936:1053   */\n    tag_194:\n        /* \"#utility.yul\":1045:1046   */\n      0x00\n        /* \"#utility.yul\":1042:1043   */\n      dup1\n        /* \"#utility.yul\":1035:1047   */\n      revert\n        /* \"#utility.yul\":1073:1626   */\n    tag_195:\n        /* \"#utility.yul\":1131:1139   */\n      0x00\n        /* \"#utility.yul\":1141:1147   */\n      dup1\n        /* \"#utility.yul\":1191:1194   */\n      dup4\n        /* \"#utility.yul\":1184:1188   */\n      0x1f\n        /* \"#utility.yul\":1176:1182   */\n      dup5\n        /* \"#utility.yul\":1172:1189   */\n      add\n        /* \"#utility.yul\":1168:1195   */\n      slt\n        /* \"#utility.yul\":1158:1280   */\n      tag_246\n      jumpi\n        /* \"#utility.yul\":1199:1278   */\n      tag_247\n      tag_192\n      jump\t// in\n    tag_247:\n        /* \"#utility.yul\":1158:1280   */\n    tag_246:\n        /* \"#utility.yul\":1312:1318   */\n      dup3\n        /* \"#utility.yul\":1299:1319   */\n      calldataload\n        /* \"#utility.yul\":1289:1319   */\n      swap1\n      pop\n        /* \"#utility.yul\":1342:1360   */\n      0xffffffffffffffff\n        /* \"#utility.yul\":1334:1340   */\n      dup2\n        /* \"#utility.yul\":1331:1361   */\n      gt\n        /* \"#utility.yul\":1328:1445   */\n      iszero\n      tag_248\n      jumpi\n        /* \"#utility.yul\":1364:1443   */\n      tag_249\n      tag_193\n      jump\t// in\n    tag_249:\n        /* \"#utility.yul\":1328:1445   */\n    tag_248:\n        /* \"#utility.yul\":1478:1482   */\n      0x20\n        /* \"#utility.yul\":1470:1476   */\n      dup4\n        /* \"#utility.yul\":1466:1483   */\n      add\n        /* \"#utility.yul\":1454:1483   */\n      swap2\n      pop\n        /* \"#utility.yul\":1532:1535   */\n      dup4\n        /* \"#utility.yul\":1524:1528   */\n      0x01\n        /* \"#utility.yul\":1516:1522   */\n      dup3\n        /* \"#utility.yul\":1512:1529   */\n      mul\n        /* \"#utility.yul\":1502:1510   */\n      dup4\n        /* \"#utility.yul\":1498:1530   */\n      add\n        /* \"#utility.yul\":1495:1536   */\n      gt\n        /* \"#utility.yul\":1492:1620   */\n      iszero\n      tag_250\n      jumpi\n        /* \"#utility.yul\":1539:1618   */\n      tag_251\n      tag_194\n      jump\t// in\n    tag_251:\n        /* \"#utility.yul\":1492:1620   */\n    tag_250:\n        /* \"#utility.yul\":1073:1626   */\n      swap3\n      pop\n      swap3\n      swap1\n      pop\n      jump\t// out\n        /* \"#utility.yul\":1632:2306   */\n    tag_17:\n        /* \"#utility.yul\":1712:1718   */\n      0x00\n        /* \"#utility.yul\":1720:1726   */\n      dup1\n        /* \"#utility.yul\":1728:1734   */\n      0x00\n        /* \"#utility.yul\":1777:1779   */\n      0x40\n        /* \"#utility.yul\":1765:1774   */\n      dup5\n        /* \"#utility.yul\":1756:1763   */\n      dup7\n        /* \"#utility.yul\":1752:1775   */\n      sub\n        /* \"#utility.yul\":1748:1780   */\n      slt\n        /* \"#utility.yul\":1745:1864   */\n      iszero\n      tag_253\n      jumpi\n        /* \"#utility.yul\":1783:1862   */\n      tag_254\n      tag_187\n      jump\t// in\n    tag_254:\n        /* \"#utility.yul\":1745:1864   */\n    tag_253:\n        /* \"#utility.yul\":1903:1904   */\n      0x00\n        /* \"#utility.yul\":1928:1981   */\n      tag_255\n        /* \"#utility.yul\":1973:1980   */\n      dup7\n        /* \"#utility.yul\":1964:1970   */\n      dup3\n        /* \"#utility.yul\":1953:1962   */\n      dup8\n        /* \"#utility.yul\":1949:1971   */\n      add\n        /* \"#utility.yul\":1928:1981   */\n      tag_191\n      jump\t// in\n    tag_255:\n        /* \"#utility.yul\":1918:1981   */\n      swap4\n      pop\n        /* \"#utility.yul\":1874:1991   */\n      pop\n        /* \"#utility.yul\":2058:2060   */\n      0x20\n        /* \"#utility.yul\":2047:2056   */\n      dup5\n        /* \"#utility.yul\":2043:2061   */\n      add\n        /* \"#utility.yul\":2030:2062   */\n      calldataload\n        /* \"#utility.yul\":2089:2107   */\n      0xffffffffffffffff\n        /* \"#utility.yul\":2081:2087   */\n      dup2\n        /* \"#utility.yul\":2078:2108   */\n      gt\n        /* \"#utility.yul\":2075:2192   */\n      iszero\n      tag_256\n      jumpi\n        /* \"#utility.yul\":2111:2190   */\n      tag_257\n      tag_188\n      jump\t// in\n    tag_257:\n        /* \"#utility.yul\":2075:2192   */\n    tag_256:\n        /* \"#utility.yul\":2224:2289   */\n      tag_258\n        /* \"#utility.yul\":2281:2288   */\n      dup7\n        /* \"#utility.yul\":2272:2278   */\n      dup3\n        /* \"#utility.yul\":2261:2270   */\n      dup8\n        /* \"#utility.yul\":2257:2279   */\n      add\n        /* \"#utility.yul\":2224:2289   */\n      tag_195\n      jump\t// in\n    tag_258:\n        /* \"#utility.yul\":2206:2289   */\n      swap3\n      pop\n      swap3\n      pop\n        /* \"#utility.yul\":2001:2299   */\n      pop\n        /* \"#utility.yul\":1632:2306   */\n      swap3\n      pop\n      swap3\n      pop\n      swap3\n      jump\t// out\n        /* \"#utility.yul\":2312:2641   */\n    tag_21:\n        /* \"#utility.yul\":2371:2377   */\n      0x00\n        /* \"#utility.yul\":2420:2422   */\n      0x20\n        /* \"#utility.yul\":2408:2417   */\n      dup3\n        /* \"#utility.yul\":2399:2406   */\n      dup5\n        /* \"#utility.yul\":2395:2418   */\n      sub\n        /* \"#utility.yul\":2391:2423   */\n      slt\n        /* \"#utility.yul\":2388:2507   */\n      iszero\n      tag_260\n      jumpi\n        /* \"#utility.yul\":2426:2505   */\n      tag_261\n      tag_187\n      jump\t// in\n    tag_261:\n        /* \"#utility.yul\":2388:2507   */\n    tag_260:\n        /* \"#utility.yul\":2546:2547   */\n      0x00\n        /* \"#utility.yul\":2571:2624   */\n      tag_262\n        /* \"#utility.yul\":2616:2623   */\n      dup5\n        /* \"#utility.yul\":2607:2613   */\n      dup3\n        /* \"#utility.yul\":2596:2605   */\n      dup6\n        /* \"#utility.yul\":2592:2614   */\n      add\n        /* \"#utility.yul\":2571:2624   */\n      tag_191\n      jump\t// in\n    tag_262:\n        /* \"#utility.yul\":2561:2624   */\n      swap2\n      pop\n        /* \"#utility.yul\":2517:2634   */\n      pop\n        /* \"#utility.yul\":2312:2641   */\n      swap3\n      swap2\n      pop\n      pop\n      jump\t// out\n        /* \"#utility.yul\":2647:2765   */\n    tag_196:\n        /* \"#utility.yul\":2734:2758   */\n      tag_264\n        /* \"#utility.yul\":2752:2757   */\n      dup2\n        /* \"#utility.yul\":2734:2758   */\n      tag_189\n      jump\t// in\n    tag_264:\n        /* \"#utility.yul\":2729:2732   */\n      dup3\n        /* \"#utility.yul\":2722:2759   */\n      mstore\n        /* \"#utility.yul\":2647:2765   */\n      pop\n      pop\n      jump\t// out\n        /* \"#utility.yul\":2771:3103   */\n    tag_24:\n        /* \"#utility.yul\":2892:2896   */\n      0x00\n        /* \"#utility.yul\":2930:2932   */\n      0x40\n        /* \"#utility.yul\":2919:2928   */\n      dup3\n        /* \"#utility.yul\":2915:2933   */\n      add\n        /* \"#utility.yul\":2907:2933   */\n      swap1\n      pop\n        /* \"#utility.yul\":2943:3014   */\n      tag_266\n        /* \"#utility.yul\":3011:3012   */\n      0x00\n        /* \"#utility.yul\":3000:3009   */\n      dup4\n        /* \"#utility.yul\":2996:3013   */\n      add\n        /* \"#utility.yul\":2987:2993   */\n      dup6\n        /* \"#utility.yul\":2943:3014   */\n      tag_196\n      jump\t// in\n    tag_266:\n        /* \"#utility.yul\":3024:3096   */\n      tag_267\n        /* \"#utility.yul\":3092:3094   */\n      0x20\n        /* \"#utility.yul\":3081:3090   */\n      dup4\n        /* \"#utility.yul\":3077:3095   */\n      add\n        /* \"#utility.yul\":3068:3074   */\n      dup5\n        /* \"#utility.yul\":3024:3096   */\n      tag_196\n      jump\t// in\n    tag_267:\n        /* \"#utility.yul\":2771:3103   */\n      swap4\n      swap3\n      pop\n      pop\n      pop\n      jump\t// out\n        /* \"#utility.yul\":3109:3583   */\n    tag_29:\n        /* \"#utility.yul\":3177:3183   */\n      0x00\n        /* \"#utility.yul\":3185:3191   */\n      dup1\n        /* \"#utility.yul\":3234:3236   */\n      0x40\n        /* \"#utility.yul\":3222:3231   */\n      dup4\n        /* \"#utility.yul\":3213:3220   */\n      dup6\n        /* \"#utility.yul\":3209:3232   */\n      sub\n        /* \"#utility.yul\":3205:3237   */\n      slt\n        /* \"#utility.yul\":3202:3321   */\n      iszero\n      tag_269\n      jumpi\n        /* \"#utility.yul\":3240:3319   */\n      tag_270\n      tag_187\n      jump\t// in\n    tag_270:\n        /* \"#utility.yul\":3202:3321   */\n    tag_269:\n        /* \"#utility.yul\":3360:3361   */\n      0x00\n        /* \"#utility.yul\":3385:3438   */\n      tag_271\n        /* \"#utility.yul\":3430:3437   */\n      dup6\n        /* \"#utility.yul\":3421:3427   */\n      dup3\n        /* \"#utility.yul\":3410:3419   */\n      dup7\n        /* \"#utility.yul\":3406:3428   */\n      add\n        /* \"#utility.yul\":3385:3438   */\n      tag_191\n      jump\t// in\n    tag_271:\n        /* \"#utility.yul\":3375:3438   */\n      swap3\n      pop\n        /* \"#utility.yul\":3331:3448   */\n      pop\n        /* \"#utility.yul\":3487:3489   */\n      0x20\n        /* \"#utility.yul\":3513:3566   */\n      tag_272\n        /* \"#utility.yul\":3558:3565   */\n      dup6\n        /* \"#utility.yul\":3549:3555   */\n      dup3\n        /* \"#utility.yul\":3538:3547   */\n      dup7\n        /* \"#utility.yul\":3534:3556   */\n      add\n        /* \"#utility.yul\":3513:3566   */\n      tag_191\n      jump\t// in\n    tag_272:\n        /* \"#utility.yul\":3503:3566   */\n      swap2\n      pop\n        /* \"#utility.yul\":3458:3576   */\n      pop\n        /* \"#utility.yul\":3109:3583   */\n      swap3\n      pop\n      swap3\n      swap1\n      pop\n      jump\t// out\n        /* \"#utility.yul\":3589:3679   */\n    tag_197:\n        /* \"#utility.yul\":3623:3630   */\n      0x00\n        /* \"#utility.yul\":3666:3671   */\n      dup2\n        /* \"#utility.yul\":3659:3672   */\n      iszero\n        /* \"#utility.yul\":3652:3673   */\n      iszero\n        /* \"#utility.yul\":3641:3673   */\n      swap1\n      pop\n        /* \"#utility.yul\":3589:3679   */\n      swap2\n      swap1\n      pop\n      jump\t// out\n        /* \"#utility.yul\":3685:3794   */\n    tag_198:\n        /* \"#utility.yul\":3766:3787   */\n      tag_275\n        /* \"#utility.yul\":3781:3786   */\n      dup2\n        /* \"#utility.yul\":3766:3787   */\n      tag_197\n      jump\t// in\n    tag_275:\n        /* \"#utility.yul\":3761:3764   */\n      dup3\n        /* \"#utility.yul\":3754:3788   */\n      mstore\n        /* \"#utility.yul\":3685:3794   */\n      pop\n      pop\n      jump\t// out\n        /* \"#utility.yul\":3800:4010   */\n    tag_34:\n        /* \"#utility.yul\":3887:3891   */\n      0x00\n        /* \"#utility.yul\":3925:3927   */\n      0x20\n        /* \"#utility.yul\":3914:3923   */\n      dup3\n        /* \"#utility.yul\":3910:3928   */\n      add\n        /* \"#utility.yul\":3902:3928   */\n      swap1\n      pop\n        /* \"#utility.yul\":3938:4003   */\n      tag_277\n        /* \"#utility.yul\":4000:4001   */\n      0x00\n        /* \"#utility.yul\":3989:3998   */\n      dup4\n        /* \"#utility.yul\":3985:4002   */\n      add\n        /* \"#utility.yul\":3976:3982   */\n      dup5\n        /* \"#utility.yul\":3938:4003   */\n      tag_198\n      jump\t// in\n    tag_277:\n        /* \"#utility.yul\":3800:4010   */\n      swap3\n      swap2\n      pop\n      pop\n      jump\t// out\n        /* \"#utility.yul\":4016:4635   */\n    tag_41:\n        /* \"#utility.yul\":4093:4099   */\n      0x00\n        /* \"#utility.yul\":4101:4107   */\n      dup1\n        /* \"#utility.yul\":4109:4115   */\n      0x00\n        /* \"#utility.yul\":4158:4160   */\n      0x60\n        /* \"#utility.yul\":4146:4155   */\n      dup5\n        /* \"#utility.yul\":4137:4144   */\n      dup7\n        /* \"#utility.yul\":4133:4156   */\n      sub\n        /* \"#utility.yul\":4129:4161   */\n      slt\n        /* \"#utility.yul\":4126:4245   */\n      iszero\n      tag_279\n      jumpi\n        /* \"#utility.yul\":4164:4243   */\n      tag_280\n      tag_187\n      jump\t// in\n    tag_280:\n        /* \"#utility.yul\":4126:4245   */\n    tag_279:\n        /* \"#utility.yul\":4284:4285   */\n      0x00\n        /* \"#utility.yul\":4309:4362   */\n      tag_281\n        /* \"#utility.yul\":4354:4361   */\n      dup7\n        /* \"#utility.yul\":4345:4351   */\n      dup3\n        /* \"#utility.yul\":4334:4343   */\n      dup8\n        /* \"#utility.yul\":4330:4352   */\n      add\n        /* \"#utility.yul\":4309:4362   */\n      tag_191\n      jump\t// in\n    tag_281:\n        /* \"#utility.yul\":4299:4362   */\n      swap4\n      pop\n        /* \"#utility.yul\":4255:4372   */\n      pop\n        /* \"#utility.yul\":4411:4413   */\n      0x20\n        /* \"#utility.yul\":4437:4490   */\n      tag_282\n        /* \"#utility.yul\":4482:4489   */\n      dup7\n        /* \"#utility.yul\":4473:4479   */\n      dup3\n        /* \"#utility.yul\":4462:4471   */\n      dup8\n        /* \"#utility.yul\":4458:4480   */\n      add\n        /* \"#utility.yul\":4437:4490   */\n      tag_191\n      jump\t// in\n    tag_282:\n        /* \"#utility.yul\":4427:4490   */\n      swap3\n      pop\n        /* \"#utility.yul\":4382:4500   */\n      pop\n        /* \"#utility.yul\":4539:4541   */\n      0x40\n        /* \"#utility.yul\":4565:4618   */\n      tag_283\n        /* \"#utility.yul\":4610:4617   */\n      dup7\n        /* \"#utility.yul\":4601:4607   */\n      dup3\n        /* \"#utility.yul\":4590:4599   */\n      dup8\n        /* \"#utility.yul\":4586:4608   */\n      add\n        /* \"#utility.yul\":4565:4618   */\n      tag_191\n      jump\t// in\n    tag_283:\n        /* \"#utility.yul\":4555:4618   */\n      swap2\n      pop\n        /* \"#utility.yul\":4510:4628   */\n      pop\n        /* \"#utility.yul\":4016:4635   */\n      swap3\n      pop\n      swap3\n      pop\n      swap3\n      jump\t// out\n        /* \"#utility.yul\":4641:4767   */\n    tag_199:\n        /* \"#utility.yul\":4678:4685   */\n      0x00\n        /* \"#utility.yul\":4718:4760   */\n      0xffffffffffffffffffffffffffffffffffffffff\n        /* \"#utility.yul\":4711:4716   */\n      dup3\n        /* \"#utility.yul\":4707:4761   */\n      and\n        /* \"#utility.yul\":4696:4761   */\n      swap1\n      pop\n        /* \"#utility.yul\":4641:4767   */\n      swap2\n      swap1\n      pop\n      jump\t// out\n        /* \"#utility.yul\":4773:4869   */\n    tag_200:\n        /* \"#utility.yul\":4810:4817   */\n      0x00\n        /* \"#utility.yul\":4839:4863   */\n      tag_286\n        /* \"#utility.yul\":4857:4862   */\n      dup3\n        /* \"#utility.yul\":4839:4863   */\n      tag_199\n      jump\t// in\n    tag_286:\n        /* \"#utility.yul\":4828:4863   */\n      swap1\n      pop\n        /* \"#utility.yul\":4773:4869   */\n      swap2\n      swap1\n      pop\n      jump\t// out\n        /* \"#utility.yul\":4875:4993   */\n    tag_201:\n        /* \"#utility.yul\":4962:4986   */\n      tag_288\n        /* \"#utility.yul\":4980:4985   */\n      dup2\n        /* \"#utility.yul\":4962:4986   */\n      tag_200\n      jump\t// in\n    tag_288:\n        /* \"#utility.yul\":4957:4960   */\n      dup3\n        /* \"#utility.yul\":4950:4987   */\n      mstore\n        /* \"#utility.yul\":4875:4993   */\n      pop\n      pop\n      jump\t// out\n        /* \"#utility.yul\":4999:5221   */\n    tag_46:\n        /* \"#utility.yul\":5092:5096   */\n      0x00\n        /* \"#utility.yul\":5130:5132   */\n      0x20\n        /* \"#utility.yul\":5119:5128   */\n      dup3\n        /* \"#utility.yul\":5115:5133   */\n      add\n        /* \"#utility.yul\":5107:5133   */\n      swap1\n      pop\n        /* \"#utility.yul\":5143:5214   */\n      tag_290\n        /* \"#utility.yul\":5211:5212   */\n      0x00\n        /* \"#utility.yul\":5200:5209   */\n      dup4\n        /* \"#utility.yul\":5196:5213   */\n      add\n        /* \"#utility.yul\":5187:5193   */\n      dup5\n        /* \"#utility.yul\":5143:5214   */\n      tag_201\n      jump\t// in\n    tag_290:\n        /* \"#utility.yul\":4999:5221   */\n      swap3\n      swap2\n      pop\n      pop\n      jump\t// out\n        /* \"#utility.yul\":5227:5304   */\n    tag_202:\n        /* \"#utility.yul\":5264:5271   */\n      0x00\n        /* \"#utility.yul\":5293:5298   */\n      dup2\n        /* \"#utility.yul\":5282:5298   */\n      swap1\n      pop\n        /* \"#utility.yul\":5227:5304   */\n      swap2\n      swap1\n      pop\n      jump\t// out\n        /* \"#utility.yul\":5310:5418   */\n    tag_203:\n        /* \"#utility.yul\":5387:5411   */\n      tag_293\n        /* \"#utility.yul\":5405:5410   */\n      dup2\n        /* \"#utility.yul\":5387:5411   */\n      tag_202\n      jump\t// in\n    tag_293:\n        /* \"#utility.yul\":5382:5385   */\n      dup3\n        /* \"#utility.yul\":5375:5412   */\n      mstore\n        /* \"#utility.yul\":5310:5418   */\n      pop\n      pop\n      jump\t// out\n        /* \"#utility.yul\":5424:5510   */\n    tag_204:\n        /* \"#utility.yul\":5459:5466   */\n      0x00\n        /* \"#utility.yul\":5499:5503   */\n      0xff\n        /* \"#utility.yul\":5492:5497   */\n      dup3\n        /* \"#utility.yul\":5488:5504   */\n      and\n        /* \"#utility.yul\":5477:5504   */\n      swap1\n      pop\n        /* \"#utility.yul\":5424:5510   */\n      swap2\n      swap1\n      pop\n      jump\t// out\n        /* \"#utility.yul\":5516:5618   */\n    tag_205:\n        /* \"#utility.yul\":5589:5611   */\n      tag_296\n        /* \"#utility.yul\":5605:5610   */\n      dup2\n        /* \"#utility.yul\":5589:5611   */\n      tag_204\n      jump\t// in\n    tag_296:\n        /* \"#utility.yul\":5584:5587   */\n      dup3\n        /* \"#utility.yul\":5577:5612   */\n      mstore\n        /* \"#utility.yul\":5516:5618   */\n      pop\n      pop\n      jump\t// out\n        /* \"#utility.yul\":5708:6591   */\n    tag_206:\n        /* \"#utility.yul\":5861:5865   */\n      0x80\n        /* \"#utility.yul\":5856:5859   */\n      dup3\n        /* \"#utility.yul\":5852:5866   */\n      add\n        /* \"#utility.yul\":5956:5960   */\n      0x00\n        /* \"#utility.yul\":5949:5954   */\n      dup3\n        /* \"#utility.yul\":5945:5961   */\n      add\n        /* \"#utility.yul\":5939:5962   */\n      mload\n        /* \"#utility.yul\":5975:6038   */\n      tag_298\n        /* \"#utility.yul\":6032:6036   */\n      0x00\n        /* \"#utility.yul\":6027:6030   */\n      dup6\n        /* \"#utility.yul\":6023:6037   */\n      add\n        /* \"#utility.yul\":6009:6021   */\n      dup3\n        /* \"#utility.yul\":5975:6038   */\n      tag_203\n      jump\t// in\n    tag_298:\n        /* \"#utility.yul\":5876:6048   */\n      pop\n        /* \"#utility.yul\":6142:6146   */\n      0x20\n        /* \"#utility.yul\":6135:6140   */\n      dup3\n        /* \"#utility.yul\":6131:6147   */\n      add\n        /* \"#utility.yul\":6125:6148   */\n      mload\n        /* \"#utility.yul\":6161:6224   */\n      tag_299\n        /* \"#utility.yul\":6218:6222   */\n      0x20\n        /* \"#utility.yul\":6213:6216   */\n      dup6\n        /* \"#utility.yul\":6209:6223   */\n      add\n        /* \"#utility.yul\":6195:6207   */\n      dup3\n        /* \"#utility.yul\":6161:6224   */\n      tag_203\n      jump\t// in\n    tag_299:\n        /* \"#utility.yul\":6058:6234   */\n      pop\n        /* \"#utility.yul\":6318:6322   */\n      0x40\n        /* \"#utility.yul\":6311:6316   */\n      dup3\n        /* \"#utility.yul\":6307:6323   */\n      add\n        /* \"#utility.yul\":6301:6324   */\n      mload\n        /* \"#utility.yul\":6337:6396   */\n      tag_300\n        /* \"#utility.yul\":6390:6394   */\n      0x40\n        /* \"#utility.yul\":6385:6388   */\n      dup6\n        /* \"#utility.yul\":6381:6395   */\n      add\n        /* \"#utility.yul\":6367:6379   */\n      dup3\n        /* \"#utility.yul\":6337:6396   */\n      tag_205\n      jump\t// in\n    tag_300:\n        /* \"#utility.yul\":6244:6406   */\n      pop\n        /* \"#utility.yul\":6492:6496   */\n      0x60\n        /* \"#utility.yul\":6485:6490   */\n      dup3\n        /* \"#utility.yul\":6481:6497   */\n      add\n        /* \"#utility.yul\":6475:6498   */\n      mload\n        /* \"#utility.yul\":6511:6574   */\n      tag_301\n        /* \"#utility.yul\":6568:6572   */\n      0x60\n        /* \"#utility.yul\":6563:6566   */\n      dup6\n        /* \"#utility.yul\":6559:6573   */\n      add\n        /* \"#utility.yul\":6545:6557   */\n      dup3\n        /* \"#utility.yul\":6511:6574   */\n      tag_203\n      jump\t// in\n    tag_301:\n        /* \"#utility.yul\":6416:6584   */\n      pop\n        /* \"#utility.yul\":5830:6591   */\n      pop\n        /* \"#utility.yul\":5708:6591   */\n      pop\n      pop\n      jump\t// out\n        /* \"#utility.yul\":6597:7042   */\n    tag_51:\n        /* \"#utility.yul\":6774:6778   */\n      0x00\n        /* \"#utility.yul\":6812:6815   */\n      0xa0\n        /* \"#utility.yul\":6801:6810   */\n      dup3\n        /* \"#utility.yul\":6797:6816   */\n      add\n        /* \"#utility.yul\":6789:6816   */\n      swap1\n      pop\n        /* \"#utility.yul\":6826:6897   */\n      tag_303\n        /* \"#utility.yul\":6894:6895   */\n      0x00\n        /* \"#utility.yul\":6883:6892   */\n      dup4\n        /* \"#utility.yul\":6879:6896   */\n      add\n        /* \"#utility.yul\":6870:6876   */\n      dup6\n        /* \"#utility.yul\":6826:6897   */\n      tag_196\n      jump\t// in\n    tag_303:\n        /* \"#utility.yul\":6907:7035   */\n      tag_304\n        /* \"#utility.yul\":7031:7033   */\n      0x20\n        /* \"#utility.yul\":7020:7029   */\n      dup4\n        /* \"#utility.yul\":7016:7034   */\n      add\n        /* \"#utility.yul\":7007:7013   */\n      dup5\n        /* \"#utility.yul\":6907:7035   */\n      tag_206\n      jump\t// in\n    tag_304:\n        /* \"#utility.yul\":6597:7042   */\n      swap4\n      swap3\n      pop\n      pop\n      pop\n      jump\t// out\n        /* \"#utility.yul\":7048:7170   */\n    tag_207:\n        /* \"#utility.yul\":7121:7145   */\n      tag_306\n        /* \"#utility.yul\":7139:7144   */\n      dup2\n        /* \"#utility.yul\":7121:7145   */\n      tag_200\n      jump\t// in\n    tag_306:\n        /* \"#utility.yul\":7114:7119   */\n      dup2\n        /* \"#utility.yul\":7111:7146   */\n      eq\n        /* \"#utility.yul\":7101:7164   */\n      tag_307\n      jumpi\n        /* \"#utility.yul\":7160:7161   */\n      0x00\n        /* \"#utility.yul\":7157:7158   */\n      dup1\n        /* \"#utility.yul\":7150:7162   */\n      revert\n        /* \"#utility.yul\":7101:7164   */\n    tag_307:\n        /* \"#utility.yul\":7048:7170   */\n      pop\n      jump\t// out\n        /* \"#utility.yul\":7176:7315   */\n    tag_208:\n        /* \"#utility.yul\":7222:7227   */\n      0x00\n        /* \"#utility.yul\":7260:7266   */\n      dup2\n        /* \"#utility.yul\":7247:7267   */\n      calldataload\n        /* \"#utility.yul\":7238:7267   */\n      swap1\n      pop\n        /* \"#utility.yul\":7276:7309   */\n      tag_309\n        /* \"#utility.yul\":7303:7308   */\n      dup2\n        /* \"#utility.yul\":7276:7309   */\n      tag_207\n      jump\t// in\n    tag_309:\n        /* \"#utility.yul\":7176:7315   */\n      swap3\n      swap2\n      pop\n      pop\n      jump\t// out\n        /* \"#utility.yul\":7321:7650   */\n    tag_54:\n        /* \"#utility.yul\":7380:7386   */\n      0x00\n        /* \"#utility.yul\":7429:7431   */\n      0x20\n        /* \"#utility.yul\":7417:7426   */\n      dup3\n        /* \"#utility.yul\":7408:7415   */\n      dup5\n        /* \"#utility.yul\":7404:7427   */\n      sub\n        /* \"#utility.yul\":7400:7432   */\n      slt\n        /* \"#utility.yul\":7397:7516   */\n      iszero\n      tag_311\n      jumpi\n        /* \"#utility.yul\":7435:7514   */\n      tag_312\n      tag_187\n      jump\t// in\n    tag_312:\n        /* \"#utility.yul\":7397:7516   */\n    tag_311:\n        /* \"#utility.yul\":7555:7556   */\n      0x00\n        /* \"#utility.yul\":7580:7633   */\n      tag_313\n        /* \"#utility.yul\":7625:7632   */\n      dup5\n        /* \"#utility.yul\":7616:7622   */\n      dup3\n        /* \"#utility.yul\":7605:7614   */\n      dup6\n        /* \"#utility.yul\":7601:7623   */\n      add\n        /* \"#utility.yul\":7580:7633   */\n      tag_208\n      jump\t// in\n    tag_313:\n        /* \"#utility.yul\":7570:7633   */\n      swap2\n      pop\n        /* \"#utility.yul\":7526:7643   */\n      pop\n        /* \"#utility.yul\":7321:7650   */\n      swap3\n      swap2\n      pop\n      pop\n      jump\t// out\n        /* \"#utility.yul\":7656:7825   */\n    tag_209:\n        /* \"#utility.yul\":7740:7751   */\n      0x00\n        /* \"#utility.yul\":7774:7780   */\n      dup3\n        /* \"#utility.yul\":7769:7772   */\n      dup3\n        /* \"#utility.yul\":7762:7781   */\n      mstore\n        /* \"#utility.yul\":7814:7818   */\n      0x20\n        /* \"#utility.yul\":7809:7812   */\n      dup3\n        /* \"#utility.yul\":7805:7819   */\n      add\n        /* \"#utility.yul\":7790:7819   */\n      swap1\n      pop\n        /* \"#utility.yul\":7656:7825   */\n      swap3\n      swap2\n      pop\n      pop\n      jump\t// out\n        /* \"#utility.yul\":7831:7995   */\n    tag_210:\n        /* \"#utility.yul\":7971:7987   */\n      0x4b6579206e6f7420616374697665000000000000000000000000000000000000\n        /* \"#utility.yul\":7967:7968   */\n      0x00\n        /* \"#utility.yul\":7959:7965   */\n      dup3\n        /* \"#utility.yul\":7955:7969   */\n      add\n        /* \"#utility.yul\":7948:7988   */\n      mstore\n        /* \"#utility.yul\":7831:7995   */\n      pop\n      jump\t// out\n        /* \"#utility.yul\":8001:8367   */\n    tag_211:\n        /* \"#utility.yul\":8143:8146   */\n      0x00\n        /* \"#utility.yul\":8164:8231   */\n      tag_317\n        /* \"#utility.yul\":8228:8230   */\n      0x0e\n        /* \"#utility.yul\":8223:8226   */\n      dup4\n        /* \"#utility.yul\":8164:8231   */\n      tag_209\n      jump\t// in\n    tag_317:\n        /* \"#utility.yul\":8157:8231   */\n      swap2\n      pop\n        /* \"#utility.yul\":8240:8333   */\n      tag_318\n        /* \"#utility.yul\":8329:8332   */\n      dup3\n        /* \"#utility.yul\":8240:8333   */\n      tag_210\n      jump\t// in\n    tag_318:\n        /* \"#utility.yul\":8358:8360   */\n      0x20\n        /* \"#utility.yul\":8353:8356   */\n      dup3\n        /* \"#utility.yul\":8349:8361   */\n      add\n        /* \"#utility.yul\":8342:8361   */\n      swap1\n      pop\n        /* \"#utility.yul\":8001:8367   */\n      swap2\n      swap1\n      pop\n      jump\t// out\n        /* \"#utility.yul\":8373:8792   */\n    tag_68:\n        /* \"#utility.yul\":8539:8543   */\n      0x00\n        /* \"#utility.yul\":8577:8579   */\n      0x20\n        /* \"#utility.yul\":8566:8575   */\n      dup3\n        /* \"#utility.yul\":8562:8580   */\n      add\n        /* \"#utility.yul\":8554:8580   */\n      swap1\n      pop\n        /* \"#utility.yul\":8626:8635   */\n      dup2\n        /* \"#utility.yul\":8620:8624   */\n      dup2\n        /* \"#utility.yul\":8616:8636   */\n      sub\n        /* \"#utility.yul\":8612:8613   */\n      0x00\n        /* \"#utility.yul\":8601:8610   */\n      dup4\n        /* \"#utility.yul\":8597:8614   */\n      add\n        /* \"#utility.yul\":8590:8637   */\n      mstore\n        /* \"#utility.yul\":8654:8785   */\n      tag_320\n        /* \"#utility.yul\":8780:8784   */\n      dup2\n        /* \"#utility.yul\":8654:8785   */\n      tag_211\n      jump\t// in\n    tag_320:\n        /* \"#utility.yul\":8646:8785   */\n      swap1\n      pop\n        /* \"#utility.yul\":8373:8792   */\n      swap2\n      swap1\n      pop\n      jump\t// out\n        /* \"#utility.yul\":8798:8946   */\n    tag_212:\n        /* \"#utility.yul\":8896:8902   */\n      dup3\n        /* \"#utility.yul\":8891:8894   */\n      dup2\n        /* \"#utility.yul\":8886:8889   */\n      dup4\n        /* \"#utility.yul\":8873:8903   */\n      calldatacopy\n        /* \"#utility.yul\":8937:8938   */\n      0x00\n        /* \"#utility.yul\":8928:8934   */\n      dup4\n        /* \"#utility.yul\":8923:8926   */\n      dup4\n        /* \"#utility.yul\":8919:8935   */\n      add\n        /* \"#utility.yul\":8912:8939   */\n      mstore\n        /* \"#utility.yul\":8798:8946   */\n      pop\n      pop\n      pop\n      jump\t// out\n        /* \"#utility.yul\":8952:9054   */\n    tag_213:\n        /* \"#utility.yul\":8993:8999   */\n      0x00\n        /* \"#utility.yul\":9044:9046   */\n      0x1f\n        /* \"#utility.yul\":9040:9047   */\n      not\n        /* \"#utility.yul\":9035:9037   */\n      0x1f\n        /* \"#utility.yul\":9028:9033   */\n      dup4\n        /* \"#utility.yul\":9024:9038   */\n      add\n        /* \"#utility.yul\":9020:9048   */\n      and\n        /* \"#utility.yul\":9010:9048   */\n      swap1\n      pop\n        /* \"#utility.yul\":8952:9054   */\n      swap2\n      swap1\n      pop\n      jump\t// out\n        /* \"#utility.yul\":9084:9401   */\n    tag_214:\n        /* \"#utility.yul\":9182:9185   */\n      0x00\n        /* \"#utility.yul\":9203:9274   */\n      tag_324\n        /* \"#utility.yul\":9267:9273   */\n      dup4\n        /* \"#utility.yul\":9262:9265   */\n      dup6\n        /* \"#utility.yul\":9203:9274   */\n      tag_209\n      jump\t// in\n    tag_324:\n        /* \"#utility.yul\":9196:9274   */\n      swap4\n      pop\n        /* \"#utility.yul\":9284:9340   */\n      tag_325\n        /* \"#utility.yul\":9333:9339   */\n      dup4\n        /* \"#utility.yul\":9328:9331   */\n      dup6\n        /* \"#utility.yul\":9321:9326   */\n      dup5\n        /* \"#utility.yul\":9284:9340   */\n      tag_212\n      jump\t// in\n    tag_325:\n        /* \"#utility.yul\":9365:9394   */\n      tag_326\n        /* \"#utility.yul\":9387:9393   */\n      dup4\n        /* \"#utility.yul\":9365:9394   */\n      tag_213\n      jump\t// in\n    tag_326:\n        /* \"#utility.yul\":9360:9363   */\n      dup5\n        /* \"#utility.yul\":9356:9395   */\n      add\n        /* \"#utility.yul\":9349:9395   */\n      swap1\n      pop\n        /* \"#utility.yul\":9084:9401   */\n      swap4\n      swap3\n      pop\n      pop\n      pop\n      jump\t// out\n        /* \"#utility.yul\":9407:9740   */\n    tag_70:\n        /* \"#utility.yul\":9530:9534   */\n      0x00\n        /* \"#utility.yul\":9568:9570   */\n      0x20\n        /* \"#utility.yul\":9557:9566   */\n      dup3\n        /* \"#utility.yul\":9553:9571   */\n      add\n        /* \"#utility.yul\":9545:9571   */\n      swap1\n      pop\n        /* \"#utility.yul\":9617:9626   */\n      dup2\n        /* \"#utility.yul\":9611:9615   */\n      dup2\n        /* \"#utility.yul\":9607:9627   */\n      sub\n        /* \"#utility.yul\":9603:9604   */\n      0x00\n        /* \"#utility.yul\":9592:9601   */\n      dup4\n        /* \"#utility.yul\":9588:9605   */\n      add\n        /* \"#utility.yul\":9581:9628   */\n      mstore\n        /* \"#utility.yul\":9645:9733   */\n      tag_328\n        /* \"#utility.yul\":9728:9732   */\n      dup2\n        /* \"#utility.yul\":9719:9725   */\n      dup5\n        /* \"#utility.yul\":9711:9717   */\n      dup7\n        /* \"#utility.yul\":9645:9733   */\n      tag_214\n      jump\t// in\n    tag_328:\n        /* \"#utility.yul\":9637:9733   */\n      swap1\n      pop\n        /* \"#utility.yul\":9407:9740   */\n      swap4\n      swap3\n      pop\n      pop\n      pop\n      jump\t// out\n        /* \"#utility.yul\":9746:9908   */\n    tag_215:\n        /* \"#utility.yul\":9886:9900   */\n      0x5a65726f20656e74726f70790000000000000000000000000000000000000000\n        /* \"#utility.yul\":9882:9883   */\n      0x00\n        /* \"#utility.yul\":9874:9880   */\n      dup3\n        /* \"#utility.yul\":9870:9884   */\n      add\n        /* \"#utility.yul\":9863:9901   */\n      mstore\n        /* \"#utility.yul\":9746:9908   */\n      pop\n      jump\t// out\n        /* \"#utility.yul\":9914:10280   */\n    tag_216:\n        /* \"#utility.yul\":10056:10059   */\n      0x00\n        /* \"#utility.yul\":10077:10144   */\n      tag_331\n        /* \"#utility.yul\":10141:10143   */\n      0x0c\n        /* \"#utility.yul\":10136:10139   */\n      dup4\n        /* \"#utility.yul\":10077:10144   */\n      tag_209\n      jump\t// in\n    tag_331:\n        /* \"#utility.yul\":10070:10144   */\n      swap2\n      pop\n        /* \"#utility.yul\":10153:10246   */\n      tag_332\n        /* \"#utility.yul\":10242:10245   */\n      dup3\n        /* \"#utility.yul\":10153:10246   */\n      tag_215\n      jump\t// in\n    tag_332:\n        /* \"#utility.yul\":10271:10273   */\n      0x20\n        /* \"#utility.yul\":10266:10269   */\n      dup3\n        /* \"#utility.yul\":10262:10274   */\n      add\n        /* \"#utility.yul\":10255:10274   */\n      swap1\n      pop\n        /* \"#utility.yul\":9914:10280   */\n      swap2\n      swap1\n      pop\n      jump\t// out\n        /* \"#utility.yul\":10286:10705   */\n    tag_82:\n        /* \"#utility.yul\":10452:10456   */\n      0x00\n        /* \"#utility.yul\":10490:10492   */\n      0x20\n        /* \"#utility.yul\":10479:10488   */\n      dup3\n        /* \"#utility.yul\":10475:10493   */\n      add\n        /* \"#utility.yul\":10467:10493   */\n      swap1\n      pop\n        /* \"#utility.yul\":10539:10548   */\n      dup2\n        /* \"#utility.yul\":10533:10537   */\n      dup2\n        /* \"#utility.yul\":10529:10549   */\n      sub\n        /* \"#utility.yul\":10525:10526   */\n      0x00\n        /* \"#utility.yul\":10514:10523   */\n      dup4\n        /* \"#utility.yul\":10510:10527   */\n      add\n        /* \"#utility.yul\":10503:10550   */\n      mstore\n        /* \"#utility.yul\":10567:10698   */\n      tag_334\n        /* \"#utility.yul\":10693:10697   */\n      dup2\n        /* \"#utility.yul\":10567:10698   */\n      tag_216\n      jump\t// in\n    tag_334:\n        /* \"#utility.yul\":10559:10698   */\n      swap1\n      pop\n        /* \"#utility.yul\":10286:10705   */\n      swap2\n      swap1\n      pop\n      jump\t// out\n        /* \"#utility.yul\":10711:10877   */\n    tag_217:\n        /* \"#utility.yul\":10851:10869   */\n      0x496e76616c6964206b6579206861736800000000000000000000000000000000\n        /* \"#utility.yul\":10847:10848   */\n      0x00\n        /* \"#utility.yul\":10839:10845   */\n      dup3\n        /* \"#utility.yul\":10835:10849   */\n      add\n        /* \"#utility.yul\":10828:10870   */\n      mstore\n        /* \"#utility.yul\":10711:10877   */\n      pop\n      jump\t// out\n        /* \"#utility.yul\":10883:11249   */\n    tag_218:\n        /* \"#utility.yul\":11025:11028   */\n      0x00\n        /* \"#utility.yul\":11046:11113   */\n      tag_337\n        /* \"#utility.yul\":11110:11112   */\n      0x10\n        /* \"#utility.yul\":11105:11108   */\n      dup4\n        /* \"#utility.yul\":11046:11113   */\n      tag_209\n      jump\t// in\n    tag_337:\n        /* \"#utility.yul\":11039:11113   */\n      swap2\n      pop\n        /* \"#utility.yul\":11122:11215   */\n      tag_338\n        /* \"#utility.yul\":11211:11214   */\n      dup3\n        /* \"#utility.yul\":11122:11215   */\n      tag_217\n      jump\t// in\n    tag_338:\n        /* \"#utility.yul\":11240:11242   */\n      0x20\n        /* \"#utility.yul\":11235:11238   */\n      dup3\n        /* \"#utility.yul\":11231:11243   */\n      add\n        /* \"#utility.yul\":11224:11243   */\n      swap1\n      pop\n        /* \"#utility.yul\":10883:11249   */\n      swap2\n      swap1\n      pop\n      jump\t// out\n        /* \"#utility.yul\":11255:11674   */\n    tag_98:\n        /* \"#utility.yul\":11421:11425   */\n      0x00\n        /* \"#utility.yul\":11459:11461   */\n      0x20\n        /* \"#utility.yul\":11448:11457   */\n      dup3\n        /* \"#utility.yul\":11444:11462   */\n      add\n        /* \"#utility.yul\":11436:11462   */\n      swap1\n      pop\n        /* \"#utility.yul\":11508:11517   */\n      dup2\n        /* \"#utility.yul\":11502:11506   */\n      dup2\n        /* \"#utility.yul\":11498:11518   */\n      sub\n        /* \"#utility.yul\":11494:11495   */\n      0x00\n        /* \"#utility.yul\":11483:11492   */\n      dup4\n        /* \"#utility.yul\":11479:11496   */\n      add\n        /* \"#utility.yul\":11472:11519   */\n      mstore\n        /* \"#utility.yul\":11536:11667   */\n      tag_340\n        /* \"#utility.yul\":11662:11666   */\n      dup2\n        /* \"#utility.yul\":11536:11667   */\n      tag_218\n      jump\t// in\n    tag_340:\n        /* \"#utility.yul\":11528:11667   */\n      swap1\n      pop\n        /* \"#utility.yul\":11255:11674   */\n      swap2\n      swap1\n      pop\n      jump\t// out\n        /* \"#utility.yul\":11680:11851   */\n    tag_219:\n        /* \"#utility.yul\":11820:11843   */\n      0x496e76616c696420656e63727970746564206b65790000000000000000000000\n        /* \"#utility.yul\":11816:11817   */\n      0x00\n        /* \"#utility.yul\":11808:11814   */\n      dup3\n        /* \"#utility.yul\":11804:11818   */\n      add\n        /* \"#utility.yul\":11797:11844   */\n      mstore\n        /* \"#utility.yul\":11680:11851   */\n      pop\n      jump\t// out\n        /* \"#utility.yul\":11857:12223   */\n    tag_220:\n        /* \"#utility.yul\":11999:12002   */\n      0x00\n        /* \"#utility.yul\":12020:12087   */\n      tag_343\n        /* \"#utility.yul\":12084:12086   */\n      0x15\n        /* \"#utility.yul\":12079:12082   */\n      dup4\n        /* \"#utility.yul\":12020:12087   */\n      tag_209\n      jump\t// in\n    tag_343:\n        /* \"#utility.yul\":12013:12087   */\n      swap2\n      pop\n        /* \"#utility.yul\":12096:12189   */\n      tag_344\n        /* \"#utility.yul\":12185:12188   */\n      dup3\n        /* \"#utility.yul\":12096:12189   */\n      tag_219\n      jump\t// in\n    tag_344:\n        /* \"#utility.yul\":12214:12216   */\n      0x20\n        /* \"#utility.yul\":12209:12212   */\n      dup3\n        /* \"#utility.yul\":12205:12217   */\n      add\n        /* \"#utility.yul\":12198:12217   */\n      swap1\n      pop\n        /* \"#utility.yul\":11857:12223   */\n      swap2\n      swap1\n      pop\n      jump\t// out\n        /* \"#utility.yul\":12229:12648   */\n    tag_101:\n        /* \"#utility.yul\":12395:12399   */\n      0x00\n        /* \"#utility.yul\":12433:12435   */\n      0x20\n        /* \"#utility.yul\":12422:12431   */\n      dup3\n        /* \"#utility.yul\":12418:12436   */\n      add\n        /* \"#utility.yul\":12410:12436   */\n      swap1\n      pop\n        /* \"#utility.yul\":12482:12491   */\n      dup2\n        /* \"#utility.yul\":12476:12480   */\n      dup2\n        /* \"#utility.yul\":12472:12492   */\n      sub\n        /* \"#utility.yul\":12468:12469   */\n      0x00\n        /* \"#utility.yul\":12457:12466   */\n      dup4\n        /* \"#utility.yul\":12453:12470   */\n      add\n        /* \"#utility.yul\":12446:12493   */\n      mstore\n        /* \"#utility.yul\":12510:12641   */\n      tag_346\n        /* \"#utility.yul\":12636:12640   */\n      dup2\n        /* \"#utility.yul\":12510:12641   */\n      tag_220\n      jump\t// in\n    tag_346:\n        /* \"#utility.yul\":12502:12641   */\n      swap1\n      pop\n        /* \"#utility.yul\":12229:12648   */\n      swap2\n      swap1\n      pop\n      jump\t// out\n        /* \"#utility.yul\":12654:12822   */\n    tag_221:\n        /* \"#utility.yul\":12794:12814   */\n      0x4b657920616c7265616479206578697374730000000000000000000000000000\n        /* \"#utility.yul\":12790:12791   */\n      0x00\n        /* \"#utility.yul\":12782:12788   */\n      dup3\n        /* \"#utility.yul\":12778:12792   */\n      add\n        /* \"#utility.yul\":12771:12815   */\n      mstore\n        /* \"#utility.yul\":12654:12822   */\n      pop\n      jump\t// out\n        /* \"#utility.yul\":12828:13194   */\n    tag_222:\n        /* \"#utility.yul\":12970:12973   */\n      0x00\n        /* \"#utility.yul\":12991:13058   */\n      tag_349\n        /* \"#utility.yul\":13055:13057   */\n      0x12\n        /* \"#utility.yul\":13050:13053   */\n      dup4\n        /* \"#utility.yul\":12991:13058   */\n      tag_209\n      jump\t// in\n    tag_349:\n        /* \"#utility.yul\":12984:13058   */\n      swap2\n      pop\n        /* \"#utility.yul\":13067:13160   */\n      tag_350\n        /* \"#utility.yul\":13156:13159   */\n      dup3\n        /* \"#utility.yul\":13067:13160   */\n      tag_221\n      jump\t// in\n    tag_350:\n        /* \"#utility.yul\":13185:13187   */\n      0x20\n        /* \"#utility.yul\":13180:13183   */\n      dup3\n        /* \"#utility.yul\":13176:13188   */\n      add\n        /* \"#utility.yul\":13169:13188   */\n      swap1\n      pop\n        /* \"#utility.yul\":12828:13194   */\n      swap2\n      swap1\n      pop\n      jump\t// out\n        /* \"#utility.yul\":13200:13619   */\n    tag_104:\n        /* \"#utility.yul\":13366:13370   */\n      0x00\n        /* \"#utility.yul\":13404:13406   */\n      0x20\n        /* \"#utility.yul\":13393:13402   */\n      dup3\n        /* \"#utility.yul\":13389:13407   */\n      add\n        /* \"#utility.yul\":13381:13407   */\n      swap1\n      pop\n        /* \"#utility.yul\":13453:13462   */\n      dup2\n        /* \"#utility.yul\":13447:13451   */\n      dup2\n        /* \"#utility.yul\":13443:13463   */\n      sub\n        /* \"#utility.yul\":13439:13440   */\n      0x00\n        /* \"#utility.yul\":13428:13437   */\n      dup4\n        /* \"#utility.yul\":13424:13441   */\n      add\n        /* \"#utility.yul\":13417:13464   */\n      mstore\n        /* \"#utility.yul\":13481:13612   */\n      tag_352\n        /* \"#utility.yul\":13607:13611   */\n      dup2\n        /* \"#utility.yul\":13481:13612   */\n      tag_222\n      jump\t// in\n    tag_352:\n        /* \"#utility.yul\":13473:13612   */\n      swap1\n      pop\n        /* \"#utility.yul\":13200:13619   */\n      swap2\n      swap1\n      pop\n      jump\t// out\n        /* \"#utility.yul\":13625:13805   */\n    tag_223:\n        /* \"#utility.yul\":13673:13750   */\n      0x4e487b7100000000000000000000000000000000000000000000000000000000\n        /* \"#utility.yul\":13670:13671   */\n      0x00\n        /* \"#utility.yul\":13663:13751   */\n      mstore\n        /* \"#utility.yul\":13770:13774   */\n      0x11\n        /* \"#utility.yul\":13767:13768   */\n      0x04\n        /* \"#utility.yul\":13760:13775   */\n      mstore\n        /* \"#utility.yul\":13794:13798   */\n      0x24\n        /* \"#utility.yul\":13791:13792   */\n      0x00\n        /* \"#utility.yul\":13784:13799   */\n      revert\n        /* \"#utility.yul\":13811:14044   */\n    tag_106:\n        /* \"#utility.yul\":13850:13853   */\n      0x00\n        /* \"#utility.yul\":13873:13897   */\n      tag_355\n        /* \"#utility.yul\":13891:13896   */\n      dup3\n        /* \"#utility.yul\":13873:13897   */\n      tag_202\n      jump\t// in\n    tag_355:\n        /* \"#utility.yul\":13864:13897   */\n      swap2\n      pop\n        /* \"#utility.yul\":13919:13985   */\n      0xffffffffffffffffffffffffffffffffffffffffffffffffffffffffffffffff\n        /* \"#utility.yul\":13912:13917   */\n      dup3\n        /* \"#utility.yul\":13909:13986   */\n      sub\n        /* \"#utility.yul\":13906:14009   */\n      tag_356\n      jumpi\n        /* \"#utility.yul\":13989:14007   */\n      tag_357\n      tag_223\n      jump\t// in\n    tag_357:\n        /* \"#utility.yul\":13906:14009   */\n    tag_356:\n        /* \"#utility.yul\":14036:14037   */\n      0x01\n        /* \"#utility.yul\":14029:14034   */\n      dup3\n        /* \"#utility.yul\":14025:14038   */\n      add\n        /* \"#utility.yul\":14018:14038   */\n      swap1\n      pop\n        /* \"#utility.yul\":13811:14044   */\n      swap2\n      swap1\n      pop\n      jump\t// out\n        /* \"#utility.yul\":14050:14215   */\n    tag_224:\n        /* \"#utility.yul\":14190:14207   */\n      0x496e76616c6964206f6c64206b65790000000000000000000000000000000000\n        /* \"#utility.yul\":14186:14187   */\n      0x00\n        /* \"#utility.yul\":14178:14184   */\n      dup3\n        /* \"#utility.yul\":14174:14188   */\n      add\n        /* \"#utility.yul\":14167:14208   */\n      mstore\n        /* \"#utility.yul\":14050:14215   */\n      pop\n      jump\t// out\n        /* \"#utility.yul\":14221:14587   */\n    tag_225:\n        /* \"#utility.yul\":14363:14366   */\n      0x00\n        /* \"#utility.yul\":14384:14451   */\n      tag_360\n        /* \"#utility.yul\":14448:14450   */\n      0x0f\n        /* \"#utility.yul\":14443:14446   */\n      dup4\n        /* \"#utility.yul\":14384:14451   */\n      tag_209\n      jump\t// in\n    tag_360:\n        /* \"#utility.yul\":14377:14451   */\n      swap2\n      pop\n        /* \"#utility.yul\":14460:14553   */\n      tag_361\n        /* \"#utility.yul\":14549:14552   */\n      dup3\n        /* \"#utility.yul\":14460:14553   */\n      tag_224\n      jump\t// in\n    tag_361:\n        /* \"#utility.yul\":14578:14580   */\n      0x20\n        /* \"#utility.yul\":14573:14576   */\n      dup3\n        /* \"#utility.yul\":14569:14581   */\n      add\n        /* \"#utility.yul\":14562:14581   */\n      swap1\n      pop\n        /* \"#utility.yul\":14221:14587   */\n      swap2\n      swap1\n      pop\n      jump\t// out\n        /* \"#utility.yul\":14593:15012   */\n    tag_128:\n        /* \"#utility.yul\":14759:14763   */\n      0x00\n        /* \"#utility.yul\":14797:14799   */\n      0x20\n        /* \"#utility.yul\":14786:14795   */\n      dup3\n        /* \"#utility.yul\":14782:14800   */\n      add\n        /* \"#utility.yul\":14774:14800   */\n      swap1\n      pop\n        /* \"#utility.yul\":14846:14855   */\n      dup2\n        /* \"#utility.yul\":14840:14844   */\n      dup2\n        /* \"#utility.yul\":14836:14856   */\n      sub\n        /* \"#utility.yul\":14832:14833   */\n      0x00\n        /* \"#utility.yul\":14821:14830   */\n      dup4\n        /* \"#utility.yul\":14817:14834   */\n      add\n        /* \"#utility.yul\":14810:14857   */\n      mstore\n        /* \"#utility.yul\":14874:15005   */\n      tag_363\n        /* \"#utility.yul\":15000:15004   */\n      dup2\n        /* \"#utility.yul\":14874:15005   */\n      tag_225\n      jump\t// in\n    tag_363:\n        /* \"#utility.yul\":14866:15005   */\n      swap1\n      pop\n        /* \"#utility.yul\":14593:15012   */\n      swap2\n      swap1\n      pop\n      jump\t// out\n        /* \"#utility.yul\":15018:15209   */\n    tag_130:\n        /* \"#utility.yul\":15058:15061   */\n      0x00\n        /* \"#utility.yul\":15077:15097   */\n      tag_365\n        /* \"#utility.yul\":15095:15096   */\n      dup3\n        /* \"#utility.yul\":15077:15097   */\n      tag_202\n      jump\t// in\n    tag_365:\n        /* \"#utility.yul\":15072:15097   */\n      swap2\n      pop\n        /* \"#utility.yul\":15111:15131   */\n      tag_366\n        /* \"#utility.yul\":15129:15130   */\n      dup4\n        /* \"#utility.yul\":15111:15131   */\n      tag_202\n      jump\t// in\n    tag_366:\n        /* \"#utility.yul\":15106:15131   */\n      swap3\n      pop\n        /* \"#utility.yul\":15154:15155   */\n      dup3\n        /* \"#utility.yul\":15151:15152   */\n      dup3\n        /* \"#utility.yul\":15147:15156   */\n      add\n        /* \"#utility.yul\":15140:15156   */\n      swap1\n      pop\n        /* \"#utility.yul\":15175:15178   */\n      dup1\n        /* \"#utility.yul\":15172:15173   */\n      dup3\n        /* \"#utility.yul\":15169:15179   */\n      gt\n        /* \"#utility.yul\":15166:15202   */\n      iszero\n      tag_367\n      jumpi\n        /* \"#utility.yul\":15182:15200   */\n      tag_368\n      tag_223\n      jump\t// in\n    tag_368:\n        /* \"#utility.yul\":15166:15202   */\n    tag_367:\n        /* \"#utility.yul\":15018:15209   */\n      swap3\n      swap2\n      pop\n      pop\n      jump\t// out\n        /* \"#utility.yul\":15215:15386   */\n    tag_226:\n        /* \"#utility.yul\":15355:15378   */\n      0x436f6f6c696e6720706572696f64206163746976650000000000000000000000\n        /* \"#utility.yul\":15351:15352   */\n      0x00\n        /* \"#utility.yul\":15343:15349   */\n      dup3\n        /* \"#utility.yul\":15339:15353   */\n      add\n        /* \"#utility.yul\":15332:15379   */\n      mstore\n        /* \"#utility.yul\":15215:15386   */\n      pop\n      jump\t// out\n        /* \"#utility.yul\":15392:15758   */\n    tag_227:\n        /* \"#utility.yul\":15534:15537   */\n      0x00\n        /* \"#utility.yul\":15555:15622   */\n      tag_371\n        /* \"#utility.yul\":15619:15621   */\n      0x15\n        /* \"#utility.yul\":15614:15617   */\n      dup4\n        /* \"#utility.yul\":15555:15622   */\n      tag_209\n      jump\t// in\n    tag_371:\n        /* \"#utility.yul\":15548:15622   */\n      swap2\n      pop\n        /* \"#utility.yul\":15631:15724   */\n      tag_372\n        /* \"#utility.yul\":15720:15723   */\n      dup3\n        /* \"#utility.yul\":15631:15724   */\n      tag_226\n      jump\t// in\n    tag_372:\n        /* \"#utility.yul\":15749:15751   */\n      0x20\n        /* \"#utility.yul\":15744:15747   */\n      dup3\n        /* \"#utility.yul\":15740:15752   */\n      add\n        /* \"#utility.yul\":15733:15752   */\n      swap1\n      pop\n        /* \"#utility.yul\":15392:15758   */\n      swap2\n      swap1\n      pop\n      jump\t// out\n        /* \"#utility.yul\":15764:16183   */\n    tag_133:\n        /* \"#utility.yul\":15930:15934   */\n      0x00\n        /* \"#utility.yul\":15968:15970   */\n      0x20\n        /* \"#utility.yul\":15957:15966   */\n      dup3\n        /* \"#utility.yul\":15953:15971   */\n      add\n        /* \"#utility.yul\":15945:15971   */\n      swap1\n      pop\n        /* \"#utility.yul\":16017:16026   */\n      dup2\n        /* \"#utility.yul\":16011:16015   */\n      dup2\n        /* \"#utility.yul\":16007:16027   */\n      sub\n        /* \"#utility.yul\":16003:16004   */\n      0x00\n        /* \"#utility.yul\":15992:16001   */\n      dup4\n        /* \"#utility.yul\":15988:16005   */\n      add\n        /* \"#utility.yul\":15981:16028   */\n      mstore\n        /* \"#utility.yul\":16045:16176   */\n      tag_374\n        /* \"#utility.yul\":16171:16175   */\n      dup2\n        /* \"#utility.yul\":16045:16176   */\n      tag_227\n      jump\t// in\n    tag_374:\n        /* \"#utility.yul\":16037:16176   */\n      swap1\n      pop\n        /* \"#utility.yul\":15764:16183   */\n      swap2\n      swap1\n      pop\n      jump\t// out\n        /* \"#utility.yul\":16189:16361   */\n    tag_228:\n        /* \"#utility.yul\":16329:16353   */\n      0x4e6577206b657920616c72656164792065786973747300000000000000000000\n        /* \"#utility.yul\":16325:16326   */\n      0x00\n        /* \"#utility.yul\":16317:16323   */\n      dup3\n        /* \"#utility.yul\":16313:16327   */\n      add\n        /* \"#utility.yul\":16306:16354   */\n      mstore\n        /* \"#utility.yul\":16189:16361   */\n      pop\n      jump\t// out\n        /* \"#utility.yul\":16367:16733   */\n    tag_229:\n        /* \"#utility.yul\":16509:16512   */\n      0x00\n        /* \"#utility.yul\":16530:16597   */\n      tag_377\n        /* \"#utility.yul\":16594:16596   */\n      0x16\n        /* \"#utility.yul\":16589:16592   */\n      dup4\n        /* \"#utility.yul\":16530:16597   */\n      tag_209\n      jump\t// in\n    tag_377:\n        /* \"#utility.yul\":16523:16597   */\n      swap2\n      pop\n        /* \"#utility.yul\":16606:16699   */\n      tag_378\n        /* \"#utility.yul\":16695:16698   */\n      dup3\n        /* \"#utility.yul\":16606:16699   */\n      tag_228\n      jump\t// in\n    tag_378:\n        /* \"#utility.yul\":16724:16726   */\n      0x20\n        /* \"#utility.yul\":16719:16722   */\n      dup3\n        /* \"#utility.yul\":16715:16727   */\n      add\n        /* \"#utility.yul\":16708:16727   */\n      swap1\n      pop\n        /* \"#utility.yul\":16367:16733   */\n      swap2\n      swap1\n      pop\n      jump\t// out\n        /* \"#utility.yul\":16739:17158   */\n    tag_136:\n        /* \"#utility.yul\":16905:16909   */\n      0x00\n        /* \"#utility.yul\":16943:16945   */\n      0x20\n        /* \"#utility.yul\":16932:16941   */\n      dup3\n        /* \"#utility.yul\":16928:16946   */\n      add\n        /* \"#utility.yul\":16920:16946   */\n      swap1\n      pop\n        /* \"#utility.yul\":16992:17001   */\n      dup2\n        /* \"#utility.yul\":16986:16990   */\n      dup2\n        /* \"#utility.yul\":16982:17002   */\n      sub\n        /* \"#utility.yul\":16978:16979   */\n      0x00\n        /* \"#utility.yul\":16967:16976   */\n      dup4\n        /* \"#utility.yul\":16963:16980   */\n      add\n        /* \"#utility.yul\":16956:17003   */\n      mstore\n        /* \"#utility.yul\":17020:17151   */\n      tag_380\n        /* \"#utility.yul\":17146:17150   */\n      dup2\n        /* \"#utility.yul\":17020:17151   */\n      tag_229\n      jump\t// in\n    tag_380:\n        /* \"#utility.yul\":17012:17151   */\n      swap1\n      pop\n        /* \"#utility.yul\":16739:17158   */\n      swap2\n      swap1\n      pop\n      jump\t// out\n        /* \"#utility.yul\":17164:17327   */\n    tag_230:\n        /* \"#utility.yul\":17304:17319   */\n      0x4b6579206e6f7420666f756e6400000000000000000000000000000000000000\n        /* \"#utility.yul\":17300:17301   */\n      0x00\n        /* \"#utility.yul\":17292:17298   */\n      dup3\n        /* \"#utility.yul\":17288:17302   */\n      add\n        /* \"#utility.yul\":17281:17320   */\n      mstore\n        /* \"#utility.yul\":17164:17327   */\n      pop\n      jump\t// out\n        /* \"#utility.yul\":17333:17699   */\n    tag_231:\n        /* \"#utility.yul\":17475:17478   */\n      0x00\n        /* \"#utility.yul\":17496:17563   */\n      tag_383\n        /* \"#utility.yul\":17560:17562   */\n      0x0d\n        /* \"#utility.yul\":17555:17558   */\n      dup4\n        /* \"#utility.yul\":17496:17563   */\n      tag_209\n      jump\t// in\n    tag_383:\n        /* \"#utility.yul\":17489:17563   */\n      swap2\n      pop\n        /* \"#utility.yul\":17572:17665   */\n      tag_384\n        /* \"#utility.yul\":17661:17664   */\n      dup3\n        /* \"#utility.yul\":17572:17665   */\n      tag_230\n      jump\t// in\n    tag_384:\n        /* \"#utility.yul\":17690:17692   */\n      0x20\n        /* \"#utility.yul\":17685:17688   */\n      dup3\n        /* \"#utility.yul\":17681:17693   */\n      add\n        /* \"#utility.yul\":17674:17693   */\n      swap1\n      pop\n        /* \"#utility.yul\":17333:17699   */\n      swap2\n      swap1\n      pop\n      jump\t// out\n        /* \"#utility.yul\":17705:18124   */\n    tag_150:\n        /* \"#utility.yul\":17871:17875   */\n      0x00\n        /* \"#utility.yul\":17909:17911   */\n      0x20\n        /* \"#utility.yul\":17898:17907   */\n      dup3\n        /* \"#utility.yul\":17894:17912   */\n      add\n        /* \"#utility.yul\":17886:17912   */\n      swap1\n      pop\n        /* \"#utility.yul\":17958:17967   */\n      dup2\n        /* \"#utility.yul\":17952:17956   */\n      dup2\n        /* \"#utility.yul\":17948:17968   */\n      sub\n        /* \"#utility.yul\":17944:17945   */\n      0x00\n        /* \"#utility.yul\":17933:17942   */\n      dup4\n        /* \"#utility.yul\":17929:17946   */\n      add\n        /* \"#utility.yul\":17922:17969   */\n      mstore\n        /* \"#utility.yul\":17986:18117   */\n      tag_386\n        /* \"#utility.yul\":18112:18116   */\n      dup2\n        /* \"#utility.yul\":17986:18117   */\n      tag_231\n      jump\t// in\n    tag_386:\n        /* \"#utility.yul\":17978:18117   */\n      swap1\n      pop\n        /* \"#utility.yul\":17705:18124   */\n      swap2\n      swap1\n      pop\n      jump\t// out\n\n    auxdata: 0xa2646970667358221220b3bc7706156a34c4b09befcc5e8bc2cec2f086690b3fdc21d66d2dce1387593c64736f6c634300081a0033\n}\n",
				"bytecode": {
					"linkReferences": {},
					"object": "608060405234801561000f575f80fd5b5060405161194d38038061194d83398181016040528101906100319190610344565b805f73ffffffffffffffffffffffffffffffffffffffff168173ffffffffffffffffffffffffffffffffffffffff16036100a2575f6040517f1e4fbdf7000000000000000000000000000000000000000000000000000000008152600401610099919061037e565b60405180910390fd5b6100b18161015460201b60201c565b50600180819055505f60025f6101000a81548160ff0219169083151502179055505f73ffffffffffffffffffffffffffffffffffffffff168173ffffffffffffffffffffffffffffffffffffffff1603610140576040517f08c379a0000000000000000000000000000000000000000000000000000000008152600401610137906103f1565b60405180910390fd5b61014e61021560201b60201c565b5061040f565b5f805f9054906101000a900473ffffffffffffffffffffffffffffffffffffffff169050815f806101000a81548173ffffffffffffffffffffffffffffffffffffffff021916908373ffffffffffffffffffffffffffffffffffffffff1602179055508173ffffffffffffffffffffffffffffffffffffffff168173ffffffffffffffffffffffffffffffffffffffff167f8be0079c531659141344cd1fd0a4f28419497f9722a3daafe3b4186f6b6457e060405160405180910390a35050565b61022361028360201b60201c565b600160025f6101000a81548160ff0219169083151502179055507f62e78cea01bee320cd4e420270b5ea74000d11b0c9f74754ebdbfc544b05a25861026c6102ca60201b60201c565b604051610279919061037e565b60405180910390a1565b6102916102d160201b60201c565b156102c8576040517fd93c066500000000000000000000000000000000000000000000000000000000815260040160405180910390fd5b565b5f33905090565b5f60025f9054906101000a900460ff16905090565b5f80fd5b5f73ffffffffffffffffffffffffffffffffffffffff82169050919050565b5f610313826102ea565b9050919050565b61032381610309565b811461032d575f80fd5b50565b5f8151905061033e8161031a565b92915050565b5f60208284031215610359576103586102e6565b5b5f61036684828501610330565b91505092915050565b61037881610309565b82525050565b5f6020820190506103915f83018461036f565b92915050565b5f82825260208201905092915050565b7f496e76616c6964206f776e6572000000000000000000000000000000000000005f82015250565b5f6103db600d83610397565b91506103e6826103a7565b602082019050919050565b5f6020820190508181035f830152610408816103cf565b9050919050565b6115318061041c5f395ff3fe608060405234801561000f575f80fd5b50600436106100a7575f3560e01c8063715018a61161006f578063715018a61461013c5780638456cb591461014657806389fded2f146101505780638da5cb5b1461016c578063a2036faf1461018a578063f2fde38b146101bb576100a7565b806309b19353146100ab578063336b0c46146100c75780633f4ba83a146100f8578063437b347c146101025780635c975abb1461011e575b5f80fd5b6100c560048036038101906100c09190610d57565b6101d7565b005b6100e160048036038101906100dc9190610db4565b6102d6565b6040516100ef929190610dee565b60405180910390f35b610100610406565b005b61011c60048036038101906101179190610e15565b610418565b005b61012661058b565b6040516101339190610e6d565b60405180910390f35b6101446105a0565b005b61014e6105b3565b005b61016a60048036038101906101659190610e86565b6105c5565b005b6101746107ed565b6040516101819190610f15565b60405180910390f35b6101a4600480360381019061019f9190610db4565b610814565b6040516101b2929190610fb4565b60405180910390f35b6101d560048036038101906101d09190611005565b61092e565b005b6101df6109b2565b6101e76109f8565b6101ef610a39565b5f60045f8581526020019081526020015f209050600160ff16816002015f9054906101000a900460ff1660ff161461025c576040517f08c379a00000000000000000000000000000000000000000000000000000000081526004016102539061108a565b60405180910390fd5b60035f8581526020019081526020015f205f90556002816002015f6101000a81548160ff021916908360ff16021790555042847f78bd2ada78ae840d9afbffa9908add00bfc36af05d1c3ab4c174d2e22e96487485856040516102c09291906110f2565b60405180910390a3506102d1610ac0565b505050565b5f806102e06109b2565b6102e86109f8565b6102f0610a39565b5f801b8303610334576040517f08c379a000000000000000000000000000000000000000000000000000000000815260040161032b9061115e565b60405180910390fd5b60405143815242602082015283604082015260608120925083831891505f8152506040518060800160405280428152602001428152602001600160ff1681526020015f81525060045f8481526020019081526020015f205f820151815f0155602082015181600101556040820151816002015f6101000a81548160ff021916908360ff160217905550606082015181600301559050508042837f572a41427584651b729afc9b0b065bb53579c8bbc6e033fb32b22af27c80453060405160405180910390a4610401610ac0565b915091565b61040e610a39565b610416610ac9565b565b6104206109b2565b6104286109f8565b610430610a39565b5f801b8203610474576040517f08c379a000000000000000000000000000000000000000000000000000000000815260040161046b906111c6565b60405180910390fd5b5f801b81036104b8576040517f08c379a00000000000000000000000000000000000000000000000000000000081526004016104af9061122e565b60405180910390fd5b5f801b60035f8481526020019081526020015f20541461050d576040517f08c379a000000000000000000000000000000000000000000000000000000000815260040161050490611296565b60405180910390fd5b8060035f8481526020019081526020015f20819055505f60045f8481526020019081526020015f209050806003015f81548092919061054b906112e1565b919050555042837f57cfca58694e398cde583500605e6ac971fae6d88265aee6ed6d0a4a30ab8aa360405160405180910390a350610587610ac0565b5050565b5f60025f9054906101000a900460ff16905090565b6105a8610a39565b6105b15f610b2a565b565b6105bb610a39565b6105c3610beb565b565b6105cd6109b2565b6105d56109f8565b6105dd610a39565b5f60045f8581526020019081526020015f209050600160ff16816002015f9054906101000a900460ff1660ff161461064a576040517f08c379a000000000000000000000000000000000000000000000000000000000815260040161064190611372565b60405180910390fd5b62015180816001015461065d9190611390565b42101561069f576040517f08c379a00000000000000000000000000000000000000000000000000000000081526004016106969061140d565b60405180910390fd5b5f801b60035f8581526020019081526020015f2054146106f4576040517f08c379a00000000000000000000000000000000000000000000000000000000081526004016106eb90611475565b60405180910390fd5b60035f8581526020019081526020015f205f90558160035f8581526020019081526020015f20819055506002816002015f6101000a81548160ff021916908360ff1602179055506040518060800160405280428152602001428152602001600160ff1681526020015f81525060045f8581526020019081526020015f205f820151815f0155602082015181600101556040820151816002015f6101000a81548160ff021916908360ff160217905550606082015181600301559050504283857f65ebf7759f441872e87e3400742a736999a7810c122562d126a98376e8eeda9c60405160405180910390a4506107e8610ac0565b505050565b5f805f9054906101000a900473ffffffffffffffffffffffffffffffffffffffff16905090565b5f61081d610c94565b6108256109f8565b61082d610a39565b60045f8481526020019081526020015f206040518060800160405290815f820154815260200160018201548152602001600282015f9054906101000a900460ff1660ff1660ff1681526020016003820154815250509050600160ff16816040015160ff16146108d1576040517f08c379a00000000000000000000000000000000000000000000000000000000081526004016108c89061108a565b60405180910390fd5b60035f8481526020019081526020015f205491505f801b8203610929576040517f08c379a0000000000000000000000000000000000000000000000000000000008152600401610920906114dd565b60405180910390fd5b915091565b610936610a39565b5f73ffffffffffffffffffffffffffffffffffffffff168173ffffffffffffffffffffffffffffffffffffffff16036109a6575f6040517f1e4fbdf700000000000000000000000000000000000000000000000000000000815260040161099d9190610f15565b60405180910390fd5b6109af81610b2a565b50565b6002600154036109ee576040517f3ee5aeb500000000000000000000000000000000000000000000000000000000815260040160405180910390fd5b6002600181905550565b610a0061058b565b15610a37576040517fd93c066500000000000000000000000000000000000000000000000000000000815260040160405180910390fd5b565b610a41610c4d565b73ffffffffffffffffffffffffffffffffffffffff16610a5f6107ed565b73ffffffffffffffffffffffffffffffffffffffff1614610abe57610a82610c4d565b6040517f118cdaa7000000000000000000000000000000000000000000000000000000008152600401610ab59190610f15565b60405180910390fd5b565b60018081905550565b610ad1610c54565b5f60025f6101000a81548160ff0219169083151502179055507f5db9ee0a495bf2e6ff9c91a7834c1ba4fdd244a5e8aa4e537bd38aeae4b073aa610b13610c4d565b604051610b209190610f15565b60405180910390a1565b5f805f9054906101000a900473ffffffffffffffffffffffffffffffffffffffff169050815f806101000a81548173ffffffffffffffffffffffffffffffffffffffff021916908373ffffffffffffffffffffffffffffffffffffffff1602179055508173ffffffffffffffffffffffffffffffffffffffff168173ffffffffffffffffffffffffffffffffffffffff167f8be0079c531659141344cd1fd0a4f28419497f9722a3daafe3b4186f6b6457e060405160405180910390a35050565b610bf36109f8565b600160025f6101000a81548160ff0219169083151502179055507f62e78cea01bee320cd4e420270b5ea74000d11b0c9f74754ebdbfc544b05a258610c36610c4d565b604051610c439190610f15565b60405180910390a1565b5f33905090565b610c5c61058b565b610c92576040517f8dfc202b00000000000000000000000000000000000000000000000000000000815260040160405180910390fd5b565b60405180608001604052805f81526020015f81526020015f60ff1681526020015f81525090565b5f80fd5b5f80fd5b5f819050919050565b610cd581610cc3565b8114610cdf575f80fd5b50565b5f81359050610cf081610ccc565b92915050565b5f80fd5b5f80fd5b5f80fd5b5f8083601f840112610d1757610d16610cf6565b5b8235905067ffffffffffffffff811115610d3457610d33610cfa565b5b602083019150836001820283011115610d5057610d4f610cfe565b5b9250929050565b5f805f60408486031215610d6e57610d6d610cbb565b5b5f610d7b86828701610ce2565b935050602084013567ffffffffffffffff811115610d9c57610d9b610cbf565b5b610da886828701610d02565b92509250509250925092565b5f60208284031215610dc957610dc8610cbb565b5b5f610dd684828501610ce2565b91505092915050565b610de881610cc3565b82525050565b5f604082019050610e015f830185610ddf565b610e0e6020830184610ddf565b9392505050565b5f8060408385031215610e2b57610e2a610cbb565b5b5f610e3885828601610ce2565b9250506020610e4985828601610ce2565b9150509250929050565b5f8115159050919050565b610e6781610e53565b82525050565b5f602082019050610e805f830184610e5e565b92915050565b5f805f60608486031215610e9d57610e9c610cbb565b5b5f610eaa86828701610ce2565b9350506020610ebb86828701610ce2565b9250506040610ecc86828701610ce2565b9150509250925092565b5f73ffffffffffffffffffffffffffffffffffffffff82169050919050565b5f610eff82610ed6565b9050919050565b610f0f81610ef5565b82525050565b5f602082019050610f285f830184610f06565b92915050565b5f819050919050565b610f4081610f2e565b82525050565b5f60ff82169050919050565b610f5b81610f46565b82525050565b608082015f820151610f755f850182610f37565b506020820151610f886020850182610f37565b506040820151610f9b6040850182610f52565b506060820151610fae6060850182610f37565b50505050565b5f60a082019050610fc75f830185610ddf565b610fd46020830184610f61565b9392505050565b610fe481610ef5565b8114610fee575f80fd5b50565b5f81359050610fff81610fdb565b92915050565b5f6020828403121561101a57611019610cbb565b5b5f61102784828501610ff1565b91505092915050565b5f82825260208201905092915050565b7f4b6579206e6f74206163746976650000000000000000000000000000000000005f82015250565b5f611074600e83611030565b915061107f82611040565b602082019050919050565b5f6020820190508181035f8301526110a181611068565b9050919050565b828183375f83830152505050565b5f601f19601f8301169050919050565b5f6110d18385611030565b93506110de8385846110a8565b6110e7836110b6565b840190509392505050565b5f6020820190508181035f83015261110b8184866110c6565b90509392505050565b7f5a65726f20656e74726f707900000000000000000000000000000000000000005f82015250565b5f611148600c83611030565b915061115382611114565b602082019050919050565b5f6020820190508181035f8301526111758161113c565b9050919050565b7f496e76616c6964206b65792068617368000000000000000000000000000000005f82015250565b5f6111b0601083611030565b91506111bb8261117c565b602082019050919050565b5f6020820190508181035f8301526111dd816111a4565b9050919050565b7f496e76616c696420656e63727970746564206b657900000000000000000000005f82015250565b5f611218601583611030565b9150611223826111e4565b602082019050919050565b5f6020820190508181035f8301526112458161120c565b9050919050565b7f4b657920616c72656164792065786973747300000000000000000000000000005f82015250565b5f611280601283611030565b915061128b8261124c565b602082019050919050565b5f6020820190508181035f8301526112ad81611274565b9050919050565b7f4e487b71000000000000000000000000000000000000000000000000000000005f52601160045260245ffd5b5f6112eb82610f2e565b91507fffffffffffffffffffffffffffffffffffffffffffffffffffffffffffffffff820361131d5761131c6112b4565b5b600182019050919050565b7f496e76616c6964206f6c64206b657900000000000000000000000000000000005f82015250565b5f61135c600f83611030565b915061136782611328565b602082019050919050565b5f6020820190508181035f83015261138981611350565b9050919050565b5f61139a82610f2e565b91506113a583610f2e565b92508282019050808211156113bd576113bc6112b4565b5b92915050565b7f436f6f6c696e6720706572696f642061637469766500000000000000000000005f82015250565b5f6113f7601583611030565b9150611402826113c3565b602082019050919050565b5f6020820190508181035f830152611424816113eb565b9050919050565b7f4e6577206b657920616c726561647920657869737473000000000000000000005f82015250565b5f61145f601683611030565b915061146a8261142b565b602082019050919050565b5f6020820190508181035f83015261148c81611453565b9050919050565b7f4b6579206e6f7420666f756e64000000000000000000000000000000000000005f82015250565b5f6114c7600d83611030565b91506114d282611493565b602082019050919050565b5f6020820190508181035f8301526114f4816114bb565b905091905056fea2646970667358221220b3bc7706156a34c4b09befcc5e8bc2cec2f086690b3fdc21d66d2dce1387593c64736f6c634300081a0033",
					"opcodes": "PUSH1 0x80 PUSH1 0x40 MSTORE CALLVALUE DUP1 ISZERO PUSH2 0xF JUMPI PUSH0 DUP1 REVERT JUMPDEST POP PUSH1 0x40 MLOAD PUSH2 0x194D CODESIZE SUB DUP1 PUSH2 0x194D DUP4 CODECOPY DUP2 DUP2 ADD PUSH1 0x40 MSTORE DUP2 ADD SWAP1 PUSH2 0x31 SWAP2 SWAP1 PUSH2 0x344 JUMP JUMPDEST DUP1 PUSH0 PUSH20 0xFFFFFFFFFFFFFFFFFFFFFFFFFFFFFFFFFFFFFFFF AND DUP2 PUSH20 0xFFFFFFFFFFFFFFFFFFFFFFFFFFFFFFFFFFFFFFFF AND SUB PUSH2 0xA2 JUMPI PUSH0 PUSH1 0x40 MLOAD PUSH32 0x1E4FBDF700000000000000000000000000000000000000000000000000000000 DUP2 MSTORE PUSH1 0x4 ADD PUSH2 0x99 SWAP2 SWAP1 PUSH2 0x37E JUMP JUMPDEST PUSH1 0x40 MLOAD DUP1 SWAP2 SUB SWAP1 REVERT JUMPDEST PUSH2 0xB1 DUP2 PUSH2 0x154 PUSH1 0x20 SHL PUSH1 0x20 SHR JUMP JUMPDEST POP PUSH1 0x1 DUP1 DUP2 SWAP1 SSTORE POP PUSH0 PUSH1 0x2 PUSH0 PUSH2 0x100 EXP DUP2 SLOAD DUP2 PUSH1 0xFF MUL NOT AND SWAP1 DUP4 ISZERO ISZERO MUL OR SWAP1 SSTORE POP PUSH0 PUSH20 0xFFFFFFFFFFFFFFFFFFFFFFFFFFFFFFFFFFFFFFFF AND DUP2 PUSH20 0xFFFFFFFFFFFFFFFFFFFFFFFFFFFFFFFFFFFFFFFF AND SUB PUSH2 0x140 JUMPI PUSH1 0x40 MLOAD PUSH32 0x8C379A000000000000000000000000000000000000000000000000000000000 DUP2 MSTORE PUSH1 0x4 ADD PUSH2 0x137 SWAP1 PUSH2 0x3F1 JUMP JUMPDEST PUSH1 0x40 MLOAD DUP1 SWAP2 SUB SWAP1 REVERT JUMPDEST PUSH2 0x14E PUSH2 0x215 PUSH1 0x20 SHL PUSH1 0x20 SHR JUMP JUMPDEST POP PUSH2 0x40F JUMP JUMPDEST PUSH0 DUP1 PUSH0 SWAP1 SLOAD SWAP1 PUSH2 0x100 EXP SWAP1 DIV PUSH20 0xFFFFFFFFFFFFFFFFFFFFFFFFFFFFFFFFFFFFFFFF AND SWAP1 POP DUP2 PUSH0 DUP1 PUSH2 0x100 EXP DUP2 SLOAD DUP2 PUSH20 0xFFFFFFFFFFFFFFFFFFFFFFFFFFFFFFFFFFFFFFFF MUL NOT AND SWAP1 DUP4 PUSH20 0xFFFFFFFFFFFFFFFFFFFFFFFFFFFFFFFFFFFFFFFF AND MUL OR SWAP1 SSTORE POP DUP2 PUSH20 0xFFFFFFFFFFFFFFFFFFFFFFFFFFFFFFFFFFFFFFFF AND DUP2 PUSH20 0xFFFFFFFFFFFFFFFFFFFFFFFFFFFFFFFFFFFFFFFF AND PUSH32 0x8BE0079C531659141344CD1FD0A4F28419497F9722A3DAAFE3B4186F6B6457E0 PUSH1 0x40 MLOAD PUSH1 0x40 MLOAD DUP1 SWAP2 SUB SWAP1 LOG3 POP POP JUMP JUMPDEST PUSH2 0x223 PUSH2 0x283 PUSH1 0x20 SHL PUSH1 0x20 SHR JUMP JUMPDEST PUSH1 0x1 PUSH1 0x2 PUSH0 PUSH2 0x100 EXP DUP2 SLOAD DUP2 PUSH1 0xFF MUL NOT AND SWAP1 DUP4 ISZERO ISZERO MUL OR SWAP1 SSTORE POP PUSH32 0x62E78CEA01BEE320CD4E420270B5EA74000D11B0C9F74754EBDBFC544B05A258 PUSH2 0x26C PUSH2 0x2CA PUSH1 0x20 SHL PUSH1 0x20 SHR JUMP JUMPDEST PUSH1 0x40 MLOAD PUSH2 0x279 SWAP2 SWAP1 PUSH2 0x37E JUMP JUMPDEST PUSH1 0x40 MLOAD DUP1 SWAP2 SUB SWAP1 LOG1 JUMP JUMPDEST PUSH2 0x291 PUSH2 0x2D1 PUSH1 0x20 SHL PUSH1 0x20 SHR JUMP JUMPDEST ISZERO PUSH2 0x2C8 JUMPI PUSH1 0x40 MLOAD PUSH32 0xD93C066500000000000000000000000000000000000000000000000000000000 DUP2 MSTORE PUSH1 0x4 ADD PUSH1 0x40 MLOAD DUP1 SWAP2 SUB SWAP1 REVERT JUMPDEST JUMP JUMPDEST PUSH0 CALLER SWAP1 POP SWAP1 JUMP JUMPDEST PUSH0 PUSH1 0x2 PUSH0 SWAP1 SLOAD SWAP1 PUSH2 0x100 EXP SWAP1 DIV PUSH1 0xFF AND SWAP1 POP SWAP1 JUMP JUMPDEST PUSH0 DUP1 REVERT JUMPDEST PUSH0 PUSH20 0xFFFFFFFFFFFFFFFFFFFFFFFFFFFFFFFFFFFFFFFF DUP3 AND SWAP1 POP SWAP2 SWAP1 POP JUMP JUMPDEST PUSH0 PUSH2 0x313 DUP3 PUSH2 0x2EA JUMP JUMPDEST SWAP1 POP SWAP2 SWAP1 POP JUMP JUMPDEST PUSH2 0x323 DUP2 PUSH2 0x309 JUMP JUMPDEST DUP2 EQ PUSH2 0x32D JUMPI PUSH0 DUP1 REVERT JUMPDEST POP JUMP JUMPDEST PUSH0 DUP2 MLOAD SWAP1 POP PUSH2 0x33E DUP2 PUSH2 0x31A JUMP JUMPDEST SWAP3 SWAP2 POP POP JUMP JUMPDEST PUSH0 PUSH1 0x20 DUP3 DUP5 SUB SLT ISZERO PUSH2 0x359 JUMPI PUSH2 0x358 PUSH2 0x2E6 JUMP JUMPDEST JUMPDEST PUSH0 PUSH2 0x366 DUP5 DUP3 DUP6 ADD PUSH2 0x330 JUMP JUMPDEST SWAP2 POP POP SWAP3 SWAP2 POP POP JUMP JUMPDEST PUSH2 0x378 DUP2 PUSH2 0x309 JUMP JUMPDEST DUP3 MSTORE POP POP JUMP JUMPDEST PUSH0 PUSH1 0x20 DUP3 ADD SWAP1 POP PUSH2 0x391 PUSH0 DUP4 ADD DUP5 PUSH2 0x36F JUMP JUMPDEST SWAP3 SWAP2 POP POP JUMP JUMPDEST PUSH0 DUP3 DUP3 MSTORE PUSH1 0x20 DUP3 ADD SWAP1 POP SWAP3 SWAP2 POP POP JUMP JUMPDEST PUSH32 0x496E76616C6964206F776E657200000000000000000000000000000000000000 PUSH0 DUP3 ADD MSTORE POP JUMP JUMPDEST PUSH0 PUSH2 0x3DB PUSH1 0xD DUP4 PUSH2 0x397 JUMP JUMPDEST SWAP2 POP PUSH2 0x3E6 DUP3 PUSH2 0x3A7 JUMP JUMPDEST PUSH1 0x20 DUP3 ADD SWAP1 POP SWAP2 SWAP1 POP JUMP JUMPDEST PUSH0 PUSH1 0x20 DUP3 ADD SWAP1 POP DUP2 DUP2 SUB PUSH0 DUP4 ADD MSTORE PUSH2 0x408 DUP2 PUSH2 0x3CF JUMP JUMPDEST SWAP1 POP SWAP2 SWAP1 POP JUMP JUMPDEST PUSH2 0x1531 DUP1 PUSH2 0x41C PUSH0 CODECOPY PUSH0 RETURN INVALID PUSH1 0x80 PUSH1 0x40 MSTORE CALLVALUE DUP1 ISZERO PUSH2 0xF JUMPI PUSH0 DUP1 REVERT JUMPDEST POP PUSH1 0x4 CALLDATASIZE LT PUSH2 0xA7 JUMPI PUSH0 CALLDATALOAD PUSH1 0xE0 SHR DUP1 PUSH4 0x715018A6 GT PUSH2 0x6F JUMPI DUP1 PUSH4 0x715018A6 EQ PUSH2 0x13C JUMPI DUP1 PUSH4 0x8456CB59 EQ PUSH2 0x146 JUMPI DUP1 PUSH4 0x89FDED2F EQ PUSH2 0x150 JUMPI DUP1 PUSH4 0x8DA5CB5B EQ PUSH2 0x16C JUMPI DUP1 PUSH4 0xA2036FAF EQ PUSH2 0x18A JUMPI DUP1 PUSH4 0xF2FDE38B EQ PUSH2 0x1BB JUMPI PUSH2 0xA7 JUMP JUMPDEST DUP1 PUSH4 0x9B19353 EQ PUSH2 0xAB JUMPI DUP1 PUSH4 0x336B0C46 EQ PUSH2 0xC7 JUMPI DUP1 PUSH4 0x3F4BA83A EQ PUSH2 0xF8 JUMPI DUP1 PUSH4 0x437B347C EQ PUSH2 0x102 JUMPI DUP1 PUSH4 0x5C975ABB EQ PUSH2 0x11E JUMPI JUMPDEST PUSH0 DUP1 REVERT JUMPDEST PUSH2 0xC5 PUSH1 0x4 DUP1 CALLDATASIZE SUB DUP2 ADD SWAP1 PUSH2 0xC0 SWAP2 SWAP1 PUSH2 0xD57 JUMP JUMPDEST PUSH2 0x1D7 JUMP JUMPDEST STOP JUMPDEST PUSH2 0xE1 PUSH1 0x4 DUP1 CALLDATASIZE SUB DUP2 ADD SWAP1 PUSH2 0xDC SWAP2 SWAP1 PUSH2 0xDB4 JUMP JUMPDEST PUSH2 0x2D6 JUMP JUMPDEST PUSH1 0x40 MLOAD PUSH2 0xEF SWAP3 SWAP2 SWAP1 PUSH2 0xDEE JUMP JUMPDEST PUSH1 0x40 MLOAD DUP1 SWAP2 SUB SWAP1 RETURN JUMPDEST PUSH2 0x100 PUSH2 0x406 JUMP JUMPDEST STOP JUMPDEST PUSH2 0x11C PUSH1 0x4 DUP1 CALLDATASIZE SUB DUP2 ADD SWAP1 PUSH2 0x117 SWAP2 SWAP1 PUSH2 0xE15 JUMP JUMPDEST PUSH2 0x418 JUMP JUMPDEST STOP JUMPDEST PUSH2 0x126 PUSH2 0x58B JUMP JUMPDEST PUSH1 0x40 MLOAD PUSH2 0x133 SWAP2 SWAP1 PUSH2 0xE6D JUMP JUMPDEST PUSH1 0x40 MLOAD DUP1 SWAP2 SUB SWAP1 RETURN JUMPDEST PUSH2 0x144 PUSH2 0x5A0 JUMP JUMPDEST STOP JUMPDEST PUSH2 0x14E PUSH2 0x5B3 JUMP JUMPDEST STOP JUMPDEST PUSH2 0x16A PUSH1 0x4 DUP1 CALLDATASIZE SUB DUP2 ADD SWAP1 PUSH2 0x165 SWAP2 SWAP1 PUSH2 0xE86 JUMP JUMPDEST PUSH2 0x5C5 JUMP JUMPDEST STOP JUMPDEST PUSH2 0x174 PUSH2 0x7ED JUMP JUMPDEST PUSH1 0x40 MLOAD PUSH2 0x181 SWAP2 SWAP1 PUSH2 0xF15 JUMP JUMPDEST PUSH1 0x40 MLOAD DUP1 SWAP2 SUB SWAP1 RETURN JUMPDEST PUSH2 0x1A4 PUSH1 0x4 DUP1 CALLDATASIZE SUB DUP2 ADD SWAP1 PUSH2 0x19F SWAP2 SWAP1 PUSH2 0xDB4 JUMP JUMPDEST PUSH2 0x814 JUMP JUMPDEST PUSH1 0x40 MLOAD PUSH2 0x1B2 SWAP3 SWAP2 SWAP1 PUSH2 0xFB4 JUMP JUMPDEST PUSH1 0x40 MLOAD DUP1 SWAP2 SUB SWAP1 RETURN JUMPDEST PUSH2 0x1D5 PUSH1 0x4 DUP1 CALLDATASIZE SUB DUP2 ADD SWAP1 PUSH2 0x1D0 SWAP2 SWAP1 PUSH2 0x1005 JUMP JUMPDEST PUSH2 0x92E JUMP JUMPDEST STOP JUMPDEST PUSH2 0x1DF PUSH2 0x9B2 JUMP JUMPDEST PUSH2 0x1E7 PUSH2 0x9F8 JUMP JUMPDEST PUSH2 0x1EF PUSH2 0xA39 JUMP JUMPDEST PUSH0 PUSH1 0x4 PUSH0 DUP6 DUP2 MSTORE PUSH1 0x20 ADD SWAP1 DUP2 MSTORE PUSH1 0x20 ADD PUSH0 KECCAK256 SWAP1 POP PUSH1 0x1 PUSH1 0xFF AND DUP2 PUSH1 0x2 ADD PUSH0 SWAP1 SLOAD SWAP1 PUSH2 0x100 EXP SWAP1 DIV PUSH1 0xFF AND PUSH1 0xFF AND EQ PUSH2 0x25C JUMPI PUSH1 0x40 MLOAD PUSH32 0x8C379A000000000000000000000000000000000000000000000000000000000 DUP2 MSTORE PUSH1 0x4 ADD PUSH2 0x253 SWAP1 PUSH2 0x108A JUMP JUMPDEST PUSH1 0x40 MLOAD DUP1 SWAP2 SUB SWAP1 REVERT JUMPDEST PUSH1 0x3 PUSH0 DUP6 DUP2 MSTORE PUSH1 0x20 ADD SWAP1 DUP2 MSTORE PUSH1 0x20 ADD PUSH0 KECCAK256 PUSH0 SWAP1 SSTORE PUSH1 0x2 DUP2 PUSH1 0x2 ADD PUSH0 PUSH2 0x100 EXP DUP2 SLOAD DUP2 PUSH1 0xFF MUL NOT AND SWAP1 DUP4 PUSH1 0xFF AND MUL OR SWAP1 SSTORE POP TIMESTAMP DUP5 PUSH32 0x78BD2ADA78AE840D9AFBFFA9908ADD00BFC36AF05D1C3AB4C174D2E22E964874 DUP6 DUP6 PUSH1 0x40 MLOAD PUSH2 0x2C0 SWAP3 SWAP2 SWAP1 PUSH2 0x10F2 JUMP JUMPDEST PUSH1 0x40 MLOAD DUP1 SWAP2 SUB SWAP1 LOG3 POP PUSH2 0x2D1 PUSH2 0xAC0 JUMP JUMPDEST POP POP POP JUMP JUMPDEST PUSH0 DUP1 PUSH2 0x2E0 PUSH2 0x9B2 JUMP JUMPDEST PUSH2 0x2E8 PUSH2 0x9F8 JUMP JUMPDEST PUSH2 0x2F0 PUSH2 0xA39 JUMP JUMPDEST PUSH0 DUP1 SHL DUP4 SUB PUSH2 0x334 JUMPI PUSH1 0x40 MLOAD PUSH32 0x8C379A000000000000000000000000000000000000000000000000000000000 DUP2 MSTORE PUSH1 0x4 ADD PUSH2 0x32B SWAP1 PUSH2 0x115E JUMP JUMPDEST PUSH1 0x40 MLOAD DUP1 SWAP2 SUB SWAP1 REVERT JUMPDEST PUSH1 0x40 MLOAD NUMBER DUP2 MSTORE TIMESTAMP PUSH1 0x20 DUP3 ADD MSTORE DUP4 PUSH1 0x40 DUP3 ADD MSTORE PUSH1 0x60 DUP2 KECCAK256 SWAP3 POP DUP4 DUP4 XOR SWAP2 POP PUSH0 DUP2 MSTORE POP PUSH1 0x40 MLOAD DUP1 PUSH1 0x80 ADD PUSH1 0x40 MSTORE DUP1 TIMESTAMP DUP2 MSTORE PUSH1 0x20 ADD TIMESTAMP DUP2 MSTORE PUSH1 0x20 ADD PUSH1 0x1 PUSH1 0xFF AND DUP2 MSTORE PUSH1 0x20 ADD PUSH0 DUP2 MSTORE POP PUSH1 0x4 PUSH0 DUP5 DUP2 MSTORE PUSH1 0x20 ADD SWAP1 DUP2 MSTORE PUSH1 0x20 ADD PUSH0 KECCAK256 PUSH0 DUP3 ADD MLOAD DUP2 PUSH0 ADD SSTORE PUSH1 0x20 DUP3 ADD MLOAD DUP2 PUSH1 0x1 ADD SSTORE PUSH1 0x40 DUP3 ADD MLOAD DUP2 PUSH1 0x2 ADD PUSH0 PUSH2 0x100 EXP DUP2 SLOAD DUP2 PUSH1 0xFF MUL NOT AND SWAP1 DUP4 PUSH1 0xFF AND MUL OR SWAP1 SSTORE POP PUSH1 0x60 DUP3 ADD MLOAD DUP2 PUSH1 0x3 ADD SSTORE SWAP1 POP POP DUP1 TIMESTAMP DUP4 PUSH32 0x572A41427584651B729AFC9B0B065BB53579C8BBC6E033FB32B22AF27C804530 PUSH1 0x40 MLOAD PUSH1 0x40 MLOAD DUP1 SWAP2 SUB SWAP1 LOG4 PUSH2 0x401 PUSH2 0xAC0 JUMP JUMPDEST SWAP2 POP SWAP2 JUMP JUMPDEST PUSH2 0x40E PUSH2 0xA39 JUMP JUMPDEST PUSH2 0x416 PUSH2 0xAC9 JUMP JUMPDEST JUMP JUMPDEST PUSH2 0x420 PUSH2 0x9B2 JUMP JUMPDEST PUSH2 0x428 PUSH2 0x9F8 JUMP JUMPDEST PUSH2 0x430 PUSH2 0xA39 JUMP JUMPDEST PUSH0 DUP1 SHL DUP3 SUB PUSH2 0x474 JUMPI PUSH1 0x40 MLOAD PUSH32 0x8C379A000000000000000000000000000000000000000000000000000000000 DUP2 MSTORE PUSH1 0x4 ADD PUSH2 0x46B SWAP1 PUSH2 0x11C6 JUMP JUMPDEST PUSH1 0x40 MLOAD DUP1 SWAP2 SUB SWAP1 REVERT JUMPDEST PUSH0 DUP1 SHL DUP2 SUB PUSH2 0x4B8 JUMPI PUSH1 0x40 MLOAD PUSH32 0x8C379A000000000000000000000000000000000000000000000000000000000 DUP2 MSTORE PUSH1 0x4 ADD PUSH2 0x4AF SWAP1 PUSH2 0x122E JUMP JUMPDEST PUSH1 0x40 MLOAD DUP1 SWAP2 SUB SWAP1 REVERT JUMPDEST PUSH0 DUP1 SHL PUSH1 0x3 PUSH0 DUP5 DUP2 MSTORE PUSH1 0x20 ADD SWAP1 DUP2 MSTORE PUSH1 0x20 ADD PUSH0 KECCAK256 SLOAD EQ PUSH2 0x50D JUMPI PUSH1 0x40 MLOAD PUSH32 0x8C379A000000000000000000000000000000000000000000000000000000000 DUP2 MSTORE PUSH1 0x4 ADD PUSH2 0x504 SWAP1 PUSH2 0x1296 JUMP JUMPDEST PUSH1 0x40 MLOAD DUP1 SWAP2 SUB SWAP1 REVERT JUMPDEST DUP1 PUSH1 0x3 PUSH0 DUP5 DUP2 MSTORE PUSH1 0x20 ADD SWAP1 DUP2 MSTORE PUSH1 0x20 ADD PUSH0 KECCAK256 DUP2 SWAP1 SSTORE POP PUSH0 PUSH1 0x4 PUSH0 DUP5 DUP2 MSTORE PUSH1 0x20 ADD SWAP1 DUP2 MSTORE PUSH1 0x20 ADD PUSH0 KECCAK256 SWAP1 POP DUP1 PUSH1 0x3 ADD PUSH0 DUP2 SLOAD DUP1 SWAP3 SWAP2 SWAP1 PUSH2 0x54B SWAP1 PUSH2 0x12E1 JUMP JUMPDEST SWAP2 SWAP1 POP SSTORE POP TIMESTAMP DUP4 PUSH32 0x57CFCA58694E398CDE583500605E6AC971FAE6D88265AEE6ED6D0A4A30AB8AA3 PUSH1 0x40 MLOAD PUSH1 0x40 MLOAD DUP1 SWAP2 SUB SWAP1 LOG3 POP PUSH2 0x587 PUSH2 0xAC0 JUMP JUMPDEST POP POP JUMP JUMPDEST PUSH0 PUSH1 0x2 PUSH0 SWAP1 SLOAD SWAP1 PUSH2 0x100 EXP SWAP1 DIV PUSH1 0xFF AND SWAP1 POP SWAP1 JUMP JUMPDEST PUSH2 0x5A8 PUSH2 0xA39 JUMP JUMPDEST PUSH2 0x5B1 PUSH0 PUSH2 0xB2A JUMP JUMPDEST JUMP JUMPDEST PUSH2 0x5BB PUSH2 0xA39 JUMP JUMPDEST PUSH2 0x5C3 PUSH2 0xBEB JUMP JUMPDEST JUMP JUMPDEST PUSH2 0x5CD PUSH2 0x9B2 JUMP JUMPDEST PUSH2 0x5D5 PUSH2 0x9F8 JUMP JUMPDEST PUSH2 0x5DD PUSH2 0xA39 JUMP JUMPDEST PUSH0 PUSH1 0x4 PUSH0 DUP6 DUP2 MSTORE PUSH1 0x20 ADD SWAP1 DUP2 MSTORE PUSH1 0x20 ADD PUSH0 KECCAK256 SWAP1 POP PUSH1 0x1 PUSH1 0xFF AND DUP2 PUSH1 0x2 ADD PUSH0 SWAP1 SLOAD SWAP1 PUSH2 0x100 EXP SWAP1 DIV PUSH1 0xFF AND PUSH1 0xFF AND EQ PUSH2 0x64A JUMPI PUSH1 0x40 MLOAD PUSH32 0x8C379A000000000000000000000000000000000000000000000000000000000 DUP2 MSTORE PUSH1 0x4 ADD PUSH2 0x641 SWAP1 PUSH2 0x1372 JUMP JUMPDEST PUSH1 0x40 MLOAD DUP1 SWAP2 SUB SWAP1 REVERT JUMPDEST PUSH3 0x15180 DUP2 PUSH1 0x1 ADD SLOAD PUSH2 0x65D SWAP2 SWAP1 PUSH2 0x1390 JUMP JUMPDEST TIMESTAMP LT ISZERO PUSH2 0x69F JUMPI PUSH1 0x40 MLOAD PUSH32 0x8C379A000000000000000000000000000000000000000000000000000000000 DUP2 MSTORE PUSH1 0x4 ADD PUSH2 0x696 SWAP1 PUSH2 0x140D JUMP JUMPDEST PUSH1 0x40 MLOAD DUP1 SWAP2 SUB SWAP1 REVERT JUMPDEST PUSH0 DUP1 SHL PUSH1 0x3 PUSH0 DUP6 DUP2 MSTORE PUSH1 0x20 ADD SWAP1 DUP2 MSTORE PUSH1 0x20 ADD PUSH0 KECCAK256 SLOAD EQ PUSH2 0x6F4 JUMPI PUSH1 0x40 MLOAD PUSH32 0x8C379A000000000000000000000000000000000000000000000000000000000 DUP2 MSTORE PUSH1 0x4 ADD PUSH2 0x6EB SWAP1 PUSH2 0x1475 JUMP JUMPDEST PUSH1 0x40 MLOAD DUP1 SWAP2 SUB SWAP1 REVERT JUMPDEST PUSH1 0x3 PUSH0 DUP6 DUP2 MSTORE PUSH1 0x20 ADD SWAP1 DUP2 MSTORE PUSH1 0x20 ADD PUSH0 KECCAK256 PUSH0 SWAP1 SSTORE DUP2 PUSH1 0x3 PUSH0 DUP6 DUP2 MSTORE PUSH1 0x20 ADD SWAP1 DUP2 MSTORE PUSH1 0x20 ADD PUSH0 KECCAK256 DUP2 SWAP1 SSTORE POP PUSH1 0x2 DUP2 PUSH1 0x2 ADD PUSH0 PUSH2 0x100 EXP DUP2 SLOAD DUP2 PUSH1 0xFF MUL NOT AND SWAP1 DUP4 PUSH1 0xFF AND MUL OR SWAP1 SSTORE POP PUSH1 0x40 MLOAD DUP1 PUSH1 0x80 ADD PUSH1 0x40 MSTORE DUP1 TIMESTAMP DUP2 MSTORE PUSH1 0x20 ADD TIMESTAMP DUP2 MSTORE PUSH1 0x20 ADD PUSH1 0x1 PUSH1 0xFF AND DUP2 MSTORE PUSH1 0x20 ADD PUSH0 DUP2 MSTORE POP PUSH1 0x4 PUSH0 DUP6 DUP2 MSTORE PUSH1 0x20 ADD SWAP1 DUP2 MSTORE PUSH1 0x20 ADD PUSH0 KECCAK256 PUSH0 DUP3 ADD MLOAD DUP2 PUSH0 ADD SSTORE PUSH1 0x20 DUP3 ADD MLOAD DUP2 PUSH1 0x1 ADD SSTORE PUSH1 0x40 DUP3 ADD MLOAD DUP2 PUSH1 0x2 ADD PUSH0 PUSH2 0x100 EXP DUP2 SLOAD DUP2 PUSH1 0xFF MUL NOT AND SWAP1 DUP4 PUSH1 0xFF AND MUL OR SWAP1 SSTORE POP PUSH1 0x60 DUP3 ADD MLOAD DUP2 PUSH1 0x3 ADD SSTORE SWAP1 POP POP TIMESTAMP DUP4 DUP6 PUSH32 0x65EBF7759F441872E87E3400742A736999A7810C122562D126A98376E8EEDA9C PUSH1 0x40 MLOAD PUSH1 0x40 MLOAD DUP1 SWAP2 SUB SWAP1 LOG4 POP PUSH2 0x7E8 PUSH2 0xAC0 JUMP JUMPDEST POP POP POP JUMP JUMPDEST PUSH0 DUP1 PUSH0 SWAP1 SLOAD SWAP1 PUSH2 0x100 EXP SWAP1 DIV PUSH20 0xFFFFFFFFFFFFFFFFFFFFFFFFFFFFFFFFFFFFFFFF AND SWAP1 POP SWAP1 JUMP JUMPDEST PUSH0 PUSH2 0x81D PUSH2 0xC94 JUMP JUMPDEST PUSH2 0x825 PUSH2 0x9F8 JUMP JUMPDEST PUSH2 0x82D PUSH2 0xA39 JUMP JUMPDEST PUSH1 0x4 PUSH0 DUP5 DUP2 MSTORE PUSH1 0x20 ADD SWAP1 DUP2 MSTORE PUSH1 0x20 ADD PUSH0 KECCAK256 PUSH1 0x40 MLOAD DUP1 PUSH1 0x80 ADD PUSH1 0x40 MSTORE SWAP1 DUP2 PUSH0 DUP3 ADD SLOAD DUP2 MSTORE PUSH1 0x20 ADD PUSH1 0x1 DUP3 ADD SLOAD DUP2 MSTORE PUSH1 0x20 ADD PUSH1 0x2 DUP3 ADD PUSH0 SWAP1 SLOAD SWAP1 PUSH2 0x100 EXP SWAP1 DIV PUSH1 0xFF AND PUSH1 0xFF AND PUSH1 0xFF AND DUP2 MSTORE PUSH1 0x20 ADD PUSH1 0x3 DUP3 ADD SLOAD DUP2 MSTORE POP POP SWAP1 POP PUSH1 0x1 PUSH1 0xFF AND DUP2 PUSH1 0x40 ADD MLOAD PUSH1 0xFF AND EQ PUSH2 0x8D1 JUMPI PUSH1 0x40 MLOAD PUSH32 0x8C379A000000000000000000000000000000000000000000000000000000000 DUP2 MSTORE PUSH1 0x4 ADD PUSH2 0x8C8 SWAP1 PUSH2 0x108A JUMP JUMPDEST PUSH1 0x40 MLOAD DUP1 SWAP2 SUB SWAP1 REVERT JUMPDEST PUSH1 0x3 PUSH0 DUP5 DUP2 MSTORE PUSH1 0x20 ADD SWAP1 DUP2 MSTORE PUSH1 0x20 ADD PUSH0 KECCAK256 SLOAD SWAP2 POP PUSH0 DUP1 SHL DUP3 SUB PUSH2 0x929 JUMPI PUSH1 0x40 MLOAD PUSH32 0x8C379A000000000000000000000000000000000000000000000000000000000 DUP2 MSTORE PUSH1 0x4 ADD PUSH2 0x920 SWAP1 PUSH2 0x14DD JUMP JUMPDEST PUSH1 0x40 MLOAD DUP1 SWAP2 SUB SWAP1 REVERT JUMPDEST SWAP2 POP SWAP2 JUMP JUMPDEST PUSH2 0x936 PUSH2 0xA39 JUMP JUMPDEST PUSH0 PUSH20 0xFFFFFFFFFFFFFFFFFFFFFFFFFFFFFFFFFFFFFFFF AND DUP2 PUSH20 0xFFFFFFFFFFFFFFFFFFFFFFFFFFFFFFFFFFFFFFFF AND SUB PUSH2 0x9A6 JUMPI PUSH0 PUSH1 0x40 MLOAD PUSH32 0x1E4FBDF700000000000000000000000000000000000000000000000000000000 DUP2 MSTORE PUSH1 0x4 ADD PUSH2 0x99D SWAP2 SWAP1 PUSH2 0xF15 JUMP JUMPDEST PUSH1 0x40 MLOAD DUP1 SWAP2 SUB SWAP1 REVERT JUMPDEST PUSH2 0x9AF DUP2 PUSH2 0xB2A JUMP JUMPDEST POP JUMP JUMPDEST PUSH1 0x2 PUSH1 0x1 SLOAD SUB PUSH2 0x9EE JUMPI PUSH1 0x40 MLOAD PUSH32 0x3EE5AEB500000000000000000000000000000000000000000000000000000000 DUP2 MSTORE PUSH1 0x4 ADD PUSH1 0x40 MLOAD DUP1 SWAP2 SUB SWAP1 REVERT JUMPDEST PUSH1 0x2 PUSH1 0x1 DUP2 SWAP1 SSTORE POP JUMP JUMPDEST PUSH2 0xA00 PUSH2 0x58B JUMP JUMPDEST ISZERO PUSH2 0xA37 JUMPI PUSH1 0x40 MLOAD PUSH32 0xD93C066500000000000000000000000000000000000000000000000000000000 DUP2 MSTORE PUSH1 0x4 ADD PUSH1 0x40 MLOAD DUP1 SWAP2 SUB SWAP1 REVERT JUMPDEST JUMP JUMPDEST PUSH2 0xA41 PUSH2 0xC4D JUMP JUMPDEST PUSH20 0xFFFFFFFFFFFFFFFFFFFFFFFFFFFFFFFFFFFFFFFF AND PUSH2 0xA5F PUSH2 0x7ED JUMP JUMPDEST PUSH20 0xFFFFFFFFFFFFFFFFFFFFFFFFFFFFFFFFFFFFFFFF AND EQ PUSH2 0xABE JUMPI PUSH2 0xA82 PUSH2 0xC4D JUMP JUMPDEST PUSH1 0x40 MLOAD PUSH32 0x118CDAA700000000000000000000000000000000000000000000000000000000 DUP2 MSTORE PUSH1 0x4 ADD PUSH2 0xAB5 SWAP2 SWAP1 PUSH2 0xF15 JUMP JUMPDEST PUSH1 0x40 MLOAD DUP1 SWAP2 SUB SWAP1 REVERT JUMPDEST JUMP JUMPDEST PUSH1 0x1 DUP1 DUP2 SWAP1 SSTORE POP JUMP JUMPDEST PUSH2 0xAD1 PUSH2 0xC54 JUMP JUMPDEST PUSH0 PUSH1 0x2 PUSH0 PUSH2 0x100 EXP DUP2 SLOAD DUP2 PUSH1 0xFF MUL NOT AND SWAP1 DUP4 ISZERO ISZERO MUL OR SWAP1 SSTORE POP PUSH32 0x5DB9EE0A495BF2E6FF9C91A7834C1BA4FDD244A5E8AA4E537BD38AEAE4B073AA PUSH2 0xB13 PUSH2 0xC4D JUMP JUMPDEST PUSH1 0x40 MLOAD PUSH2 0xB20 SWAP2 SWAP1 PUSH2 0xF15 JUMP JUMPDEST PUSH1 0x40 MLOAD DUP1 SWAP2 SUB SWAP1 LOG1 JUMP JUMPDEST PUSH0 DUP1 PUSH0 SWAP1 SLOAD SWAP1 PUSH2 0x100 EXP SWAP1 DIV PUSH20 0xFFFFFFFFFFFFFFFFFFFFFFFFFFFFFFFFFFFFFFFF AND SWAP1 POP DUP2 PUSH0 DUP1 PUSH2 0x100 EXP DUP2 SLOAD DUP2 PUSH20 0xFFFFFFFFFFFFFFFFFFFFFFFFFFFFFFFFFFFFFFFF MUL NOT AND SWAP1 DUP4 PUSH20 0xFFFFFFFFFFFFFFFFFFFFFFFFFFFFFFFFFFFFFFFF AND MUL OR SWAP1 SSTORE POP DUP2 PUSH20 0xFFFFFFFFFFFFFFFFFFFFFFFFFFFFFFFFFFFFFFFF AND DUP2 PUSH20 0xFFFFFFFFFFFFFFFFFFFFFFFFFFFFFFFFFFFFFFFF AND PUSH32 0x8BE0079C531659141344CD1FD0A4F28419497F9722A3DAAFE3B4186F6B6457E0 PUSH1 0x40 MLOAD PUSH1 0x40 MLOAD DUP1 SWAP2 SUB SWAP1 LOG3 POP POP JUMP JUMPDEST PUSH2 0xBF3 PUSH2 0x9F8 JUMP JUMPDEST PUSH1 0x1 PUSH1 0x2 PUSH0 PUSH2 0x100 EXP DUP2 SLOAD DUP2 PUSH1 0xFF MUL NOT AND SWAP1 DUP4 ISZERO ISZERO MUL OR SWAP1 SSTORE POP PUSH32 0x62E78CEA01BEE320CD4E420270B5EA74000D11B0C9F74754EBDBFC544B05A258 PUSH2 0xC36 PUSH2 0xC4D JUMP JUMPDEST PUSH1 0x40 MLOAD PUSH2 0xC43 SWAP2 SWAP1 PUSH2 0xF15 JUMP JUMPDEST PUSH1 0x40 MLOAD DUP1 SWAP2 SUB SWAP1 LOG1 JUMP JUMPDEST PUSH0 CALLER SWAP1 POP SWAP1 JUMP JUMPDEST PUSH2 0xC5C PUSH2 0x58B JUMP JUMPDEST PUSH2 0xC92 JUMPI PUSH1 0x40 MLOAD PUSH32 0x8DFC202B00000000000000000000000000000000000000000000000000000000 DUP2 MSTORE PUSH1 0x4 ADD PUSH1 0x40 MLOAD DUP1 SWAP2 SUB SWAP1 REVERT JUMPDEST JUMP JUMPDEST PUSH1 0x40 MLOAD DUP1 PUSH1 0x80 ADD PUSH1 0x40 MSTORE DUP1 PUSH0 DUP2 MSTORE PUSH1 0x20 ADD PUSH0 DUP2 MSTORE PUSH1 0x20 ADD PUSH0 PUSH1 0xFF AND DUP2 MSTORE PUSH1 0x20 ADD PUSH0 DUP2 MSTORE POP SWAP1 JUMP JUMPDEST PUSH0 DUP1 REVERT JUMPDEST PUSH0 DUP1 REVERT JUMPDEST PUSH0 DUP2 SWAP1 POP SWAP2 SWAP1 POP JUMP JUMPDEST PUSH2 0xCD5 DUP2 PUSH2 0xCC3 JUMP JUMPDEST DUP2 EQ PUSH2 0xCDF JUMPI PUSH0 DUP1 REVERT JUMPDEST POP JUMP JUMPDEST PUSH0 DUP2 CALLDATALOAD SWAP1 POP PUSH2 0xCF0 DUP2 PUSH2 0xCCC JUMP JUMPDEST SWAP3 SWAP2 POP POP JUMP JUMPDEST PUSH0 DUP1 REVERT JUMPDEST PUSH0 DUP1 REVERT JUMPDEST PUSH0 DUP1 REVERT JUMPDEST PUSH0 DUP1 DUP4 PUSH1 0x1F DUP5 ADD SLT PUSH2 0xD17 JUMPI PUSH2 0xD16 PUSH2 0xCF6 JUMP JUMPDEST JUMPDEST DUP3 CALLDATALOAD SWAP1 POP PUSH8 0xFFFFFFFFFFFFFFFF DUP2 GT ISZERO PUSH2 0xD34 JUMPI PUSH2 0xD33 PUSH2 0xCFA JUMP JUMPDEST JUMPDEST PUSH1 0x20 DUP4 ADD SWAP2 POP DUP4 PUSH1 0x1 DUP3 MUL DUP4 ADD GT ISZERO PUSH2 0xD50 JUMPI PUSH2 0xD4F PUSH2 0xCFE JUMP JUMPDEST JUMPDEST SWAP3 POP SWAP3 SWAP1 POP JUMP JUMPDEST PUSH0 DUP1 PUSH0 PUSH1 0x40 DUP5 DUP7 SUB SLT ISZERO PUSH2 0xD6E JUMPI PUSH2 0xD6D PUSH2 0xCBB JUMP JUMPDEST JUMPDEST PUSH0 PUSH2 0xD7B DUP7 DUP3 DUP8 ADD PUSH2 0xCE2 JUMP JUMPDEST SWAP4 POP POP PUSH1 0x20 DUP5 ADD CALLDATALOAD PUSH8 0xFFFFFFFFFFFFFFFF DUP2 GT ISZERO PUSH2 0xD9C JUMPI PUSH2 0xD9B PUSH2 0xCBF JUMP JUMPDEST JUMPDEST PUSH2 0xDA8 DUP7 DUP3 DUP8 ADD PUSH2 0xD02 JUMP JUMPDEST SWAP3 POP SWAP3 POP POP SWAP3 POP SWAP3 POP SWAP3 JUMP JUMPDEST PUSH0 PUSH1 0x20 DUP3 DUP5 SUB SLT ISZERO PUSH2 0xDC9 JUMPI PUSH2 0xDC8 PUSH2 0xCBB JUMP JUMPDEST JUMPDEST PUSH0 PUSH2 0xDD6 DUP5 DUP3 DUP6 ADD PUSH2 0xCE2 JUMP JUMPDEST SWAP2 POP POP SWAP3 SWAP2 POP POP JUMP JUMPDEST PUSH2 0xDE8 DUP2 PUSH2 0xCC3 JUMP JUMPDEST DUP3 MSTORE POP POP JUMP JUMPDEST PUSH0 PUSH1 0x40 DUP3 ADD SWAP1 POP PUSH2 0xE01 PUSH0 DUP4 ADD DUP6 PUSH2 0xDDF JUMP JUMPDEST PUSH2 0xE0E PUSH1 0x20 DUP4 ADD DUP5 PUSH2 0xDDF JUMP JUMPDEST SWAP4 SWAP3 POP POP POP JUMP JUMPDEST PUSH0 DUP1 PUSH1 0x40 DUP4 DUP6 SUB SLT ISZERO PUSH2 0xE2B JUMPI PUSH2 0xE2A PUSH2 0xCBB JUMP JUMPDEST JUMPDEST PUSH0 PUSH2 0xE38 DUP6 DUP3 DUP7 ADD PUSH2 0xCE2 JUMP JUMPDEST SWAP3 POP POP PUSH1 0x20 PUSH2 0xE49 DUP6 DUP3 DUP7 ADD PUSH2 0xCE2 JUMP JUMPDEST SWAP2 POP POP SWAP3 POP SWAP3 SWAP1 POP JUMP JUMPDEST PUSH0 DUP2 ISZERO ISZERO SWAP1 POP SWAP2 SWAP1 POP JUMP JUMPDEST PUSH2 0xE67 DUP2 PUSH2 0xE53 JUMP JUMPDEST DUP3 MSTORE POP POP JUMP JUMPDEST PUSH0 PUSH1 0x20 DUP3 ADD SWAP1 POP PUSH2 0xE80 PUSH0 DUP4 ADD DUP5 PUSH2 0xE5E JUMP JUMPDEST SWAP3 SWAP2 POP POP JUMP JUMPDEST PUSH0 DUP1 PUSH0 PUSH1 0x60 DUP5 DUP7 SUB SLT ISZERO PUSH2 0xE9D JUMPI PUSH2 0xE9C PUSH2 0xCBB JUMP JUMPDEST JUMPDEST PUSH0 PUSH2 0xEAA DUP7 DUP3 DUP8 ADD PUSH2 0xCE2 JUMP JUMPDEST SWAP4 POP POP PUSH1 0x20 PUSH2 0xEBB DUP7 DUP3 DUP8 ADD PUSH2 0xCE2 JUMP JUMPDEST SWAP3 POP POP PUSH1 0x40 PUSH2 0xECC DUP7 DUP3 DUP8 ADD PUSH2 0xCE2 JUMP JUMPDEST SWAP2 POP POP SWAP3 POP SWAP3 POP SWAP3 JUMP JUMPDEST PUSH0 PUSH20 0xFFFFFFFFFFFFFFFFFFFFFFFFFFFFFFFFFFFFFFFF DUP3 AND SWAP1 POP SWAP2 SWAP1 POP JUMP JUMPDEST PUSH0 PUSH2 0xEFF DUP3 PUSH2 0xED6 JUMP JUMPDEST SWAP1 POP SWAP2 SWAP1 POP JUMP JUMPDEST PUSH2 0xF0F DUP2 PUSH2 0xEF5 JUMP JUMPDEST DUP3 MSTORE POP POP JUMP JUMPDEST PUSH0 PUSH1 0x20 DUP3 ADD SWAP1 POP PUSH2 0xF28 PUSH0 DUP4 ADD DUP5 PUSH2 0xF06 JUMP JUMPDEST SWAP3 SWAP2 POP POP JUMP JUMPDEST PUSH0 DUP2 SWAP1 POP SWAP2 SWAP1 POP JUMP JUMPDEST PUSH2 0xF40 DUP2 PUSH2 0xF2E JUMP JUMPDEST DUP3 MSTORE POP POP JUMP JUMPDEST PUSH0 PUSH1 0xFF DUP3 AND SWAP1 POP SWAP2 SWAP1 POP JUMP JUMPDEST PUSH2 0xF5B DUP2 PUSH2 0xF46 JUMP JUMPDEST DUP3 MSTORE POP POP JUMP JUMPDEST PUSH1 0x80 DUP3 ADD PUSH0 DUP3 ADD MLOAD PUSH2 0xF75 PUSH0 DUP6 ADD DUP3 PUSH2 0xF37 JUMP JUMPDEST POP PUSH1 0x20 DUP3 ADD MLOAD PUSH2 0xF88 PUSH1 0x20 DUP6 ADD DUP3 PUSH2 0xF37 JUMP JUMPDEST POP PUSH1 0x40 DUP3 ADD MLOAD PUSH2 0xF9B PUSH1 0x40 DUP6 ADD DUP3 PUSH2 0xF52 JUMP JUMPDEST POP PUSH1 0x60 DUP3 ADD MLOAD PUSH2 0xFAE PUSH1 0x60 DUP6 ADD DUP3 PUSH2 0xF37 JUMP JUMPDEST POP POP POP POP JUMP JUMPDEST PUSH0 PUSH1 0xA0 DUP3 ADD SWAP1 POP PUSH2 0xFC7 PUSH0 DUP4 ADD DUP6 PUSH2 0xDDF JUMP JUMPDEST PUSH2 0xFD4 PUSH1 0x20 DUP4 ADD DUP5 PUSH2 0xF61 JUMP JUMPDEST SWAP4 SWAP3 POP POP POP JUMP JUMPDEST PUSH2 0xFE4 DUP2 PUSH2 0xEF5 JUMP JUMPDEST DUP2 EQ PUSH2 0xFEE JUMPI PUSH0 DUP1 REVERT JUMPDEST POP JUMP JUMPDEST PUSH0 DUP2 CALLDATALOAD SWAP1 POP PUSH2 0xFFF DUP2 PUSH2 0xFDB JUMP JUMPDEST SWAP3 SWAP2 POP POP JUMP JUMPDEST PUSH0 PUSH1 0x20 DUP3 DUP5 SUB SLT ISZERO PUSH2 0x101A JUMPI PUSH2 0x1019 PUSH2 0xCBB JUMP JUMPDEST JUMPDEST PUSH0 PUSH2 0x1027 DUP5 DUP3 DUP6 ADD PUSH2 0xFF1 JUMP JUMPDEST SWAP2 POP POP SWAP3 SWAP2 POP POP JUMP JUMPDEST PUSH0 DUP3 DUP3 MSTORE PUSH1 0x20 DUP3 ADD SWAP1 POP SWAP3 SWAP2 POP POP JUMP JUMPDEST PUSH32 0x4B6579206E6F7420616374697665000000000000000000000000000000000000 PUSH0 DUP3 ADD MSTORE POP JUMP JUMPDEST PUSH0 PUSH2 0x1074 PUSH1 0xE DUP4 PUSH2 0x1030 JUMP JUMPDEST SWAP2 POP PUSH2 0x107F DUP3 PUSH2 0x1040 JUMP JUMPDEST PUSH1 0x20 DUP3 ADD SWAP1 POP SWAP2 SWAP1 POP JUMP JUMPDEST PUSH0 PUSH1 0x20 DUP3 ADD SWAP1 POP DUP2 DUP2 SUB PUSH0 DUP4 ADD MSTORE PUSH2 0x10A1 DUP2 PUSH2 0x1068 JUMP JUMPDEST SWAP1 POP SWAP2 SWAP1 POP JUMP JUMPDEST DUP3 DUP2 DUP4 CALLDATACOPY PUSH0 DUP4 DUP4 ADD MSTORE POP POP POP JUMP JUMPDEST PUSH0 PUSH1 0x1F NOT PUSH1 0x1F DUP4 ADD AND SWAP1 POP SWAP2 SWAP1 POP JUMP JUMPDEST PUSH0 PUSH2 0x10D1 DUP4 DUP6 PUSH2 0x1030 JUMP JUMPDEST SWAP4 POP PUSH2 0x10DE DUP4 DUP6 DUP5 PUSH2 0x10A8 JUMP JUMPDEST PUSH2 0x10E7 DUP4 PUSH2 0x10B6 JUMP JUMPDEST DUP5 ADD SWAP1 POP SWAP4 SWAP3 POP POP POP JUMP JUMPDEST PUSH0 PUSH1 0x20 DUP3 ADD SWAP1 POP DUP2 DUP2 SUB PUSH0 DUP4 ADD MSTORE PUSH2 0x110B DUP2 DUP5 DUP7 PUSH2 0x10C6 JUMP JUMPDEST SWAP1 POP SWAP4 SWAP3 POP POP POP JUMP JUMPDEST PUSH32 0x5A65726F20656E74726F70790000000000000000000000000000000000000000 PUSH0 DUP3 ADD MSTORE POP JUMP JUMPDEST PUSH0 PUSH2 0x1148 PUSH1 0xC DUP4 PUSH2 0x1030 JUMP JUMPDEST SWAP2 POP PUSH2 0x1153 DUP3 PUSH2 0x1114 JUMP JUMPDEST PUSH1 0x20 DUP3 ADD SWAP1 POP SWAP2 SWAP1 POP JUMP JUMPDEST PUSH0 PUSH1 0x20 DUP3 ADD SWAP1 POP DUP2 DUP2 SUB PUSH0 DUP4 ADD MSTORE PUSH2 0x1175 DUP2 PUSH2 0x113C JUMP JUMPDEST SWAP1 POP SWAP2 SWAP1 POP JUMP JUMPDEST PUSH32 0x496E76616C6964206B6579206861736800000000000000000000000000000000 PUSH0 DUP3 ADD MSTORE POP JUMP JUMPDEST PUSH0 PUSH2 0x11B0 PUSH1 0x10 DUP4 PUSH2 0x1030 JUMP JUMPDEST SWAP2 POP PUSH2 0x11BB DUP3 PUSH2 0x117C JUMP JUMPDEST PUSH1 0x20 DUP3 ADD SWAP1 POP SWAP2 SWAP1 POP JUMP JUMPDEST PUSH0 PUSH1 0x20 DUP3 ADD SWAP1 POP DUP2 DUP2 SUB PUSH0 DUP4 ADD MSTORE PUSH2 0x11DD DUP2 PUSH2 0x11A4 JUMP JUMPDEST SWAP1 POP SWAP2 SWAP1 POP JUMP JUMPDEST PUSH32 0x496E76616C696420656E63727970746564206B65790000000000000000000000 PUSH0 DUP3 ADD MSTORE POP JUMP JUMPDEST PUSH0 PUSH2 0x1218 PUSH1 0x15 DUP4 PUSH2 0x1030 JUMP JUMPDEST SWAP2 POP PUSH2 0x1223 DUP3 PUSH2 0x11E4 JUMP JUMPDEST PUSH1 0x20 DUP3 ADD SWAP1 POP SWAP2 SWAP1 POP JUMP JUMPDEST PUSH0 PUSH1 0x20 DUP3 ADD SWAP1 POP DUP2 DUP2 SUB PUSH0 DUP4 ADD MSTORE PUSH2 0x1245 DUP2 PUSH2 0x120C JUMP JUMPDEST SWAP1 POP SWAP2 SWAP1 POP JUMP JUMPDEST PUSH32 0x4B657920616C7265616479206578697374730000000000000000000000000000 PUSH0 DUP3 ADD MSTORE POP JUMP JUMPDEST PUSH0 PUSH2 0x1280 PUSH1 0x12 DUP4 PUSH2 0x1030 JUMP JUMPDEST SWAP2 POP PUSH2 0x128B DUP3 PUSH2 0x124C JUMP JUMPDEST PUSH1 0x20 DUP3 ADD SWAP1 POP SWAP2 SWAP1 POP JUMP JUMPDEST PUSH0 PUSH1 0x20 DUP3 ADD SWAP1 POP DUP2 DUP2 SUB PUSH0 DUP4 ADD MSTORE PUSH2 0x12AD DUP2 PUSH2 0x1274 JUMP JUMPDEST SWAP1 POP SWAP2 SWAP1 POP JUMP JUMPDEST PUSH32 0x4E487B7100000000000000000000000000000000000000000000000000000000 PUSH0 MSTORE PUSH1 0x11 PUSH1 0x4 MSTORE PUSH1 0x24 PUSH0 REVERT JUMPDEST PUSH0 PUSH2 0x12EB DUP3 PUSH2 0xF2E JUMP JUMPDEST SWAP2 POP PUSH32 0xFFFFFFFFFFFFFFFFFFFFFFFFFFFFFFFFFFFFFFFFFFFFFFFFFFFFFFFFFFFFFFFF DUP3 SUB PUSH2 0x131D JUMPI PUSH2 0x131C PUSH2 0x12B4 JUMP JUMPDEST JUMPDEST PUSH1 0x1 DUP3 ADD SWAP1 POP SWAP2 SWAP1 POP JUMP JUMPDEST PUSH32 0x496E76616C6964206F6C64206B65790000000000000000000000000000000000 PUSH0 DUP3 ADD MSTORE POP JUMP JUMPDEST PUSH0 PUSH2 0x135C PUSH1 0xF DUP4 PUSH2 0x1030 JUMP JUMPDEST SWAP2 POP PUSH2 0x1367 DUP3 PUSH2 0x1328 JUMP JUMPDEST PUSH1 0x20 DUP3 ADD SWAP1 POP SWAP2 SWAP1 POP JUMP JUMPDEST PUSH0 PUSH1 0x20 DUP3 ADD SWAP1 POP DUP2 DUP2 SUB PUSH0 DUP4 ADD MSTORE PUSH2 0x1389 DUP2 PUSH2 0x1350 JUMP JUMPDEST SWAP1 POP SWAP2 SWAP1 POP JUMP JUMPDEST PUSH0 PUSH2 0x139A DUP3 PUSH2 0xF2E JUMP JUMPDEST SWAP2 POP PUSH2 0x13A5 DUP4 PUSH2 0xF2E JUMP JUMPDEST SWAP3 POP DUP3 DUP3 ADD SWAP1 POP DUP1 DUP3 GT ISZERO PUSH2 0x13BD JUMPI PUSH2 0x13BC PUSH2 0x12B4 JUMP JUMPDEST JUMPDEST SWAP3 SWAP2 POP POP JUMP JUMPDEST PUSH32 0x436F6F6C696E6720706572696F64206163746976650000000000000000000000 PUSH0 DUP3 ADD MSTORE POP JUMP JUMPDEST PUSH0 PUSH2 0x13F7 PUSH1 0x15 DUP4 PUSH2 0x1030 JUMP JUMPDEST SWAP2 POP PUSH2 0x1402 DUP3 PUSH2 0x13C3 JUMP JUMPDEST PUSH1 0x20 DUP3 ADD SWAP1 POP SWAP2 SWAP1 POP JUMP JUMPDEST PUSH0 PUSH1 0x20 DUP3 ADD SWAP1 POP DUP2 DUP2 SUB PUSH0 DUP4 ADD MSTORE PUSH2 0x1424 DUP2 PUSH2 0x13EB JUMP JUMPDEST SWAP1 POP SWAP2 SWAP1 POP JUMP JUMPDEST PUSH32 0x4E6577206B657920616C72656164792065786973747300000000000000000000 PUSH0 DUP3 ADD MSTORE POP JUMP JUMPDEST PUSH0 PUSH2 0x145F PUSH1 0x16 DUP4 PUSH2 0x1030 JUMP JUMPDEST SWAP2 POP PUSH2 0x146A DUP3 PUSH2 0x142B JUMP JUMPDEST PUSH1 0x20 DUP3 ADD SWAP1 POP SWAP2 SWAP1 POP JUMP JUMPDEST PUSH0 PUSH1 0x20 DUP3 ADD SWAP1 POP DUP2 DUP2 SUB PUSH0 DUP4 ADD MSTORE PUSH2 0x148C DUP2 PUSH2 0x1453 JUMP JUMPDEST SWAP1 POP SWAP2 SWAP1 POP JUMP JUMPDEST PUSH32 0x4B6579206E6F7420666F756E6400000000000000000000000000000000000000 PUSH0 DUP3 ADD MSTORE POP JUMP JUMPDEST PUSH0 PUSH2 0x14C7 PUSH1 0xD DUP4 PUSH2 0x1030 JUMP JUMPDEST SWAP2 POP PUSH2 0x14D2 DUP3 PUSH2 0x1493 JUMP JUMPDEST PUSH1 0x20 DUP3 ADD SWAP1 POP SWAP2 SWAP1 POP JUMP JUMPDEST PUSH0 PUSH1 0x20 DUP3 ADD SWAP1 POP DUP2 DUP2 SUB PUSH0 DUP4 ADD MSTORE PUSH2 0x14F4 DUP2 PUSH2 0x14BB JUMP JUMPDEST SWAP1 POP SWAP2 SWAP1 POP JUMP INVALID LOG2 PUSH5 0x6970667358 0x22 SLT KECCAK256 0xB3 0xBC PUSH24 0x6156A34C4B09BEFCC5E8BC2CEC2F086690B3FDC21D66D2D 0xCE SGT DUP8 MSIZE EXTCODECOPY PUSH5 0x736F6C6343 STOP ADDMOD BYTE STOP CALLER "
				},
				"gasEstimates": {
					"creation": {
						"codeDepositCost": "1085000",
						"executionCost": "infinite",
						"totalCost": "infinite"
					},
					"external": {
						"generateEncryptionKey(bytes32)": "infinite",
						"getEncryptionKey(bytes32)": "infinite",
						"owner()": "2581",
						"pause()": "infinite",
						"paused()": "2562",
						"renounceOwnership()": "infinite",
						"revokeEncryptionKey(bytes32,string)": "infinite",
						"rotateEncryptionKey(bytes32,bytes32,bytes32)": "infinite",
						"storeEncryptionKey(bytes32,bytes32)": "infinite",
						"transferOwnership(address)": "infinite",
						"unpause()": "infinite"
					}
				},
				"methodIdentifiers": {
					"generateEncryptionKey(bytes32)": "336b0c46",
					"getEncryptionKey(bytes32)": "a2036faf",
					"owner()": "8da5cb5b",
					"pause()": "8456cb59",
					"paused()": "5c975abb",
					"renounceOwnership()": "715018a6",
					"revokeEncryptionKey(bytes32,string)": "09b19353",
					"rotateEncryptionKey(bytes32,bytes32,bytes32)": "89fded2f",
					"storeEncryptionKey(bytes32,bytes32)": "437b347c",
					"transferOwnership(address)": "f2fde38b",
					"unpause()": "3f4ba83a"
				}
			},
			"storageLayout": {
				"storage": [
					{
						"astId": 8,
						"contract": "security/EncryptionManager.sol:EncryptionManager",
						"label": "_owner",
						"offset": 0,
						"slot": "0",
						"type": "t_address"
					},
					{
						"astId": 305,
						"contract": "security/EncryptionManager.sol:EncryptionManager",
						"label": "_status",
						"offset": 0,
						"slot": "1",
						"type": "t_uint256"
					},
					{
						"astId": 186,
						"contract": "security/EncryptionManager.sol:EncryptionManager",
						"label": "_paused",
						"offset": 0,
						"slot": "2",
						"type": "t_bool"
					},
					{
						"astId": 379,
						"contract": "security/EncryptionManager.sol:EncryptionManager",
						"label": "encryptedKeys",
						"offset": 0,
						"slot": "3",
						"type": "t_mapping(t_bytes32,t_bytes32)"
					},
					{
						"astId": 384,
						"contract": "security/EncryptionManager.sol:EncryptionManager",
						"label": "keyMetadata",
						"offset": 0,
						"slot": "4",
						"type": "t_mapping(t_bytes32,t_struct(KeyMetadata)402_storage)"
					}
				],
				"types": {
					"t_address": {
						"encoding": "inplace",
						"label": "address",
						"numberOfBytes": "20"
					},
					"t_bool": {
						"encoding": "inplace",
						"label": "bool",
						"numberOfBytes": "1"
					},
					"t_bytes32": {
						"encoding": "inplace",
						"label": "bytes32",
						"numberOfBytes": "32"
					},
					"t_mapping(t_bytes32,t_bytes32)": {
						"encoding": "mapping",
						"key": "t_bytes32",
						"label": "mapping(bytes32 => bytes32)",
						"numberOfBytes": "32",
						"value": "t_bytes32"
					},
					"t_mapping(t_bytes32,t_struct(KeyMetadata)402_storage)": {
						"encoding": "mapping",
						"key": "t_bytes32",
						"label": "mapping(bytes32 => struct EncryptionManager.KeyMetadata)",
						"numberOfBytes": "32",
						"value": "t_struct(KeyMetadata)402_storage"
					},
					"t_struct(KeyMetadata)402_storage": {
						"encoding": "inplace",
						"label": "struct EncryptionManager.KeyMetadata",
						"members": [
							{
								"astId": 395,
								"contract": "security/EncryptionManager.sol:EncryptionManager",
								"label": "creationTime",
								"offset": 0,
								"slot": "0",
								"type": "t_uint256"
							},
							{
								"astId": 397,
								"contract": "security/EncryptionManager.sol:EncryptionManager",
								"label": "lastRotationTime",
								"offset": 0,
								"slot": "1",
								"type": "t_uint256"
							},
							{
								"astId": 399,
								"contract": "security/EncryptionManager.sol:EncryptionManager",
								"label": "status",
								"offset": 0,
								"slot": "2",
								"type": "t_uint8"
							},
							{
								"astId": 401,
								"contract": "security/EncryptionManager.sol:EncryptionManager",
								"label": "useCount",
								"offset": 0,
								"slot": "3",
								"type": "t_uint256"
							}
						],
						"numberOfBytes": "128"
					},
					"t_uint256": {
						"encoding": "inplace",
						"label": "uint256",
						"numberOfBytes": "32"
					},
					"t_uint8": {
						"encoding": "inplace",
						"label": "uint8",
						"numberOfBytes": "1"
					}
				}
			},
			"userdoc": {
				"kind": "user",
				"methods": {},
				"version": 1
			}
		}
	}
}