{
	"security/EncryptionManager.sol": {
		"EncryptionManager": {
			"abi": [
				{
					"inputs": [],
					"stateMutability": "nonpayable",
					"type": "constructor"
				},
				{
					"inputs": [
						{
							"internalType": "address",
							"name": "owner",
							"type": "address"
						}
					],
					"name": "OwnableInvalidOwner",
					"type": "error"
				},
				{
					"inputs": [
						{
							"internalType": "address",
							"name": "account",
							"type": "address"
						}
					],
					"name": "OwnableUnauthorizedAccount",
					"type": "error"
				},
				{
					"anonymous": false,
					"inputs": [
						{
							"indexed": true,
							"internalType": "bytes32",
							"name": "keyHash",
							"type": "bytes32"
						}
					],
					"name": "EncryptionKeyGenerated",
					"type": "event"
				},
				{
					"anonymous": false,
					"inputs": [
						{
							"indexed": true,
							"internalType": "bytes32",
							"name": "keyHash",
							"type": "bytes32"
						}
					],
					"name": "EncryptionKeyRevoked",
					"type": "event"
				},
				{
					"anonymous": false,
					"inputs": [
						{
							"indexed": true,
							"internalType": "bytes32",
							"name": "oldKeyHash",
							"type": "bytes32"
						},
						{
							"indexed": true,
							"internalType": "bytes32",
							"name": "newKeyHash",
							"type": "bytes32"
						}
					],
					"name": "EncryptionKeyRotated",
					"type": "event"
				},
				{
					"anonymous": false,
					"inputs": [
						{
							"indexed": true,
							"internalType": "bytes32",
							"name": "keyHash",
							"type": "bytes32"
						}
					],
					"name": "EncryptionKeyStored",
					"type": "event"
				},
				{
					"anonymous": false,
					"inputs": [
						{
							"indexed": true,
							"internalType": "address",
							"name": "previousOwner",
							"type": "address"
						},
						{
							"indexed": true,
							"internalType": "address",
							"name": "newOwner",
							"type": "address"
						}
					],
					"name": "OwnershipTransferred",
					"type": "event"
				},
				{
					"inputs": [
						{
							"internalType": "bytes",
							"name": "keyData",
							"type": "bytes"
						}
					],
					"name": "generateEncryptionKey",
					"outputs": [
						{
							"internalType": "bytes32",
							"name": "keyHash",
							"type": "bytes32"
						}
					],
					"stateMutability": "nonpayable",
					"type": "function"
				},
				{
					"inputs": [
						{
							"internalType": "bytes32",
							"name": "keyHash",
							"type": "bytes32"
						}
					],
					"name": "getEncryptionKey",
					"outputs": [
						{
							"internalType": "bytes32",
							"name": "",
							"type": "bytes32"
						}
					],
					"stateMutability": "view",
					"type": "function"
				},
				{
					"inputs": [],
					"name": "owner",
					"outputs": [
						{
							"internalType": "address",
							"name": "",
							"type": "address"
						}
					],
					"stateMutability": "view",
					"type": "function"
				},
				{
					"inputs": [],
					"name": "renounceOwnership",
					"outputs": [],
					"stateMutability": "nonpayable",
					"type": "function"
				},
				{
					"inputs": [
						{
							"internalType": "bytes32",
							"name": "keyHash",
							"type": "bytes32"
						}
					],
					"name": "revokeEncryptionKey",
					"outputs": [],
					"stateMutability": "nonpayable",
					"type": "function"
				},
				{
					"inputs": [
						{
							"internalType": "bytes32",
							"name": "oldKeyHash",
							"type": "bytes32"
						},
						{
							"internalType": "bytes32",
							"name": "newKeyHash",
							"type": "bytes32"
						},
						{
							"internalType": "bytes32",
							"name": "newEncryptedKey",
							"type": "bytes32"
						}
					],
					"name": "rotateEncryptionKey",
					"outputs": [],
					"stateMutability": "nonpayable",
					"type": "function"
				},
				{
					"inputs": [
						{
							"internalType": "bytes32",
							"name": "keyHash",
							"type": "bytes32"
						},
						{
							"internalType": "bytes32",
							"name": "encryptedKey",
							"type": "bytes32"
						}
					],
					"name": "storeEncryptionKey",
					"outputs": [],
					"stateMutability": "nonpayable",
					"type": "function"
				},
				{
					"inputs": [
						{
							"internalType": "address",
							"name": "newOwner",
							"type": "address"
						}
					],
					"name": "transferOwnership",
					"outputs": [],
					"stateMutability": "nonpayable",
					"type": "function"
				}
			],
			"devdoc": {
				"details": "Manages encryption keys for the protocol, including key generation, storage, and rotation.      Only the contract owner can perform certain sensitive operations such as rotating or revoking keys.",
				"errors": {
					"OwnableInvalidOwner(address)": [
						{
							"details": "The owner is not a valid owner account. (eg. `address(0)`)"
						}
					],
					"OwnableUnauthorizedAccount(address)": [
						{
							"details": "The caller account is not authorized to perform an operation."
						}
					]
				},
				"kind": "dev",
				"methods": {
					"generateEncryptionKey(bytes)": {
						"details": "Generates a new encryption key by hashing random data.",
						"params": {
							"keyData": "The input data for the encryption key hash (should be a random value from the caller)."
						},
						"returns": {
							"keyHash": "The hash of the newly generated encryption key."
						}
					},
					"getEncryptionKey(bytes32)": {
						"details": "Retrieves the encrypted encryption key corresponding to the key hash.",
						"params": {
							"keyHash": "The hash of the encryption key."
						},
						"returns": {
							"_0": "The encrypted encryption key."
						}
					},
					"owner()": {
						"details": "Returns the address of the current owner."
					},
					"renounceOwnership()": {
						"details": "Leaves the contract without owner. It will not be possible to call `onlyOwner` functions. Can only be called by the current owner. NOTE: Renouncing ownership will leave the contract without an owner, thereby disabling any functionality that is only available to the owner."
					},
					"revokeEncryptionKey(bytes32)": {
						"details": "Revokes an encryption key, removing it from storage.",
						"params": {
							"keyHash": "The hash of the encryption key to be revoked."
						}
					},
					"rotateEncryptionKey(bytes32,bytes32,bytes32)": {
						"details": "Rotates an encryption key, replacing the old key with a new one.",
						"params": {
							"newEncryptedKey": "The new encryption key, securely stored (should be encrypted off-chain).",
							"newKeyHash": "The hash of the new encryption key.",
							"oldKeyHash": "The hash of the old encryption key."
						}
					},
					"storeEncryptionKey(bytes32,bytes32)": {
						"details": "Stores a generated encryption key securely.",
						"params": {
							"encryptedKey": "The actual encryption key, stored securely (should be encrypted off-chain).",
							"keyHash": "The hash of the encryption key to be stored."
						}
					},
					"transferOwnership(address)": {
						"details": "Transfers ownership of the contract to a new account (`newOwner`). Can only be called by the current owner."
					}
				},
				"title": "EncryptionManager",
				"version": 1
			},
			"evm": {
				"assembly": "    /* \"security/EncryptionManager.sol\":356:3557  contract EncryptionManager is Ownable {... */\n  mstore(0x40, 0x80)\n    /* \"security/EncryptionManager.sol\":400:436  constructor() Ownable(msg.sender) {} */\n  callvalue\n  dup1\n  iszero\n  tag_1\n  jumpi\n  0x00\n  dup1\n  revert\ntag_1:\n  pop\n    /* \"security/EncryptionManager.sol\":422:432  msg.sender */\n  caller\n    /* \"@openzeppelin/contracts/access/Ownable.sol\":1297:1298  0 */\n  0x00\n    /* \"@openzeppelin/contracts/access/Ownable.sol\":1273:1299  initialOwner == address(0) */\n  0xffffffffffffffffffffffffffffffffffffffff\n  and\n    /* \"@openzeppelin/contracts/access/Ownable.sol\":1273:1285  initialOwner */\n  dup2\n    /* \"@openzeppelin/contracts/access/Ownable.sol\":1273:1299  initialOwner == address(0) */\n  0xffffffffffffffffffffffffffffffffffffffff\n  and\n  sub\n    /* \"@openzeppelin/contracts/access/Ownable.sol\":1269:1364  if (initialOwner == address(0)) {... */\n  tag_5\n  jumpi\n    /* \"@openzeppelin/contracts/access/Ownable.sol\":1350:1351  0 */\n  0x00\n    /* \"@openzeppelin/contracts/access/Ownable.sol\":1322:1353  OwnableInvalidOwner(address(0)) */\n  mload(0x40)\n  0x1e4fbdf700000000000000000000000000000000000000000000000000000000\n  dup2\n  mstore\n  0x04\n  add\n  tag_6\n  swap2\n  swap1\n  tag_7\n  jump\t// in\ntag_6:\n  mload(0x40)\n  dup1\n  swap2\n  sub\n  swap1\n  revert\n    /* \"@openzeppelin/contracts/access/Ownable.sol\":1269:1364  if (initialOwner == address(0)) {... */\ntag_5:\n    /* \"@openzeppelin/contracts/access/Ownable.sol\":1373:1405  _transferOwnership(initialOwner) */\n  tag_8\n    /* \"@openzeppelin/contracts/access/Ownable.sol\":1392:1404  initialOwner */\n  dup2\n    /* \"@openzeppelin/contracts/access/Ownable.sol\":1373:1391  _transferOwnership */\n  shl(0x20, tag_9)\n    /* \"@openzeppelin/contracts/access/Ownable.sol\":1373:1405  _transferOwnership(initialOwner) */\n  0x20\n  shr\n  jump\t// in\ntag_8:\n    /* \"@openzeppelin/contracts/access/Ownable.sol\":1225:1412  constructor(address initialOwner) {... */\n  pop\n    /* \"security/EncryptionManager.sol\":356:3557  contract EncryptionManager is Ownable {... */\n  jump(tag_11)\n    /* \"@openzeppelin/contracts/access/Ownable.sol\":2912:3099  function _transferOwnership(address newOwner) internal virtual {... */\ntag_9:\n    /* \"@openzeppelin/contracts/access/Ownable.sol\":2985:3001  address oldOwner */\n  0x00\n    /* \"@openzeppelin/contracts/access/Ownable.sol\":3004:3010  _owner */\n  dup1\n  0x00\n  swap1\n  sload\n  swap1\n  0x0100\n  exp\n  swap1\n  div\n  0xffffffffffffffffffffffffffffffffffffffff\n  and\n    /* \"@openzeppelin/contracts/access/Ownable.sol\":2985:3010  address oldOwner = _owner */\n  swap1\n  pop\n    /* \"@openzeppelin/contracts/access/Ownable.sol\":3029:3037  newOwner */\n  dup2\n    /* \"@openzeppelin/contracts/access/Ownable.sol\":3020:3026  _owner */\n  0x00\n  dup1\n    /* \"@openzeppelin/contracts/access/Ownable.sol\":3020:3037  _owner = newOwner */\n  0x0100\n  exp\n  dup2\n  sload\n  dup2\n  0xffffffffffffffffffffffffffffffffffffffff\n  mul\n  not\n  and\n  swap1\n  dup4\n  0xffffffffffffffffffffffffffffffffffffffff\n  and\n  mul\n  or\n  swap1\n  sstore\n  pop\n    /* \"@openzeppelin/contracts/access/Ownable.sol\":3083:3091  newOwner */\n  dup2\n    /* \"@openzeppelin/contracts/access/Ownable.sol\":3052:3092  OwnershipTransferred(oldOwner, newOwner) */\n  0xffffffffffffffffffffffffffffffffffffffff\n  and\n    /* \"@openzeppelin/contracts/access/Ownable.sol\":3073:3081  oldOwner */\n  dup2\n    /* \"@openzeppelin/contracts/access/Ownable.sol\":3052:3092  OwnershipTransferred(oldOwner, newOwner) */\n  0xffffffffffffffffffffffffffffffffffffffff\n  and\n  0x8be0079c531659141344cd1fd0a4f28419497f9722a3daafe3b4186f6b6457e0\n  mload(0x40)\n  mload(0x40)\n  dup1\n  swap2\n  sub\n  swap1\n  log3\n    /* \"@openzeppelin/contracts/access/Ownable.sol\":2975:3099  {... */\n  pop\n    /* \"@openzeppelin/contracts/access/Ownable.sol\":2912:3099  function _transferOwnership(address newOwner) internal virtual {... */\n  pop\n  jump\t// out\n    /* \"#utility.yul\":7:133   */\ntag_13:\n    /* \"#utility.yul\":44:51   */\n  0x00\n    /* \"#utility.yul\":84:126   */\n  0xffffffffffffffffffffffffffffffffffffffff\n    /* \"#utility.yul\":77:82   */\n  dup3\n    /* \"#utility.yul\":73:127   */\n  and\n    /* \"#utility.yul\":62:127   */\n  swap1\n  pop\n    /* \"#utility.yul\":7:133   */\n  swap2\n  swap1\n  pop\n  jump\t// out\n    /* \"#utility.yul\":139:235   */\ntag_14:\n    /* \"#utility.yul\":176:183   */\n  0x00\n    /* \"#utility.yul\":205:229   */\n  tag_19\n    /* \"#utility.yul\":223:228   */\n  dup3\n    /* \"#utility.yul\":205:229   */\n  tag_13\n  jump\t// in\ntag_19:\n    /* \"#utility.yul\":194:229   */\n  swap1\n  pop\n    /* \"#utility.yul\":139:235   */\n  swap2\n  swap1\n  pop\n  jump\t// out\n    /* \"#utility.yul\":241:359   */\ntag_15:\n    /* \"#utility.yul\":328:352   */\n  tag_21\n    /* \"#utility.yul\":346:351   */\n  dup2\n    /* \"#utility.yul\":328:352   */\n  tag_14\n  jump\t// in\ntag_21:\n    /* \"#utility.yul\":323:326   */\n  dup3\n    /* \"#utility.yul\":316:353   */\n  mstore\n    /* \"#utility.yul\":241:359   */\n  pop\n  pop\n  jump\t// out\n    /* \"#utility.yul\":365:587   */\ntag_7:\n    /* \"#utility.yul\":458:462   */\n  0x00\n    /* \"#utility.yul\":496:498   */\n  0x20\n    /* \"#utility.yul\":485:494   */\n  dup3\n    /* \"#utility.yul\":481:499   */\n  add\n    /* \"#utility.yul\":473:499   */\n  swap1\n  pop\n    /* \"#utility.yul\":509:580   */\n  tag_23\n    /* \"#utility.yul\":577:578   */\n  0x00\n    /* \"#utility.yul\":566:575   */\n  dup4\n    /* \"#utility.yul\":562:579   */\n  add\n    /* \"#utility.yul\":553:559   */\n  dup5\n    /* \"#utility.yul\":509:580   */\n  tag_15\n  jump\t// in\ntag_23:\n    /* \"#utility.yul\":365:587   */\n  swap3\n  swap2\n  pop\n  pop\n  jump\t// out\n    /* \"security/EncryptionManager.sol\":356:3557  contract EncryptionManager is Ownable {... */\ntag_11:\n  dataSize(sub_0)\n  dup1\n  dataOffset(sub_0)\n  0x00\n  codecopy\n  0x00\n  return\nstop\n\nsub_0: assembly {\n        /* \"security/EncryptionManager.sol\":356:3557  contract EncryptionManager is Ownable {... */\n      mstore(0x40, 0x80)\n      callvalue\n      dup1\n      iszero\n      tag_1\n      jumpi\n      0x00\n      dup1\n      revert\n    tag_1:\n      pop\n      jumpi(tag_2, lt(calldatasize, 0x04))\n      shr(0xe0, calldataload(0x00))\n      dup1\n      0x89fded2f\n      gt\n      tag_11\n      jumpi\n      dup1\n      0x89fded2f\n      eq\n      tag_7\n      jumpi\n      dup1\n      0x8da5cb5b\n      eq\n      tag_8\n      jumpi\n      dup1\n      0xa2036faf\n      eq\n      tag_9\n      jumpi\n      dup1\n      0xf2fde38b\n      eq\n      tag_10\n      jumpi\n      jump(tag_2)\n    tag_11:\n      dup1\n      0x437b347c\n      eq\n      tag_3\n      jumpi\n      dup1\n      0x545c7aa2\n      eq\n      tag_4\n      jumpi\n      dup1\n      0x68cab359\n      eq\n      tag_5\n      jumpi\n      dup1\n      0x715018a6\n      eq\n      tag_6\n      jumpi\n    tag_2:\n      0x00\n      dup1\n      revert\n        /* \"security/EncryptionManager.sol\":1754:2027  function storeEncryptionKey(bytes32 keyHash, bytes32 encryptedKey) external onlyOwner {... */\n    tag_3:\n      tag_12\n      0x04\n      dup1\n      calldatasize\n      sub\n      dup2\n      add\n      swap1\n      tag_13\n      swap2\n      swap1\n      tag_14\n      jump\t// in\n    tag_13:\n      tag_15\n      jump\t// in\n    tag_12:\n      stop\n        /* \"security/EncryptionManager.sol\":3310:3555  function revokeEncryptionKey(bytes32 keyHash) external onlyOwner {... */\n    tag_4:\n      tag_16\n      0x04\n      dup1\n      calldatasize\n      sub\n      dup2\n      add\n      swap1\n      tag_17\n      swap2\n      swap1\n      tag_18\n      jump\t// in\n    tag_17:\n      tag_19\n      jump\t// in\n    tag_16:\n      stop\n        /* \"security/EncryptionManager.sol\":1317:1506  function generateEncryptionKey(bytes memory keyData) external onlyOwner returns (bytes32 keyHash) {... */\n    tag_5:\n      tag_20\n      0x04\n      dup1\n      calldatasize\n      sub\n      dup2\n      add\n      swap1\n      tag_21\n      swap2\n      swap1\n      tag_22\n      jump\t// in\n    tag_21:\n      tag_23\n      jump\t// in\n    tag_20:\n      mload(0x40)\n      tag_24\n      swap2\n      swap1\n      tag_25\n      jump\t// in\n    tag_24:\n      mload(0x40)\n      dup1\n      swap2\n      sub\n      swap1\n      return\n        /* \"@openzeppelin/contracts/access/Ownable.sol\":2293:2394  function renounceOwnership() public virtual onlyOwner {... */\n    tag_6:\n      tag_26\n      tag_27\n      jump\t// in\n    tag_26:\n      stop\n        /* \"security/EncryptionManager.sol\":2351:2820  function rotateEncryptionKey(bytes32 oldKeyHash, bytes32 newKeyHash, bytes32 newEncryptedKey) external onlyOwner {... */\n    tag_7:\n      tag_28\n      0x04\n      dup1\n      calldatasize\n      sub\n      dup2\n      add\n      swap1\n      tag_29\n      swap2\n      swap1\n      tag_30\n      jump\t// in\n    tag_29:\n      tag_31\n      jump\t// in\n    tag_28:\n      stop\n        /* \"@openzeppelin/contracts/access/Ownable.sol\":1638:1723  function owner() public view virtual returns (address) {... */\n    tag_8:\n      tag_32\n      tag_33\n      jump\t// in\n    tag_32:\n      mload(0x40)\n      tag_34\n      swap2\n      swap1\n      tag_35\n      jump\t// in\n    tag_34:\n      mload(0x40)\n      dup1\n      swap2\n      sub\n      swap1\n      return\n        /* \"security/EncryptionManager.sol\":3023:3155  function getEncryptionKey(bytes32 keyHash) external view onlyOwner returns (bytes32) {... */\n    tag_9:\n      tag_36\n      0x04\n      dup1\n      calldatasize\n      sub\n      dup2\n      add\n      swap1\n      tag_37\n      swap2\n      swap1\n      tag_18\n      jump\t// in\n    tag_37:\n      tag_38\n      jump\t// in\n    tag_36:\n      mload(0x40)\n      tag_39\n      swap2\n      swap1\n      tag_25\n      jump\t// in\n    tag_39:\n      mload(0x40)\n      dup1\n      swap2\n      sub\n      swap1\n      return\n        /* \"@openzeppelin/contracts/access/Ownable.sol\":2543:2758  function transferOwnership(address newOwner) public virtual onlyOwner {... */\n    tag_10:\n      tag_40\n      0x04\n      dup1\n      calldatasize\n      sub\n      dup2\n      add\n      swap1\n      tag_41\n      swap2\n      swap1\n      tag_42\n      jump\t// in\n    tag_41:\n      tag_43\n      jump\t// in\n    tag_40:\n      stop\n        /* \"security/EncryptionManager.sol\":1754:2027  function storeEncryptionKey(bytes32 keyHash, bytes32 encryptedKey) external onlyOwner {... */\n    tag_15:\n        /* \"@openzeppelin/contracts/access/Ownable.sol\":1531:1544  _checkOwner() */\n      tag_45\n        /* \"@openzeppelin/contracts/access/Ownable.sol\":1531:1542  _checkOwner */\n      tag_46\n        /* \"@openzeppelin/contracts/access/Ownable.sol\":1531:1544  _checkOwner() */\n      jump\t// in\n    tag_45:\n        /* \"security/EncryptionManager.sol\":1893:1894  0 */\n      0x00\n        /* \"security/EncryptionManager.sol\":1885:1895  bytes32(0) */\n      dup1\n      shl\n        /* \"security/EncryptionManager.sol\":1858:1872  encryptionKeys */\n      0x01\n        /* \"security/EncryptionManager.sol\":1858:1881  encryptionKeys[keyHash] */\n      0x00\n        /* \"security/EncryptionManager.sol\":1873:1880  keyHash */\n      dup5\n        /* \"security/EncryptionManager.sol\":1858:1881  encryptionKeys[keyHash] */\n      dup2\n      mstore\n      0x20\n      add\n      swap1\n      dup2\n      mstore\n      0x20\n      add\n      0x00\n      keccak256\n      sload\n        /* \"security/EncryptionManager.sol\":1858:1895  encryptionKeys[keyHash] == bytes32(0) */\n      eq\n        /* \"security/EncryptionManager.sol\":1850:1929  require(encryptionKeys[keyHash] == bytes32(0), \"Encryption key already exists\") */\n      tag_48\n      jumpi\n      mload(0x40)\n      0x08c379a000000000000000000000000000000000000000000000000000000000\n      dup2\n      mstore\n      0x04\n      add\n      tag_49\n      swap1\n      tag_50\n      jump\t// in\n    tag_49:\n      mload(0x40)\n      dup1\n      swap2\n      sub\n      swap1\n      revert\n    tag_48:\n        /* \"security/EncryptionManager.sol\":1965:1977  encryptedKey */\n      dup1\n        /* \"security/EncryptionManager.sol\":1939:1953  encryptionKeys */\n      0x01\n        /* \"security/EncryptionManager.sol\":1939:1962  encryptionKeys[keyHash] */\n      0x00\n        /* \"security/EncryptionManager.sol\":1954:1961  keyHash */\n      dup5\n        /* \"security/EncryptionManager.sol\":1939:1962  encryptionKeys[keyHash] */\n      dup2\n      mstore\n      0x20\n      add\n      swap1\n      dup2\n      mstore\n      0x20\n      add\n      0x00\n      keccak256\n        /* \"security/EncryptionManager.sol\":1939:1977  encryptionKeys[keyHash] = encryptedKey */\n      dup2\n      swap1\n      sstore\n      pop\n        /* \"security/EncryptionManager.sol\":2012:2019  keyHash */\n      dup2\n        /* \"security/EncryptionManager.sol\":1992:2020  EncryptionKeyStored(keyHash) */\n      0x9d0ffd30ad196654363e4d1cc3020dae7668fa0f0ed4067b6126fdbc91e55e84\n      mload(0x40)\n      mload(0x40)\n      dup1\n      swap2\n      sub\n      swap1\n      log2\n        /* \"security/EncryptionManager.sol\":1754:2027  function storeEncryptionKey(bytes32 keyHash, bytes32 encryptedKey) external onlyOwner {... */\n      pop\n      pop\n      jump\t// out\n        /* \"security/EncryptionManager.sol\":3310:3555  function revokeEncryptionKey(bytes32 keyHash) external onlyOwner {... */\n    tag_19:\n        /* \"@openzeppelin/contracts/access/Ownable.sol\":1531:1544  _checkOwner() */\n      tag_52\n        /* \"@openzeppelin/contracts/access/Ownable.sol\":1531:1542  _checkOwner */\n      tag_46\n        /* \"@openzeppelin/contracts/access/Ownable.sol\":1531:1544  _checkOwner() */\n      jump\t// in\n    tag_52:\n        /* \"security/EncryptionManager.sol\":3428:3429  0 */\n      0x00\n        /* \"security/EncryptionManager.sol\":3420:3430  bytes32(0) */\n      dup1\n      shl\n        /* \"security/EncryptionManager.sol\":3393:3407  encryptionKeys */\n      0x01\n        /* \"security/EncryptionManager.sol\":3393:3416  encryptionKeys[keyHash] */\n      0x00\n        /* \"security/EncryptionManager.sol\":3408:3415  keyHash */\n      dup4\n        /* \"security/EncryptionManager.sol\":3393:3416  encryptionKeys[keyHash] */\n      dup2\n      mstore\n      0x20\n      add\n      swap1\n      dup2\n      mstore\n      0x20\n      add\n      0x00\n      keccak256\n      sload\n        /* \"security/EncryptionManager.sol\":3393:3430  encryptionKeys[keyHash] != bytes32(0) */\n      sub\n        /* \"security/EncryptionManager.sol\":3385:3464  require(encryptionKeys[keyHash] != bytes32(0), \"Encryption key does not exist\") */\n      tag_54\n      jumpi\n      mload(0x40)\n      0x08c379a000000000000000000000000000000000000000000000000000000000\n      dup2\n      mstore\n      0x04\n      add\n      tag_55\n      swap1\n      tag_56\n      jump\t// in\n    tag_55:\n      mload(0x40)\n      dup1\n      swap2\n      sub\n      swap1\n      revert\n    tag_54:\n        /* \"security/EncryptionManager.sol\":3481:3495  encryptionKeys */\n      0x01\n        /* \"security/EncryptionManager.sol\":3481:3504  encryptionKeys[keyHash] */\n      0x00\n        /* \"security/EncryptionManager.sol\":3496:3503  keyHash */\n      dup3\n        /* \"security/EncryptionManager.sol\":3481:3504  encryptionKeys[keyHash] */\n      dup2\n      mstore\n      0x20\n      add\n      swap1\n      dup2\n      mstore\n      0x20\n      add\n      0x00\n      keccak256\n        /* \"security/EncryptionManager.sol\":3474:3504  delete encryptionKeys[keyHash] */\n      0x00\n      swap1\n      sstore\n        /* \"security/EncryptionManager.sol\":3540:3547  keyHash */\n      dup1\n        /* \"security/EncryptionManager.sol\":3519:3548  EncryptionKeyRevoked(keyHash) */\n      0xd671d4d81698fa7ce4c133483d76d7f653fe940be8eb9152fd7ef69a1582b1fe\n      mload(0x40)\n      mload(0x40)\n      dup1\n      swap2\n      sub\n      swap1\n      log2\n        /* \"security/EncryptionManager.sol\":3310:3555  function revokeEncryptionKey(bytes32 keyHash) external onlyOwner {... */\n      pop\n      jump\t// out\n        /* \"security/EncryptionManager.sol\":1317:1506  function generateEncryptionKey(bytes memory keyData) external onlyOwner returns (bytes32 keyHash) {... */\n    tag_23:\n        /* \"security/EncryptionManager.sol\":1398:1413  bytes32 keyHash */\n      0x00\n        /* \"@openzeppelin/contracts/access/Ownable.sol\":1531:1544  _checkOwner() */\n      tag_58\n        /* \"@openzeppelin/contracts/access/Ownable.sol\":1531:1542  _checkOwner */\n      tag_46\n        /* \"@openzeppelin/contracts/access/Ownable.sol\":1531:1544  _checkOwner() */\n      jump\t// in\n    tag_58:\n        /* \"security/EncryptionManager.sol\":1445:1452  keyData */\n      dup2\n        /* \"security/EncryptionManager.sol\":1435:1453  keccak256(keyData) */\n      dup1\n      mload\n      swap1\n      0x20\n      add\n      keccak256\n        /* \"security/EncryptionManager.sol\":1425:1453  keyHash = keccak256(keyData) */\n      swap1\n      pop\n        /* \"security/EncryptionManager.sol\":1491:1498  keyHash */\n      dup1\n        /* \"security/EncryptionManager.sol\":1468:1499  EncryptionKeyGenerated(keyHash) */\n      0x77485319439b79f35b8ce7f2ed9ea1e70e03406efd646301771fb0bda1fcb4e2\n      mload(0x40)\n      mload(0x40)\n      dup1\n      swap2\n      sub\n      swap1\n      log2\n        /* \"security/EncryptionManager.sol\":1317:1506  function generateEncryptionKey(bytes memory keyData) external onlyOwner returns (bytes32 keyHash) {... */\n      swap2\n      swap1\n      pop\n      jump\t// out\n        /* \"@openzeppelin/contracts/access/Ownable.sol\":2293:2394  function renounceOwnership() public virtual onlyOwner {... */\n    tag_27:\n        /* \"@openzeppelin/contracts/access/Ownable.sol\":1531:1544  _checkOwner() */\n      tag_61\n        /* \"@openzeppelin/contracts/access/Ownable.sol\":1531:1542  _checkOwner */\n      tag_46\n        /* \"@openzeppelin/contracts/access/Ownable.sol\":1531:1544  _checkOwner() */\n      jump\t// in\n    tag_61:\n        /* \"@openzeppelin/contracts/access/Ownable.sol\":2357:2387  _transferOwnership(address(0)) */\n      tag_63\n        /* \"@openzeppelin/contracts/access/Ownable.sol\":2384:2385  0 */\n      0x00\n        /* \"@openzeppelin/contracts/access/Ownable.sol\":2357:2375  _transferOwnership */\n      tag_64\n        /* \"@openzeppelin/contracts/access/Ownable.sol\":2357:2387  _transferOwnership(address(0)) */\n      jump\t// in\n    tag_63:\n        /* \"@openzeppelin/contracts/access/Ownable.sol\":2293:2394  function renounceOwnership() public virtual onlyOwner {... */\n      jump\t// out\n        /* \"security/EncryptionManager.sol\":2351:2820  function rotateEncryptionKey(bytes32 oldKeyHash, bytes32 newKeyHash, bytes32 newEncryptedKey) external onlyOwner {... */\n    tag_31:\n        /* \"@openzeppelin/contracts/access/Ownable.sol\":1531:1544  _checkOwner() */\n      tag_66\n        /* \"@openzeppelin/contracts/access/Ownable.sol\":1531:1542  _checkOwner */\n      tag_46\n        /* \"@openzeppelin/contracts/access/Ownable.sol\":1531:1544  _checkOwner() */\n      jump\t// in\n    tag_66:\n        /* \"security/EncryptionManager.sol\":2520:2521  0 */\n      0x00\n        /* \"security/EncryptionManager.sol\":2512:2522  bytes32(0) */\n      dup1\n      shl\n        /* \"security/EncryptionManager.sol\":2482:2496  encryptionKeys */\n      0x01\n        /* \"security/EncryptionManager.sol\":2482:2508  encryptionKeys[oldKeyHash] */\n      0x00\n        /* \"security/EncryptionManager.sol\":2497:2507  oldKeyHash */\n      dup6\n        /* \"security/EncryptionManager.sol\":2482:2508  encryptionKeys[oldKeyHash] */\n      dup2\n      mstore\n      0x20\n      add\n      swap1\n      dup2\n      mstore\n      0x20\n      add\n      0x00\n      keccak256\n      sload\n        /* \"security/EncryptionManager.sol\":2482:2522  encryptionKeys[oldKeyHash] != bytes32(0) */\n      sub\n        /* \"security/EncryptionManager.sol\":2474:2560  require(encryptionKeys[oldKeyHash] != bytes32(0), \"Old encryption key does not exist\") */\n      tag_68\n      jumpi\n      mload(0x40)\n      0x08c379a000000000000000000000000000000000000000000000000000000000\n      dup2\n      mstore\n      0x04\n      add\n      tag_69\n      swap1\n      tag_70\n      jump\t// in\n    tag_69:\n      mload(0x40)\n      dup1\n      swap2\n      sub\n      swap1\n      revert\n    tag_68:\n        /* \"security/EncryptionManager.sol\":2616:2617  0 */\n      0x00\n        /* \"security/EncryptionManager.sol\":2608:2618  bytes32(0) */\n      dup1\n      shl\n        /* \"security/EncryptionManager.sol\":2578:2592  encryptionKeys */\n      0x01\n        /* \"security/EncryptionManager.sol\":2578:2604  encryptionKeys[newKeyHash] */\n      0x00\n        /* \"security/EncryptionManager.sol\":2593:2603  newKeyHash */\n      dup5\n        /* \"security/EncryptionManager.sol\":2578:2604  encryptionKeys[newKeyHash] */\n      dup2\n      mstore\n      0x20\n      add\n      swap1\n      dup2\n      mstore\n      0x20\n      add\n      0x00\n      keccak256\n      sload\n        /* \"security/EncryptionManager.sol\":2578:2618  encryptionKeys[newKeyHash] == bytes32(0) */\n      eq\n        /* \"security/EncryptionManager.sol\":2570:2656  require(encryptionKeys[newKeyHash] == bytes32(0), \"New encryption key already exists\") */\n      tag_71\n      jumpi\n      mload(0x40)\n      0x08c379a000000000000000000000000000000000000000000000000000000000\n      dup2\n      mstore\n      0x04\n      add\n      tag_72\n      swap1\n      tag_73\n      jump\t// in\n    tag_72:\n      mload(0x40)\n      dup1\n      swap2\n      sub\n      swap1\n      revert\n    tag_71:\n        /* \"security/EncryptionManager.sol\":2674:2688  encryptionKeys */\n      0x01\n        /* \"security/EncryptionManager.sol\":2674:2700  encryptionKeys[oldKeyHash] */\n      0x00\n        /* \"security/EncryptionManager.sol\":2689:2699  oldKeyHash */\n      dup5\n        /* \"security/EncryptionManager.sol\":2674:2700  encryptionKeys[oldKeyHash] */\n      dup2\n      mstore\n      0x20\n      add\n      swap1\n      dup2\n      mstore\n      0x20\n      add\n      0x00\n      keccak256\n        /* \"security/EncryptionManager.sol\":2667:2700  delete encryptionKeys[oldKeyHash] */\n      0x00\n      swap1\n      sstore\n        /* \"security/EncryptionManager.sol\":2739:2754  newEncryptedKey */\n      dup1\n        /* \"security/EncryptionManager.sol\":2710:2724  encryptionKeys */\n      0x01\n        /* \"security/EncryptionManager.sol\":2710:2736  encryptionKeys[newKeyHash] */\n      0x00\n        /* \"security/EncryptionManager.sol\":2725:2735  newKeyHash */\n      dup5\n        /* \"security/EncryptionManager.sol\":2710:2736  encryptionKeys[newKeyHash] */\n      dup2\n      mstore\n      0x20\n      add\n      swap1\n      dup2\n      mstore\n      0x20\n      add\n      0x00\n      keccak256\n        /* \"security/EncryptionManager.sol\":2710:2754  encryptionKeys[newKeyHash] = newEncryptedKey */\n      dup2\n      swap1\n      sstore\n      pop\n        /* \"security/EncryptionManager.sol\":2802:2812  newKeyHash */\n      dup2\n        /* \"security/EncryptionManager.sol\":2790:2800  oldKeyHash */\n      dup4\n        /* \"security/EncryptionManager.sol\":2769:2813  EncryptionKeyRotated(oldKeyHash, newKeyHash) */\n      0xb9d170929f5d4791fc211d4914fbb4841c93a6090cae38e072740aed02b52ba3\n      mload(0x40)\n      mload(0x40)\n      dup1\n      swap2\n      sub\n      swap1\n      log3\n        /* \"security/EncryptionManager.sol\":2351:2820  function rotateEncryptionKey(bytes32 oldKeyHash, bytes32 newKeyHash, bytes32 newEncryptedKey) external onlyOwner {... */\n      pop\n      pop\n      pop\n      jump\t// out\n        /* \"@openzeppelin/contracts/access/Ownable.sol\":1638:1723  function owner() public view virtual returns (address) {... */\n    tag_33:\n        /* \"@openzeppelin/contracts/access/Ownable.sol\":1684:1691  address */\n      0x00\n        /* \"@openzeppelin/contracts/access/Ownable.sol\":1710:1716  _owner */\n      dup1\n      0x00\n      swap1\n      sload\n      swap1\n      0x0100\n      exp\n      swap1\n      div\n      0xffffffffffffffffffffffffffffffffffffffff\n      and\n        /* \"@openzeppelin/contracts/access/Ownable.sol\":1703:1716  return _owner */\n      swap1\n      pop\n        /* \"@openzeppelin/contracts/access/Ownable.sol\":1638:1723  function owner() public view virtual returns (address) {... */\n      swap1\n      jump\t// out\n        /* \"security/EncryptionManager.sol\":3023:3155  function getEncryptionKey(bytes32 keyHash) external view onlyOwner returns (bytes32) {... */\n    tag_38:\n        /* \"security/EncryptionManager.sol\":3099:3106  bytes32 */\n      0x00\n        /* \"@openzeppelin/contracts/access/Ownable.sol\":1531:1544  _checkOwner() */\n      tag_76\n        /* \"@openzeppelin/contracts/access/Ownable.sol\":1531:1542  _checkOwner */\n      tag_46\n        /* \"@openzeppelin/contracts/access/Ownable.sol\":1531:1544  _checkOwner() */\n      jump\t// in\n    tag_76:\n        /* \"security/EncryptionManager.sol\":3125:3139  encryptionKeys */\n      0x01\n        /* \"security/EncryptionManager.sol\":3125:3148  encryptionKeys[keyHash] */\n      0x00\n        /* \"security/EncryptionManager.sol\":3140:3147  keyHash */\n      dup4\n        /* \"security/EncryptionManager.sol\":3125:3148  encryptionKeys[keyHash] */\n      dup2\n      mstore\n      0x20\n      add\n      swap1\n      dup2\n      mstore\n      0x20\n      add\n      0x00\n      keccak256\n      sload\n        /* \"security/EncryptionManager.sol\":3118:3148  return encryptionKeys[keyHash] */\n      swap1\n      pop\n        /* \"security/EncryptionManager.sol\":3023:3155  function getEncryptionKey(bytes32 keyHash) external view onlyOwner returns (bytes32) {... */\n      swap2\n      swap1\n      pop\n      jump\t// out\n        /* \"@openzeppelin/contracts/access/Ownable.sol\":2543:2758  function transferOwnership(address newOwner) public virtual onlyOwner {... */\n    tag_43:\n        /* \"@openzeppelin/contracts/access/Ownable.sol\":1531:1544  _checkOwner() */\n      tag_79\n        /* \"@openzeppelin/contracts/access/Ownable.sol\":1531:1542  _checkOwner */\n      tag_46\n        /* \"@openzeppelin/contracts/access/Ownable.sol\":1531:1544  _checkOwner() */\n      jump\t// in\n    tag_79:\n        /* \"@openzeppelin/contracts/access/Ownable.sol\":2647:2648  0 */\n      0x00\n        /* \"@openzeppelin/contracts/access/Ownable.sol\":2627:2649  newOwner == address(0) */\n      0xffffffffffffffffffffffffffffffffffffffff\n      and\n        /* \"@openzeppelin/contracts/access/Ownable.sol\":2627:2635  newOwner */\n      dup2\n        /* \"@openzeppelin/contracts/access/Ownable.sol\":2627:2649  newOwner == address(0) */\n      0xffffffffffffffffffffffffffffffffffffffff\n      and\n      sub\n        /* \"@openzeppelin/contracts/access/Ownable.sol\":2623:2714  if (newOwner == address(0)) {... */\n      tag_81\n      jumpi\n        /* \"@openzeppelin/contracts/access/Ownable.sol\":2700:2701  0 */\n      0x00\n        /* \"@openzeppelin/contracts/access/Ownable.sol\":2672:2703  OwnableInvalidOwner(address(0)) */\n      mload(0x40)\n      0x1e4fbdf700000000000000000000000000000000000000000000000000000000\n      dup2\n      mstore\n      0x04\n      add\n      tag_82\n      swap2\n      swap1\n      tag_35\n      jump\t// in\n    tag_82:\n      mload(0x40)\n      dup1\n      swap2\n      sub\n      swap1\n      revert\n        /* \"@openzeppelin/contracts/access/Ownable.sol\":2623:2714  if (newOwner == address(0)) {... */\n    tag_81:\n        /* \"@openzeppelin/contracts/access/Ownable.sol\":2723:2751  _transferOwnership(newOwner) */\n      tag_83\n        /* \"@openzeppelin/contracts/access/Ownable.sol\":2742:2750  newOwner */\n      dup2\n        /* \"@openzeppelin/contracts/access/Ownable.sol\":2723:2741  _transferOwnership */\n      tag_64\n        /* \"@openzeppelin/contracts/access/Ownable.sol\":2723:2751  _transferOwnership(newOwner) */\n      jump\t// in\n    tag_83:\n        /* \"@openzeppelin/contracts/access/Ownable.sol\":2543:2758  function transferOwnership(address newOwner) public virtual onlyOwner {... */\n      pop\n      jump\t// out\n        /* \"@openzeppelin/contracts/access/Ownable.sol\":1796:1958  function _checkOwner() internal view virtual {... */\n    tag_46:\n        /* \"@openzeppelin/contracts/access/Ownable.sol\":1866:1878  _msgSender() */\n      tag_85\n        /* \"@openzeppelin/contracts/access/Ownable.sol\":1866:1876  _msgSender */\n      tag_86\n        /* \"@openzeppelin/contracts/access/Ownable.sol\":1866:1878  _msgSender() */\n      jump\t// in\n    tag_85:\n        /* \"@openzeppelin/contracts/access/Ownable.sol\":1855:1878  owner() != _msgSender() */\n      0xffffffffffffffffffffffffffffffffffffffff\n      and\n        /* \"@openzeppelin/contracts/access/Ownable.sol\":1855:1862  owner() */\n      tag_87\n        /* \"@openzeppelin/contracts/access/Ownable.sol\":1855:1860  owner */\n      tag_33\n        /* \"@openzeppelin/contracts/access/Ownable.sol\":1855:1862  owner() */\n      jump\t// in\n    tag_87:\n        /* \"@openzeppelin/contracts/access/Ownable.sol\":1855:1878  owner() != _msgSender() */\n      0xffffffffffffffffffffffffffffffffffffffff\n      and\n      eq\n        /* \"@openzeppelin/contracts/access/Ownable.sol\":1851:1952  if (owner() != _msgSender()) {... */\n      tag_88\n      jumpi\n        /* \"@openzeppelin/contracts/access/Ownable.sol\":1928:1940  _msgSender() */\n      tag_89\n        /* \"@openzeppelin/contracts/access/Ownable.sol\":1928:1938  _msgSender */\n      tag_86\n        /* \"@openzeppelin/contracts/access/Ownable.sol\":1928:1940  _msgSender() */\n      jump\t// in\n    tag_89:\n        /* \"@openzeppelin/contracts/access/Ownable.sol\":1901:1941  OwnableUnauthorizedAccount(_msgSender()) */\n      mload(0x40)\n      0x118cdaa700000000000000000000000000000000000000000000000000000000\n      dup2\n      mstore\n      0x04\n      add\n      tag_90\n      swap2\n      swap1\n      tag_35\n      jump\t// in\n    tag_90:\n      mload(0x40)\n      dup1\n      swap2\n      sub\n      swap1\n      revert\n        /* \"@openzeppelin/contracts/access/Ownable.sol\":1851:1952  if (owner() != _msgSender()) {... */\n    tag_88:\n        /* \"@openzeppelin/contracts/access/Ownable.sol\":1796:1958  function _checkOwner() internal view virtual {... */\n      jump\t// out\n        /* \"@openzeppelin/contracts/access/Ownable.sol\":2912:3099  function _transferOwnership(address newOwner) internal virtual {... */\n    tag_64:\n        /* \"@openzeppelin/contracts/access/Ownable.sol\":2985:3001  address oldOwner */\n      0x00\n        /* \"@openzeppelin/contracts/access/Ownable.sol\":3004:3010  _owner */\n      dup1\n      0x00\n      swap1\n      sload\n      swap1\n      0x0100\n      exp\n      swap1\n      div\n      0xffffffffffffffffffffffffffffffffffffffff\n      and\n        /* \"@openzeppelin/contracts/access/Ownable.sol\":2985:3010  address oldOwner = _owner */\n      swap1\n      pop\n        /* \"@openzeppelin/contracts/access/Ownable.sol\":3029:3037  newOwner */\n      dup2\n        /* \"@openzeppelin/contracts/access/Ownable.sol\":3020:3026  _owner */\n      0x00\n      dup1\n        /* \"@openzeppelin/contracts/access/Ownable.sol\":3020:3037  _owner = newOwner */\n      0x0100\n      exp\n      dup2\n      sload\n      dup2\n      0xffffffffffffffffffffffffffffffffffffffff\n      mul\n      not\n      and\n      swap1\n      dup4\n      0xffffffffffffffffffffffffffffffffffffffff\n      and\n      mul\n      or\n      swap1\n      sstore\n      pop\n        /* \"@openzeppelin/contracts/access/Ownable.sol\":3083:3091  newOwner */\n      dup2\n        /* \"@openzeppelin/contracts/access/Ownable.sol\":3052:3092  OwnershipTransferred(oldOwner, newOwner) */\n      0xffffffffffffffffffffffffffffffffffffffff\n      and\n        /* \"@openzeppelin/contracts/access/Ownable.sol\":3073:3081  oldOwner */\n      dup2\n        /* \"@openzeppelin/contracts/access/Ownable.sol\":3052:3092  OwnershipTransferred(oldOwner, newOwner) */\n      0xffffffffffffffffffffffffffffffffffffffff\n      and\n      0x8be0079c531659141344cd1fd0a4f28419497f9722a3daafe3b4186f6b6457e0\n      mload(0x40)\n      mload(0x40)\n      dup1\n      swap2\n      sub\n      swap1\n      log3\n        /* \"@openzeppelin/contracts/access/Ownable.sol\":2975:3099  {... */\n      pop\n        /* \"@openzeppelin/contracts/access/Ownable.sol\":2912:3099  function _transferOwnership(address newOwner) internal virtual {... */\n      pop\n      jump\t// out\n        /* \"@openzeppelin/contracts/utils/Context.sol\":656:752  function _msgSender() internal view virtual returns (address) {... */\n    tag_86:\n        /* \"@openzeppelin/contracts/utils/Context.sol\":709:716  address */\n      0x00\n        /* \"@openzeppelin/contracts/utils/Context.sol\":735:745  msg.sender */\n      caller\n        /* \"@openzeppelin/contracts/utils/Context.sol\":728:745  return msg.sender */\n      swap1\n      pop\n        /* \"@openzeppelin/contracts/utils/Context.sol\":656:752  function _msgSender() internal view virtual returns (address) {... */\n      swap1\n      jump\t// out\n        /* \"#utility.yul\":7:82   */\n    tag_93:\n        /* \"#utility.yul\":40:46   */\n      0x00\n        /* \"#utility.yul\":73:75   */\n      0x40\n        /* \"#utility.yul\":67:76   */\n      mload\n        /* \"#utility.yul\":57:76   */\n      swap1\n      pop\n        /* \"#utility.yul\":7:82   */\n      swap1\n      jump\t// out\n        /* \"#utility.yul\":88:205   */\n    tag_94:\n        /* \"#utility.yul\":197:198   */\n      0x00\n        /* \"#utility.yul\":194:195   */\n      dup1\n        /* \"#utility.yul\":187:199   */\n      revert\n        /* \"#utility.yul\":211:328   */\n    tag_95:\n        /* \"#utility.yul\":320:321   */\n      0x00\n        /* \"#utility.yul\":317:318   */\n      dup1\n        /* \"#utility.yul\":310:322   */\n      revert\n        /* \"#utility.yul\":334:411   */\n    tag_96:\n        /* \"#utility.yul\":371:378   */\n      0x00\n        /* \"#utility.yul\":400:405   */\n      dup2\n        /* \"#utility.yul\":389:405   */\n      swap1\n      pop\n        /* \"#utility.yul\":334:411   */\n      swap2\n      swap1\n      pop\n      jump\t// out\n        /* \"#utility.yul\":417:539   */\n    tag_97:\n        /* \"#utility.yul\":490:514   */\n      tag_130\n        /* \"#utility.yul\":508:513   */\n      dup2\n        /* \"#utility.yul\":490:514   */\n      tag_96\n      jump\t// in\n    tag_130:\n        /* \"#utility.yul\":483:488   */\n      dup2\n        /* \"#utility.yul\":480:515   */\n      eq\n        /* \"#utility.yul\":470:533   */\n      tag_131\n      jumpi\n        /* \"#utility.yul\":529:530   */\n      0x00\n        /* \"#utility.yul\":526:527   */\n      dup1\n        /* \"#utility.yul\":519:531   */\n      revert\n        /* \"#utility.yul\":470:533   */\n    tag_131:\n        /* \"#utility.yul\":417:539   */\n      pop\n      jump\t// out\n        /* \"#utility.yul\":545:684   */\n    tag_98:\n        /* \"#utility.yul\":591:596   */\n      0x00\n        /* \"#utility.yul\":629:635   */\n      dup2\n        /* \"#utility.yul\":616:636   */\n      calldataload\n        /* \"#utility.yul\":607:636   */\n      swap1\n      pop\n        /* \"#utility.yul\":645:678   */\n      tag_133\n        /* \"#utility.yul\":672:677   */\n      dup2\n        /* \"#utility.yul\":645:678   */\n      tag_97\n      jump\t// in\n    tag_133:\n        /* \"#utility.yul\":545:684   */\n      swap3\n      swap2\n      pop\n      pop\n      jump\t// out\n        /* \"#utility.yul\":690:1164   */\n    tag_14:\n        /* \"#utility.yul\":758:764   */\n      0x00\n        /* \"#utility.yul\":766:772   */\n      dup1\n        /* \"#utility.yul\":815:817   */\n      0x40\n        /* \"#utility.yul\":803:812   */\n      dup4\n        /* \"#utility.yul\":794:801   */\n      dup6\n        /* \"#utility.yul\":790:813   */\n      sub\n        /* \"#utility.yul\":786:818   */\n      slt\n        /* \"#utility.yul\":783:902   */\n      iszero\n      tag_135\n      jumpi\n        /* \"#utility.yul\":821:900   */\n      tag_136\n      tag_94\n      jump\t// in\n    tag_136:\n        /* \"#utility.yul\":783:902   */\n    tag_135:\n        /* \"#utility.yul\":941:942   */\n      0x00\n        /* \"#utility.yul\":966:1019   */\n      tag_137\n        /* \"#utility.yul\":1011:1018   */\n      dup6\n        /* \"#utility.yul\":1002:1008   */\n      dup3\n        /* \"#utility.yul\":991:1000   */\n      dup7\n        /* \"#utility.yul\":987:1009   */\n      add\n        /* \"#utility.yul\":966:1019   */\n      tag_98\n      jump\t// in\n    tag_137:\n        /* \"#utility.yul\":956:1019   */\n      swap3\n      pop\n        /* \"#utility.yul\":912:1029   */\n      pop\n        /* \"#utility.yul\":1068:1070   */\n      0x20\n        /* \"#utility.yul\":1094:1147   */\n      tag_138\n        /* \"#utility.yul\":1139:1146   */\n      dup6\n        /* \"#utility.yul\":1130:1136   */\n      dup3\n        /* \"#utility.yul\":1119:1128   */\n      dup7\n        /* \"#utility.yul\":1115:1137   */\n      add\n        /* \"#utility.yul\":1094:1147   */\n      tag_98\n      jump\t// in\n    tag_138:\n        /* \"#utility.yul\":1084:1147   */\n      swap2\n      pop\n        /* \"#utility.yul\":1039:1157   */\n      pop\n        /* \"#utility.yul\":690:1164   */\n      swap3\n      pop\n      swap3\n      swap1\n      pop\n      jump\t// out\n        /* \"#utility.yul\":1170:1499   */\n    tag_18:\n        /* \"#utility.yul\":1229:1235   */\n      0x00\n        /* \"#utility.yul\":1278:1280   */\n      0x20\n        /* \"#utility.yul\":1266:1275   */\n      dup3\n        /* \"#utility.yul\":1257:1264   */\n      dup5\n        /* \"#utility.yul\":1253:1276   */\n      sub\n        /* \"#utility.yul\":1249:1281   */\n      slt\n        /* \"#utility.yul\":1246:1365   */\n      iszero\n      tag_140\n      jumpi\n        /* \"#utility.yul\":1284:1363   */\n      tag_141\n      tag_94\n      jump\t// in\n    tag_141:\n        /* \"#utility.yul\":1246:1365   */\n    tag_140:\n        /* \"#utility.yul\":1404:1405   */\n      0x00\n        /* \"#utility.yul\":1429:1482   */\n      tag_142\n        /* \"#utility.yul\":1474:1481   */\n      dup5\n        /* \"#utility.yul\":1465:1471   */\n      dup3\n        /* \"#utility.yul\":1454:1463   */\n      dup6\n        /* \"#utility.yul\":1450:1472   */\n      add\n        /* \"#utility.yul\":1429:1482   */\n      tag_98\n      jump\t// in\n    tag_142:\n        /* \"#utility.yul\":1419:1482   */\n      swap2\n      pop\n        /* \"#utility.yul\":1375:1492   */\n      pop\n        /* \"#utility.yul\":1170:1499   */\n      swap3\n      swap2\n      pop\n      pop\n      jump\t// out\n        /* \"#utility.yul\":1505:1622   */\n    tag_99:\n        /* \"#utility.yul\":1614:1615   */\n      0x00\n        /* \"#utility.yul\":1611:1612   */\n      dup1\n        /* \"#utility.yul\":1604:1616   */\n      revert\n        /* \"#utility.yul\":1628:1745   */\n    tag_100:\n        /* \"#utility.yul\":1737:1738   */\n      0x00\n        /* \"#utility.yul\":1734:1735   */\n      dup1\n        /* \"#utility.yul\":1727:1739   */\n      revert\n        /* \"#utility.yul\":1751:1853   */\n    tag_101:\n        /* \"#utility.yul\":1792:1798   */\n      0x00\n        /* \"#utility.yul\":1843:1845   */\n      0x1f\n        /* \"#utility.yul\":1839:1846   */\n      not\n        /* \"#utility.yul\":1834:1836   */\n      0x1f\n        /* \"#utility.yul\":1827:1832   */\n      dup4\n        /* \"#utility.yul\":1823:1837   */\n      add\n        /* \"#utility.yul\":1819:1847   */\n      and\n        /* \"#utility.yul\":1809:1847   */\n      swap1\n      pop\n        /* \"#utility.yul\":1751:1853   */\n      swap2\n      swap1\n      pop\n      jump\t// out\n        /* \"#utility.yul\":1859:2039   */\n    tag_102:\n        /* \"#utility.yul\":1907:1984   */\n      0x4e487b7100000000000000000000000000000000000000000000000000000000\n        /* \"#utility.yul\":1904:1905   */\n      0x00\n        /* \"#utility.yul\":1897:1985   */\n      mstore\n        /* \"#utility.yul\":2004:2008   */\n      0x41\n        /* \"#utility.yul\":2001:2002   */\n      0x04\n        /* \"#utility.yul\":1994:2009   */\n      mstore\n        /* \"#utility.yul\":2028:2032   */\n      0x24\n        /* \"#utility.yul\":2025:2026   */\n      0x00\n        /* \"#utility.yul\":2018:2033   */\n      revert\n        /* \"#utility.yul\":2045:2326   */\n    tag_103:\n        /* \"#utility.yul\":2128:2155   */\n      tag_148\n        /* \"#utility.yul\":2150:2154   */\n      dup3\n        /* \"#utility.yul\":2128:2155   */\n      tag_101\n      jump\t// in\n    tag_148:\n        /* \"#utility.yul\":2120:2126   */\n      dup2\n        /* \"#utility.yul\":2116:2156   */\n      add\n        /* \"#utility.yul\":2258:2264   */\n      dup2\n        /* \"#utility.yul\":2246:2256   */\n      dup2\n        /* \"#utility.yul\":2243:2265   */\n      lt\n        /* \"#utility.yul\":2222:2240   */\n      0xffffffffffffffff\n        /* \"#utility.yul\":2210:2220   */\n      dup3\n        /* \"#utility.yul\":2207:2241   */\n      gt\n        /* \"#utility.yul\":2204:2266   */\n      or\n        /* \"#utility.yul\":2201:2289   */\n      iszero\n      tag_149\n      jumpi\n        /* \"#utility.yul\":2269:2287   */\n      tag_150\n      tag_102\n      jump\t// in\n    tag_150:\n        /* \"#utility.yul\":2201:2289   */\n    tag_149:\n        /* \"#utility.yul\":2309:2319   */\n      dup1\n        /* \"#utility.yul\":2305:2307   */\n      0x40\n        /* \"#utility.yul\":2298:2320   */\n      mstore\n        /* \"#utility.yul\":2088:2326   */\n      pop\n        /* \"#utility.yul\":2045:2326   */\n      pop\n      pop\n      jump\t// out\n        /* \"#utility.yul\":2332:2461   */\n    tag_104:\n        /* \"#utility.yul\":2366:2372   */\n      0x00\n        /* \"#utility.yul\":2393:2413   */\n      tag_152\n      tag_93\n      jump\t// in\n    tag_152:\n        /* \"#utility.yul\":2383:2413   */\n      swap1\n      pop\n        /* \"#utility.yul\":2422:2455   */\n      tag_153\n        /* \"#utility.yul\":2450:2454   */\n      dup3\n        /* \"#utility.yul\":2442:2448   */\n      dup3\n        /* \"#utility.yul\":2422:2455   */\n      tag_103\n      jump\t// in\n    tag_153:\n        /* \"#utility.yul\":2332:2461   */\n      swap2\n      swap1\n      pop\n      jump\t// out\n        /* \"#utility.yul\":2467:2774   */\n    tag_105:\n        /* \"#utility.yul\":2528:2532   */\n      0x00\n        /* \"#utility.yul\":2618:2636   */\n      0xffffffffffffffff\n        /* \"#utility.yul\":2610:2616   */\n      dup3\n        /* \"#utility.yul\":2607:2637   */\n      gt\n        /* \"#utility.yul\":2604:2660   */\n      iszero\n      tag_155\n      jumpi\n        /* \"#utility.yul\":2640:2658   */\n      tag_156\n      tag_102\n      jump\t// in\n    tag_156:\n        /* \"#utility.yul\":2604:2660   */\n    tag_155:\n        /* \"#utility.yul\":2678:2707   */\n      tag_157\n        /* \"#utility.yul\":2700:2706   */\n      dup3\n        /* \"#utility.yul\":2678:2707   */\n      tag_101\n      jump\t// in\n    tag_157:\n        /* \"#utility.yul\":2670:2707   */\n      swap1\n      pop\n        /* \"#utility.yul\":2762:2766   */\n      0x20\n        /* \"#utility.yul\":2756:2760   */\n      dup2\n        /* \"#utility.yul\":2752:2767   */\n      add\n        /* \"#utility.yul\":2744:2767   */\n      swap1\n      pop\n        /* \"#utility.yul\":2467:2774   */\n      swap2\n      swap1\n      pop\n      jump\t// out\n        /* \"#utility.yul\":2780:2928   */\n    tag_106:\n        /* \"#utility.yul\":2878:2884   */\n      dup3\n        /* \"#utility.yul\":2873:2876   */\n      dup2\n        /* \"#utility.yul\":2868:2871   */\n      dup4\n        /* \"#utility.yul\":2855:2885   */\n      calldatacopy\n        /* \"#utility.yul\":2919:2920   */\n      0x00\n        /* \"#utility.yul\":2910:2916   */\n      dup4\n        /* \"#utility.yul\":2905:2908   */\n      dup4\n        /* \"#utility.yul\":2901:2917   */\n      add\n        /* \"#utility.yul\":2894:2921   */\n      mstore\n        /* \"#utility.yul\":2780:2928   */\n      pop\n      pop\n      pop\n      jump\t// out\n        /* \"#utility.yul\":2934:3357   */\n    tag_107:\n        /* \"#utility.yul\":3011:3016   */\n      0x00\n        /* \"#utility.yul\":3036:3101   */\n      tag_160\n        /* \"#utility.yul\":3052:3100   */\n      tag_161\n        /* \"#utility.yul\":3093:3099   */\n      dup5\n        /* \"#utility.yul\":3052:3100   */\n      tag_105\n      jump\t// in\n    tag_161:\n        /* \"#utility.yul\":3036:3101   */\n      tag_104\n      jump\t// in\n    tag_160:\n        /* \"#utility.yul\":3027:3101   */\n      swap1\n      pop\n        /* \"#utility.yul\":3124:3130   */\n      dup3\n        /* \"#utility.yul\":3117:3122   */\n      dup2\n        /* \"#utility.yul\":3110:3131   */\n      mstore\n        /* \"#utility.yul\":3162:3166   */\n      0x20\n        /* \"#utility.yul\":3155:3160   */\n      dup2\n        /* \"#utility.yul\":3151:3167   */\n      add\n        /* \"#utility.yul\":3200:3203   */\n      dup5\n        /* \"#utility.yul\":3191:3197   */\n      dup5\n        /* \"#utility.yul\":3186:3189   */\n      dup5\n        /* \"#utility.yul\":3182:3198   */\n      add\n        /* \"#utility.yul\":3179:3204   */\n      gt\n        /* \"#utility.yul\":3176:3288   */\n      iszero\n      tag_162\n      jumpi\n        /* \"#utility.yul\":3207:3286   */\n      tag_163\n      tag_100\n      jump\t// in\n    tag_163:\n        /* \"#utility.yul\":3176:3288   */\n    tag_162:\n        /* \"#utility.yul\":3297:3351   */\n      tag_164\n        /* \"#utility.yul\":3344:3350   */\n      dup5\n        /* \"#utility.yul\":3339:3342   */\n      dup3\n        /* \"#utility.yul\":3334:3337   */\n      dup6\n        /* \"#utility.yul\":3297:3351   */\n      tag_106\n      jump\t// in\n    tag_164:\n        /* \"#utility.yul\":3017:3357   */\n      pop\n        /* \"#utility.yul\":2934:3357   */\n      swap4\n      swap3\n      pop\n      pop\n      pop\n      jump\t// out\n        /* \"#utility.yul\":3376:3714   */\n    tag_108:\n        /* \"#utility.yul\":3431:3436   */\n      0x00\n        /* \"#utility.yul\":3480:3483   */\n      dup3\n        /* \"#utility.yul\":3473:3477   */\n      0x1f\n        /* \"#utility.yul\":3465:3471   */\n      dup4\n        /* \"#utility.yul\":3461:3478   */\n      add\n        /* \"#utility.yul\":3457:3484   */\n      slt\n        /* \"#utility.yul\":3447:3569   */\n      tag_166\n      jumpi\n        /* \"#utility.yul\":3488:3567   */\n      tag_167\n      tag_99\n      jump\t// in\n    tag_167:\n        /* \"#utility.yul\":3447:3569   */\n    tag_166:\n        /* \"#utility.yul\":3605:3611   */\n      dup2\n        /* \"#utility.yul\":3592:3612   */\n      calldataload\n        /* \"#utility.yul\":3630:3708   */\n      tag_168\n        /* \"#utility.yul\":3704:3707   */\n      dup5\n        /* \"#utility.yul\":3696:3702   */\n      dup3\n        /* \"#utility.yul\":3689:3693   */\n      0x20\n        /* \"#utility.yul\":3681:3687   */\n      dup7\n        /* \"#utility.yul\":3677:3694   */\n      add\n        /* \"#utility.yul\":3630:3708   */\n      tag_107\n      jump\t// in\n    tag_168:\n        /* \"#utility.yul\":3621:3708   */\n      swap2\n      pop\n        /* \"#utility.yul\":3437:3714   */\n      pop\n        /* \"#utility.yul\":3376:3714   */\n      swap3\n      swap2\n      pop\n      pop\n      jump\t// out\n        /* \"#utility.yul\":3720:4227   */\n    tag_22:\n        /* \"#utility.yul\":3788:3794   */\n      0x00\n        /* \"#utility.yul\":3837:3839   */\n      0x20\n        /* \"#utility.yul\":3825:3834   */\n      dup3\n        /* \"#utility.yul\":3816:3823   */\n      dup5\n        /* \"#utility.yul\":3812:3835   */\n      sub\n        /* \"#utility.yul\":3808:3840   */\n      slt\n        /* \"#utility.yul\":3805:3924   */\n      iszero\n      tag_170\n      jumpi\n        /* \"#utility.yul\":3843:3922   */\n      tag_171\n      tag_94\n      jump\t// in\n    tag_171:\n        /* \"#utility.yul\":3805:3924   */\n    tag_170:\n        /* \"#utility.yul\":3991:3992   */\n      0x00\n        /* \"#utility.yul\":3980:3989   */\n      dup3\n        /* \"#utility.yul\":3976:3993   */\n      add\n        /* \"#utility.yul\":3963:3994   */\n      calldataload\n        /* \"#utility.yul\":4021:4039   */\n      0xffffffffffffffff\n        /* \"#utility.yul\":4013:4019   */\n      dup2\n        /* \"#utility.yul\":4010:4040   */\n      gt\n        /* \"#utility.yul\":4007:4124   */\n      iszero\n      tag_172\n      jumpi\n        /* \"#utility.yul\":4043:4122   */\n      tag_173\n      tag_95\n      jump\t// in\n    tag_173:\n        /* \"#utility.yul\":4007:4124   */\n    tag_172:\n        /* \"#utility.yul\":4148:4210   */\n      tag_174\n        /* \"#utility.yul\":4202:4209   */\n      dup5\n        /* \"#utility.yul\":4193:4199   */\n      dup3\n        /* \"#utility.yul\":4182:4191   */\n      dup6\n        /* \"#utility.yul\":4178:4200   */\n      add\n        /* \"#utility.yul\":4148:4210   */\n      tag_108\n      jump\t// in\n    tag_174:\n        /* \"#utility.yul\":4138:4210   */\n      swap2\n      pop\n        /* \"#utility.yul\":3934:4220   */\n      pop\n        /* \"#utility.yul\":3720:4227   */\n      swap3\n      swap2\n      pop\n      pop\n      jump\t// out\n        /* \"#utility.yul\":4233:4351   */\n    tag_109:\n        /* \"#utility.yul\":4320:4344   */\n      tag_176\n        /* \"#utility.yul\":4338:4343   */\n      dup2\n        /* \"#utility.yul\":4320:4344   */\n      tag_96\n      jump\t// in\n    tag_176:\n        /* \"#utility.yul\":4315:4318   */\n      dup3\n        /* \"#utility.yul\":4308:4345   */\n      mstore\n        /* \"#utility.yul\":4233:4351   */\n      pop\n      pop\n      jump\t// out\n        /* \"#utility.yul\":4357:4579   */\n    tag_25:\n        /* \"#utility.yul\":4450:4454   */\n      0x00\n        /* \"#utility.yul\":4488:4490   */\n      0x20\n        /* \"#utility.yul\":4477:4486   */\n      dup3\n        /* \"#utility.yul\":4473:4491   */\n      add\n        /* \"#utility.yul\":4465:4491   */\n      swap1\n      pop\n        /* \"#utility.yul\":4501:4572   */\n      tag_178\n        /* \"#utility.yul\":4569:4570   */\n      0x00\n        /* \"#utility.yul\":4558:4567   */\n      dup4\n        /* \"#utility.yul\":4554:4571   */\n      add\n        /* \"#utility.yul\":4545:4551   */\n      dup5\n        /* \"#utility.yul\":4501:4572   */\n      tag_109\n      jump\t// in\n    tag_178:\n        /* \"#utility.yul\":4357:4579   */\n      swap3\n      swap2\n      pop\n      pop\n      jump\t// out\n        /* \"#utility.yul\":4585:5204   */\n    tag_30:\n        /* \"#utility.yul\":4662:4668   */\n      0x00\n        /* \"#utility.yul\":4670:4676   */\n      dup1\n        /* \"#utility.yul\":4678:4684   */\n      0x00\n        /* \"#utility.yul\":4727:4729   */\n      0x60\n        /* \"#utility.yul\":4715:4724   */\n      dup5\n        /* \"#utility.yul\":4706:4713   */\n      dup7\n        /* \"#utility.yul\":4702:4725   */\n      sub\n        /* \"#utility.yul\":4698:4730   */\n      slt\n        /* \"#utility.yul\":4695:4814   */\n      iszero\n      tag_180\n      jumpi\n        /* \"#utility.yul\":4733:4812   */\n      tag_181\n      tag_94\n      jump\t// in\n    tag_181:\n        /* \"#utility.yul\":4695:4814   */\n    tag_180:\n        /* \"#utility.yul\":4853:4854   */\n      0x00\n        /* \"#utility.yul\":4878:4931   */\n      tag_182\n        /* \"#utility.yul\":4923:4930   */\n      dup7\n        /* \"#utility.yul\":4914:4920   */\n      dup3\n        /* \"#utility.yul\":4903:4912   */\n      dup8\n        /* \"#utility.yul\":4899:4921   */\n      add\n        /* \"#utility.yul\":4878:4931   */\n      tag_98\n      jump\t// in\n    tag_182:\n        /* \"#utility.yul\":4868:4931   */\n      swap4\n      pop\n        /* \"#utility.yul\":4824:4941   */\n      pop\n        /* \"#utility.yul\":4980:4982   */\n      0x20\n        /* \"#utility.yul\":5006:5059   */\n      tag_183\n        /* \"#utility.yul\":5051:5058   */\n      dup7\n        /* \"#utility.yul\":5042:5048   */\n      dup3\n        /* \"#utility.yul\":5031:5040   */\n      dup8\n        /* \"#utility.yul\":5027:5049   */\n      add\n        /* \"#utility.yul\":5006:5059   */\n      tag_98\n      jump\t// in\n    tag_183:\n        /* \"#utility.yul\":4996:5059   */\n      swap3\n      pop\n        /* \"#utility.yul\":4951:5069   */\n      pop\n        /* \"#utility.yul\":5108:5110   */\n      0x40\n        /* \"#utility.yul\":5134:5187   */\n      tag_184\n        /* \"#utility.yul\":5179:5186   */\n      dup7\n        /* \"#utility.yul\":5170:5176   */\n      dup3\n        /* \"#utility.yul\":5159:5168   */\n      dup8\n        /* \"#utility.yul\":5155:5177   */\n      add\n        /* \"#utility.yul\":5134:5187   */\n      tag_98\n      jump\t// in\n    tag_184:\n        /* \"#utility.yul\":5124:5187   */\n      swap2\n      pop\n        /* \"#utility.yul\":5079:5197   */\n      pop\n        /* \"#utility.yul\":4585:5204   */\n      swap3\n      pop\n      swap3\n      pop\n      swap3\n      jump\t// out\n        /* \"#utility.yul\":5210:5336   */\n    tag_110:\n        /* \"#utility.yul\":5247:5254   */\n      0x00\n        /* \"#utility.yul\":5287:5329   */\n      0xffffffffffffffffffffffffffffffffffffffff\n        /* \"#utility.yul\":5280:5285   */\n      dup3\n        /* \"#utility.yul\":5276:5330   */\n      and\n        /* \"#utility.yul\":5265:5330   */\n      swap1\n      pop\n        /* \"#utility.yul\":5210:5336   */\n      swap2\n      swap1\n      pop\n      jump\t// out\n        /* \"#utility.yul\":5342:5438   */\n    tag_111:\n        /* \"#utility.yul\":5379:5386   */\n      0x00\n        /* \"#utility.yul\":5408:5432   */\n      tag_187\n        /* \"#utility.yul\":5426:5431   */\n      dup3\n        /* \"#utility.yul\":5408:5432   */\n      tag_110\n      jump\t// in\n    tag_187:\n        /* \"#utility.yul\":5397:5432   */\n      swap1\n      pop\n        /* \"#utility.yul\":5342:5438   */\n      swap2\n      swap1\n      pop\n      jump\t// out\n        /* \"#utility.yul\":5444:5562   */\n    tag_112:\n        /* \"#utility.yul\":5531:5555   */\n      tag_189\n        /* \"#utility.yul\":5549:5554   */\n      dup2\n        /* \"#utility.yul\":5531:5555   */\n      tag_111\n      jump\t// in\n    tag_189:\n        /* \"#utility.yul\":5526:5529   */\n      dup3\n        /* \"#utility.yul\":5519:5556   */\n      mstore\n        /* \"#utility.yul\":5444:5562   */\n      pop\n      pop\n      jump\t// out\n        /* \"#utility.yul\":5568:5790   */\n    tag_35:\n        /* \"#utility.yul\":5661:5665   */\n      0x00\n        /* \"#utility.yul\":5699:5701   */\n      0x20\n        /* \"#utility.yul\":5688:5697   */\n      dup3\n        /* \"#utility.yul\":5684:5702   */\n      add\n        /* \"#utility.yul\":5676:5702   */\n      swap1\n      pop\n        /* \"#utility.yul\":5712:5783   */\n      tag_191\n        /* \"#utility.yul\":5780:5781   */\n      0x00\n        /* \"#utility.yul\":5769:5778   */\n      dup4\n        /* \"#utility.yul\":5765:5782   */\n      add\n        /* \"#utility.yul\":5756:5762   */\n      dup5\n        /* \"#utility.yul\":5712:5783   */\n      tag_112\n      jump\t// in\n    tag_191:\n        /* \"#utility.yul\":5568:5790   */\n      swap3\n      swap2\n      pop\n      pop\n      jump\t// out\n        /* \"#utility.yul\":5796:5918   */\n    tag_113:\n        /* \"#utility.yul\":5869:5893   */\n      tag_193\n        /* \"#utility.yul\":5887:5892   */\n      dup2\n        /* \"#utility.yul\":5869:5893   */\n      tag_111\n      jump\t// in\n    tag_193:\n        /* \"#utility.yul\":5862:5867   */\n      dup2\n        /* \"#utility.yul\":5859:5894   */\n      eq\n        /* \"#utility.yul\":5849:5912   */\n      tag_194\n      jumpi\n        /* \"#utility.yul\":5908:5909   */\n      0x00\n        /* \"#utility.yul\":5905:5906   */\n      dup1\n        /* \"#utility.yul\":5898:5910   */\n      revert\n        /* \"#utility.yul\":5849:5912   */\n    tag_194:\n        /* \"#utility.yul\":5796:5918   */\n      pop\n      jump\t// out\n        /* \"#utility.yul\":5924:6063   */\n    tag_114:\n        /* \"#utility.yul\":5970:5975   */\n      0x00\n        /* \"#utility.yul\":6008:6014   */\n      dup2\n        /* \"#utility.yul\":5995:6015   */\n      calldataload\n        /* \"#utility.yul\":5986:6015   */\n      swap1\n      pop\n        /* \"#utility.yul\":6024:6057   */\n      tag_196\n        /* \"#utility.yul\":6051:6056   */\n      dup2\n        /* \"#utility.yul\":6024:6057   */\n      tag_113\n      jump\t// in\n    tag_196:\n        /* \"#utility.yul\":5924:6063   */\n      swap3\n      swap2\n      pop\n      pop\n      jump\t// out\n        /* \"#utility.yul\":6069:6398   */\n    tag_42:\n        /* \"#utility.yul\":6128:6134   */\n      0x00\n        /* \"#utility.yul\":6177:6179   */\n      0x20\n        /* \"#utility.yul\":6165:6174   */\n      dup3\n        /* \"#utility.yul\":6156:6163   */\n      dup5\n        /* \"#utility.yul\":6152:6175   */\n      sub\n        /* \"#utility.yul\":6148:6180   */\n      slt\n        /* \"#utility.yul\":6145:6264   */\n      iszero\n      tag_198\n      jumpi\n        /* \"#utility.yul\":6183:6262   */\n      tag_199\n      tag_94\n      jump\t// in\n    tag_199:\n        /* \"#utility.yul\":6145:6264   */\n    tag_198:\n        /* \"#utility.yul\":6303:6304   */\n      0x00\n        /* \"#utility.yul\":6328:6381   */\n      tag_200\n        /* \"#utility.yul\":6373:6380   */\n      dup5\n        /* \"#utility.yul\":6364:6370   */\n      dup3\n        /* \"#utility.yul\":6353:6362   */\n      dup6\n        /* \"#utility.yul\":6349:6371   */\n      add\n        /* \"#utility.yul\":6328:6381   */\n      tag_114\n      jump\t// in\n    tag_200:\n        /* \"#utility.yul\":6318:6381   */\n      swap2\n      pop\n        /* \"#utility.yul\":6274:6391   */\n      pop\n        /* \"#utility.yul\":6069:6398   */\n      swap3\n      swap2\n      pop\n      pop\n      jump\t// out\n        /* \"#utility.yul\":6404:6573   */\n    tag_115:\n        /* \"#utility.yul\":6488:6499   */\n      0x00\n        /* \"#utility.yul\":6522:6528   */\n      dup3\n        /* \"#utility.yul\":6517:6520   */\n      dup3\n        /* \"#utility.yul\":6510:6529   */\n      mstore\n        /* \"#utility.yul\":6562:6566   */\n      0x20\n        /* \"#utility.yul\":6557:6560   */\n      dup3\n        /* \"#utility.yul\":6553:6567   */\n      add\n        /* \"#utility.yul\":6538:6567   */\n      swap1\n      pop\n        /* \"#utility.yul\":6404:6573   */\n      swap3\n      swap2\n      pop\n      pop\n      jump\t// out\n        /* \"#utility.yul\":6579:6758   */\n    tag_116:\n        /* \"#utility.yul\":6719:6750   */\n      0x456e6372797074696f6e206b657920616c726561647920657869737473000000\n        /* \"#utility.yul\":6715:6716   */\n      0x00\n        /* \"#utility.yul\":6707:6713   */\n      dup3\n        /* \"#utility.yul\":6703:6717   */\n      add\n        /* \"#utility.yul\":6696:6751   */\n      mstore\n        /* \"#utility.yul\":6579:6758   */\n      pop\n      jump\t// out\n        /* \"#utility.yul\":6764:7130   */\n    tag_117:\n        /* \"#utility.yul\":6906:6909   */\n      0x00\n        /* \"#utility.yul\":6927:6994   */\n      tag_204\n        /* \"#utility.yul\":6991:6993   */\n      0x1d\n        /* \"#utility.yul\":6986:6989   */\n      dup4\n        /* \"#utility.yul\":6927:6994   */\n      tag_115\n      jump\t// in\n    tag_204:\n        /* \"#utility.yul\":6920:6994   */\n      swap2\n      pop\n        /* \"#utility.yul\":7003:7096   */\n      tag_205\n        /* \"#utility.yul\":7092:7095   */\n      dup3\n        /* \"#utility.yul\":7003:7096   */\n      tag_116\n      jump\t// in\n    tag_205:\n        /* \"#utility.yul\":7121:7123   */\n      0x20\n        /* \"#utility.yul\":7116:7119   */\n      dup3\n        /* \"#utility.yul\":7112:7124   */\n      add\n        /* \"#utility.yul\":7105:7124   */\n      swap1\n      pop\n        /* \"#utility.yul\":6764:7130   */\n      swap2\n      swap1\n      pop\n      jump\t// out\n        /* \"#utility.yul\":7136:7555   */\n    tag_50:\n        /* \"#utility.yul\":7302:7306   */\n      0x00\n        /* \"#utility.yul\":7340:7342   */\n      0x20\n        /* \"#utility.yul\":7329:7338   */\n      dup3\n        /* \"#utility.yul\":7325:7343   */\n      add\n        /* \"#utility.yul\":7317:7343   */\n      swap1\n      pop\n        /* \"#utility.yul\":7389:7398   */\n      dup2\n        /* \"#utility.yul\":7383:7387   */\n      dup2\n        /* \"#utility.yul\":7379:7399   */\n      sub\n        /* \"#utility.yul\":7375:7376   */\n      0x00\n        /* \"#utility.yul\":7364:7373   */\n      dup4\n        /* \"#utility.yul\":7360:7377   */\n      add\n        /* \"#utility.yul\":7353:7400   */\n      mstore\n        /* \"#utility.yul\":7417:7548   */\n      tag_207\n        /* \"#utility.yul\":7543:7547   */\n      dup2\n        /* \"#utility.yul\":7417:7548   */\n      tag_117\n      jump\t// in\n    tag_207:\n        /* \"#utility.yul\":7409:7548   */\n      swap1\n      pop\n        /* \"#utility.yul\":7136:7555   */\n      swap2\n      swap1\n      pop\n      jump\t// out\n        /* \"#utility.yul\":7561:7740   */\n    tag_118:\n        /* \"#utility.yul\":7701:7732   */\n      0x456e6372797074696f6e206b657920646f6573206e6f74206578697374000000\n        /* \"#utility.yul\":7697:7698   */\n      0x00\n        /* \"#utility.yul\":7689:7695   */\n      dup3\n        /* \"#utility.yul\":7685:7699   */\n      add\n        /* \"#utility.yul\":7678:7733   */\n      mstore\n        /* \"#utility.yul\":7561:7740   */\n      pop\n      jump\t// out\n        /* \"#utility.yul\":7746:8112   */\n    tag_119:\n        /* \"#utility.yul\":7888:7891   */\n      0x00\n        /* \"#utility.yul\":7909:7976   */\n      tag_210\n        /* \"#utility.yul\":7973:7975   */\n      0x1d\n        /* \"#utility.yul\":7968:7971   */\n      dup4\n        /* \"#utility.yul\":7909:7976   */\n      tag_115\n      jump\t// in\n    tag_210:\n        /* \"#utility.yul\":7902:7976   */\n      swap2\n      pop\n        /* \"#utility.yul\":7985:8078   */\n      tag_211\n        /* \"#utility.yul\":8074:8077   */\n      dup3\n        /* \"#utility.yul\":7985:8078   */\n      tag_118\n      jump\t// in\n    tag_211:\n        /* \"#utility.yul\":8103:8105   */\n      0x20\n        /* \"#utility.yul\":8098:8101   */\n      dup3\n        /* \"#utility.yul\":8094:8106   */\n      add\n        /* \"#utility.yul\":8087:8106   */\n      swap1\n      pop\n        /* \"#utility.yul\":7746:8112   */\n      swap2\n      swap1\n      pop\n      jump\t// out\n        /* \"#utility.yul\":8118:8537   */\n    tag_56:\n        /* \"#utility.yul\":8284:8288   */\n      0x00\n        /* \"#utility.yul\":8322:8324   */\n      0x20\n        /* \"#utility.yul\":8311:8320   */\n      dup3\n        /* \"#utility.yul\":8307:8325   */\n      add\n        /* \"#utility.yul\":8299:8325   */\n      swap1\n      pop\n        /* \"#utility.yul\":8371:8380   */\n      dup2\n        /* \"#utility.yul\":8365:8369   */\n      dup2\n        /* \"#utility.yul\":8361:8381   */\n      sub\n        /* \"#utility.yul\":8357:8358   */\n      0x00\n        /* \"#utility.yul\":8346:8355   */\n      dup4\n        /* \"#utility.yul\":8342:8359   */\n      add\n        /* \"#utility.yul\":8335:8382   */\n      mstore\n        /* \"#utility.yul\":8399:8530   */\n      tag_213\n        /* \"#utility.yul\":8525:8529   */\n      dup2\n        /* \"#utility.yul\":8399:8530   */\n      tag_119\n      jump\t// in\n    tag_213:\n        /* \"#utility.yul\":8391:8530   */\n      swap1\n      pop\n        /* \"#utility.yul\":8118:8537   */\n      swap2\n      swap1\n      pop\n      jump\t// out\n        /* \"#utility.yul\":8543:8763   */\n    tag_120:\n        /* \"#utility.yul\":8683:8717   */\n      0x4f6c6420656e6372797074696f6e206b657920646f6573206e6f742065786973\n        /* \"#utility.yul\":8679:8680   */\n      0x00\n        /* \"#utility.yul\":8671:8677   */\n      dup3\n        /* \"#utility.yul\":8667:8681   */\n      add\n        /* \"#utility.yul\":8660:8718   */\n      mstore\n        /* \"#utility.yul\":8752:8755   */\n      0x7400000000000000000000000000000000000000000000000000000000000000\n        /* \"#utility.yul\":8747:8749   */\n      0x20\n        /* \"#utility.yul\":8739:8745   */\n      dup3\n        /* \"#utility.yul\":8735:8750   */\n      add\n        /* \"#utility.yul\":8728:8756   */\n      mstore\n        /* \"#utility.yul\":8543:8763   */\n      pop\n      jump\t// out\n        /* \"#utility.yul\":8769:9135   */\n    tag_121:\n        /* \"#utility.yul\":8911:8914   */\n      0x00\n        /* \"#utility.yul\":8932:8999   */\n      tag_216\n        /* \"#utility.yul\":8996:8998   */\n      0x21\n        /* \"#utility.yul\":8991:8994   */\n      dup4\n        /* \"#utility.yul\":8932:8999   */\n      tag_115\n      jump\t// in\n    tag_216:\n        /* \"#utility.yul\":8925:8999   */\n      swap2\n      pop\n        /* \"#utility.yul\":9008:9101   */\n      tag_217\n        /* \"#utility.yul\":9097:9100   */\n      dup3\n        /* \"#utility.yul\":9008:9101   */\n      tag_120\n      jump\t// in\n    tag_217:\n        /* \"#utility.yul\":9126:9128   */\n      0x40\n        /* \"#utility.yul\":9121:9124   */\n      dup3\n        /* \"#utility.yul\":9117:9129   */\n      add\n        /* \"#utility.yul\":9110:9129   */\n      swap1\n      pop\n        /* \"#utility.yul\":8769:9135   */\n      swap2\n      swap1\n      pop\n      jump\t// out\n        /* \"#utility.yul\":9141:9560   */\n    tag_70:\n        /* \"#utility.yul\":9307:9311   */\n      0x00\n        /* \"#utility.yul\":9345:9347   */\n      0x20\n        /* \"#utility.yul\":9334:9343   */\n      dup3\n        /* \"#utility.yul\":9330:9348   */\n      add\n        /* \"#utility.yul\":9322:9348   */\n      swap1\n      pop\n        /* \"#utility.yul\":9394:9403   */\n      dup2\n        /* \"#utility.yul\":9388:9392   */\n      dup2\n        /* \"#utility.yul\":9384:9404   */\n      sub\n        /* \"#utility.yul\":9380:9381   */\n      0x00\n        /* \"#utility.yul\":9369:9378   */\n      dup4\n        /* \"#utility.yul\":9365:9382   */\n      add\n        /* \"#utility.yul\":9358:9405   */\n      mstore\n        /* \"#utility.yul\":9422:9553   */\n      tag_219\n        /* \"#utility.yul\":9548:9552   */\n      dup2\n        /* \"#utility.yul\":9422:9553   */\n      tag_121\n      jump\t// in\n    tag_219:\n        /* \"#utility.yul\":9414:9553   */\n      swap1\n      pop\n        /* \"#utility.yul\":9141:9560   */\n      swap2\n      swap1\n      pop\n      jump\t// out\n        /* \"#utility.yul\":9566:9786   */\n    tag_122:\n        /* \"#utility.yul\":9706:9740   */\n      0x4e657720656e6372797074696f6e206b657920616c7265616479206578697374\n        /* \"#utility.yul\":9702:9703   */\n      0x00\n        /* \"#utility.yul\":9694:9700   */\n      dup3\n        /* \"#utility.yul\":9690:9704   */\n      add\n        /* \"#utility.yul\":9683:9741   */\n      mstore\n        /* \"#utility.yul\":9775:9778   */\n      0x7300000000000000000000000000000000000000000000000000000000000000\n        /* \"#utility.yul\":9770:9772   */\n      0x20\n        /* \"#utility.yul\":9762:9768   */\n      dup3\n        /* \"#utility.yul\":9758:9773   */\n      add\n        /* \"#utility.yul\":9751:9779   */\n      mstore\n        /* \"#utility.yul\":9566:9786   */\n      pop\n      jump\t// out\n        /* \"#utility.yul\":9792:10158   */\n    tag_123:\n        /* \"#utility.yul\":9934:9937   */\n      0x00\n        /* \"#utility.yul\":9955:10022   */\n      tag_222\n        /* \"#utility.yul\":10019:10021   */\n      0x21\n        /* \"#utility.yul\":10014:10017   */\n      dup4\n        /* \"#utility.yul\":9955:10022   */\n      tag_115\n      jump\t// in\n    tag_222:\n        /* \"#utility.yul\":9948:10022   */\n      swap2\n      pop\n        /* \"#utility.yul\":10031:10124   */\n      tag_223\n        /* \"#utility.yul\":10120:10123   */\n      dup3\n        /* \"#utility.yul\":10031:10124   */\n      tag_122\n      jump\t// in\n    tag_223:\n        /* \"#utility.yul\":10149:10151   */\n      0x40\n        /* \"#utility.yul\":10144:10147   */\n      dup3\n        /* \"#utility.yul\":10140:10152   */\n      add\n        /* \"#utility.yul\":10133:10152   */\n      swap1\n      pop\n        /* \"#utility.yul\":9792:10158   */\n      swap2\n      swap1\n      pop\n      jump\t// out\n        /* \"#utility.yul\":10164:10583   */\n    tag_73:\n        /* \"#utility.yul\":10330:10334   */\n      0x00\n        /* \"#utility.yul\":10368:10370   */\n      0x20\n        /* \"#utility.yul\":10357:10366   */\n      dup3\n        /* \"#utility.yul\":10353:10371   */\n      add\n        /* \"#utility.yul\":10345:10371   */\n      swap1\n      pop\n        /* \"#utility.yul\":10417:10426   */\n      dup2\n        /* \"#utility.yul\":10411:10415   */\n      dup2\n        /* \"#utility.yul\":10407:10427   */\n      sub\n        /* \"#utility.yul\":10403:10404   */\n      0x00\n        /* \"#utility.yul\":10392:10401   */\n      dup4\n        /* \"#utility.yul\":10388:10405   */\n      add\n        /* \"#utility.yul\":10381:10428   */\n      mstore\n        /* \"#utility.yul\":10445:10576   */\n      tag_225\n        /* \"#utility.yul\":10571:10575   */\n      dup2\n        /* \"#utility.yul\":10445:10576   */\n      tag_123\n      jump\t// in\n    tag_225:\n        /* \"#utility.yul\":10437:10576   */\n      swap1\n      pop\n        /* \"#utility.yul\":10164:10583   */\n      swap2\n      swap1\n      pop\n      jump\t// out\n\n    auxdata: 0xa2646970667358221220bdc7d6ab38f2950b978f84cf7db456f01fd54de04bf3955e9b6bf9eafec0f9c864736f6c634300081a0033\n}\n",
				"bytecode": {
					"linkReferences": {},
					"object": "608060405234801561000f575f80fd5b50335f73ffffffffffffffffffffffffffffffffffffffff168173ffffffffffffffffffffffffffffffffffffffff1603610081575f6040517f1e4fbdf70000000000000000000000000000000000000000000000000000000081526004016100789190610196565b60405180910390fd5b6100908161009660201b60201c565b506101af565b5f805f9054906101000a900473ffffffffffffffffffffffffffffffffffffffff169050815f806101000a81548173ffffffffffffffffffffffffffffffffffffffff021916908373ffffffffffffffffffffffffffffffffffffffff1602179055508173ffffffffffffffffffffffffffffffffffffffff168173ffffffffffffffffffffffffffffffffffffffff167f8be0079c531659141344cd1fd0a4f28419497f9722a3daafe3b4186f6b6457e060405160405180910390a35050565b5f73ffffffffffffffffffffffffffffffffffffffff82169050919050565b5f61018082610157565b9050919050565b61019081610176565b82525050565b5f6020820190506101a95f830184610187565b92915050565b610bd1806101bc5f395ff3fe608060405234801561000f575f80fd5b5060043610610086575f3560e01c806389fded2f1161005957806389fded2f146100fc5780638da5cb5b14610118578063a2036faf14610136578063f2fde38b1461016657610086565b8063437b347c1461008a578063545c7aa2146100a657806368cab359146100c2578063715018a6146100f2575b5f80fd5b6100a4600480360381019061009f919061068e565b610182565b005b6100c060048036038101906100bb91906106cc565b610226565b005b6100dc60048036038101906100d79190610833565b6102c7565b6040516100e99190610889565b60405180910390f35b6100fa61030c565b005b610116600480360381019061011191906108a2565b61031f565b005b61012061042e565b60405161012d9190610931565b60405180910390f35b610150600480360381019061014b91906106cc565b610455565b60405161015d9190610889565b60405180910390f35b610180600480360381019061017b9190610974565b610477565b005b61018a6104fb565b5f801b60015f8481526020019081526020015f2054146101df576040517f08c379a00000000000000000000000000000000000000000000000000000000081526004016101d6906109f9565b60405180910390fd5b8060015f8481526020019081526020015f2081905550817f9d0ffd30ad196654363e4d1cc3020dae7668fa0f0ed4067b6126fdbc91e55e8460405160405180910390a25050565b61022e6104fb565b5f801b60015f8381526020019081526020015f205403610283576040517f08c379a000000000000000000000000000000000000000000000000000000000815260040161027a90610a61565b60405180910390fd5b60015f8281526020019081526020015f205f9055807fd671d4d81698fa7ce4c133483d76d7f653fe940be8eb9152fd7ef69a1582b1fe60405160405180910390a250565b5f6102d06104fb565b81805190602001209050807f77485319439b79f35b8ce7f2ed9ea1e70e03406efd646301771fb0bda1fcb4e260405160405180910390a2919050565b6103146104fb565b61031d5f610582565b565b6103276104fb565b5f801b60015f8581526020019081526020015f20540361037c576040517f08c379a000000000000000000000000000000000000000000000000000000000815260040161037390610aef565b60405180910390fd5b5f801b60015f8481526020019081526020015f2054146103d1576040517f08c379a00000000000000000000000000000000000000000000000000000000081526004016103c890610b7d565b60405180910390fd5b60015f8481526020019081526020015f205f90558060015f8481526020019081526020015f208190555081837fb9d170929f5d4791fc211d4914fbb4841c93a6090cae38e072740aed02b52ba360405160405180910390a3505050565b5f805f9054906101000a900473ffffffffffffffffffffffffffffffffffffffff16905090565b5f61045e6104fb565b60015f8381526020019081526020015f20549050919050565b61047f6104fb565b5f73ffffffffffffffffffffffffffffffffffffffff168173ffffffffffffffffffffffffffffffffffffffff16036104ef575f6040517f1e4fbdf70000000000000000000000000000000000000000000000000000000081526004016104e69190610931565b60405180910390fd5b6104f881610582565b50565b610503610643565b73ffffffffffffffffffffffffffffffffffffffff1661052161042e565b73ffffffffffffffffffffffffffffffffffffffff161461058057610544610643565b6040517f118cdaa70000000000000000000000000000000000000000000000000000000081526004016105779190610931565b60405180910390fd5b565b5f805f9054906101000a900473ffffffffffffffffffffffffffffffffffffffff169050815f806101000a81548173ffffffffffffffffffffffffffffffffffffffff021916908373ffffffffffffffffffffffffffffffffffffffff1602179055508173ffffffffffffffffffffffffffffffffffffffff168173ffffffffffffffffffffffffffffffffffffffff167f8be0079c531659141344cd1fd0a4f28419497f9722a3daafe3b4186f6b6457e060405160405180910390a35050565b5f33905090565b5f604051905090565b5f80fd5b5f80fd5b5f819050919050565b61066d8161065b565b8114610677575f80fd5b50565b5f8135905061068881610664565b92915050565b5f80604083850312156106a4576106a3610653565b5b5f6106b18582860161067a565b92505060206106c28582860161067a565b9150509250929050565b5f602082840312156106e1576106e0610653565b5b5f6106ee8482850161067a565b91505092915050565b5f80fd5b5f80fd5b5f601f19601f8301169050919050565b7f4e487b71000000000000000000000000000000000000000000000000000000005f52604160045260245ffd5b610745826106ff565b810181811067ffffffffffffffff821117156107645761076361070f565b5b80604052505050565b5f61077661064a565b9050610782828261073c565b919050565b5f67ffffffffffffffff8211156107a1576107a061070f565b5b6107aa826106ff565b9050602081019050919050565b828183375f83830152505050565b5f6107d76107d284610787565b61076d565b9050828152602081018484840111156107f3576107f26106fb565b5b6107fe8482856107b7565b509392505050565b5f82601f83011261081a576108196106f7565b5b813561082a8482602086016107c5565b91505092915050565b5f6020828403121561084857610847610653565b5b5f82013567ffffffffffffffff81111561086557610864610657565b5b61087184828501610806565b91505092915050565b6108838161065b565b82525050565b5f60208201905061089c5f83018461087a565b92915050565b5f805f606084860312156108b9576108b8610653565b5b5f6108c68682870161067a565b93505060206108d78682870161067a565b92505060406108e88682870161067a565b9150509250925092565b5f73ffffffffffffffffffffffffffffffffffffffff82169050919050565b5f61091b826108f2565b9050919050565b61092b81610911565b82525050565b5f6020820190506109445f830184610922565b92915050565b61095381610911565b811461095d575f80fd5b50565b5f8135905061096e8161094a565b92915050565b5f6020828403121561098957610988610653565b5b5f61099684828501610960565b91505092915050565b5f82825260208201905092915050565b7f456e6372797074696f6e206b657920616c7265616479206578697374730000005f82015250565b5f6109e3601d8361099f565b91506109ee826109af565b602082019050919050565b5f6020820190508181035f830152610a10816109d7565b9050919050565b7f456e6372797074696f6e206b657920646f6573206e6f742065786973740000005f82015250565b5f610a4b601d8361099f565b9150610a5682610a17565b602082019050919050565b5f6020820190508181035f830152610a7881610a3f565b9050919050565b7f4f6c6420656e6372797074696f6e206b657920646f6573206e6f7420657869735f8201527f7400000000000000000000000000000000000000000000000000000000000000602082015250565b5f610ad960218361099f565b9150610ae482610a7f565b604082019050919050565b5f6020820190508181035f830152610b0681610acd565b9050919050565b7f4e657720656e6372797074696f6e206b657920616c72656164792065786973745f8201527f7300000000000000000000000000000000000000000000000000000000000000602082015250565b5f610b6760218361099f565b9150610b7282610b0d565b604082019050919050565b5f6020820190508181035f830152610b9481610b5b565b905091905056fea2646970667358221220bdc7d6ab38f2950b978f84cf7db456f01fd54de04bf3955e9b6bf9eafec0f9c864736f6c634300081a0033",
					"opcodes": "PUSH1 0x80 PUSH1 0x40 MSTORE CALLVALUE DUP1 ISZERO PUSH2 0xF JUMPI PUSH0 DUP1 REVERT JUMPDEST POP CALLER PUSH0 PUSH20 0xFFFFFFFFFFFFFFFFFFFFFFFFFFFFFFFFFFFFFFFF AND DUP2 PUSH20 0xFFFFFFFFFFFFFFFFFFFFFFFFFFFFFFFFFFFFFFFF AND SUB PUSH2 0x81 JUMPI PUSH0 PUSH1 0x40 MLOAD PUSH32 0x1E4FBDF700000000000000000000000000000000000000000000000000000000 DUP2 MSTORE PUSH1 0x4 ADD PUSH2 0x78 SWAP2 SWAP1 PUSH2 0x196 JUMP JUMPDEST PUSH1 0x40 MLOAD DUP1 SWAP2 SUB SWAP1 REVERT JUMPDEST PUSH2 0x90 DUP2 PUSH2 0x96 PUSH1 0x20 SHL PUSH1 0x20 SHR JUMP JUMPDEST POP PUSH2 0x1AF JUMP JUMPDEST PUSH0 DUP1 PUSH0 SWAP1 SLOAD SWAP1 PUSH2 0x100 EXP SWAP1 DIV PUSH20 0xFFFFFFFFFFFFFFFFFFFFFFFFFFFFFFFFFFFFFFFF AND SWAP1 POP DUP2 PUSH0 DUP1 PUSH2 0x100 EXP DUP2 SLOAD DUP2 PUSH20 0xFFFFFFFFFFFFFFFFFFFFFFFFFFFFFFFFFFFFFFFF MUL NOT AND SWAP1 DUP4 PUSH20 0xFFFFFFFFFFFFFFFFFFFFFFFFFFFFFFFFFFFFFFFF AND MUL OR SWAP1 SSTORE POP DUP2 PUSH20 0xFFFFFFFFFFFFFFFFFFFFFFFFFFFFFFFFFFFFFFFF AND DUP2 PUSH20 0xFFFFFFFFFFFFFFFFFFFFFFFFFFFFFFFFFFFFFFFF AND PUSH32 0x8BE0079C531659141344CD1FD0A4F28419497F9722A3DAAFE3B4186F6B6457E0 PUSH1 0x40 MLOAD PUSH1 0x40 MLOAD DUP1 SWAP2 SUB SWAP1 LOG3 POP POP JUMP JUMPDEST PUSH0 PUSH20 0xFFFFFFFFFFFFFFFFFFFFFFFFFFFFFFFFFFFFFFFF DUP3 AND SWAP1 POP SWAP2 SWAP1 POP JUMP JUMPDEST PUSH0 PUSH2 0x180 DUP3 PUSH2 0x157 JUMP JUMPDEST SWAP1 POP SWAP2 SWAP1 POP JUMP JUMPDEST PUSH2 0x190 DUP2 PUSH2 0x176 JUMP JUMPDEST DUP3 MSTORE POP POP JUMP JUMPDEST PUSH0 PUSH1 0x20 DUP3 ADD SWAP1 POP PUSH2 0x1A9 PUSH0 DUP4 ADD DUP5 PUSH2 0x187 JUMP JUMPDEST SWAP3 SWAP2 POP POP JUMP JUMPDEST PUSH2 0xBD1 DUP1 PUSH2 0x1BC PUSH0 CODECOPY PUSH0 RETURN INVALID PUSH1 0x80 PUSH1 0x40 MSTORE CALLVALUE DUP1 ISZERO PUSH2 0xF JUMPI PUSH0 DUP1 REVERT JUMPDEST POP PUSH1 0x4 CALLDATASIZE LT PUSH2 0x86 JUMPI PUSH0 CALLDATALOAD PUSH1 0xE0 SHR DUP1 PUSH4 0x89FDED2F GT PUSH2 0x59 JUMPI DUP1 PUSH4 0x89FDED2F EQ PUSH2 0xFC JUMPI DUP1 PUSH4 0x8DA5CB5B EQ PUSH2 0x118 JUMPI DUP1 PUSH4 0xA2036FAF EQ PUSH2 0x136 JUMPI DUP1 PUSH4 0xF2FDE38B EQ PUSH2 0x166 JUMPI PUSH2 0x86 JUMP JUMPDEST DUP1 PUSH4 0x437B347C EQ PUSH2 0x8A JUMPI DUP1 PUSH4 0x545C7AA2 EQ PUSH2 0xA6 JUMPI DUP1 PUSH4 0x68CAB359 EQ PUSH2 0xC2 JUMPI DUP1 PUSH4 0x715018A6 EQ PUSH2 0xF2 JUMPI JUMPDEST PUSH0 DUP1 REVERT JUMPDEST PUSH2 0xA4 PUSH1 0x4 DUP1 CALLDATASIZE SUB DUP2 ADD SWAP1 PUSH2 0x9F SWAP2 SWAP1 PUSH2 0x68E JUMP JUMPDEST PUSH2 0x182 JUMP JUMPDEST STOP JUMPDEST PUSH2 0xC0 PUSH1 0x4 DUP1 CALLDATASIZE SUB DUP2 ADD SWAP1 PUSH2 0xBB SWAP2 SWAP1 PUSH2 0x6CC JUMP JUMPDEST PUSH2 0x226 JUMP JUMPDEST STOP JUMPDEST PUSH2 0xDC PUSH1 0x4 DUP1 CALLDATASIZE SUB DUP2 ADD SWAP1 PUSH2 0xD7 SWAP2 SWAP1 PUSH2 0x833 JUMP JUMPDEST PUSH2 0x2C7 JUMP JUMPDEST PUSH1 0x40 MLOAD PUSH2 0xE9 SWAP2 SWAP1 PUSH2 0x889 JUMP JUMPDEST PUSH1 0x40 MLOAD DUP1 SWAP2 SUB SWAP1 RETURN JUMPDEST PUSH2 0xFA PUSH2 0x30C JUMP JUMPDEST STOP JUMPDEST PUSH2 0x116 PUSH1 0x4 DUP1 CALLDATASIZE SUB DUP2 ADD SWAP1 PUSH2 0x111 SWAP2 SWAP1 PUSH2 0x8A2 JUMP JUMPDEST PUSH2 0x31F JUMP JUMPDEST STOP JUMPDEST PUSH2 0x120 PUSH2 0x42E JUMP JUMPDEST PUSH1 0x40 MLOAD PUSH2 0x12D SWAP2 SWAP1 PUSH2 0x931 JUMP JUMPDEST PUSH1 0x40 MLOAD DUP1 SWAP2 SUB SWAP1 RETURN JUMPDEST PUSH2 0x150 PUSH1 0x4 DUP1 CALLDATASIZE SUB DUP2 ADD SWAP1 PUSH2 0x14B SWAP2 SWAP1 PUSH2 0x6CC JUMP JUMPDEST PUSH2 0x455 JUMP JUMPDEST PUSH1 0x40 MLOAD PUSH2 0x15D SWAP2 SWAP1 PUSH2 0x889 JUMP JUMPDEST PUSH1 0x40 MLOAD DUP1 SWAP2 SUB SWAP1 RETURN JUMPDEST PUSH2 0x180 PUSH1 0x4 DUP1 CALLDATASIZE SUB DUP2 ADD SWAP1 PUSH2 0x17B SWAP2 SWAP1 PUSH2 0x974 JUMP JUMPDEST PUSH2 0x477 JUMP JUMPDEST STOP JUMPDEST PUSH2 0x18A PUSH2 0x4FB JUMP JUMPDEST PUSH0 DUP1 SHL PUSH1 0x1 PUSH0 DUP5 DUP2 MSTORE PUSH1 0x20 ADD SWAP1 DUP2 MSTORE PUSH1 0x20 ADD PUSH0 KECCAK256 SLOAD EQ PUSH2 0x1DF JUMPI PUSH1 0x40 MLOAD PUSH32 0x8C379A000000000000000000000000000000000000000000000000000000000 DUP2 MSTORE PUSH1 0x4 ADD PUSH2 0x1D6 SWAP1 PUSH2 0x9F9 JUMP JUMPDEST PUSH1 0x40 MLOAD DUP1 SWAP2 SUB SWAP1 REVERT JUMPDEST DUP1 PUSH1 0x1 PUSH0 DUP5 DUP2 MSTORE PUSH1 0x20 ADD SWAP1 DUP2 MSTORE PUSH1 0x20 ADD PUSH0 KECCAK256 DUP2 SWAP1 SSTORE POP DUP2 PUSH32 0x9D0FFD30AD196654363E4D1CC3020DAE7668FA0F0ED4067B6126FDBC91E55E84 PUSH1 0x40 MLOAD PUSH1 0x40 MLOAD DUP1 SWAP2 SUB SWAP1 LOG2 POP POP JUMP JUMPDEST PUSH2 0x22E PUSH2 0x4FB JUMP JUMPDEST PUSH0 DUP1 SHL PUSH1 0x1 PUSH0 DUP4 DUP2 MSTORE PUSH1 0x20 ADD SWAP1 DUP2 MSTORE PUSH1 0x20 ADD PUSH0 KECCAK256 SLOAD SUB PUSH2 0x283 JUMPI PUSH1 0x40 MLOAD PUSH32 0x8C379A000000000000000000000000000000000000000000000000000000000 DUP2 MSTORE PUSH1 0x4 ADD PUSH2 0x27A SWAP1 PUSH2 0xA61 JUMP JUMPDEST PUSH1 0x40 MLOAD DUP1 SWAP2 SUB SWAP1 REVERT JUMPDEST PUSH1 0x1 PUSH0 DUP3 DUP2 MSTORE PUSH1 0x20 ADD SWAP1 DUP2 MSTORE PUSH1 0x20 ADD PUSH0 KECCAK256 PUSH0 SWAP1 SSTORE DUP1 PUSH32 0xD671D4D81698FA7CE4C133483D76D7F653FE940BE8EB9152FD7EF69A1582B1FE PUSH1 0x40 MLOAD PUSH1 0x40 MLOAD DUP1 SWAP2 SUB SWAP1 LOG2 POP JUMP JUMPDEST PUSH0 PUSH2 0x2D0 PUSH2 0x4FB JUMP JUMPDEST DUP2 DUP1 MLOAD SWAP1 PUSH1 0x20 ADD KECCAK256 SWAP1 POP DUP1 PUSH32 0x77485319439B79F35B8CE7F2ED9EA1E70E03406EFD646301771FB0BDA1FCB4E2 PUSH1 0x40 MLOAD PUSH1 0x40 MLOAD DUP1 SWAP2 SUB SWAP1 LOG2 SWAP2 SWAP1 POP JUMP JUMPDEST PUSH2 0x314 PUSH2 0x4FB JUMP JUMPDEST PUSH2 0x31D PUSH0 PUSH2 0x582 JUMP JUMPDEST JUMP JUMPDEST PUSH2 0x327 PUSH2 0x4FB JUMP JUMPDEST PUSH0 DUP1 SHL PUSH1 0x1 PUSH0 DUP6 DUP2 MSTORE PUSH1 0x20 ADD SWAP1 DUP2 MSTORE PUSH1 0x20 ADD PUSH0 KECCAK256 SLOAD SUB PUSH2 0x37C JUMPI PUSH1 0x40 MLOAD PUSH32 0x8C379A000000000000000000000000000000000000000000000000000000000 DUP2 MSTORE PUSH1 0x4 ADD PUSH2 0x373 SWAP1 PUSH2 0xAEF JUMP JUMPDEST PUSH1 0x40 MLOAD DUP1 SWAP2 SUB SWAP1 REVERT JUMPDEST PUSH0 DUP1 SHL PUSH1 0x1 PUSH0 DUP5 DUP2 MSTORE PUSH1 0x20 ADD SWAP1 DUP2 MSTORE PUSH1 0x20 ADD PUSH0 KECCAK256 SLOAD EQ PUSH2 0x3D1 JUMPI PUSH1 0x40 MLOAD PUSH32 0x8C379A000000000000000000000000000000000000000000000000000000000 DUP2 MSTORE PUSH1 0x4 ADD PUSH2 0x3C8 SWAP1 PUSH2 0xB7D JUMP JUMPDEST PUSH1 0x40 MLOAD DUP1 SWAP2 SUB SWAP1 REVERT JUMPDEST PUSH1 0x1 PUSH0 DUP5 DUP2 MSTORE PUSH1 0x20 ADD SWAP1 DUP2 MSTORE PUSH1 0x20 ADD PUSH0 KECCAK256 PUSH0 SWAP1 SSTORE DUP1 PUSH1 0x1 PUSH0 DUP5 DUP2 MSTORE PUSH1 0x20 ADD SWAP1 DUP2 MSTORE PUSH1 0x20 ADD PUSH0 KECCAK256 DUP2 SWAP1 SSTORE POP DUP2 DUP4 PUSH32 0xB9D170929F5D4791FC211D4914FBB4841C93A6090CAE38E072740AED02B52BA3 PUSH1 0x40 MLOAD PUSH1 0x40 MLOAD DUP1 SWAP2 SUB SWAP1 LOG3 POP POP POP JUMP JUMPDEST PUSH0 DUP1 PUSH0 SWAP1 SLOAD SWAP1 PUSH2 0x100 EXP SWAP1 DIV PUSH20 0xFFFFFFFFFFFFFFFFFFFFFFFFFFFFFFFFFFFFFFFF AND SWAP1 POP SWAP1 JUMP JUMPDEST PUSH0 PUSH2 0x45E PUSH2 0x4FB JUMP JUMPDEST PUSH1 0x1 PUSH0 DUP4 DUP2 MSTORE PUSH1 0x20 ADD SWAP1 DUP2 MSTORE PUSH1 0x20 ADD PUSH0 KECCAK256 SLOAD SWAP1 POP SWAP2 SWAP1 POP JUMP JUMPDEST PUSH2 0x47F PUSH2 0x4FB JUMP JUMPDEST PUSH0 PUSH20 0xFFFFFFFFFFFFFFFFFFFFFFFFFFFFFFFFFFFFFFFF AND DUP2 PUSH20 0xFFFFFFFFFFFFFFFFFFFFFFFFFFFFFFFFFFFFFFFF AND SUB PUSH2 0x4EF JUMPI PUSH0 PUSH1 0x40 MLOAD PUSH32 0x1E4FBDF700000000000000000000000000000000000000000000000000000000 DUP2 MSTORE PUSH1 0x4 ADD PUSH2 0x4E6 SWAP2 SWAP1 PUSH2 0x931 JUMP JUMPDEST PUSH1 0x40 MLOAD DUP1 SWAP2 SUB SWAP1 REVERT JUMPDEST PUSH2 0x4F8 DUP2 PUSH2 0x582 JUMP JUMPDEST POP JUMP JUMPDEST PUSH2 0x503 PUSH2 0x643 JUMP JUMPDEST PUSH20 0xFFFFFFFFFFFFFFFFFFFFFFFFFFFFFFFFFFFFFFFF AND PUSH2 0x521 PUSH2 0x42E JUMP JUMPDEST PUSH20 0xFFFFFFFFFFFFFFFFFFFFFFFFFFFFFFFFFFFFFFFF AND EQ PUSH2 0x580 JUMPI PUSH2 0x544 PUSH2 0x643 JUMP JUMPDEST PUSH1 0x40 MLOAD PUSH32 0x118CDAA700000000000000000000000000000000000000000000000000000000 DUP2 MSTORE PUSH1 0x4 ADD PUSH2 0x577 SWAP2 SWAP1 PUSH2 0x931 JUMP JUMPDEST PUSH1 0x40 MLOAD DUP1 SWAP2 SUB SWAP1 REVERT JUMPDEST JUMP JUMPDEST PUSH0 DUP1 PUSH0 SWAP1 SLOAD SWAP1 PUSH2 0x100 EXP SWAP1 DIV PUSH20 0xFFFFFFFFFFFFFFFFFFFFFFFFFFFFFFFFFFFFFFFF AND SWAP1 POP DUP2 PUSH0 DUP1 PUSH2 0x100 EXP DUP2 SLOAD DUP2 PUSH20 0xFFFFFFFFFFFFFFFFFFFFFFFFFFFFFFFFFFFFFFFF MUL NOT AND SWAP1 DUP4 PUSH20 0xFFFFFFFFFFFFFFFFFFFFFFFFFFFFFFFFFFFFFFFF AND MUL OR SWAP1 SSTORE POP DUP2 PUSH20 0xFFFFFFFFFFFFFFFFFFFFFFFFFFFFFFFFFFFFFFFF AND DUP2 PUSH20 0xFFFFFFFFFFFFFFFFFFFFFFFFFFFFFFFFFFFFFFFF AND PUSH32 0x8BE0079C531659141344CD1FD0A4F28419497F9722A3DAAFE3B4186F6B6457E0 PUSH1 0x40 MLOAD PUSH1 0x40 MLOAD DUP1 SWAP2 SUB SWAP1 LOG3 POP POP JUMP JUMPDEST PUSH0 CALLER SWAP1 POP SWAP1 JUMP JUMPDEST PUSH0 PUSH1 0x40 MLOAD SWAP1 POP SWAP1 JUMP JUMPDEST PUSH0 DUP1 REVERT JUMPDEST PUSH0 DUP1 REVERT JUMPDEST PUSH0 DUP2 SWAP1 POP SWAP2 SWAP1 POP JUMP JUMPDEST PUSH2 0x66D DUP2 PUSH2 0x65B JUMP JUMPDEST DUP2 EQ PUSH2 0x677 JUMPI PUSH0 DUP1 REVERT JUMPDEST POP JUMP JUMPDEST PUSH0 DUP2 CALLDATALOAD SWAP1 POP PUSH2 0x688 DUP2 PUSH2 0x664 JUMP JUMPDEST SWAP3 SWAP2 POP POP JUMP JUMPDEST PUSH0 DUP1 PUSH1 0x40 DUP4 DUP6 SUB SLT ISZERO PUSH2 0x6A4 JUMPI PUSH2 0x6A3 PUSH2 0x653 JUMP JUMPDEST JUMPDEST PUSH0 PUSH2 0x6B1 DUP6 DUP3 DUP7 ADD PUSH2 0x67A JUMP JUMPDEST SWAP3 POP POP PUSH1 0x20 PUSH2 0x6C2 DUP6 DUP3 DUP7 ADD PUSH2 0x67A JUMP JUMPDEST SWAP2 POP POP SWAP3 POP SWAP3 SWAP1 POP JUMP JUMPDEST PUSH0 PUSH1 0x20 DUP3 DUP5 SUB SLT ISZERO PUSH2 0x6E1 JUMPI PUSH2 0x6E0 PUSH2 0x653 JUMP JUMPDEST JUMPDEST PUSH0 PUSH2 0x6EE DUP5 DUP3 DUP6 ADD PUSH2 0x67A JUMP JUMPDEST SWAP2 POP POP SWAP3 SWAP2 POP POP JUMP JUMPDEST PUSH0 DUP1 REVERT JUMPDEST PUSH0 DUP1 REVERT JUMPDEST PUSH0 PUSH1 0x1F NOT PUSH1 0x1F DUP4 ADD AND SWAP1 POP SWAP2 SWAP1 POP JUMP JUMPDEST PUSH32 0x4E487B7100000000000000000000000000000000000000000000000000000000 PUSH0 MSTORE PUSH1 0x41 PUSH1 0x4 MSTORE PUSH1 0x24 PUSH0 REVERT JUMPDEST PUSH2 0x745 DUP3 PUSH2 0x6FF JUMP JUMPDEST DUP2 ADD DUP2 DUP2 LT PUSH8 0xFFFFFFFFFFFFFFFF DUP3 GT OR ISZERO PUSH2 0x764 JUMPI PUSH2 0x763 PUSH2 0x70F JUMP JUMPDEST JUMPDEST DUP1 PUSH1 0x40 MSTORE POP POP POP JUMP JUMPDEST PUSH0 PUSH2 0x776 PUSH2 0x64A JUMP JUMPDEST SWAP1 POP PUSH2 0x782 DUP3 DUP3 PUSH2 0x73C JUMP JUMPDEST SWAP2 SWAP1 POP JUMP JUMPDEST PUSH0 PUSH8 0xFFFFFFFFFFFFFFFF DUP3 GT ISZERO PUSH2 0x7A1 JUMPI PUSH2 0x7A0 PUSH2 0x70F JUMP JUMPDEST JUMPDEST PUSH2 0x7AA DUP3 PUSH2 0x6FF JUMP JUMPDEST SWAP1 POP PUSH1 0x20 DUP2 ADD SWAP1 POP SWAP2 SWAP1 POP JUMP JUMPDEST DUP3 DUP2 DUP4 CALLDATACOPY PUSH0 DUP4 DUP4 ADD MSTORE POP POP POP JUMP JUMPDEST PUSH0 PUSH2 0x7D7 PUSH2 0x7D2 DUP5 PUSH2 0x787 JUMP JUMPDEST PUSH2 0x76D JUMP JUMPDEST SWAP1 POP DUP3 DUP2 MSTORE PUSH1 0x20 DUP2 ADD DUP5 DUP5 DUP5 ADD GT ISZERO PUSH2 0x7F3 JUMPI PUSH2 0x7F2 PUSH2 0x6FB JUMP JUMPDEST JUMPDEST PUSH2 0x7FE DUP5 DUP3 DUP6 PUSH2 0x7B7 JUMP JUMPDEST POP SWAP4 SWAP3 POP POP POP JUMP JUMPDEST PUSH0 DUP3 PUSH1 0x1F DUP4 ADD SLT PUSH2 0x81A JUMPI PUSH2 0x819 PUSH2 0x6F7 JUMP JUMPDEST JUMPDEST DUP2 CALLDATALOAD PUSH2 0x82A DUP5 DUP3 PUSH1 0x20 DUP7 ADD PUSH2 0x7C5 JUMP JUMPDEST SWAP2 POP POP SWAP3 SWAP2 POP POP JUMP JUMPDEST PUSH0 PUSH1 0x20 DUP3 DUP5 SUB SLT ISZERO PUSH2 0x848 JUMPI PUSH2 0x847 PUSH2 0x653 JUMP JUMPDEST JUMPDEST PUSH0 DUP3 ADD CALLDATALOAD PUSH8 0xFFFFFFFFFFFFFFFF DUP2 GT ISZERO PUSH2 0x865 JUMPI PUSH2 0x864 PUSH2 0x657 JUMP JUMPDEST JUMPDEST PUSH2 0x871 DUP5 DUP3 DUP6 ADD PUSH2 0x806 JUMP JUMPDEST SWAP2 POP POP SWAP3 SWAP2 POP POP JUMP JUMPDEST PUSH2 0x883 DUP2 PUSH2 0x65B JUMP JUMPDEST DUP3 MSTORE POP POP JUMP JUMPDEST PUSH0 PUSH1 0x20 DUP3 ADD SWAP1 POP PUSH2 0x89C PUSH0 DUP4 ADD DUP5 PUSH2 0x87A JUMP JUMPDEST SWAP3 SWAP2 POP POP JUMP JUMPDEST PUSH0 DUP1 PUSH0 PUSH1 0x60 DUP5 DUP7 SUB SLT ISZERO PUSH2 0x8B9 JUMPI PUSH2 0x8B8 PUSH2 0x653 JUMP JUMPDEST JUMPDEST PUSH0 PUSH2 0x8C6 DUP7 DUP3 DUP8 ADD PUSH2 0x67A JUMP JUMPDEST SWAP4 POP POP PUSH1 0x20 PUSH2 0x8D7 DUP7 DUP3 DUP8 ADD PUSH2 0x67A JUMP JUMPDEST SWAP3 POP POP PUSH1 0x40 PUSH2 0x8E8 DUP7 DUP3 DUP8 ADD PUSH2 0x67A JUMP JUMPDEST SWAP2 POP POP SWAP3 POP SWAP3 POP SWAP3 JUMP JUMPDEST PUSH0 PUSH20 0xFFFFFFFFFFFFFFFFFFFFFFFFFFFFFFFFFFFFFFFF DUP3 AND SWAP1 POP SWAP2 SWAP1 POP JUMP JUMPDEST PUSH0 PUSH2 0x91B DUP3 PUSH2 0x8F2 JUMP JUMPDEST SWAP1 POP SWAP2 SWAP1 POP JUMP JUMPDEST PUSH2 0x92B DUP2 PUSH2 0x911 JUMP JUMPDEST DUP3 MSTORE POP POP JUMP JUMPDEST PUSH0 PUSH1 0x20 DUP3 ADD SWAP1 POP PUSH2 0x944 PUSH0 DUP4 ADD DUP5 PUSH2 0x922 JUMP JUMPDEST SWAP3 SWAP2 POP POP JUMP JUMPDEST PUSH2 0x953 DUP2 PUSH2 0x911 JUMP JUMPDEST DUP2 EQ PUSH2 0x95D JUMPI PUSH0 DUP1 REVERT JUMPDEST POP JUMP JUMPDEST PUSH0 DUP2 CALLDATALOAD SWAP1 POP PUSH2 0x96E DUP2 PUSH2 0x94A JUMP JUMPDEST SWAP3 SWAP2 POP POP JUMP JUMPDEST PUSH0 PUSH1 0x20 DUP3 DUP5 SUB SLT ISZERO PUSH2 0x989 JUMPI PUSH2 0x988 PUSH2 0x653 JUMP JUMPDEST JUMPDEST PUSH0 PUSH2 0x996 DUP5 DUP3 DUP6 ADD PUSH2 0x960 JUMP JUMPDEST SWAP2 POP POP SWAP3 SWAP2 POP POP JUMP JUMPDEST PUSH0 DUP3 DUP3 MSTORE PUSH1 0x20 DUP3 ADD SWAP1 POP SWAP3 SWAP2 POP POP JUMP JUMPDEST PUSH32 0x456E6372797074696F6E206B657920616C726561647920657869737473000000 PUSH0 DUP3 ADD MSTORE POP JUMP JUMPDEST PUSH0 PUSH2 0x9E3 PUSH1 0x1D DUP4 PUSH2 0x99F JUMP JUMPDEST SWAP2 POP PUSH2 0x9EE DUP3 PUSH2 0x9AF JUMP JUMPDEST PUSH1 0x20 DUP3 ADD SWAP1 POP SWAP2 SWAP1 POP JUMP JUMPDEST PUSH0 PUSH1 0x20 DUP3 ADD SWAP1 POP DUP2 DUP2 SUB PUSH0 DUP4 ADD MSTORE PUSH2 0xA10 DUP2 PUSH2 0x9D7 JUMP JUMPDEST SWAP1 POP SWAP2 SWAP1 POP JUMP JUMPDEST PUSH32 0x456E6372797074696F6E206B657920646F6573206E6F74206578697374000000 PUSH0 DUP3 ADD MSTORE POP JUMP JUMPDEST PUSH0 PUSH2 0xA4B PUSH1 0x1D DUP4 PUSH2 0x99F JUMP JUMPDEST SWAP2 POP PUSH2 0xA56 DUP3 PUSH2 0xA17 JUMP JUMPDEST PUSH1 0x20 DUP3 ADD SWAP1 POP SWAP2 SWAP1 POP JUMP JUMPDEST PUSH0 PUSH1 0x20 DUP3 ADD SWAP1 POP DUP2 DUP2 SUB PUSH0 DUP4 ADD MSTORE PUSH2 0xA78 DUP2 PUSH2 0xA3F JUMP JUMPDEST SWAP1 POP SWAP2 SWAP1 POP JUMP JUMPDEST PUSH32 0x4F6C6420656E6372797074696F6E206B657920646F6573206E6F742065786973 PUSH0 DUP3 ADD MSTORE PUSH32 0x7400000000000000000000000000000000000000000000000000000000000000 PUSH1 0x20 DUP3 ADD MSTORE POP JUMP JUMPDEST PUSH0 PUSH2 0xAD9 PUSH1 0x21 DUP4 PUSH2 0x99F JUMP JUMPDEST SWAP2 POP PUSH2 0xAE4 DUP3 PUSH2 0xA7F JUMP JUMPDEST PUSH1 0x40 DUP3 ADD SWAP1 POP SWAP2 SWAP1 POP JUMP JUMPDEST PUSH0 PUSH1 0x20 DUP3 ADD SWAP1 POP DUP2 DUP2 SUB PUSH0 DUP4 ADD MSTORE PUSH2 0xB06 DUP2 PUSH2 0xACD JUMP JUMPDEST SWAP1 POP SWAP2 SWAP1 POP JUMP JUMPDEST PUSH32 0x4E657720656E6372797074696F6E206B657920616C7265616479206578697374 PUSH0 DUP3 ADD MSTORE PUSH32 0x7300000000000000000000000000000000000000000000000000000000000000 PUSH1 0x20 DUP3 ADD MSTORE POP JUMP JUMPDEST PUSH0 PUSH2 0xB67 PUSH1 0x21 DUP4 PUSH2 0x99F JUMP JUMPDEST SWAP2 POP PUSH2 0xB72 DUP3 PUSH2 0xB0D JUMP JUMPDEST PUSH1 0x40 DUP3 ADD SWAP1 POP SWAP2 SWAP1 POP JUMP JUMPDEST PUSH0 PUSH1 0x20 DUP3 ADD SWAP1 POP DUP2 DUP2 SUB PUSH0 DUP4 ADD MSTORE PUSH2 0xB94 DUP2 PUSH2 0xB5B JUMP JUMPDEST SWAP1 POP SWAP2 SWAP1 POP JUMP INVALID LOG2 PUSH5 0x6970667358 0x22 SLT KECCAK256 0xBD 0xC7 0xD6 0xAB CODESIZE CALLCODE SWAP6 SIGNEXTEND SWAP8 DUP16 DUP5 0xCF PUSH30 0xB456F01FD54DE04BF3955E9B6BF9EAFEC0F9C864736F6C634300081A0033 "
				},
				"gasEstimates": {
					"creation": {
						"codeDepositCost": "605000",
						"executionCost": "infinite",
						"totalCost": "infinite"
					},
					"external": {
						"generateEncryptionKey(bytes)": "infinite",
						"getEncryptionKey(bytes32)": "infinite",
						"owner()": "2537",
						"renounceOwnership()": "infinite",
						"revokeEncryptionKey(bytes32)": "infinite",
						"rotateEncryptionKey(bytes32,bytes32,bytes32)": "infinite",
						"storeEncryptionKey(bytes32,bytes32)": "infinite",
						"transferOwnership(address)": "infinite"
					}
				},
				"methodIdentifiers": {
					"generateEncryptionKey(bytes)": "68cab359",
					"getEncryptionKey(bytes32)": "a2036faf",
					"owner()": "8da5cb5b",
					"renounceOwnership()": "715018a6",
					"revokeEncryptionKey(bytes32)": "545c7aa2",
					"rotateEncryptionKey(bytes32,bytes32,bytes32)": "89fded2f",
					"storeEncryptionKey(bytes32,bytes32)": "437b347c",
					"transferOwnership(address)": "f2fde38b"
				}
			},
			"storageLayout": {
				"storage": [
					{
						"astId": 8,
						"contract": "security/EncryptionManager.sol:EncryptionManager",
						"label": "_owner",
						"offset": 0,
						"slot": "0",
						"type": "t_address"
					},
					{
						"astId": 195,
						"contract": "security/EncryptionManager.sol:EncryptionManager",
						"label": "encryptionKeys",
						"offset": 0,
						"slot": "1",
						"type": "t_mapping(t_bytes32,t_bytes32)"
					}
				],
				"types": {
					"t_address": {
						"encoding": "inplace",
						"label": "address",
						"numberOfBytes": "20"
					},
					"t_bytes32": {
						"encoding": "inplace",
						"label": "bytes32",
						"numberOfBytes": "32"
					},
					"t_mapping(t_bytes32,t_bytes32)": {
						"encoding": "mapping",
						"key": "t_bytes32",
						"label": "mapping(bytes32 => bytes32)",
						"numberOfBytes": "32",
						"value": "t_bytes32"
					}
				}
			},
			"userdoc": {
				"kind": "user",
				"methods": {},
				"version": 1
			}
		}
	}
}